0138419410999992021010100004+23267+090700FM-12+000799999V0203601N001019999999N004000199+01521+01501101361ADDAA124000091AY101021AY201021MA1999999101301MD1999999+0101MW1051REMSYN06441941 31940 03602 10152 20150 30130 40136 70500 333 58010 70000=
0129419410999992021010103004+23267+090700FM-12+000799999V0203601N001019999999N006000199+01921+01601101581ADDAA124000091KA1240N+01451MA1999999101521MD1999999+0021REMSYN06441941 32956 03602 10192 20160 30152 40158 333 20145 58002 70000=
0110419410999992021010106004+23267+090700FM-12+000799999V0209999C000019999999N006000199+02461+01601101601ADDAA124000091MA1999999101541MD1999999+0101REMSYN05841941 32956 00000 10246 20160 30154 40160 333 58010 70000=
0110419410999992021010109004+23267+090700FM-12+000799999V0209999C000019999999N006000199+02581+01601101381ADDAA124000091MA1999999101331MD1999999+0121REMSYN05841941 32956 00000 10258 20160 30133 40138 333 58012 70000=
0129419410999992021010112004+23267+090700FM-12+000799999V0209999C000019999999N005000199+02101+01501101341ADDAA124000091KA1240M+02651MA1999999101291MD1999999+0051REMSYN06441941 32950 00000 10210 20150 30129 40134 333 10265 58005 70000=
0138419410999992021010115004+23267+090700FM-12+000799999V0209999C000019999999N004000199+01881+01701101451ADDAA124000091AY101021AY201021MA1999999101401MD1999999+0121MW1051REMSYN06441941 31940 00000 10188 20170 30140 40145 70500 333 58012 70000=
0138419410999992021010118004+23267+090700FM-12+000799999V0209999C000019999999N004000199+01751+01501101491ADDAA124000091AY101021AY201021MA1999999101431MD1999999+0051MW1051REMSYN06441941 31940 00000 10175 20150 30143 40149 70500 333 58005 70000=
0138419410999992021010121004+23267+090700FM-12+000799999V0209999C000019999999N004000199+01641+01501101491ADDAA124000091AY101021AY201021MA1999999101431MD1999999+0101MW1051REMSYN06441941 31940 00000 10164 20150 30143 40149 70500 333 58010 70000=
0138419410999992021010200004+23267+090700FM-12+000799999V0203601N001019999999N004000199+01601+01501101521ADDAA124000091AY101021AY201021MA1999999101461MD1999999+0161MW1051REMSYN06441941 31940 03602 10160 20150 30146 40152 70500 333 58016 70000=
0129419410999992021010203004+23267+090700FM-12+000799999V0203601N001019999999N005000199+01951+01501101731ADDAA124000091KA1240N+01501MA1999999101671MD1999999+0151REMSYN06441941 32950 03602 10195 20150 30167 40173 333 20150 58015 70000=
0110419410999992021010206004+23267+090700FM-12+000799999V0203201N001519999999N006000199+02421+01501101571ADDAA124000091MA1999999101511MD1999999-0031REMSYN05841941 32956 03203 10242 20150 30151 40157 333 59003 70000=
0110419410999992021010209004+23267+090700FM-12+000799999V0203201N001019999999N006000199+02601+01301101381ADDAA124000091MA1999999101331MD1999999+0001REMSYN05841941 32956 03202 10260 20130 30133 40138 333 58000 70000=
0129419410999992021010212004+23267+090700FM-12+000799999V0203201N001019999999N005000199+02101+01301101341ADDAA124000091KA1240M+02701MA1999999101291MD1999999+0001REMSYN06441941 32950 03202 10210 20130 30129 40134 333 10270 58000 70000=
0138419410999992021010215004+23267+090700FM-12+000799999V0203201N001019999999N004000199+01851+01601101431ADDAA124000091AY101021AY201021MA1999999101381MD1999999-0021MW1051REMSYN06441941 31940 03202 10185 20160 30138 40143 70500 333 59002 70000=
0138419410999992021010218004+23267+090700FM-12+000799999V0203601N001019999999N004000199+01801+01601101461ADDAA124000091AY101021AY201021MA1999999101411MD1999999-0021MW1051REMSYN06441941 31940 03602 10180 20160 30141 40146 70500 333 59002 70000=
0138419410999992021010221004+23267+090700FM-12+000799999V0209999C000019999999N004000199+01651+01601101391ADDAA124000091AY101021AY201021MA1999999101331MD1999999-0101MW1051REMSYN06441941 31940 00000 10165 20160 30133 40139 70500 333 59010 70000=
0138419410999992021010300004+23267+090700FM-12+000799999V0209999C000019999999N004000199+01581+01501101551ADDAA124000091AY101021AY201021MA1999999101491MD1999999+0031MW1051REMSYN06441941 31940 00000 10158 20150 30149 40155 70500 333 58003 70000=
0129419410999992021010303004+23267+090700FM-12+000799999V0203601N001519999999N005000199+02051+01501101631ADDAA124000091KA1240N+01501MA1999999101581MD1999999-0091REMSYN06441941 32950 03603 10205 20150 30158 40163 333 20150 59009 70000=
0110419410999992021010306004+23267+090700FM-12+000799999V0203601N001519999999N006000199+02481+01501101401ADDAA124000091MA1999999101351MD1999999-0161REMSYN05841941 32956 03603 10248 20150 30135 40140 333 59016 70000=
0110419410999992021010309004+23267+090700FM-12+000799999V0203101N001519999999N006000199+02651+01501101131ADDAA124000091MA1999999101081MD1999999-0251REMSYN05841941 32956 03103 10265 20150 30108 40113 333 59025 70000=
0129419410999992021010312004+23267+090700FM-12+000799999V0203601N001519999999N005000199+02151+01701101181ADDAA124000091KA1240M+02751MA1999999101121MD1999999-0121REMSYN06441941 32950 03603 10215 20170 30112 40118 333 10275 59012 70000=
0110419410999992021010315004+23267+090700FM-12+000799999V0202701N001019999999N005000199+01941+01401101261ADDAA124000091MA1999999101211MD1999999-0171REMSYN05841941 32950 02702 10194 20140 30121 40126 333 59017 70000=
0110419410999992021010318004+23267+090700FM-12+000799999V0203601N001019999999N005000199+01761+01601101251ADDAA124000091MA1999999101201MD1999999-0211REMSYN05841941 32950 03602 10176 20160 30120 40125 333 59021 70000=
0110419410999992021010321004+23267+090700FM-12+000799999V0209999C000019999999N004000199+01701+01601101221ADDAA124000091MA1999999101161MD1999999-0171REMSYN05841941 32940 00000 10170 20160 30116 40122 333 59017 70000=
0138419410999992021010400004+23267+090700FM-12+000799999V0203601N001019999999N005000199+01601+01601101591ADDAA124000091AY101021AY201021MA1999999101531MD1999999+0041MW1051REMSYN06441941 31950 03602 10160 20160 30153 40159 70500 333 58004 70000=
0129419410999992021010403004+23267+090700FM-12+000799999V0203601N001019999999N006000199+02181+01701101641ADDAA124000091KA1240N+01481MA1999999101581MD1999999+0001REMSYN06441941 32956 03602 10218 20170 30158 40164 333 20148 58000 70000=
0110419410999992021010406004+23267+090700FM-12+000799999V0203601N001519999999N006000199+02561+01801101511ADDAA124000091MA1999999101451MD1999999+0101REMSYN05841941 32956 03603 10256 20180 30145 40151 333 58010 70000=
0110419410999992021010409004+23267+090700FM-12+000799999V0203601N001019999999N006000199+02781+01601101281ADDAA124000091MA1999999101231MD1999999+0151REMSYN05841941 32956 03602 10278 20160 30123 40128 333 58015 70000=
0129419410999992021010412004+23267+090700FM-12+000799999V0203601N001019999999N005000199+02201+01801101301ADDAA124000091KA1240M+02811MA1999999101241MD1999999+0121REMSYN06441941 32950 03602 10220 20180 30124 40130 333 10281 58012 70000=
0110419410999992021010415004+23267+090700FM-12+000799999V0203601N001019999999N005000199+01951+01801101341ADDAA124000091MA1999999101291MD1999999+0081REMSYN05841941 32950 03602 10195 20180 30129 40134 333 58008 70000=
0110419410999992021010418004+23267+090700FM-12+000799999V0203601N001019999999N005000199+01851+01601101481ADDAA124000091MA1999999101431MD1999999+0231REMSYN05841941 32950 03602 10185 20160 30143 40148 333 58023 70000=
0110419410999992021010421004+23267+090700FM-12+000799999V0209999C000019999999N004000199+01701+01601101421ADDAA124000091MA1999999101361MD1999999+0201REMSYN05841941 32940 00000 10170 20160 30136 40142 333 58020 70000=
0138419410999992021010500004+23267+090700FM-12+000799999V0203601N001019999999N005000199+01561+01561101661ADDAA124000091AY101021AY201021MA1999999101601MD1999999+0081MW1051REMSYN06441941 31950 03602 10156 20156 30160 40166 70500 333 58008 70000=
0129419410999992021010503004+23267+090700FM-12+000799999V0203601N001019999999N006000199+02141+01601101691ADDAA124000091KA1240N+01451MA1999999101631MD1999999+0051REMSYN06441941 32956 03602 10214 20160 30163 40169 333 20145 58005 70000=
0110419410999992021010506004+23267+090700FM-12+000799999V0203601N001519999999N006000199+02701+01801101491ADDAA124000091MA1999999101441MD1999999-0011REMSYN05841941 32956 03603 10270 20180 30144 40149 333 59001 70000=
0110419410999992021010509004+23267+090700FM-12+000799999V0203601N002119999999N006000199+02821+01601101121ADDAA124000091MA1999999101071MD1999999-0161REMSYN05841941 32956 03604 10282 20160 30107 40112 333 59016 70000=
0129419410999992021010512004+23267+090700FM-12+000799999V0203601N001019999999N005000199+02251+01801101111ADDAA124000091KA1240M+02851MA1999999101061MD1999999-0181REMSYN06441941 32950 03602 10225 20180 30106 40111 333 10285 59018 70000=
0110419410999992021010515004+23267+090700FM-12+000799999V0209999C000019999999N004000199+01921+01801101341ADDAA124000091MA1999999101291MD1999999+0001REMSYN05841941 32940 00000 10192 20180 30129 40134 333 58000 70000=
0110419410999992021010518004+23267+090700FM-12+000799999V0209999C000019999999N004000199+01821+01701101421ADDAA124000091MA1999999101361MD1999999-0071REMSYN05841941 32940 00000 10182 20170 30136 40142 333 59007 70000=
0110419410999992021010521004+23267+090700FM-12+000799999V0209999C000019999999N004000199+01701+01601101401ADDAA124000091MA1999999101341MD1999999-0021REMSYN05841941 32940 00000 10170 20160 30134 40140 333 59002 70000=
0138419410999992021010600004+23267+090700FM-12+000799999V0209999C000019999999N004000199+01621+01601101361ADDAA124000091AY101021AY201021MA1999999101301MD1999999-0301MW1051REMSYN06441941 31940 00000 10162 20160 30130 40136 70500 333 59030 70000=
0129419410999992021010603004+23267+090700FM-12+000799999V0209999C000019999999N006000199+02101+01801101371ADDAA124000091KA1240N+01551MA1999999101321MD1999999-0361REMSYN06441941 32956 00000 10210 20180 30132 40137 333 20155 59036 70000=
0110419410999992021010606004+23267+090700FM-12+000799999V0203601N001019999999N006000199+02661+01501101311ADDAA124000091MA1999999101261MD1999999-0181REMSYN05841941 32956 03602 10266 20150 30126 40131 333 59018 70000=
0110419410999992021010609004+23267+090700FM-12+000799999V0203601N001519999999N006000199+02851+01301101101ADDAA124000091MA1999999101051MD1999999-0021REMSYN05841941 32956 03603 10285 20130 30105 40110 333 59002 70000=
0115419410999992021010612004+23267+090700FM-12+000799999V0209999C000019999999N005000199+02321+01701100971ADDAA124000091KA1240M+02921MA1999999100911REMSYN06441941 32950 00000 10232 20170 30091 40097 333 10292 59105 70000=
0110419410999992021010615004+23267+090700FM-12+000799999V0209999C000019999999N004000199+02021+01501101021ADDAA124000091MA1999999100971MD1999999-0321REMSYN05841941 32940 00000 10202 20150 30097 40102 333 59032 70000=
0110419410999992021010618004+23267+090700FM-12+000799999V0209999C000019999999N004000199+01901+01601101121ADDAA124000091MA1999999101071MD1999999-0291REMSYN05841941 32940 00000 10190 20160 30107 40112 333 59029 70000=
0110419410999992021010621004+23267+090700FM-12+000799999V0209999C000019999999N004000199+01801+01601101091ADDAA124000091MA1999999101041MD1999999-0301REMSYN05841941 32940 00000 10180 20160 30104 40109 333 59030 70000=
0110419410999992021010700004+23267+090700FM-12+000799999V0209999C000019999999N005000199+01721+01701101061ADDAA124000091MA1999999101001MD1999999-0301REMSYN05841941 32950 00000 10172 20170 30100 40106 333 59030 70000=
0129419410999992021010703004+23267+090700FM-12+000799999V0209999C000019999999N006000199+02251+01601101271ADDAA124000091KA1240N+01621MA1999999101221MD1999999-0101REMSYN06441941 32956 00000 10225 20160 30122 40127 333 20162 59010 70000=
0110419410999992021010706004+23267+090700FM-12+000799999V0209999C000019999999N006000199+02851+01601101271ADDAA124000091MA1999999101221MD1999999-0041REMSYN05841941 32956 00000 10285 20160 30122 40127 333 59004 70000=
0110419410999992021010709004+23267+090700FM-12+000799999V0203601N001019999999N006000199+02951+01701100981ADDAA124000091MA1999999100921MD1999999-0131REMSYN05841941 32956 03602 10295 20170 30092 40098 333 59013 70000=
0129419410999992021010712004+23267+090700FM-12+000799999V0209999C000019999999N005000199+02431+01801101051ADDAA124000091KA1240M+03061MA1999999100991MD1999999+0081REMSYN06441941 32950 00000 10243 20180 30099 40105 333 10306 58008 70000=
0110419410999992021010715004+23267+090700FM-12+000799999V0209999C000019999999N004000199+02061+01901101141ADDAA124000091MA1999999101081MD1999999+0111REMSYN05841941 32940 00000 10206 20190 30108 40114 333 58011 70000=
0138419410999992021010718004+23267+090700FM-12+000799999V0209999C000019999999N003000199+01901+01701101141ADDAA124000091AY101021AY201021MA1999999101081MD1999999+0011MW1051REMSYN06441941 31930 00000 10190 20170 30108 40114 70500 333 58001 70000=
0138419410999992021010721004+23267+090700FM-12+000799999V0209999C000019999999N003000199+01801+01701101131ADDAA124000091AY101021AY201021MA1999999101081MD1999999+0041MW1051REMSYN06441941 31930 00000 10180 20170 30108 40113 70500 333 58004 70000=
0138419410999992021010800004+23267+090700FM-12+000799999V0209999C000019999999N003000199+01681+01601101171ADDAA124000091AY101021AY201021MA1999999101111MD1999999+0111MW1051REMSYN06441941 31930 00000 10168 20160 30111 40117 70500 333 58011 70000=
0129419410999992021010803004+23267+090700FM-12+000799999V0209999C000019999999N005000199+02301+01701101361ADDAA124000091KA1240N+01601MA1999999101301MD1999999+0081REMSYN06441941 32950 00000 10230 20170 30130 40136 333 20160 58008 70000=
0110419410999992021010806004+23267+090700FM-12+000799999V0203601N001019999999N006000199+02761+01801101311ADDAA124000091MA1999999101251MD1999999+0031REMSYN05841941 32956 03602 10276 20180 30125 40131 333 58003 70000=
0110419410999992021010809004+23267+090700FM-12+000799999V0203601N001019999999N006000199+02901+01501101051ADDAA124000091MA1999999100991MD1999999+0071REMSYN05841941 32956 03602 10290 20150 30099 40105 333 58007 70000=
0129419410999992021010812004+23267+090700FM-12+000799999V0209999C000019999999N005000199+02451+01701101011ADDAA124000091KA1240M+03001MA1999999100951MD1999999-0041REMSYN06441941 32950 00000 10245 20170 30095 40101 333 10300 59004 70000=
0110419410999992021010815004+23267+090700FM-12+000799999V0209999C000019999999N004000199+02101+01601101201ADDAA124000091MA1999999101141MD1999999+0061REMSYN05841941 32940 00000 10210 20160 30114 40120 333 58006 70000=
0138419410999992021010818004+23267+090700FM-12+000799999V0209999C000019999999N004000199+02001+01701101251ADDAA124000091AY101021AY201021MA1999999101191MD1999999+0111MW1051REMSYN06441941 31940 00000 10200 20170 30119 40125 70500 333 58011 70000=
0138419410999992021010821004+23267+090700FM-12+000799999V0209999C000019999999N003000199+01801+01701101191ADDAA124000091AY101021AY201021MA1999999101141MD1999999+0061MW1051REMSYN06441941 31930 00000 10180 20170 30114 40119 70500 333 58006 70000=
0138419410999992021010900004+23267+090700FM-12+000799999V0209999C000019999999N004000199+01751+01701101231ADDAA124000091AY101021AY201021MA1999999101171MD1999999+0061MW1051REMSYN06441941 31940 00000 10175 20170 30117 40123 70500 333 58006 70000=
0129419410999992021010903004+23267+090700FM-12+000799999V0209999C000019999999N006000199+02221+01801101431ADDAA124000091KA1240N+01721MA1999999101371MD1999999+0071REMSYN06441941 32956 00000 10222 20180 30137 40143 333 20172 58007 70000=
0110419410999992021010906004+23267+090700FM-12+000799999V0203601N001519999999N006000199+02651+01901101111ADDAA124000091MA1999999101051MD1999999-0201REMSYN05841941 32956 03603 10265 20190 30105 40111 333 59020 70000=
0110419410999992021010909004+23267+090700FM-12+000799999V0203601N001519999999N006000199+02841+01601100951ADDAA124000091MA1999999100891MD1999999-0101REMSYN05841941 32956 03603 10284 20160 30089 40095 333 59010 70000=
0129419410999992021010912004+23267+090700FM-12+000799999V0203601N001519999999N005000199+02341+01701100991ADDAA124000091KA1240M+02851MA1999999100931MD1999999-0021REMSYN06441941 32950 03603 10234 20170 30093 40099 333 10285 59002 70000=
0110419410999992021010915004+23267+090700FM-12+000799999V0203601N001019999999N005000199+02061+01901101241ADDAA124000091MA1999999101181MD1999999+0041REMSYN05841941 32950 03602 10206 20190 30118 40124 333 58004 70000=
0110419410999992021010918004+23267+090700FM-12+000799999V0209999C000019999999N005000199+01901+01801101321ADDAA124000091MA1999999101261MD1999999+0071REMSYN05841941 32950 00000 10190 20180 30126 40132 333 58007 70000=
0110419410999992021010921004+23267+090700FM-12+000799999V0209999C000019999999N004000199+01801+01701101251ADDAA124000091MA1999999101201MD1999999+0061REMSYN05841941 32940 00000 10180 20170 30120 40125 333 58006 70000=
0138419410999992021011000004+23267+090700FM-12+000799999V0203601N001019999999N005000199+01801+01701101321ADDAA124000091AY101021AY201021MA1999999101261MD1999999+0091MW1051REMSYN06441941 31950 03602 10180 20170 30126 40132 70500 333 58009 70000=
0129419410999992021011003004+23267+090700FM-12+000799999V0203601N001019999999N006000199+02151+01901101361ADDAA124000091KA1240N+01661MA1999999101301MD1999999-0071REMSYN06441941 32956 03602 10215 20190 30130 40136 333 20166 59007 70000=
0110419410999992021011006004+23267+090700FM-12+000799999V0203601N001019999999N006000199+02661+01801101301ADDAA124000091MA1999999101241MD1999999+0131REMSYN05841941 32956 03602 10266 20180 30124 40130 333 58013 70000=
0110419410999992021011009004+23267+090700FM-12+000799999V0203601N001019999999N006000199+02831+01701101151ADDAA124000091MA1999999101091MD1999999+0201REMSYN05841941 32956 03602 10283 20170 30109 40115 333 58020 70000=
0129419410999992021011012004+23267+090700FM-12+000799999V0203601N001019999999N005000199+02351+01901100931ADDAA124000091KA1240M+02871MA1999999100871MD1999999-0061REMSYN06441941 32950 03602 10235 20190 30087 40093 333 10287 59006 70000=
0110419410999992021011015004+23267+090700FM-12+000799999V0209999C000019999999N005000199+02151+01901101101ADDAA124000091MA1999999101041MD1999999-0141REMSYN05841941 32950 00000 10215 20190 30104 40110 333 59014 70000=
0110419410999992021011018004+23267+090700FM-12+000799999V0209999C000019999999N005000199+02001+01901101211ADDAA124000091MA1999999101151MD1999999-0111REMSYN05841941 32950 00000 10200 20190 30115 40121 333 59011 70000=
0110419410999992021011021004+23267+090700FM-12+000799999V0209999C000019999999N004000199+01801+01701101151ADDAA124000091MA1999999101101MD1999999-0101REMSYN05841941 32940 00000 10180 20170 30110 40115 333 59010 70000=
0138419410999992021011100004+23267+090700FM-12+000799999V0209999C000019999999N005000199+02001+01801101221ADDAA124000091AY101021AY201021MA1999999101161MD1999999-0101MW1051REMSYN06441941 31950 00000 10200 20180 30116 40122 70500 333 59010 70000=
0206419410999992021011103004+23267+090700FM-12+000799999V0209999C000019999999N005000199+02251+02001101551ADDAY121021AY201021GA1051+004501061GA2999+999999051GE19MSL   +99999+99999GF106991051999004501999999KA1240N+01801MA1999999101491MW1051REMSYN06441941 31450 60000 10225 20200 30149 40155 70520 85420 333 20180=
0200419410999992021011106004+23267+090700FM-12+000799999V0203601N001010240019N006000199+02721+01901101411ADDAA124000091GA1041+004801061GA2061+024001041GE19MSL   +99999+99999GF106991041999004801999999MA1999999101351REMSYN08241941 32456 63602 10272 20190 30135 40141 85420 333 56990 58011 70000 84616 86458=
0200419410999992021011109004+23267+090700FM-12+000799999V0203601N001010240019N006000199+02821+01801101071ADDAA124000091GA1041+004801061GA2061+024001041GE19MSL   +99999+99999GF106991041999004801999999MA1999999101011REMSYN08241941 32456 63602 10282 20180 30101 40107 85420 333 56990 59008 70000 84616 86458=
0219419410999992021011112004+23267+090700FM-12+000799999V0203601N001010240019N005000199+02321+01901101101ADDAA124000091GA1041+004801061GA2061+024001041GE19MSL   +99999+99999GF106991041999004801999999KA1240M+02901MA1999999101041REMSYN08841941 32450 63602 10232 20190 30104 40110 85420 333 10290 56990 58017 70000 84616 86458=
0188419410999992021011115004+23267+090700FM-12+000799999V0209999C000012200019N005000199+02121+01701101231ADDAA124000091GA1031+004501061GA2999+999999051GE19MSL   +99999+99999GF104991031999004501999999MA1999999101171REMSYN07041941 32450 40000 10212 20170 30117 40123 83420 333 56990 58013 70000=
0110419410999992021011118004+23267+090700FM-12+000799999V0209999C000019999999N004000199+02051+01701101251ADDAA124000091MA1999999101191MD1999999+0041REMSYN05841941 32940 00000 10205 20170 30119 40125 333 58004 70000=
0110419410999992021011121004+23267+090700FM-12+000799999V0209999C000019999999N004000199+01921+01801101241ADDAA124000091MA1999999101181MD1999999+0081REMSYN05841941 32940 00000 10192 20180 30118 40124 333 58008 70000=
0110419410999992021011200004+23267+090700FM-12+000799999V0209999C000019999999N005000199+01851+01701101271ADDAA124000091MA1999999101211MD1999999+0051REMSYN05841941 32950 00000 10185 20170 30121 40127 333 58005 70000=
0109419410999992021011203004+23267+090700FM-12+000799999V0203601N001019999999N006000199+02021+01801101501ADDAA124000091KA1240N+01721MA1999999101441REMSYN05841941 32956 03602 10202 20180 30144 40150 333 20172 70000=
0110419410999992021011206004+23267+090700FM-12+000799999V0203601N001019999999N006000199+02481+02001101521ADDAA124000091MA1999999101461MD1999999+0111REMSYN05841941 32956 03602 10248 20200 30146 40152 333 58011 70000=
0110419410999992021011209004+23267+090700FM-12+000799999V0203601N002119999999N006000199+02561+01901101031ADDAA124000091MA1999999100971MD1999999-0041REMSYN05841941 32956 03604 10256 20190 30097 40103 333 59004 70000=
0115419410999992021011212004+23267+090700FM-12+000799999V0203601N001519999999N005000199+02261+01701101021ADDAA124000091KA1240M+02701MA1999999100961REMSYN06441941 32950 03603 10226 20170 30096 40102 333 10270 53008 70000=
0110419410999992021011215004+23267+090700FM-12+000799999V0203601N001519999999N004000199+02041+01701101311ADDAA124000091MA1999999101251MD1999999+0081REMSYN05841941 32940 03603 10204 20170 30125 40131 333 58008 70000=
0110419410999992021011218004+23267+090700FM-12+000799999V0203601N001519999999N004000199+01921+01701101381ADDAA124000091MA1999999101321MD1999999+0131REMSYN05841941 32940 03603 10192 20170 30132 40138 333 58013 70000=
0110419410999992021011221004+23267+090700FM-12+000799999V0203601N001019999999N004000199+01641+01401101351ADDAA124000091MA1999999101301MD1999999+0121REMSYN05841941 32940 03602 10164 20140 30130 40135 333 58012 70000=
0110419410999992021011300004+23267+090700FM-12+000799999V0203601N001019999999N004000199+01551+01401101321ADDAA124000091MA1999999101271MD1999999+0061REMSYN05841941 32940 03602 10155 20140 30127 40132 333 58006 70000=
0129419410999992021011303004+23267+090700FM-12+000799999V0203601N001019999999N006000199+02221+01501101551ADDAA124000091KA1240N+01481MA1999999101501MD1999999+0061REMSYN06441941 32956 03602 10222 20150 30150 40155 333 20148 58006 70000=
0110419410999992021011306004+23267+090700FM-12+000799999V0203601N001019999999N006000199+02301+01001101531ADDAA124000091MA1999999101471MD1999999+0011REMSYN05841941 32956 03602 10230 20100 30147 40153 333 58001 70000=
0200419410999992021011309004+23267+090700FM-12+000799999V0203601N001510360019N006000199+02341+01001101291ADDAA124000091GA1041+004801061GA2061+036001031GE19MSL   +99999+99999GF106991041999004801999999MA1999999101231REMSYN08241941 32456 63603 10234 20100 30123 40129 85430 333 56990 58026 70000 84616 86362=
0219419410999992021011312004+23267+090700FM-12+000799999V0209999C000010240019N005000199+02051+01501101241ADDAA124000091GA1041+004801061GA2061+024001041GE19MSL   +99999+99999GF106991041999004801999999KA1240M+02441MA1999999101181REMSYN08841941 32450 60000 10205 20150 30118 40124 85420 333 10244 56990 58022 70000 84616 86458=
0219419410999992021011315004+23267+090700FM-12+000799999V0209999C00001999999CN004000199+01821+01301101391ADDAA124000091GA1031+004801061GA2041+024001041GE19MSL   +99999+99999GF104991031999004801999999MA1999999101341REMSYN08241941 32440 40000 10182 20130 30134 40139 84420 333 56990 58009 70000 83616 84458=EQDQ01 024003SCOCIG
0138419410999992021011318004+23267+090700FM-12+000799999V0209999C000019999999N003000199+01801+01301101481ADDAA124000091AY101021AY201021MA1999999101431MD1999999+0111MW1051REMSYN06441941 31930 00000 10180 20130 30143 40148 70500 333 58011 70000=
0138419410999992021011321004+23267+090700FM-12+000799999V0209999C000019999999N003000199+01651+01501101471ADDAA124000091AY101021AY201021MA1999999101411MD1999999+0111MW1051REMSYN06441941 31930 00000 10165 20150 30141 40147 70500 333 58011 70000=
0138419410999992021011400004+23267+090700FM-12+000799999V0209999C000019999999N005000199+01601+01401101501ADDAA124000091AY101021AY201021MA1999999101441MD1999999+0171MW1051REMSYN06441941 31950 00000 10160 20140 30144 40150 70500 333 58017 70000=
0129419410999992021011403004+23267+090700FM-12+000799999V0203601N001519999999N006000199+01781+01401101691ADDAA124000091KA1240N+01521MA1999999101631MD1999999+0131REMSYN06441941 32956 03603 10178 20140 30163 40169 333 20152 58013 70000=
0110419410999992021011406004+23267+090700FM-12+000799999V0203601N001519999999N006000199+02261+01501101591ADDAA124000091MA1999999101541MD1999999+0071REMSYN05841941 32956 03603 10226 20150 30154 40159 333 58007 70000=
0110419410999992021011409004+23267+090700FM-12+000799999V0203601N001519999999N006000199+02351+01501101311ADDAA124000091MA1999999101261MD1999999+0031REMSYN05841941 32956 03603 10235 20150 30126 40131 333 58003 70000=
0129419410999992021011412004+23267+090700FM-12+000799999V0209999C000019999999N005000199+02051+01501101221ADDAA124000091KA1240M+02451MA1999999101171MD1999999-0011REMSYN06441941 32950 00000 10205 20150 30117 40122 333 10245 59001 70000=
0096419410999992021011415004+23267+090700FM-12+000799999V0209999C000019999999N004000199+01851+01401101331ADDAA124000091MA1999999101281REMSYN05841941 32940 00000 10185 20140 30128 40133 333 53006 70000=
0110419410999992021011418004+23267+090700FM-12+000799999V0209999C000019999999N004000199+01751+01501101371ADDAA124000091MA1999999101311MD1999999-0121REMSYN05841941 32940 00000 10175 20150 30131 40137 333 59012 70000=
0138419410999992021011421004+23267+090700FM-12+000799999V0209999C000019999999N004000199+01701+01501101391ADDAA124000091AY101021AY201021MA1999999101331MD1999999-0081MW1051REMSYN06441941 31940 00000 10170 20150 30133 40139 70500 333 59008 70000=
0138419410999992021011500004+23267+090700FM-12+000799999V0209999C000019999999N005000199+01521+01301101301ADDAA124000091AY101021AY201021MA1999999101241MD1999999-0201MW1051REMSYN06441941 31950 00000 10152 20130 30124 40130 70500 333 59020 70000=
0129419410999992021011503004+23267+090700FM-12+000799999V0203601N001019999999N006000199+01821+01101101441ADDAA124000091KA1240N+01461MA1999999101381MD1999999-0251REMSYN06441941 32956 03602 10182 20110 30138 40144 333 20146 59025 70000=
0110419410999992021011506004+23267+090700FM-12+000799999V0202701N001519999999N006000199+02351+01101101291ADDAA124000091MA1999999101231MD1999999-0311REMSYN05841941 32956 02703 10235 20110 30123 40129 333 59031 70000=
0110419410999992021011509004+23267+090700FM-12+000799999V0203601N001519999999N006000199+02411+01001101101ADDAA124000091MA1999999101051MD1999999-0211REMSYN05841941 32956 03603 10241 20100 30105 40110 333 59021 70000=
0129419410999992021011512004+23267+090700FM-12+000799999V0203601N001019999999N005000199+02001+01401101061ADDAA124000091KA1240M+02501MA1999999101011MD1999999-0161REMSYN06441941 32950 03602 10200 20140 30101 40106 333 10250 59016 70000=
0110419410999992021011515004+23267+090700FM-12+000799999V0203601N001019999999N005000199+01701+01201101141ADDAA124000091MA1999999101081MD1999999-0201REMSYN05841941 32950 03602 10170 20120 30108 40114 333 59020 70000=
0110419410999992021011518004+23267+090700FM-12+000799999V0209999C000019999999N005000199+01601+01301101221ADDAA124000091MA1999999101161MD1999999-0151REMSYN05841941 32950 00000 10160 20130 30116 40122 333 59015 70000=
0110419410999992021011521004+23267+090700FM-12+000799999V0209999C000019999999N004000199+01451+01401101131ADDAA124000091MA1999999101071MD1999999-0261REMSYN05841941 32940 00000 10145 20140 30107 40113 333 59026 70000=
0138419410999992021011600004+23267+090700FM-12+000799999V0203601N001019999999N005000199+01401+01301101181ADDAA124000091AY101021AY201021MA1999999101121MD1999999-0121MW1051REMSYN06441941 31950 03602 10140 20130 30112 40118 70500 333 59012 70000=
0129419410999992021011603004+23267+090700FM-12+000799999V0203601N001019999999N005000199+01741+01201101331ADDAA124000091KA1240N+01281MA1999999101271MD1999999-0111REMSYN06441941 31950 03602 10174 20120 30127 40133 333 20128 59011 70000=
0110419410999992021011606004+23267+090700FM-12+000799999V0203601N001019999999N006000199+02301+01101101181ADDAA124000091MA1999999101121MD1999999-0111REMSYN05841941 32956 03602 10230 20110 30112 40118 333 59011 70000=
0110419410999992021011609004+23267+090700FM-12+000799999V0203601N001019999999N006000199+02461+01001100981ADDAA124000091MA1999999100931MD1999999-0121REMSYN05841941 32956 03602 10246 20100 30093 40098 333 59012 70000=
0129419410999992021011612004+23267+090700FM-12+000799999V0209999C000019999999N005000199+02001+01301100961ADDAA124000091KA1240M+02521MA1999999100901MD1999999-0111REMSYN06441941 32950 00000 10200 20130 30090 40096 333 10252 59011 70000=
0110419410999992021011615004+23267+090700FM-12+000799999V0209999C000019999999N005000199+01741+01201101191ADDAA124000091MA1999999101131MD1999999+0051REMSYN05841941 32950 00000 10174 20120 30113 40119 333 58005 70000=
0110419410999992021011618004+23267+090700FM-12+000799999V0203601N001019999999N005000199+01641+01301101291ADDAA124000091MA1999999101231MD1999999+0071REMSYN05841941 32950 03602 10164 20130 30123 40129 333 58007 70000=
0110419410999992021011621004+23267+090700FM-12+000799999V0209999C000019999999N004000199+01601+01401101231ADDAA124000091MA1999999101171MD1999999+0101REMSYN05841941 32940 00000 10160 20140 30117 40123 333 58010 70000=
0138419410999992021011700004+23267+090700FM-12+000799999V0203601N001019999999N005000199+01361+01301101291ADDAA124000091AY101021AY201021MA1999999101231MD1999999+0111MW1051REMSYN06441941 31950 03602 10136 20130 30123 40129 70500 333 58011 70000=
0247419410999992021011703004+23267+090700FM-12+000799999V0203601N001010180019N002000199+01661+01501101641ADDAA124000091AY121021AY201021GA1041+004501061GA2061+018001041GE19MSL   +99999+99999GF106991041999004501999999KA1240N+01351MA1999999101581MW1101REMSYN09441941 31420 63602 10166 20150 30158 40164 71020 85420 333 20135 56990 58031 70000 84615 86456=
0189419410999992021011706004+23267+090700FM-12+000799999V0203601N001019999999N004000199+02101+01501101631ADDGA1999+004501999GE19MSL   +99999+99999GF106991999999004501999999MA1999999101571MD1619999+9999REMSYN08441941 31440 63602 10210 20150 30157 40163 56990 58045 70000 70522 84615 85420 86456=
0228419410999992021011709004+23267+090700FM-12+000799999V0203601N001010180019N004000199+02381+01501101331ADDAA124000091AY121021AY221021GA1041+004501061GA2061+018001041GE19MSL   +99999+99999GF106991041999004501999999MA1999999101271MW1051REMSYN08841941 31440 63602 10238 20150 30127 40133 70522 85420 333 56990 58034 70000 84615 86456=
0247419410999992021011712004+23267+090700FM-12+000799999V0203601N001010240019N004000199+02021+01501101341ADDAA124000091AY121021AY221021GA1041+004501061GA2061+024001041GE19MSL   +99999+99999GF106991041999004501999999KA1240M+02401MA1999999101281MW1051REMSYN09441941 31440 63602 10202 20150 30128 40134 70522 85420 333 10240 56990 58038 70000 84615 86458=
0138419410999992021011715004+23267+090700FM-12+000799999V0203601N001019999999N004000199+01821+01701101451ADDAA124000091AY121021AY201021MA1999999101391MD1999999+0261MW1051REMSYN06441941 31940 03602 10182 20170 30139 40145 70520 333 58026 70000=
0138419410999992021011718004+23267+090700FM-12+000799999V0203601N001019999999N004000199+01721+01601101471ADDAA124000091AY101021AY201021MA1999999101411MD1999999+0181MW1051REMSYN06441941 31940 03602 10172 20160 30141 40147 70500 333 58018 70000=
0138419410999992021011800004+23267+090700FM-12+000799999V0203601N001019999999N004000199+01451+01301101371ADDAA124000091AY101021AY201021MA1999999101311MD1999999+0081MW1051REMSYN06441941 31940 03602 10145 20130 30131 40137 70500 333 58008 70000=
0138419410999992021011803004+23267+090700FM-12+000799999V0203601N001019999999N002000199+01461+01301101391ADDAA124000091AY101021AY201021MA1999999101331MD1999999-0251MW1101REMSYN06441941 31920 03602 10146 20130 30133 40139 71000 333 59025 70000=
0138419410999992021011806004+23267+090700FM-12+000799999V0203601N001019999999N005000199+01921+01601101411ADDAA124000091AY101021AY201021MA1999999101351MD1999999-0221MW1051REMSYN06441941 31950 03602 10192 20160 30135 40141 70500 333 59022 70000=
0138419410999992021011809004+23267+090700FM-12+000799999V0203601N001519999999N005000199+02321+01701101151ADDAA124000091AY101021AY201021MA1999999101091MD1999999-0181MW1051REMSYN06441941 31950 03603 10232 20170 30109 40115 70500 333 59018 70000=
0157419410999992021011812004+23267+090700FM-12+000799999V0203601N001019999999N005000199+01961+01701101171ADDAA124000091AY101021AY201021KA1240M+02421MA1999999101111MD1999999-0171MW1051REMSYN07041941 31950 03602 10196 20170 30111 40117 70500 333 10242 59017 70000=
0110419410999992021022206004+23267+090700FM-12+000799999V0203601N001519999999N007000199+02851+01401101441ADDAA124000091MA1999999101381MD1999999-0021REMSYN05841941 32957 03603 10285 20140 30138 40144 333 59002 70000=
0110419410999992021022209004+23267+090700FM-12+000799999V0203601N002119999999N007000199+03001+01301101131ADDAA124000091MA1999999101071MD1999999-0211REMSYN05841941 32957 03604 10300 20130 30107 40113 333 59021 70000=
0129419410999992021022212004+23267+090700FM-12+000799999V0203601N001519999999N006000199+02651+01301101071ADDAA124000091KA1240M+03061MA1999999101011MD1999999-0211REMSYN06441941 32956 03603 10265 20130 30101 40107 333 10306 59021 70000=
0110419410999992021022215004+23267+090700FM-12+000799999V0203601N001019999999N005000199+02141+01701101211ADDAA124000091MA1999999101151MD1999999-0291REMSYN05841941 32950 03602 10214 20170 30115 40121 333 59029 70000=
0110419410999992021022218004+23267+090700FM-12+000799999V0203601N001019999999N004000199+02061+01701101321ADDAA124000091MA1999999101261MD1999999-0191REMSYN05841941 32940 03602 10206 20170 30126 40132 333 59019 70000=
0110419410999992021022221004+23267+090700FM-12+000799999V0203601N001019999999N004000199+01821+01501101161ADDAA124000091MA1999999101101MD1999999-0331REMSYN05841941 32940 03602 10182 20150 30110 40116 333 59033 70000=
0110419410999992021022300004+23267+090700FM-12+000799999V0203601N001019999999N004000199+01701+01601101051ADDAA124000091MA1999999100991MD1999999-0551REMSYN05841941 32940 03602 10170 20160 30099 40105 333 59055 70000=
0129419410999992021022303004+23267+090700FM-12+000799999V0203601N001019999999N006000199+02201+01701101401ADDAA124000091KA1240N+01621MA1999999101341MD1999999-0271REMSYN06441941 32956 03602 10220 20170 30134 40140 333 20162 59027 70000=
0110419410999992021022306004+23267+090700FM-12+000799999V0203601N001519999999N007000199+02801+01701101341ADDAA124000091MA1999999101281MD1999999-0101REMSYN05841941 32957 03603 10280 20170 30128 40134 333 59010 70000=
0110419410999992021022309004+23267+090700FM-12+000799999V0203601N002119999999N007000199+03001+01501100971ADDAA124000091MA1999999100921MD1999999-0151REMSYN05841941 32957 03604 10300 20150 30092 40097 333 59015 70000=
0129419410999992021022312004+23267+090700FM-12+000799999V0203601N001019999999N006000199+02621+01601100961ADDAA124000091KA1240M+03061MA1999999100911MD1999999-0101REMSYN06441941 32956 03602 10262 20160 30091 40096 333 10306 59010 70000=
0110419410999992021022315004+23267+090700FM-12+000799999V0209999C000019999999N005000199+02221+01601101021ADDAA124000091MA1999999100961MD1999999-0191REMSYN05841941 32950 00000 10222 20160 30096 40102 333 59019 70000=
0110419410999992021022318004+23267+090700FM-12+000799999V0209999C000019999999N004000199+02051+01501101201ADDAA124000091MA1999999101141MD1999999-0121REMSYN05841941 32940 00000 10205 20150 30114 40120 333 59012 70000=
0110419410999992021022321004+23267+090700FM-12+000799999V0209999C000019999999N004000199+01821+01601101121ADDAA124000091MA1999999101061MD1999999-0041REMSYN05841941 32940 00000 10182 20160 30106 40112 333 59004 70000=
0110419410999992021022400004+23267+090700FM-12+000799999V0209999C000019999999N005000199+01681+01681100951ADDAA124000091MA1999999100891MD1999999-0101REMSYN05841941 32950 00000 10168 20168 30089 40095 333 59010 70000=
0129419410999992021022403004+23267+090700FM-12+000799999V0209999C000019999999N006000199+02241+01801101121ADDAA124000091KA1240N+01621MA1999999101061MD1999999-0281REMSYN06441941 32956 00000 10224 20180 30106 40112 333 20162 59028 70000=
0110419410999992021022406004+23267+090700FM-12+000799999V0203601N001019999999N006000199+02901+01701101081ADDAA124000091MA1999999101021MD1999999-0261REMSYN05841941 32956 03602 10290 20170 30102 40108 333 59026 70000=
0129419410999992021022412004+23267+090700FM-12+000799999V0209999C000019999999N005000199+02751+02001100761ADDAA124000091KA1240M+03161MA1999999100711MD1999999-0201REMSYN06441941 31950 00000 10275 20200 30071 40076 333 10316 59020 70000=
0110419410999992021022415004+23267+090700FM-12+000799999V0209999C000019999999N004000199+02401+02001100961ADDAA124000091MA1999999100911MD1999999-0051REMSYN05841941 32940 00000 10240 20200 30091 40096 333 59005 70000=
0110419410999992021022418004+23267+090700FM-12+000799999V0209999C000019999999N004000199+02251+02101100991ADDAA124000091MA1999999100931MD1999999-0211REMSYN05841941 32940 00000 10225 20210 30093 40099 333 59021 70000=
0110419410999992021022421004+23267+090700FM-12+000799999V0209999C000019999999N004000199+02201+02001100851ADDAA124000091MA1999999100791MD1999999-0271REMSYN05841941 32940 00000 10220 20200 30079 40085 333 59027 70000=
0110419410999992021022500004+23267+090700FM-12+000799999V0203601N001019999999N005000199+02001+01901100871ADDAA124000091MA1999999100811MD1999999-0081REMSYN05841941 32950 03602 10200 20190 30081 40087 333 59008 70000=
0219419410999992021022503004+23267+090700FM-12+000799999V0203601N001510240019N005000199+02221+02101101191ADDAA124000091GA1041+004801061GA2061+024001041GE19MSL   +99999+99999GF106991041999004801999999KA1240N+01981MA1999999101131REMSYN08841941 32450 63603 10222 20210 30113 40119 85420 333 20198 56990 58007 70000 84616 86458=
0200419410999992021022506004+23267+090700FM-12+000799999V0203601N001510240019N006000199+02931+01801101111ADDAA124000091GA1041+004801061GA2061+024001041GE19MSL   +99999+99999GF106991041999004801999999MA1999999101061REMSYN08241941 32456 63603 10293 20180 30106 40111 85420 333 56990 58004 70000 84616 86458=
0110419410999992021022509004+23267+090700FM-12+000799999V0203201N001019999999N007000199+03161+01601100791ADDAA124000091MA1999999100741MD1999999-0051REMSYN05841941 32957 03202 10316 20160 30074 40079 333 59005 70000=
0129419410999992021022512004+23267+090700FM-12+000799999V0209999C000019999999N005000199+02741+01901100681ADDAA124000091KA1240M+03221MA1999999100631MD1999999-0081REMSYN06441941 32950 00000 10274 20190 30063 40068 333 10322 59008 70000=
0110419410999992021022515004+23267+090700FM-12+000799999V0209999C000019999999N004000199+02401+02201100771ADDAA124000091MA1999999100721MD1999999-0191REMSYN05841941 32940 00000 10240 20220 30072 40077 333 59019 70000=
0110419410999992021022518004+23267+090700FM-12+000799999V0209999C000019999999N004000199+02321+02101100761ADDAA124000091MA1999999100711MD1999999-0221REMSYN05841941 32940 00000 10232 20210 30071 40076 333 59022 70000=
0110419410999992021022721004+23267+090700FM-12+000799999V0201801N001019999999N004000199+02251+02201100891ADDAA124000091MA1999999100841MD1999999+0221REMSYN05841941 32940 01802 10225 20220 30084 40089 333 58022 70000=
0110419410999992021022800004+23267+090700FM-12+000799999V0201801N003119999999N005000199+02201+02101100771ADDAA124000091MA1999999100721MD1999999-0161REMSYN05841941 32950 01806 10220 20210 30072 40077 333 59016 70000=
0219419410999992021022803004+23267+090700FM-12+000799999V0201801N001010240019N006000199+02551+02201101021ADDAA124000091GA1041+004801061GA2061+024001041GE19MSL   +99999+99999GF106991041999004801999999KA1240N+02181MA1999999100971REMSYN08841941 32456 61802 10255 20220 30097 40102 85420 333 20218 56990 58016 70000 84616 86458=
0200419410999992021022806004+23267+090700FM-12+000799999V0201801N001010240019N007000199+02951+02101100971ADDAA124000091GA1041+004801061GA2061+024001041GE19MSL   +99999+99999GF106991041999004801999999MA1999999100911REMSYN08241941 32457 61802 10295 20210 30091 40097 85420 333 56990 59004 70000 84616 86458=
0200419410999992021022809004+23267+090700FM-12+000799999V0201801N001510240019N007000199+03161+02001100761ADDAA124000091GA1041+004801061GA2061+024001041GE19MSL   +99999+99999GF106991041999004801999999MA1999999100711REMSYN08241941 32457 61803 10316 20200 30071 40076 85420 333 56990 58017 70000 84616 86458=
0219419410999992021022812004+23267+090700FM-12+000799999V0201801N001010240019N006000199+02951+02201100661ADDAA124000091GA1041+004801061GA2061+024001041GE19MSL   +99999+99999GF106991041999004801999999KA1240M+03201MA1999999100611REMSYN08841941 32456 61802 10295 20220 30061 40066 85420 333 10320 56990 58014 70000 84616 86458=
0219419410999992021022815004+23267+090700FM-12+000799999V0201801N00101999999CN005000199+02661+02301100861ADDAA124000091GA1031+004801061GA2041+024001041GE19MSL   +99999+99999GF104991031999004801999999MA1999999100811REMSYN08241941 32450 41802 10266 20230 30081 40086 84420 333 56990 59003 70000 83616 84458=EQDQ01 024003SCOCIG
0219419410999992021022818004+23267+090700FM-12+000799999V0201801N00101999999CN004000199+02551+02301100941ADDAA124000091GA1031+004801061GA2041+024001041GE19MSL   +99999+99999GF104991031999004801999999MA1999999100891REMSYN08241941 32440 41802 10255 20230 30089 40094 84420 333 56990 58005 70000 83616 84458=EQDQ01 024003SCOCIG
0110419410999992021022821004+23267+090700FM-12+000799999V0201801N001019999999N004000199+02421+02201100901ADDAA124000091MA1999999100851MD1999999+0011REMSYN05841941 32940 01802 10242 20220 30085 40090 333 58001 70000=
0110419410999992021030100004+23267+090700FM-12+000799999V0201801N001019999999N005000199+02301+02201100861ADDAA124000091MA1999999100811MD1999999+0091REMSYN05841941 32950 01802 10230 20220 30081 40086 333 58009 70000=
0219419410999992021030103004+23267+090700FM-12+000799999V0201801N001010240019N006000199+02551+02201101241ADDAA124000091GA1041+004801061GA2061+024001041GE19MSL   +99999+99999GF106991041999004801999999KA1240N+02221MA1999999101191REMSYN08841941 32456 61802 10255 20220 30119 40124 85420 333 20222 56990 58022 70000 84616 86458=
0200419410999992021030106004+23267+090700FM-12+000799999V0201801N001010240019N007000199+03021+02201101271ADDAA124000091GA1041+004801061GA2061+024001041GE19MSL   +99999+99999GF106991041999004801999999MA1999999101211REMSYN08241941 32457 61802 10302 20220 30121 40127 85420 333 56990 58030 70000 84616 86458=
0200419410999992021030109004+23267+090700FM-12+000799999V0201801N001510240019N007000199+03221+02101101041ADDAA124000091GA1041+004801061GA2061+024001041GE19MSL   +99999+99999GF106991041999004801999999MA1999999100981REMSYN08241941 32457 61803 10322 20210 30098 40104 85420 333 56990 58027 70000 84616 86458=
0129419410999992021030112004+23267+090700FM-12+000799999V0201801N001019999999N006000199+02921+02301101071ADDAA124000091KA1240M+03281MA1999999101011MD1999999+0401REMSYN06441941 32956 01802 10292 20230 30101 40107 333 10328 58040 70000=
0110419410999992021030115004+23267+090700FM-12+000799999V0201801N001019999999N005000199+02641+02401101121ADDAA124000091MA1999999101061MD1999999+0251REMSYN05841941 32950 01802 10264 20240 30106 40112 333 58025 70000=
0110419410999992021030118004+23267+090700FM-12+000799999V0201801N001019999999N004000199+02521+02401101171ADDAA124000091MA1999999101111MD1999999+0221REMSYN05841941 32940 01802 10252 20240 30111 40117 333 58022 70000=
0110419410999992021030121004+23267+090700FM-12+000799999V0201801N001019999999N004000199+02451+02201101161ADDAA124000091MA1999999101101MD1999999+0251REMSYN05841941 32940 01802 10245 20220 30110 40116 333 58025 70000=
0110419410999992021030200004+23267+090700FM-12+000799999V0201801N001019999999N005000199+02401+02201101141ADDAA124000091MA1999999101081MD1999999+0271REMSYN05841941 32950 01802 10240 20220 30108 40114 333 58027 70000=
0129419410999992021113012004+23267+090700FM-12+000799999V0209999C000019999999N005000199+02501+01701101141ADDAA124000091KA1240M+02971MA1999999101081MD1999999-0101REMSYN06441941 32950 00000 10250 20170 30108 40114 333 10297 59010 70000=
0110419410999992021113015004+23267+090700FM-12+000799999V0209999C000019999999N005000199+02101+01801101251ADDAA124000091MA1999999101191MD1999999-0091REMSYN05841941 32950 00000 10210 20180 30119 40125 333 59009 70000=
0110419410999992021113018004+23267+090700FM-12+000799999V0209999C000019999999N005000199+02001+02001101271ADDAA124000091MA1999999101211MD1999999-0111REMSYN05841941 32950 00000 10200 20200 30121 40127 333 59011 70000=
0110419410999992021113021004+23267+090700FM-12+000799999V0209999C000019999999N004000199+01901+01901101291ADDAA124000091MA1999999101231MD1999999-0051REMSYN05841941 32940 00000 10190 20190 30123 40129 333 59005 70000=
0138419410999992021120100004+23267+090700FM-12+000799999V0203601N001519999999N004000199+01901+01801101401ADDAA124000091AY101021AY201021MA1999999101341MD1999999-0091MW1051REMSYN06441941 31940 03603 10190 20180 30134 40140 70500 333 59009 70000=
0129419410999992021120103004+23267+090700FM-12+000799999V0203601N001019999999N005000199+02401+02201101531ADDAA124000091KA1240N+01851MA1999999101471MD1999999-0071REMSYN06441941 32950 03602 10240 20220 30147 40153 333 20185 59007 70000=
0138419410999992021123121004+23267+090700FM-12+000799999V0203601N001519999999N004000199+01651+01601101981ADDAA124000091AY101021AY201021MA1999999101931MD1999999+0131MW1051REMSYN06441941 31940 03603 10165 20160 30193 40198 70500 333 58013 70000=
