0181483040999992021010100004+19870+099774FM-12+039799999V0203601N0000199999999012000199+01571+01421101891ADDAA106999999AZ101061AZ201061GA1021+008001061GA2999+999999031GA3999+999999021GE19MSL   +99999+99999GF108991021999008001999999KA1120N+01431MA1999999097131MD1210061+0111REMSYN004BUFR
0185483040999992021010103004+19867+099767FM-12+040199999V0209999C000019999999N015000199+01961+01331102061ADDGA1061+999999031GA2999+999999021GE19MSL   +99999+99999GF108991061999999999999999MA1999999097351MD1210221+0121REMSYN06448304 32965 80000 10196 20133 39735 40206 52022 86046 333 58012=
0136483040999992021010106004+19870+099774FM-12+039799999V0203601N0000122000199015000199+02421+01271101711ADDAA106999999AZ101061AZ201061GA1021+012501061GE19MSL   +99999+99999GF102991021999012501999999MA1999999097091MD1710261+0111REMSYN004BUFR
0136483040999992021010109004+19870+099774FM-12+039799999V0203601N0015122000199015000199+02501+01401101421ADDAA103999999AZ101031AZ201031GA1021+030001031GE19MSL   +99999+99999GF102991021999030001999999MA1999999096831MD1710271+0001REMSYN004BUFR
0188483040999992021010112004+19867+099767FM-12+040199999V0209999C000012200019N015000199+01921+01531101561ADDGA1021+999999031GE19MSL   +99999+99999GF102991021999999999999999KA1240M+02551MA1999999096871MD1210051+0001REMSYN07048304 32965 20000 10192 20153 39687 40156 52005 82040 333 10255 58000=
0099483040999992021010115004+19867+099767FM-12+040199999V0209999C000019999999N012000199+01561+01341101701ADDMA1999999096951MD1210071-0141REMSYN05848304 32962 00000 10156 20134 39695 40170 52007 333 59014=
0099483040999992021010118004+19867+099767FM-12+040199999V0209999C000019999999N010000199+01351+01201101781ADDMA1999999096991MD1210041-0101REMSYN05848304 32960 00000 10135 20120 39699 40178 52004 333 59010=
0099483040999992021010121004+19867+099767FM-12+040199999V0209999C000019999999N010000199+01221+01121101761ADDMA1999999096951MD1710041-0061REMSYN05848304 32960 00000 10122 20112 39695 40176 57004 333 59006=
0118483040999992021010200004+19867+099767FM-12+040199999V0209999C000019999999N010000199+01071+01011101901ADDKA1120N+01021MA1999999097061MD1210111+0001REMSYN06448304 32960 00000 10107 20101 39706 40190 52011 333 20102 58000=
0099483040999992021010203004+19867+099767FM-12+040199999V0209999C000019999999N015000199+01871+01491101931ADDMA1999999097221MD1210161-0131REMSYN05848304 32965 00000 10187 20149 39722 40193 52016 333 59013=
0169483040999992021010206004+19867+099767FM-12+040199999V0201901N001012200019N015000199+02431+01491101571ADDGA1011+008001081GE19MSL   +99999+99999GF101991011999008001999999MA1999999096961MD1710261-0141REMSYN06448304 32565 11902 10243 20149 39696 40157 57026 81100 333 59014=
0169483040999992021010209004+19867+099767FM-12+040199999V0201101N001012200019N015000199+02501+01501101321ADDGA1011+008001081GE19MSL   +99999+99999GF101991011999008001999999MA1999999096731MD1710241-0111REMSYN06448304 32565 11102 10250 20150 39673 40132 57024 81100 333 59011=
0118483040999992021010212004+19867+099767FM-12+040199999V0209999C000019999999N015000199+01941+01501101461ADDKA1240M+02551MA1999999096781MD1210051-0101REMSYN06448304 32965 00000 10194 20150 39678 40146 52005 333 10255 59010=
0099483040999992021010215004+19867+099767FM-12+040199999V0209999C000019999999N010000199+01581+01371101581ADDMA1999999096831MD1210051-0121REMSYN05848304 32960 00000 10158 20137 39683 40158 52005 333 59012=
0099483040999992021010218004+19867+099767FM-12+040199999V0209999C000019999999N010000199+01381+01231101681ADDMA1999999096901MD1210061-0101REMSYN05848304 32960 00000 10138 20123 39690 40168 52006 333 59010=
0099483040999992021010221004+19867+099767FM-12+040199999V0209999C000019999999N010000199+01241+01141101631ADDMA1999999096831MD1710061-0121REMSYN05848304 32960 00000 10124 20114 39683 40163 57006 333 59012=
0118483040999992021010300004+19867+099767FM-12+040199999V0209999C000019999999N010000199+01101+01021101791ADDKA1120N+01041MA1999999096961MD1210131-0111REMSYN06448304 32960 00000 10110 20102 39696 40179 52013 333 20104 59011=
0099483040999992021010303004+19867+099767FM-12+040199999V0209999C000019999999N015000199+01951+01561101801ADDMA1999999097101MD1210141-0141REMSYN05848304 32965 00000 10195 20156 39710 40180 52014 333 59014=
0099483040999992021010306004+19867+099767FM-12+040199999V0200901N001519999999N015000199+02571+01471101361ADDMA1999999096781MD1710321-0211REMSYN05848304 32965 00903 10257 20147 39678 40136 57032 333 59021=
0099483040999992021010309004+19867+099767FM-12+040199999V0200101N001519999999N015000199+02721+01561101081ADDMA1999999096531MD1710251-0241REMSYN05848304 32965 00103 10272 20156 39653 40108 57025 333 59024=
0098483040999992021010312004+19870+099774FM-12+039799999V0203601N0000122000199012000199+02151+01781101291ADDAA106999999AZ101061AZ201061GF100991999999999999999999MA1999999096651MD1210121-0171REMSYN004BUFR
0098483040999992021010315004+19870+099774FM-12+039799999V0203601N0000122000199012000199+01761+01551101521ADDAA103999999AZ101031AZ201031GF100991999999999999999999MA1999999096811MD1210161-0051REMSYN004BUFR
0098483040999992021010318004+19870+099774FM-12+039799999V0203601N0000122000199012000199+01551+01421101581ADDAA106999999AZ101061AZ201061GF100991999999999999999999MA1999999096831MD1210021-0101REMSYN004BUFR
0099483040999992021010321004+19867+099767FM-12+040199999V0209999C000019999999N012000199+01411+01301101591ADDMA1999999096821MD1710011-0041REMSYN05848304 32962 00000 10141 20130 39682 40159 57001 333 59004=
0155483040999992021010400004+19870+099774FM-12+039799999V0203601N0000122000199003000199+01201+01141101831ADDAA106999999AY101061AY201061GA1999+030001001GE19MSL   +99999+99999GF102991999999030001999999KA1120N+01161MA1999999097011MD1210191+0041MW1101REMSYN004BUFR
0099483040999992021010403004+19867+099767FM-12+040199999V0209999C000019999999N015000199+01951+01621101911ADDMA1999999097211MD1210201+0121REMSYN05848304 32965 00000 10195 20162 39721 40191 52020 333 58012=
0188483040999992021010406004+19867+099767FM-12+040199999V0209999C000012200019N015000199+02621+01611101461ADDGA1999+999999001GE19MSL   +99999+99999GF102991001999999999999999MA1999999096881MD1710331+0101REMSYN06448304 32965 20000 10262 20161 39688 40146 57033 80001 333 58010=EQDQ01    003SCCGA1
0099483040999992021010409004+19867+099767FM-12+040199999V0209999C000019999999N015000199+02801+01681101211ADDMA1999999096671MD1710211+0141REMSYN05848304 32965 00000 10280 20168 39667 40121 57021 333 58014=
0098483040999992021010412004+19870+099774FM-12+039799999V0203601N0000122000199015000199+02201+01801101391ADDAA106999999AZ101061AZ201061GF100991999999999999999999MA1999999096751MD1210081+0101REMSYN004BUFR
0098483040999992021010415004+19870+099774FM-12+039799999V0203601N0000122000199012000199+01811+01641101581ADDAA103999999AZ101031AZ201031GF100991999999999999999999MA1999999096871MD1210121+0061REMSYN004BUFR
0099483040999992021010418004+19867+099767FM-12+040199999V0209999C000019999999N010000199+01611+01491101541ADDMA1999999096801MD1710071-0041REMSYN05848304 32960 00000 10161 20149 39680 40154 57007 333 59004=
0104483040999992021010421004+19870+099774FM-12+039799999V0203601N0000122000199008000199+01451+01341101511ADDAA103999999AY101031AY201031GF100991999999999999999999MA1999999096751MD1710051-0081MW1101REMSYN004BUFR
0091483040999992021010500004+19870+099774FM-12+039799999V0203601N0000199999999000090199+01321+01271101771ADDAA106999999AY141061AY201061KA1120N+01291MA1999999096981MD1210231-0051MW1471REMSYN004BUFR
0104483040999992021010503004+19870+099774FM-12+039799999V0203601N0000122000199008000199+02071+01691101741ADDAA103999999AY141031AY201031GF100991999999999999999999MA1999999097071MD1210091-0171MW1101REMSYN004BUFR
0127483040999992021010506004+19867+099767FM-12+040199999V0209999C000019999999N015000199+02751+01711101301ADDAY141021AY201021MA1999999096751MD1710321-0161MW1021REMSYN06448304 31965 00000 10275 20171 39675 40130 57032 70240 333 59016=
0099483040999992021010509004+19867+099767FM-12+040199999V0209999C000019999999N015000199+03001+01761101061ADDMA1999999096551MD1710201-0161REMSYN05848304 32965 00000 10300 20176 39655 40106 57020 333 59016=
0118483040999992021010512004+19867+099767FM-12+040199999V0209999C000019999999N012000199+02221+01841101251ADDKA1240M+03031MA1999999096621MD1210071-0141REMSYN06448304 32962 00000 10222 20184 39662 40125 52007 333 10303 59014=
0099483040999992021010515004+19867+099767FM-12+040199999V0209999C000019999999N010000199+01821+01641101461ADDMA1999999096761MD1210141-0121REMSYN05848304 32960 00000 10182 20164 39676 40146 52014 333 59012=
0099483040999992021010518004+19867+099767FM-12+040199999V0209999C000019999999N010000199+01631+01511101471ADDMA1999999096741MD1710021-0071REMSYN05848304 32960 00000 10163 20151 39674 40147 57002 333 59007=
0099483040999992021010521004+19867+099767FM-12+040199999V0209999C000019999999N010000199+01481+01371101441ADDMA1999999096681MD1710051-0071REMSYN05848304 32960 00000 10148 20137 39668 40144 57005 333 59007=
0172483040999992021010600004+19867+099767FM-12+040199999V0209999C00001000601WN000200199+01361+01321101551ADDAY141021AY201021GF109991999999999999999999KA1120N+01321MA1999999096771MD1210091-0231MW1471REMSYN07048304 31/02 90000 10136 20132 39677 40155 52009 74740 333 20132 59023=
0127483040999992021010603004+19867+099767FM-12+040199999V0209999C000019999999N008000199+02071+01731101571ADDAY141021AY201021MA1999999096911MD1210141-0171MW1101REMSYN06448304 31958 00000 10207 20173 39691 40157 52014 71040 333 59017=
0127483040999992021010606004+19867+099767FM-12+040199999V0203201N001519999999N008000199+02811+01791101061ADDAY141021AY201021MA1999999096531MD1710381-0241MW1051REMSYN06448304 31958 03203 10281 20179 39653 40106 57038 70540 333 59024=
0127483040999992021010609004+19867+099767FM-12+040199999V0201401N000519999999N008000199+03071+01831100751ADDAY101021AY201021MA1999999096271MD1710261-0301MW1051REMSYN06448304 31958 01401 10307 20183 39627 40075 57026 70500 333 59030=
0146483040999992021010612004+19867+099767FM-12+040199999V0209999C000019999999N007000199+02341+01971100921ADDAY101021AY201021KA1240M+03091MA1999999096331MD1210061-0331MW1101REMSYN07048304 31957 00000 10234 20197 39633 40092 52006 71000 333 10309 59033=
0127483040999992021010615004+19867+099767FM-12+040199999V0209999C000019999999N006000199+01881+01701101171ADDAY101021AY201021MA1999999096491MD1210161-0291MW1101REMSYN06448304 31956 00000 10188 20170 39649 40117 52016 71000 333 59029=
0127483040999992021010618004+19867+099767FM-12+040199999V0209999C000019999999N006000199+01691+01551101261ADDAY101021AY201021MA1999999096551MD1210061-0211MW1101REMSYN06448304 31956 00000 10169 20155 39655 40126 52006 71000 333 59021=
0127483040999992021010621004+19867+099767FM-12+040199999V0209999C000019999999N005000199+01601+01501101191ADDAY101021AY201021MA1999999096471MD1710081-0251MW1101REMSYN06448304 31950 00000 10160 20150 39647 40119 57008 71000 333 59025=
0172483040999992021010700004+19867+099767FM-12+040199999V0209999C00001000301WN000100199+01461+01371101361ADDAY101021AY201021GF109991999999999999999999KA1120N+01431MA1999999096611MD1210141-0191MW1471REMSYN07048304 31/01 90000 10146 20137 39661 40136 52014 74700 333 20143 59019=
0127483040999992021010703004+19867+099767FM-12+040199999V0209999C000019999999N008000199+02111+01771101441ADDAY141021AY201021MA1999999096791MD1210181-0131MW1101REMSYN06448304 31958 00000 10211 20177 39679 40144 52018 71040 333 59013=
0197483040999992021010706004+19867+099767FM-12+040199999V0200201N001012200019N008000199+02811+01901100931ADDAY141021AY201021GA1011+008001081GE19MSL   +99999+99999GF101991011999008001999999MA1999999096401MD1710381-0141MW1051REMSYN07048304 31558 10202 10281 20190 39640 40093 57038 70540 81100 333 59014=
0127483040999992021010709004+19867+099767FM-12+040199999V0209999C000019999999N008000199+03111+01971100631ADDAY101021AY201021MA1999999096161MD1710241-0121MW1051REMSYN06448304 31958 00000 10311 20197 39616 40063 57024 70500 333 59012=
0235483040999992021010712004+19867+099767FM-12+040199999V0209999C000012200019N007000199+02471+02121100841ADDAY101021AY201021GA1999+999999021GE19MSL   +99999+99999GF102991001999999999999999KA1240M+03121MA1999999096271MD1210101-0081MW1101REMSYN07648304 31957 20000 10247 20212 39627 40084 52010 71000 80005 333 10312 59008=EQDQ01    003SCCGA1
0127483040999992021010715004+19867+099767FM-12+040199999V0209999C000019999999N007000199+02131+01961101071ADDAY101021AY201021MA1999999096431MD1210171-0101MW1101REMSYN06448304 31957 00000 10213 20196 39643 40107 52017 71000 333 59010=
0127483040999992021010718004+19867+099767FM-12+040199999V0209999C000019999999N006000199+01961+01831101091ADDAY101021AY201021MA1999999096431MD1410001-0161MW1101REMSYN06448304 31956 00000 10196 20183 39643 40109 54000 71000 333 59016=
0104483040999992021010721004+19870+099774FM-12+039799999V0203601N0000122000199006000199+01821+01711101101ADDAA103999999AY101031AY201031GF100991999999999999999999MA1999999096421MD1710011-0091MW1101REMSYN004BUFR
0187483040999992021010800004+19870+099774FM-12+039799999V0203601N0000199999999006000199+01751+01671101301ADDAA106999999AY111061AY211061GA1031+008001061GA2999+999999031GA3999+999999021GE19MSL   +99999+99999GF106991031999008001999999KA1120N+01711MA1999999096601MD1210181-0061MW1101REMSYN004BUFR
0169483040999992021010803004+19867+099767FM-12+040199999V0209999C000019999999N015000199+02201+01971101441ADDGA1061+999999031GE19MSL   +99999+99999GF106991061999999999999999MA1999999096801MD1210201+0001REMSYN06448304 32965 60000 10220 20197 39680 40144 52020 86040 333 58000=
0169483040999992021010806004+19867+099767FM-12+040199999V0209999C000019999999N015000199+02631+01931101061ADDGA1061+999999031GE19MSL   +99999+99999GF106991061999999999999999MA1999999096511MD1710301+0141REMSYN06448304 32965 60000 10263 20193 39651 40106 57030 86040 333 58014=
0169483040999992021010809004+19867+099767FM-12+040199999V0209999C000012200019N015000199+02901+01931100791ADDGA1021+999999031GE19MSL   +99999+99999GF102991021999999999999999MA1999999096291MD1710221+0161REMSYN06448304 32965 20000 10290 20193 39629 40079 57022 82040 333 58016=
0204483040999992021010812004+19867+099767FM-12+040199999V0209999C000019999999N012000199+02421+02041100991ADDGA1031+999999031GA2999+999999021GE19MSL   +99999+99999GF105991031999999999999999KA1240M+02951MA1999999096411MD1210121+0151REMSYN07048304 32962 50000 10242 20204 39641 40099 52012 83046 333 10295 58015=
0229483040999992021010815004+19867+099767FM-12+040199999V0209999C000019999999N006000199+02251+02021101231ADDAY121021AY221021GA1021+008001061GA2999+999999031GA3999+999999021GE19MSL   +99999+99999GF106991021999008001999999MA1999999096611MD1210201+0171MW1101REMSYN07048304 31556 60000 10225 20202 39661 40123 52020 71022 82546 333 58017=
0229483040999992021010818004+19867+099767FM-12+040199999V0201801N003119999999N006000199+02001+01841101341ADDAY121021AY221021GA1021+008001061GA2999+999999031GA3999+999999021GE19MSL   +99999+99999GF106991021999008001999999MA1999999096671MD1210061+0241MW1101REMSYN07048304 31556 61806 10200 20184 39667 40134 52006 71022 82576 333 58024=
0174483040999992021010821004+19870+099774FM-12+039799999V0203601N0000122000199006000199+01901+01791101261ADDAA103999999AY111031AY211031GA1011+008001061GA2999+999999031GA3999+999999021GE19MSL   +99999+99999GF104991011999008001999999MA1999999096581MD1710091+0161MW1101REMSYN004BUFR
0165483040999992021010900004+19870+099774FM-12+039799999V0203601N0000122000199012000199+01801+01671101361ADDAA106999999AZ101061AZ201061GA1011+008001061GA2999+999999021GE19MSL   +99999+99999GF103991011999008001999999KA1120N+01701MA1999999096661MD1210081+0061REMSYN004BUFR
0201483040999992021010903004+19867+099767FM-12+040199999V0209999C000019999999N012000199+02201+01711101461ADDGA1021+008001061GA2999+999999031GA3999+999999021GE19MSL   +99999+99999GF106991021999008001999999MA1999999096821MD1210151+0021REMSYN06448304 32562 60000 10220 20171 39682 40146 52015 82576 333 58002=
0185483040999992021010906004+19867+099767FM-12+040199999V0209999C000019999999N012000199+02651+01701101221ADDGA1031+008001061GA2999+999999021GE19MSL   +99999+99999GF106991031999008001999999MA1999999096661MD1710161+0151REMSYN06448304 32562 60000 10265 20170 39666 40122 57016 83506 333 58015=
0169483040999992021010909004+19867+099767FM-12+040199999V0201901N003112200019N015000199+02861+01831100771ADDGA1021+008001061GE19MSL   +99999+99999GF102991021999008001999999MA1999999096261MD1710401-0031REMSYN06448304 32565 21906 10286 20183 39626 40077 57040 82500 333 59003=
0152483040999992021010912004+19870+099774FM-12+039799999V0203601N0000199999999012000199+02601+01861101101ADDAA106999999AZ101061AZ201061GA1021+008001061GA2999+999999021GE19MSL   +99999+99999GF106991021999008001999999MA1999999096531MD1210281+0111REMSYN004BUFR
0213483040999992021010915004+19867+099767FM-12+040199999V0202201N001512200019N006000199+02281+01761101191ADDAY111021AY211021GA1011+008001061GA2999+999999021GE19MSL   +99999+99999GF103991011999008001999999MA1999999096571MD1210041-0051MW1101REMSYN07048304 31556 32203 10228 20176 39657 40119 52004 71011 81505 333 59005=
0197483040999992021010918004+19867+099767FM-12+040199999V0209999C000012200019N006000199+01901+01741101221ADDAY111021AY211021GA1011+008001061GE19MSL   +99999+99999GF101991011999008001999999MA1999999096541MD1710031-0121MW1101REMSYN07048304 31556 10000 10190 20174 39654 40122 57003 71011 81500 333 59012=
0127483040999992021010921004+19867+099767FM-12+040199999V0209999C000019999999N006000199+01801+01631101191ADDAY101021AY201021MA1999999096501MD1710041-0071MW1101REMSYN06448304 31956 00000 10180 20163 39650 40119 57004 71000 333 59007=
0181483040999992021011000004+19870+099774FM-12+039799999V0203601N0000199999999012000199+01801+01631101361ADDAA106999999AZ101061AZ201061GA1041+008001061GA2999+999999031GA3999+999999021GE19MSL   +99999+99999GF107991041999008001999999KA1120N+01751MA1999999096661MD1210161+0001REMSYN004BUFR
0152483040999992021011003004+19870+099774FM-12+039799999V0202101N0026199999999015000199+02251+01591101481ADDAA103999999AZ101031AZ201031GA1031+008001061GA2999+999999021GE19MSL   +99999+99999GF106991031999008001999999MA1999999096841MD1210181+0021REMSYN004BUFR
0169483040999992021011006004+19867+099767FM-12+040199999V0201701N003112200019N015000199+02631+01601101091ADDGA1011+008001061GE19MSL   +99999+99999GF101991011999008001999999MA1999999096531MD1710311-0131REMSYN06448304 32565 11706 10263 20160 39653 40109 57031 81500 333 59013=
0169483040999992021011009004+19867+099767FM-12+040199999V0201901N002112200019N015000199+02821+01711100781ADDGA1011+008001061GE19MSL   +99999+99999GF101991011999008001999999MA1999999096271MD1710261+0021REMSYN06448304 32565 11904 10282 20171 39627 40078 57026 81500 333 58002=
0098483040999992021011012004+19870+099774FM-12+039799999V0203601N0000122000199012000199+02401+01931100931ADDAA106999999AZ101061AZ201061GF100991999999999999999999MA1999999096351MD1210081-0161REMSYN004BUFR
0136483040999992021011015004+19870+099774FM-12+039799999V0203601N00001030001C9012000199+02171+01831101161ADDAA103999999AZ101031AZ201031GA1061+030001031GE19MSL   +99999+99999GF106991061999030001999999MA1999999096531MD1210181-0031REMSYN004BUFR
0152483040999992021011018004+19870+099774FM-12+039799999V0203601N00001030001C9010000199+02151+01951101221ADDAA106999999AZ101061AZ201061GA1061+030001031GA2999+999999021GE19MSL   +99999+99999GF108991061999030001999999MA1999999096581MD1210051+0001REMSYN004BUFR
0152483040999992021011021004+19870+099774FM-12+039799999V0203601N00001030001C9010000199+02071+01891101211ADDAA103999999AZ101031AZ201031GA1051+030001031GA2999+999999021GE19MSL   +99999+99999GF106991051999030001999999MA1999999096571MD1710011+0021REMSYN004BUFR
0165483040999992021011100004+19870+099774FM-12+039799999V0203601N00001030001C9010000199+01901+01711101521ADDAA106999999AZ101061AZ201061GA1051+030001031GA2999+999999021GE19MSL   +99999+99999GF106991051999030001999999KA1120N+01871MA1999999096831MD1210271+0161REMSYN004BUFR
0185483040999992021011103004+19867+099767FM-12+040199999V0209999C000019999999N015000199+02301+01591101711ADDGA1031+999999031GA2999+999999021GE19MSL   +99999+99999GF105991031999999999999999MA1999999097071MD1210241+0241REMSYN06448304 32965 50000 10230 20159 39707 40171 52024 83046 333 58024=
0185483040999992021011106004+19867+099767FM-12+040199999V0201301N001519999999N015000199+02691+01561101361ADDGA1031+999999031GA2999+999999021GE19MSL   +99999+99999GF105991031999999999999999MA1999999096801MD1710281+0271REMSYN06448304 32965 51303 10269 20156 39680 40136 57028 83046 333 58027=
0185483040999992021011109004+19867+099767FM-12+040199999V0203601N002619999999N013000199+02611+01671101201ADDGA1051+999999031GA2999+999999021GE19MSL   +99999+99999GF106991051999999999999999MA1999999096631MD1710171+0411REMSYN06448304 32963 63605 10261 20167 39663 40120 57017 85076 333 58041=
0152483040999992021011112004+19870+099774FM-12+039799999V0200401N00151030001C9012000199+02001+01391101551ADDAA106999999AZ101061AZ201061GA1061+030001031GA2999+999999021GE19MSL   +99999+99999GF108991061999030001999999MA1999999096881MD1210251+0621REMSYN004BUFR
0152483040999992021011115004+19870+099774FM-12+039799999V0200301N00261030001C9012000199+01611+01061101981ADDAA103999999AZ101031AZ201031GA1061+030001031GA2999+999999021GE19MSL   +99999+99999GF108991061999030001999999MA1999999097221MD1210341+0821REMSYN004BUFR
0168483040999992021011118004+19870+099774FM-12+039799999V0200301N0036199999999010000199+01251+00951102231ADDAA106999999AZ101061AZ201061GA1031+008001061GA2999+999999031GA3999+999999021GE19MSL   +99999+99999GF106991031999008001999999MA1999999097401MD1210181+1011REMSYN004BUFR
0152483040999992021011121004+19870+099774FM-12+039799999V0200201N00511030001C9010000199+01171+00931102181ADDAA103999999AZ101031AZ201031GA1061+030001031GA2999+999999021GE19MSL   +99999+99999GF108991061999030001999999MA1999999097341MD1710061+0971REMSYN004BUFR
0181483040999992021011200004+19870+099774FM-12+039799999V0203601N00411008001C9010000199+01171+00891102391ADDAA106999999AZ101061AZ201061GA1051+008001061GA2999+999999031GA3999+999999101GE19MSL   +99999+99999GF108991051999008001999999KA1120N+01111MA1999999097541MD1210201+0861REMSYN004BUFR
0185483040999992021011203004+19867+099767FM-12+040199999V0203601N004119999999N015000199+01251+00851102561ADDGA1051+008001061GA2999+999999031GE19MSL   +99999+99999GF108991051999008001999999MA1999999097721MD1210181+9999REMSYN06448304 32565 83608 10125 20085 39772 40256 52018 8557/ 333 58085=
0185483040999992021011206004+19867+099767FM-12+040199999V0203301N003619999999N015000199+01321+00651102311ADDGA1041+008001061GA2999+999999031GE19MSL   +99999+99999GF108991041999008001999999MA1999999097491MD1710231+9999REMSYN06448304 32565 83307 10132 20065 39749 40231 57023 8457/ 333 58095=
0168483040999992021011209004+19870+099774FM-12+039799999V0200301N0031199999999015000199+01371+00841102061ADDAA103999999AZ101031AZ201031GA1031+008001061GA2999+999999031GA3999+999999021GE19MSL   +99999+99999GF108991031999008001999999MA1999999097261MD1710231+0861REMSYN004BUFR
0168483040999992021011212004+19870+099774FM-12+039799999V0200401N0015199999999012000199+01271+00921102081ADDAA106999999AZ101061AZ201061GA1031+008001061GA2999+999999031GA3999+999999021GE19MSL   +99999+99999GF108991031999008001999999MA1999999097261MD1410001+0521REMSYN004BUFR
0168483040999992021011215004+19870+099774FM-12+039799999V0200201N0021199999999012000199+01251+00901102151ADDAA103999999AZ101031AZ201031GA1031+008001061GA2999+999999031GA3999+999999021GE19MSL   +99999+99999GF108991031999008001999999MA1999999097321MD1210061+0171REMSYN004BUFR
0158483040999992021011218004+19870+099774FM-12+039799999V0203601N00001030001C9008000199+01201+00881102111ADDAA106999999AY121061AY221061GA1061+030001031GA2999+999999021GE19MSL   +99999+99999GF108991061999030001999999MA1999999097281MD1710041-0111MW1101REMSYN004BUFR
0158483040999992021011221004+19870+099774FM-12+039799999V0203601N00001030001C9006000199+01201+00921102021ADDAA103999999AY121031AY221031GA1051+030001031GA2999+999999021GE19MSL   +99999+99999GF108991051999030001999999MA1999999097191MD1710091-0171MW1101REMSYN004BUFR
0171483040999992021011300004+19870+099774FM-12+039799999V0203601N0000199999999006000199+01201+01001101971ADDAA106999999AY121061AY221061GA1041+030001031GA2999+999999021GE19MSL   +99999+99999GF108991041999030001999999KA1120N+01151MA1999999097151MD1710041-0421MW1101REMSYN004BUFR
0213483040999992021011303004+19867+099767FM-12+040199999V0209999C000019999999N008000199+01401+00821102131ADDAY121021AY221021GA1061+999999031GA2999+999999021GE19MSL   +99999+99999GF108991061999999999999999MA1999999097331MD1210181-0431MW1101REMSYN07048304 31958 80000 10140 20082 39733 40213 52018 71022 86077 333 59043=
0185483040999992021011306004+19867+099767FM-12+040199999V0200201N001519999999N012000199+01871+00821101741ADDGA1061+999999031GA2999+999999021GE19MSL   +99999+99999GF108991061999999999999999MA1999999097041MD1710291-0571REMSYN06448304 32962 80203 10187 20082 39704 40174 57029 86076 333 59057=
0152483040999992021011309004+19870+099774FM-12+039799999V0203601N0000199999999015000199+01951+00951101431ADDAA103999999AZ101031AZ201031GA1031+030001031GA2999+999999021GE19MSL   +99999+99999GF105991031999030001999999MA1999999096751MD1710281-0631REMSYN004BUFR
0136483040999992021011312004+19870+099774FM-12+039799999V0203601N0000122000199012000199+01571+01031101531ADDAA106999999AZ101061AZ201061GA1031+030001031GE19MSL   +99999+99999GF103991031999030001999999MA1999999096791MD1210031-0551REMSYN004BUFR
0169483040999992021011315004+19867+099767FM-12+040199999V0209999C000012200019N010000199+01241+01031101741ADDGA1021+999999031GE19MSL   +99999+99999GF102991021999999999999999MA1999999096941MD1210151-0401REMSYN06448304 32960 20000 10124 20103 39694 40174 52015 82040 333 59040=
0216483040999992021011318004+19867+099767FM-12+040199999V0209999C000012200019N008000199+01101+00961101761ADDAY101021AY201021GA1999+999999021GE19MSL   +99999+99999GF102991001999999999999999MA1999999096931MD1410001-0351MW1101REMSYN07048304 31958 20000 10110 20096 39693 40176 54000 71000 80005 333 59035=EQDQ01    003SCCGA1
0216483040999992021011321004+19867+099767FM-12+040199999V0209999C000012200019N007000199+01041+00941101671ADDAY101021AY201021GA1999+999999021GE19MSL   +99999+99999GF102991001999999999999999MA1999999096841MD1710101-0341MW1101REMSYN07048304 31957 20000 10104 20094 39684 40167 57010 71000 80005 333 59034=EQDQ01    003SCCGA1
0216483040999992021011400004+19867+099767FM-12+040199999V0209999C000012200019N006000199+00941+00861101761ADDAY101021AY201021GA1011+008001061GE19MSL   +99999+99999GF101991011999008001999999KA1120N+00911MA1999999096901MD1210061-0211MW1101REMSYN07648304 31556 10000 10094 20086 39690 40176 52006 71000 81500 333 20091 59021=
0127483040999992021011403004+19867+099767FM-12+040199999V0209999C000019999999N007000199+01561+01131101851ADDAY101021AY201021MA1999999097091MD1210191-0281MW1101REMSYN06448304 31957 00000 10156 20113 39709 40185 52019 71000 333 59028=
0127483040999992021011406004+19867+099767FM-12+040199999V0209999C000019999999N008000199+02311+01371101351ADDAY101021AY201021MA1999999096731MD1710361-0391MW1051REMSYN06448304 31958 00000 10231 20137 39673 40135 57036 70500 333 59039=
0197483040999992021011409004+19867+099767FM-12+040199999V0209999C000012200019N008000199+02491+01451101071ADDAY101021AY201021GA1021+999999031GE19MSL   +99999+99999GF102991021999999999999999MA1999999096491MD1710241-0361MW1051REMSYN07048304 31958 20000 10249 20145 39649 40107 57024 70500 82040 333 59036=
0146483040999992021011412004+19867+099767FM-12+040199999V0209999C000019999999N007000199+01961+01551101201ADDAY101021AY201021KA1240M+02511MA1999999096531MD1210051-0331MW1101REMSYN07048304 31957 00000 10196 20155 39653 40120 52005 71000 333 10251 59033=
0127483040999992021011415004+19867+099767FM-12+040199999V0209999C000019999999N006000199+01541+01301101431ADDAY101021AY201021MA1999999096691MD1210151-0311MW1101REMSYN06448304 31956 00000 10154 20130 39669 40143 52015 71000 333 59031=
0127483040999992021011418004+19867+099767FM-12+040199999V0209999C000019999999N006000199+01371+01241101451ADDAY101021AY201021MA1999999096681MD1710011-0321MW1101REMSYN06448304 31956 00000 10137 20124 39668 40145 57001 71000 333 59032=
0127483040999992021011421004+19867+099767FM-12+040199999V0209999C000019999999N006000199+01281+01191101371ADDAY101021AY201021MA1999999096591MD1710091-0301MW1101REMSYN06448304 31956 00000 10128 20119 39659 40137 57009 71000 333 59030=
0232483040999992021011500004+19867+099767FM-12+040199999V0209999C000019999999N006000199+01211+01151101401ADDAY111021AY211021GA1031+008001061GA2999+999999031GE19MSL   +99999+99999GF108991031999008001999999KA1120N+01121MA1999999096611MD1210021-0361MW1101REMSYN07648304 31556 80000 10121 20115 39661 40140 52002 71011 8355/ 333 20112 59036=
0127483040999992021011503004+19867+099767FM-12+040199999V0209999C000019999999N007000199+01841+01531101451ADDAY111021AY211021MA1999999096751MD1210141-0401MW1101REMSYN06448304 31957 00000 10184 20153 39675 40145 52014 71011 333 59040=
0127483040999992021011506004+19867+099767FM-12+040199999V0209999C000019999999N007000199+02511+01451101001ADDAY111021AY211021MA1999999096421MD1710331-0351MW1051REMSYN06448304 31957 00000 10251 20145 39642 40100 57033 70511 333 59035=
0197483040999992021011509004+19867+099767FM-12+040199999V0201401N001012200019N007000199+02731+01511100741ADDAY101021AY201021GA1011+008001081GE19MSL   +99999+99999GF101991011999008001999999MA1999999096211MD1710221-0331MW1051REMSYN07048304 31557 11402 10273 20151 39621 40074 57022 70500 81100 333 59033=
0146483040999992021011512004+19867+099767FM-12+040199999V0209999C000019999999N007000199+02161+01741100881ADDAY101021AY201021KA1240M+02761MA1999999096261MD1210061-0321MW1101REMSYN07048304 31957 00000 10216 20174 39626 40088 52006 71000 333 10276 59032=
0104483040999992021011515004+19870+099774FM-12+039799999V0203601N0000122000199006000199+01651+01481101101ADDAA103999999AY101031AY201031GF100991999999999999999999MA1999999096391MD1210131-0331MW1101REMSYN004BUFR
0127483040999992021011518004+19867+099767FM-12+040199999V0209999C000019999999N006000199+01401+01211101231ADDAY101021AY201021MA1999999096471MD1210081-0221MW1101REMSYN06448304 31956 00000 10140 20121 39647 40123 52008 71000 333 59022=
0104483040999992021011521004+19870+099774FM-12+039799999V0203601N0000122000199006000199+01251+01101101181ADDAA103999999AY101031AY201031GF100991999999999999999999MA1999999096401MD1710071-0201MW1101REMSYN004BUFR
0111483040999992021011600004+19870+099774FM-12+039799999V0203601N0000122000199010000199+01171+01021101331ADDAA106999999AZ101061AZ201061GF100991999999999999999999KA1120N+01061MA1999999096531MD1210141-0071REMSYN004BUFR
0099483040999992021011603004+19867+099767FM-12+040199999V0209999C000019999999N015000199+01871+01581101371ADDMA1999999096681MD1210151-0081REMSYN05848304 32965 00000 10187 20158 39668 40137 52015 333 59008=
0099483040999992021011606004+19867+099767FM-12+040199999V0209999C000019999999N015000199+02641+01501100931ADDMA1999999096381MD1710301-0061REMSYN05848304 32965 00000 10264 20150 39638 40093 57030 333 59006=
0099483040999992021011609004+19867+099767FM-12+040199999V0201801N001519999999N015000199+02851+01331100631ADDMA1999999096121MD1710261-0111REMSYN05848304 32965 01803 10285 20133 39612 40063 57026 333 59011=
0118483040999992021011612004+19867+099767FM-12+040199999V0209999C000019999999N010000199+02101+01781100871ADDKA1240M+02901MA1999999096241MD1210121-0021REMSYN06448304 32960 00000 10210 20178 39624 40087 52012 333 10290 59002=
0099483040999992021011615004+19867+099767FM-12+040199999V0209999C000019999999N010000199+01551+01431101171ADDMA1999999096441MD1210201+0061REMSYN05848304 32960 00000 10155 20143 39644 40117 52020 333 58006=
0099483040999992021011618004+19867+099767FM-12+040199999V0209999C000019999999N010000199+01401+01231101231ADDMA1999999096471MD1210031+0001REMSYN05848304 32960 00000 10140 20123 39647 40123 52003 333 58000=
0136483040999992021011621004+19870+099774FM-12+039799999V0203601N0000122000199010000199+01271+01151101311ADDAA103999999AZ101031AZ201031GA1021+008001061GE19MSL   +99999+99999GF102991021999008001999999MA1999999096531MD1210061+0131REMSYN004BUFR
0149483040999992021011700004+19870+099774FM-12+039799999V0203601N0000122000199012000199+01201+01061101691ADDAA106999999AZ101061AZ201061GA1021+008001061GE19MSL   +99999+99999GF102991021999008001999999KA1120N+01141MA1999999096881MD1210351+0361REMSYN004BUFR
0188483040999992021011703004+19867+099767FM-12+040199999V0201601N001012200019N012000199+01921+01451101821ADDGA1999+999999021GE19MSL   +99999+99999GF102991001999999999999999MA1999999097121MD1210241+0451REMSYN06448304 32962 21602 10192 20145 39712 40182 52024 80005 333 58045=EQDQ01    003SCCGA1
0169483040999992021011706004+19867+099767FM-12+040199999V0209999C000012200019N015000199+02651+01551101441ADDGA1011+008001061GE19MSL   +99999+99999GF101991011999008001999999MA1999999096871MD1710251+0511REMSYN06448304 32565 10000 10265 20155 39687 40144 57025 81500 333 58051=
0169483040999992021011709004+19867+099767FM-12+040199999V0209999C000012200019N015000199+02881+01521101111ADDGA1011+008001061GE19MSL   +99999+99999GF101991011999008001999999MA1999999096591MD1710291+0481REMSYN06448304 32565 10000 10288 20152 39659 40111 57029 81500 333 58048=
0188483040999992021011712004+19867+099767FM-12+040199999V0209999C000012200019N010000199+02201+01921101311ADDGA1021+008001061GE19MSL   +99999+99999GF102991021999008001999999KA1240M+02951MA1999999096671MD1210091+0441REMSYN07048304 32560 20000 10220 20192 39667 40131 52009 82500 333 10295 58044=
0127483040999992021011715004+19867+099767FM-12+040199999V0209999C000019999999N008000199+01941+01761101571ADDAY101021AY201021MA1999999096891MD1210211+0411MW1101REMSYN06448304 31958 00000 10194 20176 39689 40157 52021 71000 333 58041=
0197483040999992021011718004+19867+099767FM-12+040199999V0209999C000012200019N008000199+01881+01751101661ADDAY101021AY201021GA1021+008001061GE19MSL   +99999+99999GF102991021999008001999999MA1999999096961MD1210081+0441MW1101REMSYN07048304 31558 20000 10188 20175 39696 40166 52008 71000 82500 333 58044=
0229483040999992021011721004+19867+099767FM-12+040199999V0209999C000019999999N007000199+01841+01721101711ADDAY111021AY211021GA1031+008001061GA2999+999999031GA3999+999999021GE19MSL   +99999+99999GF105991031999008001999999MA1999999097001MD1210041+0401MW1101REMSYN07048304 31557 50000 10184 20172 39700 40171 52004 71011 83546 333 58040=
0232483040999992021011800004+19867+099767FM-12+040199999V0200201N001019999999N007000199+01911+01661101851ADDAY111021AY211021GA1061+008001061GA2999+999999031GE19MSL   +99999+99999GF108991061999008001999999KA1120N+01821MA1999999097151MD1210151+0161MW1101REMSYN07648304 31557 80202 10191 20166 39715 40185 52015 71011 8657/ 333 20182 58016=
0185483040999992021011803004+19867+099767FM-12+040199999V0209999C000019999999N010000199+01911+01461102111ADDGA1061+008001061GA2999+999999031GE19MSL   +99999+99999GF108991061999008001999999MA1999999097401MD1210251+0291REMSYN06448304 32560 80000 10191 20146 39740 40211 52025 8657/ 333 58029=
0201483040999992021011806004+19867+099767FM-12+040199999V0201101N001019999999N015000199+02311+01391101741ADDGA1021+008001061GA2999+999999031GA3999+999999021GE19MSL   +99999+99999GF107991021999008001999999MA1999999097111MD1710291+0301REMSYN06448304 32565 71102 10231 20139 39711 40174 57029 82536 333 58030=
0201483040999992021011809004+19867+099767FM-12+040199999V0203601N001519999999N015000199+02311+01471101451ADDGA1021+008001061GA2999+999999031GA3999+999999021GE19MSL   +99999+99999GF107991021999008001999999MA1999999096821MD1710281+0341REMSYN06448304 32565 73603 10231 20147 39682 40145 57028 82536 333 58034=
0220483040999992021011812004+19867+099767FM-12+040199999V0209999C000019999999N010000199+01901+01561101591ADDGA1031+008001061GA2999+999999031GA3999+999999021GE19MSL   +99999+99999GF106991031999008001999999KA1240M+02401MA1999999096891MD1210071+0281REMSYN07048304 32560 60000 10190 20156 39689 40159 52007 83546 333 10240 58028=
0127483040999992021011815004+19867+099767FM-12+040199999V0209999C000019999999N008000199+01621+01441101691ADDAY111021AY211021MA1999999096951MD1210051+0111MW1101REMSYN06448304 31958 00000 10162 20144 39695 40169 52005 71011 333 58011=
0127483040999992021011818004+19867+099767FM-12+040199999V0209999C000019999999N007000199+01461+01331101621ADDAY111021AY211021MA1999999096861MD1710091-0041MW1101REMSYN06448304 31957 00000 10146 20133 39686 40162 57009 71011 333 59004=
0127483040999992021011821004+19867+099767FM-12+040199999V0209999C000019999999N007000199+01371+01261101601ADDAY101021AY201021MA1999999096821MD1710031-0111MW1101REMSYN06448304 31957 00000 10137 20126 39682 40160 57003 71000 333 59011=
0204483040999992021011900004+19867+099767FM-12+040199999V0209999C000019999999N010000199+01291+01231101721ADDGA1021+008001061GA2999+999999031GE19MSL   +99999+99999GF105991021999008001999999KA1120N+01231MA1999999096921MD1210101-0131REMSYN07048304 32560 50000 10129 20123 39692 40172 52010 82540 333 20123 59013=
0099483040999992021011903004+19867+099767FM-12+040199999V0209999C000019999999N010000199+01941+01461101811ADDMA1999999097111MD1210191-0311REMSYN05848304 32960 00000 10194 20146 39711 40181 52019 333 59031=
0169483040999992021011906004+19867+099767FM-12+040199999V0201401N001012200019N012000199+02421+01461101381ADDGA1011+008001081GE19MSL   +99999+99999GF101991011999008001999999MA1999999096781MD1710331-0361REMSYN06448304 32562 11402 10242 20146 39678 40138 57033 81100 333 59036=
0169483040999992021011909004+19867+099767FM-12+040199999V0201401N002612200019N015000199+02661+01461101011ADDGA1011+008001081GE19MSL   +99999+99999GF101991011999008001999999MA1999999096461MD1710321-0431REMSYN06448304 32565 11405 10266 20146 39646 40101 57032 81100 333 59043=
0188483040999992021011912004+19867+099767FM-12+040199999V0209999C000012200019N010000199+02111+01721101141ADDGA1021+999999031GE19MSL   +99999+99999GF102991021999999999999999KA1240M+02691MA1999999096501MD1210031-0451REMSYN07048304 32960 20000 10211 20172 39650 40114 52003 82040 333 10269 59045=
0136483040999992021011915004+19870+099774FM-12+039799999V0203601N0000122000199010000199+01801+01601101391ADDAA103999999AZ101031AZ201031GA1999+030001001GE19MSL   +99999+99999GF102991999999030001999999MA1999999096681MD1210191-0301REMSYN004BUFR
0188483040999992021011918004+19867+099767FM-12+040199999V0209999C000012200019N010000199+01561+01441101361ADDGA1999+999999001GE19MSL   +99999+99999GF102991001999999999999999MA1999999096631MD1710061-0261REMSYN06448304 32960 20000 10156 20144 39663 40136 57006 80001 333 59026=EQDQ01    003SCCGA1
0098483040999992021011921004+19870+099774FM-12+039799999V0203601N0000122000199010000199+01461+01351101331ADDAA103999999AZ101031AZ201031GF100991999999999999999999MA1999999096581MD1710051-0271REMSYN004BUFR
0216483040999992021012000004+19867+099767FM-12+040199999V0209999C000012200019N006000199+01321+01251101491ADDAY101021AY201021GA1021+999999031GE19MSL   +99999+99999GF102991021999999999999999KA1120N+01231MA1999999096701MD1210121-0231MW1101REMSYN07648304 31956 20000 10132 20125 39670 40149 52012 71000 82040 333 20123 59023=
0127483040999992021012003004+19867+099767FM-12+040199999V0209999C000019999999N009000199+01921+01531101511ADDAY101021AY201021MA1999999096821MD1210121-0291MW1101REMSYN06448304 31959 00000 10192 20153 39682 40151 52012 71000 333 59029=
0098483040999992021012006004+19870+099774FM-12+039799999V0201201N0026122000199012000199+02601+01431101091ADDAA106999999AZ101061AZ201061GF100991999999999999999999MA1999999096531MD1710301-0301REMSYN004BUFR
0169483040999992021012009004+19867+099767FM-12+040199999V0202301N002112200019N015000199+02851+01361100781ADDGA1031+999999031GE19MSL   +99999+99999GF103991031999999999999999MA1999999096271MD1710261-0241REMSYN06448304 32965 32304 10285 20136 39627 40078 57026 83040 333 59024=
0136483040999992021012012004+19870+099774FM-12+039799999V0203601N0000122000199012000199+02271+01631101011ADDAA106999999AZ101061AZ201061GA1031+030001031GE19MSL   +99999+99999GF103991031999030001999999MA1999999096401MD1210141-0121REMSYN004BUFR
0098483040999992021012015004+19870+099774FM-12+039799999V0203601N0000122000199012000199+01801+01571101281ADDAA103999999AZ101031AZ201031GF100991999999999999999999MA1999999096581MD1210181-0101REMSYN004BUFR
0136483040999992021012018004+19870+099774FM-12+039799999V0203601N00001030001C9010000199+01721+01571101271ADDAA106999999AZ101061AZ201061GA1061+030001031GE19MSL   +99999+99999GF106991061999030001999999MA1999999096561MD1710021-0091REMSYN004BUFR
0188483040999992021012021004+19867+099767FM-12+040199999V0209999C000012200019N010000199+01521+01411101261ADDGA1999+999999001GE19MSL   +99999+99999GF102991001999999999999999MA1999999096521MD1710051-0081REMSYN06448304 32960 20000 10152 20141 39652 40126 57005 80001 333 59008=EQDQ01    003SCCGA1
0146483040999992021012100004+19867+099767FM-12+040199999V0209999C000019999999N004000199+01301+01211101421ADDAY111021AY211021KA1120N+01241MA1999999096641MD1210121-0071MW1101REMSYN07048304 31940 00000 10130 20121 39664 40142 52012 71011 333 20124 59007=
0127483040999992021012103004+19867+099767FM-12+040199999V0209999C000019999999N008000199+02031+01471101481ADDAY101021AY201021MA1999999096811MD1210171-0041MW1101REMSYN06448304 31958 00000 10203 20147 39681 40148 52017 71000 333 59004=
0127483040999992021012106004+19867+099767FM-12+040199999V0209999C000019999999N008000199+02701+01431100971ADDAY101021AY201021MA1999999096431MD1710381-0111MW1051REMSYN06448304 31958 00000 10270 20143 39643 40097 57038 70500 333 59011=
0099483040999992021012109004+19867+099767FM-12+040199999V0209999C000019999999N012000199+02901+01291100721ADDMA1999999096211MD1710221-0061REMSYN05848304 32962 00000 10290 20129 39621 40072 57022 333 59006=
0146483040999992021012112004+19867+099767FM-12+040199999V0209999C000019999999N008000199+02221+01631100921ADDAY101021AY201021KA1240M+02941MA1999999096301MD1210091-0101MW1101REMSYN07048304 31958 00000 10222 20163 39630 40092 52009 71000 333 10294 59010=
0127483040999992021012115004+19867+099767FM-12+040199999V0209999C000019999999N007000199+01741+01461101221ADDAY101021AY201021MA1999999096521MD1210221-0061MW1101REMSYN06448304 31957 00000 10174 20146 39652 40122 52022 71000 333 59006=
0216483040999992021012118004+19867+099767FM-12+040199999V0209999C000012200019N007000199+01641+01521101241ADDAY101021AY201021GA1999+999999021GE19MSL   +99999+99999GF102991001999999999999999MA1999999096521MD1410001-0031MW1101REMSYN07048304 31957 20000 10164 20152 39652 40124 54000 71000 80005 333 59003=EQDQ01    003SCCGA1
0127483040999992021012121004+19867+099767FM-12+040199999V0209999C000019999999N006000199+01541+01431101221ADDAY101021AY201021MA1999999096491MD1710031-0041MW1101REMSYN06448304 31956 00000 10154 20143 39649 40122 57003 71000 333 59004=
0216483040999992021012200004+19867+099767FM-12+040199999V0209999C000012200019N006000199+01331+01241101381ADDAY101021AY201021GA1011+008001061GE19MSL   +99999+99999GF101991011999008001999999KA1120N+01291MA1999999096601MD1210121-0041MW1101REMSYN07648304 31556 10000 10133 20124 39660 40138 52012 71000 81500 333 20129 59004=
0127483040999992021012203004+19867+099767FM-12+040199999V0209999C000019999999N006000199+01831+01471101481ADDAY101021AY201021MA1999999096791MD1210181+0011MW1101REMSYN06448304 31956 00000 10183 20147 39679 40148 52018 71000 333 58001=
0127483040999992021012206004+19867+099767FM-12+040199999V0209999C000019999999N006000199+02711+01571101021ADDAY101021AY201021MA1999999096481MD1710311+0051MW1051REMSYN06448304 31956 00000 10271 20157 39648 40102 57031 70500 333 58005=
0197483040999992021012209004+19867+099767FM-12+040199999V0209999C000012200019N006000199+02931+01361100691ADDAY101021AY201021GA1011+008001061GE19MSL   +99999+99999GF101991011999008001999999MA1999999096191MD1710281-0021MW1051REMSYN07048304 31556 10000 10293 20136 39619 40069 57028 70500 81500 333 59002=
0216483040999992021012212004+19867+099767FM-12+040199999V0209999C000012200019N006000199+02311+01831100901ADDAY101021AY201021GA1031+008001081GE19MSL   +99999+99999GF103991031999008001999999KA1240M+02971MA1999999096301MD1210101-0021MW1101REMSYN07648304 31556 30000 10231 20183 39630 40090 52010 71000 83100 333 10297 59002=
0213483040999992021012215004+19867+099767FM-12+040199999V0209999C000019999999N005000199+01921+01721101101ADDAY111021AY211021GA1031+008001061GA2999+999999021GE19MSL   +99999+99999GF106991031999008001999999MA1999999096431MD1210131-0121MW1101REMSYN07048304 31550 60000 10192 20172 39643 40110 52013 71011 83505 333 59012=
0158483040999992021012218004+19870+099774FM-12+039799999V0203601N0000199999999005000199+01821+01621101081ADDAA106999999AY111061AY211061GA1031+008001061GA2999+999999021GE19MSL   +99999+99999GF106991031999008001999999MA1999999096401MD1710031-0161MW1101REMSYN004BUFR
0213483040999992021012221004+19867+099767FM-12+040199999V0209999C000019999999N005000199+01731+01541101091ADDAY121021AY221021GA1031+008001061GA2999+999999021GE19MSL   +99999+99999GF106991031999008001999999MA1999999096391MD1710011-0131MW1101REMSYN07048304 31550 60000 10173 20154 39639 40109 57001 71022 83506 333 59013=
0171483040999992021012300004+19870+099774FM-12+039799999V0203601N0000199999999008000199+01621+01451101231ADDAA106999999AY121061AY221061GA1031+030001061GA2999+999999021GE19MSL   +99999+99999GF106991031999030001999999KA1120N+01581MA1999999096511MD1210121-0151MW1101REMSYN004BUFR
0188483040999992021012303004+19867+099767FM-12+040199999V0209999C000012200019N010000199+02201+01681101291ADDGA1999+999999021GE19MSL   +99999+99999GF102991001999999999999999MA1999999096661MD1210151-0191REMSYN06448304 32960 20000 10220 20168 39666 40129 52015 80005 333 59019=EQDQ01    003SCCGA1
0169483040999992021012306004+19867+099767FM-12+040199999V0202601N002612200019N012000199+02901+01491100881ADDGA1011+008001061GE19MSL   +99999+99999GF101991011999008001999999MA1999999096371MD1710291-0151REMSYN06448304 32562 12605 10290 20149 39637 40088 57029 81500 333 59015=
0099483040999992021012309004+19867+099767FM-12+040199999V0201701N002619999999N012000199+03021+01191100611ADDMA1999999096121MD1710241-0091REMSYN05848304 32962 01705 10302 20119 39612 40061 57024 333 59009=
0118483040999992021012312004+19867+099767FM-12+040199999V0209999C000019999999N010000199+02351+01651100821ADDKA1240M+03131MA1999999096241MD1210111-0071REMSYN06448304 32960 00000 10235 20165 39624 40082 52011 333 10313 59007=
0169483040999992021012315004+19867+099767FM-12+040199999V0209999C000012200019N010000199+01851+01601101101ADDGA1021+008001061GE19MSL   +99999+99999GF102991021999008001999999MA1999999096421MD1210191+0001REMSYN06448304 32560 20000 10185 20160 39642 40110 52019 82500 333 58000=
0099483040999992021012318004+19867+099767FM-12+040199999V0209999C000019999999N010000199+01651+01381101151ADDMA1999999096441MD1210021+0071REMSYN05848304 32960 00000 10165 20138 39644 40115 52002 333 58007=
0099483040999992021012321004+19867+099767FM-12+040199999V0209999C000019999999N010000199+01401+01211101191ADDMA1999999096431MD1710011+0101REMSYN05848304 32960 00000 10140 20121 39643 40119 57001 333 58010=
0118483040999992021012400004+19867+099767FM-12+040199999V0209999C000019999999N010000199+01251+01151101391ADDKA1120N+01151MA1999999096601MD1210171+0161REMSYN06448304 32960 00000 10125 20115 39660 40139 52017 333 20115 58016=
0099483040999992021012403004+19867+099767FM-12+040199999V0209999C000019999999N012000199+02021+01421101471ADDMA1999999096801MD1210201+0171REMSYN05848304 32962 00000 10202 20142 39680 40147 52020 333 58017=
0098483040999992021012406004+19870+099774FM-12+039799999V0202701N0036122000199012000199+02951+01001101041ADDAA106999999AZ101061AZ201061GF100991999999999999999999MA1999999096531MD1710261+0171REMSYN004BUFR
0099483040999992021012409004+19867+099767FM-12+040199999V0201501N002119999999N012000199+03101+01041100761ADDMA1999999096291MD1710251+0161REMSYN05848304 32962 01504 10310 20104 39629 40076 57025 333 58016=
0118483040999992021012412004+19867+099767FM-12+040199999V0209999C000019999999N010000199+02501+01601100911ADDKA1240M+03261MA1999999096341MD1210051+0081REMSYN06448304 32960 00000 10250 20160 39634 40091 52005 333 10326 58008=
0127483040999992021012415004+19867+099767FM-12+040199999V0209999C000019999999N008000199+01851+01471101181ADDAY101021AY201021MA1999999096491MD1210161+0081MW1101REMSYN06448304 31958 00000 10185 20147 39649 40118 52016 71000 333 58008=
0127483040999992021012418004+19867+099767FM-12+040199999V0209999C000019999999N007000199+01581+01381101281ADDAY101021AY201021MA1999999096551MD1210061+0131MW1101REMSYN06448304 31957 00000 10158 20138 39655 40128 52006 71000 333 58013=
0127483040999992021012421004+19867+099767FM-12+040199999V0209999C000019999999N007000199+01401+01251101281ADDAY101021AY201021MA1999999096521MD1710041+0091MW1101REMSYN06448304 31957 00000 10140 20125 39652 40128 57004 71000 333 58009=
0235483040999992021012500004+19867+099767FM-12+040199999V0209999C000012200019N006000199+01161+01061101481ADDAY101021AY201021GA1999+999999001GE19MSL   +99999+99999GF101991001999999999999999KA1120N+01111MA1999999096681MD1210161+0101MW1101REMSYN07648304 31956 10000 10116 20106 39668 40148 52016 71000 80001 333 20111 58010=EQDQ01    003SCCGA1
0127483040999992021012503004+19867+099767FM-12+040199999V0209999C000019999999N006000199+02051+01451101571ADDAY101021AY201021MA1999999096901MD1210231+0111MW1101REMSYN06448304 31956 00000 10205 20145 39690 40157 52023 71000 333 58011=
0127483040999992021012506004+19867+099767FM-12+040199999V0209999C000019999999N007000199+02811+01531101161ADDAY101021AY201021MA1999999096621MD1710281+0111MW1051REMSYN06448304 31957 00000 10281 20153 39662 40116 57028 70500 333 58011=
0127483040999992021012509004+19867+099767FM-12+040199999V0209999C000019999999N006000199+03161+01551100821ADDAY101021AY201021MA1999999096351MD1710271+0061MW1051REMSYN06448304 31956 00000 10316 20155 39635 40082 57027 70500 333 58006=
0146483040999992021012512004+19867+099767FM-12+040199999V0209999C000019999999N006000199+02411+01871100991ADDAY101021AY201021KA1240M+03171MA1999999096401MD1210051+0091MW1101REMSYN07048304 31956 00000 10241 20187 39640 40099 52005 71000 333 10317 58009=
0127483040999992021012515004+19867+099767FM-12+040199999V0209999C000019999999N006000199+01951+01601101181ADDAY101021AY201021MA1999999096511MD1210111+0001MW1101REMSYN06448304 31956 00000 10195 20160 39651 40118 52011 71000 333 58000=
0104483040999992021012518004+19870+099774FM-12+039799999V0203601N0000122000199004000199+01671+01511101271ADDAA106999999AY101061AY201061GF100991999999999999999999MA1999999096561MD1210051-0011MW1101REMSYN004BUFR
0127483040999992021012521004+19867+099767FM-12+040199999V0209999C000019999999N004000199+01501+01371101251ADDAY101021AY201021MA1999999096511MD1710051-0031MW1101REMSYN06448304 31940 00000 10150 20137 39651 40125 57005 71000 333 59003=
0117483040999992021012600004+19870+099774FM-12+039799999V0203601N0000122000199003000199+01301+01211101461ADDAA106999999AY101061AY201061GF100991999999999999999999KA1120N+01241MA1999999096681MD1210171-0021MW1101REMSYN004BUFR
0127483040999992021012603004+19867+099767FM-12+040199999V0209999C000019999999N008000199+02051+01541101511ADDAY101021AY201021MA1999999096851MD1210171-0061MW1101REMSYN06448304 31958 00000 10205 20154 39685 40151 52017 71000 333 59006=
0098483040999992021012606004+19870+099774FM-12+039799999V0203601N0000122000199012000199+02851+01651101061ADDAA106999999AZ101061AZ201061GF100991999999999999999999MA1999999096531MD1710311-0101REMSYN004BUFR
0127483040999992021012609004+19867+099767FM-12+040199999V0209999C000019999999N008000199+03151+01641100701ADDAY101021AY201021MA1999999096241MD1710301-0121MW1051REMSYN06448304 31958 00000 10315 20164 39624 40070 57030 70500 333 59012=
0104483040999992021012612004+19870+099774FM-12+039799999V0203601N0000122000199006000199+02401+01791100831ADDAA106999999AY101061AY201061GF100991999999999999999999MA1999999096251MD1210011-0161MW1101REMSYN004BUFR
0104483040999992021012615004+19870+099774FM-12+039799999V0203601N0000122000199006000199+02001+01641101101ADDAA103999999AY101031AY201031GF100991999999999999999999MA1999999096441MD1210191-0081MW1101REMSYN004BUFR
0104483040999992021012618004+19870+099774FM-12+039799999V0203601N0000122000199006000199+01751+01601101181ADDAA106999999AY101061AY201061GF100991999999999999999999MA1999999096481MD1210041-0101MW1101REMSYN004BUFR
0127483040999992021012621004+19867+099767FM-12+040199999V0209999C000019999999N004000199+01591+01471101151ADDAY101021AY201021MA1999999096431MD1710051-0101MW1101REMSYN06448304 31940 00000 10159 20147 39643 40115 57005 71000 333 59010=
0117483040999992021012700004+19870+099774FM-12+039799999V0203601N0000122000199002000199+01401+01311101371ADDAA106999999AY101061AY201061GF100991999999999999999999KA1120N+01351MA1999999096611MD1210181-0091MW1101REMSYN004BUFR
0104483040999992021012703004+19870+099774FM-12+039799999V0203601N0000122000199004000199+01901+01651101471ADDAA103999999AY101031AY201031GF100991999999999999999999MA1999999096781MD1210181-0041MW1101REMSYN004BUFR
0104483040999992021012706004+19870+099774FM-12+039799999V0203601N0000122000199005000199+02901+01801101011ADDAA106999999AY101061AY201061GF100991999999999999999999MA1999999096491MD1710291-0051MW1051REMSYN004BUFR
0127483040999992021012709004+19867+099767FM-12+040199999V0209999C000019999999N008000199+03201+01711100711ADDAY101021AY201021MA1999999096251MD1710241+0011MW1051REMSYN06448304 31958 00000 10320 20171 39625 40071 57024 70500 333 58001=
0104483040999992021012712004+19870+099774FM-12+039799999V0203601N0000122000199008000199+02551+01961100881ADDAA106999999AY101061AY201061GF100991999999999999999999MA1999999096321MD1210071+0051MW1101REMSYN004BUFR
0127483040999992021012715004+19867+099767FM-12+040199999V0209999C000019999999N006000199+02081+01751101231ADDAY101021AY201021MA1999999096591MD1210261+0131MW1101REMSYN06448304 31956 00000 10208 20175 39659 40123 52026 71000 333 58013=
0104483040999992021012718004+19870+099774FM-12+039799999V0203601N0000122000199006000199+01851+01711101331ADDAA106999999AY101061AY201061GF100991999999999999999999MA1999999096641MD1210051+0151MW1101REMSYN004BUFR
0127483040999992021012721004+19867+099767FM-12+040199999V0209999C000019999999N004000199+01661+01541101341ADDAY101021AY201021MA1999999096621MD1710021+0191MW1101REMSYN06448304 31940 00000 10166 20154 39662 40134 57002 71000 333 58019=
0117483040999992021012800004+19870+099774FM-12+039799999V0203601N0000122000199002000199+01501+01411101561ADDAA106999999AY101061AY201061GF100991999999999999999999KA1120N+01441MA1999999096801MD1210181+0191MW1101REMSYN004BUFR
0127483040999992021012803004+19867+099767FM-12+040199999V0209999C000019999999N004000199+02201+01731101641ADDAY101021AY201021MA1999999096991MD1210181+0161MW1101REMSYN06448304 31940 00000 10220 20173 39699 40164 52018 71000 333 58016=
0104483040999992021012806004+19870+099774FM-12+039799999V0203601N0000122000199004000199+02921+01801101281ADDAA106999999AY101061AY201061GF100991999999999999999999MA1999999096761MD1710231+0271MW1051REMSYN004BUFR
0127483040999992021012809004+19867+099767FM-12+040199999V0209999C000019999999N006000199+03211+01761100911ADDAY101021AY201021MA1999999096451MD1710311+0201MW1051REMSYN06448304 31956 00000 10321 20176 39645 40091 57031 70500 333 58020=
0104483040999992021012812004+19870+099774FM-12+039799999V0203601N0000122000199004000199+02521+01861101051ADDAA106999999AY101061AY201061GF100991999999999999999999MA1999999096471MD1210021+0161MW1101REMSYN004BUFR
0104483040999992021012815004+19870+099774FM-12+039799999V0203601N0000122000199004000199+02051+01731101271ADDAA103999999AY101031AY201031GF100991999999999999999999MA1999999096611MD1210141+0031MW1101REMSYN004BUFR
0127483040999992021012818004+19867+099767FM-12+040199999V0209999C000019999999N004000199+01851+01681101311ADDAY101021AY201021MA1999999096621MD1210011-0021MW1101REMSYN06448304 31940 00000 10185 20168 39662 40131 52001 71000 333 59002=
0127483040999992021012821004+19867+099767FM-12+040199999V0209999C000019999999N004000199+01721+01601101351ADDAY101021AY201021MA1999999096641MD1210021+0001MW1101REMSYN06448304 31940 00000 10172 20160 39664 40135 52002 71000 333 58000=
0216483040999992021012900004+19867+099767FM-12+040199999V0209999C000012200019N004000199+01581+01491101531ADDAY101021AY201021GA1021+008001061GE19MSL   +99999+99999GF102991021999008001999999KA1120N+01561MA1999999096791MD1210151-0021MW1101REMSYN07648304 31540 20000 10158 20149 39679 40153 52015 71000 82500 333 20156 59002=
0127483040999992021012903004+19867+099767FM-12+040199999V0209999C000019999999N004000199+02071+01731101661ADDAY101021AY201021MA1999999096991MD1210201+0021MW1101REMSYN06448304 31940 00000 10207 20173 39699 40166 52020 71000 333 58002=
0127483040999992021012906004+19867+099767FM-12+040199999V0202301N001019999999N005000199+02891+01751101261ADDAY101021AY201021MA1999999096731MD1710261-0021MW1051REMSYN06448304 31950 02302 10289 20175 39673 40126 57026 70500 333 59002=
0197483040999992021012909004+19867+099767FM-12+040199999V0209999C000012200019N004000199+03071+01901100871ADDAY101021AY201021GA1011+008001081GE19MSL   +99999+99999GF101991011999008001999999MA1999999096391MD1710341-0041MW1051REMSYN07048304 31540 10000 10307 20190 39639 40087 57034 70500 81100 333 59004=
0248483040999992021012912004+19867+099767FM-12+040199999V0209999C000019999999N004000199+02611+01941100991ADDAY111021AY211021GA1031+008001081GA2999+999999031GA3999+999999021GE19MSL   +99999+99999GF105991031999008001999999KA1240M+03221MA1999999096431MD1210051-0051MW1101REMSYN07648304 31540 50000 10261 20194 39643 40099 52005 71011 83846 333 10322 59005=
0174483040999992021012915004+19870+099774FM-12+039799999V0203601N0000199999999004000199+02221+01951101251ADDAA103999999AY121031AY221031GA1041+008001081GA2999+999999031GA3999+999999021GE19MSL   +99999+99999GF107991041999008001999999MA1999999096621MD1210191-0021MW1101REMSYN004BUFR
0229483040999992021012918004+19867+099767FM-12+040199999V0209999C000019999999N004000199+02001+01841101261ADDAY121021AY221021GA1021+008001081GA2999+999999031GA3999+999999021GE19MSL   +99999+99999GF105991021999008001999999MA1999999096601MD1710021-0051MW1101REMSYN07048304 31540 50000 10200 20184 39660 40126 57002 71022 82846 333 59005=
0230483040999992021012921004+19867+099767FM-12+040199999V0209999C000012200019N004000199+01901+01791101311ADDAA102000531AY161021AY211021GA1021+008001061GA2999+999999021GE19MSL   +99999+99999GF103991021999008001999999MA1999999096631MD1710031-0041MW1101REMSYN07648304 21540 30000 10190 20179 39663 40131 57003 71061 82505 333 59004 69956=
0209483040999992021013000004+19870+099774FM-12+039799999V0203601N00001008001C9008000199+01821+01701101381ADDAA101999999AA224999999AA324999999AY161061AY211061GA1051+008001061GA2999+999999031GA3999+999999021GE19MSL   +99999+99999GF108991051999008001999999KA1120N+01741MA1999999096681MD1210051-0161MW1211REMSYN004BUFR
0229483040999992021013003004+19867+099767FM-12+040199999V0209999C000019999999N008000199+02251+01941101541ADDAY121021AY221021GA1031+008001061GA2999+999999031GA3999+999999021GE19MSL   +99999+99999GF106991031999008001999999MA1999999096911MD1210231-0111MW1101REMSYN07048304 31558 60000 10225 20194 39691 40154 52023 71022 83575 333 59011=
0169483040999992021013006004+19870+099774FM-12+039799999V0203601N0000122000199012000199+02801+01871101211ADDAA106999999AA224999999AY161061AY211061GA1021+008001061GA2999+999999031GE19MSL   +99999+99999GF104991021999008001999999MA1999999096671MD1710241-0051MW1011REMSYN004BUFR
0174483040999992021013009004+19870+099774FM-12+039799999V0202301N0015199999999010000199+02871+01821100831ADDAA103999999AY111031AY211031GA1041+008001091GA2999+999999031GA3999+999999021GE19MSL   +99999+99999GF108991041999008001999999MA1999999096321MD1710351-0041MW1171REMSYN004BUFR
0196483040999992021013012004+19870+099774FM-12+039799999V0203601N0000199999999010000199+02071+01961101201ADDAA103004031AA212004032AA324003832AY191061AY211061GA1041+008001061GA2999+999999031GA3999+999999021GE19MSL   +99999+99999GF107991041999008001999999MA1999999096551MD1210231+0201MW1011REMSYN004BUFR
0213483040999992021013015004+19867+099767FM-12+040199999V0209999C000019999999N006000199+01981+01881101381ADDAY121021AY221021GA1051+008001061GA2999+999999031GE19MSL   +99999+99999GF108991051999008001999999MA1999999096711MD1210161+0131MW1101REMSYN07048304 31556 80000 10198 20188 39671 40138 52016 71022 8557/ 333 58013=
0230483040999992021013018004+19867+099767FM-12+040199999V0209999C000019999999N004000199+01851+01771101491ADDAA124003831AY121021AY221021GA1051+008001061GA2999+999999031GE19MSL   +99999+99999GF108991051999008001999999MA1999999096801MD1210091+0161MW1101REMSYN07648304 31540 80000 10185 20177 39680 40149 52009 71022 8557/ 333 58016 70038=
0174483040999992021013021004+19870+099774FM-12+039799999V0203601N00001008001C9004000199+01801+01721101381ADDAA103999999AY121031AY221031GA1051+008001061GA2999+999999031GA3999+999999101GE19MSL   +99999+99999GF108991051999008001999999MA1999999096681MD1710121+0071MW1101REMSYN004BUFR
0198483040999992021013100004+19870+099774FM-12+039799999V0203601N00001008001C9006000199+01771+01701101551ADDAA106999999AA224003831AY121061AY221061GA1051+008001061GA2999+999999031GA3999+999999101GE19MSL   +99999+99999GF108991051999008001999999KA1120N+01661MA1999999096841MD1210161+0171MW1101REMSYN004BUFR
0213483040999992021013103004+19867+099767FM-12+040199999V0209999C000019999999N008000199+02121+01931101651ADDAY121021AY221021GA1031+008001061GA2999+999999021GE19MSL   +99999+99999GF106991031999008001999999MA1999999096991MD1210151+0111MW1101REMSYN07048304 31558 60000 10212 20193 39699 40165 52015 71022 83505 333 58011=
0147483040999992021013106004+19870+099774FM-12+039799999V0201201N0021122000199010000199+02651+01941101321ADDAA106999999AA224003831AZ101061AZ201061GA1031+008001061GE19MSL   +99999+99999GF103991031999008001999999MA1999999096751MD1710241+0111REMSYN004BUFR
0168483040999992021013109004+19870+099774FM-12+039799999V0203601N0000199999999012000199+02771+02051100991ADDAA103999999AZ101031AZ201031GA1031+008001081GA2999+999999031GA3999+999999021GE19MSL   +99999+99999GF106991031999008001999999MA1999999096451MD1710291+0161REMSYN004BUFR
0136483040999992021013112004+19870+099774FM-12+039799999V0203601N0000122000199012000199+02501+02041101101ADDAA106999999AZ101061AZ201061GA1021+008001061GE19MSL   +99999+99999GF102991021999008001999999MA1999999096521MD1210071-0091REMSYN004BUFR
0169483040999992021013115004+19867+099767FM-12+040199999V0209999C000012200019N010000199+02041+01851101421ADDGA1021+999999031GE19MSL   +99999+99999GF102991021999999999999999MA1999999096761MD1210231+0041REMSYN06448304 32960 20000 10204 20185 39676 40142 52023 82040 333 58004=
0127483040999992021013118004+19867+099767FM-12+040199999V0209999C000019999999N008000199+01841+01711101521ADDAY101021AY201021MA1999999096821MD1210071+0031MW1101REMSYN06448304 31958 00000 10184 20171 39682 40152 52007 71000 333 58003=
0174483040999992021013121004+19870+099774FM-12+039799999V0203601N0000199999999008000199+01761+01661101481ADDAA103999999AY111031AY211031GA1031+008001061GA2999+999999031GA3999+999999021GE19MSL   +99999+99999GF105991031999008001999999MA1999999096771MD1710051+0101MW1101REMSYN004BUFR
0235483040999992021020100004+19867+099767FM-12+040199999V0209999C000012200019N006000199+01611+01521101621ADDAY111021AY211021GA1999+999999021GE19MSL   +99999+99999GF102991001999999999999999KA1120N+01561MA1999999096881MD1210111+0081MW1101REMSYN07648304 31956 20000 10161 20152 39688 40162 52011 71011 80005 333 20156 58008=EQDQ01    003SCCGA1
0127483040999992021020103004+19867+099767FM-12+040199999V0209999C000019999999N005000199+02221+01851101711ADDAY101021AY201021MA1999999097061MD1210181+0061MW1101REMSYN06448304 31950 00000 10222 20185 39706 40171 52018 71000 333 58006=
0197483040999992021020106004+19867+099767FM-12+040199999V0201301N001512200019N006000199+02871+01881101311ADDAY101021AY201021GA1021+008001081GE19MSL   +99999+99999GF102991021999008001999999MA1999999096771MD1710291-0011MW1051REMSYN07048304 31556 21303 10287 20188 39677 40131 57029 70500 82200 333 59001=
0197483040999992021020109004+19867+099767FM-12+040199999V0202301N002612200019N007000199+03121+01491100981ADDAY101021AY201021GA1021+008001081GE19MSL   +99999+99999GF102991021999008001999999MA1999999096501MD1710281-0011MW1051REMSYN07048304 31557 22305 10312 20149 39650 40098 57028 70500 82200 333 59001=
0146483040999992021020112004+19867+099767FM-12+040199999V0209999C000019999999N006000199+02491+01931101101ADDAY101021AY201021KA1240M+03161MA1999999096521MD1210021+0001MW1101REMSYN07048304 31956 00000 10249 20193 39652 40110 52002 71000 333 10316 58000=
0127483040999992021020115004+19867+099767FM-12+040199999V0209999C000019999999N006000199+02011+01821101341ADDAY101021AY201021MA1999999096681MD1210161-0081MW1101REMSYN06448304 31956 00000 10201 20182 39668 40134 52016 71000 333 59008=
0104483040999992021020118004+19870+099774FM-12+039799999V0203601N0000122000199006000199+01751+01601101421ADDAA106999999AY101061AY201061GF100991999999999999999999MA1999999096711MD1210041-0101MW1101REMSYN004BUFR
0127483040999992021020121004+19867+099767FM-12+040199999V0209999C000019999999N004000199+01671+01551101411ADDAY101021AY201021MA1999999096691MD1710031-0071MW1101REMSYN06448304 31940 00000 10167 20155 39669 40141 57003 71000 333 59007=
0146483040999992021020200004+19867+099767FM-12+040199999V0209999C000019999999N006000199+01421+01371101631ADDAY101021AY201021KA1120N+01381MA1999999096861MD1210171+0011MW1101REMSYN07048304 31956 00000 10142 20137 39686 40163 52017 71000 333 20138 58001=
0104483040999992021020203004+19870+099774FM-12+039799999V0203601N0000122000199008000199+02251+01661101691ADDAA103999999AY101031AY201031GF100991999999999999999999MA1999999097041MD1210181-0021MW1101REMSYN004BUFR
0136483040999992021020206004+19870+099774FM-12+039799999V0200601N0026122000199015000199+02871+01531101251ADDAA106999999AZ101061AZ201061GA1021+012501061GE19MSL   +99999+99999GF102991021999012501999999MA1999999096721MD1710331-0061REMSYN004BUFR
0169483040999992021020209004+19867+099767FM-12+040199999V0202701N001512200019N015000199+03201+01021100921ADDGA1021+012501061GE19MSL   +99999+99999GF102991021999012501999999MA1999999096461MD1710261-0061REMSYN06448304 32665 22703 10320 20102 39646 40092 57026 82500 333 59006=
0098483040999992021020212004+19870+099774FM-12+039799999V0203601N0000122000199012000199+02371+01681101111ADDAA106999999AZ101061AZ201061GF100991999999999999999999MA1999999096511MD1210061+0011REMSYN004BUFR
0099483040999992021020215004+19867+099767FM-12+040199999V0209999C000019999999N010000199+01841+01591101381ADDMA1999999096691MD1210171+0041REMSYN05848304 32960 00000 10184 20159 39669 40138 52017 333 58004=
0127483040999992021020218004+19867+099767FM-12+040199999V0209999C000019999999N008000199+01741+01591101461ADDAY101021AY201021MA1999999096751MD1210061+0041MW1101REMSYN06448304 31958 00000 10174 20159 39675 40146 52006 71000 333 58004=
0127483040999992021020221004+19867+099767FM-12+040199999V0209999C000019999999N006000199+01601+01501101451ADDAY101021AY201021MA1999999096711MD1710041+0041MW1101REMSYN06448304 31956 00000 10160 20150 39671 40145 57004 71000 333 58004=
0216483040999992021020300004+19867+099767FM-12+040199999V0209999C000012200019N006000199+01311+01221101661ADDAY101021AY201021GA1011+008001061GE19MSL   +99999+99999GF101991011999008001999999KA1120N+01261MA1999999096871MD1210161+0031MW1101REMSYN07648304 31556 10000 10131 20122 39687 40166 52016 71000 81500 333 20126 58003=
0099483040999992021020303004+19867+099767FM-12+040199999V0209999C000019999999N012000199+02131+01431101701ADDMA1999999097041MD1210171+0021REMSYN05848304 32962 00000 10213 20143 39704 40170 52017 333 58002=
0169483040999992021020306004+19867+099767FM-12+040199999V0201101N004112200019N015000199+02861+01501101271ADDGA1011+008001081GE19MSL   +99999+99999GF101991011999008001999999MA1999999096741MD1710301+0021REMSYN06448304 32565 11108 10286 20150 39674 40127 57030 81100 333 58002=
0099483040999992021020309004+19867+099767FM-12+040199999V0200301N003119999999N015000199+03141+01521100971ADDMA1999999096491MD1710241+0051REMSYN05848304 32965 00306 10314 20152 39649 40097 57024 333 58005=
0118483040999992021020312004+19867+099767FM-12+040199999V0209999C000019999999N010000199+02471+01911101141ADDKA1240M+03161MA1999999096551MD1210061+0021REMSYN06448304 32960 00000 10247 20191 39655 40114 52006 333 10316 58002=
0099483040999992021020315004+19867+099767FM-12+040199999V0209999C000019999999N010000199+01861+01611101481ADDMA1999999096791MD1210241+0111REMSYN05848304 32960 00000 10186 20161 39679 40148 52024 333 58011=
0127483040999992021020318004+19867+099767FM-12+040199999V0209999C000019999999N008000199+01681+01541101551ADDAY101021AY201021MA1999999096821MD1210031+0091MW1101REMSYN06448304 31958 00000 10168 20154 39682 40155 52003 71000 333 58009=
0127483040999992021020321004+19867+099767FM-12+040199999V0209999C000019999999N007000199+01541+01431101551ADDAY101021AY201021MA1999999096811MD1710021+0111MW1101REMSYN06448304 31957 00000 10154 20143 39681 40155 57002 71000 333 58011=
0146483040999992021020400004+19867+099767FM-12+040199999V0209999C000019999999N007000199+01441+01371101741ADDAY101021AY201021KA1120N+01371MA1999999096971MD1210161+0081MW1101REMSYN07048304 31957 00000 10144 20137 39697 40174 52016 71000 333 20137 58008=
0201483040999992021020403004+19867+099767FM-12+040199999V0209999C000012200019N010000199+02061+01541101831ADDGA1011+008001081GA2999+999999031GA3999+999999021GE19MSL   +99999+99999GF102991011999008001999999MA1999999097151MD1210181+0131REMSYN06448304 32560 20000 10206 20154 39715 40183 52018 81145 333 58013=
0169483040999992021020406004+19867+099767FM-12+040199999V0209999C000012200019N010000199+02821+01591101381ADDGA1011+008001081GE19MSL   +99999+99999GF101991011999008001999999MA1999999096841MD1710311+0111REMSYN06448304 32560 10000 10282 20159 39684 40138 57031 81100 333 58011=
0169483040999992021020409004+19867+099767FM-12+040199999V0200701N001512200019N010000199+03111+01591101031ADDGA1021+008001081GE19MSL   +99999+99999GF102991021999008001999999MA1999999096541MD1710301+0051REMSYN06448304 32560 20703 10311 20159 39654 40103 57030 82100 333 58005=
0188483040999992021020412004+19867+099767FM-12+040199999V0209999C000012200019N010000199+02511+01971101171ADDGA1011+008001061GE19MSL   +99999+99999GF101991011999008001999999KA1240M+03151MA1999999096591MD1210051+0041REMSYN07048304 32560 10000 10251 20197 39659 40117 52005 81500 333 10315 58004=
0098483040999992021020415004+19870+099774FM-12+039799999V0203601N0000122000199010000199+02071+01831101421ADDAA103999999AZ101031AZ201031GF100991999999999999999999MA1999999096761MD1210171-0061REMSYN004BUFR
0099483040999992021020418004+19867+099767FM-12+040199999V0209999C000019999999N010000199+01861+01731101451ADDMA1999999096761MD1410001-0101REMSYN05848304 32960 00000 10186 20173 39676 40145 54000 333 59010=
0098483040999992021020421004+19870+099774FM-12+039799999V0203601N0000122000199010000199+01701+01561101441ADDAA103999999AZ101031AZ201031GF100991999999999999999999MA1999999096721MD1710041-0111REMSYN004BUFR
0155483040999992021020500004+19870+099774FM-12+039799999V0203601N0000122000199006000199+01501+01411101641ADDAA106999999AY101061AY201061GA1999+030001001GE19MSL   +99999+99999GF102991999999030001999999KA1120N+01361MA1999999096881MD1210161-0101MW1101REMSYN004BUFR
0127483040999992021020503004+19867+099767FM-12+040199999V0209999C000019999999N008000199+02141+01681101701ADDAY101021AY201021MA1999999097041MD1210161-0131MW1101REMSYN06448304 31958 00000 10214 20168 39704 40170 52016 71000 333 59013=
0127483040999992021020506004+19867+099767FM-12+040199999V0209999C000019999999N008000199+02861+01601101341ADDAY101021AY201021MA1999999096801MD1710241-0051MW1051REMSYN06448304 31958 00000 10286 20160 39680 40134 57024 70500 333 59005=
0142483040999992021020509004+19870+099774FM-12+039799999V0203601N0000122000199008000199+03101+01691100911ADDAA103999999AY101031AY201031GA1011+012501061GE19MSL   +99999+99999GF101991011999012501999999MA1999999096431MD1710371-0111MW1051REMSYN004BUFR
0104483040999992021020512004+19870+099774FM-12+039799999V0203601N0000122000199008000199+02561+01921101021ADDAA106999999AY101061AY201061GF100991999999999999999999MA1999999096461MD1210031-0151MW1101REMSYN004BUFR
0127483040999992021020515004+19867+099767FM-12+040199999V0209999C000019999999N006000199+02021+01791101301ADDAY101021AY201021MA1999999096641MD1210181-0121MW1101REMSYN06448304 31956 00000 10202 20179 39664 40130 52018 71000 333 59012=
0104483040999992021020518004+19870+099774FM-12+039799999V0203601N0000122000199006000199+01801+01601101331ADDAA106999999AY101061AY201061GF100991999999999999999999MA1999999096631MD1710011-0131MW1101REMSYN004BUFR
0127483040999992021020521004+19867+099767FM-12+040199999V0209999C000019999999N006000199+01701+01531101291ADDAY101021AY201021MA1999999096581MD1710051-0151MW1101REMSYN06448304 31956 00000 10170 20153 39658 40129 57005 71000 333 59015=
0149483040999992021020600004+19870+099774FM-12+039799999V0203601N0000122000199010000199+01601+01481101421ADDAA106999999AZ101061AZ201061GA1999+030001021GE19MSL   +99999+99999GF102991999999030001999999KA1120N+01541MA1999999096691MD1210111-0221REMSYN004BUFR
0099483040999992021020603004+19867+099767FM-12+040199999V0209999C000019999999N010000199+02121+01761101541ADDMA1999999096881MD1210201-0161REMSYN05848304 32960 00000 10212 20176 39688 40154 52020 333 59016=
0098483040999992021020606004+19870+099774FM-12+039799999V0203601N0000122000199010000199+02871+01731101091ADDAA106999999AZ101061AZ201061GF100991999999999999999999MA1999999096571MD1710311-0241REMSYN004BUFR
0185483040999992021020609004+19867+099767FM-12+040199999V0209999C000012200019N010000199+03121+01661100771ADDGA1011+008001061GA2999+999999021GE19MSL   +99999+99999GF103991011999008001999999MA1999999096301MD1710271-0141REMSYN06448304 32560 30000 10312 20166 39630 40077 57027 81505 333 59014=
0118483040999992021020612004+19867+099767FM-12+040199999V0209999C000019999999N010000199+02641+02051100891ADDKA1240M+03201MA1999999096351MD1210051-0131REMSYN06448304 32960 00000 10264 20205 39635 40089 52005 333 10320 59013=
0127483040999992021020615004+19867+099767FM-12+040199999V0209999C000019999999N006000199+02051+01841101171ADDAY101021AY201021MA1999999096521MD1210171-0131MW1101REMSYN06448304 31956 00000 10205 20184 39652 40117 52017 71000 333 59013=
0127483040999992021020618004+19867+099767FM-12+040199999V0209999C000019999999N006000199+01951+01791101161ADDAY101021AY201021MA1999999096491MD1710031-0171MW1101REMSYN06448304 31956 00000 10195 20179 39649 40116 57003 71000 333 59017=
0158483040999992021020621004+19870+099774FM-12+039799999V0203601N0000122000199006000199+01851+01721101101ADDAA103999999AY101031AY201031GA1031+008001061GA2999+999999021GE19MSL   +99999+99999GF104991031999008001999999MA1999999096431MD1710071-0191MW1101REMSYN004BUFR
0181483040999992021020700004+19870+099774FM-12+039799999V0203601N00001008001C9010000199+01751+01671101281ADDAA106999999AZ101061AZ201061GA1051+008001081GA2999+999999031GA3999+999999101GE19MSL   +99999+99999GF108991051999008001999999KA1120N+01661MA1999999096581MD1210151-0141REMSYN004BUFR
0201483040999992021020703004+19867+099767FM-12+040199999V0209999C000019999999N010000199+02281+01831101381ADDGA1041+008001061GA2999+999999031GA3999+999999021GE19MSL   +99999+99999GF107991041999008001999999MA1999999096751MD1210181-0161REMSYN06448304 32560 70000 10228 20183 39675 40138 52018 84576 333 59016=
0201483040999992021020706004+19867+099767FM-12+040199999V0209999C000019999999N012000199+03001+01801100971ADDGA1031+008001061GA2999+999999031GA3999+999999021GE19MSL   +99999+99999GF106991031999008001999999MA1999999096471MD1710281-0121REMSYN06448304 32562 60000 10300 20180 39647 40097 57028 83575 333 59012=
0201483040999992021020709004+19867+099767FM-12+040199999V0203501N001519999999N012000199+03101+01671100701ADDGA1031+008001061GA2999+999999031GA3999+999999021GE19MSL   +99999+99999GF106991031999008001999999MA1999999096231MD1710241-0071REMSYN06448304 32562 63503 10310 20167 39623 40070 57024 83575 333 59007=
0204483040999992021020712004+19867+099767FM-12+040199999V0203401N003119999999N010000199+02601+01811100951ADDGA1051+008001081GA2999+999999031GE19MSL   +99999+99999GF108991051999008001999999KA1240M+03201MA1999999096401MD1210171+0061REMSYN07048304 32560 83406 10260 20181 39640 40095 52017 8587/ 333 10320 58006=
0174483040999992021020715004+19870+099774FM-12+039799999V0203201N00151008001C9002000199+02101+01971101421ADDAA102014031AY191031AY221031GA1061+008001091GA2999+999999031GA3999+999999101GE19MSL   +99999+99999GF108991061999008001999999MA1999999096761MD1210371+0241MW1951REMSYN004BUFR
0196483040999992021020718004+19870+099774FM-12+039799999V0203601N00001008001C9006000199+01921+01861101381ADDAA103010031AA218024031AA324024031AY191061AY221061GA1061+008001061GA2999+999999031GA3999+999999101GE19MSL   +99999+99999GF108991061999008001999999MA1999999096701MD1710061+0221MW1101REMSYN004BUFR
0174483040999992021020721004+19870+099774FM-12+039799999V0203601N00001008001C9006000199+01811+01741101241ADDAA103999999AY121031AY221031GA1051+008001061GA2999+999999031GA3999+999999021GE19MSL   +99999+99999GF108991051999008001999999MA1999999096551MD1710151+0131MW1101REMSYN004BUFR
0209483040999992021020800004+19870+099774FM-12+039799999V0203601N00001008001C9008000199+01851+01671101351ADDAA102001031AA224025032AA324025232AY161061AY221061GA1051+008001061GA2999+999999031GA3999+999999021GE19MSL   +99999+99999GF108991051999008001999999KA1120N+01801MA1999999096661MD1210121+0081MW1101REMSYN004BUFR
0174483040999992021020803004+19870+099774FM-12+039799999V0200601N00461008001C9006000199+01801+01721101591ADDAA103005031AY161031AY221031GA1051+008001091GA2999+999999031GA3999+999999021GE19MSL   +99999+99999GF108991051999008001999999MA1999999096881MD1210221+0211MW1951REMSYN004BUFR
0196483040999992021020806004+19870+099774FM-12+039799999V0200601N00361004501C9015000199+01851+01681101391ADDAA103012031AA206017031AA324042431AY191061AY261061GA1051+004501061GA2999+999999031GA3999+999999021GE19MSL   +99999+99999GF108991051999004501999999MA1999999096701MD1710181+0431MW1021REMSYN004BUFR
0246483040999992021020809004+19867+099767FM-12+040199999V0200301N004619999999N006000199+01741+01671101221ADDAA102003031AY191021AY221021GA1061+008001091GA2999+999999031GA3999+999999021GE19MSL   +99999+99999GF108991061999008001999999MA1999999096521MD1710181+0521MW1951REMSYN07648304 21556 80309 10174 20167 39652 40122 57018 79592 86976 333 58052 60036=
0283483040999992021020812004+19867+099767FM-12+040199999V0200201N001519999999N001000199+01651+01561101521ADDAA103015031AA212035031AA324060231AY191021AY291021GA1061+008001091GA2999+999999031GE19MSL   +99999+99999GF108991061999008001999999KA1240M+01931MA1999999096791MD1210271+0561MW1951REMSYN09448304 01510 80203 10165 20156 39679 40152 52027 60352 79599 8697/ 333 10193 58056 60157 70602=
0230483040999992021020815004+19867+099767FM-12+040199999V0200301N001519999999N001000199+01551+01461101671ADDAA103007031AY191021AY291021GA1061+008001091GA2999+999999031GE19MSL   +99999+99999GF108991061999008001999999MA1999999096921MD1210131+0261MW1951REMSYN07648304 21510 80303 10155 20146 39692 40167 52013 79599 8697/ 333 58026 60077=
0264483040999992021020818004+19867+099767FM-12+040199999V0203401N001019999999N003000199+01521+01431101681ADDAA103000231AA218042031AA324043631AY191021AY221021GA1061+008001061GA2999+999999031GE19MSL   +99999+99999GF108991061999008001999999MA1999999096931MD1210011+0301MW1101REMSYN08848304 01530 83402 10152 20143 39693 40168 52001 60423 71092 8657/ 333 58030 69927 70436=
0229483040999992021020821004+19867+099767FM-12+040199999V0209999C000019999999N004000199+01431+01341101591ADDAY121021AY221021GA1031+008001061GA2999+999999031GA3999+999999021GE19MSL   +99999+99999GF105991031999008001999999MA1999999096821MD1710111+0351MW1101REMSYN07048304 31540 50000 10143 20134 39682 40159 57011 71022 83546 333 58035=
0233483040999992021020900004+19867+099767FM-12+040199999V0209999C000019999999N007000199+01321+01261101681ADDAA124042431AY121021AY221021GA1051+008001061GE19MSL   +99999+99999GF105991051999008001999999KA1120N+01291MA1999999096891MD1210071+0331MW1101REMSYN08248304 31557 50000 10132 20126 39689 40168 52007 71022 85500 333 20129 58033 70424=
0169483040999992021020903004+19867+099767FM-12+040199999V0200701N001512200019N015000199+01891+01401101701ADDGA1021+008001081GE19MSL   +99999+99999GF102991021999008001999999MA1999999097001MD1210111+0111REMSYN06448304 32565 20703 10189 20140 39700 40170 52011 82800 333 58011=
0186483040999992021020906004+19867+099767FM-12+040199999V0200601N003112200019N015000199+02221+01381101381ADDAA124025231GA1021+008001081GE19MSL   +99999+99999GF102991021999008001999999MA1999999096741MD1710261-0021REMSYN07048304 32565 20606 10222 20138 39674 40138 57026 82100 333 59002 70252=
0135483040999992021020912004+19867+099767FM-12+040199999V0209999C000019999999N012000199+01941+01571101241ADDAA124007431KA1240M+02431MA1999999096571MD1210101-0271REMSYN07048304 32962 00000 10194 20157 39657 40124 52010 333 10243 59027 70074=
0099483040999992021020915004+19867+099767FM-12+040199999V0209999C000019999999N010000199+01631+01451101521ADDMA1999999096791MD1210221-0151REMSYN05848304 32960 00000 10163 20145 39679 40152 52022 333 59015=
0127483040999992021020918004+19867+099767FM-12+040199999V0209999C000019999999N008000199+01421+01311101631ADDAY101021AY201021MA1999999096861MD1210071-0061MW1101REMSYN06448304 31958 00000 10142 20131 39686 40163 52007 71000 333 59006=
0127483040999992021020921004+19867+099767FM-12+040199999V0209999C000019999999N007000199+01311+01231101521ADDAY101021AY201021MA1999999096731MD1710131-0071MW1101REMSYN06448304 31957 00000 10131 20123 39673 40152 57013 71000 333 59007=
0172483040999992021021000004+19867+099767FM-12+040199999V0209999C00001000301WN000100199+01151+01071101701ADDAY141021AY201021GF109991999999999999999999KA1120N+01101MA1999999096881MD1210151+0021MW1471REMSYN07048304 31/01 90000 10115 20107 39688 40170 52015 74740 333 20110 58002=
0197483040999992021021003004+19867+099767FM-12+040199999V0209999C000012200019N015000199+01891+01421101751ADDAY141021AY201021GA1011+008001081GE19MSL   +99999+99999GF101991011999008001999999MA1999999097051MD1210171+0051MW1011REMSYN07048304 31565 10000 10189 20142 39705 40175 52017 70140 81100 333 58005=
0197483040999992021021006004+19867+099767FM-12+040199999V0201801N001512200019N015000199+02411+01281101541ADDAY141021AY201021GA1011+008001081GE19MSL   +99999+99999GF101991011999008001999999MA1999999096921MD1710131+0161MW1011REMSYN07048304 31565 11803 10241 20128 39692 40154 57013 70140 81100 333 58016=
0099483040999992021021009004+19867+099767FM-12+040199999V0200801N001019999999N015000199+02631+01231101071ADDMA1999999096511MD1710411+0011REMSYN05848304 32965 00802 10263 20123 39651 40107 57041 333 58001=
0111483040999992021021100004+19870+099774FM-12+039799999V0203601N0000122000199012000199+01071+01031101661ADDAA106999999AZ101061AZ201061GF100991999999999999999999KA1120N+01031MA1999999096831MD1210201-0041REMSYN004BUFR
0118483040999992021021312004+19867+099767FM-12+040199999V0209999C000019999999N015000199+02701+01891100911ADDKA1240M+03201MA1999999096371MD1210021-0051REMSYN06448304 32965 00000 10270 20189 39637 40091 52002 333 10320 59005=
0099483040999992021021315004+19867+099767FM-12+040199999V0209999C000019999999N012000199+01981+01771101251ADDMA1999999096591MD1210221+0011REMSYN05848304 32962 00000 10198 20177 39659 40125 52022 333 58001=
0099483040999992021021318004+19867+099767FM-12+040199999V0209999C000019999999N012000199+01701+01531101291ADDMA1999999096581MD1710011+0001REMSYN05848304 32962 00000 10170 20153 39658 40129 57001 333 58000=
0099483040999992021021321004+19867+099767FM-12+040199999V0209999C000019999999N012000199+01601+01481101261ADDMA1999999096531MD1710051-0041REMSYN05848304 32962 00000 10160 20148 39653 40126 57005 333 59004=
0118483040999992021021400004+19867+099767FM-12+040199999V0209999C000019999999N012000199+01501+01411101421ADDKA1120N+01431MA1999999096671MD1210141-0011REMSYN06448304 32962 00000 10150 20141 39667 40142 52014 333 20143 59001=
0099483040999992021021403004+19867+099767FM-12+040199999V0209999C000019999999N012000199+02151+01741101591ADDMA1999999096941MD1210271+0051REMSYN05848304 32962 00000 10215 20174 39694 40159 52027 333 58005=
0099483040999992021021406004+19867+099767FM-12+040199999V0209999C000019999999N015000199+02851+01701101221ADDMA1999999096691MD1710251+0021REMSYN05848304 32965 00000 10285 20170 39669 40122 57025 333 58002=
0099483040999992021021409004+19867+099767FM-12+040199999V0201401N002619999999N012000199+03131+01551100811ADDMA1999999096341MD1710351-0011REMSYN05848304 32962 01405 10313 20155 39634 40081 57035 333 59001=
0188483040999992021021412004+19867+099767FM-12+040199999V0209999C000012200019N012000199+02671+01941100851ADDGA1011+008001061GE19MSL   +99999+99999GF101991011999008001999999KA1240M+03201MA1999999096301MD1710041-0061REMSYN07048304 32562 10000 10267 20194 39630 40085 57004 81500 333 10320 59006=
0099483040999992021021415004+19867+099767FM-12+040199999V0209999C000019999999N010000199+02041+01781101131ADDMA1999999096481MD1210181-0121REMSYN05848304 32960 00000 10204 20178 39648 40113 52018 333 59012=
0127483040999992021021418004+19867+099767FM-12+040199999V0209999C000019999999N008000199+01801+01671101211ADDAY101021AY201021MA1999999096521MD1210051-0081MW1101REMSYN06448304 31958 00000 10180 20167 39652 40121 52005 71000 333 59008=
0127483040999992021021421004+19867+099767FM-12+040199999V0209999C000019999999N007000199+01641+01521101211ADDAY101021AY201021MA1999999096491MD1710031-0051MW1101REMSYN06448304 31957 00000 10164 20152 39649 40121 57003 71000 333 59005=
0146483040999992021021500004+19867+099767FM-12+040199999V0209999C000019999999N005000199+01481+01411101331ADDAY101021AY201021KA1120N+01431MA1999999096581MD1210081-0091MW1101REMSYN07048304 31950 00000 10148 20141 39658 40133 52008 71000 333 20143 59009=
0127483040999992021021503004+19867+099767FM-12+040199999V0209999C000019999999N006000199+02151+01731101411ADDAY101021AY201021MA1999999096761MD1210181-0181MW1101REMSYN06448304 31956 00000 10215 20173 39676 40141 52018 71000 333 59018=
0197483040999992021021506004+19867+099767FM-12+040199999V0209999C000012200019N007000199+02921+01811100961ADDAY101021AY201021GA1011+008001081GE19MSL   +99999+99999GF101991011999008001999999MA1999999096451MD1710321-0261MW1051REMSYN07048304 31557 10000 10292 20181 39645 40096 57032 70500 81100 333 59026=
0142483040999992021021509004+19870+099774FM-12+039799999V0202001N0015122000199008000199+03151+01671100591ADDAA103999999AY101031AY201031GA1011+008001081GE19MSL   +99999+99999GF101991011999008001999999MA1999999096121MD1710321-0231MW1051REMSYN004BUFR
0146483040999992021021512004+19867+099767FM-12+040199999V0209999C000019999999N007000199+02771+01991100661ADDAY101021AY201021KA1240M+03171MA1999999096141MD1210021-0181MW1051REMSYN07048304 31957 00000 10277 20199 39614 40066 52002 70500 333 10317 59018=
0127483040999992021021515004+19867+099767FM-12+040199999V0209999C000019999999N006000199+02101+01781101001ADDAY101021AY201021MA1999999096371MD1210221-0131MW1101REMSYN06448304 31956 00000 10210 20178 39637 40100 52022 71000 333 59013=
0127483040999992021021518004+19867+099767FM-12+040199999V0209999C000019999999N006000199+01841+01711101061ADDAY101021AY201021MA1999999096381MD1210011-0161MW1101REMSYN06448304 31956 00000 10184 20171 39638 40106 52001 71000 333 59016=
0127483040999992021021521004+19867+099767FM-12+040199999V0209999C000019999999N005000199+01701+01601100991ADDAY101021AY201021MA1999999096301MD1710081-0221MW1101REMSYN06448304 31950 00000 10170 20160 39630 40099 57008 71000 333 59022=
0216483040999992021021600004+19867+099767FM-12+040199999V0209999C000012200019N004000199+01551+01461101181ADDAY101021AY201021GA1011+008001061GE19MSL   +99999+99999GF101991011999008001999999KA1120N+01511MA1999999096451MD1210161-0141MW1101REMSYN07648304 31540 10000 10155 20146 39645 40118 52016 71000 81500 333 20151 59014=
0127483040999992021021603004+19867+099767FM-12+040199999V0209999C000019999999N006000199+02231+01761101341ADDAY101021AY201021MA1999999096711MD1210251-0071MW1101REMSYN06448304 31956 00000 10223 20176 39671 40134 52025 71000 333 59007=
0197483040999992021021606004+19867+099767FM-12+040199999V0201201N002612200019N008000199+02961+01751101001ADDAY101021AY201021GA1011+008001081GE19MSL   +99999+99999GF101991011999008001999999MA1999999096491MD1710211+0041MW1051REMSYN07048304 31558 11205 10296 20175 39649 40100 57021 70500 81200 333 58004=
0197483040999992021021609004+19867+099767FM-12+040199999V0200901N001512200019N008000199+03191+01731100681ADDAY101021AY201021GA1011+008001081GE19MSL   +99999+99999GF101991011999008001999999MA1999999096221MD1710271+0091MW1051REMSYN07048304 31558 10903 10319 20173 39622 40068 57027 70500 81100 333 58009=
0216483040999992021021612004+19867+099767FM-12+040199999V0209999C000012200019N007000199+02651+02021100811ADDAY101021AY201021GA1011+008001061GE19MSL   +99999+99999GF101991011999008001999999KA1240M+03211MA1999999096271MD1210051+0151MW1101REMSYN07648304 31557 10000 10265 20202 39627 40081 52005 71000 81500 333 10321 58015=
0127483040999992021021615004+19867+099767FM-12+040199999V0209999C000019999999N006000199+02181+01831101121ADDAY101021AY201021MA1999999096491MD1210221+0121MW1101REMSYN06448304 31956 00000 10218 20183 39649 40112 52022 71000 333 58012=
0127483040999992021021618004+19867+099767FM-12+040199999V0209999C000019999999N005000199+01911+01761101191ADDAY101021AY201021MA1999999096511MD1210021+0131MW1101REMSYN06448304 31950 00000 10191 20176 39651 40119 52002 71000 333 58013=
0127483040999992021021621004+19867+099767FM-12+040199999V0209999C000019999999N004000199+01731+01611101221ADDAY101021AY201021MA1999999096521MD1210011+0231MW1101REMSYN06448304 31940 00000 10173 20161 39652 40122 52001 71000 333 58023=
0146483040999992021021700004+19867+099767FM-12+040199999V0209999C000019999999N004000199+01551+01461101471ADDAY101021AY201021KA1120N+01501MA1999999096721MD1210201+0281MW1101REMSYN07048304 31940 00000 10155 20146 39672 40147 52020 71000 333 20150 58028=
0127483040999992021021703004+19867+099767FM-12+040199999V0209999C000019999999N006000199+02251+01781101581ADDAY101021AY201021MA1999999096941MD1210221+0241MW1101REMSYN06448304 31956 00000 10225 20178 39694 40158 52022 71000 333 58024=
0127483040999992021021706004+19867+099767FM-12+040199999V0201401N002119999999N008000199+02911+01841101201ADDAY101021AY201021MA1999999096671MD1710271+0201MW1051REMSYN06448304 31958 01404 10291 20184 39667 40120 57027 70500 333 58020=
0197483040999992021021709004+19867+099767FM-12+040199999V0209999C000012200019N008000199+03251+01771100871ADDAY101021AY201021GA1021+008001081GE19MSL   +99999+99999GF102991021999008001999999MA1999999096411MD1710261+0191MW1051REMSYN07048304 31558 20000 10325 20177 39641 40087 57026 70500 82200 333 58019=
0142483040999992021021712004+19870+099774FM-12+039799999V0203601N0000122000199008000199+02671+02001101021ADDAA106999999AY101061AY201061GA1021+008001061GE19MSL   +99999+99999GF102991021999008001999999MA1999999096471MD1210051+0201MW1101REMSYN004BUFR
0158483040999992021021715004+19870+099774FM-12+039799999V0203601N0000122000199008000199+02221+01871101351ADDAA103999999AY101031AY201031GA1021+008001061GA2999+999999031GE19MSL   +99999+99999GF103991021999008001999999MA1999999096721MD1210251+0231MW1101REMSYN004BUFR
0174483040999992021021718004+19870+099774FM-12+039799999V0203601N0000199999999008000199+02151+02001101421ADDAA106999999AY111061AY211061GA1031+008001061GA2999+999999031GA3999+999999021GE19MSL   +99999+99999GF106991031999008001999999MA1999999096771MD1210051+0231MW1101REMSYN004BUFR
0142483040999992021021721004+19870+099774FM-12+039799999V0203601N0000122000199006000199+01911+01801101421ADDAA103999999AY111031AY211031GA1021+030001031GE19MSL   +99999+99999GF102991021999030001999999MA1999999096741MD1710031+0201MW1101REMSYN004BUFR
0187483040999992021021800004+19870+099774FM-12+039799999V0203601N0000199999999004000199+01801+01721101711ADDAA106999999AY111061AY211061GA1021+008001061GA2999+999999031GA3999+999999021GE19MSL   +99999+99999GF105991021999008001999999KA1120N+01761MA1999999096991MD1210251+0241MW1101REMSYN004BUFR
0229483040999992021021803004+19867+099767FM-12+040199999V0209999C000019999999N008000199+02191+01871101901ADDAY121021AY221021GA1041+008001061GA2999+999999031GA3999+999999021GE19MSL   +99999+99999GF107991041999008001999999MA1999999097241MD1210241+0321MW1101REMSYN07048304 31558 70000 10219 20187 39724 40190 52024 71022 84556 333 58032=
0229483040999992021021806004+19867+099767FM-12+040199999V0209999C000019999999N008000199+02701+01761101631ADDAY121021AY221021GA1041+008001061GA2999+999999031GA3999+999999021GE19MSL   +99999+99999GF107991041999008001999999MA1999999097061MD1710181+0441MW1051REMSYN07048304 31558 70000 10270 20176 39706 40163 57018 70522 84546 333 58044=
0213483040999992021021809004+19867+099767FM-12+040199999V0209999C000012200019N008000199+02951+01811101311ADDAY111021AY211021GA1021+008001061GA2999+999999031GE19MSL   +99999+99999GF102991021999008001999999MA1999999096791MD1710271+0441MW1051REMSYN07048304 31558 20000 10295 20181 39679 40131 57027 70511 82540 333 58044=
0232483040999992021021812004+19867+099767FM-12+040199999V0209999C000012200019N008000199+02531+01911101391ADDAY111021AY211021GA1021+008001061GA2999+999999031GE19MSL   +99999+99999GF103991021999008001999999KA1240M+02981MA1999999096801MD1210011+0371MW1101REMSYN07648304 31558 30000 10253 20191 39680 40139 52001 71011 82540 333 10298 58037=
0213483040999992021021815004+19867+099767FM-12+040199999V0209999C000012200019N007000199+02271+01891101711ADDAY101021AY201021GA1021+008001061GA2999+999999031GE19MSL   +99999+99999GF102991021999008001999999MA1999999097071MD1210271+0351MW1101REMSYN07048304 31557 20000 10227 20189 39707 40171 52027 71000 82540 333 58035=
0229483040999992021021818004+19867+099767FM-12+040199999V0209999C000012200019N006000199+02121+01931101751ADDAY101021AY201021GA1021+008001061GA2999+999999031GA3999+999999021GE19MSL   +99999+99999GF102991021999008001999999MA1999999097091MD1210021+0341MW1101REMSYN07048304 31556 20000 10212 20193 39709 40175 52002 71000 82545 333 58034=
0229483040999992021021821004+19867+099767FM-12+040199999V0209999C000019999999N006000199+01991+01861101731ADDAY111021AY211021GA1041+008001061GA2999+999999031GA3999+999999021GE19MSL   +99999+99999GF106991041999008001999999MA1999999097041MD1710041+0301MW1101REMSYN07048304 31556 60000 10199 20186 39704 40173 57004 71011 84546 333 58030=
0232483040999992021021900004+19867+099767FM-12+040199999V0209999C000019999999N007000199+01911+01761101921ADDAY111021AY211021GA1061+008001061GA2999+999999031GE19MSL   +99999+99999GF108991061999008001999999KA1120N+01861MA1999999097211MD1210171+0211MW1101REMSYN07648304 31557 80000 10191 20176 39721 40192 52017 71011 8657/ 333 20186 58021=
0249483040999992021021903004+19867+099767FM-12+040199999V0209999C000019999999N008000199+02041+01831102151ADDAA103000091AY161021AY221021GA1061+008001061GA2999+999999031GE19MSL   +99999+99999GF108991061999008001999999MA1999999097451MD1210241+0251MW1101REMSYN07648304 21558 80000 10204 20183 39745 40215 52024 71062 8657/ 333 58025 69907=EQDQ01  00002PRCP03
0298483040999992021021906004+19867+099767FM-12+040199999V0209999C000019999999N008000199+02571+01661101801ADDAA106000091AA224000091AY161021AY221021GA1011+008001081GA2999+999999031GA3999+999999021GE19MSL   +99999+99999GF106991011999008001999999MA1999999097201MD1710251+0171MW1051REMSYN08248304 11558 60000 10257 20166 39720 40180 57025 69901 70562 81146 333 58017 79999=EQDQ01  00002PRCP06Q02  00002PRCP24
0229483040999992021021909004+19867+099767FM-12+040199999V0201501N001512200019N008000199+02781+01711101441ADDAY111021AY211021GA1011+008001081GA2999+999999031GA3999+999999001GE19MSL   +99999+99999GF102991011999008001999999MA1999999096891MD1710311+0131MW1051REMSYN07048304 31558 21503 10278 20171 39689 40144 57031 70511 81141 333 58013=
0111483040999992021022100004+19870+099774FM-12+039799999V0203601N0000122000199012000199+01621+01541101501ADDAA106999999AZ101061AZ201061GF100991999999999999999999KA1120N+01581MA1999999096771MD1210081-0361REMSYN004BUFR
0098483040999992021022103004+19870+099774FM-12+039799999V0203601N0000122000199012000199+02421+01921101611ADDAA103999999AZ101031AZ201031GF100991999999999999999999MA1999999097001MD1210231-0261REMSYN004BUFR
0180483040999992021022112004+19870+099774FM-12+039799999V0203601N0000199999999008000199+02351+02041101071ADDAA102000431AA212000431AA324000431AY161061AY211061GA1021+008001081GA2999+999999021GE19MSL   +99999+99999GF105991021999008001999999MA1999999096471MD1210081-0161MW1101REMSYN004BUFR
0246483040999992021022115004+19867+099767FM-12+040199999V0209999C000012200019N007000199+02121+01931101311ADDAA102000231AY161021AY211021GA1021+008001061GA2999+999999031GA3999+999999021GE19MSL   +99999+99999GF103991021999008001999999MA1999999096671MD1210201-0141MW1101REMSYN07648304 21557 30000 10212 20193 39667 40131 52020 71061 82545 333 59014 69926=
0263483040999992021022118004+19867+099767FM-12+040199999V0209999C000012200019N007000199+01941+01841101321ADDAA118000631AA224000631AY161021AY211021GA1021+008001061GA2999+999999031GA3999+999999021GE19MSL   +99999+99999GF102991021999008001999999MA1999999096641MD1710031-0171MW1101REMSYN08248304 11557 20000 10194 20184 39664 40132 57003 69963 71061 82545 333 59017 70006=
0213483040999992021022121004+19867+099767FM-12+040199999V0209999C000012200019N006000199+01831+01731101251ADDAY101021AY201021GA1021+008001061GA2999+999999021GE19MSL   +99999+99999GF102991021999008001999999MA1999999096561MD1710081-0161MW1101REMSYN07048304 31556 20000 10183 20173 39656 40125 57008 71000 82505 333 59016=
0233483040999992021022200004+19867+099767FM-12+040199999V0209999C000012200019N006000199+01771+01691101431ADDAA124000631AY101021AY201021GA1021+008001081GE19MSL   +99999+99999GF102991021999008001999999KA1120N+01741MA1999999096721MD1210161-0071MW1101REMSYN08248304 31556 20000 10177 20169 39672 40143 52016 71000 82800 333 20174 59007 70006=
0197483040999992021022203004+19867+099767FM-12+040199999V0209999C000012200019N008000199+02321+01911101491ADDAY101021AY201021GA1021+008001081GE19MSL   +99999+99999GF102991021999008001999999MA1999999096861MD1210141-0121MW1101REMSYN07048304 31558 20000 10232 20191 39686 40149 52014 71000 82100 333 59012=
0214483040999992021022206004+19867+099767FM-12+040199999V0201101N001012200019N009000199+03011+01591101061ADDAA124000631AY101021AY201021GA1011+008001081GE19MSL   +99999+99999GF101991011999008001999999MA1999999096551MD1710311-0221MW1051REMSYN07648304 31559 11102 10301 20159 39655 40106 57031 70500 81200 333 59022 70006=
0197483040999992021022209004+19867+099767FM-12+040199999V0202101N001012200019N009000199+03241+01801100731ADDAY101021AY201021GA1011+008001081GE19MSL   +99999+99999GF101991011999008001999999MA1999999096281MD1710281-0141MW1051REMSYN07048304 31559 12102 10324 20180 39628 40073 57028 70500 81100 333 59014=
0163483040999992021022212004+19867+099767FM-12+040199999V0209999C000019999999N008000199+02711+02071100831ADDAA124000231AY101021AY201021KA1240M+03271MA1999999096301MD1210021-0231MW1101REMSYN07648304 31958 00000 10271 20207 39630 40083 52002 71000 333 10327 59023 70002=
0104483040999992021022215004+19870+099774FM-12+039799999V0203601N0000122000199008000199+02221+01921101061ADDAA103999999AY101031AY201031GF100991999999999999999999MA1999999096441MD1210141-0251MW1101REMSYN004BUFR
0104483040999992021022218004+19870+099774FM-12+039799999V0203601N0000122000199007000199+02071+01941101141ADDAA106999999AY101061AY201061GF100991999999999999999999MA1999999096501MD1210061-0171MW1101REMSYN004BUFR
0127483040999992021022221004+19867+099767FM-12+040199999V0209999C000019999999N006000199+01861+01741101071ADDAY101021AY201021MA1999999096401MD1710101-0181MW1101REMSYN06448304 31956 00000 10186 20174 39640 40107 57010 71000 333 59018=
0155483040999992021022300004+19870+099774FM-12+039799999V0203601N0000122000199008000199+01751+01671101281ADDAA106999999AY101061AY201061GA1031+030001031GE19MSL   +99999+99999GF103991031999030001999999KA1120N+01701MA1999999096581MD1210181-0141MW1101REMSYN004BUFR
