0254583380999992021010100004+31150+118583FM-12+001699999V0202001N001019999999N022000199-00591-00711103251ADDAA106000091AA212000091AA324000091AY101021AY201021KA1120M+00141KA2120N-00771MA1999999102711MD1710081+9999MW1001OD139900301999REMSYN11858338 04972 /2001 11059 21071 30271 40325 57008 60002 70000 333 10014 21077 3/106 54405 59067 60001 70000 90720 91103=
0254583380999992021010103004+31150+118583FM-12+001699999V0201801N002019999999N030000199+00271-00641103111ADDAA106000091AA212000091AA324000091AY101021AY201021KA1240M+00281KA2240N-00771MA1999999102581MD1710131+9999MW1001OD139900601999REMSYN11858338 04980 /1802 10027 21064 30258 40311 57013 60002 70000 333 10028 21077 3/106 54405 59070 60001 70000 90720 91106=
0254583380999992021010106004+31150+118583FM-12+001699999V0202301N003019999999N030000199+00561-00801102801ADDAA106000091AA212000091AA324000091AY101021AY201021KA1240M+00561KA2240N-00771MA1999999102271MD1710311+9999MW1001OD139900601999REMSYN11858338 04980 /2303 10056 21080 30227 40280 57031 60002 70000 333 10056 21077 3/106 54405 59075 60001 70000 90720 91106=
0254583380999992021010109004+31150+118583FM-12+001699999V0203001N002019999999N030000199+00481-00611102801ADDAA106000091AA212000091AA324000091AY101021AY201021KA1240M+00651KA2240N-00771MA1999999102271MD1410001+9999MW1001OD139900701999REMSYN11858338 04980 /3002 10048 21061 30227 40280 54000 60002 70000 333 10065 21077 3/106 54405 59070 60001 70000 90720 91107=
0254583380999992021010112004+31150+118583FM-12+001699999V0203001N001019999999N022000199+00001-00371102921ADDAA106000091AA212000091AA324000091AY101021AY201021KA1240M+00651KA2240N-00771MA1999999102391MD1210121+9999MW1001OD139900701999REMSYN11858338 04972 /3001 10000 21037 30239 40292 52012 60002 70000 333 10065 21077 3/104 54405 59054 60001 70000 90720 91107=
0254583380999992021010118004+31150+118583FM-12+001699999V0202001N001019999999N027000199-00231-00561102991ADDAA106000091AA212000091AA324000091AY101021AY201021KA1120M+00651KA2120N-00771MA1999999102461MD1710031+9999MW1001OD139900701999REMSYN11858338 04977 /2001 11023 21056 30246 40299 57003 60002 70000 333 10065 21077 3/103 54405 59041 60001 70000 90720 91107=
0238583380999992021010121004+31150+118583FM-12+001699999V0209999C999999999999N023000199-00451-00581102951ADDAA106000091AA212000091AA324000091KA1240M+00651KA2240N-00771MA1999999102421MD1710041+9999MW1001OD139900301999REMSYN11858338 04973 /3600 11045 21058 30242 40295 57004 60002 700// 333 10065 21077 3/104 54405 59037 60001 70000 90720 91103=
0254583380999992021010200004+31150+118583FM-12+001699999V0202201N001019999999N015000199-00411-00521103091ADDAA106000091AA212000091AA324000091AY101021AY201021KA1120M+00651KA2120N-00591MA1999999102561MD1210141+9999MW1001OD139900301999REMSYN11858338 04965 /2201 11041 21052 30256 40309 52014 60002 70000 333 10065 21059 3/105 54405 59015 60001 70000 90720 91103=
0254583380999992021010203004+31150+118583FM-12+001699999V0200701N002019999999N015000199+00561-00451103071ADDAA106000091AA212000091AA324000091AY101021AY201021KA1240M+00651KA2240N-00531MA1999999102541MD1710021+9999MW1001OD139900301999REMSYN11858338 04965 /0702 10056 21045 30254 40307 57002 60002 70000 333 10065 21053 3/105 54405 59004 60001 70000 90720 91103=
0254583380999992021010206004+31150+118583FM-12+001699999V0200701N003019999999N023000199+00701-00331102791ADDAA106000091AA212000091AA324000091AY101021AY201021KA1240M+00761KA2240N-00531MA1999999102271MD1710271+9999MW1001OD139900501999REMSYN11858338 04973 /0703 10070 21033 30227 40279 57027 60002 70000 333 10076 21053 3/105 54405 58000 60001 70000 90720 91105=
0254583380999992021010209004+31150+118583FM-12+001699999V0200501N003019999999N024000199+00641-00331102821ADDAA106000091AA212000091AA324000091AY101021AY201021KA1240M+00771KA2240N-00531MA1999999102291MD1210021+9999MW1001OD139900601999REMSYN11858338 04974 /0503 10064 21033 30229 40282 52002 60002 70000 333 10077 21053 3/105 54405 58002 60001 70000 90720 91106=
0254583380999992021010212004+31150+118583FM-12+001699999V0200701N004019999999N021000199+00281-00461102911ADDAA106000091AA212000091AA324000091AY101021AY201021KA1240M+00771KA2240N-00531MA1999999102381MD1210091+9999MW1001OD139900801999REMSYN11858338 04971 /0704 10028 21046 30238 40291 52009 60002 70000 333 10077 21053 3/102 54405 59001 60001 70000 90720 91108=
0254583380999992021010218004+31150+118583FM-12+001699999V0200601N004019999999N015000199+00081-00371102951ADDAA106000091AA212000091AA324000091AY101021AY201021KA1120M+00771KA2120N-00531MA1999999102431MD1710041+9999MW1001OD139900901999REMSYN11858338 04965 /0604 10008 21037 30243 40295 57004 60002 70000 333 10077 21053 3/101 54405 59003 60001 70000 90720 91109=
0238583380999992021010221004+31150+118583FM-12+001699999V0200801N005019999999N013000199+00171-00261102801ADDAA106000091AA212000091AA324000091KA1240M+00771KA2240N-00531MA1999999102281MD1710151+9999MW1001OD139901001999REMSYN11858338 04963 /0805 10017 21026 30228 40280 57015 60002 700// 333 10077 21053 3/101 54406 59014 60001 70000 90720 91110=
0254583380999992021010300004+31150+118583FM-12+001699999V0200701N003019999999N009000199+00051-00161102981ADDAA106000091AA212000091AA324000091AY101021AY201021KA1120M+00771KA2120N-00401MA1999999102451MD1210171+9999MW1001OD139901001999REMSYN11858338 04959 /0703 10005 21016 30245 40298 52017 60002 70000 333 10077 21040 3/102 54405 59011 60001 70000 90720 91110=
0254583380999992021010303004+31150+118583FM-12+001699999V0200901N006019999999N013000199+00661+00031103031ADDAA106000091AA212000091AA324000091AY101021AY201021KA1240M+00771KA2240N+00001MA1999999102511MD1210061+9999MW1001OD139901001999REMSYN11858338 04963 /0906 10066 20003 30251 40303 52006 60002 70000 333 10077 20000 3/102 54405 59003 60001 70000 90720 91110=
0254583380999992021010306004+31150+118583FM-12+001699999V0201301N004019999999N016000199+00971+00231102711ADDAA106000091AA212000091AA324000091AY101021AY201021KA1240M+00971KA2240N+00001MA1999999102191MD1710321+9999MW1001OD139901001999REMSYN11858338 04966 /1304 10097 20023 30219 40271 57032 60002 70000 333 10097 20000 3/102 54405 59008 60001 70000 90720 91110=
0254583380999992021010309004+31150+118583FM-12+001699999V0200601N002019999999N013000199+00821+00291102761ADDAA106000091AA212000091AA324000091AY101021AY201021KA1240M+00971KA2240N+00001MA1999999102241MD1210051+9999MW1001OD139900901999REMSYN11858338 04963 /0602 10082 20029 30224 40276 52005 60002 70000 333 10097 20000 3/102 54405 59005 60001 70000 90720 91109=
0254583380999992021010312004+31150+118583FM-12+001699999V0200601N002019999999N011000199+00501+00181102921ADDAA106000091AA212000091AA324000091AY101021AY201021KA1240M+00971KA2240N+00001MA1999999102401MD1210161+9999MW1001OD139900901999REMSYN11858338 04961 /0602 10050 20018 30240 40292 52016 60002 70000 333 10097 20000 3/100 54405 58002 60001 70000 90720 91109=
0254583380999992021010318004+31150+118583FM-12+001699999V0200601N001019999999N005000199-00011-00141102931ADDAA106000091AA212000091AA324000091AY101021AY201021KA1120M+00971KA2120N-00011MA1999999102411MD1710121+9999MW1101OD139900601999REMSYN11858338 04950 /0601 11001 21014 30241 40293 57012 60002 71000 333 10097 21001 3/100 54415 59002 60001 70000 90720 91106=
0238583380999992021010321004+31150+118583FM-12+001699999V0201601N001019999999N003500199-00081-00161102781ADDAA106000091AA212000091AA324000091KA1240M+00971KA2240N-00101MA1999999102261MD1710151+9999MW1101OD139900301999REMSYN11858338 04935 /1601 11008 21016 30226 40278 57015 60002 710// 333 10097 21010 3/101 54415 59002 60001 70000 90720 91103=
0254583380999992021010400004+31150+118583FM-12+001699999V0202301N001019999999N005000199-00021-00111102881ADDAA106000091AA212000091AA324000091AY101021AY201021KA1120M+00971KA2120N-00111MA1999999102361MD1210101+9999MW1101OD139900301999REMSYN11858338 04950 /2301 11002 21011 30236 40288 52010 60002 71000 333 10097 21011 3/101 54415 59009 60001 70000 90720 91103=
0254583380999992021010403004+31150+118583FM-12+001699999V0203201N002019999999N009000199+00611+00141102921ADDAA106000091AA212000091AA324000091AY101021AY201021KA1240M+00971KA2240N-00111MA1999999102401MD1210041+9999MW1001OD139900401999REMSYN11858338 04959 /3202 10061 20014 30240 40292 52004 60002 70000 333 10097 21011 3/101 54415 59011 60001 70000 90720 91104=
0254583380999992021010406004+31150+118583FM-12+001699999V0202801N002019999999N008000199+01001+00371102611ADDAA106000091AA212000091AA324000091AY101021AY201021KA1240M+01011KA2240N-00111MA1999999102091MD1710311+9999MW1001OD139900501999REMSYN11858338 04958 /2802 10100 20037 30209 40261 57031 60002 70000 333 10101 21011 3/101 544// 59010 60001 70000 90720 91105=
0254583380999992021010409004+31150+118583FM-12+001699999V0200501N001019999999N007000199+00861+00441102641ADDAA106000091AA212000091AA324000091AY101021AY201021KA1240M+01061KA2240N-00111MA1999999102121MD1210031+9999MW1001OD139900501999REMSYN11858338 04957 /0501 10086 20044 30212 40264 52003 60002 70000 333 10106 21011 3/101 544// 59012 60001 70000 90720 91105=
0254583380999992021010412004+31150+118583FM-12+001699999V0200101N001019999999N006000199+00661+00461102861ADDAA106000091AA212000091AA324000091AY101021AY201021KA1240M+01061KA2240N-00111MA1999999102341MD1210221+9999MW1101OD139900501999REMSYN11858338 04956 /0101 10066 20046 30234 40286 52022 60002 71000 333 10106 21011 3/000 54405 59006 60001 70000 90720 91105=
0254583380999992021010418004+31150+118583FM-12+001699999V0203301N001019999999N003700199+00501+00401102781ADDAA106000091AA212000091AA324000091AY101021AY201021KA1120M+01061KA2120N-00111MA1999999102271MD1710081+9999MW1101OD139900401999REMSYN11858338 04937 /3301 10050 20040 30227 40278 57008 60002 71000 333 10106 21011 3/004 54405 59014 60001 70000 90720 91104=
0289583380999992021010421004+31150+118583FM-12+001699999V0200301N002019999999N007000199+00661+00561102851ADDAA106999999AA212999999AA324999999KA1240M+01061KA2240N-00111MA1999999102341MD1210071+9999MW1601OD139900401999REMSYN11858338 04957 /0302 10066 20056 30234 40285 52007 60002 760// 333 10106 21011 3/004 54407 58008 60001 70000 90720 91104=EQDQ01  00002PRCP06Q02  00002PRCP12Q03  00002PRCP24
0254583380999992021010500004+31150+118583FM-12+001699999V0200401N004019999999N014000199+00631+00311103071ADDAA106000091AA212000091AA324000091AY101021AY201021KA1120M+01061KA2120N-00021MA1999999102551MD1210211+9999MW1001OD139900701999REMSYN11858338 04964 /0404 10063 20031 30255 40307 52021 60002 70000 333 10106 21002 3/005 54407 58019 60001 70000 90720 91107=
0254583380999992021010503004+31150+118583FM-12+001699999V0200501N004019999999N004400199+00571+00321103101ADDAA106000091AA212000091AA324000091AY101021AY201021KA1240M+01061KA2240N+00481MA1999999102581MD1210031+9999MW1101OD139900901999REMSYN11858338 04944 /0504 10057 20032 30258 40310 52003 60002 71000 333 10106 20048 3/005 544// 58018 60001 70000 90720 91109=
0254583380999992021010506004+31150+118583FM-12+001699999V0200501N004019999999N005000199+00741+00271102881ADDAA106000091AA212000091AA324000021AY101021AY201021KA1240M+01061KA2240N+00481MA1999999102361MD1710221+9999MW1101OD139900901999REMSYN11858338 04950 /0504 10074 20027 30236 40288 57022 60002 71000 333 10106 20048 3/005 54415 58027 60001 79999 90720 91109=
0254583380999992021010509004+31150+118583FM-12+001699999V0200301N005019999999N007000199+00551+00201103111ADDAA106000091AA212000091AA324000091AY101021AY201021KA1240M+00861KA2240N+00481MA1999999102591MD1210231+9999MW1101OD139900901999REMSYN11858338 04957 /0305 10055 20020 30259 40311 52023 60002 71000 333 10086 20048 3/005 54415 58047 60001 70000 90720 91109=
0254583380999992021010512004+31150+118583FM-12+001699999V0200401N004019999999N015000199+00401-00041103301ADDAA106000091AA212000091AA324000021AY101021AY201021KA1240M+00761KA2240N+00401MA1999999102781MD1210191+9999MW1001OD139901001999REMSYN11858338 04965 /0404 10040 21004 30278 40330 52019 60002 70000 333 10076 20040 3/003 54415 58044 60001 79999 90720 91110=
0254583380999992021010518004+31150+118583FM-12+001699999V0200601N004019999999N020000199+00281-00121103131ADDAA106000091AA212000091AA324000091AY101021AY201021KA1120M+00761KA2120N+00271MA1999999102611MD1710091+9999MW1001OD139901001999REMSYN11858338 04970 /0604 10028 21012 30261 40313 57009 60002 70000 333 10076 20027 3/002 54415 58034 60001 70000 90720 91110=
0238583380999992021010521004+31150+118583FM-12+001699999V0200601N003019999999N021000199+00261-00141102971ADDAA106000091AA212000091AA324000091KA1240M+00761KA2240N+00261MA1999999102451MD1710161+9999MW1001OD139901001999REMSYN11858338 04971 /0603 10026 21014 30245 40297 57016 60002 700// 333 10076 20026 3/002 54415 58011 60001 70000 90720 91110=
0254583380999992021010600004+31150+118583FM-12+001699999V0200401N003019999999N019000199+00251-00181103001ADDAA106000091AA212000091AA324000091AY101021AY201021KA1120M+00761KA2120N+00231MA1999999102481MD1210031+9999MW1001OD139900701999REMSYN11858338 04969 /0403 10025 21018 30248 40300 52003 60002 70000 333 10076 20023 3/002 54415 59007 60001 70000 90720 91107=
0254583380999992021010603004+31150+118583FM-12+001699999V0200101N001019999999N019000199+00271-00181102971ADDAA106000091AA212000091AA324000091AY101021AY201021KA1240M+00761KA2240N+00231MA1999999102451MD1710031+9999MW1001OD139900701999REMSYN11858338 04969 /0101 10027 21018 30245 40297 57003 60002 70000 333 10076 20023 3/002 54415 59013 60001 70000 90720 91107=
0254583380999992021010606004+31150+118583FM-12+001699999V0203201N002019999999N017000199+00351-00151102761ADDAA106000091AA212000091AA324000091AY101021AY201021KA1240M+00761KA2240N+00231MA1999999102241MD1710211+9999MW1001OD139900601999REMSYN11858338 04967 /3202 10035 21015 30224 40276 57021 60002 70000 333 10076 20023 3/002 54415 59012 60001 70000 90720 91106=
0254583380999992021010609004+31150+118583FM-12+001699999V0203301N002019999999N011000199+00361-00101102891ADDAA106000091AA212000091AA324000091AY101021AY201021KA1240M+00551KA2240N+00231MA1999999102371MD1210131+9999MW1001OD139900501999REMSYN11858338 04961 /3302 10036 21010 30237 40289 52013 60002 70000 333 10055 20023 3/002 54415 59022 60001 70000 90720 91105=
0254583380999992021010612004+31150+118583FM-12+001699999V0203201N003019999999N010000199+00321-00171103091ADDAA106000091AA212000091AA324000091AY101021AY201021KA1240M+00401KA2240N+00231MA1999999102571MD1210201+9999MW1001OD139900601999REMSYN11858338 04960 /3203 10032 21017 30257 40309 52020 60002 70000 333 10040 20023 3/002 54415 59021 60001 70000 90720 91106=
0254583380999992021010618004+31150+118583FM-12+001699999V0203501N003019999999N011000199+00141-00621103401ADDAA106000091AA212000091AA324000091AY101021AY201021KA1120M+00401KA2120N+00141MA1999999102871MD1210111+9999MW1001OD139900701999REMSYN11858338 04961 /3503 10014 21062 30287 40340 52011 60002 70000 333 10040 20014 3/000 54415 58026 60001 70000 90720 91107=
0238583380999992021010621004+31150+118583FM-12+001699999V0200401N004019999999N013000199-00071-00611103471ADDAA106000091AA212000091AA324000091KA1240M+00401KA2240N-00071MA1999999102941MD1210071+9999MW1001OD139900901999REMSYN11858338 04963 /0404 11007 21061 30294 40347 52007 60002 700// 333 10040 21007 3/100 54415 58049 60001 70000 90720 91109=
0254583380999992021010700004+31150+118583FM-12+001699999V0200301N004019999999N022000199-00351-01191103861ADDAA106000091AA212000091AA324000091AY101021AY201021KA1120M+00401KA2120N-00351MA1999999103331MD1210391+9999MW1001OD139901001999REMSYN11858338 04972 /0304 11035 21119 30333 40386 52039 60002 70000 333 10040 21035 3/102 54416 58085 60001 70000 90720 91110=
0254583380999992021010703004+31150+118583FM-12+001699999V0203301N004019999999N023000199-00381-01671103901ADDAA106000091AA212000091AA324000091AY101021AY201021KA1240M+00401KA2240N-00381MA1999999103361MD1210031+9999MW1001OD139901001999REMSYN11858338 04973 /3304 11038 21167 30336 40390 52003 60002 70000 333 10040 21038 3/102 54417 58091 60001 70000 90720 91110=
0254583380999992021010706004+31150+118583FM-12+001699999V0203401N004019999999N026000199-00391-01941103641ADDAA106000091AA212000091AA324000091AY101021AY201021KA1240M+00401KA2240N-00431MA1999999103101MD1710261+9999MW1001OD139901101999REMSYN11858338 04976 /3404 11039 21194 30310 40364 57026 60002 70000 333 10040 21043 3/102 54417 58086 60001 70000 90720 91111=
0254583380999992021010709004+31150+118583FM-12+001699999V0203401N003019999999N030000199-00471-01791103631ADDAA106000091AA212000091AA324000091AY101021AY201021KA1240M+00361KA2240N-00471MA1999999103091MD1710011+9999MW1001OD139901101999REMSYN11858338 04980 /3403 11047 21179 30309 40363 57001 60002 70000 333 10036 21047 3/102 54418 58072 60001 70000 90720 91111=
0254583380999992021010712004+31150+118583FM-12+001699999V0203301N004019999999N030000199-00581-01761103811ADDAA106000091AA212000091AA324000091AY101021AY201021KA1240M+00321KA2240N-00581MA1999999103271MD1210181+9999MW1001OD139901101999REMSYN11858338 04980 /3304 11058 21176 30327 40381 52018 60002 70000 333 10032 21058 3/104 54419 58070 60001 70000 90720 91111=
0254583380999992021010718004+31150+118583FM-12+001699999V0203001N003019999999N030000199-00701-01721103821ADDAA106000091AA212000091AA324000091AY101021AY201021KA1120M+00141KA2120N-00731MA1999999103281MD1710081+9999MW1001OD139900901999REMSYN11858338 04980 /3003 11070 21172 30328 40382 57008 60002 70000 333 10014 21073 3/106 54418 58041 60001 70000 90720 91109=
0238583380999992021010721004+31150+118583FM-12+001699999V0202501N002019999999N030000199-00761-01421103741ADDAA106000091AA212000091AA324000091KA1240M-00081KA2240N-00761MA1999999103191MD1710091+9999MW1001OD139900901999REMSYN11858338 04980 /2502 11076 21142 30319 40374 57009 60002 700// 333 11008 21076 3/106 54417 58025 60001 70000 90720 91109=
0254583380999992021010800004+31150+118583FM-12+001699999V0202401N003019999999N025000199-00771-01311103721ADDAA106000091AA212000091AA324000091AY101021AY201021KA1120M-00321KA2120N-00861MA1999999103171MD1710021+9999MW1001OD139900901999REMSYN11858338 04975 /2403 11077 21131 30317 40372 57002 60002 70000 333 11032 21086 3/107 54415 59016 60001 70000 90720 91109=
0254583380999992021010803004+31150+118583FM-12+001699999V0202701N004019999999N029000199-00261-01671103691ADDAA106000091AA212000091AA324000091AY101021AY201021KA1240M-00261KA2240N-00861MA1999999103151MD1710021+9999MW1001OD139900901999REMSYN11858338 04979 /2704 11026 21167 30315 40369 57002 60002 70000 333 11026 21086 3/107 54405 59021 60001 70000 90720 91109=
0254583380999992021010806004+31150+118583FM-12+001699999V0202901N006019999999N030000199+00021-01851103271ADDAA106000091AA212000091AA324000091AY101021AY201021KA1240M+00061KA2240N-00861MA1999999102731MD1710421+9999MW1001OD139901101999REMSYN11858338 04980 /2906 10002 21185 30273 40327 57042 60002 70000 333 10006 21086 3/107 54405 59037 60001 70000 90720 91111=
0254583380999992021010809004+31150+118583FM-12+001699999V0202901N004019999999N030000199-00011-01521103231ADDAA106000091AA212000091AA324000091AY101021AY201021KA1240M+00081KA2240N-00861MA1999999102691MD1710041+9999MW1001OD139901301999REMSYN11858338 04980 /2904 11001 21152 30269 40323 57004 60002 70000 333 10008 21086 3/107 54405 59040 60001 70000 90720 91113=
0254583380999992021010812004+31150+118583FM-12+001699999V0202601N001019999999N030000199-00311-01211103331ADDAA106000091AA212000091AA324000091AY101021AY201021KA1240M+00081KA2240N-00861MA1999999102791MD1210101+9999MW1001OD139901301999REMSYN11858338 04980 /2601 11031 21121 30279 40333 52010 60002 70000 333 10008 21086 3/106 54405 59048 60001 70000 90720 91113=
0254583380999992021010818004+31150+118583FM-12+001699999V0202601N002019999999N030000199-00531-01291103311ADDAA106000091AA212000091AA324000091AY101021AY201021KA1120M+00081KA2120N-00861MA1999999102771MD1710051+9999MW1001OD139901301999REMSYN11858338 04980 /2602 11053 21129 30277 40331 57005 60002 70000 333 10008 21086 3/106 54405 59051 60001 70000 90720 91113=
0144583380999992021010821004+31120+118580FM-12+001899999V0202491N0019199999999030000199-00621-01101103281ADDAA106999999AA212999999AA324999999IA2999-00639KA1240M+00081KA2240N-00861MA1999999102741MD1710031-0451MW1001OC100781OD141200781298REMSYN004BUFR
0254583380999992021010900004+31150+118583FM-12+001699999V0202501N002019999999N030000199-00571-01031103351ADDAA106000091AA212000091AA324000091AY101021AY201021KA1120M+00081KA2120N-00771MA1999999102811MD1210071+9999MW1001OD139900401999REMSYN11858338 04980 /2502 11057 21103 30281 40335 52007 60002 70000 333 10008 21077 3/107 54405 59036 60001 70000 90720 91104=
0254583380999992021010903004+31150+118583FM-12+001699999V0202601N003019999999N027000199+00171-01181103351ADDAA106000091AA212000091AA324000091AY101021AY201021KA1240M+00211KA2240N-00681MA1999999102821MD1210011+9999MW1001OD139900501999REMSYN11858338 04977 /2603 10017 21118 30282 40335 52001 60002 70000 333 10021 21068 3/107 54405 59033 60001 70000 90720 91105=
0254583380999992021010906004+31150+118583FM-12+001699999V0202801N004019999999N030000199+00471-01421102971ADDAA106000091AA212000091AA324000091AY101021AY201021KA1240M+00501KA2240N-00681MA1999999102441MD1710381+9999MW1001OD139900901999REMSYN11858338 04980 /2804 10047 21142 30244 40297 57038 60002 70000 333 10050 21068 3/107 54405 59029 60001 70000 90720 91109=
0254583380999992021010909004+31150+118583FM-12+001699999V0203001N003019999999N030000199+00261-01411102971ADDAA106000091AA212000091AA324000091AY101021AY201021KA1240M+00501KA2240N-00681MA1999999102441MD1410001+9999MW1001OD139900901999REMSYN11858338 04980 /3003 10026 21141 30244 40297 54000 60002 70000 333 10050 21068 3/107 54405 59025 60001 70000 90720 91109=
0254583380999992021010912004+31150+118583FM-12+001699999V0202201N002019999999N025000199-00051-01211103101ADDAA106000091AA212000091AA324000091AY101021AY201021KA1240M+00501KA2240N-00681MA1999999102561MD1210121+9999MW1001OD139900901999REMSYN11858338 04975 /2202 11005 21121 30256 40310 52012 60002 70000 333 10050 21068 3/105 54405 59023 60001 70000 90720 91109=
0254583380999992021010918004+31150+118583FM-12+001699999V0202401N002019999999N026000199-00241-00931103231ADDAA106000091AA212000091AA324000091AY101021AY201021KA1120M+00501KA2120N-00681MA1999999102701MD1210051+9999MW1001OD139900901999REMSYN11858338 04976 /2402 11024 21093 30270 40323 52005 60002 70000 333 10050 21068 3/104 54405 59007 60001 70000 90720 91109=
0238583380999992021010921004+31150+118583FM-12+001699999V0202601N001019999999N026000199-00331-00911103111ADDAA106000091AA212000091AA324000091KA1240M+00501KA2240N-00681MA1999999102581MD1710121+9999MW1001OD139900501999REMSYN11858338 04976 /2601 11033 21091 30258 40311 57012 60002 700// 333 10050 21068 3/105 54405 59016 60001 70000 90720 91105=
0254583380999992021011000004+31150+118583FM-12+001699999V0202101N001019999999N024000199-00331-00781103191ADDAA106000091AA212000091AA324000091AY101021AY201021KA1120M+00501KA2120N-00561MA1999999102661MD1210081+9999MW1001OD139900301999REMSYN11858338 04974 /2101 11033 21078 30266 40319 52008 60002 70000 333 10050 21056 3/105 54405 59015 60001 70000 90720 91103=
0254583380999992021011003004+31150+118583FM-12+001699999V0200101N002019999999N023000199+00391-01051103261ADDAA106000091AA212000091AA324000091AY101021AY201021KA1240M+00501KA2240N-00391MA1999999102731MD1210071+9999MW1001OD139900401999REMSYN11858338 04973 /0102 10039 21105 30273 40326 52007 60002 70000 333 10050 21039 3/105 54405 59009 60001 70000 90720 91104=
0254583380999992021011006004+31150+118583FM-12+001699999V0200501N002019999999N028000199+00511-01241103021ADDAA106000091AA212000091AA324000091AY101021AY201021KA1240M+00561KA2240N-00391MA1999999102491MD1710241+9999MW1001OD139900601999REMSYN11858338 04978 /0502 10051 21124 30249 40302 57024 60002 70000 333 10056 21039 3/105 544// 58005 60001 70000 90720 91106=
0254583380999992021011009004+31150+118583FM-12+001699999V0200601N002019999999N022000199+00351-01091103031ADDAA106000091AA212000091AA324000091AY101021AY201021KA1240M+00561KA2240N-00391MA1999999102501MD1210011+9999MW1001OD139900601999REMSYN11858338 04972 /0602 10035 21109 30250 40303 52001 60002 70000 333 10056 21039 3/105 54405 58006 60001 70000 90720 91106=
0254583380999992021011012004+31150+118583FM-12+001699999V0200501N002019999999N023000199+00191-01201103161ADDAA106000091AA212000091AA324000091AY101021AY201021KA1240M+00561KA2240N-00391MA1999999102631MD1210131+9999MW1001OD139900601999REMSYN11858338 04973 /0502 10019 21120 30263 40316 52013 60002 70000 333 10056 21039 3/102 54405 58007 60001 70000 90720 91106=
0254583380999992021011018004+31150+118583FM-12+001699999V0203301N002019999999N020000199-00071-00841103271ADDAA106000091AA212000091AA324000091AY101021AY201021KA1120M+00561KA2120N-00391MA1999999102741MD1710101+9999MW1001OD139900601999REMSYN11858338 04970 /3302 11007 21084 30274 40327 57010 60002 70000 333 10056 21039 3/102 54405 58004 60001 70000 90720 91106=
0238583380999992021011021004+31150+118583FM-12+001699999V0202301N002019999999N019000199-00221-00571103271ADDAA106000091AA212000091AA324000091KA1240M+00561KA2240N-00391MA1999999102741MD1410001+9999MW1001OD139900601999REMSYN11858338 04969 /2302 11022 21057 30274 40327 54000 60002 700// 333 10056 21039 3/102 54405 58016 60001 70000 90720 91106=
0254583380999992021011100004+31150+118583FM-12+001699999V0202601N002019999999N015000199-00231-00581103321ADDAA106000091AA212000091AA324000091AY101021AY201021KA1120M+00561KA2120N-00331MA1999999102791MD1210051+9999MW1001OD139900401999REMSYN11858338 04965 /2602 11023 21058 30279 40332 52005 60002 70000 333 10056 21033 3/103 54405 58013 60001 70000 90720 91104=
0254583380999992021011103004+31150+118583FM-12+001699999V0202601N004019999999N019000199+00471-00711103241ADDAA106000091AA212000091AA324000091AY101021AY201021KA1240M+00561KA2240N-00311MA1999999102711MD1710081+9999MW1001OD139900701999REMSYN11858338 04969 /2604 10047 21071 30271 40324 57008 60002 70000 333 10056 21031 3/103 54405 59002 60001 70000 90720 91107=
0254583380999992021011106004+31150+118583FM-12+001699999V0202801N006019999999N026000199+00601-01071102931ADDAA106000091AA212000091AA324000091AY101021AY201021KA1240M+00621KA2240N-00311MA1999999102411MD1710301+9999MW1001OD139901201999REMSYN11858338 04976 /2806 10060 21107 30241 40293 57030 60002 70000 333 10062 21031 3/103 54405 59008 60001 70000 90720 91112=
0254583380999992021011109004+31150+118583FM-12+001699999V0202801N005019999999N030000199+00471-01061102951ADDAA106000091AA212000091AA324000091AY101021AY201021KA1240M+00651KA2240N-00311MA1999999102421MD1210011+9999MW1001OD139901301999REMSYN11858338 04980 /2805 10047 21106 30242 40295 52001 60002 70000 333 10065 21031 3/103 54405 59008 60001 70000 90720 91113=
0254583380999992021011112004+31150+118583FM-12+001699999V0202301N001019999999N030000199+00081-00921103081ADDAA106000091AA212000091AA324000091AY101021AY201021KA1240M+00651KA2240N-00311MA1999999102551MD1210131+9999MW1001OD139901301999REMSYN11858338 04980 /2301 10008 21092 30255 40308 52013 60002 70000 333 10065 21031 3/102 54415 59008 60001 70000 90720 91113=
0254583380999992021011118004+31150+118583FM-12+001699999V0202401N002019999999N025000199-00161-00921102821ADDAA106000091AA212000091AA324000091AY101021AY201021KA1120M+00651KA2120N-00311MA1999999102301MD1710181+9999MW1001OD139901301999REMSYN11858338 04975 /2402 11016 21092 30230 40282 57018 60002 70000 333 10065 21031 3/104 54415 59044 60001 70000 90720 91113=
0238583380999992021011121004+31150+118583FM-12+001699999V0202401N003019999999N024000199-00291-00881102571ADDAA106000091AA212000091AA324000091KA1240M+00651KA2240N-00311MA1999999102041MD1710261+9999MW1001OD139900901999REMSYN11858338 04974 /2403 11029 21088 30204 40257 57026 60002 700// 333 10065 21031 3/104 54415 59070 60001 70000 90720 91109=
0254583380999992021011200004+31150+118583FM-12+001699999V0202301N003019999999N025000199-00141-00881102531ADDAA106000091AA212000091AA324000091AY101021AY201021KA1120M+00651KA2120N-00301MA1999999102001MD1710041+9999MW1001OD139900501999REMSYN11858338 04975 /2303 11014 21088 30200 40253 57004 60002 70000 333 10065 21030 3/104 54405 59079 60001 70000 90720 91105=
0254583380999992021011203004+31150+118583FM-12+001699999V0202401N008019999999N024000199+00671-00921102371ADDAA106000091AA212000091AA324000091AY101021AY201021KA1240M+00671KA2240N-00301MA1999999101851MD1710151+9999MW1001OD139901301999REMSYN11858338 04974 /2408 10067 21092 30185 40237 57015 60002 70000 333 10067 21030 3/104 54405 59086 60001 70000 90720 91113=
0254583380999992021011206004+31150+118583FM-12+001699999V0202401N009019999999N022000199+01091-00941102011ADDAA106000091AA212000091AA324000091AY101021AY201021KA1240M+01111KA2240N-00301MA1999999101491MD1710361+9999MW1001OD139901501999REMSYN11858338 04972 /2409 10109 21094 30149 40201 57036 60002 70000 333 10111 21030 3/104 54405 59092 60001 70000 90720 91115=
0254583380999992021011209004+31150+118583FM-12+001699999V0202401N005019999999N027000199+01021-00801101951ADDAA106000091AA212000091AA324000091AY101021AY201021KA1240M+01181KA2240N-00301MA1999999101431MD1710061+9999MW1001OD139901501999REMSYN11858338 04977 /2405 10102 21080 30143 40195 57006 60002 70000 333 10118 21030 3/104 54406 59099 60001 70000 90720 91115=
0254583380999992021011212004+31150+118583FM-12+001699999V0202401N002019999999N027000199+00531-00791101911ADDAA106000091AA212000091AA324000091AY101021AY201021KA1240M+01181KA2240N-00301MA1999999101391MD1710041+9999MW1001OD139901501999REMSYN11858338 04977 /2402 10053 21079 30139 40191 57004 60002 70000 333 10118 21030 3/103 54405 59116 60001 70000 90720 91115=
0254583380999992021011218004+31150+118583FM-12+001699999V0202401N002019999999N030000199+00301-00721101821ADDAA106000091AA212000091AA324000091AY101021AY201021KA1120M+01181KA2120N-00301MA1999999101311MD1710031+9999MW1001OD139901301999REMSYN11858338 04980 /2402 10030 21072 30131 40182 57003 60002 70000 333 10118 21030 3/102 54405 59099 60001 70000 90720 91113=
0238583380999992021011221004+31150+118583FM-12+001699999V0202201N003019999999N030000199+00201-00661101781ADDAA106000091AA212000091AA324000091KA1240M+01181KA2240N-00301MA1999999101271MD1710041+9999MW1001OD139900701999REMSYN11858338 04980 /2203 10020 21066 30127 40178 57004 60002 700// 333 10118 21030 3/102 54405 59077 60001 70000 90720 91107=
0254583380999992021011300004+31150+118583FM-12+001699999V0202501N002019999999N030000199+00351-00571101751ADDAA106000091AA212000091AA324000091AY101021AY201021KA1120M+01181KA2120N-00131MA1999999101241MD1710031+9999MW1001OD139900501999REMSYN11858338 04980 /2502 10035 21057 30124 40175 57003 60002 70000 333 10118 21013 3/102 54405 59076 60001 70000 90720 91105=
0254583380999992021011303004+31150+118583FM-12+001699999V0202401N005019999999N030000199+01351-00461101791ADDAA106000091AA212000091AA324000091AY101021AY201021KA1240M+01351KA2240N+00151MA1999999101281MD1210041+9999MW1001OD139900901999REMSYN11858338 04980 /2405 10135 21046 30128 40179 52004 60002 70000 333 10135 20015 3/102 54407 59057 60001 70000 90720 91109=
0254583380999992021011306004+31150+118583FM-12+001699999V0202401N005019999999N030000199+01771-00371101611ADDAA106000091AA212000091AA324000091AY101021AY201021KA1240M+01831KA2240N+00151MA1999999101111MD1710171+9999MW1001OD139901101999REMSYN11858338 04980 /2405 10177 21037 30111 40161 57017 60002 70000 333 10183 20015 3/102 54407 59038 60001 70000 90720 91111=
0160583380999992021011309004+31120+118580FM-12+001899999V0202331N0016199999999030000199+01611-00291101661ADDAA106999999AA212999999AA324999999AY101031AY201031IA2999-00219KA1240M+01841KA2240N+00151MA1999999101151MD1210041-0281MW1001OC101131OD141201131236REMSYN004BUFR
0254583380999992021011312004+31150+118583FM-12+001699999V0203101N001019999999N020000199+00891-00241101771ADDAA106000091AA212000091AA324000091AY101021AY201021KA1240M+01841KA2240N+00151MA1999999101261MD1210111+9999MW1001OD139901101999REMSYN11858338 04970 /3101 10089 21024 30126 40177 52011 60002 70000 333 10184 20015 3/100 54405 59013 60001 70000 90720 91111=
0254583380999992021011318004+31150+118583FM-12+001699999V0202201N001019999999N024000199+00511-00371101911ADDAA106000091AA212000091AA324000091AY101021AY201021KA1120M+01841KA2120N+00151MA1999999101411MD1210011+9999MW1001OD139900901999REMSYN11858338 04974 /2201 10051 21037 30141 40191 52001 60002 70000 333 10184 20015 3/101 54405 58010 60001 70000 90720 91109=
0238583380999992021011321004+31150+118583FM-12+001699999V0201501N001019999999N029000199+00271-00361101911ADDAA106000091AA212000091AA324000091KA1240M+01841KA2240N+00151MA1999999101401MD1710011+9999MW1001OD139900401999REMSYN11858338 04979 /1501 10027 21036 30140 40191 57001 60002 700// 333 10184 20015 3/103 54405 58013 60001 70000 90720 91104=
0254583380999992021011400004+31150+118583FM-12+001699999V0201601N001019999999N022000199+00371-00271101931ADDAA106000091AA212000091AA324000091AY101021AY201021KA1120M+01841KA2120N+00001MA1999999101421MD1210021+9999MW1001OD139900401999REMSYN11858338 04972 /1601 10037 21027 30142 40193 52002 60002 70000 333 10184 20000 3/103 544// 58018 60001 70000 90720 91104=
0254583380999992021011403004+31150+118583FM-12+001699999V0201501N002019999999N022000199+01482-00131101841ADDAA106000091AA212000091AA324000091AY101021AY201021KA1240M+01841KA2240N+00001MA1999999101341MD1710081+9999MW1001OD139900501999REMSYN11858338 04972 /1502 10148 21013 30134 40184 57008 60002 70000 333 10184 20000 3/103 54405 58006 60001 70000 90720 91105=
0254583380999992021011406004+31150+118583FM-12+001699999V0202001N002019999999N028000199+02011-00491101491ADDAA106000091AA212000091AA324000091AY101021AY201021KA1240M+02011KA2240N+00001MA1999999100991MD1710351+9999MW1001OD139900501999REMSYN11858338 04978 /2002 10201 21049 30099 40149 57035 60002 70000 333 10201 20000 3/103 54405 59012 60001 70000 90720 91105=
0254583380999992021011409004+31150+118583FM-12+001699999V0201601N002019999999N030000199+01901-00451101441ADDAA106000091AA212000091AA324000091AY101021AY201021KA1240M+02071KA2240N+00001MA1999999100941MD1710051+9999MW1001OD139900601999REMSYN11858338 04980 /1602 10190 21045 30094 40144 57005 60002 70000 333 10207 20000 3/103 54405 59021 60001 70000 90720 91106=
0254583380999992021011412004+31150+118583FM-12+001699999V0201001N002019999999N023000199+01121-00061101441ADDAA106000091AA212000091AA324000091AY101021AY201021KA1240M+02071KA2240N+00001MA1999999100931MD1710011+9999MW1001OD139900601999REMSYN11858338 04973 /1002 10112 21006 30093 40144 57001 60002 70000 333 10207 20000 3/000 54405 59033 60001 70000 90720 91106=
0254583380999992021011418004+31150+118583FM-12+001699999V0202501N001019999999N017000199+00791-00111101601ADDAA106000091AA212000091AA324000091AY101021AY201021KA1120M+02071KA2120N+00001MA1999999101101MD1210051+9999MW1001OD139900601999REMSYN11858338 04967 /2501 10079 21011 30110 40160 52005 60002 70000 333 10207 20000 3/002 54405 59031 60001 70000 90720 91106=
0238583380999992021011421004+31150+118583FM-12+001699999V0202601N002019999999N024000199+00671-00171101621ADDAA106000091AA212000091AA324000091KA1240M+02071KA2240N+00001MA1999999101121MD1210021+9999MW1001OD139900401999REMSYN11858338 04974 /2602 10067 21017 30112 40162 52002 60002 700// 333 10207 20000 3/001 54405 59028 60001 70000 90720 91104=
0254583380999992021011500004+31150+118583FM-12+001699999V0202501N002019999999N025000199+00561-00111101691ADDAA106000091AA212000091AA324000091AY101021AY201021KA1120M+02071KA2120N+00381MA1999999101181MD1210061+9999MW1001OD139900401999REMSYN11858338 04975 /2502 10056 21011 30118 40169 52006 60002 70000 333 10207 20038 3/100 54405 59024 60001 70000 90720 91104=
0254583380999992021011503004+31150+118583FM-12+001699999V0202801N002019999999N023000199+01471+00261101811ADDAA106000091AA212000091AA324000091AY101021AY201021KA1240M+02071KA2240N+00401MA1999999101311MD1210131+9999MW1001OD139900401999REMSYN11858338 04973 /2802 10147 20026 30131 40181 52013 60002 70000 333 10207 20040 3/100 544// 59003 60001 70000 90720 91104=
0254583380999992021011506004+31150+118583FM-12+001699999V0203001N005019999999N013000199+01671-00051101681ADDAA106000091AA212000091AA324000091AY101021AY201021KA1240M+02071KA2240N+00401MA1999999101181MD1710131+9999MW1001OD139900801999REMSYN11858338 04963 /3005 10167 21005 30118 40168 57013 60002 70000 333 10207 20040 3/100 54415 58019 60001 70000 90720 91108=
0160583380999992021011509004+31120+118580FM-12+001899999V0203391N0020199999999012400199+01371+00201101921ADDAA106999999AA212999999AA324999999AY101031AY201031IA2999-00049KA1240M+01891KA2240N+00401MA1999999101411MD1210231+0471MW1001OC100821OD141200821298REMSYN004BUFR
0254583380999992021011512004+31150+118583FM-12+001699999V0200401N003019999999N010000199+00951+00171102221ADDAA106000091AA212000091AA324000091AY101021AY201021KA1240M+01751KA2240N+00401MA1999999101711MD1210301+9999MW1001OD139900801999REMSYN11858338 04960 /0403 10095 20017 30171 40222 52030 60002 70000 333 10175 20040 3/002 54415 58078 60001 70000 90720 91108=
0254583380999992021011518004+31150+118583FM-12+001699999V0200601N006019999999N008000199+00471+00121102661ADDAA106000091AA212000091AA324000091AY101021AY201021KA1120M+01751KA2120N+00401MA1999999102151MD1210051+9999MW1001OD139901101999REMSYN11858338 04958 /0606 10047 20012 30215 40266 52005 60002 70000 333 10175 20040 3/004 54415 58105 60001 70000 90720 91111=
0238583380999992021011521004+31150+118583FM-12+001699999V0200601N004019999999N007000199+00391+00011102861ADDAA106000091AA212000091AA324000091KA1240M+01751KA2240N+00391MA1999999102351MD1210201+9999MW1101OD139901101999REMSYN11858338 04957 /0604 10039 20001 30235 40286 52020 60002 710// 333 10175 20039 3/004 54415 58123 60001 70000 90720 91111=
0254583380999992021011600004+31150+118583FM-12+001699999V0200701N005019999999N009000199+00261-00071102961ADDAA106000091AA212000091AA324000091AY101021AY201021KA1120M+01751KA2120N+00251MA1999999102441MD1210091+9999MW1001OD139901101999REMSYN11858338 04959 /0705 10026 21007 30244 40296 52009 60002 70000 333 10175 20025 3/002 54415 58126 60001 70000 90720 91111=
0254583380999992021011603004+31150+118583FM-12+001699999V0200601N004019999999N010000199+00391-00131103131ADDAA106000091AA212000091AA324000091AY101021AY201021KA1240M+01751KA2240N+00251MA1999999102611MD1210171+9999MW1001OD139901101999REMSYN11858338 04960 /0604 10039 21013 30261 40313 52017 60002 70000 333 10175 20025 3/002 54411 58130 60001 70000 90720 91111=
0254583380999992021011606004+31150+118583FM-12+001699999V0200301N004019999999N020000199+00521-00221103041ADDAA106000091AA212000091AA324000091AY101021AY201021KA1240M+01691KA2240N+00251MA1999999102521MD1710091+9999MW1001OD139901101999REMSYN11858338 04970 /0304 10052 21022 30252 40304 57009 60002 70000 333 10169 20025 3/002 54412 58134 60001 70000 90720 91111=
0254583380999992021011609004+31150+118583FM-12+001699999V0200401N004019999999N022000199+00461-00231103141ADDAA106000091AA212000091AA324000091AY101021AY201021KA1240M+01371KA2240N+00251MA1999999102621MD1210101+9999MW1001OD139900901999REMSYN11858338 04972 /0404 10046 21023 30262 40314 52010 60002 70000 333 10137 20025 3/002 54419 58121 60001 70000 90720 91109=
0254583380999992021011612004+31150+118583FM-12+001699999V0200401N003019999999N018000199+00231-00221103361ADDAA106000091AA212000091AA324000091AY101021AY201021KA1240M+00951KA2240N+00231MA1999999102831MD1210211+9999MW1001OD139900901999REMSYN11858338 04968 /0403 10023 21022 30283 40336 52021 60002 70000 333 10095 20023 3/001 54417 58112 60001 70000 90720 91109=
0254583380999992021011618004+31150+118583FM-12+001699999V0200701N003019999999N020000199+00201-00311103661ADDAA106000091AA212000091AA324000091AY101021AY201021KA1120M+00531KA2120N+00201MA1999999103131MD1210051+9999MW1001OD139900701999REMSYN11858338 04970 /0703 10020 21031 30313 40366 52005 60002 70000 333 10053 20020 3/001 54415 58098 60001 70000 90720 91107=
0238583380999992021011621004+31150+118583FM-12+001699999V0200701N001019999999N020000199-00081-00351103691ADDAA106000091AA212000091AA324000091KA1240M+00531KA2240N-00081MA1999999103161MD1210031+9999MW1001OD139900701999REMSYN11858338 04970 /0701 11008 21035 30316 40369 52003 60002 700// 333 10053 21008 3/103 54415 58081 60001 70000 90720 91107=
0254583380999992021011700004+31150+118583FM-12+001699999V0201101N001019999999N014000199-00131-00331103741ADDAA106000091AA212000091AA324000091AY101021AY201021KA1120M+00531KA2120N-00171MA1999999103211MD1210051+9999MW1001OD139900601999REMSYN11858338 04964 /1101 11013 21033 30321 40374 52005 60002 70000 333 10053 21017 3/104 54415 58077 60001 70000 90720 91106=
0254583380999992021011703004+31150+118583FM-12+001699999V0202101N001019999999N016000199+00501-00721103621ADDAA106000091AA212000091AA324000091AY101021AY201021KA1240M+00531KA2240N-00171MA1999999103091MD1710121+9999MW1001OD139900501999REMSYN11858338 04966 /2101 10050 21072 30309 40362 57012 60002 70000 333 10053 21017 3/104 54405 58048 60001 70000 90720 91105=
0254583380999992021011706004+31150+118583FM-12+001699999V0202901N002019999999N016000199+00701-00671103221ADDAA106000091AA212000091AA324000091AY101021AY201021KA1240M+00731KA2240N-00171MA1999999102701MD1710391+9999MW1001OD139900601999REMSYN11858338 04966 /2902 10070 21067 30270 40322 57039 60002 70000 333 10073 21017 3/104 54405 58018 60001 70000 90720 91106=
0254583380999992021011709004+31150+118583FM-12+001699999V0203001N002019999999N018000199+00581-00681103111ADDAA106000091AA212000091AA324000091AY101021AY201021KA1240M+00731KA2240N-00171MA1999999102581MD1710121+9999MW1001OD139900701999REMSYN11858338 04968 /3002 10058 21068 30258 40311 57012 60002 70000 333 10073 21017 3/104 54405 59004 60001 70000 90720 91107=
0254583380999992021011712004+31150+118583FM-12+001699999V0202401N001019999999N014000199+00181-00511102991ADDAA106000091AA212000091AA324000091AY101021AY201021KA1240M+00731KA2240N-00171MA1999999102461MD1710121+9999MW1001OD139900701999REMSYN11858338 04964 /2401 10018 21051 30246 40299 57012 60002 70000 333 10073 21017 3/101 54415 59037 60001 70000 90720 91107=
0254583380999992021011718004+31150+118583FM-12+001699999V0202401N002019999999N016000199-00121-00651102761ADDAA106000091AA212000091AA324000091AY101021AY201021KA1120M+00731KA2120N-00171MA1999999102241MD1710101+9999MW1001OD139900701999REMSYN11858338 04966 /2402 11012 21065 30224 40276 57010 60002 70000 333 10073 21017 3/104 54415 59089 60001 70000 90720 91107=
0238583380999992021011721004+31150+118583FM-12+001699999V0202401N003019999999N017000199-00091-00711102651ADDAA106000091AA212000091AA324000091KA1240M+00731KA2240N-00171MA1999999102131MD1710111+9999MW1001OD139900501999REMSYN11858338 04967 /2403 11009 21071 30213 40265 57011 60002 700// 333 10073 21017 3/105 544// 59103 60001 70000 90720 91105=
0254583380999992021011800004+31150+118583FM-12+001699999V0202401N003019999999N018000199+00011-00651102731ADDAA106000091AA212000091AA324000091AY101021AY201021KA1120M+00731KA2120N-00171MA1999999102201MD1210071+9999MW1001OD139900401999REMSYN11858338 04968 /2403 10001 21065 30220 40273 52007 60002 70000 333 10073 21017 3/105 54405 59101 60001 70000 90720 91104=
0254583380999992021011803004+31150+118583FM-12+001699999V0202401N005019999999N019000199+00831-00631102721ADDAA106000091AA212000091AA324000091AY101021AY201021KA1240M+00831KA2240N-00171MA1999999102201MD1410001+9999MW1001OD139900901999REMSYN11858338 04969 /2405 10083 21063 30220 40272 54000 60002 70000 333 10083 21017 3/105 54405 59089 60001 70000 90720 91109=
0254583380999992021011806004+31150+118583FM-12+001699999V0202801N003019999999N027000199+01281-00671102441ADDAA106000091AA212000091AA324000091AY101021AY201021KA1240M+01321KA2240N-00171MA1999999101921MD1710281+9999MW1001OD139900901999REMSYN11858338 04977 /2803 10128 21067 30192 40244 57028 60002 70000 333 10132 21017 3/105 54406 59078 60001 70000 90720 91109=
0254583380999992021011809004+31150+118583FM-12+001699999V0209999C999999999999N026000199+01241-00761102441ADDAA106000091AA212000091AA324000091AY101021AY201021KA1240M+01401KA2240N-00171MA1999999101921MD1410001+9999MW1001OD139900901999REMSYN11858338 04976 /0800 10124 21076 30192 40244 54000 60002 70000 333 10140 21017 3/104 54407 59066 60001 70000 90720 91109=
0254583380999992021011812004+31150+118583FM-12+001699999V0201101N003019999999N019000199+00491-00391102561ADDAA106000091AA212000091AA324000091AY101021AY201021KA1240M+01401KA2240N-00171MA1999999102041MD1210121+9999MW1001OD139900901999REMSYN11858338 04969 /1103 10049 21039 30204 40256 52012 60002 70000 333 10140 21017 3/101 54405 59042 60001 70000 90720 91109=
0254583380999992021011818004+31150+118583FM-12+001699999V0200801N003019999999N018000199+00181-00411102571ADDAA106000091AA212000091AA324000091AY101021AY201021KA1120M+01401KA2120N-00171MA1999999102061MD1710011+9999MW1001OD139900601999REMSYN11858338 04968 /0803 10018 21041 30206 40257 57001 60002 70000 333 10140 21017 3/101 54405 59018 60001 70000 90720 91106=
0238583380999992021011821004+31150+118583FM-12+001699999V0200901N003019999999N017000199+00161-00471102531ADDAA106000091AA212000091AA324000091KA1240M+01401KA2240N-00141MA1999999102021MD1710041+9999MW1001OD139900501999REMSYN11858338 04967 /0903 10016 21047 30202 40253 57004 60002 700// 333 10140 21014 3/102 54405 59011 60001 70000 90720 91105=
0254583380999992021011900004+31150+118583FM-12+001699999V0200901N004019999999N015000199+00291-00341102581ADDAA106000091AA212000091AA324000091AY101021AY201021KA1120M+01401KA2120N+00021MA1999999102061MD1210041+9999MW1001OD139900701999REMSYN11858338 04965 /0904 10029 21034 30206 40258 52004 60002 70000 333 10140 20002 3/103 54405 59014 60001 70000 90720 91107=
0254583380999992021011903004+31150+118583FM-12+001699999V0201201N005019999999N015000199+00961-00371102571ADDAA106000091AA212000091AA324000091AY101021AY201021KA1240M+01401KA2240N+00111MA1999999102051MD1710011+9999MW1001OD139900901999REMSYN11858338 04965 /1205 10096 21037 30205 40257 57001 60002 70000 333 10140 20011 3/103 54405 59015 60001 70000 90720 91109=
0254583380999992021011906004+31150+118583FM-12+001699999V0200901N006019999999N017000199+01351-00331102311ADDAA106000091AA212000091AA324000091AY101021AY201021KA1240M+01401KA2240N+00111MA1999999101801MD1710251+9999MW1001OD139900901999REMSYN11858338 04967 /0906 10135 21033 30180 40231 57025 60002 70000 333 10140 20011 3/103 54405 59012 60001 70000 90720 91109=
0254583380999992021011909004+31150+118583FM-12+001699999V0200801N005019999999N018000199+01171-00441102311ADDAA106000091AA212000091AA324000091AY101021AY201021KA1240M+01411KA2240N+00111MA1999999101801MD1410001+9999MW1001OD139901001999REMSYN11858338 04968 /0805 10117 21044 30180 40231 54000 60002 70000 333 10141 20011 3/103 54415 59012 60001 70000 90720 91110=
0254583380999992021011912004+31150+118583FM-12+001699999V0201001N007019999999N014000199+00821+00111102331ADDAA106000091AA212000091AA324000091AY101021AY201021KA1240M+01411KA2240N+00111MA1999999101811MD1210011+9999MW1001OD139901301999REMSYN11858338 04964 /1007 10082 20011 30181 40233 52001 60002 70000 333 10141 20011 3/001 54405 59023 60001 70000 90720 91113=
0254583380999992021011918004+31150+118583FM-12+001699999V0201001N004019999999N010000199+00451+00241102251ADDAA106000091AA212000091AA324000091AY101021AY201021KA1120M+01411KA2120N+00111MA1999999101741MD1710071+9999MW1001OD139901301999REMSYN11858338 04960 /1004 10045 20024 30174 40225 57007 60002 70000 333 10141 20011 3/002 54405 59032 60001 70000 90720 91113=
0238583380999992021011921004+31150+118583FM-12+001699999V0201101N004019999999N006000199+00301+00181102191ADDAA106000091AA212000091AA324000091KA1240M+01411KA2240N+00111MA1999999101681MD1710061+9999MW1101OD139901301999REMSYN11858338 04956 /1104 10030 20018 30168 40219 57006 60002 710// 333 10141 20011 3/001 54405 59034 60001 70000 90720 91113=
0254583380999992021012000004+31150+118583FM-12+001699999V0201101N002019999999N004700199+00341+00251102271ADDAA106000091AA212000091AA324000091AY101021AY201021KA1120M+01411KA2120N+00231MA1999999101761MD1210081+9999MW1101OD139901201999REMSYN11858338 04947 /1102 10034 20025 30176 40227 52008 60002 71000 333 10141 20023 3/100 54405 59030 60001 70000 90720 91112=
0254583380999992021012003004+31150+118583FM-12+001699999V0201101N002019999999N012000199+01171+00301102271ADDAA106000091AA212000091AA324000091AY101021AY201021KA1240M+01411KA2240N+00231MA1999999101761MD1410001+9999MW1001OD139900701999REMSYN11858338 04962 /1102 10117 20030 30176 40227 54000 60002 70000 333 10141 20023 3/100 54405 59029 60001 70000 90720 91107=
0254583380999992021012006004+31150+118583FM-12+001699999V0200901N002019999999N018000199+01651+00211102001ADDAA106000091AA212000091AA324000091AY101021AY201021KA1240M+01651KA2240N+00231MA1999999101501MD1710261+9999MW1001OD139900701999REMSYN11858338 04968 /0902 10165 20021 30150 40200 57026 60002 70000 333 10165 20023 3/100 54405 59030 60001 70000 90720 91107=
0254583380999992021012009004+31150+118583FM-12+001699999V0200301N002019999999N018000199+01531+00381101971ADDAA106000091AA212000091AA324000091AY101021AY201021KA1240M+01741KA2240N+00231MA1999999101461MD1710041+9999MW1001OD139900501999REMSYN11858338 04968 /0302 10153 20038 30146 40197 57004 60002 70000 333 10174 20023 3/100 54405 59034 60001 70000 90720 91105=
0254583380999992021012012004+31150+118583FM-12+001699999V0200501N002019999999N012000199+01161+00531102051ADDAA106000091AA212000091AA324000091AY101021AY201021KA1240M+01741KA2240N+00231MA1999999101541MD1210081+9999MW1001OD139900501999REMSYN11858338 04962 /0502 10116 20053 30154 40205 52008 60002 70000 333 10174 20023 3/002 54405 59027 60001 70000 90720 91105=
0254583380999992021012018004+31150+118583FM-12+001699999V0200301N001019999999N007000199+00921+00591101961ADDAA106000091AA212000091AA324000091AY101021AY201021KA1120M+01741KA2120N+00231MA1999999101461MD1710071+9999MW1001OD139900501999REMSYN11858338 04957 /0301 10092 20059 30146 40196 57007 60002 70000 333 10174 20023 3/008 54405 59028 60001 70000 90720 91105=
0238583380999992021012021004+31150+118583FM-12+001699999V0202901N002019999999N001800199+00751+00691101961ADDAA106000531AA212000531AA324000531KA1240M+01741KA2240N+00231MA1999999101461MD1410001+9999MW1601OD139900401999REMSYN11858338 04918 /2902 10075 20069 30146 40196 54000 69952 760// 333 10174 20023 3/008 54405 59022 69951 70005 90720 91104=
0254583380999992021012100004+31150+118583FM-12+001699999V0202801N002019999999N001800199+00741+00711102121ADDAA106002031AA212002032AA324001832AY101021AY201021KA1120M+01741KA2120N+00341MA1999999101611MD1210151+9999MW1601OD139900401999REMSYN11858338 04918 /2802 10074 20071 30161 40212 52015 60022 76000 333 10174 20034 3/008 54405 59015 60021 70018 90720 91104=
0254583380999992021012103004+31150+118583FM-12+001699999V0202601N001019999999N003300199+00931+00871102071ADDAA106002031AA212002031AA324002431AY101021AY201021KA1240M+01741KA2240N+00731MA1999999101561MD1710051+9999MW1601OD139900401999REMSYN11858338 04933 /2601 10093 20087 30156 40207 57005 60022 76000 333 10174 20073 3/008 54415 59020 60021 70024 90720 91104=
0254583380999992021012106004+31150+118583FM-12+001699999V0202801N001019999999N005000199+01061+00801101881ADDAA106000631AA212002031AA324002431AY101021AY201021KA1240M+01741KA2240N+00731MA1999999101371MD1710191+9999MW1101OD139900401999REMSYN11858338 04950 /2801 10106 20080 30137 40188 57019 60022 71000 333 10174 20073 3/008 54416 59013 69961 70024 90720 91104=
0254583380999992021012109004+31150+118583FM-12+001699999V0203001N001019999999N003600199+00971+00811101941ADDAA106000131AA212002031AA324002531AY101021AY201021KA1240M+01531KA2240N+00731MA1999999101431MD1210061+9999MW1211OD139900401999REMSYN11858338 04936 /3001 10097 20081 30143 40194 52006 60022 72100 333 10153 20073 3/008 54416 59003 69911 70025 90720 91104=
0254583380999992021012112004+31150+118583FM-12+001699999V0202501N001019999999N002100199+00901+00811102061ADDAA106000131AA212000731AA324002531AY101021AY201021KA1240M+01161KA2240N+00731MA1999999101551MD1210121+9999MW1211OD139900401999REMSYN11858338 04921 /2501 10090 20081 30155 40206 52012 69972 72100 333 10116 20073 3/008 54415 58001 69911 70025 90720 91104=
0273583380999992021012118004+31150+118583FM-12+001699999V0203101N001019999999N001400199+00871+00831102011ADDAA106999999AA212000131AA324002531AY101021AY201021KA1120M+01061KA2120N+00731MA1999999101501MD1710061+9999MW1601OD139900401999REMSYN11858338 04914 /3101 10087 20083 30150 40201 57006 69912 76000 333 10106 20073 3/009 54415 58004 60001 70025 90720 91104=EQDQ01  00002PRCP06
0238583380999992021012121004+31150+118583FM-12+001699999V0200401N002019999999N001000199+00871+00861101901ADDAA106000131AA212000131AA324002131KA1240M+01061KA2240N+00731MA1999999101391MD1710111+9999MW1101OD139900401999REMSYN11858338 04910 /0402 10087 20086 30139 40190 57011 69912 710// 333 10106 20073 3/009 54405 59007 69911 70021 90720 91104=
0254583380999992021012200004+31150+118583FM-12+001699999V0203501N002019999999N001100199+00871+00861102051ADDAA106001031AA212001031AA324001931AY101021AY201021KA1120M+01061KA2120N+00741MA1999999101541MD1210151+9999MW1601OD139900401999REMSYN11858338 04911 /3502 10087 20086 30154 40205 52015 60012 76000 333 10106 20074 3/009 54405 59007 60011 70019 90720 91104=
0254583380999992021012203004+31150+118583FM-12+001699999V0200301N002019999999N001100199+00901+00891102051ADDAA106002031AA212002031AA324002231AY101021AY201021KA1240M+01061KA2240N+00861MA1999999101541MD1410001+9999MW1101OD139900501999REMSYN11858338 04911 /0302 10090 20089 30154 40205 54000 60022 71000 333 10106 20086 3/009 544// 59002 60021 70022 90720 91105=
0254583380999992021012206004+31150+118583FM-12+001699999V0200201N002019999999N001200199+00871+00861101801ADDAA106003031AA212004031AA324004231AY101021AY201021KA1240M+01061KA2240N+00861MA1999999101291MD1710251+9999MW1601OD139900501999REMSYN11858338 04912 /0202 10087 20086 30129 40180 57025 60042 76000 333 10106 20086 3/009 54415 59008 60031 70042 90720 91105=
0254583380999992021012209004+31150+118583FM-12+001699999V0200301N003019999999N001400199+00841+00831101831ADDAA106004031AA212006031AA324006431AY101021AY201021KA1240M+00971KA2240N+00841MA1999999101321MD1210031+9999MW1601OD139900601999REMSYN11858338 04914 /0303 10084 20083 30132 40183 52003 60062 76000 333 10097 20084 3/009 54415 59011 60041 70064 90720 91106=
0254583380999992021012212004+31150+118583FM-12+001699999V0200601N004019999999N004000199+00791+00761101891ADDAA106003031AA212005031AA324006631AY101021AY201021KA1240M+00901KA2240N+00791MA1999999101381MD1210061+9999MW1601OD139900801999REMSYN11858338 04940 /0604 10079 20076 30138 40189 52006 60052 76000 333 10090 20079 3/008 54415 59017 60031 70066 90720 91108=
0254583380999992021012218004+31150+118583FM-12+001699999V0200601N003019999999N003800199+00761+00751101871ADDAA106006031AA212008031AA324012431AY101021AY201021KA1120M+00901KA2120N+00761MA1999999101361MD1710061+9999MW1601OD139900801999REMSYN11858338 04938 /0603 10076 20075 30136 40187 57006 60082 76000 333 10090 20076 3/008 54415 59014 60061 70124 90720 91108=
0238583380999992021012221004+31150+118583FM-12+001699999V0200501N003019999999N002600199+00691+00681101791ADDAA106005031AA212008031AA324014731KA1240M+00901KA2240N+00691MA1999999101281MD1710081+9999MW1621OD139900801999REMSYN11858338 04926 /0503 10069 20068 30128 40179 57008 60082 762// 333 10090 20069 3/007 54415 59011 60051 70147 90720 91108=
0254583380999992021012300004+31150+118583FM-12+001699999V0200201N003019999999N003300199+00601+00591102021ADDAA106005031AA212010031AA324015831AY101021AY201021KA1120M+00901KA2120N+00601MA1999999101511MD1210231+9999MW1601OD139900701999REMSYN11858338 04933 /0203 10060 20059 30151 40202 52023 60102 76000 333 10090 20060 3/007 54415 59003 60051 70158 90720 91107=
0254583380999992021012303004+31150+118583FM-12+001699999V0200501N002019999999N005000199+00621+00591102161ADDAA106003031AA212008031AA324015631AY101021AY201021KA1240M+00901KA2240N+00591MA1999999101651MD1210141+9999MW1211OD139900701999REMSYN11858338 04950 /0502 10062 20059 30165 40216 52014 60082 72100 333 10090 20059 3/007 54415 58011 60031 70156 90720 91107=
0254583380999992021012306004+31150+118583FM-12+001699999V0200201N002019999999N006000199+00651+00581102071ADDAA106000731AA212005031AA324013631AY101021AY201021KA1240M+00871KA2240N+00591MA1999999101561MD1710091+9999MW1101OD139900701999REMSYN11858338 04956 /0202 10065 20058 30156 40207 57009 60052 71000 333 10087 20059 3/007 54415 58027 69971 70136 90720 91107=
0254583380999992021012309004+31150+118583FM-12+001699999V0203601N001019999999N007000199+00681+00541102141ADDAA106000091AA212003031AA324011331AY101021AY201021KA1240M+00841KA2240N+00591MA1999999101631MD1210071+9999MW1101OD139900701999REMSYN11858338 04957 /3601 10068 20054 30163 40214 52007 60032 71000 333 10084 20059 3/007 54415 58031 60001 70113 90720 91107=
0254583380999992021012312004+31150+118583FM-12+001699999V0203401N002019999999N002500199+00651+00581102341ADDAA106000091AA212000731AA324011131AY101021AY201021KA1240M+00791KA2240N+00591MA1999999101831MD1210201+9999MW1101OD139900601999REMSYN11858338 04925 /3402 10065 20058 30183 40234 52020 69972 71000 333 10079 20059 3/007 54415 58045 60001 70111 90720 91106=
0254583380999992021012318004+31150+118583FM-12+001699999V0201001N001019999999N002800199+00591+00501102351ADDAA106000091AA212000091AA324005331AY101021AY201021KA1120M+00761KA2120N+00591MA1999999101841MD1210021+9999MW1101OD139900501999REMSYN11858338 04928 /1001 10059 20050 30184 40235 52002 60002 71000 333 10076 20059 3/006 54415 58048 60001 70053 90720 91105=
0238583380999992021012321004+31150+118583FM-12+001699999V0200501N003019999999N003200199+00481+00381102421ADDAA106000091AA212000091AA324002931KA1240M+00691KA2240N+00481MA1999999101901MD1210061+9999MW1101OD139900501999REMSYN11858338 04932 /0503 10048 20038 30190 40242 52006 60002 710// 333 10069 20048 3/005 54415 58062 60001 70029 90720 91105=
0254583380999992021012400004+31150+118583FM-12+001699999V0200801N003019999999N002900199+00481+00411102391ADDAA106000091AA212000091AA324000731AY101021AY201021KA1120M+00681KA2120N+00451MA1999999101871MD1710031+9999MW1101OD139900601999REMSYN11858338 04929 /0803 10048 20041 30187 40239 57003 60002 71000 333 10068 20045 3/005 54415 58036 60001 70007 90720 91106=
0254583380999992021012403004+31150+118583FM-12+001699999V0200901N005019999999N005000199+00721+00491102371ADDAA106000091AA212000091AA324000091AY101021AY201021KA1240M+00741KA2240N+00451MA1999999101861MD1710011+9999MW1101OD139900801999REMSYN11858338 04950 /0905 10072 20049 30186 40237 57001 60002 71000 333 10074 20045 3/005 54405 58021 60001 70000 90720 91108=
0254583380999992021012406004+31150+118583FM-12+001699999V0200601N004019999999N006000199+00801+00491102241ADDAA106000091AA212000091AA324000091AY101021AY201021KA1240M+00881KA2240N+00451MA1999999101731MD1710131+9999MW1101OD139900801999REMSYN11858338 04956 /0604 10080 20049 30173 40224 57013 60002 71000 333 10088 20045 3/005 54405 58017 60001 70000 90720 91108=
0254583380999992021012409004+31150+118583FM-12+001699999V0200701N004019999999N005000199+00861+00521102181ADDAA106000091AA212000091AA324000091AY101021AY201021KA1240M+00901KA2240N+00451MA1999999101671MD1710061+9999MW1101OD139900901999REMSYN11858338 04950 /0704 10086 20052 30167 40218 57006 60002 71000 333 10090 20045 3/005 54405 58004 60001 70000 90720 91109=
0254583380999992021012412004+31150+118583FM-12+001699999V0200901N004019999999N004900199+00691+00551102151ADDAA106000091AA212000091AA324000091AY101021AY201021KA1240M+00901KA2240N+00451MA1999999101641MD1710031+9999MW1101OD139900901999REMSYN11858338 04949 /0904 10069 20055 30164 40215 57003 60002 71000 333 10090 20045 3/005 544// 59019 60001 70000 90720 91109=
0254583380999992021012418004+31150+118583FM-12+001699999V0201001N005019999999N004200199+00771+00701102101ADDAA106000091AA212000091AA324000091AY101021AY201021KA1120M+00901KA2120N+00451MA1999999101591MD1710061+9999MW1101OD139900901999REMSYN11858338 04942 /1005 10077 20070 30159 40210 57006 60002 71000 333 10090 20045 3/005 54405 59025 60001 70000 90720 91109=
0238583380999992021012421004+31150+118583FM-12+001699999V0201001N005019999999N003900199+00811+00741102071ADDAA106000091AA212000091AA324000091KA1240M+00901KA2240N+00451MA1999999101561MD1710031+9999MW1101OD139900901999REMSYN11858338 04939 /1005 10081 20074 30156 40207 57003 60002 710// 333 10090 20045 3/005 54405 59034 60001 70000 90720 91109=
0254583380999992021012500004+31150+118583FM-12+001699999V0201001N002019999999N003000199+00811+00771102191ADDAA106000091AA212000091AA324000091AY101021AY201021KA1120M+00901KA2120N+00481MA1999999101681MD1210121+9999MW1101OD139900901999REMSYN11858338 04930 /1002 10081 20077 30168 40219 52012 60002 71000 333 10090 20048 3/005 54405 59019 60001 70000 90720 91109=
0305583380999992021012503004+31150+118583FM-12+001699999V0202501N002019999999N002700199+00781+00741102221ADDAA106999999AA212999999AA324999999AY101021AY201021KA1240M+00901KA2240N+00621MA1999999101711MD1210031+9999MW1601OD139900801999REMSYN11858338 04927 /2502 10078 20074 30171 40222 52003 60002 76000 333 10090 20062 3/005 54405 59015 60001 70000 90720 91108=EQDQ01  00002PRCP06Q02  00002PRCP12Q03  00002PRCP24
0254583380999992021012506004+31150+118583FM-12+001699999V0202801N002019999999N003100199+00881+00801102021ADDAA106000091AA212000091AA324000091AY101021AY201021KA1240M+00901KA2240N+00621MA1999999101511MD1710201+9999MW1101OD139900801999REMSYN11858338 04931 /2802 10088 20080 30151 40202 57020 60002 71000 333 10090 20062 3/006 54405 59022 60001 70000 90720 91108=
0254583380999992021012509004+31150+118583FM-12+001699999V0202501N001019999999N001300199+00831+00821102061ADDAA106000831AA212000831AA324000831AY101021AY201021KA1240M+00901KA2240N+00621MA1999999101551MD1210041+9999MW1601OD139900801999REMSYN11858338 04913 /2501 10083 20082 30155 40206 52004 69982 76000 333 10090 20062 3/007 544// 59012 69981 70008 90720 91108=
0254583380999992021012512004+31150+118583FM-12+001699999V0202701N003019999999N001900199+00751+00741102111ADDAA106003031AA212003032AA324002832AY101021AY201021KA1240M+00901KA2240N+00621MA1999999101601MD1210051+9999MW1601OD139900601999REMSYN11858338 04919 /2703 10075 20074 30160 40211 52005 60032 76000 333 10090 20062 3/008 54405 59004 60031 70028 90720 91106=
0254583380999992021012518004+31150+118583FM-12+001699999V0202801N006019999999N002100199+00501+00491102301ADDAA106004031AA212007032AA324006832AY101021AY201021KA1120M+00901KA2120N+00501MA1999999101791MD1210091+9999MW1101OD139900901999REMSYN11858338 04921 /2806 10050 20049 30179 40230 52009 60072 71000 333 10090 20050 3/006 54415 58020 60041 70068 90720 91109=
0238583380999992021012521004+31150+118583FM-12+001699999V0202701N005019999999N001800199+00451+00421102311ADDAA106000631AA212006031AA324006831KA1240M+00901KA2240N+00451MA1999999101801MD1210011+9999MW1101OD139900901999REMSYN11858338 04918 /2705 10045 20042 30180 40231 52001 60062 710// 333 10090 20045 3/005 54415 58024 69961 70068 90720 91109=
0254583380999992021012600004+31150+118583FM-12+001699999V0202801N004019999999N002100199+00471+00431102451ADDAA106000091AA212004031AA324006831AY101021AY201021KA1120M+00901KA2120N+00441MA1999999101931MD1210131+9999MW1101OD139900901999REMSYN11858338 04921 /2804 10047 20043 30193 40245 52013 60042 71000 333 10090 20044 3/005 54415 58025 60001 70068 90720 91109=
0254583380999992021012603004+31150+118583FM-12+001699999V0202601N004019999999N002100199+00511+00441102601ADDAA106000091AA212000631AA324006831AY101021AY201021KA1240M+00901KA2240N+00441MA1999999102081MD1210151+9999MW1101OD139900901999REMSYN11858338 04921 /2604 10051 20044 30208 40260 52015 69962 71000 333 10090 20044 3/005 54415 58037 60001 70068 90720 91109=
0254583380999992021012606004+31150+118583FM-12+001699999V0202701N003019999999N002600199+00571+00451102411ADDAA106000091AA212000091AA324006831AY101021AY201021KA1240M+00881KA2240N+00441MA1999999101891MD1710191+9999MW1101OD139900901999REMSYN11858338 04926 /2703 10057 20045 30189 40241 57019 60002 71000 333 10088 20044 3/005 54415 58038 60001 70068 90720 91109=
0254583380999992021012609004+31150+118583FM-12+001699999V0202801N003019999999N001400199+00541+00511102461ADDAA106000091AA212000091AA324006031AY101021AY201021KA1240M+00831KA2240N+00441MA1999999101941MD1210051+9999MW1101OD139900801999REMSYN11858338 04914 /2803 10054 20051 30194 40246 52005 60002 71000 333 10083 20044 3/005 54415 58039 60001 70060 90720 91108=
0254583380999992021012612004+31150+118583FM-12+001699999V0202501N001019999999N000900199+00541+00511102571ADDAA106000231AA212000231AA324004231AY101021AY201021KA1240M+00751KA2240N+00441MA1999999102051MD1210111+9999MW1601OD139900801999REMSYN11858338 04909 /2501 10054 20051 30205 40257 52011 69922 76000 333 10075 20044 3/005 54415 58045 69921 70042 90720 91108=
0254583380999992021012618004+31150+118583FM-12+001699999V0202101N001019999999N000800199+00551+00541102631ADDAA106000631AA212000831AA324000831AY101021AY201021KA1120M+00581KA2120N+00441MA1999999102111MD1410001+9999MW1281OD139900601999REMSYN11858338 04908 /2101 10055 20054 30211 40263 54000 69982 72800 333 10058 20044 3/006 54405 58032 69961 70008 90720 91106=
0238583380999992021012621004+31150+118583FM-12+001699999V0200801N001019999999N000200199+00561+00551102471ADDAA106000131AA212000831AA324000831KA1240M+00581KA2240N+00441MA1999999101951MD1710161+9999MW1461OD139900401999REMSYN11858338 04902 /0801 10056 20055 30195 40247 57016 69982 746// 333 10058 20044 3/006 54405 58015 69911 70008 90720 91104=
0254583380999992021012700004+31150+118583FM-12+001699999V0200701N003019999999N001200199+00591+00581102551ADDAA106000091AA212000631AA324000831AY101021AY201021KA1120M+00591KA2120N+00471MA1999999102031MD1210081+9999MW1281OD139900501999REMSYN11858338 04912 /0703 10059 20058 30203 40255 52008 69962 72800 333 10059 20047 3/006 54405 58010 60001 70008 90720 91105=
0254583380999992021012703004+31150+118583FM-12+001699999V0200901N004019999999N004200199+00751+00711102471ADDAA106000091AA212000131AA324000831AY101021AY201021KA1240M+00751KA2240N+00511MA1999999101961MD1710071+9999MW1101OD139900801999REMSYN11858338 04942 /0904 10075 20071 30196 40247 57007 69912 71000 333 10075 20051 3/006 54405 59012 60001 70008 90720 91108=
0254583380999992021012706004+31150+118583FM-12+001699999V0200501N003019999999N004700199+00801+00631102171ADDAA106000091AA212000091AA324000831AY101021AY201021KA1240M+00881KA2240N+00531MA1999999101661MD1710301+9999MW1101OD139900801999REMSYN11858338 04947 /0503 10080 20063 30166 40217 57030 60002 71000 333 10088 20053 3/006 54405 59023 60001 70008 90720 91108=
0289583380999992021012709004+31150+118583FM-12+001699999V0200601N002019999999N003300199+00691+00591102111ADDAA106999999AA212999999AA324000831AY101021AY201021KA1240M+00881KA2240N+00531MA1999999101601MD1710061+9999MW1601OD139900801999REMSYN11858338 04933 /0602 10069 20059 30160 40211 57006 60002 76000 333 10088 20053 3/006 54405 59034 60001 70008 90720 91108=EQDQ01  00002PRCP06Q02  00002PRCP12
0254583380999992021012712004+31150+118583FM-12+001699999V0200401N002019999999N002900199+00671+00631102291ADDAA106000731AA212000731AA324001331AY101021AY201021KA1240M+00881KA2240N+00531MA1999999101781MD1210181+9999MW1601OD139900801999REMSYN11858338 04929 /0402 10067 20063 30178 40229 52018 69972 76000 333 10088 20053 3/006 54405 59027 69971 70013 90720 91108=
0254583380999992021012718004+31150+118583FM-12+001699999V0202901N002019999999N001500199+00661+00651102511ADDAA106000931AA212002032AA324001632AY101021AY201021KA1120M+00881KA2120N+00551MA1999999102001MD1210101+9999MW1211OD139900701999REMSYN11858338 04915 /2902 10066 20065 30200 40251 52010 60022 72100 333 10088 20055 3/007 54405 59011 69991 70016 90720 91107=
0238583380999992021012721004+31150+118583FM-12+001699999V0202501N003019999999N001300199+00631+00621102461ADDAA106000231AA212002032AA324001632KA1240M+00881KA2240N+00561MA1999999101951MD1710051+9999MW1101OD139900601999REMSYN11858338 04913 /2503 10063 20062 30195 40246 57005 60022 710// 333 10088 20056 3/006 54405 58000 69921 70016 90720 91106=
0254583380999992021012800004+31150+118583FM-12+001699999V0202901N004019999999N002800199+00671+00641102711ADDAA106000091AA212000931AA324001631AY101021AY201021KA1120M+00881KA2120N+00591MA1999999102191MD1210241+9999MW1101OD139900701999REMSYN11858338 04928 /2904 10067 20064 30219 40271 52024 69992 71000 333 10088 20059 3/005 54405 58016 60001 70016 90720 91107=
0254583380999992021012803004+31150+118583FM-12+001699999V0203001N005019999999N007000199+00871+00531102901ADDAA106000091AA212000231AA324001631AY101021AY201021KA1240M+00891KA2240N+00611MA1999999102391MD1210201+9999MW1001OD139900901999REMSYN11858338 04957 /3005 10087 20053 30239 40290 52020 69922 70000 333 10089 20061 3/005 54405 58043 60001 70016 90720 91109=
0254583380999992021012806004+31150+118583FM-12+001699999V0203101N004019999999N011000199+01101+00011102841ADDAA106000091AA212000091AA324001631AY101021AY201021KA1240M+01141KA2240N+00611MA1999999102331MD1710061+9999MW1001OD139900901999REMSYN11858338 04961 /3104 10110 20001 30233 40284 57006 60002 70000 333 10114 20061 3/005 54405 58067 60001 70016 90720 91109=
0254583380999992021012809004+31150+118583FM-12+001699999V0203001N002019999999N014000199+00941-00291102931ADDAA106000091AA212000091AA324001631AY101021AY201021KA1240M+01181KA2240N+00611MA1999999102421MD1210091+9999MW1001OD139900901999REMSYN11858338 04964 /3002 10094 21029 30242 40293 52009 60002 70000 333 10118 20061 3/005 54405 58082 60001 70016 90720 91109=
0254583380999992021012812004+31150+118583FM-12+001699999V0203401N003019999999N013000199+00651-00371103091ADDAA106000091AA212000091AA324000931AY101021AY201021KA1240M+01181KA2240N+00611MA1999999102571MD1210151+9999MW1001OD139900901999REMSYN11858338 04963 /3403 10065 21037 30257 40309 52015 60002 70000 333 10118 20061 3/003 544// 58079 60001 70009 90720 91109=
0254583380999992021012818004+31150+118583FM-12+001699999V0201101N002019999999N011000199+00101-00171103171ADDAA106000091AA212000091AA324000091AY101021AY201021KA1120M+01181KA2120N+00091MA1999999102651MD1210041+9999MW1001OD139900901999REMSYN11858338 04961 /1102 10010 21017 30265 40317 52004 60002 70000 333 10118 20009 3/100 54416 58065 60001 70000 90720 91109=
0238583380999992021012821004+31150+118583FM-12+001699999V0201201N002019999999N009000199-00081-00211103001ADDAA106000091AA212000091AA324000091KA1240M+01181KA2240N-00081MA1999999102481MD1710171+9999MW1001OD139900601999REMSYN11858338 04959 /1202 11008 21021 30248 40300 57017 60002 700// 333 10118 21008 3/101 54417 58053 60001 70000 90720 91106=
0254583380999992021012900004+31150+118583FM-12+001699999V0201301N001019999999N010000199+00021-00231103011ADDAA106000091AA212000091AA324000091AY101021AY201021KA1120M+01181KA2120N-00111MA1999999102491MD1210011+9999MW1001OD139900501999REMSYN11858338 04960 /1301 10002 21023 30249 40301 52001 60002 70000 333 10118 21011 3/102 54417 58030 60001 70000 90720 91105=
0254583380999992021012903004+31150+118583FM-12+001699999V0201601N002019999999N010000199+00841-00281102981ADDAA106000091AA212000091AA324000091AY101021AY201021KA1240M+01181KA2240N-00111MA1999999102461MD1710031+9999MW1001OD139900501999REMSYN11858338 04960 /1602 10084 21028 30246 40298 57003 60002 70000 333 10118 21011 3/102 544// 58007 60001 70000 90720 91105=
0254583380999992021012906004+31150+118583FM-12+001699999V0201401N003019999999N014000199+01061-00311102651ADDAA106000091AA212000091AA324000091AY101021AY201021KA1240M+01181KA2240N-00111MA1999999102131MD1710331+9999MW1001OD139900701999REMSYN11858338 04964 /1403 10106 21031 30213 40265 57033 60002 70000 333 10118 21011 3/102 544// 59020 60001 70000 90720 91107=
0254583380999992021012909004+31150+118583FM-12+001699999V0201001N002019999999N016000199+00991-00211102561ADDAA106000091AA212000091AA324000091AY101021AY201021KA1240M+01121KA2240N-00111MA1999999102041MD1710091+9999MW1001OD139900701999REMSYN11858338 04966 /1002 10099 21021 30204 40256 57009 60002 70000 333 10112 21011 3/102 54405 59038 60001 70000 90720 91107=
0254583380999992021012912004+31150+118583FM-12+001699999V0201101N003019999999N017000199+00531-00101102541ADDAA106000091AA212000091AA324000091AY101021AY201021KA1240M+01121KA2240N-00111MA1999999102021MD1710021+9999MW1001OD139900701999REMSYN11858338 04967 /1103 10053 21010 30202 40254 57002 60002 70000 333 10112 21011 3/000 54415 59055 60001 70000 90720 91107=
0254583380999992021012918004+31150+118583FM-12+001699999V0201101N002019999999N014000199+00251-00011102501ADDAA106000091AA212000091AA324000091AY101021AY201021KA1120M+01121KA2120N-00111MA1999999101991MD1410001+9999MW1001OD139900401999REMSYN11858338 04964 /1102 10025 21001 30199 40250 54000 60002 70000 333 10112 21011 3/001 54405 59066 60001 70000 90720 91104=
0238583380999992021012921004+31150+118583FM-12+001699999V0201201N002019999999N013000199+00121-00091102501ADDAA106000091AA212000091AA324000091KA1240M+01121KA2240N-00111MA1999999101981MD1710011+9999MW1001OD139900401999REMSYN11858338 04963 /1202 10012 21009 30198 40250 57001 60002 700// 333 10112 21011 3/100 54405 59050 60001 70000 90720 91104=
0254583380999992021013000004+31150+118583FM-12+001699999V0201001N003019999999N013000199+00251+00021102581ADDAA106000091AA212000091AA324000091AY101021AY201021KA1120M+01121KA2120N+00001MA1999999102061MD1210081+9999MW1001OD139900401999REMSYN11858338 04963 /1003 10025 20002 30206 40258 52008 60002 70000 333 10112 20000 3/100 54405 59043 60001 70000 90720 91104=
0254583380999992021013003004+31150+118583FM-12+001699999V0201201N002019999999N016000199+01191+00071102601ADDAA106000091AA212000091AA324000091AY101021AY201021KA1240M+01191KA2240N+00001MA1999999102091MD1210031+9999MW1001OD139900401999REMSYN11858338 04966 /1202 10119 20007 30209 40260 52003 60002 70000 333 10119 20000 3/100 54405 59037 60001 70000 90720 91104=
0254583380999992021013006004+31150+118583FM-12+001699999V0200501N003019999999N025000199+01471-00141102371ADDAA106000091AA212000091AA324000091AY101021AY201021KA1240M+01531KA2240N+00081MA1999999101861MD1710231+9999MW1001OD139900501999REMSYN11858338 04975 /0503 10147 21014 30186 40237 57023 60002 70000 333 10153 20008 3/100 54405 59027 60001 70000 90720 91105=
0254583380999992021013009004+31150+118583FM-12+001699999V0200601N002019999999N020000199+01351+00081102331ADDAA106000091AA212000091AA324000091AY101021AY201021KA1240M+01531KA2240N+00081MA1999999101821MD1710041+9999MW1001OD139900501999REMSYN11858338 04970 /0602 10135 20008 30182 40233 57004 60002 70000 333 10153 20008 3/100 54405 59022 60001 70000 90720 91105=
0254583380999992021013012004+31150+118583FM-12+001699999V0200701N002019999999N016000199+01081+00381102371ADDAA106000091AA212000091AA324000091AY101021AY201021KA1240M+01531KA2240N+00081MA1999999101861MD1210041+9999MW1001OD139900501999REMSYN11858338 04966 /0702 10108 20038 30186 40237 52004 60002 70000 333 10153 20008 3/001 54406 59016 60001 70000 90720 91105=
0254583380999992021013018004+31150+118583FM-12+001699999V0202801N001019999999N012000199+00881+00421102341ADDAA106000091AA212000091AA324000091AY101021AY201021KA1120M+01531KA2120N+00081MA1999999101841MD1710041+9999MW1001OD139900401999REMSYN11858338 04962 /2801 10088 20042 30184 40234 57004 60002 70000 333 10153 20008 3/007 54406 59015 60001 70000 90720 91104=
0238583380999992021013021004+31150+118583FM-12+001699999V0202501N002019999999N014000199+00851+00561102301ADDAA106000091AA212000091AA324000091KA1240M+01531KA2240N+00081MA1999999101791MD1710051+9999MW1001OD139900301999REMSYN11858338 04964 /2502 10085 20056 30179 40230 57005 60002 700// 333 10153 20008 3/007 54407 59019 60001 70000 90720 91103=
0254583380999992021013100004+31150+118583FM-12+001699999V0202701N001019999999N013000199+00891+00471102371ADDAA106000091AA212000091AA324000091AY101021AY201021KA1120M+01531KA2120N+00251MA1999999101861MD1210071+9999MW1001OD139900301999REMSYN11858338 04963 /2701 10089 20047 30186 40237 52007 60002 70000 333 10153 20025 3/007 54406 59020 60001 70000 90720 91103=
0254583380999992021013103004+31150+118583FM-12+001699999V0202701N001019999999N014000199+01151+00471102381ADDAA106000091AA212000091AA324000091AY101021AY201021KA1240M+01531KA2240N+00831MA1999999101871MD1210011+9999MW1001OD139900301999REMSYN11858338 04964 /2701 10115 20047 30187 40238 52001 60002 70000 333 10153 20083 3/007 544// 59022 60001 70000 90720 91103=
0254583380999992021013106004+31150+118583FM-12+001699999V0202401N002019999999N017000199+01301+00471102101ADDAA106000091AA212000091AA324000091AY101021AY201021KA1240M+01461KA2240N+00831MA1999999101601MD1710271+9999MW1001OD139900501999REMSYN11858338 04967 /2402 10130 20047 30160 40210 57027 60002 70000 333 10146 20083 3/007 54415 59026 60001 70000 90720 91105=
0254583380999992021013109004+31150+118583FM-12+001699999V0203001N001019999999N016000199+01141+00571102121ADDAA106000091AA212000091AA324000091AY101021AY201021KA1240M+01351KA2240N+00831MA1999999101611MD1210011+9999MW1001OD139900501999REMSYN11858338 04966 /3001 10114 20057 30161 40212 52001 60002 70000 333 10135 20083 3/007 54415 59021 60001 70000 90720 91105=
0254583380999992021013112004+31150+118583FM-12+001699999V0202301N001019999999N010000199+00981+00771102161ADDAA106000131AA212000131AA324000131AY101021AY201021KA1240M+01321KA2240N+00831MA1999999101651MD1210041+9999MW1001OD139900501999REMSYN11858338 04960 /2301 10098 20077 30165 40216 52004 69912 70000 333 10132 20083 3/008 54415 59021 69911 70001 90720 91105=
0254583380999992021013118004+31150+118583FM-12+001699999V0201201N001019999999N007000199+00811+00741102041ADDAA106000631AA212000731AA324000731AY101021AY201021KA1120M+01321KA2120N+00811MA1999999101531MD1710191+9999MW1601OD139900501999REMSYN11858338 04957 /1201 10081 20074 30153 40204 57019 69972 76000 333 10132 20081 3/008 54415 59031 69961 70007 90720 91105=
0238583380999992021013121004+31150+118583FM-12+001699999V0202401N001019999999N001700199+00761+00731102091ADDAA106005031AA212006032AA324005532KA1240M+01321KA2240N+00761MA1999999101581MD1210051+9999MW1601OD139900501999REMSYN11858338 04917 /2401 10076 20073 30158 40209 52005 60062 760// 333 10132 20076 3/008 54415 59021 60051 70055 90720 91105=
0254583380999992021020100004+31150+118583FM-12+001699999V0201201N001019999999N001600199+00781+00771102111ADDAA106006031AA212006031AA324006531AY101021AY201021KA1120M+01321KA2120N+00761MA1999999101601MD1210021+9999MW1211OD139900501999REMSYN11858338 04916 /1201 10078 20077 30160 40211 52002 60062 72100 333 10132 20076 3/008 54415 59026 60061 70065 90720 91105=
0254583380999992021020103004+31150+118583FM-12+001699999V0202101N001019999999N002100199+00841+00831102111ADDAA106001031AA212006031AA324006631AY101021AY201021KA1240M+01321KA2240N+00761MA1999999101601MD1410001+9999MW1211OD139900301999REMSYN11858338 04921 /2101 10084 20083 30160 40211 54000 60062 72100 333 10132 20076 3/008 54415 59027 60011 70066 90720 91103=
0254583380999992021020106004+31150+118583FM-12+001699999V0202601N002019999999N002000199+00911+00901102021ADDAA106003031AA212009031AA324009231AY101021AY201021KA1240M+01301KA2240N+00761MA1999999101511MD1710091+9999MW1601OD139900401999REMSYN11858338 04920 /2602 10091 20090 30151 40202 57009 60092 76000 333 10130 20076 3/008 54415 59009 60031 70092 90720 91104=
0254583380999992021020109004+31150+118583FM-12+001699999V0202301N002019999999N005000199+00881+00791102111ADDAA106003031AA212004031AA324009531AY101021AY201021KA1240M+01141KA2240N+00761MA1999999101601MD1210091+9999MW1101OD139900401999REMSYN11858338 04950 /2302 10088 20079 30160 40211 52009 60042 71000 333 10114 20076 3/008 54415 59001 60031 70095 90720 91104=
0254583380999992021020112004+31150+118583FM-12+001699999V0202501N002019999999N004800199+00841+00801102281ADDAA106000331AA212003031AA324009431AY101021AY201021KA1240M+00981KA2240N+00761MA1999999101771MD1210171+9999MW1101OD139900401999REMSYN11858338 04948 /2502 10084 20080 30177 40228 52017 60032 71000 333 10098 20076 3/008 54415 58012 69931 70094 90720 91104=
0254583380999992021020118004+31150+118583FM-12+001699999V0202301N001019999999N000400199+00261+00251102631ADDAA106000091AA212000331AA324008831AY101021AY201021KA1120M+00931KA2120N+00251MA1999999102111MD1210131+9999MW1461OD139900401999REMSYN11858338 04904 /2301 10026 20025 30211 40263 52013 69932 74600 333 10093 20025 3/002 54416 58058 60001 70088 90720 91104=
0238583380999992021020121004+31150+118583FM-12+001699999V0201001N001019999999N002000199+00461+00451102741ADDAA106000091AA212000091AA324004031KA1240M+00931KA2240N+00251MA1999999102221MD1210111+9999MW1101OD139900601999REMSYN11858338 04920 /1001 10046 20045 30222 40274 52011 60002 710// 333 10093 20025 3/002 54415 58064 60001 70040 90720 91106=
0254583380999992021020200004+31150+118583FM-12+001699999V0200601N003019999999N006000199+00541+00361102891ADDAA106000091AA212000091AA324003031AY101021AY201021KA1120M+00931KA2120N+00251MA1999999102371MD1210151+9999MW1101OD139900601999REMSYN11858338 04956 /0603 10054 20036 30237 40289 52015 60002 71000 333 10093 20025 3/002 54415 58077 60001 70030 90720 91106=
0254583380999992021020203004+31150+118583FM-12+001699999V0201001N004019999999N005000199+00731+00501102981ADDAA106000091AA212000091AA324002931AY101021AY201021KA1240M+00931KA2240N+00251MA1999999102461MD1210091+9999MW1101OD139900601999REMSYN11858338 04950 /1004 10073 20050 30246 40298 52009 60002 71000 333 10093 20025 3/002 54415 58086 60001 70029 90720 91106=
0254583380999992021020206004+31150+118583FM-12+001699999V0201001N002019999999N007000199+00961+00521102801ADDAA106000091AA212000091AA324000331AY101021AY201021KA1240M+00971KA2240N+00251MA1999999102281MD1710181+9999MW1001OD139900601999REMSYN11858338 04957 /1002 10096 20052 30228 40280 57018 60002 70000 333 10097 20025 3/003 54405 58077 60001 70003 90720 91106=
0254583380999992021020209004+31150+118583FM-12+001699999V0200501N001019999999N006000199+00901+00561102711ADDAA106000091AA212000091AA324000091AY101021AY201021KA1240M+01041KA2240N+00251MA1999999102191MD1710091+9999MW1101OD139900601999REMSYN11858338 04956 /0501 10090 20056 30219 40271 57009 60002 71000 333 10104 20025 3/005 544// 58059 60001 70000 90720 91106=
0254583380999992021020212004+31150+118583FM-12+001699999V0200601N002019999999N003700199+00621+00501102711ADDAA106000091AA212000091AA324000091AY101021AY201021KA1240M+01041KA2240N+00251MA1999999102191MD1410001+9999MW1101OD139900601999REMSYN11858338 04937 /0602 10062 20050 30219 40271 54000 60002 71000 333 10104 20025 3/005 54415 58042 60001 70000 90720 91106=
0254583380999992021020218004+31150+118583FM-12+001699999V0201001N002019999999N002400199+00411+00371102581ADDAA106000091AA212000091AA324000091AY101021AY201021KA1120M+01041KA2120N+00261MA1999999102071MD1710051+9999MW1101OD139900501999REMSYN11858338 04924 /1002 10041 20037 30207 40258 57005 60002 71000 333 10104 20026 3/003 54405 59004 60001 70000 90720 91105=
0238583380999992021020221004+31150+118583FM-12+001699999V0200901N003019999999N002300199+00421+00381102481ADDAA106000091AA212000091AA324000091KA1240M+01041KA2240N+00381MA1999999101971MD1710101+9999MW1101OD139900501999REMSYN11858338 04923 /0903 10042 20038 30197 40248 57010 60002 710// 333 10104 20038 3/002 544// 59025 60001 70000 90720 91105=
0254583380999992021020300004+31150+118583FM-12+001699999V0201101N004019999999N003200199+00481+00441102501ADDAA106000091AA212000091AA324000091AY101021AY201021KA1120M+01041KA2120N+00381MA1999999101981MD1210011+9999MW1101OD139900601999REMSYN11858338 04932 /1104 10048 20044 30198 40250 52001 60002 71000 333 10104 20038 3/002 54415 59039 60001 70000 90720 91106=
0254583380999992021020303004+31150+118583FM-12+001699999V0201801N002019999999N009000199+01131+00601102441ADDAA106000091AA212000091AA324000091AY101021AY201021KA1240M+01131KA2240N+00381MA1999999101931MD1710051+9999MW1001OD139900801999REMSYN11858338 04959 /1802 10113 20060 30193 40244 57005 60002 70000 333 10113 20038 3/002 54405 59053 60001 70000 90720 91108=
0254583380999992021020306004+31150+118583FM-12+001699999V0202701N002019999999N011000199+01481+00611102141ADDAA106000091AA212000091AA324000091AY101021AY201021KA1240M+01481KA2240N+00381MA1999999101631MD1710301+9999MW1001OD139900801999REMSYN11858338 04961 /2702 10148 20061 30163 40214 57030 60002 70000 333 10148 20038 3/002 54405 59065 60001 70000 90720 91108=
0254583380999992021020309004+31150+118583FM-12+001699999V0202401N002019999999N011000199+01561+00841102161ADDAA106000091AA212000091AA324000091AY101021AY201021KA1240M+01651KA2240N+00381MA1999999101651MD1210021+9999MW1001OD139900801999REMSYN11858338 04961 /2402 10156 20084 30165 40216 52002 60002 70000 333 10165 20038 3/002 54407 59054 60001 70000 90720 91108=
0254583380999992021020312004+31150+118583FM-12+001699999V0202901N001019999999N010000199+01151+00661102331ADDAA106000091AA212000091AA324000091AY101021AY201021KA1240M+01651KA2240N+00381MA1999999101821MD1210171+9999MW1001OD139900801999REMSYN11858338 04960 /2901 10115 20066 30182 40233 52017 60002 70000 333 10165 20038 3/005 54405 59037 60001 70000 90720 91108=
0254583380999992021020318004+31150+118583FM-12+001699999V0203501N001019999999N009000199+00981+00481102731ADDAA106000091AA212000091AA324000091AY101021AY201021KA1120M+01651KA2120N+00381MA1999999102221MD1210161+9999MW1001OD139900601999REMSYN11858338 04959 /3501 10098 20048 30222 40273 52016 60002 70000 333 10165 20038 3/006 54406 58015 60001 70000 90720 91106=
0238583380999992021020321004+31150+118583FM-12+001699999V0200801N003019999999N007000199+00711+00321102861ADDAA106000091AA212000091AA324000091KA1240M+01651KA2240N+00411MA1999999102351MD1210131+9999MW1001OD139900701999REMSYN11858338 04957 /0803 10071 20032 30235 40286 52013 60002 700// 333 10165 20041 3/004 54405 58038 60001 70000 90720 91107=
0254583380999992021020400004+31150+118583FM-12+001699999V0200701N005019999999N006000199+00631+00281102981ADDAA106000091AA212000091AA324000091AY101021AY201021KA1120M+01651KA2120N+00491MA1999999102471MD1210121+9999MW1101OD139900801999REMSYN11858338 04956 /0705 10063 20028 30247 40298 52012 60002 71000 333 10165 20049 3/004 54405 58049 60001 70000 90720 91108=
0254583380999992021020403004+31150+118583FM-12+001699999V0201001N006019999999N007000199+00991+00201103001ADDAA106000091AA212000091AA324000091AY101021AY201021KA1240M+01651KA2240N+00601MA1999999102491MD1210021+9999MW1001OD139900901999REMSYN11858338 04957 /1006 10099 20020 30249 40300 52002 60002 70000 333 10165 20060 3/004 54415 58056 60001 70000 90720 91109=
0254583380999992021020406004+31150+118583FM-12+001699999V0201001N006019999999N014000199+01241+00081102551ADDAA106000091AA212000091AA324000091AY101021AY201021KA1240M+01651KA2240N+00601MA1999999102041MD1710451+9999MW1001OD139901101999REMSYN11858338 04964 /1006 10124 20008 30204 40255 57045 60002 70000 333 10165 20060 3/004 54415 58041 60001 70000 90720 91111=
0254583380999992021020409004+31150+118583FM-12+001699999V0200701N005019999999N016000199+01211+00081102501ADDAA106000091AA212000091AA324000091AY101021AY201021KA1240M+01551KA2240N+00601MA1999999101991MD1710051+9999MW1001OD139901101999REMSYN11858338 04966 /0705 10121 20008 30199 40250 57005 60002 70000 333 10155 20060 3/004 54415 58034 60001 70000 90720 91111=
0254583380999992021020412004+31150+118583FM-12+001699999V0200901N004019999999N017000199+01011+00101102421ADDAA106000091AA212000091AA324000091AY101021AY201021KA1240M+01321KA2240N+00601MA1999999101911MD1710081+9999MW1001OD139901101999REMSYN11858338 04967 /0904 10101 20010 30191 40242 57008 60002 70000 333 10132 20060 3/005 54415 58009 60001 70000 90720 91111=
0254583380999992021020418004+31150+118583FM-12+001699999V0201001N004019999999N002200199+00691+00651102381ADDAA106004031AA212004031AA324004331AY101021AY201021KA1120M+01321KA2120N+00601MA1999999101871MD1710011+9999MW1601OD139900901999REMSYN11858338 04922 /1004 10069 20065 30187 40238 57001 60042 76000 333 10132 20060 3/006 54415 59035 60041 70043 90720 91109=
0238583380999992021020421004+31150+118583FM-12+001699999V0200801N003019999999N003000199+00661+00651102211ADDAA106005031AA212005031AA324005431KA1240M+01321KA2240N+00601MA1999999101701MD1710171+9999MW1211OD139900801999REMSYN11858338 04930 /0803 10066 20065 30170 40221 57017 60052 721// 333 10132 20060 3/006 54415 59065 60051 70054 90720 91108=
0254583380999992021020500004+31150+118583FM-12+001699999V0201101N002019999999N003600199+00661+00631102221ADDAA106001031AA212005031AA324005431AY161021AY201021KA1120M+01321KA2120N+00631MA1999999101711MD1210011+9999MW1101OD139900801999REMSYN11858338 04936 /1102 10066 20063 30171 40222 52001 60052 71060 333 10132 20063 3/006 544// 59076 60011 70054 90720 91108=
0254583380999992021020503004+31150+118583FM-12+001699999V0201901N001019999999N005000199+00831+00691102191ADDAA106000091AA212005031AA324005431AY101021AY201021KA1240M+01321KA2240N+00641MA1999999101681MD1710031+9999MW1101OD139900601999REMSYN11858338 04950 /1901 10083 20069 30168 40219 57003 60052 71000 333 10132 20064 3/007 54415 59081 60001 70054 90720 91106=
0254583380999992021020506004+31150+118583FM-12+001699999V0202701N002019999999N002300199+00791+00751101981ADDAA106002031AA212003031AA324006931AY101021AY201021KA1240M+01321KA2240N+00641MA1999999101471MD1710211+9999MW1601OD139900601999REMSYN11858338 04923 /2702 10079 20075 30147 40198 57021 60032 76000 333 10132 20064 3/007 54415 59057 60021 70069 90720 91106=
0254583380999992021020509004+31150+118583FM-12+001699999V0202901N002019999999N002600199+00771+00731102051ADDAA106002031AA212002031AA324007531AY101021AY201021KA1240M+01211KA2240N+00641MA1999999101541MD1210071+9999MW1211OD139900601999REMSYN11858338 04926 /2902 10077 20073 30154 40205 52007 60022 72100 333 10121 20064 3/007 54415 59045 60021 70075 90720 91106=
0254583380999992021020512004+31150+118583FM-12+001699999V0202501N002019999999N001400199+00741+00711102011ADDAA106000631AA212002031AA324007531AY101021AY201021KA1240M+01011KA2240N+00641MA1999999101501MD1710041+9999MW1101OD139900601999REMSYN11858338 04914 /2502 10074 20071 30150 40201 57004 60022 71000 333 10101 20064 3/007 54415 59041 69961 70075 90720 91106=
0254583380999992021020518004+31150+118583FM-12+001699999V0202401N002019999999N002400199+00761+00751102091ADDAA106000091AA212000631AA324003231AY101021AY201021KA1120M+00861KA2120N+00611MA1999999101581MD1210011+9999MW1101OD139900601999REMSYN11858338 04924 /2402 10076 20075 30158 40209 52001 69962 71000 333 10086 20061 3/005 54405 59029 60001 70032 90720 91106=
0238583380999992021020521004+31150+118583FM-12+001699999V0202401N002019999999N001300199+00661+00651102011ADDAA106000091AA212000091AA324002131KA1240M+00861KA2240N+00611MA1999999101501MD1710081+9999MW1101OD139900501999REMSYN11858338 04913 /2402 10066 20065 30150 40201 57008 60002 710// 333 10086 20061 3/005 544// 59020 60001 70021 90720 91105=
0254583380999992021020600004+31150+118583FM-12+001699999V0202301N003019999999N000300199+00591+00581102111ADDAA106000091AA212000091AA324002131AY101021AY201021KA1120M+00861KA2120N+00561MA1999999101601MD1210101+9999MW1461OD139900501999REMSYN11858338 04903 /2303 10059 20058 30160 40211 52010 60002 74600 333 10086 20056 3/003 54415 59011 60001 70021 90720 91105=
0254583380999992021020603004+31150+118583FM-12+001699999V0202401N003019999999N009000199+01071+01061102141ADDAA106000091AA212000091AA324002131AY101021AY201021KA1240M+01071KA2240N+00561MA1999999101631MD1210031+9999MW1001OD139900601999REMSYN11858338 04959 /2403 10107 20106 30163 40214 52003 60002 70000 333 10107 20056 3/003 54405 59005 60001 70021 90720 91106=
0254583380999992021020606004+31150+118583FM-12+001699999V0202601N003019999999N024000199+01661+00881101851ADDAA106000091AA212000091AA324000631AY101021AY201021KA1240M+01661KA2240N+00561MA1999999101351MD1710281+9999MW1001OD139900601999REMSYN11858338 04974 /2603 10166 20088 30135 40185 57028 60002 70000 333 10166 20056 3/003 54409 59012 60001 70006 90720 91106=
0254583380999992021020609004+31150+118583FM-12+001699999V0202501N001019999999N020000199+01741+00771101781ADDAA106000091AA212000091AA324000091AY101021AY201021KA1240M+01831KA2240N+00561MA1999999101281MD1710071+9999MW1001OD139900701999REMSYN11858338 04970 /2501 10174 20077 30128 40178 57007 60002 70000 333 10183 20056 3/003 54400 59026 60001 70000 90720 91107=
0254583380999992021020612004+31150+118583FM-12+001699999V0209999C999999999999N007000199+01031+00821101891ADDAA106000091AA212000091AA324000091AY101021AY201021KA1240M+01831KA2240N+00561MA1999999101381MD1210101+9999MW1001OD139900701999REMSYN11858338 04957 /2700 10103 20082 30138 40189 52010 60002 70000 333 10183 20056 3/007 54405 59012 60001 70000 90720 91107=
0254583380999992021020618004+31150+118583FM-12+001699999V0202601N001019999999N003800199+00741+00701102031ADDAA106000091AA212000091AA324000091AY101021AY201021KA1120M+01831KA2120N+00561MA1999999101531MD1410001+9999MW1101OD139900701999REMSYN11858338 04938 /2601 10074 20070 30153 40203 54000 60002 71000 333 10183 20056 3/004 544// 59005 60001 70000 90720 91107=
0238583380999992021020621004+31150+118583FM-12+001699999V0201101N002019999999N003000199+00561+00531101941ADDAA106000091AA212000091AA324000091KA1240M+01831KA2240N+00561MA1999999101441MD1710091+9999MW1101OD139900301999REMSYN11858338 04930 /1102 10056 20053 30144 40194 57009 60002 710// 333 10183 20056 3/004 54415 59006 60001 70000 90720 91103=
0254583380999992021020700004+31150+118583FM-12+001699999V0201201N001019999999N007000199+00701+00691102111ADDAA106000091AA212000091AA324000091AY101021AY201021KA1120M+01831KA2120N+00531MA1999999101601MD1210161+9999MW1101OD139900301999REMSYN11858338 04957 /1201 10070 20069 30160 40211 52016 60002 71000 333 10183 20053 3/003 54405 58000 60001 70000 90720 91103=
0254583380999992021020703004+31150+118583FM-12+001699999V0200901N001019999999N016000199+01431+00851102151ADDAA106000091AA212000091AA324000091AY101021AY201021KA1240M+01831KA2240N+00531MA1999999101651MD1210051+9999MW1001OD139900301999REMSYN11858338 04966 /0901 10143 20085 30165 40215 52005 60002 70000 333 10183 20053 3/003 54405 58002 60001 70000 90720 91103=
0254583380999992021020706004+31150+118583FM-12+001699999V0200101N002019999999N017000199+01791+00951101971ADDAA106000091AA212000091AA324000091AY101021AY201021KA1240M+01831KA2240N+00531MA1999999101471MD1710181+9999MW1001OD139900501999REMSYN11858338 04967 /0102 10179 20095 30147 40197 57018 60002 70000 333 10183 20053 3/003 54405 58012 60001 70000 90720 91105=
0305583380999992021020709004+31150+118583FM-12+001699999V0203501N001019999999N021000199+01611+00911102071ADDAA106999999AA212999999AA324999999AY101021AY201021KA1240M+01821KA2240N+00531MA1999999101571MD1210101+9999MW1211OD139900501999REMSYN11858338 04971 /3501 10161 20091 30157 40207 52010 60002 72100 333 10182 20053 3/003 54415 58029 60001 70000 90720 91105=EQDQ01  00002PRCP06Q02  00002PRCP12Q03  00002PRCP24
0158583380999992021020712004+31120+118580FM-12+001899999V0202121N0021199999999013100199+01371+01061102301ADDAA106999999AA224000091AJ199999999999999AY101061AY201061IA2999+00619KA1240M+01821KA2240N+00531MA1999999101791MD1210221+0411MW1001OD141200461360REMSYN004BUFR
0305583380999992021020718004+31150+118583FM-12+001699999V0200601N005019999999N004800199+00871+00751102721ADDAA106999999AA212999999AA324999999AY101021AY201021KA1120M+01821KA2120N+00531MA1999999102221MD1210161+9999MW1601OD139901001999REMSYN11858338 04948 /0605 10087 20075 30222 40272 52016 60002 76000 333 10182 20053 3/008 54405 58069 60001 70000 90720 91110=EQDQ01  00002PRCP06Q02  00002PRCP12Q03  00002PRCP24
0238583380999992021020721004+31150+118583FM-12+001699999V0200501N005019999999N009000199+00701+00581102781ADDAA106000931AA212000931AA324000931KA1240M+01821KA2240N+00531MA1999999102271MD1210051+9999MW1601OD139901001999REMSYN11858338 04959 /0505 10070 20058 30227 40278 52005 69992 760// 333 10182 20053 3/007 54405 58083 69991 70009 90720 91110=
0254583380999992021020800004+31150+118583FM-12+001699999V0200601N006019999999N016000199+00681+00391103051ADDAA106000931AA212000931AA324000931AY161021AY201021KA1120M+01821KA2120N+00681MA1999999102541MD1210271+9999MW1001OD139901101999REMSYN11858338 04966 /0606 10068 20039 30254 40305 52027 69992 70060 333 10182 20068 3/006 544// 58094 69991 70009 90720 91111=
0254583380999992021020803004+31150+118583FM-12+001699999V0200601N006019999999N020000199+00671+00331103221ADDAA106000091AA212000931AA324000931AY101021AY201021KA1240M+01821KA2240N+00661MA1999999102711MD1210171+9999MW1001OD139901201999REMSYN11858338 04970 /0606 10067 20033 30271 40322 52017 69992 70000 333 10182 20066 3/006 54418 58106 60001 70009 90720 91112=
0254583380999992021020806004+31150+118583FM-12+001699999V0200601N005019999999N023000199+00781+00141103081ADDAA106000091AA212000931AA324000931AY101021AY201021KA1240M+01801KA2240N+00651MA1999999102571MD1710141+9999MW1001OD139901201999REMSYN11858338 04973 /0605 10078 20014 30257 40308 57014 69992 70000 333 10180 20065 3/006 54410 58110 60001 70009 90720 91112=
0254583380999992021020809004+31150+118583FM-12+001699999V0200601N006019999999N028000199+00781+00031103061ADDAA106000091AA212000091AA324000931AY101021AY201021KA1240M+01611KA2240N+00651MA1999999102541MD1710031+9999MW1001OD139901201999REMSYN11858338 04978 /0606 10078 20003 30254 40306 57003 60002 70000 333 10161 20065 3/006 54418 58097 60001 70009 90720 91112=
0254583380999992021020812004+31150+118583FM-12+001699999V0200701N004019999999N028000199+00611+00061103191ADDAA106000091AA212000091AA324000931AY101021AY201021KA1240M+01401KA2240N+00591MA1999999102671MD1210131+9999MW1001OD139901201999REMSYN11858338 04978 /0704 10061 20006 30267 40319 52013 60002 70000 333 10140 20059 3/004 54418 58088 60001 70009 90720 91112=
0254583380999992021020818004+31150+118583FM-12+001699999V0200601N004019999999N026000199+00411-00011102981ADDAA106000091AA212000091AA324000931AY101021AY201021KA1120M+00871KA2120N+00401MA1999999102461MD1710131+9999MW1001OD139900901999REMSYN11858338 04976 /0604 10041 21001 30246 40298 57013 60002 70000 333 10087 20040 3/002 54415 58024 60001 70009 90720 91109=
0238583380999992021020821004+31150+118583FM-12+001699999V0200701N004019999999N028000199+00281+00021102861ADDAA106000091AA212000091AA324000091KA1240M+00831KA2240N+00281MA1999999102341MD1710121+9999MW1001OD139900801999REMSYN11858338 04978 /0704 10028 20002 30234 40286 57012 60002 700// 333 10083 20028 3/001 54415 58007 60001 70000 90720 91108=
0254583380999992021020900004+31150+118583FM-12+001699999V0201101N005019999999N022000199+00431+00131102891ADDAA106000091AA212000091AA324000091AY101021AY201021KA1120M+00831KA2120N+00241MA1999999102371MD1210031+9999MW1001OD139900901999REMSYN11858338 04972 /1105 10043 20013 30237 40289 52003 60002 70000 333 10083 20024 3/001 54415 59017 60001 70000 90720 91109=
0254583380999992021020903004+31150+118583FM-12+001699999V0201001N006019999999N024000199+00821+00221102771ADDAA106000091AA212000091AA324000091AY101021AY201021KA1240M+00841KA2240N+00241MA1999999102251MD1710121+9999MW1001OD139901001999REMSYN11858338 04974 /1006 10082 20022 30225 40277 57012 60002 70000 333 10084 20024 3/001 54405 59046 60001 70000 90720 91110=
0254583380999992021020906004+31150+118583FM-12+001699999V0200901N005019999999N027000199+01201+00381102481ADDAA106000091AA212000091AA324000091AY101021AY201021KA1240M+01201KA2240N+00241MA1999999101971MD1710281+9999MW1001OD139901001999REMSYN11858338 04977 /0905 10120 20038 30197 40248 57028 60002 70000 333 10120 20024 3/001 54405 59060 60001 70000 90720 91110=
0254583380999992021020912004+31150+118583FM-12+001699999V0200901N004019999999N029000199+00941+00341102411ADDAA106000091AA212000091AA324000091AY101021AY201021KA1240M+01271KA2240N+00241MA1999999101901MD1210081+9999MW1001OD139901001999REMSYN11858338 04979 /0904 10094 20034 30190 40241 52008 60002 70000 333 10127 20024 3/003 54405 59077 60001 70000 90720 91110=
0254583380999992021020918004+31150+118583FM-12+001699999V0201101N003019999999N021000199+00711+00481102281ADDAA106000091AA212000091AA324000091AY101021AY201021KA1120M+01271KA2120N+00241MA1999999101771MD1710081+9999MW1001OD139900801999REMSYN11858338 04971 /1103 10071 20048 30177 40228 57008 60002 70000 333 10127 20024 3/005 54405 59069 60001 70000 90720 91108=
0238583380999992021020921004+31150+118583FM-12+001699999V0200601N003019999999N017000199+00651+00501102191ADDAA106000091AA212000091AA324000091KA1240M+01271KA2240N+00241MA1999999101681MD1710091+9999MW1001OD139900701999REMSYN11858338 04967 /0603 10065 20050 30168 40219 57009 60002 700// 333 10127 20024 3/005 54405 59066 60001 70000 90720 91107=
