0081583670999992021010100004+31198+121336FM-15+000399999V0209999V001019999999Y009900599-00201-00801999999ADDMA1103301999999REMMET054METAR ZSSS 010000Z VRB01MPS CAVOK M02/M08 Q1033 NOSIG=
0089583670999992021010100304+31198+121336FM-15+000399999V0202401V002019999999Y009900599-00101-00801999999ADDMA1103301999999REMMET062METAR ZSSS 010030Z 24002MPS 210V300 CAVOK M01/M08 Q1033 NOSIG=
0080583670999992021010101004+31198+121336FM-15+000399999V0209999V002019999999Y009900599+00001-00901999999ADDMA1103301999999REMMET053METAR ZSSS 010100Z VRB02MPS CAVOK 00/M09 Q1033 NOSIG=
0088583670999992021010101304+31198+121336FM-15+000399999V0202201V003019999999Y009900599+00001-01001999999ADDMA1103301999999REMMET061METAR ZSSS 010130Z 22003MPS 160V260 CAVOK 00/M10 Q1033 NOSIG=
0088583670999992021010102004+31198+121336FM-15+000399999V0202401V003019999999Y009900599+00001-01001999999ADDMA1103201999999REMMET061METAR ZSSS 010200Z 24003MPS 200V290 CAVOK 00/M10 Q1032 NOSIG=
0088583670999992021010102304+31198+121336FM-15+000399999V0202901V003019999999Y009900599+00101-01001999999ADDMA1103201999999REMMET061METAR ZSSS 010230Z 29003MPS 230V340 CAVOK 01/M10 Q1032 NOSIG=
0088583670999992021010103004+31198+121336FM-15+000399999V0202901V003019999999Y009900599+00201-00901999999ADDMA1103201999999REMMET061METAR ZSSS 010300Z 29003MPS 210V330 CAVOK 02/M09 Q1032 NOSIG=
0088583670999992021010103304+31198+121336FM-15+000399999V0202601V003019999999Y009900599+00201-00801999999ADDMA1103101999999REMMET061METAR ZSSS 010330Z 26003MPS 170V320 CAVOK 02/M08 Q1031 NOSIG=
0088583670999992021010104004+31198+121336FM-15+000399999V0202401V003019999999Y009900599+00301-00901999999ADDMA1103101999999REMMET061METAR ZSSS 010400Z 24003MPS 190V330 CAVOK 03/M09 Q1031 NOSIG=
0088583670999992021010104304+31198+121336FM-15+000399999V0202401V003019999999Y009900599+00401-00901999999ADDMA1103001999999REMMET061METAR ZSSS 010430Z 24003MPS 190V300 CAVOK 04/M09 Q1030 NOSIG=
0088583670999992021010105004+31198+121336FM-15+000399999V0202301V004019999999Y009900599+00401-01201999999ADDMA1102901999999REMMET061METAR ZSSS 010500Z 23004MPS 180V320 CAVOK 04/M12 Q1029 NOSIG=
0088583670999992021010105304+31198+121336FM-15+000399999V0202901V004019999999Y009900599+00401-01201999999ADDMA1102901999999REMMET061METAR ZSSS 010530Z 29004MPS 270V330 CAVOK 04/M12 Q1029 NOSIG=
0080583670999992021010106004+31198+121336FM-15+000399999V0202901N003019999999Y009900599+00401-01301999999ADDMA1102901999999REMMET053METAR ZSSS 010600Z 29003MPS CAVOK 04/M13 Q1029 NOSIG=
0088583670999992021010106304+31198+121336FM-15+000399999V0202601V003019999999Y009900599+00401-01301999999ADDMA1102801999999REMMET061METAR ZSSS 010630Z 26003MPS 230V310 CAVOK 04/M13 Q1028 NOSIG=
0088583670999992021010107004+31198+121336FM-15+000399999V0202401V002019999999Y009900599+00401-01301999999ADDMA1102801999999REMMET061METAR ZSSS 010700Z 24002MPS 190V330 CAVOK 04/M13 Q1028 NOSIG=
0088583670999992021010107304+31198+121336FM-15+000399999V0202601V002019999999Y009900599+00501-01401999999ADDMA1102801999999REMMET061METAR ZSSS 010730Z 26002MPS 200V330 CAVOK 05/M14 Q1028 NOSIG=
0080583670999992021010108004+31198+121336FM-15+000399999V0202801N003019999999Y009900599+00401-01401999999ADDMA1102801999999REMMET053METAR ZSSS 010800Z 28003MPS CAVOK 04/M14 Q1028 NOSIG=
0088583670999992021010108304+31198+121336FM-15+000399999V0202601V003019999999Y009900599+00401-01301999999ADDMA1102801999999REMMET061METAR ZSSS 010830Z 26003MPS 220V310 CAVOK 04/M13 Q1028 NOSIG=
0088583670999992021010109004+31198+121336FM-15+000399999V0202801V002019999999Y009900599+00301-01401999999ADDMA1102901999999REMMET061METAR ZSSS 010900Z 28002MPS 250V340 CAVOK 03/M14 Q1029 NOSIG=
0080583670999992021010109304+31198+121336FM-15+000399999V0202801N002019999999Y009900599+00301-01301999999ADDMA1102801999999REMMET053METAR ZSSS 010930Z 28002MPS CAVOK 03/M13 Q1028 NOSIG=
0080583670999992021010110004+31198+121336FM-15+000399999V0209999V001019999999Y009900599+00301-01301999999ADDMA1102801999999REMMET053METAR ZSSS 011000Z VRB01MPS CAVOK 03/M13 Q1028 NOSIG=
0080583670999992021010110304+31198+121336FM-15+000399999V0209999V001019999999Y009900599+00301-01201999999ADDMA1102801999999REMMET053METAR ZSSS 011030Z VRB01MPS CAVOK 03/M12 Q1028 NOSIG=
0080583670999992021010111004+31198+121336FM-15+000399999V0209999V001019999999Y009900599+00201-01201999999ADDMA1102801999999REMMET053METAR ZSSS 011100Z VRB01MPS CAVOK 02/M12 Q1028 NOSIG=
0080583670999992021010111304+31198+121336FM-15+000399999V0202401N001019999999Y009900599+00201-01101999999ADDMA1102901999999REMMET053METAR ZSSS 011130Z 24001MPS CAVOK 02/M11 Q1029 NOSIG=
0080583670999992021010112004+31198+121336FM-15+000399999V0209999V001019999999Y009900599+00101-01101999999ADDMA1102901999999REMMET053METAR ZSSS 011200Z VRB01MPS CAVOK 01/M11 Q1029 NOSIG=
0080583670999992021010112304+31198+121336FM-15+000399999V0209999V001019999999Y009900599+00201-01201999999ADDMA1102901999999REMMET053METAR ZSSS 011230Z VRB01MPS CAVOK 02/M12 Q1029 NOSIG=
0080583670999992021010113004+31198+121336FM-15+000399999V0209999V001019999999Y009900599+00101-01101999999ADDMA1102901999999REMMET053METAR ZSSS 011300Z VRB01MPS CAVOK 01/M11 Q1029 NOSIG=
0080583670999992021010113304+31198+121336FM-15+000399999V0209999V001019999999Y009900599+00001-01001999999ADDMA1102901999999REMMET053METAR ZSSS 011330Z VRB01MPS CAVOK 00/M10 Q1029 NOSIG=
0081583670999992021010114004+31198+121336FM-15+000399999V0209999V001019999999Y009900599+00001-00801999999ADDMA1102901999999REMMET054METAR ZSSS 011400Z VRB01MPS CAVOK M00/M08 Q1029 NOSIG=
0081583670999992021010114304+31198+121336FM-15+000399999V0209999V001019999999Y009900599-00101-00701999999ADDMA1102901999999REMMET054METAR ZSSS 011430Z VRB01MPS CAVOK M01/M07 Q1029 NOSIG=
0081583670999992021010115004+31198+121336FM-15+000399999V0209999V001019999999Y009900599+00001-00901999999ADDMA1103001999999REMMET054METAR ZSSS 011500Z VRB01MPS CAVOK M00/M09 Q1030 NOSIG=
0081583670999992021010115304+31198+121336FM-15+000399999V0209999V001019999999Y009900599-00101-00801999999ADDMA1103001999999REMMET054METAR ZSSS 011530Z VRB01MPS CAVOK M01/M08 Q1030 NOSIG=
0081583670999992021010116004+31198+121336FM-15+000399999V0209999V001019999999Y009900599-00101-00801999999ADDMA1103001999999REMMET054METAR ZSSS 011600Z VRB01MPS CAVOK M01/M08 Q1030 NOSIG=
0081583670999992021010116304+31198+121336FM-15+000399999V0201901N001019999999Y009900599-00101-00701999999ADDMA1103001999999REMMET054METAR ZSSS 011630Z 19001MPS CAVOK M01/M07 Q1030 NOSIG=
0081583670999992021010117004+31198+121336FM-15+000399999V0201901N001019999999Y009900599-00101-00701999999ADDMA1103001999999REMMET054METAR ZSSS 011700Z 19001MPS CAVOK M01/M07 Q1030 NOSIG=
0081583670999992021010117304+31198+121336FM-15+000399999V0202001N001019999999Y009900599-00201-00701999999ADDMA1103001999999REMMET054METAR ZSSS 011730Z 20001MPS CAVOK M02/M07 Q1030 NOSIG=
0081583670999992021010118004+31198+121336FM-15+000399999V0202201N001019999999Y009900599-00201-00601999999ADDMA1103001999999REMMET054METAR ZSSS 011800Z 22001MPS CAVOK M02/M06 Q1030 NOSIG=
0081583670999992021010118304+31198+121336FM-15+000399999V0202201N002019999999Y009900599-00201-00601999999ADDMA1103001999999REMMET054METAR ZSSS 011830Z 22002MPS CAVOK M02/M06 Q1030 NOSIG=
0081583670999992021010119004+31198+121336FM-15+000399999V0202001N001019999999Y009900599-00201-00701999999ADDMA1103001999999REMMET054METAR ZSSS 011900Z 20001MPS CAVOK M02/M07 Q1030 NOSIG=
0081583670999992021010119304+31198+121336FM-15+000399999V0202001N001019999999Y009900599-00201-00501999999ADDMA1102901999999REMMET054METAR ZSSS 011930Z 20001MPS CAVOK M02/M05 Q1029 NOSIG=
0081583670999992021010120004+31198+121336FM-15+000399999V0202201N001019999999Y009900599-00301-00601999999ADDMA1102901999999REMMET054METAR ZSSS 012000Z 22001MPS CAVOK M03/M06 Q1029 NOSIG=
0081583670999992021010120304+31198+121336FM-15+000399999V0202201N001019999999Y009900599-00201-00601999999ADDMA1102901999999REMMET054METAR ZSSS 012030Z 22001MPS CAVOK M02/M06 Q1029 NOSIG=
0081583670999992021010121004+31198+121336FM-15+000399999V0209999C000019999999Y009900599-00301-00501999999ADDMA1102901999999REMMET054METAR ZSSS 012100Z 00000MPS CAVOK M03/M05 Q1029 NOSIG=
0081583670999992021010121304+31198+121336FM-15+000399999V0209999C000019999999Y009900599-00301-00701999999ADDMA1103001999999REMMET054METAR ZSSS 012130Z 00000MPS CAVOK M03/M07 Q1030 NOSIG=
0081583670999992021010122004+31198+121336FM-15+000399999V0209999V001019999999Y009900599-00301-00701999999ADDMA1103001999999REMMET054METAR ZSSS 012200Z VRB01MPS CAVOK M03/M07 Q1030 NOSIG=
0081583670999992021010122304+31198+121336FM-15+000399999V0201701N001019999999Y009900599-00401-00701999999ADDMA1103001999999REMMET054METAR ZSSS 012230Z 17001MPS CAVOK M04/M07 Q1030 NOSIG=
0081583670999992021010123004+31198+121336FM-15+000399999V0201701N001019999999Y009900599-00301-00601999999ADDMA1103001999999REMMET054METAR ZSSS 012300Z 17001MPS CAVOK M03/M06 Q1030 NOSIG=
0081583670999992021010123304+31198+121336FM-15+000399999V0209999C000019999999Y009900599-00201-00601999999ADDMA1103001999999REMMET054METAR ZSSS 012330Z 00000MPS CAVOK M02/M06 Q1030 NOSIG=
0080583670999992021010200004+31198+121336FM-15+000399999V0209999V001019999999Y009900599+00001-00501999999ADDMA1103001999999REMMET053METAR ZSSS 020000Z VRB01MPS CAVOK 00/M05 Q1030 NOSIG=
0088583670999992021010200304+31198+121336FM-15+000399999V0202401V002019999999Y009900599+00101-00601999999ADDMA1103101999999REMMET061METAR ZSSS 020030Z 24002MPS 220V310 CAVOK 01/M06 Q1031 NOSIG=
0088583670999992021010201004+31198+121336FM-15+000399999V0202801V003019999999Y009900599+00301-00701999999ADDMA1103101999999REMMET061METAR ZSSS 020100Z 28003MPS 250V320 CAVOK 03/M07 Q1031 NOSIG=
0088583670999992021010201304+31198+121336FM-15+000399999V0203501V002019999999Y009900599+00401-00601999999ADDMA1103101999999REMMET061METAR ZSSS 020130Z 35002MPS 340V040 CAVOK 04/M06 Q1031 NOSIG=
0088583670999992021010202004+31198+121336FM-15+000399999V0203301V002019999999Y009900599+00501-00601999999ADDMA1103101999999REMMET061METAR ZSSS 020200Z 33002MPS 270V020 CAVOK 05/M06 Q1031 NOSIG=
0080583670999992021010202304+31198+121336FM-15+000399999V0209999V001019999999Y009900599+00501-00701999999ADDMA1103101999999REMMET053METAR ZSSS 020230Z VRB01MPS CAVOK 05/M07 Q1031 NOSIG=
0088583670999992021010203004+31198+121336FM-15+000399999V0203201V003019999999Y009900599+00601-00701999999ADDMA1103101999999REMMET061METAR ZSSS 020300Z 32003MPS 270V010 CAVOK 06/M07 Q1031 NOSIG=
0088583670999992021010203304+31198+121336FM-15+000399999V0202801V003019999999Y009900599+00601-00701999999ADDMA1103001999999REMMET061METAR ZSSS 020330Z 28003MPS 230V320 CAVOK 06/M07 Q1030 NOSIG=
0088583670999992021010204004+31198+121336FM-15+000399999V0203601V003019999999Y009900599+00601-00701999999ADDMA1103001999999REMMET061METAR ZSSS 020400Z 36003MPS 300V030 CAVOK 06/M07 Q1030 NOSIG=
0088583670999992021010204304+31198+121336FM-15+000399999V0203101V002019999999Y009900599+00801-00701999999ADDMA1103001999999REMMET061METAR ZSSS 020430Z 31002MPS 260V020 CAVOK 08/M07 Q1030 NOSIG=
0088583670999992021010205004+31198+121336FM-15+000399999V0203501V003019999999Y009900599+00701-00701999999ADDMA1102901999999REMMET061METAR ZSSS 020500Z 35003MPS 310V030 CAVOK 07/M07 Q1029 NOSIG=
0080583670999992021010205304+31198+121336FM-15+000399999V0209999V003019999999Y009900599+00701-00701999999ADDMA1102901999999REMMET053METAR ZSSS 020530Z VRB03MPS CAVOK 07/M07 Q1029 NOSIG=
0088583670999992021010206004+31198+121336FM-15+000399999V0203601V004019999999Y009900599+00801-00701999999ADDMA1102901999999REMMET061METAR ZSSS 020600Z 36004MPS 330V030 CAVOK 08/M07 Q1029 NOSIG=
0088583670999992021010206304+31198+121336FM-15+000399999V0200301V003019999999Y009900599+00801-00801999999ADDMA1102901999999REMMET061METAR ZSSS 020630Z 03003MPS 340V070 CAVOK 08/M08 Q1029 NOSIG=
0080583670999992021010207004+31198+121336FM-15+000399999V0200301N005019999999Y009900599+00801-00701999999ADDMA1102901999999REMMET053METAR ZSSS 020700Z 03005MPS CAVOK 08/M07 Q1029 NOSIG=
0080583670999992021010207304+31198+121336FM-15+000399999V0200401N005019999999Y009900599+00701-00901999999ADDMA1102901999999REMMET053METAR ZSSS 020730Z 04005MPS CAVOK 07/M09 Q1029 NOSIG=
0088583670999992021010208004+31198+121336FM-15+000399999V0200601V005019999999Y009900599+00701-00701999999ADDMA1102901999999REMMET061METAR ZSSS 020800Z 06005MPS 040V100 CAVOK 07/M07 Q1029 NOSIG=
0088583670999992021010208304+31198+121336FM-15+000399999V0200401V005019999999Y009900599+00601-00601999999ADDMA1102901999999REMMET061METAR ZSSS 020830Z 04005MPS 030V090 CAVOK 06/M06 Q1029 NOSIG=
0080583670999992021010209004+31198+121336FM-15+000399999V0200601N003019999999Y009900599+00601-00501999999ADDMA1103001999999REMMET053METAR ZSSS 020900Z 06003MPS CAVOK 06/M05 Q1030 NOSIG=
0080583670999992021010209304+31198+121336FM-15+000399999V0200701N002019999999Y009900599+00601-00501999999ADDMA1102901999999REMMET053METAR ZSSS 020930Z 07002MPS CAVOK 06/M05 Q1029 NOSIG=
0088583670999992021010210004+31198+121336FM-15+000399999V0200801V002019999999Y009900599+00501-00401999999ADDMA1103001999999REMMET061METAR ZSSS 021000Z 08002MPS 060V120 CAVOK 05/M04 Q1030 NOSIG=
0080583670999992021010210304+31198+121336FM-15+000399999V0200901N002019999999Y009900599+00501-00301999999ADDMA1102901999999REMMET053METAR ZSSS 021030Z 09002MPS CAVOK 05/M03 Q1029 NOSIG=
0080583670999992021010211004+31198+121336FM-15+000399999V0200901N003019999999Y009900599+00501-00201999999ADDMA1103001999999REMMET053METAR ZSSS 021100Z 09003MPS CAVOK 05/M02 Q1030 NOSIG=
0088583670999992021010211304+31198+121336FM-15+000399999V0200501V002019999999Y009900599+00401-00201999999ADDMA1103101999999REMMET061METAR ZSSS 021130Z 05002MPS 010V080 CAVOK 04/M02 Q1031 NOSIG=
0088583670999992021010212004+31198+121336FM-15+000399999V0200601V002019999999Y009900599+00401-00201999999ADDMA1103101999999REMMET061METAR ZSSS 021200Z 06002MPS 030V090 CAVOK 04/M02 Q1031 NOSIG=
0080583670999992021010212304+31198+121336FM-15+000399999V0200401N003019999999Y009900599+00401-00101999999ADDMA1103101999999REMMET053METAR ZSSS 021230Z 04003MPS CAVOK 04/M01 Q1031 NOSIG=
0080583670999992021010213004+31198+121336FM-15+000399999V0200301N003019999999Y009900599+00201-00101999999ADDMA1103101999999REMMET053METAR ZSSS 021300Z 03003MPS CAVOK 02/M01 Q1031 NOSIG=
0080583670999992021010213304+31198+121336FM-15+000399999V0200301N003019999999Y009900599+00301-00101999999ADDMA1103101999999REMMET053METAR ZSSS 021330Z 03003MPS CAVOK 03/M01 Q1031 NOSIG=
0088583670999992021010214004+31198+121336FM-15+000399999V0200401V002019999999Y009900599+00301+00001999999ADDMA1103101999999REMMET061METAR ZSSS 021400Z 04002MPS 350V080 CAVOK 03/M00 Q1031 NOSIG=
0080583670999992021010214304+31198+121336FM-15+000399999V0209999C000019999999Y009900599+00201+00001999999ADDMA1103101999999REMMET053METAR ZSSS 021430Z 00000MPS CAVOK 02/M00 Q1031 NOSIG=
0080583670999992021010215004+31198+121336FM-15+000399999V0200101N001019999999Y009900599+00201-00101999999ADDMA1103101999999REMMET053METAR ZSSS 021500Z 01001MPS CAVOK 02/M01 Q1031 NOSIG=
0080583670999992021010215304+31198+121336FM-15+000399999V0200101N001019999999Y009900599+00201-00101999999ADDMA1103101999999REMMET053METAR ZSSS 021530Z 01001MPS CAVOK 02/M01 Q1031 NOSIG=
0080583670999992021010216004+31198+121336FM-15+000399999V0203201N002019999999Y009900599+00201-00101999999ADDMA1103201999999REMMET053METAR ZSSS 021600Z 32002MPS CAVOK 02/M01 Q1032 NOSIG=
0109583670999992021010216304+31198+121336FM-15+000399999V0209999V001012200019N008000199+00101-00201999999ADDGF100991999999999999999999MA1103201999999REMMET056METAR ZSSS 021630Z VRB01MPS 8000 NSC 01/M02 Q1032 NOSIG=
0109583670999992021010217004+31198+121336FM-15+000399999V0201801N001012200019N008000199+00101-00101999999ADDGF100991999999999999999999MA1103201999999REMMET056METAR ZSSS 021700Z 18001MPS 8000 NSC 01/M01 Q1032 NOSIG=
0110583670999992021010217304+31198+121336FM-15+000399999V0200101N002012200019N007000199+00001-00201999999ADDGF100991999999999999999999MA1103201999999REMMET057METAR ZSSS 021730Z 01002MPS 7000 NSC M00/M02 Q1032 NOSIG=
0110583670999992021010218004+31198+121336FM-15+000399999V0203601N003012200019N007000199+00001-00201999999ADDGF100991999999999999999999MA1103201999999REMMET057METAR ZSSS 021800Z 36003MPS 7000 NSC M00/M02 Q1032 NOSIG=
0110583670999992021010218304+31198+121336FM-15+000399999V0203601N002012200019N007000199+00001-00101999999ADDGF100991999999999999999999MA1103101999999REMMET057METAR ZSSS 021830Z 36002MPS 7000 NSC M00/M01 Q1031 NOSIG=
0109583670999992021010219004+31198+121336FM-15+000399999V0203501N003012200019N006000199+00001-00101999999ADDGF100991999999999999999999MA1103201999999REMMET056METAR ZSSS 021900Z 35003MPS 6000 NSC 00/M01 Q1032 NOSIG=
0119583670999992021010219304+31198+121336FM-15+000399999V0203601N002012200019N004600199+00001-00101999999ADDGF100991999999999999999999MA1103201999999MW1101REMMET060METAR ZSSS 021930Z 36002MPS 4600 BR NSC M00/M01 Q1032 NOSIG=
0160583670999992021010220004+31198+121336FM-15+000399999V0200101N003019999999N004000199+00001-00101999999ADDGA1041+012191999GE19MSL   +99999+99999GF199999041999012191999999MA1103101999999MW1101REMMET063METAR ZSSS 022000Z 01003MPS 4000 BR SCT040 M00/M01 Q1031 NOSIG=
0159583670999992021010220304+31198+121336FM-15+000399999V0203601N00201012191CN004000199+00101+00001999999ADDGA1071+012191999GE19MSL   +99999+99999GF199999071999012191999999MA1103101999999MW1101REMMET062METAR ZSSS 022030Z 36002MPS 4000 BR BKN040 01/M00 Q1031 NOSIG=
0158583670999992021010221004+31198+121336FM-15+000399999V0203501N00201012191CN004000199+00101+00001999999ADDGA1071+012191999GE19MSL   +99999+99999GF199999071999012191999999MA1103101999999MW1101REMMET061METAR ZSSS 022100Z 35002MPS 4000 BR BKN040 01/00 Q1031 NOSIG=
0158583670999992021010221304+31198+121336FM-15+000399999V0209999V00101012191CN004000199+00101+00001999999ADDGA1071+012191999GE19MSL   +99999+99999GF199999071999012191999999MA1103101999999MW1101REMMET061METAR ZSSS 022130Z VRB01MPS 4000 BR BKN040 01/00 Q1031 NOSIG=
0171583670999992021010222004+31198+121336FM-15+000399999V0200101N00301012191CN004000199+00001-00101999999ADDGA1071+012191999GE19MSL   +99999+99999GF199999071999012191999999MA1103101999999MW1101REMMET074METAR ZSSS 022200Z 01003MPS 4000 BR BKN040 00/M01 Q1031 BECMG TL2300 2500=
0158583670999992021010222304+31198+121336FM-15+000399999V0203601N00201012191CN004500199+00101+00001999999ADDGA1071+012191999GE19MSL   +99999+99999GF199999071999012191999999MA1103101999999MW1101REMMET061METAR ZSSS 022230Z 36002MPS 4500 BR BKN040 01/00 Q1031 NOSIG=
0117583670999992021010223004+31198+121336FM-15+000399999V0200301N002012200019N005000199+00301+00101999999ADDGF100991999999999999999999MA1103101999999MW1101REMMET058METAR ZSSS 022300Z 03002MPS 5000 BR NSC 03/01 Q1031 NOSIG=
0149583670999992021010223304+31198+121336FM-15+000399999V0200601N00301012191CN006000199+00501+00201999999ADDGA1071+012191999GE19MSL   +99999+99999GF199999071999012191999999MA1103101999999REMMET058METAR ZSSS 022330Z 06003MPS 6000 BKN040 05/02 Q1031 NOSIG=
0149583670999992021010300004+31198+121336FM-15+000399999V0200401N00301012191CN008000199+00501+00201999999ADDGA1071+012191999GE19MSL   +99999+99999GF199999071999012191999999MA1103201999999REMMET058METAR ZSSS 030000Z 04003MPS 8000 BKN040 05/02 Q1032 NOSIG=
0149583670999992021010300304+31198+121336FM-15+000399999V0200501N003019999999N008000199+00601+00201999999ADDGA1041+012191999GE19MSL   +99999+99999GF199999041999012191999999MA1103201999999REMMET058METAR ZSSS 030030Z 05003MPS 8000 SCT040 06/02 Q1032 NOSIG=
0157583670999992021010301004+31198+121336FM-15+000399999V0200601V003019999999N009999199+00801+00201999999ADDGA1041+012191999GE19MSL   +99999+99999GF199999041999012191999999MA1103201999999REMMET066METAR ZSSS 030100Z 06003MPS 040V110 9999 SCT040 08/02 Q1032 NOSIG=
0149583670999992021010301304+31198+121336FM-15+000399999V0200501N005019999999N009999199+00801+00201999999ADDGA1041+012191999GE19MSL   +99999+99999GF199999041999012191999999MA1103201999999REMMET058METAR ZSSS 030130Z 05005MPS 9999 SCT040 08/02 Q1032 NOSIG=
0149583670999992021010302004+31198+121336FM-15+000399999V0200701N006019999999N009999199+00901+00201999999ADDGA1041+012191999GE19MSL   +99999+99999GF199999041999012191999999MA1103201999999REMMET058METAR ZSSS 030200Z 07006MPS 9999 SCT040 09/02 Q1032 NOSIG=
0149583670999992021010302304+31198+121336FM-15+000399999V0200701N006019999999N009999199+00901+00201999999ADDGA1041+012191999GE19MSL   +99999+99999GF199999041999012191999999MA1103201999999REMMET058METAR ZSSS 030230Z 07006MPS 9999 SCT040 09/02 Q1032 NOSIG=
0149583670999992021010303004+31198+121336FM-15+000399999V0200701N005019999999N009999199+00801+00301999999ADDGA1041+012191999GE19MSL   +99999+99999GF199999041999012191999999MA1103101999999REMMET058METAR ZSSS 030300Z 07005MPS 9999 SCT040 08/03 Q1031 NOSIG=
0149583670999992021010303304+31198+121336FM-15+000399999V0200601N005019999999N009999199+00901+00301999999ADDGA1041+012191999GE19MSL   +99999+99999GF199999041999012191999999MA1103001999999REMMET058METAR ZSSS 030330Z 06005MPS 9999 SCT040 09/03 Q1030 NOSIG=
0149583670999992021010304004+31198+121336FM-15+000399999V0200701N007019999999N009999199+01001+00201999999ADDGA1041+012191999GE19MSL   +99999+99999GF199999041999012191999999MA1103001999999REMMET058METAR ZSSS 030400Z 07007MPS 9999 SCT040 10/02 Q1030 NOSIG=
0157583670999992021010304304+31198+121336FM-15+000399999V0200701V006019999999N009999199+01101+00101999999ADDGA1021+012191999GE19MSL   +99999+99999GF199999021999012191999999MA1102901999999REMMET066METAR ZSSS 030430Z 07006MPS 050V120 9999 FEW040 11/01 Q1029 NOSIG=
0149583670999992021010305004+31198+121336FM-15+000399999V0200701N005019999999N009999199+01101+00201999999ADDGA1021+012191999GE19MSL   +99999+99999GF199999021999012191999999MA1102901999999REMMET058METAR ZSSS 030500Z 07005MPS 9999 FEW040 11/02 Q1029 NOSIG=
0157583670999992021010305304+31198+121336FM-15+000399999V0201001V005019999999N009999199+01101+00101999999ADDGA1021+012191999GE19MSL   +99999+99999GF199999021999012191999999MA1102801999999REMMET066METAR ZSSS 030530Z 10005MPS 050V140 9999 FEW040 11/01 Q1028 NOSIG=
0157583670999992021010306004+31198+121336FM-15+000399999V0201101V006019999999N009999199+01101+00101999999ADDGA1021+012191999GE19MSL   +99999+99999GF199999021999012191999999MA1102801999999REMMET066METAR ZSSS 030600Z 11006MPS 080V140 9999 FEW040 11/01 Q1028 NOSIG=
0157583670999992021010306304+31198+121336FM-15+000399999V0200701V00601012191CN009999199+01101+00101999999ADDGA1071+012191999GE19MSL   +99999+99999GF199999071999012191999999MA1102901999999REMMET066METAR ZSSS 030630Z 07006MPS 050V120 9999 BKN040 11/01 Q1029 NOSIG=
0157583670999992021010307004+31198+121336FM-15+000399999V0201001V00501012191CN009999199+01101+00101999999ADDGA1071+012191999GE19MSL   +99999+99999GF199999071999012191999999MA1102901999999REMMET066METAR ZSSS 030700Z 10005MPS 060V130 9999 BKN040 11/01 Q1029 NOSIG=
0157583670999992021010307304+31198+121336FM-15+000399999V0200801V004019999999N009999199+01001+00101999999ADDGA1041+012191999GE19MSL   +99999+99999GF199999041999012191999999MA1102901999999REMMET066METAR ZSSS 030730Z 08004MPS 050V120 9999 SCT040 10/01 Q1029 NOSIG=
0160583670999992021010308004+31198+121336FM-15+000399999V0201101N005019999999N009999199+01001+00101999999ADDGA1021+012191999GE19MSL   +99999+99999GF199999021999012191999999MA1102901999999OC101001REMMET061METAR ZSSS 030800Z 11005G10MPS 9999 FEW040 10/01 Q1029 NOSIG=
0149583670999992021010308304+31198+121336FM-15+000399999V0200901N006019999999N009999199+00901+00201999999ADDGA1021+012191999GE19MSL   +99999+99999GF199999021999012191999999MA1102901999999REMMET058METAR ZSSS 030830Z 09006MPS 9999 FEW040 09/02 Q1029 NOSIG=
0149583670999992021010309004+31198+121336FM-15+000399999V0200901N005019999999N009999199+00901+00201999999ADDGA1041+012191999GE19MSL   +99999+99999GF199999041999012191999999MA1102901999999REMMET058METAR ZSSS 030900Z 09005MPS 9999 SCT040 09/02 Q1029 NOSIG=
0157583670999992021010309304+31198+121336FM-15+000399999V0200901V003019999999N009999199+00901+00201999999ADDGA1041+012191999GE19MSL   +99999+99999GF199999041999012191999999MA1102901999999REMMET066METAR ZSSS 030930Z 09003MPS 060V120 9999 SCT040 09/02 Q1029 NOSIG=
0149583670999992021010310004+31198+121336FM-15+000399999V0200801N004019999999N009999199+00901+00201999999ADDGA1021+012191999GE19MSL   +99999+99999GF199999021999012191999999MA1102901999999REMMET058METAR ZSSS 031000Z 08004MPS 9999 FEW040 09/02 Q1029 NOSIG=
0087583670999992021010310304+31198+121336FM-15+000399999V0200701V003019999999Y009900599+00801+00201999999ADDMA1103001999999REMMET060METAR ZSSS 031030Z 07003MPS 030V090 CAVOK 08/02 Q1030 NOSIG=
0087583670999992021010311004+31198+121336FM-15+000399999V0200401V003019999999Y009900599+00801+00201999999ADDMA1103001999999REMMET060METAR ZSSS 031100Z 04003MPS 020V100 CAVOK 08/02 Q1030 NOSIG=
0149583670999992021010311304+31198+121336FM-15+000399999V0200601N00301012191CN009999199+00801+00301999999ADDGA1071+012191999GE19MSL   +99999+99999GF199999071999012191999999MA1103001999999REMMET058METAR ZSSS 031130Z 06003MPS 9999 BKN040 08/03 Q1030 NOSIG=
0149583670999992021010312004+31198+121336FM-15+000399999V0200601N00401012191CN009999199+00901+00301999999ADDGA1071+012191999GE19MSL   +99999+99999GF199999071999012191999999MA1103101999999REMMET058METAR ZSSS 031200Z 06004MPS 9999 BKN040 09/03 Q1031 NOSIG=
0157583670999992021010312304+31198+121336FM-15+000399999V0200701V00301012191CN009999199+00901+00301999999ADDGA1071+012191999GE19MSL   +99999+99999GF199999071999012191999999MA1103101999999REMMET066METAR ZSSS 031230Z 07003MPS 050V110 9999 BKN040 09/03 Q1031 NOSIG=
0149583670999992021010313004+31198+121336FM-15+000399999V0200801N00301012191CN009999199+00901+00301999999ADDGA1071+012191999GE19MSL   +99999+99999GF199999071999012191999999MA1103001999999REMMET058METAR ZSSS 031300Z 08003MPS 9999 BKN040 09/03 Q1030 NOSIG=
0079583670999992021010313304+31198+121336FM-15+000399999V0200801N003019999999Y009900599+00901+00301999999ADDMA1103001999999REMMET052METAR ZSSS 031330Z 08003MPS CAVOK 09/03 Q1030 NOSIG=
0079583670999992021010314004+31198+121336FM-15+000399999V0200701N003019999999Y009900599+00901+00401999999ADDMA1103001999999REMMET052METAR ZSSS 031400Z 07003MPS CAVOK 09/04 Q1030 NOSIG=
0079583670999992021010314304+31198+121336FM-15+000399999V0200701N003019999999Y009900599+00901+00401999999ADDMA1103001999999REMMET052METAR ZSSS 031430Z 07003MPS CAVOK 09/04 Q1030 NOSIG=
0087583670999992021010315004+31198+121336FM-15+000399999V0200801V003019999999Y009900599+00901+00401999999ADDMA1103001999999REMMET060METAR ZSSS 031500Z 08003MPS 050V110 CAVOK 09/04 Q1030 NOSIG=
0079583670999992021010315304+31198+121336FM-15+000399999V0200701N002019999999Y009900599+00901+00301999999ADDMA1103101999999REMMET052METAR ZSSS 031530Z 07002MPS CAVOK 09/03 Q1031 NOSIG=
0079583670999992021010316004+31198+121336FM-15+000399999V0200401N002019999999Y009900599+00901+00401999999ADDMA1103101999999REMMET052METAR ZSSS 031600Z 04002MPS CAVOK 09/04 Q1031 NOSIG=
0079583670999992021010316304+31198+121336FM-15+000399999V0200401N003019999999Y009900599+00801+00401999999ADDMA1103101999999REMMET052METAR ZSSS 031630Z 04003MPS CAVOK 08/04 Q1031 NOSIG=
0079583670999992021010317004+31198+121336FM-15+000399999V0200501N002019999999Y009900599+00801+00401999999ADDMA1103001999999REMMET052METAR ZSSS 031700Z 05002MPS CAVOK 08/04 Q1030 NOSIG=
0079583670999992021010317304+31198+121336FM-15+000399999V0200801N002019999999Y009900599+00801+00401999999ADDMA1103001999999REMMET052METAR ZSSS 031730Z 08002MPS CAVOK 08/04 Q1030 NOSIG=
0079583670999992021010318004+31198+121336FM-15+000399999V0201001N003019999999Y009900599+00801+00401999999ADDMA1102901999999REMMET052METAR ZSSS 031800Z 10003MPS CAVOK 08/04 Q1029 NOSIG=
0079583670999992021010318304+31198+121336FM-15+000399999V0200701N004019999999Y009900599+00801+00401999999ADDMA1102801999999REMMET052METAR ZSSS 031830Z 07004MPS CAVOK 08/04 Q1028 NOSIG=
0079583670999992021010319004+31198+121336FM-15+000399999V0200501N003019999999Y009900599+00801+00401999999ADDMA1102901999999REMMET052METAR ZSSS 031900Z 05003MPS CAVOK 08/04 Q1029 NOSIG=
0079583670999992021010319304+31198+121336FM-15+000399999V0200701N003019999999Y009900599+00801+00401999999ADDMA1102801999999REMMET052METAR ZSSS 031930Z 07003MPS CAVOK 08/04 Q1028 NOSIG=
0079583670999992021010320004+31198+121336FM-15+000399999V0200601N002019999999Y009900599+00801+00401999999ADDMA1102801999999REMMET052METAR ZSSS 032000Z 06002MPS CAVOK 08/04 Q1028 NOSIG=
0079583670999992021010320304+31198+121336FM-15+000399999V0209999V001019999999Y009900599+00801+00401999999ADDMA1102901999999REMMET052METAR ZSSS 032030Z VRB01MPS CAVOK 08/04 Q1029 NOSIG=
0079583670999992021010321004+31198+121336FM-15+000399999V0200901N002019999999Y009900599+00801+00401999999ADDMA1102801999999REMMET052METAR ZSSS 032100Z 09002MPS CAVOK 08/04 Q1028 NOSIG=
0087583670999992021010321304+31198+121336FM-15+000399999V0200701V002019999999Y009900599+00901+00401999999ADDMA1102801999999REMMET060METAR ZSSS 032130Z 07002MPS 040V110 CAVOK 09/04 Q1028 NOSIG=
0079583670999992021010322004+31198+121336FM-15+000399999V0201101N002019999999Y009900599+00901+00401999999ADDMA1102901999999REMMET052METAR ZSSS 032200Z 11002MPS CAVOK 09/04 Q1029 NOSIG=
0087583670999992021010322304+31198+121336FM-15+000399999V0200901V003019999999Y009900599+00801+00401999999ADDMA1102801999999REMMET060METAR ZSSS 032230Z 09003MPS 050V110 CAVOK 08/04 Q1028 NOSIG=
0087583670999992021010323004+31198+121336FM-15+000399999V0201201V002019999999Y009900599+00801+00501999999ADDMA1102901999999REMMET060METAR ZSSS 032300Z 12002MPS 080V150 CAVOK 08/05 Q1029 NOSIG=
0087583670999992021010323304+31198+121336FM-15+000399999V0201001V002019999999Y009900599+00801+00501999999ADDMA1102901999999REMMET060METAR ZSSS 032330Z 10002MPS 060V120 CAVOK 08/05 Q1029 NOSIG=
0087583670999992021010400004+31198+121336FM-15+000399999V0201101V003019999999Y009900599+00901+00501999999ADDMA1102901999999REMMET060METAR ZSSS 040000Z 11003MPS 080V140 CAVOK 09/05 Q1029 NOSIG=
0079583670999992021010400304+31198+121336FM-15+000399999V0201101N004019999999Y009900599+01001+00501999999ADDMA1102801999999REMMET052METAR ZSSS 040030Z 11004MPS CAVOK 10/05 Q1028 NOSIG=
0087583670999992021010401004+31198+121336FM-15+000399999V0201301V005019999999Y009900599+01101+00501999999ADDMA1102801999999REMMET060METAR ZSSS 040100Z 13005MPS 100V160 CAVOK 11/05 Q1028 NOSIG=
0079583670999992021010401304+31198+121336FM-15+000399999V0201301N005019999999Y009900599+01101+00501999999ADDMA1102901999999REMMET052METAR ZSSS 040130Z 13005MPS CAVOK 11/05 Q1029 NOSIG=
0087583670999992021010402004+31198+121336FM-15+000399999V0201201V005019999999Y009900599+01201+00401999999ADDMA1102801999999REMMET060METAR ZSSS 040200Z 12005MPS 090V150 CAVOK 12/04 Q1028 NOSIG=
0087583670999992021010402304+31198+121336FM-15+000399999V0201301V003019999999Y009900599+01301+00501999999ADDMA1102801999999REMMET060METAR ZSSS 040230Z 13003MPS 070V180 CAVOK 13/05 Q1028 NOSIG=
0087583670999992021010403004+31198+121336FM-15+000399999V0201401V005019999999Y009900599+01401+00501999999ADDMA1102701999999REMMET060METAR ZSSS 040300Z 14005MPS 110V170 CAVOK 14/05 Q1027 NOSIG=
0157583670999992021010403304+31198+121336FM-15+000399999V0201101V00401010061CN009999199+01301+00501999999ADDGA1071+010061999GE19MSL   +99999+99999GF199999071999010061999999MA1102701999999REMMET066METAR ZSSS 040330Z 11004MPS 080V150 9999 BKN033 13/05 Q1027 NOSIG=
0157583670999992021010404004+31198+121336FM-15+000399999V0200901V00301010061CN009999199+01301+00501999999ADDGA1071+010061999GE19MSL   +99999+99999GF199999071999010061999999MA1102601999999REMMET066METAR ZSSS 040400Z 09003MPS 050V150 9999 BKN033 13/05 Q1026 NOSIG=
0157583670999992021010404304+31198+121336FM-15+000399999V0201101V00401010061CN009999199+01301+00501999999ADDGA1071+010061999GE19MSL   +99999+99999GF199999071999010061999999MA1102701999999REMMET066METAR ZSSS 040430Z 11004MPS 080V170 9999 BKN033 13/05 Q1027 NOSIG=
0157583670999992021010405004+31198+121336FM-15+000399999V0201101V00201010061CN009999199+01301+00501999999ADDGA1081+010061999GE19MSL   +99999+99999GF199999081999010061999999MA1102601999999REMMET066METAR ZSSS 040500Z 11002MPS 070V170 9999 OVC033 13/05 Q1026 NOSIG=
0149583670999992021010405304+31198+121336FM-15+000399999V0201101N00401010061CN009999199+01301+00501999999ADDGA1081+010061999GE19MSL   +99999+99999GF199999081999010061999999MA1102501999999REMMET058METAR ZSSS 040530Z 11004MPS 9999 OVC033 13/05 Q1025 NOSIG=
0167583670999992021010406004+31198+121336FM-15+000399999V0201101V00401010061CN009999199+01201+00501999999ADDGA1081+010061999GE19MSL   +99999+99999GF199999081999010061999999MA1102501999999MW1611REMMET070METAR ZSSS 040600Z 11004MPS 090V150 9999 -RA OVC033 12/05 Q1025 NOSIG=
0167583670999992021010406304+31198+121336FM-15+000399999V0200801V00401009141CN008000199+01101+00701999999ADDGA1081+009141999GE19MSL   +99999+99999GF199999081999009141999999MA1102501999999MW1611REMMET070METAR ZSSS 040630Z 08004MPS 050V140 8000 -RA OVC030 11/07 Q1025 NOSIG=
0159583670999992021010407004+31198+121336FM-15+000399999V0200901N00401009141CN008000199+01001+00601999999ADDGA1081+009141999GE19MSL   +99999+99999GF199999081999009141999999MA1102601999999MW1611REMMET062METAR ZSSS 040700Z 09004MPS 8000 -RA OVC030 10/06 Q1026 NOSIG=
0182583670999992021010407304+31198+121336FM-15+000399999V0200601N003010100619N008000199+01001+00601999999ADDGA1021+007011999GA2081+010061999GE19MSL   +99999+99999GF199999021999007011999999MA1102601999999MW1611REMMET069METAR ZSSS 040730Z 06003MPS 8000 -RA FEW023 OVC033 10/06 Q1026 NOSIG=
0190583670999992021010408004+31198+121336FM-15+000399999V0200601V003010100619N008000199+01001+00701999999ADDGA1021+006101999GA2081+010061999GE19MSL   +99999+99999GF199999021999006101999999MA1102601999999MW1611REMMET077METAR ZSSS 040800Z 06003MPS 030V090 8000 -RA FEW020 OVC033 10/07 Q1026 NOSIG=
0182583670999992021010408304+31198+121336FM-15+000399999V0200501N002010100619N008000199+01001+00701999999ADDGA1021+006101999GA2081+010061999GE19MSL   +99999+99999GF199999021999006101999999MA1102701999999MW1611REMMET069METAR ZSSS 040830Z 05002MPS 8000 -RA FEW020 OVC033 10/07 Q1027 NOSIG=
0190583670999992021010409004+31198+121336FM-15+000399999V0200601V002010100619N007000199+00901+00701999999ADDGA1021+006101999GA2081+010061999GE19MSL   +99999+99999GF199999021999006101999999MA1102701999999MW1611REMMET077METAR ZSSS 040900Z 06002MPS 020V090 7000 -RA FEW020 OVC033 09/07 Q1027 NOSIG=
0182583670999992021010409304+31198+121336FM-15+000399999V0200401N003010100619N007000199+00901+00701999999ADDGA1041+004881999GA2081+010061999GE19MSL   +99999+99999GF199999041999004881999999MA1102701999999MW1611REMMET069METAR ZSSS 040930Z 04003MPS 7000 -RA SCT016 OVC033 09/07 Q1027 NOSIG=
0182583670999992021010410004+31198+121336FM-15+000399999V0200501N004010100619N007000199+00901+00701999999ADDGA1041+004881999GA2081+010061999GE19MSL   +99999+99999GF199999041999004881999999MA1102701999999MW1611REMMET069METAR ZSSS 041000Z 05004MPS 7000 -RA SCT016 OVC033 09/07 Q1027 NOSIG=
0172583670999992021010410304+31198+121336FM-15+000399999V0200601N004010100619N007000199+00901+00701999999ADDGA1041+004881999GA2081+010061999GE19MSL   +99999+99999GF199999041999004881999999MA1102701999999REMMET065METAR ZSSS 041030Z 06004MPS 7000 SCT016 OVC033 09/07 Q1027 NOSIG=
0180583670999992021010411004+31198+121336FM-15+000399999V0200501V004010100619N007000199+00901+00601999999ADDGA1021+004881999GA2081+010061999GE19MSL   +99999+99999GF199999021999004881999999MA1102701999999REMMET073METAR ZSSS 041100Z 05004MPS 030V100 7000 FEW016 OVC033 09/06 Q1027 NOSIG=
0149583670999992021010411304+31198+121336FM-15+000399999V0200601N00301010061CN009999199+00901+00601999999ADDGA1071+010061999GE19MSL   +99999+99999GF199999071999010061999999MA1102701999999REMMET058METAR ZSSS 041130Z 06003MPS 9999 BKN033 09/06 Q1027 NOSIG=
0149583670999992021010412004+31198+121336FM-15+000399999V0200301N00201010061CN009999199+00901+00601999999ADDGA1071+010061999GE19MSL   +99999+99999GF199999071999010061999999MA1102801999999REMMET058METAR ZSSS 041200Z 03002MPS 9999 BKN033 09/06 Q1028 NOSIG=
0149583670999992021010412304+31198+121336FM-15+000399999V0200201N00201010061CN009999199+00901+00601999999ADDGA1071+010061999GE19MSL   +99999+99999GF199999071999010061999999MA1102801999999REMMET058METAR ZSSS 041230Z 02002MPS 9999 BKN033 09/06 Q1028 NOSIG=
0149583670999992021010413004+31198+121336FM-15+000399999V0200101N00401010061CN009999199+00901+00701999999ADDGA1071+010061999GE19MSL   +99999+99999GF199999071999010061999999MA1102801999999REMMET058METAR ZSSS 041300Z 01004MPS 9999 BKN033 09/07 Q1028 NOSIG=
0149583670999992021010413304+31198+121336FM-15+000399999V0200101N00401010061CN009999199+00901+00701999999ADDGA1071+010061999GE19MSL   +99999+99999GF199999071999010061999999MA1102801999999REMMET058METAR ZSSS 041330Z 01004MPS 9999 BKN033 09/07 Q1028 NOSIG=
0149583670999992021010414004+31198+121336FM-15+000399999V0200101N00401010061CN009999199+00901+00701999999ADDGA1071+010061999GE19MSL   +99999+99999GF199999071999010061999999MA1102801999999REMMET058METAR ZSSS 041400Z 01004MPS 9999 BKN033 09/07 Q1028 NOSIG=
0149583670999992021010414304+31198+121336FM-15+000399999V0200201N00301010061CN009999199+00901+00701999999ADDGA1071+010061999GE19MSL   +99999+99999GF199999071999010061999999MA1102801999999REMMET058METAR ZSSS 041430Z 02003MPS 9999 BKN033 09/07 Q1028 NOSIG=
0149583670999992021010415004+31198+121336FM-15+000399999V0200401N00301010061CN009999199+00901+00701999999ADDGA1071+010061999GE19MSL   +99999+99999GF199999071999010061999999MA1102801999999REMMET058METAR ZSSS 041500Z 04003MPS 9999 BKN033 09/07 Q1028 NOSIG=
0157583670999992021010415304+31198+121336FM-15+000399999V0200301V00401010061CN009999199+00901+00601999999ADDGA1071+010061999GE19MSL   +99999+99999GF199999071999010061999999MA1102801999999REMMET066METAR ZSSS 041530Z 03004MPS 010V070 9999 BKN033 09/06 Q1028 NOSIG=
0149583670999992021010416004+31198+121336FM-15+000399999V0200401N00501010061CN009999199+00901+00701999999ADDGA1071+010061999GE19MSL   +99999+99999GF199999071999010061999999MA1102801999999REMMET058METAR ZSSS 041600Z 04005MPS 9999 BKN033 09/07 Q1028 NOSIG=
0149583670999992021010416304+31198+121336FM-15+000399999V0200401N00401010061CN009999199+00901+00701999999ADDGA1071+010061999GE19MSL   +99999+99999GF199999071999010061999999MA1102801999999REMMET058METAR ZSSS 041630Z 04004MPS 9999 BKN033 09/07 Q1028 NOSIG=
0149583670999992021010417004+31198+121336FM-15+000399999V0200501N00401010061CN009999199+00901+00601999999ADDGA1071+010061999GE19MSL   +99999+99999GF199999071999010061999999MA1102801999999REMMET058METAR ZSSS 041700Z 05004MPS 9999 BKN033 09/06 Q1028 NOSIG=
0149583670999992021010417304+31198+121336FM-15+000399999V0200501N00501010061CN009999199+00901+00601999999ADDGA1071+010061999GE19MSL   +99999+99999GF199999071999010061999999MA1102801999999REMMET058METAR ZSSS 041730Z 05005MPS 9999 BKN033 09/06 Q1028 NOSIG=
0149583670999992021010418004+31198+121336FM-15+000399999V0200501N00501010061CN009999199+00801+00501999999ADDGA1071+010061999GE19MSL   +99999+99999GF199999071999010061999999MA1102701999999REMMET058METAR ZSSS 041800Z 05005MPS 9999 BKN033 08/05 Q1027 NOSIG=
0149583670999992021010418304+31198+121336FM-15+000399999V0200501N00401010061CN009999199+00801+00501999999ADDGA1071+010061999GE19MSL   +99999+99999GF199999071999010061999999MA1102701999999REMMET058METAR ZSSS 041830Z 05004MPS 9999 BKN033 08/05 Q1027 NOSIG=
0149583670999992021010419004+31198+121336FM-15+000399999V0200401N00501010061CN009999199+00801+00501999999ADDGA1071+010061999GE19MSL   +99999+99999GF199999071999010061999999MA1102701999999REMMET058METAR ZSSS 041900Z 04005MPS 9999 BKN033 08/05 Q1027 NOSIG=
0149583670999992021010419304+31198+121336FM-15+000399999V0200301N00401010061CN009999199+00801+00501999999ADDGA1071+010061999GE19MSL   +99999+99999GF199999071999010061999999MA1102701999999REMMET058METAR ZSSS 041930Z 03004MPS 9999 BKN033 08/05 Q1027 NOSIG=
0149583670999992021010420004+31198+121336FM-15+000399999V0200401N00501010061CN009999199+00801+00401999999ADDGA1071+010061999GE19MSL   +99999+99999GF199999071999010061999999MA1102701999999REMMET058METAR ZSSS 042000Z 04005MPS 9999 BKN033 08/04 Q1027 NOSIG=
0149583670999992021010420304+31198+121336FM-15+000399999V0200301N00501010061CN009999199+00801+00301999999ADDGA1071+010061999GE19MSL   +99999+99999GF199999071999010061999999MA1102801999999REMMET058METAR ZSSS 042030Z 03005MPS 9999 BKN033 08/03 Q1028 NOSIG=
0149583670999992021010421004+31198+121336FM-15+000399999V0200301N00501010061CN009999199+00801+00301999999ADDGA1071+010061999GE19MSL   +99999+99999GF199999071999010061999999MA1102701999999REMMET058METAR ZSSS 042100Z 03005MPS 9999 BKN033 08/03 Q1027 NOSIG=
0149583670999992021010421304+31198+121336FM-15+000399999V0200401N00501010061CN009999199+00801+00301999999ADDGA1071+010061999GE19MSL   +99999+99999GF199999071999010061999999MA1102701999999REMMET058METAR ZSSS 042130Z 04005MPS 9999 BKN033 08/03 Q1027 NOSIG=
0149583670999992021010422004+31198+121336FM-15+000399999V0200301N005019999999N009999199+00801+00301999999ADDGA1021+010061999GE19MSL   +99999+99999GF199999021999010061999999MA1102801999999REMMET058METAR ZSSS 042200Z 03005MPS 9999 FEW033 08/03 Q1028 NOSIG=
0149583670999992021010422304+31198+121336FM-15+000399999V0200301N005019999999N009999199+00801+00301999999ADDGA1021+010061999GE19MSL   +99999+99999GF199999021999010061999999MA1102801999999REMMET058METAR ZSSS 042230Z 03005MPS 9999 FEW033 08/03 Q1028 NOSIG=
0149583670999992021010423004+31198+121336FM-15+000399999V0200301N005019999999N009999199+00801+00301999999ADDGA1021+010061999GE19MSL   +99999+99999GF199999021999010061999999MA1102901999999REMMET058METAR ZSSS 042300Z 03005MPS 9999 FEW033 08/03 Q1029 NOSIG=
0079583670999992021010423304+31198+121336FM-15+000399999V0200301N005019999999Y009900599+00801+00401999999ADDMA1102901999999REMMET052METAR ZSSS 042330Z 03005MPS CAVOK 08/04 Q1029 NOSIG=
0087583670999992021010500004+31198+121336FM-15+000399999V0200301V005019999999Y009900599+00801+00401999999ADDMA1102901999999REMMET060METAR ZSSS 050000Z 03005MPS 360V060 CAVOK 08/04 Q1029 NOSIG=
0149583670999992021010500304+31198+121336FM-15+000399999V0200301N005019999999N009999199+00801+00501999999ADDGA1021+004881999GE19MSL   +99999+99999GF199999021999004881999999MA1103001999999REMMET058METAR ZSSS 050030Z 03005MPS 9999 FEW016 08/05 Q1030 NOSIG=
0149583670999992021010501004+31198+121336FM-15+000399999V0200301N00801006101CN009999199+00801+00501999999ADDGA1071+006101999GE19MSL   +99999+99999GF199999071999006101999999MA1103001999999REMMET058METAR ZSSS 050100Z 03008MPS 9999 BKN020 08/05 Q1030 NOSIG=
0149583670999992021010501304+31198+121336FM-15+000399999V0200201N00601006101CN007000199+00801+00501999999ADDGA1071+006101999GE19MSL   +99999+99999GF199999071999006101999999MA1103001999999REMMET058METAR ZSSS 050130Z 02006MPS 7000 BKN020 08/05 Q1030 NOSIG=
0149583670999992021010502004+31198+121336FM-15+000399999V0200301N00701006101CN006000199+00801+00401999999ADDGA1071+006101999GE19MSL   +99999+99999GF199999071999006101999999MA1103001999999REMMET058METAR ZSSS 050200Z 03007MPS 6000 BKN020 08/04 Q1030 NOSIG=
0149583670999992021010502304+31198+121336FM-15+000399999V0200201N00601006101CN006000199+00801+00401999999ADDGA1071+006101999GE19MSL   +99999+99999GF199999071999006101999999MA1103001999999REMMET058METAR ZSSS 050230Z 02006MPS 6000 BKN020 08/04 Q1030 NOSIG=
0149583670999992021010503004+31198+121336FM-15+000399999V0200301N00701006101CN006000199+00801+00401999999ADDGA1071+006101999GE19MSL   +99999+99999GF199999071999006101999999MA1103001999999REMMET058METAR ZSSS 050300Z 03007MPS 6000 BKN020 08/04 Q1030 NOSIG=
0149583670999992021010503304+31198+121336FM-15+000399999V0200301N00701006101CN007000199+00801+00301999999ADDGA1071+006101999GE19MSL   +99999+99999GF199999071999006101999999MA1103001999999REMMET058METAR ZSSS 050330Z 03007MPS 7000 BKN020 08/03 Q1030 NOSIG=
0149583670999992021010504004+31198+121336FM-15+000399999V0200201N00801006101CN008000199+00801+00301999999ADDGA1071+006101999GE19MSL   +99999+99999GF199999071999006101999999MA1102901999999REMMET058METAR ZSSS 050400Z 02008MPS 8000 BKN020 08/03 Q1029 NOSIG=
0149583670999992021010504304+31198+121336FM-15+000399999V0200201N00801007011CN008000199+00801+00201999999ADDGA1071+007011999GE19MSL   +99999+99999GF199999071999007011999999MA1102801999999REMMET058METAR ZSSS 050430Z 02008MPS 8000 BKN023 08/02 Q1028 NOSIG=
0149583670999992021010505004+31198+121336FM-15+000399999V0200301N00701007011CN008000199+00901+00201999999ADDGA1071+007011999GE19MSL   +99999+99999GF199999071999007011999999MA1102801999999REMMET058METAR ZSSS 050500Z 03007MPS 8000 BKN023 09/02 Q1028 NOSIG=
0149583670999992021010505304+31198+121336FM-15+000399999V0200401N00701007921CN008000199+00801+00201999999ADDGA1071+007921999GE19MSL   +99999+99999GF199999071999007921999999MA1102801999999REMMET058METAR ZSSS 050530Z 04007MPS 8000 BKN026 08/02 Q1028 NOSIG=
0157583670999992021010506004+31198+121336FM-15+000399999V0200401V00501007921CN008000199+00801+00201999999ADDGA1071+007921999GE19MSL   +99999+99999GF199999071999007921999999MA1102801999999REMMET066METAR ZSSS 050600Z 04005MPS 360V070 8000 BKN026 08/02 Q1028 NOSIG=
0149583670999992021010506304+31198+121336FM-15+000399999V0200301N00601007921CN009999199+00801+00201999999ADDGA1071+007921999GE19MSL   +99999+99999GF199999071999007921999999MA1102801999999REMMET058METAR ZSSS 050630Z 03006MPS 9999 BKN026 08/02 Q1028 NOSIG=
0149583670999992021010507004+31198+121336FM-15+000399999V0200301N00701007921CN009999199+00801+00201999999ADDGA1071+007921999GE19MSL   +99999+99999GF199999071999007921999999MA1102901999999REMMET058METAR ZSSS 050700Z 03007MPS 9999 BKN026 08/02 Q1029 NOSIG=
0149583670999992021010507304+31198+121336FM-15+000399999V0200501N00601007921CN009999199+00701+00101999999ADDGA1071+007921999GE19MSL   +99999+99999GF199999071999007921999999MA1102801999999REMMET058METAR ZSSS 050730Z 05006MPS 9999 BKN026 07/01 Q1028 NOSIG=
0149583670999992021010508004+31198+121336FM-15+000399999V0200301N00801007921CN009999199+00701+00001999999ADDGA1071+007921999GE19MSL   +99999+99999GF199999071999007921999999MA1102901999999REMMET058METAR ZSSS 050800Z 03008MPS 9999 BKN026 07/00 Q1029 NOSIG=
0149583670999992021010508304+31198+121336FM-15+000399999V0200301N00701009141CN009999199+00701+00001999999ADDGA1071+009141999GE19MSL   +99999+99999GF199999071999009141999999MA1103001999999REMMET058METAR ZSSS 050830Z 03007MPS 9999 BKN030 07/00 Q1030 NOSIG=
0149583670999992021010509004+31198+121336FM-15+000399999V0200201N00701009141CN009999199+00701+00001999999ADDGA1071+009141999GE19MSL   +99999+99999GF199999071999009141999999MA1103001999999REMMET058METAR ZSSS 050900Z 02007MPS 9999 BKN030 07/00 Q1030 NOSIG=
0150583670999992021010509304+31198+121336FM-15+000399999V0200401N00601009141CN009999199+00601+00001999999ADDGA1071+009141999GE19MSL   +99999+99999GF199999071999009141999999MA1103001999999REMMET059METAR ZSSS 050930Z 04006MPS 9999 BKN030 06/M00 Q1030 NOSIG=
0158583670999992021010510004+31198+121336FM-15+000399999V0200401V00501009141CN009999199+00601+00001999999ADDGA1071+009141999GE19MSL   +99999+99999GF199999071999009141999999MA1103101999999REMMET067METAR ZSSS 051000Z 04005MPS 010V070 9999 BKN030 06/M00 Q1031 NOSIG=
0150583670999992021010510304+31198+121336FM-15+000399999V0200301N00601009141CN009999199+00601-00101999999ADDGA1071+009141999GE19MSL   +99999+99999GF199999071999009141999999MA1103101999999REMMET059METAR ZSSS 051030Z 03006MPS 9999 BKN030 06/M01 Q1031 NOSIG=
0150583670999992021010511004+31198+121336FM-15+000399999V0200501N005019999999N009999199+00601-00101999999ADDGA1041+010061999GE19MSL   +99999+99999GF199999041999010061999999MA1103101999999REMMET059METAR ZSSS 051100Z 05005MPS 9999 SCT033 06/M01 Q1031 NOSIG=
0150583670999992021010511304+31198+121336FM-15+000399999V0200401N005019999999N009999199+00601-00101999999ADDGA1021+010061999GE19MSL   +99999+99999GF199999021999010061999999MA1103101999999REMMET059METAR ZSSS 051130Z 04005MPS 9999 FEW033 06/M01 Q1031 NOSIG=
0150583670999992021010512004+31198+121336FM-15+000399999V0200301N005019999999N009999199+00601+00001999999ADDGA1041+010061999GE19MSL   +99999+99999GF199999041999010061999999MA1103201999999REMMET059METAR ZSSS 051200Z 03005MPS 9999 SCT033 06/M00 Q1032 NOSIG=
0150583670999992021010512304+31198+121336FM-15+000399999V0200101N005019999999N009999199+00501+00001999999ADDGA1041+010061999GE19MSL   +99999+99999GF199999041999010061999999MA1103201999999REMMET059METAR ZSSS 051230Z 01005MPS 9999 SCT033 05/M00 Q1032 NOSIG=
0150583670999992021010513004+31198+121336FM-15+000399999V0203601N00601010061CN009999199+00501+00001999999ADDGA1071+010061999GE19MSL   +99999+99999GF199999071999010061999999MA1103201999999REMMET059METAR ZSSS 051300Z 36006MPS 9999 BKN033 05/M00 Q1032 NOSIG=
0150583670999992021010513304+31198+121336FM-15+000399999V0200101N006019999999N009999199+00501-00101999999ADDGA1021+010061999GE19MSL   +99999+99999GF199999021999010061999999MA1103201999999REMMET059METAR ZSSS 051330Z 01006MPS 9999 FEW033 05/M01 Q1032 NOSIG=
0080583670999992021010514004+31198+121336FM-15+000399999V0200101N006019999999Y009900599+00501-00101999999ADDMA1103201999999REMMET053METAR ZSSS 051400Z 01006MPS CAVOK 05/M01 Q1032 NOSIG=
0080583670999992021010514304+31198+121336FM-15+000399999V0200101N006019999999Y009900599+00501-00101999999ADDMA1103201999999REMMET053METAR ZSSS 051430Z 01006MPS CAVOK 05/M01 Q1032 NOSIG=
0080583670999992021010515004+31198+121336FM-15+000399999V0203601N007019999999Y009900599+00401-00101999999ADDMA1103201999999REMMET053METAR ZSSS 051500Z 36007MPS CAVOK 04/M01 Q1032 NOSIG=
0080583670999992021010515304+31198+121336FM-15+000399999V0200101N007019999999Y009900599+00401-00101999999ADDMA1103101999999REMMET053METAR ZSSS 051530Z 01007MPS CAVOK 04/M01 Q1031 NOSIG=
0080583670999992021010516004+31198+121336FM-15+000399999V0200101N007019999999Y009900599+00401-00101999999ADDMA1103101999999REMMET053METAR ZSSS 051600Z 01007MPS CAVOK 04/M01 Q1031 NOSIG=
0080583670999992021010516304+31198+121336FM-15+000399999V0200101N007019999999Y009900599+00401-00201999999ADDMA1103101999999REMMET053METAR ZSSS 051630Z 01007MPS CAVOK 04/M02 Q1031 NOSIG=
0080583670999992021010517004+31198+121336FM-15+000399999V0200101N006019999999Y009900599+00401-00201999999ADDMA1103101999999REMMET053METAR ZSSS 051700Z 01006MPS CAVOK 04/M02 Q1031 NOSIG=
0080583670999992021010517304+31198+121336FM-15+000399999V0200101N006019999999Y009900599+00401-00201999999ADDMA1103101999999REMMET053METAR ZSSS 051730Z 01006MPS CAVOK 04/M02 Q1031 NOSIG=
0080583670999992021010518004+31198+121336FM-15+000399999V0200101N006019999999Y009900599+00401-00201999999ADDMA1103101999999REMMET053METAR ZSSS 051800Z 01006MPS CAVOK 04/M02 Q1031 NOSIG=
0080583670999992021010518304+31198+121336FM-15+000399999V0200201N004019999999Y009900599+00401-00301999999ADDMA1103001999999REMMET053METAR ZSSS 051830Z 02004MPS CAVOK 04/M03 Q1030 NOSIG=
0080583670999992021010519004+31198+121336FM-15+000399999V0203601N005019999999Y009900599+00301-00301999999ADDMA1103001999999REMMET053METAR ZSSS 051900Z 36005MPS CAVOK 03/M03 Q1030 NOSIG=
0080583670999992021010519304+31198+121336FM-15+000399999V0200101N005019999999Y009900599+00401-00301999999ADDMA1103001999999REMMET053METAR ZSSS 051930Z 01005MPS CAVOK 04/M03 Q1030 NOSIG=
0080583670999992021010520004+31198+121336FM-15+000399999V0200101N004019999999Y009900599+00401-00301999999ADDMA1103001999999REMMET053METAR ZSSS 052000Z 01004MPS CAVOK 04/M03 Q1030 NOSIG=
0080583670999992021010520304+31198+121336FM-15+000399999V0200501N004019999999Y009900599+00301-00301999999ADDMA1102901999999REMMET053METAR ZSSS 052030Z 05004MPS CAVOK 03/M03 Q1029 NOSIG=
0080583670999992021010521004+31198+121336FM-15+000399999V0200301N003019999999Y009900599+00301-00301999999ADDMA1102901999999REMMET053METAR ZSSS 052100Z 03003MPS CAVOK 03/M03 Q1029 NOSIG=
0080583670999992021010521304+31198+121336FM-15+000399999V0200101N003019999999Y009900599+00301-00201999999ADDMA1102901999999REMMET053METAR ZSSS 052130Z 01003MPS CAVOK 03/M02 Q1029 NOSIG=
0080583670999992021010522004+31198+121336FM-15+000399999V0200101N004019999999Y009900599+00301-00201999999ADDMA1102901999999REMMET053METAR ZSSS 052200Z 01004MPS CAVOK 03/M02 Q1029 NOSIG=
0080583670999992021010522304+31198+121336FM-15+000399999V0200101N004019999999Y009900599+00301-00301999999ADDMA1103001999999REMMET053METAR ZSSS 052230Z 01004MPS CAVOK 03/M03 Q1030 NOSIG=
0080583670999992021010523004+31198+121336FM-15+000399999V0200101N005019999999Y009900599+00301-00301999999ADDMA1103001999999REMMET053METAR ZSSS 052300Z 01005MPS CAVOK 03/M03 Q1030 NOSIG=
0080583670999992021010523304+31198+121336FM-15+000399999V0200101N006019999999Y009900599+00301-00301999999ADDMA1103001999999REMMET053METAR ZSSS 052330Z 01006MPS CAVOK 03/M03 Q1030 NOSIG=
0080583670999992021010600004+31198+121336FM-15+000399999V0200101N005019999999Y009900599+00301-00301999999ADDMA1103101999999REMMET053METAR ZSSS 060000Z 01005MPS CAVOK 03/M03 Q1031 NOSIG=
0088583670999992021010600304+31198+121336FM-15+000399999V0200401V004019999999Y009900599+00401-00401999999ADDMA1103001999999REMMET061METAR ZSSS 060030Z 04004MPS 010V070 CAVOK 04/M04 Q1030 NOSIG=
0080583670999992021010601004+31198+121336FM-15+000399999V0200301N005019999999Y009900599+00401-00401999999ADDMA1103001999999REMMET053METAR ZSSS 060100Z 03005MPS CAVOK 04/M04 Q1030 NOSIG=
0088583670999992021010601304+31198+121336FM-15+000399999V0200301V004019999999Y009900599+00401-00401999999ADDMA1102901999999REMMET061METAR ZSSS 060130Z 03004MPS 350V060 CAVOK 04/M04 Q1029 NOSIG=
0080583670999992021010602004+31198+121336FM-15+000399999V0200201N003019999999Y009900599+00401-00401999999ADDMA1103001999999REMMET053METAR ZSSS 060200Z 02003MPS CAVOK 04/M04 Q1030 NOSIG=
0080583670999992021010602304+31198+121336FM-15+000399999V0203601N004019999999Y009900599+00501-00301999999ADDMA1102901999999REMMET053METAR ZSSS 060230Z 36004MPS CAVOK 05/M03 Q1029 NOSIG=
0088583670999992021010603004+31198+121336FM-15+000399999V0200201V003019999999Y009900599+00501-00301999999ADDMA1102901999999REMMET061METAR ZSSS 060300Z 02003MPS 350V060 CAVOK 05/M03 Q1029 NOSIG=
0088583670999992021010603304+31198+121336FM-15+000399999V0200401V003019999999Y009900599+00501-00301999999ADDMA1102801999999REMMET061METAR ZSSS 060330Z 04003MPS 360V070 CAVOK 05/M03 Q1028 NOSIG=
0088583670999992021010604004+31198+121336FM-15+000399999V0200201V002019999999Y009900599+00501-00301999999ADDMA1102701999999REMMET061METAR ZSSS 060400Z 02002MPS 340V070 CAVOK 05/M03 Q1027 NOSIG=
0088583670999992021010604304+31198+121336FM-15+000399999V0200201V003019999999Y009900599+00501-00301999999ADDMA1102701999999REMMET061METAR ZSSS 060430Z 02003MPS 340V080 CAVOK 05/M03 Q1027 NOSIG=
0088583670999992021010605004+31198+121336FM-15+000399999V0203601V002019999999Y009900599+00501-00301999999ADDMA1102701999999REMMET061METAR ZSSS 060500Z 36002MPS 320V040 CAVOK 05/M03 Q1027 NOSIG=
0080583670999992021010605304+31198+121336FM-15+000399999V0203401N003019999999Y009900599+00501-00301999999ADDMA1102701999999REMMET053METAR ZSSS 060530Z 34003MPS CAVOK 05/M03 Q1027 NOSIG=
0088583670999992021010606004+31198+121336FM-15+000399999V0203501V004019999999Y009900599+00501-00401999999ADDMA1102601999999REMMET061METAR ZSSS 060600Z 35004MPS 320V020 CAVOK 05/M04 Q1026 NOSIG=
0080583670999992021010606304+31198+121336FM-15+000399999V0203601N004019999999Y009900599+00501-00301999999ADDMA1102601999999REMMET053METAR ZSSS 060630Z 36004MPS CAVOK 05/M03 Q1026 NOSIG=
0080583670999992021010607004+31198+121336FM-15+000399999V0203601N004019999999Y009900599+00501-00401999999ADDMA1102601999999REMMET053METAR ZSSS 060700Z 36004MPS CAVOK 05/M04 Q1026 NOSIG=
0080583670999992021010607304+31198+121336FM-15+000399999V0200101N004019999999Y009900599+00501-00401999999ADDMA1102601999999REMMET053METAR ZSSS 060730Z 01004MPS CAVOK 05/M04 Q1026 NOSIG=
0080583670999992021010608004+31198+121336FM-15+000399999V0203501N004019999999Y009900599+00501-00501999999ADDMA1102601999999REMMET053METAR ZSSS 060800Z 35004MPS CAVOK 05/M05 Q1026 NOSIG=
0088583670999992021010608304+31198+121336FM-15+000399999V0203501V004019999999Y009900599+00401-00501999999ADDMA1102701999999REMMET061METAR ZSSS 060830Z 35004MPS 310V010 CAVOK 04/M05 Q1027 NOSIG=
0080583670999992021010609004+31198+121336FM-15+000399999V0203301N003019999999Y009900599+00401-00501999999ADDMA1102701999999REMMET053METAR ZSSS 060900Z 33003MPS CAVOK 04/M05 Q1027 NOSIG=
0080583670999992021010609304+31198+121336FM-15+000399999V0203301N004019999999Y009900599+00401-00401999999ADDMA1102701999999REMMET053METAR ZSSS 060930Z 33004MPS CAVOK 04/M04 Q1027 NOSIG=
0080583670999992021010610004+31198+121336FM-15+000399999V0203401N004019999999Y009900599+00401-00501999999ADDMA1102801999999REMMET053METAR ZSSS 061000Z 34004MPS CAVOK 04/M05 Q1028 NOSIG=
0080583670999992021010610304+31198+121336FM-15+000399999V0203501N005019999999Y009900599+00401-00401999999ADDMA1102801999999REMMET053METAR ZSSS 061030Z 35005MPS CAVOK 04/M04 Q1028 NOSIG=
0099583670999992021010611004+31198+121336FM-15+000399999V0203401N004019999999Y009900599+00401-00401999999ADDMA1102801999999REMMET072METAR ZSSS 061100Z 34004MPS CAVOK 04/M04 Q1028 BECMG TL1240 35010G15MPS=
0080583670999992021010611304+31198+121336FM-15+000399999V0203301N005019999999Y009900599+00401-00401999999ADDMA1102901999999REMMET053METAR ZSSS 061130Z 33005MPS CAVOK 04/M04 Q1029 NOSIG=
0107583670999992021010612004+31198+121336FM-15+000399999V0203201V004019999999Y009900599+00401-00401999999ADDMA1102901999999REMMET080METAR ZSSS 061200Z 32004MPS 290V350 CAVOK 04/M04 Q1029 BECMG TL1330 35010G15MPS=
0150583670999992021010612304+31198+121336FM-15+000399999V0203401N005019999999N009999199+00401-00401999999ADDGA1041+012191999GE19MSL   +99999+99999GF199999041999012191999999MA1102901999999REMMET059METAR ZSSS 061230Z 34005MPS 9999 SCT040 04/M04 Q1029 NOSIG=
0169583670999992021010613004+31198+121336FM-15+000399999V0203301N006019999999N009999199+00401-00401999999ADDGA1041+012191999GE19MSL   +99999+99999GF199999041999012191999999MA1102901999999REMMET078METAR ZSSS 061300Z 33006MPS 9999 SCT040 04/M04 Q1029 BECMG TL1430 36010G15MPS=
0169583670999992021010613304+31198+121336FM-15+000399999V0203301N005019999999N009999199+00401-00301999999ADDGA1041+010061999GE19MSL   +99999+99999GF199999041999010061999999MA1103001999999REMMET078METAR ZSSS 061330Z 33005MPS 9999 SCT033 04/M03 Q1030 BECMG TL1500 36010G15MPS=
0169583670999992021010614004+31198+121336FM-15+000399999V0203601N00601010061CN009999199+00401-00301999999ADDGA1071+010061999GE19MSL   +99999+99999GF199999071999010061999999MA1103001999999REMMET078METAR ZSSS 061400Z 36006MPS 9999 BKN033 04/M03 Q1030 BECMG TL1530 36010G15MPS=
0169583670999992021010614304+31198+121336FM-15+000399999V0203501N00801009141CN009999199+00301-00401999999ADDGA1071+009141999GE19MSL   +99999+99999GF199999071999009141999999MA1103001999999REMMET078METAR ZSSS 061430Z 35008MPS 9999 BKN030 03/M04 Q1030 BECMG TL1600 36010G15MPS=
0169583670999992021010615004+31198+121336FM-15+000399999V0203501N00701009141CN009999199+00301-00501999999ADDGA1071+009141999GE19MSL   +99999+99999GF199999071999009141999999MA1103001999999REMMET078METAR ZSSS 061500Z 35007MPS 9999 BKN030 03/M05 Q1030 BECMG TL1600 36010G15MPS=
0169583670999992021010615304+31198+121336FM-15+000399999V0203501N008019999999N009999199+00301-00801999999ADDGA1021+009141999GE19MSL   +99999+99999GF199999021999009141999999MA1103101999999REMMET078METAR ZSSS 061530Z 35008MPS 9999 FEW030 03/M08 Q1031 BECMG TL1700 36010G15MPS=
0099583670999992021010616004+31198+121336FM-15+000399999V0203401N007019999999Y009900599+00201-00801999999ADDMA1103101999999REMMET072METAR ZSSS 061600Z 34007MPS CAVOK 02/M08 Q1031 BECMG TL1730 36010G15MPS=
0080583670999992021010616304+31198+121336FM-15+000399999V0203501N007019999999Y009900599+00201-00701999999ADDMA1103101999999REMMET053METAR ZSSS 061630Z 35007MPS CAVOK 02/M07 Q1031 NOSIG=
0099583670999992021010617004+31198+121336FM-15+000399999V0203601N007019999999Y009900599+00201-00701999999ADDMA1103101999999REMMET072METAR ZSSS 061700Z 36007MPS CAVOK 02/M07 Q1031 BECMG TL1830 36010G15MPS=
0099583670999992021010617304+31198+121336FM-15+000399999V0200201N010019999999Y009900599+00101-00501999999ADDMA1103101999999REMMET072METAR ZSSS 061730Z 02010MPS CAVOK 01/M05 Q1031 BECMG TL1900 01010G15MPS=
0080583670999992021010618004+31198+121336FM-15+000399999V0200101N010019999999Y009900599+00101-00501999999ADDMA1103201999999REMMET053METAR ZSSS 061800Z 01010MPS CAVOK 01/M05 Q1032 NOSIG=
0150583670999992021010618304+31198+121336FM-15+000399999V0203601N009019999999N009999199+00001-00701999999ADDGA1021+009141999GE19MSL   +99999+99999GF199999021999009141999999MA1103201999999REMMET059METAR ZSSS 061830Z 36009MPS 9999 FEW030 00/M07 Q1032 NOSIG=
0151583670999992021010619004+31198+121336FM-15+000399999V0200101N009019999999N009999199+00001-00701999999ADDGA1021+009141999GE19MSL   +99999+99999GF199999021999009141999999MA1103301999999REMMET060METAR ZSSS 061900Z 01009MPS 9999 FEW030 M00/M07 Q1033 NOSIG=
0151583670999992021010619304+31198+121336FM-15+000399999V0200101N010019999999N009999199-00101-00701999999ADDGA1041+009141999GE19MSL   +99999+99999GF199999041999009141999999MA1103301999999REMMET060METAR ZSSS 061930Z 01010MPS 9999 SCT030 M01/M07 Q1033 NOSIG=
0151583670999992021010620004+31198+121336FM-15+000399999V0200101N00901009141CN009999199-00101-00801999999ADDGA1071+009141999GE19MSL   +99999+99999GF199999071999009141999999MA1103301999999REMMET060METAR ZSSS 062000Z 01009MPS 9999 BKN030 M01/M08 Q1033 NOSIG=
0151583670999992021010620304+31198+121336FM-15+000399999V0203601N01001012191CN009999199-00201-00901999999ADDGA1071+012191999GE19MSL   +99999+99999GF199999071999012191999999MA1103301999999REMMET060METAR ZSSS 062030Z 36010MPS 9999 BKN040 M02/M09 Q1033 NOSIG=
0151583670999992021010621004+31198+121336FM-15+000399999V0200101N009019999999N009999199-00201-00901999999ADDGA1021+012191999GE19MSL   +99999+99999GF199999021999012191999999MA1103401999999REMMET060METAR ZSSS 062100Z 01009MPS 9999 FEW040 M02/M09 Q1034 NOSIG=
0151583670999992021010621304+31198+121336FM-15+000399999V0203501N010019999999N009999199-00301-01001999999ADDGA1021+012191999GE19MSL   +99999+99999GF199999021999012191999999MA1103401999999REMMET060METAR ZSSS 062130Z 35010MPS 9999 FEW040 M03/M10 Q1034 NOSIG=
0151583670999992021010622004+31198+121336FM-15+000399999V0203601N009019999999N009999199-00301-01101999999ADDGA1021+012191999GE19MSL   +99999+99999GF199999021999012191999999MA1103401999999REMMET060METAR ZSSS 062200Z 36009MPS 9999 FEW040 M03/M11 Q1034 NOSIG=
0151583670999992021010622304+31198+121336FM-15+000399999V0203601N009019999999N009999199-00401-01501999999ADDGA1021+012191999GE19MSL   +99999+99999GF199999021999012191999999MA1103401999999REMMET060METAR ZSSS 062230Z 36009MPS 9999 FEW040 M04/M15 Q1034 NOSIG=
0151583670999992021010623004+31198+121336FM-15+000399999V0203501N009019999999N009999199-00401-01501999999ADDGA1041+012191999GE19MSL   +99999+99999GF199999041999012191999999MA1103401999999REMMET060METAR ZSSS 062300Z 35009MPS 9999 SCT040 M04/M15 Q1034 NOSIG=
0151583670999992021010623304+31198+121336FM-15+000399999V0203401N009019999999N009999199-00401-01601999999ADDGA1041+012191999GE19MSL   +99999+99999GF199999041999012191999999MA1103501999999REMMET060METAR ZSSS 062330Z 34009MPS 9999 SCT040 M04/M16 Q1035 NOSIG=
0151583670999992021010700004+31198+121336FM-15+000399999V0203601N010019999999N009999199-00501-01701999999ADDGA1021+012191999GE19MSL   +99999+99999GF199999021999012191999999MA1103501999999REMMET060METAR ZSSS 070000Z 36010MPS 9999 FEW040 M05/M17 Q1035 NOSIG=
0151583670999992021010700304+31198+121336FM-15+000399999V0203501N008019999999N009999199-00401-01601999999ADDGA1021+012191999GE19MSL   +99999+99999GF199999021999012191999999MA1103601999999REMMET060METAR ZSSS 070030Z 35008MPS 9999 FEW040 M04/M16 Q1036 NOSIG=
0151583670999992021010701004+31198+121336FM-15+000399999V0203501N009019999999N009999199-00401-01801999999ADDGA1021+012191999GE19MSL   +99999+99999GF199999021999012191999999MA1103701999999REMMET060METAR ZSSS 070100Z 35009MPS 9999 FEW040 M04/M18 Q1037 NOSIG=
0089583670999992021010701304+31198+121336FM-15+000399999V0203401V007019999999Y009900599-00401-01701999999ADDMA1103701999999REMMET062METAR ZSSS 070130Z 34007MPS 310V010 CAVOK M04/M17 Q1037 NOSIG=
0081583670999992021010702004+31198+121336FM-15+000399999V0203301N009019999999Y009900599-00401-01801999999ADDMA1103701999999REMMET054METAR ZSSS 070200Z 33009MPS CAVOK M04/M18 Q1037 NOSIG=
0092583670999992021010702304+31198+121336FM-15+000399999V0203201N008019999999Y009900599-00401-02001999999ADDMA1103601999999OC101301REMMET057METAR ZSSS 070230Z 32008G13MPS CAVOK M04/M20 Q1036 NOSIG=
0081583670999992021010703004+31198+121336FM-15+000399999V0203501N009019999999Y009900599-00401-01901999999ADDMA1103501999999REMMET054METAR ZSSS 070300Z 35009MPS CAVOK M04/M19 Q1035 NOSIG=
0081583670999992021010703304+31198+121336FM-15+000399999V0203401N009019999999Y009900599-00401-01801999999ADDMA1103501999999REMMET054METAR ZSSS 070330Z 34009MPS CAVOK M04/M18 Q1035 NOSIG=
0089583670999992021010704004+31198+121336FM-15+000399999V0203301V007019999999Y009900599-00401-01801999999ADDMA1103501999999REMMET062METAR ZSSS 070400Z 33007MPS 290V360 CAVOK M04/M18 Q1035 NOSIG=
0081583670999992021010704304+31198+121336FM-15+000399999V0203401N009019999999Y009900599-00401-01901999999ADDMA1103401999999REMMET054METAR ZSSS 070430Z 34009MPS CAVOK M04/M19 Q1034 NOSIG=
0081583670999992021010705004+31198+121336FM-15+000399999V0203501N009019999999Y009900599-00401-01901999999ADDMA1103401999999REMMET054METAR ZSSS 070500Z 35009MPS CAVOK M04/M19 Q1034 NOSIG=
0089583670999992021010705304+31198+121336FM-15+000399999V0203001V008019999999Y009900599-00401-01901999999ADDMA1103401999999REMMET062METAR ZSSS 070530Z 30008MPS 270V330 CAVOK M04/M19 Q1034 NOSIG=
0081583670999992021010706004+31198+121336FM-15+000399999V0203201N009019999999Y009900599-00401-02101999999ADDMA1103401999999REMMET054METAR ZSSS 070600Z 32009MPS CAVOK M04/M21 Q1034 NOSIG=
0089583670999992021010706304+31198+121336FM-15+000399999V0203201V008019999999Y009900599-00401-02101999999ADDMA1103401999999REMMET062METAR ZSSS 070630Z 32008MPS 280V350 CAVOK M04/M21 Q1034 NOSIG=
0081583670999992021010707004+31198+121336FM-15+000399999V0203301N009019999999Y009900599-00501-02101999999ADDMA1103401999999REMMET054METAR ZSSS 070700Z 33009MPS CAVOK M05/M21 Q1034 NOSIG=
0081583670999992021010707304+31198+121336FM-15+000399999V0203201N009019999999Y009900599-00501-02201999999ADDMA1103401999999REMMET054METAR ZSSS 070730Z 32009MPS CAVOK M05/M22 Q1034 NOSIG=
0081583670999992021010708004+31198+121336FM-15+000399999V0203301N008019999999Y009900599-00501-02101999999ADDMA1103401999999REMMET054METAR ZSSS 070800Z 33008MPS CAVOK M05/M21 Q1034 NOSIG=
0089583670999992021010708304+31198+121336FM-15+000399999V0203301V007019999999Y009900599-00501-02001999999ADDMA1103401999999REMMET062METAR ZSSS 070830Z 33007MPS 310V010 CAVOK M05/M20 Q1034 NOSIG=
0089583670999992021010709004+31198+121336FM-15+000399999V0203201V006019999999Y009900599-00501-02001999999ADDMA1103401999999REMMET062METAR ZSSS 070900Z 32006MPS 290V350 CAVOK M05/M20 Q1034 NOSIG=
0081583670999992021010709304+31198+121336FM-15+000399999V0203201N007019999999Y009900599-00601-01901999999ADDMA1103401999999REMMET054METAR ZSSS 070930Z 32007MPS CAVOK M06/M19 Q1034 NOSIG=
0081583670999992021010710004+31198+121336FM-15+000399999V0203401N007019999999Y009900599-00601-01801999999ADDMA1103501999999REMMET054METAR ZSSS 071000Z 34007MPS CAVOK M06/M18 Q1035 NOSIG=
0081583670999992021010710304+31198+121336FM-15+000399999V0203301N007019999999Y009900599-00601-01801999999ADDMA1103501999999REMMET054METAR ZSSS 071030Z 33007MPS CAVOK M06/M18 Q1035 NOSIG=
0089583670999992021010711004+31198+121336FM-15+000399999V0203301V006019999999Y009900599-00601-01901999999ADDMA1103601999999REMMET062METAR ZSSS 071100Z 33006MPS 300V360 CAVOK M06/M19 Q1036 NOSIG=
0081583670999992021010711304+31198+121336FM-15+000399999V0203201N008019999999Y009900599-00601-02101999999ADDMA1103601999999REMMET054METAR ZSSS 071130Z 32008MPS CAVOK M06/M21 Q1036 NOSIG=
0081583670999992021010712004+31198+121336FM-15+000399999V0203301N008019999999Y009900599-00601-02001999999ADDMA1103601999999REMMET054METAR ZSSS 071200Z 33008MPS CAVOK M06/M20 Q1036 NOSIG=
0081583670999992021010712304+31198+121336FM-15+000399999V0203301N007019999999Y009900599-00701-01901999999ADDMA1103601999999REMMET054METAR ZSSS 071230Z 33007MPS CAVOK M07/M19 Q1036 NOSIG=
0081583670999992021010713004+31198+121336FM-15+000399999V0203201N007019999999Y009900599-00701-02001999999ADDMA1103601999999REMMET054METAR ZSSS 071300Z 32007MPS CAVOK M07/M20 Q1036 NOSIG=
0081583670999992021010713304+31198+121336FM-15+000399999V0203301N007019999999Y009900599-00701-02001999999ADDMA1103601999999REMMET054METAR ZSSS 071330Z 33007MPS CAVOK M07/M20 Q1036 NOSIG=
0081583670999992021010714004+31198+121336FM-15+000399999V0203201N007019999999Y009900599-00701-02001999999ADDMA1103601999999REMMET054METAR ZSSS 071400Z 32007MPS CAVOK M07/M20 Q1036 NOSIG=
0081583670999992021010714304+31198+121336FM-15+000399999V0203201N008019999999Y009900599-00701-02001999999ADDMA1103601999999REMMET054METAR ZSSS 071430Z 32008MPS CAVOK M07/M20 Q1036 NOSIG=
0081583670999992021010715004+31198+121336FM-15+000399999V0203301N008019999999Y009900599-00701-02001999999ADDMA1103601999999REMMET054METAR ZSSS 071500Z 33008MPS CAVOK M07/M20 Q1036 NOSIG=
0081583670999992021010715304+31198+121336FM-15+000399999V0203301N007019999999Y009900599-00701-02001999999ADDMA1103601999999REMMET054METAR ZSSS 071530Z 33007MPS CAVOK M07/M20 Q1036 NOSIG=
0081583670999992021010716004+31198+121336FM-15+000399999V0203201N007019999999Y009900599-00701-02001999999ADDMA1103601999999REMMET054METAR ZSSS 071600Z 32007MPS CAVOK M07/M20 Q1036 NOSIG=
0081583670999992021010716304+31198+121336FM-15+000399999V0203201N007019999999Y009900599-00701-01901999999ADDMA1103601999999REMMET054METAR ZSSS 071630Z 32007MPS CAVOK M07/M19 Q1036 NOSIG=
0089583670999992021010717004+31198+121336FM-15+000399999V0203201V007019999999Y009900599-00701-01901999999ADDMA1103601999999REMMET062METAR ZSSS 071700Z 32007MPS 290V350 CAVOK M07/M19 Q1036 NOSIG=
0081583670999992021010717304+31198+121336FM-15+000399999V0203201N007019999999Y009900599-00701-01901999999ADDMA1103601999999REMMET054METAR ZSSS 071730Z 32007MPS CAVOK M07/M19 Q1036 NOSIG=
0081583670999992021010718004+31198+121336FM-15+000399999V0203301N007019999999Y009900599-00701-01901999999ADDMA1103501999999REMMET054METAR ZSSS 071800Z 33007MPS CAVOK M07/M19 Q1035 NOSIG=
0089583670999992021010718304+31198+121336FM-15+000399999V0203301V006019999999Y009900599-00701-01901999999ADDMA1103501999999REMMET062METAR ZSSS 071830Z 33006MPS 290V350 CAVOK M07/M19 Q1035 NOSIG=
0081583670999992021010719004+31198+121336FM-15+000399999V0203201N007019999999Y009900599-00701-01901999999ADDMA1103501999999REMMET054METAR ZSSS 071900Z 32007MPS CAVOK M07/M19 Q1035 NOSIG=
0081583670999992021010719304+31198+121336FM-15+000399999V0203201N006019999999Y009900599-00701-01901999999ADDMA1103501999999REMMET054METAR ZSSS 071930Z 32006MPS CAVOK M07/M19 Q1035 NOSIG=
0089583670999992021010720004+31198+121336FM-15+000399999V0203101V007019999999Y009900599-00701-02001999999ADDMA1103501999999REMMET062METAR ZSSS 072000Z 31007MPS 280V340 CAVOK M07/M20 Q1035 NOSIG=
0081583670999992021010720304+31198+121336FM-15+000399999V0203201N007019999999Y009900599-00701-01901999999ADDMA1103501999999REMMET054METAR ZSSS 072030Z 32007MPS CAVOK M07/M19 Q1035 NOSIG=
0081583670999992021010721004+31198+121336FM-15+000399999V0203201N006019999999Y009900599-00701-01901999999ADDMA1103501999999REMMET054METAR ZSSS 072100Z 32006MPS CAVOK M07/M19 Q1035 NOSIG=
0089583670999992021010721304+31198+121336FM-15+000399999V0203201V007019999999Y009900599-00701-01901999999ADDMA1103501999999REMMET062METAR ZSSS 072130Z 32007MPS 290V350 CAVOK M07/M19 Q1035 NOSIG=
0081583670999992021010722004+31198+121336FM-15+000399999V0203201N006019999999Y009900599-00701-01901999999ADDMA1103501999999REMMET054METAR ZSSS 072200Z 32006MPS CAVOK M07/M19 Q1035 NOSIG=
0081583670999992021010722304+31198+121336FM-15+000399999V0203101N005019999999Y009900599-00701-01801999999ADDMA1103501999999REMMET054METAR ZSSS 072230Z 31005MPS CAVOK M07/M18 Q1035 NOSIG=
0089583670999992021010723004+31198+121336FM-15+000399999V0203201V006019999999Y009900599-00701-01801999999ADDMA1103501999999REMMET062METAR ZSSS 072300Z 32006MPS 290V360 CAVOK M07/M18 Q1035 NOSIG=
0081583670999992021010723304+31198+121336FM-15+000399999V0203201N006019999999Y009900599-00701-01801999999ADDMA1103501999999REMMET054METAR ZSSS 072330Z 32006MPS CAVOK M07/M18 Q1035 NOSIG=
0081583670999992021010800004+31198+121336FM-15+000399999V0203201N005019999999Y009900599-00601-01801999999ADDMA1103501999999REMMET054METAR ZSSS 080000Z 32005MPS CAVOK M06/M18 Q1035 NOSIG=
0081583670999992021010800304+31198+121336FM-15+000399999V0203201N005019999999Y009900599-00501-01701999999ADDMA1103501999999REMMET054METAR ZSSS 080030Z 32005MPS CAVOK M05/M17 Q1035 NOSIG=
0089583670999992021010801004+31198+121336FM-15+000399999V0203101V006019999999Y009900599-00501-01901999999ADDMA1103501999999REMMET062METAR ZSSS 080100Z 31006MPS 280V340 CAVOK M05/M19 Q1035 NOSIG=
0089583670999992021010801304+31198+121336FM-15+000399999V0203101V005019999999Y009900599-00401-01801999999ADDMA1103501999999REMMET062METAR ZSSS 080130Z 31005MPS 280V350 CAVOK M04/M18 Q1035 NOSIG=
0089583670999992021010802004+31198+121336FM-15+000399999V0203001V006019999999Y009900599-00401-01801999999ADDMA1103501999999REMMET062METAR ZSSS 080200Z 30006MPS 270V350 CAVOK M04/M18 Q1035 NOSIG=
0089583670999992021010802304+31198+121336FM-15+000399999V0203101V005019999999Y009900599-00401-01901999999ADDMA1103501999999REMMET062METAR ZSSS 080230Z 31005MPS 270V340 CAVOK M04/M19 Q1035 NOSIG=
0089583670999992021010803004+31198+121336FM-15+000399999V0203001V006019999999Y009900599-00301-01901999999ADDMA1103401999999REMMET062METAR ZSSS 080300Z 30006MPS 270V330 CAVOK M03/M19 Q1034 NOSIG=
0089583670999992021010803304+31198+121336FM-15+000399999V0203101V006019999999Y009900599-00201-02001999999ADDMA1103301999999REMMET062METAR ZSSS 080330Z 31006MPS 270V350 CAVOK M02/M20 Q1033 NOSIG=
0089583670999992021010804004+31198+121336FM-15+000399999V0203101V006019999999Y009900599-00201-02001999999ADDMA1103301999999REMMET062METAR ZSSS 080400Z 31006MPS 280V340 CAVOK M02/M20 Q1033 NOSIG=
0092583670999992021010804304+31198+121336FM-15+000399999V0203101N007019999999Y009900599-00101-02001999999ADDMA1103201999999OC101301REMMET057METAR ZSSS 080430Z 31007G13MPS CAVOK M01/M20 Q1032 NOSIG=
0089583670999992021010805004+31198+121336FM-15+000399999V0203001V007019999999Y009900599-00201-02101999999ADDMA1103201999999REMMET062METAR ZSSS 080500Z 30007MPS 280V340 CAVOK M02/M21 Q1032 NOSIG=
0089583670999992021010805304+31198+121336FM-15+000399999V0203101V007019999999Y009900599-00101-02001999999ADDMA1103201999999REMMET062METAR ZSSS 080530Z 31007MPS 280V340 CAVOK M01/M20 Q1032 NOSIG=
0089583670999992021010806004+31198+121336FM-15+000399999V0203001V007019999999Y009900599-00101-01901999999ADDMA1103101999999REMMET062METAR ZSSS 080600Z 30007MPS 260V330 CAVOK M01/M19 Q1031 NOSIG=
0081583670999992021010806304+31198+121336FM-15+000399999V0203001N008019999999Y009900599-00101-01901999999ADDMA1103101999999REMMET054METAR ZSSS 080630Z 30008MPS CAVOK M01/M19 Q1031 NOSIG=
0100583670999992021010807004+31198+121336FM-15+000399999V0202901V006019999999Y009900599-00101-01801999999ADDMA1103101999999OC101101REMMET065METAR ZSSS 080700Z 29006G11MPS 260V330 CAVOK M01/M18 Q1031 NOSIG=
0081583670999992021010807304+31198+121336FM-15+000399999V0202901N008019999999Y009900599-00101-01901999999ADDMA1103101999999REMMET054METAR ZSSS 080730Z 29008MPS CAVOK M01/M19 Q1031 NOSIG=
0089583670999992021010808004+31198+121336FM-15+000399999V0203001V006019999999Y009900599-00101-01901999999ADDMA1103101999999REMMET062METAR ZSSS 080800Z 30006MPS 260V330 CAVOK M01/M19 Q1031 NOSIG=
0089583670999992021010808304+31198+121336FM-15+000399999V0203101V006019999999Y009900599-00101-01901999999ADDMA1103101999999REMMET062METAR ZSSS 080830Z 31006MPS 270V340 CAVOK M01/M19 Q1031 NOSIG=
0089583670999992021010809004+31198+121336FM-15+000399999V0203001V006019999999Y009900599-00201-01801999999ADDMA1103101999999REMMET062METAR ZSSS 080900Z 30006MPS 280V340 CAVOK M02/M18 Q1031 NOSIG=
0081583670999992021010809304+31198+121336FM-15+000399999V0203101N005019999999Y009900599-00201-01801999999ADDMA1103101999999REMMET054METAR ZSSS 080930Z 31005MPS CAVOK M02/M18 Q1031 NOSIG=
0089583670999992021010810004+31198+121336FM-15+000399999V0202901V005019999999Y009900599-00201-01701999999ADDMA1103101999999REMMET062METAR ZSSS 081000Z 29005MPS 260V320 CAVOK M02/M17 Q1031 NOSIG=
0081583670999992021010810304+31198+121336FM-15+000399999V0202801N004019999999Y009900599-00201-01701999999ADDMA1103201999999REMMET054METAR ZSSS 081030Z 28004MPS CAVOK M02/M17 Q1032 NOSIG=
0089583670999992021010811004+31198+121336FM-15+000399999V0202901V004019999999Y009900599-00201-01601999999ADDMA1103201999999REMMET062METAR ZSSS 081100Z 29004MPS 260V320 CAVOK M02/M16 Q1032 NOSIG=
0081583670999992021010811304+31198+121336FM-15+000399999V0203001N004019999999Y009900599-00201-01501999999ADDMA1103201999999REMMET054METAR ZSSS 081130Z 30004MPS CAVOK M02/M15 Q1032 NOSIG=
0089583670999992021010812004+31198+121336FM-15+000399999V0202901V003019999999Y009900599-00201-01501999999ADDMA1103101999999REMMET062METAR ZSSS 081200Z 29003MPS 270V340 CAVOK M02/M15 Q1031 NOSIG=
0089583670999992021010812304+31198+121336FM-15+000399999V0202801V003019999999Y009900599-00201-01501999999ADDMA1103101999999REMMET062METAR ZSSS 081230Z 28003MPS 260V330 CAVOK M02/M15 Q1031 NOSIG=
0089583670999992021010813004+31198+121336FM-15+000399999V0202801V003019999999Y009900599-00201-01501999999ADDMA1103201999999REMMET062METAR ZSSS 081300Z 28003MPS 260V340 CAVOK M02/M15 Q1032 NOSIG=
0081583670999992021010813304+31198+121336FM-15+000399999V0202801N003019999999Y009900599-00301-01501999999ADDMA1103201999999REMMET054METAR ZSSS 081330Z 28003MPS CAVOK M03/M15 Q1032 NOSIG=
0089583670999992021010814004+31198+121336FM-15+000399999V0202701V003019999999Y009900599-00301-01401999999ADDMA1103201999999REMMET062METAR ZSSS 081400Z 27003MPS 240V320 CAVOK M03/M14 Q1032 NOSIG=
0081583670999992021010814304+31198+121336FM-15+000399999V0202801N003019999999Y009900599-00301-01401999999ADDMA1103201999999REMMET054METAR ZSSS 081430Z 28003MPS CAVOK M03/M14 Q1032 NOSIG=
0081583670999992021010815004+31198+121336FM-15+000399999V0203201N004019999999Y009900599-00301-01401999999ADDMA1103201999999REMMET054METAR ZSSS 081500Z 32004MPS CAVOK M03/M14 Q1032 NOSIG=
0081583670999992021010815304+31198+121336FM-15+000399999V0203201N003019999999Y009900599-00301-01401999999ADDMA1103201999999REMMET054METAR ZSSS 081530Z 32003MPS CAVOK M03/M14 Q1032 NOSIG=
0081583670999992021010816004+31198+121336FM-15+000399999V0203101N004019999999Y009900599-00301-01401999999ADDMA1103201999999REMMET054METAR ZSSS 081600Z 31004MPS CAVOK M03/M14 Q1032 NOSIG=
0089583670999992021010816304+31198+121336FM-15+000399999V0202901V003019999999Y009900599-00301-01401999999ADDMA1103201999999REMMET062METAR ZSSS 081630Z 29003MPS 270V330 CAVOK M03/M14 Q1032 NOSIG=
0089583670999992021010817004+31198+121336FM-15+000399999V0202601V002019999999Y009900599-00401-01301999999ADDMA1103201999999REMMET062METAR ZSSS 081700Z 26002MPS 240V300 CAVOK M04/M13 Q1032 NOSIG=
0081583670999992021010817304+31198+121336FM-15+000399999V0202701N002019999999Y009900599-00401-01401999999ADDMA1103201999999REMMET054METAR ZSSS 081730Z 27002MPS CAVOK M04/M14 Q1032 NOSIG=
0081583670999992021010818004+31198+121336FM-15+000399999V0202501N002019999999Y009900599-00401-01301999999ADDMA1103201999999REMMET054METAR ZSSS 081800Z 25002MPS CAVOK M04/M13 Q1032 NOSIG=
0081583670999992021010818304+31198+121336FM-15+000399999V0202501N002019999999Y009900599-00401-01301999999ADDMA1103201999999REMMET054METAR ZSSS 081830Z 25002MPS CAVOK M04/M13 Q1032 NOSIG=
0081583670999992021010819004+31198+121336FM-15+000399999V0202501N002019999999Y009900599-00401-01301999999ADDMA1103101999999REMMET054METAR ZSSS 081900Z 25002MPS CAVOK M04/M13 Q1031 NOSIG=
0081583670999992021010819304+31198+121336FM-15+000399999V0202501N002019999999Y009900599-00501-01201999999ADDMA1103101999999REMMET054METAR ZSSS 081930Z 25002MPS CAVOK M05/M12 Q1031 NOSIG=
0081583670999992021010820004+31198+121336FM-15+000399999V0202901N003019999999Y009900599-00401-01301999999ADDMA1103101999999REMMET054METAR ZSSS 082000Z 29003MPS CAVOK M04/M13 Q1031 NOSIG=
0081583670999992021010820304+31198+121336FM-15+000399999V0202901N003019999999Y009900599-00401-01301999999ADDMA1103101999999REMMET054METAR ZSSS 082030Z 29003MPS CAVOK M04/M13 Q1031 NOSIG=
0081583670999992021010821004+31198+121336FM-15+000399999V0202801N003019999999Y009900599-00401-01301999999ADDMA1103101999999REMMET054METAR ZSSS 082100Z 28003MPS CAVOK M04/M13 Q1031 NOSIG=
0081583670999992021010821304+31198+121336FM-15+000399999V0202801N003019999999Y009900599-00401-01301999999ADDMA1103101999999REMMET054METAR ZSSS 082130Z 28003MPS CAVOK M04/M13 Q1031 NOSIG=
0081583670999992021010822004+31198+121336FM-15+000399999V0202901N003019999999Y009900599-00401-01301999999ADDMA1103201999999REMMET054METAR ZSSS 082200Z 29003MPS CAVOK M04/M13 Q1032 NOSIG=
0081583670999992021010822304+31198+121336FM-15+000399999V0202801N003019999999Y009900599-00401-01301999999ADDMA1103201999999REMMET054METAR ZSSS 082230Z 28003MPS CAVOK M04/M13 Q1032 NOSIG=
0081583670999992021010823004+31198+121336FM-15+000399999V0203001N003019999999Y009900599-00401-01301999999ADDMA1103201999999REMMET054METAR ZSSS 082300Z 30003MPS CAVOK M04/M13 Q1032 NOSIG=
0089583670999992021010823304+31198+121336FM-15+000399999V0203001V004019999999Y009900599-00301-01301999999ADDMA1103201999999REMMET062METAR ZSSS 082330Z 30004MPS 270V330 CAVOK M03/M13 Q1032 NOSIG=
0089583670999992021010900004+31198+121336FM-15+000399999V0203001V004019999999Y009900599-00201-01301999999ADDMA1103201999999REMMET062METAR ZSSS 090000Z 30004MPS 270V330 CAVOK M02/M13 Q1032 NOSIG=
0089583670999992021010900304+31198+121336FM-15+000399999V0203101V003019999999Y009900599-00101-01301999999ADDMA1103201999999REMMET062METAR ZSSS 090030Z 31003MPS 260V350 CAVOK M01/M13 Q1032 NOSIG=
0081583670999992021010901004+31198+121336FM-15+000399999V0203101N004019999999Y009900599-00101-01401999999ADDMA1103201999999REMMET054METAR ZSSS 090100Z 31004MPS CAVOK M01/M14 Q1032 NOSIG=
0088583670999992021010901304+31198+121336FM-15+000399999V0203101V005019999999Y009900599+00001-01601999999ADDMA1103201999999REMMET061METAR ZSSS 090130Z 31005MPS 280V350 CAVOK 00/M16 Q1032 NOSIG=
0080583670999992021010902004+31198+121336FM-15+000399999V0203201N005019999999Y009900599+00101-01801999999ADDMA1103201999999REMMET053METAR ZSSS 090200Z 32005MPS CAVOK 01/M18 Q1032 NOSIG=
0080583670999992021010902304+31198+121336FM-15+000399999V0203201N006019999999Y009900599+00101-01901999999ADDMA1103201999999REMMET053METAR ZSSS 090230Z 32006MPS CAVOK 01/M19 Q1032 NOSIG=
0080583670999992021010903004+31198+121336FM-15+000399999V0203101N006019999999Y009900599+00201-02001999999ADDMA1103201999999REMMET053METAR ZSSS 090300Z 31006MPS CAVOK 02/M20 Q1032 NOSIG=
0080583670999992021010903304+31198+121336FM-15+000399999V0203201N006019999999Y009900599+00201-02001999999ADDMA1103201999999REMMET053METAR ZSSS 090330Z 32006MPS CAVOK 02/M20 Q1032 NOSIG=
0088583670999992021010904004+31198+121336FM-15+000399999V0203201V005019999999Y009900599+00301-01901999999ADDMA1103101999999REMMET061METAR ZSSS 090400Z 32005MPS 290V350 CAVOK 03/M19 Q1031 NOSIG=
0080583670999992021010904304+31198+121336FM-15+000399999V0203401N005019999999Y009900599+00301-01901999999ADDMA1103101999999REMMET053METAR ZSSS 090430Z 34005MPS CAVOK 03/M19 Q1031 NOSIG=
0088583670999992021010905004+31198+121336FM-15+000399999V0203401V005019999999Y009900599+00401-01901999999ADDMA1103001999999REMMET061METAR ZSSS 090500Z 34005MPS 310V010 CAVOK 04/M19 Q1030 NOSIG=
0088583670999992021010905304+31198+121336FM-15+000399999V0203201V005019999999Y009900599+00401-01901999999ADDMA1103001999999REMMET061METAR ZSSS 090530Z 32005MPS 280V350 CAVOK 04/M19 Q1030 NOSIG=
0080583670999992021010906004+31198+121336FM-15+000399999V0203201N005019999999Y009900599+00401-01901999999ADDMA1102901999999REMMET053METAR ZSSS 090600Z 32005MPS CAVOK 04/M19 Q1029 NOSIG=
0088583670999992021010906304+31198+121336FM-15+000399999V0203201V006019999999Y009900599+00401-01901999999ADDMA1102901999999REMMET061METAR ZSSS 090630Z 32006MPS 290V020 CAVOK 04/M19 Q1029 NOSIG=
0088583670999992021010907004+31198+121336FM-15+000399999V0203501V005019999999Y009900599+00401-01901999999ADDMA1102801999999REMMET061METAR ZSSS 090700Z 35005MPS 320V020 CAVOK 04/M19 Q1028 NOSIG=
0088583670999992021010907304+31198+121336FM-15+000399999V0203101V005019999999Y009900599+00401-01801999999ADDMA1102901999999REMMET061METAR ZSSS 090730Z 31005MPS 280V350 CAVOK 04/M18 Q1029 NOSIG=
0088583670999992021010908004+31198+121336FM-15+000399999V0203301V005019999999Y009900599+00301-01801999999ADDMA1102901999999REMMET061METAR ZSSS 090800Z 33005MPS 290V350 CAVOK 03/M18 Q1029 NOSIG=
0080583670999992021010908304+31198+121336FM-15+000399999V0202901N004019999999Y009900599+00301-01801999999ADDMA1102901999999REMMET053METAR ZSSS 090830Z 29004MPS CAVOK 03/M18 Q1029 NOSIG=
0088583670999992021010909004+31198+121336FM-15+000399999V0203101V003019999999Y009900599+00301-01801999999ADDMA1103001999999REMMET061METAR ZSSS 090900Z 31003MPS 280V340 CAVOK 03/M18 Q1030 NOSIG=
0080583670999992021010909304+31198+121336FM-15+000399999V0202801N003019999999Y009900599+00201-01701999999ADDMA1103001999999REMMET053METAR ZSSS 090930Z 28003MPS CAVOK 02/M17 Q1030 NOSIG=
0088583670999992021010910004+31198+121336FM-15+000399999V0202601V002019999999Y009900599+00201-01601999999ADDMA1103001999999REMMET061METAR ZSSS 091000Z 26002MPS 230V320 CAVOK 02/M16 Q1030 NOSIG=
0088583670999992021010910304+31198+121336FM-15+000399999V0203001V003019999999Y009900599+00201-01701999999ADDMA1103001999999REMMET061METAR ZSSS 091030Z 30003MPS 270V330 CAVOK 02/M17 Q1030 NOSIG=
0080583670999992021010911004+31198+121336FM-15+000399999V0203301N002019999999Y009900599+00101-01601999999ADDMA1103001999999REMMET053METAR ZSSS 091100Z 33002MPS CAVOK 01/M16 Q1030 NOSIG=
0088583670999992021010911304+31198+121336FM-15+000399999V0203501V002019999999Y009900599+00001-01501999999ADDMA1103001999999REMMET061METAR ZSSS 091130Z 35002MPS 280V010 CAVOK 00/M15 Q1030 NOSIG=
0080583670999992021010912004+31198+121336FM-15+000399999V0209999V001019999999Y009900599+00101-01501999999ADDMA1103001999999REMMET053METAR ZSSS 091200Z VRB01MPS CAVOK 01/M15 Q1030 NOSIG=
0080583670999992021010912304+31198+121336FM-15+000399999V0203401N001019999999Y009900599+00001-01601999999ADDMA1103001999999REMMET053METAR ZSSS 091230Z 34001MPS CAVOK 00/M16 Q1030 NOSIG=
0081583670999992021010913004+31198+121336FM-15+000399999V0200101N002019999999Y009900599+00001-01301999999ADDMA1103001999999REMMET054METAR ZSSS 091300Z 01002MPS CAVOK M00/M13 Q1030 NOSIG=
0081583670999992021010913304+31198+121336FM-15+000399999V0209999V001019999999Y009900599-00101-01301999999ADDMA1103001999999REMMET054METAR ZSSS 091330Z VRB01MPS CAVOK M01/M13 Q1030 NOSIG=
0081583670999992021010914004+31198+121336FM-15+000399999V0202401N003019999999Y009900599-00101-01101999999ADDMA1103001999999REMMET054METAR ZSSS 091400Z 24003MPS CAVOK M01/M11 Q1030 NOSIG=
0089583670999992021010914304+31198+121336FM-15+000399999V0202601V002019999999Y009900599-00101-01101999999ADDMA1103001999999REMMET062METAR ZSSS 091430Z 26002MPS 240V300 CAVOK M01/M11 Q1030 NOSIG=
0081583670999992021010915004+31198+121336FM-15+000399999V0202501N002019999999Y009900599-00101-01101999999ADDMA1103101999999REMMET054METAR ZSSS 091500Z 25002MPS CAVOK M01/M11 Q1031 NOSIG=
0081583670999992021010915304+31198+121336FM-15+000399999V0202501N003019999999Y009900599-00101-01101999999ADDMA1103101999999REMMET054METAR ZSSS 091530Z 25003MPS CAVOK M01/M11 Q1031 NOSIG=
0081583670999992021010916004+31198+121336FM-15+000399999V0202801N002019999999Y009900599+00001-01101999999ADDMA1103101999999REMMET054METAR ZSSS 091600Z 28002MPS CAVOK M00/M11 Q1031 NOSIG=
0081583670999992021010916304+31198+121336FM-15+000399999V0209999V001019999999Y009900599-00301-01001999999ADDMA1103101999999REMMET054METAR ZSSS 091630Z VRB01MPS CAVOK M03/M10 Q1031 NOSIG=
0081583670999992021010917004+31198+121336FM-15+000399999V0209999V001019999999Y009900599-00201-01001999999ADDMA1103101999999REMMET054METAR ZSSS 091700Z VRB01MPS CAVOK M02/M10 Q1031 NOSIG=
0081583670999992021010917304+31198+121336FM-15+000399999V0209999V001019999999Y009900599-00201-00901999999ADDMA1103201999999REMMET054METAR ZSSS 091730Z VRB01MPS CAVOK M02/M09 Q1032 NOSIG=
0081583670999992021010918004+31198+121336FM-15+000399999V0209999V001019999999Y009900599-00201-00901999999ADDMA1103201999999REMMET054METAR ZSSS 091800Z VRB01MPS CAVOK M02/M09 Q1032 NOSIG=
0081583670999992021010918304+31198+121336FM-15+000399999V0209999V001019999999Y009900599-00201-00901999999ADDMA1103201999999REMMET054METAR ZSSS 091830Z VRB01MPS CAVOK M02/M09 Q1032 NOSIG=
0081583670999992021010919004+31198+121336FM-15+000399999V0201801N001019999999Y009900599-00301-00901999999ADDMA1103101999999REMMET054METAR ZSSS 091900Z 18001MPS CAVOK M03/M09 Q1031 NOSIG=
0081583670999992021010919304+31198+121336FM-15+000399999V0209999C000019999999Y009900599-00301-00901999999ADDMA1103101999999REMMET054METAR ZSSS 091930Z 00000MPS CAVOK M03/M09 Q1031 NOSIG=
0081583670999992021010920004+31198+121336FM-15+000399999V0209999C000019999999Y009900599-00301-00901999999ADDMA1103101999999REMMET054METAR ZSSS 092000Z 00000MPS CAVOK M03/M09 Q1031 NOSIG=
0081583670999992021010920304+31198+121336FM-15+000399999V0201901N001019999999Y009900599-00401-00901999999ADDMA1103101999999REMMET054METAR ZSSS 092030Z 19001MPS CAVOK M04/M09 Q1031 NOSIG=
0081583670999992021010921004+31198+121336FM-15+000399999V0209999V001019999999Y009900599-00401-00801999999ADDMA1103101999999REMMET054METAR ZSSS 092100Z VRB01MPS CAVOK M04/M08 Q1031 NOSIG=
0081583670999992021010921304+31198+121336FM-15+000399999V0202101N001019999999Y009900599-00401-00801999999ADDMA1103101999999REMMET054METAR ZSSS 092130Z 21001MPS CAVOK M04/M08 Q1031 NOSIG=
0081583670999992021010922004+31198+121336FM-15+000399999V0202101N001019999999Y009900599-00401-00801999999ADDMA1103101999999REMMET054METAR ZSSS 092200Z 21001MPS CAVOK M04/M08 Q1031 NOSIG=
0081583670999992021010922304+31198+121336FM-15+000399999V0201901N001019999999Y009900599-00401-00801999999ADDMA1103101999999REMMET054METAR ZSSS 092230Z 19001MPS CAVOK M04/M08 Q1031 NOSIG=
0081583670999992021010923004+31198+121336FM-15+000399999V0209999V001019999999Y009900599-00401-00701999999ADDMA1103201999999REMMET054METAR ZSSS 092300Z VRB01MPS CAVOK M04/M07 Q1032 NOSIG=
0081583670999992021010923304+31198+121336FM-15+000399999V0209999C000019999999Y009900599-00301-00701999999ADDMA1103201999999REMMET054METAR ZSSS 092330Z 00000MPS CAVOK M03/M07 Q1032 NOSIG=
0081583670999992021011000004+31198+121336FM-15+000399999V0209999V001019999999Y009900599-00101-00701999999ADDMA1103201999999REMMET054METAR ZSSS 100000Z VRB01MPS CAVOK M01/M07 Q1032 NOSIG=
0080583670999992021011000304+31198+121336FM-15+000399999V0209999V001019999999Y009900599+00001-00801999999ADDMA1103201999999REMMET053METAR ZSSS 100030Z VRB01MPS CAVOK 00/M08 Q1032 NOSIG=
0080583670999992021011001004+31198+121336FM-15+000399999V0209999V001019999999Y009900599+00101-00801999999ADDMA1103201999999REMMET053METAR ZSSS 100100Z VRB01MPS CAVOK 01/M08 Q1032 NOSIG=
0080583670999992021011001304+31198+121336FM-15+000399999V0209999V001019999999Y009900599+00201-00901999999ADDMA1103201999999REMMET053METAR ZSSS 100130Z VRB01MPS CAVOK 02/M09 Q1032 NOSIG=
0080583670999992021011002004+31198+121336FM-15+000399999V0209999V001019999999Y009900599+00301-01301999999ADDMA1103201999999REMMET053METAR ZSSS 100200Z VRB01MPS CAVOK 03/M13 Q1032 NOSIG=
0088583670999992021011002304+31198+121336FM-15+000399999V0203301V002019999999Y009900599+00401-01301999999ADDMA1103201999999REMMET061METAR ZSSS 100230Z 33002MPS 280V030 CAVOK 04/M13 Q1032 NOSIG=
0088583670999992021011003004+31198+121336FM-15+000399999V0202901V004019999999Y009900599+00401-01401999999ADDMA1103201999999REMMET061METAR ZSSS 100300Z 29004MPS 270V360 CAVOK 04/M14 Q1032 NOSIG=
0088583670999992021011003304+31198+121336FM-15+000399999V0203201V004019999999Y009900599+00501-01401999999ADDMA1103201999999REMMET061METAR ZSSS 100330Z 32004MPS 280V010 CAVOK 05/M14 Q1032 NOSIG=
0088583670999992021011004004+31198+121336FM-15+000399999V0203201V004019999999Y009900599+00601-01401999999ADDMA1103101999999REMMET061METAR ZSSS 100400Z 32004MPS 270V350 CAVOK 06/M14 Q1031 NOSIG=
0088583670999992021011004304+31198+121336FM-15+000399999V0203201V005019999999Y009900599+00601-01401999999ADDMA1103001999999REMMET061METAR ZSSS 100430Z 32005MPS 300V010 CAVOK 06/M14 Q1030 NOSIG=
0080583670999992021011005004+31198+121336FM-15+000399999V0203501N006019999999Y009900599+00601-01501999999ADDMA1102901999999REMMET053METAR ZSSS 100500Z 35006MPS CAVOK 06/M15 Q1029 NOSIG=
0080583670999992021011005304+31198+121336FM-15+000399999V0203301N005019999999Y009900599+00601-01501999999ADDMA1102901999999REMMET053METAR ZSSS 100530Z 33005MPS CAVOK 06/M15 Q1029 NOSIG=
0088583670999992021011006004+31198+121336FM-15+000399999V0203301V004019999999Y009900599+00601-01601999999ADDMA1102901999999REMMET061METAR ZSSS 100600Z 33004MPS 300V010 CAVOK 06/M16 Q1029 NOSIG=
0088583670999992021011006304+31198+121336FM-15+000399999V0203401V003019999999Y009900599+00601-01501999999ADDMA1102901999999REMMET061METAR ZSSS 100630Z 34003MPS 290V020 CAVOK 06/M15 Q1029 NOSIG=
0088583670999992021011007004+31198+121336FM-15+000399999V0203301V004019999999Y009900599+00601-01401999999ADDMA1102901999999REMMET061METAR ZSSS 100700Z 33004MPS 280V010 CAVOK 06/M14 Q1029 NOSIG=
0088583670999992021011007304+31198+121336FM-15+000399999V0203401V004019999999Y009900599+00501-01601999999ADDMA1102901999999REMMET061METAR ZSSS 100730Z 34004MPS 310V020 CAVOK 05/M16 Q1029 NOSIG=
0080583670999992021011008004+31198+121336FM-15+000399999V0203401N005019999999Y009900599+00501-01701999999ADDMA1102901999999REMMET053METAR ZSSS 100800Z 34005MPS CAVOK 05/M17 Q1029 NOSIG=
0088583670999992021011008304+31198+121336FM-15+000399999V0203501V004019999999Y009900599+00401-01601999999ADDMA1102901999999REMMET061METAR ZSSS 100830Z 35004MPS 320V020 CAVOK 04/M16 Q1029 NOSIG=
0080583670999992021011009004+31198+121336FM-15+000399999V0203601N005019999999Y009900599+00301-01401999999ADDMA1103001999999REMMET053METAR ZSSS 100900Z 36005MPS CAVOK 03/M14 Q1030 NOSIG=
0080583670999992021011009304+31198+121336FM-15+000399999V0203601N004019999999Y009900599+00301-01201999999ADDMA1103001999999REMMET053METAR ZSSS 100930Z 36004MPS CAVOK 03/M12 Q1030 NOSIG=
0080583670999992021011010004+31198+121336FM-15+000399999V0203601N004019999999Y009900599+00301-01201999999ADDMA1103001999999REMMET053METAR ZSSS 101000Z 36004MPS CAVOK 03/M12 Q1030 NOSIG=
0080583670999992021011010304+31198+121336FM-15+000399999V0200101N003019999999Y009900599+00301-01101999999ADDMA1103001999999REMMET053METAR ZSSS 101030Z 01003MPS CAVOK 03/M11 Q1030 NOSIG=
0080583670999992021011011004+31198+121336FM-15+000399999V0200101N002019999999Y009900599+00201-01201999999ADDMA1103001999999REMMET053METAR ZSSS 101100Z 01002MPS CAVOK 02/M12 Q1030 NOSIG=
0088583670999992021011011304+31198+121336FM-15+000399999V0203501V002019999999Y009900599+00201-01101999999ADDMA1103101999999REMMET061METAR ZSSS 101130Z 35002MPS 310V010 CAVOK 02/M11 Q1031 NOSIG=
0080583670999992021011012004+31198+121336FM-15+000399999V0203301N002019999999Y009900599+00301-01101999999ADDMA1103101999999REMMET053METAR ZSSS 101200Z 33002MPS CAVOK 03/M11 Q1031 NOSIG=
0080583670999992021011012304+31198+121336FM-15+000399999V0203501N003019999999Y009900599+00201-01101999999ADDMA1103101999999REMMET053METAR ZSSS 101230Z 35003MPS CAVOK 02/M11 Q1031 NOSIG=
0080583670999992021011013004+31198+121336FM-15+000399999V0203501N003019999999Y009900599+00301-01101999999ADDMA1103201999999REMMET053METAR ZSSS 101300Z 35003MPS CAVOK 03/M11 Q1032 NOSIG=
0080583670999992021011013304+31198+121336FM-15+000399999V0200101N003019999999Y009900599+00201-01001999999ADDMA1103101999999REMMET053METAR ZSSS 101330Z 01003MPS CAVOK 02/M10 Q1031 NOSIG=
0080583670999992021011014004+31198+121336FM-15+000399999V0203601N003019999999Y009900599+00101-00901999999ADDMA1103201999999REMMET053METAR ZSSS 101400Z 36003MPS CAVOK 01/M09 Q1032 NOSIG=
0080583670999992021011014304+31198+121336FM-15+000399999V0209999V001019999999Y009900599+00101-00901999999ADDMA1103201999999REMMET053METAR ZSSS 101430Z VRB01MPS CAVOK 01/M09 Q1032 NOSIG=
0080583670999992021011015004+31198+121336FM-15+000399999V0203601N002019999999Y009900599+00101-00801999999ADDMA1103201999999REMMET053METAR ZSSS 101500Z 36002MPS CAVOK 01/M08 Q1032 NOSIG=
0080583670999992021011015304+31198+121336FM-15+000399999V0203601N003019999999Y009900599+00201-00801999999ADDMA1103201999999REMMET053METAR ZSSS 101530Z 36003MPS CAVOK 02/M08 Q1032 NOSIG=
0080583670999992021011016004+31198+121336FM-15+000399999V0203601N002019999999Y009900599+00101-00801999999ADDMA1103301999999REMMET053METAR ZSSS 101600Z 36002MPS CAVOK 01/M08 Q1033 NOSIG=
0080583670999992021011016304+31198+121336FM-15+000399999V0203601N003019999999Y009900599+00101-00901999999ADDMA1103301999999REMMET053METAR ZSSS 101630Z 36003MPS CAVOK 01/M09 Q1033 NOSIG=
0080583670999992021011017004+31198+121336FM-15+000399999V0200201N002019999999Y009900599+00101-00801999999ADDMA1103201999999REMMET053METAR ZSSS 101700Z 02002MPS CAVOK 01/M08 Q1032 NOSIG=
0080583670999992021011017304+31198+121336FM-15+000399999V0203501N002019999999Y009900599+00101-00801999999ADDMA1103301999999REMMET053METAR ZSSS 101730Z 35002MPS CAVOK 01/M08 Q1033 NOSIG=
0080583670999992021011018004+31198+121336FM-15+000399999V0203501N003019999999Y009900599+00001-00901999999ADDMA1103201999999REMMET053METAR ZSSS 101800Z 35003MPS CAVOK 00/M09 Q1032 NOSIG=
0081583670999992021011018304+31198+121336FM-15+000399999V0200101N002019999999Y009900599+00001-00901999999ADDMA1103101999999REMMET054METAR ZSSS 101830Z 01002MPS CAVOK M00/M09 Q1031 NOSIG=
0081583670999992021011019004+31198+121336FM-15+000399999V0203501N002019999999Y009900599-00101-00801999999ADDMA1103101999999REMMET054METAR ZSSS 101900Z 35002MPS CAVOK M01/M08 Q1031 NOSIG=
0081583670999992021011019304+31198+121336FM-15+000399999V0203501N001019999999Y009900599-00101-00801999999ADDMA1103001999999REMMET054METAR ZSSS 101930Z 35001MPS CAVOK M01/M08 Q1030 NOSIG=
0081583670999992021011020004+31198+121336FM-15+000399999V0201901N001019999999Y009900599-00101-00901999999ADDMA1103001999999REMMET054METAR ZSSS 102000Z 19001MPS CAVOK M01/M09 Q1030 NOSIG=
0081583670999992021011020304+31198+121336FM-15+000399999V0201901N002019999999Y009900599-00301-00801999999ADDMA1103001999999REMMET054METAR ZSSS 102030Z 19002MPS CAVOK M03/M08 Q1030 NOSIG=
0081583670999992021011021004+31198+121336FM-15+000399999V0202601N002019999999Y009900599-00101-00701999999ADDMA1103101999999REMMET054METAR ZSSS 102100Z 26002MPS CAVOK M01/M07 Q1031 NOSIG=
0081583670999992021011021304+31198+121336FM-15+000399999V0201501N002019999999Y009900599-00201-00801999999ADDMA1103101999999REMMET054METAR ZSSS 102130Z 15002MPS CAVOK M02/M08 Q1031 NOSIG=
0081583670999992021011022004+31198+121336FM-15+000399999V0202801N004019999999Y009900599+00001-00901999999ADDMA1103201999999REMMET054METAR ZSSS 102200Z 28004MPS CAVOK M00/M09 Q1032 NOSIG=
0080583670999992021011022304+31198+121336FM-15+000399999V0203001N004019999999Y009900599+00001-00901999999ADDMA1103201999999REMMET053METAR ZSSS 102230Z 30004MPS CAVOK 00/M09 Q1032 NOSIG=
0089583670999992021011023004+31198+121336FM-15+000399999V0202901V003019999999Y009900599+00001-00901999999ADDMA1103101999999REMMET062METAR ZSSS 102300Z 29003MPS 260V320 CAVOK M00/M09 Q1031 NOSIG=
0081583670999992021011023304+31198+121336FM-15+000399999V0209999V001019999999Y009900599+00001-00801999999ADDMA1103101999999REMMET054METAR ZSSS 102330Z VRB01MPS CAVOK M00/M08 Q1031 NOSIG=
0088583670999992021011100004+31198+121336FM-15+000399999V0202701V002019999999Y009900599+00101-00801999999ADDMA1103101999999REMMET061METAR ZSSS 110000Z 27002MPS 220V330 CAVOK 01/M08 Q1031 NOSIG=
