0118712230999992021010100004+51933-110700FM-12+077299999V0202401N002619999999N999999999-00661-01011999999ADDAA106000091AA224000091KA1120M-00421KA2120N-01241REMSYN05871223 16/// /2405 11066 21101 60001 333 11042 21124 70000=
0058712230999992021010100004+51930-110720SAO  +077299999V020240190026199999999999999999-00661-01011999999REMAWY049XCS SA 0000 AUTO8 M M M M/-07/-10/2405/M/ M 61MM=
0058712230999992021010101004+51930-110720SAO  +077299999V020220190051199999999999999999-00841-01151999999REMAWY049XCS SA 0100 AUTO8 M M M M/-08/-12/2210/M/ M 45MM=
0058712230999992021010102004+51930-110720SAO  +077299999V020220190046199999999999999999-00911-01201999999REMAWY049XCS SA 0200 AUTO8 M M M M/-09/-12/2209/M/ M 10MM=
0063712230999992021010103004+51933-110700FM-12+077299999V0202101N005119999999N999999999-01011-01291999999ADDAA103000091REMSYN04071223 26/// /2110 11101 21129 333 60007=
0058712230999992021010103004+51930-110720SAO  +077299999V020210190051199999999999999999-01011-01291999999REMAWY049XCS SA 0300 AUTO8 M M M M/-10/-13/2110/M/ M 19MM=
0058712230999992021010104004+51930-110720SAO  +077299999V020220190041199999999999999999-00901-01171999999REMAWY049XCS SA 0400 AUTO8 M M M M/-09/-12/2208/M/ M 07MM=
0058712230999992021010105004+51930-110720SAO  +077299999V020190190010199999999999999999-01151-01371999999REMAWY049XCS SA 0500 AUTO8 M M M M/-12/-14/1902/M/ M 57MM=
0118712230999992021010106004+51933-110700FM-12+077299999V0202101N005119999999N999999999-01211-01511999999ADDAA106000091AA224000091KA1240M-00421KA2240N-01251REMSYN05871223 16/// /2110 11121 21151 60001 333 11042 21125 70000=
0058712230999992021010106004+51930-110720SAO  +077299999V020210190051199999999999999999-01211-01511999999REMAWY049XCS SA 0600 AUTO8 M M M M/-12/-15/2110/M/ M 11MM=
0058712230999992021010107004+51930-110720SAO  +077299999V020220190062199999999999999999-01281-01611999999REMAWY049XCS SA 0700 AUTO8 M M M M/-13/-16/2212/M/ M 81MM=
0058712230999992021010108004+51930-110720SAO  +077299999V020230190015199999999999999999-01301-01571999999REMAWY049XCS SA 0800 AUTO8 M M M M/-13/-16/2303/M/ M 07MM=
0063712230999992021010109004+51933-110700FM-12+077299999V0202201N007719999999N999999999-01341-01611999999ADDAA103000091REMSYN04071223 26/// /2215 11134 21161 333 60007=
0058712230999992021010109004+51930-110720SAO  +077299999V020220190077199999999999999999-01341-01611999999REMAWY049XCS SA 0900 AUTO8 M M M M/-13/-16/2215/M/ M 41MM=
0058712230999992021010110004+51930-110720SAO  +077299999V020230190057199999999999999999-01361-01611999999REMAWY049XCS SA 1000 AUTO8 M M M M/-14/-16/2311/M/ M 61MM=
0093712230999992021010111004+51930-110720SAO  +077299999V020220190077199999999999999999-01271-01551999999ADDOD130100931220REMAWY067XCS SA 1100 AUTO8 M M M M/-13/-16/2215/M/ PK WND 2218 1044Z M 75MM=
0075712230999992021010112004+51937-111176FM-12+077299999V0202241N0060199999999999999999-01221-01451999999ADDAA101999999AA206999999AA324999999KA1120N-01411KA2300M-00461REMSYN004BUFR
0093712230999992021010112004+51930-110720SAO  +077299999V020220190067199999999999999999-01161-01351999999ADDOD130100981240REMAWY067XCS SA 1200 AUTO8 M M M M/-12/-14/2213/M/ PK WND 2419 1110Z M 65MM=
0093712230999992021010113004+51930-110720SAO  +077299999V020250190077199999999999999999-01201-01501999999ADDOD130100931230REMAWY067XCS SA 1300 AUTO8 M M M M/-12/-15/2515/M/ PK WND 2318 1221Z M 00MM=
0058712230999992021010114004+51930-110720SAO  +077299999V020240190051199999999999999999-01411-01691999999REMAWY049XCS SA 1400 AUTO8 M M M M/-14/-17/2410/M/ M 19MM=
0049712230999992021010115004+51937-111596FM-12+077299999V0202331N0048199999999999999999-01501-01791999999ADDAA101999999AA206999999AA324999999REMSYN004BUFR
0058712230999992021010115004+51930-110720SAO  +077299999V020230190057199999999999999999-01511-01791999999REMAWY049XCS SA 1500 AUTO8 M M M M/-15/-18/2311/M/ M 19MM=
0058712230999992021010116004+51930-110720SAO  +077299999V020230190051199999999999999999-01511-01811999999REMAWY049XCS SA 1600 AUTO8 M M M M/-15/-18/2310/M/ M 11MM=
0058712230999992021010117004+51930-110720SAO  +077299999V020230190057199999999999999999-01461-01771999999REMAWY049XCS SA 1700 AUTO8 M M M M/-15/-18/2311/M/ M 67MM=
0118712230999992021010118004+51933-110700FM-12+077299999V0202401N002119999999N999999999-01081-01461999999ADDAA106000091AA224000091KA1120M-01021KA2120N-01541REMSYN05871223 16/// /2404 11108 21146 60001 333 11102 21154 70000=
0058712230999992021010118004+51930-110720SAO  +077299999V020240190021199999999999999999-01081-01461999999REMAWY049XCS SA 1800 AUTO8 M M M M/-11/-15/2404/M/ M 86MM=
0058712230999992021010119004+51930-110720SAO  +077299999V020220190046199999999999999999-01231-01561999999REMAWY049XCS SA 1900 AUTO8 M M M M/-12/-16/2209/M/ M 36MM=
0058712230999992021010120004+51930-110720SAO  +077299999V020110190015199999999999999999-01051-01611999999REMAWY049XCS SA 2000 AUTO8 M M M M/-11/-16/1103/M/ M 51MM=
0063712230999992021010121004+51933-110700FM-12+077299999V0201401N001019999999N999999999-01111-01521999999ADDAA103000091REMSYN04071223 26/// /1402 11111 21152 333 60007=
0058712230999992021010121004+51930-110720SAO  +077299999V020140190010199999999999999999-01111-01521999999REMAWY049XCS SA 2100 AUTO8 M M M M/-11/-15/1402/M/ M 12MM=
0058712230999992021010122004+51930-110720SAO  +077299999V020100190015199999999999999999-01231-01631999999REMAWY049XCS SA 2200 AUTO8 M M M M/-12/-16/1003/M/ M 33MM=
0058712230999992021010123004+51930-110720SAO  +077299999V020110190026199999999999999999-01381-01701999999REMAWY049XCS SA 2300 AUTO8 M M M M/-14/-17/1105/M/ M 80MM=
0075712230999992021010200004+51937-110858FM-12+077299999V0200981N0020199999999999999999-01251-01591999999ADDAA101999999AA206999999AA324999999KA1120M-01011KA2180N-01551REMSYN004BUFR
0058712230999992021010200004+51930-110720SAO  +077299999V020100190026199999999999999999-01251-01591999999REMAWY049XCS SA 0000 AUTO8 M M M M/-13/-16/1005/M/ M 59MM=
0058712230999992021010201004+51930-110720SAO  +077299999V020160190021199999999999999999-01141-01421999999REMAWY049XCS SA 0100 AUTO8 M M M M/-11/-14/1604/M/ M 42MM=
0058712230999992021010202004+51930-110720SAO  +077299999V020140190021199999999999999999-01171-01481999999REMAWY049XCS SA 0200 AUTO8 M M M M/-12/-15/1404/M/ M 78MM=
0049712230999992021010203004+51937-111176FM-12+077299999V0201771N0017199999999999999999-00741-00961999999ADDAA101999999AA206999999AA324999999REMSYN004BUFR
0058712230999992021010203004+51930-110720SAO  +077299999V020180190021199999999999999999-00691-00891999999REMAWY049XCS SA 0300 AUTO8 M M M M/-07/-09/1804/M/ M 99MM=
0058712230999992021010204004+51930-110720SAO  +077299999V020210190031199999999999999999-00611-00791999999REMAWY049XCS SA 0400 AUTO8 M M M M/-06/-08/2106/M/ M 19MM=
0058712230999992021010205004+51930-110720SAO  +077299999V020220190051199999999999999999-00301-00481999999REMAWY049XCS SA 0500 AUTO8 M M M M/-03/-05/2210/M/ M 08MM=
0134712230999992021010206004+51933-110700FM-12+077299999V0202101N005119999999N999999999-00231-00431999999ADDAA106000091AA224000091KA1240M-00231KA2240N-01541REMSYN07471223 16/// /2110 11023 21043 60001 333 11023 21154 70000 555 32419 40121=
0058712230999992021010206004+51930-110720SAO  +077299999V020210190051199999999999999999-00231-00431999999REMAWY049XCS SA 0600 AUTO8 M M M M/-02/-04/2110/M/ M 33MM=
0058712230999992021010207004+51930-110720SAO  +077299999V020200190067199999999999999999-00141-00361999999REMAWY049XCS SA 0700 AUTO8 M M M M/-01/-04/2013/M/ M 46MM=
0092712230999992021010208004+51930-110720SAO  +077299999V020210190077199999999999999999+00101-00201999999ADDOD130101031200REMAWY066XCS SA 0800 AUTO8 M M M M/01/-02/2115/M/ PK WND 2020 0731Z M 00MM=
0063712230999992021010209004+51933-110700FM-12+077299999V0202101N006719999999N999999999+00091-00201999999ADDAA103000091REMSYN04071223 26/// /2113 10009 21020 333 60007=
0092712230999992021010209004+51930-110720SAO  +077299999V020210190067199999999999999999+00091-00201999999ADDOD130100871220REMAWY066XCS SA 0900 AUTO8 M M M M/01/-02/2113/M/ PK WND 2217 0859Z M 90MM=
0092712230999992021010210004+51930-110720SAO  +077299999V020220190108199999999999999999+00171-00151999999ADDOD130101341220REMAWY066XCS SA 1000 AUTO8 M M M M/02/-02/2221/M/ PK WND 2226 0932Z M 75MM=
0092712230999992021010211004+51930-110720SAO  +077299999V020240190128199999999999999999+00101-00161999999ADDOD130101701230REMAWY066XCS SA 1100 AUTO8 M M M M/01/-02/2425/M/ PK WND 2333 1022Z M 06MM=
0105712230999992021010212004+51933-110700FM-12+077299999V0202401N014919999999N999999999+00191-00121999999ADDAA106000091AA224000091KA1240N-01271REMSYN05871223 16/// /2429 10019 21012 60001 333 11023 21127 70000=
0092712230999992021010212004+51930-110720SAO  +077299999V020240190149199999999999999999+00191-00121999999ADDOD130101951240REMAWY066XCS SA 1200 AUTO8 M M M M/02/-01/2429/M/ PK WND 2438 1136Z M 92MM=
0092712230999992021010213004+51930-110720SAO  +077299999V020240190144199999999999999999+00141-00171999999ADDOD130101701240REMAWY066XCS SA 1300 AUTO8 M M M M/01/-02/2428/M/ PK WND 2433 1246Z M 47MM=
0092712230999992021010214004+51930-110720SAO  +077299999V020260190098199999999999999999+00171-00151999999ADDOD130101491250REMAWY066XCS SA 1400 AUTO8 M M M M/02/-02/2619/M/ PK WND 2529 1302Z M 75MM=
0063712230999992021010215004+51933-110700FM-12+077299999V0202701N010319999999N999999999+00181-00351999999ADDAA103000091REMSYN04071223 26/// /2720 10018 21035 333 60007=
0092712230999992021010215004+51930-110720SAO  +077299999V020270190103199999999999999999+00181-00351999999ADDOD130101281270REMAWY066XCS SA 1500 AUTO8 M M M M/02/-04/2720/M/ PK WND 2725 1432Z M 85MM=
0092712230999992021010216004+51930-110720SAO  +077299999V020270190108199999999999999999+00131-00431999999ADDOD130101341270REMAWY066XCS SA 1600 AUTO8 M M M M/01/-04/2721/M/ PK WND 2726 1506Z M 33MM=
0092712230999992021010217004+51930-110720SAO  +077299999V020260190093199999999999999999+00121-00351999999ADDOD130101281260REMAWY066XCS SA 1700 AUTO8 M M M M/01/-04/2618/M/ PK WND 2625 1605Z M 25MM=
0118712230999992021010218004+51933-110700FM-12+077299999V0202501N008819999999N999999999+00061-00451999999ADDAA106000091AA224000091KA1120M+00291KA2120N-01381REMSYN05871223 16/// /2517 10006 21045 60001 333 10029 21138 70000=
0092712230999992021010218004+51930-110720SAO  +077299999V020250190087199999999999999999+00061-00351999999ADDOD130101031250REMAWY066XCS SA 1800 AUTO8 M M M M/01/-04/2517/M/ PK WND 2520 1722Z M 65MM=
0093712230999992021010219004+51930-110720SAO  +077299999V020230190082199999999999999999-00081-00491999999ADDOD130101031250REMAWY067XCS SA 1900 AUTO8 M M M M/-01/-05/2316/M/ PK WND 2520 1832Z M 89MM=
0092712230999992021010220004+51930-110720SAO  +077299999V020240190093199999999999999999+00081-00471999999ADDOD130101131230REMAWY066XCS SA 2000 AUTO8 M M M M/01/-05/2418/M/ PK WND 2322 1939Z M 87MM=
0063712230999992021010221004+51933-110700FM-12+077299999V0202201N007719999999N999999999-00021-00421999999ADDAA103000091REMSYN04071223 26/// /2215 11002 21042 333 60007=
0093712230999992021010221004+51930-110720SAO  +077299999V020230190077199999999999999999-00021-00421999999ADDOD130100981240REMAWY067XCS SA 2100 AUTO8 M M M M/00/-04/2315/M/ PK WND 2419 2000Z M -22MM=
0093712230999992021010222004+51930-110720SAO  +077299999V020220190077199999999999999999-00061-00411999999ADDOD130100931230REMAWY067XCS SA 2200 AUTO8 M M M M/-01/-04/2215/M/ PK WND 2318 2103Z M 61MM=
0092712230999992021010223004+51930-110720SAO  +077299999V020230190098199999999999999999+00061-00361999999ADDOD130101231230REMAWY066XCS SA 2300 AUTO8 M M M M/01/-04/2319/M/ PK WND 2324 2237Z M 66MM=
0118712230999992021010300004+51933-110700FM-12+077299999V0202101N008219999999N999999999-00151-00451999999ADDAA106000091AA224000091KA1120M+00291KA2120N-00241REMSYN05871223 16/// /2116 11015 21045 60001 333 10029 21024 70000=
0093712230999992021010300004+51930-110720SAO  +077299999V020210190082199999999999999999-00151-00351999999ADDOD130101081230REMAWY067XCS SA 0000 AUTO8 M M M M/-02/-04/2116/M/ PK WND 2321 2304Z M 55MM=
0093712230999992021010301004+51930-110720SAO  +077299999V020220190087199999999999999999-00051-00401999999ADDOD130100981220REMAWY067XCS SA 0100 AUTO8 M M M M/-01/-04/2217/M/ PK WND 2219 0059Z M 50MM=
0092712230999992021010302004+51930-110720SAO  +077299999V020220190108199999999999999999+00081-00361999999ADDOD130101341230REMAWY066XCS SA 0200 AUTO8 M M M M/01/-04/2221/M/ PK WND 2326 0146Z M 86MM=
0063712230999992021010303004+51933-110700FM-12+077299999V0202401N012419999999N999999999+00191-00271999999ADDAA103000091REMSYN04071223 26/// /2424 10019 21027 333 60007=
0092712230999992021010303004+51930-110720SAO  +077299999V020240190123199999999999999999+00191-00271999999ADDOD130101391240REMAWY066XCS SA 0300 AUTO8 M M M M/02/-03/2424/M/ PK WND 2427 0255Z M 97MM=
0092712230999992021010304004+51930-110720SAO  +077299999V020240190134199999999999999999+00331-00241999999ADDOD130101851250REMAWY066XCS SA 0400 AUTO8 M M M M/03/-02/2426/M/ PK WND 2536 0348Z M 34MM=
0092712230999992021010305004+51930-110720SAO  +077299999V020220190093199999999999999999+00181-00211999999ADDOD130101541220REMAWY066XCS SA 0500 AUTO8 M M M M/02/-02/2218/M/ PK WND 2230 0434Z M 81MM=
0134712230999992021010306004+51933-110700FM-12+077299999V0202301N016019999999N999999999+00311-00211999999ADDAA106000091AA224000091KA1240M+00361KA2240N-00241REMSYN07471223 16/// /2331 10031 21021 60001 333 10036 21024 70000 555 32438 40123=
0092712230999992021010306004+51930-110720SAO  +077299999V020230190159199999999999999999+00311-00211999999ADDOD130101851240REMAWY066XCS SA 0600 AUTO8 M M M M/03/-02/2331/M/ PK WND 2436 0547Z M 11MM=
0092712230999992021010307004+51930-110720SAO  +077299999V020230190159199999999999999999+00271-00171999999ADDOD130101951230REMAWY066XCS SA 0700 AUTO8 M M M M/03/-02/2331/M/ PK WND 2338 0600Z M 77MM=
0092712230999992021010308004+51930-110720SAO  +077299999V020220190134199999999999999999+00251-00171999999ADDOD130101951230REMAWY066XCS SA 0800 AUTO8 M M M M/03/-02/2226/M/ PK WND 2338 0705Z M 57MM=
0063712230999992021010309004+51933-110700FM-12+077299999V0202201N013919999999N999999999+00261-00161999999ADDAA103000091REMSYN04071223 26/// /2227 10026 21016 333 60007=
0092712230999992021010309004+51930-110720SAO  +077299999V020220190139199999999999999999+00261-00161999999ADDOD130101751220REMAWY066XCS SA 0900 AUTO8 M M M M/03/-02/2227/M/ PK WND 2234 0820Z M 66MM=
0092712230999992021010310004+51930-110720SAO  +077299999V020220190139199999999999999999+00231-00151999999ADDOD130101751220REMAWY066XCS SA 1000 AUTO8 M M M M/02/-02/2227/M/ PK WND 2234 0911Z M 35MM=
0092712230999992021010311004+51930-110720SAO  +077299999V020220190123199999999999999999+00181-00141999999ADDOD130101701220REMAWY066XCS SA 1100 AUTO8 M M M M/02/-01/2224/M/ PK WND 2233 1009Z M 84MM=
0118712230999992021010312004+51933-110700FM-12+077299999V0202201N010319999999N999999999+00191-00151999999ADDAA106000091AA224000091KA1240M+00361KA2240N-00201REMSYN05871223 16/// /2220 10019 21015 60001 333 10036 21020 70000=
0092712230999992021010312004+51930-110720SAO  +077299999V020220190103199999999999999999+00191-00151999999ADDOD130101391220REMAWY066XCS SA 1200 AUTO8 M M M M/02/-02/2220/M/ PK WND 2227 1125Z M 95MM=
0092712230999992021010313004+51930-110720SAO  +077299999V020230190098199999999999999999+00151-00151999999ADDOD130101181230REMAWY066XCS SA 1300 AUTO8 M M M M/02/-02/2319/M/ PK WND 2323 1235Z M 55MM=
0092712230999992021010314004+51930-110720SAO  +077299999V020270190103199999999999999999+00171-00231999999ADDOD130101341270REMAWY066XCS SA 1400 AUTO8 M M M M/02/-02/2720/M/ PK WND 2726 1359Z M 73MM=
0063712230999992021010315004+51933-110700FM-12+077299999V0203001N008219999999N999999999-00011-00371999999ADDAA103000091REMSYN04071223 26/// /3016 11001 21037 333 60007=
0093712230999992021010315004+51930-110720SAO  +077299999V020300190082199999999999999999-00011-00371999999ADDOD130101181260REMAWY067XCS SA 1500 AUTO8 M M M M/00/-04/3016/M/ PK WND 2623 1400Z M -17MM=
0093712230999992021010316004+51930-110720SAO  +077299999V020300190062199999999999999999-00121-00421999999ADDOD130101031310REMAWY067XCS SA 1600 AUTO8 M M M M/-01/-04/3012/M/ PK WND 3120 1502Z M 22MM=
0058712230999992021010317004+51930-110720SAO  +077299999V020290190067199999999999999999-00141-00401999999REMAWY049XCS SA 1700 AUTO8 M M M M/-01/-04/2913/M/ M 40MM=
0118712230999992021010318004+51933-110700FM-12+077299999V0202801N006719999999N999999999+00021-00321999999ADDAA106000091AA224000091KA1120M+00311KA2120N-00201REMSYN05871223 16/// /2813 10002 21032 60001 333 10031 21020 70000=
0092712230999992021010318004+51930-110720SAO  +077299999V020280190067199999999999999999+00021-00321999999ADDOD130100871280REMAWY066XCS SA 1800 AUTO8 M M M M/00/-03/2813/M/ PK WND 2817 1719Z M 22MM=
0058712230999992021010319004+51930-110720SAO  +077299999V020280190067199999999999999999-00011-00331999999REMAWY049XCS SA 1900 AUTO8 M M M M/00/-03/2813/M/ M -13MM=
0092712230999992021010320004+51930-110720SAO  +077299999V020290190093199999999999999999+00191-00281999999ADDOD130101591290REMAWY066XCS SA 2000 AUTO8 M M M M/02/-03/2918/M/ PK WND 2931 1952Z M 98MM=
0063712230999992021010321004+51933-110700FM-12+077299999V0202801N005719999999N999999999+00031-00331999999ADDAA103000091REMSYN04071223 26/// /2811 10003 21033 333 60007=
0092712230999992021010321004+51930-110720SAO  +077299999V020280190057199999999999999999+00031-00331999999ADDOD130101131290REMAWY066XCS SA 2100 AUTO8 M M M M/00/-03/2811/M/ PK WND 2922 2000Z M 33MM=
0093712230999992021010322004+51930-110720SAO  +077299999V020270190082199999999999999999-00011-00301999999ADDOD130101031270REMAWY067XCS SA 2200 AUTO8 M M M M/00/-03/2716/M/ PK WND 2720 2152Z M -10MM=
0093712230999992021010323004+51930-110720SAO  +077299999V020270190082199999999999999999-00091-00431999999ADDOD130100931270REMAWY067XCS SA 2300 AUTO8 M M M M/-01/-04/2716/M/ PK WND 2718 2201Z M 93MM=
0118712230999992021010400004+51933-110700FM-12+077299999V0202601N008819999999N999999999-00151-00661999999ADDAA106000091AA224000091KA1120M+00251KA2120N-00181REMSYN05871223 16/// /2617 11015 21066 60001 333 10025 21018 70000=
0093712230999992021010400004+51930-110720SAO  +077299999V020260190087199999999999999999-00151-00661999999ADDOD130101031260REMAWY067XCS SA 0000 AUTO8 M M M M/-02/-07/2617/M/ PK WND 2620 2358Z M 56MM=
0093712230999992021010401004+51930-110720SAO  +077299999V020260190098199999999999999999-00271-00751999999ADDOD130101081260REMAWY067XCS SA 0100 AUTO8 M M M M/-03/-08/2619/M/ PK WND 2621 0052Z M 75MM=
0093712230999992021010402004+51930-110720SAO  +077299999V020260190103199999999999999999-00291-00841999999ADDOD130101131260REMAWY067XCS SA 0200 AUTO8 M M M M/-03/-08/2620/M/ PK WND 2622 0159Z M 94MM=
0063712230999992021010403004+51933-110700FM-12+077299999V0202701N009819999999N999999999-00311-00971999999ADDAA103000091REMSYN04071223 26/// /2719 11031 21097 333 60007=
0093712230999992021010403004+51930-110720SAO  +077299999V020270190098199999999999999999-00311-00971999999ADDOD130101181270REMAWY067XCS SA 0300 AUTO8 M M M M/-03/-10/2719/M/ PK WND 2723 0242Z M 17MM=
0093712230999992021010404004+51930-110720SAO  +077299999V020260190087199999999999999999-00431-01081999999ADDOD130101131260REMAWY067XCS SA 0400 AUTO8 M M M M/-04/-11/2617/M/ PK WND 2622 0321Z M 38MM=
0093712230999992021010405004+51930-110720SAO  +077299999V020260190108199999999999999999-00411-01101999999ADDOD130101181260REMAWY067XCS SA 0500 AUTO8 M M M M/-04/-11/2621/M/ PK WND 2623 0458Z M 10MM=
0134712230999992021010406004+51933-110700FM-12+077299999V0202601N009819999999N999999999-00461-01151999999ADDAA106000091AA224000091KA1240M+00311KA2240N-00481REMSYN07471223 16/// /2619 11046 21115 60001 333 10031 21048 70000 555 32338 40063=
0093712230999992021010406004+51930-110720SAO  +077299999V020260190098199999999999999999-00461-01151999999ADDOD130101181260REMAWY067XCS SA 0600 AUTO8 M M M M/-05/-12/2619/M/ PK WND 2623 0519Z M 65MM=
0093712230999992021010407004+51930-110720SAO  +077299999V020270190098199999999999999999-00351-01131999999ADDOD130101131270REMAWY067XCS SA 0700 AUTO8 M M M M/-04/-11/2719/M/ PK WND 2722 0630Z M 53MM=
0093712230999992021010408004+51930-110720SAO  +077299999V020270190108199999999999999999-00531-01181999999ADDOD130101231270REMAWY067XCS SA 0800 AUTO8 M M M M/-05/-12/2721/M/ PK WND 2724 0757Z M 38MM=
0063712230999992021010409004+51933-110700FM-12+077299999V0202701N010319999999N999999999-00511-01211999999ADDAA103000091REMSYN04071223 26/// /2720 11051 21121 333 60007=
0093712230999992021010409004+51930-110720SAO  +077299999V020270190103199999999999999999-00511-01211999999ADDOD130101181260REMAWY067XCS SA 0900 AUTO8 M M M M/-05/-12/2720/M/ PK WND 2623 0839Z M 11MM=
0093712230999992021010410004+51930-110720SAO  +077299999V020280190108199999999999999999-00531-01151999999ADDOD130101181280REMAWY067XCS SA 1000 AUTO8 M M M M/-05/-12/2821/M/ PK WND 2823 0943Z M 35MM=
0093712230999992021010411004+51930-110720SAO  +077299999V020280190093199999999999999999-00541-01261999999ADDOD130101181270REMAWY067XCS SA 1100 AUTO8 M M M M/-05/-13/2818/M/ PK WND 2723 1004Z M 46MM=
0118712230999992021010412004+51933-110700FM-12+077299999V0202801N008819999999N999999999-00531-01251999999ADDAA106000091AA224000091KA1240M+00311KA2240N-00621REMSYN05871223 16/// /2817 11053 21125 60001 333 10031 21062 70000=
0093712230999992021010412004+51930-110720SAO  +077299999V020280190087199999999999999999-00531-01151999999ADDOD130101081280REMAWY067XCS SA 1200 AUTO8 M M M M/-05/-12/2817/M/ PK WND 2821 1116Z M 35MM=
0093712230999992021010413004+51930-110720SAO  +077299999V020270190077199999999999999999-00611-01261999999ADDOD130100931280REMAWY067XCS SA 1300 AUTO8 M M M M/-06/-13/2715/M/ PK WND 2818 1207Z M 16MM=
0058712230999992021010414004+51930-110720SAO  +077299999V020260190051199999999999999999-00841-01361999999REMAWY049XCS SA 1400 AUTO8 M M M M/-08/-14/2610/M/ M 46MM=
0063712230999992021010415004+51933-110700FM-12+077299999V0202401N004619999999N999999999-01011-01501999999ADDAA103000091REMSYN04071223 26/// /2409 11101 21150 333 60007=
0058712230999992021010415004+51930-110720SAO  +077299999V020240190046199999999999999999-01011-01501999999REMAWY049XCS SA 1500 AUTO8 M M M M/-10/-15/2409/M/ M 10MM=
0058712230999992021010416004+51930-110720SAO  +077299999V020260190036199999999999999999-00761-01371999999REMAWY049XCS SA 1600 AUTO8 M M M M/-08/-14/2607/M/ M 67MM=
0058712230999992021010417004+51930-110720SAO  +077299999V020230190062199999999999999999-01061-01481999999REMAWY049XCS SA 1700 AUTO8 M M M M/-11/-15/2312/M/ M 68MM=
0075712230999992021010418004+51937-111176FM-12+077299999V0202201N0059199999999999999999-00931-01401999999ADDAA101999999AA206999999AA324999999KA1120M-00471KA2240N-01201REMSYN004BUFR
0058712230999992021010418004+51930-110720SAO  +077299999V020220190057199999999999999999-00931-01401999999REMAWY049XCS SA 1800 AUTO8 M M M M/-09/-14/2211/M/ M 30MM=
0058712230999992021010419004+51930-110720SAO  +077299999V020220190051199999999999999999-00801-01321999999REMAWY049XCS SA 1900 AUTO8 M M M M/-08/-13/2210/M/ M 02MM=
0058712230999992021010420004+51930-110720SAO  +077299999V020210190057199999999999999999-00771-01151999999REMAWY049XCS SA 2000 AUTO8 M M M M/-08/-12/2111/M/ M 75MM=
0063712230999992021010421004+51933-110700FM-12+077299999V0201201N002619999999N999999999-00561-01181999999ADDAA103000091REMSYN04071223 26/// /1205 11056 21118 333 60007=
0058712230999992021010421004+51930-110720SAO  +077299999V020120190026199999999999999999-00561-01181999999REMAWY049XCS SA 2100 AUTO8 M M M M/-06/-12/1205/M/ M 68MM=
0058712230999992021010422004+51930-110720SAO  +077299999V020100190031199999999999999999-00751-01271999999REMAWY049XCS SA 2200 AUTO8 M M M M/-08/-13/1006/M/ M 57MM=
0058712230999992021010423004+51930-110720SAO  +077299999V020090190021199999999999999999-00801-01141999999REMAWY049XCS SA 2300 AUTO8 M M M M/-08/-11/0904/M/ M 04MM=
0075712230999992021010500004+51937-111176FM-12+077299999V0200901N0023199999999999999999-00901-01161999999ADDAA101999999AA206999999AA324999999KA1120M-00561KA2180N-01201REMSYN004BUFR
0058712230999992021010500004+51930-110720SAO  +077299999V020090190031199999999999999999-00871-01161999999REMAWY049XCS SA 0000 AUTO8 M M M M/-09/-12/0906/M/ M 76MM=
0058712230999992021010501004+51930-110720SAO  +077299999V020090190031199999999999999999-00751-01111999999REMAWY049XCS SA 0100 AUTO8 M M M M/-08/-11/0906/M/ M 51MM=
0058712230999992021010502004+51930-110720SAO  +077299999V020080190036199999999999999999-00931-01131999999REMAWY049XCS SA 0200 AUTO8 M M M M/-09/-11/0807/M/ M 33MM=
0063712230999992021010503004+51933-110700FM-12+077299999V0200801N003119999999N999999999-00921-01121999999ADDAA103000091REMSYN04071223 26/// /0806 11092 21112 333 60007=
0058712230999992021010503004+51930-110720SAO  +077299999V020080190031199999999999999999-00921-01121999999REMAWY049XCS SA 0300 AUTO8 M M M M/-09/-11/0806/M/ M 22MM=
0058712230999992021010504004+51930-110720SAO  +077299999V020100190036199999999999999999-00741-01001999999REMAWY049XCS SA 0400 AUTO8 M M M M/-07/-10/1007/M/ M 40MM=
0058712230999992021010505004+51930-110720SAO  +077299999V020090190036199999999999999999-00851-01081999999REMAWY049XCS SA 0500 AUTO8 M M M M/-09/-11/0907/M/ M 58MM=
0134712230999992021010506004+51933-110700FM-12+077299999V0200901N003119999999N999999999-00771-00991999999ADDAA106000091AA224000091KA1240M-00391KA2240N-01111REMSYN07471223 16/// /0906 11077 21099 60001 333 11039 21111 70000 555 32724 40081=
0058712230999992021010506004+51930-110720SAO  +077299999V020100190031199999999999999999-00771-00991999999REMAWY049XCS SA 0600 AUTO8 M M M M/-08/-10/1006/M/ M 79MM=
0058712230999992021010507004+51930-110720SAO  +077299999V020100190026199999999999999999-00681-00901999999REMAWY049XCS SA 0700 AUTO8 M M M M/-07/-09/1005/M/ M 80MM=
0058712230999992021010508004+51930-110720SAO  +077299999V020070190021199999999999999999-00511-00741999999REMAWY049XCS SA 0800 AUTO8 M M M M/-05/-07/0704/M/ M 14MM=
0063712230999992021010509004+51933-110700FM-12+077299999V0200901N002119999999N999999999-00441-00601999999ADDAA103000091REMSYN04071223 26/// /0904 11044 21060 333 60007=
0058712230999992021010509004+51930-110720SAO  +077299999V020090190021199999999999999999-00441-00601999999REMAWY049XCS SA 0900 AUTO8 M M M M/-04/-06/0904/M/ M 40MM=
0058712230999992021010510004+51930-110720SAO  +077299999V020360190000199999999999999999-00341-00521999999REMAWY049XCS SA 1000 AUTO8 M M M M/-03/-05/0000/M/ M 42MM=
0095712230999992021010511004+51930-110720SAO  +077299999V020240190031199999999999999999-00191-00321999999ADDAA101000531REMAWY072XCS SA 1100 AUTO8 M M M M/-02/-03/2406/M/0005 PCPN 0.5MM PAST HR M 92MM=
0070712230999992021010512004+51937-111176FM-12+077299999V0202971N0105199999999999999999-00111-00241999999ADDAA101999999AA206999999AA324999999AZ141061KA1120N-00941REMSYN004BUFR
0097712230999992021010512004+51930-110720SAO  +077299999V020300190108199999999999999999-00071-00231999999ADDOD130101341300REMAWY071XCS SA 1200 AUTO8 M M M M/-01/-02/3021/M/0005 PK WND 3026 1153Z M 73MM=
0093712230999992021010513004+51930-110720SAO  +077299999V020310190118199999999999999999-00231-00401999999ADDOD130101441300REMAWY067XCS SA 1300 AUTO8 M M M M/-02/-04/3123/M/ PK WND 3028 1258Z M 30MM=
0093712230999992021010514004+51930-110720SAO  +077299999V020300190103199999999999999999-00351-00691999999ADDOD130101441300REMAWY067XCS SA 1400 AUTO8 M M M M/-04/-07/3020/M/ PK WND 3028 1300Z M 59MM=
0063712230999992021010515004+51933-110700FM-12+077299999V0203001N010319999999N999999999-00321-00691999999ADDAA103000091REMSYN04071223 26/// /3020 11032 21069 333 60007=
0093712230999992021010515004+51930-110720SAO  +077299999V020300190103199999999999999999-00311-00691999999ADDOD130101341300REMAWY067XCS SA 1500 AUTO8 M M M M/-03/-07/3020/M/ PK WND 3026 1405Z M 19MM=
0093712230999992021010516004+51930-110720SAO  +077299999V020300190093199999999999999999-00281-00641999999ADDOD130101341300REMAWY067XCS SA 1600 AUTO8 M M M M/-03/-06/3018/M/ PK WND 3026 1539Z M 84MM=
0093712230999992021010517004+51930-110720SAO  +077299999V020290190098199999999999999999-00271-00571999999ADDOD130101231300REMAWY067XCS SA 1700 AUTO8 M M M M/-03/-06/2919/M/ PK WND 3024 1630Z M 77MM=
0118712230999992021010518004+51933-110700FM-12+077299999V0202901N010319999999N999999999-00211-00551999999ADDAA106000091AA224000531KA1120M-00041KA2120N-00951REMSYN05871223 16/// /2920 11021 21055 60001 333 11004 21095 70005=
0093712230999992021010518004+51930-110720SAO  +077299999V020290190103199999999999999999-00211-00551999999ADDOD130101231290REMAWY067XCS SA 1800 AUTO8 M M M M/-02/-06/2920/M/ PK WND 2924 1753Z M 15MM=
0093712230999992021010519004+51930-110720SAO  +077299999V020290190108199999999999999999-00161-00561999999ADDOD130101281300REMAWY067XCS SA 1900 AUTO8 M M M M/-02/-06/2921/M/ PK WND 3025 1858Z M 66MM=
0093712230999992021010520004+51930-110720SAO  +077299999V020290190093199999999999999999-00101-00581999999ADDOD130101231300REMAWY067XCS SA 2000 AUTO8 M M M M/-01/-06/2918/M/ PK WND 3024 1902Z M 08MM=
0063712230999992021010521004+51933-110700FM-12+077299999V0203001N007719999999N999999999-00141-00621999999ADDAA103000091REMSYN04071223 26/// /3015 11014 21062 333 60007=
0093712230999992021010521004+51930-110720SAO  +077299999V020300190077199999999999999999-00141-00621999999ADDOD130101181290REMAWY067XCS SA 2100 AUTO8 M M M M/-01/-06/3015/M/ PK WND 2923 2015Z M 42MM=
0093712230999992021010522004+51930-110720SAO  +077299999V020290190077199999999999999999-00161-00661999999ADDOD130100931290REMAWY067XCS SA 2200 AUTO8 M M M M/-02/-07/2915/M/ PK WND 2918 2144Z M 66MM=
0093712230999992021010523004+51930-110720SAO  +077299999V020280190077199999999999999999-00301-00771999999ADDOD130100981280REMAWY067XCS SA 2300 AUTO8 M M M M/-03/-08/2815/M/ PK WND 2819 2220Z M 07MM=
0118712230999992021010600004+51933-110700FM-12+077299999V0202701N006719999999N999999999-00451-00851999999ADDAA106000091AA224000531KA1120M-00071KA2120N-00771REMSYN05871223 16/// /2713 11045 21085 60001 333 11007 21077 70005=
0093712230999992021010600004+51930-110720SAO  +077299999V020270190067199999999999999999-00351-00751999999ADDOD130100931280REMAWY067XCS SA 0000 AUTO8 M M M M/-04/-08/2713/M/ PK WND 2818 2310Z M 55MM=
0058712230999992021010601004+51930-110720SAO  +077299999V020220190046199999999999999999-00711-01001999999REMAWY049XCS SA 0100 AUTO8 M M M M/-07/-10/2209/M/ M 10MM=
0058712230999992021010602004+51930-110720SAO  +077299999V020220190057199999999999999999-00841-01121999999REMAWY049XCS SA 0200 AUTO8 M M M M/-08/-11/2211/M/ M 42MM=
0063712230999992021010603004+51933-110700FM-12+077299999V0202101N005119999999N999999999-00931-01231999999ADDAA103000091REMSYN04071223 26/// /2110 11093 21123 333 60007=
0058712230999992021010603004+51930-110720SAO  +077299999V020210190051199999999999999999-00931-01231999999REMAWY049XCS SA 0300 AUTO8 M M M M/-09/-12/2110/M/ M 33MM=
0058712230999992021010604004+51930-110720SAO  +077299999V020190190036199999999999999999-00861-01221999999REMAWY049XCS SA 0400 AUTO8 M M M M/-09/-12/1907/M/ M 62MM=
0058712230999992021010605004+51930-110720SAO  +077299999V020130190026199999999999999999-00551-01111999999REMAWY049XCS SA 0500 AUTO8 M M M M/-06/-11/1305/M/ M 51MM=
0134712230999992021010606004+51933-110700FM-12+077299999V0201801N004119999999N999999999-00441-00911999999ADDAA106000091AA224000531KA1240M-00041KA2240N-00961REMSYN07471223 16/// /1808 11044 21091 60001 333 11004 21096 70005 555 33028 40131=
0058712230999992021010606004+51930-110720SAO  +077299999V020180190041199999999999999999-00441-00911999999REMAWY049XCS SA 0600 AUTO8 M M M M/-04/-09/1808/M/ M 41MM=
0058712230999992021010607004+51930-110720SAO  +077299999V020190190051199999999999999999-00531-00871999999REMAWY049XCS SA 0700 AUTO8 M M M M/-05/-09/1910/M/ M 37MM=
0093712230999992021010608004+51930-110720SAO  +077299999V020200190072199999999999999999-00441-00821999999ADDOD130100871200REMAWY067XCS SA 0800 AUTO8 M M M M/-04/-08/2014/M/ PK WND 2017 0759Z M 42MM=
0063712230999992021010609004+51933-110700FM-12+077299999V0201901N006719999999N999999999-00381-00791999999ADDAA103000091REMSYN04071223 26/// /1913 11038 21079 333 60007=
0093712230999992021010609004+51930-110720SAO  +077299999V020190190067199999999999999999-00381-00791999999ADDOD130100931180REMAWY067XCS SA 0900 AUTO8 M M M M/-04/-08/1913/M/ PK WND 1818 0834Z M 89MM=
0093712230999992021010610004+51930-110720SAO  +077299999V020200190082199999999999999999-00341-00751999999ADDOD130101031190REMAWY067XCS SA 1000 AUTO8 M M M M/-03/-08/2016/M/ PK WND 1920 0938Z M 45MM=
0093712230999992021010611004+51930-110720SAO  +077299999V020210190087199999999999999999-00331-00721999999ADDOD130101031190REMAWY067XCS SA 1100 AUTO8 M M M M/-03/-07/2117/M/ PK WND 1920 1003Z M 32MM=
0118712230999992021010612004+51933-110700FM-12+077299999V0202001N005119999999N999999999-00441-00751999999ADDAA106000091AA224000091KA1240M-00041KA2240N-00961REMSYN05871223 16/// /2010 11044 21075 60001 333 11004 21096 70000=
0093712230999992021010612004+51930-110720SAO  +077299999V020200190051199999999999999999-00441-00751999999ADDOD130100931210REMAWY067XCS SA 1200 AUTO8 M M M M/-04/-08/2010/M/ PK WND 2118 1100Z M 45MM=
0093712230999992021010613004+51930-110720SAO  +077299999V020200190062199999999999999999-00381-00681999999ADDOD130100931210REMAWY067XCS SA 1300 AUTO8 M M M M/-04/-07/2012/M/ PK WND 2118 1230Z M 88MM=
0093712230999992021010614004+51930-110720SAO  +077299999V020220190067199999999999999999-00361-00671999999ADDOD130100931210REMAWY067XCS SA 1400 AUTO8 M M M M/-04/-07/2213/M/ PK WND 2118 1337Z M 67MM=
0063712230999992021010615004+51933-110700FM-12+077299999V0202101N007219999999N999999999-00311-00591999999ADDAA103000091REMSYN04071223 26/// /2114 11031 21059 333 60007=
0093712230999992021010615004+51930-110720SAO  +077299999V020220190072199999999999999999-00311-00591999999ADDOD130100931220REMAWY067XCS SA 1500 AUTO8 M M M M/-03/-06/2214/M/ PK WND 2218 1458Z M 19MM=
0093712230999992021010616004+51930-110720SAO  +077299999V020220190077199999999999999999-00201-00521999999ADDOD130100981220REMAWY067XCS SA 1600 AUTO8 M M M M/-02/-05/2215/M/ PK WND 2219 1514Z M 02MM=
0093712230999992021010617004+51930-110720SAO  +077299999V020220190087199999999999999999-00151-00351999999ADDOD130100981210REMAWY067XCS SA 1700 AUTO8 M M M M/-02/-04/2217/M/ PK WND 2119 1659Z M 55MM=
0118712230999992021010618004+51933-110700FM-12+077299999V0202301N008819999999N999999999-00021-00331999999ADDAA106000091AA224000091KA1120M-00021KA2120N-00961REMSYN05871223 16/// /2317 11002 21033 60001 333 11002 21096 70000=
0093712230999992021010618004+51930-110720SAO  +077299999V020230190087199999999999999999-00021-00331999999ADDOD130101031220REMAWY067XCS SA 1800 AUTO8 M M M M/00/-03/2317/M/ PK WND 2220 1719Z M -23MM=
0092712230999992021010619004+51930-110720SAO  +077299999V020230190077199999999999999999+00021-00281999999ADDOD130101031230REMAWY066XCS SA 1900 AUTO8 M M M M/00/-03/2315/M/ PK WND 2320 1808Z M 28MM=
0092712230999992021010620004+51930-110720SAO  +077299999V020240190077199999999999999999+00111-00281999999ADDOD130100981240REMAWY066XCS SA 2000 AUTO8 M M M M/01/-03/2415/M/ PK WND 2419 1945Z M 18MM=
0063712230999992021010621004+51933-110700FM-12+077299999V0202601N007719999999N999999999+00151-00261999999ADDAA103000091REMSYN04071223 26/// /2615 10015 21026 333 60007=
0092712230999992021010621004+51930-110720SAO  +077299999V020260190077199999999999999999+00151-00261999999ADDOD130101031240REMAWY066XCS SA 2100 AUTO8 M M M M/02/-03/2615/M/ PK WND 2420 2016Z M 56MM=
0092712230999992021010622004+51930-110720SAO  +077299999V020250190046199999999999999999+00091-00311999999ADDOD130100871270REMAWY066XCS SA 2200 AUTO8 M M M M/01/-03/2509/M/ PK WND 2717 2104Z M 91MM=
0058712230999992021010623004+51930-110720SAO  +077299999V020230190051199999999999999999-00081-00321999999REMAWY049XCS SA 2300 AUTO8 M M M M/-01/-03/2310/M/ M 82MM=
0118712230999992021010700004+51933-110700FM-12+077299999V0202701N004619999999N999999999+00191-00331999999ADDAA106000091AA224000091KA1120M+00221KA2120N-00551REMSYN05871223 16/// /2709 10019 21033 60001 333 10022 21055 70000=
0057712230999992021010700004+51930-110720SAO  +077299999V020270190046199999999999999999+00191-00331999999REMAWY048XCS SA 0000 AUTO8 M M M M/02/-03/2709/M/ M 93MM=
0057712230999992021010701004+51930-110720SAO  +077299999V020270190036199999999999999999+00091-00361999999REMAWY048XCS SA 0100 AUTO8 M M M M/01/-04/2707/M/ M 96MM=
0057712230999992021010702004+51930-110720SAO  +077299999V020290190041199999999999999999+00271-00481999999REMAWY048XCS SA 0200 AUTO8 M M M M/03/-05/2908/M/ M 78MM=
0063712230999992021010703004+51933-110700FM-12+077299999V0202201N005719999999N999999999-00091-00371999999ADDAA103000091REMSYN04071223 26/// /2211 11009 21037 333 60007=
0058712230999992021010703004+51930-110720SAO  +077299999V020220190057199999999999999999-00091-00371999999REMAWY049XCS SA 0300 AUTO8 M M M M/-01/-04/2211/M/ M 97MM=
0058712230999992021010704004+51930-110720SAO  +077299999V020230190051199999999999999999-00071-00401999999REMAWY049XCS SA 0400 AUTO8 M M M M/-01/-04/2310/M/ M 70MM=
0057712230999992021010705004+51930-110720SAO  +077299999V020240190041199999999999999999+00011-00401999999REMAWY048XCS SA 0500 AUTO8 M M M M/00/-04/2408/M/ M 10MM=
0134712230999992021010706004+51933-110700FM-12+077299999V0202301N003619999999N999999999-00031-00411999999ADDAA106000091AA224000091KA1240M+00281KA2240N-00551REMSYN07471223 16/// /2307 11003 21041 60001 333 10028 21055 70000 555 32420 40211=
0058712230999992021010706004+51930-110720SAO  +077299999V020230190036199999999999999999-00031-00411999999REMAWY049XCS SA 0600 AUTO8 M M M M/00/-04/2307/M/ M -31MM=
0057712230999992021010707004+51930-110720SAO  +077299999V020290190041199999999999999999+00071-00471999999REMAWY048XCS SA 0700 AUTO8 M M M M/01/-05/2908/M/ M 77MM=
0058712230999992021010708004+51930-110720SAO  +077299999V020300190046199999999999999999-00101-00631999999REMAWY049XCS SA 0800 AUTO8 M M M M/-01/-06/3009/M/ M 03MM=
0063712230999992021010709004+51933-110700FM-12+077299999V0203201N003119999999N999999999-00071-00651999999ADDAA103000091REMSYN04071223 26/// /3206 11007 21065 333 60007=
0058712230999992021010709004+51930-110720SAO  +077299999V020320190031199999999999999999-00071-00551999999REMAWY049XCS SA 0900 AUTO8 M M M M/-01/-06/3206/M/ M 75MM=
0058712230999992021010710004+51930-110720SAO  +077299999V020340190031199999999999999999-00181-00781999999REMAWY049XCS SA 1000 AUTO8 M M M M/-02/-08/3406/M/ M 88MM=
0058712230999992021010711004+51930-110720SAO  +077299999V020350190031199999999999999999-00361-00841999999REMAWY049XCS SA 1100 AUTO8 M M M M/-04/-08/3506/M/ M 64MM=
0118712230999992021010712004+51933-110700FM-12+077299999V0200601N001519999999N999999999+00111-00881999999ADDAA106000091AA224000091KA1240M+00281KA2240N-00421REMSYN05871223 16/// /0603 10011 21088 60001 333 10028 21042 70000=
0057712230999992021010712004+51930-110720SAO  +077299999V020060190015199999999999999999+00111-00881999999REMAWY048XCS SA 1200 AUTO8 M M M M/01/-09/0603/M/ M 18MM=
0057712230999992021010713004+51930-110720SAO  +077299999V020050190021199999999999999999+00031-00871999999REMAWY048XCS SA 1300 AUTO8 M M M M/00/-09/0504/M/ M 37MM=
0058712230999992021010714004+51930-110720SAO  +077299999V020360190015199999999999999999-00351-00801999999REMAWY049XCS SA 1400 AUTO8 M M M M/-04/-08/3603/M/ M 50MM=
0063712230999992021010715004+51933-110700FM-12+077299999V0201801N001019999999N999999999-00281-00851999999ADDAA103000091REMSYN04071223 26/// /1802 11028 21085 333 60007=
0058712230999992021010715004+51930-110720SAO  +077299999V020180190010199999999999999999-00281-00751999999REMAWY049XCS SA 1500 AUTO8 M M M M/-03/-08/1802/M/ M 85MM=
0058712230999992021010716004+51930-110720SAO  +077299999V020200190036199999999999999999-00571-01001999999REMAWY049XCS SA 1600 AUTO8 M M M M/-06/-10/2007/M/ M 70MM=
0058712230999992021010717004+51930-110720SAO  +077299999V020310190036199999999999999999-00591-00951999999REMAWY049XCS SA 1700 AUTO8 M M M M/-06/-10/3107/M/ M 95MM=
0118712230999992021010718004+51933-110700FM-12+077299999V0201401N001519999999N999999999-00131-00861999999ADDAA106000091AA224000091KA1120M+00181KA2120N-00591REMSYN05871223 16/// /1403 11013 21086 60001 333 10018 21059 70000=
0058712230999992021010718004+51930-110720SAO  +077299999V020140190015199999999999999999-00131-00861999999REMAWY049XCS SA 1800 AUTO8 M M M M/-01/-09/1403/M/ M 36MM=
0058712230999992021010719004+51930-110720SAO  +077299999V020150190015199999999999999999-00161-00821999999REMAWY049XCS SA 1900 AUTO8 M M M M/-02/-08/1503/M/ M 62MM=
0058712230999992021010720004+51930-110720SAO  +077299999V020240190005199999999999999999-00141-00791999999REMAWY049XCS SA 2000 AUTO8 M M M M/-01/-08/2401/M/ M 49MM=
0063712230999992021010721004+51933-110700FM-12+077299999V0203101N002119999999N999999999-00141-00711999999ADDAA103000091REMSYN04071223 26/// /3104 11014 21071 333 60007=
0058712230999992021010721004+51930-110720SAO  +077299999V020320190021199999999999999999-00141-00711999999REMAWY049XCS SA 2100 AUTO8 M M M M/-01/-07/3204/M/ M 41MM=
0057712230999992021010722004+51930-110720SAO  +077299999V020120190005199999999999999999+00051-00681999999REMAWY048XCS SA 2200 AUTO8 M M M M/01/-07/1201/M/ M 58MM=
0058712230999992021010723004+51930-110720SAO  +077299999V020110190010199999999999999999-00091-00661999999REMAWY049XCS SA 2300 AUTO8 M M M M/-01/-07/1102/M/ M 96MM=
0075712230999992021010800004+51937-111176FM-12+077299999V0201121N0012199999999999999999-00321-00761999999ADDAA101999999AA206999999AA324999999KA1120M+00151KA2180N-00691REMSYN004BUFR
0058712230999992021010800004+51930-110720SAO  +077299999V020110190015199999999999999999-00271-00711999999REMAWY049XCS SA 0000 AUTO8 M M M M/-03/-07/1103/M/ M 71MM=
0058712230999992021010801004+51930-110720SAO  +077299999V020140190015199999999999999999-00401-00721999999REMAWY049XCS SA 0100 AUTO8 M M M M/-04/-07/1403/M/ M 02MM=
0058712230999992021010802004+51930-110720SAO  +077299999V020180190010199999999999999999-00431-00691999999REMAWY049XCS SA 0200 AUTO8 M M M M/-04/-07/1802/M/ M 39MM=
0063712230999992021010803004+51933-110700FM-12+077299999V0203101N003619999999N999999999-00921-01141999999ADDAA103000091REMSYN04071223 26/// /3107 11092 21114 333 60007=
0058712230999992021010803004+51930-110720SAO  +077299999V020310190036199999999999999999-00921-01141999999REMAWY049XCS SA 0300 AUTO8 M M M M/-09/-11/3107/M/ M 24MM=
0058712230999992021010804004+51930-110720SAO  +077299999V020230190031199999999999999999-00661-00931999999REMAWY049XCS SA 0400 AUTO8 M M M M/-07/-09/2306/M/ M 63MM=
0058712230999992021010805004+51930-110720SAO  +077299999V020210190041199999999999999999-00751-01031999999REMAWY049XCS SA 0500 AUTO8 M M M M/-08/-10/2108/M/ M 53MM=
0118712230999992021010806004+51933-110700FM-12+077299999V0202101N003119999999N999999999-00901-01051999999ADDAA106000091AA224000091KA1240M+00181KA2240N-01001REMSYN05871223 16/// /2106 11090 21105 60001 333 10018 21100 70000=
0118712230999992021010812004+51933-110700FM-12+077299999V0202101N001019999999N999999999-01141-01321999999ADDAA106000091AA224000091KA1240M+00181KA2240N-01221REMSYN05871223 16/// /2102 11114 21132 60001 333 10018 21122 70000=
0118712230999992021010818004+51933-110700FM-12+077299999V0202001N001519999999N999999999-01061-01261999999ADDAA106000091AA224000091KA1120M-00841KA2120N-01371REMSYN05871223 16/// /2003 11106 21126 60001 333 11084 21137 70000=
0058712230999992021010822004+51930-110720SAO  +077299999V020150190026199999999999999999-00781-00951999999REMAWY049XCS SA 2200 AUTO8 M M M M/-08/-10/1505/M/ M 85MM=
0058712230999992021010823004+51930-110720SAO  +077299999V020140190015199999999999999999-00691-00841999999REMAWY049XCS SA 2300 AUTO8 M M M M/-07/-08/1403/M/ M 94MM=
0118712230999992021010900004+51933-110700FM-12+077299999V0201901N005719999999N999999999-00461-00601999999ADDAA106000091AA224000091KA1120M-00441KA2120N-01371REMSYN05871223 16/// /1911 11046 21060 60001 333 11044 21137 70000=
0058712230999992021010900004+51930-110720SAO  +077299999V020190190057199999999999999999-00461-00601999999REMAWY049XCS SA 0000 AUTO8 M M M M/-05/-06/1911/M/ M 60MM=
0058712230999992021010901004+51930-110720SAO  +077299999V020120190031199999999999999999-00661-00811999999REMAWY049XCS SA 0100 AUTO8 M M M M/-07/-08/1206/M/ M 61MM=
0058712230999992021010902004+51930-110720SAO  +077299999V020180190031199999999999999999-00501-00671999999REMAWY049XCS SA 0200 AUTO8 M M M M/-05/-07/1806/M/ M 07MM=
0063712230999992021010903004+51933-110700FM-12+077299999V0201201N002119999999N999999999-00721-00891999999ADDAA103000091REMSYN04071223 26/// /1204 11072 21089 333 60007=
0058712230999992021010903004+51930-110720SAO  +077299999V020120190021199999999999999999-00721-00891999999REMAWY049XCS SA 0300 AUTO8 M M M M/-07/-09/1204/M/ M 29MM=
0058712230999992021010904004+51930-110720SAO  +077299999V020120190021199999999999999999-00591-00801999999REMAWY049XCS SA 0400 AUTO8 M M M M/-06/-08/1204/M/ M 90MM=
0058712230999992021010905004+51930-110720SAO  +077299999V020090190031199999999999999999-00971-01161999999REMAWY049XCS SA 0500 AUTO8 M M M M/-10/-12/0906/M/ M 76MM=
0118712230999992021010906004+51933-110700FM-12+077299999V0201401N001519999999N999999999-00911-01091999999ADDAA106000091AA224000091KA1240M-00441KA2240N-01371REMSYN05871223 16/// /1403 11091 21109 60001 333 11044 21137 70000=
0058712230999992021010906004+51930-110720SAO  +077299999V020140190015199999999999999999-00911-01091999999REMAWY049XCS SA 0600 AUTO8 M M M M/-09/-11/1403/M/ M 19MM=
0058712230999992021010907004+51930-110720SAO  +077299999V020210190046199999999999999999-00991-01191999999REMAWY049XCS SA 0700 AUTO8 M M M M/-10/-12/2109/M/ M 99MM=
0058712230999992021010908004+51930-110720SAO  +077299999V020220190057199999999999999999-00931-01111999999REMAWY049XCS SA 0800 AUTO8 M M M M/-09/-11/2211/M/ M 31MM=
0063712230999992021010909004+51933-110700FM-12+077299999V0202101N005119999999N999999999-01061-01251999999ADDAA103000091REMSYN04071223 26/// /2110 11106 21125 333 60007=
0058712230999992021010909004+51930-110720SAO  +077299999V020210190051199999999999999999-01061-01151999999REMAWY049XCS SA 0900 AUTO8 M M M M/-11/-12/2110/M/ M 65MM=
0058712230999992021010910004+51930-110720SAO  +077299999V020220190062199999999999999999-00851-01131999999REMAWY049XCS SA 1000 AUTO8 M M M M/-09/-11/2212/M/ M 53MM=
0058712230999992021010911004+51930-110720SAO  +077299999V020210190062199999999999999999-00851-01021999999REMAWY049XCS SA 1100 AUTO8 M M M M/-09/-10/2112/M/ M 52MM=
0118712230999992021010912004+51933-110700FM-12+077299999V0202101N005119999999N999999999-00871-01041999999ADDAA106000091AA224000091KA1240M-00441KA2240N-01071REMSYN05871223 16/// /2110 11087 21104 60001 333 11044 21107 70000=
0058712230999992021010912004+51930-110720SAO  +077299999V020210190051199999999999999999-00871-01041999999REMAWY049XCS SA 1200 AUTO8 M M M M/-09/-10/2110/M/ M 74MM=
0058712230999992021010913004+51930-110720SAO  +077299999V020220190057199999999999999999-00751-00901999999REMAWY049XCS SA 1300 AUTO8 M M M M/-08/-09/2211/M/ M 50MM=
0058712230999992021010914004+51930-110720SAO  +077299999V020260190031199999999999999999-00671-00821999999REMAWY049XCS SA 1400 AUTO8 M M M M/-07/-08/2606/M/ M 72MM=
0063712230999992021010915004+51933-110700FM-12+077299999V0202401N004119999999N999999999-00631-00761999999ADDAA103000091REMSYN04071223 26/// /2408 11063 21076 333 60007=
0058712230999992021010915004+51930-110720SAO  +077299999V020240190041199999999999999999-00631-00761999999REMAWY049XCS SA 1500 AUTO8 M M M M/-06/-08/2408/M/ M 36MM=
0058712230999992021010916004+51930-110720SAO  +077299999V020230190031199999999999999999-00731-00861999999REMAWY049XCS SA 1600 AUTO8 M M M M/-07/-09/2306/M/ M 36MM=
0058712230999992021010917004+51930-110720SAO  +077299999V020220190036199999999999999999-00661-00791999999REMAWY049XCS SA 1700 AUTO8 M M M M/-07/-08/2207/M/ M 69MM=
0118712230999992021010918004+51933-110700FM-12+077299999V0202501N004119999999N999999999-00671-00811999999ADDAA106000091AA224000091KA1120M-00601KA2120N-01151REMSYN05871223 16/// /2508 11067 21081 60001 333 11060 21115 70000=
0058712230999992021010918004+51930-110720SAO  +077299999V020250190041199999999999999999-00671-00811999999REMAWY049XCS SA 1800 AUTO8 M M M M/-07/-08/2508/M/ M 71MM=
0058712230999992021010919004+51930-110720SAO  +077299999V020240190026199999999999999999-00721-00871999999REMAWY049XCS SA 1900 AUTO8 M M M M/-07/-09/2405/M/ M 27MM=
0058712230999992021010920004+51930-110720SAO  +077299999V020250190015199999999999999999-00711-00861999999REMAWY049XCS SA 2000 AUTO8 M M M M/-07/-09/2503/M/ M 16MM=
0063712230999992021010921004+51933-110700FM-12+077299999V0202701N002619999999N999999999-00751-00901999999ADDAA103000091REMSYN04071223 26/// /2705 11075 21090 333 60007=
0058712230999992021010921004+51930-110720SAO  +077299999V020270190026199999999999999999-00751-00901999999REMAWY049XCS SA 2100 AUTO8 M M M M/-08/-09/2705/M/ M 50MM=
0058712230999992021010922004+51930-110720SAO  +077299999V020260190015199999999999999999-00781-00941999999REMAWY049XCS SA 2200 AUTO8 M M M M/-08/-09/2603/M/ M 84MM=
0058712230999992021010923004+51930-110720SAO  +077299999V020250190010199999999999999999-00781-00941999999REMAWY049XCS SA 2300 AUTO8 M M M M/-08/-09/2502/M/ M 84MM=
0118712230999992021011000004+51933-110700FM-12+077299999V0202801N001019999999N999999999-00801-00951999999ADDAA106000091AA224000091KA1120M-00601KA2120N-01071REMSYN05871223 16/// /2802 11080 21095 60001 333 11060 21107 70000=
0058712230999992021011000004+51930-110720SAO  +077299999V020280190010199999999999999999-00801-00951999999REMAWY049XCS SA 0000 AUTO8 M M M M/-08/-10/2802/M/ M 05MM=
0058712230999992021011001004+51930-110720SAO  +077299999V020240190015199999999999999999-00831-01001999999REMAWY049XCS SA 0100 AUTO8 M M M M/-08/-10/2403/M/ M 30MM=
0058712230999992021011002004+51930-110720SAO  +077299999V020270190031199999999999999999-00961-01141999999REMAWY049XCS SA 0200 AUTO8 M M M M/-10/-11/2706/M/ M 64MM=
0063712230999992021011003004+51933-110700FM-12+077299999V0202601N001519999999N999999999-01181-01401999999ADDAA103000091REMSYN04071223 26/// /2603 11118 21140 333 60007=
0058712230999992021011003004+51930-110720SAO  +077299999V020260190015199999999999999999-01181-01401999999REMAWY049XCS SA 0300 AUTO8 M M M M/-12/-14/2603/M/ M 80MM=
0058712230999992021011004004+51930-110720SAO  +077299999V020240190021199999999999999999-01391-01641999999REMAWY049XCS SA 0400 AUTO8 M M M M/-14/-16/2404/M/ M 94MM=
0058712230999992021011005004+51930-110720SAO  +077299999V020230190031199999999999999999-01481-01741999999REMAWY049XCS SA 0500 AUTO8 M M M M/-15/-17/2306/M/ M 84MM=
0118712230999992021011006004+51933-110700FM-12+077299999V0202201N002119999999N999999999-01531-01801999999ADDAA106000091AA224000091KA1240M-00601KA2240N-01531REMSYN05871223 16/// /2204 11153 21180 60001 333 11060 21153 70000=
0058712230999992021011006004+51930-110720SAO  +077299999V020220190021199999999999999999-01531-01801999999REMAWY049XCS SA 0600 AUTO8 M M M M/-15/-18/2204/M/ M 30MM=
0058712230999992021011007004+51930-110720SAO  +077299999V020220190010199999999999999999-01561-01831999999REMAWY049XCS SA 0700 AUTO8 M M M M/-16/-18/2202/M/ M 63MM=
0058712230999992021011008004+51930-110720SAO  +077299999V020200190005199999999999999999-01531-01811999999REMAWY049XCS SA 0800 AUTO8 M M M M/-15/-18/2001/M/ M 31MM=
0063712230999992021011009004+51933-110700FM-12+077299999V0202001N000519999999N999999999-01531-01791999999ADDAA103000091REMSYN04071223 26/// /2001 11153 21179 333 60007=
0058712230999992021011009004+51930-110720SAO  +077299999V020200190005199999999999999999-01521-01791999999REMAWY049XCS SA 0900 AUTO8 M M M M/-15/-18/2001/M/ M 29MM=
0058712230999992021011010004+51930-110720SAO  +077299999V020360190000199999999999999999-01431-01681999999REMAWY049XCS SA 1000 AUTO8 M M M M/-14/-17/0000/M/ M 38MM=
0058712230999992021011011004+51930-110720SAO  +077299999V020200190005199999999999999999-01371-01621999999REMAWY049XCS SA 1100 AUTO8 M M M M/-14/-16/2001/M/ M 72MM=
0118712230999992021011012004+51933-110700FM-12+077299999V0202201N000519999999N999999999-01481-01751999999ADDAA106000091AA224000091KA1240M-00601KA2240N-01581REMSYN05871223 16/// /2201 11148 21175 60001 333 11060 21158 70000=
0058712230999992021011012004+51930-110720SAO  +077299999V020220190005199999999999999999-01481-01751999999REMAWY049XCS SA 1200 AUTO8 M M M M/-15/-18/2201/M/ M 85MM=
0058712230999992021011013004+51930-110720SAO  +077299999V020200190005199999999999999999-01511-01781999999REMAWY049XCS SA 1300 AUTO8 M M M M/-15/-18/2001/M/ M 18MM=
0058712230999992021011014004+51930-110720SAO  +077299999V020360190000199999999999999999-01611-01881999999REMAWY049XCS SA 1400 AUTO8 M M M M/-16/-19/0000/M/ M 18MM=
0063712230999992021011015004+51933-110700FM-12+077299999V0202201N000519999999N999999999-01531-01811999999ADDAA103000091REMSYN04071223 26/// /2201 11153 21181 333 60007=
0058712230999992021011015004+51930-110720SAO  +077299999V020220190005199999999999999999-01531-01811999999REMAWY049XCS SA 1500 AUTO8 M M M M/-15/-18/2201/M/ M 31MM=
0058712230999992021011016004+51930-110720SAO  +077299999V020360190000199999999999999999-01441-01691999999REMAWY049XCS SA 1600 AUTO8 M M M M/-14/-17/0000/M/ M 49MM=
0058712230999992021011017004+51930-110720SAO  +077299999V020360190000199999999999999999-01331-01571999999REMAWY049XCS SA 1700 AUTO8 M M M M/-13/-16/0000/M/ M 37MM=
0118712230999992021011018004+51933-110700FM-12+077299999V0202301N002619999999N999999999-01011-01201999999ADDAA106000091AA224000091KA1120M-01011KA2120N-01661REMSYN05871223 16/// /2305 11101 21120 60001 333 11101 21166 70000=
0058712230999992021011018004+51930-110720SAO  +077299999V020230190026199999999999999999-01011-01201999999REMAWY049XCS SA 1800 AUTO8 M M M M/-10/-12/2305/M/ M 10MM=
0058712230999992021011019004+51930-110720SAO  +077299999V020320190021199999999999999999-01041-01261999999REMAWY049XCS SA 1900 AUTO8 M M M M/-10/-13/3204/M/ M 46MM=
0058712230999992021011020004+51930-110720SAO  +077299999V020240190005199999999999999999-00871-01061999999REMAWY049XCS SA 2000 AUTO8 M M M M/-09/-11/2401/M/ M 76MM=
0063712230999992021011021004+51933-110700FM-12+077299999V0202601N002119999999N999999999-00791-00961999999ADDAA103000091REMSYN04071223 26/// /2604 11079 21096 333 60007=
0058712230999992021011021004+51930-110720SAO  +077299999V020260190021199999999999999999-00791-00961999999REMAWY049XCS SA 2100 AUTO8 M M M M/-08/-10/2604/M/ M 96MM=
0058712230999992021011022004+51930-110720SAO  +077299999V020270190031199999999999999999-00761-00931999999REMAWY049XCS SA 2200 AUTO8 M M M M/-08/-09/2706/M/ M 63MM=
0058712230999992021011023004+51930-110720SAO  +077299999V020290190036199999999999999999-00871-01061999999REMAWY049XCS SA 2300 AUTO8 M M M M/-09/-11/2907/M/ M 76MM=
0118712230999992021011100004+51933-110700FM-12+077299999V0202901N003619999999N999999999-00881-01071999999ADDAA106000091AA224000091KA1120M-00711KA2120N-01661REMSYN05871223 16/// /2907 11088 21107 60001 333 11071 21166 70000=
0058712230999992021011100004+51930-110720SAO  +077299999V020290190036199999999999999999-00881-01071999999REMAWY049XCS SA 0000 AUTO8 M M M M/-09/-11/2907/M/ M 87MM=
0058712230999992021011101004+51930-110720SAO  +077299999V020290190051199999999999999999-00651-00901999999REMAWY049XCS SA 0100 AUTO8 M M M M/-07/-09/2910/M/ M 50MM=
0093712230999992021011102004+51930-110720SAO  +077299999V020280190046199999999999999999-00371-00931999999ADDOD130100981280REMAWY067XCS SA 0200 AUTO8 M M M M/-04/-09/2809/M/ PK WND 2819 0104Z M 73MM=
0063712230999992021011103004+51933-110700FM-12+077299999V0202901N004619999999N999999999-00441-00901999999ADDAA103000091REMSYN04071223 26/// /2909 11044 21090 333 60007=
0058712230999992021011103004+51930-110720SAO  +077299999V020290190046199999999999999999-00441-00901999999REMAWY049XCS SA 0300 AUTO8 M M M M/-04/-09/2909/M/ M 40MM=
0058712230999992021011104004+51930-110720SAO  +077299999V020290190062199999999999999999-00411-00921999999REMAWY049XCS SA 0400 AUTO8 M M M M/-04/-09/2912/M/ M 12MM=
0058712230999992021011105004+51930-110720SAO  +077299999V020280190046199999999999999999-00531-00921999999REMAWY049XCS SA 0500 AUTO8 M M M M/-05/-09/2809/M/ M 32MM=
0134712230999992021011106004+51933-110700FM-12+077299999V0202501N002619999999N999999999-00521-00851999999ADDAA106000091AA224000091KA1240M-00321KA2240N-01661REMSYN07471223 16/// /2505 11052 21085 60001 333 11032 21166 70000 555 32819 40020=
0058712230999992021011106004+51930-110720SAO  +077299999V020250190026199999999999999999-00521-00751999999REMAWY049XCS SA 0600 AUTO8 M M M M/-05/-08/2505/M/ M 25MM=
0058712230999992021011107004+51930-110720SAO  +077299999V020270190031199999999999999999-00991-01291999999REMAWY049XCS SA 0700 AUTO8 M M M M/-10/-13/2706/M/ M 99MM=
0058712230999992021011108004+51930-110720SAO  +077299999V020290190046199999999999999999-00561-00951999999REMAWY049XCS SA 0800 AUTO8 M M M M/-06/-10/2909/M/ M 65MM=
0063712230999992021011109004+51933-110700FM-12+077299999V0202701N003119999999N999999999-00461-00871999999ADDAA103000091REMSYN04071223 26/// /2706 11046 21087 333 60007=
0058712230999992021011109004+51930-110720SAO  +077299999V020270190031199999999999999999-00461-00871999999REMAWY049XCS SA 0900 AUTO8 M M M M/-05/-09/2706/M/ M 67MM=
0058712230999992021011110004+51930-110720SAO  +077299999V020230190062199999999999999999-00941-01221999999REMAWY049XCS SA 1000 AUTO8 M M M M/-09/-12/2312/M/ M 42MM=
0058712230999992021011111004+51930-110720SAO  +077299999V020240190057199999999999999999-00621-01011999999REMAWY049XCS SA 1100 AUTO8 M M M M/-06/-10/2411/M/ M 21MM=
0118712230999992021011112004+51933-110700FM-12+077299999V0202201N003619999999N999999999-00811-01151999999ADDAA106000091AA224000091KA1240M-00321KA2240N-01031REMSYN05871223 16/// /2207 11081 21115 60001 333 11032 21103 70000=
0058712230999992021011112004+51930-110720SAO  +077299999V020220190036199999999999999999-00811-01151999999REMAWY049XCS SA 1200 AUTO8 M M M M/-08/-12/2207/M/ M 15MM=
0058712230999992021011113004+51930-110720SAO  +077299999V020220190026199999999999999999-00931-01231999999REMAWY049XCS SA 1300 AUTO8 M M M M/-09/-12/2205/M/ M 33MM=
0058712230999992021011114004+51930-110720SAO  +077299999V020200190010199999999999999999-00901-01131999999REMAWY049XCS SA 1400 AUTO8 M M M M/-09/-11/2002/M/ M 03MM=
0063712230999992021011115004+51933-110700FM-12+077299999V0202201N006219999999N999999999-00941-01161999999ADDAA103000091REMSYN04071223 26/// /2212 11094 21116 333 60007=
0058712230999992021011115004+51930-110720SAO  +077299999V020220190062199999999999999999-00941-01161999999REMAWY049XCS SA 1500 AUTO8 M M M M/-09/-12/2212/M/ M 46MM=
0058712230999992021011116004+51930-110720SAO  +077299999V020230190062199999999999999999-00771-01021999999REMAWY049XCS SA 1600 AUTO8 M M M M/-08/-10/2312/M/ M 72MM=
0093712230999992021011117004+51930-110720SAO  +077299999V020220190077199999999999999999-00721-00971999999ADDOD130100871230REMAWY067XCS SA 1700 AUTO8 M M M M/-07/-10/2215/M/ PK WND 2317 1611Z M 27MM=
0118712230999992021011118004+51933-110700FM-12+077299999V0202201N006719999999N999999999-00681-00941999999ADDAA106000091AA224000091KA1120M-00371KA2120N-01061REMSYN05871223 16/// /2213 11068 21094 60001 333 11037 21106 70000=
0093712230999992021011118004+51930-110720SAO  +077299999V020220190067199999999999999999-00681-00941999999ADDOD130100871220REMAWY067XCS SA 1800 AUTO8 M M M M/-07/-09/2213/M/ PK WND 2217 1713Z M 84MM=
0058712230999992021011119004+51930-110720SAO  +077299999V020240190057199999999999999999-00521-00751999999REMAWY049XCS SA 1900 AUTO8 M M M M/-05/-08/2411/M/ M 25MM=
0058712230999992021011120004+51930-110720SAO  +077299999V020220190067199999999999999999-00541-00841999999REMAWY049XCS SA 2000 AUTO8 M M M M/-05/-08/2213/M/ M 44MM=
0063712230999992021011121004+51933-110700FM-12+077299999V0202301N006719999999N999999999-00511-00821999999ADDAA103000091REMSYN04071223 26/// /2313 11051 21082 333 60007=
0058712230999992021011121004+51930-110720SAO  +077299999V020230190067199999999999999999-00511-00821999999REMAWY049XCS SA 2100 AUTO8 M M M M/-05/-08/2313/M/ M 12MM=
0093712230999992021011122004+51930-110720SAO  +077299999V020240190062199999999999999999-00481-00781999999ADDOD130100931230REMAWY067XCS SA 2200 AUTO8 M M M M/-05/-08/2412/M/ PK WND 2318 2137Z M 88MM=
0058712230999992021011123004+51930-110720SAO  +077299999V020220190046199999999999999999-00481-00761999999REMAWY049XCS SA 2300 AUTO8 M M M M/-05/-08/2209/M/ M 86MM=
0118712230999992021011200004+51933-110700FM-12+077299999V0202301N007719999999N999999999-00511-00781999999ADDAA106000091AA224000091KA1120M-00411KA2120N-01031REMSYN05871223 16/// /2315 11051 21078 60001 333 11041 21103 70000=
0058712230999992021011200004+51930-110720SAO  +077299999V020230190077199999999999999999-00511-00781999999REMAWY049XCS SA 0000 AUTO8 M M M M/-05/-08/2315/M/ M 18MM=
0058712230999992021011201004+51930-110720SAO  +077299999V020230190062199999999999999999-00361-00551999999REMAWY049XCS SA 0100 AUTO8 M M M M/-04/-06/2312/M/ M 65MM=
0058712230999992021011202004+51930-110720SAO  +077299999V020230190072199999999999999999-00431-00681999999REMAWY049XCS SA 0200 AUTO8 M M M M/-04/-07/2314/M/ M 38MM=
0063712230999992021011203004+51933-110700FM-12+077299999V0202501N009319999999N999999999-00111-00531999999ADDAA103000091REMSYN04071223 26/// /2518 11011 21053 333 60007=
0093712230999992021011203004+51930-110720SAO  +077299999V020250190093199999999999999999-00111-00531999999ADDOD130101081250REMAWY067XCS SA 0300 AUTO8 M M M M/-01/-05/2518/M/ PK WND 2521 0258Z M 13MM=
0092712230999992021011204004+51930-110720SAO  +077299999V020260190113199999999999999999+00081-00471999999ADDOD130101341260REMAWY066XCS SA 0400 AUTO8 M M M M/01/-05/2622/M/ PK WND 2626 0334Z M 87MM=
0093712230999992021011205004+51930-110720SAO  +077299999V020270190103199999999999999999-00011-00531999999ADDOD130101281270REMAWY067XCS SA 0500 AUTO8 M M M M/00/-05/2720/M/ PK WND 2725 0403Z M -13MM=
0134712230999992021011206004+51933-110700FM-12+077299999V0202801N008819999999N999999999-00131-00701999999ADDAA106000091AA224000091KA1240M+00151KA2240N-01031REMSYN07471223 16/// /2817 11013 21070 60001 333 10015 21103 70000 555 32626 40041=
0093712230999992021011206004+51930-110720SAO  +077299999V020280190087199999999999999999-00131-00701999999ADDOD130101131270REMAWY067XCS SA 0600 AUTO8 M M M M/-01/-07/2817/M/ PK WND 2722 0523Z M 30MM=
0093712230999992021011207004+51930-110720SAO  +077299999V020280190077199999999999999999-00161-00801999999ADDOD130101031280REMAWY067XCS SA 0700 AUTO8 M M M M/-02/-08/2815/M/ PK WND 2820 0614Z M 60MM=
0093712230999992021011208004+51930-110720SAO  +077299999V020280190082199999999999999999-00051-00861999999ADDOD130100981280REMAWY067XCS SA 0800 AUTO8 M M M M/-01/-09/2816/M/ PK WND 2819 0701Z M 56MM=
0063712230999992021011209004+51933-110700FM-12+077299999V0202701N006219999999N999999999-00271-00901999999ADDAA103000091REMSYN04071223 26/// /2712 11027 21090 333 60007=
0093712230999992021011209004+51930-110720SAO  +077299999V020270190062199999999999999999-00271-00901999999ADDOD130100931280REMAWY067XCS SA 0900 AUTO8 M M M M/-03/-09/2712/M/ PK WND 2818 0811Z M 70MM=
0093712230999992021011210004+51930-110720SAO  +077299999V020270190087199999999999999999-00171-00751999999ADDOD130100981270REMAWY067XCS SA 1000 AUTO8 M M M M/-02/-08/2717/M/ PK WND 2719 0948Z M 75MM=
0093712230999992021011211004+51930-110720SAO  +077299999V020270190072199999999999999999-00151-00861999999ADDOD130100981270REMAWY067XCS SA 1100 AUTO8 M M M M/-02/-09/2714/M/ PK WND 2719 1048Z M 56MM=
0118712230999992021011212004+51933-110700FM-12+077299999V0202901N004119999999N999999999-00441-01081999999ADDAA106000091AA224000091KA1240M+00151KA2240N-00511REMSYN05871223 16/// /2908 11044 21108 60001 333 10015 21051 70000=
0058712230999992021011212004+51930-110720SAO  +077299999V020290190041199999999999999999-00441-01081999999REMAWY049XCS SA 1200 AUTO8 M M M M/-04/-11/2908/M/ M 48MM=
0058712230999992021011213004+51930-110720SAO  +077299999V020240190046199999999999999999-00681-01111999999REMAWY049XCS SA 1300 AUTO8 M M M M/-07/-11/2409/M/ M 81MM=
0058712230999992021011214004+51930-110720SAO  +077299999V020230190051199999999999999999-00621-01021999999REMAWY049XCS SA 1400 AUTO8 M M M M/-06/-10/2310/M/ M 22MM=
0049712230999992021011215004+51937-110858FM-12+077299999V0201471N0022199999999999999999-00751-01151999999ADDAA101999999AA206999999AA324999999REMSYN004BUFR
0058712230999992021011215004+51930-110720SAO  +077299999V020150190026199999999999999999-00691-01101999999REMAWY049XCS SA 1500 AUTO8 M M M M/-07/-11/1505/M/ M 90MM=
0058712230999992021011216004+51930-110720SAO  +077299999V020210190051199999999999999999-00651-01041999999REMAWY049XCS SA 1600 AUTO8 M M M M/-07/-10/2110/M/ M 54MM=
0093712230999992021011217004+51930-110720SAO  +077299999V020180190046199999999999999999-00411-00791999999ADDOD130100871210REMAWY067XCS SA 1700 AUTO8 M M M M/-04/-08/1809/M/ PK WND 2117 1636Z M 19MM=
0118712230999992021011218004+51933-110700FM-12+077299999V0201201N002619999999N999999999-00461-00811999999ADDAA106000091AA224000091KA1120M-00021KA2120N-00821REMSYN05871223 16/// /1205 11046 21081 60001 333 11002 21082 70000=
0058712230999992021011218004+51930-110720SAO  +077299999V020120190026199999999999999999-00461-00811999999REMAWY049XCS SA 1800 AUTO8 M M M M/-05/-08/1205/M/ M 61MM=
0058712230999992021011219004+51930-110720SAO  +077299999V020180190041199999999999999999-00121-00471999999REMAWY049XCS SA 1900 AUTO8 M M M M/-01/-05/1808/M/ M 27MM=
0092712230999992021011220004+51930-110720SAO  +077299999V020190190067199999999999999999+00051-00321999999ADDOD130100981180REMAWY066XCS SA 2000 AUTO8 M M M M/01/-03/1913/M/ PK WND 1819 1954Z M 52MM=
0063712230999992021011221004+51933-110700FM-12+077299999V0202001N007219999999N999999999+00061-00271999999ADDAA103000091REMSYN04071223 26/// /2014 10006 21027 333 60007=
0092712230999992021011221004+51930-110720SAO  +077299999V020200190072199999999999999999+00061-00271999999ADDOD130101031190REMAWY066XCS SA 2100 AUTO8 M M M M/01/-03/2014/M/ PK WND 1920 2004Z M 67MM=
0092712230999992021011222004+51930-110720SAO  +077299999V020210190082199999999999999999+00121-00171999999ADDOD130100931210REMAWY066XCS SA 2200 AUTO8 M M M M/01/-02/2116/M/ PK WND 2118 2159Z M 27MM=
0092712230999992021011223004+51930-110720SAO  +077299999V020210190072199999999999999999+00071-00201999999ADDOD130100931210REMAWY066XCS SA 2300 AUTO8 M M M M/01/-02/2114/M/ PK WND 2118 2248Z M 70MM=
0118712230999992021011300004+51933-110700FM-12+077299999V0202101N006219999999N999999999-00041-00251999999ADDAA106000091AA224000091KA1120M+00151KA2120N-00821REMSYN05871223 16/// /2112 11004 21025 60001 333 10015 21082 70000=
0058712230999992021011300004+51930-110720SAO  +077299999V020210190062199999999999999999-00041-00151999999REMAWY049XCS SA 0000 AUTO8 M M M M/00/-02/2112/M/ M -45MM=
0058712230999992021011301004+51930-110720SAO  +077299999V020220190067199999999999999999-00031-00261999999REMAWY049XCS SA 0100 AUTO8 M M M M/00/-03/2213/M/ M -36MM=
0058712230999992021011302004+51930-110720SAO  +077299999V020220190046199999999999999999-00061-00311999999REMAWY049XCS SA 0200 AUTO8 M M M M/-01/-03/2209/M/ M 61MM=
0063712230999992021011303004+51933-110700FM-12+077299999V0202501N007719999999N999999999+00011-00321999999ADDAA103000091REMSYN04071223 26/// /2515 10001 21032 333 60007=
0057712230999992021011303004+51930-110720SAO  +077299999V020250190077199999999999999999+00011-00321999999REMAWY048XCS SA 0300 AUTO8 M M M M/00/-03/2515/M/ M 12MM=
0092712230999992021011304004+51930-110720SAO  +077299999V020270190103199999999999999999+00141-00331999999ADDOD130101281270REMAWY066XCS SA 0400 AUTO8 M M M M/01/-03/2720/M/ PK WND 2725 0335Z M 43MM=
0092712230999992021011305004+51930-110720SAO  +077299999V020280190077199999999999999999+00091-00411999999ADDOD130101231270REMAWY066XCS SA 0500 AUTO8 M M M M/01/-04/2815/M/ PK WND 2724 0400Z M 91MM=
0134712230999992021011306004+51933-110700FM-12+077299999V0202701N006219999999N999999999+00031-00461999999ADDAA106000091AA224000091KA1240M+00221KA2240N-00821REMSYN07471223 16/// /2712 10003 21046 60001 333 10022 21082 70000 555 32725 40041=
0092712230999992021011306004+51930-110720SAO  +077299999V020270190062199999999999999999+00031-00461999999ADDOD130100931280REMAWY066XCS SA 0600 AUTO8 M M M M/00/-05/2712/M/ PK WND 2818 0503Z M 36MM=
0093712230999992021011307004+51930-110720SAO  +077299999V020220190093199999999999999999-00391-00551999999ADDOD130101031220REMAWY067XCS SA 0700 AUTO8 M M M M/-04/-06/2218/M/ PK WND 2220 0650Z M 95MM=
0093712230999992021011308004+51930-110720SAO  +077299999V020230190062199999999999999999-00341-00611999999ADDOD130100931220REMAWY067XCS SA 0800 AUTO8 M M M M/-03/-06/2312/M/ PK WND 2218 0702Z M 41MM=
0063712230999992021011309004+51933-110700FM-12+077299999V0202101N007219999999N999999999-00311-00581999999ADDAA103000091REMSYN04071223 26/// /2114 11031 21058 333 60007=
0058712230999992021011309004+51930-110720SAO  +077299999V020210190072199999999999999999-00311-00581999999REMAWY049XCS SA 0900 AUTO8 M M M M/-03/-06/2114/M/ M 18MM=
0058712230999992021011310004+51930-110720SAO  +077299999V020150190021199999999999999999-00301-00571999999REMAWY049XCS SA 1000 AUTO8 M M M M/-03/-06/1504/M/ M 07MM=
0058712230999992021011311004+51930-110720SAO  +077299999V020200190046199999999999999999-00101-00351999999REMAWY049XCS SA 1100 AUTO8 M M M M/-01/-04/2009/M/ M 05MM=
0118712230999992021011312004+51933-110700FM-12+077299999V0201701N004619999999N999999999+00191-00161999999ADDAA106000091AA224000091KA1240M+00221KA2240N-00451REMSYN05871223 16/// /1709 10019 21016 60001 333 10022 21045 70000=
0057712230999992021011312004+51930-110720SAO  +077299999V020170190046199999999999999999+00191-00161999999REMAWY048XCS SA 1200 AUTO8 M M M M/02/-02/1709/M/ M 96MM=
0125712230999992021011313004+51930-110720SAO  +077299999V020210190077199999999999999999+00261+00031999999ADDAA101000931OD130101081190REMAWY088XCS SA 1300 AUTO8 M M M M/03/00/2115/M/0009 PCPN 0.9MM PAST HR PK WND 1921 1244Z M 63MM=
0095712230999992021011314004+51930-110720SAO  +077299999V020190190087199999999999999999+00321+00071999999ADDOD130101181190REMAWY069XCS SA 1400 AUTO8 M M M M/03/01/1917/M/0009 PK WND 1923 1354Z M 27MM=
0063712230999992021011315004+51933-110700FM-12+077299999V0202001N012919999999N999999999+00321+00021999999ADDAA103000931REMSYN04071223 26/// /2025 10032 20002 333 69997=
0095712230999992021011315004+51930-110720SAO  +077299999V020200190128199999999999999999+00321+00021999999ADDOD130101591200REMAWY069XCS SA 1500 AUTO8 M M M M/03/00/2025/M/0009 PK WND 2031 1455Z M 22MM=
0096712230999992021011316004+51930-110720SAO  +077299999V020200190139199999999999999999+00321-00011999999ADDOD130101851190REMAWY070XCS SA 1600 AUTO8 M M M M/03/00/2027/M/0009 PK WND 1936 1528Z M 2-1MM=
0095712230999992021011317004+51930-110720SAO  +077299999V020210190128199999999999999999+00331+00001999999ADDOD130101701210REMAWY069XCS SA 1700 AUTO8 M M M M/03/00/2125/M/0009 PK WND 2133 1609Z M 30MM=
0118712230999992021011318004+51933-110700FM-12+077299999V0202301N012419999999N999999999+00321+00011999999ADDAA106000931AA224000931KA1120M+00431KA2120N-00461REMSYN05871223 16/// /2324 10032 20001 69991 333 10043 21046 70009=
0095712230999992021011318004+51930-110720SAO  +077299999V020230190123199999999999999999+00321+00011999999ADDOD130101591210REMAWY069XCS SA 1800 AUTO8 M M M M/03/00/2324/M/0009 PK WND 2131 1707Z M 21MM=
0092712230999992021011319004+51930-110720SAO  +077299999V020290190180199999999999999999+00121-00141999999ADDOD130102361290REMAWY066XCS SA 1900 AUTO8 M M M M/01/-01/2935/M/ PK WND 2946 1854Z M 24MM=
0127712230999992021011320004+51930-110720SAO  +077299999V020310190231199999999999999999-00091-00301999999ADDAA101000531OD130102981300REMAWY090XCS SA 2000 AUTO8 M M M M/-01/-03/3145/M/0005 PCPN 0.5MM PAST HR PK WND 3058 1945Z M 90MM=
0077712230999992021011321004+51933-110700FM-12+077299999V0203201N021619999999N999999999-00101-00251999999ADDAA103000531AZ141021REMSYN04671223 27/// /3242 11010 21025 7//4/ 333 69957=
0097712230999992021011321004+51930-110720SAO  +077299999V020320190216199999999999999999-00101-00151999999ADDOD130103081310REMAWY071XCS SA 2100 AUTO8 M M M M/-01/-02/3242/M/0005 PK WND 3160 2038Z M 05MM=
0097712230999992021011322004+51930-110720SAO  +077299999V020320190211199999999999999999-00081-00241999999ADDOD130102931320REMAWY071XCS SA 2200 AUTO8 M M M M/-01/-02/3241/M/0005 PK WND 3257 2146Z M 84MM=
0097712230999992021011323004+51930-110720SAO  +077299999V020320190206199999999999999999-00071-00261999999ADDOD130102981310REMAWY071XCS SA 2300 AUTO8 M M M M/-01/-03/3240/M/0005 PK WND 3158 2212Z M 76MM=
0083712230999992021011400004+51937-110858FM-12+077299999V0203141N0183199999999999999999-00081-00471999999ADDAA101999999AA206999999AA324001031AZ141061KA1120M+00331KA2180N-00541REMSYN004BUFR
0097712230999992021011400004+51930-110720SAO  +077299999V020310190185199999999999999999-00031-00391999999ADDOD130102671320REMAWY071XCS SA 0000 AUTO8 M M M M/00/-04/3136/M/0005 PK WND 3252 2345Z M -39MM=
0093712230999992021011401004+51930-110720SAO  +077299999V020310190170199999999999999999-00121-00621999999ADDOD130102361330REMAWY067XCS SA 0100 AUTO8 M M M M/-01/-06/3133/M/ PK WND 3346 0045Z M 22MM=
0093712230999992021011402004+51930-110720SAO  +077299999V020310190180199999999999999999-00101-00701999999ADDOD130102311300REMAWY067XCS SA 0200 AUTO8 M M M M/-01/-07/3135/M/ PK WND 3045 0110Z M 00MM=
0063712230999992021011403004+51933-110700FM-12+077299999V0203101N016019999999N999999999-00121-00831999999ADDAA103000091REMSYN04071223 26/// /3131 11012 21083 333 60007=
0093712230999992021011403004+51930-110720SAO  +077299999V020310190159199999999999999999-00121-00831999999ADDOD130102211310REMAWY067XCS SA 0300 AUTO8 M M M M/-01/-08/3131/M/ PK WND 3143 0222Z M 23MM=
0093712230999992021011404004+51930-110720SAO  +077299999V020300190139199999999999999999-00051-00771999999ADDOD130101951320REMAWY067XCS SA 0400 AUTO8 M M M M/-01/-08/3027/M/ PK WND 3238 0314Z M 57MM=
0093712230999992021011405004+51930-110720SAO  +077299999V020300190175199999999999999999-00101-00881999999ADDOD130102161300REMAWY067XCS SA 0500 AUTO8 M M M M/-01/-09/3034/M/ PK WND 3042 0455Z M 08MM=
0134712230999992021011406004+51933-110700FM-12+077299999V0203001N016019999999N999999999-00121-00971999999ADDAA106000091AA224001431KA1240M+00431KA2240N-00451REMSYN07471223 16/// /3031 11012 21097 60001 333 10043 21045 70014 555 33160 40213=
0093712230999992021011406004+51930-110720SAO  +077299999V020300190159199999999999999999-00121-00971999999ADDOD130102111310REMAWY067XCS SA 0600 AUTO8 M M M M/-01/-10/3031/M/ PK WND 3141 0510Z M 27MM=
0093712230999992021011407004+51930-110720SAO  +077299999V020310190164199999999999999999-00141-00991999999ADDOD130102161300REMAWY067XCS SA 0700 AUTO8 M M M M/-01/-10/3132/M/ PK WND 3042 0612Z M 49MM=
0093712230999992021011408004+51930-110720SAO  +077299999V020300190134199999999999999999-00241-00981999999ADDOD130102001310REMAWY067XCS SA 0800 AUTO8 M M M M/-02/-10/3026/M/ PK WND 3139 0713Z M 48MM=
0063712230999992021011409004+51933-110700FM-12+077299999V0203001N012419999999N999999999-00271-00991999999ADDAA103000091REMSYN04071223 26/// /3024 11027 21099 333 60007=
0093712230999992021011409004+51930-110720SAO  +077299999V020300190123199999999999999999-00271-00991999999ADDOD130101701300REMAWY067XCS SA 0900 AUTO8 M M M M/-03/-10/3024/M/ PK WND 3033 0803Z M 79MM=
0093712230999992021011410004+51930-110720SAO  +077299999V020300190128199999999999999999-00271-00991999999ADDOD130101851300REMAWY067XCS SA 1000 AUTO8 M M M M/-03/-10/3025/M/ PK WND 3036 0910Z M 79MM=
0093712230999992021011411004+51930-110720SAO  +077299999V020300190123199999999999999999-00341-00991999999ADDOD130101541310REMAWY067XCS SA 1100 AUTO8 M M M M/-03/-10/3024/M/ PK WND 3130 1004Z M 49MM=
0118712230999992021011412004+51933-110700FM-12+077299999V0202901N012419999999N999999999-00371-00981999999ADDAA106000091AA224001431KA1240M+00431KA2240N-00381REMSYN05871223 16/// /2924 11037 21098 60001 333 10043 21038 70014=
0093712230999992021011412004+51930-110720SAO  +077299999V020300190123199999999999999999-00371-00981999999ADDOD130101541300REMAWY067XCS SA 1200 AUTO8 M M M M/-04/-10/3024/M/ PK WND 3030 1121Z M 78MM=
0093712230999992021011413004+51930-110720SAO  +077299999V020300190134199999999999999999-00331-00981999999ADDOD130101701300REMAWY067XCS SA 1300 AUTO8 M M M M/-03/-10/3026/M/ PK WND 3033 1255Z M 38MM=
0093712230999992021011414004+51930-110720SAO  +077299999V020300190134199999999999999999-00341-00981999999ADDOD130101851300REMAWY067XCS SA 1400 AUTO8 M M M M/-03/-10/3026/M/ PK WND 3036 1303Z M 48MM=
0063712230999992021011415004+51933-110700FM-12+077299999V0203001N013419999999N999999999-00371-00981999999ADDAA103000091REMSYN04071223 26/// /3026 11037 21098 333 60007=
0093712230999992021011415004+51930-110720SAO  +077299999V020300190134199999999999999999-00371-00981999999ADDOD130101641300REMAWY067XCS SA 1500 AUTO8 M M M M/-04/-10/3026/M/ PK WND 3032 1449Z M 78MM=
0093712230999992021011416004+51930-110720SAO  +077299999V020300190113199999999999999999-00411-00961999999ADDOD130101701310REMAWY067XCS SA 1600 AUTO8 M M M M/-04/-10/3022/M/ PK WND 3133 1503Z M 16MM=
0093712230999992021011417004+51930-110720SAO  +077299999V020300190118199999999999999999-00361-00931999999ADDOD130101541300REMAWY067XCS SA 1700 AUTO8 M M M M/-04/-09/3023/M/ PK WND 3030 1642Z M 63MM=
0118712230999992021011418004+51933-110700FM-12+077299999V0203101N012419999999N999999999-00251-00921999999ADDAA106000091AA224000531KA1120M-00111KA2120N-00421REMSYN05871223 16/// /3124 11025 21092 60001 333 11011 21042 70005=
0093712230999992021011418004+51930-110720SAO  +077299999V020310190123199999999999999999-00251-00921999999ADDOD130101541310REMAWY067XCS SA 1800 AUTO8 M M M M/-03/-09/3124/M/ PK WND 3130 1759Z M 52MM=
0093712230999992021011419004+51930-110720SAO  +077299999V020310190123199999999999999999-00211-00881999999ADDOD130101641300REMAWY067XCS SA 1900 AUTO8 M M M M/-02/-09/3124/M/ PK WND 3032 1822Z M 18MM=
0093712230999992021011420004+51930-110720SAO  +077299999V020310190123199999999999999999-00201-00861999999ADDOD130101801310REMAWY067XCS SA 2000 AUTO8 M M M M/-02/-09/3124/M/ PK WND 3135 1940Z M 06MM=
0063712230999992021011421004+51933-110700FM-12+077299999V0203101N011819999999N999999999-00211-00851999999ADDAA103000091REMSYN04071223 26/// /3123 11021 21085 333 60007=
0093712230999992021011421004+51930-110720SAO  +077299999V020310190118199999999999999999-00211-00751999999ADDOD130101641310REMAWY067XCS SA 2100 AUTO8 M M M M/-02/-08/3123/M/ PK WND 3132 2030Z M 15MM=
0093712230999992021011422004+51930-110720SAO  +077299999V020310190108199999999999999999-00221-00881999999ADDOD130101541310REMAWY067XCS SA 2200 AUTO8 M M M M/-02/-09/3121/M/ PK WND 3130 2114Z M 28MM=
0093712230999992021011423004+51930-110720SAO  +077299999V020300190098199999999999999999-00301-00911999999ADDOD130101441300REMAWY067XCS SA 2300 AUTO8 M M M M/-03/-09/3019/M/ PK WND 3028 2208Z M 01MM=
0075712230999992021011500004+51937-110858FM-12+077199999V0203001N0083199999999999999999-00521-00991999999ADDAA101999999AA206999999AA324999999KA1120M-00191KA2180N-00531REMSYN004BUFR
0093712230999992021011500004+51930-110720SAO  +077299999V020300190087199999999999999999-00441-00951999999ADDOD130101131300REMAWY067XCS SA 0000 AUTO8 M M M M/-04/-10/3017/M/ PK WND 3022 2311Z M 45MM=
0093712230999992021011501004+51930-110720SAO  +077299999V020300190087199999999999999999-00521-00981999999ADDOD130101081300REMAWY067XCS SA 0100 AUTO8 M M M M/-05/-10/3017/M/ PK WND 3021 0049Z M 28MM=
0093712230999992021011502004+51930-110720SAO  +077299999V020280190072199999999999999999-00661-01061999999ADDOD130100981300REMAWY067XCS SA 0200 AUTO8 M M M M/-07/-11/2814/M/ PK WND 3019 0109Z M 66MM=
0063712230999992021011503004+51933-110700FM-12+077299999V0203101N006219999999N999999999-00751-01151999999ADDAA103000091REMSYN04071223 26/// /3112 11075 21115 333 60007=
0093712230999992021011503004+51930-110720SAO  +077299999V020310190062199999999999999999-00651-01151999999ADDOD130100931290REMAWY067XCS SA 0300 AUTO8 M M M M/-07/-12/3112/M/ PK WND 2918 0212Z M 55MM=
0058712230999992021011504004+51930-110720SAO  +077299999V020290190062199999999999999999-00791-01221999999REMAWY049XCS SA 0400 AUTO8 M M M M/-08/-12/2912/M/ M 92MM=
0058712230999992021011505004+51930-110720SAO  +077299999V020290190036199999999999999999-00911-01341999999REMAWY049XCS SA 0500 AUTO8 M M M M/-09/-13/2907/M/ M 14MM=
0134712230999992021011506004+51933-110700FM-12+077299999V0202801N003619999999N999999999-00901-01331999999ADDAA106000091AA224000091KA1240M-00111KA2240N-01041REMSYN07471223 16/// /2807 11090 21133 60001 333 11011 21104 70000 555 33042 40073=
0058712230999992021011506004+51930-110720SAO  +077299999V020280190036199999999999999999-00901-01331999999REMAWY049XCS SA 0600 AUTO8 M M M M/-09/-13/2807/M/ M 03MM=
0058712230999992021011507004+51930-110720SAO  +077299999V020300190031199999999999999999-00831-01291999999REMAWY049XCS SA 0700 AUTO8 M M M M/-08/-13/3006/M/ M 39MM=
0058712230999992021011508004+51930-110720SAO  +077299999V020210190051199999999999999999-01221-01521999999REMAWY049XCS SA 0800 AUTO8 M M M M/-12/-15/2110/M/ M 22MM=
0063712230999992021011509004+51933-110700FM-12+077299999V0201701N002119999999N999999999-01051-01401999999ADDAA103000091REMSYN04071223 26/// /1704 11105 21140 333 60007=
0058712230999992021011509004+51930-110720SAO  +077299999V020170190021199999999999999999-00951-01401999999REMAWY049XCS SA 0900 AUTO8 M M M M/-10/-14/1704/M/ M 50MM=
0058712230999992021011510004+51930-110720SAO  +077299999V020210190051199999999999999999-01131-01501999999REMAWY049XCS SA 1000 AUTO8 M M M M/-11/-15/2110/M/ M 30MM=
0058712230999992021011511004+51930-110720SAO  +077299999V020200190046199999999999999999-01151-01511999999REMAWY049XCS SA 1100 AUTO8 M M M M/-12/-15/2009/M/ M 51MM=
0118712230999992021011512004+51933-110700FM-12+077299999V0201501N003619999999N999999999-00961-01411999999ADDAA106000091AA224000091KA1240M-00111KA2240N-01221REMSYN05871223 16/// /1507 11096 21141 60001 333 11011 21122 70000=
0058712230999992021011512004+51930-110720SAO  +077299999V020150190036199999999999999999-00961-01411999999REMAWY049XCS SA 1200 AUTO8 M M M M/-10/-14/1507/M/ M 61MM=
0058712230999992021011513004+51930-110720SAO  +077299999V020120190031199999999999999999-01181-01521999999REMAWY049XCS SA 1300 AUTO8 M M M M/-12/-15/1206/M/ M 82MM=
0058712230999992021011514004+51930-110720SAO  +077299999V020140190031199999999999999999-01021-01391999999REMAWY049XCS SA 1400 AUTO8 M M M M/-10/-14/1406/M/ M 29MM=
0063712230999992021011515004+51933-110700FM-12+077299999V0201301N003119999999N999999999-00951-01321999999ADDAA103000091REMSYN04071223 26/// /1306 11095 21132 333 60007=
0058712230999992021011515004+51930-110720SAO  +077299999V020130190031199999999999999999-00951-01321999999REMAWY049XCS SA 1500 AUTO8 M M M M/-10/-13/1306/M/ M 52MM=
0058712230999992021011516004+51930-110720SAO  +077299999V020140190041199999999999999999-00831-01151999999REMAWY049XCS SA 1600 AUTO8 M M M M/-08/-12/1408/M/ M 35MM=
0058712230999992021011517004+51930-110720SAO  +077299999V020120190031199999999999999999-00881-01241999999REMAWY049XCS SA 1700 AUTO8 M M M M/-09/-12/1206/M/ M 84MM=
0118712230999992021011518004+51933-110700FM-12+077299999V0201401N001519999999N999999999-00851-01171999999ADDAA106000091AA224000091KA1120M-00801KA2120N-01251REMSYN05871223 16/// /1403 11085 21117 60001 333 11080 21125 70000=
0058712230999992021011518004+51930-110720SAO  +077299999V020140190015199999999999999999-00851-01171999999REMAWY049XCS SA 1800 AUTO8 M M M M/-09/-12/1403/M/ M 57MM=
0058712230999992021011519004+51930-110720SAO  +077299999V020180190026199999999999999999-00631-01061999999REMAWY049XCS SA 1900 AUTO8 M M M M/-06/-11/1805/M/ M 36MM=
0058712230999992021011520004+51930-110720SAO  +077299999V020270190051199999999999999999-00461-00921999999REMAWY049XCS SA 2000 AUTO8 M M M M/-05/-09/2710/M/ M 62MM=
0063712230999992021011521004+51933-110700FM-12+077299999V0203001N006719999999N999999999-00391-00781999999ADDAA103000091REMSYN04071223 26/// /3013 11039 21078 333 60007=
0058712230999992021011521004+51930-110720SAO  +077299999V020300190067199999999999999999-00391-00781999999REMAWY049XCS SA 2100 AUTO8 M M M M/-04/-08/3013/M/ M 98MM=
0058712230999992021011522004+51930-110720SAO  +077299999V020290190046199999999999999999-00321-00771999999REMAWY049XCS SA 2200 AUTO8 M M M M/-03/-08/2909/M/ M 27MM=
0058712230999992021011523004+51930-110720SAO  +077299999V020280190036199999999999999999-00321-00811999999REMAWY049XCS SA 2300 AUTO8 M M M M/-03/-08/2807/M/ M 21MM=
0118712230999992021011600004+51933-110700FM-12+077299999V0202801N005119999999N999999999-00351-00811999999ADDAA106000091AA224000091KA1120M-00291KA2120N-01251REMSYN05871223 16/// /2810 11035 21081 60001 333 11029 21125 70000=
0058712230999992021011600004+51930-110720SAO  +077299999V020280190051199999999999999999-00251-00811999999REMAWY049XCS SA 0000 AUTO8 M M M M/-03/-08/2810/M/ M 51MM=
0058712230999992021011601004+51930-110720SAO  +077299999V020260190057199999999999999999-00391-00771999999REMAWY049XCS SA 0100 AUTO8 M M M M/-04/-08/2611/M/ M 97MM=
0058712230999992021011602004+51930-110720SAO  +077299999V020260190062199999999999999999-00361-00731999999REMAWY049XCS SA 0200 AUTO8 M M M M/-04/-07/2612/M/ M 63MM=
0049712230999992021011603004+51937-111176FM-12+077299999V0202721N0083199999999999999999-00291-00761999999ADDAA101999999AA206999999AA324999999REMSYN004BUFR
0093712230999992021011603004+51930-110720SAO  +077299999V020270190082199999999999999999-00231-00671999999ADDOD130100981280REMAWY067XCS SA 0300 AUTO8 M M M M/-02/-07/2716/M/ PK WND 2819 0258Z M 37MM=
0093712230999992021011604004+51930-110720SAO  +077299999V020260190098199999999999999999-00151-00621999999ADDOD130101131270REMAWY067XCS SA 0400 AUTO8 M M M M/-02/-06/2619/M/ PK WND 2722 0310Z M 52MM=
0093712230999992021011605004+51930-110720SAO  +077299999V020260190093199999999999999999-00401-00791999999ADDOD130101181260REMAWY067XCS SA 0500 AUTO8 M M M M/-04/-08/2618/M/ PK WND 2623 0408Z M 09MM=
0134712230999992021011606004+51933-110700FM-12+077299999V0202701N007719999999N999999999-00371-00891999999ADDAA106000091AA224000091KA1240M-00131KA2240N-01251REMSYN07471223 16/// /2715 11037 21089 60001 333 11013 21125 70000 555 32623 40051=
0093712230999992021011606004+51930-110720SAO  +077299999V020270190077199999999999999999-00371-00891999999ADDOD130101031270REMAWY067XCS SA 0600 AUTO8 M M M M/-04/-09/2715/M/ PK WND 2720 0529Z M 79MM=
0093712230999992021011607004+51930-110720SAO  +077299999V020280190087199999999999999999-00291-00951999999ADDOD130101031290REMAWY067XCS SA 0700 AUTO8 M M M M/-03/-10/2817/M/ PK WND 2920 0634Z M 95MM=
0093712230999992021011608004+51930-110720SAO  +077299999V020270190082199999999999999999-00421-01011999999ADDOD130100981280REMAWY067XCS SA 0800 AUTO8 M M M M/-04/-10/2716/M/ PK WND 2819 0722Z M 21MM=
0063712230999992021011609004+51933-110700FM-12+077299999V0202701N009819999999N999999999-00421-01041999999ADDAA103000091REMSYN04071223 26/// /2719 11042 21104 333 60007=
0093712230999992021011609004+51930-110720SAO  +077299999V020280190098199999999999999999-00421-01041999999ADDOD130101131280REMAWY067XCS SA 0900 AUTO8 M M M M/-04/-10/2819/M/ PK WND 2822 0855Z M 24MM=
0093712230999992021011610004+51930-110720SAO  +077299999V020280190103199999999999999999-00501-01081999999ADDOD130101231280REMAWY067XCS SA 1000 AUTO8 M M M M/-05/-11/2820/M/ PK WND 2824 0945Z M 08MM=
0093712230999992021011611004+51930-110720SAO  +077299999V020280190087199999999999999999-00441-01101999999ADDOD130101131280REMAWY067XCS SA 1100 AUTO8 M M M M/-04/-11/2817/M/ PK WND 2822 1017Z M 40MM=
0118712230999992021011612004+51933-110700FM-12+077299999V0202801N010319999999N999999999-00381-01061999999ADDAA106000091AA224000091KA1240M-00131KA2240N-00551REMSYN05871223 16/// /2820 11038 21106 60001 333 11013 21055 70000=
0093712230999992021011612004+51930-110720SAO  +077299999V020280190103199999999999999999-00381-01061999999ADDOD130101181280REMAWY067XCS SA 1200 AUTO8 M M M M/-04/-11/2820/M/ PK WND 2823 1152Z M 86MM=
0093712230999992021011613004+51930-110720SAO  +077299999V020280190093199999999999999999-00371-01041999999ADDOD130101181270REMAWY067XCS SA 1300 AUTO8 M M M M/-04/-10/2818/M/ PK WND 2723 1258Z M 74MM=
0093712230999992021011614004+51930-110720SAO  +077299999V020270190103199999999999999999-00481-01081999999ADDOD130101231270REMAWY067XCS SA 1400 AUTO8 M M M M/-05/-11/2720/M/ PK WND 2724 1337Z M 88MM=
0063712230999992021011615004+51933-110700FM-12+077299999V0202801N009819999999N999999999-00541-01081999999ADDAA103000091REMSYN04071223 26/// /2819 11054 21108 333 60007=
0093712230999992021011615004+51930-110720SAO  +077299999V020280190098199999999999999999-00541-01081999999ADDOD130101181280REMAWY067XCS SA 1500 AUTO8 M M M M/-05/-11/2819/M/ PK WND 2823 1428Z M 48MM=
0093712230999992021011616004+51930-110720SAO  +077299999V020280190098199999999999999999-00441-01041999999ADDOD130101181280REMAWY067XCS SA 1600 AUTO8 M M M M/-04/-10/2819/M/ PK WND 2823 1557Z M 44MM=
0093712230999992021011617004+51930-110720SAO  +077299999V020280190103199999999999999999-00311-00901999999ADDOD130101231280REMAWY067XCS SA 1700 AUTO8 M M M M/-03/-09/2820/M/ PK WND 2824 1640Z M 10MM=
0118712230999992021011618004+51933-110700FM-12+077299999V0202801N009819999999N999999999-00231-00791999999ADDAA106000091AA224000091KA1120M-00231KA2120N-00851REMSYN05871223 16/// /2819 11023 21079 60001 333 11023 21085 70000=
0093712230999992021011618004+51930-110720SAO  +077299999V020280190098199999999999999999-00221-00791999999ADDOD130101181280REMAWY067XCS SA 1800 AUTO8 M M M M/-02/-08/2819/M/ PK WND 2823 1708Z M 29MM=
0093712230999992021011619004+51930-110720SAO  +077299999V020290190087199999999999999999-00111-00661999999ADDOD130101131290REMAWY067XCS SA 1900 AUTO8 M M M M/-01/-07/2917/M/ PK WND 2922 1809Z M 16MM=
0093712230999992021011620004+51930-110720SAO  +077299999V020280190082199999999999999999-00061-00611999999ADDOD130101081300REMAWY067XCS SA 2000 AUTO8 M M M M/-01/-06/2816/M/ PK WND 3021 1945Z M 61MM=
0063712230999992021011621004+51933-110700FM-12+077299999V0202901N007219999999N999999999-00061-00571999999ADDAA103000091REMSYN04071223 26/// /2914 11006 21057 333 60007=
0093712230999992021011621004+51930-110720SAO  +077299999V020290190072199999999999999999-00061-00571999999ADDOD130100981290REMAWY067XCS SA 2100 AUTO8 M M M M/-01/-06/2914/M/ PK WND 2919 2034Z M 67MM=
0093712230999992021011622004+51930-110720SAO  +077299999V020280190072199999999999999999-00031-00571999999ADDOD130100981290REMAWY067XCS SA 2200 AUTO8 M M M M/00/-06/2814/M/ PK WND 2919 2112Z M -37MM=
0093712230999992021011623004+51930-110720SAO  +077299999V020280190067199999999999999999-00111-00601999999ADDOD130100931280REMAWY067XCS SA 2300 AUTO8 M M M M/-01/-06/2813/M/ PK WND 2818 2227Z M 10MM=
0118712230999992021011700004+51933-110700FM-12+077299999V0202801N007219999999N999999999-00261-00701999999ADDAA106000091AA224000091KA1120M-00011KA2120N-00551REMSYN05871223 16/// /2814 11026 21070 60001 333 11001 21055 70000=
0058712230999992021011700004+51930-110720SAO  +077299999V020280190072199999999999999999-00261-00701999999REMAWY049XCS SA 0000 AUTO8 M M M M/-03/-07/2814/M/ M 60MM=
0093712230999992021011701004+51930-110720SAO  +077299999V020280190072199999999999999999-00311-00781999999ADDOD130100871290REMAWY067XCS SA 0100 AUTO8 M M M M/-03/-08/2814/M/ PK WND 2917 0010Z M 18MM=
0093712230999992021011702004+51930-110720SAO  +077299999V020290190087199999999999999999-00341-00841999999ADDOD130100931290REMAWY067XCS SA 0200 AUTO8 M M M M/-03/-08/2917/M/ PK WND 2918 0159Z M 44MM=
0063712230999992021011703004+51933-110700FM-12+077299999V0202801N008219999999N999999999-00421-00911999999ADDAA103000091REMSYN04071223 26/// /2816 11042 21091 333 60007=
0093712230999992021011703004+51930-110720SAO  +077299999V020280190082199999999999999999-00421-00911999999ADDOD130100981280REMAWY067XCS SA 0300 AUTO8 M M M M/-04/-09/2816/M/ PK WND 2819 0202Z M 21MM=
0093712230999992021011704004+51930-110720SAO  +077299999V020280190082199999999999999999-00471-00971999999ADDOD130100871280REMAWY067XCS SA 0400 AUTO8 M M M M/-05/-10/2816/M/ PK WND 2817 0345Z M 77MM=
0093712230999992021011705004+51930-110720SAO  +077299999V020290190072199999999999999999-00431-00961999999ADDOD130100871270REMAWY067XCS SA 0500 AUTO8 M M M M/-04/-10/2914/M/ PK WND 2717 0414Z M 36MM=
0134712230999992021011706004+51933-110700FM-12+077299999V0202801N007219999999N999999999-00461-00981999999ADDAA106000091AA224000091KA1240M-00011KA2240N-00551REMSYN07471223 16/// /2814 11046 21098 60001 333 11001 21055 70000 555 32824 40171=
0093712230999992021011706004+51930-110720SAO  +077299999V020280190072199999999999999999-00461-00981999999ADDOD130100871280REMAWY067XCS SA 0600 AUTO8 M M M M/-05/-10/2814/M/ PK WND 2817 0535Z M 68MM=
0058712230999992021011707004+51930-110720SAO  +077299999V020280190067199999999999999999-00521-01031999999REMAWY049XCS SA 0700 AUTO8 M M M M/-05/-10/2813/M/ M 23MM=
0058712230999992021011708004+51930-110720SAO  +077299999V020270190067199999999999999999-00561-01031999999REMAWY049XCS SA 0800 AUTO8 M M M M/-06/-10/2713/M/ M 63MM=
0063712230999992021011709004+51933-110700FM-12+077299999V0202701N004619999999N999999999-00521-01001999999ADDAA103000091REMSYN04071223 26/// /2709 11052 21100 333 60007=
0058712230999992021011709004+51930-110720SAO  +077299999V020270190046199999999999999999-00521-01001999999REMAWY049XCS SA 0900 AUTO8 M M M M/-05/-10/2709/M/ M 20MM=
0058712230999992021011710004+51930-110720SAO  +077299999V020230190041199999999999999999-00621-01091999999REMAWY049XCS SA 1000 AUTO8 M M M M/-06/-11/2308/M/ M 29MM=
0093712230999992021011711004+51930-110720SAO  +077299999V020250190077199999999999999999-00311-00931999999ADDOD130100871250REMAWY067XCS SA 1100 AUTO8 M M M M/-03/-09/2515/M/ PK WND 2517 1051Z M 13MM=
0118712230999992021011712004+51933-110700FM-12+077299999V0202401N006219999999N999999999-00321-00891999999ADDAA106000091AA224000091KA1240M-00011KA2240N-00731REMSYN05871223 16/// /2412 11032 21089 60001 333 11001 21073 70000=
0058712230999992021011712004+51930-110720SAO  +077299999V020240190062199999999999999999-00321-00891999999REMAWY049XCS SA 1200 AUTO8 M M M M/-03/-09/2412/M/ M 29MM=
0058712230999992021011713004+51930-110720SAO  +077299999V020230190051199999999999999999-00431-00891999999REMAWY049XCS SA 1300 AUTO8 M M M M/-04/-09/2310/M/ M 39MM=
0058712230999992021011714004+51930-110720SAO  +077299999V020230190051199999999999999999-00451-00861999999REMAWY049XCS SA 1400 AUTO8 M M M M/-05/-09/2310/M/ M 56MM=
0063712230999992021011715004+51933-110700FM-12+077299999V0201901N002619999999N999999999-00431-00831999999ADDAA103000091REMSYN04071223 26/// /1905 11043 21083 333 60007=
0058712230999992021011715004+51930-110720SAO  +077299999V020190190026199999999999999999-00431-00831999999REMAWY049XCS SA 1500 AUTO8 M M M M/-04/-08/1905/M/ M 33MM=
0058712230999992021011716004+51930-110720SAO  +077299999V020220190046199999999999999999-00341-00771999999REMAWY049XCS SA 1600 AUTO8 M M M M/-03/-08/2209/M/ M 47MM=
0058712230999992021011717004+51930-110720SAO  +077299999V020220190046199999999999999999-00301-00681999999REMAWY049XCS SA 1700 AUTO8 M M M M/-03/-07/2209/M/ M 08MM=
0118712230999992021011718004+51933-110700FM-12+077299999V0202301N003619999999N999999999-00221-00621999999ADDAA106000091AA224000091KA1120M-00221KA2120N-00731REMSYN05871223 16/// /2307 11022 21062 60001 333 11022 21073 70000=
0058712230999992021011718004+51930-110720SAO  +077299999V020230190036199999999999999999-00221-00621999999REMAWY049XCS SA 1800 AUTO8 M M M M/-02/-06/2307/M/ M 22MM=
0058712230999992021011719004+51930-110720SAO  +077299999V020230190057199999999999999999-00211-00571999999REMAWY049XCS SA 1900 AUTO8 M M M M/-02/-06/2311/M/ M 17MM=
0058712230999992021011720004+51930-110720SAO  +077299999V020270190062199999999999999999-00191-00581999999REMAWY049XCS SA 2000 AUTO8 M M M M/-02/-06/2712/M/ M 98MM=
0063712230999992021011721004+51933-110700FM-12+077299999V0202801N004619999999N999999999-00121-00471999999ADDAA103000091REMSYN04071223 26/// /2809 11012 21047 333 60007=
0058712230999992021011721004+51930-110720SAO  +077299999V020280190046199999999999999999-00121-00471999999REMAWY049XCS SA 2100 AUTO8 M M M M/-01/-05/2809/M/ M 27MM=
0093712230999992021011722004+51930-110720SAO  +077299999V020270190062199999999999999999-00091-00351999999ADDOD130100871270REMAWY067XCS SA 2200 AUTO8 M M M M/-01/-04/2712/M/ PK WND 2717 2123Z M 95MM=
0092712230999992021011723004+51930-110720SAO  +077299999V020290190082199999999999999999+00041-00281999999ADDOD130101031290REMAWY066XCS SA 2300 AUTO8 M M M M/00/-03/2916/M/ PK WND 2920 2248Z M 48MM=
0075712230999992021011800004+51937-110858FM-12+077299999V0203001N0074199999999999999999+00061-00281999999ADDAA101999999AA206999999AA324999999KA1120M+00061KA2180N-00751REMSYN004BUFR
0092712230999992021011800004+51930-110720SAO  +077299999V020300190082199999999999999999+00051-00281999999ADDOD130100981290REMAWY066XCS SA 0000 AUTO8 M M M M/01/-03/3016/M/ PK WND 2919 2337Z M 58MM=
0092712230999992021011801004+51930-110720SAO  +077299999V020300190077199999999999999999+00031-00241999999ADDOD130101131300REMAWY066XCS SA 0100 AUTO8 M M M M/00/-02/3015/M/ PK WND 3022 0034Z M 34MM=
0092712230999992021011802004+51930-110720SAO  +077299999V020300190108199999999999999999+00101-00121999999ADDOD130101391300REMAWY066XCS SA 0200 AUTO8 M M M M/01/-01/3021/M/ PK WND 3027 0139Z M 02MM=
0063712230999992021011803004+51933-110700FM-12+077299999V0203101N010819999999N999999999+00061-00091999999ADDAA103000091REMSYN04071223 26/// /3121 10006 21009 333 60007=
0092712230999992021011803004+51930-110720SAO  +077299999V020310190108199999999999999999+00061-00091999999ADDOD130101391310REMAWY066XCS SA 0300 AUTO8 M M M M/01/-01/3121/M/ PK WND 3127 0212Z M 69MM=
0092712230999992021011804004+51930-110720SAO  +077299999V020330190082199999999999999999+00011-00081999999ADDOD130101231330REMAWY066XCS SA 0400 AUTO8 M M M M/00/-01/3316/M/ PK WND 3324 0338Z M 18MM=
0092712230999992021011805004+51930-110720SAO  +077299999V020330190087199999999999999999+00001-00141999999ADDOD130101231340REMAWY066XCS SA 0500 AUTO8 M M M M/00/-01/3317/M/ PK WND 3424 0418Z M 04MM=
0134712230999992021011806004+51933-110700FM-12+077299999V0203401N008219999999N999999999-00011-00171999999ADDAA106000091AA224000091KA1240M+00111KA2240N-00731REMSYN07471223 16/// /3416 11001 21017 60001 333 10011 21073 70000 555 33127 40031=
0093712230999992021011806004+51930-110720SAO  +077299999V020340190082199999999999999999-00011-00171999999ADDOD130101281330REMAWY067XCS SA 0600 AUTO8 M M M M/00/-02/3416/M/ PK WND 3325 0546Z M -17MM=
0093712230999992021011807004+51930-110720SAO  +077299999V020350190072199999999999999999-00081-00151999999ADDOD130101231350REMAWY067XCS SA 0700 AUTO8 M M M M/-01/-02/3514/M/ PK WND 3524 0642Z M 85MM=
0093712230999992021011808004+51930-110720SAO  +077299999V020340190072199999999999999999-00121-00331999999ADDOD130100981350REMAWY067XCS SA 0800 AUTO8 M M M M/-01/-03/3414/M/ PK WND 3519 0725Z M 23MM=
0063712230999992021011809004+51933-110700FM-12+077299999V0203301N005119999999N999999999-00161-00331999999ADDAA103000091REMSYN04071223 26/// /3310 11016 21033 333 60007=
0058712230999992021011809004+51930-110720SAO  +077299999V020330190051199999999999999999-00161-00331999999REMAWY049XCS SA 0900 AUTO8 M M M M/-02/-03/3310/M/ M 63MM=
0093712230999992021011810004+51930-110720SAO  +077299999V020310190051199999999999999999-00331-00551999999ADDOD130100871330REMAWY067XCS SA 1000 AUTO8 M M M M/-03/-06/3110/M/ PK WND 3317 0920Z M 35MM=
0058712230999992021011811004+51930-110720SAO  +077299999V020290190051199999999999999999-00431-00631999999REMAWY049XCS SA 1100 AUTO8 M M M M/-04/-06/2910/M/ M 33MM=
0118712230999992021011812004+51933-110700FM-12+077299999V0202701N006219999999N999999999-00391-00571999999ADDAA106000091AA224000091KA1240M+00111KA2240N-00491REMSYN05871223 16/// /2712 11039 21057 60001 333 10011 21049 70000=
0058712230999992021011812004+51930-110720SAO  +077299999V020270190062199999999999999999-00391-00571999999REMAWY049XCS SA 1200 AUTO8 M M M M/-04/-06/2712/M/ M 97MM=
