0221013590999992023010212004+60530+008195FM-12+077299999V0201361N0005199999999030000199-01221-01451101411ADDAA199999999AJ100579100570099AY121999AY221999GA1011+001001071GA2999+999999021GE19AGL   +99999+99999GF106991011999001001999999IA1289KA1120M-01131KA2120N-01271MA1999999091771MD1710011+9999MW1021OD199900121999REMSYN004BUFR
0192013590999992023010606004+60530+008195FM-12+077299999V0200331N0043199999999002800199-00921-01091101291ADDAJ100689100680099AY171999AY271999GA1999+003001051GA2999+999999101GE19AGL   +99999+99999GF108991999999003001999999IA1289MA1999999091771MD1710301+9999MW1711OC100871OD139999999999REMSYN004BUFR
0096013590999992023011013004+60530+008195FM-12+077299999V0200651N0006199999999999999999-00171-00361100241ADDAA199999999KA1120M-00071KA2120N-00251MA1999999091071MD1710031+9999OD199900171999REMSYN004BUFR
0096013590999992023011207004+60530+008195FM-12+077299999V0203291N0010199999999999999999-00121-00421098931ADDAA199999999KA1120M-00071KA2120N-00131MA1999999089901MD1210101+9999OD199900201999REMSYN004BUFR
0096013590999992023011208004+60530+008195FM-12+077299999V0202561N0015199999999999999999-00121-00431098931ADDAA199999999KA1120M-00101KA2120N-00161MA1999999089901MD1110081+9999OD199900211999REMSYN004BUFR
0104013590999992023011209004+60530+008195FM-12+077299999V0202341N0015199999999999999999-00171-00501098981ADDAA199999999KA1120M-00071KA2120N-00171MA1999999089931MD1310071+9999OC100531OD199900351999REMSYN004BUFR
0104013590999992023011214004+60530+008195FM-12+077299999V0202781N0020199999999999999999-00241-00561099051ADDAA199999999KA1120M-00091KA2120N-00241MA1999999089971MD1510011+9999OC100591OD199900471999REMSYN004BUFR
0130013590999992023021406004+60530+008195FM-12+077299999V0200511N0008122000199075000199-00891-01071103521ADDAJ100689100680099AY101999AY201999GF100991999999999999999999IA1249MA1999999093801MD1610111+9999MW1021OD139999999999REMSYN004BUFR
0096013590999992023021407004+60530+008195FM-12+077299999V0200351N0009199999999999999999-00901-01081103511ADDAA199999999KA1120M-00841KA2120N-00981MA1999999093791MD1710071+9999OD199900091999REMSYN004BUFR
0096013590999992023021411004+60530+008195FM-12+077299999V0202101N0024199999999999999999-00141-00741103171ADDAA199999999KA1120M+00121KA2120N-00231MA1999999093751MD1710071+9999OD199900241999REMSYN004BUFR
0167013590999992023021412004+60530+008195FM-12+077299999V0202131N0026122000199075000199+00061-00681103041ADDAA199999999AJ100679100670099AY101999AY201999GF100991999999999999999999IA1249KA1120M+00061KA2120N-00191MA1999999093691MD1810091+9999MW1021OD199900291999REMSYN004BUFR
0096013590999992023021413004+60530+008195FM-12+077299999V0202211N0023199999999999999999+00151-00641102961ADDAA199999999KA1120M+00161KA2120N+00051MA1999999093651MD1710131+9999OD199900311999REMSYN004BUFR
0104013590999992023021414004+60530+008195FM-12+077299999V0201961N0018199999999999999999+00201-00601102871ADDAA199999999KA1120M+00281KA2120N+00161MA1999999093591MD1710161+9999OC100541OD199900321999REMSYN004BUFR
0096013590999992023021415004+60530+008195FM-12+077299999V0202551N0024199999999999999999+00271-00641102801ADDAA199999999KA1120M+00321KA2120N+00171MA1999999093541MD1710151+9999OD199900321999REMSYN004BUFR
0096013590999992023021416004+60530+008195FM-12+077299999V0202561N0016199999999999999999-00021-00661102841ADDAA199999999KA1120M+00271KA2120N-00021MA1999999093491MD1710161+9999OD199900251999REMSYN004BUFR
0096013590999992023021417004+60530+008195FM-12+077299999V0200111N0006199999999999999999-00251-00711102901ADDAA199999999KA1120M+00011KA2120N-00271MA1999999093461MD1610121+9999OD199900181999REMSYN004BUFR
0213013590999992023021418004+60530+008195FM-12+077299999V0200341N0008122000199075000199-00421-00831102961ADDAA199999999AJ100689100680099AY101999AY201999GA1999+025001021GE19AGL   +99999+99999GF101991999999025001999999IA1249KA1120M+00321KA2120N-00981MA1999999093451MD1610091+9999MW1021OC100541OD199900321999REMSYN004BUFR
0096013590999992023021419004+60530+008195FM-12+077299999V0200421N0013199999999999999999-00541-00911102971ADDAA199999999KA1120M-00331KA2120N-00551MA1999999093431MD1710061+9999OD199900211999REMSYN004BUFR
0104013590999992023021511004+60530+008195FM-12+077299999V0202321N0016199999999999999999+00471+00061101831ADDAA199999999KA1120M+00481KA2120N-00031MA1999999092731MD1710151+9999OC100551OD199900281999REMSYN004BUFR
0213013590999992023021512004+60530+008195FM-12+077299999V0202321N00251025001C9045000199+00501+00101101781ADDAA199999999AJ100679100670099AY121999AY221999GA1061+025001031GE19AGL   +99999+99999GF106991061999025001999999IA1249KA1120M+00501KA2120N+00441MA1999999092691MD1510141+9999MW1021OC100721OD199900491999REMSYN004BUFR
0118013590999992023030113004+60530+008195FM-12+077299999V0202641N0034199999999999999999-00121-00871103231ADDAA199999999KA1120M-00131KA2120N-00221MA1999999093811MD1810111+9999OC100631OD139900631133OD299900371999REMSYN004BUFR
0104013590999992023031415004+60530+008195FM-12+077299999V0202341N0046199999999999999999-00441-01061098781ADDAA199999999KA1120M-00261KA2120N-00441MA1999999089661MD1110251+9999OC100921OD199900721999REMSYN004BUFR
0104013590999992023032017004+60530+008195FM-12+077299999V0203121N0032199999999999999999-00071-00741101131ADDAA199999999KA1120M+00041KA2120N-00071MA1999999091921MD1010021+9999OC100651OD199900431999REMSYN004BUFR
0121013590999992023032018004+60530+008195FM-12+077299999V0202411N0008199999999999999999-00321-00791101331ADDAA199999999AJ100809100800099KA1120M+00301KA2120N-00321MA1999999092011MD1310121+9999OC100751OD199900491999REMSYN004BUFR
0192013590999992023032106004+60530+008195FM-12+077299999V0202501N00041025001C9055000199-00901-01181101401ADDAJ100809100800099AY121999AY201999GA1081+025001031GA2999+999999101GE19AGL   +99999+99999GF108991081999025001999999IA1279MA1999999091871MD1710081+9999MW1021OC100591OD199900321999REMSYN004BUFR
0221013590999992023032112004+60530+008195FM-12+077299999V0201831N00131003001C9008000199-00221-00531100951ADDAA199000231AJ100003100000099AY171999AY221999GA1081+003001051GA2999+999999101GE19AGL   +99999+99999GF108991081999003001999999IA1289KA1120M-00181KA2120N-00271MA1999999091701MD1810111+9999MW1711OD199900191999REMSYN004BUFR
0221013590999992023032412004+60530+008195FM-12+077299999V0202221N0021199999999055000199+00271-00491098591ADDAA199999999AJ100889100880099AY121999AY221999GA1021+006001071GA2999+999999021GE19AGL   +99999+99999GF106991021999006001999999IA1249KA1120M+00311KA2120N+00231MA1999999089721MD1710151+9999MW1021OD199900261999REMSYN004BUFR
0096013590999992023032413004+60530+008195FM-12+077299999V0202271N0028199999999999999999+00271-00481098541ADDAA199999999KA1120M+00281KA2120N+00251MA1999999089681MD1610141+9999OD199900291999REMSYN004BUFR
0205013590999992023041906004+60530+008195FM-12+077299999V0202301N0021122000199075000199+00021-00821104221ADDAA124999999AA299999999AJ199999999999999AY101999AY201999GF100991999999999999999999IA1249KA1120M+00561KA2120N-00411MA1999999094761MD1710051+9999MW1021OC100541OD199900281999REMSYN004BUFREQDQ01  81002PRCP24
0096013590999992023042309004+60530+008195FM-12+077299999V0200541N0018199999999999999999+00151+00021100201ADDAA199000531KA1120M+00141KA2120N+00081MA1999999091141MD1610121+9999OD199900341999REMSYN004BUFR
0132013590999992023042606004+60530+008195FM-12+077299999V0202781N0048199999999999999999-00171-00781100551ADDAA124000631AA299999999AJ100003100000099KA1120M-00081KA2120N-00281MA1999999091351MD1310041+9999OC101121OD199900491999REMSYN004BUFR
0104013590999992023042614004+60530+008195FM-12+077299999V0202901N0043199999999999999999+00101-00931100571ADDAA199999999KA1120M+00131KA2120N+00001MA1999999091461MD1210041+9999OC101221OD199900591999REMSYN004BUFR
0096013590999992023051209004+60530+008195FM-12+077299999V0202251N0022199999999999999999+00801+00171102581ADDAA199999999KA1120M+00801KA2120N+00661MA1999999093531MD1110051+9999OD199900251999REMSYN004BUFR
0224013590999992023052206004+60530+008195FM-12+077299999V0201951N0013122000199075000199+00621-00081102541ADDAA124999999AJ199999999999999AY101999AY201999GA1031+025001031GE19AGL   +99999+99999GF103991031999025001999999IA1189KA1120M+01181KA2120N+00001MA1999999093431MD1710111+9999MW1031OD199900251999REMSYN004BUFREQDQ01  99993PRCP99
0096013590999992023052315004+60530+008195FM-12+077299999V0200801N0012199999999999999999+01051+00361101521ADDAA199999999KA1120M+01051KA2120N+00981MA1999999092641MD1210071+9999OD199900331999REMSYN004BUFR
0104013590999992023052504004+60530+008195FM-12+077299999V0202171N0052199999999999999999+00311-00301102041ADDAA199999999KA1120M+00321KA2120N+00281MA1999999092871MD1310071+9999OC101201OD199900751999REMSYN004BUFR
0118013590999992023052505004+60530+008195FM-12+077299999V0202061N0023199999999999999999+00351-00381102131ADDAA199999999KA1120M+00351KA2120N+00281MA1999999092961MD1310151+9999OC101121OD139901121213OD299900591999REMSYN004BUFR
0104013590999992023053022004+60530+008195FM-12+077299999V0202231N0077199999999999999999+00701+00131102441ADDAA199999999KA1120M+00781KA2120N+00681MA1999999093361MD1810051+9999OC101301OD199900771999REMSYN004BUFR
0213013590999992023060418004+60530+008195FM-12+077299999V0202901N0024199999999060000199+01561+00111101961ADDAA199999999AJ100009100000099AY121999AY201999GA1999+025001001GE19AGL   +99999+99999GF106991999999025001999999IA1009KA1120M+01691KA2120N+00811MA1999999093201MD1410001+9999MW1031OC100581OD199900571999REMSYN004BUFR
0229013590999992023061818004+60530+008195FM-12+077299999V0200641N00131006001C9025000199+01401+00961101791ADDAA199000231AJ100003100000099AY191999AY261999GA1081+006001051GA2999+999999101GE19AGL   +99999+99999GF108991081999006001999999IA1089KA1120M+02141KA2120N+01351MA1999999092991MD1110161+9999MW1511OC101091OD199900391999REMSYN004BUFR
0107013590999992023061900004+60530+008195FM-12+077299999V0200571N0009199999999999999999+01201+01011101681ADDAA199000131AA299999999KA1120M+01221KA2120N+01191MA1999999092831MD1710071+9999OD199900161999REMSYN004BUFR
0123013590999992023062000004+60530+008195FM-12+077299999V0201531N0005199999999999999999+01221+01121101431ADDAA199000231KA1120M+01281KA2120N+01231MA1999999092591MD1310031+9999OC100521OD199900281999REMSYN004BUFREQDQ01  00023PRCP99
0205013590999992023062018004+60530+008195FM-12+077299999V0200621N00101001001C9016000199+01511+01351101331ADDAA199999999AJ100003100002099AY161999AY221999GA1071+001001081GE19AGL   +99999+99999GF107991071999001001999999IA1089KA1120M+01641KA2120N+01261MA1999999092591MD1610061+9999MW1021OD199900281999REMSYN004BUFR
0115013590999992023062100004+60530+008195FM-12+077299999V0202341N0003199999999999999999+01221+01191101451ADDAA199999999KA1120M+01241KA2120N+01211MA1999999092601MD1810061+9999OD199900141999REMSYN004BUFREQDQ01  99993PRCP99
0224013590999992023062206004+60530+008195FM-12+077299999V0202271N00471006001C9040000199+01221+00841101231ADDAA124005831AA299999999AJ100009100000099AY121999AY221999GA1061+006001081GE19AGL   +99999+99999GF106991061999006001999999IA1089KA1120M+01571KA2120N+01061MA1999999092401MD1110081+9999MW1021OC100861OD199900561999REMSYN004BUFR
0093013590999992023070712004+60530+008195FM-12+077299999V0202171N0042199999999999999999+01551+00771101551ADDKA1120M+01631KA2120N+01511MA1999999092801MD1210121+9999OC100821OD139999999999REMSYN004BUFR
0096013590999992023072715004+60530+008195FM-12+077299999V0202161N0011199999999999999999+01901+00471099741ADDAA199999999KA1120M+01901KA2120N+01821MA1999999091261MD1710051+9999OD199900181999REMSYN004BUFR
0104013590999992023080811004+60530+008195FM-12+077299999V0202331N0025199999999999999999+00971+00841098351ADDAA199003931KA1120M+01001KA2120N+00981MA1999999089701MD1610241+9999OC100541OD199900261999REMSYN004BUFR
0218013590999992023082106004+60530+008195FM-12+077299999V0202381N00341006001C9040000199+01251+00801101451ADDAA124004531AA299999999AJ100009100000099AY121999AY201999GA1051+006001081GE19AGL   +99999+99999GF105991051999006001999999KA1120M+01651KA2120N+00771MA1999999092611MD1510031+9999MW1021OC100691OD199900361999REMSYN004BUFR
0115013590999992023083100004+60530+008195FM-12+077299999V0201811N0004199999999999999999+00271+00251100991ADDAA199999999KA1120M+00411KA2120N+00281MA1999999091881MD1210021+9999OD199900121999REMSYN004BUFREQDQ01  99993PRCP99
0104013590999992023090409004+60530+008195FM-12+077299999V0202151N0043199999999999999999+01421+01011101861ADDAA199999999KA1120M+01421KA2120N+01381MA1999999093041MD1310011+9999OC100881OD199900571999REMSYN004BUFR
0229013590999992023091518004+60530+008195FM-12+077299999V0202371N00091006001C9025000199+00851+00541101781ADDAA199000131AJ100003100000099AY161999AY221999GA1081+006001051GA2999+999999101GE19AGL   +99999+99999GF108991081999006001999999IA1089KA1120M+01361KA2120N+00661MA1999999092781MD1210021+9999MW1601OC100941OD199900531999REMSYN004BUFR
0314013590999992023101812004+60533+008200FM-12+077399999V0201201N001019999999N045000199+00481-00261101761ADDAA101000091AA206000091AY121021AY221021GA1999+999999021GE19AGL   +99999+99999GF108991001999999999999999KA1240M+00481KA2240N+00331MA1999999092641MD1810071+9999MW1021OD139900301999REMSYN10601359 01983 81201 10048 21026 39264 40176 58007 60001 70222 80007 333 10048 20033 31/// 60005 90710 91103=EQDQ01    003SCCGA1
0174013590999992023101815004+60533+008200FM-12+077399999V0200501N002019999999N999999999+00331-00381101741ADDAA101000091KA1240M+00391KA2240N+00331MA1999999092581MD1710061+9999OD139900301999REMSYN08201359 26/// /0502 10033 21038 39258 40174 57006 333 10039 20033 60005 90710 91103=
0314013590999992023101818004+60533+008200FM-12+077399999V0203501N001019999999N050000199-00081-00331101911ADDAA101000091AA212000091AY121021AY221021GA1999+999999021GE19AGL   +99999+99999GF108991001999999999999999KA1120M+00501KA2120N-00331MA1999999092591MD1210011+9999MW1021OD139900101999REMSYN10601359 01984 83501 11008 21033 39259 40191 52001 60002 70222 80007 333 10050 21033 31/// 60005 90710 91101=EQDQ01    003SCCGA1
0174013590999992023101821004+60533+008200FM-12+077399999V0200101N001019999999N999999999-00331-00421102021ADDAA101000091KA1240M-00161KA2240N-00351MA1999999092611MD1210021+9999OD139900201999REMSYN08201359 26/// /0101 11033 21042 39261 40202 52002 333 11016 21035 60005 90710 91102=
0191013590999992023101900004+60533+008200FM-12+077399999V0200401N001019999999N999999999-00351-00431101991ADDAA101000091AA206000091KA1120M-00301KA2120N-00361MA1999999092571MD1810041+9999OD139900101999REMSYN08801359 06/// /0401 11035 21043 39257 40199 58004 60001 333 11030 21036 60005 90710 91101=
0174013590999992023101903004+60533+008200FM-12+077399999V0200401N003019999999N999999999-00171-00391101831ADDAA101000091KA1240M-00151KA2240N-00171MA1999999092501MD1710081+9999OD139900601999REMSYN08201359 26/// /0403 11017 21039 39250 40183 57008 333 11015 21017 60005 90710 91106=
0312013590999992023101906004+60533+008200FM-12+077399999V0200601N003019999999N040000199-00191-00511101831ADDAA101000091AA212000091AA324000091AY121021AY221021GA1081+008001061GE19AGL   +99999+99999GF108991081999008001999999KA1240M-00071KA2240N-00391MA1999999092481MD1710011+9999MW1021OD139900701999REMSYN11201359 01582 80603 11019 21051 39248 40183 57001 60002 70222 885// 333 11007 21039 34/// 60005 70000 90710 91107=
0174013590999992023101909004+60533+008200FM-12+077399999V0200701N003019999999N999999999-00311-00811101941ADDAA101000091KA1240M-00291KA2240N-00321MA1999999092541MD1210061+9999OD139900701999REMSYN08201359 26/// /0703 11031 21081 39254 40194 52006 333 11029 21032 60005 90710 91107=
0295013590999992023101912004+60533+008200FM-12+077399999V0200601N003019999999N060000199-00171-00871101871ADDAA101000091AA206000091AY121021AY221021GA1061+008001061GE19AGL   +99999+99999GF106991061999008001999999KA1240M-00151KA2240N-00291MA1999999092531MD1810021+9999MW1011OD139900901999REMSYN10601359 01586 60603 11017 21087 39253 40187 58002 60001 70122 86500 333 11015 21029 31/// 60005 90710 91109=
0174013590999992023101915004+60533+008200FM-12+077399999V0200701N003019999999N999999999-00101-00951101751ADDAA101000091KA1240M-00081KA2240N-00161MA1999999092441MD1510081+9999OD139900801999REMSYN08201359 26/// /0703 11010 21095 39244 40175 55008 333 11008 21016 60005 90710 91108=
0311013590999992023101918004+60533+008200FM-12+077399999V0200401N003019999999N045000199-00321-00841101911ADDAA101000091AA212000091AY121021AY201021GA1051+008001081GA2999+999999031GE19AGL   +99999+99999GF108991051999008001999999KA1120M-00061KA2120N-00341MA1999999092521MD1210081+9999MW1031OD139900801999REMSYN10601359 01583 80403 11032 21084 39252 40191 52008 60002 70320 8527/ 333 11006 21034 31/// 60005 90710 91108=
0174013590999992023101921004+60533+008200FM-12+077399999V0200601N004019999999N999999999-00311-00721101981ADDAA101000091KA1240M-00311KA2240N-00311MA1999999092581MD1210061+9999OD139900801999REMSYN08201359 26/// /0604 11031 21072 39258 40198 52006 333 11031 21031 60005 90710 91108=
0191013590999992023102000004+60533+008200FM-12+077399999V0200501N005019999999N999999999-00401-00801102051ADDAA101000091AA206000091KA1120M-00361KA2120N-00401MA1999999092611MD1210031+9999OD139900901999REMSYN08801359 06/// /0505 11040 21080 39261 40205 52003 60001 333 11036 21040 60005 90710 91109=
0174013590999992023102003004+60533+008200FM-12+077399999V0200601N004019999999N999999999-00441-00761102021ADDAA101000091KA1240M-00431KA2240N-00441MA1999999092581MD1710031+9999OD139900801999REMSYN08201359 26/// /0604 11044 21076 39258 40202 57003 333 11043 21044 60005 90710 91108=
0335013590999992023102006004+60533+008200FM-12+077399999V0200501N004019999999N020000199-00481-00781102031ADDAA101000091AA212000091AA324000091AJ199999999999999AY171021AY221021GA1081+008001051GE19AGL   +99999+99999GF108991081999008001999999IA1219KA1240M-00291KA2240N-00481MA1999999092571MD1510011+9999MW1021OD139901001999REMSYN11201359 01570 80504 11048 21078 39257 40203 55001 60002 70272 8802/ 333 11029 21048 45998 60005 70000 90710 91110=
0174013590999992023102009004+60533+008200FM-12+077399999V0200501N004019999999N999999999-00441-00781102051ADDAA101000091KA1240M-00431KA2240N-00451MA1999999092601MD1990031+9999OD139901001999REMSYN08201359 26/// /0504 11044 21078 39260 40205 50003 333 11043 21045 60005 90710 91110=
0311013590999992023102012004+60533+008200FM-12+077399999V0200501N004019999999N030000199-00301-00771101971ADDAA101000091AA206000131AY121021AY221021GA1071+008001061GA2999+999999031GE19AGL   +99999+99999GF108991071999008001999999KA1240M-00301KA2240N-00351MA1999999092581MD1810011+9999MW1021OD139900901999REMSYN10601359 01580 80504 11030 21077 39258 40197 58001 69911 70222 8757/ 333 11030 21035 34/// 60005 90710 91109=
0174013590999992023102015004+60533+008200FM-12+077399999V0200601N004019999999N999999999-00271-00751101851ADDAA101000091KA1240M-00261KA2240N-00281MA1999999092481MD1610101+9999OD139900901999REMSYN08201359 26/// /0604 11027 21075 39248 40185 56010 333 11026 21028 60005 90710 91109=
0295013590999992023102018004+60533+008200FM-12+077399999V0200601N006019999999N035000199-00301-00811101801ADDAA101000091AA212000131AY121021AY221021GA1081+008001061GE19AGL   +99999+99999GF108991081999008001999999KA1120M-00251KA2120N-00481MA1999999092421MD1510061+9999MW1021OD139901101999REMSYN10601359 01581 80606 11030 21081 39242 40180 55006 69912 70222 885// 333 11025 21048 34/// 60005 90710 91111=
0174013590999992023102021004+60533+008200FM-12+077399999V0200601N005019999999N999999999-00341-00761101791ADDAA101000091KA1240M-00321KA2240N-00341MA1999999092401MD1510021+9999OD139901001999REMSYN08201359 26/// /0605 11034 21076 39240 40179 55002 333 11032 21034 60005 90710 91110=
0191013590999992023102100004+60533+008200FM-12+077399999V0200501N005019999999N999999999-00441-00881101801ADDAA101000091AA206000091KA1120M-00421KA2120N-00441MA1999999092371MD1810031+9999OD139901101999REMSYN08801359 06/// /0505 11044 21088 39237 40180 58003 60001 333 11042 21044 60005 90710 91111=
0174013590999992023102103004+60533+008200FM-12+077399999V0200501N005019999999N999999999-00471-00861101671ADDAA101000091KA1240M-00471KA2240N-00481MA1999999092251MD1510121+9999OD139901001999REMSYN08201359 26/// /0505 11047 21086 39225 40167 55012 333 11047 21048 60005 90710 91110=
0312013590999992023102106004+60533+008200FM-12+077399999V0200501N005019999999N040000199-00451-00811101591ADDAA101000091AA212000091AA324000131AY121021AY221021GA1081+008001061GE19AGL   +99999+99999GF108991081999008001999999KA1240M-00301KA2240N-00501MA1999999092181MD1810071+9999MW1021OD139901101999REMSYN11201359 01582 80505 11045 21081 39218 40159 58007 60002 70222 885// 333 11030 21050 34/// 60005 70001 90710 91111=
0174013590999992023102109004+60533+008200FM-12+077399999V0200401N005019999999N999999999-00441-00751101551ADDAA101000091KA1240M-00441KA2240N-00451MA1999999092151MD1810031+9999OD139901001999REMSYN08201359 26/// /0405 11044 21075 39215 40155 58003 333 11044 21045 60005 90710 91110=
0318013590999992023102112004+60533+008200FM-12+077399999V0200501N004019999999N004700199-00431-00611101421ADDAA101000531AA206000531AJ199999999999999AY171021AY221021GA1081+002501051GE19AGL   +99999+99999GF108991081999002501999999IA1229KA1240M-00421KA2240N-00441MA1999999092031MD1710111+9999MW1711OD139901001999REMSYN10601359 01347 80504 11043 21061 39203 40142 57011 69951 77172 8802/ 333 11042 21044 46998 69955 90710 91110=
0174013590999992023102115004+60533+008200FM-12+077399999V0200401N003019999999N999999999-00391-00491101341ADDAA101000131KA1240M-00391KA2240N-00401MA1999999091981MD1810051+9999OD139900701999REMSYN08201359 26/// /0403 11039 21049 39198 40134 58005 333 11039 21040 69915 90710 91107=
0334013590999992023102118004+60533+008200FM-12+077399999V0200401N004019999999N005000199-00301-00371101311ADDAA101000131AA212002031AJ199999999999999AY171021AY221021GA1051+002501071GA2999+999999051GE19AGL   +99999+99999GF108991051999002501999999IA1229KA1120M-00301KA2120N-00451MA1999999091981MD1410001+9999MW1781OD139900701999REMSYN10601359 01350 80404 11030 21037 39198 40131 54000 60022 77872 8562/ 333 11030 21045 46998 69915 90710 91107=
0174013590999992023102121004+60533+008200FM-12+077399999V0200401N005019999999N999999999-00281-00351101251ADDAA101000091KA1240M-00281KA2240N-00291MA1999999091931MD1710051+9999OD139900901999REMSYN08201359 26/// /0405 11028 21035 39193 40125 57005 333 11028 21029 60005 90710 91109=
0191013590999992023102200004+60533+008200FM-12+077399999V0200501N003019999999N999999999-00271-00321101201ADDAA101000131AA206000331KA1120M-00261KA2120N-00271MA1999999091881MD1710041+9999OD139900801999REMSYN08801359 06/// /0503 11027 21032 39188 40120 57004 69931 333 11026 21027 69915 90710 91108=
0174013590999992023102203004+60533+008200FM-12+077399999V0200501N003019999999N999999999-00261-00321101111ADDAA101000131KA1240M-00261KA2240N-00261MA1999999091801MD1810081+9999OD139900601999REMSYN08201359 26/// /0503 11026 21032 39180 40111 58008 333 11026 21026 69915 90710 91106=
0335013590999992023102206004+60533+008200FM-12+077399999V0200501N003019999999N003800199-00261-00321101121ADDAA101000091AA212000531AA324002031AJ199999999999999AY121021AY221021GA1081+002501071GE19AGL   +99999+99999GF108991081999002501999999IA1229KA1240M-00261KA2240N-00301MA1999999091821MD1210011+9999MW1401OD139900601999REMSYN11201359 01338 80503 11026 21032 39182 40112 52001 69952 74022 886// 333 11026 21030 46998 60005 70020 90710 91106=
0209013590999992023102209004+60533+008200FM-12+077399999V0200501N001019999999N999999999-00191-00281101091ADDAA101000231KA1240M-00181KA2240N-00221MA1999999091811MD1790039+9999OD139900401999REMSYN08201359 26/// /0501 11019 21028 39181 40109 54001 333 11018 21022 69925 90710 91104=EQDQ01.1    3APC3  Q024     3APCTEN
0318013590999992023102212004+60533+008200FM-12+077399999V0200701N001019999999N014000199-00051-00181101011ADDAA101000231AA206000631AJ199999999999999AY171021AY221021GA1081+002501071GE19AGL   +99999+99999GF108991081999002501999999IA1229KA1240M-00051KA2240N-00121MA1999999091791MD1710021+9999MW1021OD139900401999REMSYN10601359 01364 80701 11005 21018 39179 40101 57002 69961 70272 886// 333 11005 21012 46998 69925 90710 91104=
0174013590999992023102215004+60533+008200FM-12+077399999V0201201N001019999999N999999999-00061-00181100991ADDAA101000091KA1240M-00041KA2240N-00061MA1999999091771MD1710021+9999OD139900201999REMSYN08201359 26/// /1201 11006 21018 39177 40099 57002 333 11004 21006 60005 90710 91102=
0353013590999992023102218004+60533+008200FM-12+077399999V0209999C000059999999N015000199-00111-00161101001ADDAA101000091AA212000631AJ199999999999999AY121021AY221021GA1081+002501071GE19AGL   +99999+99999GF108991081999002501999999IA1219KA1120M-00011KA2120N-00261MA1999999091761MD1290019+9999MW1021OD139900101999REMSYN10601359 01365 81300 11011 21016 39176 40100 54001 69962 70222 886// 333 11001 21026 45998 60005 90710 91101=EQDQ01.1    3APC3  Q024     3APCTEN
0174013590999992023102221004+60533+008200FM-12+077399999V0209999C000059999999N999999999-00091-00131101041ADDAA101000131KA1240M-00091KA2240N-00101MA1999999091801MD1210041+9999OD139900101999REMSYN08201359 26/// /2100 11009 21013 39180 40104 52004 333 11009 21010 69915 90710 91101=
0191013590999992023102300004+60533+008200FM-12+077399999V0209999C000059999999N999999999-00101-00131101071ADDAA101000091AA206000231KA1120M-00091KA2120N-00101MA1999999091831MD1210031+9999OD139900101999REMSYN08801359 06/// /3200 11010 21013 39183 40107 52003 69921 333 11009 21010 60005 90710 91101=
0174013590999992023102303004+60533+008200FM-12+077399999V0200901N001019999999N999999999-00191-00241101091ADDAA101000091KA1240M-00141KA2240N-00191MA1999999091821MD1710011+9999OD139900201999REMSYN08201359 26/// /0901 11019 21024 39182 40109 57001 333 11014 21019 60005 90710 91102=
0354013590999992023102306004+60533+008200FM-12+077399999V0203201N001012200019N070001199-00261-00291101161ADDAA101000091AA212000231AA324000831AJ199999999999999AY171021AY221021GA1999+999999021GE19AGL   +99999+99999GF102991001999999999999999IA1239KA1240M-00091KA2240N-00261MA1999999091861MD1210041+9999MW1401OD139900201999REMSYN11201359 01989 23201 11026 21029 39186 40116 52004 69922 74072 80008 333 11009 21026 47998 60005 70008 90710 91102=EQDQ01    003SCCGA1
0174013590999992023102309004+60533+008200FM-12+077399999V0202001N001019999999N999999999-00271-00301101371ADDAA101000091KA1240M-00271KA2240N-00341MA1999999092041MD1110181+9999OD139900201999REMSYN08201359 26/// /2001 11027 21030 39204 40137 51018 333 11027 21034 60005 90710 91102=
0318013590999992023102312004+60533+008200FM-12+077399999V0200901N001019999999N045000199+00091-00011101281ADDAA101000091AA206000091AJ199999999999999AY121021AY221021GA1071+012501061GE19AGL   +99999+99999GF107991071999012501999999IA1269KA1240M+00091KA2240N-00071MA1999999092081MD1210041+9999MW1021OD139900101999REMSYN10601359 01683 70901 10009 21001 39208 40128 52004 60001 70222 87500 333 10009 21007 42998 60005 90710 91101=
0174013590999992023102315004+60533+008200FM-12+077399999V0202101N001019999999N999999999+00161+00051101331ADDAA101000091KA1240M+00351KA2240N+00161MA1999999092151MD1210071+9999OD139900101999REMSYN08201359 26/// /2101 10016 20005 39215 40133 52007 333 10035 20016 60005 90710 91101=
0318013590999992023102318004+60533+008200FM-12+077399999V0200801N001012200019N070001199-00091-00121101541ADDAA101000091AA212000091AJ199999999999999AY121021AY201021GA1011+017501081GE19AGL   +99999+99999GF101991011999017501999999IA1259KA1120M+00381KA2120N-00361MA1999999092261MD1110111+9999MW1011OD139900201999REMSYN10601359 01789 10801 11009 21012 39226 40154 51011 60002 70120 81100 333 10038 21036 41998 60005 90710 91102=
0174013590999992023102321004+60533+008200FM-12+077399999V0201701N001019999999N999999999-00291-00331101681ADDAA101000091KA1240M-00141KA2240N-00291MA1999999092321MD1210061+9999OD139900101999REMSYN08201359 26/// /1701 11029 21033 39232 40168 52006 333 11014 21029 60005 90710 91101=
0191013590999992023102400004+60533+008200FM-12+077399999V0209999C000059999999N999999999-00351-00391101781ADDAA101000091AA206000091KA1120M-00331KA2120N-00401MA1999999092391MD1110071+9999OD139900101999REMSYN08801359 06/// /0500 11035 21039 39239 40178 51007 60001 333 11033 21040 60005 90710 91101=
0174013590999992023102403004+60533+008200FM-12+077399999V0209999C000059999999N999999999-00551-00621101911ADDAA101000091KA1240M-00461KA2240N-00551MA1999999092431MD1210051+9999OD139900101999REMSYN08201359 26/// /3000 11055 21062 39243 40191 52005 333 11046 21055 60005 90710 91101=
0335013590999992023102406004+60533+008200FM-12+077399999V0209999C000059999999N020000199-00281-00321101871ADDAA101000091AA212000091AA324000091AJ199999999999999AY121021AY201021GA1081+004501071GE19AGL   +99999+99999GF108991081999004501999999IA1259KA1240M-00041KA2240N-00571MA1999999092491MD1310051+9999MW1021OD139900101999REMSYN11201359 01470 80300 11028 21032 39249 40187 53005 60002 70220 886// 333 11004 21057 41998 60005 70000 90710 91101=
0174013590999992023102409004+60533+008200FM-12+077399999V0200801N001019999999N999999999-00161-00191101891ADDAA101000091KA1240M-00161KA2240N-00171MA1999999092551MD1210061+9999OD139900301999REMSYN08201359 26/// /0801 11016 21019 39255 40189 52006 333 11016 21017 60005 90710 91103=
0343013590999992023102412004+60533+008200FM-12+077399999V0201301N001019999999N001600199-00051-00071101851ADDAA101000091AA206999999AJ199999999999999AY151021AY221021GA1081+002501071GE19AGL   +99999+99999GF108991081999002501999999IA1259KA1240M-00031KA2240N-00071MA1999999092551MD1410001+9999MW1511OD139900301999REMSYN11201359 01316 81301 11005 21007 39255 40185 54000 60001 75152 886// 91200 333 11003 21007 41998 60005 90710 91103=EQDQ01  00002PRCP06
0180013590999992023102415004+60533+008200FM-12+077399999V0202401N001019999999N999999999+00001-00021101761ADDAA101000091KA1240M+00011KA2240N-00011MA1999999092491MD1710061+9999OD139900201999REMSYN08801359 26/// /2401 10000 21002 39249 40176 57006 91500 333 10001 21001 60005 90710 91102=
0318013590999992023102418004+60533+008200FM-12+077399999V0200601N00201000601WN000200199+00041+00021101671ADDAA101000091AA212000131AJ199999999999999AY151021AY241021GA1091+999999999GE19AGL   +99999+99999GF109991091999999999999999IA1259KA1120M+00041KA2120N-00281MA1999999092411MD1710071+9999MW1451OD139900301999REMSYN10601359 01/02 90602 10004 20002 39241 40167 57007 69912 74554 89/// 333 10004 21028 41998 60005 90710 91103=
0174013590999992023102421004+60533+008200FM-12+077399999V0200501N003019999999N999999999+00051+00001101611ADDAA101000091KA1240M+00071KA2240N+00051MA1999999092361MD1710051+9999OD139900601999REMSYN08201359 26/// /0503 10005 20000 39236 40161 57005 333 10007 20005 60005 90710 91106=
0191013590999992023102500004+60533+008200FM-12+077399999V0200501N004019999999N999999999+00041-00011101531ADDAA101000091AA206000131KA1120M+00061KA2120N+00041MA1999999092291MD1710071+9999OD139900701999REMSYN08801359 06/// /0504 10004 21001 39229 40153 57007 69911 333 10006 20004 60005 90710 91107=
0174013590999992023102503004+60533+008200FM-12+077399999V0200401N003019999999N999999999-00051-00111101541ADDAA101000131KA1240M-00011KA2240N-00051MA1999999092271MD1810021+9999OD139900501999REMSYN08201359 26/// /0403 11005 21011 39227 40154 58002 333 11001 21005 69915 90710 91105=
0335013590999992023102506004+60533+008200FM-12+077399999V0200601N002019999999N018000199-00141-00221101511ADDAA101000131AA212000531AA324000631AJ100033100030099AY171021AY241021GA1081+002501071GE19AGL   +99999+99999GF108991081999002501999999IA1239KA1240M+00071KA2240N-00141MA1999999092211MD1710061+9999MW1021OD139900601999REMSYN11201359 01368 80602 11014 21022 39221 40151 57006 69952 70274 886// 333 10007 21014 47003 69915 70006 90710 91106=
0174013590999992023102509004+60533+008200FM-12+077399999V0200601N002019999999N999999999-00171-00291101581ADDAA101000131KA1240M-00171KA2240N-00181MA1999999092271MD1210061+9999OD139900601999REMSYN08201359 26/// /0602 11017 21029 39227 40158 52006 333 11017 21018 69915 90710 91106=
0318013590999992023102512004+60533+008200FM-12+077399999V0200501N003019999999N025000199-00181-00341101481ADDAA101000091AA206000131AJ100033100030099AY121021AY221021GA1081+004501071GE19AGL   +99999+99999GF108991081999004501999999IA1239KA1240M-00171KA2240N-00191MA1999999092171MD1710091+9999MW1021OD139900601999REMSYN10601359 01475 80503 11018 21034 39217 40148 57009 69911 70222 886// 333 11017 21019 47003 60005 90710 91106=
0174013590999992023102515004+60533+008200FM-12+077399999V0200501N003019999999N999999999-00171-00331101381ADDAA101000091KA1240M-00151KA2240N-00171MA1999999092091MD1710091+9999OD139900601999REMSYN08201359 26/// /0503 11017 21033 39209 40138 57009 333 11015 21017 60005 90710 91106=
0318013590999992023102518004+60533+008200FM-12+077399999V0200601N002019999999N028000199-00251-00421101401ADDAA101000091AA212000131AJ100033100030099AY121021AY221021GA1081+004501061GE19AGL   +99999+99999GF108991081999004501999999IA1239KA1120M-00141KA2120N-00251MA1999999092081MD1510011+9999MW1021OD139900501999REMSYN10601359 01478 80602 11025 21042 39208 40140 55001 69912 70222 885// 333 11014 21025 47003 60005 90710 91105=
0174013590999992023102521004+60533+008200FM-12+077399999V0200501N003019999999N999999999-00341-00421101381ADDAA101000091KA1240M-00321KA2240N-00341MA1999999092021MD1710061+9999OD139900601999REMSYN08201359 26/// /0503 11034 21042 39202 40138 57006 333 11032 21034 60005 90710 91106=
0214013590999992023102600004+60533+008200FM-12+077399999V0200501N002019999999N999999999-00381-00451101301ADDAA101000091AA206000091AJ100033100030099KA1120M-00361KA2120N-00381MA1999999091941MD1610091+9999OD139900601999REMSYN09401359 06/// /0502 11038 21045 39194 40130 56009 60001 333 11036 21038 4/003 60005 90710 91106=
0174013590999992023102603004+60533+008200FM-12+077399999V0200501N002019999999N999999999-00381-00531101221ADDAA101000091KA1240M-00381KA2240N-00381MA1999999091871MD1710071+9999OD139900401999REMSYN08201359 26/// /0502 11038 21053 39187 40122 57007 333 11038 21038 60005 90710 91104=
0335013590999992023102606004+60533+008200FM-12+077399999V0200301N002019999999N024000199-00431-00591101141ADDAA101000091AA212000091AA324000131AJ100033100030099AY121021AY221021GA1081+004501071GE19AGL   +99999+99999GF108991081999004501999999IA1239KA1240M-00251KA2240N-00431MA1999999091781MD1710101+9999MW1021OD139900401999REMSYN11201359 01474 80302 11043 21059 39178 40114 57010 60002 70222 886// 333 11025 21043 47003 60005 70001 90710 91104=
0174013590999992023102609004+60533+008200FM-12+077399999V0200501N002019999999N999999999-00371-00521101081ADDAA101000091KA1240M-00371KA2240N-00401MA1999999091741MD1710031+9999OD139900401999REMSYN08201359 26/// /0502 11037 21052 39174 40108 57003 333 11037 21040 60005 90710 91104=
0318013590999992023102612004+60533+008200FM-12+077399999V0200501N002019999999N013000199-00311-00461100921ADDAA101000091AA206000091AJ100033100030099AY121021AY221021GA1081+004501071GE19AGL   +99999+99999GF108991081999004501999999IA1239KA1240M-00311KA2240N-00341MA1999999091611MD1710121+9999MW1021OD139900401999REMSYN10601359 01463 80502 11031 21046 39161 40092 57012 60001 70222 886// 333 11031 21034 47003 60005 90710 91104=
0174013590999992023102615004+60533+008200FM-12+077399999V0200701N001019999999N999999999-00311-00441100831ADDAA101000091KA1240M-00301KA2240N-00311MA1999999091541MD1710081+9999OD139900301999REMSYN08201359 26/// /0701 11031 21044 39154 40083 57008 333 11030 21031 60005 90710 91103=
0318013590999992023102618004+60533+008200FM-12+077399999V0202501N001019999999N020000199-00331-00441100761ADDAA101000131AA212000131AJ100033100030099AY121021AY221021GA1081+004501071GE19AGL   +99999+99999GF108991081999004501999999IA1239KA1120M-00291KA2120N-00431MA1999999091471MD1710071+9999MW1021OD139900301999REMSYN10601359 01470 82501 11033 21044 39147 40076 57007 69912 70222 886// 333 11029 21043 47003 69915 90710 91103=
0174013590999992023102621004+60533+008200FM-12+077399999V0200201N001019999999N999999999-00381-00461100721ADDAA101000091KA1240M-00371KA2240N-00381MA1999999091421MD1710051+9999OD139900201999REMSYN08201359 26/// /0201 11038 21046 39142 40072 57005 333 11037 21038 60005 90710 91102=
0214013590999992023102700004+60533+008200FM-12+077399999V0202301N001019999999N999999999-00471-00601100671ADDAA101000091AA206000731AJ100033100030099KA1120M-00451KA2120N-00471MA1999999091341MD1710081+9999OD139900301999REMSYN09401359 06/// /2301 11047 21060 39134 40067 57008 69971 333 11045 21047 4/003 60005 90710 91103=
0174013590999992023102703004+60533+008200FM-12+077399999V0202601N002019999999N999999999-00521-00651100621ADDAA101000091KA1240M-00501KA2240N-00521MA1999999091271MD1810071+9999OD139900401999REMSYN08201359 26/// /2602 11052 21065 39127 40062 58007 333 11050 21052 60005 90710 91104=
0335013590999992023102706004+60533+008200FM-12+077399999V0202401N001019999999N015000199-00671-00771100631ADDAA101000091AA212000731AA324000831AJ100033100030099AY121021AY221021GA1071+002501071GE19AGL   +99999+99999GF107991071999002501999999IA1239KA1240M-00341KA2240N-00671MA1999999091241MD1510041+9999MW1401OD139900201999REMSYN11201359 01365 72401 11067 21077 39124 40063 55004 69972 74022 87600 333 11034 21067 47003 60005 70008 90710 91102=
0174013590999992023102709004+60533+008200FM-12+077399999V0202101N001019999999N999999999-00611-00731100701ADDAA101000131KA1240M-00611KA2240N-00691MA1999999091321MD1210081+9999OD139900201999REMSYN08201359 26/// /2101 11061 21073 39132 40070 52008 333 11061 21069 69915 90710 91102=
0318013590999992023102712004+60533+008200FM-12+077399999V0200401N003019999999N004500199-00481-00591100641ADDAA101000091AA206000231AJ100033100030099AY171021AY221021GA1081+001501071GE19AGL   +99999+99999GF108991081999001501999999IA1239KA1240M-00471KA2240N-00491MA1999999091311MD1710011+9999MW1101OD139900501999REMSYN10601359 01245 80403 11048 21059 39131 40064 57001 69921 71072 886// 333 11047 21049 47003 60005 90710 91105=
0174013590999992023102715004+60533+008200FM-12+077399999V0200801N001019999999N999999999-00421-00521100601ADDAA101000131KA1240M-00411KA2240N-00431MA1999999091291MD1710021+9999OD139900301999REMSYN08201359 26/// /0801 11042 21052 39129 40060 57002 333 11041 21043 69915 90710 91103=
0318013590999992023102718004+60533+008200FM-12+077399999V0200501N001019999999N014000199-00441-00521100661ADDAA101000091AA212000431AJ100033100030099AY121021AY221021GA1081+002501071GE19AGL   +99999+99999GF108991081999002501999999IA1239KA1120M-00411KA2120N-00701MA1999999091331MD1210041+9999MW1021OD139900401999REMSYN10601359 01364 80501 11044 21052 39133 40066 52004 69942 70222 886// 333 11041 21070 47003 60005 90710 91104=
0174013590999992023102721004+60533+008200FM-12+077399999V0200301N003019999999N999999999-00461-00591100711ADDAA101000091KA1240M-00431KA2240N-00461MA1999999091381MD1210051+9999OD139900501999REMSYN08201359 26/// /0303 11046 21059 39138 40071 52005 333 11043 21046 60005 90710 91105=
0214013590999992023102800004+60533+008200FM-12+077399999V0200401N002019999999N999999999-00531-00711100781ADDAA101000091AA206000091AJ100033100030099KA1120M-00521KA2120N-00531MA1999999091421MD1990031+9999OD139900401999REMSYN09401359 06/// /0402 11053 21071 39142 40078 50003 60001 333 11052 21053 4/003 60005 90710 91104=
0209013590999992023102803004+60533+008200FM-12+077399999V0200701N001019999999N999999999-00611-00791100801ADDAA101000091KA1240M-00581KA2240N-00611MA1999999091411MD1290029+9999OD139900401999REMSYN08201359 26/// /0701 11061 21079 39141 40080 54001 333 11058 21061 60005 90710 91104=EQDQ01.1    3APC3  Q024     3APCTEN
0231013590999992023102806004+60533+008200FM-12+077399999V0200401N002019999999N999999999-00601-00771100781ADDAA101000131AA212000131AA324000531AJ100033100030099KA1240M-00431KA2240N-00611MA1999999091401MD1710011+9999OD139900301999REMSYN10001359 06/// /0402 11060 21077 39140 40078 57001 69912 333 11043 21061 4/003 69915 70005 90710 91103=
0174013590999992023102809004+60533+008200FM-12+077399999V0200201N002019999999N999999999-00591-00771100931ADDAA101000091KA1240M-00581KA2240N-00601MA1999999091531MD1110141+9999OD139900401999REMSYN08201359 26/// /0202 11059 21077 39153 40093 51014 333 11058 21060 60005 90710 91104=
0214013590999992023102812004+60533+008200FM-12+077399999V0202001N001019999999N999999999-00531-00721100941ADDAA101000531AA206000831AJ100033100030099KA1240M-00481KA2240N-00541MA1999999091561MD1990031+9999OD139900201999REMSYN09401359 06/// /2001 11053 21072 39156 40094 50003 69981 333 11048 21054 4/003 69955 90710 91102=
0174013590999992023102815004+60533+008200FM-12+077399999V0200701N001019999999N999999999-00471-00681100881ADDAA101000091KA1240M-00471KA2240N-00491MA1999999091531MD1710031+9999OD139900301999REMSYN08201359 26/// /0701 11047 21068 39153 40088 57003 333 11047 21049 60005 90710 91103=
0214013590999992023102818004+60533+008200FM-12+077399999V0200401N001019999999N999999999-00521-00681100931ADDAA101000091AA212000831AJ100033100030099KA1120M-00451KA2120N-00601MA1999999091561MD1210031+9999OD139900201999REMSYN09401359 06/// /0401 11052 21068 39156 40093 52003 69982 333 11045 21060 4/003 60005 90710 91102=
0174013590999992023102821004+60533+008200FM-12+077399999V0200301N001019999999N999999999-00571-00691100991ADDAA101000731KA1240M-00551KA2240N-00571MA1999999091601MD1210041+9999OD139900201999REMSYN08201359 26/// /0301 11057 21069 39160 40099 52004 333 11055 21057 69975 90710 91102=
0220013590999992023102900004+60533+008200FM-12+077399999V0202601N001019999999N999999999-00581-00711101001ADDAA101000091AA206001031AJ100043100040099KA1120M-00561KA2120N-00591MA1999999091601MD1410001+9999OD139900201999REMSYN10001359 06/// /2601 11058 21071 39160 40100 54000 60011 90000 333 11056 21059 4/004 60005 90710 91102=
0174013590999992023102903004+60533+008200FM-12+077399999V0202201N001019999999N999999999-00641-00751100891ADDAA101000231KA1240M-00591KA2240N-00641MA1999999091471MD1810121+9999OD139900301999REMSYN08201359 26/// /2201 11064 21075 39147 40089 58012 333 11059 21064 69925 90710 91103=
0231013590999992023102906004+60533+008200FM-12+077399999V0202101N001019999999N999999999-00761-00861100851ADDAA101000431AA212002031AA324002731AJ100053100050099KA1240M-00521KA2240N-00791MA1999999091401MD1710071+9999OD139900201999REMSYN10001359 06/// /2101 11076 21086 39140 40085 57007 60022 333 11052 21079 4/005 69945 70027 90710 91102=
0174013590999992023102909004+60533+008200FM-12+077399999V0202101N001019999999N999999999-00761-00871100811ADDAA101000331KA1240M-00741KA2240N-00761MA1999999091361MD1710031+9999OD139900201999REMSYN08201359 26/// /2101 11076 21087 39136 40081 57003 333 11074 21076 69935 90710 91102=
0214013590999992023102912004+60533+008200FM-12+077399999V0200301N002019999999N999999999-00591-00721100631ADDAA101000091AA206001031AJ100053100050099KA1240M-00551KA2240N-00611MA1999999091261MD1710101+9999OD139900401999REMSYN09401359 06/// /0302 11059 21072 39126 40063 57010 60011 333 11055 21061 4/005 60005 90710 91104=
0174013590999992023102915004+60533+008200FM-12+077399999V0200601N002019999999N999999999-00621-00751100491ADDAA101000091KA1240M-00571KA2240N-00621MA1999999091121MD1710131+9999OD139900401999REMSYN08201359 26/// /0602 11062 21075 39112 40049 57013 333 11057 21062 60005 90710 91104=
0214013590999992023102918004+60533+008200FM-12+077399999V0200401N001019999999N999999999-00671-00861100501ADDAA101000091AA212001031AJ100053100050099KA1120M-00551KA2120N-00801MA1999999091111MD1510011+9999OD139900401999REMSYN09401359 06/// /0401 11067 21086 39111 40050 55001 60012 333 11055 21080 4/005 60005 90710 91104=
0174013590999992023102921004+60533+008200FM-12+077399999V0200601N002019999999N999999999-00811-00961100481ADDAA101000091KA1240M-00801KA2240N-00851MA1999999091051MD1610061+9999OD139900401999REMSYN08201359 26/// /0602 11081 21096 39105 40048 56006 333 11080 21085 60005 90710 91104=
0214013590999992023103000004+60533+008200FM-12+077399999V0200701N002019999999N999999999-00841-00961100421ADDAA101000091AA206000091AJ100053100050099KA1120M-00801KA2120N-00841MA1999999090991MD1710061+9999OD139900301999REMSYN09401359 06/// /0702 11084 21096 39099 40042 57006 60001 333 11080 21084 4/005 60005 90710 91103=
0174013590999992023103003004+60533+008200FM-12+077399999V0200801N001019999999N999999999-00761-00881100311ADDAA101000091KA1240M-00761KA2240N-00791MA1999999090921MD1710071+9999OD139900201999REMSYN08201359 26/// /0801 11076 21088 39092 40031 57007 333 11076 21079 60005 90710 91102=
0231013590999992023103006004+60533+008200FM-12+077399999V0209999C000059999999N999999999-00701-00841100291ADDAA101000131AA212000231AA324001631AJ100053100050099KA1240M-00671KA2240N-00861MA1999999090921MD1410001+9999OD139900101999REMSYN10001359 06/// /0400 11070 21084 39092 40029 54000 69922 333 11067 21086 4/005 69915 70016 90710 91101=
0174013590999992023103009004+60533+008200FM-12+077399999V0200901N001019999999N999999999-00621-00811100331ADDAA101000331KA1240M-00621KA2240N-00681MA1999999090981MD1210061+9999OD139900301999REMSYN08201359 26/// /0901 11062 21081 39098 40033 52006 333 11062 21068 69935 90710 91103=
0214013590999992023103012004+60533+008200FM-12+077399999V0200701N002019999999N999999999-00461-00701100261ADDAA101000131AA206000531AJ100053100050099KA1240M-00451KA2240N-00481MA1999999090971MD1990011+9999OD139900501999REMSYN09401359 06/// /0702 11046 21070 39097 40026 50001 69951 333 11045 21048 4/005 69915 90710 91105=
0174013590999992023103015004+60533+008200FM-12+077399999V0200501N002019999999N999999999-00491-00681100241ADDAA101000091KA1240M-00471KA2240N-00491MA1999999090941MD1710031+9999OD139900501999REMSYN08201359 26/// /0502 11049 21068 39094 40024 57003 333 11047 21049 60005 90710 91105=
0214013590999992023103018004+60533+008200FM-12+077399999V0200601N002019999999N999999999-00531-00751100311ADDAA101000091AA212000531AJ100053100050099KA1120M-00451KA2120N-00701MA1999999091001MD1210051+9999OD139900601999REMSYN09401359 06/// /0602 11053 21075 39100 40031 52005 69952 333 11045 21070 4/005 60005 90710 91106=
0174013590999992023103021004+60533+008200FM-12+077399999V0200501N002019999999N999999999-00551-00771100421ADDAA101000091KA1240M-00531KA2240N-00551MA1999999091091MD1210091+9999OD139900501999REMSYN08201359 26/// /0502 11055 21077 39109 40042 52009 333 11053 21055 60005 90710 91105=
0214013590999992023103100004+60533+008200FM-12+077399999V0200901N001019999999N999999999-00591-00721100501ADDAA101000131AA206000231AJ100073100070099KA1120M-00561KA2120N-00591MA1999999091151MD1110061+9999OD139900201999REMSYN09401359 06/// /0901 11059 21072 39115 40050 51006 69921 333 11056 21059 4/007 69915 90710 91102=
0174013590999992023103103004+60533+008200FM-12+077399999V0200401N002019999999N999999999-00581-00681100451ADDAA101000131KA1240M-00581KA2240N-00591MA1999999091101MD1710041+9999OD139900301999REMSYN08201359 26/// /0402 11058 21068 39110 40045 57004 333 11058 21059 69915 90710 91103=
0231013590999992023103106004+60533+008200FM-12+077399999V0200801N001019999999N999999999-00611-00701100501ADDAA101000091AA212000831AA324001331AJ100083100080099KA1240M-00531KA2240N-00611MA1999999091141MD1990031+9999OD139900201999REMSYN10001359 06/// /0801 11061 21070 39114 40050 50003 69982 333 11053 21061 4/008 60005 70013 90710 91102=
0174013590999992023103109004+60533+008200FM-12+077399999V0200801N001019999999N999999999-00501-00641100551ADDAA101000431KA1240M-00501KA2240N-00561MA1999999091221MD1210081+9999OD139900201999REMSYN08201359 26/// /0801 11050 21064 39122 40055 52008 333 11050 21056 69945 90710 91102=
0214013590999992023103112004+60533+008200FM-12+077399999V0200801N002019999999N999999999-00321-00611100431ADDAA101000131AA206001031AJ100083100080099KA1240M-00311KA2240N-00341MA1999999091171MD1810051+9999OD139900401999REMSYN09401359 06/// /0802 11032 21061 39117 40043 58005 60011 333 11031 21034 4/008 69915 90710 91104=
0174013590999992023103115004+60533+008200FM-12+077399999V0200701N002019999999N999999999-00451-00631100521ADDAA101000091KA1240M-00401KA2240N-00451MA1999999091211MD1210041+9999OD139900501999REMSYN08201359 26/// /0702 11045 21063 39121 40052 52004 333 11040 21045 60005 90710 91105=
0214013590999992023103118004+60533+008200FM-12+077399999V0200601N001019999999N999999999-00511-00641100601ADDAA101000091AA212001031AJ100103100100099KA1120M-00311KA2120N-00611MA1999999091261MD1210061+9999OD139900401999REMSYN09401359 06/// /0601 11051 21064 39126 40060 52006 60012 333 11031 21061 4/010 60005 90710 91104=
0174013590999992023103121004+60533+008200FM-12+077399999V0200401N001019999999N999999999-00581-00701100651ADDAA101000231KA1240M-00561KA2240N-00581MA1999999091281MD1210021+9999OD139900301999REMSYN08201359 26/// /0401 11058 21070 39128 40065 52002 333 11056 21058 69925 90710 91103=
0249013590999992023110100004+60533+008200FM-12+077399999V0200801N001019999999N999999999-00641-00751100671ADDAA101000231AA206001031AJ100133100130099KA1120M-00611KA2120N-00641MA1999999091281MD1290029+9999OD139900201999REMSYN09401359 06/// /0801 11064 21075 39128 40067 54001 60011 333 11061 21064 4/013 69925 90710 91102=EQDQ01.1    3APC3  Q024     3APCTEN
0174013590999992023110103004+60533+008200FM-12+077399999V0201001N001019999999N999999999-00691-00781100601ADDAA101000331KA1240M-00671KA2240N-00691MA1999999091201MD1710081+9999OD139900201999REMSYN08201359 26/// /1001 11069 21078 39120 40060 57008 333 11067 21069 69935 90710 91102=
0231013590999992023110106004+60533+008200FM-12+077399999V0200601N001019999999N999999999-00891-00981100681ADDAA101000131AA212002031AA324003431AJ100143100140099KA1240M-00501KA2240N-00981MA1999999091201MD1410001+9999OD139900201999REMSYN10001359 06/// /0601 11089 21098 39120 40068 54000 60022 333 11050 21098 4/014 69915 70034 90710 91102=
0174013590999992023110109004+60533+008200FM-12+077399999V0202501N002019999999N999999999-00831-01001100671ADDAA101000331KA1240M-00821KA2240N-00851MA1999999091211MD1990011+9999OD139900301999REMSYN08201359 26/// /2502 11083 21100 39121 40067 50001 333 11082 21085 69935 90710 91103=
0214013590999992023110112004+60533+008200FM-12+077399999V0209999C000059999999N999999999-00541-00921100521ADDAA101000091AA206000431AJ100133100130099KA1240M-00521KA2240N-00641MA1999999091181MD1810041+9999OD139900201999REMSYN09401359 06/// /2200 11054 21092 39118 40052 58004 69941 333 11052 21064 4/013 60005 90710 91102=
0174013590999992023110115004+60533+008200FM-12+077399999V0202101N001019999999N999999999-00881-01031100631ADDAA101000091KA1240M-00831KA2240N-00881MA1999999091171MD1810011+9999OD139900301999REMSYN08201359 26/// /2101 11088 21103 39117 40063 58001 333 11083 21088 60005 90710 91103=
0214013590999992023110118004+60533+008200FM-12+077399999V0209999C000059999999N999999999-00841-00941100471ADDAA101000831AA212002031AJ100143100140099KA1120M-00521KA2120N-01001MA1999999091031MD1710141+9999OD139900101999REMSYN09401359 06/// /1000 11084 21094 39103 40047 57014 60022 333 11052 21100 4/014 69985 90710 91101=
0174013590999992023110121004+60533+008200FM-12+077399999V0200501N003019999999N999999999-00741-00881100321ADDAA101000731KA1240M-00731KA2240N-00741MA1999999090931MD1710101+9999OD139900601999REMSYN08201359 26/// /0503 11074 21088 39093 40032 57010 333 11073 21074 69975 90710 91106=
0214013590999992023110200004+60533+008200FM-12+077399999V0200501N003019999999N999999999-00731-00861100231ADDAA101002031AA206006031AJ100183100180099KA1120M-00731KA2120N-00741MA1999999090851MD1710081+9999OD139900701999REMSYN09401359 06/// /0503 11073 21086 39085 40023 57008 60061 333 11073 21074 4/018 60025 90710 91107=
0174013590999992023110203004+60533+008200FM-12+077399999V0200601N003019999999N999999999-00711-00851100091ADDAA101000331KA1240M-00711KA2240N-00721MA1999999090731MD1710121+9999OD139900501999REMSYN08201359 26/// /0603 11071 21085 39073 40009 57012 333 11071 21072 69935 90710 91105=
0231013590999992023110206004+60533+008200FM-12+077399999V0200501N003019999999N999999999-00691-00811099951ADDAA101000631AA212009031AA324010931AJ100203100200099KA1240M-00681KA2240N-00841MA1999999090621MD1610121+9999OD139900501999REMSYN10001359 06/// /0503 11069 21081 39062 49995 56012 60092 333 11068 21084 4/020 69965 70109 90710 91105=
0174013590999992023110209004+60533+008200FM-12+077399999V0200601N002019999999N999999999-00641-00781099961ADDAA101000531KA1240M-00641KA2240N-00661MA1999999090631MD1210021+9999OD139900501999REMSYN08201359 26/// /0602 11064 21078 39063 49996 52002 333 11064 21066 69955 90710 91105=
0318013590999992023110212004+60533+008200FM-12+077399999V0200601N002019999999N003400199-00511-00671099861ADDAA101000231AA206004031AJ100213100210099AY171021AY271021GA1081+002501051GE19AGL   +99999+99999GF108991081999002501999999IA1239KA1240M-00501KA2240N-00551MA1999999090591MD1810041+9999MW1711OD139900501999REMSYN10601359 01334 80602 11051 21067 39059 49986 58004 60041 77177 8802/ 333 11050 21055 47021 69925 90710 91105=
0174013590999992023110215004+60533+008200FM-12+077399999V0200401N003019999999N999999999-00531-00661099781ADDAA101000091KA1240M-00511KA2240N-00531MA1999999090511MD1810081+9999OD139900601999REMSYN08201359 26/// /0403 11053 21066 39051 49978 58008 333 11051 21053 60005 90710 91106=
0318013590999992023110218004+60533+008200FM-12+077399999V0200601N002019999999N005000199-00511-00621099691ADDAA101000431AA212005031AJ100223100220099AY171021AY221021GA1081+004501051GE19AGL   +99999+99999GF108991081999004501999999IA1239KA1120M-00481KA2120N-00691MA1999999090441MD1810071+9999MW1701OD139900501999REMSYN10601359 01450 80602 11051 21062 39044 49969 58007 60052 77072 8802/ 333 11048 21069 47022 69945 90710 91105=
0174013590999992023110221004+60533+008200FM-12+077399999V0200501N004019999999N999999999-00411-00511099561ADDAA101000431KA1240M-00411KA2240N-00441MA1999999090351MD1510091+9999OD139900801999REMSYN08201359 26/// /0504 11041 21051 39035 49956 55009 333 11041 21044 69945 90710 91108=
0214013590999992023110300004+60533+008200FM-12+077399999V0200501N005019999999N999999999-00341-00461099431ADDAA101001031AA206006031AJ100283100280099KA1120M-00341KA2120N-00391MA1999999090251MD1810091+9999OD139900801999REMSYN09401359 06/// /0505 11034 21046 39025 49943 58009 60061 333 11034 21039 4/028 60015 90710 91108=
0174013590999992023110303004+60533+008200FM-12+077399999V0200601N002019999999N999999999-00301-00381099311ADDAA101000431KA1240M-00301KA2240N-00311MA1999999090161MD1810091+9999OD139900501999REMSYN08201359 26/// /0602 11030 21038 39016 49931 58009 333 11030 21031 69945 90710 91105=
0335013590999992023110306004+60533+008200FM-12+077399999V0200501N004019999999N006000199-00201-00271099151ADDAA101000431AA212009031AA324013931AJ100283100280099AY171021AY221021GA1081+004501051GE19AGL   +99999+99999GF108991081999004501999999IA1239KA1240M-00201KA2240N-00501MA1999999090051MD1810111+9999MW1711OD139900701999REMSYN11201359 01456 80504 11020 21027 39005 49915 58011 60092 77172 8802/ 333 11020 21050 47028 69945 70139 90710 91107=
0174013590999992023110309004+60533+008200FM-12+077399999V0200501N004019999999N999999999-00131-00201098971ADDAA101000331KA1240M-00131KA2240N-00151MA1999999089911MD1810151+9999OD139901001999REMSYN08201359 26/// /0504 11013 21020 38991 49897 58015 333 11013 21015 69935 90710 91110=
0318013590999992023110312004+60533+008200FM-12+077399999V0200601N003019999999N000900199-00111-00161098851ADDAA101002031AA206004031AJ100323100320099AY171021AY271021GA1081+002501051GE19AGL   +99999+99999GF108991081999002501999999IA1239KA1240M-00091KA2240N-00111MA1999999089801MD1710101+9999MW1711OD139900901999REMSYN10601359 01309 80603 11011 21016 38980 49885 57010 60041 77177 8802/ 333 11009 21011 47032 60025 90710 91109=
0174013590999992023110315004+60533+008200FM-12+077399999V0200501N003019999999N999999999-00091-00161098811ADDAA101000331KA1240M-00081KA2240N-00091MA1999999089781MD1510021+9999OD139900601999REMSYN08201359 26/// /0503 11009 21016 38978 49881 55002 333 11008 21009 69935 90710 91106=
0318013590999992023110318004+60533+008200FM-12+077399999V0200601N003019999999N006000199-00151-00211098801ADDAA101000131AA212007031AJ100353100350099AY171021AY271021GA1081+004501051GE19AGL   +99999+99999GF108991081999004501999999IA1239KA1120M-00071KA2120N-00201MA1999999089741MD1510031+9999MW1711OD139900801999REMSYN10601359 01456 80603 11015 21021 38974 49880 55003 60072 77177 8802/ 333 11007 21020 47035 69915 90710 91108=
0209013590999992023110321004+60533+008200FM-12+077399999V0200501N004019999999N999999999-00161-00221098791ADDAA101000231KA1240M-00151KA2240N-00161MA1999999089741MD1790019+9999OD139900701999REMSYN08201359 26/// /0504 11016 21022 38974 49879 54001 333 11015 21016 69925 90710 91107=EQDQ01.1    3APC3  Q024     3APCTEN
0220013590999992023110400004+60533+008200FM-12+077399999V0200501N003019999999N999999999-00141-00191098731ADDAA101000231AA206000731AJ100343100340099KA1120M-00141KA2120N-00151MA1999999089681MD1610051+9999OD139900601999REMSYN10001359 06/// /0503 11014 21019 38968 49873 56005 69971 90000 333 11014 21015 4/034 69925 90710 91106=
0180013590999992023110403004+60533+008200FM-12+077399999V0200501N004019999999N999999999-00101-00171098591ADDAA101000131KA1240M-00101KA2240N-00111MA1999999089571MD1710131+9999OD139900801999REMSYN08801359 26/// /0504 11010 21017 38957 49859 57013 90300 333 11010 21011 69915 90710 91108=
0335013590999992023110406004+60533+008200FM-12+077399999V0200601N003019999999N006000199-00041-00101098511ADDAA101000331AA212002031AA324009231AJ100343100340099AY171021AY271021GA1081+004501051GE19AGL   +99999+99999GF108991081999004501999999IA1239KA1240M-00041KA2240N-00161MA1999999089521MD1610051+9999MW1711OD139900701999REMSYN11201359 01456 80603 11004 21010 38952 49851 56005 60022 77177 8802/ 333 11004 21016 47034 69935 70092 90710 91107=
0174013590999992023110409004+60533+008200FM-12+077399999V0200501N004019999999N999999999-00011-00081098421ADDAA101000331KA1240M-00011KA2240N-00051MA1999999089441MD1710071+9999OD139900701999REMSYN08201359 26/// /0504 11001 21008 38944 49842 57007 333 11001 21005 69935 90710 91107=
0318013590999992023110412004+60533+008200FM-12+077399999V0200401N004019999999N007000199+00001-00061098331ADDAA101000731AA206002031AJ100343100340099AY171021AY271021GA1081+004501051GE19AGL   +99999+99999GF108991081999004501999999IA1239KA1240M+00001KA2240N-00011MA1999999089371MD1810071+9999MW1711OD139900701999REMSYN10601359 01457 80404 10000 21006 38937 49833 58007 60021 77177 8802/ 333 10000 21001 47034 69975 90710 91107=
0174013590999992023110415004+60533+008200FM-12+077399999V0200501N002019999999N999999999-00011-00051098361ADDAA101000131KA1240M+00001KA2240N-00011MA1999999089391MD1210021+9999OD139900601999REMSYN08201359 26/// /0502 11001 21005 38939 49836 52002 333 10000 21001 69915 90710 91106=
0318013590999992023110418004+60533+008200FM-12+077399999V0200501N003019999999N012000199-00021-00081098341ADDAA101000091AA212003031AJ100333100330099AY171021AY221021GA1081+002501071GE19AGL   +99999+99999GF108991081999002501999999IA1239KA1120M+00011KA2120N-00051MA1999999089371MD1710021+9999MW1021OD139900501999REMSYN10601359 01362 80503 11002 21008 38937 49834 57002 60032 70272 886// 333 10001 21005 47033 60005 90710 91105=
0174013590999992023110421004+60533+008200FM-12+077399999V0200601N001019999999N999999999-00041-00081098381ADDAA101000231KA1240M-00031KA2240N-00041MA1999999089401MD1310021+9999OD139900301999REMSYN08201359 26/// /0601 11004 21008 38940 49838 53002 333 11003 21004 69925 90710 91103=
0220013590999992023110500004+60533+008200FM-12+077399999V0209999C000059999999N999999999-00061-00091098361ADDAA101000091AA206000431AJ100323100320099KA1120M-00061KA2120N-00061MA1999999089381MD1710021+9999OD139900101999REMSYN10001359 06/// /3600 11006 21009 38938 49836 57002 69941 90000 333 11006 21006 4/032 60005 90710 91101=
0174013590999992023110503004+60533+008200FM-12+077399999V0201301N001019999999N999999999-00071-00091098351ADDAA101000091KA1240M-00071KA2240N-00071MA1999999089361MD1710011+9999OD139900201999REMSYN08201359 26/// /1301 11007 21009 38936 49835 57001 333 11007 21007 60005 90710 91102=
0370013590999992023110506004+60533+008200FM-12+077399999V0200701N00101000601WN000300199-00051-00071098341ADDAA101000091AA212000631AA324003831AJ100313100310099AY141021AY221021GA1091+999999999GE19AGL   +99999+99999GF109991091999999999999999IA1239KA1240M-00021KA2240N-00081MA1999999089361MD1790019+9999MW1451OD139900401999REMSYN11201359 01/03 90701 11005 21007 38936 49834 54001 69962 74542 89/// 333 11002 21008 47031 60005 70038 90710 91104=EQDQ01.1    3APC3  Q024     3APCTEN
0174013590999992023110509004+60533+008200FM-12+077399999V0200601N002019999999N999999999-00041-00091098401ADDAA101000091KA1240M-00041KA2240N-00051MA1999999089421MD1310061+9999OD139900501999REMSYN08201359 26/// /0602 11004 21009 38942 49840 53006 333 11004 21005 60005 90710 91105=
0318013590999992023110512004+60533+008200FM-12+077399999V0200601N002019999999N013000199+00081-00041098411ADDAA101000091AA206000091AJ100303100300099AY171021AY241021GA1081+002501071GE19AGL   +99999+99999GF108991081999002501999999IA1239KA1240M+00091KA2240N+00041MA1999999089461MD1210051+9999MW1021OD139900401999REMSYN10601359 01363 80602 10008 21004 38946 49841 52005 60001 70274 886// 333 10009 20004 47030 60005 90710 91104=
0174013590999992023110515004+60533+008200FM-12+077399999V0200601N001019999999N999999999+00041-00071098471ADDAA101000091KA1240M+00061KA2240N+00041MA1999999089501MD1210041+9999OD139900401999REMSYN08201359 26/// /0601 10004 21007 38950 49847 52004 333 10006 20004 60005 90710 91104=
0318013590999992023110518004+60533+008200FM-12+077399999V0200801N001019999999N016000199-00021-00071098621ADDAA101000091AA212000231AJ100283100280099AY121021AY221021GA1081+002501071GE19AGL   +99999+99999GF108991081999002501999999IA1279KA1120M+00101KA2120N-00061MA1999999089631MD1210131+9999MW1021OD139900201999REMSYN10601359 01366 80801 11002 21007 38963 49862 52013 69922 70222 886// 333 10010 21006 43028 60005 90710 91102=
0174013590999992023110521004+60533+008200FM-12+077399999V0209999C000059999999N999999999-00041-00071098721ADDAA101000091KA1240M-00031KA2240N-00041MA1999999089711MD1210081+9999OD139900101999REMSYN08201359 26/// /2000 11004 21007 38971 49872 52008 333 11003 21004 60005 90710 91101=
0214013590999992023110600004+60533+008200FM-12+077399999V0200801N001019999999N999999999-00021-00051098811ADDAA101000091AA206000131AJ100283100280099KA1120M-00021KA2120N-00031MA1999999089791MD1210081+9999OD139900201999REMSYN09401359 06/// /0801 11002 21005 38979 49881 52008 69911 333 11002 21003 4/028 60005 90710 91102=
0180013590999992023110603004+60533+008200FM-12+077399999V0209999C000059999999N999999999-00021-00051098901ADDAA101000091KA1240M-00021KA2240N-00031MA1999999089881MD1210091+9999OD139900101999REMSYN08801359 26/// /1300 11002 21005 38988 49890 52009 90300 333 11002 21003 60005 90710 91101=
0341013590999992023110606004+60533+008200FM-12+077399999V0200301N001019999999N007000199-00031-00051098991ADDAA101000091AA212000131AA324000331AJ100283100280099AY121021AY221021GA1081+002501071GE19AGL   +99999+99999GF108991081999002501999999IA1279KA1240M-00021KA2240N-00041MA1999999089961MD1210071+9999MW1401OD139900101999REMSYN11801359 01357 80301 11003 21005 38996 49899 52007 69912 74022 886// 90600 333 11002 21004 43028 60005 70003 90710 91101=
0174013590999992023110609004+60533+008200FM-12+077399999V0209999C000059999999N999999999+00011-00021099111ADDAA101000091KA1240M+00011KA2240N-00011MA1999999090081MD1210121+9999OD139900101999REMSYN08201359 26/// /3300 10001 21002 39008 49911 52012 333 10001 21001 60005 90710 91101=
0318013590999992023110612004+60533+008200FM-12+077399999V0202301N002019999999N018000199+00071-00141099241ADDAA101000091AA206000091AJ100273100270099AY121021AY221021GA1071+002501071GE19AGL   +99999+99999GF107991071999002501999999IA1279KA1240M+00121KA2240N+00071MA1999999090221MD1210141+9999MW1021OD139900301999REMSYN10601359 01368 72302 10007 21014 39022 49924 52014 60001 70222 87600 333 10012 20007 43027 60005 90710 91103=
0174013590999992023110615004+60533+008200FM-12+077399999V0202601N002019999999N999999999+00011-00221099351ADDAA101000091KA1240M+00021KA2240N+00011MA1999999090291MD1210081+9999OD139900401999REMSYN08201359 26/// /2602 10001 21022 39029 49935 52008 333 10002 20001 60005 90710 91104=
0174013590999992023110621004+60533+008200FM-12+077399999V0202901N002019999999N999999999-00261-00531099691ADDAA101000091KA1240M-00251KA2240N-00291MA1999999090521MD1210111+9999OD139900601999REMSYN08201359 26/// /2902 11026 21053 39052 49969 52011 333 11025 21029 60005 90710 91106=
0214013590999992023110700004+60533+008200FM-12+077399999V0202601N002019999999N999999999-00251-00541099791ADDAA101000091AA206000091AJ100263100260099KA1120M-00241KA2120N-00261MA1999999090621MD1210101+9999OD139900501999REMSYN09401359 06/// /2602 11025 21054 39062 49979 52010 60001 333 11024 21026 4/026 60005 90710 91105=
0174013590999992023110703004+60533+008200FM-12+077399999V0202701N002019999999N999999999-00221-00511099851ADDAA101000091KA1240M-00221KA2240N-00241MA1999999090681MD1210061+9999OD139900401999REMSYN08201359 26/// /2702 11022 21051 39068 49985 52006 333 11022 21024 60005 90710 91104=
0335013590999992023110706004+60533+008200FM-12+077399999V0202301N001019999999N025000199-00231-00431099931ADDAA101000091AA212000091AA324000091AJ100263100260099AY121021AY221021GA1081+004501071GE19AGL   +99999+99999GF108991081999004501999999IA1279KA1240M-00191KA2240N-00291MA1999999090741MD1210061+9999MW1021OD139900301999REMSYN11201359 01475 82301 11023 21043 39074 49993 52006 60002 70222 886// 333 11019 21029 43026 60005 70000 90710 91103=
0174013590999992023110709004+60533+008200FM-12+077399999V0202901N001019999999N999999999-00121-00381100001ADDAA101000091KA1240M-00121KA2240N-00241MA1999999090851MD1210101+9999OD139900301999REMSYN08201359 26/// /2901 11012 21038 39085 40000 52010 333 11012 21024 60005 90710 91103=
0318013590999992023110712004+60533+008200FM-12+077399999V0202301N002019999999N035000199+00081-00461100021ADDAA101000091AA206000091AJ100253100250099AY121021AY221021GA1071+008001061GE19AGL   +99999+99999GF107991071999008001999999IA1279KA1240M+00121KA2240N+00031MA1999999090931MD1210091+9999MW1021OD139900301999REMSYN10601359 01581 72302 10008 21046 39093 40002 52009 60001 70222 87500 333 10012 20003 43025 60005 90710 91103=
0174013590999992023110715004+60533+008200FM-12+077399999V0202201N001019999999N999999999-00191-00481100181ADDAA101000091KA1240M-00041KA2240N-00191MA1999999090991MD1210061+9999OD139900401999REMSYN08201359 26/// /2201 11019 21048 39099 40018 52006 333 11004 21019 60005 90710 91104=
0334013590999992023110718004+60533+008200FM-12+077399999V0202001N001012200019N050000199-00741-00811100481ADDAA101000091AA212000091AJ100253100250099AY121021AY211021GA1021+012501061GA2999+999999031GE19AGL   +99999+99999GF104991021999012501999999IA1279KA1120M+00121KA2120N-00741MA1999999091071MD1210081+9999MW1021OD139900201999REMSYN10601359 01684 42001 11074 21081 39107 40048 52008 60002 70221 82570 333 10012 21074 43025 60005 90710 91102=
0174013590999992023110721004+60533+008200FM-12+077399999V0201101N001019999999N999999999-00791-00881100521ADDAA101000091KA1240M-00551KA2240N-00801MA1999999091091MD1210021+9999OD139900301999REMSYN08201359 26/// /1101 11079 21088 39109 40052 52002 333 11055 21080 60005 90710 91103=
0214013590999992023110800004+60533+008200FM-12+077399999V0200601N001019999999N999999999-00871-00981100591ADDAA101000091AA206000091AJ100253100250099KA1120M-00731KA2120N-00891MA1999999091131MD1210031+9999OD139900201999REMSYN09401359 06/// /0601 11087 21098 39113 40059 52003 60001 333 11073 21089 4/025 60005 90710 91102=
0174013590999992023110803004+60533+008200FM-12+077399999V0209999C000059999999N999999999-01071-01151100671ADDAA101000091KA1240M-01011KA2240N-01111MA1999999091131MD1410001+9999OD139900101999REMSYN08201359 26/// /0800 11107 21115 39113 40067 54000 333 11101 21111 60005 90710 91101=
0386013590999992023110806004+60533+008200FM-12+077399999V0209999C000052200019N070001199-01211-01371100731ADDAA101000091AA212000091AA324000091AJ100253100250099AY111021AY201021GA1999+999999021GE19AGL   +99999+99999GF101991001999999999999999IA1279KA1240M-00521KA2240N-01251MA1999999091131MD1290069+9999MW1021OD139900101999REMSYN11201359 01989 10500 11121 21137 39113 40073 54001 60002 70210 80008 333 11052 21125 43025 60005 70000 90710 91101=EQDQ01.1    3APC3  Q024     3APCTENQ03    003SCCGA1
0174013590999992023110809004+60533+008200FM-12+077399999V0209999C000059999999N999999999-01031-01111100741ADDAA101000091KA1240M-01031KA2240N-01301MA1999999091211MD1210071+9999OD139900101999REMSYN08201359 26/// /1700 11103 21111 39121 40074 52007 333 11103 21130 60005 90710 91101=
0318013590999992023110812004+60533+008200FM-12+077399999V0202101N001019999999N070001199-00471-00791100511ADDAA101000091AA206000091AJ100243100240099AY101021AY201021GA1001+999999999GE19AGL   +99999+99999GF199999001999999999999999IA1279KA1240M-00241KA2240N-00491MA1999999091191MD1710011+9999MW1021OD139900201999REMSYN10601359 01989 02101 11047 21079 39119 40051 57001 60001 70200 80000 333 11024 21049 43024 60005 90710 91102=
0174013590999992023110815004+60533+008200FM-12+077399999V0209999C000059999999N999999999-00811-01001100631ADDAA101000091KA1240M-00411KA2240N-00811MA1999999091191MD1410001+9999OD139900201999REMSYN08201359 26/// /2700 11081 21100 39119 40063 54000 333 11041 21081 60005 90710 91102=
0334013590999992023110818004+60533+008200FM-12+077399999V0209999C000052200019N060000199-01101-01161100711ADDAA101000091AA212000091AJ100253100250099AY111021AY201021GA1031+999999031GA2999+999999021GE19AGL   +99999+99999GF104991031999999999999999IA1279KA1120M-00151KA2120N-01301MA1999999091161MD1510031+9999MW1031OD139900101999REMSYN10601359 01986 40100 11110 21116 39116 40071 55003 60002 70310 83055 333 11015 21130 43025 60005 90710 91101=
0174013590999992023110821004+60533+008200FM-12+077399999V0202301N001019999999N999999999-00831-00941100581ADDAA101000091KA1240M-00831KA2240N-00901MA1999999091141MD1710021+9999OD139900101999REMSYN08201359 26/// /2301 11083 21094 39114 40058 57002 333 11083 21090 60005 90710 91101=
0214013590999992023110900004+60533+008200FM-12+077399999V0202501N001019999999N999999999-00701-00781100351ADDAA101000231AA206000231AJ100253100250099KA1120M-00701KA2120N-00721MA1999999090971MD1610161+9999OD139900101999REMSYN09401359 06/// /2501 11070 21078 39097 40035 56016 69921 333 11070 21072 4/025 69925 90710 91101=
0180013590999992023110903004+60533+008200FM-12+077399999V0201101N001019999999N999999999-00581-00641100101ADDAA101000931KA1240M-00581KA2240N-00641MA1999999090781MD1710191+9999OD139900201999REMSYN08801359 26/// /1101 11058 21064 39078 40010 57019 90300 333 11058 21064 69995 90710 91102=
0341013590999992023110906004+60533+008200FM-12+077399999V0201001N001019999999N001400199-00551-00621099981ADDAA101001031AA212007032AA324006732AJ100333100330099AY171021AY221021GA1081+004501051GE19AGL   +99999+99999GF108991081999004501999999IA1239KA1240M-00551KA2240N-01131MA1999999090681MD1710101+9999MW1711OD139900201999REMSYN11801359 01414 81001 11055 21062 39068 49998 57010 60072 77172 8802/ 90600 333 11055 21113 47033 60015 70067 90710 91102=
0174013590999992023110909004+60533+008200FM-12+077399999V0209999C000059999999N999999999-00431-00501099951ADDAA101000431KA1240M-00431KA2240N-00511MA1999999090701MD1310011+9999OD139900201999REMSYN08201359 26/// /2800 11043 21050 39070 49995 53001 333 11043 21051 69945 90710 91102=
0318013590999992023110912004+60533+008200FM-12+077399999V0209999C000059999999N016000199-00101-00241099801ADDAA101000091AA206003031AJ100353100350099AY171021AY221021GA1081+004501071GE19AGL   +99999+99999GF108991081999004501999999IA1239KA1240M-00101KA2240N-00261MA1999999090671MD1810021+9999MW1021OD139900101999REMSYN10601359 01466 80600 11010 21024 39067 49980 58002 60031 70272 886// 333 11010 21026 47035 60005 90710 91101=
0174013590999992023110915004+60533+008200FM-12+077399999V0209999C000059999999N999999999-00171-00291099811ADDAA101000091KA1240M-00081KA2240N-00181MA1999999090651MD1710021+9999OD139900101999REMSYN08201359 26/// /0900 11017 21029 39065 49981 57002 333 11008 21018 60005 90710 91101=
0318013590999992023110918004+60533+008200FM-12+077399999V0209999C000059999999N022000199-00401-00471099941ADDAA101000091AA212003031AJ100353100350099AY121021AY221021GA1081+004501071GE19AGL   +99999+99999GF108991081999004501999999IA1239KA1120M-00071KA2120N-00551MA1999999090701MD1210051+9999MW1021OD139900101999REMSYN10601359 01472 80500 11040 21047 39070 49994 52005 60032 70222 886// 333 11007 21055 47035 60005 90710 91101=
0174013590999992023110921004+60533+008200FM-12+077399999V0202201N001019999999N999999999-00391-00441099991ADDAA101000091KA1240M-00381KA2240N-00411MA1999999090751MD1210051+9999OD139900201999REMSYN08201359 26/// /2201 11039 21044 39075 49999 52005 333 11038 21041 60005 90710 91102=
0214013590999992023111000004+60533+008200FM-12+077399999V0200301N001019999999N999999999-00321-00451099941ADDAA101000091AA206000091AJ100343100340099KA1120M-00271KA2120N-00331MA1999999090731MD1710021+9999OD139900501999REMSYN09401359 06/// /0301 11032 21045 39073 49994 57002 60001 333 11027 21033 4/034 60005 90710 91105=
0335013590999992023111006004+60533+008200FM-12+077399999V0209999C000059999999N025000199-00411-00471099901ADDAA101000091AA212000091AA324002931AJ100333100330099AY121021AY221021GA1081+004501071GE19AGL   +99999+99999GF108991081999004501999999IA1239KA1240M-00271KA2240N-00451MA1999999090661MD1710031+9999MW1021OD139900201999REMSYN11201359 01475 80200 11041 21047 39066 49990 57003 60002 70222 886// 333 11027 21045 47033 60005 70029 90710 91102=
0174013590999992023111009004+60533+008200FM-12+077399999V0209999C000059999999N999999999-00351-00441099951ADDAA101000231KA1240M-00341KA2240N-00401MA1999999090731MD1110071+9999OD139900101999REMSYN08201359 26/// /2200 11035 21044 39073 49995 51007 333 11034 21040 69925 90710 91101=
0324013590999992023111012004+60533+008200FM-12+077399999V0202101N001019999999N026000199-00171-00331099841ADDAA101000091AA206000631AJ100333100330099AY121021AY221021GA1081+004501071GE19AGL   +99999+99999GF108991081999004501999999IA1239KA1240M-00151KA2240N-00231MA1999999090691MD1810041+9999MW1021OD139900101999REMSYN11201359 01476 82101 11017 21033 39069 49984 58004 69961 70222 886// 91200 333 11015 21023 47033 60005 90710 91101=
0174013590999992023111015004+60533+008200FM-12+077399999V0200701N001019999999N999999999-00101-00221099801ADDAA101000091KA1240M-00071KA2240N-00111MA1999999090671MD1710011+9999OD139900201999REMSYN08201359 26/// /0701 11010 21022 39067 49980 57001 333 11007 21011 60005 90710 91102=
0318013590999992023111018004+60533+008200FM-12+077399999V0203601N001019999999N020000199-00171-00211099901ADDAA101000091AA212000631AJ100323100320099AY121021AY221021GA1081+004501071GE19AGL   +99999+99999GF108991081999004501999999IA1239KA1120M-00051KA2120N-00411MA1999999090741MD1210061+9999MW1021OD139900101999REMSYN10601359 01470 83601 11017 21021 39074 49990 52006 69962 70222 886// 333 11005 21041 47032 60005 90710 91101=
0174013590999992023111021004+60533+008200FM-12+077399999V0209999C000059999999N999999999-00281-00331100031ADDAA101000091KA1240M-00251KA2240N-00281MA1999999090821MD1210081+9999OD139900101999REMSYN08201359 26/// /0800 11028 21033 39082 40003 52008 333 11025 21028 60005 90710 91101=
0214013590999992023111100004+60533+008200FM-12+077399999V0200801N001019999999N999999999-00381-00421100151ADDAA101000231AA206000431AJ100313100310099KA1120M-00361KA2120N-00431MA1999999090891MD1210081+9999OD139900101999REMSYN09401359 06/// /0801 11038 21042 39089 40015 52008 69941 333 11036 21043 4/031 69925 90710 91101=
0174013590999992023111103004+60533+008200FM-12+077399999V0209999C000059999999N999999999-00361-00411100221ADDAA101000231KA1240M-00331KA2240N-00361MA1999999090971MD1210081+9999OD139900101999REMSYN08201359 26/// /0500 11036 21041 39097 40022 52008 333 11033 21036 69925 90710 91101=
0335013590999992023111106004+60533+008200FM-12+077399999V0200301N001019999999N015000199-00361-00401100351ADDAA101000091AA212000731AA324001331AJ100313100310099AY171021AY221021GA1081+004501071GE19AGL   +99999+99999GF108991081999004501999999IA1239KA1240M-00171KA2240N-00431MA1999999091081MD1210111+9999MW1021OD139900101999REMSYN11201359 01465 80301 11036 21040 39108 40035 52011 69972 70272 886// 333 11017 21043 47031 60005 70013 90710 91101=
0174013590999992023111109004+60533+008200FM-12+077399999V0200401N001019999999N999999999-00261-00331100461ADDAA101000091KA1240M-00261KA2240N-00341MA1999999091221MD1210141+9999OD139900101999REMSYN08201359 26/// /0401 11026 21033 39122 40046 52014 333 11026 21034 60005 90710 91101=
0318013590999992023111112004+60533+008200FM-12+077399999V0200701N001019999999N025000199-00141-00321100531ADDAA101000091AA206000091AJ100313100310099AY121021AY221021GA1081+002501061GE19AGL   +99999+99999GF108991081999002501999999IA1239KA1240M-00111KA2240N-00141MA1999999091321MD1210101+9999MW1021OD139900201999REMSYN10601359 01375 80701 11014 21032 39132 40053 52010 60001 70222 885// 333 11011 21014 47031 60005 90710 91102=
0174013590999992023111115004+60533+008200FM-12+077399999V0200501N001019999999N999999999-00191-00331100641ADDAA101000091KA1240M-00161KA2240N-00191MA1999999091411MD1210091+9999OD139900301999REMSYN08201359 26/// /0501 11019 21033 39141 40064 52009 333 11016 21019 60005 90710 91103=
0318013590999992023111118004+60533+008200FM-12+077399999V0201101N001019999999N014000199-00251-00331100811ADDAA101000131AA212000131AJ100303100300099AY121021AY221021GA1081+002501071GE19AGL   +99999+99999GF108991081999002501999999IA1239KA1120M-00091KA2120N-00391MA1999999091541MD1210141+9999MW1021OD139900401999REMSYN10601359 01364 81101 11025 21033 39154 40081 52014 69912 70222 886// 333 11009 21039 47030 69915 90710 91104=
0174013590999992023111121004+60533+008200FM-12+077399999V0209999C000059999999N999999999-00301-00351100951ADDAA101000131KA1240M-00291KA2240N-00301MA1999999091651MD1210111+9999OD139900101999REMSYN08201359 26/// /0800 11030 21035 39165 40095 52011 333 11029 21030 69915 90710 91101=
0249013590999992023111200004+60533+008200FM-12+077399999V0200701N001019999999N999999999-00311-00351100961ADDAA101000091AA206000131AJ100303100300099KA1120M-00311KA2120N-00321MA1999999091661MD1290019+9999OD139900201999REMSYN09401359 06/// /0701 11031 21035 39166 40096 54001 69911 333 11031 21032 4/030 60005 90710 91102=EQDQ01.1    3APC3  Q024     3APCTEN
0174013590999992023111203004+60533+008200FM-12+077399999V0200701N001019999999N999999999-00311-00381101001ADDAA101000091KA1240M-00311KA2240N-00321MA1999999091691MD1210031+9999OD139900301999REMSYN08201359 26/// /0701 11031 21038 39169 40100 52003 333 11031 21032 60005 90710 91103=
0335013590999992023111206004+60533+008200FM-12+077399999V0200901N001019999999N020000199-00321-00431101021ADDAA101000131AA212000231AA324000331AJ100283100280099AY121021AY221021GA1081+002501071GE19AGL   +99999+99999GF108991081999002501999999IA1239KA1240M-00251KA2240N-00321MA1999999091711MD1210021+9999MW1021OD139900301999REMSYN11201359 01370 80901 11032 21043 39171 40102 52002 69922 70222 886// 333 11025 21032 47028 69915 70003 90710 91103=
0174013590999992023111209004+60533+008200FM-12+077399999V0200801N001019999999N999999999-00271-00401101111ADDAA101000131KA1240M-00271KA2240N-00311MA1999999091811MD1210101+9999OD139900301999REMSYN08201359 26/// /0801 11027 21040 39181 40111 52010 333 11027 21031 69915 90710 91103=
0318013590999992023111212004+60533+008200FM-12+077399999V0200701N001019999999N009000199-00221-00401101101ADDAA101000131AA206000931AJ100283100280099AY171021AY221021GA1081+004501051GE19AGL   +99999+99999GF108991081999004501999999IA1239KA1240M-00191KA2240N-00231MA1999999091811MD1990001+9999MW1711OD139900301999REMSYN10601359 01459 80701 11022 21040 39181 40110 50000 69991 77172 8802/ 333 11019 21023 47028 69915 90710 91103=
0174013590999992023111215004+60533+008200FM-12+077399999V0201001N001019999999N999999999-00281-00401101121ADDAA101000091KA1240M-00251KA2240N-00281MA1999999091811MD1510001+9999OD139900201999REMSYN08201359 26/// /1001 11028 21040 39181 40112 55000 333 11025 21028 60005 90710 91102=
0318013590999992023111218004+60533+008200FM-12+077399999V0200401N001019999999N016000199-00331-00411101181ADDAA101000091AA212000931AJ100283100280099AY171021AY221021GA1081+002501071GE19AGL   +99999+99999GF108991081999002501999999IA1239KA1120M-00151KA2120N-00341MA1999999091851MD1210041+9999MW1021OD139900201999REMSYN10601359 01366 80401 11033 21041 39185 40118 52004 69992 70272 886// 333 11015 21034 47028 60005 90710 91102=
0174013590999992023111221004+60533+008200FM-12+077399999V0202201N001019999999N999999999-00381-00441101201ADDAA101000091KA1240M-00351KA2240N-00381MA1999999091851MD1410001+9999OD139900101999REMSYN08201359 26/// /2201 11038 21044 39185 40120 54000 333 11035 21038 60005 90710 91101=
0214013590999992023111300004+60533+008200FM-12+077399999V0209999C000059999999N999999999-00391-00481101161ADDAA101000091AA206000231AJ100283100280099KA1120M-00371KA2120N-00391MA1999999091811MD1710031+9999OD139900101999REMSYN09401359 06/// /2000 11039 21048 39181 40116 57003 69921 333 11037 21039 4/028 60005 90710 91101=
0174013590999992023111303004+60533+008200FM-12+077399999V0200701N001019999999N999999999-00461-00591101141ADDAA101000091KA1240M-00411KA2240N-00461MA1999999091771MD1710051+9999OD139900201999REMSYN08201359 26/// /0701 11046 21059 39177 40114 57005 333 11041 21046 60005 90710 91102=
0335013590999992023111306004+60533+008200FM-12+077399999V0203201N001012200019N060000199-00621-00711101121ADDAA101000091AA212000231AA324001131AJ100283100280099AY121021AY201021GA1031+008001071GE19AGL   +99999+99999GF103991031999008001999999IA1239KA1240M-00321KA2240N-00621MA1999999091691MD1710081+9999MW1021OD139900101999REMSYN11201359 01586 33201 11062 21071 39169 40112 57008 69922 70220 83600 333 11032 21062 47028 60005 70011 90710 91101=
0174013590999992023111309004+60533+008200FM-12+077399999V0203401N001019999999N999999999-00611-00691101081ADDAA101000131KA1240M-00581KA2240N-00631MA1999999091671MD1710021+9999OD139900301999REMSYN08201359 26/// /3401 11061 21069 39167 40108 57002 333 11058 21063 69915 90710 91103=
0334013590999992023111312004+60533+008200FM-12+077399999V0209999C000059999999N028000199-00601-00751100971ADDAA101000091AA206000731AJ100283100280099AY121021AY221021GA1071+004501061GA2999+999999021GE19AGL   +99999+99999GF108991071999004501999999IA1239KA1240M-00521KA2240N-00621MA1999999091571MD1710101+9999MW1021OD139900101999REMSYN10601359 01478 81600 11060 21075 39157 40097 57010 69971 70222 87507 333 11052 21062 47028 60005 90710 91101=
0174013590999992023111315004+60533+008200FM-12+077399999V0201101N001019999999N999999999-00621-00701100801ADDAA101000091KA1240M-00551KA2240N-00621MA1999999091401MD1710161+9999OD139900201999REMSYN08201359 26/// /1101 11062 21070 39140 40080 57016 333 11055 21062 60005 90710 91102=
0318013590999992023111318004+60533+008200FM-12+077399999V0202401N001019999999N005000199-00721-00811100731ADDAA101000091AA212000731AJ100283100280099AY121021AY221021GA1071+002501071GE19AGL   +99999+99999GF107991071999002501999999IA1239KA1120M-00521KA2120N-00721MA1999999091311MD1610101+9999MW1401OD139900201999REMSYN10601359 01350 72401 11072 21081 39131 40073 56010 69972 74022 87600 333 11052 21072 47028 60005 90710 91102=
0174013590999992023111321004+60533+008200FM-12+077399999V0200601N003019999999N999999999-00721-00791100651ADDAA101000091KA1240M-00691KA2240N-00721MA1999999091241MD1810071+9999OD139900501999REMSYN08201359 26/// /0603 11072 21079 39124 40065 58007 333 11069 21072 60005 90710 91105=
0214013590999992023111400004+60533+008200FM-12+077399999V0200801N001019999999N999999999-00701-00781100591ADDAA101000091AA206000131AJ100283100280099KA1120M-00701KA2120N-00711MA1999999091181MD1810051+9999OD139900301999REMSYN09401359 06/// /0801 11070 21078 39118 40059 58005 69911 333 11070 21071 4/028 60005 90710 91103=
0174013590999992023111403004+60533+008200FM-12+077399999V0201001N001019999999N999999999-00641-00711100551ADDAA101000091KA1240M-00641KA2240N-00671MA1999999091171MD1510011+9999OD139900201999REMSYN08201359 26/// /1001 11064 21071 39117 40055 55001 333 11064 21067 60005 90710 91102=
0335013590999992023111406004+60533+008200FM-12+077399999V0201001N001019999999N007000199-00581-00651100521ADDAA101000091AA212000331AA324001031AJ100283100280099AY171021AY221021GA1081+002501071GE19AGL   +99999+99999GF108991081999002501999999IA1239KA1240M-00581KA2240N-00811MA1999999091171MD1510011+9999MW1781OD139900301999REMSYN11201359 01357 81001 11058 21065 39117 40052 55001 69932 77872 886// 333 11058 21081 47028 60005 70010 90710 91103=
0174013590999992023111409004+60533+008200FM-12+077399999V0209999C000059999999N999999999-00521-00591100621ADDAA101000131KA1240M-00521KA2240N-00561MA1999999091271MD1210101+9999OD139900201999REMSYN08201359 26/// /1100 11052 21059 39127 40062 52010 333 11052 21056 69915 90710 91102=
0318013590999992023111412004+60533+008200FM-12+077399999V0200801N001019999999N006000199-00391-00481100621ADDAA101000091AA206000631AJ100283100280099AY171021AY271021GA1081+002501051GE19AGL   +99999+99999GF108991081999002501999999IA1239KA1240M-00391KA2240N-00431MA1999999091321MD1210041+9999MW1711OD139900201999REMSYN10601359 01356 80801 11039 21048 39132 40062 52004 69961 77177 8802/ 333 11039 21043 47028 60005 90710 91102=
0174013590999992023111415004+60533+008200FM-12+077399999V0200701N001019999999N999999999-00481-00571100721ADDAA101000091KA1240M-00441KA2240N-00481MA1999999091381MD1210071+9999OD139900201999REMSYN08201359 26/// /0701 11048 21057 39138 40072 52007 333 11044 21048 60005 90710 91102=
0318013590999992023111418004+60533+008200FM-12+077399999V0202901N001019999999N010000199-00541-00611100861ADDAA101000091AA212000631AJ100283100280099AY171021AY271021GA1081+004501051GE19AGL   +99999+99999GF108991081999004501999999IA1239KA1120M-00381KA2120N-00591MA1999999091491MD1210101+9999MW1711OD139900101999REMSYN10601359 01460 82901 11054 21061 39149 40086 52010 69962 77177 8802/ 333 11038 21059 47028 60005 90710 91101=
0214013590999992023111500004+60533+008200FM-12+077399999V0209999C000059999999N999999999-00721-00801101071ADDAA101000091AA206000091AJ100283100280099KA1120M-00701KA2120N-00731MA1999999091621MD1210081+9999OD139900101999REMSYN09401359 06/// /3600 11072 21080 39162 40107 52008 60001 333 11070 21073 4/028 60005 90710 91101=
0174013590999992023111503004+60533+008200FM-12+077399999V0201101N001019999999N999999999-00751-00821101151ADDAA101000091KA1240M-00751KA2240N-00781MA1999999091681MD1210061+9999OD139900101999REMSYN08201359 26/// /1101 11075 21082 39168 40115 52006 333 11075 21078 60005 90710 91101=
0354013590999992023111506004+60533+008200FM-12+077399999V0209999C000059999999N008000199-00741-00831101231ADDAA101000091AA212999999AA324000631AJ100283100280099AY171021AY221021GA1081+002501071GE19AGL   +99999+99999GF108991081999002501999999IA1239KA1240M-00531KA2240N-00791MA1999999091751MD1210071+9999MW1781OD139900101999REMSYN11201359 01358 82400 11074 21083 39175 40123 52007 60002 77872 886// 333 11053 21079 47028 60005 70006 90710 91101=EQDQ01  00002PRCP12
0174013590999992023111509004+60533+008200FM-12+077399999V0209999C000059999999N999999999-00581-00651101311ADDAA101000331KA1240M-00581KA2240N-00721MA1999999091881MD1210131+9999OD139900201999REMSYN08201359 26/// /0900 11058 21065 39188 40131 52013 333 11058 21072 69935 90710 91102=
0318013590999992023111512004+60533+008200FM-12+077399999V0200801N001019999999N003000199-00421-00631101351ADDAA101000091AA206000431AJ100283100280099AY171021AY271021GA1081+001501071GE19AGL   +99999+99999GF108991081999001501999999IA1239KA1240M-00361KA2240N-00481MA1999999091971MD1210101+9999MW1701OD139900301999REMSYN10601359 01230 80801 11042 21063 39197 40135 52010 69941 77077 886// 333 11036 21048 47028 60005 90710 91103=
0174013590999992023111515004+60533+008200FM-12+077399999V0203401N002019999999N999999999-00651-00821101551ADDAA101000091KA1240M-00581KA2240N-00651MA1999999092081MD1210101+9999OD139900401999REMSYN08201359 26/// /3402 11065 21082 39208 40155 52010 333 11058 21065 60005 90710 91104=
0318013590999992023111518004+60533+008200FM-12+077399999V0209999C000059999999N002900199-00751-00841101701ADDAA101000091AA212000431AJ100283100280099AY171021AY271021GA1081+002501071GE19AGL   +99999+99999GF108991081999002501999999IA1239KA1120M-00361KA2120N-00781MA1999999092171MD1210091+9999MW1711OD139900201999REMSYN10601359 01329 82100 11075 21084 39217 40170 52009 69942 77177 886// 333 11036 21078 47028 60005 90710 91102=
0174013590999992023111521004+60533+008200FM-12+077399999V0200501N002019999999N999999999-00641-00751101681ADDAA101000091KA1240M-00641KA2240N-00731MA1999999092191MD1210021+9999OD139900401999REMSYN08201359 26/// /0502 11064 21075 39219 40168 52002 333 11064 21073 60005 90710 91104=
0214013590999992023111600004+60533+008200FM-12+077399999V0200501N002019999999N999999999-00691-00821101771ADDAA101000091AA206000091AJ100283100280099KA1120M-00681KA2120N-00691MA1999999092261MD1210071+9999OD139900501999REMSYN09401359 06/// /0502 11069 21082 39226 40177 52007 60001 333 11068 21069 4/028 60005 90710 91105=
0174013590999992023111603004+60533+008200FM-12+077399999V0200701N001019999999N999999999-00731-00841101841ADDAA101000091KA1240M-00711KA2240N-00731MA1999999092311MD1210051+9999OD139900301999REMSYN08201359 26/// /0701 11073 21084 39231 40184 52005 333 11071 21073 60005 90710 91103=
0335013590999992023111606004+60533+008200FM-12+077399999V0200901N001019999999N002800199-00821-00931101901ADDAA101000131AA212000131AA324000531AJ100283100280099AY171021AY221021GA1081+002501071GE19AGL   +99999+99999GF108991081999002501999999IA1239KA1240M-00641KA2240N-00821MA1999999092331MD1210021+9999MW1711OD139900301999REMSYN11201359 01328 80901 11082 21093 39233 40190 52002 69912 77172 886// 333 11064 21082 47028 69915 70005 90710 91103=
0174013590999992023111609004+60533+008200FM-12+077399999V0209999C000059999999N999999999-00781-00901101981ADDAA101000091KA1240M-00781KA2240N-00821MA1999999092421MD1210091+9999OD139900201999REMSYN08201359 26/// /0800 11078 21090 39242 40198 52009 333 11078 21082 60005 90710 91102=
0318013590999992023111612004+60533+008200FM-12+077399999V0200701N001019999999N012000199-00691-00871101981ADDAA101000091AA206000231AJ100283100280099AY171021AY221021GA1081+002501071GE19AGL   +99999+99999GF108991081999002501999999IA1239KA1240M-00671KA2240N-00701MA1999999092451MD1990021+9999MW1021OD139900201999REMSYN10601359 01362 80701 11069 21087 39245 40198 50002 69921 70272 886// 333 11067 21070 47028 60005 90710 91102=
0174013590999992023111615004+60533+008200FM-12+077399999V0200701N001019999999N999999999-00711-00841102011ADDAA101000091KA1240M-00681KA2240N-00711MA1999999092471MD1210021+9999OD139900201999REMSYN08201359 26/// /0701 11071 21084 39247 40201 52002 333 11068 21071 60005 90710 91102=
0353013590999992023111618004+60533+008200FM-12+077399999V0200901N001019999999N014000199-00761-00861102041ADDAA101000091AA212000431AJ100283100280099AY121021AY221021GA1081+002501071GE19AGL   +99999+99999GF108991081999002501999999IA1239KA1120M-00641KA2120N-00831MA1999999092481MD1290039+9999MW1021OD139900201999REMSYN10601359 01364 80901 11076 21086 39248 40204 54001 69942 70222 886// 333 11064 21083 47028 60005 90710 91102=EQDQ01.1    3APC3  Q024     3APCTEN
0174013590999992023111621004+60533+008200FM-12+077399999V0202301N001019999999N999999999-00821-00921102111ADDAA101000231KA1240M-00781KA2240N-00821MA1999999092521MD1210041+9999OD139900101999REMSYN08201359 26/// /2301 11082 21092 39252 40211 52004 333 11078 21082 69925 90710 91101=
0214013590999992023111700004+60533+008200FM-12+077399999V0202501N002019999999N999999999-00811-00961102201ADDAA101000091AA206000331AJ100283100280099KA1120M-00781KA2120N-00811MA1999999092611MD1210091+9999OD139900301999REMSYN09401359 06/// /2502 11081 21096 39261 40220 52009 69931 333 11078 21081 4/028 60005 90710 91103=
0174013590999992023111703004+60533+008200FM-12+077399999V0202501N001019999999N999999999-01281-01471102441ADDAA101000091KA1240M-01051KA2240N-01281MA1999999092661MD1210051+9999OD139900401999REMSYN08201359 26/// /2501 11128 21147 39266 40244 52005 333 11105 21128 60005 90710 91104=
0335013590999992023111706004+60533+008200FM-12+077399999V0209999C000059999999N070001199-01751-02001102651ADDAA101000091AA212000431AA324000831AJ100283100280099AY121021AY201021GA1001+999999999GE19AGL   +99999+99999GF199999001999999999999999IA1239KA1240M-00761KA2240N-01751MA1999999092671MD1310021+9999MW1011OD139900201999REMSYN11201359 01989 02600 11175 21200 39267 40265 53002 69942 70120 80000 333 11076 21175 47028 60005 70008 90710 91102=
0174013590999992023111709004+60533+008200FM-12+077399999V0209999C000059999999N999999999-01851-02071102771ADDAA101000091KA1240M-01761KA2240N-01971MA1999999092751MD1210071+9999OD139900101999REMSYN08201359 26/// /1200 11185 21207 39275 40277 52007 333 11176 21197 60005 90710 91101=
0337013590999992023111712004+60533+008200FM-12+077399999V0201101N001012200019N070001199-00841-01161102421ADDAA101000091AA206000091AJ100283100280099AY101021AY201021GA1999+999999001GE19AGL   +99999+99999GF101991001999999999999999IA1239KA1240M-00691KA2240N-01181MA1999999092801MD1210051+9999MW1021OD139900201999REMSYN10601359 01989 11101 11084 21116 39280 40242 52005 60001 70200 80001 333 11069 21118 47028 60005 90710 91102=EQDQ01    003SCCGA1
0174013590999992023111715004+60533+008200FM-12+077399999V0209999C000059999999N999999999-01651-01811102841ADDAA101000091KA1240M-01131KA2240N-01661MA1999999092891MD1210091+9999OD139900201999REMSYN08201359 26/// /1800 11165 21181 39289 40284 52009 333 11113 21166 60005 90710 91102=
0318013590999992023111718004+60533+008200FM-12+077399999V0202701N001019999999N070001199-01801-01981102991ADDAA101000091AA212000091AJ100283100280099AY101021AY201021GA1001+999999999GE19AGL   +99999+99999GF199999001999999999999999IA1239KA1120M-00661KA2120N-01971MA1999999092961MD1210071+9999MW1021OD139900201999REMSYN10601359 01989 02701 11180 21198 39296 40299 52007 60002 70200 80000 333 11066 21197 47028 60005 90710 91102=
0174013590999992023111721004+60533+008200FM-12+077399999V0202201N001019999999N999999999-01991-02211103131ADDAA101000091KA1240M-01751KA2240N-01991MA1999999093021MD1310061+9999OD139900201999REMSYN08201359 26/// /2201 11199 21221 39302 40313 53006 333 11175 21199 60005 90710 91102=
0214013590999992023111800004+60533+008200FM-12+077399999V0209999C000059999999N999999999-01771-01911103091ADDAA101000091AA206000091AJ100283100280099KA1120M-01691KA2120N-01981MA1999999093071MD1210051+9999OD139900101999REMSYN09401359 06/// /0500 11177 21191 39307 40309 52005 60001 333 11169 21198 4/028 60005 90710 91101=
0174013590999992023111803004+60533+008200FM-12+077399999V0209999C000059999999N999999999-01931-02131103201ADDAA101000091KA1240M-01671KA2240N-01931MA1999999093101MD1990031+9999OD139900101999REMSYN08201359 26/// /1900 11193 21213 39310 40320 50003 333 11167 21193 60005 90710 91101=
0335013590999992023111806004+60533+008200FM-12+077399999V0200401N001019999999N070001199-01541-01701102961ADDAA101000091AA212000091AA324000091AJ100273100270099AY101021AY201021GA1001+999999999GE19AGL   +99999+99999GF199999001999999999999999IA1239KA1240M-01531KA2240N-02121MA1999999093031MD1710071+9999MW1021OD139900201999REMSYN11201359 01989 00401 11154 21170 39303 40296 57007 60002 70200 80000 333 11153 21212 47027 60005 70000 90710 91102=
0174013590999992023111809004+60533+008200FM-12+077399999V0209999C000059999999N999999999-01821-02011103091ADDAA101000091KA1240M-01701KA2240N-01991MA1999999093051MD1210011+9999OD139900201999REMSYN08201359 26/// /2000 11182 21201 39305 40309 52001 333 11170 21199 60005 90710 91102=
0334013590999992023111812004+60533+008200FM-12+077399999V0209999C000059999999N045000199-01241-01421102761ADDAA101000091AA206000091AJ100273100270099AY121021AY201021GA1051+999999031GA2999+999999021GE19AGL   +99999+99999GF106991051999999999999999IA1239KA1240M-01101KA2240N-01421MA1999999092961MD1710091+9999MW1031OD139900201999REMSYN10601359 01983 63400 11124 21142 39296 40276 57009 60001 70320 85056 333 11110 21142 47027 60005 90710 91102=
0174013590999992023111815004+60533+008200FM-12+077399999V0200401N001019999999N999999999-01511-01641102671ADDAA101000091KA1240M-01371KA2240N-01591MA1999999092791MD1710171+9999OD139900201999REMSYN08201359 26/// /0401 11151 21164 39279 40267 57017 333 11137 21159 60005 90710 91102=
0334013590999992023111818004+60533+008200FM-12+077399999V0202101N001019999999N035000199-01821-02021102671ADDAA101000091AA212000091AJ100273100270099AY121021AY221021GA1051+999999031GA2999+999999021GE19AGL   +99999+99999GF106991051999999999999999IA1239KA1120M-01101KA2120N-02031MA1999999092671MD1610111+9999MW1021OD139900201999REMSYN10601359 01981 62101 11182 21202 39267 40267 56011 60002 70222 85056 333 11110 21203 47027 60005 90710 91102=
0174013590999992023111821004+60533+008200FM-12+077399999V0201901N001019999999N999999999-01281-01431102241ADDAA101000091KA1240M-01251KA2240N-01461MA1999999092481MD1710191+9999OD139900201999REMSYN08201359 26/// /1901 11128 21143 39248 40224 57019 333 11125 21146 60005 90710 91102=
0214013590999992023111900004+60533+008200FM-12+077399999V0209999C000059999999N999999999-01151-01281101931ADDAA101000091AA206000091AJ100273100270099KA1120M-01151KA2120N-01181MA1999999092241MD1810241+9999OD139900101999REMSYN09401359 06/// /0500 11115 21128 39224 40193 58024 60001 333 11115 21118 4/027 60005 90710 91101=
0174013590999992023111903004+60533+008200FM-12+077399999V0201801N001019999999N999999999-01101-01221101641ADDAA101000091KA1240M-01091KA2240N-01111MA1999999092001MD1710241+9999OD139900201999REMSYN08201359 26/// /1801 11110 21122 39200 40164 57024 333 11109 21111 60005 90710 91102=
0370013590999992023111906004+60533+008200FM-12+077399999V0209999C000059999999N008000199-01061-01181101411ADDAA101000091AA212999999AA324999999AJ100273100270099AY171021AY221021GA1081+004501071GE19AGL   +99999+99999GF108991081999004501999999IA1239KA1240M-01051KA2240N-01841MA1999999091811MD1610191+9999MW1781OD139900101999REMSYN11201359 01458 80800 11106 21118 39181 40141 56019 60002 77872 886// 333 11105 21184 47027 60005 70000 90710 91101=EQDQ01  00002PRCP12Q02  00002PRCP24
0174013590999992023111909004+60533+008200FM-12+077399999V0209999C000059999999N999999999-01021-01131101381ADDAA101000091KA1240M-01021KA2240N-01051MA1999999091791MD1510011+9999OD139900101999REMSYN08201359 26/// /1100 11102 21113 39179 40138 55001 333 11102 21105 60005 90710 91101=
0318013590999992023111912004+60533+008200FM-12+077399999V0202301N001019999999N003200199-00941-01061101281ADDAA101000131AA206000331AJ100273100270099AY171021AY221021GA1081+004501051GE19AGL   +99999+99999GF108991081999004501999999IA1239KA1240M-00941KA2240N-00951MA1999999091731MD1810071+9999MW1711OD139900101999REMSYN10601359 01432 82301 11094 21106 39173 40128 58007 69931 77172 8802/ 333 11094 21095 47027 69915 90710 91101=
0174013590999992023111915004+60533+008200FM-12+077399999V0209999C000059999999N999999999-00851-00961101151ADDAA101000131KA1240M-00841KA2240N-00861MA1999999091641MD1710081+9999OD139900101999REMSYN08201359 26/// /0200 11085 21096 39164 40115 57008 333 11084 21086 69915 90710 91101=
0318013590999992023111918004+60533+008200FM-12+077399999V0209999C000059999999N007000199-00981-01101101241ADDAA101000531AA212001031AJ100283100280099AY171021AY271021GA1081+004501051GE19AGL   +99999+99999GF108991081999004501999999IA1239KA1120M-00841KA2120N-01071MA1999999091681MD1210041+9999MW1711OD139900101999REMSYN10601359 01457 82900 11098 21110 39168 40124 52004 60012 77177 8802/ 333 11084 21107 47028 69955 90710 91101=
0174013590999992023111921004+60533+008200FM-12+077399999V0209999C000059999999N999999999-01041-01171101321ADDAA101000131KA1240M-00971KA2240N-01041MA1999999091731MD1210041+9999OD139900101999REMSYN08201359 26/// /2600 11104 21117 39173 40132 52004 333 11097 21104 69915 90710 91101=
0214013590999992023112000004+60533+008200FM-12+077399999V0202101N001019999999N999999999-00951-01061101311ADDAA101000091AA206000231AJ100283100280099KA1120M-00951KA2120N-01011MA1999999091751MD1210021+9999OD139900101999REMSYN09401359 06/// /2101 11095 21106 39175 40131 52002 69921 333 11095 21101 4/028 60005 90710 91101=
0174013590999992023112003004+60533+008200FM-12+077399999V0209999C000059999999N999999999-00851-00961101291ADDAA101000091KA1240M-00851KA2240N-00881MA1999999091771MD1990021+9999OD139900101999REMSYN08201359 26/// /2100 11085 21096 39177 40129 50002 333 11085 21088 60005 90710 91101=
