0138419410999992023010100004+23267+090700FM-12+000799999V0209999C000019999999N003000199+01401+01401101931ADDAA124000091AY121021AY221021MA1999999101871MD1999999+0061MW1051REMSYN06441941 31930 00000 10140 20140 30187 40193 70522 333 58006 70000=
0157419410999992023010103004+23267+090700FM-12+000799999V0209999C000019999999N005000199+01781+01601102081ADDAA124000091AY101021AY201021KA1240N+01371MA1999999102021MD1999999+0071MW1051REMSYN07041941 31950 00000 10178 20160 30202 40208 70500 333 20137 58007 70000=
0110419410999992023010106004+23267+090700FM-12+000799999V0203601N002119999999N006000199+02151+01701101961ADDAA124000091MA1999999101901MD1999999+0061REMSYN05841941 32956 03604 10215 20170 30190 40196 333 58006 70000=
0110419410999992023010109004+23267+090700FM-12+000799999V0203601N002119999999N006000199+02501+01301101701ADDAA124000091MA1999999101641MD1999999+0131REMSYN05841941 32956 03604 10250 20130 30164 40170 333 58013 70000=
0129419410999992023010112004+23267+090700FM-12+000799999V0209999C000019999999N005000199+01851+01701101751ADDAA124000091KA1240M+02551MA1999999101691MD1999999+0161REMSYN06441941 32950 00000 10185 20170 30169 40175 333 10255 58016 70000=
0138419410999992023010115004+23267+090700FM-12+000799999V0209999C000019999999N004000199+01721+01601101871ADDAA124000091AY101021AY201021MA1999999101811MD1999999+0111MW1051REMSYN06441941 31940 00000 10172 20160 30181 40187 70500 333 58011 70000=
0138419410999992023010118004+23267+090700FM-12+000799999V0209999C000019999999N004000199+01601+01501101931ADDAA124000091AY121021AY221021MA1999999101871MD1999999+0021MW1051REMSYN06441941 31940 00000 10160 20150 30187 40193 70522 333 58002 70000=
0138419410999992023010121004+23267+090700FM-12+000799999V0209999C000019999999N004000199+01501+01401101861ADDAA124000091AY101021AY201021MA1999999101801MD1999999+0011MW1051REMSYN06441941 31940 00000 10150 20140 30180 40186 70500 333 58001 70000=
0138419410999992023010200004+23267+090700FM-12+000799999V0209999C000019999999N004000199+01501+01401101881ADDAA124000091AY101021AY201021MA1999999101821MD1999999-0051MW1051REMSYN06441941 31940 00000 10150 20140 30182 40188 70500 333 59005 70000=
0157419410999992023010203004+23267+090700FM-12+000799999V0209999C000019999999N004000199+01901+01601102051ADDAA124000091AY101021AY201021KA1240N+01451MA1999999101991MD1999999-0031MW1051REMSYN07041941 31940 00000 10190 20160 30199 40205 70500 333 20145 59003 70000=
0161419410999992023010206004+23267+090700FM-12+000799999V0209999C00001004501CN005000199+02421+01401101971ADDGA1051+004501061GE19AGL   +99999+99999GF105991051999004501999999MA1999999101921REMSYN07041941 32450 50000 10242 20140 30192 40197 85500 333 56900 58002 85615=
0178419410999992023010209004+23267+090700FM-12+000799999V0209999C00001004501CN005000199+02501+01501101741ADDAA124000091GA1051+004501061GE19AGL   +99999+99999GF105991051999004501999999MA1999999101681REMSYN07641941 32450 50000 10250 20150 30168 40174 85500 333 56900 58004 70000 85615=
0197419410999992023010212004+23267+090700FM-12+000799999V0209999C00001004501CN004000199+01951+01701101761ADDAA124000091GA1051+004501061GE19AGL   +99999+99999GF105991051999004501999999KA1240M+02601MA1999999101711REMSYN08241941 32440 50000 10195 20170 30171 40176 85500 333 10260 56900 58002 70000 85615=
0138419410999992023010215004+23267+090700FM-12+000799999V0209999C000019999999N004000199+01701+01601101961ADDAA124000091AY101021AY201021MA1999999101901MD1999999+0091MW1051REMSYN06441941 31940 00000 10170 20160 30190 40196 70500 333 58009 70000=
0138419410999992023010218004+23267+090700FM-12+000799999V0209999C000019999999N004000199+01681+01601102021ADDAA124000091AY101021AY201021MA1999999101961MD1999999+0091MW1051REMSYN06441941 31940 00000 10168 20160 30196 40202 70500 333 58009 70000=
0138419410999992023010221004+23267+090700FM-12+000799999V0209999C000019999999N004000199+01601+01601101931ADDAA124000091AY101021AY201021MA1999999101871MD1999999+0071MW1051REMSYN06441941 31940 00000 10160 20160 30187 40193 70500 333 58007 70000=
0138419410999992023010300004+23267+090700FM-12+000799999V0209999C000019999999N004000199+01521+01501101901ADDAA124000091AY101021AY201021MA1999999101841MD1999999+0021MW1051REMSYN06441941 31940 00000 10152 20150 30184 40190 70500 333 58002 70000=
0157419410999992023010303004+23267+090700FM-12+000799999V0203101N001019999999N005000199+01821+01601102081ADDAA124000091AY101021AY201021KA1240N+01501MA1999999102081MD1999999+0041MW1051REMSYN07041941 31950 03102 10182 20160 30208 40208 70500 333 20150 58004 70000=
0110419410999992023010306004+23267+090700FM-12+000799999V0203601N002119999999N006000199+02401+01601101931ADDAA124000091MA1999999101881MD1999999-0041REMSYN05841941 32956 03604 10240 20160 30188 40193 333 59004 70000=
0200419410999992023010309004+23267+090700FM-12+000799999V0203601N002110240019N005000199+02051+01701101681ADDAA124000091GA1041+004801061GA2061+024001041GE19AGL   +99999+99999GF199999041999004801999999MA1999999101611REMSYN08241941 32950 03604 10205 20170 30161 40168 85420 333 56990 59007 70000 84616 86458=
0225419410999992023010312004+23267+090700FM-12+000799999V0203101N001510240019N004000199+01751+01701101701ADDAA124000091GA1041+004801061GA2061+024001041GE19AGL   +99999+99999GF199999041999004801999999MA1999999101641REMSYN08841941 32440 03103 10175 20170 30164 40170 85420 333 20242 56990 59007 70000 84616 86458=EQDQ0124.2  2EATMN 
0200419410999992023010315004+23267+090700FM-12+000799999V0203101N001510240019N004000199+01641+01501101911ADDAA124000091GA1041+004801061GA2061+024001041GE19AGL   +99999+99999GF106991041999004801999999MA1999999101851REMSYN08241941 32440 63103 10164 20150 30185 40191 85420 333 56990 59005 70000 84616 86458=
0200419410999992023010318004+23267+090700FM-12+000799999V0203101N001510240019N004000199+01601+01601101881ADDAA124000091GA1041+004801061GA2061+024001041GE19AGL   +99999+99999GF106991041999004801999999MA1999999101821REMSYN08241941 32440 63103 10160 20160 30182 40188 85420 333 56990 59014 70000 84616 86458=
0138419410999992023010400004+23267+090700FM-12+000799999V0203101N001519999999N004000199+01601+01501101891ADDAA124000091AY101021AY201021MA1999999101831MD1999999-0011MW1051REMSYN06441941 31940 03103 10160 20150 30183 40189 70500 333 59001 70000=
0247419410999992023010403004+23267+090700FM-12+000799999V0203101N001510240019N005000199+01741+01401102081ADDAA124000091AY121021AY221021GA1041+004801061GA2061+024001041GE19AGL   +99999+99999GF106991041999004801999999KA1240N+01541MA1999999102021MW1051REMSYN09441941 31450 63103 10174 20140 30202 40208 70522 85420 333 20154 56990 59001 70000 84616 86458=
0228419410999992023010406004+23267+090700FM-12+000799999V0203601N001510240019N005000199+01871+01501102041ADDAA124000091AY121021AY221021GA1041+004801061GA2061+024001041GE19AGL   +99999+99999GF106991041999004801999999MA1999999101981MW1051REMSYN08841941 31450 63603 10187 20150 30198 40204 70522 85420 333 56990 59010 70000 84616 86458=
0228419410999992023010409004+23267+090700FM-12+000799999V0203601N002610240019N005000199+01801+01501101711ADDAA124000091AY121021AY221021GA1041+004801061GA2061+024001041GE19AGL   +99999+99999GF106991041999004801999999MA1999999101651MW1051REMSYN08841941 31450 63605 10180 20150 30165 40171 70522 85420 333 56990 59004 70000 84616 86458=
0247419410999992023010412004+23267+090700FM-12+000799999V0203601N002110240019N004000199+01681+01501101721ADDAA124000091AY121021AY221021GA1041+004801061GA2061+024001041GE19AGL   +99999+99999GF106991041999004801999999KA1240M+01931MA1999999101661MW1051REMSYN09441941 31440 63604 10168 20150 30166 40172 70522 85420 333 10193 56990 58002 70000 84616 86458=
0110419410999992023010415004+23267+090700FM-12+000799999V0203101N001019999999N004000199+01581+01501101821ADDAA124000091MA1999999101761MD1999999-0091REMSYN05841941 32940 03102 10158 20150 30176 40182 333 59009 70000=
0110419410999992023010418004+23267+090700FM-12+000799999V0203101N001019999999N004000199+01561+01501101801ADDAA124000091MA1999999101741MD1999999-0081REMSYN05841941 32940 03102 10156 20150 30174 40180 333 59008 70000=
0138419410999992023010421004+23267+090700FM-12+000799999V0203101N002619999999N004000199+01541+01401101831ADDAA124000091AY101021AY201021MA1999999101771MD1999999-0041MW1051REMSYN06441941 31940 03105 10154 20140 30177 40183 70500 333 59004 70000=
0138419410999992023010500004+23267+090700FM-12+000799999V0203101N002119999999N004000199+01501+01401101861ADDAA124000091AY101021AY201021MA1999999101811MD1999999-0021MW1051REMSYN06441941 31940 03104 10150 20140 30181 40186 70500 333 59002 70000=
0241419410999992023010503004+23267+090700FM-12+000799999V0203101N001510240019N005000199+01511+01401102131ADDAA124000091AY121021AY201021GA1041+004801061GA2061+024001041GE19AGL   +99999+99999GF106991041999004801999999KA1240N+01431MA1999999102071MW1051REMSYN08841941 31950 63103 10151 20140 30207 40213 70520 333 20143 56990 58005 70000 84616 86458=
0138419410999992023010506004+23267+090700FM-12+000799999V0203601N002119999999N004000199+01651+01501102031ADDAA124000091AY121021AY201021MA1999999101971MD1999999-0011MW1051REMSYN06441941 31940 03604 10165 20150 30197 40203 70520 333 59001 70000=
0104419410999992023010509004+23267+090700FM-12+999999999V0203601N0015122000199004000199+01901+01501101791ADDAA124999999AY101999AY201999GF100991999999999999999999MA1999999101731MD1999999+0081MW1051REMSYN004BUFR
0157419410999992023010512004+23267+090700FM-12+000799999V0203101N001519999999N004000199+01651+01601101751ADDAA124000091AY101021AY201021KA1240M+01921MA1999999101691MD1999999+0031MW1051REMSYN07041941 31940 03103 10165 20160 30169 40175 70500 333 10192 58003 70000=
0138419410999992023010515004+23267+090700FM-12+000799999V0203601N001519999999N004000199+01641+01501101871ADDAA124000091AY101021AY201021MA1999999101811MD1999999+0051MW1051REMSYN06441941 31940 03603 10164 20150 30181 40187 70500 333 58005 70000=
0138419410999992023010518004+23267+090700FM-12+000799999V0209999C000019999999N004000199+01501+01401101901ADDAA124000091AY101021AY201021MA1999999101841MD1999999+0101MW1051REMSYN06441941 31940 00000 10150 20140 30184 40190 70500 333 58010 70000=
0138419410999992023010521004+23267+090700FM-12+000799999V0209999C000019999999N004000199+01451+01401101851ADDAA124000091AY101021AY201021MA1999999101791MD1999999+0021MW1051REMSYN06441941 31940 00000 10145 20140 30179 40185 70500 333 58002 70000=
0172419410999992023010600004+23267+090700FM-12+000799999V0203601N00151001201WN000600199+01351+01301101811ADDAA124000091GA1091+999999999GE19AGL   +99999+99999GF109991091999999999999999MA1999999101761REMSYN07041941 31/06 93603 10135 20130 30176 40181 89/// 333 56999 59005 70000=
0219419410999992023010603004+23267+090700FM-12+000799999V0203601N00211002401WN000800199+01321+01301102021ADDAA124000091AY141021AY241021GA1091+999999999GE19AGL   +99999+99999GF109991091999999999999999KA1240N+01341MA1999999101971MW1451REMSYN08241941 31/08 93604 10132 20130 30197 40202 74544 89/// 333 20134 56999 59010 70000=
0138419410999992023010606004+23267+090700FM-12+000799999V0203601N002119999999N003000199+01501+01301101981ADDAA124000091AY141021AY241021MA1999999101921MD1999999-0051MW1051REMSYN06441941 31930 03604 10150 20130 30192 40198 70544 333 59005 70000=
0138419410999992023010609004+23267+090700FM-12+000799999V0203601N002119999999N003000199+01621+01201101731ADDAA124000091AY101021AY201021MA1999999101681MD1999999-0051MW1051REMSYN06441941 31930 03604 10162 20120 30168 40173 70500 333 59005 70000=
0157419410999992023010612004+23267+090700FM-12+000799999V0203601N001519999999N003000199+01501+01401101731ADDAA124000091AY101021AY201021KA1240M+01651MA1999999101681MD1999999-0011MW1051REMSYN07041941 31930 03603 10150 20140 30168 40173 70500 333 10165 59001 70000=
0138419410999992023010618004+23267+090700FM-12+000799999V0203601N001519999999N004000199+01341+01201101871ADDAA124000091AY141021AY241021MA1999999101811MD1999999-0031MW1101REMSYN06441941 31940 03603 10134 20120 30181 40187 71044 333 59003 70000=
0138419410999992023010621004+23267+090700FM-12+000799999V0209999C000019999999N002000199+01301+01201101791ADDAA124000091AY141021AY241021MA1999999101731MD1999999-0061MW1101REMSYN06441941 31220 00000 10130 20120 30173 40179 71044 333 59006 70000=
0208419410999992023010700004+23267+090700FM-12+000799999V0209999C00001001201WN000400199+01321+01301101721ADDAA124000091AY141021AY241021GA1091+999999999GE19AGL   +99999+99999GF109991091999999999999999MA1999999101661MD1999999-0101MW1451REMSYN07041941 31/04 90000 10132 20130 30166 40172 74544 89/// 333 59010 70000=
0219419410999992023010703004+23267+090700FM-12+000799999V0203601N00151001201WN000600199+01361+01361101801ADDAA124000091AY141021AY241021GA1091+999999999GE19AGL   +99999+99999GF109991091999999999999999KA1240N+01251MA1999999101741MW1451REMSYN08241941 31/06 93603 10136 20136 30174 40180 74544 89/// 333 20125 56999 59023 70000=
0208419410999992023010706004+23267+090700FM-12+000799999V0203601N00211002401WN000800199+01481+01301101821ADDAA124000091AY141021AY241021GA1091+999999999GE19AGL   +99999+99999GF109991091999999999999999MA1999999101761MD1999999-0161MW1451REMSYN07041941 31/08 93604 10148 20130 30176 40182 74544 89/// 333 59016 70000=
0200419410999992023010709004+23267+090700FM-12+000799999V0203101N00151002401WN000800199+01581+01501101511ADDAA124000091AY141021AY241021GA1091+999999999GE19AGL   +99999+99999GF109991091999999999999999MA1999999101451MW1451REMSYN07641941 31/08 93103 10158 20150 30145 40151 74544 89/// 333 56999 59023 70000=
0219419410999992023010712004+23267+090700FM-12+000799999V0203101N00211002401WN000800199+01521+01501101531ADDAA124000091AY141021AY241021GA1091+999999999GE19AGL   +99999+99999GF109991091999999999999999KA1240M+01601MA1999999101471MW1451REMSYN08241941 31/08 93104 10152 20150 30147 40153 74544 89/// 333 10160 56999 59021 70000=
0200419410999992023010715004+23267+090700FM-12+000799999V0203601N00211002401WN000800199+01401+01401101611ADDAA124000091AY141021AY241021GA1091+999999999GE19AGL   +99999+99999GF109991091999999999999999MA1999999101551MW1451REMSYN07641941 31/08 93604 10140 20140 30155 40161 74544 89/// 333 56999 59030 70000=
0200419410999992023010721004+23267+090700FM-12+000799999V0209999C00001002401WN001000199+01401+01301101551ADDAA124000091AY141021AY241021GA1091+999999999GE19AGL   +99999+99999GF109991091999999999999999MA1999999101491MW1451REMSYN07641941 31/10 90000 10140 20130 30149 40155 74544 89/// 333 56999 59024 70000=
0200419410999992023010800004+23267+090700FM-12+000799999V0209999C00001002401WN000800199+01381+01381101591ADDAA124000091AY141021AY241021GA1091+999999999GE19AGL   +99999+99999GF109991091999999999999999MA1999999101531MW1451REMSYN07641941 31/08 90000 10138 20138 30153 40159 74544 89/// 333 56999 59013 70000=
0219419410999992023010803004+23267+090700FM-12+000799999V0209999C00001002401WN001000199+01501+01501101821ADDAA124000091AY141021AY241021GA1091+999999999GE19AGL   +99999+99999GF109991091999999999999999KA1240N+01281MA1999999101771MW1431REMSYN08241941 31/10 90000 10150 20150 30177 40182 74344 89/// 333 20128 56999 58003 70000=
0104419410999992023010806004+23267+090700FM-12+999999999V0209999C0000122000199000300199+01671+01601101731ADDAA124999999AY141999AY241999GF100991999999999999999999MA1999999101681MD1999999-0081MW1431REMSYN004BUFR
0200419410999992023010809004+23267+090700FM-12+000799999V0203601N001010240019N005000199+01941+01601101481ADDAA124000091GA1041+004801061GA2051+024001041GE19AGL   +99999+99999GF106991041999004801999999MA1999999101431REMSYN08241941 32450 63602 10194 20160 30143 40148 85420 333 56990 59002 70000 84616 85458=
0219419410999992023010812004+23267+090700FM-12+000799999V0209999C000010240019N004000199+01751+01701101501ADDAA124000091GA1041+004801061GA2061+024001041GE19AGL   +99999+99999GF106991041999004801999999KA1240M+02021MA1999999101451REMSYN08841941 32440 60000 10175 20170 30145 40150 85420 333 10202 56990 59002 70000 84616 86458=
0138419410999992023010815004+23267+090700FM-12+000799999V0209999C000019999999N004000199+01601+01601101661ADDAA124000091AY101021AY201021MA1999999101611MD1999999+0061MW1051REMSYN06441941 31440 00000 10160 20160 30161 40166 70500 333 58006 70000=
0138419410999992023010818004+23267+090700FM-12+000799999V0209999C000019999999N004000199+01501+01501101701ADDAA124000091AY101021AY201021MA1999999101651MD1999999+0071MW1051REMSYN06441941 31940 00000 10150 20150 30165 40170 70500 333 58007 70000=
0138419410999992023010821004+23267+090700FM-12+000799999V0209999C000019999999N004000199+01451+01451101641ADDAA124000091AY101021AY201021MA1999999101581MD1999999+0091MW1051REMSYN06441941 31940 00000 10145 20145 30158 40164 70500 333 58009 70000=
0200419410999992023010900004+23267+090700FM-12+000799999V0209999C00001002401WN000800199+01451+01451101671ADDAA124000091AY141021AY241021GA1091+999999999GE19AGL   +99999+99999GF109991091999999999999999MA1999999101611MW1451REMSYN07641941 31/08 90000 10145 20145 30161 40167 74544 89/// 333 56990 58007 70000=
0219419410999992023010903004+23267+090700FM-12+000799999V0209999C00001002401WN000800199+01601+01601101921ADDAA124000091AY141021AY241021GA1091+999999999GE19AGL   +99999+99999GF109991091999999999999999KA1240N+01441MA1999999101871MW1451REMSYN08241941 31/08 90000 10160 20160 30187 40192 74544 89/// 333 20144 56999 58010 70000=
0110419410999992023010906004+23267+090700FM-12+000799999V0209999C000019999999N006000199+02251+01701101771ADDAA124000091MA1999999101711MD1999999+0031REMSYN05841941 32956 00000 10225 20170 30171 40177 333 58003 70000=
0110419410999992023010909004+23267+090700FM-12+000799999V0203601N001519999999N006000199+02641+01501101551ADDAA124000091MA1999999101491MD1999999+0061REMSYN05841941 32956 03603 10264 20150 30149 40155 333 58006 70000=
0129419410999992023010912004+23267+090700FM-12+000799999V0203601N001019999999N005000199+02121+01701101541ADDAA124000091KA1240M+02731MA1999999101481MD1999999+0031REMSYN06441941 32950 03602 10212 20170 30148 40154 333 10273 58003 70000=
0110419410999992023010915004+23267+090700FM-12+000799999V0203101N001019999999N005000199+01931+01701101771ADDAA124000091MA1999999101711MD1999999+0101REMSYN05841941 32950 03102 10193 20170 30171 40177 333 58010 70000=
0082419410999992023010918004+23267+090700FM-12+999999999V0209999C0000122000199004000199+01901+01701101711ADDAA124999999GF100991999999999999999999MA1999999101651MD1999999+0001REMSYN004BUFR
0110419410999992023010921004+23267+090700FM-12+000799999V0209999C000019999999N004000199+01851+01701101651ADDAA124000091MA1999999101591MD1999999+0011REMSYN05841941 32940 00000 10185 20170 30159 40165 333 58001 70000=
0138419410999992023011000004+23267+090700FM-12+000799999V0209999C000019999999N003000199+01551+01551101681ADDAA124000091AY101021AY201021MA1999999101621MD1999999+0011MW1051REMSYN06441941 31930 00000 10155 20155 30162 40168 70500 333 58001 70000=
0129419410999992023011003004+23267+090700FM-12+000799999V0203601N001019999999N005000199+01851+01601101851ADDAA124000091KA1240N+01501MA1999999101791MD1999999-0081REMSYN06441941 32950 03602 10185 20160 30179 40185 333 20150 59008 70000=
0110419410999992023011006004+23267+090700FM-12+000799999V0203601N001019999999N006000199+02411+01601101591ADDAA124000091MA1999999101531MD1999999-0181REMSYN05841941 32956 03602 10241 20160 30153 40159 333 59018 70000=
0082419410999992023011009004+23267+090700FM-12+999999999V0203601N0020122000199006000199+02771+01001101351ADDAA124999999GF100991999999999999999999MA1999999101291MD1999999-0201REMSYN004BUFR
0129419410999992023011012004+23267+090700FM-12+000799999V0203101N001019999999N005000199+02151+01501101331ADDAA124000091KA1240M+02861MA1999999101271MD1999999-0211REMSYN06441941 32950 03102 10215 20150 30127 40133 333 10286 59021 70000=
0110419410999992023011015004+23267+090700FM-12+000799999V0203601N001019999999N004000199+01951+01601101441ADDAA124000091MA1999999101381MD1999999-0031REMSYN05841941 32940 03602 10195 20160 30138 40144 333 59003 70000=
0082419410999992023011018004+23267+090700FM-12+999999999V0203601N0010122000199004000199+01801+01601101561ADDAA124999999GF100991999999999999999999MA1999999101501MD1999999-0151REMSYN004BUFR
0138419410999992023011021004+23267+090700FM-12+000799999V0209999C000019999999N004000199+01701+01601101501ADDAA124000091AY101021AY201021MA1999999101441MD1999999-0151MW1051REMSYN06441941 31940 00000 10170 20160 30144 40150 70500 333 59015 70000=
0138419410999992023011100004+23267+090700FM-12+000799999V0209999C000019999999N003000199+01451+01401101491ADDAA124000091AY101021AY201021MA1999999101431MD1999999-0191MW1051REMSYN06441941 31930 00000 10145 20140 30143 40149 70500 333 59019 70000=
0129419410999992023011103004+23267+090700FM-12+000799999V0209999C000019999999N005000199+01771+01401101651ADDAA124000091KA1240N+01441MA1999999101591MD1999999-0201REMSYN06441941 32950 00000 10177 20140 30159 40165 333 20144 59020 70000=
0110419410999992023011106004+23267+090700FM-12+000799999V0203101N002119999999N006000199+02251+01701101591ADDAA124000091MA1999999101531MD1999999+0001REMSYN05841941 32956 03104 10225 20170 30153 40159 333 58000 70000=
0110419410999992023011109004+23267+090700FM-12+000799999V0203601N002119999999N006000199+02531+00901101311ADDAA124000091MA1999999101251MD1999999-0041REMSYN05841941 32956 03604 10253 20090 30125 40131 333 59004 70000=
0129419410999992023011112004+23267+090700FM-12+000799999V0203101N001519999999N005000199+01901+01301101171ADDAA124000091KA1240M+02581MA1999999101111MD1999999-0161REMSYN06441941 32950 03103 10190 20130 30111 40117 333 10258 59016 70000=
0110419410999992023011115004+23267+090700FM-12+000799999V0209999C000019999999N004000199+01631+01301101431ADDAA124000091MA1999999101371MD1999999-0011REMSYN05841941 32940 00000 10163 20130 30137 40143 333 59001 70000=
0110419410999992023011118004+23267+090700FM-12+000799999V0203601N001519999999N004000199+01551+01401101471ADDAA124000091MA1999999101411MD1999999-0091REMSYN05841941 32940 03603 10155 20140 30141 40147 333 59009 70000=
0138419410999992023011121004+23267+090700FM-12+000799999V0209999C000019999999N004000199+01501+01301101441ADDAA124000091AY101021AY201021MA1999999101381MD1999999-0061MW1051REMSYN06441941 32940 00000 10150 20130 30138 40144 70500 333 59006 70000=
0138419410999992023011200004+23267+090700FM-12+000799999V0209999C000019999999N003000199+01201+01201101341ADDAA124000091AY101021AY201021MA1999999101281MD1999999-0141MW1051REMSYN06441941 32930 00000 10120 20120 30128 40134 70500 333 59014 70000=
0157419410999992023011203004+23267+090700FM-12+000799999V0203601N001019999999N005000199+01571+01401101501ADDAA124000091AY101021AY201021KA1240N+01191MA1999999101451MD1999999-0141MW1051REMSYN07041941 31950 03602 10157 20140 30145 40150 70500 333 20119 59014 70000=
0110419410999992023011206004+23267+090700FM-12+000799999V0209999C000019999999N006000199+02201+01801101361ADDAA124000091MA1999999101301MD1999999-0231REMSYN05841941 32956 00000 10220 20180 30130 40136 333 59023 70000=
0129419410999992023011212004+23267+090700FM-12+000799999V0203601N001519999999N005000199+01841+01401101111ADDAA124000091KA1240M+02421MA1999999101051MD1999999-0061REMSYN06441941 32950 03603 10184 20140 30105 40111 333 10242 59006 70000=
0104419410999992023011218004+23267+090700FM-12+999999999V0209999C0000122000199004000199+01351+01301101431ADDAA124999999AY101999AY201999GF100991999999999999999999MA1999999101371MD1999999-0041MW1051REMSYN004BUFR
0138419410999992023011221004+23267+090700FM-12+000799999V0209999C000019999999N004000199+01301+01201101381ADDAA124000091AY101021AY201021MA1999999101331MD1999999-0051MW1051REMSYN06441941 31940 00000 10130 20120 30133 40138 70500 333 59005 70000=
0138419410999992023011300004+23267+090700FM-12+000799999V0209999C000019999999N004000199+01231+01201101371ADDAA124000091AY101021AY201021MA1999999101311MD1999999+0031MW1051REMSYN06441941 31940 00000 10123 20120 30131 40137 70500 333 58003 70000=
0129419410999992023011303004+23267+090700FM-12+000799999V0209999C000019999999N005000199+01721+01301101631ADDAA124000091KA1240N+01181MA1999999101581MD1999999+0301REMSYN06441941 32950 00000 10172 20130 30158 40163 333 20118 58030 70000=
0110419410999992023011306004+23267+090700FM-12+000799999V0209999C000019999999N005000199+02401+01301101541ADDAA124000091MA1999999101481MD1999999+0181REMSYN05841941 32950 00000 10240 20130 30148 40154 333 58018 70000=
0110419410999992023011309004+23267+090700FM-12+000799999V0203601N001519999999N006000199+02561+01001101301ADDAA124000091MA1999999101241MD1999999+0131REMSYN05841941 32956 03603 10256 20100 30124 40130 333 58013 70000=
0129419410999992023011312004+23267+090700FM-12+000799999V0209999C000019999999N005000199+01901+01301101141ADDAA124000091KA1240M+02651MA1999999101081MD1999999+0031REMSYN06441941 32950 00000 10190 20130 30108 40114 333 10265 58003 70000=
0110419410999992023011315004+23267+090700FM-12+000799999V0209999C000019999999N004000199+01701+01601101441ADDAA124000091MA1999999101381MD1999999+0081REMSYN05841941 32940 00000 10170 20160 30138 40144 333 58008 70000=
0138419410999992023011318004+23267+090700FM-12+000799999V0209999C000019999999N004000199+01601+01601101411ADDAA124000091AY101021AY201021MA1999999101351MD1999999+0021MW1051REMSYN06441941 31940 00000 10160 20160 30135 40141 70500 333 58002 70000=
0138419410999992023011321004+23267+090700FM-12+000799999V0209999C000019999999N004000199+01551+01551101391ADDAA124000091AY101021AY201021MA1999999101331MD1999999+0001MW1051REMSYN06441941 31940 00000 10155 20155 30133 40139 70500 333 58000 70000=
0138419410999992023011400004+23267+090700FM-12+000799999V0209999C000019999999N004000199+01501+01501101391ADDAA124000091AY101021AY201021MA1999999101331MD1999999+0021MW1051REMSYN06441941 31940 00000 10150 20150 30133 40139 70500 333 58002 70000=
0157419410999992023011403004+23267+090700FM-12+000799999V0203601N001519999999N004000199+02101+01801101541ADDAA124000091AY101021AY201021KA1240N+01481MA1999999101481MD1999999-0101MW1051REMSYN07041941 31940 03603 10210 20180 30148 40154 70500 333 20148 59010 70000=
0110419410999992023011406004+23267+090700FM-12+000799999V0209999C000019999999N006000199+02581+02101101331ADDAA124000091MA1999999101271MD1999999-0211REMSYN05841941 32956 00000 10258 20210 30127 40133 333 59021 70000=
0110419410999992023011409004+23267+090700FM-12+000799999V0202701N001519999999N006000199+02541+01901101081ADDAA124000091MA1999999101021MD1999999-0221REMSYN05841941 32956 02703 10254 20190 30102 40108 333 59022 70000=
0129419410999992023011412004+23267+090700FM-12+000799999V0209999C000019999999N004000199+02141+02001101101ADDAA124000091KA1240M+02721MA1999999101051MD1999999-0031REMSYN06441941 32940 00000 10214 20200 30105 40110 333 10272 59003 70000=
0138419410999992023011415004+23267+090700FM-12+000799999V0209999C000019999999N004000199+02001+02001101351ADDAA124000091AY101021AY201021MA1999999101291MD1999999-0091MW1051REMSYN06441941 31940 00000 10200 20200 30129 40135 70500 333 59009 70000=
0138419410999992023011418004+23267+090700FM-12+000799999V0209999C000019999999N004000199+01901+01901101311ADDAA124000091AY101021AY201021MA1999999101251MD1999999-0101MW1051REMSYN06441941 31940 00000 10190 20190 30125 40131 70500 333 59010 70000=
0138419410999992023011421004+23267+090700FM-12+000799999V0209999C000059999999N004000199+01851+01851101261ADDAA124000091AY101021AY201021MA1999999101201MD1999999-0131MW1051REMSYN06441941 31940 00000 10185 20185 30120 40126 70500 333 59013 70000=
0200419410999992023011500004+23267+090700FM-12+000799999V0209999C00001001201WN000600199+01801+01801101361ADDAA124000091AY141021AY241021GA1091+999999999GE19AGL   +99999+99999GF109991091999999999999999MA1999999101301MW1451REMSYN07641941 31/06 90000 10180 20180 30130 40136 74544 89/// 333 56999 59003 70000=
0219419410999992023011503004+23267+090700FM-12+000799999V0209999C00001002401WN000800199+01901+01901101501ADDAA124000091AY141021AY241021GA1091+999999999GE19AGL   +99999+99999GF109991091999999999999999KA1240N+01781MA1999999101441MW1451REMSYN08241941 31/08 90000 10190 20190 30144 40150 74544 89/// 333 20178 56999 59004 70000=
0200419410999992023011506004+23267+090700FM-12+000799999V0209999C00001002401WN004000199+02381+01901101381ADDAA124000091AY141021AY241021GA1091+999999999GE19AGL   +99999+99999GF109991091999999999999999MA1999999101321MW1451REMSYN07641941 31/40 90000 10238 20190 30132 40138 74544 89/// 333 56999 58005 70000=
0110419410999992023011509004+23267+090700FM-12+000799999V0203101N001019999999N005000199+02601+01201101161ADDAA124000091MA1999999101111MD1999999+0091REMSYN05841941 32950 03102 10260 20120 30111 40116 333 58009 70000=
0238419410999992023011512004+23267+090700FM-12+000799999V0203601N00101999999CN005000199+02141+01501101141ADDAA124000091GA1031+005401061GA2041+036001031GE19AGL   +99999+99999GF104991031999005401999999KA1240M+02671MA1999999101091REMSYN08841941 32450 43602 10214 20150 30109 40114 83530 333 10267 56990 58004 70000 83618 84362=EQDQ01 036003SCOCIG
0110419410999992023011515004+23267+090700FM-12+000799999V0209999C000019999999N004000199+01901+01501101351ADDAA124000091MA1999999101291MD1999999+0001REMSYN05841941 32940 00000 10190 20150 30129 40135 333 58000 70000=
0110419410999992023011518004+23267+090700FM-12+000799999V0209999C000019999999N004000199+01851+01501101481ADDAA124000091MA1999999101421MD1999999+0171REMSYN05841941 32940 00000 10185 20150 30142 40148 333 58017 70000=
0138419410999992023011521004+23267+090700FM-12+000799999V0209999C000019999999N004000199+01801+01401101421ADDAA124000091AY101021AY201021MA1999999101361MD1999999+0161MW1051REMSYN06441941 31940 00000 10180 20140 30136 40142 70500 333 58016 70000=
0247419410999992023011600004+23267+090700FM-12+000799999V0209999C00001999999CN003000199+01621+01201101401ADDAA124000091AY121021AY221021GA1031+005401061GA2041+036001031GE19AGL   +99999+99999GF104991031999005401999999MA1999999101341MW1051REMSYN08841941 31430 40000 10162 20120 30134 40140 70522 83530 333 56990 58003 70000 83618 84362=EQDQ01 036003SCOCIG
0266419410999992023011603004+23267+090700FM-12+000799999V0203101N00151999999CN005000199+01871+01401101771ADDAA124000091AY121021AY221021GA1031+005401061GA2041+036001031GE19AGL   +99999+99999GF104991031999005401999999KA1240N+01551MA1999999101711MW1051REMSYN09441941 31450 43103 10187 20140 30171 40177 70522 83530 333 20155 56990 58027 70000 83618 84362=EQDQ01 036003SCOCIG
0247419410999992023011606004+23267+090700FM-12+000799999V0203601N00101999999CN005000199+02151+01601101821ADDAA124000091AY121021AY221021GA1031+005401061GA2041+036001031GE19AGL   +99999+99999GF104991031999005401999999MA1999999101761MW1051REMSYN08841941 31450 43602 10215 20160 30176 40182 70522 83530 333 56990 58044 70000 83618 84362=EQDQ01 036003SCOCIG
0219419410999992023011609004+23267+090700FM-12+000799999V0203601N00101999999CN005000199+02401+01401101341ADDAA124000091GA1031+005401061GA2041+036001031GE19AGL   +99999+99999GF104991031999005401999999MA1999999101281REMSYN08241941 32450 43602 10240 20140 30128 40134 83530 333 56990 58017 70000 83618 84362=EQDQ01 036003SCOCIG
0219419410999992023011612004+23267+090700FM-12+000799999V0203101N001010240019N005000199+02041+01501101341ADDAA124000091GA1041+004801061GA2061+024001041GE19AGL   +99999+99999GF106991041999004801999999KA1240M+02441MA1999999101291REMSYN08841941 32450 63102 10204 20150 30129 40134 85420 333 10244 56990 58020 70000 84616 86458=
0110419410999992023011615004+23267+090700FM-12+000799999V0203601N001019999999N004000199+01851+01601101511ADDAA124000091MA1999999101451MD1999999+0161REMSYN05841941 32940 03602 10185 20160 30145 40151 333 58016 70000=
0138419410999992023011621004+23267+090700FM-12+000799999V0209999C000019999999N004000199+01751+01601101521ADDAA124000091AY101021AY201021MA1999999101461MD1999999+0101MW1051REMSYN06441941 31940 00000 10175 20160 30146 40152 70500 333 58010 70000=
0138419410999992023011700004+23267+090700FM-12+000799999V0209999C000019999999N004000199+01531+01301101511ADDAA124000091AY101021AY201021MA1999999101451MD1999999+0111MW1051REMSYN06441941 31940 00000 10153 20130 30145 40151 70500 333 58011 70000=
0129419410999992023011703004+23267+090700FM-12+000799999V0203601N001019999999N005000199+01781+01401101711ADDAA124000091KA1240N+01451MA1999999101651MD1999999-0061REMSYN06441941 32950 03602 10178 20140 30165 40171 333 20145 59006 70000=
0110419410999992023011706004+23267+090700FM-12+000799999V0203601N001519999999N005000199+02301+01101101661ADDAA124000091MA1999999101601MD1999999-0161REMSYN05841941 32950 03603 10230 20110 30160 40166 333 59016 70000=
0110419410999992023011709004+23267+090700FM-12+000799999V0203601N001519999999N005000199+02351+01101101411ADDAA124000091MA1999999101351MD1999999+0071REMSYN05841941 32950 03603 10235 20110 30135 40141 333 58007 70000=
0129419410999992023011712004+23267+090700FM-12+000799999V0209999C000019999999N005000199+02021+01401101441ADDAA124000091KA1240M+02451MA1999999101381MD1999999+0091REMSYN06441941 32950 00000 10202 20140 30138 40144 333 10245 58009 70000=
0110419410999992023011715004+23267+090700FM-12+000799999V0203101N001019999999N004000199+01751+01701101631ADDAA124000091MA1999999101571MD1999999+0121REMSYN05841941 32940 03102 10175 20170 30157 40163 333 58012 70000=
0110419410999992023011718004+23267+090700FM-12+000799999V0209999C000019999999N004000199+01721+01601101591ADDAA124000091MA1999999101531MD1999999+0011REMSYN05841941 32940 00000 10172 20160 30153 40159 333 58001 70000=
0138419410999992023011721004+23267+090700FM-12+000799999V0209999C000019999999N004000199+01621+01501101631ADDAA124000091AY101021AY201021MA1999999101571MD1999999+0111MW1051REMSYN06441941 32940 00000 10162 20150 30157 40163 70500 333 58011 70000=
0138419410999992023011800004+23267+090700FM-12+000799999V0209999C000019999999N004000199+01501+01201101731ADDAA124000091AY101021AY201021MA1999999101671MD1999999+0221MW1051REMSYN06441941 32940 00000 10150 20120 30167 40173 70500 333 58022 70000=
0129419410999992023011803004+23267+090700FM-12+000799999V0209999C000019999999N005000199+01821+01201101981ADDAA124000091KA1240N+01471MA1999999101921MD1999999+0271REMSYN06441941 32950 00000 10182 20120 30192 40198 333 20147 58027 70000=
0110419410999992023011806004+23267+090700FM-12+000799999V0203601N001019999999N005000199+02201+00901101861ADDAA124000091MA1999999101801MD1999999+0201REMSYN05841941 32950 03602 10220 20090 30180 40186 333 58020 70000=
0110419410999992023011809004+23267+090700FM-12+000799999V0203101N001019999999N005000199+02301+01101101581ADDAA124000091MA1999999101521MD1999999+0171REMSYN05841941 32950 03102 10230 20110 30152 40158 333 58017 70000=
0129419410999992023011812004+23267+090700FM-12+000799999V0209999C000019999999N005000199+01851+01401101591ADDAA124000091KA1240M+02401MA1999999101531MD1999999+0151REMSYN06441941 32950 00000 10185 20140 30153 40159 333 10240 58015 70000=
0110419410999992023011815004+23267+090700FM-12+000799999V0209999C000019999999N004000199+01681+01401101851ADDAA124000091MA1999999101791MD1999999+0221REMSYN05841941 32940 00000 10168 20140 30179 40185 333 58022 70000=
0110419410999992023011818004+23267+090700FM-12+000799999V0209999C000019999999N004000199+01621+01301101911ADDAA124000091MA1999999101851MD1999999+0321REMSYN05841941 32940 00000 10162 20130 30185 40191 333 58032 70000=
0110419410999992023011821004+23267+090700FM-12+000799999V0209999C000019999999N004000199+01501+01301101881ADDAA124000091MA1999999101821MD1999999+0251REMSYN05841941 32940 00000 10150 20130 30182 40188 333 58025 70000=
0110419410999992023011900004+23267+090700FM-12+000799999V0203601N001019999999N004000199+01371+01201101771ADDAA124000091MA1999999101711MD1999999+0041REMSYN05841941 32940 03602 10137 20120 30171 40177 333 58004 70000=
0129419410999992023011903004+23267+090700FM-12+000799999V0203601N001019999999N006000199+01741+01101102021ADDAA124000091KA1240N+01341MA1999999101961MD1999999+0041REMSYN06441941 32956 03602 10174 20110 30196 40202 333 20134 58004 70000=
0110419410999992023011906004+23267+090700FM-12+000799999V0203101N001519999999N006000199+02201+00701101901ADDAA124000091MA1999999101841MD1999999+0041REMSYN05841941 32956 03103 10220 20070 30184 40190 333 58004 70000=
0110419410999992023011909004+23267+090700FM-12+000799999V0203101N002119999999N006000199+02351+00901101591ADDAA124000091MA1999999101531MD1999999+0011REMSYN05841941 32956 03104 10235 20090 30153 40159 333 58001 70000=
0129419410999992023011912004+23267+090700FM-12+000799999V0203101N001519999999N005000199+01901+01101101601ADDAA124000091KA1240M+02401MA1999999101541MD1999999+0011REMSYN06441941 32950 03103 10190 20110 30154 40160 333 10240 58001 70000=
0110419410999992023011915004+23267+090700FM-12+000799999V0203101N001519999999N005000199+01551+01401101681ADDAA124000091MA1999999101621MD1999999-0171REMSYN05841941 32950 03103 10155 20140 30162 40168 333 59017 70000=
0138419410999992023011918004+23267+090700FM-12+000799999V0209999C000019999999N004000199+01481+01401101761ADDAA124000091AY101021AY201021MA1999999101701MD1999999-0151MW1051REMSYN06441941 31940 00000 10148 20140 30170 40176 70500 333 59015 70000=
0138419410999992023011921004+23267+090700FM-12+000799999V0209999C000019999999N004000199+01461+01401101671ADDAA124000091AY101021AY201021MA1999999101611MD1999999-0211MW1051REMSYN06441941 31940 00000 10146 20140 30161 40167 70500 333 59021 70000=
0138419410999992023012000004+23267+090700FM-12+000799999V0209999C000019999999N003000199+01301+01201101631ADDAA124000091AY101021AY201021MA1999999101571MD1999999-0141MW1051REMSYN06441941 31930 00000 10130 20120 30157 40163 70500 333 59014 70000=
0157419410999992023012003004+23267+090700FM-12+000799999V0203101N001519999999N004000199+01701+01301101851ADDAA124000091AY101021AY201021KA1240N+01261MA1999999101791MD1999999-0171MW1051REMSYN07041941 31940 03103 10170 20130 30179 40185 70500 333 20126 59017 70000=
0110419410999992023012006004+23267+090700FM-12+000799999V0203601N002119999999N006000199+02221+01401101871ADDAA124000091MA1999999101811MD1999999-0031REMSYN05841941 32956 03604 10222 20140 30181 40187 333 59003 70000=
0110419410999992023012009004+23267+090700FM-12+000799999V0203101N002119999999N006000199+02421+01201101561ADDAA124000091MA1999999101501MD1999999-0031REMSYN05841941 32956 03104 10242 20120 30150 40156 333 59003 70000=
0129419410999992023012012004+23267+090700FM-12+000799999V0209999C000019999999N005000199+02001+01401101501ADDAA124000091KA1240M+02501MA1999999101441MD1999999-0101REMSYN06441941 32950 00000 10200 20140 30144 40150 333 10250 59010 70000=
0110419410999992023012015004+23267+090700FM-12+000799999V0209999C000019999999N004000199+01851+01501101601ADDAA124000091MA1999999101541MD1999999-0081REMSYN05841941 32940 00000 10185 20150 30154 40160 333 59008 70000=
0138419410999992023012018004+23267+090700FM-12+000799999V0203101N001519999999N004000199+01601+01501101661ADDAA124000091AY101021AY201021MA1999999101601MD1999999-0101MW1051REMSYN06441941 31940 03103 10160 20150 30160 40166 70500 333 59010 70000=
0138419410999992023012021004+23267+090700FM-12+000799999V0209999C000019999999N004000199+01541+01401101571ADDAA124000091AY101021AY201021MA1999999101511MD1999999-0101MW1051REMSYN06441941 31940 00000 10154 20140 30151 40157 70500 333 59010 70000=
0200419410999992023012100004+23267+090700FM-12+000799999V0203101N00151001201WN000600199+01361+01361101551ADDAA124000091AY141021AY201021GA1091+999999999GE19AGL   +99999+99999GF109991091999999999999999MA1999999101491MW1451REMSYN07641941 31/06 93103 10136 20136 30149 40155 74540 89/// 333 56999 58008 70000=
0117419410999992023012103004+23267+090700FM-12+999999999V0203101N0015122000199004000199+01851+01401101741ADDAA124999999AY141999AY241999GF100991999999999999999999KA1120N+01271MA1999999101681MD1999999-0111MW1051REMSYN004BUFR
0104419410999992023012106004+23267+090700FM-12+999999999V0203601N0020122000199005000199+02351+01501101631ADDAA124999999AY141999AY241999GF100991999999999999999999MA1999999101571MD1999999-0241MW1021REMSYN004BUFR
0110419410999992023012109004+23267+090700FM-12+000799999V0203101N002119999999N006000199+02501+01301101381ADDAA124000091MA1999999101321MD1999999-0181REMSYN05841941 32956 03104 10250 20130 30132 40138 333 59018 70000=
0148419410999992023012112004+23267+090700FM-12+000799999V0209999C000019999999N005000199+02021+01601999999ADDAA124000091KA1240M+02601MA1999999101451MD1999999+0011REMSYN06441941 32950 00000 10202 20160 30145 40451 333 10260 58001 70000=EQDQ011045.13APOSLP
0138419410999992023012115004+23267+090700FM-12+000799999V0209999C000019999999N004000199+01651+01601101591ADDAA124000091AY101021AY201021MA1999999101531MD1999999-0011MW1051REMSYN06441941 31940 00000 10165 20160 30153 40159 70500 333 59001 70000=
0138419410999992023012118004+23267+090700FM-12+000799999V0209999C000019999999N004000199+01601+01501101621ADDAA124000091AY101021AY201021MA1999999101561MD1999999-0041MW1051REMSYN06441941 31940 00000 10160 20150 30156 40162 70500 333 59004 70000=
0138419410999992023012200004+23267+090700FM-12+000799999V0209999C000019999999N003000199+01401+01401101551ADDAA124000091AY101021AY201021MA1999999101491MD1999999+0001MW1051REMSYN06441941 31930 00000 10140 20140 30149 40155 70500 333 58000 70000=
0138419410999992023012203004+23267+090700FM-12+000799999V0203601N002119999999N004000199+01901+01401101691ADDAA124000091AY101021AY201021MA1999999101631MD1999999-0051MW1051REMSYN06441941 31940 03604 10190 20140 30163 40169 70500 333 59005 70000=
0110419410999992023012206004+23267+090700FM-12+000799999V0203101N001019999999N005000199+02561+01401101631ADDAA124000091MA1999999101571MD1999999+0001REMSYN05841941 32950 03102 10256 20140 30157 40163 333 58000 70000=
0110419410999992023012209004+23267+090700FM-12+000799999V0203601N001519999999N006000199+02651+01301101361ADDAA124000091MA1999999101311MD1999999-0011REMSYN05841941 32956 03603 10265 20130 30131 40136 333 59001 70000=
0129419410999992023012212004+23267+090700FM-12+000799999V0209999C000019999999N005000199+02121+01501101321ADDAA124000091KA1240M+02751MA1999999101271MD1999999-0181REMSYN06441941 32950 00000 10212 20150 30127 40132 333 10275 59018 70000=
0110419410999992023012215004+23267+090700FM-12+000799999V0209999C000019999999N004000199+01801+01601101481ADDAA124000091MA1999999101421MD1999999-0111REMSYN05841941 32940 00000 10180 20160 30142 40148 333 59011 70000=
0138419410999992023012221004+23267+090700FM-12+000799999V0209999C000019999999N004000199+01681+01501101491ADDAA124000091AY101021AY201021MA1999999101431MD1999999-0031MW1051REMSYN06441941 31940 00000 10168 20150 30143 40149 70500 333 59003 70000=
0138419410999992023012300004+23267+090700FM-12+000799999V0209999C000019999999N004000199+01571+01501101471ADDAA124000091AY101021AY201021MA1999999101411MD1999999-0081MW1051REMSYN06441941 31940 00000 10157 20150 30141 40147 70500 333 59008 70000=
0129419410999992023012303004+23267+090700FM-12+000799999V0203101N001019999999N006000199+02091+01501101641ADDAA124000091KA1240N+01521MA1999999101581MD1999999-0051REMSYN06441941 32956 03102 10209 20150 30158 40164 333 20152 59005 70000=
0110419410999992023012306004+23267+090700FM-12+000799999V0203601N001019999999N006000199+02621+01301101531ADDAA124000091MA1999999101481MD1999999-0091REMSYN05841941 32956 03602 10262 20130 30148 40153 333 59009 70000=
0110419410999992023012309004+23267+090700FM-12+000799999V0209999C000019999999N006000199+02701+01501101251ADDAA124000091MA1999999101201MD1999999-0111REMSYN05841941 32956 00000 10270 20150 30120 40125 333 59011 70000=
0129419410999992023012312004+23267+090700FM-12+000799999V0209999C000019999999N005000199+02201+01801101231ADDAA124000091KA1240M+02771MA1999999101181MD1999999-0091REMSYN06441941 32950 00000 10220 20180 30118 40123 333 10277 59009 70000=
0138419410999992023012315004+23267+090700FM-12+000799999V0209999C000019999999N004000199+01901+01801101371ADDAA124000091AY101021AY201021MA1999999101321MD1999999-0101MW1051REMSYN06441941 31940 00000 10190 20180 30132 40137 70500 333 59010 70000=
0138419410999992023012318004+23267+090700FM-12+000799999V0209999C000019999999N004000199+01751+01701101431ADDAA124000091AY101021AY201021MA1999999101371MD1999999-0071MW1051REMSYN06441941 31940 00000 10175 20170 30137 40143 70500 333 59007 70000=
0138419410999992023012321004+23267+090700FM-12+000799999V0209999C000019999999N004000199+01651+01501101381ADDAA124000091AY101021AY201021MA1999999101321MD1999999-0111MW1051REMSYN06441941 31940 00000 10165 20150 30132 40138 70500 333 59011 70000=
0104419410999992023012400004+23267+090700FM-12+999999999V0209999C0000122000199000800199+01601+01601101511ADDAA124999999AY141999AY201999GF100991999999999999999999MA1999999101451MD1999999+0041MW1451REMSYN004BUFR
0117419410999992023012403004+23267+090700FM-12+999999999V0209999C0000122000199005000199+02101+01101101681ADDAA124999999AY141999AY201999GF100991999999999999999999KA1120N+01581MA1999999101631MD1999999+0051MW1021REMSYN004BUFR
0219419410999992023012412004+23267+090700FM-12+000799999V0209999C000010210019N005000199+02301+01801101221ADDAA124000091GA1041+004501061GA2061+021001041GE19AGL   +99999+99999GF106991041999004501999999KA1240M+02961MA1999999101161REMSYN08841941 32450 60000 10230 20180 30116 40122 85420 333 10296 56990 59002 70000 84615 86457=
0110419410999992023012415004+23267+090700FM-12+000799999V0209999C000019999999N004000199+01981+01701101461ADDAA124000091MA1999999101411MD1999999+0091REMSYN05841941 32940 00000 10198 20170 30141 40146 333 58009 70000=
0110419410999992023012418004+23267+090700FM-12+000799999V0209999C000019999999N004000199+01851+01801101411ADDAA124000091MA1999999101361MD1999999-0011REMSYN05841941 32940 00000 10185 20180 30136 40141 333 59001 70000=
0110419410999992023012421004+23267+090700FM-12+000799999V0209999C000019999999N004000199+01801+01701101381ADDAA124000091MA1999999101331MD1999999+0011REMSYN05841941 32940 00000 10180 20170 30133 40138 333 58001 70000=
0138419410999992023012500004+23267+090700FM-12+000799999V0209999C000019999999N004000199+01681+01601101481ADDAA124000091AY101021AY201021MA1999999101421MD1999999-0031MW1051REMSYN06441941 31940 00000 10168 20160 30142 40148 70500 333 59003 70000=
0219419410999992023012503004+23267+090700FM-12+000799999V0209999C000010240019N005000199+02281+01601101651ADDAA124000091GA1041+004801061GA2061+024001041GE19AGL   +99999+99999GF106991041999004801999999KA1240N+01651MA1999999101591REMSYN08841941 32450 60000 10228 20160 30159 40165 85420 333 20165 56990 59004 70000 84616 86458=
0178419410999992023012506004+23267+090700FM-12+000799999V0203101N001519999999N006000199+02721+01601101491ADDAA124000091GA1041+004501061GE19AGL   +99999+99999GF105991041999004501999999MA1999999101441REMSYN07641941 32456 53103 10272 20160 30144 40149 85500 333 56900 59004 70000 84615=
0110419410999992023012509004+23267+090700FM-12+000799999V0203101N001519999999N006000199+01851+01601101121ADDAA124000091MA1999999101061MD1999999-0171REMSYN05841941 32956 03103 10185 20160 30106 40112 333 59017 70000=
0129419410999992023012512004+23267+090700FM-12+000799999V0203101N001519999999N005000199+02351+01901101141ADDAA124000091KA1240M+02921MA1999999101081MD1999999-0081REMSYN06441941 32950 03103 10235 20190 30108 40114 333 10292 59008 70000=
0110419410999992023012515004+23267+090700FM-12+000799999V0209999C000019999999N004000199+02001+01901101331ADDAA124000091MA1999999101271MD1999999-0141REMSYN05841941 32940 00000 10200 20190 30127 40133 333 59014 70000=
0138419410999992023012518004+23267+090700FM-12+000799999V0209999C000019999999N004000199+01901+01801101461ADDAA124000091AY101021AY201021MA1999999101411MD1999999+0051MW1051REMSYN06441941 32940 00000 10190 20180 30141 40146 70500 333 58005 70000=
0138419410999992023012521004+23267+090700FM-12+000799999V0209999C000019999999N003000199+01801+01701101401ADDAA124000091AY101021AY201021MA1999999101351MD1999999+0021MW1051REMSYN06441941 31930 00000 10180 20170 30135 40140 70500 333 58002 70000=
0138419410999992023012600004+23267+090700FM-12+000799999V0209999C000019999999N003000199+01781+01701101351ADDAA124000091AY101021AY201021MA1999999101291MD1999999-0131MW1051REMSYN06441941 31930 00000 10178 20170 30129 40135 70500 333 59013 70000=
0247419410999992023012603004+23267+090700FM-12+000799999V0209999C000010240019N005000199+02071+01801101591ADDAA124000091AY121021AY201021GA1041+004501061GA2071+024001041GE19AGL   +99999+99999GF107991041999004501999999KA1240N+01751MA1999999101541MW1051REMSYN09441941 31950 70000 10207 20180 30154 40159 70520 85420 333 20175 56990 59003 70000 84615 87458=
0200419410999992023012606004+23267+090700FM-12+000799999V0209999C000010240019N006000199+02641+01801101401ADDAA124000091GA1041+004501061GA2061+024001041GE19AGL   +99999+99999GF106991041999004501999999MA1999999101341REMSYN08241941 32456 60000 10264 20180 30134 40140 85420 333 56990 59010 70000 84615 86458=
0200419410999992023012609004+23267+090700FM-12+000799999V0203101N001510240019N006000199+02851+01901101131ADDAA124000091GA1041+004501061GA2061+024001041GE19AGL   +99999+99999GF106991041999004501999999MA1999999101071REMSYN08241941 32456 63103 10285 20190 30107 40113 85420 333 56990 58001 70000 84615 86458=
0219419410999992023012612004+23267+090700FM-12+000799999V0203601N001510240019N005000199+02361+02101101101ADDAA124000091GA1041+004501061GA2061+024001041GE19AGL   +99999+99999GF106991041999004501999999KA1240M+02901MA1999999101041REMSYN08841941 32450 63603 10236 20210 30104 40110 85420 333 10290 56990 59004 70000 84615 86458=
0138419410999992023012615004+23267+090700FM-12+000799999V0209999C000019999999N004000199+02071+02001101321ADDAA124000091AY121021AY201021MA1999999101261MD1999999-0011MW1051REMSYN06441941 31940 00000 10207 20200 30126 40132 70520 333 59001 70000=
0138419410999992023012621004+23267+090700FM-12+000799999V0209999C000019999999N004000199+01901+01901101291ADDAA124000091AY101021AY201021MA1999999101241MD1999999-0111MW1051REMSYN06441941 31940 00000 10190 20190 30124 40129 70500 333 59011 70000=
0138419410999992023012700004+23267+090700FM-12+000799999V0209999C000019999999N004000199+01881+01881101431ADDAA124000091AY101021AY201021MA1999999101381MD1999999+0091MW1051REMSYN06441941 31940 00000 10188 20188 30138 40143 70500 333 58009 70000=
0157419410999992023012703004+23267+090700FM-12+000799999V0209999C000019999999N004000199+02121+01901101591ADDAA124000091AY101021AY201021KA1240N+01851MA1999999101541MD1999999+0001MW1051REMSYN07041941 31940 00000 10212 20190 30154 40159 70500 333 20185 58000 70000=
0110419410999992023012706004+23267+090700FM-12+000799999V0203601N002119999999N006000199+02601+01601101461ADDAA124000091MA1999999101401MD1999999+0061REMSYN05841941 32456 03604 10260 20160 30140 40146 333 58006 70000=
0110419410999992023012709004+23267+090700FM-12+000799999V0203601N002119999999N006000199+02781+01701101101ADDAA124000091MA1999999101041MD1999999-0031REMSYN05841941 32956 03604 10278 20170 30104 40110 333 59003 70000=
0129419410999992023012712004+23267+090700FM-12+000799999V0203101N001519999999N005000199+02401+01801101101ADDAA124000091KA1240M+02851MA1999999101041MD1999999+0001REMSYN06441941 32950 03103 10240 20180 30104 40110 333 10285 58000 70000=
0110419410999992023012715004+23267+090700FM-12+000799999V0209999C000019999999N004000199+02131+01701101351ADDAA124000091MA1999999101301MD1999999+0041REMSYN05841941 32940 00000 10213 20170 30130 40135 333 58004 70000=
0110419410999992023012718004+23267+090700FM-12+000799999V0209999C000019999999N004000199+02001+01701101321ADDAA124000091MA1999999101261MD1999999-0041REMSYN05841941 32940 00000 10200 20170 30126 40132 333 59004 70000=
0110419410999992023012721004+23267+090700FM-12+000799999V0209999C000019999999N004000199+01901+01701101261ADDAA124000091MA1999999101201MD1999999-0041REMSYN05841941 32940 00000 10190 20170 30120 40126 333 59004 70000=
0138419410999992023012800004+23267+090700FM-12+000799999V0203101N001019999999N004000199+01851+01801101361ADDAA124000091AY101021AY201021MA1999999101311MD1999999-0071MW1051REMSYN06441941 31940 03102 10185 20180 30131 40136 70500 333 59007 70000=
0157419410999992023012803004+23267+090700FM-12+000799999V0203101N001519999999N004000199+02121+01801101561ADDAA124000091AY101021AY201021KA1240N+01821MA1999999101511MD1999999-0031MW1051REMSYN07041941 31940 03103 10212 20180 30151 40156 70500 333 20182 59003 70000=
0110419410999992023012806004+23267+090700FM-12+000799999V0203601N002119999999N005000199+02501+01701101371ADDAA124000091MA1999999101311MD1999999-0091REMSYN05841941 32950 03604 10250 20170 30131 40137 333 59009 70000=
0110419410999992023012809004+23267+090700FM-12+000799999V0203601N002119999999N006000199+02751+01701101111ADDAA124000091MA1999999101051MD1999999+0011REMSYN05841941 32956 03604 10275 20170 30105 40111 333 58001 70000=
0129419410999992023012812004+23267+090700FM-12+000799999V0203601N002119999999N005000199+02351+01901101081ADDAA124000091KA1240M+02781MA1999999101021MD1999999-0021REMSYN06441941 32950 03604 10235 20190 30102 40108 333 10278 59002 70000=
0110419410999992023012815004+23267+090700FM-12+000799999V0203101N001519999999N004000199+02121+01901101321ADDAA124000091MA1999999101261MD1999999-0041REMSYN05841941 32940 03103 10212 20190 30126 40132 333 59004 70000=
0110419410999992023012818004+23267+090700FM-12+000799999V0209999C000019999999N004000199+01981+01901101301ADDAA124000091MA1999999101241MD1999999-0021REMSYN05841941 32940 00000 10198 20190 30124 40130 333 59002 70000=
0110419410999992023012821004+23267+090700FM-12+000799999V0209999C000019999999N004000199+01901+01801101231ADDAA124000091MA1999999101171MD1999999-0031REMSYN05841941 32940 00000 10190 20180 30117 40123 333 59003 70000=
0138419410999992023012900004+23267+090700FM-12+000799999V0203101N001519999999N004000199+01721+01701101411ADDAA124000091AY101021AY201021MA1999999101351MD1999999+0051MW1051REMSYN06441941 31940 03103 10172 20170 30135 40141 70500 333 58005 70000=
0157419410999992023012903004+23267+090700FM-12+000799999V0203601N001519999999N004000199+01781+01701101581ADDAA124000091AY101021AY201021KA1240N+01681MA1999999101521MD1999999+0011MW1051REMSYN07041941 31940 03603 10178 20170 30152 40158 70500 333 20168 58001 70000=
0200419410999992023012906004+23267+090700FM-12+000799999V0203601N002110240019N005000199+02101+01701101481ADDAA124000091GA1041+004501061GA2061+024001041GE19AGL   +99999+99999GF106991041999004501999999MA1999999101431REMSYN08241941 32450 63604 10210 20170 30143 40148 85420 333 56990 58012 70000 84615 86458=
0110419410999992023012909004+23267+090700FM-12+000799999V0203601N002619999999N006000199+02321+01701101181ADDAA124000091MA1999999101121MD1999999+0071REMSYN05841941 32956 03605 10232 20170 30112 40118 333 58007 70000=
0157419410999992023012912004+23267+090700FM-12+000799999V0203601N002119999999N004000199+02001+01801101161ADDAA124000091AY121021AY201021KA1240M+02351MA1999999101101MD1999999+0081MW1051REMSYN07041941 31940 03604 10200 20180 30110 40116 70520 333 10235 58008 70000=
0138419410999992023012915004+23267+090700FM-12+000799999V0209999C000019999999N004000199+01781+01701101571ADDAA124000091AY101021AY201021MA1999999101521MD1999999+0261MW1051REMSYN06441941 31940 00000 10178 20170 30152 40157 70500 333 58026 70000=
0138419410999992023012918004+23267+090700FM-12+000799999V0209999C000019999999N004000199+01721+01601101551ADDAA124000091AY101021AY201021MA1999999101491MD1999999+0251MW1051REMSYN06441941 31940 00000 10172 20160 30149 40155 70500 333 58025 70000=
0138419410999992023012921004+23267+090700FM-12+000799999V0209999C000019999999N004000199+01651+01601101491ADDAA124000091AY101021AY201021MA1999999101431MD1999999+0261MW1051REMSYN06441941 31940 00000 10165 20160 30143 40149 70500 333 58026 70000=
0200419410999992023013000004+23267+090700FM-12+000799999V0209999C00001001201WN000600199+01551+01551101531ADDAA124000091AY141021AY201021GA1091+999999999GE19AGL   +99999+99999GF109991091999999999999999MA1999999101471MW1451REMSYN07641941 31/06 90000 10155 20155 30147 40153 74540 89/// 333 56999 58012 70000=
0157419410999992023013003004+23267+090700FM-12+000799999V0203101N001519999999N005000199+01821+01701101701ADDAA124000091AY141021AY201021KA1240N+01501MA1999999101641MD1999999+0121MW1021REMSYN07041941 31950 03103 10182 20170 30164 40170 70240 333 20150 58012 70000=
0138419410999992023013006004+23267+090700FM-12+000799999V0203601N002119999999N006000199+02261+02001101491ADDAA124000091AY141021AY201021MA1999999101441MD1999999+0011MW1021REMSYN06441941 31956 03604 10226 20200 30144 40149 70240 333 58001 70000=
0110419410999992023013009004+23267+090700FM-12+000799999V0203101N002119999999N006000199+02761+01501101221ADDAA124000091MA1999999101171MD1999999-0051REMSYN05841941 32956 03104 10276 20150 30117 40122 333 59005 70000=
0219419410999992023013012004+23267+090700FM-12+000799999V0203101N00151090001CN005000199+02251+01701101131ADDAA124000091GA1021+004501061GA2051+090001001GE19AGL   +99999+99999GF106991021999004501999999KA1240M+02801MA1999999101071REMSYN08841941 32450 63103 10225 20170 30107 40113 82501 333 10280 56909 59003 70000 82615 85080=
0110419410999992023013015004+23267+090700FM-12+000799999V0209999C000019999999N004000199+01901+01701101381ADDAA124000091MA1999999101331MD1999999-0191REMSYN05841941 32940 00000 10190 20170 30133 40138 333 59019 70000=
0110419410999992023013018004+23267+090700FM-12+000799999V0209999C000019999999N004000199+01801+01701101401ADDAA124000091MA1999999101351MD1999999-0141REMSYN05841941 32940 00000 10180 20170 30135 40140 333 59014 70000=
0110419410999992023013021004+23267+090700FM-12+000799999V0209999C000019999999N004000199+01751+01701101351ADDAA124000091MA1999999101291MD1999999-0141REMSYN05841941 32940 00000 10175 20170 30129 40135 333 59014 70000=
0138419410999992023013100004+23267+090700FM-12+000799999V0209999C000019999999N004000199+01721+01601101351ADDAA124000091AY101021AY201021MA1999999101291MD1999999-0181MW1051REMSYN06441941 31940 00000 10172 20160 30129 40135 70500 333 59018 70000=
0247419410999992023013103004+23267+090700FM-12+000799999V0209999C00001090001CN005000199+02201+01801101511ADDAA124000091AY101021AY201021GA1021+004501061GA2051+090001001GE19AGL   +99999+99999GF199999021999004501999999KA1240N+01681MA1999999101451MW1051REMSYN09441941 31950 00000 10220 20180 30145 40151 70500 85420 333 20168 56990 59019 70000 82615 85080=
0200419410999992023013106004+23267+090700FM-12+000799999V0203601N001510240019N005000199+02621+01801101351ADDAA124000091GA1041+004501061GA2061+024001041GE19AGL   +99999+99999GF106991041999004501999999MA1999999101301REMSYN08241941 32450 63603 10262 20180 30130 40135 85420 333 56990 59014 70000 84615 86458=
0208419410999992023013109004+23267+090700FM-12+000799999V0203101N002110240019N006000199+02781+01701101041ADDAA124000091GA1041+004501061GA2061+024001041GE19AGL   +99999+99999GF106991041999004501999999MA1999999100981MD1999999-0191REMSYN07641941 32456 63104 10278 20170 30098 40104 85420 333 59019 70000 84615 86458=
0219419410999992023013112004+23267+090700FM-12+000799999V0209999C000010240019N005000199+02401+01901101021ADDAA124000091GA1041+004501061GA2061+024001041GE19AGL   +99999+99999GF106991041999004501999999KA1240M+02881MA1999999100961REMSYN08841941 32450 60000 10240 20190 30096 40102 85420 333 10288 56990 59011 70000 84615 86458=
0200419410999992023013115004+23267+090700FM-12+000799999V0209999C000010240019N004000199+02261+01901101241ADDAA124000091GA1041+004501061GA2071+024001041GE19AGL   +99999+99999GF107991041999004501999999MA1999999101191REMSYN08241941 32440 70000 10226 20190 30119 40124 85420 333 56990 59014 70000 84615 87458=
0200419410999992023013118004+23267+090700FM-12+000799999V0203101N001510240019N004000199+02201+01901101271ADDAA124000091GA1041+004501061GA2071+024001041GE19AGL   +99999+99999GF107991041999004501999999MA1999999101221REMSYN08241941 32440 73103 10220 20190 30122 40127 85420 333 56990 59013 70000 84615 87458=
0200419410999992023013121004+23267+090700FM-12+000799999V0209999C000010240019N004000199+02101+02001101221ADDAA124000091GA1041+004501061GA2071+024001041GE19AGL   +99999+99999GF107991041999004501999999MA1999999101171REMSYN08241941 32440 70000 10210 20200 30117 40122 85420 333 56990 59012 70000 84615 87458=
0228419410999992023020100004+23267+090700FM-12+000799999V0203101N002110240019N005000199+02061+02001101181ADDAA124000091AY121021AY221021GA1041+004801061GA2061+024001041GE19AGL   +99999+99999GF106991041999004801999999MA1999999101121MW1051REMSYN08841941 31450 63104 10206 20200 30112 40118 70522 85420 333 56990 59017 70000 84616 86458=
0219419410999992023020103004+23267+090700FM-12+000799999V0203101N00151090001CN005000199+02201+01901101321ADDAA124000091GA1031+004501061GA2051+090001001GE19AGL   +99999+99999GF106991031999004501999999KA1240N+01981MA1999999101261REMSYN08841941 32450 63103 10220 20190 30126 40132 83501 333 20198 56909 59009 70000 83615 85080=
0208419410999992023020106004+23267+090700FM-12+000799999V0203601N00151090001CN005000199+02451+01701101471ADDAA124000091GA1031+004501061GA2051+090001001GE19AGL   +99999+99999GF106991031999004501999999MA1999999101411MD1999999+0111REMSYN07641941 32450 63603 10245 20170 30141 40147 83501 333 58011 70000 83615 85080=
0082419410999992023020512004+23267+090700FM-12+999999999V0209999C0000122000199005000199+02201+01601101071ADDAA124999999GF100991999999999999999999MA1999999101011MD1999999+0131REMSYN004BUFR
0082419410999992023020812004+23267+090700FM-12+999999999V0202601N0010122000199005000199+02401+02001101031ADDAA124999999GF100991999999999999999999MA1999999100971MD1999999+0031REMSYN004BUFR
0123419410999992023020918004+23267+090700FM-12+999999999V0209999C0000122000199004000199+01211+99999101411ADDAA124999999AY111999AY201999GF100991999999999999999999MA1999999101351MD1999999+0091MW1051REMSYN004BUFREQDQ0120    2ATOD  
0082419410999992023021306004+23267+090700FM-12+999999999V0203601N0015122000199006000199+02711+00001101431ADDAA124999999GF100991999999999999999999MA1999999101371MD1999999+0071REMSYN004BUFR
0082419410999992023021721004+23267+090700FM-12+999999999V0209999C0000122000199004000199+01821+01701101271ADDAA124999999GF100991999999999999999999MA1999999101211MD1999999-0021REMSYN004BUFR
0104419410999992023021800004+23267+090700FM-12+999999999V0209999C0000122000199004000199+01821+01801101531ADDAA124999999AY101999AY201999GF100991999999999999999999MA1999999101471MD1999999+0011MW1051REMSYN004BUFR
0082419410999992023021821004+23267+090700FM-12+999999999V0209999C0000122000199004000199+02001+01901101341ADDAA124999999GF100991999999999999999999MA1999999101281MD1999999+0071REMSYN004BUFR
0104419410999992023021900004+23267+090700FM-12+999999999V0209999C0000122000199004000199+02001+01901101361ADDAA124999999AY101999AY201999GF100991999999999999999999MA1999999101301MD1999999-0171MW1051REMSYN004BUFR
0149419410999992023021903004+23267+090700FM-12+999999999V0203101N0015102400199005000199+02301+01901101621ADDAA124999999GA1041+045001011GA2071+024001041GE19AGL   +99999+99999GF107991041999045001999999KA1120N+01981MA1999999101561MD1999999-0031REMSYN004BUFR
0136419410999992023021912004+23267+090700FM-12+999999999V0209999C0000102400199005000199+02551+02101101161ADDAA124999999GA1041+004801061GA2061+024001041GE19AGL   +99999+99999GF106991041999004801999999MA1999999101101MD1999999-0061REMSYN004BUFR
0082419410999992023022318004+23267+090700FM-12+999999999V0201801N0010122000199004000199+02401+02301101311ADDAA124999999GF100991999999999999999999MA1999999101261MD1999999+0121REMSYN004BUFR
0082419410999992023022706004+23267+090700FM-12+999999999V0209999C0000122000199006000199+03151+01401101811ADDAA124999999GF100991999999999999999999MA1999999101751MD1999999-0021REMSYN004BUFR
0082419410999992023030109004+23267+090700FM-12+999999999V0202701N0015122000199007000199+03201+01201101511ADDAA124999999GF100991999999999999999999MA1999999101451MD1999999-0021REMSYN004BUFR
0082419410999992023030418004+23267+090700FM-12+999999999V0209999C0000122000199004000199+02301+02001101531ADDAA124999999GF100991999999999999999999MA1999999101471MD1999999-0061REMSYN004BUFR
0149419410999992023031503004+23267+090700FM-12+999999999V0202301N0015102400199005000199+02671+02401101251ADDAA124999999GA1041+004801061GA2071+024001041GE19AGL   +99999+99999GF107991041999004801999999KA1120N+02201MA1999999101191MD1999999+0041REMSYN004BUFR
0149419410999992023032103004+23267+090700FM-12+999999999V0209999C00001004805C9007000199+02551+02201101111ADDAA124046031GA1051+004801061GA2061+024001041GE19AGL   +99999+99999GF106991051999004801999999KA1120N+01981MA1999999101051MD1999999-0091REMSYN004BUFR
0200419410999992023032206004+23267+090700FM-12+000799999V0202701N001010240019N006000199+02771+02101101121ADDAA124036031GA1041+004801061GA2061+024001041GE19AGL   +99999+99999GF106991041999004801999999MA1999999101071REMSYN08241941 32456 62702 10277 20210 30107 40112 85420 333 56990 58003 70360 84616 86458=
0200419410999992023032306004+23267+090700FM-12+000799999V0201801N001510240019N006000199+03001+02101101051ADDAA124000091GA1041+004801061GA2061+024001041GE19AGL   +99999+99999GF106991041999004801999999MA1999999101001REMSYN08241941 32456 61803 10300 20210 30100 40105 85420 333 56990 59007 70000 84616 86458=
0200419410999992023032309004+23267+090700FM-12+000799999V0201801N002110240019N006000199+02901+02101100781ADDAA124000091GA1041+004801061GA2061+024001041GE19AGL   +99999+99999GF106991041999004801999999MA1999999100731REMSYN08241941 32456 61804 10290 20210 30073 40078 85420 333 56990 59002 70000 84616 86458=
0241419410999992023032312004+23267+090700FM-12+000799999V0209999C00001004201CN005000199+02531+01901100861ADDAA124000091GA1051+004201061GA2011+007501091GA3081+018001041GE19AGL   +99999+99999GF108991051999004201999999KA1240M+03151MA1999999100801REMSYN09441941 31450 80000 10253 20190 30080 40086 8692/ 333 10315 56999 58019 70000 85614 81925 88456=
0228419410999992023032318004+23267+090700FM-12+000799999V0201801N001510240019N004000199+02201+02001101091ADDAA124000091AY191021AY221021GA1041+004801061GA2061+024001041GE19AGL   +99999+99999GF106991041999004801999999MA1999999101041MW1011REMSYN08841941 31440 61803 10220 20200 30104 40109 70192 85420 333 56990 58020 70000 84616 86458=
0200419410999992023032321004+23267+090700FM-12+000799999V0209999C000010240019N004000199+02101+02001101011ADDAA124000091GA1041+004801061GA2061+024001041GE19AGL   +99999+99999GF106991041999004801999999MA1999999100961REMSYN08241941 32440 60000 10210 20200 30096 40101 85420 333 56990 58016 70000 84616 86458=
0200419410999992023032400004+23267+090700FM-12+000799999V0209999C000010240019N005000199+02051+02051100951ADDAA124000091GA1041+004501061GA2061+024001041GE19AGL   +99999+99999GF106991041999004501999999MA1999999100891REMSYN08241941 32450 60000 10205 20205 30089 40095 85420 333 56990 58013 70000 84615 86458=
0149419410999992023032403004+23267+090700FM-12+999999999V0201801N0015102400199006000199+02701+02301101261ADDAA124999999GA1041+004501061GA2061+024001041GE19AGL   +99999+99999GF106991041999004501999999KA1120N+02041MA1999999101211MD1999999+0351REMSYN004BUFR
0178419410999992023032406004+23267+090700FM-12+000799999V0201801N001512200019N006000199+03001+02201101211ADDAA124000091GA1041+008401081GE19AGL   +99999+99999GF104991041999008401999999MA1999999101161REMSYN07641941 32656 41803 10300 20220 30116 40121 84200 333 56900 58016 70000 84828=
0200419410999992023032409004+23267+090700FM-12+000799999V0209999C000010240019N006000199+03021+02201100981ADDAA124000091GA1041+004801061GA2061+024001041GE19AGL   +99999+99999GF106991041999004801999999MA1999999100921REMSYN08241941 32456 60000 10302 20220 30092 40098 85420 333 56990 58019 70000 84616 86458=
0241419410999992023032412004+23267+090700FM-12+000799999V0209999C00001004801CN005000199+02851+02201100931ADDAA124000091GA1051+004801061GA2011+009001091GA3081+024001041GE19AGL   +99999+99999GF108991051999004801999999KA1240M+03161MA1999999100881REMSYN09441941 32450 80000 10285 20220 30088 40093 8632/ 333 10316 56999 58008 70000 85616 81930 88458=
0136419410999992023032415004+23267+090700FM-12+999999999V0201801N0020102400199004000199+02501+02201101141ADDAA124999999GA1041+004801061GA2061+024001041GE19AGL   +99999+99999GF106991041999004801999999MA1999999101081MD1999999+0061REMSYN004BUFR
0136419410999992023032418004+23267+090700FM-12+999999999V0209999C0000102400199004000199+02351+02101101191ADDAA124999999GA1041+004801061GA2061+024001041GE19AGL   +99999+99999GF106991041999004801999999MA1999999101131MD1999999+0091REMSYN004BUFR
0200419410999992023032421004+23267+090700FM-12+000799999V0209999C000010240019N004000199+02251+02101101031ADDAA124000091GA1041+004801061GA2061+024001041GE19AGL   +99999+99999GF106991041999004801999999MA1999999100981REMSYN08241941 32440 60000 10225 20210 30098 40103 85420 333 56990 58002 70000 84616 86458=
0228419410999992023032500004+23267+090700FM-12+000799999V0209999C000010240019N004000199+02301+02301101071ADDAA124000091AY121021AY221021GA1041+004501061GA2061+024001041GE19AGL   +99999+99999GF106991041999004501999999MA1999999101021MW1051REMSYN08841941 31440 60000 10230 20230 30102 40107 70522 85420 333 56990 58013 70000 84615 86458=
0219419410999992023032503004+23267+090700FM-12+000799999V0209999C000010240019N005000199+02821+02501101371ADDAA124000091GA1041+004501061GA2071+024001041GE19AGL   +99999+99999GF107991041999004501999999KA1240N+02251MA1999999101311REMSYN08841941 32450 70000 10282 20250 30131 40137 85420 333 20225 56990 58010 70000 84615 87458=
0200419410999992023032506004+23267+090700FM-12+000799999V0202301N001510240019N005000199+03051+02301101351ADDAA124000091GA1041+004501061GA2071+024001041GE19AGL   +99999+99999GF107991041999004501999999MA1999999101291REMSYN08241941 32450 72303 10305 20230 30129 40135 85420 333 56990 58013 70000 84615 87458=
0200419410999992023032509004+23267+090700FM-12+000799999V0201801N001510240019N006000199+03201+02101100991ADDAA124000091GA1041+004801061GA2061+024001041GE19AGL   +99999+99999GF106991041999004801999999MA1999999100931REMSYN08241941 32456 61803 10320 20210 30093 40099 85420 333 56990 58001 70000 84616 86458=
0269419410999992023032512004+23267+090700FM-12+000799999V0209999C00001004201CN005000199+02841+02301100881ADDAA124000091AY191021AY221021GA1051+004201061GA2011+007801091GA3081+021001041GE19AGL   +99999+99999GF108991051999004201999999KA1240M+03301MA1999999100831MW1171REMSYN10041941 31450 80000 10284 20230 30083 40088 71792 8692/ 333 10330 56999 59005 70000 85614 81926 88457=
0267419410999992023032515004+23267+090700FM-12+000799999V0209999C00001003601CN004000199+02351+02351101071ADDAA103011031AA224011031AY191021AY261021GA1051+003601061GA2011+007501091GA3081+018001041GE19AGL   +99999+99999GF108991051999003601999999MA1999999101011MW1291REMSYN10041941 21440 80000 10235 20235 30101 40107 72996 8632/ 333 56999 59007 6011/ 70110 85612 81925 88456=
0245419410999992023032518004+23267+090700FM-12+000799999V0209999C000010240019N004000199+02301+02301101071ADDAA102011031AA224011031AY191021AY261021GA1041+004801061GA2071+024001041GE19AGL   +99999+99999GF107991041999004801999999MA1999999101011MW1011REMSYN09441941 11440 70000 10230 20230 30101 40107 60116 70196 85420 333 56990 59012 70110 84616 87458=
0222419410999992023032521004+23267+090700FM-12+000799999V0209999C00001004801CN004000199+02341+02201100931ADDAA124011031GA1051+004801061GA2011+009001091GA3081+024001041GE19AGL   +99999+99999GF108991051999004801999999MA1999999100881REMSYN08841941 32440 80000 10234 20220 30088 40093 8632/ 333 56999 59010 70110 85616 81930 88458=
0222419410999992023032600004+23267+090700FM-12+000799999V0209999C00001004501CN004000199+02401+02401100911ADDAA124011031GA1051+004501061GA2011+008401091GA3081+024001041GE19AGL   +99999+99999GF108991051999004501999999MA1999999100861REMSYN08841941 32440 80000 10240 20240 30086 40091 8632/ 333 56999 59016 70110 85615 81928 88458=
0241419410999992023032603004+23267+090700FM-12+000799999V0201801N00151004501CN004000199+02781+02401101121ADDAA124011031GA1051+004501061GA2011+008401091GA3081+024001041GE19AGL   +99999+99999GF108991051999004501999999KA1240N+02301MA1999999101061REMSYN09441941 32440 81803 10278 20240 30106 40112 8632/ 333 20230 56999 59023 70110 85615 81928 88458=
0200419410999992023032606004+23267+090700FM-12+000799999V0209999C000010240019N005000199+03051+02401101081ADDAA124011031GA1041+004801061GA2061+024001041GE19AGL   +99999+99999GF106991041999004801999999MA1999999101021REMSYN08241941 32450 60000 10305 20240 30102 40108 85420 333 56990 59027 70110 84616 86458=
0200419410999992023032609004+23267+090700FM-12+000799999V0201801N001510240019N006000199+03231+02401100771ADDAA124011031GA1041+004801061GA2061+024001041GE19AGL   +99999+99999GF106991041999004801999999MA1999999100721REMSYN08241941 32456 61803 10323 20240 30072 40077 85420 333 56990 59021 70110 84616 86458=
0219419410999992023032612004+23267+090700FM-12+000799999V0201801N001510240019N005000199+02601+02301100741ADDAA124011031GA1041+004801061GA2061+024001041GE19AGL   +99999+99999GF106991041999004801999999KA1240M+03261MA1999999100681REMSYN08841941 32450 61803 10260 20230 30068 40074 85420 333 10326 56990 59015 70110 84616 86458=
0262419410999992023032615004+23267+090700FM-12+000799999V0201801N001010240019N004000199+02221+01901100851ADDAA102003031AA203003031AA324003031AY161021AY221021GA1041+004801061GA2061+024001041GE19AGL   +99999+99999GF106991041999004801999999MA1999999100791MW1021REMSYN10041941 21440 61802 10222 20190 30079 40085 60036 70262 85420 333 56990 59022 6003/ 70030 84616 86458=
0267419410999992023032621004+23267+090700FM-12+000799999V0209999C00001004801CN004000199+02151+02101100791ADDAA103001031AA224004031AY161021AY221021GA1051+004801061GA2011+009001091GA3081+024001041GE19AGL   +99999+99999GF108991051999004801999999MA1999999100731MW1031REMSYN10041941 21440 80000 10215 20210 30073 40079 70362 8632/ 333 56999 59015 6001/ 70040 85616 81930 88458=
0245419410999992023032700004+23267+090700FM-12+000799999V0209999C000010240019N005000199+02381+02201100741ADDAA101001031AA224004031AY161021AY221021GA1041+004801061GA2061+024001041GE19AGL   +99999+99999GF106991041999004801999999MA1999999100681MW1011REMSYN09441941 11450 60000 10238 20220 30068 40074 60015 70162 85420 333 56990 59018 70040 84616 86458=
0219419410999992023032703004+23267+090700FM-12+000799999V0209999C000010240019N006000199+02601+02301101081ADDAA124004031GA1041+004801061GA2061+024001041GE19AGL   +99999+99999GF106991041999004801999999KA1240N+02151MA1999999101031REMSYN08841941 32456 60000 10260 20230 30103 40108 85420 333 20215 56990 59003 70040 84616 86458=
0200419410999992023032706004+23267+090700FM-12+000799999V0202601N001510240019N006000199+03051+02401101021ADDAA124004031GA1041+004801061GA2061+024001041GE19AGL   +99999+99999GF106991041999004801999999MA1999999100951REMSYN08241941 32456 62603 10305 20240 30095 40102 85420 333 56990 59007 70040 84616 86458=
0200419410999992023032709004+23267+090700FM-12+000799999V0203101N001010240019N006000199+03121+02201100881ADDAA124004031GA1041+004801061GA2061+024001041GE19AGL   +99999+99999GF106991041999004801999999MA1999999100831REMSYN08241941 32456 63102 10312 20220 30083 40088 85420 333 56990 58011 70040 84616 86458=
0219419410999992023032712004+23267+090700FM-12+000799999V0201801N001010240019N005000199+02571+02201100851ADDAA124004031GA1041+004801061GA2061+024001041GE19AGL   +99999+99999GF106991041999004801999999KA1240M+03251MA1999999100791REMSYN08841941 32450 61802 10257 20220 30079 40085 85420 333 10325 56990 58011 70040 84616 86458=
0200419410999992023032715004+23267+090700FM-12+000799999V0201801N001510240019N004000199+02451+02301100831ADDAA124001031GA1041+004801061GA2061+024001041GE19AGL   +99999+99999GF106991041999004801999999MA1999999100771REMSYN08241941 32440 61803 10245 20230 30077 40083 85420 333 56990 59002 70010 84616 86458=
0200419410999992023032721004+23267+090700FM-12+000799999V0201801N001010240019N004000199+02421+02201100821ADDAA124000091GA1041+004801061GA2061+024001041GE19AGL   +99999+99999GF106991041999004801999999MA1999999100761REMSYN08241941 32440 61802 10242 20220 30076 40082 85420 333 56990 58003 70000 84616 86458=
0200419410999992023032800004+23267+090700FM-12+000799999V0209999C000010240019N005000199+02401+02301100821ADDAA124000091GA1041+004801061GA2061+024001041GE19AGL   +99999+99999GF106991041999004801999999MA1999999100771REMSYN08241941 32450 60000 10240 20230 30077 40082 85420 333 56990 58009 70000 84616 86458=
0219419410999992023032803004+23267+090700FM-12+000799999V0209999C000010240019N006000199+02611+02301100981ADDAA124000091GA1041+004801061GA2061+024001041GE19AGL   +99999+99999GF106991041999004801999999KA1240N+02351MA1999999100921REMSYN08841941 32456 60000 10261 20230 30092 40098 85420 333 20235 56990 59011 70000 84616 86458=
0200419410999992023032806004+23267+090700FM-12+000799999V0201801N001010240019N006000199+03201+02401101031ADDAA124000091GA1041+004801061GA2061+024001041GE19AGL   +99999+99999GF106991041999004801999999MA1999999100971REMSYN08241941 32456 61802 10320 20240 30097 40103 85420 333 56990 59002 70000 84616 86458=
0200419410999992023032809004+23267+090700FM-12+000799999V0201801N001510240019N006000199+03291+01901100851ADDAA124000091GA1041+004801061GA2061+024001041GE19AGL   +99999+99999GF106991041999004801999999MA1999999100801REMSYN08241941 32456 61803 10329 20190 30080 40085 85420 333 56990 59003 70000 84616 86458=
0219419410999992023032812004+23267+090700FM-12+000799999V0209999C000010240019N005000199+03001+02101100831ADDAA124000091GA1041+004801061GA2061+024001041GE19AGL   +99999+99999GF106991041999004801999999KA1240M+03371MA1999999100781REMSYN08841941 32450 60000 10300 20210 30078 40083 85420 333 10337 56990 59001 70000 84616 86458=
0245419410999992023032815004+23267+090700FM-12+000799999V0209999C000010240019N004000199+02501+02201101041ADDAA103001031AA224001031AY161021AY221021GA1041+004801061GA2061+024001041GE19AGL   +99999+99999GF106991041999004801999999MA1999999100981MW1021REMSYN09441941 21440 60000 10250 20220 30098 40104 70262 85420 333 56990 58021 6001/ 70010 84616 86458=
0245419410999992023032818004+23267+090700FM-12+000799999V0209999C000010240019N004000199+02451+02201101091ADDAA101001031AA224001031AY161021AY211021GA1041+004801061GA2061+024001041GE19AGL   +99999+99999GF106991041999004801999999MA1999999101031MW1021REMSYN09441941 11440 60000 10245 20220 30103 40109 60015 70261 85420 333 56990 58028 70010 84616 86458=
0200419410999992023032821004+23267+090700FM-12+000799999V0209999C000010240019N004000199+02401+02201101031ADDAA124001031GA1041+004801061GA2061+024001041GE19AGL   +99999+99999GF106991041999004801999999MA1999999100971REMSYN08241941 32440 60000 10240 20220 30097 40103 85420 333 56990 58021 70010 84616 86458=
0222419410999992023032900004+23267+090700FM-12+000799999V0202701N00101004801CN005000199+02451+02451101081ADDAA124001031GA1051+004801061GA2011+009001091GA3081+024001041GE19AGL   +99999+99999GF108991051999004801999999MA1999999101021REMSYN08841941 32450 82702 10245 20245 30102 40108 8632/ 333 56999 58025 70010 85616 81930 88458=
0241419410999992023032903004+23267+090700FM-12+000799999V0209999C00001004801CN006000199+02751+02601101341ADDAA124001031GA1051+004801061GA2011+009001091GA3081+024001041GE19AGL   +99999+99999GF108991051999004801999999KA1240N+02401MA1999999101281REMSYN09441941 32456 80000 10275 20260 30128 40134 8632/ 333 20240 56999 58036 70010 85616 81930 88458=
0267419410999992023032906004+23267+090700FM-12+000799999V0203601N00151004201CN005000199+02201+02201101361ADDAA124023032AA224024032AY191021AY261021GA1051+004201061GA2011+007501091GA3081+018001041GE19AGL   +99999+99999GF108991051999004201999999MA1999999101301MW1291REMSYN10041941 11450 83603 10220 20220 30130 40136 60234 72996 8692/ 333 56999 58033 70240 85614 81925 88456=
0222419410999992023032909004+23267+090700FM-12+000799999V0200801N00151004801CN005000199+02661+02501100971ADDAA124024031GA1051+004801061GA2011+009001091GA3081+024001041GE19AGL   +99999+99999GF108991051999004801999999MA1999999100911REMSYN08841941 32450 80803 10266 20250 30091 40097 8632/ 333 56999 58011 70240 85616 81930 88458=
0264419410999992023032912004+23267+090700FM-12+000799999V0200801N001510240019N005000199+02451+02201100951ADDAA124001032AA224025032AY161021AY221021GA1041+004801061GA2061+024001041GE19AGL   +99999+99999GF106991041999004801999999KA1240M+02971MA1999999100891MW1011REMSYN10041941 11450 60803 10245 20220 30089 40095 60014 70162 85420 333 10297 56990 58011 70250 84616 86458=
0200419410999992023032915004+23267+090700FM-12+000799999V0209999C000010240019N004000199+02331+02201101161ADDAA124024031GA1041+004801061GA2061+024001041GE19AGL   +99999+99999GF106991041999004801999999MA1999999101091REMSYN08241941 32440 60000 10233 20220 30109 40116 85420 333 56990 58011 70240 84616 86458=
0200419410999992023032918004+23267+090700FM-12+000799999V0209999C000010240019N004000199+02281+02281101111ADDAA124024031GA1041+004801061GA2061+024001041GE19AGL   +99999+99999GF106991041999004801999999MA1999999101051REMSYN08241941 32440 60000 10228 20228 30105 40111 85420 333 56990 58002 70240 84616 86458=
0200419410999992023032921004+23267+090700FM-12+000799999V0209999C000010240019N004000199+02251+02251101071ADDAA124024031GA1041+004801061GA2061+024001041GE19AGL   +99999+99999GF106991041999004801999999MA1999999101011REMSYN08241941 32440 60000 10225 20225 30101 40107 85420 333 56990 58004 70240 84616 86458=
0222419410999992023033000004+23267+090700FM-12+000799999V0209999C00001004801CN005000199+02121+02101101041ADDAA124024031GA1051+004801061GA2011+009001091GA3081+024001041GE19AGL   +99999+99999GF108991051999004801999999MA1999999100981REMSYN08841941 32450 80000 10212 20210 30098 40104 8632/ 333 56999 58002 70240 85616 81930 88458=
0241419410999992023033003004+23267+090700FM-12+000799999V0209999C00001004801CN005000199+02551+02401101191ADDAA124024031GA1051+004801061GA2011+009001091GA3081+024001041GE19AGL   +99999+99999GF108991051999004801999999KA1240N+02101MA1999999101131REMSYN09441941 32450 80000 10255 20240 30113 40119 8632/ 333 20210 56999 59015 70240 85616 81930 88458=
0222419410999992023033006004+23267+090700FM-12+000799999V0200901N00151004501CN005000199+02961+02401101071ADDAA124001031GA1051+004501061GA2011+008701091GA3081+027001041GE19AGL   +99999+99999GF108991051999004501999999MA1999999101011REMSYN08841941 32450 80903 10296 20240 30101 40107 8632/ 333 56999 59029 70010 85615 81929 88459=
0110419410999992023033009004+23267+090700FM-12+000799999V0200901N001519999999N007000199+03151+02601100771ADDAA124001031MA1999999100721MD1999999-0191REMSYN05841941 32957 00903 10315 20260 30072 40077 333 59019 70010=
0219419410999992023033012004+23267+090700FM-12+000799999V0209999C000010240019N006000199+03001+02401100661ADDAA124000091GA1041+004501061GA2071+024001041GE19AGL   +99999+99999GF107991041999004501999999KA1240M+03221MA1999999100611REMSYN08841941 32456 70000 10300 20240 30061 40066 85420 333 10322 56990 59028 70000 84615 87458=
0174419410999992023033015004+23267+090700FM-12+999999999V0203101N00411003605C9003000199+02501+02201100861ADDAA124015031AY191999AY261999GA1051+003601061GA2021+007501091GA3081+018001041GE19AGL   +99999+99999GF108991051999003601999999MA1999999100801MD1999999-0291MW1951REMSYN004BUFR
0267419410999992023033018004+23267+090700FM-12+000799999V0209999C00001003601CN004000199+02101+02101100931ADDAA103027031AA224027031AY191021AY261021GA1051+003601061GA2021+007501091GA3081+018001041GE19AGL   +99999+99999GF108991051999003601999999MA1999999100871MW1291REMSYN10041941 11440 80000 10210 20210 30087 40093 60277 72996 8792/ 333 56999 59018 70270 85612 82925 88456=
0267419410999992023033021004+23267+090700FM-12+000799999V0200401N00261003601CN004000199+02041+01901100901ADDAA103015031AA224042031AY191021AY261021GA1051+003601061GA2011+007201091GA3081+018001041GE19AGL   +99999+99999GF108991051999003601999999MA1999999100841MW1291REMSYN10041941 21440 80405 10204 20190 30084 40090 72996 8792/ 333 56999 59017 6015/ 70420 85612 81924 88456=
0245419410999992023033100004+23267+090700FM-12+000799999V0200401N001510240019N004000199+01971+01971100971ADDAA109015031AA224042031AY191021AY261021GA1041+004801061GA2071+024001041GE19AGL   +99999+99999GF107991041999004801999999MA1999999100911MW1011REMSYN09441941 11440 70403 10197 20197 30091 40097 60158 70196 85420 333 56990 59007 70420 84616 87458=
0219419410999992023033103004+23267+090700FM-12+000799999V0200401N001510240019N005000199+02501+02101101201ADDAA124042031GA1041+004501061GA2071+024001041GE19AGL   +99999+99999GF107991041999004501999999KA1240N+01941MA1999999101151REMSYN08841941 32450 70403 10250 20210 30115 40120 85420 333 20194 56990 58002 70420 84615 87458=
0189419410999992023033106004+23267+090700FM-12+000799999V0200901N002119999999N004000199+02801+02201101181ADDGA1999+004501999GE19AGL   +99999+99999GF108991999999004501999999MA1999999101121MD1619999+9999REMSYN08441941 32440 80904 10280 20220 30112 40118 56999 58011 70420 81928 85614 8632/ 88456=
0222419410999992023033109004+23267+090700FM-12+000799999V0200901N00151004201CN004000199+02901+02201100891ADDAA124042031GA1051+004201061GA2011+008401091GA3081+018001041GE19AGL   +99999+99999GF108991051999004201999999MA1999999100841REMSYN08841941 32440 80903 10290 20220 30084 40089 8632/ 333 56999 58012 70420 85614 81928 88456=
0241419410999992023033112004+23267+090700FM-12+000799999V0209999C00001004201CN004000199+02751+02401100881ADDAA124042031GA1051+004201061GA2011+008401091GA3081+018001041GE19AGL   +99999+99999GF108991051999004201999999KA1240M+03101MA1999999100831REMSYN09441941 32440 80000 10275 20240 30083 40088 8632/ 333 10310 56999 58022 70420 85614 81928 88456=
0222419410999992023033115004+23267+090700FM-12+000799999V0209999C00001004201CN004000199+02501+02501100951ADDAA124027031GA1051+004201061GA2011+008401091GA3081+018001041GE19AGL   +99999+99999GF108991051999004201999999MA1999999100891REMSYN08841941 32440 80000 10250 20250 30089 40095 8632/ 333 56999 58009 70270 85614 81928 88456=
0200419410999992023033118004+23267+090700FM-12+000799999V0209999C000010240019N004000199+02421+02401101011ADDAA124015031GA1041+004501061GA2071+024001041GE19AGL   +99999+99999GF107991041999004501999999MA1999999100951REMSYN08241941 32440 70000 10242 20240 30095 40101 85420 333 56990 58008 70150 84615 87458=
0222419410999992023033121004+23267+090700FM-12+000799999V0209999C00001004501CN004000199+02341+02201101061ADDAA124000091GA1051+004501061GA2011+008401091GA3081+024001041GE19AGL   +99999+99999GF108991051999004501999999MA1999999101001REMSYN08841941 32440 80000 10234 20220 30100 40106 8632/ 333 56999 58016 70000 85615 81928 88458=
0289419410999992023040100004+23267+090700FM-12+000799999V0203101N00151003601CN004000199+02101+02101101121ADDAA103030031AA224030031AY191021AY261021GA1021+002401071GA2041+003601061GA3011+007501091GA4081+018001041GE19AGL   +99999+99999GF108991021999002401999999MA1999999101061MW1951REMSYN10641941 11340 83103 10210 20210 30106 40112 60307 79596 8792/ 333 56799 58015 70300 82708 84612 81925 88456=
0187419410999992023040103004+23267+090700FM-12+999999999V0200901N00151004205C9004000199+02201+02201101121ADDAA124037031AY191999AY261999GA1051+004201061GA2011+008401091GA3081+021001041GE19AGL   +99999+99999GF108991051999004201999999KA1120N+02081MA1999999101061MD1999999-0091MW1291REMSYN004BUFR
0267419410999992023040106004+23267+090700FM-12+000799999V0203601N00151004201CN004000199+02551+02201100991ADDAA102007031AA224037031AY191021AY261021GA1051+004201061GA2011+008401091GA3081+018001041GE19AGL   +99999+99999GF108991051999004201999999MA1999999100941MW1011REMSYN10041941 11440 83603 10255 20220 30094 40099 60076 70196 8632/ 333 56999 59018 70370 85614 81928 88456=
0222419410999992023040109004+23267+090700FM-12+000799999V0200401N00151004201CN004000199+02521+02201100791ADDAA124037031GA1051+004201061GA2011+008401091GA3081+018001041GE19AGL   +99999+99999GF108991051999004201999999MA1999999100741REMSYN08841941 32440 80403 10252 20220 30074 40079 8632/ 333 56999 59010 70370 85614 81928 88456=
0241419410999992023040112004+23267+090700FM-12+000799999V0200401N00151004201CN004000199+02501+02201100791ADDAA124037031GA1051+004201061GA2011+008401091GA3081+018001041GE19AGL   +99999+99999GF108991051999004201999999KA1240M+02561MA1999999100741REMSYN09441941 32440 80403 10250 20220 30074 40079 8632/ 333 10256 56999 59009 70370 85614 81928 88456=
0222419410999992023040115004+23267+090700FM-12+000799999V0209999C00001004201CN004000199+02351+02301100871ADDAA124037031GA1051+004201061GA2011+008401091GA3081+018001041GE19AGL   +99999+99999GF108991051999004201999999MA1999999100811REMSYN08841941 32440 80000 10235 20230 30081 40087 8632/ 333 56999 59002 70370 85614 81928 88456=
0200419410999992023040200004+23267+090700FM-12+000799999V0209999C000010240019N004000199+02201+02201100811ADDAA124007031GA1041+004801061GA2071+024001041GE19AGL   +99999+99999GF107991041999004801999999MA1999999100751REMSYN08241941 32440 70000 10220 20220 30075 40081 85420 333 56990 59031 70070 84616 87458=
0197419410999992023040203004+23267+090700FM-12+000799999V0209999C000012200019N006000199+02851+02201101011ADDAA124000091GA1031+004801061GE19AGL   +99999+99999GF104991031999004801999999KA1240N+02181MA1999999100951REMSYN08241941 32456 40000 10285 20220 30095 40101 84400 333 20218 56900 59011 70000 83616=
0200419410999992023040206004+23267+090700FM-12+000799999V0202601N001010240019N005000199+03001+01401100901ADDAA124000091GA1041+004801061GA2061+024001041GE19AGL   +99999+99999GF106991041999004801999999MA1999999100841REMSYN08241941 32450 62602 10300 20140 30084 40090 85420 333 56990 59010 70000 84616 86458=
0200419410999992023040209004+23267+090700FM-12+000799999V0202601N001510240019N006000199+03151+02101100561ADDAA124000091GA1041+004801061GA2061+024001041GE19AGL   +99999+99999GF106991041999004801999999MA1999999100511REMSYN08241941 32456 62603 10315 20210 30051 40056 85420 333 56990 59023 70000 84616 86458=
0219419410999992023040212004+23267+090700FM-12+000799999V0209999C000010240019N005000199+02901+02201100541ADDAA124000091GA1041+004801061GA2061+024001041GE19AGL   +99999+99999GF106991041999004801999999KA1240M+03251MA1999999100491REMSYN08841941 32450 60000 10290 20220 30049 40054 85420 333 10325 56990 59025 70000 84616 86458=
0178419410999992023040215004+23267+090700FM-12+000799999V0209999C000012200019N004000199+02601+02301100751ADDAA124000091GA1031+004801061GE19AGL   +99999+99999GF104991031999004801999999MA1999999100701REMSYN07641941 32440 40000 10260 20230 30070 40075 84400 333 56900 59011 70000 83616=
0178419410999992023040218004+23267+090700FM-12+000799999V0202601N001512200019N004000199+02451+02301100791ADDAA124000091GA1031+004801061GE19AGL   +99999+99999GF104991031999004801999999MA1999999100731REMSYN07641941 32440 42603 10245 20230 30073 40079 84400 333 56900 59015 70000 83616=
0178419410999992023040221004+23267+090700FM-12+000799999V0209999C000012200019N004000199+02401+02201100661ADDAA124000091GA1031+004801061GE19AGL   +99999+99999GF104991031999004801999999MA1999999100601REMSYN07641941 32440 40000 10240 20220 30060 40066 84400 333 56900 59020 70000 83616=
0222419410999992023040300004+23267+090700FM-12+000799999V0202601N00151004801CN005000199+02451+02451100711ADDAA124000091GA1051+004801061GA2011+009001091GA3081+024001041GE19AGL   +99999+99999GF108991051999004801999999MA1999999100651REMSYN08841941 32450 82603 10245 20245 30065 40071 8632/ 333 56999 59010 70000 85616 81930 88458=
0219419410999992023040303004+23267+090700FM-12+000799999V0202601N001510240019N006000199+02951+02501100951ADDAA124000091GA1041+004801061GA2061+024001041GE19AGL   +99999+99999GF106991041999004801999999KA1240N+02401MA1999999100891REMSYN08841941 32456 62603 10295 20250 30089 40095 85420 333 20240 56990 59006 70000 84616 86458=
0200419410999992023040306004+23267+090700FM-12+000799999V0202601N001010240019N006000199+03251+02301100891ADDAA124000091GA1041+004801061GA2061+024001041GE19AGL   +99999+99999GF106991041999004801999999MA1999999100841REMSYN08241941 32456 62602 10325 20230 30084 40089 85420 333 56990 58000 70000 84616 86458=
0178419410999992023040309004+23267+090700FM-12+000799999V0202601N001512200019N006000199+03451+01801100651ADDAA124000091GA1021+005401061GE19AGL   +99999+99999GF102991021999005401999999MA1999999100591REMSYN07641941 32456 22603 10345 20180 30059 40065 82500 333 56900 58008 70000 82618=
0197419410999992023040312004+23267+090700FM-12+000799999V0209999C000012200019N005000199+03001+01901100621ADDAA124000091GA1021+005401061GE19AGL   +99999+99999GF102991021999005401999999KA1240M+03501MA1999999100561REMSYN08241941 32450 20000 10300 20190 30056 40062 82500 333 10350 56900 58007 70000 82618=
0110419410999992023040315004+23267+090700FM-12+000799999V0209999C000019999999N004000199+02501+02101100841ADDAA124000091MA1999999100791MD1999999+0091REMSYN05841941 32940 00000 10250 20210 30079 40084 333 58009 70000=
0110419410999992023040321004+23267+090700FM-12+000799999V0209999C000019999999N004000199+02421+02201100851ADDAA124000091MA1999999100801MD1999999+0201REMSYN05841941 32940 00000 10242 20220 30080 40085 333 58020 70000=
0200419410999992023040400004+23267+090700FM-12+000799999V0202601N001510240019N005000199+02421+02401100811ADDAA124000091GA1041+004801061GA2061+024001041GE19AGL   +99999+99999GF106991041999004801999999MA1999999100761REMSYN08241941 32450 62603 10242 20240 30076 40081 85420 333 56990 58011 70000 84616 86458=
0219419410999992023040403004+23267+090700FM-12+000799999V0202001N001510240019N006000199+02921+02401101031ADDAA124000091GA1041+004801061GA2061+024001041GE19AGL   +99999+99999GF106991041999004801999999KA1240N+02401MA1999999100971REMSYN08841941 32456 62003 10292 20240 30097 40103 85420 333 20240 56990 58008 70000 84616 86458=
0200419410999992023040406004+23267+090700FM-12+000799999V0201801N002110240019N006000199+03281+02501101011ADDAA124000091GA1041+004801061GA2061+024001041GE19AGL   +99999+99999GF106991041999004801999999MA1999999100951REMSYN08241941 32456 61804 10328 20250 30095 40101 85420 333 56990 58011 70000 84616 86458=
0178419410999992023040409004+23267+090700FM-12+000799999V0201801N001512200019N006000199+03351+02401100731ADDAA124000091GA1031+005401061GE19AGL   +99999+99999GF103991031999005401999999MA1999999100671REMSYN07641941 32456 31803 10335 20240 30067 40073 83500 333 56900 58008 70000 83618=
0197419410999992023040412004+23267+090700FM-12+000799999V0201801N001012200019N005000199+03131+02401100591ADDAA124000091GA1031+005401061GE19AGL   +99999+99999GF103991031999005401999999KA1240M+03451MA1999999100531REMSYN08241941 32450 31802 10313 20240 30053 40059 83500 333 10345 56900 59003 70000 83618=
0110419410999992023040415004+23267+090700FM-12+000799999V0201801N001019999999N004000199+02861+02501100781ADDAA124000091MA1999999100721MD1999999-0071REMSYN05841941 32940 01802 10286 20250 30072 40078 333 59007 70000=
0110419410999992023040421004+23267+090700FM-12+000799999V0201801N001519999999N004000199+02701+02501100701ADDAA124000091MA1999999100641MD1999999-0161REMSYN05841941 32940 01803 10270 20250 30064 40070 333 59016 70000=
0200419410999992023040500004+23267+090700FM-12+000799999V0201801N002110240019N005000199+02651+02601100601ADDAA124000091GA1041+004801061GA2061+024001041GE19AGL   +99999+99999GF106991041999004801999999MA1999999100541REMSYN08241941 32450 61804 10265 20260 30054 40060 85420 333 56990 59022 70000 84616 86458=
0241419410999992023040503004+23267+090700FM-12+000799999V0201801N00151004801CN005000199+02851+02601100961ADDAA124000091GA1051+004801061GA2011+009001091GA3081+024001041GE19AGL   +99999+99999GF108991051999004801999999KA1240N+02641MA1999999100901REMSYN09441941 32450 81803 10285 20260 30090 40096 8632/ 333 20264 56999 59007 70000 85616 81930 88458=
0222419410999992023040506004+23267+090700FM-12+000799999V0201801N00101004801CN006000199+03251+02601100871ADDAA124000091GA1051+004801061GA2011+009001091GA3082+024001041GE19AGL   +99999+99999GF106992051999004801999999MA1999999100821REMSYN08841941 32456 61802 10325 20260 30082 40087 8632/ 333 56999 59013 70000 85616 81930 88458=
0200419410999992023040509004+23267+090700FM-12+000799999V0201801N001010240019N006000199+03351+02601100591ADDAA124000091GA1041+004801061GA2061+024001041GE19AGL   +99999+99999GF106991041999004801999999MA1999999100541REMSYN08241941 32456 61802 10335 20260 30054 40059 85420 333 56990 59008 70000 84616 86458=
0219419410999992023040512004+23267+090700FM-12+000799999V0201801N001010240019N005000199+03171+02061100651ADDAA124000091GA1041+004801061GA2061+024001041GE19AGL   +99999+99999GF106991041999004801999999KA1240M+03401MA1999999100591REMSYN08841941 32450 61802 10317 20206 30059 40065 85420 333 10340 56990 58006 70000 84616 86458=
0200419410999992023040515004+23267+090700FM-12+000799999V0201801N001510240019N004000199+02741+02301100961ADDAA124000091GA1041+004801061GA2061+024001041GE19AGL   +99999+99999GF106991041999004801999999MA1999999100911REMSYN08241941 32440 61803 10274 20230 30091 40096 85420 333 56990 58019 70000 84616 86458=
0200419410999992023040521004+23267+090700FM-12+000799999V0201801N001010240019N004000199+02701+02501100921ADDAA124000091GA1041+004801061GA2061+024001041GE19AGL   +99999+99999GF106991041999004801999999MA1999999100871REMSYN08241941 32440 61802 10270 20250 30087 40092 85420 333 56990 58023 70000 84616 86458=
0200419410999992023040600004+23267+090700FM-12+000799999V0201801N001510240019N005000199+02701+02601100911ADDAA124000091GA1041+004801061GA2061+024001041GE19AGL   +99999+99999GF106991041999004801999999MA1999999100851REMSYN08241941 32450 61803 10270 20260 30085 40091 85420 333 56990 58031 70000 84616 86458=
0219419410999992023040603004+23267+090700FM-12+000799999V0209999C000010240019N006000199+02841+02501100961ADDAA124000091GA1041+004801061GA2061+024001041GE19AGL   +99999+99999GF106991041999004801999999KA1240N+02611MA1999999100971REMSYN08841941 32456 60000 10284 20250 30097 40096 85420 333 20261 56990 58001 70000 84616 86458=
0178419410999992023040606004+23267+090700FM-12+000799999V0201801N002112200019N007000199+03241+02501101091ADDAA124000091GA1041+004801061GE19AGL   +99999+99999GF104991041999004801999999MA1999999101041REMSYN07641941 32457 41804 10324 20250 30104 40109 84500 333 56900 58022 70000 84616=
0267419410999992023040609004+23267+090700FM-12+000799999V0202701N00151003601CN005000199+02451+02401100881ADDAA106013031AA224013031AY191021AY261021GA1051+003601061GA2021+007501091GA3081+018001041GE19AGL   +99999+99999GF108991051999003601999999MA1999999100821MW1291REMSYN10041941 21450 82703 10245 20240 30082 40088 72996 8792/ 333 56999 58028 60131 70130 85612 82925 88456=
0242419410999992023040612004+23267+090700FM-12+000799999V0209999C00001004801CN005000199+02851+02501100821ADDAA109013031AA224013031AY191021AY261021GA1051+004801061GE19AGL   +99999+99999GF105991051999004801999999KA1240M+03451MA1999999100761MW1011REMSYN09441941 11450 50000 10285 20250 30076 40082 60138 70196 85500 333 10345 56900 58017 70130 85616=
0250419410999992023040615004+23267+090700FM-12+000799999V0209999C00001004501CN005000199+02651+02301101061ADDAA124013031AY121021AY221021GA1051+004501061GA2011+008401091GA3081+024001041GE19AGL   +99999+99999GF108991051999004501999999MA1999999101011MW1131REMSYN09441941 31450 80000 10265 20230 30101 40106 71322 8632/ 333 56999 58010 70130 85615 81928 88458=
0200419410999992023040621004+23267+090700FM-12+000799999V0209999C000010240019N004000199+02401+02301100971ADDAA124013031GA1041+004801061GA2071+024001041GE19AGL   +99999+99999GF107991041999004801999999MA1999999100921REMSYN08241941 32440 70000 10240 20230 30092 40097 85420 333 56990 58007 70130 84616 87458=
0200419410999992023040700004+23267+090700FM-12+000799999V0209999C000010240019N004000199+02301+02301101021ADDAA124013031GA1041+004801061GA2071+024001041GE19AGL   +99999+99999GF107991041999004801999999MA1999999100961REMSYN08241941 32440 70000 10230 20230 30096 40102 85420 333 56990 58011 70130 84616 87458=
0149419410999992023040703004+23267+090700FM-12+999999999V0202701N0015102400199006000199+03151+02401101321ADDAA124013031GA1041+004801061GA2061+024001041GE19AGL   +99999+99999GF106991041999004801999999KA1120N+02281MA1999999101261MD1999999+0351REMSYN004BUFR
0110419410999992023040706004+23267+090700FM-12+000799999V0202701N001519999999N006000199+03401+02001101311ADDAA124013031MA1999999101251MD1999999+0211REMSYN05841941 32456 02703 10340 20200 30125 40131 333 58021 70130=
0222419410999992023040709004+23267+090700FM-12+000799999V0202701N00151004801CN004000199+03401+02201101021ADDAA124000091GA1051+004801061GA2011+008401091GA3081+024001041GE19AGL   +99999+99999GF108991051999004801999999MA1999999100961REMSYN08841941 32440 82703 10340 20220 30096 40102 8632/ 333 56999 58014 70000 85616 81928 88458=
