0204483040999992023010100004+19867+099767FM-12+040199999V0209999C000012200019N015000199+01601+01531101911ADDGA1031+008001061GA2999+999999021GE19AGL   +99999+99999GF103991031999008001999999KA1120N+01511MA1999999097161MD1210131+0061REMSYN07048304 32565 30000 10160 20153 39716 40191 52013 83505 333 20151 58006=
0169483040999992023010103004+19867+099767FM-12+040199999V0209999C000012200019N015000199+02191+01521102021ADDGA1011+008001061GE19AGL   +99999+99999GF101991011999008001999999MA1999999097351MD1210191+0011REMSYN06448304 32565 10000 10219 20152 39735 40202 52019 81500 333 58001=
0185483040999992023010106004+19867+099767FM-12+040199999V0202701N002119999999N015000199+02511+01391101691ADDGA1031+008001081GA2999+999999021GE19AGL   +99999+99999GF105991031999008001999999MA1999999097081MD1710261+0031REMSYN06448304 32565 52704 10251 20139 39708 40169 57026 83805 333 58003=
0169483040999992023010109004+19867+099767FM-12+040199999V0209999C000012200019N015000199+02701+01471101431ADDGA1021+008001061GE19AGL   +99999+99999GF102991021999008001999999MA1999999096861MD1710221+0071REMSYN06448304 32565 20000 10270 20147 39686 40143 57022 82500 333 58007=
0118483040999992023010112004+19867+099767FM-12+040199999V0209999C000019999999N015000199+02071+01711101581ADDKA1240M+02741MA1999999096911MD1210051+0051REMSYN06448304 32965 00000 10207 20171 39691 40158 52005 333 10274 58005=
0099483040999992023010115004+19867+099767FM-12+040199999V0209999C000019999999N012000199+01651+01491101871ADDMA1999999097131MD1210211+0161REMSYN05848304 32962 00000 10165 20149 39713 40187 52021 333 58016=
0099483040999992023010118004+19867+099767FM-12+040199999V0209999C000019999999N012000199+01501+01411101921ADDMA1999999097151MD1210031+0121REMSYN05848304 32962 00000 10150 20141 39715 40192 52003 333 58012=
0099483040999992023010121004+19867+099767FM-12+040199999V0209999C000019999999N012000199+01351+01291101841ADDMA1999999097051MD1710101+0061REMSYN05848304 32962 00000 10135 20129 39705 40184 57010 333 58006=
0204483040999992023010200004+19867+099767FM-12+040199999V0209999C000012200019N010000199+01271+01211102021ADDGA1021+999999031GA2999+999999021GE19AGL   +99999+99999GF103991021999999999999999KA1120N+01201MA1999999097211MD1210161+0111REMSYN07048304 32960 30000 10127 20121 39721 40202 52016 82046 333 20120 58011=
0185483040999992023010203004+19867+099767FM-12+040199999V0200601N001512200019N015000199+02011+01501102201ADDGA1031+008001061GA2999+999999021GE19AGL   +99999+99999GF103991031999008001999999MA1999999097491MD1210291+0181REMSYN06448304 32565 30603 10201 20150 39749 40220 52029 83505 333 58018=
0169483040999992023010206004+19867+099767FM-12+040199999V0200201N002112200019N015000199+02511+01431101851ADDGA1021+008001081GE19AGL   +99999+99999GF102991021999008001999999MA1999999097241MD1710251+0161REMSYN06448304 32565 20204 10251 20143 39724 40185 57025 82200 333 58016=
0169483040999992023010209004+19867+099767FM-12+040199999V0200501N002112200019N015000199+02651+01391101581ADDGA1011+008001081GE19AGL   +99999+99999GF101991011999008001999999MA1999999097011MD1710241+0161REMSYN06448304 32565 10504 10265 20139 39701 40158 57024 81200 333 58016=
0118483040999992023010212004+19867+099767FM-12+040199999V0209999C000019999999N015000199+01951+01621101811ADDKA1240M+02701MA1999999097121MD1210111+0231REMSYN06448304 32965 00000 10195 20162 39712 40181 52011 333 10270 58023=
0099483040999992023010215004+19867+099767FM-12+040199999V0209999C000019999999N012000199+01741+01551102031ADDMA1999999097291MD1210181+0161REMSYN05848304 32962 00000 10174 20155 39729 40203 52018 333 58016=
0099483040999992023010218004+19867+099767FM-12+040199999V0209999C000019999999N010000199+01581+01461102071ADDMA1999999097301MD1210011+0151REMSYN05848304 32960 00000 10158 20146 39730 40207 52001 333 58015=
0099483040999992023010221004+19867+099767FM-12+040199999V0209999C000019999999N010000199+01441+01351101971ADDMA1999999097181MD1710121+0131REMSYN05848304 32960 00000 10144 20135 39718 40197 57012 333 58013=
0204483040999992023010300004+19867+099767FM-12+040199999V0209999C000019999999N010000199+01211+01131102091ADDGA1011+012501061GA2999+999999031GE19AGL   +99999+99999GF106991011999012501999999KA1120N+01131MA1999999097261MD1210081+0071REMSYN07048304 32660 60000 10121 20113 39726 40209 52008 81540 333 20113 58007=
0201483040999992023010303004+19867+099767FM-12+040199999V0201101N001512200019N012000199+01941+01441102161ADDGA1011+012501061GA2999+999999031GA3999+999999021GE19AGL   +99999+99999GF104991011999012501999999MA1999999097451MD1210181-0041REMSYN06448304 32662 41103 10194 20144 39745 40216 52018 81546 333 59004=
0201483040999992023010306004+19867+099767FM-12+040199999V0209999C000012200019N015000199+02491+01411101751ADDGA1011+012501081GA2999+999999031GA3999+999999001GE19AGL   +99999+99999GF103991011999012501999999MA1999999097141MD1710301-0101REMSYN06448304 32665 30000 10249 20141 39714 40175 57030 81141 333 59010=
0185483040999992023010309004+19867+099767FM-12+040199999V0209999C000012200019N015000199+02641+01411101501ADDGA1011+012501081GA2999+999999031GE19AGL   +99999+99999GF102991011999012501999999MA1999999096931MD1710221-0081REMSYN06448304 32665 20000 10264 20141 39693 40150 57022 81140 333 59008=
0118483040999992023010312004+19867+099767FM-12+040199999V0209999C000019999999N015000199+02111+01721101671ADDKA1240M+02701MA1999999097011MD1210081-0141REMSYN06448304 32965 00000 10211 20172 39701 40167 52008 333 10270 59014=
0169483040999992023010315004+19867+099767FM-12+040199999V0209999C000019999999N010000199+01671+01531101911ADDGA1051+999999031GE19AGL   +99999+99999GF105991051999999999999999MA1999999097171MD1210161-0121REMSYN06448304 32960 50000 10167 20153 39717 40191 52016 85030 333 59012=
0185483040999992023010318004+19867+099767FM-12+040199999V0209999C000019999999N010000199+01751+01611101881ADDGA1021+012501061GA2999+999999031GE19AGL   +99999+99999GF107991021999012501999999MA1999999097151MD1710011-0191REMSYN06448304 32660 70000 10175 20161 39715 40188 57001 82550 333 59019=
0201483040999992023010321004+19867+099767FM-12+040199999V0209999C000019999999N010000199+01711+01591101801ADDGA1021+012501061GA2999+999999031GA3999+999999021GE19AGL   +99999+99999GF107991021999012501999999MA1999999097071MD1710091-0171REMSYN06448304 32660 70000 10171 20159 39707 40180 57009 82556 333 59017=
0220483040999992023010400004+19867+099767FM-12+040199999V0209999C000019999999N010000199+01701+01561101921ADDGA1051+012501061GA2999+999999031GA3999+999999021GE19AGL   +99999+99999GF107991051999012501999999KA1120N+01611MA1999999097181MD1210111-0171REMSYN07048304 32660 70000 10170 20156 39718 40192 52011 85536 333 20161 59017=
0169483040999992023010403004+19867+099767FM-12+040199999V0200701N002112200019N015000199+02201+01531102021ADDGA1021+012501081GE19AGL   +99999+99999GF102991021999012501999999MA1999999097361MD1210181-0141REMSYN06448304 32665 20704 10220 20153 39736 40202 52018 82100 333 59014=
0201483040999992023010406004+19867+099767FM-12+040199999V0209999C000012200019N015000199+02661+01641101621ADDGA1021+012501061GA2999+999999031GA3999+999999021GE19AGL   +99999+99999GF103991021999012501999999MA1999999097041MD1710321-0141REMSYN06448304 32665 30000 10266 20164 39704 40162 57032 82545 333 59014=
0185483040999992023010409004+19867+099767FM-12+040199999V0209999C000012200019N015000199+02821+01591101331ADDGA1021+012501061GA2999+999999001GE19AGL   +99999+99999GF102991021999012501999999MA1999999096791MD1710251-0171REMSYN06448304 32665 20000 10282 20159 39679 40133 57025 82501 333 59017=
0207483040999992023010412004+19867+099767FM-12+040199999V0209999C000012200019N012000199+02221+01801101511ADDGA1999+999999021GE19AGL   +99999+99999GF102991001999999999999999KA1240M+02841MA1999999096871MD1210081-0161REMSYN07048304 32962 20000 10222 20180 39687 40151 52008 80005 333 10284 59016=EQDQ01    003SCCGA1
0201483040999992023010415004+19867+099767FM-12+040199999V0209999C000012200019N010000199+01801+01631101801ADDGA1021+012501081GA2999+999999031GA3999+999999021GE19AGL   +99999+99999GF104991021999012501999999MA1999999097091MD1210221-0111REMSYN06448304 32660 40000 10180 20163 39709 40180 52022 82145 333 59011=
0201483040999992023010418004+19867+099767FM-12+040199999V0209999C000012200019N010000199+01681+01581101851ADDGA1011+012501081GA2999+999999031GA3999+999999021GE19AGL   +99999+99999GF102991011999012501999999MA1999999097111MD1210021-0031REMSYN06448304 32660 20000 10168 20158 39711 40185 52002 81135 333 59003=
0099483040999992023010421004+19867+099767FM-12+040199999V0209999C000019999999N010000199+01581+01511101741ADDMA1999999096991MD1710121-0061REMSYN05848304 32960 00000 10158 20151 39699 40174 57012 333 59006=
0207483040999992023010500004+19867+099767FM-12+040199999V0209999C000012200019N010000199+01401+01331101921ADDGA1999+999999021GE19AGL   +99999+99999GF103991001999999999999999KA1120N+01341MA1999999097131MD1210141+0001REMSYN07048304 32960 30000 10140 20133 39713 40192 52014 80005 333 20134 58000=EQDQ01    003SCCGA1
0185483040999992023010503004+19867+099767FM-12+040199999V0201001N001512200019N015000199+02141+01681102041ADDGA1011+012501081GA2999+999999021GE19AGL   +99999+99999GF103991011999012501999999MA1999999097371MD1210241+0021REMSYN06448304 32665 31003 10214 20168 39737 40204 52024 81105 333 58002=
0185483040999992023010506004+19867+099767FM-12+040199999V0201101N001012200019N015000199+02731+01651101671ADDGA1011+012501081GA2999+999999021GE19AGL   +99999+99999GF102991011999012501999999MA1999999097101MD1710271+0051REMSYN06448304 32665 21102 10273 20165 39710 40167 57027 81105 333 58005=
0185483040999992023010509004+19867+099767FM-12+040199999V0209999C000012200019N015000199+02891+01601101351ADDGA1021+012501081GA2999+999999021GE19AGL   +99999+99999GF102991021999012501999999MA1999999096811MD1710291+0021REMSYN06448304 32665 20000 10289 20160 39681 40135 57029 82105 333 58002=
0207483040999992023010512004+19867+099767FM-12+040199999V0209999C000012200019N012000199+02221+01821101521ADDGA1999+999999021GE19AGL   +99999+99999GF103991001999999999999999KA1240M+02891MA1999999096881MD1210071+0011REMSYN07048304 32962 30000 10222 20182 39688 40152 52007 80005 333 10289 58001=EQDQ01    003SCCGA1
0099483040999992023010515004+19867+099767FM-12+040199999V0209999C000019999999N012000199+01841+01641101871ADDMA1999999097161MD1210281+0071REMSYN05848304 32962 00000 10184 20164 39716 40187 52028 333 58007=
0099483040999992023010518004+19867+099767FM-12+040199999V0209999C000019999999N010000199+01711+01591101911ADDMA1999999097171MD1210011+0061REMSYN05848304 32960 00000 10171 20159 39717 40191 52001 333 58006=
0099483040999992023010521004+19867+099767FM-12+040199999V0209999C000019999999N010000199+01571+01481101851ADDMA1999999097091MD1710071+0111REMSYN05848304 32960 00000 10157 20148 39709 40185 57007 333 58011=
0207483040999992023010600004+19867+099767FM-12+040199999V0209999C000012200019N010000199+01311+01231101981ADDGA1999+999999001GE19AGL   +99999+99999GF101991001999999999999999KA1120N+01261MA1999999097171MD1210081+0061REMSYN07048304 32960 10000 10131 20123 39717 40198 52008 80002 333 20126 58006=EQDQ01    003SCCGA1
0185483040999992023010603004+19867+099767FM-12+040199999V0200201N003612200019N015000199+02171+01471102191ADDGA1011+012501081GA2999+999999001GE19AGL   +99999+99999GF101991011999012501999999MA1999999097511MD1210341+0151REMSYN06448304 32665 10207 10217 20147 39751 40219 52034 81101 333 58015=
0185483040999992023010606004+19867+099767FM-12+040199999V0200301N004619999999N015000199+02511+01261101961ADDGA1051+008001081GA2999+999999021GE19AGL   +99999+99999GF106991051999008001999999MA1999999097341MD1710171+0281REMSYN06448304 32565 60309 10251 20126 39734 40196 57017 85205 333 58028=
0185483040999992023010609004+19867+099767FM-12+040199999V0200101N004112200019N015000199+02511+01331101711ADDGA1031+008001081GA2999+999999001GE19AGL   +99999+99999GF103991031999008001999999MA1999999097111MD1710231+0371REMSYN06448304 32565 30108 10251 20133 39711 40171 57023 83201 333 58037=
0188483040999992023010612004+19867+099767FM-12+040199999V0200301N002119999999N012000199+02071+01471101991ADDGA1051+999999031GE19AGL   +99999+99999GF105991051999999999999999KA1240M+02591MA1999999097301MD1210191+0461REMSYN07048304 32962 50304 10207 20147 39730 40199 52019 85040 333 10259 58046=
0099483040999992023010615004+19867+099767FM-12+040199999V0203401N001019999999N012000199+01701+01341102231ADDMA1999999097481MD1210181+0361REMSYN05848304 32962 03402 10170 20134 39748 40223 52018 333 58036=
0099483040999992023010618004+19867+099767FM-12+040199999V0209999C000019999999N012000199+01411+01211102241ADDMA1999999097431MD1710041+0331REMSYN05848304 32962 00000 10141 20121 39743 40224 57004 333 58033=
0099483040999992023010621004+19867+099767FM-12+040199999V0209999C000019999999N012000199+01291+01181102061ADDMA1999999097251MD1710191+0211REMSYN05848304 32962 00000 10129 20118 39725 40206 57019 333 58021=
0207483040999992023010700004+19867+099767FM-12+040199999V0209999C000012200019N010000199+00991+00931102111ADDGA1999+999999021GE19AGL   +99999+99999GF102991001999999999999999KA1120N+00931MA1999999097251MD1410001+0131REMSYN07048304 32960 20000 10099 20093 39725 40211 54000 80005 333 20093 58013=EQDQ01    003SCCGA1
0099483040999992023010703004+19867+099767FM-12+040199999V0203501N002119999999N015000199+02001+01351102071ADDMA1999999097371MD1210121-0121REMSYN05848304 32965 03504 10200 20135 39737 40207 52012 333 59012=
0099483040999992023010706004+19867+099767FM-12+040199999V0200101N002619999999N013000199+02421+00981101691ADDMA1999999097071MD1710301-0271REMSYN05848304 32963 00105 10242 20098 39707 40169 57030 333 59027=
0099483040999992023010709004+19867+099767FM-12+040199999V0209999C000019999999N015000199+02511+00991101361ADDMA1999999096771MD1710301-0351REMSYN05848304 32965 00000 10251 20099 39677 40136 57030 333 59035=
0118483040999992023010712004+19867+099767FM-12+040199999V0209999C000019999999N012000199+01861+01371101521ADDKA1240M+02561MA1999999096831MD1210051-0461REMSYN06448304 32962 00000 10186 20137 39683 40152 52005 333 10256 59046=
0099483040999992023010715004+19867+099767FM-12+040199999V0209999C000019999999N012000199+01361+01191101781ADDMA1999999097001MD1210171-0451REMSYN05848304 32962 00000 10136 20119 39700 40178 52017 333 59045=
0099483040999992023010718004+19867+099767FM-12+040199999V0209999C000019999999N012000199+01251+01141101841ADDMA1999999097031MD1210041-0401REMSYN05848304 32962 00000 10125 20114 39703 40184 52004 333 59040=
0099483040999992023010721004+19867+099767FM-12+040199999V0209999C000019999999N012000199+01101+01021101801ADDMA1999999096971MD1710061-0261REMSYN05848304 32962 00000 10110 20102 39697 40180 57006 333 59026=
0172483040999992023010800004+19867+099767FM-12+040199999V0209999C00001000301WN000100199+01001+00921101881ADDAY141021AY201021GF109991999999999999999999KA1120N+00921MA1999999097031MD1210061-0231MW1471REMSYN07048304 31/01 90000 10100 20092 39703 40188 52006 74740 333 20092 59023=
0127483040999992023010803004+19867+099767FM-12+040199999V0209999C000019999999N012000199+01661+01281102021ADDAY141021AY201021MA1999999097271MD1210241-0051MW1011REMSYN06448304 31962 00000 10166 20128 39727 40202 52024 70140 333 59005=
0127483040999992023010806004+19867+099767FM-12+040199999V0209999C000019999999N015000199+02501+01251101571ADDAY141021AY201021MA1999999096971MD1710301-0121MW1021REMSYN06448304 31965 00000 10250 20125 39697 40157 57030 70240 333 59012=
0099483040999992023010809004+19867+099767FM-12+040199999V0209999C000019999999N015000199+02681+01271101281ADDMA1999999096721MD1710251-0081REMSYN05848304 32965 00000 10268 20127 39672 40128 57025 333 59008=
0118483040999992023010812004+19867+099767FM-12+040199999V0209999C000019999999N015000199+01971+01471101491ADDKA1240M+02731MA1999999096821MD1210101-0031REMSYN06448304 32965 00000 10197 20147 39682 40149 52010 333 10273 59003=
0099483040999992023010815004+19867+099767FM-12+040199999V0209999C000019999999N012000199+01481+01321101751ADDMA1999999096981MD1210171-0031REMSYN05848304 32962 00000 10148 20132 39698 40175 52017 333 59003=
0099483040999992023010818004+19867+099767FM-12+040199999V0209999C000019999999N012000199+01351+01201101811ADDMA1999999097021MD1210041-0031REMSYN05848304 32962 00000 10135 20120 39702 40181 52004 333 59003=
0169483040999992023010821004+19867+099767FM-12+040199999V0209999C000012200019N010000199+01241+01121101791ADDGA1021+008001061GE19AGL   +99999+99999GF102991021999008001999999MA1999999096981MD1710041-0011REMSYN06448304 32560 20000 10124 20112 39698 40179 57004 82500 333 59001=
0118483040999992023010900004+19867+099767FM-12+040199999V0209999C000019999999N010000199+01131+01071101911ADDKA1120N+01061MA1999999097081MD1210101+0031REMSYN06448304 32960 00000 10113 20107 39708 40191 52010 333 20106 58003=
0099483040999992023010903004+19867+099767FM-12+040199999V0203601N000519999999N015000199+01851+01411102011ADDMA1999999097291MD1210211-0011REMSYN05848304 32965 03601 10185 20141 39729 40201 52021 333 59001=
0169483040999992023010906004+19867+099767FM-12+040199999V0200401N001512200019N015000199+02651+01321101541ADDGA1021+999999031GE19AGL   +99999+99999GF102991021999999999999999MA1999999096961MD1710331-0041REMSYN06448304 32965 20403 10265 20132 39696 40154 57033 82040 333 59004=
0169483040999992023010909004+19867+099767FM-12+040199999V0200701N001012200019N015000199+02801+01151101281ADDGA1021+999999031GE19AGL   +99999+99999GF102991021999999999999999MA1999999096741MD1710221+0001REMSYN06448304 32965 20702 10280 20115 39674 40128 57022 82040 333 58000=
0118483040999992023010912004+19867+099767FM-12+040199999V0209999C000019999999N015000199+02051+01541101501ADDKA1240M+02851MA1999999096831MD1210091+0001REMSYN06448304 32965 00000 10205 20154 39683 40150 52009 333 10285 58000=
0099483040999992023010915004+19867+099767FM-12+040199999V0209999C000019999999N010000199+01571+01411101711ADDMA1999999096951MD1210131-0051REMSYN05848304 32960 00000 10157 20141 39695 40171 52013 333 59005=
0201483040999992023010918004+19867+099767FM-12+040199999V0209999C000019999999N012000199+01531+01411101651ADDGA1031+012501061GA2999+999999031GA3999+999999021GE19AGL   +99999+99999GF106991031999012501999999MA1999999096901MD1710051-0161REMSYN06448304 32662 60000 10153 20141 39690 40165 57005 83535 333 59016=
0201483040999992023010921004+19867+099767FM-12+040199999V0209999C000012200019N010000199+01351+01281101581ADDGA1021+012501061GA2999+999999031GA3999+999999021GE19AGL   +99999+99999GF104991021999012501999999MA1999999096801MD1710101-0201REMSYN06448304 32660 40000 10135 20128 39680 40158 57010 82535 333 59020=
0204483040999992023011000004+19867+099767FM-12+040199999V0209999C000019999999N010000199+01341+01251101681ADDGA1041+012501061GA2999+999999021GE19AGL   +99999+99999GF105991041999012501999999KA1120N+01261MA1999999096901MD1210091-0231REMSYN07048304 32660 50000 10134 20125 39690 40168 52009 84505 333 20126 59023=
0188483040999992023011003004+19867+099767FM-12+040199999V0201301N001512200019N012000199+02101+01371101711ADDGA1999+999999021GE19AGL   +99999+99999GF102991001999999999999999MA1999999097041MD1210151-0301REMSYN06448304 32962 21303 10210 20137 39704 40171 52015 80005 333 59030=EQDQ01    003SCCGA1
0201483040999992023011006004+19867+099767FM-12+040199999V0200101N001512200019N015000199+02711+01441101331ADDGA1021+012501081GA2999+999999031GA3999+999999021GE19AGL   +99999+99999GF103991021999012501999999MA1999999096781MD1710271-0201REMSYN06448304 32665 30103 10271 20144 39678 40133 57027 82245 333 59020=
0169483040999992023011009004+19867+099767FM-12+040199999V0209999C000012200019N015000199+02911+01461101031ADDGA1011+012501081GE19AGL   +99999+99999GF101991011999012501999999MA1999999096521MD1710261-0251REMSYN06448304 32665 10000 10291 20146 39652 40103 57026 81100 333 59025=
0118483040999992023011012004+19867+099767FM-12+040199999V0209999C000019999999N012000199+02251+01731101151ADDKA1240M+02941MA1999999096531MD1210011-0351REMSYN06448304 32962 00000 10225 20173 39653 40115 52001 333 10294 59035=
0099483040999992023011015004+19867+099767FM-12+040199999V0209999C000019999999N012000199+01661+01471101361ADDMA1999999096641MD1210111-0341REMSYN05848304 32962 00000 10166 20147 39664 40136 52011 333 59034=
0099483040999992023011018004+19867+099767FM-12+040199999V0209999C000019999999N010000199+01551+01431101401ADDMA1999999096661MD1210011-0261REMSYN05848304 32960 00000 10155 20143 39666 40140 52001 333 59026=
0185483040999992023011021004+19867+099767FM-12+040199999V0209999C000012200019N010000199+01381+01321101311ADDGA1031+999999031GA2999+999999021GE19AGL   +99999+99999GF104991031999999999999999MA1999999096551MD1710111-0271REMSYN06448304 32960 40000 10138 20132 39655 40131 57011 83045 333 59027=
0204483040999992023011100004+19867+099767FM-12+040199999V0209999C000012200019N012000199+01401+01271101481ADDGA1031+999999031GA2999+999999021GE19AGL   +99999+99999GF104991031999999999999999KA1120N+01311MA1999999096711MD1210161-0211REMSYN07048304 32962 40000 10140 20127 39671 40148 52016 83035 333 20131 59021=
0201483040999992023011103004+19867+099767FM-12+040199999V0209999C000012200019N012000199+02201+01571101511ADDGA1011+012501081GA2999+999999031GA3999+999999021GE19AGL   +99999+99999GF102991011999012501999999MA1999999096871MD1210161-0201REMSYN06448304 32662 20000 10220 20157 39687 40151 52016 81145 333 59020=
0169483040999992023011106004+19867+099767FM-12+040199999V0209999C000012200019N012000199+02721+01541101091ADDGA1021+012501081GE19AGL   +99999+99999GF102991021999012501999999MA1999999096551MD1710321-0241REMSYN06448304 32662 20000 10272 20154 39655 40109 57032 82100 333 59024=
0185483040999992023011109004+19867+099767FM-12+040199999V0200101N001512200019N012000199+02981+01681100761ADDGA1021+012501081GA2999+999999021GE19AGL   +99999+99999GF102991021999012501999999MA1999999096261MD1710281-0281REMSYN06448304 32662 20103 10298 20168 39626 40076 57028 82105 333 59028=
0118483040999992023011112004+19867+099767FM-12+040199999V0209999C000019999999N012000199+02331+01841100881ADDKA1240M+03011MA1999999096281MD1210021-0271REMSYN06448304 32962 00000 10233 20184 39628 40088 52002 333 10301 59027=
0099483040999992023011115004+19867+099767FM-12+040199999V0209999C000019999999N010000199+01921+01761101151ADDMA1999999096481MD1210191-0211REMSYN05848304 32960 00000 10192 20176 39648 40115 52019 333 59021=
0099483040999992023011118004+19867+099767FM-12+040199999V0209999C000019999999N010000199+01731+01611101201ADDMA1999999096501MD1210021-0201REMSYN05848304 32960 00000 10173 20161 39650 40120 52002 333 59020=
0099483040999992023011121004+19867+099767FM-12+040199999V0209999C000019999999N010000199+01651+01561101141ADDMA1999999096431MD1710071-0171REMSYN05848304 32960 00000 10165 20156 39643 40114 57007 333 59017=
0118483040999992023011200004+19867+099767FM-12+040199999V0209999C000019999999N010000199+01511+01441101241ADDKA1120N+01451MA1999999096501MD1210071-0241REMSYN06448304 32960 00000 10151 20144 39650 40124 52007 333 20145 59024=
0169483040999992023011203004+19867+099767FM-12+040199999V0209999C000012200019N010000199+02221+01771101351ADDGA1011+012501081GE19AGL   +99999+99999GF101991011999012501999999MA1999999096721MD1210221-0161REMSYN06448304 32660 10000 10222 20177 39672 40135 52022 81100 333 59016=
0169483040999992023011206004+19867+099767FM-12+040199999V0203601N002612200019N012000199+02891+01431100931ADDGA1021+008001081GE19AGL   +99999+99999GF102991021999008001999999MA1999999096411MD1710311-0171REMSYN06448304 32562 23605 10289 20143 39641 40093 57031 82200 333 59017=
0169483040999992023011209004+19867+099767FM-12+040199999V0203601N001512200019N012000199+03071+01591100621ADDGA1021+008001081GE19AGL   +99999+99999GF102991021999008001999999MA1999999096151MD1710271-0141REMSYN06448304 32562 23603 10307 20159 39615 40062 57027 82200 333 59014=
0188483040999992023011212004+19867+099767FM-12+040199999V0209999C000012200019N010000199+02241+01941100831ADDGA1011+012501081GE19AGL   +99999+99999GF101991011999012501999999KA1240M+03121MA1999999096221MD1210081-0051REMSYN07048304 32660 10000 10224 20194 39622 40083 52008 81100 333 10312 59005=
0099483040999992023011215004+19867+099767FM-12+040199999V0209999C000019999999N010000199+01891+01691101111ADDMA1999999096441MD1210221-0041REMSYN05848304 32960 00000 10189 20169 39644 40111 52022 333 59004=
0099483040999992023011218004+19867+099767FM-12+040199999V0209999C000019999999N010000199+01621+01481101241ADDMA1999999096511MD1210071+0041REMSYN05848304 32960 00000 10162 20148 39651 40124 52007 333 58004=
0099483040999992023011221004+19867+099767FM-12+040199999V0209999C000019999999N010000199+01411+01321101241ADDMA1999999096481MD1710031+0101REMSYN05848304 32960 00000 10141 20132 39648 40124 57003 333 58010=
0118483040999992023011300004+19867+099767FM-12+040199999V0209999C000019999999N010000199+01221+01141101391ADDKA1120N+01171MA1999999096591MD1210111+0151REMSYN06448304 32960 00000 10122 20114 39659 40139 52011 333 20117 58015=
0099483040999992023011303004+19867+099767FM-12+040199999V0209999C000019999999N012000199+02161+01501101451ADDMA1999999096801MD1210211+0101REMSYN05848304 32962 00000 10216 20150 39680 40145 52021 333 58010=
0099483040999992023011306004+19867+099767FM-12+040199999V0203601N002119999999N015000199+02851+01381101051ADDMA1999999096521MD1710281+0121REMSYN05848304 32965 03604 10285 20138 39652 40105 57028 333 58012=
0099483040999992023011309004+19867+099767FM-12+040199999V0209999C000019999999N015000199+03111+01281100731ADDMA1999999096251MD1710271+0111REMSYN05848304 32965 00000 10311 20128 39625 40073 57027 333 58011=
0118483040999992023011312004+19867+099767FM-12+040199999V0209999C000019999999N012000199+02291+01671100901ADDKA1240M+03141MA1999999096301MD1210041+0091REMSYN06448304 32962 00000 10229 20167 39630 40090 52004 333 10314 58009=
0099483040999992023011315004+19867+099767FM-12+040199999V0209999C000019999999N012000199+01691+01461101141ADDMA1999999096431MD1210141+0031REMSYN05848304 32962 00000 10169 20146 39643 40114 52014 333 58003=
0099483040999992023011318004+19867+099767FM-12+040199999V0209999C000019999999N012000199+01451+01301101141ADDMA1999999096401MD1710031-0091REMSYN05848304 32962 00000 10145 20130 39640 40114 57003 333 59009=
0099483040999992023011321004+19867+099767FM-12+040199999V0209999C000019999999N012000199+01251+01151101131ADDMA1999999096361MD1710041-0101REMSYN05848304 32962 00000 10125 20115 39636 40113 57004 333 59010=
0118483040999992023011400004+19867+099767FM-12+040199999V0209999C000019999999N012000199+01111+01051101291ADDKA1120N+01051MA1999999096481MD1210121-0101REMSYN06448304 32962 00000 10111 20105 39648 40129 52012 333 20105 59010=
0099483040999992023011403004+19867+099767FM-12+040199999V0209999C000019999999N015000199+02001+01451101331ADDMA1999999096661MD1210181-0121REMSYN05848304 32965 00000 10200 20145 39666 40133 52018 333 59012=
0099483040999992023011406004+19867+099767FM-12+040199999V0209999C000019999999N015000199+02831+01261100911ADDMA1999999096391MD1710281-0141REMSYN05848304 32965 00000 10283 20126 39639 40091 57028 333 59014=
0099483040999992023011409004+19867+099767FM-12+040199999V0209999C000019999999N015000199+03051+01161100581ADDMA1999999096101MD1710291-0151REMSYN05848304 32965 00000 10305 20116 39610 40058 57029 333 59015=
0118483040999992023011412004+19867+099767FM-12+040199999V0209999C000019999999N015000199+02181+01641100811ADDKA1240M+03101MA1999999096191MD1210091-0091REMSYN06448304 32965 00000 10218 20164 39619 40081 52009 333 10310 59009=
0099483040999992023011415004+19867+099767FM-12+040199999V0209999C000019999999N015000199+01651+01421101041ADDMA1999999096331MD1210141-0101REMSYN05848304 32965 00000 10165 20142 39633 40104 52014 333 59010=
0099483040999992023011418004+19867+099767FM-12+040199999V0209999C000019999999N012000199+01401+01251101121ADDMA1999999096371MD1210031-0021REMSYN05848304 32962 00000 10140 20125 39637 40112 52003 333 59002=
0099483040999992023011421004+19867+099767FM-12+040199999V0209999C000019999999N012000199+01201+01101101101ADDMA1999999096321MD1710051-0031REMSYN05848304 32962 00000 10120 20110 39632 40110 57005 333 59003=
0118483040999992023011500004+19867+099767FM-12+040199999V0209999C000019999999N012000199+01131+01071101261ADDKA1120N+01051MA1999999096461MD1210141-0031REMSYN06448304 32962 00000 10113 20107 39646 40126 52014 333 20105 59003=
0099483040999992023011503004+19867+099767FM-12+040199999V0209999C000019999999N015000199+01901+01391101381ADDMA1999999096701MD1210241+0051REMSYN05848304 32965 00000 10190 20139 39670 40138 52024 333 58005=
0099483040999992023011506004+19867+099767FM-12+040199999V0203201N001519999999N015000199+02751+01071100961ADDMA1999999096421MD1710271+0051REMSYN05848304 32965 03203 10275 20107 39642 40096 57027 333 58005=
0099483040999992023011509004+19867+099767FM-12+040199999V0202701N002119999999N015000199+02891+00791100681ADDMA1999999096181MD1710241+0101REMSYN05848304 32965 02704 10289 20079 39618 40068 57024 333 58010=
0118483040999992023011512004+19867+099767FM-12+040199999V0209999C000019999999N015000199+02061+01461100961ADDKA1240M+02941MA1999999096321MD1210141+0151REMSYN06448304 32965 00000 10206 20146 39632 40096 52014 333 10294 58015=
0099483040999992023011515004+19867+099767FM-12+040199999V0209999C000019999999N012000199+01471+01251101251ADDMA1999999096511MD1210191+0211REMSYN05848304 32962 00000 10147 20125 39651 40125 52019 333 58021=
0099483040999992023011518004+19867+099767FM-12+040199999V0209999C000019999999N012000199+01321+01171101241ADDMA1999999096471MD1710031+0121REMSYN05848304 32962 00000 10132 20117 39647 40124 57003 333 58012=
0099483040999992023011521004+19867+099767FM-12+040199999V0209999C000019999999N012000199+01131+01031101231ADDMA1999999096431MD1710041+0131REMSYN05848304 32962 00000 10113 20103 39643 40123 57004 333 58013=
0235483040999992023011600004+19867+099767FM-12+040199999V0209999C000012200019N009000199+00921+00841101521ADDAY101021AY201021GA1999+999999021GE19AGL   +99999+99999GF101991001999999999999999KA1120N+00861MA1999999096671MD1210241+0261MW1101REMSYN07648304 31959 10000 10092 20084 39667 40152 52024 71000 80005 333 20086 58026=EQDQ01    003SCCGA1
0099483040999992023011603004+19867+099767FM-12+040199999V0209999C000019999999N012000199+01811+01251101621ADDMA1999999096911MD1210241+0241REMSYN05848304 32962 00000 10181 20125 39691 40162 52024 333 58024=
0188483040999992023011606004+19867+099767FM-12+040199999V0209999C000012200019N015000199+02581+01111101171ADDGA1999+999999021GE19AGL   +99999+99999GF101991001999999999999999MA1999999096601MD1710311+0211REMSYN06448304 32965 10000 10258 20111 39660 40117 57031 80005 333 58021=EQDQ01    003SCCGA1
0099483040999992023011609004+19867+099767FM-12+040199999V0209999C000019999999N015000199+02851+01171100821ADDMA1999999096311MD1710291+0141REMSYN05848304 32965 00000 10285 20117 39631 40082 57029 333 58014=
0207483040999992023011612004+19867+099767FM-12+040199999V0209999C000012200019N012000199+02221+01631101101ADDGA1999+999999021GE19AGL   +99999+99999GF102991001999999999999999KA1240M+02851MA1999999096471MD1210171+0141REMSYN07048304 32962 20000 10222 20163 39647 40110 52017 80005 333 10285 58014=EQDQ01    003SCCGA1
0099483040999992023011615004+19867+099767FM-12+040199999V0209999C000019999999N012000199+01601+01391101391ADDMA1999999096661MD1210181+0141REMSYN05848304 32962 00000 10160 20139 39666 40139 52018 333 58014=
0099483040999992023011618004+19867+099767FM-12+040199999V0209999C000019999999N012000199+01411+01261101401ADDMA1999999096641MD1710021+0161REMSYN05848304 32962 00000 10141 20126 39664 40140 57002 333 58016=
0099483040999992023011621004+19867+099767FM-12+040199999V0209999C000019999999N010000199+01161+01081101391ADDMA1999999096591MD1710051+0161REMSYN05848304 32960 00000 10116 20108 39659 40139 57005 333 58016=
0118483040999992023011700004+19867+099767FM-12+040199999V0209999C000019999999N010000199+01071+01031101581ADDKA1120N+01011MA1999999096761MD1210171+0071REMSYN06448304 32960 00000 10107 20103 39676 40158 52017 333 20101 58007=
0099483040999992023011703004+19867+099767FM-12+040199999V0209999C000019999999N012000199+01891+01321101681ADDMA1999999096981MD1210221+0061REMSYN05848304 32962 00000 10189 20132 39698 40168 52022 333 58006=
0169483040999992023011706004+19867+099767FM-12+040199999V0201301N001012200019N015000199+02651+01341101251ADDGA1011+012501081GE19AGL   +99999+99999GF101991011999012501999999MA1999999096681MD1710291+0081REMSYN06448304 32665 11302 10265 20134 39668 40125 57029 81100 333 58008=
0201483040999992023011709004+19867+099767FM-12+040199999V0209999C000012200019N015000199+02831+01461100941ADDGA1011+012501081GA2999+999999031GA3999+999999021GE19AGL   +99999+99999GF102991011999012501999999MA1999999096411MD1710271+0121REMSYN06448304 32665 20000 10283 20146 39641 40094 57027 81145 333 58012=
0220483040999992023011712004+19867+099767FM-12+040199999V0209999C000012200019N012000199+02311+01761101161ADDGA1011+012501061GA2999+999999031GA3999+999999021GE19AGL   +99999+99999GF102991011999012501999999KA1240M+02861MA1999999096551MD1210141+0071REMSYN07048304 32662 20000 10231 20176 39655 40116 52014 81545 333 10286 58007=
0099483040999992023011715004+19867+099767FM-12+040199999V0209999C000019999999N012000199+01841+01511101471ADDMA1999999096781MD1210231+0091REMSYN05848304 32962 00000 10184 20151 39678 40147 52023 333 58009=
0169483040999992023011718004+19867+099767FM-12+040199999V0209999C000012200019N010000199+01681+01541101531ADDGA1021+012501061GE19AGL   +99999+99999GF102991021999012501999999MA1999999096811MD1210031+0141REMSYN06448304 32660 20000 10168 20154 39681 40153 52003 82500 333 58014=
0099483040999992023011721004+19867+099767FM-12+040199999V0209999C000019999999N010000199+01491+01401101511ADDMA1999999096761MD1710051+0121REMSYN05848304 32960 00000 10149 20140 39676 40151 57005 333 58012=
0220483040999992023011800004+19867+099767FM-12+040199999V0209999C000012200019N010000199+01461+01371101691ADDGA1021+012501061GA2999+999999031GA3999+999999021GE19AGL   +99999+99999GF102991021999012501999999KA1120N+01411MA1999999096921MD1210171+0111REMSYN07048304 32660 20000 10146 20137 39692 40169 52017 82545 333 20141 58011=
0201483040999992023011803004+19867+099767FM-12+040199999V0209999C000019999999N010000199+02061+01611101861ADDGA1051+012501061GA2999+999999031GA3999+999999021GE19AGL   +99999+99999GF107991051999012501999999MA1999999097181MD1210251+0191REMSYN06448304 32660 70000 10206 20161 39718 40186 52025 85546 333 58019=
0169483040999992023011806004+19867+099767FM-12+040199999V0202201N002112200019N010000199+02711+01631101491ADDGA1021+008001081GE19AGL   +99999+99999GF102991021999008001999999MA1999999096921MD1710261+0241REMSYN06448304 32560 22204 10271 20163 39692 40149 57026 82100 333 58024=
0169483040999992023011809004+19867+099767FM-12+040199999V0202201N002112200019N010000199+02911+01621101121ADDGA1021+008001081GE19AGL   +99999+99999GF102991021999008001999999MA1999999096601MD1710321+0191REMSYN06448304 32560 22204 10291 20162 39660 40112 57032 82100 333 58019=
0118483040999992023011812004+19867+099767FM-12+040199999V0209999C000019999999N010000199+02241+01791101241ADDKA1240M+02961MA1999999096621MD1210011+0081REMSYN06448304 32960 00000 10224 20179 39662 40124 52001 333 10296 58008=
0099483040999992023011815004+19867+099767FM-12+040199999V0209999C000019999999N010000199+01871+01561101591ADDMA1999999096901MD1210281+0121REMSYN05848304 32960 00000 10187 20156 39690 40159 52028 333 58012=
0099483040999992023011818004+19867+099767FM-12+040199999V0209999C000019999999N010000199+01701+01581101621ADDMA1999999096891MD1410001+0091REMSYN05848304 32960 00000 10170 20158 39689 40162 54000 333 58009=
0099483040999992023011821004+19867+099767FM-12+040199999V0209999C000019999999N010000199+01501+01411101551ADDMA1999999096801MD1710091+0041REMSYN05848304 32960 00000 10150 20141 39680 40155 57009 333 58004=
0220483040999992023011900004+19867+099767FM-12+040199999V0209999C000019999999N010000199+01461+01371101681ADDGA1021+012501061GA2999+999999031GA3999+999999021GE19AGL   +99999+99999GF106991021999012501999999KA1120N+01401MA1999999096921MD1210121-0011REMSYN07048304 32660 60000 10146 20137 39692 40168 52012 82546 333 20140 59001=
0213483040999992023011903004+19867+099767FM-12+040199999V0209999C000019999999N008000199+02081+01741101801ADDAY121021AY221021GA1011+012501061GA2999+999999021GE19AGL   +99999+99999GF105991011999012501999999MA1999999097121MD1210211-0061MW1101REMSYN07048304 31658 50000 10208 20174 39712 40180 52021 71022 81506 333 59006=
0213483040999992023011906004+19867+099767FM-12+040199999V0202001N001012200019N007000199+02711+01571101361ADDAY111021AY211021GA1011+012501081GA2999+999999021GE19AGL   +99999+99999GF102991011999012501999999MA1999999096801MD1710331-0131MW1051REMSYN07048304 31657 22002 10271 20157 39680 40136 57033 70511 81105 333 59013=
0213483040999992023011909004+19867+099767FM-12+040199999V0209999C000019999999N007000199+02931+01551101041ADDAY111021AY211021GA1011+012501081GA2999+999999021GE19AGL   +99999+99999GF105991011999012501999999MA1999999096531MD1710271-0081MW1051REMSYN07048304 31657 50000 10293 20155 39653 40104 57027 70511 81106 333 59008=
0248483040999992023011912004+19867+099767FM-12+040199999V0209999C000019999999N006000199+02311+01761101251ADDAY111021AY211021GA1011+012501081GA2999+999999031GA3999+999999021GE19AGL   +99999+99999GF105991011999012501999999KA1240M+02971MA1999999096631MD1210101+0011MW1101REMSYN07648304 31656 50000 10231 20176 39663 40125 52010 71011 81146 333 10297 58001=
0127483040999992023011915004+19867+099767FM-12+040199999V0209999C000019999999N006000199+01851+01631101521ADDAY111021AY211021MA1999999096821MD1210191-0081MW1101REMSYN06448304 31956 00000 10185 20163 39682 40152 52019 71011 333 59008=
0127483040999992023011918004+19867+099767FM-12+040199999V0209999C000019999999N006000199+01651+01511101571ADDAY111021AY211021MA1999999096841MD1210021-0051MW1101REMSYN06448304 31956 00000 10165 20151 39684 40157 52002 71011 333 59005=
0127483040999992023011921004+19867+099767FM-12+040199999V0209999C000019999999N006000199+01551+01461101531ADDAY101021AY201021MA1999999096781MD1710051-0021MW1101REMSYN06448304 31956 00000 10155 20146 39678 40153 57005 71000 333 59002=
0118483040999992023012000004+19867+099767FM-12+040199999V0209999C000019999999N010000199+01361+01271101651ADDKA1120N+01321MA1999999096871MD1210091-0031REMSYN06448304 32960 00000 10136 20127 39687 40165 52009 333 20132 59003=
0099483040999992023012003004+19867+099767FM-12+040199999V0209999C000019999999N010000199+02151+01671101781ADDMA1999999097111MD1210241-0021REMSYN05848304 32960 00000 10215 20167 39711 40178 52024 333 59002=
0169483040999992023012006004+19867+099767FM-12+040199999V0200501N002112200019N012000199+02821+01591101371ADDGA1011+008001081GE19AGL   +99999+99999GF101991011999008001999999MA1999999096831MD1710281+0021REMSYN06448304 32562 10504 10282 20159 39683 40137 57028 81200 333 58002=
0099483040999992023012009004+19867+099767FM-12+040199999V0200501N001519999999N012000199+02951+01431101071ADDMA1999999096561MD1710271+0031REMSYN05848304 32962 00503 10295 20143 39656 40107 57027 333 58003=
0118483040999992023012012004+19867+099767FM-12+040199999V0209999C000019999999N015000199+02351+01831101221ADDKA1240M+02991MA1999999096611MD1210051-0031REMSYN06448304 32965 00000 10235 20183 39661 40122 52005 333 10299 59003=
0099483040999992023012015004+19867+099767FM-12+040199999V0209999C000019999999N010000199+01791+01601101501ADDMA1999999096801MD1210181-0011REMSYN05848304 32960 00000 10179 20160 39680 40150 52018 333 59001=
0099483040999992023012018004+19867+099767FM-12+040199999V0209999C000019999999N010000199+01631+01531101521ADDMA1999999096791MD1710011-0051REMSYN05848304 32960 00000 10163 20153 39679 40152 57001 333 59005=
0099483040999992023012021004+19867+099767FM-12+040199999V0209999C000019999999N010000199+01401+01311101471ADDMA1999999096701MD1710091-0061REMSYN05848304 32960 00000 10140 20131 39670 40147 57009 333 59006=
0118483040999992023012100004+19867+099767FM-12+040199999V0209999C000019999999N012000199+01301+01211101561ADDKA1120N+01241MA1999999096781MD1210081-0091REMSYN06448304 32962 00000 10130 20121 39678 40156 52008 333 20124 59009=
0099483040999992023012103004+19867+099767FM-12+040199999V0200801N001019999999N012000199+02081+01611101681ADDMA1999999097011MD1210231-0101REMSYN05848304 32962 00802 10208 20161 39701 40168 52023 333 59010=
0169483040999992023012106004+19867+099767FM-12+040199999V0200901N002112200019N015000199+02771+01581101241ADDGA1011+008001081GE19AGL   +99999+99999GF101991011999008001999999MA1999999096691MD1710311-0131REMSYN06448304 32565 10904 10277 20158 39669 40124 57031 81100 333 59013=
0169483040999992023012109004+19867+099767FM-12+040199999V0200701N002112200019N015000199+03021+01421100871ADDGA1011+008001081GE19AGL   +99999+99999GF101991011999008001999999MA1999999096381MD1710311-0201REMSYN06448304 32565 10704 10302 20142 39638 40087 57031 81100 333 59020=
0118483040999992023012112004+19867+099767FM-12+040199999V0209999C000019999999N012000199+02351+01881101041ADDKA1240M+03051MA1999999096441MD1210061-0181REMSYN06448304 32962 00000 10235 20188 39644 40104 52006 333 10305 59018=
0099483040999992023012115004+19867+099767FM-12+040199999V0209999C000019999999N010000199+01821+01651101311ADDMA1999999096621MD1210171-0191REMSYN05848304 32960 00000 10182 20165 39662 40131 52017 333 59019=
0099483040999992023012118004+19867+099767FM-12+040199999V0209999C000019999999N010000199+01651+01531101321ADDMA1999999096601MD1710021-0211REMSYN05848304 32960 00000 10165 20153 39660 40132 57002 333 59021=
0099483040999992023012121004+19867+099767FM-12+040199999V0209999C000019999999N010000199+01481+01391101331ADDMA1999999096581MD1710021-0141REMSYN05848304 32960 00000 10148 20139 39658 40133 57002 333 59014=
0118483040999992023012200004+19867+099767FM-12+040199999V0209999C000019999999N012000199+01341+01271101481ADDKA1120N+01261MA1999999096711MD1210131-0081REMSYN06448304 32962 00000 10134 20127 39671 40148 52013 333 20126 59008=
0099483040999992023012203004+19867+099767FM-12+040199999V0209999C000019999999N015000199+02051+01651101541ADDMA1999999096871MD1210171-0131REMSYN05848304 32965 00000 10205 20165 39687 40154 52017 333 59013=
0169483040999992023012206004+19867+099767FM-12+040199999V0209999C000012200019N015000199+02791+01491101131ADDGA1011+012501081GE19AGL   +99999+99999GF101991011999012501999999MA1999999096591MD1710281-0111REMSYN06448304 32665 10000 10279 20149 39659 40113 57028 81100 333 59011=
0099483040999992023012209004+19867+099767FM-12+040199999V0200501N001019999999N015000199+03101+01331100761ADDMA1999999096291MD1710301-0111REMSYN05848304 32965 00502 10310 20133 39629 40076 57030 333 59011=
0207483040999992023012212004+19867+099767FM-12+040199999V0209999C000012200019N012000199+02451+01851100931ADDGA1999+999999021GE19AGL   +99999+99999GF101991001999999999999999KA1240M+03131MA1999999096351MD1210061-0111REMSYN07048304 32962 10000 10245 20185 39635 40093 52006 80005 333 10313 59011=EQDQ01    003SCCGA1
0099483040999992023012215004+19867+099767FM-12+040199999V0209999C000019999999N010000199+01801+01581101231ADDMA1999999096541MD1210191-0071REMSYN05848304 32960 00000 10180 20158 39654 40123 52019 333 59007=
0099483040999992023012218004+19867+099767FM-12+040199999V0209999C000019999999N010000199+01611+01471101241ADDMA1999999096521MD1710021-0071REMSYN05848304 32960 00000 10161 20147 39652 40124 57002 333 59007=
0099483040999992023012221004+19867+099767FM-12+040199999V0209999C000019999999N010000199+01351+01281101241ADDMA1999999096481MD1710041-0081REMSYN05848304 32960 00000 10135 20128 39648 40124 57004 333 59008=
0118483040999992023012300004+19867+099767FM-12+040199999V0209999C000019999999N012000199+01241+01121101381ADDKA1120N+01161MA1999999096601MD1210121-0101REMSYN06448304 32962 00000 10124 20112 39660 40138 52012 333 20116 59010=
0099483040999992023012303004+19867+099767FM-12+040199999V0209999C000019999999N015000199+02051+01391101441ADDMA1999999096781MD1210181-0101REMSYN05848304 32965 00000 10205 20139 39678 40144 52018 333 59010=
0169483040999992023012306004+19867+099767FM-12+040199999V0209999C000012200019N015000199+02781+01301101031ADDGA1011+012501081GE19AGL   +99999+99999GF101991011999012501999999MA1999999096491MD1710281-0101REMSYN06448304 32665 10000 10278 20130 39649 40103 57028 81100 333 59010=
0188483040999992023012309004+19867+099767FM-12+040199999V0209999C000012200019N015000199+03041+01271100721ADDGA1999+999999001GE19AGL   +99999+99999GF102991001999999999999999MA1999999096241MD1710261-0041REMSYN06448304 32965 20000 10304 20127 39624 40072 57026 80001 333 59004=EQDQ01    003SCCGA1
0118483040999992023012312004+19867+099767FM-12+040199999V0209999C000019999999N012000199+02311+01761100961ADDKA1240M+03051MA1999999096361MD1210131+0031REMSYN06448304 32962 00000 10231 20176 39636 40096 52013 333 10305 58003=
0099483040999992023012315004+19867+099767FM-12+040199999V0209999C000019999999N010000199+01801+01491101271ADDMA1999999096571MD1210211+0031REMSYN05848304 32960 00000 10180 20149 39657 40127 52021 333 58003=
0099483040999992023012318004+19867+099767FM-12+040199999V0209999C000019999999N010000199+01451+01321101381ADDMA1999999096631MD1210061+0141REMSYN05848304 32960 00000 10145 20132 39663 40138 52006 333 58014=
0099483040999992023012321004+19867+099767FM-12+040199999V0209999C000019999999N010000199+01321+01231101451ADDMA1999999096671MD1210051+0211REMSYN05848304 32960 00000 10132 20123 39667 40145 52005 333 58021=
0118483040999992023012400004+19867+099767FM-12+040199999V0209999C000019999999N010000199+01131+01051101691ADDKA1120N+01071MA1999999096871MD1210201+0311REMSYN06448304 32960 00000 10113 20105 39687 40169 52020 333 20107 58031=
0099483040999992023012403004+19867+099767FM-12+040199999V0209999C000019999999N010000199+01961+01351101801ADDMA1999999097111MD1210241+0361REMSYN05848304 32960 00000 10196 20135 39711 40180 52024 333 58036=
0099483040999992023012406004+19867+099767FM-12+040199999V0200801N002119999999N012000199+02731+01091101421ADDMA1999999096861MD1710251+0401REMSYN05848304 32962 00804 10273 20109 39686 40142 57025 333 58040=
0099483040999992023012409004+19867+099767FM-12+040199999V0209999C000019999999N012000199+02971+01301101091ADDMA1999999096581MD1710291+0371REMSYN05848304 32962 00000 10297 20130 39658 40109 57029 333 58037=
0220483040999992023012412004+19867+099767FM-12+040199999V0209999C000012200019N012000199+02321+01761101261ADDGA1021+012501081GA2999+999999031GA3999+999999021GE19AGL   +99999+99999GF103991021999012501999999KA1240M+03011MA1999999096651MD1210071+0301REMSYN07048304 32662 30000 10232 20176 39665 40126 52007 82145 333 10301 58030=
0201483040999992023012415004+19867+099767FM-12+040199999V0209999C000012200019N010000199+01871+01531101411ADDGA1021+012501081GA2999+999999031GA3999+999999021GE19AGL   +99999+99999GF102991021999012501999999MA1999999096721MD1210081+0151REMSYN06448304 32660 20000 10187 20153 39672 40141 52008 82145 333 58015=
0099483040999992023012418004+19867+099767FM-12+040199999V0209999C000019999999N010000199+01771+01621101531ADDMA1999999096811MD1210091+0141REMSYN05848304 32960 00000 10177 20162 39681 40153 52009 333 58014=
0099483040999992023012421004+19867+099767FM-12+040199999V0209999C000019999999N010000199+01661+01571101481ADDMA1999999096751MD1710061+0031REMSYN05848304 32960 00000 10166 20157 39675 40148 57006 333 58003=
0220483040999992023012500004+19867+099767FM-12+040199999V0209999C000012200019N010000199+01481+01391101661ADDGA1021+012501061GA2999+999999031GA3999+999999021GE19AGL   +99999+99999GF103991021999012501999999KA1120N+01441MA1999999096891MD1210141-0041REMSYN07048304 32660 30000 10148 20139 39689 40166 52014 82545 333 20144 59004=
0169483040999992023012503004+19867+099767FM-12+040199999V0203501N001512200019N010000199+02131+01271101751ADDGA1011+012501081GE19AGL   +99999+99999GF101991011999012501999999MA1999999097091MD1210191-0051REMSYN06448304 32660 13503 10213 20127 39709 40175 52019 81100 333 59005=
0169483040999992023012506004+19867+099767FM-12+040199999V0202301N001012200019N012000199+02611+01461101311ADDGA1011+012501081GE19AGL   +99999+99999GF101991011999012501999999MA1999999096741MD1710351-0111REMSYN06448304 32662 12302 10261 20146 39674 40131 57035 81100 333 59011=
0099483040999992023012509004+19867+099767FM-12+040199999V0209999C000019999999N012000199+02771+01421100961ADDMA1999999096421MD1710311-0131REMSYN05848304 32962 00000 10277 20142 39642 40096 57031 333 59013=
0118483040999992023012512004+19867+099767FM-12+040199999V0209999C000019999999N010000199+02271+01791101101ADDKA1240M+02811MA1999999096491MD1210061-0161REMSYN06448304 32960 00000 10227 20179 39649 40110 52006 333 10281 59016=
0099483040999992023012515004+19867+099767FM-12+040199999V0209999C000019999999N010000199+01751+01581101341ADDMA1999999096631MD1210141-0081REMSYN05848304 32960 00000 10175 20158 39663 40134 52014 333 59008=
0099483040999992023012518004+19867+099767FM-12+040199999V0209999C000019999999N010000199+01521+01381101401ADDMA1999999096651MD1210021-0131REMSYN05848304 32960 00000 10152 20138 39665 40140 52002 333 59013=
0099483040999992023012521004+19867+099767FM-12+040199999V0209999C000019999999N010000199+01401+01311101361ADDMA1999999096601MD1710051-0121REMSYN05848304 32960 00000 10140 20131 39660 40136 57005 333 59012=
0118483040999992023012600004+19867+099767FM-12+040199999V0209999C000019999999N010000199+01301+01211101451ADDKA1120N+01231MA1999999096671MD1210081-0201REMSYN06448304 32960 00000 10130 20121 39667 40145 52008 333 20123 59020=
0099483040999992023012603004+19867+099767FM-12+040199999V0209999C000019999999N010000199+02071+01601101531ADDMA1999999096871MD1210201-0221REMSYN05848304 32960 00000 10207 20160 39687 40153 52020 333 59022=
0099483040999992023012606004+19867+099767FM-12+040199999V0200801N001519999999N010000199+02701+01491101051ADDMA1999999096511MD1710361-0261REMSYN05848304 32960 00803 10270 20149 39651 40105 57036 333 59026=
0099483040999992023012609004+19867+099767FM-12+040199999V0209999C000019999999N010000199+02981+01621100761ADDMA1999999096271MD1710241-0201REMSYN05848304 32960 00000 10298 20162 39627 40076 57024 333 59020=
0118483040999992023012612004+19867+099767FM-12+040199999V0202601N000519999999N010000199+02401+01881100931ADDKA1240M+03011MA1999999096341MD1210081-0171REMSYN06448304 32960 02601 10240 20188 39634 40093 52008 333 10301 59017=
0099483040999992023012615004+19867+099767FM-12+040199999V0209999C000019999999N010000199+01881+01661101221ADDMA1999999096541MD1210191-0121REMSYN05848304 32960 00000 10188 20166 39654 40122 52019 333 59012=
0099483040999992023012618004+19867+099767FM-12+040199999V0209999C000019999999N010000199+01651+01481101261ADDMA1999999096541MD1210011-0141REMSYN05848304 32960 00000 10165 20148 39654 40126 52001 333 59014=
0099483040999992023012621004+19867+099767FM-12+040199999V0209999C000019999999N010000199+01501+01371101261ADDMA1999999096521MD1710021-0101REMSYN05848304 32960 00000 10150 20137 39652 40126 57002 333 59010=
0118483040999992023012700004+19867+099767FM-12+040199999V0209999C000019999999N010000199+01371+01301101501ADDKA1120N+01331MA1999999096731MD1210201+0051REMSYN06448304 32960 00000 10137 20130 39673 40150 52020 333 20133 58005=
0099483040999992023012703004+19867+099767FM-12+040199999V0209999C000019999999N012000199+02151+01661101641ADDMA1999999096991MD1210261+0111REMSYN05848304 32962 00000 10215 20166 39699 40164 52026 333 58011=
0099483040999992023012706004+19867+099767FM-12+040199999V0200801N001519999999N015000199+02801+01641101201ADDMA1999999096661MD1710331+0141REMSYN05848304 32965 00803 10280 20164 39666 40120 57033 333 58014=
0099483040999992023012709004+19867+099767FM-12+040199999V0201201N001519999999N015000199+03011+01611100911ADDMA1999999096421MD1710241+0151REMSYN05848304 32965 01203 10301 20161 39642 40091 57024 333 58015=
0118483040999992023012712004+19867+099767FM-12+040199999V0209999C000019999999N012000199+02361+01901101121ADDKA1240M+03051MA1999999096521MD1210111+0191REMSYN06448304 32962 00000 10236 20190 39652 40112 52011 333 10305 58019=
0201483040999992023012715004+19867+099767FM-12+040199999V0209999C000012200019N010000199+01901+01701101381ADDGA1011+012501081GA2999+999999031GA3999+999999021GE19AGL   +99999+99999GF104991011999012501999999MA1999999096691MD1210171+0161REMSYN06448304 32660 40000 10190 20170 39669 40138 52017 81135 333 58016=
0099483040999992023012718004+19867+099767FM-12+040199999V0209999C000019999999N010000199+01851+01701101391ADDMA1999999096701MD1410001+0131REMSYN05848304 32960 00000 10185 20170 39670 40139 54000 333 58013=
0099483040999992023012721004+19867+099767FM-12+040199999V0209999C000019999999N010000199+01721+01601101411ADDMA1999999096691MD1410001+0141REMSYN05848304 32960 00000 10172 20160 39669 40141 54000 333 58014=
0220483040999992023012800004+19867+099767FM-12+040199999V0209999C000019999999N012000199+01521+01471101621ADDGA1021+012501061GA2999+999999031GA3999+999999021GE19AGL   +99999+99999GF105991021999012501999999KA1120N+01471MA1999999096871MD1210181+0121REMSYN07048304 32662 50000 10152 20147 39687 40162 52018 82536 333 20147 58012=
0201483040999992023012803004+19867+099767FM-12+040199999V0201001N000512200019N015000199+02151+01531101721ADDGA1011+012501081GA2999+999999031GA3999+999999021GE19AGL   +99999+99999GF104991011999012501999999MA1999999097061MD1210191+0071REMSYN06448304 32665 41001 10215 20153 39706 40172 52019 81145 333 58007=
0185483040999992023012806004+19867+099767FM-12+040199999V0200601N001019999999N015000199+02571+01451101361ADDGA1041+012501061GA2999+999999021GE19AGL   +99999+99999GF106991041999012501999999MA1999999096781MD1710281+0171REMSYN06448304 32665 60602 10257 20145 39678 40136 57028 84506 333 58017=
0201483040999992023012809004+19867+099767FM-12+040199999V0201101N002119999999N015000199+02601+01551101161ADDGA1021+012501061GA2999+999999031GA3999+999999021GE19AGL   +99999+99999GF107991021999012501999999MA1999999096591MD1710191+0241REMSYN06448304 32665 71104 10260 20155 39659 40116 57019 82546 333 58024=
0118483040999992023012812004+19867+099767FM-12+040199999V0200401N001019999999N010000199+02231+01641101301ADDKA1240M+02711MA1999999096671MD1210081+0181REMSYN06448304 32960 00402 10223 20164 39667 40130 52008 333 10271 58018=
0099483040999992023012815004+19867+099767FM-12+040199999V0209999C000019999999N010000199+01811+01551101551ADDMA1999999096841MD1210171+0171REMSYN05848304 32960 00000 10181 20155 39684 40155 52017 333 58017=
0099483040999992023012818004+19867+099767FM-12+040199999V0209999C000019999999N010000199+01711+01561101561ADDMA1999999096841MD1410001+0181REMSYN05848304 32960 00000 10171 20156 39684 40156 54000 333 58018=
0099483040999992023012821004+19867+099767FM-12+040199999V0209999C000019999999N010000199+01581+01471101471ADDMA1999999096741MD1710111+0071REMSYN05848304 32960 00000 10158 20147 39674 40147 57011 333 58007=
0220483040999992023012900004+19867+099767FM-12+040199999V0209999C000019999999N012000199+01751+01401101751ADDGA1031+012501061GA2999+999999031GA3999+999999021GE19AGL   +99999+99999GF108991031999012501999999KA1120N+01551MA1999999097021MD1210261+0131REMSYN07048304 32662 80000 10175 20140 39702 40175 52026 83536 333 20155 58013=
0201483040999992023012903004+19867+099767FM-12+040199999V0200401N001519999999N015000199+02011+01331101961ADDGA1031+012501061GA2999+999999031GA3999+999999021GE19AGL   +99999+99999GF108991031999012501999999MA1999999097271MD1210241+0241REMSYN06448304 32665 80403 10201 20133 39727 40196 52024 83536 333 58024=
0185483040999992023012906004+19867+099767FM-12+040199999V0200201N002612200019N015000199+02431+01241101631ADDGA1011+012501081GA2999+999999021GE19AGL   +99999+99999GF102991011999012501999999MA1999999097011MD1710251+0261REMSYN06448304 32665 20205 10243 20124 39701 40163 57025 81105 333 58026=
0169483040999992023012909004+19867+099767FM-12+040199999V0200401N002612200019N015000199+02621+01191101341ADDGA1011+012501081GE19AGL   +99999+99999GF101991011999012501999999MA1999999096761MD1710251+0181REMSYN06448304 32665 10405 10262 20119 39676 40134 57025 81100 333 58018=
0118483040999992023012912004+19867+099767FM-12+040199999V0209999C000019999999N012000199+02151+01471101521ADDKA1240M+02641MA1999999096871MD1210111+0221REMSYN06448304 32962 00000 10215 20147 39687 40152 52011 333 10264 58022=
0099483040999992023012915004+19867+099767FM-12+040199999V0209999C000019999999N010000199+01841+01551101901ADDMA1999999097181MD1210311+0351REMSYN05848304 32960 00000 10184 20155 39718 40190 52031 333 58035=
0099483040999992023012918004+19867+099767FM-12+040199999V0209999C000019999999N010000199+01641+01481101901ADDMA1999999097151MD1710031+0341REMSYN05848304 32960 00000 10164 20148 39715 40190 57003 333 58034=
0099483040999992023012921004+19867+099767FM-12+040199999V0209999C000019999999N010000199+01371+01261101861ADDMA1999999097071MD1710091+0351REMSYN05848304 32960 00000 10137 20126 39707 40186 57009 333 58035=
0146483040999992023013000004+19867+099767FM-12+040199999V0209999C000019999999N004000199+01211+01131102071ADDAY101021AY201021KA1120N+01161MA1999999097241MD1210181+0321MW1101REMSYN07048304 31940 00000 10121 20113 39724 40207 52018 71000 333 20116 58032=
0099483040999992023013003004+19867+099767FM-12+040199999V0200501N001019999999N010000199+01941+01421102081ADDMA1999999097371MD1210131+0121REMSYN05848304 32960 00502 10194 20142 39737 40208 52013 333 58012=
0099483040999992023013006004+19867+099767FM-12+040199999V0200801N002619999999N012000199+02561+01111101581ADDMA1999999096991MD1710381-0041REMSYN05848304 32962 00805 10256 20111 39699 40158 57038 333 59004=
0099483040999992023013009004+19867+099767FM-12+040199999V0203401N001019999999N012000199+02661+00931101271ADDMA1999999096701MD1710291-0071REMSYN05848304 32962 03402 10266 20093 39670 40127 57029 333 59007=
0118483040999992023013012004+19867+099767FM-12+040199999V0209999C000019999999N010000199+02031+01651101371ADDKA1240M+02711MA1999999096711MD1210011-0151REMSYN06448304 32960 00000 10203 20165 39671 40137 52001 333 10271 59015=
0099483040999992023013015004+19867+099767FM-12+040199999V0209999C000019999999N010000199+01601+01391101581ADDMA1999999096841MD1210121-0311REMSYN05848304 32960 00000 10160 20139 39684 40158 52012 333 59031=
0099483040999992023013018004+19867+099767FM-12+040199999V0209999C000019999999N010000199+01431+01261101561ADDMA1999999096801MD1710051-0341REMSYN05848304 32960 00000 10143 20126 39680 40156 57005 333 59034=
0099483040999992023013021004+19867+099767FM-12+040199999V0209999C000019999999N010000199+01261+01161101501ADDMA1999999096711MD1710091-0351REMSYN05848304 32960 00000 10126 20116 39671 40150 57009 333 59035=
0146483040999992023013100004+19867+099767FM-12+040199999V0209999C000019999999N006000199+01091+01031101611ADDAY101021AY201021KA1120N+01041MA1999999096781MD1210071-0471MW1101REMSYN07048304 31956 00000 10109 20103 39678 40161 52007 71000 333 20104 59047=
0127483040999992023013103004+19867+099767FM-12+040199999V0209999C000019999999N008000199+01861+01311101611ADDAY101021AY201021MA1999999096911MD1210131-0481MW1101REMSYN06448304 31958 00000 10186 20131 39691 40161 52013 71000 333 59048=
0099483040999992023013106004+19867+099767FM-12+040199999V0209999C000019999999N010000199+02611+01351101141ADDMA1999999096571MD1710331-0451REMSYN05848304 32960 00000 10261 20135 39657 40114 57033 333 59045=
0099483040999992023013109004+19867+099767FM-12+040199999V0209999C000019999999N010000199+02961+01421100721ADDMA1999999096221MD1710351-0551REMSYN05848304 32960 00000 10296 20142 39622 40072 57035 333 59055=
0146483040999992023013112004+19867+099767FM-12+040199999V0209999C000019999999N008000199+02221+01661100951ADDAY101021AY201021KA1240M+03001MA1999999096341MD1210111-0421MW1101REMSYN07048304 31958 00000 10222 20166 39634 40095 52011 71000 333 10300 59042=
0127483040999992023013115004+19867+099767FM-12+040199999V0209999C000019999999N006000199+01811+01571101121ADDAY101021AY201021MA1999999096431MD1210091-0471MW1101REMSYN06448304 31956 00000 10181 20157 39643 40112 52009 71000 333 59047=
0127483040999992023013118004+19867+099767FM-12+040199999V0209999C000019999999N006000199+01551+01371101211ADDAY101021AY201021MA1999999096481MD1210051-0351MW1101REMSYN06448304 31956 00000 10155 20137 39648 40121 52005 71000 333 59035=
0197483040999992023013121004+19867+099767FM-12+040199999V0209999C000012200019N006000199+01451+01321101171ADDAY101021AY201021GA1021+008001061GE19AGL   +99999+99999GF102991021999008001999999MA1999999096421MD1710051-0331MW1101REMSYN07048304 31556 20000 10145 20132 39642 40117 57005 71000 82500 333 59033=
0118483040999992023020100004+19867+099767FM-12+040199999V0209999C000019999999N010000199+01351+01281101271ADDKA1120N+01311MA1999999096501MD1210081-0331REMSYN06448304 32960 00000 10135 20128 39650 40127 52008 333 20131 59033=
0099483040999992023020103004+19867+099767FM-12+040199999V0209999C000019999999N010000199+02181+01651101331ADDMA1999999096691MD1210191-0281REMSYN05848304 32960 00000 10218 20165 39669 40133 52019 333 59028=
0099483040999992023020106004+19867+099767FM-12+040199999V0201201N001519999999N010000199+02811+01571100941ADDMA1999999096411MD1710281-0191REMSYN05848304 32960 01203 10281 20157 39641 40094 57028 333 59019=
0099483040999992023020109004+19867+099767FM-12+040199999V0202201N001519999999N010000199+03081+01671100621ADDMA1999999096141MD1710271-0101REMSYN05848304 32960 02203 10308 20167 39614 40062 57027 333 59010=
0188483040999992023020112004+19867+099767FM-12+040199999V0209999C000012200019N010000199+02551+02011100751ADDGA1021+008001061GE19AGL   +99999+99999GF102991021999008001999999KA1240M+03131MA1999999096201MD1210061-0201REMSYN07048304 32560 20000 10255 20201 39620 40075 52006 82500 333 10313 59020=
0099483040999992023020115004+19867+099767FM-12+040199999V0209999C000019999999N010000199+02001+01791101071ADDMA1999999096411MD1210221-0051REMSYN05848304 32960 00000 10200 20179 39641 40107 52022 333 59005=
0099483040999992023020118004+19867+099767FM-12+040199999V0209999C000019999999N010000199+01851+01701101131ADDMA1999999096451MD1210041-0071REMSYN05848304 32960 00000 10185 20170 39645 40113 52004 333 59007=
0099483040999992023020121004+19867+099767FM-12+040199999V0209999C000019999999N010000199+01681+01541101131ADDMA1999999096431MD1710031-0041REMSYN05848304 32960 00000 10168 20154 39643 40113 57003 333 59004=
0146483040999992023020200004+19867+099767FM-12+040199999V0209999C000019999999N008000199+01531+01481101301ADDAY101021AY201021KA1120N+01491MA1999999096561MD1210131+0031MW1101REMSYN07048304 31958 00000 10153 20148 39656 40130 52013 71000 333 20149 58003=
0127483040999992023020203004+19867+099767FM-12+040199999V0209999C000019999999N006000199+02051+01761101471ADDAY101021AY201021MA1999999096801MD1210241+0141MW1101REMSYN06448304 31956 00000 10205 20176 39680 40147 52024 71000 333 58014=
0127483040999992023020206004+19867+099767FM-12+040199999V0202201N002119999999N006000199+02941+01721101011ADDAY101021AY201021MA1999999096501MD1710301+0071MW1051REMSYN06448304 31956 02204 10294 20172 39650 40101 57030 70500 333 58007=
0127483040999992023020209004+19867+099767FM-12+040199999V0202001N001519999999N006000199+03231+01821100691ADDAY101021AY201021MA1999999096241MD1710261+0081MW1051REMSYN06448304 31956 02003 10323 20182 39624 40069 57026 70500 333 58008=
0146483040999992023020212004+19867+099767FM-12+040199999V0209999C000019999999N006000199+02601+02071100891ADDAY101021AY201021KA1240M+03261MA1999999096331MD1210091+0131MW1101REMSYN07048304 31956 00000 10260 20207 39633 40089 52009 71000 333 10326 58013=
0099483040999992023020215004+19867+099767FM-12+040199999V0209999C000019999999N010000199+02051+01891101151ADDMA1999999096501MD1210171+0081REMSYN05848304 32960 00000 10205 20189 39650 40115 52017 333 58008=
0099483040999992023020218004+19867+099767FM-12+040199999V0209999C000019999999N010000199+01871+01751101161ADDMA1999999096481MD1710021+0031REMSYN05848304 32960 00000 10187 20175 39648 40116 57002 333 58003=
0099483040999992023020221004+19867+099767FM-12+040199999V0209999C000019999999N010000199+01751+01671101161ADDMA1999999096461MD1710021+0031REMSYN05848304 32960 00000 10175 20167 39646 40116 57002 333 58003=
0146483040999992023020300004+19867+099767FM-12+040199999V0209999C000019999999N008000199+01621+01551101371ADDAY101021AY201021KA1120N+01561MA1999999096641MD1210181+0071MW1101REMSYN07048304 31958 00000 10162 20155 39664 40137 52018 71000 333 20156 58007=
0127483040999992023020303004+19867+099767FM-12+040199999V0209999C000019999999N008000199+02301+01841101441ADDAY101021AY201021MA1999999096811MD1210171-0031MW1101REMSYN06448304 31958 00000 10230 20184 39681 40144 52017 71000 333 59003=
0197483040999992023020306004+19867+099767FM-12+040199999V0202101N001012200019N009000199+02941+01821101041ADDAY101021AY201021GA1011+999999031GE19AGL   +99999+99999GF101991011999999999999999MA1999999096531MD1710281+0031MW1051REMSYN07048304 31959 12102 10294 20182 39653 40104 57028 70500 81040 333 58003=
0188483040999992023020309004+19867+099767FM-12+040199999V0202201N002112200019N010000199+03301+01531100661ADDGA1999+999999021GE19AGL   +99999+99999GF102991001999999999999999MA1999999096211MD1710311-0041REMSYN06448304 32960 22204 10330 20153 39621 40066 57031 80005 333 59004=EQDQ01    003SCCGA1
0204483040999992023020312004+19867+099767FM-12+040199999V0209999C000012200019N010000199+02701+02031100791ADDGA1021+999999031GA2999+999999021GE19AGL   +99999+99999GF103991021999999999999999KA1240M+03321MA1999999096251MD1210041-0101REMSYN07048304 32960 30000 10270 20203 39625 40079 52004 82045 333 10332 59010=
0099483040999992023020315004+19867+099767FM-12+040199999V0209999C000019999999N010000199+02161+01891101061ADDMA1999999096431MD1210181-0091REMSYN05848304 32960 00000 10216 20189 39643 40106 52018 333 59009=
0099483040999992023020318004+19867+099767FM-12+040199999V0209999C000019999999N010000199+01971+01821101131ADDMA1999999096461MD1210031-0041REMSYN05848304 32960 00000 10197 20182 39646 40113 52003 333 59004=
0188483040999992023020321004+19867+099767FM-12+040199999V0209999C000012200019N010000199+01911+01811101011ADDGA1999+999999021GE19AGL   +99999+99999GF103991001999999999999999MA1999999096341MD1710121-0151REMSYN06448304 32960 30000 10191 20181 39634 40101 57012 80005 333 59015=EQDQ01    003SCCGA1
0248483040999992023020400004+19867+099767FM-12+040199999V0209999C000019999999N008000199+01911+01811101161ADDAY111021AY211021GA1031+012501061GA2999+999999031GA3999+999999021GE19AGL   +99999+99999GF108991031999012501999999KA1120N+01821MA1999999096491MD1210151-0211MW1101REMSYN07648304 31658 80000 10191 20181 39649 40116 52015 71011 83536 333 20182 59021=
0229483040999992023020403004+19867+099767FM-12+040199999V0209999C000012200019N009000199+02351+01881101251ADDAY111021AY211021GA1021+012501061GA2999+999999031GA3999+999999021GE19AGL   +99999+99999GF103991021999012501999999MA1999999096641MD1210151-0191MW1101REMSYN07048304 31659 30000 10235 20188 39664 40125 52015 71011 82545 333 59019=
0185483040999992023020406004+19867+099767FM-12+040199999V0200801N001512200019N010000199+03071+01811100821ADDGA1021+999999031GA2999+999999021GE19AGL   +99999+99999GF102991021999999999999999MA1999999096341MD1710301-0221REMSYN06448304 32960 20803 10307 20181 39634 40082 57030 82045 333 59022=
0197483040999992023020409004+19867+099767FM-12+040199999V0201101N001012200019N008000199+03331+01741100451ADDAY101021AY201021GA1011+012501081GE19AGL   +99999+99999GF101991011999012501999999MA1999999096021MD1710321-0211MW1051REMSYN07048304 31658 11102 10333 20174 39602 40045 57032 70500 81100 333 59021=
0207483040999992023020412004+19867+099767FM-12+040199999V0209999C000012200019N010000199+02771+02071100551ADDGA1999+999999021GE19AGL   +99999+99999GF102991001999999999999999KA1240M+03361MA1999999096041MD1210021-0241REMSYN07048304 32960 20000 10277 20207 39604 40055 52002 80005 333 10336 59024=EQDQ01    003SCCGA1
0127483040999992023020415004+19867+099767FM-12+040199999V0209999C000019999999N008000199+02301+02051100851ADDAY101021AY201021MA1999999096261MD1210221-0211MW1101REMSYN06448304 31958 00000 10230 20205 39626 40085 52022 71000 333 59021=
0127483040999992023020418004+19867+099767FM-12+040199999V0209999C000019999999N007000199+02091+01981100911ADDAY101021AY201021MA1999999096281MD1210021-0221MW1101REMSYN06448304 31957 00000 10209 20198 39628 40091 52002 71000 333 59022=
0127483040999992023020421004+19867+099767FM-12+040199999V0209999C000019999999N007000199+01981+01901100901ADDAY101021AY201021MA1999999096251MD1710021-0101MW1101REMSYN06448304 31957 00000 10198 20190 39625 40090 57002 71000 333 59010=
0248483040999992023020500004+19867+099767FM-12+040199999V0209999C000012200019N007000199+01851+01771101061ADDAY101021AY201021GA1011+012501061GA2999+999999031GA3999+999999021GE19AGL   +99999+99999GF102991011999012501999999KA1120N+01821MA1999999096391MD1210131-0101MW1101REMSYN07648304 31657 20000 10185 20177 39639 40106 52013 71000 81545 333 20182 59010=
0216483040999992023020503004+19867+099767FM-12+040199999V0209999C000012200019N007000199+02651+02191101091ADDAY101021AY201021GA1999+999999021GE19AGL   +99999+99999GF102991001999999999999999MA1999999096531MD1210151-0161MW1101REMSYN07048304 31957 20000 10265 20219 39653 40109 52015 71000 80005 333 59016=EQDQ01    003SCCGA1
0197483040999992023020506004+19867+099767FM-12+040199999V0201701N001512200019N007000199+03221+02031100701ADDAY101021AY201021GA1011+012501081GE19AGL   +99999+99999GF101991011999012501999999MA1999999096241MD1710291-0131MW1051REMSYN07048304 31657 11703 10322 20203 39624 40070 57029 70500 81100 333 59013=
0197483040999992023020509004+19867+099767FM-12+040199999V0202001N001512200019N007000199+03331+01971100341ADDAY101021AY201021GA1011+012501081GE19AGL   +99999+99999GF101991011999012501999999MA1999999095921MD1710321-0111MW1051REMSYN07048304 31657 12003 10333 20197 39592 40034 57032 70500 81100 333 59011=
0216483040999992023020512004+19867+099767FM-12+040199999V0209999C000012200019N007000199+02671+02031100531ADDAY101021AY201021GA1021+008001081GE19AGL   +99999+99999GF102991021999008001999999KA1240M+03371MA1999999096001MD1210091-0021MW1101REMSYN07648304 31557 20000 10267 20203 39600 40053 52009 71000 82200 333 10337 59002=
0229483040999992023020515004+19867+099767FM-12+040199999V0209999C000012200019N007000199+02471+02141100731ADDAY101021AY201021GA1011+008001081GA2999+999999031GA3999+999999001GE19AGL   +99999+99999GF102991011999008001999999MA1999999096161MD1210161-0131MW1101REMSYN07048304 31557 20000 10247 20214 39616 40073 52016 71000 81241 333 59013=
0127483040999992023020518004+19867+099767FM-12+040199999V0209999C000019999999N007000199+02221+02071100891ADDAY101021AY201021MA1999999096281MD1210121-0021MW1101REMSYN06448304 31957 00000 10222 20207 39628 40089 52012 71000 333 59002=
0127483040999992023020521004+19867+099767FM-12+040199999V0200501N001519999999N007000199+01851+01751100951ADDAY101021AY201021MA1999999096281MD1410001+0051MW1101REMSYN06448304 31957 00503 10185 20175 39628 40095 54000 71000 333 58005=
0146483040999992023020600004+19867+099767FM-12+040199999V0209999C000019999999N008000199+01681+01581101151ADDAY101021AY201021KA1120N+01641MA1999999096441MD1210161+0091MW1101REMSYN07048304 31958 00000 10168 20158 39644 40115 52016 71000 333 20164 58009=
0127483040999992023020603004+19867+099767FM-12+040199999V0209999C000019999999N009000199+02391+01871101211ADDAY101021AY201021MA1999999096611MD1210161+0121MW1101REMSYN06448304 31959 00000 10239 20187 39661 40121 52016 71000 333 58012=
0169483040999992023020606004+19867+099767FM-12+040199999V0201301N002112200019N010000199+03221+01531100741ADDGA1011+008001081GE19AGL   +99999+99999GF101991011999008001999999MA1999999096281MD1710321+0041REMSYN06448304 32560 11304 10322 20153 39628 40074 57032 81200 333 58004=
0169483040999992023020609004+19867+099767FM-12+040199999V0201901N001012200019N012000199+03411+01141100371ADDGA1011+012501081GE19AGL   +99999+99999GF101991011999012501999999MA1999999095961MD1710331+0031REMSYN06448304 32662 11902 10341 20114 39596 40037 57033 81100 333 58003=
0188483040999992023020612004+19867+099767FM-12+040199999V0209999C000012200019N010000199+02711+01761100521ADDGA1011+012501061GE19AGL   +99999+99999GF101991011999012501999999KA1240M+03441MA1999999096001MD1210041-0011REMSYN07048304 32660 10000 10271 20176 39600 40052 52004 81500 333 10344 59001=
0099483040999992023020615004+19867+099767FM-12+040199999V0209999C000019999999N010000199+02061+01721100771ADDMA1999999096141MD1210141+0051REMSYN05848304 32960 00000 10206 20172 39614 40077 52014 333 58005=
0099483040999992023020618004+19867+099767FM-12+040199999V0209999C000019999999N010000199+01751+01491100871ADDMA1999999096191MD1210051-0021REMSYN05848304 32960 00000 10175 20149 39619 40087 52005 333 59002=
0099483040999992023020621004+19867+099767FM-12+040199999V0209999C000019999999N010000199+01401+01251100911ADDMA1999999096171MD1710011-0041REMSYN05848304 32960 00000 10140 20125 39617 40091 57001 333 59004=
0118483040999992023020700004+19867+099767FM-12+040199999V0209999C000019999999N012000199+01301+01211101101ADDKA1120N+01251MA1999999096331MD1210161-0051REMSYN06448304 32962 00000 10130 20121 39633 40110 52016 333 20125 59005=
0099483040999992023020703004+19867+099767FM-12+040199999V0202701N001019999999N012000199+02351+01371101211ADDMA1999999096601MD1210271+0001REMSYN05848304 32962 02702 10235 20137 39660 40121 52027 333 58000=
0099483040999992023020706004+19867+099767FM-12+040199999V0202201N003119999999N012000199+03191+00981100701ADDMA1999999096241MD1710371-0041REMSYN05848304 32962 02206 10319 20098 39624 40070 57037 333 59004=
0099483040999992023020709004+19867+099767FM-12+040199999V0202301N004119999999N012000199+03341+00661100461ADDMA1999999096031MD1710201+0091REMSYN05848304 32962 02308 10334 20066 39603 40046 57020 333 58009=
0118483040999992023020712004+19867+099767FM-12+040199999V0209999C000019999999N012000199+02621+01631100631ADDKA1240M+03411MA1999999096091MD1210061+0111REMSYN06448304 32962 00000 10262 20163 39609 40063 52006 333 10341 58011=
0099483040999992023020715004+19867+099767FM-12+040199999V0209999C000019999999N012000199+01901+01581100971ADDMA1999999096301MD1210211+0191REMSYN05848304 32962 00000 10190 20158 39630 40097 52021 333 58019=
0099483040999992023020718004+19867+099767FM-12+040199999V0202501N001019999999N010000199+01751+01581101021ADDMA1999999096331MD1210021+0141REMSYN05848304 32960 02502 10175 20158 39633 40102 52002 333 58014=
0099483040999992023020721004+19867+099767FM-12+040199999V0209999C000019999999N010000199+01601+01481101011ADDMA1999999096301MD1710031+0101REMSYN05848304 32960 00000 10160 20148 39630 40101 57003 333 58010=
0118483040999992023020800004+19867+099767FM-12+040199999V0209999C000019999999N012000199+01271+01171101231ADDKA1120N+01221MA1999999096451MD1210151+0131REMSYN06448304 32962 00000 10127 20117 39645 40123 52015 333 20122 58013=
0099483040999992023020803004+19867+099767FM-12+040199999V0209999C000019999999N012000199+02291+01361101331ADDMA1999999096711MD1210261+0121REMSYN05848304 32962 00000 10229 20136 39671 40133 52026 333 58012=
0099483040999992023020806004+19867+099767FM-12+040199999V0200301N002119999999N012000199+03001+00761100901ADDMA1999999096401MD1710311+0201REMSYN05848304 32962 00304 10300 20076 39640 40090 57031 333 58020=
0099483040999992023020809004+19867+099767FM-12+040199999V0203601N001019999999N012000199+03201+00741100631ADDMA1999999096171MD1710231+0161REMSYN05848304 32962 03602 10320 20074 39617 40063 57023 333 58016=
0118483040999992023020812004+19867+099767FM-12+040199999V0209999C000019999999N012000199+02401+01671100781ADDKA1240M+03251MA1999999096201MD1210031+0151REMSYN06448304 32962 00000 10240 20167 39620 40078 52003 333 10325 58015=
0099483040999992023020815004+19867+099767FM-12+040199999V0209999C000019999999N010000199+01751+01441101041ADDMA1999999096351MD1210151+0081REMSYN05848304 32960 00000 10175 20144 39635 40104 52015 333 58008=
0099483040999992023020818004+19867+099767FM-12+040199999V0209999C000019999999N010000199+01571+01451101151ADDMA1999999096421MD1210071+0131REMSYN05848304 32960 00000 10157 20145 39642 40115 52007 333 58013=
0099483040999992023020821004+19867+099767FM-12+040199999V0209999C000019999999N010000199+01351+01261101081ADDMA1999999096331MD1710101+0071REMSYN05848304 32960 00000 10135 20126 39633 40108 57010 333 58007=
0235483040999992023020900004+19867+099767FM-12+040199999V0209999C000012200019N008000199+01181+01121101291ADDAY101021AY201021GA1999+999999021GE19AGL   +99999+99999GF102991001999999999999999KA1120N+01131MA1999999096501MD1210171+0061MW1101REMSYN07648304 31958 20000 10118 20112 39650 40129 52017 71000 80005 333 20113 58006=EQDQ01    003SCCGA1
0127483040999992023020903004+19867+099767FM-12+040199999V0200201N000519999999N009000199+01951+01341101421ADDAY101021AY201021MA1999999096741MD1210241+0081MW1101REMSYN06448304 31959 00201 10195 20134 39674 40142 52024 71000 333 58008=
0099483040999992023020906004+19867+099767FM-12+040199999V0200601N002119999999N012000199+02861+01321101001ADDMA1999999096481MD1710261+0101REMSYN05848304 32962 00604 10286 20132 39648 40100 57026 333 58010=
0099483040999992023020909004+19867+099767FM-12+040199999V0201001N002119999999N012000199+03151+01341100681ADDMA1999999096211MD1710271+0051REMSYN05848304 32962 01004 10315 20134 39621 40068 57027 333 58005=
0118483040999992023020912004+19867+099767FM-12+040199999V0209999C000019999999N010000199+02371+01721100831ADDKA1240M+03191MA1999999096241MD1210031+0051REMSYN06448304 32960 00000 10237 20172 39624 40083 52003 333 10319 58005=
0099483040999992023020915004+19867+099767FM-12+040199999V0209999C000019999999N010000199+01811+01521101141ADDMA1999999096451MD1210211+0101REMSYN05848304 32960 00000 10181 20152 39645 40114 52021 333 58010=
0099483040999992023020918004+19867+099767FM-12+040199999V0209999C000019999999N010000199+01621+01481101181ADDMA1999999096461MD1210011+0031REMSYN05848304 32960 00000 10162 20148 39646 40118 52001 333 58003=
0099483040999992023020921004+19867+099767FM-12+040199999V0209999C000019999999N010000199+01381+01271101181ADDMA1999999096421MD1710041+0101REMSYN05848304 32960 00000 10138 20127 39642 40118 57004 333 58010=
0207483040999992023021000004+19867+099767FM-12+040199999V0209999C000012200019N010000199+01111+01071101371ADDGA1999+999999021GE19AGL   +99999+99999GF102991001999999999999999KA1120N+01061MA1999999096561MD1210141+0081REMSYN07048304 32960 20000 10111 20107 39656 40137 52014 80005 333 20106 58008=EQDQ01    003SCCGA1
0099483040999992023021003004+19867+099767FM-12+040199999V0209999C000019999999N010000199+02071+01231101421ADDMA1999999096761MD1210191+0001REMSYN05848304 32960 00000 10207 20123 39676 40142 52019 333 58000=
0099483040999992023021006004+19867+099767FM-12+040199999V0202101N001519999999N012000199+03061+01251100931ADDMA1999999096441MD1710311-0071REMSYN05848304 32962 02103 10306 20125 39644 40093 57031 333 59007=
0099483040999992023021009004+19867+099767FM-12+040199999V0202301N003119999999N012000199+03351+00371100571ADDMA1999999096141MD1710311-0111REMSYN05848304 32962 02306 10335 20037 39614 40057 57031 333 59011=
0207483040999992023021012004+19867+099767FM-12+040199999V0209999C000012200019N010000199+02551+01502100731ADDGA1999+999999021GE19AGL   +99999+99999GF102991001999999999999999KA1240M+03401MA1999999096171MD1210041-0101REMSYN07048304 32960 20000 10255 20150 39617 40073 52004 80005 333 10340 59010=EQDQ01    003SCCGA1
0127483040999992023021015004+19867+099767FM-12+040199999V0209999C000019999999N008000199+01881+01521101101ADDAY101021AY201021MA1999999096431MD1210251-0041MW1101REMSYN06448304 31958 00000 10188 20152 39643 40110 52025 71000 333 59004=
0127483040999992023021018004+19867+099767FM-12+040199999V0209999C000019999999N008000199+01501+01341101191ADDAY101021AY201021MA1999999096451MD1210021+0011MW1101REMSYN06448304 31958 00000 10150 20134 39645 40119 52002 71000 333 58001=
0127483040999992023021021004+19867+099767FM-12+040199999V0209999C000019999999N008000199+01291+01201101191ADDAY101021AY201021MA1999999096421MD1710031+0011MW1101REMSYN06448304 31958 00000 10129 20120 39642 40119 57003 71000 333 58001=
0146483040999992023021100004+19867+099767FM-12+040199999V0209999C000019999999N008000199+01071+00991101331ADDAY101021AY201021KA1120N+01031MA1999999096511MD1210101-0051MW1101REMSYN07048304 31958 00000 10107 20099 39651 40133 52010 71000 333 20103 59005=
0127483040999992023021103004+19867+099767FM-12+040199999V0209999C000019999999N008000199+02131+01581101371ADDAY101021AY201021MA1999999096721MD1210201-0051MW1101REMSYN06448304 31958 00000 10213 20158 39672 40137 52020 71000 333 59005=
0127483040999992023021106004+19867+099767FM-12+040199999V0201401N001019999999N008000199+03021+01191100891ADDAY101021AY201021MA1999999096401MD1710321-0041MW1051REMSYN06448304 31958 01402 10302 20119 39640 40089 57032 70500 333 59004=
0127483040999992023021109004+19867+099767FM-12+040199999V0209999C000019999999N008000199+03321+01011100541ADDAY101021AY201021MA1999999096111MD1710291-0021MW1051REMSYN06448304 31958 00000 10332 20101 39611 40054 57029 70500 333 59002=
0146483040999992023021112004+19867+099767FM-12+040199999V0209999C000019999999N008000199+02401+01721100661ADDAY101021AY201021KA1240M+03351MA1999999096081MD1710031-0071MW1101REMSYN07048304 31958 00000 10240 20172 39608 40066 57003 71000 333 10335 59007=
0127483040999992023021115004+19867+099767FM-12+040199999V0209999C000019999999N007000199+01891+01511101051ADDAY101021AY201021MA1999999096381MD1210301-0051MW1101REMSYN06448304 31957 00000 10189 20151 39638 40105 52030 71000 333 59005=
0127483040999992023021118004+19867+099767FM-12+040199999V0209999C000019999999N007000199+01571+01371101111ADDAY101021AY201021MA1999999096391MD1210011-0081MW1101REMSYN06448304 31957 00000 10157 20137 39639 40111 52001 71000 333 59008=
0127483040999992023021121004+19867+099767FM-12+040199999V0209999C000019999999N007000199+01261+01131101121ADDAY101021AY201021MA1999999096351MD1710041-0071MW1101REMSYN06448304 31957 00000 10126 20113 39635 40112 57004 71000 333 59007=
0146483040999992023021200004+19867+099767FM-12+040199999V0209999C000019999999N007000199+01171+01071101291ADDAY101021AY201021KA1120N+01111MA1999999096491MD1210151-0041MW1101REMSYN07048304 31957 00000 10117 20107 39649 40129 52015 71000 333 20111 59004=
0127483040999992023021203004+19867+099767FM-12+040199999V0209999C000019999999N006000199+01951+01351101401ADDAY101021AY201021MA1999999096721MD1210231+0031MW1101REMSYN06448304 31956 00000 10195 20135 39672 40140 52023 71000 333 58003=
0127483040999992023021206004+19867+099767FM-12+040199999V0209999C000019999999N007000199+02911+01071100991ADDAY101021AY201021MA1999999096481MD1710241+0101MW1051REMSYN06448304 31957 00000 10291 20107 39648 40099 57024 70500 333 58010=
0127483040999992023021209004+19867+099767FM-12+040199999V0201001N001019999999N007000199+03251+01101100651ADDAY101021AY201021MA1999999096201MD1710281+0111MW1051REMSYN06448304 31957 01002 10325 20110 39620 40065 57028 70500 333 58011=
0146483040999992023021212004+19867+099767FM-12+040199999V0209999C000019999999N007000199+02621+01801100821ADDAY101021AY201021KA1240M+03311MA1999999096271MD1210071+0161MW1051REMSYN07048304 31957 00000 10262 20180 39627 40082 52007 70500 333 10331 58016=
0127483040999992023021215004+19867+099767FM-12+040199999V0209999C000019999999N006000199+01791+01531101061ADDAY101021AY201021MA1999999096381MD1210111+0011MW1101REMSYN06448304 31956 00000 10179 20153 39638 40106 52011 71000 333 58001=
0127483040999992023021218004+19867+099767FM-12+040199999V0209999C000019999999N006000199+01521+01341101151ADDAY101021AY201021MA1999999096411MD1210041+0041MW1101REMSYN06448304 31956 00000 10152 20134 39641 40115 52004 71000 333 58004=
0127483040999992023021221004+19867+099767FM-12+040199999V0209999C000019999999N006000199+01281+01131101131ADDAY101021AY201021MA1999999096361MD1710051+0011MW1101REMSYN06448304 31956 00000 10128 20113 39636 40113 57005 71000 333 58001=
0146483040999992023021300004+19867+099767FM-12+040199999V0209999C000019999999N008000199+01201+01101101281ADDAY101021AY201021KA1120N+01141MA1999999096491MD1210131-0011MW1101REMSYN07048304 31958 00000 10120 20110 39649 40128 52013 71000 333 20114 59001=
0127483040999992023021303004+19867+099767FM-12+040199999V0209999C000019999999N006000199+02131+01491101361ADDAY101021AY201021MA1999999096721MD1210221-0031MW1101REMSYN06448304 31956 00000 10213 20149 39672 40136 52022 71000 333 59003=
0127483040999992023021306004+19867+099767FM-12+040199999V0202101N002619999999N006000199+03011+01171100971ADDAY101021AY201021MA1999999096471MD1710251-0021MW1051REMSYN06448304 31956 02105 10301 20117 39647 40097 57025 70500 333 59002=
0127483040999992023021309004+19867+099767FM-12+040199999V0209999C000019999999N006000199+03271+01081100601ADDAY101021AY201021MA1999999096151MD1710311-0051MW1051REMSYN06448304 31956 00000 10327 20108 39615 40060 57031 70500 333 59005=
0146483040999992023021312004+19867+099767FM-12+040199999V0209999C000019999999N006000199+02501+01841100781ADDAY101021AY201021KA1240M+03321MA1999999096221MD1210061-0041MW1101REMSYN07048304 31956 00000 10250 20184 39622 40078 52006 71000 333 10332 59004=
0127483040999992023021315004+19867+099767FM-12+040199999V0209999C000019999999N006000199+01801+01541101091ADDAY101021AY201021MA1999999096411MD1210191+0031MW1101REMSYN06448304 31956 00000 10180 20154 39641 40109 52019 71000 333 58003=
0127483040999992023021318004+19867+099767FM-12+040199999V0209999C000019999999N006000199+01551+01391101191ADDAY101021AY201021MA1999999096461MD1210061+0051MW1101REMSYN06448304 31956 00000 10155 20139 39646 40119 52006 71000 333 58005=
0127483040999992023021321004+19867+099767FM-12+040199999V0209999C000019999999N006000199+01401+01251101231ADDAY101021AY201021MA1999999096471MD1210011+0101MW1101REMSYN06448304 31956 00000 10140 20125 39647 40123 52001 71000 333 58010=
0146483040999992023021400004+19867+099767FM-12+040199999V0209999C000019999999N008000199+01231+01151101401ADDAY101021AY201021KA1120N+01171MA1999999096611MD1210141+0121MW1101REMSYN07048304 31958 00000 10123 20115 39661 40140 52014 71000 333 20117 58012=
0127483040999992023021403004+19867+099767FM-12+040199999V0209999C000019999999N006000199+02061+01381101511ADDAY101021AY201021MA1999999096841MD1210231+0151MW1101REMSYN06448304 31956 00000 10206 20138 39684 40151 52023 71000 333 58015=
0127483040999992023021406004+19867+099767FM-12+040199999V0201301N001519999999N006000199+02861+01431101051ADDAY101021AY201021MA1999999096531MD1710321+0091MW1051REMSYN06448304 31956 01303 10286 20143 39653 40105 57032 70500 333 58009=
0127483040999992023021409004+19867+099767FM-12+040199999V0201201N001519999999N006000199+03201+01271100621ADDAY101021AY201021MA1999999096171MD1710361+0021MW1051REMSYN06448304 31956 01203 10320 20127 39617 40062 57036 70500 333 58002=
0146483040999992023021412004+19867+099767FM-12+040199999V0209999C000019999999N006000199+02501+01851100771ADDAY101021AY201021KA1240M+03251MA1999999096201MD1210041-0021MW1101REMSYN07048304 31956 00000 10250 20185 39620 40077 52004 71000 333 10325 59002=
0127483040999992023021415004+19867+099767FM-12+040199999V0209999C000019999999N007000199+01851+01601101091ADDAY101021AY201021MA1999999096411MD1210211+0001MW1101REMSYN06448304 31957 00000 10185 20160 39641 40109 52021 71000 333 58000=
0127483040999992023021418004+19867+099767FM-12+040199999V0209999C000019999999N007000199+01581+01441101131ADDAY101021AY201021MA1999999096411MD1410001-0061MW1101REMSYN06448304 31957 00000 10158 20144 39641 40113 54000 71000 333 59006=
0127483040999992023021421004+19867+099767FM-12+040199999V0209999C000019999999N007000199+01411+01301101141ADDAY101021AY201021MA1999999096391MD1710021-0091MW1101REMSYN06448304 31957 00000 10141 20130 39639 40114 57002 71000 333 59009=
0146483040999992023021500004+19867+099767FM-12+040199999V0209999C000019999999N006000199+01341+01271101421ADDAY101021AY201021KA1120N+01291MA1999999096651MD1210251+0021MW1101REMSYN07048304 31956 00000 10134 20127 39665 40142 52025 71000 333 20129 58002=
0127483040999992023021503004+19867+099767FM-12+040199999V0209999C000019999999N008000199+02001+01581101531ADDAY101021AY201021MA1999999096851MD1210201+0021MW1101REMSYN06448304 31958 00000 10200 20158 39685 40153 52020 71000 333 58002=
0127483040999992023021506004+19867+099767FM-12+040199999V0201201N001519999999N007000199+02921+01601101091ADDAY101021AY201021MA1999999096571MD1710281+0041MW1051REMSYN06448304 31957 01203 10292 20160 39657 40109 57028 70500 333 58004=
0229483040999992023021509004+19867+099767FM-12+040199999V0209999C000012200019N008000199+03241+01721100751ADDAY101021AY201021GA1011+012501081GA2999+999999031GA3999+999999021GE19AGL   +99999+99999GF103991011999012501999999MA1999999096301MD1710281+0131MW1051REMSYN07048304 31658 30000 10324 20172 39630 40075 57028 70500 81245 333 58013=
0248483040999992023021512004+19867+099767FM-12+040199999V0209999C000019999999N008000199+02621+02061100971ADDAY111021AY211021GA1041+012501061GA2999+999999031GA3999+999999021GE19AGL   +99999+99999GF106991041999012501999999KA1240M+03241MA1999999096411MD1210111+0201MW1101REMSYN07648304 31658 60000 10262 20206 39641 40097 52011 71011 84536 333 10324 58020=
0229483040999992023021515004+19867+099767FM-12+040199999V0209999C000012200019N008000199+02081+01871101301ADDAY191021AY211021GA1011+012501061GA2999+999999031GA3999+999999021GE19AGL   +99999+99999GF102991011999012501999999MA1999999096651MD1210241+0221MW1101REMSYN07048304 31658 20000 10208 20187 39665 40130 52024 71091 81535 333 58022=
0127483040999992023021518004+19867+099767FM-12+040199999V0209999C000019999999N008000199+01961+01811101401ADDAY191021AY211021MA1999999096731MD1210081+0271MW1101REMSYN06448304 31958 00000 10196 20181 39673 40140 52008 71091 333 58027=
0246483040999992023021521004+19867+099767FM-12+040199999V0200101N002119999999N008000199+01731+01661101371ADDAA102003031AY191021AY261021GA1041+012501061GA2999+999999031GA3999+999999021GE19AGL   +99999+99999GF106991041999012501999999MA1999999096661MD1710061+0231MW1611REMSYN07648304 21658 60104 10173 20166 39666 40137 57006 76196 84536 333 58023 60036=
0299483040999992023021600004+19867+099767FM-12+040199999V0209999C000019999999N010000199+02001+01921101541ADDAA103001031AA224004032AA324003632AY191021AY261021GA1041+012501061GA2999+999999031GA3999+999999021GE19AGL   +99999+99999GF106991041999012501999999KA1120N+01841MA1999999096871MD1210201+0121MW1021REMSYN09448304 01660 60000 10200 20192 39687 40154 52020 60044 70296 84536 333 20184 58012 60017 70036=
0229483040999992023021603004+19867+099767FM-12+040199999V0200501N001512200019N008000199+02451+02131101691ADDAY111021AY211021GA1021+012501081GA2999+999999031GA3999+999999021GE19AGL   +99999+99999GF103991021999012501999999MA1999999097071MD1210211+0161MW1101REMSYN07048304 31658 30503 10245 20213 39707 40169 52021 71011 82145 333 58016=
0218483040999992023021606004+19867+099767FM-12+040199999V0200501N001519999999N010000199+02831+01851101481ADDAA124003631GA1031+012501061GA2999+999999031GA3999+999999021GE19AGL   +99999+99999GF106991031999012501999999MA1999999096931MD1710151+0391REMSYN07048304 32660 60503 10283 20185 39693 40148 57015 83546 333 58039 70036=
0201483040999992023021609004+19867+099767FM-12+040199999V0209999C000012200019N010000199+03001+01841101061ADDGA1021+012501081GA2999+999999031GA3999+999999021GE19AGL   +99999+99999GF103991021999012501999999MA1999999096561MD1710371+0311REMSYN06448304 32660 30000 10300 20184 39656 40106 57037 82145 333 58031=
0237483040999992023021612004+19867+099767FM-12+040199999V0202201N001012200019N010000199+02551+01981101201ADDAA124003631GA1021+012501061GA2999+999999031GA3999+999999021GE19AGL   +99999+99999GF103991021999012501999999KA1240M+03041MA1999999096621MD1210071+0231REMSYN07648304 32660 32202 10255 20198 39662 40120 52007 82545 333 10304 58023 70036=
0246483040999992023021615004+19867+099767FM-12+040199999V0209999C000019999999N010000199+02121+01881101551ADDAA102000431AY161021AY211021GA1061+008001061GA2999+999999031GA3999+999999021GE19AGL   +99999+99999GF107991061999008001999999MA1999999096891MD1210271+0241MW1031REMSYN07648304 21560 70000 10212 20188 39689 40155 52027 70361 86546 333 58024 69946=
0264483040999992023021618004+19867+099767FM-12+040199999V0209999C000019999999N008000199+01921+01791101751ADDAA101000431AA218000831AA324004431AY161021AY211021GA1061+008001061GA2999+999999031GE19AGL   +99999+99999GF108991061999008001999999MA1999999097051MD1210161+0341MW1601REMSYN08848304 01558 80000 10192 20179 39705 40175 52016 69983 76061 8657/ 333 58034 69945 70044=
0230483040999992023021621004+19867+099767FM-12+040199999V0209999C000019999999N008000199+01841+01741101691ADDAA103000231AY161021AY221021GA1061+008001061GA2999+999999031GE19AGL   +99999+99999GF108991061999008001999999MA1999999096981MD1710071+0331MW1101REMSYN07648304 21558 80000 10184 20174 39698 40169 57007 71062 8657/ 333 58033 69927=
0255483040999992023021700004+19867+099767FM-12+040199999V0200601N001019999999N008000199+01871+01771101751ADDAA124001031AY161021AY221021GA1061+008001061GA2999+999999031GE19AGL   +99999+99999GF108991061999008001999999KA1120N+01831MA1999999097041MD1210061+0211MW1101REMSYN08848304 11558 80602 10187 20177 39704 40175 52006 60014 71062 8657/ 333 20183 58021 70010=
0185483040999992023021703004+19867+099767FM-12+040199999V0209999C000019999999N010000199+01941+01761102021ADDGA1061+008001061GA2999+999999031GE19AGL   +99999+99999GF108991061999008001999999MA1999999097311MD1210271+0331REMSYN06448304 32560 80000 10194 20176 39731 40202 52027 8657/ 333 58033=
0299483040999992023021706004+19867+099767FM-12+040199999V0203601N001019999999N010000199+02061+01781101801ADDAA102000091AA206000091AA324001031AY161021AY221021GA1061+008001061GA2999+999999031GE19AGL   +99999+99999GF108991061999008001999999MA1999999097121MD1710191+0321MW1021REMSYN08848304 01560 83602 10206 20178 39712 40180 57019 69901 70262 8657/ 333 58032 69906 70010=EQDQ01  00002PRCP06Q02  00002PRCP02
0201483040999992023021709004+19867+099767FM-12+040199999V0209999C000019999999N012000199+02131+01691101451ADDGA1061+012501061GA2999+999999031GA3999+999999021GE19AGL   +99999+99999GF108991061999012501999999MA1999999096801MD1710321+0391REMSYN06448304 32662 80000 10213 20169 39680 40145 57032 86536 333 58039=
0221483040999992023021712004+19867+099767FM-12+040199999V0209999C000019999999N012000199+02001+01721101621ADDAA124001031GA1061+008001061GA2999+999999031GE19AGL   +99999+99999GF108991061999008001999999KA1240M+02221MA1999999096941MD1210141+0421REMSYN07648304 32562 80000 10200 20172 39694 40162 52014 8657/ 333 10222 58042 70010=
0201483040999992023021715004+19867+099767FM-12+040199999V0209999C000019999999N010000199+01821+01621101711ADDGA1061+012501061GA2999+999999031GA3999+999999021GE19AGL   +99999+99999GF108991061999012501999999MA1999999097001MD1210061+0161REMSYN06448304 32660 80000 10182 20162 39700 40171 52006 86536 333 58016=
0218483040999992023021718004+19867+099767FM-12+040199999V0209999C000019999999N010000199+01651+01531101741ADDAA124000231GA1061+008001061GA2999+999999031GA3999+999999021GE19AGL   +99999+99999GF108991061999008001999999MA1999999097001MD1410001-0011REMSYN07048304 32560 80000 10165 20153 39700 40174 54000 86536 333 59001 70002=
0201483040999992023021721004+19867+099767FM-12+040199999V0209999C000019999999N010000199+01621+01531101671ADDGA1051+012501061GA2999+999999031GA3999+999999021GE19AGL   +99999+99999GF106991051999012501999999MA1999999096921MD1710071-0021REMSYN06448304 32660 60000 10162 20153 39692 40167 57007 85546 333 59002=
0240483040999992023021800004+19867+099767FM-12+040199999V0209999C000019999999N010000199+01611+01541101681ADDAA124000091GA1061+012501061GA2999+999999051GE19AGL   +99999+99999GF108991061999012501999999KA1120N+01561MA1999999096941MD1210011-0071REMSYN07648304 32660 80000 10161 20154 39694 40168 52001 8652/ 333 20156 59007 79999=EQDQ01  00002PRCP24
0169483040999992023021803004+19867+099767FM-12+040199999V0203401N001512200019N015000199+02001+01671101781ADDGA1021+008001061GE19AGL   +99999+99999GF102991021999008001999999MA1999999097101MD1210161-0241REMSYN06448304 32565 23403 10200 20167 39710 40178 52016 82400 333 59024=
0201483040999992023021806004+19867+099767FM-12+040199999V0201701N001512200019N012000199+02611+01791101411ADDGA1011+012501081GA2999+999999031GA3999+999999021GE19AGL   +99999+99999GF102991011999012501999999MA1999999096831MD1710261-0391REMSYN06448304 32662 21703 10261 20179 39683 40141 57026 81145 333 59039=
0201483040999992023021809004+19867+099767FM-12+040199999V0201401N001012200019N012000199+02891+01561100931ADDGA1011+012501081GA2999+999999031GA3999+999999001GE19AGL   +99999+99999GF102991011999012501999999MA1999999096421MD1710421-0521REMSYN06448304 32662 21402 10289 20156 39642 40093 57042 81141 333 59052=
0118483040999992023021812004+19867+099767FM-12+040199999V0209999C000019999999N010000199+02251+01801101131ADDKA1240M+02941MA1999999096511MD1210091-0491REMSYN06448304 32960 00000 10225 20180 39651 40113 52009 333 10294 59049=
0099483040999992023021815004+19867+099767FM-12+040199999V0209999C000019999999N010000199+02001+01741101441ADDMA1999999096771MD1210261-0271REMSYN05848304 32960 00000 10200 20174 39677 40144 52026 333 59027=
0099483040999992023021818004+19867+099767FM-12+040199999V0209999C000019999999N010000199+01741+01591101531ADDMA1999999096821MD1210051-0201REMSYN05848304 32960 00000 10174 20159 39682 40153 52005 333 59020=
0099483040999992023021821004+19867+099767FM-12+040199999V0209999C000019999999N010000199+01631+01541101481ADDMA1999999096751MD1710071-0191REMSYN05848304 32960 00000 10163 20154 39675 40148 57007 333 59019=
0220483040999992023021900004+19867+099767FM-12+040199999V0209999C000019999999N012000199+01461+01371101631ADDGA1021+012501061GA2999+999999031GA3999+999999021GE19AGL   +99999+99999GF106991021999012501999999KA1120N+01401MA1999999096861MD1210121-0051REMSYN07048304 32662 60000 10146 20137 39686 40163 52012 82546 333 20140 59005=
0099483040999992023021903004+19867+099767FM-12+040199999V0201101N001019999999N012000199+02281+01831101711ADDMA1999999097071MD1210211-0071REMSYN05848304 32962 01102 10228 20183 39707 40171 52021 333 59007=
0169483040999992023021906004+19867+099767FM-12+040199999V0200901N001512200019N012000199+02921+01721101271ADDGA1011+012501081GE19AGL   +99999+99999GF101991011999012501999999MA1999999096741MD1710331-0141REMSYN06448304 32662 10903 10292 20172 39674 40127 57033 81100 333 59014=
0169483040999992023021909004+19867+099767FM-12+040199999V0209999C000012200019N012000199+03141+01561100851ADDGA1011+012501081GE19AGL   +99999+99999GF101991011999012501999999MA1999999096381MD1710361-0081REMSYN06448304 32662 10000 10314 20156 39638 40085 57036 81100 333 59008=
0118483040999992023021912004+19867+099767FM-12+040199999V0209999C000019999999N010000199+02501+01871101051ADDKA1240M+03171MA1999999096471MD1210091-0081REMSYN06448304 32960 00000 10250 20187 39647 40105 52009 333 10317 59008=
0099483040999992023021915004+19867+099767FM-12+040199999V0209999C000019999999N010000199+02001+01721101291ADDMA1999999096621MD1210151-0151REMSYN05848304 32960 00000 10200 20172 39662 40129 52015 333 59015=
0099483040999992023021918004+19867+099767FM-12+040199999V0209999C000019999999N010000199+01731+01581101371ADDMA1999999096661MD1210031-0171REMSYN05848304 32960 00000 10173 20158 39666 40137 52003 333 59017=
0099483040999992023021921004+19867+099767FM-12+040199999V0209999C000019999999N010000199+01601+01511101331ADDMA1999999096601MD1710051-0151REMSYN05848304 32960 00000 10160 20151 39660 40133 57005 333 59015=
0204483040999992023022000004+19867+099767FM-12+040199999V0209999C000012200019N012000199+01541+01451101471ADDGA1011+012501061GA2999+999999031GE19AGL   +99999+99999GF103991011999012501999999KA1120N+01441MA1999999096731MD1210121-0161REMSYN07048304 32662 30000 10154 20145 39673 40147 52012 81540 333 20144 59016=
0169483040999992023022003004+19867+099767FM-12+040199999V0209999C000012200019N010000199+02211+01541101611ADDGA1021+999999031GE19AGL   +99999+99999GF102991021999999999999999MA1999999096961MD1210241-0101REMSYN06448304 32960 20000 10221 20154 39696 40161 52024 82040 333 59010=
0169483040999992023022006004+19867+099767FM-12+040199999V0201001N001512200019N010000199+02891+01641101141ADDGA1011+012501081GE19AGL   +99999+99999GF101991011999012501999999MA1999999096621MD1710351-0121REMSYN06448304 32660 11003 10289 20164 39662 40114 57035 81100 333 59012=
