0254527870999992023010100004+37200+102867FM-12+304499999V0201601N007019999999N029000199-01221-02661103651ADDAA106000091AA212000091AA324000091AY101021AY201021KA1120M-00441KA2120N-01331MA1999999070361MD1210031+9999MW1001OD139900901999REMSYN11852787 04979 /1607 11122 21266 37036 40365 52003 60002 70000 333 11044 21133 3/118 54415 59026 60001 70000 90720 91109=
0254527870999992023010103004+37200+102867FM-12+304499999V0201701N005019999999N030000199-00991-01991103761ADDAA106000091AA212000091AA324000091AY101021AY201021KA1240M-00441KA2240N-01381MA1999999070531MD1210171+9999MW1001OD139900801999REMSYN11852787 04980 /1705 11099 21199 37053 40376 52017 60002 70000 333 11044 21138 3/118 54415 59014 60001 70000 90720 91108=
0254527870999992023010106004+37200+102867FM-12+304499999V0203501N007019999999N030000199-00751-02331103441ADDAA106000091AA212000091AA324000091AY101021AY201021KA1240M-00441KA2240N-01381MA1999999070421MD1710111+9999MW1001OD139901001999REMSYN11852787 04980 /3507 11075 21233 37042 40344 57011 60002 70000 333 11044 21138 3/116 54415 59007 60001 70000 90720 91110=
0254527870999992023010109004+37200+102867FM-12+304499999V0203401N005019999999N030000199-01011-02211103671ADDAA106000091AA212000091AA324000091AY101021AY201021KA1240M-00571KA2240N-01381MA1999999070511MD1210091+9999MW1001OD139901101999REMSYN11852787 04980 /3405 11101 21221 37051 40367 52009 60002 70000 333 11057 21138 3/114 54415 58012 60001 70000 90720 91111=
0254527870999992023010112004+37200+102867FM-12+304499999V0203301N003019999999N030000199-01481-02491104341ADDAA106000091AA212000091AA324000091AY101021AY201021KA1240M-00671KA2240N-01501MA1999999070671MD1210161+9999MW1001OD139901101999REMSYN11852787 04980 /3303 11148 21249 37067 40434 52016 60002 70000 333 11067 21150 3/116 54415 58022 60001 70000 90720 91111=
0254527870999992023010118004+37200+102867FM-12+304499999V0202401N002019999999N030000199-01151-02221103651ADDAA106000091AA212000091AA324000091AY101021AY201021KA1120M-00671KA2120N-01501MA1999999070611MD1710081+9999MW1001OD139901101999REMSYN11852787 04980 /2402 11115 21222 37061 40365 57008 60002 70000 333 11067 21150 3/120 54405 58023 60001 70000 90720 91111=
0238527870999992023010121004+37200+102867FM-12+304499999V0201401N002019999999N030000199-01221-02171103811ADDAA106000091AA212000091AA324000091KA1240M-00671KA2240N-01501MA1999999070551MD1710061+9999MW1001OD139900901999REMSYN11852787 04980 /1402 11122 21217 37055 40381 57006 60002 700// 333 11067 21150 3/121 54415 58022 60001 70000 90720 91109=
0248527870999992023010200004+37200+102867FM-12+304499999V0203501N001019999999N030000199-01211-01871104171ADDAA106000091AA212000091AA324000091AY101021AY201021KA1120M-00671KA2120N-01501MA1999999070561MD1210011+0201MW1001OD139900601999REMSYN11252787 04980 /3501 11121 21187 37056 40417 52001 60002 70000 333 11067 21150 3/121 58020 60001 70000 90720 91106=
0254527870999992023010203004+37200+102867FM-12+304499999V0203001N004019999999N030000199-00801-02301103841ADDAA106000091AA212000091AA324000091AY101021AY201021KA1240M-00671KA2240N-01501MA1999999070591MD1210031+9999MW1001OD139900601999REMSYN11852787 04980 /3004 11080 21230 37059 40384 52003 60002 70000 333 11067 21150 3/121 54405 58006 60001 70000 90720 91106=
0254527870999992023010206004+37200+102867FM-12+304499999V0203201N004019999999N029000199-00391-02311103131ADDAA106000091AA212000091AA324000091AY101021AY201021KA1240M-00331KA2240N-01501MA1999999070431MD1710161+9999MW1001OD139900701999REMSYN11852787 04979 /3204 11039 21231 37043 40313 57016 60002 70000 333 11033 21150 3/121 54405 58001 60001 70000 90720 91107=
0254527870999992023010209004+37200+102867FM-12+304499999V0203201N009019999999N030000199-00751-02461103411ADDAA106000091AA212000091AA324000091AY101021AY201021KA1240M-00311KA2240N-01501MA1999999070411MD1710021+9999MW1001OD139901101999REMSYN11852787 04980 /3209 11075 21246 37041 40341 57002 60002 70000 333 11031 21150 3/121 54405 59010 60001 70000 90720 91111=
0254527870999992023010212004+37200+102867FM-12+304499999V0203101N004019999999N030000199-01071-02531103891ADDAA106000091AA212000091AA324000091AY101021AY201021KA1240M-00311KA2240N-01481MA1999999070581MD1210171+9999MW1001OD139901101999REMSYN11852787 04980 /3104 11107 21253 37058 40389 52017 60002 70000 333 11031 21148 3/121 54405 59009 60001 70000 90720 91111=
0254527870999992023010218004+37200+102867FM-12+304499999V0201601N005019999999N030000199-01331-02271103271ADDAA106000091AA212000091AA324000091AY101021AY201021KA1120M-00311KA2120N-01461MA1999999070441MD1710131+9999MW1001OD139901101999REMSYN11852787 04980 /1605 11133 21227 37044 40327 57013 60002 70000 333 11031 21146 3/118 54415 59017 60001 70000 90720 91111=
0238527870999992023010221004+37200+102867FM-12+304499999V0201301N004019999999N030000199-01341-02281103381ADDAA106000091AA212000091AA324000091KA1240M-00311KA2240N-01461MA1999999070331MD1710111+9999MW1001OD139901001999REMSYN11852787 04980 /1304 11134 21228 37033 40338 57011 60002 700// 333 11031 21146 3/119 54415 59022 60001 70000 90720 91110=
0254527870999992023010300004+37200+102867FM-12+304499999V0201601N002019999999N030000199-01111-02421103451ADDAA106000091AA212000091AA324000091AY101021AY201021KA1120M-00311KA2120N-01461MA1999999070331MD1410001+9999MW1001OD139900901999REMSYN11852787 04980 /1602 11111 21242 37033 40345 54000 60002 70000 333 11031 21146 3/121 54405 59023 60001 70000 90720 91109=
0254527870999992023010303004+37200+102867FM-12+304499999V0203101N003019999999N029000199-00881-02401103511ADDAA106000091AA212000091AA324000091AY101021AY201021KA1240M-00311KA2240N-01461MA1999999070351MD1210021+9999MW1001OD139900901999REMSYN11852787 04979 /3103 11088 21240 37035 40351 52002 60002 70000 333 11031 21146 3/121 54415 59024 60001 70000 90720 91109=
0254527870999992023010306004+37200+102867FM-12+304499999V0203201N004019999999N029000199-00531-02421103021ADDAA106000091AA212000091AA324000091AY101021AY201021KA1240M-00311KA2240N-01461MA1999999070201MD1710151+9999MW1001OD139900801999REMSYN11852787 04979 /3204 11053 21242 37020 40302 57015 60002 70000 333 11031 21146 3/121 54415 59023 60001 70000 90720 91108=
0254527870999992023010309004+37200+102867FM-12+304499999V0203301N007019999999N030000199-00861-02391103241ADDAA106000091AA212000091AA324000091AY101021AY201021KA1240M-00451KA2240N-01461MA1999999070181MD1710021+9999MW1001OD139901101999REMSYN11852787 04980 /3307 11086 21239 37018 40324 57002 60002 70000 333 11045 21146 3/121 54415 59023 60001 70000 90720 91111=
0254527870999992023010312004+37200+102867FM-12+304499999V0203201N002019999999N030000199-01271-02441103651ADDAA106000091AA212000091AA324000091AY101021AY201021KA1240M-00451KA2240N-01461MA1999999070371MD1210191+9999MW1001OD139901201999REMSYN11852787 04980 /3202 11127 21244 37037 40365 52019 60002 70000 333 11045 21146 3/121 54415 59021 60001 70000 90720 91112=
0254527870999992023010318004+37200+102867FM-12+304499999V0201401N006019999999N030000199-01411-02281103231ADDAA106000091AA212000091AA324000091AY101021AY201021KA1120M-00451KA2120N-01481MA1999999070301MD1710061+9999MW1001OD139901201999REMSYN11852787 04980 /1406 11141 21228 37030 40323 57006 60002 70000 333 11045 21148 3/117 54415 59014 60001 70000 90720 91112=
0238527870999992023010321004+37200+102867FM-12+304499999V0201401N003019999999N030000199-01401-02071103291ADDAA106000091AA212000091AA324000091KA1240M-00451KA2240N-01481MA1999999070181MD1710121+9999MW1001OD139901201999REMSYN11852787 04980 /1403 11140 21207 37018 40329 57012 60002 700// 333 11045 21148 3/118 54415 59015 60001 70000 90720 91112=
0248527870999992023010400004+37200+102867FM-12+304499999V0201501N003019999999N030000199-01071-02261103341ADDAA106000091AA212000091AA324000091AY101021AY201021KA1120M-00451KA2120N-01481MA1999999070181MD1410001-0151MW1001OD139900801999REMSYN11252787 04980 /1503 11107 21226 37018 40334 54000 60002 70000 333 11045 21148 3/119 59015 60001 70000 90720 91108=
0254527870999992023010403004+37200+102867FM-12+304499999V0203201N009019999999N030000199-00971-02331103351ADDAA106000091AA212000091AA324000091AY101021AY201021KA1240M-00451KA2240N-01481MA1999999070231MD1210051+9999MW1001OD139901101999REMSYN11852787 04980 /3209 11097 21233 37023 40335 52005 60002 70000 333 11045 21148 3/119 54415 59012 60001 70000 90720 91111=
0254527870999992023010406004+37200+102867FM-12+304499999V0203301N009019999999N029000199-00441-02461102901ADDAA106000091AA212000091AA324000091AY101021AY201021KA1240M-00421KA2240N-01481MA1999999070121MD1710111+9999MW1001OD139901301999REMSYN11852787 04979 /3309 11044 21246 37012 40290 57011 60002 70000 333 11042 21148 3/119 54405 59008 60001 70000 90720 91113=
0254527870999992023010409004+37200+102867FM-12+304499999V0202501N004019999999N030000199-00351-02271102931ADDAA106000091AA212000091AA324000091AY101021AY201021KA1240M-00161KA2240N-01481MA1999999070191MD1210071+9999MW1001OD139901301999REMSYN11852787 04980 /2504 11035 21227 37019 40293 52007 60002 70000 333 11016 21148 3/119 54405 58001 60001 70000 90720 91113=
0254527870999992023010412004+37200+102867FM-12+304499999V0201601N005019999999N030000199-00871-02251103371ADDAA106000091AA212000091AA324000091AY101021AY201021KA1240M-00161KA2240N-01481MA1999999070401MD1210211+9999MW1001OD139901301999REMSYN11852787 04980 /1605 11087 21225 37040 40337 52021 60002 70000 333 11016 21148 3/118 54405 58003 60001 70000 90720 91113=
0254527870999992023010418004+37200+102867FM-12+304499999V0201501N005019999999N030000199-01051-02441103101ADDAA106000091AA212000091AA324000091AY101021AY201021KA1120M-00161KA2120N-01481MA1999999070441MD1710031+9999MW1001OD139901101999REMSYN11852787 04980 /1505 11105 21244 37044 40310 57003 60002 70000 333 11016 21148 3/117 54405 58014 60001 70000 90720 91111=
0238527870999992023010421004+37200+102867FM-12+304499999V0201301N003019999999N030000199-00891-02631102851ADDAA106000091AA212000091AA324000091KA1240M-00161KA2240N-01431MA1999999070391MD1710051+9999MW1001OD139900801999REMSYN11852787 04980 /1303 11089 21263 37039 40285 57005 60002 700// 333 11016 21143 3/117 54405 58021 60001 70000 90720 91108=
0254527870999992023010500004+37200+102867FM-12+304499999V0200101N001019999999N030000199-00761-03221103251ADDAA106000091AA212000091AA324000091AY101021AY201021KA1120M-00161KA2120N-01151MA1999999070471MD1210081+9999MW1001OD139900801999REMSYN11852787 04980 /0101 11076 21322 37047 40325 52008 60002 70000 333 11016 21115 3/119 54405 58029 60001 70000 90720 91108=
0248527870999992023010503004+37200+102867FM-12+304499999V0200201N011019999999N030000199-00941-02831103841ADDAA106000091AA212000091AA324000091AY101021AY201021KA1240M-00161KA2240N-01141MA1999999070731MD1210261+0501MW1001OD139901701999REMSYN11252787 04980 /0211 11094 21283 37073 40384 52026 60002 70000 333 11016 21114 3/119 58050 60001 70000 90720 91117=
0254527870999992023010506004+37200+102867FM-12+304499999V0203301N012019999999N030000199-00781-02491103571ADDAA106000091AA212000091AA324000091AY101021AY201021KA1240M-00161KA2240N-01141MA1999999070591MD1710141+9999MW1001OD139901701999REMSYN11852787 04980 /3312 11078 21249 37059 40357 57014 60002 70000 333 11016 21114 3/119 54415 58047 60001 70000 90720 91117=
0254527870999992023010509004+37200+102867FM-12+304499999V0200201N010019999999N030000199-01101-02261104031ADDAA106000091AA212000091AA324000091AY101021AY201021KA1240M-00341KA2240N-01141MA1999999070821MD1210231+9999MW1001OD139901701999REMSYN11852787 04980 /0210 11110 21226 37082 40403 52023 60002 70000 333 11034 21114 3/119 54418 58063 60001 70000 90720 91117=
0254527870999992023010512004+37200+102867FM-12+304499999V0201701N006019999999N030000199-01131-02381104111ADDAA106000091AA212000091AA324000091AY101021AY201021KA1240M-00591KA2240N-01311MA1999999070931MD1210111+9999MW1001OD139901701999REMSYN11852787 04980 /1706 11113 21238 37093 40411 52011 60002 70000 333 11059 21131 3/118 54415 58053 60001 70000 90720 91117=
0254527870999992023010518004+37200+102867FM-12+304499999V0203101N008019999999N030000199-00571-02691103631ADDAA106000091AA212000091AA324000091AY101021AY201021KA1120M-00551KA2120N-01311MA1999999070871MD1710041+9999MW1001OD139901701999REMSYN11852787 04980 /3108 11057 21269 37087 40363 57004 60002 70000 333 11055 21131 3/118 54405 58043 60001 70000 90720 91117=
0238527870999992023010521004+37200+102867FM-12+304499999V0202901N011019999999N030000199-00571-02761103781ADDAA106000091AA212000091AA324000091KA1240M-00531KA2240N-01311MA1999999070811MD1710061+9999MW1001OD139901901999REMSYN11852787 04980 /2911 11057 21276 37081 40378 57006 60002 700// 333 11053 21131 3/118 54405 58042 60001 70000 90720 91119=
0254527870999992023010600004+37200+102867FM-12+304499999V0202801N007019999999N030000199-00561-02751103861ADDAA106000091AA212000091AA324000091AY101021AY201021KA1120M-00501KA2120N-01311MA1999999070861MD1210051+9999MW1001OD139901901999REMSYN11852787 04980 /2807 11056 21275 37086 40386 52005 60002 70000 333 11050 21131 3/118 54405 58039 60001 70000 90720 91119=
0254527870999992023010603004+37200+102867FM-12+304499999V0202801N008019999999N030000199-00171-02661103781ADDAA106000091AA212000091AA324000091AY101021AY201021KA1240M-00171KA2240N-01311MA1999999070941MD1210081+9999MW1001OD139901901999REMSYN11852787 04980 /2808 11017 21266 37094 40378 52008 60002 70000 333 11017 21131 3/118 54408 58021 60001 70000 90720 91119=
0254527870999992023010606004+37200+102867FM-12+304499999V0202901N010019999999N027000199+00171-02791102731ADDAA106000091AA212000091AA324000091AY101021AY201021KA1240M+00171KA2240N-01311MA1999999070711MD1710231+9999MW1001OD139901901999REMSYN11852787 04977 /2910 10017 21279 37071 40273 57023 60002 70000 333 10017 21131 3/113 54400 58012 60001 70000 90720 91119=
0254527870999992023010609004+37200+102867FM-12+304499999V0203001N008019999999N028000199+00161-02681102611ADDAA106000091AA212000091AA324000091AY101021AY201021KA1240M+00251KA2240N-01311MA1999999070621MD1710091+9999MW1001OD139901801999REMSYN11852787 04978 /3008 10016 21268 37062 40261 57009 60002 70000 333 10025 21131 3/113 54403 59020 60001 70000 90720 91118=
0254527870999992023010612004+37200+102867FM-12+304499999V0201301N001019999999N030000199-00281-02671102951ADDAA106000091AA212000091AA324000091AY101021AY201021KA1240M+00251KA2240N-01281MA1999999070651MD1210031+9999MW1001OD139901801999REMSYN11852787 04980 /1301 11028 21267 37065 40295 52003 60002 70000 333 10025 21128 3/114 54409 59028 60001 70000 90720 91118=
0254527870999992023010618004+37200+102867FM-12+304499999V0202601N004019999999N030000199-00251-03111102111ADDAA106000091AA212000091AA324000091AY101021AY201021KA1120M+00251KA2120N-00631MA1999999070431MD1710121+9999MW1001OD139901601999REMSYN11852787 04980 /2604 11025 21311 37043 40211 57012 60002 70000 333 10025 21063 3/115 54405 59044 60001 70000 90720 91116=
0238527870999992023010621004+37200+102867FM-12+304499999V0202801N010019999999N030000199-00201-03081101891ADDAA106000091AA212000091AA324000091KA1240M+00251KA2240N-00631MA1999999070301MD1710131+9999MW1001OD139901501999REMSYN11852787 04980 /2810 11020 21308 37030 40189 57013 60002 700// 333 10025 21063 3/115 54405 59051 60001 70000 90720 91115=
0254527870999992023010700004+37200+102867FM-12+304499999V0203601N002019999999N030000199-00331-03181102341ADDAA106000091AA212000091AA324000091AY101021AY201021KA1120M+00251KA2120N-00631MA1999999070341MD1210041+9999MW1001OD139901701999REMSYN11852787 04980 /3602 11033 21318 37034 40234 52004 60002 70000 333 10025 21063 3/115 54405 59052 60001 70000 90720 91117=
0254527870999992023010703004+37200+102867FM-12+304499999V0202601N005019999999N029000199+00211-03191102101ADDAA106000091AA212000091AA324000091AY101021AY201021KA1240M+00251KA2240N-00471MA1999999070401MD1210061+9999MW1001OD139901701999REMSYN11852787 04979 /2605 10021 21319 37040 40210 52006 60002 70000 333 10025 21047 3/116 54405 59054 60001 70000 90720 91117=
0254527870999992023010706004+37200+102867FM-12+304499999V0201601N003019999999N026000199+00621-03311101541ADDAA106000091AA212000091AA324000091AY101021AY201021KA1240M+00681KA2240N-00471MA1999999070251MD1710151+9999MW1001OD139901701999REMSYN11852787 04976 /1603 10062 21331 37025 40154 57015 60002 70000 333 10068 21047 3/116 54405 59046 60001 70000 90720 91117=
0254527870999992023010709004+37200+102867FM-12+304499999V0203501N009019999999N029000199+00091-02631101911ADDAA106000091AA212000091AA324000091AY101021AY201021KA1240M+00681KA2240N-00471MA1999999070281MD1210031+9999MW1001OD139901701999REMSYN11852787 04979 /3509 10009 21263 37028 40191 52003 60002 70000 333 10068 21047 3/116 54415 59034 60001 70000 90720 91117=
0254527870999992023010712004+37200+102867FM-12+304499999V0200101N006019999999N029000199-00121-03011102361ADDAA106000091AA212000091AA324000091AY101021AY201021KA1240M+00681KA2240N-00471MA1999999070431MD1210151+9999MW1001OD139901201999REMSYN11852787 04979 /0106 11012 21301 37043 40236 52015 60002 70000 333 10068 21047 3/116 54405 59022 60001 70000 90720 91112=
0254527870999992023010718004+37200+102867FM-12+304499999V0201601N006019999999N030000199-00671-02981101941ADDAA106000091AA212000091AA324000091AY101021AY201021KA1120M+00681KA2120N-00701MA1999999070331MD1710111+9999MW1001OD139901201999REMSYN11852787 04980 /1606 11067 21298 37033 40194 57011 60002 70000 333 10068 21070 3/116 54415 59010 60001 70000 90720 91112=
0238527870999992023010721004+37200+102867FM-12+304499999V0201501N006019999999N030000199-00691-02931102231ADDAA106000091AA212000091AA324000091KA1240M+00681KA2240N-00721MA1999999070271MD1710061+9999MW1001OD139901201999REMSYN11852787 04980 /1506 11069 21293 37027 40223 57006 60002 700// 333 10068 21072 3/116 54415 59003 60001 70000 90720 91112=
0254527870999992023010800004+37200+102867FM-12+304499999V0201601N007019999999N030000199-00631-02881102331ADDAA106000091AA212000091AA324000091AY101021AY201021KA1120M+00681KA2120N-00801MA1999999070271MD1410001+9999MW1001OD139901201999REMSYN11852787 04980 /1607 11063 21288 37027 40233 54000 60002 70000 333 10068 21080 3/116 54415 59007 60001 70000 90720 91112=
0254527870999992023010803004+37200+102867FM-12+304499999V0201601N004019999999N029000199-00191-02761102381ADDAA106000091AA212000091AA324000091AY101021AY201021KA1240M+00681KA2240N-00801MA1999999070371MD1210101+9999MW1001OD139901201999REMSYN11852787 04979 /1604 11019 21276 37037 40238 52010 60002 70000 333 10068 21080 3/116 54415 59003 60001 70000 90720 91112=
0254527870999992023010806004+37200+102867FM-12+304499999V0201301N002019999999N028000199+00471-02691101901ADDAA106000091AA212000091AA324000091AY101021AY201021KA1240M+00681KA2240N-00801MA1999999070231MD1710141+9999MW1001OD139901201999REMSYN11852787 04978 /1302 10047 21269 37023 40190 57014 60002 70000 333 10068 21080 3/112 54415 59002 60001 70000 90720 91112=
0254527870999992023010809004+37200+102867FM-12+304499999V0203501N008019999999N027000199+00191-02771102221ADDAA106000091AA212000091AA324000091AY101021AY201021KA1240M+00561KA2240N-00801MA1999999070311MD1210081+9999MW1001OD139901101999REMSYN11852787 04977 /3508 10019 21277 37031 40222 52008 60002 70000 333 10056 21080 3/112 54405 58003 60001 70000 90720 91111=
0254527870999992023010812004+37200+102867FM-12+304499999V0203201N005019999999N029000199-00631-02621103001ADDAA106000091AA212000091AA324000091AY101021AY201021KA1240M+00561KA2240N-00801MA1999999070481MD1210171+9999MW1001OD139901101999REMSYN11852787 04979 /3205 11063 21262 37048 40300 52017 60002 70000 333 10056 21080 3/112 54415 58005 60001 70000 90720 91111=
0254527870999992023010818004+37200+102867FM-12+304499999V0201701N005019999999N030000199-00591-03001102211ADDAA106000091AA212000091AA324000091AY101021AY201021KA1120M+00561KA2120N-00801MA1999999070481MD1710031+9999MW1001OD139901101999REMSYN11852787 04980 /1705 11059 21300 37048 40221 57003 60002 70000 333 10056 21080 3/115 54405 58015 60001 70000 90720 91111=
0238527870999992023010821004+37200+102867FM-12+304499999V0201301N002019999999N030000199-00611-02861102311ADDAA106000091AA212000091AA324000091KA1240M+00561KA2240N-00801MA1999999070411MD1710071+9999MW1001OD139901001999REMSYN11852787 04980 /1302 11061 21286 37041 40231 57007 60002 700// 333 10056 21080 3/115 54405 58014 60001 70000 90720 91110=
0254527870999992023010900004+37200+102867FM-12+304499999V0203001N001019999999N030000199-00491-02921102831ADDAA106000091AA212000091AA324000091AY101021AY201021KA1120M+00561KA2120N-00791MA1999999070431MD1210021+9999MW1001OD139900801999REMSYN11852787 04980 /3001 11049 21292 37043 40283 52002 60002 70000 333 10056 21079 3/118 54405 58016 60001 70000 90720 91108=
0254527870999992023010903004+37200+102867FM-12+304499999V0203101N006019999999N027000199-00041-02841102331ADDAA106000091AA212000091AA324000091AY101021AY201021KA1240M+00561KA2240N-00791MA1999999070531MD1210101+9999MW1001OD139900701999REMSYN11852787 04977 /3106 11004 21284 37053 40233 52010 60002 70000 333 10056 21079 3/118 54405 58016 60001 70000 90720 91107=
0254527870999992023010906004+37200+102867FM-12+304499999V0203601N007019999999N027000199+00411-02881102171ADDAA106000091AA212000091AA324000091AY101021AY201021KA1240M+00561KA2240N-00791MA1999999070431MD1710101+9999MW1001OD139901101999REMSYN11852787 04977 /3607 10041 21288 37043 40217 57010 60002 70000 333 10056 21079 3/118 54415 58020 60001 70000 90720 91111=
0254527870999992023010909004+37200+102867FM-12+304499999V0200101N006019999999N028000199+00271-02981102331ADDAA106000091AA212000091AA324000091AY101021AY201021KA1240M+00421KA2240N-00791MA1999999070461MD1210031+9999MW1001OD139901101999REMSYN11852787 04978 /0106 10027 21298 37046 40233 52003 60002 70000 333 10042 21079 3/118 54405 58015 60001 70000 90720 91111=
0254527870999992023010912004+37200+102867FM-12+304499999V0201501N003019999999N029000199-00381-02751102841ADDAA106000091AA212000091AA324000091AY101021AY201021KA1240M+00421KA2240N-00791MA1999999070561MD1210101+9999MW1001OD139901101999REMSYN11852787 04979 /1503 11038 21275 37056 40284 52010 60002 70000 333 10042 21079 3/118 54405 58008 60001 70000 90720 91111=
0254527870999992023010918004+37200+102867FM-12+304499999V0201401N006019999999N030000199-00721-02641102161ADDAA106000091AA212000091AA324000091AY101021AY201021KA1120M+00421KA2120N-00791MA1999999070361MD1710131+9999MW1001OD139901101999REMSYN11852787 04980 /1406 11072 21264 37036 40216 57013 60002 70000 333 10042 21079 3/112 54415 59012 60001 70000 90720 91111=
0238527870999992023010921004+37200+102867FM-12+304499999V0201601N008019999999N030000199-00531-02721101791ADDAA106000091AA212000091AA324000091KA1240M+00421KA2240N-00741MA1999999070131MD1710231+9999MW1001OD139901001999REMSYN11852787 04980 /1608 11053 21272 37013 40179 57023 60002 700// 333 10042 21074 3/112 54405 59028 60001 70000 90720 91110=
0254527870999992023011000004+37200+102867FM-12+304499999V0201701N007019999999N030000199-00431-02791102001ADDAA106000091AA212000091AA324000091AY101021AY201021KA1120M+00421KA2120N-00741MA1999999070011MD1710121+9999MW1001OD139901101999REMSYN11852787 04980 /1707 11043 21279 37001 40200 57012 60002 70000 333 10042 21074 3/112 54405 59042 60001 70000 90720 91111=
0254527870999992023011003004+37200+102867FM-12+304499999V0201601N006019999999N029000199+00251-02611101651ADDAA106000091AA212000091AA324000091AY101021AY201021KA1240M+00421KA2240N-00741MA1999999070041MD1210031+9999MW1001OD139901301999REMSYN11852787 04979 /1606 10025 21261 37004 40165 52003 60002 70000 333 10042 21074 3/112 54405 59049 60001 70000 90720 91113=
0254527870999992023011006004+37200+102867FM-12+304499999V0203201N004019999999N022000199+00121-02421101551ADDAA106000091AA212000091AA324000091AY101021AY201021KA1240M+00641KA2240N-00741MA1999999069801MD1710241+9999MW1001OD139901301999REMSYN11852787 04972 /3204 10012 21242 36980 40155 57024 60002 70000 333 10064 21074 3/112 54415 59063 60001 70000 90720 91113=
0254527870999992023011009004+37200+102867FM-12+304499999V0203101N006019999999N028000199-00321-02421101721ADDAA106000091AA212000091AA324000091AY101021AY201021KA1240M+00641KA2240N-00741MA1999999069801MD1410001+9999MW1001OD139901301999REMSYN11852787 04978 /3106 11032 21242 36980 40172 54000 60002 70000 333 10064 21074 3/109 54416 59066 60001 70000 90720 91113=
0248527870999992023011012004+37200+102867FM-12+304499999V0201201N002019999999N029000199-00351-02331101841ADDAA106000091AA212000091AA324000091AY101021AY201021KA1240M+00641KA2240N-00741MA1999999069921MD1210121-0641MW1001OD139901301999REMSYN11252787 04979 /1202 11035 21233 36992 40184 52012 60002 70000 333 10064 21074 3/111 59064 60001 70000 90720 91113=
0254527870999992023011018004+37200+102867FM-12+304499999V0203201N002019999999N030000199-00321-02481101321ADDAA106000091AA212000091AA324000091AY101021AY201021KA1120M+00641KA2120N-00761MA1999999069831MD1710101+9999MW1001OD139900901999REMSYN11852787 04980 /3202 11032 21248 36983 40132 57010 60002 70000 333 10064 21076 3/114 54405 59053 60001 70000 90720 91109=
0238527870999992023011021004+37200+102867FM-12+304499999V0201201N002019999999N029000199-00311-02351101411ADDAA106000091AA212000091AA324000091KA1240M+00641KA2240N-00761MA1999999069691MD1710141+9999MW1001OD139900701999REMSYN11852787 04979 /1202 11031 21235 36969 40141 57014 60002 700// 333 10064 21076 3/115 54405 59044 60001 70000 90720 91107=
0254527870999992023011100004+37200+102867FM-12+304499999V0201401N006019999999N030000199-00621-02351101501ADDAA106000091AA212000091AA324000091AY101021AY201021KA1120M+00641KA2120N-00761MA1999999069591MD1710101+9999MW1001OD139900701999REMSYN11852787 04980 /1406 11062 21235 36959 40150 57010 60002 70000 333 10064 21076 3/115 54415 59042 60001 70000 90720 91107=
0254527870999992023011103004+37200+102867FM-12+304499999V0201601N007019999999N028000199-00011-02231101071ADDAA106000091AA212000091AA324000091AY101021AY201021KA1240M+00641KA2240N-00761MA1999999069541MD1710051+9999MW1001OD139901001999REMSYN11852787 04978 /1607 11001 21223 36954 40107 57005 60002 70000 333 10064 21076 3/115 54415 59050 60001 70000 90720 91110=
0254527870999992023011106004+37200+102867FM-12+304499999V0202701N004019999999N024000199+00661-02181100321ADDAA106000091AA212000091AA324000091AY101021AY201021KA1240M+00671KA2240N-00761MA1999999069391MD1710151+9999MW1001OD139901001999REMSYN11852787 04974 /2704 10066 21218 36939 40032 57015 60002 70000 333 10067 21076 3/115 54405 59041 60001 70000 90720 91110=
0254527870999992023011109004+37200+102867FM-12+304499999V0202901N005019999999N024000199+00391-02211100421ADDAA106000091AA212000091AA324000091AY101021AY201021KA1240M+00701KA2240N-00761MA1999999069341MD1710051+9999MW1001OD139901801999REMSYN11852787 04974 /2905 10039 21221 36934 40042 57005 60002 70000 333 10070 21076 3/114 54407 59046 60001 70000 90720 91118=
0254527870999992023011112004+37200+102867FM-12+304499999V0203301N001019999999N029000199-00161-02171101201ADDAA106000091AA212000091AA324000091AY101021AY201021KA1240M+00701KA2240N-00761MA1999999069481MD1210141+9999MW1001OD139901801999REMSYN11852787 04979 /3301 11016 21217 36948 40120 52014 60002 70000 333 10070 21076 3/112 54405 59044 60001 70000 90720 91118=
0254527870999992023011118004+37200+102867FM-12+304499999V0200401N002019999999N030000199-00471-02271100391ADDAA106000091AA212000091AA324000091AY101021AY201021KA1120M+00701KA2120N-00691MA1999999069371MD1710071+9999MW1001OD139901801999REMSYN11852787 04980 /0402 11047 21227 36937 40039 57007 60002 70000 333 10070 21069 3/113 54415 59046 60001 70000 90720 91118=
0232527870999992023011121004+37200+102867FM-12+304499999V0201201N002019999999N030000199-00281-02751100331ADDAA106000091AA212000091AA324000091KA1240M+00701KA2240N-00691MA1999999069291MD1710081-0401MW1001OD139901301999REMSYN11252787 04980 /1202 11028 21275 36929 40033 57008 60002 700// 333 10070 21069 3/114 59040 60001 70000 90720 91113=
0254527870999992023011200004+37200+102867FM-12+304499999V0201501N003019999999N029000199-00511-03111100691ADDAA106000091AA212000091AA324000091AY101021AY201021KA1120M+00701KA2120N-00671MA1999999069181MD1710111+9999MW1001OD139901101999REMSYN11852787 04979 /1503 11051 21311 36918 40069 57011 60002 70000 333 10070 21067 3/114 54405 59041 60001 70000 90720 91111=
0254527870999992023011203004+37200+102867FM-12+304499999V0201201N012019999999N028000199+00251-03161100041ADDAA106000091AA212000091AA324000091AY101021AY201021KA1240M+00701KA2240N-00661MA1999999069081MD1710101+9999MW1001OD139901501999REMSYN11852787 04978 /1212 10025 21316 36908 40004 57010 60002 70000 333 10070 21066 3/114 54405 59046 60001 70000 90720 91115=
0254527870999992023011206004+37200+102867FM-12+304499999V0203201N009019999999N029000199-00691-02121100691ADDAA106000091AA212000091AA324000091AY101021AY201021KA1240M+00701KA2240N-00691MA1999999068951MD1710131+9999MW1001OD139901501999REMSYN11852787 04979 /3209 11069 21212 36895 40069 57013 60002 70000 333 10070 21069 3/114 54414 59044 60001 70000 90720 91115=
0305527870999992023011209004+37200+102867FM-12+304499999V0203301N012019999999N027000199-01391-01771101181ADDAA106999999AA212999999AA324999999AY101021AY201021KA1240M+00511KA2240N-01391MA1999999069041MD1210091+9999MW1741OD139901701999REMSYN11852787 04977 /3312 11139 21177 36904 40118 52009 60002 77400 333 10051 21139 3/114 54414 59030 60001 70000 90720 91117=EQDQ01  00002PRCP06Q02  00002PRCP12Q03  00002PRCP24
0305527870999992023011212004+37200+102867FM-12+304499999V0203501N013019999999N030000199-01651-01961102031ADDAA106999999AA212999999AA324999999AY101021AY201021KA1240M+00511KA2240N-01711MA1999999069381MD1210341+9999MW1221OD139902001999REMSYN11852787 04980 /3513 11165 21196 36938 40203 52034 60002 72200 333 10051 21171 3/116 54414 59010 60001 70000 90720 91120=EQDQ01  00002PRCP06Q02  00002PRCP12Q03  00002PRCP24
0305527870999992023011218004+37200+102867FM-12+304499999V0200101N013019999999N030000199-01601-01991102411ADDAA106999999AA212999999AA324999999AY101021AY201021KA1120M+00511KA2120N-01801MA1999999069571MD1210031+9999MW1741OD139902001999REMSYN11852787 04980 /0113 11160 21199 36957 40241 52003 60002 77400 333 10051 21180 3/116 54411 58020 60001 70000 90720 91120=EQDQ01  00002PRCP06Q02  00002PRCP12Q03  00002PRCP24
0238527870999992023011221004+37200+102867FM-12+304499999V0203601N013019999999N030000199-01691-02111103101ADDAA106000131AA212000131AA324000131KA1240M+00511KA2240N-01801MA1999999069641MD1210071+9999MW1741OD139902001999REMSYN11852787 04980 /3613 11169 21211 36964 40310 52007 69912 774// 333 10051 21180 3/116 54414 58035 69911 70001 90720 91120=
0254527870999992023011300004+37200+102867FM-12+304499999V0200201N013019999999N030000199-01881-02361103661ADDAA106000231AA212000231AA324000231AY101021AY201021KA1120M+00511KA2120N-01881MA1999999069781MD1210141+9999MW1741OD139902001999REMSYN11852787 04980 /0213 11188 21236 36978 40366 52014 69922 77400 333 10051 21188 3/116 54414 58060 69921 70002 90720 91120=
0254527870999992023011303004+37200+102867FM-12+304499999V0203601N013019999999N030000199-01781-02301103841ADDAA106000131AA212000231AA324000231AY101021AY201021KA1240M+00511KA2240N-01921MA1999999069961MD1210181+9999MW1221OD139902101999REMSYN11852787 04980 /3613 11178 21230 36996 40384 52018 69922 72200 333 10051 21192 3/116 54414 58088 69911 70002 90720 91121=
0254527870999992023011306004+37200+102867FM-12+304499999V0203601N010019999999N030000199-01671-02211103591ADDAA106000091AA212000231AA324000231AY101021AY201021KA1240M-00661KA2240N-01921MA1999999069871MD1710091+9999MW1001OD139902101999REMSYN11852787 04980 /3610 11167 21221 36987 40359 57009 69922 70000 333 11066 21192 3/116 54410 58092 60001 70002 90720 91121=
0254527870999992023011309004+37200+102867FM-12+304499999V0203501N012019999999N030000199-01981-02361104041ADDAA106000131AA212000231AA324000331AY101021AY201021KA1240M-01411KA2240N-01991MA1999999069961MD1210091+9999MW1221OD139902101999REMSYN11852787 04980 /3512 11198 21236 36996 40404 52009 69922 72200 333 11141 21199 3/116 54416 58092 69911 70003 90720 91121=
0254527870999992023011312004+37200+102867FM-12+304499999V0203601N010019999999N030000199-02041-02481104561ADDAA106000331AA212000331AA324000531AY101021AY201021KA1240M-01491KA2240N-02061MA1999999070181MD1210221+9999MW1001OD139902101999REMSYN11852787 04980 /3610 11204 21248 37018 40456 52022 69932 70000 333 11149 21206 3/119 54415 58080 69931 70005 90720 91121=
0273527870999992023011318004+37200+102867FM-12+304499999V0203001N005019999999N030000199-02311-02601104541ADDAA106999999AA212000331AA324000531AY101021AY201021KA1120M-01591KA2120N-02381MA1999999070131MD1710041+9999MW1221OD139901801999REMSYN11852787 04980 /3005 11231 21260 37013 40454 57004 69932 72200 333 11159 21238 3/122 54417 58056 60001 70005 90720 91118=EQDQ01  00002PRCP06
0238527870999992023011321004+37200+102867FM-12+304499999V0203201N003019999999N030000199-02211-02491104561ADDAA106000091AA212000231AA324000431KA1240M-01611KA2240N-02381MA1999999070031MD1710101+9999MW1001OD139901801999REMSYN11852787 04980 /3203 11221 21249 37003 40456 57010 69922 700// 333 11161 21238 3/123 54415 58039 60001 70004 90720 91118=
0289527870999992023011400004+37200+102867FM-12+304499999V0203001N007019999999N030000199-02601-02961105071ADDAA106999999AA212999999AA324000331AY101021AY201021KA1120M-01611KA2120N-02611MA1999999070131MD1210101+9999MW1741OD139901401999REMSYN11852787 04980 /3007 11260 21296 37013 40507 52010 60002 77400 333 11161 21261 3/124 54417 58035 60001 70003 90720 91114=EQDQ01  00002PRCP06Q02  00002PRCP12
0289527870999992023011403004+37200+102867FM-12+304499999V0203301N009019999999N030000199-02081-02321105041ADDAA106999999AA212999999AA324000331AY101021AY201021KA1240M-01611KA2240N-02631MA1999999070211MD1210081+9999MW1741OD139901201999REMSYN11852787 04980 /3309 11208 21232 37021 40504 52008 60002 77400 333 11161 21263 3/124 54415 58025 60001 70003 90720 91112=EQDQ01  00002PRCP06Q02  00002PRCP12
0289527870999992023011406004+37200+102867FM-12+304499999V0203601N009019999999N030000199-01741-02281104521ADDAA106999999AA212999999AA324000331AY101021AY201021KA1240M-01661KA2240N-02631MA1999999070081MD1710131+9999MW1221OD139901201999REMSYN11852787 04980 /3609 11174 21228 37008 40452 57013 60002 72200 333 11166 21263 3/124 54415 58021 60001 70003 90720 91112=EQDQ01  00002PRCP06Q02  00002PRCP12
0289527870999992023011409004+37200+102867FM-12+304499999V0203601N007019999999N030000199-01891-02301104661ADDAA106999999AA212999999AA324000231AY101021AY201021KA1240M-01721KA2240N-02631MA1999999070151MD1210071+9999MW1221OD139901301999REMSYN11852787 04980 /3607 11189 21230 37015 40466 52007 60002 72200 333 11172 21263 3/124 54405 58019 60001 70002 90720 91113=EQDQ01  00002PRCP06Q02  00002PRCP12
0248527870999992023011412004+37200+102867FM-12+304499999V0203301N006019999999N030000199-02051-02271105381ADDAA106000091AA212000091AA324000091AY101021AY201021KA1240M-01721KA2240N-02631MA1999999070331MD1210181+0151MW1001OD139901301999REMSYN11252787 04980 /3306 11205 21227 37033 40538 52018 60002 70000 333 11172 21263 3/124 58015 60001 70000 90720 91113=
0254527870999992023011418004+37200+102867FM-12+304499999V0203301N001019999999N030000199-02091-02431104521ADDAA106000091AA212000091AA324000091AY101021AY201021KA1120M-01721KA2120N-02631MA1999999070201MD1710151+9999MW1001OD139901301999REMSYN11852787 04980 /3301 11209 21243 37020 40452 57015 60002 70000 333 11172 21263 3/123 54405 58007 60001 70000 90720 91113=
0238527870999992023011421004+37200+102867FM-12+304499999V0203101N007019999999N030000199-02291-02561104711ADDAA106000091AA212000091AA324000091KA1240M-01721KA2240N-02631MA1999999070141MD1710061+9999MW1001OD139901301999REMSYN11852787 04980 /3107 11229 21256 37014 40471 57006 60002 700// 333 11172 21263 3/124 54415 58011 60001 70000 90720 91113=
0254527870999992023011500004+37200+102867FM-12+304499999V0203101N004019999999N030000199-02161-02431104741ADDAA106000091AA212000091AA324000091AY101021AY201021KA1120M-01721KA2120N-02631MA1999999070141MD1410001+9999MW1001OD139900801999REMSYN11852787 04980 /3104 11216 21243 37014 40474 54000 60002 70000 333 11172 21263 3/125 54405 58001 60001 70000 90720 91108=
0254527870999992023011503004+37200+102867FM-12+304499999V0203101N006019999999N030000199-01651-02521104461ADDAA106000091AA212000091AA324000091AY101021AY201021KA1240M-01651KA2240N-02331MA1999999070201MD1210061+9999MW1001OD139900801999REMSYN11852787 04980 /3106 11165 21252 37020 40446 52006 60002 70000 333 11165 21233 3/125 54405 59001 60001 70000 90720 91108=
0254527870999992023011506004+37200+102867FM-12+304499999V0203601N007019999999N030000199-01201-03051103801ADDAA106000091AA212000091AA324000091AY101021AY201021KA1240M-01181KA2240N-02331MA1999999070001MD1710201+9999MW1001OD139901101999REMSYN11852787 04980 /3607 11120 21305 37000 40380 57020 60002 70000 333 11118 21233 3/125 54405 59008 60001 70000 90720 91111=
0254527870999992023011509004+37200+102867FM-12+304499999V0203101N005019999999N030000199-01481-02191104191ADDAA106000091AA212000091AA324000091AY101021AY201021KA1240M-01151KA2240N-02331MA1999999070011MD1210011+9999MW1001OD139901101999REMSYN11852787 04980 /3105 11148 21219 37001 40419 52001 60002 70000 333 11115 21233 3/125 54405 59014 60001 70000 90720 91111=
0254527870999992023011512004+37200+102867FM-12+304499999V0201401N008019999999N030000199-01671-02301104281ADDAA106000091AA212000091AA324000091AY101021AY201021KA1240M-01151KA2240N-02331MA1999999070041MD1210031+9999MW1001OD139901101999REMSYN11852787 04980 /1408 11167 21230 37004 40428 52003 60002 70000 333 11115 21233 3/124 54405 59029 60001 70000 90720 91111=
0254527870999992023011518004+37200+102867FM-12+304499999V0203301N005019999999N030000199-01861-02691103561ADDAA106000091AA212000091AA324000091AY101021AY201021KA1120M-01151KA2120N-02331MA1999999069961MD1710081+9999MW1001OD139901101999REMSYN11852787 04980 /3305 11186 21269 36996 40356 57008 60002 70000 333 11115 21233 3/121 54405 59024 60001 70000 90720 91111=
0238527870999992023011521004+37200+102867FM-12+304499999V0200101N005019999999N030000199-01821-03001103661ADDAA106000091AA212000091AA324000091KA1240M-01151KA2240N-02311MA1999999069901MD1710061+9999MW1001OD139901001999REMSYN11852787 04980 /0105 11182 21300 36990 40366 57006 60002 700// 333 11115 21231 3/121 54405 59024 60001 70000 90720 91110=
0254527870999992023011600004+37200+102867FM-12+304499999V0203501N008019999999N030000199-02041-02771104101ADDAA106000091AA212000091AA324000091AY101021AY201021KA1120M-01151KA2120N-02211MA1999999069981MD1210081+9999MW1001OD139901101999REMSYN11852787 04980 /3508 11204 21277 36998 40410 52008 60002 70000 333 11115 21221 3/121 54405 59016 60001 70000 90720 91111=
0254527870999992023011603004+37200+102867FM-12+304499999V0203301N004019999999N030000199-01751-02571104231ADDAA106000091AA212000091AA324000091AY101021AY201021KA1240M-01151KA2240N-02091MA1999999070101MD1210121+9999MW1001OD139901101999REMSYN11852787 04980 /3304 11175 21257 37010 40423 52012 60002 70000 333 11115 21209 3/120 54415 59010 60001 70000 90720 91111=
0254527870999992023011606004+37200+102867FM-12+304499999V0203501N007019999999N030000199-01401-02861103641ADDAA106000091AA212000091AA324000091AY101021AY201021KA1240M-01151KA2240N-02091MA1999999069911MD1710191+9999MW1001OD139901101999REMSYN11852787 04980 /3507 11140 21286 36991 40364 57019 60002 70000 333 11115 21209 3/120 54415 59009 60001 70000 90720 91111=
0254527870999992023011609004+37200+102867FM-12+304499999V0200101N005019999999N030000199-01611-02461103851ADDAA106000091AA212000091AA324000091AY101021AY201021KA1240M-01321KA2240N-02091MA1999999069961MD1210051+9999MW1001OD139901101999REMSYN11852787 04980 /0105 11161 21246 36996 40385 52005 60002 70000 333 11132 21209 3/120 54415 59005 60001 70000 90720 91111=
0254527870999992023011612004+37200+102867FM-12+304499999V0202801N004019999999N030000199-02041-02501104662ADDAA106000091AA212000091AA324000091AY101021AY201021KA1240M-01321KA2240N-02091MA1999999070161MD1210201+9999MW1001OD139901101999REMSYN11852787 04980 /2804 11204 21250 37016 40466 52020 60002 70000 333 11132 21209 3/121 54415 58012 60001 70000 90720 91111=
0254527870999992023011618004+37200+102867FM-12+304499999V0203101N002019999999N030000199-01961-02321104051ADDAA106000091AA212000091AA324000091AY101021AY201021KA1120M-01321KA2120N-02161MA1999999070131MD1710071+9999MW1001OD139901101999REMSYN11852787 04980 /3102 11196 21232 37013 40405 57007 60002 70000 333 11132 21216 3/122 54415 58017 60001 70000 90720 91111=
0238527870999992023011621004+37200+102867FM-12+304499999V0203101N004019999999N030000199-02171-02531104331ADDAA106000091AA212000091AA324000091KA1240M-01321KA2240N-02171MA1999999070101MD1710031+9999MW1001OD139901101999REMSYN11852787 04980 /3104 11217 21253 37010 40433 57003 60002 700// 333 11132 21217 3/123 54415 58020 60001 70000 90720 91111=
0248527870999992023011700004+37200+102867FM-12+304499999V0203301N002019999999N030000199-02061-02551104681ADDAA106000091AA212000091AA324000091AY101021AY201021KA1120M-01321KA2120N-02231MA1999999070161MD1210061+0181MW1001OD139900701999REMSYN11252787 04980 /3302 11206 21255 37016 40468 52006 60002 70000 333 11132 21223 3/124 58018 60001 70000 90720 91107=
0254527870999992023011703004+37200+102867FM-12+304499999V0203201N001019999999N030000199-01491-02471104241ADDAA106000091AA212000091AA324000091AY101021AY201021KA1240M-01321KA2240N-02231MA1999999070221MD1210061+9999MW1001OD139900701999REMSYN11852787 04980 /3201 11149 21247 37022 40424 52006 60002 70000 333 11132 21223 3/125 54405 58012 60001 70000 90720 91107=
0254527870999992023011706004+37200+102867FM-12+304499999V0203201N003019999999N030000199-01261-02401103851ADDAA106000091AA212000091AA324000091AY101021AY201021KA1240M-01231KA2240N-02231MA1999999070071MD1710151+9999MW1001OD139900701999REMSYN11852787 04980 /3203 11126 21240 37007 40385 57015 60002 70000 333 11123 21223 3/125 54405 58016 60001 70000 90720 91107=
0254527870999992023011709004+37200+102867FM-12+304499999V0203001N003019999999N030000199-01351-02371104111ADDAA106000091AA212000091AA324000091AY101021AY201021KA1240M-01161KA2240N-02231MA1999999070091MD1210021+9999MW1001OD139900801999REMSYN11852787 04980 /3003 11135 21237 37009 40411 52002 60002 70000 333 11116 21223 3/125 54405 58013 60001 70000 90720 91108=
0254527870999992023011712004+37200+102867FM-12+304499999V0201801N004019999999N030000199-01771-02091104511ADDAA106000091AA212000091AA324000091AY101021AY201021KA1240M-01161KA2240N-02231MA1999999070191MD1210101+9999MW1001OD139900801999REMSYN11852787 04980 /1804 11177 21209 37019 40451 52010 60002 70000 333 11116 21223 3/125 54405 58003 60001 70000 90720 91108=
0254527870999992023011718004+37200+102867FM-12+304499999V0203301N001019999999N030000199-01581-02841103481ADDAA106000091AA212000091AA324000091AY101021AY201021KA1120M-01161KA2120N-02231MA1999999070021MD1710101+9999MW1001OD139900801999REMSYN11852787 04980 /3301 11158 21284 37002 40348 57010 60002 70000 333 11116 21223 3/125 54405 59011 60001 70000 90720 91108=
0238527870999992023011721004+37200+102867FM-12+304499999V0203501N002019999999N030000199-01631-03221103461ADDAA106000091AA212000091AA324000091KA1240M-01161KA2240N-02231MA1999999069931MD1710091+9999MW1001OD139900801999REMSYN11852787 04980 /3502 11163 21322 36993 40346 57009 60002 700// 333 11116 21223 3/126 54405 59017 60001 70000 90720 91108=
0254527870999992023011800004+37200+102867FM-12+304499999V0203301N007019999999N030000199-01911-02991104011ADDAA106000091AA212000091AA324000091AY101021AY201021KA1120M-01161KA2120N-02081MA1999999069941MD1210011+9999MW1001OD139901101999REMSYN11852787 04980 /3307 11191 21299 36994 40401 52001 60002 70000 333 11116 21208 3/126 54405 59022 60001 70000 90720 91111=
0254527870999992023011803004+37200+102867FM-12+304499999V0203301N008019999999N030000199-01391-02811103951ADDAA106000091AA212000091AA324000091AY101021AY201021KA1240M-01161KA2240N-01981MA1999999070081MD1210141+9999MW1001OD139901101999REMSYN11852787 04980 /3308 11139 21281 37008 40395 52014 60002 70000 333 11116 21198 3/126 54405 59014 60001 70000 90720 91111=
0254527870999992023011806004+37200+102867FM-12+304499999V0203401N006019999999N030000199-01101-02721103221ADDAA106000091AA212000091AA324000091AY101021AY201021KA1240M-01081KA2240N-01981MA1999999069921MD1710161+9999MW1001OD139901101999REMSYN11852787 04980 /3406 11110 21272 36992 40322 57016 60002 70000 333 11108 21198 3/126 54405 59015 60001 70000 90720 91111=
0254527870999992023011809004+37200+102867FM-12+304499999V0200101N007019999999N030000199-01171-02741103351ADDAA106000091AA212000091AA324000091AY101021AY201021KA1240M-00981KA2240N-01981MA1999999069951MD1210031+9999MW1001OD139901101999REMSYN11852787 04980 /0107 11117 21274 36995 40335 52003 60002 70000 333 11098 21198 3/125 54405 59014 60001 70000 90720 91111=
0254527870999992023011812004+37200+102867FM-12+304499999V0202901N003019999999N030000199-01821-02751104292ADDAA106000091AA212000091AA324000091AY101021AY201021KA1240M-00981KA2240N-01981MA1999999070101MD1210151+9999MW1001OD139901101999REMSYN11852787 04980 /2903 11182 21275 37010 40429 52015 60002 70000 333 11098 21198 3/124 54415 59009 60001 70000 90720 91111=
0254527870999992023011818004+37200+102867FM-12+304499999V0201601N002019999999N030000199-01841-02721103681ADDAA106000091AA212000091AA324000091AY101021AY201021KA1120M-00981KA2120N-01971MA1999999070101MD1710071+9999MW1001OD139901101999REMSYN11852787 04980 /1602 11184 21272 37010 40368 57007 60002 70000 333 11098 21197 3/124 54415 58008 60001 70000 90720 91111=
0238527870999992023011821004+37200+102867FM-12+304499999V0201101N002019999999N030000199-01811-02671103651ADDAA106000091AA212000091AA324000091KA1240M-00981KA2240N-01971MA1999999070061MD1710041+9999MW1001OD139901101999REMSYN11852787 04980 /1102 11181 21267 37006 40365 57004 60002 700// 333 11098 21197 3/125 54415 58013 60001 70000 90720 91111=
0254527870999992023011900004+37200+102867FM-12+304499999V0201401N002019999999N030000199-01831-02811104231ADDAA106000091AA212000091AA324000091AY101021AY201021KA1120M-00981KA2120N-01971MA1999999070101MD1210041+9999MW1001OD139900601999REMSYN11852787 04980 /1402 11183 21281 37010 40423 52004 60002 70000 333 11098 21197 3/126 54405 58016 60001 70000 90720 91106=
0254527870999992023011903004+37200+102867FM-12+304499999V0201701N003019999999N030000199-01241-02641103831ADDAA106000091AA212000091AA324000091AY101021AY201021KA1240M-00981KA2240N-01971MA1999999070151MD1210051+9999MW1001OD139900601999REMSYN11852787 04980 /1703 11124 21264 37015 40383 52005 60002 70000 333 11098 21197 3/126 54405 58007 60001 70000 90720 91106=
0254527870999992023011906004+37200+102867FM-12+304499999V0202001N002019999999N030000199-00891-02731103361ADDAA106000091AA212000091AA324000091AY101021AY201021KA1240M-00861KA2240N-01971MA1999999069991MD1710161+9999MW1001OD139900701999REMSYN11852787 04980 /2002 11089 21273 36999 40336 57016 60002 70000 333 11086 21197 3/126 54405 58007 60001 70000 90720 91107=
0248527870999992023011909004+37200+102867FM-12+304499999V0203501N008019999999N030000199-01161-02541103581ADDAA106000091AA212000091AA324000091AY101021AY201021KA1240M-00821KA2240N-01971MA1999999070021MD1210031+0071MW1001OD139901201999REMSYN11252787 04980 /3508 11116 21254 37002 40358 52003 60002 70000 333 11082 21197 3/126 58007 60001 70000 90720 91112=
0254527870999992023011912004+37200+102867FM-12+304499999V0203001N004019999999N030000199-01761-02581104271ADDAA106000091AA212000091AA324000091AY101021AY201021KA1240M-00821KA2240N-01971MA1999999070161MD1210141+9999MW1001OD139901201999REMSYN11852787 04980 /3004 11176 21258 37016 40427 52014 60002 70000 333 11082 21197 3/126 54405 58006 60001 70000 90720 91112=
0248527870999992023011918004+37200+102867FM-12+304499999V0201501N003019999999N030000199-01831-02621103561ADDAA106000091AA212000091AA324000091AY101021AY201021KA1120M-00821KA2120N-01971MA1999999070131MD1710101+0031MW1001OD139901201999REMSYN11252787 04980 /1503 11183 21262 37013 40356 57010 60002 70000 333 11082 21197 3/124 58003 60001 70000 90720 91112=
0238527870999992023011921004+37200+102867FM-12+304499999V0201401N003019999999N030000199-01921-02681103711ADDAA106000091AA212000091AA324000091KA1240M-00821KA2240N-01941MA1999999070051MD1710081+9999MW1001OD139901001999REMSYN11852787 04980 /1403 11192 21268 37005 40371 57008 60002 700// 333 11082 21194 3/124 54415 59001 60001 70000 90720 91110=
0254527870999992023012000004+37200+102867FM-12+304499999V0201401N004019999999N030000199-01951-02751104191ADDAA106000091AA212000091AA324000091AY101021AY201021KA1120M-00821KA2120N-01961MA1999999070041MD1710011+9999MW1001OD139900701999REMSYN11852787 04980 /1404 11195 21275 37004 40419 57001 60002 70000 333 11082 21196 3/124 54415 59006 60001 70000 90720 91107=
0254527870999992023012003004+37200+102867FM-12+304499999V0201701N007019999999N030000199-01121-02611103571ADDAA106000091AA212000091AA324000091AY101021AY201021KA1240M-00821KA2240N-01961MA1999999070051MD1210011+9999MW1001OD139900801999REMSYN11852787 04980 /1707 11112 21261 37005 40357 52001 60002 70000 333 11082 21196 3/124 54405 59010 60001 70000 90720 91108=
0254527870999992023012006004+37200+102867FM-12+304499999V0201601N007019999999N030000199-00801-02711103021ADDAA106000091AA212000091AA324000091AY101021AY201021KA1240M-00801KA2240N-01961MA1999999069811MD1710241+9999MW1001OD139901101999REMSYN11852787 04980 /1607 11080 21271 36981 40302 57024 60002 70000 333 11080 21196 3/124 54405 59018 60001 70000 90720 91111=
0254527870999992023012009004+37200+102867FM-12+304499999V0203501N009019999999N030000199-00841-02851103101ADDAA106000091AA212000091AA324000091AY101021AY201021KA1240M-00601KA2240N-01961MA1999999069801MD1710011+9999MW1001OD139901101999REMSYN11852787 04980 /3509 11084 21285 36980 40310 57001 60002 70000 333 11060 21196 3/124 54405 59022 60001 70000 90720 91111=
0254527870999992023012012004+37200+102867FM-12+304499999V0200201N005019999999N030000199-01231-03021103541ADDAA106000091AA212000091AA324000091AY101021AY201021KA1240M-00601KA2240N-01961MA1999999069881MD1210081+9999MW1001OD139901201999REMSYN11852787 04980 /0205 11123 21302 36988 40354 52008 60002 70000 333 11060 21196 3/124 54405 59028 60001 70000 90720 91112=
0254527870999992023012018004+37200+102867FM-12+304499999V0201601N005019999999N030000199-01751-02901102731ADDAA106000091AA212000091AA324000091AY101021AY201021KA1120M-00601KA2120N-01961MA1999999069661MD1710131+9999MW1001OD139901401999REMSYN11852787 04980 /1605 11175 21290 36966 40273 57013 60002 70000 333 11060 21196 3/122 54405 59047 60001 70000 90720 91114=
0238527870999992023012021004+37200+102867FM-12+304499999V0201601N002019999999N030000199-01621-02881102591ADDAA106000091AA212000091AA324000091KA1240M-00601KA2240N-01961MA1999999069611MD1710051+9999MW1001OD139901401999REMSYN11852787 04980 /1602 11162 21288 36961 40259 57005 60002 700// 333 11060 21196 3/123 54405 59044 60001 70000 90720 91114=
0254527870999992023012100004+37200+102867FM-12+304499999V0203401N003019999999N030000199-01671-02861102941ADDAA106000091AA212000091AA324000091AY101021AY201021KA1120M-00601KA2120N-01951MA1999999069621MD1210011+9999MW1001OD139901401999REMSYN11852787 04980 /3403 11167 21286 36962 40294 52001 60002 70000 333 11060 21195 3/123 54405 59042 60001 70000 90720 91114=
0248527870999992023012103004+37200+102867FM-12+304499999V0201601N002019999999N030000199-01141-02851102831ADDAA106000091AA212000091AA324000091AY101021AY201021KA1240M-00601KA2240N-01791MA1999999069741MD1210121-0311MW1001OD139901401999REMSYN11252787 04980 /1602 11114 21285 36974 40283 52012 60002 70000 333 11060 21179 3/123 59031 60001 70000 90720 91114=
0248527870999992023012106004+37200+102867FM-12+304499999V0201701N004019999999N029000199-00801-02951102571ADDAA106000091AA212000091AA324000091AY101021AY201021KA1240M-00601KA2240N-01791MA1999999069551MD1710191-0261MW1001OD139900801999REMSYN11252787 04979 /1704 11080 21295 36955 40257 57019 60002 70000 333 11060 21179 3/123 59026 60001 70000 90720 91108=
0254527870999992023012109004+37200+102867FM-12+304499999V0203401N005019999999N030000199-01171-02831102871ADDAA106000091AA212000091AA324000091AY101021AY201021KA1240M-00761KA2240N-01791MA1999999069631MD1210081+9999MW1001OD139901101999REMSYN11852787 04980 /3405 11117 21283 36963 40287 52008 60002 70000 333 11076 21179 3/123 54415 59017 60001 70000 90720 91111=
0254527870999992023012112004+37200+102867FM-12+304499999V0203101N003019999999N030000199-01611-02811103471ADDAA106000091AA212000091AA324000091AY101021AY201021KA1240M-00761KA2240N-01791MA1999999069781MD1210151+9999MW1001OD139901101999REMSYN11852787 04980 /3103 11161 21281 36978 40347 52015 60002 70000 333 11076 21179 3/121 54415 59010 60001 70000 90720 91111=
0254527870999992023012118004+37200+102867FM-12+304499999V0201201N013019999999N030000199-01561-02671102681ADDAA106000091AA212000091AA324000091AY101021AY201021KA1120M-00761KA2120N-01791MA1999999069721MD1710061+9999MW1001OD139901701999REMSYN11852787 04980 /1213 11156 21267 36972 40268 57006 60002 70000 333 11076 21179 3/119 54405 58006 60001 70000 90720 91117=
0232527870999992023012121004+37200+102867FM-12+304499999V0201201N010019999999N030000199-01601-02201102961ADDAA106000091AA212000091AA324000091KA1240M-00761KA2240N-01711MA1999999069701MD1710021+0091MW1001OD139901701999REMSYN11252787 04980 /1210 11160 21220 36970 40296 57002 60002 700// 333 11076 21171 3/119 58009 60001 70000 90720 91117=
0254527870999992023012200004+37200+102867FM-12+304499999V0201701N007019999999N030000199-01781-02201103451ADDAA106000091AA212000091AA324000091AY101021AY201021KA1120M-00761KA2120N-02011MA1999999069711MD1210011+9999MW1001OD139901701999REMSYN11852787 04980 /1707 11178 21220 36971 40345 52001 60002 70000 333 11076 21201 3/122 54415 58009 60001 70000 90720 91117=
0254527870999992023012203004+37200+102867FM-12+304499999V0201601N007019999999N030000199-01341-02011103011ADDAA106000091AA212000091AA324000091AY101021AY201021KA1240M-00761KA2240N-02051MA1999999069711MD1410001+9999MW1001OD139901701999REMSYN11852787 04980 /1607 11134 21201 36971 40301 54000 60002 70000 333 11076 21205 3/122 54415 59003 60001 70000 90720 91117=
0254527870999992023012206004+37200+102867FM-12+304499999V0203301N006019999999N030000199-01101-02421102571ADDAA106000091AA212000091AA324000091AY101021AY201021KA1240M-00731KA2240N-02051MA1999999069491MD1710221+9999MW1001OD139901501999REMSYN11852787 04980 /3306 11110 21242 36949 40257 57022 60002 70000 333 11073 21205 3/122 54415 59006 60001 70000 90720 91115=
0254527870999992023012209004+37200+102867FM-12+304499999V0203601N012019999999N030000199-01701-02621103321ADDAA106000091AA212000091AA324000091AY101021AY201021KA1240M-00731KA2240N-02051MA1999999069671MD1210181+9999MW1001OD139901801999REMSYN11852787 04980 /3612 11170 21262 36967 40332 52018 60002 70000 333 11073 21205 3/122 54415 58004 60001 70000 90720 91118=
0254527870999992023012212004+37200+102867FM-12+304499999V0200101N009019999999N030000199-02001-02411104152ADDAA106000231AA212000231AA324000231AY101021AY201021KA1240M-00731KA2240N-02051MA1999999069981MD1210311+9999MW1741OD139901901999REMSYN11852787 04980 /0109 11200 21241 36998 40415 52031 69922 77400 333 11073 21205 3/122 54415 58020 69921 70002 90720 91119=
0273527870999992023012218004+37200+102867FM-12+304499999V0203501N008019999999N030000199-02161-02561103811ADDAA106999999AA212000231AA324000231AY101021AY201021KA1120M-00731KA2120N-02251MA1999999070021MD1210061+9999MW1741OD139901901999REMSYN11852787 04980 /3508 11216 21256 37002 40381 52006 69922 77400 333 11073 21225 3/123 54416 58030 60001 70002 90720 91119=EQDQ01  00002PRCP06
0257527870999992023012221004+37200+102867FM-12+304499999V0200101N007019999999N030000199-02131-02581104341ADDAA106999999AA212000231AA324000231KA1240M-00731KA2240N-02251MA1999999070081MD1210061+9999MW1741OD139901901999REMSYN11852787 04980 /0107 11213 21258 37008 40434 52006 69922 774// 333 11073 21225 3/123 54415 58038 60001 70002 90720 91119=EQDQ01  00002PRCP06
0289527870999992023012300004+37200+102867FM-12+304499999V0203301N007019999999N028000199-02491-02841104981ADDAA106999999AA212999999AA324000231AY101021AY201021KA1120M-00731KA2120N-02541MA1999999070151MD1210071+9999MW1221OD139901401999REMSYN11852787 04978 /3307 11249 21284 37015 40498 52007 60002 72200 333 11073 21254 3/126 54417 58044 60001 70002 90720 91114=EQDQ01  00002PRCP06Q02  00002PRCP12
0289527870999992023012303004+37200+102867FM-12+304499999V0203501N010019999999N030000199-02281-02621105221ADDAA106999999AA212999999AA324000231AY101021AY201021KA1240M-00731KA2240N-02541MA1999999070331MD1210181+9999MW1741OD139901301999REMSYN11852787 04980 /3510 11228 21262 37033 40522 52018 60002 77400 333 11073 21254 3/126 54419 58062 60001 70002 90720 91113=EQDQ01  00002PRCP06Q02  00002PRCP12
0289527870999992023012306004+37200+102867FM-12+304499999V0203601N008019999999N030000199-02141-02561105091ADDAA106999999AA212999999AA324000231AY101021AY201021KA1240M-01041KA2240N-02541MA1999999070331MD1410001+9999MW1221OD139901501999REMSYN11852787 04980 /3608 11214 21256 37033 40509 54000 60002 72200 333 11104 21254 3/126 54410 58084 60001 70002 90720 91115=EQDQ01  00002PRCP06Q02  00002PRCP12
0289527870999992023012309004+37200+102867FM-12+304499999V0203601N009019999999N030000199-02201-02751105481ADDAA106999999AA212999999AA324000231AY101021AY201021KA1240M-01701KA2240N-02541MA1999999070571MD1210241+9999MW1741OD139901501999REMSYN11852787 04980 /3609 11220 21275 37057 40548 52024 60002 77400 333 11170 21254 3/126 54415 58090 60001 70002 90720 91115=EQDQ01  00002PRCP06Q02  00002PRCP12
0254527870999992023012312004+37200+102867FM-12+304499999V0203401N003019999999N030000199-02541-02901106402ADDAA106000091AA212000091AA324000091AY101021AY201021KA1240M-01991KA2240N-02611MA1999999070801MD1210231+9999MW1001OD139901501999REMSYN11852787 04980 /3403 11254 21290 37080 40640 52023 60002 70000 333 11199 21261 3/127 54415 58082 60001 70000 90720 91115=
0254527870999992023012318004+37200+102867FM-12+304499999V0203201N003019999999N030000199-01991-03421105221ADDAA106000091AA212000091AA324000091AY101021AY201021KA1120M-01961KA2120N-02611MA1999999070511MD1710231+9999MW1001OD139901501999REMSYN11852787 04980 /3203 11199 21342 37051 40522 57023 60002 70000 333 11196 21261 3/128 54405 58049 60001 70000 90720 91115=
0238527870999992023012321004+37200+102867FM-12+304499999V0202701N001019999999N030000199-01411-03831104521ADDAA106000091AA212000091AA324000091KA1240M-01401KA2240N-02611MA1999999070321MD1710191+9999MW1001OD139901301999REMSYN11852787 04980 /2701 11141 21383 37032 40452 57019 60002 700// 333 11140 21261 3/128 54407 58024 60001 70000 90720 91113=
0254527870999992023012400004+37200+102867FM-12+304499999V0201501N002019999999N030000199-01381-04001104531ADDAA106000091AA212000091AA324000091AY101021AY201021KA1120M-01251KA2120N-02611MA1999999070161MD1710161+9999MW1001OD139900701999REMSYN11852787 04980 /1502 11138 21400 37016 40453 57016 60002 70000 333 11125 21261 3/128 54401 58001 60001 70000 90720 91107=
0254527870999992023012403004+37200+102867FM-12+304499999V0203101N003019999999N030000199-00641-03421103571ADDAA106000091AA212000091AA324000091AY101021AY201021KA1240M-00641KA2240N-02611MA1999999070031MD1710131+9999MW1001OD139900701999REMSYN11852787 04980 /3103 11064 21342 37003 40357 57013 60002 70000 333 11064 21261 3/128 54404 59030 60001 70000 90720 91107=
0254527870999992023012406004+37200+102867FM-12+304499999V0201701N007019999999N030000199-00521-03441102811ADDAA106000091AA212000091AA324000091AY101021AY201021KA1240M-00501KA2240N-02611MA1999999069731MD1710301+9999MW1001OD139901001999REMSYN11852787 04980 /1707 11052 21344 36973 40281 57030 60002 70000 333 11050 21261 3/128 54404 59060 60001 70000 90720 91110=
0254527870999992023012409004+37200+102867FM-12+304499999V0201601N002019999999N030000199-00491-02921102331ADDAA106000091AA212000091AA324000091AY101021AY201021KA1240M-00461KA2240N-02611MA1999999069711MD1710021+9999MW1001OD139901001999REMSYN11852787 04980 /1602 11049 21292 36971 40233 57002 60002 70000 333 11046 21261 3/128 54404 59086 60001 70000 90720 91110=
0254527870999992023012412004+37200+102867FM-12+304499999V0203001N006019999999N030000199-01261-03331102911ADDAA106000091AA212000091AA324000091AY101021AY201021KA1240M-00441KA2240N-02611MA1999999069731MD1210021+9999MW1001OD139901001999REMSYN11852787 04980 /3006 11126 21333 36973 40291 52002 60002 70000 333 11044 21261 3/127 54403 59107 60001 70000 90720 91110=
0254527870999992023012418004+37200+102867FM-12+304499999V0201801N006019999999N030000199-01071-03471101891ADDAA106000091AA212000091AA324000091AY101021AY201021KA1120M-00441KA2120N-01991MA1999999069561MD1710131+9999MW1001OD139901001999REMSYN11852787 04980 /1806 11107 21347 36956 40189 57013 60002 70000 333 11044 21199 3/122 54409 59095 60001 70000 90720 91110=
0238527870999992023012421004+37200+102867FM-12+304499999V0203401N003019999999N030000199-00571-03161101431ADDAA106000091AA212000091AA324000091KA1240M-00441KA2240N-01521MA1999999069501MD1710061+9999MW1001OD139901001999REMSYN11852787 04980 /3403 11057 21316 36950 40143 57006 60002 700// 333 11044 21152 3/122 54408 59082 60001 70000 90720 91110=
0254527870999992023012500004+37200+102867FM-12+304499999V0203401N003019999999N029000199-01141-03371102361ADDAA106000091AA212000091AA324000091AY101021AY201021KA1120M-00441KA2120N-01741MA1999999069481MD1710021+9999MW1001OD139901001999REMSYN11852787 04979 /3403 11114 21337 36948 40236 57002 60002 70000 333 11044 21174 3/122 54405 59068 60001 70000 90720 91110=
0254527870999992023012503004+37200+102867FM-12+304499999V0203201N007019999999N030000199-01431-03291102571ADDAA106000091AA212000091AA324000091AY101021AY201021KA1240M-00441KA2240N-01891MA1999999069611MD1210131+9999MW1001OD139901001999REMSYN11852787 04980 /3207 11143 21329 36961 40257 52013 60002 70000 333 11044 21189 3/121 54418 59042 60001 70000 90720 91110=
0254527870999992023012506004+37200+102867FM-12+304499999V0203601N009019999999N029000199-00621-03401101831ADDAA106000091AA212000091AA324000091AY101021AY201021KA1240M-00441KA2240N-01891MA1999999069471MD1710141+9999MW1001OD139901801999REMSYN11852787 04979 /3609 11062 21340 36947 40183 57014 60002 70000 333 11044 21189 3/120 54415 59026 60001 70000 90720 91118=
0254527870999992023012509004+37200+102867FM-12+304499999V0203501N009019999999N030000199-01061-03301101901ADDAA106000091AA212000091AA324000091AY101021AY201021KA1240M-00441KA2240N-01891MA1999999069551MD1210081+9999MW1001OD139901801999REMSYN11852787 04980 /3509 11106 21330 36955 40190 52008 60002 70000 333 11044 21189 3/120 54416 59016 60001 70000 90720 91118=
0254527870999992023012512004+37200+102867FM-12+304499999V0203101N004019999999N030000199-01541-03331102952ADDAA106000091AA212000091AA324000091AY101021AY201021KA1240M-00521KA2240N-01891MA1999999069741MD1210191+9999MW1001OD139901801999REMSYN11852787 04980 /3104 11154 21333 36974 40295 52019 60002 70000 333 11052 21189 3/120 54415 58001 60001 70000 90720 91118=
0254527870999992023012518004+37200+102867FM-12+304499999V0203301N010019999999N030000199-01581-02951102671ADDAA106000091AA212000091AA324000091AY101021AY201021KA1120M-00521KA2120N-01891MA1999999069791MD1210011+9999MW1001OD139901401999REMSYN11852787 04980 /3310 11158 21295 36979 40267 52001 60002 70000 333 11052 21189 3/118 54415 58023 60001 70000 90720 91114=
0238527870999992023012521004+37200+102867FM-12+304499999V0203201N012019999999N030000199-01961-02881103381ADDAA106000091AA212000091AA324000091KA1240M-00521KA2240N-01961MA1999999069861MD1210071+9999MW1001OD139901501999REMSYN11852787 04980 /3212 11196 21288 36986 40338 52007 60002 700// 333 11052 21196 3/118 54414 58036 60001 70000 90720 91115=
0254527870999992023012600004+37200+102867FM-12+304499999V0200201N009019999999N030000199-01651-03041103841ADDAA106000091AA212000091AA324000091AY101021AY201021KA1120M-00581KA2120N-02001MA1999999070081MD1210221+9999MW1001OD139901501999REMSYN11852787 04980 /0209 11165 21304 37008 40384 52022 60002 70000 333 11058 21200 3/119 54415 58060 60001 70000 90720 91115=
0254527870999992023012603004+37200+102867FM-12+304499999V0203601N009019999999N030000199-01491-02831104081ADDAA106000091AA212000091AA324000091AY101021AY201021KA1240M-00581KA2240N-02001MA1999999070251MD1210171+9999MW1001OD139901501999REMSYN11852787 04980 /3609 11149 21283 37025 40408 52017 60002 70000 333 11058 21200 3/119 54415 58064 60001 70000 90720 91115=
0254527870999992023012606004+37200+102867FM-12+304499999V0203601N009019999999N030000199-01251-02731103641ADDAA106000091AA212000091AA324000091AY101021AY201021KA1240M-00581KA2240N-02001MA1999999070131MD1710121+9999MW1001OD139901501999REMSYN11852787 04980 /3609 11125 21273 37013 40364 57012 60002 70000 333 11058 21200 3/119 54416 58066 60001 70000 90720 91115=
0254527870999992023012609004+37200+102867FM-12+304499999V0203601N007019999999N030000199-01371-02661104281ADDAA106000091AA212000091AA324000091AY101021AY201021KA1240M-01051KA2240N-02001MA1999999070301MD1210171+9999MW1001OD139901501999REMSYN11852787 04980 /3607 11137 21266 37030 40428 52017 60002 70000 333 11105 21200 3/119 54415 58075 60001 70000 90720 91115=
0254527870999992023012612004+37200+102867FM-12+304499999V0203501N008019999999N030000199-01921-02601104801ADDAA106000091AA212000091AA324000091AY101021AY201021KA1240M-01201KA2240N-02001MA1999999070531MD1210231+9999MW1001OD139901401999REMSYN11852787 04980 /3508 11192 21260 37053 40480 52023 60002 70000 333 11120 21200 3/119 54415 58079 60001 70000 90720 91114=
0254527870999992023012618004+37200+102867FM-12+304499999V0203301N003019999999N030000199-01721-02941104531ADDAA106000091AA212000091AA324000091AY101021AY201021KA1120M-01201KA2120N-02161MA1999999070661MD1210011+9999MW1001OD139901401999REMSYN11852787 04980 /3303 11172 21294 37066 40453 52001 60002 70000 333 11120 21216 3/123 54415 58087 60001 70000 90720 91114=
0238527870999992023012621004+37200+102867FM-12+304499999V0201401N003019999999N030000199-01841-02851104581ADDAA106000091AA212000091AA324000091KA1240M-01201KA2240N-02161MA1999999070571MD1710091+9999MW1001OD139901201999REMSYN11852787 04980 /1403 11184 21285 37057 40458 57009 60002 700// 333 11120 21216 3/124 54405 58071 60001 70000 90720 91112=
0254527870999992023012700004+37200+102867FM-12+304499999V0201401N004019999999N030000199-01951-02801105061ADDAA106000091AA212000091AA324000091AY101021AY201021KA1120M-01201KA2120N-02161MA1999999070541MD1710031+9999MW1001OD139901201999REMSYN11852787 04980 /1404 11195 21280 37054 40506 57003 60002 70000 333 11120 21216 3/124 54415 58046 60001 70000 90720 91112=
0254527870999992023012703004+37200+102867FM-12+304499999V0203301N001019999999N030000199-00971-02851104431ADDAA106000091AA212000091AA324000091AY101021AY201021KA1240M-00971KA2240N-02161MA1999999070531MD1710011+9999MW1001OD139901001999REMSYN11852787 04980 /3301 11097 21285 37053 40443 57001 60002 70000 333 11097 21216 3/124 54405 58028 60001 70000 90720 91110=
0254527870999992023012706004+37200+102867FM-12+304499999V0203501N008019999999N029000199-00591-03381103532ADDAA106000091AA212000091AA324000091AY101021AY201021KA1240M-00501KA2240N-02161MA1999999070321MD1710211+9999MW1001OD139901001999REMSYN11852787 04979 /3508 11059 21338 37032 40353 57021 60002 70000 333 11050 21216 3/124 54407 58019 60001 70000 90720 91110=
0254527870999992023012709004+37200+102867FM-12+304499999V0203301N008019999999N029000199-00821-02901103811ADDAA106000091AA212000091AA324000091AY101021AY201021KA1240M-00501KA2240N-02161MA1999999070331MD1210011+9999MW1001OD139901201999REMSYN11852787 04979 /3308 11082 21290 37033 40381 52001 60002 70000 333 11050 21216 3/124 54406 58003 60001 70000 90720 91112=
0254527870999992023012712004+37200+102867FM-12+304499999V0201601N002019999999N030000199-01271-03011104491ADDAA106000091AA212000091AA324000091AY101021AY201021KA1240M-00501KA2240N-02161MA1999999070501MD1210171+9999MW1001OD139901201999REMSYN11852787 04980 /1602 11127 21301 37050 40449 52017 60002 70000 333 11050 21216 3/124 54407 59003 60001 70000 90720 91112=
0254527870999992023012718004+37200+102867FM-12+304499999V0201501N001019999999N030000199-01351-03341103391ADDAA106000091AA212000091AA324000091AY101021AY201021KA1120M-00501KA2120N-02111MA1999999070411MD1710051+9999MW1001OD139901201999REMSYN11852787 04980 /1501 11135 21334 37041 40339 57005 60002 70000 333 11050 21211 3/122 54405 59025 60001 70000 90720 91112=
0238527870999992023012721004+37200+102867FM-12+304499999V0203001N004019999999N030000199-01541-03771103651ADDAA106000091AA212000091AA324000091KA1240M-00501KA2240N-02111MA1999999070381MD1710031+9999MW1001OD139901001999REMSYN11852787 04980 /3004 11154 21377 37038 40365 57003 60002 700// 333 11050 21211 3/123 54405 59019 60001 70000 90720 91110=
0254527870999992023012800004+37200+102867FM-12+304499999V0203101N002019999999N030000199-01371-03711103821ADDAA106000091AA212000091AA324000091AY101021AY201021KA1120M-00501KA2120N-02011MA1999999070351MD1710031+9999MW1001OD139900701999REMSYN11852787 04980 /3102 11137 21371 37035 40382 57003 60002 70000 333 11050 21201 3/123 54406 59019 60001 70000 90720 91107=
0254527870999992023012803004+37200+102867FM-12+304499999V0201701N006019999999N030000199-00761-03221103501ADDAA106000091AA212000091AA324000091AY101021AY201021KA1240M-00501KA2240N-01691MA1999999070391MD1210041+9999MW1001OD139900801999REMSYN11852787 04980 /1706 11076 21322 37039 40350 52004 60002 70000 333 11050 21169 3/123 54405 59014 60001 70000 90720 91108=
0254527870999992023012806004+37200+102867FM-12+304499999V0203201N007019999999N029000199-00541-03231103131ADDAA106000091AA212000091AA324000091AY101021AY201021KA1240M-00501KA2240N-01691MA1999999070261MD1710131+9999MW1001OD139901101999REMSYN11852787 04979 /3207 11054 21323 37026 40313 57013 60002 70000 333 11050 21169 3/123 54405 59006 60001 70000 90720 91111=
0254527870999992023012809004+37200+102867FM-12+304499999V0203501N008019999999N029000199-00371-03621103191ADDAA106000091AA212000091AA324000091AY101021AY201021KA1240M-00261KA2240N-01691MA1999999070291MD1210031+9999MW1001OD139901101999REMSYN11852787 04979 /3508 11037 21362 37029 40319 52003 60002 70000 333 11026 21169 3/123 54405 59004 60001 70000 90720 91111=
0254527870999992023012812004+37200+102867FM-12+304499999V0200101N009019999999N030000199-00681-03571103531ADDAA106000091AA212000091AA324000091AY101021AY201021KA1240M-00261KA2240N-01691MA1999999070451MD1210161+9999MW1001OD139901201999REMSYN11852787 04980 /0109 11068 21357 37045 40353 52016 60002 70000 333 11026 21169 3/123 54406 59005 60001 70000 90720 91112=
0254527870999992023012818004+37200+102867FM-12+304499999V0203401N002019999999N030000199-00851-03481102961ADDAA106000091AA212000091AA324000091AY101021AY201021KA1120M-00261KA2120N-01691MA1999999070391MD1710081+9999MW1001OD139901401999REMSYN11852787 04980 /3402 11085 21348 37039 40296 57008 60002 70000 333 11026 21169 3/118 54405 59002 60001 70000 90720 91114=
0238527870999992023012821004+37200+102867FM-12+304499999V0201301N003019999999N030000199-01081-03121102841ADDAA106000091AA212000091AA324000091KA1240M-00261KA2240N-01551MA1999999070281MD1710111+9999MW1001OD139901401999REMSYN11852787 04980 /1303 11108 21312 37028 40284 57011 60002 700// 333 11026 21155 3/120 54405 59010 60001 70000 90720 91114=
0254527870999992023012900004+37200+102867FM-12+304499999V0201301N003019999999N030000199-01031-03141103041ADDAA106000091AA212000091AA324000091AY101021AY201021KA1120M-00261KA2120N-01391MA1999999070291MD1210011+9999MW1001OD139901401999REMSYN11852787 04980 /1303 11103 21314 37029 40304 52001 60002 70000 333 11026 21139 3/120 54405 59006 60001 70000 90720 91114=
0254527870999992023012903004+37200+102867FM-12+304499999V0203301N002019999999N029000199-00391-02831102851ADDAA106000091AA212000091AA324000091AY101021AY201021KA1240M-00231KA2240N-01281MA1999999070311MD1210021+9999MW1001OD139900801999REMSYN11852787 04979 /3302 11039 21283 37031 40285 52002 60002 70000 333 11023 21128 3/120 54405 59008 60001 70000 90720 91108=
0254527870999992023012906004+37200+102867FM-12+304499999V0203201N006019999999N028000199+00031-02901102151ADDAA106000091AA212000091AA324000091AY101021AY201021KA1240M+00051KA2240N-01281MA1999999070111MD1710201+9999MW1001OD139900901999REMSYN11852787 04978 /3206 10003 21290 37011 40215 57020 60002 70000 333 10005 21128 3/120 54406 59015 60001 70000 90720 91109=
0254527870999992023012909004+37200+102867FM-12+304499999V0203601N008019999999N029000199-00211-02971102631ADDAA106000091AA212000091AA324000091AY101021AY201021KA1240M+00091KA2240N-01281MA1999999070211MD1210101+9999MW1001OD139901401999REMSYN11852787 04979 /3608 11021 21297 37021 40263 52010 60002 70000 333 10009 21128 3/119 54405 59008 60001 70000 90720 91114=
0248527870999992023012912004+37200+102867FM-12+304499999V0201801N001019999999N030000199-00651-02971102991ADDAA106000091AA212000091AA324000091AY101021AY201021KA1240M+00091KA2240N-01211MA1999999070271MD1210061-0181MW1001OD139901401999REMSYN11252787 04980 /1801 11065 21297 37027 40299 52006 60002 70000 333 10009 21121 3/119 59018 60001 70000 90720 91114=
0248527870999992023012918004+37200+102867FM-12+304499999V0201601N006019999999N030000199-00831-02911102321ADDAA106000091AA212000091AA324000091AY101021AY201021KA1120M+00091KA2120N-01211MA1999999070241MD1710101-0151MW1001OD139901401999REMSYN11252787 04980 /1606 11083 21291 37024 40232 57010 60002 70000 333 10009 21121 3/118 59015 60001 70000 90720 91114=
0238527870999992023012921004+37200+102867FM-12+304499999V0201401N004019999999N030000199-00891-03021102451ADDAA106000091AA212000091AA324000091KA1240M+00091KA2240N-01211MA1999999070181MD1710061+9999MW1001OD139901101999REMSYN11852787 04980 /1404 11089 21302 37018 40245 57006 60002 700// 333 10009 21121 3/118 54405 59010 60001 70000 90720 91111=
0254527870999992023013000004+37200+102867FM-12+304499999V0201701N005019999999N030000199-00671-02911102501ADDAA106000091AA212000091AA324000091AY101021AY201021KA1120M+00091KA2120N-01111MA1999999070111MD1710071+9999MW1001OD139900801999REMSYN11852787 04980 /1705 11067 21291 37011 40250 57007 60002 70000 333 10009 21111 3/118 54405 59018 60001 70000 90720 91108=
0254527870999992023013003004+37200+102867FM-12+304499999V0201601N004019999999N029000199-00081-02871102111ADDAA106000091AA212000091AA324000091AY101021AY201021KA1240M+00091KA2240N-00971MA1999999070101MD1710011+9999MW1001OD139900801999REMSYN11852787 04979 /1604 11008 21287 37010 40211 57001 60002 70000 333 10009 21097 3/118 54405 59021 60001 70000 90720 91108=
0254527870999992023013006004+37200+102867FM-12+304499999V0202201N003019999999N021000199+00821-02741101282ADDAA106000091AA212000091AA324000091AY101021AY201021KA1240M+00821KA2240N-00971MA1999999069891MD1710211+9999MW1001OD139900801999REMSYN11852787 04971 /2203 10082 21274 36989 40128 57021 60002 70000 333 10082 21097 3/117 54408 59022 60001 70000 90720 91108=
0254527870999992023013009004+37200+102867FM-12+304499999V0203201N012019999999N027000199-00041-02641101831ADDAA106000091AA212000091AA324000091AY101021AY201021KA1240M+01021KA2240N-00971MA1999999069841MD1710051+9999MW1001OD139901601999REMSYN11852787 04977 /3212 11004 21264 36984 40183 57005 60002 70000 333 10102 21097 3/116 54405 59037 60001 70000 90720 91116=
0248527870999992023013012004+37200+102867FM-12+304499999V0203101N005019999999N030000199-00681-02851102401ADDAA106000091AA212000091AA324000091AY101021AY201021KA1240M+01021KA2240N-00971MA1999999070031MD1210191-0241MW1001OD139901601999REMSYN11252787 04980 /3105 11068 21285 37003 40240 52019 60002 70000 333 10102 21097 3/114 59024 60001 70000 90720 91116=
0254527870999992023013018004+37200+102867FM-12+304499999V0203301N003019999999N030000199-00241-03001101102ADDAA106000091AA212000091AA324000091AY101021AY201021KA1120M+01021KA2120N-00951MA1999999070041MD1710051+9999MW1001OD139901601999REMSYN11852787 04980 /3303 11024 21300 37004 40110 57005 60002 70000 333 10102 21095 3/115 54406 59020 60001 70000 90720 91116=
0238527870999992023013021004+37200+102867FM-12+304499999V0201501N002019999999N030000199-00291-02931101581ADDAA106000091AA212000091AA324000091KA1240M+01021KA2240N-00951MA1999999069951MD1710091+9999MW1001OD139901601999REMSYN11852787 04980 /1502 11029 21293 36995 40158 57009 60002 700// 333 10102 21095 3/116 54406 59023 60001 70000 90720 91116=
0254527870999992023013100004+37200+102867FM-12+304499999V0201501N005019999999N030000199-00721-02881102221ADDAA106000091AA212000091AA324000091AY101021AY201021KA1120M+01021KA2120N-00891MA1999999069881MD1710071+9999MW1001OD139901001999REMSYN11852787 04980 /1505 11072 21288 36988 40222 57007 60002 70000 333 10102 21089 3/116 54415 59023 60001 70000 90720 91110=
0254527870999992023013103004+37200+102867FM-12+304499999V0201601N010019999999N029000199-00181-02671101511ADDAA106000091AA212000091AA324000091AY101021AY201021KA1240M+01021KA2240N-00811MA1999999069901MD1210021+9999MW1001OD139901201999REMSYN11852787 04979 /1610 11018 21267 36990 40151 52002 60002 70000 333 10102 21081 3/116 54415 59020 60001 70000 90720 91112=
0254527870999992023013106004+37200+102867FM-12+304499999V0202101N003019999999N028000199+00201-02651101151ADDAA106000091AA212000091AA324000091AY101021AY201021KA1240M+01021KA2240N-00811MA1999999069791MD1710111+9999MW1001OD139901401999REMSYN11852787 04978 /2103 10020 21265 36979 40115 57011 60002 70000 333 10102 21081 3/116 54416 59010 60001 70000 90720 91114=
0254527870999992023013109004+37200+102867FM-12+304499999V0203301N010019999999N028000199-00651-02581101851ADDAA106000091AA212000091AA324000091AY101021AY201021KA1240M+00331KA2240N-00811MA1999999069851MD1210061+9999MW1001OD139901401999REMSYN11852787 04978 /3310 11065 21258 36985 40185 52006 60002 70000 333 10033 21081 3/115 54416 58001 60001 70000 90720 91114=
0254527870999992023013112004+37200+102867FM-12+304499999V0203501N009019999999N030000199-00911-02601102692ADDAA106000091AA212000091AA324000091AY101021AY201021KA1240M+00331KA2240N-01111MA1999999070091MD1210241+9999MW1001OD139901501999REMSYN11852787 04980 /3509 11091 21260 37009 40269 52024 60002 70000 333 10033 21111 3/112 54415 58006 60001 70000 90720 91115=
0254527870999992023013118004+37200+102867FM-12+304499999V0201401N003019999999N030000199-01131-02591102231ADDAA106000091AA212000091AA324000091AY101021AY201021KA1120M+00331KA2120N-01381MA1999999070111MD1710121+9999MW1001OD139901501999REMSYN11852787 04980 /1403 11113 21259 37011 40223 57012 60002 70000 333 10033 21138 3/117 54419 58007 60001 70000 90720 91115=
0238527870999992023013121004+37200+102867FM-12+304499999V0201301N012019999999N030000199-00971-02961102441ADDAA106000091AA212000091AA324000091KA1240M+00331KA2240N-01381MA1999999069921MD1710191+9999MW1001OD139901601999REMSYN11852787 04980 /1312 11097 21296 36992 40244 57019 60002 700// 333 10033 21138 3/117 54417 59003 60001 70000 90720 91116=
0254527870999992023020100004+37200+102867FM-12+304499999V0201601N004019999999N030000199-01391-02711102991ADDAA106000091AA212000091AA324000091AY101021AY201021KA1120M+00331KA2120N-01391MA1999999069961MD1210041+9999MW1001OD139901601999REMSYN11852787 04980 /1604 11139 21271 36996 40299 52004 60002 70000 333 10033 21139 3/117 54417 58008 60001 70000 90720 91116=
0254527870999992023020103004+37200+102867FM-12+304499999V0201601N010019999999N030000199-00991-02821103001ADDAA106000091AA212000091AA324000091AY101021AY201021KA1240M+00331KA2240N-01411MA1999999069971MD1210011+9999MW1001OD139901601999REMSYN11852787 04980 /1610 11099 21282 36997 40300 52001 60002 70000 333 10033 21141 3/117 54418 58007 60001 70000 90720 91116=
0254527870999992023020106004+37200+102867FM-12+304499999V0201701N007019999999N030000199-00801-02711102511ADDAA106000091AA212000091AA324000091AY101021AY201021KA1240M+00151KA2240N-01411MA1999999069821MD1710151+9999MW1001OD139901601999REMSYN11852787 04980 /1707 11080 21271 36982 40251 57015 60002 70000 333 10015 21141 3/116 54410 58003 60001 70000 90720 91116=
0254527870999992023020109004+37200+102867FM-12+304499999V0203201N004019999999N030000199-00951-02471102671ADDAA106000091AA212000091AA324000091AY101021AY201021KA1240M-00641KA2240N-01411MA1999999069931MD1210111+9999MW1001OD139901401999REMSYN11852787 04980 /3204 11095 21247 36993 40267 52011 60002 70000 333 11064 21141 3/116 54415 58008 60001 70000 90720 91114=
0254527870999992023020112004+37200+102867FM-12+304499999V0203101N002019999999N030000199-01181-02521103441ADDAA106000091AA212000091AA324000091AY101021AY201021KA1240M-00681KA2240N-01411MA1999999070131MD1210201+9999MW1001OD139901401999REMSYN11852787 04980 /3102 11118 21252 37013 40344 52020 60002 70000 333 11068 21141 3/116 54415 58004 60001 70000 90720 91114=
0248527870999992023020118004+37200+102867FM-12+304499999V0201801N004019999999N030000199-01161-02001103111ADDAA106000091AA212000091AA324000091AY101021AY201021KA1120M-00681KA2120N-01581MA1999999070211MD1210111+0101MW1001OD139901701999REMSYN11252787 04980 /1804 11116 21200 37021 40311 52011 60002 70000 333 11068 21158 3/117 58010 60001 70000 90720 91117=
0238527870999992023020121004+37200+102867FM-12+304499999V0201001N002019999999N030000199-00901-01991102841ADDAA106000091AA212000091AA324000091KA1240M-00681KA2240N-01581MA1999999070081MD1710131+9999MW1001OD139901701999REMSYN11852787 04980 /1002 11090 21199 37008 40284 57013 60002 700// 333 11068 21158 3/117 54405 58016 60001 70000 90720 91117=
0254527870999992023020200004+37200+102867FM-12+304499999V0201301N004019999999N030000199-00741-01791102861ADDAA106000091AA212000091AA324000091AY101021AY201021KA1120M-00621KA2120N-01581MA1999999070061MD1710021+9999MW1001OD139901701999REMSYN11852787 04980 /1304 11074 21179 37006 40286 57002 60002 70000 333 11062 21158 3/117 54407 58010 60001 70000 90720 91117=
0254527870999992023020203004+37200+102867FM-12+304499999V0203001N009019999999N028000199-00191-01981102291ADDAA106000091AA212000091AA324000091AY101021AY201021KA1240M-00191KA2240N-01581MA1999999070031MD1710031+9999MW1001OD139901701999REMSYN11852787 04978 /3009 11019 21198 37003 40229 57003 60002 70000 333 11019 21158 3/116 54408 58006 60001 70000 90720 91117=
0254527870999992023020206004+37200+102867FM-12+304499999V0202901N011019999999N026000199+00211-02541101831ADDAA106000091AA212000091AA324000091AY101021AY201021KA1240M+00211KA2240N-01581MA1999999069831MD1710201+9999MW1001OD139901901999REMSYN11852787 04976 /2911 10021 21254 36983 40183 57020 60002 70000 333 10021 21158 3/116 54400 58001 60001 70000 90720 91119=
0254527870999992023020209004+37200+102867FM-12+304499999V0200101N011019999999N030000199-00311-02481102101ADDAA106000091AA212000091AA324000091AY101021AY201021KA1240M+00211KA2240N-01581MA1999999069891MD1210061+9999MW1001OD139902201999REMSYN11852787 04980 /0111 11031 21248 36989 40210 52006 60002 70000 333 10021 21158 3/116 54406 59004 60001 70000 90720 91122=
0254527870999992023020212004+37200+102867FM-12+304499999V0200101N010019999999N029000199-00481-02281102341ADDAA106000091AA212000091AA324000091AY101021AY201021KA1240M+00211KA2240N-01581MA1999999070051MD1210161+9999MW1001OD139902201999REMSYN11852787 04979 /0110 11048 21228 37005 40234 52016 60002 70000 333 10021 21158 3/116 54407 59008 60001 70000 90720 91122=
0254527870999992023020218004+37200+102867FM-12+304499999V0200301N006019999999N030000199-00751-01941102001ADDAA106000091AA212000091AA324000091AY101021AY201021KA1120M+00211KA2120N-01211MA1999999070141MD1210021+9999MW1001OD139902201999REMSYN11852787 04980 /0306 11075 21194 37014 40200 52002 60002 70000 333 10021 21121 3/115 54405 59007 60001 70000 90720 91122=
0238527870999992023020221004+37200+102867FM-12+304499999V0203601N001019999999N030000199-01081-01991102491ADDAA106000091AA212000091AA324000091KA1240M+00211KA2240N-01211MA1999999070071MD1710071+9999MW1001OD139901601999REMSYN11852787 04980 /3601 11108 21199 37007 40249 57007 60002 700// 333 10021 21121 3/119 54415 59001 60001 70000 90720 91116=
0254527870999992023020300004+37200+102867FM-12+304499999V0201101N002019999999N030000199-01091-02111102711ADDAA106000091AA212000091AA324000091AY101021AY201021KA1120M+00211KA2120N-01211MA1999999070131MD1210061+9999MW1001OD139901601999REMSYN11852787 04980 /1102 11109 21211 37013 40271 52006 60002 70000 333 10021 21121 3/120 54415 58007 60001 70000 90720 91116=
0254527870999992023020303004+37200+102867FM-12+304499999V0201701N005019999999N029000199-00471-02051102531ADDAA106000091AA212000091AA324000091AY101021AY201021KA1240M+00211KA2240N-01211MA1999999070151MD1210021+9999MW1001OD139901101999REMSYN11852787 04979 /1705 11047 21205 37015 40253 52002 60002 70000 333 10021 21121 3/120 54415 58012 60001 70000 90720 91111=
0254527870999992023020306004+37200+102867FM-12+304499999V0202001N002019999999N028000199+00001-02031101941ADDAA106000091AA212000091AA324000091AY101021AY201021KA1240M+00211KA2240N-01211MA1999999070001MD1710151+9999MW1001OD139900901999REMSYN11852787 04978 /2002 10000 21203 37000 40194 57015 60002 70000 333 10021 21121 3/120 54415 58017 60001 70000 90720 91109=
0254527870999992023020309004+37200+102867FM-12+304499999V0203601N008019999999N030000199-00451-02031102611ADDAA106000091AA212000091AA324000091AY101021AY201021KA1240M+00021KA2240N-01211MA1999999070081MD1210081+9999MW1001OD139901301999REMSYN11852787 04980 /3608 11045 21203 37008 40261 52008 60002 70000 333 10002 21121 3/120 54415 58019 60001 70000 90720 91113=
0254527870999992023020312004+37200+102867FM-12+304499999V0203101N005019999999N030000199-01021-01991103262ADDAA106000091AA212000091AA324000091AY101021AY201021KA1240M+00021KA2240N-01211MA1999999070241MD1210161+9999MW1001OD139901301999REMSYN11852787 04980 /3105 11102 21199 37024 40326 52016 60002 70000 333 10002 21121 3/119 54415 58019 60001 70000 90720 91113=
0254527870999992023020318004+37200+102867FM-12+304499999V0201601N004019999999N030000199-01011-02151102411ADDAA106000091AA212000091AA324000091AY101021AY201021KA1120M+00021KA2120N-01141MA1999999070201MD1710071+9999MW1001OD139901301999REMSYN11852787 04980 /1604 11101 21215 37020 40241 57007 60002 70000 333 10002 21114 3/116 54415 58006 60001 70000 90720 91113=
0232527870999992023020321004+37200+102867FM-12+304499999V0201401N004019999999N030000199-01061-02221102551ADDAA106000091AA212000091AA324000091KA1240M+00021KA2240N-01111MA1999999070051MD1710151-0021MW1001OD139901101999REMSYN11252787 04980 /1404 11106 21222 37005 40255 57015 60002 700// 333 10002 21111 3/116 59002 60001 70000 90720 91111=
0248527870999992023020400004+37200+102867FM-12+304499999V0201401N005019999999N030000199-01051-02151102821ADDAA106000091AA212000091AA324000091AY101021AY201021KA1120M+00021KA2120N-01141MA1999999069961MD1710091-0171MW1001OD139900701999REMSYN11252787 04980 /1405 11105 21215 36996 40282 57009 60002 70000 333 10002 21114 3/117 59017 60001 70000 90720 91107=
0254527870999992023020403004+37200+102867FM-12+304499999V0201601N004019999999N029000199-00071-02041102141ADDAA106000091AA212000091AA324000091AY101021AY201021KA1240M+00021KA2240N-01141MA1999999069941MD1710021+9999MW1001OD139900701999REMSYN11852787 04979 /1604 11007 21204 36994 40214 57002 60002 70000 333 10002 21114 3/117 54405 59021 60001 70000 90720 91107=
0254527870999992023020406004+37200+102867FM-12+304499999V0201601N007019999999N027000199+00231-02171101541ADDAA106000091AA212000091AA324000091AY101021AY201021KA1240M+00251KA2240N-01141MA1999999069711MD1710231+9999MW1001OD139901101999REMSYN11852787 04977 /1607 10023 21217 36971 40154 57023 60002 70000 333 10025 21114 3/117 54405 59029 60001 70000 90720 91111=
0254527870999992023020409004+37200+102867FM-12+304499999V0203101N002019999999N025000199+00161-01961101591ADDAA106000091AA212000091AA324000091AY101021AY201021KA1240M+00371KA2240N-01141MA1999999069691MD1710021+9999MW1001OD139901101999REMSYN11852787 04975 /3102 10016 21196 36969 40159 57002 60002 70000 333 10037 21114 3/117 54406 59039 60001 70000 90720 91111=
0254527870999992023020412004+37200+102867FM-12+304499999V0200201N005019999999N029000199-00231-01921102121ADDAA106000091AA212000091AA324000091AY101021AY201021KA1240M+00371KA2240N-01141MA1999999069871MD1210181+9999MW1001OD139901101999REMSYN11852787 04979 /0205 11023 21192 36987 40212 52018 60002 70000 333 10037 21114 3/116 54408 59037 60001 70000 90720 91111=
0254527870999992023020418004+37200+102867FM-12+304499999V0203101N002019999999N030000199-00361-02041101491ADDAA106000091AA212000091AA324000091AY101021AY201021KA1120M+00371KA2120N-01141MA1999999069981MD1410001+9999MW1001OD139901101999REMSYN11852787 04980 /3102 11036 21204 36998 40149 54000 60002 70000 333 10037 21114 3/113 54407 59022 60001 70000 90720 91111=
0238527870999992023020421004+37200+102867FM-12+304499999V0203201N005019999999N030000199-00801-02081101731ADDAA106000091AA212000091AA324000091KA1240M+00371KA2240N-01141MA1999999069911MD1710071+9999MW1001OD139900901999REMSYN11852787 04980 /3205 11080 21208 36991 40173 57007 60002 700// 333 10037 21114 3/113 54405 59014 60001 70000 90720 91109=
0254527870999992023020500004+37200+102867FM-12+304499999V0203501N002019999999N030000199-00521-02011101811ADDAA106000091AA212000091AA324000091AY101021AY201021KA1120M+00371KA2120N-01131MA1999999069911MD1410001+9999MW1001OD139900601999REMSYN11852787 04980 /3502 11052 21201 36991 40181 54000 60002 70000 333 10037 21113 3/116 54405 59005 60001 70000 90720 91106=
0254527870999992023020503004+37200+102867FM-12+304499999V0203201N005019999999N029000199-00351-01981102001ADDAA106000091AA212000091AA324000091AY101021AY201021KA1240M+00371KA2240N-01011MA1999999069991MD1210081+9999MW1001OD139900801999REMSYN11852787 04979 /3205 11035 21198 36999 40200 52008 60002 70000 333 10037 21101 3/116 54415 58005 60001 70000 90720 91108=
0254527870999992023020506004+37200+102867FM-12+304499999V0203301N007019999999N027000199-00221-01911101551ADDAA106000091AA212000091AA324000091AY101021AY201021KA1240M+00371KA2240N-01011MA1999999069811MD1710181+9999MW1001OD139901001999REMSYN11852787 04977 /3307 11022 21191 36981 40155 57018 60002 70000 333 10037 21101 3/116 54415 58010 60001 70000 90720 91110=
0254527870999992023020509004+37200+102867FM-12+304499999V0203501N011019999999N029000199-00641-02121102181ADDAA106000091AA212000091AA324000091AY101021AY201021KA1240M+00211KA2240N-01011MA1999999069831MD1210021+9999MW1001OD139901601999REMSYN11852787 04979 /3511 11064 21212 36983 40218 52002 60002 70000 333 10021 21101 3/116 54418 58014 60001 70000 90720 91116=
0254527870999992023020512004+37200+102867FM-12+304499999V0203601N009019999999N030000199-01061-02081102571ADDAA106000091AA212000091AA324000091AY101021AY201021KA1240M-00111KA2240N-01061MA1999999070031MD1210201+9999MW1001OD139901601999REMSYN11852787 04980 /3609 11106 21208 37003 40257 52020 60002 70000 333 11011 21106 3/116 54418 58016 60001 70000 90720 91116=
0254527870999992023020518004+37200+102867FM-12+304499999V0201401N003019999999N029000199-01121-02111102371ADDAA106000091AA212000091AA324000091AY101021AY201021KA1120M-00111KA2120N-01381MA1999999070011MD1710081+9999MW1001OD139901601999REMSYN11852787 04979 /1403 11112 21211 37001 40237 57008 60002 70000 333 11011 21138 3/117 54418 58003 60001 70000 90720 91116=
0238527870999992023020521004+37200+102867FM-12+304499999V0201401N006019999999N030000199-01191-02101102541ADDAA106000091AA212000091AA324000091KA1240M-00111KA2240N-01381MA1999999069891MD1710121+9999MW1001OD139901501999REMSYN11852787 04980 /1406 11119 21210 36989 40254 57012 60002 700// 333 11011 21138 3/117 54415 59002 60001 70000 90720 91115=
0254527870999992023020600004+37200+102867FM-12+304499999V0203501N006019999999N030000199-00731-02201102501ADDAA106000091AA212000091AA324000091AY101021AY201021KA1120M-00111KA2120N-01381MA1999999069881MD1710011+9999MW1001OD139901101999REMSYN11852787 04980 /3506 11073 21220 36988 40250 57001 60002 70000 333 11011 21138 3/118 54415 59003 60001 70000 90720 91111=
0248527870999992023020603004+37200+102867FM-12+304499999V0200101N008019999999N028000199-00321-02301102481ADDAA106000091AA212000091AA324000091AY101021AY201021KA1240M-00131KA2240N-01381MA1999999069951MD1210071-0041MW1001OD139901201999REMSYN11252787 04978 /0108 11032 21230 36995 40248 52007 60002 70000 333 11013 21138 3/118 59004 60001 70000 90720 91112=
0248527870999992023020606004+37200+102867FM-12+304499999V0203601N008019999999N029000199-00231-02231102131ADDAA106000091AA212000091AA324000091AY101021AY201021KA1240M-00061KA2240N-01381MA1999999069841MD1710111+0031MW1001OD139901201999REMSYN11252787 04979 /3608 11023 21223 36984 40213 57011 60002 70000 333 11006 21138 3/118 58003 60001 70000 90720 91112=
0254527870999992023020609004+37200+102867FM-12+304499999V0203601N010019999999N029000199-00421-02131102361ADDAA106000091AA212000091AA324000091AY101021AY201021KA1240M-00061KA2240N-01381MA1999999069871MD1210031+9999MW1001OD139901301999REMSYN11852787 04979 /3610 11042 21213 36987 40236 52003 60002 70000 333 11006 21138 3/118 54405 58004 60001 70000 90720 91113=
0254527870999992023020612004+37200+102867FM-12+304499999V0203301N004019999999N030000199-00751-02251102611ADDAA106000091AA212000091AA324000091AY101021AY201021KA1240M-00061KA2240N-01381MA1999999070111MD1210241+9999MW1001OD139901401999REMSYN11852787 04980 /3304 11075 21225 37011 40261 52024 60002 70000 333 11006 21138 3/115 54405 58008 60001 70000 90720 91114=
0254527870999992023020618004+37200+102867FM-12+304499999V0200701N001019999999N030000199-00701-01671102151ADDAA106000091AA212000091AA324000091AY101021AY201021KA1120M-00061KA2120N-01261MA1999999070061MD1710091+9999MW1001OD139901401999REMSYN11852787 04980 /0701 11070 21167 37006 40215 57009 60002 70000 333 11006 21126 3/115 54405 58005 60001 70000 90720 91114=
0238527870999992023020621004+37200+102867FM-12+304499999V0201601N003019999999N030000199-00901-01851102371ADDAA106000091AA212000091AA324000091KA1240M-00061KA2240N-01261MA1999999070021MD1710041+9999MW1001OD139901401999REMSYN11852787 04980 /1603 11090 21185 37002 40237 57004 60002 700// 333 11006 21126 3/116 54405 58013 60001 70000 90720 91114=
0254527870999992023020700004+37200+102867FM-12+304499999V0201701N005019999999N030000199-00981-02061102631ADDAA106000091AA212000091AA324000091AY101021AY201021KA1120M-00061KA2120N-01061MA1999999070001MD1710021+9999MW1001OD139900701999REMSYN11852787 04980 /1705 11098 21206 37000 40263 57002 60002 70000 333 11006 21106 3/118 54415 58012 60001 70000 90720 91107=
0254527870999992023020703004+37200+102867FM-12+304499999V0201601N006019999999N029000199-00221-02011101971ADDAA106000091AA212000091AA324000091AY101021AY201021KA1240M-00061KA2240N-01061MA1999999069991MD1710011+9999MW1001OD139900801999REMSYN11852787 04979 /1606 11022 21201 36999 40197 57001 60002 70000 333 11006 21106 3/118 54405 58004 60001 70000 90720 91108=
0254527870999992023020706004+37200+102867FM-12+304499999V0201401N010019999999N029000199+00111-02351101601ADDAA106000091AA212000091AA324000091AY101021AY201021KA1240M+00131KA2240N-01061MA1999999069841MD1710151+9999MW1001OD139901601999REMSYN11852787 04979 /1410 10011 21235 36984 40160 57015 60002 70000 333 10013 21106 3/118 54405 58000 60001 70000 90720 91116=
0254527870999992023020709004+37200+102867FM-12+304499999V0203601N010019999999N029000199-00501-02031102221ADDAA106000091AA212000091AA324000091AY101021AY201021KA1240M+00211KA2240N-01061MA1999999069881MD1210041+9999MW1001OD139901601999REMSYN11852787 04979 /3610 11050 21203 36988 40222 52004 60002 70000 333 10021 21106 3/118 54415 58001 60001 70000 90720 91116=
0248527870999992023020712004+37200+102867FM-12+304499999V0200101N008019999999N030000199-00761-02081102701ADDAA106000091AA212000091AA324000091AY101021AY201021KA1240M+00211KA2240N-01061MA1999999070041MD1210161-0071MW1001OD139901601999REMSYN11252787 04980 /0108 11076 21208 37004 40270 52016 60002 70000 333 10021 21106 3/116 59007 60001 70000 90720 91116=
0254527870999992023020718004+37200+102867FM-12+304499999V0203201N006019999999N030000199-01001-01901102011ADDAA106000091AA212000091AA324000091AY101021AY201021KA1120M+00211KA2120N-01061MA1999999069981MD1710081+9999MW1001OD139901401999REMSYN11852787 04980 /3206 11100 21190 36998 40201 57008 60002 70000 333 10021 21106 3/111 54415 59008 60001 70000 90720 91114=
0261527870999992023020721004+37200+102867FM-12+304499999V0203501N008019999999N030000199-01131-01411102361ADDAA106000231AA212000231AA324000231AJ100013100010099KA1240M+00211KA2240N-01171MA1999999069861MD1710121+9999MW1741OD139901401999REMSYN12452787 04980 /3508 11113 21141 36986 40236 57012 69922 774// 333 10021 21117 3/111 4/001 54415 59016 69921 70002 90720 91114=
0277527870999992023020800004+37200+102867FM-12+304499999V0203401N007019999999N030000199-01231-01391102631ADDAA106000431AA212000431AA324000431AJ100023100020099AY101021AY201021KA1120M+00211KA2120N-01231MA1999999069871MD1210011+9999MW1741OD139901301999REMSYN12452787 04980 /3407 11123 21139 36987 40263 52001 69942 77400 333 10021 21123 3/111 4/002 54415 59013 69941 70004 90720 91113=
0277527870999992023020803004+37200+102867FM-12+304499999V0203501N007019999999N030000199-01161-01481102791ADDAA106000731AA212000931AA324000931AJ100043100040099AY101021AY201021KA1240M+00211KA2240N-01361MA1999999069911MD1210041+9999MW1741OD139901101999REMSYN12452787 04980 /3507 11116 21148 36991 40279 52004 69992 77400 333 10021 21136 3/110 4/004 54419 59008 69971 70009 90720 91111=
0277527870999992023020806004+37200+102867FM-12+304499999V0200101N010019999999N030000199-01071-01511102591ADDAA106000931AA212001031AA324001331AJ100033100030099AY101021AY201021KA1240M+00211KA2240N-01361MA1999999069801MD1710111+9999MW1741OD139901401999REMSYN12452787 04980 /0110 11107 21151 36980 40259 57011 60012 77400 333 10021 21136 3/110 4/003 54412 59004 69991 70013 90720 91114=
0277527870999992023020809004+37200+102867FM-12+304499999V0203101N008019999999N030000199-01091-01271102831ADDAA106001031AA212002031AA324002031AJ100033100030099AY101021AY201021KA1240M-00491KA2240N-01361MA1999999069891MD1210091+9999MW1741OD139901701999REMSYN12452787 04980 /3108 11109 21127 36989 40283 52009 60022 77400 333 11049 21136 3/108 4/003 54416 58001 60011 70020 90720 91117=
0277527870999992023020812004+37200+102867FM-12+304499999V0203601N012019999999N030000199-00841-01961102851ADDAA106000091AA212000931AA324001331AJ100023100020099AY101021AY201021KA1240M-00751KA2240N-01361MA1999999069981MD1210091+9999MW1001OD139901701999REMSYN12452787 04980 /3612 11084 21196 36998 40285 52009 69992 70000 333 11075 21136 3/107 4/002 54415 59006 60001 70013 90720 91117=
0312527870999992023020818004+37200+102867FM-12+304499999V0200101N007019999999N030000199-01091-01601102901ADDAA106999999AA212999999AA324001331AJ100023100020099AY101021AY201021KA1120M-00831KA2120N-01361MA1999999069971MD1710121+9999MW1221OD139901701999REMSYN12452787 04980 /0107 11109 21160 36997 40290 57012 60002 72200 333 11083 21136 3/109 4/002 54415 59001 60001 70013 90720 91117=EQDQ01  00002PRCP06Q02  00002PRCP12
0261527870999992023020821004+37200+102867FM-12+304499999V0201501N005019999999N030000199-01491-01721102981ADDAA106000091AA212000091AA324001131AJ100023100020099KA1240M-00831KA2240N-01531MA1999999069811MD1710161+9999MW1001OD139901601999REMSYN12452787 04980 /1505 11149 21172 36981 40298 57016 60002 700// 333 11083 21153 3/112 4/002 54415 59005 60001 70011 90720 91116=
0312527870999992023020900004+37200+102867FM-12+304499999V0201601N004019999999N030000199-01461-01641102671ADDAA106999999AA212999999AA324000931AJ100023100020099AY101021AY201021KA1120M-00831KA2120N-01621MA1999999069741MD1710071+9999MW1221OD139901601999REMSYN12452787 04980 /1604 11146 21164 36974 40267 57007 60002 72200 333 11083 21162 3/112 4/002 54415 59013 60001 70009 90720 91116=EQDQ01  00002PRCP06Q02  00002PRCP12
0277527870999992023020903004+37200+102867FM-12+304499999V0202901N007019999999N029000199-00611-02441102301ADDAA106000091AA212000091AA324000431AJ100023100020099AY101021AY201021KA1240M-00611KA2240N-01621MA1999999069811MD1210071+9999MW1001OD139901501999REMSYN12452787 04979 /2907 11061 21244 36981 40230 52007 60002 70000 333 11061 21162 3/113 4/002 54406 59010 60001 70004 90720 91115=
0277527870999992023020906004+37200+102867FM-12+304499999V0203001N007019999999N029000199-00251-02241101891ADDAA106000091AA212000091AA324000091AJ100013100010099AY101021AY201021KA1240M-00241KA2240N-01621MA1999999069681MD1710131+9999MW1001OD139901301999REMSYN12452787 04979 /3007 11025 21224 36968 40189 57013 60002 70000 333 11024 21162 3/113 4/001 54408 59012 60001 70000 90720 91113=
0277527870999992023020909004+37200+102867FM-12+304499999V0203501N004019999999N029000199-00101-02121102081ADDAA106000091AA212000091AA324000091AJ100013100010099AY101021AY201021KA1240M+00011KA2240N-01621MA1999999069691MD1210011+9999MW1001OD139901501999REMSYN12452787 04979 /3504 11010 21212 36969 40208 52001 60002 70000 333 10001 21162 3/113 4/001 54400 59020 60001 70000 90720 91115=
