0254583380999992023010100004+31150+118583FM-12+001699999V0200601N002019999999N007000199+00491-00051103191ADDAA106000091AA212000091AA324000091AY101021AY201021KA1120M+01021KA2120N-00281MA1999999102671MD1210151+9999MW1001OD139900501999REMSYN11858338 04957 /0602 10049 21005 30267 40319 52015 60002 70000 333 10102 21028 3/003 54408 59019 60001 70000 90720 91105=
0254583380999992023010103004+31150+118583FM-12+001699999V0200701N003019999999N008000199+00791-00241103221ADDAA106000091AA212000091AA324000091AY101021AY201021KA1240M+01021KA2240N+00461MA1999999102701MD1210031+9999MW1001OD139900501999REMSYN11858338 04958 /0703 10079 21024 30270 40322 52003 60002 70000 333 10102 20046 3/003 54405 59023 60001 70000 90720 91105=
0254583380999992023010106004+31150+118583FM-12+001699999V0200401N002019999999N007000199+00801+00001103001ADDAA106000091AA212000091AA324000091AY101021AY201021KA1240M+01021KA2240N+00461MA1999999102481MD1710221+9999MW1001OD139900501999REMSYN11858338 04957 /0402 10080 20000 30248 40300 57022 60002 70000 333 10102 20046 3/003 54415 59017 60001 70000 90720 91105=
0254583380999992023010109004+31150+118583FM-12+001699999V0200201N002019999999N008000199+00801-00101103131ADDAA106000091AA212000091AA324000091AY101021AY201021KA1240M+00881KA2240N+00461MA1999999102611MD1210131+9999MW1001OD139900501999REMSYN11858338 04958 /0202 10080 21010 30261 40313 52013 60002 70000 333 10088 20046 3/004 54415 59004 60001 70000 90720 91105=
0254583380999992023010112004+31150+118583FM-12+001699999V0200601N002019999999N008000199+00701-00141103201ADDAA106000091AA212000091AA324000091AY101021AY201021KA1240M+00871KA2240N+00461MA1999999102681MD1210071+9999MW1001OD139900501999REMSYN11858338 04958 /0602 10070 21014 30268 40320 52007 60002 70000 333 10087 20046 3/004 54405 59005 60001 70000 90720 91105=
0254583380999992023010118004+31150+118583FM-12+001699999V0200601N002019999999N010000199+00611-00041103341ADDAA106000091AA212000091AA324000091AY101021AY201021KA1120M+00871KA2120N+00461MA1999999102821MD1710061+9999MW1001OD139900501999REMSYN11858338 04960 /0602 10061 21004 30282 40334 57006 60002 70000 333 10087 20046 3/005 54405 58028 60001 70000 90720 91105=
0238583380999992023010121004+31150+118583FM-12+001699999V0200701N003019999999N005000199+00611+00081103301ADDAA106000091AA212000091AA324000091KA1240M+00871KA2240N+00461MA1999999102781MD1710041+9999MW1051OD139900501999REMSYN11858338 04950 /0703 10061 20008 30278 40330 57004 60002 705// 333 10087 20046 3/005 54405 58026 60001 70000 90720 91105=
0305583380999992023010200004+31150+118583FM-12+001699999V0201101N002019999999N005000199+00571+00181103391ADDAA106999999AA212999999AA324999999AY101021AY201021KA1120M+00871KA2120N+00481MA1999999102871MD1210091+9999MW1601OD139900501999REMSYN11858338 04950 /1102 10057 20018 30287 40339 52009 60002 76000 333 10087 20048 3/005 54405 58020 60001 70000 90720 91105=EQDQ01  00002PRCP06Q02  00002PRCP12Q03  00002PRCP24
0248583380999992023010203004+31150+118583FM-12+001699999V0201101N002019999999N005000199+00761+00081103511ADDAA106000021AA212000021AA324000021AY101021AY201021KA1240M+00871KA2240N+00561MA1999999102991MD1210121+0291MW1051OD139900501999REMSYN11258338 04950 /1102 10076 20008 30299 40351 52012 69902 70500 333 10087 20056 3/005 58029 69901 79999 90720 91105=
0248583380999992023010206004+31150+118583FM-12+001699999V0200401N001019999999N005000199+00801+00051103301ADDAA106000091AA212000021AA324000021AY101021AY201021KA1240M+00831KA2240N+00561MA1999999102781MD1710211+0301MW1051OD139900501999REMSYN11258338 04950 /0401 10080 20005 30278 40330 57021 69902 70500 333 10083 20056 3/005 58030 60001 79999 90720 91105=
0254583380999992023010209004+31150+118583FM-12+001699999V0202101N002019999999N005000199+00711+00221103321ADDAA106000091AA212000021AA324000021AY101021AY201021KA1240M+00831KA2240N+00561MA1999999102801MD1210021+9999MW1101OD139900401999REMSYN11858338 04950 /2102 10071 20022 30280 40332 52002 69902 71000 333 10083 20056 3/005 54415 58019 60001 79999 90720 91104=
0254583380999992023010212004+31150+118583FM-12+001699999V0201601N001019999999N005000199+00521+00191103411ADDAA106000091AA212000091AA324000021AY101021AY201021KA1240M+00831KA2240N+00521MA1999999102891MD1210091+9999MW1101OD139900401999REMSYN11858338 04950 /1601 10052 20019 30289 40341 52009 60002 71000 333 10083 20052 3/005 54415 58021 60001 79999 90720 91104=
0254583380999992023010218004+31150+118583FM-12+001699999V0201501N001019999999N003100199+00371+00211103411ADDAA106000091AA212000091AA324000021AY101021AY201021KA1120M+00831KA2120N+00371MA1999999102891MD1710041+9999MW1101OD139900401999REMSYN11858338 04931 /1501 10037 20021 30289 40341 57004 60002 71000 333 10083 20037 3/002 54415 58007 60001 79999 90720 91104=
0238583380999992023010221004+31150+118583FM-12+001699999V0201301N001019999999N002700199+00331+00211103351ADDAA106000091AA212000091AA324000021KA1240M+00831KA2240N+00311MA1999999102831MD1710061+9999MW1101OD139900401999REMSYN11858338 04927 /1301 10033 20021 30283 40335 57006 60002 710// 333 10083 20031 3/002 54415 58005 60001 79999 90720 91104=
0254583380999992023010300004+31150+118583FM-12+001699999V0200801N002019999999N001000199+00221+00161103441ADDAA106000091AA212000091AA324000091AY101021AY201021KA1120M+00831KA2120N+00201MA1999999102921MD1210091+9999MW1101OD139900201999REMSYN11858338 04910 /0802 10022 20016 30292 40344 52009 60002 71000 333 10083 20020 3/100 54415 58005 60001 70000 90720 91102=
0273583380999992023010303004+31150+118583FM-12+001699999V0201101N003019999999N006000199+00811+00281103421ADDAA106000091AA212000091AA324000091AY101021AY201021KA1240M+00831KA2240N+00201MA1999999102901MD1710021+9999MW1101OD139900601999REMSYN11858338 04956 /1103 10081 20028 30290 40342 57002 60002 71000 333 10083 20020 3/100 54405 59009 60001 79999 90720 91106=EQDQ01  00002PRCP24
0273583380999992023010306004+31150+118583FM-12+001699999V0200901N002019999999N011000199+00981+00041103171ADDAA106000091AA212000091AA324000091AY101021AY201021KA1240M+01001KA2240N+00201MA1999999102651MD1710251+9999MW1001OD139900701999REMSYN11858338 04961 /0902 10098 20004 30265 40317 57025 60002 70000 333 10100 20020 3/100 54405 59013 60001 79999 90720 91107=EQDQ01  00002PRCP24
0254583380999992023010309004+31150+118583FM-12+001699999V0201001N001019999999N010000199+00841+00111103121ADDAA106000091AA212000091AA324000091AY101021AY201021KA1240M+01011KA2240N+00201MA1999999102601MD1710051+9999MW1001OD139900701999REMSYN11858338 04960 /1001 10084 20011 30260 40312 57005 60002 70000 333 10101 20020 3/100 54405 59020 60001 70000 90720 91107=
0254583380999992023010312004+31150+118583FM-12+001699999V0200601N001019999999N006000199+00291+00061103171ADDAA106000091AA212000091AA324000091AY101021AY201021KA1240M+01011KA2240N+00201MA1999999102651MD1210051+9999MW1101OD139900701999REMSYN11858338 04956 /0601 10029 20006 30265 40317 52005 60002 71000 333 10101 20020 3/001 54415 59024 60001 70000 90720 91107=
0254583380999992023010318004+31150+118583FM-12+001699999V0201201N002019999999N011000199+00041-00211103131ADDAA106000091AA212000091AA324000091AY101021AY201021KA1120M+01011KA2120N+00031MA1999999102611MD1710061+9999MW1001OD139900501999REMSYN11858338 04961 /1202 10004 21021 30261 40313 57006 60002 70000 333 10101 20003 3/102 54415 59028 60001 70000 90720 91105=
0238583380999992023010321004+31150+118583FM-12+001699999V0201101N001019999999N003400199-00061-00141103071ADDAA106000091AA212000091AA324000091KA1240M+01011KA2240N-00081MA1999999102551MD1710061+9999MW1101OD139900301999REMSYN11858338 04934 /1101 11006 21014 30255 40307 57006 60002 710// 333 10101 21008 3/103 54415 59028 60001 70000 90720 91103=
0254583380999992023010400004+31150+118583FM-12+001699999V0201101N001019999999N002800199+00071+00001103161ADDAA106000091AA212000091AA324000091AY101021AY201021KA1120M+01011KA2120N-00081MA1999999102631MD1210081+9999MW1101OD139900301999REMSYN11858338 04928 /1101 10007 20000 30263 40316 52008 60002 71000 333 10101 21008 3/103 54415 59029 60001 70000 90720 91103=
0248583380999992023010403004+31150+118583FM-12+001699999V0201101N003019999999N008000199+00771+00091103141ADDAA106000091AA212000091AA324000091AY101021AY201021KA1240M+01011KA2240N-00081MA1999999102621MD1710011-0281MW1001OD139900501999REMSYN11258338 04958 /1103 10077 20009 30262 40314 57001 60002 70000 333 10101 21008 3/103 59028 60001 70000 90720 91105=
0254583380999992023010406004+31150+118583FM-12+001699999V0201001N003019999999N013000199+01111-00421102821ADDAA106000091AA212000091AA324000091AY101021AY201021KA1240M+01111KA2240N-00081MA1999999102301MD1710321+9999MW1001OD139900701999REMSYN11858338 04963 /1003 10111 21042 30230 40282 57032 60002 70000 333 10111 21008 3/103 54405 59035 60001 70000 90720 91107=
0254583380999992023010409004+31150+118583FM-12+001699999V0201001N002019999999N014000199+01031-00021102781ADDAA106000091AA212000091AA324000091AY101021AY201021KA1240M+01181KA2240N-00081MA1999999102261MD1710041+9999MW1001OD139900701999REMSYN11858338 04964 /1002 10103 21002 30226 40278 57004 60002 70000 333 10118 21008 3/103 54405 59034 60001 70000 90720 91107=
0254583380999992023010412004+31150+118583FM-12+001699999V0201101N005019999999N013000199+00901-00231102801ADDAA106000091AA212000091AA324000091AY101021AY201021KA1240M+01181KA2240N-00081MA1999999102281MD1210021+9999MW1001OD139900901999REMSYN11858338 04963 /1105 10090 21023 30228 40280 52002 60002 70000 333 10118 21008 3/101 54406 59037 60001 70000 90720 91109=
0254583380999992023010418004+31150+118583FM-12+001699999V0201101N002019999999N012000199+00671-00011102911ADDAA106000091AA212000091AA324000091AY101021AY201021KA1120M+01181KA2120N-00081MA1999999102401MD1210041+9999MW1001OD139900901999REMSYN11858338 04962 /1102 10067 21001 30240 40291 52004 60002 70000 333 10118 21008 3/006 54406 59021 60001 70000 90720 91109=
0238583380999992023010421004+31150+118583FM-12+001699999V0201101N001019999999N007000199+00601+00151102811ADDAA106000091AA212000091AA324000091KA1240M+01181KA2240N-00061MA1999999102301MD1710101+9999MW1001OD139900901999REMSYN11858338 04957 /1101 10060 20015 30230 40281 57010 60002 700// 333 10118 21006 3/005 54407 59025 60001 70000 90720 91109=
0254583380999992023010500004+31150+118583FM-12+001699999V0209999C000059999999N005000199+00541+00241103001ADDAA106000091AA212000091AA324000091AY101021AY201021KA1120M+01181KA2120N+00071MA1999999102491MD1210191+9999MW1101OD139900801999REMSYN11858338 04950 /3600 10054 20024 30249 40300 52019 60002 71000 333 10118 20007 3/002 54405 59014 60001 70000 90720 91108=
0254583380999992023010503004+31150+118583FM-12+001699999V0202301N001019999999N008000199+00981+00091103051ADDAA106000091AA212000091AA324000091AY101021AY201021KA1240M+01181KA2240N+00451MA1999999102541MD1210051+9999MW1001OD139900501999REMSYN11858338 04958 /2301 10098 20009 30254 40305 52005 60002 70000 333 10118 20045 3/002 54405 59008 60001 70000 90720 91105=
0248583380999992023010506004+31150+118583FM-12+001699999V0203001N001019999999N008000199+01101+00101102831ADDAA106000091AA212000091AA324000091AY101021AY201021KA1240M+01181KA2240N+00451MA1999999102321MD1710221+0021MW1001OD139900301999REMSYN11258338 04958 /3001 10110 20010 30232 40283 57022 60002 70000 333 10118 20045 3/002 58002 60001 70000 90720 91103=
0248583380999992023010509004+31150+118583FM-12+001699999V0203201N001019999999N008000199+01001+00111102831ADDAA106000091AA212000091AA324000091AY101021AY201021KA1240M+01141KA2240N+00451MA1999999102321MD1410001+0061MW1001OD139900301999REMSYN11258338 04958 /3201 10100 20011 30232 40283 54000 60002 70000 333 10114 20045 3/002 58006 60001 70000 90720 91103=
0248583380999992023010512004+31150+118583FM-12+001699999V0202701N001019999999N006000199+00881+00171102951ADDAA106000091AA212000091AA324000091AY101021AY201021KA1240M+01141KA2240N+00451MA1999999102441MD1210121+0161MW1051OD139900301999REMSYN11258338 04956 /2701 10088 20017 30244 40295 52012 60002 70500 333 10114 20045 3/006 58016 60001 70000 90720 91103=
0248583380999992023010518004+31150+118583FM-12+001699999V0202401N002019999999N003800199+00651+00331102951ADDAA106000091AA212000091AA324000091AY101021AY201021KA1120M+01141KA2120N+00451MA1999999102441MD1710011+0041MW1101OD139900201999REMSYN11258338 04938 /2402 10065 20033 30244 40295 57001 60002 71000 333 10114 20045 3/004 58004 60001 70000 90720 91102=
0238583380999992023010521004+31150+118583FM-12+001699999V0202401N002019999999N002900199+00451+00271102881ADDAA106000091AA212000091AA324000091KA1240M+01141KA2240N+00451MA1999999102371MD1710071+9999MW1101OD139900301999REMSYN11858338 04929 /2402 10045 20027 30237 40288 57007 60002 710// 333 10114 20045 3/002 54415 58007 60001 70000 90720 91103=
0254583380999992023010600004+31150+118583FM-12+001699999V0202701N002019999999N002500199+00421+00271103001ADDAA106000091AA212000091AA324000091AY101021AY201021KA1120M+01141KA2120N+00351MA1999999102481MD1210111+9999MW1101OD139900301999REMSYN11858338 04925 /2702 10042 20027 30248 40300 52011 60002 71000 333 10114 20035 3/001 54415 59001 60001 70000 90720 91103=
0254583380999992023010603004+31150+118583FM-12+001699999V0202601N003019999999N005000199+01201+00251102811ADDAA106000091AA212000091AA324000091AY101021AY201021KA1240M+01201KA2240N+00351MA1999999102301MD1710181+9999MW1051OD139900801999REMSYN11858338 04950 /2603 10120 20025 30230 40281 57018 60002 70500 333 10120 20035 3/001 54405 59024 60001 70000 90720 91108=
0254583380999992023010606004+31150+118583FM-12+001699999V0202801N005019999999N013000199+01611-00061102531ADDAA106000091AA212000091AA324000091AY101021AY201021KA1240M+01621KA2240N+00351MA1999999102031MD1710271+9999MW1001OD139901001999REMSYN11858338 04963 /2805 10161 21006 30203 40253 57027 60002 70000 333 10162 20035 3/001 54405 59029 60001 70000 90720 91110=
0254583380999992023010609004+31150+118583FM-12+001699999V0202701N003019999999N010000199+01411+00111102461ADDAA106000091AA212000091AA324000091AY101021AY201021KA1240M+01661KA2240N+00351MA1999999101951MD1710081+9999MW1001OD139901201999REMSYN11858338 04960 /2703 10141 20011 30195 40246 57008 60002 70000 333 10166 20035 3/001 54405 59037 60001 70000 90720 91112=
0254583380999992023010612004+31150+118583FM-12+001699999V0202501N002019999999N008000199+01011+00121102561ADDAA106000091AA212000091AA324000091AY101021AY201021KA1240M+01661KA2240N+00351MA1999999102051MD1210101+9999MW1001OD139901201999REMSYN11858338 04958 /2502 10101 20012 30205 40256 52010 60002 70000 333 10166 20035 3/003 54405 59039 60001 70000 90720 91112=
0254583380999992023010618004+31150+118583FM-12+001699999V0202501N001019999999N007000199+00551+00121102591ADDAA106000091AA212000091AA324000091AY101021AY201021KA1120M+01661KA2120N+00351MA1999999102081MD1710071+9999MW1001OD139901201999REMSYN11858338 04957 /2501 10055 20012 30208 40259 57007 60002 70000 333 10166 20035 3/001 54415 59036 60001 70000 90720 91112=
0238583380999992023010621004+31150+118583FM-12+001699999V0209999C000059999999N008000199+00361+00051102501ADDAA106000091AA212000091AA324000091KA1240M+01661KA2240N+00351MA1999999101991MD1710091+9999MW1001OD139900401999REMSYN11858338 04958 /3600 10036 20005 30199 40250 57009 60002 700// 333 10166 20035 3/100 54415 59038 60001 70000 90720 91104=
0254583380999992023010700004+31150+118583FM-12+001699999V0201401N001019999999N008000199+00291+00101102531ADDAA106000091AA212000091AA324000091AY101021AY201021KA1120M+01661KA2120N+00101MA1999999102021MD1210031+9999MW1001OD139900301999REMSYN11858338 04958 /1401 10029 20010 30202 40253 52003 60002 70000 333 10166 20010 3/101 54415 59046 60001 70000 90720 91103=
0254583380999992023010703004+31150+118583FM-12+001699999V0202101N002019999999N015000199+01452+00271102511ADDAA106000091AA212000091AA324000091AY101021AY201021KA1240M+01661KA2240N+00101MA1999999102001MD1710021+9999MW1001OD139900401999REMSYN11858338 04965 /2102 10145 20027 30200 40251 57002 60002 70000 333 10166 20010 3/101 54405 59030 60001 70000 90720 91104=
0254583380999992023010706004+31150+118583FM-12+001699999V0202101N002019999999N017000199+01811-00121102181ADDAA106000091AA212000091AA324000091AY101021AY201021KA1240M+01831KA2240N+00101MA1999999101681MD1710321+9999MW1001OD139900601999REMSYN11858338 04967 /2102 10181 21012 30168 40218 57032 60002 70000 333 10183 20010 3/101 54405 59035 60001 70000 90720 91106=
0254583380999992023010709004+31150+118583FM-12+001699999V0201701N001019999999N020000199+01751-00331102131ADDAA106000091AA212000091AA324000091AY101021AY201021KA1240M+01901KA2240N+00101MA1999999101631MD1710051+9999MW1001OD139900601999REMSYN11858338 04970 /1701 10175 21033 30163 40213 57005 60002 70000 333 10190 20010 3/101 54405 59032 60001 70000 90720 91106=
0248583380999992023010712004+31150+118583FM-12+001699999V0201201N002019999999N010000199+00991+00181102261ADDAA106000091AA212000091AA324000091AY101021AY201021KA1240M+01901KA2240N+00101MA1999999101751MD1210121-0301MW1001OD139900601999REMSYN11258338 04960 /1202 10099 20018 30175 40226 52012 60002 70000 333 10190 20010 3/001 59030 60001 70000 90720 91106=
0254583380999992023010718004+31150+118583FM-12+001699999V0201401N002019999999N009000199+00431+00081102201ADDAA106000091AA212000091AA324000091AY101021AY201021KA1120M+01901KA2120N+00101MA1999999101701MD1710021+9999MW1001OD139900601999REMSYN11858338 04959 /1402 10043 20008 30170 40220 57002 60002 70000 333 10190 20010 3/000 54415 59038 60001 70000 90720 91106=
0232583380999992023010721004+31150+118583FM-12+001699999V0201401N001019999999N009000199+00331+00041102161ADDAA106000091AA212000091AA324000091KA1240M+01901KA2240N+00101MA1999999101661MD1710041-0331MW1001OD139900401999REMSYN11258338 04959 /1401 10033 20004 30166 40216 57004 60002 700// 333 10190 20010 3/101 59033 60001 70000 90720 91104=
0254583380999992023010800004+31150+118583FM-12+001699999V0201401N002019999999N013000199+00631+00001102261ADDAA106000091AA212000091AA324000091AY101021AY201021KA1120M+01901KA2120N+00251MA1999999101751MD1210091+9999MW1001OD139900401999REMSYN11858338 04963 /1402 10063 20000 30175 40226 52009 60002 70000 333 10190 20025 3/102 54405 59027 60001 70000 90720 91104=
0254583380999992023010803004+31150+118583FM-12+001699999V0201601N002019999999N020000199+01651+00021102271ADDAA106000091AA212000091AA324000091AY101021AY201021KA1240M+01901KA2240N+00251MA1999999101771MD1210021+9999MW1001OD139900401999REMSYN11858338 04970 /1602 10165 20002 30177 40227 52002 60002 70000 333 10190 20025 3/102 54405 59023 60001 70000 90720 91104=
0254583380999992023010806004+31150+118583FM-12+001699999V0202701N002019999999N030000199+02061-00381101991ADDAA106000091AA212000091AA324000091AY101021AY201021KA1240M+02101KA2240N+00251MA1999999101491MD1710281+9999MW1001OD139900501999REMSYN11858338 04980 /2702 10206 21038 30149 40199 57028 60002 70000 333 10210 20025 3/102 54405 59019 60001 70000 90720 91105=
0254583380999992023010809004+31150+118583FM-12+001699999V0209999C000059999999N030000199+02001-00231101991ADDAA106000091AA212000091AA324000091AY101021AY201021KA1240M+02191KA2240N+00251MA1999999101491MD1410001+9999MW1001OD139900501999REMSYN11858338 04980 /3600 10200 21023 30149 40199 54000 60002 70000 333 10219 20025 3/102 54405 59014 60001 70000 90720 91105=
0248583380999992023010812004+31150+118583FM-12+001699999V0200901N003019999999N015000199+01011+00171102101ADDAA106000091AA212000091AA324000091AY101021AY201021KA1240M+02191KA2240N+00251MA1999999101591MD1210101-0161MW1001OD139900501999REMSYN11258338 04965 /0903 10101 20017 30159 40210 52010 60002 70000 333 10219 20025 3/002 59016 60001 70000 90720 91105=
0254583380999992023010818004+31150+118583FM-12+001699999V0202301N002019999999N014000199+00701+00151102221ADDAA106000091AA212000091AA324000091AY101021AY201021KA1120M+02191KA2120N+00251MA1999999101721MD1210091+9999MW1001OD139900401999REMSYN11858338 04964 /2302 10070 20015 30172 40222 52009 60002 70000 333 10219 20025 3/003 54405 58002 60001 70000 90720 91104=
0238583380999992023010821004+31150+118583FM-12+001699999V0202501N002019999999N016000199+00591+00091102231ADDAA106000091AA212000091AA324000091KA1240M+02191KA2240N+00251MA1999999101731MD1210011+9999MW1001OD139900301999REMSYN11858338 04966 /2502 10059 20009 30173 40223 52001 60002 700// 333 10219 20025 3/001 54405 58007 60001 70000 90720 91103=
0254583380999992023010900004+31150+118583FM-12+001699999V0209999C000059999999N012000199+00581+00151102361ADDAA106000091AA212000091AA324000091AY101021AY201021KA1120M+02191KA2120N+00281MA1999999101851MD1210121+9999MW1001OD139900301999REMSYN11858338 04962 /3000 10058 20015 30185 40236 52012 60002 70000 333 10219 20028 3/000 54415 58010 60001 70000 90720 91103=
0254583380999992023010903004+31150+118583FM-12+001699999V0203201N002019999999N015000199+01401+00321102501ADDAA106000091AA212000091AA324000091AY101021AY201021KA1240M+02191KA2240N+00281MA1999999102001MD1210151+9999MW1001OD139900401999REMSYN11858338 04965 /3202 10140 20032 30200 40250 52015 60002 70000 333 10219 20028 3/000 54415 58023 60001 70000 90720 91104=
0254583380999992023010906004+31150+118583FM-12+001699999V0200601N003019999999N009000199+01721+00281102391ADDAA106000091AA212000091AA324000091AY101021AY201021KA1240M+02191KA2240N+00281MA1999999101891MD1710111+9999MW1001OD139900601999REMSYN11858338 04959 /0603 10172 20028 30189 40239 57011 60002 70000 333 10219 20028 3/000 54415 58040 60001 70000 90720 91106=
0254583380999992023010909004+31150+118583FM-12+001699999V0200401N004019999999N004200199+01431+00541102491ADDAA106000091AA212000091AA324000091AY101021AY201021KA1240M+01991KA2240N+00281MA1999999101981MD1210091+9999MW1051OD139900801999REMSYN11858338 04942 /0404 10143 20054 30198 40249 52009 60002 70500 333 10199 20028 3/000 54416 58049 60001 70000 90720 91108=
0248583380999992023010912004+31150+118583FM-12+001699999V0200601N004019999999N004400199+00971+00531102831ADDAA106000091AA212000091AA324000091AY101021AY201021KA1240M+01781KA2240N+00281MA1999999102321MD1210341+0731MW1101OD139901001999REMSYN11258338 04944 /0604 10097 20053 30232 40283 52034 60002 71000 333 10178 20028 3/003 58073 60001 70000 90720 91110=
0254583380999992023010918004+31150+118583FM-12+001699999V0200601N003019999999N006000199+00811+00391102841ADDAA106000091AA212000091AA324000091AY101021AY201021KA1120M+01781KA2120N+00281MA1999999102341MD1710061+9999MW1101OD139901001999REMSYN11858338 04956 /0603 10081 20039 30234 40284 57006 60002 71000 333 10178 20028 3/006 54405 58062 60001 70000 90720 91110=
0238583380999992023010921004+31150+118583FM-12+001699999V0200601N003019999999N005000199+00811+00411102761ADDAA106000091AA212000091AA324000091KA1240M+01781KA2240N+00281MA1999999102251MD1710091+9999MW1101OD139901001999REMSYN11858338 04950 /0603 10081 20041 30225 40276 57009 60002 710// 333 10178 20028 3/006 54405 58052 60001 70000 90720 91110=
0254583380999992023011000004+31150+118583FM-12+001699999V0200701N004019999999N007000199+00781+00351102871ADDAA106000091AA212000091AA324000091AY101021AY201021KA1120M+01781KA2120N+00571MA1999999102361MD1210111+9999MW1001OD139901001999REMSYN11858338 04957 /0704 10078 20035 30236 40287 52011 60002 70000 333 10178 20057 3/006 54405 58051 60001 70000 90720 91110=
0254583380999992023011003004+31150+118583FM-12+001699999V0201101N005019999999N007000199+00891+00311102881ADDAA106000091AA212000091AA324000091AY101021AY201021KA1240M+01781KA2240N+00761MA1999999102371MD1210011+9999MW1001OD139900801999REMSYN11858338 04957 /1105 10089 20031 30237 40288 52001 60002 70000 333 10178 20076 3/006 54415 58037 60001 70000 90720 91108=
0254583380999992023011006004+31150+118583FM-12+001699999V0201101N004019999999N009000199+01151+00281102551ADDAA106000091AA212000091AA324000091AY101021AY201021KA1240M+01721KA2240N+00761MA1999999102041MD1710331+9999MW1001OD139900901999REMSYN11858338 04959 /1104 10115 20028 30204 40255 57033 60002 70000 333 10172 20076 3/007 54416 58015 60001 70000 90720 91109=
0254583380999992023011009004+31150+118583FM-12+001699999V0200601N003019999999N014000199+01101+00231102451ADDAA106000091AA212000091AA324000091AY101021AY201021KA1240M+01421KA2240N+00761MA1999999101941MD1710101+9999MW1001OD139900901999REMSYN11858338 04964 /0603 10110 20023 30194 40245 57010 60002 70000 333 10142 20076 3/007 54415 59004 60001 70000 90720 91109=
0254583380999992023011012004+31150+118583FM-12+001699999V0200601N003019999999N017000199+00811+00231102541ADDAA106000091AA212000091AA324000091AY101021AY201021KA1240M+01221KA2240N+00761MA1999999102031MD1210091+9999MW1001OD139900901999REMSYN11858338 04967 /0603 10081 20023 30203 40254 52009 60002 70000 333 10122 20076 3/006 54415 59029 60001 70000 90720 91109=
0254583380999992023011018004+31150+118583FM-12+001699999V0200801N003019999999N007000199+00401+00241102421ADDAA106000091AA212000091AA324000091AY101021AY201021KA1120M+01221KA2120N+00401MA1999999101911MD1710071+9999MW1001OD139900701999REMSYN11858338 04957 /0803 10040 20024 30191 40242 57007 60002 70000 333 10122 20040 3/002 54415 59043 60001 70000 90720 91107=
0238583380999992023011021004+31150+118583FM-12+001699999V0201201N002019999999N004100199+00301+00211102361ADDAA106000091AA212000091AA324000091KA1240M+01221KA2240N+00301MA1999999101851MD1710061+9999MW1101OD139900601999REMSYN11858338 04941 /1202 10030 20021 30185 40236 57006 60002 710// 333 10122 20030 3/000 54415 59040 60001 70000 90720 91106=
0254583380999992023011100004+31150+118583FM-12+001699999V0200901N002019999999N002700199+00371+00331102391ADDAA106000091AA212000091AA324000091AY101021AY201021KA1120M+01221KA2120N+00281MA1999999101881MD1210031+9999MW1101OD139900501999REMSYN11858338 04927 /0902 10037 20033 30188 40239 52003 60002 71000 333 10122 20028 3/100 54415 59048 60001 70000 90720 91105=
0254583380999992023011103004+31150+118583FM-12+001699999V0201101N002019999999N011000199+01091+00521102361ADDAA106000091AA212000091AA324000091AY101021AY201021KA1240M+01221KA2240N+00281MA1999999101851MD1710031+9999MW1001OD139900601999REMSYN11858338 04961 /1102 10109 20052 30185 40236 57003 60002 70000 333 10122 20028 3/100 54405 59052 60001 70000 90720 91106=
0254583380999992023011106004+31150+118583FM-12+001699999V0201001N002019999999N011000199+01541+00501101971ADDAA106000091AA212000091AA324000091AY101021AY201021KA1240M+01541KA2240N+00281MA1999999101461MD1710391+9999MW1001OD139900601999REMSYN11858338 04961 /1002 10154 20050 30146 40197 57039 60002 70000 333 10154 20028 3/100 54405 59058 60001 70000 90720 91106=
0254583380999992023011109004+31150+118583FM-12+001699999V0200701N003019999999N010000199+01501+00681101831ADDAA106000091AA212000091AA324000091AY101021AY201021KA1240M+01601KA2240N+00281MA1999999101321MD1710141+9999MW1001OD139900601999REMSYN11858338 04960 /0703 10150 20068 30132 40183 57014 60002 70000 333 10160 20028 3/100 54405 59062 60001 70000 90720 91106=
0254583380999992023011112004+31150+118583FM-12+001699999V0200801N004019999999N009000199+01211+00721101861ADDAA106000091AA212000091AA324000091AY101021AY201021KA1240M+01601KA2240N+00281MA1999999101351MD1210031+9999MW1001OD139900701999REMSYN11858338 04959 /0804 10121 20072 30135 40186 52003 60002 70000 333 10160 20028 3/003 54405 59068 60001 70000 90720 91107=
0254583380999992023011118004+31150+118583FM-12+001699999V0201001N002019999999N004400199+00871+00731101691ADDAA106000091AA212000091AA324000091AY101021AY201021KA1120M+01601KA2120N+00281MA1999999101191MD1710101+9999MW1101OD139900701999REMSYN11858338 04944 /1002 10087 20073 30119 40169 57010 60002 71000 333 10160 20028 3/006 54405 59072 60001 70000 90720 91107=
0238583380999992023011121004+31150+118583FM-12+001699999V0201101N002019999999N001500199+00761+00701101601ADDAA106000091AA212000091AA324000091KA1240M+01601KA2240N+00281MA1999999101101MD1710091+9999MW1101OD139900701999REMSYN11858338 04915 /1102 10076 20070 30110 40160 57009 60002 710// 333 10160 20028 3/004 54405 59075 60001 70000 90720 91107=
0254583380999992023011200004+31150+118583FM-12+001699999V0201101N002019999999N001900199+00901+00861101551ADDAA106000091AA212000091AA324000091AY101021AY201021KA1120M+01601KA2120N+00381MA1999999101051MD1710051+9999MW1101OD139900601999REMSYN11858338 04919 /1102 10090 20086 30105 40155 57005 60002 71000 333 10160 20038 3/004 54405 59083 60001 70000 90720 91106=
0254583380999992023011203004+31150+118583FM-12+001699999V0201101N002019999999N009000199+01611+00981101451ADDAA106000091AA212000091AA324000091AY101021AY201021KA1240M+01611KA2240N+00711MA1999999100951MD1710101+9999MW1001OD139900501999REMSYN11858338 04959 /1102 10161 20098 30095 40145 57010 60002 70000 333 10161 20071 3/004 54405 59090 60001 70000 90720 91105=
0254583380999992023011206004+31150+118583FM-12+001699999V0201201N002019999999N011000199+01961+01111101031ADDAA106000091AA212000091AA324000091AY101021AY201021KA1240M+01961KA2240N+00711MA1999999100541MD1710411+9999MW1001OD139900501999REMSYN11858338 04961 /1202 10196 20111 30054 40103 57041 60002 70000 333 10196 20071 3/004 54405 59092 60001 70000 90720 91105=
0254583380999992023011209004+31150+118583FM-12+001699999V0203101N002019999999N008000199+01721+01211101101ADDAA106000021AA212000021AA324000021AY101021AY201021KA1240M+02071KA2240N+00711MA1999999100601MD1210061+9999MW1211OD139900701999REMSYN11858338 04958 /3102 10172 20121 30060 40110 52006 69902 72100 333 10207 20071 3/004 54405 59072 69901 79999 90720 91107=
0254583380999992023011212004+31150+118583FM-12+001699999V0203401N001019999999N003400199+01511+01351101141ADDAA106000231AA212000231AA324000231AY101021AY201021KA1240M+02071KA2240N+00711MA1999999100641MD1210041+9999MW1211OD139900701999REMSYN11858338 04934 /3401 10151 20135 30064 40114 52004 69922 72100 333 10207 20071 3/008 54405 59071 69921 70002 90720 91107=
0254583380999992023011218004+31150+118583FM-12+001699999V0200801N001019999999N000300199+01431+01401101141ADDAA106004031AA212004031AA324004031AY101021AY201021KA1120M+02071KA2120N+00711MA1999999100651MD1210011+9999MW1461OD139900701999REMSYN11858338 04903 /0801 10143 20140 30065 40114 52001 60042 74600 333 10207 20071 3/013 54406 59054 60041 70040 90720 91107=
0238583380999992023011221004+31150+118583FM-12+001699999V0202901N001019999999N000100199+01421+01391101091ADDAA106002031AA212004031AA324004031KA1240M+02071KA2240N+00711MA1999999100601MD1710051+9999MW1601OD139900401999REMSYN11858338 04901 /2901 10142 20139 30060 40109 57005 60042 760// 333 10207 20071 3/013 54407 59050 60021 70040 90720 91104=
0254583380999992023011300004+31150+118583FM-12+001699999V0200801N002019999999N000200199+01451+01431101221ADDAA106001031AA212005031AA324005231AY151021AY201021KA1120M+02071KA2120N+00901MA1999999100731MD1210131+9999MW1601OD139900401999REMSYN11858338 04902 /0802 10145 20143 30073 40122 52013 60052 76050 333 10207 20090 3/013 54406 59032 60011 70052 90720 91104=
0254583380999992023011303004+31150+118583FM-12+001699999V0200601N002019999999N001000199+01561+01541101211ADDAA106001031AA212003031AA324005231AY101021AY201021KA1240M+02071KA2240N+01391MA1999999100721MD1710011+9999MW1281OD139900401999REMSYN11858338 04910 /0602 10156 20154 30072 40121 57001 60032 72800 333 10207 20139 3/013 54415 59023 60011 70052 90720 91104=
0254583380999992023011306004+31150+118583FM-12+001699999V0200501N002019999999N002100199+01691+01661100931ADDAA106002031AA212003031AA324006831AY161021AY201021KA1240M+02071KA2240N+01391MA1999999100441MD1710281+9999MW1541OD139900501999REMSYN11858338 04921 /0502 10169 20166 30044 40093 57028 60032 75460 333 10207 20139 3/013 54415 59010 60021 70068 90720 91105=
0254583380999992023011309004+31150+118583FM-12+001699999V0200601N003019999999N002700199+01661+01631100941ADDAA106005031AA212006031AA324010031AY101021AY201021KA1240M+01721KA2240N+01391MA1999999100451MD1210011+9999MW1101OD139900601999REMSYN11858338 04927 /0603 10166 20163 30045 40094 52001 60062 71000 333 10172 20139 3/013 54415 59015 60051 70100 90720 91106=
0254583380999992023011312004+31150+118583FM-12+001699999V0200601N003019999999N001400199+01591+01561101001ADDAA106004031AA212005031AA324010231AY101021AY201021KA1240M+01701KA2240N+01391MA1999999100511MD1210061+9999MW1211OD139900601999REMSYN11858338 04914 /0603 10159 20156 30051 40100 52006 60052 72100 333 10170 20139 3/014 54405 59013 60041 70102 90720 91106=
0254583380999992023011318004+31150+118583FM-12+001699999V0203001N005019999999N001100199+01051+01021101101ADDAA106000091AA212004031AA324006431AY101021AY201021KA1120M+01701KA2120N+01051MA1999999100611MD1210061+9999MW1101OD139900901999REMSYN11858338 04911 /3005 10105 20102 30061 40110 52006 60042 71000 333 10170 20105 3/011 54415 59004 60001 70064 90720 91109=
0238583380999992023011321004+31150+118583FM-12+001699999V0202901N003019999999N000900199+00901+00871101301ADDAA106002031AA212002031AA324007931KA1240M+01701KA2240N+00901MA1999999100801MD1210191+9999MW1541OD139901001999REMSYN11858338 04909 /2903 10090 20087 30080 40130 52019 60022 754// 333 10170 20090 3/010 54415 58020 60021 70079 90720 91110=
0254583380999992023011400004+31150+118583FM-12+001699999V0200401N004019999999N006000199+00961+00921101621ADDAA106003031AA212003031AA324007731AY101021AY201021KA1120M+01701KA2120N+00901MA1999999101121MD1210321+9999MW1101OD139901001999REMSYN11858338 04956 /0404 10096 20092 30112 40162 52032 60032 71000 333 10170 20090 3/010 54415 58039 60031 70077 90720 91110=
0254583380999992023011403004+31150+118583FM-12+001699999V0200201N004019999999N005000199+00791+00731101871ADDAA106003031AA212005031AA324009731AY101021AY201021KA1240M+01701KA2240N+00791MA1999999101371MD1210251+9999MW1601OD139901101999REMSYN11858338 04950 /0204 10079 20073 30137 40187 52025 60052 76000 333 10170 20079 3/009 54418 58065 60031 70097 90720 91111=
0254583380999992023011406004+31150+118583FM-12+001699999V0203601N006019999999N008000199+00391+00271101881ADDAA106008031AA212010031AA324013931AY101021AY201021KA1240M+01701KA2240N+00391MA1999999101371MD1410001+9999MW1601OD139901201999REMSYN11858338 04958 /3606 10039 20027 30137 40188 54000 60102 76000 333 10170 20039 3/006 54413 58093 60081 70139 90720 91112=
0254583380999992023011409004+31150+118583FM-12+001699999V0203601N005019999999N006000199+00281+00151102281ADDAA106007031AA212010031AA324012031AY101021AY201021KA1240M+01661KA2240N+00281MA1999999101771MD1210401+9999MW1001OD139901201999REMSYN11858338 04956 /3605 10028 20015 30177 40228 52040 60102 70000 333 10166 20028 3/004 54414 58132 60071 70120 90720 91112=
0254583380999992023011412004+31150+118583FM-12+001699999V0200501N004019999999N021000199+00141-00011102521ADDAA106002031AA212010031AA324012331AY101021AY201021KA1240M+01601KA2240N+00141MA1999999102001MD1210231+9999MW1001OD139901201999REMSYN11858338 04971 /0504 10014 21001 30200 40252 52023 60102 70000 333 10160 20014 3/003 54414 58149 60021 70123 90720 91112=
0254583380999992023011418004+31150+118583FM-12+001699999V0203201N005019999999N003100199-00071-00171102841ADDAA106000531AA212003031AA324012831AY161021AY201021KA1120M+01041KA2120N-00071MA1999999102321MD1210241+9999MW1741OD139901201999REMSYN11858338 04931 /3205 11007 21017 30232 40284 52024 60032 77460 333 10104 21007 3/001 54411 58171 69951 70128 90720 91112=
0238583380999992023011421004+31150+118583FM-12+001699999V0203201N003019999999N015000199-00191-00411102821ADDAA106000531AA212001031AA324011331KA1240M+01011KA2240N-00191MA1999999102291MD1710031+9999MW1001OD139901201999REMSYN11858338 04965 /3203 11019 21041 30229 40282 57003 60012 700// 333 10101 21019 3/000 54411 58149 69951 70113 90720 91112=
0254583380999992023011500004+31150+118583FM-12+001699999V0203201N003019999999N001800199-00311-00441102581ADDAA106001031AA212002031AA324011731AY101021AY201021KA1120M+00961KA2120N-00331MA1999999102051MD1710241+9999MW1741OD139901201999REMSYN11858338 04918 /3203 11031 21044 30205 40258 57024 60022 77400 333 10096 21033 3/100 54413 58093 60011 70117 90720 91112=
0254583380999992023011503004+31150+118583FM-12+001699999V0203201N002019999999N002200199-00231-00391103281ADDAA106003031AA212003031AA324010931AY101021AY201021KA1240M+00791KA2240N-00331MA1999999102751MD1210701+9999MW1741OD139901201999REMSYN11858338 04922 /3202 11023 21039 30275 40328 52070 60032 77400 333 10079 21033 3/100 54410 58138 60031 70109 90720 91112=
0254583380999992023011506004+31150+118583FM-12+001699999V0203201N003019999999N007000199-00211-00441103061ADDAA106002031AA212003031AA324005431AY101021AY201021KA1240M+00391KA2240N-00331MA1999999102531MD1710221+9999MW1741OD139901201999REMSYN11858338 04957 /3203 11021 21044 30253 40306 57022 60032 77400 333 10039 21033 3/100 54416 58116 60021 70054 90720 91112=
0254583380999992023011509004+31150+118583FM-12+001699999V0202801N003019999999N016000199-00191-00521103091ADDAA106000331AA212003031AA324004131AY101021AY201021KA1240M+00271KA2240N-00331MA1999999102561MD1210031+9999MW1001OD139900801999REMSYN11858338 04966 /2803 11019 21052 30256 40309 52003 60032 70000 333 10027 21033 3/100 54415 58079 69931 70041 90720 91108=
0254583380999992023011512004+31150+118583FM-12+001699999V0202801N003019999999N018000199-00191-00611102771ADDAA106000091AA212002031AA324003431AY101021AY201021KA1240M+00151KA2240N-00331MA1999999102241MD1710321+9999MW1001OD139900801999REMSYN11858338 04968 /2803 11019 21061 30224 40277 57032 60022 70000 333 10015 21033 3/100 54415 58024 60001 70034 90720 91108=
0254583380999992023011518004+31150+118583FM-12+001699999V0203001N003019999999N012000199-00231-00781102571ADDAA106000091AA212000091AA324002931AY101021AY201021KA1120M-00071KA2120N-00331MA1999999102041MD1710481+9999MW1001OD139900801999REMSYN11858338 04962 /3003 11023 21078 30204 40257 57048 60002 70000 333 11007 21033 3/101 54415 59028 60001 70029 90720 91108=
0238583380999992023011521004+31150+118583FM-12+001699999V0203001N001019999999N017000199-00331-00801101991ADDAA106000091AA212000091AA324002931KA1240M-00141KA2240N-00331MA1999999101461MD1710581+9999MW1001OD139900701999REMSYN11858338 04967 /3001 11033 21080 30146 40199 57058 60002 700// 333 11014 21033 3/101 54415 59083 60001 70029 90720 91107=
0248583380999992023011600004+31150+118583FM-12+001699999V0203401N002019999999N017000199-00281-00871102651ADDAA106000091AA212000091AA324001531AY101021AY201021KA1120M-00141KA2120N-00411MA1999999102121MD1210661+0071MW1001OD139900701999REMSYN11258338 04967 /3402 11028 21087 30212 40265 52066 60002 70000 333 11014 21041 3/102 58007 60001 70015 90720 91107=
0254583380999992023011603004+31150+118583FM-12+001699999V0203101N001019999999N022000199+00051-00921103322ADDAA106000091AA212000091AA324000331AY101021AY201021KA1240M+00051KA2240N-00411MA1999999102792MD1210671+9999MW1001OD139900701999REMSYN11858338 04972 /3101 10005 21092 30279 40332 52067 60002 70000 333 10005 21041 3/102 54405 58004 60001 70003 90720 91107=
0254583380999992023011606004+31150+118583FM-12+001699999V0203501N002019999999N023000199+00171-00901103081ADDAA106000091AA212000091AA324000091AY101021AY201021KA1240M+00181KA2240N-00411MA1999999102551MD1710241+9999MW1001OD139900601999REMSYN11858338 04973 /3502 10017 21090 30255 40308 57024 60002 70000 333 10018 21041 3/102 54405 58002 60001 70000 90720 91106=
0254583380999992023011609004+31150+118583FM-12+001699999V0203201N001019999999N024000199+00091-01031102961ADDAA106000091AA212000091AA324000091AY101021AY201021KA1240M+00221KA2240N-00411MA1999999102431MD1710121+9999MW1001OD139900601999REMSYN11858338 04974 /3201 10009 21103 30243 40296 57012 60002 70000 333 10022 21041 3/102 54405 59013 60001 70000 90720 91106=
0254583380999992023011612004+31150+118583FM-12+001699999V0202201N001019999999N016000199-00041-00461103051ADDAA106000091AA212000091AA324000091AY101021AY201021KA1240M+00221KA2240N-00411MA1999999102521MD1210091+9999MW1001OD139900601999REMSYN11858338 04966 /2201 11004 21046 30252 40305 52009 60002 70000 333 10022 21041 3/101 54405 58028 60001 70000 90720 91106=
0254583380999992023011618004+31150+118583FM-12+001699999V0202301N001019999999N016000199-00021-00431103011ADDAA106000091AA212000091AA324000091AY101021AY201021KA1120M+00221KA2120N-00411MA1999999102481MD1710071+9999MW1001OD139900501999REMSYN11858338 04966 /2301 11002 21043 30248 40301 57007 60002 70000 333 10022 21041 3/000 54405 58044 60001 70000 90720 91105=
0238583380999992023011621004+31150+118583FM-12+001699999V0202201N001019999999N011000199-00101-00301102991ADDAA106000091AA212000091AA324000091KA1240M+00221KA2240N-00411MA1999999102461MD1710021+9999MW1001OD139900301999REMSYN11858338 04961 /2201 11010 21030 30246 40299 57002 60002 700// 333 10022 21041 3/101 54405 58100 60001 70000 90720 91103=
0254583380999992023011700004+31150+118583FM-12+001699999V0202201N001019999999N010000199-00091-00391103091ADDAA106000091AA212000091AA324000091AY101021AY201021KA1120M+00221KA2120N-00281MA1999999102561MD1210101+9999MW1001OD139900201999REMSYN11858338 04960 /2201 11009 21039 30256 40309 52010 60002 70000 333 10022 21028 3/101 54405 58044 60001 70000 90720 91102=
0254583380999992023011703004+31150+118583FM-12+001699999V0202901N002019999999N017000199+00331-00721103181ADDAA106000091AA212000091AA324000091AY101021AY201021KA1240M+00331KA2240N-00161MA1999999102651MD1210091+9999MW1001OD139900401999REMSYN11858338 04967 /2902 10033 21072 30265 40318 52009 60002 70000 333 10033 21016 3/101 54405 59014 60001 70000 90720 91104=
0254583380999992023011706004+31150+118583FM-12+001699999V0202801N002019999999N017000199+00591-00701102971ADDAA106000091AA212000091AA324000091AY101021AY201021KA1240M+00591KA2240N-00161MA1999999102451MD1710201+9999MW1001OD139900701999REMSYN11858338 04967 /2802 10059 21070 30245 40297 57020 60002 70000 333 10059 21016 3/101 54405 59010 60001 70000 90720 91107=
0254583380999992023011709004+31150+118583FM-12+001699999V0203001N002019999999N022000199+00471-00881102911ADDAA106000091AA212000091AA324000091AY101021AY201021KA1240M+00621KA2240N-00161MA1999999102391MD1710061+9999MW1001OD139900701999REMSYN11858338 04972 /3002 10047 21088 30239 40291 57006 60002 70000 333 10062 21016 3/101 54405 59004 60001 70000 90720 91107=
0254583380999992023011712004+31150+118583FM-12+001699999V0202301N001019999999N020000199+00371-00471103101ADDAA106000091AA212000091AA324000091AY101021AY201021KA1240M+00621KA2240N-00161MA1999999102571MD1210181+9999MW1001OD139900701999REMSYN11858338 04970 /2301 10037 21047 30257 40310 52018 60002 70000 333 10062 21016 3/000 54405 58005 60001 70000 90720 91107=
0248583380999992023011718004+31150+118583FM-12+001699999V0202401N002019999999N011000199-00031-00321103191ADDAA106000091AA212000091AA324000091AY101021AY201021KA1120M+00621KA2120N-00161MA1999999102671MD1710011+0191MW1001OD139900601999REMSYN11258338 04961 /2402 11003 21032 30267 40319 57001 60002 70000 333 10062 21016 3/101 58019 60001 70000 90720 91106=
0232583380999992023011721004+31150+118583FM-12+001699999V0202501N002019999999N007000199-00111-00281103171ADDAA106000091AA212000091AA324000091KA1240M+00621KA2240N-00161MA1999999102641MD1710031+0181MW1101OD139900401999REMSYN11258338 04957 /2502 11011 21028 30264 40317 57003 60002 710// 333 10062 21016 3/103 58018 60001 70000 90720 91104=
0248583380999992023011800004+31150+118583FM-12+001699999V0202501N002019999999N008000199-00081-00321103251ADDAA106000091AA212000091AA324000091AY101021AY201021KA1120M+00621KA2120N-00161MA1999999102721MD1210081+0161MW1001OD139900401999REMSYN11258338 04958 /2502 11008 21032 30272 40325 52008 60002 70000 333 10062 21016 3/104 58016 60001 70000 90720 91104=
0254583380999992023011803004+31150+118583FM-12+001699999V0202601N002019999999N012000199+00541-00391103261ADDAA106000091AA212000091AA324000091AY101021AY201021KA1240M+00621KA2240N-00161MA1999999102741MD1210021+9999MW1001OD139900501999REMSYN11858338 04962 /2602 10054 21039 30274 40326 52002 60002 70000 333 10062 21016 3/104 54405 58009 60001 70000 90720 91105=
0254583380999992023011806004+31150+118583FM-12+001699999V0203101N002019999999N017000199+00781-00871102921ADDAA106000091AA212000091AA324000091AY101021AY201021KA1240M+00821KA2240N-00161MA1999999102401MD1710341+9999MW1001OD139900601999REMSYN11858338 04967 /3102 10078 21087 30240 40292 57034 60002 70000 333 10082 21016 3/104 54405 59005 60001 70000 90720 91106=
0254583380999992023011809004+31150+118583FM-12+001699999V0202901N001019999999N015000199+00681-00721102851ADDAA106000091AA212000091AA324000091AY101021AY201021KA1240M+00821KA2240N-00161MA1999999102331MD1710071+9999MW1001OD139900601999REMSYN11858338 04965 /2901 10068 21072 30233 40285 57007 60002 70000 333 10082 21016 3/104 54405 59006 60001 70000 90720 91106=
0254583380999992023011812004+31150+118583FM-12+001699999V0203201N001019999999N012000199+00281-00461102851ADDAA106000091AA212000091AA324000091AY101021AY201021KA1240M+00821KA2240N-00161MA1999999102321MD1710011+9999MW1001OD139900601999REMSYN11858338 04962 /3201 10028 21046 30232 40285 57001 60002 70000 333 10082 21016 3/101 54415 59025 60001 70000 90720 91106=
0254583380999992023011818004+31150+118583FM-12+001699999V0201201N001019999999N008000199-00201-00421102781ADDAA106000091AA212000091AA324000091AY101021AY201021KA1120M+00821KA2120N-00201MA1999999102261MD1710111+9999MW1001OD139900601999REMSYN11858338 04958 /1201 11020 21042 30226 40278 57011 60002 70000 333 10082 21020 3/103 54415 59041 60001 70000 90720 91106=
0238583380999992023011821004+31150+118583FM-12+001699999V0201301N002019999999N009000199-00261-00461102691ADDAA106000091AA212000091AA324000091KA1240M+00821KA2240N-00261MA1999999102171MD1710091+9999MW1001OD139900301999REMSYN11858338 04959 /1302 11026 21046 30217 40269 57009 60002 700// 333 10082 21026 3/105 54415 59047 60001 70000 90720 91103=
0248583380999992023011900004+31150+118583FM-12+001699999V0201801N001019999999N012000199-00111-00381102791ADDAA106000091AA212000091AA324000091AY101021AY201021KA1120M+00821KA2120N-00311MA1999999102261MD1210091-0461MW1001OD139900301999REMSYN11258338 04962 /1801 11011 21038 30226 40279 52009 60002 70000 333 10082 21031 3/105 59046 60001 70000 90720 91103=
0254583380999992023011903004+31150+118583FM-12+001699999V0202001N001019999999N017000199+00861-00361102771ADDAA106000091AA212000091AA324000091AY101021AY201021KA1240M+00861KA2240N-00311MA1999999102251MD1710011+9999MW1001OD139900301999REMSYN11858338 04967 /2001 10086 21036 30225 40277 57001 60002 70000 333 10086 21031 3/105 54405 59049 60001 70000 90720 91103=
0254583380999992023011906004+31150+118583FM-12+001699999V0203101N003019999999N020000199+01141-01141102481ADDAA106000091AA212000091AA324000091AY101021AY201021KA1240M+01171KA2240N-00311MA1999999101961MD1710291+9999MW1001OD139900501999REMSYN11858338 04970 /3103 10114 21114 30196 40248 57029 60002 70000 333 10117 21031 3/105 54405 59044 60001 70000 90720 91105=
0254583380999992023011909004+31150+118583FM-12+001699999V0202801N001019999999N019000199+01111-00671102491ADDAA106000091AA212000091AA324000091AY101021AY201021KA1240M+01241KA2240N-00311MA1999999101971MD1210011+9999MW1001OD139900501999REMSYN11858338 04969 /2801 10111 21067 30197 40249 52001 60002 70000 333 10124 21031 3/105 54405 59036 60001 70000 90720 91105=
0254583380999992023011912004+31150+118583FM-12+001699999V0209999C000059999999N011000199+00561-00571102681ADDAA106000091AA212000091AA324000091AY101021AY201021KA1240M+01241KA2240N-00311MA1999999102161MD1210191+9999MW1001OD139900501999REMSYN11858338 04961 /3000 10056 21057 30216 40268 52019 60002 70000 333 10124 21031 3/102 54405 59016 60001 70000 90720 91105=
0254583380999992023011918004+31150+118583FM-12+001699999V0202401N002019999999N013000199+00251-00301102961ADDAA106000091AA212000091AA324000091AY101021AY201021KA1120M+01241KA2120N-00311MA1999999102451MD1210091+9999MW1001OD139900501999REMSYN11858338 04963 /2402 10025 21030 30245 40296 52009 60002 70000 333 10124 21031 3/101 54405 58019 60001 70000 90720 91105=
0238583380999992023011921004+31150+118583FM-12+001699999V0202801N002019999999N014000199+00161-00331102961ADDAA106000091AA212000091AA324000091KA1240M+01241KA2240N-00311MA1999999102441MD1710011+9999MW1001OD139900401999REMSYN11858338 04964 /2802 10016 21033 30244 40296 57001 60002 700// 333 10124 21031 3/102 54405 58027 60001 70000 90720 91104=
0254583380999992023012000004+31150+118583FM-12+001699999V0202401N001019999999N013000199+00081-00281103111ADDAA106000091AA212000091AA324000091AY101021AY201021KA1120M+01241KA2120N-00211MA1999999102591MD1210151+9999MW1001OD139900401999REMSYN11858338 04963 /2401 10008 21028 30259 40311 52015 60002 70000 333 10124 21021 3/103 54405 58033 60001 70000 90720 91104=
0254583380999992023012003004+31150+118583FM-12+001699999V0200701N003019999999N011000199+00771-00321103231ADDAA106000091AA212000091AA324000091AY101021AY201021KA1240M+01241KA2240N+00021MA1999999102711MD1210121+9999MW1001OD139900601999REMSYN11858338 04961 /0703 10077 21032 30271 40323 52012 60002 70000 333 10124 20002 3/103 54415 58046 60001 70000 90720 91106=
0254583380999992023012006004+31150+118583FM-12+001699999V0200501N002019999999N010000199+01001-00171103051ADDAA106000091AA212000091AA324000091AY101021AY201021KA1240M+01241KA2240N+00021MA1999999102531MD1710181+9999MW1001OD139900601999REMSYN11858338 04960 /0502 10100 21017 30253 40305 57018 60002 70000 333 10124 20002 3/103 54415 58057 60001 70000 90720 91106=
0254583380999992023012009004+31150+118583FM-12+001699999V0200401N003019999999N010000199+00851-00191103031ADDAA106000091AA212000091AA324000091AY101021AY201021KA1240M+01111KA2240N+00021MA1999999102511MD1710021+9999MW1001OD139900601999REMSYN11858338 04960 /0403 10085 21019 30251 40303 57002 60002 70000 333 10111 20002 3/103 54415 58054 60001 70000 90720 91106=
0254583380999992023012012004+31150+118583FM-12+001699999V0200701N004019999999N009000199+00621-00141103011ADDAA106000091AA212000091AA324000091AY101021AY201021KA1240M+01011KA2240N+00021MA1999999102491MD1710021+9999MW1001OD139900601999REMSYN11858338 04959 /0704 10062 21014 30249 40301 57002 60002 70000 333 10101 20002 3/101 54405 58033 60001 70000 90720 91106=
0254583380999992023012018004+31150+118583FM-12+001699999V0201001N004019999999N009000199+00521+00041102861ADDAA106000091AA212000091AA324000091AY101021AY201021KA1120M+01011KA2120N+00021MA1999999102351MD1710101+9999MW1001OD139900801999REMSYN11858338 04959 /1004 10052 20004 30235 40286 57010 60002 70000 333 10101 20002 3/003 54405 59010 60001 70000 90720 91108=
0238583380999992023012021004+31150+118583FM-12+001699999V0201001N003019999999N010000199+00481+00131102661ADDAA106000091AA212000091AA324000091KA1240M+01011KA2240N+00021MA1999999102151MD1710201+9999MW1001OD139900801999REMSYN11858338 04960 /1003 10048 20013 30215 40266 57020 60002 700// 333 10101 20002 3/003 54405 59029 60001 70000 90720 91108=
0254583380999992023012100004+31150+118583FM-12+001699999V0200901N004019999999N012000199+00441+00141102681ADDAA106000091AA212000091AA324000091AY101021AY201021KA1120M+01011KA2120N+00081MA1999999102161MD1210011+9999MW1001OD139900801999REMSYN11858338 04962 /0904 10044 20014 30216 40268 52001 60002 70000 333 10101 20008 3/002 54405 59043 60001 70000 90720 91108=
0254583380999992023012103004+31150+118583FM-12+001699999V0200801N005019999999N012000199+00831+00171102531ADDAA106000091AA212000091AA324000091AY101021AY201021KA1240M+01011KA2240N+00411MA1999999102021MD1710141+9999MW1001OD139900801999REMSYN11858338 04962 /0805 10083 20017 30202 40253 57014 60002 70000 333 10101 20041 3/002 54405 59069 60001 70000 90720 91108=
0254583380999992023012106004+31150+118583FM-12+001699999V0201001N004019999999N014000199+01171+00131102171ADDAA106000091AA212000091AA324000091AY101021AY201021KA1240M+01171KA2240N+00411MA1999999101661MD1710361+9999MW1001OD139900801999REMSYN11858338 04964 /1004 10117 20013 30166 40217 57036 60002 70000 333 10117 20041 3/002 54405 59087 60001 70000 90720 91108=
0254583380999992023012109004+31150+118583FM-12+001699999V0200901N005019999999N014000199+01061+00191102041ADDAA106000091AA212000091AA324000091AY101021AY201021KA1240M+01191KA2240N+00411MA1999999101531MD1710131+9999MW1001OD139900901999REMSYN11858338 04964 /0905 10106 20019 30153 40204 57013 60002 70000 333 10119 20041 3/002 54405 59098 60001 70000 90720 91109=
0305583380999992023012112004+31150+118583FM-12+001699999V0201001N006019999999N012000199+00871+00331101991ADDAA106999999AA212999999AA324999999AY101021AY201021KA1240M+01191KA2240N+00411MA1999999101481MD1710051+9999MW1601OD139901101999REMSYN11858338 04962 /1006 10087 20033 30148 40199 57005 60002 76000 333 10119 20041 3/003 54405 59101 60001 70000 90720 91111=EQDQ01  00002PRCP06Q02  00002PRCP12Q03  00002PRCP24
0254583380999992023012118004+31150+118583FM-12+001699999V0203501N002019999999N001500199+00631+00561102231ADDAA106002031AA212002032AA324001732AY101021AY201021KA1120M+01191KA2120N+00411MA1999999101721MD1210101+9999MW1601OD139901101999REMSYN11858338 04915 /3502 10063 20056 30172 40223 52010 60022 76000 333 10119 20041 3/006 54405 59063 60021 70017 90720 91111=
0238583380999992023012121004+31150+118583FM-12+001699999V0200101N002019999999N001900199+00591+00531102201ADDAA106001031AA212002032AA324001932KA1240M+01191KA2240N+00411MA1999999101691MD1710031+9999MW1201OD139901101999REMSYN11858338 04919 /0102 10059 20053 30169 40220 57003 60022 720// 333 10119 20041 3/006 54405 59046 60011 70019 90720 91111=
0254583380999992023012200004+31150+118583FM-12+001699999V0203501N001019999999N001000199+00581+00541102281ADDAA106000331AA212002031AA324002031AY161021AY201021KA1120M+01191KA2120N+00451MA1999999101771MD1210081+9999MW1541OD139901001999REMSYN11858338 04910 /3501 10058 20054 30177 40228 52008 60022 75460 333 10119 20045 3/006 54405 59039 69931 70020 90720 91110=
0254583380999992023012203004+31150+118583FM-12+001699999V0203201N002019999999N001300199+00611+00571102371ADDAA106000831AA212002031AA324002731AY101021AY201021KA1240M+01191KA2240N+00581MA1999999101861MD1210091+9999MW1601OD139900601999REMSYN11858338 04913 /3202 10061 20057 30186 40237 52009 60022 76000 333 10119 20058 3/006 54415 59016 69981 70027 90720 91106=
0254583380999992023012206004+31150+118583FM-12+001699999V0203301N002019999999N002100199+00631+00561102221ADDAA106001031AA212001031AA324003131AY101021AY201021KA1240M+01191KA2240N+00581MA1999999101711MD1710151+9999MW1211OD139900501999REMSYN11858338 04921 /3302 10063 20056 30171 40222 57015 60012 72100 333 10119 20058 3/006 54415 58005 60011 70031 90720 91105=
0254583380999992023012209004+31150+118583FM-12+001699999V0203501N002019999999N003200199+00621+00451102181ADDAA106000431AA212001031AA324003131AY101021AY201021KA1240M+01061KA2240N+00581MA1999999101671MD1710041+9999MW1101OD139900501999REMSYN11858338 04932 /3502 10062 20045 30167 40218 57004 60012 71000 333 10106 20058 3/006 54415 58014 69941 70031 90720 91105=
0254583380999992023012212004+31150+118583FM-12+001699999V0200601N001019999999N003900199+00591+00421102271ADDAA106000091AA212001031AA324003131AY101021AY201021KA1240M+00861KA2240N+00581MA1999999101761MD1210091+9999MW1101OD139900501999REMSYN11858338 04939 /0601 10059 20042 30176 40227 52009 60012 71000 333 10086 20058 3/006 54415 58028 60001 70031 90720 91105=
0254583380999992023012218004+31150+118583FM-12+001699999V0201001N002019999999N007000199+00481+00331102301ADDAA106000091AA212000091AA324001431AY101021AY201021KA1120M+00661KA2120N+00481MA1999999101791MD1710141+9999MW1001OD139900601999REMSYN11858338 04957 /1002 10048 20033 30179 40230 57014 60002 70000 333 10066 20048 3/004 54415 58007 60001 70014 90720 91106=
0238583380999992023012221004+31150+118583FM-12+001699999V0200301N001019999999N005000199+00511+00391102311ADDAA106000091AA212000091AA324001231KA1240M+00661KA2240N+00481MA1999999101801MD1210011+9999MW1101OD139900601999REMSYN11858338 04950 /0301 10051 20039 30180 40231 52001 60002 710// 333 10066 20048 3/004 54415 58011 60001 70012 90720 91106=
0254583380999992023012300004+31150+118583FM-12+001699999V0200301N002019999999N004900199+00531+00431102421ADDAA106000091AA212000091AA324001131AY101021AY201021KA1120M+00661KA2120N+00481MA1999999101911MD1210111+9999MW1101OD139900601999REMSYN11858338 04949 /0302 10053 20043 30191 40242 52011 60002 71000 333 10066 20048 3/004 54415 58014 60001 70011 90720 91106=
0254583380999992023012303004+31150+118583FM-12+001699999V0200101N002019999999N001700199+00561+00501102541ADDAA106000431AA212000431AA324000831AY101021AY201021KA1240M+00661KA2240N+00481MA1999999102021MD1210111+9999MW1601OD139900601999REMSYN11858338 04917 /0102 10056 20050 30202 40254 52011 69942 76000 333 10066 20048 3/004 54415 58016 69941 70008 90720 91106=
0254583380999992023012306004+31150+118583FM-12+001699999V0200201N002019999999N005000199+00581+00521102411ADDAA106002031AA212002031AA324002431AY101021AY201021KA1240M+00661KA2240N+00481MA1999999101891MD1710131+9999MW1601OD139900701999REMSYN11858338 04950 /0202 10058 20052 30189 40241 57013 60022 76000 333 10066 20048 3/004 54415 58018 60021 70024 90720 91107=
0248583380999992023012309004+31150+118583FM-12+001699999V0200201N003019999999N005000199+00591+00521102671ADDAA106004031AA212005032AA324004732AY101021AY201021KA1240M+00621KA2240N+00481MA1999999102151MD1210261+0481MW1601OD139900701999REMSYN11258338 04950 /0203 10059 20052 30215 40267 52026 60052 76000 333 10062 20048 3/005 58048 60041 70047 90720 91107=
0254583380999992023012312004+31150+118583FM-12+001699999V0203301N002019999999N009000199+00521+00391102981ADDAA106004031AA212006031AA324006131AY101021AY201021KA1240M+00611KA2240N+00481MA1999999102461MD1210311+9999MW1601OD139900701999REMSYN11858338 04959 /3302 10052 20039 30246 40298 52031 60062 76000 333 10061 20048 3/005 54415 58070 60041 70061 90720 91107=
0254583380999992023012318004+31150+118583FM-12+001699999V0203501N002019999999N007000199+00061-00231103711ADDAA106001031AA212005031AA324007431AY101021AY201021KA1120M+00611KA2120N+00061MA1999999103181MD1210371+9999MW1001OD139901201999REMSYN11858338 04957 /3502 10006 21023 30318 40371 52037 60052 70000 333 10061 20006 3/100 54415 58139 60011 70074 90720 91112=
0238583380999992023012321004+31150+118583FM-12+001699999V0203501N002019999999N010000199-00151-00571103931ADDAA106000091AA212003031AA324007431KA1240M+00611KA2240N-00151MA1999999103401MD1210221+9999MW1001OD139901201999REMSYN11858338 04960 /3502 11015 21057 30340 40393 52022 60032 700// 333 10061 21015 3/102 54417 58160 60001 70074 90720 91112=
0254583380999992023012400004+31150+118583FM-12+001699999V0203301N003019999999N010000199-00201-00661104211ADDAA106000091AA212001031AA324007431AY101021AY201021KA1120M+00611KA2120N-00231MA1999999103681MD1210281+9999MW1001OD139901201999REMSYN11858338 04960 /3303 11020 21066 30368 40421 52028 60012 70000 333 10061 21023 3/104 54417 58177 60001 70074 90720 91112=
0254583380999992023012403004+31150+118583FM-12+001699999V0203301N005019999999N017000199+00001-01201104241ADDAA106000091AA212000091AA324007031AY101021AY201021KA1240M+00611KA2240N-00231MA1999999103711MD1210031+9999MW1001OD139901001999REMSYN11858338 04967 /3305 10000 21120 30371 40424 52003 60002 70000 333 10061 21023 3/104 54416 58169 60001 70070 90720 91110=
0254583380999992023012406004+31150+118583FM-12+001699999V0203101N005019999999N015000199-00021-00961104011ADDAA106000091AA212000091AA324005031AY101021AY201021KA1240M+00611KA2240N-00231MA1999999103481MD1710231+9999MW1001OD139901201999REMSYN11858338 04965 /3105 11002 21096 30348 40401 57023 60002 70000 333 10061 21023 3/104 54416 58159 60001 70050 90720 91112=
0254583380999992023012409004+31150+118583FM-12+001699999V0203001N003019999999N015000199-00051-01181103921ADDAA106000091AA212000091AA324002731AY101021AY201021KA1240M+00591KA2240N-00231MA1999999103391MD1710091+9999MW1001OD139901201999REMSYN11858338 04965 /3003 11005 21118 30339 40392 57009 60002 70000 333 10059 21023 3/104 54416 58124 60001 70027 90720 91112=
0254583380999992023012412004+31150+118583FM-12+001699999V0200101N002019999999N017000199-00251-01051103931ADDAA106000091AA212000091AA324001331AY101021AY201021KA1240M+00531KA2240N-00251MA1999999103391MD1410001+9999MW1001OD139901201999REMSYN11858338 04967 /0102 11025 21105 30339 40393 54000 60002 70000 333 10053 21025 3/104 54418 58093 60001 70013 90720 91112=
0254583380999992023012418004+31150+118583FM-12+001699999V0200801N003019999999N016000199-00611-01181103681ADDAA106000091AA212000091AA324000091AY101021AY201021KA1120M+00101KA2120N-00611MA1999999103141MD1710191+9999MW1001OD139900901999REMSYN11858338 04966 /0803 11061 21118 30314 40368 57019 60002 70000 333 10010 21061 3/108 54417 59004 60001 70000 90720 91109=
0238583380999992023012421004+31150+118583FM-12+001699999V0200801N002019999999N029000199-00651-01381103571ADDAA106000091AA212000091AA324000091KA1240M+00101KA2240N-00691MA1999999103031MD1710111+9999MW1001OD139900701999REMSYN11858338 04979 /0802 11065 21138 30303 40357 57011 60002 700// 333 10010 21069 3/110 54415 59037 60001 70000 90720 91107=
0254583380999992023012500004+31150+118583FM-12+001699999V0200801N002019999999N025000199-00631-01041103431ADDAA106000091AA212000091AA324000091AY101021AY201021KA1120M+00101KA2120N-00761MA1999999102891MD1710141+9999MW1001OD139900501999REMSYN11858338 04975 /0802 11063 21104 30289 40343 57014 60002 70000 333 10010 21076 3/111 54415 59079 60001 70000 90720 91105=
0254583380999992023012503004+31150+118583FM-12+001699999V0201201N003019999999N015000199-00101-01041103261ADDAA106000091AA212000091AA324000091AY101021AY201021KA1240M+00101KA2240N-00761MA1999999102731MD1710161+9999MW1001OD139900701999REMSYN11858338 04965 /1203 11010 21104 30273 40326 57016 60002 70000 333 10010 21076 3/111 54415 59098 60001 70000 90720 91107=
0254583380999992023012506004+31150+118583FM-12+001699999V0201001N002019999999N019000199+00251-00911102761ADDAA106000091AA212000091AA324000091AY101021AY201021KA1240M+00261KA2240N-00761MA1999999102231MD1710501+9999MW1001OD139900801999REMSYN11858338 04969 /1002 10025 21091 30223 40276 57050 60002 70000 333 10026 21076 3/111 54405 59125 60001 70000 90720 91108=
0254583380999992023012509004+31150+118583FM-12+001699999V0201101N003019999999N019000199+00171-00841102571ADDAA106000091AA212000091AA324000091AY101021AY201021KA1240M+00271KA2240N-00761MA1999999102041MD1710191+9999MW1001OD139900801999REMSYN11858338 04969 /1103 10017 21084 30204 40257 57019 60002 70000 333 10027 21076 3/111 54405 59135 60001 70000 90720 91108=
0254583380999992023012512004+31150+118583FM-12+001699999V0200801N003019999999N017000199-00081-00661102471ADDAA106000091AA212000091AA324000091AY101021AY201021KA1240M+00271KA2240N-00761MA1999999101941MD1710101+9999MW1001OD139900801999REMSYN11858338 04967 /0803 11008 21066 30194 40247 57010 60002 70000 333 10027 21076 3/104 54405 59145 60001 70000 90720 91108=
0254583380999992023012518004+31150+118583FM-12+001699999V0202201N001019999999N010000199-00391-00641102411ADDAA106000091AA212000091AA324000091AY101021AY201021KA1120M+00271KA2120N-00761MA1999999101881MD1710101+9999MW1001OD139900601999REMSYN11858338 04960 /2201 11039 21064 30188 40241 57010 60002 70000 333 10027 21076 3/105 54405 59126 60001 70000 90720 91106=
0238583380999992023012521004+31150+118583FM-12+001699999V0201901N001019999999N009000199-00461-00671102361ADDAA106000091AA212000091AA324000091KA1240M+00271KA2240N-00761MA1999999101831MD1710051+9999MW1001OD139900401999REMSYN11858338 04959 /1901 11046 21067 30183 40236 57005 60002 700// 333 10027 21076 3/107 54405 59120 60001 70000 90720 91104=
0254583380999992023012600004+31150+118583FM-12+001699999V0202501N002019999999N007000199-00351-00521102541ADDAA106000091AA212000091AA324000091AY101021AY201021KA1120M+00271KA2120N-00631MA1999999102011MD1210181+9999MW1001OD139900401999REMSYN11858338 04957 /2502 11035 21052 30201 40254 52018 60002 70000 333 10027 21063 3/107 54405 59088 60001 70000 90720 91104=
0254583380999992023012603004+31150+118583FM-12+001699999V0203101N002019999999N014000199+00421-00581102581ADDAA106000091AA212000091AA324000091AY101021AY201021KA1240M+00461KA2240N-00551MA1999999102061MD1210051+9999MW1001OD139900301999REMSYN11858338 04964 /3102 10042 21058 30206 40258 52005 60002 70000 333 10046 21055 3/107 54405 59067 60001 70000 90720 91103=
0254583380999992023012606004+31150+118583FM-12+001699999V0200501N001019999999N015000199+00661-00671102271ADDAA106000091AA212000091AA324000091AY101021AY201021KA1240M+00661KA2240N-00551MA1999999101751MD1710311+9999MW1001OD139900501999REMSYN11858338 04965 /0501 10066 21067 30175 40227 57031 60002 70000 333 10066 21055 3/107 54405 59048 60001 70000 90720 91105=
0254583380999992023012609004+31150+118583FM-12+001699999V0203101N002019999999N014000199+00511-00501102561ADDAA106000091AA212000091AA324000091AY101021AY201021KA1240M+00661KA2240N-00551MA1999999102031MD1210281+9999MW1001OD139900501999REMSYN11858338 04964 /3102 10051 21050 30203 40256 52028 60002 70000 333 10066 21055 3/107 54405 59001 60001 70000 90720 91105=
0254583380999992023012612004+31150+118583FM-12+001699999V0203001N002019999999N012000199+00421-00381102841ADDAA106000091AA212000091AA324000091AY101021AY201021KA1240M+00661KA2240N-00551MA1999999102311MD1210281+9999MW1001OD139900501999REMSYN11858338 04962 /3002 10042 21038 30231 40284 52028 60002 70000 333 10066 21055 3/103 54405 58037 60001 70000 90720 91105=
0254583380999992023012618004+31150+118583FM-12+001699999V0203201N003019999999N018000199+00061-00891103221ADDAA106000091AA212000091AA324000091AY101021AY201021KA1120M+00661KA2120N-00551MA1999999102701MD1210231+9999MW1001OD139900801999REMSYN11858338 04968 /3203 10006 21089 30270 40322 52023 60002 70000 333 10066 21055 3/101 54405 58082 60001 70000 90720 91108=
0238583380999992023012621004+31150+118583FM-12+001699999V0203001N003019999999N013000199-00111-00751103431ADDAA106000091AA212000091AA324000091KA1240M+00661KA2240N-00551MA1999999102901MD1210201+9999MW1001OD139900801999REMSYN11858338 04963 /3003 11011 21075 30290 40343 52020 60002 700// 333 10066 21055 3/103 54405 58107 60001 70000 90720 91108=
0254583380999992023012700004+31150+118583FM-12+001699999V0203001N001019999999N012000199-00131-00851103651ADDAA106000091AA212000091AA324000091AY101021AY201021KA1120M+00661KA2120N-00341MA1999999103121MD1210221+9999MW1001OD139900801999REMSYN11858338 04962 /3001 11013 21085 30312 40365 52022 60002 70000 333 10066 21034 3/104 54405 58111 60001 70000 90720 91108=
0254583380999992023012703004+31150+118583FM-12+001699999V0203001N002019999999N011000199+00301-00961103711ADDAA106000091AA212000091AA324000091AY101021AY201021KA1240M+00661KA2240N-00211MA1999999103181MD1210061+9999MW1001OD139900801999REMSYN11858338 04961 /3002 10030 21096 30318 40371 52006 60002 70000 333 10066 21021 3/104 54415 58112 60001 70000 90720 91108=
0254583380999992023012706004+31150+118583FM-12+001699999V0203501N003019999999N018000199+00461-01241103441ADDAA106000091AA212000091AA324000091AY101021AY201021KA1240M+00661KA2240N-00211MA1999999102911MD1710271+9999MW1001OD139900701999REMSYN11858338 04968 /3503 10046 21124 30291 40344 57027 60002 70000 333 10066 21021 3/104 54415 58116 60001 70000 90720 91107=
0254583380999992023012709004+31150+118583FM-12+001699999V0203301N002019999999N023000199+00371-01361103351ADDAA106000091AA212000091AA324000091AY101021AY201021KA1240M+00511KA2240N-00211MA1999999102821MD1710091+9999MW1001OD139900801999REMSYN11858338 04973 /3302 10037 21136 30282 40335 57009 60002 70000 333 10051 21021 3/104 54415 58079 60001 70000 90720 91108=
0254583380999992023012712004+31150+118583FM-12+001699999V0202501N001019999999N021000199-00041-00911103321ADDAA106000091AA212000091AA324000091AY101021AY201021KA1240M+00511KA2240N-00211MA1999999102791MD1710031+9999MW1001OD139900801999REMSYN11858338 04971 /2501 11004 21091 30279 40332 57003 60002 70000 333 10051 21021 3/102 54415 58048 60001 70000 90720 91108=
0254583380999992023012718004+31150+118583FM-12+001699999V0202401N002019999999N012000199-00331-00801103171ADDAA106000091AA212000091AA324000091AY101021AY201021KA1120M+00511KA2120N-00351MA1999999102641MD1710151+9999MW1001OD139900801999REMSYN11858338 04962 /2402 11033 21080 30264 40317 57015 60002 70000 333 10051 21035 3/106 54415 59006 60001 70000 90720 91108=
0238583380999992023012721004+31150+118583FM-12+001699999V0202801N002019999999N013000199-00471-00811103131ADDAA106000091AA212000091AA324000091KA1240M+00511KA2240N-00471MA1999999102601MD1710041+9999MW1001OD139900401999REMSYN11858338 04963 /2802 11047 21081 30260 40313 57004 60002 700// 333 10051 21047 3/107 54415 59030 60001 70000 90720 91104=
0254583380999992023012800004+31150+118583FM-12+001699999V0202401N002019999999N012000199-00361-00871103221ADDAA106000091AA212000091AA324000091AY101021AY201021KA1120M+00511KA2120N-00521MA1999999102691MD1210091+9999MW1001OD139900301999REMSYN11858338 04962 /2402 11036 21087 30269 40322 52009 60002 70000 333 10051 21052 3/108 54415 59043 60001 70000 90720 91103=
0254583380999992023012803004+31150+118583FM-12+001699999V0202801N003019999999N013000199+00441-00971103211ADDAA106000091AA212000091AA324000091AY101021AY201021KA1240M+00511KA2240N-00521MA1999999102681MD1710011+9999MW1001OD139900501999REMSYN11858338 04963 /2803 10044 21097 30268 40321 57001 60002 70000 333 10051 21052 3/108 54405 59050 60001 70000 90720 91105=
0254583380999992023012809004+31150+118583FM-12+001699999V0202901N002019999999N026000199+00591-01421102871ADDAA106000091AA212000091AA324000091AY101021AY201021KA1240M+00751KA2240N-00521MA1999999102341MD1710011+9999MW1001OD139900901999REMSYN11858338 04976 /2902 10059 21142 30234 40287 57001 60002 70000 333 10075 21052 3/108 54405 59048 60001 70000 90720 91109=
0254583380999992023012812004+31150+118583FM-12+001699999V0202401N001019999999N022000199+00091-01001102901ADDAA106000091AA212000091AA324000091AY101021AY201021KA1240M+00751KA2240N-00521MA1999999102371MD1210031+9999MW1001OD139900901999REMSYN11858338 04972 /2401 10009 21100 30237 40290 52003 60002 70000 333 10075 21052 3/104 54405 59042 60001 70000 90720 91109=
0254583380999992023012818004+31150+118583FM-12+001699999V0202401N002019999999N021000199-00131-00971102781ADDAA106000091AA212000091AA324000091AY101021AY201021KA1120M+00751KA2120N-00521MA1999999102261MD1710081+9999MW1001OD139900901999REMSYN11858338 04971 /2402 11013 21097 30226 40278 57008 60002 70000 333 10075 21052 3/104 54405 59038 60001 70000 90720 91109=
0238583380999992023012821004+31150+118583FM-12+001699999V0202501N002019999999N021000199-00201-00961102631ADDAA106000091AA212000091AA324000091KA1240M+00751KA2240N-00521MA1999999102111MD1710151+9999MW1001OD139900501999REMSYN11858338 04971 /2502 11020 21096 30211 40263 57015 60002 700// 333 10075 21052 3/105 54405 59049 60001 70000 90720 91105=
0254583380999992023012900004+31150+118583FM-12+001699999V0202401N003019999999N022000199-00121-00821102711ADDAA106000091AA212000091AA324000091AY101021AY201021KA1120M+00751KA2120N-00371MA1999999102181MD1210071+9999MW1001OD139900501999REMSYN11858338 04972 /2403 11012 21082 30218 40271 52007 60002 70000 333 10075 21037 3/105 54405 59051 60001 70000 90720 91105=
0254583380999992023012903004+31150+118583FM-12+001699999V0202601N003019999999N022000199+00731-00751102721ADDAA106000091AA212000091AA324000091AY101021AY201021KA1240M+00751KA2240N-00271MA1999999102201MD1210021+9999MW1001OD139900601999REMSYN11858338 04972 /2603 10073 21075 30220 40272 52002 60002 70000 333 10075 21027 3/105 54405 59048 60001 70000 90720 91106=
0254583380999992023012906004+31150+118583FM-12+001699999V0202701N006019999999N025000199+01151-01431102461ADDAA106000091AA212000091AA324000091AY101021AY201021KA1240M+01191KA2240N-00271MA1999999101941MD1710261+9999MW1001OD139901001999REMSYN11858338 04975 /2706 10115 21143 30194 40246 57026 60002 70000 333 10119 21027 3/105 54405 59041 60001 70000 90720 91110=
0254583380999992023012909004+31150+118583FM-12+001699999V0202901N002019999999N025000199+01121-01161102491ADDAA106000091AA212000091AA324000091AY101021AY201021KA1240M+01241KA2240N-00271MA1999999101971MD1210031+9999MW1001OD139901101999REMSYN11858338 04975 /2902 10112 21116 30197 40249 52003 60002 70000 333 10124 21027 3/105 54405 59037 60001 70000 90720 91111=
0254583380999992023012912004+31150+118583FM-12+001699999V0202301N001019999999N018000199+00611-01021102571ADDAA106000091AA212000091AA324000091AY101021AY201021KA1240M+01241KA2240N-00271MA1999999102051MD1210081+9999MW1001OD139901101999REMSYN11858338 04968 /2301 10061 21102 30205 40257 52008 60002 70000 333 10124 21027 3/102 54405 59032 60001 70000 90720 91111=
0254583380999992023012918004+31150+118583FM-12+001699999V0202401N002019999999N019000199+00331-00841102641ADDAA106000091AA212000091AA324000091AY101021AY201021KA1120M+01241KA2120N-00271MA1999999102131MD1410001+9999MW1001OD139901101999REMSYN11858338 04969 /2402 10033 21084 30213 40264 54000 60002 70000 333 10124 21027 3/102 54405 59013 60001 70000 90720 91111=
0238583380999992023012921004+31150+118583FM-12+001699999V0202401N001019999999N024000199-00091-00791102591ADDAA106000091AA212000091AA324000091KA1240M+01241KA2240N-00271MA1999999102071MD1710061+9999MW1001OD139900401999REMSYN11858338 04974 /2401 11009 21079 30207 40259 57006 60002 700// 333 10124 21027 3/104 54405 59004 60001 70000 90720 91104=
0254583380999992023013000004+31150+118583FM-12+001699999V0209999C000059999999N028000199+00051-00571102631ADDAA106000091AA212000091AA324000091AY101021AY201021KA1120M+01241KA2120N-00271MA1999999102111MD1210041+9999MW1001OD139900401999REMSYN11858338 04978 /2600 10005 21057 30211 40263 52004 60002 70000 333 10124 21027 3/105 54405 59007 60001 70000 90720 91104=
0254583380999992023013006004+31150+118583FM-12+001699999V0202001N003019999999N030000199+01531-01211102181ADDAA106000091AA212000091AA324000091AY101021AY201021KA1240M+01581KA2240N-00271MA1999999101671MD1710471+9999MW1001OD139900601999REMSYN11858338 04980 /2003 10153 21121 30167 40218 57047 60002 70000 333 10158 21027 3/105 54405 59027 60001 70000 90720 91106=
0254583380999992023013009004+31150+118583FM-12+001699999V0201201N002019999999N030000199+01411-00511102021ADDAA106000091AA212000091AA324000091AY101021AY201021KA1240M+01681KA2240N-00271MA1999999101511MD1710161+9999MW1001OD139900601999REMSYN11858338 04980 /1202 10141 21051 30151 40202 57016 60002 70000 333 10168 21027 3/105 54405 59046 60001 70000 90720 91106=
0254583380999992023013012004+31150+118583FM-12+001699999V0201201N002019999999N020000199+00731-00411102011ADDAA106000091AA212000091AA324000091AY101021AY201021KA1240M+01681KA2240N-00271MA1999999101491MD1710021+9999MW1001OD139900601999REMSYN11858338 04970 /1202 10073 21041 30149 40201 57002 60002 70000 333 10168 21027 3/101 54405 59056 60001 70000 90720 91106=
0254583380999992023013018004+31150+118583FM-12+001699999V0201201N002019999999N018000199+00051-00291101801ADDAA106000091AA212000091AA324000091AY101021AY201021KA1120M+01681KA2120N-00271MA1999999101291MD1710111+9999MW1001OD139900501999REMSYN11858338 04968 /1202 10005 21029 30129 40180 57011 60002 70000 333 10168 21027 3/102 54415 59084 60001 70000 90720 91105=
0238583380999992023013021004+31150+118583FM-12+001699999V0202401N002019999999N018000199+00261-00461101701ADDAA106000091AA212000091AA324000091KA1240M+01681KA2240N-00271MA1999999101191MD1710101+9999MW1001OD139900401999REMSYN11858338 04968 /2402 10026 21046 30119 40170 57010 60002 700// 333 10168 21027 3/102 54405 59088 60001 70000 90720 91104=
0254583380999992023013100004+31150+118583FM-12+001699999V0209999C000059999999N020000199+00291-00261101801ADDAA106000091AA212000091AA324000091AY101021AY201021KA1120M+01681KA2120N+00021MA1999999101291MD1210101+9999MW1001OD139900401999REMSYN11858338 04970 /2500 10029 21026 30129 40180 52010 60002 70000 333 10168 20002 3/103 54405 59082 60001 70000 90720 91104=
0254583380999992023013103004+31150+118583FM-12+001699999V0202801N001019999999N027000199+01341-00171101761ADDAA106000091AA212000091AA324000091AY101021AY201021KA1240M+01681KA2240N+00021MA1999999101261MD1710031+9999MW1001OD139900401999REMSYN11858338 04977 /2801 10134 21017 30126 40176 57003 60002 70000 333 10168 20002 3/103 54405 59088 60001 70000 90720 91104=
0254583380999992023013106004+31150+118583FM-12+001699999V0203301N002019999999N025000199+01901-00661101431ADDAA106000091AA212000091AA324000091AY101021AY201021KA1240M+01911KA2240N+00021MA1999999100931MD1710331+9999MW1001OD139900401999REMSYN11858338 04975 /3302 10190 21066 30093 40143 57033 60002 70000 333 10191 20002 3/103 54405 59074 60001 70000 90720 91104=
0254583380999992023013109004+31150+118583FM-12+001699999V0200701N003019999999N020000199+01721-00201101351ADDAA106000091AA212000091AA324000091AY101021AY201021KA1240M+02061KA2240N+00021MA1999999100851MD1710081+9999MW1001OD139900401999REMSYN11858338 04970 /0703 10172 21020 30085 40135 57008 60002 70000 333 10206 20002 3/103 54405 59066 60001 70000 90720 91104=
0254583380999992023013112004+31150+118583FM-12+001699999V0201101N003019999999N015000199+01031-00081101431ADDAA106000091AA212000091AA324000091AY101021AY201021KA1240M+02061KA2240N+00021MA1999999100921MD1210071+9999MW1001OD139900401999REMSYN11858338 04965 /1103 10103 21008 30092 40143 52007 60002 70000 333 10206 20002 3/100 54405 59057 60001 70000 90720 91104=
0254583380999992023013118004+31150+118583FM-12+001699999V0200601N002019999999N022000199+00761-00391101571ADDAA106000091AA212000091AA324000091AY101021AY201021KA1120M+02061KA2120N+00021MA1999999101071MD1210081+9999MW1001OD139900401999REMSYN11858338 04972 /0602 10076 21039 30107 40157 52008 60002 70000 333 10206 20002 3/002 54407 59022 60001 70000 90720 91104=
0238583380999992023013121004+31150+118583FM-12+001699999V0203101N001019999999N019000199+00511-00181101611ADDAA106000091AA212000091AA324000091KA1240M+02061KA2240N+00171MA1999999101111MD1210041+9999MW1001OD139900401999REMSYN11858338 04969 /3101 10051 21018 30111 40161 52004 60002 700// 333 10206 20017 3/000 54405 59008 60001 70000 90720 91104=
0254583380999992023020100004+31150+118583FM-12+001699999V0200601N001019999999N011000199+00491-00011101831ADDAA106000091AA212000091AA324000091AY101021AY201021KA1120M+02061KA2120N+00231MA1999999101321MD1210211+9999MW1001OD139900401999REMSYN11858338 04961 /0601 10049 21001 30132 40183 52021 60002 70000 333 10206 20023 3/100 54405 58003 60001 70000 90720 91104=
0248583380999992023020103004+31150+118583FM-12+001699999V0200601N003019999999N012000199+01381-00031102011ADDAA106000091AA212000091AA324000091AY101021AY201021KA1240M+02061KA2240N+00231MA1999999101511MD1210191+0251MW1001OD139900701999REMSYN11258338 04962 /0603 10138 21003 30151 40201 52019 60002 70000 333 10206 20023 3/100 58025 60001 70000 90720 91107=
0254583380999992023020106004+31150+118583FM-12+001699999V0200701N007019999999N012000199+01561-00381101951ADDAA106000091AA212000091AA324000091AY101021AY201021KA1240M+02061KA2240N+00231MA1999999101451MD1710061+9999MW1001OD139901201999REMSYN11858338 04962 /0707 10156 21038 30145 40195 57006 60002 70000 333 10206 20023 3/100 54415 58052 60001 70000 90720 91112=
0254583380999992023020109004+31150+118583FM-12+001699999V0200601N006019999999N010000199+01221-00171102211ADDAA106000091AA212000091AA324000091AY101021AY201021KA1240M+01721KA2240N+00231MA1999999101701MD1210251+9999MW1001OD139901301999REMSYN11858338 04960 /0606 10122 21017 30170 40221 52025 60002 70000 333 10172 20023 3/100 54415 58085 60001 70000 90720 91113=
0254583380999992023020112004+31150+118583FM-12+001699999V0200601N006019999999N017000199+00821-00271102551ADDAA106000091AA212000091AA324000091AY101021AY201021KA1240M+01611KA2240N+00231MA1999999102041MD1210341+9999MW1001OD139901301999REMSYN11858338 04967 /0606 10082 21027 30204 40255 52034 60002 70000 333 10161 20023 3/003 54415 58112 60001 70000 90720 91113=
0254583380999992023020118004+31150+118583FM-12+001699999V0200601N006019999999N022000199+00371-00381102911ADDAA106000091AA212000091AA324000091AY101021AY201021KA1120M+01611KA2120N+00231MA1999999102401MD1210091+9999MW1001OD139901401999REMSYN11858338 04972 /0606 10037 21038 30240 40291 52009 60002 70000 333 10161 20023 3/004 54415 58133 60001 70000 90720 91114=
0238583380999992023020121004+31150+118583FM-12+001699999V0200701N006019999999N024000199+00301-00361102881ADDAA106000091AA212000091AA324000091KA1240M+01611KA2240N+00231MA1999999102371MD1710031+9999MW1001OD139901401999REMSYN11858338 04974 /0706 10030 21036 30237 40288 57003 60002 700// 333 10161 20023 3/003 54415 58126 60001 70000 90720 91114=
0254583380999992023020200004+31150+118583FM-12+001699999V0200601N005019999999N022000199+00301-00311103011ADDAA106000091AA212000091AA324000091AY101021AY201021KA1120M+01611KA2120N+00301MA1999999102491MD1210121+9999MW1001OD139901401999REMSYN11858338 04972 /0605 10030 21031 30249 40301 52012 60002 70000 333 10161 20030 3/003 54415 58117 60001 70000 90720 91114=
0254583380999992023020203004+31150+118583FM-12+001699999V0200601N005019999999N021000199+00391-00291103081ADDAA106000091AA212000091AA324000091AY101021AY201021KA1240M+01611KA2240N+00301MA1999999102561MD1210071+9999MW1001OD139901201999REMSYN11858338 04971 /0605 10039 21029 30256 40308 52007 60002 70000 333 10161 20030 3/003 54410 58105 60001 70000 90720 91112=
0254583380999992023020206004+31150+118583FM-12+001699999V0200601N004019999999N022000199+00391-00231102761ADDAA106000091AA212000091AA324000091AY101021AY201021KA1240M+01611KA2240N+00301MA1999999102241MD1710321+9999MW1001OD139901101999REMSYN11858338 04972 /0604 10039 21023 30224 40276 57032 60002 70000 333 10161 20030 3/003 54412 58079 60001 70000 90720 91111=
0254583380999992023020209004+31150+118583FM-12+001699999V0200601N004019999999N018000199+00371-00231102731ADDAA106000091AA212000091AA324000091AY101021AY201021KA1240M+01221KA2240N+00301MA1999999102211MD1710031+9999MW1001OD139901101999REMSYN11858338 04968 /0604 10037 21023 30221 40273 57003 60002 70000 333 10122 20030 3/003 54419 58051 60001 70000 90720 91111=
0254583380999992023020212004+31150+118583FM-12+001699999V0200601N003019999999N016000199+00391-00171102781ADDAA106000091AA212000091AA324000091AY101021AY201021KA1240M+00821KA2240N+00301MA1999999102261MD1210051+9999MW1001OD139900901999REMSYN11858338 04966 /0603 10039 21017 30226 40278 52005 60002 70000 333 10082 20030 3/003 54415 58022 60001 70000 90720 91109=
0254583380999992023020218004+31150+118583FM-12+001699999V0200401N002019999999N010000199+00291+00031102721ADDAA106000731AA212000731AA324000731AY101021AY201021KA1120M+00431KA2120N+00211MA1999999102201MD1710081+9999MW1211OD139900801999REMSYN11858338 04960 /0402 10029 20003 30220 40272 57008 69972 72100 333 10043 20021 3/001 54415 59020 69971 70007 90720 91108=
0232583380999992023020221004+31150+118583FM-12+001699999V0201101N001019999999N009000199+00271+00081102571ADDAA106000231AA212000731AA324000731KA1240M+00431KA2240N+00211MA1999999102051MD1710151-0321MW1001OD139900701999REMSYN11258338 04959 /1101 10027 20008 30205 40257 57015 69972 700// 333 10043 20021 3/001 59032 69921 70007 90720 91107=
0248583380999992023020300004+31150+118583FM-12+001699999V0200501N002019999999N011000199+00291+00031102751ADDAA106000091AA212000731AA324000731AY101021AY201021KA1120M+00431KA2120N+00211MA1999999102231MD1210181-0261MW1001OD139900601999REMSYN11258338 04961 /0502 10029 20003 30223 40275 52018 69972 70000 333 10043 20021 3/001 59026 60001 70007 90720 91106=
0254583380999992023020303004+31150+118583FM-12+001699999V0200901N004019999999N011000199+00551+00091102841ADDAA106000091AA212000231AA324000731AY101021AY201021KA1240M+00601KA2240N+00211MA1999999102321MD1210091+9999MW1001OD139900501999REMSYN11858338 04961 /0904 10055 20009 30232 40284 52009 69922 70000 333 10060 20021 3/002 54405 59024 60001 70007 90720 91105=
0254583380999992023020306004+31150+118583FM-12+001699999V0200901N003019999999N012000199+00781+00121102461ADDAA106000091AA212000091AA324000731AY101021AY201021KA1240M+00791KA2240N+00211MA1999999101941MD1710381+9999MW1001OD139900701999REMSYN11858338 04962 /0903 10078 20012 30194 40246 57038 60002 70000 333 10079 20021 3/002 54405 59030 60001 70007 90720 91107=
0254583380999992023020309004+31150+118583FM-12+001699999V0201001N002019999999N010000199+00671+00181102341ADDAA106000091AA212000091AA324000731AY101021AY201021KA1240M+00791KA2240N+00211MA1999999101821MD1710121+9999MW1001OD139900701999REMSYN11858338 04960 /1002 10067 20018 30182 40234 57012 60002 70000 333 10079 20021 3/002 54405 59039 60001 70007 90720 91107=
0254583380999992023020312004+31150+118583FM-12+001699999V0200801N002019999999N008000199+00461+00161102431ADDAA106000091AA212000091AA324000731AY101021AY201021KA1240M+00791KA2240N+00211MA1999999101911MD1210091+9999MW1001OD139900701999REMSYN11858338 04958 /0802 10046 20016 30191 40243 52009 60002 70000 333 10079 20021 3/003 54405 59035 60001 70007 90720 91107=
0254583380999992023020318004+31150+118583FM-12+001699999V0200401N001019999999N004700199+00171+00021102541ADDAA106000091AA212000091AA324000091AY101021AY201021KA1120M+00791KA2120N+00171MA1999999102021MD1710041+9999MW1101OD139900601999REMSYN11858338 04947 /0401 10017 20002 30202 40254 57004 60002 71000 333 10079 20017 3/101 54415 59018 60001 70000 90720 91106=
0238583380999992023020321004+31150+118583FM-12+001699999V0200301N001019999999N003100199+00071+00001102521ADDAA106000091AA212000091AA324000091KA1240M+00791KA2240N+00021MA1999999102001MD1710021+9999MW1101OD139900401999REMSYN11858338 04931 /0301 10007 20000 30200 40252 57002 60002 710// 333 10079 20002 3/101 54415 59005 60001 70000 90720 91104=
0254583380999992023020400004+31150+118583FM-12+001699999V0200601N002019999999N003300199+00131+00041102641ADDAA106000091AA212000091AA324000091AY101021AY201021KA1120M+00791KA2120N+00021MA1999999102121MD1210121+9999MW1101OD139900401999REMSYN11858338 04933 /0602 10013 20004 30212 40264 52012 60002 71000 333 10079 20002 3/101 54415 59011 60001 70000 90720 91104=
0254583380999992023020403004+31150+118583FM-12+001699999V0201001N006019999999N008000199+00761+00171102621ADDAA106000091AA212000091AA324000091AY101021AY201021KA1240M+00801KA2240N+00021MA1999999102101MD1710021+9999MW1001OD139900901999REMSYN11858338 04958 /1006 10076 20017 30210 40262 57002 60002 70000 333 10080 20002 3/101 54405 59022 60001 70000 90720 91109=
0254583380999992023020406004+31150+118583FM-12+001699999V0201201N003019999999N012000199+00991+00131102371ADDAA106000091AA212000091AA324000091AY101021AY201021KA1240M+01021KA2240N+00021MA1999999101861MD1710241+9999MW1001OD139901001999REMSYN11858338 04962 /1203 10099 20013 30186 40237 57024 60002 70000 333 10102 20002 3/101 54405 59008 60001 70000 90720 91110=
0254583380999992023020409004+31150+118583FM-12+001699999V0201101N004019999999N011000199+00931+00001102351ADDAA106000091AA212000091AA324000091AY101021AY201021KA1240M+01071KA2240N+00021MA1999999101831MD1710031+9999MW1001OD139901001999REMSYN11858338 04961 /1104 10093 20000 30183 40235 57003 60002 70000 333 10107 20002 3/101 54405 58001 60001 70000 90720 91110=
0254583380999992023020412004+31150+118583FM-12+001699999V0200901N004019999999N011000199+00681+00051102411ADDAA106000091AA212000091AA324000091AY101021AY201021KA1240M+01071KA2240N+00021MA1999999101891MD1210061+9999MW1001OD139901001999REMSYN11858338 04961 /0904 10068 20005 30189 40241 52006 60002 70000 333 10107 20002 3/000 54405 59002 60001 70000 90720 91110=
0254583380999992023020418004+31150+118583FM-12+001699999V0201101N004019999999N025000199+00641-00131102231ADDAA106000091AA212000091AA324000091AY101021AY201021KA1120M+01071KA2120N+00021MA1999999101721MD1710191+9999MW1001OD139900901999REMSYN11858338 04975 /1104 10064 21013 30172 40223 57019 60002 70000 333 10107 20002 3/004 54405 59030 60001 70000 90720 91109=
0238583380999992023020421004+31150+118583FM-12+001699999V0201001N004019999999N007000199+00481+00361102281ADDAA106000231AA212000231AA324000231KA1240M+01071KA2240N+00031MA1999999101771MD1210051+9999MW1211OD139900901999REMSYN11858338 04957 /1004 10048 20036 30177 40228 52005 69922 721// 333 10107 20003 3/004 54405 59023 69921 70002 90720 91109=
0254583380999992023020500004+31150+118583FM-12+001699999V0201001N004019999999N003900199+00521+00431102291ADDAA106000531AA212000531AA324000531AY101021AY201021KA1120M+01071KA2120N+00141MA1999999101781MD1210011+9999MW1101OD139900901999REMSYN11858338 04939 /1004 10052 20043 30178 40229 52001 69952 71000 333 10107 20014 3/004 54405 59034 69951 70005 90720 91109=
0248583380999992023020503004+31150+118583FM-12+001699999V0200901N004019999999N007000199+00781+00481102191ADDAA106000331AA212000531AA324000531AY101021AY201021KA1240M+01071KA2240N+00471MA1999999101681MD1710101-0421MW1101OD139900901999REMSYN11258338 04957 /0904 10078 20048 30168 40219 57010 69952 71000 333 10107 20047 3/004 59042 69931 70005 90720 91109=
0254583380999992023020506004+31150+118583FM-12+001699999V0200901N004019999999N008000199+00931+00491101991ADDAA106000091AA212000531AA324000531AY101021AY201021KA1240M+01071KA2240N+00471MA1999999101481MD1710201+9999MW1001OD139900901999REMSYN11858338 04958 /0904 10093 20049 30148 40199 57020 69952 70000 333 10107 20047 3/004 54415 59038 60001 70005 90720 91109=
0254583380999992023020509004+31150+118583FM-12+001699999V0201101N004019999999N006000199+00881+00571101951ADDAA106000091AA212000331AA324000531AY101021AY201021KA1240M+00981KA2240N+00471MA1999999101441MD1710041+9999MW1101OD139900801999REMSYN11858338 04956 /1104 10088 20057 30144 40195 57004 69932 71000 333 10098 20047 3/004 54415 59039 60001 70005 90720 91108=
0254583380999992023020512004+31150+118583FM-12+001699999V0200901N004019999999N005000199+00841+00591101931ADDAA106000091AA212000091AA324000531AY101021AY201021KA1240M+00981KA2240N+00471MA1999999101421MD1710021+9999MW1101OD139900801999REMSYN11858338 04950 /0904 10084 20059 30142 40193 57002 60002 71000 333 10098 20047 3/006 54405 59047 60001 70005 90720 91108=
0254583380999992023020518004+31150+118583FM-12+001699999V0200801N003019999999N001000199+00751+00691101861ADDAA106001031AA212001031AA324001731AY101021AY201021KA1120M+00981KA2120N+00471MA1999999101351MD1710091+9999MW1601OD139900701999REMSYN11858338 04910 /0803 10075 20069 30135 40186 57009 60012 76000 333 10098 20047 3/007 54405 59037 60011 70017 90720 91107=
0238583380999992023020521004+31150+118583FM-12+001699999V0200501N001019999999N000900199+00751+00711101831ADDAA106002031AA212002031AA324002431KA1240M+00981KA2240N+00471MA1999999101321MD1710031+9999MW1601OD139900701999REMSYN11858338 04909 /0501 10075 20071 30132 40183 57003 60022 760// 333 10098 20047 3/007 54405 59045 60021 70024 90720 91107=
0254583380999992023020600004+31150+118583FM-12+001699999V0203201N001019999999N000700199+00751+00721101971ADDAA106003031AA212004031AA324004031AY151021AY201021KA1120M+00981KA2120N+00521MA1999999101461MD1210141+9999MW1601OD139900701999REMSYN11858338 04907 /3201 10075 20072 30146 40197 52014 60042 76050 333 10098 20052 3/007 54405 59032 60031 70040 90720 91107=
0248583380999992023020603004+31150+118583FM-12+001699999V0203001N001019999999N000800199+00821+00781102021ADDAA106002031AA212004031AA324004331AY151021AY201021KA1240M+00981KA2240N+00741MA1999999101511MD1210051-0171MW1601OD139900401999REMSYN11258338 04908 /3001 10082 20078 30151 40202 52005 60042 76050 333 10098 20074 3/007 59017 60021 70043 90720 91104=
0254583380999992023020606004+31150+118583FM-12+001699999V0202901N001019999999N001600199+00881+00791101761ADDAA106000431AA212003031AA324004431AY101021AY201021KA1240M+00981KA2240N+00741MA1999999101251MD1710261+9999MW1101OD139900401999REMSYN11858338 04916 /2901 10088 20079 30125 40176 57026 60032 71000 333 10098 20074 3/007 54415 59023 69941 70044 90720 91104=
0248583380999992023020609004+31150+118583FM-12+001699999V0203001N001019999999N001900199+00901+00811101751ADDAA106000131AA212002031AA324004431AY101021AY201021KA1240M+00911KA2240N+00741MA1999999101241MD1710011-0201MW1101OD139900301999REMSYN11258338 04919 /3001 10090 20081 30124 40175 57001 60022 71000 333 10091 20074 3/007 59020 69911 70044 90720 91103=
0248583380999992023020612004+31150+118583FM-12+001699999V0200101N002019999999N000900199+00851+00811101871ADDAA106000231AA212000631AA324004631AY101021AY201021KA1240M+00911KA2240N+00741MA1999999101361MD1210121-0061MW1201OD139900301999REMSYN11258338 04909 /0102 10085 20081 30136 40187 52012 69962 72000 333 10091 20074 3/008 59006 69921 70046 90720 91103=
0254583380999992023020618004+31150+118583FM-12+001699999V0200101N001019999999N000300199+00841+00811102011ADDAA106000131AA212000331AA324003531AY101021AY201021KA1120M+00911KA2120N+00741MA1999999101501MD1210091+9999MW1461OD139900301999REMSYN11858338 04903 /0101 10084 20081 30150 40201 52009 69932 74600 333 10091 20074 3/008 54405 58015 69911 70035 90720 91103=
0238583380999992023020621004+31150+118583FM-12+001699999V0200601N002019999999N001600199+00831+00801102111ADDAA106000331AA212000631AA324002931KA1240M+00911KA2240N+00741MA1999999101601MD1210101+9999MW1101OD139900401999REMSYN11858338 04916 /0602 10083 20080 30160 40211 52010 69962 710// 333 10091 20074 3/008 54405 58028 69931 70029 90720 91104=
0254583380999992023020700004+31150+118583FM-12+001699999V0200501N002019999999N001200199+00831+00801102271ADDAA106000431AA212000531AA324001131AY101021AY201021KA1120M+00911KA2120N+00751MA1999999101761MD1210161+9999MW1101OD139900401999REMSYN11858338 04912 /0502 10083 20080 30176 40227 52016 69952 71000 333 10091 20075 3/008 54405 58030 69941 70011 90720 91104=
0254583380999992023020703004+31150+118583FM-12+001699999V0200901N002019999999N001800199+00891+00861102391ADDAA106000231AA212000531AA324000931AY101021AY201021KA1240M+00911KA2240N+00811MA1999999101881MD1210121+9999MW1101OD139900401999REMSYN11858338 04918 /0902 10089 20086 30188 40239 52012 69952 71000 333 10091 20081 3/008 54405 58037 69921 70009 90720 91104=
0254583380999992023020706004+31150+118583FM-12+001699999V0200901N003019999999N004100199+00961+00871102241ADDAA106000131AA212000531AA324000831AY101021AY201021KA1240M+00991KA2240N+00821MA1999999101731MD1710151+9999MW1101OD139900401999REMSYN11858338 04941 /0903 10096 20087 30173 40224 57015 69952 71000 333 10099 20082 3/008 54405 58048 69911 70008 90720 91104=
0254583380999992023020709004+31150+118583FM-12+001699999V0200601N002019999999N004100199+00951+00841102281ADDAA106000091AA212000231AA324000831AY101021AY201021KA1240M+00991KA2240N+00821MA1999999101771MD1210041+9999MW1101OD139900501999REMSYN11858338 04941 /0602 10095 20084 30177 40228 52004 69922 71000 333 10099 20082 3/008 54405 58053 60001 70008 90720 91105=
0254583380999992023020712004+31150+118583FM-12+001699999V0200601N002019999999N004200199+00911+00791102351ADDAA106000091AA212000131AA324000631AY101021AY201021KA1240M+00991KA2240N+00821MA1999999101841MD1210071+9999MW1101OD139900501999REMSYN11858338 04942 /0602 10091 20079 30184 40235 52007 69912 71000 333 10099 20082 3/008 54405 58048 60001 70006 90720 91105=
0248583380999992023020718004+31150+118583FM-12+001699999V0200601N003019999999N004900199+00821+00581102381ADDAA106000091AA212000091AA324000531AY101021AY201021KA1120M+00991KA2120N+00821MA1999999101871MD1710011+0371MW1101OD139900601999REMSYN11258338 04949 /0603 10082 20058 30187 40238 57001 60002 71000 333 10099 20082 3/007 58037 60001 70005 90720 91106=
0238583380999992023020721004+31150+118583FM-12+001699999V0200601N004019999999N006000199+00751+00501102351ADDAA106000091AA212000091AA324000231KA1240M+00991KA2240N+00751MA1999999101841MD1710031+9999MW1101OD139900701999REMSYN11858338 04956 /0604 10075 20050 30184 40235 57003 60002 710// 333 10099 20075 3/006 54415 58024 60001 70002 90720 91107=
0254583380999992023020800004+31150+118583FM-12+001699999V0200601N003019999999N008000199+00741+00401102561ADDAA106000091AA212000091AA324000131AY101021AY201021KA1120M+00991KA2120N+00721MA1999999102051MD1210211+9999MW1001OD139900901999REMSYN11858338 04958 /0603 10074 20040 30205 40256 52021 60002 70000 333 10099 20072 3/006 54415 58029 60001 70001 90720 91109=
0254583380999992023020803004+31150+118583FM-12+001699999V0201001N006019999999N007000199+00831+00381102601ADDAA106000091AA212000091AA324000091AY101021AY201021KA1240M+00991KA2240N+00721MA1999999102091MD1210041+9999MW1101OD139901201999REMSYN11858338 04957 /1006 10083 20038 30209 40260 52004 60002 71000 333 10099 20072 3/006 54415 58021 60001 70000 90720 91112=
0254583380999992023020806004+31150+118583FM-12+001699999V0200701N005019999999N002900199+00721+00541102501ADDAA106001031AA212001031AA324001031AY101021AY201021KA1240M+00981KA2240N+00721MA1999999101991MD1710101+9999MW1601OD139901201999REMSYN11858338 04929 /0705 10072 20054 30199 40250 57010 60012 76000 333 10098 20072 3/006 54415 58026 60011 70010 90720 91112=
0254583380999992023020809004+31150+118583FM-12+001699999V0200901N008019999999N003400199+00681+00411102391ADDAA106003031AA212003032AA324002732AY101021AY201021KA1240M+00951KA2240N+00661MA1999999101881MD1710111+9999MW1601OD139901201999REMSYN11858338 04934 /0908 10068 20041 30188 40239 57011 60032 76000 333 10095 20066 3/006 54415 58011 60031 70027 90720 91112=
0254583380999992023020812004+31150+118583FM-12+001699999V0200901N007019999999N004100199+00711+00421102411ADDAA106002031AA212003032AA324002732AY101021AY201021KA1240M+00911KA2240N+00661MA1999999101901MD1210021+9999MW1101OD139901201999REMSYN11858338 04941 /0907 10071 20042 30190 40241 52002 60032 71000 333 10091 20066 3/006 54415 58006 60021 70027 90720 91112=
0254583380999992023020818004+31150+118583FM-12+001699999V0200901N005019999999N010000199+00731+00481102231ADDAA106000131AA212002031AA324002831AY101021AY201021KA1120M+00851KA2120N+00661MA1999999101721MD1710181+9999MW1601OD139901201999REMSYN11858338 04960 /0905 10073 20048 30172 40223 57018 60022 76000 333 10085 20066 3/006 54415 59015 69911 70028 90720 91112=
0238583380999992023020821004+31150+118583FM-12+001699999V0200901N006019999999N004700199+00701+00601102071ADDAA106001031AA212001031AA324003931KA1240M+00851KA2240N+00661MA1999999101561MD1710161+9999MW1601OD139901301999REMSYN11858338 04947 /0906 10070 20060 30156 40207 57016 60012 760// 333 10085 20066 3/006 54415 59028 60011 70039 90720 91113=
0248583380999992023020900004+31150+118583FM-12+001699999V0201001N005019999999N003900199+00711+00651102081ADDAA106004031AA212004031AA324006431AY101021AY201021KA1120M+00851KA2120N+00661MA1999999101571MD1210011-0481MW1601OD139901301999REMSYN11258338 04939 /1005 10071 20065 30157 40208 52001 60042 76000 333 10085 20066 3/006 59048 60041 70064 90720 91113=
0254583380999992023020903004+31150+118583FM-12+001699999V0200901N003019999999N002500199+00781+00741102071ADDAA106006031AA212007031AA324009731AY101021AY201021KA1240M+00851KA2240N+00661MA1999999101561MD1710011+9999MW1601OD139901301999REMSYN11858338 04925 /0903 10078 20074 30156 40207 57001 60072 76000 333 10085 20066 3/006 54415 59053 60061 70097 90720 91113=
0254583380999992023020906004+31150+118583FM-12+001699999V0202801N001019999999N003700199+00851+00791101871ADDAA106006031AA212010031AA324011431AY101021AY201021KA1240M+00861KA2240N+00661MA1999999101361MD1710201+9999MW1601OD139901301999REMSYN11858338 04937 /2801 10085 20079 30136 40187 57020 60102 76000 333 10086 20066 3/006 54405 59063 60061 70114 90720 91113=
0254583380999992023020909004+31150+118583FM-12+001699999V0202801N004019999999N003400199+00781+00721101911ADDAA106003031AA212009031AA324010131AY151021AY201021KA1240M+00861KA2240N+00671MA1999999101401MD1210041+9999MW1601OD139901101999REMSYN11858338 04934 /2804 10078 20072 30140 40191 52004 60092 76050 333 10086 20067 3/006 54405 59048 60031 70101 90720 91111=
0254583380999992023020918004+31150+118583FM-12+001699999V0202801N003019999999N003000199+00651+00581102271ADDAA106000091AA212000531AA324010131AY101021AY201021KA1120M+00861KA2120N+00651MA1999999101761MD1210091+9999MW1101OD139900701999REMSYN11858338 04930 /2803 10065 20058 30176 40227 52009 69952 71000 333 10086 20065 3/006 54415 58004 60001 70101 90720 91107=
0238583380999992023020921004+31150+118583FM-12+001699999V0203001N001019999999N001900199+00621+00561102201ADDAA106000131AA212000231AA324009131KA1240M+00861KA2240N+00621MA1999999101691MD1710071+9999MW1101OD139900701999REMSYN11858338 04919 /3001 10062 20056 30169 40220 57007 69922 710// 333 10086 20062 3/006 54415 58013 69911 70091 90720 91107=
0254583380999992023021000004+31150+118583FM-12+001699999V0200101N002019999999N004400199+00601+00501102351ADDAA106000131AA212000131AA324006631AY101021AY201021KA1120M+00861KA2120N+00111MA1999999101841MD1210151+9999MW1101OD139900601999REMSYN11858338 04944 /0102 10060 20050 30184 40235 52015 69912 71000 333 10086 20011 3/006 54415 58027 69911 70066 90720 91106=
0254583380999992023021003004+31150+118583FM-12+001699999V0200301N002019999999N004200199+00681+00501102421ADDAA106000091AA212000131AA324003331AY101021AY201021KA1240M+00861KA2240N+00111MA1999999101911MD1210071+9999MW1101OD139900601999REMSYN11858338 04942 /0302 10068 20050 30191 40242 52007 69912 71000 333 10086 20011 3/006 54415 58035 60001 70033 90720 91106=
