0108583670999992023010100004+31198+121336FM-15+000399999V0209999V001012200019N006000199+00601+00101999999ADDGF100991999999999999999999MA1103301999999REMMET055METAR ZSSS 010000Z VRB01MPS 6000 NSC 06/01 Q1033 NOSIG=
0117583670999992023010100304+31198+121336FM-15+000399999V0201901N002012200019N005000199+00601+00101999999ADDGF100991999999999999999999MA1103301999999MW1051REMMET058METAR ZSSS 010030Z 19002MPS 5000 HZ NSC 06/01 Q1033 NOSIG=
0117583670999992023010101004+31198+121336FM-15+000399999V0201701N001012200019N005000199+00701+00001999999ADDGF100991999999999999999999MA1103301999999MW1051REMMET058METAR ZSSS 010100Z 17001MPS 5000 HZ NSC 07/00 Q1033 NOSIG=
0118583670999992023010101304+31198+121336FM-15+000399999V0201701N001012200019N005000199+00701+00001999999ADDGF100991999999999999999999MA1103401999999MW1051REMMET059METAR ZSSS 010130Z 17001MPS 5000 HZ NSC 07/M00 Q1034 NOSIG=
0109583670999992023010102004+31198+121336FM-15+000399999V0209999V001012200019N006000199+00701-00101999999ADDGF100991999999999999999999MA1103401999999REMMET056METAR ZSSS 010200Z VRB01MPS 6000 NSC 07/M01 Q1034 NOSIG=
0109583670999992023010102304+31198+121336FM-15+000399999V0201501N001012200019N006000199+00801+00001999999ADDGF100991999999999999999999MA1103301999999REMMET056METAR ZSSS 010230Z 15001MPS 6000 NSC 08/M00 Q1033 NOSIG=
0109583670999992023010103004+31198+121336FM-15+000399999V0209999V001012200019N006000199+00801-00101999999ADDGF100991999999999999999999MA1103301999999REMMET056METAR ZSSS 010300Z VRB01MPS 6000 NSC 08/M01 Q1033 NOSIG=
0109583670999992023010103304+31198+121336FM-15+000399999V0209999V001012200019N007000199+00801+00001999999ADDGF100991999999999999999999MA1103301999999REMMET056METAR ZSSS 010330Z VRB01MPS 7000 NSC 08/M00 Q1033 NOSIG=
0108583670999992023010104004+31198+121336FM-15+000399999V0209999V001012200019N007000199+00901+00001999999ADDGF100991999999999999999999MA1103201999999REMMET055METAR ZSSS 010400Z VRB01MPS 7000 NSC 09/00 Q1032 NOSIG=
0080583670999992023010104304+31198+121336FM-15+000399999V0209999V001019999999Y009900599+00901+00001999999ADDMA1103201999999REMMET053METAR ZSSS 010430Z VRB01MPS CAVOK 09/M00 Q1032 NOSIG=
0080583670999992023010105004+31198+121336FM-15+000399999V0209999V001019999999Y009900599+00901+00001999999ADDMA1103101999999REMMET053METAR ZSSS 010500Z VRB01MPS CAVOK 09/M00 Q1031 NOSIG=
0080583670999992023010105304+31198+121336FM-15+000399999V0209999V001019999999Y009900599+00901-00301999999ADDMA1103101999999REMMET053METAR ZSSS 010530Z VRB01MPS CAVOK 09/M03 Q1031 NOSIG=
0080583670999992023010106004+31198+121336FM-15+000399999V0209999V001019999999Y009900599+00901-00101999999ADDMA1103101999999REMMET053METAR ZSSS 010600Z VRB01MPS CAVOK 09/M01 Q1031 NOSIG=
0080583670999992023010106304+31198+121336FM-15+000399999V0209999V001019999999Y009900599+00901-00201999999ADDMA1103101999999REMMET053METAR ZSSS 010630Z VRB01MPS CAVOK 09/M02 Q1031 NOSIG=
0080583670999992023010107004+31198+121336FM-15+000399999V0200201N002019999999Y009900599+00901-00201999999ADDMA1103101999999REMMET053METAR ZSSS 010700Z 02002MPS CAVOK 09/M02 Q1031 NOSIG=
0080583670999992023010107304+31198+121336FM-15+000399999V0200201N003019999999Y009900599+00901-00301999999ADDMA1103101999999REMMET053METAR ZSSS 010730Z 02003MPS CAVOK 09/M03 Q1031 NOSIG=
0080583670999992023010108004+31198+121336FM-15+000399999V0200301N003019999999Y009900599+00901-00201999999ADDMA1103101999999REMMET053METAR ZSSS 010800Z 03003MPS CAVOK 09/M02 Q1031 NOSIG=
0080583670999992023010108304+31198+121336FM-15+000399999V0200401N003019999999Y009900599+00901-00301999999ADDMA1103101999999REMMET053METAR ZSSS 010830Z 04003MPS CAVOK 09/M03 Q1031 NOSIG=
0080583670999992023010109004+31198+121336FM-15+000399999V0200601N003019999999Y009900599+00801-00701999999ADDMA1103101999999REMMET053METAR ZSSS 010900Z 06003MPS CAVOK 08/M07 Q1031 NOSIG=
0080583670999992023010109304+31198+121336FM-15+000399999V0200801N002019999999Y009900599+00801-00701999999ADDMA1103101999999REMMET053METAR ZSSS 010930Z 08002MPS CAVOK 08/M07 Q1031 NOSIG=
0080583670999992023010110004+31198+121336FM-15+000399999V0200601N002019999999Y009900599+00801-00601999999ADDMA1103101999999REMMET053METAR ZSSS 011000Z 06002MPS CAVOK 08/M06 Q1031 NOSIG=
0080583670999992023010110304+31198+121336FM-15+000399999V0200601N001019999999Y009900599+00801-00701999999ADDMA1103201999999REMMET053METAR ZSSS 011030Z 06001MPS CAVOK 08/M07 Q1032 NOSIG=
0080583670999992023010111004+31198+121336FM-15+000399999V0203401N001019999999Y009900599+00801-00601999999ADDMA1103201999999REMMET053METAR ZSSS 011100Z 34001MPS CAVOK 08/M06 Q1032 NOSIG=
0080583670999992023010111304+31198+121336FM-15+000399999V0203601N002019999999Y009900599+00801-00601999999ADDMA1103301999999REMMET053METAR ZSSS 011130Z 36002MPS CAVOK 08/M06 Q1033 NOSIG=
0080583670999992023010112004+31198+121336FM-15+000399999V0200401N003019999999Y009900599+00801-00501999999ADDMA1103301999999REMMET053METAR ZSSS 011200Z 04003MPS CAVOK 08/M05 Q1033 NOSIG=
0080583670999992023010112304+31198+121336FM-15+000399999V0200101N002019999999Y009900599+00701-00401999999ADDMA1103301999999REMMET053METAR ZSSS 011230Z 01002MPS CAVOK 07/M04 Q1033 NOSIG=
0117583670999992023010113004+31198+121336FM-15+000399999V0200401V002012200019N008000199+00801-00601999999ADDGF100991999999999999999999MA1103301999999REMMET064METAR ZSSS 011300Z 04002MPS 360V080 8000 NSC 08/M06 Q1033 NOSIG=
0109583670999992023010113304+31198+121336FM-15+000399999V0200201N003012200019N008000199+00801-00501999999ADDGF100991999999999999999999MA1103301999999REMMET056METAR ZSSS 011330Z 02003MPS 8000 NSC 08/M05 Q1033 NOSIG=
0109583670999992023010114004+31198+121336FM-15+000399999V0200701N004012200019N008000199+00801-00601999999ADDGF100991999999999999999999MA1103201999999REMMET056METAR ZSSS 011400Z 07004MPS 8000 NSC 08/M06 Q1032 NOSIG=
0117583670999992023010114304+31198+121336FM-15+000399999V0200701V002012200019N008000199+00801-00601999999ADDGF100991999999999999999999MA1103301999999REMMET064METAR ZSSS 011430Z 07002MPS 040V100 8000 NSC 08/M06 Q1033 NOSIG=
0109583670999992023010115004+31198+121336FM-15+000399999V0201201N002012200019N008000199+00801-00601999999ADDGF100991999999999999999999MA1103301999999REMMET056METAR ZSSS 011500Z 12002MPS 8000 NSC 08/M06 Q1033 NOSIG=
0109583670999992023010115304+31198+121336FM-15+000399999V0209999V001012200019N008000199+00801-00501999999ADDGF100991999999999999999999MA1103301999999REMMET056METAR ZSSS 011530Z VRB01MPS 8000 NSC 08/M05 Q1033 NOSIG=
0109583670999992023010116004+31198+121336FM-15+000399999V0203601N003012200019N007000199+00701-00301999999ADDGF100991999999999999999999MA1103301999999REMMET056METAR ZSSS 011600Z 36003MPS 7000 NSC 07/M03 Q1033 NOSIG=
0109583670999992023010116304+31198+121336FM-15+000399999V0200101N003012200019N007000199+00701-00201999999ADDGF100991999999999999999999MA1103301999999REMMET056METAR ZSSS 011630Z 01003MPS 7000 NSC 07/M02 Q1033 NOSIG=
0109583670999992023010117004+31198+121336FM-15+000399999V0200101N003012200019N006000199+00701-00201999999ADDGF100991999999999999999999MA1103401999999REMMET056METAR ZSSS 011700Z 01003MPS 6000 NSC 07/M02 Q1034 NOSIG=
0109583670999992023010117304+31198+121336FM-15+000399999V0200201N003012200019N006000199+00701-00201999999ADDGF100991999999999999999999MA1103301999999REMMET056METAR ZSSS 011730Z 02003MPS 6000 NSC 07/M02 Q1033 NOSIG=
0109583670999992023010118004+31198+121336FM-15+000399999V0200601N002012200019N006000199+00701-00201999999ADDGF100991999999999999999999MA1103301999999REMMET056METAR ZSSS 011800Z 06002MPS 6000 NSC 07/M02 Q1033 NOSIG=
0109583670999992023010118304+31198+121336FM-15+000399999V0200601N001012200019N006000199+00701-00201999999ADDGF100991999999999999999999MA1103301999999REMMET056METAR ZSSS 011830Z 06001MPS 6000 NSC 07/M02 Q1033 NOSIG=
0109583670999992023010119004+31198+121336FM-15+000399999V0203501N002012200019N007000199+00701-00101999999ADDGF100991999999999999999999MA1103301999999REMMET056METAR ZSSS 011900Z 35002MPS 7000 NSC 07/M01 Q1033 NOSIG=
0109583670999992023010119304+31198+121336FM-15+000399999V0203501N003012200019N007000199+00701-00101999999ADDGF100991999999999999999999MA1103301999999REMMET056METAR ZSSS 011930Z 35003MPS 7000 NSC 07/M01 Q1033 NOSIG=
0109583670999992023010120004+31198+121336FM-15+000399999V0203401N002012200019N007000199+00601-00101999999ADDGF100991999999999999999999MA1103301999999REMMET056METAR ZSSS 012000Z 34002MPS 7000 NSC 06/M01 Q1033 NOSIG=
0109583670999992023010120304+31198+121336FM-15+000399999V0203401N002012200019N007000199+00701-00101999999ADDGF100991999999999999999999MA1103301999999REMMET056METAR ZSSS 012030Z 34002MPS 7000 NSC 07/M01 Q1033 NOSIG=
0109583670999992023010121004+31198+121336FM-15+000399999V0203301N002012200019N007000199+00701-00101999999ADDGF100991999999999999999999MA1103301999999REMMET056METAR ZSSS 012100Z 33002MPS 7000 NSC 07/M01 Q1033 NOSIG=
0117583670999992023010121304+31198+121336FM-15+000399999V0203501V002012200019N007000199+00701-00101999999ADDGF100991999999999999999999MA1103301999999REMMET064METAR ZSSS 012130Z 35002MPS 320V020 7000 NSC 07/M01 Q1033 NOSIG=
0109583670999992023010122004+31198+121336FM-15+000399999V0203601N003012200019N007000199+00601-00101999999ADDGF100991999999999999999999MA1103301999999REMMET056METAR ZSSS 012200Z 36003MPS 7000 NSC 06/M01 Q1033 NOSIG=
0150583670999992023010122304+31198+121336FM-15+000399999V0200101N00101012191CN007000199+00601-00101999999ADDGA1081+012191999GE19AGL   +99999+99999GF199999081999012191999999MA1103301999999REMMET059METAR ZSSS 012230Z 01001MPS 7000 OVC040 06/M01 Q1033 NOSIG=
0150583670999992023010123004+31198+121336FM-15+000399999V0203601N00201012191CN007000199+00601-00101999999ADDGA1081+012191999GE19AGL   +99999+99999GF199999081999012191999999MA1103301999999REMMET059METAR ZSSS 012300Z 36002MPS 7000 OVC040 06/M01 Q1033 NOSIG=
0150583670999992023010123304+31198+121336FM-15+000399999V0203601N00201012191CN006000199+00601+00001999999ADDGA1071+012191999GE19AGL   +99999+99999GF199999071999012191999999MA1103301999999REMMET059METAR ZSSS 012330Z 36002MPS 6000 BKN040 06/M00 Q1033 NOSIG=
0158583670999992023010200004+31198+121336FM-15+000399999V0203601N003019999999N005000199+00701+00201999999ADDGA1041+006101999GE19AGL   +99999+99999GF199999041999006101999999MA1103301999999MW1051REMMET061METAR ZSSS 020000Z 36003MPS 5000 HZ SCT020 07/02 Q1033 NOSIG=
0158583670999992023010200304+31198+121336FM-15+000399999V0203601N004019999999N005000199+00701+00301999999ADDGA1041+006101999GE19AGL   +99999+99999GF199999041999006101999999MA1103401999999MW1051REMMET061METAR ZSSS 020030Z 36004MPS 5000 HZ SCT020 07/03 Q1034 NOSIG=
0117583670999992023010201004+31198+121336FM-15+000399999V0203601N004012200019N005000199+00801+00301999999ADDGF100991999999999999999999MA1103401999999MW1051REMMET058METAR ZSSS 020100Z 36004MPS 5000 HZ NSC 08/03 Q1034 NOSIG=
0125583670999992023010201304+31198+121336FM-15+000399999V0200201V002012200019N005000199+00801+00301999999ADDGF100991999999999999999999MA1103401999999MW1051REMMET066METAR ZSSS 020130Z 02002MPS 350V050 5000 HZ NSC 08/03 Q1034 NOSIG=
0117583670999992023010202004+31198+121336FM-15+000399999V0200201N003012200019N005000199+00901+00401999999ADDGF100991999999999999999999MA1103401999999MW1051REMMET058METAR ZSSS 020200Z 02003MPS 5000 HZ NSC 09/04 Q1034 NOSIG=
0117583670999992023010202304+31198+121336FM-15+000399999V0200301N003012200019N005000199+00901+00301999999ADDGF100991999999999999999999MA1103301999999MW1051REMMET058METAR ZSSS 020230Z 03003MPS 5000 HZ NSC 09/03 Q1033 NOSIG=
0108583670999992023010203004+31198+121336FM-15+000399999V0200201N004012200019N006000199+00901+00201999999ADDGF100991999999999999999999MA1103401999999REMMET055METAR ZSSS 020300Z 02004MPS 6000 NSC 09/02 Q1034 NOSIG=
0149583670999992023010203304+31198+121336FM-15+000399999V0200301N004019999999N007000199+00901+00201999999ADDGA1021+012191999GE19AGL   +99999+99999GF199999021999012191999999MA1103301999999REMMET058METAR ZSSS 020330Z 03004MPS 7000 FEW040 09/02 Q1033 NOSIG=
0149583670999992023010204004+31198+121336FM-15+000399999V0200301N005019999999N007000199+00901+00301999999ADDGA1021+012191999GE19AGL   +99999+99999GF199999021999012191999999MA1103301999999REMMET058METAR ZSSS 020400Z 03005MPS 7000 FEW040 09/03 Q1033 NOSIG=
0149583670999992023010204304+31198+121336FM-15+000399999V0200301N004019999999N007000199+00901+00301999999ADDGA1041+007011999GE19AGL   +99999+99999GF199999041999007011999999MA1103301999999REMMET058METAR ZSSS 020430Z 03004MPS 7000 SCT023 09/03 Q1033 NOSIG=
0157583670999992023010205004+31198+121336FM-15+000399999V0200401V00401007011CN007000199+00901+00301999999ADDGA1071+007011999GE19AGL   +99999+99999GF199999071999007011999999MA1103201999999REMMET066METAR ZSSS 020500Z 04004MPS 010V070 7000 BKN023 09/03 Q1032 NOSIG=
0157583670999992023010205304+31198+121336FM-15+000399999V0200401V00301007011CN007000199+00901+00401999999ADDGA1071+007011999GE19AGL   +99999+99999GF199999071999007011999999MA1103201999999REMMET066METAR ZSSS 020530Z 04003MPS 020V100 7000 BKN023 09/04 Q1032 NOSIG=
0157583670999992023010206004+31198+121336FM-15+000399999V0200501V00301007011CN007000199+00901+00301999999ADDGA1071+007011999GE19AGL   +99999+99999GF199999071999007011999999MA1103101999999REMMET066METAR ZSSS 020600Z 05003MPS 010V100 7000 BKN023 09/03 Q1031 NOSIG=
0159583670999992023010206304+31198+121336FM-15+000399999V0200301N00401006101CN007000199+00801+00501999999ADDGA1071+006101999GE19AGL   +99999+99999GF199999071999006101999999MA1103201999999MW1611REMMET062METAR ZSSS 020630Z 03004MPS 7000 -RA BKN020 08/05 Q1032 NOSIG=
0159583670999992023010207004+31198+121336FM-15+000399999V0209999V001019999999N007000199+00801+00501999999ADDGA1021+007011999GE19AGL   +99999+99999GF199999021999007011999999MA1103201999999MW1611REMMET062METAR ZSSS 020700Z VRB01MPS 7000 -RA FEW023 08/05 Q1032 NOSIG=
0149583670999992023010207304+31198+121336FM-15+000399999V0200501N00301012191CN008000199+00801+00501999999ADDGA1081+012191999GE19AGL   +99999+99999GF199999081999012191999999MA1103201999999REMMET058METAR ZSSS 020730Z 05003MPS 8000 OVC040 08/05 Q1032 NOSIG=
0079583670999992023010208004+31198+121336FM-15+000399999V0200301N003019999999Y009900599+00801+00501999999ADDMA1103301999999REMMET052METAR ZSSS 020800Z 03003MPS CAVOK 08/05 Q1033 NOSIG=
0157583670999992023010208304+31198+121336FM-15+000399999V0200401V00301010061CN009999199+00801+00401999999ADDGA1081+010061999GE19AGL   +99999+99999GF199999081999010061999999MA1103301999999REMMET066METAR ZSSS 020830Z 04003MPS 010V070 9999 OVC033 08/04 Q1033 NOSIG=
0157583670999992023010209004+31198+121336FM-15+000399999V0200401V00301009141CN009999199+00801+00401999999ADDGA1081+009141999GE19AGL   +99999+99999GF199999081999009141999999MA1103301999999REMMET066METAR ZSSS 020900Z 04003MPS 020V090 9999 OVC030 08/04 Q1033 NOSIG=
0157583670999992023010209304+31198+121336FM-15+000399999V0200401V00501009141CN009999199+00801+00301999999ADDGA1081+009141999GE19AGL   +99999+99999GF199999081999009141999999MA1103301999999REMMET066METAR ZSSS 020930Z 04005MPS 020V080 9999 OVC030 08/03 Q1033 NOSIG=
0149583670999992023010210004+31198+121336FM-15+000399999V0200501N00501009141CN009999199+00801+00201999999ADDGA1071+009141999GE19AGL   +99999+99999GF199999071999009141999999MA1103301999999REMMET058METAR ZSSS 021000Z 05005MPS 9999 BKN030 08/02 Q1033 NOSIG=
0149583670999992023010210304+31198+121336FM-15+000399999V0200501N004019999999N009999199+00701+00201999999ADDGA1021+009141999GE19AGL   +99999+99999GF199999021999009141999999MA1103401999999REMMET058METAR ZSSS 021030Z 05004MPS 9999 FEW030 07/02 Q1034 NOSIG=
0079583670999992023010211004+31198+121336FM-15+000399999V0200601N005019999999Y009900599+00701+00201999999ADDMA1103401999999REMMET052METAR ZSSS 021100Z 06005MPS CAVOK 07/02 Q1034 NOSIG=
0079583670999992023010211304+31198+121336FM-15+000399999V0200501N004019999999Y009900599+00701+00201999999ADDMA1103401999999REMMET052METAR ZSSS 021130Z 05004MPS CAVOK 07/02 Q1034 NOSIG=
0079583670999992023010212004+31198+121336FM-15+000399999V0200501N005019999999Y009900599+00701+00201999999ADDMA1103301999999REMMET052METAR ZSSS 021200Z 05005MPS CAVOK 07/02 Q1033 NOSIG=
0079583670999992023010212304+31198+121336FM-15+000399999V0200401N004019999999Y009900599+00701+00201999999ADDMA1103401999999REMMET052METAR ZSSS 021230Z 04004MPS CAVOK 07/02 Q1034 NOSIG=
0079583670999992023010213004+31198+121336FM-15+000399999V0200401N004019999999Y009900599+00701+00101999999ADDMA1103401999999REMMET052METAR ZSSS 021300Z 04004MPS CAVOK 07/01 Q1034 NOSIG=
0079583670999992023010213304+31198+121336FM-15+000399999V0200401N003019999999Y009900599+00701+00101999999ADDMA1103401999999REMMET052METAR ZSSS 021330Z 04003MPS CAVOK 07/01 Q1034 NOSIG=
0079583670999992023010214004+31198+121336FM-15+000399999V0200501N003019999999Y009900599+00701+00101999999ADDMA1103401999999REMMET052METAR ZSSS 021400Z 05003MPS CAVOK 07/01 Q1034 NOSIG=
0079583670999992023010214304+31198+121336FM-15+000399999V0200301N004019999999Y009900599+00701+00101999999ADDMA1103401999999REMMET052METAR ZSSS 021430Z 03004MPS CAVOK 07/01 Q1034 NOSIG=
0079583670999992023010215004+31198+121336FM-15+000399999V0200301N002019999999Y009900599+00601+00101999999ADDMA1103401999999REMMET052METAR ZSSS 021500Z 03002MPS CAVOK 06/01 Q1034 NOSIG=
0079583670999992023010215304+31198+121336FM-15+000399999V0203601N004019999999Y009900599+00601+00101999999ADDMA1103401999999REMMET052METAR ZSSS 021530Z 36004MPS CAVOK 06/01 Q1034 NOSIG=
0079583670999992023010216004+31198+121336FM-15+000399999V0200201N003019999999Y009900599+00601+00101999999ADDMA1103401999999REMMET052METAR ZSSS 021600Z 02003MPS CAVOK 06/01 Q1034 NOSIG=
0079583670999992023010216304+31198+121336FM-15+000399999V0200201N003019999999Y009900599+00601+00101999999ADDMA1103401999999REMMET052METAR ZSSS 021630Z 02003MPS CAVOK 06/01 Q1034 NOSIG=
0079583670999992023010217004+31198+121336FM-15+000399999V0200101N003019999999Y009900599+00601+00101999999ADDMA1103401999999REMMET052METAR ZSSS 021700Z 01003MPS CAVOK 06/01 Q1034 NOSIG=
0079583670999992023010217304+31198+121336FM-15+000399999V0203601N003019999999Y009900599+00601+00101999999ADDMA1103401999999REMMET052METAR ZSSS 021730Z 36003MPS CAVOK 06/01 Q1034 NOSIG=
0079583670999992023010218004+31198+121336FM-15+000399999V0203601N002019999999Y009900599+00501+00201999999ADDMA1103401999999REMMET052METAR ZSSS 021800Z 36002MPS CAVOK 05/02 Q1034 NOSIG=
0079583670999992023010218304+31198+121336FM-15+000399999V0203501N003019999999Y009900599+00601+00201999999ADDMA1103401999999REMMET052METAR ZSSS 021830Z 35003MPS CAVOK 06/02 Q1034 NOSIG=
0079583670999992023010219004+31198+121336FM-15+000399999V0200101N003019999999Y009900599+00501+00201999999ADDMA1103301999999REMMET052METAR ZSSS 021900Z 01003MPS CAVOK 05/02 Q1033 NOSIG=
0079583670999992023010219304+31198+121336FM-15+000399999V0203501N003019999999Y009900599+00501+00201999999ADDMA1103301999999REMMET052METAR ZSSS 021930Z 35003MPS CAVOK 05/02 Q1033 NOSIG=
0079583670999992023010220004+31198+121336FM-15+000399999V0203601N002019999999Y009900599+00501+00201999999ADDMA1103301999999REMMET052METAR ZSSS 022000Z 36002MPS CAVOK 05/02 Q1033 NOSIG=
0079583670999992023010220304+31198+121336FM-15+000399999V0203501N002019999999Y009900599+00501+00201999999ADDMA1103301999999REMMET052METAR ZSSS 022030Z 35002MPS CAVOK 05/02 Q1033 NOSIG=
0079583670999992023010221004+31198+121336FM-15+000399999V0203501N003019999999Y009900599+00501+00201999999ADDMA1103301999999REMMET052METAR ZSSS 022100Z 35003MPS CAVOK 05/02 Q1033 NOSIG=
0079583670999992023010221304+31198+121336FM-15+000399999V0203501N002019999999Y009900599+00501+00201999999ADDMA1103301999999REMMET052METAR ZSSS 022130Z 35002MPS CAVOK 05/02 Q1033 NOSIG=
0079583670999992023010222004+31198+121336FM-15+000399999V0203501N002019999999Y009900599+00501+00201999999ADDMA1103401999999REMMET052METAR ZSSS 022200Z 35002MPS CAVOK 05/02 Q1034 NOSIG=
0079583670999992023010222304+31198+121336FM-15+000399999V0200101N003019999999Y009900599+00501+00201999999ADDMA1103401999999REMMET052METAR ZSSS 022230Z 01003MPS CAVOK 05/02 Q1034 NOSIG=
0079583670999992023010223004+31198+121336FM-15+000399999V0203601N003019999999Y009900599+00501+00101999999ADDMA1103401999999REMMET052METAR ZSSS 022300Z 36003MPS CAVOK 05/01 Q1034 NOSIG=
0079583670999992023010223304+31198+121336FM-15+000399999V0203601N003019999999Y009900599+00401+00101999999ADDMA1103401999999REMMET052METAR ZSSS 022330Z 36003MPS CAVOK 04/01 Q1034 NOSIG=
0079583670999992023010300004+31198+121336FM-15+000399999V0203601N003019999999Y009900599+00501+00201999999ADDMA1103401999999REMMET052METAR ZSSS 030000Z 36003MPS CAVOK 05/02 Q1034 NOSIG=
0087583670999992023010300304+31198+121336FM-15+000399999V0203601V003019999999Y009900599+00601+00201999999ADDMA1103501999999REMMET060METAR ZSSS 030030Z 36003MPS 330V030 CAVOK 06/02 Q1035 NOSIG=
0087583670999992023010301004+31198+121336FM-15+000399999V0203601V002019999999Y009900599+00701+00101999999ADDMA1103501999999REMMET060METAR ZSSS 030100Z 36002MPS 330V040 CAVOK 07/01 Q1035 NOSIG=
0087583670999992023010301304+31198+121336FM-15+000399999V0200301V002019999999Y009900599+00801+00101999999ADDMA1103501999999REMMET060METAR ZSSS 030130Z 03002MPS 320V060 CAVOK 08/01 Q1035 NOSIG=
0157583670999992023010302004+31198+121336FM-15+000399999V0200701V00201007921CN009999199+00701+00001999999ADDGA1071+007921999GE19AGL   +99999+99999GF199999071999007921999999MA1103501999999REMMET066METAR ZSSS 030200Z 07002MPS 030V110 9999 BKN026 07/00 Q1035 NOSIG=
0149583670999992023010302304+31198+121336FM-15+000399999V0209999V002019999999N009999199+00901+00101999999ADDGA1041+007921999GE19AGL   +99999+99999GF199999041999007921999999MA1103401999999REMMET058METAR ZSSS 030230Z VRB02MPS 9999 SCT026 09/01 Q1034 NOSIG=
0158583670999992023010303004+31198+121336FM-15+000399999V0200501V003019999999N009999199+01001-00101999999ADDGA1041+010061999GE19AGL   +99999+99999GF199999041999010061999999MA1103401999999REMMET067METAR ZSSS 030300Z 05003MPS 020V090 9999 SCT033 10/M01 Q1034 NOSIG=
0158583670999992023010303304+31198+121336FM-15+000399999V0200401V003019999999N009999199+01001-00101999999ADDGA1021+010061999GE19AGL   +99999+99999GF199999021999010061999999MA1103301999999REMMET067METAR ZSSS 030330Z 04003MPS 010V080 9999 FEW033 10/M01 Q1033 NOSIG=
0158583670999992023010304004+31198+121336FM-15+000399999V0201301V002019999999N009999199+01001-00101999999ADDGA1021+010061999GE19AGL   +99999+99999GF199999021999010061999999MA1103301999999REMMET067METAR ZSSS 030400Z 13002MPS 050V220 9999 FEW033 10/M01 Q1033 NOSIG=
0158583670999992023010304304+31198+121336FM-15+000399999V0203501V002019999999N009999199+01101-00301999999ADDGA1021+010061999GE19AGL   +99999+99999GF199999021999010061999999MA1103301999999REMMET067METAR ZSSS 030430Z 35002MPS 270V080 9999 FEW033 11/M03 Q1033 NOSIG=
0150583670999992023010305004+31198+121336FM-15+000399999V0209999V002019999999N009999199+01001-00301999999ADDGA1021+010061999GE19AGL   +99999+99999GF199999021999010061999999MA1103201999999REMMET059METAR ZSSS 030500Z VRB02MPS 9999 FEW033 10/M03 Q1032 NOSIG=
0158583670999992023010305304+31198+121336FM-15+000399999V0200201V003019999999N009999199+01001-00401999999ADDGA1021+010061999GE19AGL   +99999+99999GF199999021999010061999999MA1103101999999REMMET067METAR ZSSS 030530Z 02003MPS 320V070 9999 FEW033 10/M04 Q1031 NOSIG=
0080583670999992023010306004+31198+121336FM-15+000399999V0209999V001019999999Y009900599+01001-00401999999ADDMA1103101999999REMMET053METAR ZSSS 030600Z VRB01MPS CAVOK 10/M04 Q1031 NOSIG=
0080583670999992023010306304+31198+121336FM-15+000399999V0209999V002019999999Y009900599+01101-00501999999ADDMA1103101999999REMMET053METAR ZSSS 030630Z VRB02MPS CAVOK 11/M05 Q1031 NOSIG=
0088583670999992023010307004+31198+121336FM-15+000399999V0200401V003019999999Y009900599+01001-00401999999ADDMA1103101999999REMMET061METAR ZSSS 030700Z 04003MPS 300V080 CAVOK 10/M04 Q1031 NOSIG=
0088583670999992023010307304+31198+121336FM-15+000399999V0200201V002019999999Y009900599+01001-00401999999ADDMA1103101999999REMMET061METAR ZSSS 030730Z 02002MPS 330V110 CAVOK 10/M04 Q1031 NOSIG=
0088583670999992023010308004+31198+121336FM-15+000399999V0200601V003019999999Y009900599+01001-00501999999ADDMA1103101999999REMMET061METAR ZSSS 030800Z 06003MPS 020V100 CAVOK 10/M05 Q1031 NOSIG=
0080583670999992023010308304+31198+121336FM-15+000399999V0209999V002019999999Y009900599+00901-00401999999ADDMA1103101999999REMMET053METAR ZSSS 030830Z VRB02MPS CAVOK 09/M04 Q1031 NOSIG=
0088583670999992023010309004+31198+121336FM-15+000399999V0200601V002019999999Y009900599+00901-00401999999ADDMA1103201999999REMMET061METAR ZSSS 030900Z 06002MPS 020V090 CAVOK 09/M04 Q1032 NOSIG=
0080583670999992023010309304+31198+121336FM-15+000399999V0200301N003019999999Y009900599+00801-00401999999ADDMA1103201999999REMMET053METAR ZSSS 030930Z 03003MPS CAVOK 08/M04 Q1032 NOSIG=
0080583670999992023010310004+31198+121336FM-15+000399999V0200401N003019999999Y009900599+00801-00401999999ADDMA1103201999999REMMET053METAR ZSSS 031000Z 04003MPS CAVOK 08/M04 Q1032 NOSIG=
0088583670999992023010310304+31198+121336FM-15+000399999V0200701V002019999999Y009900599+00801-00301999999ADDMA1103201999999REMMET061METAR ZSSS 031030Z 07002MPS 040V100 CAVOK 08/M03 Q1032 NOSIG=
0088583670999992023010311004+31198+121336FM-15+000399999V0201201V002019999999Y009900599+00701-00401999999ADDMA1103201999999REMMET061METAR ZSSS 031100Z 12002MPS 090V150 CAVOK 07/M04 Q1032 NOSIG=
0080583670999992023010311304+31198+121336FM-15+000399999V0201401N004019999999Y009900599+00601-00101999999ADDMA1103201999999REMMET053METAR ZSSS 031130Z 14004MPS CAVOK 06/M01 Q1032 NOSIG=
0080583670999992023010312004+31198+121336FM-15+000399999V0201101N003019999999Y009900599+00601+00001999999ADDMA1103201999999REMMET053METAR ZSSS 031200Z 11003MPS CAVOK 06/M00 Q1032 NOSIG=
0088583670999992023010312304+31198+121336FM-15+000399999V0201301V002019999999Y009900599+00501+00001999999ADDMA1103301999999REMMET061METAR ZSSS 031230Z 13002MPS 100V160 CAVOK 05/M00 Q1033 NOSIG=
0080583670999992023010313004+31198+121336FM-15+000399999V0201101N003019999999Y009900599+00601-00101999999ADDMA1103301999999REMMET053METAR ZSSS 031300Z 11003MPS CAVOK 06/M01 Q1033 NOSIG=
0080583670999992023010313304+31198+121336FM-15+000399999V0201101N002019999999Y009900599+00501-00101999999ADDMA1103301999999REMMET053METAR ZSSS 031330Z 11002MPS CAVOK 05/M01 Q1033 NOSIG=
0080583670999992023010314004+31198+121336FM-15+000399999V0201501N001019999999Y009900599+00401-00101999999ADDMA1103301999999REMMET053METAR ZSSS 031400Z 15001MPS CAVOK 04/M01 Q1033 NOSIG=
0080583670999992023010314304+31198+121336FM-15+000399999V0201701N002019999999Y009900599+00401+00001999999ADDMA1103301999999REMMET053METAR ZSSS 031430Z 17002MPS CAVOK 04/M00 Q1033 NOSIG=
0079583670999992023010315004+31198+121336FM-15+000399999V0201601N002019999999Y009900599+00401+00001999999ADDMA1103301999999REMMET052METAR ZSSS 031500Z 16002MPS CAVOK 04/00 Q1033 NOSIG=
0079583670999992023010315304+31198+121336FM-15+000399999V0201301N001019999999Y009900599+00401+00001999999ADDMA1103301999999REMMET052METAR ZSSS 031530Z 13001MPS CAVOK 04/00 Q1033 NOSIG=
0079583670999992023010316004+31198+121336FM-15+000399999V0209999V001019999999Y009900599+00301+00001999999ADDMA1103201999999REMMET052METAR ZSSS 031600Z VRB01MPS CAVOK 03/00 Q1032 NOSIG=
0079583670999992023010316304+31198+121336FM-15+000399999V0201801N001019999999Y009900599+00301+00101999999ADDMA1103201999999REMMET052METAR ZSSS 031630Z 18001MPS CAVOK 03/01 Q1032 NOSIG=
0079583670999992023010317004+31198+121336FM-15+000399999V0201801N001019999999Y009900599+00301+00101999999ADDMA1103201999999REMMET052METAR ZSSS 031700Z 18001MPS CAVOK 03/01 Q1032 NOSIG=
0079583670999992023010317304+31198+121336FM-15+000399999V0201801N002019999999Y009900599+00301+00001999999ADDMA1103201999999REMMET052METAR ZSSS 031730Z 18002MPS CAVOK 03/00 Q1032 NOSIG=
0079583670999992023010318004+31198+121336FM-15+000399999V0201801N001019999999Y009900599+00301+00101999999ADDMA1103201999999REMMET052METAR ZSSS 031800Z 18001MPS CAVOK 03/01 Q1032 NOSIG=
0079583670999992023010318304+31198+121336FM-15+000399999V0202001N001019999999Y009900599+00301+00101999999ADDMA1103201999999REMMET052METAR ZSSS 031830Z 20001MPS CAVOK 03/01 Q1032 NOSIG=
0080583670999992023010319004+31198+121336FM-15+000399999V0201901N001019999999Y009900599+00201+00001999999ADDMA1103201999999REMMET053METAR ZSSS 031900Z 19001MPS CAVOK 02/M00 Q1032 NOSIG=
0079583670999992023010319304+31198+121336FM-15+000399999V0209999C000019999999Y009900599+00201+00001999999ADDMA1103201999999REMMET052METAR ZSSS 031930Z 00000MPS CAVOK 02/00 Q1032 NOSIG=
0080583670999992023010320004+31198+121336FM-15+000399999V0209999C000019999999Y009900599+00101+00001999999ADDMA1103201999999REMMET053METAR ZSSS 032000Z 00000MPS CAVOK 01/M00 Q1032 NOSIG=
0080583670999992023010320304+31198+121336FM-15+000399999V0209999C000019999999Y009900599+00101+00001999999ADDMA1103201999999REMMET053METAR ZSSS 032030Z 00000MPS CAVOK 01/M00 Q1032 NOSIG=
0079583670999992023010321004+31198+121336FM-15+000399999V0209999C000019999999Y009900599+00101+00001999999ADDMA1103201999999REMMET052METAR ZSSS 032100Z 00000MPS CAVOK 01/00 Q1032 NOSIG=
0108583670999992023010321304+31198+121336FM-15+000399999V0201901N001012200019N008000199+00101+00001999999ADDGF100991999999999999999999MA1103201999999REMMET055METAR ZSSS 032130Z 19001MPS 8000 NSC 01/00 Q1032 NOSIG=
0108583670999992023010322004+31198+121336FM-15+000399999V0209999C000012200019N008000199+00101+00101999999ADDGF100991999999999999999999MA1103201999999REMMET055METAR ZSSS 032200Z 00000MPS 8000 NSC 01/01 Q1032 NOSIG=
0080583670999992023010322304+31198+121336FM-15+000399999V0209999C000019999999Y009900599+00001+00001999999ADDMA1103301999999REMMET053METAR ZSSS 032230Z 00000MPS CAVOK 00/M00 Q1033 NOSIG=
0080583670999992023010323004+31198+121336FM-15+000399999V0209999C000019999999Y009900599+00001+00001999999ADDMA1103301999999REMMET053METAR ZSSS 032300Z 00000MPS CAVOK 00/M00 Q1033 NOSIG=
0079583670999992023010323304+31198+121336FM-15+000399999V0209999C000019999999Y009900599+00101+00001999999ADDMA1103301999999REMMET052METAR ZSSS 032330Z 00000MPS CAVOK 01/00 Q1033 NOSIG=
0079583670999992023010400004+31198+121336FM-15+000399999V0209999C000019999999Y009900599+00301+00201999999ADDMA1103301999999REMMET052METAR ZSSS 040000Z 00000MPS CAVOK 03/02 Q1033 NOSIG=
0079583670999992023010400304+31198+121336FM-15+000399999V0209999V001019999999Y009900599+00501+00201999999ADDMA1103301999999REMMET052METAR ZSSS 040030Z VRB01MPS CAVOK 05/02 Q1033 NOSIG=
0079583670999992023010401004+31198+121336FM-15+000399999V0209999V001019999999Y009900599+00801+00001999999ADDMA1103301999999REMMET052METAR ZSSS 040100Z VRB01MPS CAVOK 08/00 Q1033 NOSIG=
0080583670999992023010401304+31198+121336FM-15+000399999V0209999V001019999999Y009900599+00901+00001999999ADDMA1103301999999REMMET053METAR ZSSS 040130Z VRB01MPS CAVOK 09/M00 Q1033 NOSIG=
0080583670999992023010402004+31198+121336FM-15+000399999V0209999V002019999999Y009900599+00901+00001999999ADDMA1103301999999REMMET053METAR ZSSS 040200Z VRB02MPS CAVOK 09/M00 Q1033 NOSIG=
0088583670999992023010402304+31198+121336FM-15+000399999V0200101V002019999999Y009900599+01001-00101999999ADDMA1103301999999REMMET061METAR ZSSS 040230Z 01002MPS 290V060 CAVOK 10/M01 Q1033 NOSIG=
0088583670999992023010403004+31198+121336FM-15+000399999V0200401V002019999999Y009900599+01001-00301999999ADDMA1103301999999REMMET061METAR ZSSS 040300Z 04002MPS 010V070 CAVOK 10/M03 Q1033 NOSIG=
0080583670999992023010403304+31198+121336FM-15+000399999V0209999V002019999999Y009900599+01001-00401999999ADDMA1103201999999REMMET053METAR ZSSS 040330Z VRB02MPS CAVOK 10/M04 Q1032 NOSIG=
0080583670999992023010404004+31198+121336FM-15+000399999V0209999V002019999999Y009900599+01101-00501999999ADDMA1103201999999REMMET053METAR ZSSS 040400Z VRB02MPS CAVOK 11/M05 Q1032 NOSIG=
0088583670999992023010404304+31198+121336FM-15+000399999V0201101V002019999999Y009900599+01101-00601999999ADDMA1103101999999REMMET061METAR ZSSS 040430Z 11002MPS 040V170 CAVOK 11/M06 Q1031 NOSIG=
0088583670999992023010405004+31198+121336FM-15+000399999V0201401V003019999999Y009900599+01201-00601999999ADDMA1103101999999REMMET061METAR ZSSS 040500Z 14003MPS 100V170 CAVOK 12/M06 Q1031 NOSIG=
0088583670999992023010405304+31198+121336FM-15+000399999V0201501V003019999999Y009900599+01201-00801999999ADDMA1103001999999REMMET061METAR ZSSS 040530Z 15003MPS 120V180 CAVOK 12/M08 Q1030 NOSIG=
0099583670999992023010406004+31198+121336FM-15+000399999V0201301V004019999999Y009900599+01201-00801999999ADDMA1102901999999OC100901REMMET064METAR ZSSS 040600Z 13004G09MPS 100V180 CAVOK 12/M08 Q1029 NOSIG=
0088583670999992023010406304+31198+121336FM-15+000399999V0201301V004019999999Y009900599+01201-00801999999ADDMA1102901999999REMMET061METAR ZSSS 040630Z 13004MPS 100V170 CAVOK 12/M08 Q1029 NOSIG=
0088583670999992023010407004+31198+121336FM-15+000399999V0201401V003019999999Y009900599+01201-00601999999ADDMA1102901999999REMMET061METAR ZSSS 040700Z 14003MPS 080V210 CAVOK 12/M06 Q1029 NOSIG=
0088583670999992023010407304+31198+121336FM-15+000399999V0201401V003019999999Y009900599+01201-00701999999ADDMA1102901999999REMMET061METAR ZSSS 040730Z 14003MPS 080V160 CAVOK 12/M07 Q1029 NOSIG=
0080583670999992023010408004+31198+121336FM-15+000399999V0201401N004019999999Y009900599+01101-00701999999ADDMA1103001999999REMMET053METAR ZSSS 040800Z 14004MPS CAVOK 11/M07 Q1030 NOSIG=
0088583670999992023010408304+31198+121336FM-15+000399999V0201701V004019999999Y009900599+01001-00301999999ADDMA1103001999999REMMET061METAR ZSSS 040830Z 17004MPS 130V190 CAVOK 10/M03 Q1030 NOSIG=
0080583670999992023010409004+31198+121336FM-15+000399999V0201501N004019999999Y009900599+00901-00101999999ADDMA1103001999999REMMET053METAR ZSSS 040900Z 15004MPS CAVOK 09/M01 Q1030 NOSIG=
0080583670999992023010409304+31198+121336FM-15+000399999V0201501N004019999999Y009900599+00801+00001999999ADDMA1103101999999REMMET053METAR ZSSS 040930Z 15004MPS CAVOK 08/M00 Q1031 NOSIG=
0080583670999992023010410004+31198+121336FM-15+000399999V0201501N004019999999Y009900599+00701-00301999999ADDMA1103101999999REMMET053METAR ZSSS 041000Z 15004MPS CAVOK 07/M03 Q1031 NOSIG=
0080583670999992023010410304+31198+121336FM-15+000399999V0201301N003019999999Y009900599+00701-00301999999ADDMA1103101999999REMMET053METAR ZSSS 041030Z 13003MPS CAVOK 07/M03 Q1031 NOSIG=
0088583670999992023010411004+31198+121336FM-15+000399999V0201201V003019999999Y009900599+00801-00101999999ADDMA1103101999999REMMET061METAR ZSSS 041100Z 12003MPS 090V150 CAVOK 08/M01 Q1031 NOSIG=
0079583670999992023010411304+31198+121336FM-15+000399999V0201101N003019999999Y009900599+00801+00101999999ADDMA1103101999999REMMET052METAR ZSSS 041130Z 11003MPS CAVOK 08/01 Q1031 NOSIG=
0079583670999992023010412004+31198+121336FM-15+000399999V0201001N003019999999Y009900599+00801+00101999999ADDMA1103101999999REMMET052METAR ZSSS 041200Z 10003MPS CAVOK 08/01 Q1031 NOSIG=
0079583670999992023010412304+31198+121336FM-15+000399999V0201101N003019999999Y009900599+00701+00101999999ADDMA1103101999999REMMET052METAR ZSSS 041230Z 11003MPS CAVOK 07/01 Q1031 NOSIG=
0079583670999992023010413004+31198+121336FM-15+000399999V0201101N003019999999Y009900599+00701+00201999999ADDMA1103101999999REMMET052METAR ZSSS 041300Z 11003MPS CAVOK 07/02 Q1031 NOSIG=
0079583670999992023010413304+31198+121336FM-15+000399999V0201101N003019999999Y009900599+00701+00201999999ADDMA1103101999999REMMET052METAR ZSSS 041330Z 11003MPS CAVOK 07/02 Q1031 NOSIG=
0079583670999992023010414004+31198+121336FM-15+000399999V0201101N003019999999Y009900599+00701+00201999999ADDMA1103101999999REMMET052METAR ZSSS 041400Z 11003MPS CAVOK 07/02 Q1031 NOSIG=
0079583670999992023010414304+31198+121336FM-15+000399999V0201201N003019999999Y009900599+00701+00201999999ADDMA1103101999999REMMET052METAR ZSSS 041430Z 12003MPS CAVOK 07/02 Q1031 NOSIG=
0079583670999992023010415004+31198+121336FM-15+000399999V0201101N003019999999Y009900599+00701+00201999999ADDMA1103101999999REMMET052METAR ZSSS 041500Z 11003MPS CAVOK 07/02 Q1031 NOSIG=
0079583670999992023010415304+31198+121336FM-15+000399999V0201101N004019999999Y009900599+00701+00201999999ADDMA1103001999999REMMET052METAR ZSSS 041530Z 11004MPS CAVOK 07/02 Q1030 NOSIG=
0079583670999992023010416004+31198+121336FM-15+000399999V0201301N003019999999Y009900599+00701+00201999999ADDMA1103101999999REMMET052METAR ZSSS 041600Z 13003MPS CAVOK 07/02 Q1031 NOSIG=
0079583670999992023010416304+31198+121336FM-15+000399999V0201201N002019999999Y009900599+00601+00201999999ADDMA1103101999999REMMET052METAR ZSSS 041630Z 12002MPS CAVOK 06/02 Q1031 NOSIG=
0079583670999992023010417004+31198+121336FM-15+000399999V0201301N002019999999Y009900599+00601+00201999999ADDMA1103101999999REMMET052METAR ZSSS 041700Z 13002MPS CAVOK 06/02 Q1031 NOSIG=
0079583670999992023010417304+31198+121336FM-15+000399999V0201101N002019999999Y009900599+00801+00301999999ADDMA1103101999999REMMET052METAR ZSSS 041730Z 11002MPS CAVOK 08/03 Q1031 NOSIG=
0079583670999992023010418004+31198+121336FM-15+000399999V0201201N002019999999Y009900599+00801+00301999999ADDMA1103101999999REMMET052METAR ZSSS 041800Z 12002MPS CAVOK 08/03 Q1031 NOSIG=
0079583670999992023010418304+31198+121336FM-15+000399999V0201101N002019999999Y009900599+00801+00301999999ADDMA1103001999999REMMET052METAR ZSSS 041830Z 11002MPS CAVOK 08/03 Q1030 NOSIG=
0079583670999992023010419004+31198+121336FM-15+000399999V0201201N002019999999Y009900599+00801+00301999999ADDMA1103001999999REMMET052METAR ZSSS 041900Z 12002MPS CAVOK 08/03 Q1030 NOSIG=
0079583670999992023010419304+31198+121336FM-15+000399999V0209999C000019999999Y009900599+00801+00301999999ADDMA1103001999999REMMET052METAR ZSSS 041930Z 00000MPS CAVOK 08/03 Q1030 NOSIG=
0079583670999992023010420004+31198+121336FM-15+000399999V0209999C000019999999Y009900599+00801+00301999999ADDMA1102901999999REMMET052METAR ZSSS 042000Z 00000MPS CAVOK 08/03 Q1029 NOSIG=
0079583670999992023010420304+31198+121336FM-15+000399999V0201501N003019999999Y009900599+00801+00301999999ADDMA1102901999999REMMET052METAR ZSSS 042030Z 15003MPS CAVOK 08/03 Q1029 NOSIG=
0079583670999992023010421004+31198+121336FM-15+000399999V0201401N003019999999Y009900599+00801+00301999999ADDMA1102901999999REMMET052METAR ZSSS 042100Z 14003MPS CAVOK 08/03 Q1029 NOSIG=
0079583670999992023010421304+31198+121336FM-15+000399999V0201401N003019999999Y009900599+00901+00301999999ADDMA1102901999999REMMET052METAR ZSSS 042130Z 14003MPS CAVOK 09/03 Q1029 NOSIG=
0079583670999992023010422004+31198+121336FM-15+000399999V0201401N003019999999Y009900599+00801+00301999999ADDMA1102901999999REMMET052METAR ZSSS 042200Z 14003MPS CAVOK 08/03 Q1029 NOSIG=
0079583670999992023010422304+31198+121336FM-15+000399999V0201501N002019999999Y009900599+00701+00301999999ADDMA1102901999999REMMET052METAR ZSSS 042230Z 15002MPS CAVOK 07/03 Q1029 NOSIG=
0079583670999992023010423004+31198+121336FM-15+000399999V0201401N003019999999Y009900599+00801+00401999999ADDMA1102901999999REMMET052METAR ZSSS 042300Z 14003MPS CAVOK 08/04 Q1029 NOSIG=
0079583670999992023010423304+31198+121336FM-15+000399999V0201601N001019999999Y009900599+00901+00401999999ADDMA1103001999999REMMET052METAR ZSSS 042330Z 16001MPS CAVOK 09/04 Q1030 NOSIG=
0079583670999992023010500004+31198+121336FM-15+000399999V0209999V001019999999Y009900599+00901+00401999999ADDMA1103001999999REMMET052METAR ZSSS 050000Z VRB01MPS CAVOK 09/04 Q1030 NOSIG=
0079583670999992023010500304+31198+121336FM-15+000399999V0201601N002019999999Y009900599+01001+00401999999ADDMA1103101999999REMMET052METAR ZSSS 050030Z 16002MPS CAVOK 10/04 Q1031 NOSIG=
0079583670999992023010501004+31198+121336FM-15+000399999V0201401N003019999999Y009900599+01001+00401999999ADDMA1103101999999REMMET052METAR ZSSS 050100Z 14003MPS CAVOK 10/04 Q1031 NOSIG=
0079583670999992023010501304+31198+121336FM-15+000399999V0201501N003019999999Y009900599+01001+00401999999ADDMA1103101999999REMMET052METAR ZSSS 050130Z 15003MPS CAVOK 10/04 Q1031 NOSIG=
0079583670999992023010502004+31198+121336FM-15+000399999V0201501N003019999999Y009900599+01101+00401999999ADDMA1103101999999REMMET052METAR ZSSS 050200Z 15003MPS CAVOK 11/04 Q1031 NOSIG=
0087583670999992023010502304+31198+121336FM-15+000399999V0201501V002019999999Y009900599+01101+00501999999ADDMA1103101999999REMMET060METAR ZSSS 050230Z 15002MPS 120V180 CAVOK 11/05 Q1031 NOSIG=
0079583670999992023010503004+31198+121336FM-15+000399999V0201501N003019999999Y009900599+01101+00501999999ADDMA1103101999999REMMET052METAR ZSSS 050300Z 15003MPS CAVOK 11/05 Q1031 NOSIG=
0087583670999992023010503304+31198+121336FM-15+000399999V0201501V003019999999Y009900599+01201+00501999999ADDMA1103001999999REMMET060METAR ZSSS 050330Z 15003MPS 120V180 CAVOK 12/05 Q1030 NOSIG=
0087583670999992023010504004+31198+121336FM-15+000399999V0201301V004019999999Y009900599+01201+00501999999ADDMA1102901999999REMMET060METAR ZSSS 050400Z 13004MPS 110V170 CAVOK 12/05 Q1029 NOSIG=
0079583670999992023010504304+31198+121336FM-15+000399999V0201401N004019999999Y009900599+01301+00601999999ADDMA1102901999999REMMET052METAR ZSSS 050430Z 14004MPS CAVOK 13/06 Q1029 NOSIG=
0087583670999992023010505004+31198+121336FM-15+000399999V0201401V004019999999Y009900599+01401+00501999999ADDMA1102901999999REMMET060METAR ZSSS 050500Z 14004MPS 110V170 CAVOK 14/05 Q1029 NOSIG=
0157583670999992023010505304+31198+121336FM-15+000399999V0201501V004019999999N009999199+01401+00501999999ADDGA1021+012191999GE19AGL   +99999+99999GF199999021999012191999999MA1102801999999REMMET066METAR ZSSS 050530Z 15004MPS 100V190 9999 FEW040 14/05 Q1028 NOSIG=
0157583670999992023010506004+31198+121336FM-15+000399999V0201701V003019999999N009999199+01401+00601999999ADDGA1041+012191999GE19AGL   +99999+99999GF199999041999012191999999MA1102801999999REMMET066METAR ZSSS 050600Z 17003MPS 140V210 9999 SCT040 14/06 Q1028 NOSIG=
0157583670999992023010506304+31198+121336FM-15+000399999V0201501V004019999999N009999199+01401+00601999999ADDGA1041+010061999GE19AGL   +99999+99999GF199999041999010061999999MA1102801999999REMMET066METAR ZSSS 050630Z 15004MPS 110V180 9999 SCT033 14/06 Q1028 NOSIG=
0157583670999992023010507004+31198+121336FM-15+000399999V0201101V00401010061CN009999199+01301+00501999999ADDGA1071+010061999GE19AGL   +99999+99999GF199999071999010061999999MA1102801999999REMMET066METAR ZSSS 050700Z 11004MPS 080V140 9999 BKN033 13/05 Q1028 NOSIG=
0149583670999992023010507304+31198+121336FM-15+000399999V0201501N00501010061CN009999199+01301+00501999999ADDGA1071+010061999GE19AGL   +99999+99999GF199999071999010061999999MA1102801999999REMMET058METAR ZSSS 050730Z 15005MPS 9999 BKN033 13/05 Q1028 NOSIG=
0149583670999992023010508004+31198+121336FM-15+000399999V0201401N00401010061CN009999199+01301+00601999999ADDGA1071+010061999GE19AGL   +99999+99999GF199999071999010061999999MA1102801999999REMMET058METAR ZSSS 050800Z 14004MPS 9999 BKN033 13/06 Q1028 NOSIG=
0079583670999992023010508304+31198+121336FM-15+000399999V0201501N004019999999Y009900599+01201+00601999999ADDMA1102801999999REMMET052METAR ZSSS 050830Z 15004MPS CAVOK 12/06 Q1028 NOSIG=
0079583670999992023010509004+31198+121336FM-15+000399999V0201401N003019999999Y009900599+01201+00601999999ADDMA1102801999999REMMET052METAR ZSSS 050900Z 14003MPS CAVOK 12/06 Q1028 NOSIG=
0079583670999992023010509304+31198+121336FM-15+000399999V0201501N003019999999Y009900599+01201+00601999999ADDMA1102801999999REMMET052METAR ZSSS 050930Z 15003MPS CAVOK 12/06 Q1028 NOSIG=
0079583670999992023010510004+31198+121336FM-15+000399999V0201501N003019999999Y009900599+01201+00601999999ADDMA1102801999999REMMET052METAR ZSSS 051000Z 15003MPS CAVOK 12/06 Q1028 NOSIG=
0149583670999992023010510304+31198+121336FM-15+000399999V0201701N002019999999N009999199+01201+00701999999ADDGA1041+012191999GE19AGL   +99999+99999GF199999041999012191999999MA1102801999999REMMET058METAR ZSSS 051030Z 17002MPS 9999 SCT040 12/07 Q1028 NOSIG=
0149583670999992023010511004+31198+121336FM-15+000399999V0201601N00301012191CN009999199+01101+00601999999ADDGA1071+012191999GE19AGL   +99999+99999GF199999071999012191999999MA1102801999999REMMET058METAR ZSSS 051100Z 16003MPS 9999 BKN040 11/06 Q1028 NOSIG=
0149583670999992023010511304+31198+121336FM-15+000399999V0201501N002019999999N009999199+01101+00601999999ADDGA1041+012191999GE19AGL   +99999+99999GF199999041999012191999999MA1102901999999REMMET058METAR ZSSS 051130Z 15002MPS 9999 SCT040 11/06 Q1029 NOSIG=
0087583670999992023010512004+31198+121336FM-15+000399999V0201501V002019999999Y009900599+01101+00601999999ADDMA1102901999999REMMET060METAR ZSSS 051200Z 15002MPS 110V180 CAVOK 11/06 Q1029 NOSIG=
0079583670999992023010512304+31198+121336FM-15+000399999V0201601N001019999999Y009900599+01101+00601999999ADDMA1102901999999REMMET052METAR ZSSS 051230Z 16001MPS CAVOK 11/06 Q1029 NOSIG=
0079583670999992023010513004+31198+121336FM-15+000399999V0209999V001019999999Y009900599+01101+00601999999ADDMA1102901999999REMMET052METAR ZSSS 051300Z VRB01MPS CAVOK 11/06 Q1029 NOSIG=
0079583670999992023010513304+31198+121336FM-15+000399999V0209999V001019999999Y009900599+01101+00701999999ADDMA1102901999999REMMET052METAR ZSSS 051330Z VRB01MPS CAVOK 11/07 Q1029 NOSIG=
0079583670999992023010514004+31198+121336FM-15+000399999V0201201N001019999999Y009900599+01101+00701999999ADDMA1102901999999REMMET052METAR ZSSS 051400Z 12001MPS CAVOK 11/07 Q1029 NOSIG=
0079583670999992023010514304+31198+121336FM-15+000399999V0209999C000019999999Y009900599+01001+00701999999ADDMA1102901999999REMMET052METAR ZSSS 051430Z 00000MPS CAVOK 10/07 Q1029 NOSIG=
0079583670999992023010515004+31198+121336FM-15+000399999V0201801N001019999999Y009900599+01001+00701999999ADDMA1102901999999REMMET052METAR ZSSS 051500Z 18001MPS CAVOK 10/07 Q1029 NOSIG=
0079583670999992023010515304+31198+121336FM-15+000399999V0201801N001019999999Y009900599+01001+00701999999ADDMA1102901999999REMMET052METAR ZSSS 051530Z 18001MPS CAVOK 10/07 Q1029 NOSIG=
0079583670999992023010516004+31198+121336FM-15+000399999V0201901N001019999999Y009900599+01001+00701999999ADDMA1102801999999REMMET052METAR ZSSS 051600Z 19001MPS CAVOK 10/07 Q1028 NOSIG=
0079583670999992023010516304+31198+121336FM-15+000399999V0201901N001019999999Y009900599+00901+00701999999ADDMA1102801999999REMMET052METAR ZSSS 051630Z 19001MPS CAVOK 09/07 Q1028 NOSIG=
0079583670999992023010517004+31198+121336FM-15+000399999V0202001N001019999999Y009900599+00901+00701999999ADDMA1102801999999REMMET052METAR ZSSS 051700Z 20001MPS CAVOK 09/07 Q1028 NOSIG=
0079583670999992023010517304+31198+121336FM-15+000399999V0202201N001019999999Y009900599+01001+00701999999ADDMA1102801999999REMMET052METAR ZSSS 051730Z 22001MPS CAVOK 10/07 Q1028 NOSIG=
0079583670999992023010518004+31198+121336FM-15+000399999V0209999V001019999999Y009900599+00901+00701999999ADDMA1102801999999REMMET052METAR ZSSS 051800Z VRB01MPS CAVOK 09/07 Q1028 NOSIG=
0079583670999992023010518304+31198+121336FM-15+000399999V0209999C000019999999Y009900599+00901+00701999999ADDMA1102801999999REMMET052METAR ZSSS 051830Z 00000MPS CAVOK 09/07 Q1028 NOSIG=
0087583670999992023010519004+31198+121336FM-15+000399999V0203001V002019999999Y009900599+00901+00701999999ADDMA1102801999999REMMET060METAR ZSSS 051900Z 30002MPS 220V340 CAVOK 09/07 Q1028 NOSIG=
0108583670999992023010519304+31198+121336FM-15+000399999V0209999V001012200019N008000199+01001+00701999999ADDGF100991999999999999999999MA1102801999999REMMET055METAR ZSSS 051930Z VRB01MPS 8000 NSC 10/07 Q1028 NOSIG=
0108583670999992023010520004+31198+121336FM-15+000399999V0209999V001012200019N007000199+00901+00601999999ADDGF100991999999999999999999MA1102701999999REMMET055METAR ZSSS 052000Z VRB01MPS 7000 NSC 09/06 Q1027 NOSIG=
0108583670999992023010520304+31198+121336FM-15+000399999V0202701N003012200019N007000199+01001+00601999999ADDGF100991999999999999999999MA1102701999999REMMET055METAR ZSSS 052030Z 27003MPS 7000 NSC 10/06 Q1027 NOSIG=
0108583670999992023010521004+31198+121336FM-15+000399999V0202901N003012200019N007000199+00901+00401999999ADDGF100991999999999999999999MA1102701999999REMMET055METAR ZSSS 052100Z 29003MPS 7000 NSC 09/04 Q1027 NOSIG=
0108583670999992023010521304+31198+121336FM-15+000399999V0202901N002012200019N006000199+00901+00501999999ADDGF100991999999999999999999MA1102701999999REMMET055METAR ZSSS 052130Z 29002MPS 6000 NSC 09/05 Q1027 NOSIG=
0117583670999992023010522004+31198+121336FM-15+000399999V0202801N002012200019N005000199+00801+00401999999ADDGF100991999999999999999999MA1102701999999MW1101REMMET058METAR ZSSS 052200Z 28002MPS 5000 BR NSC 08/04 Q1027 NOSIG=
0117583670999992023010522304+31198+121336FM-15+000399999V0202801N003012200019N005000199+00801+00401999999ADDGF100991999999999999999999MA1102801999999MW1101REMMET058METAR ZSSS 052230Z 28003MPS 5000 BR NSC 08/04 Q1028 NOSIG=
0125583670999992023010523004+31198+121336FM-15+000399999V0202501V002012200019N004000199+00801+00401999999ADDGF100991999999999999999999MA1102801999999MW1101REMMET066METAR ZSSS 052300Z 25002MPS 220V290 4000 BR NSC 08/04 Q1028 NOSIG=
0117583670999992023010523304+31198+121336FM-15+000399999V0202801N004012200019N004000199+00901+00401999999ADDGF100991999999999999999999MA1102801999999MW1101REMMET058METAR ZSSS 052330Z 28004MPS 4000 BR NSC 09/04 Q1028 NOSIG=
0117583670999992023010600004+31198+121336FM-15+000399999V0202801N004012200019N004000199+00901+00401999999ADDGF100991999999999999999999MA1102801999999MW1051REMMET058METAR ZSSS 060000Z 28004MPS 4000 HZ NSC 09/04 Q1028 NOSIG=
0125583670999992023010600304+31198+121336FM-15+000399999V0202901V004012200019N003500199+00901+00401999999ADDGF100991999999999999999999MA1102801999999MW1051REMMET066METAR ZSSS 060030Z 29004MPS 250V310 3500 HZ NSC 09/04 Q1028 NOSIG=
0117583670999992023010601004+31198+121336FM-15+000399999V0202901N004012200019N004000199+01001+00401999999ADDGF100991999999999999999999MA1102801999999MW1051REMMET058METAR ZSSS 060100Z 29004MPS 4000 HZ NSC 10/04 Q1028 NOSIG=
0125583670999992023010601304+31198+121336FM-15+000399999V0202901V004012200019N004000199+01101+00401999999ADDGF100991999999999999999999MA1102901999999MW1051REMMET066METAR ZSSS 060130Z 29004MPS 260V330 4000 HZ NSC 11/04 Q1029 NOSIG=
0125583670999992023010602004+31198+121336FM-15+000399999V0203001V005012200019N004000199+01201+00301999999ADDGF100991999999999999999999MA1102901999999MW1051REMMET066METAR ZSSS 060200Z 30005MPS 270V330 4000 HZ NSC 12/03 Q1029 NOSIG=
0125583670999992023010602304+31198+121336FM-15+000399999V0202801V005012200019N004000199+01201+00201999999ADDGF100991999999999999999999MA1102801999999MW1051REMMET066METAR ZSSS 060230Z 28005MPS 250V310 4000 HZ NSC 12/02 Q1028 NOSIG=
0125583670999992023010603004+31198+121336FM-15+000399999V0202901V005012200019N005000199+01201+00101999999ADDGF100991999999999999999999MA1102701999999MW1051REMMET066METAR ZSSS 060300Z 29005MPS 250V320 5000 HZ NSC 12/01 Q1027 NOSIG=
0116583670999992023010603304+31198+121336FM-15+000399999V0203001V005012200019N006000199+01401+00101999999ADDGF100991999999999999999999MA1102601999999REMMET063METAR ZSSS 060330Z 30005MPS 260V320 6000 NSC 14/01 Q1026 NOSIG=
0116583670999992023010604004+31198+121336FM-15+000399999V0202701V004012200019N006000199+01401+00001999999ADDGF100991999999999999999999MA1102501999999REMMET063METAR ZSSS 060400Z 27004MPS 220V300 6000 NSC 14/00 Q1025 NOSIG=
0117583670999992023010604304+31198+121336FM-15+000399999V0202701V005012200019N007000199+01401-00101999999ADDGF100991999999999999999999MA1102501999999REMMET064METAR ZSSS 060430Z 27005MPS 240V310 7000 NSC 14/M01 Q1025 NOSIG=
0117583670999992023010605004+31198+121336FM-15+000399999V0202801V006012200019N007000199+01401-00101999999ADDGF100991999999999999999999MA1102501999999REMMET064METAR ZSSS 060500Z 28006MPS 240V310 7000 NSC 14/M01 Q1025 NOSIG=
0117583670999992023010605304+31198+121336FM-15+000399999V0202801V005012200019N007000199+01501-00201999999ADDGF100991999999999999999999MA1102401999999REMMET064METAR ZSSS 060530Z 28005MPS 240V310 7000 NSC 15/M02 Q1024 NOSIG=
0117583670999992023010606004+31198+121336FM-15+000399999V0202901V005012200019N007000199+01501-00101999999ADDGF100991999999999999999999MA1102401999999REMMET064METAR ZSSS 060600Z 29005MPS 250V320 7000 NSC 15/M01 Q1024 NOSIG=
0117583670999992023010606304+31198+121336FM-15+000399999V0202801V006012200019N007000199+01501-00301999999ADDGF100991999999999999999999MA1102301999999REMMET064METAR ZSSS 060630Z 28006MPS 250V320 7000 NSC 15/M03 Q1023 NOSIG=
0117583670999992023010607004+31198+121336FM-15+000399999V0202801V006012200019N008000199+01501-00301999999ADDGF100991999999999999999999MA1102401999999REMMET064METAR ZSSS 060700Z 28006MPS 260V330 8000 NSC 15/M03 Q1024 NOSIG=
0117583670999992023010607304+31198+121336FM-15+000399999V0202801V006012200019N008000199+01401-00201999999ADDGF100991999999999999999999MA1102301999999REMMET064METAR ZSSS 060730Z 28006MPS 250V310 8000 NSC 14/M02 Q1023 NOSIG=
0117583670999992023010608004+31198+121336FM-15+000399999V0202901V006012200019N008000199+01401-00201999999ADDGF100991999999999999999999MA1102301999999REMMET064METAR ZSSS 060800Z 29006MPS 260V320 8000 NSC 14/M02 Q1023 NOSIG=
0109583670999992023010608304+31198+121336FM-15+000399999V0202801N005012200019N008000199+01401-00101999999ADDGF100991999999999999999999MA1102301999999REMMET056METAR ZSSS 060830Z 28005MPS 8000 NSC 14/M01 Q1023 NOSIG=
0117583670999992023010609004+31198+121336FM-15+000399999V0202501V003012200019N008000199+01301-00101999999ADDGF100991999999999999999999MA1102301999999REMMET064METAR ZSSS 060900Z 25003MPS 220V290 8000 NSC 13/M01 Q1023 NOSIG=
0117583670999992023010609304+31198+121336FM-15+000399999V0202501V002012200019N008000199+01201-00101999999ADDGF100991999999999999999999MA1102301999999REMMET064METAR ZSSS 060930Z 25002MPS 220V290 8000 NSC 12/M01 Q1023 NOSIG=
0117583670999992023010610004+31198+121336FM-15+000399999V0202301V002012200019N008000199+01101-00101999999ADDGF100991999999999999999999MA1102301999999REMMET064METAR ZSSS 061000Z 23002MPS 210V270 8000 NSC 11/M01 Q1023 NOSIG=
0117583670999992023010610304+31198+121336FM-15+000399999V0202601V002012200019N008000199+01101+00001999999ADDGF100991999999999999999999MA1102401999999REMMET064METAR ZSSS 061030Z 26002MPS 220V330 8000 NSC 11/M00 Q1024 NOSIG=
0116583670999992023010611004+31198+121336FM-15+000399999V0202401V002012200019N008000199+01101+00001999999ADDGF100991999999999999999999MA1102401999999REMMET063METAR ZSSS 061100Z 24002MPS 220V290 8000 NSC 11/00 Q1024 NOSIG=
0116583670999992023010611304+31198+121336FM-15+000399999V0202601V002012200019N008000199+01101+00101999999ADDGF100991999999999999999999MA1102401999999REMMET063METAR ZSSS 061130Z 26002MPS 230V310 8000 NSC 11/01 Q1024 NOSIG=
0116583670999992023010612004+31198+121336FM-15+000399999V0202501V002012200019N008000199+01101+00101999999ADDGF100991999999999999999999MA1102401999999REMMET063METAR ZSSS 061200Z 25002MPS 230V300 8000 NSC 11/01 Q1024 NOSIG=
0116583670999992023010612304+31198+121336FM-15+000399999V0202601V002012200019N008000199+01101+00101999999ADDGF100991999999999999999999MA1102401999999REMMET063METAR ZSSS 061230Z 26002MPS 230V320 8000 NSC 11/01 Q1024 NOSIG=
0087583670999992023010613004+31198+121336FM-15+000399999V0202701V002019999999Y009900599+01101+00101999999ADDMA1102501999999REMMET060METAR ZSSS 061300Z 27002MPS 230V320 CAVOK 11/01 Q1025 NOSIG=
0079583670999992023010613304+31198+121336FM-15+000399999V0202801N002019999999Y009900599+01001+00101999999ADDMA1102501999999REMMET052METAR ZSSS 061330Z 28002MPS CAVOK 10/01 Q1025 NOSIG=
0079583670999992023010614004+31198+121336FM-15+000399999V0202901N002019999999Y009900599+01001+00101999999ADDMA1102501999999REMMET052METAR ZSSS 061400Z 29002MPS CAVOK 10/01 Q1025 NOSIG=
0079583670999992023010614304+31198+121336FM-15+000399999V0202901N003019999999Y009900599+01001+00101999999ADDMA1102601999999REMMET052METAR ZSSS 061430Z 29003MPS CAVOK 10/01 Q1026 NOSIG=
0079583670999992023010615004+31198+121336FM-15+000399999V0203001N002019999999Y009900599+01001+00101999999ADDMA1102601999999REMMET052METAR ZSSS 061500Z 30002MPS CAVOK 10/01 Q1026 NOSIG=
0079583670999992023010615304+31198+121336FM-15+000399999V0203401N001019999999Y009900599+00701+00101999999ADDMA1102601999999REMMET052METAR ZSSS 061530Z 34001MPS CAVOK 07/01 Q1026 NOSIG=
0079583670999992023010616004+31198+121336FM-15+000399999V0209999V001019999999Y009900599+00701+00101999999ADDMA1102601999999REMMET052METAR ZSSS 061600Z VRB01MPS CAVOK 07/01 Q1026 NOSIG=
0108583670999992023010616304+31198+121336FM-15+000399999V0209999V001012200019N007000199+00701+00101999999ADDGF100991999999999999999999MA1102601999999REMMET055METAR ZSSS 061630Z VRB01MPS 7000 NSC 07/01 Q1026 NOSIG=
0108583670999992023010617004+31198+121336FM-15+000399999V0209999C000012200019N007000199+00501+00101999999ADDGF100991999999999999999999MA1102601999999REMMET055METAR ZSSS 061700Z 00000MPS 7000 NSC 05/01 Q1026 NOSIG=
0108583670999992023010617304+31198+121336FM-15+000399999V0203601N001012200019N007000199+00601+00101999999ADDGF100991999999999999999999MA1102601999999REMMET055METAR ZSSS 061730Z 36001MPS 7000 NSC 06/01 Q1026 NOSIG=
0108583670999992023010618004+31198+121336FM-15+000399999V0209999V001012200019N007000199+00501+00101999999ADDGF100991999999999999999999MA1102601999999REMMET055METAR ZSSS 061800Z VRB01MPS 7000 NSC 05/01 Q1026 NOSIG=
0108583670999992023010618304+31198+121336FM-15+000399999V0209999V001012200019N007000199+00501+00101999999ADDGF100991999999999999999999MA1102501999999REMMET055METAR ZSSS 061830Z VRB01MPS 7000 NSC 05/01 Q1025 NOSIG=
0108583670999992023010619004+31198+121336FM-15+000399999V0200101N002012200019N007000199+00601+00001999999ADDGF100991999999999999999999MA1102501999999REMMET055METAR ZSSS 061900Z 01002MPS 7000 NSC 06/00 Q1025 NOSIG=
0108583670999992023010619304+31198+121336FM-15+000399999V0203601N002012200019N007000199+00501+00001999999ADDGF100991999999999999999999MA1102501999999REMMET055METAR ZSSS 061930Z 36002MPS 7000 NSC 05/00 Q1025 NOSIG=
0108583670999992023010620004+31198+121336FM-15+000399999V0203601N002012200019N007000199+00401+00001999999ADDGF100991999999999999999999MA1102501999999REMMET055METAR ZSSS 062000Z 36002MPS 7000 NSC 04/00 Q1025 NOSIG=
0109583670999992023010620304+31198+121336FM-15+000399999V0209999V001012200019N007000199+00301-00101999999ADDGF100991999999999999999999MA1102501999999REMMET056METAR ZSSS 062030Z VRB01MPS 7000 NSC 03/M01 Q1025 NOSIG=
0108583670999992023010621004+31198+121336FM-15+000399999V0209999C000012200019N007000199+00401+00001999999ADDGF100991999999999999999999MA1102501999999REMMET055METAR ZSSS 062100Z 00000MPS 7000 NSC 04/00 Q1025 NOSIG=
0108583670999992023010621304+31198+121336FM-15+000399999V0201401N001012200019N007000199+00301+00001999999ADDGF100991999999999999999999MA1102501999999REMMET055METAR ZSSS 062130Z 14001MPS 7000 NSC 03/00 Q1025 NOSIG=
0108583670999992023010622004+31198+121336FM-15+000399999V0201901N001012200019N007000199+00401+00101999999ADDGF100991999999999999999999MA1102601999999REMMET055METAR ZSSS 062200Z 19001MPS 7000 NSC 04/01 Q1026 NOSIG=
0108583670999992023010622304+31198+121336FM-15+000399999V0202201N001012200019N007000199+00401+00001999999ADDGF100991999999999999999999MA1102601999999REMMET055METAR ZSSS 062230Z 22001MPS 7000 NSC 04/00 Q1026 NOSIG=
0117583670999992023010623004+31198+121336FM-15+000399999V0201601N001012200019N005000199+00301+00001999999ADDGF100991999999999999999999MA1102601999999MW1101REMMET058METAR ZSSS 062300Z 16001MPS 5000 BR NSC 03/00 Q1026 NOSIG=
0117583670999992023010623304+31198+121336FM-15+000399999V0202101N001012200019N005000199+00401+00101999999ADDGF100991999999999999999999MA1102601999999MW1101REMMET058METAR ZSSS 062330Z 21001MPS 5000 BR NSC 04/01 Q1026 NOSIG=
0117583670999992023010700004+31198+121336FM-15+000399999V0209999V001012200019N005000199+00601+00201999999ADDGF100991999999999999999999MA1102601999999MW1101REMMET058METAR ZSSS 070000Z VRB01MPS 5000 BR NSC 06/02 Q1026 NOSIG=
0117583670999992023010700304+31198+121336FM-15+000399999V0209999V001012200019N005000199+00801+00201999999ADDGF100991999999999999999999MA1102601999999MW1051REMMET058METAR ZSSS 070030Z VRB01MPS 5000 HZ NSC 08/02 Q1026 NOSIG=
0117583670999992023010701004+31198+121336FM-15+000399999V0209999V001012200019N005000199+00901+00201999999ADDGF100991999999999999999999MA1102601999999MW1051REMMET058METAR ZSSS 070100Z VRB01MPS 5000 HZ NSC 09/02 Q1026 NOSIG=
0125583670999992023010701304+31198+121336FM-15+000399999V0202201V002012200019N005000199+01001+00101999999ADDGF100991999999999999999999MA1102701999999MW1051REMMET066METAR ZSSS 070130Z 22002MPS 160V250 5000 HZ NSC 10/01 Q1027 NOSIG=
0126583670999992023010702004+31198+121336FM-15+000399999V0202101V002012200019N005000199+01101-00101999999ADDGF100991999999999999999999MA1102601999999MW1051REMMET067METAR ZSSS 070200Z 21002MPS 170V270 5000 HZ NSC 11/M01 Q1026 NOSIG=
0126583670999992023010702304+31198+121336FM-15+000399999V0202501V002012200019N005000199+01201-00101999999ADDGF100991999999999999999999MA1102601999999MW1051REMMET067METAR ZSSS 070230Z 25002MPS 210V300 5000 HZ NSC 12/M01 Q1026 NOSIG=
0117583670999992023010703004+31198+121336FM-15+000399999V0202401V002012200019N006000199+01301-00401999999ADDGF100991999999999999999999MA1102601999999REMMET064METAR ZSSS 070300Z 24002MPS 190V300 6000 NSC 13/M04 Q1026 NOSIG=
0109583670999992023010703304+31198+121336FM-15+000399999V0209999V001012200019N006000199+01401-00401999999ADDGF100991999999999999999999MA1102501999999REMMET056METAR ZSSS 070330Z VRB01MPS 6000 NSC 14/M04 Q1025 NOSIG=
0117583670999992023010704004+31198+121336FM-15+000399999V0202301V002012200019N007000199+01501-00501999999ADDGF100991999999999999999999MA1102501999999REMMET064METAR ZSSS 070400Z 23002MPS 160V300 7000 NSC 15/M05 Q1025 NOSIG=
0109583670999992023010704304+31198+121336FM-15+000399999V0209999V002012200019N006000199+01501-00601999999ADDGF100991999999999999999999MA1102401999999REMMET056METAR ZSSS 070430Z VRB02MPS 6000 NSC 15/M06 Q1024 NOSIG=
0117583670999992023010705004+31198+121336FM-15+000399999V0203001V002012200019N006000199+01601-00601999999ADDGF100991999999999999999999MA1102401999999REMMET064METAR ZSSS 070500Z 30002MPS 250V320 6000 NSC 16/M06 Q1024 NOSIG=
0109583670999992023010705304+31198+121336FM-15+000399999V0209999V002012200019N006000199+01601-00601999999ADDGF100991999999999999999999MA1102401999999REMMET056METAR ZSSS 070530Z VRB02MPS 6000 NSC 16/M06 Q1024 NOSIG=
0117583670999992023010706004+31198+121336FM-15+000399999V0202001V002012200019N006000199+01601-00601999999ADDGF100991999999999999999999MA1102301999999REMMET064METAR ZSSS 070600Z 20002MPS 160V250 6000 NSC 16/M06 Q1023 NOSIG=
0117583670999992023010706304+31198+121336FM-15+000399999V0202201V002012200019N006000199+01601-00601999999ADDGF100991999999999999999999MA1102301999999REMMET064METAR ZSSS 070630Z 22002MPS 190V270 6000 NSC 16/M06 Q1023 NOSIG=
0109583670999992023010707004+31198+121336FM-15+000399999V0202101N002012200019N006000199+01601-00601999999ADDGF100991999999999999999999MA1102301999999REMMET056METAR ZSSS 070700Z 21002MPS 6000 NSC 16/M06 Q1023 NOSIG=
0109583670999992023010707304+31198+121336FM-15+000399999V0202001N002012200019N006000199+01501-00601999999ADDGF100991999999999999999999MA1102301999999REMMET056METAR ZSSS 070730Z 20002MPS 6000 NSC 15/M06 Q1023 NOSIG=
0117583670999992023010708004+31198+121336FM-15+000399999V0202001V002012200019N006000199+01501-00501999999ADDGF100991999999999999999999MA1102301999999REMMET064METAR ZSSS 070800Z 20002MPS 170V250 6000 NSC 15/M05 Q1023 NOSIG=
0109583670999992023010708304+31198+121336FM-15+000399999V0201801N004012200019N006000199+01301-00401999999ADDGF100991999999999999999999MA1102301999999REMMET056METAR ZSSS 070830Z 18004MPS 6000 NSC 13/M04 Q1023 NOSIG=
0118583670999992023010709004+31198+121336FM-15+000399999V0201801N004012200019N005000199+01201-00401999999ADDGF100991999999999999999999MA1102301999999MW1051REMMET059METAR ZSSS 070900Z 18004MPS 5000 HZ NSC 12/M04 Q1023 NOSIG=
0118583670999992023010709304+31198+121336FM-15+000399999V0201501N003012200019N005000199+01101-00501999999ADDGF100991999999999999999999MA1102401999999MW1051REMMET059METAR ZSSS 070930Z 15003MPS 5000 HZ NSC 11/M05 Q1024 NOSIG=
0118583670999992023010710004+31198+121336FM-15+000399999V0201701N003012200019N005000199+01001-00501999999ADDGF100991999999999999999999MA1102401999999MW1051REMMET059METAR ZSSS 071000Z 17003MPS 5000 HZ NSC 10/M05 Q1024 NOSIG=
0118583670999992023010710304+31198+121336FM-15+000399999V0201401N003012200019N005000199+01001-00501999999ADDGF100991999999999999999999MA1102401999999MW1051REMMET059METAR ZSSS 071030Z 14003MPS 5000 HZ NSC 10/M05 Q1024 NOSIG=
0109583670999992023010711004+31198+121336FM-15+000399999V0201301N003012200019N006000199+01001-00701999999ADDGF100991999999999999999999MA1102501999999REMMET056METAR ZSSS 071100Z 13003MPS 6000 NSC 10/M07 Q1025 NOSIG=
0109583670999992023010711304+31198+121336FM-15+000399999V0201401N003012200019N007000199+00901-00801999999ADDGF100991999999999999999999MA1102501999999REMMET056METAR ZSSS 071130Z 14003MPS 7000 NSC 09/M08 Q1025 NOSIG=
0109583670999992023010712004+31198+121336FM-15+000399999V0201301N003012200019N007000199+00901-00601999999ADDGF100991999999999999999999MA1102501999999REMMET056METAR ZSSS 071200Z 13003MPS 7000 NSC 09/M06 Q1025 NOSIG=
0109583670999992023010712304+31198+121336FM-15+000399999V0201501N003012200019N007000199+00901-00501999999ADDGF100991999999999999999999MA1102501999999REMMET056METAR ZSSS 071230Z 15003MPS 7000 NSC 09/M05 Q1025 NOSIG=
0109583670999992023010713004+31198+121336FM-15+000399999V0201401N003012200019N007000199+00901-00401999999ADDGF100991999999999999999999MA1102501999999REMMET056METAR ZSSS 071300Z 14003MPS 7000 NSC 09/M04 Q1025 NOSIG=
0109583670999992023010713304+31198+121336FM-15+000399999V0201501N003012200019N007000199+00801-00301999999ADDGF100991999999999999999999MA1102501999999REMMET056METAR ZSSS 071330Z 15003MPS 7000 NSC 08/M03 Q1025 NOSIG=
0109583670999992023010714004+31198+121336FM-15+000399999V0201501N004012200019N007000199+00801-00201999999ADDGF100991999999999999999999MA1102501999999REMMET056METAR ZSSS 071400Z 15004MPS 7000 NSC 08/M02 Q1025 NOSIG=
0109583670999992023010714304+31198+121336FM-15+000399999V0201501N003012200019N006000199+00801-00201999999ADDGF100991999999999999999999MA1102501999999REMMET056METAR ZSSS 071430Z 15003MPS 6000 NSC 08/M02 Q1025 NOSIG=
0109583670999992023010715004+31198+121336FM-15+000399999V0201501N003012200019N006000199+00701-00201999999ADDGF100991999999999999999999MA1102501999999REMMET056METAR ZSSS 071500Z 15003MPS 6000 NSC 07/M02 Q1025 NOSIG=
0118583670999992023010715304+31198+121336FM-15+000399999V0201501N003012200019N005000199+00701-00101999999ADDGF100991999999999999999999MA1102501999999MW1051REMMET059METAR ZSSS 071530Z 15003MPS 5000 HZ NSC 07/M01 Q1025 NOSIG=
0118583670999992023010716004+31198+121336FM-15+000399999V0201601N004012200019N005000199+00801-00101999999ADDGF100991999999999999999999MA1102401999999MW1051REMMET059METAR ZSSS 071600Z 16004MPS 5000 HZ NSC 08/M01 Q1024 NOSIG=
0118583670999992023010716304+31198+121336FM-15+000399999V0201501N004012200019N005000199+00701-00101999999ADDGF100991999999999999999999MA1102401999999MW1051REMMET059METAR ZSSS 071630Z 15004MPS 5000 HZ NSC 07/M01 Q1024 NOSIG=
0118583670999992023010717004+31198+121336FM-15+000399999V0201501N004012200019N005000199+00701-00101999999ADDGF100991999999999999999999MA1102401999999MW1051REMMET059METAR ZSSS 071700Z 15004MPS 5000 HZ NSC 07/M01 Q1024 NOSIG=
0118583670999992023010717304+31198+121336FM-15+000399999V0201501N003012200019N005000199+00701+00001999999ADDGF100991999999999999999999MA1102401999999MW1051REMMET059METAR ZSSS 071730Z 15003MPS 5000 HZ NSC 07/M00 Q1024 NOSIG=
0118583670999992023010718004+31198+121336FM-15+000399999V0201601N004012200019N005000199+00701+00001999999ADDGF100991999999999999999999MA1102401999999MW1051REMMET059METAR ZSSS 071800Z 16004MPS 5000 HZ NSC 07/M00 Q1024 NOSIG=
0118583670999992023010718304+31198+121336FM-15+000399999V0201501N003012200019N005000199+00601-00101999999ADDGF100991999999999999999999MA1102401999999MW1051REMMET059METAR ZSSS 071830Z 15003MPS 5000 HZ NSC 06/M01 Q1024 NOSIG=
0109583670999992023010719004+31198+121336FM-15+000399999V0201601N004012200019N006000199+00701+00001999999ADDGF100991999999999999999999MA1102301999999REMMET056METAR ZSSS 071900Z 16004MPS 6000 NSC 07/M00 Q1023 NOSIG=
0109583670999992023010719304+31198+121336FM-15+000399999V0201601N003012200019N007000199+00601-00101999999ADDGF100991999999999999999999MA1102301999999REMMET056METAR ZSSS 071930Z 16003MPS 7000 NSC 06/M01 Q1023 NOSIG=
0109583670999992023010720004+31198+121336FM-15+000399999V0201401N002012200019N008000199+00601+00001999999ADDGF100991999999999999999999MA1102301999999REMMET056METAR ZSSS 072000Z 14002MPS 8000 NSC 06/M00 Q1023 NOSIG=
0109583670999992023010720304+31198+121336FM-15+000399999V0201401N003012200019N008000199+00601+00001999999ADDGF100991999999999999999999MA1102301999999REMMET056METAR ZSSS 072030Z 14003MPS 8000 NSC 06/M00 Q1023 NOSIG=
0109583670999992023010721004+31198+121336FM-15+000399999V0201401N002012200019N008000199+00501+00001999999ADDGF100991999999999999999999MA1102301999999REMMET056METAR ZSSS 072100Z 14002MPS 8000 NSC 05/M00 Q1023 NOSIG=
0109583670999992023010721304+31198+121336FM-15+000399999V0201401N002012200019N008000199+00501+00001999999ADDGF100991999999999999999999MA1102401999999REMMET056METAR ZSSS 072130Z 14002MPS 8000 NSC 05/M00 Q1024 NOSIG=
0108583670999992023010722004+31198+121336FM-15+000399999V0201401N002012200019N008000199+00601+00101999999ADDGF100991999999999999999999MA1102401999999REMMET055METAR ZSSS 072200Z 14002MPS 8000 NSC 06/01 Q1024 NOSIG=
0108583670999992023010722304+31198+121336FM-15+000399999V0201601N002012200019N008000199+00501+00101999999ADDGF100991999999999999999999MA1102401999999REMMET055METAR ZSSS 072230Z 16002MPS 8000 NSC 05/01 Q1024 NOSIG=
0108583670999992023010723004+31198+121336FM-15+000399999V0201601N003012200019N008000199+00601+00101999999ADDGF100991999999999999999999MA1102401999999REMMET055METAR ZSSS 072300Z 16003MPS 8000 NSC 06/01 Q1024 NOSIG=
0108583670999992023010723304+31198+121336FM-15+000399999V0201501N003012200019N008000199+00701+00201999999ADDGF100991999999999999999999MA1102401999999REMMET055METAR ZSSS 072330Z 15003MPS 8000 NSC 07/02 Q1024 NOSIG=
0108583670999992023010800004+31198+121336FM-15+000399999V0201501N003012200019N008000199+00801+00301999999ADDGF100991999999999999999999MA1102401999999REMMET055METAR ZSSS 080000Z 15003MPS 8000 NSC 08/03 Q1024 NOSIG=
0108583670999992023010800304+31198+121336FM-15+000399999V0201501N003012200019N008000199+01001+00201999999ADDGF100991999999999999999999MA1102501999999REMMET055METAR ZSSS 080030Z 15003MPS 8000 NSC 10/02 Q1025 NOSIG=
0108583670999992023010801004+31198+121336FM-15+000399999V0201601N004012200019N008000199+01101+00101999999ADDGF100991999999999999999999MA1102501999999REMMET055METAR ZSSS 080100Z 16004MPS 8000 NSC 11/01 Q1025 NOSIG=
0108583670999992023010801304+31198+121336FM-15+000399999V0201701N005012200019N008000199+01201+00101999999ADDGF100991999999999999999999MA1102501999999REMMET055METAR ZSSS 080130Z 17005MPS 8000 NSC 12/01 Q1025 NOSIG=
0108583670999992023010802004+31198+121336FM-15+000399999V0201601N006012200019N008000199+01301+00001999999ADDGF100991999999999999999999MA1102501999999REMMET055METAR ZSSS 080200Z 16006MPS 8000 NSC 13/00 Q1025 NOSIG=
0108583670999992023010802304+31198+121336FM-15+000399999V0201701N004012200019N008000199+01501+00001999999ADDGF100991999999999999999999MA1102501999999REMMET055METAR ZSSS 080230Z 17004MPS 8000 NSC 15/00 Q1025 NOSIG=
0109583670999992023010803004+31198+121336FM-15+000399999V0201701N004012200019N008000199+01501-00101999999ADDGF100991999999999999999999MA1102401999999REMMET056METAR ZSSS 080300Z 17004MPS 8000 NSC 15/M01 Q1024 NOSIG=
0088583670999992023010803304+31198+121336FM-15+000399999V0201501V004019999999Y009900599+01601-00101999999ADDMA1102401999999REMMET061METAR ZSSS 080330Z 15004MPS 130V190 CAVOK 16/M01 Q1024 NOSIG=
0088583670999992023010804004+31198+121336FM-15+000399999V0201701V004019999999Y009900599+01701+00001999999ADDMA1102301999999REMMET061METAR ZSSS 080400Z 17004MPS 140V200 CAVOK 17/M00 Q1023 NOSIG=
0087583670999992023010804304+31198+121336FM-15+000399999V0201901V004019999999Y009900599+01701+00101999999ADDMA1102301999999REMMET060METAR ZSSS 080430Z 19004MPS 160V240 CAVOK 17/01 Q1023 NOSIG=
0088583670999992023010805004+31198+121336FM-15+000399999V0201901V004019999999Y009900599+01701+00001999999ADDMA1102201999999REMMET061METAR ZSSS 080500Z 19004MPS 160V220 CAVOK 17/M00 Q1022 NOSIG=
0079583670999992023010805304+31198+121336FM-15+000399999V0201601N004019999999Y009900599+01801+00101999999ADDMA1102201999999REMMET052METAR ZSSS 080530Z 16004MPS CAVOK 18/01 Q1022 NOSIG=
0080583670999992023010806004+31198+121336FM-15+000399999V0201701N005019999999Y009900599+01801+00001999999ADDMA1102101999999REMMET053METAR ZSSS 080600Z 17005MPS CAVOK 18/M00 Q1021 NOSIG=
0080583670999992023010806304+31198+121336FM-15+000399999V0201801N006019999999Y009900599+01801+00001999999ADDMA1102101999999REMMET053METAR ZSSS 080630Z 18006MPS CAVOK 18/M00 Q1021 NOSIG=
0080583670999992023010807004+31198+121336FM-15+000399999V0201601N006019999999Y009900599+01801+00001999999ADDMA1102101999999REMMET053METAR ZSSS 080700Z 16006MPS CAVOK 18/M00 Q1021 NOSIG=
0079583670999992023010807304+31198+121336FM-15+000399999V0201701N006019999999Y009900599+01801+00101999999ADDMA1102101999999REMMET052METAR ZSSS 080730Z 17006MPS CAVOK 18/01 Q1021 NOSIG=
0079583670999992023010808004+31198+121336FM-15+000399999V0201701N004019999999Y009900599+01701+00101999999ADDMA1102101999999REMMET052METAR ZSSS 080800Z 17004MPS CAVOK 17/01 Q1021 NOSIG=
0087583670999992023010808304+31198+121336FM-15+000399999V0201701V004019999999Y009900599+01601+00101999999ADDMA1102101999999REMMET060METAR ZSSS 080830Z 17004MPS 140V200 CAVOK 16/01 Q1021 NOSIG=
0079583670999992023010809004+31198+121336FM-15+000399999V0201701N004019999999Y009900599+01501+00101999999ADDMA1102101999999REMMET052METAR ZSSS 080900Z 17004MPS CAVOK 15/01 Q1021 NOSIG=
0079583670999992023010809304+31198+121336FM-15+000399999V0201501N003019999999Y009900599+01401+00301999999ADDMA1102101999999REMMET052METAR ZSSS 080930Z 15003MPS CAVOK 14/03 Q1021 NOSIG=
0079583670999992023010810004+31198+121336FM-15+000399999V0201501N003019999999Y009900599+01301+00301999999ADDMA1102201999999REMMET052METAR ZSSS 081000Z 15003MPS CAVOK 13/03 Q1022 NOSIG=
0079583670999992023010810304+31198+121336FM-15+000399999V0201401N002019999999Y009900599+01301+00401999999ADDMA1102201999999REMMET052METAR ZSSS 081030Z 14002MPS CAVOK 13/04 Q1022 NOSIG=
0079583670999992023010811004+31198+121336FM-15+000399999V0201501N002019999999Y009900599+01201+00401999999ADDMA1102201999999REMMET052METAR ZSSS 081100Z 15002MPS CAVOK 12/04 Q1022 NOSIG=
0079583670999992023010811304+31198+121336FM-15+000399999V0201601N002019999999Y009900599+01101+00401999999ADDMA1102201999999REMMET052METAR ZSSS 081130Z 16002MPS CAVOK 11/04 Q1022 NOSIG=
0079583670999992023010812004+31198+121336FM-15+000399999V0201501N002019999999Y009900599+01101+00501999999ADDMA1102201999999REMMET052METAR ZSSS 081200Z 15002MPS CAVOK 11/05 Q1022 NOSIG=
0079583670999992023010812304+31198+121336FM-15+000399999V0201501N002019999999Y009900599+01101+00501999999ADDMA1102301999999REMMET052METAR ZSSS 081230Z 15002MPS CAVOK 11/05 Q1023 NOSIG=
0087583670999992023010813004+31198+121336FM-15+000399999V0201401V002019999999Y009900599+01101+00501999999ADDMA1102301999999REMMET060METAR ZSSS 081300Z 14002MPS 120V200 CAVOK 11/05 Q1023 NOSIG=
0079583670999992023010813304+31198+121336FM-15+000399999V0201301N002019999999Y009900599+01001+00501999999ADDMA1102301999999REMMET052METAR ZSSS 081330Z 13002MPS CAVOK 10/05 Q1023 NOSIG=
0079583670999992023010814004+31198+121336FM-15+000399999V0201401N002019999999Y009900599+01001+00501999999ADDMA1102301999999REMMET052METAR ZSSS 081400Z 14002MPS CAVOK 10/05 Q1023 NOSIG=
0087583670999992023010814304+31198+121336FM-15+000399999V0201401V002019999999Y009900599+01001+00601999999ADDMA1102201999999REMMET060METAR ZSSS 081430Z 14002MPS 110V170 CAVOK 10/06 Q1022 NOSIG=
0079583670999992023010815004+31198+121336FM-15+000399999V0201501N002019999999Y009900599+00901+00501999999ADDMA1102201999999REMMET052METAR ZSSS 081500Z 15002MPS CAVOK 09/05 Q1022 NOSIG=
0079583670999992023010815304+31198+121336FM-15+000399999V0201601N002019999999Y009900599+00901+00601999999ADDMA1102201999999REMMET052METAR ZSSS 081530Z 16002MPS CAVOK 09/06 Q1022 NOSIG=
0079583670999992023010816004+31198+121336FM-15+000399999V0209999V001019999999Y009900599+00901+00601999999ADDMA1102201999999REMMET052METAR ZSSS 081600Z VRB01MPS CAVOK 09/06 Q1022 NOSIG=
0079583670999992023010816304+31198+121336FM-15+000399999V0201501N002019999999Y009900599+00801+00601999999ADDMA1102201999999REMMET052METAR ZSSS 081630Z 15002MPS CAVOK 08/06 Q1022 NOSIG=
0079583670999992023010817004+31198+121336FM-15+000399999V0201601N002019999999Y009900599+00801+00601999999ADDMA1102201999999REMMET052METAR ZSSS 081700Z 16002MPS CAVOK 08/06 Q1022 NOSIG=
0079583670999992023010817304+31198+121336FM-15+000399999V0201601N001019999999Y009900599+00801+00501999999ADDMA1102201999999REMMET052METAR ZSSS 081730Z 16001MPS CAVOK 08/05 Q1022 NOSIG=
0079583670999992023010818004+31198+121336FM-15+000399999V0200201N001019999999Y009900599+00601+00401999999ADDMA1102201999999REMMET052METAR ZSSS 081800Z 02001MPS CAVOK 06/04 Q1022 NOSIG=
0079583670999992023010818304+31198+121336FM-15+000399999V0209999C000019999999Y009900599+00501+00401999999ADDMA1102201999999REMMET052METAR ZSSS 081830Z 00000MPS CAVOK 05/04 Q1022 NOSIG=
0079583670999992023010819004+31198+121336FM-15+000399999V0209999C000019999999Y009900599+00601+00501999999ADDMA1102201999999REMMET052METAR ZSSS 081900Z 00000MPS CAVOK 06/05 Q1022 NOSIG=
0079583670999992023010819304+31198+121336FM-15+000399999V0209999C000019999999Y009900599+00501+00501999999ADDMA1102201999999REMMET052METAR ZSSS 081930Z 00000MPS CAVOK 05/05 Q1022 NOSIG=
0079583670999992023010820004+31198+121336FM-15+000399999V0202001N001019999999Y009900599+00501+00401999999ADDMA1102201999999REMMET052METAR ZSSS 082000Z 20001MPS CAVOK 05/04 Q1022 NOSIG=
0079583670999992023010820304+31198+121336FM-15+000399999V0202001N001019999999Y009900599+00601+00501999999ADDMA1102201999999REMMET052METAR ZSSS 082030Z 20001MPS CAVOK 06/05 Q1022 NOSIG=
0079583670999992023010821004+31198+121336FM-15+000399999V0202101N001019999999Y009900599+00601+00501999999ADDMA1102201999999REMMET052METAR ZSSS 082100Z 21001MPS CAVOK 06/05 Q1022 NOSIG=
0079583670999992023010821304+31198+121336FM-15+000399999V0201601N001019999999Y009900599+00601+00501999999ADDMA1102201999999REMMET052METAR ZSSS 082130Z 16001MPS CAVOK 06/05 Q1022 NOSIG=
0079583670999992023010822004+31198+121336FM-15+000399999V0200301N001019999999Y009900599+00501+00501999999ADDMA1102201999999REMMET052METAR ZSSS 082200Z 03001MPS CAVOK 05/05 Q1022 NOSIG=
0079583670999992023010822304+31198+121336FM-15+000399999V0209999C000019999999Y009900599+00401+00301999999ADDMA1102301999999REMMET052METAR ZSSS 082230Z 00000MPS CAVOK 04/03 Q1023 NOSIG=
0079583670999992023010823004+31198+121336FM-15+000399999V0209999V001019999999Y009900599+00501+00401999999ADDMA1102301999999REMMET052METAR ZSSS 082300Z VRB01MPS CAVOK 05/04 Q1023 NOSIG=
0079583670999992023010823304+31198+121336FM-15+000399999V0209999C000019999999Y009900599+00501+00401999999ADDMA1102301999999REMMET052METAR ZSSS 082330Z 00000MPS CAVOK 05/04 Q1023 NOSIG=
0079583670999992023010900004+31198+121336FM-15+000399999V0209999V001019999999Y009900599+00701+00601999999ADDMA1102401999999REMMET052METAR ZSSS 090000Z VRB01MPS CAVOK 07/06 Q1024 NOSIG=
0116583670999992023010900304+31198+121336FM-15+000399999V0200201V002012200019N008000199+01001+00801999999ADDGF100991999999999999999999MA1102401999999REMMET063METAR ZSSS 090030Z 02002MPS 360V060 8000 NSC 10/08 Q1024 NOSIG=
0079583670999992023010901004+31198+121336FM-15+000399999V0209999V001019999999Y009900599+01201+00601999999ADDMA1102401999999REMMET052METAR ZSSS 090100Z VRB01MPS CAVOK 12/06 Q1024 NOSIG=
0079583670999992023010901304+31198+121336FM-15+000399999V0209999V001019999999Y009900599+01301+00601999999ADDMA1102501999999REMMET052METAR ZSSS 090130Z VRB01MPS CAVOK 13/06 Q1025 NOSIG=
0087583670999992023010902004+31198+121336FM-15+000399999V0203501V003019999999Y009900599+01401+00701999999ADDMA1102401999999REMMET060METAR ZSSS 090200Z 35003MPS 310V050 CAVOK 14/07 Q1024 NOSIG=
0079583670999992023010902304+31198+121336FM-15+000399999V0203601N005019999999Y009900599+01601+00501999999ADDMA1102401999999REMMET052METAR ZSSS 090230Z 36005MPS CAVOK 16/05 Q1024 NOSIG=
0116583670999992023010903004+31198+121336FM-15+000399999V0200101V006012200019N008000199+01601+00601999999ADDGF100991999999999999999999MA1102401999999REMMET063METAR ZSSS 090300Z 01006MPS 340V040 8000 NSC 16/06 Q1024 NOSIG=
0116583670999992023010903304+31198+121336FM-15+000399999V0200201V005012200019N008000199+01701+00601999999ADDGF100991999999999999999999MA1102401999999REMMET063METAR ZSSS 090330Z 02005MPS 360V060 8000 NSC 17/06 Q1024 NOSIG=
0108583670999992023010904004+31198+121336FM-15+000399999V0200401N005012200019N008000199+01701+00401999999ADDGF100991999999999999999999MA1102401999999REMMET055METAR ZSSS 090400Z 04005MPS 8000 NSC 17/04 Q1024 NOSIG=
0108583670999992023010904304+31198+121336FM-15+000399999V0200201N006012200019N008000199+01801+00501999999ADDGF100991999999999999999999MA1102401999999REMMET055METAR ZSSS 090430Z 02006MPS 8000 NSC 18/05 Q1024 NOSIG=
0116583670999992023010905004+31198+121336FM-15+000399999V0200401V004012200019N008000199+01701+00401999999ADDGF100991999999999999999999MA1102401999999REMMET063METAR ZSSS 090500Z 04004MPS 020V080 8000 NSC 17/04 Q1024 NOSIG=
0108583670999992023010905304+31198+121336FM-15+000399999V0200401N005012200019N008000199+01801+00401999999ADDGF100991999999999999999999MA1102401999999REMMET055METAR ZSSS 090530Z 04005MPS 8000 NSC 18/04 Q1024 NOSIG=
0108583670999992023010906004+31198+121336FM-15+000399999V0200301N005012200019N008000199+01701+00401999999ADDGF100991999999999999999999MA1102401999999REMMET055METAR ZSSS 090600Z 03005MPS 8000 NSC 17/04 Q1024 NOSIG=
0108583670999992023010906304+31198+121336FM-15+000399999V0200201N006012200019N008000199+01701+00401999999ADDGF100991999999999999999999MA1102401999999REMMET055METAR ZSSS 090630Z 02006MPS 8000 NSC 17/04 Q1024 NOSIG=
0108583670999992023010907004+31198+121336FM-15+000399999V0200301N007012200019N008000199+01601+00501999999ADDGF100991999999999999999999MA1102401999999REMMET055METAR ZSSS 090700Z 03007MPS 8000 NSC 16/05 Q1024 NOSIG=
0108583670999992023010907304+31198+121336FM-15+000399999V0200301N007012200019N007000199+01501+00701999999ADDGF100991999999999999999999MA1102501999999REMMET055METAR ZSSS 090730Z 03007MPS 7000 NSC 15/07 Q1025 NOSIG=
0149583670999992023010908004+31198+121336FM-15+000399999V0200301N007019999999N006000199+01401+00801999999ADDGA1021+007011999GE19AGL   +99999+99999GF199999021999007011999999MA1102501999999REMMET058METAR ZSSS 090800Z 03007MPS 6000 FEW023 14/08 Q1025 NOSIG=
0149583670999992023010908304+31198+121336FM-15+000399999V0200301N007019999999N006000199+01201+00701999999ADDGA1041+007011999GE19AGL   +99999+99999GF199999041999007011999999MA1102501999999REMMET058METAR ZSSS 090830Z 03007MPS 6000 SCT023 12/07 Q1025 NOSIG=
0149583670999992023010909004+31198+121336FM-15+000399999V0200301N00801007011CN006000199+01101+00701999999ADDGA1071+007011999GE19AGL   +99999+99999GF199999071999007011999999MA1102601999999REMMET058METAR ZSSS 090900Z 03008MPS 6000 BKN023 11/07 Q1026 NOSIG=
0149583670999992023010909304+31198+121336FM-15+000399999V0200301N00801007011CN006000199+01101+00601999999ADDGA1071+007011999GE19AGL   +99999+99999GF199999071999007011999999MA1102601999999REMMET058METAR ZSSS 090930Z 03008MPS 6000 BKN023 11/06 Q1026 NOSIG=
0149583670999992023010910004+31198+121336FM-15+000399999V0200301N00801007011CN006000199+01101+00601999999ADDGA1071+007011999GE19AGL   +99999+99999GF199999071999007011999999MA1102701999999REMMET058METAR ZSSS 091000Z 03008MPS 6000 BKN023 11/06 Q1027 NOSIG=
0157583670999992023010910304+31198+121336FM-15+000399999V0200401V00701006101CN006000199+01101+00601999999ADDGA1071+006101999GE19AGL   +99999+99999GF199999071999006101999999MA1102701999999REMMET066METAR ZSSS 091030Z 04007MPS 010V070 6000 BKN020 11/06 Q1027 NOSIG=
0149583670999992023010911004+31198+121336FM-15+000399999V0200401N00701006101CN006000199+01101+00601999999ADDGA1071+006101999GE19AGL   +99999+99999GF199999071999006101999999MA1102801999999REMMET058METAR ZSSS 091100Z 04007MPS 6000 BKN020 11/06 Q1028 NOSIG=
0149583670999992023010911304+31198+121336FM-15+000399999V0200501N00601006101CN006000199+01101+00601999999ADDGA1071+006101999GE19AGL   +99999+99999GF199999071999006101999999MA1102801999999REMMET058METAR ZSSS 091130Z 05006MPS 6000 BKN020 11/06 Q1028 NOSIG=
0149583670999992023010912004+31198+121336FM-15+000399999V0200401N00801006101CN006000199+01001+00601999999ADDGA1071+006101999GE19AGL   +99999+99999GF199999071999006101999999MA1102801999999REMMET058METAR ZSSS 091200Z 04008MPS 6000 BKN020 10/06 Q1028 NOSIG=
0157583670999992023010912304+31198+121336FM-15+000399999V0200401V00701006101CN006000199+01001+00601999999ADDGA1071+006101999GE19AGL   +99999+99999GF199999071999006101999999MA1102901999999REMMET066METAR ZSSS 091230Z 04007MPS 010V070 6000 BKN020 10/06 Q1029 NOSIG=
0157583670999992023010913004+31198+121336FM-15+000399999V0200501V00701006101CN006000199+01001+00501999999ADDGA1071+006101999GE19AGL   +99999+99999GF199999071999006101999999MA1102901999999REMMET066METAR ZSSS 091300Z 05007MPS 020V090 6000 BKN020 10/05 Q1029 NOSIG=
0157583670999992023010913304+31198+121336FM-15+000399999V0200401V00601007011CN008000199+01001+00401999999ADDGA1071+007011999GE19AGL   +99999+99999GF199999071999007011999999MA1102901999999REMMET066METAR ZSSS 091330Z 04006MPS 010V070 8000 BKN023 10/04 Q1029 NOSIG=
0149583670999992023010914004+31198+121336FM-15+000399999V0200301N00801007011CN008000199+01001+00401999999ADDGA1071+007011999GE19AGL   +99999+99999GF199999071999007011999999MA1102901999999REMMET058METAR ZSSS 091400Z 03008MPS 8000 BKN023 10/04 Q1029 NOSIG=
0149583670999992023010914304+31198+121336FM-15+000399999V0200401N00701007011CN009999199+00901+00301999999ADDGA1071+007011999GE19AGL   +99999+99999GF199999071999007011999999MA1102901999999REMMET058METAR ZSSS 091430Z 04007MPS 9999 BKN023 09/03 Q1029 NOSIG=
0149583670999992023010915004+31198+121336FM-15+000399999V0200601N00501007011CN009999199+00901+00301999999ADDGA1071+007011999GE19AGL   +99999+99999GF199999071999007011999999MA1102901999999REMMET058METAR ZSSS 091500Z 06005MPS 9999 BKN023 09/03 Q1029 NOSIG=
0157583670999992023010915304+31198+121336FM-15+000399999V0200401V00601007011CN009999199+00901+00301999999ADDGA1071+007011999GE19AGL   +99999+99999GF199999071999007011999999MA1102901999999REMMET066METAR ZSSS 091530Z 04006MPS 010V070 9999 BKN023 09/03 Q1029 NOSIG=
0157583670999992023010916004+31198+121336FM-15+000399999V0200601V00501007011CN009999199+00901+00301999999ADDGA1071+007011999GE19AGL   +99999+99999GF199999071999007011999999MA1103001999999REMMET066METAR ZSSS 091600Z 06005MPS 030V090 9999 BKN023 09/03 Q1030 NOSIG=
0157583670999992023010916304+31198+121336FM-15+000399999V0200501V00501007011CN009999199+00901+00301999999ADDGA1071+007011999GE19AGL   +99999+99999GF199999071999007011999999MA1102901999999REMMET066METAR ZSSS 091630Z 05005MPS 020V090 9999 BKN023 09/03 Q1029 NOSIG=
0149583670999992023010917004+31198+121336FM-15+000399999V0200401N00401007011CN009999199+00901+00301999999ADDGA1071+007011999GE19AGL   +99999+99999GF199999071999007011999999MA1102901999999REMMET058METAR ZSSS 091700Z 04004MPS 9999 BKN023 09/03 Q1029 NOSIG=
0157583670999992023010917304+31198+121336FM-15+000399999V0200501V00401007011CN009999199+00801+00301999999ADDGA1071+007011999GE19AGL   +99999+99999GF199999071999007011999999MA1102901999999REMMET066METAR ZSSS 091730Z 05004MPS 020V080 9999 BKN023 08/03 Q1029 NOSIG=
0149583670999992023010918004+31198+121336FM-15+000399999V0200401N00501007011CN009999199+00801+00301999999ADDGA1071+007011999GE19AGL   +99999+99999GF199999071999007011999999MA1102901999999REMMET058METAR ZSSS 091800Z 04005MPS 9999 BKN023 08/03 Q1029 NOSIG=
0157583670999992023010918304+31198+121336FM-15+000399999V0200501V00401007011CN009999199+00801+00301999999ADDGA1071+007011999GE19AGL   +99999+99999GF199999071999007011999999MA1102901999999REMMET066METAR ZSSS 091830Z 05004MPS 020V080 9999 BKN023 08/03 Q1029 NOSIG=
0149583670999992023010919004+31198+121336FM-15+000399999V0200501N00501007011CN009999199+00801+00201999999ADDGA1071+007011999GE19AGL   +99999+99999GF199999071999007011999999MA1102901999999REMMET058METAR ZSSS 091900Z 05005MPS 9999 BKN023 08/02 Q1029 NOSIG=
0149583670999992023010919304+31198+121336FM-15+000399999V0200401N00501007011CN009999199+00701+00201999999ADDGA1071+007011999GE19AGL   +99999+99999GF199999071999007011999999MA1102901999999REMMET058METAR ZSSS 091930Z 04005MPS 9999 BKN023 07/02 Q1029 NOSIG=
0149583670999992023010920004+31198+121336FM-15+000399999V0200601N00401007011CN009999199+00801+00201999999ADDGA1071+007011999GE19AGL   +99999+99999GF199999071999007011999999MA1102801999999REMMET058METAR ZSSS 092000Z 06004MPS 9999 BKN023 08/02 Q1028 NOSIG=
0149583670999992023010920304+31198+121336FM-15+000399999V0200601N00301007011CN009999199+00701+00201999999ADDGA1071+007011999GE19AGL   +99999+99999GF199999071999007011999999MA1102801999999REMMET058METAR ZSSS 092030Z 06003MPS 9999 BKN023 07/02 Q1028 NOSIG=
0149583670999992023010921004+31198+121336FM-15+000399999V0200601N00401007011CN009999199+00701+00201999999ADDGA1071+007011999GE19AGL   +99999+99999GF199999071999007011999999MA1102901999999REMMET058METAR ZSSS 092100Z 06004MPS 9999 BKN023 07/02 Q1029 NOSIG=
0149583670999992023010921304+31198+121336FM-15+000399999V0200501N00501007011CN009999199+00701+00201999999ADDGA1071+007011999GE19AGL   +99999+99999GF199999071999007011999999MA1102901999999REMMET058METAR ZSSS 092130Z 05005MPS 9999 BKN023 07/02 Q1029 NOSIG=
0149583670999992023010922004+31198+121336FM-15+000399999V0200401N00501007011CN009999199+00701+00201999999ADDGA1071+007011999GE19AGL   +99999+99999GF199999071999007011999999MA1102901999999REMMET058METAR ZSSS 092200Z 04005MPS 9999 BKN023 07/02 Q1029 NOSIG=
0149583670999992023010922304+31198+121336FM-15+000399999V0200401N00401007011CN009999199+00701+00201999999ADDGA1071+007011999GE19AGL   +99999+99999GF199999071999007011999999MA1102901999999REMMET058METAR ZSSS 092230Z 04004MPS 9999 BKN023 07/02 Q1029 NOSIG=
0157583670999992023010923004+31198+121336FM-15+000399999V0200501V00301007011CN009999199+00701+00201999999ADDGA1071+007011999GE19AGL   +99999+99999GF199999071999007011999999MA1102901999999REMMET066METAR ZSSS 092300Z 05003MPS 010V080 9999 BKN023 07/02 Q1029 NOSIG=
0149583670999992023010923304+31198+121336FM-15+000399999V0200401N00301007011CN009999199+00701+00201999999ADDGA1071+007011999GE19AGL   +99999+99999GF199999071999007011999999MA1102901999999REMMET058METAR ZSSS 092330Z 04003MPS 9999 BKN023 07/02 Q1029 NOSIG=
0149583670999992023011000004+31198+121336FM-15+000399999V0200401N00401007011CN009999199+00801+00301999999ADDGA1071+007011999GE19AGL   +99999+99999GF199999071999007011999999MA1103001999999REMMET058METAR ZSSS 100000Z 04004MPS 9999 BKN023 08/03 Q1030 NOSIG=
0157583670999992023011000304+31198+121336FM-15+000399999V0200501V00401007011CN009999199+00801+00301999999ADDGA1071+007011999GE19AGL   +99999+99999GF199999071999007011999999MA1103001999999REMMET066METAR ZSSS 100030Z 05004MPS 010V070 9999 BKN023 08/03 Q1030 NOSIG=
0149583670999992023011001004+31198+121336FM-15+000399999V0200401N00301007011CN009999199+00901+00301999999ADDGA1071+007011999GE19AGL   +99999+99999GF199999071999007011999999MA1103001999999REMMET058METAR ZSSS 100100Z 04003MPS 9999 BKN023 09/03 Q1030 NOSIG=
0157583670999992023011001304+31198+121336FM-15+000399999V0200201V00301007011CN009999199+00901+00301999999ADDGA1071+007011999GE19AGL   +99999+99999GF199999071999007011999999MA1103001999999REMMET066METAR ZSSS 100130Z 02003MPS 360V070 9999 BKN023 09/03 Q1030 NOSIG=
0149583670999992023011002004+31198+121336FM-15+000399999V0200401N00201007011CN009999199+00901+00301999999ADDGA1071+007011999GE19AGL   +99999+99999GF199999071999007011999999MA1103001999999REMMET058METAR ZSSS 100200Z 04002MPS 9999 BKN023 09/03 Q1030 NOSIG=
0157583670999992023011002304+31198+121336FM-15+000399999V0200201V00201007921CN009999199+01001+00301999999ADDGA1071+007921999GE19AGL   +99999+99999GF199999071999007921999999MA1103001999999REMMET066METAR ZSSS 100230Z 02002MPS 340V080 9999 BKN026 10/03 Q1030 NOSIG=
0157583670999992023011003004+31198+121336FM-15+000399999V0200201V00301007921CN009999199+01001+00301999999ADDGA1071+007921999GE19AGL   +99999+99999GF199999071999007921999999MA1102901999999REMMET066METAR ZSSS 100300Z 02003MPS 350V060 9999 BKN026 10/03 Q1029 NOSIG=
0149583670999992023011003304+31198+121336FM-15+000399999V0209999V002019999999N009999199+01201+00301999999ADDGA1041+009141999GE19AGL   +99999+99999GF199999041999009141999999MA1102901999999REMMET058METAR ZSSS 100330Z VRB02MPS 9999 SCT030 12/03 Q1029 NOSIG=
0149583670999992023011004004+31198+121336FM-15+000399999V0209999V002019999999N009999199+01201+00301999999ADDGA1041+009141999GE19AGL   +99999+99999GF199999041999009141999999MA1102801999999REMMET058METAR ZSSS 100400Z VRB02MPS 9999 SCT030 12/03 Q1028 NOSIG=
0157583670999992023011004304+31198+121336FM-15+000399999V0200401V003019999999N009999199+01101+00301999999ADDGA1041+010061999GE19AGL   +99999+99999GF199999041999010061999999MA1102801999999REMMET066METAR ZSSS 100430Z 04003MPS 340V120 9999 SCT033 11/03 Q1028 NOSIG=
0087583670999992023011005004+31198+121336FM-15+000399999V0200101V003019999999Y009900599+01201+00301999999ADDMA1102701999999REMMET060METAR ZSSS 100500Z 01003MPS 310V060 CAVOK 12/03 Q1027 NOSIG=
0079583670999992023011005304+31198+121336FM-15+000399999V0209999V003019999999Y009900599+01301+00301999999ADDMA1102701999999REMMET052METAR ZSSS 100530Z VRB03MPS CAVOK 13/03 Q1027 NOSIG=
0087583670999992023011006004+31198+121336FM-15+000399999V0200301V003019999999Y009900599+01301+00301999999ADDMA1102601999999REMMET060METAR ZSSS 100600Z 03003MPS 360V170 CAVOK 13/03 Q1026 NOSIG=
0087583670999992023011006304+31198+121336FM-15+000399999V0200801V003019999999Y009900599+01301+00301999999ADDMA1102601999999REMMET060METAR ZSSS 100630Z 08003MPS 020V140 CAVOK 13/03 Q1026 NOSIG=
0087583670999992023011007004+31198+121336FM-15+000399999V0200401V003019999999Y009900599+01301+00201999999ADDMA1102601999999REMMET060METAR ZSSS 100700Z 04003MPS 320V090 CAVOK 13/02 Q1026 NOSIG=
0087583670999992023011007304+31198+121336FM-15+000399999V0200601V003019999999Y009900599+01301+00201999999ADDMA1102601999999REMMET060METAR ZSSS 100730Z 06003MPS 020V090 CAVOK 13/02 Q1026 NOSIG=
0087583670999992023011008004+31198+121336FM-15+000399999V0200501V003019999999Y009900599+01201+00301999999ADDMA1102601999999REMMET060METAR ZSSS 100800Z 05003MPS 010V120 CAVOK 12/03 Q1026 NOSIG=
0079583670999992023011008304+31198+121336FM-15+000399999V0200601N003019999999Y009900599+01201+00301999999ADDMA1102601999999REMMET052METAR ZSSS 100830Z 06003MPS CAVOK 12/03 Q1026 NOSIG=
0087583670999992023011009004+31198+121336FM-15+000399999V0200501V003019999999Y009900599+01101+00301999999ADDMA1102601999999REMMET060METAR ZSSS 100900Z 05003MPS 020V080 CAVOK 11/03 Q1026 NOSIG=
0079583670999992023011009304+31198+121336FM-15+000399999V0200701N003019999999Y009900599+01001+00301999999ADDMA1102601999999REMMET052METAR ZSSS 100930Z 07003MPS CAVOK 10/03 Q1026 NOSIG=
0087583670999992023011010004+31198+121336FM-15+000399999V0201001V003019999999Y009900599+01001+00301999999ADDMA1102601999999REMMET060METAR ZSSS 101000Z 10003MPS 070V130 CAVOK 10/03 Q1026 NOSIG=
0079583670999992023011010304+31198+121336FM-15+000399999V0201001N003019999999Y009900599+01001+00401999999ADDMA1102701999999REMMET052METAR ZSSS 101030Z 10003MPS CAVOK 10/04 Q1027 NOSIG=
0079583670999992023011011004+31198+121336FM-15+000399999V0200801N003019999999Y009900599+00901+00401999999ADDMA1102701999999REMMET052METAR ZSSS 101100Z 08003MPS CAVOK 09/04 Q1027 NOSIG=
0079583670999992023011011304+31198+121336FM-15+000399999V0200901N003019999999Y009900599+00901+00401999999ADDMA1102701999999REMMET052METAR ZSSS 101130Z 09003MPS CAVOK 09/04 Q1027 NOSIG=
0079583670999992023011012004+31198+121336FM-15+000399999V0200801N003019999999Y009900599+00901+00401999999ADDMA1102701999999REMMET052METAR ZSSS 101200Z 08003MPS CAVOK 09/04 Q1027 NOSIG=
0079583670999992023011012304+31198+121336FM-15+000399999V0200701N002019999999Y009900599+00801+00401999999ADDMA1102701999999REMMET052METAR ZSSS 101230Z 07002MPS CAVOK 08/04 Q1027 NOSIG=
0079583670999992023011013004+31198+121336FM-15+000399999V0200801N002019999999Y009900599+00801+00401999999ADDMA1102701999999REMMET052METAR ZSSS 101300Z 08002MPS CAVOK 08/04 Q1027 NOSIG=
0079583670999992023011013304+31198+121336FM-15+000399999V0200701N002019999999Y009900599+00801+00401999999ADDMA1102701999999REMMET052METAR ZSSS 101330Z 07002MPS CAVOK 08/04 Q1027 NOSIG=
0079583670999992023011014004+31198+121336FM-15+000399999V0200801N002019999999Y009900599+00801+00401999999ADDMA1102701999999REMMET052METAR ZSSS 101400Z 08002MPS CAVOK 08/04 Q1027 NOSIG=
0079583670999992023011014304+31198+121336FM-15+000399999V0200201N001019999999Y009900599+00601+00301999999ADDMA1102701999999REMMET052METAR ZSSS 101430Z 02001MPS CAVOK 06/03 Q1027 NOSIG=
0079583670999992023011015004+31198+121336FM-15+000399999V0200401N002019999999Y009900599+00701+00401999999ADDMA1102601999999REMMET052METAR ZSSS 101500Z 04002MPS CAVOK 07/04 Q1026 NOSIG=
0079583670999992023011015304+31198+121336FM-15+000399999V0200201N002019999999Y009900599+00501+00301999999ADDMA1102601999999REMMET052METAR ZSSS 101530Z 02002MPS CAVOK 05/03 Q1026 NOSIG=
0079583670999992023011016004+31198+121336FM-15+000399999V0201001N001019999999Y009900599+00601+00401999999ADDMA1102601999999REMMET052METAR ZSSS 101600Z 10001MPS CAVOK 06/04 Q1026 NOSIG=
0079583670999992023011016304+31198+121336FM-15+000399999V0209999V001019999999Y009900599+00601+00301999999ADDMA1102601999999REMMET052METAR ZSSS 101630Z VRB01MPS CAVOK 06/03 Q1026 NOSIG=
0079583670999992023011017004+31198+121336FM-15+000399999V0200601N001019999999Y009900599+00501+00301999999ADDMA1102601999999REMMET052METAR ZSSS 101700Z 06001MPS CAVOK 05/03 Q1026 NOSIG=
0079583670999992023011017304+31198+121336FM-15+000399999V0203601N002019999999Y009900599+00501+00301999999ADDMA1102601999999REMMET052METAR ZSSS 101730Z 36002MPS CAVOK 05/03 Q1026 NOSIG=
0079583670999992023011018004+31198+121336FM-15+000399999V0203601N003019999999Y009900599+00401+00301999999ADDMA1102601999999REMMET052METAR ZSSS 101800Z 36003MPS CAVOK 04/03 Q1026 NOSIG=
0079583670999992023011018304+31198+121336FM-15+000399999V0203601N003019999999Y009900599+00501+00301999999ADDMA1102601999999REMMET052METAR ZSSS 101830Z 36003MPS CAVOK 05/03 Q1026 NOSIG=
0079583670999992023011019004+31198+121336FM-15+000399999V0203501N002019999999Y009900599+00501+00401999999ADDMA1102501999999REMMET052METAR ZSSS 101900Z 35002MPS CAVOK 05/04 Q1025 NOSIG=
0079583670999992023011019304+31198+121336FM-15+000399999V0203601N003019999999Y009900599+00501+00401999999ADDMA1102501999999REMMET052METAR ZSSS 101930Z 36003MPS CAVOK 05/04 Q1025 NOSIG=
0079583670999992023011020004+31198+121336FM-15+000399999V0203601N003019999999Y009900599+00501+00401999999ADDMA1102501999999REMMET052METAR ZSSS 102000Z 36003MPS CAVOK 05/04 Q1025 NOSIG=
0079583670999992023011020304+31198+121336FM-15+000399999V0200101N002019999999Y009900599+00501+00401999999ADDMA1102501999999REMMET052METAR ZSSS 102030Z 01002MPS CAVOK 05/04 Q1025 NOSIG=
0079583670999992023011021004+31198+121336FM-15+000399999V0203601N002019999999Y009900599+00501+00401999999ADDMA1102501999999REMMET052METAR ZSSS 102100Z 36002MPS CAVOK 05/04 Q1025 NOSIG=
0079583670999992023011021304+31198+121336FM-15+000399999V0203601N002019999999Y009900599+00501+00401999999ADDMA1102501999999REMMET052METAR ZSSS 102130Z 36002MPS CAVOK 05/04 Q1025 NOSIG=
0079583670999992023011022004+31198+121336FM-15+000399999V0203601N002019999999Y009900599+00501+00401999999ADDMA1102501999999REMMET052METAR ZSSS 102200Z 36002MPS CAVOK 05/04 Q1025 NOSIG=
0149583670999992023011022304+31198+121336FM-15+000399999V0200101N001019999999N009999199+00501+00401999999ADDGA1041+006101999GE19AGL   +99999+99999GF199999041999006101999999MA1102501999999REMMET058METAR ZSSS 102230Z 01001MPS 9999 SCT020 05/04 Q1025 NOSIG=
