0118712230999992023010100004+51933-110700FM-12+077299999V0202301N003119999999N999999999-01341-01531999999ADDAA106000091AA224000091KA1120M-01081KA2120N-01571REMSYN05871223 16/// /2306 11134 21153 60001 333 11108 21157 70000=
0058712230999992023010100004+51930-110720SAO  +077299999V020230190031199999999999999999-01341-01531999999REMAWY049XCS SA 0000 AUTO8 M M M M/-13/-15/2306/M/ M 43MM=
0058712230999992023010101004+51930-110720SAO  +077299999V020280190036199999999999999999-01521-01721999999REMAWY049XCS SA 0100 AUTO8 M M M M/-15/-17/2807/M/ M 22MM=
0058712230999992023010102004+51930-110720SAO  +077299999V020290190026199999999999999999-01251-01531999999REMAWY049XCS SA 0200 AUTO8 M M M M/-13/-15/2905/M/ M 53MM=
0063712230999992023010103004+51933-110700FM-12+077299999V0202901N005719999999N999999999-01271-01431999999ADDAA103000091REMSYN04071223 26/// /2911 11127 21143 333 60007=
0058712230999992023010103004+51930-110720SAO  +077299999V020290190057199999999999999999-01271-01431999999REMAWY049XCS SA 0300 AUTO8 M M M M/-13/-14/2911/M/ M 73MM=
0058712230999992023010104004+51930-110720SAO  +077299999V020300190046199999999999999999-01201-01371999999REMAWY049XCS SA 0400 AUTO8 M M M M/-12/-14/3009/M/ M 07MM=
0058712230999992023010105004+51930-110720SAO  +077299999V020280190021199999999999999999-01281-01461999999REMAWY049XCS SA 0500 AUTO8 M M M M/-13/-15/2804/M/ M 86MM=
0118712230999992023010106004+51933-110700FM-12+077299999V0202401N002119999999N999999999-01041-01201999999ADDAA106000091AA224000091KA1240M-00971KA2240N-01581REMSYN05871223 16/// /2404 11104 21120 60001 333 11097 21158 70000=
0058712230999992023010106004+51930-110720SAO  +077299999V020240190021199999999999999999-01041-01201999999REMAWY049XCS SA 0600 AUTO8 M M M M/-10/-12/2404/M/ M 40MM=
0058712230999992023010107004+51930-110720SAO  +077299999V020280190026199999999999999999-00981-01101999999REMAWY049XCS SA 0700 AUTO8 M M M M/-10/-11/2805/M/ M 80MM=
0058712230999992023010108004+51930-110720SAO  +077299999V020310190046199999999999999999-00781-00941999999REMAWY049XCS SA 0800 AUTO8 M M M M/-08/-09/3109/M/ M 84MM=
0063712230999992023010109004+51933-110700FM-12+077299999V0202501N001019999999N999999999-00751-00951999999ADDAA103000091REMSYN04071223 26/// /2502 11075 21095 333 60007=
0058712230999992023010109004+51930-110720SAO  +077299999V020250190010199999999999999999-00751-00951999999REMAWY049XCS SA 0900 AUTO8 M M M M/-08/-10/2502/M/ M 55MM=
0058712230999992023010110004+51930-110720SAO  +077299999V020280190026199999999999999999-00711-00921999999REMAWY049XCS SA 1000 AUTO8 M M M M/-07/-09/2805/M/ M 12MM=
0058712230999992023010111004+51930-110720SAO  +077299999V020240190041199999999999999999-01051-01301999999REMAWY049XCS SA 1100 AUTO8 M M M M/-11/-13/2408/M/ M 50MM=
0105712230999992023010112004+51933-110700FM-12+077299999V0202901N004619999999N999999999-00831-01071999999ADDAA106000091AA224000091KA1240N-01581REMSYN05871223 16/// /2909 11083 21107 60001 333 11097 21158 70000=
0058712230999992023010112004+51930-110720SAO  +077299999V020290190046199999999999999999-00831-01071999999REMAWY049XCS SA 1200 AUTO8 M M M M/-08/-11/2909/M/ M 37MM=
0058712230999992023010113004+51930-110720SAO  +077299999V020290190036199999999999999999-00921-01121999999REMAWY049XCS SA 1300 AUTO8 M M M M/-09/-11/2907/M/ M 22MM=
0058712230999992023010114004+51930-110720SAO  +077299999V020280190046199999999999999999-01061-01211999999REMAWY049XCS SA 1400 AUTO8 M M M M/-11/-12/2809/M/ M 61MM=
0063712230999992023010115004+51933-110700FM-12+077299999V0202301N005719999999N999999999-01211-01301999999ADDAA103000091REMSYN04071223 26/// /2311 11121 21130 333 60007=
0058712230999992023010115004+51930-110720SAO  +077299999V020230190057199999999999999999-01211-01301999999REMAWY049XCS SA 1500 AUTO8 M M M M/-12/-13/2311/M/ M 10MM=
0058712230999992023010116004+51930-110720SAO  +077299999V020240190046199999999999999999-00811-00991999999REMAWY049XCS SA 1600 AUTO8 M M M M/-08/-10/2409/M/ M 19MM=
0058712230999992023010117004+51930-110720SAO  +077299999V020240190036199999999999999999-00781-00951999999REMAWY049XCS SA 1700 AUTO8 M M M M/-08/-10/2407/M/ M 85MM=
0118712230999992023010118004+51933-110700FM-12+077299999V0202701N007219999999N999999999-00661-00951999999ADDAA106000091AA224000091KA1120M-00661KA2120N-01581REMSYN05871223 16/// /2714 11066 21095 60001 333 11066 21158 70000=
0058712230999992023010118004+51930-110720SAO  +077299999V020270190072199999999999999999-00661-00951999999REMAWY049XCS SA 1800 AUTO8 M M M M/-07/-10/2714/M/ M 65MM=
0093712230999992023010119004+51930-110720SAO  +077299999V020270190082199999999999999999-00621-00961999999ADDOD130100931270REMAWY067XCS SA 1900 AUTO8 M M M M/-06/-10/2716/M/ PK WND 2718 1851Z M 26MM=
0093712230999992023010120004+51930-110720SAO  +077299999V020270190077199999999999999999-00561-00871999999ADDOD130100931280REMAWY067XCS SA 2000 AUTO8 M M M M/-06/-09/2715/M/ PK WND 2818 1912Z M 67MM=
0063712230999992023010121004+51933-110700FM-12+077299999V0202801N006719999999N999999999-00521-00841999999ADDAA103000091REMSYN04071223 26/// /2813 11052 21084 333 60007=
0093712230999992023010121004+51930-110720SAO  +077299999V020280190067199999999999999999-00521-00841999999ADDOD130100981270REMAWY067XCS SA 2100 AUTO8 M M M M/-05/-08/2813/M/ PK WND 2719 2031Z M 24MM=
0058712230999992023010122004+51930-110720SAO  +077299999V020280190057199999999999999999-00611-00871999999REMAWY049XCS SA 2200 AUTO8 M M M M/-06/-09/2811/M/ M 17MM=
0058712230999992023010123004+51930-110720SAO  +077299999V020290190036199999999999999999-00561-00821999999REMAWY049XCS SA 2300 AUTO8 M M M M/-06/-08/2907/M/ M 62MM=
0118712230999992023010200004+51933-110700FM-12+077299999V0202301N003619999999N999999999-00901-01141999999ADDAA106000091AA224000091KA1120M-00481KA2120N-01401REMSYN05871223 16/// /2307 11090 21114 60001 333 11048 21140 70000=
0058712230999992023010200004+51930-110720SAO  +077299999V020230190036199999999999999999-00901-01141999999REMAWY049XCS SA 0000 AUTO8 M M M M/-09/-11/2307/M/ M 04MM=
0058712230999992023010201004+51930-110720SAO  +077299999V020240190046199999999999999999-01001-01171999999REMAWY049XCS SA 0100 AUTO8 M M M M/-10/-12/2409/M/ M 07MM=
0058712230999992023010202004+51930-110720SAO  +077299999V020260190062199999999999999999-00761-00981999999REMAWY049XCS SA 0200 AUTO8 M M M M/-08/-10/2612/M/ M 68MM=
0063712230999992023010203004+51933-110700FM-12+077299999V0202401N005119999999N999999999-00901-01201999999ADDAA103000091REMSYN04071223 26/// /2410 11090 21120 333 60007=
0058712230999992023010203004+51930-110720SAO  +077299999V020240190051199999999999999999-00901-01201999999REMAWY049XCS SA 0300 AUTO8 M M M M/-09/-12/2410/M/ M 00MM=
0058712230999992023010204004+51930-110720SAO  +077299999V020220190062199999999999999999-01161-01341999999REMAWY049XCS SA 0400 AUTO8 M M M M/-12/-13/2212/M/ M 64MM=
0058712230999992023010205004+51930-110720SAO  +077299999V020260190062199999999999999999-00931-01191999999REMAWY049XCS SA 0500 AUTO8 M M M M/-09/-12/2612/M/ M 39MM=
0134712230999992023010206004+51933-110700FM-12+077299999V0202601N005719999999N999999999-00961-01181999999ADDAA106000091AA224000091KA1240M-00481KA2240N-01401REMSYN07471223 16/// /2611 11096 21118 60001 333 11048 21140 70000 555 32719 40211=
0058712230999992023010206004+51930-110720SAO  +077299999V020260190057199999999999999999-00961-01181999999REMAWY049XCS SA 0600 AUTO8 M M M M/-10/-12/2611/M/ M 68MM=
0058712230999992023010207004+51930-110720SAO  +077299999V020230190051199999999999999999-00881-01111999999REMAWY049XCS SA 0700 AUTO8 M M M M/-09/-11/2310/M/ M 81MM=
0058712230999992023010208004+51930-110720SAO  +077299999V020220190057199999999999999999-00741-00981999999REMAWY049XCS SA 0800 AUTO8 M M M M/-07/-10/2211/M/ M 48MM=
0063712230999992023010209004+51933-110700FM-12+077299999V0202401N007219999999N999999999-00451-00841999999ADDAA103000091REMSYN04071223 26/// /2414 11045 21084 333 60007=
0093712230999992023010209004+51930-110720SAO  +077299999V020240190072199999999999999999-00451-00841999999ADDOD130100871240REMAWY067XCS SA 0900 AUTO8 M M M M/-05/-08/2414/M/ PK WND 2417 0847Z M 54MM=
0058712230999992023010210004+51930-110720SAO  +077299999V020220190062199999999999999999-00891-01141999999REMAWY049XCS SA 1000 AUTO8 M M M M/-09/-11/2212/M/ M 94MM=
0093712230999992023010211004+51930-110720SAO  +077299999V020240190067199999999999999999-00651-01091999999ADDOD130100871240REMAWY067XCS SA 1100 AUTO8 M M M M/-07/-11/2413/M/ PK WND 2417 1022Z M 59MM=
0118712230999992023010212004+51933-110700FM-12+077299999V0202201N007219999999N999999999-00891-01131999999ADDAA106000091AA224000091KA1240M-00481KA2240N-01231REMSYN05871223 16/// /2214 11089 21113 60001 333 11048 21123 70000=
0093712230999992023010212004+51930-110720SAO  +077299999V020230190072199999999999999999-00891-01131999999ADDOD130100981230REMAWY067XCS SA 1200 AUTO8 M M M M/-09/-11/2314/M/ PK WND 2319 1121Z M 93MM=
0093712230999992023010213004+51930-110720SAO  +077299999V020230190077199999999999999999-00831-01071999999ADDOD130100871230REMAWY067XCS SA 1300 AUTO8 M M M M/-08/-11/2315/M/ PK WND 2317 1252Z M 37MM=
0093712230999992023010214004+51930-110720SAO  +077299999V020220190072199999999999999999-01061-01271999999ADDOD130100981230REMAWY067XCS SA 1400 AUTO8 M M M M/-11/-13/2214/M/ PK WND 2319 1324Z M 67MM=
0063712230999992023010215004+51933-110700FM-12+077299999V0202301N006719999999N999999999-00951-01211999999ADDAA103000091REMSYN04071223 26/// /2313 11095 21121 333 60007=
0093712230999992023010215004+51930-110720SAO  +077299999V020230190067199999999999999999-00851-01211999999ADDOD130100931240REMAWY067XCS SA 1500 AUTO8 M M M M/-09/-12/2313/M/ PK WND 2418 1431Z M 51MM=
0058712230999992023010216004+51930-110720SAO  +077299999V020230190051199999999999999999-01111-01321999999REMAWY049XCS SA 1600 AUTO8 M M M M/-11/-13/2310/M/ M 12MM=
0058712230999992023010217004+51930-110720SAO  +077299999V020240190021199999999999999999-01251-01551999999REMAWY049XCS SA 1700 AUTO8 M M M M/-13/-16/2404/M/ M 55MM=
0118712230999992023010218004+51933-110700FM-12+077299999V0202301N007719999999N999999999-00831-01101999999ADDAA106000091AA224000091KA1120M-00401KA2120N-01351REMSYN05871223 16/// /2315 11083 21110 60001 333 11040 21135 70000=
0093712230999992023010218004+51930-110720SAO  +077299999V020230190077199999999999999999-00831-01101999999ADDOD130100981230REMAWY067XCS SA 1800 AUTO8 M M M M/-08/-11/2315/M/ PK WND 2319 1712Z M 30MM=
0093712230999992023010219004+51930-110720SAO  +077299999V020220190082199999999999999999-01131-01331999999ADDOD130100871230REMAWY067XCS SA 1900 AUTO8 M M M M/-11/-13/2216/M/ PK WND 2317 1800Z M 33MM=
0058712230999992023010220004+51930-110720SAO  +077299999V020220190072199999999999999999-01131-01341999999REMAWY049XCS SA 2000 AUTO8 M M M M/-11/-13/2214/M/ M 34MM=
0063712230999992023010221004+51933-110700FM-12+077299999V0202101N004619999999N999999999-01071-01311999999ADDAA103000091REMSYN04071223 26/// /2109 11107 21131 333 60007=
0058712230999992023010221004+51930-110720SAO  +077299999V020210190046199999999999999999-01071-01311999999REMAWY049XCS SA 2100 AUTO8 M M M M/-11/-13/2109/M/ M 71MM=
0058712230999992023010222004+51930-110720SAO  +077299999V020220190057199999999999999999-01041-01301999999REMAWY049XCS SA 2200 AUTO8 M M M M/-10/-13/2211/M/ M 40MM=
0058712230999992023010223004+51930-110720SAO  +077299999V020240190046199999999999999999-00951-01291999999REMAWY049XCS SA 2300 AUTO8 M M M M/-10/-13/2409/M/ M 59MM=
0118712230999992023010300004+51933-110700FM-12+077299999V0202201N004619999999N999999999-01241-01461999999ADDAA106000091AA224000091KA1120M-00751KA2120N-01351REMSYN05871223 16/// /2209 11124 21146 60001 333 11075 21135 70000=
0058712230999992023010300004+51930-110720SAO  +077299999V020220190046199999999999999999-01241-01461999999REMAWY049XCS SA 0000 AUTO8 M M M M/-12/-15/2209/M/ M 46MM=
0058712230999992023010301004+51930-110720SAO  +077299999V020210190046199999999999999999-01261-01431999999REMAWY049XCS SA 0100 AUTO8 M M M M/-13/-14/2109/M/ M 63MM=
0058712230999992023010302004+51930-110720SAO  +077299999V020210190057199999999999999999-01311-01501999999REMAWY049XCS SA 0200 AUTO8 M M M M/-13/-15/2111/M/ M 10MM=
0063712230999992023010303004+51933-110700FM-12+077299999V0202101N004619999999N999999999-01301-01511999999ADDAA103000091REMSYN04071223 26/// /2109 11130 21151 333 60007=
0058712230999992023010303004+51930-110720SAO  +077299999V020210190046199999999999999999-01301-01511999999REMAWY049XCS SA 0300 AUTO8 M M M M/-13/-15/2109/M/ M 01MM=
0058712230999992023010304004+51930-110720SAO  +077299999V020190190046199999999999999999-01261-01411999999REMAWY049XCS SA 0400 AUTO8 M M M M/-13/-14/1909/M/ M 61MM=
0058712230999992023010305004+51930-110720SAO  +077299999V020190190036199999999999999999-01171-01341999999REMAWY049XCS SA 0500 AUTO8 M M M M/-12/-13/1907/M/ M 74MM=
0134712230999992023010306004+51933-110700FM-12+077299999V0201801N003119999999N999999999-01211-01421999999ADDAA106000091AA224000091KA1240M-00401KA2240N-01361REMSYN07471223 16/// /1806 11121 21142 60001 333 11040 21136 70000 555 32319 40121=
0058712230999992023010306004+51930-110720SAO  +077299999V020180190031199999999999999999-01211-01421999999REMAWY049XCS SA 0600 AUTO8 M M M M/-12/-14/1806/M/ M 12MM=
0058712230999992023010307004+51930-110720SAO  +077299999V020180190031199999999999999999-01231-01411999999REMAWY049XCS SA 0700 AUTO8 M M M M/-12/-14/1806/M/ M 31MM=
0058712230999992023010308004+51930-110720SAO  +077299999V020180190026199999999999999999-01151-01371999999REMAWY049XCS SA 0800 AUTO8 M M M M/-12/-14/1805/M/ M 57MM=
0063712230999992023010309004+51933-110700FM-12+077299999V0201701N003619999999N999999999-01171-01331999999ADDAA103000091REMSYN04071223 26/// /1707 11117 21133 333 60007=
0058712230999992023010309004+51930-110720SAO  +077299999V020170190036199999999999999999-01171-01331999999REMAWY049XCS SA 0900 AUTO8 M M M M/-12/-13/1707/M/ M 73MM=
0058712230999992023010310004+51930-110720SAO  +077299999V020150190021199999999999999999-01131-01271999999REMAWY049XCS SA 1000 AUTO8 M M M M/-11/-13/1504/M/ M 37MM=
0058712230999992023010311004+51930-110720SAO  +077299999V020140190021199999999999999999-01231-01361999999REMAWY049XCS SA 1100 AUTO8 M M M M/-12/-14/1404/M/ M 36MM=
0118712230999992023010312004+51933-110700FM-12+077299999V0201601N003119999999N999999999-01221-01381999999ADDAA106000091AA224000091KA1240M-00401KA2240N-01361REMSYN05871223 16/// /1606 11122 21138 60001 333 11040 21136 70000=
0058712230999992023010312004+51930-110720SAO  +077299999V020160190031199999999999999999-01221-01381999999REMAWY049XCS SA 1200 AUTO8 M M M M/-12/-14/1606/M/ M 28MM=
0058712230999992023010313004+51930-110720SAO  +077299999V020160190031199999999999999999-01231-01371999999REMAWY049XCS SA 1300 AUTO8 M M M M/-12/-14/1606/M/ M 37MM=
0058712230999992023010314004+51930-110720SAO  +077299999V020160190036199999999999999999-01181-01261999999REMAWY049XCS SA 1400 AUTO8 M M M M/-12/-13/1607/M/ M 86MM=
0063712230999992023010315004+51933-110700FM-12+077299999V0201001N002619999999N999999999-01451-01591999999ADDAA103000091REMSYN04071223 26/// /1005 11145 21159 333 60007=
0058712230999992023010315004+51930-110720SAO  +077299999V020100190026199999999999999999-01351-01591999999REMAWY049XCS SA 1500 AUTO8 M M M M/-14/-16/1005/M/ M 59MM=
0058712230999992023010316004+51930-110720SAO  +077299999V020110190026199999999999999999-01351-01611999999REMAWY049XCS SA 1600 AUTO8 M M M M/-14/-16/1105/M/ M 51MM=
0058712230999992023010317004+51930-110720SAO  +077299999V020140190021199999999999999999-01311-01491999999REMAWY049XCS SA 1700 AUTO8 M M M M/-13/-15/1404/M/ M 19MM=
0118712230999992023010318004+51933-110700FM-12+077299999V0201301N002619999999N999999999-01321-01491999999ADDAA106000091AA224000091KA1120M-01061KA2120N-01511REMSYN05871223 16/// /1305 11132 21149 60001 333 11106 21151 70000=
0058712230999992023010318004+51930-110720SAO  +077299999V020130190026199999999999999999-01321-01491999999REMAWY049XCS SA 1800 AUTO8 M M M M/-13/-15/1305/M/ M 29MM=
0058712230999992023010319004+51930-110720SAO  +077299999V020140190031199999999999999999-01081-01361999999REMAWY049XCS SA 1900 AUTO8 M M M M/-11/-14/1406/M/ M 86MM=
0058712230999992023010320004+51930-110720SAO  +077299999V020140190026199999999999999999-01201-01351999999REMAWY049XCS SA 2000 AUTO8 M M M M/-12/-14/1405/M/ M 05MM=
0063712230999992023010321004+51933-110700FM-12+077299999V0201301N002119999999N999999999-01221-01431999999ADDAA103000091REMSYN04071223 26/// /1304 11122 21143 333 60007=
0058712230999992023010321004+51930-110720SAO  +077299999V020130190021199999999999999999-01221-01431999999REMAWY049XCS SA 2100 AUTO8 M M M M/-12/-14/1304/M/ M 23MM=
0058712230999992023010322004+51930-110720SAO  +077299999V020090190021199999999999999999-01191-01421999999REMAWY049XCS SA 2200 AUTO8 M M M M/-12/-14/0904/M/ M 92MM=
0058712230999992023010323004+51930-110720SAO  +077299999V020090190021199999999999999999-01221-01391999999REMAWY049XCS SA 2300 AUTO8 M M M M/-12/-14/0904/M/ M 29MM=
0118712230999992023010400004+51933-110700FM-12+077299999V0201501N002619999999N999999999-01091-01221999999ADDAA106000091AA224000091KA1120M-00991KA2120N-01511REMSYN05871223 16/// /1505 11109 21122 60001 333 11099 21151 70000=
0058712230999992023010400004+51930-110720SAO  +077299999V020150190026199999999999999999-01091-01221999999REMAWY049XCS SA 0000 AUTO8 M M M M/-11/-12/1505/M/ M 92MM=
0058712230999992023010401004+51930-110720SAO  +077299999V020180190031199999999999999999-01081-01211999999REMAWY049XCS SA 0100 AUTO8 M M M M/-11/-12/1806/M/ M 81MM=
0058712230999992023010402004+51930-110720SAO  +077299999V020210190041199999999999999999-01281-01461999999REMAWY049XCS SA 0200 AUTO8 M M M M/-13/-15/2108/M/ M 86MM=
0063712230999992023010403004+51933-110700FM-12+077299999V0202201N002619999999N999999999-01161-01311999999ADDAA103000091REMSYN04071223 26/// /2205 11116 21131 333 60007=
0058712230999992023010403004+51930-110720SAO  +077299999V020220190026199999999999999999-01161-01311999999REMAWY049XCS SA 0300 AUTO8 M M M M/-12/-13/2205/M/ M 61MM=
0058712230999992023010404004+51930-110720SAO  +077299999V020220190041199999999999999999-01341-01461999999REMAWY049XCS SA 0400 AUTO8 M M M M/-13/-15/2208/M/ M 46MM=
0058712230999992023010405004+51930-110720SAO  +077299999V020230190051199999999999999999-01471-01641999999REMAWY049XCS SA 0500 AUTO8 M M M M/-15/-16/2310/M/ M 74MM=
0118712230999992023010406004+51933-110700FM-12+077299999V0202501N003119999999N999999999-01511-01661999999ADDAA106000091AA224000091KA1240M-00991KA2240N-01541REMSYN05871223 16/// /2506 11151 21166 60001 333 11099 21154 70000=
0058712230999992023010406004+51930-110720SAO  +077299999V020250190031199999999999999999-01511-01661999999REMAWY049XCS SA 0600 AUTO8 M M M M/-15/-17/2506/M/ M 16MM=
0058712230999992023010407004+51930-110720SAO  +077299999V020230190026199999999999999999-01681-01871999999REMAWY049XCS SA 0700 AUTO8 M M M M/-17/-19/2305/M/ M 87MM=
0058712230999992023010408004+51930-110720SAO  +077299999V020280190015199999999999999999-01791-01991999999REMAWY049XCS SA 0800 AUTO8 M M M M/-18/-20/2803/M/ M 99MM=
0063712230999992023010409004+51933-110700FM-12+077299999V0203101N004119999999N999999999-01631-01841999999ADDAA103000091REMSYN04071223 26/// /3108 11163 21184 333 60007=
0058712230999992023010409004+51930-110720SAO  +077299999V020310190041199999999999999999-01621-01841999999REMAWY049XCS SA 0900 AUTO8 M M M M/-16/-18/3108/M/ M 24MM=
0058712230999992023010410004+51930-110720SAO  +077299999V020300190057199999999999999999-01661-01861999999REMAWY049XCS SA 1000 AUTO8 M M M M/-17/-19/3011/M/ M 66MM=
0058712230999992023010411004+51930-110720SAO  +077299999V020300190036199999999999999999-01781-01991999999REMAWY049XCS SA 1100 AUTO8 M M M M/-18/-20/3007/M/ M 89MM=
0118712230999992023010412004+51933-110700FM-12+077299999V0203001N002619999999N999999999-01831-02051999999ADDAA106000091AA224000091KA1240M-00991KA2240N-01841REMSYN05871223 16/// /3005 11183 21205 60001 333 11099 21184 70000=
0058712230999992023010412004+51930-110720SAO  +077299999V020300190026199999999999999999-01831-01951999999REMAWY049XCS SA 1200 AUTO8 M M M M/-18/-20/3005/M/ M 35MM=
0058712230999992023010413004+51930-110720SAO  +077299999V020300190021199999999999999999-01771-01971999999REMAWY049XCS SA 1300 AUTO8 M M M M/-18/-20/3004/M/ M 77MM=
0058712230999992023010414004+51930-110720SAO  +077299999V020300190051199999999999999999-01711-01911999999REMAWY049XCS SA 1400 AUTO8 M M M M/-17/-19/3010/M/ M 11MM=
0063712230999992023010415004+51933-110700FM-12+077299999V0202901N004619999999N999999999-01631-01831999999ADDAA103000091REMSYN04071223 26/// /2909 11163 21183 333 60007=
0058712230999992023010415004+51930-110720SAO  +077299999V020290190046199999999999999999-01631-01831999999REMAWY049XCS SA 1500 AUTO8 M M M M/-16/-18/2909/M/ M 33MM=
0058712230999992023010416004+51930-110720SAO  +077299999V020300190057199999999999999999-01741-01951999999REMAWY049XCS SA 1600 AUTO8 M M M M/-17/-20/3011/M/ M 45MM=
0058712230999992023010417004+51930-110720SAO  +077299999V020310190041199999999999999999-01571-01741999999REMAWY049XCS SA 1700 AUTO8 M M M M/-16/-17/3108/M/ M 74MM=
0118712230999992023010418004+51933-110700FM-12+077299999V0203001N005719999999N999999999-01251-01411999999ADDAA106000091AA224000091KA1120M-01251KA2120N-01891REMSYN05871223 16/// /3011 11125 21141 60001 333 11125 21189 70000=
0058712230999992023010418004+51930-110720SAO  +077299999V020310190057199999999999999999-01251-01411999999REMAWY049XCS SA 1800 AUTO8 M M M M/-13/-14/3111/M/ M 51MM=
0058712230999992023010419004+51930-110720SAO  +077299999V020310190057199999999999999999-01111-01261999999REMAWY049XCS SA 1900 AUTO8 M M M M/-11/-13/3111/M/ M 16MM=
0093712230999992023010420004+51930-110720SAO  +077299999V020300190077199999999999999999-00981-01121999999ADDOD130100931300REMAWY067XCS SA 2000 AUTO8 M M M M/-10/-11/3015/M/ PK WND 3018 1936Z M 82MM=
0063712230999992023010421004+51933-110700FM-12+077299999V0203101N006719999999N999999999-00861-01011999999ADDAA103000091REMSYN04071223 26/// /3113 11086 21101 333 60007=
0093712230999992023010421004+51930-110720SAO  +077299999V020310190067199999999999999999-00861-01011999999ADDOD130100931300REMAWY067XCS SA 2100 AUTO8 M M M M/-09/-10/3113/M/ PK WND 3018 2006Z M 61MM=
0093712230999992023010422004+51930-110720SAO  +077299999V020290190077199999999999999999-00841-01011999999ADDOD130100931290REMAWY067XCS SA 2200 AUTO8 M M M M/-08/-10/2915/M/ PK WND 2918 2159Z M 41MM=
0093712230999992023010423004+51930-110720SAO  +077299999V020290190082199999999999999999-00891-01181999999ADDOD130100981280REMAWY067XCS SA 2300 AUTO8 M M M M/-09/-12/2916/M/ PK WND 2819 2224Z M 98MM=
0118712230999992023010500004+51933-110700FM-12+077299999V0202901N007219999999N999999999-00971-01231999999ADDAA106000091AA224000091KA1120M-00831KA2120N-01891REMSYN05871223 16/// /2914 11097 21123 60001 333 11083 21189 70000=
0093712230999992023010500004+51930-110720SAO  +077299999V020290190072199999999999999999-00971-01231999999ADDOD130100981280REMAWY067XCS SA 0000 AUTO8 M M M M/-10/-12/2914/M/ PK WND 2819 2301Z M 73MM=
0093712230999992023010501004+51930-110720SAO  +077299999V020290190082199999999999999999-00851-01171999999ADDOD130100931280REMAWY067XCS SA 0100 AUTO8 M M M M/-09/-12/2916/M/ PK WND 2818 0048Z M 57MM=
0093712230999992023010502004+51930-110720SAO  +077299999V020300190077199999999999999999-00891-01191999999ADDOD130100871290REMAWY067XCS SA 0200 AUTO8 M M M M/-09/-12/3015/M/ PK WND 2917 0121Z M 99MM=
0063712230999992023010503004+51933-110700FM-12+077299999V0203001N006219999999N999999999-00991-01231999999ADDAA103000091REMSYN04071223 26/// /3012 11099 21123 333 60007=
0058712230999992023010503004+51930-110720SAO  +077299999V020300190062199999999999999999-00991-01231999999REMAWY049XCS SA 0300 AUTO8 M M M M/-10/-12/3012/M/ M 93MM=
0058712230999992023010504004+51930-110720SAO  +077299999V020280190046199999999999999999-00991-01271999999REMAWY049XCS SA 0400 AUTO8 M M M M/-10/-13/2809/M/ M 97MM=
0058712230999992023010505004+51930-110720SAO  +077299999V020300190036199999999999999999-00981-01271999999REMAWY049XCS SA 0500 AUTO8 M M M M/-10/-13/3007/M/ M 87MM=
0134712230999992023010506004+51933-110700FM-12+077299999V0202901N004119999999N999999999-01021-01271999999ADDAA106000091AA224000091KA1240M-00831KA2240N-01891REMSYN07471223 16/// /2908 11102 21127 60001 333 11083 21189 70000 555 32819 40001=
0058712230999992023010506004+51930-110720SAO  +077299999V020290190041199999999999999999-01021-01271999999REMAWY049XCS SA 0600 AUTO8 M M M M/-10/-13/2908/M/ M 27MM=
0058712230999992023010507004+51930-110720SAO  +077299999V020290190031199999999999999999-01061-01291999999REMAWY049XCS SA 0700 AUTO8 M M M M/-11/-13/2906/M/ M 69MM=
0058712230999992023010508004+51930-110720SAO  +077299999V020300190041199999999999999999-01211-01461999999REMAWY049XCS SA 0800 AUTO8 M M M M/-12/-15/3008/M/ M 16MM=
0063712230999992023010509004+51933-110700FM-12+077299999V0202901N003619999999N999999999-01031-01271999999ADDAA103000091REMSYN04071223 26/// /2907 11103 21127 333 60007=
0058712230999992023010509004+51930-110720SAO  +077299999V020290190036199999999999999999-01031-01271999999REMAWY049XCS SA 0900 AUTO8 M M M M/-10/-13/2907/M/ M 37MM=
0058712230999992023010510004+51930-110720SAO  +077299999V020300190031199999999999999999-01071-01331999999REMAWY049XCS SA 1000 AUTO8 M M M M/-11/-13/3006/M/ M 73MM=
0058712230999992023010511004+51930-110720SAO  +077299999V020320190031199999999999999999-01221-01481999999REMAWY049XCS SA 1100 AUTO8 M M M M/-12/-15/3206/M/ M 28MM=
0118712230999992023010512004+51933-110700FM-12+077299999V0202301N002119999999N999999999-01491-01691999999ADDAA106000091AA224000091KA1240M-00831KA2240N-01601REMSYN05871223 16/// /2304 11149 21169 60001 333 11083 21160 70000=
0058712230999992023010512004+51930-110720SAO  +077299999V020230190021199999999999999999-01491-01691999999REMAWY049XCS SA 1200 AUTO8 M M M M/-15/-17/2304/M/ M 99MM=
0058712230999992023010513004+51930-110720SAO  +077299999V020240190036199999999999999999-01541-01741999999REMAWY049XCS SA 1300 AUTO8 M M M M/-15/-17/2407/M/ M 44MM=
0058712230999992023010514004+51930-110720SAO  +077299999V020250190015199999999999999999-01691-01931999999REMAWY049XCS SA 1400 AUTO8 M M M M/-17/-19/2503/M/ M 93MM=
0063712230999992023010515004+51933-110700FM-12+077299999V0202201N003619999999N999999999-01601-01811999999ADDAA103000091REMSYN04071223 26/// /2207 11160 21181 333 60007=
0058712230999992023010515004+51930-110720SAO  +077299999V020220190036199999999999999999-01601-01811999999REMAWY049XCS SA 1500 AUTO8 M M M M/-16/-18/2207/M/ M 01MM=
0067712230999992023010516004+51050-110745FM-12+077299999V0202041N0010199999999999999999-01311-01431999999ADDAA199999999KA1120M-01281KA2120N-01721OD139900301221REMSYN004BUFR
0058712230999992023010516004+51930-110720SAO  +077299999V020200190015199999999999999999-01241-01401999999REMAWY049XCS SA 1600 AUTO8 M M M M/-12/-14/2003/M/ M 40MM=
0058712230999992023010517004+51930-110720SAO  +077299999V020160190021199999999999999999-00891-01001999999REMAWY049XCS SA 1700 AUTO8 M M M M/-09/-10/1604/M/ M 90MM=
0118712230999992023010518004+51933-110700FM-12+077299999V0201901N002619999999N999999999-01021-01171999999ADDAA106000091AA224000091KA1120M-00891KA2120N-01801REMSYN05871223 16/// /1905 11102 21117 60001 333 11089 21180 70000=
0058712230999992023010518004+51930-110720SAO  +077299999V020190190026199999999999999999-01021-01171999999REMAWY049XCS SA 1800 AUTO8 M M M M/-10/-12/1905/M/ M 27MM=
0067712230999992023010519004+51183-110745FM-12+077299999V0202071N0040199999999999999999-01161-01261999999ADDAA199999999KA1120M-01061KA2120N-01151OD139900401207REMSYN004BUFR
0058712230999992023010519004+51930-110720SAO  +077299999V020210190041199999999999999999-01081-01241999999REMAWY049XCS SA 1900 AUTO8 M M M M/-11/-12/2108/M/ M 84MM=
0067712230999992023010520004+51137-111345FM-12+077299999V0200841N0020199999999999999999-01551-01781999999ADDAA199999999KA1120M-01041KA2120N-01581OD139900401205REMSYN004BUFR
0058712230999992023010520004+51930-110720SAO  +077299999V020080190026199999999999999999-01511-01741999999REMAWY049XCS SA 2000 AUTO8 M M M M/-15/-17/0805/M/ M 14MM=
0063712230999992023010521004+51933-110700FM-12+077299999V0200801N002119999999N999999999-01311-01511999999ADDAA103000091REMSYN04071223 26/// /0804 11131 21151 333 60007=
0058712230999992023010521004+51930-110720SAO  +077299999V020080190021199999999999999999-01311-01511999999REMAWY049XCS SA 2100 AUTO8 M M M M/-13/-15/0804/M/ M 11MM=
0058712230999992023010522004+51930-110720SAO  +077299999V020120190026199999999999999999-01461-01671999999REMAWY049XCS SA 2200 AUTO8 M M M M/-15/-17/1205/M/ M 67MM=
0058712230999992023010523004+51930-110720SAO  +077299999V020130190026199999999999999999-01261-01421999999REMAWY049XCS SA 2300 AUTO8 M M M M/-13/-14/1305/M/ M 62MM=
0118712230999992023010600004+51933-110700FM-12+077299999V0200901N002119999999N999999999-01461-01611999999ADDAA106000091AA224000091KA1120M-00891KA2120N-01801REMSYN05871223 16/// /0904 11146 21161 60001 333 11089 21180 70000=
0058712230999992023010600004+51930-110720SAO  +077299999V020090190021199999999999999999-01461-01611999999REMAWY049XCS SA 0000 AUTO8 M M M M/-15/-16/0904/M/ M 61MM=
0058712230999992023010601004+51930-110720SAO  +077299999V020090190021199999999999999999-01561-01711999999REMAWY049XCS SA 0100 AUTO8 M M M M/-16/-17/0904/M/ M 61MM=
0058712230999992023010602004+51930-110720SAO  +077299999V020080190021199999999999999999-01751-01921999999REMAWY049XCS SA 0200 AUTO8 M M M M/-18/-19/0804/M/ M 52MM=
0063712230999992023010603004+51933-110700FM-12+077299999V0200901N002619999999N999999999-01571-01751999999ADDAA103000091REMSYN04071223 26/// /0905 11157 21175 333 60007=
0058712230999992023010603004+51930-110720SAO  +077299999V020090190026199999999999999999-01571-01751999999REMAWY049XCS SA 0300 AUTO8 M M M M/-16/-18/0905/M/ M 75MM=
0058712230999992023010604004+51930-110720SAO  +077299999V020070190021199999999999999999-01601-01771999999REMAWY049XCS SA 0400 AUTO8 M M M M/-16/-18/0704/M/ M 07MM=
0058712230999992023010605004+51930-110720SAO  +077299999V020110190026199999999999999999-01531-01701999999REMAWY049XCS SA 0500 AUTO8 M M M M/-15/-17/1105/M/ M 30MM=
0118712230999992023010606004+51933-110700FM-12+077299999V0201001N002119999999N999999999-01271-01441999999ADDAA106000091AA224000091KA1240M-00891KA2240N-01801REMSYN05871223 16/// /1004 11127 21144 60001 333 11089 21180 70000=
0058712230999992023010606004+51930-110720SAO  +077299999V020100190021199999999999999999-01271-01441999999REMAWY049XCS SA 0600 AUTO8 M M M M/-13/-14/1004/M/ M 74MM=
0075712230999992023010607004+51050-110745FM-12+077299999V0200801N0020199999999999999999-01511-01741999999ADDAA199999999KA1120M-01291KA2120N-01551OC100501OD139900501136REMSYN004BUFR
0058712230999992023010607004+51930-110720SAO  +077299999V020080190026199999999999999999-01481-01671999999REMAWY049XCS SA 0700 AUTO8 M M M M/-15/-17/0805/M/ M 87MM=
0058712230999992023010608004+51930-110720SAO  +077299999V020080190021199999999999999999-01611-01801999999REMAWY049XCS SA 0800 AUTO8 M M M M/-16/-18/0804/M/ M 10MM=
0063712230999992023010609004+51933-110700FM-12+077299999V0200901N002619999999N999999999-01321-01491999999ADDAA103000091REMSYN04071223 26/// /0905 11132 21149 333 60007=
0058712230999992023010609004+51930-110720SAO  +077299999V020090190026199999999999999999-01321-01491999999REMAWY049XCS SA 0900 AUTO8 M M M M/-13/-15/0905/M/ M 29MM=
0058712230999992023010610004+51930-110720SAO  +077299999V020090190026199999999999999999-01411-01581999999REMAWY049XCS SA 1000 AUTO8 M M M M/-14/-16/0905/M/ M 18MM=
0067712230999992023010611004+51000-111345FM-12+077299999V0200821N0020199999999999999999-01451-01611999999ADDAA199999999KA1120M-01371KA2120N-01421OD139900301113REMSYN004BUFR
0058712230999992023010611004+51930-110720SAO  +077299999V020080190021199999999999999999-01361-01531999999REMAWY049XCS SA 1100 AUTO8 M M M M/-14/-15/0804/M/ M 63MM=
0118712230999992023010612004+51933-110700FM-12+077299999V0200801N003119999999N999999999-01351-01521999999ADDAA106000091AA224000091KA1240M-00891KA2240N-01761REMSYN05871223 16/// /0806 11135 21152 60001 333 11089 21176 70000=
0058712230999992023010612004+51930-110720SAO  +077299999V020080190031199999999999999999-01251-01521999999REMAWY049XCS SA 1200 AUTO8 M M M M/-13/-15/0806/M/ M 52MM=
0058712230999992023010613004+51930-110720SAO  +077299999V020090190036199999999999999999-01371-01541999999REMAWY049XCS SA 1300 AUTO8 M M M M/-14/-15/0907/M/ M 74MM=
0058712230999992023010614004+51930-110720SAO  +077299999V020100190021199999999999999999-01301-01461999999REMAWY049XCS SA 1400 AUTO8 M M M M/-13/-15/1004/M/ M 06MM=
0063712230999992023010615004+51933-110700FM-12+077299999V0201201N001519999999N999999999-01261-01411999999ADDAA103000091REMSYN04071223 26/// /1203 11126 21141 333 60007=
0058712230999992023010615004+51930-110720SAO  +077299999V020120190015199999999999999999-01261-01411999999REMAWY049XCS SA 1500 AUTO8 M M M M/-13/-14/1203/M/ M 61MM=
0067712230999992023010616004+51123-111050FM-12+077299999V0200521N0013199999999999999999-01261-01401999999ADDAA199999999KA1120M-01241KA2120N-01271OD139900241144REMSYN004BUFR
0058712230999992023010616004+51930-110720SAO  +077299999V020050190015199999999999999999-01211-01361999999REMAWY049XCS SA 1600 AUTO8 M M M M/-12/-14/0503/M/ M 16MM=
0067712230999992023010617004+51000-110745FM-12+077299999V0200951N0020199999999999999999-01241-01461999999ADDAA199999999KA1120M-01241KA2120N-01311OD139900401146REMSYN004BUFR
0058712230999992023010617004+51930-110720SAO  +077299999V020100190021199999999999999999-01221-01381999999REMAWY049XCS SA 1700 AUTO8 M M M M/-12/-14/1004/M/ M 28MM=
0088712230999992023010618004+51937-110713FM-12+077299999V0201291N0014199999999999999999-01121-01271999999ADDAA124999999KA1120M-01121KA2120N-01761REMSYN004BUFREQDQ01  99993PRCP99Q02  99993PRCP99
0058712230999992023010618004+51930-110720SAO  +077299999V020130190015199999999999999999-01121-01271999999REMAWY049XCS SA 1800 AUTO8 M M M M/-11/-13/1303/M/ M 27MM=
0058712230999992023010619004+51930-110720SAO  +077299999V020220190026199999999999999999-00961-01171999999REMAWY049XCS SA 1900 AUTO8 M M M M/-10/-12/2205/M/ M 67MM=
0058712230999992023010620004+51930-110720SAO  +077299999V020210190036199999999999999999-00871-01121999999REMAWY049XCS SA 2000 AUTO8 M M M M/-09/-11/2107/M/ M 72MM=
0063712230999992023010621004+51933-110700FM-12+077299999V0202101N004119999999N999999999-00851-01091999999ADDAA103000091REMSYN04071223 26/// /2108 11085 21109 333 60007=
0058712230999992023010621004+51930-110720SAO  +077299999V020210190041199999999999999999-00751-01091999999REMAWY049XCS SA 2100 AUTO8 M M M M/-08/-11/2108/M/ M 59MM=
0058712230999992023010622004+51930-110720SAO  +077299999V020200190010199999999999999999-00701-00961999999REMAWY049XCS SA 2200 AUTO8 M M M M/-07/-10/2002/M/ M 06MM=
0058712230999992023010623004+51930-110720SAO  +077299999V020230190067199999999999999999-00741-01001999999REMAWY049XCS SA 2300 AUTO8 M M M M/-07/-10/2313/M/ M 40MM=
0118712230999992023010700004+51933-110700FM-12+077299999V0202301N006719999999N999999999-00721-01011999999ADDAA106000091AA224000091KA1120M-00621KA2120N-01621REMSYN05871223 16/// /2313 11072 21101 60001 333 11062 21162 70000=
0093712230999992023010700004+51930-110720SAO  +077299999V020230190067199999999999999999-00721-01011999999ADDOD130100871230REMAWY067XCS SA 0000 AUTO8 M M M M/-07/-10/2313/M/ PK WND 2317 2316Z M 21MM=
0075712230999992023010701004+51050-110745FM-12+077299999V0202171N0050199999999999999999-00921-01231999999ADDAA199999999KA1120M-00811KA2120N-00921OC100701OD139900701236REMSYN004BUFR
0058712230999992023010701004+51930-110720SAO  +077299999V020220190057199999999999999999-00881-01141999999REMAWY049XCS SA 0100 AUTO8 M M M M/-09/-11/2211/M/ M 84MM=
0093712230999992023010702004+51930-110720SAO  +077299999V020230190087199999999999999999-00841-01091999999ADDOD130101031230REMAWY067XCS SA 0200 AUTO8 M M M M/-08/-11/2317/M/ PK WND 2320 0139Z M 49MM=
0063712230999992023010703004+51933-110700FM-12+077299999V0202201N006719999999N999999999-00831-01081999999ADDAA103000091REMSYN04071223 26/// /2213 11083 21108 333 60007=
0058712230999992023010703004+51930-110720SAO  +077299999V020220190067199999999999999999-00831-01081999999REMAWY049XCS SA 0300 AUTO8 M M M M/-08/-11/2213/M/ M 38MM=
0093712230999992023010704004+51930-110720SAO  +077299999V020240190087199999999999999999-00811-00951999999ADDOD130101081240REMAWY067XCS SA 0400 AUTO8 M M M M/-08/-10/2417/M/ PK WND 2421 0316Z M 15MM=
0093712230999992023010705004+51930-110720SAO  +077299999V020250190072199999999999999999-00691-00961999999ADDOD130100931240REMAWY067XCS SA 0500 AUTO8 M M M M/-07/-10/2514/M/ PK WND 2418 0407Z M 96MM=
0134712230999992023010706004+51933-110700FM-12+077299999V0202701N006219999999N999999999-00631-00911999999ADDAA106000091AA224000091KA1240M-00621KA2240N-01621REMSYN07471223 16/// /2712 11063 21091 60001 333 11062 21162 70000 555 32421 40041=
0058712230999992023010706004+51930-110720SAO  +077299999V020270190062199999999999999999-00631-00911999999REMAWY049XCS SA 0600 AUTO8 M M M M/-06/-09/2712/M/ M 31MM=
0058712230999992023010707004+51930-110720SAO  +077299999V020280190046199999999999999999-00541-00881999999REMAWY049XCS SA 0700 AUTO8 M M M M/-05/-09/2809/M/ M 48MM=
0075712230999992023010708004+51137-110745FM-12+077299999V0202831N0033199999999999999999-00591-01051999999ADDAA199999999KA1120M-00591KA2120N-00701OC100531OD139900531290REMSYN004BUFR
0058712230999992023010708004+51930-110720SAO  +077299999V020280190031199999999999999999-00571-00981999999REMAWY049XCS SA 0800 AUTO8 M M M M/-06/-10/2806/M/ M 78MM=
0062712230999992023010709004+51937-110872FM-12+077299999V0202881N0056199999999999999999-00611-01061999999ADDAA124999999REMSYN004BUFREQDQ01  99993PRCP99Q02  99993PRCP99
0058712230999992023010709004+51930-110720SAO  +077299999V020290190057199999999999999999-00591-00991999999REMAWY049XCS SA 0900 AUTO8 M M M M/-06/-10/2911/M/ M 99MM=
0058712230999992023010710004+51930-110720SAO  +077299999V020280190067199999999999999999-00711-01061999999REMAWY049XCS SA 1000 AUTO8 M M M M/-07/-11/2813/M/ M 16MM=
0058712230999992023010711004+51930-110720SAO  +077299999V020300190046199999999999999999-00801-01131999999REMAWY049XCS SA 1100 AUTO8 M M M M/-08/-11/3009/M/ M 03MM=
0118712230999992023010712004+51933-110700FM-12+077299999V0202501N003619999999N999999999-01261-01481999999ADDAA106000091AA224000091KA1240M-00621KA2240N-01281REMSYN05871223 16/// /2507 11126 21148 60001 333 11062 21128 70000=
0058712230999992023010712004+51930-110720SAO  +077299999V020250190036199999999999999999-01261-01481999999REMAWY049XCS SA 1200 AUTO8 M M M M/-13/-15/2507/M/ M 68MM=
0093712230999992023010713004+51930-110720SAO  +077299999V020280190067199999999999999999-00731-01061999999ADDOD130101031260REMAWY067XCS SA 1300 AUTO8 M M M M/-07/-11/2813/M/ PK WND 2620 1258Z M 36MM=
0075712230999992023010714004+51153-111668FM-12+077299999V0202831N0031199999999999999999-00881-01291999999ADDAA199999999KA1120M-00681KA2120N-00971OC100911OD139900911270REMSYN004BUFR
0093712230999992023010714004+51930-110720SAO  +077299999V020280190036199999999999999999-00841-01241999999ADDOD130100981270REMAWY067XCS SA 1400 AUTO8 M M M M/-08/-12/2807/M/ PK WND 2719 1301Z M 44MM=
0063712230999992023010715004+51933-110700FM-12+077299999V0202701N004619999999N999999999-00871-01311999999ADDAA103000091REMSYN04071223 26/// /2709 11087 21131 333 60007=
0058712230999992023010715004+51930-110720SAO  +077299999V020270190046199999999999999999-00871-01311999999REMAWY049XCS SA 1500 AUTO8 M M M M/-09/-13/2709/M/ M 71MM=
0058712230999992023010716004+51930-110720SAO  +077299999V020300190041199999999999999999-00911-01261999999REMAWY049XCS SA 1600 AUTO8 M M M M/-09/-13/3008/M/ M 16MM=
0093712230999992023010717004+51930-110720SAO  +077299999V020230190072199999999999999999-00981-01331999999ADDOD130100931230REMAWY067XCS SA 1700 AUTO8 M M M M/-10/-13/2314/M/ PK WND 2318 1646Z M 83MM=
0118712230999992023010718004+51933-110700FM-12+077299999V0202601N005119999999N999999999-00461-01061999999ADDAA106000091AA224000091KA1120M-00431KA2120N-01281REMSYN05871223 16/// /2610 11046 21106 60001 333 11043 21128 70000=
0093712230999992023010718004+51930-110720SAO  +077299999V020260190051199999999999999999-00461-01061999999ADDOD130100931240REMAWY067XCS SA 1800 AUTO8 M M M M/-05/-11/2610/M/ PK WND 2418 1716Z M 66MM=
0058712230999992023010719004+51930-110720SAO  +077299999V020240190046199999999999999999-00651-01111999999REMAWY049XCS SA 1900 AUTO8 M M M M/-07/-11/2409/M/ M 51MM=
0093712230999992023010720004+51930-110720SAO  +077299999V020240190067199999999999999999-00651-01101999999ADDOD130100981230REMAWY067XCS SA 2000 AUTO8 M M M M/-07/-11/2413/M/ PK WND 2319 1941Z M 50MM=
0063712230999992023010721004+51933-110700FM-12+077299999V0202501N004619999999N999999999-00651-01071999999ADDAA103000091REMSYN04071223 26/// /2509 11065 21107 333 60007=
0058712230999992023010721004+51930-110720SAO  +077299999V020250190046199999999999999999-00651-01071999999REMAWY049XCS SA 2100 AUTO8 M M M M/-07/-11/2509/M/ M 57MM=
0093712230999992023010722004+51930-110720SAO  +077299999V020230190051199999999999999999-00691-01041999999ADDOD130100931220REMAWY067XCS SA 2200 AUTO8 M M M M/-07/-10/2310/M/ PK WND 2218 2139Z M 94MM=
0093712230999992023010723004+51930-110720SAO  +077299999V020230190062199999999999999999-00861-01241999999ADDOD130100931220REMAWY067XCS SA 2300 AUTO8 M M M M/-09/-12/2312/M/ PK WND 2218 2257Z M 64MM=
0118712230999992023010800004+51933-110700FM-12+077299999V0202701N005119999999N999999999-00891-01181999999ADDAA106000091AA224000091KA1120M-00431KA2120N-01281REMSYN05871223 16/// /2710 11089 21118 60001 333 11043 21128 70000=
0058712230999992023010800004+51930-110720SAO  +077299999V020270190051199999999999999999-00891-01181999999REMAWY049XCS SA 0000 AUTO8 M M M M/-09/-12/2710/M/ M 98MM=
0058712230999992023010801004+51930-110720SAO  +077299999V020230190046199999999999999999-01001-01261999999REMAWY049XCS SA 0100 AUTO8 M M M M/-10/-13/2309/M/ M 06MM=
0058712230999992023010802004+51930-110720SAO  +077299999V020240190010199999999999999999-00901-01221999999REMAWY049XCS SA 0200 AUTO8 M M M M/-09/-12/2402/M/ M 02MM=
0063712230999992023010803004+51933-110700FM-12+077299999V0202201N003619999999N999999999-01161-01381999999ADDAA103000091REMSYN04071223 26/// /2207 11116 21138 333 60007=
0058712230999992023010803004+51930-110720SAO  +077299999V020220190036199999999999999999-01161-01381999999REMAWY049XCS SA 0300 AUTO8 M M M M/-12/-14/2207/M/ M 68MM=
0058712230999992023010804004+51930-110720SAO  +077299999V020230190046199999999999999999-01081-01291999999REMAWY049XCS SA 0400 AUTO8 M M M M/-11/-13/2309/M/ M 89MM=
0058712230999992023010805004+51930-110720SAO  +077299999V020230190041199999999999999999-01081-01271999999REMAWY049XCS SA 0500 AUTO8 M M M M/-11/-13/2308/M/ M 87MM=
0134712230999992023010806004+51933-110700FM-12+077299999V0202201N004119999999N999999999-01041-01231999999ADDAA106000091AA224000091KA1240M-00431KA2240N-01281REMSYN07471223 16/// /2208 11104 21123 60001 333 11043 21128 70000 555 32620 40131=
0058712230999992023010806004+51930-110720SAO  +077299999V020220190041199999999999999999-01041-01231999999REMAWY049XCS SA 0600 AUTO8 M M M M/-10/-12/2208/M/ M 43MM=
0075712230999992023010807004+51000-111345FM-12+077299999V0201241N0010199999999999999999-00921-01121999999ADDAA199999999KA1120M-00931KA2120N-01081OC100501OD139900501220REMSYN004BUFR
0058712230999992023010807004+51930-110720SAO  +077299999V020120190015199999999999999999-00881-00951999999REMAWY049XCS SA 0700 AUTO8 M M M M/-09/-10/1203/M/ M 85MM=
0058712230999992023010808004+51930-110720SAO  +077299999V020150190015199999999999999999-01191-01351999999REMAWY049XCS SA 0800 AUTO8 M M M M/-12/-14/1503/M/ M 95MM=
0063712230999992023010809004+51933-110700FM-12+077299999V0201401N002619999999N999999999-00901-01161999999ADDAA103000091REMSYN04071223 26/// /1405 11090 21116 333 60007=
0058712230999992023010809004+51930-110720SAO  +077299999V020140190026199999999999999999-00901-01161999999REMAWY049XCS SA 0900 AUTO8 M M M M/-09/-12/1405/M/ M 06MM=
0058712230999992023010810004+51930-110720SAO  +077299999V020120190015199999999999999999-01331-01491999999REMAWY049XCS SA 1000 AUTO8 M M M M/-13/-15/1203/M/ M 39MM=
0067712230999992023010811004+51000-111345FM-12+077299999V0201061N0020199999999999999999-01181-01341999999ADDAA199999999KA1120M-01231KA2120N-01421OD139900301151REMSYN004BUFR
0058712230999992023010811004+51930-110720SAO  +077299999V020110190026199999999999999999-01161-01331999999REMAWY049XCS SA 1100 AUTO8 M M M M/-12/-13/1105/M/ M 63MM=
0118712230999992023010812004+51933-110700FM-12+077299999V0201301N002619999999N999999999-01211-01361999999ADDAA106000091AA224000091KA1240M-00431KA2240N-01351REMSYN05871223 16/// /1305 11121 21136 60001 333 11043 21135 70000=
0058712230999992023010812004+51930-110720SAO  +077299999V020130190026199999999999999999-01211-01361999999REMAWY049XCS SA 1200 AUTO8 M M M M/-12/-14/1305/M/ M 16MM=
0058712230999992023010813004+51930-110720SAO  +077299999V020150190021199999999999999999-01081-01201999999REMAWY049XCS SA 1300 AUTO8 M M M M/-11/-12/1504/M/ M 80MM=
0058712230999992023010814004+51930-110720SAO  +077299999V020150190021199999999999999999-01091-01211999999REMAWY049XCS SA 1400 AUTO8 M M M M/-11/-12/1504/M/ M 91MM=
0063712230999992023010815004+51933-110700FM-12+077299999V0201201N002119999999N999999999-01281-01421999999ADDAA103000091REMSYN04071223 26/// /1204 11128 21142 333 60007=
0058712230999992023010815004+51930-110720SAO  +077299999V020120190021199999999999999999-01281-01421999999REMAWY049XCS SA 1500 AUTO8 M M M M/-13/-14/1204/M/ M 82MM=
0058712230999992023010816004+51930-110720SAO  +077299999V020160190031199999999999999999-01081-01201999999REMAWY049XCS SA 1600 AUTO8 M M M M/-11/-12/1606/M/ M 80MM=
0058712230999992023010817004+51930-110720SAO  +077299999V020200190041199999999999999999-00771-00991999999REMAWY049XCS SA 1700 AUTO8 M M M M/-08/-10/2008/M/ M 79MM=
0118712230999992023010818004+51933-110700FM-12+077299999V0202001N004619999999N999999999-00631-00911999999ADDAA106000091AA224000091KA1120M-00621KA2120N-01351REMSYN05871223 16/// /2009 11063 21091 60001 333 11062 21135 70000=
0058712230999992023010818004+51930-110720SAO  +077299999V020200190046199999999999999999-00631-00911999999REMAWY049XCS SA 1800 AUTO8 M M M M/-06/-09/2009/M/ M 31MM=
0058712230999992023010819004+51930-110720SAO  +077299999V020150190026199999999999999999-00621-00931999999REMAWY049XCS SA 1900 AUTO8 M M M M/-06/-09/1505/M/ M 23MM=
0058712230999992023010820004+51930-110720SAO  +077299999V020210190057199999999999999999-00451-00831999999REMAWY049XCS SA 2000 AUTO8 M M M M/-05/-08/2111/M/ M 53MM=
0063712230999992023010821004+51933-110700FM-12+077299999V0202101N005719999999N999999999-00591-00851999999ADDAA103000091REMSYN04071223 26/// /2111 11059 21085 333 60007=
0093712230999992023010821004+51930-110720SAO  +077299999V020210190057199999999999999999-00591-00751999999ADDOD130100871210REMAWY067XCS SA 2100 AUTO8 M M M M/-06/-08/2111/M/ PK WND 2117 2040Z M 95MM=
0058712230999992023010822004+51930-110720SAO  +077299999V020230190021199999999999999999-00551-00901999999REMAWY049XCS SA 2200 AUTO8 M M M M/-06/-09/2304/M/ M 50MM=
0058712230999992023010823004+51930-110720SAO  +077299999V020230190041199999999999999999-00691-00891999999REMAWY049XCS SA 2300 AUTO8 M M M M/-07/-09/2308/M/ M 99MM=
0118712230999992023010900004+51933-110700FM-12+077299999V0202401N003619999999N999999999-00621-00821999999ADDAA106000091AA224000091KA1120M-00441KA2120N-01351REMSYN05871223 16/// /2407 11062 21082 60001 333 11044 21135 70000=
0058712230999992023010900004+51930-110720SAO  +077299999V020240190036199999999999999999-00621-00821999999REMAWY049XCS SA 0000 AUTO8 M M M M/-06/-08/2407/M/ M 22MM=
0058712230999992023010901004+51930-110720SAO  +077299999V020230190062199999999999999999-00591-00831999999REMAWY049XCS SA 0100 AUTO8 M M M M/-06/-08/2312/M/ M 93MM=
0075712230999992023010902004+51153-111255FM-12+077299999V0202361N0060199999999999999999-00631-00861999999ADDAA199999999KA1120M-00611KA2120N-00731OC100721OD139900721233REMSYN004BUFR
0058712230999992023010902004+51930-110720SAO  +077299999V020240190062199999999999999999-00611-00811999999REMAWY049XCS SA 0200 AUTO8 M M M M/-06/-08/2412/M/ M 11MM=
0063712230999992023010903004+51933-110700FM-12+077299999V0202301N006719999999N999999999-00651-00831999999ADDAA103000091REMSYN04071223 26/// /2313 11065 21083 333 60007=
0058712230999992023010903004+51930-110720SAO  +077299999V020230190067199999999999999999-00551-00831999999REMAWY049XCS SA 0300 AUTO8 M M M M/-06/-08/2313/M/ M 53MM=
0058712230999992023010904004+51930-110720SAO  +077299999V020240190057199999999999999999-00471-00661999999REMAWY049XCS SA 0400 AUTO8 M M M M/-05/-07/2411/M/ M 76MM=
0058712230999992023010905004+51930-110720SAO  +077299999V020270190026199999999999999999-00471-00551999999REMAWY049XCS SA 0500 AUTO8 M M M M/-05/-06/2705/M/ M 75MM=
0134712230999992023010906004+51933-110700FM-12+077299999V0202201N003619999999N999999999-00901-01041999999ADDAA106000091AA224000091KA1240M-00361KA2240N-01351REMSYN07471223 16/// /2207 11090 21104 60001 333 11036 21135 70000 555 32117 40210=
0058712230999992023010906004+51930-110720SAO  +077299999V020220190036199999999999999999-00891-01041999999REMAWY049XCS SA 0600 AUTO8 M M M M/-09/-10/2207/M/ M 94MM=
0058712230999992023010907004+51930-110720SAO  +077299999V020200190031199999999999999999-00981-01091999999REMAWY049XCS SA 0700 AUTO8 M M M M/-10/-11/2006/M/ M 89MM=
0058712230999992023010908004+51930-110720SAO  +077299999V020290190021199999999999999999-01031-01181999999REMAWY049XCS SA 0800 AUTO8 M M M M/-10/-12/2904/M/ M 38MM=
0063712230999992023010909004+51933-110700FM-12+077299999V0202301N001519999999N999999999-00851-00951999999ADDAA103000091REMSYN04071223 26/// /2303 11085 21095 333 60007=
0058712230999992023010909004+51930-110720SAO  +077299999V020230190015199999999999999999-00851-00951999999REMAWY049XCS SA 0900 AUTO8 M M M M/-09/-10/2303/M/ M 55MM=
0058712230999992023010910004+51930-110720SAO  +077299999V020230190041199999999999999999-00911-01021999999REMAWY049XCS SA 1000 AUTO8 M M M M/-09/-10/2308/M/ M 12MM=
0058712230999992023010911004+51930-110720SAO  +077299999V020310190026199999999999999999-00841-00941999999REMAWY049XCS SA 1100 AUTO8 M M M M/-08/-09/3105/M/ M 44MM=
0118712230999992023010912004+51933-110700FM-12+077299999V0202601N002619999999N999999999-00981-01101999999ADDAA106000091AA224000091KA1240M-00361KA2240N-01111REMSYN05871223 16/// /2605 11098 21110 60001 333 11036 21111 70000=
0058712230999992023010912004+51930-110720SAO  +077299999V020260190026199999999999999999-00981-01101999999REMAWY049XCS SA 1200 AUTO8 M M M M/-10/-11/2605/M/ M 80MM=
0058712230999992023010913004+51930-110720SAO  +077299999V020300190021199999999999999999-00711-00811999999REMAWY049XCS SA 1300 AUTO8 M M M M/-07/-08/3004/M/ M 11MM=
0058712230999992023010914004+51930-110720SAO  +077299999V020300190041199999999999999999-00681-00791999999REMAWY049XCS SA 1400 AUTO8 M M M M/-07/-08/3008/M/ M 89MM=
0063712230999992023010915004+51933-110700FM-12+077299999V0203101N005719999999N999999999-00761-00891999999ADDAA103000091REMSYN04071223 26/// /3111 11076 21089 333 60007=
0058712230999992023010915004+51930-110720SAO  +077299999V020310190057199999999999999999-00761-00891999999REMAWY049XCS SA 1500 AUTO8 M M M M/-08/-09/3111/M/ M 69MM=
0058712230999992023010916004+51930-110720SAO  +077299999V020300190021199999999999999999-00781-00951999999REMAWY049XCS SA 1600 AUTO8 M M M M/-08/-10/3004/M/ M 85MM=
0058712230999992023010917004+51930-110720SAO  +077299999V020250190031199999999999999999-00871-01091999999REMAWY049XCS SA 1700 AUTO8 M M M M/-09/-11/2506/M/ M 79MM=
0058712230999992023011001004+51930-110720SAO  +077299999V020320190021199999999999999999-00941-00951999999REMAWY049XCS SA 0100 AUTO8 M M M M/-09/-10/3204/M/ M 45MM=
0058712230999992023011002004+51930-110720SAO  +077299999V020020190026199999999999999999-00731-00881999999REMAWY049XCS SA 0200 AUTO8 M M M M/-07/-09/0205/M/ M 38MM=
0063712230999992023011003004+51933-110700FM-12+077299999V0201001N000519999999N999999999-00871-00981999999ADDAA103000091REMSYN04071223 26/// /1001 11087 21098 333 60007=
0058712230999992023011003004+51930-110720SAO  +077299999V020100190005199999999999999999-00871-00981999999REMAWY049XCS SA 0300 AUTO8 M M M M/-09/-10/1001/M/ M 78MM=
0058712230999992023011004004+51930-110720SAO  +077299999V020220190046199999999999999999-01181-01301999999REMAWY049XCS SA 0400 AUTO8 M M M M/-12/-13/2209/M/ M 80MM=
0058712230999992023011005004+51930-110720SAO  +077299999V020240190015199999999999999999-01031-01141999999REMAWY049XCS SA 0500 AUTO8 M M M M/-10/-11/2403/M/ M 34MM=
0080712230999992023011006004+51933-110700FM-12+077299999V0209999C000019999999N999999999-01241-01371999999ADDAA106000091AA224999919REMSYN04671223 16/// /0000 11124 21137 60001 333 7////=
0058712230999992023011006004+51930-110720SAO  +077299999V020360190000199999999999999999-01241-01371999999REMAWY049XCS SA 0600 AUTO8 M M M M/-12/-14/0000/M/ M 47MM=
0058712230999992023011007004+51930-110720SAO  +077299999V020240190010199999999999999999-01071-01191999999REMAWY049XCS SA 0700 AUTO8 M M M M/-11/-12/2402/M/ M 79MM=
0058712230999992023011008004+51930-110720SAO  +077299999V020230190010199999999999999999-00901-01021999999REMAWY049XCS SA 0800 AUTO8 M M M M/-09/-10/2302/M/ M 02MM=
0063712230999992023011009004+51933-110700FM-12+077299999V0203401N002119999999N999999999-01221-01371999999ADDAA103000091REMSYN04071223 26/// /3404 11122 21137 333 60007=
0058712230999992023011009004+51930-110720SAO  +077299999V020340190021199999999999999999-01221-01371999999REMAWY049XCS SA 0900 AUTO8 M M M M/-12/-14/3404/M/ M 27MM=
0058712230999992023011010004+51930-110720SAO  +077299999V020360190000199999999999999999-01081-01211999999REMAWY049XCS SA 1000 AUTO8 M M M M/-11/-12/0000/M/ M 81MM=
0058712230999992023011011004+51930-110720SAO  +077299999V020140190010199999999999999999-00971-01081999999REMAWY049XCS SA 1100 AUTO8 M M M M/-10/-11/1402/M/ M 78MM=
0099712230999992023011012004+51933-110700FM-12+077299999V0201901N002119999999N999999999-01051-01161999999ADDAA106000091AA224999919KA1240N-01381REMSYN05271223 16/// /1904 11105 21116 60001 333 21138 7////=
0058712230999992023011012004+51930-110720SAO  +077299999V020190190021199999999999999999-00951-01161999999REMAWY049XCS SA 1200 AUTO8 M M M M/-10/-12/1904/M/ M 56MM=
0058712230999992023011013004+51930-110720SAO  +077299999V020360190000199999999999999999-01161-01341999999REMAWY049XCS SA 1300 AUTO8 M M M M/-12/-13/0000/M/ M 64MM=
0058712230999992023011014004+51930-110720SAO  +077299999V020100190005199999999999999999-01141-01301999999REMAWY049XCS SA 1400 AUTO8 M M M M/-11/-13/1001/M/ M 40MM=
0063712230999992023011015004+51933-110700FM-12+077299999V0203201N001019999999N999999999-01221-01401999999ADDAA103000091REMSYN04071223 26/// /3202 11122 21140 333 60007=
0058712230999992023011015004+51930-110720SAO  +077299999V020320190010199999999999999999-01221-01401999999REMAWY049XCS SA 1500 AUTO8 M M M M/-12/-14/3202/M/ M 20MM=
0058712230999992023011016004+51930-110720SAO  +077299999V020360190000199999999999999999-01161-01321999999REMAWY049XCS SA 1600 AUTO8 M M M M/-12/-13/0000/M/ M 62MM=
0058712230999992023011017004+51930-110720SAO  +077299999V020310190036199999999999999999-01141-01301999999REMAWY049XCS SA 1700 AUTO8 M M M M/-11/-13/3107/M/ M 40MM=
0086712230999992023011018004+51933-110700FM-12+077299999V0203301N002119999999N999999999-01121-01281999999ADDAA106000091AA224999919REMSYN05271223 16/// /3304 11112 21128 60001 333 11083 7////=
0058712230999992023011018004+51930-110720SAO  +077299999V020330190021199999999999999999-01121-01281999999REMAWY049XCS SA 1800 AUTO8 M M M M/-11/-13/3304/M/ M 28MM=
0058712230999992023011019004+51930-110720SAO  +077299999V020070190021199999999999999999-00941-01081999999REMAWY049XCS SA 1900 AUTO8 M M M M/-09/-11/0704/M/ M 48MM=
0058712230999992023011020004+51930-110720SAO  +077299999V020070190005199999999999999999-00961-01101999999REMAWY049XCS SA 2000 AUTO8 M M M M/-10/-11/0701/M/ M 60MM=
0063712230999992023011021004+51933-110700FM-12+077299999V0202101N000519999999N999999999-00901-01041999999ADDAA103000091REMSYN04071223 26/// /2101 11090 21104 333 60007=
0058712230999992023011021004+51930-110720SAO  +077299999V020210190005199999999999999999-00901-01041999999REMAWY049XCS SA 2100 AUTO8 M M M M/-09/-10/2101/M/ M 04MM=
0058712230999992023011022004+51930-110720SAO  +077299999V020050190015199999999999999999-00871-01011999999REMAWY049XCS SA 2200 AUTO8 M M M M/-09/-10/0503/M/ M 71MM=
0058712230999992023011023004+51930-110720SAO  +077299999V020100190005199999999999999999-00761-00951999999REMAWY049XCS SA 2300 AUTO8 M M M M/-08/-10/1001/M/ M 65MM=
0118712230999992023011100004+51933-110700FM-12+077299999V0200501N001519999999N999999999-00951-01101999999ADDAA106000091AA224000091KA1120M-00691KA2120N-01271REMSYN05871223 16/// /0503 11095 21110 60001 333 11069 21127 70000=
0058712230999992023011100004+51930-110720SAO  +077299999V020050190015199999999999999999-00851-01101999999REMAWY049XCS SA 0000 AUTO8 M M M M/-09/-11/0503/M/ M 50MM=
0058712230999992023011101004+51930-110720SAO  +077299999V020070190015199999999999999999-01051-01291999999REMAWY049XCS SA 0100 AUTO8 M M M M/-11/-13/0703/M/ M 59MM=
0058712230999992023011102004+51930-110720SAO  +077299999V020090190005199999999999999999-01231-01361999999REMAWY049XCS SA 0200 AUTO8 M M M M/-12/-14/0901/M/ M 36MM=
0063712230999992023011103004+51933-110700FM-12+077299999V0203401N000519999999N999999999-01341-01491999999ADDAA103000091REMSYN04071223 26/// /3401 11134 21149 333 60007=
0058712230999992023011103004+51930-110720SAO  +077299999V020340190005199999999999999999-01341-01491999999REMAWY049XCS SA 0300 AUTO8 M M M M/-13/-15/3401/M/ M 49MM=
0058712230999992023011104004+51930-110720SAO  +077299999V020060190015199999999999999999-01221-01351999999REMAWY049XCS SA 0400 AUTO8 M M M M/-12/-14/0603/M/ M 25MM=
0058712230999992023011105004+51930-110720SAO  +077299999V020100190005199999999999999999-01151-01291999999REMAWY049XCS SA 0500 AUTO8 M M M M/-12/-13/1001/M/ M 59MM=
0118712230999992023011106004+51933-110700FM-12+077299999V0200701N001519999999N999999999-01081-01221999999ADDAA106000091AA224000091KA1240M-00691KA2240N-01361REMSYN05871223 16/// /0703 11108 21122 60001 333 11069 21136 70000=
0058712230999992023011106004+51930-110720SAO  +077299999V020070190015199999999999999999-01081-01221999999REMAWY049XCS SA 0600 AUTO8 M M M M/-11/-12/0703/M/ M 82MM=
0058712230999992023011107004+51930-110720SAO  +077299999V020330190005199999999999999999-01091-01231999999REMAWY049XCS SA 0700 AUTO8 M M M M/-11/-12/3301/M/ M 93MM=
0058712230999992023011108004+51930-110720SAO  +077299999V020300190010199999999999999999-01061-01201999999REMAWY049XCS SA 0800 AUTO8 M M M M/-11/-12/3002/M/ M 60MM=
0063712230999992023011109004+51933-110700FM-12+077299999V0203101N001519999999N999999999-01051-01181999999ADDAA103000091REMSYN04071223 26/// /3103 11105 21118 333 60007=
0058712230999992023011109004+51930-110720SAO  +077299999V020310190015199999999999999999-00951-01181999999REMAWY049XCS SA 0900 AUTO8 M M M M/-10/-12/3103/M/ M 58MM=
0058712230999992023011110004+51930-110720SAO  +077299999V020320190021199999999999999999-01041-01171999999REMAWY049XCS SA 1000 AUTO8 M M M M/-10/-12/3204/M/ M 47MM=
0058712230999992023011111004+51930-110720SAO  +077299999V020280190015199999999999999999-01091-01231999999REMAWY049XCS SA 1100 AUTO8 M M M M/-11/-12/2803/M/ M 93MM=
0118712230999992023011112004+51933-110700FM-12+077299999V0203301N001019999999N999999999-01161-01311999999ADDAA106000091AA224000091KA1240M-00691KA2240N-01361REMSYN05871223 16/// /3302 11116 21131 60001 333 11069 21136 70000=
0058712230999992023011112004+51930-110720SAO  +077299999V020330190010199999999999999999-01161-01311999999REMAWY049XCS SA 1200 AUTO8 M M M M/-12/-13/3302/M/ M 61MM=
0058712230999992023011113004+51930-110720SAO  +077299999V020310190021199999999999999999-01341-01491999999REMAWY049XCS SA 1300 AUTO8 M M M M/-13/-15/3104/M/ M 49MM=
0058712230999992023011114004+51930-110720SAO  +077299999V020320190010199999999999999999-01181-01331999999REMAWY049XCS SA 1400 AUTO8 M M M M/-12/-13/3202/M/ M 83MM=
0063712230999992023011115004+51933-110700FM-12+077299999V0202201N001519999999N999999999-01091-01231999999ADDAA103000091REMSYN04071223 26/// /2203 11109 21123 333 60007=
0058712230999992023011115004+51930-110720SAO  +077299999V020230190015199999999999999999-01091-01231999999REMAWY049XCS SA 1500 AUTO8 M M M M/-11/-12/2303/M/ M 93MM=
0058712230999992023011116004+51930-110720SAO  +077299999V020220190010199999999999999999-00951-01181999999REMAWY049XCS SA 1600 AUTO8 M M M M/-10/-12/2202/M/ M 58MM=
0058712230999992023011117004+51930-110720SAO  +077299999V020210190015199999999999999999-01021-01151999999REMAWY049XCS SA 1700 AUTO8 M M M M/-10/-12/2103/M/ M 25MM=
0118712230999992023011118004+51933-110700FM-12+077299999V0202001N001519999999N999999999-00991-01121999999ADDAA106000091AA224000091KA1120M-00991KA2120N-01361REMSYN05871223 16/// /2003 11099 21112 60001 333 11099 21136 70000=
0058712230999992023011118004+51930-110720SAO  +077299999V020200190015199999999999999999-00991-01121999999REMAWY049XCS SA 1800 AUTO8 M M M M/-10/-11/2003/M/ M 92MM=
0058712230999992023011119004+51930-110720SAO  +077299999V020230190010199999999999999999-00961-01081999999REMAWY049XCS SA 1900 AUTO8 M M M M/-10/-11/2302/M/ M 68MM=
0058712230999992023011120004+51930-110720SAO  +077299999V020220190015199999999999999999-00941-01061999999REMAWY049XCS SA 2000 AUTO8 M M M M/-09/-11/2203/M/ M 46MM=
0063712230999992023011121004+51933-110700FM-12+077299999V0202001N001019999999N999999999-00921-01041999999ADDAA103000091REMSYN04071223 26/// /2002 11092 21104 333 60007=
0058712230999992023011121004+51930-110720SAO  +077299999V020200190010199999999999999999-00921-01041999999REMAWY049XCS SA 2100 AUTO8 M M M M/-09/-10/2002/M/ M 24MM=
0058712230999992023011122004+51930-110720SAO  +077299999V020160190010199999999999999999-00941-01071999999REMAWY049XCS SA 2200 AUTO8 M M M M/-09/-11/1602/M/ M 47MM=
0058712230999992023011123004+51930-110720SAO  +077299999V020210190015199999999999999999-00971-01101999999REMAWY049XCS SA 2300 AUTO8 M M M M/-10/-11/2103/M/ M 70MM=
0118712230999992023011200004+51933-110700FM-12+077299999V0202001N002119999999N999999999-01041-01181999999ADDAA106000091AA224000091KA1120M-00901KA2120N-01361REMSYN05871223 16/// /2004 11104 21118 60001 333 11090 21136 70000=
0058712230999992023011200004+51930-110720SAO  +077299999V020200190021199999999999999999-01041-01181999999REMAWY049XCS SA 0000 AUTO8 M M M M/-10/-12/2004/M/ M 48MM=
0058712230999992023011201004+51930-110720SAO  +077299999V020120190015199999999999999999-01021-01151999999REMAWY049XCS SA 0100 AUTO8 M M M M/-10/-12/1203/M/ M 25MM=
0058712230999992023011202004+51930-110720SAO  +077299999V020130190021199999999999999999-01091-01231999999REMAWY049XCS SA 0200 AUTO8 M M M M/-11/-12/1304/M/ M 93MM=
0063712230999992023011203004+51933-110700FM-12+077299999V0201401N002119999999N999999999-01151-01301999999ADDAA103000091REMSYN04071223 26/// /1404 11115 21130 333 60007=
0058712230999992023011203004+51930-110720SAO  +077299999V020140190021199999999999999999-01051-01301999999REMAWY049XCS SA 0300 AUTO8 M M M M/-11/-13/1404/M/ M 50MM=
0058712230999992023011204004+51930-110720SAO  +077299999V020140190026199999999999999999-01201-01361999999REMAWY049XCS SA 0400 AUTO8 M M M M/-12/-14/1405/M/ M 06MM=
0058712230999992023011205004+51930-110720SAO  +077299999V020150190026199999999999999999-01261-01421999999REMAWY049XCS SA 0500 AUTO8 M M M M/-13/-14/1505/M/ M 62MM=
0118712230999992023011206004+51933-110700FM-12+077299999V0201501N001519999999N999999999-01341-01511999999ADDAA106000091AA224000091KA1240M-00901KA2240N-01361REMSYN05871223 16/// /1503 11134 21151 60001 333 11090 21136 70000=
0058712230999992023011206004+51930-110720SAO  +077299999V020150190015199999999999999999-01341-01511999999REMAWY049XCS SA 0600 AUTO8 M M M M/-13/-15/1503/M/ M 41MM=
0058712230999992023011207004+51930-110720SAO  +077299999V020160190010199999999999999999-01401-01581999999REMAWY049XCS SA 0700 AUTO8 M M M M/-14/-16/1602/M/ M 08MM=
0058712230999992023011208004+51930-110720SAO  +077299999V020160190005199999999999999999-01411-01591999999REMAWY049XCS SA 0800 AUTO8 M M M M/-14/-16/1601/M/ M 19MM=
0063712230999992023011209004+51933-110700FM-12+077299999V0201401N000519999999N999999999-01451-01631999999ADDAA103000091REMSYN04071223 26/// /1401 11145 21163 333 60007=
0058712230999992023011209004+51930-110720SAO  +077299999V020140190005199999999999999999-01351-01631999999REMAWY049XCS SA 0900 AUTO8 M M M M/-14/-16/1401/M/ M 53MM=
0058712230999992023011210004+51930-110720SAO  +077299999V020130190005199999999999999999-01411-01591999999REMAWY049XCS SA 1000 AUTO8 M M M M/-14/-16/1301/M/ M 19MM=
0058712230999992023011211004+51930-110720SAO  +077299999V020150190015199999999999999999-01411-01591999999REMAWY049XCS SA 1100 AUTO8 M M M M/-14/-16/1503/M/ M 19MM=
0118712230999992023011212004+51933-110700FM-12+077299999V0201801N001019999999N999999999-01451-01641999999ADDAA106000091AA224000091KA1240M-00901KA2240N-01461REMSYN05871223 16/// /1802 11145 21164 60001 333 11090 21146 70000=
0058712230999992023011212004+51930-110720SAO  +077299999V020180190010199999999999999999-01451-01641999999REMAWY049XCS SA 1200 AUTO8 M M M M/-15/-16/1802/M/ M 54MM=
0058712230999992023011213004+51930-110720SAO  +077299999V020180190005199999999999999999-01431-01611999999REMAWY049XCS SA 1300 AUTO8 M M M M/-14/-16/1801/M/ M 31MM=
0058712230999992023011214004+51930-110720SAO  +077299999V020110190005199999999999999999-01411-01581999999REMAWY049XCS SA 1400 AUTO8 M M M M/-14/-16/1101/M/ M 18MM=
0062712230999992023011215004+51775-111176FM-12+077299999V0201781N0001199999999999999999-01471-01631999999ADDAA124999999REMSYN004BUFREQDQ01  99993PRCP99Q02  99993PRCP99
0132712230999992023011218004+51933-110700FM-12+077299999V0201601N000519999999N999999999-01341-01501999999ADDAA106000431AA224000431AZ141021KA1120M-01341KA2120N-01461REMSYN06471223 17/// /1601 11134 21150 69941 7//4/ 333 11134 21146 70004=
0062712230999992023011221004+51775-111176FM-12+077299999V0209999C0000199999999999999999-01271-01361999999ADDAA124999999REMSYN004BUFREQDQ01  99993PRCP99Q02  99993PRCP99
0118712230999992023011300004+51933-110700FM-12+077299999V0209999C000019999999N999999999-01561-01751999999ADDAA106000091AA224000431KA1120M-01171KA2120N-01561REMSYN05871223 16/// /0000 11156 21175 60001 333 11117 21156 70004=
0058712230999992023011300004+51930-110720SAO  +077299999V020360190000199999999999999999-01561-01751999999REMAWY049XCS SA 0000 AUTO8 M M M M/-16/-18/0000/M/ M 65MM=
0058712230999992023011301004+51930-110720SAO  +077299999V020360190000199999999999999999-01571-01761999999REMAWY049XCS SA 0100 AUTO8 M M M M/-16/-18/0000/M/ M 76MM=
0058712230999992023011302004+51930-110720SAO  +077299999V020360190000199999999999999999-01541-01731999999REMAWY049XCS SA 0200 AUTO8 M M M M/-15/-17/0000/M/ M 43MM=
0063712230999992023011303004+51933-110700FM-12+077299999V0209999C000019999999N999999999-01571-01761999999ADDAA103000091REMSYN04071223 26/// /0000 11157 21176 333 60007=
0058712230999992023011303004+51930-110720SAO  +077299999V020360190000199999999999999999-01571-01761999999REMAWY049XCS SA 0300 AUTO8 M M M M/-16/-18/0000/M/ M 76MM=
0058712230999992023011304004+51930-110720SAO  +077299999V020360190000199999999999999999-01561-01751999999REMAWY049XCS SA 0400 AUTO8 M M M M/-16/-18/0000/M/ M 65MM=
0058712230999992023011305004+51930-110720SAO  +077299999V020360190000199999999999999999-01391-01571999999REMAWY049XCS SA 0500 AUTO8 M M M M/-14/-16/0000/M/ M 97MM=
0118712230999992023011306004+51933-110700FM-12+077299999V0209999C000019999999N999999999-01351-01521999999ADDAA106000091AA224000431KA1240M-01171KA2240N-01591REMSYN05871223 16/// /0000 11135 21152 60001 333 11117 21159 70004=
0058712230999992023011306004+51930-110720SAO  +077299999V020360190000199999999999999999-01251-01521999999REMAWY049XCS SA 0600 AUTO8 M M M M/-13/-15/0000/M/ M 52MM=
0058712230999992023011307004+51930-110720SAO  +077299999V020360190000199999999999999999-01351-01521999999REMAWY049XCS SA 0700 AUTO8 M M M M/-14/-15/0000/M/ M 52MM=
0058712230999992023011308004+51930-110720SAO  +077299999V020360190000199999999999999999-01251-01411999999REMAWY049XCS SA 0800 AUTO8 M M M M/-13/-14/0000/M/ M 51MM=
0063712230999992023011309004+51933-110700FM-12+077299999V0202201N000519999999N999999999-00911-01031999999ADDAA103000091REMSYN04071223 26/// /2201 11091 21103 333 60007=
0058712230999992023011309004+51930-110720SAO  +077299999V020220190005199999999999999999-00911-01031999999REMAWY049XCS SA 0900 AUTO8 M M M M/-09/-10/2201/M/ M 13MM=
0058712230999992023011310004+51930-110720SAO  +077299999V020220190046199999999999999999-00861-00981999999REMAWY049XCS SA 1000 AUTO8 M M M M/-09/-10/2209/M/ M 68MM=
0058712230999992023011311004+51930-110720SAO  +077299999V020240190041199999999999999999-00751-00971999999REMAWY049XCS SA 1100 AUTO8 M M M M/-08/-10/2408/M/ M 57MM=
0105712230999992023011312004+51933-110700FM-12+077299999V0202601N002119999999N999999999-00721-00811999999ADDAA106000091AA224000431KA1240N-01591REMSYN05871223 16/// /2604 11072 21081 60001 333 11117 21159 70004=
0058712230999992023011312004+51930-110720SAO  +077299999V020260190021199999999999999999-00721-00811999999REMAWY049XCS SA 1200 AUTO8 M M M M/-07/-08/2604/M/ M 21MM=
0058712230999992023011313004+51930-110720SAO  +077299999V020280190015199999999999999999-01041-01181999999REMAWY049XCS SA 1300 AUTO8 M M M M/-10/-12/2803/M/ M 48MM=
0058712230999992023011314004+51930-110720SAO  +077299999V020190190015199999999999999999-00971-01101999999REMAWY049XCS SA 1400 AUTO8 M M M M/-10/-11/1903/M/ M 70MM=
0063712230999992023011315004+51933-110700FM-12+077299999V0202201N001519999999N999999999-00861-00971999999ADDAA103000091REMSYN04071223 26/// /2203 11086 21097 333 60007=
0058712230999992023011315004+51930-110720SAO  +077299999V020220190015199999999999999999-00861-00971999999REMAWY049XCS SA 1500 AUTO8 M M M M/-09/-10/2203/M/ M 67MM=
0058712230999992023011316004+51930-110720SAO  +077299999V020250190031199999999999999999-00651-00831999999REMAWY049XCS SA 1600 AUTO8 M M M M/-07/-08/2506/M/ M 53MM=
0058712230999992023011317004+51930-110720SAO  +077299999V020290190036199999999999999999-00671-00771999999REMAWY049XCS SA 1700 AUTO8 M M M M/-07/-08/2907/M/ M 77MM=
0118712230999992023011318004+51933-110700FM-12+077299999V0202801N001019999999N999999999-00521-00601999999ADDAA106000091AA224000091KA1120M-00471KA2120N-01591REMSYN05871223 16/// /2802 11052 21060 60001 333 11047 21159 70000=
0058712230999992023011318004+51930-110720SAO  +077299999V020280190010199999999999999999-00521-00601999999REMAWY049XCS SA 1800 AUTO8 M M M M/-05/-06/2802/M/ M 20MM=
0058712230999992023011319004+51930-110720SAO  +077299999V020070190005199999999999999999-00541-00631999999REMAWY049XCS SA 1900 AUTO8 M M M M/-05/-06/0701/M/ M 43MM=
0058712230999992023011320004+51930-110720SAO  +077299999V020110190021199999999999999999-00521-00611999999REMAWY049XCS SA 2000 AUTO8 M M M M/-05/-06/1104/M/ M 21MM=
0063712230999992023011321004+51933-110700FM-12+077299999V0201001N002119999999N999999999-00661-00771999999ADDAA103000091REMSYN04071223 26/// /1004 11066 21077 333 60007=
0058712230999992023011321004+51930-110720SAO  +077299999V020100190021199999999999999999-00661-00771999999REMAWY049XCS SA 2100 AUTO8 M M M M/-07/-08/1004/M/ M 67MM=
0058712230999992023011322004+51930-110720SAO  +077299999V020080190041199999999999999999-00821-00951999999REMAWY049XCS SA 2200 AUTO8 M M M M/-08/-10/0808/M/ M 25MM=
0058712230999992023011323004+51930-110720SAO  +077299999V020110190031199999999999999999-00981-01121999999REMAWY049XCS SA 2300 AUTO8 M M M M/-10/-11/1106/M/ M 82MM=
0118712230999992023011400004+51933-110700FM-12+077299999V0200901N003619999999N999999999-00941-01071999999ADDAA106000091AA224000091KA1120M-00371KA2120N-01371REMSYN05871223 16/// /0907 11094 21107 60001 333 11037 21137 70000=
0058712230999992023011400004+51930-110720SAO  +077299999V020090190036199999999999999999-00941-01071999999REMAWY049XCS SA 0000 AUTO8 M M M M/-09/-11/0907/M/ M 47MM=
0058712230999992023011401004+51930-110720SAO  +077299999V020080190031199999999999999999-00941-01071999999REMAWY049XCS SA 0100 AUTO8 M M M M/-09/-11/0806/M/ M 47MM=
0058712230999992023011402004+51930-110720SAO  +077299999V020090190036199999999999999999-00851-00961999999REMAWY049XCS SA 0200 AUTO8 M M M M/-09/-10/0907/M/ M 56MM=
0063712230999992023011403004+51933-110700FM-12+077299999V0200901N003619999999N999999999-00871-00981999999ADDAA103000091REMSYN04071223 26/// /0907 11087 21098 333 60007=
0058712230999992023011403004+51930-110720SAO  +077299999V020090190036199999999999999999-00871-00981999999REMAWY049XCS SA 0300 AUTO8 M M M M/-09/-10/0907/M/ M 78MM=
0058712230999992023011404004+51930-110720SAO  +077299999V020090190031199999999999999999-00891-01011999999REMAWY049XCS SA 0400 AUTO8 M M M M/-09/-10/0906/M/ M 91MM=
0058712230999992023011405004+51930-110720SAO  +077299999V020100190031199999999999999999-00921-00951999999REMAWY049XCS SA 0500 AUTO8 M M M M/-09/-10/1006/M/ M 25MM=
0118712230999992023011406004+51933-110700FM-12+077299999V0200901N002119999999N999999999-00971-01101999999ADDAA106000091AA224000091KA1240M-00371KA2240N-01371REMSYN05871223 16/// /0904 11097 21110 60001 333 11037 21137 70000=
0058712230999992023011406004+51930-110720SAO  +077299999V020090190021199999999999999999-00971-01101999999REMAWY049XCS SA 0600 AUTO8 M M M M/-10/-11/0904/M/ M 70MM=
0058712230999992023011407004+51930-110720SAO  +077299999V020090190021199999999999999999-00941-01061999999REMAWY049XCS SA 0700 AUTO8 M M M M/-09/-11/0904/M/ M 46MM=
0058712230999992023011408004+51930-110720SAO  +077299999V020090190021199999999999999999-00851-01071999999REMAWY049XCS SA 0800 AUTO8 M M M M/-09/-11/0904/M/ M 57MM=
0063712230999992023011409004+51933-110700FM-12+077299999V0200801N002119999999N999999999-00901-01021999999ADDAA103000091REMSYN04071223 26/// /0804 11090 21102 333 60007=
0058712230999992023011409004+51930-110720SAO  +077299999V020080190021199999999999999999-00901-01021999999REMAWY049XCS SA 0900 AUTO8 M M M M/-09/-10/0804/M/ M 02MM=
0058712230999992023011410004+51930-110720SAO  +077299999V020090190021199999999999999999-01001-01131999999REMAWY049XCS SA 1000 AUTO8 M M M M/-10/-11/0904/M/ M 03MM=
0058712230999992023011411004+51930-110720SAO  +077299999V020050190005199999999999999999-00861-00961999999REMAWY049XCS SA 1100 AUTO8 M M M M/-09/-10/0501/M/ M 66MM=
0118712230999992023011412004+51933-110700FM-12+077299999V0200701N001519999999N999999999-00831-00941999999ADDAA106000091AA224000091KA1240M-00371KA2240N-01001REMSYN05871223 16/// /0703 11083 21094 60001 333 11037 21100 70000=
0058712230999992023011412004+51930-110720SAO  +077299999V020070190015199999999999999999-00831-00941999999REMAWY049XCS SA 1200 AUTO8 M M M M/-08/-09/0703/M/ M 34MM=
0058712230999992023011413004+51930-110720SAO  +077299999V020090190015199999999999999999-00791-00901999999REMAWY049XCS SA 1300 AUTO8 M M M M/-08/-09/0903/M/ M 90MM=
0058712230999992023011414004+51930-110720SAO  +077299999V020100190015199999999999999999-00901-01031999999REMAWY049XCS SA 1400 AUTO8 M M M M/-09/-10/1003/M/ M 03MM=
0063712230999992023011415004+51933-110700FM-12+077299999V0203401N001019999999N999999999-01021-01151999999ADDAA103000091REMSYN04071223 26/// /3402 11102 21115 333 60007=
0058712230999992023011415004+51930-110720SAO  +077299999V020340190010199999999999999999-01021-01151999999REMAWY049XCS SA 1500 AUTO8 M M M M/-10/-12/3402/M/ M 25MM=
0058712230999992023011416004+51930-110720SAO  +077299999V020340190021199999999999999999-00991-01111999999REMAWY049XCS SA 1600 AUTO8 M M M M/-10/-11/3404/M/ M 91MM=
0058712230999992023011417004+51930-110720SAO  +077299999V020340190010199999999999999999-00911-01031999999REMAWY049XCS SA 1700 AUTO8 M M M M/-09/-10/3402/M/ M 13MM=
0118712230999992023011418004+51933-110700FM-12+077299999V0203401N002619999999N999999999-00931-01051999999ADDAA106000091AA224000091KA1120M-00761KA2120N-01031REMSYN05871223 16/// /3405 11093 21105 60001 333 11076 21103 70000=
0058712230999992023011418004+51930-110720SAO  +077299999V020340190026199999999999999999-00931-00951999999REMAWY049XCS SA 1800 AUTO8 M M M M/-09/-10/3405/M/ M 35MM=
0058712230999992023011419004+51930-110720SAO  +077299999V020330190036199999999999999999-00911-01041999999REMAWY049XCS SA 1900 AUTO8 M M M M/-09/-10/3307/M/ M 14MM=
0058712230999992023011420004+51930-110720SAO  +077299999V020330190031199999999999999999-00971-01101999999REMAWY049XCS SA 2000 AUTO8 M M M M/-10/-11/3306/M/ M 70MM=
0062712230999992023011421004+51775-111176FM-12+077299999V0203171N0040199999999999999999-01011-01051999999ADDAA124999999REMSYN004BUFREQDQ01  99993PRCP99Q02  99993PRCP99
0058712230999992023011421004+51930-110720SAO  +077299999V020320190041199999999999999999-00931-00951999999REMAWY049XCS SA 2100 AUTO8 M M M M/-09/-10/3208/M/ M 35MM=
0058712230999992023011422004+51930-110720SAO  +077299999V020330190026199999999999999999-00921-01041999999REMAWY049XCS SA 2200 AUTO8 M M M M/-09/-10/3305/M/ M 24MM=
0058712230999992023011423004+51930-110720SAO  +077299999V020360190031199999999999999999-00921-01031999999REMAWY049XCS SA 2300 AUTO8 M M M M/-09/-10/3606/M/ M 23MM=
0118712230999992023011500004+51933-110700FM-12+077299999V0203101N001019999999N999999999-00901-01021999999ADDAA106000091AA224000091KA1120M-00781KA2120N-01031REMSYN05871223 16/// /3102 11090 21102 60001 333 11078 21103 70000=
0058712230999992023011500004+51930-110720SAO  +077299999V020310190010199999999999999999-00901-01021999999REMAWY049XCS SA 0000 AUTO8 M M M M/-09/-10/3102/M/ M 02MM=
0058712230999992023011501004+51930-110720SAO  +077299999V020310190021199999999999999999-00891-01011999999REMAWY049XCS SA 0100 AUTO8 M M M M/-09/-10/3104/M/ M 91MM=
0058712230999992023011502004+51930-110720SAO  +077299999V020290190010199999999999999999-00881-01001999999REMAWY049XCS SA 0200 AUTO8 M M M M/-09/-10/2902/M/ M 80MM=
0063712230999992023011503004+51933-110700FM-12+077299999V0203101N001519999999N999999999-00871-00981999999ADDAA103000091REMSYN04071223 26/// /3103 11087 21098 333 60007=
0058712230999992023011503004+51930-110720SAO  +077299999V020310190015199999999999999999-00871-00981999999REMAWY049XCS SA 0300 AUTO8 M M M M/-09/-10/3103/M/ M 78MM=
0058712230999992023011504004+51930-110720SAO  +077299999V020280190010199999999999999999-00851-00971999999REMAWY049XCS SA 0400 AUTO8 M M M M/-09/-10/2802/M/ M 57MM=
0058712230999992023011505004+51930-110720SAO  +077299999V020260190005199999999999999999-00841-00961999999REMAWY049XCS SA 0500 AUTO8 M M M M/-08/-10/2601/M/ M 46MM=
0118712230999992023011506004+51933-110700FM-12+077299999V0202801N000519999999N999999999-00831-00941999999ADDAA106000091AA224000091KA1240M-00761KA2240N-01031REMSYN05871223 16/// /2801 11083 21094 60001 333 11076 21103 70000=
0058712230999992023011506004+51930-110720SAO  +077299999V020280190005199999999999999999-00831-00941999999REMAWY049XCS SA 0600 AUTO8 M M M M/-08/-09/2801/M/ M 34MM=
0058712230999992023011507004+51930-110720SAO  +077299999V020270190015199999999999999999-00811-00921999999REMAWY049XCS SA 0700 AUTO8 M M M M/-08/-09/2703/M/ M 12MM=
0058712230999992023011508004+51930-110720SAO  +077299999V020270190026199999999999999999-00811-00921999999REMAWY049XCS SA 0800 AUTO8 M M M M/-08/-09/2705/M/ M 12MM=
0063712230999992023011509004+51933-110700FM-12+077299999V0203001N002119999999N999999999-00811-00921999999ADDAA103000091REMSYN04071223 26/// /3004 11081 21092 333 60007=
0058712230999992023011509004+51930-110720SAO  +077299999V020300190021199999999999999999-00811-00921999999REMAWY049XCS SA 0900 AUTO8 M M M M/-08/-09/3004/M/ M 12MM=
0058712230999992023011510004+51930-110720SAO  +077299999V020310190005199999999999999999-00781-00881999999REMAWY049XCS SA 1000 AUTO8 M M M M/-08/-09/3101/M/ M 88MM=
0058712230999992023011511004+51930-110720SAO  +077299999V020360190000199999999999999999-00791-00901999999REMAWY049XCS SA 1100 AUTO8 M M M M/-08/-09/0000/M/ M 90MM=
0118712230999992023011512004+51933-110700FM-12+077299999V0209999C000019999999N999999999-00781-00891999999ADDAA106000091AA224000091KA1240M-00761KA2240N-00901REMSYN05871223 16/// /0000 11078 21089 60001 333 11076 21090 70000=
0058712230999992023011512004+51930-110720SAO  +077299999V020360190000199999999999999999-00781-00891999999REMAWY049XCS SA 1200 AUTO8 M M M M/-08/-09/0000/M/ M 89MM=
0058712230999992023011513004+51930-110720SAO  +077299999V020360190000199999999999999999-00761-00871999999REMAWY049XCS SA 1300 AUTO8 M M M M/-08/-09/0000/M/ M 67MM=
0058712230999992023011514004+51930-110720SAO  +077299999V020360190000199999999999999999-00741-00841999999REMAWY049XCS SA 1400 AUTO8 M M M M/-07/-08/0000/M/ M 44MM=
0063712230999992023011515004+51933-110700FM-12+077299999V0202101N002119999999N999999999-00731-00841999999ADDAA103000091REMSYN04071223 26/// /2104 11073 21084 333 60007=
0058712230999992023011515004+51930-110720SAO  +077299999V020210190021199999999999999999-00731-00841999999REMAWY049XCS SA 1500 AUTO8 M M M M/-07/-08/2104/M/ M 34MM=
0058712230999992023011516004+51930-110720SAO  +077299999V020210190015199999999999999999-00741-00841999999REMAWY049XCS SA 1600 AUTO8 M M M M/-07/-08/2103/M/ M 44MM=
0058712230999992023011517004+51930-110720SAO  +077299999V020210190010199999999999999999-00701-00801999999REMAWY049XCS SA 1700 AUTO8 M M M M/-07/-08/2102/M/ M 00MM=
0118712230999992023011518004+51933-110700FM-12+077299999V0202101N001019999999N999999999-00661-00751999999ADDAA106000091AA224000091KA1120M-00661KA2120N-00991REMSYN05871223 16/// /2102 11066 21075 60001 333 11066 21099 70000=
0058712230999992023011518004+51930-110720SAO  +077299999V020210190010199999999999999999-00661-00751999999REMAWY049XCS SA 1800 AUTO8 M M M M/-07/-08/2102/M/ M 65MM=
0058712230999992023011519004+51930-110720SAO  +077299999V020220190015199999999999999999-00711-00811999999REMAWY049XCS SA 1900 AUTO8 M M M M/-07/-08/2203/M/ M 11MM=
0058712230999992023011520004+51930-110720SAO  +077299999V020230190005199999999999999999-00661-00751999999REMAWY049XCS SA 2000 AUTO8 M M M M/-07/-08/2301/M/ M 65MM=
0063712230999992023011521004+51933-110700FM-12+077299999V0209999C000019999999N999999999-00531-00601999999ADDAA103000091REMSYN04071223 26/// /0000 11053 21060 333 60007=
0058712230999992023011521004+51930-110720SAO  +077299999V020360190000199999999999999999-00531-00601999999REMAWY049XCS SA 2100 AUTO8 M M M M/-05/-06/0000/M/ M 30MM=
0058712230999992023011522004+51930-110720SAO  +077299999V020360190000199999999999999999-00631-00721999999REMAWY049XCS SA 2200 AUTO8 M M M M/-06/-07/0000/M/ M 32MM=
0058712230999992023011523004+51930-110720SAO  +077299999V020130190010199999999999999999-00681-00781999999REMAWY049XCS SA 2300 AUTO8 M M M M/-07/-08/1302/M/ M 88MM=
0118712230999992023011600004+51933-110700FM-12+077299999V0201401N001519999999N999999999-00711-00811999999ADDAA106000091AA224000091KA1120M-00521KA2120N-00841REMSYN05871223 16/// /1403 11071 21081 60001 333 11052 21084 70000=
0058712230999992023011600004+51930-110720SAO  +077299999V020140190015199999999999999999-00711-00811999999REMAWY049XCS SA 0000 AUTO8 M M M M/-07/-08/1403/M/ M 11MM=
0095712230999992023011601004+51930-110720SAO  +077299999V020150190031199999999999999999-00741-00751999999ADDAA101000431REMAWY072XCS SA 0100 AUTO8 M M M M/-07/-08/1506/M/0004 PCPN 0.4MM PAST HR M 45MM=
0062712230999992023011602004+51930-110720SAO  +077299999V020130190031199999999999999999-00781-00891999999REMAWY053XCS SA 0200 AUTO8 M M M M/-08/-09/1306/M/0004 M 89MM=
0063712230999992023011603004+51933-110700FM-12+077299999V0201301N004119999999N999999999-00851-00971999999ADDAA103000431REMSYN04071223 26/// /1308 11085 21097 333 69947=
0062712230999992023011603004+51930-110720SAO  +077299999V020130190041199999999999999999-00851-00971999999REMAWY053XCS SA 0300 AUTO8 M M M M/-09/-10/1308/M/0004 M 57MM=
0062712230999992023011604004+51930-110720SAO  +077299999V020130190031199999999999999999-00941-01071999999REMAWY053XCS SA 0400 AUTO8 M M M M/-09/-11/1306/M/0004 M 47MM=
0062712230999992023011605004+51930-110720SAO  +077299999V020160190026199999999999999999-00851-01071999999REMAWY053XCS SA 0500 AUTO8 M M M M/-09/-11/1605/M/0004 M 57MM=
0118712230999992023011606004+51933-110700FM-12+077299999V0201701N002119999999N999999999-00881-01001999999ADDAA106000431AA224000431KA1240M-00521KA2240N-00961REMSYN05871223 16/// /1704 11088 21100 69941 333 11052 21096 70004=
0062712230999992023011606004+51930-110720SAO  +077299999V020170190021199999999999999999-00881-01001999999REMAWY053XCS SA 0600 AUTO8 M M M M/-09/-10/1704/M/0004 M 80MM=
0058712230999992023011607004+51930-110720SAO  +077299999V020160190021199999999999999999-00901-01021999999REMAWY049XCS SA 0700 AUTO8 M M M M/-09/-10/1604/M/ M 02MM=
0058712230999992023011608004+51930-110720SAO  +077299999V020160190021199999999999999999-00911-01031999999REMAWY049XCS SA 0800 AUTO8 M M M M/-09/-10/1604/M/ M 13MM=
0063712230999992023011609004+51933-110700FM-12+077299999V0201701N002119999999N999999999-00921-01041999999ADDAA103000091REMSYN04071223 26/// /1704 11092 21104 333 60007=
0058712230999992023011609004+51930-110720SAO  +077299999V020170190021199999999999999999-00921-01041999999REMAWY049XCS SA 0900 AUTO8 M M M M/-09/-10/1704/M/ M 24MM=
0058712230999992023011610004+51930-110720SAO  +077299999V020130190041199999999999999999-00921-00951999999REMAWY049XCS SA 1000 AUTO8 M M M M/-09/-10/1308/M/ M 25MM=
0058712230999992023011611004+51930-110720SAO  +077299999V020150190031199999999999999999-00931-01061999999REMAWY049XCS SA 1100 AUTO8 M M M M/-09/-11/1506/M/ M 36MM=
0118712230999992023011612004+51933-110700FM-12+077299999V0201501N002119999999N999999999-00921-01041999999ADDAA106000091AA224000431KA1240M-00521KA2240N-00961REMSYN05871223 16/// /1504 11092 21104 60001 333 11052 21096 70004=
0058712230999992023011612004+51930-110720SAO  +077299999V020150190021199999999999999999-00921-01041999999REMAWY049XCS SA 1200 AUTO8 M M M M/-09/-10/1504/M/ M 24MM=
0058712230999992023011613004+51930-110720SAO  +077299999V020140190031199999999999999999-00941-01071999999REMAWY049XCS SA 1300 AUTO8 M M M M/-09/-11/1406/M/ M 47MM=
0058712230999992023011614004+51930-110720SAO  +077299999V020170190015199999999999999999-00951-01081999999REMAWY049XCS SA 1400 AUTO8 M M M M/-10/-11/1703/M/ M 58MM=
0063712230999992023011615004+51933-110700FM-12+077299999V0201501N001019999999N999999999-00921-01041999999ADDAA103000091REMSYN04071223 26/// /1502 11092 21104 333 60007=
0058712230999992023011615004+51930-110720SAO  +077299999V020150190010199999999999999999-00921-01041999999REMAWY049XCS SA 1500 AUTO8 M M M M/-09/-10/1502/M/ M 24MM=
0058712230999992023011616004+51930-110720SAO  +077299999V020140190010199999999999999999-00891-01011999999REMAWY049XCS SA 1600 AUTO8 M M M M/-09/-10/1402/M/ M 91MM=
0058712230999992023011617004+51930-110720SAO  +077299999V020140190015199999999999999999-00841-00951999999REMAWY049XCS SA 1700 AUTO8 M M M M/-08/-10/1403/M/ M 45MM=
0118712230999992023011618004+51933-110700FM-12+077299999V0201401N002619999999N999999999-00841-00951999999ADDAA106000091AA224000431KA1120M-00821KA2120N-00961REMSYN05871223 16/// /1405 11084 21095 60001 333 11082 21096 70004=
0058712230999992023011618004+51930-110720SAO  +077299999V020140190026199999999999999999-00841-00951999999REMAWY049XCS SA 1800 AUTO8 M M M M/-08/-10/1405/M/ M 45MM=
0095712230999992023011619004+51930-110720SAO  +077299999V020140190026199999999999999999-00861-00981999999ADDAA101000531REMAWY072XCS SA 1900 AUTO8 M M M M/-09/-10/1405/M/0005 PCPN 0.5MM PAST HR M 68MM=
0062712230999992023011620004+51930-110720SAO  +077299999V020120190051199999999999999999-00841-00951999999REMAWY053XCS SA 2000 AUTO8 M M M M/-08/-10/1210/M/0005 M 45MM=
0063712230999992023011621004+51933-110700FM-12+077299999V0201301N004119999999N999999999-00791-00891999999ADDAA103000531REMSYN04071223 26/// /1308 11079 21089 333 69957=
0062712230999992023011621004+51930-110720SAO  +077299999V020130190041199999999999999999-00791-00891999999REMAWY053XCS SA 2100 AUTO8 M M M M/-08/-09/1308/M/0005 M 99MM=
0062712230999992023011622004+51930-110720SAO  +077299999V020110190036199999999999999999-00781-00881999999REMAWY053XCS SA 2200 AUTO8 M M M M/-08/-09/1107/M/0005 M 88MM=
0062712230999992023011623004+51930-110720SAO  +077299999V020130190041199999999999999999-00801-00901999999REMAWY053XCS SA 2300 AUTO8 M M M M/-08/-09/1308/M/0005 M 00MM=
0118712230999992023011700004+51933-110700FM-12+077299999V0201101N004619999999N999999999-00821-00931999999ADDAA106000531AA224000931KA1120M-00771KA2120N-00961REMSYN05871223 16/// /1109 11082 21093 69951 333 11077 21096 70009=
0062712230999992023011700004+51930-110720SAO  +077299999V020110190046199999999999999999-00821-00931999999REMAWY053XCS SA 0000 AUTO8 M M M M/-08/-09/1109/M/0005 M 23MM=
0058712230999992023011701004+51930-110720SAO  +077299999V020120190046199999999999999999-00841-00951999999REMAWY049XCS SA 0100 AUTO8 M M M M/-08/-10/1209/M/ M 45MM=
0058712230999992023011702004+51930-110720SAO  +077299999V020130190036199999999999999999-00851-00971999999REMAWY049XCS SA 0200 AUTO8 M M M M/-09/-10/1307/M/ M 57MM=
0063712230999992023011703004+51933-110700FM-12+077299999V0201201N002619999999N999999999-00861-00971999999ADDAA103000091REMSYN04071223 26/// /1205 11086 21097 333 60007=
0058712230999992023011703004+51930-110720SAO  +077299999V020130190026199999999999999999-00861-00971999999REMAWY049XCS SA 0300 AUTO8 M M M M/-09/-10/1305/M/ M 67MM=
0058712230999992023011704004+51930-110720SAO  +077299999V020120190026199999999999999999-00831-00941999999REMAWY049XCS SA 0400 AUTO8 M M M M/-08/-09/1205/M/ M 34MM=
0058712230999992023011705004+51930-110720SAO  +077299999V020120190031199999999999999999-00811-00921999999REMAWY049XCS SA 0500 AUTO8 M M M M/-08/-09/1206/M/ M 12MM=
0118712230999992023011706004+51933-110700FM-12+077299999V0201201N002119999999N999999999-00821-00931999999ADDAA106000091AA224000531KA1240M-00771KA2240N-00961REMSYN05871223 16/// /1204 11082 21093 60001 333 11077 21096 70005=
0058712230999992023011706004+51930-110720SAO  +077299999V020120190021199999999999999999-00821-00931999999REMAWY049XCS SA 0600 AUTO8 M M M M/-08/-09/1204/M/ M 23MM=
0058712230999992023011707004+51930-110720SAO  +077299999V020140190021199999999999999999-00831-00951999999REMAWY049XCS SA 0700 AUTO8 M M M M/-08/-10/1404/M/ M 35MM=
0067712230999992023011708004+51937-111176FM-12+077299999V0201431N0023199999999999999999-00841-00951999999ADDAA199999999KA1120M-00831KA2120N-00841OD139900251153REMSYN004BUFR
0058712230999992023011708004+51930-110720SAO  +077299999V020140190026199999999999999999-00841-00951999999REMAWY049XCS SA 0800 AUTO8 M M M M/-08/-10/1405/M/ M 45MM=
0063712230999992023011709004+51933-110700FM-12+077299999V0201301N002119999999N999999999-00851-00971999999ADDAA103000091REMSYN04071223 26/// /1304 11085 21097 333 60007=
0058712230999992023011709004+51930-110720SAO  +077299999V020130190021199999999999999999-00851-00971999999REMAWY049XCS SA 0900 AUTO8 M M M M/-09/-10/1304/M/ M 57MM=
0095712230999992023011710004+51930-110720SAO  +077299999V020120190021199999999999999999-00861-00981999999ADDAA101000431REMAWY072XCS SA 1000 AUTO8 M M M M/-09/-10/1204/M/0004 PCPN 0.4MM PAST HR M 68MM=
0062712230999992023011711004+51930-110720SAO  +077299999V020130190021199999999999999999-00871-00991999999REMAWY053XCS SA 1100 AUTO8 M M M M/-09/-10/1304/M/0004 M 79MM=
0132712230999992023011712004+51933-110700FM-12+077299999V0201301N002619999999N999999999-00881-00991999999ADDAA106000431AA224000931AZ141021KA1240M-00771KA2240N-00881REMSYN06471223 17/// /1305 11088 21099 69941 7//4/ 333 11077 21088 70009=
0062712230999992023011712004+51930-110720SAO  +077299999V020130190026199999999999999999-00881-00991999999REMAWY053XCS SA 1200 AUTO8 M M M M/-09/-10/1305/M/0004 M 89MM=
0058712230999992023011713004+51930-110720SAO  +077299999V020140190021199999999999999999-00881-01001999999REMAWY049XCS SA 1300 AUTO8 M M M M/-09/-10/1404/M/ M 80MM=
0058712230999992023011714004+51930-110720SAO  +077299999V020140190015199999999999999999-00881-01001999999REMAWY049XCS SA 1400 AUTO8 M M M M/-09/-10/1403/M/ M 80MM=
0063712230999992023011715004+51933-110700FM-12+077299999V0201401N001519999999N999999999-00881-01001999999ADDAA103000091REMSYN04071223 26/// /1403 11088 21100 333 60007=
0058712230999992023011715004+51930-110720SAO  +077299999V020140190015199999999999999999-00881-01001999999REMAWY049XCS SA 1500 AUTO8 M M M M/-09/-10/1403/M/ M 80MM=
0058712230999992023011716004+51930-110720SAO  +077299999V020130190015199999999999999999-00871-00991999999REMAWY049XCS SA 1600 AUTO8 M M M M/-09/-10/1303/M/ M 79MM=
0058712230999992023011717004+51930-110720SAO  +077299999V020140190010199999999999999999-00841-00951999999REMAWY049XCS SA 1700 AUTO8 M M M M/-08/-10/1402/M/ M 45MM=
0118712230999992023011718004+51933-110700FM-12+077299999V0201401N001519999999N999999999-00821-00931999999ADDAA106000091AA224000931KA1120M-00821KA2120N-00891REMSYN05871223 16/// /1403 11082 21093 60001 333 11082 21089 70009=
0058712230999992023011718004+51930-110720SAO  +077299999V020140190015199999999999999999-00821-00931999999REMAWY049XCS SA 1800 AUTO8 M M M M/-08/-09/1403/M/ M 23MM=
0058712230999992023011719004+51930-110720SAO  +077299999V020140190010199999999999999999-00781-00881999999REMAWY049XCS SA 1900 AUTO8 M M M M/-08/-09/1402/M/ M 88MM=
0058712230999992023011720004+51930-110720SAO  +077299999V020140190010199999999999999999-00761-00861999999REMAWY049XCS SA 2000 AUTO8 M M M M/-08/-09/1402/M/ M 66MM=
0063712230999992023011721004+51933-110700FM-12+077299999V0201601N001019999999N999999999-00721-00821999999ADDAA103000091REMSYN04071223 26/// /1602 11072 21082 333 60007=
0058712230999992023011721004+51930-110720SAO  +077299999V020160190010199999999999999999-00721-00821999999REMAWY049XCS SA 2100 AUTO8 M M M M/-07/-08/1602/M/ M 22MM=
0058712230999992023011722004+51930-110720SAO  +077299999V020140190010199999999999999999-00711-00811999999REMAWY049XCS SA 2200 AUTO8 M M M M/-07/-08/1402/M/ M 11MM=
0058712230999992023011723004+51930-110720SAO  +077299999V020160190010199999999999999999-00741-00841999999REMAWY049XCS SA 2300 AUTO8 M M M M/-07/-08/1602/M/ M 44MM=
0118712230999992023011800004+51933-110700FM-12+077299999V0201601N000519999999N999999999-00761-00861999999ADDAA106000091AA224000431KA1120M-00701KA2120N-00891REMSYN05871223 16/// /1601 11076 21086 60001 333 11070 21089 70004=
0058712230999992023011800004+51930-110720SAO  +077299999V020160190005199999999999999999-00761-00861999999REMAWY049XCS SA 0000 AUTO8 M M M M/-08/-09/1601/M/ M 66MM=
0058712230999992023011801004+51930-110720SAO  +077299999V020170190005199999999999999999-00771-00881999999REMAWY049XCS SA 0100 AUTO8 M M M M/-08/-09/1701/M/ M 78MM=
0058712230999992023011802004+51930-110720SAO  +077299999V020180190005199999999999999999-00791-00891999999REMAWY049XCS SA 0200 AUTO8 M M M M/-08/-09/1801/M/ M 99MM=
0063712230999992023011803004+51933-110700FM-12+077299999V0201801N001519999999N999999999-00821-00931999999ADDAA103000091REMSYN04071223 26/// /1803 11082 21093 333 60007=
0058712230999992023011803004+51930-110720SAO  +077299999V020180190015199999999999999999-00821-00931999999REMAWY049XCS SA 0300 AUTO8 M M M M/-08/-09/1803/M/ M 23MM=
0058712230999992023011804004+51930-110720SAO  +077299999V020180190010199999999999999999-00811-00911999999REMAWY049XCS SA 0400 AUTO8 M M M M/-08/-09/1802/M/ M 11MM=
0058712230999992023011805004+51930-110720SAO  +077299999V020190190015199999999999999999-00651-00751999999REMAWY049XCS SA 0500 AUTO8 M M M M/-07/-08/1903/M/ M 55MM=
0118712230999992023011806004+51933-110700FM-12+077299999V0201901N002619999999N999999999-00751-00851999999ADDAA106000091AA224000431KA1240M-00701KA2240N-00891REMSYN05871223 16/// /1905 11075 21085 60001 333 11070 21089 70004=
0058712230999992023011806004+51930-110720SAO  +077299999V020190190026199999999999999999-00651-00751999999REMAWY049XCS SA 0600 AUTO8 M M M M/-07/-08/1905/M/ M 55MM=
0058712230999992023011807004+51930-110720SAO  +077299999V020190190026199999999999999999-00741-00751999999REMAWY049XCS SA 0700 AUTO8 M M M M/-07/-08/1905/M/ M 45MM=
0058712230999992023011808004+51930-110720SAO  +077299999V020190190031199999999999999999-00741-00841999999REMAWY049XCS SA 0800 AUTO8 M M M M/-07/-08/1906/M/ M 44MM=
0063712230999992023011809004+51933-110700FM-12+077299999V0202001N002619999999N999999999-00761-00871999999ADDAA103000091REMSYN04071223 26/// /2005 11076 21087 333 60007=
0058712230999992023011809004+51930-110720SAO  +077299999V020210190026199999999999999999-00761-00871999999REMAWY049XCS SA 0900 AUTO8 M M M M/-08/-09/2105/M/ M 67MM=
0058712230999992023011810004+51930-110720SAO  +077299999V020210190021199999999999999999-00771-00871999999REMAWY049XCS SA 1000 AUTO8 M M M M/-08/-09/2104/M/ M 77MM=
0058712230999992023011811004+51930-110720SAO  +077299999V020190190021199999999999999999-00771-00881999999REMAWY049XCS SA 1100 AUTO8 M M M M/-08/-09/1904/M/ M 78MM=
0118712230999992023011812004+51933-110700FM-12+077299999V0201701N002119999999N999999999-00791-00901999999ADDAA106000091AA224000091KA1240M-00701KA2240N-00821REMSYN05871223 16/// /1704 11079 21090 60001 333 11070 21082 70000=
0058712230999992023011812004+51930-110720SAO  +077299999V020170190021199999999999999999-00791-00901999999REMAWY049XCS SA 1200 AUTO8 M M M M/-08/-09/1704/M/ M 90MM=
0058712230999992023011813004+51930-110720SAO  +077299999V020170190015199999999999999999-00821-00931999999REMAWY049XCS SA 1300 AUTO8 M M M M/-08/-09/1703/M/ M 23MM=
0058712230999992023011814004+51930-110720SAO  +077299999V020160190021199999999999999999-00801-00901999999REMAWY049XCS SA 1400 AUTO8 M M M M/-08/-09/1604/M/ M 00MM=
0062712230999992023011815004+51775-111176FM-12+077299999V0201661N0012199999999999999999-00831-00921999999ADDAA124999999REMSYN004BUFREQDQ01  99993PRCP99Q02  99993PRCP99
0058712230999992023011815004+51930-110720SAO  +077299999V020170190021199999999999999999-00771-00871999999REMAWY049XCS SA 1500 AUTO8 M M M M/-08/-09/1704/M/ M 77MM=
0058712230999992023011816004+51930-110720SAO  +077299999V020170190021199999999999999999-00791-00891999999REMAWY049XCS SA 1600 AUTO8 M M M M/-08/-09/1704/M/ M 99MM=
0058712230999992023011817004+51930-110720SAO  +077299999V020170190021199999999999999999-00771-00871999999REMAWY049XCS SA 1700 AUTO8 M M M M/-08/-09/1704/M/ M 77MM=
0118712230999992023011818004+51933-110700FM-12+077299999V0201701N001519999999N999999999-00741-00851999999ADDAA106000091AA224000091KA1120M-00741KA2120N-00831REMSYN05871223 16/// /1703 11074 21085 60001 333 11074 21083 70000=
0058712230999992023011818004+51930-110720SAO  +077299999V020170190015199999999999999999-00741-00751999999REMAWY049XCS SA 1800 AUTO8 M M M M/-07/-08/1703/M/ M 45MM=
0058712230999992023011819004+51930-110720SAO  +077299999V020170190021199999999999999999-00741-00751999999REMAWY049XCS SA 1900 AUTO8 M M M M/-07/-08/1704/M/ M 45MM=
0058712230999992023011820004+51930-110720SAO  +077299999V020170190015199999999999999999-00711-00811999999REMAWY049XCS SA 2000 AUTO8 M M M M/-07/-08/1703/M/ M 11MM=
0063712230999992023011821004+51933-110700FM-12+077299999V0201601N001519999999N999999999-00711-00811999999ADDAA103000091REMSYN04071223 26/// /1603 11071 21081 333 60007=
0058712230999992023011821004+51930-110720SAO  +077299999V020160190015199999999999999999-00711-00811999999REMAWY049XCS SA 2100 AUTO8 M M M M/-07/-08/1603/M/ M 11MM=
0058712230999992023011822004+51930-110720SAO  +077299999V020150190010199999999999999999-00701-00801999999REMAWY049XCS SA 2200 AUTO8 M M M M/-07/-08/1502/M/ M 00MM=
0058712230999992023011823004+51930-110720SAO  +077299999V020150190015199999999999999999-00721-00831999999REMAWY049XCS SA 2300 AUTO8 M M M M/-07/-08/1503/M/ M 23MM=
0118712230999992023011900004+51933-110700FM-12+077299999V0201301N001519999999N999999999-00741-00841999999ADDAA106000431AA224000431KA1120M-00701KA2120N-00831REMSYN05871223 16/// /1303 11074 21084 69941 333 11070 21083 70004=
0095712230999992023011900004+51930-110720SAO  +077299999V020130190015199999999999999999-00741-00841999999ADDAA101000431REMAWY072XCS SA 0000 AUTO8 M M M M/-07/-08/1303/M/0004 PCPN 0.4MM PAST HR M 44MM=
