0130013590999992020010100004+60533+008200FM-12+077399999V0202501N010019999999N999999999+00261-00201101761ADDAA106000091MA1999999092591MD1610321+9999OD139902101999REMSYN06401359 16/// /2510 10026 21020 39259 40176 56032 60001 333 91121=
0110013590999992020010101004+60533+008200FM-12+077399999V0202401N010019999999N999999999+00221-00221101681ADDAA101000091MA1999999092511MD1610331+9999REMSYN05801359 26/// /2410 10022 21022 39251 40168 56033 333 60005=
0110013590999992020010102004+60533+008200FM-12+077399999V0202501N010019999999N999999999+00191-00281101651ADDAA101000091MA1999999092471MD1610181+9999REMSYN05801359 26/// /2510 10019 21028 39247 40165 56018 333 60005=
0110013590999992020010103004+60533+008200FM-12+077399999V0202601N009019999999N999999999+00181-00291101731ADDAA101000091MA1999999092541MD1510061+9999REMSYN05801359 26/// /2609 10018 21029 39254 40173 55006 333 60005=
0110013590999992020010104004+60533+008200FM-12+077399999V0202801N007019999999N999999999+00191-00311101681ADDAA101000091MA1999999092501MD1810021+9999REMSYN05801359 26/// /2807 10019 21031 39250 40168 58002 333 60005=
0110013590999992020010105004+60533+008200FM-12+077399999V0202901N005019999999N999999999+00261-00481101591ADDAA101000091MA1999999092441MD1810031+9999REMSYN05801359 26/// /2905 10026 21048 39244 40159 58003 333 60005=
0312013590999992020010106004+60533+008200FM-12+077399999V0202801N006012200019N050000199+00231-00451101541ADDAA112000091AA224000091AJ100303100300099AY101021AY201021GA1999+999999001GE19MSL   +99999+99999GF103991001999999999999999IA1249KA1240N+00011MA1999999092391MD1610131+9999MW1021OD139902301999REMSYN09401359 11984 32806 10023 21045 39239 40154 56013 60002 70200 80001 333 20001 44030 70000 91123=EQDQ01    003SCCGA1
0110013590999992020010107004+60533+008200FM-12+077399999V0202701N007019999999N999999999+00161-00341101581ADDAA101000091MA1999999092401MD1610091+9999REMSYN05801359 26/// /2707 10016 21034 39240 40158 56009 333 60005=
0110013590999992020010108004+60533+008200FM-12+077399999V0202701N007019999999N999999999+00271-00461101531ADDAA101000091MA1999999092391MD1510061+9999REMSYN05801359 26/// /2707 10027 21046 39239 40153 55006 333 60005=
0110013590999992020010109004+60533+008200FM-12+077399999V0202401N010019999999N999999999+00381-00681101381ADDAA101000091MA1999999092291MD1810101+9999REMSYN05801359 26/// /2410 10038 21068 39229 40138 58010 333 60005=
0110013590999992020010110004+60533+008200FM-12+077399999V0202401N008019999999N999999999+00281-00531101501ADDAA101000091MA1999999092371MD1510031+9999REMSYN05801359 26/// /2408 10028 21053 39237 40150 55003 333 60005=
0110013590999992020010111004+60533+008200FM-12+077399999V0202301N010019999999N999999999+00411-00591101381ADDAA101000091MA1999999092301MD1810091+9999REMSYN05801359 26/// /2310 10041 21059 39230 40138 58009 333 60005=
0260013590999992020010112004+60533+008200FM-12+077399999V0202401N010019999999N055000199+00331-00591101341ADDAA106000091AY121021AY201021GA1031+008001061GA2999+999999031GA3999+999999001GE19MSL   +99999+99999GF107991031999008001999999MA1999999092241MD1810071+9999MW1021OD139902001999REMSYN07601359 11585 72410 10033 21059 39224 40134 58007 60001 70220 83572 333 91120=
0110013590999992020010113004+60533+008200FM-12+077399999V0202301N011019999999N999999999+00271-00571101221ADDAA101000091MA1999999092111MD1810261+9999REMSYN05801359 26/// /2311 10027 21057 39211 40122 58026 333 60005=
0110013590999992020010114004+60533+008200FM-12+077399999V0202501N011019999999N999999999+00351-00481101181ADDAA101000091MA1999999092101MD1610201+9999REMSYN05801359 26/// /2511 10035 21048 39210 40118 56020 333 60005=
0110013590999992020010115004+60533+008200FM-12+077399999V0202401N010019999999N999999999+00251-00281101231ADDAA101000091MA1999999092121MD1510111+9999REMSYN05801359 26/// /2410 10025 21028 39212 40123 55011 333 60005=
0110013590999992020010116004+60533+008200FM-12+077399999V0202401N005019999999N999999999+00181-00241101291ADDAA101000091MA1999999092141MD1310031+9999REMSYN05801359 26/// /2405 10018 21024 39214 40129 53003 333 60005=
0110013590999992020010117004+60533+008200FM-12+077399999V0202301N009019999999N999999999+00251-00241101231ADDAA101000091MA1999999092121MD1990021+9999REMSYN05801359 26/// /2309 10025 21024 39212 40123 50002 333 60005=
0263013590999992020010118004+60533+008200FM-12+077399999V0202401N008019999999N035000199+00331-00201101181ADDAA112000091AY121021AY221021GA1021+012501061GA2999+999999001GE19MSL   +99999+99999GF107991021999012501999999KA1120M+00451MA1999999092101MD1810021+9999MW1021OD139902201999REMSYN08201359 11681 72408 10033 21020 39210 40118 58002 60002 70222 82502 333 10045 91122=
0110013590999992020010119004+60533+008200FM-12+077399999V0202301N010019999999N999999999+00291-00121101111ADDAA101000091MA1999999092021MD1810131+9999REMSYN05801359 26/// /2310 10029 21012 39202 40111 58013 333 60005=
0110013590999992020010120004+60533+008200FM-12+077399999V0202301N010019999999N999999999+00321-00081101011ADDAA101000091MA1999999091941MD1810171+9999REMSYN05801359 26/// /2310 10032 21008 39194 40101 58017 333 60005=
0110013590999992020010121004+60533+008200FM-12+077399999V0202401N010019999999N999999999+00331-00071100901ADDAA101000091MA1999999091841MD1810261+9999REMSYN05801359 26/// /2410 10033 21007 39184 40090 58026 333 60005=
0110013590999992020010122004+60533+008200FM-12+077399999V0202501N010019999999N999999999+00341-00091100801ADDAA101000091MA1999999091751MD1810271+9999REMSYN05801359 26/// /2510 10034 21009 39175 40080 58027 333 60005=
0110013590999992020010123004+60533+008200FM-12+077399999V0202401N010019999999N999999999+00391-00191100741ADDAA101000091MA1999999091711MD1610241+9999REMSYN05801359 26/// /2410 10039 21019 39171 40074 56024 333 60005=
0130013590999992020010200004+60533+008200FM-12+077399999V0202401N008019999999N999999999+00401-00241100731ADDAA106000091MA1999999091711MD1610121+9999OD139901901999REMSYN06401359 16/// /2408 10040 21024 39171 40073 56012 60001 333 91119=
0110013590999992020010201004+60533+008200FM-12+077399999V0202201N008019999999N999999999+00291-00181100851ADDAA101000091MA1999999091781MD1310021+9999REMSYN05801359 26/// /2208 10029 21018 39178 40085 53002 333 60005=
0110013590999992020010202004+60533+008200FM-12+077399999V0202201N009019999999N999999999+00241-00131100831ADDAA101000091MA1999999091741MD1990031+9999REMSYN05801359 26/// /2209 10024 21013 39174 40083 50003 333 60005=
0110013590999992020010203004+60533+008200FM-12+077399999V0202201N009019999999N999999999+00221-00121100841ADDAA101000091MA1999999091741MD1990021+9999REMSYN05801359 26/// /2209 10022 21012 39174 40084 50002 333 60005=
0110013590999992020010204004+60533+008200FM-12+077399999V0202301N006019999999N999999999+00191-00111100841ADDAA101000091MA1999999091741MD1510031+9999REMSYN05801359 26/// /2306 10019 21011 39174 40084 55003 333 60005=
0110013590999992020010205004+60533+008200FM-12+077399999V0202301N003019999999N999999999+00161-00171100811ADDAA101000091MA1999999091701MD1510041+9999REMSYN05801359 26/// /2303 10016 21017 39170 40081 55004 333 60005=
0293013590999992020010206004+60533+008200FM-12+077399999V0202301N004012200019N065000199+00161-00191100811ADDAA112000091AA224000091AJ100303100300099AY121021AY201021GA1031+012501061GE19MSL   +99999+99999GF103991031999012501999999IA1249KA1240N+00131MA1999999091701MD1510041+9999MW1021OD139901701999REMSYN09401359 11687 32304 10016 21019 39170 40081 55004 60002 70220 83500 333 20013 44030 70000 91117=
0110013590999992020010207004+60533+008200FM-12+077399999V0202401N002019999999N999999999+00161-00201100771ADDAA101000091MA1999999091671MD1610081+9999REMSYN05801359 26/// /2402 10016 21020 39167 40077 56008 333 60005=
0110013590999992020010208004+60533+008200FM-12+077399999V0202401N005019999999N999999999+00281-00091100661ADDAA101000091MA1999999091601MD1810101+9999REMSYN05801359 26/// /2405 10028 21009 39160 40066 58010 333 60005=
0110013590999992020010209004+60533+008200FM-12+077399999V0202301N005019999999N999999999+00321-00051100571ADDAA101000091MA1999999091541MD1810151+9999REMSYN05801359 26/// /2305 10032 21005 39154 40057 58015 333 60005=
0110013590999992020010210004+60533+008200FM-12+077399999V0202201N007019999999N999999999+00331-00051100501ADDAA101000091MA1999999091471MD1810201+9999REMSYN05801359 26/// /2207 10033 21005 39147 40050 58020 333 60005=
0110013590999992020010211004+60533+008200FM-12+077399999V0202201N009019999999N999999999+00291-00131100381ADDAA101000091MA1999999091361MD1810241+9999REMSYN05801359 26/// /2209 10029 21013 39136 40038 58024 333 60005=
0244013590999992020010212004+60533+008200FM-12+077399999V0202201N011019999999N045000199+00331-00141100231ADDAA106000091AY181021AY201021GA1031+008001061GA2999+999999021GE19MSL   +99999+99999GF108991031999008001999999MA1999999091231MD1810311+9999MW1021OD139901901999REMSYN07601359 11583 82211 10033 21014 39123 40023 58031 60001 70280 83507 333 91119=
0110013590999992020010213004+60533+008200FM-12+077399999V0202201N005019999999N999999999+00291-00131100231ADDAA101000091MA1999999091211MD1610261+9999REMSYN05801359 26/// /2205 10029 21013 39121 40023 56026 333 60005=
0110013590999992020010214004+60533+008200FM-12+077399999V0202401N006019999999N999999999+00251-00161100131ADDAA101000091MA1999999091111MD1610241+9999REMSYN05801359 26/// /2406 10025 21016 39111 40013 56024 333 60005=
0110013590999992020010215004+60533+008200FM-12+077399999V0202201N006019999999N999999999+00271-00141100061ADDAA101000091MA1999999091061MD1510181+9999REMSYN05801359 26/// /2206 10027 21014 39106 40006 55018 333 60005=
0110013590999992020010216004+60533+008200FM-12+077399999V0202501N004019999999N999999999+00271-00131099951ADDAA101000091MA1999999090951MD1610251+9999REMSYN05801359 26/// /2504 10027 21013 39095 49995 56025 333 60005=
0110013590999992020010217004+60533+008200FM-12+077399999V0202401N005019999999N999999999+00291-00151099781ADDAA101000091MA1999999090801MD1810301+9999REMSYN05801359 26/// /2405 10029 21015 39080 49978 58030 333 60005=
0263013590999992020010218004+60533+008200FM-12+077399999V0202601N006019999999N035000199+00331-00071099581ADDAA112000091AY121021AY221021GA1061+008001061GA2999+999999021GE19MSL   +99999+99999GF108991061999008001999999KA1120M+00361MA1999999090641MD1810431+9999MW1021OD139901801999REMSYN08201359 11581 82606 10033 21007 39064 49958 58043 60002 70222 86507 333 10036 91118=
0110013590999992020010219004+60533+008200FM-12+077399999V0202301N009019999999N999999999+00301-00041099381ADDAA101000091MA1999999090451MD1810501+9999REMSYN05801359 26/// /2309 10030 21004 39045 49938 58050 333 60005=
0110013590999992020010220004+60533+008200FM-12+077399999V0202301N010019999999N999999999+00291+00011099381ADDAA101000091MA1999999090441MD1510361+9999REMSYN05801359 26/// /2310 10029 20001 39044 49938 55036 333 60005=
0110013590999992020010221004+60533+008200FM-12+077399999V0202301N006019999999N999999999+00231+00061099401ADDAA101000631MA1999999090441MD1510191+9999REMSYN05801359 26/// /2306 10023 20006 39044 49940 55019 333 69965=
0110013590999992020010222004+60533+008200FM-12+077399999V0202301N006019999999N999999999+00181+00041099401ADDAA101001031MA1999999090421MD1810031+9999REMSYN05801359 26/// /2306 10018 20004 39042 49940 58003 333 60015=
0110013590999992020010223004+60533+008200FM-12+077399999V0202401N005019999999N999999999+00191+00011099301ADDAA101000731MA1999999090341MD1810101+9999REMSYN05801359 26/// /2405 10019 20001 39034 49930 58010 333 69975=
0130013590999992020010300004+60533+008200FM-12+077399999V0202401N005019999999N999999999+00241-00021099131ADDAA106003031MA1999999090201MD1810241+9999OD139902001999REMSYN06401359 16/// /2405 10024 21002 39020 49913 58024 60031 333 91120=
0110013590999992020010301004+60533+008200FM-12+077399999V0202401N006019999999N999999999+00291-00051098921ADDAA101000091MA1999999090031MD1810401+9999REMSYN05801359 26/// /2406 10029 21005 39003 49892 58040 333 60005=
0110013590999992020010302004+60533+008200FM-12+077399999V0202301N007019999999N999999999+00321+00041098741ADDAA101000091MA1999999089871MD1810461+9999REMSYN05801359 26/// /2307 10032 20004 38987 49874 58046 333 60005=
0110013590999992020010303004+60533+008200FM-12+077399999V0202301N007019999999N999999999+00251+00071098841ADDAA101001031MA1999999089931MD1510291+9999REMSYN05801359 26/// /2307 10025 20007 38993 49884 55029 333 60015=
0110013590999992020010304004+60533+008200FM-12+077399999V0202401N005019999999N999999999+00051-00111099001ADDAA101000431MA1999999090021MD1510011+9999REMSYN05801359 26/// /2405 10005 21011 39002 49900 55001 333 69945=
0110013590999992020010305004+60533+008200FM-12+077399999V0202401N007019999999N999999999-00091-00321099081ADDAA101000091MA1999999090041MD1310171+9999REMSYN05801359 26/// /2407 11009 21032 39004 49908 53017 333 60005=
0293013590999992020010306004+60533+008200FM-12+077399999V0202401N007012200019N003200199-00131-00301099261ADDAA112004031AA224004031AJ100303100300099AY181021AY271021GA1021+008001091GE19MSL   +99999+99999GF102991021999008001999999IA1249KA1240N-00131MA1999999090191MD1310251+9999MW1851OD139901701999REMSYN09401359 11532 22407 11013 21030 39019 49926 53025 60042 78587 82300 333 21013 44030 70040 91117=
0110013590999992020010307004+60533+008200FM-12+077399999V0202401N007019999999N999999999-00291-00371099411ADDAA101000231MA1999999090271MD1310261+9999REMSYN05801359 26/// /2407 11029 21037 39027 49941 53026 333 69925=
0110013590999992020010308004+60533+008200FM-12+077399999V0202401N008019999999N999999999-00241-00471099401ADDAA101000231MA1999999090291MD1110251+9999REMSYN05801359 26/// /2408 11024 21047 39029 49940 51025 333 69925=
0110013590999992020010309004+60533+008200FM-12+077399999V0202501N008019999999N999999999-00331-00641099641ADDAA101000431MA1999999090481MD1310291+9999REMSYN05801359 26/// /2508 11033 21064 39048 49964 53029 333 69945=
0110013590999992020010310004+60533+008200FM-12+077399999V0202601N008019999999N999999999-00491-00631099821ADDAA101001031MA1999999090581MD1310321+9999REMSYN05801359 26/// /2608 11049 21063 39058 49982 53032 333 60015=
0110013590999992020010311004+60533+008200FM-12+077399999V0202501N007019999999N999999999-00411-00771099791ADDAA101000131MA1999999090581MD1990291+9999REMSYN05801359 26/// /2507 11041 21077 39058 49979 50029 333 69915=
0228013590999992020010312004+60533+008200FM-12+077399999V0202301N005019999999N006000199-00351-00691099671ADDAA106002031AY171021AY231021GA1051+004501091GE19MSL   +99999+99999GF105991051999004501999999MA1999999090491MD1990031+9999MW1851OD139901801999REMSYN07601359 11456 52305 11035 21069 39049 49967 50003 60021 78573 85300 333 91118=
0110013590999992020010313004+60533+008200FM-12+077399999V0202301N005019999999N999999999-00371-00521099581ADDAA101000131MA1999999090411MD1810181+9999REMSYN05801359 26/// /2305 11037 21052 39041 49958 58018 333 69915=
0110013590999992020010314004+60533+008200FM-12+077399999V0202301N004019999999N999999999-00331-00421099431ADDAA101000531MA1999999090291MD1810301+9999REMSYN05801359 26/// /2304 11033 21042 39029 49943 58030 333 69955=
0110013590999992020010315004+60533+008200FM-12+077399999V0202501N009019999999N999999999-00291-00481099461ADDAA101000831MA1999999090331MD1510171+9999REMSYN05801359 26/// /2509 11029 21048 39033 49946 55017 333 69985=
0110013590999992020010316004+60533+008200FM-12+077399999V0202701N006019999999N999999999-00421-00511099531ADDAA101000831MA1999999090351MD1510051+9999REMSYN05801359 26/// /2706 11042 21051 39035 49953 55005 333 69985=
0110013590999992020010317004+60533+008200FM-12+077399999V0202501N008019999999N999999999-00381-00541099531ADDAA101000531MA1999999090361MD1990061+9999REMSYN05801359 26/// /2508 11038 21054 39036 49953 50006 333 69955=
0203013590999992020010318004+60533+008200FM-12+077399999V0202501N00701000001WN000000199-00401-00601099511ADDAA112005031AY181021AY271021GF109991999999999999999999KA1120M-00171MA1999999090341MD1990001+9999MW1391OD139902001999REMSYN07601359 11/00 92507 11040 21060 39034 49951 50000 60052 73987 333 11017 91120=
0110013590999992020010319004+60533+008200FM-12+077399999V0202601N009019999999N999999999-00421-00731099541ADDAA101000431MA1999999090361MD1310011+9999REMSYN05801359 26/// /2609 11042 21073 39036 49954 53001 333 69945=
0110013590999992020010320004+60533+008200FM-12+077399999V0202501N007019999999N999999999-00441-00731099511ADDAA101000131MA1999999090321MD1810021+9999REMSYN05801359 26/// /2507 11044 21073 39032 49951 58002 333 69915=
0110013590999992020010321004+60533+008200FM-12+077399999V0202501N009019999999N999999999-00541-00781099581ADDAA101000131MA1999999090351MD1990011+9999REMSYN05801359 26/// /2509 11054 21078 39035 49958 50001 333 69915=
0110013590999992020010322004+60533+008200FM-12+077399999V0202501N005019999999N999999999-00601-00851099891ADDAA101000091MA1999999090611MD1310251+9999REMSYN05801359 26/// /2505 11060 21085 39061 49989 53025 333 60005=
0110013590999992020010323004+60533+008200FM-12+077399999V0202401N007019999999N999999999-00571-00821099841ADDAA101000091MA1999999090581MD1990261+9999REMSYN05801359 26/// /2407 11057 21082 39058 49984 50026 333 60005=
0130013590999992020010400004+60533+008200FM-12+077399999V0202401N008019999999N999999999-00531-00791099791ADDAA106000631MA1999999090551MD1990181+9999OD139901901999REMSYN06401359 16/// /2408 11053 21079 39055 49979 50018 69961 333 91119=
0110013590999992020010401004+60533+008200FM-12+077399999V0202401N009019999999N999999999-00521-00761099841ADDAA101000091MA1999999090591MD1510041+9999REMSYN05801359 26/// /2409 11052 21076 39059 49984 55004 333 60005=
0110013590999992020010402004+60533+008200FM-12+077399999V0202501N008019999999N999999999-00461-00771099901ADDAA101000091MA1999999090671MD1310091+9999REMSYN05801359 26/// /2508 11046 21077 39067 49990 53009 333 60005=
0110013590999992020010403004+60533+008200FM-12+077399999V0202401N008019999999N999999999-00401-00691099891ADDAA101000091MA1999999090681MD1990141+9999REMSYN05801359 26/// /2408 11040 21069 39068 49989 50014 333 60005=
0110013590999992020010404004+60533+008200FM-12+077399999V0202501N006019999999N999999999-00321-00741099891ADDAA101000091MA1999999090701MD1110121+9999REMSYN05801359 26/// /2506 11032 21074 39070 49989 51012 333 60005=
0110013590999992020010405004+60533+008200FM-12+077399999V0202601N005019999999N999999999-00251-00741100081ADDAA101000091MA1999999090901MD1310231+9999REMSYN05801359 26/// /2605 11025 21074 39090 40008 53023 333 60005=
0293013590999992020010406004+60533+008200FM-12+077399999V0203001N004012200019N002900199-00271-00921100211ADDAA112000631AA224005631AJ100333100330099AY181021AY271021GA1031+004501091GE19MSL   +99999+99999GF103991031999004501999999IA1289KA1240N-00641MA1999999091011MD1310331+9999MW1851OD139901701999REMSYN09401359 11429 33004 11027 21092 39101 40021 53033 69962 78587 83300 333 21064 48033 70056 91117=
0110013590999992020010407004+60533+008200FM-12+077399999V0202901N004019999999N999999999-00351-00891100371ADDAA101000091MA1999999091131MD1110421+9999REMSYN05801359 26/// /2904 11035 21089 39113 40037 51042 333 60005=
0110013590999992020010408004+60533+008200FM-12+077399999V0202701N003019999999N999999999-00311-00991100551ADDAA101000091MA1999999091311MD1310411+9999REMSYN05801359 26/// /2703 11031 21099 39131 40055 53041 333 60005=
0110013590999992020010409004+60533+008200FM-12+077399999V0202801N004019999999N999999999-00311-00871100771ADDAA101000091MA1999999091511MD1310491+9999REMSYN05801359 26/// /2804 11031 21087 39151 40077 53049 333 60005=
0110013590999992020010410004+60533+008200FM-12+077399999V0202901N005019999999N999999999-00341-00891100981ADDAA101000091MA1999999091681MD1110561+9999REMSYN05801359 26/// /2905 11034 21089 39168 40098 51056 333 60005=
0110013590999992020010411004+60533+008200FM-12+077399999V0202701N004019999999N999999999-00341-00911101081ADDAA101000091MA1999999091781MD1110471+9999REMSYN05801359 26/// /2704 11034 21091 39178 40108 51047 333 60005=
0228013590999992020010412004+60533+008200FM-12+077399999V0202801N005012200019N028000199-00361-00901101261ADDAA106000091AY181021AY231021GA1011+008001061GE19MSL   +99999+99999GF101991011999008001999999MA1999999091941MD1110421+9999MW1361OD139901301999REMSYN07601359 11578 12805 11036 21090 39194 40126 51042 60001 73683 81500 333 91113=
0110013590999992020010413004+60533+008200FM-12+077399999V0202901N006019999999N999999999-00321-00971101401ADDAA101000131MA1999999092071MD1310381+9999REMSYN05801359 26/// /2906 11032 21097 39207 40140 53038 333 69915=
0110013590999992020010414004+60533+008200FM-12+077399999V0202801N006019999999N999999999-00351-00951101581ADDAA101000091MA1999999092231MD1310441+9999REMSYN05801359 26/// /2806 11035 21095 39223 40158 53044 333 60005=
0110013590999992020010415004+60533+008200FM-12+077399999V0202901N006019999999N999999999-00321-00951101701ADDAA101000091MA1999999092351MD1110421+9999REMSYN05801359 26/// /2906 11032 21095 39235 40170 51042 333 60005=
0110013590999992020010416004+60533+008200FM-12+077399999V0202801N006019999999N999999999-00311-00931101851ADDAA101000091MA1999999092481MD1110411+9999REMSYN05801359 26/// /2806 11031 21093 39248 40185 51041 333 60005=
0110013590999992020010417004+60533+008200FM-12+077399999V0202701N004019999999N999999999-00331-00931101931ADDAA101000091MA1999999092561MD1110331+9999REMSYN05801359 26/// /2704 11033 21093 39256 40193 51033 333 60005=
0247013590999992020010418004+60533+008200FM-12+077399999V0202601N003012200019N060000199-00441-00911102161ADDAA112000131AY131021AY201021GA1021+012501061GE19MSL   +99999+99999GF102991021999012501999999KA1120M-00271MA1999999092721MD1310371+9999MW1021OD139901601999REMSYN08201359 11686 22603 11044 21091 39272 40216 53037 69912 70230 82500 333 11027 91116=
0110013590999992020010419004+60533+008200FM-12+077399999V0202801N003019999999N999999999-00441-00931102241ADDAA101000091MA1999999092791MD1310311+9999REMSYN05801359 26/// /2803 11044 21093 39279 40224 53031 333 60005=
0110013590999992020010420004+60533+008200FM-12+077399999V0201801N004019999999N999999999-00501-01021102331ADDAA101000091MA1999999092861MD1110311+9999REMSYN05801359 26/// /1804 11050 21102 39286 40233 51031 333 60005=
0110013590999992020010421004+60533+008200FM-12+077399999V0203001N001019999999N999999999-00541-01031102331ADDAA101000091MA1999999092841MD1990111+9999REMSYN05801359 26/// /3001 11054 21103 39284 40233 50011 333 60005=
0110013590999992020010422004+60533+008200FM-12+077399999V0202301N004019999999N999999999-00401-00991102321ADDAA101000091MA1999999092881MD1310091+9999REMSYN05801359 26/// /2304 11040 21099 39288 40232 53009 333 60005=
0110013590999992020010423004+60533+008200FM-12+077399999V0202501N002019999999N999999999-00431-01001102361ADDAA101000091MA1999999092921MD1310051+9999REMSYN05801359 26/// /2502 11043 21100 39292 40236 53005 333 60005=
0130013590999992020010500004+60533+008200FM-12+077399999V0203301N002019999999N999999999-00501-01031102471ADDAA106000091MA1999999092981MD1310131+9999OD139901101999REMSYN06401359 16/// /3302 11050 21103 39298 40247 53013 60001 333 91111=
0110013590999992020010501004+60533+008200FM-12+077399999V0200201N002019999999N999999999-00581-00991102451ADDAA101000091MA1999999092941MD1990061+9999REMSYN05801359 26/// /0202 11058 21099 39294 40245 50006 333 60005=
0110013590999992020010502004+60533+008200FM-12+077399999V0202501N001019999999N999999999-00531-00911102401ADDAA101000091MA1999999092911MD1990011+9999REMSYN05801359 26/// /2501 11053 21091 39291 40240 50001 333 60005=
0110013590999992020010503004+60533+008200FM-12+077399999V0202301N002019999999N999999999-00371-00821102311ADDAA101000091MA1999999092881MD1810091+9999REMSYN05801359 26/// /2302 11037 21082 39288 40231 58009 333 60005=
0110013590999992020010504004+60533+008200FM-12+077399999V0202401N003019999999N999999999-00381-00641102291ADDAA101000091MA1999999092871MD1810081+9999REMSYN05801359 26/// /2403 11038 21064 39287 40229 58008 333 60005=
0110013590999992020010505004+60533+008200FM-12+077399999V0202501N003019999999N999999999-00411-00661102221ADDAA101000131MA1999999092791MD1810121+9999REMSYN05801359 26/// /2503 11041 21066 39279 40222 58012 333 69915=
0293013590999992020010506004+60533+008200FM-12+077399999V0202501N003019999999N012000199-00411-00661102121ADDAA112000331AA224000431AJ100333100330099AY171021AY201021GA1081+004501051GE19MSL   +99999+99999GF108991081999004501999999IA1289KA1240N-00641MA1999999092701MD1810191+9999MW1711OD139900701999REMSYN09401359 11462 82503 11041 21066 39270 40212 58019 69932 77170 8802/ 333 21064 48033 70004 91107=
0110013590999992020010507004+60533+008200FM-12+077399999V0202401N001019999999N999999999-00431-00601102061ADDAA101000231MA1999999092641MD1710231+9999REMSYN05801359 26/// /2401 11043 21060 39264 40206 57023 333 69925=
0110013590999992020010508004+60533+008200FM-12+077399999V0202301N001019999999N999999999-00401-00551101941ADDAA101000231MA1999999092541MD1810251+9999REMSYN05801359 26/// /2301 11040 21055 39254 40194 58025 333 69925=
0110013590999992020010509004+60533+008200FM-12+077399999V0200501N002019999999N999999999-00301-00411101731ADDAA101000231MA1999999092391MD1810301+9999REMSYN05801359 26/// /0502 11030 21041 39239 40173 58030 333 69925=
0110013590999992020010510004+60533+008200FM-12+077399999V0200601N003019999999N999999999-00061-00231101451ADDAA101000131MA1999999092211MD1810421+9999REMSYN05801359 26/// /0603 11006 21023 39221 40145 58042 333 69915=
0110013590999992020010511004+60533+008200FM-12+077399999V0200301N003019999999N999999999+00221-00111101281ADDAA101000131MA1999999092141MD1510391+9999REMSYN05801359 26/// /0303 10022 21011 39214 40128 55039 333 69915=
0260013590999992020010512004+60533+008200FM-12+077399999V0202601N003019999999N016000199+00301-00031101091ADDAA106000831AY181021AY271021GA1061+008001061GA2999+999999031GA3999+999999021GE19MSL   +99999+99999GF107991061999008001999999MA1999999092001MD1610371+9999MW1261OD139901001999REMSYN07601359 11566 72603 10030 21003 39200 40109 56037 69981 72687 86576 333 91110=
0110013590999992020010513004+60533+008200FM-12+077399999V0202301N010019999999N999999999+00301+00061101001ADDAA101000331MA1999999091921MD1510281+9999REMSYN05801359 26/// /2310 10030 20006 39192 40100 55028 333 69935=
0110013590999992020010514004+60533+008200FM-12+077399999V0202301N009019999999N999999999+00331+00051101011ADDAA101000631MA1999999091931MD1510211+9999REMSYN05801359 26/// /2309 10033 20005 39193 40101 55021 333 69965=
0110013590999992020010515004+60533+008200FM-12+077399999V0202301N008019999999N999999999+00331+00021101011ADDAA101000231MA1999999091941MD1510061+9999REMSYN05801359 26/// /2308 10033 20002 39194 40101 55006 333 69925=
0110013590999992020010516004+60533+008200FM-12+077399999V0202401N005019999999N999999999+00351+00021101081ADDAA101000091MA1999999092001MD1310081+9999REMSYN05801359 26/// /2405 10035 20002 39200 40108 53008 333 60005=
0110013590999992020010517004+60533+008200FM-12+077399999V0202501N003019999999N999999999+00341-00051101141ADDAA101000091MA1999999092061MD1310121+9999REMSYN05801359 26/// /2503 10034 21005 39206 40114 53012 333 60005=
0247013590999992020010518004+60533+008200FM-12+077399999V0202501N006012200019N045000199+00431-00071101161ADDAA112002031AY181021AY231021GA1031+008001061GE19MSL   +99999+99999GF103991031999008001999999KA1120M+00441MA1999999092101MD1110161+9999MW1021OD139901701999REMSYN08201359 11583 32506 10043 21007 39210 40116 51016 60022 70283 83500 333 10044 91117=
0110013590999992020010519004+60533+008200FM-12+077399999V0202501N006019999999N999999999+00441-00011101191ADDAA101000091MA1999999092141MD1210131+9999REMSYN05801359 26/// /2506 10044 21001 39214 40119 52013 333 60005=
0110013590999992020010520004+60533+008200FM-12+077399999V0202501N005019999999N999999999+00461-00031101171ADDAA101000091MA1999999092121MD1110061+9999REMSYN05801359 26/// /2505 10046 21003 39212 40117 51006 333 60005=
0110013590999992020010521004+60533+008200FM-12+077399999V0202601N006019999999N999999999+00501-00031101111ADDAA101000091MA1999999092091MD1810021+9999REMSYN05801359 26/// /2606 10050 21003 39209 40111 58002 333 60005=
0110013590999992020010522004+60533+008200FM-12+077399999V0202501N007019999999N999999999+00531-00011101131ADDAA101000091MA1999999092111MD1510031+9999REMSYN05801359 26/// /2507 10053 21001 39211 40113 55003 333 60005=
0110013590999992020010523004+60533+008200FM-12+077399999V0202101N005019999999N999999999+00491+00051101201ADDAA101000091MA1999999092171MD1310041+9999REMSYN05801359 26/// /2105 10049 20005 39217 40120 53004 333 60005=
0130013590999992020010600004+60533+008200FM-12+077399999V0202901N005019999999N999999999+00551+00101101191ADDAA106000091MA1999999092171MD1990081+9999OD139901401999REMSYN06401359 16/// /2905 10055 20010 39217 40119 50008 60001 333 91114=
0110013590999992020010601004+60533+008200FM-12+077399999V0202501N004019999999N999999999+00411+00131101241ADDAA101000091MA1999999092171MD1990061+9999REMSYN05801359 26/// /2504 10041 20013 39217 40124 50006 333 60005=
0110013590999992020010602004+60533+008200FM-12+077399999V0202601N002019999999N999999999+00341+00141101311ADDAA101000091MA1999999092211MD1110041+9999REMSYN05801359 26/// /2602 10034 20014 39221 40131 51004 333 60005=
0110013590999992020010603004+60533+008200FM-12+077399999V0202301N003019999999N999999999+00421+00121101261ADDAA101000091MA1999999092191MD1990031+9999REMSYN05801359 26/// /2303 10042 20012 39219 40126 50003 333 60005=
0110013590999992020010604004+60533+008200FM-12+077399999V0200601N002019999999N999999999+00321+00111101291ADDAA101000091MA1999999092191MD1990021+9999REMSYN05801359 26/// /0602 10032 20011 39219 40129 50002 333 60005=
0110013590999992020010605004+60533+008200FM-12+077399999V0200101N002019999999N999999999+00291+00111101281ADDAA101000091MA1999999092171MD1710041+9999REMSYN05801359 26/// /0102 10029 20011 39217 40128 57004 333 60005=
0287013590999992020010606004+60533+008200FM-12+077399999V0202301N001019999999N020000199+00271+00111101261ADDAA112000091AA224001931AJ100303100300099AY171021AY201021GA1081+002501071GE19MSL   +99999+99999GF108991081999002501999999IA1249KA1240N+00271MA1999999092141MD1810051+9999OD139901001999REMSYN09401359 11370 82301 10027 20011 39214 40126 58005 60002 77870 886// 333 20027 44030 70019 91110=
0110013590999992020010607004+60533+008200FM-12+077399999V0202701N001019999999N999999999+00391+00201101251ADDAA101000091MA1999999092171MD1510011+9999REMSYN05801359 26/// /2701 10039 20020 39217 40125 55001 333 60005=
0110013590999992020010608004+60533+008200FM-12+077399999V0202201N002019999999N999999999+00431+00121101181ADDAA101000091MA1999999092121MD1810051+9999REMSYN05801359 26/// /2202 10043 20012 39212 40118 58005 333 60005=
0110013590999992020010609004+60533+008200FM-12+077399999V0202301N005019999999N999999999+00431+00161101151ADDAA101000091MA1999999092101MD1810041+9999REMSYN05801359 26/// /2305 10043 20016 39210 40115 58004 333 60005=
0110013590999992020010610004+60533+008200FM-12+077399999V0202401N002019999999N999999999+00501+00191101101ADDAA101000091MA1999999092081MD1610091+9999REMSYN05801359 26/// /2402 10050 20019 39208 40110 56009 333 60005=
0110013590999992020010611004+60533+008200FM-12+077399999V0202201N002019999999N999999999+00541+00101101011ADDAA101000091MA1999999092001MD1810111+9999REMSYN05801359 26/// /2202 10054 20010 39200 40101 58011 333 60005=
0247013590999992020010612004+60533+008200FM-12+077399999V0202201N005012200019N060000199+00531+00121100841ADDAA106999999AY181021AY271021GA1041+004501091GE19MSL   +99999+99999GF104991041999004501999999MA1999999091851MD1810241+9999MW1801OD139901001999REMSYN07601359 11486 42205 10053 20012 39185 40084 58024 60001 78087 84300 333 91110=EQDQ01  00002PRCP06
0110013590999992020010613004+60533+008200FM-12+077399999V0201801N005019999999N999999999+00511+00111100801ADDAA101000091MA1999999091811MD1610271+9999REMSYN05801359 26/// /1805 10051 20011 39181 40080 56027 333 60005=
0110013590999992020010614004+60533+008200FM-12+077399999V0203601N002019999999N999999999+00641+00081100701ADDAA101000091MA1999999091761MD1610241+9999REMSYN05801359 26/// /3602 10064 20008 39176 40070 56024 333 60005=
0110013590999992020010615004+60533+008200FM-12+077399999V0201901N002019999999N999999999+00501+00031100681ADDAA101000091MA1999999091701MD1810161+9999REMSYN05801359 26/// /1902 10050 20003 39170 40068 58016 333 60005=
0110013590999992020010616004+60533+008200FM-12+077399999V0201801N004019999999N999999999+00501+00081100611ADDAA101000091MA1999999091631MD1810171+9999REMSYN05801359 26/// /1804 10050 20008 39163 40061 58017 333 60005=
0110013590999992020010617004+60533+008200FM-12+077399999V0202101N008019999999N999999999+00471+00041100501ADDAA101000091MA1999999091521MD1810231+9999REMSYN05801359 26/// /2108 10047 20004 39152 40050 58023 333 60005=
0247013590999992020010618004+60533+008200FM-12+077399999V0202101N006019999999N060000199+00401-00061100471ADDAA112000091AY181021AY211021GA1051+008001061GE19MSL   +99999+99999GF105991051999008001999999KA1120M+00651MA1999999091471MD1710221+9999MW1021OD139901301999REMSYN08201359 11586 52106 10040 21006 39147 40047 57022 60002 70281 85500 333 10065 91113=
0110013590999992020010619004+60533+008200FM-12+077399999V0201901N004019999999N999999999+00341-00101100461ADDAA101000091MA1999999091441MD1610201+9999REMSYN05801359 26/// /1904 10034 21010 39144 40046 56020 333 60005=
0110013590999992020010620004+60533+008200FM-12+077399999V0202201N007019999999N999999999+00271-00131100411ADDAA101000091MA1999999091381MD1810141+9999REMSYN05801359 26/// /2207 10027 21013 39138 40041 58014 333 60005=
0110013590999992020010621004+60533+008200FM-12+077399999V0202301N007019999999N999999999+00231-00281100401ADDAA101000091MA1999999091351MD1810121+9999REMSYN05801359 26/// /2307 10023 21028 39135 40040 58012 333 60005=
0110013590999992020010622004+60533+008200FM-12+077399999V0202101N004019999999N999999999+00201-00251100421ADDAA101000091MA1999999091361MD1510071+9999REMSYN05801359 26/// /2104 10020 21025 39136 40042 55007 333 60005=
0110013590999992020010623004+60533+008200FM-12+077399999V0202201N006019999999N999999999+00201-00201100431ADDAA101000091MA1999999091371MD1510011+9999REMSYN05801359 26/// /2206 10020 21020 39137 40043 55001 333 60005=
0130013590999992020010700004+60533+008200FM-12+077399999V0202001N004019999999N999999999+00211-00211100401ADDAA106000091MA1999999091351MD1990011+9999OD139901301999REMSYN06401359 16/// /2004 10021 21021 39135 40040 50001 60001 333 91113=
0110013590999992020010701004+60533+008200FM-12+077399999V0202301N008019999999N999999999+00251-00211100351ADDAA101000091MA1999999091311MD1810061+9999REMSYN05801359 26/// /2308 10025 21021 39131 40035 58006 333 60005=
0110013590999992020010702004+60533+008200FM-12+077399999V0203301N002019999999N999999999+00181-00191100511ADDAA101000091MA1999999091441MD1310061+9999REMSYN05801359 26/// /3302 10018 21019 39144 40051 53006 333 60005=
0110013590999992020010703004+60533+008200FM-12+077399999V0201001N001019999999N999999999+00111-00171100531ADDAA101000091MA1999999091441MD1310091+9999REMSYN05801359 26/// /1001 10011 21017 39144 40053 53009 333 60005=
0110013590999992020010704004+60533+008200FM-12+077399999V0202501N002019999999N999999999+00131-00161100581ADDAA101000091MA1999999091481MD1110181+9999REMSYN05801359 26/// /2502 10013 21016 39148 40058 51018 333 60005=
0110013590999992020010705004+60533+008200FM-12+077399999V0201201N001019999999N999999999+00101-00171100681ADDAA101000091MA1999999091571MD1310141+9999REMSYN05801359 26/// /1201 10010 21017 39157 40068 53014 333 60005=
0293013590999992020010706004+60533+008200FM-12+077399999V0202101N002012200019N070001199+00111-00211100751ADDAA112000091AA224000091AJ100283100280099AY111021AY201021GA1011+012501061GE19MSL   +99999+99999GF101991011999012501999999IA1249KA1240N+00071MA1999999091621MD1210191+9999MW1021OD139901401999REMSYN09401359 11689 12102 10011 21021 39162 40075 52019 60002 70210 81500 333 20007 44028 70000 91114=
0110013590999992020010707004+60533+008200FM-12+077399999V0202401N004019999999N999999999+00131-00221100761ADDAA101000091MA1999999091651MD1110161+9999REMSYN05801359 26/// /2404 10013 21022 39165 40076 51016 333 60005=
0110013590999992020010708004+60533+008200FM-12+077399999V0202201N005019999999N999999999+00061-00311100871ADDAA101000091MA1999999091721MD1310151+9999REMSYN05801359 26/// /2205 10006 21031 39172 40087 53015 333 60005=
0110013590999992020010709004+60533+008200FM-12+077399999V0202701N003019999999N999999999+00061-00361100891ADDAA101000091MA1999999091741MD1990121+9999REMSYN05801359 26/// /2703 10006 21036 39174 40089 50012 333 60005=
0110013590999992020010710004+60533+008200FM-12+077399999V0202801N003019999999N999999999+00081-00341100901ADDAA101000091MA1999999091751MD1110131+9999REMSYN05801359 26/// /2803 10008 21034 39175 40090 51013 333 60005=
0110013590999992020010711004+60533+008200FM-12+077399999V0202701N002019999999N999999999+00081-00381100831ADDAA101000091MA1999999091691MD1810031+9999REMSYN05801359 26/// /2702 10008 21038 39169 40083 58003 333 60005=
0260013590999992020010712004+60533+008200FM-12+077399999V0202401N003019999999N045000199+00071-00371100701ADDAA106000091AY121021AY201021GA1021+008001061GA2999+999999031GA3999+999999001GE19MSL   +99999+99999GF106991021999008001999999MA1999999091571MD1810161+9999MW1031OD139900901999REMSYN07601359 11583 62403 10007 21037 39157 40070 58016 60001 70320 82541 333 91109=
0110013590999992020010713004+60533+008200FM-12+077399999V0200701N002019999999N999999999+00111-00351100611ADDAA101000091MA1999999091501MD1810271+9999REMSYN05801359 26/// /0702 10011 21035 39150 40061 58027 333 60005=
0110013590999992020010714004+60533+008200FM-12+077399999V0202201N007019999999N999999999+00141-00361100441ADDAA101000091MA1999999091361MD1810331+9999REMSYN05801359 26/// /2207 10014 21036 39136 40044 58033 333 60005=
0110013590999992020010715004+60533+008200FM-12+077399999V0202201N006019999999N999999999+00061-00191100331ADDAA101000231MA1999999091231MD1810341+9999REMSYN05801359 26/// /2206 10006 21019 39123 40033 58034 333 69925=
0110013590999992020010716004+60533+008200FM-12+077399999V0202201N008019999999N999999999+00111-00221100171ADDAA101000231MA1999999091101MD1610401+9999REMSYN05801359 26/// /2208 10011 21022 39110 40017 56040 333 69925=
0110013590999992020010717004+60533+008200FM-12+077399999V0202301N010019999999N999999999+00181-00201100011ADDAA101000091MA1999999090981MD1510381+9999REMSYN05801359 26/// /2310 10018 21020 39098 40001 55038 333 60005=
0247013590999992020010718004+60533+008200FM-12+077399999V0202401N006019999999N011000199+00251-00111099801ADDAA112000631AY171021AY221021GA1081+004501051GE19MSL   +99999+99999GF108991081999004501999999KA1120M+00251MA1999999090811MD1810411+9999MW1701OD139901701999REMSYN08201359 11461 82406 10025 21011 39081 49980 58041 69962 77072 8802/ 333 10025 91117=
0110013590999992020010719004+60533+008200FM-12+077399999V0202501N005019999999N999999999+00361-00021099561ADDAA101000091MA1999999090631MD1810451+9999REMSYN05801359 26/// /2505 10036 21002 39063 49956 58045 333 60005=
0110013590999992020010720004+60533+008200FM-12+077399999V0202301N006019999999N999999999+00271+00071099611ADDAA101001031MA1999999090641MD1510331+9999REMSYN05801359 26/// /2306 10027 20007 39064 49961 55033 333 60015=
0110013590999992020010721004+60533+008200FM-12+077399999V0202501N007019999999N999999999+00421+00121099251ADDAA101002031MA1999999090371MD1810421+9999REMSYN05801359 26/// /2507 10042 20012 39037 49925 58042 333 60025=
0110013590999992020010722004+60533+008200FM-12+077399999V0202101N010019999999N999999999+00481+00101099081ADDAA101000131MA1999999090231MD1810411+9999REMSYN05801359 26/// /2110 10048 20010 39023 49908 58041 333 69915=
0110013590999992020010723004+60533+008200FM-12+077399999V0202101N010019999999N999999999+00491+00111098911ADDAA101000431MA1999999090081MD1610551+9999REMSYN05801359 26/// /2110 10049 20011 39008 49891 56055 333 69945=
0130013590999992020010800004+60533+008200FM-12+077399999V0202201N010019999999N999999999+00481+00171098941ADDAA106004031MA1999999090101MD1510281+9999OD139902101999REMSYN06401359 16/// /2210 10048 20017 39010 49894 55028 60041 333 91121=
0110013590999992020010801004+60533+008200FM-12+077399999V0202401N003019999999N999999999+00361+00161099001ADDAA101000631MA1999999090121MD1510121+9999REMSYN05801359 26/// /2403 10036 20016 39012 49900 55012 333 69965=
0110013590999992020010802004+60533+008200FM-12+077399999V0202501N006019999999N999999999+00381+00151098941ADDAA101000531MA1999999090071MD1810011+9999REMSYN05801359 26/// /2506 10038 20015 39007 49894 58001 333 69955=
0110013590999992020010803004+60533+008200FM-12+077399999V0202401N004019999999N999999999+00341+00131098941ADDAA101000431MA1999999090061MD1810041+9999REMSYN05801359 26/// /2404 10034 20013 39006 49894 58004 333 69945=
0110013590999992020010804004+60533+008200FM-12+077399999V0202401N004019999999N999999999+00401+00121098851ADDAA101000131MA1999999089991MD1810121+9999REMSYN05801359 26/// /2404 10040 20012 38999 49885 58012 333 69915=
0110013590999992020010805004+60533+008200FM-12+077399999V0202401N005019999999N999999999+00281+00081099041ADDAA101002031MA1999999090131MD1310051+9999REMSYN05801359 26/// /2405 10028 20008 39013 49904 53005 333 60025=
0293013590999992020010806004+60533+008200FM-12+077399999V0202401N008012200019N015000199+00191-00101099201ADDAA112008031AA224008131AJ100263100260099AY181021AY271021GA1031+004501091GE19MSL   +99999+99999GF103991031999004501999999IA1249KA1240N+00141MA1999999090251MD1310191+9999MW1831OD139901601999REMSYN09401359 11465 32408 10019 21010 39025 49920 53019 60082 78387 83300 333 20014 44026 70081 91116=
0110013590999992020010807004+60533+008200FM-12+077399999V0202501N008019999999N999999999-00031-00081099491ADDAA101000431MA1999999090441MD1310441+9999REMSYN05801359 26/// /2508 11003 21008 39044 49949 53044 333 69945=
0110013590999992020010808004+60533+008200FM-12+077399999V0202601N006019999999N999999999-00051-00171099621ADDAA101000531MA1999999090551MD1310411+9999REMSYN05801359 26/// /2606 11005 21017 39055 49962 53041 333 69955=
0110013590999992020010809004+60533+008200FM-12+077399999V0202401N007019999999N999999999-00081-00361099711ADDAA101000231MA1999999090621MD1110371+9999REMSYN05801359 26/// /2407 11008 21036 39062 49971 51037 333 69925=
0110013590999992020010810004+60533+008200FM-12+077399999V0202301N005019999999N999999999-00191-00291099841ADDAA101000131MA1999999090711MD1310271+9999REMSYN05801359 26/// /2305 11019 21029 39071 49984 53027 333 69915=
0110013590999992020010811004+60533+008200FM-12+077399999V0202301N004019999999N999999999-00161-00321099881ADDAA101000631MA1999999090741MD1310191+9999REMSYN05801359 26/// /2304 11016 21032 39074 49988 53019 333 69965=
0244013590999992020010812004+60533+008200FM-12+077399999V0202401N006012200019N010000199-00101-00431099901ADDAA106002031AY181021AY231021GA1031+004501091GA2999+999999001GE19MSL   +99999+99999GF104991031999004501999999MA1999999090791MD1110171+9999MW1851OD139901701999REMSYN07601359 11460 42406 11010 21043 39079 49990 51017 60021 78583 83301 333 91117=
0110013590999992020010813004+60533+008200FM-12+077399999V0202301N006019999999N999999999-00171-00301099911ADDAA101000431MA1999999090781MD1990081+9999REMSYN05801359 26/// /2306 11017 21030 39078 49991 50008 333 69945=
0110013590999992020010814004+60533+008200FM-12+077399999V0202301N007019999999N999999999-00151-00281099921ADDAA101000131MA1999999090791MD1990051+9999REMSYN05801359 26/// /2307 11015 21028 39079 49992 50005 333 69915=
0110013590999992020010815004+60533+008200FM-12+077399999V0202301N008019999999N999999999-00101-00301099941ADDAA101000131MA1999999090821MD1990031+9999REMSYN05801359 26/// /2308 11010 21030 39082 49994 50003 333 69915=
0110013590999992020010816004+60533+008200FM-12+077399999V0202301N005019999999N999999999-00111-00261100001ADDAA101000731MA1999999090881MD1310101+9999REMSYN05801359 26/// /2305 11011 21026 39088 40000 53010 333 69975=
0110013590999992020010817004+60533+008200FM-12+077399999V0202301N007019999999N999999999-00111-00321100051ADDAA101000131MA1999999090921MD1110121+9999REMSYN05801359 26/// /2307 11011 21032 39092 40005 51012 333 69915=
0203013590999992020010818004+60533+008200FM-12+077399999V0202301N01001000601WN000200199-00161-00191100121ADDAA112004031AY181021AY231021GF109991999999999999999999KA1120M+00201MA1999999090971MD1310161+9999MW1731OD139901801999REMSYN07601359 11/02 92310 11016 21019 39097 40012 53016 60042 77383 333 10020 91118=
0110013590999992020010819004+60533+008200FM-12+077399999V0202501N006019999999N999999999-00181-00211100231ADDAA101001031MA1999999091061MD1310181+9999REMSYN05801359 26/// /2506 11018 21021 39106 40023 53018 333 60015=
0110013590999992020010820004+60533+008200FM-12+077399999V0202401N006019999999N999999999-00171-00221100261ADDAA101000231MA1999999091091MD1110181+9999REMSYN05801359 26/// /2406 11017 21022 39109 40026 51018 333 69925=
0110013590999992020010821004+60533+008200FM-12+077399999V0202401N007019999999N999999999-00111-00281100241ADDAA101000131MA1999999091101MD1110141+9999REMSYN05801359 26/// /2407 11011 21028 39110 40024 51014 333 69915=
0110013590999992020010822004+60533+008200FM-12+077399999V0202501N007019999999N999999999-00131-00311100331ADDAA101000131MA1999999091171MD1310111+9999REMSYN05801359 26/// /2507 11013 21031 39117 40033 53011 333 69915=
0110013590999992020010823004+60533+008200FM-12+077399999V0202401N008019999999N999999999-00131-00361100371ADDAA101000091MA1999999091201MD1310111+9999REMSYN05801359 26/// /2408 11013 21036 39120 40037 53011 333 60005=
0130013590999992020010900004+60533+008200FM-12+077399999V0202501N009019999999N999999999-00081-00391100361ADDAA106002031MA1999999091211MD1990111+9999OD139901801999REMSYN06401359 16/// /2509 11008 21039 39121 40036 50011 60021 333 91118=
0110013590999992020010901004+60533+008200FM-12+077399999V0202401N007019999999N999999999-00091-00281100501ADDAA101000091MA1999999091341MD1310161+9999REMSYN05801359 26/// /2407 11009 21028 39134 40050 53016 333 60005=
0110013590999992020010902004+60533+008200FM-12+077399999V0202401N005019999999N999999999-00101-00281100651ADDAA101000131MA1999999091471MD1310261+9999REMSYN05801359 26/// /2405 11010 21028 39147 40065 53026 333 69915=
0110013590999992020010903004+60533+008200FM-12+077399999V0202401N006019999999N999999999-00121-00501100751ADDAA101000131MA1999999091551MD1110321+9999REMSYN05801359 26/// /2406 11012 21050 39155 40075 51032 333 69915=
0110013590999992020010904004+60533+008200FM-12+077399999V0202201N004019999999N999999999-00151-00481100811ADDAA101000091MA1999999091601MD1110251+9999REMSYN05801359 26/// /2204 11015 21048 39160 40081 51025 333 60005=
0110013590999992020010905004+60533+008200FM-12+077399999V0202201N003019999999N999999999-00241-00391100821ADDAA101000231MA1999999091581MD1990111+9999REMSYN05801359 26/// /2203 11024 21039 39158 40082 50011 333 69925=
0245013590999992020010906004+60533+008200FM-12+077399999V0209999C999999999999N030000199+99999+99999999999ADDAA199999919AJ100523100520099AY181021AY231021GA1041+004501091GA2999+999999021GE19MSL   +99999+99999GF106991041999004501999999IA1289KA1240N-00291MW1851OD139901801999REMSYN07001359 11480 6//// 1//// 2//// 6//// 78583 84308 333 21029 48052 91118=
0110013590999992020010907004+60533+008200FM-12+077399999V0200101N001019999999N999999999-00311-00481100861ADDAA101000091MA1999999091591MD1990011+9999REMSYN05801359 26/// /0101 11031 21048 39159 40086 50001 333 60005=
0110013590999992020010908004+60533+008200FM-12+077399999V0203301N001019999999N999999999-00281-00531100951ADDAA101000091MA1999999091681MD1310101+9999REMSYN05801359 26/// /3301 11028 21053 39168 40095 53010 333 60005=
0110013590999992020010909004+60533+008200FM-12+077399999V0200101N002019999999N999999999-00301-00541101021ADDAA101000091MA1999999091741MD1310101+9999REMSYN05801359 26/// /0102 11030 21054 39174 40102 53010 333 60005=
0110013590999992020010910004+60533+008200FM-12+077399999V0202601N001019999999N999999999-00271-00501101001ADDAA101000091MA1999999091731MD1990151+9999REMSYN05801359 26/// /2601 11027 21050 39173 40100 50015 333 60005=
0110013590999992020010911004+60533+008200FM-12+077399999V0201901N001019999999N999999999-00211-00431100981ADDAA101000091MA1999999091731MD1990041+9999REMSYN05801359 26/// /1901 11021 21043 39173 40098 50004 333 60005=
0244013590999992020010912004+60533+008200FM-12+077399999V0203501N001019999999N045000199-00211-00431100931ADDAA106000091AY181021AY221021GA1031+008001061GA2999+999999031GE19MSL   +99999+99999GF108991031999008001999999MA1999999091691MD1810051+9999MW1021OD139900701999REMSYN07601359 11583 83501 11021 21043 39169 40093 58005 60001 70282 8357/ 333 91107=
0110013590999992020010913004+60533+008200FM-12+077399999V0200601N001019999999N999999999-00231-00431100871ADDAA101000091MA1999999091631MD1810101+9999REMSYN05801359 26/// /0601 11023 21043 39163 40087 58010 333 60005=
0110013590999992020010914004+60533+008200FM-12+077399999V0200701N001019999999N999999999-00311-00481100871ADDAA101000091MA1999999091591MD1610141+9999REMSYN05801359 26/// /0701 11031 21048 39159 40087 56014 333 60005=
0110013590999992020010915004+60533+008200FM-12+077399999V0209999C999999999999N999999999-00411-00521100921ADDAA101000091MA1999999091611MD1510081+9999REMSYN05801359 26/// /0000 11041 21052 39161 40092 55008 333 60005=
0110013590999992020010916004+60533+008200FM-12+077399999V0202601N001019999999N999999999-00511-00601100941ADDAA101000091MA1999999091601MD1510031+9999REMSYN05801359 26/// /2601 11051 21060 39160 40094 55003 333 60005=
0110013590999992020010917004+60533+008200FM-12+077399999V0202201N001019999999N999999999-00721-00791101051ADDAA101000091MA1999999091621MD1210031+9999REMSYN05801359 26/// /2201 11072 21079 39162 40105 52003 333 60005=
0279013590999992020010918004+60533+008200FM-12+077399999V0202601N001019999999N050000199-00851-00901101111ADDAA112000091AY121021AY221021GA1021+012501061GA2999+999999031GA3999+999999021GE19MSL   +99999+99999GF107991021999012501999999KA1120M-00171MA1999999091631MD1310021+9999MW1021OD139900301999REMSYN08201359 11684 72601 11085 21090 39163 40111 53002 60002 70222 82578 333 11017 91103=
0110013590999992020010919004+60533+008200FM-12+077399999V0202601N001019999999N999999999-00891-00961101161ADDAA101000091MA1999999091661MD1210061+9999REMSYN05801359 26/// /2601 11089 21096 39166 40116 52006 333 60005=
0110013590999992020010920004+60533+008200FM-12+077399999V0209999C999999999999N999999999-00941-01041101231ADDAA101000091MA1999999091711MD1310081+9999REMSYN05801359 26/// /0000 11094 21104 39171 40123 53008 333 60005=
0110013590999992020010921004+60533+008200FM-12+077399999V0201801N001019999999N999999999-00911-00981101211ADDAA101000091MA1999999091701MD1990071+9999REMSYN05801359 26/// /1801 11091 21098 39170 40121 50007 333 60005=
0110013590999992020010922004+60533+008200FM-12+077399999V0202001N001019999999N999999999-01021-01071101251ADDAA101000091MA1999999091701MD1990041+9999REMSYN05801359 26/// /2001 11102 21107 39170 40125 50004 333 60005=
0110013590999992020010923004+60533+008200FM-12+077399999V0202301N002019999999N999999999-00881-00951101231ADDAA101000091MA1999999091731MD1310021+9999REMSYN05801359 26/// /2302 11088 21095 39173 40123 53002 333 60005=
0130013590999992020011000004+60533+008200FM-12+077399999V0202101N001019999999N999999999-01021-01121101301ADDAA106000091MA1999999091751MD1310051+9999OD139900501999REMSYN06401359 16/// /2101 11102 21112 39175 40130 53005 60001 333 91105=
0110013590999992020011001004+60533+008200FM-12+077399999V0202201N002019999999N999999999-01081-01171101381ADDAA101000091MA1999999091801MD1210091+9999REMSYN05801359 26/// /2202 11108 21117 39180 40138 52009 333 60005=
0110013590999992020011002004+60533+008200FM-12+077399999V0202201N001019999999N999999999-01071-01181101461ADDAA101000091MA1999999091871MD1310141+9999REMSYN05801359 26/// /2201 11107 21118 39187 40146 53014 333 60005=
0110013590999992020011003004+60533+008200FM-12+077399999V0202201N002019999999N999999999-00911-01091101491ADDAA101000091MA1999999091951MD1310201+9999REMSYN05801359 26/// /2202 11091 21109 39195 40149 53020 333 60005=
0110013590999992020011004004+60533+008200FM-12+077399999V0202001N001019999999N999999999-01111-01251101621ADDAA101000091MA1999999092001MD1110201+9999REMSYN05801359 26/// /2001 11111 21125 39200 40162 51020 333 60005=
0110013590999992020011005004+60533+008200FM-12+077399999V0200201N001019999999N999999999-01151-01281101661ADDAA101000091MA1999999092021MD1110151+9999REMSYN05801359 26/// /0201 11115 21128 39202 40166 51015 333 60005=
0312013590999992020011006004+60533+008200FM-12+077399999V0202601N001012200019N060000199-01221-01311101731ADDAA112000091AA224000091AJ100313100310099AY121021AY201021GA1999+999999021GE19MSL   +99999+99999GF103991001999999999999999IA1289KA1240N-01261MA1999999092061MD1210111+9999MW1021OD139900501999REMSYN09401359 11986 32601 11122 21131 39206 40173 52011 60002 70220 80008 333 21126 48031 70000 91105=EQDQ01    003SCCGA1
0110013590999992020011007004+60533+008200FM-12+077399999V0201901N001019999999N999999999-01361-01571101841ADDAA101000091MA1999999092111MD1310111+9999REMSYN05801359 26/// /1901 11136 21157 39211 40184 53011 333 60005=
0110013590999992020011008004+60533+008200FM-12+077399999V0202901N001019999999N999999999-01421-01491101921ADDAA101000091MA1999999092161MD1310131+9999REMSYN05801359 26/// /2901 11142 21149 39216 40192 53013 333 60005=
0110013590999992020011009004+60533+008200FM-12+077399999V0202001N002019999999N999999999-01451-01571102061ADDAA101000091MA1999999092281MD1310221+9999REMSYN05801359 26/// /2002 11145 21157 39228 40206 53022 333 60005=
0110013590999992020011010004+60533+008200FM-12+077399999V0209999C999999999999N999999999-01181-01331101991ADDAA101000091MA1999999092311MD1110201+9999REMSYN05801359 26/// /0000 11118 21133 39231 40199 51020 333 60005=
0110013590999992020011011004+60533+008200FM-12+077399999V0202001N002019999999N999999999-01041-01291101961ADDAA101000091MA1999999092341MD1110171+9999REMSYN05801359 26/// /2002 11104 21129 39234 40196 51017 333 60005=
0247013590999992020011012004+60533+008200FM-12+077399999V0202001N002012200019N070001199-00931-01291101971ADDAA106000091AY101021AY201021GA1999+999999001GE19MSL   +99999+99999GF101991001999999999999999MA1999999092391MD1210101+9999MW1021OD139900601999REMSYN07601359 11989 12002 11093 21129 39239 40197 52010 60001 70200 80001 333 91106=EQDQ01    003SCCGA1
0110013590999992020011013004+60533+008200FM-12+077399999V0201601N001019999999N999999999-00961-01231101991ADDAA101000091MA1999999092391MD1110081+9999REMSYN05801359 26/// /1601 11096 21123 39239 40199 51008 333 60005=
0110013590999992020011014004+60533+008200FM-12+077399999V0202501N003019999999N999999999-00561-01201101931ADDAA101000091MA1999999092471MD1310131+9999REMSYN05801359 26/// /2503 11056 21120 39247 40193 53013 333 60005=
0110013590999992020011015004+60533+008200FM-12+077399999V0201901N001019999999N999999999-00741-01231101971ADDAA101000091MA1999999092451MD1110071+9999REMSYN05801359 26/// /1901 11074 21123 39245 40197 51007 333 60005=
0110013590999992020011016004+60533+008200FM-12+077399999V0202301N002019999999N999999999-00691-01171102041ADDAA101000091MA1999999092531MD1110131+9999REMSYN05801359 26/// /2302 11069 21117 39253 40204 51013 333 60005=
0110013590999992020011017004+60533+008200FM-12+077399999V0202101N001019999999N999999999-00741-01181102061ADDAA101000091MA1999999092531MD1310071+9999REMSYN05801359 26/// /2101 11074 21118 39253 40206 53007 333 60005=
0247013590999992020011018004+60533+008200FM-12+077399999V0201601N001012200019N070001199-00841-01111102071ADDAA112000091AY101021AY201021GA1011+999999031GE19MSL   +99999+99999GF101991011999999999999999KA1120M-00501MA1999999092511MD1990051+9999MW1021OD139901801999REMSYN08201359 11989 11601 11084 21111 39251 40207 50005 60002 70200 81050 333 11050 91118=
0110013590999992020011019004+60533+008200FM-12+077399999V0202601N003019999999N999999999-00611-01071102011ADDAA101000091MA1999999092531MD1510011+9999REMSYN05801359 26/// /2603 11061 21107 39253 40201 55001 333 60005=
0110013590999992020011020004+60533+008200FM-12+077399999V0200301N001019999999N999999999-00801-01121102071ADDAA101000091MA1999999092511MD1510021+9999REMSYN05801359 26/// /0301 11080 21112 39251 40207 55002 333 60005=
0110013590999992020011021004+60533+008200FM-12+077399999V0202001N001019999999N999999999-00901-01221102081ADDAA101000091MA1999999092491MD1810021+9999REMSYN05801359 26/// /2001 11090 21122 39249 40208 58002 333 60005=
0110013590999992020011022004+60533+008200FM-12+077399999V0203101N001019999999N999999999-00721-01171101971ADDAA101000091MA1999999092451MD1810071+9999REMSYN05801359 26/// /3101 11072 21117 39245 40197 58007 333 60005=
0110013590999992020011023004+60533+008200FM-12+077399999V0200401N001019999999N999999999-00771-01111101921ADDAA101000091MA1999999092391MD1810121+9999REMSYN05801359 26/// /0401 11077 21111 39239 40192 58012 333 60005=
0130013590999992020011100004+60533+008200FM-12+077399999V0200801N001019999999N999999999-00521-01091101691ADDAA106000091MA1999999092281MD1810211+9999OD139900501999REMSYN06401359 16/// /0801 11052 21109 39228 40169 58021 60001 333 91105=
0110013590999992020011101004+60533+008200FM-12+077399999V0202101N003019999999N999999999-00241-01031101541ADDAA101000091MA1999999092231MD1610211+9999REMSYN05801359 26/// /2103 11024 21103 39223 40154 56021 333 60005=
0110013590999992020011102004+60533+008200FM-12+077399999V0202301N004019999999N999999999-00181-00901101341ADDAA101000091MA1999999092071MD1810311+9999REMSYN05801359 26/// /2304 11018 21090 39207 40134 58031 333 60005=
0110013590999992020011103004+60533+008200FM-12+077399999V0202301N005019999999N999999999-00191-00741101251ADDAA101000091MA1999999091981MD1810291+9999REMSYN05801359 26/// /2305 11019 21074 39198 40125 58029 333 60005=
0039013590999992020011104004+60533+008200FM-12+077399999V0209999C999999999999N999999999+99999+99999999999REMSYN03001359 46/// ///// 1//// 2////=
0110013590999992020011105004+60533+008200FM-12+077399999V0202101N005019999999N999999999-00131-00411100981ADDAA101000131MA1999999091761MD1510311+9999REMSYN05801359 26/// /2105 11013 21041 39176 40098 55031 333 69915=
0293013590999992020011106004+60533+008200FM-12+077399999V0202201N005019999999N014000199-00021-00341100711ADDAA112000231AA224000231AJ100313100310099AY171021AY201021GA1081+004501051GE19MSL   +99999+99999GF108991081999004501999999IA1289KA1240N-00911MA1999999091551MD1810441+9999MW1781OD139901201999REMSYN09401359 11464 82205 11002 21034 39155 40071 58044 69922 77870 8802/ 333 21091 48031 70002 91112=
0110013590999992020011107004+60533+008200FM-12+077399999V0202201N011019999999N999999999+00071-00251100441ADDAA101000091MA1999999091341MD1810491+9999REMSYN05801359 26/// /2211 10007 21025 39134 40044 58049 333 60005=
0110013590999992020011108004+60533+008200FM-12+077399999V0202301N007019999999N999999999+00061-00161100391ADDAA101000131MA1999999091281MD1610481+9999REMSYN05801359 26/// /2307 10006 21016 39128 40039 56048 333 69915=
0110013590999992020011109004+60533+008200FM-12+077399999V0202401N007019999999N999999999+00091-00121100271ADDAA101000131MA1999999091191MD1610351+9999REMSYN05801359 26/// /2407 10009 21012 39119 40027 56035 333 69915=
0110013590999992020011110004+60533+008200FM-12+077399999V0202401N006019999999N999999999+00071-00031100201ADDAA101000431MA1999999091111MD1610231+9999REMSYN05801359 26/// /2406 10007 21003 39111 40020 56023 333 69945=
0110013590999992020011111004+60533+008200FM-12+077399999V0202401N005019999999N999999999+00161-00021100051ADDAA101000531MA1999999091011MD1610271+9999REMSYN05801359 26/// /2405 10016 21002 39101 40005 56027 333 69955=
0228013590999992020011112004+60533+008200FM-12+077399999V0202401N006019999999N003300199+00211+00021099911ADDAA106002031AY171021AY231021GA1081+004501051GE19MSL   +99999+99999GF108991081999004501999999MA1999999090901MD1810291+9999MW1711OD139901801999REMSYN07601359 11433 82406 10021 20002 39090 49991 58029 60021 77173 8802/ 333 91118=
0110013590999992020011115004+60533+008200FM-12+077399999V0202301N007019999999N999999999+00271+00091099621ADDAA101003031MA1999999090651MD1610251+9999REMSYN05801359 26/// /2307 10027 20009 39065 49962 56025 333 60035=
0110013590999992020011116004+60533+008200FM-12+077399999V0202201N007019999999N999999999+00311+00081099501ADDAA101002031MA1999999090561MD1810161+9999REMSYN05801359 26/// /2207 10031 20008 39056 49950 58016 333 60025=
0110013590999992020011119004+60533+008200FM-12+077399999V0202401N005019999999N999999999+00261+00081099511ADDAA101000631MA1999999090551MD1510021+9999REMSYN05801359 26/// /2405 10026 20008 39055 49951 55002 333 69965=
0110013590999992020011120004+60533+008200FM-12+077399999V0202201N005019999999N999999999+00211+00001099581ADDAA101000531MA1999999090601MD1310031+9999REMSYN05801359 26/// /2205 10021 21000 39060 49958 53003 333 69955=
0110013590999992020011121004+60533+008200FM-12+077399999V0202301N003019999999N999999999+00171-00031099631ADDAA101000091MA1999999090631MD1110141+9999REMSYN05801359 26/// /2303 10017 21003 39063 49963 51014 333 60005=
0110013590999992020011122004+60533+008200FM-12+077399999V0202401N002019999999N999999999+00141-00041099671ADDAA101000131MA1999999090651MD1110111+9999REMSYN05801359 26/// /2402 10014 21004 39065 49967 51011 333 69915=
0110013590999992020011123004+60533+008200FM-12+077399999V0202401N004019999999N999999999+00131-00021099691ADDAA101000331MA1999999090671MD1110071+9999REMSYN05801359 26/// /2404 10013 21002 39067 49969 51007 333 69935=
0130013590999992020011200004+60533+008200FM-12+077399999V0202301N005019999999N999999999+00141-00121099741ADDAA106002031MA1999999090721MD1210091+9999OD139901201999REMSYN06401359 16/// /2305 10014 21012 39072 49974 52009 60021 333 91112=
0110013590999992020011201004+60533+008200FM-12+077399999V0202301N005019999999N999999999+00111-00321099691ADDAA101000091MA1999999090671MD1990021+9999REMSYN05801359 26/// /2305 10011 21032 39067 49969 50002 333 60005=
0110013590999992020011202004+60533+008200FM-12+077399999V0202301N006019999999N999999999+00061-00191099751ADDAA101000091MA1999999090701MD1990041+9999REMSYN05801359 26/// /2306 10006 21019 39070 49975 50004 333 60005=
0110013590999992020011204004+60533+008200FM-12+077399999V0202301N005019999999N999999999-00011-00131099761ADDAA101000731MA1999999090691MD1990021+9999REMSYN05801359 26/// /2305 11001 21013 39069 49976 50002 333 69975=
0110013590999992020011205004+60533+008200FM-12+077399999V0202301N006019999999N999999999+00001-00241099781ADDAA101000131MA1999999090711MD1410001+9999REMSYN05801359 26/// /2306 10000 21024 39071 49978 54000 333 69915=
0309013590999992020011206004+60533+008200FM-12+077399999V0202301N004019999999N014000199-00081-00301099851ADDAA112003031AA224013731AJ100283100280099AY181021AY271021GA1031+008001091GA2999+999999001GE19MSL   +99999+99999GF105991031999008001999999IA1249KA1240N-00081MA1999999090751MD1310031+9999MW1851OD139901201999REMSYN09401359 11564 52304 11008 21030 39075 49985 53003 60032 78587 83301 333 21008 44028 70137 91112=
0110013590999992020011207004+60533+008200FM-12+077399999V0202501N007019999999N999999999-00211-00311099961ADDAA101000731MA1999999090801MD1990131+9999REMSYN05801359 26/// /2507 11021 21031 39080 49996 50013 333 69975=
0110013590999992020011208004+60533+008200FM-12+077399999V0202401N006019999999N999999999-00181-00331100031ADDAA101000831MA1999999090881MD1310161+9999REMSYN05801359 26/// /2406 11018 21033 39088 40003 53016 333 69985=
0110013590999992020011209004+60533+008200FM-12+077399999V0202301N006019999999N999999999-00231-00391100091ADDAA101000231MA1999999090921MD1110161+9999REMSYN05801359 26/// /2306 11023 21039 39092 40009 51016 333 69925=
0110013590999992020011210004+60533+008200FM-12+077399999V0202301N005019999999N999999999-00151-00461100131ADDAA101000091MA1999999090981MD1310171+9999REMSYN05801359 26/// /2305 11015 21046 39098 40013 53017 333 60005=
0110013590999992020011211004+60533+008200FM-12+077399999V0202301N009019999999N999999999-00121-00341100191ADDAA101000131MA1999999091041MD1310161+9999REMSYN05801359 26/// /2309 11012 21034 39104 40019 53016 333 69915=
0244013590999992020011212004+60533+008200FM-12+077399999V0202201N009012200019N030000199-00081-00411100191ADDAA106002031AY181021AY231021GA1031+008001081GA2999+999999021GE19MSL   +99999+99999GF104991031999008001999999MA1999999091061MD1110151+9999MW1261OD139901601999REMSYN07601359 11580 42209 11008 21041 39106 40019 51015 60021 72683 83208 333 91116=
0110013590999992020011213004+60533+008200FM-12+077399999V0202201N008019999999N999999999-00131-00561100191ADDAA101000091MA1999999091041MD1990061+9999REMSYN05801359 26/// /2208 11013 21056 39104 40019 50006 333 60005=
0110013590999992020011214004+60533+008200FM-12+077399999V0202101N006019999999N999999999-00181-00541100211ADDAA101000091MA1999999091041MD1310011+9999REMSYN05801359 26/// /2106 11018 21054 39104 40021 53001 333 60005=
0110013590999992020011215004+60533+008200FM-12+077399999V0202201N006019999999N999999999-00251-00661100241ADDAA101000091MA1999999091051MD1510021+9999REMSYN05801359 26/// /2206 11025 21066 39105 40024 55002 333 60005=
0110013590999992020011216004+60533+008200FM-12+077399999V0202301N005019999999N999999999-00221-00621100251ADDAA101000091MA1999999091061MD1310021+9999REMSYN05801359 26/// /2305 11022 21062 39106 40025 53002 333 60005=
0110013590999992020011217004+60533+008200FM-12+077399999V0202301N006019999999N999999999-00241-00321100241ADDAA101000131MA1999999091041MD1410001+9999REMSYN05801359 26/// /2306 11024 21032 39104 40024 54000 333 69915=
0247013590999992020011218004+60533+008200FM-12+077399999V0202201N005019999999N006000199-00221-00401100211ADDAA112002031AY181021AY271021GA1081+004501051GE19MSL   +99999+99999GF108991081999004501999999KA1120M-00061MA1999999091031MD1510011+9999MW1701OD139901501999REMSYN08201359 11456 82205 11022 21040 39103 40021 55001 60022 77087 8802/ 333 11006 91115=
0110013590999992020011219004+60533+008200FM-12+077399999V0202301N004019999999N999999999-00171-00441100181ADDAA101000091MA1999999091021MD1510041+9999REMSYN05801359 26/// /2304 11017 21044 39102 40018 55004 333 60005=
0110013590999992020011220004+60533+008200FM-12+077399999V0202201N004019999999N999999999-00301-00581100281ADDAA101000091MA1999999091071MD1310031+9999REMSYN05801359 26/// /2204 11030 21058 39107 40028 53003 333 60005=
0110013590999992020011221004+60533+008200FM-12+077399999V0202301N006019999999N999999999-00211-00551100231ADDAA101000091MA1999999091051MD1990021+9999REMSYN05801359 26/// /2306 11021 21055 39105 40023 50002 333 60005=
0110013590999992020011222004+60533+008200FM-12+077399999V0202101N004019999999N999999999-00311-00691100331ADDAA101000091MA1999999091111MD1310081+9999REMSYN05801359 26/// /2104 11031 21069 39111 40033 53008 333 60005=
0110013590999992020011223004+60533+008200FM-12+077399999V0202201N007019999999N999999999-00221-00461100351ADDAA101000091MA1999999091161MD1310101+9999REMSYN05801359 26/// /2207 11022 21046 39116 40035 53010 333 60005=
0130013590999992020011300004+60533+008200FM-12+077399999V0202201N008019999999N999999999-00201-00551100371ADDAA106000091MA1999999091181MD1110121+9999OD139901301999REMSYN06401359 16/// /2208 11020 21055 39118 40037 51012 60001 333 91113=
0110013590999992020011301004+60533+008200FM-12+077399999V0202301N006019999999N999999999-00261-00511100371ADDAA101000091MA1999999091161MD1990061+9999REMSYN05801359 26/// /2306 11026 21051 39116 40037 50006 333 60005=
0110013590999992020011302004+60533+008200FM-12+077399999V0202301N003019999999N999999999-00231-00541100381ADDAA101000091MA1999999091181MD1310021+9999REMSYN05801359 26/// /2303 11023 21054 39118 40038 53002 333 60005=
0110013590999992020011303004+60533+008200FM-12+077399999V0202301N003019999999N999999999-00191-00501100421ADDAA101000091MA1999999091231MD1310051+9999REMSYN05801359 26/// /2303 11019 21050 39123 40042 53005 333 60005=
0110013590999992020011304004+60533+008200FM-12+077399999V0202101N005019999999N999999999-00191-00561100431ADDAA101000091MA1999999091241MD1310071+9999REMSYN05801359 26/// /2105 11019 21056 39124 40043 53007 333 60005=
0110013590999992020011305004+60533+008200FM-12+077399999V0202001N004019999999N999999999-00151-00531100421ADDAA101000091MA1999999091241MD1110061+9999REMSYN05801359 26/// /2004 11015 21053 39124 40042 51006 333 60005=
0293013590999992020011306004+60533+008200FM-12+077399999V0200701N002019999999N050000199-00141-00471100441ADDAA112000091AA224002331AJ100313100310099AY171021AY231021GA1051+008001061GE19MSL   +99999+99999GF105991051999008001999999IA1289KA1240N-00311MA1999999091261MD1310031+9999MW1021OD139902001999REMSYN09401359 11584 50702 11014 21047 39126 40044 53003 60002 70273 85500 333 21031 48031 70023 91120=
0039013590999992020011307004+60533+008200FM-12+077399999V0209999C999999999999N999999999+99999+99999999999REMSYN03001359 46/// ///// 1//// 2////=
0110013590999992020011308004+60533+008200FM-12+077399999V0202501N002019999999N999999999-00221-00561100481ADDAA101000091MA1999999091271MD1990031+9999REMSYN05801359 26/// /2502 11022 21056 39127 40048 50003 333 60005=
0110013590999992020011309004+60533+008200FM-12+077399999V0203101N001019999999N999999999-00311-00681100571ADDAA101000091MA1999999091331MD1310061+9999REMSYN05801359 26/// /3101 11031 21068 39133 40057 53006 333 60005=
0110013590999992020011310004+60533+008200FM-12+077399999V0202401N004019999999N999999999-00191-00601100541ADDAA101000091MA1999999091341MD1990071+9999REMSYN05801359 26/// /2404 11019 21060 39134 40054 50007 333 60005=
0110013590999992020011311004+60533+008200FM-12+077399999V0202201N005019999999N999999999-00121-00581100491ADDAA101000091MA1999999091321MD1990051+9999REMSYN05801359 26/// /2205 11012 21058 39132 40049 50005 333 60005=
0244013590999992020011312004+60533+008200FM-12+077399999V0201601N002012200019N070001199+00081-00561100401ADDAA106000091AY111021AY201021GA1041+012501061GA2999+999999021GE19MSL   +99999+99999GF104991041999012501999999MA1999999091301MD1810021+9999MW1021OD139900901999REMSYN07601359 11689 41602 10008 21056 39130 40040 58002 60001 70210 84508 333 91109=
0110013590999992020011313004+60533+008200FM-12+077399999V0202101N001019999999N999999999-00081-00541100451ADDAA101000091MA1999999091301MD1510041+9999REMSYN05801359 26/// /2101 11008 21054 39130 40045 55004 333 60005=
0110013590999992020011314004+60533+008200FM-12+077399999V0202001N002019999999N999999999-00051-00511100421ADDAA101000091MA1999999091271MD1710041+9999REMSYN05801359 26/// /2002 11005 21051 39127 40042 57004 333 60005=
0110013590999992020011315004+60533+008200FM-12+077399999V0202201N002019999999N999999999-00231-00611100441ADDAA101000091MA1999999091231MD1510071+9999REMSYN05801359 26/// /2202 11023 21061 39123 40044 55007 333 60005=
0110013590999992020011316004+60533+008200FM-12+077399999V0200701N001019999999N999999999-00251-00591100351ADDAA101000091MA1999999091141MD1810151+9999REMSYN05801359 26/// /0701 11025 21059 39114 40035 58015 333 60005=
0110013590999992020011317004+60533+008200FM-12+077399999V0202401N003019999999N999999999-00131-00521100271ADDAA101000091MA1999999091121MD1610151+9999REMSYN05801359 26/// /2403 11013 21052 39112 40027 56015 333 60005=
0110013590999992020011320004+60533+008200FM-12+077399999V0201901N001019999999N999999999-00211-00551100041ADDAA101000091MA1999999090881MD1810231+9999REMSYN05801359 26/// /1901 11021 21055 39088 40004 58023 333 60005=
0110013590999992020011323004+60533+008200FM-12+077399999V0201101N003019999999N999999999-00011-00381099621ADDAA101000091MA1999999090561MD1810321+9999REMSYN05801359 26/// /1103 11001 21038 39056 49962 58032 333 60005=
0130013590999992020011400004+60533+008200FM-12+077399999V0200301N001019999999N999999999-00031-00371099421ADDAA106000091MA1999999090371MD1810431+9999OD139900901999REMSYN06401359 16/// /0301 11003 21037 39037 49942 58043 60001 333 91109=
0110013590999992020011401004+60533+008200FM-12+077399999V0200201N002019999999N999999999-00011-00331099241ADDAA101000091MA1999999090221MD1810481+9999REMSYN05801359 26/// /0202 11001 21033 39022 49924 58048 333 60005=
0110013590999992020011402004+60533+008200FM-12+077399999V0200301N003019999999N999999999+00021-00271099011ADDAA101000091MA1999999090021MD1810541+9999REMSYN05801359 26/// /0303 10002 21027 39002 49901 58054 333 60005=
0110013590999992020011403004+60533+008200FM-12+077399999V0200601N002019999999N999999999+00021-00241098801ADDAA101000131MA1999999089831MD1810541+9999REMSYN05801359 26/// /0602 10002 21024 38983 49880 58054 333 69915=
0110013590999992020011404004+60533+008200FM-12+077399999V0200201N001019999999N999999999-00011-00171098611ADDAA101000231MA1999999089651MD1610561+9999REMSYN05801359 26/// /0201 11001 21017 38965 49861 56056 333 69925=
0110013590999992020011405004+60533+008200FM-12+077399999V0201501N002019999999N999999999+00021-00231098481ADDAA101000331MA1999999089541MD1610481+9999REMSYN05801359 26/// /1502 10002 21023 38954 49848 56048 333 69935=
0325013590999992020011406004+60533+008200FM-12+077399999V0201701N006019999999N045000199+00091-00301098381ADDAA112000631AA224000631AJ100313100310099AY171021AY221021GA1051+008001061GA2999+999999031GA3999+999999021GE19MSL   +99999+99999GF107991051999008001999999IA1289KA1240N-00251MA1999999089471MD1610351+9999MW1021OD139901101999REMSYN09401359 11583 71706 10009 21030 38947 49838 56035 69962 70272 85578 333 21025 48031 70006 91111=
0110013590999992020011407004+60533+008200FM-12+077399999V0201601N003019999999N999999999+00041-00391098351ADDAA101000091MA1999999089431MD1610221+9999REMSYN05801359 26/// /1603 10004 21039 38943 49835 56022 333 60005=
0110013590999992020011408004+60533+008200FM-12+077399999V0200401N001019999999N999999999-00061-00381098421ADDAA101000091MA1999999089461MD1510081+9999REMSYN05801359 26/// /0401 11006 21038 38946 49842 55008 333 60005=
0110013590999992020011409004+60533+008200FM-12+077399999V0201801N004019999999N999999999+00021-00331098401ADDAA101000091MA1999999089461MD1510011+9999REMSYN05801359 26/// /1804 10002 21033 38946 49840 55001 333 60005=
0110013590999992020011410004+60533+008200FM-12+077399999V0202101N005019999999N999999999+00121-00291098381ADDAA101000091MA1999999089471MD1310051+9999REMSYN05801359 26/// /2105 10012 21029 38947 49838 53005 333 60005=
0110013590999992020011411004+60533+008200FM-12+077399999V0202201N008019999999N999999999+00081-00261098431ADDAA101000131MA1999999089511MD1310061+9999REMSYN05801359 26/// /2208 10008 21026 38951 49843 53006 333 69915=
0244013590999992020011412004+60533+008200FM-12+077399999V0202301N005012200019N045000199-00041-00481098571ADDAA106000131AY181021AY221021GA1021+008001081GA2999+999999021GE19MSL   +99999+99999GF103991021999008001999999MA1999999089601MD1310151+9999MW1261OD139901401999REMSYN07601359 11583 32305 11004 21048 38960 49857 53015 69911 72682 82805 333 91114=
0110013590999992020011413004+60533+008200FM-12+077399999V0202301N006019999999N999999999-00021-00491098651ADDAA101000091MA1999999089671MD1310201+9999REMSYN05801359 26/// /2306 11002 21049 38967 49865 53020 333 60005=
0110013590999992020011414004+60533+008200FM-12+077399999V0202401N005019999999N999999999-00131-00571098731ADDAA101000091MA1999999089721MD1110201+9999REMSYN05801359 26/// /2405 11013 21057 38972 49873 51020 333 60005=
0110013590999992020011415004+60533+008200FM-12+077399999V0202301N004019999999N999999999-00201-00571098801ADDAA101000091MA1999999089751MD1110151+9999REMSYN05801359 26/// /2304 11020 21057 38975 49880 51015 333 60005=
0110013590999992020011416004+60533+008200FM-12+077399999V0202401N003019999999N999999999-00201-00611098871ADDAA101000091MA1999999089821MD1310151+9999REMSYN05801359 26/// /2403 11020 21061 38982 49887 53015 333 60005=
0110013590999992020011417004+60533+008200FM-12+077399999V0202301N003019999999N999999999-00301-00641098911ADDAA101000091MA1999999089821MD1990111+9999REMSYN05801359 26/// /2303 11030 21064 38982 49891 50011 333 60005=
0279013590999992020011418004+60533+008200FM-12+077399999V0203201N002019999999N040000199-00431-00691098931ADDAA112000131AY181021AY201021GA1031+008001061GA2999+999999031GA3999+999999021GE19MSL   +99999+99999GF108991031999008001999999KA1120M+00151MA1999999089801MD1990041+9999MW1031OD139901501999REMSYN08201359 11582 83202 11043 21069 38980 49893 50004 69912 70380 83557 333 10015 91115=
0110013590999992020011419004+60533+008200FM-12+077399999V0203601N001019999999N999999999-00571-00741098951ADDAA101000091MA1999999089771MD1810051+9999REMSYN05801359 26/// /3601 11057 21074 38977 49895 58005 333 60005=
0110013590999992020011420004+60533+008200FM-12+077399999V0203601N002019999999N999999999-00381-00541098841ADDAA101000091MA1999999089731MD1810091+9999REMSYN05801359 26/// /3602 11038 21054 38973 49884 58009 333 60005=
0110013590999992020011421004+60533+008200FM-12+077399999V0202401N001019999999N999999999-00411-00591098751ADDAA101000091MA1999999089641MD1810161+9999REMSYN05801359 26/// /2401 11041 21059 38964 49875 58016 333 60005=
0110013590999992020011422004+60533+008200FM-12+077399999V0200701N001019999999N999999999-00091-00351098471ADDAA101000091MA1999999089501MD1810271+9999REMSYN05801359 26/// /0701 11009 21035 38950 49847 58027 333 60005=
0110013590999992020011423004+60533+008200FM-12+077399999V0200401N001019999999N999999999-00101-00311098351ADDAA101000091MA1999999089381MD1710351+9999REMSYN05801359 26/// /0401 11010 21031 38938 49835 57035 333 60005=
0130013590999992020011500004+60533+008200FM-12+077399999V0201301N001019999999N999999999-00201-00281098261ADDAA106000231MA1999999089261MD1710371+9999OD139901101999REMSYN06401359 16/// /1301 11020 21028 38926 49826 57037 69921 333 91111=
0110013590999992020011501004+60533+008200FM-12+077399999V0200301N001019999999N999999999-00231-00281098171ADDAA101000531MA1999999089171MD1610331+9999REMSYN05801359 26/// /0301 11023 21028 38917 49817 56033 333 69955=
0110013590999992020011502004+60533+008200FM-12+077399999V0200601N001019999999N999999999-00251-00291098091ADDAA101000331MA1999999089101MD1610281+9999REMSYN05801359 26/// /0601 11025 21029 38910 49809 56028 333 69935=
0110013590999992020011503004+60533+008200FM-12+077399999V0201501N001019999999N999999999-00231-00291098101ADDAA101000091MA1999999089111MD1610151+9999REMSYN05801359 26/// /1501 11023 21029 38911 49810 56015 333 60005=
0110013590999992020011504004+60533+008200FM-12+077399999V0202501N004019999999N999999999+00011-00251098031ADDAA101000131MA1999999089121MD1510041+9999REMSYN05801359 26/// /2504 10001 21025 38912 49803 55004 333 69915=
0110013590999992020011505004+60533+008200FM-12+077399999V0202201N005019999999N999999999+00071-00251098111ADDAA101000131MA1999999089211MD1310121+9999REMSYN05801359 26/// /2205 10007 21025 38921 49811 53012 333 69915=
0293013590999992020011506004+60533+008200FM-12+077399999V0202301N005019999999N006000199-00051-00181098381ADDAA112002032AA224001832AJ100313100310099AY171021AY231021GA1081+004501051GE19MSL   +99999+99999GF108991081999004501999999IA1289KA1240N-00571MA1999999089421MD1310301+9999MW1701OD139901301999REMSYN09401359 11456 82305 11005 21018 38942 49838 53030 60022 77073 8802/ 333 21057 48031 70018 91113=
0110013590999992020011507004+60533+008200FM-12+077399999V0202301N005019999999N999999999-00091-00411098511ADDAA101000091MA1999999089521MD1310391+9999REMSYN05801359 26/// /2305 11009 21041 38952 49851 53039 333 60005=
0110013590999992020011508004+60533+008200FM-12+077399999V0202401N005019999999N999999999-00161-00421098651ADDAA101000091MA1999999089631MD1110411+9999REMSYN05801359 26/// /2405 11016 21042 38963 49865 51041 333 60005=
0110013590999992020011509004+60533+008200FM-12+077399999V0202401N004019999999N999999999-00161-00511098791ADDAA101000091MA1999999089761MD1210331+9999REMSYN05801359 26/// /2404 11016 21051 38976 49879 52033 333 60005=
0110013590999992020011510004+60533+008200FM-12+077399999V0202301N004019999999N999999999-00131-00521098911ADDAA101000131MA1999999089881MD1310361+9999REMSYN05801359 26/// /2304 11013 21052 38988 49891 53036 333 69915=
0110013590999992020011511004+60533+008200FM-12+077399999V0202301N005019999999N999999999-00081-00551098951ADDAA101000091MA1999999089931MD1110291+9999REMSYN05801359 26/// /2305 11008 21055 38993 49895 51029 333 60005=
0244013590999992020011512004+60533+008200FM-12+077399999V0202301N004012200019N060000199-00221-00571099101ADDAA106000131AY181021AY271021GA1021+008001081GA2999+999999031GE19MSL   +99999+99999GF104991021999008001999999MA1999999090021MD1110261+9999MW1011OD139901101999REMSYN07601359 11586 42304 11022 21057 39002 49910 51026 69911 70187 82830 333 91111=
0110013590999992020011513004+60533+008200FM-12+077399999V0202301N005019999999N999999999-00061-00441099101ADDAA101000091MA1999999090071MD1210201+9999REMSYN05801359 26/// /2305 11006 21044 39007 49910 52020 333 60005=
0110013590999992020011514004+60533+008200FM-12+077399999V0202301N004019999999N999999999-00081-00361099091ADDAA101000091MA1999999090061MD1110141+9999REMSYN05801359 26/// /2304 11008 21036 39006 49909 51014 333 60005=
0110013590999992020011515004+60533+008200FM-12+077399999V0202201N009019999999N999999999-00051-00401099071ADDAA101000091MA1999999090051MD1990021+9999REMSYN05801359 26/// /2209 11005 21040 39005 49907 50002 333 60005=
0110013590999992020011516004+60533+008200FM-12+077399999V0202301N010019999999N999999999+00031-00401099091ADDAA101000091MA1999999090091MD1310011+9999REMSYN05801359 26/// /2310 10003 21040 39009 49909 53001 333 60005=
0110013590999992020011517004+60533+008200FM-12+077399999V0202201N007019999999N999999999-00101-00461099241ADDAA101000091MA1999999090191MD1310121+9999REMSYN05801359 26/// /2207 11010 21046 39019 49924 53012 333 60005=
0149013590999992020011518004+60533+008200FM-12+077399999V0202301N005019999999N999999999-00131-00481099271ADDAA112000131KA1120M+00031MA1999999090211MD1310151+9999OD139901601999REMSYN07001359 16/// /2305 11013 21048 39021 49927 53015 69912 333 10003 91116=
0110013590999992020011519004+60533+008200FM-12+077399999V0200401N001019999999N999999999-00101-00421099391ADDAA101000091MA1999999090321MD1310221+9999REMSYN05801359 26/// /0401 11010 21042 39032 49939 53022 333 60005=
0110013590999992020011520004+60533+008200FM-12+077399999V0202001N007019999999N999999999+00031-00371099261ADDAA101000091MA1999999090251MD1990061+9999REMSYN05801359 26/// /2007 10003 21037 39025 49926 50006 333 60005=
0110013590999992020011521004+60533+008200FM-12+077399999V0202301N004019999999N999999999+00021-00311099271ADDAA101000091MA1999999090251MD1990051+9999REMSYN05801359 26/// /2304 10002 21031 39025 49927 50005 333 60005=
0110013590999992020011522004+60533+008200FM-12+077399999V0200701N003019999999N999999999-00011-00281099331ADDAA101000091MA1999999090301MD1510011+9999REMSYN05801359 26/// /0703 11001 21028 39030 49933 55001 333 60005=
0110013590999992020011523004+60533+008200FM-12+077399999V0202201N007019999999N999999999+00111-00261099291ADDAA101000091MA1999999090311MD1990071+9999REMSYN05801359 26/// /2207 10011 21026 39031 49929 50007 333 60005=
0130013590999992020011600004+60533+008200FM-12+077399999V0202301N008019999999N999999999+00141-00171099361ADDAA106000091MA1999999090371MD1210121+9999OD139901301999REMSYN06401359 16/// /2308 10014 21017 39037 49936 52012 60001 333 91113=
0110013590999992020011601004+60533+008200FM-12+077399999V0202401N008019999999N999999999+00161-00231099491ADDAA101000091MA1999999090501MD1310191+9999REMSYN05801359 26/// /2408 10016 21023 39050 49949 53019 333 60005=
0110013590999992020011602004+60533+008200FM-12+077399999V0202401N004019999999N999999999+00131-00191099611ADDAA101000091MA1999999090601MD1310291+9999REMSYN05801359 26/// /2404 10013 21019 39060 49961 53029 333 60005=
0110013590999992020011603004+60533+008200FM-12+077399999V0202301N003019999999N999999999+00161-00171099731ADDAA101000091MA1999999090721MD1210331+9999REMSYN05801359 26/// /2303 10016 21017 39072 49973 52033 333 60005=
0110013590999992020011604004+60533+008200FM-12+077399999V0202301N005019999999N999999999+00191-00091099811ADDAA101000091MA1999999090801MD1310301+9999REMSYN05801359 26/// /2305 10019 21009 39080 49981 53030 333 60005=
0110013590999992020011605004+60533+008200FM-12+077399999V0202301N006019999999N999999999+00181-00081099911ADDAA101000091MA1999999090891MD1210291+9999REMSYN05801359 26/// /2306 10018 21008 39089 49991 52029 333 60005=
0189013590999992020011606004+60533+008200FM-12+077399999V0202301N006019999999N999999999+00101-00011100081ADDAA112000631AA224000731AJ100313100310099KA1240N-00141MA1999999091021MD1310301+9999OD139901501999REMSYN08201359 16/// /2306 10010 21001 39102 40008 53030 69962 333 21014 4/031 70007 91115=
0110013590999992020011607004+60533+008200FM-12+077399999V0202201N008019999999N999999999+00091+00011100221ADDAA101003031MA1999999091141MD1310341+9999REMSYN05801359 26/// /2208 10009 20001 39114 40022 53034 333 60035=
0110013590999992020011608004+60533+008200FM-12+077399999V0202301N006019999999N999999999+00131-00011100361ADDAA101003031MA1999999091281MD1110381+9999REMSYN05801359 26/// /2306 10013 21001 39128 40036 51038 333 60035=
0110013590999992020011609004+60533+008200FM-12+077399999V0202201N010019999999N999999999+00171-00071100441ADDAA101000831MA1999999091371MD1110331+9999REMSYN05801359 26/// /2210 10017 21007 39137 40044 51033 333 69985=
0110013590999992020011610004+60533+008200FM-12+077399999V0202301N006019999999N999999999+00231-00051100601ADDAA101000131MA1999999091531MD1310381+9999REMSYN05801359 26/// /2306 10023 21005 39153 40060 53038 333 69915=
0110013590999992020011611004+60533+008200FM-12+077399999V0202301N007019999999N999999999+00241-00121100671ADDAA101000131MA1999999091601MD1110311+9999REMSYN05801359 26/// /2307 10024 21012 39160 40067 51031 333 69915=
0130013590999992020011612004+60533+008200FM-12+077399999V0202301N010019999999N999999999+00171-00211100781ADDAA106006031MA1999999091671MD1110301+9999OD139901901999REMSYN06401359 16/// /2310 10017 21021 39167 40078 51030 60061 333 91119=
0110013590999992020011613004+60533+008200FM-12+077399999V0202301N008019999999N999999999+00141-00261100861ADDAA101000091MA1999999091741MD1210201+9999REMSYN05801359 26/// /2308 10014 21026 39174 40086 52020 333 60005=
0110013590999992020011614004+60533+008200FM-12+077399999V0202301N010019999999N999999999+00111-00361100951ADDAA101000091MA1999999091811MD1110231+9999REMSYN05801359 26/// /2310 10011 21036 39181 40095 51023 333 60005=
0110013590999992020011615004+60533+008200FM-12+077399999V0202301N011019999999N999999999+00001-00381101071ADDAA101000091MA1999999091891MD1310221+9999REMSYN05801359 26/// /2311 10000 21038 39189 40107 53022 333 60005=
0110013590999992020011616004+60533+008200FM-12+077399999V0202401N002019999999N999999999+00021-00471101201ADDAA101000091MA1999999092011MD1310281+9999REMSYN05801359 26/// /2402 10002 21047 39201 40120 53028 333 60005=
0110013590999992020011617004+60533+008200FM-12+077399999V0201501N002019999999N999999999-00021-00411101391ADDAA101000091MA1999999092171MD1310351+9999REMSYN05801359 26/// /1502 11002 21041 39217 40139 53035 333 60005=
0149013590999992020011618004+60533+008200FM-12+077399999V0200901N001019999999N999999999-00031-00401101391ADDAA112008031KA1120M+00261MA1999999092161MD1110281+9999OD139901701999REMSYN07001359 16/// /0901 11003 21040 39216 40139 51028 60082 333 10026 91117=
0110013590999992020011619004+60533+008200FM-12+077399999V0202001N002019999999N999999999-00081-00411101391ADDAA101000091MA1999999092151MD1990141+9999REMSYN05801359 26/// /2002 11008 21041 39215 40139 50014 333 60005=
0110013590999992020011620004+60533+008200FM-12+077399999V0200701N002019999999N999999999-00041-00371101351ADDAA101000091MA1999999092131MD1510041+9999REMSYN05801359 26/// /0702 11004 21037 39213 40135 55004 333 60005=
0110013590999992020011621004+60533+008200FM-12+077399999V0202101N004019999999N999999999+00041-00391101341ADDAA101000091MA1999999092141MD1510021+9999REMSYN05801359 26/// /2104 10004 21039 39214 40134 55002 333 60005=
0110013590999992020011622004+60533+008200FM-12+077399999V0201801N001019999999N999999999+00051-00361101271ADDAA101000091MA1999999092081MD1510071+9999REMSYN05801359 26/// /1801 10005 21036 39208 40127 55007 333 60005=
0039013590999992020011623004+60533+008200FM-12+077399999V0209999C999999999999N999999999+99999+99999999999REMSYN03001359 46/// ///// 1//// 2////=
0130013590999992020011700004+60533+008200FM-12+077399999V0202701N002019999999N999999999-00061-00301101151ADDAA106000091MA1999999091941MD1810201+9999OD139900601999REMSYN06401359 16/// /2702 11006 21030 39194 40115 58020 60001 333 91106=
0110013590999992020011701004+60533+008200FM-12+077399999V0201701N002019999999N999999999+00011-00261101031ADDAA101000131MA1999999091851MD1810221+9999REMSYN05801359 26/// /1702 10001 21026 39185 40103 58022 333 69915=
0110013590999992020011702004+60533+008200FM-12+077399999V0200401N001019999999N999999999-00041-00171100971ADDAA101000131MA1999999091781MD1610261+9999REMSYN05801359 26/// /0401 11004 21017 39178 40097 56026 333 69915=
0110013590999992020011703004+60533+008200FM-12+077399999V0200401N001019999999N999999999+00131-00161100831ADDAA101000131MA1999999091711MD1610241+9999REMSYN05801359 26/// /0401 10013 21016 39171 40083 56024 333 69915=
0110013590999992020011704004+60533+008200FM-12+077399999V0203301N001019999999N999999999+00101-00141100741ADDAA101000131MA1999999091621MD1810231+9999REMSYN05801359 26/// /3301 10010 21014 39162 40074 58023 333 69915=
0110013590999992020011705004+60533+008200FM-12+077399999V0201601N001019999999N999999999+00061-00091100741ADDAA101000131MA1999999091601MD1610171+9999REMSYN05801359 26/// /1601 10006 21009 39160 40074 56017 333 69915=
0189013590999992020011706004+60533+008200FM-12+077399999V0200401N001019999999N999999999+00081-00071100691ADDAA112000731AA224008331AJ100333100330099KA1240N-00121MA1999999091561MD1610151+9999OD139900701999REMSYN08201359 16/// /0401 10008 21007 39156 40069 56015 69972 333 21012 4/033 70083 91107=
0110013590999992020011707004+60533+008200FM-12+077399999V0201901N001019999999N999999999+00231-00121100631ADDAA101000131MA1999999091551MD1510071+9999REMSYN05801359 26/// /1901 10023 21012 39155 40063 55007 333 69915=
0110013590999992020011708004+60533+008200FM-12+077399999V0200301N001019999999N999999999+00211-00111100611ADDAA101000091MA1999999091541MD1610071+9999REMSYN05801359 26/// /0301 10021 21011 39154 40061 56007 333 60005=
0110013590999992020011709004+60533+008200FM-12+077399999V0201101N002019999999N999999999+00281-00061100601ADDAA101000091MA1999999091551MD1510001+9999REMSYN05801359 26/// /1102 10028 21006 39155 40060 55000 333 60005=
0129013590999992020011710004+60533+008200FM-12+077399999V0200201N002019999999N999999999+00271-00031100621ADDAA101000091MA1999999091561MD1790019+9999REMSYN05801359 26/// /0202 10027 21003 39156 40062 54001 333 60005=EQDQ01.1    3APC3  
0110013590999992020011711004+60533+008200FM-12+077399999V0200301N003019999999N999999999+00321+00021100561ADDAA101000091MA1999999091531MD1990011+9999REMSYN05801359 26/// /0303 10032 20002 39153 40056 50001 333 60005=
0130013590999992020011712004+60533+008200FM-12+077399999V0200301N002019999999N999999999+00331+00041100541ADDAA106000131MA1999999091511MD1810041+9999OD139900501999REMSYN06401359 16/// /0302 10033 20004 39151 40054 58004 69911 333 91105=
0110013590999992020011713004+60533+008200FM-12+077399999V0200401N001019999999N999999999+00341+00041100511ADDAA101000091MA1999999091481MD1710081+9999REMSYN05801359 26/// /0401 10034 20004 39148 40051 57008 333 60005=
0110013590999992020011714004+60533+008200FM-12+077399999V0200901N001019999999N999999999+00351+00021100491ADDAA101000091MA1999999091471MD1710061+9999REMSYN05801359 26/// /0901 10035 20002 39147 40049 57006 333 60005=
0110013590999992020011715004+60533+008200FM-12+077399999V0202201N002019999999N999999999+00251+00031100531ADDAA101000091MA1999999091481MD1510031+9999REMSYN05801359 26/// /2202 10025 20003 39148 40053 55003 333 60005=
0110013590999992020011716004+60533+008200FM-12+077399999V0202101N004019999999N999999999+00281-00041100491ADDAA101000091MA1999999091451MD1810031+9999REMSYN05801359 26/// /2104 10028 21004 39145 40049 58003 333 60005=
0110013590999992020011717004+60533+008200FM-12+077399999V0200501N001019999999N999999999+00211-00051100501ADDAA101000091MA1999999091441MD1810041+9999REMSYN05801359 26/// /0501 10021 21005 39144 40050 58004 333 60005=
0149013590999992020011718004+60533+008200FM-12+077399999V0203501N002019999999N999999999+00231-00191100471ADDAA112000131KA1120M+00411MA1999999091421MD1610061+9999OD139900701999REMSYN07001359 16/// /3502 10023 21019 39142 40047 56006 69912 333 10041 91107=
0110013590999992020011719004+60533+008200FM-12+077399999V0202601N001019999999N999999999+00081-00261100521ADDAA101000091MA1999999091411MD1710031+9999REMSYN05801359 26/// /2601 10008 21026 39141 40052 57003 333 60005=
0110013590999992020011720004+60533+008200FM-12+077399999V0201901N001019999999N999999999-00031-00281100541ADDAA101000091MA1999999091391MD1710041+9999REMSYN05801359 26/// /1901 11003 21028 39139 40054 57004 333 60005=
0110013590999992020011721004+60533+008200FM-12+077399999V0202801N001019999999N999999999-00111-00281100561ADDAA101000091MA1999999091381MD1710031+9999REMSYN05801359 26/// /2801 11011 21028 39138 40056 57003 333 60005=
0110013590999992020011722004+60533+008200FM-12+077399999V0202501N001019999999N999999999-00121-00301100531ADDAA101000091MA1999999091351MD1710061+9999REMSYN05801359 26/// /2501 11012 21030 39135 40053 57006 333 60005=
0110013590999992020011723004+60533+008200FM-12+077399999V0209999C999999999999N999999999-00121-00281100481ADDAA101000091MA1999999091311MD1710081+9999REMSYN05801359 26/// /0000 11012 21028 39131 40048 57008 333 60005=
0130013590999992020011800004+60533+008200FM-12+077399999V0200201N001019999999N999999999-00141-00271100441ADDAA106000091MA1999999091271MD1710111+9999OD139900401999REMSYN06401359 16/// /0201 11014 21027 39127 40044 57011 60001 333 91104=
0110013590999992020011801004+60533+008200FM-12+077399999V0209999C999999999999N999999999-00121-00221100411ADDAA101000091MA1999999091251MD1710111+9999REMSYN05801359 26/// /0000 11012 21022 39125 40041 57011 333 60005=
0110013590999992020011802004+60533+008200FM-12+077399999V0202501N001019999999N999999999-00131-00171100391ADDAA101000331MA1999999091221MD1710091+9999REMSYN05801359 26/// /2501 11013 21017 39122 40039 57009 333 69935=
0110013590999992020011803004+60533+008200FM-12+077399999V0209999C999999999999N999999999-00121-00151100351ADDAA101000331MA1999999091191MD1710081+9999REMSYN05801359 26/// /0000 11012 21015 39119 40035 57008 333 69935=
0110013590999992020011804004+60533+008200FM-12+077399999V0209999C999999999999N999999999-00101-00121100311ADDAA101000931MA1999999091161MD1710091+9999REMSYN05801359 26/// /0000 11010 21012 39116 40031 57009 333 69995=
0110013590999992020011805004+60533+008200FM-12+077399999V0209999C999999999999N999999999-00101-00121100291ADDAA101002031MA1999999091141MD1710081+9999REMSYN05801359 26/// /0000 11010 21012 39114 40029 57008 333 60025=
0189013590999992020011806004+60533+008200FM-12+077399999V0202501N001019999999N999999999-00091-00111100301ADDAA112005032AA224004832AJ100373100370099KA1240N-00151MA1999999091151MD1510041+9999OD139900201999REMSYN08201359 16/// /2501 11009 21011 39115 40030 55004 60052 333 21015 4/037 70048 91102=
0129013590999992020011807004+60533+008200FM-12+077399999V0202301N001019999999N999999999-00101-00151100301ADDAA101000231MA1999999091151MD1790019+9999REMSYN05801359 26/// /2301 11010 21015 39115 40030 54001 333 69925=EQDQ01.1    3APC3  
0110013590999992020011808004+60533+008200FM-12+077399999V0202701N002019999999N999999999-00041-00181100311ADDAA101000091MA1999999091181MD1210041+9999REMSYN05801359 26/// /2702 11004 21018 39118 40031 52004 333 60005=
0110013590999992020011809004+60533+008200FM-12+077399999V0202201N003019999999N999999999+00081-00281100291ADDAA101000091MA1999999091201MD1210041+9999REMSYN05801359 26/// /2203 10008 21028 39120 40029 52004 333 60005=
0110013590999992020011810004+60533+008200FM-12+077399999V0202401N002019999999N999999999+00031-00291100331ADDAA101000091MA1999999091221MD1210071+9999REMSYN05801359 26/// /2402 10003 21029 39122 40033 52007 333 60005=
0110013590999992020011811004+60533+008200FM-12+077399999V0202901N002019999999N999999999+00061-00251100341ADDAA101000091MA1999999091241MD1210061+9999REMSYN05801359 26/// /2902 10006 21025 39124 40034 52006 333 60005=
0130013590999992020011812004+60533+008200FM-12+077399999V0202501N002019999999N999999999+00121-00281100351ADDAA106000231MA1999999091271MD1210071+9999OD139900501999REMSYN06401359 16/// /2502 10012 21028 39127 40035 52007 69921 333 91105=
0110013590999992020011813004+60533+008200FM-12+077399999V0202301N003019999999N999999999+00131-00341100421ADDAA101000091MA1999999091341MD1310111+9999REMSYN05801359 26/// /2303 10013 21034 39134 40042 53011 333 60005=
0039013590999992020011814004+60533+008200FM-12+077399999V0209999C999999999999N999999999+99999+99999999999REMSYN03001359 46/// ///// 1//// 2////=
0110013590999992020011815004+60533+008200FM-12+077399999V0202501N004019999999N999999999+00021-00451100591ADDAA101000091MA1999999091451MD1310181+9999REMSYN05801359 26/// /2504 10002 21045 39145 40059 53018 333 60005=
0110013590999992020011816004+60533+008200FM-12+077399999V0202701N002019999999N999999999+00011-00501100731ADDAA101000091MA1999999091581MD1310241+9999REMSYN05801359 26/// /2702 10001 21050 39158 40073 53024 333 60005=
0110013590999992020011817004+60533+008200FM-12+077399999V0202101N001019999999N999999999-00161-00531100901ADDAA101000091MA1999999091671MD1110311+9999REMSYN05801359 26/// /2101 11016 21053 39167 40090 51031 333 60005=
0247013590999992020011818004+60533+008200FM-12+077399999V0202501N003012200019N070001199-00141-00501100961ADDAA112000231AY121021AY201021GA1011+012501061GE19MSL   +99999+99999GF101991011999012501999999KA1120M+00201MA1999999091741MD1110291+9999MW1011OD139900701999REMSYN08201359 11689 12503 11014 21050 39174 40096 51029 69922 70120 81500 333 10020 91107=
0110013590999992020011819004+60533+008200FM-12+077399999V0202701N002019999999N999999999-00121-00491101071ADDAA101000091MA1999999091851MD1210271+9999REMSYN05801359 26/// /2702 11012 21049 39185 40107 52027 333 60005=
0110013590999992020011820004+60533+008200FM-12+077399999V0202401N003019999999N999999999-00091-00421101121ADDAA101000091MA1999999091901MD1110231+9999REMSYN05801359 26/// /2403 11009 21042 39190 40112 51023 333 60005=
0110013590999992020011821004+60533+008200FM-12+077399999V0202401N005019999999N999999999+00001-00401101201ADDAA101000091MA1999999092001MD1110261+9999REMSYN05801359 26/// /2405 10000 21040 39200 40120 51026 333 60005=
0110013590999992020011822004+60533+008200FM-12+077399999V0202401N004019999999N999999999-00011-00351101331ADDAA101000091MA1999999092121MD1310271+9999REMSYN05801359 26/// /2404 11001 21035 39212 40133 53027 333 60005=
0110013590999992020011823004+60533+008200FM-12+077399999V0202401N004019999999N999999999-00041-00391101401ADDAA101000091MA1999999092171MD1110261+9999REMSYN05801359 26/// /2404 11004 21039 39217 40140 51026 333 60005=
0130013590999992020011900004+60533+008200FM-12+077399999V0202401N003019999999N999999999-00011-00391101551ADDAA106000091MA1999999092321MD1310311+9999OD139901101999REMSYN06401359 16/// /2403 11001 21039 39232 40155 53031 60001 333 91111=
0110013590999992020011901004+60533+008200FM-12+077399999V0202401N003019999999N999999999-00041-00391101751ADDAA101000091MA1999999092491MD1310381+9999REMSYN05801359 26/// /2403 11004 21039 39249 40175 53038 333 60005=
0110013590999992020011902004+60533+008200FM-12+077399999V0202801N002019999999N999999999-00101-00451101981ADDAA101000091MA1999999092681MD1310501+9999REMSYN05801359 26/// /2802 11010 21045 39268 40198 53050 333 60005=
0110013590999992020011903004+60533+008200FM-12+077399999V0202601N003019999999N999999999-00111-00461102101ADDAA101000091MA1999999092781MD1110451+9999REMSYN05801359 26/// /2603 11011 21046 39278 40210 51045 333 60005=
0110013590999992020011904004+60533+008200FM-12+077399999V0202701N004019999999N999999999-00151-00561102261ADDAA101000091MA1999999092921MD1110431+9999REMSYN05801359 26/// /2704 11015 21056 39292 40226 51043 333 60005=
0110013590999992020011905004+60533+008200FM-12+077399999V0202701N003019999999N999999999-00171-00631102421ADDAA101000091MA1999999093051MD1310381+9999REMSYN05801359 26/// /2703 11017 21063 39305 40242 53038 333 60005=
