0138419410999992020010100004+23267+090700FM-12+000799999V0209999C000019999999N004000199+01671+01401101751ADDAA124000091AY101021AY201021MA1999999101691MD1999999+0181MW1051REMSYN06441941 31940 00000 10167 20140 30169 40175 70500 333 58018 70000=
0157419410999992020010103004+23267+090700FM-12+000799999V0209999C000019999999N004000199+02061+01601101841ADDAA124000091AY101021AY201021KA1240N+01611MA1999999101781MD1999999+0081MW1051REMSYN07041941 31940 00000 10206 20160 30178 40184 70500 333 20161 58008 70000=
0200419410999992020010106004+23267+090700FM-12+000799999V0203601N001010900019N005000199+02531+01401101981ADDAA124000091GA1041+005401061GA2051+090001001GE19MSL   +99999+99999GF105991041999005401999999MA1999999101931REMSYN08241941 32450 53602 10253 20140 30193 40198 85401 333 56909 58019 70000 84618 85080=
0178419410999992020010109004+23267+090700FM-12+000799999V0203601N001512200019N006000199+02761+01401101721ADDAA124000091GA1031+090001001GE19MSL   +99999+99999GF103991031999090001999999MA1999999101671REMSYN07641941 32956 33603 10276 20140 30167 40172 80001 333 56009 58017 70000 83080=
0129419410999992020010112004+23267+090700FM-12+000799999V0209999C000019999999N005000199+02021+01401101761ADDAA124000091KA1240M+02841MA1999999101711MD1999999+0231REMSYN06441941 32950 00000 10202 20140 30171 40176 333 10284 58023 70000=
0138419410999992020010115004+23267+090700FM-12+000799999V0209999C000019999999N004000199+01721+01301101981ADDAA124000091AY101021AY201021MA1999999101921MD1999999+0211MW1051REMSYN06441941 31940 00000 10172 20130 30192 40198 70500 333 58021 70000=
0138419410999992020010118004+23267+090700FM-12+000799999V0209999C000019999999N004000199+01701+01601101971ADDAA124000091AY101021AY201021MA1999999101911MD1999999+0211MW1051REMSYN06441941 31940 00000 10170 20160 30191 40197 70500 333 58021 70000=
0138419410999992020010121004+23267+090700FM-12+000799999V0203601N001019999999N004000199+01681+01601101941ADDAA124000091AY101021AY201021MA1999999101881MD1999999+0211MW1051REMSYN06441941 31940 03602 10168 20160 30188 40194 70500 333 58021 70000=
0138419410999992020010200004+23267+090700FM-12+000799999V0209999C000019999999N004000199+01661+01501101901ADDAA124000091AY101021AY201021MA1999999101841MD1999999+0151MW1051REMSYN06441941 31940 00000 10166 20150 30184 40190 70500 333 58015 70000=
0219419410999992020010203004+23267+090700FM-12+000799999V0209999C000010360019N005000199+02021+01701102181ADDAA124000091GA1041+004801061GA2061+036001031GE19MSL   +99999+99999GF106991041999004801999999KA1240N+01571MA1999999102121REMSYN08841941 32450 60000 10202 20170 30212 40218 85430 333 20157 56990 58034 70000 84616 86362=
0222419410999992020010206004+23267+090700FM-12+000799999V0209999C00001004801CN005000199+02351+01901102041ADDAA124000091GA1051+004801061GA2011+009001091GA3081+024001041GE19MSL   +99999+99999GF108991051999004801999999MA1999999101981REMSYN08841941 32450 80000 10235 20190 30198 40204 8632/ 333 56999 58005 70000 85616 81930 88458=
0200419410999992020010209004+23267+090700FM-12+000799999V0203601N001510240019N006000199+02421+01901101811ADDAA124000091GA1041+004801061GA2071+024001041GE19MSL   +99999+99999GF107991041999004801999999MA1999999101751REMSYN08241941 32456 73603 10242 20190 30175 40181 85420 333 56990 58008 70000 84616 87458=
0219419410999992020010212004+23267+090700FM-12+000799999V0209999C000010360019N006000199+02201+02001101821ADDAA124000091GA1041+004801061GA2061+036001031GE19MSL   +99999+99999GF106991041999004801999999KA1240M+02521MA1999999101761REMSYN08841941 32456 60000 10220 20200 30176 40182 84530 333 10252 56990 58005 70000 84616 86362=
0200419410999992020010215004+23267+090700FM-12+000799999V0209999C000010360019N005000199+01961+01901101871ADDAA124000091GA1041+004801061GA2061+036001031GE19MSL   +99999+99999GF106991041999004801999999MA1999999101811REMSYN08241941 32450 60000 10196 20190 30181 40187 84530 333 56990 59011 70000 84616 86362=
0228419410999992020010218004+23267+090700FM-12+000799999V0209999C000010360019N004000199+01901+01801101921ADDAA124000091AY121021AY221021GA1041+004801061GA2061+036001031GE19MSL   +99999+99999GF106991041999004801999999MA1999999101871MW1051REMSYN08841941 31440 60000 10190 20180 30187 40192 70522 84530 333 56990 59004 70000 84616 86362=
0228419410999992020010221004+23267+090700FM-12+000799999V0209999C000010360019N004000199+01801+01701101821ADDAA124000091AY121021AY221021GA1041+004801061GA2061+036001031GE19MSL   +99999+99999GF106991041999004801999999MA1999999101761MW1051REMSYN08841941 31440 60000 10180 20170 30176 40182 70522 84530 333 56990 59012 70000 84616 86362=
0228419410999992020010300004+23267+090700FM-12+000799999V0203601N001510360019N004000199+01821+01701101721ADDAA124000091AY121021AY221021GA1041+004801061GA2061+036001031GE19MSL   +99999+99999GF106991041999004801999999MA1999999101661MW1051REMSYN08841941 31440 63603 10182 20170 30166 40172 70522 84530 333 56990 59018 70000 84616 86362=
0286419410999992020010303004+23267+090700FM-12+000799999V0203601N00151004201CN005000199+01721+99999101961ADDAA103010031AA224010031AY161021AY261021GA1051+004201061GA2011+009001091GA3081+024001041GE19MSL   +99999+99999GF108991051999004201999999KA1240N+01651MA1999999101901MW1211REMSYN10641941 21450 83603 10172 20260 30190 40196 72166 8692/ 333 20165 56999 59022 6010/ 70100 85614 81930 88458=
0267419410999992020010306004+23267+090700FM-12+000799999V0203601N00211004201CN005000199+01791+01791101861ADDAA115018031AA224018031AY191021AY261021GA1051+004201061GA2011+009001091GA3081+024001041GE19MSL   +99999+99999GF108991051999004201999999MA1999999101801MW1951REMSYN10041941 11450 83604 10179 20179 30180 40186 60189 79596 8692/ 333 56999 59018 70180 85614 81930 88458=
0267419410999992020010309004+23267+090700FM-12+000799999V0203601N00151004801CN005000199+01881+01801101571ADDAA103002031AA224020031AY161021AY221021GA1051+004801061GA2011+009001091GA3081+024001041GE19MSL   +99999+99999GF108991051999004801999999MA1999999101511MW1021REMSYN10041941 21450 83603 10188 20180 30151 40157 70262 8632/ 333 56999 59024 6002/ 70200 85616 81930 88458=
0305419410999992020010312004+23267+090700FM-12+000799999V0203601N00101004801CN004000199+01791+99999101561ADDAA103010031AA224030031AY161021AY261021GA1051+004801061GA2011+009001091GA3081+024001041GE19MSL   +99999+99999GF108991051999004801999999KA1240M+02171MA1999999101501MW1621REMSYN10641941 11440 83602 10179 20180 30150 40156 60107 76266 8632/ 333 10217 56999 59026 70300 85616 81930 88458=EQDQ0118    2ATOD  
0267419410999992020010315004+23267+090700FM-12+000799999V0203601N00101004501CN004000199+01801+01701101621ADDAA103003031AA224031031AY161021AY261021GA1051+004501061GA2011+009001091GA3081+018001041GE19MSL   +99999+99999GF108991051999004501999999MA1999999101561MW1631REMSYN10041941 21440 83602 10180 20170 30156 40162 76366 8632/ 333 56999 59025 6003/ 70310 85615 81930 88456=
0289419410999992020010318004+23267+090700FM-12+000799999V0203601N00151005401CN003000199+01771+01771101661ADDAA109005031AA224033031AY161021AY261021GA1021+002401071GA2041+005401061GA3011+009001091GA4081+018001041GE19MSL   +99999+99999GF108991021999002401999999MA1999999101601MW1631REMSYN10641941 11330 83603 10177 20177 30160 40166 60058 76366 8572/ 333 56999 59027 70330 82708 84618 81930 88456=
0289419410999992020010321004+23267+090700FM-12+000799999V0209999C00001003901CN003000199+01731+01701101631ADDAA103001031AA224034031AY161021AY261021GA1021+002401071GA2041+003901061GA3011+009001091GA4081+018001041GE19MSL   +99999+99999GF108991021999002401999999MA1999999101571MW1211REMSYN10641941 21330 80000 10173 20170 30157 40163 72166 8672/ 333 56999 59019 6001/ 70340 82708 84613 81930 88456=
0241419410999992020010403004+23267+090700FM-12+000799999V0209999C00001004801CN005000199+01861+01801101751ADDAA124024031GA1051+004801061GA2011+009001091GA3081+024001041GE19MSL   +99999+99999GF108991051999004801999999KA1240N+01691MA1999999101691REMSYN09441941 32450 80000 10186 20180 30169 40175 8632/ 333 20169 56999 59014 70240 85616 81930 88458=
0222419410999992020010406004+23267+090700FM-12+000799999V0209999C00001004501CN006000199+02041+01801101561ADDAA124016031GA1051+004501061GA2011+009001091GA3081+024001041GE19MSL   +99999+99999GF108991051999004501999999MA1999999101501REMSYN08841941 32456 80000 10204 20180 30150 40156 8632/ 333 56999 59030 70160 85615 81930 88458=
0200419410999992020010409004+23267+090700FM-12+000799999V0203601N001010240019N006000199+02321+01701101351ADDAA124014031GA1041+004801061GA2061+024001041GE19MSL   +99999+99999GF106991041999004801999999MA1999999101301REMSYN08241941 32456 63602 10232 20170 30130 40135 85420 333 56990 59021 70140 84616 86458=
0219419410999992020010412004+23267+090700FM-12+000799999V0203601N000510240019N005000199+01971+01801101341ADDAA124006031GA1041+004501061GA2061+024001041GE19MSL   +99999+99999GF106991041999004501999999KA1240M+02441MA1999999101281REMSYN08841941 32450 63601 10197 20180 30128 40134 85420 333 10244 56990 59022 70060 84615 86458=
0200419410999992020010415004+23267+090700FM-12+000799999V0209999C000010240019N004000199+01871+01801101541ADDAA124003031GA1041+004501061GA2061+024001041GE19MSL   +99999+99999GF106991041999004501999999MA1999999101481REMSYN08241941 32440 60000 10187 20180 30148 40154 85420 333 56990 59008 70030 84615 86458=
0219419410999992020010418004+23267+090700FM-12+000799999V0209999C00001999999CN004000199+01761+01701101561ADDAA124000091GA1031+004501061GA2031+024001041GE19MSL   +99999+99999GF104991031999004501999999MA1999999101501REMSYN08241941 32440 40000 10176 20170 30150 40156 83520 333 56990 59010 70000 83615 83458=EQDQ01 024003SCOCIG
0110419410999992020010421004+23267+090700FM-12+000799999V0209999C000019999999N004000199+01741+01701101451ADDAA124000091MA1999999101391MD1999999-0181REMSYN05841941 32940 00000 10174 20170 30139 40145 333 59018 70000=
0138419410999992020010500004+23267+090700FM-12+000799999V0203601N001019999999N004000199+01741+01601101381ADDAA124000091AY121021AY201021MA1999999101321MD1999999-0131MW1051REMSYN06441941 31940 03602 10174 20160 30132 40138 70520 333 59013 70000=
0129419410999992020010503004+23267+090700FM-12+000799999V0203601N001019999999N006000199+01971+01801101491ADDAA124000091KA1240N+01661MA1999999101431MD1999999-0261REMSYN06441941 32956 03602 10197 20180 30143 40149 333 20166 59026 70000=
0200419410999992020010506004+23267+090700FM-12+000799999V0203601N001010240019N006000199+02421+01801101511ADDAA124000091GA1041+004801061GA2061+024001041GE19MSL   +99999+99999GF106991041999004801999999MA1999999101451REMSYN08241941 32456 63602 10242 20180 30145 40151 85420 333 56990 59024 70000 84616 86458=
0200419410999992020010509004+23267+090700FM-12+000799999V0203601N001510240019N006000199+02401+01601101321ADDAA124000091GA1041+004801061GA2061+024001041GE19MSL   +99999+99999GF106991041999004801999999MA1999999101271REMSYN08241941 32456 63603 10240 20160 30127 40132 85420 333 56990 59003 70000 84616 86458=
0219419410999992020010512004+23267+090700FM-12+000799999V0202701N001510240019N005000199+02021+01601101411ADDAA124000091GA1041+004801061GA2061+024001041GE19MSL   +99999+99999GF106991041999004801999999KA1240M+02441MA1999999101361REMSYN08841941 32450 62703 10202 20160 30136 40141 85420 333 10244 56990 58008 70000 84616 86458=
0200419410999992020010515004+23267+090700FM-12+000799999V0203601N001510240019N005000199+01861+01701101691ADDAA124000091GA1041+004801061GA2061+024001041GE19MSL   +99999+99999GF106991041999004801999999MA1999999101641REMSYN08241941 32450 63603 10186 20170 30164 40169 85420 333 56990 58016 70000 84616 86458=
0200419410999992020010518004+23267+090700FM-12+000799999V0203601N001510240019N004000199+01761+01701101771ADDAA124000091GA1041+004801061GA2061+024001041GE19MSL   +99999+99999GF106991041999004801999999MA1999999101711REMSYN08241941 32440 63603 10176 20170 30171 40177 85420 333 56990 58021 70000 84616 86458=
0110419410999992020010521004+23267+090700FM-12+000799999V0203601N001019999999N004000199+01731+01601101631ADDAA124000091MA1999999101571MD1999999+0181REMSYN05841941 32440 03602 10173 20160 30157 40163 333 58018 70000=
0138419410999992020010600004+23267+090700FM-12+000799999V0203601N001519999999N004000199+01441+01401101521ADDAA124000091AY121021AY201021MA1999999101461MD1999999+0141MW1051REMSYN06441941 31940 03603 10144 20140 30146 40152 70520 333 58014 70000=
0157419410999992020010603004+23267+090700FM-12+000799999V0203601N002119999999N005000199+01651+01501101671ADDAA124000091AY101021AY201021KA1240N+01311MA1999999101611MD1999999+0181MW1051REMSYN07041941 31950 03604 10165 20150 30161 40167 70500 333 20131 58018 70000=
0110419410999992020010606004+23267+090700FM-12+000799999V0203601N002119999999N006000199+02171+01501101891ADDAA124000091MA1999999101831MD1999999+0381REMSYN05841941 32956 03604 10217 20150 30183 40189 333 58038 70000=
0110419410999992020010609004+23267+090700FM-12+000799999V0203601N001519999999N006000199+02321+01201101701ADDAA124000091MA1999999101641MD1999999+0371REMSYN05841941 32956 03603 10232 20120 30164 40170 333 58037 70000=
0129419410999992020010612004+23267+090700FM-12+000799999V0203601N001019999999N005000199+01901+01501101771ADDAA124000091KA1240M+02371MA1999999101711MD1999999+0351REMSYN06441941 32950 03602 10190 20150 30171 40177 333 10237 58035 70000=
0110419410999992020010615004+23267+090700FM-12+000799999V0203601N003119999999N005000199+01701+01501101881ADDAA124000091MA1999999101821MD1999999+0181REMSYN05841941 32950 03606 10170 20150 30182 40188 333 58018 70000=
0138419410999992020010618004+23267+090700FM-12+000799999V0203601N001019999999N004000199+01521+01301101991ADDAA124000091AY101021AY201021MA1999999101931MD1999999+0221MW1051REMSYN06441941 31940 03602 10152 20130 30193 40199 70500 333 58022 70000=
0138419410999992020010621004+23267+090700FM-12+000799999V0203601N001519999999N004000199+01241+01101101811ADDAA124000091AY101021AY201021MA1999999101751MD1999999+0291MW1051REMSYN06441941 31940 03603 10124 20110 30175 40181 70500 333 58029 70000=
0138419410999992020010700004+23267+090700FM-12+000799999V0203601N001519999999N004000199+01241+01101101811ADDAA124000091AY101021AY201021MA1999999101751MD1999999+0291MW1051REMSYN06441941 31940 03603 10124 20110 30175 40181 70500 333 58029 70000=
0241419410999992020010703004+23267+090700FM-12+000799999V0203101N001510240019N004000199+01421+01301101911ADDAA124000091AY121021AY201021GA1041+004201061GA2061+024001041GE19MSL   +99999+99999GF106991041999004201999999KA1240N+01161MA1999999101861MW1051REMSYN08841941 31440 63103 10142 20130 30186 40191 70520 333 20116 56990 58025 70000 84614 86458=
0138419410999992020021900004+23267+090700FM-12+000799999V0209999C000019999999N004000199+01681+01601101491ADDAA124000091AY101021AY201021MA1999999101441MD1999999+0121MW1051REMSYN06441941 31940 00000 10168 20160 30144 40149 70500 333 58012 70000=
0129419410999992020021903004+23267+090700FM-12+000799999V0209999C000019999999N006000199+02301+01801101751ADDAA124000091KA1240N+01661MA1999999101701MD1999999+0231REMSYN06441941 32956 00000 10230 20180 30170 40175 333 20166 58023 70000=
0110419410999992020021906004+23267+090700FM-12+000799999V0209999C000019999999N006000199+02851+01201101701ADDAA124000091MA1999999101641MD1999999+0221REMSYN05841941 32956 00000 10285 20120 30164 40170 333 58022 70000=
0110419410999992020021909004+23267+090700FM-12+000799999V0202701N001019999999N007000199+02931+01001101431ADDAA124000091MA1999999101371MD1999999+0231REMSYN05841941 32957 02702 10293 20100 30137 40143 333 58023 70000=
0129419410999992020021912004+23267+090700FM-12+000799999V0202701N001019999999N006000199+02441+01501101311ADDAA124000091KA1240M+03031MA1999999101251MD1999999+0051REMSYN06441941 32956 02702 10244 20150 30125 40131 333 10303 58005 70000=
0110419410999992020021915004+23267+090700FM-12+000799999V0209999C000019999999N005000199+02041+01601101531ADDAA124000091MA1999999101471MD1999999+0001REMSYN05841941 32950 00000 10204 20160 30147 40153 333 58000 70000=
0110419410999992020021918004+23267+090700FM-12+000799999V0209999C000019999999N004000199+01921+01601101641ADDAA124000091MA1999999101581MD1999999+0061REMSYN05841941 32940 00000 10192 20160 30158 40164 333 58006 70000=
0138419410999992020021921004+23267+090700FM-12+000799999V0209999C000019999999N004000199+01921+01601101641ADDAA124000091AY101021AY201021MA1999999101581MD1999999+0001MW1051REMSYN06441941 31940 00000 10192 20160 30158 40164 70500 333 58000 70000=
0138419410999992020022000004+23267+090700FM-12+000799999V0209999C000019999999N004000199+01671+01601101481ADDAA124000091AY101021AY201021MA1999999101431MD1999999-0011MW1051REMSYN06441941 31940 00000 10167 20160 30143 40148 70500 333 59001 70000=
0129419410999992020022003004+23267+090700FM-12+000799999V0209999C000019999999N006000199+02171+01801101821ADDAA124000091KA1240N+01611MA1999999101761MD1999999+0061REMSYN06441941 32956 00000 10217 20180 30176 40182 333 20161 58006 70000=
0110419410999992020022006004+23267+090700FM-12+000799999V0202701N001019999999N007000199+02821+01701101741ADDAA124000091MA1999999101681MD1999999+0041REMSYN05841941 32957 02702 10282 20170 30168 40174 333 58004 70000=
0110419410999992020022009004+23267+090700FM-12+000799999V0202701N001019999999N007000199+03021+01201101481ADDAA124000091MA1999999101421MD1999999+0051REMSYN05841941 32957 02702 10302 20120 30142 40148 333 58005 70000=
0129419410999992020022012004+23267+090700FM-12+000799999V0202701N001019999999N006000199+02501+01701101431ADDAA124000091KA1240M+03051MA1999999101371MD1999999+0121REMSYN06441941 32956 02702 10250 20170 30137 40143 333 10305 58012 70000=
0110419410999992020022015004+23267+090700FM-12+000799999V0209999C000019999999N005000199+02141+01801101591ADDAA124000091MA1999999101531MD1999999+0061REMSYN05841941 32950 00000 10214 20180 30153 40159 333 58006 70000=
0110419410999992020022018004+23267+090700FM-12+000799999V0209999C000019999999N004000199+02081+01801101651ADDAA124000091MA1999999101591MD1999999+0011REMSYN05841941 32940 00000 10208 20180 30159 40165 333 58001 70000=
0110419410999992020022021004+23267+090700FM-12+000799999V0209999C000019999999N004000199+01881+01701101631ADDAA124000091MA1999999101571MD1999999+0111REMSYN05841941 32940 00000 10188 20170 30157 40163 333 58011 70000=
0110419410999992020022100004+23267+090700FM-12+000799999V0209999C000019999999N004000199+01841+01601101611ADDAA124000091MA1999999101551MD1999999+0121REMSYN05841941 32940 00000 10184 20160 30155 40161 333 58012 70000=
0129419410999992020022103004+23267+090700FM-12+000799999V0209999C000019999999N006000199+02241+01701101841ADDAA124000091KA1240N+01711MA1999999101781MD1999999+0021REMSYN06441941 32956 00000 10224 20170 30178 40184 333 20171 58002 70000=
0110419410999992020022106004+23267+090700FM-12+000799999V0203601N001019999999N006000199+02951+01901102021ADDAA124000091MA1999999101971MD1999999+0291REMSYN05841941 32956 03602 10295 20190 30197 40202 333 58029 70000=
0110419410999992020022109004+23267+090700FM-12+000799999V0203601N001519999999N007000199+03051+01601101651ADDAA124000091MA1999999101601MD1999999+0181REMSYN05841941 32957 03603 10305 20160 30160 40165 333 58018 70000=
0129419410999992020022112004+23267+090700FM-12+000799999V0209999C000019999999N005000199+02541+01601101731ADDAA124000091KA1240M+03081MA1999999101671MD1999999+0301REMSYN06441941 32950 00000 10254 20160 30167 40173 333 10308 58030 70000=
0110419410999992020022115004+23267+090700FM-12+000799999V0209999C000019999999N004000199+02171+01801101851ADDAA124000091MA1999999101791MD1999999+0261REMSYN05841941 32940 00000 10217 20180 30179 40185 333 58026 70000=
0110419410999992020022118004+23267+090700FM-12+000799999V0209999C000019999999N004000199+01941+01801101881ADDAA124000091MA1999999101821MD1999999+0231REMSYN05841941 32940 00000 10194 20180 30182 40188 333 58023 70000=
0110419410999992020022121004+23267+090700FM-12+000799999V0209999C000019999999N004000199+01901+01701101811ADDAA124000091MA1999999101751MD1999999+0181REMSYN05841941 32940 00000 10190 20170 30175 40181 333 58018 70000=
0138419410999992020022200004+23267+090700FM-12+000799999V0209999C000019999999N004000199+01821+01601101701ADDAA124000091AY101021AY201021MA1999999101641MD1999999+0091MW1051REMSYN06441941 31940 00000 10182 20160 30164 40170 70500 333 58009 70000=
0129419410999992020022203004+23267+090700FM-12+000799999V0209999C000019999999N005000199+02381+01801101931ADDAA124000091KA1240N+01761MA1999999101871MD1999999+0091REMSYN06441941 32950 00000 10238 20180 30187 40193 333 20176 58009 70000=
0110419410999992020022206004+23267+090700FM-12+000799999V0202301N001519999999N006000199+03001+01501101871ADDAA124000091MA1999999101811MD1999999-0161REMSYN05841941 32956 02303 10300 20150 30181 40187 333 59016 70000=
0110419410999992020022209004+23267+090700FM-12+000799999V0203201N001019999999N007000199+03161+01301101601ADDAA124000091MA1999999101551MD1999999-0051REMSYN05841941 32957 03202 10316 20130 30155 40160 333 59005 70000=
0129419410999992020022212004+23267+090700FM-12+000799999V0209999C000019999999N006000199+02601+01601101581ADDAA124000091KA1240M+03241MA1999999101531MD1999999-0141REMSYN06441941 32956 00000 10260 20160 30153 40158 333 10324 59014 70000=
0110419410999992020022215004+23267+090700FM-12+000799999V0209999C000019999999N005000199+02081+01801101701ADDAA124000091MA1999999101641MD1999999-0151REMSYN05841941 32950 00000 10208 20180 30164 40170 333 59015 70000=
0138419410999992020022218004+23267+090700FM-12+000799999V0209999C000019999999N004000199+01901+01701101711ADDAA124000091AY101021AY201021MA1999999101651MD1999999-0171MW1051REMSYN06441941 31940 00000 10190 20170 30165 40171 70500 333 59017 70000=
0138419410999992020022221004+23267+090700FM-12+000799999V0209999C000019999999N004000199+01861+01701101701ADDAA124000091AY101021AY201021MA1999999101641MD1999999-0111MW1051REMSYN06441941 31940 00000 10186 20170 30164 40170 70500 333 59011 70000=
0138419410999992020022300004+23267+090700FM-12+000799999V0209999C000019999999N005000199+01761+01701101641ADDAA124000091AY101021AY201021MA1999999101581MD1999999-0061MW1051REMSYN06441941 31950 00000 10176 20170 30158 40164 70500 333 59006 70000=
0129419410999992020022303004+23267+090700FM-12+000799999V0203201N001019999999N006000199+02421+01601101801ADDAA124000091KA1240N+01651MA1999999101741MD1999999-0131REMSYN06441941 32956 03202 10242 20160 30174 40180 333 20165 59013 70000=
0110419410999992020022306004+23267+090700FM-12+000799999V0209999C000019999999N006000199+02971+01701101761ADDAA124000091MA1999999101711MD1999999-0101REMSYN05841941 32956 00000 10297 20170 30171 40176 333 59010 70000=
0110419410999992020022309004+23267+090700FM-12+000799999V0209999C000019999999N006000199+03221+01001101451ADDAA124000091MA1999999101401MD1999999-0151REMSYN05841941 32956 00000 10322 20100 30140 40145 333 59015 70000=
0129419410999992020022312004+23267+090700FM-12+000799999V0209999C000019999999N006000199+02551+01301101351ADDAA124000091KA1240M+03251MA1999999101301MD1999999-0231REMSYN06441941 32956 00000 10255 20130 30130 40135 333 10325 59023 70000=
0110419410999992020022315004+23267+090700FM-12+000799999V0209999C000019999999N005000199+02151+01801101481ADDAA124000091MA1999999101421MD1999999-0221REMSYN05841941 32950 00000 10215 20180 30142 40148 333 59022 70000=
0110419410999992020022318004+23267+090700FM-12+000799999V0209999C000019999999N005000199+01951+01801101581ADDAA124000091MA1999999101521MD1999999-0131REMSYN05841941 32950 00000 10195 20180 30152 40158 333 59013 70000=
0138419410999992020022321004+23267+090700FM-12+000799999V0209999C000019999999N004000199+01851+01801101491ADDAA124000091AY101021AY201021MA1999999101431MD1999999-0211MW1051REMSYN06441941 31940 00000 10185 20180 30143 40149 70500 333 59021 70000=
0138419410999992020022400004+23267+090700FM-12+000799999V0209999C000019999999N004000199+01881+01801101341ADDAA124000091AY101021AY201021MA1999999101281MD1999999-0301MW1051REMSYN06441941 31940 00000 10188 20180 30128 40134 70500 333 59030 70000=
0219419410999992020022403004+23267+090700FM-12+000799999V0209999C000010240019N006000199+02371+02001101631ADDAA124000091GA1041+004801061GA2061+024001041GE19MSL   +99999+99999GF106991041999004801999999KA1240N+01761MA1999999101571REMSYN08841941 32456 60000 10237 20200 30157 40163 85420 333 20176 56990 59017 70000 84616 86458=
0110419410999992020022406004+23267+090700FM-12+000799999V0202701N001019999999N007000199+02921+01801101491ADDAA124000091MA1999999101431MD1999999-0281REMSYN05841941 32957 02702 10292 20180 30143 40149 333 59028 70000=
0222419410999992020022409004+23267+090700FM-12+000799999V0203601N00211004501CN006000199+02681+01901101261ADDAA124000091GA1051+004501061GA2011+009001091GA3081+024001041GE19MSL   +99999+99999GF108991051999004501999999MA1999999101211REMSYN08841941 32456 83604 10268 20190 30121 40126 8632/ 333 56999 59019 70000 85615 81930 88458=
0219419410999992020022412004+23267+090700FM-12+000799999V0203601N002110240019N006000199+02441+01901101191ADDAA124000091GA1041+004501061GA2061+024001041GE19MSL   +99999+99999GF106991041999004501999999KA1240M+03071MA1999999101131REMSYN08841941 32456 63604 10244 20190 30113 40119 85420 333 10307 56990 59017 70000 84615 86458=
0200419410999992020022415004+23267+090700FM-12+000799999V0209999C000010240019N005000199+02181+01901101221ADDAA124000091GA1041+004501061GA2061+024001041GE19MSL   +99999+99999GF199999041999004501999999MA1999999101161REMSYN08241941 32450 00000 10218 20190 30116 40122 85420 333 56990 59026 70000 84615 86458=
0200419410999992020022418004+23267+090700FM-12+000799999V0209999C000010240019N004000199+02121+01901101291ADDAA124000091GA1041+004501061GA2061+024001041GE19MSL   +99999+99999GF106991041999004501999999MA1999999101231REMSYN08241941 32440 60000 10212 20190 30123 40129 85420 333 56990 59023 70000 84615 86458=
0200419410999992020022421004+23267+090700FM-12+000799999V0209999C000010240019N004000199+02071+01901101321ADDAA124000091GA1041+004501061GA2061+024001041GE19MSL   +99999+99999GF106991041999004501999999MA1999999101261REMSYN08241941 32440 60000 10207 20190 30126 40132 85420 333 56990 59017 70000 84615 86458=
0200419410999992020022500004+23267+090700FM-12+000799999V0209999C000010240019N004000199+01941+01801101211ADDAA124000091GA1041+004501061GA2061+024001041GE19MSL   +99999+99999GF106991041999004501999999MA1999999101151REMSYN08241941 32440 60000 10194 20180 30115 40121 85420 333 56990 59013 70000 84615 86458=
0219419410999992020022503004+23267+090700FM-12+000799999V0209999C000010240019N006000199+02271+02001101411ADDAA124000091GA1041+004501061GA2061+024001041GE19MSL   +99999+99999GF106991041999004501999999KA1240N+01911MA1999999101351REMSYN08841941 32456 60000 10227 20200 30135 40141 85420 333 20191 56990 59022 70000 84615 86458=
0222419410999992020022506004+23267+090700FM-12+000799999V0202701N00151004801CN005000199+02421+02001101611ADDAA124000091GA1051+004801061GA2011+009001091GA3081+024001041GE19MSL   +99999+99999GF108991051999004801999999MA1999999101551REMSYN08841941 32450 82703 10242 20200 30155 40161 8632/ 333 56999 58012 70000 85616 81930 88458=
0222419410999992020022509004+23267+090700FM-12+000799999V0203601N00151004801CN005000199+02311+01901101281ADDAA124000091GA1051+004801061GA2011+009001091GA3081+024001041GE19MSL   +99999+99999GF108991051999004801999999MA1999999101221REMSYN08841941 32450 83603 10231 20190 30122 40128 8632/ 333 56999 58001 70000 85616 81930 88458=
0219419410999992020022512004+23267+090700FM-12+000799999V0203601N001510240019N005000199+02211+01801101281ADDAA124000091GA1041+004501061GA2061+024001041GE19MSL   +99999+99999GF106991041999004501999999KA1240M+02531MA1999999101221REMSYN08841941 32450 63603 10221 20180 30122 40128 85420 333 10253 56990 58003 70000 84615 86458=
0200419410999992020022515004+23267+090700FM-12+000799999V0209999C000010240019N005000199+02121+01801101331ADDAA124000091GA1041+004501061GA2061+024001041GE19MSL   +99999+99999GF106991041999004501999999MA1999999101271REMSYN08241941 32450 60000 10212 20180 30127 40133 85420 333 56990 58011 70000 84615 86458=
0200419410999992020022518004+23267+090700FM-12+000799999V0203601N001010240019N005000199+02011+01801101461ADDAA124000091GA1041+004501061GA2061+024001041GE19MSL   +99999+99999GF106991041999004501999999MA1999999101401REMSYN08241941 32450 63602 10201 20180 30140 40146 85420 333 56990 58017 70000 84615 86458=
0200419410999992020022521004+23267+090700FM-12+000799999V0209999C000010240019N004000199+01971+01801101321ADDAA124000091GA1041+004501061GA2061+024001041GE19MSL   +99999+99999GF106991041999004501999999MA1999999101261REMSYN08241941 32440 60000 10197 20180 30126 40132 85420 333 56990 58000 70000 84615 86458=
0200419410999992020022600004+23267+090700FM-12+000799999V0209999C000010240019N004000199+01921+01701101321ADDAA124000091GA1041+004501061GA2061+024001041GE19MSL   +99999+99999GF106991041999004501999999MA1999999101261REMSYN08241941 32440 60000 10192 20170 30126 40132 85420 333 56990 58011 70000 84615 86458=
0241419410999992020022603004+23267+090700FM-12+000799999V0209999C00001004501CN005000199+02021+01801101501ADDAA124000091GA1051+004501061GA2011+009001091GA3081+024001041GE19MSL   +99999+99999GF108991051999004501999999KA1240N+01811MA1999999101441REMSYN09441941 32450 80000 10202 20180 30144 40150 8632/ 333 20181 56999 58009 70000 85615 81930 88458=
0256419410999992020022606004+23267+090700FM-12+000799999V0203601N00101004501CN005000199+02021+01901101521ADDAA124001031AY121021AY221021GA1051+004501061GA2011+009001091GA3081+021001041GE19MSL   +99999+99999GF108991051999004501999999MA1999999101461MW1611REMSYN10041941 11450 83602 10202 20190 30146 40152 60014 76122 8632/ 333 56999 59009 70010 85615 81930 88457=
0264419410999992020022609004+23267+090700FM-12+000799999V0202301N00151999999CN006000199+02401+01701101311ADDAA103001031AA224002031AY161021AY221021GA1031+005401061GA2041+024001041GE19MSL   +99999+99999GF104991031999005401999999MA1999999101251MW1011REMSYN09441941 21456 42303 10240 20170 30125 40131 70162 83520 333 56990 58003 6001/ 70020 83618 84458=EQDQ01 024003SCOCIG
0264419410999992020022612004+23267+090700FM-12+000799999V0202301N001010240019N005000199+02181+01701101331ADDAA102001031AA224002031AY161021AY221021GA1041+004801061GA2061+024001041GE19MSL   +99999+99999GF106991041999004801999999KA1240M+02441MA1999999101271MW1031REMSYN10041941 11450 62302 10218 20170 30127 40133 60016 70362 85420 333 10244 56990 58005 70020 84616 86458=
0200419410999992020022615004+23267+090700FM-12+000799999V0203101N001010240019N004000199+01921+01701101451ADDAA124002031GA1041+004801061GA2061+024001041GE19MSL   +99999+99999GF106991041999004801999999MA1999999101391REMSYN08241941 32440 63102 10192 20170 30139 40145 85420 333 56990 58012 70020 84616 86458=
0200419410999992020022618004+23267+090700FM-12+000799999V0203101N001010240019N004000199+01731+01601101491ADDAA124002031GA1041+004801061GA2061+024001041GE19MSL   +99999+99999GF106991041999004801999999MA1999999101441REMSYN08241941 32440 63102 10173 20160 30144 40149 85420 333 56990 58004 70020 84616 86458=
0178419410999992020022621004+23267+090700FM-12+000799999V0209999C000012200019N004000199+01741+01601101471ADDAA124002031GA1031+004801061GE19MSL   +99999+99999GF104991031999004801999999MA1999999101421REMSYN07641941 32440 40000 10174 20160 30142 40147 84400 333 56900 58016 70020 83616=
0178419410999992020022700004+23267+090700FM-12+000799999V0209999C000012200019N005000199+01651+01601101451ADDAA124002031GA1021+005401061GE19MSL   +99999+99999GF102991021999005401999999MA1999999101391REMSYN07641941 32450 20000 10165 20160 30139 40145 82500 333 56900 58013 70020 82618=
0129419410999992020022703004+23267+090700FM-12+000799999V0203601N001019999999N006000199+02101+01601101641ADDAA124002031KA1240N+01641MA1999999101591MD1999999+0151REMSYN06441941 32956 03602 10210 20160 30159 40164 333 20164 58015 70020=
0110419410999992020022709004+23267+090700FM-12+000799999V0203601N001019999999N006000199+02791+01501101291ADDAA124000091MA1999999101231MD1999999-0021REMSYN05841941 32956 03602 10279 20150 30123 40129 333 59002 70000=
0129419410999992020022712004+23267+090700FM-12+000799999V0209999C000019999999N006000199+02361+01801101271ADDAA124000091KA1240M+02841MA1999999101211MD1999999-0061REMSYN06441941 32956 00000 10236 20180 30121 40127 333 10284 59006 70000=
0110419410999992020022715004+23267+090700FM-12+000799999V0209999C000019999999N005000199+02101+01801101421ADDAA124000091MA1999999101361MD1999999-0031REMSYN05841941 32950 00000 10210 20180 30136 40142 333 59003 70000=
0110419410999992020022718004+23267+090700FM-12+000799999V0209999C000019999999N004000199+01971+01801101441ADDAA124000091MA1999999101381MD1999999-0061REMSYN05841941 32940 00000 10197 20180 30138 40144 333 59006 70000=
0110419410999992020022721004+23267+090700FM-12+000799999V0209999C000019999999N004000199+01861+01801101351ADDAA124000091MA1999999101291MD1999999-0131REMSYN05841941 32940 00000 10186 20180 30129 40135 333 59013 70000=
0138419410999992020022800004+23267+090700FM-12+000799999V0209999C000019999999N004000199+01781+01701101401ADDAA124000091AY101021AY201021MA1999999101341MD1999999-0051MW1051REMSYN06441941 31940 00000 10178 20170 30134 40140 70500 333 59005 70000=
0129419410999992020022803004+23267+090700FM-12+000799999V0209999C000019999999N006000199+02321+01701101531ADDAA124000091KA1240N+01741MA1999999101471MD1999999-0121REMSYN06441941 32956 00000 10232 20170 30147 40153 333 20174 59012 70000=
0110419410999992020022806004+23267+090700FM-12+000799999V0203601N001519999999N007000199+02761+01501101441ADDAA124000091MA1999999101381MD1999999-0131REMSYN05841941 32957 03603 10276 20150 30138 40144 333 59013 70000=
0110419410999992020022809004+23267+090700FM-12+000799999V0203601N002119999999N006000199+02921+01401101131ADDAA124000091MA1999999101071MD1999999-0161REMSYN05841941 32956 03604 10292 20140 30107 40113 333 59016 70000=
0129419410999992020022812004+23267+090700FM-12+000799999V0203601N001019999999N006000199+02441+01501101051ADDAA124000091KA1240M+02971MA1999999100991MD1999999-0221REMSYN06441941 32956 03602 10244 20150 30099 40105 333 10297 59022 70000=
0110419410999992020022815004+23267+090700FM-12+000799999V0209999C000019999999N005000199+02041+01601101231ADDAA124000091MA1999999101171MD1999999-0171REMSYN05841941 32950 00000 10204 20160 30117 40123 333 59017 70000=
0110419410999992020022818004+23267+090700FM-12+000799999V0209999C000019999999N004000199+01961+01701101281ADDAA124000091MA1999999101221MD1999999-0161REMSYN05841941 32940 00000 10196 20170 30122 40128 333 59016 70000=
0110419410999992020022821004+23267+090700FM-12+000799999V0209999C000019999999N004000199+01841+01601101321ADDAA124000091MA1999999101271MD1999999-0021REMSYN05841941 32940 00000 10184 20160 30127 40132 333 59002 70000=
0110419410999992020022900004+23267+090700FM-12+000799999V0203601N001019999999N004000199+01771+01701101051ADDAA124000091MA1999999101001MD1999999-0341REMSYN05841941 32940 03602 10177 20170 30100 40105 333 59034 70000=
0129419410999992020022903004+23267+090700FM-12+000799999V0203601N001019999999N006000199+02321+01601101341ADDAA124000091KA1240N+01711MA1999999101291MD1999999-0181REMSYN06441941 32956 03602 10232 20160 30129 40134 333 20171 59018 70000=
0110419410999992020022906004+23267+090700FM-12+000799999V0203601N001019999999N006000199+02901+01401101291ADDAA124000091MA1999999101231MD1999999-0151REMSYN05841941 32956 03602 10290 20140 30123 40129 333 59015 70000=
0110419410999992020022909004+23267+090700FM-12+000799999V0203601N001519999999N006000199+03121+01201101041ADDAA124000091MA1999999101001MD1999999-0251REMSYN05841941 32956 03603 10312 20120 30100 40104 333 59025 70000=
0129419410999992020022912004+23267+090700FM-12+000799999V0209999C000019999999N005000199+02561+01501101141ADDAA124000091KA1240M+03161MA1999999101081MD1999999+0091REMSYN06441941 32950 00000 10256 20150 30108 40114 333 10316 58009 70000=
0110419410999992020022915004+23267+090700FM-12+000799999V0209999C000019999999N004000199+02161+01501101231ADDAA124000091MA1999999101171MD1999999+0001REMSYN05841941 32940 00000 10216 20150 30117 40123 333 58000 70000=
0110419410999992020022918004+23267+090700FM-12+000799999V0209999C000019999999N004000199+02041+01501101291ADDAA124000091MA1999999101231MD1999999+0011REMSYN05841941 32940 00000 10204 20150 30123 40129 333 58001 70000=
0110419410999992020022921004+23267+090700FM-12+000799999V0209999C000019999999N004000199+02021+01501101341ADDAA124000091MA1999999101281MD1999999+0011REMSYN05841941 32940 00000 10202 20150 30128 40134 333 58001 70000=
0110419410999992020030100004+23267+090700FM-12+000799999V0209999C000019999999N005000199+01881+01701101211ADDAA124000091MA1999999101151MD1999999+0151REMSYN05841941 32950 00000 10188 20170 30115 40121 333 58015 70000=
0129419410999992020030103004+23267+090700FM-12+000799999V0209999C000019999999N005000199+02471+01701101361ADDAA124000091KA1240N+01841MA1999999101301MD1999999+0071REMSYN06441941 32950 00000 10247 20170 30130 40136 333 20184 58007 70000=
0110419410999992020030106004+23267+090700FM-12+000799999V0209999C000019999999N006000199+02971+01501101311ADDAA124000091MA1999999101261MD1999999+0031REMSYN05841941 32956 00000 10297 20150 30126 40131 333 58003 70000=
0110419410999992020030109004+23267+090700FM-12+000799999V0202301N001019999999N006000199+03151+01601101051ADDAA124000091MA1999999101001MD1999999+0001REMSYN05841941 32956 02302 10315 20160 30100 40105 333 58000 70000=
0129419410999992020030112004+23267+090700FM-12+000799999V0209999C000019999999N006000199+02751+01701100991ADDAA124000091KA1240M+03221MA1999999100941MD1999999-0141REMSYN06441941 32956 00000 10275 20170 30094 40099 333 10322 59014 70000=
0110419410999992020030115004+23267+090700FM-12+000799999V0209999C000019999999N005000199+02221+01701101171ADDAA124000091MA1999999101111MD1999999-0061REMSYN05841941 32950 00000 10222 20170 30111 40117 333 59006 70000=
0110419410999992020030118004+23267+090700FM-12+000799999V0209999C000019999999N004000199+02141+01601101201ADDAA124000091MA1999999101141MD1999999-0091REMSYN05841941 32940 00000 10214 20160 30114 40120 333 59009 70000=
0110419410999992020030121004+23267+090700FM-12+000799999V0209999C000019999999N004000199+02001+01801101181ADDAA124000091MA1999999101121MD1999999-0161REMSYN05841941 32940 00000 10200 20180 30112 40118 333 59016 70000=
0110419410999992020030200004+23267+090700FM-12+000799999V0209999C000019999999N005000199+01901+01701101181ADDAA124000091MA1999999101121MD1999999-0031REMSYN05841941 32950 00000 10190 20170 30112 40118 333 59003 70000=
0219419410999992020030203004+23267+090700FM-12+000799999V0203601N001010360019N006000199+02421+01701101391ADDAA124000091GA1041+005401061GA2051+036001031GE19MSL   +99999+99999GF105991041999005401999999KA1240N+01861MA1999999101331REMSYN08841941 32456 53602 10242 20170 30133 40139 84530 333 20186 56990 58003 70000 84618 85362=
0110419410999992020030206004+23267+090700FM-12+000799999V0203601N001019999999N006000199+02951+01901101331ADDAA124000091MA1999999101281MD1999999+0021REMSYN05841941 32956 03602 10295 20190 30128 40133 333 58002 70000=
0129419410999992020030212004+23267+090700FM-12+000799999V0209999C000019999999N006000199+02741+01801101381ADDAA124000091KA1240M+03151MA1999999101321MD1999999+0381REMSYN06441941 32956 00000 10274 20180 30132 40138 333 10315 58038 70000=
0110419410999992020030215004+23267+090700FM-12+000799999V0209999C000019999999N005000199+02331+01901101191ADDAA124000091MA1999999101141MD1999999+0031REMSYN05841941 32950 00000 10233 20190 30114 40119 333 58003 70000=
0110419410999992020030218004+23267+090700FM-12+000799999V0209999C000019999999N004000199+02221+02001101251ADDAA124000091MA1999999101191MD1999999+0051REMSYN05841941 32940 00000 10222 20200 30119 40125 333 58005 70000=
0110419410999992020030221004+23267+090700FM-12+000799999V0209999C000019999999N004000199+02121+02001101201ADDAA124000091MA1999999101141MD1999999+0021REMSYN05841941 32940 00000 10212 20200 30114 40120 333 58002 70000=
0138419410999992020030300004+23267+090700FM-12+000799999V0209999C000019999999N004000199+02031+01901101251ADDAA124000091AY101021AY201021MA1999999101191MD1999999+0071MW1051REMSYN06441941 31940 00000 10203 20190 30119 40125 70500 333 58007 70000=
0286419410999992020030303004+23267+090700FM-12+000799999V0203601N00211004201CN004000199+01841+01701101491ADDAA103026031AA224026031AY191021AY261021GA1051+004201061GA2011+009001091GA3081+018001041GE19MSL   +99999+99999GF108991051999004201999999KA1240N+01611MA1999999101431MW1961REMSYN10641941 21440 83604 10184 20170 30143 40149 79696 8692/ 333 20161 56999 58010 6026/ 70260 85614 81930 88456=
0245419410999992020030306004+23267+090700FM-12+000799999V0203601N001010240019N006000199+02481+01801101221ADDAA109028031AA224028031AY191021AY261021GA1041+004501061GA2061+024001041GE19MSL   +99999+99999GF106991041999004501999999MA1999999101161MW1011REMSYN09441941 11456 63602 10248 20180 30116 40122 60288 70196 85420 333 56990 59012 70280 84615 86458=
0200419410999992020030309004+23267+090700FM-12+000799999V0203601N001010240019N006000199+02841+01501100961ADDAA124028031GA1041+004501061GA2061+024001041GE19MSL   +99999+99999GF106991041999004501999999MA1999999100911REMSYN08241941 32456 63602 10284 20150 30091 40096 85420 333 56990 59007 70280 84615 86458=
0219419410999992020030312004+23267+090700FM-12+000799999V0203601N001010240019N006000199+02571+01701100871ADDAA124028031GA1041+004501061GA2061+024001041GE19MSL   +99999+99999GF106991041999004501999999KA1240M+02901MA1999999100811REMSYN08841941 32456 63602 10257 20170 30081 40087 85420 333 10290 56990 59051 70280 84615 86458=
0110419410999992020030315004+23267+090700FM-12+000799999V0209999C000019999999N005000199+02141+01901101031ADDAA124028031MA1999999100971MD1999999-0171REMSYN05841941 32950 00000 10214 20190 30097 40103 333 59017 70280=
0110419410999992020030318004+23267+090700FM-12+000799999V0209999C000019999999N004000199+02081+02001101111ADDAA124028031MA1999999101051MD1999999-0141REMSYN05841941 32940 00000 10208 20200 30105 40111 333 59014 70280=
0110419410999992020030321004+23267+090700FM-12+000799999V0209999C000019999999N004000199+02061+01901101161ADDAA124028031MA1999999101101MD1999999-0041REMSYN05841941 32940 00000 10206 20190 30110 40116 333 59004 70280=
0200419410999992020030400004+23267+090700FM-12+000799999V0209999C000010240019N004000199+02001+01801101071ADDAA124028031GA1041+004501061GA2061+024001041GE19MSL   +99999+99999GF106991041999004501999999MA1999999101011REMSYN08241941 32440 60000 10200 20180 30101 40107 85420 333 56990 59018 70280 84615 86458=
0219419410999992020030403004+23267+090700FM-12+000799999V0209999C000010240019N006000199+02371+01901101391ADDAA124002031GA1041+004501061GA2061+024001041GE19MSL   +99999+99999GF106991041999004501999999KA1240N+01831MA1999999101331REMSYN08841941 32456 60000 10237 20190 30133 40139 85420 333 20183 56990 59010 70020 84615 86458=
0219419410999992020030406004+23267+090700FM-12+000799999V0202301N00101999999CN006000199+02931+01801101371ADDAA124000091GA1031+004801061GA2041+024001041GE19MSL   +99999+99999GF104991031999004801999999MA1999999101321REMSYN08241941 32456 42302 10293 20180 30132 40137 84420 333 56990 58016 70000 83616 84458=EQDQ01 024003SCOCIG
0200419410999992020030409004+23267+090700FM-12+000799999V0202301N001510240019N006000199+03021+01501101111ADDAA124000091GA1041+004501061GA2061+024001041GE19MSL   +99999+99999GF106991041999004501999999MA1999999101061REMSYN08241941 32456 62303 10302 20150 30106 40111 85420 333 56990 58015 70000 84615 86458=
0219419410999992020030412004+23267+090700FM-12+000799999V0209999C000010240019N005000199+02671+01901100941ADDAA124000091GA1041+004501061GA2061+024001041GE19MSL   +99999+99999GF106991041999004501999999KA1240M+03141MA1999999100891REMSYN08841941 32450 60000 10267 20190 30089 40094 85420 333 10314 56990 58008 70000 84615 86458=
0110419410999992020030415004+23267+090700FM-12+000799999V0209999C000019999999N005000199+02291+02001101071ADDAA124000091MA1999999101021MD1999999+0051REMSYN05841941 32950 00000 10229 20200 30102 40107 333 58005 70000=
0200419410999992020030418004+23267+090700FM-12+000799999V0209999C000010240019N005000199+02161+01601101141ADDAA124000091GA1041+004501061GA2061+024001041GE19MSL   +99999+99999GF106991041999004501999999MA1999999101081REMSYN08241941 32450 60000 10216 20160 30108 40114 85420 333 56990 58003 70000 84615 86458=
0200419410999992020030421004+23267+090700FM-12+000799999V0209999C000010240019N005000199+02021+01401101071ADDAA124000091GA1041+004501061GA2061+024001041GE19MSL   +99999+99999GF106991041999004501999999MA1999999101011REMSYN08241941 32950 60000 10202 20140 30101 40107 85420 333 56990 59009 70000 84615 86458=
0200419410999992020030500004+23267+090700FM-12+000799999V0203601N001510240019N004000199+02001+01801101051ADDAA124000091GA1041+004501061GA2061+024001041GE19MSL   +99999+99999GF106991041999004501999999MA1999999101001REMSYN08241941 32440 63603 10200 20180 30100 40105 85420 333 56990 59001 70000 84615 86458=
0238419410999992020030503004+23267+090700FM-12+000799999V0202701N00101999999CN005000199+02351+01801101291ADDAA124000091GA1031+004801061GA2041+024001041GE19MSL   +99999+99999GF104991031999004801999999KA1240N+01961MA1999999101231REMSYN08841941 32450 42702 10235 20180 30123 40129 84420 333 20196 56990 59010 70000 83616 84458=EQDQ01 024003SCOCIG
0200419410999992020030506004+23267+090700FM-12+000799999V0203201N001510360019N006000199+02881+01801101371ADDAA124000091GA1031+005401061GA2061+036001031GE19MSL   +99999+99999GF106991031999005401999999MA1999999101321REMSYN08241941 32456 63203 10288 20180 30132 40137 83530 333 56990 58000 70000 83618 86362=
0200419410999992020030509004+23267+090700FM-12+000799999V0203201N001010360019N006000199+02921+01701101021ADDAA124000091GA1031+005401061GA2061+036001031GE19MSL   +99999+99999GF106991031999005401999999MA1999999100971REMSYN08241941 32456 63202 10292 20170 30097 40102 83530 333 56990 59009 70000 83618 86362=
0219419410999992020030512004+23267+090700FM-12+000799999V0209999C000010240019N005000199+02621+01801101051ADDAA124000091GA1031+004801061GA2061+024001041GE19MSL   +99999+99999GF106991031999004801999999KA1240M+03061MA1999999101001REMSYN08841941 32450 60000 10262 20180 30100 40105 84420 333 10306 56990 58011 70000 83616 86458=
0200419410999992020030515004+23267+090700FM-12+000799999V0203601N002110240019N004000199+02421+01801101151ADDAA124000091GA1041+004801061GA2061+024001041GE19MSL   +99999+99999GF106991041999004801999999MA1999999101101REMSYN08241941 32440 63604 10242 20180 30110 40115 85420 333 56990 58008 70000 84616 86458=
0200419410999992020030518004+23267+090700FM-12+000799999V0202301N001510240019N004000199+02181+01801101221ADDAA124000091GA1041+004801061GA2061+024001041GE19MSL   +99999+99999GF106991041999004801999999MA1999999101161REMSYN08241941 32440 62303 10218 20180 30116 40122 85420 333 56990 58008 70000 84616 86458=
0200419410999992020030521004+23267+090700FM-12+000799999V0209999C000010240019N004000199+02051+01901101171ADDAA124000091GA1031+004801061GA2061+024001041GE19MSL   +99999+99999GF106991031999004801999999MA1999999101111REMSYN08241941 32440 60000 10205 20190 30111 40117 84420 333 56990 58010 70000 83616 86458=
0200419410999992020030600004+23267+090700FM-12+000799999V0209999C000010360019N005000199+02021+01901101221ADDAA124000091GA1031+005401061GA2061+036001031GE19MSL   +99999+99999GF106991031999005401999999MA1999999101161REMSYN08241941 32450 60000 10202 20190 30116 40122 83530 333 56990 58016 70000 83618 86362=
0219419410999992020030603004+23267+090700FM-12+000799999V0209999C000010360019N006000199+02221+01901101521ADDAA124000091GA1041+005401061GA2061+036001031GE19MSL   +99999+99999GF106991041999005401999999KA1240N+01981MA1999999101461REMSYN08841941 32456 60000 10222 20190 30146 40152 84530 333 20198 56990 58023 70000 84618 86362=
0245419410999992020030606004+23267+090700FM-12+000799999V0209999C000010240019N006000199+02321+02001101511ADDAA102000231AA224000231AY161021AY221021GA1041+004801061GA2071+024001041GE19MSL   +99999+99999GF107991041999004801999999MA1999999101451MW1031REMSYN09441941 11456 70000 10232 20200 30145 40151 69926 70362 85420 333 56990 58013 70002 84616 87458=
0200419410999992020030609004+23267+090700FM-12+000799999V0209999C000010240019N006000199+02821+01901101201ADDAA124000231GA1041+004801061GA2061+024001041GE19MSL   +99999+99999GF106991041999004801999999MA1999999101141REMSYN08241941 32456 60000 10282 20190 30114 40120 85420 333 56990 58017 70002 84616 86458=
0129419410999992020030612004+23267+090700FM-12+000799999V0203601N001019999999N006000199+02621+01801101131ADDAA124000231KA1240M+02851MA1999999101081MD1999999+0081REMSYN06441941 32956 03602 10262 20180 30108 40113 333 10285 58008 70002=
0110419410999992020030615004+23267+090700FM-12+000799999V0203601N001019999999N005000199+02231+01801101351ADDAA124000231MA1999999101291MD1999999+0191REMSYN05841941 32950 03602 10223 20180 30129 40135 333 58019 70002=
0110419410999992020030618004+23267+090700FM-12+000799999V0209999C000019999999N004000199+02151+02001101451ADDAA124000231MA1999999101391MD1999999+0231REMSYN05841941 32940 00000 10215 20200 30139 40145 333 58023 70002=
0110419410999992020030621004+23267+090700FM-12+000799999V0209999C000019999999N004000199+02121+01901101361ADDAA124000231MA1999999101301MD1999999+0201REMSYN05841941 32940 00000 10212 20190 30130 40136 333 58020 70002=
0200419410999992020030700004+23267+090700FM-12+000799999V0209999C000010240019N005000199+02151+02101101331ADDAA124000231GA1041+004801061GA2061+024001041GE19MSL   +99999+99999GF106991041999004801999999MA1999999101271REMSYN08241941 32450 60000 10215 20210 30127 40133 85420 333 56990 58011 70002 84616 86458=
0241419410999992020030703004+23267+090700FM-12+000799999V0209999C00001004201CN006000199+02221+02101101641ADDAA124000231GA1051+004201061GA2011+009001091GA3081+024001041GE19MSL   +99999+99999GF108991051999004201999999KA1240N+02001MA1999999101581REMSYN09441941 32456 80000 10222 20210 30158 40164 8632/ 333 20200 56999 58012 70002 85614 81930 88458=
0267419410999992020030706004+23267+090700FM-12+000799999V0202701N00101004201CN006000199+02241+02201101741ADDAA103001032AA224000132AY161021AY221021GA1051+004201061GA2011+009001091GA3081+024001041GE19MSL   +99999+99999GF108991051999004201999999MA1999999101681MW1021REMSYN10041941 11456 82702 10224 20220 30168 40174 60017 70262 8632/ 333 56999 58023 70001 85614 81930 88458=
0200419410999992020030709004+23267+090700FM-12+000799999V0209999C000010240019N006000199+02661+01801101291ADDAA124000131GA1041+004801061GA2061+024001041GE19MSL   +99999+99999GF106991041999004801999999MA1999999101241REMSYN08241941 32456 60000 10266 20180 30124 40129 85420 333 56990 58010 70001 84616 86458=
0219419410999992020030712004+23267+090700FM-12+000799999V0202701N001010240019N006000199+02421+01801101191ADDAA124001031GA1041+004801061GA2061+024001041GE19MSL   +99999+99999GF106991041999004801999999KA1240M+02701MA1999999101131REMSYN08841941 32456 62702 10242 20180 30113 40119 85420 333 10270 56990 58005 70010 84616 86458=
0110419410999992020030715004+23267+090700FM-12+000799999V0209999C000019999999N004000199+02021+01901101241ADDAA124001031MA1999999101181MD1999999+0181REMSYN05841941 32940 00000 10202 20190 30118 40124 333 58018 70010=
0110419410999992020030718004+23267+090700FM-12+000799999V0209999C000019999999N004000199+01951+01901101351ADDAA124001031MA1999999101291MD1999999-0101REMSYN05841941 32940 00000 10195 20190 30129 40135 333 59010 70010=
0110419410999992020030721004+23267+090700FM-12+000799999V0209999C000019999999N004000199+01921+01801101411ADDAA124001031MA1999999101351MD1999999+0051REMSYN05841941 32940 00000 10192 20180 30135 40141 333 58005 70010=
0110419410999992020030800004+23267+090700FM-12+000799999V0209999C000019999999N004000199+01901+01801101131ADDAA124001031MA1999999101071MD1999999-0201REMSYN05841941 32940 00000 10190 20180 30107 40113 333 59020 70010=
0129419410999992020030803004+23267+090700FM-12+000799999V0209999C000019999999N006000199+02351+01801101391ADDAA124001031KA1240N+01801MA1999999101331MD1999999-0251REMSYN06441941 32956 00000 10235 20180 30133 40139 333 20180 59025 70010=
0200419410999992020030806004+23267+090700FM-12+000799999V0203601N001010240019N006000199+02801+02301101351ADDAA124000091GA1041+004501061GA2061+024001041GE19MSL   +99999+99999GF106991041999004501999999MA1999999101301REMSYN08241941 32456 63602 10280 20230 30130 40135 85420 333 56990 59038 70000 84615 86458=
0200419410999992020030809004+23267+090700FM-12+000799999V0202701N001010240019N006000199+02941+02001101051ADDAA124000091GA1041+004801061GA2061+024001041GE19MSL   +99999+99999GF106991041999004801999999MA1999999101001REMSYN08241941 32456 62702 10294 20200 30100 40105 85420 333 56990 59024 70000 84616 86458=
0219419410999992020030812004+23267+090700FM-12+000799999V0209999C000010240019N005000199+02701+02101100981ADDAA124000091GA1041+004801061GA2061+024001041GE19MSL   +99999+99999GF106991041999004801999999KA1240M+03011MA1999999100931REMSYN08841941 32450 60000 10270 20210 30093 40098 85420 333 10301 56990 59020 70000 84616 86458=
0200419410999992020030815004+23267+090700FM-12+000799999V0209999C000010240019N005000199+02351+02201101161ADDAA124000091GA1041+004801061GA2061+024001041GE19MSL   +99999+99999GF106991041999004801999999MA1999999101111REMSYN08241941 32450 60000 10235 20220 30111 40116 85420 333 56990 59007 70000 84616 86458=
0110419410999992020030818004+23267+090700FM-12+000799999V0209999C000019999999N005000199+02151+02101101171ADDAA124000091MA1999999101111MD1999999-0181REMSYN05841941 32950 00000 10215 20210 30111 40117 333 59018 70000=
0110419410999992020030821004+23267+090700FM-12+000799999V0209999C000019999999N005000199+02101+02001101151ADDAA124000091MA1999999101091MD1999999-0261REMSYN05841941 32950 00000 10210 20200 30109 40115 333 59026 70000=
0214419410999992020030900004+23267+090700FM-12+000799999V0209999C000010240019N006000199+01951+01901101101ADDAA124000091GA1041+004501061GA2061+024001041GE19MSL   +99999+99999GF106991041999004501999999MA1999999101041MD1814201+9999REMSYN08241941 32456 60000 10195 20190 30104 40110 58420 333 56990 59003 70000 84615 86458=
0129419410999992020030903004+23267+090700FM-12+000799999V0209999C000019999999N006000199+02551+01801101321ADDAA124000091KA1240N+01901MA1999999101261MD1999999-0071REMSYN06441941 32956 00000 10255 20180 30126 40132 333 20190 59007 70000=
0110419410999992020030906004+23267+090700FM-12+000799999V0203601N001519999999N006000199+02921+01101101361ADDAA124000091MA1999999101311MD1999999+0011REMSYN05841941 32956 03603 10292 20110 30131 40136 333 58001 70000=
0110419410999992020030909004+23267+090700FM-12+000799999V0203601N001019999999N007000199+03001+01401101041ADDAA124000091MA1999999100991MD1999999-0011REMSYN05841941 32957 03602 10300 20140 30099 40104 333 59001 70000=
0129419410999992020030912004+23267+090700FM-12+000799999V0209999C000019999999N006000199+02651+01801101021ADDAA124000091KA1240M+03041MA1999999100971MD1999999+0041REMSYN06441941 32956 00000 10265 20180 30097 40102 333 10304 58004 70000=
0110419410999992020030915004+23267+090700FM-12+000799999V0209999C000019999999N004000199+02221+01601101201ADDAA124000091MA1999999101141MD1999999+0031REMSYN05841941 32940 00000 10222 20160 30114 40120 333 58003 70000=
0110419410999992020030918004+23267+090700FM-12+000799999V0209999C000019999999N004000199+02081+01701101241ADDAA124000091MA1999999101181MD1999999+0071REMSYN05841941 32940 00000 10208 20170 30118 40124 333 58007 70000=
0110419410999992020030921004+23267+090700FM-12+000799999V0209999C000019999999N004000199+02051+01901101051ADDAA124000091MA1999999100991MD1999999-0101REMSYN05841941 32940 00000 10205 20190 30099 40105 333 59010 70000=
0110419410999992020031000004+23267+090700FM-12+000799999V0209999C000019999999N005000199+01821+01601101131ADDAA124000091MA1999999101071MD1999999+0031REMSYN05841941 32950 00000 10182 20160 30107 40113 333 58003 70000=
0129419410999992020031003004+23267+090700FM-12+000799999V0209999C000019999999N006000199+02451+01401101431ADDAA124000091KA1240N+01761MA1999999101371MD1999999+0111REMSYN06441941 32956 00000 10245 20140 30137 40143 333 20176 58011 70000=
0110419410999992020031006004+23267+090700FM-12+000799999V0203601N001519999999N006000199+02941+01301101291ADDAA124000091MA1999999101241MD1999999-0071REMSYN05841941 32956 03603 10294 20130 30124 40129 333 59007 70000=
0110419410999992020031009004+23267+090700FM-12+000799999V0203601N001519999999N006000199+03001+01201101021ADDAA124000091MA1999999100971MD1999999-0021REMSYN05841941 32956 03603 10300 20120 30097 40102 333 59002 70000=
0129419410999992020031012004+23267+090700FM-12+000799999V0203601N001019999999N006000199+02671+01301100971ADDAA124000091KA1240M+03101MA1999999100921MD1999999-0071REMSYN06441941 32956 03602 10267 20130 30092 40097 333 10310 59007 70000=
0110419410999992020031015004+23267+090700FM-12+000799999V0209999C000019999999N005000199+02201+01601101141ADDAA124000091MA1999999101091MD1999999-0051REMSYN05841941 32950 00000 10220 20160 30109 40114 333 59005 70000=
0110419410999992020031018004+23267+090700FM-12+000799999V0209999C000019999999N004000199+02081+01901101161ADDAA124000091MA1999999101111MD1999999-0071REMSYN05841941 32940 00000 10208 20190 30111 40116 333 59007 70000=
0110419410999992020031021004+23267+090700FM-12+000799999V0209999C000019999999N004000199+02051+01901100991ADDAA124000091MA1999999100931MD1999999-0061REMSYN05841941 32940 00000 10205 20190 30093 40099 333 59006 70000=
0200419410999992020031100004+23267+090700FM-12+000799999V0209999C000010360019N005000199+01951+01901101091ADDAA124000091GA1041+004801061GA2061+036001031GE19MSL   +99999+99999GF106991041999004801999999MA1999999101031REMSYN08241941 32450 60000 10195 20190 30103 40109 85430 333 56990 59002 70000 84616 86362=
0129419410999992020031103004+23267+090700FM-12+000799999V0209999C000019999999N006000199+02601+01401101261ADDAA124000091KA1240N+01881MA1999999101201MD1999999-0171REMSYN06441941 32956 00000 10260 20140 30120 40126 333 20188 59017 70000=
0110419410999992020031106004+23267+090700FM-12+000799999V0202701N001019999999N006000199+03031+01401101421ADDAA124000091MA1999999101371MD1999999+0171REMSYN05841941 32956 02702 10303 20140 30137 40142 333 58017 70000=
0129419410999992020031112004+23267+090700FM-12+000799999V0202701N001019999999N006000199+02851+01701100971ADDAA124000091KA1240M+03171MA1999999100921MD1999999+0001REMSYN06441941 32956 02702 10285 20170 30092 40097 333 10317 58000 70000=
0110419410999992020031115004+23267+090700FM-12+000799999V0209999C000019999999N005000199+02421+01801101051ADDAA124000091MA1999999101001MD1999999-0091REMSYN05841941 32950 00000 10242 20180 30100 40105 333 59009 70000=
0110419410999992020031118004+23267+090700FM-12+000799999V0209999C000019999999N004000199+02321+01801101121ADDAA124000091MA1999999101071MD1999999-0041REMSYN05841941 32940 00000 10232 20180 30107 40112 333 59004 70000=
0110419410999992020031121004+23267+090700FM-12+000799999V0209999C000019999999N004000199+02301+01901101191ADDAA124000091MA1999999101131MD1999999+0201REMSYN05841941 32940 00000 10230 20190 30113 40119 333 58020 70000=
0110419410999992020031200004+23267+090700FM-12+000799999V0209999C000019999999N004000199+02121+01901101171ADDAA124000091MA1999999101111MD1999999+0071REMSYN05841941 32940 00000 10212 20190 30111 40117 333 58007 70000=
0129419410999992020031203004+23267+090700FM-12+000799999V0209999C000019999999N006000199+02661+01901101381ADDAA124000091KA1240N+02001MA1999999101331MD1999999+0131REMSYN06441941 32956 00000 10266 20190 30133 40138 333 20200 58013 70000=
0110419410999992020031206004+23267+090700FM-12+000799999V0201801N001519999999N006000199+03251+01001101371ADDAA124000091MA1999999101311MD1999999-0061REMSYN05841941 32956 01803 10325 20100 30131 40137 333 59006 70000=
0219419410999992020031212004+23267+090700FM-12+000799999V0209999C000010240019N006000199+02951+01901101201ADDAA124000091GA1041+004801061GA2061+024001041GE19MSL   +99999+99999GF106991041999004801999999KA1240M+03401MA1999999101141REMSYN08841941 32456 60000 10295 20190 30114 40120 85420 333 10340 56990 58022 70000 84616 86458=
0200419410999992020031215004+23267+090700FM-12+000799999V0201801N001010240019N005000199+02651+02101101411ADDAA124000091GA1041+004801061GA2061+024001041GE19MSL   +99999+99999GF106991041999004801999999MA1999999101351REMSYN08241941 32450 61802 10265 20210 30135 40141 85420 333 56990 58035 70000 84616 86458=
0200419410999992020031218004+23267+090700FM-12+000799999V0209999C000010240019N005000199+02451+02201101411ADDAA124000091GA1041+004801061GA2061+024001041GE19MSL   +99999+99999GF106991041999004801999999MA1999999101351REMSYN08241941 32450 60000 10245 20220 30135 40141 85420 333 56990 58028 70000 84616 86458=
0200419410999992020031221004+23267+090700FM-12+000799999V0209999C000010240019N004000199+02351+02201101321ADDAA124000091GA1041+004801061GA2061+024001041GE19MSL   +99999+99999GF106991041999004801999999MA1999999101261REMSYN08241941 32440 60000 10235 20220 30126 40132 85420 333 56990 58013 70000 84616 86458=
0241419410999992020031300004+23267+090700FM-12+000799999V0209999C000010240019N005000199+02041+01901101391ADDAA124999999AY121021AY201021GA1041+004801061GA2061+024001041GE19MSL   +99999+99999GF106991041999004801999999MA1999999101341MW1541REMSYN08241941 32450 60000 10204 20190 30134 40139 75420 333 56990 58025 70000 84616 86458=EQDQ01  00002PRCP24
0129419410999992020031303004+23267+090700FM-12+000799999V0209999C000019999999N006000199+02821+01801101521ADDAA124000091KA1240N+02021MA1999999101471MD1999999+0141REMSYN06441941 32956 00000 10282 20180 30147 40152 333 20202 58014 70000=
0188419410999992020031315004+23267+090700FM-12+000799999V0209999C000012200019N004000199+02661+02201101381ADDAA124000091GA1041+004501061GA2999+999999051GE19MSL   +99999+99999GF104991041999004501999999MA1999999101321REMSYN07041941 32440 40000 10266 20220 30132 40138 84420 333 56990 59003 70000=
0219419410999992020031318004+23267+090700FM-12+000799999V0209999C00001999999CN004000199+02491+02101101411ADDAA124000091GA1031+004801061GA2041+024001041GE19MSL   +99999+99999GF104991031999004801999999MA1999999101351REMSYN08241941 32440 40000 10249 20210 30135 40141 84420 333 56990 58000 70000 83616 84458=EQDQ01 024003SCOCIG
0219419410999992020031321004+23267+090700FM-12+000799999V0209999C00001999999CN004000199+02401+02101101321ADDAA124000091GA1031+004801061GA2041+024001041GE19MSL   +99999+99999GF104991031999004801999999MA1999999101261REMSYN08241941 32440 40000 10240 20210 30126 40132 84420 333 56990 58000 70000 83616 84458=EQDQ01 024003SCOCIG
0200419410999992020031400004+23267+090700FM-12+000799999V0203601N001010240019N004000199+02251+02001101211ADDAA124000091GA1041+004801061GA2061+024001041GE19MSL   +99999+99999GF106991041999004801999999MA1999999101161REMSYN08241941 32440 63602 10225 20200 30116 40121 85420 333 56990 59018 70000 84616 86458=
0129419410999992020031403004+23267+090700FM-12+000799999V0203601N001019999999N006000199+02701+01801101411ADDAA124000091KA1240N+02251MA1999999101351MD1999999-0121REMSYN06441941 32956 03602 10270 20180 30135 40141 333 20225 59012 70000=
0200419410999992020031415004+23267+090700FM-12+000799999V0202701N003110240019N005000199+02481+01901101421ADDAA124000091GA1041+004801061GA2061+024001041GE19MSL   +99999+99999GF106991041999004801999999MA1999999101361REMSYN08241941 32450 62706 10248 20190 30136 40142 85420 333 56990 58004 70000 84616 86458=
0200419410999992020031418004+23267+090700FM-12+000799999V0202701N001510240019N005000199+02351+02001101511ADDAA124000091GA1041+004801061GA2061+024001041GE19MSL   +99999+99999GF106991041999004801999999MA1999999101451REMSYN08241941 32450 62703 10235 20200 30145 40151 85420 333 56990 58010 70000 84616 86458=
0200419410999992020031421004+23267+090700FM-12+000799999V0209999C000010240019N004000199+02301+02001101421ADDAA124000091GA1041+004801061GA2061+024001041GE19MSL   +99999+99999GF106991041999004801999999MA1999999101361REMSYN08241941 32440 60000 10230 20200 30136 40142 85420 333 56990 58010 70000 84616 86458=
0200419410999992020031500004+23267+090700FM-12+000799999V0203601N001010240019N005000199+02101+01901101321ADDAA124000091GA1041+004801061GA2061+024001041GE19MSL   +99999+99999GF106991041999004801999999MA1999999101271REMSYN08241941 32450 63602 10210 20190 30127 40132 85420 333 56990 58011 70000 84616 86458=
0129419410999992020031503004+23267+090700FM-12+000799999V0203101N002119999999N006000199+02451+01901101471ADDAA124000091KA1240N+02081MA1999999101421MD1999999+0071REMSYN06441941 32956 03104 10245 20190 30142 40147 333 20208 58007 70000=
0110419410999992020031506004+23267+090700FM-12+000799999V0203601N001519999999N006000199+03161+01701101411ADDAA124000091MA1999999101351MD1999999+0071REMSYN05841941 32956 03603 10316 20170 30135 40141 333 58007 70000=
0110419410999992020031509004+23267+090700FM-12+000799999V0202701N001019999999N006000199+03321+01701100991ADDAA124000091MA1999999100941MD1999999-0061REMSYN05841941 32956 02702 10332 20170 30094 40099 333 59006 70000=
0129419410999992020031512004+23267+090700FM-12+000799999V0203101N002119999999N006000199+02851+01901100941ADDAA124000091KA1240M+03361MA1999999100881MD1999999-0141REMSYN06441941 32956 03104 10285 20190 30088 40094 333 10336 59014 70000=
0110419410999992020031515004+23267+090700FM-12+000799999V0203101N001519999999N005000199+02501+01901101151ADDAA124000091MA1999999101091MD1999999-0271REMSYN05841941 32950 03103 10250 20190 30109 40115 333 59027 70000=
0110419410999992020031518004+23267+090700FM-12+000799999V0209999C000019999999N004000199+02421+01901101201ADDAA124000091MA1999999101141MD1999999-0311REMSYN05841941 32940 00000 10242 20190 30114 40120 333 59031 70000=
0110419410999992020031521004+23267+090700FM-12+000799999V0209999C000019999999N004000199+02351+02001101241ADDAA124000091MA1999999101181MD1999999-0181REMSYN05841941 32940 00000 10235 20200 30118 40124 333 59018 70000=
0110419410999992020031600004+23267+090700FM-12+000799999V0203101N002119999999N004000199+02021+02001101171ADDAA124000091MA1999999101121MD1999999-0151REMSYN05841941 32940 03104 10202 20200 30112 40117 333 59015 70000=
0129419410999992020031603004+23267+090700FM-12+000799999V0203101N001019999999N006000199+02601+02001101471ADDAA124000091KA1240N+02001MA1999999101421MD1999999+0001REMSYN06441941 32956 03102 10260 20200 30142 40147 333 20200 58000 70000=
0200419410999992020031606004+23267+090700FM-12+000799999V0203601N001510240019N005000199+02961+01901101551ADDAA124000091GA1041+004801061GA2061+024001041GE19MSL   +99999+99999GF106991041999004801999999MA1999999101491REMSYN08241941 32950 63603 10296 20190 30149 40155 84520 333 56990 58014 70000 84616 86458=
0110419410999992020031609004+23267+090700FM-12+000799999V0203101N001519999999N006000199+03211+01601101231ADDAA124000091MA1999999101171MD1999999+0231REMSYN05841941 32956 03103 10321 20160 30117 40123 333 58023 70000=
0129419410999992020031612004+23267+090700FM-12+000799999V0203601N001019999999N005000199+02851+01901101261ADDAA124000091KA1240M+03221MA1999999101201MD1999999+0321REMSYN06441941 32950 03602 10285 20190 30120 40126 333 10322 58032 70000=
0110419410999992020031615004+23267+090700FM-12+000799999V0209999C000019999999N005000199+02451+01801101331ADDAA124000091MA1999999101271MD1999999+0181REMSYN05841941 32950 00000 10245 20180 30127 40133 333 58018 70000=
0110419410999992020031618004+23267+090700FM-12+000799999V0209999C000019999999N005000199+02301+02001101351ADDAA124000091MA1999999101291MD1999999+0151REMSYN05841941 32950 00000 10230 20200 30129 40135 333 58015 70000=
0110419410999992020031700004+23267+090700FM-12+000799999V0209999C000019999999N004000199+02181+01701101331ADDAA124000091MA1999999101281MD1999999+0161REMSYN05841941 32940 00000 10218 20170 30128 40133 333 58016 70000=
0129419410999992020031703004+23267+090700FM-12+000799999V0209999C000019999999N005000199+02681+01601101611ADDAA124000091KA1240N+02151MA1999999101561MD1999999+0141REMSYN06441941 32950 00000 10268 20160 30156 40161 333 20215 58014 70000=
0110419410999992020031706004+23267+090700FM-12+000799999V0202701N001519999999N005000199+03101+01501101541ADDAA124000091MA1999999101441MD1999999-0051REMSYN05841941 32950 02703 10310 20150 30144 40154 333 59005 70000=
0110419410999992020031709004+23267+090700FM-12+000799999V0203601N001019999999N007000199+03211+01501101361ADDAA124000091MA1999999101301MD1999999+0131REMSYN05841941 32957 03602 10321 20150 30130 40136 333 58013 70000=
0129419410999992020031712004+23267+090700FM-12+000799999V0209999C000019999999N005000199+02871+01801101221ADDAA124000091KA1240M+03261MA1999999101161MD1999999-0041REMSYN06441941 32950 00000 10287 20180 30116 40122 333 10326 59004 70000=
0110419410999992020031715004+23267+090700FM-12+000799999V0209999C000019999999N005000199+02551+01801101371ADDAA124000091MA1999999101311MD1999999+0041REMSYN05841941 32950 00000 10255 20180 30131 40137 333 58004 70000=
0110419410999992020031718004+23267+090700FM-12+000799999V0209999C000019999999N005000199+02351+01901101371ADDAA124000091MA1999999101311MD1999999+0021REMSYN05841941 32950 00000 10235 20190 30131 40137 333 58002 70000=
0110419410999992020031721004+23267+090700FM-12+000799999V0209999C000019999999N004000199+02301+01801101301ADDAA124000091MA1999999101241MD1999999+0041REMSYN05841941 32940 00000 10230 20180 30124 40130 333 58004 70000=
0200419410999992020031800004+23267+090700FM-12+000799999V0203601N001010240019N005000199+02121+01701101311ADDAA124000091GA1041+004801061GA2061+024001041GE19MSL   +99999+99999GF106991041999004801999999MA1999999101261REMSYN08241941 32450 63602 10212 20170 30126 40131 85420 333 56990 59002 70000 84616 86458=
0129419410999992020031803004+23267+090700FM-12+000799999V0209999C000019999999N006000199+02701+01501101501ADDAA124000091KA1240N+02001MA1999999101451MD1999999-0111REMSYN06441941 32956 00000 10270 20150 30145 40150 333 20200 59011 70000=
0110419410999992020031806004+23267+090700FM-12+000799999V0209999C000019999999N007000199+03061+01501101471ADDAA124000091MA1999999101411MD1999999-0031REMSYN05841941 32957 00000 10306 20150 30141 40147 333 59003 70000=
0110419410999992020031809004+23267+090700FM-12+000799999V0203101N001019999999N007000199+03301+01401101071ADDAA124000091MA1999999101011MD1999999+0001REMSYN05841941 32957 03102 10330 20140 30101 40107 333 58000 70000=
0115419410999992020031812004+23267+090700FM-12+000799999V0203101N001019999999N006000199+02881+01801101031ADDAA124000091KA1240M+03351MA1999999100971REMSYN06441941 32956 03102 10288 20180 30097 40103 333 10335 56019 70000=
0110419410999992020031818004+23267+090700FM-12+000799999V0209999C000019999999N005000199+02401+01901101141ADDAA124000091MA1999999101081MD1999999-0231REMSYN05841941 32950 00000 10240 20190 30108 40114 333 59023 70000=
0110419410999992020031821004+23267+090700FM-12+000799999V0209999C000019999999N004000199+02221+01901101161ADDAA124000091MA1999999101111MD1999999-0131REMSYN05841941 32940 00000 10222 20190 30111 40116 333 59013 70000=
0110419410999992020031900004+23267+090700FM-12+000799999V0209999C000019999999N004000199+02121+02001101171ADDAA124000091MA1999999101111MD1999999-0191REMSYN05841941 32940 00000 10212 20200 30111 40117 333 59019 70000=
0129419410999992020031903004+23267+090700FM-12+000799999V0203601N001019999999N006000199+02621+01801101371ADDAA124000091KA1240N+02021MA1999999101321MD1999999-0131REMSYN06441941 32956 03602 10262 20180 30132 40137 333 20202 59013 70000=
0110419410999992020031906004+23267+090700FM-12+000799999V0203601N001019999999N007000199+03141+01101101351ADDAA124000091MA1999999101291MD1999999-0121REMSYN05841941 32957 03602 10314 20110 30129 40135 333 59012 70000=
0110419410999992020031909004+23267+090700FM-12+000799999V0203601N001019999999N007000199+03241+01601100921ADDAA124000091MA1999999100921MD1999999-0091REMSYN05841941 32957 03602 10324 20160 30092 40092 333 59009 70000=
0129419410999992020031912004+23267+090700FM-12+000799999V0209999C000019999999N006000199+02951+01701100921ADDAA124000091KA1240M+03301MA1999999100861MD1999999-0111REMSYN06441941 32956 00000 10295 20170 30086 40092 333 10330 59011 70000=
0110419410999992020031918004+23267+090700FM-12+000799999V0209999C000019999999N004000199+02451+02001101271ADDAA124000091MA1999999101211MD1999999+0131REMSYN05841941 32940 00000 10245 20200 30121 40127 333 58013 70000=
0110419410999992020031921004+23267+090700FM-12+000799999V0209999C000019999999N004000199+02301+02101101221ADDAA124000091MA1999999101161MD1999999+0051REMSYN05841941 32940 00000 10230 20210 30116 40122 333 58005 70000=
0110419410999992020032000004+23267+090700FM-12+000799999V0203601N001019999999N004000199+02121+02001101191ADDAA124000091MA1999999101141MD1999999+0031REMSYN05841941 32940 03602 10212 20200 30114 40119 333 58003 70000=
0219419410999992020032003004+23267+090700FM-12+000799999V0203601N001510240019N006000199+02781+02001101321ADDAA124000091GA1041+004801061GA2061+024001041GE19MSL   +99999+99999GF106991041999004801999999KA1240N+02031MA1999999101261REMSYN08841941 32456 63603 10278 20200 30126 40132 85420 333 20203 56990 59006 70000 84616 86458=
0200419410999992020032006004+23267+090700FM-12+000799999V0203601N001510240019N005000199+03061+01801101211ADDAA124000091GA1041+004801061GA2061+024001041GE19MSL   +99999+99999GF106991041999004801999999MA1999999101151REMSYN08241941 32450 63603 10306 20180 30115 40121 85420 333 56990 59014 70000 84616 86458=
0200419410999992020032009004+23267+090700FM-12+000799999V0203101N001510240019N006000199+03201+01601100881ADDAA124000091GA1041+004801061GA2061+024001041GE19MSL   +99999+99999GF106991041999004801999999MA1999999100821REMSYN08241941 32456 63103 10320 20160 30082 40088 85420 333 56990 59010 70000 84616 86458=
0219419410999992020032012004+23267+090700FM-12+000799999V0209999C000010240019N005000199+02881+02001100811ADDAA124000091GA1041+004801061GA2061+024001041GE19MSL   +99999+99999GF106991041999004801999999KA1240M+03251MA1999999100751REMSYN08841941 32450 60000 10288 20200 30075 40081 85420 333 10325 56990 59011 70000 84616 86458=
0110419410999992020032015004+23267+090700FM-12+000799999V0209999C000019999999N005000199+02451+02101100951ADDAA124000091MA1999999100891MD1999999-0191REMSYN05841941 32950 00000 10245 20210 30089 40095 333 59019 70000=
0110419410999992020032018004+23267+090700FM-12+000799999V0209999C000019999999N005000199+02381+02101101021ADDAA124000091MA1999999100961MD1999999-0251REMSYN05841941 32950 00000 10238 20210 30096 40102 333 59025 70000=
0110419410999992020032021004+23267+090700FM-12+000799999V0209999C000019999999N004000199+02321+02001100941ADDAA124000091MA1999999100891MD1999999-0271REMSYN05841941 32940 00000 10232 20200 30089 40094 333 59027 70000=
0110419410999992020032100004+23267+090700FM-12+000799999V0209999C000019999999N004000199+02101+01901101051ADDAA124000091MA1999999101001MD1999999-0141REMSYN05841941 32940 00000 10210 20190 30100 40105 333 59014 70000=
0129419410999992020032103004+23267+090700FM-12+000799999V0209999C000019999999N006000199+02781+02001101341ADDAA124000091KA1240N+02051MA1999999101281MD1999999+0021REMSYN06441941 32956 00000 10278 20200 30128 40134 333 20205 58002 70000=
0200419410999992020032106004+23267+090700FM-12+000799999V0203601N00151090001CN006000199+03161+01301101311ADDAA124000091GA1031+005401061GA2051+090001001GE19MSL   +99999+99999GF105991031999005401999999MA1999999101251REMSYN08241941 32456 53603 10316 20130 30125 40131 83501 333 56909 58010 70000 83618 85080=
0200419410999992020032109004+23267+090700FM-12+000799999V0209999C00001036001CN006000199+03361+01301101011ADDAA124000091GA1031+005401061GA2051+036001031GE19MSL   +99999+99999GF105991031999005401999999MA1999999100961REMSYN08241941 32456 50000 10336 20130 30096 40101 83530 333 56990 58014 70000 83618 85362=
0197419410999992020032112004+23267+090700FM-12+000799999V0209999C000012200019N006000199+02961+01601100951ADDAA124000091GA1031+005401061GE19MSL   +99999+99999GF103991031999005401999999KA1240M+03441MA1999999100891REMSYN08241941 32456 30000 10296 20160 30089 40095 83500 333 10344 56900 58014 70000 83618=
0200419410999992020032115004+23267+090700FM-12+000799999V0209999C000010240019N004000199+02601+01701101121ADDAA124000091GA1041+004801061GA2061+024001041GE19MSL   +99999+99999GF106991041999004801999999MA1999999101061REMSYN08241941 32440 60000 10260 20170 30106 40112 84520 333 56990 58017 70000 84616 86458=
0200419410999992020032118004+23267+090700FM-12+000799999V0203601N001510240019N004000199+02641+01901101281ADDAA124000091GA1041+004801061GA2061+024001041GE19MSL   +99999+99999GF106991041999004801999999MA1999999101221REMSYN08241941 32440 63603 10264 20190 30122 40128 85420 333 56990 58026 70000 84616 86458=
0200419410999992020032121004+23267+090700FM-12+000799999V0209999C000010240019N004000199+02321+01501101191ADDAA124000091GA1031+004801061GA2061+024001041GE19MSL   +99999+99999GF106991031999004801999999MA1999999101131REMSYN08241941 32440 60000 10232 20150 30113 40119 84420 333 56990 58024 70000 83616 86458=
0222419410999992020032200004+23267+090700FM-12+000799999V0203601N00151009001CN005000199+02221+01701101381ADDAA124000091GA1041+005101061GA2011+009001091GA3081+024001041GE19MSL   +99999+99999GF108991041999005101999999MA1999999101321REMSYN08841941 32450 83603 10222 20170 30132 40138 8632/ 333 56999 58032 70000 84617 81930 88458=
0219419410999992020032203004+23267+090700FM-12+000799999V0209999C000010360019N006000199+02601+01701101591ADDAA124000091GA1031+005401061GA2061+036001031GE19MSL   +99999+99999GF106991031999005401999999KA1240N+02161MA1999999101531REMSYN08841941 32456 60000 10260 20170 30153 40159 83530 333 20216 56990 58025 70000 83618 86362=
0200419410999992020032206004+23267+090700FM-12+000799999V0209999C000010240019N006000199+02751+01601101421ADDAA124000091GA1041+004801061GA2061+024001041GE19MSL   +99999+99999GF106991041999004801999999MA1999999101361REMSYN08241941 32456 60000 10275 20160 30136 40142 85420 333 56990 58011 70000 84616 86458=
0200419410999992020032209004+23267+090700FM-12+000799999V0203101N001510240019N006000199+02991+01601101271ADDAA124000091GA1041+004801061GA2061+024001041GE19MSL   +99999+99999GF106991041999004801999999MA1999999101211REMSYN08241941 32456 63103 10299 20160 30121 40127 85420 333 56990 58025 70000 84616 86458=
0219419410999992020032212004+23267+090700FM-12+000799999V0209999C000010360019N006000199+02781+01701101091ADDAA124000091GA1041+004801061GA2061+036001031GE19MSL   +99999+99999GF106991041999004801999999KA1240M+03031MA1999999101031REMSYN08841941 32456 60000 10278 20170 30103 40109 85430 333 10303 56990 58014 70000 84616 86362=
0200419410999992020032215004+23267+090700FM-12+000799999V0203601N001010360019N005000199+02451+02001101311ADDAA124000091GA1041+004801061GA2061+036001031GE19MSL   +99999+99999GF106991041999004801999999MA1999999101251REMSYN08241941 32450 63602 10245 20200 30125 40131 85430 333 56990 58019 70000 84616 86362=
0200419410999992020032218004+23267+090700FM-12+000799999V0203601N001010240019N004000199+02301+02001101361ADDAA124000091GA1041+004801061GA2061+024001041GE19MSL   +99999+99999GF106991041999004801999999MA1999999101301REMSYN08241941 32440 63602 10230 20200 30130 40136 85420 333 56990 58008 70000 84616 86458=
0200419410999992020032221004+23267+090700FM-12+000799999V0209999C000010240019N004000199+02251+02101101321ADDAA124000091GA1041+004801061GA2061+024001041GE19MSL   +99999+99999GF106991041999004801999999MA1999999101261REMSYN08241941 32440 60000 10225 20210 30126 40132 85420 333 56990 58013 70000 84616 86458=
0200419410999992020032300004+23267+090700FM-12+000799999V0203601N001010240019N005000199+02001+01901101161ADDAA124000091GA1041+004801061GA2061+024001041GE19MSL   +99999+99999GF106991041999004801999999MA1999999101101REMSYN08241941 32450 63602 10200 20190 30110 40116 85420 333 56990 59022 70000 84616 86458=
0129419410999992020032303004+23267+090700FM-12+000799999V0201801N001519999999N006000199+02651+01901101411ADDAA124000091KA1240N+01931MA1999999101351MD1999999-0171REMSYN06441941 32956 01803 10265 20190 30135 40141 333 20193 59017 70000=
0110419410999992020032306004+23267+090700FM-12+000799999V0203601N001519999999N007000199+02961+01801101281ADDAA124000091MA1999999101221MD1999999-0141REMSYN05841941 32957 03603 10296 20180 30122 40128 333 59014 70000=
0110419410999992020032309004+23267+090700FM-12+000799999V0203601N002119999999N007000199+03021+01701100951ADDAA124000091MA1999999100891MD1999999-0321REMSYN05841941 32457 03604 10302 20170 30089 40095 333 59032 70000=
0219419410999992020032312004+23267+090700FM-12+000799999V0203601N001010240019N006000199+02801+01701100841ADDAA124000091GA1041+004501061GA2061+024001041GE19MSL   +99999+99999GF106991041999004501999999KA1240M+03201MA1999999100791REMSYN08841941 32456 63602 10280 20170 30079 40084 85420 333 10320 56990 59024 70000 84615 86458=
0110419410999992020032315004+23267+090700FM-12+000799999V0209999C000019999999N005000199+02751+01901101021ADDAA124000091MA1999999100961MD1999999-0291REMSYN05841941 32950 00000 10275 20190 30096 40102 333 59029 70000=
0110419410999992020032318004+23267+090700FM-12+000799999V0209999C000019999999N004000199+02701+01701101091ADDAA124000091MA1999999101031MD1999999-0271REMSYN05841941 32940 00000 10270 20170 30103 40109 333 59027 70000=
0110419410999992020032321004+23267+090700FM-12+000799999V0209999C000019999999N004000199+02651+01801101161ADDAA124000091MA1999999101111MD1999999-0151REMSYN05841941 32940 00000 10265 20180 30111 40116 333 59015 70000=
0267419410999992020032400004+23267+090700FM-12+000799999V0209999C00001004501CN004000199+02321+01901100991ADDAA101001031AA224001031AY191021AY261021GA1051+004501061GA2011+009001091GA3081+024001041GE19MSL   +99999+99999GF108991051999004501999999MA1999999100941MW1951REMSYN10041941 11440 80000 10232 20190 30094 40099 60015 79596 8632/ 333 56999 59016 70010 85615 81930 88458=
0129419410999992020032403004+23267+090700FM-12+000799999V0209999C000019999999N006000199+02731+01801101151ADDAA124001031KA1240N+02101MA1999999101101MD1999999-0261REMSYN06441941 32956 00000 10273 20180 30110 40115 333 20210 59026 70010=
0110419410999992020032406004+23267+090700FM-12+000799999V0203101N001519999999N006000199+03101+01901101201ADDAA124001031MA1999999101141MD1999999-0081REMSYN05841941 32956 03103 10310 20190 30114 40120 333 59008 70010=
0110419410999992020032409004+23267+090700FM-12+000799999V0203601N002119999999N006000199+03201+01701100811ADDAA124001031MA1999999100751MD1999999-0141REMSYN05841941 32956 03604 10320 20170 30075 40081 333 59014 70010=
0129419410999992020032412004+23267+090700FM-12+000799999V0203601N001519999999N006000199+02901+01801100731ADDAA124001031KA1240M+03251MA1999999100671MD1999999-0121REMSYN06441941 32956 03603 10290 20180 30067 40073 333 10325 59012 70010=
0110419410999992020032415004+23267+090700FM-12+000799999V0209999C000019999999N005000199+02551+02101101001ADDAA124001031MA1999999100941MD1999999-0021REMSYN05841941 32950 00000 10255 20210 30094 40100 333 59002 70010=
0110419410999992020032418004+23267+090700FM-12+000799999V0209999C000019999999N004000199+02501+02101101001ADDAA124001031MA1999999100941MD1999999-0091REMSYN05841941 32940 00000 10250 20210 30094 40100 333 59009 70010=
0200419410999992020032421004+23267+090700FM-12+000799999V0209999C000010240019N004000199+02401+02201100971ADDAA124001031GA1041+004801061GA2061+024001041GE19MSL   +99999+99999GF106991041999004801999999MA1999999100911REMSYN08241941 32440 60000 10240 20220 30091 40097 85420 333 56990 59020 70010 84616 86458=
0200419410999992020032500004+23267+090700FM-12+000799999V0209999C000010240019N005000199+02151+02101100971ADDAA124000091GA1041+004801061GA2061+024001041GE19MSL   +99999+99999GF106991041999004801999999MA1999999100921REMSYN08241941 32450 60000 10215 20210 30092 40097 85420 333 56990 59002 70000 84616 86458=
0129419410999992020032503004+23267+090700FM-12+000799999V0201801N001019999999N006000199+02801+02101101071ADDAA124000091KA1240N+02101MA1999999101011MD1999999-0091REMSYN06441941 32956 01802 10280 20210 30101 40107 333 20210 59009 70000=
0178419410999992020032506004+23267+090700FM-12+000799999V0203201N001512200019N007000199+03181+02001101051ADDAA124000091GA1041+005401061GE19MSL   +99999+99999GF104991041999005401999999MA1999999100991REMSYN07641941 32457 43203 10318 20200 30099 40105 84500 333 56900 59015 70000 84618=
0178419410999992020032509004+23267+090700FM-12+000799999V0203201N001012200019N008000199+03341+01401100761ADDAA124000091GA1021+005401061GE19MSL   +99999+99999GF102991021999005401999999MA1999999100701REMSYN07641941 32458 23202 10334 20140 30070 40076 82500 333 56900 59005 70000 82618=
0129419410999992020032512004+23267+090700FM-12+000799999V0209999C000019999999N006000199+03001+01801100681ADDAA124000091KA1240M+03361MA1999999100621MD1999999-0051REMSYN06441941 32956 00000 10300 20180 30062 40068 333 10336 59005 70000=
0110419410999992020032515004+23267+090700FM-12+000799999V0209999C000019999999N004000199+02601+02101100851ADDAA124000091MA1999999100801MD1999999-0141REMSYN05841941 32940 00000 10260 20210 30080 40085 333 59014 70000=
0110419410999992020032518004+23267+090700FM-12+000799999V0203601N001019999999N004000199+02551+02201100971ADDAA124000091MA1999999100911MD1999999-0031REMSYN05841941 32940 03602 10255 20220 30091 40097 333 59003 70000=
0110419410999992020032521004+23267+090700FM-12+000799999V0203101N001019999999N004000199+02501+02201101041ADDAA124000091MA1999999100981MD1999999+0071REMSYN05841941 32940 03102 10250 20220 30098 40104 333 58007 70000=
0110419410999992020032600004+23267+090700FM-12+000799999V0202301N001019999999N005000199+02421+02301100911ADDAA124000091MA1999999100861MD1999999-0061REMSYN05841941 32950 02302 10242 20230 30086 40091 333 59006 70000=
0188419410999992020032606004+23267+090700FM-12+000799999V0202301N001019999999N006000199+03291+02001101091ADDAA124000091GA1041+004501061GA2999+999999051GE19MSL   +99999+99999GF106991041999004501999999MA1999999101031REMSYN07041941 32456 62302 10329 20200 30103 40109 84520 333 56990 58004 70000=
0110419410999992020032609004+23267+090700FM-12+000799999V0201801N001019999999N007000199+03461+01701100831ADDAA124000091MA1999999100781MD1999999+0081REMSYN05841941 32457 01802 10346 20170 30078 40083 333 58008 70000=
0110419410999992020032706004+23267+090700FM-12+000799999V0202301N001519999999N006000199+03461+02101101111ADDAA124000091MA1999999101051MD1999999+0021REMSYN05841941 32956 02303 10346 20210 30105 40111 333 58002 70000=
0110419410999992020032709004+23267+090700FM-12+000799999V0201801N002119999999N006000199+03541+01701100861ADDAA124000091MA1999999100811MD1999999+0031REMSYN05841941 32956 01804 10354 20170 30081 40086 333 58003 70000=
0129419410999992020032712004+23267+090700FM-12+000799999V0201801N001019999999N006000199+03241+02001100841ADDAA124000091KA1240M+03561MA1999999100791MD1999999+0071REMSYN06441941 32956 01802 10324 20200 30079 40084 333 10356 58007 70000=
0110419410999992020032715004+23267+090700FM-12+000799999V0209999C000019999999N005000199+02701+02001100961ADDAA124000091MA1999999100911MD1999999-0021REMSYN05841941 32950 00000 10270 20200 30091 40096 333 59002 70000=
0110419410999992020032718004+23267+090700FM-12+000799999V0209999C000019999999N005000199+02561+02001101011ADDAA124000091MA1999999100951MD1999999-0021REMSYN05841941 32950 00000 10256 20200 30095 40101 333 59002 70000=
0110419410999992020032721004+23267+090700FM-12+000799999V0209999C000019999999N005000199+02501+02001100991ADDAA124000091MA1999999100931MD1999999+0061REMSYN05841941 32950 00000 10250 20200 30093 40099 333 58006 70000=
0110419410999992020032800004+23267+090700FM-12+000799999V0209999C000019999999N005000199+02371+02101100931ADDAA124000091MA1999999100871MD1999999-0031REMSYN05841941 32950 00000 10237 20210 30087 40093 333 59003 70000=
0129419410999992020032803004+23267+090700FM-12+000799999V0201801N001019999999N006000199+03051+02101101031ADDAA124000091KA1240N+02361MA1999999100971MD1999999-0161REMSYN06441941 32956 01802 10305 20210 30097 40103 333 20236 59016 70000=
0110419410999992020032806004+23267+090700FM-12+000799999V0201801N001019999999N007000199+03521+01801100961ADDAA124000091MA1999999100911MD1999999-0141REMSYN05841941 32957 01802 10352 20180 30091 40096 333 59014 70000=
0110419410999992020032809004+23267+090700FM-12+000799999V0200901N001019999999N008000199+03681+01701100661ADDAA124000091MA1999999100611MD1999999-0201REMSYN05841941 32958 00902 10368 20170 30061 40066 333 59020 70000=
0129419410999992020032812004+23267+090700FM-12+000799999V0209999C000019999999N005000199+03301+01801100561ADDAA124000091KA1240M+03751MA1999999100511MD1999999-0281REMSYN06441941 32950 00000 10330 20180 30051 40056 333 10375 59028 70000=
0110419410999992020032815004+23267+090700FM-12+000799999V0209999C000019999999N005000199+02891+02101100721ADDAA124000091MA1999999100671MD1999999-0241REMSYN05841941 32950 00000 10289 20210 30067 40072 333 59024 70000=
0110419410999992020032818004+23267+090700FM-12+000799999V0209999C000019999999N005000199+02711+02101100771ADDAA124000091MA1999999100711MD1999999-0241REMSYN05841941 32950 00000 10271 20210 30071 40077 333 59024 70000=
0110419410999992020032821004+23267+090700FM-12+000799999V0209999C000019999999N004000199+02651+02101100831ADDAA124000091MA1999999100771MD1999999-0161REMSYN05841941 32940 00000 10265 20210 30077 40083 333 59016 70000=
0110419410999992020032900004+23267+090700FM-12+000799999V0209999C000019999999N005000199+02541+02401100761ADDAA124000091MA1999999100701MD1999999-0171REMSYN05841941 32950 00000 10254 20240 30070 40076 333 59017 70000=
0129419410999992020032903004+23267+090700FM-12+000799999V0202701N001019999999N006000199+02981+02201101131ADDAA124000091KA1240N+02501MA1999999101081MD1999999+0111REMSYN06441941 32956 02702 10298 20220 30108 40113 333 20250 58011 70000=
0110419410999992020032906004+23267+090700FM-12+000799999V0203601N001519999999N006000199+03301+01301101041ADDAA124000091MA1999999100991MD1999999+0081REMSYN05841941 32956 03603 10330 20130 30099 40104 333 58008 70000=
0110419410999992020032909004+23267+090700FM-12+000799999V0209999C000019999999N006000199+03501+01301100761ADDAA124000091MA1999999100711MD1999999+0101REMSYN05841941 32956 00000 10350 20130 30071 40076 333 58010 70000=
0129419410999992020032912004+23267+090700FM-12+000799999V0209999C000019999999N006000199+03201+01601100671ADDAA124000091KA1240M+03561MA1999999100621MD1999999+0111REMSYN06441941 32956 00000 10320 20160 30062 40067 333 10356 58011 70000=
0110419410999992020032915004+23267+090700FM-12+000799999V0209999C000019999999N005000199+02741+01901100881ADDAA124000091MA1999999100821MD1999999+0151REMSYN05841941 32950 00000 10274 20190 30082 40088 333 58015 70000=
0110419410999992020032918004+23267+090700FM-12+000799999V0209999C000019999999N004000199+02501+02101100921ADDAA124000091MA1999999100871MD1999999+0161REMSYN05841941 32940 00000 10250 20210 30087 40092 333 58016 70000=
0110419410999992020032921004+23267+090700FM-12+000799999V0209999C000019999999N004000199+02481+02101101001ADDAA124000091MA1999999100941MD1999999+0171REMSYN05841941 32940 00000 10248 20210 30094 40100 333 58017 70000=
0200419410999992020033000004+23267+090700FM-12+000799999V0209999C000010240019N005000199+02451+01901100961ADDAA124000091GA1041+004801061GA2061+024001041GE19MSL   +99999+99999GF106991041999004801999999MA1999999100901REMSYN08241941 32450 60000 10245 20190 30090 40096 85420 333 56990 58020 70000 84616 86458=
0129419410999992020033003004+23267+090700FM-12+000799999V0203601N001019999999N006000199+03051+01601101181ADDAA124000091KA1240N+02381MA1999999101131MD1999999+0051REMSYN06441941 32956 03602 10305 20160 30113 40118 333 20238 58005 70000=
0110419410999992020033006004+23267+090700FM-12+000799999V0203601N001519999999N006000199+03351+01401101071ADDAA124000091MA1999999101021MD1999999+0031REMSYN05841941 32956 03603 10335 20140 30102 40107 333 58003 70000=
0110419410999992020033009004+23267+090700FM-12+000799999V0203601N001019999999N006000199+03451+01301100801ADDAA124000091MA1999999100751MD1999999+0041REMSYN05841941 32956 03602 10345 20130 30075 40080 333 58004 70000=
0129419410999992020033012004+23267+090700FM-12+000799999V0203601N001019999999N006000199+03141+01401100791ADDAA124000091KA1240M+03521MA1999999100741MD1999999+0121REMSYN06441941 32956 03602 10314 20140 30074 40079 333 10352 58012 70000=
0110419410999992020033015004+23267+090700FM-12+000799999V0209999C000019999999N005000199+02651+01901101021ADDAA124000091MA1999999100971MD1999999+0151REMSYN05841941 32950 00000 10265 20190 30097 40102 333 58015 70000=
0110419410999992020033018004+23267+090700FM-12+000799999V0209999C000019999999N005000199+02451+02001100991ADDAA124000091MA1999999100941MD1999999+0071REMSYN05841941 32950 00000 10245 20200 30094 40099 333 58007 70000=
0110419410999992020033021004+23267+090700FM-12+000799999V0209999C000019999999N004000199+02401+02001100981ADDAA124000091MA1999999100921MD1999999-0021REMSYN05841941 32940 00000 10240 20200 30092 40098 333 59002 70000=
0110419410999992020033100004+23267+090700FM-12+000799999V0203601N001019999999N005000199+02151+01901101071ADDAA124000091MA1999999101011MD1999999+0111REMSYN05841941 32950 03602 10215 20190 30101 40107 333 58011 70000=
0129419410999992020033103004+23267+090700FM-12+000799999V0209999C000019999999N006000199+03041+01401101251ADDAA124000091KA1240N+02101MA1999999101191MD1999999+0061REMSYN06441941 32956 00000 10304 20140 30119 40125 333 20210 58006 70000=
0110419410999992020033106004+23267+090700FM-12+000799999V0209999C000019999999N007000199+03461+01401101171ADDAA124000091MA1999999101121MD1999999+0101REMSYN05841941 32957 00000 10346 20140 30112 40117 333 58010 70000=
0110419410999992020033109004+23267+090700FM-12+000799999V0202701N001019999999N007000199+03491+01301100841ADDAA124000091MA1999999100781MD1999999+0031REMSYN05841941 32957 02702 10349 20130 30078 40084 333 58003 70000=
0129419410999992020033112004+23267+090700FM-12+000799999V0201801N001019999999N005000199+03111+01601100831ADDAA124000091KA1240M+03571MA1999999100781MD1999999+0041REMSYN06441941 32950 01802 10311 20160 30078 40083 333 10357 58004 70000=
0110419410999992020033115004+23267+090700FM-12+000799999V0201801N001019999999N005000199+02731+01501100861ADDAA124000091MA1999999100811MD1999999-0161REMSYN05841941 32950 01802 10273 20150 30081 40086 333 59016 70000=
0110419410999992020033118004+23267+090700FM-12+000799999V0209999C000019999999N005000199+02571+02201100891ADDAA124000091MA1999999100841MD1999999-0101REMSYN05841941 32950 00000 10257 20220 30084 40089 333 59010 70000=
0110419410999992020033121004+23267+090700FM-12+000799999V0209999C000019999999N005000199+02501+02201100891ADDAA124000091MA1999999100841MD1999999-0081REMSYN05841941 32950 00000 10250 20220 30084 40089 333 59008 70000=
0110419410999992020040100004+23267+090700FM-12+000799999V0209999C000019999999N005000199+02131+01501100921ADDAA124000091MA1999999100861MD1999999-0151REMSYN05841941 32950 00000 10213 20150 30086 40092 333 59015 70000=
0129419410999992020040103004+23267+090700FM-12+000799999V0201801N001019999999N006000199+02911+01601101101ADDAA124000091KA1240N+02111MA1999999101041MD1999999-0151REMSYN06441941 32956 01802 10291 20160 30104 40110 333 20211 59015 70000=
0110419410999992020040106004+23267+090700FM-12+000799999V0201801N001019999999N007000199+03421+01101101021ADDAA124000091MA1999999100971MD1999999-0151REMSYN05841941 32957 01802 10342 20110 30097 40102 333 59015 70000=
0174419410999992020040109004+23267+090700FM-12+000799999V0201801N001012200019N007000199+03571+01501100811ADDAA124000091GA1999+004501999GE19MSL   +99999+99999GF103991999999004501999999MA1999999100751MD1999999-0031REMSYN05841941 32457 31802 10357 20150 30075 40081 333 59003 70000=
0197419410999992020040112004+23267+090700FM-12+000799999V0201801N001012200019N005000199+03251+01801100721ADDAA124000091GA1031+004501061GE19MSL   +99999+99999GF103991031999004501999999KA1240M+03591MA1999999100671REMSYN08241941 32450 31802 10325 20180 30067 40072 83500 333 10359 56900 59011 70000 83615=
0110419410999992020040115004+23267+090700FM-12+000799999V0201801N001019999999N005000199+02801+02001100771ADDAA124000091MA1999999100711MD1999999-0101REMSYN05841941 32950 01802 10280 20200 30071 40077 333 59010 70000=
0110419410999992020040118004+23267+090700FM-12+000799999V0209999C000019999999N005000199+02651+02301100791ADDAA124000091MA1999999100731MD1999999-0111REMSYN05841941 32950 00000 10265 20230 30073 40079 333 59011 70000=
0110419410999992020040121004+23267+090700FM-12+000799999V0209999C000019999999N005000199+02601+02201100671ADDAA124000091MA1999999100611MD1999999-0231REMSYN05841941 32950 00000 10260 20220 30061 40067 333 59023 70000=
0219419410999992020040200004+23267+090700FM-12+000799999V0209999C00001999999CN005000199+02651+02601100721ADDAA124000091GA1031+004801061GA2041+024001041GE19MSL   +99999+99999GF104991031999004801999999MA1999999100661REMSYN08241941 32450 40000 10265 20260 30066 40072 84420 333 56990 59020 70000 83616 84458=EQDQ01 024003SCOCIG
0238419410999992020040203004+23267+090700FM-12+000799999V0201801N00101999999CN005000199+02861+02401100961ADDAA124000091GA1031+004801061GA2041+024001041GE19MSL   +99999+99999GF104991031999004801999999KA1240N+02601MA1999999100911REMSYN08841941 32450 41802 10286 20240 30091 40096 84420 333 20260 56990 59013 70000 83616 84458=EQDQ01 024003SCOCIG
0110419410999992020040206004+23267+090700FM-12+000799999V0203601N001519999999N006000199+03451+02201100911ADDAA124000091MA1999999100851MD1999999-0121REMSYN05841941 32956 03603 10345 20220 30085 40091 333 59012 70000=
0200419410999992020040209004+23267+090700FM-12+000799999V0202301N00101036001CN007000199+03531+01901100661ADDAA124000091GA1021+005401061GA2051+036001031GE19MSL   +99999+99999GF105991021999005401999999MA1999999100611REMSYN08241941 32457 52302 10353 20190 30061 40066 83530 333 56990 59014 70000 82618 85362=
0197419410999992020040212004+23267+090700FM-12+000799999V0202301N001012200019N007000199+03251+02401100541ADDAA124000091GA1031+005401061GE19MSL   +99999+99999GF103991031999005401999999KA1240M+03741MA1999999100491REMSYN08241941 32457 32302 10325 20240 30049 40054 83500 333 10374 56900 59018 70000 83618=
0250419410999992020040215004+23267+090700FM-12+000799999V0201301N00211009001CN004000199+02721+02001100831ADDAA124000091AY191021AY221021GA1041+005101061GA2011+009001091GA3081+024001041GE19MSL   +99999+99999GF108991041999005101999999MA1999999100781MW1171REMSYN09441941 31440 81304 10272 20200 30078 40083 71792 8632/ 333 56999 58007 70000 84617 81930 88458=
0267419410999992020040218004+23267+090700FM-12+000799999V0201401N00151009001CN004000199+02241+02101100941ADDAA103028031AA224028031AY191021AY261021GA1041+004801061GA2011+009001091GA3081+024001041GE19MSL   +99999+99999GF108991041999004801999999MA1999999100881MW1021REMSYN10041941 11440 81403 10224 20210 30088 40094 60287 70296 8632/ 333 56999 58015 70280 84616 81930 88458=
0200419410999992020040221004+23267+090700FM-12+000799999V0201401N001510240019N004000199+02281+02201100921ADDAA124028031GA1041+004801061GA2061+024001041GE19MSL   +99999+99999GF106991041999004801999999MA1999999100861REMSYN08241941 32440 61403 10228 20220 30086 40092 85420 333 56990 58025 70280 84616 86458=
0200419410999992020040300004+23267+090700FM-12+000799999V0201401N001510240019N005000199+02321+02201100921ADDAA124028031GA1041+004801061GA2061+024001041GE19MSL   +99999+99999GF106991041999004801999999MA1999999100861REMSYN08241941 32450 61403 10232 20220 30086 40092 85420 333 56990 58020 70280 84616 86458=
0129419410999992020040303004+23267+090700FM-12+000799999V0201401N001019999999N006000199+02901+02501101091ADDAA124028031KA1240N+02161MA1999999101041MD1999999+0131REMSYN06441941 32956 01402 10290 20250 30104 40109 333 20216 58013 70280=
0110419410999992020040306004+23267+090700FM-12+000799999V0201401N001019999999N006000199+03351+02501101051ADDAA124028031MA1999999100991MD1999999+0141REMSYN05841941 32956 01402 10335 20250 30099 40105 333 58014 70280=
0250419410999992020040309004+23267+090700FM-12+000799999V0201801N00151004501CN004600199+03441+02401100831ADDAA124028031AY121021AY221021GA1051+004501061GA2011+009001091GA3071+024001041GE19MSL   +99999+99999GF107991051999004501999999MA1999999100781MW1171REMSYN09441941 31946 71803 10344 20240 30078 40083 71722 86920 333 56990 58017 70280 85615 81930 87458=
