0207483040999992020010100004+19867+099767FM-12+040199999V0209999C000012200019N013000199+01621+01551102151ADDGA1999+999999001GE19MSL   +99999+99999GF101991001999999999999999KA1120N+01591MA1999999097381MD1210101+0071REMSYN07048304 32963 10000 10162 20155 39738 40215 52010 80001 333 20159 58007=EQDQ01    003SCCGA1
0213483040999992020010103004+19867+099767FM-12+040199999V0209999C000012200019N015000199+02161+01771102321ADDAY141021AY201021GA1021+999999031GA2999+999999021GE19MSL   +99999+99999GF103991021999999999999999MA1999999097631MD1210251+0041MW1031REMSYN07048304 31965 30000 10216 20177 39763 40232 52025 70340 82045 333 58004=
0142483040999992020010106004+19870+099774FM-12+039799999V0203601N0000122000199015000199+02751+01841101861ADDAA106999999AY141061AY201061GA1999+030001021GE19MSL   +99999+99999GF103991999999030001999999MA1999999097291MD1710351+0101MW1011REMSYN004BUFR
0169483040999992020010109004+19867+099767FM-12+040199999V0209999C000012200019N015000199+02911+01741101631ADDGA1011+999999031GE19MSL   +99999+99999GF101991011999999999999999MA1999999097091MD1710201+0061REMSYN06448304 32965 10000 10291 20174 39709 40163 57020 81040 333 58006=
0118483040999992020010112004+19867+099767FM-12+040199999V0209999C000019999999N013000199+02421+01951101831ADDKA1240M+02931MA1999999097201MD1210111+0061REMSYN06448304 32963 00000 10242 20195 39720 40183 52011 333 10293 58006=
0099483040999992020010115004+19867+099767FM-12+040199999V0209999C000019999999N012000199+01951+01771102081ADDMA1999999097371MD1210171+0071REMSYN05848304 32962 00000 10195 20177 39737 40208 52017 333 58007=
0099483040999992020010118004+19867+099767FM-12+040199999V0209999C000019999999N010000199+01841+01721102051ADDMA1999999097331MD1710041+0021REMSYN05848304 32960 00000 10184 20172 39733 40205 57004 333 58002=
0099483040999992020010121004+19867+099767FM-12+040199999V0209999C000019999999N010000199+01701+01611102021ADDMA1999999097281MD1710051+0001REMSYN05848304 32960 00000 10170 20161 39728 40202 57005 333 58000=
0204483040999992020010200004+19867+099767FM-12+040199999V0209999C000019999999N000000199+01671+01621102171ADDGA1061+008001061GA2999+999999031GE19MSL   +99999+99999GF107991061999008001999999KA1120N+01611MA1999999097411MD1210131+0021REMSYN07048304 32500 70000 10167 20162 39741 40217 52013 86550 333 20161 58002=
0169483040999992020010203004+19867+099767FM-12+040199999V0209999C000012200019N015000199+02291+01851102301ADDGA1011+999999031GE19MSL   +99999+99999GF101991011999999999999999MA1999999097641MD1210221-0021REMSYN06448304 32965 10000 10229 20185 39764 40230 52022 81040 333 59002=
0201483040999992020010206004+19867+099767FM-12+040199999V0209999C000019999999N015000199+02821+01891101881ADDGA1011+008001081GA2999+999999031GA3999+999999021GE19MSL   +99999+99999GF106991011999008001999999MA1999999097311MD1710321+0021REMSYN06448304 32565 60000 10282 20189 39731 40188 57032 81247 333 58002=
0185483040999992020010209004+19867+099767FM-12+040199999V0209999C000012200019N015000199+03011+01731101541ADDGA1011+008001081GA2999+999999021GE19MSL   +99999+99999GF102991011999008001999999MA1999999097011MD1710301-0101REMSYN06448304 32565 20000 10301 20173 39701 40154 57030 81105 333 59010=
0118483040999992020010212004+19867+099767FM-12+040199999V0209999C000019999999N013000199+02371+02001101721ADDKA1240M+03041MA1999999097091MD1210081-0111REMSYN06448304 32963 00000 10237 20200 39709 40172 52008 333 10304 59011=
0098483040999992020010215004+19870+099774FM-12+039799999V0203601N0000122000199012000199+01971+01771101951ADDAA103999999AZ101031AZ201031GF100991999999999999999999MA1999999097251MD1210161-0131REMSYN004BUFR
0098483040999992020010218004+19870+099774FM-12+039799999V0203601N0000122000199012000199+01721+01581101921ADDAA106999999AZ101061AZ201061GF100991999999999999999999MA1999999097181MD1710071-0131REMSYN004BUFR
0099483040999992020010221004+19867+099767FM-12+040199999V0209999C000019999999N010000199+01641+01541101831ADDMA1999999097081MD1710101-0201REMSYN05848304 32960 00000 10164 20154 39708 40183 57010 333 59020=
0149483040999992020010300004+19870+099774FM-12+039799999V0203601N0000122000199010000199+01551+01501101951ADDAA106999999AZ101061AZ201061GA1031+030001031GE19MSL   +99999+99999GF103991031999030001999999KA1120N+01511MA1999999097191MD1210101-0211REMSYN004BUFR
0169483040999992020010303004+19867+099767FM-12+040199999V0209999C000019999999N015000199+02131+01771102091ADDGA1051+999999031GE19MSL   +99999+99999GF105991051999999999999999MA1999999097411MD1210221-0211REMSYN06448304 32965 50000 10213 20177 39741 40209 52022 85040 333 59021=
0169483040999992020010306004+19867+099767FM-12+040199999V0209999C000012200019N015000199+02841+01731101611ADDGA1021+008001061GE19MSL   +99999+99999GF102991021999008001999999MA1999999097061MD1710351-0271REMSYN06448304 32565 20000 10284 20173 39706 40161 57035 82500 333 59027=
0169483040999992020010309004+19867+099767FM-12+040199999V0209999C000019999999N015000199+03041+01731101301ADDGA1051+999999031GE19MSL   +99999+99999GF105991051999999999999999MA1999999096791MD1710271-0241REMSYN06448304 32965 50000 10304 20173 39679 40130 57027 85050 333 59024=
0136483040999992020010312004+19870+099774FM-12+039799999V0203601N00001030001C9015000199+02371+01941101401ADDAA106999999AZ101061AZ201061GA1061+030001031GE19MSL   +99999+99999GF106991061999030001999999MA1999999096791MD1410001-0321REMSYN004BUFR
0136483040999992020010315004+19870+099774FM-12+039799999V0203601N0000122000199012000199+02021+01841101531ADDAA103999999AZ101031AZ201031GA1021+030001031GE19MSL   +99999+99999GF102991021999030001999999MA1999999096861MD1210071-0421REMSYN004BUFR
0098483040999992020010318004+19870+099774FM-12+039799999V0203601N0000122000199010000199+01821+01701101631ADDAA106999999AZ101061AZ201061GF100991999999999999999999MA1999999096921MD1210061-0291REMSYN004BUFR
0136483040999992020010321004+19870+099774FM-12+039799999V0203601N00001030001C9010000199+01761+01661101541ADDAA103999999AZ101031AZ201031GA1061+030001031GE19MSL   +99999+99999GF106991061999030001999999MA1999999096831MD1710091-0291REMSYN004BUFR
0188483040999992020010400004+19867+099767FM-12+040199999V0209999C000019999999N015000199+01751+01671101621ADDGA1061+999999031GE19MSL   +99999+99999GF106991061999999999999999KA1120N+01691MA1999999096901MD1210081-0331REMSYN07048304 32965 60000 10175 20167 39690 40162 52008 86050 333 20169 59033=
0136483040999992020010403004+19870+099774FM-12+039799999V0203601N00001030001C9015000199+02221+01871101701ADDAA103999999AZ101031AZ201031GA1051+030001031GE19MSL   +99999+99999GF105991051999030001999999MA1999999097051MD1210151-0391REMSYN004BUFR
0169483040999992020010406004+19867+099767FM-12+040199999V0201101N001512200019N015000199+02831+01851101311ADDGA1031+999999031GE19MSL   +99999+99999GF103991031999999999999999MA1999999096771MD1710281-0301REMSYN06448304 32965 31103 10283 20185 39677 40131 57028 83040 333 59030=
0169483040999992020010409004+19867+099767FM-12+040199999V0209999C000012200019N015000199+03001+02021100971ADDGA1031+999999031GE19MSL   +99999+99999GF103991031999999999999999MA1999999096471MD1710291-0331REMSYN06448304 32965 30000 10300 20202 39647 40097 57029 83040 333 59033=
0204483040999992020010412004+19867+099767FM-12+040199999V0209999C000012200019N015000199+02421+02041101201ADDGA1021+012501061GA2999+999999031GE19MSL   +99999+99999GF103991021999012501999999KA1240M+03071MA1999999096611MD1210141-0201REMSYN07048304 32665 30000 10242 20204 39661 40120 52014 82540 333 10307 59020=
0099483040999992020010415004+19867+099767FM-12+040199999V0209999C000019999999N012000199+02051+01891101391ADDMA1999999096731MD1210121-0141REMSYN05848304 32962 00000 10205 20189 39673 40139 52012 333 59014=
0099483040999992020010418004+19867+099767FM-12+040199999V0209999C000019999999N012000199+01851+01681101391ADDMA1999999096701MD1610031-0241REMSYN05848304 32962 00000 10185 20168 39670 40139 56003 333 59024=
0136483040999992020010421004+19870+099774FM-12+039799999V0203601N0000122000199010000199+01751+01671101331ADDAA103999999AZ101031AZ201031GA1021+008001061GE19MSL   +99999+99999GF102991021999008001999999MA1999999096631MD1610071-0211REMSYN004BUFR
0188483040999992020010500004+19867+099767FM-12+040199999V0209999C000012200019N010000199+01661+01561101481ADDGA1031+008001061GE19MSL   +99999+99999GF103991031999008001999999KA1120N+01601MA1999999096751MD1210121-0141REMSYN07048304 32560 30000 10166 20156 39675 40148 52012 83500 333 20160 59014=
0098483040999992020010503004+19870+099774FM-12+039799999V0203601N0000122000199015000199+02251+01851101601ADDAA103999999AZ101031AZ201031GF100991999999999999999999MA1999999096961MD1210211-0101REMSYN004BUFR
0136483040999992020010506004+19870+099774FM-12+039799999V0203601N0000122000199015000199+02901+01901101151ADDAA106999999AZ101061AZ201061GA1021+008001061GE19MSL   +99999+99999GF102991021999008001999999MA1999999096631MD1710331-0161REMSYN004BUFR
0169483040999992020010509004+19867+099767FM-12+040199999V0209999C000012200019N015000199+02951+01771100911ADDGA1031+008001061GE19MSL   +99999+99999GF103991031999008001999999MA1999999096411MD1710221-0061REMSYN06448304 32565 30000 10295 20177 39641 40091 57022 83500 333 59006=
0188483040999992020010512004+19867+099767FM-12+040199999V0209999C000012200019N012000199+02451+01991101171ADDGA1011+008001061GE19MSL   +99999+99999GF101991011999008001999999KA1240M+03051MA1999999096581MD1210171-0031REMSYN07048304 32562 10000 10245 20199 39658 40117 52017 81500 333 10305 59003=
0169483040999992020010515004+19867+099767FM-12+040199999V0209999C000019999999N010000199+02151+01911101361ADDGA1051+008001061GE19MSL   +99999+99999GF105991051999008001999999MA1999999096721MD1210141-0031REMSYN06448304 32560 50000 10215 20191 39672 40136 52014 85500 333 59003=
0169483040999992020010518004+19867+099767FM-12+040199999V0209999C000012200019N010000199+02021+01831101391ADDGA1011+008001061GE19MSL   +99999+99999GF101991011999008001999999MA1999999096721MD1410001+0001REMSYN06448304 32560 10000 10202 20183 39672 40139 54000 81500 333 58000=
0099483040999992020010521004+19867+099767FM-12+040199999V0209999C000019999999N010000199+01781+01681101381ADDMA1999999096681MD1610051+0041REMSYN05848304 32960 00000 10178 20168 39668 40138 56005 333 58004=
0118483040999992020010600004+19867+099767FM-12+040199999V0209999C000019999999N012000199+01681+01581101531ADDKA1120N+01601MA1999999096801MD1210131+0051REMSYN06448304 32962 00000 10168 20158 39680 40153 52013 333 20160 58005=
0099483040999992020010603004+19867+099767FM-12+040199999V0209999C000019999999N015000199+02371+01861101611ADDMA1999999096991MD1210191+0011REMSYN05848304 32965 00000 10237 20186 39699 40161 52019 333 58001=
0098483040999992020010606004+19870+099774FM-12+039799999V0202701N0026122000199015000199+02901+01901101161ADDAA106999999AZ101061AZ201061GF100991999999999999999999MA1999999096631MD1710361+0011REMSYN004BUFR
0169483040999992020010609004+19867+099767FM-12+040199999V0209999C000012200019N015000199+03151+01701100901ADDGA1031+008001061GE19MSL   +99999+99999GF103991031999008001999999MA1999999096431MD1710211-0011REMSYN06448304 32565 30000 10315 20170 39643 40090 57021 83500 333 59001=
0188483040999992020010612004+19867+099767FM-12+040199999V0209999C000012200019N012000199+02451+02071101141ADDGA1021+008001061GE19MSL   +99999+99999GF102991021999008001999999KA1240M+03201MA1999999096551MD1210121-0031REMSYN07048304 32562 20000 10245 20207 39655 40114 52012 82500 333 10320 59003=
0099483040999992020010615004+19867+099767FM-12+040199999V0209999C000019999999N010000199+02121+01931101311ADDMA1999999096671MD1210111-0051REMSYN05848304 32960 00000 10212 20193 39667 40131 52011 333 59005=
0099483040999992020010618004+19867+099767FM-12+040199999V0209999C000019999999N010000199+01861+01761101331ADDMA1999999096641MD1710021-0061REMSYN05848304 32960 00000 10186 20176 39664 40133 57002 333 59006=
0099483040999992020010621004+19867+099767FM-12+040199999V0209999C000019999999N010000199+01731+01651101321ADDMA1999999096611MD1710031-0061REMSYN05848304 32960 00000 10173 20165 39661 40132 57003 333 59006=
0188483040999992020010700004+19867+099767FM-12+040199999V0209999C000012200019N012000199+01631+01561101461ADDGA1011+008001081GE19MSL   +99999+99999GF101991011999008001999999KA1120N+01591MA1999999096731MD1210121-0071REMSYN07048304 32562 10000 10163 20156 39673 40146 52012 81100 333 20159 59007=
0169483040999992020010703004+19867+099767FM-12+040199999V0209999C000012200019N013000199+02221+01791101581ADDGA1021+999999031GE19MSL   +99999+99999GF102991021999999999999999MA1999999096941MD1210211-0031REMSYN06448304 32963 20000 10222 20179 39694 40158 52021 82040 333 59003=
0099483040999992020010706004+19867+099767FM-12+040199999V0209999C000019999999N013000199+02861+01871101181ADDMA1999999096651MD1710291+0021REMSYN05848304 32963 00000 10286 20187 39665 40118 57029 333 58002=
0136483040999992020010709004+19870+099774FM-12+039799999V0203601N0000122000199013000199+03061+01911100901ADDAA103999999AZ101031AZ201031GA1011+008001081GE19MSL   +99999+99999GF101991011999008001999999MA1999999096411MD1710241+0001REMSYN004BUFR
0188483040999992020010712004+19867+099767FM-12+040199999V0209999C000012200019N010000199+02621+02071101111ADDGA1031+999999031GE19MSL   +99999+99999GF103991031999999999999999KA1240M+03091MA1999999096541MD1210131-0041REMSYN07048304 32960 30000 10262 20207 39654 40111 52013 83040 333 10309 59004=
0169483040999992020010715004+19867+099767FM-12+040199999V0209999C000012200019N010000199+02111+01921101361ADDGA1021+999999031GE19MSL   +99999+99999GF102991021999999999999999MA1999999096711MD1210171+0051REMSYN06448304 32960 20000 10211 20192 39671 40136 52017 82040 333 58005=
0099483040999992020010718004+19867+099767FM-12+040199999V0209999C000019999999N010000199+01801+01701101401ADDMA1999999096701MD1710011+0071REMSYN05848304 32960 00000 10180 20170 39670 40140 57001 333 58007=
0099483040999992020010721004+19867+099767FM-12+040199999V0209999C000019999999N010000199+01731+01651101381ADDMA1999999096671MD1710041+0061REMSYN05848304 32960 00000 10173 20165 39667 40138 57004 333 58006=
0118483040999992020010800004+19867+099767FM-12+040199999V0201301N003619999999N010000199+01691+01601101491ADDKA1120N+01641MA1999999096771MD1210111+0031REMSYN06448304 32960 01307 10169 20160 39677 40149 52011 333 20164 58003=
0098483040999992020010803004+19870+099774FM-12+039799999V0203601N0000122000199012000199+02301+01871101651ADDAA103999999AZ101031AZ201031GF100991999999999999999999MA1999999097011MD1210241+0061REMSYN004BUFR
0099483040999992020010806004+19867+099767FM-12+040199999V0209999C000019999999N012000199+02901+01901101221ADDMA1999999096691MD1710321+0041REMSYN05848304 32962 00000 10290 20190 39669 40122 57032 333 58004=
0099483040999992020010809004+19867+099767FM-12+040199999V0209999C000019999999N010000199+03061+01821100931ADDMA1999999096441MD1710251+0031REMSYN05848304 32960 00000 10306 20182 39644 40093 57025 333 58003=
0118483040999992020010812004+19867+099767FM-12+040199999V0209999C000019999999N010000199+02421+02071101141ADDKA1240M+03101MA1999999096541MD1210101+0031REMSYN06448304 32960 00000 10242 20207 39654 40114 52010 333 10310 58003=
0099483040999992020010815004+19867+099767FM-12+040199999V0209999C000019999999N012000199+02091+01921101331ADDMA1999999096671MD1210131-0041REMSYN05848304 32962 00000 10209 20192 39667 40133 52013 333 59004=
0098483040999992020010818004+19870+099774FM-12+039799999V0203601N0000122000199010000199+01871+01741101311ADDAA106999999AZ101061AZ201061GF100991999999999999999999MA1999999096621MD1710051-0091REMSYN004BUFR
0098483040999992020010821004+19870+099774FM-12+039799999V0203601N0000122000199010000199+01721+01611101311ADDAA103999999AZ101031AZ201031GF100991999999999999999999MA1999999096601MD1710021-0071REMSYN004BUFR
0172483040999992020010900004+19867+099767FM-12+040199999V0209999C00001000001WN000000199+01601+01511101501ADDAY141021AY201021GF109991999999999999999999KA1120N+01561MA1999999096761MD1210161+0001MW1471REMSYN07048304 31/00 90000 10160 20151 39676 40150 52016 74740 333 20156 58000=
0127483040999992020010903004+19867+099767FM-12+040199999V0209999C000019999999N006000199+02231+01861101641ADDAY141021AY201021MA1999999097001MD1210241+0001MW1101REMSYN06448304 31956 00000 10223 20186 39700 40164 52024 71040 333 58000=
0104483040999992020010906004+19870+099774FM-12+039799999V0203601N0000122000199012000199+02851+01931101201ADDAA106999999AY141061AY201061GF100991999999999999999999MA1999999096671MD1710331-0021MW1021REMSYN004BUFR
0099483040999992020010909004+19867+099767FM-12+040199999V0209999C000019999999N015000199+03051+01801100901ADDMA1999999096411MD1710261-0031REMSYN05848304 32965 00000 10305 20180 39641 40090 57026 333 59003=
0098483040999992020010912004+19870+099774FM-12+039799999V0203601N0000122000199012000199+02401+01961101081ADDAA106999999AZ101061AZ201061GF100991999999999999999999MA1999999096481MD1210081-0061REMSYN004BUFR
0098483040999992020010915004+19870+099774FM-12+039799999V0203601N0000122000199012000199+02071+01891101261ADDAA103999999AZ101031AZ201031GF100991999999999999999999MA1999999096611MD1210121-0061REMSYN004BUFR
0099483040999992020010918004+19867+099767FM-12+040199999V0209999C000019999999N010000199+01821+01691101271ADDMA1999999096581MD1710031-0041REMSYN05848304 32960 00000 10182 20169 39658 40127 57003 333 59004=
0099483040999992020010921004+19867+099767FM-12+040199999V0209999C000019999999N010000199+01701+01601101241ADDMA1999999096531MD1710051-0061REMSYN05848304 32960 00000 10170 20160 39653 40124 57005 333 59006=
0172483040999992020011000004+19867+099767FM-12+040199999V0209999C00001000001WN000000199+01591+01521101361ADDAY141021AY201021GF109991999999999999999999KA1120N+01541MA1999999096631MD1210101-0131MW1471REMSYN07048304 31/00 90000 10159 20152 39663 40136 52010 74740 333 20154 59013=
0104483040999992020011003004+19870+099774FM-12+039799999V0203601N0000122000199012000199+02221+01821101441ADDAA103999999AY141031AY201031GF100991999999999999999999MA1999999096801MD1210171-0211MW1021REMSYN004BUFR
0104483040999992020011006004+19870+099774FM-12+039799999V0203601N0000122000199015000199+02851+01841101021ADDAA106999999AY141061AY201061GF100991999999999999999999MA1999999096491MD1710311-0181MW1021REMSYN004BUFR
0099483040999992020011009004+19867+099767FM-12+040199999V0209999C000019999999N015000199+03111+01671100761ADDMA1999999096281MD1710211-0141REMSYN05848304 32965 00000 10311 20167 39628 40076 57021 333 59014=
0118483040999992020011012004+19867+099767FM-12+040199999V0209999C000019999999N015000199+02441+02041100961ADDKA1240M+03181MA1999999096371MD1210091-0121REMSYN06448304 32965 00000 10244 20204 39637 40096 52009 333 10318 59012=
0099483040999992020011015004+19867+099767FM-12+040199999V0209999C000019999999N012000199+02001+01841100981ADDMA1999999096331MD1610041-0281REMSYN05848304 32962 00000 10200 20184 39633 40098 56004 333 59028=
0099483040999992020011018004+19867+099767FM-12+040199999V0209999C000019999999N012000199+01771+01651101141ADDMA1999999096451MD1210121-0131REMSYN05848304 32962 00000 10177 20165 39645 40114 52012 333 59013=
0099483040999992020011021004+19867+099767FM-12+040199999V0209999C000019999999N012000199+01601+01511101171ADDMA1999999096451MD1410001-0071REMSYN05848304 32962 00000 10160 20151 39645 40117 54000 333 59007=
0118483040999992020011100004+19867+099767FM-12+040199999V0209999C000019999999N012000199+01471+01401101361ADDKA1120N+01401MA1999999096611MD1210171+0001REMSYN06448304 32962 00000 10147 20140 39661 40136 52017 333 20140 58000=
0099483040999992020011103004+19867+099767FM-12+040199999V0209999C000019999999N012000199+02151+01711101421ADDMA1999999096771MD1210161-0021REMSYN05848304 32962 00000 10215 20171 39677 40142 52016 333 59002=
0169483040999992020011106004+19867+099767FM-12+040199999V0209999C000012200019N015000199+02881+01721100991ADDGA1011+008001081GE19MSL   +99999+99999GF101991011999008001999999MA1999999096471MD1710311-0031REMSYN06448304 32565 10000 10288 20172 39647 40099 57031 81200 333 59003=
0099483040999992020011109004+19867+099767FM-12+040199999V0209999C000019999999N015000199+03101+01471100721ADDMA1999999096251MD1710221-0031REMSYN05848304 32965 00000 10310 20147 39625 40072 57022 333 59003=
0099483040999992020011121004+19867+099767FM-12+040199999V0209999C000019999999N012000199+01401+01311101261ADDMA1999999096501MD1610081+0091REMSYN05848304 32962 00000 10140 20131 39650 40126 56008 333 58009=
0118483040999992020011200004+19867+099767FM-12+040199999V0209999C000019999999N012000199+01251+01151101431ADDKA1120N+01201MA1999999096641MD1210141+0061REMSYN06448304 32962 00000 10125 20115 39664 40143 52014 333 20120 58006=
0099483040999992020011203004+19867+099767FM-12+040199999V0209999C000019999999N015000199+02101+01511101501ADDMA1999999096841MD1210201+0081REMSYN05848304 32965 00000 10210 20151 39684 40150 52020 333 58008=
0099483040999992020011206004+19867+099767FM-12+040199999V0209999C000019999999N015000199+02851+01101101001ADDMA1999999096481MD1710371+0011REMSYN05848304 32965 00000 10285 20110 39648 40100 57037 333 58001=
0099483040999992020011209004+19867+099767FM-12+040199999V0209999C000019999999N015000199+03001+01211100711ADDMA1999999096221MD1710251-0011REMSYN05848304 32965 00000 10300 20121 39622 40071 57025 333 59001=
0118483040999992020011212004+19867+099767FM-12+040199999V0209999C000019999999N012000199+02221+01791100931ADDKA1240M+03041MA1999999096321MD1210101+0021REMSYN06448304 32962 00000 10222 20179 39632 40093 52010 333 10304 58002=
0099483040999992020011215004+19867+099767FM-12+040199999V0209999C000019999999N010000199+01831+01631101171ADDMA1999999096481MD1210161-0011REMSYN05848304 32960 00000 10183 20163 39648 40117 52016 333 59001=
0099483040999992020011218004+19867+099767FM-12+040199999V0209999C000019999999N010000199+01621+01461101211ADDMA1999999096491MD1210011-0091REMSYN05848304 32960 00000 10162 20146 39649 40121 52001 333 59009=
0099483040999992020011221004+19867+099767FM-12+040199999V0209999C000019999999N010000199+01471+01361101231ADDMA1999999096491MD1410001-0021REMSYN05848304 32960 00000 10147 20136 39649 40123 54000 333 59002=
0118483040999992020011300004+19867+099767FM-12+040199999V0209999C000019999999N010000199+01331+01241101301ADDKA1120N+01281MA1999999096531MD1210041-0121REMSYN06448304 32960 00000 10133 20124 39653 40130 52004 333 20128 59012=
0099483040999992020011303004+19867+099767FM-12+040199999V0209999C000019999999N010000199+01991+01481101391ADDMA1999999096721MD1210181-0111REMSYN05848304 32960 00000 10199 20148 39672 40139 52018 333 59011=
0099483040999992020011306004+19867+099767FM-12+040199999V0209999C000019999999N010000199+02661+01481101011ADDMA1999999096461MD1710261+0011REMSYN05848304 32960 00000 10266 20148 39646 40101 57026 333 58001=
0099483040999992020011309004+19867+099767FM-12+040199999V0202001N002119999999N010000199+02931+01611100701ADDMA1999999096201MD1710251-0011REMSYN05848304 32960 02004 10293 20161 39620 40070 57025 333 59001=
0146483040999992020011312004+19867+099767FM-12+040199999V0209999C000019999999N008000199+02401+01931100881ADDAY101021AY201021KA1240M+02961MA1999999096291MD1210091-0061MW1101REMSYN07048304 31958 00000 10240 20193 39629 40088 52009 71000 333 10296 59006=
0127483040999992020011315004+19867+099767FM-12+040199999V0209999C000019999999N008000199+01881+01681101161ADDAY101021AY201021MA1999999096481MD1210191-0011MW1101REMSYN06448304 31958 00000 10188 20168 39648 40116 52019 71000 333 59001=
0127483040999992020011318004+19867+099767FM-12+040199999V0209999C000019999999N008000199+01721+01601101211ADDAY101021AY201021MA1999999096501MD1210021-0011MW1101REMSYN06448304 31958 00000 10172 20160 39650 40121 52002 71000 333 59001=
0146483040999992020011400004+19867+099767FM-12+040199999V0209999C000019999999N006000199+01471+01401101351ADDAY101021AY201021KA1120N+01431MA1999999096601MD1210141+0051MW1101REMSYN07048304 31956 00000 10147 20140 39660 40135 52014 71000 333 20143 58005=
0127483040999992020011403004+19867+099767FM-12+040199999V0209999C000019999999N007000199+02141+01721101471ADDAY101021AY201021MA1999999096821MD1210221+0081MW1101REMSYN06448304 31957 00000 10214 20172 39682 40147 52022 71000 333 58008=
0197483040999992020011406004+19867+099767FM-12+040199999V0202201N001012200019N007000199+02961+01791101021ADDAY101021AY201021GA1011+008001081GE19MSL   +99999+99999GF101991011999008001999999MA1999999096511MD1710311+0011MW1051REMSYN07048304 31557 12202 10296 20179 39651 40102 57031 70500 81200 333 58001=
0197483040999992020011409004+19867+099767FM-12+040199999V0201901N002112200019N008000199+03161+01551100751ADDAY101021AY201021GA1011+008001081GE19MSL   +99999+99999GF101991011999008001999999MA1999999096281MD1710231+0051MW1051REMSYN07048304 31558 11904 10316 20155 39628 40075 57023 70500 81100 333 58005=
0146483040999992020011412004+19867+099767FM-12+040199999V0209999C000019999999N007000199+02371+01691100971ADDAY101021AY201021KA1240M+03191MA1999999096371MD1210091+0091MW1101REMSYN07048304 31957 00000 10237 20169 39637 40097 52009 71000 333 10319 58009=
0104483040999992020011415004+19870+099774FM-12+039799999V0203601N0000122000199007000199+01921+01671101211ADDAA103999999AY101031AY201031GF100991999999999999999999MA1999999096541MD1210171+0061MW1101REMSYN004BUFR
0104483040999992020011418004+19870+099774FM-12+039799999V0203601N0000122000199006000199+01651+01501101281ADDAA106999999AY101061AY201061GF100991999999999999999999MA1999999096561MD1210021+0071MW1101REMSYN004BUFR
0127483040999992020011421004+19867+099767FM-12+040199999V0209999C000019999999N004000199+01461+01351101251ADDAY101021AY201021MA1999999096501MD1710061+0081MW1101REMSYN06448304 31940 00000 10146 20135 39650 40125 57006 71000 333 58008=
0146483040999992020011500004+19867+099767FM-12+040199999V0209999C000019999999N004000199+01321+01251101511ADDAY101021AY201021KA1120N+01271MA1999999096731MD1210231+0161MW1101REMSYN07048304 31940 00000 10132 20125 39673 40151 52023 71000 333 20127 58016=
0104483040999992020011503004+19870+099774FM-12+039799999V0203601N0000122000199008000199+02201+01531101511ADDAA103999999AY101031AY201031GF100991999999999999999999MA1999999096871MD1210141+0051MW1101REMSYN004BUFR
0099483040999992020011506004+19867+099767FM-12+040199999V0209999C000019999999N015000199+02951+01361101111ADDMA1999999096601MD1710271+0091REMSYN05848304 32965 00000 10295 20136 39660 40111 57027 333 58009=
0136483040999992020011509004+19870+099774FM-12+039799999V0203601N0000122000199015000199+03151+01431100861ADDAA103999999AZ101031AZ201031GA1021+012501061GE19MSL   +99999+99999GF102991021999012501999999MA1999999096381MD1710221+0101REMSYN004BUFR
0098483040999992020011512004+19870+099774FM-12+039799999V0203601N0000122000199015000199+02351+01731101041ADDAA106999999AZ101061AZ201061GF100991999999999999999999MA1999999096441MD1210061+0081REMSYN004BUFR
0098483040999992020011515004+19870+099774FM-12+039799999V0203601N0000122000199012000199+01721+01551101291ADDAA103999999AZ101031AZ201031GF100991999999999999999999MA1999999096581MD1210141+0081REMSYN004BUFR
0098483040999992020011518004+19870+099774FM-12+039799999V0203601N0000122000199012000199+01521+01411101331ADDAA106999999AZ101061AZ201061GF100991999999999999999999MA1999999096591MD1210011+0051REMSYN004BUFR
0099483040999992020011521004+19867+099767FM-12+040199999V0209999C000019999999N010000199+01331+01241101341ADDMA1999999096571MD1710021+0091REMSYN05848304 32960 00000 10133 20124 39657 40134 57002 333 58009=
0111483040999992020011600004+19870+099774FM-12+039799999V0203601N0000122000199012000199+01211+01151101601ADDAA106999999AZ101061AZ201061GF100991999999999999999999KA1120N+01161MA1999999096801MD1210231+0091REMSYN004BUFR
0099483040999992020011603004+19867+099767FM-12+040199999V0209999C000019999999N015000199+02041+01441101651ADDMA1999999096971MD1210181+0141REMSYN05848304 32965 00000 10204 20144 39697 40165 52018 333 58014=
0099483040999992020011606004+19867+099767FM-12+040199999V0200801N001019999999N015000199+02771+01521101291ADDMA1999999096741MD1710241+0171REMSYN05848304 32965 00802 10277 20152 39674 40129 57024 333 58017=
0099483040999992020011609004+19867+099767FM-12+040199999V0209999C000019999999N015000199+03061+01321100991ADDMA1999999096501MD1710241+0141REMSYN05848304 32965 00000 10306 20132 39650 40099 57024 333 58014=
0118483040999992020011612004+19867+099767FM-12+040199999V0209999C000019999999N012000199+02251+01681101241ADDKA1240M+03071MA1999999096621MD1210121+0201REMSYN06448304 32962 00000 10225 20168 39662 40124 52012 333 10307 58020=
0099483040999992020011615004+19867+099767FM-12+040199999V0209999C000019999999N010000199+01721+01511101511ADDMA1999999096801MD1210181+0231REMSYN05848304 32960 00000 10172 20151 39680 40151 52018 333 58023=
0099483040999992020011618004+19867+099767FM-12+040199999V0209999C000019999999N010000199+01501+01411101561ADDMA1999999096801MD1110011+0231REMSYN05848304 32960 00000 10150 20141 39680 40156 51001 333 58023=
0099483040999992020011621004+19867+099767FM-12+040199999V0209999C000019999999N010000199+01341+01271101491ADDMA1999999096711MD1610091+0151REMSYN05848304 32960 00000 10134 20127 39671 40149 56009 333 58015=
0111483040999992020011700004+19870+099774FM-12+039799999V0203601N0000122000199012000199+01251+01151101611ADDAA106999999AZ101061AZ201061GF100991999999999999999999KA1120N+01201MA1999999096811MD1210101+0001REMSYN004BUFR
0098483040999992020011703004+19870+099774FM-12+039799999V0203601N0000122000199012000199+02001+01391101791ADDAA103999999AZ101031AZ201031GF100991999999999999999999MA1999999097101MD1210291+0141REMSYN004BUFR
0099483040999992020011706004+19867+099767FM-12+040199999V0209999C000019999999N015000199+02851+01441101381ADDMA1999999096841MD1710261+0101REMSYN05848304 32965 00000 10285 20144 39684 40138 57026 333 58010=
0099483040999992020011709004+19867+099767FM-12+040199999V0209999C000019999999N015000199+03101+01241101071ADDMA1999999096581MD1710261+0081REMSYN05848304 32965 00000 10310 20124 39658 40107 57026 333 58008=
0098483040999992020011712004+19870+099774FM-12+039799999V0203601N0000122000199012000199+02351+01701101251ADDAA106999999AZ101061AZ201061GF100991999999999999999999MA1999999096641MD1110061+0011REMSYN004BUFR
0099483040999992020011715004+19867+099767FM-12+040199999V0209999C000019999999N010000199+01801+01581101531ADDMA1999999096821MD1210181+0011REMSYN05848304 32960 00000 10180 20158 39682 40153 52018 333 58001=
0099483040999992020011718004+19867+099767FM-12+040199999V0209999C000019999999N010000199+01551+01461101531ADDMA1999999096781MD1610041-0031REMSYN05848304 32960 00000 10155 20146 39678 40153 56004 333 59003=
0099483040999992020011721004+19867+099767FM-12+040199999V0209999C000019999999N010000199+01401+01311101441ADDMA1999999096681MD1710111-0051REMSYN05848304 32960 00000 10140 20131 39668 40144 57011 333 59005=
0111483040999992020011800004+19870+099774FM-12+039799999V0203601N0000122000199012000199+01301+01211101591ADDAA106999999AZ101061AZ201061GF100991999999999999999999KA1120N+01251MA1999999096801MD1210121-0021REMSYN004BUFR
0099483040999992020011803004+19867+099767FM-12+040199999V0209999C000019999999N015000199+02001+01581101641ADDMA1999999096961MD1210161-0151REMSYN05848304 32965 00000 10200 20158 39696 40164 52016 333 59015=
0098483040999992020011806004+19870+099774FM-12+039799999V0201401N0015122000199015000199+02701+01551101261ADDAA106999999AZ101061AZ201061GF100991999999999999999999MA1999999096701MD1710261-0131REMSYN004BUFR
0098483040999992020011809004+19870+099774FM-12+039799999V0203601N0000122000199015000199+03001+01601100951ADDAA103999999AZ101031AZ201031GF100991999999999999999999MA1999999096451MD1710251-0121REMSYN004BUFR
0118483040999992020011812004+19867+099767FM-12+040199999V0209999C000019999999N012000199+02231+01901101261ADDKA1240M+03051MA1999999096631MD1210181+0011REMSYN06448304 32962 00000 10223 20190 39663 40126 52018 333 10305 58001=
0099483040999992020011815004+19867+099767FM-12+040199999V0209999C000019999999N010000199+01831+01651101381ADDMA1999999096691MD1210061-0141REMSYN05848304 32960 00000 10183 20165 39669 40138 52006 333 59014=
0099483040999992020011818004+19867+099767FM-12+040199999V0209999C000019999999N010000199+01671+01551101421ADDMA1999999096691MD1410001-0111REMSYN05848304 32960 00000 10167 20155 39669 40142 54000 333 59011=
0099483040999992020011821004+19867+099767FM-12+040199999V0209999C000019999999N010000199+01581+01491101361ADDMA1999999096631MD1710071-0091REMSYN05848304 32960 00000 10158 20149 39663 40136 57007 333 59009=
0118483040999992020011900004+19867+099767FM-12+040199999V0209999C000019999999N010000199+01451+01361101521ADDKA1120N+01411MA1999999096761MD1210131-0071REMSYN06448304 32960 00000 10145 20136 39676 40152 52013 333 20141 59007=
0099483040999992020011903004+19867+099767FM-12+040199999V0209999C000019999999N012000199+02101+01861101621ADDMA1999999096961MD1210201-0011REMSYN05848304 32962 00000 10210 20186 39696 40162 52020 333 59001=
0099483040999992020011906004+19867+099767FM-12+040199999V0201301N001519999999N012000199+02761+01801101301ADDMA1999999096751MD1710211+0041REMSYN05848304 32962 01303 10276 20180 39675 40130 57021 333 58004=
0099483040999992020011909004+19867+099767FM-12+040199999V0209999C000019999999N012000199+02981+01901100961ADDMA1999999096461MD1710291+0011REMSYN05848304 32962 00000 10298 20190 39646 40096 57029 333 58001=
0118483040999992020011912004+19867+099767FM-12+040199999V0209999C000019999999N012000199+02351+01931101151ADDKA1240M+03011MA1999999096551MD1210091-0101REMSYN06448304 32962 00000 10235 20193 39655 40115 52009 333 10301 59010=
0099483040999992020011915004+19867+099767FM-12+040199999V0209999C000019999999N010000199+02001+01771101361ADDMA1999999096701MD1210151-0021REMSYN05848304 32960 00000 10200 20177 39670 40136 52015 333 59002=
0099483040999992020011918004+19867+099767FM-12+040199999V0209999C000019999999N010000199+01761+01611101431ADDMA1999999096721MD1210031+0021REMSYN05848304 32960 00000 10176 20161 39672 40143 52003 333 58002=
0099483040999992020011921004+19867+099767FM-12+040199999V0209999C000019999999N010000199+01641+01541101411ADDMA1999999096681MD1710041+0051REMSYN05848304 32960 00000 10164 20154 39668 40141 57004 333 58005=
0118483040999992020012000004+19867+099767FM-12+040199999V0209999C000019999999N010000199+01441+01351101551ADDKA1120N+01401MA1999999096791MD1210101+0031REMSYN06448304 32960 00000 10144 20135 39679 40155 52010 333 20140 58003=
0188483040999992020012003004+19867+099767FM-12+040199999V0209999C000019999999N012000199+02121+01661101681ADDGA1999+999999021GE19MSL   +99999+99999GF106991001999999999999999MA1999999097021MD1210231+0061REMSYN06448304 32962 60000 10212 20166 39702 40168 52023 80006 333 58006=EQDQ01    003SCCGA1
0188483040999992020012006004+19867+099767FM-12+040199999V0209999C000019999999N010000199+02871+01841101301ADDGA1999+999999021GE19MSL   +99999+99999GF106991001999999999999999MA1999999096771MD1710251+0011REMSYN06448304 32960 60000 10287 20184 39677 40130 57025 80006 333 58001=EQDQ01    003SCCGA1
0188483040999992020012009004+19867+099767FM-12+040199999V0202801N001519999999N010000199+03161+01441100941ADDGA1999+999999021GE19MSL   +99999+99999GF106991001999999999999999MA1999999096461MD1710311-0021REMSYN06448304 32960 62803 10316 20144 39646 40094 57031 80006 333 59002=EQDQ01    003SCCGA1
0207483040999992020012012004+19867+099767FM-12+040199999V0209999C000019999999N010000199+02431+01961101191ADDGA1999+999999021GE19MSL   +99999+99999GF106991001999999999999999KA1240M+03181MA1999999096601MD1210141+0041REMSYN07048304 32960 60000 10243 20196 39660 40119 52014 80006 333 10318 58004=EQDQ01    003SCCGA1
0104483040999992020012015004+19870+099774FM-12+039799999V0203601N0000122000199008000199+01951+01741101511ADDAA103999999AY111031AY211031GF100991999999999999999999MA1999999096831MD1210231+0151MW1101REMSYN004BUFR
0127483040999992020012018004+19867+099767FM-12+040199999V0209999C000019999999N006000199+01781+01651101511ADDAY111021AY211021MA1999999096811MD1710031+0081MW1101REMSYN06448304 31956 00000 10178 20165 39681 40151 57003 71011 333 58008=
0104483040999992020012021004+19870+099774FM-12+039799999V0203601N0000122000199006000199+01521+01411101561ADDAA103999999AY101031AY201031GF100991999999999999999999MA1999999096811MD1410001+0151MW1101REMSYN004BUFR
0146483040999992020012100004+19867+099767FM-12+040199999V0209999C000019999999N004000199+01401+01331101731ADDAY101021AY201021KA1120N+01341MA1999999096951MD1210141+0181MW1101REMSYN07048304 31940 00000 10140 20133 39695 40173 52014 71000 333 20134 58018=
0127483040999992020012103004+19867+099767FM-12+040199999V0209999C000019999999N006000199+02201+01601101841ADDAY101021AY201021MA1999999097181MD1210231+0161MW1101REMSYN06448304 31956 00000 10220 20160 39718 40184 52023 71000 333 58016=
0197483040999992020012106004+19867+099767FM-12+040199999V0209999C000012200019N008000199+02951+01771101401ADDAY101021AY201021GA1021+008001081GE19MSL   +99999+99999GF102991021999008001999999MA1999999096871MD1710311+0101MW1051REMSYN07048304 31558 20000 10295 20177 39687 40140 57031 70500 82200 333 58010=
0127483040999992020012109004+19867+099767FM-12+040199999V0202101N003119999999N008000199+03301+01311101041ADDAY101021AY201021MA1999999096581MD1710291+0111MW1051REMSYN06448304 31958 02106 10330 20131 39658 40104 57029 70500 333 58011=
0104483040999992020012112004+19870+099774FM-12+039799999V0203601N0000122000199008000199+02501+01931101241ADDAA106999999AY101061AY201061GF100991999999999999999999MA1999999096651MD1210071+0051MW1101REMSYN004BUFR
0127483040999992020012115004+19867+099767FM-12+040199999V0209999C000019999999N008000199+02001+01771101541ADDAY101021AY201021MA1999999096871MD1210211+0031MW1101REMSYN06448304 31958 00000 10200 20177 39687 40154 52021 71000 333 58003=
0127483040999992020012118004+19867+099767FM-12+040199999V0209999C000019999999N006000199+01721+01581101601ADDAY101021AY201021MA1999999096881MD1210021+0091MW1101REMSYN06448304 31956 00000 10172 20158 39688 40160 52002 71000 333 58009=
0127483040999992020012121004+19867+099767FM-12+040199999V0209999C000019999999N006000199+01531+01421101521ADDAY101021AY201021MA1999999096771MD1710111-0051MW1101REMSYN06448304 31956 00000 10153 20142 39677 40152 57011 71000 333 59005=
0146483040999992020012200004+19867+099767FM-12+040199999V0209999C000019999999N006000199+01401+01311101671ADDAY101021AY201021KA1120N+01351MA1999999096901MD1210131-0061MW1101REMSYN07048304 31956 00000 10140 20131 39690 40167 52013 71000 333 20135 59006=
0104483040999992020012203004+19870+099774FM-12+039799999V0203601N0000122000199008000199+02321+01651101751ADDAA103999999AY101031AY201031GF100991999999999999999999MA1999999097121MD1210221-0091MW1101REMSYN004BUFR
0099483040999992020012206004+19867+099767FM-12+040199999V0209999C000019999999N015000199+03151+01431101271ADDMA1999999096781MD1710341-0131REMSYN05848304 32965 00000 10315 20143 39678 40127 57034 333 59013=
0099483040999992020012209004+19867+099767FM-12+040199999V0202301N002119999999N015000199+03361+01101100931ADDMA1999999096481MD1710291-0111REMSYN05848304 32965 02304 10336 20110 39648 40093 57029 333 59011=
0098483040999992020012212004+19870+099774FM-12+039799999V0203601N0000122000199012000199+02461+01771101141ADDAA106999999AZ101061AZ201061GF100991999999999999999999MA1999999096551MD1210071-0101REMSYN004BUFR
0099483040999992020012215004+19867+099767FM-12+040199999V0209999C000019999999N010000199+01801+01541101411ADDMA1999999096711MD1210161-0131REMSYN05848304 32960 00000 10180 20154 39671 40141 52016 333 59013=
0099483040999992020012218004+19867+099767FM-12+040199999V0209999C000019999999N010000199+01501+01361101471ADDMA1999999096721MD1110011-0131REMSYN05848304 32960 00000 10150 20136 39672 40147 51001 333 59013=
0099483040999992020012221004+19867+099767FM-12+040199999V0209999C000019999999N010000199+01301+01211101361ADDMA1999999096581MD1710141-0161REMSYN05848304 32960 00000 10130 20121 39658 40136 57014 333 59016=
0118483040999992020012300004+19867+099767FM-12+040199999V0209999C000019999999N012000199+01151+01051101521ADDKA1120N+01101MA1999999096711MD1210131-0161REMSYN06448304 32962 00000 10115 20105 39671 40152 52013 333 20110 59016=
0098483040999992020012303004+19870+099774FM-12+039799999V0203601N0000122000199012000199+02252+01391101541ADDAA103999999AZ101031AZ201031GF100991999999999999999999MA1999999096911MD1210201-0211REMSYN004BUFR
0098483040999992020012306004+19870+099774FM-12+039799999V0203601N0000122000199012000199+02951+02041101111ADDAA106999999AZ101061AZ201061GF100991999999999999999999MA1999999096591MD1710311-0161REMSYN004BUFR
0098483040999992020012309004+19870+099774FM-12+039799999V0203601N0000122000199012000199+03251+01231100771ADDAA103999999AZ101031AZ201031GF100991999999999999999999MA1999999096311MD1710281-0161REMSYN004BUFR
0098483040999992020012312004+19870+099774FM-12+039799999V0203601N0000122000199010000199+02301+01641101021ADDAA106999999AZ101061AZ201061GF100991999999999999999999MA1999999096411MD1210101-0121REMSYN004BUFR
0099483040999992020012315004+19867+099767FM-12+040199999V0209999C000019999999N010000199+01601+01331101301ADDMA1999999096571MD1210161-0121REMSYN05848304 32960 00000 10160 20133 39657 40130 52016 333 59012=
0099483040999992020012318004+19867+099767FM-12+040199999V0209999C000019999999N010000199+01201+01001101381ADDMA1999999096581MD1110011-0101REMSYN05848304 32960 00000 10120 20100 39658 40138 51001 333 59010=
0099483040999992020012321004+19867+099767FM-12+040199999V0209999C000019999999N010000199+01071+00971101361ADDMA1999999096551MD1610031+0001REMSYN05848304 32960 00000 10107 20097 39655 40136 56003 333 58000=
0149483040999992020012400004+19870+099774FM-12+039799999V0203601N0000122000199012000199+00951+00851101541ADDAA106999999AZ101061AZ201061GA1999+030001021GE19MSL   +99999+99999GF102991999999030001999999KA1120N+00901MA1999999096701MD1210151+0021REMSYN004BUFR
0188483040999992020012403004+19867+099767FM-12+040199999V0209999C000012200019N012000199+01951+01021101561ADDGA1999+999999021GE19MSL   +99999+99999GF102991001999999999999999MA1999999096881MD1210181+0021REMSYN06448304 32962 20000 10195 20102 39688 40156 52018 80005 333 58002=EQDQ01    003SCCGA1
0188483040999992020012406004+19867+099767FM-12+040199999V0209999C000012200019N012000199+02831+00941101111ADDGA1999+999999021GE19MSL   +99999+99999GF102991001999999999999999MA1999999096581MD1710301+0001REMSYN06448304 32962 20000 10283 20094 39658 40111 57030 80005 333 58000=EQDQ01    003SCCGA1
0136483040999992020012409004+19870+099774FM-12+039799999V0202101N0015122000199012000199+03171+00601100711ADDAA103999999AZ101031AZ201031GA1999+030001021GE19MSL   +99999+99999GF102991999999030001999999MA1999999096251MD1710331-0061REMSYN004BUFR
0207483040999992020012412004+19867+099767FM-12+040199999V0209999C000012200019N010000199+02251+01391100931ADDGA1999+999999021GE19MSL   +99999+99999GF102991001999999999999999KA1240M+03221MA1999999096321MD1110081-0081REMSYN07048304 32960 20000 10225 20139 39632 40093 51008 80005 333 10322 59008=EQDQ01    003SCCGA1
0099483040999992020012415004+19867+099767FM-12+040199999V0209999C000019999999N010000199+01701+01341101231ADDMA1999999096521MD1210201-0071REMSYN05848304 32960 00000 10170 20134 39652 40123 52020 333 59007=
0099483040999992020012418004+19867+099767FM-12+040199999V0209999C000019999999N010000199+01391+01221101231ADDMA1999999096471MD1710051-0151REMSYN05848304 32960 00000 10139 20122 39647 40123 57005 333 59015=
0099483040999992020012421004+19867+099767FM-12+040199999V0209999C000019999999N010000199+01191+01071101141ADDMA1999999096361MD1710121-0221REMSYN05848304 32960 00000 10119 20107 39636 40114 57012 333 59022=
0118483040999992020012500004+19867+099767FM-12+040199999V0209999C000019999999N010000199+00971+00871101251ADDKA1120N+00921MA1999999096421MD1210061-0291REMSYN06448304 32960 00000 10097 20087 39642 40125 52006 333 20092 59029=
0099483040999992020012503004+19867+099767FM-12+040199999V0200801N001019999999N015000199+01951+01301101221ADDMA1999999096551MD1210131-0351REMSYN05848304 32965 00802 10195 20130 39655 40122 52013 333 59035=
0188483040999992020012506004+19867+099767FM-12+040199999V0201301N002619999999N013000199+02801+01461100831ADDGA1999+999999021GE19MSL   +99999+99999GF105991001999999999999999MA1999999096311MD1710241-0281REMSYN06448304 32963 51305 10280 20146 39631 40083 57024 80006 333 59028=EQDQ01    003SCCGA1
0099483040999992020012509004+19867+099767FM-12+040199999V0203301N001019999999N015000199+03031+01131100561ADDMA1999999096081MD1710231-0151REMSYN05848304 32965 03302 10303 20113 39608 40056 57023 333 59015=
0118483040999992020012512004+19867+099767FM-12+040199999V0209999C000019999999N012000199+02101+01601100851ADDKA1240M+03061MA1999999096221MD1210141-0081REMSYN06448304 32962 00000 10210 20160 39622 40085 52014 333 10306 59008=
0099483040999992020012515004+19867+099767FM-12+040199999V0209999C000019999999N010000199+01671+01371101181ADDMA1999999096471MD1210251-0051REMSYN05848304 32960 00000 10167 20137 39647 40118 52025 333 59005=
0099483040999992020012518004+19867+099767FM-12+040199999V0209999C000019999999N010000199+01331+01141101291ADDMA1999999096521MD1210051+0061REMSYN05848304 32960 00000 10133 20114 39652 40129 52005 333 58006=
0099483040999992020012521004+19867+099767FM-12+040199999V0209999C000019999999N010000199+01141+01021101191ADDMA1999999096401MD1710121+0051REMSYN05848304 32960 00000 10114 20102 39640 40119 57012 333 58005=
0118483040999992020012600004+19867+099767FM-12+040199999V0209999C000019999999N010000199+00941+00861101311ADDKA1120N+00891MA1999999096481MD1210081+0071REMSYN06448304 32960 00000 10094 20086 39648 40131 52008 333 20089 58007=
0099483040999992020012603004+19867+099767FM-12+040199999V0209999C000019999999N015000199+01921+01221101431ADDMA1999999096751MD1210271+0211REMSYN05848304 32965 00000 10192 20122 39675 40143 52027 333 58021=
0099483040999992020012606004+19867+099767FM-12+040199999V0201001N001519999999N015000199+02651+01161100961ADDMA1999999096411MD1710341+0131REMSYN05848304 32965 01003 10265 20116 39641 40096 57034 333 58013=
0099483040999992020012609004+19867+099767FM-12+040199999V0200301N001519999999N015000199+02821+01001100631ADDMA1999999096121MD1710281+0071REMSYN05848304 32965 00303 10282 20100 39612 40063 57028 333 58007=
0118483040999992020012612004+19867+099767FM-12+040199999V0209999C000019999999N012000199+02001+01631100781ADDKA1240M+02861MA1999999096141MD1210021-0071REMSYN06448304 32962 00000 10200 20163 39614 40078 52002 333 10286 59007=
0098483040999992020012615004+19870+099774FM-12+039799999V0203601N0000122000199010000199+01451+01151100961ADDAA103999999AZ101031AZ201031GF100991999999999999999999MA1999999096221MD1210081-0221REMSYN004BUFR
0098483040999992020012618004+19870+099774FM-12+039799999V0203601N0000122000199010000199+01171+01011101051ADDAA106999999AZ101061AZ201061GF100991999999999999999999MA1999999096261MD1210041-0241REMSYN004BUFR
0098483040999992020012621004+19870+099774FM-12+039799999V0203601N0000122000199010000199+00971+00841101021ADDAA103999999AZ101031AZ201031GF100991999999999999999999MA1999999096211MD1710051-0171REMSYN004BUFR
0172483040999992020012700004+19867+099767FM-12+040199999V0209999C00001000601WN000300199+00801+00711101241ADDAY101021AY201021GF109991999999999999999999KA1120N+00751MA1999999096381MD1210181-0081MW1471REMSYN07048304 31/03 90000 10080 20071 39638 40124 52018 74700 333 20075 59008=
0127483040999992020012703004+19867+099767FM-12+040199999V0209999C000019999999N010000199+01651+01191101291ADDAY141021AY201021MA1999999096571MD1210191-0141MW1011REMSYN06448304 31960 00000 10165 20119 39657 40129 52019 70140 333 59014=
0127483040999992020012706004+19867+099767FM-12+040199999V0200701N001519999999N012000199+02451+00871100911ADDAY141021AY201021MA1999999096331MD1710241-0051MW1021REMSYN06448304 31962 00703 10245 20087 39633 40091 57024 70240 333 59005=
0098483040999992020012709004+19870+099774FM-12+039799999V0203601N0000122000199012000199+02801+00611100511ADDAA103999999AZ101031AZ201031GF100991999999999999999999MA1999999096001MD1710331-0121REMSYN004BUFR
0118483040999992020012712004+19867+099767FM-12+040199999V0209999C000019999999N010000199+02061+01661100701ADDKA1240M+02831MA1999999096071MD1210071-0081REMSYN06448304 32960 00000 10206 20166 39607 40070 52007 333 10283 59008=
0098483040999992020012715004+19870+099774FM-12+039799999V0203601N0000122000199010000199+01461+01161100981ADDAA103999999AZ101031AZ201031GF100991999999999999999999MA1999999096251MD1210181+0031REMSYN004BUFR
0104483040999992020012718004+19870+099774FM-12+039799999V0203601N0000122000199008000199+01101+00981101171ADDAA106999999AY101061AY201061GF100991999999999999999999MA1999999096371MD1210121+0121MW1101REMSYN004BUFR
0104483040999992020012721004+19870+099774FM-12+039799999V0203601N0000122000199006000199+00911+00801101141ADDAA103999999AY101031AY201031GF100991999999999999999999MA1999999096311MD1710061+0111MW1101REMSYN004BUFR
0146483040999992020012800004+19867+099767FM-12+040199999V0209999C000019999999N006000199+00841+00751101381ADDAY101021AY201021KA1120N+00781MA1999999096521MD1210221+0141MW1101REMSYN07048304 31956 00000 10084 20075 39652 40138 52022 71000 333 20078 58014=
0127483040999992020012803004+19867+099767FM-12+040199999V0209999C000019999999N008000199+01771+00971101461ADDAY101021AY201021MA1999999096751MD1210231+0171MW1051REMSYN06448304 31958 00000 10177 20097 39675 40146 52023 70500 333 58017=
0127483040999992020012806004+19867+099767FM-12+040199999V0209999C000019999999N008000199+02571+00531101061ADDAY101021AY201021MA1999999096491MD1710261+0151MW1051REMSYN06448304 31958 00000 10257 20053 39649 40106 57026 70500 333 58015=
0099483040999992020012809004+19867+099767FM-12+040199999V0209999C000019999999N012000199+02801+00751100751ADDMA1999999096231MD1710261+0241REMSYN05848304 32962 00000 10280 20075 39623 40075 57026 333 58024=
0098483040999992020012812004+19870+099774FM-12+039799999V0203601N0000122000199010000199+02061+01441100971ADDAA106999999AZ101061AZ201061GF100991999999999999999999MA1999999096331MD1210111+0271REMSYN004BUFR
0099483040999992020012815004+19867+099767FM-12+040199999V0209999C000019999999N010000199+01401+01161101351ADDMA1999999096591MD1210251+0371REMSYN05848304 32960 00000 10140 20116 39659 40135 52025 333 58037=
0099483040999992020012818004+19867+099767FM-12+040199999V0209999C000019999999N010000199+01101+01001101441ADDMA1999999096621MD1110041+0271REMSYN05848304 32960 00000 10110 20100 39662 40144 51004 333 58027=
0098483040999992020012821004+19870+099774FM-12+039799999V0203601N0000122000199010000199+00951+00851101511ADDAA103999999AZ101031AZ201031GF100991999999999999999999MA1999999096661MD1110041+0371REMSYN004BUFR
0111483040999992020012900004+19870+099774FM-12+039799999V0203601N0000122000199012000199+00801+00691101771ADDAA106999999AZ101061AZ201061GF100991999999999999999999KA1120N+00751MA1999999096891MD1210221+0391REMSYN004BUFR
0098483040999992020012903004+19870+099774FM-12+039799999V0203601N0000122000199012000199+01952+00901101731ADDAA103999999AZ101031AZ201031GF100991999999999999999999MA1999999097041MD1210161+0271REMSYN004BUFR
0099483040999992020012906004+19867+099767FM-12+040199999V0201201N003119999999N012000199+02701+00781101291ADDMA1999999096731MD1710311+0231REMSYN05848304 32962 01206 10270 20078 39673 40129 57031 333 58023=
0099483040999992020012909004+19867+099767FM-12+040199999V0209999C000019999999N012000199+02901+00641100991ADDMA1999999096471MD1710261+0241REMSYN05848304 32962 00000 10290 20064 39647 40099 57026 333 58024=
0118483040999992020012912004+19867+099767FM-12+040199999V0209999C000019999999N010000199+02051+01351101241ADDKA1240M+02951MA1999999096581MD1210111+0261REMSYN06448304 32960 00000 10205 20135 39658 40124 52011 333 10295 58026=
0099483040999992020012915004+19867+099767FM-12+040199999V0209999C000019999999N010000199+01451+01131101541ADDMA1999999096771MD1210191+0191REMSYN05848304 32960 00000 10145 20113 39677 40154 52019 333 58019=
0099483040999992020012918004+19867+099767FM-12+040199999V0209999C000019999999N010000199+01201+01101101561ADDMA1999999096751MD1610021+0121REMSYN05848304 32960 00000 10120 20110 39675 40156 56002 333 58012=
0099483040999992020012921004+19867+099767FM-12+040199999V0209999C000019999999N010000199+01051+00951101521ADDMA1999999096701MD1610061+0021REMSYN05848304 32960 00000 10105 20095 39670 40152 56006 333 58002=
0118483040999992020013000004+19867+099767FM-12+040199999V0209999C000019999999N012000199+00901+00791101711ADDKA1120N+00851MA1999999096851MD1210151-0061REMSYN06448304 32962 00000 10090 20079 39685 40171 52015 333 20085 59006=
0098483040999992020013003004+19870+099774FM-12+039799999V0203601N0000122000199012000199+01851+01001101761ADDAA103999999AZ101031AZ201031GF100991999999999999999999MA1999999097061MD1210211+0031REMSYN004BUFR
0099483040999992020013006004+19867+099767FM-12+040199999V0209999C000019999999N012000199+02451+01001101341ADDMA1999999096751MD1710311+0061REMSYN05848304 32962 00000 10245 20100 39675 40134 57031 333 58006=
0099483040999992020013009004+19867+099767FM-12+040199999V0209999C000019999999N012000199+02651+01161101021ADDMA1999999096471MD1710281+0041REMSYN05848304 32962 00000 10265 20116 39647 40102 57028 333 58004=
0118483040999992020013012004+19867+099767FM-12+040199999V0209999C000019999999N010000199+02071+01531101181ADDKA1240M+02731MA1999999096531MD1110061-0061REMSYN06448304 32960 00000 10207 20153 39653 40118 51006 333 10273 59006=
0099483040999992020013015004+19867+099767FM-12+040199999V0209999C000019999999N010000199+01671+01461101391ADDMA1999999096671MD1210141-0151REMSYN05848304 32960 00000 10167 20146 39667 40139 52014 333 59015=
0099483040999992020013018004+19867+099767FM-12+040199999V0209999C000019999999N010000199+01531+01411101431ADDMA1999999096681MD1210021-0131REMSYN05848304 32960 00000 10153 20141 39668 40143 52002 333 59013=
0201483040999992020013021004+19867+099767FM-12+040199999V0209999C000012200019N010000199+01461+01351101331ADDGA1021+008001061GA2999+999999031GA3999+999999021GE19MSL   +99999+99999GF103991021999008001999999MA1999999096581MD1710101-0191REMSYN06448304 32560 30000 10146 20135 39658 40133 57010 82545 333 59019=
0204483040999992020013100004+19867+099767FM-12+040199999V0209999C000019999999N010000199+01501+01371101531ADDGA1071+008001061GA2999+999999031GE19MSL   +99999+99999GF108991071999008001999999KA1120N+01441MA1999999096781MD1210201-0171REMSYN07048304 32560 80000 10150 20137 39678 40153 52020 8755/ 333 20144 59017=
0201483040999992020013103004+19867+099767FM-12+040199999V0209999C000019999999N010000199+02061+01441101641ADDGA1021+008001061GA2999+999999031GA3999+999999021GE19MSL   +99999+99999GF106991021999008001999999MA1999999096971MD1210191-0121REMSYN06448304 32560 60000 10206 20144 39697 40164 52019 82546 333 59012=
0099483040999992020013106004+19867+099767FM-12+040199999V0209999C000019999999N010000199+02661+01501101231ADDMA1999999096671MD1710301-0111REMSYN05848304 32960 00000 10266 20150 39667 40123 57030 333 59011=
0169483040999992020013109004+19867+099767FM-12+040199999V0209999C000019999999N010000199+02901+01551100891ADDGA1051+008001081GE19MSL   +99999+99999GF105991051999008001999999MA1999999096381MD1710281-0131REMSYN06448304 32560 50000 10290 20155 39638 40089 57028 85200 333 59013=
0220483040999992020013112004+19867+099767FM-12+040199999V0200401N001012200019N010000199+02331+01801101061ADDGA1021+008001081GA2999+999999031GA3999+999999021GE19MSL   +99999+99999GF104991021999008001999999KA1240M+02941MA1999999096461MD1210071-0121REMSYN07048304 32560 40402 10233 20180 39646 40106 52007 82246 333 10294 59012=
0099483040999992020013115004+19867+099767FM-12+040199999V0209999C000019999999N010000199+01971+01741101301ADDMA1999999096631MD1210181-0091REMSYN05848304 32960 00000 10197 20174 39663 40130 52018 333 59009=
0099483040999992020013118004+19867+099767FM-12+040199999V0209999C000019999999N010000199+01841+01661101371ADDMA1999999096681MD1210051-0051REMSYN05848304 32960 00000 10184 20166 39668 40137 52005 333 59005=
0099483040999992020013121004+19867+099767FM-12+040199999V0209999C000019999999N010000199+01631+01531101391ADDMA1999999096661MD1710021+0051REMSYN05848304 32960 00000 10163 20153 39666 40139 57002 333 58005=
0118483040999992020020100004+19867+099767FM-12+040199999V0209999C000019999999N010000199+01411+01321101551ADDKA1120N+01361MA1999999096781MD1210121+0011REMSYN06448304 32960 00000 10141 20132 39678 40155 52012 333 20136 58001=
0099483040999992020020103004+19867+099767FM-12+040199999V0203501N001019999999N012000199+02151+01761101611ADDMA1999999096951MD1210171-0031REMSYN05848304 32962 03502 10215 20176 39695 40161 52017 333 59003=
0099483040999992020020106004+19867+099767FM-12+040199999V0200901N001519999999N010000199+02811+01771101241ADDMA1999999096701MD1710251+0011REMSYN05848304 32960 00903 10281 20177 39670 40124 57025 333 58001=
0099483040999992020020109004+19867+099767FM-12+040199999V0202001N001019999999N010000199+03031+01561100911ADDMA1999999096421MD1710281+0021REMSYN05848304 32960 02002 10303 20156 39642 40091 57028 333 58002=
0118483040999992020020112004+19867+099767FM-12+040199999V0209999C000019999999N010000199+02441+01751101071ADDKA1240M+03101MA1999999096481MD1210061+0011REMSYN06448304 32960 00000 10244 20175 39648 40107 52006 333 10310 58001=
0098483040999992020020115004+19870+099774FM-12+039799999V0203601N0000122000199012000199+01921+01671101331ADDAA103999999AZ101031AZ201031GF100991999999999999999999MA1999999096661MD1210171+0031REMSYN004BUFR
0098483040999992020020118004+19870+099774FM-12+039799999V0203601N0000122000199010000199+01701+01531101421ADDAA106999999AZ101061AZ201061GF100991999999999999999999MA1999999096701MD1210051+0051REMSYN004BUFR
0098483040999992020020121004+19870+099774FM-12+039799999V0203601N0000122000199010000199+01501+01371101431ADDAA103999999AZ101031AZ201031GF100991999999999999999999MA1999999096681MD1710011+0051REMSYN004BUFR
0146483040999992020020200004+19867+099767FM-12+040199999V0209999C000019999999N006000199+01301+01211101711ADDAY101021AY201021KA1120N+01261MA1999999096911MD1210231+0161MW1101REMSYN07048304 31956 00000 10130 20121 39691 40171 52023 71000 333 20126 58016=
0099483040999992020020203004+19867+099767FM-12+040199999V0209999C000019999999N010000199+02201+01451101661ADDMA1999999097011MD1210101+0061REMSYN05848304 32960 00000 10220 20145 39701 40166 52010 333 58006=
0098483040999992020020206004+19870+099774FM-12+039799999V0202301N0036122000199012000199+03021+01201101241ADDAA106999999AZ101061AZ201061GF100991999999999999999999MA1999999096731MD1710291+0001REMSYN004BUFR
0099483040999992020020209004+19867+099767FM-12+040199999V0202301N005119999999N015000199+03151+00911100921ADDMA1999999096441MD1710291+0001REMSYN05848304 32965 02310 10315 20091 39644 40092 57029 333 58000=
0098483040999992020020212004+19870+099774FM-12+039799999V0203601N0000122000199012000199+02571+01781101091ADDAA106999999AZ101061AZ201061GF100991999999999999999999MA1999999096521MD1210081+0011REMSYN004BUFR
0098483040999992020020215004+19870+099774FM-12+039799999V0203601N0000122000199012000199+02001+01601101371ADDAA103999999AZ101031AZ201031GF100991999999999999999999MA1999999096701MD1210181+0031REMSYN004BUFR
0098483040999992020020218004+19870+099774FM-12+039799999V0203601N0000122000199010000199+01751+01581101381ADDAA106999999AZ101061AZ201061GF100991999999999999999999MA1999999096681MD1710021-0021REMSYN004BUFR
0104483040999992020020221004+19870+099774FM-12+039799999V0203601N0000122000199008000199+01471+01341101361ADDAA103999999AY101031AY201031GF100991999999999999999999MA1999999096611MD1710071-0071MW1101REMSYN004BUFR
0146483040999992020020300004+19867+099767FM-12+040199999V0209999C000019999999N006000199+01311+01231101571ADDAY101021AY201021KA1120N+01241MA1999999096781MD1210171-0141MW1101REMSYN07048304 31956 00000 10131 20123 39678 40157 52017 71000 333 20124 59014=
0099483040999992020020303004+19867+099767FM-12+040199999V0209999C000019999999N010000199+02301+01451101591ADDMA1999999096961MD1210181-0071REMSYN05848304 32960 00000 10230 20145 39696 40159 52018 333 59007=
0169483040999992020020306004+19867+099767FM-12+040199999V0201301N003612200019N015000199+03091+01121101131ADDGA1011+012501061GE19MSL   +99999+99999GF101991011999012501999999MA1999999096631MD1710331-0111REMSYN06448304 32665 11307 10309 20112 39663 40113 57033 81500 333 59011=
0136483040999992020020309004+19870+099774FM-12+039799999V0202301N0041122000199015000199+03251+00771100751ADDAA103999999AZ101031AZ201031GA1021+012501061GE19MSL   +99999+99999GF102991021999012501999999MA1999999096291MD1710341-0171REMSYN004BUFR
0188483040999992020020312004+19867+099767FM-12+040199999V0209999C000012200019N012000199+02511+01491100951ADDGA1011+012501061GE19MSL   +99999+99999GF101991011999012501999999KA1240M+03311MA1999999096381MD1210091-0131REMSYN07048304 32662 10000 10251 20149 39638 40095 52009 81500 333 10331 59013=
0099483040999992020020315004+19867+099767FM-12+040199999V0209999C000019999999N010000199+01851+01451101231ADDMA1999999096551MD1210171-0141REMSYN05848304 32960 00000 10185 20145 39655 40123 52017 333 59014=
0099483040999992020020318004+19867+099767FM-12+040199999V0209999C000019999999N010000199+01531+01291101281ADDMA1999999096551MD1410001-0101REMSYN05848304 32960 00000 10153 20129 39655 40128 54000 333 59010=
0099483040999992020020321004+19867+099767FM-12+040199999V0209999C000019999999N010000199+01351+01161101261ADDMA1999999096491MD1610051-0101REMSYN05848304 32960 00000 10135 20116 39649 40126 56005 333 59010=
0118483040999992020020400004+19867+099767FM-12+040199999V0209999C000019999999N012000199+01201+01141101481ADDKA1120N+01151MA1999999096681MD1210181-0091REMSYN06448304 32962 00000 10120 20114 39668 40148 52018 333 20115 59009=
0098483040999992020020403004+19870+099774FM-12+039799999V0203601N0000122000199012000199+02352+01311101451ADDAA103999999AZ101031AZ201031GF100991999999999999999999MA1999999096831MD1210151-0151REMSYN004BUFR
0098483040999992020020406004+19870+099774FM-12+039799999V0202101N0026122000199012000199+03071+00881101051ADDAA106999999AZ101061AZ201061GF100991999999999999999999MA1999999096561MD1710271-0081REMSYN004BUFR
0098483040999992020020409004+19870+099774FM-12+039799999V0201401N0031122000199012000199+03201+00741100751ADDAA103999999AZ101031AZ201031GF100991999999999999999999MA1999999096291MD1710271+0001REMSYN004BUFR
0118483040999992020020412004+19867+099767FM-12+040199999V0209999C000019999999N010000199+02351+01421100951ADDKA1240M+03251MA1999999096351MD1110061-0011REMSYN06448304 32960 00000 10235 20142 39635 40095 51006 333 10325 59001=
0099483040999992020020415004+19867+099767FM-12+040199999V0209999C000019999999N010000199+01681+01361101271ADDMA1999999096551MD1210201+0041REMSYN05848304 32960 00000 10168 20136 39655 40127 52020 333 58004=
0099483040999992020020418004+19867+099767FM-12+040199999V0209999C000019999999N010000199+01501+01321101321ADDMA1999999096571MD1110021+0041REMSYN05848304 32960 00000 10150 20132 39657 40132 51002 333 58004=
0188483040999992020020500004+19867+099767FM-12+040199999V0209999C000012200019N012000199+01151+01051101421ADDGA1011+008001061GE19MSL   +99999+99999GF101991011999008001999999KA1120N+01101MA1999999096611MD1210151-0061REMSYN07048304 32562 10000 10115 20105 39661 40142 52015 81500 333 20110 59006=
0169483040999992020020503004+19867+099767FM-12+040199999V0209999C000012200019N012000199+01931+01151101511ADDGA1021+008001061GE19MSL   +99999+99999GF102991021999008001999999MA1999999096831MD1210221+0071REMSYN06448304 32562 20000 10193 20115 39683 40151 52022 82500 333 58007=
0099483040999992020020506004+19867+099767FM-12+040199999V0201301N003119999999N012000199+02851+01101101061ADDMA1999999096531MD1710301+0011REMSYN05848304 32962 01306 10285 20110 39653 40106 57030 333 58001=
0169483040999992020020509004+19867+099767FM-12+040199999V0202401N002112200019N012000199+03101+01141100651ADDGA1011+008001061GE19MSL   +99999+99999GF101991011999008001999999MA1999999096181MD1710351-0101REMSYN06448304 32562 12404 10310 20114 39618 40065 57035 81500 333 59010=
0118483040999992020020512004+19867+099767FM-12+040199999V0209999C000019999999N010000199+02401+01571100851ADDKA1240M+03151MA1999999096271MD1110091-0091REMSYN06448304 32960 00000 10240 20157 39627 40085 51009 333 10315 59009=
0099483040999992020020515004+19867+099767FM-12+040199999V0209999C000019999999N010000199+01891+01571101171ADDMA1999999096501MD1210231-0091REMSYN05848304 32960 00000 10189 20157 39650 40117 52023 333 59009=
0099483040999992020020518004+19867+099767FM-12+040199999V0209999C000019999999N010000199+01621+01431101291ADDMA1999999096571MD1210071-0031REMSYN05848304 32960 00000 10162 20143 39657 40129 52007 333 59003=
0099483040999992020020521004+19867+099767FM-12+040199999V0209999C000019999999N010000199+01441+01311101341ADDMA1999999096581MD1210011+0101REMSYN05848304 32960 00000 10144 20131 39658 40134 52001 333 58010=
0118483040999992020020600004+19867+099767FM-12+040199999V0209999C000019999999N010000199+01161+01041101461ADDKA1120N+01121MA1999999096651MD1210071+0041REMSYN06448304 32960 00000 10116 20104 39665 40146 52007 333 20112 58004=
0136483040999992020020603004+19870+099774FM-12+039799999V0203601N0000122000199010000199+02121+01171101531ADDAA103999999AZ101031AZ201031GA1021+030001031GE19MSL   +99999+99999GF102991021999030001999999MA1999999096871MD1210221+0021REMSYN004BUFR
0169483040999992020020606004+19867+099767FM-12+040199999V0202201N001512200019N012000199+03061+01201101101ADDGA1011+999999031GE19MSL   +99999+99999GF101991011999999999999999MA1999999096601MD1710271+0041REMSYN06448304 32962 12203 10306 20120 39660 40110 57027 81040 333 58004=
0169483040999992020020609004+19867+099767FM-12+040199999V0201201N001019999999N015000199+03261+00961100801ADDGA1051+999999031GE19MSL   +99999+99999GF105991051999999999999999MA1999999096351MD1710251+0151REMSYN06448304 32965 51202 10326 20096 39635 40080 57025 85040 333 58015=
0136483040999992020020612004+19870+099774FM-12+039799999V0203601N0000122000199010000199+02371+01771101001ADDAA106999999AZ101061AZ201061GA1011+030001031GE19MSL   +99999+99999GF101991011999030001999999MA1999999096401MD1210051+0141REMSYN004BUFR
0099483040999992020020615004+19867+099767FM-12+040199999V0209999C000019999999N010000199+01841+01421101281ADDMA1999999096601MD1210191+0111REMSYN05848304 32960 00000 10184 20142 39660 40128 52019 333 58011=
0099483040999992020020618004+19867+099767FM-12+040199999V0209999C000019999999N010000199+01581+01351101361ADDMA1999999096631MD1210031+0071REMSYN05848304 32960 00000 10158 20135 39663 40136 52003 333 58007=
0099483040999992020020621004+19867+099767FM-12+040199999V0209999C000019999999N010000199+01381+01231101361ADDMA1999999096591MD1710041+0021REMSYN05848304 32960 00000 10138 20123 39659 40136 57004 333 58002=
0118483040999992020020700004+19867+099767FM-12+040199999V0209999C000019999999N010000199+01191+01051101581ADDKA1120N+01141MA1999999096781MD1210191+0131REMSYN06448304 32960 00000 10119 20105 39678 40158 52019 333 20114 58013=
0099483040999992020020703004+19867+099767FM-12+040199999V0209999C000019999999N012000199+02131+01311101671ADDMA1999999097011MD1210241+0141REMSYN05848304 32962 00000 10213 20131 39701 40167 52024 333 58014=
0099483040999992020020706004+19867+099767FM-12+040199999V0201701N001519999999N010000199+03051+01261101251ADDMA1999999096741MD1710271+0151REMSYN05848304 32960 01703 10305 20126 39674 40125 57027 333 58015=
0136483040999992020020709004+19870+099774FM-12+039799999V0201901N0010122000199010000199+03271+01061100951ADDAA103999999AZ101031AZ201031GA1011+008001081GE19MSL   +99999+99999GF101991011999008001999999MA1999999096491MD1710261+0141REMSYN004BUFR
0118483040999992020020712004+19867+099767FM-12+040199999V0209999C000019999999N010000199+02611+01841101111ADDKA1240M+03361MA1999999096541MD1210061+0111REMSYN06448304 32960 00000 10261 20184 39654 40111 52006 333 10336 58011=
0098483040999992020020715004+19870+099774FM-12+039799999V0203601N0000122000199010000199+01921+01451101381ADDAA103999999AZ101031AZ201031GF100991999999999999999999MA1999999096691MD1210151+0091REMSYN004BUFR
0104483040999992020020718004+19870+099774FM-12+039799999V0203601N0000122000199008000199+01701+01431101441ADDAA106999999AY101061AY201061GF100991999999999999999999MA1999999096721MD1210031+0081MW1101REMSYN004BUFR
0127483040999992020020721004+19867+099767FM-12+040199999V0209999C000019999999N007000199+01521+01341101431ADDAY101021AY201021MA1999999096681MD1710041+0071MW1101REMSYN06448304 31957 00000 10152 20134 39668 40143 57004 71000 333 58007=
0146483040999992020020800004+19867+099767FM-12+040199999V0209999C000019999999N006000199+01401+01311101661ADDAY101021AY201021KA1120N+01241MA1999999096891MD1210211+0081MW1101REMSYN07048304 31956 00000 10140 20131 39689 40166 52021 71000 333 20124 58008=
0104483040999992020020803004+19870+099774FM-12+039799999V0203601N0000122000199006000199+02201+01451101771ADDAA103999999AY101031AY201031GF100991999999999999999999MA1999999097121MD1210231+0101MW1051REMSYN004BUFR
0104483040999992020020806004+19870+099774FM-12+039799999V0203601N0000122000199006000199+03001+01541101431ADDAA106999999AY101061AY201061GF100991999999999999999999MA1999999096911MD1710211+0181MW1051REMSYN004BUFR
0142483040999992020020809004+19870+099774FM-12+039799999V0201801N0036122000199009000199+03211+01511101061ADDAA103999999AY101031AY201031GA1021+012501061GE19MSL   +99999+99999GF102991021999012501999999MA1999999096581MD1710321+0111MW1051REMSYN004BUFR
0146483040999992020020812004+19867+099767FM-12+040199999V0209999C000019999999N008000199+02441+01641101281ADDAY101021AY201021KA1240M+03241MA1999999096681MD1210101+0171MW1051REMSYN07048304 31958 00000 10244 20164 39668 40128 52010 70500 333 10324 58017=
0104483040999992020020815004+19870+099774FM-12+039799999V0203601N0000122000199008000199+02151+01801101521ADDAA103999999AY101031AY201031GF100991999999999999999999MA1999999096871MD1210191+0151MW1101REMSYN004BUFR
0104483040999992020020818004+19870+099774FM-12+039799999V0203601N0000122000199006000199+01851+01631101581ADDAA106999999AY101061AY201061GF100991999999999999999999MA1999999096881MD1210011+0141MW1101REMSYN004BUFR
0104483040999992020020821004+19870+099774FM-12+039799999V0203601N0000122000199006000199+01771+01591101581ADDAA103999999AY101031AY201031GF100991999999999999999999MA1999999096871MD1710011+0151MW1101REMSYN004BUFR
0146483040999992020020900004+19867+099767FM-12+040199999V0209999C000019999999N003000199+01601+01511101801ADDAY101021AY201021KA1120N+01341MA1999999097051MD1210191+0141MW1101REMSYN07048304 31930 00000 10160 20151 39705 40180 52019 71000 333 20134 58014=
0104483040999992020020903004+19870+099774FM-12+039799999V0203601N0000122000199008000199+02401+01831101861ADDAA103999999AY101031AY201031GF100991999999999999999999MA1999999097231MD1210181+0091MW1101REMSYN004BUFR
0104483040999992020020906004+19870+099774FM-12+039799999V0203601N0000122000199008000199+03001+01641101471ADDAA106999999AY101061AY201061GF100991999999999999999999MA1999999096951MD1710281+0051MW1051REMSYN004BUFR
0142483040999992020020909004+19870+099774FM-12+039799999V0203601N0000122000199008000199+03101+01591101121ADDAA103999999AY101031AY201031GA1041+030001031GE19MSL   +99999+99999GF104991041999030001999999MA1999999096631MD1710321+0061MW1051REMSYN004BUFR
0146483040999992020020912004+19867+099767FM-12+040199999V0209999C000019999999N008000199+02551+02011101261ADDAY101021AY201021KA1240M+03231MA1999999096681MD1210061-0021MW1101REMSYN07048304 31958 00000 10255 20201 39668 40126 52006 71000 333 10323 59002=
0169483040999992020020915004+19867+099767FM-12+040199999V0209999C000012200019N010000199+02071+01801101491ADDGA1021+008001061GE19MSL   +99999+99999GF102991021999008001999999MA1999999096831MD1210141-0031REMSYN06448304 32560 20000 10207 20180 39683 40149 52014 82500 333 59003=
0197483040999992020020918004+19867+099767FM-12+040199999V0209999C000012200019N006000199+01901+01741101531ADDAY101021AY201021GA1021+008001061GE19MSL   +99999+99999GF102991021999008001999999MA1999999096841MD1110011-0041MW1101REMSYN07048304 31556 20000 10190 20174 39684 40153 51001 71000 82500 333 59004=
0197483040999992020020921004+19867+099767FM-12+040199999V0209999C000012200019N006000199+01771+01651101491ADDAY101021AY201021GA1021+008001061GE19MSL   +99999+99999GF102991021999008001999999MA1999999096781MD1610061-0081MW1101REMSYN07048304 31556 20000 10177 20165 39678 40149 56006 71000 82500 333 59008=
0220483040999992020021000004+19867+099767FM-12+040199999V0209999C000019999999N012000199+01771+01691101591ADDGA1041+008001061GA2999+999999031GA3999+999999021GE19MSL   +99999+99999GF106991041999008001999999KA1120N+01701MA1999999096881MD1110091-0211REMSYN07048304 32562 60000 10177 20169 39688 40159 51009 84576 333 20170 59021=
0201483040999992020021003004+19867+099767FM-12+040199999V0209999C000019999999N012000199+02451+01631101721ADDGA1031+008001061GA2999+999999031GA3999+999999021GE19MSL   +99999+99999GF105991031999008001999999MA1999999097101MD1210231-0141REMSYN06448304 32562 50000 10245 20163 39710 40172 52023 83575 333 59014=
0169483040999992020021006004+19867+099767FM-12+040199999V0202201N003112200019N012000199+03001+01431101301ADDGA1011+008001061GE19MSL   +99999+99999GF101991011999008001999999MA1999999096781MD1710321-0171REMSYN06448304 32562 12206 10300 20143 39678 40130 57032 81500 333 59017=
0136483040999992020021009004+19870+099774FM-12+039799999V0202401N0026122000199012000199+03151+01431101001ADDAA103999999AZ101031AZ201031GA1011+008001081GE19MSL   +99999+99999GF101991011999008001999999MA1999999096521MD1710271-0121REMSYN004BUFR
0136483040999992020021012004+19870+099774FM-12+039799999V0203601N0000122000199010000199+02601+01901101081ADDAA106999999AZ101061AZ201061GA1011+008001081GE19MSL   +99999+99999GF101991011999008001999999MA1999999096521MD1410001-0181REMSYN004BUFR
0099483040999992020021015004+19867+099767FM-12+040199999V0209999C000019999999N010000199+02051+01811101381ADDMA1999999096711MD1210201-0121REMSYN05848304 32960 00000 10205 20181 39671 40138 52020 333 59012=
0099483040999992020021018004+19867+099767FM-12+040199999V0209999C000019999999N010000199+01881+01661101481ADDMA1999999096791MD1110071-0061REMSYN05848304 32960 00000 10188 20166 39679 40148 51007 333 59006=
0099483040999992020021021004+19867+099767FM-12+040199999V0209999C000019999999N010000199+01801+01631101461ADDMA1999999096751MD1610031-0031REMSYN05848304 32960 00000 10180 20163 39675 40146 56003 333 59003=
0188483040999992020021100004+19867+099767FM-12+040199999V0209999C000012200019N012000199+01651+01481101581ADDGA1021+008001061GE19MSL   +99999+99999GF102991021999008001999999KA1120N+01601MA1999999096851MD1210101-0011REMSYN07048304 32562 20000 10165 20148 39685 40158 52010 82500 333 20160 59001=
0099483040999992020021103004+19867+099767FM-12+040199999V0209999C000019999999N012000199+02451+01731101691ADDMA1999999097081MD1210231-0021REMSYN05848304 32962 00000 10245 20173 39708 40169 52023 333 59002=
0136483040999992020021106004+19870+099774FM-12+039799999V0202301N0026122000199012000199+03051+01391101341ADDAA106999999AZ101061AZ201061GA1021+008001081GE19MSL   +99999+99999GF102991021999008001999999MA1999999096831MD1710241+0051REMSYN004BUFR
0169483040999992020021109004+19867+099767FM-12+040199999V0202101N003612200019N012000199+03301+00771100921ADDGA1011+008001081GE19MSL   +99999+99999GF101991011999008001999999MA1999999096471MD1710371-0071REMSYN06448304 32562 12107 10330 20077 39647 40092 57037 81200 333 59007=
0118483040999992020021112004+19867+099767FM-12+040199999V0209999C000019999999N010000199+02501+01501101081ADDKA1240M+03351MA1999999096501MD1110031+0001REMSYN06448304 32960 00000 10250 20150 39650 40108 51003 333 10335 58000=
0099483040999992020021115004+19867+099767FM-12+040199999V0209999C000019999999N010000199+02001+01671101331ADDMA1999999096671MD1210171-0041REMSYN05848304 32960 00000 10200 20167 39667 40133 52017 333 59004=
0099483040999992020021118004+19867+099767FM-12+040199999V0209999C000019999999N010000199+01841+01621101411ADDMA1999999096721MD1210051-0071REMSYN05848304 32960 00000 10184 20162 39672 40141 52005 333 59007=
0099483040999992020021121004+19867+099767FM-12+040199999V0209999C000019999999N010000199+01541+01381101421ADDMA1999999096681MD1710041-0041REMSYN05848304 32960 00000 10154 20138 39668 40142 57004 333 59004=
0118483040999992020021200004+19867+099767FM-12+040199999V0209999C000019999999N010000199+01261+01161101581ADDKA1120N+01211MA1999999096791MD1210111+0001REMSYN06448304 32960 00000 10126 20116 39679 40158 52011 333 20121 58000=
0099483040999992020021203004+19867+099767FM-12+040199999V0209999C000019999999N010000199+02281+01271101621ADDMA1999999096981MD1210191-0081REMSYN05848304 32960 00000 10228 20127 39698 40162 52019 333 59008=
0099483040999992020021206004+19867+099767FM-12+040199999V0209999C000019999999N010000199+03141+00921101121ADDMA1999999096631MD1710351-0231REMSYN05848304 32960 00000 10314 20092 39663 40112 57035 333 59023=
0098483040999992020021209004+19870+099774FM-12+039799999V0202201N0051122000199010000199+03321+00401100731ADDAA103999999AZ101031AZ201031GF100991999999999999999999MA1999999096291MD1710341-0191REMSYN004BUFR
0118483040999992020021212004+19867+099767FM-12+040199999V0209999C000019999999N010000199+02551+01502100971ADDKA1240M+03431MA1999999096401MD1210111-0111REMSYN06448304 32960 00000 10255 20150 39640 40097 52011 333 10343 59011=
0099483040999992020021215004+19867+099767FM-12+040199999V0209999C000019999999N010000199+01971+01421101241ADDMA1999999096581MD1210181-0091REMSYN05848304 32960 00000 10197 20142 39658 40124 52018 333 59009=
0099483040999992020021218004+19867+099767FM-12+040199999V0209999C000019999999N010000199+01831+01471101271ADDMA1999999096581MD1210011-0141REMSYN05848304 32960 00000 10183 20147 39658 40127 52001 333 59014=
0099483040999992020021221004+19867+099767FM-12+040199999V0209999C000019999999N010000199+01451+01301101291ADDMA1999999096541MD1710051-0131REMSYN05848304 32960 00000 10145 20130 39654 40129 57005 333 59013=
0118483040999992020021300004+19867+099767FM-12+040199999V0209999C000019999999N010000199+01261+01111101481ADDKA1120N+01211MA1999999096691MD1210151-0111REMSYN06448304 32960 00000 10126 20111 39669 40148 52015 333 20121 59011=
0099483040999992020021303004+19867+099767FM-12+040199999V0209999C000019999999N010000199+02402+01111101411ADDMA1999999096801MD1210111-0211REMSYN05848304 32960 00000 10240 20111 39680 40141 52011 333 59021=
0169483040999992020021306004+19867+099767FM-12+040199999V0202701N004112200019N012000199+03201+00881100831ADDGA1011+008001061GE19MSL   +99999+99999GF101991011999008001999999MA1999999096371MD1710431-0281REMSYN06448304 32562 12708 10320 20088 39637 40083 57043 81500 333 59028=
0099483040999992020021309004+19867+099767FM-12+040199999V0202401N005119999999N012000199+03311+00851100521ADDMA1999999096091MD1710281-0211REMSYN05848304 32962 02410 10331 20085 39609 40052 57028 333 59021=
0118483040999992020021312004+19867+099767FM-12+040199999V0209999C000019999999N010000199+02651+01631100631ADDKA1240M+03341MA1999999096091MD1210011-0341REMSYN06448304 32960 00000 10265 20163 39609 40063 52001 333 10334 59034=
0098483040999992020021315004+19870+099774FM-12+039799999V0203601N0000122000199010000199+02001+01461100801ADDAA103999999AZ101031AZ201031GF100991999999999999999999MA1999999096161MD1210061-0441REMSYN004BUFR
0098483040999992020021318004+19870+099774FM-12+039799999V0203601N0000122000199010000199+01821+01561100851ADDAA106999999AZ101061AZ201061GF100991999999999999999999MA1999999096181MD1210031-0421REMSYN004BUFR
0098483040999992020021321004+19870+099774FM-12+039799999V0203601N0000122000199010000199+01771+01381100801ADDAA103999999AZ101031AZ201031GF100991999999999999999999MA1999999096131MD1710061-0481REMSYN004BUFR
0118483040999992020021400004+19867+099767FM-12+040199999V0209999C000019999999N010000199+01321+01131101051ADDKA1120N+01261MA1999999096291MD1210161-0431REMSYN06448304 32960 00000 10132 20113 39629 40105 52016 333 20126 59043=
0099483040999992020021403004+19867+099767FM-12+040199999V0202301N003619999999N012000199+02562+00981100981ADDMA1999999096411MD1210131-0431REMSYN05848304 32962 02307 10256 20098 39641 40098 52013 333 59043=
0098483040999992020021406004+19870+099774FM-12+039799999V0202201N0041122000199015000199+03212+00431100551ADDAA106999999AZ101061AZ201061GF100991999999999999999999MA1999999096101MD1710311-0281REMSYN004BUFR
0098483040999992020021409004+19870+099774FM-12+039799999V0202201N0026122000199015000199+03161+00161100251ADDAA103999999AZ101031AZ201031GF100991999999999999999999MA1999999095811MD1710291-0271REMSYN004BUFR
0098483040999992020021412004+19870+099774FM-12+039799999V0203601N0000122000199015000199+02451+01482100511ADDAA106999999AZ101061AZ201061GF100991999999999999999999MA1999999095951MD1210141-0121REMSYN004BUFR
0098483040999992020021415004+19870+099774FM-12+039799999V0203601N0000122000199015000199+01901+01431100761ADDAA103999999AZ101031AZ201031GF100991999999999999999999MA1999999096111MD1210161-0031REMSYN004BUFR
0098483040999992020021418004+19870+099774FM-12+039799999V0203601N0000122000199012000199+01571+01271100911ADDAA106999999AZ101061AZ201061GF100991999999999999999999MA1999999096201MD1210091+0061REMSYN004BUFR
0098483040999992020021421004+19870+099774FM-12+039799999V0203601N0000122000199012000199+01371+01111100951ADDAA103999999AZ101031AZ201031GF100991999999999999999999MA1999999096211MD1210011+0151REMSYN004BUFR
0111483040999992020021500004+19870+099774FM-12+039799999V0203601N0000122000199010000199+01151+00951101201ADDAA106999999AZ101061AZ201061GF100991999999999999999999KA1120N+01111MA1999999096411MD1210201+0151REMSYN004BUFR
0099483040999992020021503004+19867+099767FM-12+040199999V0201801N001019999999N010000199+02201+01001101331ADDMA1999999096701MD1210291+0361REMSYN05848304 32960 01802 10220 20100 39670 40133 52029 333 58036=
0098483040999992020021506004+19870+099774FM-12+039799999V0201301N0031122000199015000199+03001+00701100871ADDAA106999999AZ101061AZ201061GF100991999999999999999999MA1999999096381MD1710321+0321REMSYN004BUFR
0099483040999992020021509004+19867+099767FM-12+040199999V0209999C000019999999N015000199+03251+00741100561ADDMA1999999096111MD1710271+0311REMSYN05848304 32965 00000 10325 20074 39611 40056 57027 333 58031=
0098483040999992020021512004+19870+099774FM-12+039799999V0203601N0000122000199012000199+02401+01461100791ADDAA106999999AZ101061AZ201061GF100991999999999999999999MA1999999096211MD1210101+0281REMSYN004BUFR
0099483040999992020021515004+19867+099767FM-12+040199999V0209999C000019999999N010000199+01751+01401101171ADDMA1999999096481MD1210271+0411REMSYN05848304 32960 00000 10175 20140 39648 40117 52027 333 58041=
0099483040999992020021518004+19867+099767FM-12+040199999V0209999C000019999999N010000199+01471+01291101301ADDMA1999999096551MD1110071+0391REMSYN05848304 32960 00000 10147 20129 39655 40130 51007 333 58039=
0099483040999992020021521004+19867+099767FM-12+040199999V0209999C000019999999N010000199+01301+01211101331ADDMA1999999096551MD1110011+0381REMSYN05848304 32960 00000 10130 20121 39655 40133 51001 333 58038=
0111483040999992020021600004+19870+099774FM-12+039799999V0203601N0000122000199012000199+01201+01101101591ADDAA106999999AZ101061AZ201061GF100991999999999999999999KA1120N+01151MA1999999096791MD1210231+0391REMSYN004BUFR
0099483040999992020021603004+19867+099767FM-12+040199999V0209999C000019999999N012000199+02051+01251101651ADDMA1999999096981MD1210191+0321REMSYN05848304 32962 00000 10205 20125 39698 40165 52019 333 58032=
0098483040999992020021606004+19870+099774FM-12+039799999V0203601N0000122000199010000199+02901+01101101201ADDAA106999999AZ101061AZ201061GF100991999999999999999999MA1999999096671MD1710301+0321REMSYN004BUFR
0099483040999992020021609004+19867+099767FM-12+040199999V0209999C000019999999N012000199+03151+01071100931ADDMA1999999096451MD1710221+0371REMSYN05848304 32962 00000 10315 20107 39645 40093 57022 333 58037=
0118483040999992020021612004+19867+099767FM-12+040199999V0209999C000019999999N010000199+02351+01611101121ADDKA1240M+03201MA1999999096521MD1110061+0331REMSYN06448304 32960 00000 10235 20161 39652 40112 51006 333 10320 58033=
0099483040999992020021615004+19867+099767FM-12+040199999V0209999C000019999999N010000199+01751+01451101371ADDMA1999999096661MD1210151+0201REMSYN05848304 32960 00000 10175 20145 39666 40137 52015 333 58020=
0099483040999992020021618004+19867+099767FM-12+040199999V0209999C000019999999N010000199+01501+01321101461ADDMA1999999096711MD1110051+0171REMSYN05848304 32960 00000 10150 20132 39671 40146 51005 333 58017=
0099483040999992020021621004+19867+099767FM-12+040199999V0209999C000019999999N010000199+01371+01241101451ADDMA1999999096681MD1610031+0121REMSYN05848304 32960 00000 10137 20124 39668 40145 56003 333 58012=
0118483040999992020021700004+19867+099767FM-12+040199999V0209999C000019999999N010000199+01251+01151101651ADDKA1120N+01201MA1999999096851MD1210171+0061REMSYN06448304 32960 00000 10125 20115 39685 40165 52017 333 20120 58006=
0099483040999992020021703004+19867+099767FM-12+040199999V0209999C000019999999N010000199+02171+01321101741ADDMA1999999097081MD1210241+0091REMSYN05848304 32960 00000 10217 20132 39708 40174 52024 333 58009=
0099483040999992020021706004+19867+099767FM-12+040199999V0200801N002619999999N010000199+02951+01251101321ADDMA1999999096801MD1710291+0121REMSYN05848304 32960 00805 10295 20125 39680 40132 57029 333 58012=
0099483040999992020021709004+19867+099767FM-12+040199999V0209999C000019999999N010000199+03251+01281100971ADDMA1999999096511MD1710291+0041REMSYN05848304 32960 00000 10325 20128 39651 40097 57029 333 58004=
0118483040999992020021712004+19867+099767FM-12+040199999V0209999C000019999999N010000199+02501+01871101171ADDKA1240M+03281MA1999999096581MD1110081+0051REMSYN06448304 32960 00000 10250 20187 39658 40117 51008 333 10328 58005=
0099483040999992020021715004+19867+099767FM-12+040199999V0209999C000019999999N010000199+02021+01661101381ADDMA1999999096711MD1210131+0001REMSYN05848304 32960 00000 10202 20166 39671 40138 52013 333 58000=
0099483040999992020021718004+19867+099767FM-12+040199999V0209999C000019999999N010000199+01841+01671101511ADDMA1999999096811MD1210101+0041REMSYN05848304 32960 00000 10184 20167 39681 40151 52010 333 58004=
0099483040999992020021721004+19867+099767FM-12+040199999V0209999C000019999999N010000199+01701+01561101491ADDMA1999999096771MD1710041+0041REMSYN05848304 32960 00000 10170 20156 39677 40149 57004 333 58004=
0204483040999992020021800004+19867+099767FM-12+040199999V0209999C000012200019N010000199+01641+01521101731ADDGA1011+008001061GA2999+999999031GE19MSL   +99999+99999GF101991011999008001999999KA1120N+01601MA1999999096991MD1210221+0081REMSYN07048304 32560 10000 10164 20152 39699 40173 52022 81540 333 20160 58008=
0169483040999992020021803004+19867+099767FM-12+040199999V0200801N001519999999N010000199+02261+01431101861ADDGA1061+008001081GE19MSL   +99999+99999GF106991061999008001999999MA1999999097211MD1210221+0121REMSYN06448304 32560 60803 10226 20143 39721 40186 52022 86100 333 58012=
0201483040999992020021806004+19867+099767FM-12+040199999V0200201N001519999999N010000199+02661+01501101531ADDGA1041+008001081GA2999+999999031GA3999+999999021GE19MSL   +99999+99999GF106991041999008001999999MA1999999096961MD1710251+0221REMSYN06448304 32560 60203 10266 20150 39696 40153 57025 84146 333 58022=
0098483040999992020021809004+19870+099774FM-12+039799999V0203601N0010122000199010000199+02861+01601101161ADDAA103999999AZ101031AZ201031GF100991999999999999999999MA1999999096631MD1710321+0191REMSYN004BUFR
0220483040999992020021812004+19867+099767FM-12+040199999V0209999C000012200019N010000199+02421+01801101271ADDGA1021+008001081GA2999+999999031GA3999+999999021GE19MSL   +99999+99999GF103991021999008001999999KA1240M+02881MA1999999096671MD1210041+0101REMSYN07048304 32560 30000 10242 20180 39667 40127 52004 82145 333 10288 58010=
0201483040999992020021815004+19867+099767FM-12+040199999V0202201N001519999999N010000199+02251+01851101521ADDGA1031+008001061GA2999+999999031GA3999+999999021GE19MSL   +99999+99999GF105991031999008001999999MA1999999096891MD1210221+0151REMSYN06448304 32560 52203 10225 20185 39689 40152 52022 83546 333 58015=
0099483040999992020021818004+19867+099767FM-12+040199999V0209999C000019999999N010000199+01941+01711101621ADDMA1999999096931MD1210041+0111REMSYN05848304 32960 00000 10194 20171 39693 40162 52004 333 58011=
0099483040999992020021821004+19867+099767FM-12+040199999V0209999C000019999999N010000199+01721+01571101581ADDMA1999999096861MD1710071+0091REMSYN05848304 32960 00000 10172 20157 39686 40158 57007 333 58009=
0118483040999992020021900004+19867+099767FM-12+040199999V0209999C000019999999N010000199+01601+01461101821ADDKA1120N+01561MA1999999097061MD1210211+0081REMSYN06448304 32960 00000 10160 20146 39706 40182 52021 333 20156 58008=
0099483040999992020021903004+19867+099767FM-12+040199999V0209999C000019999999N010000199+02331+01641101901ADDMA1999999097261MD1210201+0041REMSYN05848304 32960 00000 10233 20164 39726 40190 52020 333 58004=
0098483040999992020021906004+19870+099774FM-12+039799999V0203601N0000122000199010000199+02961+01551101491ADDAA106999999AZ101061AZ201061GF100991999999999999999999MA1999999096961MD1710301-0051REMSYN004BUFR
0169483040999992020021909004+19867+099767FM-12+040199999V0201101N002612200019N010000199+03171+01541101061ADDGA1011+008001081GE19MSL   +99999+99999GF101991011999008001999999MA1999999096581MD1710381-0101REMSYN06448304 32560 11105 10317 20154 39658 40106 57038 81100 333 59010=
0188483040999992020021912004+19867+099767FM-12+040199999V0209999C000012200019N010000199+02641+01941101201ADDGA1011+008001061GE19MSL   +99999+99999GF101991011999008001999999KA1240M+03221MA1999999096631MD1210051-0071REMSYN07048304 32560 10000 10264 20194 39663 40120 52005 81500 333 10322 59007=
0098483040999992020021915004+19870+099774FM-12+039799999V0203601N0000122000199010000199+02071+01611101481ADDAA103999999AZ101031AZ201031GF100991999999999999999999MA1999999096821MD1210191-0041REMSYN004BUFR
0142483040999992020021918004+19870+099774FM-12+039799999V0203601N0000122000199008000199+01871+01631101501ADDAA106999999AY101061AY201061GA1999+030001001GE19MSL   +99999+99999GF103991999999030001999999MA1999999096811MD1710011-0121MW1101REMSYN004BUFR
0142483040999992020021921004+19870+099774FM-12+039799999V0203601N0000122000199008000199+01671+01511101451ADDAA103999999AY101031AY201031GA1999+030001001GE19MSL   +99999+99999GF102991999999030001999999MA1999999096731MD1710081-0131MW1101REMSYN004BUFR
0171483040999992020022000004+19870+099774FM-12+039799999V0203601N0000122000199008000199+01551+01391101561ADDAA106999999AY101061AY201061GA1021+012501061GA2999+999999001GE19MSL   +99999+99999GF103991021999012501999999KA1120N+01491MA1999999096811MD1210081-0251MW1101REMSYN004BUFR
0158483040999992020022003004+19870+099774FM-12+039799999V0203601N0000122000199008000199+02251+01671101901ADDAA103999999AY101031AY201031GA1021+030001031GA2999+999999001GE19MSL   +99999+99999GF103991021999030001999999MA1999999097241MD1210311-0011MW1101REMSYN004BUFR
0127483040999992020022006004+19867+099767FM-12+040199999V0201401N002119999999N008000199+03051+01671101441ADDAY101021AY201021MA1999999096931MD1710311-0051MW1051REMSYN06448304 31958 01404 10305 20167 39693 40144 57031 70500 333 59005=
0136483040999992020022009004+19870+099774FM-12+039799999V0203601N0000122000199012000199+03221+01561101101ADDAA103999999AZ101031AZ201031GA1021+030001031GE19MSL   +99999+99999GF102991021999030001999999MA1999999096621MD1710311+0031REMSYN004BUFR
0136483040999992020022012004+19870+099774FM-12+039799999V0203601N0000122000199012000199+02711+01921101261ADDAA106999999AZ101061AZ201061GA1041+030001031GE19MSL   +99999+99999GF104991041999030001999999MA1999999096711MD1210081+0061REMSYN004BUFR
0136483040999992020022015004+19870+099774FM-12+039799999V0203601N0000122000199010000199+02121+01691101611ADDAA103999999AZ101031AZ201031GA1021+030001031GE19MSL   +99999+99999GF102991021999030001999999MA1999999096951MD1210251+0131REMSYN004BUFR
0188483040999992020022018004+19867+099767FM-12+040199999V0209999C000012200019N010000199+01901+01671101681ADDGA1999+999999001GE19MSL   +99999+99999GF102991001999999999999999MA1999999096981MD1210031+0181REMSYN06448304 32960 20000 10190 20167 39698 40168 52003 80001 333 58018=EQDQ01    003SCCGA1
0152483040999992020022021004+19870+099774FM-12+039799999V0203601N0000199999999010000199+01671+01511101621ADDAA103999999AZ101031AZ201031GA1041+030001031GA2999+999999001GE19MSL   +99999+99999GF105991041999030001999999MA1999999096891MD1710091+0171REMSYN004BUFR
0171483040999992020022100004+19870+099774FM-12+039799999V0203601N0000122000199008000199+01601+01461101891ADDAA106999999AY111061AY211061GA1031+030001031GA2999+999999001GE19MSL   +99999+99999GF103991031999030001999999KA1120N+01561MA1999999097131MD1210241+0201MW1101REMSYN004BUFR
0127483040999992020022103004+19867+099767FM-12+040199999V0209999C000019999999N008000199+02431+01701102051ADDAY101021AY201021MA1999999097421MD1210291+0161MW1051REMSYN06448304 31958 00000 10243 20170 39742 40205 52029 70500 333 58016=
0127483040999992020022106004+19867+099767FM-12+040199999V0209999C000019999999N008000199+03101+01651101751ADDAY101021AY201021MA1999999097231MD1710191+0311MW1051REMSYN06448304 31958 00000 10310 20165 39723 40175 57019 70500 333 58031=
0197483040999992020022109004+19867+099767FM-12+040199999V0209999C000012200019N008000199+03201+01501101451ADDAY101021AY201021GA1021+008001061GE19MSL   +99999+99999GF102991021999008001999999MA1999999096961MD1710271+0351MW1051REMSYN07048304 31558 20000 10320 20150 39696 40145 57027 70500 82500 333 58035=
0146483040999992020022112004+19867+099767FM-12+040199999V0209999C000019999999N008000199+02571+01741101591ADDAY101021AY201021KA1240M+03251MA1999999097001MD1210041+0331MW1051REMSYN07048304 31958 00000 10257 20174 39700 40159 52004 70500 333 10325 58033=
0104483040999992020022115004+19870+099774FM-12+039799999V0203601N0000122000199008000199+02121+01591101941ADDAA103999999AY101031AY201031GF100991999999999999999999MA1999999097271MD1210261+0331MW1101REMSYN004BUFR
0127483040999992020022118004+19867+099767FM-12+040199999V0209999C000019999999N008000199+01891+01621102011ADDAY101021AY201021MA1999999097301MD1210031+0341MW1101REMSYN06448304 31958 00000 10189 20162 39730 40201 52003 71000 333 58034=
0104483040999992020022121004+19870+099774FM-12+039799999V0203601N0000122000199008000199+01761+01611101921ADDAA103999999AY101031AY201031GF100991999999999999999999MA1999999097191MD1710111+0301MW1101REMSYN004BUFR
0248483040999992020022200004+19867+099767FM-12+040199999V0209999C000019999999N006000199+01701+01611102141ADDAY111021AY211021GA1031+008001061GA2999+999999031GA3999+999999021GE19MSL   +99999+99999GF106991031999008001999999KA1120N+01641MA1999999097391MD1210201+0251MW1101REMSYN07648304 31556 60000 10170 20161 39739 40214 52020 71011 83546 333 20164 58025=
0216483040999992020022203004+19867+099767FM-12+040199999V0209999C000019999999N008000199+02501+01781102241ADDAY121021AY221021GA1999+999999021GE19MSL   +99999+99999GF105991001999999999999999MA1999999097611MD1210221+0181MW1051REMSYN07048304 31958 50000 10250 20178 39761 40224 52022 70522 80006 333 58018=EQDQ01    003SCCGA1
0142483040999992020022206004+19870+099774FM-12+039799999V0201201N0036122000199008000199+02901+01531101911ADDAA106999999AY111061AY211061GA1021+008001061GE19MSL   +99999+99999GF102991021999008001999999MA1999999097351MD1710251+0161MW1051REMSYN004BUFR
0197483040999992020022209004+19867+099767FM-12+040199999V0209999C000012200019N008000199+03101+01571101511ADDAY101021AY201021GA1021+012501061GE19MSL   +99999+99999GF102991021999012501999999MA1999999097001MD1710361+0061MW1051REMSYN07048304 31658 20000 10310 20157 39700 40151 57036 70500 82500 333 58006=
0216483040999992020022212004+19867+099767FM-12+040199999V0209999C000012200019N008000199+02601+01971101671ADDAY101021AY201021GA1021+012501061GE19MSL   +99999+99999GF102991021999012501999999KA1240M+03111MA1999999097081MD1210091+0081MW1101REMSYN07648304 31658 20000 10260 20197 39708 40167 52009 71000 82500 333 10311 58008=
0127483040999992020022215004+19867+099767FM-12+040199999V0209999C000019999999N008000199+02121+01801101951ADDAY101021AY201021MA1999999097271MD1210191+0011MW1101REMSYN06448304 31958 00000 10212 20180 39727 40195 52019 71000 333 58001=
0104483040999992020022218004+19870+099774FM-12+039799999V0203601N0000122000199008000199+01901+01741101981ADDAA106999999AY101061AY201061GF100991999999999999999999MA1999999097271MD1410001-0031MW1101REMSYN004BUFR
0127483040999992020022221004+19867+099767FM-12+040199999V0209999C000019999999N008000199+01671+01551101881ADDAY101021AY201021MA1999999097141MD1710131-0041MW1101REMSYN06448304 31958 00000 10167 20155 39714 40188 57013 71000 333 59004=
0146483040999992020022300004+19867+099767FM-12+040199999V0209999C000019999999N008000199+01511+01421101991ADDAY101021AY201021KA1120N+01471MA1999999097221MD1210081-0141MW1101REMSYN07048304 31958 00000 10151 20142 39722 40199 52008 71000 333 20147 59014=
0127483040999992020022303004+19867+099767FM-12+040199999V0209999C000019999999N008000199+02371+01741102131ADDAY101021AY201021MA1999999097481MD1210261-0111MW1101REMSYN06448304 31958 00000 10237 20174 39748 40213 52026 71000 333 59011=
0127483040999992020022306004+19867+099767FM-12+040199999V0200801N001519999999N008000199+02941+01501101721ADDAY101021AY201021MA1999999097181MD1710301-0191MW1051REMSYN06448304 31958 00803 10294 20150 39718 40172 57030 70500 333 59019=
0197483040999992020022309004+19867+099767FM-12+040199999V0200801N002112200019N008000199+03051+01481101311ADDAY101021AY201021GA1011+008001081GE19MSL   +99999+99999GF101991011999008001999999MA1999999096801MD1710381-0201MW1051REMSYN07048304 31558 10804 10305 20148 39680 40131 57038 70500 81100 333 59020=
0146483040999992020022312004+19867+099767FM-12+040199999V0209999C000019999999N008000199+02521+01681101391ADDAY101021AY201021KA1240M+03111MA1999999096801MD1410001-0281MW1051REMSYN07048304 31958 00000 10252 20168 39680 40139 54000 70500 333 10311 59028=
0127483040999992020022315004+19867+099767FM-12+040199999V0209999C000019999999N008000199+02031+01741101601ADDAY101021AY201021MA1999999096921MD1210121-0351MW1101REMSYN06448304 31958 00000 10203 20174 39692 40160 52012 71000 333 59035=
0127483040999992020022318004+19867+099767FM-12+040199999V0209999C000019999999N008000199+01741+01571101601ADDAY101021AY201021MA1999999096891MD1710041-0381MW1101REMSYN06448304 31958 00000 10174 20157 39689 40160 57004 71000 333 59038=
0127483040999992020022321004+19867+099767FM-12+040199999V0209999C000019999999N008000199+01631+01531101531ADDAY101021AY201021MA1999999096801MD1710091-0351MW1101REMSYN06448304 31958 00000 10163 20153 39680 40153 57009 71000 333 59035=
0216483040999992020022400004+19867+099767FM-12+040199999V0209999C000012200019N008000199+01501+01391101601ADDAY101021AY201021GA1011+008001061GE19MSL   +99999+99999GF101991011999008001999999KA1120N+01461MA1999999096841MD1210041-0401MW1101REMSYN07648304 31558 10000 10150 20139 39684 40160 52004 71000 81500 333 20146 59040=
0213483040999992020022403004+19867+099767FM-12+040199999V0209999C000019999999N008000199+02011+01681101761ADDAY111021AY211021GA1021+008001061GA2999+999999031GE19MSL   +99999+99999GF106991021999008001999999MA1999999097081MD1210241-0361MW1101REMSYN07048304 31558 60000 10201 20168 39708 40176 52024 71011 82530 333 59036=
0127483040999992020022406004+19867+099767FM-12+040199999V0202401N002119999999N008000199+02951+01491101331ADDAY111021AY211021MA1999999096811MD1710271-0391MW1051REMSYN06448304 31958 02404 10295 20149 39681 40133 57027 70511 333 59039=
0213483040999992020022409004+19867+099767FM-12+040199999V0209999C000012200019N008000199+03211+01291100921ADDAY101021AY201021GA1011+008001081GA2999+999999031GE19MSL   +99999+99999GF101991011999008001999999MA1999999096451MD1710361-0391MW1051REMSYN07048304 31558 10000 10321 20129 39645 40092 57036 70500 81140 333 59039=
0142483040999992020022412004+19870+099774FM-12+039799999V0203601N0000122000199008000199+02521+01761100991ADDAA106999999AY101061AY201061GA1011+008001061GE19MSL   +99999+99999GF101991011999008001999999MA1999999096421MD1710041-0401MW1051REMSYN004BUFR
0127483040999992020022415004+19867+099767FM-12+040199999V0209999C000019999999N008000199+02051+01691101281ADDAY101021AY201021MA1999999096631MD1210211-0311MW1101REMSYN06448304 31958 00000 10205 20169 39663 40128 52021 71000 333 59031=
0127483040999992020022418004+19867+099767FM-12+040199999V0209999C000019999999N008000199+01821+01621101351ADDAY101021AY201021MA1999999096661MD1210031-0251MW1101REMSYN06448304 31958 00000 10182 20162 39666 40135 52003 71000 333 59025=
