0230527870999992020010100004+37200+102870FM-12+304499999V0201641N0071199999999030000199-00791-02451102411ADDAA106999999AA224000091AJ199999999999999AY101121AY201121GA1999+040001999GE19MSL   +99999+99999GF107991999999040001999999IA2999-01289KA1240M+00301KA2240N-00991MA1999999070021MD1210041-0201MW1001OC101491OD141201491120REMSYN004BUFR
0192527870999992020010103004+37200+102870FM-12+304499999V0201651N0064122000199030000199-00141-02271102101ADDAA106999999AA224000091AJ199999999999999AY101031AY201031GF100991999999999999999999IA2999-01289KA1240M+00301KA2240N-00991MA1999999070071MD1210051-0221MW1001OC101491OD141201491120REMSYN004BUFR
0192527870999992020010106004+37200+102870FM-12+304499999V0201561N0074122000199029800199+00201-02121101861ADDAA106999999AA224000091AJ199999999999999AY101061AY201061GF100991999999999999999999IA2999-01249KA1240M+00301KA2240N-00991MA1999999069951MD1710121-0171MW1001OC101491OD141201491120REMSYN004BUFR
0192527870999992020010109004+37200+102870FM-12+304499999V0201671N0057122000199029400199+00051-01991101771ADDAA106999999AA224000091AJ199999999999999AY101031AY201031GF100991999999999999999999IA2999-01209KA1240M+00321KA2240N-00991MA1999999070021MD1210071-0131MW1001OC101491OD141201491120REMSYN004BUFR
0192527870999992020010112004+37200+102870FM-12+304499999V0201501N0041122000199030000199-00571-01791102692ADDAA106999999AA224000091AJ199999999999999AY101061AY201061GF100991999999999999999999IA2999-01189KA1240M+00321KA2240N-00991MA1999999070211MD1210191+0011MW1001OC100991OD141200991174REMSYN004BUFR
0166527870999992020010118004+37200+102870FM-12+304499999V0201351N0022199999999030000199-00621-01661102161ADDAA106999999AA224000091AJ199999999999999AY101999AY201999IA2999-01459KA1240M+00321KA2240N-01081MA1999999070301MD1710011+0201MW1001OC100881OD141200881161REMSYN004BUFR
0150527870999992020010121004+37200+102870FM-12+304499999V0202221N0012199999999030000199-00521-01761102231ADDAA106999999AA224000091AJ199999999999999IA2999-01459KA1240M+00321KA2240N-01081MA1999999070331MD1210031+0351MW1001OC100841OD141200841168REMSYN004BUFR
0192527870999992020010200004+37200+102870FM-12+304499999V0203351N0024122000199030000199-00501-02071102791ADDAA106999999AA224000091AJ199999999999999AY101121AY201121GF100991999999999999999999IA2999-01599KA1240M+00321KA2240N-01081MA1999999070421MD1210091+0401MW1001OC100841OD141200841168REMSYN004BUFR
0230527870999992020010203004+37200+102870FM-12+304499999V0203051N0077199999999030000199-00721-01821103391ADDAA106999999AA224000091AJ199999999999999AY101031AY201031GA1999+040001999GE19MSL   +99999+99999GF107991999999040001999999IA2999-01599KA1240M+00321KA2240N-01401MA1999999070541MD1210121+0471MW1001OC101051OD141201051319REMSYN004BUFR
0230527870999992020010206004+37200+102870FM-12+304499999V0201561N0023199999999028000199+00071-01491102452ADDAA106999999AA224000091AJ199999999999999AY101061AY201061GA1999+040001999GE19MSL   +99999+99999GF107991999999040001999999IA2999-01599KA1240M+00321KA2240N-01401MA1999999070441MD1710101+0491MW1001OC101331OD141201331324REMSYN004BUFR
0230527870999992020010209004+37200+102870FM-12+304499999V0200011N0066199999999030000199-00341-02161102841ADDAA106999999AA224000091AJ199999999999999AY101031AY201031GA1999+018001999GE19MSL   +99999+99999GF107991999999018001999999IA2999-01599KA1240M+00121KA2240N-01401MA1999999070561MD1210121+0541MW1001OC101331OD141201331324REMSYN004BUFR
0230527870999992020010212004+37200+102870FM-12+304499999V0203571N0062199999999030000199-00491-02111103091ADDAA106999999AA224000091AJ199999999999999AY101061AY201061GA1999+018001999GE19MSL   +99999+99999GF107991999999018001999999IA2999-01589KA1240M+00121KA2240N-01401MA1999999070671MD1210111+0461MW1001OC101331OD141201331324REMSYN004BUFR
0166527870999992020010218004+37200+102870FM-12+304499999V0203391N0028199999999030000199-00721-01951102831ADDAA106999999AA224000091AJ199999999999999AY101999AY201999IA2999-01459KA1240M+00121KA2240N-01401MA1999999070651MD1710051+0351MW1001OC101171OD141201171350REMSYN004BUFR
0150527870999992020010221004+37200+102870FM-12+304499999V0201591N0027199999999030000199-00871-02001103061ADDAA106999999AA224000091AJ199999999999999IA2999-01549KA1240M+00121KA2240N-01401MA1999999070541MD1710111+0211MW1001OC101171OD141201171350REMSYN004BUFR
0166527870999992020010300004+37200+102870FM-12+304499999V0201861N0030199999999030000199-00721-02121103141ADDAA106999999AA224000091AJ199999999999999AY101121AY201121IA2999-01549KA1240M+00121KA2240N-01401MA1999999070591MD1210051+0171MW1001OC100851OD141200851001REMSYN004BUFR
0166527870999992020010303004+37200+102870FM-12+304499999V0201701N0040199999999029100199-00151-02111102981ADDAA106999999AA224000091AJ199999999999999AY101031AY201031IA2999-01549KA1240M+00121KA2240N-00981MA1999999070641MD1210051+0101MW1001OC100801OD141200801166REMSYN004BUFR
0230527870999992020010306004+37200+102870FM-12+304499999V0201731N0034199999999030000199+00201-02131102431ADDAA106999999AA224000091AJ199999999999999AY101061AY201061GA1999+040001999GE19MSL   +99999+99999GF105991999999040001999999IA2999-01549KA1240M+00191KA2240N-00981MA1999999070431MD1710211-0011MW1001OC100801OD141200801166REMSYN004BUFR
0230527870999992020010309004+37200+102870FM-12+304499999V0203501N0011122000199029900199+00221-02431102471ADDAA106999999AA224000091AJ199999999999999AY101031AY201031GA1999+040001999GE19MSL   +99999+99999GF102991999999040001999999IA2999-01529KA1240M+00251KA2240N-00981MA1999999070401MD1710031-0161MW1001OC101081OD141201081255REMSYN004BUFR
0230527870999992020010312004+37200+102870FM-12+304499999V0201561N0031122000199030000199-00651-01921103131ADDAA106999999AA224000091AJ199999999999999AY101061AY201061GA1999+040001999GE19MSL   +99999+99999GF102991999999040001999999IA2999-01369KA1240M+00251KA2240N-00981MA1999999070501MD1210101-0171MW1001OC101081OD141201081255REMSYN004BUFR
0166527870999992020010318004+37200+102870FM-12+304499999V0201751N0072199999999030000199-00651-01741102121ADDAA106999999AA224000091AJ199999999999999AY101999AY201999IA2999-01449KA1240M+00251KA2240N-00981MA1999999070251MD1710171-0401MW1001OC101081OD141201081255REMSYN004BUFR
0150527870999992020010321004+37200+102870FM-12+304499999V0201711N0078199999999030000199-00791-01731102001ADDAA106999999AA224000091AJ199999999999999IA2999-01449KA1240M+00251KA2240N-01031MA1999999070121MD1710131-0421MW1001OC100961OD141200961172REMSYN004BUFR
0230527870999992020010400004+37200+102870FM-12+304499999V0201241N0117199999999030000199-00391-02021102241ADDAA106999999AA224000091AJ199999999999999AY101121AY201121GA1999+018001999GE19MSL   +99999+99999GF107991999999018001999999IA2999-01449KA1240M+00251KA2240N-01031MA1999999070061MD1710061-0531MW1001OC101601OD141201601124REMSYN004BUFR
0230527870999992020010403004+37200+102870FM-12+304499999V0201361N0147199999999029300199-00171-02131102061ADDAA106999999AA224000091AJ199999999999999AY101031AY201031GA1999+018001999GE19MSL   +99999+99999GF107991999999018001999999IA2999-01389KA1240M+00251KA2240N-01031MA1999999070021MD1710041-0621MW1001OC101761OD141201761133REMSYN004BUFR
0230527870999992020010406004+37200+102870FM-12+304499999V0201481N0139199999999030000199+00051-01161101521ADDAA106999999AA224000091AJ199999999999999AY101061AY201061GA1999+018001999GE19MSL   +99999+99999GF107991999999018001999999IA2999-01309KA1240M+00251KA2240N-01031MA1999999069771MD1710251-0661MW1001OC101871OD141201871154REMSYN004BUFR
0230527870999992020010409004+37200+102870FM-12+304499999V0201551N0087122000199030000199+00021-00871101491ADDAA106999999AA224000091AJ199999999999999AY101031AY201031GA1999+010001999GE19MSL   +99999+99999GF102991999999010001999999IA2999-01139KA1240M+00201KA2240N-01031MA1999999069681MD1710091-0721MW1001OC101871OD141201871154REMSYN004BUFR
0192527870999992020010412004+37200+102870FM-12+304499999V0203301N0051122000199030000199-00801-01931101951ADDAA106999999AA224000091AJ199999999999999AY101061AY201061GF100991999999999999999999IA2999-01049KA1240M+00181KA2240N-01031MA1999999069791MD1210111-0711MW1001OC101871OD141201871154REMSYN004BUFR
0166527870999992020010418004+37200+102870FM-12+304499999V0200011N0089199999999030000199-00571-02231101291ADDAA106999999AA224000091AJ199999999999999AY101999AY201999IA2999-01389KA1240M+00181KA2240N-01111MA1999999069651MD1710131-0601MW1001OC101671OD141201671142REMSYN004BUFR
0150527870999992020010421004+37200+102870FM-12+304499999V0200101N0087199999999030000199-00601-02441101361ADDAA106999999AA224000091AJ199999999999999IA2999-01389KA1240M+00181KA2240N-01111MA1999999069681MD1210031-0441MW1001OC101481OD141201481013REMSYN004BUFR
0230527870999992020010500004+37200+102870FM-12+304499999V0203201N0057199999999030000199-01191-01851102441ADDAA106999999AA224000091AJ199999999999999AY101121AY201121GA1999+018001999GE19MSL   +99999+99999GF107991999999018001999999IA2999-01389KA1240M+00181KA2240N-01261MA1999999069731MD1210051-0331MW1001OC101481OD141201481013REMSYN004BUFR
0230527870999992020010503004+37200+102870FM-12+304499999V0203471N0098199999999030000199-00871-02051102591ADDAA106999999AA224000091AJ199999999999999AY101031AY201031GA1999+018001999GE19MSL   +99999+99999GF107991999999018001999999IA2999-01389KA1240M+00181KA2240N-01261MA1999999069861MD1210131-0161MW1001OC101481OD141201481013REMSYN004BUFR
0230527870999992020010506004+37200+102870FM-12+304499999V0203591N0114199999999030000199-00771-02161102031ADDAA106999999AA224000091AJ199999999999999AY101061AY201061GA1999+018001999GE19MSL   +99999+99999GF107991999999018001999999IA2999-01229KA1240M+00181KA2240N-01261MA1999999069771MD1710091+0001MW1001OC101511OD141201511001REMSYN004BUFR
0230527870999992020010509004+37200+102870FM-12+304499999V0200031N0099199999999030000199-00841-02021102231ADDAA106999999AA224000091AJ199999999999999AY101031AY201031GA1999+018001999GE19MSL   +99999+99999GF107991999999018001999999IA2999-01229KA1240M+00031KA2240N-01261MA1999999069861MD1210091+0181MW1001OC101641OD141201641352REMSYN004BUFR
0230527870999992020010512004+37200+102870FM-12+304499999V0200111N0113199999999030000199-01001-02021103031ADDAA106999999AA224000091AJ199999999999999AY101061AY201061GA1999+018001999GE19MSL   +99999+99999GF107991999999018001999999IA2999-01249KA1240M-00481KA2240N-01261MA1999999070041MD1210181+0251MW1001OC101641OD141201641352REMSYN004BUFR
0166527870999992020010518004+37200+102870FM-12+304499999V0203271N0070199999999030000199-01491-01951103051ADDAA106999999AA224000091AJ199999999999999AY101999AY201999IA2999-01749KA1240M-00531KA2240N-01571MA1999999070021MD1710091+0371MW1001OC101641OD141201641352REMSYN004BUFR
0150527870999992020010521004+37200+102870FM-12+304499999V0203011N0035199999999030000199-01291-01871102841ADDAA106999999AA224000091AJ199999999999999IA2999-01749KA1240M-00611KA2240N-01571MA1999999069941MD1710081+0261MW1001OC101631OD141201631015REMSYN004BUFR
0230527870999992020010600004+37200+102870FM-12+304499999V0201561N0034199999999030000199-01291-01971103051ADDAA106999999AA224000091AJ199999999999999AY101121AY201121GA1999+018001999GE19MSL   +99999+99999GF108991999999018001999999IA2999-01749KA1240M-00741KA2240N-01571MA1999999070001MD1210061+0271MW1001OC101441OD141201441012REMSYN004BUFR
0230527870999992020010603004+37200+102870FM-12+304499999V0203301N0010199999999011600199-01001-01271103281ADDAA106000631AA224000631AJ100003100001099AY171031AY201031GA1999+015001999GE19MSL   +99999+99999GF108991999999015001999999IA2999-01749KA1240M-00741KA2240N-01571MA1999999070061MD1210061+0201MW1701OC101111OD141201111326REMSYN004BUFR
0230527870999992020010606004+37200+102870FM-12+304499999V0203221N0014199999999030000199-00791-01091102861ADDAA106001731AA224001731AJ100003100002099AY171061AY201061GA1999+018001999GE19MSL   +99999+99999GF108991999999018001999999IA2999-01659KA1240M-00741KA2240N-01571MA1999999069881MD1710181+0111MW1701OC100811OD141200811320REMSYN004BUFR
0230527870999992020010609004+37200+102870FM-12+304499999V0203131N0024199999999030000199-00901-01041102861ADDAA106001231AA224001831AJ100003100002099AY171031AY201031GA1999+018001999GE19MSL   +99999+99999GF107991999999018001999999IA2999-01369KA1240M-00781KA2240N-01571MA1999999069921MD1210041+0061MW1701OC100581OD141200581168REMSYN004BUFR
0222527870999992020010612004+37200+102870FM-12+304499999V0201941N0010199999999030000199-01021-01161103171ADDAA106000531AA224002231AJ100003100002099AY171061AY201061GA1999+018001999GE19MSL   +99999+99999GF108991999999018001999999IA2999-01219KA1240M-00781KA2240N-01571MA1999999070071MD1210151+0031MW1701OD141200481319REMSYN004BUFR
0158527870999992020010618004+37200+102870FM-12+304499999V0201371N0014199999999030000199-01001-01161102761ADDAA106000631AA224002831AJ100003100001099AY101999AY201999IA2999-00949KA1240M-00781KA2240N-01491MA1999999070051MD1710071+0031MW1701OD141200481319REMSYN004BUFR
0142527870999992020010621004+37200+102870FM-12+304499999V0200141N0013199999999030000199-01071-01261102751ADDAA106000331AA224002931AJ100003100001099IA2999-01279KA1240M-00781KA2240N-01311MA1999999069951MD1710101+0011MW1001OD141200421321REMSYN004BUFR
0192527870999992020010700004+37200+102870FM-12+304499999V0202531N0030122000199030000199-01001-01501102751ADDAA106000131AA224002931AJ100003100001099AY171121AY201121GF100991999999999999999999IA2999-01289KA1240M-00781KA2240N-01291MA1999999069931MD1710021-0071MW1001OC100661OD141200661259REMSYN004BUFR
0166527870999992020010703004+37200+102870FM-12+304499999V0203531N0018199999999030000199-00571-01581102551ADDAA106999999AA224002331AJ100003100000099AY101031AY201031IA2999-01289KA1240M-00561KA2240N-01141MA1999999070011MD1210081-0051MW1001OC100661OD141200661259REMSYN004BUFR
0192527870999992020010706004+37200+102870FM-12+304499999V0203411N0041122000199030000199-00391-01471102231ADDAA106999999AA224001231AJ100003100000099AY101061AY201061GF100991999999999999999999IA2999-01289KA1240M-00331KA2240N-01141MA1999999069881MD1710131+0001MW1001OC100681OD141200681287REMSYN004BUFR
0192527870999992020010709004+37200+102870FM-12+304499999V0201931N0027122000199030000199-00451-01211102381ADDAA106999999AA224001131AJ100019100010099AY101031AY201031GF100991999999999999999999IA2999-01289KA1240M-00231KA2240N-01141MA1999999069921MD1210041+0001MW1001OC100681OD141200681287REMSYN004BUFR
0230527870999992020010712004+37200+102870FM-12+304499999V0200261N0003122000199030000199-00851-01601102831ADDAA106999999AA224000731AJ100019100010099AY101061AY201061GA1999+040001999GE19MSL   +99999+99999GF102991999999040001999999IA2999-01419KA1240M-00231KA2240N-01141MA1999999070071MD1210151+0001MW1001OC100681OD141200681287REMSYN004BUFR
0166527870999992020010718004+37200+102870FM-12+304499999V0201431N0023199999999030000199-01051-01561102511ADDAA106999999AA224000131AJ100019100010099AY101999AY201999IA2999-01429KA1240M-00231KA2240N-01151MA1999999070051MD1710101+0001MW1001OC100661OD141200661347REMSYN004BUFR
0150527870999992020010721004+37200+102870FM-12+304499999V0201661N0048199999999030000199-00971-01531102371ADDAA106999999AA224010091AJ199999999999999IA2999-01429KA1240M-00231KA2240N-01151MA1999999069961MD1710091+0011MW1001OC100551OD141200551166REMSYN004BUFR
0230527870999992020010800004+37200+102870FM-12+304499999V0201421N0038199999999030000199-01071-01691102701ADDAA106999999AA224010091AJ199999999999999AY101121AY201121GA1999+040001999GE19MSL   +99999+99999GF107991999999040001999999IA2999-01429KA1240M-00231KA2240N-01151MA1999999069941MD1710021+0011MW1001OC100601OD141200601169REMSYN004BUFR
0230527870999992020010803004+37200+102870FM-12+304499999V0201601N0041199999999030000199-00601-01391102591ADDAA106999999AA224010091AJ199999999999999AY101031AY201031GA1999+040001999GE19MSL   +99999+99999GF107991999999040001999999IA2999-01309KA1240M-00231KA2240N-01161MA1999999069991MD1210051-0021MW1001OC101161OD141201161180REMSYN004BUFR
0230527870999992020010806004+37200+102870FM-12+304499999V0201441N0099199999999030000199-00321-01521102041ADDAA106999999AA224010091AJ199999999999999AY101061AY201061GA1999+040001999GE19MSL   +99999+99999GF107991999999040001999999IA2999-01309KA1240M-00231KA2240N-01161MA1999999069761MD1710231-0121MW1001OC101251OD141201251144REMSYN004BUFR
0230527870999992020010809004+37200+102870FM-12+304499999V0203011N0048199999999029700199-00841-01421102401ADDAA106999999AA224010091AJ199999999999999AY101031AY201031GA1999+040001999GE19MSL   +99999+99999GF107991999999040001999999IA2999-01189KA1240M-00301KA2240N-01161MA1999999069791MD1210031-0131MW1001OC101301OD141201301131REMSYN004BUFR
0230527870999992020010812004+37200+102870FM-12+304499999V0203011N0029199999999030000199-01401-01591103121ADDAA106999999AA224010091AJ199999999999999AY101061AY201061GA1999+040001999GE19MSL   +99999+99999GF107991999999040001999999IA2999-01269KA1240M-00301KA2240N-01501MA1999999069951MD1210161-0121MW1001OC101301OD141201301131REMSYN004BUFR
0166527870999992020010818004+37200+102870FM-12+304499999V0201621N0018199999999030000199-00991-01151102191ADDAA106999999AA224010091AJ199999999999999AY101999AY201999IA2999-01269KA1240M-00301KA2240N-01501MA1999999069901MD1710101-0151MW1701OC101301OD141201301131REMSYN004BUFR
0150527870999992020010821004+37200+102870FM-12+304499999V0203181N0024199999999027500199-01151-01321102551ADDAA106000131AA224000131AJ100003100000099IA2999-01269KA1240M-00301KA2240N-01501MA1999999069811MD1710091-0151MW1701OC100561OD141200561306REMSYN004BUFR
0230527870999992020010900004+37200+102870FM-12+304499999V0203081N0060199999999030000199-01421-01601103221ADDAA106001431AA224001431AJ100003100001099AY171121AY201121GA1999+018001999GE19MSL   +99999+99999GF108991999999018001999999IA2999-01169KA1240M-00301KA2240N-01501MA1999999069841MD1210031-0101MW1701OC100911OD141200911314REMSYN004BUFR
0230527870999992020010903004+37200+102870FM-12+304499999V0203071N0040199999999030000199-01301-01471103271ADDAA106001831AA224001931AJ100003100002099AY171031AY271031GA1999+018001999GE19MSL   +99999+99999GF107991999999018001999999IA2999-00909KA1240M-00301KA2240N-01501MA1999999069991MD1210151+0001MW1701OC100911OD141200911314REMSYN004BUFR
0230527870999992020010906004+37200+102870FM-12+304499999V0203271N0071199999999030000199-01051-01201102551ADDAA106000531AA224001931AJ100003100002099AY171061AY201061GA1999+040001999GE19MSL   +99999+99999GF107991999999040001999999IA2999-00839KA1240M-00301KA2240N-01501MA1999999069791MD1710201+0031MW1701OC100941OD141200941321REMSYN004BUFR
0230527870999992020010909004+37200+102870FM-12+304499999V0203131N0054199999999030000199-01251-01421102871ADDAA106000131AA224002031AJ100003100002099AY171031AY271031GA1999+018001999GE19MSL   +99999+99999GF108991999999018001999999IA2999-00839KA1240M-00841KA2240N-01501MA1999999069821MD1210031+0031MW1701OC100941OD141200941321REMSYN004BUFR
0230527870999992020010912004+37200+102870FM-12+304499999V0203211N0021199999999029000199-01421-01601103371ADDAA106000231AA224002131AJ100003100001099AY171061AY271061GA1999+018001999GE19MSL   +99999+99999GF107991999999018001999999IA2999-00839KA1240M-00941KA2240N-01461MA1999999069941MD1210121-0011MW1701OC100941OD141200941321REMSYN004BUFR
0166527870999992020010918004+37200+102870FM-12+304499999V0203151N0036199999999030000199-01351-01551103091ADDAA106999999AA224002131AJ100003100000099AY101999AY201999IA2999-00759KA1240M-00941KA2240N-01461MA1999999069971MD1710051+0071MW1701OC100801OD141200801321REMSYN004BUFR
0150527870999992020010921004+37200+102870FM-12+304499999V0203051N0019199999999030000199-01421-01611103231ADDAA106999999AA224002031AJ100003100000099IA2999-00809KA1240M-00981KA2240N-01461MA1999999069921MD1710051+0111MW1701OC100761OD141200761326REMSYN004BUFR
0230527870999992020011000004+37200+102870FM-12+304499999V0203031N0022199999999030000199-01501-01701103431ADDAA106999999AA224000731AJ100049100040099AY171121AY201121GA1999+018001999GE19MSL   +99999+99999GF107991999999018001999999IA2999-00839KA1240M-00981KA2240N-01501MA1999999069941MD1210021+0101MW1701OC100621OD141200621300REMSYN004BUFR
0166527870999992020011003004+37200+102870FM-12+304499999V0201671N0019199999999030000199-01151-01311103241ADDAA106000231AA224000431AJ100003100000099AY101031AY201031IA2999-00869KA1240M-00981KA2240N-01531MA1999999070041MD1210101+0051MW1701OC100621OD141200621300REMSYN004BUFR
0230527870999992020011006004+37200+102870FM-12+304499999V0201731N0029199999999030000199-01041-01191102941ADDAA106000431AA224000631AJ100003100000099AY171061AY271061GA1999+018001999GE19MSL   +99999+99999GF107991999999018001999999IA2999-00869KA1240M-00981KA2240N-01531MA1999999069871MD1710171+0081MW1701OC100641OD141200641168REMSYN004BUFR
0230527870999992020011009004+37200+102870FM-12+304499999V0203231N0061199999999030000199-01491-01691103491ADDAA106000431AA224000731AJ100003100001099AY171031AY271031GA1999+018001999GE19MSL   +99999+99999GF108991999999018001999999IA2999-00869KA1240M-01021KA2240N-01531MA1999999069981MD1210111+0161MW1701OC100731OD141200731320REMSYN004BUFR
0230527870999992020011012004+37200+102870FM-12+304499999V0203071N0052199999999030000199-01401-01581103731ADDAA106000531AA224000931AJ100003100001099AY171061AY271061GA1999+018001999GE19MSL   +99999+99999GF107991999999018001999999IA2999-00869KA1240M-01021KA2240N-01541MA1999999070151MD1210171+0211MW1701OC100891OD141200891359REMSYN004BUFR
0166527870999992020011018004+37200+102870FM-12+304499999V0203601N0012199999999030000199-01421-01671103261ADDAA106000131AA224001031AJ100003100001099AY101999AY201999IA2999-00829KA1240M-01021KA2240N-01541MA1999999070051MD1710121+0081MW1001OC100891OD141200891359REMSYN004BUFR
0150527870999992020011021004+37200+102870FM-12+304499999V0202891N0086199999999030000199-01071-01981103131ADDAA106999999AA224001031AJ100003100000099IA2999-00879KA1240M-01021KA2240N-01541MA1999999069921MD1710131+0001MW1701OC101391OD141201391288REMSYN004BUFR
0192527870999992020011100004+37200+102870FM-12+304499999V0203041N0043122000199030000199-01121-02371103131ADDAA106999999AA224001031AJ100003100000099AY171121AY201121GF100991999999999999999999IA2999-00879KA1240M-00991KA2240N-01541MA1999999069941MD1210021+0001MW1001OC101561OD141201561286REMSYN004BUFR
0192527870999992020011103004+37200+102870FM-12+304499999V0202791N0082122000199030000199-00801-02301102891ADDAA106999999AA224000831AJ100079100070099AY101031AY201031GF100991999999999999999999IA2999-00879KA1240M-00801KA2240N-01541MA1999999069941MD1410001-0101MW1001OC101561OD141201561286REMSYN004BUFR
0192527870999992020011106004+37200+102870FM-12+304499999V0203251N0065122000199030000199-00601-02011102491ADDAA106999999AA224000631AJ100069100060099AY101061AY201061GF100991999999999999999999IA2999-00879KA1240M-00531KA2240N-01541MA1999999069751MD1710191-0121MW1001OC101561OD141201561286REMSYN004BUFR
0192527870999992020011109004+37200+102870FM-12+304499999V0203151N0084122000199030000199-01071-01951102691ADDAA106999999AA224000431AJ100069100060099AY101031AY201031GF100991999999999999999999IA2999-00869KA1240M-00531KA2240N-01541MA1999999069831MD1210081-0151MW1001OC101561OD141201561286REMSYN004BUFR
0150527870999992020011121004+37200+102870FM-12+304499999V0201331N0016199999999030000199-01351-01721102891ADDAA106999999AA224060091AJ199999999999999IA2999-00909KA1240M-00531KA2240N-01461MA1999999069821MD1410001-0101MW1001OC101021OD141201021313REMSYN004BUFR
0230527870999992020011200004+37200+102870FM-12+304499999V0200041N0045122000199030000199-01251-01941103051ADDAA106999999AA224060091AJ199999999999999AY171121AY201121GA1999+009001999GE19MSL   +99999+99999GF103991999999009001999999IA2999-00919KA1240M-00531KA2240N-01461MA1999999069861MD1210041-0081MW1221OC100921OD141200921163REMSYN004BUFR
0230527870999992020011206004+37200+102870FM-12+304499999V0201501N0075122000199030000199-00871-01711102521ADDAA106999999AA224060091AJ199999999999999AY101061AY201061GA1999+009001999GE19MSL   +99999+99999GF104991999999009001999999IA2999-00919KA1240M-00551KA2240N-01461MA1999999069701MD1710241-0051MW1001OC100991OD141200991149REMSYN004BUFR
0230527870999992020011209004+37200+102870FM-12+304499999V0201511N0045199999999030000199-00971-01571102611ADDAA106999999AA224060091AJ199999999999999AY171031AY201031GA1999+040001999GE19MSL   +99999+99999GF107991999999040001999999IA2999-00919KA1240M-00821KA2240N-01461MA1999999069681MD1710021-0151MW1001OC100991OD141200991147REMSYN004BUFR
0230527870999992020011212004+37200+102870FM-12+304499999V0203221N0074199999999029800199-01471-01671103071ADDAA106999999AA224060091AJ199999999999999AY171061AY201061GA1999+018001999GE19MSL   +99999+99999GF107991999999018001999999IA2999-00889KA1240M-00821KA2240N-01471MA1999999069791MD1210111-0131MW1701OC100991OD141200991147REMSYN004BUFR
0166527870999992020011218004+37200+102870FM-12+304499999V0201471N0026199999999030000199-01591-01891102811ADDAA106000231AA224000231AJ100003100000099AY101999AY201999IA2999-00979KA1240M-00821KA2240N-01651MA1999999069751MD1710081-0071MW1001OC100991OD141200991147REMSYN004BUFR
0150527870999992020011221004+37200+102870FM-12+304499999V0200991N0008199999999030000199-01421-01831102681ADDAA106999999AA224000231AJ100003100000099IA2999-01079KA1240M-00821KA2240N-01651MA1999999069691MD1710061-0131MW1001OC100981OD141200981318REMSYN004BUFR
0192527870999992020011300004+37200+102870FM-12+304499999V0203211N0012122000199030000199-01251-01941102981ADDAA106999999AA224000231AJ100003100000099AY171121AY201121GF100991999999999999999999IA2999-01119KA1240M-00821KA2240N-01651MA1999999069731MD1210041-0131MW1001OC100981OD141200981318REMSYN004BUFR
0184527870999992020011303004+37200+102870FM-12+304499999V0201441N0029122000199030000199-00841-01931102801ADDAA106999999AA224000231AJ100069100060099AY101031AY201031GF100991999999999999999999IA2999-01119KA1240M-00811KA2240N-01651MA1999999069791MD1210061-0151MW1001OD141200431239REMSYN004BUFR
0230527870999992020011306004+37200+102870FM-12+304499999V0201601N0038122000199030000199-00591-01571102531ADDAA106999999AA224000231AJ100059100050099AY101061AY201061GA1999+010001999GE19MSL   +99999+99999GF103991999999010001999999IA2999-01119KA1240M-00591KA2240N-01651MA1999999069701MD1710091+0001MW1001OC100541OD141200541167REMSYN004BUFR
0230527870999992020011309004+37200+102870FM-12+304499999V0201661N0023199999999030000199-00601-01601102531ADDAA106999999AA224000231AJ100059100050099AY101031AY201031GA1999+018001999GE19MSL   +99999+99999GF107991999999018001999999IA2999-01119KA1240M-00441KA2240N-01651MA1999999069781MD1210081+0101MW1001OC100541OD141200541167REMSYN004BUFR
0230527870999992020011312004+37200+102870FM-12+304499999V0201481N0035122000199030000199-01051-01591102881ADDAA106999999AA224000231AJ100069100060099AY101061AY201061GA1999+018001999GE19MSL   +99999+99999GF103991999999018001999999IA2999-01119KA1240M-00441KA2240N-01651MA1999999069871MD1210091+0081MW1001OC100541OD141200541167REMSYN004BUFR
0166527870999992020011318004+37200+102870FM-12+304499999V0201611N0061199999999030000199-01101-01841102241ADDAA106999999AA224050091AJ199999999999999AY101999AY201999IA2999-00869KA1240M-00441KA2240N-01611MA1999999069741MD1710161-0011MW1001OC101091OD141201091165REMSYN004BUFR
0230527870999992020011400004+37200+102870FM-12+304499999V0201621N0037199999999027400199-00801-01851102061ADDAA106999999AA224050091AJ199999999999999AY101121AY201121GA1999+018001999GE19MSL   +99999+99999GF107991999999018001999999IA2999-00939KA1240M-00441KA2240N-01281MA1999999069541MD1710101-0191MW1001OC101091OD141201091165REMSYN004BUFR
0230527870999992020011403004+37200+102870FM-12+304499999V0201511N0065122000199030000199-00571-01631101961ADDAA106999999AA224050091AJ199999999999999AY101031AY201031GA1999+040001999GE19MSL   +99999+99999GF103991999999040001999999IA2999-00939KA1240M-00431KA2240N-01231MA1999999069541MD1410001-0251MW1001OC101091OD141201091165REMSYN004BUFR
0230527870999992020011406004+37200+102870FM-12+304499999V0201681N0059199999999030000199+00071-01441101221ADDAA106999999AA224050091AJ199999999999999AY101061AY201061GA1999+040001999GE19MSL   +99999+99999GF105991999999040001999999IA2999-00939KA1240M+00091KA2240N-01231MA1999999069371MD1710171-0331MW1001OC100931OD141200931155REMSYN004BUFR
0230527870999992020011409004+37200+102870FM-12+304499999V0203181N0043199999999030000199-00451-01471101601ADDAA106999999AA224050091AJ199999999999999AY101031AY201031GA1999+040001999GE19MSL   +99999+99999GF107991999999040001999999IA2999-00939KA1240M+00251KA2240N-01231MA1999999069441MD1210071-0341MW1001OC100931OD141200931155REMSYN004BUFR
0230527870999992020011412004+37200+102870FM-12+304499999V0202961N0034199999999030000199-00821-01761102031ADDAA106999999AA224050091AJ199999999999999AY101061AY201061GA1999+040001999GE19MSL   +99999+99999GF107991999999040001999999IA2999-00939KA1240M+00251KA2240N-01231MA1999999069631MD1210191-0241MW1001OC100931OD141200931155REMSYN004BUFR
0166527870999992020011418004+37200+102870FM-12+304499999V0203041N0030199999999030000199-00971-01691101551ADDAA106999999AA224050091AJ199999999999999AY101999AY201999IA2999-00899KA1240M+00251KA2240N-01211MA1999999069661MD1710041-0081MW1001OC100711OD141200711173REMSYN004BUFR
0150527870999992020011421004+37200+102870FM-12+304499999V0203041N0033199999999030000199-01221-01741102031ADDAA106999999AA224050091AJ199999999999999IA2999-00929KA1240M+00251KA2240N-01231MA1999999069611MD1710051-0031MW1001OC100561OD141200561338REMSYN004BUFR
0230527870999992020011500004+37200+102870FM-12+304499999V0203271N0061199999999000300199-01501-01701102611ADDAA106999999AA224050091AJ199999999999999AY141121AY201121GA1999+018001999GE19MSL   +99999+99999GF108991999999018001999999IA2999-00939KA1240M+00251KA2240N-01521MA1999999069681MD1210071+0141MW1741OC101161OD141201161322REMSYN004BUFR
0166527870999992020011503004+37200+102870FM-12+304499999V0203501N0064199999999030000199-01421-01621102841ADDAA106999999AA224050091AJ199999999999999AY101031AY201031IA2999-00939KA1240M+00251KA2240N-01541MA1999999069931MD1210251+0391MW1701OC101161OD141201161322REMSYN004BUFR
0230527870999992020011506004+37200+102870FM-12+304499999V0203161N0068199999999030000199-01341-01551102831ADDAA106999999AA224050091AJ199999999999999AY171061AY241061GA1999+018001999GE19MSL   +99999+99999GF108991999999018001999999IA2999-00939KA1240M+00251KA2240N-01541MA1999999069841MD1710091+0471MW1221OC101161OD141201161351REMSYN004BUFR
0230527870999992020011509004+37200+102870FM-12+304499999V0203171N0088199999999029600199-01121-01411103031ADDAA106999999AA224050091AJ199999999999999AY171031AY201031GA1999+018001999GE19MSL   +99999+99999GF107991999999018001999999IA2999-00939KA1240M-00461KA2240N-01541MA1999999069951MD1210111+0511MW1001OC101401OD141201401006REMSYN004BUFR
0230527870999992020011512004+37200+102870FM-12+304499999V0203251N0071199999999030000199-01451-01631103751ADDAA106999999AA224050091AJ199999999999999AY171061AY201061GA1999+018001999GE19MSL   +99999+99999GF108991999999018001999999IA2999-00869KA1240M-00681KA2240N-01541MA1999999070141MD1210191+0511MW1001OC101401OD141201401006REMSYN004BUFR
0166527870999992020011518004+37200+102870FM-12+304499999V0202991N0030199999999030000199-01221-01671103381ADDAA106999999AA224050091AJ199999999999999AY101999AY201999IA2999-00939KA1240M-00841KA2240N-01541MA1999999070091MD1710061+0431MW1001OC101561OD141201561357REMSYN004BUFR
0150527870999992020011521004+37200+102870FM-12+304499999V0203221N0027199999999030000199-01241-01691103121ADDAA106999999AA224050091AJ199999999999999IA2999-01019KA1240M-00851KA2240N-01541MA1999999070011MD1710081+0401MW1001OC101561OD141201561357REMSYN004BUFR
0230527870999992020011600004+37200+102870FM-12+304499999V0203051N0031199999999030000199-01541-01741103681ADDAA106999999AA224050091AJ199999999999999AY171121AY201121GA1999+018001999GE19MSL   +99999+99999GF105991999999018001999999IA2999-01049KA1240M-00851KA2240N-01571MA1999999070071MD1210061+0391MW1701OC101561OD141201561357REMSYN004BUFR
0192527870999992020011603004+37200+102870FM-12+304499999V0201621N0022122000199030000199-01001-01361103001ADDAA106999999AA224050091AJ199999999999999AY171031AY201031GF100991999999999999999999IA2999-01069KA1240M-00851KA2240N-01581MA1999999070171MD1210101+0241MW1221OC101091OD141201091002REMSYN004BUFR
0192527870999992020011606004+37200+102870FM-12+304499999V0203311N0080122000199030000199-00671-01431102821ADDAA106999999AA224050091AJ199999999999999AY171061AY201061GF100991999999999999999999IA2999-01069KA1240M-00681KA2240N-01581MA1999999070041MD1710131+0201MW1001OC101291OD141201291313REMSYN004BUFR
0192527870999992020011609004+37200+102870FM-12+304499999V0200021N0076122000199030000199-00771-01681103001ADDAA106999999AA224050091AJ199999999999999AY101031AY201031GF100991999999999999999999IA2999-01069KA1240M-00571KA2240N-01581MA1999999070111MD1210071+0161MW1001OC101561OD141201561356REMSYN004BUFR
0192527870999992020011612004+37200+102870FM-12+304499999V0203321N0066122000199030000199-01241-01821103771ADDAA106999999AA224050091AJ199999999999999AY101061AY201061GF100991999999999999999999IA2999-01069KA1240M-00571KA2240N-01581MA1999999070241MD1210131+0101MW1001OC101561OD141201561356REMSYN004BUFR
0166527870999992020011618004+37200+102870FM-12+304499999V0201401N0013199999999030000199-01151-01841103081ADDAA106999999AA224050091AJ199999999999999AY101999AY201999IA2999-01119KA1240M-00571KA2240N-01581MA1999999070251MD1710041+0161MW1001OC101561OD141201561356REMSYN004BUFR
0150527870999992020011621004+37200+102870FM-12+304499999V0201441N0025199999999030000199-01201-01851103071ADDAA106999999AA224050091AJ199999999999999IA2999-01139KA1240M-00571KA2240N-01581MA1999999070171MD1710081+0161MW1001OC101071OD141201071356REMSYN004BUFR
0230527870999992020011700004+37200+102870FM-12+304499999V0201531N0040122000199028700199-01251-01821103441ADDAA106999999AA224050091AJ199999999999999AY101121AY201121GA1999+040001999GE19MSL   +99999+99999GF102991999999040001999999IA2999-01139KA1240M-00571KA2240N-01581MA1999999070161MD1710011+0091MW1001OC100911OD141200911320REMSYN004BUFR
0230527870999992020011703004+37200+102870FM-12+304499999V0201611N0050199999999030000199-00801-01531103221ADDAA106999999AA224050091AJ199999999999999AY101031AY201031GA1999+040001999GE19MSL   +99999+99999GF107991999999040001999999IA2999-01139KA1240M-00571KA2240N-01411MA1999999070221MD1210061+0051MW1001OC100681OD141200681162REMSYN004BUFR
0230527870999992020011706004+37200+102870FM-12+304499999V0201511N0090199999999030000199-00521-01591102641ADDAA106999999AA224050091AJ199999999999999AY101061AY201061GA1999+040001999GE19MSL   +99999+99999GF107991999999040001999999IA2999-01139KA1240M-00521KA2240N-01411MA1999999070021MD1710201-0021MW1001OC101211OD141201211145REMSYN004BUFR
0230527870999992020011709004+37200+102870FM-12+304499999V0201551N0064199999999030000199-00501-01581102621ADDAA106999999AA224050091AJ199999999999999AY101031AY201031GA1999+040001999GE19MSL   +99999+99999GF107991999999040001999999IA2999-01129KA1240M-00471KA2240N-01411MA1999999069991MD1710031-0121MW1001OC101241OD141201241145REMSYN004BUFR
0230527870999992020011712004+37200+102870FM-12+304499999V0201691N0063199999999030000199-00971-01671103161ADDAA106999999AA224050091AJ199999999999999AY101061AY201061GA1999+040001999GE19MSL   +99999+99999GF107991999999040001999999IA2999-01099KA1240M-00471KA2240N-01411MA1999999070101MD1210111-0141MW1001OC101241OD141201241145REMSYN004BUFR
0166527870999992020011718004+37200+102870FM-12+304499999V0203591N0102199999999030000199-01321-01561103001ADDAA106000431AA224000431AJ100003100000099AY101999AY201999IA2999-00989KA1240M-00471KA2240N-01461MA1999999070191MD1410001-0061MW1701OC101461OD141201461359REMSYN004BUFR
0150527870999992020011721004+37200+102870FM-12+304499999V0200011N0107199999999030000199-01591-01921103101ADDAA106000431AA224000431AJ100003100000099IA2999-01019KA1240M-00471KA2240N-01591MA1999999070131MD1710061-0041MW1701OC101641OD141201641356REMSYN004BUFR
0230527870999992020011800004+37200+102870FM-12+304499999V0203331N0066199999999030000199-01671-01871103861ADDAA106999999AA224000431AJ100003100000099AY171121AY201121GA1999+018001999GE19MSL   +99999+99999GF108991999999018001999999IA2999-01029KA1240M-00471KA2240N-01681MA1999999070361MD1210231+0201MW1701OC101641OD141201641356REMSYN004BUFR
0230527870999992020011803004+37200+102870FM-12+304499999V0203561N0106199999999030000199-01251-01771103921ADDAA106000131AA224000531AJ100003100001099AY171031AY271031GA1999+040001999GE19MSL   +99999+99999GF107991999999040001999999IA2999-01029KA1240M-00471KA2240N-01701MA1999999070391MD1210031+0171MW1221OC101641OD141201641356REMSYN004BUFR
0230527870999992020011806004+37200+102870FM-12+304499999V0203381N0057199999999030000199-01051-01711103531ADDAA106000131AA224000531AJ100003100000099AY171061AY201061GA1999+040001999GE19MSL   +99999+99999GF107991999999040001999999IA2999-01029KA1240M-00471KA2240N-01701MA1999999070281MD1710111+0261MW1001OC101641OD141201641356REMSYN004BUFR
0230527870999992020011809004+37200+102870FM-12+304499999V0203111N0066199999999030000199-01251-01611103851ADDAA106999999AA224000531AJ100003100000099AY171031AY201031GA1999+040001999GE19MSL   +99999+99999GF107991999999040001999999IA2999-01029KA1240M-00511KA2240N-01701MA1999999070261MD1710021+0271MW1001OC101631OD141201631003REMSYN004BUFR
0230527870999992020011812004+37200+102870FM-12+304499999V0201371N0015199999999030000199-01471-01721104271ADDAA106999999AA224000531AJ100003100000099AY171061AY201061GA1999+018001999GE19MSL   +99999+99999GF108991999999018001999999IA2999-01019KA1240M-00971KA2240N-01701MA1999999070381MD1210121+0281MW1701OC101541OD141201541359REMSYN004BUFR
0166527870999992020011818004+37200+102870FM-12+304499999V0203101N0025199999999030000199-01621-01951103681ADDAA106999999AA224000131AJ100059100050099AY101999AY201999IA2999-01229KA1240M-01021KA2240N-01701MA1999999070231MD1710111+0041MW1001OC101091OD141201091359REMSYN004BUFR
0150527870999992020011821004+37200+102870FM-12+304499999V0201301N0020199999999030000199-01551-01971103711ADDAA106999999AA224000131AJ100059100050099IA2999-01349KA1240M-01021KA2240N-01701MA1999999070181MD1710051+0051MW1001OC100811OD141200811311REMSYN004BUFR
0222527870999992020011900004+37200+102870FM-12+304499999V0203441N0010199999999030000199-01441-01901103861ADDAA106999999AA224000131AJ100059100050099AY171121AY201121GA1999+018001999GE19MSL   +99999+99999GF107991999999018001999999IA2999-01349KA1240M-01021KA2240N-01701MA1999999070231MD1210051-0131MW1001OD141200461160REMSYN004BUFR
0222527870999992020011903004+37200+102870FM-12+304499999V0201881N0012199999999030000199-01021-01881103641ADDAA106999999AA224050091AJ199999999999999AY101031AY201031GA1999+018001999GE19MSL   +99999+99999GF107991999999018001999999IA2999-01349KA1240M-01021KA2240N-01631MA1999999070241MD1210011-0151MW1001OD141200451157REMSYN004BUFR
0230527870999992020011906004+37200+102870FM-12+304499999V0201571N0035199999999030000199-00821-01621103231ADDAA106999999AA224050091AJ199999999999999AY101061AY201061GA1999+018001999GE19MSL   +99999+99999GF107991999999018001999999IA2999-01349KA1240M-00811KA2240N-01631MA1999999070041MD1710201-0241MW1001OC100721OD141200721163REMSYN004BUFR
0230527870999992020011909004+37200+102870FM-12+304499999V0203141N0017199999999030000199-00721-01571103111ADDAA106999999AA224050091AJ199999999999999AY101031AY201031GA1999+018001999GE19MSL   +99999+99999GF107991999999018001999999IA2999-01339KA1240M-00731KA2240N-01631MA1999999070041MD1410001-0221MW1001OC100721OD141200721163REMSYN004BUFR
0230527870999992020011912004+37200+102870FM-12+304499999V0203171N0024199999999030000199-01341-01881103641ADDAA106999999AA224050091AJ199999999999999AY101061AY201061GA1999+018001999GE19MSL   +99999+99999GF107991999999018001999999IA2999-01299KA1240M-00731KA2240N-01631MA1999999070151MD1210111-0231MW1701OC100721OD141200721163REMSYN004BUFR
0166527870999992020011918004+37200+102870FM-12+304499999V0201461N0038199999999018400199-01601-01781103131ADDAA106000431AA224000431AJ100003100000099AY101999AY201999IA2999-01099KA1240M-00731KA2240N-01631MA1999999069981MD1710111-0251MW1701OC100791OD141200791172REMSYN004BUFR
0150527870999992020011921004+37200+102870FM-12+304499999V0201701N0051199999999013600199-01501-01711102751ADDAA106999999AA224000431AJ100003100000099IA2999-01119KA1240M-00731KA2240N-01631MA1999999069831MD1710151-0351MW1221OC100791OD141200791172REMSYN004BUFR
0166527870999992020012000004+37200+102870FM-12+304499999V0201601N0017199999999013300199-01371-01571103071ADDAA106999999AA224000431AJ100003100000099AY101121AY201121IA2999-01149KA1240M-00731KA2240N-01631MA1999999069801MD1710031-0431MW1001OC100791OD141200791172REMSYN004BUFR
0230527870999992020012003004+37200+102870FM-12+304499999V0201641N0051199999999030000199-01121-01401102931ADDAA106999999AA224000431AJ100059100050099AY101031AY201031GA1999+040001999GE19MSL   +99999+99999GF107991999999040001999999IA2999-01149KA1240M-00731KA2240N-01631MA1999999069811MD1210011-0431MW1701OC100791OD141200791172REMSYN004BUFR
0230527870999992020012006004+37200+102870FM-12+304499999V0201631N0039199999999030000199-00571-01291102381ADDAA106999999AA224000431AJ100059100050099AY171061AY201061GA1999+040001999GE19MSL   +99999+99999GF106991999999040001999999IA2999-01149KA1240M-00571KA2240N-01631MA1999999069601MD1710211-0441MW1001OC100701OD141200701178REMSYN004BUFR
0230527870999992020012009004+37200+102870FM-12+304499999V0203241N0081199999999030000199-00621-01821102321ADDAA106999999AA224000431AJ100059100050099AY101031AY201031GA1999+040001999GE19MSL   +99999+99999GF107991999999040001999999IA2999-01149KA1240M-00301KA2240N-01631MA1999999069591MD1710011-0451MW1001OC101011OD141201011325REMSYN004BUFR
0166527870999992020012012004+37200+102870FM-12+304499999V0203541N0047199999999030000199-00751-02221102591ADDAA106999999AA224000431AJ100059100050099AY101061AY201061IA2999-01149KA1240M-00301KA2240N-01631MA1999999069771MD1210181-0381MW1001OC101061OD141201061327REMSYN004BUFR
0166527870999992020012018004+37200+102870FM-12+304499999V0201231N0021199999999030000199-01021-02221102111ADDAA106999999AA224050091AJ199999999999999AY101999AY201999IA2999-01149KA1240M-00301KA2240N-01611MA1999999069701MD1710121-0281MW1001OC101061OD141201061327REMSYN004BUFR
0150527870999992020012021004+37200+102870FM-12+304499999V0201601N0031199999999030000199-00941-02171101961ADDAA106999999AA224050091AJ199999999999999IA2999-01189KA1240M-00301KA2240N-01611MA1999999069621MD1710081-0211MW1001OC101061OD141201061327REMSYN004BUFR
0230527870999992020012100004+37200+102870FM-12+304499999V0202991N0016122000199030000199-01071-02241102251ADDAA106999999AA224050091AJ199999999999999AY101121AY201121GA1999+040001999GE19MSL   +99999+99999GF102991999999040001999999IA2999-01279KA1240M-00301KA2240N-01451MA1999999069681MD1210061-0121MW1001OC100811OD141200811349REMSYN004BUFR
0192527870999992020012103004+37200+102870FM-12+304499999V0201701N0027122000199030000199-00521-01701102101ADDAA106999999AA224050091AJ199999999999999AY101031AY201031GF100991999999999999999999IA2999-01299KA1240M-00301KA2240N-01131MA1999999069791MD1210111-0021MW1001OC100741OD141200741125REMSYN004BUFR
0192527870999992020012106004+37200+102870FM-12+304499999V0201461N0019122000199030000199-00291-01561101861ADDAA106999999AA224050091AJ199999999999999AY101061AY201061GF100991999999999999999999IA2999-01299KA1240M-00261KA2240N-01121MA1999999069671MD1710121+0071MW1001OC100741OD141200741125REMSYN004BUFR
0230527870999992020012109004+37200+102870FM-12+304499999V0203091N0066199999999030000199-00671-01701102101ADDAA106999999AA224050091AJ199999999999999AY101031AY201031GA1999+040001999GE19MSL   +99999+99999GF105991999999040001999999IA2999-01299KA1240M-00201KA2240N-01121MA1999999069691MD1210021+0101MW1001OC100921OD141200921318REMSYN004BUFR
0192527870999992020012112004+37200+102870FM-12+304499999V0200391N0012122000199030000199-01101-01751102781ADDAA106999999AA224050091AJ199999999999999AY101061AY201061GF100991999999999999999999IA2999-01299KA1240M-00201KA2240N-01251MA1999999069871MD1210181+0101MW1001OC100921OD141200921318REMSYN004BUFR
0166527870999992020012118004+37200+102870FM-12+304499999V0201461N0059199999999030000199-01301-01551102281ADDAA106999999AA224050091AJ199999999999999AY101999AY201999IA2999-01029KA1240M-00201KA2240N-01311MA1999999069821MD1710101+0121MW1001OC101021OD141201021144REMSYN004BUFR
0150527870999992020012121004+37200+102870FM-12+304499999V0201621N0033199999999030000199-01241-01551102451ADDAA106999999AA224050091AJ199999999999999IA2999-01079KA1240M-00201KA2240N-01351MA1999999069781MD1710041+0161MW1001OC101021OD141201021144REMSYN004BUFR
0192527870999992020012200004+37200+102870FM-12+304499999V0200101N0012122000199030000199-01041-02301102661ADDAA106999999AA224050091AJ199999999999999AY101121AY201121GF100991999999999999999999IA2999-01279KA1240M-00201KA2240N-01351MA1999999069811MD1210031+0131MW1001OC101021OD141201021144REMSYN004BUFR
0230527870999992020012203004+37200+102870FM-12+304499999V0203281N0031122000199030000199-00521-02021102481ADDAA106999999AA224050091AJ199999999999999AY101031AY201031GA1999+009001999GE19MSL   +99999+99999GF102991999999009001999999IA2999-01279KA1240M-00201KA2240N-01351MA1999999069921MD1210111+0131MW1001OC101021OD141201021144REMSYN004BUFR
0230527870999992020012206004+37200+102870FM-12+304499999V0200031N0063199999999030000199-00251-02201102261ADDAA106999999AA224050091AJ199999999999999AY101061AY201061GA1999+040001999GE19MSL   +99999+99999GF107991999999040001999999IA2999-01279KA1240M-00191KA2240N-01351MA1999999069821MD1710101+0151MW1001OC101011OD141201011337REMSYN004BUFR
0230527870999992020012209004+37200+102870FM-12+304499999V0200131N0052122000199030000199-00551-02121102561ADDAA106999999AA224050091AJ199999999999999AY101031AY201031GA1999+040001999GE19MSL   +99999+99999GF104991999999040001999999IA2999-01279KA1240M-00191KA2240N-01351MA1999999069921MD1210101+0231MW1001OC101151OD141201151346REMSYN004BUFR
0230527870999992020012212004+37200+102870FM-12+304499999V0203101N0046199999999030000199-01241-01821103171ADDAA106999999AA224050091AJ199999999999999AY101061AY201061GA1999+040001999GE19MSL   +99999+99999GF106991999999040001999999IA2999-01279KA1240M-00191KA2240N-01351MA1999999070091MD1210171+0221MW1001OC101151OD141201151346REMSYN004BUFR
0166527870999992020012218004+37200+102870FM-12+304499999V0201651N0036199999999030000199-01201-01881102621ADDAA106999999AA224050091AJ199999999999999AY101999AY201999IA2999-01179KA1240M-00191KA2240N-01471MA1999999070121MD1710021+0301MW1001OC101151OD141201151346REMSYN004BUFR
0150527870999992020012221004+37200+102870FM-12+304499999V0201651N0058199999999030000199-01191-02051102661ADDAA106999999AA224050091AJ199999999999999IA2999-01179KA1240M-00191KA2240N-01471MA1999999070011MD1710111+0231MW1001OC100981OD141200981297REMSYN004BUFR
0230527870999992020012300004+37200+102870FM-12+304499999V0201711N0045199999999030000199-01221-01991103281ADDAA106999999AA224050091AJ199999999999999AY101121AY201121GA1999+040001999GE19MSL   +99999+99999GF107991999999040001999999IA2999-01179KA1240M-00191KA2240N-01471MA1999999070071MD1210061+0261MW1001OC100981OD141200981297REMSYN004BUFR
0230527870999992020012303004+37200+102870FM-12+304499999V0201671N0064199999999030000199-00921-01671103341ADDAA106999999AA224050091AJ199999999999999AY101031AY201031GA1999+040001999GE19MSL   +99999+99999GF107991999999040001999999IA2999-01179KA1240M-00191KA2240N-01471MA1999999070161MD1210091+0241MW1001OC101051OD141201051146REMSYN004BUFR
0230527870999992020012306004+37200+102870FM-12+304499999V0201881N0040122000199030000199-00671-01571102841ADDAA106999999AA224050091AJ199999999999999AY101061AY201061GA1999+040001999GE19MSL   +99999+99999GF102991999999040001999999IA2999-01159KA1240M-00261KA2240N-01471MA1999999070071MD1710091+0251MW1001OC101051OD141201051146REMSYN004BUFR
0230527870999992020012309004+37200+102870FM-12+304499999V0200291N0069199999999030000199-00921-01621103141ADDAA106999999AA224050091AJ199999999999999AY101031AY201031GA1999+040001999GE19MSL   +99999+99999GF107991999999040001999999IA2999-01159KA1240M-00551KA2240N-01471MA1999999070151MD1210081+0231MW1001OC101071OD141201071358REMSYN004BUFR
0192527870999992020012312004+37200+102870FM-12+304499999V0203111N0064122000199030000199-01341-01811103801ADDAA106999999AA224050091AJ199999999999999AY101061AY201061GF100991999999999999999999IA2999-01119KA1240M-00551KA2240N-01471MA1999999070371MD1210221+0281MW1001OC101111OD141201111324REMSYN004BUFR
0166527870999992020012318004+37200+102870FM-12+304499999V0200011N0076199999999030000199-01051-02131103251ADDAA106999999AA224050091AJ199999999999999AY101999AY201999IA2999-01009KA1240M-00551KA2240N-01411MA1999999070421MD1710041+0301MW1001OC101111OD141201111324REMSYN004BUFR
0150527870999992020012321004+37200+102870FM-12+304499999V0203151N0047199999999030000199-01371-01971103661ADDAA106999999AA224050091AJ199999999999999IA2999-01089KA1240M-00551KA2240N-01461MA1999999070411MD1710011+0401MW1001OC101111OD141201111324REMSYN004BUFR
0230527870999992020012400004+37200+102870FM-12+304499999V0203211N0036199999999030000199-01451-02121104161ADDAA106999999AA224050091AJ199999999999999AY101121AY201121GA1999+018001999GE19MSL   +99999+99999GF105991999999018001999999IA2999-01249KA1240M-00551KA2240N-01531MA1999999070501MD1210091+0431MW1001OC101031OD141201031003REMSYN004BUFR
0192527870999992020012403004+37200+102870FM-12+304499999V0203131N0034122000199030000199-00991-02041103941ADDAA106999999AA224050091AJ199999999999999AY101031AY201031GF100991999999999999999999IA2999-01269KA1240M-00551KA2240N-01531MA1999999070571MD1210071+0411MW1001OC101031OD141201031003REMSYN004BUFR
0230527870999992020012406004+37200+102870FM-12+304499999V0201621N0040199999999030000199-00621-01831103271ADDAA106999999AA224050091AJ199999999999999AY101061AY201061GA1999+040001999GE19MSL   +99999+99999GF107991999999040001999999IA2999-01269KA1240M-00471KA2240N-01531MA1999999070451MD1710121+0381MW1001OC101011OD141201011357REMSYN004BUFR
0192527870999992020012409004+37200+102870FM-12+304499999V0203551N0070122000199030000199-00821-01681103631ADDAA106999999AA224040091AJ199999999999999AY101031AY201031GF100991999999999999999999IA2999-01269KA1240M-00471KA2240N-01531MA1999999070441MD1710011+0291MW1001OC101021OD141201021342REMSYN004BUFR
0192527870999992020012412004+37200+102870FM-12+304499999V0202581N0020122000199030000199-01201-01741104141ADDAA106999999AA224050091AJ199999999999999AY101061AY201061GF100991999999999999999999IA2999-01269KA1240M-00471KA2240N-01531MA1999999070561MD1210121+0191MW1001OC101051OD141201051356REMSYN004BUFR
0166527870999992020012418004+37200+102870FM-12+304499999V0201601N0024199999999030000199-01301-01661103381ADDAA106999999AA224050091AJ199999999999999AY101999AY201999IA2999-01159KA1240M-00471KA2240N-01531MA1999999070401MD1710131-0021MW1001OC101051OD141201051356REMSYN004BUFR
0150527870999992020012421004+37200+102870FM-12+304499999V0201661N0016199999999030000199-01121-01741103161ADDAA106999999AA224050091AJ199999999999999IA2999-01279KA1240M-00471KA2240N-01531MA1999999070251MD1710151-0161MW1001OC101051OD141201051356REMSYN004BUFR
0192527870999992020012500004+37200+102870FM-12+304499999V0201471N0031122000199030000199-01371-01801103521ADDAA106999999AA224050091AJ199999999999999AY101121AY201121GF100991999999999999999999IA2999-01299KA1240M-00471KA2240N-01511MA1999999070181MD1710071-0321MW1001OC100861OD141200861132REMSYN004BUFR
0192527870999992020012503004+37200+102870FM-12+304499999V0201621N0066122000199030000199-00801-01591103121ADDAA106999999AA224050091AJ199999999999999AY101031AY201031GF100991999999999999999999IA2999-01299KA1240M-00471KA2240N-01471MA1999999070151MD1710031-0421MW1001OC100931OD141200931160REMSYN004BUFR
0192527870999992020012506004+37200+102870FM-12+304499999V0201461N0110122000199030000199-00621-01631102781ADDAA106999999AA224040091AJ199999999999999AY101061AY201061GF100991999999999999999999IA2999-01299KA1240M-00521KA2240N-01471MA1999999069991MD1710161-0461MW1001OC101391OD141201391142REMSYN004BUFR
0230527870999992020012509004+37200+102870FM-12+304499999V0201251N0083199999999030000199-00621-01901102581ADDAA106999999AA224040091AJ199999999999999AY101031AY201031GA1999+040001999GE19MSL   +99999+99999GF105991999999040001999999IA2999-01299KA1240M-00541KA2240N-01471MA1999999069951MD1710041-0491MW1001OC101391OD141201391142REMSYN004BUFR
0230527870999992020012512004+37200+102870FM-12+304499999V0201651N0058199999999030000199-01041-01651103211ADDAA106999999AA224050091AJ199999999999999AY101061AY201061GA1999+040001999GE19MSL   +99999+99999GF107991999999040001999999IA2999-01279KA1240M-00541KA2240N-01471MA1999999070051MD1210101-0511MW1001OC101391OD141201391142REMSYN004BUFR
0166527870999992020012518004+37200+102870FM-12+304499999V0201641N0023199999999030000199-01341-01611102721ADDAA106999999AA224050091AJ199999999999999AY101999AY201999IA2999-01169KA1240M-00541KA2240N-01471MA1999999069941MD1710101-0461MW1001OC101341OD141201341142REMSYN004BUFR
0150527870999992020012521004+37200+102870FM-12+304499999V0201591N0016199999999030000199-01351-01561102541ADDAA106999999AA224050091AJ199999999999999IA2999-01279KA1240M-00541KA2240N-01471MA1999999069811MD1710131-0441MW1001OC101161OD141201161112REMSYN004BUFR
0192527870999992020012600004+37200+102870FM-12+304499999V0203521N0018122000199030000199-01191-02001102681ADDAA106999999AA224050091AJ199999999999999AY101121AY201121GF100991999999999999999999IA2999-01389KA1240M-00541KA2240N-01471MA1999999069781MD1710031-0401MW1001OC100911OD141200911151REMSYN004BUFR
0192527870999992020012603004+37200+102870FM-12+304499999V0203261N0034122000199030000199-00791-02041102641ADDAA106999999AA224050091AJ199999999999999AY101031AY201031GF100991999999999999999999IA2999-01389KA1240M-00541KA2240N-01471MA1999999069851MD1210071-0301MW1001OC100711OD141200711172REMSYN004BUFR
0230527870999992020012606004+37200+102870FM-12+304499999V0203541N0054199999999030000199-00621-01701102351ADDAA106999999AA224040091AJ199999999999999AY101061AY201061GA1999+009001999GE19MSL   +99999+99999GF107991999999009001999999IA2999-01389KA1240M-00501KA2240N-01471MA1999999069691MD1710161-0301MW1001OC101031OD141201031339REMSYN004BUFR
0230527870999992020012609004+37200+102870FM-12+304499999V0200071N0047199999999030000199-00891-01571102641ADDAA106999999AA224050091AJ199999999999999AY101031AY201031GA1999+018001999GE19MSL   +99999+99999GF107991999999018001999999IA2999-01389KA1240M-00501KA2240N-01471MA1999999069751MD1210061-0201MW1001OC101041OD141201041356REMSYN004BUFR
0230527870999992020012612004+37200+102870FM-12+304499999V0203081N0032199999999030000199-01391-01801103101ADDAA106999999AA224050091AJ199999999999999AY101061AY201061GA1999+018001999GE19MSL   +99999+99999GF107991999999018001999999IA2999-01389KA1240M-00501KA2240N-01471MA1999999069891MD1210141-0161MW1001OC101041OD141201041356REMSYN004BUFR
0166527870999992020012618004+37200+102870FM-12+304499999V0203221N0021199999999030000199-01351-01951102571ADDAA106999999AA224050091AJ199999999999999AY101999AY201999IA2999-01259KA1240M-00501KA2240N-01471MA1999999069831MD1710051-0111MW1001OC101041OD141201041356REMSYN004BUFR
0150527870999992020012621004+37200+102870FM-12+304499999V0203341N0024199999999030000199-01291-02031102581ADDAA106999999AA224050091AJ199999999999999IA2999-01409KA1240M-00501KA2240N-01441MA1999999069741MD1710091-0071MW1001OC100841OD141200841017REMSYN004BUFR
0192527870999992020012700004+37200+102870FM-12+304499999V0203311N0035122000199030000199-01401-02031103081ADDAA106999999AA224050091AJ199999999999999AY101121AY201121GF100991999999999999999999IA2999-01429KA1240M-00501KA2240N-01501MA1999999069771MD1210031-0011MW1001OC100841OD141200841017REMSYN004BUFR
0192527870999992020012703004+37200+102870FM-12+304499999V0203251N0052122000199030000199-01001-01771102941ADDAA106999999AA224050091AJ199999999999999AY101031AY201031GF100991999999999999999999IA2999-01429KA1240M-00501KA2240N-01501MA1999999069871MD1210101+0021MW1001OC100841OD141200841017REMSYN004BUFR
0166527870999992020012706004+37200+102870FM-12+304499999V0200281N0052199999999029900199-00791-02041102591ADDAA106999999AA224040091AJ199999999999999AY101061AY201061IA2999-01429KA1240M-00611KA2240N-01501MA1999999069761MD1710111+0071MW1001OC100981OD141200981355REMSYN004BUFR
0230527870999992020012709004+37200+102870FM-12+304499999V0200141N0054199999999030000199-00851-02041102651ADDAA106999999AA224040091AJ199999999999999AY101031AY201031GA1999+040001999GE19MSL   +99999+99999GF107991999999040001999999IA2999-01429KA1240M-00611KA2240N-01501MA1999999069801MD1210041+0051MW1001OC100981OD141200981355REMSYN004BUFR
0230527870999992020012712004+37200+102870FM-12+304499999V0203021N0025199999999030000199-01501-01881103421ADDAA106999999AA224050091AJ199999999999999AY101061AY201061GA1999+040001999GE19MSL   +99999+99999GF107991999999040001999999IA2999-01429KA1240M-00611KA2240N-01501MA1999999069941MD1210141+0051MW1001OC100981OD141200981355REMSYN004BUFR
0166527870999992020012718004+37200+102870FM-12+304499999V0201191N0013199999999030000199-01271-02121102761ADDAA106999999AA224050091AJ199999999999999AY101999AY201999IA2999-01439KA1240M-00611KA2240N-01501MA1999999069921MD1710041+0091MW1001OC100891OD141200891004REMSYN004BUFR
0150527870999992020012721004+37200+102870FM-12+304499999V0203081N0039199999999030000199-01301-02111102741ADDAA106999999AA224050091AJ199999999999999IA2999-01439KA1240M-00611KA2240N-01501MA1999999069851MD1710071+0111MW1001OC100841OD141200841012REMSYN004BUFR
0230527870999992020012800004+37200+102870FM-12+304499999V0203221N0032199999999030000199-01391-02261103351ADDAA106999999AA224050091AJ199999999999999AY101121AY201121GA1999+018001999GE19MSL   +99999+99999GF106991999999018001999999IA2999-01439KA1240M-00611KA2240N-01501MA1999999069901MD1210051+0131MW1001OC100541OD141200541229REMSYN004BUFR
0192527870999992020012803004+37200+102870FM-12+304499999V0203481N0044122000199030000199-00771-02351102941ADDAA106999999AA224050091AJ199999999999999AY101031AY201031GF100991999999999999999999IA2999-01439KA1240M-00611KA2240N-01501MA1999999070031MD1210131+0161MW1001OC100681OD141200681346REMSYN004BUFR
0230527870999992020012806004+37200+102870FM-12+304499999V0200011N0077122000199030000199-00651-02161102751ADDAA106999999AA224040091AJ199999999999999AY101061AY201061GA1999+009001999GE19MSL   +99999+99999GF104991999999009001999999IA2999-01389KA1240M-00611KA2240N-01501MA1999999069981MD1710051+0221MW1001OC101281OD141201281359REMSYN004BUFR
0230527870999992020012809004+37200+102870FM-12+304499999V0200131N0068199999999030000199-00871-02091103141ADDAA106999999AA224040091AJ199999999999999AY101031AY201031GA1999+018001999GE19MSL   +99999+99999GF107991999999018001999999IA2999-01379KA1240M-00611KA2240N-01501MA1999999070111MD1210131+0311MW1001OC101281OD141201281359REMSYN004BUFR
0230527870999992020012812004+37200+102870FM-12+304499999V0203231N0037199999999030000199-01321-01921103781ADDAA106999999AA224040091AJ199999999999999AY101061AY201061GA1999+018001999GE19MSL   +99999+99999GF107991999999018001999999IA2999-01379KA1240M-00611KA2240N-01501MA1999999070281MD1210171+0341MW1001OC101281OD141201281359REMSYN004BUFR
0166527870999992020012818004+37200+102870FM-12+304499999V0203241N0025199999999030000199-01171-02831103191ADDAA106999999AA224040091AJ199999999999999AY101999AY201999IA2999-01289KA1240M-00611KA2240N-01421MA1999999070331MD1710011+0411MW1001OC101271OD141201271360REMSYN004BUFR
0150527870999992020012821004+37200+102870FM-12+304499999V0202591N0024199999999030000199-01241-02981103331ADDAA106999999AA224040091AJ199999999999999IA2999-01469KA1240M-00611KA2240N-01421MA1999999070281MD1710051+0431MW1001OC101111OD141201111004REMSYN004BUFR
0192527870999992020012900004+37200+102870FM-12+304499999V0201581N0012122000199030000199-01171-02871103661ADDAA106999999AA224040091AJ199999999999999AY101121AY201121GF100991999999999999999999IA2999-01559KA1240M-00611KA2240N-01421MA1999999070311MD1210031+0411MW1001OC100991OD141200991359REMSYN004BUFR
0192527870999992020012903004+37200+102870FM-12+304499999V0202801N0012122000199030000199-00571-02421103081ADDAA106999999AA224050091AJ199999999999999AY101031AY201031GF100991999999999999999999IA2999-01569KA1240M-00501KA2240N-01421MA1999999070391MD1210081+0361MW1001OC100991OD141200991359REMSYN004BUFR
0192527870999992020012906004+37200+102870FM-12+304499999V0203561N0059122000199030000199-00451-02891102991ADDAA106999999AA224040091AJ199999999999999AY101061AY201061GF100991999999999999999999IA2999-01569KA1240M-00441KA2240N-01421MA1999999070291MD1710101+0311MW1001OC101251OD141201251343REMSYN004BUFR
0230527870999992020012909004+37200+102870FM-12+304499999V0203591N0072199999999030000199-00671-02841103251ADDAA106999999AA224040091AJ199999999999999AY101031AY201031GA1999+040001999GE19MSL   +99999+99999GF107991999999040001999999IA2999-01569KA1240M-00431KA2240N-01421MA1999999070331MD1210041+0221MW1001OC101311OD141201311347REMSYN004BUFR
0230527870999992020012912004+37200+102870FM-12+304499999V0200241N0047199999999030000199-00851-03061103441ADDAA106999999AA224040091AJ199999999999999AY101061AY201061GA1999+040001999GE19MSL   +99999+99999GF107991999999040001999999IA2999-01569KA1240M-00431KA2240N-01421MA1999999070401MD1210071+0121MW1001OC101311OD141201311347REMSYN004BUFR
0166527870999992020012918004+37200+102870FM-12+304499999V0201631N0037199999999030000199-01291-02491103051ADDAA106999999AA224040091AJ199999999999999AY101999AY201999IA2999-01439KA1240M-00431KA2240N-01391MA1999999070271MD1710111-0061MW1001OC101311OD141201311347REMSYN004BUFR
0150527870999992020012921004+37200+102870FM-12+304499999V0201501N0031199999999030000199-01271-02391103021ADDAA106999999AA224040091AJ199999999999999IA2999-01439KA1240M-00431KA2240N-01391MA1999999070151MD1710121-0131MW1001OC100981OD141200981353REMSYN004BUFR
0192527870999992020013000004+37200+102870FM-12+304499999V0201391N0019122000199030000199-01251-02461103111ADDAA106999999AA224040091AJ199999999999999AY101121AY201121GF100991999999999999999999IA2999-01609KA1240M-00431KA2240N-01391MA1999999070131MD1710021-0181MW1001OC100601OD141200601157REMSYN004BUFR
0192527870999992020013003004+37200+102870FM-12+304499999V0203281N0013122000199030000199-00621-02461102931ADDAA106999999AA224040091AJ199999999999999AY101031AY201031GF100991999999999999999999IA2999-01609KA1240M-00431KA2240N-01391MA1999999070171MD1210041-0221MW1001OC100601OD141200601157REMSYN004BUFR
0192527870999992020013006004+37200+102870FM-12+304499999V0203461N0068122000199030000199-00391-02421102571ADDAA106999999AA224040091AJ199999999999999AY101061AY201061GF100991999999999999999999IA2999-01609KA1240M-00301KA2240N-01391MA1999999069981MD1710191-0311MW1001OC101031OD141201031339REMSYN004BUFR
0230527870999992020013009004+37200+102870FM-12+304499999V0203481N0100122000199030000199-00651-02331102741ADDAA106999999AA224040091AJ199999999999999AY101031AY201031GA1999+009001999GE19MSL   +99999+99999GF102991999999009001999999IA2999-01609KA1240M-00301KA2240N-01391MA1999999069971MD1710011-0361MW1001OC101411OD141201411349REMSYN004BUFR
0230527870999992020013012004+37200+102870FM-12+304499999V0200481N0048199999999030000199-00971-02421103171ADDAA106999999AA224040091AJ199999999999999AY101061AY201061GA1999+009001999GE19MSL   +99999+99999GF105991999999009001999999IA2999-01609KA1240M-00301KA2240N-01391MA1999999070111MD1210141-0291MW1001OC101411OD141201411349REMSYN004BUFR
0166527870999992020013018004+37200+102870FM-12+304499999V0201601N0027199999999030000199-01251-02291102621ADDAA106999999AA224040091AJ199999999999999AY101999AY201999IA2999-01629KA1240M-00301KA2240N-01371MA1999999070031MD1710091-0241MW1001OC101411OD141201411349REMSYN004BUFR
0150527870999992020013021004+37200+102870FM-12+304499999V0201661N0040199999999030000199-01341-02191102711ADDAA106999999AA224040091AJ199999999999999IA2999-01629KA1240M-00301KA2240N-01341MA1999999069921MD1710111-0231MW1001OC101291OD141201291353REMSYN004BUFR
0230527870999992020013100004+37200+102870FM-12+304499999V0201731N0052199999999030000199-01251-01911102931ADDAA106999999AA224040091AJ199999999999999AY101121AY201121GA1999+040001999GE19MSL   +99999+99999GF107991999999040001999999IA2999-01629KA1240M-00301KA2240N-01391MA1999999069951MD1210031-0181MW1001OC100731OD141200731161REMSYN004BUFR
0166527870999992020013103004+37200+102870FM-12+304499999V0201701N0072199999999030000199-00741-01711102751ADDAA106999999AA224040091AJ199999999999999AY101031AY201031IA2999-01629KA1240M-00301KA2240N-01391MA1999999069961MD1210011-0211MW1001OC100911OD141200911168REMSYN004BUFR
0230527870999992020013106004+37200+102870FM-12+304499999V0201581N0073199999999029800199-00401-01571102261ADDAA106999999AA224040091AJ199999999999999AY101061AY201061GA1999+040001999GE19MSL   +99999+99999GF107991999999040001999999IA2999-01619KA1240M-00361KA2240N-01391MA1999999069771MD1710191-0211MW1001OC101071OD141201071148REMSYN004BUFR
0230527870999992020013109004+37200+102870FM-12+304499999V0203251N0072199999999030000199-00801-01901102671ADDAA106999999AA224040091AJ199999999999999AY101031AY201031GA1999+040001999GE19MSL   +99999+99999GF107991999999040001999999IA2999-01619KA1240M-00321KA2240N-01391MA1999999069821MD1210051-0151MW1001OC101071OD141201071148REMSYN004BUFR
0230527870999992020013112004+37200+102870FM-12+304499999V0203071N0082199999999030000199-01251-02001103231ADDAA106999999AA224040091AJ199999999999999AY101061AY201061GA1999+040001999GE19MSL   +99999+99999GF107991999999040001999999IA2999-01529KA1240M-00321KA2240N-01391MA1999999070011MD1210191-0101MW1001OC101091OD141201091317REMSYN004BUFR
0166527870999992020013118004+37200+102870FM-12+304499999V0203201N0043199999999030000199-01421-01961102661ADDAA106999999AA224040091AJ199999999999999AY101999AY201999IA2999-01419KA1240M-00321KA2240N-01431MA1999999069961MD1710061-0071MW1001OC101091OD141201091317REMSYN004BUFR
0150527870999992020013121004+37200+102870FM-12+304499999V0203081N0014199999999030000199-01351-01931102851ADDAA106999999AA224040091AJ199999999999999IA2999-01449KA1240M-00321KA2240N-01431MA1999999069931MD1710031+0011MW1001OC101091OD141201091317REMSYN004BUFR
0230527870999992020020100004+37200+102870FM-12+304499999V0203081N0033122000199030000199-01521-01991103351ADDAA106999999AA224040091AJ199999999999999AY101121AY201121GA1999+040001999GE19MSL   +99999+99999GF104991999999040001999999IA2999-01819KA1240M-00321KA2240N-01531MA1999999069951MD1210021+0001MW1001OC101071OD141201071314REMSYN004BUFR
0230527870999992020020103004+37200+102870FM-12+304499999V0200081N0082122000199030000199-00991-02011103111ADDAA106999999AA224040091AJ199999999999999AY101031AY201031GA1999+009001999GE19MSL   +99999+99999GF102991999999009001999999IA2999-01819KA1240M-00321KA2240N-01561MA1999999070031MD1210081+0071MW1001OC101181OD141201181002REMSYN004BUFR
0230527870999992020020106004+37200+102870FM-12+304499999V0200201N0073199999999030000199-00901-02111103021ADDAA106999999AA224040091AJ199999999999999AY101061AY201061GA1999+018001999GE19MSL   +99999+99999GF107991999999018001999999IA2999-01819KA1240M-00321KA2240N-01561MA1999999069961MD1710071+0191MW1001OC101231OD141201231352REMSYN004BUFR
0230527870999992020020109004+37200+102870FM-12+304499999V0203501N0078199999999030000199-01071-02091103211ADDAA106999999AA224040091AJ199999999999999AY101031AY201031GA1999+018001999GE19MSL   +99999+99999GF107991999999018001999999IA2999-01819KA1240M-00781KA2240N-01561MA1999999070041MD1210081+0221MW1001OC101301OD141201301350REMSYN004BUFR
0230527870999992020020112004+37200+102870FM-12+304499999V0203511N0079199999999030000199-01301-01581103861ADDAA106000131AA224000131AJ100003100000099AY171061AY201061GA1999+018001999GE19MSL   +99999+99999GF108991999999018001999999IA2999-01819KA1240M-00781KA2240N-01561MA1999999070271MD1210231+0261MW1701OC101301OD141201301348REMSYN004BUFR
0166527870999992020020118004+37200+102870FM-12+304499999V0200011N0056199999999030000199-01301-01851103501ADDAA106000531AA224000631AJ100003100001099AY101999AY201999IA2999-01389KA1240M-00781KA2240N-01561MA1999999070351MD1410001+0391MW1001OC101301OD141201301348REMSYN004BUFR
0150527870999992020020121004+37200+102870FM-12+304499999V0203191N0025199999999030000199-01621-01991103861ADDAA106999999AA224000631AJ100003100001099IA2999-01659KA1240M-00781KA2240N-01641MA1999999070341MD1710011+0411MW1001OC101301OD141201301348REMSYN004BUFR
0230527870999992020020200004+37200+102870FM-12+304499999V0202431N0036199999999030000199-01451-02121103961ADDAA106999999AA224000631AJ100003100001099AY101121AY201121GA1999+018001999GE19MSL   +99999+99999GF107991999999018001999999IA2999-01839KA1240M-00781KA2240N-01641MA1999999070381MD1210041+0431MW1001OC101071OD141201071355REMSYN004BUFR
0230527870999992020020203004+37200+102870FM-12+304499999V0201621N0035199999999030000199-01101-01701103731ADDAA106999999AA224000631AJ100049100040099AY101031AY201031GA1999+040001999GE19MSL   +99999+99999GF107991999999040001999999IA2999-01839KA1240M-00781KA2240N-01641MA1999999070421MD1210041+0391MW1001OC100941OD141200941350REMSYN004BUFR
0230527870999992020020206004+37200+102870FM-12+304499999V0201631N0034199999999030000199-00841-01631103341ADDAA106999999AA224000631AJ100049100040099AY101061AY201061GA1999+018001999GE19MSL   +99999+99999GF107991999999018001999999IA2999-01839KA1240M-00751KA2240N-01641MA1999999070271MD1710151+0311MW1221OC100771OD141200771007REMSYN004BUFR
0230527870999992020020209004+37200+102870FM-12+304499999V0200161N0036199999999030000199-00771-01871103451ADDAA106999999AA224000631AJ100049100040099AY101031AY201031GA1999+009001999GE19MSL   +99999+99999GF106991999999009001999999IA2999-01839KA1240M-00621KA2240N-01641MA1999999070221MD1710051+0181MW1001OC100861OD141200861002REMSYN004BUFR
0230527870999992020020212004+37200+102870FM-12+304499999V0201681N0011199999999030000199-01251-01601103851ADDAA106999999AA224000531AJ100049100040099AY101061AY201061GA1999+018001999GE19MSL   +99999+99999GF107991999999018001999999IA2999-01649KA1240M-00621KA2240N-01641MA1999999070331MD1210111+0061MW1001OC100861OD141200861329REMSYN004BUFR
0166527870999992020020218004+37200+102870FM-12+304499999V0201571N0024199999999030000199-01401-01681103331ADDAA106999999AA224040091AJ199999999999999AY101999AY201999IA2999-01769KA1240M-00621KA2240N-01641MA1999999070211MD1710101-0141MW1001OC100911OD141200911189REMSYN004BUFR
0150527870999992020020221004+37200+102870FM-12+304499999V0200631N0016199999999030000199-01301-02261103001ADDAA106999999AA224040091AJ199999999999999IA2999-01979KA1240M-00621KA2240N-01631MA1999999070071MD1710141-0271MW1001OC100911OD141200911189REMSYN004BUFR
0192527870999992020020300004+37200+102870FM-12+304499999V0202801N0043122000199030000199-01121-02651103171ADDAA106999999AA224040091AJ199999999999999AY101121AY201121GF100991999999999999999999IA2999-01979KA1240M-00621KA2240N-01491MA1999999070041MD1710031-0341MW1001OC100911OD141200911189REMSYN004BUFR
0192527870999992020020303004+37200+102870FM-12+304499999V0202811N0040122000199030000199-00601-02651102931ADDAA106999999AA224040091AJ199999999999999AY101031AY201031GF100991999999999999999999IA2999-01979KA1240M-00601KA2240N-01491MA1999999070051MD1210011-0371MW1001OC100911OD141200911189REMSYN004BUFR
0192527870999992020020306004+37200+102870FM-12+304499999V0202631N0037122000199030000199-00221-02481102431ADDAA106999999AA224030091AJ199999999999999AY101061AY201061GF100991999999999999999999IA2999-01979KA1240M-00151KA2240N-01491MA1999999069901MD1710151-0371MW1001OC100861OD141200861270REMSYN004BUFR
0192527870999992020020309004+37200+102870FM-12+304499999V0203441N0071122000199030000199-00321-02871102411ADDAA106999999AA224030091AJ199999999999999AY101031AY201031GF100991999999999999999999IA2999-01919KA1240M-00131KA2240N-01491MA1999999069891MD1710011-0331MW1001OC100951OD141200951346REMSYN004BUFR
0192527870999992020020312004+37200+102870FM-12+304499999V0200021N0056122000199030000199-00771-02931102821ADDAA106999999AA224030091AJ199999999999999AY101061AY201061GF100991999999999999999999IA2999-01769KA1240M-00131KA2240N-01491MA1999999070041MD1210151-0291MW1001OC101081OD141201081327REMSYN004BUFR
0166527870999992020020318004+37200+102870FM-12+304499999V0203051N0033199999999030000199-01301-02481102601ADDAA106999999AA224030091AJ199999999999999AY101999AY201999IA2999-01859KA1240M-00131KA2240N-01441MA1999999070071MD1710031-0141MW1001OC101081OD141201081327REMSYN004BUFR
0150527870999992020020321004+37200+102870FM-12+304499999V0201541N0024199999999030000199-01151-02641102461ADDAA106999999AA224030091AJ199999999999999IA2999-02049KA1240M-00131KA2240N-01371MA1999999070001MD1710071-0071MW1001OC101081OD141201081327REMSYN004BUFR
0192527870999992020020400004+37200+102870FM-12+304499999V0201521N0030122000199030000199-01251-02581102901ADDAA106999999AA224030091AJ199999999999999AY101121AY201121GF100991999999999999999999IA2999-02049KA1240M-00131KA2240N-01371MA1999999070031MD1210031-0011MW1001OC100811OD141200811019REMSYN004BUFR
0192527870999992020020403004+37200+102870FM-12+304499999V0201631N0053122000199030000199-00601-02381102611ADDAA106999999AA224030091AJ199999999999999AY101031AY201031GF100991999999999999999999IA2999-02049KA1240M-00131KA2240N-01371MA1999999070111MD1210081+0061MW1001OC100691OD141200691165REMSYN004BUFR
0192527870999992020020406004+37200+102870FM-12+304499999V0201601N0054122000199030000199-00321-02421102511ADDAA106999999AA224030091AJ199999999999999AY101061AY201061GF100991999999999999999999IA2999-02049KA1240M-00131KA2240N-01371MA1999999069961MD1710151+0061MW1001OC101001OD141201001156REMSYN004BUFR
0192527870999992020020409004+37200+102870FM-12+304499999V0200041N0060122000199030000199-00371-02291102381ADDAA106999999AA224030091AJ199999999999999AY101031AY201031GF100991999999999999999999IA2999-02029KA1240M-00131KA2240N-01371MA1999999069931MD1710031+0041MW1001OC101011OD141201011349REMSYN004BUFR
0192527870999992020020412004+37200+102870FM-12+304499999V0202961N0008122000199030000199-00951-02431103071ADDAA106999999AA224030091AJ199999999999999AY101061AY201061GF100991999999999999999999IA2999-01989KA1240M-00131KA2240N-01371MA1999999070061MD1210131+0021MW1001OC101011OD141201011349REMSYN004BUFR
0166527870999992020020418004+37200+102870FM-12+304499999V0201551N0045199999999030000199-01251-02161102521ADDAA106999999AA224030091AJ199999999999999AY101999AY201999IA2999-01699KA1240M-00131KA2240N-01351MA1999999069991MD1710111-0081MW1001OC101011OD141201011349REMSYN004BUFR
0230527870999992020020500004+37200+102870FM-12+304499999V0203321N0041122000199030000199-01151-02241102761ADDAA106999999AA224030091AJ199999999999999AY101121AY201121GA1999+040001999GE19MSL   +99999+99999GF104991999999040001999999IA2999-01999KA1240M-00131KA2240N-01301MA1999999069901MD1210031-0131MW1001OC100871OD141200871359REMSYN004BUFR
0230527870999992020020503004+37200+102870FM-12+304499999V0203461N0076199999999030000199-00621-02151102651ADDAA106999999AA224030091AJ199999999999999AY101031AY201031GA1999+018001999GE19MSL   +99999+99999GF107991999999018001999999IA2999-01999KA1240M-00131KA2240N-01291MA1999999069991MD1210091-0121MW1001OC100971OD141200971326REMSYN004BUFR
0230527870999992020020506004+37200+102870FM-12+304499999V0200071N0057199999999030000199-00341-02501102401ADDAA106999999AA224030091AJ199999999999999AY101061AY201061GA1999+040001999GE19MSL   +99999+99999GF107991999999040001999999IA2999-01999KA1240M-00131KA2240N-01291MA1999999069901MD1710091-0061MW1001OC101031OD141201031356REMSYN004BUFR
0230527870999992020020509004+37200+102870FM-12+304499999V0200131N0064199999999030000199-00451-02421102411ADDAA106999999AA224020091AJ199999999999999AY101031AY201031GA1999+009001999GE19MSL   +99999+99999GF106991999999009001999999IA2999-01879KA1240M-00311KA2240N-01291MA1999999069941MD1210041+0011MW1001OC101101OD141201101354REMSYN004BUFR
0230527870999992020020512004+37200+102870FM-12+304499999V0202681N0019199999999030000199-01051-02441103222ADDAA106999999AA224030091AJ199999999999999AY101061AY201061GA1999+040001999GE19MSL   +99999+99999GF107991999999040001999999IA2999-01679KA1240M-00311KA2240N-01291MA1999999070161MD1210221+0101MW1001OC101101OD141201101354REMSYN004BUFR
0166527870999992020020518004+37200+102870FM-12+304499999V0201761N0017199999999030000199-01141-01721102711ADDAA106999999AA224030091AJ199999999999999AY101999AY201999IA2999-01889KA1240M-00311KA2240N-01291MA1999999070171MD1710071+0181MW1001OC101101OD141201101354REMSYN004BUFR
0150527870999992020020521004+37200+102870FM-12+304499999V0200801N0007199999999030000199-01121-02091102631ADDAA106999999AA224030091AJ199999999999999IA2999-02129KA1240M-00311KA2240N-01231MA1999999070061MD1710111+0191MW1001OC101001OD141201001001REMSYN004BUFR
0222527870999992020020600004+37200+102870FM-12+304499999V0201111N0018199999999030000199-01041-02231103021ADDAA106999999AA224030091AJ199999999999999AY101121AY201121GA1999+040001999GE19MSL   +99999+99999GF107991999999040001999999IA2999-02149KA1240M-00311KA2240N-01211MA1999999070081MD1210021+0181MW1001OD141200371119REMSYN004BUFR
0230527870999992020020603004+37200+102870FM-12+304499999V0201671N0018122000199030000199-00351-02281102631ADDAA106999999AA224030091AJ199999999999999AY101031AY201031GA1999+040001999GE19MSL   +99999+99999GF102991999999040001999999IA2999-02149KA1240M-00311KA2240N-01211MA1999999070101MD1210021+0111MW1001OC100561OD141200561256REMSYN004BUFR
0230527870999992020020606004+37200+102870FM-12+304499999V0201451N0070199999999030000199-00151-02291102201ADDAA106999999AA224020091AJ199999999999999AY101061AY201061GA1999+040001999GE19MSL   +99999+99999GF107991999999040001999999IA2999-02149KA1240M-00121KA2240N-01211MA1999999069911MD1710191+0011MW1001OC101101OD141201101153REMSYN004BUFR
0230527870999992020020609004+37200+102870FM-12+304499999V0203201N0090199999999030000199-00571-01881102541ADDAA106999999AA224020091AJ199999999999999AY101031AY201031GA1999+040001999GE19MSL   +99999+99999GF107991999999040001999999IA2999-02149KA1240M-00031KA2240N-01211MA1999999069941MD1210031+0001MW1001OC101181OD141201181321REMSYN004BUFR
0230527870999992020020612004+37200+102870FM-12+304499999V0203051N0056199999999030000199-01101-01941103131ADDAA106999999AA224020091AJ199999999999999AY101061AY201061GA1999+040001999GE19MSL   +99999+99999GF107991999999040001999999IA2999-02109KA1240M-00031KA2240N-01211MA1999999070131MD1210191-0031MW1001OC101181OD141201181321REMSYN004BUFR
0166527870999992020020618004+37200+102870FM-12+304499999V0203321N0024199999999030000199-01001-02171102551ADDAA106999999AA224020091AJ199999999999999AY101999AY201999IA2999-01799KA1240M-00031KA2240N-01221MA1999999070221MD1410001+0051MW1001OC101181OD141201181321REMSYN004BUFR
0150527870999992020020621004+37200+102870FM-12+304499999V0200101N0070199999999030000199-00791-02411102701ADDAA106999999AA224020091AJ199999999999999IA2999-01879KA1240M-00031KA2240N-01221MA1999999070221MD1410001+0161MW1001OC100961OD141200961324REMSYN004BUFR
0192527870999992020020700004+37200+102870FM-12+304499999V0203341N0053122000199030000199-01101-02421103481ADDAA106999999AA224020091AJ199999999999999AY101121AY201121GF100991999999999999999999IA2999-01879KA1240M-00031KA2240N-01221MA1999999070341MD1210121+0261MW1001OC101151OD141201151019REMSYN004BUFR
0230527870999992020020703004+37200+102870FM-12+304499999V0200051N0058122000199030000199-00491-02561103151ADDAA106999999AA224020091AJ199999999999999AY101031AY201031GA1999+040001999GE19MSL   +99999+99999GF103991999999040001999999IA2999-01879KA1240M-00031KA2240N-01251MA1999999070461MD1210121+0361MW1001OC101151OD141201151019REMSYN004BUFR
0230527870999992020020706004+37200+102870FM-12+304499999V0203411N0072199999999030000199-00321-02191102871ADDAA106999999AA224010091AJ199999999999999AY101061AY201061GA1999+040001999GE19MSL   +99999+99999GF105991999999040001999999IA2999-01879KA1240M-00031KA2240N-01251MA1999999070361MD1710101+0451MW1001OC101151OD141201151019REMSYN004BUFR
0230527870999992020020709004+37200+102870FM-12+304499999V0203541N0086199999999030000199-00701-02131103101ADDAA106999999AA224010091AJ199999999999999AY101031AY201031GA1999+018001999GE19MSL   +99999+99999GF107991999999018001999999IA2999-01759KA1240M-00271KA2240N-01251MA1999999070431MD1210071+0491MW1001OC101231OD141201231354REMSYN004BUFR
0230527870999992020020712004+37200+102870FM-12+304499999V0203311N0066199999999030000199-01101-02201103922ADDAA106999999AA224020091AJ199999999999999AY101061AY201061GA1999+018001999GE19MSL   +99999+99999GF107991999999018001999999IA2999-01759KA1240M-00271KA2240N-01251MA1999999070641MD1210211+0511MW1001OC101321OD141201321354REMSYN004BUFR
0166527870999992020020718004+37200+102870FM-12+304499999V0203191N0036199999999030000199-01321-02221103751ADDAA106999999AA224020091AJ199999999999999AY101999AY201999IA2999-01669KA1240M-00271KA2240N-01321MA1999999070801MD1210021+0581MW1001OC101321OD141201321354REMSYN004BUFR
0150527870999992020020721004+37200+102870FM-12+304499999V0203111N0038199999999030000199-01271-02181103941ADDAA106999999AA224020091AJ199999999999999IA2999-01759KA1240M-00271KA2240N-01361MA1999999070761MD1710041+0541MW1001OC101321OD141201321354REMSYN004BUFR
0230527870999992020020800004+37200+102870FM-12+304499999V0203181N0039199999999030000199-01301-02171104321ADDAA106999999AA224020091AJ199999999999999AY101121AY201121GA1999+018001999GE19MSL   +99999+99999GF107991999999018001999999IA2999-01809KA1240M-00271KA2240N-01361MA1999999070811MD1210051+0471MW1001OC100971OD141200971334REMSYN004BUFR
0230527870999992020020803004+37200+102870FM-12+304499999V0201641N0032199999999030000199-00621-02261103951ADDAA106999999AA224010091AJ199999999999999AY101031AY201031GA1999+040001999GE19MSL   +99999+99999GF107991999999040001999999IA2999-01809KA1240M-00271KA2240N-01361MA1999999070901MD1210091+0441MW1001OC100911OD141200911020REMSYN004BUFR
0230527870999992020020806004+37200+102870FM-12+304499999V0202191N0025122000199030000199-00321-01801103731ADDAA106999999AA224000091AJ199999999999999AY101061AY201061GA1999+009001999GE19MSL   +99999+99999GF102991999999009001999999IA2999-01809KA1240M-00251KA2240N-01361MA1999999070791MD1710111+0431MW1001OC100811OD141200811157REMSYN004BUFR
0230527870999992020020809004+37200+102870FM-12+304499999V0203581N0078199999999029700199-00501-02261103871ADDAA106999999AA224000091AJ199999999999999AY101031AY201031GA1999+009001999GE19MSL   +99999+99999GF106991999999009001999999IA2999-01809KA1240M-00251KA2240N-01361MA1999999070811MD1210021+0381MW1001OC101481OD141201481009REMSYN004BUFR
0230527870999992020020812004+37200+102870FM-12+304499999V0202971N0021199999999030000199-00991-02351104491ADDAA106999999AA224000091AJ199999999999999AY101061AY201061GA1999+009001999GE19MSL   +99999+99999GF106991999999009001999999IA2999-01689KA1240M-00251KA2240N-01361MA1999999070981MD1210171+0341MW1001OC101481OD141201481009REMSYN004BUFR
0166527870999992020020818004+37200+102870FM-12+304499999V0201491N0021199999999030000199-01051-01931103761ADDAA106999999AA224000091AJ199999999999999AY101999AY201999IA2999-01699KA1240M-00251KA2240N-01361MA1999999070941MD1710091+0141MW1001OC101481OD141201481009REMSYN004BUFR
0150527870999992020020821004+37200+102870FM-12+304499999V0201631N0019199999999030000199-01171-01751103801ADDAA106999999AA224000091AJ199999999999999IA2999-01919KA1240M-00251KA2240N-01341MA1999999070821MD1710121+0061MW1001OC101211OD141201211346REMSYN004BUFR
0192527870999992020020900004+37200+102870FM-12+304499999V0202491N0031122000199030000199-00971-01741103881ADDAA106999999AA224000091AJ199999999999999AY101121AY201121GF100991999999999999999999IA2999-01919KA1240M-00251KA2240N-01321MA1999999070731MD1710091-0081MW1001OC100611OD141200611244REMSYN004BUFR
0230527870999992020020903004+37200+102870FM-12+304499999V0202821N0049122000199030000199-00321-01881103431ADDAA106999999AA224000091AJ199999999999999AY101031AY201031GA1999+040001999GE19MSL   +99999+99999GF102991999999040001999999IA2999-01919KA1240M-00251KA2240N-01231MA1999999070691MD1710041-0211MW1001OC100761OD141200761292REMSYN004BUFR
0192527870999992020020906004+37200+102870FM-12+304499999V0201451N0053122000199030000199+00011-02211102781ADDAA106999999AA224000091AJ199999999999999AY101061AY201061GF100991999999999999999999IA2999-01919KA1240M+00081KA2240N-01231MA1999999070431MD1710261-0361MW1001OC100961OD141200961291REMSYN004BUFR
0230527870999992020020909004+37200+102870FM-12+304499999V0203601N0083199999999030000199-00201-02151102881ADDAA106999999AA224000091AJ199999999999999AY101031AY201031GA1999+010001999GE19MSL   +99999+99999GF107991999999010001999999IA2999-01859KA1240M+00131KA2240N-01231MA1999999070341MD1710091-0471MW1001OC101261OD141201261345REMSYN004BUFR
0230527870999992020020912004+37200+102870FM-12+304499999V0202211N0012199999999030000199-00771-02231103301ADDAA106999999AA224000091AJ199999999999999AY101061AY201061GA1999+040001999GE19MSL   +99999+99999GF107991999999040001999999IA2999-01629KA1240M+00131KA2240N-01231MA1999999070441MD1210101-0541MW1001OC101291OD141201291353REMSYN004BUFR
0166527870999992020020918004+37200+102870FM-12+304499999V0202331N0018199999999030000199-00671-02071102231ADDAA106999999AA224000091AJ199999999999999AY101999AY201999IA2999-01649KA1240M+00131KA2240N-01181MA1999999070241MD1710161-0701MW1001OC101291OD141201291353REMSYN004BUFR
0150527870999992020020921004+37200+102870FM-12+304499999V0201621N0022199999999030000199-00801-02191102261ADDAA106999999AA224000091AJ199999999999999IA2999-01729KA1240M+00131KA2240N-01161MA1999999070091MD1710151-0731MW1001OC101291OD141201291353REMSYN004BUFR
0192527870999992020021000004+37200+102870FM-12+304499999V0202181N0014122000199030000199-00771-02311102561ADDAA106999999AA224000091AJ199999999999999AY101121AY201121GF100991999999999999999999IA2999-01789KA1240M+00131KA2240N-00991MA1999999070041MD1710051-0691MW1001OC100741OD141200741197REMSYN004BUFR
0230527870999992020021003004+37200+102870FM-12+304499999V0202871N0073199999999030000199-00201-02331102251ADDAA106999999AA224000091AJ199999999999999AY101031AY201031GA1999+040001999GE19MSL   +99999+99999GF107991999999040001999999IA2999-01789KA1240M+00131KA2240N-00961MA1999999070031MD1710011-0661MW1001OC101121OD141201121283REMSYN004BUFR
0230527870999992020021006004+37200+102870FM-12+304499999V0203341N0058122000199030000199+00161-02311101581ADDAA106999999AA224000091AJ199999999999999AY101061AY201061GA1999+040001999GE19MSL   +99999+99999GF103991999999040001999999IA2999-01789KA1240M+00171KA2240N-00961MA1999999069861MD1710171-0571MW1001OC101241OD141201241299REMSYN004BUFR
0230527870999992020021009004+37200+102870FM-12+304499999V0203481N0099122000199030000199-00051-02141101881ADDAA106999999AA224000091AJ199999999999999AY101031AY201031GA1999+018001999GE19MSL   +99999+99999GF103991999999018001999999IA2999-01789KA1240M+00171KA2240N-00961MA1999999069901MD1210041-0441MW1001OC101361OD141201361354REMSYN004BUFR
0230527870999992020021012004+37200+102870FM-12+304499999V0200271N0061122000199030000199-00471-02221102401ADDAA106999999AA224000091AJ199999999999999AY101061AY201061GA1999+018001999GE19MSL   +99999+99999GF102991999999018001999999IA2999-01659KA1240M+00171KA2240N-00961MA1999999070081MD1210181-0361MW1001OC101361OD141201361354REMSYN004BUFR
0166527870999992020021018004+37200+102870FM-12+304499999V0201271N0021199999999030000199-00751-02291101921ADDAA106999999AA224000091AJ199999999999999AY101999AY201999IA2999-01669KA1240M+00171KA2240N-00911MA1999999070061MD1710051-0181MW1001OC101361OD141201361354REMSYN004BUFR
0150527870999992020021021004+37200+102870FM-12+304499999V0201301N0015199999999030000199-00671-02541101891ADDAA106999999AA224000091AJ199999999999999IA2999-01749KA1240M+00171KA2240N-00911MA1999999069971MD1710091-0121MW1001OC101341OD141201341350REMSYN004BUFR
0192527870999992020021100004+37200+102870FM-12+304499999V0203091N0012122000199030000199-00791-02651102241ADDAA106999999AA224000091AJ199999999999999AY101121AY201121GF100991999999999999999999IA2999-01929KA1240M+00171KA2240N-00881MA1999999069961MD1710011-0081MW1001OC100741OD141200741028REMSYN004BUFR
0192527870999992020021103004+37200+102870FM-12+304499999V0203221N0031122000199030000199-00101-02701102141ADDAA106999999AA224000091AJ199999999999999AY101031AY201031GF100991999999999999999999IA2999-01939KA1240M+00171KA2240N-00881MA1999999070051MD1210091+0021MW1001OC100631OD141200631251REMSYN004BUFR
0192527870999992020021106004+37200+102870FM-12+304499999V0203451N0041122000199029800199+00321-02941101671ADDAA106999999AA224000091AJ199999999999999AY101061AY201061GF100991999999999999999999IA2999-01939KA1240M+00331KA2240N-00881MA1999999069961MD1710091+0101MW1001OC100821OD141200821355REMSYN004BUFR
0192527870999992020021109004+37200+102870FM-12+304499999V0203531N0092122000199030000199+00211-03031101731ADDAA106999999AA224000091AJ199999999999999AY101031AY201031GF100991999999999999999999IA2999-01939KA1240M+00381KA2240N-00881MA1999999069991MD1210031+0091MW1001OC101281OD141201281349REMSYN004BUFR
0192527870999992020021112004+37200+102870FM-12+304499999V0200291N0060122000199030000199-00251-03111102371ADDAA106999999AA224000091AJ199999999999999AY101061AY201061GF100991999999999999999999IA2999-01939KA1240M+00381KA2240N-00881MA1999999070151MD1210161+0071MW1001OC101281OD141201281349REMSYN004BUFR
0166527870999992020021118004+37200+102870FM-12+304499999V0201431N0035199999999030000199-00471-02911101601ADDAA106999999AA224000091AJ199999999999999AY101999AY201999IA2999-01299KA1240M+00381KA2240N-00851MA1999999070041MD1710081-0021MW1001OC101281OD141201281349REMSYN004BUFR
0150527870999992020021121004+37200+102870FM-12+304499999V0200101N0055199999999030000199-00301-02691101431ADDAA106999999AA224000091AJ199999999999999IA2999-01429KA1240M+00381KA2240N-00851MA1999999069951MD1710091-0021MW1001OC101231OD141201231346REMSYN004BUFR
0192527870999992020021200004+37200+102870FM-12+304499999V0203241N0021122000199030000199-00471-02671101871ADDAA106999999AA224000091AJ199999999999999AY101121AY201121GF100991999999999999999999IA2999-01539KA1240M+00381KA2240N-00791MA1999999069961MD1210011+0001MW1001OC100771OD141200771125REMSYN004BUFR
0192527870999992020021203004+37200+102870FM-12+304499999V0202801N0050122000199030000199+00201-02451101591ADDAA106999999AA224000091AJ199999999999999AY101031AY201031GF100991999999999999999999IA2999-01539KA1240M+00381KA2240N-00781MA1999999069991MD1210031-0061MW1001OC100771OD141200771125REMSYN004BUFR
0192527870999992020021206004+37200+102870FM-12+304499999V0201311N0043122000199029500199+00511-02801101211ADDAA106999999AA224000091AJ199999999999999AY101061AY201061GF100991999999999999999999IA2999-01539KA1240M+00631KA2240N-00781MA1999999069861MD1710131-0101MW1001OC100791OD141200791147REMSYN004BUFR
0192527870999992020021209004+37200+102870FM-12+304499999V0203391N0062122000199029400199+00501-02971101051ADDAA106999999AA224000091AJ199999999999999AY101031AY201031GF100991999999999999999999IA2999-01539KA1240M+00741KA2240N-00781MA1999999069821MD1710041-0171MW1001OC101081OD141201081001REMSYN004BUFR
0192527870999992020021212004+37200+102870FM-12+304499999V0200941N0027122000199030000199-00091-03111101611ADDAA106999999AA224000091AJ199999999999999AY101061AY201061GF100991999999999999999999IA2999-01529KA1240M+00741KA2240N-00781MA1999999069861MD1210041-0291MW1001OC101081OD141201081001REMSYN004BUFR
0166527870999992020021218004+37200+102870FM-12+304499999V0201581N0041199999999030000199-00101-02601100711ADDAA106999999AA224000091AJ199999999999999AY101999AY201999IA2999-01119KA1240M+00741KA2240N-00541MA1999999069691MD1710161-0351MW1001OC101131OD141201131146REMSYN004BUFR
0150527870999992020021221004+37200+102870FM-12+304499999V0203101N0034199999999030000199-00941-02541101151ADDAA106999999AA224000091AJ199999999999999IA2999-01419KA1240M+00741KA2240N-00941MA1999999069601MD1710091-0351MW1001OC101131OD141201131146REMSYN004BUFR
0192527870999992020021300004+37200+102870FM-12+304499999V0203141N0065122000199030000199-00971-02521101551ADDAA106999999AA224000091AJ199999999999999AY101121AY201121GF100991999999999999999999IA2999-01459KA1240M+00741KA2240N-00991MA1999999069581MD1710021-0381MW1001OC101131OD141201131146REMSYN004BUFR
0192527870999992020021303004+37200+102870FM-12+304499999V0203201N0111122000199030000199-00671-02111101561ADDAA106999999AA224000091AJ199999999999999AY101031AY201031GF100991999999999999999999IA2999-01459KA1240M+00741KA2240N-01011MA1999999069671MD1210091-0321MW1001OC101661OD141201661324REMSYN004BUFR
0230527870999992020021306004+37200+102870FM-12+304499999V0203591N0122199999999030000199-00651-01661101311ADDAA106999999AA224000091AJ199999999999999AY101061AY201061GA1999+018001999GE19MSL   +99999+99999GF107991999999018001999999IA2999-01459KA1240M+00741KA2240N-01011MA1999999069561MD1710111-0301MW1001OC101871OD141201871353REMSYN004BUFR
0230527870999992020021309004+37200+102870FM-12+304499999V0203551N0104199999999030000199-01101-01731102451ADDAA106000131AA224000131AJ100003100000099AY171031AY201031GA1999+018001999GE19MSL   +99999+99999GF108991999999018001999999IA2999-01459KA1240M+00521KA2240N-01301MA1999999069721MD1210161-0101MW1001OC102421OD141202421357REMSYN004BUFR
0230527870999992020021312004+37200+102870FM-12+304499999V0200101N0114199999999030000199-01201-01581102801ADDAA106000631AA224000631AJ100003100001099AY171061AY201061GA1999+018001999GE19MSL   +99999+99999GF108991999999018001999999IA2999-01459KA1240M-00081KA2240N-01301MA1999999069891MD1210171+0031MW1701OC102421OD141202421357REMSYN004BUFR
0166527870999992020021318004+37200+102870FM-12+304499999V0203111N0053199999999030000199-01721-01961102921ADDAA106000131AA224000731AJ100003100001099AY101999AY201999IA2999-01479KA1240M-00131KA2240N-01731MA1999999069871MD1710031+0181MW1001OC102421OD141202421357REMSYN004BUFR
0150527870999992020021321004+37200+102870FM-12+304499999V0203181N0098199999999030000199-02031-02421103381ADDAA106999999AA224000731AJ100003100001099IA2999-01859KA1240M-00511KA2240N-02031MA1999999069801MD1710071+0201MW1221OC101611OD141201611322REMSYN004BUFR
0166527870999992020021400004+37200+102870FM-12+304499999V0200141N0096199999999030000199-01841-02281103481ADDAA106999999AA224000731AJ100003100000099AY101121AY201121IA2999-01979KA1240M-00511KA2240N-02121MA1999999069901MD1210101+0321MW1701OC101611OD141201611322REMSYN004BUFR
0230527870999992020021403004+37200+102870FM-12+304499999V0203551N0075199999999030000199-01821-02321104031ADDAA106999999AA224000731AJ100009100000099AY171031AY201031GA1999+040001999GE19MSL   +99999+99999GF107991999999040001999999IA2999-01979KA1240M-00511KA2240N-02121MA1999999070051MD1210151+0381MW1221OC101471OD141201471012REMSYN004BUFR
0230527870999992020021406004+37200+102870FM-12+304499999V0200021N0089199999999030000199-01781-02201104121ADDAA106000131AA224000831AJ100003100000099AY171061AY201061GA1999+040001999GE19MSL   +99999+99999GF106991999999040001999999IA2999-01979KA1240M-00671KA2240N-02121MA1999999070101MD1210051+0541MW1701OC101651OD141201651351REMSYN004BUFR
0230527870999992020021409004+37200+102870FM-12+304499999V0203521N0133199999999030000199-01991-02311104741ADDAA106000131AA224000731AJ100003100000099AY171031AY201031GA1999+018001999GE19MSL   +99999+99999GF107991999999018001999999IA2999-01979KA1240M-01071KA2240N-02121MA1999999070241MD1210141+0521MW1701OC101821OD141201821357REMSYN004BUFR
0230527870999992020021412004+37200+102870FM-12+304499999V0203491N0101199999999030000199-02151-02501105121ADDAA106999999AA224000231AJ100003100000099AY171061AY201061GA1999+018001999GE19MSL   +99999+99999GF108991999999018001999999IA2999-02009KA1240M-01181KA2240N-02161MA1999999070501MD1210261+0611MW1701OC101911OD141201911355REMSYN004BUFR
0166527870999992020021418004+37200+102870FM-12+304499999V0201361N0009199999999030000199-02301-02601105271ADDAA106999999AA224000131AJ100009100000099AY101999AY201999IA2999-02369KA1240M-01711KA2240N-02501MA1999999070561MD1710051+0691MW1221OC101911OD141201911355REMSYN004BUFR
0150527870999992020021421004+37200+102870FM-12+304499999V0203011N0031199999999030000199-02221-02741105231ADDAA106999999AA224000131AJ100009100000099IA2999-02509KA1240M-01741KA2240N-02501MA1999999070471MD1710091+0671MW1001OC101911OD141201911355REMSYN004BUFR
0192527870999992020021500004+37200+102870FM-12+304499999V0203101N0063122000199030000199-02191-02881105421ADDAA106999999AA224000131AJ100009100000099AY171121AY201121GF100991999999999999999999IA2999-02509KA1240M-01741KA2240N-02501MA1999999070511MD1210041+0611MW1001OC101541OD141201541354REMSYN004BUFR
0192527870999992020021503004+37200+102870FM-12+304499999V0203231N0075122000199030000199-01621-02651105211ADDAA106999999AA224000131AJ100009100000099AY101031AY201031GF100991999999999999999999IA2999-02509KA1240M-01611KA2240N-02501MA1999999070631MD1210121+0581MW1001OC101071OD141201071350REMSYN004BUFR
0192527870999992020021506004+37200+102870FM-12+304499999V0203551N0102122000199030000199-01121-02621104681ADDAA106999999AA224000091AJ199999999999999AY101061AY201061GF100991999999999999999999IA2999-02509KA1240M-01111KA2240N-02501MA1999999070511MD1710121+0411MW1001OC101471OD141201471356REMSYN004BUFR
0192527870999992020021509004+37200+102870FM-12+304499999V0200091N0096122000199030000199-01001-02341104451ADDAA106999999AA224000091AJ199999999999999AY101031AY201031GF100991999999999999999999IA2999-02499KA1240M-00981KA2240N-02501MA1999999070471MD1710041+0231MW1001OC101541OD141201541355REMSYN004BUFR
0192527870999992020021512004+37200+102870FM-12+304499999V0203091N0052122000199030000199-01791-02631999999ADDAA106999999AA224000091AJ199999999999999AY101061AY201061GF100991999999999999999999IA2999-02469KA1240M-00981KA2240N-02501MA1999999070631MD1210161+0131MW1001OC101541OD141201541355REMSYN004BUFR
0166527870999992020021518004+37200+102870FM-12+304499999V0203391N0017199999999030000199-01421-02641103961ADDAA106999999AA224000091AJ199999999999999AY101999AY201999IA2999-02369KA1240M-00981KA2240N-02311MA1999999070491MD1710121-0071MW1001OC101541OD141201541355REMSYN004BUFR
0150527870999992020021521004+37200+102870FM-12+304499999V0201391N0014199999999030000199-01371-03041103641ADDAA106999999AA224000091AJ199999999999999IA2999-02369KA1240M-00981KA2240N-02291MA1999999070361MD1710131-0111MW1001OC101281OD141201281359REMSYN004BUFR
0158527870999992020021600004+37200+102870FM-12+304499999V0201181N0006199999999030000199-01301-03301104241ADDAA106999999AA224000091AJ199999999999999AY101121AY201121IA2999-02409KA1240M-00981KA2240N-02231MA1999999070401MD1210041-0111MW1001OD141200491312REMSYN004BUFR
0230527870999992020021603004+37200+102870FM-12+304499999V0203441N0056199999999030000199-00771-02281103781ADDAA106999999AA224000091AJ199999999999999AY101031AY201031GA1999+040001999GE19MSL   +99999+99999GF105991999999040001999999IA2999-02409KA1240M-00781KA2240N-01821MA1999999070471MD1210071-0161MW1001OC100801OD141200801339REMSYN004BUFR
0230527870999992020021606004+37200+102870FM-12+304499999V0200101N0063199999999030000199-00541-01811103421ADDAA106999999AA224000091AJ199999999999999AY101061AY201061GA1999+018001999GE19MSL   +99999+99999GF107991999999018001999999IA2999-02409KA1240M-00471KA2240N-01821MA1999999070421MD1710051-0091MW1001OC101131OD141201131350REMSYN004BUFR
0230527870999992020021609004+37200+102870FM-12+304499999V0203531N0062199999999030000199-00621-01861103601ADDAA106999999AA224000091AJ199999999999999AY101031AY201031GA1999+018001999GE19MSL   +99999+99999GF107991999999018001999999IA2999-02409KA1240M-00471KA2240N-01821MA1999999070521MD1210101+0051MW1001OC101231OD141201231359REMSYN004BUFR
0230527870999992020021612004+37200+102870FM-12+304499999V0203091N0019199999999030000199-01301-02281104331ADDAA106999999AA224000091AJ199999999999999AY101061AY201061GA1999+018001999GE19MSL   +99999+99999GF107991999999018001999999IA2999-02279KA1240M-00471KA2240N-01821MA1999999070711MD1210191+0081MW1001OC101231OD141201231359REMSYN004BUFR
0166527870999992020021618004+37200+102870FM-12+304499999V0201561N0015199999999030000199-01221-02021103771ADDAA106999999AA224000091AJ199999999999999AY101999AY201999IA2999-01859KA1240M-00471KA2240N-01471MA1999999070751MD1710051+0261MW1001OC101231OD141201231359REMSYN004BUFR
0150527870999992020021621004+37200+102870FM-12+304499999V0201441N0029199999999030000199-01321-02121103741ADDAA106999999AA224000091AJ199999999999999IA2999-01899KA1240M-00471KA2240N-01441MA1999999070641MD1710111+0281MW1001OC101081OD141201081338REMSYN004BUFR
0222527870999992020021700004+37200+102870FM-12+304499999V0201491N0028122000199030000199-01221-02121104241ADDAA106999999AA224000091AJ199999999999999AY101121AY201121GA1999+040001999GE19MSL   +99999+99999GF104991999999040001999999IA2999-01899KA1240M-00471KA2240N-01361MA1999999070691MD1210051+0291MW1001OD141200451191REMSYN004BUFR
0184527870999992020021703004+37200+102870FM-12+304499999V0201511N0016122000199030000199-00321-02091103541ADDAA106999999AA224000091AJ199999999999999AY101031AY201031GF100991999999999999999999IA2999-01899KA1240M-00321KA2240N-01361MA1999999070691MD1410001+0221MW1001OD141200451136REMSYN004BUFR
0192527870999992020021706004+37200+102870FM-12+304499999V0203221N0058122000199029900199-00251-01601103201ADDAA106999999AA224000091AJ199999999999999AY101061AY201061GF100991999999999999999999IA2999-01899KA1240M-00231KA2240N-01361MA1999999070501MD1710191+0081MW1001OC100891OD141200891335REMSYN004BUFR
