0280583380999992020010100004+31150+118583FM-12+001699999V0201101N004019999999N008000199+00011-00151103281ADDAA106000091AA212000091AA324000091AY101021AY201021GF107991999999999999999999KA1120M+00351KA2120N-00251MA1999999102751MD1210071+9999MW1001OD139900601999REMSYN11858338 04958 71104 10001 21015 30275 40328 52007 60002 70000 333 10035 21025 3/101 54405 59090 60001 70000 90720 91106=
0160583380999992020010103004+31120+118580FM-12+001899999V0200911N0034199999999012700199+00311-00071103291ADDAA106999999AA212999999AA324999999AY101031AY201031IA2999-00099KA1240M+00351KA2240N-00251MA1999999102761MD1210011-0861MW1001OC100611OD141200611059REMSYN004BUFR
0318583380999992020010106004+31150+118583FM-12+001699999V0200701N003019999999N017000199+00711-00131102981ADDAA106000091AA212000091AA324000091AY101021AY201021GA1999+012501999GE19MSL   +99999+99999GF108991999999012501999999KA1240M+00721KA2240N-00251MA1999999102461MD1710301+9999MW1001OD139900601999REMSYN11858338 04667 80703 10071 21013 30246 40298 57030 60002 70000 333 10072 21025 3/101 54405 59081 60001 70000 90720 91106=
0224583380999992020010109004+31120+118580FM-12+001899999V0200621N0026199999999015100199+00711+00031102871ADDAA106999999AA212999999AA324999999AY101031AY201031GA1999+008001999GE19MSL   +99999+99999GF108991999999008001999999IA2999-00099KA1240M+00761KA2240N-00251MA1999999102351MD1710111-0771MW1001OC100631OD141200631090REMSYN004BUFR
0401583380999992020010112004+31150+118583FM-12+001699999V0200701N005019999999N011000199+00611+00241102871ADDAA106999999AA212999999AA324999999AY101021AY201021GE19MSL   +99999+99999GF108991999999999999999999KA1240M+00761KA2240N-00251MA1999999102351MD1410001+9999MW1601OD139900701999REMSYN11858338 04961 80705 10061 20024 30235 40287 54000 69902 76000 333 10076 21025 3/100 54406 59072 69901 79999 90720 91107=EQDQ01  00002PRCP12Q02  00002PRCP06Q03  00002PRCP24Q04  00002PRCP06Q05  00002PRCP12Q06  00002PRCP24
0254583380999992020010118004+31150+118583FM-12+001699999V0200901N001019999999N002900199+00531+00461102801ADDAA106000931AA212000931AA324000931AY101021AY201021KA1120M+00761KA2120N-00251MA1999999102291MD1710011+9999MW1601OD139900701999REMSYN11858338 04929 /0901 10053 20046 30229 40280 57001 69992 76000 333 10076 21025 3/005 54407 59049 69991 70009 90720 91107=
0144583380999992020010121004+31120+118580FM-12+001899999V0200851N0010199999999002100199+00551+00491102761ADDAA106001631AA212001631AA324001631IA2999+00509KA1240M+00761KA2240N-00241MA1999999102251MD1710041-0431MW1211OC100701OD141200701056REMSYN004BUFR
0318583380999992020010200004+31150+118583FM-12+001699999V0203401N001019999999N001200199+00571+00541102971ADDAA106001031AA212002032AA324001932AY161021AY201021GA1999+002501999GE19MSL   +99999+99999GF108991999999002501999999KA1120M+00761KA2120N+00011MA1999999102451MD1210201+9999MW1601OD139900701999REMSYN11858338 04312 83401 10057 20054 30245 40297 52020 60022 76060 333 10076 20001 3/005 54406 59030 60011 70019 90720 91107=
0216583380999992020010203004+31120+118580FM-12+001899999V0203571N0007199999999002000199+00651+00611103041ADDAA106000431AA212002031AA324002031AY161031AY201031GA1999+004001999GE19MSL   +99999+99999GF108991999999004001999999IA2999+00529KA1240M+00761KA2240N+00311MA1999999102521MD1210071-0241MW1101OD141200401037REMSYN004BUFR
0254583380999992020010206004+31150+118583FM-12+001699999V0203001N001019999999N003200199+00711+00601102861ADDAA106000131AA212001031AA324002031AY101021AY201021KA1240M+00761KA2240N+00521MA1999999102351MD1710171+9999MW1101OD139900301999REMSYN11858338 04932 /3001 10071 20060 30235 40286 57017 60012 71000 333 10076 20052 3/006 544// 59011 69911 70020 90720 91103=
0216583380999992020010209004+31120+118580FM-12+001899999V0202751N0004199999999004700199+00771+00581102881ADDAA106999999AA212000431AA324002031AY101031AY201031GA1999+010001999GE19MSL   +99999+99999GF108991999999010001999999IA2999+00579KA1240M+00781KA2240N+00521MA1999999102371MD1210021+0021MW1101OD141200261298REMSYN004BUFR
0318583380999992020010212004+31150+118583FM-12+001699999V0202101N001019999999N002500199+00721+00631102931ADDAA106000091AA212000131AA324002031AY101021AY201021GA1999+012501999GE19MSL   +99999+99999GF108991999999012501999999KA1240M+00781KA2240N+00521MA1999999102421MD1210051+9999MW1101OD139900301999REMSYN11858338 04625 82101 10072 20063 30242 40293 52005 69912 71000 333 10078 20052 3/006 54405 58007 60001 70020 90720 91103=
0254583380999992020010218004+31150+118583FM-12+001699999V0203301N001019999999N002000199+00681+00641102811ADDAA106000091AA212000091AA324001131AY101021AY201021KA1120M+00781KA2120N+00531MA1999999102301MD1710091+9999MW1101OD139900201999REMSYN11858338 04920 /3301 10068 20064 30230 40281 57009 60002 71000 333 10078 20053 3/007 54405 58001 60001 70011 90720 91102=
0136583380999992020010221004+31120+118580FM-12+001899999V0203511N0013199999999001800199+00701+00631102781ADDAA106999999AA212999999AA324000431IA2999+00699KA1240M+00781KA2240N+00551MA1999999102271MD1710031+0021MW1601OD141200271028REMSYN004BUFR
0318583380999992020010300004+31150+118583FM-12+001699999V0209999C999999999999N000800199+00701+00671102881ADDAA106000231AA212000231AA324000331AY161021AY201021GA1999+004501999GE19MSL   +99999+99999GF108991999999004501999999KA1120M+00781KA2120N+00571MA1999999102371MD1210101+9999MW1601OD139900301999REMSYN11858338 04408 80000 10070 20067 30237 40288 52010 69922 76060 333 10078 20057 3/007 54405 59008 69921 70003 90720 91103=
0216583380999992020010303004+31120+118580FM-12+001899999V0203001N0016199999999001300199+00751+00731102921ADDAA106000631AA212000631AA324000631AY161031AY201031GA1999+004001999GE19MSL   +99999+99999GF108991999999004001999999IA2999+00699KA1240M+00781KA2240N+00631MA1999999102411MD1210041-0111MW1101OD141200291059REMSYN004BUFR
0254583380999992020010306004+31150+118583FM-12+001699999V0200601N001019999999N002200199+00781+00751102651ADDAA106001031AA212001031AA324001231AY101021AY201021KA1240M+00791KA2240N+00681MA1999999102141MD1710271+9999MW1601OD139900301999REMSYN11858338 04922 /0601 10078 20075 30214 40265 57027 60012 76000 333 10079 20068 3/007 54405 59021 60011 70012 90720 91103=
0216583380999992020010309004+31120+118580FM-12+001899999V0200121N0011199999999003600199+00801+00761102741ADDAA106001031AA212001631AA324001631AY161031AY201031GA1999+004001999GE19MSL   +99999+99999GF108991999999004001999999IA2999+00699KA1240M+00801KA2240N+00681MA1999999102231MD1210091-0141MW1601OD141200291059REMSYN004BUFR
0318583380999992020010312004+31150+118583FM-12+001699999V0200501N001019999999N002200199+00791+00781102791ADDAA106000531AA212002032AA324001732AY161021AY201021GA1999+004501999GE19MSL   +99999+99999GF108991999999004501999999KA1240M+00801KA2240N+00681MA1999999102281MD1210051+9999MW1101OD139900301999REMSYN11858338 04422 80501 10079 20078 30228 40279 52005 60022 71060 333 10080 20068 3/007 54405 59014 69951 70017 90720 91103=
0254583380999992020010318004+31150+118583FM-12+001699999V0200401N002019999999N002200199+00811+00801102641ADDAA106001031AA212002031AA324002731AY101021AY201021KA1120M+00811KA2120N+00681MA1999999102131MD1710071+9999MW1601OD139900301999REMSYN11858338 04922 /0402 10081 20080 30213 40264 57007 60022 76000 333 10081 20068 3/008 54405 59017 60011 70027 90720 91103=
0136583380999992020010321004+31120+118580FM-12+001899999V0200561N0020199999999002900199+00801+00791102571ADDAA106002031AA212002131AA324003731IA2999+00809KA1240M+00811KA2240N+00691MA1999999102061MD1710071-0211MW1601OD141200391053REMSYN004BUFR
0318583380999992020010400004+31150+118583FM-12+001699999V0200701N003019999999N002200199+00781+00771102651ADDAA106002031AA212003031AA324004131AY161021AY201021GA1999+004501999GE19MSL   +99999+99999GF108991999999004501999999KA1120M+00811KA2120N+00701MA1999999102141MD1210081+9999MW1601OD139900401999REMSYN11858338 04422 80703 10078 20077 30214 40265 52008 60032 76060 333 10081 20070 3/008 54405 59023 60021 70041 90720 91104=
0216583380999992020010403004+31120+118580FM-12+001899999V0200691N0022199999999002400199+00811+00801102771ADDAA106000631AA212002631AA324003731AY101031AY201031GA1999+025001999GE19MSL   +99999+99999GF108991999999025001999999IA2999+00799KA1240M+00811KA2240N+00731MA1999999102261MD1210121-0151MW1101OD141200491053REMSYN004BUFR
0254583380999992020010406004+31150+118583FM-12+001699999V0200601N003019999999N002100199+00821+00791102531ADDAA106000091AA212002031AA324003131AY101021AY201021KA1240M+00841KA2240N+00761MA1999999102021MD1710241+9999MW1101OD139900501999REMSYN11858338 04921 /0603 10082 20079 30202 40253 57024 60022 71000 333 10084 20076 3/008 544// 59012 60001 70031 90720 91105=
0224583380999992020010409004+31120+118580FM-12+001899999V0200561N0031199999999002300199+00851+00801102601ADDAA106999999AA212000631AA324002731AY101031AY201031GA1999+008001999GE19MSL   +99999+99999GF108991999999008001999999IA2999+00799KA1240M+00851KA2240N+00761MA1999999102091MD1210071-0141MW1101OC100591OD141200591056REMSYN004BUFR
0254583380999992020010412004+31150+118583FM-12+001699999V0200601N003019999999N001600199+00811+00771102691ADDAA106000091AA212000091AA324002731AY101021AY201021KA1240M+00851KA2240N+00761MA1999999102181MD1210091+9999MW1101OD139900801999REMSYN11858338 04916 /0603 10081 20077 30218 40269 52009 60002 71000 333 10085 20076 3/008 544// 59010 60001 70027 90720 91108=
0254583380999992020010418004+31150+118583FM-12+001699999V0201001N006019999999N002600199+00871+00761102441ADDAA106000091AA212000091AA324001631AY101021AY201021KA1120M+00871KA2120N+00761MA1999999101931MD1710151+9999MW1101OD139900901999REMSYN11858338 04926 /1006 10087 20076 30193 40244 57015 60002 71000 333 10087 20076 3/008 54405 59020 60001 70016 90720 91109=
0144583380999992020010421004+31120+118580FM-12+001899999V0200981N0058199999999004400199+00901+00711102371ADDAA106999999AA212999999AA324000631IA2999+00809KA1240M+00901KA2240N+00761MA1999999101861MD1710071-0201MW1101OC100951OD141200951087REMSYN004BUFR
0318583380999992020010500004+31150+118583FM-12+001699999V0201001N006019999999N003800199+00931+00771102401ADDAA106000091AA212000091AA324000091AY161021AY201021GA1999+004501999GE19MSL   +99999+99999GF108991999999004501999999KA1120M+00931KA2120N+00761MA1999999101891MD1210031+9999MW1101OD139901001999REMSYN11858338 04438 81006 10093 20077 30189 40240 52003 60002 71060 333 10093 20076 3/008 54405 59025 60001 70000 90720 91110=
0160583380999992020010503004+31120+118580FM-12+001899999V0200991N0059199999999005100199+01101+00901102361ADDAA106999999AA212999999AA324999999AY101031AY201031IA2999+00809KA1240M+01111KA2240N+00801MA1999999101851MD1710041-0411MW1101OC101151OD141201151107REMSYN004BUFR
0254583380999992020010506004+31150+118583FM-12+001699999V0201101N007019999999N005000199+01171+00961102011ADDAA106000091AA212000091AA324000091AY101021AY201021KA1240M+01171KA2240N+00801MA1999999101511MD1710341+9999MW1101OD139901201999REMSYN11858338 04950 /1107 10117 20096 30151 40201 57034 60002 71000 333 10117 20080 3/008 54405 59051 60001 70000 90720 91112=
0160583380999992020010509004+31120+118580FM-12+001899999V0200871N0044199999999007900199+01221+01001102051ADDAA106999999AA212999999AA324999999AY101031AY201031IA2999+00819KA1240M+01261KA2240N+00801MA1999999101551MD1210041-0541MW1001OC101151OD141201151107REMSYN004BUFR
0318583380999992020010512004+31150+118583FM-12+001699999V0201101N004019999999N005000199+01211+01031102021ADDAA106000091AA212000091AA324000091AY101021AY201021GA1999+008001999GE19MSL   +99999+99999GF108991999999008001999999KA1240M+01261KA2240N+00811MA1999999101521MD1710031+9999MW1101OD139901201999REMSYN11858338 04550 81104 10121 20103 30152 40202 57003 60002 71000 333 10126 20081 3/009 54405 59066 60001 70000 90720 91112=
0160583380999992020010518004+31120+118580FM-12+001899999V0203001N0017199999999004200199+01151+01061102011ADDAA106999999AA212999999AA324999999AY101999AY201999IA2999+01049KA1240M+01261KA2240N+00871MA1999999101511MD1210011-0421MW1101OC100951OD141200951110REMSYN004BUFR
0144583380999992020010521004+31120+118580FM-12+001899999V0202341N0012199999999002700199+01071+01021101951ADDAA106999999AA212999999AA324999999IA2999+01029KA1240M+01261KA2240N+00901MA1999999101451MD1710061-0411MW1101OC100821OD141200821118REMSYN004BUFR
0318583380999992020010600004+31150+118583FM-12+001699999V0202901N002019999999N002500199+01061+01001102111ADDAA106000091AA212000091AA324000091AY101021AY201021GA1999+004501999GE19MSL   +99999+99999GF108991999999004501999999KA1120M+01261KA2120N+00931MA1999999101611MD1210161+9999MW1101OD139900701999REMSYN11858338 04425 82902 10106 20100 30161 40211 52016 60002 71000 333 10126 20093 3/010 54405 59028 60001 70000 90720 91107=
0224583380999992020010603004+31120+118580FM-12+001899999V0203171N0019199999999002700199+01201+01041102121ADDAA106999999AA212999999AA324999999AY101031AY201031GA1999+008001999GE19MSL   +99999+99999GF108991999999008001999999IA2999+01029KA1240M+01261KA2240N+01061MA1999999101621MD1210011-0231MW1101OC100601OD141200601290REMSYN004BUFR
0318583380999992020010606004+31150+118583FM-12+001699999V0203001N002019999999N002600199+01151+01011101851ADDAA106000091AA212000091AA324000091AY101021AY201021GA1999+012501999GE19MSL   +99999+99999GF108991999999012501999999KA1240M+01261KA2240N+01061MA1999999101351MD1710271+9999MW1101OD139900601999REMSYN11858338 04626 83002 10115 20101 30135 40185 57027 60002 71000 333 10126 20106 3/010 544// 59016 60001 70000 90720 91106=
0224583380999992020010609004+31120+118580FM-12+001899999V0201201N0007199999999003100199+01121+00981101731ADDAA106999999AA212999999AA324999999AY101031AY201031GA1999+010001999GE19MSL   +99999+99999GF108991999999010001999999IA2999+01029KA1240M+01241KA2240N+01061MA1999999101231MD1710121-0321MW1101OC100601OD141200601290REMSYN004BUFR
0318583380999992020010612004+31150+118583FM-12+001699999V0203001N001019999999N003800199+01061+00971101761ADDAA106000091AA212000091AA324000091AY101021AY201021GA1999+012501999GE19MSL   +99999+99999GF108991999999012501999999KA1240M+01231KA2240N+01041MA1999999101261MD1210031+9999MW1101OD139900501999REMSYN11858338 04638 83001 10106 20097 30126 40176 52003 60002 71000 333 10123 20104 3/010 54415 59026 60001 70000 90720 91105=
0254583380999992020010618004+31150+118583FM-12+001699999V0203201N003019999999N000900199+00871+00861101531ADDAA106000091AA212000091AA324000091AY101021AY201021KA1120M+01221KA2120N+00871MA1999999101031MD1710131+9999MW1281OD139900601999REMSYN11858338 04909 /3203 10087 20086 30103 40153 57013 60002 72800 333 10122 20087 3/009 54415 59048 60001 70000 90720 91106=
0144583380999992020010621004+31120+118580FM-12+001899999V0203441N0020199999999004900199+00751+00731101381ADDAA106999999AA212999999AA324999999IA2999+00849KA1240M+01221KA2240N+00741MA1999999100881MD1710151-0571MW1101OC100701OD141200701329REMSYN004BUFR
0318583380999992020010700004+31150+118583FM-12+001699999V0202801N003019999999N008000199+00531+00501101591ADDAA106000131AA212000131AA324000131AY161021AY201021GA1999+008001999GE19MSL   +99999+99999GF108991999999008001999999KA1120M+01221KA2120N+00511MA1999999101081MD1210201+9999MW1211OD139901301999REMSYN11858338 04558 82803 10053 20050 30108 40159 52020 69912 72160 333 10122 20051 3/007 54415 59053 69911 70001 90720 91113=
0224583380999992020010703004+31120+118580FM-12+001899999V0202801N0035199999999009200199+00571+00541101721ADDAA106005331AA212005331AA324005331AY161031AY201031GA1999+002001999GE19MSL   +99999+99999GF108991999999002001999999IA2999+00669KA1240M+01221KA2240N+00511MA1999999101211MD1210131-0411MW1601OC101261OD141201261290REMSYN004BUFR
0254583380999992020010706004+31150+118583FM-12+001699999V0202701N007019999999N026000199+00501+00371101861ADDAA106007031AA212007032AA324006932AY101021AY201021KA1240M+01151KA2240N+00471MA1999999101351MD1210141+9999MW1001OD139901301999REMSYN11858338 04976 /2707 10050 20037 30135 40186 52014 60072 70000 333 10115 20047 3/006 54417 58000 60071 70069 90720 91113=
0224583380999992020010709004+31120+118580FM-12+001899999V0202891N0056199999999030000199+00471+00271102201ADDAA106001531AA212006831AA324006831AY101031AY201031GA1999+003001999GE19MSL   +99999+99999GF108991999999003001999999IA2999+00499KA1240M+01121KA2240N+00471MA1999999101691MD1210341+0461MW1001OC101411OD141201411304REMSYN004BUFR
0318583380999992020010712004+31150+118583FM-12+001699999V0202901N006019999999N013000199+00401+00121102471ADDAA106000091AA212007032AA324006832AY101021AY201021GA1999+004501999GE19MSL   +99999+99999GF108991999999004501999999KA1240M+01051KA2240N+00401MA1999999101951MD1210261+9999MW1001OD139901401999REMSYN11858338 04463 82906 10040 20012 30195 40247 52026 60072 70000 333 10105 20040 3/003 54417 58069 60001 70068 90720 91114=
0254583380999992020010718004+31150+118583FM-12+001699999V0202901N005019999999N013000199+00371+00111102841ADDAA106000091AA212000091AA324006831AY101021AY201021KA1120M+00871KA2120N+00361MA1999999102321MD1210141+9999MW1001OD139901401999REMSYN11858338 04963 /2905 10037 20011 30232 40284 52014 60002 70000 333 10087 20036 3/002 54415 58129 60001 70068 90720 91114=
0144583380999992020010721004+31120+118580FM-12+001899999V0202851N0034199999999009200199+00371+00141102941ADDAA106999999AA212999999AA324006831IA2999+00229KA1240M+00741KA2240N+00361MA1999999102421MD1210101+1541MW1001OC101361OD141201361298REMSYN004BUFR
0318583380999992020010800004+31150+118583FM-12+001699999V0203001N002019999999N008000199+00371+00071103001ADDAA106000091AA212000091AA324006731AY101021AY201021GA1999+004501999GE19MSL   +99999+99999GF108991999999004501999999KA1120M+00581KA2120N+00351MA1999999102481MD1210061+9999MW1001OD139901301999REMSYN11858338 04458 83002 10037 20007 30248 40300 52006 60002 70000 333 10058 20035 3/002 54415 58140 60001 70067 90720 91113=
0224583380999992020010803004+31120+118580FM-12+001899999V0203001N0021199999999010300199+00451+00021103081ADDAA106999999AA212999999AA324001531AY101031AY201031GA1999+006001999GE19MSL   +99999+99999GF108991999999006001999999IA2999+00289KA1240M+00571KA2240N+00351MA1999999102561MD1210081+1351MW1001OC101211OD141201211307REMSYN004BUFR
0318583380999992020010806004+31150+118583FM-12+001699999V0203501N001019999999N010000199+00521+00041102891ADDAA106000091AA212000091AA324000091AY101021AY201021GA1999+008001999GE19MSL   +99999+99999GF108991999999008001999999KA1240M+00551KA2240N+00351MA1999999102371MD1710191+9999MW1001OD139900801999REMSYN11858338 04560 83501 10052 20004 30237 40289 57019 60002 70000 333 10055 20035 3/003 544// 58102 60001 70000 90720 91108=
0224583380999992020010809004+31120+118580FM-12+001899999V0200611N0030199999999010500199+00451-00011102751ADDAA106999999AA212999999AA324999999AY101031AY201031GA1999+008001999GE19MSL   +99999+99999GF108991999999008001999999IA2999+00349KA1240M+00551KA2240N+00351MA1999999102231MD1710141+0541MW1001OC100641OD141200641301REMSYN004BUFR
0280583380999992020010812004+31150+118583FM-12+001699999V0200301N002019999999N009000199+00401+00051102871ADDAA106000091AA212000091AA324000091AY101021AY201021GF107991999999999999999999KA1240M+00551KA2240N+00351MA1999999102351MD1210121+9999MW1001OD139900501999REMSYN11858338 04959 70302 10040 20005 30235 40287 52012 60002 70000 333 10055 20035 3/004 544// 58040 60001 70000 90720 91105=
0305583380999992020010818004+31150+118583FM-12+001699999V0200701N004019999999N009000199+00401+00091102721ADDAA106999999AA212999999AA324999999AY101021AY201021KA1120M+00551KA2120N+00351MA1999999102201MD1710221+9999MW1601OD139900601999REMSYN11858338 04959 /0704 10040 20009 30220 40272 57022 60002 76000 333 10055 20035 3/003 544// 59012 60001 70000 90720 91106=EQDQ01  00002PRCP06Q02  00002PRCP12Q03  00002PRCP24
0144583380999992020010821004+31120+118580FM-12+001899999V0200611N0046199999999010800199+00401+00051102581ADDAA106999999AA212999999AA324999999IA2999+00319KA1240M+00551KA2240N+00351MA1999999102061MD1710141-0361MW1001OC100921OD141200921056REMSYN004BUFR
0318583380999992020010900004+31150+118583FM-12+001699999V0200501N003019999999N007000199+00291+00141102631ADDAA106000131AA212000131AA324000131AY161021AY201021GA1999+008001999GE19MSL   +99999+99999GF108991999999008001999999KA1120M+00551KA2120N+00291MA1999999102111MD1210051+9999MW1601OD139900901999REMSYN11858338 04557 80503 10029 20014 30211 40263 52005 69912 76060 333 10055 20029 3/002 54415 59037 69911 70001 90720 91109=
0230583380999992020010903004+31120+118580FM-12+001899999V0200761N0037199999999007000199+00311+00211102681ADDAA106001631AA224001631AJ100003100002099AY171031AY261031GA1999+002001999GE19MSL   +99999+99999GF108991999999002001999999IA2999+00209KA1240M+00551KA2240N+00241MA1999999102161MD1210051-0401MW1601OC100921OD141200921056REMSYN004BUFR
0318583380999992020010906004+31150+118583FM-12+001699999V0200601N003019999999N004800199+00391+00271102411ADDAA106002031AA212003032AA324002532AY171021AY261021GA1999+002501999GE19MSL   +99999+99999GF108991999999002501999999KA1240M+00531KA2240N+00241MA1999999101891MD1710271+9999MW1601OD139900901999REMSYN11858338 04348 80603 10039 20027 30189 40241 57027 60032 76076 333 10053 20024 3/002 54415 59048 60021 70025 90720 91109=
0224583380999992020010909004+31120+118580FM-12+001899999V0200571N0041199999999004200199+00401+00281102351ADDAA106000931AA212002531AA324002531AY161031AY201031GA1999+002001999GE19MSL   +99999+99999GF108991999999002001999999IA2999+00209KA1240M+00451KA2240N+00241MA1999999101831MD1710061-0401MW1101OC100891OD141200891068REMSYN004BUFR
0318583380999992020010912004+31150+118583FM-12+001699999V0200601N003019999999N003700199+00421+00321102441ADDAA106000021AA212002031AA324002531AY161021AY201021GA1999+008001999GE19MSL   +99999+99999GF108991999999008001999999KA1240M+00431KA2240N+00241MA1999999101921MD1210091+9999MW1101OD139900901999REMSYN11858338 04537 80603 10042 20032 30192 40244 52009 60022 71060 333 10043 20024 3/003 544// 59043 69901 70025 90720 91109=
0254583380999992020010918004+31150+118583FM-12+001699999V0200601N001019999999N002100199+00471+00441102411ADDAA106000131AA212000131AA324002631AY101021AY201021KA1120M+00471KA2120N+00241MA1999999101891MD1710011+9999MW1101OD139900801999REMSYN11858338 04921 /0601 10047 20044 30189 40241 57001 69912 71000 333 10047 20024 3/004 54405 59031 69911 70026 90720 91108=
0144583380999992020010921004+31120+118580FM-12+001899999V0200551N0025199999999001800199+00471+00471102311ADDAA106000231AA212000231AA324002731IA2999+00409KA1240M+00481KA2240N+00241MA1999999101791MD1710101-0271MW1101OC100701OD141200701056REMSYN004BUFR
0318583380999992020011000004+31150+118583FM-12+001699999V0200501N002019999999N001800199+00511+00501102321ADDAA106000231AA212000331AA324002731AY161021AY201021GA1999+002501999GE19MSL   +99999+99999GF108991999999002501999999KA1120M+00511KA2120N+00241MA1999999101811MD1210021+9999MW1601OD139900701999REMSYN11858338 04318 80502 10051 20050 30181 40232 52002 69932 76060 333 10051 20024 3/004 54405 59030 69921 70027 90720 91107=
0224583380999992020011003004+31120+118580FM-12+001899999V0200461N0027199999999002300199+00561+00531102301ADDAA106000531AA212000731AA324001631AY161031AY201031GA1999+002001999GE19MSL   +99999+99999GF108991999999002001999999IA2999+00449KA1240M+00561KA2240N+00311MA1999999101791MD1710021-0371MW1601OC100731OD141200731068REMSYN004BUFR
0318583380999992020011006004+31150+118583FM-12+001699999V0200401N003019999999N003700199+00611+00581102021ADDAA106007031AA212007031AA324007231AY161021AY201021GA1999+002501999GE19MSL   +99999+99999GF108991999999002501999999KA1240M+00621KA2240N+00381MA1999999101511MD1710281+9999MW1601OD139900701999REMSYN11858338 04337 80403 10061 20058 30151 40202 57028 60072 76060 333 10062 20038 3/005 54405 59038 60071 70072 90720 91107=
0224583380999992020011009004+31120+118580FM-12+001899999V0200321N0020199999999003300199+00621+00621102091ADDAA106011431AA212011931AA324012131AY161031AY261031GA1999+002001999GE19MSL   +99999+99999GF108991999999002001999999IA2999+00499KA1240M+00641KA2240N+00381MA1999999101581MD1210071-0251MW1601OC100731OD141200731068REMSYN004BUFR
0254583380999992020011012004+31150+118583FM-12+001699999V0200401N003019999999N004300199+00611+00601102201ADDAA106008031AA212015031AA324015531AY101021AY201021KA1240M+00641KA2240N+00421MA1999999101691MD1210111+9999MW1601OD139900601999REMSYN11858338 04943 /0403 10061 20060 30169 40220 52011 60152 76000 333 10064 20042 3/005 54405 59023 60081 70155 90720 91106=
0254583380999992020011018004+31150+118583FM-12+001699999V0200401N003019999999N003300199+00511+00501102241ADDAA106001031AA212010031AA324016631AY101021AY201021KA1120M+00641KA2120N+00471MA1999999101731MD1710031+9999MW1211OD139900701999REMSYN11858338 04933 /0403 10051 20050 30173 40224 57003 60102 72100 333 10064 20047 3/006 544// 59016 60011 70166 90720 91107=
0144583380999992020011021004+31120+118580FM-12+001899999V0200371N0034199999999003700199+00471+00461102251ADDAA106001831AA212005831AA324017731IA2999+00519KA1240M+00641KA2240N+00471MA1999999101741MD1210011-0051MW1601OC100701OD141200701034REMSYN004BUFR
0318583380999992020011100004+31150+118583FM-12+001699999V0200301N003019999999N003200199+00441+00431102381ADDAA106002031AA212003031AA324018431AY161021AY201021GA1999+002501999GE19MSL   +99999+99999GF108991999999002501999999KA1120M+00641KA2120N+00441MA1999999101871MD1210131+9999MW1601OD139900701999REMSYN11858338 04332 80303 10044 20043 30187 40238 52013 60032 76060 333 10064 20044 3/005 54415 58006 60021 70184 90720 91107=
0224583380999992020011103004+31120+118580FM-12+001899999V0200411N0021199999999004700199+00471+00451102461ADDAA106001131AA212002931AA324018331AY161031AY261031GA1999+002001999GE19MSL   +99999+99999GF108991999999002001999999IA2999+00509KA1240M+00641KA2240N+00441MA1999999101951MD1210081+0161MW1211OC100701OD141200701034REMSYN004BUFR
0254583380999992020011106004+31150+118583FM-12+001699999V0200101N002019999999N005000199+00471+00441102231ADDAA106000431AA212002031AA324011931AY101021AY201021KA1240M+00641KA2240N+00441MA1999999101721MD1710231+9999MW1601OD139900701999REMSYN11858338 04950 /0102 10047 20044 30172 40223 57023 60022 76000 333 10064 20044 3/005 54415 58021 69941 70119 90720 91107=
0160583380999992020011109004+31120+118580FM-12+001899999V0203251N0014199999999004500199+00451+00401102391ADDAA106001331AA212002431AA324008231AY101031AY201031IA2999+00509KA1240M+00641KA2240N+00431MA1999999101871MD1210151+0291MW1601OC100661OD141200661037REMSYN004BUFR
0254583380999992020011118004+31150+118583FM-12+001699999V0202701N002019999999N003200199+00351+00281102601ADDAA106000131AA212002031AA324004331AY101021AY201021KA1120M+00511KA2120N+00341MA1999999102081MD1210021+9999MW1101OD139900501999REMSYN11858338 04932 /2702 10035 20028 30208 40260 52002 60022 71000 333 10051 20034 3/004 54415 58035 69911 70043 90720 91105=
0144583380999992020011121004+31120+118580FM-12+001899999V0202411N0012199999999003500199+00321+00241102511ADDAA106999999AA212000731AA324003131IA2999+00349KA1240M+00491KA2240N+00321MA1999999101991MD1710091+0251MW1101OC100521OD141200521321REMSYN004BUFR
0318583380999992020011200004+31150+118583FM-12+001699999V0202301N001012200019N002400199+00281+00241102591ADDAA106000091AA212000131AA324002331AY161021AY201021GA1999+008001999GE19MSL   +99999+99999GF103991999999008001999999KA1120M+00491KA2120N+00261MA1999999102071MD1210081+9999MW1101OD139900501999REMSYN11858338 04524 32301 10028 20024 30207 40259 52008 69912 71060 333 10049 20026 3/002 54415 58020 60001 70023 90720 91105=
0318583380999992020011206004+31150+118583FM-12+001699999V0203101N003019999999N010000199+00751+00091102381ADDAA106000091AA212000091AA324001931AY101021AY201021GA1999+008001999GE19MSL   +99999+99999GF106991999999008001999999KA1240M+00781KA2240N+00261MA1999999101871MD1710301+9999MW1001OD139900601999REMSYN11858338 04560 63103 10075 20009 30187 40238 57030 60002 70000 333 10078 20026 3/002 54405 58015 60001 70019 90720 91106=
0186583380999992020011209004+31120+118580FM-12+001899999V0203281N0019122000199006700199+00571+00071102441ADDAA106999999AA212999999AA324000731AY101031AY201031GF100991999999999999999999IA2999+00169KA1240M+00781KA2240N+00261MA1999999101921MD1210051+0051MW1051OC100561OD141200561301REMSYN004BUFR
0254583380999992020011212004+31150+118583FM-12+001699999V0201201N002019999999N003500199+00241+00061102531ADDAA106000091AA212000091AA324000131AY101021AY201021KA1240M+00781KA2240N+00241MA1999999102011MD1210091+9999MW1101OD139900601999REMSYN11858338 04935 01202 10024 20006 30201 40253 52009 60002 71000 333 10078 20024 3/002 54415 58002 60001 70001 90720 91106=
0254583380999992020011218004+31150+118583FM-12+001699999V0201201N003019999999N002000199-00031-00071102371ADDAA106000091AA212000091AA324000091AY101021AY201021KA1120M+00781KA2120N-00051MA1999999101851MD1710171+9999MW1101OD139900501999REMSYN11858338 04920 /1203 11003 21007 30185 40237 57017 60002 71000 333 10078 21005 3/101 54415 59023 60001 70000 90720 91105=
0136583380999992020011221004+31120+118580FM-12+001899999V0201121N0026199999999001600199+00051+00011102411ADDAA106999999AA212999999AA324999999IA2999-00069KA1240M+00781KA2240N-00051MA1999999101891MD1210041-0101MW1101OD141200431017REMSYN004BUFR
0280583380999992020011300004+31150+118583FM-12+001699999V0200801N002019999999N001500199+00121+00091102441ADDAA106000091AA212000091AA324000091AY101021AY201021GF107991999999999999999999KA1120M+00781KA2120N-00051MA1999999101921MD1210031+9999MW1101OD139900401999REMSYN11858338 04915 70802 10012 20009 30192 40244 52003 60002 71000 333 10078 21005 3/101 54415 59015 60001 70000 90720 91104=
0160583380999992020011303004+31120+118580FM-12+001899999V0200891N0029199999999003400199+00551+00301102461ADDAA106000231AA212000231AA324000231AY101031AY201031IA2999-00069KA1240M+00781KA2240N-00051MA1999999101941MD1210021-0231MW1101OC100501OD141200501110REMSYN004BUFR
0280583380999992020011306004+31150+118583FM-12+001699999V0200501N003019999999N006000199+00751+00241102261ADDAA106000091AA212000091AA324000091AY101021AY201021GF107991999999999999999999KA1240M+00831KA2240N-00051MA1999999101741MD1710201+9999MW1101OD139900601999REMSYN11858338 04956 70503 10075 20024 30174 40226 57020 60002 71000 333 10083 21005 3/000 544// 59013 60001 70000 90720 91106=
0224583380999992020011309004+31120+118580FM-12+001899999V0200351N0021199999999009800199+00671+00151102341ADDAA106999999AA212999999AA324999999AY101031AY201031GA1999+008001999GE19MSL   +99999+99999GF108991999999008001999999IA2999+00009KA1240M+00831KA2240N-00051MA1999999101821MD1210081-0101MW1001OC100571OD141200571028REMSYN004BUFR
0318583380999992020011312004+31150+118583FM-12+001699999V0200501N001019999999N007000199+00591+00201102461ADDAA106000091AA212000091AA324000091AY101021AY201021GA1999+004501999GE19MSL   +99999+99999GF108991999999004501999999KA1240M+00831KA2240N-00051MA1999999101941MD1210121+9999MW1001OD139900601999REMSYN11858338 04457 80501 10059 20020 30194 40246 52012 60002 70000 333 10083 21005 3/000 54405 59007 60001 70000 90720 91106=
0254583380999992020011318004+31150+118583FM-12+001699999V0200501N001019999999N003000199+00301+00151102631ADDAA106000091AA212000091AA324000091AY101021AY201021KA1120M+00831KA2120N-00031MA1999999102111MD1210011+9999MW1101OD139900501999REMSYN11858338 04930 /0501 10030 20015 30211 40263 52001 60002 71000 333 10083 21003 3/001 54405 58026 60001 70000 90720 91105=
0318583380999992020011400004+31150+118583FM-12+001699999V0202501N001019999999N001500199+00241+00211102871ADDAA106000091AA212000091AA324000091AY101021AY201021GA1999+008001999GE19MSL   +99999+99999GF108991999999008001999999KA1120M+00831KA2120N+00071MA1999999102351MD1210131+9999MW1101OD139900301999REMSYN11858338 04515 82501 10024 20021 30235 40287 52013 60002 71000 333 10083 20007 3/100 54405 58043 60001 70000 90720 91103=
0224583380999992020011403004+31120+118580FM-12+001899999V0203271N0029199999999003900199+00551+00151103011ADDAA106999999AA212999999AA324999999AY101031AY201031GA1999+010001999GE19MSL   +99999+99999GF108991999999010001999999IA2999-00019KA1240M+00831KA2240N+00071MA1999999102491MD1210141+0551MW1101OC100521OD141200521329REMSYN004BUFR
0318583380999992020011406004+31150+118583FM-12+001699999V0203101N002012200019N009000199+00661-00231102761ADDAA106000091AA212000091AA324000091AY101021AY201021GA1999+012501999GE19MSL   +99999+99999GF103991999999012501999999KA1240M+00811KA2240N+00071MA1999999102241MD1710251+9999MW1001OD139900601999REMSYN11858338 04659 33102 10066 21023 30224 40276 57025 60002 70000 333 10081 20007 3/100 54415 58050 60001 70000 90720 91106=
0224583380999992020011409004+31120+118580FM-12+001899999V0200141N0014122000199007700199+00521-00291102851ADDAA106999999AA212999999AA324999999AY101031AY201031GA1999+012001999GE19MSL   +99999+99999GF103991999999012001999999IA2999+00009KA1240M+00741KA2240N+00071MA1999999102331MD1210091+0511MW1001OC100601OD141200601323REMSYN004BUFR
0280583380999992020011412004+31150+118583FM-12+001699999V0200501N002019999999N004400199+00281-00101102871ADDAA106000091AA212000091AA324000091AY101021AY201021GF105991999999999999999999KA1240M+00741KA2240N+00071MA1999999102351MD1210021+9999MW1101OD139900601999REMSYN11858338 04944 50502 10028 21010 30235 40287 52002 60002 71000 333 10074 20007 3/001 54415 58041 60001 70000 90720 91106=
0254583380999992020011418004+31150+118583FM-12+001699999V0200601N004019999999N004600199+00111-00131102831ADDAA106000091AA212000091AA324000091AY101021AY201021KA1120M+00741KA2120N+00071MA1999999102311MD1710071+9999MW1101OD139900601999REMSYN11858338 04946 /0604 10011 21013 30231 40283 57007 60002 71000 333 10074 20007 3/101 54415 58020 60001 70000 90720 91106=
0150583380999992020011421004+31120+118580FM-12+001899999V0200651N0053199999999004500199+00171-00071102671ADDAA106999999AA224000091AJ199999999999999IA2999-00079KA1240M+00741KA2240N+00071MA1999999102151MD1710161-0071MW1101OC100741OD141200741059REMSYN004BUFR
0318583380999992020011500004+31150+118583FM-12+001699999V0200601N005019999999N004500199+00231+00021102721ADDAA106000091AA212000091AA324000091AY101021AY201021GA1999+004501999GE19MSL   +99999+99999GF108991999999004501999999KA1120M+00741KA2120N+00071MA1999999102201MD1210051+9999MW1101OD139900801999REMSYN11858338 04445 80605 10023 20002 30220 40272 52005 60002 71000 333 10074 20007 3/101 544// 59015 60001 70000 90720 91108=
0230583380999992020011503004+31120+118580FM-12+001899999V0200821N0057199999999004200199+00351+00191102711ADDAA106000631AA224000631AJ100003100001099AY171031AY261031GA1999+004001999GE19MSL   +99999+99999GF108991999999004001999999IA2999-00079KA1240M+00741KA2240N+00071MA1999999102191MD1710011-0301MW1601OC100991OD141200991124REMSYN004BUFR
0318583380999992020011506004+31150+118583FM-12+001699999V0200701N004019999999N002900199+00341+00271102371ADDAA106005031AA212005032AA324004932AY171021AY261021GA1999+004501999GE19MSL   +99999+99999GF108991999999004501999999KA1240M+00741KA2240N+00071MA1999999101851MD1710341+9999MW1601OD139901001999REMSYN11858338 04429 80704 10034 20027 30185 40237 57034 60052 76076 333 10074 20007 3/000 54415 59039 60051 70049 90720 91110=
0230583380999992020011509004+31120+118580FM-12+001899999V0200641N0050199999999002900199+00351+00301102391ADDAA106007931AA224008531AJ100013100009099AY161031AY261031GA1999+004001999GE19MSL   +99999+99999GF108991999999004001999999IA2999+00049KA1240M+00521KA2240N+00071MA1999999101871MD1210021-0461MW1601OC100991OD141200991124REMSYN004BUFR
0318583380999992020011512004+31150+118583FM-12+001699999V0200601N004019999999N003100199+00351+00311102461ADDAA106006031AA212011032AA324010732AY161021AY261021GA1999+004501999GE19MSL   +99999+99999GF108991999999004501999999KA1240M+00371KA2240N+00071MA1999999101941MD1210071+9999MW1601OD139901001999REMSYN11858338 04431 80604 10035 20031 30194 40246 52007 60112 76066 333 10037 20007 3/002 54405 59041 60061 70107 90720 91110=
0254583380999992020011518004+31150+118583FM-12+001699999V0200601N004019999999N003900199+00381+00351102461ADDAA106003031AA212009031AA324013631AY101021AY201021KA1120M+00421KA2120N+00111MA1999999101941MD1710021+9999MW1601OD139900801999REMSYN11858338 04939 /0604 10038 20035 30194 40246 57002 60092 76000 333 10042 20011 3/004 54405 59037 60031 70136 90720 91108=
0166583380999992020011521004+31120+118580FM-12+001899999V0200381N0036199999999004800199+00301+00261102491ADDAA106005331AA224017631AJ100013100009099AY161999AY201999IA2999+00349KA1240M+00421KA2240N+00171MA1999999101971MD1210031-0181MW1601OC100771OD141200771053REMSYN004BUFR
0318583380999992020011600004+31150+118583FM-12+001699999V0200401N002019999999N009000199+00261+00221102691ADDAA106006031AA212009031AA324020031AY161021AY201021GA1999+004501999GE19MSL   +99999+99999GF108991999999004501999999KA1120M+00421KA2120N+00231MA1999999102171MD1210201+9999MW1601OD139900901999REMSYN11858338 04459 80402 10026 20022 30217 40269 52020 60092 76060 333 10042 20023 3/003 544// 59003 60061 70200 90720 91109=
0230583380999992020011603004+31120+118580FM-12+001899999V0200461N0019199999999005000199+00321+00291102741ADDAA106002831AA224019831AJ100013100008099AY161031AY201031GA1999+003001999GE19MSL   +99999+99999GF108991999999003001999999IA2999+00309KA1240M+00421KA2240N+00241MA1999999102221MD1210051+0031MW1101OC100851OD141200851034REMSYN004BUFR
0318583380999992020011606004+31150+118583FM-12+001699999V0200401N001019999999N004100199+00371+00341102631ADDAA106002031AA212008031AA324016831AY161021AY201021GA1999+004501999GE19MSL   +99999+99999GF108991999999004501999999KA1240M+00421KA2240N+00241MA1999999102111MD1710111+9999MW1601OD139900901999REMSYN11858338 04441 80401 10037 20034 30211 40263 57011 60082 76060 333 10042 20024 3/003 544// 58026 60021 70168 90720 91109=
0230583380999992020011609004+31120+118580FM-12+001899999V0200501N0009199999999004300199+00351+00311102711ADDAA106002631AA224014531AJ100013100005099AY161031AY261031GA1999+002001999GE19MSL   +99999+99999GF108991999999002001999999IA2999+00309KA1240M+00421KA2240N+00241MA1999999102191MD1210081+0321MW1601OC100851OD141200851034REMSYN004BUFR
0318583380999992020011612004+31150+118583FM-12+001699999V0200401N001019999999N008000199+00301+00261102871ADDAA106003031AA212005031AA324013831AY161021AY261021GA1999+002501999GE19MSL   +99999+99999GF108991999999002501999999KA1240M+00421KA2240N+00241MA1999999102351MD1210161+9999MW1601OD139900601999REMSYN11858338 04358 80401 10030 20026 30235 40287 52016 60052 76066 333 10042 20024 3/003 54415 58041 60031 70138 90720 91106=
0254583380999992020011618004+31150+118583FM-12+001699999V0203301N002019999999N005000199+00301+00261102881ADDAA106000831AA212004031AA324011731AY101021AY201021KA1120M+00391KA2120N+00241MA1999999102361MD1710021+9999MW1101OD139900601999REMSYN11858338 04950 /3302 10030 20026 30236 40288 57002 60042 71000 333 10039 20024 3/003 54415 58042 69981 70117 90720 91106=
0142583380999992020011621004+31120+118580FM-12+001899999V0203441N0015199999999004100199+00261+00221102821ADDAA106000831AA224007831AJ100003100002099IA2999+00329KA1240M+00381KA2240N+00241MA1999999102301MD1710061+0331MW1601OD141200391326REMSYN004BUFR
0318583380999992020011700004+31150+118583FM-12+001699999V0203501N001019999999N003700199+00281+00241102951ADDAA106000231AA212001031AA324005531AY161021AY201021GA1999+004501999GE19MSL   +99999+99999GF108991999999004501999999KA1120M+00381KA2120N+00251MA1999999102431MD1210131+9999MW1101OD139900401999REMSYN11858338 04437 83501 10028 20024 30243 40295 52013 60012 71060 333 10038 20025 3/003 544// 58026 69921 70055 90720 91104=
0216583380999992020011703004+31120+118580FM-12+001899999V0203081N0020199999999002400199+00301+00261103031ADDAA106000231AA212001031AA324005231AY161031AY201031GA1999+006001999GE19MSL   +99999+99999GF108991999999006001999999IA2999+00329KA1240M+00381KA2240N+00261MA1999999102511MD1210081+0291MW1601OD141200391326REMSYN004BUFR
0318583380999992020011706004+31150+118583FM-12+001699999V0203101N002019999999N002000199+00281+00251102771ADDAA106000231AA212000431AA324004031AY161021AY201021GA1999+004501999GE19MSL   +99999+99999GF108991999999004501999999KA1240M+00371KA2240N+00261MA1999999102251MD1710261+9999MW1101OD139900501999REMSYN11858338 04420 83102 10028 20025 30225 40277 57026 69942 71060 333 10037 20026 3/003 54415 58014 69921 70040 90720 91105=
0216583380999992020011709004+31120+118580FM-12+001899999V0202431N0015199999999002600199+00311+00251102801ADDAA106000131AA212000331AA324002731AY161031AY201031GA1999+006001999GE19MSL   +99999+99999GF108991999999006001999999IA2999+00329KA1240M+00341KA2240N+00261MA1999999102281MD1210031+0091MW1101OD141200471301REMSYN004BUFR
0353583380999992020011712004+31150+118583FM-12+001699999V0202501N001019999999N001900199+00291+00251102881ADDAA106999999AA212000231AA324001231AY161021AY201021GA1999+008001999GE19MSL   +99999+99999GF108991999999008001999999KA1240M+00321KA2240N+00261MA1999999102361MD1210081+9999MW1211OD139900501999REMSYN11858338 04519 82501 10029 20025 30236 40288 52008 69922 72160 333 10032 20026 3/003 544// 58001 69901 70012 90720 91105=EQDQ01  00002PRCP06Q02  00002PRCP06
0254583380999992020011718004+31150+118583FM-12+001699999V0202401N002019999999N002000199+00281+00251102801ADDAA106000131AA212000131AA324000531AY101021AY201021KA1120M+00321KA2120N+00261MA1999999102281MD1710081+9999MW1101OD139900401999REMSYN11858338 04920 /2402 10028 20025 30228 40280 57008 69912 71000 333 10032 20026 3/003 544// 59008 69911 70005 90720 91104=
0136583380999992020011721004+31120+118580FM-12+001899999V0202921N0008199999999003600199+00251+00191102731ADDAA106999999AA212000131AA324000431IA2999+00289KA1240M+00321KA2240N+00251MA1999999102211MD1710071-0091MW1101OD141200321239REMSYN004BUFR
0318583380999992020011800004+31150+118583FM-12+001699999V0209999C999999999999N004200199+00271+00201102811ADDAA106000091AA212000131AA324000331AY161021AY201021GA1999+008001999GE19MSL   +99999+99999GF108991999999008001999999KA1120M+00321KA2120N+00241MA1999999102291MD1210081+9999MW1101OD139900301999REMSYN11858338 04542 82000 10027 20020 30229 40281 52008 69912 71060 333 10032 20024 3/003 544// 59014 60001 70003 90720 91103=
0216583380999992020011803004+31120+118580FM-12+001899999V0202251N0006199999999006700199+00401+00181102821ADDAA106999999AA212999999AA324000231AY101031AY201031GA1999+008001999GE19MSL   +99999+99999GF108991999999008001999999IA2999+00289KA1240M+00391KA2240N+00241MA1999999102301MD1210011-0211MW1101OD141200261270REMSYN004BUFR
0318583380999992020011806004+31150+118583FM-12+001699999V0200501N001019999999N009000199+00451+00081102561ADDAA106000091AA212000091AA324000131AY101021AY201021GA1999+012501999GE19MSL   +99999+99999GF108991999999012501999999KA1240M+00461KA2240N+00241MA1999999102041MD1710261+9999MW1001OD139900201999REMSYN11858338 04659 80501 10045 20008 30204 40256 57026 60002 70000 333 10046 20024 3/003 54405 59021 60001 70001 90720 91102=
0216583380999992020011809004+31120+118580FM-12+001899999V0201281N0010199999999009600199+00421+00081102491ADDAA106999999AA212999999AA324000131AY101031AY201031GA1999+010001999GE19MSL   +99999+99999GF108991999999010001999999IA2999+00289KA1240M+00471KA2240N+00241MA1999999101971MD1710071-0311MW1001OD141200211084REMSYN004BUFR
0254583380999992020011812004+31150+118583FM-12+001699999V0201201N001019999999N007000199+00371+00131102591ADDAA106000091AA212000091AA324000131AY101021AY201021KA1240M+00471KA2240N+00241MA1999999102071MD1210101+9999MW1001OD139900201999REMSYN11858338 04957 /1201 10037 20013 30207 40259 52010 60002 70000 333 10047 20024 3/003 54405 59029 60001 70001 90720 91102=
0254583380999992020011818004+31150+118583FM-12+001699999V0202901N001019999999N004200199+00311+00211102561ADDAA106000091AA212000091AA324000091AY101021AY201021KA1120M+00471KA2120N+00241MA1999999102041MD1710011+9999MW1101OD139900201999REMSYN11858338 04942 /2901 10031 20021 30204 40256 57001 60002 71000 333 10047 20024 3/003 544// 59024 60001 70000 90720 91102=
0136583380999992020011821004+31120+118580FM-12+001899999V0202101N0024199999999003700199+00261+00171102471ADDAA106999999AA212999999AA324999999IA2999+00179KA1240M+00471KA2240N+00241MA1999999101951MD1710091-0261MW1101OD141200341214REMSYN004BUFR
0254583380999992020011900004+31150+118583FM-12+001699999V0202601N001019999999N002000199+00101+00071102641ADDAA106000091AA212000091AA324000091AY101021AY201021KA1120M+00471KA2120N+00051MA1999999102121MD1210171+9999MW1101OD139900301999REMSYN11858338 04920 02601 10010 20007 30212 40264 52017 60002 71000 333 10047 20005 3/100 54415 59017 60001 70000 90720 91103=
0186583380999992020011903004+31120+118580FM-12+001899999V0202461N0028122000199008600199+00671+00221102721ADDAA106999999AA212999999AA324999999AY101031AY201031GF100991999999999999999999IA2999-00039KA1240M+00711KA2240N+00051MA1999999102201MD1210081-0101MW1001OC100501OD141200501231REMSYN004BUFR
0254583380999992020011906004+31150+118583FM-12+001699999V0203101N003019999999N008000199+00961+00171102411ADDAA106000091AA212000091AA324000091AY101021AY201021KA1240M+00961KA2240N+00051MA1999999101901MD1710301+9999MW1001OD139900601999REMSYN11858338 04958 /3103 10096 20017 30190 40241 57030 60002 70000 333 10096 20005 3/100 54405 59014 60001 70000 90720 91106=
0186583380999992020011909004+31120+118580FM-12+001899999V0202771N0019122000199008300199+00821+00111102401ADDAA106999999AA212999999AA324999999AY101031AY201031GF100991999999999999999999IA2999-00039KA1240M+01001KA2240N+00051MA1999999101891MD1710011-0081MW1001OC100631OD141200631231REMSYN004BUFR
0254583380999992020011912004+31150+118583FM-12+001699999V0202701N001019999999N006000199+00511+00121102531ADDAA106000091AA212000091AA324000091AY101021AY201021KA1240M+01001KA2240N+00051MA1999999102011MD1210121+9999MW1101OD139900601999REMSYN11858338 04956 02701 10051 20012 30201 40253 52012 60002 71000 333 10100 20005 3/001 54405 59006 60001 70000 90720 91106=
0254583380999992020011918004+31150+118583FM-12+001699999V0202401N002019999999N004800199+00151+00021102551ADDAA106000091AA212000091AA324000091AY101021AY201021KA1120M+01001KA2120N+00051MA1999999102041MD1210021+9999MW1101OD139900601999REMSYN11858338 04948 /2402 10015 20002 30204 40255 52002 60002 71000 333 10100 20005 3/100 54415 58000 60001 70000 90720 91106=
0136583380999992020011921004+31120+118580FM-12+001899999V0202941N0018199999999004900199+00121-00011102531ADDAA106999999AA212999999AA324999999IA2999-00079KA1240M+01001KA2240N+00051MA1999999102011MD1710031+0061MW1101OD141200311250REMSYN004BUFR
0254583380999992020012000004+31150+118583FM-12+001699999V0202601N001019999999N005000199+00181+00031102721ADDAA106000091AA212000091AA324000091AY101021AY201021KA1120M+01001KA2120N+00111MA1999999102201MD1210191+9999MW1101OD139900301999REMSYN11858338 04950 02601 10018 20003 30220 40272 52019 60002 71000 333 10100 20011 3/101 54405 58008 60001 70000 90720 91103=
0178583380999992020012003004+31120+118580FM-12+001899999V0202551N0020122000199007100199+00901+00201102771ADDAA106999999AA212999999AA324999999AY101031AY201031GF100991999999999999999999IA2999-00079KA1240M+01001KA2240N+00111MA1999999102261MD1210061+0061MW1051OD141200321236REMSYN004BUFR
0254583380999992020012006004+31150+118583FM-12+001699999V0203101N002019999999N014000199+01091-00151102581ADDAA106000091AA212000091AA324000091AY101021AY201021KA1240M+01141KA2240N+00111MA1999999102071MD1710191+9999MW1001OD139900501999REMSYN11858338 04964 03102 10109 21015 30207 40258 57019 60002 70000 333 10114 20011 3/101 54405 58017 60001 70000 90720 91105=
0186583380999992020012009004+31120+118580FM-12+001899999V0200521N0018122000199013800199+00951-00151102631ADDAA106999999AA212999999AA324999999AY101031AY201031GF100991999999999999999999IA2999-00019KA1240M+01171KA2240N+00111MA1999999102121MD1210051+0231MW1001OC100501OD141200501298REMSYN004BUFR
0254583380999992020012012004+31150+118583FM-12+001699999V0201201N002019999999N009000199+00461+00001102711ADDAA106000091AA212000091AA324000091AY101021AY201021KA1240M+01171KA2240N+00111MA1999999102191MD1210071+9999MW1001OD139900501999REMSYN11858338 04959 01202 10046 20000 30219 40271 52007 60002 70000 333 10117 20011 3/000 54415 58018 60001 70000 90720 91105=
0254583380999992020012018004+31150+118583FM-12+001699999V0200801N004019999999N005000199+00311+00031102681ADDAA106000091AA212000091AA324000091AY101021AY201021KA1120M+01171KA2120N+00111MA1999999102171MD1710101+9999MW1101OD139900501999REMSYN11858338 04950 /0804 10031 20003 30217 40268 57010 60002 71000 333 10117 20011 3/000 54405 58013 60001 70000 90720 91105=
0144583380999992020012021004+31120+118580FM-12+001899999V0200961N0031199999999004400199+00311+00081102561ADDAA106999999AA212999999AA324999999IA2999+00039KA1240M+01171KA2240N+00111MA1999999102051MD1710121+0041MW1101OC100501OD141200501051REMSYN004BUFR
0254583380999992020012100004+31150+118583FM-12+001699999V0201001N004019999999N003100199+00381+00171102601ADDAA106000091AA212000091AA324000091AY101021AY201021KA1120M+01171KA2120N+00181MA1999999102081MD1210031+9999MW1101OD139900701999REMSYN11858338 04931 01004 10038 20017 30208 40260 52003 60002 71000 333 10117 20018 3/000 54405 59012 60001 70000 90720 91107=
0224583380999992020012103004+31120+118580FM-12+001899999V0201061N0044199999999003700199+00721+00391102491ADDAA106999999AA212999999AA324999999AY101031AY201031GA1999+018001999GE19MSL   +99999+99999GF108991999999018001999999IA2999+00039KA1240M+01171KA2240N+00271MA1999999101981MD1710101-0281MW1101OC100891OD141200891118REMSYN004BUFR
0166583380999992020012106004+31120+118580FM-12+001899999V0201041N0020199999999002200199+00721+00611102311ADDAA106000531AA224000531AJ100003100001099AY101061AY201061IA2999+00039KA1240M+01171KA2240N+00271MA1999999101801MD1710181-0271MW1601OC100891OD141200891118REMSYN004BUFR
0224583380999992020012109004+31120+118580FM-12+001899999V0200861N0019199999999001100199+00671+00641102221ADDAA106002131AA212002131AA324002131AY161031AY261031GA1999+006001999GE19MSL   +99999+99999GF108991999999006001999999IA2999+00039KA1240M+00941KA2240N+00271MA1999999101711MD1710091-0411MW1601OC100891OD141200891118REMSYN004BUFR
0318583380999992020012112004+31150+118583FM-12+001699999V0200801N002019999999N001000199+00641+00611102291ADDAA106003031AA212004032AA324003632AY161021AY261021GA1999+004501999GE19MSL   +99999+99999GF108991999999004501999999KA1240M+00781KA2240N+00271MA1999999101781MD1210071+9999MW1601OD139900901999REMSYN11858338 04410 80802 10064 20061 30178 40229 52007 60042 76066 333 10078 20027 3/002 54405 59041 60031 70036 90720 91109=
0254583380999992020012118004+31150+118583FM-12+001699999V0203301N002019999999N000400199+00651+00641102151ADDAA106003031AA212006031AA324006131AY161021AY251021KA1120M+00781KA2120N+00301MA1999999101641MD1710071+9999MW1451OD139900601999REMSYN11858338 04904 /3302 10065 20064 30164 40215 57007 60062 74565 333 10078 20030 3/006 54405 59053 60031 70061 90720 91106=
0136583380999992020012121004+31120+118580FM-12+001899999V0203501N0013199999999001100199+00651+00631102091ADDAA106008731AA212011831AA324013931IA2999+00639KA1240M+00781KA2240N+00301MA1999999101581MD1710061-0471MW1601OD141200391121REMSYN004BUFR
0254583380999992020012200004+31150+118583FM-12+001699999V0200901N001019999999N000600199+00651+00641102131ADDAA106009031AA212012031AA324015331AY141021AY201021KA1120M+00781KA2120N+00391MA1999999101621MD1210041+9999MW1601OD139900401999REMSYN11858338 04906 /0901 10065 20064 30162 40213 52004 60122 76040 333 10078 20039 3/006 54405 59046 60091 70153 90720 91104=
0152583380999992020012203004+31120+118580FM-12+001899999V0200291N0009199999999001200199+00671+00671102181ADDAA106007931AA212016631AA324021831AY101031AY201031IA2999+00639KA1240M+00781KA2240N+00641MA1999999101671MD1210051-0311MW1621OD141200381003REMSYN004BUFR
0254583380999992020012206004+31150+118583FM-12+001699999V0203201N002019999999N001300199+00671+00661102021ADDAA106014031AA212023031AA324028931AY101021AY201021KA1240M+00741KA2240N+00641MA1999999101511MD1710161+9999MW1601OD139900401999REMSYN11858338 04913 /3202 10067 20066 30151 40202 57016 60232 76000 333 10074 20064 3/006 54415 59029 60141 70289 90720 91104=
0216583380999992020012209004+31120+118580FM-12+001899999V0203221N0021199999999001000199+00671+00641102171ADDAA106010231AA212018131AA324029931AY161031AY261031GA1999+002001999GE19MSL   +99999+99999GF108991999999002001999999IA2999+00639KA1240M+00691KA2240N+00641MA1999999101661MD1210151-0051MW1211OD141200471298REMSYN004BUFR
0254583380999992020012212004+31150+118583FM-12+001699999V0202901N001019999999N001400199+00661+00651102351ADDAA106003031AA212017031AA324028731AY101021AY201021KA1240M+00691KA2240N+00641MA1999999101841MD1210181+9999MW1101OD139900501999REMSYN11858338 04914 /2901 10066 20065 30184 40235 52018 60172 71000 333 10069 20064 3/007 544// 58006 60031 70287 90720 91105=
0254583380999992020012218004+31150+118583FM-12+001699999V0202901N001019999999N001200199+00651+00641102371ADDAA106000091AA212003031AA324026131AY101021AY201021KA1120M+00691KA2120N+00641MA1999999101861MD1210051+9999MW1101OD139900501999REMSYN11858338 04912 /2901 10065 20064 30186 40237 52005 60032 71000 333 10069 20064 3/007 544// 58022 60001 70261 90720 91105=
0136583380999992020012221004+31120+118580FM-12+001899999V0200091N0008199999999000200199+00671+00661102291ADDAA106000631AA212000831AA324018931IA2999+00659KA1240M+00691KA2240N+00641MA1999999101781MD1710081+0201MW1601OD141200341323REMSYN004BUFR
0254583380999992020012300004+31150+118583FM-12+001699999V0200601N001019999999N000200199+00701+00691102381ADDAA106000731AA212000731AA324017631AY101021AY201021KA1120M+00701KA2120N+00641MA1999999101871MD1210091+9999MW1461OD139900301999REMSYN11858338 04902 /0601 10070 20069 30187 40238 52009 69972 74600 333 10070 20064 3/007 54405 58025 69971 70176 90720 91103=
0216583380999992020012303004+31120+118580FM-12+001899999V0200661N0018199999999001400199+00751+00741102541ADDAA106000131AA212000731AA324011131AY141031AY241031GA1999+002001999GE19MSL   +99999+99999GF108991999999002001999999IA2999+00659KA1240M+00751KA2240N+00641MA1999999102031MD1210161+0361MW1281OD141200351028REMSYN004BUFR
0318583380999992020012306004+31150+118583FM-12+001699999V0200501N004019999999N002900199+00791+00781102271ADDAA106001031AA212002031AA324004531AY161021AY241021GA1999+002501999GE19MSL   +99999+99999GF108991999999002501999999KA1240M+00801KA2240N+00641MA1999999101761MD1710271+9999MW1601OD139900501999REMSYN11858338 04329 80504 10079 20078 30176 40227 57027 60022 76064 333 10080 20064 3/007 54405 58025 60011 70045 90720 91105=
0224583380999992020012309004+31120+118580FM-12+001899999V0200551N0036199999999003200199+00821+00801102341ADDAA106002031AA212002131AA324002931AY161031AY261031GA1999+002001999GE19MSL   +99999+99999GF108991999999002001999999IA2999+00679KA1240M+00841KA2240N+00641MA1999999101831MD1210071+0171MW1601OC100761OD141200761068REMSYN004BUFR
0318583380999992020012312004+31150+118583FM-12+001699999V0200501N004019999999N002900199+00801+00761102571ADDAA106002031AA212003031AA324003831AY161021AY261021GA1999+002501999GE19MSL   +99999+99999GF108991999999002501999999KA1240M+00841KA2240N+00641MA1999999102061MD1210231+9999MW1601OD139900801999REMSYN11858338 04329 80504 10080 20076 30206 40257 52023 60032 76066 333 10084 20064 3/007 54405 58022 60021 70038 90720 91108=
0254583380999992020012318004+31150+118583FM-12+001699999V0200501N005019999999N006000199+00711+00601102671ADDAA106003031AA212005031AA324006331AY101021AY201021KA1120M+00841KA2120N+00651MA1999999102161MD1210011+9999MW1101OD139900901999REMSYN11858338 04956 /0505 10071 20060 30216 40267 52001 60052 71000 333 10084 20065 3/007 54405 58030 60031 70063 90720 91109=
0144583380999992020012321004+31120+118580FM-12+001899999V0200551N0045199999999005700199+00661+00601102651ADDAA106001731AA212004931AA324007031IA2999+00649KA1240M+00841KA2240N+00661MA1999999102141MD1710021+0361MW1211OC100901OD141200901051REMSYN004BUFR
0254583380999992020012400004+31150+118583FM-12+001699999V0200601N006019999999N004800199+00661+00621102891ADDAA106002031AA212004031AA324007531AY101021AY201021KA1120M+00841KA2120N+00661MA1999999102381MD1210241+9999MW1601OD139900901999REMSYN11858338 04948 /0606 10066 20062 30238 40289 52024 60042 76000 333 10084 20066 3/006 544// 58051 60021 70075 90720 91109=
0160583380999992020012403004+31120+118580FM-12+001899999V0200641N0060199999999004200199+00701+00661102921ADDAA106001931AA212003631AA324008831AY101031AY201031IA2999+00639KA1240M+00841KA2240N+00661MA1999999102411MD1210031+0381MW1601OC100941OD141200941056REMSYN004BUFR
0254583380999992020012406004+31150+118583FM-12+001699999V0200601N004019999999N003800199+00691+00651102841ADDAA106002031AA212004031AA324008531AY101021AY201021KA1240M+00841KA2240N+00661MA1999999102331MD1710081+9999MW1601OD139900901999REMSYN11858338 04938 /0604 10069 20065 30233 40284 57008 60042 76000 333 10084 20066 3/006 54415 58057 60021 70085 90720 91109=
0160583380999992020012409004+31120+118580FM-12+001899999V0200571N0037199999999002800199+00651+00611102891ADDAA106001831AA212003731AA324008631AY101031AY201031IA2999+00639KA1240M+00831KA2240N+00641MA1999999102381MD1210051+0551MW1211OC101051OD141201051093REMSYN004BUFR
0254583380999992020012412004+31150+118583FM-12+001699999V0200601N004019999999N003600199+00701+00531103011ADDAA106001031AA212003031AA324007631AY101021AY201021KA1240M+00801KA2240N+00641MA1999999102501MD1210121+9999MW1101OD139901101999REMSYN11858338 04936 /0604 10070 20053 30250 40301 52012 60032 71000 333 10080 20064 3/006 54415 58044 60011 70076 90720 91111=
0254583380999992020012418004+31150+118583FM-12+001699999V0200601N004019999999N008000199+00651+00451102851ADDAA106000091AA212001031AA324005131AY101021AY201021KA1120M+00711KA2120N+00641MA1999999102341MD1710161+9999MW1001OD139901101999REMSYN11858338 04958 /0604 10065 20045 30234 40285 57016 60012 70000 333 10071 20064 3/006 54415 58018 60001 70051 90720 91111=
0144583380999992020012421004+31120+118580FM-12+001899999V0200591N0045199999999013200199+00611+00391102751ADDAA106999999AA212000131AA324003831IA2999+00539KA1240M+00711KA2240N+00601MA1999999102241MD1710101+0101MW1211OC100951OD141200951056REMSYN004BUFR
0254583380999992020012500004+31150+118583FM-12+001699999V0200501N004019999999N004700199+00521+00461102941ADDAA106000731AA212000731AA324003931AY101021AY201021KA1120M+00711KA2120N+00521MA1999999102421MD1210181+9999MW1601OD139901001999REMSYN11858338 04947 /0504 10052 20046 30242 40294 52018 69972 76000 333 10071 20052 3/005 54415 58004 69971 70039 90720 91110=
0224583380999992020012503004+31120+118580FM-12+001899999V0200481N0034199999999008500199+00551+00461103001ADDAA106000831AA212000831AA324002731AY161031AY201031GA1999+004001999GE19MSL   +99999+99999GF108991999999004001999999IA2999+00529KA1240M+00711KA2240N+00521MA1999999102481MD1210061+0071MW1211OC100951OD141200951056REMSYN004BUFR
0318583380999992020012506004+31150+118583FM-12+001699999V0200701N004019999999N013000199+00571+00431102751ADDAA106000131AA212000831AA324002031AY161021AY201021GA1999+008001999GE19MSL   +99999+99999GF108991999999008001999999KA1240M+00701KA2240N+00521MA1999999102241MD1710241+9999MW1001OD139900901999REMSYN11858338 04563 80704 10057 20043 30224 40275 57024 69982 70060 333 10070 20052 3/005 54415 59009 69911 70020 90720 91109=
0160583380999992020012509004+31120+118580FM-12+001899999V0200401N0019199999999008000199+00561+00461102771ADDAA106999999AA212000831AA324000931AY101031AY201031IA2999+00529KA1240M+00701KA2240N+00521MA1999999102261MD1210021-0121MW1211OC100861OD141200861051REMSYN004BUFR
0254583380999992020012512004+31150+118583FM-12+001699999V0200401N003019999999N003600199+00491+00451102841ADDAA106000831AA212000931AA324001631AY101021AY201021KA1240M+00701KA2240N+00481MA1999999102321MD1210061+9999MW1601OD139900901999REMSYN11858338 04936 /0403 10049 20045 30232 40284 52006 69992 76000 333 10070 20048 3/005 54415 59018 69981 70016 90720 91109=
0254583380999992020012518004+31150+118583FM-12+001699999V0200301N002019999999N005000199+00491+00461102671ADDAA106005031AA212006031AA324006331AY101021AY201021KA1120M+00651KA2120N+00471MA1999999102151MD1710121+9999MW1601OD139900701999REMSYN11858338 04950 /0302 10049 20046 30215 40267 57012 60062 76000 333 10065 20047 3/005 54415 59019 60051 70063 90720 91107=
0144583380999992020012521004+31120+118580FM-12+001899999V0200301N0022199999999005800199+00461+00431102471ADDAA106005331AA212008231AA324009031IA2999+00489KA1240M+00611KA2240N+00461MA1999999101961MD1710191-0281MW1601OC100671OD141200671059REMSYN004BUFR
0254583380999992020012600004+31150+118583FM-12+001699999V0200401N002019999999N004400199+00491+00481102561ADDAA106007031AA212012031AA324012531AY101021AY201021KA1120M+00601KA2120N+00461MA1999999102041MD1210081+9999MW1601OD139900701999REMSYN11858338 04944 /0402 10049 20048 30204 40256 52008 60122 76000 333 10060 20046 3/005 544// 59038 60071 70125 90720 91107=
0160583380999992020012603004+31120+118580FM-12+001899999V0200341N0025199999999003700199+00521+00491102401ADDAA106005531AA212010831AA324013731AY101031AY201031IA2999+00489KA1240M+00601KA2240N+00461MA1999999101891MD1710151-0591MW1601OC100671OD141200671059REMSYN004BUFR
0318583380999992020012606004+31150+118583FM-12+001699999V0203601N003019999999N004900199+00541+00511102181ADDAA106005031AA212012031AA324017831AY161021AY261021GA1999+004501999GE19MSL   +99999+99999GF108991999999004501999999KA1240M+00581KA2240N+00461MA1999999101671MD1710221+9999MW1601OD139900701999REMSYN11858338 04449 83603 10054 20051 30167 40218 57022 60122 76066 333 10058 20046 3/005 544// 59057 60051 70178 90720 91107=
0224583380999992020012609004+31120+118580FM-12+001899999V0203031N0042199999999003600199+00371+00351102221ADDAA106009331AA212014831AA324023031AY161031AY261031GA1999+004001999GE19MSL   +99999+99999GF108991999999004001999999IA2999+00489KA1240M+00561KA2240N+00381MA1999999101701MD1210031-0561MW1601OC100861OD141200861323REMSYN004BUFR
0318583380999992020012612004+31150+118583FM-12+001699999V0203401N003019999999N003200199+00381+00371102401ADDAA106009031AA212015031AA324026431AY161021AY261021GA1999+004501999GE19MSL   +99999+99999GF108991999999004501999999KA1240M+00551KA2240N+00331MA1999999101881MD1210181+9999MW1601OD139900901999REMSYN11858338 04432 83403 10038 20037 30188 40240 52018 60152 76066 333 10055 20033 3/005 54415 59044 60091 70264 90720 91109=
0254583380999992020012618004+31150+118583FM-12+001699999V0202901N004019999999N002100199+00231+00201102371ADDAA106004031AA212013031AA324025631AY101021AY201021KA1120M+00551KA2120N+00231MA1999999101851MD1710061+9999MW1601OD139900901999REMSYN11858338 04921 /2904 10023 20020 30185 40237 57006 60132 76000 333 10055 20023 3/004 54415 59030 60041 70256 90720 91109=
0166583380999992020012621004+31120+118580FM-12+001899999V0202881N0034199999999002800199+00201+00191102321ADDAA106002331AA224023731AJ100013100009099AY161999AY201999IA2999+00309KA1240M+00551KA2240N+00191MA1999999101801MD1710051-0161MW1601OC100781OD141200781326REMSYN004BUFR
0318583380999992020012700004+31150+118583FM-12+001699999V0202801N003019999999N003600199+00211+00201102411ADDAA106000931AA212005031AA324019631AY161021AY201021GA1999+004501999GE19MSL   +99999+99999GF108991999999004501999999KA1120M+00551KA2120N+00191MA1999999101891MD1210091+9999MW1601OD139900801999REMSYN11858338 04436 82803 10021 20020 30189 40241 52009 60052 76060 333 10055 20019 3/003 54415 59015 69991 70196 90720 91108=
0166583380999992020012703004+31120+118580FM-12+001899999V0202731N0032199999999002400199+00221+00201102501ADDAA106000231AA224018431AJ100003100003099AY101031AY201031IA2999+00309KA1240M+00551KA2240N+00191MA1999999101981MD1210091+0091MW1211OC100661OD141200661267REMSYN004BUFR
0254583380999992020012706004+31150+118583FM-12+001699999V0202801N004019999999N002500199+00251+00221102341ADDAA106000331AA212001031AA324014531AY101021AY201021KA1240M+00551KA2240N+00191MA1999999101821MD1710161+9999MW1601OD139900701999REMSYN11858338 04925 /2804 10025 20022 30182 40234 57016 60012 76000 333 10055 20019 3/003 54415 58015 69931 70145 90720 91107=
0160583380999992020012709004+31120+118580FM-12+001899999V0202781N0030199999999002300199+00221+00221102351ADDAA106000231AA212000431AA324009331AY101031AY201031IA2999+00309KA1240M+00411KA2240N+00191MA1999999101831MD1210011+0131MW1601OC100731OD141200731307REMSYN004BUFR
0318583380999992020012712004+31150+118583FM-12+001699999V0202901N003019999999N003400199+00261+00201102431ADDAA106000131AA212000431AA324005231AY161021AY201021GA1999+004501999GE19MSL   +99999+99999GF108991999999004501999999KA1240M+00381KA2240N+00191MA1999999101911MD1210081+9999MW1101OD139900701999REMSYN11858338 04434 82903 10026 20020 30191 40243 52008 69942 71060 333 10038 20019 3/003 54415 58003 69911 70052 90720 91107=
0254583380999992020012718004+31150+118583FM-12+001699999V0202901N003019999999N004100199+00251+00151102491ADDAA106000091AA212000131AA324001331AY101021AY201021KA1120M+00271KA2120N+00191MA1999999101971MD1410001+9999MW1101OD139900701999REMSYN11858338 04941 /2903 10025 20015 30197 40249 54000 69912 71000 333 10027 20019 3/003 544// 58012 60001 70013 90720 91107=
0144583380999992020012721004+31120+118580FM-12+001899999V0202661N0015199999999003500199+00251+00181102401ADDAA106999999AA212999999AA324000531IA2999+00289KA1240M+00271KA2240N+00201MA1999999101881MD1710091+0081MW1101OC100611OD141200611304REMSYN004BUFR
0254583380999992020012800004+31150+118583FM-12+001699999V0202401N002019999999N003100199+00271+00211102481ADDAA106000091AA212000091AA324000431AY101021AY201021KA1120M+00281KA2120N+00211MA1999999101961MD1210081+9999MW1101OD139900601999REMSYN11858338 04931 /2402 10027 20021 30196 40248 52008 60002 71000 333 10028 20021 3/003 54405 58007 60001 70004 90720 91106=
0224583380999992020012803004+31120+118580FM-12+001899999V0202701N0030199999999005000199+00351+00151102521ADDAA106999999AA212999999AA324000331AY101031AY201031GA1999+006001999GE19MSL   +99999+99999GF108991999999006001999999IA2999+00289KA1240M+00361KA2240N+00231MA1999999102001MD1210041+0021MW1101OC100611OD141200611304REMSYN004BUFR
0254583380999992020012806004+31150+118583FM-12+001699999V0202801N004019999999N007000199+00471+00101102401ADDAA106000091AA212000091AA324000131AY101021AY201021KA1240M+00481KA2240N+00231MA1999999101881MD1710121+9999MW1001OD139900701999REMSYN11858338 04957 /2804 10047 20010 30188 40240 57012 60002 70000 333 10048 20023 3/003 54405 58006 60001 70001 90720 91107=
0224583380999992020012809004+31120+118580FM-12+001899999V0202711N0022199999999008100199+00471+00071102461ADDAA106999999AA212999999AA324999999AY101031AY201031GA1999+004001999GE19MSL   +99999+99999GF108991999999004001999999IA2999+00289KA1240M+00541KA2240N+00231MA1999999101941MD1210061+0111MW1001OC100711OD141200711231REMSYN004BUFR
0318583380999992020012812004+31150+118583FM-12+001699999V0202601N002019999999N007000199+00421+00161102621ADDAA106000091AA212000091AA324000091AY101021AY201021GA1999+004501999GE19MSL   +99999+99999GF108991999999004501999999KA1240M+00541KA2240N+00241MA1999999102101MD1210161+9999MW1001OD139900701999REMSYN11858338 04457 82602 10042 20016 30210 40262 52016 60002 70000 333 10054 20024 3/003 54405 58019 60001 70000 90720 91107=
0254583380999992020012818004+31150+118583FM-12+001699999V0202401N002019999999N005000199+00331+00181102601ADDAA106000091AA212000091AA324000091AY101021AY201021KA1120M+00541KA2120N+00241MA1999999102081MD1710091+9999MW1101OD139900701999REMSYN11858338 04950 /2402 10033 20018 30208 40260 57009 60002 71000 333 10054 20024 3/003 54405 58011 60001 70000 90720 91107=
0136583380999992020012821004+31120+118580FM-12+001899999V0202491N0024199999999004500199+00171+00091102541ADDAA106999999AA212999999AA324999999IA2999+00059KA1240M+00541KA2240N+00181MA1999999102021MD1710061+0141MW1101OD141200441270REMSYN004BUFR
0318583380999992020012900004+31150+118583FM-12+001699999V0202501N002019999999N004700199+00131+00071102631ADDAA106000091AA212000091AA324000091AY101021AY201021GA1999+012501999GE19MSL   +99999+99999GF105991999999012501999999KA1120M+00541KA2120N+00051MA1999999102111MD1210091+9999MW1101OD139900401999REMSYN11858338 04647 52502 10013 20007 30211 40263 52009 60002 71000 333 10054 20005 3/101 54415 58015 60001 70000 90720 91104=
0224583380999992020012903004+31120+118580FM-12+001899999V0202651N0032122000199010200199+00701+00241102671ADDAA106999999AA212999999AA324999999AY101031AY201031GA1999+009001999GE19MSL   +99999+99999GF103991999999009001999999IA2999-00089KA1240M+00691KA2240N+00051MA1999999102151MD1210041+0151MW1001OC100581OD141200581273REMSYN004BUFR
0318583380999992020012906004+31150+118583FM-12+001699999V0202901N005012200019N010000199+00931+00071102401ADDAA106000091AA212000091AA324000091AY101021AY201021GA1999+012501999GE19MSL   +99999+99999GF102991999999012501999999KA1240M+00961KA2240N+00051MA1999999101891MD1710261+9999MW1001OD139900901999REMSYN11858338 04660 22905 10093 20007 30189 40240 57026 60002 70000 333 10096 20005 3/101 54405 58001 60001 70000 90720 91109=
0224583380999992020012909004+31120+118580FM-12+001899999V0202911N0030122000199012200199+00811+00151102371ADDAA106999999AA212999999AA324999999AY101031AY201031GA1999+009001999GE19MSL   +99999+99999GF102991999999009001999999IA2999-00089KA1240M+00961KA2240N+00051MA1999999101861MD1710031-0081MW1001OC100931OD141200931250REMSYN004BUFR
0254583380999992020012912004+31150+118583FM-12+001699999V0202701N002019999999N008000199+00661+00251102461ADDAA106000091AA212000091AA324000091AY101021AY201021KA1240M+00961KA2240N+00051MA1999999101941MD1210081+9999MW1001OD139900901999REMSYN11858338 04958 02702 10066 20025 30194 40246 52008 60002 70000 333 10096 20005 3/001 54405 59016 60001 70000 90720 91109=
0254583380999992020012918004+31150+118583FM-12+001699999V0202901N002019999999N006000199+00501+00301102461ADDAA106000331AA212000331AA324000331AY101021AY201021KA1120M+00961KA2120N+00051MA1999999101951MD1410001+9999MW1101OD139900901999REMSYN11858338 04956 /2902 10050 20030 30195 40246 54000 69932 71000 333 10096 20005 3/004 54405 59013 69931 70003 90720 91109=
0144583380999992020012921004+31120+118580FM-12+001899999V0202881N0023199999999006600199+00311+00071102401ADDAA106000331AA212000331AA324000331IA2999+00089KA1240M+00961KA2240N+00051MA1999999101891MD1710061-0131MW1101OC100581OD141200581301REMSYN004BUFR
0318583380999992020013000004+31150+118583FM-12+001699999V0202701N003012200019N003700199+00201+00081102591ADDAA106000091AA212000331AA324000331AY161021AY201021GA1999+008001999GE19MSL   +99999+99999GF102991999999008001999999KA1120M+00961KA2120N+00131MA1999999102071MD1210181+9999MW1101OD139900601999REMSYN11858338 04537 22703 10020 20008 30207 40259 52018 69932 71060 333 10096 20013 3/100 54405 59004 60001 70003 90720 91106=
0186583380999992020013003004+31120+118580FM-12+001899999V0202951N0040122000199006400199+00621-00091102691ADDAA106999999AA212000331AA324000331AY101031AY201031GF100991999999999999999999IA2999-00019KA1240M+00961KA2240N+00171MA1999999102181MD1210111+0031MW1051OC100831OD141200831287REMSYN004BUFR
0254583380999992020013006004+31150+118583FM-12+001699999V0203001N005019999999N010000199+00831-00261102511ADDAA106000091AA212000091AA324000331AY101021AY201021KA1240M+00961KA2240N+00171MA1999999102001MD1710181+9999MW1001OD139901001999REMSYN11858338 04960 03005 10083 21026 30200 40251 57018 60002 70000 333 10096 20017 3/100 54415 58011 60001 70003 90720 91110=
0186583380999992020013009004+31120+118580FM-12+001899999V0202821N0036122000199010600199+00721-00171102521ADDAA106999999AA212999999AA324000331AY101031AY201031GF100991999999999999999999IA2999-00019KA1240M+00871KA2240N+00171MA1999999102011MD1210011+0151MW1001OC101051OD141201051298REMSYN004BUFR
0254583380999992020013012004+31150+118583FM-12+001699999V0202901N003019999999N007000199+00431-00091102631ADDAA106000091AA212000091AA324000331AY101021AY201021KA1240M+00871KA2240N+00171MA1999999102111MD1210101+9999MW1101OD139901101999REMSYN11858338 04957 02903 10043 21009 30211 40263 52010 60002 71000 333 10087 20017 3/001 54415 58017 60001 70003 90720 91111=
0254583380999992020013018004+31150+118583FM-12+001699999V0202401N002019999999N003300199+00041-00091102661ADDAA106000091AA212000091AA324000091AY101021AY201021KA1120M+00871KA2120N+00041MA1999999102141MD1710051+9999MW1101OD139901101999REMSYN11858338 04933 /2402 10004 21009 30214 40266 57005 60002 71000 333 10087 20004 3/100 54415 58019 60001 70000 90720 91111=
0144583380999992020013021004+31120+118580FM-12+001899999V0202671N0016199999999003000199-00041-00121102621ADDAA106999999AA212999999AA324999999IA2999-00049KA1240M+00871KA2240N-00051MA1999999102101MD1710041+0211MW1101OC100711OD141200711270REMSYN004BUFR
0254583380999992020013100004+31150+118583FM-12+001699999V0202401N001019999999N003600199+00011-00101102791ADDAA106000091AA212000091AA324000091AY101021AY201021KA1120M+00871KA2120N-00061MA1999999102271MD1210171+9999MW1101OD139900401999REMSYN11858338 04936 02401 10001 21010 30227 40279 52017 60002 71000 333 10087 21006 3/101 54415 58020 60001 70000 90720 91104=
0178583380999992020013103004+31120+118580FM-12+001899999V0202861N0012122000199007000199+00811-00011102801ADDAA106999999AA212999999AA324999999AY101031AY201031GF100991999999999999999999IA2999-00089KA1240M+00871KA2240N-00061MA1999999102281MD1210011+0101MW1051OD141200301248REMSYN004BUFR
0254583380999992020013106004+31150+118583FM-12+001699999V0203301N002019999999N010000199+01121-00161102531ADDAA106000091AA212000091AA324000091AY101021AY201021KA1240M+01141KA2240N-00061MA1999999102021MD1710261+9999MW1001OD139900401999REMSYN11858338 04960 /3302 10112 21016 30202 40253 57026 60002 70000 333 10114 21006 3/101 54405 58002 60001 70000 90720 91104=
0152583380999992020013109004+31120+118580FM-12+001899999V0200661N0027199999999014200199+00951-00451102521ADDAA106999999AA212999999AA324999999AY101031AY201031IA2999-00089KA1240M+01191KA2240N-00061MA1999999102001MD1710021-0011MW1001OD141200491053REMSYN004BUFR
0254583380999992020013112004+31150+118583FM-12+001699999V0201101N003019999999N009000199+00351+00041102621ADDAA106000091AA212000091AA324000091AY101021AY201021KA1240M+01191KA2240N-00061MA1999999102101MD1210101+9999MW1001OD139900501999REMSYN11858338 04959 01103 10035 20004 30210 40262 52010 60002 70000 333 10119 21006 3/100 54415 59001 60001 70000 90720 91105=
0254583380999992020013118004+31150+118583FM-12+001699999V0200901N002019999999N005000199+00141+00011102601ADDAA106000091AA212000091AA324000091AY101021AY201021KA1120M+01191KA2120N-00061MA1999999102091MD1710051+9999MW1101OD139900501999REMSYN11858338 04950 /0902 10014 20001 30209 40260 57005 60002 71000 333 10119 21006 3/101 54405 59005 60001 70000 90720 91105=
0136583380999992020013121004+31120+118580FM-12+001899999V0201331N0016199999999006000199-00041-00151102621ADDAA106999999AA212999999AA324999999IA2999-00069KA1240M+01191KA2240N-00061MA1999999102101MD1210011+0001MW1101OD141200351059REMSYN004BUFR
0254583380999992020020100004+31150+118583FM-12+001699999V0201101N003019999999N004900199+00131+00011102761ADDAA106000091AA212000091AA324000091AY101021AY201021KA1120M+01191KA2120N-00111MA1999999102241MD1210141+9999MW1101OD139900401999REMSYN11858338 04949 01103 10013 20001 30224 40276 52014 60002 71000 333 10119 21011 3/101 54405 59003 60001 70000 90720 91104=
0178583380999992020020103004+31120+118580FM-12+001899999V0201011N0023122000199011700199+00951+00071102741ADDAA106999999AA212999999AA324999999AY101031AY201031GF100991999999999999999999IA2999-00089KA1240M+01191KA2240N-00111MA1999999102231MD1710011-0051MW1001OD141200441124REMSYN004BUFR
0254583380999992020020106004+31150+118583FM-12+001699999V0200901N003019999999N019000199+01371-00361102471ADDAA106000091AA212000091AA324000091AY101021AY201021KA1240M+01371KA2240N-00111MA1999999101961MD1710271+9999MW1001OD139900701999REMSYN11858338 04969 /0903 10137 21036 30196 40247 57027 60002 70000 333 10137 21011 3/101 54405 59006 60001 70000 90720 91107=
0186583380999992020020109004+31120+118580FM-12+001899999V0200851N0036122000199030000199+01251-00511102441ADDAA106999999AA212999999AA324999999AY101031AY201031GF100991999999999999999999IA2999-00089KA1240M+01401KA2240N-00111MA1999999101931MD1710031-0071MW1001OC100721OD141200721121REMSYN004BUFR
0254583380999992020020112004+31150+118583FM-12+001699999V0200701N004019999999N030000199+00821-00131102571ADDAA106000091AA212000091AA324000091AY101021AY201021KA1240M+01401KA2240N-00111MA1999999102051MD1210121+9999MW1001OD139900701999REMSYN11858338 04980 /0704 10082 21013 30205 40257 52012 60002 70000 333 10140 21011 3/100 54405 59005 60001 70000 90720 91107=
0254583380999992020020118004+31150+118583FM-12+001699999V0201001N004019999999N030000199+00721-00201102521ADDAA106000091AA212000091AA324000091AY101021AY201021KA1120M+01401KA2120N-00111MA1999999102011MD1710061+9999MW1001OD139900801999REMSYN11858338 04980 /1004 10072 21020 30201 40252 57006 60002 70000 333 10140 21011 3/004 54406 59008 60001 70000 90720 91108=
0144583380999992020020121004+31120+118580FM-12+001899999V0200971N0038199999999030000199+00621-00101102441ADDAA106999999AA212999999AA324999999IA2999+00309KA1240M+01401KA2240N-00111MA1999999101931MD1710081-0171MW1001OC100791OD141200791093REMSYN004BUFR
0302583380999992020020200004+31150+118583FM-12+001699999V0200801N004012200019N030000199+00651+00121102561ADDAA106000091AA212000091AA324000091AY101021AY201021GE19MSL   +99999+99999GF104991999999999999999999KA1120M+01401KA2120N+00131MA1999999102051MD1210121+9999MW1001OD139900801999REMSYN11858338 04980 40804 10065 20012 30205 40256 52012 60002 70000 333 10140 20013 3/001 54405 59019 60001 70000 90720 91108=
0186583380999992020020203004+31120+118580FM-12+001899999V0201121N0028199999999025000199+00921+00251102561ADDAA106999999AA212999999AA324999999AY101031AY201031GF107991999999999999999999IA2999+00139KA1240M+01401KA2240N+00481MA1999999102051MD1410001-0181MW1001OC100741OD141200741093REMSYN004BUFR
0280583380999992020020206004+31150+118583FM-12+001699999V0200601N002019999999N025000199+01081+00161102381ADDAA106000091AA212000091AA324000091AY101021AY201021GF107991999999999999999999KA1240M+01401KA2240N+00481MA1999999101871MD1710181+9999MW1001OD139900701999REMSYN11858338 04975 70602 10108 20016 30187 40238 57018 60002 70000 333 10140 20048 3/001 54415 59009 60001 70000 90720 91107=
0224583380999992020020209004+31120+118580FM-12+001899999V0200711N0011199999999023800199+01071+00241102411ADDAA106999999AA212999999AA324999999AY101031AY201031GA1999+018001999GE19MSL   +99999+99999GF108991999999018001999999IA2999+00139KA1240M+01231KA2240N+00481MA1999999101901MD1210031-0031MW1001OC100731OD141200731127REMSYN004BUFR
0318583380999992020020212004+31150+118583FM-12+001699999V0202201N001019999999N020000199+00851+00311102581ADDAA106000091AA212000091AA324000091AY101021AY201021GA1999+017501999GE19MSL   +99999+99999GF108991999999017501999999KA1240M+01161KA2240N+00481MA1999999102071MD1210171+9999MW1001OD139900701999REMSYN11858338 04770 82201 10085 20031 30207 40258 52017 60002 70000 333 10116 20048 3/004 544// 58002 60001 70000 90720 91107=
0254583380999992020020218004+31150+118583FM-12+001699999V0209999C999999999999N012000199+00681+00411102671ADDAA106000091AA212000091AA324000091AY101021AY201021KA1120M+01161KA2120N+00481MA1999999102161MD1710021+9999MW1001OD139900401999REMSYN11858338 04962 /0000 10068 20041 30216 40267 57002 60002 70000 333 10116 20048 3/005 544// 58015 60001 70000 90720 91104=
0136583380999992020020221004+31120+118580FM-12+001899999V0203601N0001199999999008300199+00451+00331102601ADDAA106999999AA212999999AA324999999IA2999+00209KA1240M+01161KA2240N+00441MA1999999102091MD1710071+0161MW1001OD141200441214REMSYN004BUFR
0302583380999992020020300004+31150+118583FM-12+001699999V0200601N001012200019N007000199+00391+00291102871ADDAA106000091AA212000091AA324000091AY101021AY201021GE19MSL   +99999+99999GF102991999999999999999999KA1120M+01161KA2120N+00321MA1999999102361MD1210271+9999MW1001OD139900401999REMSYN11858338 04957 20601 10039 20029 30236 40287 52027 60002 70000 333 10116 20032 3/001 54415 58031 60001 70000 90720 91104=
0224583380999992020020303004+31120+118580FM-12+001899999V0200701N0054199999999012500199+01011+00321102971ADDAA106999999AA212999999AA324999999AY101031AY201031GA1999+025001999GE19MSL   +99999+99999GF105991999999025001999999IA2999+00119KA1240M+01161KA2240N+00321MA1999999102461MD1210101+0411MW1001OC100821OD141200821090REMSYN004BUFR
0302583380999992020020306004+31150+118583FM-12+001699999V0200501N004012200019N008000199+01021+00371102691ADDAA106000091AA212000091AA324000091AY101021AY201021GE19MSL   +99999+99999GF102991999999999999999999KA1240M+01161KA2240N+00321MA1999999102181MD1710281+9999MW1001OD139901001999REMSYN11858338 04958 20504 10102 20037 30218 40269 57028 60002 70000 333 10116 20032 3/001 54415 58031 60001 70000 90720 91110=
0186583380999992020020309004+31120+118580FM-12+001899999V0200651N0042199999999007700199+01001+00431102621ADDAA106999999AA212999999AA324999999AY101031AY201031GF107991999999999999999999IA2999+00119KA1240M+01081KA2240N+00321MA1999999102111MD1710071+0211MW1001OC100971OD141200971068REMSYN004BUFR
0280583380999992020020312004+31150+118583FM-12+001699999V0200601N004019999999N004900199+00691+00371102731ADDAA106000091AA212000091AA324000091AY101021AY201021GF107991999999999999999999KA1240M+01081KA2240N+00321MA1999999102211MD1210101+9999MW1101OD139901001999REMSYN11858338 04949 70604 10069 20037 30221 40273 52010 60002 71000 333 10108 20032 3/004 54415 58014 60001 70000 90720 91110=
0254583380999992020020318004+31150+118583FM-12+001699999V0201001N003019999999N003500199+00521+00391102571ADDAA106000091AA212000091AA324000091AY101021AY201021KA1120M+01081KA2120N+00321MA1999999102061MD1710141+9999MW1101OD139900801999REMSYN11858338 04935 /1003 10052 20039 30206 40257 57014 60002 71000 333 10108 20032 3/002 54415 59010 60001 70000 90720 91108=
0144583380999992020020321004+31120+118580FM-12+001899999V0201121N0031199999999002600199+00421+00361102511ADDAA106999999AA212999999AA324999999IA2999+00149KA1240M+01081KA2240N+00321MA1999999102001MD1710061-0091MW1101OC100781OD141200781059REMSYN004BUFR
0254583380999992020020400004+31150+118583FM-12+001699999V0201101N003019999999N004200199+00481+00391102611ADDAA106000091AA212000091AA324000091AY101021AY201021KA1120M+01081KA2120N+00361MA1999999102101MD1210101+9999MW1101OD139900601999REMSYN11858338 04942 01103 10048 20039 30210 40261 52010 60002 71000 333 10108 20036 3/001 54405 59026 60001 70000 90720 91106=
0186583380999992020020403004+31120+118580FM-12+001899999V0201471N0016122000199009500199+01121+00471102621ADDAA106999999AA212999999AA324999999AY101031AY201031GF100991999999999999999999IA2999+00089KA1240M+01121KA2240N+00361MA1999999102111MD1210011-0351MW1001OC100641OD141200641121REMSYN004BUFR
0254583380999992020020406004+31150+118583FM-12+001699999V0202601N002019999999N013000199+01561+00431102331ADDAA106000091AA212000091AA324000091AY101021AY201021KA1240M+01561KA2240N+00361MA1999999101831MD1710281+9999MW1001OD139900601999REMSYN11858338 04963 02602 10156 20043 30183 40233 57028 60002 70000 333 10156 20036 3/001 54405 59035 60001 70000 90720 91106=
0186583380999992020020409004+31120+118580FM-12+001899999V0200591N0027122000199016200199+01261+00331102381ADDAA106999999AA212999999AA324999999AY101031AY201031GF100991999999999999999999IA2999+00089KA1240M+01581KA2240N+00361MA1999999101871MD1210041-0241MW1001OC100611OD141200611146REMSYN004BUFR
0260583380999992020020412004+31150+118583FM-12+001699999V0200501N002019999999N012000199+00751+00371102541ADDAA106000091AA212000091AA324000091AY101021AY201021KA1240M+01581KA2240N+00361MA1999999102031MD1210161+9999MW1001OD139900601999REMSYN12458338 04962 00502 10075 20037 30203 40254 52016 60002 70000 333 10158 20036 3/003 54405 59018 60001 70000 80/// 90720 91106=
0254583380999992020020418004+31150+118583FM-12+001699999V0201101N002019999999N005000199+00541+00451102691ADDAA106000091AA212000091AA324000091AY101021AY201021KA1120M+01581KA2120N+00361MA1999999102181MD1210021+9999MW1101OD139900601999REMSYN11858338 04950 /1102 10054 20045 30218 40269 52002 60002 71000 333 10158 20036 3/002 544// 58012 60001 70000 90720 91106=
0254583380999992020020500004+31150+118583FM-12+001699999V0201001N003019999999N003700199+00541+00511102871ADDAA106000091AA212000091AA324000091AY101021AY201021KA1120M+01581KA2120N+00401MA1999999102361MD1210151+9999MW1101OD139900501999REMSYN11858338 04937 01003 10054 20051 30236 40287 52015 60002 71000 333 10158 20040 3/001 54405 58026 60001 70000 90720 91105=
0186583380999992020020503004+31120+118580FM-12+001899999V0200951N0058122000199010700199+01011+00571102961ADDAA106999999AA212999999AA324999999AY101031AY201031GF100991999999999999999999IA2999+00079KA1240M+01581KA2240N+00401MA1999999102451MD1210091+0341MW1001OC100971OD141200971051REMSYN004BUFR
0318583380999992020020506004+31150+118583FM-12+001699999V0200601N005012200019N016000199+01181+00381102741ADDAA106000091AA212000091AA324000091AY101021AY201021GA1999+008001999GE19MSL   +99999+99999GF102991999999008001999999KA1240M+01581KA2240N+00401MA1999999102231MD1710221+9999MW1001OD139901101999REMSYN11858338 04566 20605 10118 20038 30223 40274 57022 60002 70000 333 10158 20040 3/001 54415 58040 60001 70000 90720 91111=
0186583380999992020020509004+31120+118580FM-12+001899999V0200981N0055122000199023000199+01151-00061102701ADDAA106999999AA212999999AA324999999AY101031AY201031GF100991999999999999999999IA2999+00079KA1240M+01281KA2240N+00401MA1999999102191MD1710041+0321MW1001OC101091OD141201091121REMSYN004BUFR
0302583380999992020020512004+31150+118583FM-12+001699999V0200801N005019999999N022000199+00771+00111102921ADDAA106000091AA212000091AA324000091AY101021AY201021GE19MSL   +99999+99999GF106991999999999999999999KA1240M+01281KA2240N+00401MA1999999102411MD1210221+9999MW1001OD139901101999REMSYN11858338 04972 60805 10077 20011 30241 40292 52022 60002 70000 333 10128 20040 3/004 544// 58038 60001 70000 90720 91111=
0254583380999992020020518004+31150+118583FM-12+001699999V0201001N008019999999N013000199+00621+00301102811ADDAA106000091AA212000091AA324000091AY101021AY201021KA1120M+01281KA2120N+00401MA1999999102301MD1710081+9999MW1001OD139901401999REMSYN11858338 04963 /1008 10062 20030 30230 40281 57008 60002 70000 333 10128 20040 3/004 54405 58012 60001 70000 90720 91114=
0144583380999992020020521004+31120+118580FM-12+001899999V0200951N0084199999999014100199+00611+00261102731ADDAA106999999AA212999999AA324999999IA2999+00379KA1240M+01281KA2240N+00401MA1999999102221MD1710081+0011MW1001OC101591OD141201591124REMSYN004BUFR
0302583380999992020020600004+31150+118583FM-12+001699999V0201101N009019999999N013000199+00591+00251102761ADDAA106000091AA212000091AA324000091AY101021AY201021GE19MSL   +99999+99999GF108991999999999999999999KA1120M+01281KA2120N+00541MA1999999102251MD1210031+9999MW1001OD139901601999REMSYN11858338 04963 81109 10059 20025 30225 40276 52003 60002 70000 333 10128 20054 3/004 54405 59011 60001 70000 90720 91116=
0224583380999992020020603004+31120+118580FM-12+001899999V0201041N0087199999999016000199+00601+00241102871ADDAA106999999AA212999999AA324999999AY101031AY201031GA1999+025001999GE19MSL   +99999+99999GF108991999999025001999999IA2999+00379KA1240M+01281KA2240N+00561MA1999999102361MD1210111-0091MW1601OC101691OD141201691121REMSYN004BUFR
0318583380999992020020606004+31150+118583FM-12+001699999V0200901N007019999999N013000199+00431+00311102571ADDAA106001031AA212001031AA324001231AY161021AY201021GA1999+004501999GE19MSL   +99999+99999GF108991999999004501999999KA1240M+01281KA2240N+00431MA1999999102061MD1710301+9999MW1601OD139901701999REMSYN11858338 04463 80907 10043 20031 30206 40257 57030 60012 76060 333 10128 20043 3/004 54418 59017 60011 70012 90720 91117=
0230583380999992020020609004+31120+118580FM-12+001899999V0200691N0052199999999013200199+00361+00291102641ADDAA106004531AA224004531AJ100003100005099AY161031AY261031GA1999+002001999GE19MSL   +99999+99999GF108991999999002001999999IA2999+00449KA1240M+01151KA2240N+00361MA1999999102121MD1210061-0071MW1611OC101691OD141201691121REMSYN004BUFR
0318583380999992020020612004+31150+118583FM-12+001699999V0200801N005019999999N018000199+00351+00281102821ADDAA106006031AA212007032AA324006732AY161021AY261021GA1999+002501999GE19MSL   +99999+99999GF108991999999002501999999KA1240M+00781KA2240N+00331MA1999999102301MD1210181+9999MW1611OD139901701999REMSYN11858338 04368 80805 10035 20028 30230 40282 52018 60072 76166 333 10078 20033 3/004 54415 59011 60061 70067 90720 91117=
0254583380999992020020618004+31150+118583FM-12+001699999V0200801N005019999999N017000199+00381+00321102821ADDAA106003031AA212008031AA324009231AY101021AY201021KA1120M+00621KA2120N+00331MA1999999102301MD1710061+9999MW1601OD139901401999REMSYN11858338 04967 /0805 10038 20032 30230 40282 57006 60082 76000 333 10062 20033 3/004 54415 58000 60031 70092 90720 91114=
0166583380999992020020621004+31120+118580FM-12+001899999V0200721N0030199999999015700199+00401+00331102821ADDAA106001131AA224009431AJ100003100005099AY161999AY201999IA2999+00389KA1240M+00611KA2240N+00331MA1999999102301MD1410001+0081MW1601OC101051OD141201051093REMSYN004BUFR
0318583380999992020020700004+31150+118583FM-12+001699999V0200801N004019999999N006000199+00411+00371102981ADDAA106001031AA212004031AA324010231AY161021AY201021GA1999+002501999GE19MSL   +99999+99999GF108991999999002501999999KA1120M+00611KA2120N+00331MA1999999102461MD1210161+9999MW1601OD139901101999REMSYN11858338 04356 80804 10041 20037 30246 40298 52016 60042 76060 333 10061 20033 3/004 54415 58021 60011 70102 90720 91111=
0224583380999992020020703004+31120+118580FM-12+001899999V0201101N0043199999999017400199+00511+00421103041ADDAA106001431AA212002531AA324010831AY161031AY261031GA1999+002001999GE19MSL   +99999+99999GF108991999999002001999999IA2999+00399KA1240M+00591KA2240N+00331MA1999999102521MD1210061+0161MW1601OC100831OD141200831051REMSYN004BUFR
0254583380999992020020706004+31150+118583FM-12+001699999V0200801N002019999999N027000199+00611+00441102881ADDAA106000731AA212002031AA324009731AY101021AY201021KA1240M+00621KA2240N+00331MA1999999102361MD1710161+9999MW1001OD139900801999REMSYN11858338 04977 /0802 10061 20044 30236 40288 57016 60022 70000 333 10062 20033 3/004 54405 58030 69971 70097 90720 91108=
0224583380999992020020709004+31120+118580FM-12+001899999V0200461N0016199999999003400199+00571+00501102931ADDAA106000231AA212001631AA324006531AY101031AY201031GA1999+002001999GE19MSL   +99999+99999GF108991999999002001999999IA2999+00409KA1240M+00641KA2240N+00331MA1999999102411MD1210051+0291MW1211OC100731OD141200731110REMSYN004BUFR
0254583380999992020020712004+31150+118583FM-12+001699999V0200701N001019999999N003600199+00561+00531103061ADDAA106000531AA212001031AA324004731AY101021AY201021KA1240M+00641KA2240N+00351MA1999999102541MD1210131+9999MW1101OD139900701999REMSYN11858338 04936 /0701 10056 20053 30254 40306 52013 60012 71000 333 10064 20035 3/005 54405 58024 69951 70047 90720 91107=
0254583380999992020020718004+31150+118583FM-12+001699999V0203401N001019999999N002700199+00561+00531103171ADDAA106000431AA212000731AA324002431AY101021AY201021KA1120M+00641KA2120N+00381MA1999999102651MD1210031+9999MW1101OD139900401999REMSYN11858338 04927 /3401 10056 20053 30265 40317 52003 69972 71000 333 10064 20038 3/006 54405 58035 69941 70024 90720 91104=
0136583380999992020020721004+31120+118580FM-12+001899999V0200231N0011199999999002500199+00551+00521103131ADDAA106999999AA212000431AA324002231IA2999+00579KA1240M+00641KA2240N+00391MA1999999102611MD1710041+0311MW1101OD141200331087REMSYN004BUFR
0254583380999992020020800004+31150+118583FM-12+001699999V0200201N001019999999N002700199+00571+00541103271ADDAA106000091AA212000431AA324001431AY101021AY201021KA1120M+00641KA2120N+00411MA1999999102751MD1210141+9999MW1101OD139900301999REMSYN11858338 04927 /0201 10057 20054 30275 40327 52014 69942 71000 333 10064 20041 3/006 54405 58029 60001 70014 90720 91103=
0216583380999992020020803004+31120+118580FM-12+001899999V0200681N0018199999999006700199+00701+00551103341ADDAA106999999AA212999999AA324000831AY101031AY201031GA1999+003001999GE19MSL   +99999+99999GF108991999999003001999999IA2999+00569KA1240M+00691KA2240N+00521MA1999999102821MD1210071+0301MW1101OD141200291056REMSYN004BUFR
0318583380999992020020806004+31150+118583FM-12+001699999V0203601N002019999999N011000199+00851+00471103221ADDAA106000091AA212000091AA324000731AY101021AY201021GA1999+004501999GE19MSL   +99999+99999GF108991999999004501999999KA1240M+00861KA2240N+00551MA1999999102711MD1710111+9999MW1001OD139900301999REMSYN11858338 04461 83602 10085 20047 30271 40322 57011 60002 70000 333 10086 20055 3/006 54405 58035 60001 70007 90720 91103=
0152583380999992020020809004+31120+118580FM-12+001899999V0203251N0014199999999012300199+00821+00411103201ADDAA106999999AA212999999AA324000431AY101031AY201031IA2999+00569KA1240M+00911KA2240N+00551MA1999999102691MD1710021+0281MW1001OD141200381059REMSYN004BUFR
0254583380999992020020812004+31150+118583FM-12+001699999V0200301N002019999999N010000199+00711+00411103291ADDAA106000091AA212000091AA324000431AY101021AY201021KA1240M+00911KA2240N+00551MA1999999102771MD1210081+9999MW1001OD139900401999REMSYN11858338 04960 /0302 10071 20041 30277 40329 52008 60002 70000 333 10091 20055 3/006 54405 58023 60001 70004 90720 91104=
0254583380999992020020818004+31150+118583FM-12+001699999V0202401N001019999999N002900199+00561+00501103331ADDAA106000091AA212000091AA324000091AY101021AY201021KA1120M+00911KA2120N+00551MA1999999102811MD1710031+9999MW1101OD139900401999REMSYN11858338 04929 /2401 10056 20050 30281 40333 57003 60002 71000 333 10091 20055 3/006 544// 58016 60001 70000 90720 91104=
0136583380999992020020821004+31120+118580FM-12+001899999V0202831N0019199999999001200199+00271+00241103261ADDAA106999999AA212999999AA324999999IA2999+00249KA1240M+00911KA2240N+00271MA1999999102741MD1710071+0131MW1101OD141200301017REMSYN004BUFR
0254583380999992020020900004+31150+118583FM-12+001699999V0202401N001019999999N000200199+00181+00171103301ADDAA106000091AA212000091AA324000091AY101021AY201021KA1120M+00911KA2120N+00151MA1999999102781MD1210041+9999MW1461OD139900301999REMSYN11858338 04902 /2401 10018 20017 30278 40330 52004 60002 74600 333 10091 20015 3/002 54415 58003 60001 70000 90720 91103=
0152583380999992020020903004+31120+118580FM-12+001899999V0202611N0023199999999005700199+00621+00621103331ADDAA106999999AA212999999AA324999999AY101031AY201031IA2999+00249KA1240M+00911KA2240N+00151MA1999999102811MD1210031-0011MW1101OD141200411231REMSYN004BUFR
0254583380999992020020906004+31150+118583FM-12+001699999V0202701N003019999999N014000199+01161+00431102931ADDAA106000091AA212000091AA324000091AY101021AY201021KA1240M+01161KA2240N+00151MA1999999102421MD1710391+9999MW1001OD139900601999REMSYN11858338 04964 /2703 10116 20043 30242 40293 57039 60002 70000 333 10116 20015 3/002 54405 59029 60001 70000 90720 91106=
0186583380999992020020909004+31120+118580FM-12+001899999V0202641N0012122000199016700199+01251+00441102781ADDAA106999999AA212999999AA324999999AY101031AY201031GF100991999999999999999999IA2999+00259KA1240M+01301KA2240N+00151MA1999999102271MD1710151-0421MW1001OC100581OD141200581301REMSYN004BUFR
0254583380999992020020912004+31150+118583FM-12+001699999V0201501N001019999999N012000199+00651+00431102731ADDAA106000091AA212000091AA324000091AY101021AY201021KA1240M+01301KA2240N+00151MA1999999102211MD1710061+9999MW1001OD139900601999REMSYN11858338 04962 /1501 10065 20043 30221 40273 57006 60002 70000 333 10130 20015 3/005 54415 59056 60001 70000 90720 91106=
0254583380999992020020918004+31150+118583FM-12+001699999V0202801N001019999999N015000199+00301+00091102691ADDAA106000091AA212000091AA324000091AY101021AY201021KA1120M+01301KA2120N+00151MA1999999102181MD1710031+9999MW1001OD139900501999REMSYN11858338 04965 /2801 10030 20009 30218 40269 57003 60002 70000 333 10130 20015 3/001 54415 59063 60001 70000 90720 91105=
0136583380999992020020921004+31120+118580FM-12+001899999V0201361N0012199999999005500199+00151+00051102561ADDAA106999999AA212999999AA324999999IA2999+00029KA1240M+01301KA2240N+00111MA1999999102051MD1710131-0691MW1101OD141200231090REMSYN004BUFR
0254583380999992020021000004+31150+118583FM-12+001699999V0201201N001019999999N011000199+00301+00231102611ADDAA106000091AA212000091AA324000091AY101021AY201021KA1120M+01301KA2120N+00111MA1999999102091MD1210041+9999MW1001OD139900301999REMSYN11858338 04961 /1201 10030 20023 30209 40261 52004 60002 70000 333 10130 20011 3/000 54405 59069 60001 70000 90720 91103=
0216583380999992020021003004+31120+118580FM-12+001899999V0201261N0019122000199020600199+01351+00511102521ADDAA106999999AA212999999AA324999999AY101031AY201031GA1999+025001999GE19MSL   +99999+99999GF102991999999025001999999IA2999+00029KA1240M+01341KA2240N+00111MA1999999102011MD1710081-0801MW1001OD141200371121REMSYN004BUFR
0280583380999992020021006004+31150+118583FM-12+001699999V0201001N002019999999N030000199+01511+00331102221ADDAA106000091AA212000091AA324000091AY101021AY201021GF107991999999999999999999KA1240M+01531KA2240N+00111MA1999999101711MD1710301+9999MW1001OD139900401999REMSYN11858338 04980 71002 10151 20033 30171 40222 57030 60002 70000 333 10153 20011 3/000 54405 59071 60001 70000 90720 91104=
0216583380999992020021009004+31120+118580FM-12+001899999V0201481N0015199999999030000199+01301+00391102281ADDAA106999999AA212999999AA324999999AY101031AY201031GA1999+018001999GE19MSL   +99999+99999GF108991999999018001999999IA2999+00079KA1240M+01531KA2240N+00111MA1999999101771MD1210061-0501MW1001OD141200381121REMSYN004BUFR
0254583380999992020021012004+31150+118583FM-12+001699999V0202401N002019999999N017000199+01001+00621102251ADDAA106000131AA212000131AA324000131AY101021AY201021KA1240M+01531KA2240N+00111MA1999999101741MD1710031+9999MW1601OD139900401999REMSYN11858338 04967 /2402 10100 20062 30174 40225 57003 69912 76000 333 10153 20011 3/003 54405 59047 69911 70001 90720 91104=
0254583380999992020021018004+31150+118583FM-12+001699999V0201301N002019999999N002400199+00851+00821102201ADDAA106002031AA212002031AA324002231AY101021AY201021KA1120M+01531KA2120N+00111MA1999999101701MD1710121+9999MW1601OD139900401999REMSYN11858338 04924 /1302 10085 20082 30170 40220 57012 60022 76000 333 10153 20011 3/008 54406 59048 60021 70022 90720 91104=
0136583380999992020021021004+31120+118580FM-12+001899999V0201361N0019199999999005800199+00851+00821102101ADDAA106003531AA212005031AA324005031IA2999+00829KA1240M+01531KA2240N+00121MA1999999101601MD1710101-0451MW1601OD141200401107REMSYN004BUFR
0318583380999992020021100004+31150+118583FM-12+001699999V0201101N002019999999N004100199+00851+00841102151ADDAA106008031AA212010031AA324010031AY161021AY201021GA1999+004501999GE19MSL   +99999+99999GF108991999999004501999999KA1120M+01531KA2120N+00301MA1999999101641MD1210041+9999MW1601OD139900401999REMSYN11858338 04441 81102 10085 20084 30164 40215 52004 60102 76060 333 10153 20030 3/008 54406 59045 60081 70100 90720 91104=
0216583380999992020021103004+31120+118580FM-12+001899999V0201261N0011199999999006500199+00951+00931102201ADDAA106005231AA212008731AA324010231AY161031AY261031GA1999+004001999GE19MSL   +99999+99999GF108991999999004001999999IA2999+00829KA1240M+01531KA2240N+00831MA1999999101691MD1210051-0321MW1211OD141200401107REMSYN004BUFR
0254583380999992020021106004+31150+118583FM-12+001699999V0202101N001019999999N011000199+01021+00961101941ADDAA106000331AA212008031AA324010331AY101021AY201021KA1240M+01511KA2240N+00831MA1999999101441MD1710251+9999MW1001OD139900401999REMSYN11858338 04961 /2101 10102 20096 30144 40194 57025 60082 70000 333 10151 20083 3/008 54415 59027 69931 70103 90720 91104=
0216583380999992020021109004+31120+118580FM-12+001899999V0201001N0020199999999007700199+01001+00951101891ADDAA106000131AA212005331AA324010331AY101031AY201031GA1999+008001999GE19MSL   +99999+99999GF108991999999008001999999IA2999+00829KA1240M+01301KA2240N+00831MA1999999101391MD1710051-0381MW1001OD141200361124REMSYN004BUFR
0273583380999992020021112004+31150+118583FM-12+001699999V0201301N001019999999N006000199+00961+00931101941ADDAA106999999AA212000331AA324010231AY101021AY201021KA1240M+01061KA2240N+00831MA1999999101441MD1210051+9999MW1211OD139900301999REMSYN11858338 04956 /1301 10096 20093 30144 40194 52005 69932 72100 333 10106 20083 3/009 544// 59030 60001 70102 90720 91103=EQDQ01  00002PRCP06
0254583380999992020021118004+31150+118583FM-12+001699999V0209999C999999999999N002800199+00941+00931101861ADDAA106000331AA212000331AA324008431AY101021AY201021KA1120M+01061KA2120N+00831MA1999999101361MD1710031+9999MW1101OD139900301999REMSYN11858338 04928 /0000 10094 20093 30136 40186 57003 69932 71000 333 10106 20083 3/009 54405 59034 69931 70084 90720 91103=
0136583380999992020021121004+31120+118580FM-12+001899999V0202651N0005199999999000800199+00911+00901101791ADDAA106999999AA212000331AA324005631IA2999+00889KA1240M+01061KA2240N+00831MA1999999101291MD1710071-0311MW1101OD141200291143REMSYN004BUFR
