0088583670999992020010100004+31198+121336FM-15+000399999V0200701V002019999999Y009900599+00401-00201999999ADDMA1103401999999REMMET061METAR ZSSS 010000Z 07002MPS 030V090 CAVOK 04/M02 Q1034 NOSIG=
0088583670999992020010100304+31198+121336FM-15+000399999V0200801V002019999999Y009900599+00501-00201999999ADDMA1103501999999REMMET061METAR ZSSS 010030Z 08002MPS 050V110 CAVOK 05/M02 Q1035 NOSIG=
0088583670999992020010101004+31198+121336FM-15+000399999V0201001V003019999999Y009900599+00601-00201999999ADDMA1103501999999REMMET061METAR ZSSS 010100Z 10003MPS 080V160 CAVOK 06/M02 Q1035 NOSIG=
0088583670999992020010101304+31198+121336FM-15+000399999V0201101V004019999999Y009900599+00701-00101999999ADDMA1103401999999REMMET061METAR ZSSS 010130Z 11004MPS 080V160 CAVOK 07/M01 Q1034 NOSIG=
0088583670999992020010102004+31198+121336FM-15+000399999V0201301V003019999999Y009900599+00801-00101999999ADDMA1103401999999REMMET061METAR ZSSS 010200Z 13003MPS 070V180 CAVOK 08/M01 Q1034 NOSIG=
0088583670999992020010102304+31198+121336FM-15+000399999V0201301V003019999999Y009900599+00801-00101999999ADDMA1103401999999REMMET061METAR ZSSS 010230Z 13003MPS 080V160 CAVOK 08/M01 Q1034 NOSIG=
0088583670999992020010103004+31198+121336FM-15+000399999V0201301V003019999999Y009900599+00801-00101999999ADDMA1103301999999REMMET061METAR ZSSS 010300Z 13003MPS 090V150 CAVOK 08/M01 Q1033 NOSIG=
0088583670999992020010103304+31198+121336FM-15+000399999V0201601V002019999999Y009900599+01001-00101999999ADDMA1103301999999REMMET061METAR ZSSS 010330Z 16002MPS 090V210 CAVOK 10/M01 Q1033 NOSIG=
0088583670999992020010104004+31198+121336FM-15+000399999V0201601V003019999999Y009900599+00901-00101999999ADDMA1103201999999REMMET061METAR ZSSS 010400Z 16003MPS 090V210 CAVOK 09/M01 Q1032 NOSIG=
0088583670999992020010104304+31198+121336FM-15+000399999V0201501V002019999999Y009900599+01001-00101999999ADDMA1103201999999REMMET061METAR ZSSS 010430Z 15002MPS 110V240 CAVOK 10/M01 Q1032 NOSIG=
0080583670999992020010105004+31198+121336FM-15+000399999V0209999V002019999999Y009900599+01001-00101999999ADDMA1103201999999REMMET053METAR ZSSS 010500Z VRB02MPS CAVOK 10/M01 Q1032 NOSIG=
0080583670999992020010105304+31198+121336FM-15+000399999V0209999V002019999999Y009900599+01001-00101999999ADDMA1103101999999REMMET053METAR ZSSS 010530Z VRB02MPS CAVOK 10/M01 Q1031 NOSIG=
0080583670999992020010106004+31198+121336FM-15+000399999V0209999V003019999999Y009900599+01101-00101999999ADDMA1103101999999REMMET053METAR ZSSS 010600Z VRB03MPS CAVOK 11/M01 Q1031 NOSIG=
0088583670999992020010106304+31198+121336FM-15+000399999V0202301V002019999999Y009900599+01101-00101999999ADDMA1103101999999REMMET061METAR ZSSS 010630Z 23002MPS 200V260 CAVOK 11/M01 Q1031 NOSIG=
0088583670999992020010107004+31198+121336FM-15+000399999V0201701V002019999999Y009900599+01001-00101999999ADDMA1103101999999REMMET061METAR ZSSS 010700Z 17002MPS 100V210 CAVOK 10/M01 Q1031 NOSIG=
0088583670999992020010107304+31198+121336FM-15+000399999V0201401V002019999999Y009900599+01001-00101999999ADDMA1103001999999REMMET061METAR ZSSS 010730Z 14002MPS 120V190 CAVOK 10/M01 Q1030 NOSIG=
0088583670999992020010108004+31198+121336FM-15+000399999V0201401V003019999999Y009900599+01001-00101999999ADDMA1103001999999REMMET061METAR ZSSS 010800Z 14003MPS 110V180 CAVOK 10/M01 Q1030 NOSIG=
0080583670999992020010108304+31198+121336FM-15+000399999V0201301N004019999999Y009900599+01001-00101999999ADDMA1103001999999REMMET053METAR ZSSS 010830Z 13004MPS CAVOK 10/M01 Q1030 NOSIG=
0079583670999992020010109004+31198+121336FM-15+000399999V0201001N005019999999Y009900599+00901+00101999999ADDMA1103001999999REMMET052METAR ZSSS 010900Z 10005MPS CAVOK 09/01 Q1030 NOSIG=
0087583670999992020010109304+31198+121336FM-15+000399999V0201001V004019999999Y009900599+00801+00101999999ADDMA1103001999999REMMET060METAR ZSSS 010930Z 10004MPS 080V150 CAVOK 08/01 Q1030 NOSIG=
0079583670999992020010110004+31198+121336FM-15+000399999V0201101N005019999999Y009900599+00801+00101999999ADDMA1103001999999REMMET052METAR ZSSS 011000Z 11005MPS CAVOK 08/01 Q1030 NOSIG=
0079583670999992020010110304+31198+121336FM-15+000399999V0201101N004019999999Y009900599+00801+00101999999ADDMA1103001999999REMMET052METAR ZSSS 011030Z 11004MPS CAVOK 08/01 Q1030 NOSIG=
0087583670999992020010111004+31198+121336FM-15+000399999V0201301V004019999999Y009900599+00701+00101999999ADDMA1103001999999REMMET060METAR ZSSS 011100Z 13004MPS 100V160 CAVOK 07/01 Q1030 NOSIG=
0079583670999992020010111304+31198+121336FM-15+000399999V0201101N004019999999Y009900599+00801+00201999999ADDMA1103001999999REMMET052METAR ZSSS 011130Z 11004MPS CAVOK 08/02 Q1030 NOSIG=
0087583670999992020010112004+31198+121336FM-15+000399999V0201201V004019999999Y009900599+00801+00201999999ADDMA1103001999999REMMET060METAR ZSSS 011200Z 12004MPS 090V150 CAVOK 08/02 Q1030 NOSIG=
0087583670999992020010112304+31198+121336FM-15+000399999V0201301V002019999999Y009900599+00801+00201999999ADDMA1103001999999REMMET060METAR ZSSS 011230Z 13002MPS 100V160 CAVOK 08/02 Q1030 NOSIG=
0087583670999992020010113004+31198+121336FM-15+000399999V0201201V002019999999Y009900599+00801+00301999999ADDMA1103101999999REMMET060METAR ZSSS 011300Z 12002MPS 080V150 CAVOK 08/03 Q1031 NOSIG=
0087583670999992020010113304+31198+121336FM-15+000399999V0201001V002019999999Y009900599+00801+00301999999ADDMA1103001999999REMMET060METAR ZSSS 011330Z 10002MPS 080V150 CAVOK 08/03 Q1030 NOSIG=
0079583670999992020010114004+31198+121336FM-15+000399999V0201101N002019999999Y009900599+00801+00301999999ADDMA1103001999999REMMET052METAR ZSSS 011400Z 11002MPS CAVOK 08/03 Q1030 NOSIG=
0087583670999992020010114304+31198+121336FM-15+000399999V0201401V002019999999Y009900599+00801+00301999999ADDMA1103001999999REMMET060METAR ZSSS 011430Z 14002MPS 090V180 CAVOK 08/03 Q1030 NOSIG=
0079583670999992020010115004+31198+121336FM-15+000399999V0209999V001019999999Y009900599+00901+00301999999ADDMA1102901999999REMMET052METAR ZSSS 011500Z VRB01MPS CAVOK 09/03 Q1029 NOSIG=
0079583670999992020010115304+31198+121336FM-15+000399999V0201301N003019999999Y009900599+00901+00301999999ADDMA1102801999999REMMET052METAR ZSSS 011530Z 13003MPS CAVOK 09/03 Q1028 NOSIG=
0079583670999992020010116004+31198+121336FM-15+000399999V0201301N004019999999Y009900599+00901+00301999999ADDMA1102801999999REMMET052METAR ZSSS 011600Z 13004MPS CAVOK 09/03 Q1028 NOSIG=
0079583670999992020010116304+31198+121336FM-15+000399999V0201401N004019999999Y009900599+00901+00401999999ADDMA1102801999999REMMET052METAR ZSSS 011630Z 14004MPS CAVOK 09/04 Q1028 NOSIG=
0079583670999992020010117004+31198+121336FM-15+000399999V0201401N003019999999Y009900599+00901+00401999999ADDMA1102801999999REMMET052METAR ZSSS 011700Z 14003MPS CAVOK 09/04 Q1028 NOSIG=
0079583670999992020010117304+31198+121336FM-15+000399999V0201401N002019999999Y009900599+00901+00401999999ADDMA1102901999999REMMET052METAR ZSSS 011730Z 14002MPS CAVOK 09/04 Q1029 NOSIG=
0118583670999992020010118004+31198+121336FM-15+000399999V0201001N001012200019N009999199+00901+00401999999ADDGF100991999999999999999999MA1102801999999MW1611REMMET059METAR ZSSS 011800Z 10001MPS 9999 -RA NSC 09/04 Q1028 NOSIG=
0079583670999992020010118304+31198+121336FM-15+000399999V0201101N002019999999Y009900599+00901+00401999999ADDMA1102801999999REMMET052METAR ZSSS 011830Z 11002MPS CAVOK 09/04 Q1028 NOSIG=
0079583670999992020010119004+31198+121336FM-15+000399999V0201201N002019999999Y009900599+00901+00401999999ADDMA1102801999999REMMET052METAR ZSSS 011900Z 12002MPS CAVOK 09/04 Q1028 NOSIG=
0118583670999992020010119304+31198+121336FM-15+000399999V0209999V001012200019N009999199+00901+00501999999ADDGF100991999999999999999999MA1102801999999MW1611REMMET059METAR ZSSS 011930Z VRB01MPS 9999 -RA NSC 09/05 Q1028 NOSIG=
0118583670999992020010120004+31198+121336FM-15+000399999V0200701N001012200019N009999199+00901+00601999999ADDGF100991999999999999999999MA1102801999999MW1611REMMET059METAR ZSSS 012000Z 07001MPS 9999 -RA NSC 09/06 Q1028 NOSIG=
0118583670999992020010120304+31198+121336FM-15+000399999V0200701N001012200019N009999199+00801+00601999999ADDGF100991999999999999999999MA1102801999999MW1611REMMET059METAR ZSSS 012030Z 07001MPS 9999 -RA NSC 08/06 Q1028 NOSIG=
0118583670999992020010121004+31198+121336FM-15+000399999V0200901N002012200019N009999199+00901+00701999999ADDGF100991999999999999999999MA1102801999999MW1611REMMET059METAR ZSSS 012100Z 09002MPS 9999 -RA NSC 09/07 Q1028 NOSIG=
0118583670999992020010121304+31198+121336FM-15+000399999V0201201N003012200019N009999199+00901+00601999999ADDGF100991999999999999999999MA1102701999999MW1611REMMET059METAR ZSSS 012130Z 12003MPS 9999 -RA NSC 09/06 Q1027 NOSIG=
0079583670999992020010122004+31198+121336FM-15+000399999V0201101N002019999999Y009900599+00901+00601999999ADDMA1102801999999REMMET052METAR ZSSS 012200Z 11002MPS CAVOK 09/06 Q1028 NOSIG=
0079583670999992020010122304+31198+121336FM-15+000399999V0201501N002019999999Y009900599+00901+00701999999ADDMA1102801999999REMMET052METAR ZSSS 012230Z 15002MPS CAVOK 09/07 Q1028 NOSIG=
0079583670999992020010123004+31198+121336FM-15+000399999V0201201N002019999999Y009900599+00901+00701999999ADDMA1102801999999REMMET052METAR ZSSS 012300Z 12002MPS CAVOK 09/07 Q1028 NOSIG=
0079583670999992020010123304+31198+121336FM-15+000399999V0201301N003019999999Y009900599+01001+00701999999ADDMA1102801999999REMMET052METAR ZSSS 012330Z 13003MPS CAVOK 10/07 Q1028 NOSIG=
0149583670999992020010200004+31198+121336FM-15+000399999V0201401N00301012191CN009999199+01001+00701999999ADDGA1081+012191999GE19MSL   +99999+99999GF199999081999012191999999MA1102901999999REMMET058METAR ZSSS 020000Z 14003MPS 9999 OVC040 10/07 Q1029 NOSIG=
0149583670999992020010200304+31198+121336FM-15+000399999V0201501N00201012191CN009999199+01001+00801999999ADDGA1081+012191999GE19MSL   +99999+99999GF199999081999012191999999MA1102901999999REMMET058METAR ZSSS 020030Z 15002MPS 9999 OVC040 10/08 Q1029 NOSIG=
0149583670999992020010201004+31198+121336FM-15+000399999V0201401N00301012191CN009999199+01001+00801999999ADDGA1081+012191999GE19MSL   +99999+99999GF199999081999012191999999MA1102901999999REMMET058METAR ZSSS 020100Z 14003MPS 9999 OVC040 10/08 Q1029 NOSIG=
0157583670999992020010201304+31198+121336FM-15+000399999V0201401V00201012191CN009999199+01101+00801999999ADDGA1081+012191999GE19MSL   +99999+99999GF199999081999012191999999MA1103001999999REMMET066METAR ZSSS 020130Z 14002MPS 060V180 9999 OVC040 11/08 Q1030 NOSIG=
0149583670999992020010202004+31198+121336FM-15+000399999V0201501N00201012191CN009999199+01101+00801999999ADDGA1081+012191999GE19MSL   +99999+99999GF199999081999012191999999MA1103001999999REMMET058METAR ZSSS 020200Z 15002MPS 9999 OVC040 11/08 Q1030 NOSIG=
0149583670999992020010202304+31198+121336FM-15+000399999V0209999V00101012191CN009999199+01101+00801999999ADDGA1081+012191999GE19MSL   +99999+99999GF199999081999012191999999MA1102901999999REMMET058METAR ZSSS 020230Z VRB01MPS 9999 OVC040 11/08 Q1029 NOSIG=
0157583670999992020010203004+31198+121336FM-15+000399999V0201601V00301012191CN009999199+01201+00801999999ADDGA1081+012191999GE19MSL   +99999+99999GF199999081999012191999999MA1102901999999REMMET066METAR ZSSS 020300Z 16003MPS 130V190 9999 OVC040 12/08 Q1029 NOSIG=
0157583670999992020010203304+31198+121336FM-15+000399999V0201601V00201012191CN009999199+01201+00801999999ADDGA1081+012191999GE19MSL   +99999+99999GF199999081999012191999999MA1102801999999REMMET066METAR ZSSS 020330Z 16002MPS 140V200 9999 OVC040 12/08 Q1028 NOSIG=
0157583670999992020010204004+31198+121336FM-15+000399999V0201601V003019999999N009999199+01301+00801999999ADDGA1041+006101999GE19MSL   +99999+99999GF199999041999006101999999MA1102801999999REMMET066METAR ZSSS 020400Z 16003MPS 120V210 9999 SCT020 13/08 Q1028 NOSIG=
0157583670999992020010204304+31198+121336FM-15+000399999V0201801V003019999999N009999199+01301+00801999999ADDGA1041+006101999GE19MSL   +99999+99999GF199999041999006101999999MA1102801999999REMMET066METAR ZSSS 020430Z 18003MPS 140V200 9999 SCT020 13/08 Q1028 NOSIG=
0149583670999992020010205004+31198+121336FM-15+000399999V0201901N00301006101CN009999199+01201+00801999999ADDGA1071+006101999GE19MSL   +99999+99999GF199999071999006101999999MA1102701999999REMMET058METAR ZSSS 020500Z 19003MPS 9999 BKN020 12/08 Q1027 NOSIG=
0157583670999992020010205304+31198+121336FM-15+000399999V0202001V00301006101CN009999199+01301+00801999999ADDGA1071+006101999GE19MSL   +99999+99999GF199999071999006101999999MA1102701999999REMMET066METAR ZSSS 020530Z 20003MPS 160V230 9999 BKN020 13/08 Q1027 NOSIG=
0157583670999992020010206004+31198+121336FM-15+000399999V0202101V002019999999N009999199+01201+00801999999ADDGA1021+006101999GE19MSL   +99999+99999GF199999021999006101999999MA1102701999999REMMET066METAR ZSSS 020600Z 21002MPS 180V300 9999 FEW020 12/08 Q1027 NOSIG=
0157583670999992020010206304+31198+121336FM-15+000399999V0202101V002019999999N009999199+01301+00801999999ADDGA1021+007011999GE19MSL   +99999+99999GF199999021999007011999999MA1102701999999REMMET066METAR ZSSS 020630Z 21002MPS 170V240 9999 FEW023 13/08 Q1027 NOSIG=
0157583670999992020010207004+31198+121336FM-15+000399999V0202301V002019999999N009999199+01301+00701999999ADDGA1041+007011999GE19MSL   +99999+99999GF199999041999007011999999MA1102701999999REMMET066METAR ZSSS 020700Z 23002MPS 150V270 9999 SCT023 13/07 Q1027 NOSIG=
0149583670999992020010207304+31198+121336FM-15+000399999V0209999V00201007011CN009999199+01201+00701999999ADDGA1071+007011999GE19MSL   +99999+99999GF199999071999007011999999MA1102701999999REMMET058METAR ZSSS 020730Z VRB02MPS 9999 BKN023 12/07 Q1027 NOSIG=
0157583670999992020010208004+31198+121336FM-15+000399999V0202901V00201007011CN009999199+01201+00701999999ADDGA1071+007011999GE19MSL   +99999+99999GF199999071999007011999999MA1102701999999REMMET066METAR ZSSS 020800Z 29002MPS 250V050 9999 BKN023 12/07 Q1027 NOSIG=
0149583670999992020010208304+31198+121336FM-15+000399999V0209999V00301007011CN009999199+01201+00701999999ADDGA1071+007011999GE19MSL   +99999+99999GF199999071999007011999999MA1102701999999REMMET058METAR ZSSS 020830Z VRB03MPS 9999 BKN023 12/07 Q1027 NOSIG=
0149583670999992020010209004+31198+121336FM-15+000399999V0209999V00201007011CN009999199+01201+00801999999ADDGA1071+007011999GE19MSL   +99999+99999GF199999071999007011999999MA1102701999999REMMET058METAR ZSSS 020900Z VRB02MPS 9999 BKN023 12/08 Q1027 NOSIG=
0157583670999992020010209304+31198+121336FM-15+000399999V0203201V00301007011CN009999199+01201+00801999999ADDGA1071+007011999GE19MSL   +99999+99999GF199999071999007011999999MA1102801999999REMMET066METAR ZSSS 020930Z 32003MPS 260V030 9999 BKN023 12/08 Q1028 NOSIG=
0157583670999992020010210004+31198+121336FM-15+000399999V0203401V00401007011CN009999199+01201+00801999999ADDGA1071+007011999GE19MSL   +99999+99999GF199999071999007011999999MA1102801999999REMMET066METAR ZSSS 021000Z 34004MPS 300V360 9999 BKN023 12/08 Q1028 NOSIG=
0157583670999992020010210304+31198+121336FM-15+000399999V0203301V00301007011CN009999199+01201+00801999999ADDGA1071+007011999GE19MSL   +99999+99999GF199999071999007011999999MA1102801999999REMMET066METAR ZSSS 021030Z 33003MPS 290V350 9999 BKN023 12/08 Q1028 NOSIG=
0149583670999992020010211004+31198+121336FM-15+000399999V0203501N003019999999N009999199+01101+00801999999ADDGA1041+007011999GE19MSL   +99999+99999GF199999041999007011999999MA1102801999999REMMET058METAR ZSSS 021100Z 35003MPS 9999 SCT023 11/08 Q1028 NOSIG=
0087583670999992020010211304+31198+121336FM-15+000399999V0203201V003019999999Y009900599+01101+00801999999ADDMA1102801999999REMMET060METAR ZSSS 021130Z 32003MPS 290V360 CAVOK 11/08 Q1028 NOSIG=
0087583670999992020010212004+31198+121336FM-15+000399999V0203401V003019999999Y009900599+01101+00801999999ADDMA1102801999999REMMET060METAR ZSSS 021200Z 34003MPS 310V010 CAVOK 11/08 Q1028 NOSIG=
0087583670999992020010212304+31198+121336FM-15+000399999V0203201V003019999999Y009900599+01101+00801999999ADDMA1102801999999REMMET060METAR ZSSS 021230Z 32003MPS 290V360 CAVOK 11/08 Q1028 NOSIG=
0149583670999992020010213004+31198+121336FM-15+000399999V0203501N003019999999N009999199+01101+00801999999ADDGA1041+007011999GE19MSL   +99999+99999GF199999041999007011999999MA1102801999999REMMET058METAR ZSSS 021300Z 35003MPS 9999 SCT023 11/08 Q1028 NOSIG=
0149583670999992020010213304+31198+121336FM-15+000399999V0203401N002019999999N009999199+01101+00801999999ADDGA1021+007011999GE19MSL   +99999+99999GF199999021999007011999999MA1102801999999REMMET058METAR ZSSS 021330Z 34002MPS 9999 FEW023 11/08 Q1028 NOSIG=
0157583670999992020010214004+31198+121336FM-15+000399999V0203501V002019999999N009999199+01101+00801999999ADDGA1021+007011999GE19MSL   +99999+99999GF199999021999007011999999MA1102801999999REMMET066METAR ZSSS 021400Z 35002MPS 310V020 9999 FEW023 11/08 Q1028 NOSIG=
0149583670999992020010214304+31198+121336FM-15+000399999V0203501N002019999999N009999199+01101+00801999999ADDGA1021+007011999GE19MSL   +99999+99999GF199999021999007011999999MA1102801999999REMMET058METAR ZSSS 021430Z 35002MPS 9999 FEW023 11/08 Q1028 NOSIG=
0157583670999992020010215004+31198+121336FM-15+000399999V0203301V002019999999N009999199+01001+00901999999ADDGA1041+007011999GE19MSL   +99999+99999GF199999041999007011999999MA1102801999999REMMET066METAR ZSSS 021500Z 33002MPS 300V010 9999 SCT023 10/09 Q1028 NOSIG=
0149583670999992020010215304+31198+121336FM-15+000399999V0203401N002019999999N009999199+01001+00801999999ADDGA1041+007921999GE19MSL   +99999+99999GF199999041999007921999999MA1102801999999REMMET058METAR ZSSS 021530Z 34002MPS 9999 SCT026 10/08 Q1028 NOSIG=
0149583670999992020010216004+31198+121336FM-15+000399999V0203201N002019999999N009999199+01001+00901999999ADDGA1041+007921999GE19MSL   +99999+99999GF199999041999007921999999MA1102701999999REMMET058METAR ZSSS 021600Z 32002MPS 9999 SCT026 10/09 Q1027 NOSIG=
0157583670999992020010216304+31198+121336FM-15+000399999V0203201V002019999999N007000199+01001+00901999999ADDGA1041+007921999GE19MSL   +99999+99999GF199999041999007921999999MA1102701999999REMMET066METAR ZSSS 021630Z 32002MPS 290V360 7000 SCT026 10/09 Q1027 NOSIG=
0157583670999992020010217004+31198+121336FM-15+000399999V0203401V002019999999N007000199+01001+00801999999ADDGA1041+007921999GE19MSL   +99999+99999GF199999041999007921999999MA1102701999999REMMET066METAR ZSSS 021700Z 34002MPS 310V010 7000 SCT026 10/08 Q1027 NOSIG=
0149583670999992020010217304+31198+121336FM-15+000399999V0203401N002019999999N007000199+01001+00901999999ADDGA1041+007921999GE19MSL   +99999+99999GF199999041999007921999999MA1102701999999REMMET058METAR ZSSS 021730Z 34002MPS 7000 SCT026 10/09 Q1027 NOSIG=
0149583670999992020010218004+31198+121336FM-15+000399999V0203301N002019999999N007000199+01001+00901999999ADDGA1041+007921999GE19MSL   +99999+99999GF199999041999007921999999MA1102701999999REMMET058METAR ZSSS 021800Z 33002MPS 7000 SCT026 10/09 Q1027 NOSIG=
0157583670999992020010218304+31198+121336FM-15+000399999V0203001V002019999999N007000199+01001+00801999999ADDGA1041+007921999GE19MSL   +99999+99999GF199999041999007921999999MA1102701999999REMMET066METAR ZSSS 021830Z 30002MPS 280V340 7000 SCT026 10/08 Q1027 NOSIG=
0149583670999992020010219004+31198+121336FM-15+000399999V0203501N001019999999N007000199+01001+00801999999ADDGA1041+007921999GE19MSL   +99999+99999GF199999041999007921999999MA1102601999999REMMET058METAR ZSSS 021900Z 35001MPS 7000 SCT026 10/08 Q1026 NOSIG=
0149583670999992020010219304+31198+121336FM-15+000399999V0203401N001019999999N007000199+01001+00801999999ADDGA1041+007921999GE19MSL   +99999+99999GF199999041999007921999999MA1102601999999REMMET058METAR ZSSS 021930Z 34001MPS 7000 SCT026 10/08 Q1026 NOSIG=
0149583670999992020010220004+31198+121336FM-15+000399999V0203501N003019999999N007000199+01001+00801999999ADDGA1041+007921999GE19MSL   +99999+99999GF199999041999007921999999MA1102601999999REMMET058METAR ZSSS 022000Z 35003MPS 7000 SCT026 10/08 Q1026 NOSIG=
0149583670999992020010220304+31198+121336FM-15+000399999V0203401N00201007921CN006000199+01001+00801999999ADDGA1071+007921999GE19MSL   +99999+99999GF199999071999007921999999MA1102601999999REMMET058METAR ZSSS 022030Z 34002MPS 6000 BKN026 10/08 Q1026 NOSIG=
0172583670999992020010221004+31198+121336FM-15+000399999V0209999V001010079219N006000199+01001+00801999999ADDGA1021+001831999GA2071+007921999GE19MSL   +99999+99999GF199999021999001831999999MA1102601999999REMMET065METAR ZSSS 022100Z VRB01MPS 6000 FEW006 BKN026 10/08 Q1026 NOSIG=
0172583670999992020010221304+31198+121336FM-15+000399999V0203501N002010079219N006000199+01001+00901999999ADDGA1021+001831999GA2071+007921999GE19MSL   +99999+99999GF199999021999001831999999MA1102601999999REMMET065METAR ZSSS 022130Z 35002MPS 6000 FEW006 BKN026 10/09 Q1026 NOSIG=
0172583670999992020010222004+31198+121336FM-15+000399999V0209999V001010079219N006000199+01001+00901999999ADDGA1021+001831999GA2071+007921999GE19MSL   +99999+99999GF199999021999001831999999MA1102701999999REMMET065METAR ZSSS 022200Z VRB01MPS 6000 FEW006 BKN026 10/09 Q1027 NOSIG=
0181583670999992020010222304+31198+121336FM-15+000399999V0203401N002010070119N005000199+01001+00901999999ADDGA1021+001831999GA2071+007011999GE19MSL   +99999+99999GF199999021999001831999999MA1102701999999MW1101REMMET068METAR ZSSS 022230Z 34002MPS 5000 BR FEW006 BKN023 10/09 Q1027 NOSIG=
0181583670999992020010223004+31198+121336FM-15+000399999V0203501N002010061019N005000199+01001+00901999999ADDGA1041+001521999GA2071+006101999GE19MSL   +99999+99999GF199999041999001521999999MA1102701999999MW1101REMMET068METAR ZSSS 022300Z 35002MPS 5000 BR SCT005 BKN020 10/09 Q1027 NOSIG=
0189583670999992020010223304+31198+121336FM-15+000399999V0202901V00201001521CN005000199+01001+00901999999ADDGA1071+001521999GA2071+006101999GE19MSL   +99999+99999GF199999071999001521999999MA1102701999999MW1101REMMET076METAR ZSSS 022330Z 29002MPS 260V010 5000 BR BKN005 BKN020 10/09 Q1027 NOSIG=
0207583670999992020010300004+31198+121336FM-15+000399999V0203601N00101001521CN002500199+01001+00901999999ADDGA1071+001521999GA2071+006101999GE19MSL   +99999+99999GF199999071999001521999999MA1102701999999MW1101REMMET094METAR ZSSS 030000Z 36001MPS 2500 BR BKN005 BKN020 10/09 Q1027 BECMG TL0130 3500 SCT005 BKN020=
0181583670999992020010300304+31198+121336FM-15+000399999V0200201N00201001221CN002500199+01001+00901999999ADDGA1071+001221999GA2071+006101999GE19MSL   +99999+99999GF199999071999001221999999MA1102801999999MW1101REMMET068METAR ZSSS 030030Z 02002MPS 2500 BR BKN004 BKN020 10/09 Q1028 NOSIG=
0210583670999992020010301004+31198+121336FM-15+000399999V0200301V00201001221CN002000199+01001+00901999999ADDGA1071+001221999GA2081+010061999GE19MSL   +99999+99999GF199999071999001221999999MA1102801999999MW1101REMMET097METAR ZSSS 030100Z 03002MPS 310V090 2000 BR BKN004 OVC033 10/09 Q1028 BECMG TL0230 BKN005 OVC033=
0181583670999992020010301304+31198+121336FM-15+000399999V0200101N00101001221CN002000199+01001+01001999999ADDGA1071+001221999GA2081+010061999GE19MSL   +99999+99999GF199999071999001221999999MA1102801999999MW1101REMMET068METAR ZSSS 030130Z 01001MPS 2000 BR BKN004 OVC033 10/10 Q1028 NOSIG=
0191583670999992020010302004+31198+121336FM-15+000399999V0209999V00101001521CN002200199+01101+01001999999ADDGA1071+001521999GA2081+010061999GE19MSL   +99999+99999GF199999071999001521999999MA1102801999999MW1101MW2611REMMET072METAR ZSSS 030200Z VRB01MPS 2200 -RA BR BKN005 OVC033 11/10 Q1028 NOSIG=
0221583670999992020010302304+31198+121336FM-15+000399999V0202701V00301001221CN001000199+01101+01001999999ADDGA1071+001221999GA2081+009141999GE19MSL   +99999+99999GF199999071999001221999999MA1102801999999MW1101MW2611REMMET102METAR ZSSS 030230Z 27003MPS 230V320 1000 R36R/1300N R36L/1400N -RA BR BKN004 OVC030 11/10 Q1028 NOSIG=
0247583670999992020010303004+31198+121336FM-15+000399999V0202901V00301000911CN001300199+01101+01001999999ADDGA1071+000911999GA2081+009141999GE19MSL   +99999+99999GF199999071999000911999999MA1102701999999MW1101MW2611REMMET128METAR ZSSS 030300Z 29003MPS 260V340 1300 R36R/1600U R36L/1700U -RA BR BKN003 OVC030 11/10 Q1027 BECMG TL0410 1500 BKN005 OVC030=
0189583670999992020010303304+31198+121336FM-15+000399999V0203001V00201000911CN001600199+01101+01001999999ADDGA1071+000911999GA2081+009141999GE19MSL   +99999+99999GF199999071999000911999999MA1102701999999MW1101REMMET076METAR ZSSS 030330Z 30002MPS 250V010 1600 BR BKN003 OVC030 11/10 Q1027 NOSIG=
0220583670999992020010304004+31198+121336FM-15+000399999V0203201V00201000911CN002200199+01101+01001999999ADDGA1071+000911999GA2081+009141999GE19MSL   +99999+99999GF199999071999000911999999MA1102601999999MW1101MW2611REMMET101METAR ZSSS 030400Z 32002MPS 280V350 2200 -RA BR BKN003 OVC030 11/10 Q1026 BECMG TL0520 BKN005 OVC030=
0199583670999992020010304304+31198+121336FM-15+000399999V0203301V00301000911CN002200199+01101+01001999999ADDGA1071+000911999GA2081+009141999GE19MSL   +99999+99999GF199999071999000911999999MA1102501999999MW1101MW2611REMMET080METAR ZSSS 030430Z 33003MPS 290V010 2200 -RA BR BKN003 OVC030 11/10 Q1025 NOSIG=
0215583670999992020010305004+31198+121336FM-15+000399999V0203301V00201000911CN002800199+01101+01001999999ADDGA1071+000911999GA2081+009141999GE19MSL   +99999+99999GF199999071999000911999999MA1102501999999MW1101REMMET102METAR ZSSS 030500Z 33002MPS 280V010 2800 BR BKN003 OVC030 11/10 Q1025 BECMG TL0530 3000 BKN005 OVC030=
0189583670999992020010305304+31198+121336FM-15+000399999V0203301V00201001521CN004000199+01101+01001999999ADDGA1071+001521999GA2081+009141999GE19MSL   +99999+99999GF199999071999001521999999MA1102501999999MW1101REMMET076METAR ZSSS 030530Z 33002MPS 280V020 4000 BR BKN005 OVC030 11/10 Q1025 NOSIG=
0189583670999992020010306004+31198+121336FM-15+000399999V0203101V00201001521CN004000199+01101+01001999999ADDGA1071+001521999GA2081+009141999GE19MSL   +99999+99999GF199999071999001521999999MA1102501999999MW1101REMMET076METAR ZSSS 030600Z 31002MPS 260V350 4000 BR BKN005 OVC030 11/10 Q1025 NOSIG=
0191583670999992020010306304+31198+121336FM-15+000399999V0203401N00201001521CN003500199+01101+01001999999ADDGA1071+001521999GA2081+009141999GE19MSL   +99999+99999GF199999071999001521999999MA1102501999999MW1101MW2611REMMET072METAR ZSSS 030630Z 34002MPS 3500 -RA BR BKN005 OVC030 11/10 Q1025 NOSIG=
0199583670999992020010307004+31198+121336FM-15+000399999V0203601V00201001521CN004500199+01101+01001999999ADDGA1071+001521999GA2081+009141999GE19MSL   +99999+99999GF199999071999001521999999MA1102501999999MW1101MW2611REMMET080METAR ZSSS 030700Z 36002MPS 320V020 4500 -RA BR BKN005 OVC030 11/10 Q1025 NOSIG=
0182583670999992020010307304+31198+121336FM-15+000399999V0200201N00401001831CN007000199+01101+01001999999ADDGA1071+001831999GA2081+009141999GE19MSL   +99999+99999GF199999071999001831999999MA1102501999999MW1611REMMET069METAR ZSSS 030730Z 02004MPS 7000 -RA BKN006 OVC030 11/10 Q1025 NOSIG=
0190583670999992020010308004+31198+121336FM-15+000399999V0200201V00401001521CN007000199+01101+01001999999ADDGA1071+001521999GA2081+009141999GE19MSL   +99999+99999GF199999071999001521999999MA1102501999999MW1611REMMET077METAR ZSSS 030800Z 02004MPS 340V050 7000 -RA BKN005 OVC030 11/10 Q1025 NOSIG=
0172583670999992020010308304+31198+121336FM-15+000399999V0200401N00401001521CN007000199+01101+01001999999ADDGA1071+001521999GA2081+009141999GE19MSL   +99999+99999GF199999071999001521999999MA1102601999999REMMET065METAR ZSSS 030830Z 04004MPS 7000 BKN005 OVC030 11/10 Q1026 NOSIG=
0180583670999992020010309004+31198+121336FM-15+000399999V0200501V00301001521CN007000199+01101+01001999999ADDGA1071+001521999GA2081+009141999GE19MSL   +99999+99999GF199999071999001521999999MA1102601999999REMMET073METAR ZSSS 030900Z 05003MPS 020V120 7000 BKN005 OVC030 11/10 Q1026 NOSIG=
0182583670999992020010309304+31198+121336FM-15+000399999V0200301N00401001831CN007000199+01101+01001999999ADDGA1071+001831999GA2081+009141999GE19MSL   +99999+99999GF199999071999001831999999MA1102601999999MW1611REMMET069METAR ZSSS 030930Z 03004MPS 7000 -RA BKN006 OVC030 11/10 Q1026 NOSIG=
0199583670999992020010310004+31198+121336FM-15+000399999V0200401V00401001521CN005000199+01001+01001999999ADDGA1071+001521999GA2081+009141999GE19MSL   +99999+99999GF199999071999001521999999MA1102701999999MW1101MW2611REMMET080METAR ZSSS 031000Z 04004MPS 020V100 5000 -RA BR BKN005 OVC030 10/10 Q1027 NOSIG=
0199583670999992020010310304+31198+121336FM-15+000399999V0200601V00401001521CN004500199+01001+01001999999ADDGA1071+001521999GA2081+009141999GE19MSL   +99999+99999GF199999071999001521999999MA1102601999999MW1101MW2611REMMET080METAR ZSSS 031030Z 06004MPS 030V110 4500 -RA BR BKN005 OVC030 10/10 Q1026 NOSIG=
0190583670999992020010311004+31198+121336FM-15+000399999V0200601V00201001521CN006000199+01001+01001999999ADDGA1071+001521999GA2081+009141999GE19MSL   +99999+99999GF199999071999001521999999MA1102701999999MW1611REMMET077METAR ZSSS 031100Z 06002MPS 020V090 6000 -RA BKN005 OVC030 10/10 Q1027 NOSIG=
0182583670999992020010311304+31198+121336FM-15+000399999V0200301N00401001521CN008000199+01001+00901999999ADDGA1071+001521999GA2081+009141999GE19MSL   +99999+99999GF199999071999001521999999MA1102701999999MW1611REMMET069METAR ZSSS 031130Z 03004MPS 8000 -RA BKN005 OVC030 10/09 Q1027 NOSIG=
0172583670999992020010312004+31198+121336FM-15+000399999V0200401N00401001521CN009999199+01001+00901999999ADDGA1071+001521999GA2081+009141999GE19MSL   +99999+99999GF199999071999001521999999MA1102701999999REMMET065METAR ZSSS 031200Z 04004MPS 9999 BKN005 OVC030 10/09 Q1027 NOSIG=
0172583670999992020010312304+31198+121336FM-15+000399999V0200401N00401001521CN009999199+01001+00901999999ADDGA1071+001521999GA2081+009141999GE19MSL   +99999+99999GF199999071999001521999999MA1102601999999REMMET065METAR ZSSS 031230Z 04004MPS 9999 BKN005 OVC030 10/09 Q1026 NOSIG=
0172583670999992020010313004+31198+121336FM-15+000399999V0200401N00301001521CN009999199+01001+00901999999ADDGA1071+001521999GA2081+009141999GE19MSL   +99999+99999GF199999071999001521999999MA1102701999999REMMET065METAR ZSSS 031300Z 04003MPS 9999 BKN005 OVC030 10/09 Q1027 NOSIG=
0172583670999992020010313304+31198+121336FM-15+000399999V0203601N00301001521CN009999199+01001+00901999999ADDGA1071+001521999GA2081+012191999GE19MSL   +99999+99999GF199999071999001521999999MA1102701999999REMMET065METAR ZSSS 031330Z 36003MPS 9999 BKN005 OVC040 10/09 Q1027 NOSIG=
0182583670999992020010314004+31198+121336FM-15+000399999V0200401N00401001521CN006000199+01001+00901999999ADDGA1071+001521999GA2081+012191999GE19MSL   +99999+99999GF199999071999001521999999MA1102701999999MW1611REMMET069METAR ZSSS 031400Z 04004MPS 6000 -RA BKN005 OVC040 10/09 Q1027 NOSIG=
0191583670999992020010314304+31198+121336FM-15+000399999V0200301N00401001521CN005000199+01001+00901999999ADDGA1071+001521999GA2081+012191999GE19MSL   +99999+99999GF199999071999001521999999MA1102701999999MW1101MW2611REMMET072METAR ZSSS 031430Z 03004MPS 5000 -RA BR BKN005 OVC040 10/09 Q1027 NOSIG=
0191583670999992020010315004+31198+121336FM-15+000399999V0200401N00401001521CN004500199+01001+00901999999ADDGA1071+001521999GA2081+012191999GE19MSL   +99999+99999GF199999071999001521999999MA1102601999999MW1101MW2611REMMET072METAR ZSSS 031500Z 04004MPS 4500 -RA BR BKN005 OVC040 10/09 Q1026 NOSIG=
0189583670999992020010315304+31198+121336FM-15+000399999V0200401V00301001831CN005000199+01001+00901999999ADDGA1071+001831999GA2081+012191999GE19MSL   +99999+99999GF199999071999001831999999MA1102601999999MW1101REMMET076METAR ZSSS 031530Z 04003MPS 010V070 5000 BR BKN006 OVC040 10/09 Q1026 NOSIG=
0181583670999992020010316004+31198+121336FM-15+000399999V0200501N00401001831CN005000199+01001+00901999999ADDGA1071+001831999GA2081+012191999GE19MSL   +99999+99999GF199999071999001831999999MA1102501999999MW1101REMMET068METAR ZSSS 031600Z 05004MPS 5000 BR BKN006 OVC040 10/09 Q1025 NOSIG=
0172583670999992020010316304+31198+121336FM-15+000399999V0200301N00401001831CN006000199+01001+00901999999ADDGA1071+001831999GA2081+012191999GE19MSL   +99999+99999GF199999071999001831999999MA1102601999999REMMET065METAR ZSSS 031630Z 03004MPS 6000 BKN006 OVC040 10/09 Q1026 NOSIG=
0181583670999992020010317004+31198+121336FM-15+000399999V0200301N00301001831CN005000199+01001+00801999999ADDGA1071+001831999GA2081+012191999GE19MSL   +99999+99999GF199999071999001831999999MA1102601999999MW1101REMMET068METAR ZSSS 031700Z 03003MPS 5000 BR BKN006 OVC040 10/08 Q1026 NOSIG=
0181583670999992020010317304+31198+121336FM-15+000399999V0200301N00401001831CN005000199+00901+00901999999ADDGA1071+001831999GA2081+012191999GE19MSL   +99999+99999GF199999071999001831999999MA1102601999999MW1101REMMET068METAR ZSSS 031730Z 03004MPS 5000 BR BKN006 OVC040 09/09 Q1026 NOSIG=
0182583670999992020010318004+31198+121336FM-15+000399999V0200301N00401001831CN006000199+00901+00801999999ADDGA1071+001831999GA2081+012191999GE19MSL   +99999+99999GF199999071999001831999999MA1102601999999MW1611REMMET069METAR ZSSS 031800Z 03004MPS 6000 -RA BKN006 OVC040 09/08 Q1026 NOSIG=
0172583670999992020010318304+31198+121336FM-15+000399999V0200201N00401002441CN006000199+00901+00801999999ADDGA1071+002441999GA2081+012191999GE19MSL   +99999+99999GF199999071999002441999999MA1102601999999REMMET065METAR ZSSS 031830Z 02004MPS 6000 BKN008 OVC040 09/08 Q1026 NOSIG=
0172583670999992020010319004+31198+121336FM-15+000399999V0200301N00301002741CN006000199+00901+00801999999ADDGA1071+002741999GA2081+012191999GE19MSL   +99999+99999GF199999071999002741999999MA1102501999999REMMET065METAR ZSSS 031900Z 03003MPS 6000 BKN009 OVC040 09/08 Q1025 NOSIG=
0191583670999992020010319304+31198+121336FM-15+000399999V0200501N00301002741CN005000199+00901+00801999999ADDGA1071+002741999GA2081+012191999GE19MSL   +99999+99999GF199999071999002741999999MA1102501999999MW1101MW2611REMMET072METAR ZSSS 031930Z 05003MPS 5000 -RA BR BKN009 OVC040 09/08 Q1025 NOSIG=
0193583670999992020010320004+31198+121336FM-15+000399999V0200201N00301002741CN006000199+00901+00801999999ADDGA1071+002741999GA2081+012191999GE19MSL   +99999+99999GF199999071999002741999999MA1102501999999REMMET086METAR ZSSS 032000Z 02003MPS 6000 BKN009 OVC040 09/08 Q1025 BECMG TL2030 BKN010 OVC040=
0191583670999992020010320304+31198+121336FM-15+000399999V0200201N00301003051CN005000199+00901+00801999999ADDGA1071+003051999GA2081+012191999GE19MSL   +99999+99999GF199999071999003051999999MA1102501999999MW1101MW2611REMMET072METAR ZSSS 032030Z 02003MPS 5000 -RA BR BKN010 OVC040 09/08 Q1025 NOSIG=
0212583670999992020010321004+31198+121336FM-15+000399999V0200501N00301003051CN005000199+00901+00801999999ADDGA1071+003051999GA2081+012191999GE19MSL   +99999+99999GF199999071999003051999999MA1102501999999MW1101MW2611REMMET093METAR ZSSS 032100Z 05003MPS 5000 -RA BR BKN010 OVC040 09/08 Q1025 BECMG TL2150 BKN007 OVC040=
0181583670999992020010321304+31198+121336FM-15+000399999V0200301N00201002441CN005000199+00901+00801999999ADDGA1071+002441999GA2081+012191999GE19MSL   +99999+99999GF199999071999002441999999MA1102501999999MW1101REMMET068METAR ZSSS 032130Z 03002MPS 5000 BR BKN008 OVC040 09/08 Q1025 NOSIG=
0189583670999992020010322004+31198+121336FM-15+000399999V0200401V00201002441CN005000199+00901+00801999999ADDGA1071+002441999GA2081+012191999GE19MSL   +99999+99999GF199999071999002441999999MA1102601999999MW1101REMMET076METAR ZSSS 032200Z 04002MPS 010V070 5000 BR BKN008 OVC040 09/08 Q1026 NOSIG=
0189583670999992020010322304+31198+121336FM-15+000399999V0200301V00301001831CN004000199+00901+00801999999ADDGA1071+001831999GA2081+012191999GE19MSL   +99999+99999GF199999071999001831999999MA1102501999999MW1101REMMET076METAR ZSSS 032230Z 03003MPS 010V070 4000 BR BKN006 OVC040 09/08 Q1025 NOSIG=
0191583670999992020010323004+31198+121336FM-15+000399999V0200201N00301001831CN003500199+00901+00801999999ADDGA1071+001831999GA2081+010061999GE19MSL   +99999+99999GF199999071999001831999999MA1102601999999MW1101MW2611REMMET072METAR ZSSS 032300Z 02003MPS 3500 -RA BR BKN006 OVC033 09/08 Q1026 NOSIG=
0191583670999992020010323304+31198+121336FM-15+000399999V0200201N00301001521CN003000199+00901+00901999999ADDGA1071+001521999GA2081+010061999GE19MSL   +99999+99999GF199999071999001521999999MA1102601999999MW1101MW2611REMMET072METAR ZSSS 032330Z 02003MPS 3000 -RA BR BKN005 OVC033 09/09 Q1026 NOSIG=
0191583670999992020010400004+31198+121336FM-15+000399999V0200201N00301001521CN003000199+00901+00901999999ADDGA1071+001521999GA2081+010061999GE19MSL   +99999+99999GF199999071999001521999999MA1102601999999MW1101MW2611REMMET072METAR ZSSS 040000Z 02003MPS 3000 -RA BR BKN005 OVC033 09/09 Q1026 NOSIG=
0191583670999992020010400304+31198+121336FM-15+000399999V0200301N00401001831CN003000199+00901+00801999999ADDGA1071+001831999GA2081+010061999GE19MSL   +99999+99999GF199999071999001831999999MA1102701999999MW1101MW2611REMMET072METAR ZSSS 040030Z 03004MPS 3000 -RA BR BKN006 OVC033 09/08 Q1027 NOSIG=
0191583670999992020010401004+31198+121336FM-15+000399999V0200301N00401001831CN002500199+00901+00801999999ADDGA1071+001831999GA2081+010061999GE19MSL   +99999+99999GF199999071999001831999999MA1102701999999MW1101MW2611REMMET072METAR ZSSS 040100Z 03004MPS 2500 -RA BR BKN006 OVC033 09/08 Q1027 NOSIG=
0199583670999992020010401304+31198+121336FM-15+000399999V0200501V00301001831CN002500199+01001+00901999999ADDGA1071+001831999GA2081+010061999GE19MSL   +99999+99999GF199999071999001831999999MA1102701999999MW1101MW2611REMMET080METAR ZSSS 040130Z 05003MPS 020V130 2500 -RA BR BKN006 OVC033 10/09 Q1027 NOSIG=
0207583670999992020010402004+31198+121336FM-15+000399999V0200401N00301002131CN002500199+01001+00801999999ADDGA1071+002131999GA2081+010061999GE19MSL   +99999+99999GF199999071999002131999999MA1102701999999MW1101REMMET094METAR ZSSS 040200Z 04003MPS 2500 BR BKN007 OVC033 10/08 Q1027 BECMG TL0340 3000 BKN010 OVC040=
0189583670999992020010402304+31198+121336FM-15+000399999V0200401V00301002741CN002500199+01001+00801999999ADDGA1071+002741999GA2081+010061999GE19MSL   +99999+99999GF199999071999002741999999MA1102701999999MW1101REMMET076METAR ZSSS 040230Z 04003MPS 020V080 2500 BR BKN009 OVC033 10/08 Q1027 NOSIG=
0195583670999992020010403004+31198+121336FM-15+000399999V0200201N00301003351CN003000199+01001+00801999999ADDGA1071+003351999GA2081+010061999GE19MSL   +99999+99999GF199999071999003351999999MA1102701999999MW1101REMMET082METAR ZSSS 040300Z 02003MPS 3000 BR BKN011 OVC033 10/08 Q1027 BECMG TL0450 BKN015=
0181583670999992020010403304+31198+121336FM-15+000399999V0200301N00301003351CN003000199+01001+00801999999ADDGA1071+003351999GA2081+010061999GE19MSL   +99999+99999GF199999071999003351999999MA1102701999999MW1101REMMET068METAR ZSSS 040330Z 03003MPS 3000 BR BKN011 OVC033 10/08 Q1027 NOSIG=
0195583670999992020010404004+31198+121336FM-15+000399999V0200201N00401003961CN003500199+01001+00801999999ADDGA1071+003961999GA2081+010061999GE19MSL   +99999+99999GF199999071999003961999999MA1102601999999MW1101REMMET082METAR ZSSS 040400Z 02004MPS 3500 BR BKN013 OVC033 10/08 Q1026 BECMG TL0550 BKN015=
0181583670999992020010404304+31198+121336FM-15+000399999V0200101N00301003961CN003500199+01001+00801999999ADDGA1071+003961999GA2081+010061999GE19MSL   +99999+99999GF199999071999003961999999MA1102601999999MW1101REMMET068METAR ZSSS 040430Z 01003MPS 3500 BR BKN013 OVC033 10/08 Q1026 NOSIG=
0181583670999992020010405004+31198+121336FM-15+000399999V0200201N00301004571CN003500199+01001+00801999999ADDGA1071+004571999GA2081+010061999GE19MSL   +99999+99999GF199999071999004571999999MA1102601999999MW1101REMMET068METAR ZSSS 040500Z 02003MPS 3500 BR BKN015 OVC033 10/08 Q1026 NOSIG=
0181583670999992020010405304+31198+121336FM-15+000399999V0200201N004010121919N004000199+01101+00801999999ADDGA1041+004571999GA2081+012191999GE19MSL   +99999+99999GF199999041999004571999999MA1102601999999MW1101REMMET068METAR ZSSS 040530Z 02004MPS 4000 BR SCT015 OVC040 11/08 Q1026 NOSIG=
0189583670999992020010406004+31198+121336FM-15+000399999V0200301V003010121919N004000199+01101+00801999999ADDGA1021+004571999GA2081+012191999GE19MSL   +99999+99999GF199999021999004571999999MA1102601999999MW1101REMMET076METAR ZSSS 040600Z 03003MPS 350V070 4000 BR FEW015 OVC040 11/08 Q1026 NOSIG=
0158583670999992020010406304+31198+121336FM-15+000399999V0200201N004019999999N004500199+01101+00801999999ADDGA1021+004571999GE19MSL   +99999+99999GF199999021999004571999999MA1102501999999MW1101REMMET061METAR ZSSS 040630Z 02004MPS 4500 BR FEW015 11/08 Q1025 NOSIG=
0158583670999992020010407004+31198+121336FM-15+000399999V0200201N00301004881CN004500199+01101+00801999999ADDGA1071+004881999GE19MSL   +99999+99999GF199999071999004881999999MA1102601999999MW1101REMMET061METAR ZSSS 040700Z 02003MPS 4500 BR BKN016 11/08 Q1026 NOSIG=
0158583670999992020010407304+31198+121336FM-15+000399999V0200201N004019999999N005000199+01101+00701999999ADDGA1041+004881999GE19MSL   +99999+99999GF199999041999004881999999MA1102601999999MW1101REMMET061METAR ZSSS 040730Z 02004MPS 5000 BR SCT016 11/07 Q1026 NOSIG=
0166583670999992020010408004+31198+121336FM-15+000399999V0200401V003019999999N005000199+01101+00701999999ADDGA1021+004881999GE19MSL   +99999+99999GF199999021999004881999999MA1102501999999MW1101REMMET069METAR ZSSS 040800Z 04003MPS 020V090 5000 BR FEW016 11/07 Q1025 NOSIG=
0166583670999992020010408304+31198+121336FM-15+000399999V0200401V004019999999N005000199+01101+00701999999ADDGA1021+004881999GE19MSL   +99999+99999GF199999021999004881999999MA1102601999999MW1101REMMET069METAR ZSSS 040830Z 04004MPS 030V090 5000 BR FEW016 11/07 Q1026 NOSIG=
0158583670999992020010409004+31198+121336FM-15+000399999V0200401N004019999999N005000199+01001+00701999999ADDGA1021+004881999GE19MSL   +99999+99999GF199999021999004881999999MA1102601999999MW1101REMMET061METAR ZSSS 040900Z 04004MPS 5000 BR FEW016 10/07 Q1026 NOSIG=
0108583670999992020010409304+31198+121336FM-15+000399999V0200501N004012200019N007000199+01001+00601999999ADDGF100991999999999999999999MA1102601999999REMMET055METAR ZSSS 040930Z 05004MPS 7000 NSC 10/06 Q1026 NOSIG=
0108583670999992020010410004+31198+121336FM-15+000399999V0200501N004012200019N008000199+01001+00601999999ADDGF100991999999999999999999MA1102701999999REMMET055METAR ZSSS 041000Z 05004MPS 8000 NSC 10/06 Q1027 NOSIG=
0116583670999992020010410304+31198+121336FM-15+000399999V0200601V002012200019N008000199+01001+00601999999ADDGF100991999999999999999999MA1102701999999REMMET063METAR ZSSS 041030Z 06002MPS 030V120 8000 NSC 10/06 Q1027 NOSIG=
0116583670999992020010411004+31198+121336FM-15+000399999V0200701V002012200019N008000199+01001+00601999999ADDGF100991999999999999999999MA1102701999999REMMET063METAR ZSSS 041100Z 07002MPS 050V130 8000 NSC 10/06 Q1027 NOSIG=
0116583670999992020010411304+31198+121336FM-15+000399999V0200601V002012200019N008000199+01001+00701999999ADDGF100991999999999999999999MA1102701999999REMMET063METAR ZSSS 041130Z 06002MPS 040V100 8000 NSC 10/07 Q1027 NOSIG=
0108583670999992020010412004+31198+121336FM-15+000399999V0200701N003012200019N008000199+01001+00601999999ADDGF100991999999999999999999MA1102701999999REMMET055METAR ZSSS 041200Z 07003MPS 8000 NSC 10/06 Q1027 NOSIG=
0108583670999992020010412304+31198+121336FM-15+000399999V0200501N003012200019N008000199+01001+00601999999ADDGF100991999999999999999999MA1102701999999REMMET055METAR ZSSS 041230Z 05003MPS 8000 NSC 10/06 Q1027 NOSIG=
0108583670999992020010413004+31198+121336FM-15+000399999V0200301N003012200019N008000199+01001+00701999999ADDGF100991999999999999999999MA1102701999999REMMET055METAR ZSSS 041300Z 03003MPS 8000 NSC 10/07 Q1027 NOSIG=
0116583670999992020010413304+31198+121336FM-15+000399999V0200301V002012200019N008000199+01001+00701999999ADDGF100991999999999999999999MA1102801999999REMMET063METAR ZSSS 041330Z 03002MPS 360V060 8000 NSC 10/07 Q1028 NOSIG=
0108583670999992020010414004+31198+121336FM-15+000399999V0200201N003012200019N008000199+01001+00701999999ADDGF100991999999999999999999MA1102801999999REMMET055METAR ZSSS 041400Z 02003MPS 8000 NSC 10/07 Q1028 NOSIG=
0108583670999992020010414304+31198+121336FM-15+000399999V0200301N003012200019N008000199+01001+00701999999ADDGF100991999999999999999999MA1102801999999REMMET055METAR ZSSS 041430Z 03003MPS 8000 NSC 10/07 Q1028 NOSIG=
0108583670999992020010415004+31198+121336FM-15+000399999V0200501N004012200019N008000199+01001+00701999999ADDGF100991999999999999999999MA1102701999999REMMET055METAR ZSSS 041500Z 05004MPS 8000 NSC 10/07 Q1027 NOSIG=
0108583670999992020010415304+31198+121336FM-15+000399999V0209999V001012200019N008000199+01001+00701999999ADDGF100991999999999999999999MA1102701999999REMMET055METAR ZSSS 041530Z VRB01MPS 8000 NSC 10/07 Q1027 NOSIG=
0116583670999992020010416004+31198+121336FM-15+000399999V0200501V002012200019N008000199+01001+00601999999ADDGF100991999999999999999999MA1102701999999REMMET063METAR ZSSS 041600Z 05002MPS 030V090 8000 NSC 10/06 Q1027 NOSIG=
0108583670999992020010416304+31198+121336FM-15+000399999V0200701N001012200019N008000199+01001+00701999999ADDGF100991999999999999999999MA1102701999999REMMET055METAR ZSSS 041630Z 07001MPS 8000 NSC 10/07 Q1027 NOSIG=
0108583670999992020010417004+31198+121336FM-15+000399999V0200401N001012200019N008000199+01001+00701999999ADDGF100991999999999999999999MA1102701999999REMMET055METAR ZSSS 041700Z 04001MPS 8000 NSC 10/07 Q1027 NOSIG=
0108583670999992020010417304+31198+121336FM-15+000399999V0200601N002012200019N008000199+01001+00601999999ADDGF100991999999999999999999MA1102701999999REMMET055METAR ZSSS 041730Z 06002MPS 8000 NSC 10/06 Q1027 NOSIG=
0108583670999992020010418004+31198+121336FM-15+000399999V0200701N002012200019N008000199+01001+00601999999ADDGF100991999999999999999999MA1102701999999REMMET055METAR ZSSS 041800Z 07002MPS 8000 NSC 10/06 Q1027 NOSIG=
0108583670999992020010418304+31198+121336FM-15+000399999V0200801N003012200019N008000199+01001+00601999999ADDGF100991999999999999999999MA1102701999999REMMET055METAR ZSSS 041830Z 08003MPS 8000 NSC 10/06 Q1027 NOSIG=
0079583670999992020010419004+31198+121336FM-15+000399999V0200901N003019999999Y009900599+01001+00601999999ADDMA1102601999999REMMET052METAR ZSSS 041900Z 09003MPS CAVOK 10/06 Q1026 NOSIG=
0079583670999992020010419304+31198+121336FM-15+000399999V0200901N003019999999Y009900599+01101+00601999999ADDMA1102601999999REMMET052METAR ZSSS 041930Z 09003MPS CAVOK 11/06 Q1026 NOSIG=
0087583670999992020010420004+31198+121336FM-15+000399999V0200901V003019999999Y009900599+01101+00601999999ADDMA1102601999999REMMET060METAR ZSSS 042000Z 09003MPS 070V130 CAVOK 11/06 Q1026 NOSIG=
0087583670999992020010420304+31198+121336FM-15+000399999V0201001V003019999999Y009900599+01101+00701999999ADDMA1102601999999REMMET060METAR ZSSS 042030Z 10003MPS 060V120 CAVOK 11/07 Q1026 NOSIG=
0079583670999992020010421004+31198+121336FM-15+000399999V0200901N003019999999Y009900599+01101+00701999999ADDMA1102601999999REMMET052METAR ZSSS 042100Z 09003MPS CAVOK 11/07 Q1026 NOSIG=
0079583670999992020010421304+31198+121336FM-15+000399999V0201001N003019999999Y009900599+01101+00701999999ADDMA1102601999999REMMET052METAR ZSSS 042130Z 10003MPS CAVOK 11/07 Q1026 NOSIG=
0087583670999992020010422004+31198+121336FM-15+000399999V0201101V004019999999Y009900599+01101+00701999999ADDMA1102601999999REMMET060METAR ZSSS 042200Z 11004MPS 070V130 CAVOK 11/07 Q1026 NOSIG=
0079583670999992020010422304+31198+121336FM-15+000399999V0201101N004019999999Y009900599+01101+00701999999ADDMA1102601999999REMMET052METAR ZSSS 042230Z 11004MPS CAVOK 11/07 Q1026 NOSIG=
0087583670999992020010423004+31198+121336FM-15+000399999V0201001V004019999999Y009900599+01101+00701999999ADDMA1102701999999REMMET060METAR ZSSS 042300Z 10004MPS 060V130 CAVOK 11/07 Q1027 NOSIG=
0087583670999992020010423304+31198+121336FM-15+000399999V0201001V004019999999Y009900599+01101+00701999999ADDMA1102701999999REMMET060METAR ZSSS 042330Z 10004MPS 050V130 CAVOK 11/07 Q1027 NOSIG=
0149583670999992020010500004+31198+121336FM-15+000399999V0201001N00401012191CN009999199+01101+00701999999ADDGA1081+012191999GE19MSL   +99999+99999GF199999081999012191999999MA1102701999999REMMET058METAR ZSSS 050000Z 10004MPS 9999 OVC040 11/07 Q1027 NOSIG=
0149583670999992020010500304+31198+121336FM-15+000399999V0201001N00401012191CN009999199+01101+00701999999ADDGA1081+012191999GE19MSL   +99999+99999GF199999081999012191999999MA1102801999999REMMET058METAR ZSSS 050030Z 10004MPS 9999 OVC040 11/07 Q1028 NOSIG=
0149583670999992020010501004+31198+121336FM-15+000399999V0201101N00501012191CN009999199+01201+00701999999ADDGA1081+012191999GE19MSL   +99999+99999GF199999081999012191999999MA1102701999999REMMET058METAR ZSSS 050100Z 11005MPS 9999 OVC040 12/07 Q1027 NOSIG=
0149583670999992020010501304+31198+121336FM-15+000399999V0201101N00501012191CN009999199+01201+00701999999ADDGA1081+012191999GE19MSL   +99999+99999GF199999081999012191999999MA1102801999999REMMET058METAR ZSSS 050130Z 11005MPS 9999 OVC040 12/07 Q1028 NOSIG=
0157583670999992020010502004+31198+121336FM-15+000399999V0201101V00501012191CN009999199+01201+00701999999ADDGA1081+012191999GE19MSL   +99999+99999GF199999081999012191999999MA1102701999999REMMET066METAR ZSSS 050200Z 11005MPS 080V140 9999 OVC040 12/07 Q1027 NOSIG=
0157583670999992020010502304+31198+121336FM-15+000399999V0201101V00401012191CN009999199+01201+00701999999ADDGA1081+012191999GE19MSL   +99999+99999GF199999081999012191999999MA1102701999999REMMET066METAR ZSSS 050230Z 11004MPS 090V160 9999 OVC040 12/07 Q1027 NOSIG=
0149583670999992020010503004+31198+121336FM-15+000399999V0201201N00501012191CN009999199+01301+00801999999ADDGA1081+012191999GE19MSL   +99999+99999GF199999081999012191999999MA1102701999999REMMET058METAR ZSSS 050300Z 12005MPS 9999 OVC040 13/08 Q1027 NOSIG=
0149583670999992020010503304+31198+121336FM-15+000399999V0201101N00501012191CN009999199+01301+00801999999ADDGA1081+012191999GE19MSL   +99999+99999GF199999081999012191999999MA1102601999999REMMET058METAR ZSSS 050330Z 11005MPS 9999 OVC040 13/08 Q1026 NOSIG=
0157583670999992020010504004+31198+121336FM-15+000399999V0201201V00501012191CN009999199+01301+00801999999ADDGA1081+012191999GE19MSL   +99999+99999GF199999081999012191999999MA1102601999999REMMET066METAR ZSSS 050400Z 12005MPS 090V150 9999 OVC040 13/08 Q1026 NOSIG=
0149583670999992020010504304+31198+121336FM-15+000399999V0201201N00501012191CN009999199+01301+00801999999ADDGA1081+012191999GE19MSL   +99999+99999GF199999081999012191999999MA1102501999999REMMET058METAR ZSSS 050430Z 12005MPS 9999 OVC040 13/08 Q1025 NOSIG=
0157583670999992020010505004+31198+121336FM-15+000399999V0201201V00501012191CN009999199+01301+00801999999ADDGA1081+012191999GE19MSL   +99999+99999GF199999081999012191999999MA1102501999999REMMET066METAR ZSSS 050500Z 12005MPS 090V150 9999 OVC040 13/08 Q1025 NOSIG=
0149583670999992020010505304+31198+121336FM-15+000399999V0201301N00501012191CN009999199+01301+00801999999ADDGA1081+012191999GE19MSL   +99999+99999GF199999081999012191999999MA1102501999999REMMET058METAR ZSSS 050530Z 13005MPS 9999 OVC040 13/08 Q1025 NOSIG=
0149583670999992020010506004+31198+121336FM-15+000399999V0201201N00501010061CN009999199+01401+00801999999ADDGA1081+010061999GE19MSL   +99999+99999GF199999081999010061999999MA1102501999999REMMET058METAR ZSSS 050600Z 12005MPS 9999 OVC033 14/08 Q1025 NOSIG=
0149583670999992020010506304+31198+121336FM-15+000399999V0201201N00601010061CN009999199+01401+00901999999ADDGA1081+010061999GE19MSL   +99999+99999GF199999081999010061999999MA1102401999999REMMET058METAR ZSSS 050630Z 12006MPS 9999 OVC033 14/09 Q1024 NOSIG=
0149583670999992020010507004+31198+121336FM-15+000399999V0201201N00501012191CN009999199+01401+00901999999ADDGA1081+012191999GE19MSL   +99999+99999GF199999081999012191999999MA1102401999999REMMET058METAR ZSSS 050700Z 12005MPS 9999 OVC040 14/09 Q1024 NOSIG=
0157583670999992020010507304+31198+121336FM-15+000399999V0201201V00601012191CN009999199+01401+00901999999ADDGA1071+012191999GE19MSL   +99999+99999GF199999071999012191999999MA1102401999999REMMET066METAR ZSSS 050730Z 12006MPS 090V150 9999 BKN040 14/09 Q1024 NOSIG=
0149583670999992020010508004+31198+121336FM-15+000399999V0201201N007019999999N009999199+01401+00901999999ADDGA1041+012191999GE19MSL   +99999+99999GF199999041999012191999999MA1102401999999REMMET058METAR ZSSS 050800Z 12007MPS 9999 SCT040 14/09 Q1024 NOSIG=
0149583670999992020010508304+31198+121336FM-15+000399999V0201201N00501010061CN009999199+01401+00901999999ADDGA1071+010061999GE19MSL   +99999+99999GF199999071999010061999999MA1102401999999REMMET058METAR ZSSS 050830Z 12005MPS 9999 BKN033 14/09 Q1024 NOSIG=
0157583670999992020010509004+31198+121336FM-15+000399999V0201201V00701010061CN009999199+01401+00801999999ADDGA1071+010061999GE19MSL   +99999+99999GF199999071999010061999999MA1102401999999REMMET066METAR ZSSS 050900Z 12007MPS 090V150 9999 BKN033 14/08 Q1024 NOSIG=
0149583670999992020010509304+31198+121336FM-15+000399999V0201101N00601010061CN009999199+01401+00901999999ADDGA1071+010061999GE19MSL   +99999+99999GF199999071999010061999999MA1102401999999REMMET058METAR ZSSS 050930Z 11006MPS 9999 BKN033 14/09 Q1024 NOSIG=
0157583670999992020010510004+31198+121336FM-15+000399999V0201201V00501010061CN009999199+01401+00901999999ADDGA1071+010061999GE19MSL   +99999+99999GF199999071999010061999999MA1102401999999REMMET066METAR ZSSS 051000Z 12005MPS 090V150 9999 BKN033 14/09 Q1024 NOSIG=
0157583670999992020010510304+31198+121336FM-15+000399999V0201301V00601009141CN009999199+01401+00901999999ADDGA1071+009141999GE19MSL   +99999+99999GF199999071999009141999999MA1102401999999REMMET066METAR ZSSS 051030Z 13006MPS 100V160 9999 BKN030 14/09 Q1024 NOSIG=
0149583670999992020010511004+31198+121336FM-15+000399999V0201301N00601009141CN009999199+01401+00901999999ADDGA1071+009141999GE19MSL   +99999+99999GF199999071999009141999999MA1102401999999REMMET058METAR ZSSS 051100Z 13006MPS 9999 BKN030 14/09 Q1024 NOSIG=
0149583670999992020010511304+31198+121336FM-15+000399999V0201301N00601009141CN009999199+01401+00901999999ADDGA1071+009141999GE19MSL   +99999+99999GF199999071999009141999999MA1102401999999REMMET058METAR ZSSS 051130Z 13006MPS 9999 BKN030 14/09 Q1024 NOSIG=
0149583670999992020010512004+31198+121336FM-15+000399999V0201301N00601009141CN009999199+01401+01001999999ADDGA1071+009141999GE19MSL   +99999+99999GF199999071999009141999999MA1102401999999REMMET058METAR ZSSS 051200Z 13006MPS 9999 BKN030 14/10 Q1024 NOSIG=
0157583670999992020010512304+31198+121336FM-15+000399999V0201301V00501009141CN009999199+01401+01001999999ADDGA1071+009141999GE19MSL   +99999+99999GF199999071999009141999999MA1102401999999REMMET066METAR ZSSS 051230Z 13005MPS 100V160 9999 BKN030 14/10 Q1024 NOSIG=
0149583670999992020010513004+31198+121336FM-15+000399999V0201301N00501007921CN009999199+01401+01001999999ADDGA1071+007921999GE19MSL   +99999+99999GF199999071999007921999999MA1102401999999REMMET058METAR ZSSS 051300Z 13005MPS 9999 BKN026 14/10 Q1024 NOSIG=
0149583670999992020010513304+31198+121336FM-15+000399999V0201301N00501007921CN009999199+01401+01101999999ADDGA1071+007921999GE19MSL   +99999+99999GF199999071999007921999999MA1102401999999REMMET058METAR ZSSS 051330Z 13005MPS 9999 BKN026 14/11 Q1024 NOSIG=
0149583670999992020010514004+31198+121336FM-15+000399999V0201401N00701007921CN009999199+01401+01101999999ADDGA1071+007921999GE19MSL   +99999+99999GF199999071999007921999999MA1102401999999REMMET058METAR ZSSS 051400Z 14007MPS 9999 BKN026 14/11 Q1024 NOSIG=
0149583670999992020010514304+31198+121336FM-15+000399999V0201401N006019999999N009999199+01401+01101999999ADDGA1021+007921999GE19MSL   +99999+99999GF199999021999007921999999MA1102301999999REMMET058METAR ZSSS 051430Z 14006MPS 9999 FEW026 14/11 Q1023 NOSIG=
0079583670999992020010515004+31198+121336FM-15+000399999V0201501N006019999999Y009900599+01401+01101999999ADDMA1102301999999REMMET052METAR ZSSS 051500Z 15006MPS CAVOK 14/11 Q1023 NOSIG=
0079583670999992020010515304+31198+121336FM-15+000399999V0201501N006019999999Y009900599+01401+01101999999ADDMA1102301999999REMMET052METAR ZSSS 051530Z 15006MPS CAVOK 14/11 Q1023 NOSIG=
0079583670999992020010516004+31198+121336FM-15+000399999V0201501N006019999999Y009900599+01401+01101999999ADDMA1102201999999REMMET052METAR ZSSS 051600Z 15006MPS CAVOK 14/11 Q1022 NOSIG=
0079583670999992020010516304+31198+121336FM-15+000399999V0201501N006019999999Y009900599+01401+01101999999ADDMA1102201999999REMMET052METAR ZSSS 051630Z 15006MPS CAVOK 14/11 Q1022 NOSIG=
0079583670999992020010517004+31198+121336FM-15+000399999V0201501N005019999999Y009900599+01401+01101999999ADDMA1102201999999REMMET052METAR ZSSS 051700Z 15005MPS CAVOK 14/11 Q1022 NOSIG=
0079583670999992020010517304+31198+121336FM-15+000399999V0201501N004019999999Y009900599+01401+01101999999ADDMA1102201999999REMMET052METAR ZSSS 051730Z 15004MPS CAVOK 14/11 Q1022 NOSIG=
0079583670999992020010518004+31198+121336FM-15+000399999V0201601N004019999999Y009900599+01401+01101999999ADDMA1102201999999REMMET052METAR ZSSS 051800Z 16004MPS CAVOK 14/11 Q1022 NOSIG=
0079583670999992020010518304+31198+121336FM-15+000399999V0201501N004019999999Y009900599+01401+01201999999ADDMA1102101999999REMMET052METAR ZSSS 051830Z 15004MPS CAVOK 14/12 Q1021 NOSIG=
0087583670999992020010519004+31198+121336FM-15+000399999V0201501V003019999999Y009900599+01401+01201999999ADDMA1102101999999REMMET060METAR ZSSS 051900Z 15003MPS 120V180 CAVOK 14/12 Q1021 NOSIG=
0079583670999992020010519304+31198+121336FM-15+000399999V0201601N005019999999Y009900599+01401+01201999999ADDMA1102101999999REMMET052METAR ZSSS 051930Z 16005MPS CAVOK 14/12 Q1021 NOSIG=
0079583670999992020010520004+31198+121336FM-15+000399999V0201601N005019999999Y009900599+01501+01201999999ADDMA1102001999999REMMET052METAR ZSSS 052000Z 16005MPS CAVOK 15/12 Q1020 NOSIG=
0079583670999992020010520304+31198+121336FM-15+000399999V0201701N004019999999Y009900599+01401+01201999999ADDMA1102001999999REMMET052METAR ZSSS 052030Z 17004MPS CAVOK 14/12 Q1020 NOSIG=
0079583670999992020010521004+31198+121336FM-15+000399999V0201601N004019999999Y009900599+01401+01201999999ADDMA1102001999999REMMET052METAR ZSSS 052100Z 16004MPS CAVOK 14/12 Q1020 NOSIG=
0079583670999992020010521304+31198+121336FM-15+000399999V0201501N004019999999Y009900599+01401+01201999999ADDMA1102001999999REMMET052METAR ZSSS 052130Z 15004MPS CAVOK 14/12 Q1020 NOSIG=
0079583670999992020010522004+31198+121336FM-15+000399999V0201501N003019999999Y009900599+01301+01201999999ADDMA1102001999999REMMET052METAR ZSSS 052200Z 15003MPS CAVOK 13/12 Q1020 NOSIG=
0079583670999992020010522304+31198+121336FM-15+000399999V0201501N004019999999Y009900599+01301+01201999999ADDMA1102001999999REMMET052METAR ZSSS 052230Z 15004MPS CAVOK 13/12 Q1020 NOSIG=
0079583670999992020010523004+31198+121336FM-15+000399999V0201501N004019999999Y009900599+01301+01201999999ADDMA1102001999999REMMET052METAR ZSSS 052300Z 15004MPS CAVOK 13/12 Q1020 NOSIG=
0087583670999992020010523304+31198+121336FM-15+000399999V0201601V002019999999Y009900599+01401+01201999999ADDMA1102001999999REMMET060METAR ZSSS 052330Z 16002MPS 120V180 CAVOK 14/12 Q1020 NOSIG=
0079583670999992020010600004+31198+121336FM-15+000399999V0201601N003019999999Y009900599+01501+01301999999ADDMA1102101999999REMMET052METAR ZSSS 060000Z 16003MPS CAVOK 15/13 Q1021 NOSIG=
0079583670999992020010600304+31198+121336FM-15+000399999V0201701N005019999999Y009900599+01601+01401999999ADDMA1102101999999REMMET052METAR ZSSS 060030Z 17005MPS CAVOK 16/14 Q1021 NOSIG=
0079583670999992020010601004+31198+121336FM-15+000399999V0201801N004019999999Y009900599+01701+01401999999ADDMA1102101999999REMMET052METAR ZSSS 060100Z 18004MPS CAVOK 17/14 Q1021 NOSIG=
0079583670999992020010601304+31198+121336FM-15+000399999V0201801N004019999999Y009900599+01801+01401999999ADDMA1102101999999REMMET052METAR ZSSS 060130Z 18004MPS CAVOK 18/14 Q1021 NOSIG=
0079583670999992020010602004+31198+121336FM-15+000399999V0201901N005019999999Y009900599+02001+01401999999ADDMA1102101999999REMMET052METAR ZSSS 060200Z 19005MPS CAVOK 20/14 Q1021 NOSIG=
0079583670999992020010602304+31198+121336FM-15+000399999V0201901N005019999999Y009900599+02001+01401999999ADDMA1102001999999REMMET052METAR ZSSS 060230Z 19005MPS CAVOK 20/14 Q1020 NOSIG=
0079583670999992020010603004+31198+121336FM-15+000399999V0202001N006019999999Y009900599+02101+01401999999ADDMA1102001999999REMMET052METAR ZSSS 060300Z 20006MPS CAVOK 21/14 Q1020 NOSIG=
0079583670999992020010603304+31198+121336FM-15+000399999V0202101N006019999999Y009900599+02201+01401999999ADDMA1101901999999REMMET052METAR ZSSS 060330Z 21006MPS CAVOK 22/14 Q1019 NOSIG=
0079583670999992020010604004+31198+121336FM-15+000399999V0202101N006019999999Y009900599+02201+01401999999ADDMA1101901999999REMMET052METAR ZSSS 060400Z 21006MPS CAVOK 22/14 Q1019 NOSIG=
0079583670999992020010604304+31198+121336FM-15+000399999V0202201N005019999999Y009900599+02201+01401999999ADDMA1101801999999REMMET052METAR ZSSS 060430Z 22005MPS CAVOK 22/14 Q1018 NOSIG=
0079583670999992020010605004+31198+121336FM-15+000399999V0202001N005019999999Y009900599+02301+01401999999ADDMA1101701999999REMMET052METAR ZSSS 060500Z 20005MPS CAVOK 23/14 Q1017 NOSIG=
0087583670999992020010605304+31198+121336FM-15+000399999V0202101V004019999999Y009900599+02301+01401999999ADDMA1101701999999REMMET060METAR ZSSS 060530Z 21004MPS 170V250 CAVOK 23/14 Q1017 NOSIG=
0079583670999992020010606004+31198+121336FM-15+000399999V0202001N005019999999Y009900599+02402+01402999999ADDMA1101701999999REMMET052METAR ZSSS 060600Z 20005MPS CAVOK 24/14 Q1017 NOSIG=
0079583670999992020010606304+31198+121336FM-15+000399999V0202401N005019999999Y009900599+02301+01401999999ADDMA1101701999999REMMET052METAR ZSSS 060630Z 24005MPS CAVOK 23/14 Q1017 NOSIG=
0087583670999992020010607004+31198+121336FM-15+000399999V0202101V004019999999Y009900599+02301+01401999999ADDMA1101601999999REMMET060METAR ZSSS 060700Z 21004MPS 180V240 CAVOK 23/14 Q1016 NOSIG=
0087583670999992020010607304+31198+121336FM-15+000399999V0201901V004019999999Y009900599+02301+01401999999ADDMA1101701999999REMMET060METAR ZSSS 060730Z 19004MPS 160V220 CAVOK 23/14 Q1017 NOSIG=
0098583670999992020010608004+31198+121336FM-15+000399999V0202001V004019999999Y009900599+02301+01401999999ADDMA1101701999999OC100901REMMET063METAR ZSSS 060800Z 20004G09MPS 170V240 CAVOK 23/14 Q1017 NOSIG=
0079583670999992020010608304+31198+121336FM-15+000399999V0201601N003019999999Y009900599+02201+01501999999ADDMA1101701999999REMMET052METAR ZSSS 060830Z 16003MPS CAVOK 22/15 Q1017 NOSIG=
0079583670999992020010609004+31198+121336FM-15+000399999V0201501N004019999999Y009900599+02101+01401999999ADDMA1101701999999REMMET052METAR ZSSS 060900Z 15004MPS CAVOK 21/14 Q1017 NOSIG=
0079583670999992020010609304+31198+121336FM-15+000399999V0201501N003019999999Y009900599+02001+01501999999ADDMA1101701999999REMMET052METAR ZSSS 060930Z 15003MPS CAVOK 20/15 Q1017 NOSIG=
0079583670999992020010610004+31198+121336FM-15+000399999V0201501N004019999999Y009900599+01901+01501999999ADDMA1101701999999REMMET052METAR ZSSS 061000Z 15004MPS CAVOK 19/15 Q1017 NOSIG=
0079583670999992020010610304+31198+121336FM-15+000399999V0201501N002019999999Y009900599+01801+01501999999ADDMA1101701999999REMMET052METAR ZSSS 061030Z 15002MPS CAVOK 18/15 Q1017 NOSIG=
0087583670999992020010611004+31198+121336FM-15+000399999V0201401V002019999999Y009900599+01801+01501999999ADDMA1101701999999REMMET060METAR ZSSS 061100Z 14002MPS 110V180 CAVOK 18/15 Q1017 NOSIG=
0079583670999992020010611304+31198+121336FM-15+000399999V0209999V001019999999Y009900599+01801+01501999999ADDMA1101601999999REMMET052METAR ZSSS 061130Z VRB01MPS CAVOK 18/15 Q1016 NOSIG=
0079583670999992020010612004+31198+121336FM-15+000399999V0209999V001019999999Y009900599+01801+01501999999ADDMA1101601999999REMMET052METAR ZSSS 061200Z VRB01MPS CAVOK 18/15 Q1016 NOSIG=
0087583670999992020010612304+31198+121336FM-15+000399999V0201101V002019999999Y009900599+01701+01501999999ADDMA1101601999999REMMET060METAR ZSSS 061230Z 11002MPS 090V150 CAVOK 17/15 Q1016 NOSIG=
0087583670999992020010613004+31198+121336FM-15+000399999V0201301V002019999999Y009900599+01701+01501999999ADDMA1101601999999REMMET060METAR ZSSS 061300Z 13002MPS 100V180 CAVOK 17/15 Q1016 NOSIG=
0079583670999992020010613304+31198+121336FM-15+000399999V0201401N002019999999Y009900599+01701+01501999999ADDMA1101601999999REMMET052METAR ZSSS 061330Z 14002MPS CAVOK 17/15 Q1016 NOSIG=
0079583670999992020010614004+31198+121336FM-15+000399999V0201401N003019999999Y009900599+01701+01501999999ADDMA1101601999999REMMET052METAR ZSSS 061400Z 14003MPS CAVOK 17/15 Q1016 NOSIG=
0087583670999992020010614304+31198+121336FM-15+000399999V0201401V002019999999Y009900599+01601+01501999999ADDMA1101601999999REMMET060METAR ZSSS 061430Z 14002MPS 120V180 CAVOK 16/15 Q1016 NOSIG=
0079583670999992020010615004+31198+121336FM-15+000399999V0201501N002019999999Y009900599+01601+01501999999ADDMA1101501999999REMMET052METAR ZSSS 061500Z 15002MPS CAVOK 16/15 Q1015 NOSIG=
0079583670999992020010615304+31198+121336FM-15+000399999V0201501N002019999999Y009900599+01601+01501999999ADDMA1101501999999REMMET052METAR ZSSS 061530Z 15002MPS CAVOK 16/15 Q1015 NOSIG=
0079583670999992020010616004+31198+121336FM-15+000399999V0201501N002019999999Y009900599+01601+01501999999ADDMA1101501999999REMMET052METAR ZSSS 061600Z 15002MPS CAVOK 16/15 Q1015 NOSIG=
0079583670999992020010616304+31198+121336FM-15+000399999V0201601N002019999999Y009900599+01501+01401999999ADDMA1101401999999REMMET052METAR ZSSS 061630Z 16002MPS CAVOK 15/14 Q1014 NOSIG=
0079583670999992020010617004+31198+121336FM-15+000399999V0201701N002019999999Y009900599+01501+01401999999ADDMA1101401999999REMMET052METAR ZSSS 061700Z 17002MPS CAVOK 15/14 Q1014 NOSIG=
0079583670999992020010617304+31198+121336FM-15+000399999V0201701N002019999999Y009900599+01501+01401999999ADDMA1101401999999REMMET052METAR ZSSS 061730Z 17002MPS CAVOK 15/14 Q1014 NOSIG=
0079583670999992020010618004+31198+121336FM-15+000399999V0201601N001019999999Y009900599+01501+01401999999ADDMA1101401999999REMMET052METAR ZSSS 061800Z 16001MPS CAVOK 15/14 Q1014 NOSIG=
0079583670999992020010618304+31198+121336FM-15+000399999V0201501N002019999999Y009900599+01501+01401999999ADDMA1101401999999REMMET052METAR ZSSS 061830Z 15002MPS CAVOK 15/14 Q1014 NOSIG=
0079583670999992020010619004+31198+121336FM-15+000399999V0201501N003019999999Y009900599+01501+01401999999ADDMA1101301999999REMMET052METAR ZSSS 061900Z 15003MPS CAVOK 15/14 Q1013 NOSIG=
0079583670999992020010619304+31198+121336FM-15+000399999V0201501N003019999999Y009900599+01501+01501999999ADDMA1101301999999REMMET052METAR ZSSS 061930Z 15003MPS CAVOK 15/15 Q1013 NOSIG=
0079583670999992020010620004+31198+121336FM-15+000399999V0201501N003019999999Y009900599+01601+01501999999ADDMA1101301999999REMMET052METAR ZSSS 062000Z 15003MPS CAVOK 16/15 Q1013 NOSIG=
0079583670999992020010620304+31198+121336FM-15+000399999V0201501N002019999999Y009900599+01501+01401999999ADDMA1101301999999REMMET052METAR ZSSS 062030Z 15002MPS CAVOK 15/14 Q1013 NOSIG=
0079583670999992020010621004+31198+121336FM-15+000399999V0201501N002019999999Y009900599+01501+01401999999ADDMA1101201999999REMMET052METAR ZSSS 062100Z 15002MPS CAVOK 15/14 Q1012 NOSIG=
0079583670999992020010621304+31198+121336FM-15+000399999V0201501N003019999999Y009900599+01601+01501999999ADDMA1101201999999REMMET052METAR ZSSS 062130Z 15003MPS CAVOK 16/15 Q1012 NOSIG=
0079583670999992020010622004+31198+121336FM-15+000399999V0201501N003019999999Y009900599+01601+01501999999ADDMA1101201999999REMMET052METAR ZSSS 062200Z 15003MPS CAVOK 16/15 Q1012 NOSIG=
0079583670999992020010622304+31198+121336FM-15+000399999V0201501N002019999999Y009900599+01501+01401999999ADDMA1101201999999REMMET052METAR ZSSS 062230Z 15002MPS CAVOK 15/14 Q1012 NOSIG=
0108583670999992020010623004+31198+121336FM-15+000399999V0209999C000012200019N008000199+01501+01501999999ADDGF100991999999999999999999MA1101201999999REMMET055METAR ZSSS 062300Z 00000MPS 8000 NSC 15/15 Q1012 NOSIG=
0108583670999992020010623304+31198+121336FM-15+000399999V0201601N002012200019N008000199+01501+01501999999ADDGF100991999999999999999999MA1101201999999REMMET055METAR ZSSS 062330Z 16002MPS 8000 NSC 15/15 Q1012 NOSIG=
0116583670999992020010700004+31198+121336FM-15+000399999V0202301V002012200019N008000199+01601+01601999999ADDGF100991999999999999999999MA1101201999999REMMET063METAR ZSSS 070000Z 23002MPS 130V260 8000 NSC 16/16 Q1012 NOSIG=
0116583670999992020010700304+31198+121336FM-15+000399999V0202301V003012200019N008000199+01601+01501999999ADDGF100991999999999999999999MA1101201999999REMMET063METAR ZSSS 070030Z 23003MPS 180V260 8000 NSC 16/15 Q1012 NOSIG=
0149583670999992020010701004+31198+121336FM-15+000399999V0202801N004019999999N007000199+01601+01501999999ADDGA1021+002741999GE19MSL   +99999+99999GF199999021999002741999999MA1101301999999REMMET058METAR ZSSS 070100Z 28004MPS 7000 FEW009 16/15 Q1013 NOSIG=
0158583670999992020010701304+31198+121336FM-15+000399999V0209999V002019999999N003500199+01601+01401999999ADDGA1021+002441999GE19MSL   +99999+99999GF199999021999002441999999MA1101301999999MW1101REMMET061METAR ZSSS 070130Z VRB02MPS 3500 BR FEW008 16/14 Q1013 NOSIG=
0125583670999992020010702004+31198+121336FM-15+000399999V0201801V002012200019N003500199+01701+01401999999ADDGF100991999999999999999999MA1101201999999MW1101REMMET066METAR ZSSS 070200Z 18002MPS 130V250 3500 BR NSC 17/14 Q1012 NOSIG=
0166583670999992020010702304+31198+121336FM-15+000399999V0202701V005019999999N004000199+01801+01401999999ADDGA1021+003351999GE19MSL   +99999+99999GF199999021999003351999999MA1101201999999MW1101REMMET069METAR ZSSS 070230Z 27005MPS 240V310 4000 BR FEW011 18/14 Q1012 NOSIG=
0172583670999992020010703004+31198+121336FM-15+000399999V0202901N006019999999N002500199+01501+01301999999ADDGA1041+002441999GE19MSL   +99999+99999GF199999041999002441999999MA1101201999999MW1101REMMET075METAR ZSSS 070300Z 29006MPS 2500 BR SCT008 15/13 Q1012 BECMG TL0400 BKN008=
0158583670999992020010703304+31198+121336FM-15+000399999V0202901N00501001831CN002000199+01501+01301999999ADDGA1071+001831999GE19MSL   +99999+99999GF199999071999001831999999MA1101201999999MW1101REMMET061METAR ZSSS 070330Z 29005MPS 2000 BR BKN006 15/13 Q1012 NOSIG=
0170583670999992020010704004+31198+121336FM-15+000399999V0203001N00601001831CN002000199+01401+01201999999ADDGA1071+001831999GE19MSL   +99999+99999GF199999071999001831999999MA1101201999999MW1101REMMET073METAR ZSSS 070400Z 30006MPS 2000 BR BKN006 14/12 Q1012 BECMG TL0530 3000=
0177583670999992020010704304+31198+121336FM-15+000399999V0203001V00701001521CN003000199+01301+01101999999ADDGA1071+001521999GE19MSL   +99999+99999GF199999071999001521999999MA1101201999999MW1101OC101501REMMET072METAR ZSSS 070430Z 30007G15MPS 270V350 3000 BR BKN005 13/11 Q1012 NOSIG=
0158583670999992020010705004+31198+121336FM-15+000399999V0202901N00601001831CN004500199+01301+01001999999ADDGA1071+001831999GE19MSL   +99999+99999GF199999071999001831999999MA1101301999999MW1101REMMET061METAR ZSSS 070500Z 29006MPS 4500 BR BKN006 13/10 Q1013 NOSIG=
0176583670999992020010705304+31198+121336FM-15+000399999V0202501V00301002441CN004500199+01201+01101999999ADDGA1071+002441999GE19MSL   +99999+99999GF199999071999002441999999MA1101201999999MW1101MW2611REMMET073METAR ZSSS 070530Z 25003MPS 210V360 4500 -RA BR BKN008 12/11 Q1012 NOSIG=
0180583670999992020010706004+31198+121336FM-15+000399999V0202701V00401002441CN005000199+01201+01101999999ADDGA1071+002441999GE19MSL   +99999+99999GF199999071999002441999999MA1101101999999MW1101REMMET083METAR ZSSS 070600Z 27004MPS 220V340 5000 BR BKN008 12/11 Q1011 BECMG TL0740 BKN011=
0159583670999992020010706304+31198+121336FM-15+000399999V0202901N00901002441CN006000199+01201+01001999999ADDGA1071+002441999GE19MSL   +99999+99999GF199999071999002441999999MA1101301999999MW1611REMMET062METAR ZSSS 070630Z 29009MPS 6000 -RA BKN008 12/10 Q1013 NOSIG=
0184583670999992020010707004+31198+121336FM-15+000399999V0202901N01001002441CN009999199+01001+00801999999ADDGA1071+002441999GE19MSL   +99999+99999GF199999071999002441999999MA1101401999999MW1611OC101701REMMET079METAR ZSSS 070700Z 29010G17MPS 9999 -RA BKN008 10/08 Q1014 BECMG TL0830 BKN011=
0149583670999992020010707304+31198+121336FM-15+000399999V0202901N00801003351CN009999199+01001+00701999999ADDGA1071+003351999GE19MSL   +99999+99999GF199999071999003351999999MA1101401999999REMMET058METAR ZSSS 070730Z 29008MPS 9999 BKN011 10/07 Q1014 NOSIG=
0171583670999992020010708004+31198+121336FM-15+000399999V0202801V00701003961CN009999199+01001+00701999999ADDGA1071+003961999GE19MSL   +99999+99999GF199999071999003961999999MA1101501999999REMMET080METAR ZSSS 070800Z 28007MPS 250V320 9999 BKN013 10/07 Q1015 BECMG TL0830 BKN016=
0149583670999992020010708304+31198+121336FM-15+000399999V0202901N00901004571CN009999199+01001+00701999999ADDGA1071+004571999GE19MSL   +99999+99999GF199999071999004571999999MA1101601999999REMMET058METAR ZSSS 070830Z 29009MPS 9999 BKN015 10/07 Q1016 NOSIG=
0168583670999992020010709004+31198+121336FM-15+000399999V0202801V00901006101CN009999199+01001+00601999999ADDGA1071+006101999GE19MSL   +99999+99999GF199999071999006101999999MA1101601999999OC101401REMMET069METAR ZSSS 070900Z 28009G14MPS 250V310 9999 BKN020 10/06 Q1016 NOSIG=
0168583670999992020010709304+31198+121336FM-15+000399999V0202801V008019999999N009999199+00901+00601999999ADDGA1041+006101999GE19MSL   +99999+99999GF199999041999006101999999MA1101701999999OC101401REMMET069METAR ZSSS 070930Z 28008G14MPS 250V310 9999 SCT020 09/06 Q1017 NOSIG=
0160583670999992020010710004+31198+121336FM-15+000399999V0203001N012019999999N009999199+00901+00501999999ADDGA1021+006101999GE19MSL   +99999+99999GF199999021999006101999999MA1101701999999OC101701REMMET061METAR ZSSS 071000Z 30012G17MPS 9999 FEW020 09/05 Q1017 NOSIG=
0079583670999992020010710304+31198+121336FM-15+000399999V0203001N009019999999Y009900599+00901+00401999999ADDMA1101801999999REMMET052METAR ZSSS 071030Z 30009MPS CAVOK 09/04 Q1018 NOSIG=
0098583670999992020010711004+31198+121336FM-15+000399999V0203001V010019999999Y009900599+00801+00401999999ADDMA1101901999999OC101501REMMET063METAR ZSSS 071100Z 30010G15MPS 270V330 CAVOK 08/04 Q1019 NOSIG=
0160583670999992020010711304+31198+121336FM-15+000399999V0203001N011019999999N009999199+00801+00301999999ADDGA1021+007011999GE19MSL   +99999+99999GF199999021999007011999999MA1101901999999OC101701REMMET061METAR ZSSS 071130Z 30011G17MPS 9999 FEW023 08/03 Q1019 NOSIG=
0090583670999992020010712004+31198+121336FM-15+000399999V0202901N010019999999Y009900599+00801+00301999999ADDMA1102001999999OC101501REMMET055METAR ZSSS 071200Z 29010G15MPS CAVOK 08/03 Q1020 NOSIG=
0149583670999992020010712304+31198+121336FM-15+000399999V0202901N008019999999N009999199+00701+00301999999ADDGA1021+007011999GE19MSL   +99999+99999GF199999021999007011999999MA1102001999999REMMET058METAR ZSSS 071230Z 29008MPS 9999 FEW023 07/03 Q1020 NOSIG=
0168583670999992020010713004+31198+121336FM-15+000399999V0202901V009019999999N009999199+00701+00201999999ADDGA1021+007011999GE19MSL   +99999+99999GF199999021999007011999999MA1102101999999OC101401REMMET069METAR ZSSS 071300Z 29009G14MPS 260V330 9999 FEW023 07/02 Q1021 NOSIG=
0149583670999992020010713304+31198+121336FM-15+000399999V0202901N008019999999N009999199+00701+00201999999ADDGA1041+007011999GE19MSL   +99999+99999GF199999041999007011999999MA1102101999999REMMET058METAR ZSSS 071330Z 29008MPS 9999 SCT023 07/02 Q1021 NOSIG=
0149583670999992020010714004+31198+121336FM-15+000399999V0202901N00801007011CN009999199+00701+00201999999ADDGA1071+007011999GE19MSL   +99999+99999GF199999071999007011999999MA1102201999999REMMET058METAR ZSSS 071400Z 29008MPS 9999 BKN023 07/02 Q1022 NOSIG=
0168583670999992020010714304+31198+121336FM-15+000399999V0202801V00901007011CN009999199+00701+00201999999ADDGA1071+007011999GE19MSL   +99999+99999GF199999071999007011999999MA1102201999999OC101501REMMET069METAR ZSSS 071430Z 28009G15MPS 260V320 9999 BKN023 07/02 Q1022 NOSIG=
0168583670999992020010715004+31198+121336FM-15+000399999V0202901V00601006101CN009999199+00701+00201999999ADDGA1071+006101999GE19MSL   +99999+99999GF199999071999006101999999MA1102201999999OC101101REMMET069METAR ZSSS 071500Z 29006G11MPS 260V330 9999 BKN020 07/02 Q1022 NOSIG=
0149583670999992020010715304+31198+121336FM-15+000399999V0202901N01101006101CN009999199+00701+00101999999ADDGA1071+006101999GE19MSL   +99999+99999GF199999071999006101999999MA1102301999999REMMET058METAR ZSSS 071530Z 29011MPS 9999 BKN020 07/01 Q1023 NOSIG=
0160583670999992020010716004+31198+121336FM-15+000399999V0203001N00901006101CN009999199+00701+00101999999ADDGA1071+006101999GE19MSL   +99999+99999GF199999071999006101999999MA1102301999999OC101401REMMET061METAR ZSSS 071600Z 30009G14MPS 9999 BKN020 07/01 Q1023 NOSIG=
0160583670999992020010716304+31198+121336FM-15+000399999V0203101N00901007011CN009999199+00601+00101999999ADDGA1071+007011999GE19MSL   +99999+99999GF199999071999007011999999MA1102301999999OC101401REMMET061METAR ZSSS 071630Z 31009G14MPS 9999 BKN023 06/01 Q1023 NOSIG=
0149583670999992020010717004+31198+121336FM-15+000399999V0203001N00901007011CN009999199+00601+00101999999ADDGA1071+007011999GE19MSL   +99999+99999GF199999071999007011999999MA1102301999999REMMET058METAR ZSSS 071700Z 30009MPS 9999 BKN023 06/01 Q1023 NOSIG=
0149583670999992020010717304+31198+121336FM-15+000399999V0202901N00901007011CN009999199+00601+00101999999ADDGA1071+007011999GE19MSL   +99999+99999GF199999071999007011999999MA1102401999999REMMET058METAR ZSSS 071730Z 29009MPS 9999 BKN023 06/01 Q1024 NOSIG=
0149583670999992020010718004+31198+121336FM-15+000399999V0202901N00901007011CN009999199+00601+00101999999ADDGA1071+007011999GE19MSL   +99999+99999GF199999071999007011999999MA1102401999999REMMET058METAR ZSSS 071800Z 29009MPS 9999 BKN023 06/01 Q1024 NOSIG=
0149583670999992020010718304+31198+121336FM-15+000399999V0203101N00901006101CN009999199+00601+00101999999ADDGA1071+006101999GE19MSL   +99999+99999GF199999071999006101999999MA1102501999999REMMET058METAR ZSSS 071830Z 31009MPS 9999 BKN020 06/01 Q1025 NOSIG=
0149583670999992020010719004+31198+121336FM-15+000399999V0203001N00901006101CN009999199+00601+00101999999ADDGA1071+006101999GE19MSL   +99999+99999GF199999071999006101999999MA1102401999999REMMET058METAR ZSSS 071900Z 30009MPS 9999 BKN020 06/01 Q1024 NOSIG=
0149583670999992020010719304+31198+121336FM-15+000399999V0203101N00801006101CN009999199+00601+00101999999ADDGA1071+006101999GE19MSL   +99999+99999GF199999071999006101999999MA1102501999999REMMET058METAR ZSSS 071930Z 31008MPS 9999 BKN020 06/01 Q1025 NOSIG=
0149583670999992020010720004+31198+121336FM-15+000399999V0203201N00801006101CN009999199+00601+00101999999ADDGA1071+006101999GE19MSL   +99999+99999GF199999071999006101999999MA1102501999999REMMET058METAR ZSSS 072000Z 32008MPS 9999 BKN020 06/01 Q1025 NOSIG=
0157583670999992020010720304+31198+121336FM-15+000399999V0202901V00601006101CN009999199+00501+00101999999ADDGA1071+006101999GE19MSL   +99999+99999GF199999071999006101999999MA1102601999999REMMET066METAR ZSSS 072030Z 29006MPS 260V320 9999 BKN020 05/01 Q1026 NOSIG=
0149583670999992020010721004+31198+121336FM-15+000399999V0203101N00701006101CN009999199+00501+00101999999ADDGA1071+006101999GE19MSL   +99999+99999GF199999071999006101999999MA1102601999999REMMET058METAR ZSSS 072100Z 31007MPS 9999 BKN020 05/01 Q1026 NOSIG=
0149583670999992020010721304+31198+121336FM-15+000399999V0203001N00601007011CN009999199+00601+00101999999ADDGA1071+007011999GE19MSL   +99999+99999GF199999071999007011999999MA1102701999999REMMET058METAR ZSSS 072130Z 30006MPS 9999 BKN023 06/01 Q1027 NOSIG=
0149583670999992020010722004+31198+121336FM-15+000399999V0202901N00601007011CN009999199+00601+00101999999ADDGA1071+007011999GE19MSL   +99999+99999GF199999071999007011999999MA1102701999999REMMET058METAR ZSSS 072200Z 29006MPS 9999 BKN023 06/01 Q1027 NOSIG=
0157583670999992020010722304+31198+121336FM-15+000399999V0203101V00701007011CN009999199+00601+00101999999ADDGA1071+007011999GE19MSL   +99999+99999GF199999071999007011999999MA1102701999999REMMET066METAR ZSSS 072230Z 31007MPS 270V340 9999 BKN023 06/01 Q1027 NOSIG=
0160583670999992020010723004+31198+121336FM-15+000399999V0203101N00701006101CN009999199+00501+00101999999ADDGA1071+006101999GE19MSL   +99999+99999GF199999071999006101999999MA1102801999999OC101201REMMET061METAR ZSSS 072300Z 31007G12MPS 9999 BKN020 05/01 Q1028 NOSIG=
0157583670999992020010723304+31198+121336FM-15+000399999V0203101V00701004881CN009999199+00501+00101999999ADDGA1071+004881999GE19MSL   +99999+99999GF199999071999004881999999MA1102801999999REMMET066METAR ZSSS 072330Z 31007MPS 280V350 9999 BKN016 05/01 Q1028 NOSIG=
0157583670999992020010800004+31198+121336FM-15+000399999V0203101V00501004881CN009999199+00501+00101999999ADDGA1071+004881999GE19MSL   +99999+99999GF199999071999004881999999MA1102901999999REMMET066METAR ZSSS 080000Z 31005MPS 280V350 9999 BKN016 05/01 Q1029 NOSIG=
0172583670999992020010800304+31198+121336FM-15+000399999V0203001N00701004881CN007000199+00501+00101999999ADDGA1071+004881999GA2081+012191999GE19MSL   +99999+99999GF199999071999004881999999MA1102901999999REMMET065METAR ZSSS 080030Z 30007MPS 7000 BKN016 OVC040 05/01 Q1029 NOSIG=
0172583670999992020010801004+31198+121336FM-15+000399999V0203001N00501006101CN009999199+00601+00001999999ADDGA1071+006101999GA2081+012191999GE19MSL   +99999+99999GF199999071999006101999999MA1102901999999REMMET065METAR ZSSS 080100Z 30005MPS 9999 BKN020 OVC040 06/00 Q1029 NOSIG=
0180583670999992020010801304+31198+121336FM-15+000399999V0202901V00501006101CN009999199+00501+00101999999ADDGA1071+006101999GA2081+012191999GE19MSL   +99999+99999GF199999071999006101999999MA1102901999999REMMET073METAR ZSSS 080130Z 29005MPS 270V330 9999 BKN020 OVC040 05/01 Q1029 NOSIG=
0180583670999992020010802004+31198+121336FM-15+000399999V0203101V00501006101CN009999199+00601+00001999999ADDGA1071+006101999GA2081+012191999GE19MSL   +99999+99999GF199999071999006101999999MA1102901999999REMMET073METAR ZSSS 080200Z 31005MPS 280V340 9999 BKN020 OVC040 06/00 Q1029 NOSIG=
0180583670999992020010802304+31198+121336FM-15+000399999V0203201V00401007011CN009999199+00601+00101999999ADDGA1071+007011999GA2081+012191999GE19MSL   +99999+99999GF199999071999007011999999MA1102901999999REMMET073METAR ZSSS 080230Z 32004MPS 290V350 9999 BKN023 OVC040 06/01 Q1029 NOSIG=
0180583670999992020010803004+31198+121336FM-15+000399999V0203101V00501007011CN009999199+00601+00101999999ADDGA1071+007011999GA2081+012191999GE19MSL   +99999+99999GF199999071999007011999999MA1102901999999REMMET073METAR ZSSS 080300Z 31005MPS 280V340 9999 BKN023 OVC040 06/01 Q1029 NOSIG=
0180583670999992020010803304+31198+121336FM-15+000399999V0203001V00401007011CN009999199+00601+00101999999ADDGA1071+007011999GA2081+012191999GE19MSL   +99999+99999GF199999071999007011999999MA1102801999999REMMET073METAR ZSSS 080330Z 30004MPS 260V350 9999 BKN023 OVC040 06/01 Q1028 NOSIG=
0180583670999992020010804004+31198+121336FM-15+000399999V0203001V004010121919N009999199+00701+00101999999ADDGA1041+007011999GA2071+012191999GE19MSL   +99999+99999GF199999041999007011999999MA1102801999999REMMET073METAR ZSSS 080400Z 30004MPS 260V340 9999 SCT023 BKN040 07/01 Q1028 NOSIG=
0180583670999992020010804304+31198+121336FM-15+000399999V0202801V005010121919N009999199+00701+00001999999ADDGA1041+007011999GA2071+012191999GE19MSL   +99999+99999GF199999041999007011999999MA1102701999999REMMET073METAR ZSSS 080430Z 28005MPS 250V330 9999 SCT023 BKN040 07/00 Q1027 NOSIG=
0181583670999992020010805004+31198+121336FM-15+000399999V0203001V006010121919N009999199+00701+00001999999ADDGA1041+007921999GA2071+012191999GE19MSL   +99999+99999GF199999041999007921999999MA1102701999999REMMET074METAR ZSSS 080500Z 30006MPS 270V340 9999 SCT026 BKN040 07/M00 Q1027 NOSIG=
0158583670999992020010805304+31198+121336FM-15+000399999V0203201V00501009141CN009999199+00801+00001999999ADDGA1071+009141999GE19MSL   +99999+99999GF199999071999009141999999MA1102701999999REMMET067METAR ZSSS 080530Z 32005MPS 280V350 9999 BKN030 08/M00 Q1027 NOSIG=
0158583670999992020010806004+31198+121336FM-15+000399999V0203101V00601010061CN009999199+00801-00201999999ADDGA1071+010061999GE19MSL   +99999+99999GF199999071999010061999999MA1102701999999REMMET067METAR ZSSS 080600Z 31006MPS 270V340 9999 BKN033 08/M02 Q1027 NOSIG=
0158583670999992020010806304+31198+121336FM-15+000399999V0203301V00601010061CN009999199+00801-00101999999ADDGA1071+010061999GE19MSL   +99999+99999GF199999071999010061999999MA1102701999999REMMET067METAR ZSSS 080630Z 33006MPS 300V360 9999 BKN033 08/M01 Q1027 NOSIG=
0158583670999992020010807004+31198+121336FM-15+000399999V0203301V00601010061CN009999199+00801-00101999999ADDGA1071+010061999GE19MSL   +99999+99999GF199999071999010061999999MA1102701999999REMMET067METAR ZSSS 080700Z 33006MPS 290V350 9999 BKN033 08/M01 Q1027 NOSIG=
0150583670999992020010807304+31198+121336FM-15+000399999V0203201N006019999999N009999199+00801-00101999999ADDGA1021+010061999GE19MSL   +99999+99999GF199999021999010061999999MA1102701999999REMMET059METAR ZSSS 080730Z 32006MPS 9999 FEW033 08/M01 Q1027 NOSIG=
0080583670999992020010808004+31198+121336FM-15+000399999V0203301N006019999999Y009900599+00801-00101999999ADDMA1102701999999REMMET053METAR ZSSS 080800Z 33006MPS CAVOK 08/M01 Q1027 NOSIG=
0080583670999992020010808304+31198+121336FM-15+000399999V0203301N006019999999Y009900599+00701-00101999999ADDMA1102601999999REMMET053METAR ZSSS 080830Z 33006MPS CAVOK 07/M01 Q1026 NOSIG=
0080583670999992020010809004+31198+121336FM-15+000399999V0203301N005019999999Y009900599+00701-00201999999ADDMA1102701999999REMMET053METAR ZSSS 080900Z 33005MPS CAVOK 07/M02 Q1027 NOSIG=
0080583670999992020010809304+31198+121336FM-15+000399999V0203501N006019999999Y009900599+00601-00201999999ADDMA1102701999999REMMET053METAR ZSSS 080930Z 35006MPS CAVOK 06/M02 Q1027 NOSIG=
0080583670999992020010810004+31198+121336FM-15+000399999V0203401N005019999999Y009900599+00601-00201999999ADDMA1102701999999REMMET053METAR ZSSS 081000Z 34005MPS CAVOK 06/M02 Q1027 NOSIG=
0080583670999992020010810304+31198+121336FM-15+000399999V0203501N005019999999Y009900599+00601-00201999999ADDMA1102701999999REMMET053METAR ZSSS 081030Z 35005MPS CAVOK 06/M02 Q1027 NOSIG=
0080583670999992020010811004+31198+121336FM-15+000399999V0203401N003019999999Y009900599+00601-00201999999ADDMA1102701999999REMMET053METAR ZSSS 081100Z 34003MPS CAVOK 06/M02 Q1027 NOSIG=
0080583670999992020010811304+31198+121336FM-15+000399999V0203201N003019999999Y009900599+00601-00201999999ADDMA1102701999999REMMET053METAR ZSSS 081130Z 32003MPS CAVOK 06/M02 Q1027 NOSIG=
0080583670999992020010812004+31198+121336FM-15+000399999V0203601N004019999999Y009900599+00601-00201999999ADDMA1102701999999REMMET053METAR ZSSS 081200Z 36004MPS CAVOK 06/M02 Q1027 NOSIG=
0080583670999992020010812304+31198+121336FM-15+000399999V0203601N003019999999Y009900599+00501-00101999999ADDMA1102801999999REMMET053METAR ZSSS 081230Z 36003MPS CAVOK 05/M01 Q1028 NOSIG=
0080583670999992020010813004+31198+121336FM-15+000399999V0200301N003019999999Y009900599+00601+00001999999ADDMA1102801999999REMMET053METAR ZSSS 081300Z 03003MPS CAVOK 06/M00 Q1028 NOSIG=
0080583670999992020010813304+31198+121336FM-15+000399999V0200201N003019999999Y009900599+00501+00001999999ADDMA1102801999999REMMET053METAR ZSSS 081330Z 02003MPS CAVOK 05/M00 Q1028 NOSIG=
0080583670999992020010814004+31198+121336FM-15+000399999V0200401N003019999999Y009900599+00501+00001999999ADDMA1102801999999REMMET053METAR ZSSS 081400Z 04003MPS CAVOK 05/M00 Q1028 NOSIG=
0080583670999992020010814304+31198+121336FM-15+000399999V0200301N003019999999Y009900599+00601-00101999999ADDMA1102801999999REMMET053METAR ZSSS 081430Z 03003MPS CAVOK 06/M01 Q1028 NOSIG=
0150583670999992020010815004+31198+121336FM-15+000399999V0200501N004019999999N009999199+00601-00101999999ADDGA1021+007921999GE19MSL   +99999+99999GF199999021999007921999999MA1102801999999REMMET059METAR ZSSS 081500Z 05004MPS 9999 FEW026 06/M01 Q1028 NOSIG=
0080583670999992020010815304+31198+121336FM-15+000399999V0200401N004019999999Y009900599+00501-00101999999ADDMA1102701999999REMMET053METAR ZSSS 081530Z 04004MPS CAVOK 05/M01 Q1027 NOSIG=
0080583670999992020010816004+31198+121336FM-15+000399999V0200301N005019999999Y009900599+00501-00101999999ADDMA1102801999999REMMET053METAR ZSSS 081600Z 03005MPS CAVOK 05/M01 Q1028 NOSIG=
0088583670999992020010816304+31198+121336FM-15+000399999V0200101V003019999999Y009900599+00501-00101999999ADDMA1102801999999REMMET061METAR ZSSS 081630Z 01003MPS 350V050 CAVOK 05/M01 Q1028 NOSIG=
0150583670999992020010817004+31198+121336FM-15+000399999V0203601N005019999999N009999199+00501-00101999999ADDGA1041+010061999GE19MSL   +99999+99999GF199999041999010061999999MA1102801999999REMMET059METAR ZSSS 081700Z 36005MPS 9999 SCT033 05/M01 Q1028 NOSIG=
0150583670999992020010817304+31198+121336FM-15+000399999V0203601N00401009141CN009999199+00501-00101999999ADDGA1071+009141999GE19MSL   +99999+99999GF199999071999009141999999MA1102801999999REMMET059METAR ZSSS 081730Z 36004MPS 9999 BKN030 05/M01 Q1028 NOSIG=
0150583670999992020010818004+31198+121336FM-15+000399999V0203601N004019999999N009999199+00501-00101999999ADDGA1041+009141999GE19MSL   +99999+99999GF199999041999009141999999MA1102801999999REMMET059METAR ZSSS 081800Z 36004MPS 9999 SCT030 05/M01 Q1028 NOSIG=
0150583670999992020010818304+31198+121336FM-15+000399999V0203601N00401009141CN009999199+00501+00001999999ADDGA1071+009141999GE19MSL   +99999+99999GF199999071999009141999999MA1102801999999REMMET059METAR ZSSS 081830Z 36004MPS 9999 BKN030 05/M00 Q1028 NOSIG=
0150583670999992020010819004+31198+121336FM-15+000399999V0203601N00301009141CN009999199+00501+00001999999ADDGA1071+009141999GE19MSL   +99999+99999GF199999071999009141999999MA1102701999999REMMET059METAR ZSSS 081900Z 36003MPS 9999 BKN030 05/M00 Q1027 NOSIG=
0150583670999992020010819304+31198+121336FM-15+000399999V0200101N00301009141CN009999199+00501+00001999999ADDGA1071+009141999GE19MSL   +99999+99999GF199999071999009141999999MA1102701999999REMMET059METAR ZSSS 081930Z 01003MPS 9999 BKN030 05/M00 Q1027 NOSIG=
0150583670999992020010820004+31198+121336FM-15+000399999V0203401N003019999999N009999199+00501+00001999999ADDGA1021+009141999GE19MSL   +99999+99999GF199999021999009141999999MA1102701999999REMMET059METAR ZSSS 082000Z 34003MPS 9999 FEW030 05/M00 Q1027 NOSIG=
0080583670999992020010820304+31198+121336FM-15+000399999V0203401N003019999999Y009900599+00501+00001999999ADDMA1102701999999REMMET053METAR ZSSS 082030Z 34003MPS CAVOK 05/M00 Q1027 NOSIG=
0080583670999992020010821004+31198+121336FM-15+000399999V0200101N004019999999Y009900599+00501+00001999999ADDMA1102601999999REMMET053METAR ZSSS 082100Z 01004MPS CAVOK 05/M00 Q1026 NOSIG=
0079583670999992020010821304+31198+121336FM-15+000399999V0203601N003019999999Y009900599+00501+00001999999ADDMA1102601999999REMMET052METAR ZSSS 082130Z 36003MPS CAVOK 05/00 Q1026 NOSIG=
0079583670999992020010822004+31198+121336FM-15+000399999V0200101N003019999999Y009900599+00501+00001999999ADDMA1102601999999REMMET052METAR ZSSS 082200Z 01003MPS CAVOK 05/00 Q1026 NOSIG=
0149583670999992020010822304+31198+121336FM-15+000399999V0203601N00301007011CN009999199+00501+00101999999ADDGA1071+007011999GE19MSL   +99999+99999GF199999071999007011999999MA1102601999999REMMET058METAR ZSSS 082230Z 36003MPS 9999 BKN023 05/01 Q1026 NOSIG=
0149583670999992020010823004+31198+121336FM-15+000399999V0200201N00201007011CN009999199+00501+00101999999ADDGA1071+007011999GE19MSL   +99999+99999GF199999071999007011999999MA1102601999999REMMET058METAR ZSSS 082300Z 02002MPS 9999 BKN023 05/01 Q1026 NOSIG=
0149583670999992020010823304+31198+121336FM-15+000399999V0203501N00301006101CN009999199+00601+00101999999ADDGA1071+006101999GE19MSL   +99999+99999GF199999071999006101999999MA1102601999999REMMET058METAR ZSSS 082330Z 35003MPS 9999 BKN020 06/01 Q1026 NOSIG=
0149583670999992020010900004+31198+121336FM-15+000399999V0203601N00301006101CN009999199+00601+00101999999ADDGA1071+006101999GE19MSL   +99999+99999GF199999071999006101999999MA1102601999999REMMET058METAR ZSSS 090000Z 36003MPS 9999 BKN020 06/01 Q1026 NOSIG=
0149583670999992020010900304+31198+121336FM-15+000399999V0203501N00301006101CN009999199+00601+00201999999ADDGA1071+006101999GE19MSL   +99999+99999GF199999071999006101999999MA1102601999999REMMET058METAR ZSSS 090030Z 35003MPS 9999 BKN020 06/02 Q1026 NOSIG=
0149583670999992020010901004+31198+121336FM-15+000399999V0203601N00301007011CN009999199+00601+00201999999ADDGA1071+007011999GE19MSL   +99999+99999GF199999071999007011999999MA1102701999999REMMET058METAR ZSSS 090100Z 36003MPS 9999 BKN023 06/02 Q1027 NOSIG=
0157583670999992020010901304+31198+121336FM-15+000399999V0203601V00301007011CN009999199+00601+00201999999ADDGA1071+007011999GE19MSL   +99999+99999GF199999071999007011999999MA1102701999999REMMET066METAR ZSSS 090130Z 36003MPS 330V030 9999 BKN023 06/02 Q1027 NOSIG=
0157583670999992020010902004+31198+121336FM-15+000399999V0203501V00301007921CN009999199+00601+00201999999ADDGA1071+007921999GE19MSL   +99999+99999GF199999071999007921999999MA1102701999999REMMET066METAR ZSSS 090200Z 35003MPS 320V020 9999 BKN026 06/02 Q1027 NOSIG=
0157583670999992020010902304+31198+121336FM-15+000399999V0203601V00301007921CN009999199+00601+00301999999ADDGA1071+007921999GE19MSL   +99999+99999GF199999071999007921999999MA1102701999999REMMET066METAR ZSSS 090230Z 36003MPS 290V020 9999 BKN026 06/03 Q1027 NOSIG=
0149583670999992020010903004+31198+121336FM-15+000399999V0203501N00301007921CN009999199+00601+00301999999ADDGA1071+007921999GE19MSL   +99999+99999GF199999071999007921999999MA1102701999999REMMET058METAR ZSSS 090300Z 35003MPS 9999 BKN026 06/03 Q1027 NOSIG=
0149583670999992020010903304+31198+121336FM-15+000399999V0203501N00401007011CN009999199+00701+00301999999ADDGA1071+007011999GE19MSL   +99999+99999GF199999071999007011999999MA1102601999999REMMET058METAR ZSSS 090330Z 35004MPS 9999 BKN023 07/03 Q1026 NOSIG=
0157583670999992020010904004+31198+121336FM-15+000399999V0200301V00301007011CN009999199+00701+00301999999ADDGA1071+007011999GE19MSL   +99999+99999GF199999071999007011999999MA1102501999999REMMET066METAR ZSSS 090400Z 03003MPS 360V060 9999 BKN023 07/03 Q1025 NOSIG=
0159583670999992020010904304+31198+121336FM-15+000399999V0200101N00401007011CN009999199+00701+00301999999ADDGA1071+007011999GE19MSL   +99999+99999GF199999071999007011999999MA1102501999999MW1611REMMET062METAR ZSSS 090430Z 01004MPS 9999 -RA BKN023 07/03 Q1025 NOSIG=
0159583670999992020010905004+31198+121336FM-15+000399999V0203501N00401006101CN009999199+00701+00301999999ADDGA1071+006101999GE19MSL   +99999+99999GF199999071999006101999999MA1102501999999MW1611REMMET062METAR ZSSS 090500Z 35004MPS 9999 -RA BKN020 07/03 Q1025 NOSIG=
0159583670999992020010905304+31198+121336FM-15+000399999V0203601N00401006101CN009999199+00601+00401999999ADDGA1071+006101999GE19MSL   +99999+99999GF199999071999006101999999MA1102501999999MW1611REMMET062METAR ZSSS 090530Z 36004MPS 9999 -RA BKN020 06/04 Q1025 NOSIG=
0159583670999992020010906004+31198+121336FM-15+000399999V0203601N004019999999N009999199+00601+00401999999ADDGA1041+003961999GE19MSL   +99999+99999GF199999041999003961999999MA1102501999999MW1611REMMET062METAR ZSSS 090600Z 36004MPS 9999 -RA SCT013 06/04 Q1025 NOSIG=
0167583670999992020010906304+31198+121336FM-15+000399999V0200201V003019999999N007000199+00601+00501999999ADDGA1041+003961999GE19MSL   +99999+99999GF199999041999003961999999MA1102401999999MW1611REMMET070METAR ZSSS 090630Z 02003MPS 350V060 7000 -RA SCT013 06/05 Q1024 NOSIG=
0173583670999992020010907004+31198+121336FM-15+000399999V0200201N00201003051CN007000199+00601+00401999999ADDGA1071+003051999GE19MSL   +99999+99999GF199999071999003051999999MA1102401999999MW1611REMMET076METAR ZSSS 090700Z 02002MPS 7000 -RA BKN010 06/04 Q1024 BECMG TL0830 BKN015=
0167583670999992020010907304+31198+121336FM-15+000399999V0200401V00301003051CN009999199+00601+00501999999ADDGA1071+003051999GE19MSL   +99999+99999GF199999071999003051999999MA1102401999999MW1611REMMET070METAR ZSSS 090730Z 04003MPS 360V070 9999 -RA BKN010 06/05 Q1024 NOSIG=
0159583670999992020010908004+31198+121336FM-15+000399999V0200201N00401003051CN009999199+00601+00501999999ADDGA1071+003051999GE19MSL   +99999+99999GF199999071999003051999999MA1102401999999MW1611REMMET062METAR ZSSS 090800Z 02004MPS 9999 -RA BKN010 06/05 Q1024 NOSIG=
0167583670999992020010908304+31198+121336FM-15+000399999V0200401V00301003351CN009999199+00601+00501999999ADDGA1071+003351999GE19MSL   +99999+99999GF199999071999003351999999MA1102401999999MW1611REMMET070METAR ZSSS 090830Z 04003MPS 010V120 9999 -RA BKN011 06/05 Q1024 NOSIG=
0181583670999992020010909004+31198+121336FM-15+000399999V0200201V00301003961CN009999199+00601+00501999999ADDGA1071+003961999GE19MSL   +99999+99999GF199999071999003961999999MA1102501999999MW1611REMMET084METAR ZSSS 090900Z 02003MPS 360V060 9999 -RA BKN013 06/05 Q1025 BECMG TL0950 BKN016=
0159583670999992020010909304+31198+121336FM-15+000399999V0200201N00401003661CN008000199+00601+00501999999ADDGA1071+003661999GE19MSL   +99999+99999GF199999071999003661999999MA1102501999999MW1611REMMET062METAR ZSSS 090930Z 02004MPS 8000 -RA BKN012 06/05 Q1025 NOSIG=
0159583670999992020010910004+31198+121336FM-15+000399999V0200501N00501003051CN007000199+00601+00501999999ADDGA1071+003051999GE19MSL   +99999+99999GF199999071999003051999999MA1102401999999MW1611REMMET062METAR ZSSS 091000Z 05005MPS 7000 -RA BKN010 06/05 Q1024 NOSIG=
0157583670999992020010910304+31198+121336FM-15+000399999V0200501V00301003051CN008000199+00601+00501999999ADDGA1071+003051999GE19MSL   +99999+99999GF199999071999003051999999MA1102401999999REMMET066METAR ZSSS 091030Z 05003MPS 020V130 8000 BKN010 06/05 Q1024 NOSIG=
0149583670999992020010911004+31198+121336FM-15+000399999V0200501N00501003051CN009999199+00601+00501999999ADDGA1071+003051999GE19MSL   +99999+99999GF199999071999003051999999MA1102401999999REMMET058METAR ZSSS 091100Z 05005MPS 9999 BKN010 06/05 Q1024 NOSIG=
0149583670999992020010911304+31198+121336FM-15+000399999V0200501N00401003051CN009999199+00601+00501999999ADDGA1071+003051999GE19MSL   +99999+99999GF199999071999003051999999MA1102401999999REMMET058METAR ZSSS 091130Z 05004MPS 9999 BKN010 06/05 Q1024 NOSIG=
0167583670999992020010912004+31198+121336FM-15+000399999V0200501V00401003051CN009999199+00701+00501999999ADDGA1071+003051999GE19MSL   +99999+99999GF199999071999003051999999MA1102401999999MW1611REMMET070METAR ZSSS 091200Z 05004MPS 030V090 9999 -RA BKN010 07/05 Q1024 NOSIG=
0149583670999992020010912304+31198+121336FM-15+000399999V0200501N00401003351CN009999199+00701+00501999999ADDGA1071+003351999GE19MSL   +99999+99999GF199999071999003351999999MA1102401999999REMMET058METAR ZSSS 091230Z 05004MPS 9999 BKN011 07/05 Q1024 NOSIG=
0167583670999992020010913004+31198+121336FM-15+000399999V0200401V00301003351CN009999199+00701+00501999999ADDGA1071+003351999GE19MSL   +99999+99999GF199999071999003351999999MA1102401999999MW1611REMMET070METAR ZSSS 091300Z 04003MPS 010V070 9999 -RA BKN011 07/05 Q1024 NOSIG=
0157583670999992020010913304+31198+121336FM-15+000399999V0200501V00301003351CN009999199+00701+00501999999ADDGA1071+003351999GE19MSL   +99999+99999GF199999071999003351999999MA1102401999999REMMET066METAR ZSSS 091330Z 05003MPS 020V080 9999 BKN011 07/05 Q1024 NOSIG=
0163583670999992020010914004+31198+121336FM-15+000399999V0200601N00401003961CN009999199+00701+00501999999ADDGA1071+003961999GE19MSL   +99999+99999GF199999071999003961999999MA1102401999999REMMET072METAR ZSSS 091400Z 06004MPS 9999 BKN013 07/05 Q1024 BECMG TL1500 BKN015=
0149583670999992020010914304+31198+121336FM-15+000399999V0200501N00401003961CN009999199+00701+00501999999ADDGA1071+003961999GE19MSL   +99999+99999GF199999071999003961999999MA1102401999999REMMET058METAR ZSSS 091430Z 05004MPS 9999 BKN013 07/05 Q1024 NOSIG=
0163583670999992020010915004+31198+121336FM-15+000399999V0200401N00301003961CN009999199+00701+00501999999ADDGA1071+003961999GE19MSL   +99999+99999GF199999071999003961999999MA1102401999999REMMET072METAR ZSSS 091500Z 04003MPS 9999 BKN013 07/05 Q1024 BECMG TL1600 BKN015=
0149583670999992020010915304+31198+121336FM-15+000399999V0200401N00301003961CN009999199+00701+00501999999ADDGA1071+003961999GE19MSL   +99999+99999GF199999071999003961999999MA1102401999999REMMET058METAR ZSSS 091530Z 04003MPS 9999 BKN013 07/05 Q1024 NOSIG=
0149583670999992020010916004+31198+121336FM-15+000399999V0200501N00301004571CN009999199+00701+00601999999ADDGA1071+004571999GE19MSL   +99999+99999GF199999071999004571999999MA1102301999999REMMET058METAR ZSSS 091600Z 05003MPS 9999 BKN015 07/06 Q1023 NOSIG=
0149583670999992020010916304+31198+121336FM-15+000399999V0200401N00301004571CN009999199+00701+00601999999ADDGA1071+004571999GE19MSL   +99999+99999GF199999071999004571999999MA1102301999999REMMET058METAR ZSSS 091630Z 04003MPS 9999 BKN015 07/06 Q1023 NOSIG=
