0180643870999992020010101004-01969+030139FM-15+148199999V0209999C00001030481CN005000199+01801+01701999999ADDGA1021+004571999GA2041+030481999GE19MSL   +99999+99999GF199999021999004571999999MA1102001999999MW1101REMMET067METAR HRYR 010100Z 00000KT 5000 BR FEW015 SCT100 18/17 Q1020 NOSIG=
0174643870999992020010102004-01969+030139FM-15+148199999V0203201N00101030481CN009999199+01901+01701999999ADDGA1041+007011999GA2041+030481999GE19MSL   +99999+99999GF199999041999007011999999MA1101901999999REMMET067METAR COR HRYR 010200Z 32002KT 9999 SCT023 SCT100 19/17Q1019 NOSIG=
0174643870999992020010103004-01969+030139FM-15+148199999V0209999V00101030481CN009999199+01901+01601999999ADDGA1041+007011999GA2041+030481999GE19MSL   +99999+99999GF199999041999007011999999MA1101901999999REMMET067METAR COR HRYR 010300Z VRB02KT 9999 SCT023 SCT100 19/16Q1019 NOSIG=
0184643870999992020010104004-01969+030139FM-15+148199999V0209999C00001030481CN005000199+01801+01701999999ADDGA1021+004571999GA2041+030481999GE19MSL   +99999+99999GF199999021999004571999999MA1102001999999MW1101REMMET071METAR COR HRYR 010400Z 00000KT 5000 BR FEW015 SCT100 18/17 Q1020 NOSIG=
0171643870999992020010105304-01969+030139FM-15+148199999V0203401N00101030481CN008000199+01901+01701999999ADDGA1021+007621999GA2041+030481999GE19MSL   +99999+99999GF199999021999007621999999MA1102101999999REMMET064METAR HRYR 010530Z 34002KT 8000 FEW025 SCT100 19/17 Q1021 NOSIG=
0171643870999992020010106004-01969+030139FM-15+148199999V0209999C00001030481CN008000199+02001+01701999999ADDGA1021+004571999GA2041+030481999GE19MSL   +99999+99999GF199999021999004571999999MA1102101999999REMMET064METAR HRYR 010600Z 00000KT 8000 FEW015 SCT100 20/17 Q1021 NOSIG=
0171643870999992020010106304-01969+030139FM-15+148199999V0209999C00001030481CN009000199+02201+01801999999ADDGA1041+007621999GA2041+030481999GE19MSL   +99999+99999GF199999041999007621999999MA1102101999999REMMET064METAR HRYR 010630Z 00000KT 9000 SCT025 SCT100 22/18 Q1021 NOSIG=
0109643870999992020010107004-01969+030139FM-15+148199999V0209999N999999999999N011265599+02205+01905999999ADDMA1102105999999REMMET063METAR HRYR 010700Z VR02KT 9999 SCT025 SCT100 22/19 Q1021 NOSIG=EQDD01      0ADE693
0151643870999992020010107304-01969+030139FM-15+148199999V0200101N001519999999N009999199+02301+01801999999ADDGA1041+007621999GE19MSL   +99999+99999GF199999041999007621999999MA1102001999999REMMET060METAR COR HRYR 010730Z 01003KT 9999 SCT025 23/18Q1020 NOSIG=
0148643870999992020010108004-01969+030139FM-15+148199999V0201701N002619999999N009999199+02401+01901999999ADDGA1041+007621999GE19MSL   +99999+99999GF199999041999007621999999MA1102001999999REMMET057METAR HRYR 010800Z 17005KT 9999 SCT025 24/19 Q1020 NOSIG=
0148643870999992020010108304-01969+030139FM-15+148199999V0200301N003119999999N009999199+02501+01601999999ADDGA1041+007621999GE19MSL   +99999+99999GF199999041999007621999999MA1102001999999REMMET057METAR HRYR 010830Z 03006KT 9999 SCT025 25/16 Q1020 NOSIG=
0148643870999992020010109004-01969+030139FM-15+148199999V0200501N004119999999N009999199+02601+01401999999ADDGA1041+007621999GE19MSL   +99999+99999GF199999041999007621999999MA1102001999999REMMET057METAR HRYR 010900Z 05008KT 9999 SCT025 26/14 Q1020 NOSIG=
0148643870999992020010109304-01969+030139FM-15+148199999V0200401N005119999999N009999199+02601+01501999999ADDGA1041+007621999GE19MSL   +99999+99999GF199999041999007621999999MA1101901999999REMMET057METAR HRYR 010930Z 04010KT 9999 SCT025 26/15 Q1019 NOSIG=
0102643870999992020010110004-01969+030139FM-15+148199999V0203601N005119999999N999999999+02805+01505999999ADDMA1101805999999REMMET056METAR HRYR 011000Z 36010KT 9999SCT025 28/15 Q1018 NOSIG=EQDD01      0ADE693
0102643870999992020010111004-01969+030139FM-15+148199999V0200401N002619999999N999999999+02605+01405999999ADDMA1101805999999REMMET056METAR HRYR 011100Z 04005KT 9999SCT025 26/14 Q1018 NOSIG=EQDD01      0ADE693
0194643870999992020010112004-01967+030117FM-12+149199999V0200801N00311006901CN010000199+02771+01421999999ADDGA1051+006901081GA2999+999999001GE19MSL   +99999+99999GF107991051999006901999999MA1999999084941MD1999999+0031ME1314889REMSYN06464387 32560 70806 10277 20142 38494 48488 84202 333 58003 85823=
0102643870999992020010112004-01969+030139FM-15+148199999V0200801N003119999999N999999999+02805+01405999999ADDMA1101705999999REMMET056METAR HRYR 011200Z 08006KT 9999BKN023 28/14 Q1017 NOSIG=EQDD01      0ADE693
0102643870999992020010113004-01969+030139FM-15+148199999V0209999V002119999999N999999999+02805+01605999999ADDMA1101605999999REMMET056METAR HRYR 011300Z VRB04KT 9999BKN023 28/16 Q1016 NOSIG=EQDD01      0ADE693
0102643870999992020010114004-01969+030139FM-15+148199999V0200501N002619999999N999999999+02805+01405999999ADDMA1101605999999REMMET056METAR HRYR 011400Z 05005KT 9999SCT023 28/14 Q1016 NOSIG=EQDD01      0ADE693
0213643870999992020010115004-01967+030117FM-12+149199999V0200301N004112200019N010000199+02791+01331999999ADDGA1031+007501081GA2999+999999031GE19MSL   +99999+99999GF104991031999007501999999KA1240M+02901MA1999999084931MD1999999-0021ME1314779REMSYN07064387 32560 40308 10279 20133 38493 48477 83230 333 10290 59002 83825=
0102643870999992020010115004-01969+030139FM-15+148199999V0200301N004119999999N999999999+02805+01305999999ADDMA1101605999999REMMET056METAR HRYR 011500Z 03008KT 9999SCT023 28/13 Q1016 NOSIG=EQDD01      0ADE693
0148643870999992020010116004-01969+030139FM-15+148199999V0200201N003619999999N009999199+02501+01501999999ADDGA1021+007621999GE19MSL   +99999+99999GF199999021999007621999999MA1101601999999REMMET057METAR HRYR 011600Z 02007KT 9999 FEW025 25/15 Q1016 NOSIG=
0148643870999992020010116304-01969+030139FM-15+148199999V0200201N003119999999N009999199+02401+01501999999ADDGA1021+007621999GE19MSL   +99999+99999GF199999021999007621999999MA1101601999999REMMET057METAR HRYR 011630Z 02006KT 9999 FEW025 24/15 Q1016 NOSIG=
0151643870999992020010117004-01969+030139FM-15+148199999V0200301N003119999999N009999199+02301+01501999999ADDGA1021+007621999GE19MSL   +99999+99999GF199999021999007621999999MA1101601999999REMMET060METAR COR HRYR 011700Z 03006KT 9999 FEW025 23/15Q1016 NOSIG=
0151643870999992020010117304-01969+030139FM-15+148199999V0200101N003119999999N009999199+02301+01401999999ADDGA1021+007621999GE19MSL   +99999+99999GF199999021999007621999999MA1101701999999REMMET060METAR COR HRYR 011730Z 01006KT 9999 FEW025 23/14Q1017 NOSIG=
0151643870999992020010118004-01969+030139FM-15+148199999V0200201N003119999999N009999199+02301+01401999999ADDGA1021+007621999GE19MSL   +99999+99999GF199999021999007621999999MA1101701999999REMMET060METAR COR HRYR 011800Z 02006KT 9999 FEW025 23/14Q1017 NOSIG=
0151643870999992020010118304-01969+030139FM-15+148199999V0200301N004119999999N009999199+02201+01501999999ADDGA1021+007621999GE19MSL   +99999+99999GF199999021999007621999999MA1101801999999REMMET060METAR COR HRYR 011830Z 03008KT 9999 FEW025 22/15Q1018 NOSIG=
0148643870999992020010119004-01969+030139FM-15+148199999V0200201N004119999999N009999199+02201+01501999999ADDGA1021+007621999GE19MSL   +99999+99999GF199999021999007621999999MA1101801999999REMMET057METAR HRYR 011900Z 02008KT 9999 FEW025 22/15 Q1018 NOSIG=
0151643870999992020010119304-01969+030139FM-15+148199999V0200301N005119999999N009999199+02201+01401999999ADDGA1021+007321999GE19MSL   +99999+99999GF199999021999007321999999MA1101901999999REMMET060METAR COR HRYR 011930Z 03010KT 9999 FEW024 22/14Q1019 NOSIG=
0147643870999992020010120004-01969+030139FM-15+148199999V0203601N002119999999N009999199+02101+01501999999ADDGA1021+007321999GE19MSL   +99999+99999GF199999021999007321999999MA1101901999999REMMET056METAR HRYR 012000Z 36004KT 9999 FEW024 21/15Q1019 NOSIG=
0151643870999992020010120304-01969+030139FM-15+148199999V0203201N002619999999N009999199+02101+01401999999ADDGA1021+007321999GE19MSL   +99999+99999GF199999021999007321999999MA1101901999999REMMET060METAR COR HRYR 012030Z 32005KT 9999 FEW024 21/14Q1019 NOSIG=
0174643870999992020010121304-01969+030139FM-15+148199999V0203301N00361030481CN009999199+02001+01401999999ADDGA1041+007321999GA2041+030481999GE19MSL   +99999+99999GF199999041999007321999999MA1101901999999REMMET067METAR COR HRYR 012130Z 33007KT 9999 SCT024 SCT100 20/14Q1019 NOSIG=
0170643870999992020010122004-01969+030139FM-15+148199999V0203301N00311030481CN009999199+02001+01301999999ADDGA1041+007321999GA2041+030481999GE19MSL   +99999+99999GF199999041999007321999999MA1101901999999REMMET063METAR HRYR 012200Z 33006KT 9999 SCT024 SCT100 20/13Q1019 NOSIG=
0170643870999992020010122304-01969+030139FM-15+148199999V0203601N00261030481CN009999199+02101+01201999999ADDGA1041+007321999GA2041+030481999GE19MSL   +99999+99999GF199999041999007321999999MA1101901999999REMMET063METAR HRYR 012230Z 36005KT 9999 SCT024 SCT100 21/12Q1019 NOSIG=
0170643870999992020010123004-01969+030139FM-15+148199999V0203201N00211030481CN009999199+02101+01301999999ADDGA1021+007321999GA2041+030481999GE19MSL   +99999+99999GF199999021999007321999999MA1101901999999REMMET063METAR HRYR 012300Z 32004KT 9999 FEW024 SCT100 21/13Q1019 NOSIG=
0170643870999992020010123304-01969+030139FM-15+148199999V0203201N00211030481CN009999199+02001+01401999999ADDGA1021+007321999GA2041+030481999GE19MSL   +99999+99999GF199999021999007321999999MA1101901999999REMMET063METAR HRYR 012330Z 32004KT 9999 FEW024 SCT100 20/14Q1019 NOSIG=
0178643870999992020010200004-01969+030139FM-15+148199999V0203101V00311030481CN009999199+02001+01401999999ADDGA1021+007011999GA2041+030481999GE19MSL   +99999+99999GF199999021999007011999999MA1101801999999REMMET071METAR HRYR 020000Z 31006KT 290V350 9999 FEW023 SCT100 20/14Q1018 NOSIG=
0178643870999992020010200304-01969+030139FM-15+148199999V0202601V00151027431CN009999199+02001+01301999999ADDGA1021+007011999GA2041+027431999GE19MSL   +99999+99999GF199999021999007011999999MA1101801999999REMMET071METAR HRYR 020030Z 26003KT 230V320 9999 FEW023 SCT090 20/13Q1018 NOSIG=
0147643870999992020010201004-01969+030139FM-15+148199999V0209999V001019999999N009999199+01901+01301999999ADDGA1021+007011999GE19MSL   +99999+99999GF199999021999007011999999MA1101801999999REMMET056METAR HRYR 020100Z VRB02KT 9999 FEW023 19/13Q1018 NOSIG=
0151643870999992020010201304-01969+030139FM-15+148199999V0209999C000019999999N009999199+01901+01401999999ADDGA1021+007011999GE19MSL   +99999+99999GF199999021999007011999999MA1101801999999REMMET060METAR COR HRYR 020130Z 00000KT 9999 FEW023 19/14Q1018 NOSIG=
0147643870999992020010202004-01969+030139FM-15+148199999V0209999C000019999999N009999199+01801+01401999999ADDGA1021+007011999GE19MSL   +99999+99999GF199999021999007011999999MA1101801999999REMMET056METAR HRYR 020200Z 00000KT 9999 FEW023 18/14Q1018 NOSIG=
0151643870999992020010202304-01969+030139FM-15+148199999V0209999C000019999999N009999199+01801+01401999999ADDGA1021+007011999GE19MSL   +99999+99999GF199999021999007011999999MA1101901999999REMMET060METAR COR HRYR 020230Z 00000KT 9999 FEW023 18/14Q1019 NOSIG=
0174643870999992020010203004-01969+030139FM-15+148199999V0209999C00001027431CN009999199+01801+01401999999ADDGA1021+007011999GA2041+027431999GE19MSL   +99999+99999GF199999021999007011999999MA1101901999999REMMET067METAR COR HRYR 020300Z 00000KT 9999 FEW023 SCT090 18/14Q1019 NOSIG=
0151643870999992020010203304-01969+030139FM-15+148199999V0200101N002119999999N009999199+01701+01301999999ADDGA1041+007011999GE19MSL   +99999+99999GF199999041999007011999999MA1101901999999REMMET060METAR COR HRYR 020330Z 01004KT 9999 SCT023 17/13Q1019 NOSIG=
0102643870999992020010204004-01969+030139FM-15+148199999V0201601N001019999999N999999999+01905+01505999999ADDMA1102005999999REMMET056METAR HRYR 020400Z 16002KT 9999FEW025 19/15 Q1020 NOSIG=EQDD01      0ADE693
0147643870999992020010204304-01969+030139FM-15+148199999V0200101N001019999999N009999199+01801+01401999999ADDGA1041+007011999GE19MSL   +99999+99999GF199999041999007011999999MA1102001999999REMMET056METAR HRYR 020430Z 01002KT 9999 SCT023 18/14Q1020 NOSIG=
0106643870999992020010205004-01969+030139FM-15+148199999V0209999V001019999999N999999999+01905+01505999999ADDMA1102005999999REMMET060METAR COR HRYR 020500Z VRB02KT 9999FEW025 19/15 Q1020 NOSIG=EQDD01      0ADE693
0246643870999992020010206004-01967+030117FM-12+149199999V0203501N001519999999N010000199+02011+01521999999ADDGA1031+007501081GA2999+999999031GA3999+999999001GE19MSL   +99999+99999GF105991031999007501999999KA1240M+02901KA2240N+01761MA1999999085321ME1315329REMSYN08864387 32560 53503 10201 20152 38532 48532 83232 333 01500 10290 20176 50524 58001 83825=
0102643870999992020010206004-01969+030139FM-15+148199999V0203501N001519999999N999999999+02005+01505999999ADDMA1102005999999REMMET056METAR HRYR 020600Z 35003KT 9999SCT025 20/15 Q1020 NOSIG=EQDD01      0ADE693
0148643870999992020010206304-01969+030139FM-15+148199999V0203601N002119999999N009999199+02101+01501999999ADDGA1041+007621999GE19MSL   +99999+99999GF199999041999007621999999MA1102101999999REMMET057METAR HRYR 020630Z 36004KT 9999 SCT025 21/15 Q1021 NOSIG=
0106643870999992020010207004-01969+030139FM-15+148199999V0209999V001019999999N999999999+02305+01705999999ADDMA1102105999999REMMET060METAR COR HRYR 020700Z VRB02KT 9999SCT025 23/17 Q1021 NOSIG=EQDD01      0ADE693
0148643870999992020010207304-01969+030139FM-15+148199999V0209999V001019999999N009999199+02401+01501999999ADDGA1041+007621999GE19MSL   +99999+99999GF199999041999007621999999MA1102101999999REMMET057METAR HRYR 020730Z VRB02KT 9999 SCT025 24/15 Q1021 NOSIG=
0113643870999992020010208004-01969+030139FM-15+148199999V0209999V002619999999N999999999+02405+01805999999ADDMA1102105999999REMMET067METAR COR HRYR 020800Z VRB05KT 9999SCT025 BKN300 24/18 Q1021 NOSIG=EQDD01      0ADE693
0171643870999992020010208304-01969+030139FM-15+148199999V0201501N00261091441CN009999199+02501+01801999999ADDGA1021+007621999GA2041+091441999GE19MSL   +99999+99999GF199999021999007621999999MA1102001999999REMMET064METAR HRYR 020830Z 15005KT 9999 FEW025 SCT300 25/18 Q1020 NOSIG=
0210643870999992020010209004-01967+030117FM-12+149199999V0201601N003119999999N010000199+02631+01731999999ADDGA1041+007501081GA2999+999999031GA3999+999999001GE19MSL   +99999+99999GF107991041999007501999999MA1999999085241MD1999999+0051ME1315189REMSYN06464387 32560 71606 10263 20173 38524 48518 84232 333 58005 84825=
0106643870999992020010209004-01969+030139FM-15+148199999V0201601N003119999999N999999999+02605+01705999999ADDMA1102005999999REMMET060METAR COR HRYR 020900Z 16006KT 9999SCT025 26/17 Q1020 NOSIG=EQDD01      0ADE693
0148643870999992020010209304-01969+030139FM-15+148199999V0209999V001519999999N009999199+02701+01701999999ADDGA1041+007621999GE19MSL   +99999+99999GF199999041999007621999999MA1102001999999REMMET057METAR HRYR 020930Z VRB03KT 9999 SCT025 27/17 Q1020 NOSIG=
0106643870999992020010210004-01969+030139FM-15+148199999V0200201N005719999999N999999999+02705+01405999999ADDMA1101905999999REMMET060METAR COR HRYR 021000Z 02011KT 9999BKN025 27/14 Q1019 NOSIG=EQDD01      0ADE693
0152643870999992020010210304-01969+030139FM-15+148199999V0200201N00571007621CN009999199+02701+01501999999ADDGA1071+007621999GE19MSL   +99999+99999GF199999071999007621999999MA1101901999999REMMET061METAR COR HRYR 021030Z 02011KT 9999 BKN025 27/15 Q1019 NOSIG=
0149643870999992020010211004-01969+030139FM-15+148199999V0209999N999999999999N009999199+02801+01401999999ADDGA1041+007621999GE19MSL   +99999+99999GF199999041999007621999999MA1101801999999REMMET058METAR HRYR 021100Z 040096KT 9999 SCT025 28/14 Q1018 NOSIG=
0148643870999992020010213004-01969+030139FM-15+148199999V0200201N004619999999N009999199+02801+01501999999ADDGA1041+007621999GE19MSL   +99999+99999GF199999041999007621999999MA1101801999999REMMET057METAR HRYR 021300Z 02009KT 9999 SCT025 28/15 Q1018 NOSIG=
0171643870999992020010214004-01969+030139FM-15+148199999V0200101N00511030481CN009999199+02801+01401999999ADDGA1041+007621999GA2041+030481999GE19MSL   +99999+99999GF199999041999007621999999MA1101601999999REMMET064METAR HRYR 021400Z 01010KT 9999 SCT025 SCT100 28/14 Q1016 NOSIG=
0171643870999992020010215004-01969+030139FM-15+148199999V0200401N00411027431CN009999199+02801+01401999999ADDGA1041+007621999GA2041+027431999GE19MSL   +99999+99999GF199999041999007621999999MA1101701999999REMMET064METAR HRYR 021500Z 04008KT 9999 SCT025 SCT090 28/14 Q1017 NOSIG=
0171643870999992020010215304-01969+030139FM-15+148199999V0200601N00511091441CN009999199+02601+01501999999ADDGA1021+007621999GA2041+091441999GE19MSL   +99999+99999GF199999021999007621999999MA1101701999999REMMET064METAR HRYR 021530Z 06010KT 9999 FEW025 SCT300 26/15 Q1017 NOSIG=
0171643870999992020010216004-01969+030139FM-15+148199999V0200501N00411091441CN009999199+02501+01501999999ADDGA1021+007621999GA2041+091441999GE19MSL   +99999+99999GF199999021999007621999999MA1101701999999REMMET064METAR HRYR 021600Z 05008KT 9999 FEW025 SCT300 25/15 Q1017 NOSIG=
0171643870999992020010216304-01969+030139FM-15+148199999V0200401N00411091441CN009999199+02401+01501999999ADDGA1021+007921999GA2041+091441999GE19MSL   +99999+99999GF199999021999007921999999MA1101701999999REMMET064METAR HRYR 021630Z 04008KT 9999 FEW026 SCT300 24/15 Q1017 NOSIG=
0148643870999992020010217004-01969+030139FM-15+148199999V0200101N002619999999N009999199+02401+01501999999ADDGA1021+007921999GE19MSL   +99999+99999GF199999021999007921999999MA1101801999999REMMET057METAR HRYR 021700Z 01005KT 9999 FEW026 24/15 Q1018 NOSIG=
0148643870999992020010218004-01969+030139FM-15+148199999V0209999V001019999999N009999199+02301+01401999999ADDGA1041+007921999GE19MSL   +99999+99999GF199999041999007921999999MA1101901999999REMMET057METAR HRYR 021800Z VRB02KT 9999 SCT026 23/14 Q1019 NOSIG=
0148643870999992020010218304-01969+030139FM-15+148199999V0200401N002119999999N009999199+02301+01501999999ADDGA1021+007921999GE19MSL   +99999+99999GF199999021999007921999999MA1101901999999REMMET057METAR HRYR 021830Z 04004KT 9999 FEW026 23/15 Q1019 NOSIG=
0143643870999992020010219304-01969+030139FM-15+148199999V0209999V001019999999N999999999+02201+01501999999ADDGA1021+007921999GE19MSL   +99999+99999GF199999021999007921999999MA1102001999999REMMET052METAR HRYR 021930Z VRB02KT FEW026 22/15 Q1020 NOSIG=
0143643870999992020010220004-01969+030139FM-15+148199999V0209999V001019999999N999999999+02201+01501999999ADDGA1021+007921999GE19MSL   +99999+99999GF199999021999007921999999MA1102001999999REMMET052METAR HRYR 022000Z VRB02KT FEW026 22/15 Q1020 NOSIG=
0143643870999992020010220304-01969+030139FM-15+148199999V0209999C000019999999N999999999+02201+01501999999ADDGA1021+007921999GE19MSL   +99999+99999GF199999021999007921999999MA1102001999999REMMET052METAR HRYR 022030Z 00000KT FEW026 22/15 Q1020 NOSIG=
0071643870999992020010221004-01969+030139FM-15+148199999V0209999N999999999999N999999999+99999+99999999999REMMET062METAR COR HRYR 022100Z 022100Z36003KT FEW026 21/15Q1020 NOSIG=
0166643870999992020010221304-01969+030139FM-15+148199999V0209999V001019999999N009999199+99999+99999999999ADDGA1021+007011999GE19AGL   +99999+99999GF199999021999007011999999MA1102005999999REMMET056METAR HRYR 022130Z VRB02KT 9999 FEW023 2115 Q1020 NOSIG=EQDD01      0ADE693
0147643870999992020010222004-01969+030139FM-15+148199999V0203501N001519999999N009999199+02101+01501999999ADDGA1021+007921999GE19MSL   +99999+99999GF199999021999007921999999MA1102001999999REMMET056METAR HRYR 022200Z 35003KT 9999 FEW026 21/15Q1020 NOSIG=
0148643870999992020010222304-01969+030139FM-15+148199999V0202801N001519999999N009999199+02101+01501999999ADDGA1021+007921999GE19MSL   +99999+99999GF199999021999007921999999MA1102001999999REMMET057METAR HRYR 022230Z 28003KT 9999 FEW026 21/15 Q1020 NOSIG=
0148643870999992020010223004-01969+030139FM-15+148199999V0209999V001019999999N009999199+02101+01501999999ADDGA1041+007921999GE19MSL   +99999+99999GF199999041999007921999999MA1102001999999REMMET057METAR HRYR 022300Z VRB02KT 9999 SCT026 21/15 Q1020 NOSIG=
0148643870999992020010223304-01969+030139FM-15+148199999V0203201N002619999999N009999199+01901+01501999999ADDGA1041+007921999GE19MSL   +99999+99999GF199999041999007921999999MA1102001999999REMMET057METAR HRYR 022330Z 32005KT 9999 SCT026 19/15 Q1020 NOSIG=
0171643870999992020010300004-01969+030139FM-15+148199999V0203101N00311030481CN009999199+01901+01501999999ADDGA1041+007921999GA2041+030481999GE19MSL   +99999+99999GF199999041999007921999999MA1102001999999REMMET064METAR HRYR 030000Z 31006KT 9999 SCT026 SCT100 19/15 Q1020 NOSIG=
0171643870999992020010300304-01969+030139FM-15+148199999V0203101N00261030481CN009999199+01901+01501999999ADDGA1041+007921999GA2041+030481999GE19MSL   +99999+99999GF199999041999007921999999MA1102001999999REMMET064METAR HRYR 030030Z 31005KT 9999 SCT026 SCT100 19/15 Q1020 NOSIG=
0171643870999992020010301004-01969+030139FM-15+148199999V0203501N00151030481CN009999199+01901+01601999999ADDGA1041+007921999GA2041+030481999GE19MSL   +99999+99999GF199999041999007921999999MA1102001999999REMMET064METAR HRYR 030100Z 35003KT 9999 SCT026 SCT100 19/16 Q1020 NOSIG=
0171643870999992020010301304-01969+030139FM-15+148199999V0203601N00101030481CN009999199+01901+01501999999ADDGA1041+007921999GA2041+030481999GE19MSL   +99999+99999GF199999041999007921999999MA1102001999999REMMET064METAR HRYR 030130Z 36002KT 9999 SCT026 SCT100 19/15 Q1020 NOSIG=
0171643870999992020010302004-01969+030139FM-15+148199999V0209999V00101030481CN009999199+01901+01601999999ADDGA1041+007921999GA2041+030481999GE19MSL   +99999+99999GF199999041999007921999999MA1102001999999REMMET064METAR HRYR 030200Z VRB02KT 9999 SCT026 SCT100 19/16 Q1020 NOSIG=
0171643870999992020010302304-01969+030139FM-15+148199999V0202901N00101030481CN009999199+01901+01501999999ADDGA1041+007921999GA2041+030481999GE19MSL   +99999+99999GF199999041999007921999999MA1102001999999REMMET064METAR HRYR 030230Z 29002KT 9999 SCT026 SCT100 19/15 Q1020 NOSIG=
0171643870999992020010303004-01969+030139FM-15+148199999V0203301N00151030481CN009999199+01801+01601999999ADDGA1021+007921999GA2041+030481999GE19MSL   +99999+99999GF199999021999007921999999MA1102001999999REMMET064METAR HRYR 030300Z 33003KT 9999 FEW026 SCT100 18/16 Q1020 NOSIG=
0171643870999992020010303304-01969+030139FM-15+148199999V0209999V00101030481CN009999199+01801+01501999999ADDGA1041+007921999GA2041+030481999GE19MSL   +99999+99999GF199999041999007921999999MA1102101999999REMMET064METAR HRYR 030330Z VRB02KT 9999 SCT026 SCT100 18/15 Q1021 NOSIG=
0174643870999992020010304004-01969+030139FM-15+148199999V0209999C00001030481CN009999199+01801+01601999999ADDGA1041+007921999GA2041+030481999GE19MSL   +99999+99999GF199999041999007921999999MA1102201999999REMMET067METAR COR HRYR 030400Z 00000KT 9999 SCT026SCT100 18/16 Q1022 NOSIG=
0171643870999992020010305304-01969+030139FM-15+148199999V0209999C00001030481CN009999199+02001+01801999999ADDGA1041+007321999GA2041+030481999GE19MSL   +99999+99999GF199999041999007321999999MA1102201999999REMMET064METAR HRYR 030530Z 00000KT 9999 SCT024 SCT100 20/18 Q1022 NOSIG=
0281643870999992020010306004-01967+030117FM-12+149199999V0209999C00001030001CN010000199+02001+01631999999ADDAA124000831AY161021AY221021GA1031+007201081GA2041+030001031GE19MSL   +99999+99999GF107991031999007201999999KA1240M+02871KA2240N+01801MA1999999085431ME1315389MW1211REMSYN10664387 11560 70000 10200 20163 38543 48538 69984 72162 8323/ 333 01551 10287 20180 50544 58011 83824 84360=
0170643870999992020010306004-01969+030139FM-15+148199999V0209999C00001030481CN009999199+02001+01601999999ADDGA1041+007321999GA2041+030481999GE19MSL   +99999+99999GF199999041999007321999999MA1102301999999REMMET063METAR HRYR 030600Z 00000KT 9999 SCT024 SCT100 20/16 Q1023 RERA=
0171643870999992020010306304-01969+030139FM-15+148199999V0209999V00101030481CN009999199+02201+01801999999ADDGA1041+007321999GA2041+030481999GE19MSL   +99999+99999GF199999041999007321999999MA1102301999999REMMET064METAR HRYR 030630Z VRB02KT 9999 SCT024 SCT100 22/18 Q1023 NOSIG=
0171643870999992020010307004-01969+030139FM-15+148199999V0209999V00101030481CN009999199+02301+01701999999ADDGA1041+007621999GA2041+030481999GE19MSL   +99999+99999GF199999041999007621999999MA1102301999999REMMET064METAR HRYR 030700Z VRB02KT 9999 SCT025 SCT100 23/17 Q1023 NOSIG=
0171643870999992020010307304-01969+030139FM-15+148199999V0209999V00101030481CN009999199+02401+01501999999ADDGA1041+007621999GA2041+030481999GE19MSL   +99999+99999GF199999041999007621999999MA1102301999999REMMET064METAR HRYR 030730Z VRB02KT 9999 SCT025 SCT100 24/15 Q1023 NOSIG=
0171643870999992020010308004-01969+030139FM-15+148199999V0209999V00151091441CN009999199+02501+01701999999ADDGA1021+007621999GA2041+091441999GE19MSL   +99999+99999GF199999021999007621999999MA1102201999999REMMET064METAR HRYR 030800Z VRB03KT 9999 FEW025 SCT300 25/17 Q1022 NOSIG=
0200643870999992020010309004-01967+030117FM-12+149199999V0200801N00311090001CN010000199+02671+01501999999ADDGA1031+007501081GA2041+090001001GE19MSL   +99999+99999GF107991031999007501999999MA1999999085361MD1999999+0121ME1315309REMSYN07064387 32560 70806 10267 20150 38536 48530 83202 333 58012 83825 84080=
0170643870999992020010309004-01969+030139FM-15+148199999V0200801N00311091441CN009999199+02701+01501999999ADDGA1041+007621999GA2041+091441999GE19MSL   +99999+99999GF199999041999007621999999MA1102101999999REMMET063METAR HRYR 030900Z 08006KT 9999 SCT025 SCT30027/15 Q1021 NOSIG=
0171643870999992020010309304-01969+030139FM-15+148199999V0200501N00311091441CN009999199+02401+01501999999ADDGA1041+007621999GA2041+091441999GE19MSL   +99999+99999GF199999041999007621999999MA1102101999999REMMET064METAR HRYR 030930Z 05006KT 9999 SCT025 SCT300 24/15 Q1021 NOSIG=
0171643870999992020010310004-01969+030139FM-15+148199999V0200301N003110914419N009999199+02701+01601999999ADDGA1041+007621999GA2071+091441999GE19MSL   +99999+99999GF199999041999007621999999MA1102101999999REMMET064METAR HRYR 031000Z 03006KT 9999 SCT025 BKN300 27/16 Q1021 NOSIG=
0171643870999992020010310304-01969+030139FM-15+148199999V0200501N004110914419N009999199+02801+01601999999ADDGA1041+007621999GA2071+091441999GE19MSL   +99999+99999GF199999041999007621999999MA1102001999999REMMET064METAR HRYR 031030Z 05008KT 9999 SCT025 BKN300 28/16 Q1020 NOSIG=
0171643870999992020010311004-01969+030139FM-15+148199999V0200501N00461030481CN009999199+02701+01501999999ADDGA1041+007621999GA2041+030481999GE19MSL   +99999+99999GF199999041999007621999999MA1102001999999REMMET064METAR HRYR 031100Z 05009KT 9999 SCT025 SCT100 27/15 Q1020 NOSIG=
0182643870999992020010311304-01969+030139FM-15+148199999V0200701V00311030481CN009999199+02601+01401999999ADDGA1041+007621081GA2041+030481999GE19MSL   +99999+99999GF199999041999007621999999MA1102001999999REMMET075METAR HRYR 031130Z 07006KT 040V110 9999 SCT025TCU SCT100 26/14 Q1020 NOSIG=
0222643870999992020010312004-01967+030117FM-12+149199999V0200401N00261007801CN010000199+02671+01401999999ADDGA1041+007501081GA2011+007801091GA3999+999999001GE19MSL   +99999+99999GF107991041999007501999999MA1999999085151MD1999999+0191ME1315099REMSYN07664387 32560 70405 10267 20140 38515 48509 85332 333 58019 84825 81926 94963=
0173643870999992020010312004-01969+030139FM-15+148199999V0200401N002619999999N009999199+02701+01401999999ADDGA1041+007621999GA2021+007921091GE19MSL   +99999+99999GF199999041999007621999999MA1101901999999REMMET066METAR HRYR 031200Z 04005KT 9999 SCT025 FEW026CB 27/14 Q1019 NOSIG=
0181643870999992020010312304-01969+030139FM-15+148199999V0200401V002619999999N009999199+02601+01501999999ADDGA1041+007621999GA2021+007921091GE19MSL   +99999+99999GF199999041999007621999999MA1101901999999REMMET074METAR HRYR 031230Z 04005KT 010V080 9999 SCT025 FEW026CB 26/15 Q1019 NOSIG=
0171643870999992020010313004-01969+030139FM-15+148199999V0200701N00311030481CN009999199+02601+01501999999ADDGA1041+007621999GA2041+030481999GE19MSL   +99999+99999GF199999041999007621999999MA1101801999999REMMET064METAR HRYR 031300Z 07006KT 9999 SCT025 SCT100 26/15 Q1018 NOSIG=
0171643870999992020010314004-01969+030139FM-15+148199999V0200701N003110304819N009999199+02601+01601999999ADDGA1041+007621999GA2071+030481999GE19MSL   +99999+99999GF199999041999007621999999MA1101701999999REMMET064METAR HRYR 031400Z 07006KT 9999 SCT025 BKN100 26/16 Q1017 NOSIG=
0171643870999992020010315004-01969+030139FM-15+148199999V0200701N00311030481CN009999199+02701+01501999999ADDGA1041+007621999GA2041+030481999GE19MSL   +99999+99999GF199999041999007621999999MA1101701999999REMMET064METAR HRYR 031500Z 07006KT 9999 SCT025 SCT100 27/15 Q1017 NOSIG=
0194643870999992020010317004-01969+030139FM-15+148199999V0200801N00261030481CN009999199+02301+01601999999ADDGA1021+007621999GA2041+030481999GA3041+091441999GE19MSL   +99999+99999GF199999021999007621999999MA1101901999999REMMET071METAR HRYR 031700Z 08005KT 9999 FEW025 SCT100 SCT300 23/16 Q1019 NOSIG=
0202643870999992020010318004-01969+030139FM-15+148199999V0200301V00261030481CN009999199+02301+01601999999ADDGA1021+007621999GA2041+030481999GA3041+091441999GE19MSL   +99999+99999GF199999021999007621999999MA1101901999999REMMET079METAR HRYR 031800Z 03005KT 010V070 9999 FEW025 SCT100 SCT300 23/16 Q1019 NOSIG=
0171643870999992020010319004-01969+030139FM-15+148199999V0200101N00211030481CN009999199+02201+01601999999ADDGA1021+007621999GA2041+030481999GE19MSL   +99999+99999GF199999021999007621999999MA1102001999999REMMET064METAR HRYR 031900Z 01004KT 9999 FEW025 SCT100 22/16 Q1020 NOSIG=
0171643870999992020010320004-01969+030139FM-15+148199999V0203601N00211030481CN009999199+02201+01601999999ADDGA1021+007621999GA2041+030481999GE19MSL   +99999+99999GF199999021999007621999999MA1102101999999REMMET064METAR HRYR 032000Z 36004KT 9999 FEW025 SCT100 22/16 Q1021 NOSIG=
0171643870999992020010321004-01969+030139FM-15+148199999V0209999V00101030481CN009999199+02201+01601999999ADDGA1041+007621999GA2041+030481999GE19MSL   +99999+99999GF199999041999007621999999MA1102101999999REMMET064METAR HRYR 032100Z VRB02KT 9999 SCT025 SCT100 22/16 Q1021 NOSIG=
0171643870999992020010323004-01969+030139FM-15+148199999V0203401N00151030481CN009999199+02101+01601999999ADDGA1041+007621999GA2041+030481999GE19MSL   +99999+99999GF199999041999007621999999MA1102001999999REMMET064METAR HRYR 032300Z 34003KT 9999 SCT025 SCT100 21/16 Q1020 NOSIG=
0155643870999992020010400004-01969+030139FM-15+148199999V0202401N00101030481CN009999199+02001+01601999999ADDGA1041+007621999GA2041+030481999GE19MSL   +99999+99999GF199999041999007621999999REMMET063METAR HRYR 040000Z 24002KT 9999 SCT025 SCT100 20/16 1020 NOSIG=
0155643870999992020010400304-01969+030139FM-15+148199999V0200101N00261030481CN009999199+01901+01701999999ADDGA1041+007621999GA2041+030481999GE19MSL   +99999+99999GF199999041999007621999999REMMET063METAR HRYR 040030Z 01005KT 9999 SCT025 SCT100 19/17 1020 NOSIG=
0171643870999992020010401004-01969+030139FM-15+148199999V0202601N00151030481CN009999199+02001+01701999999ADDGA1041+007621999GA2041+030481999GE19MSL   +99999+99999GF199999041999007621999999MA1101901999999REMMET064METAR HRYR 040100Z 26003KT 9999 SCT025 SCT100 20/17 Q1019 NOSIG=
0171643870999992020010402004-01969+030139FM-15+148199999V0209999V00101030481CN009999199+02001+01601999999ADDGA1041+007621999GA2041+030481999GE19MSL   +99999+99999GF199999041999007621999999MA1101901999999REMMET064METAR HRYR 040200Z VRB02KT 9999 SCT025 SCT100 20/16 Q1019 NOSIG=
0171643870999992020010403004-01969+030139FM-15+148199999V0209999V00101030481CN009999199+01901+01801999999ADDGA1041+007621999GA2041+030481999GE19MSL   +99999+99999GF199999041999007621999999MA1102001999999REMMET064METAR HRYR 040300Z VRB02KT 9999 SCT025 SCT100 19/18 Q1020 NOSIG=
0171643870999992020010403304-01969+030139FM-15+148199999V0200801N00261030481CN009999199+01901+01801999999ADDGA1041+007621999GA2041+030481999GE19MSL   +99999+99999GF199999041999007621999999MA1102001999999REMMET064METAR HRYR 040330Z 08005KT 9999 SCT025 SCT100 19/18 Q1020 NOSIG=
0152643870999992020010404004-01969+030139FM-15+148199999V0201501N00211007621CN009999199+01901+01701999999ADDGA1071+007621999GE19MSL   +99999+99999GF199999071999007621999999MA1102101999999REMMET061METAR COR HRYR 040400Z 15004KT 9999 BKN025 19/17 Q1021 NOSIG=
0148643870999992020010404304-01969+030139FM-15+148199999V0202201N00151007621CN009999199+01901+01701999999ADDGA1071+007621999GE19MSL   +99999+99999GF199999071999007621999999MA1102101999999REMMET057METAR HRYR 040430Z 22003KT 9999 BKN025 19/17 Q1021 NOSIG=
0148643870999992020010405004-01969+030139FM-15+148199999V0201501N002119999999N009999199+01901+01801999999ADDGA1041+007621999GE19MSL   +99999+99999GF199999041999007621999999MA1102101999999REMMET057METAR HRYR 040500Z 15004KT 9999 SCT025 19/18 Q1021 NOSIG=
0179643870999992020010405304-01969+030139FM-15+148199999V0203401V00151030481CN009999199+02001+01701999999ADDGA1041+007621999GA2041+030481999GE19MSL   +99999+99999GF199999041999007621999999MA1102201999999REMMET072METAR HRYR 040530Z 34003KT 290V360 9999 SCT025 SCT100 20/17 Q1022 NOSIG=
0195643870999992020010406004-01967+030117FM-12+149199999V0203601N001019999999N010000199+02001+01741999999ADDGA1999+008001999GE19MSL   +99999+99999GF107991999999008001999999MA1999999085411ME1315379REMSYN09564387 11560 73602 10200 20174 38541 48537A 8593/ 333 00400 10283 20190 50474 59001 85825 9496/=
0173643870999992020010406004-01969+030139FM-15+148199999V0203601N001010076219N009999199+02001+01701999999ADDGA1021+007011091GA2071+007621999GE19MSL   +99999+99999GF199999021999007011999999MA1102201999999REMMET066METAR HRYR 040600Z 36002KT 9999 FEW023CB BKN025 20/17 Q1022 NOSIG=
0173643870999992020010406304-01969+030139FM-15+148199999V0202901N002110076219N009999199+02001+01801999999ADDGA1021+007011091GA2071+007621999GE19MSL   +99999+99999GF199999021999007011999999MA1102201999999REMMET066METAR HRYR 040630Z 29004KT 9999 FEW023CB BKN025 20/18 Q1022 NOSIG=
0173643870999992020010407004-01969+030139FM-15+148199999V0203301N005110076219N009999199+02001+01701999999ADDGA1021+007011091GA2071+007621999GE19MSL   +99999+99999GF199999021999007011999999MA1102301999999REMMET066METAR HRYR 040700Z 33010KT 9999 FEW023CB BKN025 20/17 Q1023 NOSIG=
0171643870999992020010408004-01969+030139FM-15+148199999V0202101N00311007621CN009999199+02101+01801999999ADDGA1071+007621999GA2041+030481999GE19MSL   +99999+99999GF199999071999007621999999MA1102301999999REMMET064METAR HRYR 040800Z 21006KT 9999 BKN025 SCT100 21/18 Q1023 NOSIG=
0171643870999992020010408304-01969+030139FM-15+148199999V0202801N00151030481CN009999199+02301+01901999999ADDGA1041+007621999GA2041+030481999GE19MSL   +99999+99999GF199999041999007621999999MA1102201999999REMMET064METAR HRYR 040830Z 28003KT 9999 SCT025 SCT100 23/19 Q1022 NOSIG=
0210643870999992020010409004-01967+030117FM-12+149199999V0203101N001519999999N010000199+02511+01561999999ADDGA1041+007501081GA2999+999999031GA3999+999999001GE19MSL   +99999+99999GF106991041999007501999999MA1999999085351MD1999999-0011ME1315309REMSYN06464387 32560 63103 10251 20156 38535 48530 84232 333 59001 84825=
0148643870999992020010409004-01969+030139FM-15+148199999V0203101N001519999999N009999199+02501+01601999999ADDGA1041+007621999GE19MSL   +99999+99999GF199999041999007621999999MA1102201999999REMMET057METAR HRYR 040900Z 31003KT 9999 SCT025 25/16 Q1022 NOSIG=
0156643870999992020010409304-01969+030139FM-15+148199999V0203501V001519999999N009999199+02601+01501999999ADDGA1041+007621999GE19MSL   +99999+99999GF199999041999007621999999MA1102101999999REMMET065METAR HRYR 040930Z 35003KT 270V050 9999 SCT025 26/15 Q1021 NOSIG=
0148643870999992020010410304-01969+030139FM-15+148199999V0202201N00411007621CN009999199+02501+01601999999ADDGA1071+007621999GE19MSL   +99999+99999GF199999071999007621999999MA1102001999999REMMET057METAR HRYR 041030Z 22008KT 9999 BKN025 25/16 Q1020 NOSIG=
0148643870999992020010411004-01969+030139FM-15+148199999V0202401N00261007621CN009999199+02501+01501999999ADDGA1071+007621999GE19MSL   +99999+99999GF199999071999007621999999MA1101901999999REMMET057METAR HRYR 041100Z 24005KT 9999 BKN025 25/15 Q1019 NOSIG=
0158643870999992020010411304-01969+030139FM-15+148199999V0200501N00211007621CN009999199+02301+01601999999ADDGA1071+007621999GE19MSL   +99999+99999GF199999071999007621999999MA1101901999999MW1611REMMET061METAR HRYR 041130Z 05004KT 9999 -RA BKN025 23/16 Q1019 NOSIG=
0229643870999992020010412004-01967+030117FM-12+149199999V0209999C000019999999N010000199+02401+01611999999ADDAA106000231AY111021AY261021GA1999+008001999GE19MSL   +99999+99999GF107991999999008001999999MA1999999085101ME1315049MW1021REMSYN09664387 11560 70000 10240 20161 38510 48504 69921 702162 8693/ 333 00115 90056 81923 85825 94963/=
0183643870999992020010412004-01969+030139FM-15+148199999V0209999C000010076219N009999199+02401+01601999999ADDGA1021+007011091GA2071+007621999GE19MSL   +99999+99999GF199999021999007011999999MA1101801999999MW1611REMMET070METAR HRYR 041200Z 00000KT 9999 -RA FEW023CB BKN025 24/16 Q1018 NOSIG=
0173643870999992020010412304-01969+030139FM-15+148199999V0209999C000010076219N009999199+02501+01801999999ADDGA1021+007011091GA2071+007621999GE19MSL   +99999+99999GF199999021999007011999999MA1101801999999REMMET066METAR HRYR 041230Z 00000KT 9999 FEW023CB BKN025 25/18 Q1018 NOSIG=
0111643870999992020010413004-01969+030139FM-15+148199999V0209999N999999999999N011265599+02405+01605999999ADDMA1101805999999REMMET065METAR HRYR 041300Z VR03KT 9999 FEW023CB BKN025 24/16 Q1018 NOSIG=EQDD01      0ADE693
0173643870999992020010413304-01969+030139FM-15+148199999V0201501N004110076219N009999199+02201+01701999999ADDGA1021+007011091GA2071+007621999GE19MSL   +99999+99999GF199999021999007011999999MA1101801999999REMMET066METAR HRYR 041330Z 15008KT 9999 FEW023CB BKN025 22/17 Q1018 NOSIG=
0173643870999992020010414004-01969+030139FM-15+148199999V0201701N003610076219N009999199+02201+01701999999ADDGA1021+007011091GA2071+007621999GE19MSL   +99999+99999GF199999021999007011999999MA1101801999999REMMET066METAR HRYR 041400Z 17007KT 9999 FEW023CB BKN025 22/17 Q1018 NOSIG=
0148643870999992020010415004-01969+030139FM-15+148199999V0200201N002119999999N009999199+02401+01801999999ADDGA1041+007621999GE19MSL   +99999+99999GF199999041999007621999999MA1101801999999REMMET057METAR HRYR 041500Z 02004KT 9999 SCT025 24/18 Q1018 NOSIG=
0171643870999992020010418004-01969+030139FM-15+148199999V0202701N00211030481CN009999199+02001+01601999999ADDGA1041+007621999GA2041+030481999GE19MSL   +99999+99999GF199999041999007621999999MA1101901999999REMMET064METAR HRYR 041800Z 27004KT 9999 SCT025 SCT100 20/16 Q1019 NOSIG=
0171643870999992020010419004-01969+030139FM-15+148199999V0203601N00211030481CN009999199+01901+01701999999ADDGA1041+007621999GA2041+030481999GE19MSL   +99999+99999GF199999041999007621999999MA1102001999999REMMET064METAR HRYR 041900Z 36004KT 9999 SCT025 SCT100 19/17 Q1020 NOSIG=
0171643870999992020010420004-01969+030139FM-15+148199999V0202601N00151030481CN009999199+01901+01601999999ADDGA1041+007621999GA2041+030481999GE19MSL   +99999+99999GF199999041999007621999999MA1102001999999REMMET064METAR HRYR 042000Z 26003KT 9999 SCT025 SCT100 19/16 Q1020 NOSIG=
0171643870999992020010421004-01969+030139FM-15+148199999V0203301N00211030481CN009999199+01801+01601999999ADDGA1041+007621999GA2041+030481999GE19MSL   +99999+99999GF199999041999007621999999MA1102101999999REMMET064METAR HRYR 042100Z 33004KT 9999 SCT025 SCT100 18/16 Q1021 NOSIG=
0171643870999992020010422004-01969+030139FM-15+148199999V0202601N00211030481CN009999199+01801+01501999999ADDGA1041+007921999GA2041+030481999GE19MSL   +99999+99999GF199999041999007921999999MA1102001999999REMMET064METAR HRYR 042200Z 26004KT 9999 SCT026 SCT100 18/15 Q1020 NOSIG=
0171643870999992020010423004-01969+030139FM-15+148199999V0203101N00151030481CN009999199+01801+01601999999ADDGA1021+007921999GA2041+030481999GE19MSL   +99999+99999GF199999021999007921999999MA1102001999999REMMET064METAR HRYR 042300Z 31003KT 9999 FEW026 SCT100 18/16 Q1020 NOSIG=
0171643870999992020010423304-01969+030139FM-15+148199999V0202301N00151030481CN009999199+01801+01601999999ADDGA1021+007921999GA2041+030481999GE19MSL   +99999+99999GF199999021999007921999999MA1102001999999REMMET064METAR HRYR 042330Z 23003KT 9999 FEW026 SCT100 18/16 Q1020 NOSIG=
0171643870999992020010500004-01969+030139FM-15+148199999V0209999C000010304819N009999199+01801+01601999999ADDGA1041+007921999GA2071+030481999GE19MSL   +99999+99999GF199999041999007921999999MA1102001999999REMMET064METAR HRYR 050000Z 00000KT 9999 SCT026 BKN100 18/16 Q1020 NOSIG=
0171643870999992020010500304-01969+030139FM-15+148199999V0203601N002110304819N009999199+01801+01601999999ADDGA1041+007921999GA2071+030481999GE19MSL   +99999+99999GF199999041999007921999999MA1102001999999REMMET064METAR HRYR 050030Z 36004KT 9999 SCT026 BKN100 18/16 Q1020 NOSIG=
0171643870999992020010501004-01969+030139FM-15+148199999V0203601N002610304819N009999199+01801+01601999999ADDGA1041+007921999GA2071+030481999GE19MSL   +99999+99999GF199999041999007921999999MA1101901999999REMMET064METAR HRYR 050100Z 36005KT 9999 SCT026 BKN100 18/16 Q1019 NOSIG=
0171643870999992020010501304-01969+030139FM-15+148199999V0203101N001010304819N009999199+01801+01601999999ADDGA1041+007921999GA2071+030481999GE19MSL   +99999+99999GF199999041999007921999999MA1101901999999REMMET064METAR HRYR 050130Z 31002KT 9999 SCT026 BKN100 18/16 Q1019 NOSIG=
0171643870999992020010502004-01969+030139FM-15+148199999V0203301N002110304819N009999199+01801+01601999999ADDGA1041+007921999GA2071+030481999GE19MSL   +99999+99999GF199999041999007921999999MA1101901999999REMMET064METAR HRYR 050200Z 33004KT 9999 SCT026 BKN100 18/16 Q1019 NOSIG=
0171643870999992020010502304-01969+030139FM-15+148199999V0203501N001510304819N009999199+01801+01601999999ADDGA1041+007921999GA2071+030481999GE19MSL   +99999+99999GF199999041999007921999999MA1101901999999REMMET064METAR HRYR 050230Z 35003KT 9999 SCT026 BKN100 18/16 Q1019 NOSIG=
0171643870999992020010503004-01969+030139FM-15+148199999V0202901N001510304819N009999199+01801+01601999999ADDGA1041+007921999GA2071+030481999GE19MSL   +99999+99999GF199999041999007921999999MA1101901999999REMMET064METAR HRYR 050300Z 29003KT 9999 SCT026 BKN100 18/16 Q1019 NOSIG=
0171643870999992020010503304-01969+030139FM-15+148199999V0201601N001510304819N009999199+01801+01601999999ADDGA1041+007921999GA2071+030481999GE19MSL   +99999+99999GF199999041999007921999999MA1102001999999REMMET064METAR HRYR 050330Z 16003KT 9999 SCT026 BKN100 18/16 Q1020 NOSIG=
0136643870999992020010504004-01969+030139FM-15+148199999V0202001N002119999999N009999199+01701+01701999999ADDGA1041+007921999GE19MSL   +99999+99999GF199999041999007921999999REMMET060METAR COR HRYR 050400Z 20004KT 9999 SCT026 17/17 1020 NOSIG=
0176643870999992020010504304-01969+030139FM-15+148199999V0201901N001510304819N006000199+01701+01701999999ADDGA1041+007921999GA2071+030481999GE19MSL   +99999+99999GF199999041999007921999999MA1102101999999REMMET069METAR HRYR 050430Z 19003KT 6000 SCT026 BKN100 17/17 Q1021 BECMG 8000=
0171643870999992020010505004-01969+030139FM-15+148199999V0209999V00101030481CN009999199+01801+01701999999ADDGA1041+007921999GA2041+030481999GE19MSL   +99999+99999GF199999041999007921999999MA1102101999999REMMET064METAR HRYR 050500Z VRB02KT 9999 SCT026 SCT100 18/17 Q1021 NOSIG=
0109643870999992020010505304-01969+030139FM-15+148199999V0209999C000059999999N999999999+01805+01705999999ADDMA1102105999999REMMET063METAR HRYR 050530Z 00000KT6000 FEW010 SCT025 18/17 Q1021 NOSIG=EQDD01      0ADE693
0226643870999992020010506004-01967+030117FM-12+149199999V0209999C000019999999N010000199+01971+01711999999ADDAA124000231GA1021+008001081GA2999+999999031GE19MSL   +99999+99999GF105991021999008001999999MA1999999083352ME1313359REMSYN09964387 12560 50000 10197 20171 38335 48335 69924 82230 333 1558 10265 20172 50304 59007 82822 84360=
0171643870999992020010506004-01969+030139FM-15+148199999V0209999C00001030481CN009999199+02001+01701999999ADDGA1021+006711999GA2041+030481999GE19MSL   +99999+99999GF199999021999006711999999MA1102101999999REMMET064METAR HRYR 050600Z 00000KT 9999 FEW022 SCT100 20/17 Q1021 NOSIG=
0148643870999992020010507004-01969+030139FM-15+148199999V0209999V001019999999N009999199+02301+01801999999ADDGA1021+007011999GE19MSL   +99999+99999GF199999021999007011999999MA1102101999999REMMET057METAR HRYR 050700Z VRB02KT 9999 FEW023 23/18 Q1021 NOSIG=
0148643870999992020010508004-01969+030139FM-15+148199999V0201401N002119999999N009999199+02501+01801999999ADDGA1021+007621999GE19MSL   +99999+99999GF199999021999007621999999MA1102101999999REMMET057METAR HRYR 050800Z 14004KT 9999 FEW025 25/18 Q1021 NOSIG=
0206643870999992020010509004-01967+030117FM-12+149199999V0201701N003619999999N010000199+02501+01731999999ADDGA1011+007201091GA2041+007501081GE19MSL   +99999+99999GF106991011999007201999999MA1999999085212MD1999999-0141ME1315159REMSYN07664387 32560 61707 10250 20173 38521 48515 85902 333 59014 81924 84825 94963=
0173643870999992020010509004-01969+030139FM-15+148199999V0201701N00361007621CN009999199+02501+01701999999ADDGA1021+007321091GA2041+007621999GE19MSL   +99999+99999GF199999021999007321999999MA1102001999999REMMET066METAR HRYR 050900Z 17007KT 9999 FEW024CB SCT025 25/17 Q1020 NOSIG=
0173643870999992020010510004-01969+030139FM-15+148199999V0200801N00261007621CN009999199+02401+01701999999ADDGA1021+007321091GA2041+007621999GE19MSL   +99999+99999GF199999021999007321999999MA1101901999999REMMET066METAR HRYR 051000Z 08005KT 9999 FEW024CB SCT025 24/17 Q1019 NOSIG=
0183643870999992020010511004-01969+030139FM-15+148199999V0201301N001510073219N009999199+02201+01801999999ADDGA1021+007011091GA2071+007321999GE19MSL   +99999+99999GF199999021999007011999999MA1101901999999MW1611REMMET070METAR HRYR 051100Z 13003KT 9999 -RA FEW023CB BKN024 22/18 Q1019 NOSIG=
0257643870999992020010512004-01967+030117FM-12+149199999V0203201N00311007201CN010000199+02031+01791999999ADDAA112004031AY191021AY261021GA1011+006601091GA2051+007201081GE19MSL   +99999+99999GF107991011999006601999999MA1999999085062MD1999999-0041ME1315009MW1291REMSYN09464387 11560 73206 10203 20179 38506 48500 60042 72996 8693/ 333 0//51 59004 81922 85824 94963=
0175643870999992020010512004-01969+030139FM-15+148199999V0201601N003610304819N009999199+02101+01801999999ADDGA1041+007321999GA2071+030481999GE19MSL   +99999+99999GF199999041999007321999999MA1101801999999REMMET068METAR COR HRYR 051200Z 16007KT 9999 SCT024 BKN100 21/18 Q1018 NOSIG=
0171643870999992020010514004-01969+030139FM-15+148199999V0209999V00211030481CN009999199+02201+01801999999ADDGA1041+007621999GA2041+030481999GE19MSL   +99999+99999GF199999041999007621999999MA1101701999999REMMET064METAR HRYR 051400Z VRB04KT 9999 SCT025 SCT100 22/18 Q1017 NOSIG=
0241643870999992020010515004-01967+030117FM-12+149199999V0202201N001510300019N010000199+02241+01761999999ADDGA1041+007501081GA2051+030001031GA3051+030001031GE19MSL   +99999+99999GF107991041999007501999999KA1240M+02561MA1999999084991MD1999999-0081ME1314929REMSYN08264387 32560 72203 10224 20176 38499 48492 8423/ 333 10256 59008 84825 85360 85360=
0171643870999992020010515004-01969+030139FM-15+148199999V0202201N001510304819N009999199+02201+01801999999ADDGA1041+007621999GA2071+030481999GE19MSL   +99999+99999GF199999041999007621999999MA1101701999999REMMET064METAR HRYR 051500Z 22003KT 9999 SCT025 BKN100 22/18 Q1017 NOSIG=
0171643870999992020010517304-01969+030139FM-15+148199999V0209999C00001030481CN009999199+02001+01701999999ADDGA1041+007011999GA2041+030481999GE19MSL   +99999+99999GF199999041999007011999999MA1101901999999REMMET064METAR HRYR 051730Z 00000KT 9999 SCT023 SCT100 20/17 Q1019 NOSIG=
0171643870999992020010518004-01969+030139FM-15+148199999V0200201N00101030481CN009999199+02001+01701999999ADDGA1041+007011999GA2041+030481999GE19MSL   +99999+99999GF199999041999007011999999MA1101901999999REMMET064METAR HRYR 051800Z 02002KT 9999 SCT023 SCT100 20/17 Q1019 NOSIG=
0171643870999992020010518304-01969+030139FM-15+148199999V0201001N00101030481CN009999199+02001+01701999999ADDGA1041+007011999GA2041+030481999GE19MSL   +99999+99999GF199999041999007011999999MA1102001999999REMMET064METAR HRYR 051830Z 10002KT 9999 SCT023 SCT100 20/17 Q1020 NOSIG=
0171643870999992020010519004-01969+030139FM-15+148199999V0201901N00151030481CN009999199+01901+01801999999ADDGA1041+007011999GA2041+030481999GE19MSL   +99999+99999GF199999041999007011999999MA1102001999999REMMET064METAR HRYR 051900Z 19003KT 9999 SCT023 SCT100 19/18 Q1020 NOSIG=
0171643870999992020010521004-01969+030139FM-15+148199999V0209999C00001030481CN009999199+01901+01701999999ADDGA1041+006101999GA2041+030481999GE19MSL   +99999+99999GF199999041999006101999999MA1102001999999REMMET064METAR HRYR 052100Z 00000KT 9999 SCT020 SCT100 19/17 Q1020 NOSIG=
0171643870999992020010522004-01969+030139FM-15+148199999V0200201N00211007621CN009999199+01801+01601999999ADDGA1021+004571999GA2041+007621999GE19MSL   +99999+99999GF199999021999004571999999MA1102001999999REMMET064METAR HRYR 052200Z 02004KT 9999 FEW015 SCT025 18/16 Q1020 NOSIG=
0171643870999992020010523004-01969+030139FM-15+148199999V0203401N00211007621CN009999199+01701+01701999999ADDGA1021+004571999GA2041+007621999GE19MSL   +99999+99999GF199999021999004571999999MA1102001999999REMMET064METAR HRYR 052300Z 34004KT 9999 FEW015 SCT025 17/17 Q1020 NOSIG=
0148643870999992020010601004-01969+030139FM-15+148199999V0203001N001519999999N009999199+01601+01601999999ADDGA1041+007621999GE19MSL   +99999+99999GF199999041999007621999999MA1101901999999REMMET057METAR HRYR 060100Z 30003KT 9999 SCT025 16/16 Q1019 NOSIG=
0171643870999992020010603004-01969+030139FM-15+148199999V0202701N00211091441CN009999199+01601+01501999999ADDGA1021+007621999GA2041+091441999GE19MSL   +99999+99999GF199999021999007621999999MA1101901999999REMMET064METAR HRYR 060300Z 27004KT 9999 FEW025 SCT300 16/15 Q1019 NOSIG=
0170643870999992020010604004-01969+030139FM-15+148199999V0203501N00211030481CN009999199+01701+01501999999ADDGA1021+007621999GA2041+030481999GE19MSL   +99999+99999GF199999021999007621999999MA1102001999999REMMET063METAR HRYR 060400Z 35004KT 9999 FEW025 SCT10017/15 Q1020 NOSIG=
0170643870999992020010605004-01969+030139FM-15+148199999V0202801N001510914419N009999199+01701+01601999999ADDGA1021+007621999GA2071+091441999GE19MSL   +99999+99999GF199999021999007621999999MA1102101999999REMMET063METAR HRYR 060500Z 28003KT 9999 FEW025 BKN30017/16 Q1021 NOSIG=
0170643870999992020010606004-01969+030139FM-15+148199999V0209999C000010304819N009999199+01901+01501999999ADDGA1041+007621999GA2071+030481999GE19MSL   +99999+99999GF199999041999007621999999MA1102101999999REMMET063METAR HRYR 060600Z 00000KT 9999 SCT025 BKN10019/15 Q1021 NOSIG=
0170643870999992020010607004-01969+030139FM-15+148199999V0209999C000010304819N009999199+01901+01701999999ADDGA1041+006101999GA2071+030481999GE19MSL   +99999+99999GF199999041999006101999999MA1102201999999REMMET063METAR HRYR 060700Z 00000KT 9999 SCT020 BKN10019/17 Q1022 NOSIG=
0170643870999992020010608004-01969+030139FM-15+148199999V0201401N00311006711CN009999199+01901+01701999999ADDGA1071+006711999GA2071+030481999GE19MSL   +99999+99999GF199999071999006711999999MA1102201999999REMMET063METAR HRYR 060800Z 14006KT 9999 BKN022 BKN10019/17 Q1022 NOSIG=
0170643870999992020010609004-01969+030139FM-15+148199999V0201501N00211007621CN009999199+02001+01801999999ADDGA1071+007621999GA2071+030481999GE19MSL   +99999+99999GF199999071999007621999999MA1102201999999REMMET063METAR HRYR 060900Z 15004KT 9999 BKN025 BKN10020/18 Q1022 NOSIG=
0173643870999992020010610004-01969+030139FM-15+148199999V0200601N003110073219N009999199+02201+01701999999ADDGA1021+006711091GA2071+007321999GE19MSL   +99999+99999GF199999021999006711999999MA1102201999999REMMET066METAR HRYR 061000Z 06006KT 9999 FEW022CB BKN024 22/17 Q1022 NOSIG=
0173643870999992020010611004-01969+030139FM-15+148199999V0200501N005110076219N009999199+02201+01701999999ADDGA1021+007011091GA2071+007621999GE19MSL   +99999+99999GF199999021999007011999999MA1102001999999REMMET066METAR HRYR 061100Z 05010KT 9999 FEW023CB BKN025 22/17 Q1020 BECMG=
0206643870999992020010612004-01967+030117FM-12+149199999V0200501N00261007501CN010000199+02111+01681999999ADDGA1011+006901091GA2051+007501081GE19MSL   +99999+99999GF107991011999006901999999MA1999999085181MD1999999+0031ME1315139REMSYN07664387 32560 70505 10211 20168 38518 48513 8593/ 333 58003 81923 85825 94964=
0175643870999992020010612004-01969+030139FM-15+148199999V0200501N002619999999N009999199+02105+01705999999ADDGA1021+007011999GE19AGL   +99999+99999GF199999021999007011999999MA1102005999999REMMET065METAR HRYR 061200Z 05005KT 9999 FEW023CBBKN025 21/17 Q1020 NOSIG=EQDD01      0ADE693
0171643870999992020010613004-01969+030139FM-15+148199999V0200901N00261007621CN009999199+02101+01701999999ADDGA1071+007621999GA2041+030481999GE19MSL   +99999+99999GF199999071999007621999999MA1101901999999REMMET064METAR HRYR 061300Z 09005KT 9999 BKN025 SCT100 21/17 Q1019 NOSIG=
0229643870999992020010615004-01967+030117FM-12+149199999V0201501N002119999999N010000199+02141+01661999999ADDGA1031+007501081GA2999+999999031GA3999+999999001GE19MSL   +99999+99999GF106991031999007501999999KA1240M+02361MA1999999085011MD1999999+0021ME1314959REMSYN07064387 32560 61504 10214 20166 38501 48495 83232 333 10236 58002 83825=
0180643870999992020010704004-01969+030139FM-15+148199999V0209999C00001007011CN000250199+01601+01601999999ADDGA1021+002441999GA2041+007011999GE19MSL   +99999+99999GF199999021999002441999999MA1102001999999MW1441REMMET067METAR HRYR 070400Z 00000KT 0250 FG FEW008 SCT023 16/16 Q1020 NOSIG=
0180643870999992020010705004-01969+030139FM-15+148199999V0209999C000010070119N000200199+01701+01701999999ADDGA1021+002441999GA2071+007011999GE19MSL   +99999+99999GF199999021999002441999999MA1102101999999MW1441REMMET067METAR HRYR 070500Z 00000KT 0200 FG FEW008 BKN023 17/17 Q1021 NOSIG=
0242643870999992020010706004-01967+030117FM-12+149199999V0209999C00001000901WN000200199+01711+01681999999ADDAY141021AY221021GA1091+000901999GE19MSL   +99999+99999GF109991091999000901999999KA1240M+02361KA2240N+01551MA1999999085391ME1315339MW1441REMSYN09464387 31102 90000 10171 20168 38539 48533 74442 89/// 333 01400 10236 20155 50164 58005 89/03=
0156643870999992020010706004-01969+030139FM-15+148199999V0209999C00001000911WN000200199+01701+01701999999ADDGA1091+000911999GE19MSL   +99999+99999GF109991091999000911999999MA1102201999999MW1441REMMET059METAR HRYR 070600Z 00000KT 0200 FG VV003 17/17 Q1022 NOSIG=
0157643870999992020010706304-01969+030139FM-15+148199999V0209999V00101001221CN000300199+01801+01801999999ADDGA1071+001221999GE19MSL   +99999+99999GF199999071999001221999999MA1102201999999MW1441REMMET060METAR HRYR 070630Z VRB02KT 0300 FG BKN004 18/18 Q1022 NOSIG=
0162643870999992020010707004-01969+030139FM-15+148199999V0209999V00101001831CN000500199+01801+01801999999ADDGA1071+001831999GE19MSL   +99999+99999GF199999071999001831999999MA1102201999999MW1441REMMET065METAR HRYR 070700Z VRB02KT 0500 FG BKN006 18/18 Q1022 BECMG 5000=
0171643870999992020010708004-01969+030139FM-15+148199999V0209999V00101091441CN007000199+01901+01901999999ADDGA1041+006101999GA2041+091441999GE19MSL   +99999+99999GF199999041999006101999999MA1102101999999REMMET064METAR HRYR 070800Z VRB02KT 7000 SCT020 SCT300 19/19 Q1021 NOSIG=
0171643870999992020010708304-01969+030139FM-15+148199999V0201701N00311091441CN009999199+02201+01801999999ADDGA1041+006711999GA2041+091441999GE19MSL   +99999+99999GF199999041999006711999999MA1102101999999REMMET064METAR HRYR 070830Z 17006KT 9999 SCT022 SCT300 22/18 Q1021 NOSIG=
0148643870999992020010709004-01969+030139FM-15+148199999V0201501N003119999999N009999199+02301+01801999999ADDGA1041+007011999GE19MSL   +99999+99999GF199999041999007011999999MA1102101999999REMMET057METAR HRYR 070900Z 15006KT 9999 SCT023 23/18 Q1021 NOSIG=
0151643870999992020010709304-01969+030139FM-15+148199999V0201601N003119999999N009999199+02401+01801999999ADDGA1041+007011081GE19MSL   +99999+99999GF199999041999007011999999MA1102001999999REMMET060METAR HRYR 070930Z 16006KT 9999 SCT023TCU 24/18 Q1020 NOSIG=
0173643870999992020010712304-01969+030139FM-15+148199999V0201601N003610076219N009999199+02501+01801999999ADDGA1021+007011091GA2071+007621999GE19MSL   +99999+99999GF199999021999007011999999MA1101701999999REMMET066METAR HRYR 071230Z 16007KT 9999 FEW023CB BKN025 25/18 Q1017 NOSIG=
0173643870999992020010714004-01969+030139FM-15+148199999V0200401N006710076219N009999199+02401+01701999999ADDGA1021+007011091GA2071+007621999GE19MSL   +99999+99999GF199999021999007011999999MA1101601999999REMMET066METAR HRYR 071400Z 04013KT 9999 FEW023CB BKN025 24/17 Q1016 NOSIG=
0183643870999992020010714304-01969+030139FM-15+148199999V0200301N009810076219N009999199+02001+01801999999ADDGA1021+007011091GA2071+007621999GE19MSL   +99999+99999GF199999021999007011999999MA1101701999999MW1611REMMET070METAR HRYR 071430Z 03019KT 9999 -RA FEW023CB BKN025 20/18 Q1017 NOSIG=
0206643870999992020010715004-01969+030139FM-15+148199999V0200101N004610076219N009999199+02001+01801999999ADDGA1021+007011091GA2071+007621999GA3071+030481999GE19MSL   +99999+99999GF199999021999007011999999MA1101701999999MW1611REMMET077METAR HRYR 071500Z 01009KT 9999 -RA FEW023CB BKN025 BKN100 20/18 Q1017 NOSIG=
0171643870999992020010717004-01969+030139FM-15+148199999V0203501N00211007621CN009999199+02001+01701999999ADDGA1071+007621999GA2041+030481999GE19MSL   +99999+99999GF199999071999007621999999MA1101901999999REMMET064METAR HRYR 071700Z 35004KT 9999 BKN025 SCT100 20/17 Q1019 NOSIG=
0171643870999992020010717304-01969+030139FM-15+148199999V0203501N00261030481CN009999199+02001+01701999999ADDGA1041+007621999GA2041+030481999GE19MSL   +99999+99999GF199999041999007621999999MA1101901999999REMMET064METAR HRYR 071730Z 35005KT 9999 SCT025 SCT100 20/17 Q1019 NOSIG=
0171643870999992020010718004-01969+030139FM-15+148199999V0209999C00001030481CN009999199+02001+01601999999ADDGA1041+007621999GA2041+030481999GE19MSL   +99999+99999GF199999041999007621999999MA1101901999999REMMET064METAR HRYR 071800Z 00000KT 9999 SCT025 SCT100 20/16 Q1019 NOSIG=
0148643870999992020010718304-01969+030139FM-15+148199999V0203101N002119999999N009999199+02001+01601999999ADDGA1041+007621999GE19MSL   +99999+99999GF199999041999007621999999MA1102001999999REMMET057METAR HRYR 071830Z 31004KT 9999 SCT025 20/16 Q1020 NOSIG=
0171643870999992020010719004-01969+030139FM-15+148199999V0202801N00151030481CN009999199+01901+01601999999ADDGA1021+007621999GA2041+030481999GE19MSL   +99999+99999GF199999021999007621999999MA1102001999999REMMET064METAR HRYR 071900Z 28003KT 9999 FEW025 SCT100 19/16 Q1020 NOSIG=
0171643870999992020010719304-01969+030139FM-15+148199999V0203101N00211030481CN009999199+01901+01601999999ADDGA1021+007621999GA2041+030481999GE19MSL   +99999+99999GF199999021999007621999999MA1102001999999REMMET064METAR HRYR 071930Z 31004KT 9999 FEW025 SCT100 19/16 Q1020 NOSIG=
0171643870999992020010720004-01969+030139FM-15+148199999V0203501N00211030481CN009999199+01801+01701999999ADDGA1021+007621999GA2041+030481999GE19MSL   +99999+99999GF199999021999007621999999MA1102001999999REMMET064METAR HRYR 072000Z 35004KT 9999 FEW025 SCT100 18/17 Q1020 NOSIG=
0171643870999992020010720304-01969+030139FM-15+148199999V0203301N00151030481CN009999199+01901+01601999999ADDGA1021+007621999GA2041+030481999GE19MSL   +99999+99999GF199999021999007621999999MA1102001999999REMMET064METAR HRYR 072030Z 33003KT 9999 FEW025 SCT100 19/16 Q1020 NOSIG=
0171643870999992020010721004-01969+030139FM-15+148199999V0203101N00151030481CN009999199+01801+01601999999ADDGA1021+007621999GA2041+030481999GE19MSL   +99999+99999GF199999021999007621999999MA1102001999999REMMET064METAR HRYR 072100Z 31003KT 9999 FEW025 SCT100 18/16 Q1020 NOSIG=
0171643870999992020010721304-01969+030139FM-15+148199999V0209999V00101030481CN009999199+01801+01701999999ADDGA1041+007621999GA2041+030481999GE19MSL   +99999+99999GF199999041999007621999999MA1102001999999REMMET064METAR HRYR 072130Z VRB02KT 9999 SCT025 SCT100 18/17 Q1020 NOSIG=
0171643870999992020010722004-01969+030139FM-15+148199999V0202201N00101030481CN009999199+01801+01701999999ADDGA1041+007621999GA2041+030481999GE19MSL   +99999+99999GF199999041999007621999999MA1102001999999REMMET064METAR HRYR 072200Z 22002KT 9999 SCT025 SCT100 18/17 Q1020 NOSIG=
0171643870999992020010722304-01969+030139FM-15+148199999V0202701N00151030481CN009999199+01801+01601999999ADDGA1041+007621999GA2041+030481999GE19MSL   +99999+99999GF199999041999007621999999MA1102001999999REMMET064METAR HRYR 072230Z 27003KT 9999 SCT025 SCT100 18/16 Q1020 NOSIG=
0171643870999992020010723004-01969+030139FM-15+148199999V0209999V00101030481CN009999199+01801+01601999999ADDGA1041+007621999GA2041+030481999GE19MSL   +99999+99999GF199999041999007621999999MA1101901999999REMMET064METAR HRYR 072300Z VRB02KT 9999 SCT025 SCT100 18/16 Q1019 NOSIG=
0171643870999992020010723304-01969+030139FM-15+148199999V0209999C000010304819N009999199+01701+01601999999ADDGA1041+007621999GA2071+030481999GE19MSL   +99999+99999GF199999041999007621999999MA1101901999999REMMET064METAR HRYR 072330Z 00000KT 9999 SCT025 BKN100 17/16 Q1019 NOSIG=
0171643870999992020010800004-01969+030139FM-15+148199999V0200201N00211007621CN009999199+01701+01601999999ADDGA1071+007621999GA2071+030481999GE19MSL   +99999+99999GF199999071999007621999999MA1101901999999REMMET064METAR HRYR 080000Z 02004KT 9999 BKN025 BKN100 17/16 Q1019 NOSIG=
0171643870999992020010801004-01969+030139FM-15+148199999V0203201N00211007621CN009000199+01701+01601999999ADDGA1071+007621999GA2071+030481999GE19MSL   +99999+99999GF199999071999007621999999MA1101801999999REMMET064METAR HRYR 080100Z 32004KT 9000 BKN025 BKN100 17/16 Q1018 NOSIG=
0171643870999992020010802004-01969+030139FM-15+148199999V0202101N00151007621CN009999199+01701+01601999999ADDGA1071+007621999GA2071+030481999GE19MSL   +99999+99999GF199999071999007621999999MA1101801999999REMMET064METAR HRYR 080200Z 21003KT 9999 BKN025 BKN100 17/16 Q1018 NOSIG=
0180643870999992020010803304-01969+030139FM-15+148199999V0201101N00211007921CN000500199+01701+01701999999ADDGA1021+002441999GA2041+007921999GE19MSL   +99999+99999GF199999021999002441999999MA1102001999999MW1441REMMET067METAR HRYR 080330Z 11004KT 0500 FG FEW008 SCT026 17/17 Q1020 NOSIG=
0118643870999992020010804004-01969+030139FM-15+148199999V0200501N002119999999N999999999+01705+01705999999ADDMA1102105999999MW1105REMMET066METAR HRYR 080400Z 05004KT 280 BR FEW008 SCT026 17/17 Q1021 NOSIG=EQDD01      0ADE693
0180643870999992020010805004-01969+030139FM-15+148199999V0203601N002110304819N005000199+01701+01701999999ADDGA1041+007621999GA2071+030481999GE19MSL   +99999+99999GF199999041999007621999999MA1102201999999MW1631REMMET067METAR HRYR 080500Z 36004KT 5000 RA SCT025 BKN100 17/17 Q1022 NOSIG=
0281643870999992020010806004-01967+030117FM-12+149199999V0203401N00151006901CN003000199+01771+01721999999ADDAA124003031AY191021AY261021GA1011+006601091GA2061+006901081GE19MSL   +99999+99999GF108991011999006601999999KA1240M+02661KA2240N+01661MA1999999085501ME1315449MW1951REMSYN10664387 11530 83403 10177 20172 38550 48544 60034 79596 8793/ 333 01461 10266 20166 50254 58011 81922 86823=
0117643870999992020010806004-01969+030139FM-15+148199999V0203401N001519999999N003000199+01805+01705999999ADDMA1102305999999REMMET071METAR HRYR 080600Z 34003KT 3000 RSRA FEW022CB BKN023 18/17 Q1023 NOSIG=EQDD01      0ADE693
0197643870999992020010806304-01969+030139FM-15+148199999V0200101V002610070119N006000199+01601+01601999999ADDGA1021+006401091GA2071+007011999GE19MSL   +99999+99999GF199999021999006401999999MA1102401999999MW1951REMMET084METAR HRYR 080630Z 01005KT 350V050 6000 TSRA FEW021CB BKN023 16/16 Q1024 BECMG 8000=
0184643870999992020010807004-01969+030139FM-15+148199999V0200401N002610070119N007000199+01701+01601999999ADDGA1021+006101091GA2071+007011999GE19MSL   +99999+99999GF199999021999006101999999MA1102401999999MW1951REMMET071METAR HRYR 080700Z 04005KT 7000 TSRA FEW020CB BKN023 17/16 Q1024 NOSIG=
0208643870999992020010807304-01969+030139FM-15+148199999V0203201N00311006101CN008000199+01701+01601999999ADDGA1021+003051999GA2021+006101091GA3071+007011999GE19MSL   +99999+99999GF199999021999003051999999MA1102401999999MW1951REMMET079METAR HRYR 080730Z 32006KT 8000 -TSRA FEW010 FEW020CB BKN023 17/16 Q1024 NOSIG=
0204643870999992020010808004-01969+030139FM-15+148199999V0202801N00511006101CN009999199+01701+01601999999ADDGA1021+003051999GA2021+006101091GA3071+007011999GE19MSL   +99999+99999GF199999021999003051999999MA1102201999999MW1631REMMET075METAR HRYR 080800Z 28010KT 9999 RA FEW010 FEW020CB BKN023 17/16 Q1022 RETS=
0181643870999992020010808304-01969+030139FM-15+148199999V0203201N00411006101CN009999199+01701+01601999999ADDGA1071+006101999GA2071+027431999GE19MSL   +99999+99999GF199999071999006101999999MA1102201999999MW1611REMMET068METAR HRYR 080830Z 32008KT 9999 -RA BKN020 BKN090 17/16 Q1022 NOSIG=
0245643870999992020010809004-01967+030117FM-12+149199999V0203301N001510270019N010000199+01781+01631999999ADDAA103013031AY191021AY261021GA1041+006001081GA2051+027001031GE19MSL   +99999+99999GF108991041999006001999999MA1999999085421MD1999999+0141ME1315369MW1211REMSYN08264387 21560 83303 10178 20163 38542 48536 72196 8423/ 333 58014 60137 84820 85359=
0171643870999992020010810004-01969+030139FM-15+148199999V0201601N001510304819N009999199+02001+01601999999ADDGA1041+006711999GA2071+030481999GE19MSL   +99999+99999GF199999041999006711999999MA1102201999999REMMET064METAR HRYR 081000Z 16003KT 9999 SCT022 BKN100 20/16 Q1022 NOSIG=
0171643870999992020010811004-01969+030139FM-15+148199999V0209999V00101030481CN009999199+02301+01501999999ADDGA1041+007011999GA2041+030481999GE19MSL   +99999+99999GF199999041999007011999999MA1102101999999REMMET064METAR HRYR 081100Z VRB02KT 9999 SCT023 SCT100 23/15 Q1021 NOSIG=
0251643870999992020010812004-01967+030117FM-12+149199999V0202601N00211030001CN010000199+02371+01531999999ADDAA106016031AY191021AY261021GA1031+006901081GA2031+030001031GE19MSL   +99999+99999GF106991031999006901999999MA1999999085181MD1999999-0011ME1315129MW1011REMSYN08864387 11560 62604 10237 20153 38518 48512 60161 70196 83230 333 0//64 59001 83823 83360=
0171643870999992020010812004-01969+030139FM-15+148199999V0202601N00211030481CN009999199+02401+01501999999ADDGA1041+007011999GA2041+030481999GE19MSL   +99999+99999GF199999041999007011999999MA1102001999999REMMET064METAR HRYR 081200Z 26004KT 9999 SCT023 SCT100 24/15 Q1020 NOSIG=
0171643870999992020010813004-01969+030139FM-15+148199999V0201701N00211030481CN009999199+02501+01701999999ADDGA1041+007011999GA2041+030481999GE19MSL   +99999+99999GF199999041999007011999999MA1101901999999REMMET064METAR HRYR 081300Z 17004KT 9999 SCT023 SCT100 25/17 Q1019 NOSIG=
0148643870999992020010814004-01969+030139FM-15+148199999V0209999V002119999999N009999199+02501+01501999999ADDGA1041+007011999GE19MSL   +99999+99999GF199999041999007011999999MA1101801999999REMMET057METAR HRYR 081400Z VRB04KT 9999 SCT023 25/15 Q1018 NOSIG=
0171643870999992020010815004-01969+030139FM-15+148199999V0202001N00211030481CN009999199+02401+01501999999ADDGA1041+007011999GA2041+030481999GE19MSL   +99999+99999GF199999041999007011999999MA1101801999999REMMET064METAR HRYR 081500Z 20004KT 9999 SCT023 SCT100 24/15 Q1018 NOSIG=
0171643870999992020010817004-01969+030139FM-15+148199999V0209999C00001091441CN009999199+02301+01501999999ADDGA1021+007011999GA2041+091441999GE19MSL   +99999+99999GF199999021999007011999999MA1101901999999REMMET064METAR HRYR 081700Z 00000KT 9999 FEW023 SCT300 23/15 Q1019 NOSIG=
0171643870999992020010819004-01969+030139FM-15+148199999V0209999C00001091441CN009999199+02101+01601999999ADDGA1021+007321999GA2041+091441999GE19MSL   +99999+99999GF199999021999007321999999MA1102001999999REMMET064METAR HRYR 081900Z 00000KT 9999 FEW024 SCT300 21/16 Q1020 NOSIG=
0171643870999992020010820004-01969+030139FM-15+148199999V0203101N00261030481CN009999199+02001+01701999999ADDGA1041+007321999GA2041+030481999GE19MSL   +99999+99999GF199999041999007321999999MA1102001999999REMMET064METAR HRYR 082000Z 31005KT 9999 SCT024 SCT100 20/17 Q1020 NOSIG=
0171643870999992020010821004-01969+030139FM-15+148199999V0203101N00151030481CN009999199+01901+01701999999ADDGA1041+007321999GA2041+030481999GE19MSL   +99999+99999GF199999041999007321999999MA1102101999999REMMET064METAR HRYR 082100Z 31003KT 9999 SCT024 SCT100 19/17 Q1021 NOSIG=
0171643870999992020010823004-01969+030139FM-15+148199999V0203401N00151030481CN009999199+01901+01701999999ADDGA1041+007011999GA2041+030481999GE19MSL   +99999+99999GF199999041999007011999999MA1102001999999REMMET064METAR HRYR 082300Z 34003KT 9999 SCT023 SCT100 19/17 Q1020 NOSIG=
0171643870999992020010900004-01969+030139FM-15+148199999V0209999V00101030481CN009999199+01801+01701999999ADDGA1041+007011999GA2041+030481999GE19MSL   +99999+99999GF199999041999007011999999MA1102101999999REMMET064METAR HRYR 090000Z VRB02KT 9999 SCT023 SCT100 18/17 Q1021 NOSIG=
0171643870999992020010901004-01969+030139FM-15+148199999V0209999V00101030481CN009000199+01901+01701999999ADDGA1041+007011999GA2041+030481999GE19MSL   +99999+99999GF199999041999007011999999MA1101901999999REMMET064METAR HRYR 090100Z VRB02KT 9000 SCT023 SCT100 19/17 Q1019 NOSIG=
0175643870999992020010902004-01969+030139FM-15+148199999V0203501N00151030481CN009000199+01801+01701999999ADDGA1041+007011999GA2041+030481999GE19MSL   +99999+99999GF199999041999007011999999MA1102001999999REMMET068METAR COR HRYR 090200Z 35003KT 9000 SCT023 SCT100 18/17 Q1020 NOSIG=
0171643870999992020010902304-01969+030139FM-15+148199999V0203101N00101030481CN009000199+01801+01601999999ADDGA1041+007011999GA2041+030481999GE19MSL   +99999+99999GF199999041999007011999999MA1102001999999REMMET064METAR HRYR 090230Z 31002KT 9000 SCT023 SCT100 18/16 Q1020 NOSIG=
0171643870999992020010903004-01969+030139FM-15+148199999V0203501N00151030481CN009000199+01801+01701999999ADDGA1041+007011999GA2041+030481999GE19MSL   +99999+99999GF199999041999007011999999MA1102001999999REMMET064METAR HRYR 090300Z 35003KT 9000 SCT023 SCT100 18/17 Q1020 NOSIG=
0170643870999992020010904004-01969+030139FM-15+148199999V0209999C00001030481CN009999199+01801+01601999999ADDGA1041+007621999GA2041+030481999GE19MSL   +99999+99999GF199999041999007621999999MA1102001999999REMMET063METAR HRYR 090400Z 00000KT 9999 SCT025 SCT10018/16 Q1020 NOSIG=
0170643870999992020010905004-01969+030139FM-15+148199999V0209999V00101030481CN008000199+01801+01701999999ADDGA1041+007621999GA2041+030481999GE19MSL   +99999+99999GF199999041999007621999999MA1102101999999REMMET063METAR HRYR 090500Z VRB02KT 8000 SCT025 SCT10018/17 Q1021 NOSIG=
0253643870999992020010906004-01967+030117FM-12+149199999V0200601N00151030001CN010000199+02121+01551999999ADDAA124014031GA1031+007501081GA2031+030001031GE19MSL   +99999+99999GF106991031999007501999999KA1240M+02581KA2240N+01781MA1999999085301ME1315249REMSYN10064387 12560 60603 10212 20155 38530 48524 60144 83230 333 01568 10258 20178 50234 59020 83825 83360=
0171643870999992020010906004-01969+030139FM-15+148199999V0200601N00151030481CN009999199+02101+01601999999ADDGA1041+007621999GA2041+030481999GE19MSL   +99999+99999GF199999041999007621999999MA1102101999999REMMET064METAR HRYR 090600Z 06003KT 9999 SCT025 SCT100 21/16 Q1021 NOSIG=
0170643870999992020010907004-01969+030139FM-15+148199999V0209999V00101030481CN009999199+02301+01701999999ADDGA1041+007621999GA2041+030481999GE19MSL   +99999+99999GF199999041999007621999999MA1102101999999REMMET063METAR HRYR 090700Z VRB02KT 9999 SCT025 SCT10023/17 Q1021 NOSIG=
0171643870999992020010908004-01969+030139FM-15+148199999V0201501N00151030481CN009999199+02401+01801999999ADDGA1041+007621999GA2041+030481999GE19MSL   +99999+99999GF199999041999007621999999MA1102101999999REMMET064METAR HRYR 090800Z 15003KT 9999 SCT025 SCT100 24/18 Q1021 NOSIG=
0200643870999992020010909004-01967+030117FM-12+149199999V0201601N00461006901CN010000199+02371+01661999999ADDGA1051+006901081GA2031+030001031GE19MSL   +99999+99999GF107991051999006901999999MA1999999085231MD1999999-0191ME1315179REMSYN07064387 32560 71609 10237 20166 38523 48517 8523/ 333 59019 85823 83360=
0170643870999992020010909004-01969+030139FM-15+148199999V0201601N00461007011CN009999199+02401+01701999999ADDGA1071+007011999GA2041+030481999GE19MSL   +99999+99999GF199999071999007011999999MA1102001999999REMMET063METAR HRYR 090900Z 16009KT 9999 BKN023 SCT10024/17 Q1020 NOSIG=
0185643870999992020010910004-01969+030139FM-15+148199999V0201101N002610076219N009999199+02301+01801999999ADDGA1021+007011091GA2071+007621999GE19MSL   +99999+99999GF199999021999007011999999MA1102001999999MW1951REMMET072METAR HRYR 091000Z 11005KT 9999 -TSRA FEW023CB BKN025 23/18 Q1020 NOSIG=
0184643870999992020010911004-01969+030139FM-15+148199999V0200101N006710076219N009999199+01801+01701999999ADDGA1021+007011091GA2071+007621999GE19MSL   +99999+99999GF199999021999007011999999MA1101901999999MW1951REMMET071METAR HRYR 091100Z 01013KT 9999 TSRA FEW023CB BKN025 18/17 Q1019 NOSIG=
0185643870999992020010911304-01969+030139FM-15+148199999V0200101N003110076219N009999199+01901+01701999999ADDGA1021+007011091GA2071+007621999GE19MSL   +99999+99999GF199999021999007011999999MA1101901999999MW1951REMMET072METAR HRYR 091130Z 01006KT 9999 -TSRA FEW023CB BKN025 19/17 Q1019 NOSIG=
0263643870999992020010912004-01967+030117FM-12+149199999V0200201N00311007501CN010000199+01861+01701999999ADDAA106002031AY191021AY261021GA1021+006901091GA2051+007501081GE19MSL   +99999+99999GF108991021999006901999999MA1999999085101MD1999999-0081ME1315049MW1951REMSYN10064387 11560 80206 10186 20170 38510 48504 60021 79596 8793/ 333 0//23 59008 82923 85825 94974 94973=
0184643870999992020010912004-01969+030139FM-15+148199999V0200201N003110076219N009999199+01901+01701999999ADDGA1021+007011091GA2071+007621999GE19MSL   +99999+99999GF199999021999007011999999MA1101801999999MW1951REMMET071METAR HRYR 091200Z 02006KT 9999 TSRA FEW023CB BKN025 19/17 Q1018 NOSIG=
0185643870999992020010912304-01969+030139FM-15+148199999V0200901N003110076219N009999199+01801+01701999999ADDGA1021+007011091GA2071+007621999GE19MSL   +99999+99999GF199999021999007011999999MA1101801999999MW1951REMMET072METAR HRYR 091230Z 09006KT 9999 -TSRA FEW023CB BKN025 18/17 Q1018 NOSIG=
0187643870999992020010913004-01969+030139FM-15+148199999V0209999V001010076219N009999199+01901+01801999999ADDGA1021+007011091GA2071+007621999GE19MSL   +99999+99999GF199999021999007011999999MA1101801999999MW1611REMMET074METAR COR HRYR 091300Z VRB02KT 9999 -RA FEW023CB BKN025 19/18 Q1018 NOSIG=
0153643870999992020010913304-01969+030139FM-15+148199999V0203301N00151007621CN009999199+01901+01801999999ADDGA1071+007621999GE19MSL   +99999+99999GF199999071999007621999999MA1101701999999REMMET062METAR HRYR 091330Z 33003KT 9999 BKN025 19/18 Q1017 RERA NOSIG=
0170643870999992020010914004-01969+030139FM-15+148199999V0209999V001010304819N009999199+02001+01901999999ADDGA1041+007621999GA2071+030481999GE19MSL   +99999+99999GF199999041999007621999999MA1101701999999REMMET063METAR HRYR 091400Z VRB02KT 9999 SCT025 BKN100 20/19 Q1017 RERA=
0170643870999992020010915004-01969+030139FM-15+148199999V0202901N001010304819N009999199+02001+01801999999ADDGA1041+007621999GA2071+030481999GE19MSL   +99999+99999GF199999041999007621999999MA1101701999999REMMET063METAR HRYR 091500Z 29002KT 9999 SCT025BKN100 20/18 Q1017 NOSIG=
0171643870999992020010919004-01969+030139FM-15+148199999V0201601N00311007621CN006000199+01801+01801999999ADDGA1021+004571999GA2041+007621999GE19MSL   +99999+99999GF199999021999004571999999MA1102001999999REMMET064METAR HRYR 091900Z 16006KT 6000 FEW015 SCT025 18/18 Q1020 NOSIG=
0165643870999992020010922004-01969+030139FM-15+148199999V0203101N00211007621CN006000199+01801+01801999999ADDGA1021+004571999GA2041+007621999GE19MSL   +99999+99999GF199999021999004571999999MA1102001999999REMMET058METAR HRYR 092200Z 31004KT 6000 FEW015 SCT025 18/18 Q1020=
0180643870999992020011001004-01969+030139FM-15+148199999V0203301N00151007621CN000200199+01701+01701999999ADDGA1041+003051999GA2041+007621999GE19MSL   +99999+99999GF199999041999003051999999MA1101901999999MW1441REMMET067METAR HRYR 100100Z 33003KT 0200 FG SCT010 SCT025 17/17 Q1019 NOSIG=
0180643870999992020011001304-01969+030139FM-15+148199999V0203401N00211007621CN000100199+01701+01701999999ADDGA1041+003051999GA2041+007621999GE19MSL   +99999+99999GF199999041999003051999999MA1101901999999MW1441REMMET067METAR HRYR 100130Z 34004KT 0100 FG SCT010 SCT025 17/17 Q1019 NOSIG=
0157643870999992020011003004-01969+030139FM-15+148199999V0202601N00211003051CN000300199+01701+01701999999ADDGA1071+003051999GE19MSL   +99999+99999GF199999071999003051999999MA1102001999999MW1441REMMET060METAR HRYR 100300Z 26004KT 0300 FG BKN010 17/17 Q1020 NOSIG=
0157643870999992020011004004-01969+030139FM-15+148199999V0202101N001519999999N000300199+01701+01701999999ADDGA1041+003051999GE19MSL   +99999+99999GF199999041999003051999999MA1102201999999MW1441REMMET060METAR HRYR 100400Z 21003KT 0300 FG SCT010 17/17 Q1022 NOSIG=
0180643870999992020011005004-01969+030139FM-15+148199999V0201001N001510045719N000200199+01701+01701999999ADDGA1041+002441999GA2071+004571999GE19MSL   +99999+99999GF199999041999002441999999MA1102201999999MW1441REMMET067METAR HRYR 100500Z 10003KT 0200 FG SCT008 BKN015 17/17 Q1022 NOSIG=
0303643870999992020011006004-01967+030117FM-12+149199999V0202501N00151004501CN002000199+01731+01701999999ADDAA124002031AY141021AY241021GA1031+002401071GA2051+004501081GA3051+030001031GE19MSL   +99999+99999GF108991031999002401999999KA1240M+02481KA2240N+01671MA1999999085441ME1315389MW1611REMSYN11264387 11420 82503 10173 20170 38544 48538 60024 76144 8623/ 333 01561 10248 20167 50124 58014 83708 85815 85360=
0202643870999992020011008004-01969+030139FM-15+148199999V0209999V001510061019N005000199+01801+01801999999ADDGA1021+002441999GA2071+006101999GA3071+030481999GE19MSL   +99999+99999GF199999021999002441999999MA1102301999999MW1101REMMET073METAR HRYR 100800Z VRB03KT 5000 BR FEW008 BKN020 BKN100 18/18 Q1023 RERA=
0228643870999992020011009004-01967+030117FM-12+149199999V0202401N00261006001CN008000199+02061+01761999999ADDAY161021AY261021GA1051+006001081GA2051+030001031GE19MSL   +99999+99999GF107991051999006001999999MA1999999085361MD1999999+0131ME1315309MW1011REMSYN07664387 31558 72405 10206 20176 38536 48530 70166 8523/ 333 58013 85820 85360=
0171643870999992020011009004-01969+030139FM-15+148199999V0202401N00261006101CN008000199+02101+01801999999ADDGA1071+006101999GA2071+030481999GE19MSL   +99999+99999GF199999071999006101999999MA1102201999999REMMET064METAR HRYR 100900Z 24005KT 8000 BKN020 BKN100 21/18 Q1022 NOSIG=
0171643870999992020011011004-01969+030139FM-15+148199999V0209999V00101030481CN009999199+02201+01701999999ADDGA1041+006711999GA2041+030481999GE19MSL   +99999+99999GF199999041999006711999999MA1102001999999REMMET064METAR HRYR 101100Z VRB02KT 9999 SCT022 SCT100 22/17 Q1020 NOSIG=
0251643870999992020011012004-01967+030117FM-12+149199999V0201801N00151030001CN010000199+02371+01711999999ADDAA106000231AY161021AY221021GA1041+007501081GA2031+030001031GE19MSL   +99999+99999GF107991041999007501999999MA1999999085101MD1999999+0001ME1315049MW1021REMSYN08864387 11560 71803 10237 20171 38510 48504 69921 70262 8423/ 333 0//55 58000 84825 83360=
0171643870999992020011012004-01969+030139FM-15+148199999V0201801N00151030481CN009999199+02401+01701999999ADDGA1041+007621999GA2041+030481999GE19MSL   +99999+99999GF199999041999007621999999MA1101901999999REMMET064METAR HRYR 101200Z 18003KT 9999 SCT025 SCT100 24/17 Q1019 NOSIG=
0173643870999992020011013004-01969+030139FM-15+148199999V0209999V001010076219N009999199+02701+01901999999ADDGA1021+007011091GA2071+007621999GE19MSL   +99999+99999GF199999021999007011999999MA1101701999999REMMET066METAR HRYR 101300Z VRB02KT 9999 FEW023CB BKN025 27/19 Q1017 NOSIG=
0173643870999992020011013304-01969+030139FM-15+148199999V0201601N002110076219N009999199+02501+01801999999ADDGA1021+007011091GA2071+007621999GE19MSL   +99999+99999GF199999021999007011999999MA1101701999999REMMET066METAR HRYR 101330Z 16004KT 9999 FEW023CB BKN025 25/18 Q1017 NOSIG=
0173643870999992020011014004-01969+030139FM-15+148199999V0200901N002110076219N009999199+02501+01701999999ADDGA1021+007011091GA2071+007621999GE19MSL   +99999+99999GF199999021999007011999999MA1101701999999REMMET066METAR HRYR 101400Z 09004KT 9999 FEW023CB BKN025 25/17 Q1017 NOSIG=
0173643870999992020011015004-01969+030139FM-15+148199999V0200301N002610076219N009999199+02501+01801999999ADDGA1021+007011091GA2071+007621999GE19MSL   +99999+99999GF199999021999007011999999MA1101701999999REMMET066METAR HRYR 101500Z 03005KT 9999 FEW023CB BKN025 25/18 Q1017 NOSIG=
0173643870999992020011017004-01969+030139FM-15+148199999V0203501N003110076219N009999199+02201+01501999999ADDGA1021+007011091GA2071+007621999GE19MSL   +99999+99999GF199999021999007011999999MA1101801999999REMMET066METAR HRYR 101700Z 35006KT 9999 FEW023CB BKN025 22/15 Q1018 NOSIG=
0171643870999992020011018004-01969+030139FM-15+148199999V0200301N00211030481CN009999199+02101+01501999999ADDGA1041+007621999GA2041+030481999GE19MSL   +99999+99999GF199999041999007621999999MA1102001999999REMMET064METAR HRYR 101800Z 03004KT 9999 SCT025 SCT100 21/15 Q1020 NOSIG=
0171643870999992020011019004-01969+030139FM-15+148199999V0200401N002110304819N009999199+02101+01501999999ADDGA1041+007621999GA2071+030481999GE19MSL   +99999+99999GF199999041999007621999999MA1102001999999REMMET064METAR HRYR 101900Z 04004KT 9999 SCT025 BKN100 21/15 Q1020 NOSIG=
0171643870999992020011020004-01969+030139FM-15+148199999V0201001N002110304819N009999199+01901+01501999999ADDGA1041+007621999GA2071+030481999GE19MSL   +99999+99999GF199999041999007621999999MA1102101999999REMMET064METAR HRYR 102000Z 10004KT 9999 SCT025 BKN100 19/15 Q1021 NOSIG=
0171643870999992020011021004-01969+030139FM-15+148199999V0202201N00261030481CN009999199+01901+01601999999ADDGA1041+007621999GA2041+030481999GE19MSL   +99999+99999GF199999041999007621999999MA1102001999999REMMET064METAR HRYR 102100Z 22005KT 9999 SCT025 SCT100 19/16 Q1020 NOSIG=
0171643870999992020011022004-01969+030139FM-15+148199999V0209999V00101030481CN009999199+01901+01601999999ADDGA1041+007621999GA2041+030481999GE19MSL   +99999+99999GF199999041999007621999999MA1102101999999REMMET064METAR HRYR 102200Z VRB02KT 9999 SCT025 SCT100 19/16 Q1021 NOSIG=
0171643870999992020011023004-01969+030139FM-15+148199999V0200401N002110304819N009999199+01801+01601999999ADDGA1041+007621999GA2071+030481999GE19MSL   +99999+99999GF199999041999007621999999MA1102001999999REMMET064METAR HRYR 102300Z 04004KT 9999 SCT025 BKN100 18/16 Q1020 NOSIG=
0171643870999992020011100004-01969+030139FM-15+148199999V0200301N002110304819N009999199+01801+01501999999ADDGA1041+007921999GA2071+030481999GE19MSL   +99999+99999GF199999041999007921999999MA1102001999999REMMET064METAR HRYR 110000Z 03004KT 9999 SCT026 BKN100 18/15 Q1020 NOSIG=
0171643870999992020011101004-01969+030139FM-15+148199999V0209999C000010304819N009999199+01801+01601999999ADDGA1041+007921999GA2071+030481999GE19MSL   +99999+99999GF199999041999007921999999MA1102001999999REMMET064METAR HRYR 110100Z 00000KT 9999 SCT026 BKN100 18/16 Q1020 NOSIG=
0171643870999992020011102004-01969+030139FM-15+148199999V0202801N00151030481CN009999199+01701+01501999999ADDGA1041+007921999GA2041+030481999GE19MSL   +99999+99999GF199999041999007921999999MA1101901999999REMMET064METAR HRYR 110200Z 28003KT 9999 SCT026 SCT100 17/15 Q1019 NOSIG=
0171643870999992020011103004-01969+030139FM-15+148199999V0203501N00211030481CN009999199+01701+01601999999ADDGA1041+007921999GA2041+030481999GE19MSL   +99999+99999GF199999041999007921999999MA1102001999999REMMET064METAR HRYR 110300Z 35004KT 9999 SCT026 SCT100 17/16 Q1020 NOSIG=
0175643870999992020011104004-01969+030139FM-15+148199999V0203301N00101030481CN009999199+01701+01601999999ADDGA1041+007921999GA2041+030481999GE19MSL   +99999+99999GF199999041999007921999999MA1102001999999REMMET068METAR COR HRYR 110400Z 33002KT 9999 SCT026 SCT100 17/16 Q1020 NOSIG=
0171643870999992020011105004-01969+030139FM-15+148199999V0209999C00001030481CN006000199+01701+01601999999ADDGA1041+007921999GA2041+030481999GE19MSL   +99999+99999GF199999041999007921999999MA1102201999999REMMET064METAR HRYR 110500Z 00000KT 6000 SCT026 SCT100 17/16 Q1022 NOSIG=
0210643870999992020011106004-01967+030117FM-12+149199999V0202401N001019999999N006000199+01801+01621999999ADDAA124000231GA1999+008001999GE19MSL   +99999+99999GF107991999999008001999999MA1999999085411ME1315369REMSYN09964387 12556 72402 10180 20162 38541 48536 69924 8323 333 01558 10257 20165 50244 59003 83825 84360=
0171643870999992020011106004-01969+030139FM-15+148199999V0202401N00101030481CN006000199+01801+01701999999ADDGA1041+007621999GA2041+030481999GE19MSL   +99999+99999GF199999041999007621999999MA1102201999999REMMET064METAR HRYR 110600Z 24002KT 6000 SCT025 SCT100 18/17 Q1022 NOSIG=
0109643870999992020011107004-01969+030139FM-15+148199999V0209999N999999999999N007000599+01905+01705999999ADDMA1102305999999REMMET063METAR HRYR 110700Z VR02KT 7000 SCT025 BKN100 19/17 Q1023 NOSIG=EQDD01      0ADE693
0113643870999992020011108004-01969+030139FM-15+148199999V0209999N999999999999N011265599+02005+01605999999ADDMA1102205999999REMMET067METAR COR HRYR 110800Z VR02KT 9999 SCT025 BKN090 20/16 Q1022 NOSIG=EQDD01      0ADE693
0109643870999992020011109004-01969+030139FM-15+148199999V0209999N999999999999N011265599+02105+01605999999ADDMA1102205999999REMMET063METAR HRYR 110900Z VR02KT 9999 SCT025 BKN090 21/16 Q1022 NOSIG=EQDD01      0ADE693
0171643870999992020011110004-01969+030139FM-15+148199999V0201801N001510274319N009999199+02101+01601999999ADDGA1041+007621999GA2071+027431999GE19MSL   +99999+99999GF199999041999007621999999MA1102101999999REMMET064METAR HRYR 111000Z 18003KT 9999 SCT025 BKN090 21/16 Q1021 NOSIG=
0171643870999992020011111004-01969+030139FM-15+148199999V0201801N002110304819N009999199+02101+01701999999ADDGA1041+007321999GA2071+030481999GE19MSL   +99999+99999GF199999041999007321999999MA1102001999999REMMET064METAR HRYR 111100Z 18004KT 9999 SCT024 BKN100 21/17 Q1020 NOSIG=
0200643870999992020011112004-01967+030117FM-12+149199999V0209999C00001030001CN010000199+02261+01651999999ADDGA1031+007501081GA2051+030001031GE19MSL   +99999+99999GF108991031999007501999999MA1999999085181MD1999999+0001ME1315129REMSYN07064387 32560 80000 10226 20165 38518 48512 8323/ 333 58000 83825 85360=
0109643870999992020011113004-01969+030139FM-15+148199999V0209999N999999999999N011265599+02405+01605999999ADDMA1101805999999REMMET063METAR HRYR 111300Z VR02KT 9999 SCT024 BKN100 24/16 Q1018 NOSIG=EQDD01      0ADE592
0171643870999992020011204004-01969+030139FM-15+148199999V0202301N00151030481CN008000199+01601+01501999999ADDGA1021+007011999GA2041+030481999GE19MSL   +99999+99999GF199999021999007011999999MA1102101999999REMMET064METAR HRYR 120400Z 23003KT 8000 FEW023 SCT100 16/15 Q1021 NOSIG=
0180643870999992020011205004-01969+030139FM-15+148199999V0200801N00151007011CN003000199+01701+01601999999ADDGA1021+003051999GA2021+007011999GE19MSL   +99999+99999GF199999021999003051999999MA1102201999999MW1101REMMET067METAR HRYR 120500Z 08003KT 3000 BR FEW010 FEW023 17/16 Q1022 NOSIG=
0286643870999992020011206004-01967+030117FM-12+149199999V0209999C00001030001CN004000199+01791+01641999999ADDAY121021AY231021GA1031+002401071GA2031+030001031GA3051+030001031GE19MSL   +99999+99999GF108991031999002401999999KA1240M+02391KA2240N+01621MA1999999085411ME1315399MW1101REMSYN10664387 32440 80000 10179 20164 38541 48539 71023 8573/ 333 01300 10239 20162 50204 59002 83708 83360 85360=
0203643870999992020011206004-01969+030139FM-15+148199999V0209999C00001007011CN004000199+01801+01601999999ADDGA1021+002441999GA2041+007011999GA3071+030481999GE19MSL   +99999+99999GF199999021999002441999999MA1102301999999MW1101REMMET074METAR HRYR 120600Z 00000KT 4000 BR FEW008 SCT023 BKN100 18/16 Q1023 NOSIG=
0171643870999992020011207004-01969+030139FM-15+148199999V0209999C00001007011CN008000199+02101+01701999999ADDGA1021+003051999GA2041+007011999GE19MSL   +99999+99999GF199999021999003051999999MA1102401999999REMMET064METAR HRYR 120700Z 00000KT 8000 FEW010 SCT023 21/17 Q1024 NOSIG=
0171643870999992020011208004-01969+030139FM-15+148199999V0209999C00001007011CN008000199+02101+01701999999ADDGA1021+003051999GA2041+007011999GE19MSL   +99999+99999GF199999021999003051999999MA1102301999999REMMET064METAR HRYR 120800Z 00000KT 8000 FEW010 SCT023 21/17 Q1023 NOSIG=
0148643870999992020011209004-01969+030139FM-15+148199999V0201001N00151007011CN008000199+02401+01801999999ADDGA1071+007011999GE19MSL   +99999+99999GF199999071999007011999999MA1102301999999REMMET057METAR HRYR 120900Z 10003KT 8000 BKN023 24/18 Q1023 NOSIG=
0148643870999992020011210004-01969+030139FM-15+148199999V0201201N00311007011CN009999199+02401+01801999999ADDGA1071+007011999GE19MSL   +99999+99999GF199999071999007011999999MA1102201999999REMMET057METAR HRYR 121000Z 12006KT 9999 BKN023 24/18 Q1022 NOSIG=
0179643870999992020011211004-01969+030139FM-15+148199999V0200301N003110070119N009999199+02401+01701999999ADDGA1021+007011091GA2071+007011999GE19MSL   +99999+99999GF199999021999007011999999MA1102201999999REMMET072METAR HRYR 121100Z 03006KT 9999 FEW023CB BKN023 24/17 Q10220 BECMG TSRA=
0212643870999992020011212004-01967+030117FM-12+149199999V0200401N00461007501CN010000199+02151+01401999999ADDGA1021+006001091GA2051+007501081GE19MSL   +99999+99999GF107991021999006001999999MA1999999085201MD1999999+0021ME1315149REMSYN08264387 32560 70409 10215 20140 38520 48514 8693/ 333 58002 82920 85825 94974 94973=
0174643870999992020011212004-01969+030139FM-15+148199999V0200401N004610076219N009999199+02201+01401999999ADDGA1021+006711091GA2071+007621999GE19MSL   +99999+99999GF199999021999006711999999MA1102201999999REMMET067METAR HRYR 121200Z 04009KT 9999 FEW022CB BKN025 22/14 Q10220 NOSIG=
0173643870999992020011213004-01969+030139FM-15+148199999V0200701N005710070119N009999199+02001+01601999999ADDGA1021+006711091GA2071+007011999GE19MSL   +99999+99999GF199999021999006711999999MA1102001999999REMMET066METAR HRYR 121300Z 07011KT 9999 FEW022CB BKN023 20/16 Q1020 NOSIG=
0182643870999992020011214004-01969+030139FM-15+148199999V0200501N004610070119N009999199+01901+01601999999ADDGA1021+006101091GA2071+007011999GE19MSL   +99999+99999GF199999021999006101999999MA1102001999999MW1631REMMET069METAR HRYR 121400Z 05009KT 9999 RA FEW020CB BKN023 19/16 Q1020 NOSIG=
0270643870999992020011215004-01967+030117FM-12+149199999V0209999C00001007501CN010000199+01901+01691999999ADDAA103030031AY191021AY261021GA1011+006001091GA2051+007501081GE19MSL   +99999+99999GF107991011999006001999999KA1240M+02481MA1999999085231MD1999999+0171ME1314179MW1611REMSYN09464387 21560 70000 10190 20169 38523 48417 76196 8693/ 333 10248 58017 60307 81920 85825 94961=
0182643870999992020011215004-01969+030139FM-15+148199999V0209999C000010070119N009999199+01901+01701999999ADDGA1021+006101091GA2071+007011999GE19MSL   +99999+99999GF199999021999006101999999MA1102201999999MW1631REMMET069METAR HRYR 121500Z 00000KT 9999 RA FEW020CB BKN023 19/17 Q1022 NOSIG=
0201643870999992020011216304-01969+030139FM-15+148199999V0201901N00311006101CN009999199+01701+01601999999ADDGA1021+004571999GA2021+006101091GA3071+007011999GE19MSL   +99999+99999GF199999021999004571999999MA1102101999999REMMET078METAR HRYR 121630Z 19006KT 9999 FEW015 FEW020CB BKN023 17/16 Q1021 RERA NOSIG=
0194643870999992020011217004-01969+030139FM-15+148199999V0201901N00261007011CN009999199+01701+01601999999ADDGA1021+004571999GA2041+007011999GA3071+030481999GE19MSL   +99999+99999GF199999021999004571999999MA1102101999999REMMET071METAR HRYR 121700Z 19005KT 9999 FEW015 SCT023 BKN100 17/16 Q1021 NOSIG=
0171643870999992020011217304-01969+030139FM-15+148199999V0209999V001010304819N009999199+01701+01601999999ADDGA1041+007011999GA2071+030481999GE19MSL   +99999+99999GF199999041999007011999999MA1102201999999REMMET064METAR HRYR 121730Z VRB02KT 9999 SCT023 BKN100 17/16 Q1022 NOSIG=
0171643870999992020011218004-01969+030139FM-15+148199999V0201601N002610304819N009999199+01701+01501999999ADDGA1041+007011999GA2071+030481999GE19MSL   +99999+99999GF199999041999007011999999MA1102201999999REMMET064METAR HRYR 121800Z 16005KT 9999 SCT023 BKN100 17/15 Q1022 NOSIG=
0179643870999992020011218304-01969+030139FM-15+148199999V0201701V00151030481CN009999199+01601+01501999999ADDGA1041+007011999GA2041+030481999GE19MSL   +99999+99999GF199999041999007011999999MA1102201999999REMMET072METAR HRYR 121830Z 17003KT 140V200 9999 SCT023 SCT100 16/15 Q1022 NOSIG=
0171643870999992020011219004-01969+030139FM-15+148199999V0201701N00361030481CN009999199+01601+01501999999ADDGA1041+007011999GA2041+030481999GE19MSL   +99999+99999GF199999041999007011999999MA1102201999999REMMET064METAR HRYR 121900Z 17007KT 9999 SCT023 SCT100 16/15 Q1022 NOSIG=
0194643870999992020011219304-01969+030139FM-15+148199999V0201701N00261007011CN009999199+01601+01601999999ADDGA1021+004571999GA2041+007011999GA3071+030481999GE19MSL   +99999+99999GF199999021999004571999999MA1102201999999REMMET071METAR HRYR 121930Z 17005KT 9999 FEW015 SCT023 BKN100 16/16 Q1022 NOSIG=
0194643870999992020011220004-01969+030139FM-15+148199999V0209999C00001007011CN009999199+01601+01601999999ADDGA1021+004571999GA2041+007011999GA3071+030481999GE19MSL   +99999+99999GF199999021999004571999999MA1102301999999REMMET071METAR HRYR 122000Z 00000KT 9999 FEW015 SCT023 BKN100 16/16 Q1023 NOSIG=
0194643870999992020011220304-01969+030139FM-15+148199999V0200601N00151007011CN008000199+01601+01601999999ADDGA1021+004571999GA2041+007011999GA3071+030481999GE19MSL   +99999+99999GF199999021999004571999999MA1102301999999REMMET071METAR HRYR 122030Z 06003KT 8000 FEW015 SCT023 BKN100 16/16 Q1023 NOSIG=
0194643870999992020011221004-01969+030139FM-15+148199999V0209999V00051007011CN008000199+01601+01601999999ADDGA1021+004571999GA2041+007011999GA3071+030481999GE19MSL   +99999+99999GF199999021999004571999999MA1102301999999REMMET071METAR HRYR 122100Z VRB01KT 8000 FEW015 SCT023 BKN100 16/16 Q1023 NOSIG=
0208643870999992020011221304-01969+030139FM-15+148199999V0209999V00101007011CN005000199+01601+01601999999ADDGA1021+004571999GA2041+007011999GA3071+030481999GE19MSL   +99999+99999GF199999021999004571999999MA1102201999999MW1101REMMET079METAR HRYR 122130Z VRB02KT 5000 BR FEW015 SCT023 BKN100 16/16 Q1022 BECMG 3000=
0203643870999992020011222004-01969+030139FM-15+148199999V0209999V00101007011CN005000199+01601+01601999999ADDGA1021+004571999GA2041+007011999GA3071+030481999GE19MSL   +99999+99999GF199999021999004571999999MA1102201999999MW1101REMMET074METAR HRYR 122200Z VRB02KT 5000 BR FEW015 SCT023 BKN100 16/16 Q1022 NOSIG=
0203643870999992020011222304-01969+030139FM-15+148199999V0201201N00151007011CN005000199+01601+01601999999ADDGA1021+004571999GA2041+007011999GA3071+030481999GE19MSL   +99999+99999GF199999021999004571999999MA1102201999999MW1101REMMET074METAR HRYR 122230Z 12003KT 5000 BR FEW015 SCT023 BKN100 16/16 Q1022 NOSIG=
0203643870999992020011223004-01969+030139FM-15+148199999V0209999C00001007011CN006000199+01601+01601999999ADDGA1021+004571999GA2041+007011999GA3071+030481999GE19MSL   +99999+99999GF199999021999004571999999MA1102201999999MW1101REMMET074METAR HRYR 122300Z 00000KT 6000 BR FEW015 SCT023 BKN100 16/16 Q1022 NOSIG=
0204643870999992020011223304-01969+030139FM-15+148199999V0203601N002110070119N006000199+01601+01601999999ADDGA1021+004571999GA2071+007011999GA3071+030481999GE19MSL   +99999+99999GF199999021999004571999999MA1102101999999MW1611REMMET075METAR HRYR 122330Z 36004KT 6000 -RA FEW015 BKN023 BKN100 16/16 Q1021 NOSIG=
0203643870999992020011300004-01969+030139FM-15+148199999V0200101N002110070119N006000199+01601+01601999999ADDGA1021+004571999GA2071+007011999GA3071+030481999GE19MSL   +99999+99999GF199999021999004571999999MA1102101999999MW1631REMMET074METAR HRYR 130000Z 01004KT 6000 RA FEW015 BKN023 BKN100 16/16 Q1021 NOSIG=
0194643870999992020011300304-01969+030139FM-15+148199999V0203501N001510070119N006000199+01601+01601999999ADDGA1021+004571999GA2071+007011999GA3071+030481999GE19MSL   +99999+99999GF199999021999004571999999MA1102101999999REMMET071METAR HRYR 130030Z 35003KT 6000 FEW015 BKN023 BKN100 16/16 Q1021 NOSIG=
0194643870999992020011301004-01969+030139FM-15+148199999V0209999V001010070119N006000199+01601+01601999999ADDGA1021+004571999GA2071+007011999GA3071+030481999GE19MSL   +99999+99999GF199999021999004571999999MA1102001999999REMMET071METAR HRYR 130100Z VRB02KT 6000 FEW015 BKN023 BKN100 16/16 Q1020 NOSIG=
0203643870999992020011301304-01969+030139FM-15+148199999V0209999V001010070119N005000199+01601+01601999999ADDGA1021+004571999GA2071+007011999GA3071+030481999GE19MSL   +99999+99999GF199999021999004571999999MA1102001999999MW1101REMMET074METAR HRYR 130130Z VRB02KT 5000 BR FEW015 BKN023 BKN100 16/16 Q1020 NOSIG=
0204643870999992020011302004-01969+030139FM-15+148199999V0203101N001510070119N006000199+01601+01601999999ADDGA1021+004571999GA2071+007011999GA3071+030481999GE19MSL   +99999+99999GF199999021999004571999999MA1102001999999MW1611REMMET075METAR HRYR 130200Z 31003KT 6000 -RA FEW015 BKN023 BKN100 16/16 Q1020 NOSIG=
0203643870999992020011302304-01969+030139FM-15+148199999V0203101N001510070119N005000199+01701+01701999999ADDGA1021+003051999GA2071+007011999GA3041+030481999GE19MSL   +99999+99999GF199999021999003051999999MA1102101999999MW1101REMMET074METAR HRYR 130230Z 31003KT 5000 BR FEW010 BKN023 SCT100 17/17 Q1021 NOSIG=
0203643870999992020011303004-01969+030139FM-15+148199999V0203501N002110070119N004000199+01601+01601999999ADDGA1021+003051999GA2071+007011999GA3041+030481999GE19MSL   +99999+99999GF199999021999003051999999MA1102101999999MW1931REMMET074METAR HRYR 130300Z 35004KT 4000 GR FEW010 BKN023 SCT100 16/16 Q1021 NOSIG=
0203643870999992020011303304-01969+030139FM-15+148199999V0209999V001010070119N004000199+01601+01601999999ADDGA1021+003051999GA2071+007011999GA3041+030481999GE19MSL   +99999+99999GF199999021999003051999999MA1102101999999MW1101REMMET074METAR HRYR 130330Z VRB02KT 4000 BR FEW010 BKN023 SCT100 16/16 Q1021 NOSIG=
0203643870999992020011304004-01969+030139FM-15+148199999V0201601N002110070119N002600199+01601+01601999999ADDGA1021+002441999GA2071+007011999GA3071+030481999GE19MSL   +99999+99999GF199999021999002441999999MA1102101999999MW1101REMMET074METAR HRYR 130400Z 16004KT 2600 BR FEW008 BKN023 BKN100 16/16 Q1021 NOSIG=
0207643870999992020011305004-01969+030139FM-15+148199999V0201601N001510070119N003000199+01701+01701999999ADDGA1021+002441999GA2071+007011999GA3071+030481999GE19MSL   +99999+99999GF199999021999002441999999MA1102201999999MW1101REMMET078METAR COR HRYR 130500Z 16003KT 3000 BR FEW008 BKN023 BKN100 17/17 Q1022 NOSIG=
0180643870999992020011305304-01969+030139FM-15+148199999V0209999V001010070119N004000199+01701+01701999999ADDGA1021+002441999GA2071+007011999GE19MSL   +99999+99999GF199999021999002441999999MA1102201999999MW1101REMMET067METAR HRYR 130530Z VRB02KT 4000 BR FEW008 BKN023 17/17 Q1022 NOSIG=
0281643870999992020011306004-01967+030117FM-12+149199999V0201201N001019999999N005000199+01781+01651999999ADDAA124003031AY161021AY221021GA1011+002401071GA2041+006901081GE19MSL   +99999+99999GF107991011999002401999999KA1240M+02381KA2240N+01621MA1999999085441ME1315389MW1101REMSYN10664387 11350 71202 10178 20165 38544 48538 60034 71062 85230 333 01355 10238 20162 50174 58005 81708 84823=
0208643870999992020011306004-01969+030139FM-15+148199999V0209999V00101007011CN005000199+01801+01701999999ADDGA1021+002441999GA2041+007011999GA3041+030481999GE19MSL   +99999+99999GF199999021999002441999999MA1102301999999MW1101REMMET079METAR HRYR 130600Z VRB02KT 5000 BR FEW008 SCT023 SCT100 18/17 Q1023 BECMG 7000=
0171643870999992020011307004-01969+030139FM-15+148199999V0209999V001010070119N006000199+01901+01701999999ADDGA1021+003051999GA2071+007011999GE19MSL   +99999+99999GF199999021999003051999999MA1102301999999REMMET064METAR HRYR 130700Z VRB02KT 6000 FEW010 BKN023 19/17 Q1023 NOSIG=
0171643870999992020011307304-01969+030139FM-15+148199999V0209999V001010070119N006000199+01901+01701999999ADDGA1021+003051999GA2071+007011999GE19MSL   +99999+99999GF199999021999003051999999MA1102301999999REMMET064METAR HRYR 130730Z VRB02KT 6000 FEW010 BKN023 19/17 Q1023 NOSIG=
0171643870999992020011308004-01969+030139FM-15+148199999V0209999C000010304819N007000199+02001+01601999999ADDGA1041+007011999GA2071+030481999GE19MSL   +99999+99999GF199999041999007011999999MA1102201999999REMMET064METAR HRYR 130800Z 00000KT 7000 SCT023 BKN100 20/16 Q1022 NOSIG=
0171643870999992020011308304-01969+030139FM-15+148199999V0209999V001010304819N009000199+02101+01601999999ADDGA1041+007011999GA2071+030481999GE19MSL   +99999+99999GF199999041999007011999999MA1102201999999REMMET064METAR HRYR 130830Z VRB02KT 9000 SCT023 BKN100 21/16 Q1022 NOSIG=
