0118712230999992020010100004+51933-110700FM-12+077299999V0202501N004119999999N999999999-00291-00601999999ADDAA106000091AA224000091KA1120M+00081KA2120N-00901REMSYN05871223 16/// /2508 11029 21060 60001 333 10008 21090 70000=
0058712230999992020010100004+51930-110720SAO  +077299999V020250190041199999999999999999-00291-00601999999REMAWY049XCS SA 0000 AUTO8 M M M M/-03/-06/2508/M/ M 90MM=
0058712230999992020010101004+51930-110720SAO  +077299999V020270190026199999999999999999-00211-00681999999REMAWY049XCS SA 0100 AUTO8 M M M M/-02/-07/2705/M/ M 18MM=
0058712230999992020010102004+51930-110720SAO  +077299999V020300190041199999999999999999-00151-00621999999REMAWY049XCS SA 0200 AUTO8 M M M M/-02/-06/3008/M/ M 52MM=
0063712230999992020010103004+51933-110700FM-12+077299999V0202701N002619999999N999999999-00321-00651999999ADDAA103000091REMSYN04071223 26/// /2705 11032 21065 333 60007=
0058712230999992020010103004+51930-110720SAO  +077299999V020270190026199999999999999999-00321-00551999999REMAWY049XCS SA 0300 AUTO8 M M M M/-03/-06/2705/M/ M 25MM=
0058712230999992020010104004+51930-110720SAO  +077299999V020250190026199999999999999999-00431-00671999999REMAWY049XCS SA 0400 AUTO8 M M M M/-04/-07/2505/M/ M 37MM=
0058712230999992020010105004+51930-110720SAO  +077299999V020230190041199999999999999999-00391-00631999999REMAWY049XCS SA 0500 AUTO8 M M M M/-04/-06/2308/M/ M 93MM=
0134712230999992020010106004+51933-110700FM-12+077299999V0202801N004119999999N999999999-00421-00751999999ADDAA106000091AA224000091KA1240M+00081KA2240N-00901REMSYN07471223 16/// /2808 11042 21075 60001 333 10008 21090 70000 555 32321 40071=
0058712230999992020010106004+51930-110720SAO  +077299999V020280190041199999999999999999-00421-00751999999REMAWY049XCS SA 0600 AUTO8 M M M M/-04/-08/2808/M/ M 25MM=
0058712230999992020010107004+51930-110720SAO  +077299999V020300190041199999999999999999-00311-00641999999REMAWY049XCS SA 0700 AUTO8 M M M M/-03/-06/3008/M/ M 14MM=
0058712230999992020010108004+51930-110720SAO  +077299999V020310190041199999999999999999-00251-00641999999REMAWY049XCS SA 0800 AUTO8 M M M M/-03/-06/3108/M/ M 54MM=
0063712230999992020010109004+51933-110700FM-12+077299999V0203101N002619999999N999999999-00261-00591999999ADDAA103000091REMSYN04071223 26/// /3105 11026 21059 333 60007=
0058712230999992020010109004+51930-110720SAO  +077299999V020310190026199999999999999999-00251-00591999999REMAWY049XCS SA 0900 AUTO8 M M M M/-03/-06/3105/M/ M 59MM=
0058712230999992020010110004+51930-110720SAO  +077299999V020260190021199999999999999999-00171-00441999999REMAWY049XCS SA 1000 AUTO8 M M M M/-02/-04/2604/M/ M 74MM=
0058712230999992020010111004+51930-110720SAO  +077299999V020290190021199999999999999999-00031-00431999999REMAWY049XCS SA 1100 AUTO8 M M M M/00/-04/2904/M/ M -33MM=
0118712230999992020010112004+51933-110700FM-12+077299999V0202801N002619999999N999999999-00071-00401999999ADDAA106000091AA224000091KA1240M+00081KA2240N-00501REMSYN05871223 16/// /2805 11007 21040 60001 333 10008 21050 70000=
0058712230999992020010112004+51930-110720SAO  +077299999V020280190026199999999999999999-00071-00401999999REMAWY049XCS SA 1200 AUTO8 M M M M/-01/-04/2805/M/ M 70MM=
0058712230999992020010113004+51930-110720SAO  +077299999V020300190036199999999999999999-00101-00401999999REMAWY049XCS SA 1300 AUTO8 M M M M/-01/-04/3007/M/ M 00MM=
0057712230999992020010114004+51930-110720SAO  +077299999V020290190046199999999999999999+00091-00361999999REMAWY048XCS SA 1400 AUTO8 M M M M/01/-04/2909/M/ M 96MM=
0063712230999992020010115004+51933-110700FM-12+077299999V0203101N003619999999N999999999-00061-00241999999ADDAA103000091REMSYN04071223 26/// /3107 11006 21024 333 60007=
0058712230999992020010115004+51930-110720SAO  +077299999V020310190036199999999999999999-00061-00241999999REMAWY049XCS SA 1500 AUTO8 M M M M/-01/-02/3107/M/ M 64MM=
0057712230999992020010116004+51930-110720SAO  +077299999V020310190041199999999999999999+00021-00081999999REMAWY048XCS SA 1600 AUTO8 M M M M/00/-01/3108/M/ M 28MM=
0094712230999992020010117004+51930-110720SAO  +077299999V020300190036199999999999999999+00041-00031999999ADDAA101000831REMAWY071XCS SA 1700 AUTO8 M M M M/00/00/3007/M/0008 PCPN 0.8MM PAST HR M 4-3MM=
0132712230999992020010118004+51933-110700FM-12+077299999V0202901N004619999999N999999999+00041-00031999999ADDAA106001031AA224001331AZ141021KA1120M+00101KA2120N-00581REMSYN06471223 17/// /2909 10004 21003 60011 7//4/ 333 10010 21058 70013=
0094712230999992020010118004+51930-110720SAO  +077299999V020290190046199999999999999999+00041-00031999999ADDAA101000531REMAWY071XCS SA 1800 AUTO8 M M M M/00/00/2909/M/0013 PCPN 0.5MM PAST HR M 4-3MM=
0057712230999992020010119004+51930-110720SAO  +077299999V020290190051199999999999999999+00041-00031999999REMAWY048XCS SA 1900 AUTO8 M M M M/00/00/2910/M/ M 4-3MM=
0057712230999992020010120004+51930-110720SAO  +077299999V020280190057199999999999999999+00031-00061999999REMAWY048XCS SA 2000 AUTO8 M M M M/00/-01/2811/M/ M 36MM=
0063712230999992020010121004+51933-110700FM-12+077299999V0203001N007219999999N999999999+00011-00101999999ADDAA103000091REMSYN04071223 26/// /3014 10001 21010 333 60007=
0092712230999992020010121004+51930-110720SAO  +077299999V020300190072199999999999999999+00011-00101999999ADDOD130101031300REMAWY066XCS SA 2100 AUTO8 M M M M/00/-01/3014/M/ PK WND 3020 2034Z M 10MM=
0058712230999992020010122004+51930-110720SAO  +077299999V020280190057199999999999999999-00081-00201999999REMAWY049XCS SA 2200 AUTO8 M M M M/-01/-02/2811/M/ M 80MM=
0058712230999992020010123004+51930-110720SAO  +077299999V020290190057199999999999999999-00211-00361999999REMAWY049XCS SA 2300 AUTO8 M M M M/-02/-04/2911/M/ M 16MM=
0118712230999992020010200004+51933-110700FM-12+077299999V0203001N005719999999N999999999-00391-00541999999ADDAA106000091AA224001331KA1120M+00101KA2120N-00461REMSYN05871223 16/// /3011 11039 21054 60001 333 10010 21046 70013=
0058712230999992020010200004+51930-110720SAO  +077299999V020300190057199999999999999999-00391-00541999999REMAWY049XCS SA 0000 AUTO8 M M M M/-04/-05/3011/M/ M 94MM=
0058712230999992020010201004+51930-110720SAO  +077299999V020300190046199999999999999999-00401-00541999999REMAWY049XCS SA 0100 AUTO8 M M M M/-04/-05/3009/M/ M 04MM=
0058712230999992020010202004+51930-110720SAO  +077299999V020280190051199999999999999999-00481-00631999999REMAWY049XCS SA 0200 AUTO8 M M M M/-05/-06/2810/M/ M 83MM=
0063712230999992020010203004+51933-110700FM-12+077299999V0202901N005119999999N999999999-00641-00751999999ADDAA103000091REMSYN04071223 26/// /2910 11064 21075 333 60007=
0058712230999992020010203004+51930-110720SAO  +077299999V020290190051199999999999999999-00641-00751999999REMAWY049XCS SA 0300 AUTO8 M M M M/-06/-08/2910/M/ M 45MM=
0058712230999992020010204004+51930-110720SAO  +077299999V020300190041199999999999999999-00601-00701999999REMAWY049XCS SA 0400 AUTO8 M M M M/-06/-07/3008/M/ M 00MM=
0058712230999992020010205004+51930-110720SAO  +077299999V020220190046199999999999999999-01161-01321999999REMAWY049XCS SA 0500 AUTO8 M M M M/-12/-13/2209/M/ M 62MM=
0134712230999992020010206004+51933-110700FM-12+077299999V0202401N004119999999N999999999-01161-01341999999ADDAA106000091AA224001331KA1240M+00101KA2240N-01181REMSYN07471223 16/// /2408 11116 21134 60001 333 10010 21118 70013 555 33020 40211=
0058712230999992020010206004+51930-110720SAO  +077299999V020240190041199999999999999999-01161-01341999999REMAWY049XCS SA 0600 AUTO8 M M M M/-12/-13/2408/M/ M 64MM=
0058712230999992020010207004+51930-110720SAO  +077299999V020280190021199999999999999999-00961-01121999999REMAWY049XCS SA 0700 AUTO8 M M M M/-10/-11/2804/M/ M 62MM=
0058712230999992020010208004+51930-110720SAO  +077299999V020250190015199999999999999999-01061-01151999999REMAWY049XCS SA 0800 AUTO8 M M M M/-11/-12/2503/M/ M 65MM=
0063712230999992020010209004+51933-110700FM-12+077299999V0202101N002119999999N999999999-01091-01271999999ADDAA103000091REMSYN04071223 26/// /2104 11109 21127 333 60007=
0058712230999992020010209004+51930-110720SAO  +077299999V020220190021199999999999999999-01081-01271999999REMAWY049XCS SA 0900 AUTO8 M M M M/-11/-13/2204/M/ M 87MM=
0058712230999992020010210004+51930-110720SAO  +077299999V020270190026199999999999999999-00901-01061999999REMAWY049XCS SA 1000 AUTO8 M M M M/-09/-11/2705/M/ M 06MM=
0058712230999992020010211004+51930-110720SAO  +077299999V020250190015199999999999999999-00791-00941999999REMAWY049XCS SA 1100 AUTO8 M M M M/-08/-09/2503/M/ M 94MM=
0118712230999992020010212004+51933-110700FM-12+077299999V0202601N001019999999N999999999-00781-00931999999ADDAA106000091AA224001331KA1240M+00101KA2240N-01181REMSYN05871223 16/// /2602 11078 21093 60001 333 10010 21118 70013=
0058712230999992020010212004+51930-110720SAO  +077299999V020260190010199999999999999999-00781-00931999999REMAWY049XCS SA 1200 AUTO8 M M M M/-08/-09/2602/M/ M 83MM=
0058712230999992020010213004+51930-110720SAO  +077299999V020250190015199999999999999999-00651-00781999999REMAWY049XCS SA 1300 AUTO8 M M M M/-07/-08/2503/M/ M 58MM=
0095712230999992020010214004+51930-110720SAO  +077299999V020280190046199999999999999999-00251-00431999999ADDAA101000831REMAWY072XCS SA 1400 AUTO8 M M M M/-03/-04/2809/M/0008 PCPN 0.8MM PAST HR M 53MM=
0077712230999992020010215004+51933-110700FM-12+077299999V0203501N010819999999N999999999-00171-00241999999ADDAA103000831AZ141021REMSYN04671223 27/// /3521 11017 21024 7//4/ 333 69987=
0097712230999992020010215004+51930-110720SAO  +077299999V020350190108199999999999999999-00171-00241999999ADDOD130101491340REMAWY071XCS SA 1500 AUTO8 M M M M/-02/-02/3521/M/0008 PK WND 3429 1443Z M 74MM=
0097712230999992020010216004+51930-110720SAO  +077299999V020340190098199999999999999999-00181-00361999999ADDOD130101541350REMAWY071XCS SA 1600 AUTO8 M M M M/-02/-04/3419/M/0008 PK WND 3530 1536Z M 86MM=
0097712230999992020010217004+51930-110720SAO  +077299999V020320190062199999999999999999-00181-00431999999ADDOD130101081350REMAWY071XCS SA 1700 AUTO8 M M M M/-02/-04/3212/M/0008 PK WND 3521 1600Z M 83MM=
0132712230999992020010218004+51933-110700FM-12+077299999V0203401N011319999999N999999999-00191-00861999999ADDAA106000831AA224000831AZ141021KA1120M-00161KA2120N-01181REMSYN06471223 17/// /3422 11019 21086 69981 7//4/ 333 11016 21118 70008=
0097712230999992020010218004+51930-110720SAO  +077299999V020340190113199999999999999999-00191-00861999999ADDOD130101851310REMAWY071XCS SA 1800 AUTO8 M M M M/-02/-09/3422/M/0008 PK WND 3136 1734Z M 96MM=
0093712230999992020010219004+51930-110720SAO  +077299999V020320190082199999999999999999-00151-01151999999ADDOD130101391340REMAWY067XCS SA 1900 AUTO8 M M M M/-02/-12/3216/M/ PK WND 3427 1813Z M 55MM=
0093712230999992020010220004+51930-110720SAO  +077299999V020320190087199999999999999999-00201-01391999999ADDOD130101541320REMAWY067XCS SA 2000 AUTO8 M M M M/-02/-14/3217/M/ PK WND 3230 1936Z M 09MM=
0063712230999992020010221004+51933-110700FM-12+077299999V0203101N008819999999N999999999-00321-01331999999ADDAA103000091REMSYN04071223 26/// /3117 11032 21133 333 60007=
0093712230999992020010221004+51930-110720SAO  +077299999V020310190087199999999999999999-00321-01331999999ADDOD130101341310REMAWY067XCS SA 2100 AUTO8 M M M M/-03/-13/3117/M/ PK WND 3126 2012Z M 23MM=
0093712230999992020010222004+51930-110720SAO  +077299999V020280190072199999999999999999-00401-01291999999ADDOD130100871300REMAWY067XCS SA 2200 AUTO8 M M M M/-04/-13/2814/M/ PK WND 3017 2100Z M 09MM=
0093712230999992020010223004+51930-110720SAO  +077299999V020280190093199999999999999999-00501-01231999999ADDOD130101081280REMAWY067XCS SA 2300 AUTO8 M M M M/-05/-12/2818/M/ PK WND 2821 2259Z M 03MM=
0075712230999992020010300004+51937-110858FM-12+077299999V0202691N0079199999999999999999-00671-01261999999ADDAA101999999AA206999999AA324000431KA1120M-00101KA2180N-01161REMSYN004BUFR
0093712230999992020010300004+51930-110720SAO  +077299999V020270190082199999999999999999-00671-01261999999ADDOD130101031270REMAWY067XCS SA 0000 AUTO8 M M M M/-07/-13/2716/M/ PK WND 2720 2303Z M 76MM=
0093712230999992020010301004+51930-110720SAO  +077299999V020270190093199999999999999999-00721-01311999999ADDOD130101081270REMAWY067XCS SA 0100 AUTO8 M M M M/-07/-13/2718/M/ PK WND 2721 0036Z M 21MM=
0093712230999992020010302004+51930-110720SAO  +077299999V020270190098199999999999999999-00641-01161999999ADDOD130101131270REMAWY067XCS SA 0200 AUTO8 M M M M/-06/-12/2719/M/ PK WND 2722 0154Z M 46MM=
0063712230999992020010303004+51933-110700FM-12+077299999V0202701N010319999999N999999999-00521-01251999999ADDAA103000091REMSYN04071223 26/// /2720 11052 21125 333 60007=
0093712230999992020010303004+51930-110720SAO  +077299999V020270190103199999999999999999-00521-01151999999ADDOD130101231260REMAWY067XCS SA 0300 AUTO8 M M M M/-05/-12/2720/M/ PK WND 2624 0214Z M 25MM=
0093712230999992020010304004+51930-110720SAO  +077299999V020280190093199999999999999999-00681-01351999999ADDOD130101341270REMAWY067XCS SA 0400 AUTO8 M M M M/-07/-14/2818/M/ PK WND 2726 0310Z M 85MM=
0093712230999992020010305004+51930-110720SAO  +077299999V020280190093199999999999999999-00621-01301999999ADDOD130101081270REMAWY067XCS SA 0500 AUTO8 M M M M/-06/-13/2818/M/ PK WND 2721 0450Z M 20MM=
0134712230999992020010306004+51933-110700FM-12+077299999V0202801N008219999999N999999999-00601-01231999999ADDAA106000091AA224000831KA1240M-00101KA2240N-01161REMSYN07471223 16/// /2816 11060 21123 60001 333 11010 21116 70008 555 33136 40182=
0093712230999992020010306004+51930-110720SAO  +077299999V020280190082199999999999999999-00601-01231999999ADDOD130101181280REMAWY067XCS SA 0600 AUTO8 M M M M/-06/-12/2816/M/ PK WND 2823 0511Z M 03MM=
0093712230999992020010307004+51930-110720SAO  +077299999V020280190087199999999999999999-00591-01151999999ADDOD130101081280REMAWY067XCS SA 0700 AUTO8 M M M M/-06/-12/2817/M/ PK WND 2821 0612Z M 95MM=
0093712230999992020010308004+51930-110720SAO  +077299999V020290190062199999999999999999-00591-01071999999ADDOD130101031270REMAWY067XCS SA 0800 AUTO8 M M M M/-06/-11/2912/M/ PK WND 2720 0711Z M 97MM=
0063712230999992020010309004+51933-110700FM-12+077299999V0202901N004619999999N999999999-00871-01311999999ADDAA103000091REMSYN04071223 26/// /2909 11087 21131 333 60007=
0093712230999992020010309004+51930-110720SAO  +077299999V020290190046199999999999999999-00871-01311999999ADDOD130100931300REMAWY067XCS SA 0900 AUTO8 M M M M/-09/-13/2909/M/ PK WND 3018 0804Z M 71MM=
0058712230999992020010310004+51930-110720SAO  +077299999V020280190062199999999999999999-00981-01401999999REMAWY049XCS SA 1000 AUTO8 M M M M/-10/-14/2812/M/ M 80MM=
0058712230999992020010311004+51930-110720SAO  +077299999V020300190062199999999999999999-01001-01351999999REMAWY049XCS SA 1100 AUTO8 M M M M/-10/-14/3012/M/ M 05MM=
0118712230999992020010312004+51933-110700FM-12+077299999V0203001N003619999999N999999999-01101-01491999999ADDAA106000091AA224000831KA1240M-00101KA2240N-01151REMSYN05871223 16/// /3007 11110 21149 60001 333 11010 21115 70008=
0058712230999992020010312004+51930-110720SAO  +077299999V020300190036199999999999999999-01101-01491999999REMAWY049XCS SA 1200 AUTO8 M M M M/-11/-15/3007/M/ M 09MM=
0058712230999992020010313004+51930-110720SAO  +077299999V020220190026199999999999999999-01171-01511999999REMAWY049XCS SA 1300 AUTO8 M M M M/-12/-15/2205/M/ M 71MM=
0058712230999992020010314004+51930-110720SAO  +077299999V020230190036199999999999999999-01311-01671999999REMAWY049XCS SA 1400 AUTO8 M M M M/-13/-17/2307/M/ M 17MM=
0063712230999992020010315004+51933-110700FM-12+077299999V0202201N005719999999N999999999-01321-01681999999ADDAA103000091REMSYN04071223 26/// /2211 11132 21168 333 60007=
0058712230999992020010315004+51930-110720SAO  +077299999V020220190057199999999999999999-01321-01681999999REMAWY049XCS SA 1500 AUTO8 M M M M/-13/-17/2211/M/ M 28MM=
0058712230999992020010316004+51930-110720SAO  +077299999V020220190036199999999999999999-01291-01551999999REMAWY049XCS SA 1600 AUTO8 M M M M/-13/-16/2207/M/ M 95MM=
0058712230999992020010317004+51930-110720SAO  +077299999V020210190046199999999999999999-01271-01551999999REMAWY049XCS SA 1700 AUTO8 M M M M/-13/-16/2109/M/ M 75MM=
0118712230999992020010318004+51933-110700FM-12+077299999V0202001N002619999999N999999999-01031-01511999999ADDAA106000091AA224000091KA1120M-00551KA2120N-01371REMSYN05871223 16/// /2005 11103 21151 60001 333 11055 21137 70000=
0058712230999992020010318004+51930-110720SAO  +077299999V020200190026199999999999999999-01031-01511999999REMAWY049XCS SA 1800 AUTO8 M M M M/-10/-15/2005/M/ M 31MM=
0058712230999992020010319004+51930-110720SAO  +077299999V020190190036199999999999999999-00761-01391999999REMAWY049XCS SA 1900 AUTO8 M M M M/-08/-14/1907/M/ M 69MM=
0058712230999992020010320004+51930-110720SAO  +077299999V020160190036199999999999999999-00661-01351999999REMAWY049XCS SA 2000 AUTO8 M M M M/-07/-14/1607/M/ M 65MM=
0063712230999992020010321004+51933-110700FM-12+077299999V0201001N003119999999N999999999-00621-01171999999ADDAA103000091REMSYN04071223 26/// /1006 11062 21117 333 60007=
0058712230999992020010321004+51930-110720SAO  +077299999V020100190031199999999999999999-00621-01171999999REMAWY049XCS SA 2100 AUTO8 M M M M/-06/-12/1006/M/ M 27MM=
0058712230999992020010322004+51930-110720SAO  +077299999V020100190031199999999999999999-00671-01241999999REMAWY049XCS SA 2200 AUTO8 M M M M/-07/-12/1006/M/ M 74MM=
0058712230999992020010323004+51930-110720SAO  +077299999V020100190051199999999999999999-00691-01161999999REMAWY049XCS SA 2300 AUTO8 M M M M/-07/-12/1010/M/ M 96MM=
0118712230999992020010400004+51933-110700FM-12+077299999V0201001N005119999999N999999999-00791-01211999999ADDAA106000091AA224000091KA1120M-00591KA2120N-01371REMSYN05871223 16/// /1010 11079 21121 60001 333 11059 21137 70000=
0058712230999992020010400004+51930-110720SAO  +077299999V020100190051199999999999999999-00791-01211999999REMAWY049XCS SA 0000 AUTO8 M M M M/-08/-12/1010/M/ M 91MM=
0058712230999992020010401004+51930-110720SAO  +077299999V020100190057199999999999999999-00801-01201999999REMAWY049XCS SA 0100 AUTO8 M M M M/-08/-12/1011/M/ M 00MM=
0058712230999992020010402004+51930-110720SAO  +077299999V020090190062199999999999999999-00801-01231999999REMAWY049XCS SA 0200 AUTO8 M M M M/-08/-12/0912/M/ M 03MM=
0063712230999992020010403004+51933-110700FM-12+077299999V0201001N005719999999N999999999-00811-01181999999ADDAA103000091REMSYN04071223 26/// /1011 11081 21118 333 60007=
0058712230999992020010403004+51930-110720SAO  +077299999V020100190057199999999999999999-00811-01181999999REMAWY049XCS SA 0300 AUTO8 M M M M/-08/-12/1011/M/ M 18MM=
0058712230999992020010404004+51930-110720SAO  +077299999V020110190051199999999999999999-00871-01221999999REMAWY049XCS SA 0400 AUTO8 M M M M/-09/-12/1110/M/ M 72MM=
0058712230999992020010405004+51930-110720SAO  +077299999V020100190041199999999999999999-00911-01201999999REMAWY049XCS SA 0500 AUTO8 M M M M/-09/-12/1008/M/ M 10MM=
0134712230999992020010406004+51933-110700FM-12+077299999V0201001N005119999999N999999999-00921-01191999999ADDAA106000091AA224000091KA1240M-00551KA2240N-01371REMSYN07471223 16/// /1010 11092 21119 60001 333 11055 21137 70000 555 32821 40071=
0058712230999992020010406004+51930-110720SAO  +077299999V020100190051199999999999999999-00921-01191999999REMAWY049XCS SA 0600 AUTO8 M M M M/-09/-12/1010/M/ M 29MM=
0058712230999992020010407004+51930-110720SAO  +077299999V020080190057199999999999999999-00931-01181999999REMAWY049XCS SA 0700 AUTO8 M M M M/-09/-12/0811/M/ M 38MM=
0058712230999992020010408004+51930-110720SAO  +077299999V020100190046199999999999999999-00901-01121999999REMAWY049XCS SA 0800 AUTO8 M M M M/-09/-11/1009/M/ M 02MM=
0063712230999992020010409004+51933-110700FM-12+077299999V0200901N004119999999N999999999-00861-01071999999ADDAA103000091REMSYN04071223 26/// /0908 11086 21107 333 60007=
0058712230999992020010409004+51930-110720SAO  +077299999V020090190041199999999999999999-00861-01071999999REMAWY049XCS SA 0900 AUTO8 M M M M/-09/-11/0908/M/ M 67MM=
0058712230999992020010410004+51930-110720SAO  +077299999V020110190031199999999999999999-00791-01011999999REMAWY049XCS SA 1000 AUTO8 M M M M/-08/-10/1106/M/ M 91MM=
0058712230999992020010411004+51930-110720SAO  +077299999V020200190046199999999999999999-00331-00561999999REMAWY049XCS SA 1100 AUTO8 M M M M/-03/-06/2009/M/ M 36MM=
0124712230999992020010412004+51933-110700FM-12+077299999V0202301N011319999999N999999999+00271-00291999999ADDAA106000091AA224000091KA1240N-00941REMSYN05871223 16/// /2322 10027 21029 60001 333 11055 21094 70000=EQDQ01-5.5  2EATMX 
0092712230999992020010412004+51930-110720SAO  +077299999V020230190113199999999999999999+00271-00291999999ADDOD130101341220REMAWY066XCS SA 1200 AUTO8 M M M M/03/-03/2322/M/ PK WND 2226 1138Z M 79MM=
0092712230999992020010413004+51930-110720SAO  +077299999V020220190108199999999999999999+00211-00311999999ADDOD130101341230REMAWY066XCS SA 1300 AUTO8 M M M M/02/-03/2221/M/ PK WND 2326 1232Z M 11MM=
0092712230999992020010414004+51930-110720SAO  +077299999V020230190103199999999999999999+00161-00371999999ADDOD130101231210REMAWY066XCS SA 1400 AUTO8 M M M M/02/-04/2320/M/ PK WND 2124 1319Z M 67MM=
0063712230999992020010415004+51933-110700FM-12+077299999V0202301N011319999999N999999999+00201-00391999999ADDAA103000091REMSYN04071223 26/// /2322 10020 21039 333 60007=
0092712230999992020010415004+51930-110720SAO  +077299999V020230190113199999999999999999+00201-00391999999ADDOD130101391230REMAWY066XCS SA 1500 AUTO8 M M M M/02/-04/2322/M/ PK WND 2327 1411Z M 09MM=
0092712230999992020010416004+51930-110720SAO  +077299999V020240190118199999999999999999+00211-00361999999ADDOD130101491240REMAWY066XCS SA 1600 AUTO8 M M M M/02/-04/2423/M/ PK WND 2429 1558Z M 16MM=
0092712230999992020010417004+51930-110720SAO  +077299999V020240190149199999999999999999+00291-00361999999ADDOD130101901240REMAWY066XCS SA 1700 AUTO8 M M M M/03/-04/2429/M/ PK WND 2437 1642Z M 96MM=
0118712230999992020010418004+51933-110700FM-12+077299999V0202801N013419999999N999999999+00231-00311999999ADDAA106000091AA224000091KA1120M+00301KA2120N-01031REMSYN05871223 16/// /2826 10023 21031 60001 333 10030 21103 70000=
0092712230999992020010418004+51930-110720SAO  +077299999V020280190134199999999999999999+00231-00311999999ADDOD130101801280REMAWY066XCS SA 1800 AUTO8 M M M M/02/-03/2826/M/ PK WND 2835 1752Z M 31MM=
0092712230999992020010419004+51930-110720SAO  +077299999V020330190103199999999999999999+00071-00461999999ADDOD130101391310REMAWY066XCS SA 1900 AUTO8 M M M M/01/-05/3320/M/ PK WND 3127 1828Z M 76MM=
0093712230999992020010420004+51930-110720SAO  +077299999V020320190087199999999999999999-00061-00531999999ADDOD130101281320REMAWY067XCS SA 2000 AUTO8 M M M M/-01/-05/3217/M/ PK WND 3225 1924Z M 63MM=
0063712230999992020010421004+51933-110700FM-12+077299999V0203001N006719999999N999999999-00141-00541999999ADDAA103000091REMSYN04071223 26/// /3013 11014 21054 333 60007=
0093712230999992020010421004+51930-110720SAO  +077299999V020300190067199999999999999999-00141-00541999999ADDOD130101131320REMAWY067XCS SA 2100 AUTO8 M M M M/-01/-05/3013/M/ PK WND 3222 2013Z M 44MM=
0093712230999992020010422004+51930-110720SAO  +077299999V020310190098199999999999999999-00111-00531999999ADDOD130101231310REMAWY067XCS SA 2200 AUTO8 M M M M/-01/-05/3119/M/ PK WND 3124 2151Z M 13MM=
0093712230999992020010423004+51930-110720SAO  +077299999V020300190051199999999999999999-00221-00611999999ADDOD130100981320REMAWY067XCS SA 2300 AUTO8 M M M M/-02/-06/3010/M/ PK WND 3219 2200Z M 21MM=
0118712230999992020010500004+51933-110700FM-12+077299999V0202801N008819999999N999999999-00161-00601999999ADDAA106000091AA224000091KA1120M+00301KA2120N-00941REMSYN05871223 16/// /2817 11016 21060 60001 333 10030 21094 70000=
0093712230999992020010500004+51930-110720SAO  +077299999V020280190087199999999999999999-00161-00601999999ADDOD130101031280REMAWY067XCS SA 0000 AUTO8 M M M M/-02/-06/2817/M/ PK WND 2820 2352Z M 60MM=
0093712230999992020010501004+51930-110720SAO  +077299999V020280190082199999999999999999-00091-00571999999ADDOD130101131280REMAWY067XCS SA 0100 AUTO8 M M M M/-01/-06/2816/M/ PK WND 2822 0031Z M 97MM=
0093712230999992020010502004+51930-110720SAO  +077299999V020280190098199999999999999999+00001-00581999999ADDOD130101491290REMAWY067XCS SA 0200 AUTO8 M M M M/00/-06/2819/M/ PK WND 2929 0158Z M -08MM=
0063712230999992020010503004+51933-110700FM-12+077299999V0202901N011319999999N999999999-00021-00661999999ADDAA103000091REMSYN04071223 26/// /2922 11002 21066 333 60007=
0093712230999992020010503004+51930-110720SAO  +077299999V020290190113199999999999999999-00021-00661999999ADDOD130101541290REMAWY067XCS SA 0300 AUTO8 M M M M/00/-07/2922/M/ PK WND 2930 0207Z M -26MM=
0093712230999992020010504004+51930-110720SAO  +077299999V020290190118199999999999999999-00081-00631999999ADDOD130101441290REMAWY067XCS SA 0400 AUTO8 M M M M/-01/-06/2923/M/ PK WND 2928 0339Z M 83MM=
0093712230999992020010505004+51930-110720SAO  +077299999V020290190072199999999999999999-00301-00741999999ADDOD130101341290REMAWY067XCS SA 0500 AUTO8 M M M M/-03/-07/2914/M/ PK WND 2926 0403Z M 04MM=
0134712230999992020010506004+51933-110700FM-12+077299999V0202801N005119999999N999999999-00561-00911999999ADDAA106000091AA224000091KA1240M+00301KA2240N-00941REMSYN07471223 16/// /2810 11056 21091 60001 333 10030 21094 70000 555 32437 40172=
0058712230999992020010506004+51930-110720SAO  +077299999V020280190051199999999999999999-00561-00911999999REMAWY049XCS SA 0600 AUTO8 M M M M/-06/-09/2810/M/ M 61MM=
0093712230999992020010507004+51930-110720SAO  +077299999V020270190093199999999999999999-00541-00891999999ADDOD130101031270REMAWY067XCS SA 0700 AUTO8 M M M M/-05/-09/2718/M/ PK WND 2720 0654Z M 49MM=
0093712230999992020010508004+51930-110720SAO  +077299999V020260190082199999999999999999-00621-01081999999ADDOD130100981280REMAWY067XCS SA 0800 AUTO8 M M M M/-06/-11/2616/M/ PK WND 2819 0700Z M 28MM=
0063712230999992020010509004+51933-110700FM-12+077299999V0202601N007719999999N999999999-00661-01351999999ADDAA103000091REMSYN04071223 26/// /2615 11066 21135 333 60007=
0093712230999992020010509004+51930-110720SAO  +077299999V020260190077199999999999999999-00661-01351999999ADDOD130100981260REMAWY067XCS SA 0900 AUTO8 M M M M/-07/-14/2615/M/ PK WND 2619 0830Z M 65MM=
0093712230999992020010510004+51930-110720SAO  +077299999V020250190098199999999999999999-00701-01421999999ADDOD130101131250REMAWY067XCS SA 1000 AUTO8 M M M M/-07/-14/2519/M/ PK WND 2522 0959Z M 02MM=
0093712230999992020010511004+51930-110720SAO  +077299999V020250190093199999999999999999-00801-01351999999ADDOD130101131250REMAWY067XCS SA 1100 AUTO8 M M M M/-08/-14/2518/M/ PK WND 2522 1021Z M 05MM=
0118712230999992020010512004+51933-110700FM-12+077299999V0202601N008219999999N999999999-00811-01481999999ADDAA106000091AA224000091KA1240M+00301KA2240N-00821REMSYN05871223 16/// /2616 11081 21148 60001 333 10030 21082 70000=
0093712230999992020010512004+51930-110720SAO  +077299999V020260190082199999999999999999-00811-01481999999ADDOD130101081260REMAWY067XCS SA 1200 AUTO8 M M M M/-08/-15/2616/M/ PK WND 2621 1105Z M 18MM=
0093712230999992020010513004+51930-110720SAO  +077299999V020270190093199999999999999999-00761-01351999999ADDOD130101081260REMAWY067XCS SA 1300 AUTO8 M M M M/-08/-14/2718/M/ PK WND 2621 1252Z M 65MM=
0093712230999992020010514004+51930-110720SAO  +077299999V020240190062199999999999999999-00961-01531999999ADDOD130101081260REMAWY067XCS SA 1400 AUTO8 M M M M/-10/-15/2412/M/ PK WND 2621 1314Z M 63MM=
0058712230999992020010515004+51930-110720SAO  +077299999V020260190072199999999999999999-00911-01491999999REMAWY049XCS SA 1500 AUTO8 M M M M/-09/-15/2614/M/ M 19MM=
0093712230999992020010516004+51930-110720SAO  +077299999V020240190057199999999999999999-01031-01511999999ADDOD130100931260REMAWY067XCS SA 1600 AUTO8 M M M M/-10/-15/2411/M/ PK WND 2618 1524Z M 31MM=
0058712230999992020010517004+51930-110720SAO  +077299999V020220190062199999999999999999-01051-01621999999REMAWY049XCS SA 1700 AUTO8 M M M M/-11/-16/2212/M/ M 52MM=
0118712230999992020010518004+51933-110700FM-12+077299999V0202201N006719999999N999999999-01031-01491999999ADDAA106000091AA224000091KA1120M-00481KA2120N-01271REMSYN05871223 16/// /2213 11103 21149 60001 333 11048 21127 70000=
0058712230999992020010518004+51930-110720SAO  +077299999V020220190067199999999999999999-01031-01491999999REMAWY049XCS SA 1800 AUTO8 M M M M/-10/-15/2213/M/ M 39MM=
0058712230999992020010519004+51930-110720SAO  +077299999V020230190072199999999999999999-00841-01351999999REMAWY049XCS SA 1900 AUTO8 M M M M/-08/-14/2314/M/ M 45MM=
0058712230999992020010520004+51930-110720SAO  +077299999V020220190062199999999999999999-00671-01181999999REMAWY049XCS SA 2000 AUTO8 M M M M/-07/-12/2212/M/ M 78MM=
0063712230999992020010521004+51933-110700FM-12+077299999V0202401N007219999999N999999999-00351-01051999999ADDAA103000091REMSYN04071223 26/// /2414 11035 21105 333 60007=
0093712230999992020010521004+51930-110720SAO  +077299999V020240190072199999999999999999-00351-00951999999ADDOD130100871240REMAWY067XCS SA 2100 AUTO8 M M M M/-04/-10/2414/M/ PK WND 2417 2059Z M 55MM=
0093712230999992020010522004+51930-110720SAO  +077299999V020230190077199999999999999999-00411-01021999999ADDOD130100981230REMAWY067XCS SA 2200 AUTO8 M M M M/-04/-10/2315/M/ PK WND 2319 2117Z M 12MM=
0093712230999992020010523004+51930-110720SAO  +077299999V020220190067199999999999999999-00591-01101999999ADDOD130100931220REMAWY067XCS SA 2300 AUTO8 M M M M/-06/-11/2213/M/ PK WND 2218 2207Z M 90MM=
0118712230999992020010600004+51933-110700FM-12+077299999V0202201N008219999999N999999999-00681-01101999999ADDAA106000091AA224000091KA1120M-00331KA2120N-01271REMSYN05871223 16/// /2216 11068 21110 60001 333 11033 21127 70000=
0093712230999992020010600004+51930-110720SAO  +077299999V020220190082199999999999999999-00681-01101999999ADDOD130100931220REMAWY067XCS SA 0000 AUTO8 M M M M/-07/-11/2216/M/ PK WND 2218 2357Z M 80MM=
0093712230999992020010601004+51930-110720SAO  +077299999V020220190077199999999999999999-00771-01101999999ADDOD130100931220REMAWY067XCS SA 0100 AUTO8 M M M M/-08/-11/2215/M/ PK WND 2218 0003Z M 70MM=
0093712230999992020010602004+51930-110720SAO  +077299999V020220190082199999999999999999-00721-01021999999ADDOD130100871220REMAWY067XCS SA 0200 AUTO8 M M M M/-07/-10/2216/M/ PK WND 2217 0155Z M 22MM=
0063712230999992020010603004+51933-110700FM-12+077299999V0202201N007719999999N999999999-00771-01061999999ADDAA103000091REMSYN04071223 26/// /2215 11077 21106 333 60007=
0093712230999992020010603004+51930-110720SAO  +077299999V020220190077199999999999999999-00771-01061999999ADDOD130100871220REMAWY067XCS SA 0300 AUTO8 M M M M/-08/-11/2215/M/ PK WND 2217 0246Z M 76MM=
0093712230999992020010604004+51930-110720SAO  +077299999V020240190108199999999999999999-00531-00981999999ADDOD130101281240REMAWY067XCS SA 0400 AUTO8 M M M M/-05/-10/2421/M/ PK WND 2425 0342Z M 38MM=
0093712230999992020010605004+51930-110720SAO  +077299999V020240190103199999999999999999-00541-01031999999ADDOD130101231230REMAWY067XCS SA 0500 AUTO8 M M M M/-05/-10/2420/M/ PK WND 2324 0411Z M 43MM=
0134712230999992020010606004+51933-110700FM-12+077299999V0202401N010319999999N999999999-00461-00961999999ADDAA106000091AA224000091KA1240M-00331KA2240N-01271REMSYN07471223 16/// /2420 11046 21096 60001 333 11033 21127 70000 555 32425 40041=
0093712230999992020010606004+51930-110720SAO  +077299999V020240190103199999999999999999-00461-00961999999ADDOD130101281240REMAWY067XCS SA 0600 AUTO8 M M M M/-05/-10/2420/M/ PK WND 2425 0502Z M 66MM=
0093712230999992020010607004+51930-110720SAO  +077299999V020280190093199999999999999999-00461-00971999999ADDOD130101341280REMAWY067XCS SA 0700 AUTO8 M M M M/-05/-10/2818/M/ PK WND 2826 0623Z M 67MM=
0093712230999992020010608004+51930-110720SAO  +077299999V020320190103199999999999999999-00181-00871999999ADDOD130101341320REMAWY067XCS SA 0800 AUTO8 M M M M/-02/-09/3220/M/ PK WND 3226 0735Z M 87MM=
0063712230999992020010609004+51933-110700FM-12+077299999V0203201N009319999999N999999999-00241-00921999999ADDAA103000091REMSYN04071223 26/// /3218 11024 21092 333 60007=
0093712230999992020010609004+51930-110720SAO  +077299999V020320190093199999999999999999-00241-00921999999ADDOD130101391320REMAWY067XCS SA 0900 AUTO8 M M M M/-02/-09/3218/M/ PK WND 3227 0836Z M 42MM=
0093712230999992020010610004+51930-110720SAO  +077299999V020320190098199999999999999999-00241-00981999999ADDOD130101341320REMAWY067XCS SA 1000 AUTO8 M M M M/-02/-10/3219/M/ PK WND 3226 0944Z M 48MM=
0093712230999992020010611004+51930-110720SAO  +077299999V020300190077199999999999999999-00371-00971999999ADDOD130101231310REMAWY067XCS SA 1100 AUTO8 M M M M/-04/-10/3015/M/ PK WND 3124 1018Z M 77MM=
0118712230999992020010612004+51933-110700FM-12+077299999V0203001N008219999999N999999999-00461-01161999999ADDAA106000091AA224000091KA1240M-00331KA2240N-00861REMSYN05871223 16/// /3016 11046 21116 60001 333 11033 21086 70000=
0093712230999992020010612004+51930-110720SAO  +077299999V020300190082199999999999999999-00461-01161999999ADDOD130101181310REMAWY067XCS SA 1200 AUTO8 M M M M/-05/-12/3016/M/ PK WND 3123 1144Z M 66MM=
0093712230999992020010613004+51930-110720SAO  +077299999V020300190067199999999999999999-00591-01271999999ADDOD130100931310REMAWY067XCS SA 1300 AUTO8 M M M M/-06/-13/3013/M/ PK WND 3118 1200Z M 97MM=
0058712230999992020010614004+51930-110720SAO  +077299999V020270190062199999999999999999-00871-01331999999REMAWY049XCS SA 1400 AUTO8 M M M M/-09/-13/2712/M/ M 73MM=
0063712230999992020010615004+51933-110700FM-12+077299999V0202701N008819999999N999999999-00771-01361999999ADDAA103000091REMSYN04071223 26/// /2717 11077 21136 333 60007=
0093712230999992020010615004+51930-110720SAO  +077299999V020270190087199999999999999999-00771-01361999999ADDOD130101131280REMAWY067XCS SA 1500 AUTO8 M M M M/-08/-14/2717/M/ PK WND 2822 1422Z M 76MM=
0093712230999992020010616004+51930-110720SAO  +077299999V020270190087199999999999999999-00761-01361999999ADDOD130100981280REMAWY067XCS SA 1600 AUTO8 M M M M/-08/-14/2717/M/ PK WND 2819 1504Z M 66MM=
0093712230999992020010617004+51930-110720SAO  +077299999V020280190082199999999999999999-00641-01281999999ADDOD130101031280REMAWY067XCS SA 1700 AUTO8 M M M M/-06/-13/2816/M/ PK WND 2820 1600Z M 48MM=
0118712230999992020010618004+51933-110700FM-12+077299999V0202801N006719999999N999999999-00581-01181999999ADDAA106000091AA224000091KA1120M-00131KA2120N-01031REMSYN05871223 16/// /2813 11058 21118 60001 333 11013 21103 70000=
0093712230999992020010618004+51930-110720SAO  +077299999V020280190067199999999999999999-00581-01181999999ADDOD130100931270REMAWY067XCS SA 1800 AUTO8 M M M M/-06/-12/2813/M/ PK WND 2718 1722Z M 88MM=
0058712230999992020010619004+51930-110720SAO  +077299999V020300190062199999999999999999-00561-01111999999REMAWY049XCS SA 1900 AUTO8 M M M M/-06/-11/3012/M/ M 61MM=
0093712230999992020010620004+51930-110720SAO  +077299999V020280190077199999999999999999-00531-00821999999ADDOD130100871280REMAWY067XCS SA 2000 AUTO8 M M M M/-05/-08/2815/M/ PK WND 2817 1939Z M 32MM=
0063712230999992020010621004+51933-110700FM-12+077299999V0202801N005119999999N999999999-00571-00831999999ADDAA103000091REMSYN04071223 26/// /2810 11057 21083 333 60007=
0093712230999992020010621004+51930-110720SAO  +077299999V020280190051199999999999999999-00571-00831999999ADDOD130100931280REMAWY067XCS SA 2100 AUTO8 M M M M/-06/-08/2810/M/ PK WND 2818 2007Z M 73MM=
0058712230999992020010622004+51930-110720SAO  +077299999V020300190041199999999999999999-00651-01021999999REMAWY049XCS SA 2200 AUTO8 M M M M/-07/-10/3008/M/ M 52MM=
0058712230999992020010623004+51930-110720SAO  +077299999V020320190026199999999999999999-00871-01241999999REMAWY049XCS SA 2300 AUTO8 M M M M/-09/-12/3205/M/ M 74MM=
0118712230999992020010700004+51933-110700FM-12+077299999V0203301N002619999999N999999999-01021-01321999999ADDAA106000091AA224000091KA1120M-00451KA2120N-01041REMSYN05871223 16/// /3305 11102 21132 60001 333 11045 21104 70000=
0058712230999992020010700004+51930-110720SAO  +077299999V020330190026199999999999999999-01021-01321999999REMAWY049XCS SA 0000 AUTO8 M M M M/-10/-13/3305/M/ M 22MM=
0058712230999992020010701004+51930-110720SAO  +077299999V020340190026199999999999999999-01171-01431999999REMAWY049XCS SA 0100 AUTO8 M M M M/-12/-14/3405/M/ M 73MM=
0058712230999992020010702004+51930-110720SAO  +077299999V020340190026199999999999999999-01211-01411999999REMAWY049XCS SA 0200 AUTO8 M M M M/-12/-14/3405/M/ M 11MM=
0063712230999992020010703004+51933-110700FM-12+077299999V0200101N001519999999N999999999-01171-01521999999ADDAA103000091REMSYN04071223 26/// /0103 11117 21152 333 60007=
0058712230999992020010703004+51930-110720SAO  +077299999V020010190015199999999999999999-01171-01521999999REMAWY049XCS SA 0300 AUTO8 M M M M/-12/-15/0103/M/ M 72MM=
0058712230999992020010704004+51930-110720SAO  +077299999V020030190021199999999999999999-01201-01871999999REMAWY049XCS SA 0400 AUTO8 M M M M/-12/-19/0304/M/ M 07MM=
0058712230999992020010705004+51930-110720SAO  +077299999V020070190005199999999999999999-01351-01961999999REMAWY049XCS SA 0500 AUTO8 M M M M/-14/-20/0701/M/ M 56MM=
0134712230999992020010706004+51933-110700FM-12+077299999V0200501N001519999999N999999999-01351-01971999999ADDAA106000091AA224000091KA1240M-00131KA2240N-01391REMSYN07471223 16/// /0503 11135 21197 60001 333 11013 21139 70000 555 33227 40091=
0058712230999992020010706004+51930-110720SAO  +077299999V020050190015199999999999999999-01351-01971999999REMAWY049XCS SA 0600 AUTO8 M M M M/-14/-20/0503/M/ M 57MM=
0058712230999992020010707004+51930-110720SAO  +077299999V020150190010199999999999999999-01411-01921999999REMAWY049XCS SA 0700 AUTO8 M M M M/-14/-19/1502/M/ M 12MM=
0058712230999992020010708004+51930-110720SAO  +077299999V020360190000199999999999999999-01431-01901999999REMAWY049XCS SA 0800 AUTO8 M M M M/-14/-19/0000/M/ M 30MM=
0063712230999992020010709004+51933-110700FM-12+077299999V0200801N000519999999N999999999-01381-01871999999ADDAA103000091REMSYN04071223 26/// /0801 11138 21187 333 60007=
0058712230999992020010709004+51930-110720SAO  +077299999V020080190005199999999999999999-01381-01871999999REMAWY049XCS SA 0900 AUTO8 M M M M/-14/-19/0801/M/ M 87MM=
0058712230999992020010710004+51930-110720SAO  +077299999V020140190005199999999999999999-01361-01781999999REMAWY049XCS SA 1000 AUTO8 M M M M/-14/-18/1401/M/ M 68MM=
0058712230999992020010711004+51930-110720SAO  +077299999V020070190015199999999999999999-01451-01781999999REMAWY049XCS SA 1100 AUTO8 M M M M/-15/-18/0703/M/ M 58MM=
0118712230999992020010712004+51933-110700FM-12+077299999V0201001N001519999999N999999999-01421-01821999999ADDAA106000091AA224000091KA1240M-00131KA2240N-01511REMSYN05871223 16/// /1003 11142 21182 60001 333 11013 21151 70000=
0058712230999992020010712004+51930-110720SAO  +077299999V020100190015199999999999999999-01421-01821999999REMAWY049XCS SA 1200 AUTO8 M M M M/-14/-18/1003/M/ M 22MM=
0058712230999992020010713004+51930-110720SAO  +077299999V020140190015199999999999999999-01331-01811999999REMAWY049XCS SA 1300 AUTO8 M M M M/-13/-18/1403/M/ M 31MM=
0058712230999992020010714004+51930-110720SAO  +077299999V020220190026199999999999999999-01191-01661999999REMAWY049XCS SA 1400 AUTO8 M M M M/-12/-17/2205/M/ M 96MM=
0063712230999992020010715004+51933-110700FM-12+077299999V0201101N001519999999N999999999-01221-01751999999ADDAA103000091REMSYN04071223 26/// /1103 11122 21175 333 60007=
0058712230999992020010715004+51930-110720SAO  +077299999V020110190015199999999999999999-01221-01751999999REMAWY049XCS SA 1500 AUTO8 M M M M/-12/-18/1103/M/ M 25MM=
0058712230999992020010716004+51930-110720SAO  +077299999V020080190021199999999999999999-01351-01711999999REMAWY049XCS SA 1600 AUTO8 M M M M/-14/-17/0804/M/ M 51MM=
0058712230999992020010717004+51930-110720SAO  +077299999V020110190026199999999999999999-01331-01731999999REMAWY049XCS SA 1700 AUTO8 M M M M/-13/-17/1105/M/ M 33MM=
0118712230999992020010718004+51933-110700FM-12+077299999V0201001N004119999999N999999999-01281-01641999999ADDAA106000091AA224000091KA1120M-01191KA2120N-01511REMSYN05871223 16/// /1008 11128 21164 60001 333 11119 21151 70000=
0058712230999992020010718004+51930-110720SAO  +077299999V020100190041199999999999999999-01281-01641999999REMAWY049XCS SA 1800 AUTO8 M M M M/-13/-16/1008/M/ M 84MM=
0058712230999992020010719004+51930-110720SAO  +077299999V020110190041199999999999999999-01301-01721999999REMAWY049XCS SA 1900 AUTO8 M M M M/-13/-17/1108/M/ M 02MM=
0058712230999992020010720004+51930-110720SAO  +077299999V020110190036199999999999999999-01291-01791999999REMAWY049XCS SA 2000 AUTO8 M M M M/-13/-18/1107/M/ M 99MM=
0063712230999992020010721004+51933-110700FM-12+077299999V0201001N003619999999N999999999-01231-01731999999ADDAA103000091REMSYN04071223 26/// /1007 11123 21173 333 60007=
0058712230999992020010721004+51930-110720SAO  +077299999V020100190036199999999999999999-01231-01731999999REMAWY049XCS SA 2100 AUTO8 M M M M/-12/-17/1007/M/ M 33MM=
0058712230999992020010722004+51930-110720SAO  +077299999V020110190041199999999999999999-01381-01751999999REMAWY049XCS SA 2200 AUTO8 M M M M/-14/-18/1108/M/ M 85MM=
0058712230999992020010723004+51930-110720SAO  +077299999V020100190046199999999999999999-01461-01881999999REMAWY049XCS SA 2300 AUTO8 M M M M/-15/-19/1009/M/ M 68MM=
0118712230999992020010800004+51933-110700FM-12+077299999V0201101N005119999999N999999999-01511-01971999999ADDAA106000091AA224000091KA1120M-01191KA2120N-01511REMSYN05871223 16/// /1110 11151 21197 60001 333 11119 21151 70000=
0058712230999992020010800004+51930-110720SAO  +077299999V020110190051199999999999999999-01511-01971999999REMAWY049XCS SA 0000 AUTO8 M M M M/-15/-20/1110/M/ M 17MM=
0058712230999992020010801004+51930-110720SAO  +077299999V020110190057199999999999999999-01491-01951999999REMAWY049XCS SA 0100 AUTO8 M M M M/-15/-20/1111/M/ M 95MM=
0093712230999992020010802004+51930-110720SAO  +077299999V020090190067199999999999999999-01481-01961999999ADDOD130100931100REMAWY067XCS SA 0200 AUTO8 M M M M/-15/-20/0913/M/ PK WND 1018 0159Z M 86MM=
0063712230999992020010803004+51933-110700FM-12+077299999V0201001N010319999999N999999999-01411-01811999999ADDAA103000091REMSYN04071223 26/// /1020 11141 21181 333 60007=
0093712230999992020010803004+51930-110720SAO  +077299999V020100190103199999999999999999-01411-01811999999ADDOD130101341100REMAWY067XCS SA 0300 AUTO8 M M M M/-14/-18/1020/M/ PK WND 1026 0255Z M 11MM=
0093712230999992020010804004+51930-110720SAO  +077299999V020100190108199999999999999999-01371-01781999999ADDOD130101341100REMAWY067XCS SA 0400 AUTO8 M M M M/-14/-18/1021/M/ PK WND 1026 0351Z M 78MM=
0093712230999992020010805004+51930-110720SAO  +077299999V020110190108199999999999999999-01401-01801999999ADDOD130101391100REMAWY067XCS SA 0500 AUTO8 M M M M/-14/-18/1121/M/ PK WND 1027 0403Z M 00MM=
0134712230999992020010806004+51933-110700FM-12+077299999V0201001N010319999999N999999999-01401-01651999999ADDAA106000091AA224000091KA1240M-01191KA2240N-01511REMSYN07471223 16/// /1020 11140 21165 60001 333 11119 21151 70000 555 31028 40061=
0093712230999992020010806004+51930-110720SAO  +077299999V020100190103199999999999999999-01401-01551999999ADDOD130101441100REMAWY067XCS SA 0600 AUTO8 M M M M/-14/-16/1020/M/ PK WND 1028 0524Z M 05MM=
0093712230999992020010807004+51930-110720SAO  +077299999V020100190098199999999999999999-01321-01551999999ADDOD130101281110REMAWY067XCS SA 0700 AUTO8 M M M M/-13/-16/1019/M/ PK WND 1125 0605Z M 25MM=
0093712230999992020010808004+51930-110720SAO  +077299999V020110190123199999999999999999-01201-01421999999ADDOD130101541110REMAWY067XCS SA 0800 AUTO8 M M M M/-12/-14/1124/M/ PK WND 1130 0758Z M 02MM=
0063712230999992020010809004+51933-110700FM-12+077299999V0201001N010319999999N999999999-01191-01411999999ADDAA103000091REMSYN04071223 26/// /1020 11119 21141 333 60007=
0093712230999992020010809004+51930-110720SAO  +077299999V020100190103199999999999999999-01191-01411999999ADDOD130101541120REMAWY067XCS SA 0900 AUTO8 M M M M/-12/-14/1020/M/ PK WND 1230 0828Z M 91MM=
0093712230999992020010810004+51930-110720SAO  +077299999V020100190077199999999999999999-01051-01361999999ADDOD130101341100REMAWY067XCS SA 1000 AUTO8 M M M M/-11/-14/1015/M/ PK WND 1026 0920Z M 56MM=
0093712230999992020010811004+51930-110720SAO  +077299999V020100190093199999999999999999-01041-01231999999ADDOD130101181100REMAWY067XCS SA 1100 AUTO8 M M M M/-10/-12/1018/M/ PK WND 1023 1056Z M 43MM=
0124712230999992020010812004+51933-110700FM-12+077299999V0200901N005719999999N999999999-01091-01281999999ADDAA106000091AA224000091KA1240N-01511REMSYN05871223 16/// /0911 11109 21128 60001 333 11119 21151 70000=EQDQ01-11.9 2EATMX 
0093712230999992020010812004+51930-110720SAO  +077299999V020090190057199999999999999999-01091-01281999999ADDOD130101181100REMAWY067XCS SA 1200 AUTO8 M M M M/-11/-13/0911/M/ PK WND 1023 1100Z M 98MM=
0093712230999992020010813004+51930-110720SAO  +077299999V020080190051199999999999999999-01071-01271999999ADDOD130101131100REMAWY067XCS SA 1300 AUTO8 M M M M/-11/-13/0810/M/ PK WND 1022 1208Z M 77MM=
0127712230999992020010814004+51930-110720SAO  +077299999V020070190062199999999999999999-01071-01271999999ADDAA101000431OD130101081100REMAWY090XCS SA 1400 AUTO8 M M M M/-11/-13/0712/M/0004 PCPN 0.4MM PAST HR PK WND 1021 1324Z M 77MM=
0077712230999992020010815004+51933-110700FM-12+077299999V0200801N006219999999N999999999-01071-01261999999ADDAA103000431AZ141021REMSYN04671223 27/// /0812 11107 21126 7//4/ 333 69947=
0097712230999992020010815004+51930-110720SAO  +077299999V020080190062199999999999999999-01071-01261999999ADDOD130100931080REMAWY071XCS SA 1500 AUTO8 M M M M/-11/-13/0812/M/0004 PK WND 0818 1417Z M 76MM=
0097712230999992020010816004+51930-110720SAO  +077299999V020080190062199999999999999999-01071-01261999999ADDOD130100871090REMAWY071XCS SA 1600 AUTO8 M M M M/-11/-13/0812/M/0004 PK WND 0917 1518Z M 76MM=
0062712230999992020010817004+51930-110720SAO  +077299999V020060190057199999999999999999-01021-01211999999REMAWY053XCS SA 1700 AUTO8 M M M M/-10/-12/0611/M/0004 M 21MM=
0132712230999992020010818004+51933-110700FM-12+077299999V0203601N005119999999N999999999-01111-01321999999ADDAA106000431AA224000431AZ141021KA1120M-00961KA2120N-01511REMSYN06471223 17/// /0010 11111 21132 69941 7//4/ 333 11096 21151 70004=
0062712230999992020010818004+51930-110720SAO  +077299999V020360190051199999999999999999-01111-01321999999REMAWY053XCS SA 1800 AUTO8 M M M M/-11/-13/3610/M/0004 M 12MM=
0093712230999992020010819004+51930-110720SAO  +077299999V020340190072199999999999999999-01181-01421999999ADDOD130100981340REMAWY067XCS SA 1900 AUTO8 M M M M/-12/-14/3414/M/ PK WND 3419 1844Z M 82MM=
0093712230999992020010820004+51930-110720SAO  +077299999V020340190087199999999999999999-01191-01481999999ADDOD130101081330REMAWY067XCS SA 2000 AUTO8 M M M M/-12/-15/3417/M/ PK WND 3321 1952Z M 98MM=
0063712230999992020010821004+51933-110700FM-12+077299999V0203401N009819999999N999999999-01341-01661999999ADDAA103000091REMSYN04071223 26/// /3419 11134 21166 333 60007=
0093712230999992020010821004+51930-110720SAO  +077299999V020340190098199999999999999999-01341-01661999999ADDOD130101341330REMAWY067XCS SA 2100 AUTO8 M M M M/-13/-17/3419/M/ PK WND 3326 2036Z M 46MM=
0093712230999992020010822004+51930-110720SAO  +077299999V020340190082199999999999999999-01441-01791999999ADDOD130101131320REMAWY067XCS SA 2200 AUTO8 M M M M/-14/-18/3416/M/ PK WND 3222 2106Z M 49MM=
0093712230999992020010823004+51930-110720SAO  +077299999V020330190082199999999999999999-01491-01881999999ADDOD130101131330REMAWY067XCS SA 2300 AUTO8 M M M M/-15/-19/3316/M/ PK WND 3322 2300Z M 98MM=
0118712230999992020010900004+51933-110700FM-12+077299999V0203301N007219999999N999999999-01581-01931999999ADDAA106000091AA224000431KA1120M-00961KA2120N-01581REMSYN05871223 16/// /3314 11158 21193 60001 333 11096 21158 70004=
0093712230999992020010900004+51930-110720SAO  +077299999V020330190072199999999999999999-01581-01931999999ADDOD130101081330REMAWY067XCS SA 0000 AUTO8 M M M M/-16/-19/3314/M/ PK WND 3321 2303Z M 83MM=
0093712230999992020010901004+51930-110720SAO  +077299999V020330190072199999999999999999-01581-01951999999ADDOD130100981330REMAWY067XCS SA 0100 AUTO8 M M M M/-16/-20/3314/M/ PK WND 3319 0046Z M 85MM=
0093712230999992020010902004+51930-110720SAO  +077299999V020310190087199999999999999999-01681-02031999999ADDOD130101081310REMAWY067XCS SA 0200 AUTO8 M M M M/-17/-20/3117/M/ PK WND 3121 0131Z M 83MM=
0063712230999992020010903004+51933-110700FM-12+077299999V0203201N008819999999N999999999-01751-02131999999ADDAA103000091REMSYN04071223 26/// /3217 11175 21213 333 60007=
0093712230999992020010903004+51930-110720SAO  +077299999V020320190087199999999999999999-01651-02131999999ADDOD130101281320REMAWY067XCS SA 0300 AUTO8 M M M M/-17/-21/3217/M/ PK WND 3225 0211Z M 53MM=
0093712230999992020010904004+51930-110720SAO  +077299999V020320190098199999999999999999-01801-02161999999ADDOD130101281310REMAWY067XCS SA 0400 AUTO8 M M M M/-18/-22/3219/M/ PK WND 3125 0339Z M 06MM=
0093712230999992020010905004+51930-110720SAO  +077299999V020320190098199999999999999999-01751-02121999999ADDOD130101281310REMAWY067XCS SA 0500 AUTO8 M M M M/-18/-21/3219/M/ PK WND 3125 0453Z M 52MM=
0075712230999992020010906004+51937-110858FM-12+077299999V0203111N0056199999999999999999-01751-02221999999ADDAA101999999AA206999999AA324999999KA1240M-00971KA2240N-01851REMSYN004BUFR
0093712230999992020010906004+51930-110720SAO  +077299999V020310190067199999999999999999-01721-02131999999ADDOD130101231320REMAWY067XCS SA 0600 AUTO8 M M M M/-17/-21/3113/M/ PK WND 3224 0503Z M 23MM=
0093712230999992020010907004+51930-110720SAO  +077299999V020300190072199999999999999999-01701-02081999999ADDOD130101131310REMAWY067XCS SA 0700 AUTO8 M M M M/-17/-21/3014/M/ PK WND 3122 0613Z M 08MM=
0093712230999992020010908004+51930-110720SAO  +077299999V020310190103199999999999999999-01611-02041999999ADDOD130101231310REMAWY067XCS SA 0800 AUTO8 M M M M/-16/-20/3120/M/ PK WND 3124 0754Z M 14MM=
0063712230999992020010909004+51933-110700FM-12+077299999V0203001N010819999999N999999999-01631-02101999999ADDAA103000091REMSYN04071223 26/// /3021 11163 21210 333 60007=
0093712230999992020010909004+51930-110720SAO  +077299999V020300190108199999999999999999-01631-02101999999ADDOD130101441310REMAWY067XCS SA 0900 AUTO8 M M M M/-16/-21/3021/M/ PK WND 3128 0845Z M 30MM=
0093712230999992020010910004+51930-110720SAO  +077299999V020300190103199999999999999999-01821-02231999999ADDOD130101231310REMAWY067XCS SA 1000 AUTO8 M M M M/-18/-22/3020/M/ PK WND 3124 0932Z M 23MM=
0093712230999992020010911004+51930-110720SAO  +077299999V020320190082199999999999999999-01821-02261999999ADDOD130101181310REMAWY067XCS SA 1100 AUTO8 M M M M/-18/-23/3216/M/ PK WND 3123 1015Z M 26MM=
0118712230999992020010912004+51933-110700FM-12+077299999V0203201N008219999999N999999999-02081-02501999999ADDAA106000091AA224000431KA1240M-00961KA2240N-02081REMSYN05871223 16/// /3216 11208 21250 60001 333 11096 21208 70004=
0093712230999992020010912004+51930-110720SAO  +077299999V020320190082199999999999999999-02081-02501999999ADDOD130101131310REMAWY067XCS SA 1200 AUTO8 M M M M/-21/-25/3216/M/ PK WND 3122 1155Z M 80MM=
0093712230999992020010913004+51930-110720SAO  +077299999V020310190093199999999999999999-02261-02701999999ADDOD130101391310REMAWY067XCS SA 1300 AUTO8 M M M M/-23/-27/3118/M/ PK WND 3127 1211Z M 60MM=
0093712230999992020010914004+51930-110720SAO  +077299999V020310190087199999999999999999-02331-02741999999ADDOD130101081310REMAWY067XCS SA 1400 AUTO8 M M M M/-23/-27/3117/M/ PK WND 3121 1330Z M 34MM=
0063712230999992020010915004+51933-110700FM-12+077299999V0203101N009319999999N999999999-02261-02661999999ADDAA103000091REMSYN04071223 26/// /3118 11226 21266 333 60007=
0093712230999992020010915004+51930-110720SAO  +077299999V020310190093199999999999999999-02261-02661999999ADDOD130101131310REMAWY067XCS SA 1500 AUTO8 M M M M/-23/-27/3118/M/ PK WND 3122 1436Z M 66MM=
0093712230999992020010916004+51930-110720SAO  +077299999V020310190067199999999999999999-02281-02681999999ADDOD130101031320REMAWY067XCS SA 1600 AUTO8 M M M M/-23/-27/3113/M/ PK WND 3220 1502Z M 88MM=
0093712230999992020010917004+51930-110720SAO  +077299999V020310190077199999999999999999-02271-02671999999ADDOD130100931310REMAWY067XCS SA 1700 AUTO8 M M M M/-23/-27/3115/M/ PK WND 3118 1656Z M 77MM=
0118712230999992020010918004+51933-110700FM-12+077299999V0203201N007219999999N999999999-02211-02631999999ADDAA106000091AA224000091KA1120M-01611KA2120N-02341REMSYN05871223 16/// /3214 11221 21263 60001 333 11161 21234 70000=
0093712230999992020010918004+51930-110720SAO  +077299999V020320190072199999999999999999-02211-02631999999ADDOD130100981310REMAWY067XCS SA 1800 AUTO8 M M M M/-22/-26/3214/M/ PK WND 3119 1718Z M 13MM=
0093712230999992020010919004+51930-110720SAO  +077299999V020330190087199999999999999999-02161-02601999999ADDOD130101081330REMAWY067XCS SA 1900 AUTO8 M M M M/-22/-26/3317/M/ PK WND 3321 1853Z M 60MM=
0093712230999992020010920004+51930-110720SAO  +077299999V020330190067199999999999999999-02121-02561999999ADDOD130101131320REMAWY067XCS SA 2000 AUTO8 M M M M/-21/-26/3313/M/ PK WND 3222 1927Z M 26MM=
0063712230999992020010921004+51933-110700FM-12+077299999V0203201N006219999999N999999999-02101-02561999999ADDAA103000091REMSYN04071223 26/// /3212 11210 21256 333 60007=
0058712230999992020010921004+51930-110720SAO  +077299999V020320190062199999999999999999-02101-02561999999REMAWY049XCS SA 2100 AUTO8 M M M M/-21/-26/3212/M/ M 06MM=
0058712230999992020010922004+51930-110720SAO  +077299999V020310190057199999999999999999-02101-02561999999REMAWY049XCS SA 2200 AUTO8 M M M M/-21/-26/3111/M/ M 06MM=
0093712230999992020010923004+51930-110720SAO  +077299999V020310190072199999999999999999-02131-02561999999ADDOD130100981310REMAWY067XCS SA 2300 AUTO8 M M M M/-21/-26/3114/M/ PK WND 3119 2230Z M 36MM=
0118712230999992020011000004+51933-110700FM-12+077299999V0202901N005719999999N999999999-02191-02601999999ADDAA106000091AA224000091KA1120M-02071KA2120N-02341REMSYN05871223 16/// /2911 11219 21260 60001 333 11207 21234 70000=
0058712230999992020011000004+51930-110720SAO  +077299999V020290190057199999999999999999-02191-02601999999REMAWY049XCS SA 0000 AUTO8 M M M M/-22/-26/2911/M/ M 90MM=
0058712230999992020011001004+51930-110720SAO  +077299999V020310190062199999999999999999-02241-02641999999REMAWY049XCS SA 0100 AUTO8 M M M M/-22/-26/3112/M/ M 44MM=
0058712230999992020011002004+51930-110720SAO  +077299999V020320190067199999999999999999-02311-02701999999REMAWY049XCS SA 0200 AUTO8 M M M M/-23/-27/3213/M/ M 10MM=
0063712230999992020011003004+51933-110700FM-12+077299999V0203201N006219999999N999999999-02371-02761999999ADDAA103000091REMSYN04071223 26/// /3212 11237 21276 333 60007=
0093712230999992020011003004+51930-110720SAO  +077299999V020320190062199999999999999999-02371-02761999999ADDOD130100871320REMAWY067XCS SA 0300 AUTO8 M M M M/-24/-28/3212/M/ PK WND 3217 0238Z M 76MM=
0058712230999992020011004004+51930-110720SAO  +077299999V020320190021199999999999999999-02411-02801999999REMAWY049XCS SA 0400 AUTO8 M M M M/-24/-28/3204/M/ M 10MM=
0058712230999992020011005004+51930-110720SAO  +077299999V020290190021199999999999999999-02461-02751999999REMAWY049XCS SA 0500 AUTO8 M M M M/-25/-28/2904/M/ M 65MM=
0134712230999992020011006004+51933-110700FM-12+077299999V0203001N003619999999N999999999-02691-03121999999ADDAA106000091AA224000091KA1240M-01611KA2240N-02701REMSYN07471223 16/// /3007 11269 21312 60001 333 11161 21270 70000 555 33128 40091=
0058712230999992020011006004+51930-110720SAO  +077299999V020300190036199999999999999999-02691-03121999999REMAWY049XCS SA 0600 AUTO8 M M M M/-27/-31/3007/M/ M 92MM=
0058712230999992020011007004+51930-110720SAO  +077299999V020250190015199999999999999999-02551-03071999999REMAWY049XCS SA 0700 AUTO8 M M M M/-26/-31/2503/M/ M 57MM=
0058712230999992020011008004+51930-110720SAO  +077299999V020220190026199999999999999999-02891-03351999999REMAWY049XCS SA 0800 AUTO8 M M M M/-29/-34/2205/M/ M 95MM=
0063712230999992020011009004+51933-110700FM-12+077299999V0202101N002119999999N999999999-02901-03361999999ADDAA103000091REMSYN04071223 26/// /2104 11290 21336 333 60007=
0058712230999992020011009004+51930-110720SAO  +077299999V020210190021199999999999999999-02901-03361999999REMAWY049XCS SA 0900 AUTO8 M M M M/-29/-34/2104/M/ M 06MM=
0058712230999992020011010004+51930-110720SAO  +077299999V020210190036199999999999999999-02981-03461999999REMAWY049XCS SA 1000 AUTO8 M M M M/-30/-35/2107/M/ M 86MM=
0058712230999992020011011004+51930-110720SAO  +077299999V020210190041199999999999999999-02921-03381999999REMAWY049XCS SA 1100 AUTO8 M M M M/-29/-34/2108/M/ M 28MM=
0118712230999992020011012004+51933-110700FM-12+077299999V0201901N002119999999N999999999-02861-03321999999ADDAA106000091AA224000091KA1240M-01611KA2240N-02991REMSYN05871223 16/// /1904 11286 21332 60001 333 11161 21299 70000=
0058712230999992020011012004+51930-110720SAO  +077299999V020190190021199999999999999999-02861-03321999999REMAWY049XCS SA 1200 AUTO8 M M M M/-29/-33/1904/M/ M 62MM=
0058712230999992020011013004+51930-110720SAO  +077299999V020210190031199999999999999999-02911-03371999999REMAWY049XCS SA 1300 AUTO8 M M M M/-29/-34/2106/M/ M 17MM=
0058712230999992020011014004+51930-110720SAO  +077299999V020200190021199999999999999999-02871-03341999999REMAWY049XCS SA 1400 AUTO8 M M M M/-29/-33/2004/M/ M 74MM=
0063712230999992020011015004+51933-110700FM-12+077299999V0201601N001519999999N999999999-02791-03251999999ADDAA103000091REMSYN04071223 26/// /1603 11279 21325 333 60007=
0058712230999992020011015004+51930-110720SAO  +077299999V020160190015199999999999999999-02791-03151999999REMAWY049XCS SA 1500 AUTO8 M M M M/-28/-32/1603/M/ M 95MM=
0058712230999992020011016004+51930-110720SAO  +077299999V020120190015199999999999999999-02891-03361999999REMAWY049XCS SA 1600 AUTO8 M M M M/-29/-34/1203/M/ M 96MM=
0058712230999992020011017004+51930-110720SAO  +077299999V020100190015199999999999999999-02831-03301999999REMAWY049XCS SA 1700 AUTO8 M M M M/-28/-33/1003/M/ M 30MM=
0118712230999992020011018004+51933-110700FM-12+077299999V0201101N002119999999N999999999-02511-02931999999ADDAA106000091AA224000091KA1120M-02511KA2120N-03041REMSYN05871223 16/// /1104 11251 21293 60001 333 11251 21304 70000=
0058712230999992020011018004+51930-110720SAO  +077299999V020110190021199999999999999999-02511-02931999999REMAWY049XCS SA 1800 AUTO8 M M M M/-25/-29/1104/M/ M 13MM=
0058712230999992020011019004+51930-110720SAO  +077299999V020100190031199999999999999999-02171-02541999999REMAWY049XCS SA 1900 AUTO8 M M M M/-22/-25/1006/M/ M 74MM=
0058712230999992020011020004+51930-110720SAO  +077299999V020120190046199999999999999999-01811-02131999999REMAWY049XCS SA 2000 AUTO8 M M M M/-18/-21/1209/M/ M 13MM=
0063712230999992020011021004+51933-110700FM-12+077299999V0201201N006219999999N999999999-01691-02011999999ADDAA103000091REMSYN04071223 26/// /1212 11169 21201 333 60007=
0093712230999992020011021004+51930-110720SAO  +077299999V020120190062199999999999999999-01691-02011999999ADDOD130100981130REMAWY067XCS SA 2100 AUTO8 M M M M/-17/-20/1212/M/ PK WND 1319 2017Z M 91MM=
0058712230999992020011022004+51930-110720SAO  +077299999V020120190062199999999999999999-01711-02061999999REMAWY049XCS SA 2200 AUTO8 M M M M/-17/-21/1212/M/ M 16MM=
0058712230999992020011023004+51930-110720SAO  +077299999V020100190062199999999999999999-01701-02081999999REMAWY049XCS SA 2300 AUTO8 M M M M/-17/-21/1012/M/ M 08MM=
0118712230999992020011100004+51933-110700FM-12+077299999V0201001N006719999999N999999999-01831-02181999999ADDAA106000091AA224000091KA1120M-01651KA2120N-03041REMSYN05871223 16/// /1013 11183 21218 60001 333 11165 21304 70000=
0093712230999992020011100004+51930-110720SAO  +077299999V020100190067199999999999999999-01831-02181999999ADDOD130100871090REMAWY067XCS SA 0000 AUTO8 M M M M/-18/-22/1013/M/ PK WND 0917 2336Z M 38MM=
0093712230999992020011101004+51930-110720SAO  +077299999V020100190057199999999999999999-01761-02091999999ADDOD130100871110REMAWY067XCS SA 0100 AUTO8 M M M M/-18/-21/1011/M/ PK WND 1117 0012Z M 69MM=
0058712230999992020011102004+51930-110720SAO  +077299999V020100190057199999999999999999-01641-01961999999REMAWY049XCS SA 0200 AUTO8 M M M M/-16/-20/1011/M/ M 46MM=
0063712230999992020011103004+51933-110700FM-12+077299999V0201001N006719999999N999999999-01501-01811999999ADDAA103000091REMSYN04071223 26/// /1013 11150 21181 333 60007=
0058712230999992020011103004+51930-110720SAO  +077299999V020100190067199999999999999999-01491-01811999999REMAWY049XCS SA 0300 AUTO8 M M M M/-15/-18/1013/M/ M 91MM=
0058712230999992020011104004+51930-110720SAO  +077299999V020090190057199999999999999999-01351-01771999999REMAWY049XCS SA 0400 AUTO8 M M M M/-14/-18/0911/M/ M 57MM=
0058712230999992020011105004+51930-110720SAO  +077299999V020090190051199999999999999999-01411-01741999999REMAWY049XCS SA 0500 AUTO8 M M M M/-14/-17/0910/M/ M 14MM=
0134712230999992020011106004+51933-110700FM-12+077299999V0200801N005719999999N999999999-01401-01721999999ADDAA106000091AA224000091KA1240M-01401KA2240N-03041REMSYN07471223 16/// /0811 11140 21172 60001 333 11140 21304 70000 555 31319 40210=
0058712230999992020011106004+51930-110720SAO  +077299999V020080190057199999999999999999-01401-01721999999REMAWY049XCS SA 0600 AUTO8 M M M M/-14/-17/0811/M/ M 02MM=
0058712230999992020011107004+51930-110720SAO  +077299999V020070190046199999999999999999-01351-01721999999REMAWY049XCS SA 0700 AUTO8 M M M M/-14/-17/0709/M/ M 52MM=
0058712230999992020011108004+51930-110720SAO  +077299999V020070190041199999999999999999-01391-01641999999REMAWY049XCS SA 0800 AUTO8 M M M M/-14/-16/0708/M/ M 94MM=
0063712230999992020011109004+51933-110700FM-12+077299999V0200701N004119999999N999999999-01371-01621999999ADDAA103000091REMSYN04071223 26/// /0708 11137 21162 333 60007=
0058712230999992020011109004+51930-110720SAO  +077299999V020070190041199999999999999999-01371-01621999999REMAWY049XCS SA 0900 AUTO8 M M M M/-14/-16/0708/M/ M 72MM=
0058712230999992020011110004+51930-110720SAO  +077299999V020060190041199999999999999999-01351-01621999999REMAWY049XCS SA 1000 AUTO8 M M M M/-14/-16/0608/M/ M 52MM=
0058712230999992020011111004+51930-110720SAO  +077299999V020060190026199999999999999999-01371-01641999999REMAWY049XCS SA 1100 AUTO8 M M M M/-14/-16/0605/M/ M 74MM=
0118712230999992020011112004+51933-110700FM-12+077299999V0203601N003619999999N999999999-01531-01791999999ADDAA106000091AA224000091KA1240M-01401KA2240N-01831REMSYN05871223 16/// /3607 11153 21179 60001 333 11140 21183 70000=
0058712230999992020011112004+51930-110720SAO  +077299999V020360190036199999999999999999-01531-01791999999REMAWY049XCS SA 1200 AUTO8 M M M M/-15/-18/3607/M/ M 39MM=
0058712230999992020011113004+51930-110720SAO  +077299999V020350190051199999999999999999-01661-01941999999REMAWY049XCS SA 1300 AUTO8 M M M M/-17/-19/3510/M/ M 64MM=
0058712230999992020011114004+51930-110720SAO  +077299999V020330190062199999999999999999-01781-02071999999REMAWY049XCS SA 1400 AUTO8 M M M M/-18/-21/3312/M/ M 87MM=
0063712230999992020011115004+51933-110700FM-12+077299999V0203401N005119999999N999999999-01871-02181999999ADDAA103000091REMSYN04071223 26/// /3410 11187 21218 333 60007=
0058712230999992020011115004+51930-110720SAO  +077299999V020340190051199999999999999999-01861-02181999999REMAWY049XCS SA 1500 AUTO8 M M M M/-19/-22/3410/M/ M 68MM=
0058712230999992020011116004+51930-110720SAO  +077299999V020330190046199999999999999999-01981-02321999999REMAWY049XCS SA 1600 AUTO8 M M M M/-20/-23/3309/M/ M 82MM=
0058712230999992020011117004+51930-110720SAO  +077299999V020340190051199999999999999999-01991-02331999999REMAWY049XCS SA 1700 AUTO8 M M M M/-20/-23/3410/M/ M 93MM=
0118712230999992020011118004+51933-110700FM-12+077299999V0203301N007219999999N999999999-01981-02321999999ADDAA106000091AA224000091KA1120M-01301KA2120N-02511REMSYN05871223 16/// /3314 11198 21232 60001 333 11130 21251 70000=
0093712230999992020011118004+51930-110720SAO  +077299999V020330190072199999999999999999-01981-02321999999ADDOD130100871340REMAWY067XCS SA 1800 AUTO8 M M M M/-20/-23/3314/M/ PK WND 3417 1748Z M 82MM=
0058712230999992020011119004+51930-110720SAO  +077299999V020340190062199999999999999999-01981-02341999999REMAWY049XCS SA 1900 AUTO8 M M M M/-20/-23/3412/M/ M 84MM=
0058712230999992020011120004+51930-110720SAO  +077299999V020320190057199999999999999999-01891-02271999999REMAWY049XCS SA 2000 AUTO8 M M M M/-19/-23/3211/M/ M 97MM=
0063712230999992020011121004+51933-110700FM-12+077299999V0203201N005119999999N999999999-01861-02221999999ADDAA103000091REMSYN04071223 26/// /3210 11186 21222 333 60007=
0058712230999992020011121004+51930-110720SAO  +077299999V020320190051199999999999999999-01861-02221999999REMAWY049XCS SA 2100 AUTO8 M M M M/-19/-22/3210/M/ M 62MM=
0058712230999992020011122004+51930-110720SAO  +077299999V020330190051199999999999999999-01821-02191999999REMAWY049XCS SA 2200 AUTO8 M M M M/-18/-22/3310/M/ M 29MM=
0058712230999992020011123004+51930-110720SAO  +077299999V020330190041199999999999999999-01821-02151999999REMAWY049XCS SA 2300 AUTO8 M M M M/-18/-22/3308/M/ M 25MM=
0118712230999992020011200004+51933-110700FM-12+077299999V0203401N004119999999N999999999-01861-02191999999ADDAA106000091AA224000091KA1120M-01531KA2120N-01991REMSYN05871223 16/// /3408 11186 21219 60001 333 11153 21199 70000=
0058712230999992020011200004+51930-110720SAO  +077299999V020340190041199999999999999999-01861-02191999999REMAWY049XCS SA 0000 AUTO8 M M M M/-19/-22/3408/M/ M 69MM=
0058712230999992020011201004+51930-110720SAO  +077299999V020330190031199999999999999999-01871-02201999999REMAWY049XCS SA 0100 AUTO8 M M M M/-19/-22/3306/M/ M 70MM=
0058712230999992020011202004+51930-110720SAO  +077299999V020340190036199999999999999999-01891-02181999999REMAWY049XCS SA 0200 AUTO8 M M M M/-19/-22/3407/M/ M 98MM=
0058712230999992020011203004+51930-110720SAO  +077299999V020340190031199999999999999999-01881-02181999999REMAWY049XCS SA 0300 AUTO8 M M M M/-19/-22/3406/M/ M 88MM=
0058712230999992020011204004+51930-110720SAO  +077299999V020330190036199999999999999999-01901-02221999999REMAWY049XCS SA 0400 AUTO8 M M M M/-19/-22/3307/M/ M 02MM=
0058712230999992020011205004+51930-110720SAO  +077299999V020320190041199999999999999999-01931-02261999999REMAWY049XCS SA 0500 AUTO8 M M M M/-19/-23/3208/M/ M 36MM=
0134712230999992020011206004+51933-110700FM-12+077299999V0203201N005119999999N999999999-01961-02291999999ADDAA106000091AA224000091KA1240M-01301KA2240N-01991REMSYN07471223 16/// /3210 11196 21229 60001 333 11130 21199 70000 555 33417 40180=
0058712230999992020011206004+51930-110720SAO  +077299999V020320190051199999999999999999-01961-02291999999REMAWY049XCS SA 0600 AUTO8 M M M M/-20/-23/3210/M/ M 69MM=
0058712230999992020011207004+51930-110720SAO  +077299999V020320190046199999999999999999-01981-02321999999REMAWY049XCS SA 0700 AUTO8 M M M M/-20/-23/3209/M/ M 82MM=
0058712230999992020011208004+51930-110720SAO  +077299999V020320190062199999999999999999-02041-02381999999REMAWY049XCS SA 0800 AUTO8 M M M M/-20/-24/3212/M/ M 48MM=
0063712230999992020011209004+51933-110700FM-12+077299999V0203201N006719999999N999999999-02031-02381999999ADDAA103000431REMSYN04071223 26/// /3213 11203 21238 333 69947=
0127712230999992020011209004+51930-110720SAO  +077299999V020320190067199999999999999999-02031-02381999999ADDAA101000431OD130100931310REMAWY090XCS SA 0900 AUTO8 M M M M/-20/-24/3213/M/0004 PCPN 0.4MM PAST HR PK WND 3118 0830Z M 38MM=
0097712230999992020011210004+51930-110720SAO  +077299999V020320190067199999999999999999-01991-02341999999ADDOD130100981320REMAWY071XCS SA 1000 AUTO8 M M M M/-20/-23/3213/M/0004 PK WND 3219 0925Z M 94MM=
0097712230999992020011211004+51930-110720SAO  +077299999V020320190093199999999999999999-02111-02501999999ADDOD130101231320REMAWY071XCS SA 1100 AUTO8 M M M M/-21/-25/3218/M/0004 PK WND 3224 1053Z M 10MM=
0132712230999992020011212004+51933-110700FM-12+077299999V0203201N011319999999N999999999-02161-02621999999ADDAA106000431AA224000431AZ141021KA1240M-01301KA2240N-02161REMSYN06471223 17/// /3222 11216 21262 69941 7//4/ 333 11130 21216 70004=
0097712230999992020011212004+51930-110720SAO  +077299999V020320190113199999999999999999-02161-02621999999ADDOD130101541320REMAWY071XCS SA 1200 AUTO8 M M M M/-22/-26/3222/M/0004 PK WND 3230 1150Z M 62MM=
0093712230999992020011213004+51930-110720SAO  +077299999V020320190103199999999999999999-02261-02711999999ADDOD130101591320REMAWY067XCS SA 1300 AUTO8 M M M M/-23/-27/3220/M/ PK WND 3231 1232Z M 61MM=
0093712230999992020011214004+51930-110720SAO  +077299999V020320190093199999999999999999-02291-02791999999ADDOD130101441310REMAWY067XCS SA 1400 AUTO8 M M M M/-23/-28/3218/M/ PK WND 3128 1338Z M 99MM=
0063712230999992020011215004+51933-110700FM-12+077299999V0203101N010319999999N999999999-02451-02951999999ADDAA103000091REMSYN04071223 26/// /3120 11245 21295 333 60007=
0093712230999992020011215004+51930-110720SAO  +077299999V020310190103199999999999999999-02451-02951999999ADDOD130101441310REMAWY067XCS SA 1500 AUTO8 M M M M/-25/-30/3120/M/ PK WND 3128 1434Z M 55MM=
0093712230999992020011216004+51930-110720SAO  +077299999V020310190123199999999999999999-02451-03071999999ADDOD130101541320REMAWY067XCS SA 1600 AUTO8 M M M M/-25/-31/3124/M/ PK WND 3230 1545Z M 57MM=
0093712230999992020011217004+51930-110720SAO  +077299999V020310190134199999999999999999-02601-03131999999ADDOD130101641320REMAWY067XCS SA 1700 AUTO8 M M M M/-26/-31/3126/M/ PK WND 3232 1659Z M 03MM=
0118712230999992020011218004+51933-110700FM-12+077299999V0203201N007719999999N999999999-02621-03241999999ADDAA106000091AA224000431KA1120M-01961KA2120N-02641REMSYN05871223 16/// /3215 11262 21324 60001 333 11196 21264 70004=
0093712230999992020011218004+51930-110720SAO  +077299999V020320190077199999999999999999-02621-03241999999ADDOD130101591310REMAWY067XCS SA 1800 AUTO8 M M M M/-26/-32/3215/M/ PK WND 3131 1712Z M 24MM=
0093712230999992020011219004+51930-110720SAO  +077299999V020320190072199999999999999999-02611-03291999999ADDOD130101131310REMAWY067XCS SA 1900 AUTO8 M M M M/-26/-33/3214/M/ PK WND 3122 1805Z M 19MM=
0093712230999992020011220004+51930-110720SAO  +077299999V020320190072199999999999999999-02601-03231999999ADDOD130101081330REMAWY067XCS SA 2000 AUTO8 M M M M/-26/-32/3214/M/ PK WND 3321 1909Z M 03MM=
0063712230999992020011221004+51933-110700FM-12+077299999V0203101N007219999999N999999999-02661-03301999999ADDAA103000091REMSYN04071223 26/// /3114 11266 21330 333 60007=
0093712230999992020011221004+51930-110720SAO  +077299999V020310190072199999999999999999-02661-03301999999ADDOD130101031320REMAWY067XCS SA 2100 AUTO8 M M M M/-27/-33/3114/M/ PK WND 3220 2027Z M 60MM=
0093712230999992020011222004+51930-110720SAO  +077299999V020320190057199999999999999999-02691-03351999999ADDOD130100871310REMAWY067XCS SA 2200 AUTO8 M M M M/-27/-34/3211/M/ PK WND 3117 2145Z M 95MM=
0058712230999992020011223004+51930-110720SAO  +077299999V020310190057199999999999999999-02651-03401999999REMAWY049XCS SA 2300 AUTO8 M M M M/-27/-34/3111/M/ M 50MM=
0075712230999992020011300004+51937-110858FM-12+077299999V0203091N0043199999999999999999-02911-03471999999ADDAA101999999AA206999999AA324999999KA1120M-02241KA2180N-02921REMSYN004BUFR
0058712230999992020011300004+51930-110720SAO  +077299999V020310190046199999999999999999-02831-03471999999REMAWY049XCS SA 0000 AUTO8 M M M M/-28/-35/3109/M/ M 37MM=
0058712230999992020011301004+51930-110720SAO  +077299999V020280190036199999999999999999-02891-03491999999REMAWY049XCS SA 0100 AUTO8 M M M M/-29/-35/2807/M/ M 99MM=
0058712230999992020011302004+51930-110720SAO  +077299999V020290190041199999999999999999-02811-03411999999REMAWY049XCS SA 0200 AUTO8 M M M M/-28/-34/2908/M/ M 11MM=
0063712230999992020011303004+51933-110700FM-12+077299999V0203101N004619999999N999999999-02781-03371999999ADDAA103000091REMSYN04071223 26/// /3109 11278 21337 333 60007=
0058712230999992020011303004+51930-110720SAO  +077299999V020310190046199999999999999999-02781-03371999999REMAWY049XCS SA 0300 AUTO8 M M M M/-28/-34/3109/M/ M 87MM=
0058712230999992020011304004+51930-110720SAO  +077299999V020320190057199999999999999999-02721-03351999999REMAWY049XCS SA 0400 AUTO8 M M M M/-27/-34/3211/M/ M 25MM=
0093712230999992020011305004+51930-110720SAO  +077299999V020330190062199999999999999999-02651-03281999999ADDOD130100871330REMAWY067XCS SA 0500 AUTO8 M M M M/-27/-33/3312/M/ PK WND 3317 0411Z M 58MM=
0134712230999992020011306004+51933-110700FM-12+077299999V0203401N005719999999N999999999-02611-03231999999ADDAA106000091AA224000431KA1240M-01961KA2240N-02901REMSYN07471223 16/// /3411 11261 21323 60001 333 11196 21290 70004 555 33232 40172=
0058712230999992020011306004+51930-110720SAO  +077299999V020340190057199999999999999999-02611-03231999999REMAWY049XCS SA 0600 AUTO8 M M M M/-26/-32/3411/M/ M 13MM=
0058712230999992020011307004+51930-110720SAO  +077299999V020360190057199999999999999999-02591-03181999999REMAWY049XCS SA 0700 AUTO8 M M M M/-26/-32/3611/M/ M 98MM=
0058712230999992020011308004+51930-110720SAO  +077299999V020360190046199999999999999999-02591-03151999999REMAWY049XCS SA 0800 AUTO8 M M M M/-26/-32/3609/M/ M 95MM=
0063712230999992020011309004+51933-110700FM-12+077299999V0203501N003619999999N999999999-02601-03171999999ADDAA103000091REMSYN04071223 26/// /3507 11260 21317 333 60007=
0058712230999992020011309004+51930-110720SAO  +077299999V020350190036199999999999999999-02591-03171999999REMAWY049XCS SA 0900 AUTO8 M M M M/-26/-32/3507/M/ M 97MM=
0058712230999992020011310004+51930-110720SAO  +077299999V020350190036199999999999999999-02591-03141999999REMAWY049XCS SA 1000 AUTO8 M M M M/-26/-31/3507/M/ M 94MM=
0058712230999992020011311004+51930-110720SAO  +077299999V020340190031199999999999999999-02591-03131999999REMAWY049XCS SA 1100 AUTO8 M M M M/-26/-31/3406/M/ M 93MM=
0118712230999992020011312004+51933-110700FM-12+077299999V0203201N003119999999N999999999-02601-03101999999ADDAA106000531AA224000531KA1240M-01961KA2240N-02901REMSYN05871223 16/// /3206 11260 21310 69951 333 11196 21290 70005=
0095712230999992020011312004+51930-110720SAO  +077299999V020320190031199999999999999999-02601-03101999999ADDAA101000531REMAWY072XCS SA 1200 AUTO8 M M M M/-26/-31/3206/M/0005 PCPN 0.5MM PAST HR M 00MM=
0058712230999992020011313004+51930-110720SAO  +077299999V020320190041199999999999999999-02611-03151999999REMAWY049XCS SA 1300 AUTO8 M M M M/-26/-32/3208/M/ M 15MM=
0058712230999992020011314004+51930-110720SAO  +077299999V020320190026199999999999999999-02661-03171999999REMAWY049XCS SA 1400 AUTO8 M M M M/-27/-32/3205/M/ M 67MM=
0063712230999992020011315004+51933-110700FM-12+077299999V0202901N002119999999N999999999-02721-03191999999ADDAA103000091REMSYN04071223 26/// /2904 11272 21319 333 60007=
0058712230999992020011315004+51930-110720SAO  +077299999V020290190021199999999999999999-02721-03191999999REMAWY049XCS SA 1500 AUTO8 M M M M/-27/-32/2904/M/ M 29MM=
0058712230999992020011316004+51930-110720SAO  +077299999V020300190026199999999999999999-02691-03171999999REMAWY049XCS SA 1600 AUTO8 M M M M/-27/-32/3005/M/ M 97MM=
0058712230999992020011317004+51930-110720SAO  +077299999V020300190041199999999999999999-02791-03281999999REMAWY049XCS SA 1700 AUTO8 M M M M/-28/-33/3008/M/ M 98MM=
0118712230999992020011318004+51933-110700FM-12+077299999V0203201N004119999999N999999999-02721-03291999999ADDAA106000091AA224000531KA1120M-02581KA2120N-02901REMSYN05871223 16/// /3208 11272 21329 60001 333 11258 21290 70005=
0058712230999992020011318004+51930-110720SAO  +077299999V020320190041199999999999999999-02721-03291999999REMAWY049XCS SA 1800 AUTO8 M M M M/-27/-33/3208/M/ M 29MM=
0058712230999992020011319004+51930-110720SAO  +077299999V020310190057199999999999999999-02681-03271999999REMAWY049XCS SA 1900 AUTO8 M M M M/-27/-33/3111/M/ M 87MM=
0058712230999992020011323004+51930-110720SAO  +077299999V020310190041199999999999999999-02641-03261999999REMAWY049XCS SA 2300 AUTO8 M M M M/-26/-33/3108/M/ M 46MM=
0118712230999992020011400004+51933-110700FM-12+077299999V0203001N004119999999N999999999-02731-03301999999ADDAA106000091AA224000531KA1120M-02551KA2120N-02801REMSYN05871223 16/// /3008 11273 21330 60001 333 11255 21280 70005=
0058712230999992020011400004+51930-110720SAO  +077299999V020300190041199999999999999999-02731-03301999999REMAWY049XCS SA 0000 AUTO8 M M M M/-27/-33/3008/M/ M 30MM=
0058712230999992020011401004+51930-110720SAO  +077299999V020320190046199999999999999999-02691-03221999999REMAWY049XCS SA 0100 AUTO8 M M M M/-27/-32/3209/M/ M 92MM=
0058712230999992020011402004+51930-110720SAO  +077299999V020300190051199999999999999999-02891-03351999999REMAWY049XCS SA 0200 AUTO8 M M M M/-29/-34/3010/M/ M 95MM=
0063712230999992020011403004+51933-110700FM-12+077299999V0203101N004119999999N999999999-03091-03631999999ADDAA103000091REMSYN04071223 26/// /3108 11309 21363 333 60007=
0058712230999992020011403004+51930-110720SAO  +077299999V020310190041199999999999999999-03091-03631999999REMAWY049XCS SA 0300 AUTO8 M M M M/-31/-36/3108/M/ M 93MM=
0058712230999992020011404004+51930-110720SAO  +077299999V020290190041199999999999999999-03061-03581999999REMAWY049XCS SA 0400 AUTO8 M M M M/-31/-36/2908/M/ M 68MM=
0058712230999992020011405004+51930-110720SAO  +077299999V020290190041199999999999999999-03241-03751999999REMAWY049XCS SA 0500 AUTO8 M M M M/-32/-38/2908/M/ M 45MM=
0118712230999992020011406004+51933-110700FM-12+077299999V0202901N004619999999N999999999-03231-03731999999ADDAA106000091AA224000531KA1240M-02551KA2240N-03241REMSYN05871223 16/// /2909 11323 21373 60001 333 11255 21324 70005=
0058712230999992020011406004+51930-110720SAO  +077299999V020290190046199999999999999999-03231-03731999999REMAWY049XCS SA 0600 AUTO8 M M M M/-32/-37/2909/M/ M 33MM=
0058712230999992020011407004+51930-110720SAO  +077299999V020300190041199999999999999999-03361-03891999999REMAWY049XCS SA 0700 AUTO8 M M M M/-34/-39/3008/M/ M 69MM=
0058712230999992020011408004+51930-110720SAO  +077299999V020290190041199999999999999999-03291-03821999999REMAWY049XCS SA 0800 AUTO8 M M M M/-33/-38/2908/M/ M 92MM=
0063712230999992020011409004+51933-110700FM-12+077299999V0202901N003119999999N999999999-03441-03991999999ADDAA103000091REMSYN04071223 26/// /2906 11344 21399 333 60007=
0058712230999992020011409004+51930-110720SAO  +077299999V020290190031199999999999999999-03441-03991999999REMAWY049XCS SA 0900 AUTO8 M M M M/-34/-40/2906/M/ M 49MM=
0058712230999992020011410004+51930-110720SAO  +077299999V020300190041199999999999999999-03471-04021999999REMAWY049XCS SA 1000 AUTO8 M M M M/-35/-40/3008/M/ M 72MM=
0058712230999992020011411004+51930-110720SAO  +077299999V020280190046199999999999999999-03401-03941999999REMAWY049XCS SA 1100 AUTO8 M M M M/-34/-39/2809/M/ M 04MM=
0118712230999992020011412004+51933-110700FM-12+077299999V0202801N004619999999N999999999-03381-03931999999ADDAA106000091AA224000091KA1240M-02551KA2240N-03481REMSYN05871223 16/// /2809 11338 21393 60001 333 11255 21348 70000=
0058712230999992020011412004+51930-110720SAO  +077299999V020280190046199999999999999999-03381-03931999999REMAWY049XCS SA 1200 AUTO8 M M M M/-34/-39/2809/M/ M 83MM=
0058712230999992020011413004+51930-110720SAO  +077299999V020290190041199999999999999999-03431-03991999999REMAWY049XCS SA 1300 AUTO8 M M M M/-34/-40/2908/M/ M 39MM=
0058712230999992020011414004+51930-110720SAO  +077299999V020300190057199999999999999999-03511-04081999999REMAWY049XCS SA 1400 AUTO8 M M M M/-35/-41/3011/M/ M 18MM=
0063712230999992020011415004+51933-110700FM-12+077299999V0203001N005719999999N999999999-03531-04101999999ADDAA103000091REMSYN04071223 26/// /3011 11353 21410 333 60007=
0058712230999992020011415004+51930-110720SAO  +077299999V020300190057199999999999999999-03531-04101999999REMAWY049XCS SA 1500 AUTO8 M M M M/-35/-41/3011/M/ M 30MM=
0058712230999992020011416004+51930-110720SAO  +077299999V020280190046199999999999999999-03511-04081999999REMAWY049XCS SA 1600 AUTO8 M M M M/-35/-41/2809/M/ M 18MM=
0058712230999992020011417004+51930-110720SAO  +077299999V020290190041199999999999999999-03351-04011999999REMAWY049XCS SA 1700 AUTO8 M M M M/-34/-40/2908/M/ M 51MM=
0075712230999992020011418004+51937-111176FM-12+077299999V0202911N0048199999999999999999-03321-03891999999ADDAA101999999AA206999999AA324999999KA1120M-03281KA2240N-03581REMSYN004BUFR
0058712230999992020011418004+51930-110720SAO  +077299999V020290190051199999999999999999-03261-03811999999REMAWY049XCS SA 1800 AUTO8 M M M M/-33/-38/2910/M/ M 61MM=
0058712230999992020011419004+51930-110720SAO  +077299999V020290190046199999999999999999-03141-03711999999REMAWY049XCS SA 1900 AUTO8 M M M M/-31/-37/2909/M/ M 41MM=
0058712230999992020011420004+51930-110720SAO  +077299999V020280190041199999999999999999-03091-03711999999REMAWY049XCS SA 2000 AUTO8 M M M M/-31/-37/2808/M/ M 91MM=
0049712230999992020011421004+51937-111176FM-12+077299999V0202841N0036199999999999999999-03171-03701999999ADDAA101999999AA206999999AA324999999REMSYN004BUFR
0058712230999992020011421004+51930-110720SAO  +077299999V020280190046199999999999999999-03091-03701999999REMAWY049XCS SA 2100 AUTO8 M M M M/-31/-37/2809/M/ M 90MM=
0058712230999992020011422004+51930-110720SAO  +077299999V020290190046199999999999999999-03101-03731999999REMAWY049XCS SA 2200 AUTO8 M M M M/-31/-37/2909/M/ M 03MM=
0058712230999992020011423004+51930-110720SAO  +077299999V020300190046199999999999999999-03081-03711999999REMAWY049XCS SA 2300 AUTO8 M M M M/-31/-37/3009/M/ M 81MM=
0118712230999992020011500004+51933-110700FM-12+077299999V0202901N003119999999N999999999-03151-03741999999ADDAA106000091AA224000091KA1120M-03071KA2120N-03561REMSYN05871223 16/// /2906 11315 21374 60001 333 11307 21356 70000=
0058712230999992020011500004+51930-110720SAO  +077299999V020290190031199999999999999999-03141-03741999999REMAWY049XCS SA 0000 AUTO8 M M M M/-31/-37/2906/M/ M 44MM=
0058712230999992020011501004+51930-110720SAO  +077299999V020290190041199999999999999999-03141-03701999999REMAWY049XCS SA 0100 AUTO8 M M M M/-31/-37/2908/M/ M 40MM=
0058712230999992020011502004+51930-110720SAO  +077299999V020290190036199999999999999999-03171-03741999999REMAWY049XCS SA 0200 AUTO8 M M M M/-32/-37/2907/M/ M 74MM=
0063712230999992020011503004+51933-110700FM-12+077299999V0202901N003619999999N999999999-03131-03691999999ADDAA103000091REMSYN04071223 26/// /2907 11313 21369 333 60007=
0058712230999992020011503004+51930-110720SAO  +077299999V020290190036199999999999999999-03131-03691999999REMAWY049XCS SA 0300 AUTO8 M M M M/-31/-37/2907/M/ M 39MM=
0058712230999992020011504004+51930-110720SAO  +077299999V020290190036199999999999999999-03121-03681999999REMAWY049XCS SA 0400 AUTO8 M M M M/-31/-37/2907/M/ M 28MM=
0058712230999992020011505004+51930-110720SAO  +077299999V020290190036199999999999999999-03171-03741999999REMAWY049XCS SA 0500 AUTO8 M M M M/-32/-37/2907/M/ M 74MM=
0118712230999992020011506004+51933-110700FM-12+077299999V0202801N003119999999N999999999-03351-03901999999ADDAA106000091AA224000091KA1240M-03071KA2240N-03561REMSYN05871223 16/// /2806 11335 21390 60001 333 11307 21356 70000=
0058712230999992020011506004+51930-110720SAO  +077299999V020280190031199999999999999999-03251-03901999999REMAWY049XCS SA 0600 AUTO8 M M M M/-33/-39/2806/M/ M 50MM=
0058712230999992020011507004+51930-110720SAO  +077299999V020270190026199999999999999999-03361-03881999999REMAWY049XCS SA 0700 AUTO8 M M M M/-34/-39/2705/M/ M 68MM=
0058712230999992020011508004+51930-110720SAO  +077299999V020280190041199999999999999999-03451-04031999999REMAWY049XCS SA 0800 AUTO8 M M M M/-35/-40/2808/M/ M 53MM=
0063712230999992020011509004+51933-110700FM-12+077299999V0202801N004119999999N999999999-03381-03991999999ADDAA103000091REMSYN04071223 26/// /2808 11338 21399 333 60007=
0058712230999992020011509004+51930-110720SAO  +077299999V020280190041199999999999999999-03381-03991999999REMAWY049XCS SA 0900 AUTO8 M M M M/-34/-40/2808/M/ M 89MM=
0058712230999992020011510004+51930-110720SAO  +077299999V020290190031199999999999999999-03551-04151999999REMAWY049XCS SA 1000 AUTO8 M M M M/-36/-42/2906/M/ M 55MM=
0058712230999992020011511004+51930-110720SAO  +077299999V020270190031199999999999999999-03531-04131999999REMAWY049XCS SA 1100 AUTO8 M M M M/-35/-41/2706/M/ M 33MM=
0118712230999992020011512004+51933-110700FM-12+077299999V0202601N002619999999N999999999-03601-04181999999ADDAA106000091AA224000091KA1240M-03071KA2240N-03661REMSYN05871223 16/// /2605 11360 21418 60001 333 11307 21366 70000=
0058712230999992020011512004+51930-110720SAO  +077299999V020260190026199999999999999999-03601-04181999999REMAWY049XCS SA 1200 AUTO8 M M M M/-36/-42/2605/M/ M 08MM=
0058712230999992020011513004+51930-110720SAO  +077299999V020280190026199999999999999999-03481-03951999999REMAWY049XCS SA 1300 AUTO8 M M M M/-35/-40/2805/M/ M 85MM=
0058712230999992020011514004+51930-110720SAO  +077299999V020260190036199999999999999999-03741-04331999999REMAWY049XCS SA 1400 AUTO8 M M M M/-37/-43/2607/M/ M 43MM=
0063712230999992020011515004+51933-110700FM-12+077299999V0202801N002619999999N999999999-03651-04241999999ADDAA103000091REMSYN04071223 26/// /2805 11365 21424 333 60007=
0058712230999992020011515004+51930-110720SAO  +077299999V020280190026199999999999999999-03651-04241999999REMAWY049XCS SA 1500 AUTO8 M M M M/-37/-42/2805/M/ M 54MM=
0058712230999992020011516004+51930-110720SAO  +077299999V020290190031199999999999999999-03631-04221999999REMAWY049XCS SA 1600 AUTO8 M M M M/-36/-42/2906/M/ M 32MM=
0058712230999992020011517004+51930-110720SAO  +077299999V020260190021199999999999999999-03581-04201999999REMAWY049XCS SA 1700 AUTO8 M M M M/-36/-42/2604/M/ M 80MM=
0118712230999992020011518004+51933-110700FM-12+077299999V0202701N003619999999N999999999-03081-03731999999ADDAA106000091AA224000091KA1120M-03081KA2120N-03821REMSYN05871223 16/// /2707 11308 21373 60001 333 11308 21382 70000=
0058712230999992020011518004+51930-110720SAO  +077299999V020270190036199999999999999999-03081-03731999999REMAWY049XCS SA 1800 AUTO8 M M M M/-31/-37/2707/M/ M 83MM=
0058712230999992020011519004+51930-110720SAO  +077299999V020290190031199999999999999999-03041-03691999999REMAWY049XCS SA 1900 AUTO8 M M M M/-30/-37/2906/M/ M 49MM=
0058712230999992020011520004+51930-110720SAO  +077299999V020290190026199999999999999999-02941-03621999999REMAWY049XCS SA 2000 AUTO8 M M M M/-29/-36/2905/M/ M 42MM=
0049712230999992020011521004+51937-110858FM-12+077299999V0202771N0018199999999999999999-02931-03631999999ADDAA101999999AA206999999AA324999999REMSYN004BUFR
0058712230999992020011521004+51930-110720SAO  +077299999V020280190021199999999999999999-02861-03591999999REMAWY049XCS SA 2100 AUTO8 M M M M/-29/-36/2804/M/ M 69MM=
0058712230999992020011522004+51930-110720SAO  +077299999V020290190015199999999999999999-02901-03631999999REMAWY049XCS SA 2200 AUTO8 M M M M/-29/-36/2903/M/ M 03MM=
0058712230999992020011523004+51930-110720SAO  +077299999V020340190015199999999999999999-02971-03711999999REMAWY049XCS SA 2300 AUTO8 M M M M/-30/-37/3403/M/ M 71MM=
0118712230999992020011600004+51933-110700FM-12+077299999V0200501N001019999999N999999999-03031-03711999999ADDAA106000091AA224000091KA1120M-02861KA2120N-03821REMSYN05871223 16/// /0502 11303 21371 60001 333 11286 21382 70000=
0058712230999992020011600004+51930-110720SAO  +077299999V020050190010199999999999999999-03031-03711999999REMAWY049XCS SA 0000 AUTO8 M M M M/-30/-37/0502/M/ M 31MM=
0058712230999992020011601004+51930-110720SAO  +077299999V020220190031199999999999999999-03241-03831999999REMAWY049XCS SA 0100 AUTO8 M M M M/-32/-38/2206/M/ M 43MM=
0058712230999992020011602004+51930-110720SAO  +077299999V020290190010199999999999999999-03251-03841999999REMAWY049XCS SA 0200 AUTO8 M M M M/-33/-38/2902/M/ M 54MM=
0063712230999992020011603004+51933-110700FM-12+077299999V0203201N001519999999N999999999-03211-03791999999ADDAA103000091REMSYN04071223 26/// /3203 11321 21379 333 60007=
0058712230999992020011603004+51930-110720SAO  +077299999V020320190015199999999999999999-03211-03791999999REMAWY049XCS SA 0300 AUTO8 M M M M/-32/-38/3203/M/ M 19MM=
0058712230999992020011604004+51930-110720SAO  +077299999V020360190005199999999999999999-03221-03831999999REMAWY049XCS SA 0400 AUTO8 M M M M/-32/-38/3601/M/ M 23MM=
0058712230999992020011605004+51930-110720SAO  +077299999V020040190010199999999999999999-03081-03691999999REMAWY049XCS SA 0500 AUTO8 M M M M/-31/-37/0402/M/ M 89MM=
0118712230999992020011606004+51933-110700FM-12+077299999V0200801N001019999999N999999999-03101-03711999999ADDAA106000091AA224000091KA1240M-02861KA2240N-03821REMSYN05871223 16/// /0802 11310 21371 60001 333 11286 21382 70000=
0058712230999992020011606004+51930-110720SAO  +077299999V020080190010199999999999999999-03101-03711999999REMAWY049XCS SA 0600 AUTO8 M M M M/-31/-37/0802/M/ M 01MM=
0058712230999992020011607004+51930-110720SAO  +077299999V020070190015199999999999999999-03181-03741999999REMAWY049XCS SA 0700 AUTO8 M M M M/-32/-37/0703/M/ M 84MM=
0058712230999992020011608004+51930-110720SAO  +077299999V020070190015199999999999999999-03211-03771999999REMAWY049XCS SA 0800 AUTO8 M M M M/-32/-38/0703/M/ M 17MM=
0063712230999992020011609004+51933-110700FM-12+077299999V0200801N002619999999N999999999-03341-03871999999ADDAA103000091REMSYN04071223 26/// /0805 11334 21387 333 60007=
0058712230999992020011609004+51930-110720SAO  +077299999V020080190026199999999999999999-03341-03871999999REMAWY049XCS SA 0900 AUTO8 M M M M/-33/-39/0805/M/ M 47MM=
0058712230999992020011610004+51930-110720SAO  +077299999V020070190021199999999999999999-03311-03861999999REMAWY049XCS SA 1000 AUTO8 M M M M/-33/-39/0704/M/ M 16MM=
0058712230999992020011611004+51930-110720SAO  +077299999V020080190041199999999999999999-03201-03741999999REMAWY049XCS SA 1100 AUTO8 M M M M/-32/-37/0808/M/ M 04MM=
0118712230999992020011612004+51933-110700FM-12+077299999V0200901N004119999999N999999999-03131-03741999999ADDAA106000091AA224000091KA1240M-02861KA2240N-03361REMSYN05871223 16/// /0908 11313 21374 60001 333 11286 21336 70000=
0058712230999992020011612004+51930-110720SAO  +077299999V020100190041199999999999999999-03131-03741999999REMAWY049XCS SA 1200 AUTO8 M M M M/-31/-37/1008/M/ M 34MM=
0093712230999992020011613004+51930-110720SAO  +077299999V020100190067199999999999999999-03021-03641999999ADDOD130100931100REMAWY067XCS SA 1300 AUTO8 M M M M/-30/-36/1013/M/ PK WND 1018 1259Z M 24MM=
0093712230999992020011614004+51930-110720SAO  +077299999V020100190077199999999999999999-03021-03621999999ADDOD130101131110REMAWY067XCS SA 1400 AUTO8 M M M M/-30/-36/1015/M/ PK WND 1122 1313Z M 22MM=
0063712230999992020011615004+51933-110700FM-12+077299999V0201001N007219999999N999999999-03001-03611999999ADDAA103000091REMSYN04071223 26/// /1014 11300 21361 333 60007=
0093712230999992020011615004+51930-110720SAO  +077299999V020100190072199999999999999999-03001-03611999999ADDOD130100981100REMAWY067XCS SA 1500 AUTO8 M M M M/-30/-36/1014/M/ PK WND 1019 1404Z M 01MM=
0093712230999992020011616004+51930-110720SAO  +077299999V020090190077199999999999999999-02991-03621999999ADDOD130100981090REMAWY067XCS SA 1600 AUTO8 M M M M/-30/-36/0915/M/ PK WND 0919 1550Z M 92MM=
0093712230999992020011617004+51930-110720SAO  +077299999V020090190077199999999999999999-02891-03551999999ADDOD130101081100REMAWY067XCS SA 1700 AUTO8 M M M M/-29/-36/0915/M/ PK WND 1021 1643Z M 95MM=
0118712230999992020011618004+51933-110700FM-12+077299999V0200901N006719999999N999999999-02831-03511999999ADDAA106000091AA224000091KA1120M-02821KA2120N-03361REMSYN05871223 16/// /0913 11283 21351 60001 333 11282 21336 70000=
0093712230999992020011618004+51930-110720SAO  +077299999V020100190067199999999999999999-02821-03511999999ADDOD130100931090REMAWY067XCS SA 1800 AUTO8 M M M M/-28/-35/1013/M/ PK WND 0918 1720Z M 21MM=
0093712230999992020011619004+51930-110720SAO  +077299999V020100190067199999999999999999-02721-03371999999ADDOD130100871100REMAWY067XCS SA 1900 AUTO8 M M M M/-27/-34/1013/M/ PK WND 1017 1858Z M 27MM=
0093712230999992020011620004+51930-110720SAO  +077299999V020100190051199999999999999999-02641-03231999999ADDOD130100871100REMAWY067XCS SA 2000 AUTO8 M M M M/-26/-32/1010/M/ PK WND 1017 1904Z M 43MM=
0063712230999992020011621004+51933-110700FM-12+077299999V0201201N004119999999N999999999-02611-03201999999ADDAA103000091REMSYN04071223 26/// /1208 11261 21320 333 60007=
0058712230999992020011621004+51930-110720SAO  +077299999V020120190041199999999999999999-02611-03201999999REMAWY049XCS SA 2100 AUTO8 M M M M/-26/-32/1208/M/ M 10MM=
0058712230999992020011622004+51930-110720SAO  +077299999V020100190036199999999999999999-02581-03111999999REMAWY049XCS SA 2200 AUTO8 M M M M/-26/-31/1007/M/ M 81MM=
0058712230999992020011623004+51930-110720SAO  +077299999V020090190041199999999999999999-02581-03081999999REMAWY049XCS SA 2300 AUTO8 M M M M/-26/-31/0908/M/ M 88MM=
0118712230999992020011700004+51933-110700FM-12+077299999V0200901N003619999999N999999999-02581-03081999999ADDAA106000091AA224000091KA1120M-02561KA2120N-03361REMSYN05871223 16/// /0907 11258 21308 60001 333 11256 21336 70000=
0058712230999992020011700004+51930-110720SAO  +077299999V020090190036199999999999999999-02581-03081999999REMAWY049XCS SA 0000 AUTO8 M M M M/-26/-31/0907/M/ M 88MM=
0058712230999992020011701004+51930-110720SAO  +077299999V020080190026199999999999999999-02591-03081999999REMAWY049XCS SA 0100 AUTO8 M M M M/-26/-31/0805/M/ M 98MM=
0058712230999992020011702004+51930-110720SAO  +077299999V020060190031199999999999999999-02581-02951999999REMAWY049XCS SA 0200 AUTO8 M M M M/-26/-30/0606/M/ M 85MM=
0063712230999992020011703004+51933-110700FM-12+077299999V0200701N003119999999N999999999-02581-03071999999ADDAA103000091REMSYN04071223 26/// /0706 11258 21307 333 60007=
0058712230999992020011703004+51930-110720SAO  +077299999V020070190031199999999999999999-02581-03071999999REMAWY049XCS SA 0300 AUTO8 M M M M/-26/-31/0706/M/ M 87MM=
0058712230999992020011704004+51930-110720SAO  +077299999V020020190031199999999999999999-02521-03011999999REMAWY049XCS SA 0400 AUTO8 M M M M/-25/-30/0206/M/ M 21MM=
0058712230999992020011705004+51930-110720SAO  +077299999V020020190026199999999999999999-02481-02951999999REMAWY049XCS SA 0500 AUTO8 M M M M/-25/-30/0205/M/ M 85MM=
0134712230999992020011706004+51933-110700FM-12+077299999V0203601N003619999999N999999999-02461-02921999999ADDAA106000091AA224000091KA1240M-02461KA2240N-03361REMSYN07471223 16/// /3607 11246 21292 60001 333 11246 21336 70000 555 31122 40141=
0058712230999992020011706004+51930-110720SAO  +077299999V020360190036199999999999999999-02461-02921999999REMAWY049XCS SA 0600 AUTO8 M M M M/-25/-29/3607/M/ M 62MM=
0058712230999992020011707004+51930-110720SAO  +077299999V020010190036199999999999999999-02461-02941999999REMAWY049XCS SA 0700 AUTO8 M M M M/-25/-29/0107/M/ M 64MM=
0058712230999992020011708004+51930-110720SAO  +077299999V020360190041199999999999999999-02471-02981999999REMAWY049XCS SA 0800 AUTO8 M M M M/-25/-30/3608/M/ M 78MM=
0063712230999992020011709004+51933-110700FM-12+077299999V0203601N005719999999N999999999-02481-03001999999ADDAA103000091REMSYN04071223 26/// /3611 11248 21300 333 60007=
0058712230999992020011709004+51930-110720SAO  +077299999V020360190057199999999999999999-02481-03001999999REMAWY049XCS SA 0900 AUTO8 M M M M/-25/-30/3611/M/ M 80MM=
0058712230999992020011710004+51930-110720SAO  +077299999V020350190051199999999999999999-02541-03071999999REMAWY049XCS SA 1000 AUTO8 M M M M/-25/-31/3510/M/ M 47MM=
0127712230999992020011711004+51930-110720SAO  +077299999V020330190067199999999999999999-02531-03041999999ADDAA101000431OD130100871330REMAWY090XCS SA 1100 AUTO8 M M M M/-25/-30/3313/M/0004 PCPN 0.4MM PAST HR PK WND 3317 1059Z M 34MM=
0132712230999992020011712004+51933-110700FM-12+077299999V0203201N007219999999N999999999-02551-03091999999ADDAA106000431AA224000431AZ141021KA1240M-02461KA2240N-02591REMSYN06471223 17/// /3214 11255 21309 69941 7//4/ 333 11246 21259 70004=
0097712230999992020011712004+51930-110720SAO  +077299999V020320190072199999999999999999-02451-03091999999ADDOD130100981330REMAWY071XCS SA 1200 AUTO8 M M M M/-25/-31/3214/M/0004 PK WND 3319 1119Z M 59MM=
0093712230999992020011713004+51930-110720SAO  +077299999V020320190087199999999999999999-02611-03151999999ADDOD130101031320REMAWY067XCS SA 1300 AUTO8 M M M M/-26/-32/3217/M/ PK WND 3220 1251Z M 15MM=
0093712230999992020011714004+51930-110720SAO  +077299999V020320190077199999999999999999-02601-03141999999ADDOD130100981320REMAWY067XCS SA 1400 AUTO8 M M M M/-26/-31/3215/M/ PK WND 3219 1305Z M 04MM=
0063712230999992020011715004+51933-110700FM-12+077299999V0203201N006219999999N999999999-02621-03131999999ADDAA103000091REMSYN04071223 26/// /3212 11262 21313 333 60007=
0093712230999992020011715004+51930-110720SAO  +077299999V020320190062199999999999999999-02621-03131999999ADDOD130100871320REMAWY067XCS SA 1500 AUTO8 M M M M/-26/-31/3212/M/ PK WND 3217 1440Z M 23MM=
0093712230999992020011716004+51930-110720SAO  +077299999V020320190067199999999999999999-02631-03101999999ADDOD130100871330REMAWY067XCS SA 1600 AUTO8 M M M M/-26/-31/3213/M/ PK WND 3317 1518Z M 30MM=
0093712230999992020011717004+51930-110720SAO  +077299999V020320190082199999999999999999-02641-03151999999ADDOD130101031310REMAWY067XCS SA 1700 AUTO8 M M M M/-26/-32/3216/M/ PK WND 3120 1648Z M 45MM=
0118712230999992020011718004+51933-110700FM-12+077299999V0203101N008819999999N999999999-02601-03111999999ADDAA106000091AA224000431KA1120M-02451KA2120N-02831REMSYN05871223 16/// /3117 11260 21311 60001 333 11245 21283 70004=
0093712230999992020011718004+51930-110720SAO  +077299999V020310190087199999999999999999-02601-03111999999ADDOD130101181310REMAWY067XCS SA 1800 AUTO8 M M M M/-26/-31/3117/M/ PK WND 3123 1726Z M 01MM=
0127712230999992020011719004+51930-110720SAO  +077299999V020310190093199999999999999999-02601-03151999999ADDAA101000431OD130101081310REMAWY090XCS SA 1900 AUTO8 M M M M/-26/-32/3118/M/0004 PCPN 0.4MM PAST HR PK WND 3121 1854Z M 05MM=
0097712230999992020011720004+51930-110720SAO  +077299999V020310190087199999999999999999-02601-03101999999ADDOD130101031310REMAWY071XCS SA 2000 AUTO8 M M M M/-26/-31/3117/M/0004 PK WND 3120 1956Z M 00MM=
0063712230999992020011721004+51933-110700FM-12+077299999V0203101N008219999999N999999999-02551-03091999999ADDAA103000431REMSYN04071223 26/// /3116 11255 21309 333 69947=
0097712230999992020011721004+51930-110720SAO  +077299999V020310190082199999999999999999-02451-03091999999ADDOD130101081300REMAWY071XCS SA 2100 AUTO8 M M M M/-25/-31/3116/M/0004 PK WND 3021 2044Z M 59MM=
0097712230999992020011722004+51930-110720SAO  +077299999V020310190093199999999999999999-02521-03061999999ADDOD130101081300REMAWY071XCS SA 2200 AUTO8 M M M M/-25/-31/3118/M/0004 PK WND 3021 2158Z M 26MM=
0097712230999992020011723004+51930-110720SAO  +077299999V020310190077199999999999999999-02511-03081999999ADDOD130101081300REMAWY071XCS SA 2300 AUTO8 M M M M/-25/-31/3115/M/0004 PK WND 3021 2221Z M 18MM=
0118712230999992020011800004+51933-110700FM-12+077299999V0203101N008819999999N999999999-02541-03081999999ADDAA106000431AA224000831KA1120M-02491KA2120N-02641REMSYN05871223 16/// /3117 11254 21308 69941 333 11249 21264 70008=
0097712230999992020011800004+51930-110720SAO  +077299999V020310190087199999999999999999-02541-03081999999ADDOD130101081320REMAWY071XCS SA 0000 AUTO8 M M M M/-25/-31/3117/M/0004 PK WND 3221 2316Z M 48MM=
0093712230999992020011801004+51930-110720SAO  +077299999V020300190072199999999999999999-02601-03141999999ADDOD130101181300REMAWY067XCS SA 0100 AUTO8 M M M M/-26/-31/3014/M/ PK WND 3023 0025Z M 04MM=
0093712230999992020011802004+51930-110720SAO  +077299999V020300190077199999999999999999-02681-03221999999ADDOD130101081310REMAWY067XCS SA 0200 AUTO8 M M M M/-27/-32/3015/M/ PK WND 3121 0104Z M 82MM=
0063712230999992020011803004+51933-110700FM-12+077299999V0203001N007219999999N999999999-02761-03311999999ADDAA103000091REMSYN04071223 26/// /3014 11276 21331 333 60007=
0093712230999992020011803004+51930-110720SAO  +077299999V020300190072199999999999999999-02761-03311999999ADDOD130100981300REMAWY067XCS SA 0300 AUTO8 M M M M/-28/-33/3014/M/ PK WND 3019 0201Z M 61MM=
0093712230999992020011804004+51930-110720SAO  +077299999V020300190082199999999999999999-02791-03341999999ADDOD130100931300REMAWY067XCS SA 0400 AUTO8 M M M M/-28/-33/3016/M/ PK WND 3018 0359Z M 94MM=
