0130013590999992018010100004+60533+008200FM-12+077399999V0202101N001019999999N999999999-00721-00841098481ADDAA106002031MA1999999089291MD1610181+9999OD139900501999REMSYN06401359 16/// /2101 11072 21084 38929 49848 56018 60021 333 91105=
0089013590999992018010101004+60533+008200FM-12+077399999V0209999C999999999999N999999999-00721-00831098441ADDMA1999999089251MD1610141+9999REMSYN04801359 46/// /0000 11072 21083 38925 49844 56014=
0089013590999992018010102004+60533+008200FM-12+077399999V0209999C999999999999N999999999-00711-00831098421ADDMA1999999089241MD1710081+9999REMSYN04801359 46/// /0000 11071 21083 38924 49842 57008=
0089013590999992018010103004+60533+008200FM-12+077399999V0209999C999999999999N999999999-00721-00831098381ADDMA1999999089201MD1710091+9999REMSYN04801359 46/// /0000 11072 21083 38920 49838 57009=
0089013590999992018010104004+60533+008200FM-12+077399999V0202501N001019999999N999999999-00731-00831098341ADDMA1999999089161MD1810091+9999REMSYN04801359 46/// /2501 11073 21083 38916 49834 58009=
0089013590999992018010105004+60533+008200FM-12+077399999V0209999C999999999999N999999999-00731-00831098321ADDMA1999999089141MD1710101+9999REMSYN04801359 46/// /0000 11073 21083 38914 49832 57010=
0293013590999992018010106004+60533+008200FM-12+077399999V0209999C999999999999N035000199-00711-00821098341ADDAA112003031AA224008631AJ100623100620099AY171021AY221021GA1081+008001061GE19AGL   +99999+99999GF108991081999008001999999IA1289KA1240N-00811MA1999999089161MD1510041+9999MW1021OD139900201999REMSYN09401359 11581 80000 11071 21082 38916 49834 55004 60032 70272 885// 333 21081 48062 70086 91102=
0089013590999992018010107004+60533+008200FM-12+077399999V0209999C999999999999N999999999-00711-00821098351ADDMA1999999089181MD1310021+9999REMSYN04801359 46/// /0000 11071 21082 38918 49835 53002=
0089013590999992018010108004+60533+008200FM-12+077399999V0201901N001019999999N999999999-00701-00811098371ADDMA1999999089201MD1210061+9999REMSYN04801359 46/// /1901 11070 21081 38920 49837 52006=
0089013590999992018010109004+60533+008200FM-12+077399999V0209999C999999999999N999999999-00691-00811098381ADDMA1999999089211MD1210051+9999REMSYN04801359 46/// /0000 11069 21081 38921 49838 52005=
0089013590999992018010110004+60533+008200FM-12+077399999V0201101N001019999999N999999999-00621-00751098371ADDMA1999999089231MD1210051+9999REMSYN04801359 46/// /1101 11062 21075 38923 49837 52005=
0089013590999992018010111004+60533+008200FM-12+077399999V0201301N001019999999N999999999-00441-00691098331ADDMA1999999089251MD1210051+9999REMSYN04801359 46/// /1301 11044 21069 38925 49833 52005=
0260013590999992018010112004+60533+008200FM-12+077399999V0202001N001019999999N040000199-00451-00641098321ADDAA106000091AY121021AY221021GA1031+008001061GA2999+999999031GA3999+999999021GE19AGL   +99999+99999GF107991031999008001999999MA1999999089231MD1210021+9999MW1021OD139900301999REMSYN07601359 11582 72001 11045 21064 38923 49832 52002 60001 70222 83578 333 91103=
0089013590999992018010113004+60533+008200FM-12+077399999V0209999C999999999999N999999999-00401-00601098261ADDMA1999999089191MD1810031+9999REMSYN04801359 46/// /0000 11040 21060 38919 49826 58003=
0089013590999992018010114004+60533+008200FM-12+077399999V0203001N001019999999N999999999-00391-00541098271ADDMA1999999089211MD1510041+9999REMSYN04801359 46/// /3001 11039 21054 38921 49827 55004=
0089013590999992018010115004+60533+008200FM-12+077399999V0200601N002019999999N999999999-00451-00551098321ADDMA1999999089231MD1510001+9999REMSYN04801359 46/// /0602 11045 21055 38923 49832 55000=
0089013590999992018010116004+60533+008200FM-12+077399999V0202201N001019999999N999999999-00431-00501098361ADDMA1999999089281MD1310081+9999REMSYN04801359 46/// /2201 11043 21050 38928 49836 53008=
0089013590999992018010117004+60533+008200FM-12+077399999V0200401N001019999999N999999999-00501-00571098411ADDMA1999999089301MD1210091+9999REMSYN04801359 46/// /0401 11050 21057 38930 49841 52009=
0263013590999992018010118004+60533+008200FM-12+077399999V0202301N001019999999N035000199-00491-00561098491ADDAA112000731AY181021AY221021GA1051+008001081GA2999+999999021GE19AGL   +99999+99999GF107991051999008001999999KA1120M-00331MA1999999089381MD1310141+9999MW1021OD139900401999REMSYN08201359 11581 72301 11049 21056 38938 49849 53014 69972 70282 85808 333 11033 91104=
0089013590999992018010119004+60533+008200FM-12+077399999V0200501N001019999999N999999999-00511-00581098531ADDMA1999999089401MD1310121+9999REMSYN04801359 46/// /0501 11051 21058 38940 49853 53012=
0089013590999992018010120004+60533+008200FM-12+077399999V0200401N001019999999N999999999-00381-00431098541ADDMA1999999089451MD1210151+9999REMSYN04801359 46/// /0401 11038 21043 38945 49854 52015=
0089013590999992018010121004+60533+008200FM-12+077399999V0200701N003019999999N999999999-00501-00611098671ADDMA1999999089531MD1310161+9999REMSYN04801359 46/// /0703 11050 21061 38953 49867 53016=
0089013590999992018010122004+60533+008200FM-12+077399999V0202301N005019999999N999999999-00121-00461098641ADDMA1999999089631MD1310231+9999REMSYN04801359 46/// /2305 11012 21046 38963 49864 53023=
0089013590999992018010123004+60533+008200FM-12+077399999V0202201N003019999999N999999999-00181-00541098761ADDMA1999999089721MD1310271+9999REMSYN04801359 46/// /2203 11018 21054 38972 49876 53027=
0130013590999992018010200004+60533+008200FM-12+077399999V0202201N002019999999N999999999-00211-00581098881ADDAA106000091MA1999999089811MD1310281+9999OD139901001999REMSYN06401359 16/// /2202 11021 21058 38981 49888 53028 60001 333 91110=
0089013590999992018010201004+60533+008200FM-12+077399999V0202901N002019999999N999999999-00201-00671098931ADDMA1999999089871MD1210241+9999REMSYN04801359 46/// /2902 11020 21067 38987 49893 52024=
0089013590999992018010202004+60533+008200FM-12+077399999V0203101N001019999999N999999999-00391-00761099061ADDMA1999999089931MD1210201+9999REMSYN04801359 46/// /3101 11039 21076 38993 49906 52020=
0089013590999992018010203004+60533+008200FM-12+077399999V0202901N001019999999N999999999-00661-00941099231ADDMA1999999089991MD1210171+9999REMSYN04801359 46/// /2901 11066 21094 38999 49923 52017=
0089013590999992018010204004+60533+008200FM-12+077399999V0202401N001019999999N999999999-00721-00911099321ADDMA1999999090051MD1310181+9999REMSYN04801359 46/// /2401 11072 21091 39005 49932 53018=
0089013590999992018010205004+60533+008200FM-12+077399999V0200501N001019999999N999999999-00651-00801099351ADDMA1999999090101MD1210171+9999REMSYN04801359 46/// /0501 11065 21080 39010 49935 52017=
0293013590999992018010206004+60533+008200FM-12+077399999V0203101N003012200019N065000199-00081-00521099231ADDAA112000091AA224000531AJ100633100630099AY121021AY211021GA1041+012501061GE19AGL   +99999+99999GF104991041999012501999999IA1289KA1240N-00841MA1999999090181MD1310191+9999MW1021OD139900901999REMSYN09401359 11687 43103 11008 21052 39018 49923 53019 60002 70221 84500 333 21084 48063 70005 91109=
0089013590999992018010207004+60533+008200FM-12+077399999V0202501N002019999999N999999999-00171-00591099341ADDMA1999999090251MD1310201+9999REMSYN04801359 46/// /2502 11017 21059 39025 49934 53020=
0089013590999992018010208004+60533+008200FM-12+077399999V0202601N003019999999N999999999-00071-00641099371ADDMA1999999090311MD1210211+9999REMSYN04801359 46/// /2603 11007 21064 39031 49937 52021=
0089013590999992018010209004+60533+008200FM-12+077399999V0202801N002019999999N999999999-00221-00671099511ADDMA1999999090391MD1310211+9999REMSYN04801359 46/// /2802 11022 21067 39039 49951 53021=
0089013590999992018010210004+60533+008200FM-12+077399999V0200701N001019999999N999999999-00391-00771099681ADDMA1999999090491MD1310241+9999REMSYN04801359 46/// /0701 11039 21077 39049 49968 53024=
0089013590999992018010211004+60533+008200FM-12+077399999V0202301N001019999999N999999999-00391-00821099711ADDMA1999999090521MD1110211+9999REMSYN04801359 46/// /2301 11039 21082 39052 49971 51021=
0228013590999992018010212004+60533+008200FM-12+077399999V0202001N001012200019N070001199-00601-00911099861ADDAA106000231AY111021AY201021GA1021+012501061GE19AGL   +99999+99999GF102991021999012501999999MA1999999090591MD1110201+9999MW1011OD139900801999REMSYN07601359 11689 22001 11060 21091 39059 49986 51020 69921 70110 82500 333 91108=
0089013590999992018010213004+60533+008200FM-12+077399999V0202501N001019999999N999999999-00471-00851099841ADDMA1999999090611MD1210121+9999REMSYN04801359 46/// /2501 11047 21085 39061 49984 52012=
0089013590999992018010214004+60533+008200FM-12+077399999V0200501N001019999999N999999999-00771-01051099961ADDMA1999999090621MD1110101+9999REMSYN04801359 46/// /0501 11077 21105 39062 49996 51010=
0089013590999992018010215004+60533+008200FM-12+077399999V0202901N001019999999N999999999-00981-01091100061ADDMA1999999090641MD1210051+9999REMSYN04801359 46/// /2901 11098 21109 39064 40006 52005=
0089013590999992018010216004+60533+008200FM-12+077399999V0203101N001019999999N999999999-01201-01301100181ADDMA1999999090681MD1310071+9999REMSYN04801359 46/// /3101 11120 21130 39068 40018 53007=
0089013590999992018010217004+60533+008200FM-12+077399999V0202901N001019999999N999999999-01251-01371100181ADDMA1999999090661MD1990041+9999REMSYN04801359 46/// /2901 11125 21137 39066 40018 50004=
0247013590999992018010218004+60533+008200FM-12+077399999V0209999C999999999999N030000199-01001-01121100081ADDAA112000331AY121021AY201021GA1061+008001061GE19AGL   +99999+99999GF106991061999008001999999KA1120M-00041MA1999999090651MD1990011+9999MW1031OD139900501999REMSYN08201359 11580 60000 11100 21112 39065 40008 50001 69932 70320 86500 333 11004 91105=
0089013590999992018010219004+60533+008200FM-12+077399999V0202301N002019999999N999999999-00881-01021100051ADDMA1999999090661MD1510011+9999REMSYN04801359 46/// /2302 11088 21102 39066 40005 55001=
0089013590999992018010220004+60533+008200FM-12+077399999V0202601N001019999999N999999999-00841-01011099991ADDMA1999999090621MD1810031+9999REMSYN04801359 46/// /2601 11084 21101 39062 49999 58003=
0089013590999992018010221004+60533+008200FM-12+077399999V0202201N001019999999N999999999-00941-01071099991ADDMA1999999090591MD1810061+9999REMSYN04801359 46/// /2201 11094 21107 39059 49999 58006=
0089013590999992018010222004+60533+008200FM-12+077399999V0201701N001019999999N999999999-00931-01071099941ADDMA1999999090551MD1710121+9999REMSYN04801359 46/// /1701 11093 21107 39055 49994 57012=
0089013590999992018010223004+60533+008200FM-12+077399999V0202601N001019999999N999999999-00901-01021099861ADDMA1999999090491MD1710141+9999REMSYN04801359 46/// /2601 11090 21102 39049 49986 57014=
0130013590999992018010300004+60533+008200FM-12+077399999V0201201N001019999999N999999999-00831-00961099771ADDAA106000091MA1999999090431MD1710161+9999OD139900301999REMSYN06401359 16/// /1201 11083 21096 39043 49977 57016 60001 333 91103=
0089013590999992018010301004+60533+008200FM-12+077399999V0200101N001019999999N999999999-00861-00971099681ADDMA1999999090331MD1810221+9999REMSYN04801359 46/// /0101 11086 21097 39033 49968 58022=
0089013590999992018010302004+60533+008200FM-12+077399999V0209999C999999999999N999999999-00921-01031099611ADDMA1999999090251MD1710231+9999REMSYN04801359 46/// /0000 11092 21103 39025 49961 57023=
0089013590999992018010303004+60533+008200FM-12+077399999V0202901N001019999999N999999999-00881-00971099511ADDMA1999999090171MD1710261+9999REMSYN04801359 46/// /2901 11088 21097 39017 49951 57026=
0089013590999992018010304004+60533+008200FM-12+077399999V0209999C999999999999N999999999-00841-00951099411ADDMA1999999090091MD1810241+9999REMSYN04801359 46/// /0000 11084 21095 39009 49941 58024=
0089013590999992018010305004+60533+008200FM-12+077399999V0200901N001019999999N999999999-00851-00971099321ADDMA1999999090011MD1710251+9999REMSYN04801359 46/// /0901 11085 21097 39001 49932 57025=
0293013590999992018010306004+60533+008200FM-12+077399999V0201201N001019999999N010000199-00851-00961099231ADDAA112000231AA224000531AJ100623100620099AY171021AY221021GA1081+004501051GE19AGL   +99999+99999GF108991081999004501999999IA1289KA1240N-01021MA1999999089931MD1710241+9999MW1781OD139900201999REMSYN09401359 11460 81201 11085 21096 38993 49923 57024 69922 77872 8802/ 333 21102 48062 70005 91102=
0089013590999992018010307004+60533+008200FM-12+077399999V0209999C999999999999N999999999-00821-00911099151ADDMA1999999089871MD1710221+9999REMSYN04801359 46/// /0000 11082 21091 38987 49915 57022=
0089013590999992018010308004+60533+008200FM-12+077399999V0202001N001019999999N999999999-00791-00871099101ADDMA1999999089831MD1610181+9999REMSYN04801359 46/// /2001 11079 21087 38983 49910 56018=
0089013590999992018010309004+60533+008200FM-12+077399999V0200501N004019999999N999999999-00591-00711099011ADDMA1999999089811MD1610111+9999REMSYN04801359 46/// /0504 11059 21071 38981 49901 56011=
0089013590999992018010310004+60533+008200FM-12+077399999V0200501N004019999999N999999999-00581-00731099021ADDMA1999999089831MD1610041+9999REMSYN04801359 46/// /0504 11058 21073 38983 49902 56004=
0089013590999992018010311004+60533+008200FM-12+077399999V0200501N004019999999N999999999-00561-00721099031ADDMA1999999089851MD1210011+9999REMSYN04801359 46/// /0504 11056 21072 38985 49903 52001=
0228013590999992018010312004+60533+008200FM-12+077399999V0200601N003019999999N006000199-00571-00741099071ADDAA106001031AY171021AY271021GA1081+004501051GE19AGL   +99999+99999GF108991081999004501999999MA1999999089881MD1210061+9999MW1711OD139900801999REMSYN07601359 11456 80603 11057 21074 38988 49907 52006 60011 77177 8802/ 333 91108=
0089013590999992018010313004+60533+008200FM-12+077399999V0200701N002019999999N999999999-00571-00731099061ADDMA1999999089871MD1990041+9999REMSYN04801359 46/// /0702 11057 21073 38987 49906 50004=
0089013590999992018010314004+60533+008200FM-12+077399999V0200601N003019999999N999999999-00551-00721099091ADDMA1999999089901MD1210051+9999REMSYN04801359 46/// /0603 11055 21072 38990 49909 52005=
0089013590999992018010315004+60533+008200FM-12+077399999V0200901N001019999999N999999999-00581-00701099131ADDMA1999999089931MD1310051+9999REMSYN04801359 46/// /0901 11058 21070 38993 49913 53005=
0089013590999992018010316004+60533+008200FM-12+077399999V0200901N001019999999N999999999-00611-00711099151ADDMA1999999089941MD1210081+9999REMSYN04801359 46/// /0901 11061 21071 38994 49915 52008=
0089013590999992018010317004+60533+008200FM-12+077399999V0200701N001019999999N999999999-00581-00681099181ADDMA1999999089971MD1210071+9999REMSYN04801359 46/// /0701 11058 21068 38997 49918 52007=
0247013590999992018010318004+60533+008200FM-12+077399999V0200801N001019999999N002900199-00551-00651099231ADDAA112005031AY171021AY271021GA1081+004501051GE19AGL   +99999+99999GF108991081999004501999999KA1120M-00551MA1999999090021MD1310101+9999MW1711OD139900601999REMSYN08201359 11429 80801 11055 21065 39002 49923 53010 60052 77177 8802/ 333 11055 91106=
0089013590999992018010319004+60533+008200FM-12+077399999V0201001N001019999999N999999999-00541-00641099261ADDMA1999999090051MD1210111+9999REMSYN04801359 46/// /1001 11054 21064 39005 49926 52011=
0089013590999992018010320004+60533+008200FM-12+077399999V0201001N001019999999N999999999-00531-00631099281ADDMA1999999090081MD1210111+9999REMSYN04801359 46/// /1001 11053 21063 39008 49928 52011=
0089013590999992018010321004+60533+008200FM-12+077399999V0200801N001019999999N999999999-00531-00631099301ADDMA1999999090101MD1210071+9999REMSYN04801359 46/// /0801 11053 21063 39010 49930 52007=
0089013590999992018010322004+60533+008200FM-12+077399999V0201001N001019999999N999999999-00521-00621099321ADDMA1999999090121MD1210061+9999REMSYN04801359 46/// /1001 11052 21062 39012 49932 52006=
0089013590999992018010323004+60533+008200FM-12+077399999V0201101N001019999999N999999999-00531-00611099351ADDMA1999999090141MD1210061+9999REMSYN04801359 46/// /1101 11053 21061 39014 49935 52006=
0130013590999992018010400004+60533+008200FM-12+077399999V0201201N001019999999N999999999-00541-00621099371ADDAA106003031MA1999999090151MD1210051+9999OD139900301999REMSYN06401359 16/// /1201 11054 21062 39015 49937 52005 60031 333 91103=
0089013590999992018010401004+60533+008200FM-12+077399999V0209999C999999999999N999999999-00551-00631099381ADDMA1999999090171MD1210051+9999REMSYN04801359 46/// /0000 11055 21063 39017 49938 52005=
0089013590999992018010402004+60533+008200FM-12+077399999V0209999C999999999999N999999999-00551-00631099421ADDMA1999999090201MD1210061+9999REMSYN04801359 46/// /0000 11055 21063 39020 49942 52006=
0089013590999992018010403004+60533+008200FM-12+077399999V0200501N001019999999N999999999-00541-00621099421ADDMA1999999090201MD1210051+9999REMSYN04801359 46/// /0501 11054 21062 39020 49942 52005=
0089013590999992018010404004+60533+008200FM-12+077399999V0209999C999999999999N999999999-00521-00591099431ADDMA1999999090221MD1210051+9999REMSYN04801359 46/// /0000 11052 21059 39022 49943 52005=
0089013590999992018010405004+60533+008200FM-12+077399999V0209999C999999999999N999999999-00551-00621099451ADDMA1999999090231MD1210031+9999REMSYN04801359 46/// /0000 11055 21062 39023 49945 52003=
0293013590999992018010406004+60533+008200FM-12+077399999V0209999C999999999999N003900199-00531-00601099471ADDAA112005031AA224010331AJ100673100670099AY171021AY271021GA1081+004501051GE19AGL   +99999+99999GF108991081999004501999999IA1289KA1240N-00561MA1999999090251MD1210051+9999MW1711OD139900201999REMSYN09401359 11439 80000 11053 21060 39025 49947 52005 60052 77177 8802/ 333 21056 48067 70103 91102=
0089013590999992018010407004+60533+008200FM-12+077399999V0209999C999999999999N999999999-00541-00611099491ADDMA1999999090261MD1210041+9999REMSYN04801359 46/// /0000 11054 21061 39026 49949 52004=
0089013590999992018010408004+60533+008200FM-12+077399999V0209999C999999999999N999999999-00541-00611099501ADDMA1999999090271MD1210041+9999REMSYN04801359 46/// /0000 11054 21061 39027 49950 52004=
0089013590999992018010409004+60533+008200FM-12+077399999V0209999C999999999999N999999999-00571-00641099521ADDMA1999999090281MD1210031+9999REMSYN04801359 46/// /0000 11057 21064 39028 49952 52003=
0089013590999992018010410004+60533+008200FM-12+077399999V0209999C999999999999N999999999-00531-00601099541ADDMA1999999090321MD1210061+9999REMSYN04801359 46/// /0000 11053 21060 39032 49954 52006=
0089013590999992018010411004+60533+008200FM-12+077399999V0209999C999999999999N999999999-00501-00611099501ADDMA1999999090291MD1990021+9999REMSYN04801359 46/// /0000 11050 21061 39029 49950 50002=
0130013590999992018010412004+60533+008200FM-12+077399999V0202401N001019999999N999999999-00461-00561099481ADDAA106002031MA1999999090281MD1990011+9999OD139900101999REMSYN06401359 16/// /2401 11046 21056 39028 49948 50001 60021 333 91101=
0089013590999992018010413004+60533+008200FM-12+077399999V0209999C999999999999N999999999-00421-00541099461ADDMA1999999090281MD1710041+9999REMSYN04801359 46/// /0000 11042 21054 39028 49946 57004=
0089013590999992018010414004+60533+008200FM-12+077399999V0209999C999999999999N999999999-00421-00531099441ADDMA1999999090261MD1710031+9999REMSYN04801359 46/// /0000 11042 21053 39026 49944 57003=
0089013590999992018010415004+60533+008200FM-12+077399999V0209999C999999999999N999999999-00471-00551099451ADDMA1999999090251MD1710031+9999REMSYN04801359 46/// /0000 11047 21055 39025 49945 57003=
0089013590999992018010416004+60533+008200FM-12+077399999V0209999C999999999999N999999999-00491-00561099421ADDMA1999999090221MD1710061+9999REMSYN04801359 46/// /0000 11049 21056 39022 49942 57006=
0089013590999992018010417004+60533+008200FM-12+077399999V0209999C999999999999N999999999-00501-00571099391ADDMA1999999090191MD1810071+9999REMSYN04801359 46/// /0000 11050 21057 39019 49939 58007=
0247013590999992018010418004+60533+008200FM-12+077399999V0209999C999999999999N007000199-00541-00611099381ADDAA112004031AY171021AY271021GA1081+004501051GE19AGL   +99999+99999GF108991081999004501999999KA1120M-00421MA1999999090171MD1710081+9999MW1711OD139900201999REMSYN08201359 11457 80000 11054 21061 39017 49938 57008 60042 77177 8802/ 333 11042 91102=
0089013590999992018010419004+60533+008200FM-12+077399999V0209999C999999999999N999999999-00491-00561099351ADDMA1999999090151MD1710071+9999REMSYN04801359 46/// /0000 11049 21056 39015 49935 57007=
0089013590999992018010420004+60533+008200FM-12+077399999V0209999C999999999999N999999999-00501-00571099371ADDMA1999999090171MD1510021+9999REMSYN04801359 46/// /0000 11050 21057 39017 49937 55002=
0108013590999992018010421004+60533+008200FM-12+077399999V0209999C999999999999N999999999-00531-00601099381ADDMA1999999090171MD1410009+9999REMSYN04801359 46/// /0000 11053 21060 39017 49938 54001=EQDQ01.1    3APC3  
0089013590999992018010422004+60533+008200FM-12+077399999V0209999C999999999999N999999999-00581-00661099381ADDMA1999999090151MD1990001+9999REMSYN04801359 46/// /0000 11058 21066 39015 49938 50000=
0089013590999992018010423004+60533+008200FM-12+077399999V0209999C999999999999N999999999-00581-00651099371ADDMA1999999090151MD1710021+9999REMSYN04801359 46/// /0000 11058 21065 39015 49937 57002=
0130013590999992018010500004+60533+008200FM-12+077399999V0209999C999999999999N999999999-00531-00601099341ADDAA106002031MA1999999090141MD1710041+9999OD139900201999REMSYN06401359 16/// /0000 11053 21060 39014 49934 57004 60021 333 91102=
0089013590999992018010501004+60533+008200FM-12+077399999V0209999C999999999999N999999999-00581-00651099381ADDMA1999999090161MD1510001+9999REMSYN04801359 46/// /0000 11058 21065 39016 49938 55000=
0089013590999992018010502004+60533+008200FM-12+077399999V0209999C999999999999N999999999-00571-00641099401ADDMA1999999090181MD1310031+9999REMSYN04801359 46/// /0000 11057 21064 39018 49940 53003=
0089013590999992018010503004+60533+008200FM-12+077399999V0200701N001019999999N999999999-00511-00611099391ADDMA1999999090181MD1210051+9999REMSYN04801359 46/// /0701 11051 21061 39018 49939 52005=
0089013590999992018010504004+60533+008200FM-12+077399999V0200801N001019999999N999999999-00521-00631099391ADDMA1999999090181MD1210031+9999REMSYN04801359 46/// /0801 11052 21063 39018 49939 52003=
0089013590999992018010505004+60533+008200FM-12+077399999V0201001N001019999999N999999999-00551-00651099441ADDMA1999999090211MD1310031+9999REMSYN04801359 46/// /1001 11055 21065 39021 49944 53003=
0293013590999992018010506004+60533+008200FM-12+077399999V0200901N001019999999N012000199-00621-00721099501ADDAA112004031AA224008031AJ100693100690099AY171021AY221021GA1081+004501051GE19AGL   +99999+99999GF108991081999004501999999IA1289KA1240N-00621MA1999999090251MD1310061+9999MW1781OD139900301999REMSYN09401359 11462 80901 11062 21072 39025 49950 53006 60042 77872 8802/ 333 21062 48069 70080 91103=
0089013590999992018010507004+60533+008200FM-12+077399999V0209999C999999999999N999999999-00671-00751099561ADDMA1999999090291MD1210111+9999REMSYN04801359 46/// /0000 11067 21075 39029 49956 52011=
0089013590999992018010508004+60533+008200FM-12+077399999V0209999C999999999999N999999999-00711-00811099641ADDMA1999999090341MD1310131+9999REMSYN04801359 46/// /0000 11071 21081 39034 49964 53013=
0089013590999992018010509004+60533+008200FM-12+077399999V0209999C999999999999N999999999-00661-00731099671ADDMA1999999090391MD1210141+9999REMSYN04801359 46/// /0000 11066 21073 39039 49967 52014=
0089013590999992018010510004+60533+008200FM-12+077399999V0209999C999999999999N999999999-00621-00721099681ADDMA1999999090421MD1210131+9999REMSYN04801359 46/// /0000 11062 21072 39042 49968 52013=
0089013590999992018010511004+60533+008200FM-12+077399999V0209999C999999999999N999999999-00581-00701099691ADDMA1999999090441MD1210091+9999REMSYN04801359 46/// /0000 11058 21070 39044 49969 52009=
0244013590999992018010512004+60533+008200FM-12+077399999V0200601N001019999999N014000199-00561-00711099731ADDAA106000631AY171021AY221021GA1041+004501061GA2999+999999051GE19AGL   +99999+99999GF108991041999004501999999MA1999999090471MD1210081+9999MW1781OD139900101999REMSYN07601359 11464 80601 11056 21071 39047 49973 52008 69961 77872 8452/ 333 91101=
0089013590999992018010513004+60533+008200FM-12+077399999V0209999C999999999999N999999999-00671-00831099781ADDMA1999999090491MD1210071+9999REMSYN04801359 46/// /0000 11067 21083 39049 49978 52007=
0089013590999992018010514004+60533+008200FM-12+077399999V0209999C999999999999N999999999-00881-01021099911ADDMA1999999090531MD1310101+9999REMSYN04801359 46/// /0000 11088 21102 39053 49991 53010=
0089013590999992018010515004+60533+008200FM-12+077399999V0209999C999999999999N999999999-01281-01431100111ADDMA1999999090581MD1310111+9999REMSYN04801359 46/// /0000 11128 21143 39058 40011 53011=
0089013590999992018010516004+60533+008200FM-12+077399999V0202401N001019999999N999999999-01181-01261100091ADDMA1999999090591MD1110111+9999REMSYN04801359 46/// /2401 11118 21126 39059 40009 51011=
0089013590999992018010517004+60533+008200FM-12+077399999V0202701N002019999999N999999999-00981-01091100041ADDMA1999999090621MD1210091+9999REMSYN04801359 46/// /2702 11098 21109 39062 40004 52009=
0247013590999992018010518004+60533+008200FM-12+077399999V0202801N003012200019N070001199-01041-01161100121ADDAA112000631AY171021AY221021GA1011+008001061GE19AGL   +99999+99999GF101991011999008001999999KA1120M-00541MA1999999090671MD1310091+9999MW1011OD139900601999REMSYN08201359 11589 12803 11104 21116 39067 40012 53009 69962 70172 81500 333 11054 91106=
0089013590999992018010519004+60533+008200FM-12+077399999V0202101N002019999999N999999999-01191-01341100221ADDMA1999999090721MD1210121+9999REMSYN04801359 46/// /2102 11119 21134 39072 40022 52012=
0089013590999992018010520004+60533+008200FM-12+077399999V0202201N001019999999N999999999-01401-01561100341ADDMA1999999090741MD1210121+9999REMSYN04801359 46/// /2201 11140 21156 39074 40034 52012=
0089013590999992018010521004+60533+008200FM-12+077399999V0202201N002019999999N999999999-01331-01511100341ADDMA1999999090771MD1210101+9999REMSYN04801359 46/// /2202 11133 21151 39077 40034 52010=
0089013590999992018010522004+60533+008200FM-12+077399999V0202001N002019999999N999999999-01311-01531100381ADDMA1999999090821MD1210101+9999REMSYN04801359 46/// /2002 11131 21153 39082 40038 52010=
0089013590999992018010523004+60533+008200FM-12+077399999V0209999C999999999999N999999999-01281-01451100441ADDMA1999999090881MD1210131+9999REMSYN04801359 46/// /0000 11128 21145 39088 40044 52013=
0130013590999992018010600004+60533+008200FM-12+077399999V0202201N001019999999N999999999-01301-01491100481ADDAA106000091MA1999999090911MD1210141+9999OD139900401999REMSYN06401359 16/// /2201 11130 21149 39091 40048 52014 60001 333 91104=
0089013590999992018010601004+60533+008200FM-12+077399999V0202201N001019999999N999999999-01161-01341100471ADDMA1999999090951MD1210131+9999REMSYN04801359 46/// /2201 11116 21134 39095 40047 52013=
0089013590999992018010602004+60533+008200FM-12+077399999V0202901N001019999999N999999999-01111-01291100491ADDMA1999999090981MD1210111+9999REMSYN04801359 46/// /2901 11111 21129 39098 40049 52011=
0089013590999992018010603004+60533+008200FM-12+077399999V0202601N001019999999N999999999-01051-01221100571ADDMA1999999091081MD1310171+9999REMSYN04801359 46/// /2601 11105 21122 39108 40057 53017=
0089013590999992018010604004+60533+008200FM-12+077399999V0200601N001019999999N999999999-01011-01171100621ADDMA1999999091131MD1310181+9999REMSYN04801359 46/// /0601 11101 21117 39113 40062 53018=
0089013590999992018010605004+60533+008200FM-12+077399999V0209999C999999999999N999999999-01151-01331100771ADDMA1999999091221MD1310241+9999REMSYN04801359 46/// /0000 11115 21133 39122 40077 53024=
0312013590999992018010606004+60533+008200FM-12+077399999V0203301N004019999999N050000199-00691-01211100691ADDAA112000091AA224000731AJ100693100690099AY121021AY201021GA1999+999999021GE19AGL   +99999+99999GF105991001999999999999999IA1289KA1240N-01491MA1999999091301MD1310231+9999MW1021OD139900701999REMSYN09401359 11984 53304 11069 21121 39130 40069 53023 60002 70220 80008 333 21149 48069 70007 91107=EQDQ01    003SCCGA1
0089013590999992018010607004+60533+008200FM-12+077399999V0203201N004019999999N999999999-00701-01371100831ADDMA1999999091431MD1310301+9999REMSYN04801359 46/// /3204 11070 21137 39143 40083 53030=
0089013590999992018010608004+60533+008200FM-12+077399999V0200301N002019999999N999999999-01001-01561101031ADDMA1999999091511MD1310281+9999REMSYN04801359 46/// /0302 11100 21156 39151 40103 53028=
0089013590999992018010609004+60533+008200FM-12+077399999V0209999C999999999999N999999999-01491-01701101361ADDMA1999999091641MD1310331+9999REMSYN04801359 46/// /0000 11149 21170 39164 40136 53033=
0089013590999992018010610004+60533+008200FM-12+077399999V0202301N002019999999N999999999-01741-02001101591ADDMA1999999091761MD1310331+9999REMSYN04801359 46/// /2302 11174 21200 39176 40159 53033=
0089013590999992018010611004+60533+008200FM-12+077399999V0200201N001019999999N999999999-01531-01761101581ADDMA1999999091831MD1110321+9999REMSYN04801359 46/// /0201 11153 21176 39183 40158 51032=
0247013590999992018010612004+60533+008200FM-12+077399999V0209999C999992200019N070001199-01591-01831101651ADDAA106000091AY121021AY201021GA1999+999999021GE19AGL   +99999+99999GF101991001999999999999999MA1999999091861MD1110231+9999MW1011OD139900701999REMSYN07601359 11989 10000 11159 21183 39186 40165 51023 60001 70120 80008 333 91107=EQDQ01    003SCCGA1
0089013590999992018010613004+60533+008200FM-12+077399999V0203001N001019999999N999999999-01421-01791101681ADDMA1999999091961MD1310201+9999REMSYN04801359 46/// /3001 11142 21179 39196 40168 53020=
0089013590999992018010614004+60533+008200FM-12+077399999V0200501N001019999999N999999999-01371-01671101741ADDMA1999999092031MD1310201+9999REMSYN04801359 46/// /0501 11137 21167 39203 40174 53020=
0089013590999992018010615004+60533+008200FM-12+077399999V0202801N002019999999N999999999-00921-01561101691ADDMA1999999092131MD1310271+9999REMSYN04801359 46/// /2802 11092 21156 39213 40169 53027=
0089013590999992018010616004+60533+008200FM-12+077399999V0200801N001019999999N999999999-01231-01591101911ADDMA1999999092231MD1310271+9999REMSYN04801359 46/// /0801 11123 21159 39223 40191 53027=
0089013590999992018010617004+60533+008200FM-12+077399999V0200401N001019999999N999999999-01311-01591102051ADDMA1999999092331MD1310301+9999REMSYN04801359 46/// /0401 11131 21159 39233 40205 53030=
0266013590999992018010618004+60533+008200FM-12+077399999V0202301N001012200019N070001199-01261-01491102151ADDAA112000091AY101021AY201021GA1999+999999021GE19AGL   +99999+99999GF101991001999999999999999KA1120M-00641MA1999999092441MD1310301+9999MW1021OD139900701999REMSYN08201359 11989 12301 11126 21149 39244 40215 53030 60002 70200 80008 333 11064 91107=EQDQ01    003SCCGA1
0089013590999992018010619004+60533+008200FM-12+077399999V0203601N002019999999N999999999-00811-01351102101ADDMA1999999092551MD1310321+9999REMSYN04801359 46/// /3602 11081 21135 39255 40210 53032=
0089013590999992018010620004+60533+008200FM-12+077399999V0202801N001019999999N999999999-01251-01641102371ADDMA1999999092641MD1210311+9999REMSYN04801359 46/// /2801 11125 21164 39264 40237 52031=
0089013590999992018010621004+60533+008200FM-12+077399999V0202301N001019999999N999999999-01451-01641102571ADDMA1999999092751MD1210311+9999REMSYN04801359 46/// /2301 11145 21164 39275 40257 52031=
0089013590999992018010622004+60533+008200FM-12+077399999V0200601N001019999999N999999999-01721-01961102751ADDMA1999999092811MD1210261+9999REMSYN04801359 46/// /0601 11172 21196 39281 40275 52026=
0089013590999992018010623004+60533+008200FM-12+077399999V0202601N002019999999N999999999-01631-01891102751ADDMA1999999092851MD1110211+9999REMSYN04801359 46/// /2602 11163 21189 39285 40275 51021=
0130013590999992018010700004+60533+008200FM-12+077399999V0202701N003019999999N999999999-01231-01621102671ADDAA106000091MA1999999092921MD1210171+9999OD139900601999REMSYN06401359 16/// /2703 11123 21162 39292 40267 52017 60001 333 91106=
0089013590999992018010701004+60533+008200FM-12+077399999V0201601N001019999999N999999999-01511-01891102811ADDMA1999999092941MD1210141+9999REMSYN04801359 46/// /1601 11151 21189 39294 40281 52014=
0089013590999992018010702004+60533+008200FM-12+077399999V0200101N001019999999N999999999-01511-01681102851ADDMA1999999092981MD1110131+9999REMSYN04801359 46/// /0101 11151 21168 39298 40285 51013=
0089013590999992018010703004+60533+008200FM-12+077399999V0202601N003019999999N999999999-01121-01511102721ADDMA1999999093001MD1210091+9999REMSYN04801359 46/// /2603 11112 21151 39300 40272 52009=
0089013590999992018010704004+60533+008200FM-12+077399999V0202401N005019999999N999999999-00921-01301102521ADDMA1999999092891MD1810061+9999REMSYN04801359 46/// /2405 11092 21130 39289 40252 58006=
0089013590999992018010705004+60533+008200FM-12+077399999V0202201N004019999999N999999999-00851-01321102571ADDMA1999999092961MD1510021+9999REMSYN04801359 46/// /2204 11085 21132 39296 40257 55002=
0309013590999992018010706004+60533+008200FM-12+077399999V0201101N003012200019N070001199-00721-01121102471ADDAA112000091AA224000091AJ100693100690099AY101021AY201021GA1011+012501061GA2999+999999021GE19AGL   +99999+99999GF102991011999012501999999IA1289KA1240N-01741MA1999999092911MD1810091+9999MW1021OD139901601999REMSYN09401359 11689 21103 11072 21112 39291 40247 58009 60002 70200 81508 333 21174 48069 70000 91116=
0089013590999992018010707004+60533+008200FM-12+077399999V0203401N003019999999N999999999-00711-01081102381ADDMA1999999092831MD1810061+9999REMSYN04801359 46/// /3403 11071 21108 39283 40238 58006=
0089013590999992018010708004+60533+008200FM-12+077399999V0202401N008019999999N999999999-00561-00951102231ADDMA1999999092751MD1810211+9999REMSYN04801359 46/// /2408 11056 21095 39275 40223 58021=
0089013590999992018010709004+60533+008200FM-12+077399999V0202301N010019999999N999999999-00551-00881102181ADDMA1999999092701MD1610221+9999REMSYN04801359 46/// /2310 11055 21088 39270 40218 56022=
0089013590999992018010710004+60533+008200FM-12+077399999V0202301N012019999999N999999999-00541-00811102031ADDMA1999999092571MD1810261+9999REMSYN04801359 46/// /2312 11054 21081 39257 40203 58026=
0089013590999992018010711004+60533+008200FM-12+077399999V0202301N012019999999N999999999-00471-00691101871ADDMA1999999092451MD1810291+9999REMSYN04801359 46/// /2312 11047 21069 39245 40187 58029=
0247013590999992018010712004+60533+008200FM-12+077399999V0202301N010019999999N001600199-00421-00651101921ADDAA106999999AY171021AY231021GA1081+002501051GE19AGL   +99999+99999GF108991081999002501999999MA1999999092511MD1510181+9999MW1711OD139902001999REMSYN07601359 11316 82310 11042 21065 39251 40192 55018 60001 77173 8802/ 333 91120=EQDQ01  00002PRCP06
0089013590999992018010713004+60533+008200FM-12+077399999V0202301N008019999999N999999999-00301-00521101861ADDMA1999999092501MD1510071+9999REMSYN04801359 46/// /2308 11030 21052 39250 40186 55007=
0089013590999992018010714004+60533+008200FM-12+077399999V0202501N007019999999N999999999-00231-00521101901ADDMA1999999092551MD1310101+9999REMSYN04801359 46/// /2507 11023 21052 39255 40190 53010=
0089013590999992018010715004+60533+008200FM-12+077399999V0202501N007019999999N999999999-00171-00431102001ADDMA1999999092661MD1310151+9999REMSYN04801359 46/// /2507 11017 21043 39266 40200 53015=
0089013590999992018010716004+60533+008200FM-12+077399999V0202501N007019999999N999999999-00121-00481102111ADDMA1999999092781MD1310291+9999REMSYN04801359 46/// /2507 11012 21048 39278 40211 53029=
0089013590999992018010717004+60533+008200FM-12+077399999V0202301N007019999999N999999999-00141-00501102171ADDMA1999999092831MD1110281+9999REMSYN04801359 46/// /2307 11014 21050 39283 40217 51028=
0247013590999992018010718004+60533+008200FM-12+077399999V0202401N006012200019N022000199-00131-00491102301ADDAA112000331AY171021AY231021GA1031+008001061GE19AGL   +99999+99999GF103991031999008001999999KA1120M-00111MA1999999092951MD1310281+9999MW1011OD139901801999REMSYN08201359 11572 32406 11013 21049 39295 40230 53028 69932 70173 83500 333 11011 91118=
0089013590999992018010719004+60533+008200FM-12+077399999V0202601N004019999999N999999999-00151-00561102421ADDMA1999999093061MD1310271+9999REMSYN04801359 46/// /2604 11015 21056 39306 40242 53027=
0089013590999992018010720004+60533+008200FM-12+077399999V0202601N004019999999N999999999-00161-00561102511ADDMA1999999093131MD1110311+9999REMSYN04801359 46/// /2604 11016 21056 39313 40251 51031=
0089013590999992018010721004+60533+008200FM-12+077399999V0202501N005019999999N999999999-00161-00601102581ADDMA1999999093201MD1110251+9999REMSYN04801359 46/// /2505 11016 21060 39320 40258 51025=
0089013590999992018010722004+60533+008200FM-12+077399999V0202601N005019999999N999999999-00091-00561102681ADDMA1999999093311MD1310251+9999REMSYN04801359 46/// /2605 11009 21056 39331 40268 53025=
0089013590999992018010723004+60533+008200FM-12+077399999V0202601N005019999999N999999999-00061-00521102691ADDMA1999999093331MD1110191+9999REMSYN04801359 46/// /2605 11006 21052 39333 40269 51019=
0130013590999992018010800004+60533+008200FM-12+077399999V0202501N004019999999N999999999+00041-00501102661ADDAA106000091MA1999999093331MD1110141+9999OD139901201999REMSYN06401359 16/// /2504 10004 21050 39333 40266 51014 60001 333 91112=
0089013590999992018010801004+60533+008200FM-12+077399999V0202201N003019999999N999999999-00011-00401102771ADDMA1999999093421MD1310101+9999REMSYN04801359 46/// /2203 11001 21040 39342 40277 53010=
0089013590999992018010802004+60533+008200FM-12+077399999V0202401N003019999999N999999999+00011-00341102821ADDMA1999999093471MD1310131+9999REMSYN04801359 46/// /2403 10001 21034 39347 40282 53013=
0089013590999992018010803004+60533+008200FM-12+077399999V0202001N002019999999N999999999+00021-00271102891ADDMA1999999093541MD1310201+9999REMSYN04801359 46/// /2002 10002 21027 39354 40289 53020=
0089013590999992018010804004+60533+008200FM-12+077399999V0202301N003019999999N999999999+00101-00261102911ADDMA1999999093581MD1210161+9999REMSYN04801359 46/// /2303 10010 21026 39358 40291 52016=
0089013590999992018010805004+60533+008200FM-12+077399999V0202401N005019999999N999999999+00001-00381103011ADDMA1999999093641MD1210181+9999REMSYN04801359 46/// /2405 10000 21038 39364 40301 52018=
0309013590999992018010806004+60533+008200FM-12+077399999V0202101N006012200019N070001199-00051-00381103121ADDAA112000091AA224000431AJ100683100680099AY111021AY201021GA1011+012501061GA2999+999999021GE19AGL   +99999+99999GF103991011999012501999999IA1289KA1240N-00191MA1999999093721MD1310181+9999MW1021OD139901201999REMSYN09401359 11689 32106 11005 21038 39372 40312 53018 60002 70210 81508 333 21019 48068 70004 91112=
0089013590999992018010807004+60533+008200FM-12+077399999V0202401N005019999999N999999999-00021-00381103131ADDMA1999999093741MD1990171+9999REMSYN04801359 46/// /2405 11002 21038 39374 40313 50017=
0089013590999992018010808004+60533+008200FM-12+077399999V0201801N002019999999N999999999-00101-00591103221ADDMA1999999093791MD1310151+9999REMSYN04801359 46/// /1802 11010 21059 39379 40322 53015=
0089013590999992018010809004+60533+008200FM-12+077399999V0202301N004019999999N999999999-00111-00691103231ADDMA1999999093801MD1310081+9999REMSYN04801359 46/// /2304 11011 21069 39380 40323 53008=
0089013590999992018010810004+60533+008200FM-12+077399999V0202601N001019999999N999999999-00141-00781103271ADDMA1999999093831MD1310091+9999REMSYN04801359 46/// /2601 11014 21078 39383 40327 53009=
0089013590999992018010811004+60533+008200FM-12+077399999V0202501N003019999999N999999999-00171-00811103301ADDMA1999999093851MD1310061+9999REMSYN04801359 46/// /2503 11017 21081 39385 40330 53006=
0244013590999992018010812004+60533+008200FM-12+077399999V0202601N003012200019N050000199-00261-00801103321ADDAA106000091AY111021AY201021GA1021+999999031GA2999+999999021GE19AGL   +99999+99999GF104991021999999999999999MA1999999093841MD1990031+9999MW1021OD139901201999REMSYN07601359 11984 42603 11026 21080 39384 40332 50003 60001 70210 82048 333 91112=
0089013590999992018010813004+60533+008200FM-12+077399999V0202701N003019999999N999999999-00251-00811103291ADDMA1999999093811MD1810031+9999REMSYN04801359 46/// /2703 11025 21081 39381 40329 58003=
0089013590999992018010814004+60533+008200FM-12+077399999V0202801N003019999999N999999999-00301-00891103281ADDMA1999999093791MD1610061+9999REMSYN04801359 46/// /2803 11030 21089 39379 40328 56006=
0089013590999992018010815004+60533+008200FM-12+077399999V0202501N005019999999N999999999-00331-00811103321ADDMA1999999093811MD1510031+9999REMSYN04801359 46/// /2505 11033 21081 39381 40332 55003=
0089013590999992018010816004+60533+008200FM-12+077399999V0202501N003019999999N999999999-00401-00951103371ADDMA1999999093831MD1310021+9999REMSYN04801359 46/// /2503 11040 21095 39383 40337 53002=
0089013590999992018010817004+60533+008200FM-12+077399999V0202801N004019999999N999999999-00381-00951103351ADDMA1999999093831MD1990041+9999REMSYN04801359 46/// /2804 11038 21095 39383 40335 50004=
0263013590999992018010818004+60533+008200FM-12+077399999V0202601N003012200019N070001199-00501-01031103411ADDAA112000091AY111021AY201021GA1011+999999031GA2999+999999001GE19AGL   +99999+99999GF102991011999999999999999KA1120M+00021MA1999999093831MD1990021+9999MW1021OD139900901999REMSYN08201359 11989 22603 11050 21103 39383 40341 50002 60002 70210 81041 333 10002 91109=
0089013590999992018010819004+60533+008200FM-12+077399999V0202801N003019999999N999999999-00561-01121103451ADDMA1999999093851MD1310021+9999REMSYN04801359 46/// /2803 11056 21112 39385 40345 53002=
0089013590999992018010820004+60533+008200FM-12+077399999V0202101N002019999999N999999999-00721-01281103551ADDMA1999999093881MD1310061+9999REMSYN04801359 46/// /2102 11072 21128 39388 40355 53006=
0089013590999992018010821004+60533+008200FM-12+077399999V0202201N001019999999N999999999-00801-01411103571ADDMA1999999093881MD1210051+9999REMSYN04801359 46/// /2201 11080 21141 39388 40357 52005=
0089013590999992018010822004+60533+008200FM-12+077399999V0202201N002019999999N999999999-00721-01451103501ADDMA1999999093851MD1990001+9999REMSYN04801359 46/// /2202 11072 21145 39385 40350 50000=
0089013590999992018010823004+60533+008200FM-12+077399999V0202401N003019999999N999999999-00821-01531103511ADDMA1999999093821MD1810061+9999REMSYN04801359 46/// /2403 11082 21153 39382 40351 58006=
0130013590999992018010900004+60533+008200FM-12+077399999V0202201N001019999999N999999999-01011-01611103591ADDAA106000091MA1999999093831MD1610051+9999OD139900701999REMSYN06401359 16/// /2201 11101 21161 39383 40359 56005 60001 333 91107=
0089013590999992018010901004+60533+008200FM-12+077399999V0202101N002019999999N999999999-00981-01661103531ADDMA1999999093781MD1810061+9999REMSYN04801359 46/// /2102 11098 21166 39378 40353 58006=
0089013590999992018010902004+60533+008200FM-12+077399999V0202201N002019999999N999999999-01141-01731103591ADDMA1999999093781MD1810041+9999REMSYN04801359 46/// /2202 11114 21173 39378 40359 58004=
0089013590999992018010903004+60533+008200FM-12+077399999V0202301N002019999999N999999999-01481-02011103701ADDMA1999999093751MD1810081+9999REMSYN04801359 46/// /2302 11148 21201 39375 40370 58008=
0089013590999992018010904004+60533+008200FM-12+077399999V0202201N002019999999N999999999-01301-01821103601ADDMA1999999093731MD1810051+9999REMSYN04801359 46/// /2202 11130 21182 39373 40360 58005=
0089013590999992018010905004+60533+008200FM-12+077399999V0200701N001019999999N999999999-01221-01811103521ADDMA1999999093691MD1710091+9999REMSYN04801359 46/// /0701 11122 21181 39369 40352 57009=
0312013590999992018010906004+60533+008200FM-12+077399999V0202501N001012200019N070001199-01451-01851103601ADDAA112000091AA224000091AJ100653100650099AY101021AY201021GA1999+999999001GE19AGL   +99999+99999GF101991001999999999999999IA1289KA1240N-01551MA1999999093681MD1710071+9999MW1021OD139900401999REMSYN09401359 11989 12501 11145 21185 39368 40360 57007 60002 70200 80001 333 21155 48065 70000 91104=EQDQ01    003SCCGA1
0089013590999992018010907004+60533+008200FM-12+077399999V0209999C999999999999N999999999-01451-01831103581ADDMA1999999093661MD1710071+9999REMSYN04801359 46/// /0000 11145 21183 39366 40358 57007=
0089013590999992018010908004+60533+008200FM-12+077399999V0202301N001019999999N999999999-01501-01881103601ADDMA1999999093661MD1710041+9999REMSYN04801359 46/// /2301 11150 21188 39366 40360 57004=
0089013590999992018010909004+60533+008200FM-12+077399999V0209999C999999999999N999999999-01601-01951103631ADDMA1999999093651MD1710031+9999REMSYN04801359 46/// /0000 11160 21195 39365 40363 57003=
0089013590999992018010910004+60533+008200FM-12+077399999V0209999C999999999999N999999999-01731-02051103691ADDMA1999999093661MD1510011+9999REMSYN04801359 46/// /0000 11173 21205 39366 40369 55001=
0108013590999992018010911004+60533+008200FM-12+077399999V0202501N001019999999N999999999-01651-02011103661ADDMA1999999093661MD1290069+9999REMSYN04801359 46/// /2501 11165 21201 39366 40366 54001=EQDQ01.1    3APC3  
0247013590999992018010912004+60533+008200FM-12+077399999V0202301N002012200019N070001199-01541-01931103551ADDAA106000231AY101021AY201021GA1999+999999021GE19AGL   +99999+99999GF101991001999999999999999MA1999999093601MD1810051+9999MW1021OD139900301999REMSYN07601359 11989 12302 11154 21193 39360 40355 58005 69921 70200 80008 333 91103=EQDQ01    003SCCGA1
0089013590999992018010913004+60533+008200FM-12+077399999V0202801N001019999999N999999999-01541-01931103491ADDMA1999999093551MD1810121+9999REMSYN04801359 46/// /2801 11154 21193 39355 40349 58012=
0089013590999992018010914004+60533+008200FM-12+077399999V0202201N001019999999N999999999-01781-02201103531ADDMA1999999093491MD1710171+9999REMSYN04801359 46/// /2201 11178 21220 39349 40353 57017=
0089013590999992018010915004+60533+008200FM-12+077399999V0202801N001019999999N999999999-01601-01851103381ADDMA1999999093431MD1710181+9999REMSYN04801359 46/// /2801 11160 21185 39343 40338 57018=
0089013590999992018010916004+60533+008200FM-12+077399999V0203601N001019999999N999999999-01511-01711103321ADDMA1999999093401MD1710151+9999REMSYN04801359 46/// /3601 11151 21171 39340 40332 57015=
0089013590999992018010917004+60533+008200FM-12+077399999V0209999C999999999999N999999999-01881-02041103451ADDMA1999999093381MD1610111+9999REMSYN04801359 46/// /0000 11188 21204 39338 40345 56011=
0203013590999992018010918004+60533+008200FM-12+077399999V0209999C999999999999N070001199-01851-02061103391ADDAA112000091AY101021AY201021GF100995999999999999999999KA1120M-01261MA1999999093341MD1810091+9999MW1021OD139900401999REMSYN07601359 11989 00000 11185 21206 39334 40339 58009 60002 70200 333 11126 91104=
0089013590999992018010919004+60533+008200FM-12+077399999V0209999C999999999999N999999999-02141-02381103491ADDMA1999999093331MD1710071+9999REMSYN04801359 46/// /0000 11214 21238 39333 40349 57007=
0089013590999992018010920004+60533+008200FM-12+077399999V0209999C999999999999N999999999-02021-02241103401ADDMA1999999093291MD1810101+9999REMSYN04801359 46/// /0000 11202 21224 39329 40340 58010=
0089013590999992018010921004+60533+008200FM-12+077399999V0209999C999999999999N999999999-02111-02341103411ADDMA1999999093261MD1810081+9999REMSYN04801359 46/// /0000 11211 21234 39326 40341 58008=
0089013590999992018010922004+60533+008200FM-12+077399999V0202701N001019999999N999999999-02191-02401103401ADDMA1999999093221MD1710101+9999REMSYN04801359 46/// /2701 11219 21240 39322 40340 57010=
0089013590999992018010923004+60533+008200FM-12+077399999V0209999C999999999999N999999999-02101-02321103301ADDMA1999999093171MD1810121+9999REMSYN04801359 46/// /0000 11210 21232 39317 40330 58012=
0130013590999992018011000004+60533+008200FM-12+077399999V0209999C999999999999N999999999-02051-02271103261ADDAA106000091MA1999999093151MD1710111+9999OD139900101999REMSYN06401359 16/// /0000 11205 21227 39315 40326 57011 60001 333 91101=
0089013590999992018011001004+60533+008200FM-12+077399999V0209999C999999999999N999999999-02071-02241103211ADDMA1999999093101MD1810121+9999REMSYN04801359 46/// /0000 11207 21224 39310 40321 58012=
0089013590999992018011002004+60533+008200FM-12+077399999V0202401N001019999999N999999999-02191-02391103221ADDMA1999999093061MD1810111+9999REMSYN04801359 46/// /2401 11219 21239 39306 40322 58011=
0089013590999992018011003004+60533+008200FM-12+077399999V0209999C999999999999N999999999-02151-02391103171ADDMA1999999093031MD1810121+9999REMSYN04801359 46/// /0000 11215 21239 39303 40317 58012=
0089013590999992018011004004+60533+008200FM-12+077399999V0200501N001019999999N999999999-01981-02171103021ADDMA1999999092961MD1810141+9999REMSYN04801359 46/// /0501 11198 21217 39296 40302 58014=
0089013590999992018011005004+60533+008200FM-12+077399999V0202301N001019999999N999999999-02081-02331103051ADDMA1999999092951MD1810111+9999REMSYN04801359 46/// /2301 11208 21233 39295 40305 58011=
0312013590999992018011006004+60533+008200FM-12+077399999V0202201N001012200019N070001199-02061-02291102991ADDAA112000231AA224000231AJ100623100620099AY101021AY201021GA1999+999999021GE19AGL   +99999+99999GF103991001999999999999999IA1289KA1240N-02341MA1999999092901MD1610131+9999MW1031OD139900201999REMSYN09401359 11989 32201 11206 21229 39290 40299 56013 69922 70300 80005 333 21234 48062 70002 91102=EQDQ01    003SCCGA1
0089013590999992018011007004+60533+008200FM-12+077399999V0209999C999999999999N999999999-01981-02191102941ADDMA1999999092891MD1710071+9999REMSYN04801359 46/// /0000 11198 21219 39289 40294 57007=
0089013590999992018011008004+60533+008200FM-12+077399999V0209999C999999999999N999999999-01881-02091102901ADDMA1999999092891MD1510051+9999REMSYN04801359 46/// /0000 11188 21209 39289 40290 55005=
0108013590999992018011009004+60533+008200FM-12+077399999V0202601N001019999999N999999999-01961-02171102951ADDMA1999999092911MD1790049+9999REMSYN04801359 46/// /2601 11196 21217 39291 40295 54001=EQDQ01.1    3APC3  
0089013590999992018011010004+60533+008200FM-12+077399999V0209999C999999999999N999999999-01831-02041102901ADDMA1999999092901MD1210021+9999REMSYN04801359 46/// /0000 11183 21204 39290 40290 52002=
0089013590999992018011011004+60533+008200FM-12+077399999V0201301N001019999999N999999999-01901-02111102881ADDMA1999999092871MD1810021+9999REMSYN04801359 46/// /1301 11190 21211 39287 40288 58002=
0244013590999992018011012004+60533+008200FM-12+077399999V0201001N001019999999N050000199-01611-01771102701ADDAA106000231AY121021AY201021GA1021+999999031GA2999+999999021GE19AGL   +99999+99999GF106991021999999999999999MA1999999092811MD1810101+9999MW1021OD139900201999REMSYN07601359 11984 61001 11161 21177 39281 40270 58010 69921 70220 82056 333 91102=
0089013590999992018011013004+60533+008200FM-12+077399999V0201301N001019999999N999999999-01201-01351102511ADDMA1999999092781MD1710121+9999REMSYN04801359 46/// /1301 11120 21135 39278 40251 57012=
0089013590999992018011014004+60533+008200FM-12+077399999V0200501N001019999999N999999999-00881-01001102351ADDMA1999999092741MD1610131+9999REMSYN04801359 46/// /0501 11088 21100 39274 40235 56013=
0089013590999992018011015004+60533+008200FM-12+077399999V0200501N003019999999N999999999-00571-00901102221ADDMA1999999092731MD1710081+9999REMSYN04801359 46/// /0503 11057 21090 39273 40222 57008=
0089013590999992018011016004+60533+008200FM-12+077399999V0200801N001019999999N999999999-00591-01001102211ADDMA1999999092721MD1710061+9999REMSYN04801359 46/// /0801 11059 21100 39272 40221 57006=
0089013590999992018011017004+60533+008200FM-12+077399999V0200601N003019999999N999999999-00491-00971102101ADDMA1999999092651MD1810091+9999REMSYN04801359 46/// /0603 11049 21097 39265 40210 58009=
0266013590999992018011018004+60533+008200FM-12+077399999V0200901N002019999999N012000199-00511-00941102131ADDAA112999999AY171021AY221021GA1081+004501051GE19AGL   +99999+99999GF108991081999004501999999KA1120M-00481MA1999999092671MD1510061+9999MW1781OD139900701999REMSYN08201359 11462 80902 11051 21094 39267 40213 55006 60002 77872 8802/ 333 11048 91107=EQDQ01  00002PRCP12
0089013590999992018011019004+60533+008200FM-12+077399999V0200701N002019999999N999999999-00551-00881102121ADDMA1999999092651MD1610071+9999REMSYN04801359 46/// /0702 11055 21088 39265 40212 56007=
0089013590999992018011020004+60533+008200FM-12+077399999V0200601N003019999999N999999999-00491-00761102121ADDMA1999999092671MD1990021+9999REMSYN04801359 46/// /0603 11049 21076 39267 40212 50002=
0089013590999992018011021004+60533+008200FM-12+077399999V0200601N002019999999N999999999-00541-00691102161ADDMA1999999092691MD1310021+9999REMSYN04801359 46/// /0602 11054 21069 39269 40216 53002=
0089013590999992018011022004+60533+008200FM-12+077399999V0200901N001019999999N999999999-00571-00681102201ADDMA1999999092721MD1210071+9999REMSYN04801359 46/// /0901 11057 21068 39272 40220 52007=
0089013590999992018011023004+60533+008200FM-12+077399999V0200901N001019999999N999999999-00541-00691102251ADDMA1999999092771MD1210101+9999REMSYN04801359 46/// /0901 11054 21069 39277 40225 52010=
0130013590999992018011100004+60533+008200FM-12+077399999V0201201N001019999999N999999999-00561-00681102311ADDAA106000531MA1999999092811MD1210121+9999OD139900801999REMSYN06401359 16/// /1201 11056 21068 39281 40231 52012 69951 333 91108=
0089013590999992018011101004+60533+008200FM-12+077399999V0202401N001019999999N999999999-00551-00691102351ADDMA1999999092861MD1110141+9999REMSYN04801359 46/// /2401 11055 21069 39286 40235 51014=
0089013590999992018011102004+60533+008200FM-12+077399999V0209999C999999999999N999999999-00551-00691102381ADDMA1999999092891MD1310111+9999REMSYN04801359 46/// /0000 11055 21069 39289 40238 53011=
0089013590999992018011103004+60533+008200FM-12+077399999V0209999C999999999999N999999999-00541-00661102391ADDMA1999999092901MD1210081+9999REMSYN04801359 46/// /0000 11054 21066 39290 40239 52008=
0089013590999992018011104004+60533+008200FM-12+077399999V0209999C999999999999N999999999-00541-00661102381ADDMA1999999092891MD1310031+9999REMSYN04801359 46/// /0000 11054 21066 39289 40238 53003=
0089013590999992018011105004+60533+008200FM-12+077399999V0209999C999999999999N999999999-00541-00661102401ADDMA1999999092911MD1210021+9999REMSYN04801359 46/// /0000 11054 21066 39291 40240 52002=
0293013590999992018011106004+60533+008200FM-12+077399999V0202401N001019999999N024000199-00561-00671102451ADDAA112000431AA224000431AJ100623100620099AY171021AY221021GA1081+004501061GE19AGL   +99999+99999GF108991081999004501999999IA1289KA1240N-00571MA1999999092951MD1310051+9999MW1021OD139900301999REMSYN09401359 11474 82401 11056 21067 39295 40245 53005 69942 70272 885// 333 21057 48062 70004 91103=
0089013590999992018011107004+60533+008200FM-12+077399999V0209999C999999999999N999999999-00551-00651102471ADDMA1999999092971MD1210081+9999REMSYN04801359 46/// /0000 11055 21065 39297 40247 52008=
0089013590999992018011108004+60533+008200FM-12+077399999V0209999C999999999999N999999999-00551-00651102531ADDMA1999999093021MD1210111+9999REMSYN04801359 46/// /0000 11055 21065 39302 40253 52011=
0089013590999992018011109004+60533+008200FM-12+077399999V0209999C999999999999N999999999-00531-00611102591ADDMA1999999093081MD1310131+9999REMSYN04801359 46/// /0000 11053 21061 39308 40259 53013=
0089013590999992018011110004+60533+008200FM-12+077399999V0202101N001019999999N999999999-00501-00601102651ADDMA1999999093141MD1210171+9999REMSYN04801359 46/// /2101 11050 21060 39314 40265 52017=
0089013590999992018011111004+60533+008200FM-12+077399999V0209999C999999999999N999999999-00401-00551102641ADDMA1999999093171MD1210151+9999REMSYN04801359 46/// /0000 11040 21055 39317 40264 52015=
0228013590999992018011112004+60533+008200FM-12+077399999V0202201N001019999999N007000199-00391-00551102671ADDAA106001031AY171021AY271021GA1081+004501051GE19AGL   +99999+99999GF108991081999004501999999MA1999999093211MD1210131+9999MW1711OD139900201999REMSYN07601359 11457 82201 11039 21055 39321 40267 52013 60011 77177 8802/ 333 91102=
0089013590999992018011113004+60533+008200FM-12+077399999V0209999C999999999999N999999999-00351-00541102701ADDMA1999999093241MD1210101+9999REMSYN04801359 46/// /0000 11035 21054 39324 40270 52010=
0089013590999992018011114004+60533+008200FM-12+077399999V0202701N001019999999N999999999-00441-00581102801ADDMA1999999093311MD1310141+9999REMSYN04801359 46/// /2701 11044 21058 39331 40280 53014=
0089013590999992018011115004+60533+008200FM-12+077399999V0201701N001019999999N999999999-00561-00701102911ADDMA1999999093361MD1310161+9999REMSYN04801359 46/// /1701 11056 21070 39336 40291 53016=
0089013590999992018011116004+60533+008200FM-12+077399999V0200201N001019999999N999999999-00661-00761102991ADDMA1999999093401MD1210161+9999REMSYN04801359 46/// /0201 11066 21076 39340 40299 52016=
0089013590999992018011117004+60533+008200FM-12+077399999V0201701N001019999999N999999999-00831-00911103131ADDMA1999999093471MD1210161+9999REMSYN04801359 46/// /1701 11083 21091 39347 40313 52016=
0263013590999992018011118004+60533+008200FM-12+077399999V0209999C999999999999N060000199-00851-00961103201ADDAA112001031AY171021AY221021GA1031+012501061GA2999+999999031GE19AGL   +99999+99999GF105991031999012501999999KA1120M-00281MA1999999093521MD1210161+9999MW1021OD139900201999REMSYN08201359 11686 50000 11085 21096 39352 40320 52016 60012 70272 83530 333 11028 91102=
0089013590999992018011119004+60533+008200FM-12+077399999V0209999C999999999999N999999999-00881-01001103261ADDMA1999999093571MD1210171+9999REMSYN04801359 46/// /0000 11088 21100 39357 40326 52017=
0089013590999992018011120004+60533+008200FM-12+077399999V0209999C999999999999N999999999-01041-01161103351ADDMA1999999093601MD1210131+9999REMSYN04801359 46/// /0000 11104 21116 39360 40335 52013=
0089013590999992018011121004+60533+008200FM-12+077399999V0202201N001019999999N999999999-01001-01121103431ADDMA1999999093681MD1310161+9999REMSYN04801359 46/// /2201 11100 21112 39368 40343 53016=
0089013590999992018011122004+60533+008200FM-12+077399999V0202101N001019999999N999999999-00961-01081103491ADDMA1999999093751MD1310181+9999REMSYN04801359 46/// /2101 11096 21108 39375 40349 53018=
0089013590999992018011123004+60533+008200FM-12+077399999V0209999C999999999999N999999999-00931-01051103531ADDMA1999999093801MD1210201+9999REMSYN04801359 46/// /0000 11093 21105 39380 40353 52020=
0130013590999992018011200004+60533+008200FM-12+077399999V0209999C999999999999N999999999-00921-01041103581ADDAA106000091MA1999999093851MD1210161+9999OD139900301999REMSYN06401359 16/// /0000 11092 21104 39385 40358 52016 60001 333 91103=
0089013590999992018011201004+60533+008200FM-12+077399999V0202101N001019999999N999999999-00991-01121103651ADDMA1999999093881MD1210131+9999REMSYN04801359 46/// /2101 11099 21112 39388 40365 52013=
0089013590999992018011202004+60533+008200FM-12+077399999V0209999C999999999999N999999999-01101-01251103761ADDMA1999999093941MD1210151+9999REMSYN04801359 46/// /0000 11110 21125 39394 40376 52015=
0089013590999992018011203004+60533+008200FM-12+077399999V0209999C999999999999N999999999-01131-01281103821ADDMA1999999093991MD1210141+9999REMSYN04801359 46/// /0000 11113 21128 39399 40382 52014=
0089013590999992018011204004+60533+008200FM-12+077399999V0209999C999999999999N999999999-01241-01411103881ADDMA1999999094011MD1210121+9999REMSYN04801359 46/// /0000 11124 21141 39401 40388 52012=
0089013590999992018011205004+60533+008200FM-12+077399999V0209999C999999999999N999999999-01311-01441103941ADDMA1999999094031MD1210091+9999REMSYN04801359 46/// /0000 11131 21144 39403 40394 52009=
0293013590999992018011206004+60533+008200FM-12+077399999V0200301N001012200019N070001199-01431-01661104021ADDAA112000091AA224001031AJ100633100630099AY121021AY201021GA1011+999999031GE19AGL   +99999+99999GF101991011999999999999999IA1289KA1240N-01431MA1999999094061MD1210081+9999MW1021OD139900301999REMSYN09401359 11989 10301 11143 21166 39406 40402 52008 60002 70220 81030 333 21143 48063 70010 91103=
0089013590999992018011207004+60533+008200FM-12+077399999V0209999C999999999999N999999999-01311-01431104041ADDMA1999999094121MD1310121+9999REMSYN04801359 46/// /0000 11131 21143 39412 40404 53012=
0089013590999992018011208004+60533+008200FM-12+077399999V0209999C999999999999N999999999-01391-01551104091ADDMA1999999094141MD1210111+9999REMSYN04801359 46/// /0000 11139 21155 39414 40409 52011=
0089013590999992018011209004+60533+008200FM-12+077399999V0209999C999999999999N999999999-01031-01141103981ADDMA1999999094171MD1110111+9999REMSYN04801359 46/// /0000 11103 21114 39417 40398 51011=
0089013590999992018011210004+60533+008200FM-12+077399999V0209999C999999999999N999999999-00911-01031103971ADDMA1999999094201MD1210081+9999REMSYN04801359 46/// /0000 11091 21103 39420 40397 52008=
0089013590999992018011211004+60533+008200FM-12+077399999V0209999C999999999999N999999999-00721-00821103921ADDMA1999999094231MD1210091+9999REMSYN04801359 46/// /0000 11072 21082 39423 40392 52009=
0260013590999992018011212004+60533+008200FM-12+077399999V0209999C999999999999N026000199-00671-00771103911ADDAA106000231AY181021AY221021GA1061+008001061GA2999+999999031GA3999+999999021GE19AGL   +99999+99999GF108991061999008001999999MA1999999094231MD1990061+9999MW1261OD139900201999REMSYN07601359 11576 80000 11067 21077 39423 40391 50006 69921 72682 86537 333 91102=
0089013590999992018011213004+60533+008200FM-12+077399999V0202301N001019999999N999999999-00651-00801103901ADDMA1999999094231MD1990031+9999REMSYN04801359 46/// /2301 11065 21080 39423 40390 50003=
0089013590999992018011214004+60533+008200FM-12+077399999V0209999C999999999999N999999999-00621-00741103901ADDMA1999999094241MD1210021+9999REMSYN04801359 46/// /0000 11062 21074 39424 40390 52002=
0089013590999992018011215004+60533+008200FM-12+077399999V0209999C999999999999N999999999-00651-00771103901ADDMA1999999094231MD1410001+9999REMSYN04801359 46/// /0000 11065 21077 39423 40390 54000=
0089013590999992018011216004+60533+008200FM-12+077399999V0209999C999999999999N999999999-00621-00721103901ADDMA1999999094251MD1210021+9999REMSYN04801359 46/// /0000 11062 21072 39425 40390 52002=
0108013590999992018011217004+60533+008200FM-12+077399999V0209999C999999999999N999999999-00631-00741103921ADDMA1999999094251MD1290029+9999REMSYN04801359 46/// /0000 11063 21074 39425 40392 54001=EQDQ01.1    3APC3  
0263013590999992018011218004+60533+008200FM-12+077399999V0209999C999999999999N020000199-00641-00741103941ADDAA112000231AY121021AY221021GA1041+004501071GA2999+999999031GE19AGL   +99999+99999GF108991041999004501999999KA1120M-00621MA1999999094271MD1210031+9999MW1021OD139900201999REMSYN08201359 11470 80000 11064 21074 39427 40394 52003 69922 70222 8467/ 333 11062 91102=
0089013590999992018011219004+60533+008200FM-12+077399999V0209999C999999999999N999999999-00631-00731103961ADDMA1999999094291MD1210041+9999REMSYN04801359 46/// /0000 11063 21073 39429 40396 52004=
0089013590999992018011220004+60533+008200FM-12+077399999V0202101N001019999999N999999999-00631-00731103971ADDMA1999999094301MD1210041+9999REMSYN04801359 46/// /2101 11063 21073 39430 40397 52004=
0089013590999992018011221004+60533+008200FM-12+077399999V0202301N001019999999N999999999-00651-00771103981ADDMA1999999094301MD1210041+9999REMSYN04801359 46/// /2301 11065 21077 39430 40398 52004=
0089013590999992018011222004+60533+008200FM-12+077399999V0209999C999999999999N999999999-00651-00761103961ADDMA1999999094291MD1990001+9999REMSYN04801359 46/// /0000 11065 21076 39429 40396 50000=
0089013590999992018011223004+60533+008200FM-12+077399999V0209999C999999999999N999999999-00671-00781103971ADDMA1999999094281MD1710011+9999REMSYN04801359 46/// /0000 11067 21078 39428 40397 57001=
0130013590999992018011300004+60533+008200FM-12+077399999V0200901N001019999999N999999999-00681-00801103941ADDAA106000091MA1999999094261MD1710051+9999OD139900201999REMSYN06401359 16/// /0901 11068 21080 39426 40394 57005 60001 333 91102=
0089013590999992018011301004+60533+008200FM-12+077399999V0201501N002019999999N999999999-00741-00871103961ADDMA1999999094251MD1710031+9999REMSYN04801359 46/// /1502 11074 21087 39425 40396 57003=
0089013590999992018011302004+60533+008200FM-12+077399999V0201301N001019999999N999999999-00771-00891103991ADDMA1999999094271MD1510021+9999REMSYN04801359 46/// /1301 11077 21089 39427 40399 55002=
0089013590999992018011303004+60533+008200FM-12+077399999V0201201N001019999999N999999999-00811-00921103981ADDMA1999999094251MD1710011+9999REMSYN04801359 46/// /1201 11081 21092 39425 40398 57001=
0089013590999992018011304004+60533+008200FM-12+077399999V0201201N001019999999N999999999-00861-00971104011ADDMA1999999094251MD1410001+9999REMSYN04801359 46/// /1201 11086 21097 39425 40401 54000=
0089013590999992018011305004+60533+008200FM-12+077399999V0201101N001019999999N999999999-00911-01021104011ADDMA1999999094241MD1710031+9999REMSYN04801359 46/// /1101 11091 21102 39424 40401 57003=
0293013590999992018011306004+60533+008200FM-12+077399999V0200901N001019999999N016000199-00891-01011104021ADDAA112000091AA224000091AJ100613100610099AY121021AY221021GA1081+001501071GE19AGL   +99999+99999GF108991081999001501999999IA1289KA1240N-00911MA1999999094261MD1210011+9999MW1021OD139900301999REMSYN09401359 11266 80901 11089 21101 39426 40402 52001 60002 70222 886// 333 21091 48061 70000 91103=
0089013590999992018011307004+60533+008200FM-12+077399999V0201201N001019999999N999999999-00931-01051104051ADDMA1999999094271MD1310021+9999REMSYN04801359 46/// /1201 11093 21105 39427 40405 53002=
0089013590999992018011308004+60533+008200FM-12+077399999V0201401N001019999999N999999999-00941-01071104051ADDMA1999999094271MD1210031+9999REMSYN04801359 46/// /1401 11094 21107 39427 40405 52003=
0089013590999992018011309004+60533+008200FM-12+077399999V0201601N001019999999N999999999-00951-01121104051ADDMA1999999094261MD1410001+9999REMSYN04801359 46/// /1601 11095 21112 39426 40405 54000=
0089013590999992018011310004+60533+008200FM-12+077399999V0203601N001019999999N999999999-00941-01121104031ADDMA1999999094251MD1710021+9999REMSYN04801359 46/// /3601 11094 21112 39425 40403 57002=
0089013590999992018011311004+60533+008200FM-12+077399999V0202301N001019999999N999999999-00931-01111104021ADDMA1999999094241MD1710031+9999REMSYN04801359 46/// /2301 11093 21111 39424 40402 57003=
0247013590999992018011312004+60533+008200FM-12+077399999V0202401N002019999999N018000199-00901-01101103931ADDAA106999999AY171021AY221021GA1081+002501051GE19AGL   +99999+99999GF108991081999002501999999MA1999999094171MD1810091+9999MW1711OD139900301999REMSYN07601359 11368 82402 11090 21110 39417 40393 58009 60001 77172 8802/ 333 91103=EQDQ01  00002PRCP06
0089013590999992018011313004+60533+008200FM-12+077399999V0202201N001019999999N999999999-00861-01071103841ADDMA1999999094111MD1810141+9999REMSYN04801359 46/// /2201 11086 21107 39411 40384 58014=
0089013590999992018011314004+60533+008200FM-12+077399999V0200501N001019999999N999999999-00841-01051103791ADDMA1999999094061MD1710181+9999REMSYN04801359 46/// /0501 11084 21105 39406 40379 57018=
0089013590999992018011315004+60533+008200FM-12+077399999V0209999C999999999999N999999999-00871-01071103791ADDMA1999999094051MD1610121+9999REMSYN04801359 46/// /0000 11087 21107 39405 40379 56012=
0089013590999992018011316004+60533+008200FM-12+077399999V0200701N001019999999N999999999-00891-01051103761ADDMA1999999094021MD1610081+9999REMSYN04801359 46/// /0701 11089 21105 39402 40376 56008=
0089013590999992018011317004+60533+008200FM-12+077399999V0209999C999999999999N999999999-00911-01041103781ADDMA1999999094031MD1710031+9999REMSYN04801359 46/// /0000 11091 21104 39403 40378 57003=
0266013590999992018011318004+60533+008200FM-12+077399999V0202001N001019999999N016000199-00961-01081103791ADDAA112999999AY171021AY221021GA1071+002501061GE19AGL   +99999+99999GF107991071999002501999999KA1120M-00841MA1999999094021MD1710031+9999MW1781OD139900301999REMSYN08201359 11366 72001 11096 21108 39402 40379 57003 60002 77872 87500 333 11084 91103=EQDQ01  00002PRCP12
0089013590999992018011319004+60533+008200FM-12+077399999V0201501N001019999999N999999999-00991-01121103781ADDMA1999999094001MD1810021+9999REMSYN04801359 46/// /1501 11099 21112 39400 40378 58002=
0089013590999992018011320004+60533+008200FM-12+077399999V0200901N001019999999N999999999-00981-01101103721ADDMA1999999093951MD1810081+9999REMSYN04801359 46/// /0901 11098 21110 39395 40372 58008=
0089013590999992018011321004+60533+008200FM-12+077399999V0201001N001019999999N999999999-00991-01111103681ADDMA1999999093921MD1710101+9999REMSYN04801359 46/// /1001 11099 21111 39392 40368 57010=
0089013590999992018011322004+60533+008200FM-12+077399999V0203301N001019999999N999999999-00941-01061103611ADDMA1999999093871MD1710131+9999REMSYN04801359 46/// /3301 11094 21106 39387 40361 57013=
0089013590999992018011323004+60533+008200FM-12+077399999V0202501N001019999999N999999999-00941-01061103611ADDMA1999999093861MD1710091+9999REMSYN04801359 46/// /2501 11094 21106 39386 40361 57009=
0130013590999992018011400004+60533+008200FM-12+077399999V0209999C999999999999N999999999-00951-01071103551ADDAA106000091MA1999999093811MD1810101+9999OD139900201999REMSYN06401359 16/// /0000 11095 21107 39381 40355 58010 60001 333 91102=
0089013590999992018011401004+60533+008200FM-12+077399999V0200601N001019999999N999999999-00931-01051103481ADDMA1999999093751MD1810121+9999REMSYN04801359 46/// /0601 11093 21105 39375 40348 58012=
0089013590999992018011402004+60533+008200FM-12+077399999V0202301N001019999999N999999999-00921-01051103431ADDMA1999999093711MD1710151+9999REMSYN04801359 46/// /2301 11092 21105 39371 40343 57015=
0089013590999992018011403004+60533+008200FM-12+077399999V0209999C999999999999N999999999-00931-01061103371ADDMA1999999093661MD1710161+9999REMSYN04801359 46/// /0000 11093 21106 39366 40337 57016=
0089013590999992018011404004+60533+008200FM-12+077399999V0209999C999999999999N999999999-00921-01051103301ADDMA1999999093591MD1810161+9999REMSYN04801359 46/// /0000 11092 21105 39359 40330 58016=
0089013590999992018011405004+60533+008200FM-12+077399999V0201101N001019999999N999999999-00921-01051103241ADDMA1999999093541MD1710171+9999REMSYN04801359 46/// /1101 11092 21105 39354 40324 57017=
0293013590999992018011406004+60533+008200FM-12+077399999V0209999C999999999999N020000199-00921-01041103211ADDAA112000091AA224000231AJ100613100610099AY121021AY221021GA1081+002501061GE19AGL   +99999+99999GF108991081999002501999999IA1289KA1240N-01001MA1999999093511MD1610151+9999MW1021OD139900201999REMSYN09401359 11370 80000 11092 21104 39351 40321 56015 60002 70222 885// 333 21100 48061 70002 91102=
0089013590999992018011407004+60533+008200FM-12+077399999V0200601N001019999999N999999999-00931-01051103141ADDMA1999999093441MD1810151+9999REMSYN04801359 46/// /0601 11093 21105 39344 40314 58015=
0089013590999992018011408004+60533+008200FM-12+077399999V0209999C999999999999N999999999-00951-01071103071ADDMA1999999093371MD1810161+9999REMSYN04801359 46/// /0000 11095 21107 39337 40307 58016=
0089013590999992018011409004+60533+008200FM-12+077399999V0200801N001019999999N999999999-00891-01011102991ADDMA1999999093331MD1710181+9999REMSYN04801359 46/// /0801 11089 21101 39333 40299 57018=
0089013590999992018011410004+60533+008200FM-12+077399999V0201901N005019999999N999999999-00591-01051102861ADDMA1999999093311MD1510131+9999REMSYN04801359 46/// /1905 11059 21105 39331 40286 55013=
0089013590999992018011411004+60533+008200FM-12+077399999V0202601N003019999999N999999999-00541-01001102751ADDMA1999999093231MD1810141+9999REMSYN04801359 46/// /2603 11054 21100 39323 40275 58014=
0228013590999992018011412004+60533+008200FM-12+077399999V0201901N004012200019N035000199-00541-01051102671ADDAA106000091AY121021AY201021GA1031+008001081GE19AGL   +99999+99999GF103991031999008001999999MA1999999093151MD1810181+9999MW1011OD139901101999REMSYN07601359 11581 31904 11054 21105 39315 40267 58018 60001 70120 83800 333 91111=
0089013590999992018011413004+60533+008200FM-12+077399999V0202101N003019999999N999999999-00601-01041102631ADDMA1999999093101MD1710211+9999REMSYN04801359 46/// /2103 11060 21104 39310 40263 57021=
0089013590999992018011414004+60533+008200FM-12+077399999V0202001N003019999999N999999999-00561-00991102531ADDMA1999999093021MD1810211+9999REMSYN04801359 46/// /2003 11056 21099 39302 40253 58021=
0089013590999992018011415004+60533+008200FM-12+077399999V0202201N003019999999N999999999-00551-00911102401ADDMA1999999092911MD1810241+9999REMSYN04801359 46/// /2203 11055 21091 39291 40240 58024=
0089013590999992018011416004+60533+008200FM-12+077399999V0202501N003019999999N999999999-00551-00841102261ADDMA1999999092781MD1810321+9999REMSYN04801359 46/// /2503 11055 21084 39278 40226 58032=
0089013590999992018011417004+60533+008200FM-12+077399999V0202701N002019999999N999999999-00571-00861102161ADDMA1999999092681MD1810331+9999REMSYN04801359 46/// /2702 11057 21086 39268 40216 58033=
0247013590999992018011418004+60533+008200FM-12+077399999V0201601N002019999999N008000199-00611-00841102061ADDAA112000531AY181021AY271021GA1081+004501051GE19AGL   +99999+99999GF108991081999004501999999KA1120M-00521MA1999999092581MD1710331+9999MW1711OD139900901999REMSYN08201359 11458 81602 11061 21084 39258 40206 57033 69952 77187 8802/ 333 11052 91109=
0089013590999992018011419004+60533+008200FM-12+077399999V0202201N001019999999N999999999-00631-00831101971ADDMA1999999092491MD1810291+9999REMSYN04801359 46/// /2201 11063 21083 39249 40197 58029=
0089013590999992018011420004+60533+008200FM-12+077399999V0202701N001019999999N999999999-00561-00891101871ADDMA1999999092411MD1710271+9999REMSYN04801359 46/// /2701 11056 21089 39241 40187 57027=
0089013590999992018011421004+60533+008200FM-12+077399999V0202401N003019999999N999999999-00581-00881101771ADDMA1999999092321MD1710251+9999REMSYN04801359 46/// /2403 11058 21088 39232 40177 57025=
0089013590999992018011422004+60533+008200FM-12+077399999V0202801N002019999999N999999999-00581-00881101671ADDMA1999999092231MD1810261+9999REMSYN04801359 46/// /2802 11058 21088 39223 40167 58026=
0089013590999992018011423004+60533+008200FM-12+077399999V0203201N002019999999N999999999-00561-00911101561ADDMA1999999092141MD1710271+9999REMSYN04801359 46/// /3202 11056 21091 39214 40156 57027=
0130013590999992018011500004+60533+008200FM-12+077399999V0200301N003019999999N999999999-00541-00871101411ADDAA106000091MA1999999092001MD1810321+9999OD139900701999REMSYN06401359 16/// /0303 11054 21087 39200 40141 58032 60001 333 91107=
0089013590999992018011501004+60533+008200FM-12+077399999V0201601N002019999999N999999999-00501-00831101251ADDMA1999999091871MD1810361+9999REMSYN04801359 46/// /1602 11050 21083 39187 40125 58036=
0089013590999992018011502004+60533+008200FM-12+077399999V0201501N003019999999N999999999-00461-00861101091ADDMA1999999091751MD1710401+9999REMSYN04801359 46/// /1503 11046 21086 39175 40109 57040=
0089013590999992018011503004+60533+008200FM-12+077399999V0201501N003019999999N999999999-00431-00811100921ADDMA1999999091601MD1810401+9999REMSYN04801359 46/// /1503 11043 21081 39160 40092 58040=
0089013590999992018011504004+60533+008200FM-12+077399999V0202001N005019999999N999999999-00411-00811100811ADDMA1999999091511MD1710371+9999REMSYN04801359 46/// /2005 11041 21081 39151 40081 57037=
0089013590999992018011505004+60533+008200FM-12+077399999V0202201N005019999999N999999999-00421-00851100721ADDMA1999999091421MD1610331+9999REMSYN04801359 46/// /2205 11042 21085 39142 40072 56033=
0293013590999992018011506004+60533+008200FM-12+077399999V0202001N005019999999N015000199-00441-00871100581ADDAA112000091AA224000631AJ100593100590099AY171021AY221021GA1081+002501061GE19AGL   +99999+99999GF108991081999002501999999IA1289KA1240N-00661MA1999999091291MD1810311+9999MW1021OD139901101999REMSYN09401359 11365 82005 11044 21087 39129 40058 58031 60002 70272 885// 333 21066 48059 70006 91111=
0089013590999992018011507004+60533+008200FM-12+077399999V0202201N002019999999N999999999-00481-00811100561ADDMA1999999091261MD1610251+9999REMSYN04801359 46/// /2202 11048 21081 39126 40056 56025=
0089013590999992018011508004+60533+008200FM-12+077399999V0201801N002019999999N999999999-00501-00801100441ADDMA1999999091141MD1810271+9999REMSYN04801359 46/// /1802 11050 21080 39114 40044 58027=
0089013590999992018011509004+60533+008200FM-12+077399999V0201501N003019999999N999999999-00461-00781100341ADDMA1999999091061MD1810231+9999REMSYN04801359 46/// /1503 11046 21078 39106 40034 58023=
0089013590999992018011510004+60533+008200FM-12+077399999V0201601N002019999999N999999999-00451-00741100211ADDMA1999999090951MD1810311+9999REMSYN04801359 46/// /1602 11045 21074 39095 40021 58031=
0089013590999992018011511004+60533+008200FM-12+077399999V0201501N002019999999N999999999-00431-00661100051ADDMA1999999090811MD1810341+9999REMSYN04801359 46/// /1502 11043 21066 39081 40005 58034=
0228013590999992018011512004+60533+008200FM-12+077399999V0201601N001019999999N006000199-00381-00601099871ADDAA106000631AY171021AY271021GA1081+002501051GE19AGL   +99999+99999GF108991081999002501999999MA1999999090671MD1810391+9999MW1711OD139900801999REMSYN07601359 11356 81601 11038 21060 39067 49987 58039 69961 77177 8802/ 333 91108=
0089013590999992018011513004+60533+008200FM-12+077399999V0201301N002019999999N999999999-00351-00581099731ADDMA1999999090551MD1810401+9999REMSYN04801359 46/// /1302 11035 21058 39055 49973 58040=
0089013590999992018011514004+60533+008200FM-12+077399999V0200301N001019999999N999999999-00341-00541099561ADDMA1999999090391MD1810411+9999REMSYN04801359 46/// /0301 11034 21054 39039 49956 58041=
0089013590999992018011515004+60533+008200FM-12+077399999V0200601N002019999999N999999999-00341-00521099411ADDMA1999999090261MD1810411+9999REMSYN04801359 46/// /0602 11034 21052 39026 49941 58041=
0089013590999992018011516004+60533+008200FM-12+077399999V0200701N002019999999N999999999-00321-00511099251ADDMA1999999090121MD1810431+9999REMSYN04801359 46/// /0702 11032 21051 39012 49925 58043=
0089013590999992018011517004+60533+008200FM-12+077399999V0200301N003019999999N999999999-00311-00531099101ADDMA1999999089991MD1810411+9999REMSYN04801359 46/// /0303 11031 21053 38999 49910 58041=
0247013590999992018011518004+60533+008200FM-12+077399999V0200401N003019999999N006000199-00301-00551099001ADDAA112002031AY171021AY271021GA1081+002501051GE19AGL   +99999+99999GF108991081999002501999999KA1120M-00291MA1999999089901MD1610361+9999MW1711OD139900701999REMSYN08201359 11356 80403 11030 21055 38990 49900 56036 60022 77177 8802/ 333 11029 91107=
0089013590999992018011519004+60533+008200FM-12+077399999V0200301N004019999999N999999999-00441-00601098901ADDMA1999999089761MD1810351+9999REMSYN04801359 46/// /0304 11044 21060 38976 49890 58035=
0089013590999992018011520004+60533+008200FM-12+077399999V0200401N003019999999N999999999-00501-00651098791ADDMA1999999089651MD1810341+9999REMSYN04801359 46/// /0403 11050 21065 38965 49879 58034=
0089013590999992018011521004+60533+008200FM-12+077399999V0200301N005019999999N999999999-00531-00701098701ADDMA1999999089551MD1710341+9999REMSYN04801359 46/// /0305 11053 21070 38955 49870 57034=
0089013590999992018011522004+60533+008200FM-12+077399999V0200501N004019999999N999999999-00521-00721098571ADDMA1999999089441MD1810331+9999REMSYN04801359 46/// /0504 11052 21072 38944 49857 58033=
0089013590999992018011523004+60533+008200FM-12+077399999V0200601N003019999999N999999999-00521-00711098461ADDMA1999999089331MD1810321+9999REMSYN04801359 46/// /0603 11052 21071 38933 49846 58032=
0130013590999992018011600004+60533+008200FM-12+077399999V0200301N005019999999N999999999-00501-00691098311ADDAA106001031MA1999999089211MD1810341+9999OD139900801999REMSYN06401359 16/// /0305 11050 21069 38921 49831 58034 60011 333 91108=
0089013590999992018011601004+60533+008200FM-12+077399999V0200401N004019999999N999999999-00471-00661098141ADDMA1999999089071MD1810371+9999REMSYN04801359 46/// /0404 11047 21066 38907 49814 58037=
0089013590999992018011602004+60533+008200FM-12+077399999V0200301N004019999999N999999999-00441-00601098031ADDMA1999999088971MD1710361+9999REMSYN04801359 46/// /0304 11044 21060 38897 49803 57036=
0089013590999992018011603004+60533+008200FM-12+077399999V0200401N004019999999N999999999-00401-00581097921ADDMA1999999088881MD1610331+9999REMSYN04801359 46/// /0404 11040 21058 38888 49792 56033=
0089013590999992018011604004+60533+008200FM-12+077399999V0200301N004019999999N999999999-00381-00581097841ADDMA1999999088821MD1710251+9999REMSYN04801359 46/// /0304 11038 21058 38882 49784 57025=
0089013590999992018011605004+60533+008200FM-12+077399999V0200501N002019999999N999999999-00401-00561097771ADDMA1999999088751MD1810231+9999REMSYN04801359 46/// /0502 11040 21056 38875 49777 58023=
0293013590999992018011606004+60533+008200FM-12+077399999V0200401N003019999999N005000199-00421-00601097701ADDAA112003031AA224005331AJ100623100620099AY171021AY271021GA1081+004501051GE19AGL   +99999+99999GF108991081999004501999999IA1289KA1240N-00531MA1999999088681MD1710211+9999MW1711OD139900701999REMSYN09401359 11450 80403 11042 21060 38868 49770 57021 60032 77177 8802/ 333 21053 48062 70053 91107=
0089013590999992018011607004+60533+008200FM-12+077399999V0200301N004019999999N999999999-00411-00631097671ADDMA1999999088661MD1610161+9999REMSYN04801359 46/// /0304 11041 21063 38866 49767 56016=
0089013590999992018011608004+60533+008200FM-12+077399999V0200401N003019999999N999999999-00451-00611097671ADDMA1999999088641MD1610101+9999REMSYN04801359 46/// /0403 11045 21061 38864 49767 56010=
0089013590999992018011609004+60533+008200FM-12+077399999V0200701N002019999999N999999999-00471-00571097671ADDMA1999999088631MD1710041+9999REMSYN04801359 46/// /0702 11047 21057 38863 49767 57004=
0089013590999992018011610004+60533+008200FM-12+077399999V0200601N002019999999N999999999-00451-00571097631ADDMA1999999088611MD1710051+9999REMSYN04801359 46/// /0602 11045 21057 38861 49763 57005=
0089013590999992018011611004+60533+008200FM-12+077399999V0200601N002019999999N999999999-00431-00551097601ADDMA1999999088591MD1710051+9999REMSYN04801359 46/// /0602 11043 21055 38859 49760 57005=
0228013590999992018011612004+60533+008200FM-12+077399999V0200501N001019999999N003200199-00411-00561097561ADDAA106005031AY171021AY271021GA1081+002501051GE19AGL   +99999+99999GF108991081999002501999999MA1999999088561MD1710081+9999MW1711OD139900901999REMSYN07601359 11332 80501 11041 21056 38856 49756 57008 60051 77177 8802/ 333 91109=
0089013590999992018011613004+60533+008200FM-12+077399999V0209999C999999999999N999999999-00391-00531097551ADDMA1999999088551MD1710061+9999REMSYN04801359 46/// /0000 11039 21053 38855 49755 57006=
0089013590999992018011614004+60533+008200FM-12+077399999V0209999C999999999999N999999999-00431-00571097601ADDMA1999999088581MD1510011+9999REMSYN04801359 46/// /0000 11043 21057 38858 49760 55001=
0089013590999992018011615004+60533+008200FM-12+077399999V0209999C999999999999N999999999-00501-00611097661ADDMA1999999088621MD1310061+9999REMSYN04801359 46/// /0000 11050 21061 38862 49766 53006=
0089013590999992018011616004+60533+008200FM-12+077399999V0209999C999999999999N999999999-00641-00721097761ADDMA1999999088661MD1210111+9999REMSYN04801359 46/// /0000 11064 21072 38866 49776 52011=
0089013590999992018011617004+60533+008200FM-12+077399999V0209999C999999999999N999999999-00841-00981097871ADDMA1999999088701MD1210121+9999REMSYN04801359 46/// /0000 11084 21098 38870 49787 52012=
0247013590999992018011618004+60533+008200FM-12+077399999V0200501N001012200019N070001199-00901-00991097951ADDAA112006031AY171021AY221021GA1031+012501061GE19AGL   +99999+99999GF103991031999012501999999KA1120M-00371MA1999999088761MD1210131+9999MW1011OD139900301999REMSYN08201359 11689 30501 11090 21099 38876 49795 52013 60062 70172 83500 333 11037 91103=
0089013590999992018011619004+60533+008200FM-12+077399999V0203401N001019999999N999999999-01011-01081098081ADDMA1999999088841MD1310171+9999REMSYN04801359 46/// /3401 11101 21108 38884 49808 53017=
0089013590999992018011620004+60533+008200FM-12+077399999V0202301N001019999999N999999999-01281-01431098251ADDMA1999999088901MD1210201+9999REMSYN04801359 46/// /2301 11128 21143 38890 49825 52020=
0089013590999992018011621004+60533+008200FM-12+077399999V0209999C999999999999N999999999-01091-01211098231ADDMA1999999088941MD1110191+9999REMSYN04801359 46/// /0000 11109 21121 38894 49823 51019=
0089013590999992018011622004+60533+008200FM-12+077399999V0202801N001019999999N999999999-01211-01341098341ADDMA1999999089001MD1210161+9999REMSYN04801359 46/// /2801 11121 21134 38900 49834 52016=
0089013590999992018011623004+60533+008200FM-12+077399999V0200401N001019999999N999999999-01211-01351098411ADDMA1999999089061MD1310171+9999REMSYN04801359 46/// /0401 11121 21135 38906 49841 53017=
0130013590999992018011700004+60533+008200FM-12+077399999V0209999C999999999999N999999999-01201-01331098471ADDAA106000091MA1999999089131MD1210181+9999OD139900201999REMSYN06401359 16/// /0000 11120 21133 38913 49847 52018 60001 333 91102=
0089013590999992018011701004+60533+008200FM-12+077399999V0209999C999999999999N999999999-01061-01181098481ADDMA1999999089181MD1210181+9999REMSYN04801359 46/// /0000 11106 21118 38918 49848 52018=
0089013590999992018011702004+60533+008200FM-12+077399999V0209999C999999999999N999999999-01041-01161098501ADDMA1999999089211MD1110141+9999REMSYN04801359 46/// /0000 11104 21116 38921 49850 51014=
0089013590999992018011703004+60533+008200FM-12+077399999V0209999C999999999999N999999999-00941-01031098501ADDMA1999999089241MD1210111+9999REMSYN04801359 46/// /0000 11094 21103 38924 49850 52011=
0089013590999992018011704004+60533+008200FM-12+077399999V0209999C999999999999N999999999-00941-01061098561ADDMA1999999089291MD1310121+9999REMSYN04801359 46/// /0000 11094 21106 38929 49856 53012=
0089013590999992018011705004+60533+008200FM-12+077399999V0201601N001019999999N999999999-00921-01031098591ADDMA1999999089321MD1210121+9999REMSYN04801359 46/// /1601 11092 21103 38932 49859 52012=
0293013590999992018011706004+60533+008200FM-12+077399999V0209999C999999999999N003500199-00881-00991098651ADDAA112000091AA224006131AJ100683100680099AY121021AY201021GA1081+002501071GE19AGL   +99999+99999GF108991081999002501999999IA1289KA1240N-01341MA1999999089391MD1310161+9999MW1401OD139900201999REMSYN09401359 11335 80000 11088 21099 38939 49865 53016 60002 74020 886// 333 21134 48068 70061 91102=
0089013590999992018011707004+60533+008200FM-12+077399999V0209999C999999999999N999999999-00831-00921098711ADDMA1999999089471MD1310171+9999REMSYN04801359 46/// /0000 11083 21092 38947 49871 53017=
0089013590999992018011708004+60533+008200FM-12+077399999V0201701N001019999999N999999999-00821-00911098751ADDMA1999999089511MD1210181+9999REMSYN04801359 46/// /1701 11082 21091 38951 49875 52018=
0089013590999992018011709004+60533+008200FM-12+077399999V0209999C999999999999N999999999-00791-00891098761ADDMA1999999089531MD1110131+9999REMSYN04801359 46/// /0000 11079 21089 38953 49876 51013=
0089013590999992018011710004+60533+008200FM-12+077399999V0209999C999999999999N999999999-00761-00861098871ADDMA1999999089631MD1310161+9999REMSYN04801359 46/// /0000 11076 21086 38963 49887 53016=
0089013590999992018011711004+60533+008200FM-12+077399999V0202401N001019999999N999999999-00771-00901098891ADDMA1999999089651MD1310141+9999REMSYN04801359 46/// /2401 11077 21090 38965 49889 53014=
0228013590999992018011712004+60533+008200FM-12+077399999V0201701N001019999999N011000199-00731-00891098911ADDAA106000091AY121021AY221021GA1081+002501061GE19AGL   +99999+99999GF108991081999002501999999MA1999999089681MD1110151+9999MW1021OD139900201999REMSYN07601359 11361 81701 11073 21089 38968 49891 51015 60001 70222 885// 333 91102=
0089013590999992018011713004+60533+008200FM-12+077399999V0202401N001019999999N999999999-00761-00951098971ADDMA1999999089721MD1310091+9999REMSYN04801359 46/// /2401 11076 21095 38972 49897 53009=
0089013590999992018011714004+60533+008200FM-12+077399999V0202201N003019999999N999999999-00841-01011099031ADDMA1999999089751MD1210101+9999REMSYN04801359 46/// /2203 11084 21101 38975 49903 52010=
0089013590999992018011715004+60533+008200FM-12+077399999V0202301N003019999999N999999999-00961-01131099171ADDMA1999999089841MD1310161+9999REMSYN04801359 46/// /2303 11096 21113 38984 49917 53016=
0089013590999992018011716004+60533+008200FM-12+077399999V0202701N003019999999N999999999-01051-01231099241ADDMA1999999089871MD1310151+9999REMSYN04801359 46/// /2703 11105 21123 38987 49924 53015=
0089013590999992018011717004+60533+008200FM-12+077399999V0202601N003019999999N999999999-01181-01331099331ADDMA1999999089911MD1110161+9999REMSYN04801359 46/// /2603 11118 21133 38991 49933 51016=
0247013590999992018011718004+60533+008200FM-12+077399999V0202601N003019999999N013000199-01351-01551099481ADDAA112000091AY121021AY221021GA1081+002501061GE19AGL   +99999+99999GF108991081999002501999999KA1120M-00721MA1999999089991MD1310151+9999MW1021OD139900601999REMSYN08201359 11363 82603 11135 21155 38999 49948 53015 60002 70222 885// 333 11072 91106=
0089013590999992018011719004+60533+008200FM-12+077399999V0202501N002019999999N999999999-01401-01601099511ADDMA1999999090001MD1110131+9999REMSYN04801359 46/// /2502 11140 21160 39000 49951 51013=
0089013590999992018011720004+60533+008200FM-12+077399999V0202201N002019999999N999999999-01441-01631099571ADDMA1999999090031MD1110131+9999REMSYN04801359 46/// /2202 11144 21163 39003 49957 51013=
0089013590999992018011721004+60533+008200FM-12+077399999V0202701N004019999999N999999999-01541-01731099671ADDMA1999999090091MD1310101+9999REMSYN04801359 46/// /2704 11154 21173 39009 49967 53010=
0089013590999992018011722004+60533+008200FM-12+077399999V0202601N003019999999N999999999-01571-01761099691ADDMA1999999090101MD1110101+9999REMSYN04801359 46/// /2603 11157 21176 39010 49969 51010=
0089013590999992018011723004+60533+008200FM-12+077399999V0202601N003019999999N999999999-01671-01881099751ADDMA1999999090121MD1110091+9999REMSYN04801359 46/// /2603 11167 21188 39012 49975 51009=
0130013590999992018011800004+60533+008200FM-12+077399999V0202201N002019999999N999999999-01691-01891099761ADDAA106000091MA1999999090121MD1210031+9999OD139900601999REMSYN06401359 16/// /2202 11169 21189 39012 49976 52003 60001 333 91106=
0089013590999992018011801004+60533+008200FM-12+077399999V0202401N004019999999N999999999-01581-01801099701ADDMA1999999090111MD1990011+9999REMSYN04801359 46/// /2404 11158 21180 39011 49970 50001=
0089013590999992018011802004+60533+008200FM-12+077399999V0202401N003019999999N999999999-01581-01831099691ADDMA1999999090101MD1710031+9999REMSYN04801359 46/// /2403 11158 21183 39010 49969 57003=
0089013590999992018011803004+60533+008200FM-12+077399999V0202201N003019999999N999999999-01521-01771099661ADDMA1999999090091MD1710031+9999REMSYN04801359 46/// /2203 11152 21177 39009 49966 57003=
0089013590999992018011804004+60533+008200FM-12+077399999V0202101N002019999999N999999999-01471-01701099611ADDMA1999999090061MD1710051+9999REMSYN04801359 46/// /2102 11147 21170 39006 49961 57005=
0089013590999992018011805004+60533+008200FM-12+077399999V0202301N002019999999N999999999-01341-01561099531ADDMA1999999090031MD1710071+9999REMSYN04801359 46/// /2302 11134 21156 39003 49953 57007=
0293013590999992018011806004+60533+008200FM-12+077399999V0209999C999999999999N015000199-01311-01511099521ADDAA112000091AA224000091AJ100693100690099AY121021AY221021GA1081+002501061GE19AGL   +99999+99999GF108991081999002501999999IA1289KA1240N-01731MA1999999090041MD1510051+9999MW1021OD139900601999REMSYN09401359 11365 80000 11131 21151 39004 49952 55005 60002 70222 885// 333 21173 48069 70000 91106=
0089013590999992018011807004+60533+008200FM-12+077399999V0202101N001019999999N999999999-01271-01421099541ADDMA1999999090071MD1510011+9999REMSYN04801359 46/// /2101 11127 21142 39007 49954 55001=
0089013590999992018011808004+60533+008200FM-12+077399999V0202901N001019999999N999999999-01211-01351099531ADDMA1999999090091MD1210061+9999REMSYN04801359 46/// /2901 11121 21135 39009 49953 52006=
0089013590999992018011809004+60533+008200FM-12+077399999V0209999C999999999999N999999999-01161-01301099511ADDMA1999999090081MD1990041+9999REMSYN04801359 46/// /0000 11116 21130 39008 49951 50004=
0089013590999992018011810004+60533+008200FM-12+077399999V0209999C999999999999N999999999-01091-01261099501ADDMA1999999090091MD1210021+9999REMSYN04801359 46/// /0000 11109 21126 39009 49950 52002=
0089013590999992018011811004+60533+008200FM-12+077399999V0209999C999999999999N999999999-01021-01191099511ADDMA1999999090121MD1310041+9999REMSYN04801359 46/// /0000 11102 21119 39012 49951 53004=
0247013590999992018011812004+60533+008200FM-12+077399999V0209999C999999999999N005000199-00961-01161099481ADDAA106999999AY171021AY221021GA1081+002501051GE19AGL   +99999+99999GF108991081999002501999999MA1999999090121MD1210041+9999MW1711OD139900301999REMSYN07601359 11350 80000 11096 21116 39012 49948 52004 60001 77172 8802/ 333 91103=EQDQ01  00002PRCP06
0089013590999992018011813004+60533+008200FM-12+077399999V0209999C999999999999N999999999-00891-01101099471ADDMA1999999090141MD1210051+9999REMSYN04801359 46/// /0000 11089 21110 39014 49947 52005=
0089013590999992018011814004+60533+008200FM-12+077399999V0209999C999999999999N999999999-00861-01061099501ADDMA1999999090171MD1310051+9999REMSYN04801359 46/// /0000 11086 21106 39017 49950 53005=
0089013590999992018011815004+60533+008200FM-12+077399999V0202001N001019999999N999999999-00891-01061099561ADDMA1999999090211MD1210091+9999REMSYN04801359 46/// /2001 11089 21106 39021 49956 52009=
0089013590999992018011816004+60533+008200FM-12+077399999V0202401N001019999999N999999999-00891-01051099591ADDMA1999999090251MD1210111+9999REMSYN04801359 46/// /2401 11089 21105 39025 49959 52011=
0089013590999992018011817004+60533+008200FM-12+077399999V0209999C999999999999N999999999-00901-01071099631ADDMA1999999090281MD1210101+9999REMSYN04801359 46/// /0000 11090 21107 39028 49963 52010=
0247013590999992018011818004+60533+008200FM-12+077399999V0200401N001019999999N025000199-00891-01051099681ADDAA112000091AY171021AY221021GA1081+004501061GE19AGL   +99999+99999GF108991081999004501999999KA1120M-00831MA1999999090321MD1210111+9999MW1021OD139900201999REMSYN08201359 11475 80401 11089 21105 39032 49968 52011 60002 70272 885// 333 11083 91102=
0089013590999992018011819004+60533+008200FM-12+077399999V0202501N001019999999N999999999-00921-01061099721ADDMA1999999090351MD1210101+9999REMSYN04801359 46/// /2501 11092 21106 39035 49972 52010=
0089013590999992018011820004+60533+008200FM-12+077399999V0200701N001019999999N999999999-00901-01041099741ADDMA1999999090381MD1210101+9999REMSYN04801359 46/// /0701 11090 21104 39038 49974 52010=
0089013590999992018011821004+60533+008200FM-12+077399999V0200701N001019999999N999999999-00871-01031099781ADDMA1999999090421MD1210091+9999REMSYN04801359 46/// /0701 11087 21103 39042 49978 52009=
0089013590999992018011822004+60533+008200FM-12+077399999V0209999C999999999999N999999999-00901-01031099801ADDMA1999999090431MD1210081+9999REMSYN04801359 46/// /0000 11090 21103 39043 49980 52008=
0089013590999992018011823004+60533+008200FM-12+077399999V0203601N001019999999N999999999-00911-01031099821ADDMA1999999090451MD1210071+9999REMSYN04801359 46/// /3601 11091 21103 39045 49982 52007=
0130013590999992018011900004+60533+008200FM-12+077399999V0200401N001019999999N999999999-00891-01021099831ADDAA106000091MA1999999090461MD1210041+9999OD139900201999REMSYN06401359 16/// /0401 11089 21102 39046 49983 52004 60001 333 91102=
0089013590999992018011901004+60533+008200FM-12+077399999V0200801N001019999999N999999999-00941-01071099881ADDMA1999999090491MD1210061+9999REMSYN04801359 46/// /0801 11094 21107 39049 49988 52006=
0089013590999992018011902004+60533+008200FM-12+077399999V0209999C999999999999N999999999-01031-01161099941ADDMA1999999090521MD1210071+9999REMSYN04801359 46/// /0000 11103 21116 39052 49994 52007=
0089013590999992018011903004+60533+008200FM-12+077399999V0200701N001019999999N999999999-01041-01161099971ADDMA1999999090541MD1210071+9999REMSYN04801359 46/// /0701 11104 21116 39054 49997 52007=
0089013590999992018011904004+60533+008200FM-12+077399999V0209999C999999999999N999999999-01061-01201099981ADDMA1999999090541MD1210051+9999REMSYN04801359 46/// /0000 11106 21120 39054 49998 52005=
0089013590999992018011905004+60533+008200FM-12+077399999V0200701N001019999999N999999999-01041-01181100001ADDMA1999999090561MD1210041+9999REMSYN04801359 46/// /0701 11104 21118 39056 40000 52004=
0328013590999992018011906004+60533+008200FM-12+077399999V0209999C999999999999N016000199-01081-01211100041ADDAA112999999AA224999999AJ100693100690099AY171021AY221021GA1081+002501061GE19AGL   +99999+99999GF108991081999002501999999IA1289KA1240N-01091MA1999999090591MD1310051+9999MW1781OD139900201999REMSYN09401359 11366 80000 11108 21121 39059 40004 53005 60002 77872 885// 333 21109 48069 70000 91102=EQDQ01  00002PRCP12Q02  00002PRCP24
0089013590999992018011907004+60533+008200FM-12+077399999V0202301N001019999999N999999999-01141-01291100091ADDMA1999999090611MD1210071+9999REMSYN04801359 46/// /2301 11114 21129 39061 40009 52007=
0089013590999992018011908004+60533+008200FM-12+077399999V0200601N001019999999N999999999-01111-01231100131ADDMA1999999090661MD1210101+9999REMSYN04801359 46/// /0601 11111 21123 39066 40013 52010=
0089013590999992018011909004+60533+008200FM-12+077399999V0209999C999999999999N999999999-01081-01211100171ADDMA1999999090701MD1210121+9999REMSYN04801359 46/// /0000 11108 21121 39070 40017 52012=
0089013590999992018011910004+60533+008200FM-12+077399999V0201801N001019999999N999999999-01031-01171100201ADDMA1999999090751MD1210141+9999REMSYN04801359 46/// /1801 11103 21117 39075 40020 52014=
0089013590999992018011911004+60533+008200FM-12+077399999V0209999C999999999999N999999999-00941-01121100191ADDMA1999999090771MD1210111+9999REMSYN04801359 46/// /0000 11094 21112 39077 40019 52011=
0244013590999992018011912004+60533+008200FM-12+077399999V0209999C999999999999N018000199-00931-01141100191ADDAA106002031AY171021AY271021GA1051+004501061GA2999+999999041GE19AGL   +99999+99999GF108991051999004501999999MA1999999090771MD1210061+9999MW1781OD139900101999REMSYN07601359 11468 80000 11093 21114 39077 40019 52006 60021 77877 8551/ 333 91101=
0108013590999992018011913004+60533+008200FM-12+077399999V0202101N001019999999N999999999-00931-01141100171ADDMA1999999090751MD1790039+9999REMSYN04801359 46/// /2101 11093 21114 39075 40017 54001=EQDQ01.1    3APC3  
0089013590999992018011914004+60533+008200FM-12+077399999V0200901N001019999999N999999999-00841-01061100151ADDMA1999999090761MD1410001+9999REMSYN04801359 46/// /0901 11084 21106 39076 40015 54000=
0089013590999992018011915004+60533+008200FM-12+077399999V0209999C999999999999N999999999-00861-01021100201ADDMA1999999090811MD1310041+9999REMSYN04801359 46/// /0000 11086 21102 39081 40020 53004=
0089013590999992018011916004+60533+008200FM-12+077399999V0200601N001019999999N999999999-00921-01081100251ADDMA1999999090841MD1210081+9999REMSYN04801359 46/// /0601 11092 21108 39084 40025 52008=
0089013590999992018011917004+60533+008200FM-12+077399999V0209999C999999999999N999999999-00951-01091100291ADDMA1999999090861MD1210091+9999REMSYN04801359 46/// /0000 11095 21109 39086 40029 52009=
0247013590999992018011918004+60533+008200FM-12+077399999V0209999C999999999999N025000199-00971-01111100321ADDAA112002031AY171021AY221021GA1081+008001061GE19AGL   +99999+99999GF108991081999008001999999KA1120M-00821MA1999999090871MD1210071+9999MW1021OD139900201999REMSYN08201359 11575 80000 11097 21111 39087 40032 52007 60022 70272 885// 333 11082 91102=
0089013590999992018011919004+60533+008200FM-12+077399999V0209999C999999999999N999999999-00961-01101100341ADDMA1999999090901MD1210061+9999REMSYN04801359 46/// /0000 11096 21110 39090 40034 52006=
0089013590999992018011920004+60533+008200FM-12+077399999V0209999C999999999999N999999999-00951-01091100361ADDMA1999999090921MD1210061+9999REMSYN04801359 46/// /0000 11095 21109 39092 40036 52006=
0089013590999992018011921004+60533+008200FM-12+077399999V0209999C999999999999N999999999-00941-01071100391ADDMA1999999090951MD1210071+9999REMSYN04801359 46/// /0000 11094 21107 39095 40039 52007=
0089013590999992018011922004+60533+008200FM-12+077399999V0209999C999999999999N999999999-00941-01081100411ADDMA1999999090971MD1210071+9999REMSYN04801359 46/// /0000 11094 21108 39097 40041 52007=
0089013590999992018011923004+60533+008200FM-12+077399999V0209999C999999999999N999999999-00931-01061100431ADDMA1999999090991MD1210071+9999REMSYN04801359 46/// /0000 11093 21106 39099 40043 52007=
0130013590999992018012000004+60533+008200FM-12+077399999V0209999C999999999999N999999999-00931-01061100431ADDAA106000091MA1999999090991MD1210041+9999OD139900201999REMSYN06401359 16/// /0000 11093 21106 39099 40043 52004 60001 333 91102=
