0228419410999992018010106004+23267+090700FM-12+000799999V0209999C00001024001CN004000199+02371+01801101311ADDAA124000091AY121021AY221021GA1031+004501061GA2051+024001041GE19AGL   +99999+99999GF106991031999004501999999MA1999999101261MW1051REMSYN08841941 31440 60000 10237 20180 30126 40131 70522 84520 333 56990 59012 70000 83615 85458=
0200419410999992018010109004+23267+090700FM-12+000799999V0203601N001010240019N006000199+02421+01801100941ADDAA124000091GA1041+004801061GA2061+024001041GE19AGL   +99999+99999GF106991041999004801999999MA1999999100881REMSYN08241941 32456 63602 10242 20180 30088 40094 85420 333 56990 59013 70000 84616 86458=
0247419410999992018010112004+23267+090700FM-12+000799999V0209999C000010240019N005000199+02321+01901100991ADDAA124000091AY121021AY221021GA1041+004801061GA2061+024001041GE19AGL   +99999+99999GF106991041999004801999999KA1240M+02501MA1999999100931MW1051REMSYN09441941 31450 60000 10232 20190 30093 40099 70522 85420 333 10250 56990 59015 70000 84616 86458=
0228419410999992018010115004+23267+090700FM-12+000799999V0209999C000010240019N005000199+01881+01501101101ADDAA124000091AY121021AY221021GA1041+004801061GA2061+024001041GE19AGL   +99999+99999GF106991041999004801999999MA1999999101041MW1051REMSYN08841941 31450 60000 10188 20150 30104 40110 70522 85420 333 56990 59009 70000 84616 86458=
0228419410999992018010118004+23267+090700FM-12+000799999V0209999C000010240019N004000199+01871+01501101251ADDAA124000091AY121021AY221021GA1041+004801061GA2061+024001041GE19AGL   +99999+99999GF106991041999004801999999MA1999999101201MW1051REMSYN08841941 31440 60000 10187 20150 30120 40125 70522 85420 333 56990 59011 70000 84616 86458=
0228419410999992018010121004+23267+090700FM-12+000799999V0209999C000010240019N004000199+01821+01601101201ADDAA124000091AY121021AY221021GA1041+004801061GA2061+024001041GE19AGL   +99999+99999GF106991041999004801999999MA1999999101151MW1051REMSYN08841941 31440 60000 10182 20160 30115 40120 70522 85420 333 56990 59012 70000 84616 86458=
0228419410999992018010200004+23267+090700FM-12+000799999V0209999C000010240019N004000199+01681+01601101171ADDAA124000091AY121021AY221021GA1041+004801061GA2061+024001041GE19AGL   +99999+99999GF106991041999004801999999MA1999999101121MW1051REMSYN08841941 31440 60000 10168 20160 30112 40117 70522 85420 333 56990 59009 70000 84616 86458=
0247419410999992018010203004+23267+090700FM-12+000799999V0203601N001510240019N005000199+02021+01801101201ADDAA124000091AY121021AY221021GA1041+004801061GA2061+024001041GE19AGL   +99999+99999GF106991041999004801999999KA1240N+01631MA1999999101151MW1051REMSYN09441941 31450 63603 10202 20180 30115 40120 70522 85420 333 20163 56990 59026 70000 84616 86458=
0200419410999992018010206004+23267+090700FM-12+000799999V0203101N001510240019N006000199+02321+01801101191ADDAA124000091GA1041+004801061GA2061+024001041GE19AGL   +99999+99999GF106991041999004801999999MA1999999101141REMSYN08241941 32456 63103 10232 20180 30114 40119 85420 333 56990 59004 70000 84616 86458=
0164419410999992018010221004+23267+090700FM-12+000799999V0203601N001519999999N004000199+01741+01501100991ADDAA124000091AY121021AY201021GF100995999999999999999999MA1999999100931MD1999999-0211MW1051REMSYN06441941 31940 03603 10174 20150 30093 40099 70520 333 59021 70000=
0164419410999992018010300004+23267+090700FM-12+000799999V0203601N001519999999N004000199+01571+01501100961ADDAA124000091AY101021AY201021GF100995999999999999999999MA1999999100901MD1999999-0211MW1051REMSYN06441941 31940 03603 10157 20150 30090 40096 70500 333 59021 70000=
0155419410999992018010303004+23267+090700FM-12+000799999V0203601N001019999999N006000199+01961+01401101271ADDAA124000091GF100995999999999999999999KA1240N+01511MA1999999101211MD1999999+0071REMSYN06441941 32956 03602 10196 20140 30121 40127 333 20151 58007 70000=
0136419410999992018010306004+23267+090700FM-12+000799999V0203601N001019999999N006000199+02171+01201101161ADDAA124000091GF100995999999999999999999MA1999999101101MD1999999-0041REMSYN05841941 32956 03602 10217 20120 30110 40116 333 59004 70000=
0136419410999992018010309004+23267+090700FM-12+000799999V0203601N001019999999N006000199+02521+02201100971ADDAA124000091GF100995999999999999999999MA1999999100911MD1999999+0061REMSYN05841941 32956 03602 10252 20220 30091 40097 333 58006 70000=
0183419410999992018010312004+23267+090700FM-12+000799999V0203601N001519999999N005000199+02181+01601101021ADDAA124000091AY101021AY201021GF100995999999999999999999KA1240M+02561MA1999999100971MD1999999+0171MW1051REMSYN07041941 31950 03603 10218 20160 30097 40102 70500 333 10256 58017 70000=
0164419410999992018010315004+23267+090700FM-12+000799999V0203601N001019999999N004000199+01881+01501101191ADDAA124000091AY101021AY201021GF100995999999999999999999MA1999999101141MD1999999+0241MW1051REMSYN06441941 31940 03602 10188 20150 30114 40119 70500 333 58024 70000=
0186419410999992018010318004+23267+090700FM-12+000799999V0203601N001012200019N004000199+02001+01501101241ADDAA124000091AY101021AY201021GE19AGL   +99999+99999GF103991999999999999999999MA1999999101181MD1999999+0021MW1051REMSYN06441941 31940 33602 10200 20150 30118 40124 70500 333 58002 70000=
0164419410999992018010321004+23267+090700FM-12+000799999V0203601N001019999999N004000199+01461+01301101191ADDAA124000091AY101021AY201021GF100995999999999999999999MA1999999101131MD1999999+0201MW1051REMSYN06441941 31940 03602 10146 20130 30113 40119 70500 333 58020 70000=
0164419410999992018010400004+23267+090700FM-12+000799999V0203601N001019999999N004000199+01271+01201101161ADDAA124000091AY101021AY201021GF100995999999999999999999MA1999999101101MD1999999+0201MW1051REMSYN06441941 31940 03602 10127 20120 30110 40116 70500 333 58020 70000=
0155419410999992018010403004+23267+090700FM-12+000799999V0203601N001019999999N006000199+01581+01201101561ADDAA124000091GF100995999999999999999999KA1240N+01211MA1999999101501MD1999999+0291REMSYN06441941 32956 03602 10158 20120 30150 40156 333 20121 58029 70000=
0136419410999992018010406004+23267+090700FM-12+000799999V0203601N001019999999N006000199+02041+01001101511ADDAA124000091GF100995999999999999999999MA1999999101451MD1999999+0351REMSYN05841941 32956 03602 10204 20100 30145 40151 333 58035 70000=
0136419410999992018010409004+23267+090700FM-12+000799999V0203101N001519999999N006000199+02221+01201101221ADDAA124000091GF100995999999999999999999MA1999999101161MD1999999+0311REMSYN05841941 32956 03103 10222 20120 30116 40122 333 58031 70000=
0155419410999992018010412004+23267+090700FM-12+000799999V0203601N002119999999N004000199+01771+01401101221ADDAA124000091GF100995999999999999999999KA1240M+02321MA1999999101161MD1999999+0191REMSYN06441941 32940 03604 10177 20140 30116 40122 333 10232 58019 70000=
0183419410999992018010415004+23267+090700FM-12+000799999V0203601N002119999999N004000199+01601+01301101381ADDAA124999999AY101021AY201021GF100995999999999999999999MA1999999101321MD1999999+0181MW1501REMSYN06441941 31940 03604 10160 20130 30132 40138 75000 333 58018 70000=EQDQ01  00002PRCP24
0164419410999992018010418004+23267+090700FM-12+000799999V0203601N002619999999N004000199+01471+01201101421ADDAA124000091AY101021AY201021GF100995999999999999999999MA1999999101361MD1999999+0181MW1051REMSYN06441941 31940 03605 10147 20120 30136 40142 70500 333 58018 70000=
0164419410999992018010421004+23267+090700FM-12+000799999V0203601N002119999999N004000199+01281+01101101341ADDAA124000091AY101021AY201021GF100995999999999999999999MA1999999101281MD1999999+0151MW1051REMSYN06441941 31940 03604 10128 20110 30128 40134 70500 333 58015 70000=
0164419410999992018010500004+23267+090700FM-12+000799999V0203601N001519999999N004000199+01291+01201101251ADDAA124000091AY101021AY201021GF100995999999999999999999MA1999999101191MD1999999+0091MW1051REMSYN06441941 31940 03603 10129 20120 30119 40125 70500 333 58009 70000=
0241419410999992018010503004+23267+090700FM-12+000799999V0203601N001019999999N001000199+01381+01381101441ADDAA124000091AY141021AY221021GA1041+004201061GA2999+999999051GE19AGL   +99999+99999GF106991041999004201999999KA1240N+01271MA1999999101381MW1421REMSYN08841941 31410 63602 10138 20138 30138 40144 74242 84520 333 20127 56990 58012 70000 84614=
0206419410999992018010506004+23267+090700FM-12+000799999V0203601N002612200019N005000199+01741+01401101401ADDAA124000091AY141021AY221021GA1031+004501061GE19AGL   +99999+99999GF104991031999004501999999MA1999999101241MW1011REMSYN08241941 31450 43605 10174 20140 30124 40140 70142 84400 333 56900 59011 70000 83615=
0136419410999992018010509004+23267+090700FM-12+000799999V0203601N002119999999N006000199+02321+01301101061ADDAA124000091GF100995999999999999999999MA1999999101001MD1999999-0161REMSYN05841941 32956 03604 10232 20130 30100 40106 333 59016 70000=
0183419410999992018010512004+23267+090700FM-12+000799999V0203601N001019999999N005000199+01971+01601101161ADDAA124000091AY101021AY201021GF100995999999999999999999KA1240M+02451MA1999999101101MD1999999-0061MW1051REMSYN07041941 31950 03602 10197 20160 30110 40116 70500 333 10245 59006 70000=
0164419410999992018010515004+23267+090700FM-12+000799999V0209999C000019999999N005000199+01871+01701101261ADDAA124000091AY101021AY201021GF100995999999999999999999MA1999999101241MD1999999-0121MW1051REMSYN06441941 31950 00000 10187 20170 30124 40126 70500 333 59012 70000=
0164419410999992018010518004+23267+090700FM-12+000799999V0209999C000019999999N004000199+01821+01701101371ADDAA124000091AY101021AY201021GF100995999999999999999999MA1999999101311MD1999999-0051MW1051REMSYN06441941 31940 00000 10182 20170 30131 40137 70500 333 59005 70000=
0164419410999992018010521004+23267+090700FM-12+000799999V0209999C000019999999N004000199+01771+01701101271ADDAA124000091AY101021AY201021GF100995999999999999999999MA1999999101211MD1999999-0071MW1051REMSYN06441941 31940 00000 10177 20170 30121 40127 70500 333 59007 70000=
0164419410999992018010600004+23267+090700FM-12+000799999V0203601N001519999999N004000199+01321+01201101161ADDAA124000091AY101021AY201021GF100995999999999999999999MA1999999101101MD1999999-0091MW1051REMSYN06441941 31940 03603 10132 20120 30110 40116 70500 333 59009 70000=
0219419410999992018010603004+23267+090700FM-12+000799999V0209999C00001002401WN000800199+01421+01301101371ADDAA124000091AY141021AY201021GA1091+999999999GE19AGL   +99999+99999GF109991091999999999999999KA1240N+01241MA1999999101321MW1451REMSYN08241941 31/08 90000 10142 20130 30132 40137 74540 89/// 333 20124 56999 59007 70000=
0206419410999992018010606004+23267+090700FM-12+000799999V0203601N001512200019N005000199+02271+02201101251ADDAA124000091AY141021AY221021GA1041+004801061GE19AGL   +99999+99999GF104991041999004801999999MA1999999101201MW1051REMSYN08241941 31450 43603 10227 20220 30120 40125 70542 84500 333 56900 59015 70000 84616=
0136419410999992018010609004+23267+090700FM-12+000799999V0203601N001519999999N006000199+02321+02301101061ADDAA124000091GF100995999999999999999999MA1999999101001MD1999999+0001REMSYN05841941 32956 03603 10232 20230 30100 40106 333 58000 70000=
0183419410999992018010612004+23267+090700FM-12+000799999V0203601N001019999999N005000199+01961+01002101001ADDAA124000091AY101021AY201021GF100995999999999999999999KA1240M+02391MA1999999100951MD1999999-0161MW1051REMSYN07041941 31950 03602 10196 20100 30095 40100 70500 333 10239 59016 70000=
0164419410999992018010615004+23267+090700FM-12+000799999V0203601N001019999999N004000199+01661+01201101071ADDAA124000091AY101021AY201021GF100995999999999999999999MA1999999101011MD1999999-0121MW1051REMSYN06441941 31940 03602 10166 20120 30101 40107 70500 333 59012 70000=
0164419410999992018010618004+23267+090700FM-12+000799999V0203601N001019999999N004000199+01541+01101101221ADDAA124000091AY101021AY201021GF100995999999999999999999MA1999999101161MD1999999-0151MW1051REMSYN06441941 31940 03602 10154 20110 30116 40122 70500 333 59015 70000=
0164419410999992018010621004+23267+090700FM-12+000799999V0203601N001019999999N004000199+01371+00901101151ADDAA124000091AY101021AY201021GF100995999999999999999999MA1999999101091MD1999999-0121MW1051REMSYN06441941 31940 03602 10137 20090 30109 40115 70500 333 59012 70000=
0164419410999992018010700004+23267+090700FM-12+000799999V0203601N001019999999N004000199+01221+01001101111ADDAA124000091AY101021AY201021GF100995999999999999999999MA1999999101061MD1999999-0051MW1051REMSYN06441941 31940 03602 10122 20100 30106 40111 70500 333 59005 70000=
0155419410999992018010703004+23267+090700FM-12+000799999V0203601N001019999999N006000199+01521+01201101511ADDAA124000091GF100995999999999999999999KA1240N+01111MA1999999101451MD1999999+0141REMSYN06441941 32956 03602 10152 20120 30145 40151 333 20111 58014 70000=
0136419410999992018010706004+23267+090700FM-12+000799999V0203601N001019999999N006000199+01901+01001101491ADDAA124000091GF100995999999999999999999MA1999999101431MD1999999+0241REMSYN05841941 32956 03602 10190 20100 30143 40149 333 58024 70000=
0164419410999992018011015004+23267+090700FM-12+000799999V0209999C000019999999N004000199+01481+01301101511ADDAA124000091AY101021AY201021GF100995999999999999999999MA1999999101461MD1999999-0251MW1051REMSYN06441941 31940 00000 10148 20130 30146 40151 70500 333 59025 70000=
0164419410999992018011018004+23267+090700FM-12+000799999V0209999C000019999999N004000199+01421+01301101561ADDAA124000091AY101021AY201021GF100995999999999999999999MA1999999101501MD1999999-0121MW1051REMSYN06441941 31940 00000 10142 20130 30150 40156 70500 333 59012 70000=
0164419410999992018011021004+23267+090700FM-12+000799999V0209999C000019999999N004000199+01321+01201101541ADDAA124000091AY101021AY201021GF100995999999999999999999MA1999999101481MD1999999+0191MW1051REMSYN06441941 31940 00000 10132 20120 30148 40154 70500 333 58019 70000=
0164419410999992018011100004+23267+090700FM-12+000799999V0203601N001019999999N004000199+01221+01201101511ADDAA124000091AY101021AY201021GF100995999999999999999999MA1999999101451MD1999999-0131MW1051REMSYN06441941 31940 03602 10122 20120 30145 40151 70500 333 59013 70000=
0219419410999992018011103004+23267+090700FM-12+000799999V0209999C00001002401WN000800199+01361+01301101711ADDAA124000091AY141021AY201021GA1091+999999999GE19AGL   +99999+99999GF109991091999999999999999KA1240N+01131MA1999999101651MW1451REMSYN08241941 31/08 90000 10136 20130 30165 40171 74540 89/// 333 20113 56999 59011 70000=
0164419410999992018011106004+23267+090700FM-12+000799999V0203601N001019999999N005000199+01861+01301101661ADDAA124000091AY141021AY201021GF100995999999999999999999MA1999999101601MD1999999-0071MW1051REMSYN06441941 31950 03602 10186 20130 30160 40166 70540 333 59007 70000=
0164419410999992018011109004+23267+090700FM-12+000799999V0203601N002119999999N006000199+02081+01301101441ADDAA124000091AY101021AY201021GF100995999999999999999999MA1999999101391MD1999999+0041MW1051REMSYN06441941 31956 03604 10208 20130 30139 40144 70500 333 58004 70000=
0183419410999992018011112004+23267+090700FM-12+000799999V0203101N001519999999N005000199+01681+01401101431ADDAA124000091AY101021AY201021GF100995999999999999999999KA1240M+02081MA1999999101371MD1999999+0061MW1051REMSYN07041941 31950 03103 10168 20140 30137 40143 70500 333 10208 58006 70000=
0164419410999992018011115004+23267+090700FM-12+000799999V0203101N002119999999N004000199+01481+01201101521ADDAA124000091AY101021AY201021GF100995999999999999999999MA1999999101461MD1999999+0011MW1051REMSYN06441941 31940 03104 10148 20120 30146 40152 70500 333 58001 70000=
0164419410999992018011118004+23267+090700FM-12+000799999V0203101N001519999999N004000199+01381+01301101511ADDAA124000091AY101021AY201021GF100995999999999999999999MA1999999101451MD1999999-0071MW1051REMSYN06441941 31940 03103 10138 20130 30145 40151 70500 333 59007 70000=
0164419410999992018011121004+23267+090700FM-12+000799999V0209999C000019999999N004000199+01331+01201101471ADDAA124000091AY101021AY201021GF100995999999999999999999MA1999999101411MD1999999-0071MW1051REMSYN06441941 31940 00000 10133 20120 30141 40147 70500 333 59007 70000=
0200419410999992018011200004+23267+090700FM-12+000799999V0209999C00001002401WN000800199+01121+01001101571ADDAA124000091AY141021AY201021GA1091+999999999GE19AGL   +99999+99999GF109991091999999999999999MA1999999101511MW1451REMSYN07641941 31/08 90000 10112 20100 30151 40157 74540 89/// 333 56/// 59006 70000=
0219419410999992018011203004+23267+090700FM-12+000799999V0209999C00001002401WN000800199+01321+01301101631ADDAA124000091AY141021AY241021GA1091+999999999GE19AGL   +99999+99999GF109991091999999999999999KA1240N+01001MA1999999101571MW1451REMSYN08241941 31/08 90000 10132 20130 30157 40163 74544 89/// 333 20100 56/// 59008 70000=
0228419410999992018011206004+23267+090700FM-12+000799999V0203601N001510240019N005000199+01621+01501101571ADDAA124000091AY141021AY221021GA1041+004801061GA2061+024001041GE19AGL   +99999+99999GF106991041999004801999999MA1999999101521MW1051REMSYN08841941 31450 63603 10162 20150 30152 40157 70542 85420 333 56990 59009 70000 84616 86458=
0164419410999992018011209004+23267+090700FM-12+000799999V0203601N001519999999N005000199+01951+01401101291ADDAA124000091AY121021AY201021GF100995999999999999999999MA1999999101241MD1999999-0151MW1051REMSYN06441941 31950 03603 10195 20140 30124 40129 70520 333 59015 70000=
0183419410999992018011212004+23267+090700FM-12+000799999V0209999C000019999999N004000199+01701+01301101241ADDAA124000091AY101021AY201021GF100995999999999999999999KA1240M+02011MA1999999101181MD1999999-0191MW1051REMSYN07041941 31940 00000 10170 20130 30118 40124 70500 333 10201 59019 70000=
0164419410999992018011218004+23267+090700FM-12+000799999V0209999C000019999999N004000199+01371+01201101451ADDAA124000091AY101021AY201021GF100995999999999999999999MA1999999101401MD1999999-0051MW1051REMSYN06441941 31940 00000 10137 20120 30140 40145 70500 333 59005 70000=
0164419410999992018011221004+23267+090700FM-12+000799999V0209999C000019999999N004000199+01301+01201101381ADDAA124000091AY101021AY201021GF100995999999999999999999MA1999999101321MD1999999-0091MW1051REMSYN06441941 31940 00000 10130 20120 30132 40138 70500 333 59009 70000=
0200419410999992018011300004+23267+090700FM-12+000799999V0209999C00001002401WN000700199+01281+01201101431ADDAA124000091AY141021AY201021GA1001+999999999GE19AGL   +99999+99999GF109991001999999999999999MA1999999101371MW1451REMSYN07641941 31/07 90000 10128 20120 30137 40143 74540 80/// 333 56999 59006 70000=
0219419410999992018011303004+23267+090700FM-12+000799999V0203601N00101002401WN000800199+01321+01301101641ADDAA124000091AY141021AY241021GA1091+999999999GE19AGL   +99999+99999GF109991091999999999999999KA1240N+01211MA1999999101581MW1451REMSYN08241941 31/08 93602 10132 20130 30158 40164 74544 89/// 333 20121 56999 58001 70000=
0228419410999992018011306004+23267+090700FM-12+000799999V0209999C00001024001CN004000199+01721+01401101481ADDAA124000091AY141021AY221021GA1031+004501061GA2041+024001041GE19AGL   +99999+99999GF105991031999004501999999MA1999999101431MW1051REMSYN08841941 31440 50000 10172 20140 30143 40148 70542 84420 333 56990 59009 70000 83615 84458=
0222419410999992018011309004+23267+090700FM-12+000799999V0203601N00151024001CN004000199+01961+01601101321ADDAA124000091AY141021AY221021GA1031+004501061GA2041+024001041GE19AGL   +99999+99999GF105991031999004501999999MA1999999101271MW1051REMSYN08241941 31440 53603 10196 20160 30127 40132 70542 333 56990 58003 70000 83615 84458=
0219419410999992018011312004+23267+090700FM-12+000799999V0203601N00101002401WN000800199+01781+01601101191ADDAA124000091AY141021AY201021GA1091+999999999GE19AGL   +99999+99999GF109991091999999999999999KA1240M+01981MA1999999101141MW1451REMSYN08241941 31/08 93602 10178 20160 30114 40119 74540 89/// 333 10198 56999 59005 70000=
0200419410999992018011315004+23267+090700FM-12+000799999V0203601N00101002401WN000800199+01531+01401101401ADDAA124000091AY141021AY201021GA1091+999999999GE19AGL   +99999+99999GF109991091999999999999999MA1999999101341MW1451REMSYN07641941 31/08 93602 10153 20140 30134 40140 74540 89/// 333 56999 59004 70000=
0200419410999992018011318004+23267+090700FM-12+000799999V0203601N00621002401WN000700199+01431+01401101551ADDAA124000091AY141021AY201021GA1091+999999999GE19AGL   +99999+99999GF109991091999999999999999MA1999999101491MW1451REMSYN07641941 31/07 93612 10143 20140 30149 40155 74540 89/// 333 56999 58010 70000=
0200419410999992018011321004+23267+090700FM-12+000799999V0209999C00001002401WN000700199+01381+01381101401ADDAA124000091AY141021AY201021GA1091+999999999GE19AGL   +99999+99999GF109991091999999999999999MA1999999101341MW1451REMSYN07641941 31/07 90000 10138 20138 30134 40140 74540 89/// 333 56999 58002 70000=
0164419410999992018011400004+23267+090700FM-12+000799999V0203601N001019999999N004000199+01421+01301101371ADDAA124000091AY101021AY201021GF100995999999999999999999MA1999999101321MD1999999-0121MW1051REMSYN06441941 31940 03602 10142 20130 30132 40137 70500 333 59012 70000=
0219419410999992018011403004+23267+090700FM-12+000799999V0203601N00101002401WN000800199+01521+01401101571ADDAA124000091AY141021AY241021GA1091+999999999GE19AGL   +99999+99999GF109991091999999999999999KA1240N+01151MA1999999101521MW1451REMSYN08241941 31/08 93602 10152 20140 30152 40157 74544 89/// 333 20115 56999 59007 70000=
0228419410999992018011406004+23267+090700FM-12+000799999V0209999C000010240019N002000199+01621+01501101521ADDAA124000091AY141021AY221021GA1041+004801061GA2061+024001041GE19AGL   +99999+99999GF106991041999004801999999MA1999999101471MW1101REMSYN08841941 31420 60000 10162 20150 30147 40152 71042 85420 333 56990 59004 70000 84616 86458=
0247419410999992018011412004+23267+090700FM-12+000799999V0203101N001510240019N002000199+01721+01501101281ADDAA124000091AY141021AY221021GA1041+004801061GA2061+024001041GE19AGL   +99999+99999GF106991041999004801999999KA1240M+01841MA1999999101231MW1101REMSYN09441941 31420 63103 10172 20150 30123 40128 71042 85420 333 10184 56990 58009 70000 84616 86458=
0247419410999992018011415004+23267+090700FM-12+000799999V0203101N00211999999CN003000199+01621+01501101561ADDAA124000091AY141021AY221021GA1031+004801061GA2041+024001041GE19AGL   +99999+99999GF104991031999004801999999MA1999999101511MW1051REMSYN08841941 31430 43104 10162 20150 30151 40156 70542 84420 333 56990 58016 70000 83616 84458=EQDQ01 024003SCOCIG
0247419410999992018011418004+23267+090700FM-12+000799999V0203101N00151999999CN004000199+01501+01401101631ADDAA124000091AY141021AY221021GA1031+004801061GA2041+024001041GE19AGL   +99999+99999GF104991031999004801999999MA1999999101571MW1051REMSYN08841941 31440 43103 10150 20140 30157 40163 70542 84420 333 56990 58008 70000 83616 84458=EQDQ01 024003SCOCIG
0228419410999992018011421004+23267+090700FM-12+000799999V0203101N001510240019N002000199+01461+01401101721ADDAA124000091AY121021AY201021GA1041+004801061GA2061+024001041GE19AGL   +99999+99999GF106991041999004801999999MA1999999101661MW1051REMSYN08841941 31420 63103 10146 20140 30166 40172 70520 85420 333 56990 58032 70000 84616 86458=
0164419410999992018011500004+23267+090700FM-12+000799999V0203601N001019999999N004000199+01351+01301101271ADDAA124000091AY121021AY201021GF100995999999999999999999MA1999999101221MD1999999-0101MW1051REMSYN06441941 31940 03602 10135 20130 30122 40127 70520 333 59010 70000=
0266419410999992018011503004+23267+090700FM-12+000799999V0209999C000010240019N002000199+01251+99999101571ADDAA124000091AY141021AY221021GA1041+004801061GA2061+024001041GE19AGL   +99999+99999GF106991041999004801999999KA1240N+01261MA1999999101521MW1101REMSYN09441941 31420 60000 10125 20130 30152 40157 71042 8542/ 333 20126 56990 58000 70000 84616 86458=EQDQ0113    2ATOD  
0247419410999992018011506004+23267+090700FM-12+000799999V0203101N00101999999CN004000199+01781+01401101591ADDAA124000091AY141021AY221021GA1031+004801061GA2041+024001041GE19AGL   +99999+99999GF104991031999004801999999MA1999999101531MW1051REMSYN08841941 31440 43102 10178 20140 30153 40159 70542 83320 333 56990 58007 70000 83616 84458=EQDQ01 024003SCOCIG
0227419410999992018011509004+23267+090700FM-12+000799999V0203101N001512200019N005000199+01971+01401101331ADDAA124000091AY141021AY221021GA1031+004801061GA2999+999999051GE19AGL   +99999+99999GF104991031999004801999999MA1999999101281MW1051REMSYN08741941 31450 43103 10197 20140 30128 40133 70542 84420 333 56990 58005 70000 83616 8445=
0266419410999992018011512004+23267+090700FM-12+000799999V0203101N00151999999CN004000199+01821+01401101221ADDAA124000091AY141021AY221021GA1031+004801061GA2041+024001041GE19AGL   +99999+99999GF104991031999004801999999KA1240M+01981MA1999999101161MW1051REMSYN09441941 31440 43103 10182 20140 30116 40122 70542 84420 333 10198 56990 59006 70000 83616 84458=EQDQ01 024003SCOCIG
0164419410999992018011515004+23267+090700FM-12+000799999V0209999C000019999999N004000199+01531+01401101441ADDAA124000091AY121021AY201021GF100995999999999999999999MA1999999101391MD1999999-0121MW1051REMSYN06441941 31440 00000 10153 20140 30139 40144 70520 333 59012 70000=
0164419410999992018011518004+23267+090700FM-12+000799999V0209999C000019999999N004000199+01481+01401101521ADDAA124000091AY101021AY201021GF100995999999999999999999MA1999999101471MD1999999-0111MW1051REMSYN06441941 31440 00000 10148 20140 30147 40152 70500 333 59011 70000=
0164419410999992018011521004+23267+090700FM-12+000799999V0209999C000019999999N004000199+01441+01301101481ADDAA124000091AY101021AY201021GF100995999999999999999999MA1999999101431MD1999999-0241MW1051REMSYN06441941 31440 00000 10144 20130 30143 40148 70500 333 59024 70000=
0200419410999992018011600004+23267+090700FM-12+000799999V0209999C00001002401WN000800199+01321+01301101271ADDAA124000091AY141021AY201021GA1091+999999999GE19AGL   +99999+99999GF109991091999999999999999MA1999999101221MW1451REMSYN07641941 31/08 90000 10132 20130 30122 40127 74540 89/// 333 56999 58000 70000=
0219419410999992018011603004+23267+090700FM-12+000799999V0209999C00001002401WN000800199+01531+01501101661ADDAA124000091AY141021AY201021GA1091+999999999GE19AGL   +99999+99999GF109991091999999999999999KA1240N+01221MA1999999101601MW1451REMSYN08241941 31/08 90000 10153 20150 30160 40166 74540 89/// 333 20122 56999 58009 70000=
0164419410999992018011606004+23267+090700FM-12+000799999V0203101N002119999999N005000199+02041+01401101501ADDAA124000091AY121021AY201021GF100995999999999999999999MA1999999101451MD1999999-0091MW1051REMSYN06441941 31950 03104 10204 20140 30145 40150 70520 333 59009 70000=
0183419410999992018011612004+23267+090700FM-12+000799999V0209999C000019999999N004000199+01741+01201101071ADDAA124000091AY101021AY201021GF100995999999999999999999KA1240M+02301MA1999999101011MD1999999-0151MW1051REMSYN07041941 31940 00000 10174 20120 30101 40107 70500 333 10230 59015 70000=
0164419410999992018011615004+23267+090700FM-12+000799999V0209999C000019999999N004000199+01671+01301101291ADDAA124000091AY101021AY201021GF100995999999999999999999MA1999999101231MD1999999-0061MW1051REMSYN06441941 31940 00000 10167 20130 30123 40129 70500 333 59006 70000=
0164419410999992018011618004+23267+090700FM-12+000799999V0209999C000019999999N004000199+01481+01201101331ADDAA124000091AY101021AY201021GF100995999999999999999999MA1999999101271MD1999999-0201MW1051REMSYN06441941 31340 00000 10148 20120 30127 40133 70500 333 59020 70000=
0164419410999992018011700004+23267+090700FM-12+000799999V0209999C000019999999N004000199+01371+01301101271ADDAA124000091AY101021AY201021GF100995999999999999999999MA1999999101211MD1999999-0011MW1051REMSYN06441941 31940 00000 10137 20130 30121 40127 70500 333 59001 70000=
0183419410999992018011703004+23267+090700FM-12+000799999V0209999C000019999999N004000199+01621+01401101461ADDAA124000091AY101021AY201021GF100995999999999999999999KA1240N+01291MA1999999101411MD1999999-0191MW1051REMSYN07041941 31940 00000 10162 20140 30141 40146 70500 333 20129 59019 70000=
0136419410999992018011706004+23267+090700FM-12+000799999V0209999C000019999999N006000199+02281+01501101371ADDAA124000091GF100995999999999999999999MA1999999101311MD1999999-0141REMSYN05841941 32956 00000 10228 20150 30131 40137 333 59014 70000=
0136419410999992018011709004+23267+090700FM-12+000799999V0203601N001019999999N006000199+02501+01401101141ADDAA124000091GF100995999999999999999999MA1999999101081MD1999999+0071REMSYN05841941 32956 03602 10250 20140 30108 40114 333 58007 70000=
0228419410999992018011715004+23267+090700FM-12+000799999V0209999C00001024001CN004000199+01771+01501101311ADDAA124000091AY121021AY221021GA1031+004501061GA2041+024001041GE19AGL   +99999+99999GF105991031999004501999999MA1999999101251MW1051REMSYN08841941 31440 50000 10177 20150 30125 40131 70522 83520 333 56990 58021 70000 83615 84458=
0164419410999992018011718004+23267+090700FM-12+000799999V0203601N001019999999N004000199+01661+01501101391ADDAA124000091AY121021AY201021GF100995999999999999999999MA1999999101331MD1999999+0061MW1051REMSYN06441941 31940 03602 10166 20150 30133 40139 70520 333 58006 70000=
0164419410999992018012421004+23267+090700FM-12+000799999V0209999C000019999999N004000199+01621+01301101061ADDAA124000091AY101021AY201021GF100995999999999999999999MA1999999101001MD1999999+0061MW1051REMSYN06441941 31940 00000 10162 20130 30100 40106 70500 333 58006 70000=
0164419410999992018012500004+23267+090700FM-12+000799999V0209999C000019999999N004000199+01571+01501101001ADDAA124000091AY101021AY201021GF100995999999999999999999MA1999999100941MD1999999+0111MW1051REMSYN06441941 31940 00000 10157 20150 30094 40100 70500 333 58011 70000=
0183419410999992018012503004+23267+090700FM-12+000799999V0209999C000019999999N005000199+01871+01701101241ADDAA124000091AY101021AY201021GF100995999999999999999999KA1240N+01501MA1999999101181MD1999999+0161MW1051REMSYN07041941 31950 00000 10187 20170 30118 40124 70500 333 20150 58016 70000=
0228419410999992018012506004+23267+090700FM-12+000799999V0209999C000010240019N005000199+02471+01501101131ADDAA124000091AY121021AY201021GA1041+004801061GA2061+024001041GE19AGL   +99999+99999GF106991041999004801999999MA1999999101071MW1051REMSYN08841941 31450 60000 10247 20150 30107 40113 70520 85420 333 56990 58008 70000 84616 86458=
0228419410999992018012509004+23267+090700FM-12+000799999V0203601N002110240019N006000199+02641+01501101001ADDAA124000091AY121021AY201021GA1041+004801061GA2061+024001041GE19AGL   +99999+99999GF106991041999004801999999MA1999999100941MW1051REMSYN08841941 31456 63604 10264 20150 30094 40100 70520 85420 333 56990 58017 70000 84616 86458=
0247419410999992018012512004+23267+090700FM-12+000799999V0203601N001510240019N005000199+02261+01401100991ADDAA124000091AY121021AY201021GA1041+004801061GA2061+024001041GE19AGL   +99999+99999GF106991041999004801999999KA1240M+02721MA1999999100931MW1051REMSYN09441941 31450 63603 10226 20140 30093 40099 70520 85420 333 10272 56990 58009 70000 84616 86458=
0164419410999992018012515004+23267+090700FM-12+000799999V0209999C000019999999N005000199+01871+01601101191ADDAA124000091AY101021AY201021GF100995999999999999999999MA1999999101131MD1999999+0111MW1051REMSYN06441941 31950 00000 10187 20160 30113 40119 70500 333 58011 70000=
0164419410999992018012518004+23267+090700FM-12+000799999V0203601N001019999999N004000199+01771+01601101161ADDAA124000091AY101021AY201021GF100995999999999999999999MA1999999101101MD1999999+0051MW1051REMSYN06441941 31940 03602 10177 20160 30110 40116 70500 333 58005 70000=
0164419410999992018012521004+23267+090700FM-12+000799999V0209999C000019999999N004000199+01731+01501101131ADDAA124000091AY101021AY201021GF100995999999999999999999MA1999999101071MD1999999+0071MW1051REMSYN06441941 31940 00000 10173 20150 30107 40113 70500 333 58007 70000=
0164419410999992018012600004+23267+090700FM-12+000799999V0203601N001019999999N004000199+01521+01201101121ADDAA124000091AY101021AY201021GF100995999999999999999999MA1999999101061MD1999999+0121MW1051REMSYN06441941 31940 03602 10152 20120 30106 40112 70500 333 58012 70000=
0183419410999992018012603004+23267+090700FM-12+000799999V0209999C000019999999N005000199+01921+01501101301ADDAA124000091AY101021AY201021GF100995999999999999999999KA1240N+01361MA1999999101241MD1999999+0061MW1051REMSYN07041941 31950 00000 10192 20150 30124 40130 70500 333 20136 58006 70000=
0136419410999992018012606004+23267+090700FM-12+000799999V0203601N001519999999N006000199+02481+01001101401ADDAA124000091GF100995999999999999999999MA1999999101341MD1999999+0271REMSYN05841941 32456 03603 10248 20100 30134 40140 333 58027 70000=
0136419410999992018012609004+23267+090700FM-12+000799999V0203101N001519999999N006000199+02601+01001101021ADDAA124000091GF100995999999999999999999MA1999999100961MD1999999+0021REMSYN05841941 32456 03103 10260 20100 30096 40102 333 58002 70000=
0155419410999992018012612004+23267+090700FM-12+000799999V0203101N001519999999N005000199+02171+01101101091ADDAA124000091GF100995999999999999999999KA1240M+02721MA1999999101041MD1999999+0101REMSYN06441941 32450 03103 10217 20110 30104 40109 333 10272 58010 70000=
0136419410999992018012615004+23267+090700FM-12+000799999V0203101N001019999999N005000199+01801+01301101141ADDAA124000091GF100995999999999999999999MA1999999101081MD1999999-0051REMSYN05841941 32450 03102 10180 20130 30108 40114 333 59005 70000=
0136419410999992018012618004+23267+090700FM-12+000799999V0209999C000019999999N004000199+01721+01401101321ADDAA124000091GF100995999999999999999999MA1999999101261MD1999999+0161REMSYN05841941 32940 00000 10172 20140 30126 40132 333 58016 70000=
0164419410999992018012621004+23267+090700FM-12+000799999V0209999C000019999999N004000199+01671+01601101251ADDAA124000091AY101021AY201021GF100995999999999999999999MA1999999101191MD1999999+0121MW1051REMSYN06441941 31940 00000 10167 20160 30119 40125 70500 333 58012 70000=
0164419410999992018012700004+23267+090700FM-12+000799999V0203601N001519999999N004000199+01421+01101101321ADDAA124000091AY101021AY201021GF100995999999999999999999MA1999999101261MD1999999+0201MW1051REMSYN06441941 31940 03603 10142 20110 30126 40132 70500 333 58020 70000=
0183419410999992018012703004+23267+090700FM-12+000799999V0203601N001019999999N005000199+01721+01301101391ADDAA124000091AY101021AY201021GF100995999999999999999999KA1240N+01351MA1999999101331MD1999999+0091MW1051REMSYN07041941 31950 03602 10172 20130 30133 40139 70500 333 20135 58009 70000=
0136419410999992018012706004+23267+090700FM-12+000799999V0203601N001019999999N006000199+02291+01301101441ADDAA124000091GF100995999999999999999999MA1999999101381MD1999999+0041REMSYN05841941 32956 03602 10229 20130 30138 40144 333 58004 70000=
0136419410999992018012709004+23267+090700FM-12+000799999V0209999C000019999999N006000199+02421+01101101141ADDAA124000091GF100995999999999999999999MA1999999101081MD1999999+0121REMSYN05841941 32956 00000 10242 20110 30108 40114 333 58012 70000=
0155419410999992018012712004+23267+090700FM-12+000799999V0203601N001019999999N006000199+02141+01401101071ADDAA124000091GF100995999999999999999999KA1240M+02461MA1999999101011MD1999999-0021REMSYN06441941 32956 03602 10214 20140 30101 40107 333 10246 59002 70000=
0136419410999992018012715004+23267+090700FM-12+000799999V0203601N001019999999N005000199+01681+01301101271ADDAA124000091GF100995999999999999999999MA1999999101211MD1999999+0131REMSYN05841941 32950 03602 10168 20130 30121 40127 333 58013 70000=
0136419410999992018012718004+23267+090700FM-12+000799999V0203601N001019999999N004000199+01541+01301101371ADDAA124000091GF100995999999999999999999MA1999999101311MD1999999+0051REMSYN05841941 32940 03602 10154 20130 30131 40137 333 58005 70000=
0164419410999992018012721004+23267+090700FM-12+000799999V0203601N001019999999N004000199+01341+01101101231ADDAA124000091AY101021AY201021GF100995999999999999999999MA1999999101171MD1999999-0021MW1051REMSYN06441941 31940 03602 10134 20110 30117 40123 70500 333 59002 70000=
0164419410999992018012800004+23267+090700FM-12+000799999V0203601N001019999999N004000199+01171+01101101191ADDAA124000091AY101021AY201021GF100995999999999999999999MA1999999101131MD1999999-0131MW1051REMSYN06441941 31940 03602 10117 20110 30113 40119 70500 333 59013 70000=
0155419410999992018012803004+23267+090700FM-12+000799999V0209999C000019999999N006000199+01661+01201101591ADDAA124000091GF100995999999999999999999KA1240N+01111MA1999999101531MD1999999+0201REMSYN06441941 32956 00000 10166 20120 30153 40159 333 20111 58020 70000=
0136419410999992018012806004+23267+090700FM-12+000799999V0203601N001019999999N006000199+02241+01101101571ADDAA124000091GF100995999999999999999999MA1999999101511MD1999999+0131REMSYN05841941 32956 03602 10224 20110 30151 40157 333 58013 70000=
0136419410999992018012809004+23267+090700FM-12+000799999V0203601N001519999999N006000199+02381+01101101421ADDAA124000091GF100995999999999999999999MA1999999101361MD1999999+0281REMSYN05841941 32956 03603 10238 20110 30136 40142 333 58028 70000=
0155419410999992018012812004+23267+090700FM-12+000799999V0203601N001519999999N005000199+02031+01101101241ADDAA124000091GF100995999999999999999999KA1240M+02481MA1999999101181MD1999999+0171REMSYN06441941 32950 03603 10203 20110 30118 40124 333 10248 58017 70000=
0136419410999992018012815004+23267+090700FM-12+000799999V0209999C000019999999N005000199+01571+01401101541ADDAA124000091GF100995999999999999999999MA1999999101481MD1999999+0271REMSYN05841941 32950 00000 10157 20140 30148 40154 333 58027 70000=
0164419410999992018012818004+23267+090700FM-12+000799999V0209999C000019999999N004000199+01461+01301101481ADDAA124000091AY101021AY201021GF100995999999999999999999MA1999999101421MD1999999+0111MW1051REMSYN06441941 31940 00000 10146 20130 30142 40148 70500 333 58011 70000=
0164419410999992018012821004+23267+090700FM-12+000799999V0209999C000019999999N004000199+01431+01201101391ADDAA124000091AY101021AY201021GF100995999999999999999999MA1999999101331MD1999999+0161MW1051REMSYN06441941 31940 00000 10143 20120 30133 40139 70500 333 58016 70000=
0164419410999992018012900004+23267+090700FM-12+000799999V0209999C000019999999N004000199+01231+01101101371ADDAA124000091AY101021AY201021GF100995999999999999999999MA1999999101311MD1999999+0181MW1051REMSYN06441941 31940 00000 10123 20110 30131 40137 70500 333 58018 70000=
0183419410999992018012903004+23267+090700FM-12+000799999V0209999C000019999999N005000199+01771+01501101611ADDAA124000091AY101021AY201021GF100995999999999999999999KA1240N+01051MA1999999101551MD1999999+0021MW1051REMSYN07041941 31950 00000 10177 20150 30155 40161 70500 333 20105 58002 70000=
0136419410999992018012906004+23267+090700FM-12+000799999V0209999C000019999999N006000199+01891+01401101711ADDAA124000091GF100995999999999999999999MA1999999101651MD1999999+0141REMSYN05841941 32956 00000 10189 20140 30165 40171 333 58014 70000=
0136419410999992018012909004+23267+090700FM-12+000799999V0209999C000019999999N006000199+02521+01101101281ADDAA124000091GF100995999999999999999999MA1999999101221MD1999999+0141REMSYN05841941 32956 00000 10252 20110 30122 40128 333 58014 70000=
0155419410999992018012912004+23267+090700FM-12+000799999V0209999C000019999999N005000199+02101+01301101281ADDAA124000091GF100995999999999999999999KA1240M+02571MA1999999101221MD1999999+0041REMSYN06441941 32950 00000 10210 20130 30122 40128 333 10257 58004 70000=
0136419410999992018012915004+23267+090700FM-12+000799999V0209999C000019999999N005000199+01601+01301101501ADDAA124000091GF100995999999999999999999MA1999999101441MD1999999-0041REMSYN05841941 32950 00000 10160 20130 30144 40150 333 59004 70000=
0136419410999992018012918004+23267+090700FM-12+000799999V0209999C000019999999N005000199+01361+01201101561ADDAA124000091GF100995999999999999999999MA1999999101501MD1999999+0081REMSYN05841941 32950 00000 10136 20120 30150 40156 333 58008 70000=
0164419410999992018012921004+23267+090700FM-12+000799999V0209999C000019999999N004000199+01201+01101101501ADDAA124000091AY101021AY201021GF100995999999999999999999MA1999999101441MD1999999+0111MW1051REMSYN06441941 31940 00000 10120 20110 30144 40150 70500 333 58011 70000=
0164419410999992018013000004+23267+090700FM-12+000799999V0209999C000019999999N004000199+01181+01101101371ADDAA124000091AY101021AY201021GF100995999999999999999999MA1999999101311MD1999999+0001MW1051REMSYN06441941 31940 00000 10118 20110 30131 40137 70500 333 58000 70000=
0155419410999992018013003004+23267+090700FM-12+000799999V0209999C000019999999N005000199+01851+01701101481ADDAA124000091GF100995999999999999999999KA1240N+01131MA1999999101421MD1999999-0131REMSYN06441941 32950 00000 10185 20170 30142 40148 333 20113 59013 70000=
0136419410999992018013006004+23267+090700FM-12+000799999V0203601N001519999999N006000199+02421+01001101391ADDAA124000091GF100995999999999999999999MA1999999101331MD1999999-0321REMSYN05841941 32956 03603 10242 20100 30133 40139 333 59032 70000=
0136419410999992018013009004+23267+090700FM-12+000799999V0203601N001519999999N006000199+02561+00801101201ADDAA124000091GF100995999999999999999999MA1999999101141MD1999999-0081REMSYN05841941 32956 03603 10256 20080 30114 40120 333 59008 70000=
0155419410999992018013012004+23267+090700FM-12+000799999V0203601N001019999999N005000199+02161+01101101121ADDAA124000091GF100995999999999999999999KA1240M+02661MA1999999101061MD1999999-0161REMSYN06441941 32950 03602 10216 20110 30106 40112 333 10266 59016 70000=
0136419410999992018013015004+23267+090700FM-12+000799999V0209999C000019999999N005000199+01681+01301101261ADDAA124000091GF100995999999999999999999MA1999999101201MD1999999-0241REMSYN05841941 32950 00000 10168 20130 30120 40126 333 59024 70000=
0136419410999992018013018004+23267+090700FM-12+000799999V0209999C000019999999N004000199+01501+01301101271ADDAA124000091GF100995999999999999999999MA1999999101211MD1999999-0291REMSYN05841941 32940 00000 10150 20130 30121 40127 333 59029 70000=
0164419410999992018013100004+23267+090700FM-12+000799999V0209999C000019999999N004000199+01421+01301101141ADDAA124000091AY101021AY201021GF100995999999999999999999MA1999999101081MD1999999-0231MW1051REMSYN06441941 31940 00000 10142 20130 30108 40114 70500 333 59023 70000=
0247419410999992018013103004+23267+090700FM-12+000799999V0209999C000010240019N000800199+01471+01401101301ADDAA124000091AY141021AY221021GA1041+004801061GA2061+024001041GE19AGL   +99999+99999GF106991041999004801999999KA1240N+01251MA1999999101241MW1421REMSYN09441941 31908 60000 10147 20140 30124 40130 74242 85420 333 20125 56990 59018 70000 84616 86458=
0164419410999992018013106004+23267+090700FM-12+000799999V0209999C000019999999N006000199+02321+01501101291ADDAA124000091AY141021AY221021GF100995999999999999999999MA1999999101231MD1999999-0101MW1011REMSYN06441941 31956 00000 10232 20150 30123 40129 70142 333 59010 70000=
0136419410999992018013109004+23267+090700FM-12+000799999V0203601N001019999999N006000199+02611+01301101061ADDAA124000091GF100995999999999999999999MA1999999101001MD1999999-0141REMSYN05841941 32956 03602 10261 20130 30100 40106 333 59014 70000=
0155419410999992018013112004+23267+090700FM-12+000799999V0209999C000019999999N006000199+02171+01501100881ADDAA124000091GF100995999999999999999999KA1240M+02671MA1999999100821MD1999999-0241REMSYN06441941 32956 00000 10217 20150 30082 40088 333 10267 59024 70000=
0136419410999992018013115004+23267+090700FM-12+000799999V0209999C000019999999N005000199+01861+01701101251ADDAA124000091GF100995999999999999999999MA1999999101191MD1999999-0011REMSYN05841941 32950 00000 10186 20170 30119 40125 333 59001 70000=
0136419410999992018013118004+23267+090700FM-12+000799999V0209999C000019999999N004000199+01641+01301101361ADDAA124000091GF100995999999999999999999MA1999999101301MD1999999+0091REMSYN05841941 32940 00000 10164 20130 30130 40136 333 58009 70000=
0164419410999992018013121004+23267+090700FM-12+000799999V0209999C000019999999N004000199+01541+01301101091ADDAA124000091AY101021AY201021GF100995999999999999999999MA1999999101031MD1999999-0141MW1051REMSYN06441941 31940 00000 10154 20130 30103 40109 70500 333 59014 70000=
0164419410999992018020100004+23267+090700FM-12+000799999V0209999C000019999999N004000199+01441+01301101021ADDAA124000091AY101021AY201021GF100995999999999999999999MA1999999100961MD1999999-0121MW1051REMSYN06441941 31940 00000 10144 20130 30096 40102 70500 333 59012 70000=
0155419410999992018020103004+23267+090700FM-12+000799999V0209999C000019999999N006000199+01661+01601101281ADDAA124000091GF100995999999999999999999KA1240N+01361MA1999999101221MD1999999-0021REMSYN06441941 32956 00000 10166 20160 30122 40128 333 20136 59002 70000=
0136419410999992018020106004+23267+090700FM-12+000799999V0209999C000019999999N006000199+02281+01701101291ADDAA124000091GF100995999999999999999999MA1999999101231MD1999999+0001REMSYN05841941 32956 00000 10228 20170 30123 40129 333 58000 70000=
0136419410999992018020109004+23267+090700FM-12+000799999V0209999C000019999999N006000199+02501+01601101031ADDAA124000091GF100995999999999999999999MA1999999100971MD1999999-0031REMSYN05841941 32956 00000 10250 20160 30097 40103 333 59003 70000=
0183419410999992018020112004+23267+090700FM-12+000799999V0203601N001019999999N005000199+02181+01601101081ADDAA124000091AY101021AY201021GF100995999999999999999999KA1240M+02571MA1999999101021MD1999999+0201MW1051REMSYN07041941 31950 03602 10218 20160 30102 40108 70500 333 10257 58020 70000=
0136419410999992018020206004+23267+090700FM-12+000799999V0209999C000019999999N006000199+02341+01901101321ADDAA124000091GF100995999999999999999999MA1999999101261MD1999999+0071REMSYN05841941 32956 00000 10234 20190 30126 40132 333 58007 70000=
0136419410999992018020209004+23267+090700FM-12+000799999V0209999C000019999999N006000199+02541+01501101061ADDAA124000091GF100995999999999999999999MA1999999101011MD1999999+0041REMSYN05841941 32956 00000 10254 20150 30101 40106 333 58004 70000=
0155419410999992018020212004+23267+090700FM-12+000799999V0209999C000019999999N005000199+02201+01701101121ADDAA124000091GF100995999999999999999999KA1240M+02621MA1999999101061MD1999999+0041REMSYN06441941 32950 00000 10220 20170 30106 40112 333 10262 58004 70000=
0136419410999992018020215004+23267+090700FM-12+000799999V0209999C000019999999N005000199+01951+01601101281ADDAA124000091GF100995999999999999999999MA1999999101221MD1999999-0011REMSYN05841941 32950 00000 10195 20160 30122 40128 333 59001 70000=
0136419410999992018020218004+23267+090700FM-12+000799999V0209999C000019999999N005000199+01781+01501101371ADDAA124000091GF100995999999999999999999MA1999999101311MD1999999+0131REMSYN05841941 32950 00000 10178 20150 30131 40137 333 58013 70000=
0164419410999992018020221004+23267+090700FM-12+000799999V0209999C000019999999N004000199+01641+01401101331ADDAA124000091AY101021AY201021GF100995999999999999999999MA1999999101271MD1999999-0141MW1051REMSYN06441941 31940 00000 10164 20140 30127 40133 70500 333 59014 70000=
0200419410999992018020300004+23267+090700FM-12+000799999V0209999C00001001201WN000500199+01581+01581101331ADDAA124000091AY141021AY201021GA1091+999999999GE19AGL   +99999+99999GF109991091999999999999999MA1999999101271MW1451REMSYN07641941 31/05 90000 10158 20158 30127 40133 74540 89/// 333 56999 58024 70000=
0255419410999992018020303004+23267+090700FM-12+000799999V0209999C000010210019N001000199+01661+01601101581ADDAA124000091AY141021AY241021GA1041+004201061GA2051+021001041GE19AGL   +99999+99999GF106991041999004201999999KA1240N+01561MA1999999101521MD1999999+0221MW1421REMSYN08841941 31410 60000 10166 20160 30152 40158 74244 84520 333 20156 58022 70000 84614 85457=
0164419410999992018020306004+23267+090700FM-12+000799999V0209999C000019999999N005000199+02201+01801101521ADDAA124000091AY141021AY241021GF100995999999999999999999MA1999999101461MD1999999+0201MW1021REMSYN06441941 31950 00000 10220 20180 30146 40152 70244 333 58020 70000=
0200419410999992018020309004+23267+090700FM-12+000799999V0209999C000010240019N006000199+02421+01701101201ADDAA124000091GA1041+004801061GA2061+024001041GE19AGL   +99999+99999GF106991041999004801999999MA1999999101151REMSYN08241941 32456 60000 10242 20170 30115 40120 85420 333 56990 58014 70000 84616 86458=
0247419410999992018020312004+23267+090700FM-12+000799999V0209999C000010240019N005000199+02121+01901101251ADDAA124000091AY121021AY221021GA1041+004801061GA2061+024001041GE19AGL   +99999+99999GF106991041999004801999999KA1240M+02601MA1999999101201MW1051REMSYN09441941 31450 60000 10212 20190 30120 40125 70522 85420 333 10260 56990 58013 70000 84616 86458=
0228419410999992018020315004+23267+090700FM-12+000799999V0209999C000010240019N005000199+01951+01701101371ADDAA124000091AY121021AY221021GA1041+004801061GA2061+024001041GE19AGL   +99999+99999GF106991041999004801999999MA1999999101311MW1051REMSYN08841941 31450 60000 10195 20170 30131 40137 70522 85420 333 56990 58009 70000 84616 86458=
0228419410999992018020318004+23267+090700FM-12+000799999V0209999C000010240019N004000199+01871+01701101461ADDAA124000091AY121021AY221021GA1041+004801061GA2061+024001041GE19AGL   +99999+99999GF106991041999004801999999MA1999999101401MW1051REMSYN08841941 31440 60000 10187 20170 30140 40146 70522 85420 333 56990 58009 70000 84616 86458=
0164419410999992018020521004+23267+090700FM-12+000799999V0209999C000019999999N004000199+02021+01901101641ADDAA124000091AY101021AY201021GF100995999999999999999999MA1999999101581MD1999999+0271MW1051REMSYN06441941 31940 00000 10202 20190 30158 40164 70500 333 58027 70000=
0183419410999992018020600004+23267+090700FM-12+000799999V0203601N001019999999N004000199+01971+99999101581ADDAA124000091AY121021AY201021GF100995999999999999999999MA1999999101521MD1999999+0211MW1051REMSYN06441941 31940 03602 10197 20200 30152 40158 70520 333 58021 70000=EQDQ0120    2ATOD  
0219419410999992018020603004+23267+090700FM-12+000799999V0209999C00001002401WN000800199+02021+02001101621ADDAA124000091AY141021AY201021GA1091+999999999GE19AGL   +99999+99999GF109991091999999999999999KA1240N+01851MA1999999101561MW1451REMSYN08241941 31/08 90000 10202 20200 30156 40162 74540 89/// 333 20185 56999 59012 70000=
0250419410999992018020606004+23267+090700FM-12+000799999V0209999C00001004801CN005000199+02221+02001101741ADDAA124000091AY141021AY221021GA1051+004801061GA2011+009001091GA3081+024001041GE19AGL   +99999+99999GF108991051999004801999999MA1999999101681MW1051REMSYN09441941 31450 80000 10222 20200 30168 40174 70542 8632/ 333 56999 59014 70000 85616 81930 88458=
0136419410999992018020609004+23267+090700FM-12+000799999V0209999C000019999999N006000199+02581+02101101191ADDAA124000091GF100995999999999999999999MA1999999101131MD1999999-0361REMSYN05841941 32956 00000 10258 20210 30113 40119 333 59036 70000=
0155419410999992018020612004+23267+090700FM-12+000799999V0209999C000019999999N005000199+02401+02101101131ADDAA124000091GF100995999999999999999999KA1240M+02661MA1999999101071MD1999999-0281REMSYN06441941 32950 00000 10240 20210 30107 40113 333 10266 59028 70000=
0136419410999992018020615004+23267+090700FM-12+000799999V0209999C000019999999N005000199+02241+01901101251ADDAA124000091GF100995999999999999999999MA1999999101191MD1999999-0421REMSYN05841941 32950 00000 10224 20190 30119 40125 333 59042 70000=
0200419410999992018020618004+23267+090700FM-12+000799999V0209999C00001002401WN000800199+02101+01801101331ADDAA124000091AY141021AY201021GA1091+999999999GE19AGL   +99999+99999GF109991091999999999999999MA1999999101271MW1431REMSYN07641941 31/08 90000 10210 20180 30127 40133 74340 89/// 333 56999 59036 70000=
0149419410999992018020621004+23267+090700FM-12+000799999V0209999C000019999999N004000199+01991+01901101281ADDAY101021AY201021GF100995999999999999999999MA1999999101221MD1990361+9999MW1001REMSYN06041941 31940 00000 12199 20190 30122 40128 59036 70000 70544=
0164419410999992018020700004+23267+090700FM-12+000799999V0209999C000019999999N004000199+01931+01801101191ADDAA124000091AY141021AY241021GF100995999999999999999999MA1999999101131MD1999999-0391MW1051REMSYN06441941 31940 00000 10193 20180 30113 40119 70544 333 59039 70000=
0247419410999992018020703004+23267+090700FM-12+000799999V0201801N002110210019N004000199+01951+01901101371ADDAA124000091AY121021AY221021GA1041+004201061GA2061+021001041GE19AGL   +99999+99999GF107991041999004201999999KA1240N+01851MA1999999101311MW1051REMSYN09441941 31440 71804 10195 20190 30131 40137 70522 84520 333 20185 56990 59025 70000 84614 86457=
0228419410999992018020706004+23267+090700FM-12+000799999V0201801N00151024001CN004000199+02361+02101101331ADDAA124000091AY121021AY221021GA1031+004501061GA2041+024001041GE19AGL   +99999+99999GF105991031999004501999999MA1999999101271MW1051REMSYN08841941 31440 51803 10236 20210 30127 40133 70522 85420 333 56990 59041 70000 83615 84458=
0136419410999992018020709004+23267+090700FM-12+000799999V0201801N001019999999N006000199+02791+01901101131ADDAA124000091GF100995999999999999999999MA1999999101071MD1999999-0061REMSYN05841941 32956 01802 10279 20190 30107 40113 333 59006 70000=
0155419410999992018020712004+23267+090700FM-12+000799999V0209999C000019999999N005000199+02521+01901100991ADDAA124000091GF100995999999999999999999KA1240M+02881MA1999999100931MD1999999-0141REMSYN06441941 32950 00000 10252 20190 30093 40099 333 10288 59014 70000=
0136419410999992018020715004+23267+090700FM-12+000799999V0209999C000019999999N004000199+02181+02101101331ADDAA124000091GF100995999999999999999999MA1999999101271MD1999999+0081REMSYN05841941 32940 00000 10218 20210 30127 40133 333 58008 70000=
0136419410999992018020718004+23267+090700FM-12+000799999V0209999C000019999999N004000199+02141+02001101301ADDAA124000091GF100995999999999999999999MA1999999101241MD1999999-0031REMSYN05841941 32940 00000 10214 20200 30124 40130 333 59003 70000=
0164419410999992018020721004+23267+090700FM-12+000799999V0209999C000019999999N004000199+02091+02001101271ADDAA124000091AY101021AY201021GF100995999999999999999999MA1999999101211MD1999999-0011MW1051REMSYN06441941 31940 00000 10209 20200 30121 40127 70500 333 59001 70000=
0164419410999992018020800004+23267+090700FM-12+000799999V0209999C000019999999N004000199+02121+02101101141ADDAA124000091AY101021AY201021GF100995999999999999999999MA1999999101081MD1999999-0051MW1051REMSYN06441941 31940 00000 10212 20210 30108 40114 70500 333 59005 70000=
0247419410999992018020803004+23267+090700FM-12+000799999V0209999C000010240019N005000199+02121+02001101291ADDAA124000091AY121021AY201021GA1041+004801061GA2061+024001041GE19AGL   +99999+99999GF106991041999004801999999KA1240N+01881MA1999999101231MW1051REMSYN09441941 31450 60000 10212 20200 30123 40129 70520 85420 333 20188 56990 59008 70000 84616 86458=
0200419410999992018020806004+23267+090700FM-12+000799999V0203101N001510240019N006000199+02521+02201101191ADDAA124000091GA1041+004801061GA2061+024001041GE19AGL   +99999+99999GF106991041999004801999999MA1999999101131REMSYN08241941 32456 63103 10252 20220 30113 40119 85420 333 56990 59014 70000 84616 86458=
0200419410999992018020809004+23267+090700FM-12+000799999V0203601N001010240019N006000199+02641+01301100931ADDAA124000091GA1041+004801061GA2061+024001041GE19AGL   +99999+99999GF106991041999004801999999MA1999999100881REMSYN08241941 32956 63602 10264 20130 30088 40093 85420 333 56990 59028 70000 84616 86458=
0219419410999992018020812004+23267+090700FM-12+000799999V0209999C000010240019N006000199+02341+01601100891ADDAA124000091GA1041+004801061GA2061+024001041GE19AGL   +99999+99999GF106991041999004801999999KA1240M+02681MA1999999100841REMSYN08841941 32456 60000 10234 20160 30084 40089 85420 333 10268 56990 59010 70000 84616 86458=
0136419410999992018020815004+23267+090700FM-12+000799999V0209999C000019999999N005000199+01961+01601100941ADDAA124000091GF100995999999999999999999MA1999999100881MD1999999-0391REMSYN05841941 32950 00000 10196 20160 30088 40094 333 59039 70000=
0136419410999992018020818004+23267+090700FM-12+000799999V0209999C000019999999N004000199+01941+01501101061ADDAA124000091GF100995999999999999999999MA1999999101011MD1999999-0241REMSYN05841941 32940 00000 10194 20150 30101 40106 333 59024 70000=
0164419410999992018020821004+23267+090700FM-12+000799999V0209999C000019999999N004000199+01841+01601101071ADDAA124000091AY101021AY201021GF100995999999999999999999MA1999999101021MD1999999-0201MW1051REMSYN06441941 31940 00000 10184 20160 30102 40107 70500 333 59020 70000=
0164419410999992018020900004+23267+090700FM-12+000799999V0209999C000019999999N004000199+01771+01701101081ADDAA124000091AY101021AY201021GF100995999999999999999999MA1999999101031MD1999999-0211MW1051REMSYN06441941 31940 00000 10177 20170 30103 40108 70500 333 59021 70000=
0155419410999992018020903004+23267+090700FM-12+000799999V0209999C000019999999N006000199+01821+01701101321ADDAA124000091GF100995999999999999999999KA1240N+01711MA1999999101271MD1999999+0031REMSYN06441941 32956 00000 10182 20170 30127 40132 333 20171 58003 70000=
0136419410999992018020906004+23267+090700FM-12+000799999V0209999C000019999999N006000199+02601+01701101341ADDAA124000091GF100995999999999999999999MA1999999101291MD1999999+0151REMSYN05841941 32956 00000 10260 20170 30129 40134 333 58015 70000=
0136419410999992018020909004+23267+090700FM-12+000799999V0209999C000019999999N006000199+02741+01601101041ADDAA124000091GF100995999999999999999999MA1999999100981MD1999999+0111REMSYN05841941 32956 00000 10274 20160 30098 40104 333 58011 70000=
0155419410999992018020912004+23267+090700FM-12+000799999V0209999C000019999999N006000199+02521+01801101031ADDAA124000091GF100995999999999999999999KA1240M+02771MA1999999100971MD1999999+0141REMSYN06441941 32956 00000 10252 20180 30097 40103 333 10277 58014 70000=
0136419410999992018020915004+23267+090700FM-12+000799999V0209999C000019999999N005000199+02161+01801101131ADDAA124000091GF100995999999999999999999MA1999999101071MD1999999+0191REMSYN05841941 32950 00000 10216 20180 30107 40113 333 58019 70000=
0136419410999992018020918004+23267+090700FM-12+000799999V0209999C000019999999N004000199+02041+01801101181ADDAA124000091GF100995999999999999999999MA1999999101121MD1999999+0121REMSYN05841941 32940 00000 10204 20180 30112 40118 333 58012 70000=
0164419410999992018020921004+23267+090700FM-12+000799999V0209999C000019999999N004000199+02001+01801101221ADDAA124000091AY101021AY201021GF100995999999999999999999MA1999999101171MD1999999+0151MW1051REMSYN06441941 31940 00000 10200 20180 30117 40122 70500 333 58015 70000=
0164419410999992018021000004+23267+090700FM-12+000799999V0209999C000019999999N004000199+01971+01901101241ADDAA124000091AY101021AY201021GF100995999999999999999999MA1999999101191MD1999999+0161MW1051REMSYN06441941 31940 00000 10197 20190 30119 40124 70500 333 58016 70000=
0219419410999992018021003004+23267+090700FM-12+000799999V0209999C00001002401WN004000199+02071+01901101581ADDAA124000091AY141021AY241021GA1091+999999999GE19AGL   +99999+99999GF109991091999999999999999KA1240N+01861MA1999999101531MW1451REMSYN08241941 31/40 90000 10207 20190 30153 40158 74544 89/// 333 20186 56999 58026 70000=
0267419410999992018021006004+23267+090700FM-12+000799999V0203601N00101004501CN006000199+02401+02201101541ADDAA101002031AA224002031AY161021AY241021GA1051+004501061GA2011+009001091GA3081+024001041GE19AGL   +99999+99999GF108991051999004501999999MA1999999101481MW1211REMSYN10041941 11456 83602 10240 20220 30148 40154 60025 72164 8632/ 333 56999 58020 70020 85615 81930 88458=
0200419410999992018021009004+23267+090700FM-12+000799999V0201801N001010240019N006000199+02611+01901101441ADDAA124002031GA1041+004801061GA2061+024001041GE19AGL   +99999+99999GF106991041999004801999999MA1999999101381REMSYN08241941 32456 61802 10261 20190 30138 40144 84520 333 56990 58040 70020 84616 86458=
0241419410999992018021012004+23267+090700FM-12+000799999V0209999C00001004801CN005000199+02431+02001101451ADDAA124002031GA1051+004801061GA2011+009001091GA3081+024001041GE19AGL   +99999+99999GF108991051999004801999999KA1240M+02681MA1999999101391REMSYN09441941 32450 80000 10243 20200 30139 40145 8632/ 333 10268 56999 58042 70020 85616 81930 88458=
0200419410999992018021015004+23267+090700FM-12+000799999V0209999C000010240019N004000199+02141+02001101651ADDAA124002031GA1041+004801061GA2061+024001041GE19AGL   +99999+99999GF106991041999004801999999MA1999999101591REMSYN08241941 32440 60000 10214 20200 30159 40165 84520 333 56990 58052 70020 84616 86458=
0241419410999992018021018004+23267+090700FM-12+000799999V0209999C00001004801CN004000199+02081+99999101681ADDAA124002031GA1051+004801061GA2011+009001091GA3081+024001041GE19AGL   +99999+99999GF108991051999004801999999MA1999999101621REMSYN08841941 32440 80000 10208 20210 30162 40168 8632/ 333 56999 58050 70020 85616 81930 88458=EQDQ0121    2ATOD  
0250419410999992018021021004+23267+090700FM-12+000799999V0209999C00001004801CN004000199+02031+01901101601ADDAA124002031AY121021AY221021GA1051+004801061GA2011+009001091GA3081+024001041GE19AGL   +99999+99999GF108991051999004801999999MA1999999101541MW1051REMSYN09441941 31440 80000 10203 20190 30154 40160 70522 8632/ 333 56999 58038 70020 85616 81930 88458=
0250419410999992018021100004+23267+090700FM-12+000799999V0209999C00001004801CN005000199+01771+01701101591ADDAA124002031AY121021AY221021GA1051+004801061GA2011+009001091GA3081+024001041GE19AGL   +99999+99999GF108991051999004801999999MA1999999101531MW1051REMSYN09441941 31450 80000 10177 20170 30153 40159 70522 8632/ 333 56999 58035 70020 85616 81930 88458=
0241419410999992018021103004+23267+090700FM-12+000799999V0209999C00001004801CN006000199+01971+01401101701ADDAA124002031GA1051+004801061GA2011+009001091GA3081+024001041GE19AGL   +99999+99999GF108991051999004801999999KA1240N+01651MA1999999101641REMSYN09441941 32456 80000 10197 20140 30164 40170 8632/ 333 20165 56999 58012 70020 85616 81930 88458=
0200419410999992018021106004+23267+090700FM-12+000799999V0203601N001510240019N006000199+02591+01101101811ADDAA124000091GA1041+004801061GA2061+024001041GE19AGL   +99999+99999GF106991041999004801999999MA1999999101751REMSYN08241941 32456 63603 10259 20110 30175 40181 85420 333 56990 58027 70000 84616 86458=
0136419410999992018021109004+23267+090700FM-12+000799999V0203601N002119999999N006000199+02801+01101101631ADDAA124000091GF100995999999999999999999MA1999999101571MD1999999+0191REMSYN05841941 32956 03604 10280 20110 30157 40163 333 58019 70000=
0155419410999992018021112004+23267+090700FM-12+000799999V0203101N002119999999N006000199+02391+01401101491ADDAA124000091GF100995999999999999999999KA1240M+02891MA1999999101431MD1999999+0041REMSYN06441941 32956 03104 10239 20140 30143 40149 333 10289 58004 70000=
0136419410999992018021115004+23267+090700FM-12+000799999V0209999C000019999999N005000199+01921+01301101791ADDAA124000091GF100995999999999999999999MA1999999101731MD1999999+0141REMSYN05841941 32950 00000 10192 20130 30173 40179 333 58014 70000=
0136419410999992018021118004+23267+090700FM-12+000799999V0209999C000019999999N004000199+01901+01401101871ADDAA124000091GF100995999999999999999999MA1999999101811MD1999999+0191REMSYN05841941 32940 00000 10190 20140 30181 40187 333 58019 70000=
0164419410999992018021200004+23267+090700FM-12+000799999V0203601N001019999999N004000199+01611+01301101531ADDAA124000091AY101021AY201021GF100995999999999999999999MA1999999101471MD1999999-0061MW1051REMSYN06441941 31940 03602 10161 20130 30147 40153 70500 333 59006 70000=
0178419410999992018021206004+23267+090700FM-12+000799999V0203601N00151036001CN006000199+02721+01301101811ADDAA124000091GA1051+036001031GE19AGL   +99999+99999GF105991051999036001999999MA1999999101751REMSYN07641941 32956 53603 10272 20130 30175 40181 85030 333 56090 58000 70000 85362=
0136419410999992018021209004+23267+090700FM-12+000799999V0203601N002119999999N006000199+02931+01101101721ADDAA124000091GF100995999999999999999999MA1999999101661MD1999999+0091REMSYN05841941 32956 03604 10293 20110 30166 40172 333 58009 70000=
0155419410999992018021212004+23267+090700FM-12+000799999V0203601N001519999999N005000199+02561+01301101671ADDAA124000091GF100995999999999999999999KA1240M+03071MA1999999101611MD1999999+0181REMSYN06441941 32950 03603 10256 20130 30161 40167 333 10307 58018 70000=
0136419410999992018021215004+23267+090700FM-12+000799999V0203601N001019999999N005000199+02131+01701101801ADDAA124000091GF100995999999999999999999MA1999999101741MD1999999+0011REMSYN05841941 32950 03602 10213 20170 30174 40180 333 58001 70000=
0136419410999992018021218004+23267+090700FM-12+000799999V0203601N001519999999N004000199+02011+01501101901ADDAA124000091GF100995999999999999999999MA1999999101841MD1999999+0031REMSYN05841941 32940 03603 10201 20150 30184 40190 333 58003 70000=
0246419410999992018021221004+23267+090700FM-12+000799999V0209999C000019999999N004000199+01971+01501101711ADDAA124000091AY101021AY201021GF100995999999999999999999MA1999999101651MD1999999-0101MW1051REMSYN14641941 31940 00000 10197 20150 30165 40171 70500 333 59010 70000 41998 31450 20000 10182 20170 30163 40169 70511 82400 333 56900 58017 70000 81618=
0102419410999992018021300004+23267+090700FM-12+000799999V0203601N001519999999N005000199+01821+99999999999ADDGF100995999999999999999999REMSYN06441941 31950 03603 10182 10150 30165 40171 70500 333 58018 70000=
0155419410999992018021303004+23267+090700FM-12+000799999V0203601N001519999999N006000199+02021+01501101851ADDAA124000091GF100995999999999999999999KA1240N+01681MA1999999101791MD1999999+0101REMSYN06441941 32956 03603 10202 20150 30179 40185 333 20168 58010 70000=
0136419410999992018021306004+23267+090700FM-12+000799999V0203601N001519999999N006000199+02741+01501101941ADDAA124000091GF100995999999999999999999MA1999999101881MD1999999+0131REMSYN05841941 32956 03603 10274 20150 30188 40194 333 58013 70000=
0178419410999992018021309004+23267+090700FM-12+000799999V0203601N001512200019N007000199+02971+01701101661ADDAA124000091GA1021+004801061GE19AGL   +99999+99999GF102991021999004801999999MA1999999101601REMSYN07641941 32457 23603 10297 20170 30160 40166 82500 333 56900 58006 70000 82616=
0219419410999992018021312004+23267+090700FM-12+000799999V0203601N001519999999N006000199+02551+01801101561ADDAA124000091GA1021+004801061GA2031+090001001GE19AGL   +99999+99999GF105991021999004801999999KA1240M+03021MA1999999101501REMSYN08841941 32956 53603 10255 20180 30150 40156 82501 333 10302 56909 59011 70000 82616 83080=
0136419410999992018021315004+23267+090700FM-12+000799999V0203101N001519999999N005000199+02271+01801101721ADDAA124000091GF100995999999999999999999MA1999999101661MD1999999-0081REMSYN05841941 32950 03103 10227 20180 30166 40172 333 59008 70000=
0136419410999992018021318004+23267+090700FM-12+000799999V0209999C000019999999N005000199+02081+01801101771ADDAA124000091GF100995999999999999999999MA1999999101711MD1999999-0131REMSYN05841941 32950 00000 10208 20180 30171 40177 333 59013 70000=
0164419410999992018021321004+23267+090700FM-12+000799999V0209999C000019999999N004000199+01941+01701101681ADDAA124000091AY101021AY201021GF100995999999999999999999MA1999999101621MD1999999-0031MW1051REMSYN06441941 31940 00000 10194 20170 30162 40168 70500 333 59003 70000=
0164419410999992018021400004+23267+090700FM-12+000799999V0209999C000019999999N004000199+01881+01801101721ADDAA124000091AY101021AY201021GF100995999999999999999999MA1999999101661MD1999999+0011MW1051REMSYN06441941 31940 00000 10188 20180 30166 40172 70500 333 58001 70000=
0197419410999992018021403004+23267+090700FM-12+000799999V0203101N001012200019N006000199+02181+01501102011ADDAA124000091GA1021+090001001GE19AGL   +99999+99999GF102991021999090001999999KA1240N+01801MA1999999101951REMSYN08241941 32956 23102 10218 20150 30195 40201 82001 333 20180 56009 58016 70000 82080=
0178419410999992018021406004+23267+090700FM-12+000799999V0203601N002112200019N007000199+02701+01401101931ADDAA124000091GA1031+004801061GE19AGL   +99999+99999GF104991031999004801999999MA1999999101871REMSYN07641941 32457 43604 10270 20140 30187 40193 85400 333 56900 59001 70000 83616=
0178419410999992018021409004+23267+090700FM-12+000799999V0209999C000012200019N007000199+02921+01401101621ADDAA124000091GA1031+004801061GE19AGL   +99999+99999GF104991031999004801999999MA1999999101561REMSYN07641941 32457 40000 10292 20140 30156 40162 85400 333 56900 59004 70000 83616=
0136419410999992018021415004+23267+090700FM-12+000799999V0209999C000019999999N005000199+02191+01801101721ADDAA124000091GF100995999999999999999999MA1999999101661MD1999999+0001REMSYN05841941 32950 00000 10219 20180 30166 40172 333 58000 70000=
0136419410999992018021418004+23267+090700FM-12+000799999V0209999C000019999999N005000199+02091+01801101841ADDAA124000091GF100995999999999999999999MA1999999101781MD1999999+0071REMSYN05841941 32950 00000 10209 20180 30178 40184 333 58007 70000=
0164419410999992018021421004+23267+090700FM-12+000799999V0209999C000019999999N004000199+02001+01801101661ADDAA124000091AY101021AY201021GF100995999999999999999999MA1999999101611MD1999999-0011MW1051REMSYN06441941 31940 00000 10200 20180 30161 40166 70500 333 59001 70000=
0164419410999992018021500004+23267+090700FM-12+000799999V0209999C000019999999N004000199+01801+01601101731ADDAA124000091AY101021AY201021GF100995999999999999999999MA1999999101671MD1999999+0011MW1051REMSYN06441941 31940 00000 10180 20160 30167 40173 70500 333 58001 70000=
0155419410999992018021503004+23267+090700FM-12+000799999V0209999C000019999999N005000199+02251+01701101991ADDAA124000091GF100995999999999999999999KA1240N+01701MA1999999101931MD1999999-0021REMSYN06441941 32950 00000 10225 20170 30193 40199 333 20170 59002 70000=
0136419410999992018021506004+23267+090700FM-12+000799999V0203601N002119999999N007000199+02601+01701101961ADDAA124000091GF100995999999999999999999MA1999999101901MD1999999+0031REMSYN05841941 32957 03604 10260 20170 30190 40196 333 58003 70000=
0136419410999992018021509004+23267+090700FM-12+000799999V0203601N002119999999N007000199+02771+01001101671ADDAA124000091GF100995999999999999999999MA1999999101611MD1999999+0051REMSYN05841941 32957 03604 10277 20100 30161 40167 333 58005 70000=
0155419410999992018021512004+23267+090700FM-12+000799999V0203101N002119999999N006000199+02461+01301101681ADDAA124000091GF100995999999999999999999KA1240M+02881MA1999999101621MD1999999+0171REMSYN06441941 32956 03104 10246 20130 30162 40168 333 10288 58017 70000=
0136419410999992018021515004+23267+090700FM-12+000799999V0209999C000019999999N005000199+02031+01501101881ADDAA124000091GF100995999999999999999999MA1999999101821MD1999999+0161REMSYN05841941 32950 00000 10203 20150 30182 40188 333 58016 70000=
0136419410999992018021518004+23267+090700FM-12+000799999V0209999C000019999999N004000199+01971+01501101831ADDAA124000091GF100995999999999999999999MA1999999101771MD1999999-0011REMSYN05841941 32940 00000 10197 20150 30177 40183 333 59001 70000=
0164419410999992018021521004+23267+090700FM-12+000799999V0209999C000019999999N004000199+01921+01501101771ADDAA124000091AY101021AY201021GF100995999999999999999999MA1999999101711MD1999999+0111MW1051REMSYN06441941 31940 00000 10192 20150 30171 40177 70500 333 58011 70000=
0164419410999992018021600004+23267+090700FM-12+000799999V0203601N001519999999N005000199+01701+01601101611ADDAA124000091AY101021AY201021GF100995999999999999999999MA1999999101551MD1999999-0121MW1051REMSYN06441941 31950 03603 10170 20160 30155 40161 70500 333 59012 70000=
0155419410999992018021603004+23267+090700FM-12+000799999V0203601N001519999999N006000199+02281+01501101751ADDAA124000091GF100995999999999999999999KA1240N+01651MA1999999101701MD1999999-0241REMSYN06441941 32956 03603 10228 20150 30170 40175 333 20165 59024 70000=
0136419410999992018021606004+23267+090700FM-12+000799999V0203601N002119999999N006000199+02721+01401101791ADDAA124000091GF100995999999999999999999MA1999999101731MD1999999-0171REMSYN05841941 32956 03604 10272 20140 30173 40179 333 59017 70000=
0136419410999992018021609004+23267+090700FM-12+000799999V0203601N001519999999N007000199+02841+01601101391ADDAA124000091GF100995999999999999999999MA1999999101331MD1999999-0281REMSYN05841941 32957 03603 10284 20160 30133 40139 333 59028 70000=
0136419410999992018021618004+23267+090700FM-12+000799999V0203601N001019999999N004000199+01921+01501101421ADDAA124000091GF100995999999999999999999MA1999999101371MD1999999-0411REMSYN05841941 32940 03602 10192 20150 30137 40142 333 59041 70000=
0164419410999992018021621004+23267+090700FM-12+000799999V0203601N001019999999N004000199+01661+01501101251ADDAA124000091AY101021AY201021GF100995999999999999999999MA1999999101201MD1999999-0521MW1051REMSYN06441941 31940 03602 10166 20150 30120 40125 70500 333 59052 70000=
0164419410999992018021700004+23267+090700FM-12+000799999V0203601N001019999999N004000199+01571+01501101071ADDAA124000091AY101021AY201021GF100995999999999999999999MA1999999101011MD1999999-0541MW1051REMSYN06441941 31940 03602 10157 20150 30101 40107 70500 333 59054 70000=
0155419410999992018021703004+23267+090700FM-12+000799999V0209999C000019999999N006000199+02141+01601101341ADDAA124000091GF100995999999999999999999KA1240N+01531MA1999999101291MD1999999-0411REMSYN06441941 32956 00000 10214 20160 30129 40134 333 20153 59041 70000=
0136419410999992018021706004+23267+090700FM-12+000799999V0203601N001019999999N006000199+02671+01501101341ADDAA124000091GF100995999999999999999999MA1999999101281MD1999999-0451REMSYN05841941 32956 03602 10267 20150 30128 40134 333 59045 70000=
0136419410999992018021709004+23267+090700FM-12+000799999V0203601N001519999999N007000199+02821+01301100941ADDAA124000091GF100995999999999999999999MA1999999100891MD1999999-0451REMSYN05841941 32957 03603 10282 20130 30089 40094 333 59045 70000=
0155419410999992018021712004+23267+090700FM-12+000799999V0203601N001019999999N006000199+02441+01601100931ADDAA124000091GF100995999999999999999999KA1240M+02941MA1999999100881MD1999999-0381REMSYN06441941 32956 03602 10244 20160 30088 40093 333 10294 59038 70000=
0136419410999992018021715004+23267+090700FM-12+000799999V0209999C000019999999N005000199+02141+01601100971ADDAA124000091GF100995999999999999999999MA1999999100911MD1999999-0381REMSYN05841941 32950 00000 10214 20160 30091 40097 333 59038 70000=
0136419410999992018021718004+23267+090700FM-12+000799999V0209999C000019999999N004000199+02021+01601101061ADDAA124000091GF100995999999999999999999MA1999999101001MD1999999-0361REMSYN05841941 32940 00000 10202 20160 30100 40106 333 59036 70000=
0164419410999992018021721004+23267+090700FM-12+000799999V0209999C000019999999N004000199+01741+01501101031ADDAA124000091AY101021AY201021GF100995999999999999999999MA1999999100981MD1999999-0221MW1051REMSYN06441941 31940 00000 10174 20150 30098 40103 70500 333 59022 70000=
0164419410999992018021800004+23267+090700FM-12+000799999V0203601N001019999999N004000199+01681+01601100991ADDAA124000091AY101021AY201021GF100995999999999999999999MA1999999100931MD1999999-0081MW1051REMSYN06441941 31940 03602 10168 20160 30093 40099 70500 333 59008 70000=
0155419410999992018021803004+23267+090700FM-12+000799999V0209999C000019999999N006000199+02121+01701101341ADDAA124000091GF100995999999999999999999KA1240N+01611MA1999999101291MD1999999+0001REMSYN06441941 32956 00000 10212 20170 30129 40134 333 20161 58000 70000=
0136419410999992018021806004+23267+090700FM-12+000799999V0209999C000019999999N006000199+02771+01301101381ADDAA124000091GF100995999999999999999999MA1999999101321MD1999999+0041REMSYN05841941 32956 00000 10277 20130 30132 40138 333 58004 70000=
0136419410999992018021809004+23267+090700FM-12+000799999V0203101N001019999999N007000199+02951+01501101091ADDAA124000091GF100995999999999999999999MA1999999101031MD1999999+0141REMSYN05841941 32957 03102 10295 20150 30103 40109 333 58014 70000=
0155419410999992018021812004+23267+090700FM-12+000799999V0209999C000019999999N006000199+02551+01801101001ADDAA124000091GF100995999999999999999999KA1240M+03071MA1999999101041MD1999999+0161REMSYN06441941 32956 00000 10255 20180 30104 40100 333 10307 58016 70000=
0136419410999992018021815004+23267+090700FM-12+000799999V0209999C000019999999N005000199+02151+01801101241ADDAA124000091GF100995999999999999999999MA1999999101181MD1999999+0271REMSYN05841941 32950 00000 10215 20180 30118 40124 333 58027 70000=
0136419410999992018021818004+23267+090700FM-12+000799999V0209999C000019999999N005000199+01981+01701101281ADDAA124000091GF100995999999999999999999MA1999999101221MD1999999+0221REMSYN05841941 32950 00000 10198 20170 30122 40128 333 58022 70000=
0164419410999992018021821004+23267+090700FM-12+000799999V0209999C000019999999N004000199+01841+01501101241ADDAA124000091AY101021AY201021GF100995999999999999999999MA1999999101181MD1999999+0201MW1051REMSYN06441941 31940 00000 10184 20150 30118 40124 70500 333 58020 70000=
0164419410999992018021900004+23267+090700FM-12+000799999V0209999C000019999999N004000199+01771+01601101241ADDAA124000091AY101021AY201021GF100995999999999999999999MA1999999101181MD1999999+0251MW1051REMSYN06441941 31940 00000 10177 20160 30118 40124 70500 333 58025 70000=
0155419410999992018021903004+23267+090700FM-12+000799999V0209999C000019999999N006000199+02221+01801101431ADDAA124000091GF100995999999999999999999KA1240N+01711MA1999999101371MD1999999+0081REMSYN06441941 32956 00000 10222 20180 30137 40143 333 20171 58008 70000=
0136419410999992018021906004+23267+090700FM-12+000799999V0209999C000019999999N006000199+02761+01701101401ADDAA124000091GF100995999999999999999999MA1999999101341MD1999999+0021REMSYN05841941 32956 00000 10276 20170 30134 40140 333 58002 70000=
0136419410999992018021909004+23267+090700FM-12+000799999V0200901N001519999999N006000199+03021+01301101231ADDAA124000091GF100995999999999999999999MA1999999101171MD1999999+0141REMSYN05841941 32956 00903 10302 20130 30117 40123 333 58014 70000=
0155419410999992018021912004+23267+090700FM-12+000799999V0209999C000019999999N005000199+02581+01701101081ADDAA124000091GF100995999999999999999999KA1240M+03081MA1999999101021MD1999999+0081REMSYN06441941 32950 00000 10258 20170 30102 40108 333 10308 58008 70000=
0136419410999992018021915004+23267+090700FM-12+000799999V0209999C000019999999N004000199+02141+01601101361ADDAA124000091GF100995999999999999999999MA1999999101301MD1999999+0121REMSYN05841941 32940 00000 10214 20160 30130 40136 333 58012 70000=
0136419410999992018021918004+23267+090700FM-12+000799999V0209999C000019999999N004000199+02071+01801101301ADDAA124000091GF100995999999999999999999MA1999999101241MD1999999+0021REMSYN05841941 32940 00000 10207 20180 30124 40130 333 58002 70000=
0164419410999992018022000004+23267+090700FM-12+000799999V0209999C000019999999N005000199+01921+01801101361ADDAA124000091AY101021AY201021GF100995999999999999999999MA1999999101301MD1999999+0121MW1051REMSYN06441941 31950 00000 10192 20180 30130 40136 70500 333 58012 70000=
0221419410999992018022003004+23267+090700FM-12+000799999V0209999C000010240019N006000199+02371+01901101521ADDAA124000091GA1041+004801061GA2061+024001041GE19AGL   +99999+99999GF106991041999004801999999KA1240N+01851MA1999999101461MD1999999+0091REMSYN07641941 32456 60000 10237 20190 30146 40152 333 20185 58009 70000 84616 86458=
0188419410999992018022006004+23267+090700FM-12+000799999V0209999C000019999999N006000199+02921+01201101311ADDAA124000091GA1051+004501061GA2999+999999051GE19AGL   +99999+99999GF106991051999004501999999MA1999999101251REMSYN07041941 32456 60000 10292 20120 30125 40131 85420 333 56990 59009 70000=
0219419410999992018022009004+23267+090700FM-12+000799999V0200901N00151999999CN006000199+03001+01401101071ADDAA124000091GA1031+004801061GA2041+024001041GE19AGL   +99999+99999GF104991031999004801999999MA1999999101011REMSYN08241941 32456 40903 10300 20140 30101 40107 84420 333 56990 59016 70000 83616 84458=EQDQ01 024003SCOCIG
0155419410999992018022012004+23267+090700FM-12+000799999V0203601N001019999999N006000199+02641+01601101121ADDAA124000091GF100995999999999999999999KA1240M+03091MA1999999101061MD1999999+0041REMSYN06441941 32956 03602 10264 20160 30106 40112 333 10309 58004 70000=
0136419410999992018022015004+23267+090700FM-12+000799999V0209999C000019999999N004000199+02261+01901101241ADDAA124000091GF100995999999999999999999MA1999999101181MD1999999+0121REMSYN05841941 32940 00000 10226 20190 30118 40124 333 58012 70000=
0136419410999992018022018004+23267+090700FM-12+000799999V0209999C000019999999N004000199+02091+01901101841ADDAA124000091GF100995999999999999999999MA1999999101781MD1999999+0541REMSYN05841941 32940 00000 10209 20190 30178 40184 333 58054 70000=
0136419410999992018022021004+23267+090700FM-12+000799999V0209999C000019999999N004000199+02051+01901101791ADDAA124000091GF100995999999999999999999MA1999999101731MD1999999+0551REMSYN05841941 32940 00000 10205 20190 30173 40179 333 58055 70000=
0164419410999992018022100004+23267+090700FM-12+000799999V0209999C000019999999N005000199+01971+01901101121ADDAA124000091AY101021AY201021GF100995999999999999999999MA1999999101071MD1999999-0241MW1051REMSYN06441941 31950 00000 10197 20190 30107 40112 70500 333 59024 70000=
0155419410999992018022103004+23267+090700FM-12+000799999V0209999C000019999999N006000199+02471+01801101671ADDAA124000091GF100995999999999999999999KA1240N+01901MA1999999101611MD1999999+0151REMSYN06441941 32956 00000 10247 20180 30161 40167 333 20190 58015 70000=
0136419410999992018022106004+23267+090700FM-12+000799999V0203601N001519999999N006000199+02971+01801101271ADDAA124000091GF100995999999999999999999MA1999999101211MD1999999-0041REMSYN05841941 32956 03603 10297 20180 30121 40127 333 59004 70000=
0136419410999992018022109004+23267+090700FM-12+000799999V0203101N001519999999N006000199+03061+01801101001ADDAA124000091GF100995999999999999999999MA1999999100951MD1999999+0071REMSYN05841941 32956 03103 10306 20180 30095 40100 333 58007 70000=
0155419410999992018022112004+23267+090700FM-12+000799999V0209999C000019999999N005000199+02711+01901100921ADDAA124000091GF100995999999999999999999KA1240M+03081MA1999999100871MD1999999-0201REMSYN06441941 32950 00000 10271 20190 30087 40092 333 10308 59020 70000=
0136419410999992018022118004+23267+090700FM-12+000799999V0209999C000019999999N004000199+02261+02001101141ADDAA124000091GF100995999999999999999999MA1999999101081MD1999999-0701REMSYN05841941 32940 00000 10226 20200 30108 40114 333 59070 70000=
0122419410999992018022121004+23267+090700FM-12+000799999V0209999C000019999999N004000199+02221+01901100891ADDAA124000091GF100995999999999999999999MA1999999100841REMSYN05841941 32940 00000 10222 20190 30084 40089 333 59090 70000=
0164419410999992018022200004+23267+090700FM-12+000799999V0209999C000019999999N005000199+02021+01901100991ADDAA124000091AY101021AY201021GF100995999999999999999999MA1999999100931MD1999999-0131MW1051REMSYN06441941 31950 00000 10202 20190 30093 40099 70500 333 59013 70000=
0155419410999992018022203004+23267+090700FM-12+000799999V0209999C000019999999N006000199+02471+02101101191ADDAA124000091GF100995999999999999999999KA1240N+01951MA1999999101131MD1999999-0481REMSYN06441941 32956 00000 10247 20210 30113 40119 333 20195 59048 70000=
0136419410999992018022206004+23267+090700FM-12+000799999V0209999C000019999999N007000199+03021+01701100971ADDAA124000091GF100995999999999999999999MA1999999100921MD1999999-0301REMSYN05841941 32957 00000 10302 20170 30092 40097 333 59030 70000=
0136419410999992018022209004+23267+090700FM-12+000799999V0209999C000019999999N007000199+03141+01901100791ADDAA124000091GF100995999999999999999999MA1999999100731MD1999999-0211REMSYN05841941 32957 00000 10314 20190 30073 40079 333 59021 70000=
0155419410999992018022212004+23267+090700FM-12+000799999V0209999C000019999999N006000199+02761+02101100721ADDAA124000091GF100995999999999999999999KA1240M+03221MA1999999100661MD1999999-0201REMSYN06441941 32956 00000 10276 20210 30066 40072 333 10322 59020 70000=
0136419410999992018022215004+23267+090700FM-12+000799999V0209999C000019999999N005000199+02441+01901100891ADDAA124000091GF100995999999999999999999MA1999999100831MD1999999-0201REMSYN05841941 32950 00000 10244 20190 30083 40089 333 59020 70000=
0136419410999992018022218004+23267+090700FM-12+000799999V0209999C000019999999N004000199+02321+01901101001ADDAA124000091GF100995999999999999999999MA1999999100941MD1999999-0141REMSYN05841941 32940 00000 10232 20190 30094 40100 333 59014 70000=
0164419410999992018022221004+23267+090700FM-12+000799999V0209999C000019999999N004000199+02161+02001101001ADDAA124000091AY101021AY201021GF100995999999999999999999MA1999999100941MD1999999+0111MW1051REMSYN06441941 31940 00000 10216 20200 30094 40100 70500 333 58011 70000=
0156419410999992018022300004+23267+090700FM-12+000799999V0209999C00001002401WN002000199+02071+02001100991ADDAA124000091AY141021AY201021GF109991999999999999999999MA1999999100941MW1451REMSYN07041941 31/20 90000 10207 20200 30094 40099 74540 333 56999 58000 70000=
0269419410999992018022303004+23267+090700FM-12+000799999V0209999C00001004501CN005000199+02141+02001101291ADDAA124000091AY141021AY201021GA1051+004501061GA2011+009001091GA3081+024001041GE19AGL   +99999+99999GF108991051999004501999999KA1240N+02031MA1999999101241MW1421REMSYN10041941 31450 80000 10214 20200 30124 40129 74240 8632/ 333 20203 56999 58010 70000 85615 81930 88458=
0206419410999992018022306004+23267+090700FM-12+000799999V0209999C000012200019N006000199+02661+02201101251ADDAA124000091AY141021AY201021GA1031+004501061GE19AGL   +99999+99999GF103991031999004501999999MA1999999101191MW1011REMSYN08241941 31456 30000 10266 20220 30119 40125 70140 83500 333 56900 58028 70000 83615=
0136419410999992018022309004+23267+090700FM-12+000799999V0203101N001019999999N006000199+03021+02001100941ADDAA124000091GF100995999999999999999999MA1999999100891MD1999999+0151REMSYN05841941 32956 03102 10302 20200 30089 40094 333 58015 70000=
0155419410999992018022312004+23267+090700FM-12+000799999V0209999C000019999999N006000199+02771+02101100931ADDAA124000091GF100995999999999999999999KA1240M+03051MA1999999100881MD1999999+0211REMSYN06441941 32956 00000 10277 20210 30088 40093 333 10305 58021 70000=
0136419410999992018022315004+23267+090700FM-12+000799999V0209999C000019999999N005000199+02441+01901100991ADDAA124000091GF100995999999999999999999MA1999999100941MD1999999+0101REMSYN05841941 32950 00000 10244 20190 30094 40099 333 58010 70000=
0136419410999992018022318004+23267+090700FM-12+000799999V0209999C000019999999N004000199+02321+01901101111ADDAA124000091GF100995999999999999999999MA1999999101051MD1999999+0111REMSYN05841941 32940 00000 10232 20190 30105 40111 333 58011 70000=
0164419410999992018022321004+23267+090700FM-12+000799999V0209999C000019999999N004000199+02161+02001101061ADDAA124000091AY101021AY201021GF100995999999999999999999MA1999999101001MD1999999+0061MW1051REMSYN06441941 31940 00000 10216 20200 30100 40106 70500 333 58006 70000=
0164419410999992018022400004+23267+090700FM-12+000799999V0209999C000019999999N005000199+02071+02001101121ADDAA124000091AY101021AY201021GF100995999999999999999999MA1999999101061MD1999999+0131MW1051REMSYN06441941 31950 00000 10207 20200 30106 40112 70500 333 58013 70000=
0213419410999992018022403004+23267+090700FM-12+000799999V0209999C000010240019N006000199+02371+02101101511ADDAA124000091GA1041+004801061GA2061+024001041GE19AGL   +99999+99999GF106991041999004801999999KA1240N+02051MA1999999101451REMSYN08241941 32456 60000 10237 20210 30145 40151 85420 333 20205 56990 70000 84616 86458=
0136419410999992018022409004+23267+090700FM-12+000799999V0209999C000019999999N007000199+03121+01801101171ADDAA124000091GF100995999999999999999999MA1999999101121MD1999999+0231REMSYN05841941 32957 00000 10312 20180 30112 40117 333 58023 70000=
0155419410999992018022412004+23267+090700FM-12+000799999V0209999C000019999999N006000199+02801+02101101251ADDAA124000091GF100995999999999999999999KA1240M+03171MA1999999101201MD1999999+0321REMSYN06441941 32356 00000 10280 20210 30120 40125 333 10317 58032 70000=
0164419410999992018022418004+23267+090700FM-12+000799999V0209999C000019999999N004000199+02181+02001101361ADDAA124000091AY101021AY201021GF100995999999999999999999MA1999999101301MD1999999+0301MW1051REMSYN06441941 31940 00000 10218 20200 30130 40136 70500 333 58030 70000=
0164419410999992018022421004+23267+090700FM-12+000799999V0209999C000019999999N004000199+02181+02001101361ADDAA124000091AY101021AY201021GF100995999999999999999999MA1999999101301MD1999999+0301MW1051REMSYN06441941 31940 00000 10218 20200 30130 40136 70500 333 58030 70000=
0228419410999992018022500004+23267+090700FM-12+000799999V0209999C00001021001CN001000199+02061+01901101331ADDAA124000091AY141021AY241021GA1031+004501061GA2041+021001041GE19AGL   +99999+99999GF105991031999004501999999MA1999999101271MW1421REMSYN08841941 31410 50000 10206 20190 30127 40133 74244 83520 333 56990 58021 70000 83615 84457=
0136419410999992018022506004+23267+090700FM-12+000799999V0201801N001019999999N007000199+03021+01901101361ADDAA124000091GF100995999999999999999999MA1999999101311MD1999999-0171REMSYN05841941 32957 01802 10302 20190 30131 40136 333 59017 70000=
0136419410999992018022509004+23267+090700FM-12+000799999V0201801N001019999999N007000199+03251+01801101151ADDAA124000091GF100995999999999999999999MA1999999101101MD1999999-0021REMSYN05841941 32957 01802 10325 20180 30110 40115 333 59002 70000=
0155419410999992018022512004+23267+090700FM-12+000799999V0201801N001019999999N006000199+02931+02001101031ADDAA124000091GF100995999999999999999999KA1240M+03331MA1999999100971MD1999999-0221REMSYN06441941 32956 01802 10293 20200 30097 40103 333 10333 59022 70000=
0136419410999992018022515004+23267+090700FM-12+000799999V0209999C000019999999N005000199+02531+01901101181ADDAA124000091GF100995999999999999999999MA1999999101131MD1999999-0181REMSYN05841941 32950 00000 10253 20190 30113 40118 333 59018 70000=
0136419410999992018022518004+23267+090700FM-12+000799999V0209999C000019999999N004000199+02391+02101101201ADDAA124000091GF100995999999999999999999MA1999999101151MD1999999-0211REMSYN05841941 32940 00000 10239 20210 30115 40120 333 59021 70000=
0136419410999992018022521004+23267+090700FM-12+000799999V0209999C000019999999N004000199+02331+02001101141ADDAA124000091GF100995999999999999999999MA1999999101091MD1999999-0221REMSYN05841941 32940 00000 10233 20200 30109 40114 333 59022 70000=
0200419410999992018022600004+23267+090700FM-12+000799999V0203601N00211002401WN000800199+02281+01901101381ADDAA124000091AY141021AY201021GA1091+999999999GE19AGL   +99999+99999GF109991091999999999999999MA1999999101321MW1451REMSYN07641941 31/08 93604 10228 20190 30132 40138 74540 89/// 333 56999 58005 70000=
0247419410999992018022603004+23267+090700FM-12+000799999V0209999C000010240019N006000199+02171+01801101391ADDAA124000091AY141021AY221021GA1041+004801061GA2061+024001041GE19AGL   +99999+99999GF106991041999004801999999KA1240N+02151MA1999999101331MW1031REMSYN09441941 31456 60000 10217 20180 30133 40139 70342 85420 333 20215 56990 59009 70000 84616 86458=
0250419410999992018022606004+23267+090700FM-12+000799999V0209999C00001004801CN006000199+02521+01701101231ADDAA124000091AY141021AY221021GA1051+004801061GA2011+009001091GA3081+024001041GE19AGL   +99999+99999GF108991051999004801999999MA1999999101181MW1031REMSYN09441941 31456 80000 10252 20170 30118 40123 70342 8632/ 333 56999 59013 70000 85616 81930 88458=
0200419410999992018022609004+23267+090700FM-12+000799999V0209999C000010240019N006000199+02821+01501101071ADDAA124000091GA1041+004801061GA2061+024001041GE19AGL   +99999+99999GF106991041999004801999999MA1999999101011REMSYN08241941 32456 60000 10282 20150 30101 40107 85420 333 56990 59008 70000 84616 86458=
0155419410999992018022612004+23267+090700FM-12+000799999V0209999C000019999999N006000199+02621+01701100921ADDAA124000091GF100995999999999999999999KA1240M+03101MA1999999100871MD1999999-0111REMSYN06441941 32956 00000 10262 20170 30087 40092 333 10310 59011 70000=
0136419410999992018022615004+23267+090700FM-12+000799999V0209999C000019999999N005000199+02471+01901101021ADDAA124000091GF100995999999999999999999MA1999999100971MD1999999-0161REMSYN05841941 32950 00000 10247 20190 30097 40102 333 59016 70000=
0136419410999992018022618004+23267+090700FM-12+000799999V0209999C000019999999N004000199+02421+01901101131ADDAA124000091GF100995999999999999999999MA1999999101081MD1999999-0071REMSYN05841941 32940 00000 10242 20190 30108 40113 333 59007 70000=
0164419410999992018022621004+23267+090700FM-12+000799999V0209999C000019999999N004000199+02321+01901101041ADDAA124000091AY101021AY201021GF100995999999999999999999MA1999999100991MD1999999-0101MW1051REMSYN06441941 31940 00000 10232 20190 30099 40104 70500 333 59010 70000=
0164419410999992018022700004+23267+090700FM-12+000799999V0209999C000019999999N005000199+02221+02101101151ADDAA124000091AY101021AY201021GF100995999999999999999999MA1999999101091MD1999999-0231MW1051REMSYN06441941 31950 00000 10222 20210 30109 40115 70500 333 59023 70000=
0243419410999992018022703004+23267+090700FM-12+000799999V0209999C000019999999N006000199+02471+02001101311ADDAA124000091GF100995999999999999999999KA1240N+02081MA1999999101251MD1999999-0081REMSYN15241941 32956 00000 10247 20200 30125 40131 333 20208 59008 70000 41989 31450 20000 10240 20160 30130 40134 70510 82500 333 20176 56900 59001 79999 82618=
0136419410999992018022706004+23267+090700FM-12+000799999V0209999C000019999999N007000199+02971+02201101131ADDAA124000091GF100995999999999999999999MA1999999101081MD1999999-0101REMSYN05841941 32957 00000 10297 20220 30108 40113 333 59010 70000=
0136419410999992018022709004+23267+090700FM-12+000799999V0203601N001019999999N007000199+03141+01901100961ADDAA124000091GF100995999999999999999999MA1999999100911MD1999999-0101REMSYN05841941 32957 03602 10314 20190 30091 40096 333 59010 70000=
0155419410999992018022712004+23267+090700FM-12+000799999V0209999C000019999999N006000199+02751+02101100901ADDAA124000091GF100995999999999999999999KA1240M+03201MA1999999100851MD1999999-0021REMSYN06441941 32956 00000 10275 20210 30085 40090 333 10320 59002 70000=
0136419410999992018022715004+23267+090700FM-12+000799999V0209999C000019999999N005000199+02421+02101101071ADDAA124000091GF100995999999999999999999MA1999999101021MD1999999+0021REMSYN05841941 32950 00000 10242 20210 30102 40107 333 58002 70000=
0136419410999992018022718004+23267+090700FM-12+000799999V0209999C000019999999N005000199+02371+02101101111ADDAA124000091GF100995999999999999999999MA1999999101061MD1999999-0021REMSYN05841941 32950 00000 10237 20210 30106 40111 333 59002 70000=
0164419410999992018022721004+23267+090700FM-12+000799999V0209999C000019999999N004000199+02281+02101101031ADDAA124000091AY101021AY201021GF100995999999999999999999MA1999999100981MD1999999-0011MW1051REMSYN06441941 31940 00000 10228 20210 30098 40103 70500 333 59001 70000=
0164419410999992018022800004+23267+090700FM-12+000799999V0209999C000019999999N004000199+02151+02101101151ADDAA124000091AY101021AY201021GF100995999999999999999999MA1999999101091MD1999999+0001MW1051REMSYN06441941 31940 00000 10215 20210 30109 40115 70500 333 58000 70000=
0155419410999992018022803004+23267+090700FM-12+000799999V0209999C000019999999N006000199+02501+02201101351ADDAA124000091GF100995999999999999999999KA1240N+02061MA1999999101301MD1999999+0051REMSYN06441941 32956 00000 10250 20220 30130 40135 333 20206 58005 70000=
0136419410999992018022806004+23267+090700FM-12+000799999V0203601N001019999999N007000199+02971+02201101291ADDAA124000091GF100995999999999999999999MA1999999101241MD1999999+0161REMSYN05841941 32957 03602 10297 20220 30124 40129 333 58016 70000=
0136419410999992018022809004+23267+090700FM-12+000799999V0203601N001519999999N007000199+03201+01701101031ADDAA124000091GF100995999999999999999999MA1999999100981MD1999999+0071REMSYN05841941 32957 03603 10320 20170 30098 40103 333 58007 70000=
0155419410999992018022812004+23267+090700FM-12+000799999V0209999C000019999999N006000199+02861+01901100801ADDAA124000091GF100995999999999999999999KA1240M+03241MA1999999100751MD1999999-0101REMSYN06441941 32956 00000 10286 20190 30075 40080 333 10324 59010 70000=
0136419410999992018022815004+23267+090700FM-12+000799999V0209999C000019999999N005000199+02481+01801101001ADDAA124000091GF100995999999999999999999MA1999999100951MD1999999-0071REMSYN05841941 32950 00000 10248 20180 30095 40100 333 59007 70000=
0136419410999992018022818004+23267+090700FM-12+000799999V0209999C000019999999N004000199+02341+01801101051ADDAA124000091GF100995999999999999999999MA1999999101001MD1999999-0061REMSYN05841941 32940 00000 10234 20180 30100 40105 333 59006 70000=
0136419410999992018022821004+23267+090700FM-12+000799999V0209999C000019999999N004000199+02141+01901100961ADDAA124000091GF100995999999999999999999MA1999999100911MD1999999-0071REMSYN05841941 32940 00000 10214 20190 30091 40096 333 59007 70000=
0136419410999992018030100004+23267+090700FM-12+000799999V0209999C000019999999N004000199+02071+02001100911ADDAA124000091GF100995999999999999999999MA1999999100851MD1999999-0241REMSYN05841941 32940 00000 10207 20200 30085 40091 333 59024 70000=
0155419410999992018030103004+23267+090700FM-12+000799999V0209999C000019999999N006000199+02481+01901101171ADDAA124000091GF100995999999999999999999KA1240N+02011MA1999999101111MD1999999-0181REMSYN06441941 32956 00000 10248 20190 30111 40117 333 20201 59018 70000=
0136419410999992018030106004+23267+090700FM-12+000799999V0209999C000019999999N007000199+03021+01701101161ADDAA124000091GF100995999999999999999999MA1999999101111MD1999999-0131REMSYN05841941 32957 00000 10302 20170 30111 40116 333 59013 70000=
0136419410999992018030109004+23267+090700FM-12+000799999V0200901N001519999999N007000199+03141+01701100961ADDAA124000091GF100995999999999999999999MA1999999100901MD1999999-0071REMSYN05841941 32957 00903 10314 20170 30090 40096 333 59007 70000=
0155419410999992018030112004+23267+090700FM-12+000799999V0203601N001019999999N006000199+02861+02001101031ADDAA124000091GF100995999999999999999999KA1240M+03281MA1999999100971MD1999999+0231REMSYN06441941 32956 03602 10286 20200 30097 40103 333 10328 58023 70000=
0136419410999992018030115004+23267+090700FM-12+000799999V0209999C000019999999N005000199+02241+01701101041ADDAA124000091GF100995999999999999999999MA1999999100981MD1999999+0041REMSYN05841941 32950 00000 10224 20170 30098 40104 333 58004 70000=
0136419410999992018030118004+23267+090700FM-12+000799999V0209999C000019999999N004000199+02211+01701101041ADDAA124000091GF100995999999999999999999MA1999999100991MD1999999-0011REMSYN05841941 32940 00000 10221 20170 30099 40104 333 59001 70000=
0136419410999992018030121004+23267+090700FM-12+000799999V0209999C000019999999N004000199+02171+01701100951ADDAA124000091GF100995999999999999999999MA1999999100901MD1999999-0011REMSYN05841941 32940 00000 10217 20170 30090 40095 333 59001 70000=
0164419410999992018030200004+23267+090700FM-12+000799999V0209999C000019999999N004000199+02161+02101101011ADDAA124000091AY101021AY201021GF100995999999999999999999MA1999999100951MD1999999+0101MW1051REMSYN06441941 31940 00000 10216 20210 30095 40101 70500 333 58010 70000=
0219419410999992018030203004+23267+090700FM-12+000799999V0209999C000010240019N006000199+02571+02101101051ADDAA124000091GA1041+004801061GA2061+024001041GE19AGL   +99999+99999GF106991041999004801999999KA1240N+02101MA1999999100991REMSYN08841941 32456 60000 10257 20210 30099 40105 85420 333 20210 56990 59012 70000 84616 86458=
0136419410999992018030206004+23267+090700FM-12+000799999V0209999C000019999999N007000199+03121+01901101051ADDAA124000091GF100995999999999999999999MA1999999101001MD1999999-0111REMSYN05841941 32957 00000 10312 20190 30100 40105 333 59011 70000=
0136419410999992018030209004+23267+090700FM-12+000799999V0209999C000019999999N007000199+03241+01401100751ADDAA124000091GF100995999999999999999999MA1999999100701MD1999999-0201REMSYN05841941 32957 00000 10324 20140 30070 40075 333 59020 70000=
0155419410999992018030212004+23267+090700FM-12+000799999V0209999C000019999999N006000199+02901+01701100651ADDAA124000091GF100995999999999999999999KA1240M+03351MA1999999100601MD1999999-0371REMSYN06441941 32956 00000 10290 20170 30060 40065 333 10335 59037 70000=
0136419410999992018030215004+23267+090700FM-12+000799999V0209999C000019999999N005000199+02501+02201100781ADDAA124000091GF100995999999999999999999MA1999999100731MD1999999-0251REMSYN05841941 32950 00000 10250 20220 30073 40078 333 59025 70000=
0136419410999992018030218004+23267+090700FM-12+000799999V0209999C000019999999N005000199+02451+02101100781ADDAA124000091GF100995999999999999999999MA1999999100731MD1999999-0261REMSYN05841941 32950 00000 10245 20210 30073 40078 333 59026 70000=
0136419410999992018030221004+23267+090700FM-12+000799999V0209999C000019999999N005000199+02341+02001100741ADDAA124000091GF100995999999999999999999MA1999999100681MD1999999-0221REMSYN05841941 32950 00000 10234 20200 30068 40074 333 59022 70000=
0136419410999992018030300004+23267+090700FM-12+000799999V0209999C000019999999N005000199+02341+02001100741ADDAA124000091GF100995999999999999999999MA1999999100681MD1999999-0221REMSYN05841941 32950 00000 10234 20200 30068 40074 333 59022 70000=
