0238483040999992018010100004+19867+099767FM-12+040199999V0209999C000019999999N010000199+02071+02021101301ADDAA124005032AA224005232GA1061+008001061GA2999+999999031GE19AGL   +99999+99999GF108991061999008001999999KA1120N+01801MA1999999096641MD1710131-0251REMSYN08248304 12560 80000 10207 20202 39664 40130 57013 60054 8657/ 333 20180 59025 70052=
0201483040999992018010103004+19867+099767FM-12+040199999V0209999C000019999999N015000199+02281+01851101471ADDGA1031+008001061GA2999+999999031GA3999+999999021GE19AGL   +99999+99999GF107991031999008001999999MA1999999096841MD1210191-0231REMSYN06448304 32565 70000 10228 20185 39684 40147 52019 83536 333 59023=
0202483040999992018010106004+19867+099767FM-12+040199999V0203501N001019999999N015000199+02411+01811101221ADDAA124001431GA1061+008001061GA2999+999999031GE19AGL   +99999+99999GF108991061999008001999999MA1999999096621MD1710221-0171REMSYN07048304 32565 83502 10241 20181 39662 40122 57022 8657/ 333 59017 70014=
0185483040999992018010109004+19867+099767FM-12+040199999V0209999C000019999999N015000199+02511+01851101031ADDGA1061+008001061GA2999+999999031GE19AGL   +99999+99999GF108991061999008001999999MA1999999096461MD1710161-0061REMSYN06448304 32565 80000 10251 20185 39646 40103 57016 8657/ 333 59006=
0204483040999992018010112004+19867+099767FM-12+040199999V0209999C000019999999N012000199+02201+02011101251ADDGA1061+008001061GA2999+999999031GE19AGL   +99999+99999GF108991061999008001999999KA1240M+02541MA1999999096621MD1210161+0071REMSYN07048304 32562 80000 10220 20201 39662 40125 52016 8657/ 333 10254 58007=
0201483040999992018010115004+19867+099767FM-12+040199999V0209999C000019999999N012000199+02011+01871101411ADDGA1051+008001061GA2999+999999031GA3999+999999021GE19AGL   +99999+99999GF107991051999008001999999MA1999999096751MD1210131+0041REMSYN06448304 32562 70000 10201 20187 39675 40141 52013 85546 333 58004=
0201483040999992018010118004+19867+099767FM-12+040199999V0203101N001519999999N010000199+01871+01751101401ADDGA1041+008001061GA2999+999999031GA3999+999999021GE19AGL   +99999+99999GF106991041999008001999999MA1999999096711MD1710041-0021REMSYN06448304 32560 63103 10187 20175 39671 40140 57004 84546 333 59002=
0201483040999992018010121004+19867+099767FM-12+040199999V0209999C000019999999N010000199+01781+01681101201ADDGA1051+008001061GA2999+999999031GA3999+999999021GE19AGL   +99999+99999GF107991051999008001999999MA1999999096511MD1710201-0271REMSYN06448304 32560 70000 10178 20168 39651 40120 57020 85546 333 59027=
0204483040999992018010200004+19867+099767FM-12+040199999V0209999C000019999999N012000199+01731+01681101291ADDGA1061+008001061GA2999+999999031GE19AGL   +99999+99999GF108991061999008001999999KA1120N+01701MA1999999096581MD1210071-0011REMSYN07048304 32562 80000 10173 20168 39658 40129 52007 8657/ 333 20170 59001=
0201483040999992018010203004+19867+099767FM-12+040199999V0203001N001019999999N015000199+02121+01831101451ADDGA1031+008001081GA2999+999999031GA3999+999999021GE19AGL   +99999+99999GF105991031999008001999999MA1999999096801MD1210221-0011REMSYN06448304 32565 53002 10212 20183 39680 40145 52022 83146 333 59001=
0201483040999992018010206004+19867+099767FM-12+040199999V0201401N001019999999N015000199+02471+01911101201ADDGA1031+008001081GA2999+999999031GA3999+999999021GE19AGL   +99999+99999GF105991031999008001999999MA1999999096611MD1710191-0021REMSYN06448304 32565 51402 10247 20191 39661 40120 57019 83246 333 59002=
0185483040999992018010209004+19867+099767FM-12+040199999V0209999C000019999999N015000199+02531+01891101001ADDGA1061+008001061GA2999+999999031GE19AGL   +99999+99999GF108991061999008001999999MA1999999096431MD1710191-0031REMSYN06448304 32565 80000 10253 20189 39643 40100 57019 8657/ 333 59003=
0204483040999992018010212004+19867+099767FM-12+040199999V0209999C000012200019N012000199+02171+01981101141ADDGA1021+008001061GA2999+999999021GE19AGL   +99999+99999GF103991021999008001999999KA1240M+02551MA1999999096511MD1210091-0101REMSYN07048304 32562 30000 10217 20198 39651 40114 52009 82506 333 10255 59010=
0185483040999992018010215004+19867+099767FM-12+040199999V0209999C000012200019N012000199+01861+01731101341ADDGA1021+008001061GA2999+999999001GE19AGL   +99999+99999GF102991021999008001999999MA1999999096661MD1210141-0071REMSYN06448304 32562 20000 10186 20173 39666 40134 52014 82501 333 59007=
0185483040999992018010218004+19867+099767FM-12+040199999V0209999C000019999999N010000199+01881+01781101341ADDGA1061+999999031GA2999+999999021GE19AGL   +99999+99999GF107991061999999999999999MA1999999096651MD1410001-0061REMSYN06448304 32960 70000 10188 20178 39665 40134 54000 86056 333 59006=
0185483040999992018010221004+19867+099767FM-12+040199999V0209999C000019999999N010000199+01881+01811101251ADDGA1061+999999031GA2999+999999021GE19AGL   +99999+99999GF107991061999999999999999MA1999999096571MD1710091+0041REMSYN06448304 32960 70000 10188 20181 39657 40125 57009 86076 333 58004=
0220483040999992018010300004+19867+099767FM-12+040199999V0209999C000019999999N010000199+01891+01821101271ADDGA1021+008001061GA2999+999999031GA3999+999999021GE19AGL   +99999+99999GF105991021999008001999999KA1120N+01861MA1999999096591MD1210021-0021REMSYN07048304 32560 50000 10189 20182 39659 40127 52002 82545 333 20186 59002=
0152483040999992018010303004+19867+099767FM-12+040199999V0203601N0000199999999015000199+02151+01971101411ADDAA199999999GA1031+006001061GA2999+999999031GA3999+999999021GE19AGL   +99999+99999GF108991031999006001999999MA1999999096761MD1210171-0041REMSYN004BUFR
0201483040999992018010306004+19867+099767FM-12+040199999V0209999C000019999999N015000199+02431+02011101091ADDGA1021+008001061GA2999+999999031GA3999+999999021GE19AGL   +99999+99999GF107991021999008001999999MA1999999096501MD1710261-0111REMSYN06448304 32565 70000 10243 20201 39650 40109 57026 82546 333 59011=
0246483040999992018010309004+19867+099767FM-12+040199999V0209999C000019999999N015000199+02541+01931100891ADDAA101000021AY121021AY221021GA1041+008001061GA2999+999999031GA3999+999999021GE19AGL   +99999+99999GF106991041999008001999999MA1999999096331MD1710181-0111MW1501REMSYN07648304 21565 60000 10254 20193 39633 40089 57018 75022 84546 333 59011 69905=
0299483040999992018010312004+19867+099767FM-12+040199999V0209999C000019999999N015000199+02151+01911101081ADDAA103000021AA212000021AA324000021AY151021AY251021GA1031+008001061GA2999+999999031GA3999+999999021GE19AGL   +99999+99999GF108991031999008001999999KA1240M+02611MA1999999096451MD1210131-0061MW1021REMSYN09448304 01565 80000 10215 20191 39645 40108 52013 69902 70255 83576 333 10261 59006 69907 79999=
0136483040999992018010315004+19867+099767FM-12+040199999V0203601N0000199999999012000199+02021+01891101271ADDAA199999999GA1021+006001061GA2999+999999031GE19AGL   +99999+99999GF106991021999006001999999MA1999999096611MD1210151-0081REMSYN004BUFR
0218483040999992018010318004+19867+099767FM-12+040199999V0209999C000019999999N012000199+01991+01891101251ADDAA124000021GA1031+008001061GA2999+999999031GA3999+999999021GE19AGL   +99999+99999GF108991031999008001999999MA1999999096581MD1710021-0091REMSYN07048304 32562 80000 10199 20189 39658 40125 57002 83576 333 59009 79999=
0246483040999992018010321004+19867+099767FM-12+040199999V0209999C000019999999N010000199+01951+01891101151ADDAA102000231AY161021AY221021GA1041+008001061GA2999+999999031GA3999+999999021GE19AGL   +99999+99999GF108991041999008001999999MA1999999096481MD1710101-0101MW1211REMSYN07648304 21560 80000 10195 20189 39648 40115 57010 72162 84576 333 59010 69926=
0271483040999992018010400004+19867+099767FM-12+040199999V0209999C000019999999N010000199+01921+01861101271ADDAA124000231AY161021AY221021GA1031+008001071GA2999+999999031GA3999+999999021GE19AGL   +99999+99999GF108991031999008001999999KA1120N+01881MA1999999096591MD1210111+0001MW1021REMSYN08848304 11560 80000 10192 20186 39659 40127 52011 69924 70262 83676 333 20188 58000 70002=
0201483040999992018010403004+19867+099767FM-12+040199999V0209999C000019999999N012000199+02091+01981101431ADDGA1061+008001061GA2999+999999031GA3999+999999021GE19AGL   +99999+99999GF108991061999008001999999MA1999999096771MD1210181+0021REMSYN06448304 32562 80000 10209 20198 39677 40143 52018 86576 333 58002=
0280483040999992018010406004+19867+099767FM-12+040199999V0209999C000019999999N010000199+02301+02021101181ADDAA101000021AA206000021AA324000231AY121021AY221021GA1061+008001061GA2999+999999031GA3999+999999021GE19AGL   +99999+99999GF108991061999008001999999MA1999999096571MD1710201+0091MW1501REMSYN08848304 01560 80000 10230 20202 39657 40118 57020 69901 75022 86576 333 58009 69905 70002=
0246483040999992018010409004+19867+099767FM-12+040199999V0209999C000019999999N015000199+02361+02001100991ADDAA103000021AY151021AY211021GA1021+008001061GA2999+999999031GA3999+999999021GE19AGL   +99999+99999GF105991021999008001999999MA1999999096391MD1710181+0101MW1011REMSYN07648304 21565 50000 10236 20200 39639 40099 57018 70151 82546 333 58010 69907=
0282483040999992018010412004+19867+099767FM-12+040199999V0209999C000019999999N012000199+02131+01941101091ADDAA112000021AA224000231AY151021AY211021GA1041+008001061GA2999+999999031GA3999+999999021GE19AGL   +99999+99999GF108991041999008001999999KA1240M+02411MA1999999096461MD1210071+0011MW1031REMSYN08848304 11562 80000 10213 20194 39646 40109 52007 69902 70351 84576 333 10241 58001 70002=
0201483040999992018010415004+19867+099767FM-12+040199999V0209999C000019999999N010000199+01961+01831101301ADDGA1021+008001081GA2999+999999031GA3999+999999021GE19AGL   +99999+99999GF105991021999008001999999MA1999999096631MD1210171+0031REMSYN06448304 32560 50000 10196 20183 39663 40130 52017 82146 333 58003=
0280483040999992018010418004+19867+099767FM-12+040199999V0209999C000019999999N010000199+01921+01841101301ADDAA102000231AA218000231AA324000431AY161021AY221021GA1061+008001061GA2999+999999031GA3999+999999021GE19AGL   +99999+99999GF107991061999008001999999MA1999999096621MD1610011+0051MW1021REMSYN08848304 01560 70000 10192 20184 39662 40130 56001 69923 70262 86546 333 58005 69926 70004=
0229483040999992018010421004+19867+099767FM-12+040199999V0209999C000019999999N010000199+01871+01791101121ADDAY121021AY221021GA1041+008001061GA2999+999999031GA3999+999999021GE19AGL   +99999+99999GF106991041999008001999999MA1999999096441MD1710171-0031MW1101REMSYN07048304 31560 60000 10187 20179 39644 40112 57017 71022 84546 333 59003=
0255483040999992018010500004+19867+099767FM-12+040199999V0209999C000019999999N001000199+01921+01891101161ADDAA124000231AY141021AY221021GA1061+008001061GA2999+999999031GE19AGL   +99999+99999GF108991061999008001999999KA1120N+01871MA1999999096491MD1210041-0111MW1471REMSYN08848304 11510 80000 10192 20189 39649 40116 52004 69924 74742 8657/ 333 20187 59011 70002=
0213483040999992018010503004+19867+099767FM-12+040199999V0209999C000019999999N006000199+02071+01981101371ADDAY141021AY241021GA1061+008001061GA2999+999999051GE19AGL   +99999+99999GF108991061999008001999999MA1999999096711MD1210221-0061MW1101REMSYN07048304 31556 80000 10207 20198 39671 40137 52022 71044 8652/ 333 59006=
0264483040999992018010506004+19867+099767FM-12+040199999V0209999C000019999999N008000199+02221+01971101171ADDAA101000021AA206000021AA324000231AY141021AY221021GA1061+008001061GA2999+999999031GE19AGL   +99999+99999GF108991061999008001999999MA1999999096551MD1710161-0011MW1501REMSYN08848304 01558 80000 10222 20197 39655 40117 57016 69901 75042 8657/ 333 59001 69905 70002=
0230483040999992018010509004+19867+099767FM-12+040199999V0209999C000019999999N006000199+02191+02021101041ADDAA102000631AY161021AY221021GA1061+008001061GA2999+999999031GE19AGL   +99999+99999GF108991061999008001999999MA1999999096411MD1710141+0051MW1611REMSYN07648304 21556 80000 10219 20202 39641 40104 57014 76162 8657/ 333 58005 69966=
0283483040999992018010512004+19867+099767FM-12+040199999V0209999C000019999999N005000199+02001+01921101121ADDAA103000231AA212000831AA324001031AY161021AY221021GA1061+008001061GA2999+999999031GE19AGL   +99999+99999GF108991061999008001999999KA1240M+02271MA1999999096461MD1210051+0021MW1611REMSYN09448304 01550 80000 10200 20192 39646 40112 52005 69982 76162 8657/ 333 10227 58002 69927 70010=
0230483040999992018010515004+19867+099767FM-12+040199999V0209999C000019999999N006000199+01921+01841101191ADDAA103000021AY151021AY221021GA1061+008001061GA2999+999999031GE19AGL   +99999+99999GF108991061999008001999999MA1999999096511MD1210051-0111MW1101REMSYN07648304 21556 80000 10192 20184 39651 40119 52005 71052 8657/ 333 59011 69907=
0264483040999992018010518004+19867+099767FM-12+040199999V0209999C000019999999N006000199+01881+01801101121ADDAA101000021AA218000831AA324000831AY151021AY221021GA1061+008001061GA2999+999999031GE19AGL   +99999+99999GF108991061999008001999999MA1999999096451MD1710071-0171MW1501REMSYN08848304 01556 80000 10188 20180 39645 40112 57007 69983 75052 8657/ 333 59017 69905 70008=
0230483040999992018010521004+19867+099767FM-12+040199999V0209999C000019999999N005000199+01851+01781100981ADDAA101000431AY121021AY221021GA1061+008001061GA2999+999999031GE19AGL   +99999+99999GF108991061999008001999999MA1999999096311MD1710141-0141MW1601REMSYN07648304 21550 80000 10185 20178 39631 40098 57014 76022 8657/ 333 59014 69945=
0283483040999992018010600004+19867+099767FM-12+040199999V0209999C000019999999N007000199+01961+01931101041ADDAA103001031AA224002032AA324002432AY161021AY221021GA1061+008001061GA2999+999999031GE19AGL   +99999+99999GF108991061999008001999999KA1120N+01851MA1999999096381MD1210071-0121MW1501REMSYN09448304 01557 80000 10196 20193 39638 40104 52007 60024 75062 8657/ 333 20185 59012 60017 70024=
0230483040999992018010603004+19867+099767FM-12+040199999V0209999C000019999999N006000199+02001+01971101261ADDAA103001031AY161021AY261021GA1061+008001061GA2999+999999031GE19AGL   +99999+99999GF108991061999008001999999MA1999999096601MD1210221-0101MW1611REMSYN07648304 21556 80000 10200 20197 39660 40126 52022 76166 8657/ 333 59010 60017=
0247483040999992018010606004+19867+099767FM-12+040199999V0209999C000019999999N008000199+02241+01991100981ADDAA106001031AA224003831AY161021AY221021GA1061+008001061GA2999+999999031GE19AGL   +99999+99999GF108991061999008001999999MA1999999096371MD1710231-0191MW1101REMSYN08248304 11558 80000 10224 20199 39637 40098 57023 60011 71062 8657/ 333 59019 70038=
0185483040999992018010609004+19867+099767FM-12+040199999V0209999C000019999999N010000199+02301+02011100811ADDGA1061+008001061GA2999+999999031GE19AGL   +99999+99999GF108991061999008001999999MA1999999096221MD1710151-0221REMSYN06448304 32560 80000 10230 20201 39622 40081 57015 8657/ 333 59022=
0299483040999992018010612004+19867+099767FM-12+040199999V0209999C000019999999N010000199+02181+02101100881ADDAA102000231AA212002031AA324003231AY161021AY221021GA1051+008001061GA2999+999999031GA3999+999999021GE19AGL   +99999+99999GF107991051999008001999999KA1240M+02341MA1999999096271MD1210051-0231MW1011REMSYN09448304 01560 70000 10218 20210 39627 40088 52005 60022 70162 85546 333 10234 59023 69926 70032=
0201483040999992018010615004+19867+099767FM-12+040199999V0209999C000019999999N010000199+01961+01901101051ADDGA1031+008001061GA2999+999999031GA3999+999999021GE19AGL   +99999+99999GF106991031999008001999999MA1999999096391MD1210131-0131REMSYN06448304 32560 60000 10196 20190 39639 40105 52013 83546 333 59013=
0246483040999992018010618004+19867+099767FM-12+040199999V0209999C000019999999N004000199+01961+01901101021ADDAA124003231AY121021AY221021GA1031+008001061GA2999+999999031GA3999+999999021GE19AGL   +99999+99999GF106991031999008001999999MA1999999096371MD1710031-0101MW1101REMSYN07648304 31540 60000 10196 20190 39637 40102 57003 71022 83546 333 59010 70032=
0246483040999992018010621004+19867+099767FM-12+040199999V0209999C000019999999N002000199+01951+01901100961ADDAA101000231AY121021AY221021GA1061+008001061GA2999+999999031GA3999+999999021GE19AGL   +99999+99999GF108991061999008001999999MA1999999096301MD1710071-0021MW1601REMSYN07648304 21520 80000 10195 20190 39630 40096 57007 76022 86576 333 59002 69925=
0266483040999992018010700004+19867+099767FM-12+040199999V0209999C000019999999N002000199+02051+02031101091ADDAA124002032AA224001832AY161021AY221021GA1061+004501061GA2999+999999031GE19AGL   +99999+99999GF108991061999004501999999KA1120N+01941MA1999999096441MD1210141+0051MW1101REMSYN08848304 11420 80000 10205 20203 39644 40109 52014 60024 71062 8657/ 333 20194 58005 70018=
0229483040999992018010703004+19867+099767FM-12+040199999V0209999C000019999999N008000199+02291+02061101211ADDAY121021AY221021GA1061+008001061GA2999+999999031GA3999+999999021GE19AGL   +99999+99999GF108991061999008001999999MA1999999096591MD1210151-0051MW1101REMSYN07048304 31558 80000 10229 20206 39659 40121 52015 71022 86576 333 59005=
0218483040999992018010706004+19867+099767FM-12+040199999V0200401N002119999999N015000199+02591+02151100771ADDAA124000431GA1031+008001061GA2999+999999031GA3999+999999021GE19AGL   +99999+99999GF105991031999008001999999MA1999999096221MD1710371-0211REMSYN07048304 32565 50404 10259 20215 39622 40077 57037 83546 333 59021 70004=
0201483040999992018010709004+19867+099767FM-12+040199999V0203201N003119999999N015000199+02751+02231100631ADDGA1031+008001061GA2999+999999031GA3999+999999021GE19AGL   +99999+99999GF105991031999008001999999MA1999999096111MD1710111-0191REMSYN06448304 32565 53206 10275 20223 39611 40063 57011 83546 333 59019=
0299483040999992018010712004+19867+099767FM-12+040199999V0209999C000019999999N015000199+02361+02191100831ADDAA103000231AA212000231AA324000431AY161021AY221021GA1051+008001061GA2999+999999031GA3999+999999021GE19AGL   +99999+99999GF108991051999008001999999KA1240M+02861MA1999999096241MD1210131-0061MW1031REMSYN09448304 01565 80000 10236 20219 39624 40083 52013 69922 70362 85576 333 10286 59006 69927 70004=
0201483040999992018010715004+19867+099767FM-12+040199999V0209999C000019999999N012000199+02201+02081101001ADDGA1021+008001061GA2999+999999031GA3999+999999021GE19AGL   +99999+99999GF105991021999008001999999MA1999999096381MD1210141-0051REMSYN06448304 32562 50000 10220 20208 39638 40100 52014 82546 333 59005=
0205483040999992018010718004+19867+099767FM-12+040199999V0209999C000012200019N010000199+02061+01971101011ADDAA124000431GA1999+999999001GE19AGL   +99999+99999GF102991001999999999999999MA1999999096371MD1710011-0021REMSYN07048304 32960 20000 10206 20197 39637 40101 57001 80001 333 59002 70004=EQDQ01    003SCCGA1
0216483040999992018010721004+19867+099767FM-12+040199999V0209999C000012200019N004000199+01991+01911100991ADDAY111021AY211021GA1999+999999001GE19AGL   +99999+99999GF103991001999999999999999MA1999999096341MD1710021+0041MW1101REMSYN07048304 31940 30000 10199 20191 39634 40099 57002 71011 80001 333 58004=EQDQ01    003SCCGA1
0195483040999992018010800004+19867+099767FM-12+040199999V0209999C00001000301WN000100199+01991+01931101081ADDAA124000231AY141021AY241021GF109991999999999999999999KA1120N+01951MA1999999096421MD1210081-0011MW1471REMSYN08248304 11/01 90000 10199 20193 39642 40108 52008 69924 74744 333 20195 59001 70002=
0197483040999992018010803004+19867+099767FM-12+040199999V0209999C000012200019N015000199+02301+02151101291ADDAY141021AY211021GA1041+999999031GE19AGL   +99999+99999GF104991041999999999999999MA1999999096671MD1210251+0081MW1011REMSYN07048304 31965 40000 10230 20215 39667 40129 52025 70141 84050 333 58008=
0246483040999992018010806004+19867+099767FM-12+040199999V0209999C000012200019N015000199+02851+02261100901ADDAA124000231AY141021AY211021GA1021+008001061GA2999+999999031GA3999+999999001GE19AGL   +99999+99999GF103991021999008001999999MA1999999096391MD1710291+0131MW1011REMSYN07648304 31565 30000 10285 20226 39639 40090 57029 70141 82541 333 58013 70002=
0120483040999992018010809004+19867+099767FM-12+040199999V0203601N00001025001C9015000199+02921+02301100791ADDAA199999999GA1051+025001031GE19AGL   +99999+99999GF105991051999025001999999MA1999999096291MD1710101+0161REMSYN004BUFR
0188483040999992018010812004+19867+099767FM-12+040199999V0209999C000019999999N015000199+02541+02291100971ADDGA1051+999999031GE19AGL   +99999+99999GF105991051999999999999999KA1240M+02971MA1999999096401MD1210121+0151REMSYN07048304 32965 50000 10254 20229 39640 40097 52012 85040 333 10297 58015=
0188483040999992018010815004+19867+099767FM-12+040199999V0209999C000012200019N012000199+02301+02161101231ADDGA1999+999999001GE19AGL   +99999+99999GF102991001999999999999999MA1999999096611MD1210211+0231REMSYN06448304 32962 20000 10230 20216 39661 40123 52021 80001 333 58023=EQDQ01    003SCCGA1
0082483040999992018010818004+19867+099767FM-12+040199999V0203601N0000122000199010000199+02171+02091101211ADDAA199999999GF100991999999999999999999MA1999999096581MD1710041+0201REMSYN004BUFR
0153483040999992018010821004+19867+099767FM-12+040199999V0209999C000019999999N004000199+02081+02001101211ADDAY101021AY201021GF100995999999999999999999MA1999999096561MD1710021+0211MW1101REMSYN06448304 31940 00000 10208 20200 39656 40121 57002 71000 333 58021=
0172483040999992018010900004+19867+099767FM-12+040199999V0209999C00001000001WN000000199+02031+02001101291ADDAY141021AY241021GF109991999999999999999999KA1120N+01981MA1999999096631MD1210081+0221MW1471REMSYN07048304 31/00 90000 10203 20200 39663 40129 52008 74744 333 20198 58022=
0197483040999992018010903004+19867+099767FM-12+040199999V0209999C000012200019N015000199+02451+02301101481ADDAY141021AY211021GA1031+999999031GE19AGL   +99999+99999GF103991031999999999999999MA1999999096871MD1210241+0181MW1011REMSYN07048304 31965 30000 10245 20230 39687 40148 52024 70141 83040 333 58018=
0197483040999992018010906004+19867+099767FM-12+040199999V0201501N002612200019N015000199+02981+02341101031ADDAY141021AY211021GA1031+008001061GE19AGL   +99999+99999GF103991031999008001999999MA1999999096521MD1710351+0121MW1021REMSYN07048304 31565 31505 10298 20234 39652 40103 57035 70241 83500 333 58012=
0169483040999992018010909004+19867+099767FM-12+040199999V0209999C000012200019N015000199+03001+02141100791ADDGA1021+008001061GE19AGL   +99999+99999GF102991021999008001999999MA1999999096301MD1710221+0001REMSYN06448304 32565 20000 10300 20214 39630 40079 57022 82500 333 58000=
0207483040999992018010912004+19867+099767FM-12+040199999V0209999C000012200019N012000199+02611+02241100971ADDGA1999+999999001GE19AGL   +99999+99999GF102991001999999999999999KA1240M+03201MA1999999096411MD1210121+0001REMSYN07048304 32962 20000 10261 20224 39641 40097 52012 80001 333 10320 58000=EQDQ01    003SCCGA1
0125483040999992018010915004+19867+099767FM-12+040199999V0209999C000019999999N010000199+02371+02181101161ADDGF100995999999999999999999MA1999999096551MD1210141-0071REMSYN05848304 32960 00000 10237 20218 39655 40116 52014 333 59007=
0082483040999992018010918004+19867+099767FM-12+040199999V0203601N0000122000199010000199+02201+02081101211ADDAA199999999GF100991999999999999999999MA1999999096581MD1210021+0001REMSYN004BUFR
0125483040999992018010921004+19867+099767FM-12+040199999V0209999C000019999999N010000199+02101+02021101191ADDGF100995999999999999999999MA1999999096551MD1610031-0011REMSYN05848304 32960 00000 10210 20202 39655 40119 56003 333 59001=
0235483040999992018011000004+19867+099767FM-12+040199999V0209999C000012200019N007000199+01931+01881101391ADDAY101021AY201021GA1999+999999021GE19AGL   +99999+99999GF102991001999999999999999KA1120N+01891MA1999999096711MD1210161+0091MW1101REMSYN07648304 31957 20000 10193 20188 39671 40139 52016 71000 80005 333 20189 58009=EQDQ01    003SCCGA1
0169483040999992018011003004+19867+099767FM-12+040199999V0209999C000019999999N010000199+02351+02151101521ADDGA1051+008001061GE19AGL   +99999+99999GF105991051999008001999999MA1999999096901MD1210191+0051REMSYN06448304 32560 50000 10235 20215 39690 40152 52019 85400 333 58005=
0169483040999992018011006004+19867+099767FM-12+040199999V0202301N001012200019N015000199+03011+02331101111ADDGA1021+008001081GE19AGL   +99999+99999GF102991021999008001999999MA1999999096601MD1710301+0081REMSYN06448304 32565 22302 10301 20233 39660 40111 57030 82200 333 58008=
0169483040999992018011009004+19867+099767FM-12+040199999V0202301N002612200019N015000199+03111+02231100851ADDGA1021+008001081GE19AGL   +99999+99999GF102991021999008001999999MA1999999096371MD1710231+0061REMSYN06448304 32565 22305 10311 20223 39637 40085 57023 82800 333 58006=
0220483040999992018011012004+19867+099767FM-12+040199999V0202101N001019999999N015000199+02621+02301100951ADDGA1051+008001091GA2999+999999031GA3999+999999021GE19AGL   +99999+99999GF106991051999008001999999KA1240M+03131MA1999999096391MD1210021-0021REMSYN07048304 32565 62102 10262 20230 39639 40095 52002 85966 333 10313 59002=
0201483040999992018011015004+19867+099767FM-12+040199999V0209999C000012200019N010000199+02331+02131101291ADDGA1021+008001081GA2999+999999031GA3999+999999021GE19AGL   +99999+99999GF103991021999008001999999MA1999999096681MD1210291+0131REMSYN06448304 32560 30000 10233 20213 39668 40129 52029 82246 333 58013=
0201483040999992018011018004+19867+099767FM-12+040199999V0209999C000012200019N010000199+02201+02111101351ADDGA1031+008001081GA2999+999999031GA3999+999999021GE19AGL   +99999+99999GF104991031999008001999999MA1999999096711MD1210041+0141REMSYN06448304 32560 40000 10220 20211 39671 40135 52004 83846 333 58014=
0265483040999992018011021004+19867+099767FM-12+040199999V0200501N001019999999N008000199+01901+01741101401ADDAA102000091AY161021AY221021GA1051+008001081GA2999+999999031GA3999+999999021GE19AGL   +99999+99999GF106991051999008001999999MA1999999096721MD1210011+0211MW1101REMSYN07648304 21558 60502 10190 20174 39672 40140 52001 71062 85846 333 58021 69906=EQDQ01  00002PRCP02
0290483040999992018011100004+19867+099767FM-12+040199999V0201201N001519999999N008000199+01871+01691101591ADDAA124000091AY161021AY221021GA1061+008001061GA2999+999999031GE19AGL   +99999+99999GF108991061999008001999999KA1120N+01851MA1999999096891MD1210171+0201MW1101REMSYN08848304 11558 81203 10187 20169 39689 40159 52017 69904 71062 8657/ 333 20185 58020 79999=EQDQ01  00002PRCP24Q02  00002PRCP24
0185483040999992018011103004+19867+099767FM-12+040199999V0200801N001019999999N012000199+01841+01571101861ADDGA1061+008001061GA2999+999999031GE19AGL   +99999+99999GF108991061999008001999999MA1999999097151MD1210261+0341REMSYN06448304 32562 80802 10184 20157 39715 40186 52026 8657/ 333 58034=
0221483040999992018011106004+19867+099767FM-12+040199999V0200301N002119999999N012000199+01761+01501101671ADDAA124000091GA1061+008001061GA2999+999999031GE19AGL   +99999+99999GF108991061999008001999999MA1999999096951MD1710201+0571REMSYN07048304 32562 80304 10176 20150 39695 40167 57020 8657/ 333 58057 79999=EQDQ01  00002PRCP24
0185483040999992018011109004+19867+099767FM-12+040199999V0200501N003619999999N012000199+01711+01451101561ADDGA1061+008001061GA2999+999999031GE19AGL   +99999+99999GF108991061999008001999999MA1999999096831MD1710121+0711REMSYN06448304 32562 80507 10171 20145 39683 40156 57012 8657/ 333 58071=
0240483040999992018011112004+19867+099767FM-12+040199999V0200401N003119999999N010000199+01521+01251101771ADDAA124000091GA1061+008001061GA2999+999999031GE19AGL   +99999+99999GF108991061999008001999999KA1240M+02251MA1999999097001MD1210171+9999REMSYN07648304 32560 80406 10152 20125 39700 40177 52017 8657/ 333 10225 58082 79999=EQDQ01  00002PRCP24
0185483040999992018011115004+19867+099767FM-12+040199999V0200301N004619999999N010000199+01451+01301102041ADDGA1061+008001061GA2999+999999031GE19AGL   +99999+99999GF108991061999008001999999MA1999999097261MD1210251+0751REMSYN06448304 32560 80309 10145 20130 39726 40204 52025 8657/ 333 58075=
0221483040999992018011118004+19867+099767FM-12+040199999V0200201N001519999999N010000199+01401+01251102131ADDAA124000091GA1061+008001061GA2999+999999031GE19AGL   +99999+99999GF108991061999008001999999MA1999999097331MD1210081+0781REMSYN07048304 32560 80203 10140 20125 39733 40213 52008 8657/ 333 58078 79999=EQDQ01  00002PRCP24
0230483040999992018011121004+19867+099767FM-12+040199999V0200401N001019999999N006000199+01291+01201102141ADDAA101000431AY121021AY221021GA1061+008001061GA2999+999999031GE19AGL   +99999+99999GF108991061999008001999999MA1999999097331MD1410001+0741MW1601REMSYN07648304 21556 80402 10129 20120 39733 40214 54000 76022 8657/ 333 58074 69945=
0272483040999992018011200004+19867+099767FM-12+040199999V0200601N001519999999N005000199+01261+01131102191ADDAA102000231AA224000631AY161021AY221021GA1061+008001061GA2999+999999031GE19AGL   +99999+99999GF108991061999008001999999KA1120N+01211MA1999999097371MD1210041+0601MW1501REMSYN09448304 01550 80603 10126 20113 39737 40219 52004 69964 75062 8657/ 333 20121 58060 69926 70006=
0230483040999992018011203004+19867+099767FM-12+040199999V0200701N002119999999N006000199+01361+01171102381ADDAA101000021AY121021AY221021GA1061+008001061GA2999+999999031GE19AGL   +99999+99999GF108991061999008001999999MA1999999097561MD1210201+0521MW1501REMSYN07648304 21556 80704 10136 20117 39756 40238 52020 75022 8657/ 333 58052 69905=
0247483040999992018011206004+19867+099767FM-12+040199999V0200801N002619999999N010000199+01461+01041102111ADDAA106000021AA224000631AY151021AY221021GA1061+008001061GA2999+999999031GE19AGL   +99999+99999GF108991061999008001999999MA1999999097331MD1710241+0441MW1021REMSYN08248304 11560 80805 10146 20104 39733 40211 57024 69901 70252 8657/ 333 58044 70006=
0185483040999992018011209004+19867+099767FM-12+040199999V0200801N001519999999N010000199+01481+01081101921ADDGA1061+008001061GA2999+999999031GE19AGL   +99999+99999GF108991061999008001999999MA1999999097151MD1710181+0371REMSYN06448304 32560 80803 10148 20108 39715 40192 57018 8657/ 333 58037=
0221483040999992018011212004+19867+099767FM-12+040199999V0200501N001019999999N010000199+01371+01081102031ADDAA124000631GA1061+008001061GA2999+999999031GE19AGL   +99999+99999GF108991061999008001999999KA1240M+01571MA1999999097231MD1210081+0261REMSYN07648304 32560 80502 10137 20108 39723 40203 52008 8657/ 333 10157 58026 70006=
0185483040999992018011215004+19867+099767FM-12+040199999V0209999C000019999999N010000199+01261+01111102221ADDGA1061+008001061GA2999+999999031GE19AGL   +99999+99999GF108991061999008001999999MA1999999097401MD1210171+0181REMSYN06448304 32560 80000 10126 20111 39740 40222 52017 8657/ 333 58018=
0230483040999992018011218004+19867+099767FM-12+040199999V0200401N002119999999N006000199+01251+00951102161ADDAA124000631AY121021AY221021GA1061+008001061GA2999+999999031GE19AGL   +99999+99999GF108991061999008001999999MA1999999097331MD1710061+0031MW1101REMSYN07648304 31556 80404 10125 20095 39733 40216 57006 71022 8657/ 333 58003 70006=
0213483040999992018011221004+19867+099767FM-12+040199999V0209999C000019999999N004000199+01231+01071102041ADDAY121021AY221021GA1061+008001061GA2999+999999031GE19AGL   +99999+99999GF108991061999008001999999MA1999999097211MD1710121-0111MW1101REMSYN07048304 31540 80000 10123 20107 39721 40204 57012 71022 8657/ 333 59011=
0255483040999992018011300004+19867+099767FM-12+040199999V0209999C000019999999N002000199+01291+01101102081ADDAA124000021AY121021AY221021GA1061+008001061GA2999+999999031GE19AGL   +99999+99999GF108991061999008001999999KA1120N+01191MA1999999097261MD1210051-0111MW1101REMSYN08848304 11520 80000 10129 20110 39726 40208 52005 69904 71022 8657/ 333 20119 59011 79999=
0213483040999992018011303004+19867+099767FM-12+040199999V0209999C000019999999N006000199+01411+01071102221ADDAY121021AY221021GA1061+008001061GA2999+999999031GE19AGL   +99999+99999GF108991061999008001999999MA1999999097421MD1210161-0161MW1101REMSYN07048304 31556 80000 10141 20107 39742 40222 52016 71022 8657/ 333 59016=
0185483040999992018011306004+19867+099767FM-12+040199999V0203601N001519999999N012000199+01661+00901101911ADDGA1061+008001061GA2999+999999031GE19AGL   +99999+99999GF108991061999008001999999MA1999999097161MD1710261-0201REMSYN06448304 32562 83603 10166 20090 39716 40191 57026 8657/ 333 59020=
0185483040999992018011309004+19867+099767FM-12+040199999V0209999C000019999999N015000199+01721+01021101621ADDGA1031+008001061GA2999+999999031GE19AGL   +99999+99999GF108991031999008001999999MA1999999096891MD1710271-0311REMSYN06448304 32565 80000 10172 20102 39689 40162 57027 8357/ 333 59031=
0204483040999992018011312004+19867+099767FM-12+040199999V0200301N001519999999N012000199+01611+01191101721ADDGA1041+008001061GA2999+999999031GE19AGL   +99999+99999GF108991041999008001999999KA1240M+01781MA1999999096981MD1210081-0301REMSYN07048304 32562 80303 10161 20119 39698 40172 52008 8457/ 333 10178 59030=
0185483040999992018011315004+19867+099767FM-12+040199999V0209999C000019999999N010000199+01461+01201101961ADDGA1041+008001061GA2999+999999031GE19AGL   +99999+99999GF108991041999008001999999MA1999999097181MD1210201-0261REMSYN06448304 32560 80000 10146 20120 39718 40196 52020 8457/ 333 59026=
0213483040999992018011318004+19867+099767FM-12+040199999V0209999C000019999999N006000199+01481+01351101891ADDAY121021AY221021GA1041+008001061GA2999+999999031GE19AGL   +99999+99999GF108991041999008001999999MA1999999097111MD1710071-0271MW1101REMSYN07048304 31556 80000 10148 20135 39711 40189 57007 71022 8457/ 333 59027=
0213483040999992018011321004+19867+099767FM-12+040199999V0209999C000019999999N004000199+01451+01341101821ADDAY121021AY221021GA1041+008001061GA2999+999999031GE19AGL   +99999+99999GF108991041999008001999999MA1999999097041MD1710071-0221MW1101REMSYN07048304 31540 80000 10145 20134 39704 40182 57007 71022 8457/ 333 59022=
0248483040999992018011400004+19867+099767FM-12+040199999V0209999C000019999999N006000199+01451+01381101911ADDAY121021AY221021GA1031+008001061GA2999+999999031GA3999+999999021GE19AGL   +99999+99999GF106991031999008001999999KA1120N+01301MA1999999097131MD1210091-0171MW1101REMSYN07648304 31556 60000 10145 20138 39713 40191 52009 71022 83556 333 20130 59017=
0169483040999992018011403004+19867+099767FM-12+040199999V0209999C000019999999N015000199+01761+01301101991ADDGA1051+999999031GE19AGL   +99999+99999GF105991051999999999999999MA1999999097261MD1210131-0231REMSYN06448304 32965 50000 10176 20130 39726 40199 52013 85050 333 59023=
0169483040999992018011406004+19867+099767FM-12+040199999V0209999C000019999999N015000199+02201+01331101651ADDGA1051+999999031GE19AGL   +99999+99999GF105991051999999999999999MA1999999097001MD1710261-0261REMSYN06448304 32965 50000 10220 20133 39700 40165 57026 85040 333 59026=
0120483040999992018011409004+19867+099767FM-12+040199999V0203601N0000122000199015000199+02351+01261101341ADDAA199999999GA1999+060001001GE19AGL   +99999+99999GF102991999999060001999999MA1999999096731MD1710271-0271REMSYN004BUFR
0144483040999992018011412004+19867+099767FM-12+040199999V0209999C000019999999N015000199+01821+01441101481ADDGF100995999999999999999999KA1240M+02391MA1999999096771MD1210051-0251REMSYN06448304 32965 00000 10182 20144 39677 40148 52005 333 10239 59025=
0125483040999992018011415004+19867+099767FM-12+040199999V0209999C000019999999N010000199+01591+01411101671ADDGF100995999999999999999999MA1999999096921MD1210151-0291REMSYN05848304 32960 00000 10159 20141 39692 40167 52015 333 59029=
0153483040999992018011418004+19867+099767FM-12+040199999V0209999C000019999999N008000199+01531+01441101651ADDAY101021AY201021GF100995999999999999999999MA1999999096901MD1710021-0231MW1101REMSYN06448304 31958 00000 10153 20144 39690 40165 57002 71000 333 59023=
0229483040999992018011421004+19867+099767FM-12+040199999V0209999C000012200019N007000199+01421+01331101551ADDAY101021AY201021GA1021+008001081GA2999+999999031GA3999+999999021GE19AGL   +99999+99999GF102991021999008001999999MA1999999096781MD1710111-0261MW1101REMSYN07048304 31557 20000 10142 20133 39678 40155 57011 71000 82145 333 59026=
0204483040999992018011500004+19867+099767FM-12+040199999V0209999C000019999999N010000199+01491+01451101551ADDGA1061+008001061GA2999+999999031GE19AGL   +99999+99999GF108991061999008001999999KA1120N+01421MA1999999096791MD1210011-0361REMSYN07048304 32560 80000 10149 20145 39679 40155 52001 8653/ 333 20142 59036=
0169483040999992018011503004+19867+099767FM-12+040199999V0209999C000019999999N012000199+01781+01471101551ADDGA1061+999999031GE19AGL   +99999+99999GF106991061999999999999999MA1999999096841MD1210051-0441REMSYN06448304 32962 60000 10178 20147 39684 40155 52005 86030 333 59044=
0201483040999992018011506004+19867+099767FM-12+040199999V0200801N001012200019N015000199+02461+01661101231ADDGA1011+008001081GA2999+999999031GA3999+999999001GE19AGL   +99999+99999GF102991011999008001999999MA1999999096641MD1610201-0421REMSYN06448304 32565 20802 10246 20166 39664 40123 56020 81142 333 59042=
0201483040999992018011509004+19867+099767FM-12+040199999V0209999C000019999999N015000199+02611+01911100971ADDGA1021+008001081GA2999+999999031GA3999+999999021GE19AGL   +99999+99999GF106991021999008001999999MA1999999096411MD1710221-0371REMSYN06448304 32565 60000 10261 20191 39641 40097 57022 82147 333 59037=
0144483040999992018011512004+19867+099767FM-12+040199999V0209999C000019999999N012000199+02151+01831101031ADDGF100995999999999999999999KA1240M+02671MA1999999096401MD1610011-0441REMSYN06448304 32962 00000 10215 20183 39640 40103 56001 333 10267 59044=
0125483040999992018011515004+19867+099767FM-12+040199999V0209999C000019999999N010000199+01821+01691101221ADDGF100995999999999999999999MA1999999096541MD1210131-0441REMSYN05848304 32960 00000 10182 20169 39654 40122 52013 333 59044=
0153483040999992018011518004+19867+099767FM-12+040199999V0209999C000019999999N008000199+01641+01551101251ADDAY101021AY201021GF100995999999999999999999MA1999999096531MD1410001-0401MW1101REMSYN06448304 31958 00000 10164 20155 39653 40125 54000 71000 333 59040=
0153483040999992018011521004+19867+099767FM-12+040199999V0209999C000019999999N008000199+01511+01421101181ADDAY101021AY201021GF100995999999999999999999MA1999999096441MD1710091-0371MW1101REMSYN06448304 31958 00000 10151 20142 39644 40118 57009 71000 333 59037=
0172483040999992018011600004+19867+099767FM-12+040199999V0209999C00001000301WN000100199+01371+01331101471ADDAY141021AY201021GF109991999999999999999999KA1120N+01331MA1999999096701MD1210261-0081MW1471REMSYN07048304 31/01 90000 10137 20133 39670 40147 52026 74740 333 20133 59008=
0197483040999992018011603004+19867+099767FM-12+040199999V0202201N001512200019N009000199+01991+01741101501ADDAY141021AY211021GA1011+008001081GE19AGL   +99999+99999GF101991011999008001999999MA1999999096821MD1210121-0051MW1101REMSYN07048304 31559 12203 10199 20174 39682 40150 52012 71041 81100 333 59005=
0197483040999992018011606004+19867+099767FM-12+040199999V0209999C000012200019N012000199+02601+01761101121ADDAY141021AY211021GA1021+008001081GE19AGL   +99999+99999GF102991021999008001999999MA1999999096551MD1710271-0111MW1021REMSYN07048304 31562 20000 10260 20176 39655 40112 57027 70241 82200 333 59011=
0185483040999992018011609004+19867+099767FM-12+040199999V0209999C000012200019N012000199+02681+01801100791ADDGA1021+008001081GA2999+999999021GE19AGL   +99999+99999GF102991021999008001999999MA1999999096251MD1710301-0181REMSYN06448304 32562 20000 10268 20180 39625 40079 57030 82205 333 59018=
0188483040999992018011612004+19867+099767FM-12+040199999V0209999C000012200019N012000199+02221+01951100911ADDGA1021+008001081GE19AGL   +99999+99999GF102991021999008001999999KA1240M+02751MA1999999096301MD1210051-0121REMSYN07048304 32562 20000 10222 20195 39630 40091 52005 82100 333 10275 59012=
0125483040999992018011615004+19867+099767FM-12+040199999V0209999C000019999999N010000199+02041+01961101211ADDGF100995999999999999999999MA1999999096561MD1210261-0011REMSYN05848304 32960 00000 10204 20196 39656 40121 52026 333 59001=
0125483040999992018011618004+19867+099767FM-12+040199999V0209999C000019999999N010000199+01771+01721101241ADDGF100995999999999999999999MA1999999096541MD1710021-0021REMSYN05848304 32960 00000 10177 20172 39654 40124 57002 333 59002=
0153483040999992018011621004+19867+099767FM-12+040199999V0209999C000019999999N008000199+01651+01581101221ADDAY101021AY201021GF100995999999999999999999MA1999999096501MD1710041+0041MW1101REMSYN06448304 31958 00000 10165 20158 39650 40122 57004 71000 333 58004=
0172483040999992018011700004+19867+099767FM-12+040199999V0209999C00001001201WN000400199+01471+01431101331ADDAY141021AY201021GF109991999999999999999999KA1120N+01361MA1999999096581MD1210081-0141MW1471REMSYN07048304 31/04 90000 10147 20143 39658 40133 52008 74740 333 20136 59014=
0213483040999992018011703004+19867+099767FM-12+040199999V0209999C000012200019N010000199+01951+01791101481ADDAY141021AY201021GA1021+008001081GA2999+999999021GE19AGL   +99999+99999GF102991021999008001999999MA1999999096801MD1210221-0011MW1021REMSYN07048304 31560 20000 10195 20179 39680 40148 52022 70240 82805 333 59001=
0197483040999992018011706004+19867+099767FM-12+040199999V0209999C000012200019N015000199+02621+01761101111ADDAY141021AY201021GA1021+008001081GE19AGL   +99999+99999GF102991021999008001999999MA1999999096551MD1710261-0011MW1021REMSYN07048304 31565 20000 10262 20176 39655 40111 57026 70240 82200 333 59001=
0185483040999992018011709004+19867+099767FM-12+040199999V0209999C000012200019N015000199+02751+01881100801ADDGA1021+008001081GA2999+999999021GE19AGL   +99999+99999GF103991021999008001999999MA1999999096271MD1710271+0011REMSYN06448304 32565 30000 10275 20188 39627 40080 57027 82805 333 58001=
0144483040999992018011712004+19867+099767FM-12+040199999V0209999C000019999999N015000199+02271+02011100881ADDGF100995999999999999999999KA1240M+02791MA1999999096281MD1410001-0031REMSYN06448304 32965 00000 10227 20201 39628 40088 54000 333 10279 59003=
0188483040999992018011715004+19867+099767FM-12+040199999V0209999C000012200019N012000199+01821+01671101221ADDGA1999+999999001GE19AGL   +99999+99999GF102991001999999999999999MA1999999096531MD1210251+0011REMSYN06448304 32962 20000 10182 20167 39653 40122 52025 80001 333 58001=EQDQ01    003SCCGA1
0125483040999992018011718004+19867+099767FM-12+040199999V0209999C000019999999N012000199+01681+01591101251ADDGF100995999999999999999999MA1999999096541MD1990011+0011REMSYN05848304 32962 00000 10168 20159 39654 40125 50001 333 58001=
0153483040999992018011721004+19867+099767FM-12+040199999V0209999C000019999999N006000199+01531+01461101161ADDAY101021AY201021GF100995999999999999999999MA1999999096431MD1710111-0051MW1101REMSYN06448304 31956 00000 10153 20146 39643 40116 57011 71000 333 59005=
0172483040999992018011800004+19867+099767FM-12+040199999V0209999C00001000001WN000000199+01431+01381101331ADDAY141021AY241021GF109991999999999999999999KA1120N+01401MA1999999096571MD1210141-0011MW1471REMSYN07048304 31/00 90000 10143 20138 39657 40133 52014 74744 333 20140 59001=
0197483040999992018011803004+19867+099767FM-12+040199999V0209999C000012200019N010000199+02101+01861101461ADDAY141021AY201021GA1021+008001061GE19AGL   +99999+99999GF102991021999008001999999MA1999999096801MD1210231-0031MW1011REMSYN07048304 31560 20000 10210 20186 39680 40146 52023 70140 82500 333 59003=
0197483040999992018011806004+19867+099767FM-12+040199999V0209999C000012200019N015000199+02671+01941101071ADDAY141021AY201021GA1021+008001061GE19AGL   +99999+99999GF102991021999008001999999MA1999999096521MD1710291-0041MW1021REMSYN07048304 31565 20000 10267 20194 39652 40107 57029 70240 82500 333 59004=
0169483040999992018011809004+19867+099767FM-12+040199999V0209999C000012200019N015000199+02801+01961100841ADDGA1021+008001061GE19AGL   +99999+99999GF102991021999008001999999MA1999999096311MD1710201+0031REMSYN06448304 32565 20000 10280 20196 39631 40084 57020 82500 333 58003=
0144483040999992018011812004+19867+099767FM-12+040199999V0209999C000019999999N015000199+02291+01881100971ADDGF100995999999999999999999KA1240M+02861MA1999999096371MD1210051+0091REMSYN06448304 32965 00000 10229 20188 39637 40097 52005 333 10286 58009=
0125483040999992018011815004+19867+099767FM-12+040199999V0209999C000019999999N012000199+01951+01791101211ADDGF100995999999999999999999MA1999999096541MD1210181+0001REMSYN05848304 32962 00000 10195 20179 39654 40121 52018 333 58000=
0125483040999992018011818004+19867+099767FM-12+040199999V0209999C000019999999N010000199+01801+01701101331ADDGF100995999999999999999999MA1999999096631MD1210091+0081REMSYN05848304 32960 00000 10180 20170 39663 40133 52009 333 58008=
0153483040999992018011821004+19867+099767FM-12+040199999V0209999C000019999999N008000199+01671+01581101261ADDAY101021AY201021GF100995999999999999999999MA1999999096541MD1710091+0091MW1101REMSYN06448304 31958 00000 10167 20158 39654 40126 57009 71000 333 58009=
0172483040999992018011900004+19867+099767FM-12+040199999V0209999C00001000001WN000000199+01471+01431101451ADDAY141021AY201021GF109991999999999999999999KA1120N+01421MA1999999096701MD1210161+0131MW1471REMSYN07048304 31/00 90000 10147 20143 39670 40145 52016 74740 333 20142 58013=
0197483040999992018011903004+19867+099767FM-12+040199999V0203001N001012200019N007000199+01951+01771101661ADDAY141021AY221021GA1021+008001061GE19AGL   +99999+99999GF102991021999008001999999MA1999999096971MD1210281+0211MW1101REMSYN07048304 31557 23002 10195 20177 39697 40166 52028 71042 82400 333 58021=
0197483040999992018011906004+19867+099767FM-12+040199999V0200501N001012200019N010000199+02611+01791101251ADDAY141021AY201021GA1011+008001081GE19AGL   +99999+99999GF101991011999008001999999MA1999999096681MD1710291+0181MW1011REMSYN07048304 31560 10502 10261 20179 39668 40125 57029 70140 81100 333 58018=
0169483040999992018011909004+19867+099767FM-12+040199999V0209999C000012200019N012000199+02821+01721101031ADDGA1011+008001081GE19AGL   +99999+99999GF101991011999008001999999MA1999999096501MD1710181+0191REMSYN06448304 32562 10000 10282 20172 39650 40103 57018 81100 333 58019=
0144483040999992018011912004+19867+099767FM-12+040199999V0209999C000019999999N010000199+02151+01731101181ADDGF100995999999999999999999KA1240M+02871MA1999999096541MD1110041+0201REMSYN06448304 32960 00000 10215 20173 39654 40118 51004 333 10287 58020=
0125483040999992018011915004+19867+099767FM-12+040199999V0209999C000019999999N010000199+01801+01581101391ADDGF100995999999999999999999MA1999999096691MD1210151+0171REMSYN05848304 32960 00000 10180 20158 39669 40139 52015 333 58017=
0153483040999992018011918004+19867+099767FM-12+040199999V0209999C000019999999N008000199+01631+01511101391ADDAY101021AY201021GF100995999999999999999999MA1999999096661MD1710031+0061MW1101REMSYN06448304 31958 00000 10163 20151 39666 40139 57003 71000 333 58006=
0153483040999992018011921004+19867+099767FM-12+040199999V0209999C000019999999N006000199+01491+01401101271ADDAY101021AY201021GF100995999999999999999999MA1999999096531MD1710131+0021MW1101REMSYN06448304 31956 00000 10149 20140 39653 40127 57013 71000 333 58002=
0216483040999992018012000004+19867+099767FM-12+040199999V0209999C000012200019N000200199+01361+01321101461ADDAY141021AY201021GA1011+008001061GE19AGL   +99999+99999GF101991011999008001999999KA1120N+01311MA1999999096691MD1210161+0011MW1461REMSYN07648304 31502 10000 10136 20132 39669 40146 52016 74640 81500 333 20131 58001=
0153483040999992018012003004+19867+099767FM-12+040199999V0209999C000019999999N008000199+01901+01631101591ADDAY141021AY201021GF100995999999999999999999MA1999999096891MD1210211-0081MW1101REMSYN06448304 31958 00000 10190 20163 39689 40159 52021 71040 333 59008=
0197483040999992018012006004+19867+099767FM-12+040199999V0209999C000012200019N010000199+02561+01751101141ADDAY141021AY201021GA1011+008001081GE19AGL   +99999+99999GF101991011999008001999999MA1999999096571MD1710321-0111MW1031REMSYN07048304 31560 10000 10256 20175 39657 40114 57032 70340 81200 333 59011=
0125483040999992018012009004+19867+099767FM-12+040199999V0201301N002619999999N012000199+02841+01671100891ADDGF100995999999999999999999MA1999999096371MD1710211-0141REMSYN05848304 32962 01305 10284 20167 39637 40089 57021 333 59014=
0144483040999992018012012004+19867+099767FM-12+040199999V0209999C000019999999N010000199+02221+01991100991ADDGF100995999999999999999999KA1240M+02861MA1999999096371MD1210011-0181REMSYN06448304 32960 00000 10222 20199 39637 40099 52001 333 10286 59018=
0125483040999992018012015004+19867+099767FM-12+040199999V0209999C000019999999N010000199+01851+01701101181ADDGF100995999999999999999999MA1999999096501MD1210131-0211REMSYN05848304 32960 00000 10185 20170 39650 40118 52013 333 59021=
0125483040999992018012018004+19867+099767FM-12+040199999V0209999C000019999999N010000199+01601+01551101211ADDGF100995999999999999999999MA1999999096491MD1710011-0181REMSYN05848304 32960 00000 10160 20155 39649 40121 57001 333 59018=
0153483040999992018012021004+19867+099767FM-12+040199999V0209999C000019999999N008000199+01461+01411101231ADDAY101021AY201021GF100995999999999999999999MA1999999096481MD1710011-0051MW1101REMSYN06448304 31958 00000 10146 20141 39648 40123 57001 71000 333 59005=
0172483040999992018012100004+19867+099767FM-12+040199999V0209999C000019999999N000800199+01361+01321101461ADDAY141021AY201021GF100995999999999999999999KA1120N+01301MA1999999096691MD1210211+0001MW1461REMSYN07048304 31908 00000 10136 20132 39669 40146 52021 74640 333 20130 58000=
0197483040999992018012103004+19867+099767FM-12+040199999V0209999C000012200019N010000199+02031+01741101461ADDAY141021AY201021GA1021+008001081GE19AGL   +99999+99999GF102991021999008001999999MA1999999096791MD1210111-0131MW1021REMSYN07048304 31560 20000 10203 20174 39679 40146 52011 70240 82200 333 59013=
0197483040999992018012106004+19867+099767FM-12+040199999V0209999C000012200019N012000199+02641+01781101031ADDAY141021AY201021GA1021+008001081GE19AGL   +99999+99999GF102991021999008001999999MA1999999096471MD1710321-0121MW1021REMSYN07048304 31562 20000 10264 20178 39647 40103 57032 70240 82200 333 59012=
0125483040999992018012109004+19867+099767FM-12+040199999V0209999C000019999999N015000199+02861+01771100741ADDGF100995999999999999999999MA1999999096231MD1710241-0141REMSYN05848304 32965 00000 10286 20177 39623 40074 57024 333 59014=
0144483040999992018012112004+19867+099767FM-12+040199999V0209999C000019999999N012000199+02261+01981100881ADDGF100995999999999999999999KA1240M+02901MA1999999096271MD1210041-0111REMSYN06448304 32962 00000 10226 20198 39627 40088 52004 333 10290 59011=
0125483040999992018012115004+19867+099767FM-12+040199999V0209999C000019999999N012000199+01861+01691101111ADDGF100995999999999999999999MA1999999096431MD1210151-0081REMSYN05848304 32962 00000 10186 20169 39643 40111 52015 333 59008=
0125483040999992018012118004+19867+099767FM-12+040199999V0209999C000019999999N010000199+01681+01541101171ADDGF100995999999999999999999MA1999999096461MD1210041-0041REMSYN05848304 32960 00000 10168 20154 39646 40117 52004 333 59004=
0125483040999992018012121004+19867+099767FM-12+040199999V0209999C000019999999N010000199+01471+01431101161ADDGF100995999999999999999999MA1999999096421MD1710051-0071REMSYN05848304 32960 00000 10147 20143 39642 40116 57005 333 59007=
0117483040999992018012200004+19867+099767FM-12+040199999V0203601N0000122000199008000199+01321+01281101331ADDAA199999999AY101061AY201061GF100991999999999999999999KA1120N+01271MA1999999096561MD1210141-0131MW1101REMSYN004BUFR
0082483040999992018012203004+19867+099767FM-12+040199999V0203601N0000122000199010000199+02021+01701101411ADDAA199999999GF100991999999999999999999MA1999999096751MD1210191-0051REMSYN004BUFR
0125483040999992018012206004+19867+099767FM-12+040199999V0209999C000019999999N015000199+02591+01761101041ADDGF100995999999999999999999MA1999999096481MD1710271+0011REMSYN05848304 32965 00000 10259 20176 39648 40104 57027 333 58001=
0082483040999992018012209004+19867+099767FM-12+040199999V0203601N0000122000199015000199+02901+01811100721ADDAA199999999GF100991999999999999999999MA1999999096221MD1710261-0021REMSYN004BUFR
0082483040999992018012212004+19867+099767FM-12+040199999V0203601N0000122000199012000199+02251+02021100881ADDAA199999999GF100991999999999999999999MA1999999096281MD1210061+0011REMSYN004BUFR
0082483040999992018012215004+19867+099767FM-12+040199999V0203601N0000122000199012000199+01851+01711101161ADDAA199999999GF100991999999999999999999MA1999999096481MD1210201+0061REMSYN004BUFR
0125483040999992018012218004+19867+099767FM-12+040199999V0209999C000019999999N010000199+01581+01471101151ADDGF100995999999999999999999MA1999999096421MD1710051-0021REMSYN05848304 32960 00000 10158 20147 39642 40115 57005 333 59002=
0153483040999992018012221004+19867+099767FM-12+040199999V0209999C000019999999N004000199+01361+01301101121ADDAY101021AY201021GF100995999999999999999999MA1999999096371MD1710061-0031MW1101REMSYN06448304 31940 00000 10136 20130 39637 40112 57006 71000 333 59003=
0172483040999992018012300004+19867+099767FM-12+040199999V0209999C00001000301WN000100199+01301+01261101291ADDAY141021AY241021GF109991999999999999999999KA1120N+01261MA1999999096521MD1210151-0041MW1471REMSYN07048304 31/01 90000 10130 20126 39652 40129 52015 74744 333 20126 59004=
0104483040999992018012303004+19867+099767FM-12+040199999V0203601N0000122000199003000199+02051+01721101361ADDAA199999999AY141031AY201031GF100991999999999999999999MA1999999096701MD1210181-0051MW1101REMSYN004BUFR
0104483040999992018012306004+19867+099767FM-12+040199999V0203601N0000122000199015000199+02621+01741100921ADDAA199999999AY141061AY201061GF100991999999999999999999MA1999999096361MD1710331-0131MW1021REMSYN004BUFR
0125483040999992018012309004+19867+099767FM-12+040199999V0209999C000019999999N015000199+02901+01801100661ADDGF100995999999999999999999MA1999999096161MD1710201-0061REMSYN05848304 32965 00000 10290 20180 39616 40066 57020 333 59006=
0144483040999992018012312004+19867+099767FM-12+040199999V0209999C000019999999N015000199+02281+01901100811ADDGF100995999999999999999999KA1240M+02901MA1999999096211MD1210051-0071REMSYN06448304 32965 00000 10228 20190 39621 40081 52005 333 10290 59007=
0125483040999992018012315004+19867+099767FM-12+040199999V0209999C000019999999N012000199+01721+01581101021ADDGF100995999999999999999999MA1999999096331MD1210111-0141REMSYN05848304 32962 00000 10172 20158 39633 40102 52011 333 59014=
0082483040999992018012318004+19867+099767FM-12+040199999V0203601N0000122000199010000199+01521+01431100991ADDAA199999999GF100991999999999999999999MA1999999096271MD1710061-0161REMSYN004BUFR
0153483040999992018012321004+19867+099767FM-12+040199999V0209999C000019999999N004000199+01381+01311100981ADDAY101021AY201021GF100995999999999999999999MA1999999096231MD1710041-0141MW1101REMSYN06448304 31940 00000 10138 20131 39623 40098 57004 71000 333 59014=
0117483040999992018012400004+19867+099767FM-12+040199999V0203601N0000199999999000000199+01311+01291101141ADDAA199999999AY141061AY241061GF199999091999999999999999KA1120N+01241MA1999999096371MD1210141-0161MW1471REMSYN004BUFR
0153483040999992018012403004+19867+099767FM-12+040199999V0209999C000019999999N015000199+01991+01591101201ADDAY141021AY201021GF100995999999999999999999MA1999999096541MD1210171-0151MW1021REMSYN06448304 31965 00000 10199 20159 39654 40120 52017 70240 333 59015=
0153483040999992018012406004+19867+099767FM-12+040199999V0201201N002119999999N015000199+02751+01371100821ADDAY141021AY201021GF100995999999999999999999MA1999999096291MD1710251-0101MW1021REMSYN06448304 31965 01204 10275 20137 39629 40082 57025 70240 333 59010=
0082483040999992018012409004+19867+099767FM-12+040199999V0203601N0000122000199015000199+02901+01181100521ADDAA199999999GF100991999999999999999999MA1999999096021MD1710271-0151REMSYN004BUFR
0082483040999992018012412004+19867+099767FM-12+040199999V0203601N0000122000199015000199+02111+01771100701ADDAA199999999GF100991999999999999999999MA1999999096081MD1210061-0111REMSYN004BUFR
0082483040999992018012415004+19867+099767FM-12+040199999V0203601N0000122000199010000199+01851+01651100881ADDAA199999999GF100991999999999999999999MA1999999096221MD1210141-0141REMSYN004BUFR
0082483040999992018012418004+19867+099767FM-12+040199999V0203601N0000122000199010000199+01501+01391100921ADDAA199999999GF100991999999999999999999MA1999999096201MD1710021-0071REMSYN004BUFR
0104483040999992018012421004+19867+099767FM-12+040199999V0203601N0000122000199008000199+01661+01591100881ADDAA199999999AY101031AY201031GF100991999999999999999999MA1999999096181MD1710021-0101MW1101REMSYN004BUFR
0172483040999992018012500004+19867+099767FM-12+040199999V0209999C00001001201WN000600199+01201+01141101101ADDAY141021AY201021GF109991999999999999999999KA1120N+01141MA1999999096321MD1210131-0041MW1471REMSYN07048304 31/06 90000 10120 20114 39632 40110 52013 74740 333 20114 59004=
0197483040999992018012503004+19867+099767FM-12+040199999V0209999C000012200019N012000199+01971+01511101161ADDAY141021AY201021GA1021+008001081GE19AGL   +99999+99999GF102991021999008001999999MA1999999096501MD1210191-0041MW1021REMSYN07048304 31562 20000 10197 20151 39650 40116 52019 70240 82100 333 59004=
0213483040999992018012506004+19867+099767FM-12+040199999V0209999C000012200019N015000199+02611+01671100811ADDAY141021AY201021GA1011+008001081GA2999+999999021GE19AGL   +99999+99999GF102991011999008001999999MA1999999096261MD1710241-0011MW1021REMSYN07048304 31565 20000 10261 20167 39626 40081 57024 70240 81105 333 59001=
0188483040999992018012509004+19867+099767FM-12+040199999V0209999C000012200019N015000199+02901+01711100521ADDGA1999+999999021GE19AGL   +99999+99999GF101991001999999999999999MA1999999096031MD1710231+0011REMSYN06448304 32965 10000 10290 20171 39603 40052 57023 80005 333 58001=EQDQ01    003SCCGA1
0144483040999992018012512004+19867+099767FM-12+040199999V0209999C000019999999N015000199+02281+02001100721ADDGF100995999999999999999999KA1240M+02931MA1999999096121MD1210091+0011REMSYN06448304 32965 00000 10228 20200 39612 40072 52009 333 10293 58001=
0125483040999992018012515004+19867+099767FM-12+040199999V0209999C000019999999N012000199+01831+01591100931ADDGF100995999999999999999999MA1999999096251MD1210131+0041REMSYN05848304 32962 00000 10183 20159 39625 40093 52013 333 58004=
0125483040999992018012518004+19867+099767FM-12+040199999V0209999C000019999999N010000199+01711+01631100951ADDGF100995999999999999999999MA1999999096261MD1410001+0031REMSYN05848304 32960 00000 10171 20163 39626 40095 54000 333 58003=
0153483040999992018012521004+19867+099767FM-12+040199999V0209999C000019999999N008000199+01621+01591100911ADDAY101021AY201021GF100995999999999999999999MA1999999096201MD1710051+0031MW1101REMSYN06448304 31958 00000 10162 20159 39620 40091 57005 71000 333 58003=
0232483040999992018012600004+19867+099767FM-12+040199999V0209999C000012200019N008000199+01371+01331101121ADDAY101021AY201021GA1011+008001081GA2999+999999021GE19AGL   +99999+99999GF102991011999008001999999KA1120N+01321MA1999999096361MD1210161+0021MW1101REMSYN07648304 31558 20000 10137 20133 39636 40112 52016 71000 81105 333 20132 58002=
0125483040999992018012603004+19867+099767FM-12+040199999V0209999C000019999999N012000199+02091+01681101211ADDGF100995999999999999999999MA1999999096561MD1210201+0051REMSYN05848304 32962 00000 10209 20168 39656 40121 52020 333 58005=
0188483040999992018012606004+19867+099767FM-12+040199999V0209999C000019999999N015000199+02751+01881100831ADDGA1999+999999021GE19AGL   +99999+99999GF106991001999999999999999MA1999999096301MD1710271+0021REMSYN06448304 32965 60000 10275 20188 39630 40083 57027 80006 333 58002=EQDQ01    003SCCGA1
0188483040999992018012609004+19867+099767FM-12+040199999V0209999C000019999999N015000199+02851+01961100551ADDGA1999+999999021GE19AGL   +99999+99999GF106991001999999999999999MA1999999096051MD1710241+0031REMSYN06448304 32965 60000 10285 20196 39605 40055 57024 80006 333 58003=EQDQ01    003SCCGA1
0204483040999992018012612004+19867+099767FM-12+040199999V0209999C000012200019N015000199+02441+02151100681ADDGA1021+999999031GA2999+999999021GE19AGL   +99999+99999GF104991021999999999999999KA1240M+02891MA1999999096111MD1210061-0031REMSYN07048304 32965 40000 10244 20215 39611 40068 52006 82045 333 10289 59003=
0169483040999992018012615004+19867+099767FM-12+040199999V0209999C000012200019N013000199+02091+01951100901ADDGA1021+999999031GE19AGL   +99999+99999GF102991021999999999999999MA1999999096271MD1210151-0031REMSYN06448304 32963 20000 10209 20195 39627 40090 52015 82040 333 59003=
0169483040999992018012618004+19867+099767FM-12+040199999V0209999C000012200019N013000199+01901+01801100981ADDGA1021+999999031GE19AGL   +99999+99999GF102991021999999999999999MA1999999096321MD1210051+0041REMSYN06448304 32963 20000 10190 20180 39632 40098 52005 82040 333 58004=
0169483040999992018012621004+19867+099767FM-12+040199999V0209999C000012200019N010000199+01781+01701100931ADDGA1021+999999031GE19AGL   +99999+99999GF102991021999999999999999MA1999999096241MD1710071+0011REMSYN06448304 32960 20000 10178 20170 39624 40093 57007 82040 333 58001=
0204483040999992018012700004+19867+099767FM-12+040199999V0209999C000012200019N013000199+01681+01631101021ADDGA1011+008001061GA2999+999999021GE19AGL   +99999+99999GF103991011999008001999999KA1120N+01641MA1999999096321MD1210071-0101REMSYN07048304 32563 30000 10168 20163 39632 40102 52007 81506 333 20164 59010=
0188483040999992018012703004+19867+099767FM-12+040199999V0209999C000012200019N015000199+02371+01851101141ADDGA1999+999999001GE19AGL   +99999+99999GF103991001999999999999999MA1999999096531MD1210221-0071REMSYN06448304 32965 30000 10237 20185 39653 40114 52022 80002 333 59007=EQDQ01    003SCCGA1
0201483040999992018012706004+19867+099767FM-12+040199999V0209999C000012200019N015000199+02911+01961100781ADDGA1011+008001081GA2999+999999031GA3999+999999021GE19AGL   +99999+99999GF103991011999008001999999MA1999999096271MD1710261-0051REMSYN06448304 32565 30000 10291 20196 39627 40078 57026 81145 333 59005=
0201483040999992018012709004+19867+099767FM-12+040199999V0203301N001519999999N015000199+03041+01991100451ADDGA1031+008001081GA2999+999999031GA3999+999999021GE19AGL   +99999+99999GF105991031999008001999999MA1999999095981MD1710291-0101REMSYN06448304 32565 53303 10304 20199 39598 40045 57029 83246 333 59010=
0188483040999992018012712004+19867+099767FM-12+040199999V0209999C000012200019N015000199+02571+02031100561ADDGA1021+008001081GE19AGL   +99999+99999GF102991021999008001999999KA1240M+03071MA1999999096021MD1110041-0121REMSYN07048304 32565 20000 10257 20203 39602 40056 51004 82800 333 10307 59012=
0125483040999992018012715004+19867+099767FM-12+040199999V0209999C000019999999N012000199+02091+01921100841ADDGF100995999999999999999999MA1999999096211MD1210191-0061REMSYN05848304 32962 00000 10209 20192 39621 40084 52019 333 59006=
0201483040999992018012718004+19867+099767FM-12+040199999V0209999C000012200019N012000199+01971+01861100971ADDGA1021+008001061GA2999+999999031GA3999+999999021GE19AGL   +99999+99999GF102991021999008001999999MA1999999096321MD1210101-0011REMSYN06448304 32562 20000 10197 20186 39632 40097 52010 82545 333 59001=
0201483040999992018012721004+19867+099767FM-12+040199999V0209999C000012200019N010000199+01801+01721100931ADDGA1021+008001061GA2999+999999031GA3999+999999021GE19AGL   +99999+99999GF102991021999008001999999MA1999999096251MD1710071+0001REMSYN06448304 32560 20000 10180 20172 39625 40093 57007 82545 333 58000=
0207483040999992018012800004+19867+099767FM-12+040199999V0209999C000012200019N010000199+01541+01501101041ADDGA1999+999999021GE19AGL   +99999+99999GF102991001999999999999999KA1120N+01511MA1999999096321MD1210071+0031REMSYN07048304 32960 20000 10154 20150 39632 40104 52007 80005 333 20151 58003=EQDQ01    003SCCGA1
0125483040999992018012803004+19867+099767FM-12+040199999V0209999C000019999999N015000199+02321+01891101171ADDGF100995999999999999999999MA1999999096561MD1210241+0031REMSYN05848304 32965 00000 10232 20189 39656 40117 52024 333 58003=
0169483040999992018012806004+19867+099767FM-12+040199999V0202401N002112200019N015000199+02921+01701100801ADDGA1011+008001081GE19AGL   +99999+99999GF101991011999008001999999MA1999999096301MD1710261+0031REMSYN06448304 32565 12404 10292 20170 39630 40080 57026 81100 333 58003=
0169483040999992018012809004+19867+099767FM-12+040199999V0201501N002612200019N015000199+03111+01671100531ADDGA1021+008001081GE19AGL   +99999+99999GF102991021999008001999999MA1999999096061MD1710231+0081REMSYN06448304 32565 21505 10311 20167 39606 40053 57023 82100 333 58008=
0144483040999992018012812004+19867+099767FM-12+040199999V0209999C000019999999N013000199+02461+01901100671ADDGF100995999999999999999999KA1240M+03131MA1999999096111MD1210041+0111REMSYN06448304 32963 00000 10246 20190 39611 40067 52004 333 10313 58011=
0169483040999992018012815004+19867+099767FM-12+040199999V0209999C000012200019N012000199+02091+01881100991ADDGA1021+999999031GE19AGL   +99999+99999GF102991021999999999999999MA1999999096351MD1210241+0151REMSYN06448304 32962 20000 10209 20188 39635 40099 52024 82040 333 58015=
0125483040999992018012818004+19867+099767FM-12+040199999V0209999C000019999999N010000199+01791+01671100991ADDGF100995999999999999999999MA1999999096311MD1710041+0021REMSYN05848304 32960 00000 10179 20167 39631 40099 57004 333 58002=
0125483040999992018012821004+19867+099767FM-12+040199999V0209999C000019999999N010000199+01641+01551100991ADDGF100995999999999999999999MA1999999096281MD1710021+0061REMSYN05848304 32960 00000 10164 20155 39628 40099 57002 333 58006=
0144483040999992018012900004+19867+099767FM-12+040199999V0209999C000019999999N010000199+01391+01331101261ADDGF100995999999999999999999KA1120N+01281MA1999999096501MD1210221+0221REMSYN06448304 32960 00000 10139 20133 39650 40126 52022 333 20128 58022=
0188483040999992018012903004+19867+099767FM-12+040199999V0209999C000012200019N012000199+02151+01561101401ADDGA1999+999999001GE19AGL   +99999+99999GF102991001999999999999999MA1999999096761MD1210251+0231REMSYN06448304 32962 20000 10215 20156 39676 40140 52025 80001 333 58023=EQDQ01    003SCCGA1
0188483040999992018012906004+19867+099767FM-12+040199999V0202801N002112200019N015000199+02901+01511100971ADDGA1999+999999001GE19AGL   +99999+99999GF102991001999999999999999MA1999999096451MD1710301+0161REMSYN06448304 32965 22804 10290 20151 39645 40097 57030 80001 333 58016=EQDQ01    003SCCGA1
0125483040999992018012909004+19867+099767FM-12+040199999V0200901N003119999999N015000199+03031+01051100651ADDGF100995999999999999999999MA1999999096171MD1710281+0131REMSYN05848304 32965 00906 10303 20105 39617 40065 57028 333 58013=
0144483040999992018012912004+19867+099767FM-12+040199999V0209999C000019999999N015000199+02321+01911100881ADDGF100995999999999999999999KA1240M+03081MA1999999096281MD1210111+0201REMSYN06448304 32965 00000 10232 20191 39628 40088 52011 333 10308 58020=
0125483040999992018012915004+19867+099767FM-12+040199999V0209999C000019999999N015000199+01841+01671101101ADDGF100995999999999999999999MA1999999096421MD1210131+0111REMSYN05848304 32965 00000 10184 20167 39642 40110 52013 333 58011=
0125483040999992018012918004+19867+099767FM-12+040199999V0209999C000019999999N012000199+01631+01531101091ADDGF100995999999999999999999MA1999999096381MD1710031+0101REMSYN05848304 32962 00000 10163 20153 39638 40109 57003 333 58010=
0125483040999992018012921004+19867+099767FM-12+040199999V0209999C000019999999N010000199+01431+01361101051ADDGF100995999999999999999999MA1999999096311MD1710071+0061REMSYN05848304 32960 00000 10143 20136 39631 40105 57007 333 58006=
0207483040999992018013000004+19867+099767FM-12+040199999V0209999C000012200019N010000199+01271+01211101251ADDGA1999+999999001GE19AGL   +99999+99999GF102991001999999999999999KA1120N+01241MA1999999096481MD1210171-0011REMSYN07048304 32960 20000 10127 20121 39648 40125 52017 80001 333 20124 59001=EQDQ01    003SCCGA1
0125483040999992018013003004+19867+099767FM-12+040199999V0209999C000019999999N012000199+02161+01651101291ADDGF100995999999999999999999MA1999999096661MD1210181-0111REMSYN05848304 32962 00000 10216 20165 39666 40129 52018 333 59011=
0125483040999992018013006004+19867+099767FM-12+040199999V0202001N002619999999N015000199+02901+01401100761ADDGF100995999999999999999999MA1999999096251MD1710401-0211REMSYN05848304 32965 02005 10290 20140 39625 40076 57040 333 59021=
0125483040999992018013009004+19867+099767FM-12+040199999V0201901N002119999999N015000199+03101+01491100421ADDGF100995999999999999999999MA1999999095961MD1710301-0241REMSYN05848304 32965 01904 10310 20149 39596 40042 57030 333 59024=
0144483040999992018013012004+19867+099767FM-12+040199999V0209999C000019999999N015000199+02221+01681100701ADDGF100995999999999999999999KA1240M+03101MA1999999096101MD1210141-0181REMSYN06448304 32965 00000 10222 20168 39610 40070 52014 333 10310 59018=
0125483040999992018013015004+19867+099767FM-12+040199999V0209999C000019999999N012000199+01871+01621101021ADDGF100995999999999999999999MA1999999096351MD1210251-0071REMSYN05848304 32962 00000 10187 20162 39635 40102 52025 333 59007=
0125483040999992018013018004+19867+099767FM-12+040199999V0202001N001519999999N010000199+01661+01541100971ADDGF100995999999999999999999MA1999999096271MD1610081-0121REMSYN05848304 32960 02003 10166 20154 39627 40097 56008 333 59012=
0125483040999992018013021004+19867+099767FM-12+040199999V0202201N001019999999N010000199+01301+01191101061ADDGF100995999999999999999999MA1999999096291MD1210021+0011REMSYN05848304 32960 02202 10130 20119 39629 40106 52002 333 58001=
0144483040999992018013100004+19867+099767FM-12+040199999V0209999C000019999999N013000199+01021+00981101331ADDGF100995999999999999999999KA1120N+00971MA1999999096511MD1210211+0071REMSYN06448304 32963 00000 10102 20098 39651 40133 52021 333 20097 58007=
0125483040999992018013103004+19867+099767FM-12+040199999V0200801N001019999999N015000199+02031+01351101421ADDGF100995999999999999999999MA1999999096761MD1210251+0131REMSYN05848304 32965 00802 10203 20135 39676 40142 52025 333 58013=
0125483040999992018013106004+19867+099767FM-12+040199999V0201801N001019999999N015000199+02811+01341100991ADDGF100995999999999999999999MA1999999096471MD1710291+0241REMSYN05848304 32965 01802 10281 20134 39647 40099 57029 333 58024=
0125483040999992018013109004+19867+099767FM-12+040199999V0202601N001519999999N015000199+03031+01501100691ADDGF100995999999999999999999MA1999999096211MD1710261+0271REMSYN05848304 32965 02603 10303 20150 39621 40069 57026 333 58027=
0144483040999992018013112004+19867+099767FM-12+040199999V0200301N001519999999N015000199+02221+01701100851ADDGF100995999999999999999999KA1240M+03061MA1999999096241MD1210041+0151REMSYN06448304 32965 00303 10222 20170 39624 40085 52004 333 10306 58015=
0125483040999992018013115004+19867+099767FM-12+040199999V0209999C000019999999N012000199+01711+01451101181ADDGF100995999999999999999999MA1999999096481MD1210241+0161REMSYN05848304 32962 00000 10171 20145 39648 40118 52024 333 58016=
0125483040999992018013118004+19867+099767FM-12+040199999V0209999C000019999999N012000199+01531+01411101381ADDGF100995999999999999999999MA1999999096641MD1210161+0411REMSYN05848304 32962 00000 10153 20141 39664 40138 52016 333 58041=
0125483040999992018013121004+19867+099767FM-12+040199999V0209999C000019999999N010000199+01321+01251101341ADDGF100995999999999999999999MA1999999096561MD1710081+0281REMSYN05848304 32960 00000 10132 20125 39656 40134 57008 333 58028=
0188483040999992018020100004+19867+099767FM-12+040199999V0209999C000019999999N012000199+01271+01231101511ADDGA1061+008001061GE19AGL   +99999+99999GF106991061999008001999999KA1120N+01201MA1999999096721MD1210161+0181REMSYN07048304 32562 60000 10127 20123 39672 40151 52016 86500 333 20120 58018=
0169483040999992018020103004+19867+099767FM-12+040199999V0209999C000019999999N012000199+01721+01501101651ADDGA1081+008001061GE19AGL   +99999+99999GF108991081999008001999999MA1999999096921MD1210201+0221REMSYN06448304 32562 80000 10172 20150 39692 40165 52020 885// 333 58022=
0169483040999992018020106004+19867+099767FM-12+040199999V0209999C000019999999N015000199+02421+01691101161ADDGA1051+008001061GE19AGL   +99999+99999GF105991051999008001999999MA1999999096571MD1710361+0171REMSYN06448304 32565 50000 10242 20169 39657 40116 57036 85500 333 58017=
0169483040999992018020109004+19867+099767FM-12+040199999V0209999C000012200019N015000199+02661+01881100831ADDGA1011+008001081GE19AGL   +99999+99999GF101991011999008001999999MA1999999096291MD1710281+0141REMSYN06448304 32565 10000 10266 20188 39629 40083 57028 81100 333 58014=
0144483040999992018020112004+19867+099767FM-12+040199999V0209999C000019999999N012000199+02311+02021100861ADDGF100995999999999999999999KA1240M+02801MA1999999096261MD1710021+0011REMSYN06448304 32962 00000 10231 20202 39626 40086 57002 333 10280 58001=
0125483040999992018020115004+19867+099767FM-12+040199999V0209999C000019999999N010000199+01781+01541101211ADDGF100995999999999999999999MA1999999096511MD1210251+0031REMSYN05848304 32960 00000 10178 20154 39651 40121 52025 333 58003=
0125483040999992018020118004+19867+099767FM-12+040199999V0209999C000019999999N010000199+01561+01441101281ADDGF100995999999999999999999MA1999999096551MD1210031-0101REMSYN05848304 32960 00000 10156 20144 39655 40128 52003 333 59010=
0125483040999992018020121004+19867+099767FM-12+040199999V0209999C000019999999N010000199+01351+01281101331ADDGF100995999999999999999999MA1999999096561MD1210011-0011REMSYN05848304 32960 00000 10135 20128 39656 40133 52001 333 59001=
0232483040999992018020200004+19867+099767FM-12+040199999V0209999C000019999999N008000199+01411+01371101591ADDAY121021AY211021GA1031+008001081GA2999+999999021GE19AGL   +99999+99999GF106991031999008001999999KA1120N+01251MA1999999096821MD1210261+0081MW1101REMSYN07648304 31558 60000 10141 20137 39682 40159 52026 71021 83806 333 20125 58008=
0201483040999992018020203004+19867+099767FM-12+040199999V0209999C000019999999N012000199+01971+01641101741ADDGA1031+008001081GA2999+999999031GA3999+999999021GE19AGL   +99999+99999GF106991031999008001999999MA1999999097051MD1210231+0091REMSYN06448304 32562 60000 10197 20164 39705 40174 52023 83846 333 58009=
0185483040999992018020206004+19867+099767FM-12+040199999V0209999C000019999999N015000199+02451+01781101411ADDGA1031+008001081GA2999+999999021GE19AGL   +99999+99999GF106991031999008001999999MA1999999096801MD1710241+0241REMSYN06448304 32565 60000 10245 20178 39680 40141 57024 83805 333 58024=
0185483040999992018020209004+19867+099767FM-12+040199999V0209999C000012200019N015000199+02711+01921101101ADDGA1021+008001081GA2999+999999021GE19AGL   +99999+99999GF104991021999008001999999MA1999999096561MD1710251+0281REMSYN06448304 32565 40000 10271 20192 39656 40110 57025 82805 333 58028=
0204483040999992018020212004+19867+099767FM-12+040199999V0209999C000012200019N012000199+02351+01931101281ADDGA1021+008001061GA2999+999999021GE19AGL   +99999+99999GF103991021999008001999999KA1240M+02831MA1999999096671MD1210111+0421REMSYN07048304 32562 30000 10235 20193 39667 40128 52011 82505 333 10283 58042=
0125483040999992018020215004+19867+099767FM-12+040199999V0209999C000019999999N012000199+01891+01671101521ADDGF100995999999999999999999MA1999999096831MD1210161+0311REMSYN05848304 32962 00000 10189 20167 39683 40152 52016 333 58031=
0169483040999992018020218004+19867+099767FM-12+040199999V0209999C000012200019N010000199+01621+01411101561ADDGA1021+008001061GE19AGL   +99999+99999GF102991021999008001999999MA1999999096831MD1410001+0281REMSYN06448304 32560 20000 10162 20141 39683 40156 54000 82500 333 58028=
0169483040999992018020221004+19867+099767FM-12+040199999V0209999C000012200019N010000199+01361+01251101591ADDGA1021+008001081GE19AGL   +99999+99999GF103991021999008001999999MA1999999096811MD1710021+0261REMSYN06448304 32560 30000 10136 20125 39681 40159 57002 82800 333 58026=
0204483040999992018020300004+19867+099767FM-12+040199999V0209999C000019999999N010000199+01751+01721101691ADDGA1031+008001081GA2999+999999021GE19AGL   +99999+99999GF108991031999008001999999KA1120N+01281MA1999999096971MD1210161+0101REMSYN07048304 32560 80000 10175 20172 39697 40169 52016 83806 333 20128 58010=
0185483040999992018020303004+19867+099767FM-12+040199999V0209999C000019999999N012000199+02031+01741101881ADDGA1021+008001081GA2999+999999021GE19AGL   +99999+99999GF106991021999008001999999MA1999999097191MD1210221+0141REMSYN06448304 32562 60000 10203 20174 39719 40188 52022 82806 333 58014=
0185483040999992018020306004+19867+099767FM-12+040199999V0209999C000019999999N015000199+02301+01731101561ADDGA1031+008001081GA2999+999999021GE19AGL   +99999+99999GF106991031999008001999999MA1999999096931MD1710261+0151REMSYN06448304 32565 60000 10230 20173 39693 40156 57026 83806 333 58015=
0185483040999992018020309004+19867+099767FM-12+040199999V0209999C000019999999N015000199+02401+01761101221ADDGA1031+008001061GA2999+999999021GE19AGL   +99999+99999GF105991031999008001999999MA1999999096621MD1710311+0111REMSYN06448304 32565 50000 10240 20176 39662 40122 57031 83505 333 58011=
0188483040999992018020312004+19867+099767FM-12+040199999V0209999C000012200019N012000199+02041+01761101341ADDGA1021+008001061GE19AGL   +99999+99999GF102991021999008001999999KA1240M+02551MA1999999096681MD1210061+0061REMSYN07048304 32562 20000 10204 20176 39668 40134 52006 82500 333 10255 58006=
0201483040999992018020315004+19867+099767FM-12+040199999V0209999C000019999999N012000199+01821+01621101581ADDGA1021+008001061GA2999+999999031GA3999+999999021GE19AGL   +99999+99999GF105991021999008001999999MA1999999096871MD1210191+0051REMSYN06448304 32562 50000 10182 20162 39687 40158 52019 82546 333 58005=
0201483040999992018020318004+19867+099767FM-12+040199999V0200901N001519999999N010000199+01761+01451101541ADDGA1021+008001061GA2999+999999031GA3999+999999021GE19AGL   +99999+99999GF105991021999008001999999MA1999999096821MD1710051-0031REMSYN06448304 32560 50903 10176 20145 39682 40154 57005 82546 333 59003=
0229483040999992018020321004+19867+099767FM-12+040199999V0200601N002119999999N006000199+01741+01411101481ADDAY121021AY221021GA1031+008001061GA2999+999999031GA3999+999999021GE19AGL   +99999+99999GF108991031999008001999999MA1999999096771MD1710051-0101MW1101REMSYN07048304 31556 80604 10174 20141 39677 40148 57005 71022 83546 333 59010=
0248483040999992018020400004+19867+099767FM-12+040199999V0209999C000019999999N003000199+01801+01471101641ADDAY121021AY221021GA1031+008001061GA2999+999999031GA3999+999999021GE19AGL   +99999+99999GF108991031999008001999999KA1120N+01701MA1999999096931MD1210161-0051MW1101REMSYN07648304 31530 80000 10180 20147 39693 40164 52016 71022 83547 333 20170 59005=
0229483040999992018020403004+19867+099767FM-12+040199999V0200401N001519999999N006000199+01881+01391101861ADDAY121021AY221021GA1031+008001061GA2999+999999031GA3999+999999021GE19AGL   +99999+99999GF108991031999008001999999MA1999999097151MD1210231-0011MW1101REMSYN07048304 31556 80403 10188 20139 39715 40186 52023 71022 83546 333 59001=
0201483040999992018020406004+19867+099767FM-12+040199999V0209999C000019999999N012000199+02261+01441101531ADDGA1021+008001061GA2999+999999031GA3999+999999021GE19AGL   +99999+99999GF105991021999008001999999MA1999999096891MD1710261-0031REMSYN06448304 32562 50000 10226 20144 39689 40153 57026 82546 333 59003=
0169483040999992018020409004+19867+099767FM-12+040199999V0209999C000012200019N015000199+02601+01511101131ADDGA1021+999999031GE19AGL   +99999+99999GF102991021999999999999999MA1999999096561MD1710331-0091REMSYN06448304 32965 20000 10260 20151 39656 40113 57033 82040 333 59009=
0207483040999992018020412004+19867+099767FM-12+040199999V0209999C000012200019N012000199+02101+01691101281ADDGA1999+999999001GE19AGL   +99999+99999GF102991001999999999999999KA1240M+02631MA1999999096631MD1210071-0071REMSYN07048304 32962 20000 10210 20169 39663 40128 52007 80001 333 10263 59007=EQDQ01    003SCCGA1
0188483040999992018020415004+19867+099767FM-12+040199999V0209999C000012200019N010000199+01851+01681101591ADDGA1999+999999001GE19AGL   +99999+99999GF102991001999999999999999MA1999999096891MD1210261+0011REMSYN06448304 32960 20000 10185 20168 39689 40159 52026 80001 333 58001=EQDQ01    003SCCGA1
0197483040999992018020418004+19867+099767FM-12+040199999V0209999C000012200019N006000199+01681+01581101661ADDAY111021AY211021GA1041+999999031GE19AGL   +99999+99999GF104991041999999999999999MA1999999096931MD1990041+0131MW1101REMSYN07048304 31956 40000 10168 20158 39693 40166 50004 71011 84040 333 58013=
0213483040999992018020421004+19867+099767FM-12+040199999V0209999C000019999999N004000199+01701+01601101631ADDAY121021AY221021GA1041+999999031GA2999+999999021GE19AGL   +99999+99999GF106991041999999999999999MA1999999096901MD1710031+0141MW1101REMSYN07048304 31940 60000 10170 20160 39690 40163 57003 71022 84046 333 58014=
0235483040999992018020500004+19867+099767FM-12+040199999V0209999C000012200019N002000199+01601+01511101801ADDAY121021AY221021GA1999+999999021GE19AGL   +99999+99999GF104991001999999999999999KA1120N+01561MA1999999097051MD1210151+0161MW1101REMSYN07648304 31920 40000 10160 20151 39705 40180 52015 71022 80006 333 20156 58016=EQDQ01    003SCCGA1
0216483040999992018020503004+19867+099767FM-12+040199999V0209999C000012200019N004000199+02101+01811101951ADDAY141021AY201021GA1999+999999001GE19AGL   +99999+99999GF102991001999999999999999MA1999999097271MD1210221+0091MW1101REMSYN07048304 31940 20000 10210 20181 39727 40195 52022 71040 80001 333 58009=EQDQ01    003SCCGA1
0197483040999992018020506004+19867+099767FM-12+040199999V0200901N001512200019N012000199+02651+01511101531ADDAY141021AY201021GA1021+999999031GE19AGL   +99999+99999GF102991021999999999999999MA1999999096961MD1710311+0011MW1011REMSYN07048304 31962 20903 10265 20151 39696 40153 57031 70140 82040 333 58001=
0169483040999992018020509004+19867+099767FM-12+040199999V0209999C000012200019N015000199+02771+01741101191ADDGA1041+999999031GE19AGL   +99999+99999GF104991041999999999999999MA1999999096651MD1710311+0071REMSYN06448304 32965 40000 10277 20174 39665 40119 57031 84040 333 58007=
0120483040999992018020512004+19867+099767FM-12+040199999V0203601N0000122000199012000199+02271+01831101391ADDAA199999999GA1999+060001001GE19AGL   +99999+99999GF102991999999060001999999MA1999999096771MD1210121+0121REMSYN004BUFR
0188483040999992018020515004+19867+099767FM-12+040199999V0209999C000012200019N010000199+01931+01721101651ADDGA1999+999999001GE19AGL   +99999+99999GF102991001999999999999999MA1999999096961MD1210191+0061REMSYN06448304 32960 20000 10193 20172 39696 40165 52019 80001 333 58006=EQDQ01    003SCCGA1
0216483040999992018020518004+19867+099767FM-12+040199999V0209999C000012200019N008000199+01771+01651101671ADDAY101021AY201021GA1999+999999021GE19AGL   +99999+99999GF102991001999999999999999MA1999999096951MD1410001+0011MW1101REMSYN07048304 31958 20000 10177 20165 39695 40167 54000 71000 80005 333 58001=EQDQ01    003SCCGA1
0216483040999992018020521004+19867+099767FM-12+040199999V0209999C000019999999N006000199+01621+01531101651ADDAY111021AY211021GA1999+999999021GE19AGL   +99999+99999GF105991001999999999999999MA1999999096911MD1710041+0021MW1101REMSYN07048304 31956 50000 10162 20153 39691 40165 57004 71011 80006 333 58002=EQDQ01    003SCCGA1
0248483040999992018020600004+19867+099767FM-12+040199999V0209999C000019999999N005000199+01601+01441101801ADDAY121021AY211021GA1021+008001061GA2999+999999031GA3999+999999021GE19AGL   +99999+99999GF106991021999008001999999KA1120N+01551MA1999999097051MD1210141+0001MW1101REMSYN07648304 31550 60000 10160 20144 39705 40180 52014 71021 82546 333 20155 58000=
0213483040999992018020603004+19867+099767FM-12+040199999V0209999C000019999999N007000199+01811+01461101921ADDAY121021AY221021GA1061+008001061GA2999+999999031GE19AGL   +99999+99999GF108991061999008001999999MA1999999097201MD1210151-0031MW1101REMSYN07048304 31557 80000 10181 20146 39720 40192 52015 71022 8657/ 333 59003=
0185483040999992018020606004+19867+099767FM-12+040199999V0209999C000019999999N010000199+02301+01611101441ADDGA1051+008001061GA2999+999999031GE19AGL   +99999+99999GF106991051999008001999999MA1999999096811MD1710391-0101REMSYN06448304 32560 60000 10230 20161 39681 40144 57039 85570 333 59010=
0213483040999992018020609004+19867+099767FM-12+040199999V0209999C000012200019N008000199+02511+01801101061ADDAY121021AY201021GA1011+008001081GA2999+999999001GE19AGL   +99999+99999GF102991011999008001999999MA1999999096481MD1710331-0141MW1101REMSYN07048304 31558 20000 10251 20180 39648 40106 57033 71020 81101 333 59014=
0172483040999992018020612004+19867+099767FM-12+040199999V0200401N001019999999N006000199+02011+01661101181ADDAY121021AY201021GF100995999999999999999999KA1240M+02561MA1999999096531MD1210051-0211MW1101REMSYN07048304 31956 00402 10201 20166 39653 40118 52005 71020 333 10256 59021=
0153483040999992018020615004+19867+099767FM-12+040199999V0209999C000019999999N006000199+01731+01541101351ADDAY101021AY201021GF100995999999999999999999MA1999999096641MD1210111-0301MW1101REMSYN06448304 31956 00000 10173 20154 39664 40135 52011 71000 333 59030=
0153483040999992018020618004+19867+099767FM-12+040199999V0209999C000019999999N005000199+01581+01471101401ADDAY101021AY201021GF100995999999999999999999MA1999999096661MD1110031-0271MW1101REMSYN06448304 31950 00000 10158 20147 39666 40140 51003 71000 333 59027=
0153483040999992018020621004+19867+099767FM-12+040199999V0209999C000019999999N005000199+01401+01311101381ADDAY101021AY201021GF100995999999999999999999MA1999999096611MD1710051-0271MW1191REMSYN06448304 31950 00000 10140 20131 39661 40138 57005 71900 333 59027=
0172483040999992018020700004+19867+099767FM-12+040199999V0209999C000019999999N005000199+01321+01281101531ADDAY101021AY201021GF100995999999999999999999KA1120N+01271MA1999999096751MD1210141-0271MW1101REMSYN07048304 31950 00000 10132 20128 39675 40153 52014 71000 333 20127 59027=
0153483040999992018020703004+19867+099767FM-12+040199999V0209999C000019999999N006000199+01851+01581101651ADDAY101021AY201021GF100995999999999999999999MA1999999096941MD1210191-0281MW1101REMSYN06448304 31956 00000 10185 20158 39694 40165 52019 71000 333 59028=
0197483040999992018020706004+19867+099767FM-12+040199999V0209999C000012200019N007000199+02631+01771101121ADDAY101021AY201021GA1011+008001081GE19AGL   +99999+99999GF101991011999008001999999MA1999999096561MD1710391-0321MW1051REMSYN07048304 31557 10000 10263 20177 39656 40112 57039 70500 81100 333 59032=
0153483040999992018020709004+19867+099767FM-12+040199999V0202301N001519999999N007000199+02811+01611100811ADDAY101021AY201021GF100995999999999999999999MA1999999096291MD1710261-0241MW1051REMSYN06448304 31957 02303 10281 20161 39629 40081 57026 70500 333 59024=
0248483040999992018020712004+19867+099767FM-12+040199999V0209999C000019999999N007000199+02411+02071100931ADDAY121021AY201021GA1011+008001061GA2999+999999031GA3999+999999021GE19AGL   +99999+99999GF106991011999008001999999KA1240M+02861MA1999999096351MD1210051-0251MW1101REMSYN07648304 31557 60000 10241 20207 39635 40093 52005 71020 81547 333 10286 59025=
0213483040999992018020715004+19867+099767FM-12+040199999V0209999C000019999999N006000199+01901+01821101271ADDAY111021AY211021GA1031+008001061GA2999+999999021GE19AGL   +99999+99999GF105991031999008001999999MA1999999096591MD1210251-0071MW1101REMSYN07048304 31556 50000 10190 20182 39659 40127 52025 71011 83506 333 59007=
0153483040999992018020718004+19867+099767FM-12+040199999V0209999C000019999999N006000199+01621+01551101351ADDAY111021AY211021GF100995999999999999999999MA1999999096631MD1210031-0051MW1101REMSYN06448304 31956 00000 10162 20155 39663 40135 52003 71011 333 59005=
0153483040999992018020721004+19867+099767FM-12+040199999V0209999C000019999999N004000199+01461+01411101311ADDAY101021AY201021GF100995999999999999999999MA1999999096561MD1710071-0071MW1101REMSYN06448304 31940 00000 10146 20141 39656 40131 57007 71000 333 59007=
0172483040999992018020800004+19867+099767FM-12+040199999V0209999C00001001201WN000500199+01481+01441101401ADDAY141021AY211021GF109991999999999999999999KA1120N+01391MA1999999096651MD1210101-0131MW1471REMSYN07048304 31/05 90000 10148 20144 39665 40140 52010 74741 333 20139 59013=
0153483040999992018020803004+19867+099767FM-12+040199999V0209999C000019999999N010000199+02111+01771101441ADDAY141021AY201021GF100995999999999999999999MA1999999096791MD1210141-0201MW1021REMSYN06448304 31960 00000 10211 20177 39679 40144 52014 70240 333 59020=
0197483040999992018020806004+19867+099767FM-12+040199999V0201501N001512200019N012000199+02751+01811100971ADDAY141021AY201021GA1021+008001081GE19AGL   +99999+99999GF102991021999008001999999MA1999999096431MD1710351-0151MW1021REMSYN07048304 31562 21503 10275 20181 39643 40097 57035 70240 82800 333 59015=
0125483040999992018020809004+19867+099767FM-12+040199999V0209999C000019999999N012000199+02931+01881100661ADDGF100995999999999999999999MA1999999096161MD1710271-0161REMSYN05848304 32962 00000 10293 20188 39616 40066 57027 333 59016=
0188483040999992018020812004+19867+099767FM-12+040199999V0209999C000012200019N012000199+02451+01951100921ADDGA1021+008001081GE19AGL   +99999+99999GF102991021999008001999999KA1240M+02961MA1999999096341MD1210181-0011REMSYN07048304 32562 20000 10245 20195 39634 40092 52018 82200 333 10296 59001=
0125483040999992018020815004+19867+099767FM-12+040199999V0209999C000019999999N010000199+02021+01791101241ADDGF100995999999999999999999MA1999999096581MD1210241-0031REMSYN05848304 32960 00000 10202 20179 39658 40124 52024 333 59003=
0153483040999992018020818004+19867+099767FM-12+040199999V0209999C000019999999N008000199+01661+01541101291ADDAY101021AY201021GF100995999999999999999999MA1999999096571MD1710011-0061MW1101REMSYN06448304 31958 00000 10166 20154 39657 40129 57001 71000 333 59006=
0153483040999992018020821004+19867+099767FM-12+040199999V0209999C000019999999N006000199+01631+01561101051ADDAY101021AY201021GF100995999999999999999999MA1999999096341MD1710231-0261MW1101REMSYN06448304 31956 00000 10163 20156 39634 40105 57023 71000 333 59026=
0232483040999992018020900004+19867+099767FM-12+040199999V0209999C000012200019N008000199+01571+01531101211ADDAY101021AY201021GA1021+012501061GA2999+999999021GE19AGL   +99999+99999GF102991021999012501999999KA1120N+01431MA1999999096481MD1210141-0201MW1101REMSYN07648304 31658 20000 10157 20153 39648 40121 52014 71000 82505 333 20143 59020=
0169483040999992018020903004+19867+099767FM-12+040199999V0209999C000012200019N010000199+02071+01861101371ADDGA1021+008001061GE19AGL   +99999+99999GF102991021999008001999999MA1999999096711MD1210231-0081REMSYN06448304 32560 20000 10207 20186 39671 40137 52023 82500 333 59008=
0185483040999992018020906004+19867+099767FM-12+040199999V0202001N001512200019N012000199+02671+01861101021ADDGA1021+008001081GA2999+999999021GE19AGL   +99999+99999GF103991021999008001999999MA1999999096471MD1710241+0051REMSYN06448304 32562 32003 10267 20186 39647 40102 57024 82805 333 58005=
0125483040999992018020909004+19867+099767FM-12+040199999V0209999C000019999999N012000199+02851+01931100761ADDGF100995999999999999999999MA1999999096251MD1710221+0111REMSYN05848304 32962 00000 10285 20193 39625 40076 57022 333 58011=
0144483040999992018020912004+19867+099767FM-12+040199999V0209999C000019999999N012000199+02371+02081100961ADDGF100995999999999999999999KA1240M+02891MA1999999096371MD1210121+0041REMSYN06448304 32962 00000 10237 20208 39637 40096 52012 333 10289 58004=
0125483040999992018020915004+19867+099767FM-12+040199999V0209999C000019999999N010000199+01951+01721101261ADDGF100995999999999999999999MA1999999096591MD1210221+0021REMSYN05848304 32960 00000 10195 20172 39659 40126 52022 333 58002=
0153483040999992018020918004+19867+099767FM-12+040199999V0209999C000019999999N006000199+01771+01671101261ADDAY101021AY201021GF100995999999999999999999MA1999999096561MD1710021-0031MW1101REMSYN06448304 31956 00000 10177 20167 39656 40126 57002 71000 333 59003=
0153483040999992018020921004+19867+099767FM-12+040199999V0209999C000019999999N004000199+01651+01581101251ADDAY101021AY201021GF100995999999999999999999MA1999999096541MD1710031+0201MW1101REMSYN06448304 31940 00000 10165 20158 39654 40125 57003 71000 333 58020=
0232483040999992018021000004+19867+099767FM-12+040199999V0209999C000012200019N002000199+01551+01511101491ADDAY101021AY201021GA1021+999999031GA2999+999999001GE19AGL   +99999+99999GF102991021999999999999999KA1120N+01421MA1999999096751MD1210211+0291MW1101REMSYN07648304 31920 20000 10155 20151 39675 40149 52021 71000 82041 333 20142 58029=
0153483040999992018021003004+19867+099767FM-12+040199999V0209999C000019999999N002000199+02301+01751101621ADDAY101021AY201021GF100995999999999999999999MA1999999096981MD1210241+0251MW1101REMSYN06448304 31920 00000 10230 20175 39698 40162 52024 71000 333 58025=
0120483040999992018021006004+19867+099767FM-12+040199999V0201301N0031122000199010000199+02901+01531101261ADDAA199999999GA1021+010001061GE19AGL   +99999+99999GF102991021999010001999999MA1999999096731MD1710251+0241REMSYN004BUFR
0185483040999992018021009004+19867+099767FM-12+040199999V0209999C000012200019N012000199+03001+01391100991ADDGA1021+008001061GA2999+999999001GE19AGL   +99999+99999GF102991021999008001999999MA1999999096481MD1710251+0221REMSYN06448304 32562 20000 10300 20139 39648 40099 57025 82501 333 58022=
0144483040999992018021012004+19867+099767FM-12+040199999V0200301N002119999999N012000199+02341+01731101231ADDGF100995999999999999999999KA1240M+03051MA1999999096621MD1210131+0271REMSYN06448304 32962 00304 10234 20173 39662 40123 52013 333 10305 58027=
0125483040999992018021015004+19867+099767FM-12+040199999V0209999C000019999999N010000199+01791+01601101521ADDGF100995999999999999999999MA1999999096811MD1210191+0261REMSYN05848304 32960 00000 10179 20160 39681 40152 52019 333 58026=
0153483040999992018021018004+19867+099767FM-12+040199999V0209999C000019999999N004000199+01521+01431101551ADDAY101021AY201021GF100995999999999999999999MA1999999096801MD1710011+0291MW1101REMSYN06448304 31940 00000 10152 20143 39680 40155 57001 71000 333 58029=
0153483040999992018021021004+19867+099767FM-12+040199999V0209999C000019999999N002000199+01381+01311101551ADDAY101021AY201021GF100995999999999999999999MA1999999096781MD1710021+0301MW1101REMSYN06448304 31920 00000 10138 20131 39678 40155 57002 71000 333 58030=
0172483040999992018021100004+19867+099767FM-12+040199999V0209999C000019999999N002000199+01261+01241101781ADDAY101021AY201021GF100995999999999999999999KA1120N+01211MA1999999096981MD1210201+0291MW1101REMSYN07048304 31920 00000 10126 20124 39698 40178 52020 71000 333 20121 58029=
0153483040999992018021103004+19867+099767FM-12+040199999V0209999C000019999999N004000199+02101+01451101861ADDAY101021AY201021GF100995999999999999999999MA1999999097191MD1210211+0251MW1101REMSYN06448304 31940 00000 10210 20145 39719 40186 52021 71000 333 58025=
0125483040999992018021106004+19867+099767FM-12+040199999V0209999C000019999999N012000199+02881+01541101421ADDGF100995999999999999999999MA1999999096881MD1710301+0161REMSYN05848304 32962 00000 10288 20154 39688 40142 57030 333 58016=
0125483040999992018021109004+19867+099767FM-12+040199999V0201601N002119999999N015000199+02961+01021101111ADDGF100995999999999999999999MA1999999096601MD1710281+0131REMSYN05848304 32965 01604 10296 20102 39660 40111 57028 333 58013=
0144483040999992018021112004+19867+099767FM-12+040199999V0209999C000019999999N012000199+02321+01701101321ADDGF100995999999999999999999KA1240M+03031MA1999999096711MD1210101+0091REMSYN06448304 32962 00000 10232 20170 39671 40132 52010 333 10303 58009=
0125483040999992018021115004+19867+099767FM-12+040199999V0209999C000019999999N010000199+01821+01641101631ADDGF100995999999999999999999MA1999999096921MD1210221+0111REMSYN05848304 32960 00000 10182 20164 39692 40163 52022 333 58011=
0153483040999992018021118004+19867+099767FM-12+040199999V0209999C000019999999N007000199+01621+01521101691ADDAY101021AY201021GF100995999999999999999999MA1999999096951MD1210021+0141MW1101REMSYN06448304 31957 00000 10162 20152 39695 40169 52002 71000 333 58014=
0153483040999992018021121004+19867+099767FM-12+040199999V0209999C000019999999N006000199+01531+01441101661ADDAY101021AY201021GF100995999999999999999999MA1999999096911MD1710041+0111MW1101REMSYN06448304 31956 00000 10153 20144 39691 40166 57004 71000 333 58011=
0216483040999992018021200004+19867+099767FM-12+040199999V0209999C000012200019N007000199+01411+01361101861ADDAY101021AY201021GA1011+999999031GE19AGL   +99999+99999GF101991011999999999999999KA1120N+01341MA1999999097081MD1210171+0081MW1101REMSYN07648304 31957 10000 10141 20136 39708 40186 52017 71000 81040 333 20134 58008=
0153483040999992018021203004+19867+099767FM-12+040199999V0209999C000019999999N008000199+02061+01681102041ADDAY101021AY201021GF100995999999999999999999MA1999999097351MD1210271+0181MW1101REMSYN06448304 31958 00000 10206 20168 39735 40204 52027 71000 333 58018=
0153483040999992018021206004+19867+099767FM-12+040199999V0203101N001519999999N008000199+02781+01711101671ADDAY101021AY201021GF100995999999999999999999MA1999999097111MD1710241+0251MW1051REMSYN06448304 31958 03103 10278 20171 39711 40167 57024 70500 333 58025=
0153483040999992018021209004+19867+099767FM-12+040199999V0209999C000019999999N008000199+03011+01851101341ADDAY101021AY201021GF100995999999999999999999MA1999999096831MD1710281+0231MW1051REMSYN06448304 31958 00000 10301 20185 39683 40134 57028 70500 333 58023=
0172483040999992018021212004+19867+099767FM-12+040199999V0209999C000019999999N007000199+02421+02001101501ADDAY101021AY201021GF100995999999999999999999KA1240M+03061MA1999999096891MD1210061+0181MW1101REMSYN07048304 31957 00000 10242 20200 39689 40150 52006 71000 333 10306 58018=
0153483040999992018021215004+19867+099767FM-12+040199999V0209999C000019999999N006000199+02011+01781101751ADDAY101021AY201021GF100995999999999999999999MA1999999097071MD1210181+0121MW1101REMSYN06448304 31956 00000 10201 20178 39707 40175 52018 71000 333 58012=
0153483040999992018021218004+19867+099767FM-12+040199999V0209999C000019999999N005000199+01801+01671101811ADDAY101021AY201021GF100995999999999999999999MA1999999097091MD1210031+0131MW1101REMSYN06448304 31950 00000 10180 20167 39709 40181 52003 71000 333 58013=
0104483040999992018021221004+19867+099767FM-12+040199999V0203601N0000122000199005000199+01701+01611101771ADDAA199999999AY101031AY201031GF100991999999999999999999MA1999999097031MD1710061+0101MW1101REMSYN004BUFR
0235483040999992018021300004+19867+099767FM-12+040199999V0209999C000012200019N006000199+01571+01531101901ADDAY101021AY201021GA1999+999999021GE19AGL   +99999+99999GF102991001999999999999999KA1120N+01521MA1999999097141MD1210111+0041MW1101REMSYN07648304 31956 20000 10157 20153 39714 40190 52011 71000 80005 333 20152 58004=EQDQ01    003SCCGA1
0153483040999992018021303004+19867+099767FM-12+040199999V0209999C000019999999N007000199+02241+01841101971ADDAY101021AY201021GF100995999999999999999999MA1999999097311MD1210171-0071MW1101REMSYN06448304 31957 00000 10224 20184 39731 40197 52017 71000 333 59007=
0153483040999992018021306004+19867+099767FM-12+040199999V0201701N001519999999N008000199+02861+01941101581ADDAY101021AY201021GF100995999999999999999999MA1999999097031MD1710281-0091MW1051REMSYN06448304 31958 01703 10286 20194 39703 40158 57028 70500 333 59009=
0153483040999992018021309004+19867+099767FM-12+040199999V0209999C000019999999N008000199+03061+02001101231ADDAY101021AY201021GF100995999999999999999999MA1999999096731MD1710301-0111MW1051REMSYN06448304 31958 00000 10306 20200 39673 40123 57030 70500 333 59011=
0172483040999992018021312004+19867+099767FM-12+040199999V0209999C000019999999N007000199+02501+02021101281ADDAY101021AY201021GF100995999999999999999999KA1240M+03061MA1999999096701MD1710031-0221MW1101REMSYN07048304 31957 00000 10250 20202 39670 40128 57003 71000 333 10306 59022=
0104483040999992018021315004+19867+099767FM-12+040199999V0203601N0000122000199008000199+02021+01811101251ADDAA199999999AY101031AY201031GF100991999999999999999999MA1999999096591MD1710111-0501MW1101REMSYN004BUFR
0153483040999992018021318004+19867+099767FM-12+040199999V0209999C000019999999N006000199+01981+01831101491ADDAY101021AY201021GF100995999999999999999999MA1999999096811MD1210221-0331MW1101REMSYN06448304 31956 00000 10198 20183 39681 40149 52022 71000 333 59033=
0153483040999992018021321004+19867+099767FM-12+040199999V0209999C000019999999N006000199+01831+01761101581ADDAY101021AY201021GF100995999999999999999999MA1999999096881MD1210061-0191MW1101REMSYN06448304 31956 00000 10183 20176 39688 40158 52006 71000 333 59019=
0172483040999992018021400004+19867+099767FM-12+040199999V0209999C000019999999N008000199+01661+01571101731ADDAY101021AY201021GF100995999999999999999999KA1120N+01611MA1999999096991MD1210121-0171MW1101REMSYN07048304 31958 00000 10166 20157 39699 40173 52012 71000 333 20161 59017=
0125483040999992018021403004+19867+099767FM-12+040199999V0209999C000019999999N010000199+02321+01981101831ADDGF100995999999999999999999MA1999999097191MD1210191-0141REMSYN05848304 32960 00000 10232 20198 39719 40183 52019 333 59014=
