0163527870999992018010100004+37200+102867FM-12+304499999V0201601N004012200019N030000199-01561-02131999999ADDGA1021+017501999GE19AGL   +99999+99999GF102991021999017501999999MA1999999069821MD1210011+9999REMSYN05852787 32780 21604 11156 21213 36982 52001 82/// 333 05356=
0093527870999992018010103004+37200+102870FM-12+304499999V0201601N0090122000199030000199-00991-01901999999ADDAA106999999AA224999999GF100991999999999999999999MA1999999069831MD1210011+9999REMSYN004BUFR
0138527870999992018010106004+37200+102867FM-12+304499999V0201601N008019999999N029000199-00601-01681999999ADDGF100995999999999999999999KA1240N-01631MA1999999069661MD1710171+9999REMSYN05852787 32979 01608 11060 21168 36966 57017 333 05253 21163=
0163527870999992018010109004+37200+102870FM-12+304499999V0202901N0060122000199030000199-01021-02141999999ADDAA106999999AA224999999GA1021+026001101GA2999+999999101GA3999+999999101GE19AGL   +99999+99999GF102991021999026001999999MA1999999069771MD1210111-0101REMSYN004BUFR
0163527870999992018010112004+37200+102867FM-12+304499999V0203201N008012200019N030000199-01571-02181999999ADDGA1031+017501999GE19AGL   +99999+99999GF103991031999017501999999MA1999999069941MD1210171+9999REMSYN05852787 32780 33208 11157 21218 36994 52017 83/// 333 05153=
0138527870999992018010118004+37200+102867FM-12+304499999V0202901N00301002401WN030000199-01471-02171999999ADDGF109991999999999999999999KA1120M-00501MA1999999069981MD1710081+9999REMSYN05852787 32/80 92903 11147 21217 36998 57008 333 00153 11050=
0067527870999992018010121004+37200+102870FM-12+304499999V0201601N0030199999999030000199-01501-02001999999ADDAA106999999AA224999999MA1999999069921MD1710061+0101REMSYN004BUFR
0163527870999992018010200004+37200+102867FM-12+304499999V0201601N005019999999N030000199-01441-01821999999ADDGA1071+017501999GE19AGL   +99999+99999GF107991071999017501999999MA1999999069991MD1210071+9999REMSYN05852787 32780 71605 11144 21182 36999 52007 87/// 333 00201=
0163527870999992018010203004+37200+102870FM-12+304499999V0201601N00601017501C9030000199-01301-01811999999ADDAA106999999AA224999999GA1081+017501101GA2999+999999101GA3999+999999101GE19AGL   +99999+99999GF108991081999017501999999MA1999999070101MD1210111+9999REMSYN004BUFR
0182527870999992018010206004+37200+102867FM-12+304499999V0201601N007019999999N030000199-01141-01551999999ADDGA1071+017501999GE19AGL   +99999+99999GF107991071999017501999999KA1240N-01841MA1999999069881MD1710221+9999REMSYN06452787 32780 71607 11114 21155 36988 57022 87/// 333 00255 21184=
0180527870999992018010209004+37200+102870FM-12+304499999V0202901N00401017501C9029000199-01351-01681999999ADDAJ100009100000099AY171031AY201031GA1081+017501101GA2999+999999101GA3999+999999101GE19AGL   +99999+99999GF108991081999017501999999MA1999999069971MD1210091+0201MW1701REMSYN004BUFR
0214527870999992018010212004+37200+102867FM-12+304499999V0201601N005019999999N030000199-01621-01761999999ADDAA106000531AY171021AY201021GA1071+017501999GE19AGL   +99999+99999GF107991071999017501999999MA1999999070071MD1210101+9999MW1701REMSYN07652787 11780 71605 11162 21176 37007 52010 69951 77070 87/// 333 00151 92500=
0155527870999992018010218004+37200+102867FM-12+304499999V0201801N00701002401WN030000199-01511-01671999999ADDAA106000231GF109991999999999999999999KA1120M-01111MA1999999069991MD1710071+9999REMSYN06452787 12/80 91807 11151 21167 36999 57007 69921 333 00000 11111=
0095527870999992018010221004+37200+102870FM-12+304499999V0201601N0100199999999025000199-01521-01691999999ADDAA124000731AJ100019100010099AY171031AY201031MA1999999069931MD1710061+0001MW1701REMSYN004BUFR
0215527870999992018010300004+37200+102867FM-12+304499999V0201601N009019999999N029000199-01531-01691999999ADDAA106000131AA224000831GA1071+017501999GE19AGL   +99999+99999GF107991071999017501999999MA1999999069901MD1710031+9999MW1701REMSYN08252787 11779 71609 11153 21169 36990 57003 69911 770// 87/// 333 05151 70008 92501=
0180527870999992018010303004+37200+102870FM-12+304499999V0201601N01101017501C9030000199-01371-01521999999ADDAJ100019100010099AY171031AY271031GA1071+017501101GA2999+999999101GA3999+999999101GE19AGL   +99999+99999GF107991071999017501999999MA1999999069881MD1710021+9999MW1701REMSYN004BUFR
0233527870999992018010306004+37200+102867FM-12+304499999V0201601N012019999999N030000199-01171-01291999999ADDAA106000131AY171021AY201021GA1071+017501999GE19AGL   +99999+99999GF107991071999017501999999KA1240N-01781MA1999999069601MD1710281+9999MW1701REMSYN08252787 11780 71612 11117 21129 36960 57028 69911 77070 87/// 333 05300 21178 92501=
0191527870999992018010309004+37200+102870FM-12+304499999V0201401N01001017501C9030000199-01171-01291999999ADDAA124010091AJ199999999999999AY171031AY201031GA1071+017501101GA2999+999999101GA3999+999999101GE19AGL   +99999+99999GF107991071999017501999999MA1999999069591MD1710011-0401MW1001REMSYN004BUFR
0214527870999992018010312004+37200+102867FM-12+304499999V0201601N010019999999N030000199-01301-01431999999ADDAA106000021AY171021AY201021GA1071+017501999GE19AGL   +99999+99999GF107991071999017501999999MA1999999069671MD1210081+9999MW1701REMSYN07652787 11780 71610 11130 21143 36967 52008 69901 77070 87/// 333 05403 92501=
0172527870999992018010318004+37200+102867FM-12+304499999V0201401N00801002401WN030000199-01531-01691999999ADDAY171021AY201021GF109991999999999999999999KA1120M-01111MA1999999069581MD1710141+9999MW1001REMSYN07052787 31/80 91408 11153 21169 36958 57014 70070 333 05400 11111 92501=
0073527870999992018010321004+37200+102870FM-12+304499999V0201401N0020199999999030000199-01421-01571999999ADDAA124000231AJ100019100010099MA1999999069531MD1710051-0401REMSYN004BUFR
0203527870999992018010400004+37200+102867FM-12+304499999V0203401N002012200019N030000199-01101-01501999999ADDAA112000021AA224000131GA1021+017501999GE19AGL   +99999+99999GF102991021999017501999999MA1999999069471MD1710061+9999REMSYN07652787 12780 23402 11110 21150 36947 57006 69902 82/// 333 05404 70001 92501=
0163527870999992018010403004+37200+102870FM-12+304499999V0201401N0020122000199030000199-00571-01471999999ADDAA106999999AA224999999GA1011+026001101GA2999+999999101GA3999+999999101GE19AGL   +99999+99999GF101991011999026001999999MA1999999069481MD1210011+9999REMSYN004BUFR
0138527870999992018010406004+37200+102867FM-12+304499999V0201601N003019999999N030000199-00541-01071999999ADDGF100995999999999999999999KA1240N-01711MA1999999069351MD1710131+9999REMSYN05852787 32980 01603 11054 21107 36935 57013 333 05306 21171=
0163527870999992018010409004+37200+102870FM-12+304499999V0201601N00201026001C9028000199-00621-01151999999ADDAA106999999AA224999999GA1061+026001101GA2999+999999101GA3999+999999101GE19AGL   +99999+99999GF106991061999026001999999MA1999999069411MD1210061-0201REMSYN004BUFR
0169527870999992018010412004+37200+102867FM-12+304499999V0201601N003019999999N030000199-01001-01561999999ADDGA1071+999999999GE19AGL   +99999+99999GF107991071999999999999999MA1999999069541MD1210131+9999REMSYN06452787 32980 71603 11100 21156 36954 52013 87/// 333 05103 92501=
0144527870999992018010418004+37200+102867FM-12+304499999V0201801N00201002401WN030000199-00891-01861999999ADDGF109991999999999999999999KA1120M-00231MA1999999069471MD1710091+9999REMSYN06452787 32/80 91802 11089 21186 36947 57009 333 05106 11023 92501=
0073527870999992018010421004+37200+102870FM-12+304499999V0201801N0060199999999030000199-00971-02051999999ADDAA124010091AJ199999999999999MA1999999069381MD1710091-0201REMSYN004BUFR
0169527870999992018010500004+37200+102867FM-12+304499999V0201601N004012200019N030000199-00911-02271999999ADDGA1041+017501999GE19AGL   +99999+99999GF104991041999017501999999MA1999999069371MD1710011+9999REMSYN06452787 32780 41604 11091 21227 36937 57001 84/// 333 05102 92501=
0163527870999992018010503004+37200+102870FM-12+304499999V0201801N0070122000199030000199-00221-02331999999ADDAA106999999AA224999999GA1021+026001101GA2999+999999101GA3999+999999101GE19AGL   +99999+99999GF102991021999026001999999MA1999999069361MD1710011+9999REMSYN004BUFR
0138527870999992018010506004+37200+102867FM-12+304499999V0201601N008019999999N029000199-00181-01591999999ADDGF100995999999999999999999KA1240N-01171MA1999999069111MD1710251+9999REMSYN05852787 32979 01608 11018 21159 36911 57025 333 05204 21117=
0163527870999992018010509004+37200+102870FM-12+304499999V0202901N00401026001C9025000199-01121-01631999999ADDAA106999999AA224999999GA1071+026001101GA2999+999999101GA3999+999999101GE19AGL   +99999+99999GF107991071999026001999999MA1999999069131MD1210021-0301REMSYN004BUFR
0214527870999992018010512004+37200+102867FM-12+304499999V0203201N007019999999N001200199-01721-01901999999ADDAA106000021AY171021AY201021GA1081+017501999GE19AGL   +99999+99999GF108991081999017501999999MA1999999069291MD1210161+9999MW1701REMSYN07652787 11712 83207 11172 21190 36929 52016 69901 77070 88/// 333 05357 92500=
0181527870999992018010518004+37200+102867FM-12+304499999V0203201N01101002401WN014000199-01941-02151999999ADDAA106000331GF109991999999999999999999KA1120M+00091MA1999999069371MD1210021+9999OD139901801360REMSYN07652787 12/64 93211 11194 21215 36937 52002 69931 333 05161 10009 91118 91536=
0056527870999992018010521004+37200+102870FM-12+304499999V0203201N0060199999999023000199-01851-02071999999ADDAA124000431MA1999999069391MD1210021+0001REMSYN004BUFR
0209527870999992018010600004+37200+102867FM-12+304499999V0203201N005019999999N022000199-01921-02131999999ADDAA106000131AA224000431GA1071+017501999GE19AGL   +99999+99999GF107991071999017501999999MA1999999069491MD1210101+9999REMSYN08252787 12772 73205 11192 21213 36949 52010 69911 87/// 333 00160 70004 92500 93429=
0163527870999992018010603004+37200+102870FM-12+304499999V0202901N00401026001C9022000199-01841-02061999999ADDAA106999999AA224999999GA1071+026001101GA2999+999999101GA3999+999999101GE19AGL   +99999+99999GF107991071999026001999999MA1999999069611MD1210121+9999REMSYN004BUFR
0182527870999992018010606004+37200+102867FM-12+304499999V0203201N008019999999N030000199-01491-01651999999ADDGA1071+999999999GE19AGL   +99999+99999GF107991071999999999999999KA1240N-02101MA1999999069431MD1710181+9999REMSYN06452787 32980 73208 11149 21165 36943 57018 87/// 333 00363 21210=
0163527870999992018010609004+37200+102870FM-12+304499999V0203401N00801017501C9030000199-01741-01941999999ADDAA106999999AA224999999GA1071+017501101GA2999+999999101GA3999+999999101GE19AGL   +99999+99999GF107991071999017501999999MA1999999069471MD1210041+0301REMSYN004BUFR
0214527870999992018010612004+37200+102867FM-12+304499999V0203601N007019999999N030000199-01871-02091999999ADDAA106000021AY171021AY201021GA1081+017501999GE19AGL   +99999+99999GF108991081999017501999999MA1999999069641MD1210171+9999MW1701REMSYN07652787 11780 83607 11187 21209 36964 52017 69901 77070 88/// 333 00452 92500=
0155527870999992018010618004+37200+102867FM-12+304499999V0203401N00501002401WN030000199-02031-02231999999ADDAA106000131GF109991999999999999999999KA1120M-01481MA1999999069561MD1710121+9999REMSYN06452787 12/80 93405 11203 21223 36956 57012 69911 333 00251 11148=
0067527870999992018010621004+37200+102870FM-12+304499999V0203401N0020199999999030000199-02041-02281999999ADDAA106999999AA224000131MA1999999069491MD1710071+0101REMSYN004BUFR
0203527870999992018010700004+37200+102867FM-12+304499999V0203201N005019999999N030000199-02171-02401999999ADDAA112000131AA224000131GA1071+017501999GE19AGL   +99999+99999GF107991071999017501999999MA1999999069531MD1210041+9999REMSYN07652787 12780 73205 11217 21240 36953 52004 69912 87/// 333 00053 70001 92500=
0163527870999992018010703004+37200+102870FM-12+304499999V0203201N00501026001C9030000199-02001-02231999999ADDAA106999999AA224999999GA1071+026001101GA2999+999999101GA3999+999999101GE19AGL   +99999+99999GF107991071999026001999999MA1999999069641MD1210111+9999REMSYN004BUFR
0233527870999992018010706004+37200+102867FM-12+304499999V0203601N008019999999N030000199-01961-02211999999ADDAA106000131AY101021AY201021GA1071+999999999GE19AGL   +99999+99999GF107991071999999999999999KA1240N-02201MA1999999069541MD1710101+9999MW1701REMSYN08252787 11980 73608 11196 21221 36954 57010 69911 77000 87/// 333 00155 21220 92500=
0180527870999992018010709004+37200+102870FM-12+304499999V0203601N01101017501C9030000199-02091-02391999999ADDAJ100009100000099AY171031AY271031GA1081+017501101GA2999+999999101GA3999+999999101GE19AGL   +99999+99999GF108991081999017501999999MA1999999069711MD1210171+0201MW1701REMSYN004BUFR
0240527870999992018010712004+37200+102867FM-12+304499999V0203401N013019999999N030000199-01971-02371999999ADDAA106000731AY171021AY271021GA1081+017501999GE19AGL   +99999+99999GF108991081999017501999999MA1999999069951MD1210241+9999MW1701OD139901901360REMSYN08852787 11780 83413 11197 21237 36995 52024 69971 77077 88/// 333 00351 91119 91536 92501=
0164527870999992018010718004+37200+102867FM-12+304499999V0202901N00401002401WN030000199-02221-02671999999ADDGF109991999999999999999999KA1120M-01841MA1999999070101MD1210041+9999OD139901901360REMSYN07052787 32/80 92904 11222 21267 37010 52004 333 00552 11184 91119 91536=
0067527870999992018010721004+37200+102870FM-12+304499999V0201101N0010199999999030000199-02081-02911999999ADDAA106999999AA224000831MA1999999070031MD1710071+0501REMSYN004BUFR
0142527870999992018010800004+37200+102867FM-12+304499999V0203401N002019999999N030000199-02001-03061999999ADDAA124000831GF100995999999999999999999MA1999999070031MD1410001+9999REMSYN06452787 32980 03402 11200 21306 37003 54000 333 00502 70008 92501=
0093527870999992018010803004+37200+102870FM-12+304499999V0203401N0030122000199030000199-01371-02721999999ADDAA106999999AA224999999GF100991999999999999999999MA1999999070091MD1210061+9999REMSYN004BUFR
0138527870999992018010806004+37200+102867FM-12+304499999V0203401N005019999999N030000199-01191-02711999999ADDGF100995999999999999999999KA1240N-02361MA1999999069961MD1710131+9999REMSYN05852787 32980 03405 11119 21271 36996 57013 333 00408 21236=
0163527870999992018010809004+37200+102870FM-12+304499999V0200201N00701026001C9030000199-01351-02631999999ADDAA106999999AA224999999GA1071+026001101GA2999+999999101GA3999+999999101GE19AGL   +99999+99999GF107991071999026001999999MA1999999070031MD1210071+0301REMSYN004BUFR
0163527870999992018010812004+37200+102867FM-12+304499999V0203201N002019999999N030000199-01861-02641999999ADDGA1051+999999999GE19AGL   +99999+99999GF105991051999999999999999MA1999999070181MD1210151+9999REMSYN05852787 32980 53202 11186 21264 37018 52015 85/// 333 00201=
0138527870999992018010818004+37200+102867FM-12+304499999V0203201N00401002401WN030000199-01731-03071999999ADDGF109991999999999999999999KA1120M-01081MA1999999070141MD1710061+9999REMSYN05852787 32/80 93204 11173 21307 37014 57006 333 00005 11108=
0067527870999992018010821004+37200+102870FM-12+304499999V0203601N0080199999999030000199-01571-03091999999ADDAA106999999AA224999999MA1999999070141MD1410001+0101REMSYN004BUFR
0125527870999992018010900004+37200+102867FM-12+304499999V0203601N009019999999N030000199-01561-03031999999ADDGF100995999999999999999999MA1999999070221MD1210081+9999REMSYN05852787 32980 03609 11156 21303 37022 52008 333 00204 92501=
0093527870999992018010903004+37200+102870FM-12+304499999V0202901N0050122000199030000199-01441-02711999999ADDAA106999999AA224999999GF100991999999999999999999MA1999999070371MD1210151+9999REMSYN004BUFR
0182527870999992018010906004+37200+102867FM-12+304499999V0203601N011012200019N030000199-01101-02631999999ADDGA1021+999999999GE19AGL   +99999+99999GF102991021999999999999999KA1240N-01971MA1999999070251MD1710121+9999REMSYN06452787 32980 23611 11110 21263 37025 57012 82/// 333 00301 21197=
0163527870999992018010909004+37200+102870FM-12+304499999V0203601N0090122000199030000199-01251-02481999999ADDAA106999999AA224999999GA1021+017501101GA2999+999999101GA3999+999999101GE19AGL   +99999+99999GF102991021999017501999999MA1999999070361MD1210111+0301REMSYN004BUFR
0163527870999992018010912004+37200+102867FM-12+304499999V0203601N008012200019N030000199-01381-02621999999ADDGA1031+999999999GE19AGL   +99999+99999GF103991031999999999999999MA1999999070501MD1210141+9999REMSYN05852787 32980 33608 11138 21262 37050 52014 83/// 333 00305=
0138527870999992018010918004+37200+102867FM-12+304499999V0203201N00601002401WN030000199-01551-02911999999ADDGF109991999999999999999999KA1120M-01081MA1999999070461MD1710071+9999REMSYN05852787 32/80 93206 11155 21291 37046 57007 333 00302 11108=
0067527870999992018010921004+37200+102870FM-12+304499999V0203601N0110199999999030000199-01271-02961999999ADDAA106999999AA224999999MA1999999070331MD1710131+0201REMSYN004BUFR
0125527870999992018011000004+37200+102867FM-12+304499999V0200201N002019999999N030000199-01501-02941999999ADDGF100995999999999999999999MA1999999070431MD1210101+9999REMSYN05852787 32980 00202 11150 21294 37043 52010 333 00201 92500=
0093527870999992018011003004+37200+102870FM-12+304499999V0203201N0040122000199030000199-01121-02651999999ADDAA106999999AA224999999GF100991999999999999999999MA1999999070521MD1210091+9999REMSYN004BUFR
0138527870999992018011006004+37200+102867FM-12+304499999V0200201N005019999999N030000199-00791-02591999999ADDGF100995999999999999999999KA1240N-01611MA1999999070361MD1710161+9999REMSYN05852787 32680 00205 11079 21259 37036 57016 333 00103 21161=
0163527870999992018011009004+37200+102870FM-12+304499999V0203601N00801026001C9030000199-01051-02471999999ADDAA106999999AA224999999GA1071+026001101GA2999+999999101GA3999+999999101GE19AGL   +99999+99999GF107991071999026001999999MA1999999070411MD1210051+0101REMSYN004BUFR
0119527870999992018011012004+37200+102867FM-12+304499999V0203601N006019999999N030000199-01291-02331999999ADDGF100995999999999999999999MA1999999070511MD1210101+9999REMSYN05252787 32980 03606 11129 21233 37051 52010 333 00001=
0138527870999992018011018004+37200+102867FM-12+304499999V0203601N00601002401WN030000199-01231-02821999999ADDGF109991999999999999999999KA1120M-00771MA1999999070451MD1710081+9999REMSYN05852787 32/80 93606 11123 21282 37045 57008 333 00003 11077=
0067527870999992018011021004+37200+102870FM-12+304499999V0203201N0020199999999030000199-01401-02861999999ADDAA106999999AA224999999MA1999999070411MD1710041+0101REMSYN004BUFR
0125527870999992018011100004+37200+102867FM-12+304499999V0203601N002019999999N030000199-01361-02781999999ADDGF100995999999999999999999MA1999999070471MD1210061+9999REMSYN05852787 32980 03602 11136 21278 37047 52006 333 00001 92500=
0093527870999992018011103004+37200+102870FM-12+304499999V0203201N0030122000199030000199-00821-02471999999ADDAA106999999AA224999999GF100991999999999999999999MA1999999070571MD1210101+9999REMSYN004BUFR
0182527870999992018011106004+37200+102867FM-12+304499999V0203601N009019999999N030000199-00681-02391999999ADDGA1071+012501999GE19AGL   +99999+99999GF107991071999012501999999KA1240N-01651MA1999999070391MD1710181+9999REMSYN06452787 32680 73609 11068 21239 37039 57018 87/// 333 00001 21165=
0163527870999992018011109004+37200+102870FM-12+304499999V0200201N00701017501C9029000199-00821-02341999999ADDAA106999999AA224999999GA1071+017501101GA2999+999999101GA3999+999999101GE19AGL   +99999+99999GF107991071999017501999999MA1999999070441MD1210051+0001REMSYN004BUFR
0163527870999992018011112004+37200+102867FM-12+304499999V0200201N006019999999N030000199-00931-02401999999ADDGA1071+017501999GE19AGL   +99999+99999GF107991071999017501999999MA1999999070471MD1210031+9999REMSYN05852787 32780 70206 11093 21240 37047 52003 87/// 333 00004=
0138527870999992018011118004+37200+102867FM-12+304499999V0201401N00301002401WN030000199-01461-02431999999ADDGF109991999999999999999999KA1120M-00571MA1999999070291MD1710151+9999REMSYN05852787 32/80 91403 11146 21243 37029 57015 333 05252 11057=
0067527870999992018011121004+37200+102870FM-12+304499999V0201401N0020199999999030000199-01121-02431999999ADDAA106999999AA224999999MA1999999070121MD1710171-0301REMSYN004BUFR
0169527870999992018011200004+37200+102867FM-12+304499999V0201801N002012200019N030000199-01191-02491999999ADDGA1011+017501999GE19AGL   +99999+99999GF101991011999017501999999MA1999999070041MD1710081+9999REMSYN06452787 32780 11802 11119 21249 37004 57008 81/// 333 05402 92500=
0163527870999992018011203004+37200+102870FM-12+304499999V0201801N00201017501C9030000199-00571-02301999999ADDAA106999999AA224999999GA1071+017501101GA2999+999999101GA3999+999999101GE19AGL   +99999+99999GF107991071999017501999999MA1999999070051MD1210011+9999REMSYN004BUFR
0182527870999992018011206004+37200+102867FM-12+304499999V0203401N006019999999N028000199-00381-02461999999ADDGA1071+017501999GE19AGL   +99999+99999GF107991071999017501999999KA1240N-01491MA1999999069831MD1710221+9999REMSYN06452787 32778 73406 11038 21246 36983 57022 87/// 333 05603 21149=
0163527870999992018011209004+37200+102870FM-12+304499999V0203601N00401017501C9029000199-00371-02821999999ADDAA106999999AA224999999GA1071+017501101GA2999+999999101GA3999+999999101GE19AGL   +99999+99999GF107991071999017501999999MA1999999069911MD1210081-0501REMSYN004BUFR
0163527870999992018011212004+37200+102867FM-12+304499999V0200201N002019999999N030000199-00721-03011999999ADDGA1071+999999999GE19AGL   +99999+99999GF107991071999999999999999MA1999999070011MD1210101+9999REMSYN05852787 32980 70202 11072 21301 37001 52010 87/// 333 05502=
0138527870999992018011218004+37200+102867FM-12+304499999V0201601N00101002401WN030000199-01011-02721999999ADDGF109991999999999999999999KA1120M-00301MA1999999069971MD1710101+9999REMSYN05852787 32/80 91601 11101 21272 36997 57010 333 05305 11030=
0067527870999992018011221004+37200+102870FM-12+304499999V0201601N0030199999999030000199-00951-02591999999ADDAA106999999AA224999999MA1999999069851MD1710121-0301REMSYN004BUFR
0163527870999992018011300004+37200+102867FM-12+304499999V0201601N003019999999N030000199-00961-02641999999ADDGA1071+017501999GE19AGL   +99999+99999GF107991071999017501999999MA1999999069821MD1710031+9999REMSYN05852787 32780 71603 11096 21264 36982 57003 87/// 333 05202=
0163527870999992018011303004+37200+102870FM-12+304499999V0203601N0020122000199030000199-00201-02381999999ADDAA106999999AA224999999GA1021+026001101GA2999+999999101GA3999+999999101GE19AGL   +99999+99999GF102991021999026001999999MA1999999069891MD1210071+9999REMSYN004BUFR
0138527870999992018011306004+37200+102867FM-12+304499999V0203201N012019999999N029000199-01041-01921999999ADDGF100995999999999999999999KA1240N-01101MA1999999069801MD1710091+9999REMSYN05852787 32979 03212 11104 21192 36980 57009 333 00057 21110=
0093527870999992018011309004+37200+102870FM-12+304499999V0200201N0120122000199030000199-00471-02671999999ADDAA106999999AA224999999GF100991999999999999999999MA1999999069931MD1210131+0001REMSYN004BUFR
0145527870999992018011312004+37200+102867FM-12+304499999V0203401N005019999999N030000199-00971-02511999999ADDGF100995999999999999999999MA1999999070021MD1210091+9999OD139902101020REMSYN06452787 32980 03405 11097 21251 37002 52009 333 00053 91121 91502=
0138527870999992018011318004+37200+102867FM-12+304499999V0201401N00901002401WN030000199-01301-02371999999ADDGF109991999999999999999999KA1120M+00211MA1999999069881MD1710141+9999REMSYN05852787 32/80 91409 11130 21237 36988 57014 333 05153 10021=
0067527870999992018011321004+37200+102870FM-12+304499999V0201601N0070199999999030000199-01351-02261999999ADDAA106999999AA224999999MA1999999069831MD1710051+0001REMSYN004BUFR
0163527870999992018011400004+37200+102867FM-12+304499999V0201601N004019999999N030000199-01181-02291999999ADDGA1071+017501999GE19AGL   +99999+99999GF107991071999017501999999MA1999999069851MD1210021+9999REMSYN05852787 32780 71604 11118 21229 36985 52002 87/// 333 00052=
0093527870999992018011403004+37200+102870FM-12+304499999V0201801N0020122000199026000199-00052-02321999999ADDAA106999999AA224999999GF100991999999999999999999MA1999999069881MD1210031+9999REMSYN004BUFR
0138527870999992018011406004+37200+102867FM-12+304499999V0201801N006019999999N029000199+00071-01971999999ADDGF100995999999999999999999KA1240N-01481MA1999999069651MD1710231+9999REMSYN05852787 32979 01806 10007 21197 36965 57023 333 05211 21148=
0163527870999992018011409004+37200+102870FM-12+304499999V0201601N00701026001C9028000199-00121-02071999999ADDAA106999999AA224999999GA1051+026001101GA2999+999999101GA3999+999999101GE19AGL   +99999+99999GF105991051999026001999999MA1999999069561MD1710091-0401REMSYN004BUFR
0163527870999992018011412004+37200+102867FM-12+304499999V0201601N003012200019N029000199-00581-01911999999ADDGA1031+999999999GE19AGL   +99999+99999GF103991031999999999999999MA1999999069591MD1210031+9999REMSYN05852787 32979 31603 11058 21191 36959 52003 83/// 333 05404=
0138527870999992018011418004+37200+102867FM-12+304499999V0200201N01101002401WN030000199-00671-02301999999ADDGF109991999999999999999999KA1120M+00111MA1999999069721MD1210021+9999REMSYN05852787 32/80 90211 11067 21230 36972 52002 333 05206 10011=
0067527870999992018011421004+37200+102870FM-12+304499999V0203401N0110199999999030000199-01401-02241999999ADDAA106999999AA224999999MA1999999069761MD1210041-0101REMSYN004BUFR
0145527870999992018011500004+37200+102867FM-12+304499999V0203601N008019999999N030000199-01031-02531999999ADDGF100995999999999999999999MA1999999069871MD1210111+9999OD139902101360REMSYN06452787 32980 03608 11103 21253 36987 52011 333 00002 91121 91536=
0163527870999992018011503004+37200+102870FM-12+304499999V0203201N00901026001C9030000199-01021-02241999999ADDAA106999999AA224999999GA1071+026001101GA2999+999999101GA3999+999999101GE19AGL   +99999+99999GF107991071999026001999999MA1999999070021MD1210151+9999REMSYN004BUFR
0182527870999992018011506004+37200+102867FM-12+304499999V0200201N007019999999N030000199-00681-02001999999ADDGA1071+999999999GE19AGL   +99999+99999GF107991071999999999999999KA1240N-01471MA1999999069911MD1710111+9999REMSYN06452787 32980 70207 11068 21200 36991 57011 87/// 333 00358 21147=
0163527870999992018011509004+37200+102870FM-12+304499999V0203601N00801017501C9030000199-00871-02051999999ADDAA106999999AA224999999GA1071+017501101GA2999+999999101GA3999+999999101GE19AGL   +99999+99999GF107991071999017501999999MA1999999069981MD1210071+0401REMSYN004BUFR
0163527870999992018011512004+37200+102867FM-12+304499999V0203401N002019999999N030000199-00981-02051999999ADDGA1071+017501999GE19AGL   +99999+99999GF107991071999017501999999MA1999999070111MD1210131+9999REMSYN05852787 32780 73402 11098 21205 37011 52013 87/// 333 00554=
0138527870999992018011518004+37200+102867FM-12+304499999V0201601N01001002401WN030000199-01181-01681999999ADDGF109991999999999999999999KA1120M-00591MA1999999069871MD1710201+9999REMSYN05852787 32/80 91610 11118 21168 36987 57020 333 00255 11059=
0067527870999992018011521004+37200+102870FM-12+304499999V0201601N0030199999999030000199-01251-01791999999ADDAA106999999AA224999999MA1999999069651MD1710221-0101REMSYN004BUFR
0163527870999992018011600004+37200+102867FM-12+304499999V0202201N003012200019N030000199-00981-01871999999ADDGA1021+999999999GE19AGL   +99999+99999GF102991021999999999999999MA1999999069521MD1710131+9999REMSYN05852787 32980 22203 11098 21187 36952 57013 82/// 333 05401=
0163527870999992018011603004+37200+102870FM-12+304499999V0203201N0100122000199030000199-00421-02131999999ADDAA106999999AA224999999GA1021+026001101GA2999+999999101GA3999+999999101GE19AGL   +99999+99999GF102991021999026001999999MA1999999069451MD1710071+9999REMSYN004BUFR
0208527870999992018011606004+37200+102867FM-12+304499999V0202901N011012200019N028000199-00091-02351999999ADDGA1021+012501999GE19AGL   +99999+99999GF102991021999012501999999KA1240N-01391MA1999999069261MD1710191+9999OD139901701290REMSYN07652787 32678 22911 11009 21235 36926 57019 82/// 333 05706 21139 91117 91529=
0163527870999992018011609004+37200+102870FM-12+304499999V0203401N00501012501C9028000199-00201-02381999999ADDAA106999999AA224999999GA1071+012501101GA2999+999999101GA3999+999999101GE19AGL   +99999+99999GF107991071999012501999999MA1999999069211MD1710051-0801REMSYN004BUFR
0189527870999992018011612004+37200+102867FM-12+304499999V0203201N015019999999N027000199-01201-02201999999ADDGA1071+017501999GE19AGL   +99999+99999GF107991071999017501999999MA1999999069341MD1210131+9999OD139902101320REMSYN07052787 32777 73215 11120 21220 36934 52013 87/// 333 05852 91121 91532=
0164527870999992018011618004+37200+102867FM-12+304499999V0202901N00401002401WN030000199-01881-02071999999ADDGF109991999999999999999999KA1120M+00071MA1999999069541MD1210091+9999OD139901901360REMSYN07052787 32/80 92904 11188 21207 36954 52009 333 05357 10007 91119 91536=
0067527870999992018011621004+37200+102870FM-12+304499999V0200201N0060199999999030000199-01341-02111999999ADDAA106999999AA224999999MA1999999069581MD1210041-0101REMSYN004BUFR
0232527870999992018011700004+37200+102867FM-12+304499999V0203201N004019999999N030000199-01641-02071999999ADDAA112000091AA224000091GA1071+017501999GE19AGL   +99999+99999GF107991071999017501999999MA1999999069751MD1210171+9999REMSYN07052787 12780 73204 11164 21207 36975 52017 69902 87/// 333 00257 79999=EQDQ01  00002PRCP12Q02  00002PRCP24
0163527870999992018011703004+37200+102870FM-12+304499999V0201601N00601026001C9029000199-00871-01871999999ADDAA106999999AA224999999GA1071+026001101GA2999+999999101GA3999+999999101GE19AGL   +99999+99999GF107991071999026001999999MA1999999069831MD1210081+9999REMSYN004BUFR
0182527870999992018011706004+37200+102867FM-12+304499999V0201601N009012200019N028000199-00621-01781999999ADDGA1031+999999999GE19AGL   +99999+99999GF103991031999999999999999KA1240N-01881MA1999999069661MD1710171+9999REMSYN06452787 32978 31609 11062 21178 36966 57017 83/// 333 00455 21188=
0163527870999992018011709004+37200+102870FM-12+304499999V0202901N00501026001C9030000199-00871-01801999999ADDAA106999999AA224999999GA1071+026001101GA2999+999999101GA3999+999999101GE19AGL   +99999+99999GF107991071999026001999999MA1999999069741MD1210081+0501REMSYN004BUFR
0163527870999992018011712004+37200+102867FM-12+304499999V0201101N001019999999N030000199-01311-01891999999ADDGA1071+017501999GE19AGL   +99999+99999GF107991071999017501999999MA1999999069861MD1210121+9999REMSYN05852787 32780 71101 11131 21189 36986 52012 87/// 333 00551=
0138527870999992018011718004+37200+102867FM-12+304499999V0202901N00101002401WN030000199-01111-01791999999ADDGF109991999999999999999999KA1120M-00531MA1999999070051MD1210061+9999REMSYN05852787 32/80 92901 11111 21179 37005 52006 333 00508 11053=
0067527870999992018011721004+37200+102870FM-12+304499999V0200201N0040199999999030000199-00921-02481999999ADDAA106999999AA224999999MA1999999070001MD1710051+0401REMSYN004BUFR
0163527870999992018011800004+37200+102867FM-12+304499999V0203401N001019999999N030000199-01021-02401999999ADDGA1071+017501999GE19AGL   +99999+99999GF107991071999017501999999MA1999999070121MD1210121+9999REMSYN05852787 32780 73401 11102 21240 37012 52012 87/// 333 00406=
0163527870999992018011803004+37200+102870FM-12+304499999V0202901N00401017501C9030000199-00771-02311999999ADDAA106999999AA224999999GA1071+017501101GA2999+999999101GA3999+999999101GE19AGL   +99999+99999GF107991071999017501999999MA1999999070141MD1210021+9999REMSYN004BUFR
0182527870999992018011806004+37200+102867FM-12+304499999V0201601N006019999999N030000199-00721-02141999999ADDGA1071+017501999GE19AGL   +99999+99999GF107991071999017501999999KA1240N-01321MA1999999070081MD1710061+9999REMSYN06452787 32780 71606 11072 21214 37008 57006 87/// 333 00451 21132=
0163527870999992018011809004+37200+102870FM-12+304499999V0201601N00301017501C9028000199-00671-02061999999ADDAA106999999AA224999999GA1081+017501101GA2999+999999101GA3999+999999101GE19AGL   +99999+99999GF108991081999017501999999MA1999999070191MD1210111+0501REMSYN004BUFR
0163527870999992018011812004+37200+102867FM-12+304499999V0202701N001019999999N030000199-01001-02161999999ADDGA1081+017501999GE19AGL   +99999+99999GF108991081999017501999999MA1999999070351MD1210161+9999REMSYN05852787 32780 82701 11100 21216 37035 52016 88/// 333 00503=
0138527870999992018011818004+37200+102867FM-12+304499999V0201401N00401002401WN030000199-01251-02071999999ADDGF109991999999999999999999KA1120M-00631MA1999999070301MD1710081+9999REMSYN05852787 32/80 91404 11125 21207 37030 57008 333 00351 11063=
0067527870999992018011821004+37200+102870FM-12+304499999V0201801N0040199999999030000199-01151-02351999999ADDAA106999999AA224999999MA1999999070191MD1710111+0201REMSYN004BUFR
0163527870999992018011900004+37200+102867FM-12+304499999V0203601N001012200019N030000199-01231-02101999999ADDGA1021+017501999GE19AGL   +99999+99999GF102991021999017501999999MA1999999070121MD1710071+9999REMSYN05852787 32780 23601 11123 21210 37012 57007 82/// 333 00052=
0163527870999992018011903004+37200+102870FM-12+304499999V0203201N0080122000199030000199-00851-02091999999ADDAA106999999AA224999999GA1021+026001101GA2999+999999101GA3999+999999101GE19AGL   +99999+99999GF102991021999026001999999MA1999999070111MD1710011+9999REMSYN004BUFR
0182527870999992018011906004+37200+102867FM-12+304499999V0203401N006012200019N029000199-00411-02071999999ADDGA1031+012501999GE19AGL   +99999+99999GF103991031999012501999999KA1240N-01391MA1999999069961MD1710151+9999REMSYN06452787 32679 33406 11041 21207 36996 57015 83/// 333 05103 21139=
0163527870999992018011909004+37200+102870FM-12+304499999V0203201N00801017501C9030000199-00801-02101999999ADDAA106999999AA224999999GA1071+017501101GA2999+999999101GA3999+999999101GE19AGL   +99999+99999GF107991071999017501999999MA1999999069951MD1710011-0201REMSYN004BUFR
0163527870999992018011912004+37200+102867FM-12+304499999V0203201N006019999999N030000199-01191-02211999999ADDGA1071+017501999GE19AGL   +99999+99999GF107991071999017501999999MA1999999070141MD1210191+9999REMSYN05852787 32780 73206 11119 21221 37014 52019 87/// 333 05252=
0138527870999992018011918004+37200+102867FM-12+304499999V0203401N00101002401WN030000199-01151-02231999999ADDGF109991999999999999999999KA1120M-00321MA1999999070141MD1710031+9999REMSYN05852787 32/80 93401 11115 21223 37014 57003 333 05201 11032=
0067527870999992018011921004+37200+102870FM-12+304499999V0201601N0060199999999030000199-01341-02201999999ADDAA106999999AA224999999MA1999999070011MD1710131-0201REMSYN004BUFR
0163527870999992018012000004+37200+102867FM-12+304499999V0201601N003012200019N030000199-01341-02181999999ADDGA1011+017501999GE19AGL   +99999+99999GF101991011999017501999999MA1999999070071MD1210061+9999REMSYN05852787 32780 11603 11134 21218 37007 52006 81/// 333 05151=
0163527870999992018012003004+37200+102870FM-12+304499999V0203201N0030122000199030000199-00771-01951999999ADDAA106999999AA224999999GA1021+017501101GA2999+999999101GA3999+999999101GE19AGL   +99999+99999GF102991021999017501999999MA1999999070161MD1210091+9999REMSYN004BUFR
0182527870999992018012006004+37200+102867FM-12+304499999V0201601N003019999999N029000199-00291-02011999999ADDGA1061+999999999GE19AGL   +99999+99999GF106991061999999999999999KA1240N-01401MA1999999070001MD1710161+9999REMSYN06452787 32979 61603 11029 21201 37000 57016 86/// 333 00001 21140=
0163527870999992018012009004+37200+102870FM-12+304499999V0200901N00101026001C9025000199-00451-01941999999ADDAA106999999AA224999999GA1071+026001101GA2999+999999101GA3999+999999101GE19AGL   +99999+99999GF107991071999026001999999MA1999999070001MD1410001+0101REMSYN004BUFR
0163527870999992018012012004+37200+102867FM-12+304499999V0203601N005019999999N030000199-01051-02111999999ADDGA1071+017501999GE19AGL   +99999+99999GF107991071999017501999999MA1999999070161MD1210161+9999REMSYN05852787 32780 73605 11105 21211 37016 52016 87/// 333 00001=
0138527870999992018012018004+37200+102867FM-12+304499999V0201101N01301002401WN030000199-01001-01941999999ADDGF109991999999999999999999KA1120M-00211MA1999999069911MD1710161+9999REMSYN05852787 32/80 91113 11100 21194 36991 57016 333 05202 11021=
0067527870999992018012021004+37200+102870FM-12+304499999V0203201N0050199999999030000199-01521-01971999999ADDAA106999999AA224999999MA1999999069871MD1710041-0101REMSYN004BUFR
0163527870999992018012100004+37200+102867FM-12+304499999V0202901N004019999999N030000199-01581-01941999999ADDGA1071+017501999GE19AGL   +99999+99999GF107991071999017501999999MA1999999069921MD1210051+9999REMSYN05852787 32780 72904 11158 21194 36992 52005 87/// 333 05252=
0163527870999992018012103004+37200+102870FM-12+304499999V0201601N00401026001C9030000199-00841-02011999999ADDAA106999999AA224999999GA1061+026001101GA2999+999999101GA3999+999999101GE19AGL   +99999+99999GF106991061999026001999999MA1999999069941MD1210021+9999REMSYN004BUFR
0182527870999992018012106004+37200+102867FM-12+304499999V0201401N009019999999N030000199-00581-02021999999ADDGA1071+012501999GE19AGL   +99999+99999GF107991071999012501999999KA1240N-01601MA1999999069641MD1710301+9999REMSYN06452787 32680 71409 11058 21202 36964 57030 87/// 333 05453 21160=
0163527870999992018012109004+37200+102870FM-12+304499999V0203601N00601017501C9030000199-00901-01721999999ADDAA106999999AA224999999GA1071+017501101GA2999+999999101GA3999+999999101GE19AGL   +99999+99999GF107991071999017501999999MA1999999069671MD1210031-0301REMSYN004BUFR
0208527870999992018012112004+37200+102867FM-12+304499999V0203601N006019999999N030000199-01131-01441999999ADDAA106000021AY171021AY201021GA1081+017501999GE19AGL   +99999+99999GF108991081999017501999999MA1999999069811MD1210141+9999MW1701REMSYN07052787 11780 83606 11113 21144 36981 52014 69901 77070 88/// 333 05451=
0138527870999992018012118004+37200+102867FM-12+304499999V0201601N00301002401WN030000199-01421-01691999999ADDGF109991999999999999999999KA1120M-00481MA1999999069721MD1710071+9999REMSYN05852787 32/80 91603 11142 21169 36972 57007 333 05254 11048=
0067527870999992018012121004+37200+102870FM-12+304499999V0200901N0020199999999030000199-01471-01761999999ADDAA106999999AA224999999MA1999999069671MD1710051-0201REMSYN004BUFR
0197527870999992018012200004+37200+102867FM-12+304499999V0200701N001012200019N030000199-01371-01711999999ADDAA112000021AA224000021GA1021+017501999GE19AGL   +99999+99999GF102991021999017501999999MA1999999069741MD1210071+9999REMSYN07052787 12780 20701 11137 21171 36974 52007 69902 82/// 333 05202 79999=
0093527870999992018012203004+37200+102870FM-12+304499999V0201601N0040122000199029000199-00791-01621999999ADDAA106999999AA224999999GF100991999999999999999999MA1999999069801MD1210061+9999REMSYN004BUFR
0138527870999992018012206004+37200+102867FM-12+304499999V0201601N007019999999N029000199-00451-01661999999ADDGF100995999999999999999999KA1240N-01481MA1999999069621MD1710181+9999REMSYN05852787 32979 01607 11045 21166 36962 57018 333 00001 21148=
0093527870999992018012209004+37200+102870FM-12+304499999V0203401N0020122000199028000199-00451-01671999999ADDAA106999999AA224999999GF100991999999999999999999MA1999999069621MD1410001-0101REMSYN004BUFR
0119527870999992018012212004+37200+102867FM-12+304499999V0202901N005019999999N030000199-01361-01711999999ADDGF100995999999999999999999MA1999999069821MD1210201+9999REMSYN05252787 32980 02905 11136 21171 36982 52020 333 00052=
0138527870999992018012218004+37200+102867FM-12+304499999V0201601N00501002401WN030000199-01291-01781999999ADDGF109991999999999999999999KA1120M-00371MA1999999069771MD1710101+9999REMSYN05852787 32/80 91605 11129 21178 36977 57010 333 00101 11037=
0067527870999992018012221004+37200+102870FM-12+304499999V0201401N0050199999999030000199-01441-01861999999ADDAA106999999AA224999999MA1999999069661MD1710111+0001REMSYN004BUFR
0119527870999992018012300004+37200+102867FM-12+304499999V0201401N003019999999N030000199-01361-01781999999ADDGF100995999999999999999999MA1999999069631MD1710031+9999REMSYN05252787 32980 01403 11136 21178 36963 57003 333 05100=
0093527870999992018012303004+37200+102870FM-12+304499999V0201601N0020122000199029000199-00451-01641999999ADDAA106999999AA224999999GF100991999999999999999999MA1999999069651MD1210021+9999REMSYN004BUFR
0138527870999992018012306004+37200+102867FM-12+304499999V0200201N008019999999N030000199-00331-02191999999ADDGF100995999999999999999999KA1240N-01541MA1999999069591MD1710061+9999REMSYN05852787 32980 00208 11033 21219 36959 57006 333 00001 21154=
0093527870999992018012309004+37200+102870FM-12+304499999V0203601N0110122000199030000199-00741-01951999999ADDAA106999999AA224999999GF100991999999999999999999MA1999999069671MD1210081+0101REMSYN004BUFR
0119527870999992018012312004+37200+102867FM-12+304499999V0202901N005019999999N030000199-01281-02011999999ADDGF100995999999999999999999MA1999999069721MD1210051+9999REMSYN05252787 32980 02905 11128 21201 36972 52005 333 05101=
0138527870999992018012318004+37200+102867FM-12+304499999V0201601N00501002401WN030000199-01461-02101999999ADDGF109991999999999999999999KA1120M-00241MA1999999069551MD1710151+9999REMSYN05852787 32/80 91605 11146 21210 36955 57015 333 05252 11024=
0067527870999992018012321004+37200+102870FM-12+304499999V0201801N0100199999999030000199-01471-01851999999ADDAA106999999AA224999999MA1999999069381MD1710171-0301REMSYN004BUFR
0163527870999992018012400004+37200+102867FM-12+304499999V0201601N007019999999N030000199-01391-01951999999ADDGA1071+017501999GE19AGL   +99999+99999GF107991071999017501999999MA1999999069381MD1410001+9999REMSYN05852787 32780 71607 11139 21195 36938 54000 87/// 333 05300=
0163527870999992018012403004+37200+102870FM-12+304499999V0201401N01101026001C9030000199-00791-01971999999ADDAA106999999AA224999999GA1071+026001101GA2999+999999101GA3999+999999101GE19AGL   +99999+99999GF107991071999026001999999MA1999999069351MD1710031+9999REMSYN004BUFR
0182527870999992018012406004+37200+102867FM-12+304499999V0201601N012019999999N029000199-00581-01871999999ADDGA1071+999999999GE19AGL   +99999+99999GF107991071999999999999999KA1240N-01631MA1999999069141MD1710211+9999REMSYN06452787 32979 71612 11058 21187 36914 57021 87/// 333 05553 21163=
0163527870999992018012409004+37200+102870FM-12+304499999V0203201N00601012501C9030000199-01201-01831999999ADDAA106999999AA224999999GA1071+012501101GA2999+999999101GA3999+999999101GE19AGL   +99999+99999GF107991071999012501999999MA1999999069241MD1210101-0401REMSYN004BUFR
0214527870999992018012412004+37200+102867FM-12+304499999V0201601N006019999999N014000199-01361-01531999999ADDAA106000131AY171021AY201021GA1081+017501999GE19AGL   +99999+99999GF108991081999017501999999MA1999999069391MD1210151+9999MW1701REMSYN07652787 11764 81606 11136 21153 36939 52015 69911 77070 88/// 333 05351 92500=
0155527870999992018012418004+37200+102867FM-12+304499999V0201601N00601002401WN030000199-01411-01561999999ADDAA106000531GF109991999999999999999999KA1120M-00551MA1999999069511MD1410001+9999REMSYN06452787 12/80 91606 11141 21156 36951 54000 69951 333 00001 11055=
0056527870999992018012421004+37200+102870FM-12+304499999V0201801N0050199999999030000199-01441-01601999999ADDAA124000631MA1999999069451MD1710061+0101REMSYN004BUFR
0209527870999992018012500004+37200+102867FM-12+304499999V0201401N003019999999N030000199-01601-01771999999ADDAA112000531AA224000631GA1081+017501999GE19AGL   +99999+99999GF108991081999017501999999MA1999999069491MD1210041+9999REMSYN08252787 12780 81403 11160 21177 36949 52004 69952 88/// 333 00152 70006 92501 93436=
0163527870999992018012503004+37200+102870FM-12+304499999V0203401N0060122000199030000199-01301-01461999999ADDAA106999999AA224999999GA1031+026001101GA2999+999999101GA3999+999999101GE19AGL   +99999+99999GF103991031999026001999999MA1999999069611MD1210121+9999REMSYN004BUFR
0138527870999992018012506004+37200+102867FM-12+304499999V0200201N010019999999N030000199-00531-02361999999ADDGF100995999999999999999999KA1240N-01701MA1999999069471MD1710141+9999REMSYN05852787 32680 00210 11053 21236 36947 57014 333 00301 21170=
0163527870999992018012509004+37200+102870FM-12+304499999V0203601N0100122000199028000199-00901-02101999999ADDAA106999999AA224999999GA1021+012501101GA2999+999999101GA3999+999999101GE19AGL   +99999+99999GF102991021999012501999999MA1999999069621MD1210151+0401REMSYN004BUFR
0163527870999992018012512004+37200+102867FM-12+304499999V0203601N006019999999N030000199-01201-02051999999ADDGA1071+999999999GE19AGL   +99999+99999GF107991071999999999999999MA1999999069771MD1210151+9999REMSYN05852787 32980 73606 11120 21205 36977 52015 87/// 333 00402=
0138527870999992018012518004+37200+102867FM-12+304499999V0201601N00601002401WN030000199-01621-02251999999ADDGF109991999999999999999999KA1120M-00471MA1999999069661MD1710161+9999REMSYN05852787 32/80 91606 11162 21225 36966 57016 333 00252 11047=
0067527870999992018012521004+37200+102870FM-12+304499999V0201401N0120199999999030000199-01141-02281999999ADDAA106999999AA224999999MA1999999069471MD1710191+0001REMSYN004BUFR
0195527870999992018012600004+37200+102867FM-12+304499999V0201401N013019999999N030000199-01001-02631999999ADDGA1071+017501999GE19AGL   +99999+99999GF107991071999017501999999MA1999999069411MD1710061+9999OD139901701140REMSYN07652787 32780 71413 11100 21263 36941 57006 87/// 333 05106 91117 91514 92500=
0163527870999992018012603004+37200+102870FM-12+304499999V0201601N00601017501C9030000199-00851-02381999999ADDAA106999999AA224999999GA1071+017501101GA2999+999999101GA3999+999999101GE19AGL   +99999+99999GF107991071999017501999999MA1999999069441MD1210031+9999REMSYN004BUFR
0182527870999992018012606004+37200+102867FM-12+304499999V0201601N004019999999N030000199-00691-01391999999ADDGA1071+017501999GE19AGL   +99999+99999GF107991071999017501999999KA1240N-01701MA1999999069241MD1710201+9999REMSYN06452787 32780 71604 11069 21139 36924 57020 87/// 333 05252 21170=
0163527870999992018012609004+37200+102870FM-12+304499999V0203201N00601026001C9028000199-00671-02021999999ADDAA106999999AA224999999GA1051+026001101GA2999+999999101GA3999+999999101GE19AGL   +99999+99999GF105991051999026001999999MA1999999069231MD1710011-0401REMSYN004BUFR
0163527870999992018012612004+37200+102867FM-12+304499999V0201601N002019999999N030000199-01081-01351999999ADDGA1061+999999999GE19AGL   +99999+99999GF106991061999999999999999MA1999999069401MD1210171+9999REMSYN05852787 32980 61602 11108 21135 36940 52017 86/// 333 05401=
0138527870999992018012618004+37200+102867FM-12+304499999V0200201N01001002401WN030000199-01201-02021999999ADDGF109991999999999999999999KA1120M-00461MA1999999069431MD1710021+9999REMSYN05852787 32/80 90210 11120 21202 36943 57002 333 05204 11046=
0067527870999992018012621004+37200+102870FM-12+304499999V0203401N0070199999999030000199-01371-02001999999ADDAA106999999AA224999999MA1999999069451MD1210021+0001REMSYN004BUFR
0163527870999992018012700004+37200+102867FM-12+304499999V0203201N008019999999N030000199-01641-02051999999ADDGA1071+017501999GE19AGL   +99999+99999GF107991071999017501999999MA1999999069481MD1210031+9999REMSYN05852787 32780 73208 11164 21205 36948 52003 87/// 333 00156=
0163527870999992018012703004+37200+102870FM-12+304499999V0202901N00701017501C9030000199-01571-01741999999ADDAA106999999AA224999999GA1071+017501101GA2999+999999101GA3999+999999101GE19AGL   +99999+99999GF107991071999017501999999MA1999999069591MD1210111+9999REMSYN004BUFR
0182527870999992018012706004+37200+102867FM-12+304499999V0203401N007019999999N029000199-00991-01551999999ADDGA1051+012501999GE19AGL   +99999+99999GF105991051999012501999999KA1240N-01851MA1999999069441MD1710151+9999REMSYN06452787 32679 53407 11099 21155 36944 57015 85/// 333 00253 21185=
0180527870999992018012709004+37200+102870FM-12+304499999V0200401N00101017501C9030000199-01171-01471999999ADDAJ100009100000099AY101031AY201031GA1081+017501101GA2999+999999101GA3999+999999101GE19AGL   +99999+99999GF108991081999017501999999MA1999999069541MD1210101+0301MW1701REMSYN004BUFR
0214527870999992018012712004+37200+102867FM-12+304499999V0203401N006019999999N030000199-02001-02201999999ADDAA106001031AY171021AY201021GA1081+017501999GE19AGL   +99999+99999GF108991081999017501999999MA1999999069651MD1210111+9999MW1701REMSYN07652787 11780 83406 11200 21220 36965 52011 60011 77070 88/// 333 00359 92501=
0155527870999992018012718004+37200+102867FM-12+304499999V0201601N00401002401WN030000199-01931-02141999999ADDAA106000431GF109991999999999999999999KA1120M-00931MA1999999069741MD1710031+9999REMSYN06452787 12/80 91604 11193 21214 36974 57003 69941 333 00357 11093=
0056527870999992018012721004+37200+102870FM-12+304499999V0202901N0010199999999030000199-02391-02651999999ADDAA124001531MA1999999069731MD1710011+0301REMSYN004BUFR
0203527870999992018012800004+37200+102867FM-12+304499999V0201801N004019999999N030000199-01991-02211999999ADDAA106000131AA224001631GA1071+017501999GE19AGL   +99999+99999GF107991071999017501999999MA1999999069811MD1210081+9999REMSYN07652787 12780 71804 11199 21221 36981 52008 69911 87/// 333 00354 70016 92501=
0141527870999992018012803004+37200+102870FM-12+304499999V0201601N00401017501C9030000199-01771-01961999999ADDGA1071+017501101GA2999+999999101GA3999+999999101GE19AGL   +99999+99999GF107991071999017501999999MA1999999069901MD1210091+9999REMSYN004BUFR
0182527870999992018012806004+37200+102867FM-12+304499999V0201601N006019999999N030000199-01571-01751999999ADDGA1051+012501999GE19AGL   +99999+99999GF105991051999012501999999KA1240N-02441MA1999999069831MD1710071+9999REMSYN06452787 32680 51606 11157 21175 36983 57007 85/// 333 00456 21244=
0163527870999992018012809004+37200+102870FM-12+304499999V0203201N00501017501C9030000199-01871-02081999999ADDAA106999999AA224999999GA1071+017501101GA2999+999999101GA3999+999999101GE19AGL   +99999+99999GF107991071999017501999999MA1999999069861MD1210031+0301REMSYN004BUFR
0214527870999992018012812004+37200+102867FM-12+304499999V0203401N002019999999N030000199-01571-01741999999ADDAA106000231AY171021AY201021GA1071+017501999GE19AGL   +99999+99999GF107991071999017501999999MA1999999070031MD1210171+9999MW1001REMSYN07652787 11780 73402 11157 21174 37003 52017 69921 70070 87/// 333 00404 92501=
0138527870999992018012818004+37200+102867FM-12+304499999V0200701N00101002401WN030000199-01561-01861999999ADDGF109991999999999999999999KA1120M-01421MA1999999069991MD1710071+9999REMSYN05852787 32/80 90701 11156 21186 36999 57007 333 00304 11142=
0067527870999992018012821004+37200+102870FM-12+304499999V0202001N0040199999999030000199-01491-02081999999ADDAA106999999AA224000331MA1999999069791MD1710201+0101REMSYN004BUFR
0186527870999992018012900004+37200+102867FM-12+304499999V0201601N005019999999N030000199-01611-02161999999ADDAA124000231GA1071+017501999GE19AGL   +99999+99999GF107991071999017501999999MA1999999069821MD1210031+9999REMSYN07052787 32780 71605 11161 21216 36982 52003 87/// 333 00004 70002 92501=
0163527870999992018012903004+37200+102870FM-12+304499999V0201601N00701026001C9030000199-01251-01931999999ADDAA106999999AA224999999GA1051+026001101GA2999+999999101GA3999+999999101GE19AGL   +99999+99999GF105991051999026001999999MA1999999069841MD1210021+9999REMSYN004BUFR
0182527870999992018012906004+37200+102867FM-12+304499999V0201401N012012200019N030000199-00871-01921999999ADDGA1021+999999999GE19AGL   +99999+99999GF102991021999999999999999KA1240N-02141MA1999999069621MD1710221+9999REMSYN06452787 32980 21412 11087 21192 36962 57022 82/// 333 05207 21214=
0163527870999992018012909004+37200+102870FM-12+304499999V0202901N00701017501C9030000199-01601-01931999999ADDAA106999999AA224999999GA1071+017501101GA2999+999999101GA3999+999999101GE19AGL   +99999+99999GF107991071999017501999999MA1999999069601MD1710021-0301REMSYN004BUFR
0163527870999992018012912004+37200+102867FM-12+304499999V0203201N008019999999N030000199-02311-02551999999ADDGA1071+017501999GE19AGL   +99999+99999GF107991071999017501999999MA1999999069821MD1210221+9999REMSYN05852787 32780 73208 11231 21255 36982 52022 87/// 333 05257=
0138527870999992018012918004+37200+102867FM-12+304499999V0200201N00701002401WN030000199-01621-02061999999ADDGF109991999999999999999999KA1120M-00791MA1999999069731MD1710151+9999REMSYN05852787 32/80 90207 11162 21206 36973 57015 333 05351 11079=
0067527870999992018012921004+37200+102870FM-12+304499999V0203401N0060199999999030000199-01991-02291999999ADDAA106999999AA224999999MA1999999069651MD1710081-0101REMSYN004BUFR
0195527870999992018013000004+37200+102867FM-12+304499999V0203601N011019999999N030000199-01891-02171999999ADDGA1081+017501999GE19AGL   +99999+99999GF108991081999017501999999MA1999999069721MD1210071+9999OD139901901360REMSYN07652787 32780 83611 11189 21217 36972 52007 88/// 333 05153 91119 91536 92500=
0163527870999992018013003004+37200+102870FM-12+304499999V0203601N01201017501C9030000199-01831-02231999999ADDAA106999999AA224999999GA1071+017501101GA2999+999999101GA3999+999999101GE19AGL   +99999+99999GF107991071999017501999999MA1999999069891MD1210171+9999REMSYN004BUFR
0208527870999992018013006004+37200+102867FM-12+304499999V0203601N010019999999N030000199-01831-02321999999ADDGA1071+017501999GE19AGL   +99999+99999GF107991071999017501999999KA1240N-02351MA1999999069881MD1710011+9999OD139901801360REMSYN07652787 32780 73610 11183 21232 36988 57001 87/// 333 00360 21235 91118 91536=
0163527870999992018013009004+37200+102870FM-12+304499999V0203601N01101017501C9030000199-01951-02461999999ADDAA106999999AA224999999GA1071+017501101GA2999+999999101GA3999+999999101GE19AGL   +99999+99999GF107991071999017501999999MA1999999070051MD1210171+0501REMSYN004BUFR
0214527870999992018013012004+37200+102867FM-12+304499999V0203401N007019999999N030000199-02241-02481999999ADDAA106000021AY101021AY201021GA1071+017501999GE19AGL   +99999+99999GF107991071999017501999999MA1999999070311MD1210261+9999MW1701REMSYN07652787 11780 73407 11224 21248 37031 52026 69901 77000 87/// 333 00501 92500=
0138527870999992018013018004+37200+102867FM-12+304499999V0203201N00301002401WN030000199-01811-02711999999ADDGF109991999999999999999999KA1120M-01581MA1999999070341MD1710101+9999REMSYN05852787 32/80 93203 11181 21271 37034 57010 333 00652 11158=
0067527870999992018013021004+37200+102870FM-12+304499999V0200901N0010199999999030000199-01871-02921999999ADDAA106999999AA224999999MA1999999070121MD1710221+0501REMSYN004BUFR
0159527870999992018013100004+37200+102867FM-12+304499999V0202901N001019999999N030000199-01831-03161999999ADDAA112000021AA224000021GF100995999999999999999999MA1999999070101MD1710021+9999REMSYN07052787 12780 02901 11183 21316 37010 57002 69902 333 00401 79999 92500=
0093527870999992018013103004+37200+102870FM-12+304499999V0203401N0020122000199030000199-01171-02921999999ADDAA106999999AA224999999GF100991999999999999999999MA1999999070171MD1210071+9999REMSYN004BUFR
0138527870999992018013106004+37200+102867FM-12+304499999V0203401N008019999999N030000199-01051-02631999999ADDGF100995999999999999999999KA1240N-02271MA1999999069991MD1710181+9999REMSYN05852787 32980 03408 11105 21263 36999 57018 333 00108 21227=
0163527870999992018013109004+37200+102870FM-12+304499999V0202901N00401026001C9030000199-01121-02111999999ADDAA106999999AA224999999GA1061+026001101GA2999+999999101GA3999+999999101GE19AGL   +99999+99999GF106991061999026001999999MA1999999069941MD1710051-0101REMSYN004BUFR
0163527870999992018013112004+37200+102867FM-12+304499999V0201401N002019999999N030000199-01441-02421999999ADDGA1071+999999999GE19AGL   +99999+99999GF107991071999999999999999MA1999999069971MD1210031+9999REMSYN05852787 32980 71402 11144 21242 36997 52003 87/// 333 05308=
0138527870999992018013118004+37200+102867FM-12+304499999V0203201N00401002401WN030000199-01741-02271999999ADDGF109991999999999999999999KA1120M-00971MA1999999069871MD1710051+9999REMSYN05852787 32/80 93204 11174 21227 36987 57005 333 05501 11097=
0067527870999992018013121004+37200+102870FM-12+304499999V0201401N0010199999999030000199-01791-02531999999ADDAA106999999AA224999999MA1999999069791MD1710081-0301REMSYN004BUFR
0169527870999992018020100004+37200+102867FM-12+304499999V0201601N003012200019N030000199-01901-02511999999ADDGA1011+999999999GE19AGL   +99999+99999GF101991011999999999999999MA1999999069781MD1710011+9999REMSYN06452787 32980 11603 11190 21251 36978 57001 81/// 333 05351 92500=
0093527870999992018020103004+37200+102870FM-12+304499999V0203401N0090122000199030000199-01551-02301999999ADDAA106999999AA224999999GF100991999999999999999999MA1999999069941MD1210161+9999REMSYN004BUFR
0182527870999992018020106004+37200+102867FM-12+304499999V0203601N009012200019N030000199-01101-02281999999ADDGA1011+999999999GE19AGL   +99999+99999GF101991011999999999999999KA1240N-01941MA1999999069941MD1410001+9999REMSYN06452787 32980 13609 11110 21228 36994 54000 81/// 333 05151 21194=
0163527870999992018020109004+37200+102870FM-12+304499999V0203201N01201012501C9030000199-01701-02261999999ADDAA106999999AA224999999GA1071+012501101GA2999+999999101GA3999+999999101GE19AGL   +99999+99999GF107991071999012501999999MA1999999070111MD1210171+0201REMSYN004BUFR
0163527870999992018020112004+37200+102867FM-12+304499999V0203601N009019999999N030000199-02001-02381999999ADDGA1071+017501999GE19AGL   +99999+99999GF107991071999017501999999MA1999999070361MD1210251+9999REMSYN05852787 32780 73609 11200 21238 37036 52025 87/// 333 00456=
0138527870999992018020118004+37200+102867FM-12+304499999V0202901N00301002401WN030000199-02051-02491999999ADDGF109991999999999999999999KA1120M-01081MA1999999070441MD1710041+9999REMSYN05852787 32/80 92903 11205 21249 37044 57004 333 00653 11108=
0067527870999992018020121004+37200+102870FM-12+304499999V0201401N0010199999999030000199-01931-02751999999ADDAA106999999AA224999999MA1999999070411MD1710031+0601REMSYN004BUFR
0163527870999992018020200004+37200+102867FM-12+304499999V0201601N003012200019N030000199-01931-02791999999ADDGA1021+017501999GE19AGL   +99999+99999GF102991021999017501999999MA1999999070421MD1210011+9999REMSYN05852787 32780 21603 11193 21279 37042 52001 82/// 333 00600=
0163527870999992018020203004+37200+102870FM-12+304499999V0202901N0020122000199030000199-01151-02811999999ADDAA106999999AA224999999GA1021+026001101GA2999+999999101GA3999+999999101GE19AGL   +99999+99999GF102991021999026001999999MA1999999070431MD1210011+9999REMSYN004BUFR
0182527870999992018020206004+37200+102867FM-12+304499999V0203201N004019999999N030000199-01021-02271999999ADDGA1071+999999999GE19AGL   +99999+99999GF107991071999999999999999KA1240N-02461MA1999999070241MD1710191+9999REMSYN06452787 32980 73204 11102 21227 37024 57019 87/// 333 00301 21246=
0163527870999992018020209004+37200+102870FM-12+304499999V0203201N00701026001C9030000199-01321-02091999999ADDAA106999999AA224999999GA1071+026001101GA2999+999999101GA3999+999999101GE19AGL   +99999+99999GF107991071999026001999999MA1999999070241MD1410001+0101REMSYN004BUFR
0163527870999992018020212004+37200+102867FM-12+304499999V0201601N003019999999N030000199-01591-02221999999ADDGA1071+999999999GE19AGL   +99999+99999GF107991071999999999999999MA1999999070331MD1210091+9999REMSYN05852787 32980 71603 11159 21222 37033 52009 87/// 333 00004=
0138527870999992018020218004+37200+102867FM-12+304499999V0201401N00201002401WN030000199-01821-02211999999ADDGF109991999999999999999999KA1120M-00941MA1999999070241MD1710081+9999REMSYN05852787 32/80 91402 11182 21221 37024 57008 333 05202 11094=
0067527870999992018020221004+37200+102870FM-12+304499999V0202901N0030199999999030000199-01621-02391999999ADDAA106999999AA224999999MA1999999070101MD1710141-0301REMSYN004BUFR
0119527870999992018020300004+37200+102867FM-12+304499999V0203201N002019999999N030000199-01871-02481999999ADDGF100995999999999999999999MA1999999070111MD1210011+9999REMSYN05252787 32980 03202 11187 21248 37011 52001 333 05301=
0093527870999992018020303004+37200+102870FM-12+304499999V0202701N0020122000199029000199-01171-02431999999ADDAA106999999AA224999999GF100991999999999999999999MA1999999070171MD1210061+9999REMSYN004BUFR
0138527870999992018020306004+37200+102867FM-12+304499999V0203401N008019999999N030000199-00911-02461999999ADDGF100995999999999999999999KA1240N-01991MA1999999070021MD1710151+9999REMSYN05852787 32980 03408 11091 21246 37002 57015 333 05201 21199=
0163527870999992018020309004+37200+102870FM-12+304499999V0203601N00701017501C9030000199-01121-03511999999ADDAA106999999AA224999999GA1051+017501101GA2999+999999101GA3999+999999101GE19AGL   +99999+99999GF105991051999017501999999MA1999999070061MD1210041-0201REMSYN004BUFR
0163527870999992018020312004+37200+102867FM-12+304499999V0201601N004019999999N030000199-01581-02521999999ADDGA1071+017501999GE19AGL   +99999+99999GF107991071999017501999999MA1999999070211MD1210151+9999REMSYN05852787 32780 71604 11158 21252 37021 52015 87/// 333 05100=
0138527870999992018020318004+37200+102867FM-12+304499999V0201401N00401002401WN030000199-01921-02461999999ADDGF109991999999999999999999KA1120M-00851MA1999999070131MD1710081+9999REMSYN05852787 32/80 91404 11192 21246 37013 57008 333 05151 11085=
0067527870999992018020321004+37200+102870FM-12+304499999V0201401N0020199999999030000199-01841-02241999999ADDAA106999999AA224999999MA1999999070021MD1710111-0101REMSYN004BUFR
0163527870999992018020400004+37200+102867FM-12+304499999V0203201N002012200019N030000199-01641-02521999999ADDGA1011+017501999GE19AGL   +99999+99999GF101991011999017501999999MA1999999070071MD1210051+9999REMSYN05852787 32780 13202 11164 21252 37007 52005 81/// 333 00002=
0093527870999992018020403004+37200+102870FM-12+304499999V0203401N0050122000199030000199-01151-02531999999ADDAA106999999AA224999999GF100991999999999999999999MA1999999070201MD1210131+9999REMSYN004BUFR
0182527870999992018020406004+37200+102867FM-12+304499999V0203401N007012200019N030000199-00771-03131999999ADDGA1021+999999999GE19AGL   +99999+99999GF102991021999999999999999KA1240N-02001MA1999999070161MD1710041+9999REMSYN06452787 32980 23407 11077 21313 37016 57004 82/// 333 00101 21200=
0163527870999992018020409004+37200+102870FM-12+304499999V0203201N00901026001C9030000199-01071-02571999999ADDAA106999999AA224999999GA1061+026001101GA2999+999999101GA3999+999999101GE19AGL   +99999+99999GF106991061999026001999999MA1999999070261MD1210101+0201REMSYN004BUFR
0119527870999992018020412004+37200+102867FM-12+304499999V0203601N001019999999N030000199-01561-02921999999ADDGF100995999999999999999999MA1999999070451MD1210191+9999REMSYN05252787 32980 03601 11156 21292 37045 52019 333 00200=
0138527870999992018020418004+37200+102867FM-12+304499999V0201601N00301002401WN030000199-01601-02561999999ADDGF109991999999999999999999KA1120M-00751MA1999999070371MD1710071+9999REMSYN05852787 32/80 91603 11160 21256 37037 57007 333 00203 11075=
0067527870999992018020421004+37200+102870FM-12+304499999V0201401N0010199999999030000199-01401-02441999999ADDAA106999999AA224999999MA1999999070261MD1710111+0201REMSYN004BUFR
0119527870999992018020500004+37200+102867FM-12+304499999V0202901N004019999999N030000199-01601-02641999999ADDGF100995999999999999999999MA1999999070191MD1710071+9999REMSYN05252787 32980 02904 11160 21264 37019 57007 333 00100=
0093527870999992018020503004+37200+102870FM-12+304499999V0203601N0050122000199030000199-00691-02611999999ADDAA106999999AA224999999GF100991999999999999999999MA1999999070271MD1210081+9999REMSYN004BUFR
0138527870999992018020506004+37200+102867FM-12+304499999V0200201N010019999999N029000199-00591-02841999999ADDGF100995999999999999999999KA1240N-01671MA1999999070141MD1710131+9999REMSYN05852787 32679 00210 11059 21284 37014 57013 333 00002 21167=
0163527870999992018020509004+37200+102870FM-12+304499999V0200201N0070122000199029000199-00751-02901999999ADDAA106999999AA224999999GA1021+026001101GA2999+999999101GA3999+999999101GE19AGL   +99999+99999GF102991021999026001999999MA1999999070171MD1210031-0101REMSYN004BUFR
0119527870999992018020512004+37200+102867FM-12+304499999V0203401N005019999999N030000199-01491-02931999999ADDGF100995999999999999999999MA1999999070281MD1210111+9999REMSYN05252787 32980 03405 11149 21293 37028 52011 333 05201=
0138527870999992018020518004+37200+102867FM-12+304499999V0201601N00101002401WN030000199-01381-03141999999ADDGF109991999999999999999999KA1120M-00491MA1999999070131MD1710101+9999REMSYN05852787 32/80 91601 11138 21314 37013 57010 333 05202 11049=
0067527870999992018020521004+37200+102870FM-12+304499999V0201601N0020199999999030000199-01471-03081999999ADDAA106999999AA224999999MA1999999069981MD1710151-0301REMSYN004BUFR
0163527870999992018020600004+37200+102867FM-12+304499999V0203201N005012200019N030000199-01691-02811999999ADDGA1021+017501999GE19AGL   +99999+99999GF102991021999017501999999MA1999999069981MD1410001+9999REMSYN05852787 32780 23205 11169 21281 36998 54000 82/// 333 05251=
0093527870999992018020603004+37200+102870FM-12+304499999V0203401N0020122000199029000199-00901-02641999999ADDAA106999999AA224999999GF100991999999999999999999MA1999999070041MD1210061+9999REMSYN004BUFR
0182527870999992018020606004+37200+102867FM-12+304499999V0200201N008012200019N030000199-00591-02701999999ADDGA1021+999999999GE19AGL   +99999+99999GF102991021999999999999999KA1240N-01741MA1999999069861MD1710181+9999REMSYN06452787 32980 20208 11059 21270 36986 57018 82/// 333 05300 21174=
0163527870999992018020609004+37200+102870FM-12+304499999V0203401N00901026001C9029000199-00841-02321999999ADDAA106999999AA224999999GA1061+026001101GA2999+999999101GA3999+999999101GE19AGL   +99999+99999GF106991061999026001999999MA1999999069921MD1210061-0301REMSYN004BUFR
0163527870999992018020612004+37200+102867FM-12+304499999V0203201N004019999999N030000199-01431-02361999999ADDGA1071+017501999GE19AGL   +99999+99999GF107991071999017501999999MA1999999070071MD1210151+9999REMSYN05852787 32780 73204 11143 21236 37007 52015 87/// 333 05201=
0138527870999992018020618004+37200+102867FM-12+304499999V0201601N00301002401WN030000199-01491-02491999999ADDGF109991999999999999999999KA1120M-00561MA1999999070031MD1710021+9999REMSYN05852787 32/80 91603 11149 21249 37003 57002 333 05151 11056=
0067527870999992018020621004+37200+102870FM-12+304499999V0201601N0030199999999030000199-01591-02751999999ADDAA106999999AA224999999MA1999999069921MD1710111-0101REMSYN004BUFR
0163527870999992018020700004+37200+102867FM-12+304499999V0203401N003019999999N030000199-01291-03221999999ADDGA1071+017501999GE19AGL   +99999+99999GF107991071999017501999999MA1999999069961MD1210041+9999REMSYN05852787 32780 73403 11129 21322 36996 52004 87/// 333 00004=
0163527870999992018020703004+37200+102870FM-12+304499999V0203601N0030122000199029000199-00421-03031999999ADDAA106999999AA224999999GA1021+026001101GA2999+999999101GA3999+999999101GE19AGL   +99999+99999GF102991021999026001999999MA1999999070041MD1210081+9999REMSYN004BUFR
0182527870999992018020706004+37200+102867FM-12+304499999V0201401N002019999999N030000199-00231-02981999999ADDGA1061+999999999GE19AGL   +99999+99999GF106991061999999999999999KA1240N-01661MA1999999069901MD1710141+9999REMSYN06452787 32980 61402 11023 21298 36990 57014 86/// 333 00004 21166=
0163527870999992018020709004+37200+102870FM-12+304499999V0201601N00801026001C9028000199-00441-02581999999ADDAA106999999AA224999999GA1071+026001101GA2999+999999101GA3999+999999101GE19AGL   +99999+99999GF107991071999026001999999MA1999999069781MD1710121-0101REMSYN004BUFR
0163527870999992018020712004+37200+102867FM-12+304499999V0201801N009019999999N030000199-01051-02231999999ADDGA1071+999999999GE19AGL   +99999+99999GF107991071999999999999999MA1999999069761MD1710021+9999REMSYN05852787 32980 71809 11105 21223 36976 57002 87/// 333 05304=
0138527870999992018020718004+37200+102867FM-12+304499999V0201601N00301002401WN030000199-00931-02521999999ADDGF109991999999999999999999KA1120M-00191MA1999999069381MD1710321+9999REMSYN05852787 32/80 91603 11093 21252 36938 57032 333 05706 11019=
0067527870999992018020721004+37200+102870FM-12+304499999V0203201N0040199999999030000199-01991-02371999999ADDAA106999999AA224999999MA1999999069241MD1710141-0701REMSYN004BUFR
0189527870999992018020800004+37200+102867FM-12+304499999V0200401N013012200019N030000199-01081-02421999999ADDGA1011+999999999GE19AGL   +99999+99999GF101991011999999999999999MA1999999069301MD1210061+9999OD139901801040REMSYN07052787 32980 10413 11108 21242 36930 52006 81/// 333 05702 91118 91504=
0163527870999992018020803004+37200+102870FM-12+304499999V0203601N01101026001C9030000199-00701-02681999999ADDAA106999999AA224999999GA1071+026001101GA2999+999999101GA3999+999999101GE19AGL   +99999+99999GF107991071999026001999999MA1999999069341MD1210041+9999REMSYN004BUFR
0182527870999992018020806004+37200+102867FM-12+304499999V0203601N010019999999N030000199-00751-02661999999ADDGA1071+999999999GE19AGL   +99999+99999GF107991071999999999999999KA1240N-02011MA1999999069331MD1710011+9999REMSYN06452787 32980 73610 11075 21266 36933 57001 87/// 333 05655 21201=
0163527870999992018020809004+37200+102870FM-12+304499999V0203601N01001026001C9030000199-01001-02351999999ADDAA106999999AA224999999GA1071+026001101GA2999+999999101GA3999+999999101GE19AGL   +99999+99999GF107991071999026001999999MA1999999069351MD1210021-0401REMSYN004BUFR
0189527870999992018020812004+37200+102867FM-12+304499999V0203601N008019999999N030000199-01291-02201999999ADDGA1071+017501999GE19AGL   +99999+99999GF107991071999017501999999MA1999999069491MD1210141+9999OD139901801360REMSYN07052787 32780 73608 11129 21220 36949 52014 87/// 333 05352 91118 91536=
0138527870999992018020818004+37200+102867FM-12+304499999V0203601N00301002401WN030000199-01901-02271999999ADDGF109991999999999999999999KA1120M-00651MA1999999069571MD1210021+9999REMSYN05852787 32/80 93603 11190 21227 36957 52002 333 00260 11065=
0056527870999992018020821004+37200+102870FM-12+304499999V0203201N0080199999999019000199-02001-02231999999ADDAA124000131MA1999999069531MD1710041+0301REMSYN004BUFR
0197527870999992018020900004+37200+102867FM-12+304499999V0200201N006019999999N030000199-01751-02291999999ADDAA106000131AA224000131GA1071+017501999GE19AGL   +99999+99999GF107991071999017501999999MA1999999069521MD1710011+9999REMSYN07052787 12780 70206 11175 21229 36952 57001 69911 87/// 333 00257 70001=
0185527870999992018020903004+37200+102870FM-12+304499999V0203401N00501017501C9014000199-01621-01911999999ADDAA106999999AA224999999AY171031AY201031GA1071+017501101GA2999+999999101GA3999+999999101GE19AGL   +99999+99999GF107991071999017501999999MA1999999069661MD1210141+9999MW1701REMSYN004BUFR
0233527870999992018020906004+37200+102867FM-12+304499999V0203401N009019999999N030000199-01721-01991999999ADDAA106000531AY171021AY201021GA1071+017501999GE19AGL   +99999+99999GF107991071999017501999999KA1240N-02081MA1999999069561MD1710101+9999MW1701REMSYN08252787 11780 73409 11172 21199 36956 57010 69951 77070 87/// 333 00260 21208 92500=
0180527870999992018020909004+37200+102870FM-12+304499999V0203601N01101017501C9030000199-01921-02211999999ADDAJ100019100010099AY171031AY271031GA1081+017501101GA2999+999999101GA3999+999999101GE19AGL   +99999+99999GF108991081999017501999999MA1999999069701MD1210141+0401MW1701REMSYN004BUFR
0214527870999992018020912004+37200+102867FM-12+304499999V0203601N009019999999N030000199-02001-02381999999ADDAA106001031AY171021AY271021GA1081+017501999GE19AGL   +99999+99999GF108991081999017501999999MA1999999069891MD1210191+9999MW1701REMSYN07652787 11780 83609 11200 21238 36989 52019 60011 77077 88/// 333 00457 92501=
0155527870999992018020918004+37200+102867FM-12+304499999V0200201N00801002401WN030000199-02111-02521999999ADDAA106000131GF109991999999999999999999KA1120M-01621MA1999999070041MD1210031+9999REMSYN06452787 12/80 90208 11211 21252 37004 52003 69911 333 00552 11162=
0067527870999992018020921004+37200+102870FM-12+304499999V0203401N0040199999999030000199-02241-02661999999ADDAA106999999AA224001831MA1999999070001MD1710041+0501REMSYN004BUFR
0203527870999992018021000004+37200+102867FM-12+304499999V0209999C999992200019N030000199-02461-02721999999ADDAA112000131AA224001831GA1021+017501999GE19AGL   +99999+99999GF102991021999017501999999MA1999999070001MD1410001+9999REMSYN07652787 12780 20000 11246 21272 37000 54000 69912 82/// 333 00557 70018 92501=
0093527870999992018021003004+37200+102870FM-12+304499999V0201601N0030122000199030000199-01901-02331999999ADDAA106999999AA224999999GF100991999999999999999999MA1999999070091MD1210091+9999REMSYN004BUFR
0182527870999992018021006004+37200+102867FM-12+304499999V0203401N003012200019N030000199-01561-02251999999ADDGA1011+012501999GE19AGL   +99999+99999GF101991011999012501999999KA1240N-02491MA1999999069951MD1710141+9999REMSYN06452787 32680 13403 11156 21225 36995 57014 81/// 333 00402 21249=
0163527870999992018021009004+37200+102870FM-12+304499999V0200201N00801017501C9030000199-01471-02181999999ADDAA106999999AA224999999GA1071+017501101GA2999+999999101GA3999+999999101GE19AGL   +99999+99999GF107991071999017501999999MA1999999069961MD1210011+0301REMSYN004BUFR
0163527870999992018021012004+37200+102867FM-12+304499999V0203401N005019999999N030000199-01931-02271999999ADDGA1071+017501999GE19AGL   +99999+99999GF107991071999017501999999MA1999999070061MD1210101+9999REMSYN05852787 32780 73405 11193 21227 37006 52010 87/// 333 00201=
0138527870999992018021018004+37200+102867FM-12+304499999V0203201N00401002401WN030000199-01821-02511999999ADDGF109991999999999999999999KA1120M-01281MA1999999070141MD1710021+9999REMSYN05852787 32/80 93204 11182 21251 37014 57002 333 00103 11128=
0067527870999992018021021004+37200+102870FM-12+304499999V0200201N0070199999999030000199-01521-02721999999ADDAA106999999AA224999999MA1999999070091MD1710051+0101REMSYN004BUFR
0169527870999992018021100004+37200+102867FM-12+304499999V0202901N001012200019N030000199-01721-02811999999ADDGA1011+017501999GE19AGL   +99999+99999GF101991011999017501999999MA1999999070171MD1210081+9999REMSYN06452787 32780 12901 11172 21281 37017 52008 81/// 333 00207 92501=
0093527870999992018021103004+37200+102870FM-12+304499999V0200201N0060122000199030000199-01101-02631999999ADDAA106999999AA224999999GF100991999999999999999999MA1999999070281MD1210111+9999REMSYN004BUFR
0138527870999992018021106004+37200+102867FM-12+304499999V0200201N009019999999N030000199-01011-02291999999ADDGF100995999999999999999999KA1240N-02051MA1999999070221MD1710061+9999REMSYN05852787 32680 00209 11101 21229 37022 57006 333 00306 21205=
0093527870999992018021109004+37200+102870FM-12+304499999V0203601N0120122000199030000199-01021-02201999999ADDAA106999999AA224999999GF100991999999999999999999MA1999999070271MD1210051+0301REMSYN004BUFR
0119527870999992018021112004+37200+102867FM-12+304499999V0203201N005019999999N030000199-01741-02301999999ADDGF100995999999999999999999MA1999999070461MD1210191+9999REMSYN05252787 32980 03205 11174 21230 37046 52019 333 00402=
0138527870999992018021118004+37200+102867FM-12+304499999V0201401N00201002401WN030000199-01501-02551999999ADDGF109991999999999999999999KA1120M-00921MA1999999070531MD1410001+9999REMSYN05852787 32/80 91402 11150 21255 37053 54000 333 00403 11092=
0067527870999992018021121004+37200+102870FM-12+304499999V0201101N0020199999999030000199-01501-02591999999ADDAA106999999AA224999999MA1999999070401MD1710131+0301REMSYN004BUFR
0125527870999992018021200004+37200+102867FM-12+304499999V0201601N002019999999N030000199-01261-03041999999ADDGF100995999999999999999999MA1999999070361MD1710041+9999REMSYN05852787 32980 01602 11126 21304 37036 57004 333 00205 92500=
0093527870999992018021203004+37200+102870FM-12+304499999V0201601N0030122000199030000199-00571-02451999999ADDAA106999999AA224999999GF100991999999999999999999MA1999999070401MD1210041+9999REMSYN004BUFR
0138527870999992018021206004+37200+102867FM-12+304499999V0202201N003019999999N028000199-00131-02701999999ADDGF100995999999999999999999KA1240N-01791MA1999999070241MD1710161+9999REMSYN05852787 32978 02203 11013 21270 37024 57016 333 00009 21179=
0163527870999992018021209004+37200+102870FM-12+304499999V0201601N00501026001C9029000199-00141-02471999999ADDAA106999999AA224999999GA1051+026001101GA2999+999999101GA3999+999999101GE19AGL   +99999+99999GF105991051999026001999999MA1999999070171MD1710071-0101REMSYN004BUFR
0163527870999992018021212004+37200+102867FM-12+304499999V0201601N003019999999N030000199-00781-02161999999ADDGA1071+017501999GE19AGL   +99999+99999GF107991071999017501999999MA1999999070201MD1210031+9999REMSYN05852787 32780 71603 11078 21216 37020 52003 87/// 333 05310=
0138527870999992018021218004+37200+102867FM-12+304499999V0201401N00301002401WN030000199-00971-02431999999ADDGF109991999999999999999999KA1120M-00021MA1999999070001MD1710151+9999REMSYN05852787 32/80 91403 11097 21243 37000 57015 333 05505 11002=
0067527870999992018021221004+37200+102870FM-12+304499999V0203201N0040199999999030000199-00801-02871999999ADDAA106999999AA224999999MA1999999069951MD1710051-0501REMSYN004BUFR
0169527870999992018021300004+37200+102867FM-12+304499999V0203401N008012200019N029000199-00461-03271999999ADDGA1021+017501999GE19AGL   +99999+99999GF102991021999017501999999MA1999999069961MD1210011+9999REMSYN06452787 32779 23408 11046 21327 36996 52001 82/// 333 05408 92500=
0163527870999992018021303004+37200+102870FM-12+304499999V0203601N0020122000199027000199+00101-02971999999ADDAA106999999AA224999999GA1021+026001101GA2999+999999101GA3999+999999101GE19AGL   +99999+99999GF102991021999026001999999MA1999999070001MD1210041+9999REMSYN004BUFR
0182527870999992018021306004+37200+102867FM-12+304499999V0201401N008019999999N026000199+00341-03091999999ADDGA1071+999999999GE19AGL   +99999+99999GF107991071999999999999999KA1240N-01131MA1999999069781MD1710221+9999REMSYN06452787 32976 71408 10034 21309 36978 57022 87/// 333 05505 21113=
0163527870999992018021309004+37200+102870FM-12+304499999V0201601N00801017501C9026000199+00201-02761999999ADDAA106999999AA224999999GA1071+017501101GA2999+999999101GA3999+999999101GE19AGL   +99999+99999GF107991071999017501999999MA1999999069641MD1710141-0501REMSYN004BUFR
0163527870999992018021312004+37200+102867FM-12+304499999V0201401N004012200019N029000199-00461-02361999999ADDGA1041+017501999GE19AGL   +99999+99999GF104991041999017501999999MA1999999069691MD1210051+9999REMSYN05852787 32779 41404 11046 21236 36969 52005 84/// 333 05503=
0138527870999992018021318004+37200+102867FM-12+304499999V0203201N00301002401WN029000199-00431-02231999999ADDGF109991999999999999999999KA1120M+00411MA1999999069621MD1710011+9999REMSYN05852787 32/79 93203 11043 21223 36962 57001 333 05405 10041=
0067527870999992018021321004+37200+102870FM-12+304499999V0203401N0130199999999030000199-00951-02431999999ADDAA106999999AA224999999MA1999999069571MD1710051-0401REMSYN004BUFR
0163527870999992018021400004+37200+102867FM-12+304499999V0203401N011012200019N030000199-01311-02251999999ADDGA1021+999999999GE19AGL   +99999+99999GF102991021999999999999999MA1999999069651MD1210081+9999REMSYN05852787 32980 23411 11131 21225 36965 52008 82/// 333 05359=
0163527870999992018021403004+37200+102870FM-12+304499999V0203601N00701026001C9029000199-00521-02271999999ADDAA106999999AA224999999GA1071+026001101GA2999+999999101GA3999+999999101GE19AGL   +99999+99999GF107991071999026001999999MA1999999069781MD1210131+9999REMSYN004BUFR
0182527870999992018021406004+37200+102867FM-12+304499999V0200201N008019999999N029000199-00271-02201999999ADDGA1071+999999999GE19AGL   +99999+99999GF107991071999999999999999KA1240N-01351MA1999999069701MD1710081+9999REMSYN06452787 32979 70208 11027 21220 36970 57008 87/// 333 05156 21135=
0163527870999992018021409004+37200+102870FM-12+304499999V0203201N00801017501C9029000199-00621-01911999999ADDAA106999999AA224999999GA1071+017501101GA2999+999999101GA3999+999999101GE19AGL   +99999+99999GF107991071999017501999999MA1999999069791MD1210091+0201REMSYN004BUFR
0163527870999992018021412004+37200+102867FM-12+304499999V0201101N001019999999N030000199-00721-01931999999ADDGA1071+017501999GE19AGL   +99999+99999GF107991071999017501999999MA1999999069951MD1210161+9999REMSYN05852787 32780 71101 11072 21193 36995 52016 87/// 333 00353=
0138527870999992018021418004+37200+102867FM-12+304499999V0201601N00101002401WN030000199-00641-02001999999ADDGF109991999999999999999999KA1120M-00081MA1999999070011MD1710051+9999REMSYN05852787 32/80 91601 11064 21200 37001 57005 333 00452 11008=
0067527870999992018021421004+37200+102870FM-12+304499999V0201401N0020199999999030000199-00971-02011999999ADDAA106999999AA224999999MA1999999069931MD1710081+0401REMSYN004BUFR
0163527870999992018021500004+37200+102867FM-12+304499999V0201601N002012200019N030000199-00921-02001999999ADDGA1021+017501999GE19AGL   +99999+99999GF102991021999017501999999MA1999999069901MD1710031+9999REMSYN05852787 32780 21602 11092 21200 36990 57003 82/// 333 00304=
0093527870999992018021503004+37200+102870FM-12+304499999V0201801N0030122000199027000199-00091-01891999999ADDAA106999999AA224999999GF100991999999999999999999MA1999999069851MD1710051+9999REMSYN004BUFR
0182527870999992018021506004+37200+102867FM-12+304499999V0203601N008019999999N025000199+00081-01851999999ADDGA1071+012501999GE19AGL   +99999+99999GF107991071999012501999999KA1240N-01021MA1999999069711MD1710141+9999REMSYN06452787 32675 73608 10008 21185 36971 57014 87/// 333 00004 21102=
0163527870999992018021509004+37200+102870FM-12+304499999V0203601N01401012501C9029000199-00471-01781999999ADDAA106999999AA224999999GA1071+012501101GA2999+999999101GA3999+999999101GE19AGL   +99999+99999GF107991071999012501999999MA1999999069821MD1210111+0001REMSYN004BUFR
0189527870999992018021512004+37200+102867FM-12+304499999V0203201N007019999999N030000199-00991-01801999999ADDGA1051+017501999GE19AGL   +99999+99999GF105991051999017501999999MA1999999069991MD1210171+9999OD139901901360REMSYN07052787 32780 53207 11099 21180 36999 52017 85/// 333 00053 91119 91536=
0138527870999992018021518004+37200+102867FM-12+304499999V0201401N00101002401WN030000199-00791-01821999999ADDGF109991999999999999999999KA1120M+00331MA1999999070011MD1710031+9999REMSYN05852787 32/80 91401 11079 21182 37001 57003 333 00052 10033=
0067527870999992018021521004+37200+102870FM-12+304499999V0202901N0010199999999030000199-00741-01781999999ADDAA106999999AA224999999MA1999999070011MD1410001+0101REMSYN004BUFR
0163527870999992018021600004+37200+102867FM-12+304499999V0201601N003012200019N030000199-00801-01831999999ADDGA1031+017501999GE19AGL   +99999+99999GF103991031999017501999999MA1999999069971MD1710041+9999REMSYN05852787 32780 31603 11080 21183 36997 57004 83/// 333 00101=
0163527870999992018021603004+37200+102870FM-12+304499999V0201601N00601026001C9028000199+00001-01771999999ADDAA106999999AA224999999GA1051+026001101GA2999+999999101GA3999+999999101GE19AGL   +99999+99999GF105991051999026001999999MA1999999070041MD1210071+9999REMSYN004BUFR
0182527870999992018021606004+37200+102867FM-12+304499999V0201601N003019999999N022000199+00521-01851999999ADDGA1071+999999999GE19AGL   +99999+99999GF107991071999999999999999KA1240N-01091MA1999999069851MD1710191+9999REMSYN06452787 32972 71603 10052 21185 36985 57019 87/// 333 00104 21109=
0163527870999992018021609004+37200+102870FM-12+304499999V0200201N00601026001C9026000199+00211-01631999999ADDAA106999999AA224999999GA1071+026001101GA2999+999999101GA3999+999999101GE19AGL   +99999+99999GF107991071999026001999999MA1999999069801MD1710051+0001REMSYN004BUFR
0163527870999992018021612004+37200+102867FM-12+304499999V0200201N009019999999N029000199-00571-01831999999ADDGA1071+017501999GE19AGL   +99999+99999GF107991071999017501999999MA1999999069951MD1210151+9999REMSYN05852787 32779 70209 11057 21183 36995 52015 87/// 333 00004=
0138527870999992018021618004+37200+102867FM-12+304499999V0203601N01101002401WN030000199-01011-01801999999ADDGF109991999999999999999999KA1120M+00591MA1999999069931MD1710121+9999REMSYN05852787 32/80 93611 11101 21180 36993 57012 333 05152 10059=
0067527870999992018021621004+37200+102870FM-12+304499999V0203601N0110199999999030000199-01191-01581999999ADDAA106999999AA224999999MA1999999069901MD1710031-0101REMSYN004BUFR
0215527870999992018021700004+37200+102867FM-12+304499999V0203601N009019999999N030000199-01291-01601999999ADDAA112000021AA224000021GA1081+017501999GE19AGL   +99999+99999GF108991081999017501999999MA1999999070001MD1210101+9999MW1701REMSYN08252787 11780 83609 11129 21160 37000 52010 69902 770// 88/// 333 00055 79999 92500=
0180527870999992018021703004+37200+102870FM-12+304499999V0203201N01001017501C9030000199-01151-01281999999ADDAJ100009100000099AY171031AY201031GA1071+017501101GA2999+999999101GA3999+999999101GE19AGL   +99999+99999GF107991071999017501999999MA1999999070071MD1210071+9999MW1001REMSYN004BUFR
0227527870999992018021706004+37200+102867FM-12+304499999V0200201N007019999999N030000199-00741-01371999999ADDAA106000131AY171021AY201021GA1071+012501999GE19AGL   +99999+99999GF107991071999012501999999KA1240N-01311MA1999999069931MD1710141+9999MW1001REMSYN07652787 11680 70207 11074 21137 36993 57014 69911 70070 87/// 333 00163 21131=
0185527870999992018021709004+37200+102870FM-12+304499999V0203601N00901017501C9030000199-00991-01211999999ADDAA106999999AA224999999AY101031AY201031GA1071+017501101GA2999+999999101GA3999+999999101GE19AGL   +99999+99999GF107991071999017501999999MA1999999069901MD1710031+0101MW1701REMSYN004BUFR
0214527870999992018021712004+37200+102867FM-12+304499999V0203401N006019999999N030000199-01171-01321999999ADDAA106000021AY171021AY201021GA1081+017501999GE19AGL   +99999+99999GF108991081999017501999999MA1999999070131MD1210231+9999MW1221REMSYN07652787 11780 83406 11117 21132 37013 52023 69901 72270 88/// 333 00256 92500=
0155527870999992018021718004+37200+102867FM-12+304499999V0201401N00201002401WN030000199-01381-01601999999ADDAA106000131GF109991999999999999999999KA1120M-00671MA1999999070121MD1710051+9999REMSYN06452787 12/80 91402 11138 21160 37012 57005 69911 333 00254 11067=
0067527870999992018021721004+37200+102870FM-12+304499999V0201401N0020199999999030000199-01321-01571999999ADDAA106999999AA224000231MA1999999070001MD1710121+0101REMSYN004BUFR
0203527870999992018021800004+37200+102867FM-12+304499999V0202901N002019999999N030000199-01171-01561999999ADDAA112000131AA224000231GA1071+017501999GE19AGL   +99999+99999GF107991071999017501999999MA1999999070001MD1410001+9999REMSYN07652787 12780 72902 11117 21156 37000 54000 69912 87/// 333 00001 70002 92500=
0163527870999992018021803004+37200+102870FM-12+304499999V0201601N00701026001C9028000199-00771-01351999999ADDAA106999999AA224999999GA1071+026001101GA2999+999999101GA3999+999999101GE19AGL   +99999+99999GF107991071999026001999999MA1999999069971MD1710031+9999REMSYN004BUFR
0182527870999992018021806004+37200+102867FM-12+304499999V0201601N007019999999N030000199-00681-01221999999ADDGA1071+017501999GE19AGL   +99999+99999GF107991071999017501999999KA1240N-01401MA1999999069811MD1710161+9999REMSYN06452787 32780 71607 11068 21122 36981 57016 87/// 333 05101 21140=
0163527870999992018021809004+37200+102870FM-12+304499999V0201601N00101017501C9030000199-00721-01341999999ADDAA106999999AA224999999GA1071+017501101GA2999+999999101GA3999+999999101GE19AGL   +99999+99999GF107991071999017501999999MA1999999069861MD1210051+0001REMSYN004BUFR
0163527870999992018021812004+37200+102867FM-12+304499999V0202901N004019999999N030000199-01041-01561999999ADDGA1081+017501999GE19AGL   +99999+99999GF108991081999017501999999MA1999999070051MD1210191+9999REMSYN05852787 32780 82904 11104 21156 37005 52019 88/// 333 05101=
0138527870999992018021818004+37200+102867FM-12+304499999V0201601N00601002401WN030000199-01151-01221999999ADDGF109991999999999999999999KA1120M-00661MA1999999069941MD1710191+9999REMSYN05852787 32/80 91606 11115 21122 36994 57019 333 05202 11066=
0067527870999992018021821004+37200+102870FM-12+304499999V0201401N0040199999999015000199-01171-01291999999ADDAA106999999AA224999999MA1999999069841MD1710101-0201REMSYN004BUFR
0244527870999992018021900004+37200+102867FM-12+304499999V0201601N003019999999N009000199-01251-01371999999ADDAA112000091AA224000091GA1071+017501999GE19AGL   +99999+99999GF107991071999017501999999MA1999999069761MD1710081+9999REMSYN08252787 12759 71603 11125 21137 36976 57008 69902 87/// 333 05251 79999 92500 93431=EQDQ01  00002PRCP12Q02  00002PRCP24
0163527870999992018021903004+37200+102870FM-12+304499999V0203201N00401012501C9026000199-01201-01321999999ADDAA106999999AA224999999GA1051+012501101GA2999+999999101GA3999+999999101GE19AGL   +99999+99999GF105991051999012501999999MA1999999069811MD1210051+9999REMSYN004BUFR
0182527870999992018021906004+37200+102867FM-12+304499999V0203201N010019999999N030000199-00761-01391999999ADDGA1071+012501999GE19AGL   +99999+99999GF107991071999012501999999KA1240N-01291MA1999999069721MD1710091+9999REMSYN06452787 32680 73210 11076 21139 36972 57009 87/// 333 05151 21129=
0163527870999992018021909004+37200+102870FM-12+304499999V0200201N01201012501C9030000199-01001-01631999999ADDAA106999999AA224999999GA1071+012501101GA2999+999999101GA3999+999999101GE19AGL   +99999+99999GF107991071999012501999999MA1999999069821MD1210101+0001REMSYN004BUFR
0163527870999992018021912004+37200+102867FM-12+304499999V0203601N008019999999N030000199-01091-01471999999ADDGA1071+017501999GE19AGL   +99999+99999GF107991071999017501999999MA1999999070051MD1210231+9999REMSYN05852787 32780 73608 11109 21147 37005 52023 87/// 333 00051=
0138527870999992018021918004+37200+102867FM-12+304499999V0203201N00201002401WN030000199-01281-01481999999ADDGF109991999999999999999999KA1120M-00541MA1999999069951MD1710021+9999REMSYN05852787 32/80 93202 11128 21148 36995 57002 333 00051 11054=
0056527870999992018021921004+37200+102870FM-12+304499999V0203201N0040199999999030000199-01271-01401999999ADDAA124000231MA1999999069871MD1710081+0001REMSYN004BUFR
0215527870999992018022000004+37200+102867FM-12+304499999V0203201N004019999999N999999999-01431-01591999999ADDAA106000931AA224000931GA1081+017501999GE19AGL   +99999+99999GF108991081999017501999999MA1999999069911MD1210041+9999MW1701REMSYN08252787 11755 83204 11143 21159 36991 52004 69991 770// 88/// 333 00252 70009 92501=
0180527870999992018022003004+37200+102870FM-12+304499999V0203201N00701017501C9030000199-01401-01551999999ADDAJ100019100010099AY171031AY201031GA1071+017501101GA2999+999999101GA3999+999999101GE19AGL   +99999+99999GF107991071999017501999999MA1999999069971MD1210061+9999MW1001REMSYN004BUFR
0233527870999992018022006004+37200+102867FM-12+304499999V0203601N010019999999N030000199-01321-01571999999ADDAA106000931AY171021AY201021GA1071+017501999GE19AGL   +99999+99999GF107991071999017501999999KA1240N-01541MA1999999069911MD1710061+9999MW1701REMSYN08252787 11780 73610 11132 21157 36991 57006 69991 77070 87/// 333 00256 21154 92501=
0180527870999992018022009004+37200+102870FM-12+304499999V0203601N00901017501C9030000199-01421-01691999999ADDAJ100029100020099AY171031AY271031GA1081+017501101GA2999+999999101GA3999+999999101GE19AGL   +99999+99999GF108991081999017501999999MA1999999070021MD1210111+0201MW1701REMSYN004BUFR
0214527870999992018022012004+37200+102867FM-12+304499999V0203601N008019999999N030000199-01521-01791999999ADDAA106001031AY171021AY271021GA1081+017501999GE19AGL   +99999+99999GF108991081999017501999999MA1999999070191MD1210171+9999MW1701REMSYN07652787 11780 83608 11152 21179 37019 52017 60011 77077 88/// 333 00154 92502=
0155527870999992018022018004+37200+102867FM-12+304499999V0203601N00301002401WN030000199-01521-01791999999ADDAA106000531GF109991999999999999999999KA1120M-01261MA1999999070171MD1710081+9999REMSYN06452787 12/80 93603 11152 21179 37017 57008 69951 333 00252 11126=
0056527870999992018022021004+37200+102870FM-12+304499999V0201401N0020199999999030000199-01751-02001999999ADDAA124003431MA1999999070031MD1710141+0201REMSYN004BUFR
0203527870999992018022100004+37200+102867FM-12+304499999V0201601N002012200019N030000199-01791-02071999999ADDAA106000331AA224002731GA1021+017501999GE19AGL   +99999+99999GF102991021999017501999999MA1999999070011MD1710021+9999REMSYN07652787 12780 21602 11179 21207 37001 57002 69931 82/// 333 00154 70027 92503=
0093527870999992018022103004+37200+102870FM-12+304499999V0201601N0010122000199030000199-01251-01831999999ADDAA106999999AA224999999GF100991999999999999999999MA1999999070091MD1210081+9999REMSYN004BUFR
0182527870999992018022106004+37200+102867FM-12+304499999V0203401N008012200019N030000199-01211-02181999999ADDGA1011+012501999GE19AGL   +99999+99999GF101991011999012501999999KA1240N-01861MA1999999069981MD1710111+9999REMSYN06452787 32680 13408 11121 21218 36998 57011 81/// 333 00101 21186=
0163527870999992018022109004+37200+102870FM-12+304499999V0203601N00801012501C9030000199-01251-02151999999ADDAA106999999AA224999999GA1051+012501101GA2999+999999101GA3999+999999101GE19AGL   +99999+99999GF105991051999012501999999MA1999999070011MD1210031+0001REMSYN004BUFR
0163527870999992018022112004+37200+102867FM-12+304499999V0203201N003012200019N030000199-01581-02061999999ADDGA1041+017501999GE19AGL   +99999+99999GF104991041999017501999999MA1999999070151MD1210141+9999REMSYN05852787 32780 43203 11158 21206 37015 52014 84/// 333 00051=
0138527870999992018022118004+37200+102867FM-12+304499999V0201601N00201002401WN030000199-01621-02081999999ADDGF109991999999999999999999KA1120M-01041MA1999999070091MD1710101+9999REMSYN05852787 32/80 91602 11162 21208 37009 57010 333 05151 11104=
0067527870999992018022121004+37200+102870FM-12+304499999V0203201N0030199999999030000199-01301-02701999999ADDAA106999999AA224999999MA1999999069991MD1710101+0001REMSYN004BUFR
0169527870999992018022200004+37200+102867FM-12+304499999V0203601N006012200019N030000199-01001-02811999999ADDGA1021+017501999GE19AGL   +99999+99999GF102991021999017501999999MA1999999069981MD1710011+9999REMSYN06452787 32780 23606 11100 21281 36998 57001 82/// 333 00008 92502=
0093527870999992018022203004+37200+102870FM-12+304499999V0202901N0070122000199029000199-00551-02431999999ADDAA106999999AA224999999GF100991999999999999999999MA1999999070051MD1210071+9999REMSYN004BUFR
0138527870999992018022206004+37200+102867FM-12+304499999V0202901N006019999999N029000199-00241-01921999999ADDGF100995999999999999999999KA1240N-01821MA1999999069971MD1710081+9999REMSYN05852787 32979 02906 11024 21192 36997 57008 333 00010 21182=
0093527870999992018022209004+37200+102870FM-12+304499999V0203201N0020122000199028000199-00021-02041999999ADDAA106999999AA224999999GF100991999999999999999999MA1999999069891MD1710081-0101REMSYN004BUFR
0163527870999992018022212004+37200+102867FM-12+304499999V0201601N002012200019N030000199-00531-02051999999ADDGA1011+017501999GE19AGL   +99999+99999GF101991011999017501999999MA1999999069891MD1410001+9999REMSYN05852787 32780 11602 11053 21205 36989 54000 81/// 333 05311=
0138527870999992018022218004+37200+102867FM-12+304499999V0202901N00601002401WN030000199-00851-01931999999ADDGF109991999999999999999999KA1120M+00031MA1999999069711MD1710101+9999REMSYN05852787 32/80 92906 11085 21193 36971 57010 333 05408 10003=
0067527870999992018022221004+37200+102870FM-12+304499999V0203401N0100199999999030000199-01041-02161999999ADDAA106999999AA224999999MA1999999069591MD1710121-0401REMSYN004BUFR
0169527870999992018022300004+37200+102867FM-12+304499999V0203601N012019999999N030000199-01241-02061999999ADDGA1071+017501999GE19AGL   +99999+99999GF107991071999017501999999MA1999999069761MD1210171+9999REMSYN06452787 32780 73612 11124 21206 36976 52017 87/// 333 05252 92501=
0163527870999992018022303004+37200+102870FM-12+304499999V0203201N01101017501C9030000199-00971-01801999999ADDAA106999999AA224999999GA1071+017501101GA2999+999999101GA3999+999999101GE19AGL   +99999+99999GF107991071999017501999999MA1999999069901MD1210141+9999REMSYN004BUFR
0208527870999992018022306004+37200+102867FM-12+304499999V0203401N010019999999N029000199-00631-01791999999ADDGA1071+017501999GE19AGL   +99999+99999GF107991071999017501999999KA1240N-01291MA1999999069881MD1710021+9999OD139901801360REMSYN07652787 32779 73410 11063 21179 36988 57002 87/// 333 05154 21129 91118 91536=
0163527870999992018022309004+37200+102870FM-12+304499999V0203601N00901017501C9030000199-00851-01661999999ADDAA106999999AA224999999GA1071+017501101GA2999+999999101GA3999+999999101GE19AGL   +99999+99999GF107991071999017501999999MA1999999070011MD1210131+0101REMSYN004BUFR
0208527870999992018022312004+37200+102867FM-12+304499999V0203601N009019999999N030000199-01061-01391999999ADDAA106000021AY101021AY201021GA1081+017501999GE19AGL   +99999+99999GF108991081999017501999999MA1999999070261MD1210251+9999MW1701REMSYN07052787 11780 83609 11106 21139 37026 52025 69901 77000 88/// 333 00455=
0138527870999992018022318004+37200+102867FM-12+304499999V0203401N00101002401WN030000199-01081-01661999999ADDGF109991999999999999999999KA1120M-00581MA1999999070331MD1710051+9999REMSYN05852787 32/80 93401 11108 21166 37033 57005 333 00652 11058=
0067527870999992018022321004+37200+102870FM-12+304499999V0200901N0010199999999030000199-01151-01751999999ADDAA106999999AA224999999MA1999999070241MD1710091+0701REMSYN004BUFR
0203527870999992018022400004+37200+102867FM-12+304499999V0203601N001012200019N030000199-01161-01831999999ADDAA112000021AA224000021GA1021+017501999GE19AGL   +99999+99999GF102991021999017501999999MA1999999070331MD1210091+9999REMSYN07652787 12780 23601 11116 21183 37033 52009 69902 82/// 333 00601 79999 92500=
0163527870999992018022403004+37200+102870FM-12+304499999V0200201N0050122000199030000199-00591-01701999999ADDAA106999999AA224999999GA1021+026001101GA2999+999999101GA3999+999999101GE19AGL   +99999+99999GF102991021999026001999999MA1999999070441MD1210111+9999REMSYN004BUFR
0182527870999992018022406004+37200+102867FM-12+304499999V0203601N007019999999N029000199-00381-01571999999ADDGA1071+012501999GE19AGL   +99999+99999GF107991071999012501999999KA1240N-01251MA1999999070331MD1710111+9999REMSYN06452787 32679 73607 11038 21157 37033 57011 87/// 333 00503 21125=
0163527870999992018022409004+37200+102870FM-12+304499999V0200201N00701017501C9030000199-00571-01341999999ADDAA106999999AA224999999GA1071+017501101GA2999+999999101GA3999+999999101GE19AGL   +99999+99999GF107991071999017501999999MA1999999070371MD1210041+0401REMSYN004BUFR
0208527870999992018022412004+37200+102867FM-12+304499999V0203201N001019999999N030000199-00821-01021999999ADDAA106000021AY171021AY201021GA1071+017501999GE19AGL   +99999+99999GF107991071999017501999999MA1999999070481MD1210111+9999MW1701REMSYN07052787 11780 73201 11082 21102 37048 52011 69901 77070 87/// 333 00202=
0138527870999992018022418004+37200+102867FM-12+304499999V0201801N00201002401WN030000199-00991-01411999999ADDGF109991999999999999999999KA1120M-00331MA1999999070391MD1710121+9999REMSYN05852787 32/80 91802 11099 21141 37039 57012 333 00101 11033=
0067527870999992018022421004+37200+102870FM-12+304499999V0201601N0030199999999030000199-00841-01451999999ADDAA106999999AA224999999MA1999999070241MD1710151+0001REMSYN004BUFR
0172527870999992018022500004+37200+102867FM-12+304499999V0200901N001019999999N030000199-00901-01741999999ADDAA106000091AA224000021GF100995999999999999999999MA1999999070151MD1710091+9999REMSYN06452787 12980 00901 11090 21174 37015 57009 69901 333 05203 79999=EQDQ01  00002PRCP06
0093527870999992018022503004+37200+102870FM-12+304499999V0203201N0040122000199027000199-00041-02391999999ADDAA106999999AA224999999GF100991999999999999999999MA1999999070211MD1210061+9999REMSYN004BUFR
0182527870999992018022506004+37200+102867FM-12+304499999V0200401N003012200019N027000199+00321-02441999999ADDGA1011+999999999GE19AGL   +99999+99999GF101991011999999999999999KA1240N-01021MA1999999070111MD1710101+9999REMSYN06452787 32977 10403 10032 21244 37011 57010 81/// 333 05207 21102=
0163527870999992018022509004+37200+102870FM-12+304499999V0203601N00801017501C9029000199+00051-02311999999ADDAA106999999AA224999999GA1071+017501101GA2999+999999101GA3999+999999101GE19AGL   +99999+99999GF107991071999017501999999MA1999999070121MD1210011-0301REMSYN004BUFR
0163527870999992018022512004+37200+102867FM-12+304499999V0200201N008012200019N030000199-00421-02121999999ADDGA1031+017501999GE19AGL   +99999+99999GF103991031999017501999999MA1999999070291MD1210171+9999REMSYN05852787 32780 30208 11042 21212 37029 52017 83/// 333 05204=
0138527870999992018022518004+37200+102867FM-12+304499999V0201101N00201002401WN030000199-00591-02141999999ADDGF109991999999999999999999KA1120M+00341MA1999999070331MD1710051+9999REMSYN05852787 32/80 91102 11059 21214 37033 57005 333 05104 10034=
0067527870999992018022521004+37200+102870FM-12+304499999V0201401N0020199999999030000199-00671-02221999999ADDAA106999999AA224999999MA1999999070241MD1710091+0001REMSYN004BUFR
0163527870999992018022600004+37200+102867FM-12+304499999V0201801N003019999999N030000199-00861-02191999999ADDGA1071+017501999GE19AGL   +99999+99999GF107991071999017501999999MA1999999070191MD1710051+9999REMSYN05852787 32780 71803 11086 21219 37019 57005 87/// 333 00000=
0163527870999992018022603004+37200+102870FM-12+304499999V0201401N01101017501C9026000199-00171-02181999999ADDAA106999999AA224999999GA1071+017501101GA2999+999999101GA3999+999999101GE19AGL   +99999+99999GF107991071999017501999999MA1999999070171MD1710021+9999REMSYN004BUFR
0182527870999992018022606004+37200+102867FM-12+304499999V0201401N010019999999N028000199-00061-01721999999ADDGA1071+017501999GE19AGL   +99999+99999GF107991071999017501999999KA1240N-00871MA1999999069991MD1710181+9999REMSYN06452787 32778 71410 11006 21172 36999 57018 87/// 333 05154 21087=
