0137583380999992018010100004+31150+118583FM-12+001699999V0201101N003019999999N001500199+00171+00051102731ADDGF100995999999999999999999MA1999999102205MD1210101+9999MW1101REMSYN06458338 31915 01103 10017 20005 40273 52010 710// 333 05302 31006=
0115583380999992018010103004+31330+118350FM-12+001699999V0200701N0040122000199002700199+00721+00231102711ADDAA106999999AA224999999AY101031AY201031GF100991999999999999999999MA1999999102195MD1710021+9999MW1101REMSYN004BUFR
0166583380999992018010106004+31150+118583FM-12+001699999V0201101N006019999999N999999999+01121+00061102321ADDAY101021AY201021GF100995999999999999999999KA1240N+00091MA1999999101811MD1710381+9999MW1051REMSYN06458338 31955 01106 10112 20006 30181 40232 57038 70500 333 20009=
0185583380999992018010109004+31330+118350FM-12+001699999V0200901N0050122000199006000199+01001+00051102291ADDAA106999999AA224999999AY101031AY201031GA1021+026001101GA2999+999999101GA3999+999999101GE19AGL   +99999+99999GF102991021999026001999999MA1999999101785MD1710031+9999MW1051REMSYN004BUFR
0181583380999992018010112004+31150+118583FM-12+001699999V0200901N007012200019N004300199+00831+00191102371ADDAY101021AY201021GA1041+999999999GE19AGL   +99999+99999GF104991041999999999999999MA1999999101855MD1210081+9999MW1051REMSYN05458338 31943 40907 10083 20019 40237 52008 70500 84///=
0132583380999992018010118004+31150+118583FM-12+001699999V0201101N00501002401WN008000199+00681+00231102411ADDGF109991999999999999999999KA1120M+01181MA1999999101895MD1210011+9999REMSYN05258338 32/58 91105 10068 20023 40241 52001 333 10118=
0067583380999992018010121004+31330+118350FM-12+001699999V0201101N0020199999999007000199+00661+00321102321ADDAA106999999AA224999999MA1999999101805MD1710091+9999REMSYN004BUFR
0175583380999992018010200004+31150+118583FM-12+001699999V0200701N002019999999N999999999+00701+00361102401ADDGA1081+012501999GE19AGL   +99999+99999GF108991081999012501999999MA1999999101885MD1210081+9999MW1101REMSYN06458338 31655 80702 10070 20036 40240 52008 710// 88/// 333 05305=
0185583380999992018010203004+31330+118350FM-12+001699999V0200901N00201012501C9006000199+00861+00361102481ADDAA106999999AA224999999AY101031AY201031GA1081+012501101GA2999+999999101GA3999+999999101GE19AGL   +99999+99999GF108991081999012501999999MA1999999101965MD1210081+9999MW1101REMSYN004BUFR
0204583380999992018010206004+31150+118583FM-12+001699999V0200901N002019999999N006000199+00971+00391102281ADDAY101021AY201021GA1081+012501999GE19AGL   +99999+99999GF108991081999012501999999KA1240N+00661MA1999999101765MD1710201+9999MW1051REMSYN06458338 31656 80902 10097 20039 40228 57020 70500 88/// 333 20066=
0185583380999992018010209004+31330+118350FM-12+001699999V0203601N00101012501C9006000199+00911+00491102381ADDAA106999999AA224999999AY101031AY201031GA1081+012501101GA2999+999999101GA3999+999999101GE19AGL   +99999+99999GF108991081999012501999999MA1999999101865MD1210101+9999MW1101REMSYN004BUFR
0198583380999992018010212004+31150+118583FM-12+001699999V0203201N002019999999N003400199+00771+00631102561ADDAA106000531AY161021AY201021GA1081+004501999GE19AGL   +99999+99999GF108991081999004501999999MA1999999102045MD1210181+9999MW1601REMSYN06058338 11434 83202 10077 20063 40256 52018 69951 76060 88///=
0177583380999992018010218004+31150+118583FM-12+001699999V0203601N00101001201WN000600199+00761+00731102751ADDAA106001031AY101021AY201021GF109991999999999999999999KA1120M+00991MA1999999102235MD1210081+9999MW1461REMSYN06458338 11/06 93601 10076 20073 40275 52008 60011 74600 333 10099=
0056583380999992018010221004+31330+118350FM-12+001699999V0200701N0050199999999010000199+00701+00611102791ADDAA124003431MA1999999102275MD1210041+9999REMSYN004BUFR
0209583380999992018010300004+31150+118583FM-12+001699999V0200701N006019999999N009000199+00591+00491102961ADDAA106003031AA224005231GA1081+004501999GE19AGL   +99999+99999GF108991081999004501999999MA1999999102435MD1210171+9999MW1601REMSYN07658338 11459 80706 10059 20049 40296 52017 60031 760// 88/// 333 00651 70052=
0163583380999992018010303004+31330+118350FM-12+001699999V0200701N00501004501C9006000199+00601+00501103051ADDAY161031AY261031GA1081+004501101GA2999+999999101GA3999+999999101GE19AGL   +99999+99999GF108991081999004501999999MA1999999102525MD1210081+9999MW1601REMSYN004BUFR
0221583380999992018010306004+31150+118583FM-12+001699999V0200701N007019999999N008000199+00601+00511102831ADDAA106003031AY161021AY261021GA1081+004501999GE19AGL   +99999+99999GF108991081999004501999999KA1240N+00571MA1999999102315MD1710211+9999MW1601REMSYN07058338 11458 80707 10060 20051 40283 57021 60031 76066 88/// 333 20057=
0163583380999992018010309004+31330+118350FM-12+001699999V0200401N00501002501C9004900199+00351+00261103011ADDAY161031AY261031GA1081+002501101GA2999+999999101GA3999+999999101GE19AGL   +99999+99999GF108991081999002501999999MA1999999102485MD1210171+9999MW1601REMSYN004BUFR
0204583380999992018010312004+31150+118583FM-12+001699999V0200701N007019999999N008000199+00271+00171103091ADDAA106007031AY161021AY261021GA1081+002501999GE19AGL   +99999+99999GF108991081999002501999999MA1999999102571MD1210081+9999MW1601REMSYN06658338 11358 80707 10027 20017 30257 40309 52008 60071 76066 88///=
0177583380999992018010318004+31150+118583FM-12+001699999V0200701N00701002401WN007000199+00151+00061102961ADDAA106008031AY161021AY261021GF109991999999999999999999KA1120M+00791MA1999999102435MD1710091+9999MW1611REMSYN06458338 11/57 90707 10015 20006 40296 57009 60081 76166 333 10079=
0078583380999992018010321004+31330+118350FM-12+001699999V0200701N0070199999999008000199+00121+00031102791ADDAA124024131AY161031AY261031MA1999999102265MD1710171+9999MW1611REMSYN004BUFR
0215583380999992018010400004+31150+118583FM-12+001699999V0200701N008019999999N999999999+00111+00041102781ADDAA106009031AA224026231GA1081+002501999GE19AGL   +99999+99999GF108991081999002501999999MA1999999102255MD1710011+9999MW1611REMSYN08258338 11355 80708 10011 20004 40278 57001 60091 761// 88/// 333 05255 30016 70262=
0163583380999992018010403004+31330+118350FM-12+001699999V0200701N00501004501C9010000199+00201+00131102701ADDAY161031AY261031GA1081+004501101GA2999+999999101GA3999+999999101GE19AGL   +99999+99999GF108991081999004501999999MA1999999102175MD1710081+9999MW1611REMSYN004BUFR
0221583380999992018010406004+31150+118583FM-12+001699999V0200401N004019999999N008000199+00251+00191102351ADDAA106009031AY161021AY261021GA1081+004501999GE19AGL   +99999+99999GF108991081999004501999999KA1240N+00111MA1999999101825MD1710351+9999MW1601REMSYN07058338 11458 80404 10025 20019 40235 57035 60091 76066 88/// 333 20011=
0163583380999992018010409004+31330+118350FM-12+001699999V0200401N00401004501C9999999999+00161+00101102291ADDAY161031AY261031GA1081+004501101GA2999+999999101GA3999+999999101GE19AGL   +99999+99999GF108991081999004501999999MA1999999101765MD1710061+9999MW1611REMSYN004BUFR
0198583380999992018010412004+31150+118583FM-12+001699999V0200201N004019999999N002800199+00011-00031102561ADDAA106008031AY171021AY261021GA1081+002501999GE19AGL   +99999+99999GF108991081999002501999999MA1999999102035MD1210271+9999MW1681REMSYN06058338 11328 80204 10001 21003 40256 52027 60081 76876 88///=
0166583380999992018010418004+31150+118583FM-12+001699999V0200201N001019999999N999999999+00031-00011102691ADDAY171021AY201021GF109991999999999999999999KA1120M+00251MA1999999102155MD1210091+9999MW1101REMSYN06458338 41/55 90201 10003 21001 40269 52009 71070 333 10025 92501=
0084583380999992018010421004+31330+118350FM-12+001699999V0200401N0010199999999008000199+00051-00011102661ADDAJ100019100010099AY161031AY201031MA1999999102135MD1710031+9999MW1601REMSYN004BUFR
0181583380999992018010500004+31150+118583FM-12+001699999V0200201N002019999999N004800199+00061+00001102841ADDGA1081+004501999GE19AGL   +99999+99999GF108991081999004501999999MA1999999102305MD1210171+9999MW1601REMSYN07058338 41448 80202 10006 20000 40284 52017 760// 88/// 333 00151 30000=
0163583380999992018010503004+31330+118350FM-12+001699999V0200401N00301012501C9011000199+00151+00021102871ADDAY161031AY201031GA1081+012501101GA2999+999999101GA3999+999999101GE19AGL   +99999+99999GF108991081999012501999999MA1999999102345MD1210041+9999MW1001REMSYN004BUFR
0221583380999992018010506004+31150+118583FM-12+001699999V0200901N002019999999N008000199+00161+00011102681ADDAA106000021AY161021AY201021GA1081+012501999GE19AGL   +99999+99999GF108991081999012501999999KA1240N+00001MA1999999102155MD1710191+9999MW1001REMSYN07058338 11658 80902 10016 20001 40268 57019 69901 70060 88/// 333 20000=
0163583380999992018010509004+31330+118350FM-12+001699999V0200401N00201012501C9009000199+00171-00021102621ADDAA106999999AA224999999GA1081+012501101GA2999+999999101GA3999+999999101GE19AGL   +99999+99999GF108991081999012501999999MA1999999102095MD1710061+9999REMSYN004BUFR
0181583380999992018010512004+31150+118583FM-12+001699999V0200401N002019999999N006000199+00131-00021102651ADDAY101021AY201021GA1081+012501999GE19AGL   +99999+99999GF108991081999012501999999MA1999999102125MD1210031+9999MW1101REMSYN05458338 31656 80402 10013 21002 40265 52003 71000 88///=
0160583380999992018010518004+31150+118583FM-12+001699999V0200701N00301002401WN007000199+00081-00161102681ADDAY101021AY201021GF109991999999999999999999KA1120M+00181MA1999999102155MD1210011+9999MW1101REMSYN05858338 31/57 90703 10008 21016 40268 52001 71000 333 10018=
0073583380999992018010521004+31330+118350FM-12+001699999V0200701N0040199999999006000199+00021-00221102611ADDAA106999999AA224999999MA1999999102085MD1710071+9999MW1101REMSYN004BUFR
0204583380999992018010600004+31150+118583FM-12+001699999V0200701N005019999999N003900199+00001-00191102641ADDAA124000021GA1071+999999999GE19AGL   +99999+99999GF107991071999999999999999MA1999999102121MD1210031+9999MW1101REMSYN08258338 31939 70705 10000 21019 30212 40264 52003 710// 87/// 333 05251 31001 79999=
0185583380999992018010603004+31330+118350FM-12+001699999V0200901N00401026001C9006000199+00271-00071102581ADDAA106999999AA224999999AY101031AY201031GA1071+026001101GA2999+999999101GA3999+999999101GE19AGL   +99999+99999GF107991071999026001999999MA1999999102055MD1710061+9999MW1101REMSYN004BUFR
0176583380999992018010606004+31150+118583FM-12+001699999V0200901N005019999999N009000199+00441-00041102071ADDGA1081+999999999GE19AGL   +99999+99999GF108991081999999999999999KA1240N-00021MA1999999101555MD1710511+9999REMSYN05858338 32959 80905 10044 21004 40207 57051 88/// 333 21002=
0163583380999992018010609004+31330+118350FM-12+001699999V0200701N00501026001C9008000199+00401+00061102041ADDAY101031AY201031GA1081+026001101GA2999+999999101GA3999+999999101GE19AGL   +99999+99999GF108991081999026001999999MA1999999101525MD1710031+9999MW1601REMSYN004BUFR
0204583380999992018010612004+31150+118583FM-12+001699999V0200701N005019999999N003100199+00301+00231102011ADDAA106002031AY161021AY201021GA1081+004501999GE19AGL   +99999+99999GF108991081999004501999999MA1999999101491MD1710031+9999MW1601REMSYN06658338 11431 80705 10030 20023 30149 40201 57003 60021 76060 88///=
0177583380999992018010618004+31150+118583FM-12+001699999V0201401N00101002401WN001300199+00401+00371101961ADDAA106001031AY101021AY201021GF109991999999999999999999KA1120M+00441MA1999999101445MD1710091+9999MW1101REMSYN06458338 11/13 91401 10040 20037 40196 57009 60011 71000 333 10044=
0078583380999992018010621004+31330+118350FM-12+001699999V0203201N0020199999999000600199+00301+00271101891ADDAA124003331AY161031AY241031MA1999999101365MD1710071+9999MW1601REMSYN004BUFR
0221583380999992018010700004+31150+118583FM-12+001699999V0202901N004019999999N000900199+00251+00241102001ADDAA106001031AA224004031GA1081+002501999GE19AGL   +99999+99999GF108991081999002501999999MA1999999101481MD1210101+9999MW1601REMSYN08858338 11309 82904 10025 20024 30148 40200 52010 60011 760// 88/// 333 05603 30032 70040=
0163583380999992018010703004+31330+118350FM-12+001699999V0202701N00301004501C9002000199+00201+00161101991ADDAY161031AY261031GA1081+004501101GA2999+999999101GA3999+999999101GE19AGL   +99999+99999GF108991081999004501999999MA1999999101465MD1710011+9999MW1601REMSYN004BUFR
0227583380999992018010706004+31150+118583FM-12+001699999V0202701N004019999999N001800199+00171+00131101891ADDAA106001031AY161021AY261021GA1081+004501999GE19AGL   +99999+99999GF108991081999004501999999KA1240N+00161MA1999999101371MD1710101+9999MW1601REMSYN07658338 11418 82704 10017 20013 30137 40189 57010 60011 76066 88/// 333 20016=
0163583380999992018010709004+31330+118350FM-12+001699999V0202901N00401004501C9002000199+00111+00071102001ADDAY161031AY261031GA1081+004501101GA2999+999999101GA3999+999999101GE19AGL   +99999+99999GF108991081999004501999999MA1999999101475MD1210111+9999MW1601REMSYN004BUFR
0204583380999992018010712004+31150+118583FM-12+001699999V0202701N004019999999N002600199+00081+00021102131ADDAA106000331AY161021AY201021GA1081+004501999GE19AGL   +99999+99999GF108991081999004501999999MA1999999101611MD1210131+9999MW1101REMSYN06658338 11426 82704 10008 20002 30161 40213 52013 69931 71060 88///=
0160583380999992018010718004+31150+118583FM-12+001699999V0202701N00301002401WN001700199+00101-00021102291ADDAY101021AY201021GF109991999999999999999999KA1120M+00401MA1999999101765MD1210091+9999MW1101REMSYN05858338 31/17 92703 10010 21002 40229 52009 71000 333 10040=
0089583380999992018010721004+31330+118350FM-12+001699999V0202701N0050199999999002600199+00021-00111102301ADDAA106999999AA224002031AY101031AY201031MA1999999101775MD1210011+9999MW1101REMSYN004BUFR
0198583380999992018010800004+31150+118583FM-12+001699999V0202701N004012200019N003100199-00061-00231102511ADDAA124001331GA1031+999999999GE19AGL   +99999+99999GF103991031999999999999999MA1999999101975MD1210211+9999MW1101REMSYN07658338 31931 32704 11006 21023 40251 52021 710// 83/// 333 00553 31005 70013=
0185583380999992018010803004+31330+118350FM-12+001699999V0202701N00601026001C9004500199+00211-00171102511ADDAA106999999AA224999999AY101031AY201031GA1071+026001101GA2999+999999101GA3999+999999101GE19AGL   +99999+99999GF107991071999026001999999MA1999999101985MD1410001+9999MW1101REMSYN004BUFR
0176583380999992018010806004+31150+118583FM-12+001699999V0202701N007012200019N012000199+00341-00551102371ADDGA1031+999999999GE19AGL   +99999+99999GF103991031999999999999999KA1240N-00081MA1999999101845MD1710141+9999REMSYN05858338 32962 32707 10034 21055 40237 57014 83/// 333 21008=
0163583380999992018010809004+31330+118350FM-12+001699999V0202901N0050122000199022000199+00201-00731102511ADDAA106999999AA224999999GA1021+026001101GA2999+999999101GA3999+999999101GE19AGL   +99999+99999GF102991021999026001999999MA1999999101985MD1210141+9999REMSYN004BUFR
0153583380999992018010812004+31150+118583FM-12+001699999V0202901N006012200019N025000199+00041-00831102711ADDGA1021+999999999GE19AGL   +99999+99999GF102991021999999999999999MA1999999102175MD1210191+9999REMSYN04858338 32975 22906 10004 21083 40271 52019 82///=
0138583380999992018010818004+31150+118583FM-12+001699999V0202501N00201002401WN016000199-00261-00641102841ADDGF109991999999999999999999KA1120M+00371MA1999999102311MD1710081+9999REMSYN05858338 32/66 92502 11026 21064 30231 40284 57008 333 10037=
0067583380999992018010821004+31330+118350FM-12+001699999V0202501N0020199999999018000199-00251-00701102761ADDAA106999999AA224999999MA1999999102225MD1710081+9999REMSYN004BUFR
0125583380999992018010900004+31150+118583FM-12+001699999V0202501N001019999999N020000199-00241-00711102851ADDGF100995999999999999999999MA1999999102315MD1210091+9999REMSYN05858338 32970 02501 11024 21071 40285 52009 333 00352 31031=
0093583380999992018010903004+31330+118350FM-12+001699999V0202501N0050122000199018000199+00421-00551102791ADDAA106999999AA224999999GF100991999999999999999999MA1999999102265MD1710051+9999REMSYN004BUFR
0138583380999992018010906004+31150+118583FM-12+001699999V0202901N006019999999N020000199+00731-00831102591ADDGF100995999999999999999999KA1240N-00251MA1999999102071MD1710231+9999REMSYN05858338 32970 02906 10073 21083 30207 40259 57023 333 21025=
0079583380999992018010909004+31330+118350FM-12+001699999V0202501N0030122000199030000199+00571-00681102501ADDAA106999999AA224999999GF100991999999999999999999MA1999999101985REMSYN004BUFR
0115583380999992018010912004+31150+118583FM-12+001699999V0202701N004019999999N030000199+00301-00521102611ADDGF100995999999999999999999MA1999999102091MD1210111+9999REMSYN04858338 32980 02704 10030 21052 30209 40261 52011=
0111583380999992018010918004+31150+118583FM-12+001699999V0202901N00501002401WN028000199+00221-00691999999ADDGF109991999999999999999999KA1120M+00721MD1210031+9999REMSYN04658338 32/78 92905 10022 21069 52003 333 10072=
0067583380999992018010921004+31330+118350FM-12+001699999V0202901N0050199999999030000199+00151-00751102901ADDAA106999999AA224999999MA1999999102375MD1210051+9999REMSYN004BUFR
0125583380999992018011000004+31150+118583FM-12+001699999V0202701N004019999999N030000199+00071-00681103131ADDGF100995999999999999999999MA1999999102595MD1210231+9999REMSYN05858338 32980 02704 10007 21068 40313 52023 333 00303 31016=
0093583380999992018011003004+31330+118350FM-12+001699999V0202701N0050122000199015000199+00451-00771103201ADDAA106999999AA224999999GF100991999999999999999999MA1999999102675MD1210071+9999REMSYN004BUFR
0138583380999992018011006004+31150+118583FM-12+001699999V0203201N007019999999N030000199+00611-01021102981ADDGF100995999999999999999999KA1240N+00011MA1999999102461MD1710221+9999REMSYN05858338 32980 03207 10061 21102 30246 40298 57022 333 20001=
0093583380999992018011009004+31330+118350FM-12+001699999V0202901N0040122000199030000199+00451-00861103031ADDAA106999999AA224999999GF100991999999999999999999MA1999999102505MD1210051+9999REMSYN004BUFR
0109583380999992018011012004+31150+118583FM-12+001699999V0202901N003019999999N028000199+00261-00791103111ADDGF100995999999999999999999MA1999999102585MD1210081+9999REMSYN04258338 32978 02903 10026 21079 40311 52008=
0132583380999992018011018004+31150+118583FM-12+001699999V0202201N00101002401WN020000199-00241-00751103241ADDGF109991999999999999999999KA1120M+00641MA1999999102705MD1710021+9999REMSYN05258338 32/70 92201 11024 21075 40324 57002 333 10064=
0067583380999992018011021004+31330+118350FM-12+001699999V0202501N0020199999999016000199-00401-00731103161ADDAA106999999AA224999999MA1999999102615MD1710091+9999REMSYN004BUFR
0131583380999992018011100004+31150+118583FM-12+001699999V0202201N001019999999N012000199-00401-00681103361ADDGF100995999999999999999999MA1999999102831MD1210201+9999REMSYN06458338 32962 02201 11040 21068 30283 40336 52020 333 00255 31035=
0093583380999992018011103004+31330+118350FM-12+001699999V0202201N0010122000199019000199+00451-00931103431ADDAA106999999AA224999999GF100991999999999999999999MA1999999102905MD1210081+9999REMSYN004BUFR
0132583380999992018011106004+31150+118583FM-12+001699999V0202901N005019999999N014000199+00651-00861103211ADDGF100995999999999999999999KA1240N-00461MA1999999102685MD1710221+9999REMSYN05258338 32964 02905 10065 21086 40321 57022 333 21046=
0093583380999992018011109004+31330+118350FM-12+001699999V0202901N0050122000199023000199+00501-00581103321ADDAA106999999AA224999999GF100991999999999999999999MA1999999102795MD1210101+9999REMSYN004BUFR
0109583380999992018011112004+31150+118583FM-12+001699999V0203401N004019999999N017000199+00141-00471103621ADDGF100995999999999999999999MA1999999103085MD1210301+9999REMSYN04258338 32967 03404 10014 21047 40362 52030=
0138583380999992018011118004+31150+118583FM-12+001699999V0202901N00101002401WN026000199-00291-00861103771ADDGF109991999999999999999999KA1120M+00711MA1999999103241MD1210021+9999REMSYN05858338 32/76 92901 11029 21086 30324 40377 52002 333 10071=
0067583380999992018011121004+31330+118350FM-12+001699999V0200401N0010199999999020000199-00551-00871103691ADDAA106999999AA224999999MA1999999103145MD1710081+9999REMSYN004BUFR
0125583380999992018011200004+31150+118583FM-12+001699999V0200701N001019999999N014000199-00441-00751103791ADDGF100995999999999999999999MA1999999103245MD1210101+9999REMSYN05858338 32964 00701 11044 21075 40379 52010 333 00400 31048=
0093583380999992018011203004+31330+118350FM-12+001699999V0200401N0020122000199022000199+00051-01091103801ADDAA106999999AA224999999GF100991999999999999999999MA1999999103265MD1210011+9999REMSYN004BUFR
0132583380999992018011206004+31150+118583FM-12+001699999V0200401N002019999999N027000199+00341-01101103441ADDGF100995999999999999999999KA1240N-00651MA1999999102915MD1710361+9999REMSYN05258338 32977 00402 10034 21110 40344 57036 333 21065=
0093583380999992018011209004+31330+118350FM-12+001699999V0200401N0020122000199025000199+00151-00971103391ADDAA106999999AA224999999GF100991999999999999999999MA1999999102855MD1710051+9999REMSYN004BUFR
0109583380999992018011212004+31150+118583FM-12+001699999V0200901N002019999999N023000199-00231-00921103451ADDGF100995999999999999999999MA1999999102915MD1210051+9999REMSYN04258338 32973 00902 11023 21092 40345 52005=
0132583380999992018011218004+31150+118583FM-12+001699999V0201101N00301002401WN014000199-00351-00861103431ADDGF109991999999999999999999KA1120M+00381MA1999999102885MD1710071+9999REMSYN05258338 32/64 91103 11035 21086 40343 57007 333 10038=
0067583380999992018011221004+31330+118350FM-12+001699999V0201401N0020199999999012000199-00551-00861103281ADDAA106999999AA224999999MA1999999102735MD1710151+9999REMSYN004BUFR
0181583380999992018011300004+31150+118583FM-12+001699999V0200901N003019999999N007000199-00471-00721103321ADDGA1051+999999999GE19AGL   +99999+99999GF105991051999999999999999MA1999999102781MD1210031+9999MW1101REMSYN07058338 31957 50903 11047 21072 30278 40332 52003 710// 85/// 333 05500=
0163583380999992018011303004+31330+118350FM-12+001699999V0201601N00201017501C9008000199+00061-00631103481ADDAA106999999AA224999999GA1071+017501101GA2999+999999101GA3999+999999101GE19AGL   +99999+99999GF107991071999017501999999MA1999999102945MD1210171+9999REMSYN004BUFR
0176583380999992018011306004+31150+118583FM-12+001699999V0201401N003019999999N012000199+00481-00641103111ADDGA1071+017501999GE19AGL   +99999+99999GF107991071999017501999999KA1240N-00661MA1999999102585MD1710371+9999REMSYN05858338 32762 71403 10048 21064 40311 57037 87/// 333 21066=
0163583380999992018011309004+31330+118350FM-12+001699999V0203601N00001012501C9013000199+00411-00411102991ADDAA106999999AA224999999GA1081+012501101GA2999+999999101GA3999+999999101GE19AGL   +99999+99999GF108991081999012501999999MA1999999102465MD1710121+9999REMSYN004BUFR
0159583380999992018011312004+31150+118583FM-12+001699999V0200701N003019999999N011000199+00281-00401102981ADDGA1081+012501999GE19AGL   +99999+99999GF108991081999012501999999MA1999999102451MD1710011+9999REMSYN05458338 32661 80703 10028 21040 30245 40298 57001 88///=
0132583380999992018011318004+31150+118583FM-12+001699999V0201101N00201002401WN009000199+00121-00391102801ADDGF109991999999999999999999KA1120M+00541MA1999999102275MD1710131+9999REMSYN05258338 32/59 91102 10012 21039 40280 57013 333 10054=
0067583380999992018011321004+31330+118350FM-12+001699999V0201401N0020199999999008000199+00021-00361102641ADDAA106999999AA224999999MA1999999102105MD1710161+9999REMSYN004BUFR
0175583380999992018011400004+31150+118583FM-12+001699999V0201101N002019999999N007000199+00081-00261102671ADDGA1071+017501999GE19AGL   +99999+99999GF107991071999017501999999MA1999999102151MD1210031+9999REMSYN07058338 32757 71102 10008 21026 30215 40267 52003 87/// 333 05606 31014=
0163583380999992018011403004+31330+118350FM-12+001699999V0201801N00201012501C9011000199+00621-00291102641ADDAA106999999AA224999999GA1071+012501101GA2999+999999101GA3999+999999101GE19AGL   +99999+99999GF107991071999012501999999MA1999999102125MD1710031+9999REMSYN004BUFR
0182583380999992018011406004+31150+118583FM-12+001699999V0202701N002019999999N023000199+01201-00641102311ADDGA1071+999999999GE19AGL   +99999+99999GF107991071999999999999999KA1240N-00021MA1999999101801MD1710321+9999REMSYN06458338 32973 72702 10120 21064 30180 40231 57032 87/// 333 21002=
0163583380999992018011409004+31330+118350FM-12+001699999V0201101N0020122000199022000199+01071-00201102281ADDAA106999999AA224999999GA1021+026001101GA2999+999999101GA3999+999999101GE19AGL   +99999+99999GF102991021999026001999999MA1999999101775MD1710031+9999REMSYN004BUFR
0153583380999992018011412004+31150+118583FM-12+001699999V0201101N003019999999N013000199+00441-00311102391ADDGA1071+999999999GE19AGL   +99999+99999GF107991071999999999999999MA1999999101865MD1210101+9999REMSYN04858338 32963 71103 10044 21031 40239 52010 87///=
0132583380999992018011418004+31150+118583FM-12+001699999V0201401N00101002401WN009000199+00201-00211102411ADDGF109991999999999999999999KA1120M+01381MA1999999101885MD1410001+9999REMSYN05258338 32/59 91401 10020 21021 40241 54000 333 10138=
0067583380999992018011421004+31330+118350FM-12+001699999V0201101N0020199999999007000199+00051-00211102341ADDAA106999999AA224999999MA1999999101815MD1710071+9999REMSYN004BUFR
0131583380999992018011500004+31150+118583FM-12+001699999V0201401N002019999999N007000199+00111-00201102411ADDGF100995999999999999999999MA1999999101891MD1210061+9999REMSYN06458338 32957 01402 10011 21020 30189 40241 52006 333 05300 31018=
0093583380999992018011503004+31330+118350FM-12+001699999V0200901N0020122000199007000199+01071-00101102321ADDAA106999999AA224999999GF100991999999999999999999MA1999999101815MD1710081+9999REMSYN004BUFR
0132583380999992018011506004+31150+118583FM-12+001699999V0200401N003019999999N015000199+01481-00131101971ADDGF100995999999999999999999KA1240N-00091MA1999999101475MD1710351+9999REMSYN05258338 32965 00403 10148 21013 40197 57035 333 21009=
0163583380999992018011509004+31330+118350FM-12+001699999V0200401N0030122000199013000199+01351+00021101881ADDAA106999999AA224999999GA1021+026001101GA2999+999999101GA3999+999999101GE19AGL   +99999+99999GF102991021999026001999999MA1999999101375MD1710091+9999REMSYN004BUFR
0153583380999992018011512004+31150+118583FM-12+001699999V0200701N004019999999N014000199+01101-00051101901ADDGA1071+999999999GE19AGL   +99999+99999GF107991071999999999999999MA1999999101395MD1210021+9999REMSYN04858338 32964 70704 10110 21005 40190 52002 87///=
0132583380999992018011518004+31150+118583FM-12+001699999V0201101N00201002401WN009000199+00791+00321101721ADDGF109991999999999999999999KA1120M+01561MA1999999101205MD1710121+9999REMSYN05258338 32/59 91102 10079 20032 40172 57012 333 10156=
0067583380999992018011521004+31330+118350FM-12+001699999V0202501N0010199999999007000199+00701+00331101651ADDAA106999999AA224999999MA1999999101135MD1710071+9999REMSYN004BUFR
0215583380999992018011600004+31150+118583FM-12+001699999V0202901N004019999999N010000199+00791+00281101761ADDAA106000021AA224000021GA1081+008001999GE19AGL   +99999+99999GF108991081999008001999999MA1999999101261MD1210111+9999MW1601REMSYN08258338 11560 82904 10079 20028 30126 40176 52011 69901 760// 88/// 333 05607 79999=
0163583380999992018011603004+31330+118350FM-12+001699999V0202901N00401012501C9004900199+00761+00421101841ADDAY161031AY201031GA1081+012501101GA2999+999999101GA3999+999999101GE19AGL   +99999+99999GF108991081999012501999999MA1999999101325MD1210071+9999MW1101REMSYN004BUFR
0221583380999992018011606004+31150+118583FM-12+001699999V0202901N004019999999N003900199+00721+00431101651ADDAA106000021AY161021AY201021GA1081+008001999GE19AGL   +99999+99999GF108991081999008001999999KA1240N+00631MA1999999101135MD1710191+9999MW1601REMSYN07058338 11539 82904 10072 20043 40165 57019 69901 76060 88/// 333 20063=
0163583380999992018011609004+31330+118350FM-12+001699999V0202901N00301004501C9001300199+00571+00491101651ADDAY161031AY261031GA1081+004501101GA2999+999999101GA3999+999999101GE19AGL   +99999+99999GF108991081999004501999999MA1999999101135MD1410001+9999MW1601REMSYN004BUFR
0204583380999992018011612004+31150+118583FM-12+001699999V0202701N002019999999N000800199+00561+00501101801ADDAA106002031AY161021AY261021GA1081+004501999GE19AGL   +99999+99999GF108991081999004501999999MA1999999101291MD1210151+9999MW1601REMSYN06658338 11408 82702 10056 20050 30129 40180 52015 60021 76066 88///=
0177583380999992018011618004+31150+118583FM-12+001699999V0202901N00201002401WN000800199+00521+00481102021ADDAA106000831AY101021AY201021GF109991999999999999999999KA1120M+00901MA1999999101505MD1210131+9999MW1101REMSYN06458338 11/08 92902 10052 20048 40202 52013 69981 71000 333 10090=
0073583380999992018011621004+31330+118350FM-12+001699999V0202001N0010199999999001100199+00471+00411101921ADDAA106999999AA224002531MA1999999101405MD1710101+9999MW1101REMSYN004BUFR
0215583380999992018011700004+31150+118583FM-12+001699999V0201101N001019999999N000800199+00511+00451101981ADDAA112000831AA224002531GA1081+004501999GE19AGL   +99999+99999GF108991081999004501999999MA1999999101465MD1210061+9999MW1101REMSYN08258338 11408 81101 10051 20045 40198 52006 69982 710// 88/// 333 00253 30049 70025=
0185583380999992018011703004+31330+118350FM-12+001699999V0203601N00101012501C9002600199-00471+99999102151ADDAA106999999AA224999999AY101031AY201031GA1081+012501101GA2999+999999101GA3999+999999101GE19AGL   +99999+99999GF108991081999012501999999MA1999999101615MD1210161+9999MW1101REMSYN004BUFR
0210583380999992018011706004+31150+118583FM-12+001699999V0202201N002019999999N999999999+00972+00471101911ADDAY101021AY201021GA1071+012501999GE19AGL   +99999+99999GF107991071999012501999999KA1240N-00521MA1999999101401MD1710231+9999MW1101REMSYN07058338 31655 72202 10097 20047 30140 40191 57023 71000 87/// 333 21052=
0185583380999992018011709004+31330+118350FM-12+001699999V0200901N00301026001C9004800199+00901+00541101871ADDAA106999999AA224999999AY101031AY201031GA1071+026001101GA2999+999999101GA3999+999999101GE19AGL   +99999+99999GF107991071999026001999999MA1999999101365MD1710041+9999MW1101REMSYN004BUFR
0181583380999992018011712004+31150+118583FM-12+001699999V0200401N003019999999N003700199+00661+00461102041ADDAY101021AY201021GA1081+012501999GE19AGL   +99999+99999GF108991081999012501999999MA1999999101525MD1210171+9999MW1101REMSYN05458338 31637 80403 10066 20046 40204 52017 71000 88///=
0166583380999992018011718004+31150+118583FM-12+001699999V0200701N00201002401WN000900199+00301+00231102241ADDAY101021AY201021GF109991999999999999999999KA1120M+01111MA1999999101731MD1210031+9999MW1101REMSYN06458338 31/09 90702 10030 20023 30173 40224 52003 71000 333 10111=
0073583380999992018011721004+31330+118350FM-12+001699999V0200701N0030199999999000900199+00351+00301102161ADDAA106999999AA224999999MA1999999101635MD1710081+9999MW1101REMSYN004BUFR
0181583380999992018011800004+31150+118583FM-12+001699999V0200401N002019999999N001000199+00441+00401102351ADDGA1081+012501999GE19AGL   +99999+99999GF108991081999012501999999MA1999999101825MD1210191+9999MW1101REMSYN07058338 31610 80402 10044 20040 40235 52019 710// 88/// 333 00451 30008=
0185583380999992018011803004+31330+118350FM-12+001699999V0200401N00301012501C9001700199+00671+00551102481ADDAA106999999AA224999999AY101031AY201031GA1081+012501101GA2999+999999101GA3999+999999101GE19AGL   +99999+99999GF108991081999012501999999MA1999999101965MD1210131+9999MW1101REMSYN004BUFR
0210583380999992018011806004+31150+118583FM-12+001699999V0200701N004019999999N002300199+00721+00451102251ADDAY101021AY201021GA1081+017501999GE19AGL   +99999+99999GF108991081999017501999999KA1240N-00991MA1999999101741MD1710231+9999MW1101REMSYN07058338 31723 80704 10072 20045 30174 40225 57023 71000 88/// 333 21099=
0185583380999992018011809004+31330+118350FM-12+001699999V0200401N00201017501C9003100199+00721+00391102381ADDAA106999999AA224999999AY101031AY201031GA1081+017501101GA2999+999999101GA3999+999999101GE19AGL   +99999+99999GF108991081999017501999999MA1999999101865MD1210131+9999MW1101REMSYN004BUFR
0181583380999992018011812004+31150+118583FM-12+001699999V0200401N003019999999N004300199+00681+00311102551ADDAY101021AY201021GA1081+017501999GE19AGL   +99999+99999GF108991081999017501999999MA1999999102035MD1210171+9999MW1101REMSYN05458338 31743 80403 10068 20031 40255 52017 71000 88///=
0160583380999992018011818004+31150+118583FM-12+001699999V0200401N00201002401WN003600199+00631+00361102461ADDAY101021AY201021GF109991999999999999999999KA1120M+00771MA1999999101945MD1710111+9999MW1101REMSYN05858338 31/36 90402 10063 20036 40246 57011 71000 333 10077=
0073583380999992018011821004+31330+118350FM-12+001699999V0200401N0020199999999003400199+00611+00381102451ADDAA106999999AA224999999MA1999999101935MD1710011+9999MW1101REMSYN004BUFR
0209583380999992018011900004+31150+118583FM-12+001699999V0203601N002019999999N002500199+00591+00421102611ADDAA106000131AA224000131GA1081+008001999GE19AGL   +99999+99999GF108991081999008001999999MA1999999102095MD1210161+9999MW1601REMSYN07658338 11525 83602 10059 20042 40261 52016 69911 760// 88/// 333 00302 70001=
0163583380999992018011903004+31330+118350FM-12+001699999V0200701N00201004501C9001600199+00621+00531102581ADDAY161031AY261031GA1081+004501101GA2999+999999101GA3999+999999101GE19AGL   +99999+99999GF108991081999004501999999MA1999999102065MD1710031+9999MW1601REMSYN004BUFR
0227583380999992018011906004+31150+118583FM-12+001699999V0209999C999999999999N001700199+00691+00541102301ADDAA106001031AY161021AY201021GA1081+004501999GE19AGL   +99999+99999GF108991081999004501999999KA1240N+00551MA1999999101791MD1710281+9999MW1101REMSYN07658338 11417 80000 10069 20054 30179 40230 57028 60011 71060 88/// 333 20055=
0163583380999992018011909004+31330+118350FM-12+001699999V0200401N00201004501C9001900199+00701+00541102341ADDAY101031AY201031GA1081+004501101GA2999+999999101GA3999+999999101GE19AGL   +99999+99999GF108991081999004501999999MA1999999101825MD1210041+9999MW1101REMSYN004BUFR
0181583380999992018011912004+31150+118583FM-12+001699999V0200401N001019999999N001600199+00651+00511102351ADDAY101021AY201021GA1081+008001999GE19AGL   +99999+99999GF108991081999008001999999MA1999999101835MD1210011+9999MW1101REMSYN05458338 31516 80401 10065 20051 40235 52001 71000 88///=
0160583380999992018011918004+31150+118583FM-12+001699999V0200401N00201002401WN001300199+00621+00531102381ADDAY101021AY201021GF109991999999999999999999KA1120M+00731MA1999999101865MD1210021+9999MW1101REMSYN05858338 31/13 90402 10062 20053 40238 52002 71000 333 10073=
0073583380999992018011921004+31330+118350FM-12+001699999V0203601N0020199999999000900199+00621+00561102311ADDAA106999999AA224001131MA1999999101795MD1710071+9999MW1101REMSYN004BUFR
0198583380999992018012000004+31150+118583FM-12+001699999V0200701N001019999999N001000199+00621+00551102361ADDAA124001031GA1081+008001999GE19AGL   +99999+99999GF108991081999008001999999MA1999999101851MD1210051+9999MW1101REMSYN07658338 31510 80701 10062 20055 30185 40236 52005 710// 88/// 333 05300 70010=
0185583380999992018012003004+31330+118350FM-12+001699999V0200901N00201012501C9001200199+00671+00561102361ADDAA106999999AA224999999AY101031AY201031GA1081+012501101GA2999+999999101GA3999+999999101GE19AGL   +99999+99999GF108991081999012501999999MA1999999101845MD1410001+9999MW1101REMSYN004BUFR
0204583380999992018012006004+31150+118583FM-12+001699999V0200401N003019999999N001300199+00751+00601102121ADDAY101021AY201021GA1081+012501999GE19AGL   +99999+99999GF108991081999012501999999KA1240N+00601MA1999999101605MD1710241+9999MW1101REMSYN06458338 31613 80403 10075 20060 40212 57024 71000 88/// 333 20060=
0185583380999992018012009004+31330+118350FM-12+001699999V0200701N00401012501C9001300199+00711+00601102171ADDAA106999999AA224999999AY101031AY201031GA1081+012501101GA2999+999999101GA3999+999999101GE19AGL   +99999+99999GF108991081999012501999999MA1999999101655MD1210051+9999MW1101REMSYN004BUFR
0181583380999992018012012004+31150+118583FM-12+001699999V0200901N003019999999N001800199+00701+00531102281ADDAY101021AY201021GA1081+012501999GE19AGL   +99999+99999GF108991081999012501999999MA1999999101765MD1210111+9999MW1101REMSYN05458338 31618 80903 10070 20053 40228 52011 71000 88///=
0160583380999992018012018004+31150+118583FM-12+001699999V0200901N00201002401WN002600199+00621+00531102221ADDAY101021AY201021GF109991999999999999999999KA1120M+00771MA1999999101705MD1710051+9999MW1101REMSYN05858338 31/26 90902 10062 20053 40222 57005 71000 333 10077=
0073583380999992018012021004+31330+118350FM-12+001699999V0201101N0030199999999002000199+00551+00451102051ADDAA106999999AA224999999MA1999999101535MD1710171+9999MW1101REMSYN004BUFR
0175583380999992018012100004+31150+118583FM-12+001699999V0200401N003019999999N002300199+00591+00451102131ADDGA1081+012501999GE19AGL   +99999+99999GF108991081999012501999999MA1999999101615MD1210081+9999MW1101REMSYN06458338 31623 80403 10059 20045 40213 52008 710// 88/// 333 05200=
0185583380999992018012103004+31330+118350FM-12+001699999V0200701N00601012501C9002800199+00671+00451102051ADDAA106999999AA224999999AY101031AY201031GA1081+012501101GA2999+999999101GA3999+999999101GE19AGL   +99999+99999GF108991081999012501999999MA1999999101535MD1710081+9999MW1101REMSYN004BUFR
0221583380999992018012106004+31150+118583FM-12+001699999V0200701N004019999999N002600199+00681+00561101781ADDAA106000231AY101021AY201021GA1081+004501999GE19AGL   +99999+99999GF108991081999004501999999KA1240N+00541MA1999999101265MD1710271+9999MW1601REMSYN07058338 11426 80704 10068 20056 40178 57027 69921 76000 88/// 333 20054=
0163583380999992018012109004+31330+118350FM-12+001699999V0200401N00401002501C9001900199+00621+00561101821ADDAY161031AY261031GA1081+002501101GA2999+999999101GA3999+999999101GE19AGL   +99999+99999GF108991081999002501999999MA1999999101305MD1210041+9999MW1611REMSYN004BUFR
0198583380999992018012112004+31150+118583FM-12+001699999V0200401N002019999999N001700199+00641+00601102001ADDAA106010031AY161021AY261021GA1081+002501999GE19AGL   +99999+99999GF108991081999002501999999MA1999999101485MD1210181+9999MW1611REMSYN06058338 11317 80402 10064 20060 40200 52018 60101 76166 88///=
0177583380999992018012118004+31150+118583FM-12+001699999V0202701N00101002401WN002100199+00541+00481102141ADDAA106002031AY101021AY201021GF109991999999999999999999KA1120M+00731MA1999999101625MD1210021+9999MW1101REMSYN06458338 11/21 92701 10054 20048 40214 52002 60021 71000 333 10073=
0062583380999992018012121004+31330+118350FM-12+001699999V0202201N0020199999999002400199+00321+00281101771ADDAA124012831MA1999999101255MD1710371+9999MW1101REMSYN004BUFR
0171583380999992018012200004+31150+118583FM-12+001699999V0203601N002019999999N001000199+00301+00271102151ADDAA106000231AA224012831GF100995999999999999999999MA1999999101625MD1210381+9999MW1461REMSYN07658338 11910 03602 10030 20027 40215 52038 69921 746// 333 00053 30007 70128=
0185583380999992018012203004+31330+118350FM-12+001699999V0202201N00201017501C9001800199+00471+00451102201ADDAA106999999AA224999999AY141031AY201031GA1081+017501101GA2999+999999101GA3999+999999101GE19AGL   +99999+99999GF108991081999017501999999MA1999999101685MD1210051+9999MW1101REMSYN004BUFR
0204583380999992018012206004+31150+118583FM-12+001699999V0203201N002019999999N008000199+00851+00491101951ADDAY141021AY201021GA1071+012501999GE19AGL   +99999+99999GF107991071999012501999999KA1240N+00231MA1999999101435MD1710251+9999MW1001REMSYN06458338 31658 73202 10085 20049 40195 57025 70040 87/// 333 20023=
0185583380999992018012209004+31330+118350FM-12+001699999V0201101N0010122000199003600199+00821+00501101951ADDAA106999999AA224999999AY101031AY201031GA1021+026001101GA2999+999999101GA3999+999999101GE19AGL   +99999+99999GF102991021999026001999999MA1999999101435MD1410001+9999MW1101REMSYN004BUFR
0181583380999992018012212004+31150+118583FM-12+001699999V0201101N002012200019N002200199+00441+00351101991ADDAY101021AY201021GA1041+999999999GE19AGL   +99999+99999GF104991041999999999999999MA1999999101475MD1210041+9999MW1101REMSYN05458338 31922 41102 10044 20035 40199 52004 71000 84///=
0166583380999992018012218004+31150+118583FM-12+001699999V0200701N00301000301WN000100199+00171+00141102111ADDAY141021AY201021GF109991999999999999999999KA1120M+00921MA1999999101601MD1710031+9999MW1451REMSYN06458338 31/01 90703 10017 20014 30160 40211 57003 74540 333 10092=
0073583380999992018012221004+31330+118350FM-12+001699999V0200201N0030199999999001400199+00401+00381102241ADDAA106999999AA224999999MA1999999101715MD1210131+9999MW1281REMSYN004BUFR
0187583380999992018012300004+31150+118583FM-12+001699999V0200201N003019999999N001500199+00421+00321102461ADDGA1081+012501999GE19AGL   +99999+99999GF108991081999012501999999MA1999999101941MD1210211+9999MW1101REMSYN07658338 31615 80203 10042 20032 30194 40246 52021 710// 88/// 333 00301 30005=
0185583380999992018012303004+31330+118350FM-12+001699999V0200401N00501012501C9003900199+00451+00121102531ADDAA106999999AA224999999AY101031AY201031GA1081+012501101GA2999+999999101GA3999+999999101GE19AGL   +99999+99999GF108991081999012501999999MA1999999102005MD1210071+9999MW1101REMSYN004BUFR
0210583380999992018012306004+31150+118583FM-12+001699999V0200901N004019999999N005000199+00471+00101102381ADDAY101021AY201021GA1081+012501999GE19AGL   +99999+99999GF108991081999012501999999KA1240N+00121MA1999999101861MD1710151+9999MW1101REMSYN07058338 31650 80904 10047 20010 30186 40238 57015 71000 88/// 333 20012=
0185583380999992018012309004+31330+118350FM-12+001699999V0200701N00501012501C9999999999+00421+00091102461ADDAA106999999AA224999999AY101031AY201031GA1081+012501101GA2999+999999101GA3999+999999101GE19AGL   +99999+99999GF108991081999012501999999MA1999999101935MD1210081+9999MW1101REMSYN004BUFR
0153583380999992018012312004+31150+118583FM-12+001699999V0200701N005019999999N008000199+00321+00011102561ADDGA1081+012501999GE19AGL   +99999+99999GF108991081999012501999999MA1999999102035MD1210101+9999REMSYN04858338 32658 80705 10032 20001 40256 52010 88///=
0132583380999992018012318004+31150+118583FM-12+001699999V0200701N00501002401WN011000199+00161-00131102721ADDGF109991999999999999999999KA1120M+00501MA1999999102195MD1710031+9999REMSYN05258338 32/61 90705 10016 21013 40272 57003 333 10050=
0067583380999992018012321004+31330+118350FM-12+001699999V0200701N0050199999999013000199+00121-00241102711ADDAA106999999AA224999999MA1999999102185MD1710011+9999REMSYN004BUFR
0175583380999992018012400004+31150+118583FM-12+001699999V0200701N005019999999N011000199+00071-00291102821ADDGA1081+012501999GE19AGL   +99999+99999GF108991081999012501999999MA1999999102301MD1210111+9999REMSYN07058338 32661 80705 10007 21029 30230 40282 52011 88/// 333 00454 30005=
0185583380999992018012403004+31330+118350FM-12+001699999V0200701N00701026001C9011000199+00071-00381102781ADDAA106999999AA224999999AY171031AY201031GA1081+026001101GA2999+999999101GA3999+999999101GE19AGL   +99999+99999GF108991081999026001999999MA1999999102255MD1710041+9999MW1701REMSYN004BUFR
0227583380999992018012406004+31150+118583FM-12+001699999V0200701N008019999999N007000199-00011-00381102561ADDAA106000021AY171021AY201021GA1081+999999999GE19AGL   +99999+99999GF108991081999999999999999KA1240N-00011MA1999999102041MD1710221+9999MW1701REMSYN07658338 11957 80708 11001 21038 30204 40256 57022 69901 77070 88/// 333 21001=
0210583380999992018012409004+31330+118350FM-12+001699999V0200701N00401004501C9001800199-00101-00171102691ADDAA124999999AJ199999999999999AY171031AY271031GA1081+004501101GA2999+999999101GA3999+999999101GE19AGL   +99999+99999GF108991081999004501999999MA1999999102155MD1210121+9999MW1701REMSYN004BUFREQDQ01  00002PRCP24
0208583380999992018012412004+31150+118583FM-12+001699999V0200701N006019999999N004200199-00121-00221102691ADDAA106002031AY171021AY271021GA1081+004501999GE19AGL   +99999+99999GF108991081999004501999999MA1999999102155MD1410001+9999MW1701REMSYN07058338 11442 80706 11012 21022 40269 54000 60021 77077 88/// 333 92502=
0166583380999992018012418004+31150+118583FM-12+001699999V0200701N00701002401WN003900199-00151-00231102891ADDAY171021AY271021GF109991999999999999999999KA1120M+00161MA1999999102355MD1210071+9999MW1701REMSYN06458338 31/39 90707 11015 21023 40289 52007 77077 333 10016 92506=
0095583380999992018012421004+31330+118350FM-12+001699999V0200701N0070199999999002400199-00171-00241102741ADDAA124060091AJ199999999999999AY171031AY271031MA1999999102205MD1710151+9999MW1701REMSYN004BUFR
0187583380999992018012500004+31150+118583FM-12+001699999V0200701N008019999999N003200199-00151-00221102751ADDGA1081+002501999GE19AGL   +99999+99999GF108991081999002501999999MA1999999102215MD1210011+9999MW1731REMSYN07658338 41332 80708 11015 21022 40275 52001 773// 88/// 333 05152 30000 92509=
0180583380999992018012503004+31330+118350FM-12+001699999V0200701N00801002501C9006000199-00101-00211102761ADDAJ100099100090099AY171031AY271031GA1081+002501101GA2999+999999101GA3999+999999101GE19AGL   +99999+99999GF108991081999002501999999MA1999999102225MD1210011+9999MW1701REMSYN004BUFR
0233583380999992018012506004+31150+118583FM-12+001699999V0200701N006019999999N003100199-00091-00171102631ADDAA106004031AY171021AY271021GA1081+002501999GE19AGL   +99999+99999GF108991081999002501999999KA1240N-00171MA1999999102101MD1710131+9999MW1701REMSYN08258338 11331 80706 11009 21017 30210 40263 57013 60041 77077 88/// 333 21017 92511=
0180583380999992018012509004+31330+118350FM-12+001699999V0200401N00701002501C9004200199-00121-00221102801ADDAJ100129100120099AY171031AY271031GA1081+002501101GA2999+999999101GA3999+999999101GE19AGL   +99999+99999GF108991081999002501999999MA1999999102265MD1210171+9999MW1731REMSYN004BUFR
0208583380999992018012512004+31150+118583FM-12+001699999V0200701N006019999999N002400199-00171-00231103051ADDAA106003031AY171021AY271021GA1081+002501999GE19AGL   +99999+99999GF108991081999002501999999MA1999999102515MD1210251+9999MW1731REMSYN07058338 11324 80706 11017 21023 40305 52025 60031 77377 88/// 333 92513=
0166583380999992018012518004+31150+118583FM-12+001699999V0200401N00301002401WN015000199-00251-00381103331ADDAY171021AY271021GF109991999999999999999999KA1120M-00081MA1999999102795MD1210091+9999MW1701REMSYN06458338 41/65 90403 11025 21038 40333 52009 77077 333 11008 92516=
0084583380999992018012521004+31330+118350FM-12+001699999V0200401N0060199999999021000199-00271-00501103351ADDAJ100169100160099AY171031AY201031MA1999999102815MD1210021+9999MW1001REMSYN004BUFR
0209583380999992018012600004+31150+118583FM-12+001699999V0200701N004019999999N019000199-00281-00561103471ADDAA106000021AA224009431GA1081+004501999GE19AGL   +99999+99999GF108991081999004501999999MA1999999102925MD1210121+9999REMSYN08258338 12469 80704 11028 21056 40347 52012 69901 88/// 333 00751 30000 70094 92516=
0141583380999992018012603004+31330+118350FM-12+001699999V0200701N00401012501C9015000199-00171-00441103461ADDGA1081+012501101GA2999+999999101GA3999+999999101GE19AGL   +99999+99999GF108991081999012501999999MA1999999102925MD1710011+9999REMSYN004BUFR
0182583380999992018012606004+31150+118583FM-12+001699999V0200701N005019999999N014000199-00161-00551103231ADDGA1081+012501999GE19AGL   +99999+99999GF108991081999012501999999KA1240N-00291MA1999999102695MD1710231+9999REMSYN06458338 32664 80705 11016 21055 40323 57023 88/// 333 21029 92516=
0169583380999992018012609004+31330+118350FM-12+001699999V0200701N00501012501C9020000199-00171-00621103171ADDAA124160091AJ199999999999999GA1081+012501101GA2999+999999101GA3999+999999101GE19AGL   +99999+99999GF108991081999012501999999MA1999999102635MD1710061+9999REMSYN004BUFR
0163583380999992018012612004+31150+118583FM-12+001699999V0200701N005019999999N023000199-00211-00561103191ADDGA1081+012501999GE19AGL   +99999+99999GF108991081999012501999999MA1999999102655MD1210021+9999REMSYN05858338 32673 80705 11021 21056 40319 52002 88/// 333 92515=
0172583380999992018012618004+31150+118583FM-12+001699999V0200701N00501002401WN007000199-00291-00421103101ADDAY171021AY201021GF109991999999999999999999KA1120M-00131MA1999999102571MD1710111+9999MW1701REMSYN07058338 41/57 90705 11029 21042 30257 40310 57011 77070 333 11013 92515=
0084583380999992018012621004+31330+118350FM-12+001699999V0200701N0060199999999010000199-00301-00481102851ADDAJ100159100150099AY171031AY271031MA1999999102315MD1710251+9999MW1701REMSYN004BUFR
0221583380999992018012700004+31150+118583FM-12+001699999V0200701N006019999999N002200199-00331-00411102831ADDAA112001031AA224001331GA1081+004501999GE19AGL   +99999+99999GF108991081999004501999999MA1999999102295MD1710021+9999MW1701REMSYN08858338 11422 80706 11033 21041 40283 57002 60012 770// 88/// 333 05651 30000 70013 92515=
0163583380999992018012703004+31330+118350FM-12+001699999V0200701N00501002501C9001900199-00251-00331102781ADDAY171031AY271031GA1081+002501101GA2999+999999101GA3999+999999101GE19AGL   +99999+99999GF108991081999002501999999MA1999999102245MD1710051+9999MW1731REMSYN004BUFR
0210583380999992018012706004+31150+118583FM-12+001699999V0200701N005019999999N001400199-00201-00261102411ADDAY171021AY271021GA1081+002501999GE19AGL   +99999+99999GF108991081999002501999999KA1240N-00341MA1999999101875MD1710371+9999MW1701REMSYN07058338 41314 80705 11020 21026 40241 57037 77077 88/// 333 21034 92521=
0180583380999992018012709004+31330+118350FM-12+001699999V0200701N00401002501C9001700199-00151-00211102331ADDAJ100239100230099AY171031AY271031GA1081+002501101GA2999+999999101GA3999+999999101GE19AGL   +99999+99999GF108991081999002501999999MA1999999101795MD1710081+9999MW1731REMSYN004BUFR
0208583380999992018012712004+31150+118583FM-12+001699999V0200401N002019999999N001700199-00121-00161102441ADDAA106006031AY171021AY271021GA1081+002501999GE19AGL   +99999+99999GF108991081999002501999999MA1999999101905MD1210111+9999MW1701REMSYN07058338 11317 80402 11012 21016 40244 52011 60061 77077 88/// 333 92525=
0166583380999992018012718004+31150+118583FM-12+001699999V0203201N00201002401WN002100199-00171-00211102571ADDAY171021AY271021GF109991999999999999999999KA1120M-00121MA1999999102035MD1410001+9999MW1701REMSYN06458338 41/21 93202 11017 21021 40257 54000 77077 333 11012 92528=
0084583380999992018012721004+31330+118350FM-12+001699999V0202901N0020199999999002900199-00191-00251102581ADDAJ100289100280099AY171031AY201031MA1999999102045MD1210011+9999MW1101REMSYN004BUFR
0204583380999992018012800004+31150+118583FM-12+001699999V0203201N002019999999N001400199-00171-00211102791ADDAA112002031GA1081+004501999GE19AGL   +99999+99999GF108991081999004501999999MA1999999102255MD1210211+9999MW1101REMSYN08258338 11414 83202 11017 21021 40279 52021 60022 710// 88/// 333 00002 30000 92527=
0163583380999992018012803004+31330+118350FM-12+001699999V0203201N00201004501C9002600199-00171-00261102941ADDAY171031AY201031GA1081+004501101GA2999+999999101GA3999+999999101GE19AGL   +99999+99999GF108991081999004501999999MA1999999102405MD1210151+9999MW1701REMSYN004BUFR
0227583380999992018012806004+31150+118583FM-12+001699999V0203201N003019999999N002100199-00181-00261102891ADDAA106000631AY171021AY201021GA1081+004501999GE19AGL   +99999+99999GF108991081999004501999999KA1240N-00211MA1999999102355MD1710051+9999MW1701REMSYN07658338 11421 83203 11018 21026 40289 57005 69961 77070 88/// 333 21021 92527=
0180583380999992018012809004+31330+118350FM-12+001699999V0203201N00201004501C9004000199-00221-00331102931ADDAJ100269100260099AY171031AY271031GA1081+004501101GA2999+999999101GA3999+999999101GE19AGL   +99999+99999GF108991081999004501999999MA1999999102395MD1210041+9999MW1701REMSYN004BUFR
0208583380999992018012812004+31150+118583FM-12+001699999V0202901N002019999999N004900199-00231-00371103101ADDAA106000331AY171021AY271021GA1081+008001999GE19AGL   +99999+99999GF108991081999008001999999MA1999999102565MD1210171+9999MW1701REMSYN07058338 11549 82902 11023 21037 40310 52017 69931 77077 88/// 333 92525=
0160583380999992018012818004+31150+118583FM-12+001699999V0203201N00301002401WN004100199-00341-00621103331ADDAY101021AY201021GF109991999999999999999999KA1120M-00141MA1999999102785MD1210101+9999MW1101REMSYN05858338 31/41 93203 11034 21062 40333 52010 71000 333 11014=
0095583380999992018012821004+31330+118350FM-12+001699999V0202901N0020199999999003700199-00371-00631103241ADDAA124250091AJ199999999999999AY171031AY201031MA1999999102695MD1710091+9999MW1101REMSYN004BUFR
0221583380999992018012900004+31150+118583FM-12+001699999V0202701N001019999999N003100199-00381-00581103321ADDAA112000021AA224000931GA1081+008001999GE19AGL   +99999+99999GF108991081999008001999999MA1999999102775MD1210081+9999MW1101REMSYN08858338 11531 82701 11038 21058 40332 52008 69902 710// 88/// 333 00552 30000 70009 92525=
0185583380999992018012903004+31330+118350FM-12+001699999V0202701N00301012501C9005000199-00191-00701103391ADDAA106999999AA224999999AY101031AY201031GA1071+012501101GA2999+999999101GA3999+999999101GE19AGL   +99999+99999GF107991071999012501999999MA1999999102855MD1210071+9999MW1051REMSYN004BUFR
0204583380999992018012906004+31150+118583FM-12+001699999V0202701N003019999999N004900199-00111-00701103121ADDAY101021AY201021GA1071+012501999GE19AGL   +99999+99999GF107991071999012501999999KA1240N-00431MA1999999102585MD1710271+9999MW1051REMSYN06458338 31649 72703 11011 21070 40312 57027 70500 87/// 333 21043=
0185583380999992018012909004+31330+118350FM-12+001699999V0202901N00101012501C9004100199-00171-00701103121ADDAA106999999AA224999999AY101031AY201031GA1071+012501101GA2999+999999101GA3999+999999101GE19AGL   +99999+99999GF107991071999012501999999MA1999999102585MD1410001+9999MW1051REMSYN004BUFR
0181583380999992018012912004+31150+118583FM-12+001699999V0202501N001019999999N002900199-00511-00721103161ADDAY101021AY201021GA1071+012501999GE19AGL   +99999+99999GF107991071999012501999999MA1999999102615MD1210031+9999MW1101REMSYN05458338 31629 72501 11051 21072 40316 52003 71000 87///=
0160583380999992018012918004+31150+118583FM-12+001699999V0202201N00201002401WN001100199-00731-00801103181ADDAY101021AY201021GF109991999999999999999999KA1120M-00071MA1999999102635MD1710111+9999MW1101REMSYN05858338 31/11 92202 11073 21080 40318 57011 71000 333 11007=
0073583380999992018012921004+31330+118350FM-12+001699999V0202501N0010199999999001600199-00891-01001103051ADDAA106999999AA224999999MA1999999102495MD1710131+9999MW1101REMSYN004BUFR
0143583380999992018013000004+31150+118583FM-12+001699999V0202901N001019999999N001400199-01091-01211103141ADDGF100995999999999999999999MA1999999102585MD1210091+9999MW1281REMSYN07058338 31914 02901 11109 21121 40314 52009 728// 333 05257 31003 92520=
0115583380999992018013003004+31330+118350FM-12+001699999V0203201N0010122000199003500199-00301-00461103231ADDAA106999999AA224999999AY101031AY201031GF100991999999999999999999MA1999999102695MD1210091+9999MW1101REMSYN004BUFR
0160583380999992018013006004+31150+118583FM-12+001699999V0203401N002019999999N004800199+00071-00411102831ADDAY101021AY201021GF100995999999999999999999KA1240N-01121MA1999999102295MD1710391+9999MW1051REMSYN05858338 31948 03402 10007 21041 40283 57039 70500 333 21112=
0185583380999992018013009004+31330+118350FM-12+001699999V0200701N00201026001C9004300199-00041-00581102711ADDAA106999999AA224999999AY101031AY201031GA1051+026001101GA2999+999999101GA3999+999999101GE19AGL   +99999+99999GF105991051999026001999999MA1999999102175MD1710121+9999MW1051REMSYN004BUFR
0187583380999992018013012004+31150+118583FM-12+001699999V0200201N002012200019N002900199-00291-00551102931ADDAY101021AY201021GA1031+999999999GE19AGL   +99999+99999GF103991031999999999999999MA1999999102391MD1210211+9999MW1101REMSYN06058338 31929 30202 11029 21055 30239 40293 52021 71000 83///=
0160583380999992018013018004+31150+118583FM-12+001699999V0201401N00101002401WN002000199-00381-00511103011ADDAY101021AY201021GF109991999999999999999999KA1120M+00121MA1999999102475MD1710071+9999MW1101REMSYN05858338 31/20 91401 11038 21051 40301 57007 71000 333 10012=
0073583380999992018013021004+31330+118350FM-12+001699999V0200201N0010199999999002700199-00291-00541103041ADDAA106999999AA224999999MA1999999102505MD1210031+9999MW1101REMSYN004BUFR
0193583380999992018013100004+31150+118583FM-12+001699999V0202501N001019999999N001900199-00291-00431103161ADDGA1081+017501999GE19AGL   +99999+99999GF108991081999017501999999MA1999999102631MD1210121+9999MW1101REMSYN08258338 31719 82501 11029 21043 30263 40316 52012 710// 88/// 333 00008 30000 92517=
0185583380999992018013103004+31330+118350FM-12+001699999V0202701N00201022501C9003700199-00041-00481103201ADDAA106999999AA224999999AY101031AY201031GA1081+022501101GA2999+999999101GA3999+999999101GE19AGL   +99999+99999GF108991081999022501999999MA1999999102665MD1210041+9999MW1101REMSYN004BUFR
0210583380999992018013106004+31150+118583FM-12+001699999V0202901N002019999999N004000199+00101-00441103041ADDAY101021AY201021GA1081+022501999GE19AGL   +99999+99999GF108991081999022501999999KA1240N-00401MA1999999102511MD1710161+9999MW1051REMSYN07058338 31840 82902 10010 21044 30251 40304 57016 70500 88/// 333 21040=
0185583380999992018013109004+31330+118350FM-12+001699999V0202501N0010122000199004000199+00071-00501103061ADDAA106999999AA224999999AY101031AY201031GA1041+026001101GA2999+999999101GA3999+999999101GE19AGL   +99999+99999GF104991041999026001999999MA1999999102525MD1210021+9999MW1051REMSYN004BUFR
0153583380999992018013112004+31150+118583FM-12+001699999V0202001N001012200019N003400199-00221-00571103201ADDGA1021+999999999GE19AGL   +99999+99999GF102991021999999999999999MA1999999102665MD1210141+9999REMSYN04858338 32934 22001 11022 21057 40320 52014 82///=
0160583380999992018013118004+31150+118583FM-12+001699999V0202501N00201002401WN001500199-00531-00601103131ADDAY101021AY201021GF109991999999999999999999KA1120M+00131MA1999999102585MD1710091+9999MW1101REMSYN05858338 31/15 92502 11053 21060 40313 57009 71000 333 10013=
0073583380999992018013121004+31330+118350FM-12+001699999V0202501N0010199999999001300199-00591-00661103051ADDAA106999999AA224999999MA1999999102505MD1710081+9999MW1101REMSYN004BUFR
0149583380999992018020100004+31150+118583FM-12+001699999V0200701N001019999999N001500199-00811-00901103141ADDGF100995999999999999999999MA1999999102601MD1210081+9999MW1101REMSYN07658338 31915 00701 11081 21090 30260 40314 52008 710// 333 00055 31009 92514=
0115583380999992018020103004+31330+118350FM-12+001699999V0202201N0020122000199004100199+00071-00551103161ADDAA106999999AA224999999AY101031AY201031GF100991999999999999999999MA1999999102625MD1210031+9999MW1101REMSYN004BUFR
0210583380999992018020106004+31150+118583FM-12+001699999V0203401N001019999999N006000199+00351-00401102921ADDAY101021AY201021GA1071+017501999GE19AGL   +99999+99999GF107991071999017501999999KA1240N-00871MA1999999102391MD1710241+9999MW1051REMSYN07058338 31756 73401 10035 21040 30239 40292 57024 70500 87/// 333 21087=
0163583380999992018020109004+31330+118350FM-12+001699999V0200701N00201012501C9007000199+00201-00501102951ADDAA106999999AA224999999GA1071+012501101GA2999+999999101GA3999+999999101GE19AGL   +99999+99999GF107991071999012501999999MA1999999102425MD1210031+9999REMSYN004BUFR
0181583380999992018020112004+31150+118583FM-12+001699999V0200701N002019999999N003100199-00151-00391103031ADDAY101021AY201021GA1071+017501999GE19AGL   +99999+99999GF107991071999017501999999MA1999999102495MD1210071+9999MW1101REMSYN05458338 31731 70702 11015 21039 40303 52007 71000 87///=
0160583380999992018020118004+31150+118583FM-12+001699999V0201101N00101002401WN001700199-00251-00381103181ADDAY101021AY201021GF109991999999999999999999KA1120M+00391MA1999999102645MD1210031+9999MW1101REMSYN05858338 31/17 91101 11025 21038 40318 52003 71000 333 10039=
0073583380999992018020121004+31330+118350FM-12+001699999V0203601N0000199999999001600199-00271-00361103181ADDAA106999999AA224999999MA1999999102645MD1410001+9999MW1101REMSYN004BUFR
0193583380999992018020200004+31150+118583FM-12+001699999V0202501N001019999999N001500199-00341-00421103271ADDGA1071+999999999GE19AGL   +99999+99999GF107991071999999999999999MA1999999102741MD1210091+9999MW1101REMSYN08258338 31915 72501 11034 21042 30274 40327 52009 710// 87/// 333 00105 31012 92509=
0185583380999992018020203004+31330+118350FM-12+001699999V0202901N0030122000199004200199+00261-00391103421ADDAA106999999AA224999999AY101031AY201031GA1041+026001101GA2999+999999101GA3999+999999101GE19AGL   +99999+99999GF104991041999026001999999MA1999999102895MD1210151+9999MW1051REMSYN004BUFR
0204583380999992018020206004+31150+118583FM-12+001699999V0202901N003019999999N006000199+00521-00611103311ADDAY101021AY201021GA1061+999999999GE19AGL   +99999+99999GF106991061999999999999999KA1240N-00371MA1999999102785MD1710111+9999MW1051REMSYN06458338 31956 62903 10052 21061 40331 57011 70500 86/// 333 21037=
0163583380999992018020209004+31330+118350FM-12+001699999V0202901N00301026001C9007000199+00311-00351103371ADDAA106999999AA224999999GA1061+026001101GA2999+999999101GA3999+999999101GE19AGL   +99999+99999GF106991061999026001999999MA1999999102845MD1210061+9999REMSYN004BUFR
0187583380999992018020212004+31150+118583FM-12+001699999V0203201N005019999999N006000199+00161-00351103561ADDAY101021AY201021GA1071+999999999GE19AGL   +99999+99999GF107991071999999999999999MA1999999103031MD1210191+9999MW1101REMSYN06058338 31956 73205 10016 21035 30303 40356 52019 71000 87///=
0132583380999992018020218004+31150+118583FM-12+001699999V0203201N00201002401WN029000199-00201-01181103811ADDGF109991999999999999999999KA1120M+00541MA1999999103265MD1210071+9999REMSYN05258338 32/79 93202 11020 21118 40381 52007 333 10054=
0067583380999992018020221004+31330+118350FM-12+001699999V0202901N0010199999999029000199-00371-01061103711ADDAA106999999AA224999999MA1999999103165MD1710101+9999REMSYN004BUFR
0175583380999992018020300004+31150+118583FM-12+001699999V0200201N003012200019N023000199-00361-00901103831ADDGA1021+999999999GE19AGL   +99999+99999GF102991021999999999999999MA1999999103285MD1210121+9999REMSYN07058338 32973 20203 11036 21090 40383 52012 82/// 333 00600 31026 92507=
0163583380999992018020303004+31330+118350FM-12+001699999V0200701N0030122000199018000199-00091-01001103871ADDAA106999999AA224999999GA1021+026001101GA2999+999999101GA3999+999999101GE19AGL   +99999+99999GF102991021999026001999999MA1999999103335MD1210041+9999REMSYN004BUFR
0182583380999992018020306004+31150+118583FM-12+001699999V0203201N002019999999N022000199-00021-00941103651ADDGA1071+017501999GE19AGL   +99999+99999GF107991071999017501999999KA1240N-00441MA1999999103121MD1710221+9999REMSYN06458338 32772 73202 11002 21094 30312 40365 57022 87/// 333 21044=
0163583380999992018020309004+31330+118350FM-12+001699999V0203401N00201017501C9024000199-00101-01291103541ADDAA106999999AA224999999GA1071+017501101GA2999+999999101GA3999+999999101GE19AGL   +99999+99999GF107991071999017501999999MA1999999103005MD1710111+9999REMSYN004BUFR
0153583380999992018020312004+31150+118583FM-12+001699999V0203401N001019999999N022000199-00201-01081103611ADDGA1071+012501999GE19AGL   +99999+99999GF107991071999012501999999MA1999999103075MD1210061+9999REMSYN04858338 32672 73401 11020 21108 40361 52006 87///=
0132583380999992018020318004+31150+118583FM-12+001699999V0200201N00101002401WN022000199-00601-00861103681ADDGF109991999999999999999999KA1120M+00021MA1999999103135MD1710041+9999REMSYN05258338 32/72 90201 11060 21086 40368 57004 333 10002=
0067583380999992018020321004+31330+118350FM-12+001699999V0203601N0010199999999015000199-00721-00891103631ADDAA106999999AA224999999MA1999999103075MD1710051+9999REMSYN004BUFR
0175583380999992018020400004+31150+118583FM-12+001699999V0202501N001012200019N011000199-00601-00891103741ADDGA1041+999999999GE19AGL   +99999+99999GF104991041999999999999999MA1999999103195MD1210111+9999REMSYN07058338 32961 42501 11060 21089 40374 52011 84/// 333 05152 31035 92505=
0163583380999992018020403004+31330+118350FM-12+001699999V0200701N0020122000199020000199+00051-01101103731ADDAA106999999AA224999999GA1021+026001101GA2999+999999101GA3999+999999101GE19AGL   +99999+99999GF102991021999026001999999MA1999999103195MD1410001+9999REMSYN004BUFR
0176583380999992018020406004+31150+118583FM-12+001699999V0200901N002012200019N025000199+00151-01461103501ADDGA1011+999999999GE19AGL   +99999+99999GF101991011999999999999999KA1240N-00791MA1999999102965MD1710231+9999REMSYN05858338 32975 10902 10015 21146 40350 57023 81/// 333 21079=
0163583380999992018020409004+31330+118350FM-12+001699999V0200701N00101026001C9025000199+00071-01401103471ADDAA106999999AA224999999GA1071+026001101GA2999+999999101GA3999+999999101GE19AGL   +99999+99999GF107991071999026001999999MA1999999102935MD1710041+9999REMSYN004BUFR
0153583380999992018020412004+31150+118583FM-12+001699999V0203401N002019999999N020000199-00071-00961103521ADDGA1071+999999999GE19AGL   +99999+99999GF107991071999999999999999MA1999999102985MD1210051+9999REMSYN04858338 32970 73402 11007 21096 40352 52005 87///=
0138583380999992018020418004+31150+118583FM-12+001699999V0202201N00101002401WN013000199-00461-00791103461ADDGF109991999999999999999999KA1120M+00241MA1999999102931MD1710081+9999REMSYN05858338 32/63 92201 11046 21079 30293 40346 57008 333 10024=
0067583380999992018020421004+31330+118350FM-12+001699999V0202501N0020199999999011000199-00551-00761103431ADDAA106999999AA224999999MA1999999102885MD1710031+9999REMSYN004BUFR
0137583380999992018020500004+31150+118583FM-12+001699999V0202201N002019999999N011000199-00551-00811103521ADDGF100995999999999999999999MA1999999102981MD1210081+9999REMSYN07058338 32961 02202 11055 21081 30298 40352 52008 333 05201 31010 92502=
0093583380999992018020503004+31330+118350FM-12+001699999V0202201N0020122000199018000199+00171-00951103471ADDAA106999999AA224999999GF100991999999999999999999MA1999999102935MD1710041+9999REMSYN004BUFR
0132583380999992018020506004+31150+118583FM-12+001699999V0202501N003019999999N020000199+00401-01051103171ADDGF100995999999999999999999KA1240N-00611MA1999999102645MD1710301+9999REMSYN05258338 32970 02503 10040 21105 40317 57030 333 21061=
0093583380999992018020509004+31330+118350FM-12+001699999V0203201N0030122000199022000199+00371-01101103071ADDAA106999999AA224999999GF100991999999999999999999MA1999999102545MD1710101+9999REMSYN004BUFR
0109583380999992018020512004+31150+118583FM-12+001699999V0202501N002019999999N016000199-00061-00701103191ADDGF100995999999999999999999MA1999999102655MD1210121+9999REMSYN04258338 32966 02502 11006 21070 40319 52012=
0132583380999992018020518004+31150+118583FM-12+001699999V0202701N00201002401WN014000199-00361-00711103201ADDGF109991999999999999999999KA1120M+00481MA1999999102655MD1710041+9999REMSYN05258338 32/64 92702 11036 21071 40320 57004 333 10048=
0067583380999992018020521004+31330+118350FM-12+001699999V0202701N0010199999999015000199-00371-00761103091ADDAA106999999AA224999999MA1999999102545MD1710111+9999REMSYN004BUFR
0131583380999992018020600004+31150+118583FM-12+001699999V0200701N003019999999N007000199-00481-00661103201ADDGF100995999999999999999999MA1999999102655MD1210111+9999REMSYN06458338 32957 00703 11048 21066 40320 52011 333 05301 31014 92501=
0093583380999992018020603004+31330+118350FM-12+001699999V0200701N0020122000199010000199+00121-00441103271ADDAA106999999AA224999999GF100991999999999999999999MA1999999102735MD1210071+9999REMSYN004BUFR
0132583380999992018020606004+31150+118583FM-12+001699999V0200401N002019999999N011000199+00401-00351102951ADDGF100995999999999999999999KA1240N-00591MA1999999102425MD1710321+9999REMSYN05258338 32961 00402 10040 21035 40295 57032 333 21059=
0163583380999992018020609004+31330+118350FM-12+001699999V0200701N0040122000199012000199+00321-00371102781ADDAA106999999AA224999999GA1021+026001101GA2999+999999101GA3999+999999101GE19AGL   +99999+99999GF102991021999026001999999MA1999999102255MD1710171+9999REMSYN004BUFR
0159583380999992018020612004+31150+118583FM-12+001699999V0200701N003012200019N010000199-00041-00451102821ADDGA1031+999999999GE19AGL   +99999+99999GF103991031999999999999999MA1999999102291MD1210041+9999REMSYN05458338 32960 30703 11004 21045 30229 40282 52004 83///=
0132583380999992018020618004+31150+118583FM-12+001699999V0201101N00401002401WN015000199-00121-00671102641ADDGF109991999999999999999999KA1120M+00471MA1999999102105MD1710171+9999REMSYN05258338 32/65 91104 11012 21067 40264 57017 333 10047=
0067583380999992018020621004+31330+118350FM-12+001699999V0201101N0020199999999011000199-00351-00651102541ADDAA106999999AA224999999MA1999999102005MD1710101+9999REMSYN004BUFR
0175583380999992018020700004+31150+118583FM-12+001699999V0200701N002019999999N008000199-00311-00561102631ADDGA1071+017501999GE19AGL   +99999+99999GF107991071999017501999999MA1999999102101MD1210081+9999REMSYN07058338 32758 70702 11031 21056 30210 40263 52008 87/// 333 05602 31039=
0163583380999992018020703004+31330+118350FM-12+001699999V0202901N00201017501C9011000199+00271-00251102711ADDAA106999999AA224999999GA1071+017501101GA2999+999999101GA3999+999999101GE19AGL   +99999+99999GF107991071999017501999999MA1999999102185MD1210091+9999REMSYN004BUFR
0182583380999992018020706004+31150+118583FM-12+001699999V0202201N002019999999N012000199+00591-00351102441ADDGA1071+999999999GE19AGL   +99999+99999GF107991071999999999999999KA1240N-00401MA1999999101921MD1710271+9999REMSYN06458338 32962 72202 10059 21035 30192 40244 57027 87/// 333 21040=
0163583380999992018020709004+31330+118350FM-12+001699999V0202901N00201026001C9010000199+00621-00221102411ADDAA106999999AA224999999GA1071+026001101GA2999+999999101GA3999+999999101GE19AGL   +99999+99999GF107991071999026001999999MA1999999101895MD1710031+9999REMSYN004BUFR
0181583380999992018020712004+31150+118583FM-12+001699999V0202701N002019999999N006000199+00241-00121102591ADDAY101021AY201021GA1071+999999999GE19AGL   +99999+99999GF107991071999999999999999MA1999999102065MD1210171+9999MW1101REMSYN05458338 31956 72702 10024 21012 40259 52017 71000 87///=
0132583380999992018020718004+31150+118583FM-12+001699999V0200201N00201002401WN010000199+00191-00461102701ADDGF109991999999999999999999KA1120M+00761MA1999999102175MD1410001+9999REMSYN05258338 32/60 90202 10019 21046 40270 54000 333 10076=
0073583380999992018020721004+31330+118350FM-12+001699999V0201101N0010199999999007000199-00271-00501102681ADDAA106999999AA224999999MA1999999102145MD1710021+9999MW1101REMSYN004BUFR
0137583380999992018020800004+31150+118583FM-12+001699999V0200701N002019999999N006000199-00271-00491102751ADDGF100995999999999999999999MA1999999102215MD1210061+9999MW1101REMSYN06458338 31956 00702 11027 21049 40275 52006 710// 333 00100 31017=
0115583380999992018020803004+31330+118350FM-12+001699999V0200701N0020122000199007000199+00301-00341102671ADDAA106999999AA224999999AY101031AY201031GF100991999999999999999999MA1999999102145MD1710071+9999MW1051REMSYN004BUFR
0182583380999992018020806004+31150+118583FM-12+001699999V0201101N003012200019N009000199+00721-00841102201ADDGA1021+999999999GE19AGL   +99999+99999GF102991021999999999999999KA1240N-00321MA1999999101691MD1710461+9999REMSYN06458338 32959 21103 10072 21084 30169 40220 57046 82/// 333 21032=
0163583380999992018020809004+31330+118350FM-12+001699999V0200401N00201026001C9011000199+00601-00391102111ADDAA106999999AA224999999GA1061+026001101GA2999+999999101GA3999+999999101GE19AGL   +99999+99999GF106991061999026001999999MA1999999101595MD1710101+9999REMSYN004BUFR
0153583380999992018020812004+31150+118583FM-12+001699999V0200901N003019999999N010000199+00251-00361102131ADDGA1071+999999999GE19AGL   +99999+99999GF107991071999999999999999MA1999999101605MD1210021+9999REMSYN04858338 32960 70903 10025 21036 40213 52002 87///=
0160583380999992018020818004+31150+118583FM-12+001699999V0201101N004019999999N999999999+00181-00251101961ADDAY101021AY201021GF109991999999999999999999KA1120M+00791MA1999999101435MD1710051+9999MW1101REMSYN05858338 31/55 91104 10018 21025 40196 57005 71000 333 10079=
0073583380999992018020821004+31330+118350FM-12+001699999V0201101N0040199999999004200199+00251-00141101901ADDAA106999999AA224999999MA1999999101375MD1710061+9999MW1101REMSYN004BUFR
0181583380999992018020900004+31150+118583FM-12+001699999V0201101N002019999999N004100199+00241-00121101941ADDGA1081+999999999GE19AGL   +99999+99999GF108991081999999999999999MA1999999101415MD1210031+9999MW1101REMSYN07058338 31941 81102 10024 21012 40194 52003 710// 88/// 333 05805 31005=
0185583380999992018020903004+31330+118350FM-12+001699999V0200701N00101026001C9004500199+00611+00001101941ADDAA106999999AA224999999AY101031AY201031GA1081+026001101GA2999+999999101GA3999+999999101GE19AGL   +99999+99999GF108991081999026001999999MA1999999101425MD1210011+9999MW1051REMSYN004BUFR
0204583380999992018020906004+31150+118583FM-12+001699999V0203401N002019999999N999999999+00951+00091101771ADDAY101021AY201021GA1051+999999999GE19AGL   +99999+99999GF105991051999999999999999KA1240N+00151MA1999999101265MD1710171+9999MW1051REMSYN06458338 31955 53402 10095 20009 40177 57017 70500 85/// 333 20015=
0185583380999992018020909004+31330+118350FM-12+001699999V0203201N00101026001C9999999999+00871+00251101871ADDAA106999999AA224999999AY101031AY201031GA1081+026001101GA2999+999999101GA3999+999999101GE19AGL   +99999+99999GF108991081999026001999999MA1999999101355MD1210101+9999MW1051REMSYN004BUFR
0187583380999992018020912004+31150+118583FM-12+001699999V0201401N001019999999N003700199+00651+00261102041ADDAY101021AY201021GA1081+999999999GE19AGL   +99999+99999GF108991081999999999999999MA1999999101531MD1210171+9999MW1101REMSYN06058338 31937 81401 10065 20026 30153 40204 52017 71000 88///=
0160583380999992018020918004+31150+118583FM-12+001699999V0200401N00201002401WN003400199+00611+00271102291ADDAY101021AY201021GF109991999999999999999999KA1120M+00981MA1999999101775MD1210121+9999MW1101REMSYN05858338 31/34 90402 10061 20027 40229 52012 71000 333 10098=
0073583380999992018020921004+31330+118350FM-12+001699999V0200201N0030199999999003300199+00551+00221102301ADDAA106999999AA224999999MA1999999101785MD1210011+9999MW1101REMSYN004BUFR
0181583380999992018021000004+31150+118583FM-12+001699999V0200201N003019999999N003000199+00461+00131102611ADDGA1081+999999999GE19AGL   +99999+99999GF108991081999999999999999MA1999999102085MD1210311+9999MW1101REMSYN07058338 31930 80203 10046 20013 40261 52031 710// 88/// 333 00702 30035=
0185583380999992018021003004+31330+118350FM-12+001699999V0200401N00401026001C9999999999+00511-00071102881ADDAA106999999AA224999999AY101031AY201031GA1071+026001101GA2999+999999101GA3999+999999101GE19AGL   +99999+99999GF107991071999026001999999MA1999999102355MD1210261+9999MW1051REMSYN004BUFR
0182583380999992018021006004+31150+118583FM-12+001699999V0200401N004019999999N011000199+00561-00481102741ADDGA1071+999999999GE19AGL   +99999+99999GF107991071999999999999999KA1240N+00461MA1999999102231MD1710131+9999REMSYN06458338 32961 70404 10056 21048 30223 40274 57013 87/// 333 20046=
0163583380999992018021009004+31330+118350FM-12+001699999V0200401N00201026001C9015000199+00571-00531102821ADDAA106999999AA224999999GA1071+026001101GA2999+999999101GA3999+999999101GE19AGL   +99999+99999GF107991071999026001999999MA1999999102295MD1210071+9999REMSYN004BUFR
0153583380999992018021012004+31150+118583FM-12+001699999V0200401N001019999999N016000199+00361-00371102991ADDGA1071+999999999GE19AGL   +99999+99999GF107991071999999999999999MA1999999102465MD1210171+9999REMSYN04858338 32966 70401 10036 21037 40299 52017 87///=
0138583380999992018021018004+31150+118583FM-12+001699999V0202501N00101002401WN011000199+00011-00241103071ADDGF109991999999999999999999KA1120M+00621MA1999999102551MD1710041+9999REMSYN05858338 32/61 92501 10001 21024 30255 40307 57004 333 10062=
0073583380999992018021021004+31330+118350FM-12+001699999V0202501N0020199999999006000199-00201-00321102981ADDAA106999999AA224999999MA1999999102445MD1710091+9999MW1101REMSYN004BUFR
0137583380999992018021100004+31150+118583FM-12+001699999V0202201N002019999999N002900199-00171-00251103101ADDGF100995999999999999999999MA1999999102565MD1210111+9999MW1101REMSYN06458338 31929 02202 11017 21025 40310 52011 710// 333 00556 31020=
0093583380999992018021103004+31330+118350FM-12+001699999V0202201N0030122000199010000199+00571-00251103111ADDAA106999999AA224999999GF100991999999999999999999MA1999999102585MD1210021+9999REMSYN004BUFR
0132583380999992018021106004+31150+118583FM-12+001699999V0202901N004019999999N012000199+00991-00561102761ADDGF100995999999999999999999KA1240N-00291MA1999999102245MD1710351+9999REMSYN05258338 32962 02904 10099 21056 40276 57035 333 21029=
0093583380999992018021109004+31330+118350FM-12+001699999V0202901N0040122000199013000199+00861-00461102751ADDAA106999999AA224999999GF100991999999999999999999MA1999999102235MD1710011+9999REMSYN004BUFR
0109583380999992018021112004+31150+118583FM-12+001699999V0202901N003019999999N014000199+00561-00451102981ADDGF100995999999999999999999MA1999999102455MD1210231+9999REMSYN04258338 32964 02903 10056 21045 40298 52023=
0138583380999992018021118004+31150+118583FM-12+001699999V0203401N00201002401WN017000199+00261-01131103231ADDGF109991999999999999999999KA1120M+01031MA1999999102711MD1210041+9999REMSYN05858338 32/67 93402 10026 21113 30271 40323 52004 333 10103=
0067583380999992018021121004+31330+118350FM-12+001699999V0202501N0020199999999006000199-00171-00781103231ADDAA106999999AA224999999MA1999999102695MD1410001+9999REMSYN004BUFR
0125583380999992018021200004+31150+118583FM-12+001699999V0202201N002019999999N012000199-00161-00561103291ADDGF100995999999999999999999MA1999999102755MD1210061+9999REMSYN05858338 32962 02202 11016 21056 40329 52006 333 00200 31036=
0093583380999992018021203004+31330+118350FM-12+001699999V0202901N0070122000199022000199+00601-01411103331ADDAA106999999AA224999999GF100991999999999999999999MA1999999102805MD1210041+9999REMSYN004BUFR
0176583380999992018021206004+31150+118583FM-12+001699999V0202901N008012200019N030000199+00781-01381103011ADDGA1021+999999999GE19AGL   +99999+99999GF102991021999999999999999KA1240N-00321MA1999999102495MD1710321+9999REMSYN05858338 32980 22908 10078 21138 40301 57032 82/// 333 21032=
0163583380999992018021209004+31330+118350FM-12+001699999V0202901N0050122000199030000199+00851-00991102941ADDAA106999999AA224999999GA1021+026001101GA2999+999999101GA3999+999999101GE19AGL   +99999+99999GF102991021999026001999999MA1999999102425MD1710071+9999REMSYN004BUFR
0153583380999992018021212004+31150+118583FM-12+001699999V0202901N003012200019N019000199+00521-00831102961ADDGA1021+999999999GE19AGL   +99999+99999GF102991021999999999999999MA1999999102435MD1210021+9999REMSYN04858338 32969 22903 10052 21083 40296 52002 82///=
0132583380999992018021218004+31150+118583FM-12+001699999V0202201N00201002401WN020000199-00431-01221102821ADDGF109991999999999999999999KA1120M+00931MA1999999102285MD1710141+9999REMSYN05258338 32/70 92202 11043 21122 40282 57014 333 10093=
0067583380999992018021221004+31330+118350FM-12+001699999V0202201N0020199999999024000199-00071-00751102771ADDAA106999999AA224999999MA1999999102235MD1710051+9999REMSYN004BUFR
0131583380999992018021300004+31150+118583FM-12+001699999V0201101N001019999999N024000199-00011-00511102741ADDGF100995999999999999999999MA1999999102221MD1710031+9999REMSYN06458338 32974 01101 11001 21051 30222 40274 57003 333 05602 31040=
0093583380999992018021303004+31330+118350FM-12+001699999V0201801N0020122000199029000199+01051-00731102571ADDAA106999999AA224999999GF100991999999999999999999MA1999999102055MD1710161+9999REMSYN004BUFR
0138583380999992018021306004+31150+118583FM-12+001699999V0202701N002019999999N028000199+01431-00661102161ADDGF100995999999999999999999KA1240N-00571MA1999999101651MD1710411+9999REMSYN05858338 32978 02702 10143 21066 30165 40216 57041 333 21057=
0093583380999992018021309004+31330+118350FM-12+001699999V0202901N0010122000199028000199+01511-00591101921ADDAA106999999AA224999999GF100991999999999999999999MA1999999101425MD1710241+9999REMSYN004BUFR
0109583380999992018021312004+31150+118583FM-12+001699999V0200901N003019999999N015000199+00751-00171101901ADDGF100995999999999999999999MA1999999101385MD1710021+9999REMSYN04258338 32965 00903 10075 21017 40190 57002=
0132583380999992018021318004+31150+118583FM-12+001699999V0202201N00201002401WN019000199+00681-00321101761ADDGF109991999999999999999999KA1120M+01571MA1999999101245MD1710111+9999REMSYN05258338 32/69 92202 10068 21032 40176 57011 333 10157=
0067583380999992018021321004+31330+118350FM-12+001699999V0201401N0030199999999020000199+00221-00211101661ADDAA106999999AA224999999MA1999999101135MD1710101+9999REMSYN004BUFR
0175583380999992018021400004+31150+118583FM-12+001699999V0201101N002019999999N015000199+00421-00061101781ADDGA1071+012501999GE19AGL   +99999+99999GF107991071999012501999999MA1999999101271MD1210111+9999REMSYN07058338 32665 71102 10042 21006 30127 40178 52011 87/// 333 06004 31005=
0163583380999992018021403004+31330+118350FM-12+001699999V0201401N0010122000199016000199+01522+00111101761ADDAA106999999AA224999999GA1031+026001101GA2999+999999101GA3999+999999101GE19AGL   +99999+99999GF103991031999026001999999MA1999999101265MD1710011+9999REMSYN004BUFR
0176583380999992018021406004+31150+118583FM-12+001699999V0200901N002019999999N017000199+01721+00121101381ADDGA1071+999999999GE19AGL   +99999+99999GF107991071999999999999999KA1240N+00181MA1999999100885MD1710381+9999REMSYN05858338 32967 70902 10172 20012 40138 57038 87/// 333 20018=
0163583380999992018021409004+31330+118350FM-12+001699999V0201101N00201026001C9008000199+01471+00361101371ADDAA106999999AA224999999GA1081+026001101GA2999+999999101GA3999+999999101GE19AGL   +99999+99999GF108991081999026001999999MA1999999100875MD1710011+9999REMSYN004BUFR
0153583380999992018021412004+31150+118583FM-12+001699999V0200701N003019999999N008000199+01361+00421101461ADDGA1081+999999999GE19AGL   +99999+99999GF108991081999999999999999MA1999999100965MD1210091+9999REMSYN04858338 32958 80703 10136 20042 40146 52009 88///=
0138583380999992018021418004+31150+118583FM-12+001699999V0200401N00401002401WN011000199+01081+00361101801ADDGF109991999999999999999999KA1120M+01821MA1999999101301MD1210061+9999REMSYN05858338 32/61 90404 10108 20036 30130 40180 52006 333 10182=
0067583380999992018021421004+31330+118350FM-12+001699999V0200701N0040199999999008000199+00761+00331101921ADDAA106999999AA224999999MA1999999101405MD1210121+9999REMSYN004BUFR
0209583380999992018021500004+31150+118583FM-12+001699999V0200701N004019999999N006000199+00701+00431102131ADDAA106000021AA224000021GA1081+012501999GE19AGL   +99999+99999GF108991081999012501999999MA1999999101615MD1210211+9999MW1601REMSYN07658338 11656 80704 10070 20043 40213 52021 69901 760// 88/// 333 00403 79999=
0163583380999992018021503004+31330+118350FM-12+001699999V0200701N00401008001C9007000199+00601+00421102221ADDAY161031AY261031GA1081+008001101GA2999+999999101GA3999+999999101GE19AGL   +99999+99999GF108991081999008001999999MA1999999101705MD1210081+9999MW1601REMSYN004BUFR
0227583380999992018021506004+31150+118583FM-12+001699999V0200701N005019999999N003900199+00571+00431102011ADDAA106000631AY161021AY261021GA1081+004501999GE19AGL   +99999+99999GF108991081999004501999999KA1240N+00571MA1999999101501MD1710211+9999MW1601REMSYN07658338 11439 80705 10057 20043 30150 40201 57021 69961 76066 88/// 333 20057=
0163583380999992018021509004+31330+118350FM-12+001699999V0200701N00401004501C9003300199+00551+00451102041ADDAY161031AY261031GA1081+004501101GA2999+999999101GA3999+999999101GE19AGL   +99999+99999GF108991081999004501999999MA1999999101525MD1210031+9999MW1601REMSYN004BUFR
0204583380999992018021512004+31150+118583FM-12+001699999V0200701N004019999999N004400199+00541+00441102051ADDAA106000931AY161021AY261021GA1081+004501999GE19AGL   +99999+99999GF108991081999004501999999MA1999999101541MD1210011+9999MW1601REMSYN06658338 11444 80704 10054 20044 30154 40205 52001 69991 76066 88///=
0177583380999992018021518004+31150+118583FM-12+001699999V0200701N00401002401WN004400199+00451+00361101921ADDAA106001031AY101021AY201021GF109991999999999999999999KA1120M+01071MA1999999101405MD1710131+9999MW1101REMSYN06458338 11/44 90704 10045 20036 40192 57013 60011 71000 333 10107=
0062583380999992018021521004+31330+118350FM-12+001699999V0200701N0030199999999003600199+00401+00331101851ADDAA124004531MA1999999101335MD1710071+9999MW1101REMSYN004BUFR
0215583380999992018021600004+31150+118583FM-12+001699999V0203601N003019999999N003700199+00391+00331102061ADDAA106003031AA224005331GA1081+004501999GE19AGL   +99999+99999GF108991081999004501999999MA1999999101545MD1210211+9999MW1601REMSYN08258338 11437 83603 10039 20033 40206 52021 60031 760// 88/// 333 05153 30043 70053=
0163583380999992018021603004+31330+118350FM-12+001699999V0201101N00201004501C9006000199+00521+00401102101ADDAY161031AY201031GA1081+004501101GA2999+999999101GA3999+999999101GE19AGL   +99999+99999GF108991081999004501999999MA1999999101585MD1210041+9999MW1101REMSYN004BUFR
0221583380999992018021606004+31150+118583FM-12+001699999V0202901N001019999999N006000199+00651+00431102051ADDAA106000021AY161021AY201021GA1081+004501999GE19AGL   +99999+99999GF108991081999004501999999KA1240N+00381MA1999999101535MD1710051+9999MW1101REMSYN07058338 11456 82901 10065 20043 40205 57005 69901 71060 88/// 333 20038=
0185583380999992018021609004+31330+118350FM-12+001699999V0203601N00101012501C9007000199+00701+00421102161ADDAA106999999AA224999999AY101031AY201031GA1081+012501101GA2999+999999101GA3999+999999101GE19AGL   +99999+99999GF108991081999012501999999MA1999999101645MD1210111+9999MW1101REMSYN004BUFR
0187583380999992018021612004+31150+118583FM-12+001699999V0201101N002019999999N003400199+00571+00431102271ADDAY101021AY201021GA1081+012501999GE19AGL   +99999+99999GF108991081999012501999999MA1999999101761MD1210111+9999MW1101REMSYN06058338 31634 81102 10057 20043 30176 40227 52011 71000 88///=
0183583380999992018021618004+31150+118583FM-12+001699999V0201101N00301002401WN006000199+00561+00381102441ADDAA106000131AY101021AY201021GF109991999999999999999999KA1120M+00721MA1999999101931MD1210041+9999MW1101REMSYN07058338 11/56 91103 10056 20038 30193 40244 52004 69911 71000 333 10072=
0062583380999992018021621004+31330+118350FM-12+001699999V0201101N0060199999999999999999+00501+00371102411ADDAA124000931MA1999999101895MD1710031+9999MW1101REMSYN004BUFR
0209583380999992018021700004+31150+118583FM-12+001699999V0201101N006019999999N008000199+00521+00341102371ADDAA112000131AA224000131GA1081+012501999GE19AGL   +99999+99999GF108991081999012501999999MA1999999101861MD1710041+9999REMSYN08258338 12658 81106 10052 20034 30186 40237 57004 69912 88/// 333 00301 30048 70001=
0163583380999992018021703004+31330+118350FM-12+001699999V0201101N0080122000199010000199+00871+00171102221ADDAA106999999AA224999999GA1021+012501101GA2999+999999101GA3999+999999101GE19AGL   +99999+99999GF102991021999012501999999MA1999999101705MD1710151+9999REMSYN004BUFR
0132583380999992018021706004+31150+118583FM-12+001699999V0200901N007019999999N016000199+01191+00151101951ADDGF100995999999999999999999KA1240N+00491MA1999999101445MD1710271+9999REMSYN05258338 32966 00907 10119 20015 40195 57027 333 20049=
0093583380999992018021709004+31330+118350FM-12+001699999V0200901N0070122000199013000199+01121+00141101921ADDAA106999999AA224999999GF100991999999999999999999MA1999999101415MD1710031+9999REMSYN004BUFR
0153583380999992018021712004+31150+118583FM-12+001699999V0201101N010019999999N020000199+00781+00031101771ADDGA1051+999999999GE19AGL   +99999+99999GF105991051999999999999999MA1999999101255MD1710151+9999REMSYN04858338 32970 51110 10078 20003 40177 57015 85///=
0132583380999992018021718004+31150+118583FM-12+001699999V0201101N00501002401WN010000199+00601+00321101821ADDGF109991999999999999999999KA1120M+01241MA1999999101305MD1710091+9999REMSYN05258338 32/60 91105 10060 20032 40182 57009 333 10124=
0062583380999992018021721004+31330+118350FM-12+001699999V0200401N0020199999999006000199+00571+00451101751ADDAA124000631MA1999999101235MD1710071+9999MW1101REMSYN004BUFR
0215583380999992018021800004+31150+118583FM-12+001699999V0203601N002019999999N006000199+00611+00461102011ADDAA106000631AA224000631GA1081+004501999GE19AGL   +99999+99999GF108991081999004501999999MA1999999101495MD1210251+9999MW1601REMSYN08258338 11456 83602 10061 20046 40201 52025 69961 760// 88/// 333 05401 30040 70006=
0163583380999992018021803004+31330+118350FM-12+001699999V0203401N00101004501C9002500199+00621+00531102081ADDAY161031AY261031GA1081+004501101GA2999+999999101GA3999+999999101GE19AGL   +99999+99999GF108991081999004501999999MA1999999101565MD1210071+9999MW1601REMSYN004BUFR
0227583380999992018021806004+31150+118583FM-12+001699999V0203401N003019999999N002400199+00611+00521101911ADDAA106001031AY161021AY261021GA1081+004501999GE19AGL   +99999+99999GF108991081999004501999999KA1240N+00541MA1999999101401MD1710171+9999MW1601REMSYN07658338 11424 83403 10061 20052 30140 40191 57017 60011 76066 88/// 333 20054=
0163583380999992018021809004+31330+118350FM-12+001699999V0203401N00201004501C9002200199+00551+00501102011ADDAY161031AY261031GA1081+004501101GA2999+999999101GA3999+999999101GE19AGL   +99999+99999GF108991081999004501999999MA1999999101495MD1210101+9999MW1601REMSYN004BUFR
0204583380999992018021812004+31150+118583FM-12+001699999V0203201N002019999999N001400199+00521+00491102161ADDAA106005031AY161021AY261021GA1081+004501999GE19AGL   +99999+99999GF108991081999004501999999MA1999999101651MD1210151+9999MW1601REMSYN06658338 11414 83202 10052 20049 30165 40216 52015 60051 76066 88///=
0177583380999992018021818004+31150+118583FM-12+001699999V0200201N00201002401WN004400199+00491+00451102281ADDAA106002031AY101021AY201021GF109991999999999999999999KA1120M+00651MA1999999101765MD1210031+9999MW1101REMSYN06458338 11/44 90202 10049 20045 40228 52003 60021 71000 333 10065=
0062583380999992018021821004+31330+118350FM-12+001699999V0200401N0010199999999003000199+00511+00481102091ADDAA124007631MA1999999101575MD1710191+9999MW1101REMSYN004BUFR
0209583380999992018021900004+31150+118583FM-12+001699999V0200701N003019999999N002200199+00511+00481102171ADDAA106000131AA224007631GA1081+004501999GE19AGL   +99999+99999GF108991081999004501999999MA1999999101655MD1210081+9999MW1601REMSYN07658338 11422 80703 10051 20048 40217 52008 69911 760// 88/// 333 00251 70076=
0163583380999992018021903004+31330+118350FM-12+001699999V0200201N00201004501C9003400199+00471+00441102271ADDAY161031AY261031GA1081+004501101GA2999+999999101GA3999+999999101GE19AGL   +99999+99999GF108991081999004501999999MA1999999101755MD1210101+9999MW1601REMSYN004BUFR
0221583380999992018021906004+31150+118583FM-12+001699999V0200201N003019999999N999999999+00491+00431102091ADDAA106006031AY161021AY261021GA1081+004501999GE19AGL   +99999+99999GF108991081999004501999999KA1240N+00471MA1999999101575MD1710181+9999MW1601REMSYN07058338 11455 80203 10049 20043 40209 57018 60061 76066 88/// 333 20047=
0163583380999992018021909004+31330+118350FM-12+001699999V0200201N00201004501C9007000199+00551+00491102131ADDAY161031AY261031GA1081+004501101GA2999+999999101GA3999+999999101GE19AGL   +99999+99999GF108991081999004501999999MA1999999101615MD1210041+9999MW1601REMSYN004BUFR
0198583380999992018021912004+31150+118583FM-12+001699999V0209999C999999999999N001400199+00581+00541102261ADDAA106002031AY161021AY261021GA1081+004501999GE19AGL   +99999+99999GF108991081999004501999999MA1999999101745MD1210131+9999MW1601REMSYN06058338 11414 80000 10058 20054 40226 52013 60021 76066 88///=
0177583380999992018021918004+31150+118583FM-12+001699999V0201101N00401002401WN004900199+00501+00431102141ADDAA106000431AY101021AY201021GF109991999999999999999999KA1120M+00581MA1999999101625MD1710131+9999MW1101REMSYN06458338 11/49 91104 10050 20043 40214 57013 69941 71000 333 10058=
0073583380999992018021921004+31330+118350FM-12+001699999V0200401N0030199999999002500199+00461+00401102241ADDAA106999999AA224007731MA1999999101725MD1210101+9999MW1101REMSYN004BUFR
0215583380999992018022000004+31150+118583FM-12+001699999V0200901N004019999999N001600199+00481+00441102191ADDAA106000131AA224007831GA1081+004501999GE19AGL   +99999+99999GF108991081999004501999999MA1999999101675MD1710051+9999MW1601REMSYN08258338 11416 80904 10048 20044 40219 57005 69911 760// 88/// 333 00000 30049 70078=
0163583380999992018022003004+31330+118350FM-12+001699999V0200401N00301004501C9003300199+00521+00441102271ADDAY161031AY261031GA1081+004501101GA2999+999999101GA3999+999999101GE19AGL   +99999+99999GF108991081999004501999999MA1999999101755MD1210081+9999MW1601REMSYN004BUFR
0221583380999992018022006004+31150+118583FM-12+001699999V0200701N005019999999N001700199+00501+00461101951ADDAA106007031AY161021AY261021GA1081+002501999GE19AGL   +99999+99999GF108991081999002501999999KA1240N+00461MA1999999101435MD1710321+9999MW1631REMSYN07058338 11317 80705 10050 20046 40195 57032 60071 76366 88/// 333 20046=
0163583380999992018022009004+31330+118350FM-12+001699999V0200701N00501002501C9002500199+00471+00401102051ADDAY161031AY261031GA1081+002501101GA2999+999999101GA3999+999999101GE19AGL   +99999+99999GF108991081999002501999999MA1999999101535MD1210101+9999MW1611REMSYN004BUFR
0198583380999992018022012004+31150+118583FM-12+001699999V0200701N006019999999N006000199+00381+00261102341ADDAA106008031AY161021AY261021GA1081+002501999GE19AGL   +99999+99999GF108991081999002501999999MA1999999101815MD1210281+9999MW1611REMSYN06058338 11356 80706 10038 20026 40234 52028 60081 76166 88///=
0149583380999992018022018004+31150+118583FM-12+001699999V0200701N00301002401WN009000199+00291+00201102451ADDAA106000431GF109991999999999999999999KA1120M+00541MA1999999101925MD1710121+9999REMSYN05858338 12/59 90703 10029 20020 40245 57012 69941 333 10054=
0067583380999992018022021004+31330+118350FM-12+001699999V0200401N0020199999999008000199+00311+00211102481ADDAA106999999AA224015031MA1999999101955MD1210031+9999REMSYN004BUFR
0215583380999992018022100004+31150+118583FM-12+001699999V0200701N003019999999N004000199+00351+00281102611ADDAA112000431AA224014931GA1081+004501999GE19AGL   +99999+99999GF108991081999004501999999MA1999999102085MD1210131+9999MW1101REMSYN08258338 11440 80703 10035 20028 40261 52013 69942 710// 88/// 333 00451 30033 70149=
0163583380999992018022103004+31330+118350FM-12+001699999V0200401N00201008001C9008000199+00501+00311102651ADDAA106999999AA224999999GA1081+008001101GA2999+999999101GA3999+999999101GE19AGL   +99999+99999GF108991081999008001999999MA1999999102125MD1210041+9999REMSYN004BUFR
0176583380999992018022106004+31150+118583FM-12+001699999V0200201N002019999999N007000199+00521+00341102461ADDGA1081+008001999GE19AGL   +99999+99999GF108991081999008001999999KA1240N+00291MA1999999101945MD1710191+9999REMSYN05858338 32557 80202 10052 20034 40246 57019 88/// 333 20029=
0163583380999992018022109004+31330+118350FM-12+001699999V0200401N00101004501C9004000199+00471+00381102471ADDAY161031AY201031GA1081+004501101GA2999+999999101GA3999+999999101GE19AGL   +99999+99999GF108991081999004501999999MA1999999101945MD1210011+9999MW1601REMSYN004BUFR
0198583380999992018022112004+31150+118583FM-12+001699999V0200401N002019999999N004100199+00471+00371102561ADDAA106000431AY161021AY201021GA1081+004501999GE19AGL   +99999+99999GF108991081999004501999999MA1999999102035MD1210091+9999MW1101REMSYN06058338 11441 80402 10047 20037 40256 52009 69941 71060 88///=
0160583380999992018022118004+31150+118583FM-12+001699999V0200201N00101002401WN003100199+00431+00341102651ADDAY101021AY201021GF109991999999999999999999KA1120M+00551MA1999999102125MD1210021+9999MW1101REMSYN05858338 31/31 90201 10043 20034 40265 52002 71000 333 10055=
0073583380999992018022121004+31330+118350FM-12+001699999V0200701N0010199999999003100199+00421+00321102541ADDAA106999999AA224000431MA1999999102015MD1710111+9999MW1101REMSYN004BUFR
0198583380999992018022200004+31150+118583FM-12+001699999V0203601N001019999999N002600199+00441+00351102681ADDAA124000431GA1081+008001999GE19AGL   +99999+99999GF108991081999008001999999MA1999999102155MD1210141+9999MW1101REMSYN07658338 31526 83601 10044 20035 40268 52014 710// 88/// 333 00101 30041 70004=
0185583380999992018022203004+31330+118350FM-12+001699999V0202501N00201012501C9004500199+00701+00351102681ADDAA106999999AA224999999AY101031AY201031GA1071+012501101GA2999+999999101GA3999+999999101GE19AGL   +99999+99999GF107991071999012501999999MA1999999102165MD1210011+9999MW1101REMSYN004BUFR
0176583380999992018022206004+31150+118583FM-12+001699999V0202501N004019999999N010000199+00941+00231102341ADDGA1071+012501999GE19AGL   +99999+99999GF107991071999012501999999KA1240N+00411MA1999999101825MD1710341+9999REMSYN05858338 32660 72504 10094 20023 40234 57034 87/// 333 20041=
0163583380999992018022209004+31330+118350FM-12+001699999V0202001N00301026001C9011000199+01001+00231102201ADDAA106999999AA224999999GA1071+026001101GA2999+999999101GA3999+999999101GE19AGL   +99999+99999GF107991071999026001999999MA1999999101695MD1710141+9999REMSYN004BUFR
0153583380999992018022212004+31150+118583FM-12+001699999V0202001N003019999999N012000199+00691+00301102301ADDGA1071+999999999GE19AGL   +99999+99999GF107991071999999999999999MA1999999101785MD1210101+9999REMSYN04858338 32962 72003 10069 20030 40230 52010 87///=
0132583380999992018022218004+31150+118583FM-12+001699999V0201101N00101002401WN010000199+00201+00101102381ADDGF109991999999999999999999KA1120M+01071MA1999999101855MD1710051+9999REMSYN05258338 32/60 91101 10020 20010 40238 57005 333 10107=
0067583380999992018022221004+31330+118350FM-12+001699999V0201601N0020199999999011000199+00171+00121102341ADDAA106999999AA224999999MA1999999101815MD1710041+9999REMSYN004BUFR
0125583380999992018022300004+31150+118583FM-12+001699999V0201801N002019999999N013000199+00461+00261102381ADDGF100995999999999999999999MA1999999101855MD1210041+9999REMSYN05858338 32963 01802 10046 20026 40238 52004 333 05300 31009=
0093583380999992018022303004+31330+118350FM-12+001699999V0201601N0020122000199028000199+01201+00161102331ADDAA106999999AA224999999GF100991999999999999999999MA1999999101825MD1710051+9999REMSYN004BUFR
0132583380999992018022306004+31150+118583FM-12+001699999V0201801N002019999999N030000199+01641-00121101981ADDGF100995999999999999999999KA1240N+00051MA1999999101485MD1710341+9999REMSYN05258338 32980 01802 10164 21012 40198 57034 333 20005=
0163583380999992018022309004+31330+118350FM-12+001699999V0200901N0010122000199030000199+01611+00221101911ADDAA106999999AA224999999GA1021+026001101GA2999+999999101GA3999+999999101GE19AGL   +99999+99999GF102991021999026001999999MA1999999101415MD1710071+9999REMSYN004BUFR
0153583380999992018022312004+31150+118583FM-12+001699999V0200901N004012200019N030000199+01141+00221102031ADDGA1041+999999999GE19AGL   +99999+99999GF104991041999999999999999MA1999999101525MD1210111+9999REMSYN04858338 32980 40904 10114 20022 40203 52011 84///=
0132583380999992018022318004+31150+118583FM-12+001699999V0200401N00101002401WN019000199+00781+00381101991ADDGF109991999999999999999999KA1120M+01741MA1999999101475MD1710051+9999REMSYN05258338 32/69 90401 10078 20038 40199 57005 333 10174=
0067583380999992018022321004+31330+118350FM-12+001699999V0200901N0030199999999011000199+00801+00411101971ADDAA106999999AA224999999MA1999999101455MD1710021+9999REMSYN004BUFR
0163583380999992018022400004+31150+118583FM-12+001699999V0200701N002019999999N011000199+00821+00481102101ADDGA1081+017501999GE19AGL   +99999+99999GF108991081999017501999999MA1999999101585MD1210131+9999REMSYN05858338 32761 80702 10082 20048 40210 52013 88/// 333 05304=
0185583380999992018022403004+31330+118350FM-12+001699999V0200901N00201017501C9006000199+00911+00571102261ADDAA106999999AA224999999AY101031AY201031GA1081+017501101GA2999+999999101GA3999+999999101GE19AGL   +99999+99999GF108991081999017501999999MA1999999101745MD1210151+9999MW1101REMSYN004BUFR
0210583380999992018022406004+31150+118583FM-12+001699999V0200701N002019999999N006000199+00981+00601102131ADDAY101021AY201021GA1081+017501999GE19AGL   +99999+99999GF108991081999017501999999KA1240N+00751MA1999999101621MD1710131+9999MW1101REMSYN07058338 31756 80702 10098 20060 30162 40213 57013 71000 88/// 333 20075=
0185583380999992018022409004+31330+118350FM-12+001699999V0200401N00301004501C9007000199+00971+00601102201ADDAA106999999AA224999999AY161031AY201031GA1081+004501101GA2999+999999101GA3999+999999101GE19AGL   +99999+99999GF108991081999004501999999MA1999999101695MD1210071+9999MW1601REMSYN004BUFR
0198583380999992018022412004+31150+118583FM-12+001699999V0201101N002019999999N004600199+00811+00671102431ADDAA106001031AY161021AY201021GA1081+004501999GE19AGL   +99999+99999GF108991081999004501999999MA1999999101915MD1210231+9999MW1101REMSYN06058338 11446 81102 10081 20067 40243 52023 60011 71060 88///=
0160583380999992018022418004+31150+118583FM-12+001699999V0200401N00201002401WN003000199+00821+00711102551ADDAY101021AY201021GF109991999999999999999999KA1120M+00981MA1999999102035MD1210031+9999MW1101REMSYN05858338 31/30 90402 10082 20071 40255 52003 71000 333 10098=
0073583380999992018022421004+31330+118350FM-12+001699999V0200401N0030199999999004700199+00721+00531102581ADDAA106999999AA224001031MA1999999102065MD1210031+9999MW1101REMSYN004BUFR
