0117583670999992018010100004+31198+121336FM-15+000399999V0201101N001012200019N003000199+00501+00001999999ADDGF100991999999999999999999MA1102901999999MW1101REMMET058METAR ZSSS 010000Z 11001MPS 3000 BR NSC 05/00 Q1029 NOSIG=
0117583670999992018010100304+31198+121336FM-15+000399999V0200901N003012200019N003500199+00601+00101999999ADDGF100991999999999999999999MA1102901999999MW1051REMMET058METAR ZSSS 010030Z 09003MPS 3500 HZ NSC 06/01 Q1029 NOSIG=
0126583670999992018010101004+31198+121336FM-15+000399999V0200901V003012200019N005000199+00701+00001999999ADDGF100991999999999999999999MA1102901999999MW1051REMMET067METAR ZSSS 010100Z 09003MPS 040V120 5000 HZ NSC 07/M00 Q1029 NOSIG=
0109583670999992018010101304+31198+121336FM-15+000399999V0201001N003012200019N006000199+00701-00201999999ADDGF100991999999999999999999MA1102901999999REMMET056METAR ZSSS 010130Z 10003MPS 6000 NSC 07/M02 Q1029 NOSIG=
0117583670999992018010102004+31198+121336FM-15+000399999V0201201V003012200019N006000199+00901-00301999999ADDGF100991999999999999999999MA1102901999999REMMET064METAR ZSSS 010200Z 12003MPS 060V160 6000 NSC 09/M03 Q1029 NOSIG=
0117583670999992018010102304+31198+121336FM-15+000399999V0201001V002012200019N008000199+00901-00601999999ADDGF100991999999999999999999MA1102901999999REMMET064METAR ZSSS 010230Z 10002MPS 050V140 8000 NSC 09/M06 Q1029 NOSIG=
0088583670999992018010103004+31198+121336FM-15+000399999V0201301V002019999999Y009900199+01001-00501999999ADDMA1102901999999REMMET061METAR ZSSS 010300Z 13002MPS 040V180 CAVOK 10/M05 Q1029 NOSIG=
0099583670999992018010103304+31198+121336FM-15+000399999V0201201V002019999999Y009900199+01001-00401999999ADDMA1102801999999OC100701REMMET064METAR ZSSS 010330Z 12002G07MPS 070V170 CAVOK 10/M04 Q1028 NOSIG=
0088583670999992018010104004+31198+121336FM-15+000399999V0201401V003019999999Y009900199+01001-00701999999ADDMA1102801999999REMMET061METAR ZSSS 010400Z 14003MPS 090V190 CAVOK 10/M07 Q1028 NOSIG=
0080583670999992018010104304+31198+121336FM-15+000399999V0209999V002019999999Y009900199+01101-00601999999ADDMA1102701999999REMMET053METAR ZSSS 010430Z VRB02MPS CAVOK 11/M06 Q1027 NOSIG=
0088583670999992018010105004+31198+121336FM-15+000399999V0201001V003019999999Y009900199+01101-00701999999ADDMA1102701999999REMMET061METAR ZSSS 010500Z 10003MPS 060V160 CAVOK 11/M07 Q1027 NOSIG=
0088583670999992018010105304+31198+121336FM-15+000399999V0200901V003019999999Y009900199+01101-00701999999ADDMA1102601999999REMMET061METAR ZSSS 010530Z 09003MPS 020V170 CAVOK 11/M07 Q1026 NOSIG=
0088583670999992018010106004+31198+121336FM-15+000399999V0200901V004019999999Y009900199+01101-00601999999ADDMA1102601999999REMMET061METAR ZSSS 010600Z 09004MPS 060V120 CAVOK 11/M06 Q1026 NOSIG=
0088583670999992018010106304+31198+121336FM-15+000399999V0201001V003019999999Y009900199+01201-00501999999ADDMA1102501999999REMMET061METAR ZSSS 010630Z 10003MPS 030V160 CAVOK 12/M05 Q1025 NOSIG=
0088583670999992018010107004+31198+121336FM-15+000399999V0201301V005019999999Y009900199+01101-00501999999ADDMA1102501999999REMMET061METAR ZSSS 010700Z 13005MPS 090V160 CAVOK 11/M05 Q1025 NOSIG=
0088583670999992018010107304+31198+121336FM-15+000399999V0201201V004019999999Y009900199+01101-00501999999ADDMA1102501999999REMMET061METAR ZSSS 010730Z 12004MPS 100V160 CAVOK 11/M05 Q1025 NOSIG=
0088583670999992018010108004+31198+121336FM-15+000399999V0201301V003019999999Y009900199+01101-00401999999ADDMA1102601999999REMMET061METAR ZSSS 010800Z 13003MPS 080V150 CAVOK 11/M04 Q1026 NOSIG=
0088583670999992018010108304+31198+121336FM-15+000399999V0201201V004019999999Y009900199+01001-00301999999ADDMA1102601999999REMMET061METAR ZSSS 010830Z 12004MPS 060V160 CAVOK 10/M03 Q1026 NOSIG=
0088583670999992018010109004+31198+121336FM-15+000399999V0201101V004019999999Y009900199+01001-00301999999ADDMA1102601999999REMMET061METAR ZSSS 010900Z 11004MPS 060V150 CAVOK 10/M03 Q1026 NOSIG=
0088583670999992018010109304+31198+121336FM-15+000399999V0201001V004019999999Y009900199+00901-00201999999ADDMA1102601999999REMMET061METAR ZSSS 010930Z 10004MPS 070V160 CAVOK 09/M02 Q1026 NOSIG=
0088583670999992018010110004+31198+121336FM-15+000399999V0200901V004019999999Y009900199+00901-00201999999ADDMA1102601999999REMMET061METAR ZSSS 011000Z 09004MPS 050V110 CAVOK 09/M02 Q1026 NOSIG=
0088583670999992018010110304+31198+121336FM-15+000399999V0201101V003019999999Y009900199+00901+00001999999ADDMA1102601999999REMMET061METAR ZSSS 011030Z 11003MPS 070V150 CAVOK 09/M00 Q1026 NOSIG=
0087583670999992018010111004+31198+121336FM-15+000399999V0201001V003019999999Y009900199+00901+00101999999ADDMA1102701999999REMMET060METAR ZSSS 011100Z 10003MPS 060V130 CAVOK 09/01 Q1027 NOSIG=
0087583670999992018010111304+31198+121336FM-15+000399999V0201001V003019999999Y009900199+00801+00101999999ADDMA1102701999999REMMET060METAR ZSSS 011130Z 10003MPS 070V130 CAVOK 08/01 Q1027 NOSIG=
0087583670999992018010112004+31198+121336FM-15+000399999V0200801V003019999999Y009900199+00801+00101999999ADDMA1102701999999REMMET060METAR ZSSS 011200Z 08003MPS 040V100 CAVOK 08/01 Q1027 NOSIG=
0087583670999992018010112304+31198+121336FM-15+000399999V0200801V003019999999Y009900199+00801+00101999999ADDMA1102701999999REMMET060METAR ZSSS 011230Z 08003MPS 040V110 CAVOK 08/01 Q1027 NOSIG=
0079583670999992018010113004+31198+121336FM-15+000399999V0200901N004019999999Y009900199+00901+00101999999ADDMA1102701999999REMMET052METAR ZSSS 011300Z 09004MPS CAVOK 09/01 Q1027 NOSIG=
0087583670999992018010113304+31198+121336FM-15+000399999V0201101V003019999999Y009900199+00901+00201999999ADDMA1102701999999REMMET060METAR ZSSS 011330Z 11003MPS 060V140 CAVOK 09/02 Q1027 NOSIG=
0087583670999992018010114004+31198+121336FM-15+000399999V0200901V004019999999Y009900199+00901+00201999999ADDMA1102701999999REMMET060METAR ZSSS 011400Z 09004MPS 060V120 CAVOK 09/02 Q1027 NOSIG=
0098583670999992018010114304+31198+121336FM-15+000399999V0201001V004019999999Y009900199+00901+00201999999ADDMA1102701999999OC100901REMMET063METAR ZSSS 011430Z 10004G09MPS 060V130 CAVOK 09/02 Q1027 NOSIG=
0087583670999992018010115004+31198+121336FM-15+000399999V0201001V004019999999Y009900199+00901+00201999999ADDMA1102701999999REMMET060METAR ZSSS 011500Z 10004MPS 070V130 CAVOK 09/02 Q1027 NOSIG=
0087583670999992018010115304+31198+121336FM-15+000399999V0201101V004019999999Y009900199+00901+00301999999ADDMA1102701999999REMMET060METAR ZSSS 011530Z 11004MPS 080V140 CAVOK 09/03 Q1027 NOSIG=
0087583670999992018010116004+31198+121336FM-15+000399999V0201101V004019999999Y009900199+00901+00301999999ADDMA1102701999999REMMET060METAR ZSSS 011600Z 11004MPS 070V150 CAVOK 09/03 Q1027 NOSIG=
0079583670999992018010116304+31198+121336FM-15+000399999V0201201N004019999999Y009900199+00901+00301999999ADDMA1102701999999REMMET052METAR ZSSS 011630Z 12004MPS CAVOK 09/03 Q1027 NOSIG=
0079583670999992018010117004+31198+121336FM-15+000399999V0201201N004019999999Y009900199+00901+00301999999ADDMA1102601999999REMMET052METAR ZSSS 011700Z 12004MPS CAVOK 09/03 Q1026 NOSIG=
0079583670999992018010117304+31198+121336FM-15+000399999V0201201N004019999999Y009900199+00901+00301999999ADDMA1102601999999REMMET052METAR ZSSS 011730Z 12004MPS CAVOK 09/03 Q1026 NOSIG=
0079583670999992018010118004+31198+121336FM-15+000399999V0201201N004019999999Y009900199+00901+00301999999ADDMA1102601999999REMMET052METAR ZSSS 011800Z 12004MPS CAVOK 09/03 Q1026 NOSIG=
0079583670999992018010118304+31198+121336FM-15+000399999V0201301N003019999999Y009900199+00901+00401999999ADDMA1102601999999REMMET052METAR ZSSS 011830Z 13003MPS CAVOK 09/04 Q1026 NOSIG=
0079583670999992018010119004+31198+121336FM-15+000399999V0201201N004019999999Y009900199+00901+00401999999ADDMA1102601999999REMMET052METAR ZSSS 011900Z 12004MPS CAVOK 09/04 Q1026 NOSIG=
0079583670999992018010119304+31198+121336FM-15+000399999V0201301N004019999999Y009900199+00901+00401999999ADDMA1102601999999REMMET052METAR ZSSS 011930Z 13004MPS CAVOK 09/04 Q1026 NOSIG=
0079583670999992018010120004+31198+121336FM-15+000399999V0201201N004019999999Y009900199+01001+00401999999ADDMA1102601999999REMMET052METAR ZSSS 012000Z 12004MPS CAVOK 10/04 Q1026 NOSIG=
0079583670999992018010120304+31198+121336FM-15+000399999V0201201N004019999999Y009900199+01001+00401999999ADDMA1102601999999REMMET052METAR ZSSS 012030Z 12004MPS CAVOK 10/04 Q1026 NOSIG=
0079583670999992018010121004+31198+121336FM-15+000399999V0201201N004019999999Y009900199+01001+00401999999ADDMA1102501999999REMMET052METAR ZSSS 012100Z 12004MPS CAVOK 10/04 Q1025 NOSIG=
0079583670999992018010121304+31198+121336FM-15+000399999V0201201N004019999999Y009900199+01001+00401999999ADDMA1102601999999REMMET052METAR ZSSS 012130Z 12004MPS CAVOK 10/04 Q1026 NOSIG=
0079583670999992018010122004+31198+121336FM-15+000399999V0201201N005019999999Y009900199+01001+00401999999ADDMA1102501999999REMMET052METAR ZSSS 012200Z 12005MPS CAVOK 10/04 Q1025 NOSIG=
0079583670999992018010122304+31198+121336FM-15+000399999V0201301N005019999999Y009900199+01001+00501999999ADDMA1102501999999REMMET052METAR ZSSS 012230Z 13005MPS CAVOK 10/05 Q1025 NOSIG=
0087583670999992018010123004+31198+121336FM-15+000399999V0201301V004019999999Y009900199+01001+00501999999ADDMA1102501999999REMMET060METAR ZSSS 012300Z 13004MPS 100V160 CAVOK 10/05 Q1025 NOSIG=
0079583670999992018010123304+31198+121336FM-15+000399999V0201201N004019999999Y009900199+01001+00501999999ADDMA1102601999999REMMET052METAR ZSSS 012330Z 12004MPS CAVOK 10/05 Q1026 NOSIG=
0079583670999992018010200004+31198+121336FM-15+000399999V0201301N004019999999Y009900199+01101+00501999999ADDMA1102601999999REMMET052METAR ZSSS 020000Z 13004MPS CAVOK 11/05 Q1026 NOSIG=
0079583670999992018010200304+31198+121336FM-15+000399999V0201301N004019999999Y009900199+01101+00501999999ADDMA1102601999999REMMET052METAR ZSSS 020030Z 13004MPS CAVOK 11/05 Q1026 NOSIG=
0079583670999992018010201004+31198+121336FM-15+000399999V0201201N005019999999Y009900199+01201+00501999999ADDMA1102601999999REMMET052METAR ZSSS 020100Z 12005MPS CAVOK 12/05 Q1026 NOSIG=
0079583670999992018010201304+31198+121336FM-15+000399999V0201301N005019999999Y009900199+01201+00601999999ADDMA1102601999999REMMET052METAR ZSSS 020130Z 13005MPS CAVOK 12/06 Q1026 NOSIG=
0079583670999992018010202004+31198+121336FM-15+000399999V0201301N005019999999Y009900199+01201+00601999999ADDMA1102601999999REMMET052METAR ZSSS 020200Z 13005MPS CAVOK 12/06 Q1026 NOSIG=
0079583670999992018010202304+31198+121336FM-15+000399999V0201301N005019999999Y009900199+01301+00601999999ADDMA1102601999999REMMET052METAR ZSSS 020230Z 13005MPS CAVOK 13/06 Q1026 NOSIG=
0079583670999992018010203004+31198+121336FM-15+000399999V0201401N005019999999Y009900199+01301+00601999999ADDMA1102601999999REMMET052METAR ZSSS 020300Z 14005MPS CAVOK 13/06 Q1026 NOSIG=
0079583670999992018010203304+31198+121336FM-15+000399999V0201401N006019999999Y009900199+01301+00601999999ADDMA1102501999999REMMET052METAR ZSSS 020330Z 14006MPS CAVOK 13/06 Q1025 NOSIG=
0079583670999992018010204004+31198+121336FM-15+000399999V0201501N006019999999Y009900199+01301+00601999999ADDMA1102401999999REMMET052METAR ZSSS 020400Z 15006MPS CAVOK 13/06 Q1024 NOSIG=
0079583670999992018010204304+31198+121336FM-15+000399999V0201401N006019999999Y009900199+01301+00601999999ADDMA1102401999999REMMET052METAR ZSSS 020430Z 14006MPS CAVOK 13/06 Q1024 NOSIG=
0079583670999992018010205004+31198+121336FM-15+000399999V0201401N004019999999Y009900199+01301+00601999999ADDMA1102401999999REMMET052METAR ZSSS 020500Z 14004MPS CAVOK 13/06 Q1024 NOSIG=
0079583670999992018010205304+31198+121336FM-15+000399999V0201301N004019999999Y009900199+01301+00601999999ADDMA1102301999999REMMET052METAR ZSSS 020530Z 13004MPS CAVOK 13/06 Q1023 NOSIG=
0079583670999992018010206004+31198+121336FM-15+000399999V0201301N004019999999Y009900199+01301+00601999999ADDMA1102401999999REMMET052METAR ZSSS 020600Z 13004MPS CAVOK 13/06 Q1024 NOSIG=
0079583670999992018010206304+31198+121336FM-15+000399999V0201201N005019999999Y009900199+01301+00701999999ADDMA1102301999999REMMET052METAR ZSSS 020630Z 12005MPS CAVOK 13/07 Q1023 NOSIG=
0079583670999992018010207004+31198+121336FM-15+000399999V0201201N005019999999Y009900199+01301+00701999999ADDMA1102301999999REMMET052METAR ZSSS 020700Z 12005MPS CAVOK 13/07 Q1023 NOSIG=
0149583670999992018010207304+31198+121336FM-15+000399999V0201101N006019999999N009999199+01301+00701999999ADDGA1041+010061999GE19AGL   +99999+99999GF199999041999010061999999MA1102301999999REMMET058METAR ZSSS 020730Z 11006MPS 9999 SCT033 13/07 Q1023 NOSIG=
0149583670999992018010208004+31198+121336FM-15+000399999V0201201N005019999999N009999199+01301+00701999999ADDGA1041+010061999GE19AGL   +99999+99999GF199999041999010061999999MA1102301999999REMMET058METAR ZSSS 020800Z 12005MPS 9999 SCT033 13/07 Q1023 NOSIG=
0149583670999992018010208304+31198+121336FM-15+000399999V0201001N004019999999N009999199+01301+00801999999ADDGA1041+010061999GE19AGL   +99999+99999GF199999041999010061999999MA1102301999999REMMET058METAR ZSSS 020830Z 10004MPS 9999 SCT033 13/08 Q1023 NOSIG=
0149583670999992018010209004+31198+121336FM-15+000399999V0201101N004019999999N009999199+01301+00801999999ADDGA1041+010061999GE19AGL   +99999+99999GF199999041999010061999999MA1102301999999REMMET058METAR ZSSS 020900Z 11004MPS 9999 SCT033 13/08 Q1023 NOSIG=
0149583670999992018010209304+31198+121336FM-15+000399999V0201001N004019999999N009999199+01301+00801999999ADDGA1041+010061999GE19AGL   +99999+99999GF199999041999010061999999MA1102401999999REMMET058METAR ZSSS 020930Z 10004MPS 9999 SCT033 13/08 Q1024 NOSIG=
0149583670999992018010210004+31198+121336FM-15+000399999V0201001N004019999999N009999199+01201+00801999999ADDGA1041+010061999GE19AGL   +99999+99999GF199999041999010061999999MA1102401999999REMMET058METAR ZSSS 021000Z 10004MPS 9999 SCT033 12/08 Q1024 NOSIG=
0149583670999992018010210304+31198+121336FM-15+000399999V0201001N004019999999N009999199+01201+00801999999ADDGA1041+010061999GE19AGL   +99999+99999GF199999041999010061999999MA1102401999999REMMET058METAR ZSSS 021030Z 10004MPS 9999 SCT033 12/08 Q1024 NOSIG=
0149583670999992018010211004+31198+121336FM-15+000399999V0200901N00401010061CN009999199+01201+00801999999ADDGA1071+010061999GE19AGL   +99999+99999GF199999071999010061999999MA1102401999999REMMET058METAR ZSSS 021100Z 09004MPS 9999 BKN033 12/08 Q1024 NOSIG=
0149583670999992018010211304+31198+121336FM-15+000399999V0200901N00401010061CN009999199+01201+00801999999ADDGA1071+010061999GE19AGL   +99999+99999GF199999071999010061999999MA1102401999999REMMET058METAR ZSSS 021130Z 09004MPS 9999 BKN033 12/08 Q1024 NOSIG=
0149583670999992018010212004+31198+121336FM-15+000399999V0200901N00501010061CN009999199+01201+00801999999ADDGA1071+010061999GE19AGL   +99999+99999GF199999071999010061999999MA1102401999999REMMET058METAR ZSSS 021200Z 09005MPS 9999 BKN033 12/08 Q1024 NOSIG=
0149583670999992018010212304+31198+121336FM-15+000399999V0200901N00501010061CN009999199+01201+00801999999ADDGA1071+010061999GE19AGL   +99999+99999GF199999071999010061999999MA1102401999999REMMET058METAR ZSSS 021230Z 09005MPS 9999 BKN033 12/08 Q1024 NOSIG=
0149583670999992018010213004+31198+121336FM-15+000399999V0200801N00501010061CN009999199+01201+00801999999ADDGA1071+010061999GE19AGL   +99999+99999GF199999071999010061999999MA1102501999999REMMET058METAR ZSSS 021300Z 08005MPS 9999 BKN033 12/08 Q1025 NOSIG=
0159583670999992018010213304+31198+121336FM-15+000399999V0200901N00401009141CN009999199+01201+00801999999ADDGA1071+009141999GE19AGL   +99999+99999GF199999071999009141999999MA1102501999999MW1611REMMET062METAR ZSSS 021330Z 09004MPS 9999 -RA BKN030 12/08 Q1025 NOSIG=
0167583670999992018010214004+31198+121336FM-15+000399999V0200801V00301007921CN009999199+01101+00901999999ADDGA1071+007921999GE19AGL   +99999+99999GF199999071999007921999999MA1102501999999MW1611REMMET070METAR ZSSS 021400Z 08003MPS 050V110 9999 -RA BKN026 11/09 Q1025 NOSIG=
0159583670999992018010214304+31198+121336FM-15+000399999V0200501N00301006101CN009999199+01101+00901999999ADDGA1071+006101999GE19AGL   +99999+99999GF199999071999006101999999MA1102601999999MW1611REMMET062METAR ZSSS 021430Z 05003MPS 9999 -RA BKN020 11/09 Q1026 NOSIG=
0181583670999992018010215004+31198+121336FM-15+000399999V0200601V00401004571CN009999199+01101+00901999999ADDGA1071+004571999GE19AGL   +99999+99999GF199999071999004571999999MA1102501999999MW1611REMMET084METAR ZSSS 021500Z 06004MPS 040V100 9999 -RA BKN015 11/09 Q1025 BECMG TL1530 BKN010=
0167583670999992018010215304+31198+121336FM-15+000399999V0200601V00401003961CN009999199+01001+00901999999ADDGA1071+003961999GE19AGL   +99999+99999GF199999071999003961999999MA1102501999999MW1611REMMET070METAR ZSSS 021530Z 06004MPS 030V090 9999 -RA BKN013 10/09 Q1025 NOSIG=
0167583670999992018010216004+31198+121336FM-15+000399999V0200601V00301003661CN007000199+01001+00901999999ADDGA1071+003661999GE19AGL   +99999+99999GF199999071999003661999999MA1102601999999MW1611REMMET070METAR ZSSS 021600Z 06003MPS 020V090 7000 -RA BKN012 10/09 Q1026 NOSIG=
0167583670999992018010216304+31198+121336FM-15+000399999V0200601V00301003051CN007000199+01001+00901999999ADDGA1071+003051999GE19AGL   +99999+99999GF199999071999003051999999MA1102601999999MW1611REMMET070METAR ZSSS 021630Z 06003MPS 030V090 7000 -RA BKN010 10/09 Q1026 NOSIG=
0159583670999992018010217004+31198+121336FM-15+000399999V0200501N00301002741CN006000199+01001+00901999999ADDGA1071+002741999GE19AGL   +99999+99999GF199999071999002741999999MA1102601999999MW1611REMMET062METAR ZSSS 021700Z 05003MPS 6000 -RA BKN009 10/09 Q1026 NOSIG=
0159583670999992018010217304+31198+121336FM-15+000399999V0200401N00601002441CN008000199+01001+00901999999ADDGA1071+002441999GE19AGL   +99999+99999GF199999071999002441999999MA1102601999999MW1611REMMET062METAR ZSSS 021730Z 04006MPS 8000 -RA BKN008 10/09 Q1026 NOSIG=
0159583670999992018010218004+31198+121336FM-15+000399999V0200501N00601002441CN006000199+01001+00901999999ADDGA1071+002441999GE19AGL   +99999+99999GF199999071999002441999999MA1102601999999MW1611REMMET062METAR ZSSS 021800Z 05006MPS 6000 -RA BKN008 10/09 Q1026 NOSIG=
0159583670999992018010218304+31198+121336FM-15+000399999V0200401N00601002441CN008000199+01001+00901999999ADDGA1071+002441999GE19AGL   +99999+99999GF199999071999002441999999MA1102701999999MW1611REMMET062METAR ZSSS 021830Z 04006MPS 8000 -RA BKN008 10/09 Q1027 NOSIG=
0159583670999992018010219004+31198+121336FM-15+000399999V0200501N00601002441CN007000199+01001+00801999999ADDGA1071+002441999GE19AGL   +99999+99999GF199999071999002441999999MA1102701999999MW1611REMMET062METAR ZSSS 021900Z 05006MPS 7000 -RA BKN008 10/08 Q1027 NOSIG=
0159583670999992018010219304+31198+121336FM-15+000399999V0200501N00601002131CN006000199+00901+00801999999ADDGA1071+002131999GE19AGL   +99999+99999GF199999071999002131999999MA1102701999999MW1611REMMET062METAR ZSSS 021930Z 05006MPS 6000 -RA BKN007 09/08 Q1027 NOSIG=
0159583670999992018010220004+31198+121336FM-15+000399999V0200501N00501002131CN006000199+00901+00801999999ADDGA1071+002131999GE19AGL   +99999+99999GF199999071999002131999999MA1102601999999MW1611REMMET062METAR ZSSS 022000Z 05005MPS 6000 -RA BKN007 09/08 Q1026 NOSIG=
0167583670999992018010220304+31198+121336FM-15+000399999V0200501V00601002131CN007000199+00901+00801999999ADDGA1071+002131999GE19AGL   +99999+99999GF199999071999002131999999MA1102701999999MW1611REMMET070METAR ZSSS 022030Z 05006MPS 020V090 7000 -RA BKN007 09/08 Q1027 NOSIG=
0159583670999992018010221004+31198+121336FM-15+000399999V0200501N00801002131CN006000199+00901+00701999999ADDGA1071+002131999GE19AGL   +99999+99999GF199999071999002131999999MA1102701999999MW1611REMMET062METAR ZSSS 022100Z 05008MPS 6000 -RA BKN007 09/07 Q1027 NOSIG=
0159583670999992018010221304+31198+121336FM-15+000399999V0200401N00701002441CN006000199+00801+00701999999ADDGA1071+002441999GE19AGL   +99999+99999GF199999071999002441999999MA1102701999999MW1611REMMET062METAR ZSSS 022130Z 04007MPS 6000 -RA BKN008 08/07 Q1027 NOSIG=
0181583670999992018010222004+31198+121336FM-15+000399999V0200501V00601002441CN007000199+00801+00601999999ADDGA1071+002441999GE19AGL   +99999+99999GF199999071999002441999999MA1102801999999MW1611REMMET084METAR ZSSS 022200Z 05006MPS 020V080 7000 -RA BKN008 08/06 Q1028 BECMG TL2300 BKN012=
0167583670999992018010222304+31198+121336FM-15+000399999V0200401V00601002741CN008000199+00801+00601999999ADDGA1071+002741999GE19AGL   +99999+99999GF199999071999002741999999MA1102801999999MW1611REMMET070METAR ZSSS 022230Z 04006MPS 010V070 8000 -RA BKN009 08/06 Q1028 NOSIG=
0173583670999992018010223004+31198+121336FM-15+000399999V0200501N00601002741CN007000199+00801+00601999999ADDGA1071+002741999GE19AGL   +99999+99999GF199999071999002741999999MA1102801999999MW1611REMMET076METAR ZSSS 022300Z 05006MPS 7000 -RA BKN009 08/06 Q1028 BECMG TL2330 BKN012=
0167583670999992018010223304+31198+121336FM-15+000399999V0200401V00501003051CN007000199+00801+00701999999ADDGA1071+003051999GE19AGL   +99999+99999GF199999071999003051999999MA1102801999999MW1611REMMET070METAR ZSSS 022330Z 04005MPS 020V080 7000 -RA BKN010 08/07 Q1028 NOSIG=
0157583670999992018010300004+31198+121336FM-15+000399999V0200501V00601003051CN007000199+00801+00601999999ADDGA1071+003051999GE19AGL   +99999+99999GF199999071999003051999999MA1102901999999REMMET066METAR ZSSS 030000Z 05006MPS 020V080 7000 BKN010 08/06 Q1029 NOSIG=
0173583670999992018010300304+31198+121336FM-15+000399999V0200501N00701003351CN008000199+00801+00601999999ADDGA1071+003351999GE19AGL   +99999+99999GF199999071999003351999999MA1102901999999MW1611REMMET076METAR ZSSS 030030Z 05007MPS 8000 -RA BKN011 08/06 Q1029 BECMG TL0130 BKN015=
0181583670999992018010301004+31198+121336FM-15+000399999V0200501V00601003351CN007000199+00801+00701999999ADDGA1071+003351999GE19AGL   +99999+99999GF199999071999003351999999MA1103001999999MW1611REMMET084METAR ZSSS 030100Z 05006MPS 020V080 7000 -RA BKN011 08/07 Q1030 BECMG TL0210 BKN009=
0159583670999992018010301304+31198+121336FM-15+000399999V0200501N00601003351CN007000199+00801+00701999999ADDGA1071+003351999GE19AGL   +99999+99999GF199999071999003351999999MA1103001999999MW1611REMMET062METAR ZSSS 030130Z 05006MPS 7000 -RA BKN011 08/07 Q1030 NOSIG=
0192583670999992018010302004+31198+121336FM-15+000399999V0200501V00601003351CN007000199+00801+00701999999ADDGA1071+003351999GE19AGL   +99999+99999GF199999071999003351999999MA1103001999999MW1611OC101201REMMET087METAR ZSSS 030200Z 05006G12MPS 020V080 7000 -RA BKN011 08/07 Q1030 BECMG TL0330 BKN009=
0159583670999992018010302304+31198+121336FM-15+000399999V0200401N00601003961CN008000199+00801+00601999999ADDGA1071+003961999GE19AGL   +99999+99999GF199999071999003961999999MA1103001999999MW1611REMMET062METAR ZSSS 030230Z 04006MPS 8000 -RA BKN013 08/06 Q1030 NOSIG=
0173583670999992018010303004+31198+121336FM-15+000399999V0200501N00601003961CN008000199+00801+00601999999ADDGA1071+003961999GE19AGL   +99999+99999GF199999071999003961999999MA1103001999999MW1611REMMET076METAR ZSSS 030300Z 05006MPS 8000 -RA BKN013 08/06 Q1030 BECMG TL0340 BKN015=
0159583670999992018010303304+31198+121336FM-15+000399999V0200501N00601004881CN008000199+00901+00601999999ADDGA1071+004881999GE19AGL   +99999+99999GF199999071999004881999999MA1102901999999MW1611REMMET062METAR ZSSS 030330Z 05006MPS 8000 -RA BKN016 09/06 Q1029 NOSIG=
0167583670999992018010304004+31198+121336FM-15+000399999V0200501V00501004881CN009999199+00901+00601999999ADDGA1071+004881999GE19AGL   +99999+99999GF199999071999004881999999MA1102901999999MW1611REMMET070METAR ZSSS 030400Z 05005MPS 020V080 9999 -RA BKN016 09/06 Q1029 NOSIG=
0159583670999992018010304304+31198+121336FM-15+000399999V0200501N00801006101CN009999199+00901+00501999999ADDGA1071+006101999GE19AGL   +99999+99999GF199999071999006101999999MA1102801999999MW1611REMMET062METAR ZSSS 030430Z 05008MPS 9999 -RA BKN020 09/05 Q1028 NOSIG=
0167583670999992018010305004+31198+121336FM-15+000399999V0200401V00801006101CN009999199+00801+00501999999ADDGA1071+006101999GE19AGL   +99999+99999GF199999071999006101999999MA1102801999999MW1611REMMET070METAR ZSSS 030500Z 04008MPS 360V060 9999 -RA BKN020 08/05 Q1028 NOSIG=
0159583670999992018010305304+31198+121336FM-15+000399999V0200401N01001006101CN009999199+00801+00501999999ADDGA1071+006101999GE19AGL   +99999+99999GF199999071999006101999999MA1102801999999MW1611REMMET062METAR ZSSS 030530Z 04010MPS 9999 -RA BKN020 08/05 Q1028 NOSIG=
0159583670999992018010306004+31198+121336FM-15+000399999V0200501N00801006101CN009999199+00801+00401999999ADDGA1071+006101999GE19AGL   +99999+99999GF199999071999006101999999MA1102801999999MW1611REMMET062METAR ZSSS 030600Z 05008MPS 9999 -RA BKN020 08/04 Q1028 NOSIG=
0159583670999992018010306304+31198+121336FM-15+000399999V0200401N00901006101CN009999199+00801+00401999999ADDGA1071+006101999GE19AGL   +99999+99999GF199999071999006101999999MA1102801999999MW1611REMMET062METAR ZSSS 030630Z 04009MPS 9999 -RA BKN020 08/04 Q1028 NOSIG=
0159583670999992018010307004+31198+121336FM-15+000399999V0200401N00801006101CN009999199+00801+00401999999ADDGA1071+006101999GE19AGL   +99999+99999GF199999071999006101999999MA1102801999999MW1611REMMET062METAR ZSSS 030700Z 04008MPS 9999 -RA BKN020 08/04 Q1028 NOSIG=
0159583670999992018010307304+31198+121336FM-15+000399999V0200401N00601006101CN009999199+00701+00401999999ADDGA1071+006101999GE19AGL   +99999+99999GF199999071999006101999999MA1102901999999MW1611REMMET062METAR ZSSS 030730Z 04006MPS 9999 -RA BKN020 07/04 Q1029 NOSIG=
0159583670999992018010308004+31198+121336FM-15+000399999V0200401N00701006101CN009999199+00701+00301999999ADDGA1071+006101999GE19AGL   +99999+99999GF199999071999006101999999MA1102901999999MW1611REMMET062METAR ZSSS 030800Z 04007MPS 9999 -RA BKN020 07/03 Q1029 NOSIG=
0159583670999992018010308304+31198+121336FM-15+000399999V0200401N00701006101CN009999199+00701+00301999999ADDGA1071+006101999GE19AGL   +99999+99999GF199999071999006101999999MA1102901999999MW1611REMMET062METAR ZSSS 030830Z 04007MPS 9999 -RA BKN020 07/03 Q1029 NOSIG=
0159583670999992018010309004+31198+121336FM-15+000399999V0200301N00801006101CN009999199+00701+00301999999ADDGA1071+006101999GE19AGL   +99999+99999GF199999071999006101999999MA1102901999999MW1611REMMET062METAR ZSSS 030900Z 03008MPS 9999 -RA BKN020 07/03 Q1029 NOSIG=
0170583670999992018010309304+31198+121336FM-15+000399999V0200401N00701006101CN009999199+00601+00301999999ADDGA1071+006101999GE19AGL   +99999+99999GF199999071999006101999999MA1103001999999MW1611OC101201REMMET065METAR ZSSS 030930Z 04007G12MPS 9999 -RA BKN020 06/03 Q1030 NOSIG=
0159583670999992018010310004+31198+121336FM-15+000399999V0200401N00601004881CN009999199+00601+00301999999ADDGA1071+004881999GE19AGL   +99999+99999GF199999071999004881999999MA1103001999999MW1611REMMET062METAR ZSSS 031000Z 04006MPS 9999 -RA BKN016 06/03 Q1030 NOSIG=
0159583670999992018010310304+31198+121336FM-15+000399999V0200301N006019999999N009999199+00501+00401999999ADDGA1041+004571999GE19AGL   +99999+99999GF199999041999004571999999MA1103001999999MW1611REMMET062METAR ZSSS 031030Z 03006MPS 9999 -RA SCT015 05/04 Q1030 NOSIG=
0181583670999992018010311004+31198+121336FM-15+000399999V0200201V006019999999N009999199+00501+00301999999ADDGA1041+004571999GE19AGL   +99999+99999GF199999041999004571999999MA1103101999999MW1611REMMET084METAR ZSSS 031100Z 02006MPS 360V060 9999 -RA SCT015 05/03 Q1031 BECMG TL1210 BKN013=
0159583670999992018010311304+31198+121336FM-15+000399999V0200401N00601004571CN009999199+00501+00301999999ADDGA1071+004571999GE19AGL   +99999+99999GF199999071999004571999999MA1103001999999MW1611REMMET062METAR ZSSS 031130Z 04006MPS 9999 -RA BKN015 05/03 Q1030 NOSIG=
0159583670999992018010312004+31198+121336FM-15+000399999V0200301N00501004881CN009999199+00501+00301999999ADDGA1071+004881999GE19AGL   +99999+99999GF199999071999004881999999MA1103101999999MW1611REMMET062METAR ZSSS 031200Z 03005MPS 9999 -RA BKN016 05/03 Q1031 NOSIG=
0167583670999992018010312304+31198+121336FM-15+000399999V0200401V00701006101CN009999199+00501+00301999999ADDGA1071+006101999GE19AGL   +99999+99999GF199999071999006101999999MA1103001999999MW1611REMMET070METAR ZSSS 031230Z 04007MPS 010V070 9999 -RA BKN020 05/03 Q1030 NOSIG=
0159583670999992018010313004+31198+121336FM-15+000399999V0200401N00601004881CN009999199+00501+00301999999ADDGA1071+004881999GE19AGL   +99999+99999GF199999071999004881999999MA1103001999999MW1611REMMET062METAR ZSSS 031300Z 04006MPS 9999 -RA BKN016 05/03 Q1030 NOSIG=
0167583670999992018010313304+31198+121336FM-15+000399999V0200401V00601004881CN009999199+00501+00301999999ADDGA1071+004881999GE19AGL   +99999+99999GF199999071999004881999999MA1103101999999MW1611REMMET070METAR ZSSS 031330Z 04006MPS 010V070 9999 -RA BKN016 05/03 Q1031 NOSIG=
0173583670999992018010314004+31198+121336FM-15+000399999V0200401N00601004571CN009999199+00501+00301999999ADDGA1071+004571999GE19AGL   +99999+99999GF199999071999004571999999MA1103001999999MW1611REMMET076METAR ZSSS 031400Z 04006MPS 9999 -RA BKN015 05/03 Q1030 BECMG TL1510 BKN013=
0167583670999992018010314304+31198+121336FM-15+000399999V0200401V00601004571CN009999199+00501+00301999999ADDGA1071+004571999GE19AGL   +99999+99999GF199999071999004571999999MA1103001999999MW1611REMMET070METAR ZSSS 031430Z 04006MPS 010V070 9999 -RA BKN015 05/03 Q1030 NOSIG=
0159583670999992018010315004+31198+121336FM-15+000399999V0200401N00601003961CN009999199+00501+00301999999ADDGA1071+003961999GE19AGL   +99999+99999GF199999071999003961999999MA1103001999999MW1611REMMET062METAR ZSSS 031500Z 04006MPS 9999 -RA BKN013 05/03 Q1030 NOSIG=
0159583670999992018010315304+31198+121336FM-15+000399999V0200301N00501003961CN009999199+00401+00301999999ADDGA1071+003961999GE19AGL   +99999+99999GF199999071999003961999999MA1103001999999MW1611REMMET062METAR ZSSS 031530Z 03005MPS 9999 -RA BKN013 04/03 Q1030 NOSIG=
0170583670999992018010316004+31198+121336FM-15+000399999V0200301N00401003961CN009999199+00401+00301999999ADDGA1071+003961999GE19AGL   +99999+99999GF199999071999003961999999MA1103001999999MW1611OC100901REMMET065METAR ZSSS 031600Z 03004G09MPS 9999 -RA BKN013 04/03 Q1030 NOSIG=
0167583670999992018010316304+31198+121336FM-15+000399999V0200201V00401003351CN009999199+00401+00301999999ADDGA1071+003351999GE19AGL   +99999+99999GF199999071999003351999999MA1103001999999MW1611REMMET070METAR ZSSS 031630Z 02004MPS 340V060 9999 -RA BKN011 04/03 Q1030 NOSIG=
0159583670999992018010317004+31198+121336FM-15+000399999V0200201N00401003351CN009999199+00401+00301999999ADDGA1071+003351999GE19AGL   +99999+99999GF199999071999003351999999MA1103001999999MW1611REMMET062METAR ZSSS 031700Z 02004MPS 9999 -RA BKN011 04/03 Q1030 NOSIG=
0167583670999992018010317304+31198+121336FM-15+000399999V0200401V00501003351CN009999199+00501+00301999999ADDGA1071+003351999GE19AGL   +99999+99999GF199999071999003351999999MA1103001999999MW1611REMMET070METAR ZSSS 031730Z 04005MPS 360V070 9999 -RA BKN011 05/03 Q1030 NOSIG=
0159583670999992018010318004+31198+121336FM-15+000399999V0200401N00401003351CN009999199+00401+00301999999ADDGA1071+003351999GE19AGL   +99999+99999GF199999071999003351999999MA1103001999999MW1611REMMET062METAR ZSSS 031800Z 04004MPS 9999 -RA BKN011 04/03 Q1030 NOSIG=
0159583670999992018010318304+31198+121336FM-15+000399999V0200301N00401003051CN009999199+00401+00301999999ADDGA1071+003051999GE19AGL   +99999+99999GF199999071999003051999999MA1103001999999MW1611REMMET062METAR ZSSS 031830Z 03004MPS 9999 -RA BKN010 04/03 Q1030 NOSIG=
0159583670999992018010319004+31198+121336FM-15+000399999V0200301N00601003051CN009999199+00401+00301999999ADDGA1071+003051999GE19AGL   +99999+99999GF199999071999003051999999MA1102901999999MW1611REMMET062METAR ZSSS 031900Z 03006MPS 9999 -RA BKN010 04/03 Q1029 NOSIG=
0159583670999992018010319304+31198+121336FM-15+000399999V0200101N00601002741CN009999199+00401+00301999999ADDGA1071+002741999GE19AGL   +99999+99999GF199999071999002741999999MA1102901999999MW1611REMMET062METAR ZSSS 031930Z 01006MPS 9999 -RA BKN009 04/03 Q1029 NOSIG=
0159583670999992018010320004+31198+121336FM-15+000399999V0200401N00601002741CN009999199+00401+00201999999ADDGA1071+002741999GE19AGL   +99999+99999GF199999071999002741999999MA1102901999999MW1611REMMET062METAR ZSSS 032000Z 04006MPS 9999 -RA BKN009 04/02 Q1029 NOSIG=
0159583670999992018010320304+31198+121336FM-15+000399999V0200401N00501002741CN009999199+00401+00201999999ADDGA1071+002741999GE19AGL   +99999+99999GF199999071999002741999999MA1102801999999MW1611REMMET062METAR ZSSS 032030Z 04005MPS 9999 -RA BKN009 04/02 Q1028 NOSIG=
0167583670999992018010321004+31198+121336FM-15+000399999V0200401V00501002741CN009999199+00401+00201999999ADDGA1071+002741999GE19AGL   +99999+99999GF199999071999002741999999MA1102801999999MW1611REMMET070METAR ZSSS 032100Z 04005MPS 010V080 9999 -RA BKN009 04/02 Q1028 NOSIG=
0159583670999992018010321304+31198+121336FM-15+000399999V0200401N00601002741CN009999199+00401+00201999999ADDGA1071+002741999GE19AGL   +99999+99999GF199999071999002741999999MA1102801999999MW1611REMMET062METAR ZSSS 032130Z 04006MPS 9999 -RA BKN009 04/02 Q1028 NOSIG=
0159583670999992018010322004+31198+121336FM-15+000399999V0200401N00501002741CN009999199+00401+00301999999ADDGA1071+002741999GE19AGL   +99999+99999GF199999071999002741999999MA1102801999999MW1611REMMET062METAR ZSSS 032200Z 04005MPS 9999 -RA BKN009 04/03 Q1028 NOSIG=
0159583670999992018010322304+31198+121336FM-15+000399999V0200401N00401002741CN009999199+00401+00301999999ADDGA1071+002741999GE19AGL   +99999+99999GF199999071999002741999999MA1102801999999MW1611REMMET062METAR ZSSS 032230Z 04004MPS 9999 -RA BKN009 04/03 Q1028 NOSIG=
0159583670999992018010323004+31198+121336FM-15+000399999V0200401N00501002741CN009999199+00401+00301999999ADDGA1071+002741999GE19AGL   +99999+99999GF199999071999002741999999MA1102801999999MW1611REMMET062METAR ZSSS 032300Z 04005MPS 9999 -RA BKN009 04/03 Q1028 NOSIG=
0159583670999992018010323304+31198+121336FM-15+000399999V0200401N00601002741CN009999199+00401+00301999999ADDGA1071+002741999GE19AGL   +99999+99999GF199999071999002741999999MA1102801999999MW1611REMMET062METAR ZSSS 032330Z 04006MPS 9999 -RA BKN009 04/03 Q1028 NOSIG=
0173583670999992018010400004+31198+121336FM-15+000399999V0200401N00601002741CN009999199+00401+00301999999ADDGA1071+002741999GE19AGL   +99999+99999GF199999071999002741999999MA1102801999999MW1611REMMET076METAR ZSSS 040000Z 04006MPS 9999 -RA BKN009 04/03 Q1028 BECMG TL0120 BKN011=
0159583670999992018010400304+31198+121336FM-15+000399999V0200401N00501002741CN009999199+00401+00301999999ADDGA1071+002741999GE19AGL   +99999+99999GF199999071999002741999999MA1102701999999MW1611REMMET062METAR ZSSS 040030Z 04005MPS 9999 -RA BKN009 04/03 Q1027 NOSIG=
0173583670999992018010401004+31198+121336FM-15+000399999V0200401N00501002741CN009999199+00401+00301999999ADDGA1071+002741999GE19AGL   +99999+99999GF199999071999002741999999MA1102801999999MW1611REMMET076METAR ZSSS 040100Z 04005MPS 9999 -RA BKN009 04/03 Q1028 BECMG TL0230 BKN011=
0159583670999992018010401304+31198+121336FM-15+000399999V0200401N00601002741CN009999199+00501+00301999999ADDGA1071+002741999GE19AGL   +99999+99999GF199999071999002741999999MA1102801999999MW1611REMMET062METAR ZSSS 040130Z 04006MPS 9999 -RA BKN009 05/03 Q1028 NOSIG=
0159583670999992018010402004+31198+121336FM-15+000399999V0200401N00401002741CN009999199+00501+00301999999ADDGA1071+002741999GE19AGL   +99999+99999GF199999071999002741999999MA1102801999999MW1611REMMET062METAR ZSSS 040200Z 04004MPS 9999 -RA BKN009 05/03 Q1028 NOSIG=
0159583670999992018010402304+31198+121336FM-15+000399999V0200301N00501002741CN009999199+00501+00401999999ADDGA1071+002741999GE19AGL   +99999+99999GF199999071999002741999999MA1102701999999MW1611REMMET062METAR ZSSS 040230Z 03005MPS 9999 -RA BKN009 05/04 Q1027 NOSIG=
0159583670999992018010403004+31198+121336FM-15+000399999V0200401N00401002741CN009999199+00501+00401999999ADDGA1071+002741999GE19AGL   +99999+99999GF199999071999002741999999MA1102701999999MW1611REMMET062METAR ZSSS 040300Z 04004MPS 9999 -RA BKN009 05/04 Q1027 NOSIG=
0159583670999992018010403304+31198+121336FM-15+000399999V0200501N00501002741CN009999199+00501+00401999999ADDGA1071+002741999GE19AGL   +99999+99999GF199999071999002741999999MA1102601999999MW1611REMMET062METAR ZSSS 040330Z 05005MPS 9999 -RA BKN009 05/04 Q1026 NOSIG=
0159583670999992018010404004+31198+121336FM-15+000399999V0200401N00401002741CN009999199+00501+00401999999ADDGA1071+002741999GE19AGL   +99999+99999GF199999071999002741999999MA1102501999999MW1611REMMET062METAR ZSSS 040400Z 04004MPS 9999 -RA BKN009 05/04 Q1025 NOSIG=
0159583670999992018010404304+31198+121336FM-15+000399999V0200401N00401002741CN009999199+00601+00401999999ADDGA1071+002741999GE19AGL   +99999+99999GF199999071999002741999999MA1102501999999MW1611REMMET062METAR ZSSS 040430Z 04004MPS 9999 -RA BKN009 06/04 Q1025 NOSIG=
0159583670999992018010405004+31198+121336FM-15+000399999V0200401N00501002741CN009999199+00601+00401999999ADDGA1071+002741999GE19AGL   +99999+99999GF199999071999002741999999MA1102401999999MW1611REMMET062METAR ZSSS 040500Z 04005MPS 9999 -RA BKN009 06/04 Q1024 NOSIG=
0159583670999992018010405304+31198+121336FM-15+000399999V0200401N00501002741CN009999199+00601+00401999999ADDGA1071+002741999GE19AGL   +99999+99999GF199999071999002741999999MA1102301999999MW1611REMMET062METAR ZSSS 040530Z 04005MPS 9999 -RA BKN009 06/04 Q1023 NOSIG=
0159583670999992018010406004+31198+121336FM-15+000399999V0200301N00501002741CN009999199+00501+00401999999ADDGA1071+002741999GE19AGL   +99999+99999GF199999071999002741999999MA1102301999999MW1611REMMET062METAR ZSSS 040600Z 03005MPS 9999 -RA BKN009 05/04 Q1023 NOSIG=
0159583670999992018010406304+31198+121336FM-15+000399999V0200301N00501002741CN009999199+00501+00401999999ADDGA1071+002741999GE19AGL   +99999+99999GF199999071999002741999999MA1102301999999MW1611REMMET062METAR ZSSS 040630Z 03005MPS 9999 -RA BKN009 05/04 Q1023 NOSIG=
0173583670999992018010407004+31198+121336FM-15+000399999V0200401N00501002741CN009999199+00501+00401999999ADDGA1071+002741999GE19AGL   +99999+99999GF199999071999002741999999MA1102301999999MW1611REMMET076METAR ZSSS 040700Z 04005MPS 9999 -RA BKN009 05/04 Q1023 BECMG TL0740 BKN011=
0159583670999992018010407304+31198+121336FM-15+000399999V0200401N00501002741CN009999199+00501+00401999999ADDGA1071+002741999GE19AGL   +99999+99999GF199999071999002741999999MA1102201999999MW1611REMMET062METAR ZSSS 040730Z 04005MPS 9999 -RA BKN009 05/04 Q1022 NOSIG=
0159583670999992018010408004+31198+121336FM-15+000399999V0200401N00601002741CN009999199+00501+00401999999ADDGA1071+002741999GE19AGL   +99999+99999GF199999071999002741999999MA1102301999999MW1611REMMET062METAR ZSSS 040800Z 04006MPS 9999 -RA BKN009 05/04 Q1023 NOSIG=
0167583670999992018010408304+31198+121336FM-15+000399999V0200401V00501002741CN009999199+00501+00401999999ADDGA1071+002741999GE19AGL   +99999+99999GF199999071999002741999999MA1102301999999MW1611REMMET070METAR ZSSS 040830Z 04005MPS 010V070 9999 -RA BKN009 05/04 Q1023 NOSIG=
0167583670999992018010409004+31198+121336FM-15+000399999V0200401V00501002741CN008000199+00501+00401999999ADDGA1071+002741999GE19AGL   +99999+99999GF199999071999002741999999MA1102201999999MW1611REMMET070METAR ZSSS 040900Z 04005MPS 020V100 8000 -RA BKN009 05/04 Q1022 NOSIG=
0159583670999992018010409304+31198+121336FM-15+000399999V0200401N00601002741CN009999199+00501+00401999999ADDGA1071+002741999GE19AGL   +99999+99999GF199999071999002741999999MA1102201999999MW1611REMMET062METAR ZSSS 040930Z 04006MPS 9999 -RA BKN009 05/04 Q1022 NOSIG=
0159583670999992018010410004+31198+121336FM-15+000399999V0200301N00501002741CN009999199+00501+00401999999ADDGA1071+002741999GE19AGL   +99999+99999GF199999071999002741999999MA1102201999999MW1611REMMET062METAR ZSSS 041000Z 03005MPS 9999 -RA BKN009 05/04 Q1022 NOSIG=
0159583670999992018010410304+31198+121336FM-15+000399999V0200401N00501002741CN009999199+00501+00401999999ADDGA1071+002741999GE19AGL   +99999+99999GF199999071999002741999999MA1102201999999MW1611REMMET062METAR ZSSS 041030Z 04005MPS 9999 -RA BKN009 05/04 Q1022 NOSIG=
0184583670999992018010411004+31198+121336FM-15+000399999V0200401N00601002741CN009999199+00601+00401999999ADDGA1071+002741999GE19AGL   +99999+99999GF199999071999002741999999MA1102201999999MW1611OC101101REMMET079METAR ZSSS 041100Z 04006G11MPS 9999 -RA BKN009 06/04 Q1022 BECMG TL1140 BKN011=
0170583670999992018010411304+31198+121336FM-15+000399999V0200401N00601002741CN009999199+00601+00401999999ADDGA1071+002741999GE19AGL   +99999+99999GF199999071999002741999999MA1102201999999MW1611OC101101REMMET065METAR ZSSS 041130Z 04006G11MPS 9999 -RA BKN009 06/04 Q1022 NOSIG=
0173583670999992018010412004+31198+121336FM-15+000399999V0200401N00601003051CN009999199+00501+00401999999ADDGA1071+003051999GE19AGL   +99999+99999GF199999071999003051999999MA1102201999999MW1611REMMET076METAR ZSSS 041200Z 04006MPS 9999 -RA BKN010 05/04 Q1022 BECMG TL1240 BKN009=
0159583670999992018010412304+31198+121336FM-15+000399999V0200301N00601003051CN009999199+00501+00401999999ADDGA1071+003051999GE19AGL   +99999+99999GF199999071999003051999999MA1102201999999MW1611REMMET062METAR ZSSS 041230Z 03006MPS 9999 -RA BKN010 05/04 Q1022 NOSIG=
0159583670999992018010413004+31198+121336FM-15+000399999V0200301N00601002741CN009999199+00501+00401999999ADDGA1071+002741999GE19AGL   +99999+99999GF199999071999002741999999MA1102201999999MW1611REMMET062METAR ZSSS 041300Z 03006MPS 9999 -RA BKN009 05/04 Q1022 NOSIG=
0167583670999992018010413304+31198+121336FM-15+000399999V0200201V00601002741CN009999199+00501+00401999999ADDGA1071+002741999GE19AGL   +99999+99999GF199999071999002741999999MA1102201999999MW1611REMMET070METAR ZSSS 041330Z 02006MPS 360V060 9999 -RA BKN009 05/04 Q1022 NOSIG=
0159583670999992018010414004+31198+121336FM-15+000399999V0200101N00601002741CN009999199+00501+00401999999ADDGA1071+002741999GE19AGL   +99999+99999GF199999071999002741999999MA1102301999999MW1611REMMET062METAR ZSSS 041400Z 01006MPS 9999 -RA BKN009 05/04 Q1023 NOSIG=
0159583670999992018010414304+31198+121336FM-15+000399999V0200401N00601002741CN009999199+00501+00401999999ADDGA1071+002741999GE19AGL   +99999+99999GF199999071999002741999999MA1102201999999MW1611REMMET062METAR ZSSS 041430Z 04006MPS 9999 -RA BKN009 05/04 Q1022 NOSIG=
0167583670999992018010415004+31198+121336FM-15+000399999V0200501V00601002741CN009999199+00501+00401999999ADDGA1071+002741999GE19AGL   +99999+99999GF199999071999002741999999MA1102201999999MW1611REMMET070METAR ZSSS 041500Z 05006MPS 020V080 9999 -RA BKN009 05/04 Q1022 NOSIG=
0167583670999992018010415304+31198+121336FM-15+000399999V0200301V00601002741CN009999199+00501+00301999999ADDGA1071+002741999GE19AGL   +99999+99999GF199999071999002741999999MA1102301999999MW1611REMMET070METAR ZSSS 041530Z 03006MPS 360V060 9999 -RA BKN009 05/03 Q1023 NOSIG=
0173583670999992018010416004+31198+121336FM-15+000399999V0200201N00701002741CN009999199+00401+00301999999ADDGA1071+002741999GE19AGL   +99999+99999GF199999071999002741999999MA1102301999999MW1611REMMET076METAR ZSSS 041600Z 02007MPS 9999 -RA BKN009 04/03 Q1023 BECMG TL1740 BKN010=
0159583670999992018010416304+31198+121336FM-15+000399999V0200201N00601002741CN009999199+00501+00301999999ADDGA1071+002741999GE19AGL   +99999+99999GF199999071999002741999999MA1102301999999MW1611REMMET062METAR ZSSS 041630Z 02006MPS 9999 -RA BKN009 05/03 Q1023 NOSIG=
0159583670999992018010417004+31198+121336FM-15+000399999V0200101N00601002741CN009999199+00401+00301999999ADDGA1071+002741999GE19AGL   +99999+99999GF199999071999002741999999MA1102301999999MW1611REMMET062METAR ZSSS 041700Z 01006MPS 9999 -RA BKN009 04/03 Q1023 NOSIG=
0159583670999992018010417304+31198+121336FM-15+000399999V0200101N00601002741CN009999199+00401+00301999999ADDGA1071+002741999GE19AGL   +99999+99999GF199999071999002741999999MA1102301999999MW1611REMMET062METAR ZSSS 041730Z 01006MPS 9999 -RA BKN009 04/03 Q1023 NOSIG=
0159583670999992018010418004+31198+121336FM-15+000399999V0203601N00501002441CN009999199+00401+00301999999ADDGA1071+002441999GE19AGL   +99999+99999GF199999071999002441999999MA1102401999999MW1611REMMET062METAR ZSSS 041800Z 36005MPS 9999 -RA BKN008 04/03 Q1024 NOSIG=
0159583670999992018010418304+31198+121336FM-15+000399999V0203501N00501002441CN009999199+00401+00301999999ADDGA1071+002441999GE19AGL   +99999+99999GF199999071999002441999999MA1102401999999MW1611REMMET062METAR ZSSS 041830Z 35005MPS 9999 -RA BKN008 04/03 Q1024 NOSIG=
0159583670999992018010419004+31198+121336FM-15+000399999V0203501N00501002441CN009999199+00401+00301999999ADDGA1071+002441999GE19AGL   +99999+99999GF199999071999002441999999MA1102401999999MW1611REMMET062METAR ZSSS 041900Z 35005MPS 9999 -RA BKN008 04/03 Q1024 NOSIG=
0159583670999992018010419304+31198+121336FM-15+000399999V0200101N00601002441CN009999199+00401+00301999999ADDGA1071+002441999GE19AGL   +99999+99999GF199999071999002441999999MA1102301999999MW1611REMMET062METAR ZSSS 041930Z 01006MPS 9999 -RA BKN008 04/03 Q1023 NOSIG=
0149583670999992018010420004+31198+121336FM-15+000399999V0203501N00401002441CN009999199+00401+00301999999ADDGA1071+002441999GE19AGL   +99999+99999GF199999071999002441999999MA1102301999999REMMET058METAR ZSSS 042000Z 35004MPS 9999 BKN008 04/03 Q1023 NOSIG=
0149583670999992018010420304+31198+121336FM-15+000399999V0203401N00501002441CN009999199+00401+00301999999ADDGA1071+002441999GE19AGL   +99999+99999GF199999071999002441999999MA1102401999999REMMET058METAR ZSSS 042030Z 34005MPS 9999 BKN008 04/03 Q1024 NOSIG=
0159583670999992018010421004+31198+121336FM-15+000399999V0203401N00601002441CN009999199+00401+00301999999ADDGA1071+002441999GE19AGL   +99999+99999GF199999071999002441999999MA1102401999999MW1611REMMET062METAR ZSSS 042100Z 34006MPS 9999 -RA BKN008 04/03 Q1024 NOSIG=
0159583670999992018010421304+31198+121336FM-15+000399999V0203501N00601002741CN009999199+00301+00201999999ADDGA1071+002741999GE19AGL   +99999+99999GF199999071999002741999999MA1102401999999MW1611REMMET062METAR ZSSS 042130Z 35006MPS 9999 -RA BKN009 03/02 Q1024 NOSIG=
0159583670999992018010422004+31198+121336FM-15+000399999V0203501N00401002741CN009999199+00401+00201999999ADDGA1071+002741999GE19AGL   +99999+99999GF199999071999002741999999MA1102401999999MW1611REMMET062METAR ZSSS 042200Z 35004MPS 9999 -RA BKN009 04/02 Q1024 NOSIG=
0159583670999992018010422304+31198+121336FM-15+000399999V0203501N00501002741CN009999199+00401+00301999999ADDGA1071+002741999GE19AGL   +99999+99999GF199999071999002741999999MA1102401999999MW1611REMMET062METAR ZSSS 042230Z 35005MPS 9999 -RA BKN009 04/03 Q1024 NOSIG=
0173583670999992018010423004+31198+121336FM-15+000399999V0203501N00501002741CN009999199+00401+00301999999ADDGA1071+002741999GE19AGL   +99999+99999GF199999071999002741999999MA1102501999999MW1611REMMET076METAR ZSSS 042300Z 35005MPS 9999 -RA BKN009 04/03 Q1025 BECMG TL0030 BKN011=
0159583670999992018010423304+31198+121336FM-15+000399999V0203501N00501002741CN009999199+00401+00201999999ADDGA1071+002741999GE19AGL   +99999+99999GF199999071999002741999999MA1102501999999MW1611REMMET062METAR ZSSS 042330Z 35005MPS 9999 -RA BKN009 04/02 Q1025 NOSIG=
0173583670999992018010500004+31198+121336FM-15+000399999V0203601N00601003351CN009999199+00401+00201999999ADDGA1071+003351999GE19AGL   +99999+99999GF199999071999003351999999MA1102601999999MW1611REMMET076METAR ZSSS 050000Z 36006MPS 9999 -RA BKN011 04/02 Q1026 BECMG TL0140 BKN015=
0149583670999992018010500304+31198+121336FM-15+000399999V0203501N00501003351CN009999199+00401+00201999999ADDGA1071+003351999GE19AGL   +99999+99999GF199999071999003351999999MA1102601999999REMMET058METAR ZSSS 050030Z 35005MPS 9999 BKN011 04/02 Q1026 NOSIG=
0163583670999992018010501004+31198+121336FM-15+000399999V0203501N00501003961CN009999199+00401+00201999999ADDGA1071+003961999GE19AGL   +99999+99999GF199999071999003961999999MA1102601999999REMMET072METAR ZSSS 050100Z 35005MPS 9999 BKN013 04/02 Q1026 BECMG TL0240 BKN015=
0157583670999992018010501304+31198+121336FM-15+000399999V0203501V00501004571CN009999199+00401+00201999999ADDGA1071+004571999GE19AGL   +99999+99999GF199999071999004571999999MA1102701999999REMMET066METAR ZSSS 050130Z 35005MPS 310V010 9999 BKN015 04/02 Q1027 NOSIG=
0149583670999992018010502004+31198+121336FM-15+000399999V0203501N00501004881CN009999199+00501+00201999999ADDGA1071+004881999GE19AGL   +99999+99999GF199999071999004881999999MA1102701999999REMMET058METAR ZSSS 050200Z 35005MPS 9999 BKN016 05/02 Q1027 NOSIG=
0149583670999992018010502304+31198+121336FM-15+000399999V0203501N00501005791CN009999199+00501+00201999999ADDGA1071+005791999GE19AGL   +99999+99999GF199999071999005791999999MA1102701999999REMMET058METAR ZSSS 050230Z 35005MPS 9999 BKN019 05/02 Q1027 NOSIG=
0149583670999992018010503004+31198+121336FM-15+000399999V0203501N00601005791CN009999199+00501+00201999999ADDGA1071+005791999GE19AGL   +99999+99999GF199999071999005791999999MA1102601999999REMMET058METAR ZSSS 050300Z 35006MPS 9999 BKN019 05/02 Q1026 NOSIG=
0149583670999992018010503304+31198+121336FM-15+000399999V0203401N00501005791CN009999199+00501+00201999999ADDGA1071+005791999GE19AGL   +99999+99999GF199999071999005791999999MA1102601999999REMMET058METAR ZSSS 050330Z 34005MPS 9999 BKN019 05/02 Q1026 NOSIG=
0149583670999992018010504004+31198+121336FM-15+000399999V0203401N00501005791CN009999199+00601+00201999999ADDGA1071+005791999GE19AGL   +99999+99999GF199999071999005791999999MA1102501999999REMMET058METAR ZSSS 050400Z 34005MPS 9999 BKN019 06/02 Q1025 NOSIG=
0149583670999992018010504304+31198+121336FM-15+000399999V0203401N00501005791CN009999199+00601+00101999999ADDGA1071+005791999GE19AGL   +99999+99999GF199999071999005791999999MA1102501999999REMMET058METAR ZSSS 050430Z 34005MPS 9999 BKN019 06/01 Q1025 NOSIG=
0149583670999992018010505004+31198+121336FM-15+000399999V0203501N00601006101CN009999199+00601+00101999999ADDGA1071+006101999GE19AGL   +99999+99999GF199999071999006101999999MA1102501999999REMMET058METAR ZSSS 050500Z 35006MPS 9999 BKN020 06/01 Q1025 NOSIG=
0150583670999992018010505304+31198+121336FM-15+000399999V0203401N00701006101CN009999199+00501+00001999999ADDGA1071+006101999GE19AGL   +99999+99999GF199999071999006101999999MA1102501999999REMMET059METAR ZSSS 050530Z 34007MPS 9999 BKN020 05/M00 Q1025 NOSIG=
0150583670999992018010506004+31198+121336FM-15+000399999V0203401N00701007011CN009999199+00501+00001999999ADDGA1071+007011999GE19AGL   +99999+99999GF199999071999007011999999MA1102401999999REMMET059METAR ZSSS 050600Z 34007MPS 9999 BKN023 05/M00 Q1024 NOSIG=
0150583670999992018010506304+31198+121336FM-15+000399999V0203401N00601007011CN009999199+00501+00001999999ADDGA1071+007011999GE19AGL   +99999+99999GF199999071999007011999999MA1102401999999REMMET059METAR ZSSS 050630Z 34006MPS 9999 BKN023 05/M00 Q1024 NOSIG=
0150583670999992018010507004+31198+121336FM-15+000399999V0203301N00601007011CN009999199+00501+00001999999ADDGA1071+007011999GE19AGL   +99999+99999GF199999071999007011999999MA1102501999999REMMET059METAR ZSSS 050700Z 33006MPS 9999 BKN023 05/M00 Q1025 NOSIG=
0150583670999992018010507304+31198+121336FM-15+000399999V0203301N00601007011CN009999199+00501+00001999999ADDGA1071+007011999GE19AGL   +99999+99999GF199999071999007011999999MA1102501999999REMMET059METAR ZSSS 050730Z 33006MPS 9999 BKN023 05/M00 Q1025 NOSIG=
0150583670999992018010508004+31198+121336FM-15+000399999V0203301N00501007011CN009999199+00501+00001999999ADDGA1071+007011999GE19AGL   +99999+99999GF199999071999007011999999MA1102401999999REMMET059METAR ZSSS 050800Z 33005MPS 9999 BKN023 05/M00 Q1024 NOSIG=
0150583670999992018010508304+31198+121336FM-15+000399999V0203301N00501007011CN009999199+00501+00001999999ADDGA1071+007011999GE19AGL   +99999+99999GF199999071999007011999999MA1102401999999REMMET059METAR ZSSS 050830Z 33005MPS 9999 BKN023 05/M00 Q1024 NOSIG=
0150583670999992018010509004+31198+121336FM-15+000399999V0203401N00401007011CN009999199+00401+00001999999ADDGA1071+007011999GE19AGL   +99999+99999GF199999071999007011999999MA1102501999999REMMET059METAR ZSSS 050900Z 34004MPS 9999 BKN023 04/M00 Q1025 NOSIG=
0150583670999992018010509304+31198+121336FM-15+000399999V0203301N00401007011CN009999199+00401+00001999999ADDGA1071+007011999GE19AGL   +99999+99999GF199999071999007011999999MA1102501999999REMMET059METAR ZSSS 050930Z 33004MPS 9999 BKN023 04/M00 Q1025 NOSIG=
0158583670999992018010510004+31198+121336FM-15+000399999V0203201V00401007011CN009999199+00401-00101999999ADDGA1071+007011999GE19AGL   +99999+99999GF199999071999007011999999MA1102501999999REMMET067METAR ZSSS 051000Z 32004MPS 280V340 9999 BKN023 04/M01 Q1025 NOSIG=
0158583670999992018010510304+31198+121336FM-15+000399999V0203101V004019999999N009999199+00301-00201999999ADDGA1041+007011999GE19AGL   +99999+99999GF199999041999007011999999MA1102601999999REMMET067METAR ZSSS 051030Z 31004MPS 250V330 9999 SCT023 03/M02 Q1026 NOSIG=
0150583670999992018010511004+31198+121336FM-15+000399999V0203201N004019999999N009999199+00301-00201999999ADDGA1041+009141999GE19AGL   +99999+99999GF199999041999009141999999MA1102601999999REMMET059METAR ZSSS 051100Z 32004MPS 9999 SCT030 03/M02 Q1026 NOSIG=
0150583670999992018010511304+31198+121336FM-15+000399999V0203201N004019999999N009999199+00401-00201999999ADDGA1041+009141999GE19AGL   +99999+99999GF199999041999009141999999MA1102601999999REMMET059METAR ZSSS 051130Z 32004MPS 9999 SCT030 04/M02 Q1026 NOSIG=
0150583670999992018010512004+31198+121336FM-15+000399999V0203201N005019999999N009999199+00301-00201999999ADDGA1041+009141999GE19AGL   +99999+99999GF199999041999009141999999MA1102601999999REMMET059METAR ZSSS 051200Z 32005MPS 9999 SCT030 03/M02 Q1026 NOSIG=
0150583670999992018010512304+31198+121336FM-15+000399999V0203201N004019999999N009999199+00301-00101999999ADDGA1021+009141999GE19AGL   +99999+99999GF199999021999009141999999MA1102601999999REMMET059METAR ZSSS 051230Z 32004MPS 9999 FEW030 03/M01 Q1026 NOSIG=
0150583670999992018010513004+31198+121336FM-15+000399999V0203201N004019999999N009999199+00301-00101999999ADDGA1021+009141999GE19AGL   +99999+99999GF199999021999009141999999MA1102601999999REMMET059METAR ZSSS 051300Z 32004MPS 9999 FEW030 03/M01 Q1026 NOSIG=
0088583670999992018010513304+31198+121336FM-15+000399999V0203101V004019999999Y009900199+00201-00101999999ADDMA1102601999999REMMET061METAR ZSSS 051330Z 31004MPS 260V330 CAVOK 02/M01 Q1026 NOSIG=
0150583670999992018010514004+31198+121336FM-15+000399999V0203201N004019999999N009999199+00201-00101999999ADDGA1021+007921999GE19AGL   +99999+99999GF199999021999007921999999MA1102601999999REMMET059METAR ZSSS 051400Z 32004MPS 9999 FEW026 02/M01 Q1026 NOSIG=
0150583670999992018010514304+31198+121336FM-15+000399999V0203301N004019999999N009999199+00201-00101999999ADDGA1021+007921999GE19AGL   +99999+99999GF199999021999007921999999MA1102601999999REMMET059METAR ZSSS 051430Z 33004MPS 9999 FEW026 02/M01 Q1026 NOSIG=
0150583670999992018010515004+31198+121336FM-15+000399999V0203401N004019999999N009999199+00101-00101999999ADDGA1021+007921999GE19AGL   +99999+99999GF199999021999007921999999MA1102601999999REMMET059METAR ZSSS 051500Z 34004MPS 9999 FEW026 01/M01 Q1026 NOSIG=
0150583670999992018010515304+31198+121336FM-15+000399999V0203401N004019999999N009999199+00101-00101999999ADDGA1021+007921999GE19AGL   +99999+99999GF199999021999007921999999MA1102601999999REMMET059METAR ZSSS 051530Z 34004MPS 9999 FEW026 01/M01 Q1026 NOSIG=
0080583670999992018010516004+31198+121336FM-15+000399999V0203401N004019999999Y009900199+00101-00101999999ADDMA1102601999999REMMET053METAR ZSSS 051600Z 34004MPS CAVOK 01/M01 Q1026 NOSIG=
0080583670999992018010516304+31198+121336FM-15+000399999V0203301N003019999999Y009900199+00001-00201999999ADDMA1102601999999REMMET053METAR ZSSS 051630Z 33003MPS CAVOK 00/M02 Q1026 NOSIG=
0080583670999992018010517004+31198+121336FM-15+000399999V0203301N002019999999Y009900199+00001-00201999999ADDMA1102601999999REMMET053METAR ZSSS 051700Z 33002MPS CAVOK 00/M02 Q1026 NOSIG=
0080583670999992018010517304+31198+121336FM-15+000399999V0203301N003019999999Y009900199+00001-00201999999ADDMA1102601999999REMMET053METAR ZSSS 051730Z 33003MPS CAVOK 00/M02 Q1026 NOSIG=
0080583670999992018010518004+31198+121336FM-15+000399999V0203401N002019999999Y009900199+00101-00101999999ADDMA1102601999999REMMET053METAR ZSSS 051800Z 34002MPS CAVOK 01/M01 Q1026 NOSIG=
0080583670999992018010518304+31198+121336FM-15+000399999V0203201N003019999999Y009900199+00101-00101999999ADDMA1102701999999REMMET053METAR ZSSS 051830Z 32003MPS CAVOK 01/M01 Q1027 NOSIG=
0109583670999992018010519004+31198+121336FM-15+000399999V0203301N003012200019N007000199+00101-00101999999ADDGF100991999999999999999999MA1102601999999REMMET056METAR ZSSS 051900Z 33003MPS 7000 NSC 01/M01 Q1026 NOSIG=
0109583670999992018010519304+31198+121336FM-15+000399999V0203201N003012200019N007000199+00001-00201999999ADDGF100991999999999999999999MA1102601999999REMMET056METAR ZSSS 051930Z 32003MPS 7000 NSC 00/M02 Q1026 NOSIG=
0109583670999992018010520004+31198+121336FM-15+000399999V0203101N003012200019N007000199+00101-00101999999ADDGF100991999999999999999999MA1102601999999REMMET056METAR ZSSS 052000Z 31003MPS 7000 NSC 01/M01 Q1026 NOSIG=
0109583670999992018010520304+31198+121336FM-15+000399999V0203401N002012200019N007000199+00001-00201999999ADDGF100991999999999999999999MA1102601999999REMMET056METAR ZSSS 052030Z 34002MPS 7000 NSC 00/M02 Q1026 NOSIG=
0109583670999992018010521004+31198+121336FM-15+000399999V0203301N002012200019N007000199+00001-00201999999ADDGF100991999999999999999999MA1102601999999REMMET056METAR ZSSS 052100Z 33002MPS 7000 NSC 00/M02 Q1026 NOSIG=
0151583670999992018010521304+31198+121336FM-15+000399999V0203501N002019999999N006000199+00001-00201999999ADDGA1041+007921999GE19AGL   +99999+99999GF199999041999007921999999MA1102601999999REMMET060METAR ZSSS 052130Z 35002MPS 6000 SCT026 M00/M02 Q1026 NOSIG=
0151583670999992018010522004+31198+121336FM-15+000399999V0203201N001019999999N006000199+00001-00201999999ADDGA1041+007921999GE19AGL   +99999+99999GF199999041999007921999999MA1102601999999REMMET060METAR ZSSS 052200Z 32001MPS 6000 SCT026 M00/M02 Q1026 NOSIG=
0150583670999992018010522304+31198+121336FM-15+000399999V0203201N00301007921CN006000199+00101-00101999999ADDGA1071+007921999GE19AGL   +99999+99999GF199999071999007921999999MA1102601999999REMMET059METAR ZSSS 052230Z 32003MPS 6000 BKN026 01/M01 Q1026 NOSIG=
0159583670999992018010523004+31198+121336FM-15+000399999V0203201N00201007921CN005000199+00101-00101999999ADDGA1081+007921999GE19AGL   +99999+99999GF199999081999007921999999MA1102701999999MW1101REMMET062METAR ZSSS 052300Z 32002MPS 5000 BR OVC026 01/M01 Q1027 NOSIG=
0159583670999992018010523304+31198+121336FM-15+000399999V0203301N00201007921CN004000199+00101-00101999999ADDGA1081+007921999GE19AGL   +99999+99999GF199999081999007921999999MA1102701999999MW1101REMMET062METAR ZSSS 052330Z 33002MPS 4000 BR OVC026 01/M01 Q1027 NOSIG=
0159583670999992018010600004+31198+121336FM-15+000399999V0203501N00201007921CN004000199+00201-00101999999ADDGA1081+007921999GE19AGL   +99999+99999GF199999081999007921999999MA1102701999999MW1101REMMET062METAR ZSSS 060000Z 35002MPS 4000 BR OVC026 02/M01 Q1027 NOSIG=
0159583670999992018010600304+31198+121336FM-15+000399999V0209999V00101007921CN004000199+00201-00101999999ADDGA1081+007921999GE19AGL   +99999+99999GF199999081999007921999999MA1102701999999MW1101REMMET062METAR ZSSS 060030Z VRB01MPS 4000 BR OVC026 02/M01 Q1027 NOSIG=
0167583670999992018010601004+31198+121336FM-15+000399999V0200201V00201007921CN004200199+00301+00001999999ADDGA1071+007921999GE19AGL   +99999+99999GF199999071999007921999999MA1102701999999MW1101REMMET070METAR ZSSS 060100Z 02002MPS 350V060 4200 BR BKN026 03/M00 Q1027 NOSIG=
0167583670999992018010601304+31198+121336FM-15+000399999V0203601V002019999999N004500199+00301+00001999999ADDGA1021+007921999GE19AGL   +99999+99999GF199999021999007921999999MA1102701999999MW1101REMMET070METAR ZSSS 060130Z 36002MPS 320V060 4500 BR FEW026 03/M00 Q1027 NOSIG=
0167583670999992018010602004+31198+121336FM-15+000399999V0202901V00201007921CN004500199+00301+00001999999ADDGA1071+007921999GE19AGL   +99999+99999GF199999071999007921999999MA1102701999999MW1101REMMET070METAR ZSSS 060200Z 29002MPS 260V320 4500 BR BKN026 03/M00 Q1027 NOSIG=
0166583670999992018010602304+31198+121336FM-15+000399999V0203101V002019999999N005000199+00501+00101999999ADDGA1041+007921999GE19AGL   +99999+99999GF199999041999007921999999MA1102601999999MW1101REMMET069METAR ZSSS 060230Z 31002MPS 270V020 5000 BR SCT026 05/01 Q1026 NOSIG=
0149583670999992018010603004+31198+121336FM-15+000399999V0209999V002019999999N006000199+00501+00101999999ADDGA1041+007921999GE19AGL   +99999+99999GF199999041999007921999999MA1102601999999REMMET058METAR ZSSS 060300Z VRB02MPS 6000 SCT026 05/01 Q1026 NOSIG=
0149583670999992018010603304+31198+121336FM-15+000399999V0209999C00001007011CN007000199+00601+00101999999ADDGA1071+007011999GE19AGL   +99999+99999GF199999071999007011999999MA1102401999999REMMET058METAR ZSSS 060330Z 00000MPS 7000 BKN023 06/01 Q1024 NOSIG=
0157583670999992018010604004+31198+121336FM-15+000399999V0202801V00201007011CN008000199+00601+00001999999ADDGA1071+007011999GE19AGL   +99999+99999GF199999071999007011999999MA1102501999999REMMET066METAR ZSSS 060400Z 28002MPS 250V330 8000 BKN023 06/00 Q1025 NOSIG=
0157583670999992018010604304+31198+121336FM-15+000399999V0203301V002019999999N008000199+00601+00101999999ADDGA1041+009141999GE19AGL   +99999+99999GF199999041999009141999999MA1102401999999REMMET066METAR ZSSS 060430Z 33002MPS 280V010 8000 SCT030 06/01 Q1024 NOSIG=
0149583670999992018010605004+31198+121336FM-15+000399999V0209999V001019999999N008000199+00701+00001999999ADDGA1041+009141999GE19AGL   +99999+99999GF199999041999009141999999MA1102401999999REMMET058METAR ZSSS 060500Z VRB01MPS 8000 SCT030 07/00 Q1024 NOSIG=
0149583670999992018010605304+31198+121336FM-15+000399999V0209999V001019999999N008000199+00701+00001999999ADDGA1041+009141999GE19AGL   +99999+99999GF199999041999009141999999MA1102301999999REMMET058METAR ZSSS 060530Z VRB01MPS 8000 SCT030 07/00 Q1023 NOSIG=
0088583670999992018010606004+31198+121336FM-15+000399999V0200901V003019999999Y009900199+00701+00001999999ADDMA1102301999999REMMET061METAR ZSSS 060600Z 09003MPS 060V120 CAVOK 07/M00 Q1023 NOSIG=
0087583670999992018010606304+31198+121336FM-15+000399999V0200701V004019999999Y009900199+00801+00001999999ADDMA1102201999999REMMET060METAR ZSSS 060630Z 07004MPS 040V100 CAVOK 08/00 Q1022 NOSIG=
0087583670999992018010607004+31198+121336FM-15+000399999V0200701V004019999999Y009900199+00801+00001999999ADDMA1102201999999REMMET060METAR ZSSS 060700Z 07004MPS 040V100 CAVOK 08/00 Q1022 NOSIG=
0087583670999992018010607304+31198+121336FM-15+000399999V0200801V004019999999Y009900199+00701+00001999999ADDMA1102201999999REMMET060METAR ZSSS 060730Z 08004MPS 030V120 CAVOK 07/00 Q1022 NOSIG=
0087583670999992018010608004+31198+121336FM-15+000399999V0200901V003019999999Y009900199+00701+00101999999ADDMA1102201999999REMMET060METAR ZSSS 060800Z 09003MPS 040V140 CAVOK 07/01 Q1022 NOSIG=
0087583670999992018010608304+31198+121336FM-15+000399999V0200601V003019999999Y009900199+00701+00101999999ADDMA1102201999999REMMET060METAR ZSSS 060830Z 06003MPS 020V100 CAVOK 07/01 Q1022 NOSIG=
0087583670999992018010609004+31198+121336FM-15+000399999V0200801V003019999999Y009900199+00701+00101999999ADDMA1102301999999REMMET060METAR ZSSS 060900Z 08003MPS 040V110 CAVOK 07/01 Q1023 NOSIG=
0090583670999992018010609304+31198+121336FM-15+000399999V0200601N004019999999Y009900199+00701+00101999999ADDMA1102201999999OC100901REMMET055METAR ZSSS 060930Z 06004G09MPS CAVOK 07/01 Q1022 NOSIG=
0090583670999992018010610004+31198+121336FM-15+000399999V0200801N004019999999Y009900199+00701+00101999999ADDMA1102201999999OC100901REMMET055METAR ZSSS 061000Z 08004G09MPS CAVOK 07/01 Q1022 NOSIG=
0079583670999992018010610304+31198+121336FM-15+000399999V0200701N004019999999Y009900199+00701+00101999999ADDMA1102201999999REMMET052METAR ZSSS 061030Z 07004MPS CAVOK 07/01 Q1022 NOSIG=
0087583670999992018010611004+31198+121336FM-15+000399999V0200601V004019999999Y009900199+00701+00201999999ADDMA1102201999999REMMET060METAR ZSSS 061100Z 06004MPS 340V100 CAVOK 07/02 Q1022 NOSIG=
0157583670999992018010611304+31198+121336FM-15+000399999V0200501V00401012191CN009999199+00701+00201999999ADDGA1071+012191999GE19AGL   +99999+99999GF199999071999012191999999MA1102201999999REMMET066METAR ZSSS 061130Z 05004MPS 020V090 9999 BKN040 07/02 Q1022 NOSIG=
0149583670999992018010612004+31198+121336FM-15+000399999V0200601N00301012191CN009999199+00701+00201999999ADDGA1071+012191999GE19AGL   +99999+99999GF199999071999012191999999MA1102101999999REMMET058METAR ZSSS 061200Z 06003MPS 9999 BKN040 07/02 Q1021 NOSIG=
0157583670999992018010612304+31198+121336FM-15+000399999V0200601V00301012191CN009999199+00701+00201999999ADDGA1071+012191999GE19AGL   +99999+99999GF199999071999012191999999MA1102101999999REMMET066METAR ZSSS 061230Z 06003MPS 020V080 9999 BKN040 07/02 Q1021 NOSIG=
0167583670999992018010613004+31198+121336FM-15+000399999V0200601V00301010061CN009999199+00701+00301999999ADDGA1081+010061999GE19AGL   +99999+99999GF199999081999010061999999MA1102101999999MW1611REMMET070METAR ZSSS 061300Z 06003MPS 020V090 9999 -RA OVC033 07/03 Q1021 NOSIG=
0167583670999992018010613304+31198+121336FM-15+000399999V0200701V00301010061CN009999199+00801+00401999999ADDGA1081+010061999GE19AGL   +99999+99999GF199999081999010061999999MA1102101999999MW1611REMMET070METAR ZSSS 061330Z 07003MPS 020V110 9999 -RA OVC033 08/04 Q1021 NOSIG=
0157583670999992018010614004+31198+121336FM-15+000399999V0200901V00301010061CN009999199+00801+00401999999ADDGA1081+010061999GE19AGL   +99999+99999GF199999081999010061999999MA1102101999999REMMET066METAR ZSSS 061400Z 09003MPS 050V110 9999 OVC033 08/04 Q1021 NOSIG=
0159583670999992018010614304+31198+121336FM-15+000399999V0209999V00301009141CN007000199+00801+00501999999ADDGA1081+009141999GE19AGL   +99999+99999GF199999081999009141999999MA1102101999999MW1611REMMET062METAR ZSSS 061430Z VRB03MPS 7000 -RA OVC030 08/05 Q1021 NOSIG=
0176583670999992018010615004+31198+121336FM-15+000399999V0201101V00301007011CN004800199+00701+00601999999ADDGA1081+007011999GE19AGL   +99999+99999GF199999081999007011999999MA1102101999999MW1101MW2611REMMET073METAR ZSSS 061500Z 11003MPS 070V140 4800 -RA BR OVC023 07/06 Q1021 NOSIG=
0225583670999992018010615304+31198+121336FM-15+000399999V0200901V003010070119N004800199+00701+00601999999ADDGA1041+003351999GA2081+007011999GE19AGL   +99999+99999GF199999041999003351999999MA1102101999999MW1101MW2611REMMET106METAR ZSSS 061530Z 09003MPS 040V130 4800 -RA BR SCT011 OVC023 07/06 Q1021 BECMG TL1710 2800 -RA BR BKN011=
0225583670999992018010616004+31198+121336FM-15+000399999V0201001V004010091419N004500199+00701+00601999999ADDGA1041+003051999GA2081+009141999GE19AGL   +99999+99999GF199999041999003051999999MA1102001999999MW1101MW2611REMMET106METAR ZSSS 061600Z 10004MPS 070V140 4500 -RA BR SCT010 OVC030 07/06 Q1020 BECMG TL1730 2800 -RA BR BKN010=
0199583670999992018010616304+31198+121336FM-15+000399999V0201001V00401002441CN004000199+00701+00601999999ADDGA1071+002441999GA2081+009141999GE19AGL   +99999+99999GF199999071999002441999999MA1102101999999MW1101MW2611REMMET080METAR ZSSS 061630Z 10004MPS 070V130 4000 -RA BR BKN008 OVC030 07/06 Q1021 NOSIG=
0199583670999992018010617004+31198+121336FM-15+000399999V0200801V00401002441CN004000199+00701+00601999999ADDGA1071+002441999GA2081+009141999GE19AGL   +99999+99999GF199999071999002441999999MA1102001999999MW1101MW2611REMMET080METAR ZSSS 061700Z 08004MPS 060V130 4000 -RA BR BKN008 OVC030 07/06 Q1020 NOSIG=
0199583670999992018010617304+31198+121336FM-15+000399999V0200901V00401002131CN004000199+00701+00601999999ADDGA1071+002131999GA2081+009141999GE19AGL   +99999+99999GF199999071999002131999999MA1102001999999MW1101MW2611REMMET080METAR ZSSS 061730Z 09004MPS 040V120 4000 -RA BR BKN007 OVC030 07/06 Q1020 NOSIG=
0191583670999992018010618004+31198+121336FM-15+000399999V0201001N00401001831CN004500199+00701+00701999999ADDGA1071+001831999GA2081+009141999GE19AGL   +99999+99999GF199999071999001831999999MA1101901999999MW1101MW2611REMMET072METAR ZSSS 061800Z 10004MPS 4500 -RA BR BKN006 OVC030 07/07 Q1019 NOSIG=
0191583670999992018010618304+31198+121336FM-15+000399999V0200901N00401001831CN005000199+00801+00701999999ADDGA1071+001831999GA2081+009141999GE19AGL   +99999+99999GF199999071999001831999999MA1102001999999MW1101MW2611REMMET072METAR ZSSS 061830Z 09004MPS 5000 -RA BR BKN006 OVC030 08/07 Q1020 NOSIG=
0191583670999992018010619004+31198+121336FM-15+000399999V0201001N00301001831CN005000199+00801+00701999999ADDGA1071+001831999GA2081+009141999GE19AGL   +99999+99999GF199999071999001831999999MA1101901999999MW1101MW2611REMMET072METAR ZSSS 061900Z 10003MPS 5000 -RA BR BKN006 OVC030 08/07 Q1019 NOSIG=
0182583670999992018010619304+31198+121336FM-15+000399999V0200901N00301001831CN006000199+00801+00701999999ADDGA1071+001831999GA2081+009141999GE19AGL   +99999+99999GF199999071999001831999999MA1101901999999MW1611REMMET069METAR ZSSS 061930Z 09003MPS 6000 -RA BKN006 OVC030 08/07 Q1019 NOSIG=
0182583670999992018010620004+31198+121336FM-15+000399999V0201001N00501001831CN006000199+00801+00701999999ADDGA1071+001831999GA2081+009141999GE19AGL   +99999+99999GF199999071999001831999999MA1101801999999MW1611REMMET069METAR ZSSS 062000Z 10005MPS 6000 -RA BKN006 OVC030 08/07 Q1018 NOSIG=
0190583670999992018010620304+31198+121336FM-15+000399999V0200901V00401001831CN006000199+00801+00701999999ADDGA1071+001831999GA2081+009141999GE19AGL   +99999+99999GF199999071999001831999999MA1101801999999MW1611REMMET077METAR ZSSS 062030Z 09004MPS 070V130 6000 -RA BKN006 OVC030 08/07 Q1018 NOSIG=
0190583670999992018010621004+31198+121336FM-15+000399999V0201101V00301001831CN006000199+00801+00701999999ADDGA1071+001831999GA2081+009141999GE19AGL   +99999+99999GF199999071999001831999999MA1101801999999MW1611REMMET077METAR ZSSS 062100Z 11003MPS 080V140 6000 -RA BKN006 OVC030 08/07 Q1018 NOSIG=
0199583670999992018010621304+31198+121336FM-15+000399999V0201101V00401001831CN005000199+00801+00701999999ADDGA1071+001831999GA2081+009141999GE19AGL   +99999+99999GF199999071999001831999999MA1101801999999MW1101MW2611REMMET080METAR ZSSS 062130Z 11004MPS 080V140 5000 -RA BR BKN006 OVC030 08/07 Q1018 NOSIG=
0199583670999992018010622004+31198+121336FM-15+000399999V0201101V00401001831CN005000199+00801+00701999999ADDGA1071+001831999GA2081+009141999GE19AGL   +99999+99999GF199999071999001831999999MA1101701999999MW1101MW2611REMMET080METAR ZSSS 062200Z 11004MPS 080V140 5000 -RA BR BKN006 OVC030 08/07 Q1017 NOSIG=
0191583670999992018010622304+31198+121336FM-15+000399999V0201101N00301001831CN005000199+00901+00801999999ADDGA1071+001831999GA2081+009141999GE19AGL   +99999+99999GF199999071999001831999999MA1101801999999MW1101MW2611REMMET072METAR ZSSS 062230Z 11003MPS 5000 -RA BR BKN006 OVC030 09/08 Q1018 NOSIG=
0191583670999992018010623004+31198+121336FM-15+000399999V0201101N00301001831CN005000199+00901+00801999999ADDGA1071+001831999GA2081+009141999GE19AGL   +99999+99999GF199999071999001831999999MA1101801999999MW1101MW2611REMMET072METAR ZSSS 062300Z 11003MPS 5000 -RA BR BKN006 OVC030 09/08 Q1018 NOSIG=
0199583670999992018010623304+31198+121336FM-15+000399999V0200901V00301001831CN004000199+00901+00801999999ADDGA1071+001831999GA2081+009141999GE19AGL   +99999+99999GF199999071999001831999999MA1101801999999MW1101MW2611REMMET080METAR ZSSS 062330Z 09003MPS 050V130 4000 -RA BR BKN006 OVC030 09/08 Q1018 NOSIG=
0224583670999992018010700004+31198+121336FM-15+000399999V0200801N00201001831CN003000199+00901+00801999999ADDGA1071+001831999GA2081+009141999GE19AGL   +99999+99999GF199999071999001831999999MA1101801999999MW1101MW2611REMMET105METAR ZSSS 070000Z 08002MPS 3000 -RA BR BKN006 OVC030 09/08 Q1018 BECMG TL0100 2500 -RA BR BKN004 OVC030=
0191583670999992018010700304+31198+121336FM-15+000399999V0200901N00301001831CN002500199+00901+00801999999ADDGA1071+001831999GA2081+009141999GE19AGL   +99999+99999GF199999071999001831999999MA1101801999999MW1101MW2611REMMET072METAR ZSSS 070030Z 09003MPS 2500 -RA BR BKN006 OVC030 09/08 Q1018 NOSIG=
0205583670999992018010701004+31198+121336FM-15+000399999V0200901N00301001831CN002500199+00901+00901999999ADDGA1071+001831999GA2081+009141999GE19AGL   +99999+99999GF199999071999001831999999MA1101801999999MW1101MW2611REMMET086METAR ZSSS 070100Z 09003MPS 2500 -RA BR BKN006 OVC030 09/09 Q1018 BECMG TL0150 BKN004=
0191583670999992018010701304+31198+121336FM-15+000399999V0200901N00301001521CN002800199+00901+00901999999ADDGA1071+001521999GA2081+009141999GE19AGL   +99999+99999GF199999071999001521999999MA1101701999999MW1101MW2611REMMET072METAR ZSSS 070130Z 09003MPS 2800 -RA BR BKN005 OVC030 09/09 Q1017 NOSIG=
0206583670999992018010702004+31198+121336FM-15+000399999V0201101N00301001521CN002800199+01001+00901999999ADDGA1071+001521999GA2081+009141999GE19AGL   +99999+99999GF199999071999001521999999MA1101801999999MW1101MW2611REMMET087METAR ZSSS 070200Z 11003MPS 2800 -RA BR BKN005 OVC030 10/09 Q1018 BECMG TL0300 3200 BR=
0181583670999992018010702304+31198+121336FM-15+000399999V0200901N00301001521CN003000199+01001+00901999999ADDGA1071+001521999GA2081+009141999GE19AGL   +99999+99999GF199999071999001521999999MA1101701999999MW1101REMMET068METAR ZSSS 070230Z 09003MPS 3000 BR BKN005 OVC030 10/09 Q1017 NOSIG=
0261583670999992018010703004+31198+121336FM-15+000399999V0201201V00201001521CN003000199+01001+01001999999ADDED118L99999GA1071+001521999GA2081+009141999GE19AGL   +99999+99999GF199999071999001521999999MA1101701999999MW1101MW2611REMMET131METAR ZSSS 070300Z 12002MPS 090V150 3000 R18L/P2000 R18R/1300N -RA BR BKN005 OVC030 10/10 Q1017 BECMG TL0400 2500 BR BKN004 OVC030=
0224583670999992018010703304+31198+121336FM-15+000399999V0209999V00101001221CN002500199+01001+01001999999ADDED118L99999GA1071+001221999GA2081+009141999GE19AGL   +99999+99999GF199999071999001221999999MA1101601999999MW1101MW2611REMMET094METAR ZSSS 070330Z VRB01MPS 2500 R18L/P2000 R18R/1300D -RA BR BKN004 OVC030 10/10 Q1016 NOSIG=
0191583670999992018010704004+31198+121336FM-15+000399999V0201301N00201001221CN002800199+01001+01001999999ADDGA1071+001221999GA2081+009141999GE19AGL   +99999+99999GF199999071999001221999999MA1101601999999MW1101MW2611REMMET072METAR ZSSS 070400Z 13002MPS 2800 -RA BR BKN004 OVC030 10/10 Q1016 NOSIG=
0224583670999992018010704304+31198+121336FM-15+000399999V0201201N00201001221CN002800199+01101+01001999999ADDED118L99999GA1071+001221999GA2081+009141999GE19AGL   +99999+99999GF199999071999001221999999MA1101401999999MW1101MW2611REMMET094METAR ZSSS 070430Z 12002MPS 2800 R18L/P2000 R18R/1400N -RA BR BKN004 OVC030 11/10 Q1014 NOSIG=
0199583670999992018010705004+31198+121336FM-15+000399999V0201601V00201001221CN005000199+01101+01001999999ADDGA1071+001221999GA2081+009141999GE19AGL   +99999+99999GF199999071999001221999999MA1101401999999MW1101MW2611REMMET080METAR ZSSS 070500Z 16002MPS 130V190 5000 -RA BR BKN004 OVC030 11/10 Q1014 NOSIG=
0199583670999992018010705304+31198+121336FM-15+000399999V0202301V00201001221CN002500199+01101+01001999999ADDGA1071+001221999GA2081+009141999GE19AGL   +99999+99999GF199999071999001221999999MA1101401999999MW1101MW2611REMMET080METAR ZSSS 070530Z 23002MPS 170V280 2500 -RA BR BKN004 OVC030 11/10 Q1014 NOSIG=
0191583670999992018010706004+31198+121336FM-15+000399999V0202401N00301001221CN002800199+01101+01001999999ADDGA1071+001221999GA2081+009141999GE19AGL   +99999+99999GF199999071999001221999999MA1101401999999MW1101MW2611REMMET072METAR ZSSS 070600Z 24003MPS 2800 -RA BR BKN004 OVC030 11/10 Q1014 NOSIG=
0191583670999992018010706304+31198+121336FM-15+000399999V0202701N00401001221CN005000199+01001+00901999999ADDGA1071+001221999GA2081+009141999GE19AGL   +99999+99999GF199999071999001221999999MA1101401999999MW1101MW2611REMMET072METAR ZSSS 070630Z 27004MPS 5000 -RA BR BKN004 OVC030 10/09 Q1014 NOSIG=
0203583670999992018010707004+31198+121336FM-15+000399999V0202701N00501001221CN006000199+00901+00801999999ADDGA1071+001221999GA2081+009141999GE19AGL   +99999+99999GF199999071999001221999999MA1101501999999MW1611REMMET090METAR ZSSS 070700Z 27005MPS 6000 -RA BKN004 OVC030 09/08 Q1015 BECMG TL0830 BKN005 OVC030=
0191583670999992018010707304+31198+121336FM-15+000399999V0202801N00601001221CN005000199+00901+00801999999ADDGA1071+001221999GA2081+009141999GE19AGL   +99999+99999GF199999071999001221999999MA1101501999999MW1101MW2611REMMET072METAR ZSSS 070730Z 28006MPS 5000 -RA BR BKN004 OVC030 09/08 Q1015 NOSIG=
0212583670999992018010708004+31198+121336FM-15+000399999V0202901N00501001221CN003000199+00801+00701999999ADDGA1071+001221999GA2081+009141999GE19AGL   +99999+99999GF199999071999001221999999MA1101501999999MW1101MW2611REMMET093METAR ZSSS 070800Z 29005MPS 3000 -RA BR BKN004 OVC030 08/07 Q1015 BECMG TL0840 BKN006 OVC030=
0199583670999992018010708304+31198+121336FM-15+000399999V0202801V00501001521CN003000199+00701+00601999999ADDGA1071+001521999GA2081+009141999GE19AGL   +99999+99999GF199999071999001521999999MA1101601999999MW1101MW2611REMMET080METAR ZSSS 070830Z 28005MPS 260V320 3000 -RA BR BKN005 OVC030 07/06 Q1016 NOSIG=
0199583670999992018010709004+31198+121336FM-15+000399999V0202801V00401001521CN004500199+00701+00601999999ADDGA1071+001521999GA2081+009141999GE19AGL   +99999+99999GF199999071999001521999999MA1101601999999MW1101MW2611REMMET080METAR ZSSS 070900Z 28004MPS 250V320 4500 -RA BR BKN005 OVC030 07/06 Q1016 NOSIG=
0182583670999992018010709304+31198+121336FM-15+000399999V0202901N00601001831CN006000199+00701+00601999999ADDGA1071+001831999GA2081+009141999GE19AGL   +99999+99999GF199999071999001831999999MA1101601999999MW1611REMMET069METAR ZSSS 070930Z 29006MPS 6000 -RA BKN006 OVC030 07/06 Q1016 NOSIG=
0182583670999992018010710004+31198+121336FM-15+000399999V0202901N00401002131CN009999199+00601+00501999999ADDGA1071+002131999GA2081+010061999GE19AGL   +99999+99999GF199999071999002131999999MA1101601999999MW1611REMMET069METAR ZSSS 071000Z 29004MPS 9999 -RA BKN007 OVC033 06/05 Q1016 NOSIG=
0190583670999992018010710304+31198+121336FM-15+000399999V0202801V00601002131CN009999199+00601+00501999999ADDGA1071+002131999GA2081+010061999GE19AGL   +99999+99999GF199999071999002131999999MA1101701999999MW1611REMMET077METAR ZSSS 071030Z 28006MPS 250V310 9999 -RA BKN007 OVC033 06/05 Q1017 NOSIG=
0172583670999992018010711004+31198+121336FM-15+000399999V0202901N00501002131CN009999199+00601+00401999999ADDGA1071+002131999GA2081+010061999GE19AGL   +99999+99999GF199999071999002131999999MA1101701999999REMMET065METAR ZSSS 071100Z 29005MPS 9999 BKN007 OVC033 06/04 Q1017 NOSIG=
0172583670999992018010711304+31198+121336FM-15+000399999V0202801N00501002131CN009999199+00501+00401999999ADDGA1071+002131999GA2081+010061999GE19AGL   +99999+99999GF199999071999002131999999MA1101701999999REMMET065METAR ZSSS 071130Z 28005MPS 9999 BKN007 OVC033 05/04 Q1017 NOSIG=
0186583670999992018010712004+31198+121336FM-15+000399999V0202801N00501002441CN009999199+00501+00401999999ADDGA1071+002441999GA2081+010061999GE19AGL   +99999+99999GF199999071999002441999999MA1101701999999REMMET079METAR ZSSS 071200Z 28005MPS 9999 BKN008 OVC033 05/04 Q1017 BECMG TL1340 BKN010=
0172583670999992018010712304+31198+121336FM-15+000399999V0202801N00501002741CN009999199+00501+00401999999ADDGA1071+002741999GA2081+010061999GE19AGL   +99999+99999GF199999071999002741999999MA1101801999999REMMET065METAR ZSSS 071230Z 28005MPS 9999 BKN009 OVC033 05/04 Q1018 NOSIG=
0180583670999992018010713004+31198+121336FM-15+000399999V0202801V00501002741CN009999199+00501+00301999999ADDGA1071+002741999GA2081+010061999GE19AGL   +99999+99999GF199999071999002741999999MA1101701999999REMMET073METAR ZSSS 071300Z 28005MPS 250V310 9999 BKN009 OVC033 05/03 Q1017 NOSIG=
0180583670999992018010713304+31198+121336FM-15+000399999V0202901V00601003051CN009999199+00501+00301999999ADDGA1071+003051999GA2081+010061999GE19AGL   +99999+99999GF199999071999003051999999MA1101701999999REMMET073METAR ZSSS 071330Z 29006MPS 250V320 9999 BKN010 OVC033 05/03 Q1017 NOSIG=
0201583670999992018010714004+31198+121336FM-15+000399999V0202801V00601003051CN009999199+00501+00301999999ADDGA1071+003051999GA2081+010061999GE19AGL   +99999+99999GF199999071999003051999999MA1101801999999REMMET094METAR ZSSS 071400Z 28006MPS 260V320 9999 BKN010 OVC033 05/03 Q1018 BECMG TL1430 BKN009 OVC033=
0172583670999992018010714304+31198+121336FM-15+000399999V0202701N00601002741CN009999199+00401+00301999999ADDGA1071+002741999GA2081+010061999GE19AGL   +99999+99999GF199999071999002741999999MA1101801999999REMMET065METAR ZSSS 071430Z 27006MPS 9999 BKN009 OVC033 04/03 Q1018 NOSIG=
0172583670999992018010715004+31198+121336FM-15+000399999V0202801N00401002741CN009999199+00401+00301999999ADDGA1071+002741999GA2081+010061999GE19AGL   +99999+99999GF199999071999002741999999MA1101801999999REMMET065METAR ZSSS 071500Z 28004MPS 9999 BKN009 OVC033 04/03 Q1018 NOSIG=
0172583670999992018010715304+31198+121336FM-15+000399999V0202901N00701002741CN009999199+00401+00201999999ADDGA1071+002741999GA2081+010061999GE19AGL   +99999+99999GF199999071999002741999999MA1101701999999REMMET065METAR ZSSS 071530Z 29007MPS 9999 BKN009 OVC033 04/02 Q1017 NOSIG=
0172583670999992018010716004+31198+121336FM-15+000399999V0202901N00601002741CN009999199+00401+00201999999ADDGA1071+002741999GA2081+010061999GE19AGL   +99999+99999GF199999071999002741999999MA1101701999999REMMET065METAR ZSSS 071600Z 29006MPS 9999 BKN009 OVC033 04/02 Q1017 NOSIG=
0172583670999992018010716304+31198+121336FM-15+000399999V0202801N00601002741CN009999199+00401+00201999999ADDGA1071+002741999GA2081+010061999GE19AGL   +99999+99999GF199999071999002741999999MA1101801999999REMMET065METAR ZSSS 071630Z 28006MPS 9999 BKN009 OVC033 04/02 Q1018 NOSIG=
0172583670999992018010717004+31198+121336FM-15+000399999V0202801N00701002741CN009999199+00401+00201999999ADDGA1071+002741999GA2081+010061999GE19AGL   +99999+99999GF199999071999002741999999MA1101801999999REMMET065METAR ZSSS 071700Z 28007MPS 9999 BKN009 OVC033 04/02 Q1018 NOSIG=
0180583670999992018010717304+31198+121336FM-15+000399999V0202801V00601002741CN009999199+00401+00201999999ADDGA1071+002741999GA2081+010061999GE19AGL   +99999+99999GF199999071999002741999999MA1101801999999REMMET073METAR ZSSS 071730Z 28006MPS 260V320 9999 BKN009 OVC033 04/02 Q1018 NOSIG=
0172583670999992018010718004+31198+121336FM-15+000399999V0202801N00601002741CN009999199+00401+00201999999ADDGA1071+002741999GA2081+010061999GE19AGL   +99999+99999GF199999071999002741999999MA1101801999999REMMET065METAR ZSSS 071800Z 28006MPS 9999 BKN009 OVC033 04/02 Q1018 NOSIG=
0172583670999992018010718304+31198+121336FM-15+000399999V0202901N00801002741CN009999199+00301+00101999999ADDGA1071+002741999GA2081+010061999GE19AGL   +99999+99999GF199999071999002741999999MA1101901999999REMMET065METAR ZSSS 071830Z 29008MPS 9999 BKN009 OVC033 03/01 Q1019 NOSIG=
0183583670999992018010719004+31198+121336FM-15+000399999V0202901N00701002741CN009999199+00301+00101999999ADDGA1071+002741999GA2081+010061999GE19AGL   +99999+99999GF199999071999002741999999MA1101901999999OC101301REMMET068METAR ZSSS 071900Z 29007G13MPS 9999 BKN009 OVC033 03/01 Q1019 NOSIG=
0191583670999992018010719304+31198+121336FM-15+000399999V0202801V00701002741CN009999199+00301+00101999999ADDGA1071+002741999GA2081+010061999GE19AGL   +99999+99999GF199999071999002741999999MA1101801999999OC101201REMMET076METAR ZSSS 071930Z 28007G12MPS 250V310 9999 BKN009 OVC033 03/01 Q1018 NOSIG=
0172583670999992018010720004+31198+121336FM-15+000399999V0203001N00801002741CN009999199+00301+00101999999ADDGA1071+002741999GA2081+010061999GE19AGL   +99999+99999GF199999071999002741999999MA1101701999999REMMET065METAR ZSSS 072000Z 30008MPS 9999 BKN009 OVC033 03/01 Q1017 NOSIG=
0180583670999992018010720304+31198+121336FM-15+000399999V0202901V00601003051CN008000199+00301+00101999999ADDGA1071+003051999GA2081+010061999GE19AGL   +99999+99999GF199999071999003051999999MA1101801999999REMMET073METAR ZSSS 072030Z 29006MPS 260V320 8000 BKN010 OVC033 03/01 Q1018 NOSIG=
0172583670999992018010721004+31198+121336FM-15+000399999V0202901N00501003051CN006000199+00301+00101999999ADDGA1071+003051999GA2081+010061999GE19AGL   +99999+99999GF199999071999003051999999MA1101801999999REMMET065METAR ZSSS 072100Z 29005MPS 6000 BKN010 OVC033 03/01 Q1018 NOSIG=
0172583670999992018010721304+31198+121336FM-15+000399999V0202901N00701003351CN006000199+00301+00101999999ADDGA1071+003351999GA2081+010061999GE19AGL   +99999+99999GF199999071999003351999999MA1101901999999REMMET065METAR ZSSS 072130Z 29007MPS 6000 BKN011 OVC033 03/01 Q1019 NOSIG=
0181583670999992018010722004+31198+121336FM-15+000399999V0203001N00701003351CN005000199+00301+00101999999ADDGA1071+003351999GA2081+010061999GE19AGL   +99999+99999GF199999071999003351999999MA1101801999999MW1101REMMET068METAR ZSSS 072200Z 30007MPS 5000 BR BKN011 OVC033 03/01 Q1018 NOSIG=
0181583670999992018010722304+31198+121336FM-15+000399999V0203001N00801003351CN005000199+00301+00101999999ADDGA1071+003351999GA2081+010061999GE19AGL   +99999+99999GF199999071999003351999999MA1101801999999MW1101REMMET068METAR ZSSS 072230Z 30008MPS 5000 BR BKN011 OVC033 03/01 Q1018 NOSIG=
0195583670999992018010723004+31198+121336FM-15+000399999V0203001N00701003351CN005000199+00301+00101999999ADDGA1071+003351999GA2081+010061999GE19AGL   +99999+99999GF199999071999003351999999MA1101901999999MW1101REMMET082METAR ZSSS 072300Z 30007MPS 5000 BR BKN011 OVC033 03/01 Q1019 BECMG TL0030 BKN015=
0181583670999992018010723304+31198+121336FM-15+000399999V0203001N00801003351CN004000199+00401+00101999999ADDGA1071+003351999GA2081+010061999GE19AGL   +99999+99999GF199999071999003351999999MA1102001999999MW1101REMMET068METAR ZSSS 072330Z 30008MPS 4000 BR BKN011 OVC033 04/01 Q1020 NOSIG=
0195583670999992018010800004+31198+121336FM-15+000399999V0203001N00901003351CN004000199+00301+00101999999ADDGA1071+003351999GA2081+010061999GE19AGL   +99999+99999GF199999071999003351999999MA1102001999999MW1101REMMET082METAR ZSSS 080000Z 30009MPS 4000 BR BKN011 OVC033 03/01 Q1020 BECMG TL0120 BKN015=
0181583670999992018010800304+31198+121336FM-15+000399999V0203001N00801003961CN004000199+00401+00101999999ADDGA1071+003961999GA2081+010061999GE19AGL   +99999+99999GF199999071999003961999999MA1102001999999MW1101REMMET068METAR ZSSS 080030Z 30008MPS 4000 BR BKN013 OVC033 04/01 Q1020 NOSIG=
0211583670999992018010801004+31198+121336FM-15+000399999V0203001V00801003961CN003000199+00401+00101999999ADDGA1071+003961999GA2081+010061999GE19AGL   +99999+99999GF199999071999003961999999MA1102001999999MW1101REMMET098METAR ZSSS 080100Z 30008MPS 260V320 3000 BR BKN013 OVC033 04/01 Q1020 BECMG TL0230 2200 BR BKN015=
0195583670999992018010801304+31198+121336FM-15+000399999V0203001N00901003961CN002800199+00401+00001999999ADDGA1071+003961999GA2081+010061999GE19AGL   +99999+99999GF199999071999003961999999MA1102101999999MW1101REMMET082METAR ZSSS 080130Z 30009MPS 2800 BR BKN013 OVC033 04/00 Q1021 BECMG TL0230 BKN015=
0195583670999992018010802004+31198+121336FM-15+000399999V0203001N00801003961CN002600199+00301+00001999999ADDGA1071+003961999GA2081+010061999GE19AGL   +99999+99999GF199999071999003961999999MA1102101999999MW1101REMMET082METAR ZSSS 080200Z 30008MPS 2600 BR BKN013 OVC033 03/00 Q1021 BECMG TL0310 BKN015=
0181583670999992018010802304+31198+121336FM-15+000399999V0203001N00801004571CN002600199+00401+00001999999ADDGA1071+004571999GA2081+010061999GE19AGL   +99999+99999GF199999071999004571999999MA1102101999999MW1101REMMET068METAR ZSSS 080230Z 30008MPS 2600 BR BKN015 OVC033 04/00 Q1021 NOSIG=
0190583670999992018010803004+31198+121336FM-15+000399999V0202801V00601004571CN002500199+00301+00001999999ADDGA1071+004571999GA2081+010061999GE19AGL   +99999+99999GF199999071999004571999999MA1102101999999MW1101REMMET077METAR ZSSS 080300Z 28006MPS 250V310 2500 BR BKN015 OVC033 03/M00 Q1021 NOSIG=
0190583670999992018010803304+31198+121336FM-15+000399999V0203001V00701006101CN002800199+00401-00101999999ADDGA1071+006101999GA2081+010061999GE19AGL   +99999+99999GF199999071999006101999999MA1102001999999MW1101REMMET077METAR ZSSS 080330Z 30007MPS 260V320 2800 BR BKN020 OVC033 04/M01 Q1020 NOSIG=
0178583670999992018010804004+31198+121336FM-15+000399999V0202901N00701006101CN002800199+00401-00101999999ADDGA1071+006101999GE19AGL   +99999+99999GF199999071999006101999999MA1102001999999MW1051REMMET081METAR ZSSS 080400Z 29007MPS 2800 HZ BKN020 04/M01 Q1020 BECMG TL0440 3000 RMK HZ=
0167583670999992018010804304+31198+121336FM-15+000399999V0202801V00701006101CN002800199+00401-00101999999ADDGA1071+006101999GE19AGL   +99999+99999GF199999071999006101999999MA1102001999999MW1051REMMET070METAR ZSSS 080430Z 28007MPS 260V320 2800 HZ BKN020 04/M01 Q1020 NOSIG=
0159583670999992018010805004+31198+121336FM-15+000399999V0202901N007019999999N003000199+00401-00101999999ADDGA1041+006101999GE19AGL   +99999+99999GF199999041999006101999999MA1101901999999MW1051REMMET062METAR ZSSS 080500Z 29007MPS 3000 HZ SCT020 04/M01 Q1019 NOSIG=
0167583670999992018010805304+31198+121336FM-15+000399999V0202801V006019999999N003500199+00401-00201999999ADDGA1041+007011999GE19AGL   +99999+99999GF199999041999007011999999MA1101901999999MW1051REMMET070METAR ZSSS 080530Z 28006MPS 240V320 3500 HZ SCT023 04/M02 Q1019 NOSIG=
0178583670999992018010806004+31198+121336FM-15+000399999V0202901V00701007011CN003500199+00401-00201999999ADDGA1071+007011999GE19AGL   +99999+99999GF199999071999007011999999MA1101901999999MW1051OC101201REMMET073METAR ZSSS 080600Z 29007G12MPS 250V330 3500 HZ BKN023 04/M02 Q1019 NOSIG=
0167583670999992018010806304+31198+121336FM-15+000399999V0202901V00701007921CN003500199+00401-00201999999ADDGA1071+007921999GE19AGL   +99999+99999GF199999071999007921999999MA1101901999999MW1051REMMET070METAR ZSSS 080630Z 29007MPS 260V320 3500 HZ BKN026 04/M02 Q1019 NOSIG=
0159583670999992018010807004+31198+121336FM-15+000399999V0202901N00701007921CN004000199+00401-00201999999ADDGA1071+007921999GE19AGL   +99999+99999GF199999071999007921999999MA1102001999999MW1051REMMET062METAR ZSSS 080700Z 29007MPS 4000 HZ BKN026 04/M02 Q1020 NOSIG=
0167583670999992018010807304+31198+121336FM-15+000399999V0202901V00701007921CN004000199+00401-00201999999ADDGA1071+007921999GE19AGL   +99999+99999GF199999071999007921999999MA1102001999999MW1051REMMET070METAR ZSSS 080730Z 29007MPS 250V310 4000 HZ BKN026 04/M02 Q1020 NOSIG=
0159583670999992018010808004+31198+121336FM-15+000399999V0202801N006019999999N004000199+00401-00201999999ADDGA1041+007921999GE19AGL   +99999+99999GF199999041999007921999999MA1102001999999MW1051REMMET062METAR ZSSS 080800Z 28006MPS 4000 HZ SCT026 04/M02 Q1020 NOSIG=
0159583670999992018010808304+31198+121336FM-15+000399999V0202901N007019999999N004000199+00401-00201999999ADDGA1041+007921999GE19AGL   +99999+99999GF199999041999007921999999MA1102001999999MW1051REMMET062METAR ZSSS 080830Z 29007MPS 4000 HZ SCT026 04/M02 Q1020 NOSIG=
0170583670999992018010809004+31198+121336FM-15+000399999V0202901N007019999999N004000199+00401-00201999999ADDGA1041+007921999GE19AGL   +99999+99999GF199999041999007921999999MA1102001999999MW1051OC101201REMMET065METAR ZSSS 080900Z 29007G12MPS 4000 HZ SCT026 04/M02 Q1020 NOSIG=
0159583670999992018010809304+31198+121336FM-15+000399999V0202801N007019999999N004000199+00401-00201999999ADDGA1021+007921999GE19AGL   +99999+99999GF199999021999007921999999MA1102101999999MW1051REMMET062METAR ZSSS 080930Z 28007MPS 4000 HZ FEW026 04/M02 Q1021 NOSIG=
0167583670999992018010810004+31198+121336FM-15+000399999V0202901V007019999999N004000199+00301-00301999999ADDGA1021+007921999GE19AGL   +99999+99999GF199999021999007921999999MA1102101999999MW1051REMMET070METAR ZSSS 081000Z 29007MPS 260V320 4000 HZ FEW026 03/M03 Q1021 NOSIG=
0159583670999992018010810304+31198+121336FM-15+000399999V0202801N005019999999N004000199+00301-00201999999ADDGA1021+007921999GE19AGL   +99999+99999GF199999021999007921999999MA1102101999999MW1051REMMET062METAR ZSSS 081030Z 28005MPS 4000 HZ FEW026 03/M02 Q1021 NOSIG=
0167583670999992018010811004+31198+121336FM-15+000399999V0202801V005019999999N004000199+00301-00301999999ADDGA1041+007921999GE19AGL   +99999+99999GF199999041999007921999999MA1102201999999MW1051REMMET070METAR ZSSS 081100Z 28005MPS 250V310 4000 HZ SCT026 03/M03 Q1022 NOSIG=
0158583670999992018010811304+31198+121336FM-15+000399999V0202801V006019999999N006000199+00301-00401999999ADDGA1041+010061999GE19AGL   +99999+99999GF199999041999010061999999MA1102201999999REMMET067METAR ZSSS 081130Z 28006MPS 230V320 6000 SCT033 03/M04 Q1022 NOSIG=
0161583670999992018010812004+31198+121336FM-15+000399999V0202801N006019999999N006000199+00201-00601999999ADDGA1041+010061999GE19AGL   +99999+99999GF199999041999010061999999MA1102301999999OC101101REMMET062METAR ZSSS 081200Z 28006G11MPS 6000 SCT033 02/M06 Q1023 NOSIG=
0091583670999992018010812304+31198+121336FM-15+000399999V0202901N009019999999Y009900199+00201-00701999999ADDMA1102301999999OC101601REMMET056METAR ZSSS 081230Z 29009G16MPS CAVOK 02/M07 Q1023 NOSIG=
0099583670999992018010813004+31198+121336FM-15+000399999V0202901V009019999999Y009900199+00201-00701999999ADDMA1102401999999OC101401REMMET064METAR ZSSS 081300Z 29009G14MPS 260V320 CAVOK 02/M07 Q1024 NOSIG=
0091583670999992018010813304+31198+121336FM-15+000399999V0202901N009019999999Y009900199+00101-00701999999ADDMA1102401999999OC101401REMMET056METAR ZSSS 081330Z 29009G14MPS CAVOK 01/M07 Q1024 NOSIG=
0091583670999992018010814004+31198+121336FM-15+000399999V0202901N009019999999Y009900199+00101-00701999999ADDMA1102501999999OC101401REMMET056METAR ZSSS 081400Z 29009G14MPS CAVOK 01/M07 Q1025 NOSIG=
0080583670999992018010814304+31198+121336FM-15+000399999V0202901N009019999999Y009900199+00101-00701999999ADDMA1102401999999REMMET053METAR ZSSS 081430Z 29009MPS CAVOK 01/M07 Q1024 NOSIG=
0080583670999992018010815004+31198+121336FM-15+000399999V0202901N008019999999Y009900199+00101-00801999999ADDMA1102501999999REMMET053METAR ZSSS 081500Z 29008MPS CAVOK 01/M08 Q1025 NOSIG=
0080583670999992018010815304+31198+121336FM-15+000399999V0202901N008019999999Y009900199+00101-00801999999ADDMA1102501999999REMMET053METAR ZSSS 081530Z 29008MPS CAVOK 01/M08 Q1025 NOSIG=
0080583670999992018010816004+31198+121336FM-15+000399999V0202901N008019999999Y009900199+00101-00801999999ADDMA1102601999999REMMET053METAR ZSSS 081600Z 29008MPS CAVOK 01/M08 Q1026 NOSIG=
0088583670999992018010816304+31198+121336FM-15+000399999V0202801V008019999999Y009900199+00001-00801999999ADDMA1102601999999REMMET061METAR ZSSS 081630Z 28008MPS 260V320 CAVOK 00/M08 Q1026 NOSIG=
0080583670999992018010817004+31198+121336FM-15+000399999V0202801N007019999999Y009900199+00001-00801999999ADDMA1102601999999REMMET053METAR ZSSS 081700Z 28007MPS CAVOK 00/M08 Q1026 NOSIG=
0081583670999992018010817304+31198+121336FM-15+000399999V0202901N006019999999Y009900199+00001-00801999999ADDMA1102601999999REMMET054METAR ZSSS 081730Z 29006MPS CAVOK M00/M08 Q1026 NOSIG=
0081583670999992018010818004+31198+121336FM-15+000399999V0202901N007019999999Y009900199+00001-00901999999ADDMA1102501999999REMMET054METAR ZSSS 081800Z 29007MPS CAVOK M00/M09 Q1025 NOSIG=
0081583670999992018010818304+31198+121336FM-15+000399999V0202901N008019999999Y009900199+00001-00901999999ADDMA1102601999999REMMET054METAR ZSSS 081830Z 29008MPS CAVOK M00/M09 Q1026 NOSIG=
0081583670999992018010819004+31198+121336FM-15+000399999V0202901N006019999999Y009900199+00001-00801999999ADDMA1102501999999REMMET054METAR ZSSS 081900Z 29006MPS CAVOK M00/M08 Q1025 NOSIG=
0081583670999992018010819304+31198+121336FM-15+000399999V0202801N005019999999Y009900199-00101-00801999999ADDMA1102501999999REMMET054METAR ZSSS 081930Z 28005MPS CAVOK M01/M08 Q1025 NOSIG=
0081583670999992018010820004+31198+121336FM-15+000399999V0202701N005019999999Y009900199-00101-00801999999ADDMA1102501999999REMMET054METAR ZSSS 082000Z 27005MPS CAVOK M01/M08 Q1025 NOSIG=
0081583670999992018010820304+31198+121336FM-15+000399999V0202701N004019999999Y009900199-00101-00801999999ADDMA1102501999999REMMET054METAR ZSSS 082030Z 27004MPS CAVOK M01/M08 Q1025 NOSIG=
0081583670999992018010821004+31198+121336FM-15+000399999V0202601N005019999999Y009900199-00101-00801999999ADDMA1102601999999REMMET054METAR ZSSS 082100Z 26005MPS CAVOK M01/M08 Q1026 NOSIG=
0081583670999992018010821304+31198+121336FM-15+000399999V0202701N005019999999Y009900199+00001-00801999999ADDMA1102601999999REMMET054METAR ZSSS 082130Z 27005MPS CAVOK M00/M08 Q1026 NOSIG=
0089583670999992018010822004+31198+121336FM-15+000399999V0202701V004019999999Y009900199-00101-00701999999ADDMA1102601999999REMMET062METAR ZSSS 082200Z 27004MPS 240V310 CAVOK M01/M07 Q1026 NOSIG=
0081583670999992018010822304+31198+121336FM-15+000399999V0202701N004019999999Y009900199-00101-00701999999ADDMA1102601999999REMMET054METAR ZSSS 082230Z 27004MPS CAVOK M01/M07 Q1026 NOSIG=
0081583670999992018010823004+31198+121336FM-15+000399999V0202801N005019999999Y009900199+00001-00701999999ADDMA1102601999999REMMET054METAR ZSSS 082300Z 28005MPS CAVOK M00/M07 Q1026 NOSIG=
0089583670999992018010823304+31198+121336FM-15+000399999V0202701V004019999999Y009900199+00001-00701999999ADDMA1102601999999REMMET062METAR ZSSS 082330Z 27004MPS 250V310 CAVOK M00/M07 Q1026 NOSIG=
0088583670999992018010900004+31198+121336FM-15+000399999V0202801V004019999999Y009900199+00001-00701999999ADDMA1102601999999REMMET061METAR ZSSS 090000Z 28004MPS 240V310 CAVOK 00/M07 Q1026 NOSIG=
0080583670999992018010900304+31198+121336FM-15+000399999V0202801N005019999999Y009900199+00101-00801999999ADDMA1102601999999REMMET053METAR ZSSS 090030Z 28005MPS CAVOK 01/M08 Q1026 NOSIG=
0099583670999992018010901004+31198+121336FM-15+000399999V0202901V006019999999Y009900199+00201-00801999999ADDMA1102601999999OC101101REMMET064METAR ZSSS 090100Z 29006G11MPS 260V320 CAVOK 02/M08 Q1026 NOSIG=
0088583670999992018010901304+31198+121336FM-15+000399999V0202901V006019999999Y009900199+00301-00801999999ADDMA1102601999999REMMET061METAR ZSSS 090130Z 29006MPS 250V320 CAVOK 03/M08 Q1026 NOSIG=
0080583670999992018010902004+31198+121336FM-15+000399999V0202901N007019999999Y009900199+00301-00901999999ADDMA1102601999999REMMET053METAR ZSSS 090200Z 29007MPS CAVOK 03/M09 Q1026 NOSIG=
0080583670999992018010902304+31198+121336FM-15+000399999V0202801N007019999999Y009900199+00401-00901999999ADDMA1102601999999REMMET053METAR ZSSS 090230Z 28007MPS CAVOK 04/M09 Q1026 NOSIG=
0088583670999992018010903004+31198+121336FM-15+000399999V0202701V006019999999Y009900199+00501-00901999999ADDMA1102501999999REMMET061METAR ZSSS 090300Z 27006MPS 250V310 CAVOK 05/M09 Q1025 NOSIG=
0088583670999992018010903304+31198+121336FM-15+000399999V0202901V007019999999Y009900199+00501-00901999999ADDMA1102501999999REMMET061METAR ZSSS 090330Z 29007MPS 260V320 CAVOK 05/M09 Q1025 NOSIG=
0088583670999992018010904004+31198+121336FM-15+000399999V0202701V007019999999Y009900199+00501-01001999999ADDMA1102401999999REMMET061METAR ZSSS 090400Z 27007MPS 240V310 CAVOK 05/M10 Q1024 NOSIG=
0099583670999992018010904304+31198+121336FM-15+000399999V0202801V007019999999Y009900199+00601-01101999999ADDMA1102401999999OC101201REMMET064METAR ZSSS 090430Z 28007G12MPS 250V320 CAVOK 06/M11 Q1024 NOSIG=
0091583670999992018010905004+31198+121336FM-15+000399999V0202901N008019999999Y009900199+00601-01101999999ADDMA1102401999999OC101301REMMET056METAR ZSSS 090500Z 29008G13MPS CAVOK 06/M11 Q1024 NOSIG=
0088583670999992018010905304+31198+121336FM-15+000399999V0202801V009019999999Y009900199+00601-01101999999ADDMA1102301999999REMMET061METAR ZSSS 090530Z 28009MPS 250V310 CAVOK 06/M11 Q1023 NOSIG=
0099583670999992018010906004+31198+121336FM-15+000399999V0202801V008019999999Y009900199+00601-01201999999ADDMA1102301999999OC101301REMMET064METAR ZSSS 090600Z 28008G13MPS 250V310 CAVOK 06/M12 Q1023 NOSIG=
0088583670999992018010906304+31198+121336FM-15+000399999V0202701V008019999999Y009900199+00601-01101999999ADDMA1102301999999REMMET061METAR ZSSS 090630Z 27008MPS 240V300 CAVOK 06/M11 Q1023 NOSIG=
0088583670999992018010907004+31198+121336FM-15+000399999V0202801V007019999999Y009900199+00601-01001999999ADDMA1102301999999REMMET061METAR ZSSS 090700Z 28007MPS 250V310 CAVOK 06/M10 Q1023 NOSIG=
0080583670999992018010907304+31198+121336FM-15+000399999V0202901N010019999999Y009900199+00601-01101999999ADDMA1102301999999REMMET053METAR ZSSS 090730Z 29010MPS CAVOK 06/M11 Q1023 NOSIG=
0088583670999992018010908004+31198+121336FM-15+000399999V0202801V007019999999Y009900199+00601-01001999999ADDMA1102301999999REMMET061METAR ZSSS 090800Z 28007MPS 250V310 CAVOK 06/M10 Q1023 NOSIG=
0080583670999992018010908304+31198+121336FM-15+000399999V0202701N007019999999Y009900199+00601-01001999999ADDMA1102301999999REMMET053METAR ZSSS 090830Z 27007MPS CAVOK 06/M10 Q1023 NOSIG=
