0118712230999992018010100004+51933-110700FM-12+077299999V0201201N002119999999N999999999-02641-02961999999ADDAA106000091AA224000091KA1120M-02421KA2120N-03251REMSYN05871223 16/// /1204 11264 21296 60001 333 11242 21325 70000=
0058712230999992018010100004+51930-110720SAO  +077299999V020120190021199999999999999999-02641-02961999999REMAWY049XCS SA 0000 AUTO8 M M M M/-26/-30/1204/M/ M 46MM=
0058712230999992018010101004+51930-110720SAO  +077299999V020110190021199999999999999999-02731-03061999999REMAWY049XCS SA 0100 AUTO8 M M M M/-27/-31/1104/M/ M 36MM=
0058712230999992018010102004+51930-110720SAO  +077299999V020120190031199999999999999999-02741-03061999999REMAWY049XCS SA 0200 AUTO8 M M M M/-27/-31/1206/M/ M 46MM=
0063712230999992018010103004+51933-110700FM-12+077299999V0200901N001519999999N999999999-02831-03191999999ADDAA103000091REMSYN04071223 26/// /0903 11283 21319 333 60007=
0058712230999992018010103004+51930-110720SAO  +077299999V020090190015199999999999999999-02831-03191999999REMAWY049XCS SA 0300 AUTO8 M M M M/-28/-32/0903/M/ M 39MM=
0058712230999992018010104004+51930-110720SAO  +077299999V020110190021199999999999999999-02861-03211999999REMAWY049XCS SA 0400 AUTO8 M M M M/-29/-32/1104/M/ M 61MM=
0058712230999992018010105004+51930-110720SAO  +077299999V020130190015199999999999999999-02821-03171999999REMAWY049XCS SA 0500 AUTO8 M M M M/-28/-32/1303/M/ M 27MM=
0118712230999992018010106004+51933-110700FM-12+077299999V0201201N000519999999N999999999-02811-03151999999ADDAA106000091AA224000091KA1240M-02421KA2240N-03251REMSYN05871223 16/// /1201 11281 21315 60001 333 11242 21325 70000=
0058712230999992018010106004+51930-110720SAO  +077299999V020120190005199999999999999999-02811-03151999999REMAWY049XCS SA 0600 AUTO8 M M M M/-28/-32/1201/M/ M 15MM=
0058712230999992018010107004+51930-110720SAO  +077299999V020210190026199999999999999999-02921-03291999999REMAWY049XCS SA 0700 AUTO8 M M M M/-29/-33/2105/M/ M 29MM=
0058712230999992018010108004+51930-110720SAO  +077299999V020220190005199999999999999999-02931-03281999999REMAWY049XCS SA 0800 AUTO8 M M M M/-29/-33/2201/M/ M 38MM=
0063712230999992018010109004+51933-110700FM-12+077299999V0202601N001519999999N999999999-02991-03361999999ADDAA103000091REMSYN04071223 26/// /2603 11299 21336 333 60007=
0058712230999992018010109004+51930-110720SAO  +077299999V020260190015199999999999999999-02991-03361999999REMAWY049XCS SA 0900 AUTO8 M M M M/-30/-34/2603/M/ M 96MM=
0058712230999992018010110004+51930-110720SAO  +077299999V020230190026199999999999999999-02921-03281999999REMAWY049XCS SA 1000 AUTO8 M M M M/-29/-33/2305/M/ M 28MM=
0058712230999992018010111004+51930-110720SAO  +077299999V020230190036199999999999999999-02921-03271999999REMAWY049XCS SA 1100 AUTO8 M M M M/-29/-33/2307/M/ M 27MM=
0118712230999992018010112004+51933-110700FM-12+077299999V0202301N004119999999N999999999-02971-03331999999ADDAA106000091AA224000091KA1240M-02421KA2240N-03001REMSYN05871223 16/// /2308 11297 21333 60001 333 11242 21300 70000=
0058712230999992018010112004+51930-110720SAO  +077299999V020230190041199999999999999999-02971-03331999999REMAWY049XCS SA 1200 AUTO8 M M M M/-30/-33/2308/M/ M 73MM=
0058712230999992018010113004+51930-110720SAO  +077299999V020220190026199999999999999999-03061-03441999999REMAWY049XCS SA 1300 AUTO8 M M M M/-31/-34/2205/M/ M 64MM=
0058712230999992018010114004+51930-110720SAO  +077299999V020230190051199999999999999999-02871-03221999999REMAWY049XCS SA 1400 AUTO8 M M M M/-29/-32/2310/M/ M 72MM=
0063712230999992018010115004+51933-110700FM-12+077299999V0202201N004119999999N999999999-03071-03441999999ADDAA103000091REMSYN04071223 26/// /2208 11307 21344 333 60007=
0058712230999992018010115004+51930-110720SAO  +077299999V020220190041199999999999999999-03071-03441999999REMAWY049XCS SA 1500 AUTO8 M M M M/-31/-34/2208/M/ M 74MM=
0058712230999992018010116004+51930-110720SAO  +077299999V020230190051199999999999999999-02861-03201999999REMAWY049XCS SA 1600 AUTO8 M M M M/-29/-32/2310/M/ M 60MM=
0058712230999992018010117004+51930-110720SAO  +077299999V020220190057199999999999999999-02791-03141999999REMAWY049XCS SA 1700 AUTO8 M M M M/-28/-31/2211/M/ M 94MM=
0118712230999992018010118004+51933-110700FM-12+077299999V0202201N007219999999N999999999-02731-03081999999ADDAA106000091AA224000091KA1120M-02731KA2120N-03081REMSYN05871223 16/// /2214 11273 21308 60001 333 11273 21308 70000=
0093712230999992018010118004+51930-110720SAO  +077299999V020220190072199999999999999999-02731-03081999999ADDOD130100871220REMAWY067XCS SA 1800 AUTO8 M M M M/-27/-31/2214/M/ PK WND 2217 1756Z M 38MM=
0093712230999992018010119004+51930-110720SAO  +077299999V020220190087199999999999999999-02621-02961999999ADDOD130101131220REMAWY067XCS SA 1900 AUTO8 M M M M/-26/-30/2217/M/ PK WND 2222 1847Z M 26MM=
0093712230999992018010120004+51930-110720SAO  +077299999V020230190077199999999999999999-02591-02941999999ADDOD130101131220REMAWY067XCS SA 2000 AUTO8 M M M M/-26/-29/2315/M/ PK WND 2222 1902Z M 94MM=
0063712230999992018010121004+51933-110700FM-12+077299999V0202201N010819999999N999999999-02451-02821999999ADDAA103000091REMSYN04071223 26/// /2221 11245 21282 333 60007=
0093712230999992018010121004+51930-110720SAO  +077299999V020220190108199999999999999999-02451-02821999999ADDOD130101281220REMAWY067XCS SA 2100 AUTO8 M M M M/-25/-28/2221/M/ PK WND 2225 2058Z M 52MM=
0093712230999992018010122004+51930-110720SAO  +077299999V020220190087199999999999999999-02421-02801999999ADDOD130101341220REMAWY067XCS SA 2200 AUTO8 M M M M/-24/-28/2217/M/ PK WND 2226 2100Z M 20MM=
0093712230999992018010123004+51930-110720SAO  +077299999V020220190082199999999999999999-02521-02901999999ADDOD130101081220REMAWY067XCS SA 2300 AUTO8 M M M M/-25/-29/2216/M/ PK WND 2221 2225Z M 20MM=
0118712230999992018010200004+51933-110700FM-12+077299999V0202301N007719999999N999999999-02621-02971999999ADDAA106000091AA224000091KA1120M-02411KA2120N-03081REMSYN05871223 16/// /2315 11262 21297 60001 333 11241 21308 70000=
0093712230999992018010200004+51930-110720SAO  +077299999V020230190077199999999999999999-02621-02971999999ADDOD130101131220REMAWY067XCS SA 0000 AUTO8 M M M M/-26/-30/2315/M/ PK WND 2222 2351Z M 27MM=
0093712230999992018010201004+51930-110720SAO  +077299999V020230190118199999999999999999-02521-02861999999ADDOD130101441230REMAWY067XCS SA 0100 AUTO8 M M M M/-25/-29/2323/M/ PK WND 2328 0027Z M 26MM=
0093712230999992018010202004+51930-110720SAO  +077299999V020230190123199999999999999999-02451-02891999999ADDOD130101541220REMAWY067XCS SA 0200 AUTO8 M M M M/-25/-29/2324/M/ PK WND 2230 0139Z M 59MM=
0063712230999992018010203004+51933-110700FM-12+077299999V0202201N010319999999N999999999-02381-02711999999ADDAA103000091REMSYN04071223 26/// /2220 11238 21271 333 60007=
0093712230999992018010203004+51930-110720SAO  +077299999V020220190103199999999999999999-02381-02711999999ADDOD130101341210REMAWY067XCS SA 0300 AUTO8 M M M M/-24/-27/2220/M/ PK WND 2126 0220Z M 81MM=
0093712230999992018010204004+51930-110720SAO  +077299999V020230190108199999999999999999-02151-02571999999ADDOD130101341220REMAWY067XCS SA 0400 AUTO8 M M M M/-22/-26/2321/M/ PK WND 2226 0346Z M 57MM=
0093712230999992018010205004+51930-110720SAO  +077299999V020230190093199999999999999999-02101-02351999999ADDOD130101181230REMAWY067XCS SA 0500 AUTO8 M M M M/-21/-24/2318/M/ PK WND 2323 0403Z M 05MM=
0134712230999992018010206004+51933-110700FM-12+077299999V0202701N006719999999N999999999-01302-01801999999ADDAA106000091AA224000091KA1240M-01241KA2240N-03081REMSYN07471223 16/// /2713 11130 21180 60001 333 11124 21308 70000 555 32230 40021=
0093712230999992018010206004+51930-110720SAO  +077299999V020270190067199999999999999999-01302-01801999999ADDOD130101031260REMAWY067XCS SA 0600 AUTO8 M M M M/-13/-18/2713/M/ PK WND 2620 0506Z M 00MM=
0058712230999992018010207004+51930-110720SAO  +077299999V020260190057199999999999999999-01461-01861999999REMAWY049XCS SA 0700 AUTO8 M M M M/-15/-19/2611/M/ M 66MM=
0058712230999992018010208004+51930-110720SAO  +077299999V020260190051199999999999999999-01341-01511999999REMAWY049XCS SA 0800 AUTO8 M M M M/-13/-15/2610/M/ M 41MM=
0063712230999992018010209004+51933-110700FM-12+077299999V0202701N008219999999N999999999-01021-01401999999ADDAA103000091REMSYN04071223 26/// /2716 11102 21140 333 60007=
0093712230999992018010209004+51930-110720SAO  +077299999V020270190082199999999999999999-01021-01401999999ADDOD130100981270REMAWY067XCS SA 0900 AUTO8 M M M M/-10/-14/2716/M/ PK WND 2719 0855Z M 20MM=
0093712230999992018010210004+51930-110720SAO  +077299999V020290190072199999999999999999-00851-01321999999ADDOD130101031280REMAWY067XCS SA 1000 AUTO8 M M M M/-09/-13/2914/M/ PK WND 2820 0913Z M 52MM=
0093712230999992018010211004+51930-110720SAO  +077299999V020280190072199999999999999999-00651-01061999999ADDOD130100871280REMAWY067XCS SA 1100 AUTO8 M M M M/-07/-11/2814/M/ PK WND 2817 1029Z M 56MM=
0105712230999992018010212004+51933-110700FM-12+077299999V0202801N008819999999N999999999-00711-01051999999ADDAA106000091AA224000091KA1240N-02621REMSYN05871223 16/// /2817 11071 21105 60001 333 11124 21262 70000=
0093712230999992018010212004+51930-110720SAO  +077299999V020280190087199999999999999999-00711-00951999999ADDOD130100981280REMAWY067XCS SA 1200 AUTO8 M M M M/-07/-10/2817/M/ PK WND 2819 1157Z M 15MM=
0093712230999992018010213004+51930-110720SAO  +077299999V020280190087199999999999999999-00761-01061999999ADDOD130101031270REMAWY067XCS SA 1300 AUTO8 M M M M/-08/-11/2817/M/ PK WND 2720 1235Z M 66MM=
0093712230999992018010214004+51930-110720SAO  +077299999V020300190072199999999999999999-00801-01041999999ADDOD130100931280REMAWY067XCS SA 1400 AUTO8 M M M M/-08/-10/3014/M/ PK WND 2818 1323Z M 04MM=
0063712230999992018010215004+51933-110700FM-12+077299999V0202901N007719999999N999999999-00601-00851999999ADDAA103000091REMSYN04071223 26/// /2915 11060 21085 333 60007=
0093712230999992018010215004+51930-110720SAO  +077299999V020290190077199999999999999999-00601-00751999999ADDOD130100931300REMAWY067XCS SA 1500 AUTO8 M M M M/-06/-08/2915/M/ PK WND 3018 1442Z M 05MM=
0093712230999992018010216004+51930-110720SAO  +077299999V020290190077199999999999999999-00621-00841999999ADDOD130100931290REMAWY067XCS SA 1600 AUTO8 M M M M/-06/-08/2915/M/ PK WND 2918 1527Z M 24MM=
0093712230999992018010217004+51930-110720SAO  +077299999V020290190077199999999999999999-00481-00741999999ADDOD130100931300REMAWY067XCS SA 1700 AUTO8 M M M M/-05/-07/2915/M/ PK WND 3018 1641Z M 84MM=
0118712230999992018010218004+51933-110700FM-12+077299999V0202901N008819999999N999999999-00371-00671999999ADDAA106000091AA224000091KA1120M-00371KA2120N-02731REMSYN05871223 16/// /2917 11037 21067 60001 333 11037 21273 70000=
0093712230999992018010218004+51930-110720SAO  +077299999V020290190087199999999999999999-00371-00671999999ADDOD130100981290REMAWY067XCS SA 1800 AUTO8 M M M M/-04/-07/2917/M/ PK WND 2919 1753Z M 77MM=
0093712230999992018010219004+51930-110720SAO  +077299999V020280190072199999999999999999-00351-00671999999ADDOD130100931300REMAWY067XCS SA 1900 AUTO8 M M M M/-04/-07/2814/M/ PK WND 3018 1803Z M 57MM=
0058712230999992018010220004+51930-110720SAO  +077299999V020270190067199999999999999999-00321-00631999999REMAWY049XCS SA 2000 AUTO8 M M M M/-03/-06/2713/M/ M 23MM=
0063712230999992018010221004+51933-110700FM-12+077299999V0202801N007219999999N999999999-00341-00651999999ADDAA103000091REMSYN04071223 26/// /2814 11034 21065 333 60007=
0093712230999992018010221004+51930-110720SAO  +077299999V020280190072199999999999999999-00341-00551999999ADDOD130100931280REMAWY067XCS SA 2100 AUTO8 M M M M/-03/-06/2814/M/ PK WND 2818 2045Z M 45MM=
0093712230999992018010222004+51930-110720SAO  +077299999V020280190062199999999999999999-00271-00581999999ADDOD130100871280REMAWY067XCS SA 2200 AUTO8 M M M M/-03/-06/2812/M/ PK WND 2817 2124Z M 78MM=
0058712230999992018010223004+51930-110720SAO  +077299999V020280190051199999999999999999-00321-00601999999REMAWY049XCS SA 2300 AUTO8 M M M M/-03/-06/2810/M/ M 20MM=
0118712230999992018010300004+51933-110700FM-12+077299999V0202801N004119999999N999999999-00481-00671999999ADDAA106000091AA224000091KA1120M-00271KA2120N-01991REMSYN05871223 16/// /2808 11048 21067 60001 333 11027 21199 70000=
0058712230999992018010300004+51930-110720SAO  +077299999V020280190041199999999999999999-00481-00671999999REMAWY049XCS SA 0000 AUTO8 M M M M/-05/-07/2808/M/ M 87MM=
0058712230999992018010301004+51930-110720SAO  +077299999V020280190051199999999999999999-00611-00821999999REMAWY049XCS SA 0100 AUTO8 M M M M/-06/-08/2810/M/ M 12MM=
0058712230999992018010302004+51930-110720SAO  +077299999V020250190041199999999999999999-00871-01021999999REMAWY049XCS SA 0200 AUTO8 M M M M/-09/-10/2508/M/ M 72MM=
0063712230999992018010303004+51933-110700FM-12+077299999V0202501N004619999999N999999999-00861-00991999999ADDAA103000091REMSYN04071223 26/// /2509 11086 21099 333 60007=
0058712230999992018010303004+51930-110720SAO  +077299999V020250190046199999999999999999-00861-00991999999REMAWY049XCS SA 0300 AUTO8 M M M M/-09/-10/2509/M/ M 69MM=
0058712230999992018010304004+51930-110720SAO  +077299999V020230190046199999999999999999-00911-01021999999REMAWY049XCS SA 0400 AUTO8 M M M M/-09/-10/2309/M/ M 12MM=
0058712230999992018010305004+51930-110720SAO  +077299999V020250190026199999999999999999-00751-00861999999REMAWY049XCS SA 0500 AUTO8 M M M M/-08/-09/2505/M/ M 56MM=
0134712230999992018010306004+51933-110700FM-12+077299999V0202501N004619999999N999999999-00891-01041999999ADDAA106000091AA224000091KA1240M-00271KA2240N-01991REMSYN07471223 16/// /2509 11089 21104 60001 333 11027 21199 70000 555 32720 40131=
0058712230999992018010306004+51930-110720SAO  +077299999V020250190046199999999999999999-00881-01041999999REMAWY049XCS SA 0600 AUTO8 M M M M/-09/-10/2509/M/ M 84MM=
0058712230999992018010307004+51930-110720SAO  +077299999V020240190062199999999999999999-00751-00971999999REMAWY049XCS SA 0700 AUTO8 M M M M/-08/-10/2412/M/ M 57MM=
0058712230999992018010308004+51930-110720SAO  +077299999V020230190036199999999999999999-00881-01101999999REMAWY049XCS SA 0800 AUTO8 M M M M/-09/-11/2307/M/ M 80MM=
0063712230999992018010309004+51933-110700FM-12+077299999V0202801N003119999999N999999999-00991-01211999999ADDAA103000091REMSYN04071223 26/// /2806 11099 21121 333 60007=
0058712230999992018010309004+51930-110720SAO  +077299999V020280190031199999999999999999-00981-01211999999REMAWY049XCS SA 0900 AUTO8 M M M M/-10/-12/2806/M/ M 81MM=
0058712230999992018010310004+51930-110720SAO  +077299999V020290190041199999999999999999-00791-01011999999REMAWY049XCS SA 1000 AUTO8 M M M M/-08/-10/2908/M/ M 91MM=
0058712230999992018010311004+51930-110720SAO  +077299999V020260190041199999999999999999-00771-00981999999REMAWY049XCS SA 1100 AUTO8 M M M M/-08/-10/2608/M/ M 78MM=
0118712230999992018010312004+51933-110700FM-12+077299999V0202601N003119999999N999999999-00921-01071999999ADDAA106000091AA224000091KA1240M-00271KA2240N-01091REMSYN05871223 16/// /2606 11092 21107 60001 333 11027 21109 70000=
0058712230999992018010312004+51930-110720SAO  +077299999V020260190031199999999999999999-00921-01071999999REMAWY049XCS SA 1200 AUTO8 M M M M/-09/-11/2606/M/ M 27MM=
0058712230999992018010313004+51930-110720SAO  +077299999V020050190015199999999999999999-00831-01101999999REMAWY049XCS SA 1300 AUTO8 M M M M/-08/-11/0503/M/ M 30MM=
0058712230999992018010314004+51930-110720SAO  +077299999V020270190031199999999999999999-01131-01261999999REMAWY049XCS SA 1400 AUTO8 M M M M/-11/-13/2706/M/ M 36MM=
0063712230999992018010315004+51933-110700FM-12+077299999V0203101N004119999999N999999999-00781-00961999999ADDAA103000091REMSYN04071223 26/// /3108 11078 21096 333 60007=
0058712230999992018010315004+51930-110720SAO  +077299999V020310190041199999999999999999-00781-00961999999REMAWY049XCS SA 1500 AUTO8 M M M M/-08/-10/3108/M/ M 86MM=
0058712230999992018010316004+51930-110720SAO  +077299999V020290190036199999999999999999-00711-00891999999REMAWY049XCS SA 1600 AUTO8 M M M M/-07/-09/2907/M/ M 19MM=
0058712230999992018010317004+51930-110720SAO  +077299999V020270190031199999999999999999-00751-01021999999REMAWY049XCS SA 1700 AUTO8 M M M M/-08/-10/2706/M/ M 52MM=
0118712230999992018010318004+51933-110700FM-12+077299999V0202601N003619999999N999999999-00561-00831999999ADDAA106000091AA224000091KA1120M-00521KA2120N-01241REMSYN05871223 16/// /2607 11056 21083 60001 333 11052 21124 70000=
0058712230999992018010318004+51930-110720SAO  +077299999V020260190036199999999999999999-00561-00831999999REMAWY049XCS SA 1800 AUTO8 M M M M/-06/-08/2607/M/ M 63MM=
0058712230999992018010319004+51930-110720SAO  +077299999V020290190036199999999999999999-00231-00551999999REMAWY049XCS SA 1900 AUTO8 M M M M/-02/-06/2907/M/ M 35MM=
0092712230999992018010320004+51930-110720SAO  +077299999V020280190082199999999999999999+00021-00441999999ADDOD130101031270REMAWY066XCS SA 2000 AUTO8 M M M M/00/-04/2816/M/ PK WND 2720 1940Z M 24MM=
0063712230999992018010321004+51933-110700FM-12+077299999V0202901N006719999999N999999999-00041-00471999999ADDAA103000091REMSYN04071223 26/// /2913 11004 21047 333 60007=
0093712230999992018010321004+51930-110720SAO  +077299999V020290190067199999999999999999-00041-00471999999ADDOD130101031290REMAWY067XCS SA 2100 AUTO8 M M M M/00/-05/2913/M/ PK WND 2920 2014Z M -47MM=
0080712230999992018010400004+51933-110700FM-12+077299999V0202901N003119999999N999999999-00521-00771999999ADDAA106999919AA224999919REMSYN04671223 46/// /2906 11052 21077 6///1 333 7////=
0059712230999992018010400004+51930-110720SAO  +077299999V020290190031199999999999999999-00521-00771999999REMAWY050XCS SA 0000 AUTO8 M M M M/-05/-08/2906/M/M M 27MM=
0058712230999992018010401004+51930-110720SAO  +077299999V020260190021199999999999999999-00501-00721999999REMAWY049XCS SA 0100 AUTO8 M M M M/-05/-07/2604/M/ M 02MM=
0058712230999992018010402004+51930-110720SAO  +077299999V020270190046199999999999999999-00671-00751999999REMAWY049XCS SA 0200 AUTO8 M M M M/-07/-08/2709/M/ M 75MM=
0063712230999992018010403004+51933-110700FM-12+077299999V0202501N004119999999N999999999-00681-00871999999ADDAA103000091REMSYN04071223 26/// /2508 11068 21087 333 60007=
0058712230999992018010403004+51930-110720SAO  +077299999V020250190041199999999999999999-00681-00871999999REMAWY049XCS SA 0300 AUTO8 M M M M/-07/-09/2508/M/ M 87MM=
0058712230999992018010404004+51930-110720SAO  +077299999V020270190041199999999999999999-00691-00881999999REMAWY049XCS SA 0400 AUTO8 M M M M/-07/-09/2708/M/ M 98MM=
0058712230999992018010405004+51930-110720SAO  +077299999V020260190046199999999999999999-00561-00781999999REMAWY049XCS SA 0500 AUTO8 M M M M/-06/-08/2609/M/ M 68MM=
0096712230999992018010406004+51933-110700FM-12+077299999V0202501N003619999999N999999999-01031-01211999999ADDAA106000091AA224999919REMSYN06271223 16/// /2507 11103 21121 60001 333 7//// 555 32920 4021/=
0058712230999992018010406004+51930-110720SAO  +077299999V020250190036199999999999999999-01031-01211999999REMAWY049XCS SA 0600 AUTO8 M M M M/-10/-12/2507/M/ M 31MM=
0058712230999992018010407004+51930-110720SAO  +077299999V020280190036199999999999999999-00731-00951999999REMAWY049XCS SA 0700 AUTO8 M M M M/-07/-10/2807/M/ M 35MM=
0058712230999992018010408004+51930-110720SAO  +077299999V020270190041199999999999999999-00791-00981999999REMAWY049XCS SA 0800 AUTO8 M M M M/-08/-10/2708/M/ M 98MM=
0063712230999992018010409004+51933-110700FM-12+077299999V0202801N003619999999N999999999-00651-00881999999ADDAA103000091REMSYN04071223 26/// /2807 11065 21088 333 60007=
0058712230999992018010409004+51930-110720SAO  +077299999V020280190036199999999999999999-00651-00881999999REMAWY049XCS SA 0900 AUTO8 M M M M/-07/-09/2807/M/ M 58MM=
0058712230999992018010410004+51930-110720SAO  +077299999V020270190026199999999999999999-00641-00951999999REMAWY049XCS SA 1000 AUTO8 M M M M/-06/-10/2705/M/ M 45MM=
0058712230999992018010411004+51930-110720SAO  +077299999V020250190031199999999999999999-00981-01151999999REMAWY049XCS SA 1100 AUTO8 M M M M/-10/-12/2506/M/ M 85MM=
0099712230999992018010412004+51933-110700FM-12+077299999V0202301N004119999999N999999999-01101-01251999999ADDAA106000091AA224999919KA1240N-01131REMSYN05271223 16/// /2308 11110 21125 60001 333 21113 7////=
0058712230999992018010412004+51930-110720SAO  +077299999V020230190041199999999999999999-01091-01151999999REMAWY049XCS SA 1200 AUTO8 M M M M/-11/-12/2308/M/ M 95MM=
0058712230999992018010413004+51930-110720SAO  +077299999V020260190031199999999999999999-00791-00981999999REMAWY049XCS SA 1300 AUTO8 M M M M/-08/-10/2606/M/ M 98MM=
0058712230999992018010414004+51930-110720SAO  +077299999V020290190036199999999999999999-00791-01011999999REMAWY049XCS SA 1400 AUTO8 M M M M/-08/-10/2907/M/ M 91MM=
0063712230999992018010415004+51933-110700FM-12+077299999V0202801N004119999999N999999999-00401-00731999999ADDAA103000091REMSYN04071223 26/// /2808 11040 21073 333 60007=
0058712230999992018010415004+51930-110720SAO  +077299999V020280190041199999999999999999-00401-00731999999REMAWY049XCS SA 1500 AUTO8 M M M M/-04/-07/2808/M/ M 03MM=
0058712230999992018010416004+51930-110720SAO  +077299999V020300190031199999999999999999-00571-00901999999REMAWY049XCS SA 1600 AUTO8 M M M M/-06/-09/3006/M/ M 70MM=
0058712230999992018010417004+51930-110720SAO  +077299999V020230190021199999999999999999-00641-00961999999REMAWY049XCS SA 1700 AUTO8 M M M M/-06/-10/2304/M/ M 46MM=
0099712230999992018010418004+51933-110700FM-12+077299999V0203301N002619999999N999999999-00601-00921999999ADDAA106000091AA224999919KA1120M-00341REMSYN05271223 16/// /3305 11060 21092 60001 333 11034 7////=
0058712230999992018010418004+51930-110720SAO  +077299999V020330190026199999999999999999-00601-00921999999REMAWY049XCS SA 1800 AUTO8 M M M M/-06/-09/3305/M/ M 02MM=
0058712230999992018010419004+51930-110720SAO  +077299999V020230190041199999999999999999-00531-00751999999REMAWY049XCS SA 1900 AUTO8 M M M M/-05/-08/2308/M/ M 35MM=
0058712230999992018010420004+51930-110720SAO  +077299999V020230190041199999999999999999-00491-00801999999REMAWY049XCS SA 2000 AUTO8 M M M M/-05/-08/2308/M/ M 90MM=
0063712230999992018010421004+51933-110700FM-12+077299999V0202501N002619999999N999999999-00511-00801999999ADDAA103000091REMSYN04071223 26/// /2505 11051 21080 333 60007=
0058712230999992018010421004+51930-110720SAO  +077299999V020250190026199999999999999999-00511-00801999999REMAWY049XCS SA 2100 AUTO8 M M M M/-05/-08/2505/M/ M 10MM=
0058712230999992018010422004+51930-110720SAO  +077299999V020270190021199999999999999999-00641-00941999999REMAWY049XCS SA 2200 AUTO8 M M M M/-06/-09/2704/M/ M 44MM=
0058712230999992018010423004+51930-110720SAO  +077299999V020290190026199999999999999999-00671-00921999999REMAWY049XCS SA 2300 AUTO8 M M M M/-07/-09/2905/M/ M 72MM=
0118712230999992018010500004+51933-110700FM-12+077299999V0202601N002119999999N999999999-00781-01061999999ADDAA106000091AA224000091KA1120M-00341KA2120N-01131REMSYN05871223 16/// /2604 11078 21106 60001 333 11034 21113 70000=
0058712230999992018010500004+51930-110720SAO  +077299999V020260190021199999999999999999-00781-01061999999REMAWY049XCS SA 0000 AUTO8 M M M M/-08/-11/2604/M/ M 86MM=
0058712230999992018010501004+51930-110720SAO  +077299999V020300190015199999999999999999-00721-00961999999REMAWY049XCS SA 0100 AUTO8 M M M M/-07/-10/3003/M/ M 26MM=
0058712230999992018010502004+51930-110720SAO  +077299999V020210190021199999999999999999-00751-01021999999REMAWY049XCS SA 0200 AUTO8 M M M M/-08/-10/2104/M/ M 52MM=
0063712230999992018010503004+51933-110700FM-12+077299999V0201101N002119999999N999999999-00791-01001999999ADDAA103000091REMSYN04071223 26/// /1104 11079 21100 333 60007=
0058712230999992018010503004+51930-110720SAO  +077299999V020110190021199999999999999999-00791-01001999999REMAWY049XCS SA 0300 AUTO8 M M M M/-08/-10/1104/M/ M 90MM=
0058712230999992018010504004+51930-110720SAO  +077299999V020140190015199999999999999999-00831-01021999999REMAWY049XCS SA 0400 AUTO8 M M M M/-08/-10/1403/M/ M 32MM=
0058712230999992018010505004+51930-110720SAO  +077299999V020130190021199999999999999999-00761-00931999999REMAWY049XCS SA 0500 AUTO8 M M M M/-08/-09/1304/M/ M 63MM=
0118712230999992018010506004+51933-110700FM-12+077299999V0200801N003119999999N999999999-01001-01141999999ADDAA106000091AA224000091KA1240M-00341KA2240N-01131REMSYN05871223 16/// /0806 11100 21114 60001 333 11034 21113 70000=
0058712230999992018010506004+51930-110720SAO  +077299999V020080190031199999999999999999-01001-01141999999REMAWY049XCS SA 0600 AUTO8 M M M M/-10/-11/0806/M/ M 04MM=
0058712230999992018010507004+51930-110720SAO  +077299999V020080190031199999999999999999-01091-01191999999REMAWY049XCS SA 0700 AUTO8 M M M M/-11/-12/0806/M/ M 99MM=
0058712230999992018010508004+51930-110720SAO  +077299999V020110190031199999999999999999-01201-01321999999REMAWY049XCS SA 0800 AUTO8 M M M M/-12/-13/1106/M/ M 02MM=
0063712230999992018010509004+51933-110700FM-12+077299999V0200901N002619999999N999999999-01241-01371999999ADDAA103000091REMSYN04071223 26/// /0905 11124 21137 333 60007=
0058712230999992018010509004+51930-110720SAO  +077299999V020090190026199999999999999999-01241-01371999999REMAWY049XCS SA 0900 AUTO8 M M M M/-12/-14/0905/M/ M 47MM=
0058712230999992018010510004+51930-110720SAO  +077299999V020090190026199999999999999999-01281-01421999999REMAWY049XCS SA 1000 AUTO8 M M M M/-13/-14/0905/M/ M 82MM=
0058712230999992018010511004+51930-110720SAO  +077299999V020090190021199999999999999999-01331-01481999999REMAWY049XCS SA 1100 AUTO8 M M M M/-13/-15/0904/M/ M 38MM=
0118712230999992018010512004+51933-110700FM-12+077299999V0200801N002619999999N999999999-01381-01521999999ADDAA106000091AA224000091KA1240M-00341KA2240N-01381REMSYN05871223 16/// /0805 11138 21152 60001 333 11034 21138 70000=
0058712230999992018010512004+51930-110720SAO  +077299999V020080190026199999999999999999-01381-01521999999REMAWY049XCS SA 1200 AUTO8 M M M M/-14/-15/0805/M/ M 82MM=
0058712230999992018010513004+51930-110720SAO  +077299999V020080190026199999999999999999-01391-01551999999REMAWY049XCS SA 1300 AUTO8 M M M M/-14/-16/0805/M/ M 95MM=
0058712230999992018010514004+51930-110720SAO  +077299999V020080190031199999999999999999-01411-01561999999REMAWY049XCS SA 1400 AUTO8 M M M M/-14/-16/0806/M/ M 16MM=
0063712230999992018010515004+51933-110700FM-12+077299999V0200801N004119999999N999999999-01451-01611999999ADDAA103000091REMSYN04071223 26/// /0808 11145 21161 333 60007=
0058712230999992018010515004+51930-110720SAO  +077299999V020080190041199999999999999999-01451-01611999999REMAWY049XCS SA 1500 AUTO8 M M M M/-15/-16/0808/M/ M 51MM=
0058712230999992018010516004+51930-110720SAO  +077299999V020090190031199999999999999999-01501-01661999999REMAWY049XCS SA 1600 AUTO8 M M M M/-15/-17/0906/M/ M 06MM=
0058712230999992018010517004+51930-110720SAO  +077299999V020100190031199999999999999999-01371-01521999999REMAWY049XCS SA 1700 AUTO8 M M M M/-14/-15/1006/M/ M 72MM=
0118712230999992018010518004+51933-110700FM-12+077299999V0201001N005719999999N999999999-01271-01421999999ADDAA106000091AA224000091KA1120M-00981KA2120N-01501REMSYN05871223 16/// /1011 11127 21142 60001 333 11098 21150 70000=
0058712230999992018010518004+51930-110720SAO  +077299999V020100190057199999999999999999-01271-01421999999REMAWY049XCS SA 1800 AUTO8 M M M M/-13/-14/1011/M/ M 72MM=
0058712230999992018010519004+51930-110720SAO  +077299999V020110190036199999999999999999-01141-01291999999REMAWY049XCS SA 1900 AUTO8 M M M M/-11/-13/1107/M/ M 49MM=
0058712230999992018010520004+51930-110720SAO  +077299999V020110190031199999999999999999-01041-01211999999REMAWY049XCS SA 2000 AUTO8 M M M M/-10/-12/1106/M/ M 41MM=
0063712230999992018010521004+51933-110700FM-12+077299999V0201201N003119999999N999999999-00961-01181999999ADDAA103000091REMSYN04071223 26/// /1206 11096 21118 333 60007=
0058712230999992018010521004+51930-110720SAO  +077299999V020120190031199999999999999999-00961-01181999999REMAWY049XCS SA 2100 AUTO8 M M M M/-10/-12/1206/M/ M 68MM=
0058712230999992018010522004+51930-110720SAO  +077299999V020110190021199999999999999999-00861-01181999999REMAWY049XCS SA 2200 AUTO8 M M M M/-09/-12/1104/M/ M 68MM=
0058712230999992018010523004+51930-110720SAO  +077299999V020090190015199999999999999999-00991-01281999999REMAWY049XCS SA 2300 AUTO8 M M M M/-10/-13/0903/M/ M 98MM=
0118712230999992018010600004+51933-110700FM-12+077299999V0201301N002619999999N999999999-01141-01311999999ADDAA106000091AA224000091KA1120M-00831KA2120N-01501REMSYN05871223 16/// /1305 11114 21131 60001 333 11083 21150 70000=
0058712230999992018010600004+51930-110720SAO  +077299999V020130190026199999999999999999-01141-01311999999REMAWY049XCS SA 0000 AUTO8 M M M M/-11/-13/1305/M/ M 41MM=
0058712230999992018010601004+51930-110720SAO  +077299999V020120190021199999999999999999-01161-01291999999REMAWY049XCS SA 0100 AUTO8 M M M M/-12/-13/1204/M/ M 69MM=
0058712230999992018010602004+51930-110720SAO  +077299999V020170190021199999999999999999-01191-01331999999REMAWY049XCS SA 0200 AUTO8 M M M M/-12/-13/1704/M/ M 93MM=
0063712230999992018010603004+51933-110700FM-12+077299999V0202201N001019999999N999999999-01271-01421999999ADDAA103000091REMSYN04071223 26/// /2202 11127 21142 333 60007=
0058712230999992018010603004+51930-110720SAO  +077299999V020220190010199999999999999999-01271-01421999999REMAWY049XCS SA 0300 AUTO8 M M M M/-13/-14/2202/M/ M 72MM=
0058712230999992018010604004+51930-110720SAO  +077299999V020210190036199999999999999999-01331-01461999999REMAWY049XCS SA 0400 AUTO8 M M M M/-13/-15/2107/M/ M 36MM=
0058712230999992018010605004+51930-110720SAO  +077299999V020220190021199999999999999999-01291-01411999999REMAWY049XCS SA 0500 AUTO8 M M M M/-13/-14/2204/M/ M 91MM=
0118712230999992018010606004+51933-110700FM-12+077299999V0202201N003619999999N999999999-01311-01441999999ADDAA106000091AA224000091KA1240M-00831KA2240N-01501REMSYN05871223 16/// /2207 11131 21144 60001 333 11083 21150 70000=
0058712230999992018010606004+51930-110720SAO  +077299999V020220190036199999999999999999-01311-01441999999REMAWY049XCS SA 0600 AUTO8 M M M M/-13/-14/2207/M/ M 14MM=
0058712230999992018010607004+51930-110720SAO  +077299999V020230190046199999999999999999-01281-01421999999REMAWY049XCS SA 0700 AUTO8 M M M M/-13/-14/2309/M/ M 82MM=
0058712230999992018010608004+51930-110720SAO  +077299999V020230190057199999999999999999-01221-01361999999REMAWY049XCS SA 0800 AUTO8 M M M M/-12/-14/2311/M/ M 26MM=
0063712230999992018010609004+51933-110700FM-12+077299999V0202401N004619999999N999999999-01181-01351999999ADDAA103000091REMSYN04071223 26/// /2409 11118 21135 333 60007=
0058712230999992018010609004+51930-110720SAO  +077299999V020240190046199999999999999999-01181-01351999999REMAWY049XCS SA 0900 AUTO8 M M M M/-12/-14/2409/M/ M 85MM=
0058712230999992018010610004+51930-110720SAO  +077299999V020240190031199999999999999999-01071-01221999999REMAWY049XCS SA 1000 AUTO8 M M M M/-11/-12/2406/M/ M 72MM=
0058712230999992018010611004+51930-110720SAO  +077299999V020250190041199999999999999999-01121-01321999999REMAWY049XCS SA 1100 AUTO8 M M M M/-11/-13/2508/M/ M 22MM=
0118712230999992018010612004+51933-110700FM-12+077299999V0202401N004119999999N999999999-01201-01391999999ADDAA106000091AA224000091KA1240M-00831KA2240N-01341REMSYN05871223 16/// /2408 11120 21139 60001 333 11083 21134 70000=
0058712230999992018010612004+51930-110720SAO  +077299999V020240190041199999999999999999-01191-01391999999REMAWY049XCS SA 1200 AUTO8 M M M M/-12/-14/2408/M/ M 99MM=
0058712230999992018010613004+51930-110720SAO  +077299999V020240190051199999999999999999-01061-01241999999REMAWY049XCS SA 1300 AUTO8 M M M M/-11/-12/2410/M/ M 64MM=
0058712230999992018010614004+51930-110720SAO  +077299999V020250190031199999999999999999-01131-01311999999REMAWY049XCS SA 1400 AUTO8 M M M M/-11/-13/2506/M/ M 31MM=
0063712230999992018010615004+51933-110700FM-12+077299999V0202501N003619999999N999999999-00611-00741999999ADDAA103000091REMSYN04071223 26/// /2507 11061 21074 333 60007=
0058712230999992018010615004+51930-110720SAO  +077299999V020250190036199999999999999999-00611-00741999999REMAWY049XCS SA 1500 AUTO8 M M M M/-06/-07/2507/M/ M 14MM=
0058712230999992018010616004+51930-110720SAO  +077299999V020280190046199999999999999999-00361-00501999999REMAWY049XCS SA 1600 AUTO8 M M M M/-04/-05/2809/M/ M 60MM=
0058712230999992018010617004+51930-110720SAO  +077299999V020290190057199999999999999999-00291-00521999999REMAWY049XCS SA 1700 AUTO8 M M M M/-03/-05/2911/M/ M 92MM=
0118712230999992018010618004+51933-110700FM-12+077299999V0202901N008819999999N999999999-00041-00351999999ADDAA106000091AA224000091KA1120M-00041KA2120N-01341REMSYN05871223 16/// /2917 11004 21035 60001 333 11004 21134 70000=
0093712230999992018010618004+51930-110720SAO  +077299999V020290190087199999999999999999-00041-00351999999ADDOD130101031290REMAWY067XCS SA 1800 AUTO8 M M M M/00/-04/2917/M/ PK WND 2920 1751Z M -45MM=
0092712230999992018010619004+51930-110720SAO  +077299999V020310190103199999999999999999+00201-00171999999ADDOD130101231310REMAWY066XCS SA 1900 AUTO8 M M M M/02/-02/3120/M/ PK WND 3124 1859Z M 07MM=
0092712230999992018010620004+51930-110720SAO  +077299999V020340190103199999999999999999+00161-00091999999ADDOD130101751330REMAWY066XCS SA 2000 AUTO8 M M M M/02/-01/3420/M/ PK WND 3334 1942Z M 69MM=
0063712230999992018010621004+51933-110700FM-12+077299999V0203401N010319999999N999999999+00101-00061999999ADDAA103000091REMSYN04071223 26/// /3420 10010 21006 333 60007=
0092712230999992018010621004+51930-110720SAO  +077299999V020340190103199999999999999999+00101-00061999999ADDOD130101391330REMAWY066XCS SA 2100 AUTO8 M M M M/01/-01/3420/M/ PK WND 3327 2058Z M 06MM=
0092712230999992018010622004+51930-110720SAO  +077299999V020330190067199999999999999999+00071-00091999999ADDOD130101281340REMAWY066XCS SA 2200 AUTO8 M M M M/01/-01/3313/M/ PK WND 3425 2100Z M 79MM=
0057712230999992018010623004+51930-110720SAO  +077299999V020330190036199999999999999999+00081-00181999999REMAWY048XCS SA 2300 AUTO8 M M M M/01/-02/3307/M/ M 88MM=
0118712230999992018010700004+51933-110700FM-12+077299999V0203101N004619999999N999999999-00131-00381999999ADDAA106000091AA224000091KA1120M+00211KA2120N-01341REMSYN05871223 16/// /3109 11013 21038 60001 333 10021 21134 70000=
0058712230999992018010700004+51930-110720SAO  +077299999V020310190046199999999999999999-00131-00381999999REMAWY049XCS SA 0000 AUTO8 M M M M/-01/-04/3109/M/ M 38MM=
0058712230999992018010701004+51930-110720SAO  +077299999V020270190057199999999999999999-00181-00421999999REMAWY049XCS SA 0100 AUTO8 M M M M/-02/-04/2711/M/ M 82MM=
0058712230999992018010702004+51930-110720SAO  +077299999V020270190072199999999999999999-00261-00381999999REMAWY049XCS SA 0200 AUTO8 M M M M/-03/-04/2714/M/ M 68MM=
0063712230999992018010703004+51933-110700FM-12+077299999V0202701N007719999999N999999999-00281-00421999999ADDAA103000091REMSYN04071223 26/// /2715 11028 21042 333 60007=
0093712230999992018010703004+51930-110720SAO  +077299999V020270190077199999999999999999-00281-00421999999ADDOD130100931270REMAWY067XCS SA 0300 AUTO8 M M M M/-03/-04/2715/M/ PK WND 2718 0245Z M 82MM=
0093712230999992018010704004+51930-110720SAO  +077299999V020280190067199999999999999999-00371-00601999999ADDOD130100871280REMAWY067XCS SA 0400 AUTO8 M M M M/-04/-06/2813/M/ PK WND 2817 0324Z M 70MM=
0093712230999992018010705004+51930-110720SAO  +077299999V020280190067199999999999999999-00401-00721999999ADDOD130100871280REMAWY067XCS SA 0500 AUTO8 M M M M/-04/-07/2813/M/ PK WND 2817 0431Z M 02MM=
0134712230999992018010706004+51933-110700FM-12+077299999V0202801N007719999999N999999999-00381-00691999999ADDAA106000091AA224000091KA1240M+00211KA2240N-01341REMSYN07471223 16/// /2815 11038 21069 60001 333 10021 21134 70000 555 33334 40201=
0093712230999992018010706004+51930-110720SAO  +077299999V020280190077199999999999999999-00381-00691999999ADDOD130100981270REMAWY067XCS SA 0600 AUTO8 M M M M/-04/-07/2815/M/ PK WND 2719 0512Z M 89MM=
0093712230999992018010707004+51930-110720SAO  +077299999V020270190077199999999999999999-00301-00671999999ADDOD130100981270REMAWY067XCS SA 0700 AUTO8 M M M M/-03/-07/2715/M/ PK WND 2719 0628Z M 07MM=
0093712230999992018010708004+51930-110720SAO  +077299999V020270190072199999999999999999-00291-00561999999ADDOD130100931270REMAWY067XCS SA 0800 AUTO8 M M M M/-03/-06/2714/M/ PK WND 2718 0731Z M 96MM=
0063712230999992018010709004+51933-110700FM-12+077299999V0202701N007219999999N999999999-00271-00541999999ADDAA103000091REMSYN04071223 26/// /2714 11027 21054 333 60007=
0058712230999992018010709004+51930-110720SAO  +077299999V020270190072199999999999999999-00271-00541999999REMAWY049XCS SA 0900 AUTO8 M M M M/-03/-05/2714/M/ M 74MM=
0058712230999992018010710004+51930-110720SAO  +077299999V020280190067199999999999999999-00361-00581999999REMAWY049XCS SA 1000 AUTO8 M M M M/-04/-06/2813/M/ M 68MM=
0093712230999992018010711004+51930-110720SAO  +077299999V020290190072199999999999999999-00401-00641999999ADDOD130100931280REMAWY067XCS SA 1100 AUTO8 M M M M/-04/-06/2914/M/ PK WND 2818 1026Z M 04MM=
0118712230999992018010712004+51933-110700FM-12+077299999V0202701N007219999999N999999999-00381-00621999999ADDAA106000091AA224000091KA1240M+00211KA2240N-00421REMSYN05871223 16/// /2714 11038 21062 60001 333 10021 21042 70000=
0093712230999992018010712004+51930-110720SAO  +077299999V020270190072199999999999999999-00381-00621999999ADDOD130100871280REMAWY067XCS SA 1200 AUTO8 M M M M/-04/-06/2714/M/ PK WND 2817 1120Z M 82MM=
0058712230999992018010713004+51930-110720SAO  +077299999V020260190046199999999999999999-00701-00771999999REMAWY049XCS SA 1300 AUTO8 M M M M/-07/-08/2609/M/ M 07MM=
0093712230999992018010714004+51930-110720SAO  +077299999V020270190072199999999999999999-00471-00711999999ADDOD130100931270REMAWY067XCS SA 1400 AUTO8 M M M M/-05/-07/2714/M/ PK WND 2718 1359Z M 71MM=
0063712230999992018010715004+51933-110700FM-12+077299999V0202701N008819999999N999999999-00501-00771999999ADDAA103000091REMSYN04071223 26/// /2717 11050 21077 333 60007=
0093712230999992018010715004+51930-110720SAO  +077299999V020270190087199999999999999999-00501-00771999999ADDOD130101031270REMAWY067XCS SA 1500 AUTO8 M M M M/-05/-08/2717/M/ PK WND 2720 1435Z M 07MM=
0093712230999992018010716004+51930-110720SAO  +077299999V020280190082199999999999999999-00521-00811999999ADDOD130100981280REMAWY067XCS SA 1600 AUTO8 M M M M/-05/-08/2816/M/ PK WND 2819 1550Z M 21MM=
0093712230999992018010717004+51930-110720SAO  +077299999V020280190072199999999999999999-00371-00791999999ADDOD130100931280REMAWY067XCS SA 1700 AUTO8 M M M M/-04/-08/2814/M/ PK WND 2818 1603Z M 79MM=
0118712230999992018010718004+51933-110700FM-12+077299999V0202701N007219999999N999999999-00291-00771999999ADDAA106000091AA224000091KA1120M-00211KA2120N-00901REMSYN05871223 16/// /2714 11029 21077 60001 333 11021 21090 70000=
0093712230999992018010718004+51930-110720SAO  +077299999V020280190072199999999999999999-00291-00771999999ADDOD130100981280REMAWY067XCS SA 1800 AUTO8 M M M M/-03/-08/2814/M/ PK WND 2819 1726Z M 97MM=
0093712230999992018010719004+51930-110720SAO  +077299999V020280190067199999999999999999-00271-00731999999ADDOD130100871270REMAWY067XCS SA 1900 AUTO8 M M M M/-03/-07/2813/M/ PK WND 2717 1825Z M 73MM=
0058712230999992018010720004+51930-110720SAO  +077299999V020270190067199999999999999999-00211-00641999999REMAWY049XCS SA 2000 AUTO8 M M M M/-02/-06/2713/M/ M 14MM=
0063712230999992018010721004+51933-110700FM-12+077299999V0202701N005719999999N999999999-00331-00671999999ADDAA103000091REMSYN04071223 26/// /2711 11033 21067 333 60007=
0058712230999992018010721004+51930-110720SAO  +077299999V020270190057199999999999999999-00331-00671999999REMAWY049XCS SA 2100 AUTO8 M M M M/-03/-07/2711/M/ M 37MM=
0058712230999992018010722004+51930-110720SAO  +077299999V020270190062199999999999999999-00321-00681999999REMAWY049XCS SA 2200 AUTO8 M M M M/-03/-07/2712/M/ M 28MM=
0058712230999992018010723004+51930-110720SAO  +077299999V020260190057199999999999999999-00361-00721999999REMAWY049XCS SA 2300 AUTO8 M M M M/-04/-07/2611/M/ M 62MM=
0118712230999992018010800004+51933-110700FM-12+077299999V0202501N005719999999N999999999-00521-00801999999ADDAA106000091AA224000091KA1120M-00211KA2120N-00901REMSYN05871223 16/// /2511 11052 21080 60001 333 11021 21090 70000=
0058712230999992018010800004+51930-110720SAO  +077299999V020250190057199999999999999999-00521-00801999999REMAWY049XCS SA 0000 AUTO8 M M M M/-05/-08/2511/M/ M 20MM=
0058712230999992018010801004+51930-110720SAO  +077299999V020250190067199999999999999999-00491-00831999999REMAWY049XCS SA 0100 AUTO8 M M M M/-05/-08/2513/M/ M 93MM=
0058712230999992018010802004+51930-110720SAO  +077299999V020230190041199999999999999999-00641-00931999999REMAWY049XCS SA 0200 AUTO8 M M M M/-06/-09/2308/M/ M 43MM=
0063712230999992018010803004+51933-110700FM-12+077299999V0202501N003619999999N999999999-00731-00981999999ADDAA103000091REMSYN04071223 26/// /2507 11073 21098 333 60007=
0058712230999992018010803004+51930-110720SAO  +077299999V020250190036199999999999999999-00731-00981999999REMAWY049XCS SA 0300 AUTO8 M M M M/-07/-10/2507/M/ M 38MM=
0058712230999992018010804004+51930-110720SAO  +077299999V020230190046199999999999999999-00551-00751999999REMAWY049XCS SA 0400 AUTO8 M M M M/-06/-08/2309/M/ M 55MM=
0058712230999992018010805004+51930-110720SAO  +077299999V020240190041199999999999999999-00741-00941999999REMAWY049XCS SA 0500 AUTO8 M M M M/-07/-09/2408/M/ M 44MM=
0134712230999992018010806004+51933-110700FM-12+077299999V0201601N000519999999N999999999-00851-01051999999ADDAA106000091AA224000091KA1240M-00211KA2240N-00901REMSYN07471223 16/// /1601 11085 21105 60001 333 11021 21090 70000 555 32720 40151=
0058712230999992018010806004+51930-110720SAO  +077299999V020160190005199999999999999999-00751-00951999999REMAWY049XCS SA 0600 AUTO8 M M M M/-08/-10/1601/M/ M 55MM=
0058712230999992018010807004+51930-110720SAO  +077299999V020110190015199999999999999999-00821-01011999999REMAWY049XCS SA 0700 AUTO8 M M M M/-08/-10/1103/M/ M 21MM=
0058712230999992018010808004+51930-110720SAO  +077299999V020080190026199999999999999999-00911-01031999999REMAWY049XCS SA 0800 AUTO8 M M M M/-09/-10/0805/M/ M 13MM=
0063712230999992018010809004+51933-110700FM-12+077299999V0200801N002619999999N999999999-00931-01071999999ADDAA103000091REMSYN04071223 26/// /0805 11093 21107 333 60007=
0058712230999992018010809004+51930-110720SAO  +077299999V020080190026199999999999999999-00921-01071999999REMAWY049XCS SA 0900 AUTO8 M M M M/-09/-11/0805/M/ M 27MM=
0058712230999992018010810004+51930-110720SAO  +077299999V020080190026199999999999999999-00921-01081999999REMAWY049XCS SA 1000 AUTO8 M M M M/-09/-11/0805/M/ M 28MM=
0058712230999992018010811004+51930-110720SAO  +077299999V020080190026199999999999999999-00941-01101999999REMAWY049XCS SA 1100 AUTO8 M M M M/-09/-11/0805/M/ M 40MM=
0118712230999992018010812004+51933-110700FM-12+077299999V0201301N003119999999N999999999-00761-00941999999ADDAA106000091AA224000091KA1240M-00211KA2240N-00951REMSYN05871223 16/// /1306 11076 21094 60001 333 11021 21095 70000=
0058712230999992018010812004+51930-110720SAO  +077299999V020140190031199999999999999999-00761-00941999999REMAWY049XCS SA 1200 AUTO8 M M M M/-08/-09/1406/M/ M 64MM=
0058712230999992018010813004+51930-110720SAO  +077299999V020090190026199999999999999999-00781-01021999999REMAWY049XCS SA 1300 AUTO8 M M M M/-08/-10/0905/M/ M 82MM=
0058712230999992018010814004+51930-110720SAO  +077299999V020090190026199999999999999999-00961-01121999999REMAWY049XCS SA 1400 AUTO8 M M M M/-10/-11/0905/M/ M 62MM=
0063712230999992018010815004+51933-110700FM-12+077299999V0201001N002619999999N999999999-00941-01091999999ADDAA103000091REMSYN04071223 26/// /1005 11094 21109 333 60007=
0058712230999992018010815004+51930-110720SAO  +077299999V020100190026199999999999999999-00941-01091999999REMAWY049XCS SA 1500 AUTO8 M M M M/-09/-11/1005/M/ M 49MM=
0058712230999992018010816004+51930-110720SAO  +077299999V020090190021199999999999999999-00921-01061999999REMAWY049XCS SA 1600 AUTO8 M M M M/-09/-11/0904/M/ M 26MM=
0058712230999992018010817004+51930-110720SAO  +077299999V020090190036199999999999999999-00841-00991999999REMAWY049XCS SA 1700 AUTO8 M M M M/-08/-10/0907/M/ M 49MM=
0118712230999992018010818004+51933-110700FM-12+077299999V0201001N003119999999N999999999-00671-00881999999ADDAA106000091AA224000091KA1120M-00661KA2120N-00971REMSYN05871223 16/// /1006 11067 21088 60001 333 11066 21097 70000=
0058712230999992018010818004+51930-110720SAO  +077299999V020100190031199999999999999999-00671-00881999999REMAWY049XCS SA 1800 AUTO8 M M M M/-07/-09/1006/M/ M 78MM=
0058712230999992018010819004+51930-110720SAO  +077299999V020100190036199999999999999999-00451-00731999999REMAWY049XCS SA 1900 AUTO8 M M M M/-05/-07/1007/M/ M 53MM=
0058712230999992018010820004+51930-110720SAO  +077299999V020130190031199999999999999999-00311-00551999999REMAWY049XCS SA 2000 AUTO8 M M M M/-03/-06/1306/M/ M 15MM=
0063712230999992018010821004+51933-110700FM-12+077299999V0201801N003119999999N999999999-00261-00591999999ADDAA103000091REMSYN04071223 26/// /1806 11026 21059 333 60007=
0058712230999992018010821004+51930-110720SAO  +077299999V020180190031199999999999999999-00261-00591999999REMAWY049XCS SA 2100 AUTO8 M M M M/-03/-06/1806/M/ M 69MM=
0058712230999992018010822004+51930-110720SAO  +077299999V020170190010199999999999999999-00211-00591999999REMAWY049XCS SA 2200 AUTO8 M M M M/-02/-06/1702/M/ M 19MM=
0058712230999992018010823004+51930-110720SAO  +077299999V020200190026199999999999999999-00461-00701999999REMAWY049XCS SA 2300 AUTO8 M M M M/-05/-07/2005/M/ M 60MM=
0118712230999992018010900004+51933-110700FM-12+077299999V0202401N002619999999N999999999-00551-00731999999ADDAA106000091AA224000091KA1120M-00211KA2120N-00971REMSYN05871223 16/// /2405 11055 21073 60001 333 11021 21097 70000=
0058712230999992018010900004+51930-110720SAO  +077299999V020240190026199999999999999999-00451-00731999999REMAWY049XCS SA 0000 AUTO8 M M M M/-05/-07/2405/M/ M 53MM=
0058712230999992018010901004+51930-110720SAO  +077299999V020340190021199999999999999999-00771-00931999999REMAWY049XCS SA 0100 AUTO8 M M M M/-08/-09/3404/M/ M 73MM=
0058712230999992018010902004+51930-110720SAO  +077299999V020070190021199999999999999999-00681-00781999999REMAWY049XCS SA 0200 AUTO8 M M M M/-07/-08/0704/M/ M 88MM=
0063712230999992018010903004+51933-110700FM-12+077299999V0200801N000519999999N999999999-00761-00861999999ADDAA103000091REMSYN04071223 26/// /0801 11076 21086 333 60007=
0058712230999992018010903004+51930-110720SAO  +077299999V020080190005199999999999999999-00761-00861999999REMAWY049XCS SA 0300 AUTO8 M M M M/-08/-09/0801/M/ M 66MM=
0077712230999992018010904004+51930-110720SAO  +077299999V020070190015199999999999999999-00761+99999999999REMAWY049XCS SA 0400 AUTO8 M M M M/-08/-08/0703/M/ M 65MM=EQDQ01-7.5  2ATOD  
0058712230999992018010905004+51930-110720SAO  +077299999V020080190021199999999999999999-00701-00791999999REMAWY049XCS SA 0500 AUTO8 M M M M/-07/-08/0804/M/ M 09MM=
0118712230999992018010906004+51933-110700FM-12+077299999V0201001N001519999999N999999999-00791-00871999999ADDAA106000091AA224000091KA1240M-00211KA2240N-00971REMSYN05871223 16/// /1003 11079 21087 60001 333 11021 21097 70000=
0058712230999992018010906004+51930-110720SAO  +077299999V020100190015199999999999999999-00781-00871999999REMAWY049XCS SA 0600 AUTO8 M M M M/-08/-09/1003/M/ M 87MM=
0058712230999992018010907004+51930-110720SAO  +077299999V020050190015199999999999999999-00811-00891999999REMAWY049XCS SA 0700 AUTO8 M M M M/-08/-09/0503/M/ M 19MM=
0058712230999992018010908004+51930-110720SAO  +077299999V020080190021199999999999999999-00831-00921999999REMAWY049XCS SA 0800 AUTO8 M M M M/-08/-09/0804/M/ M 32MM=
0063712230999992018010909004+51933-110700FM-12+077299999V0200801N001019999999N999999999-00811-00891999999ADDAA103000091REMSYN04071223 26/// /0802 11081 21089 333 60007=
0058712230999992018010909004+51930-110720SAO  +077299999V020080190010199999999999999999-00811-00891999999REMAWY049XCS SA 0900 AUTO8 M M M M/-08/-09/0802/M/ M 19MM=
0058712230999992018010910004+51930-110720SAO  +077299999V020070190026199999999999999999-00671-00761999999REMAWY049XCS SA 1000 AUTO8 M M M M/-07/-08/0705/M/ M 76MM=
0058712230999992018010911004+51930-110720SAO  +077299999V020060190041199999999999999999-00681-00771999999REMAWY049XCS SA 1100 AUTO8 M M M M/-07/-08/0608/M/ M 87MM=
0118712230999992018010912004+51933-110700FM-12+077299999V0200601N005119999999N999999999-00641-00721999999ADDAA106000091AA224000091KA1240M-00211KA2240N-00851REMSYN05871223 16/// /0610 11064 21072 60001 333 11021 21085 70000=
0058712230999992018010912004+51930-110720SAO  +077299999V020060190051199999999999999999-00641-00721999999REMAWY049XCS SA 1200 AUTO8 M M M M/-06/-07/0610/M/ M 42MM=
0058712230999992018010913004+51930-110720SAO  +077299999V020080190051199999999999999999-00621-00681999999REMAWY049XCS SA 1300 AUTO8 M M M M/-06/-07/0810/M/ M 28MM=
0058712230999992018010914004+51930-110720SAO  +077299999V020080190041199999999999999999-00591-00661999999REMAWY049XCS SA 1400 AUTO8 M M M M/-06/-07/0808/M/ M 96MM=
0063712230999992018010915004+51933-110700FM-12+077299999V0200801N004619999999N999999999-00591-00651999999ADDAA103000091REMSYN04071223 26/// /0809 11059 21065 333 60007=
0077712230999992018010915004+51930-110720SAO  +077299999V020080190046199999999999999999-00591+99999999999REMAWY049XCS SA 1500 AUTO8 M M M M/-06/-06/0809/M/ M 95MM=EQDQ01-5.5  2ATOD  
0058712230999992018010916004+51930-110720SAO  +077299999V020080190041199999999999999999-00591-00661999999REMAWY049XCS SA 1600 AUTO8 M M M M/-06/-07/0808/M/ M 96MM=
0058712230999992018010917004+51930-110720SAO  +077299999V020080190057199999999999999999-00591-00661999999REMAWY049XCS SA 1700 AUTO8 M M M M/-06/-07/0811/M/ M 96MM=
0118712230999992018010918004+51933-110700FM-12+077299999V0200601N004119999999N999999999-00581-00651999999ADDAA106000091AA224000091KA1120M-00571KA2120N-00851REMSYN05871223 16/// /0608 11058 21065 60001 333 11057 21085 70000=
0077712230999992018010918004+51930-110720SAO  +077299999V020060190041199999999999999999-00581+99999999999REMAWY049XCS SA 1800 AUTO8 M M M M/-06/-06/0608/M/ M 85MM=EQDQ01-5.5  2ATOD  
0058712230999992018010919004+51930-110720SAO  +077299999V020360190062199999999999999999-00651-00731999999REMAWY049XCS SA 1900 AUTO8 M M M M/-07/-07/3612/M/ M 53MM=
0093712230999992018010920004+51930-110720SAO  +077299999V020360190072199999999999999999-00671-00741999999ADDOD130100931360REMAWY067XCS SA 2000 AUTO8 M M M M/-07/-07/3614/M/ PK WND 0018 1955Z M 74MM=
0063712230999992018010921004+51933-110700FM-12+077299999V0203401N010319999999N999999999-01081-01231999999ADDAA103000091REMSYN04071223 26/// /3420 11108 21123 333 60007=
0093712230999992018010921004+51930-110720SAO  +077299999V020340190103199999999999999999-01081-01231999999ADDOD130101391340REMAWY067XCS SA 2100 AUTO8 M M M M/-11/-12/3420/M/ PK WND 3427 2052Z M 83MM=
0093712230999992018010922004+51930-110720SAO  +077299999V020340190098199999999999999999-01311-01471999999ADDOD130101391340REMAWY067XCS SA 2200 AUTO8 M M M M/-13/-15/3419/M/ PK WND 3427 2138Z M 17MM=
0093712230999992018010923004+51930-110720SAO  +077299999V020330190103199999999999999999-01441-01691999999ADDOD130101391330REMAWY067XCS SA 2300 AUTO8 M M M M/-14/-17/3320/M/ PK WND 3327 2247Z M 49MM=
0118712230999992018011000004+51933-110700FM-12+077299999V0203301N011319999999N999999999-01611-01901999999ADDAA106000091AA224000091KA1120M-00551KA2120N-01611REMSYN05871223 16/// /3322 11161 21190 60001 333 11055 21161 70000=
0093712230999992018011000004+51930-110720SAO  +077299999V020330190113199999999999999999-01611-01901999999ADDOD130101541340REMAWY067XCS SA 0000 AUTO8 M M M M/-16/-19/3322/M/ PK WND 3430 2355Z M 10MM=
0093712230999992018011001004+51930-110720SAO  +077299999V020330190113199999999999999999-01691-01991999999ADDOD130101541340REMAWY067XCS SA 0100 AUTO8 M M M M/-17/-20/3322/M/ PK WND 3430 0014Z M 99MM=
0093712230999992018011002004+51930-110720SAO  +077299999V020330190123199999999999999999-01781-02101999999ADDOD130101491320REMAWY067XCS SA 0200 AUTO8 M M M M/-18/-21/3324/M/ PK WND 3229 0126Z M 80MM=
0063712230999992018011003004+51933-110700FM-12+077299999V0203301N011819999999N999999999-01861-02201999999ADDAA103000091REMSYN04071223 26/// /3323 11186 21220 333 60007=
0093712230999992018011003004+51930-110720SAO  +077299999V020330190118199999999999999999-01861-02201999999ADDOD130101701330REMAWY067XCS SA 0300 AUTO8 M M M M/-19/-22/3323/M/ PK WND 3333 0236Z M 60MM=
0093712230999992018011004004+51930-110720SAO  +077299999V020320190113199999999999999999-01981-02311999999ADDOD130101441330REMAWY067XCS SA 0400 AUTO8 M M M M/-20/-23/3222/M/ PK WND 3328 0306Z M 81MM=
0093712230999992018011005004+51930-110720SAO  +077299999V020320190103199999999999999999-02121-02481999999ADDOD130101441320REMAWY067XCS SA 0500 AUTO8 M M M M/-21/-25/3220/M/ PK WND 3228 0444Z M 28MM=
0134712230999992018011006004+51933-110700FM-12+077299999V0203301N012419999999N999999999-02291-02631999999ADDAA106000091AA224000091KA1240M-00551KA2240N-02291REMSYN07471223 16/// /3324 11229 21263 60001 333 11055 21229 70000 555 33333 40031=
0093712230999992018011006004+51930-110720SAO  +077299999V020330190123199999999999999999-02291-02631999999ADDOD130101641330REMAWY067XCS SA 0600 AUTO8 M M M M/-23/-26/3324/M/ PK WND 3332 0551Z M 93MM=
0093712230999992018011007004+51930-110720SAO  +077299999V020320190098199999999999999999-02321-02661999999ADDOD130101541330REMAWY067XCS SA 0700 AUTO8 M M M M/-23/-27/3219/M/ PK WND 3330 0607Z M 26MM=
0093712230999992018011008004+51930-110720SAO  +077299999V020330190093199999999999999999-02391-02721999999ADDOD130101341330REMAWY067XCS SA 0800 AUTO8 M M M M/-24/-27/3318/M/ PK WND 3326 0718Z M 92MM=
0063712230999992018011009004+51933-110700FM-12+077299999V0203201N010819999999N999999999-02381-02711999999ADDAA103000091REMSYN04071223 26/// /3221 11238 21271 333 60007=
0093712230999992018011009004+51930-110720SAO  +077299999V020320190108199999999999999999-02381-02711999999ADDOD130101391330REMAWY067XCS SA 0900 AUTO8 M M M M/-24/-27/3221/M/ PK WND 3327 0858Z M 81MM=
0093712230999992018011010004+51930-110720SAO  +077299999V020340190108199999999999999999-02411-02761999999ADDOD130101491330REMAWY067XCS SA 1000 AUTO8 M M M M/-24/-28/3421/M/ PK WND 3329 0903Z M 16MM=
0093712230999992018011011004+51930-110720SAO  +077299999V020340190093199999999999999999-02441-02781999999ADDOD130101441340REMAWY067XCS SA 1100 AUTO8 M M M M/-24/-28/3418/M/ PK WND 3428 1046Z M 48MM=
0118712230999992018011012004+51933-110700FM-12+077299999V0203401N009319999999N999999999-02471-02821999999ADDAA106000091AA224000091KA1240M-00551KA2240N-02471REMSYN05871223 16/// /3418 11247 21282 60001 333 11055 21247 70000=
0093712230999992018011012004+51930-110720SAO  +077299999V020340190093199999999999999999-02471-02821999999ADDOD130101281340REMAWY067XCS SA 1200 AUTO8 M M M M/-25/-28/3418/M/ PK WND 3425 1112Z M 72MM=
0093712230999992018011013004+51930-110720SAO  +077299999V020330190077199999999999999999-02431-02771999999ADDOD130101231330REMAWY067XCS SA 1300 AUTO8 M M M M/-24/-28/3315/M/ PK WND 3324 1218Z M 37MM=
0093712230999992018011014004+51930-110720SAO  +077299999V020330190082199999999999999999-02391-02731999999ADDOD130101031330REMAWY067XCS SA 1400 AUTO8 M M M M/-24/-27/3316/M/ PK WND 3320 1342Z M 93MM=
0063712230999992018011015004+51933-110700FM-12+077299999V0203301N008219999999N999999999-02381-02731999999ADDAA103000091REMSYN04071223 26/// /3316 11238 21273 333 60007=
0093712230999992018011015004+51930-110720SAO  +077299999V020330190082199999999999999999-02381-02731999999ADDOD130101031340REMAWY067XCS SA 1500 AUTO8 M M M M/-24/-27/3316/M/ PK WND 3420 1419Z M 83MM=
0093712230999992018011016004+51930-110720SAO  +077299999V020340190077199999999999999999-02381-02741999999ADDOD130101031330REMAWY067XCS SA 1600 AUTO8 M M M M/-24/-27/3415/M/ PK WND 3320 1510Z M 84MM=
0093712230999992018011017004+51930-110720SAO  +077299999V020340190062199999999999999999-02401-02771999999ADDOD130100871340REMAWY067XCS SA 1700 AUTO8 M M M M/-24/-28/3412/M/ PK WND 3417 1640Z M 07MM=
0118712230999992018011018004+51933-110700FM-12+077299999V0203301N006719999999N999999999-02401-02771999999ADDAA106000091AA224000091KA1120M-02291KA2120N-02481REMSYN05871223 16/// /3313 11240 21277 60001 333 11229 21248 70000=
0093712230999992018011018004+51930-110720SAO  +077299999V020330190067199999999999999999-02401-02771999999ADDOD130100931330REMAWY067XCS SA 1800 AUTO8 M M M M/-24/-28/3313/M/ PK WND 3318 1752Z M 07MM=
0093712230999992018011019004+51930-110720SAO  +077299999V020330190062199999999999999999-02411-02791999999ADDOD130100871330REMAWY067XCS SA 1900 AUTO8 M M M M/-24/-28/3312/M/ PK WND 3317 1802Z M 19MM=
0058712230999992018011020004+51930-110720SAO  +077299999V020330190062199999999999999999-02321-02701999999REMAWY049XCS SA 2000 AUTO8 M M M M/-23/-27/3312/M/ M 20MM=
0063712230999992018011021004+51933-110700FM-12+077299999V0203201N005719999999N999999999-02311-02691999999ADDAA103000091REMSYN04071223 26/// /3211 11231 21269 333 60007=
0058712230999992018011021004+51930-110720SAO  +077299999V020320190057199999999999999999-02311-02691999999REMAWY049XCS SA 2100 AUTO8 M M M M/-23/-27/3211/M/ M 19MM=
0058712230999992018011022004+51930-110720SAO  +077299999V020330190057199999999999999999-02291-02691999999REMAWY049XCS SA 2200 AUTO8 M M M M/-23/-27/3311/M/ M 99MM=
0058712230999992018011023004+51930-110720SAO  +077299999V020340190051199999999999999999-02331-02721999999REMAWY049XCS SA 2300 AUTO8 M M M M/-23/-27/3410/M/ M 32MM=
0118712230999992018011100004+51933-110700FM-12+077299999V0203401N005119999999N999999999-02461-02821999999ADDAA106000091AA224000091KA1120M-02271KA2120N-02481REMSYN05871223 16/// /3410 11246 21282 60001 333 11227 21248 70000=
0058712230999992018011100004+51930-110720SAO  +077299999V020340190051199999999999999999-02461-02821999999REMAWY049XCS SA 0000 AUTO8 M M M M/-25/-28/3410/M/ M 62MM=
0058712230999992018011101004+51930-110720SAO  +077299999V020320190031199999999999999999-02481-02821999999REMAWY049XCS SA 0100 AUTO8 M M M M/-25/-28/3206/M/ M 82MM=
0058712230999992018011102004+51930-110720SAO  +077299999V020320190036199999999999999999-02441-02781999999REMAWY049XCS SA 0200 AUTO8 M M M M/-24/-28/3207/M/ M 48MM=
0063712230999992018011103004+51933-110700FM-12+077299999V0203301N004119999999N999999999-02381-02741999999ADDAA103000091REMSYN04071223 26/// /3308 11238 21274 333 60007=
0058712230999992018011103004+51930-110720SAO  +077299999V020330190041199999999999999999-02381-02741999999REMAWY049XCS SA 0300 AUTO8 M M M M/-24/-27/3308/M/ M 84MM=
0058712230999992018011104004+51930-110720SAO  +077299999V020320190046199999999999999999-02381-02741999999REMAWY049XCS SA 0400 AUTO8 M M M M/-24/-27/3209/M/ M 84MM=
0058712230999992018011105004+51930-110720SAO  +077299999V020330190041199999999999999999-02421-02781999999REMAWY049XCS SA 0500 AUTO8 M M M M/-24/-28/3308/M/ M 28MM=
0134712230999992018011106004+51933-110700FM-12+077299999V0203201N003119999999N999999999-02461-02781999999ADDAA106000091AA224000091KA1240M-02271KA2240N-02501REMSYN07471223 16/// /3206 11246 21278 60001 333 11227 21250 70000 555 33330 40071=
0058712230999992018011106004+51930-110720SAO  +077299999V020320190031199999999999999999-02461-02781999999REMAWY049XCS SA 0600 AUTO8 M M M M/-25/-28/3206/M/ M 68MM=
0058712230999992018011107004+51930-110720SAO  +077299999V020330190046199999999999999999-02461-02801999999REMAWY049XCS SA 0700 AUTO8 M M M M/-25/-28/3309/M/ M 60MM=
0058712230999992018011108004+51930-110720SAO  +077299999V020320190031199999999999999999-02571-02891999999REMAWY049XCS SA 0800 AUTO8 M M M M/-26/-29/3206/M/ M 79MM=
0063712230999992018011109004+51933-110700FM-12+077299999V0203301N003119999999N999999999-02541-02901999999ADDAA103000091REMSYN04071223 26/// /3306 11254 21290 333 60007=
0058712230999992018011109004+51930-110720SAO  +077299999V020330190031199999999999999999-02541-02901999999REMAWY049XCS SA 0900 AUTO8 M M M M/-25/-29/3306/M/ M 40MM=
0058712230999992018011110004+51930-110720SAO  +077299999V020330190041199999999999999999-02511-02871999999REMAWY049XCS SA 1000 AUTO8 M M M M/-25/-29/3308/M/ M 17MM=
0058712230999992018011111004+51930-110720SAO  +077299999V020330190021199999999999999999-02521-02891999999REMAWY049XCS SA 1100 AUTO8 M M M M/-25/-29/3304/M/ M 29MM=
0118712230999992018011112004+51933-110700FM-12+077299999V0203001N002619999999N999999999-02541-02881999999ADDAA106000091AA224000091KA1240M-02271KA2240N-02571REMSYN05871223 16/// /3005 11254 21288 60001 333 11227 21257 70000=
0058712230999992018011112004+51930-110720SAO  +077299999V020300190026199999999999999999-02541-02881999999REMAWY049XCS SA 1200 AUTO8 M M M M/-25/-29/3005/M/ M 48MM=
0058712230999992018011113004+51930-110720SAO  +077299999V020270190026199999999999999999-02551-02971999999REMAWY049XCS SA 1300 AUTO8 M M M M/-26/-30/2705/M/ M 57MM=
0058712230999992018011114004+51930-110720SAO  +077299999V020280190026199999999999999999-02761-03071999999REMAWY049XCS SA 1400 AUTO8 M M M M/-28/-31/2805/M/ M 67MM=
0063712230999992018011115004+51933-110700FM-12+077299999V0202801N002119999999N999999999-02791-03101999999ADDAA103000091REMSYN04071223 26/// /2804 11279 21310 333 60007=
0058712230999992018011115004+51930-110720SAO  +077299999V020280190021199999999999999999-02791-03101999999REMAWY049XCS SA 1500 AUTO8 M M M M/-28/-31/2804/M/ M 90MM=
0058712230999992018011116004+51930-110720SAO  +077299999V020260190031199999999999999999-02821-03161999999REMAWY049XCS SA 1600 AUTO8 M M M M/-28/-32/2606/M/ M 26MM=
0058712230999992018011117004+51930-110720SAO  +077299999V020260190031199999999999999999-02611-02921999999REMAWY049XCS SA 1700 AUTO8 M M M M/-26/-29/2606/M/ M 12MM=
0118712230999992018011118004+51933-110700FM-12+077299999V0202301N004119999999N999999999-02481-02831999999ADDAA106000091AA224000091KA1120M-02441KA2120N-02871REMSYN05871223 16/// /2308 11248 21283 60001 333 11244 21287 70000=
0058712230999992018011118004+51930-110720SAO  +077299999V020230190041199999999999999999-02481-02831999999REMAWY049XCS SA 1800 AUTO8 M M M M/-25/-28/2308/M/ M 83MM=
0058712230999992018011119004+51930-110720SAO  +077299999V020240190026199999999999999999-02391-02801999999REMAWY049XCS SA 1900 AUTO8 M M M M/-24/-28/2405/M/ M 90MM=
0058712230999992018011120004+51930-110720SAO  +077299999V020260190021199999999999999999-02311-02801999999REMAWY049XCS SA 2000 AUTO8 M M M M/-23/-28/2604/M/ M 10MM=
0063712230999992018011121004+51933-110700FM-12+077299999V0202201N002119999999N999999999-02311-02791999999ADDAA103000091REMSYN04071223 26/// /2204 11231 21279 333 60007=
0058712230999992018011121004+51930-110720SAO  +077299999V020230190021199999999999999999-02311-02791999999REMAWY049XCS SA 2100 AUTO8 M M M M/-23/-28/2304/M/ M 19MM=
0058712230999992018011122004+51930-110720SAO  +077299999V020200190015199999999999999999-02281-02781999999REMAWY049XCS SA 2200 AUTO8 M M M M/-23/-28/2003/M/ M 88MM=
0058712230999992018011123004+51930-110720SAO  +077299999V020180190015199999999999999999-02381-02751999999REMAWY049XCS SA 2300 AUTO8 M M M M/-24/-28/1803/M/ M 85MM=
0118712230999992018011200004+51933-110700FM-12+077299999V0201801N002119999999N999999999-02531-02921999999ADDAA106000091AA224000091KA1120M-02261KA2120N-02871REMSYN05871223 16/// /1804 11253 21292 60001 333 11226 21287 70000=
0058712230999992018011200004+51930-110720SAO  +077299999V020180190021199999999999999999-02521-02921999999REMAWY049XCS SA 0000 AUTO8 M M M M/-25/-29/1804/M/ M 22MM=
0058712230999992018011201004+51930-110720SAO  +077299999V020090190015199999999999999999-02641-03001999999REMAWY049XCS SA 0100 AUTO8 M M M M/-26/-30/0903/M/ M 40MM=
0058712230999992018011202004+51930-110720SAO  +077299999V020090190010199999999999999999-02581-02901999999REMAWY049XCS SA 0200 AUTO8 M M M M/-26/-29/0902/M/ M 80MM=
0063712230999992018011203004+51933-110700FM-12+077299999V0209999C000019999999N999999999-02621-02951999999ADDAA103000091REMSYN04071223 26/// /0000 11262 21295 333 60007=
0058712230999992018011203004+51930-110720SAO  +077299999V020360190000199999999999999999-02621-02951999999REMAWY049XCS SA 0300 AUTO8 M M M M/-26/-30/0000/M/ M 25MM=
0058712230999992018011204004+51930-110720SAO  +077299999V020220190015199999999999999999-02591-02881999999REMAWY049XCS SA 0400 AUTO8 M M M M/-26/-29/2203/M/ M 98MM=
0058712230999992018011205004+51930-110720SAO  +077299999V020070190021199999999999999999-02801-03111999999REMAWY049XCS SA 0500 AUTO8 M M M M/-28/-31/0704/M/ M 01MM=
0118712230999992018011206004+51933-110700FM-12+077299999V0200801N001019999999N999999999-02781-03101999999ADDAA106000091AA224000091KA1240M-02261KA2240N-02871REMSYN05871223 16/// /0802 11278 21310 60001 333 11226 21287 70000=
0058712230999992018011206004+51930-110720SAO  +077299999V020080190010199999999999999999-02781-03101999999REMAWY049XCS SA 0600 AUTO8 M M M M/-28/-31/0802/M/ M 80MM=
0058712230999992018011207004+51930-110720SAO  +077299999V020180190005199999999999999999-02801-03121999999REMAWY049XCS SA 0700 AUTO8 M M M M/-28/-31/1801/M/ M 02MM=
0058712230999992018011208004+51930-110720SAO  +077299999V020230190015199999999999999999-02771-03101999999REMAWY049XCS SA 0800 AUTO8 M M M M/-28/-31/2303/M/ M 70MM=
0063712230999992018011209004+51933-110700FM-12+077299999V0202301N002619999999N999999999-02871-03201999999ADDAA103000091REMSYN04071223 26/// /2305 11287 21320 333 60007=
0058712230999992018011209004+51930-110720SAO  +077299999V020230190026199999999999999999-02871-03201999999REMAWY049XCS SA 0900 AUTO8 M M M M/-29/-32/2305/M/ M 70MM=
0058712230999992018011210004+51930-110720SAO  +077299999V020230190021199999999999999999-02841-03161999999REMAWY049XCS SA 1000 AUTO8 M M M M/-28/-32/2304/M/ M 46MM=
0058712230999992018011211004+51930-110720SAO  +077299999V020230190021199999999999999999-02851-03301999999REMAWY049XCS SA 1100 AUTO8 M M M M/-29/-33/2304/M/ M 50MM=
0118712230999992018011212004+51933-110700FM-12+077299999V0202301N002119999999N999999999-02901-03231999999ADDAA106000091AA224000091KA1240M-02261KA2240N-02971REMSYN05871223 16/// /2304 11290 21323 60001 333 11226 21297 70000=
0058712230999992018011212004+51930-110720SAO  +077299999V020230190021199999999999999999-02901-03231999999REMAWY049XCS SA 1200 AUTO8 M M M M/-29/-32/2304/M/ M 03MM=
0058712230999992018011213004+51930-110720SAO  +077299999V020220190021199999999999999999-02911-03241999999REMAWY049XCS SA 1300 AUTO8 M M M M/-29/-32/2204/M/ M 14MM=
0058712230999992018011214004+51930-110720SAO  +077299999V020250190021199999999999999999-03041-03401999999REMAWY049XCS SA 1400 AUTO8 M M M M/-30/-34/2504/M/ M 40MM=
0063712230999992018011215004+51933-110700FM-12+077299999V0202301N002619999999N999999999-03041-03401999999ADDAA103000091REMSYN04071223 26/// /2305 11304 21340 333 60007=
0058712230999992018011215004+51930-110720SAO  +077299999V020230190026199999999999999999-03041-03401999999REMAWY049XCS SA 1500 AUTO8 M M M M/-30/-34/2305/M/ M 40MM=
0058712230999992018011216004+51930-110720SAO  +077299999V020220190036199999999999999999-02991-03331999999REMAWY049XCS SA 1600 AUTO8 M M M M/-30/-33/2207/M/ M 93MM=
0058712230999992018011217004+51930-110720SAO  +077299999V020140190010199999999999999999-02881-03221999999REMAWY049XCS SA 1700 AUTO8 M M M M/-29/-32/1402/M/ M 82MM=
0118712230999992018011218004+51933-110700FM-12+077299999V0201801N001019999999N999999999-02681-02991999999ADDAA106000091AA224000091KA1120M-02681KA2120N-03081REMSYN05871223 16/// /1802 11268 21299 60001 333 11268 21308 70000=
0058712230999992018011218004+51930-110720SAO  +077299999V020180190010199999999999999999-02681-02991999999REMAWY049XCS SA 1800 AUTO8 M M M M/-27/-30/1802/M/ M 89MM=
0058712230999992018011219004+51930-110720SAO  +077299999V020150190010199999999999999999-02461-02751999999REMAWY049XCS SA 1900 AUTO8 M M M M/-25/-28/1502/M/ M 65MM=
0058712230999992018011220004+51930-110720SAO  +077299999V020170190036199999999999999999-02391-02671999999REMAWY049XCS SA 2000 AUTO8 M M M M/-24/-27/1707/M/ M 97MM=
0063712230999992018011221004+51933-110700FM-12+077299999V0201701N003619999999N999999999-02291-02581999999ADDAA103000091REMSYN04071223 26/// /1707 11229 21258 333 60007=
0058712230999992018011221004+51930-110720SAO  +077299999V020170190036199999999999999999-02291-02581999999REMAWY049XCS SA 2100 AUTO8 M M M M/-23/-26/1707/M/ M 98MM=
0058712230999992018011222004+51930-110720SAO  +077299999V020190190026199999999999999999-02261-02541999999REMAWY049XCS SA 2200 AUTO8 M M M M/-23/-25/1905/M/ M 64MM=
0058712230999992018011223004+51930-110720SAO  +077299999V020160190031199999999999999999-02251-02671999999REMAWY049XCS SA 2300 AUTO8 M M M M/-23/-27/1606/M/ M 57MM=
0118712230999992018011300004+51933-110700FM-12+077299999V0201801N003619999999N999999999-02461-02811999999ADDAA106000091AA224000091KA1120M-02231KA2120N-03081REMSYN05871223 16/// /1807 11246 21281 60001 333 11223 21308 70000=
0058712230999992018011300004+51930-110720SAO  +077299999V020180190036199999999999999999-02461-02811999999REMAWY049XCS SA 0000 AUTO8 M M M M/-25/-28/1807/M/ M 61MM=
0058712230999992018011301004+51930-110720SAO  +077299999V020180190036199999999999999999-02521-02871999999REMAWY049XCS SA 0100 AUTO8 M M M M/-25/-29/1807/M/ M 27MM=
0058712230999992018011302004+51930-110720SAO  +077299999V020180190036199999999999999999-02561-02911999999REMAWY049XCS SA 0200 AUTO8 M M M M/-26/-29/1807/M/ M 61MM=
0063712230999992018011303004+51933-110700FM-12+077299999V0201701N003619999999N999999999-02501-02831999999ADDAA103000091REMSYN04071223 26/// /1707 11250 21283 333 60007=
0058712230999992018011303004+51930-110720SAO  +077299999V020170190036199999999999999999-02501-02831999999REMAWY049XCS SA 0300 AUTO8 M M M M/-25/-28/1707/M/ M 03MM=
0058712230999992018011304004+51930-110720SAO  +077299999V020090190015199999999999999999-02701-03011999999REMAWY049XCS SA 0400 AUTO8 M M M M/-27/-30/0903/M/ M 01MM=
0058712230999992018011305004+51930-110720SAO  +077299999V020130190015199999999999999999-02621-02911999999REMAWY049XCS SA 0500 AUTO8 M M M M/-26/-29/1303/M/ M 21MM=
0118712230999992018011306004+51933-110700FM-12+077299999V0202101N002619999999N999999999-02631-02931999999ADDAA106000091AA224000091KA1240M-02231KA2240N-03081REMSYN05871223 16/// /2105 11263 21293 60001 333 11223 21308 70000=
0058712230999992018011306004+51930-110720SAO  +077299999V020210190026199999999999999999-02631-02931999999REMAWY049XCS SA 0600 AUTO8 M M M M/-26/-29/2105/M/ M 33MM=
0058712230999992018011307004+51930-110720SAO  +077299999V020200190031199999999999999999-02561-02881999999REMAWY049XCS SA 0700 AUTO8 M M M M/-26/-29/2006/M/ M 68MM=
0058712230999992018011308004+51930-110720SAO  +077299999V020220190031199999999999999999-02531-02871999999REMAWY049XCS SA 0800 AUTO8 M M M M/-25/-29/2206/M/ M 37MM=
0063712230999992018011309004+51933-110700FM-12+077299999V0202001N002619999999N999999999-02471-02811999999ADDAA103000091REMSYN04071223 26/// /2005 11247 21281 333 60007=
0058712230999992018011309004+51930-110720SAO  +077299999V020210190026199999999999999999-02471-02811999999REMAWY049XCS SA 0900 AUTO8 M M M M/-25/-28/2105/M/ M 71MM=
0058712230999992018011310004+51930-110720SAO  +077299999V020210190026199999999999999999-02421-02751999999REMAWY049XCS SA 1000 AUTO8 M M M M/-24/-28/2105/M/ M 25MM=
0058712230999992018011311004+51930-110720SAO  +077299999V020220190031199999999999999999-02371-02711999999REMAWY049XCS SA 1100 AUTO8 M M M M/-24/-27/2206/M/ M 71MM=
0118712230999992018011312004+51933-110700FM-12+077299999V0202201N002619999999N999999999-02191-02511999999ADDAA106000091AA224000091KA1240M-02231KA2240N-02721REMSYN05871223 16/// /2205 11219 21251 60001 333 11223 21272 70000=
0058712230999992018011312004+51930-110720SAO  +077299999V020220190026199999999999999999-02191-02511999999REMAWY049XCS SA 1200 AUTO8 M M M M/-22/-25/2205/M/ M 91MM=
0058712230999992018011313004+51930-110720SAO  +077299999V020230190057199999999999999999-02001-02341999999REMAWY049XCS SA 1300 AUTO8 M M M M/-20/-23/2311/M/ M 04MM=
0058712230999992018011314004+51930-110720SAO  +077299999V020220190057199999999999999999-01941-02151999999REMAWY049XCS SA 1400 AUTO8 M M M M/-19/-22/2211/M/ M 45MM=
0063712230999992018011315004+51933-110700FM-12+077299999V0202201N003619999999N999999999-01921-02201999999ADDAA103000091REMSYN04071223 26/// /2207 11192 21220 333 60007=
0058712230999992018011315004+51930-110720SAO  +077299999V020220190036199999999999999999-01911-02201999999REMAWY049XCS SA 1500 AUTO8 M M M M/-19/-22/2207/M/ M 10MM=
0058712230999992018011316004+51930-110720SAO  +077299999V020240190062199999999999999999-01831-02121999999REMAWY049XCS SA 1600 AUTO8 M M M M/-18/-21/2412/M/ M 32MM=
0093712230999992018011317004+51930-110720SAO  +077299999V020230190062199999999999999999-01791-02081999999ADDOD130100931230REMAWY067XCS SA 1700 AUTO8 M M M M/-18/-21/2312/M/ PK WND 2318 1611Z M 98MM=
0118712230999992018011318004+51933-110700FM-12+077299999V0202401N005719999999N999999999-01611-01911999999ADDAA106000091AA224000091KA1120M-01611KA2120N-02721REMSYN05871223 16/// /2411 11161 21191 60001 333 11161 21272 70000=
0058712230999992018011318004+51930-110720SAO  +077299999V020250190057199999999999999999-01611-01911999999REMAWY049XCS SA 1800 AUTO8 M M M M/-16/-19/2511/M/ M 11MM=
0058712230999992018011319004+51930-110720SAO  +077299999V020230190057199999999999999999-01351-01781999999REMAWY049XCS SA 1900 AUTO8 M M M M/-14/-18/2311/M/ M 58MM=
0058712230999992018011320004+51930-110720SAO  +077299999V020230190067199999999999999999-01341-01701999999REMAWY049XCS SA 2000 AUTO8 M M M M/-13/-17/2313/M/ M 40MM=
0063712230999992018011321004+51933-110700FM-12+077299999V0202401N004619999999N999999999-01001-01361999999ADDAA103000091REMSYN04071223 26/// /2409 11100 21136 333 60007=
0058712230999992018011321004+51930-110720SAO  +077299999V020240190046199999999999999999-01001-01361999999REMAWY049XCS SA 2100 AUTO8 M M M M/-10/-14/2409/M/ M 06MM=
0058712230999992018011322004+51930-110720SAO  +077299999V020230190062199999999999999999-01001-01231999999REMAWY049XCS SA 2200 AUTO8 M M M M/-10/-12/2312/M/ M 03MM=
0093712230999992018011323004+51930-110720SAO  +077299999V020240190062199999999999999999-00901-01221999999ADDOD130100871260REMAWY067XCS SA 2300 AUTO8 M M M M/-09/-12/2412/M/ PK WND 2617 2203Z M 02MM=
0118712230999992018011400004+51933-110700FM-12+077299999V0202601N009819999999N999999999-00711-01011999999ADDAA106000091AA224000091KA1120M-00701KA2120N-02631REMSYN05871223 16/// /2619 11071 21101 60001 333 11070 21263 70000=
0093712230999992018011400004+51930-110720SAO  +077299999V020260190098199999999999999999-00711-01011999999ADDOD130101081250REMAWY067XCS SA 0000 AUTO8 M M M M/-07/-10/2619/M/ PK WND 2521 2357Z M 11MM=
0093712230999992018011401004+51930-110720SAO  +077299999V020270190098199999999999999999-00681-00881999999ADDOD130101181260REMAWY067XCS SA 0100 AUTO8 M M M M/-07/-09/2719/M/ PK WND 2623 0016Z M 88MM=
0093712230999992018011402004+51930-110720SAO  +077299999V020270190108199999999999999999-00601-00811999999ADDOD130101341270REMAWY067XCS SA 0200 AUTO8 M M M M/-06/-08/2721/M/ PK WND 2726 0127Z M 01MM=
0063712230999992018011403004+51933-110700FM-12+077299999V0202801N007219999999N999999999-00481-00731999999ADDAA103000091REMSYN04071223 26/// /2814 11048 21073 333 60007=
0093712230999992018011403004+51930-110720SAO  +077299999V020280190072199999999999999999-00481-00731999999ADDOD130101131260REMAWY067XCS SA 0300 AUTO8 M M M M/-05/-07/2814/M/ PK WND 2622 0205Z M 83MM=
0058712230999992018011404004+51930-110720SAO  +077299999V020290190067199999999999999999-00321-00621999999REMAWY049XCS SA 0400 AUTO8 M M M M/-03/-06/2913/M/ M 22MM=
0058712230999992018011405004+51930-110720SAO  +077299999V020290190062199999999999999999-00301-00601999999REMAWY049XCS SA 0500 AUTO8 M M M M/-03/-06/2912/M/ M 00MM=
0134712230999992018011406004+51933-110700FM-12+077299999V0203101N006219999999N999999999-00301-00581999999ADDAA106000091AA224000091KA1240M-00281KA2240N-02631REMSYN07471223 16/// /3112 11030 21058 60001 333 11028 21263 70000 555 32726 40021=
0058712230999992018011406004+51930-110720SAO  +077299999V020310190062199999999999999999-00301-00581999999REMAWY049XCS SA 0600 AUTO8 M M M M/-03/-06/3112/M/ M 08MM=
0058712230999992018011407004+51930-110720SAO  +077299999V020310190057199999999999999999-00441-00691999999REMAWY049XCS SA 0700 AUTO8 M M M M/-04/-07/3111/M/ M 49MM=
0058712230999992018011408004+51930-110720SAO  +077299999V020310190051199999999999999999-00361-00601999999REMAWY049XCS SA 0800 AUTO8 M M M M/-04/-06/3110/M/ M 60MM=
0063712230999992018011409004+51933-110700FM-12+077299999V0203401N003119999999N999999999-00361-00661999999ADDAA103000091REMSYN04071223 26/// /3406 11036 21066 333 60007=
0058712230999992018011409004+51930-110720SAO  +077299999V020340190031199999999999999999-00361-00661999999REMAWY049XCS SA 0900 AUTO8 M M M M/-04/-07/3406/M/ M 66MM=
0058712230999992018011410004+51930-110720SAO  +077299999V020320190041199999999999999999-00491-00861999999REMAWY049XCS SA 1000 AUTO8 M M M M/-05/-09/3208/M/ M 96MM=
0058712230999992018011411004+51930-110720SAO  +077299999V020320190051199999999999999999-00581-00921999999REMAWY049XCS SA 1100 AUTO8 M M M M/-06/-09/3210/M/ M 82MM=
0118712230999992018011412004+51933-110700FM-12+077299999V0203401N005719999999N999999999-00671-00921999999ADDAA106000091AA224000091KA1240M-00281KA2240N-00731REMSYN05871223 16/// /3411 11067 21092 60001 333 11028 21073 70000=
0058712230999992018011412004+51930-110720SAO  +077299999V020340190057199999999999999999-00671-00921999999REMAWY049XCS SA 1200 AUTO8 M M M M/-07/-09/3411/M/ M 72MM=
0093712230999992018011413004+51930-110720SAO  +077299999V020340190067199999999999999999-00851-01091999999ADDOD130101031999REMAWY067XCS SA 1300 AUTO8 M M M M/-09/-11/3413/M/ PK WND MM20 1226Z M 59MM=
0058712230999992018011414004+51930-110720SAO  +077299999V020340190051199999999999999999-00931-01181999999REMAWY049XCS SA 1400 AUTO8 M M M M/-09/-12/3410/M/ M 38MM=
0063712230999992018011415004+51933-110700FM-12+077299999V0203401N004619999999N999999999-00991-01251999999ADDAA103000091REMSYN04071223 26/// /3409 11099 21125 333 60007=
0058712230999992018011415004+51930-110720SAO  +077299999V020340190046199999999999999999-00991-01151999999REMAWY049XCS SA 1500 AUTO8 M M M M/-10/-12/3409/M/ M 95MM=
0058712230999992018011416004+51930-110720SAO  +077299999V020360190051199999999999999999-01081-01361999999REMAWY049XCS SA 1600 AUTO8 M M M M/-11/-14/3610/M/ M 86MM=
0058712230999992018011417004+51930-110720SAO  +077299999V020350190041199999999999999999-01121-01431999999REMAWY049XCS SA 1700 AUTO8 M M M M/-11/-14/3508/M/ M 23MM=
0118712230999992018011418004+51933-110700FM-12+077299999V0200201N004619999999N999999999-01131-01431999999ADDAA106000091AA224000091KA1120M-00271KA2120N-01611REMSYN05871223 16/// /0209 11113 21143 60001 333 11027 21161 70000=
0058712230999992018011418004+51930-110720SAO  +077299999V020020190046199999999999999999-01131-01431999999REMAWY049XCS SA 1800 AUTO8 M M M M/-11/-14/0209/M/ M 33MM=
0058712230999992018011419004+51930-110720SAO  +077299999V020030190046199999999999999999-01201-01551999999REMAWY049XCS SA 1900 AUTO8 M M M M/-12/-16/0309/M/ M 05MM=
0058712230999992018011420004+51930-110720SAO  +077299999V020030190026199999999999999999-01231-01621999999REMAWY049XCS SA 2000 AUTO8 M M M M/-12/-16/0305/M/ M 32MM=
0063712230999992018011421004+51933-110700FM-12+077299999V0200301N003619999999N999999999-01301-01741999999ADDAA103000091REMSYN04071223 26/// /0307 11130 21174 333 60007=
0058712230999992018011421004+51930-110720SAO  +077299999V020030190036199999999999999999-01301-01741999999REMAWY049XCS SA 2100 AUTO8 M M M M/-13/-17/0307/M/ M 04MM=
0058712230999992018011422004+51930-110720SAO  +077299999V020030190021199999999999999999-01361-01791999999REMAWY049XCS SA 2200 AUTO8 M M M M/-14/-18/0304/M/ M 69MM=
0058712230999992018011423004+51930-110720SAO  +077299999V020040190021199999999999999999-01471-01871999999REMAWY049XCS SA 2300 AUTO8 M M M M/-15/-19/0404/M/ M 77MM=
0118712230999992018011500004+51933-110700FM-12+077299999V0203501N001519999999N999999999-01671-02021999999ADDAA106000091AA224000091KA1120M-00671KA2120N-01671REMSYN05871223 16/// /3503 11167 21202 60001 333 11067 21167 70000=
0058712230999992018011500004+51930-110720SAO  +077299999V020350190015199999999999999999-01661-02021999999REMAWY049XCS SA 0000 AUTO8 M M M M/-17/-20/3503/M/ M 62MM=
0058712230999992018011501004+51930-110720SAO  +077299999V020090190010199999999999999999-01741-02011999999REMAWY049XCS SA 0100 AUTO8 M M M M/-17/-20/0902/M/ M 41MM=
0058712230999992018011502004+51930-110720SAO  +077299999V020030190026199999999999999999-01861-02151999999REMAWY049XCS SA 0200 AUTO8 M M M M/-19/-22/0305/M/ M 65MM=
0063712230999992018011503004+51933-110700FM-12+077299999V0200401N002119999999N999999999-01861-02361999999ADDAA103000091REMSYN04071223 26/// /0404 11186 21236 333 60007=
0058712230999992018011503004+51930-110720SAO  +077299999V020040190021199999999999999999-01861-02361999999REMAWY049XCS SA 0300 AUTO8 M M M M/-19/-24/0404/M/ M 66MM=
0058712230999992018011504004+51930-110720SAO  +077299999V020050190015199999999999999999-01901-02381999999REMAWY049XCS SA 0400 AUTO8 M M M M/-19/-24/0503/M/ M 08MM=
0058712230999992018011505004+51930-110720SAO  +077299999V020090190015199999999999999999-01941-02421999999REMAWY049XCS SA 0500 AUTO8 M M M M/-19/-24/0903/M/ M 42MM=
0118712230999992018011506004+51933-110700FM-12+077299999V0201101N000519999999N999999999-02031-02411999999ADDAA106000091AA224000091KA1240M-00271KA2240N-02031REMSYN05871223 16/// /1101 11203 21241 60001 333 11027 21203 70000=
0058712230999992018011506004+51930-110720SAO  +077299999V020110190005199999999999999999-02031-02411999999REMAWY049XCS SA 0600 AUTO8 M M M M/-20/-24/1101/M/ M 31MM=
0058712230999992018011507004+51930-110720SAO  +077299999V020160190010199999999999999999-01991-02411999999REMAWY049XCS SA 0700 AUTO8 M M M M/-20/-24/1602/M/ M 91MM=
0058712230999992018011508004+51930-110720SAO  +077299999V020170190021199999999999999999-02191-02551999999REMAWY049XCS SA 0800 AUTO8 M M M M/-22/-26/1704/M/ M 95MM=
0063712230999992018011509004+51933-110700FM-12+077299999V0201801N002619999999N999999999-02171-02561999999ADDAA103000091REMSYN04071223 26/// /1805 11217 21256 333 60007=
0058712230999992018011509004+51930-110720SAO  +077299999V020180190026199999999999999999-02171-02561999999REMAWY049XCS SA 0900 AUTO8 M M M M/-22/-26/1805/M/ M 76MM=
0058712230999992018011510004+51930-110720SAO  +077299999V020210190046199999999999999999-02351-02711999999REMAWY049XCS SA 1000 AUTO8 M M M M/-24/-27/2109/M/ M 51MM=
0058712230999992018011511004+51930-110720SAO  +077299999V020190190036199999999999999999-02431-02761999999REMAWY049XCS SA 1100 AUTO8 M M M M/-24/-28/1907/M/ M 36MM=
0118712230999992018011512004+51933-110700FM-12+077299999V0201301N002619999999N999999999-02411-02801999999ADDAA106000091AA224000091KA1240M-00271KA2240N-02451REMSYN05871223 16/// /1305 11241 21280 60001 333 11027 21245 70000=
0058712230999992018011512004+51930-110720SAO  +077299999V020130190026199999999999999999-02411-02801999999REMAWY049XCS SA 1200 AUTO8 M M M M/-24/-28/1305/M/ M 10MM=
0058712230999992018011513004+51930-110720SAO  +077299999V020130190026199999999999999999-02561-02841999999REMAWY049XCS SA 1300 AUTO8 M M M M/-26/-28/1305/M/ M 64MM=
0058712230999992018011514004+51930-110720SAO  +077299999V020190190041199999999999999999-02361-02761999999REMAWY049XCS SA 1400 AUTO8 M M M M/-24/-28/1908/M/ M 66MM=
0063712230999992018011515004+51933-110700FM-12+077299999V0201701N004119999999N999999999-02391-02791999999ADDAA103000091REMSYN04071223 26/// /1708 11239 21279 333 60007=
0058712230999992018011515004+51930-110720SAO  +077299999V020170190041199999999999999999-02391-02791999999REMAWY049XCS SA 1500 AUTO8 M M M M/-24/-28/1708/M/ M 99MM=
0058712230999992018011516004+51930-110720SAO  +077299999V020200190041199999999999999999-02321-02731999999REMAWY049XCS SA 1600 AUTO8 M M M M/-23/-27/2008/M/ M 23MM=
0058712230999992018011517004+51930-110720SAO  +077299999V020170190031199999999999999999-02141-02551999999REMAWY049XCS SA 1700 AUTO8 M M M M/-21/-26/1706/M/ M 45MM=
0118712230999992018011518004+51933-110700FM-12+077299999V0201701N005719999999N999999999-01831-02531999999ADDAA106000091AA224000091KA1120M-01831KA2120N-02631REMSYN05871223 16/// /1711 11183 21253 60001 333 11183 21263 70000=
0058712230999992018011518004+51930-110720SAO  +077299999V020170190057199999999999999999-01831-02531999999REMAWY049XCS SA 1800 AUTO8 M M M M/-18/-25/1711/M/ M 33MM=
0058712230999992018011519004+51930-110720SAO  +077299999V020170190057199999999999999999-01711-02391999999REMAWY049XCS SA 1900 AUTO8 M M M M/-17/-24/1711/M/ M 19MM=
0058712230999992018011520004+51930-110720SAO  +077299999V020170190062199999999999999999-01471-02221999999REMAWY049XCS SA 2000 AUTO8 M M M M/-15/-22/1712/M/ M 72MM=
0063712230999992018011521004+51933-110700FM-12+077299999V0201701N005719999999N999999999-01361-02071999999ADDAA103000091REMSYN04071223 26/// /1711 11136 21207 333 60007=
0093712230999992018011521004+51930-110720SAO  +077299999V020170190057199999999999999999-01361-02071999999ADDOD130100931180REMAWY067XCS SA 2100 AUTO8 M M M M/-14/-21/1711/M/ PK WND 1818 2027Z M 67MM=
0093712230999992018011522004+51930-110720SAO  +077299999V020170190067199999999999999999-01291-02011999999ADDOD130100931170REMAWY067XCS SA 2200 AUTO8 M M M M/-13/-20/1713/M/ PK WND 1718 2120Z M 91MM=
0093712230999992018011523004+51930-110720SAO  +077299999V020170190051199999999999999999-01291-02041999999ADDOD130100871160REMAWY067XCS SA 2300 AUTO8 M M M M/-13/-20/1710/M/ PK WND 1617 2201Z M 94MM=
0118712230999992018011600004+51933-110700FM-12+077299999V0201601N004619999999N999999999-01471-02111999999ADDAA106000091AA224000091KA1120M-01261KA2120N-02631REMSYN05871223 16/// /1609 11147 21211 60001 333 11126 21263 70000=
0058712230999992018011600004+51930-110720SAO  +077299999V020160190046199999999999999999-01471-02111999999REMAWY049XCS SA 0000 AUTO8 M M M M/-15/-21/1609/M/ M 71MM=
0058712230999992018011601004+51930-110720SAO  +077299999V020160190057199999999999999999-01511-02151999999REMAWY049XCS SA 0100 AUTO8 M M M M/-15/-22/1611/M/ M 15MM=
0058712230999992018011602004+51930-110720SAO  +077299999V020180190057199999999999999999-01671-02211999999REMAWY049XCS SA 0200 AUTO8 M M M M/-17/-22/1811/M/ M 71MM=
0063712230999992018011603004+51933-110700FM-12+077299999V0201901N004619999999N999999999-01881-02281999999ADDAA103000091REMSYN04071223 26/// /1909 11188 21228 333 60007=
0058712230999992018011603004+51930-110720SAO  +077299999V020190190046199999999999999999-01881-02281999999REMAWY049XCS SA 0300 AUTO8 M M M M/-19/-23/1909/M/ M 88MM=
0058712230999992018011604004+51930-110720SAO  +077299999V020190190051199999999999999999-01921-02311999999REMAWY049XCS SA 0400 AUTO8 M M M M/-19/-23/1910/M/ M 21MM=
0058712230999992018011605004+51930-110720SAO  +077299999V020160190041199999999999999999-01881-02261999999REMAWY049XCS SA 0500 AUTO8 M M M M/-19/-23/1608/M/ M 86MM=
0134712230999992018011606004+51933-110700FM-12+077299999V0201001N003119999999N999999999-02121-02401999999ADDAA106000091AA224000091KA1240M-01261KA2240N-02631REMSYN07471223 16/// /1006 11212 21240 60001 333 11126 21263 70000 555 31818 40210=
0058712230999992018011606004+51930-110720SAO  +077299999V020100190031199999999999999999-02121-02401999999REMAWY049XCS SA 0600 AUTO8 M M M M/-21/-24/1006/M/ M 20MM=
0093712230999992018011607004+51930-110720SAO  +077299999V020200190062199999999999999999-01641-02101999999ADDOD130100871180REMAWY067XCS SA 0700 AUTO8 M M M M/-16/-21/2012/M/ PK WND 1817 0639Z M 40MM=
0093712230999992018011608004+51930-110720SAO  +077299999V020190190067199999999999999999-01571-02121999999ADDOD130101031180REMAWY067XCS SA 0800 AUTO8 M M M M/-16/-21/1913/M/ PK WND 1820 0750Z M 72MM=
0063712230999992018011609004+51933-110700FM-12+077299999V0201501N003119999999N999999999-01671-02171999999ADDAA103000091REMSYN04071223 26/// /1506 11167 21217 333 60007=
0058712230999992018011609004+51930-110720SAO  +077299999V020150190031199999999999999999-01671-02171999999REMAWY049XCS SA 0900 AUTO8 M M M M/-17/-22/1506/M/ M 77MM=
0058712230999992018011610004+51930-110720SAO  +077299999V020140190026199999999999999999-01811-02151999999REMAWY049XCS SA 1000 AUTO8 M M M M/-18/-22/1405/M/ M 15MM=
0058712230999992018011611004+51930-110720SAO  +077299999V020180190041199999999999999999-01781-02221999999REMAWY049XCS SA 1100 AUTO8 M M M M/-18/-22/1808/M/ M 82MM=
0118712230999992018011612004+51933-110700FM-12+077299999V0201501N003119999999N999999999-01841-02281999999ADDAA106000091AA224000091KA1240M-01261KA2240N-02131REMSYN05871223 16/// /1506 11184 21228 60001 333 11126 21213 70000=
0058712230999992018011612004+51930-110720SAO  +077299999V020150190031199999999999999999-01841-02281999999REMAWY049XCS SA 1200 AUTO8 M M M M/-18/-23/1506/M/ M 48MM=
0058712230999992018011613004+51930-110720SAO  +077299999V020160190021199999999999999999-01761-02151999999REMAWY049XCS SA 1300 AUTO8 M M M M/-18/-22/1604/M/ M 65MM=
0058712230999992018011614004+51930-110720SAO  +077299999V020150190026199999999999999999-01911-02321999999REMAWY049XCS SA 1400 AUTO8 M M M M/-19/-23/1505/M/ M 12MM=
0063712230999992018011615004+51933-110700FM-12+077299999V0201401N003119999999N999999999-01961-02311999999ADDAA103000091REMSYN04071223 26/// /1406 11196 21231 333 60007=
0058712230999992018011615004+51930-110720SAO  +077299999V020140190031199999999999999999-01961-02311999999REMAWY049XCS SA 1500 AUTO8 M M M M/-20/-23/1406/M/ M 61MM=
0058712230999992018011616004+51930-110720SAO  +077299999V020160190026199999999999999999-01761-02121999999REMAWY049XCS SA 1600 AUTO8 M M M M/-18/-21/1605/M/ M 62MM=
0058712230999992018011617004+51930-110720SAO  +077299999V020170190021199999999999999999-01481-01981999999REMAWY049XCS SA 1700 AUTO8 M M M M/-15/-20/1704/M/ M 88MM=
0118712230999992018011618004+51933-110700FM-12+077299999V0201501N002619999999N999999999-01241-01701999999ADDAA106000091AA224000091KA1120M-01241KA2120N-02131REMSYN05871223 16/// /1505 11124 21170 60001 333 11124 21213 70000=
0058712230999992018011618004+51930-110720SAO  +077299999V020150190026199999999999999999-01241-01701999999REMAWY049XCS SA 1800 AUTO8 M M M M/-12/-17/1505/M/ M 40MM=
0058712230999992018011619004+51930-110720SAO  +077299999V020190190041199999999999999999-00881-01321999999REMAWY049XCS SA 1900 AUTO8 M M M M/-09/-13/1908/M/ M 82MM=
0093712230999992018011620004+51930-110720SAO  +077299999V020210190077199999999999999999-00841-01261999999ADDOD130101081210REMAWY067XCS SA 2000 AUTO8 M M M M/-08/-13/2115/M/ PK WND 2121 1933Z M 46MM=
0063712230999992018011621004+51933-110700FM-12+077299999V0202101N006719999999N999999999-00791-01201999999ADDAA103000091REMSYN04071223 26/// /2113 11079 21120 333 60007=
0058712230999992018011621004+51930-110720SAO  +077299999V020210190067199999999999999999-00791-01201999999REMAWY049XCS SA 2100 AUTO8 M M M M/-08/-12/2113/M/ M 90MM=
0093712230999992018011622004+51930-110720SAO  +077299999V020210190067199999999999999999-00761-01151999999ADDOD130100931220REMAWY067XCS SA 2200 AUTO8 M M M M/-08/-12/2113/M/ PK WND 2218 2133Z M 65MM=
0058712230999992018011623004+51930-110720SAO  +077299999V020220190067199999999999999999-00811-01161999999REMAWY049XCS SA 2300 AUTO8 M M M M/-08/-12/2213/M/ M 16MM=
0118712230999992018011700004+51933-110700FM-12+077299999V0202301N007719999999N999999999-00891-01201999999ADDAA106000091AA224000091KA1120M-00761KA2120N-02131REMSYN05871223 16/// /2315 11089 21120 60001 333 11076 21213 70000=
0093712230999992018011700004+51930-110720SAO  +077299999V020230190077199999999999999999-00881-01201999999ADDOD130100981230REMAWY067XCS SA 0000 AUTO8 M M M M/-09/-12/2315/M/ PK WND 2319 2355Z M 80MM=
0093712230999992018011701004+51930-110720SAO  +077299999V020230190087199999999999999999-00961-01241999999ADDOD130100981230REMAWY067XCS SA 0100 AUTO8 M M M M/-10/-12/2317/M/ PK WND 2319 0051Z M 64MM=
0093712230999992018011702004+51930-110720SAO  +077299999V020230190093199999999999999999-00971-01221999999ADDOD130101131230REMAWY067XCS SA 0200 AUTO8 M M M M/-10/-12/2318/M/ PK WND 2322 0114Z M 72MM=
0063712230999992018011703004+51933-110700FM-12+077299999V0202301N007219999999N999999999-00871-01091999999ADDAA103000091REMSYN04071223 26/// /2314 11087 21109 333 60007=
0093712230999992018011703004+51930-110720SAO  +077299999V020230190072199999999999999999-00871-01091999999ADDOD130100931240REMAWY067XCS SA 0300 AUTO8 M M M M/-09/-11/2314/M/ PK WND 2418 0200Z M 79MM=
0093712230999992018011704004+51930-110720SAO  +077299999V020230190082199999999999999999-00771-01001999999ADDOD130101131220REMAWY067XCS SA 0400 AUTO8 M M M M/-08/-10/2316/M/ PK WND 2222 0329Z M 70MM=
0093712230999992018011705004+51930-110720SAO  +077299999V020220190077199999999999999999-00641-00751999999ADDOD130100981230REMAWY067XCS SA 0500 AUTO8 M M M M/-06/-08/2215/M/ PK WND 2319 0414Z M 45MM=
0134712230999992018011706004+51933-110700FM-12+077299999V0202401N010819999999N999999999-00351-00641999999ADDAA106000091AA224000091KA1240M-00341KA2240N-02131REMSYN07471223 16/// /2421 11035 21064 60001 333 11034 21213 70000 555 32426 40061=
0093712230999992018011706004+51930-110720SAO  +077299999V020240190108199999999999999999-00251-00641999999ADDOD130101341240REMAWY067XCS SA 0600 AUTO8 M M M M/-03/-06/2421/M/ PK WND 2426 0534Z M 54MM=
0093712230999992018011707004+51930-110720SAO  +077299999V020260190118199999999999999999-00311-00661999999ADDOD130101391260REMAWY067XCS SA 0700 AUTO8 M M M M/-03/-07/2623/M/ PK WND 2627 0649Z M 16MM=
0093712230999992018011708004+51930-110720SAO  +077299999V020270190128199999999999999999-00211-00661999999ADDOD130101491260REMAWY067XCS SA 0800 AUTO8 M M M M/-02/-07/2725/M/ PK WND 2629 0715Z M 16MM=
0063712230999992018011709004+51933-110700FM-12+077299999V0202701N011819999999N999999999-00171-00621999999ADDAA103000091REMSYN04071223 26/// /2723 11017 21062 333 60007=
0093712230999992018011709004+51930-110720SAO  +077299999V020270190118199999999999999999-00171-00621999999ADDOD130101491280REMAWY067XCS SA 0900 AUTO8 M M M M/-02/-06/2723/M/ PK WND 2829 0819Z M 72MM=
0092712230999992018011710004+51930-110720SAO  +077299999V020260190123199999999999999999+00201-00381999999ADDOD130101541270REMAWY066XCS SA 1000 AUTO8 M M M M/02/-04/2624/M/ PK WND 2730 0958Z M 08MM=
0092712230999992018011711004+51930-110720SAO  +077299999V020280190139199999999999999999+00371-00211999999ADDOD130101901270REMAWY066XCS SA 1100 AUTO8 M M M M/04/-02/2827/M/ PK WND 2737 1031Z M 71MM=
0105712230999992018011712004+51933-110700FM-12+077299999V0202901N011319999999N999999999+00391-00111999999ADDAA106000091AA224000091KA1240N-00981REMSYN05871223 16/// /2922 10039 21011 60001 333 11034 21098 70000=
0092712230999992018011712004+51930-110720SAO  +077299999V020290190113199999999999999999+00391-00111999999ADDOD130101851280REMAWY066XCS SA 1200 AUTO8 M M M M/04/-01/2922/M/ PK WND 2836 1126Z M 91MM=
0091712230999992018011713004+51930-110720SAO  +077299999V020300190093199999999999999999+00291+00001999999ADDOD130101491320REMAWY065XCS SA 1300 AUTO8 M M M M/03/00/3018/M/ PK WND 3229 1214Z M 90MM=
0092712230999992018011714004+51930-110720SAO  +077299999V020250190072199999999999999999+00061-00331999999ADDOD130100931300REMAWY066XCS SA 1400 AUTO8 M M M M/01/-03/2514/M/ PK WND 3018 1301Z M 63MM=
0063712230999992018011715004+51933-110700FM-12+077299999V0202501N009319999999N999999999-00151-00611999999ADDAA103000091REMSYN04071223 26/// /2518 11015 21061 333 60007=
0093712230999992018011715004+51930-110720SAO  +077299999V020250190093199999999999999999-00051-00611999999ADDOD130101031250REMAWY067XCS SA 1500 AUTO8 M M M M/-01/-06/2518/M/ PK WND 2520 1447Z M 51MM=
0093712230999992018011716004+51930-110720SAO  +077299999V020260190098199999999999999999-00271-00801999999ADDOD130101131250REMAWY067XCS SA 1600 AUTO8 M M M M/-03/-08/2619/M/ PK WND 2522 1511Z M 70MM=
0093712230999992018011717004+51930-110720SAO  +077299999V020270190093199999999999999999-00181-00791999999ADDOD130101131260REMAWY067XCS SA 1700 AUTO8 M M M M/-02/-08/2718/M/ PK WND 2622 1627Z M 89MM=
0118712230999992018011718004+51933-110700FM-12+077299999V0202701N008219999999N999999999+00021-00731999999ADDAA106000091AA224000091KA1120M+00391KA2120N-01241REMSYN05871223 16/// /2716 10002 21073 60001 333 10039 21124 70000=
0092712230999992018011718004+51930-110720SAO  +077299999V020270190082199999999999999999+00021-00731999999ADDOD130101081270REMAWY066XCS SA 1800 AUTO8 M M M M/00/-07/2716/M/ PK WND 2721 1713Z M 23MM=
0092712230999992018011719004+51930-110720SAO  +077299999V020250190077199999999999999999+00071-00691999999ADDOD130100981230REMAWY066XCS SA 1900 AUTO8 M M M M/01/-07/2515/M/ PK WND 2319 1859Z M 79MM=
0093712230999992018011720004+51930-110720SAO  +077299999V020220190046199999999999999999-00151-00591999999ADDOD130100981230REMAWY067XCS SA 2000 AUTO8 M M M M/-02/-06/2209/M/ PK WND 2319 1900Z M 59MM=
0063712230999992018011721004+51933-110700FM-12+077299999V0202201N005119999999N999999999-00091-00601999999ADDAA103000091REMSYN04071223 26/// /2210 11009 21060 333 60007=
0058712230999992018011721004+51930-110720SAO  +077299999V020220190051199999999999999999-00091-00601999999REMAWY049XCS SA 2100 AUTO8 M M M M/-01/-06/2210/M/ M 90MM=
0058712230999992018011722004+51930-110720SAO  +077299999V020230190057199999999999999999-00131-00591999999REMAWY049XCS SA 2200 AUTO8 M M M M/-01/-06/2311/M/ M 39MM=
0058712230999992018011723004+51930-110720SAO  +077299999V020230190057199999999999999999-00111-00621999999REMAWY049XCS SA 2300 AUTO8 M M M M/-01/-06/2311/M/ M 12MM=
0118712230999992018011800004+51933-110700FM-12+077299999V0202201N004619999999N999999999-00471-00781999999ADDAA106000091AA224000091KA1120M+00391KA2120N-00471REMSYN05871223 16/// /2209 11047 21078 60001 333 10039 21047 70000=
0058712230999992018011800004+51930-110720SAO  +077299999V020220190046199999999999999999-00471-00781999999REMAWY049XCS SA 0000 AUTO8 M M M M/-05/-08/2209/M/ M 78MM=
0058712230999992018011801004+51930-110720SAO  +077299999V020230190041199999999999999999-00511-00891999999REMAWY049XCS SA 0100 AUTO8 M M M M/-05/-09/2308/M/ M 19MM=
0058712230999992018011802004+51930-110720SAO  +077299999V020210190062199999999999999999-00541-00881999999REMAWY049XCS SA 0200 AUTO8 M M M M/-05/-09/2112/M/ M 48MM=
0063712230999992018011803004+51933-110700FM-12+077299999V0202201N004119999999N999999999-00561-00841999999ADDAA103000091REMSYN04071223 26/// /2208 11056 21084 333 60007=
0058712230999992018011803004+51930-110720SAO  +077299999V020220190041199999999999999999-00561-00841999999REMAWY049XCS SA 0300 AUTO8 M M M M/-06/-08/2208/M/ M 64MM=
0058712230999992018011804004+51930-110720SAO  +077299999V020170190021199999999999999999-00501-00751999999REMAWY049XCS SA 0400 AUTO8 M M M M/-05/-08/1704/M/ M 05MM=
0058712230999992018011805004+51930-110720SAO  +077299999V020190190041199999999999999999-00441-00711999999REMAWY049XCS SA 0500 AUTO8 M M M M/-04/-07/1908/M/ M 41MM=
0134712230999992018011806004+51933-110700FM-12+077299999V0201601N003119999999N999999999-00531-00851999999ADDAA106000091AA224000091KA1240M+00391KA2240N-00631REMSYN07471223 16/// /1606 11053 21085 60001 333 10039 21063 70000 555 32737 40112=
0058712230999992018011806004+51930-110720SAO  +077299999V020160190031199999999999999999-00531-00751999999REMAWY049XCS SA 0600 AUTO8 M M M M/-05/-08/1606/M/ M 35MM=
0058712230999992018011807004+51930-110720SAO  +077299999V020190190036199999999999999999-00561-00711999999REMAWY049XCS SA 0700 AUTO8 M M M M/-06/-07/1907/M/ M 61MM=
0058712230999992018011808004+51930-110720SAO  +077299999V020180190031199999999999999999-00351-00551999999REMAWY049XCS SA 0800 AUTO8 M M M M/-04/-06/1806/M/ M 55MM=
0063712230999992018011809004+51933-110700FM-12+077299999V0202001N005719999999N999999999-00331-00511999999ADDAA103000091REMSYN04071223 26/// /2011 11033 21051 333 60007=
0058712230999992018011809004+51930-110720SAO  +077299999V020200190057199999999999999999-00331-00511999999REMAWY049XCS SA 0900 AUTO8 M M M M/-03/-05/2011/M/ M 31MM=
0058712230999992018011810004+51930-110720SAO  +077299999V020210190062199999999999999999-00271-00461999999REMAWY049XCS SA 1000 AUTO8 M M M M/-03/-05/2112/M/ M 76MM=
0058712230999992018011811004+51930-110720SAO  +077299999V020180190031199999999999999999-00281-00441999999REMAWY049XCS SA 1100 AUTO8 M M M M/-03/-04/1806/M/ M 84MM=
