0214013590999992024010100004+60533+008200FM-12+077399999V0200401N004019999999N999999999-00951-01131101261ADDAA101000091AA206000731AJ100303100300099KA1120M-00931KA2120N-00951MA1999999091711MD1210021+9999OD139901001999REMSYN09401359 06/// /0404 11095 21113 39171 40126 52002 69971 333 11093 21095 4/030 60005 90710 91110=
0174013590999992024010103004+60533+008200FM-12+077399999V0200601N004019999999N999999999-00961-01121101241ADDAA101000231KA1240M-00951KA2240N-00961MA1999999091681MD1710021+9999OD139900701999REMSYN08201359 26/// /0604 11096 21112 39168 40124 57002 333 11095 21096 69925 90710 91107=
0335013590999992024010106004+60533+008200FM-12+077399999V0200501N005019999999N004100199-00961-01141101221ADDAA101000131AA212002031AA324004531AJ100333100330099AY171021AY271021GA1081+004501051GE19AGL   +99999+99999GF108991081999004501999999IA1289KA1240M-00711KA2240N-00971MA1999999091671MD1510021+9999MW1711OD139901001999REMSYN11201359 01441 80505 11096 21114 39167 40122 55002 60022 77177 8802/ 333 11071 21097 48033 69915 70045 90710 91110=
0174013590999992024010109004+60533+008200FM-12+077399999V0200501N006019999999N999999999-01031-01241101411ADDAA101000131KA1240M-01011KA2240N-01031MA1999999091811MD1210131+9999OD139901001999REMSYN08201359 26/// /0506 11103 21124 39181 40141 52013 333 11101 21103 69915 90710 91110=
0318013590999992024010112004+60533+008200FM-12+077399999V0200501N004019999999N003800199-01051-01261101521ADDAA101000091AA206000331AJ100343100340099AY171021AY271021GA1081+002501051GE19AGL   +99999+99999GF108991081999002501999999IA1289KA1240M-01041KA2240N-01061MA1999999091911MD1110091+9999MW1711OD139900901999REMSYN10601359 01338 80504 11105 21126 39191 40152 51009 69931 77177 8802/ 333 11104 21106 48034 60005 90710 91109=
0180013590999992024010115004+60533+008200FM-12+077399999V0200401N004019999999N999999999-01081-01281101541ADDAA101000131KA1240M-01071KA2240N-01081MA1999999091911MD1510001+9999OD139900801999REMSYN08801359 26/// /0404 11108 21128 39191 40154 55000 91500 333 11107 21108 69915 90710 91108=
0318013590999992024010118004+60533+008200FM-12+077399999V0200501N004019999999N004500199-01061-01231101591ADDAA101000131AA212000931AJ100353100350099AY171021AY271021GA1081+004501051GE19AGL   +99999+99999GF108991081999004501999999IA1289KA1120M-00961KA2120N-01081MA1999999091971MD1210061+9999MW1711OD139900601999REMSYN10601359 01445 80504 11106 21123 39197 40159 52006 69992 77177 8802/ 333 11096 21108 48035 69915 90710 91106=
0174013590999992024010121004+60533+008200FM-12+077399999V0200501N003019999999N999999999-01041-01191101611ADDAA101000231KA1240M-01041KA2240N-01051MA1999999092001MD1990031+9999OD139900601999REMSYN08201359 26/// /0503 11104 21119 39200 40161 50003 333 11104 21105 69925 90710 91106=
0233013590999992024010200004+60533+008200FM-12+077399999V0200501N003019999999N999999999-01061-01211101611ADDAA101000431AA206001031AJ100413100410099KA1120M-01051KA2120N-01061MA1999999091991MD1410009+9999OD139900701999REMSYN09401359 06/// /0503 11106 21121 39199 40161 54001 60011 333 11105 21106 4/041 69945 90710 91107=EQDQ01.1    3APC3  
0174013590999992024010203004+60533+008200FM-12+077399999V0200501N004019999999N999999999-01121-01281101561ADDAA101000231KA1240M-01101KA2240N-01121MA1999999091921MD1510081+9999OD139900701999REMSYN08201359 26/// /0504 11112 21128 39192 40156 55008 333 11110 21112 69925 90710 91107=
0335013590999992024010206004+60533+008200FM-12+077399999V0200501N004019999999N005000199-01161-01321101511ADDAA101000091AA212003031AA324003431AJ100413100410099AY171021AY271021GA1081+004501051GE19AGL   +99999+99999GF108991081999004501999999IA1289KA1240M-01041KA2240N-01161MA1999999091861MD1710061+9999MW1711OD139900601999REMSYN11201359 01450 80504 11116 21132 39186 40151 57006 60032 77177 8802/ 333 11104 21116 48041 60005 70034 90710 91106=
0174013590999992024010209004+60533+008200FM-12+077399999V0200501N004019999999N999999999-01191-01371101581ADDAA101000131KA1240M-01181KA2240N-01191MA1999999091911MD1210051+9999OD139900801999REMSYN08201359 26/// /0504 11119 21137 39191 40158 52005 333 11118 21119 69915 90710 91108=
0318013590999992024010212004+60533+008200FM-12+077399999V0200501N005019999999N005000199-01221-01431101521ADDAA101000131AA206000531AJ100403100400099AY171021AY271021GA1081+004501051GE19AGL   +99999+99999GF108991081999004501999999IA1289KA1240M-01201KA2240N-01221MA1999999091851MD1710061+9999MW1711OD139900901999REMSYN10601359 01450 80505 11122 21143 39185 40152 57006 69951 77177 8802/ 333 11120 21122 48040 69915 90710 91109=
0180013590999992024010215004+60533+008200FM-12+077399999V0200501N004019999999N999999999-01351-01581101501ADDAA101000131KA1240M-01311KA2240N-01351MA1999999091791MD1610061+9999OD139901001999REMSYN08801359 26/// /0504 11135 21158 39179 40150 56006 91500 333 11131 21135 69915 90710 91110=
0318013590999992024010218004+60533+008200FM-12+077399999V0200501N004019999999N007000199-01391-01601101491ADDAA101000091AA212000631AJ100393100390099AY171021AY221021GA1081+004501051GE19AGL   +99999+99999GF108991081999004501999999IA1289KA1120M-01151KA2120N-01391MA1999999091761MD1710031+9999MW1701OD139900801999REMSYN10601359 01457 80504 11139 21160 39176 40149 57003 69962 77072 8802/ 333 11115 21139 48039 60005 90710 91108=
0180013590999992024010221004+60533+008200FM-12+077399999V0200501N004019999999N999999999-01441-01651101411ADDAA101000091KA1240M-01421KA2240N-01441MA1999999091671MD1710091+9999OD139900801999REMSYN08801359 26/// /0504 11144 21165 39167 40141 57009 92100 333 11142 21144 60005 90710 91108=
0220013590999992024010300004+60533+008200FM-12+077399999V0200501N004019999999N999999999-01421-01641101311ADDAA101000131AA206000231AJ100373100370099KA1120M-01411KA2120N-01421MA1999999091591MD1710081+9999OD139900901999REMSYN10001359 06/// /0504 11142 21164 39159 40131 57008 69921 90000 333 11141 21142 4/037 69915 90710 91109=
0174013590999992024010303004+60533+008200FM-12+077399999V0200401N005019999999N999999999-01421-01641101201ADDAA101000091KA1240M-01421KA2240N-01421MA1999999091481MD1710091+9999OD139900901999REMSYN08201359 26/// /0405 11142 21164 39148 40120 57009 333 11142 21142 60005 90710 91109=
0335013590999992024010306004+60533+008200FM-12+077399999V0200601N004019999999N012000199-01441-01681101171ADDAA101000091AA212000331AA324000931AJ100363100360099AY171021AY221021GA1081+004501051GE19AGL   +99999+99999GF108991081999004501999999IA1289KA1240M-01381KA2240N-01441MA1999999091461MD1510031+9999MW1781OD139900801999REMSYN11201359 01462 80604 11144 21168 39146 40117 55003 69932 77872 8802/ 333 11138 21144 48036 60005 70009 90710 91108=
0174013590999992024010309004+60533+008200FM-12+077399999V0200501N003019999999N999999999-01471-01701101211ADDAA101000091KA1240M-01461KA2240N-01471MA1999999091481MD1210021+9999OD139901001999REMSYN08201359 26/// /0503 11147 21170 39148 40121 52002 333 11146 21147 60005 90710 91110=
0174013590999992024010315004+60533+008200FM-12+077399999V0200501N004019999999N999999999-01561-01871101171ADDAA101000091KA1240M-01551KA2240N-01571MA1999999091411MD1510031+9999OD139900701999REMSYN08201359 26/// /0504 11156 21187 39141 40117 55003 333 11155 21157 60005 90710 91107=
0318013590999992024010318004+60533+008200FM-12+077399999V0200701N002019999999N018000199-01671-01861101261ADDAA101000091AA212000231AJ100353100350099AY121021AY221021GA1061+004501061GE19AGL   +99999+99999GF106991061999004501999999IA1289KA1120M-01441KA2120N-01671MA1999999091451MD1210041+9999MW1021OD139900601999REMSYN10601359 01468 60702 11167 21186 39145 40126 52004 69922 70222 86500 333 11144 21167 48035 60005 90710 91106=
0174013590999992024010321004+60533+008200FM-12+077399999V0200901N001019999999N999999999-01931-02111101431ADDAA101000091KA1240M-01691KA2240N-01931MA1999999091511MD1210061+9999OD139900401999REMSYN08201359 26/// /0901 11193 21211 39151 40143 52006 333 11169 21193 60005 90710 91104=
0214013590999992024010400004+60533+008200FM-12+077399999V0200901N001019999999N999999999-01961-02151101501ADDAA101000091AA206000091AJ100343100340099KA1120M-01861KA2120N-01971MA1999999091561MD1210051+9999OD139900301999REMSYN09401359 06/// /0901 11196 21215 39156 40150 52005 60001 333 11186 21197 4/034 60005 90710 91103=
0174013590999992024010403004+60533+008200FM-12+077399999V0200501N001019999999N999999999-02041-02221101571ADDAA101000091KA1240M-01981KA2240N-02091MA1999999091591MD1210031+9999OD139900201999REMSYN08201359 26/// /0501 11204 21222 39159 40157 52003 333 11198 21209 60005 90710 91102=
0335013590999992024010406004+60533+008200FM-12+077399999V0200701N001019999999N008000199-01841-02021101541ADDAA101000231AA212000631AA324000831AJ100343100340099AY171021AY221021GA1081+004501051GE19AGL   +99999+99999GF108991081999004501999999IA1289KA1240M-01671KA2240N-02091MA1999999091641MD1210051+9999MW1711OD139900201999REMSYN11201359 01458 80701 11184 21202 39164 40154 52005 69962 77172 8802/ 333 11167 21209 48034 69925 70008 90710 91102=
0174013590999992024010409004+60533+008200FM-12+077399999V0201001N001019999999N999999999-01771-01961101631ADDAA101000091KA1240M-01771KA2240N-01791MA1999999091751MD1210101+9999OD139900201999REMSYN08201359 26/// /1001 11177 21196 39175 40163 52010 333 11177 21179 60005 90710 91102=
0318013590999992024010412004+60533+008200FM-12+077399999V0202401N001019999999N030000199-01811-02111101701ADDAA101000091AA206000091AJ100343100340099AY171021AY221021GA1061+008001061GE19AGL   +99999+99999GF106991061999008001999999IA1289KA1240M-01751KA2240N-01811MA1999999091801MD1210051+9999MW1011OD139900301999REMSYN10601359 01580 62401 11181 21211 39180 40170 52005 60001 70172 86500 333 11175 21181 48034 60005 90710 91103=
0174013590999992024010415004+60533+008200FM-12+077399999V0202201N001019999999N999999999-02381-02641101971ADDAA101000091KA1240M-02151KA2240N-02381MA1999999091831MD1210031+9999OD139900301999REMSYN08201359 26/// /2201 11238 21264 39183 40197 52003 333 11215 21238 60005 90710 91103=
0318013590999992024010418004+60533+008200FM-12+077399999V0209999C000052200019N035000199-02671-02921102151ADDAA101000091AA212000091AJ100333100330099AY121021AY201021GA1031+004501061GE19AGL   +99999+99999GF103991031999004501999999IA1289KA1120M-01751KA2120N-02671MA1999999091871MD1210041+9999MW1021OD139900201999REMSYN10601359 01481 32800 11267 21292 39187 40215 52004 60002 70220 83500 333 11175 21267 48033 60005 90710 91102=
0180013590999992024010421004+60533+008200FM-12+077399999V0202601N002019999999N999999999-02401-02611102111ADDAA101000091KA1240M-02401KA2240N-02771MA1999999091951MD1210081+9999OD139900501999REMSYN08801359 26/// /2602 11240 21261 39195 40211 52008 92100 333 11240 21277 60005 90710 91105=
0214013590999992024010500004+60533+008200FM-12+077399999V0209999C000059999999N999999999-02941-03211102321ADDAA101000091AA206000091AJ100333100330099KA1120M-02891KA2120N-03061MA1999999091921MD1710031+9999OD139900301999REMSYN09401359 06/// /1800 11294 21321 39192 40232 57003 60001 333 11289 21306 4/033 60005 90710 91103=
0180013590999992024010503004+60533+008200FM-12+077399999V0202601N001019999999N999999999-03061-03311102331ADDAA101000091KA1240M-02991KA2240N-03181MA1999999091881MD1710031+9999OD139900101999REMSYN08801359 26/// /2601 11306 21331 39188 40233 57003 90300 333 11299 21318 60005 90710 91101=
0297013590999992024010506004+60533+008200FM-12+077399999V0202201N001019999999N070001199-03021-03301102311ADDAA101000091AA212000091AA324000091AJ100333100330099AY101021AY201021GF199999001999999999999999IA1289KA1240M-02391KA2240N-03251MA1999999091871MD1510011+9999MW1021OD139900201999REMSYN11201359 01989 02201 11302 21330 39187 40231 55001 60002 70200 80000 333 11239 21325 48033 60005 70000 90710 91102=
0174013590999992024010509004+60533+008200FM-12+077399999V0209999C000059999999N999999999-03071-03321102421ADDAA101000091KA1240M-03031KA2240N-03361MA1999999091951MD1210081+9999OD139900101999REMSYN08201359 26/// /3600 11307 21332 39195 40242 52008 333 11303 21336 60005 90710 91101=
0337013590999992024010512004+60533+008200FM-12+077399999V0202301N001012200019N070001199-02931-03211102361ADDAA101000091AA206000091AJ100333100330099AY101021AY201021GA1999+999999021GE19AGL   +99999+99999GF101991001999999999999999IA1289KA1240M-02811KA2240N-03131MA1999999091961MD1990011+9999MW1021OD139900301999REMSYN10601359 01989 12301 11293 21321 39196 40236 50001 60001 70200 80008 333 11281 21313 48033 60005 90710 91103=EQDQ01    003SCCGA1
0174013590999992024010515004+60533+008200FM-12+077399999V0202301N001019999999N999999999-02791-03061102361ADDAA101000091KA1240M-02651KA2240N-02841MA1999999092011MD1310051+9999OD139900201999REMSYN08201359 26/// /2301 11279 21306 39201 40236 53005 333 11265 21284 60005 90710 91102=
0318013590999992024010518004+60533+008200FM-12+077399999V0202401N001019999999N070001199-02941-03231102541ADDAA101000091AA212000091AJ100323100320099AY101021AY201021GA1001+999999999GE19AGL   +99999+99999GF199999001999999999999999IA1289KA1120M-02651KA2120N-03391MA1999999092111MD1110101+9999MW1021OD139900201999REMSYN10601359 01989 02401 11294 21323 39211 40254 51010 60002 70200 80000 333 11265 21339 48032 60005 90710 91102=
0174013590999992024010521004+60533+008200FM-12+077399999V0202201N001019999999N999999999-02791-03071102551ADDAA101000091KA1240M-02541KA2240N-02791MA1999999092191MD1210071+9999OD139900201999REMSYN08201359 26/// /2201 11279 21307 39219 40255 52007 333 11254 21279 60005 90710 91102=
0214013590999992024010600004+60533+008200FM-12+077399999V0203201N001019999999N999999999-02361-02631102451ADDAA101000091AA206000091AJ100323100320099KA1120M-02331KA2120N-02431MA1999999092261MD1210081+9999OD139900401999REMSYN09401359 06/// /3201 11236 21263 39226 40245 52008 60001 333 11233 21243 4/032 60005 90710 91104=
0174013590999992024010603004+60533+008200FM-12+077399999V0203301N001019999999N999999999-02321-02601102551ADDAA101000091KA1240M-02321KA2240N-02471MA1999999092371MD1210101+9999OD139900101999REMSYN08201359 26/// /3301 11232 21260 39237 40255 52010 333 11232 21247 60005 90710 91101=
0335013590999992024010606004+60533+008200FM-12+077399999V0202201N001019999999N070001199-02291-02551102671ADDAA101000091AA212000091AA324000091AJ100323100320099AY101021AY201021GA1001+999999999GE19AGL   +99999+99999GF199999001999999999999999IA1289KA1240M-02291KA2240N-02981MA1999999092491MD1210121+9999MW1021OD139900301999REMSYN11201359 01989 02201 11229 21255 39249 40267 52012 60002 70200 80000 333 11229 21298 48032 60005 70000 90710 91103=
0174013590999992024010609004+60533+008200FM-12+077399999V0202301N001019999999N999999999-02261-02521102891ADDAA101000091KA1240M-02221KA2240N-02351MA1999999092701MD1210211+9999OD139900201999REMSYN08201359 26/// /2301 11226 21252 39270 40289 52021 333 11222 21235 60005 90710 91102=
0337013590999992024010612004+60533+008200FM-12+077399999V0202301N001012200019N070001199-02031-02201102921ADDAA101000091AA206000091AJ100323100320099AY101021AY201021GA1999+999999021GE19AGL   +99999+99999GF101991001999999999999999IA1289KA1240M-02031KA2240N-02191MA1999999092821MD1110111+9999MW1021OD139900301999REMSYN10601359 01989 12301 11203 21220 39282 40292 51011 60001 70200 80008 333 11203 21219 48032 60005 90710 91103=EQDQ01    003SCCGA1
0174013590999992024010615004+60533+008200FM-12+077399999V0202201N001019999999N999999999-02071-02271103071ADDAA101000091KA1240M-01971KA2240N-02091MA1999999092941MD1310111+9999OD139900201999REMSYN08201359 26/// /2201 11207 21227 39294 40307 53011 333 11197 21209 60005 90710 91102=
0318013590999992024010618004+60533+008200FM-12+077399999V0202301N001019999999N070001199-02081-02281103241ADDAA101000091AA212000091AJ100323100320099AY101021AY201021GA1001+999999999GE19AGL   +99999+99999GF199999001999999999999999IA1289KA1120M-01921KA2120N-02381MA1999999093091MD1210151+9999MW1021OD139900301999REMSYN10601359 01989 02301 11208 21228 39309 40324 52015 60002 70200 80000 333 11192 21238 48032 60005 90710 91103=
0174013590999992024010621004+60533+008200FM-12+077399999V0202301N001019999999N999999999-02171-02371103421ADDAA101000091KA1240M-02081KA2240N-02221MA1999999093211MD1210131+9999OD139900201999REMSYN08201359 26/// /2301 11217 21237 39321 40342 52013 333 11208 21222 60005 90710 91102=
0214013590999992024010700004+60533+008200FM-12+077399999V0200301N001019999999N999999999-02161-02421103531ADDAA101000091AA206000091AJ100313100310099KA1120M-02111KA2120N-02321MA1999999093311MD1310101+9999OD139900201999REMSYN09401359 06/// /0301 11216 21242 39331 40353 53010 60001 333 11211 21232 4/031 60005 90710 91102=
0174013590999992024010703004+60533+008200FM-12+077399999V0209999C000059999999N999999999-02281-02541103681ADDAA101000091KA1240M-02211KA2240N-02321MA1999999093401MD1210091+9999OD139900201999REMSYN08201359 26/// /0100 11228 21254 39340 40368 52009 333 11221 21232 60005 90710 91102=
0335013590999992024010706004+60533+008200FM-12+077399999V0200901N001019999999N070001199-02231-02531103711ADDAA101000091AA212000091AA324000091AJ100313100310099AY101021AY201021GA1001+999999999GE19AGL   +99999+99999GF199999001999999999999999IA1289KA1240M-02041KA2240N-02461MA1999999093451MD1210051+9999MW1021OD139900201999REMSYN11201359 01989 00901 11223 21253 39345 40371 52005 60002 70200 80000 333 11204 21246 48031 60005 70000 90710 91102=
0174013590999992024010709004+60533+008200FM-12+077399999V0200501N001019999999N999999999-02381-02681103961ADDAA101000091KA1240M-02321KA2240N-02521MA1999999093611MD1210161+9999OD139900201999REMSYN08201359 26/// /0501 11238 21268 39361 40396 52016 333 11232 21252 60005 90710 91102=
0318013590999992024010712004+60533+008200FM-12+077399999V0202401N001019999999N070001199-02291-02531104041ADDAA101000091AA206000091AJ100313100310099AY101021AY201021GA1001+999999999GE19AGL   +99999+99999GF199999001999999999999999IA1289KA1240M-02211KA2240N-02431MA1999999093731MD1110111+9999MW1021OD139900201999REMSYN10601359 01989 02401 11229 21253 39373 40404 51011 60001 70200 80000 333 11221 21243 48031 60005 90710 91102=
0174013590999992024010715004+60533+008200FM-12+077399999V0200401N001019999999N999999999-02091-02431104101ADDAA101000091KA1240M-02081KA2240N-02251MA1999999093851MD1310131+9999OD139900201999REMSYN08201359 26/// /0401 11209 21243 39385 40410 53013 333 11208 21225 60005 90710 91102=
0318013590999992024010718004+60533+008200FM-12+077399999V0203501N001019999999N070001199-02171-02501104291ADDAA101000091AA212000091AJ100313100310099AY101021AY201021GA1001+999999999GE19AGL   +99999+99999GF199999001999999999999999IA1289KA1120M-02071KA2120N-02641MA1999999093991MD1310141+9999MW1021OD139900201999REMSYN10601359 01989 03501 11217 21250 39399 40429 53014 60002 70200 80000 333 11207 21264 48031 60005 90710 91102=
0174013590999992024010721004+60533+008200FM-12+077399999V0209999C000059999999N999999999-02281-02611104471ADDAA101000091KA1240M-02071KA2240N-02431MA1999999094121MD1110131+9999OD139900201999REMSYN08201359 26/// /3300 11228 21261 39412 40447 51013 333 11207 21243 60005 90710 91102=
0214013590999992024010800004+60533+008200FM-12+077399999V0200101N001019999999N999999999-01951-02291104441ADDAA101000091AA206000091AJ100313100310099KA1120M-01951KA2120N-02201MA1999999094221MD1210101+9999OD139900101999REMSYN09401359 06/// /0101 11195 21229 39422 40444 52010 60001 333 11195 21220 4/031 60005 90710 91101=
0174013590999992024010803004+60533+008200FM-12+077399999V0202401N001019999999N999999999-01951-02231104531ADDAA101000091KA1240M-01771KA2240N-02051MA1999999094301MD1210081+9999OD139900201999REMSYN08201359 26/// /2401 11195 21223 39430 40453 52008 333 11177 21205 60005 90710 91102=
0335013590999992024010806004+60533+008200FM-12+077399999V0201901N001019999999N070001199-01741-02061104491ADDAA101000091AA212000091AA324000091AJ100313100310099AY101021AY201021GA1001+999999999GE19AGL   +99999+99999GF199999001999999999999999IA1289KA1240M-01631KA2240N-02431MA1999999094341MD1310051+9999MW1021OD139900201999REMSYN11201359 01989 01901 11174 21206 39434 40449 53005 60002 70200 80000 333 11163 21243 48031 60005 70000 90710 91102=
0174013590999992024010809004+60533+008200FM-12+077399999V0203301N001019999999N999999999-01461-01621104431ADDAA101000091KA1240M-01441KA2240N-01651MA1999999094391MD1310051+9999OD139900301999REMSYN08201359 26/// /3301 11146 21162 39439 40443 53005 333 11144 21165 60005 90710 91103=
0318013590999992024010812004+60533+008200FM-12+077399999V0202101N002019999999N070001199-01291-01481104361ADDAA101000091AA206000091AJ100313100310099AY101021AY201021GA1001+999999999GE19AGL   +99999+99999GF199999001999999999999999IA1289KA1240M-01161KA2240N-01541MA1999999094391MD1990001+9999MW1021OD139900301999REMSYN10601359 01989 02102 11129 21148 39439 40436 50000 60001 70200 80000 333 11116 21154 48031 60005 90710 91103=
0174013590999992024010815004+60533+008200FM-12+077399999V0202401N002019999999N999999999-00951-01311104221ADDAA101000091KA1240M-00871KA2240N-00991MA1999999094391MD1510011+9999OD139900401999REMSYN08201359 26/// /2402 11095 21131 39439 40422 55001 333 11087 21099 60005 90710 91104=
0343013590999992024010818004+60533+008200FM-12+077399999V0202501N001012200019N070001199-01201-01421104301ADDAA101000091AA212000091AJ100313100310099AY101021AY201021GA1999+999999021GE19AGL   +99999+99999GF101991001999999999999999IA1289KA1120M-00871KA2120N-01821MA1999999094371MD1710021+9999MW1021OD139900301999REMSYN11201359 01989 12501 11120 21142 39437 40430 57002 60002 70200 80008 91800 333 11087 21182 48031 60005 90710 91103=EQDQ01    003SCCGA1
0174013590999992024010821004+60533+008200FM-12+077399999V0200901N001019999999N999999999-01371-01471104331ADDAA101000091KA1240M-01261KA2240N-01481MA1999999094341MD1710031+9999OD139900201999REMSYN08201359 26/// /0901 11137 21147 39434 40433 57003 333 11126 21148 60005 90710 91102=
0214013590999992024010900004+60533+008200FM-12+077399999V0202201N001019999999N999999999-00831-01141104071ADDAA101000091AA206000091AJ100313100310099KA1120M-00831KA2120N-01321MA1999999094291MD1810041+9999OD139900301999REMSYN09401359 06/// /2201 11083 21114 39429 40407 58004 60001 333 11083 21132 4/031 60005 90710 91103=
0180013590999992024010903004+60533+008200FM-12+077399999V0201101N001019999999N999999999-00691-01051103941ADDAA101000091KA1240M-00561KA2240N-00731MA1999999094231MD1810061+9999OD139900201999REMSYN08801359 26/// /1101 11069 21105 39423 40394 58006 90300 333 11056 21073 60005 90710 91102=
0341013590999992024010906004+60533+008200FM-12+077399999V0202901N001019999999N030000199-00591-00981103801ADDAA101000091AA212000091AA324000091AJ100303100300099AY121021AY201021GA1051+008001061GE19AGL   +99999+99999GF105991051999008001999999IA1289KA1240M-00391KA2240N-01531MA1999999094141MD1510091+9999MW1021OD139900201999REMSYN11801359 01580 52901 11059 21098 39414 40380 55009 60002 70220 85500 90600 333 11039 21153 48030 60005 70000 90710 91102=
0180013590999992024010909004+60533+008200FM-12+077399999V0200601N001019999999N999999999-00681-01161103911ADDAA101000091KA1240M-00581KA2240N-00911MA1999999094201MD1310041+9999OD139900501999REMSYN08801359 26/// /0601 11068 21116 39420 40391 53004 90900 333 11058 21091 60005 90710 91105=
0340013590999992024010912004+60533+008200FM-12+077399999V0202401N001019999999N060000199-00751-01071103931ADDAA101000091AA206000091AJ100303100300099AY121021AY221021GA1041+012501061GA2999+999999031GE19AGL   +99999+99999GF105991041999012501999999IA1289KA1240M-00681KA2240N-00891MA1999999094201MD1990011+9999MW1021OD139900201999REMSYN11201359 01686 52401 11075 21107 39420 40393 50001 60001 70222 84530 91200 333 11068 21089 48030 60005 90710 91102=
0180013590999992024010915004+60533+008200FM-12+077399999V0201501N001019999999N999999999-00951-01171104041ADDAA101000091KA1240M-00621KA2240N-00951MA1999999094231MD1310031+9999OD139900201999REMSYN08801359 26/// /1501 11095 21117 39423 40404 53003 91500 333 11062 21095 60005 90710 91102=
0324013590999992024010918004+60533+008200FM-12+077399999V0200401N001019999999N070001199-00871-01211104071ADDAA101000091AA212000091AJ100303100300099AY121021AY201021GA1001+999999999GE19AGL   +99999+99999GF199999001999999999999999IA1289KA1120M-00481KA2120N-01311MA1999999094281MD1210051+9999MW1021OD139900301999REMSYN11201359 01989 00401 11087 21121 39428 40407 52005 60002 70220 80000 91800 333 11048 21131 48030 60005 90710 91103=
0180013590999992024010921004+60533+008200FM-12+077399999V0201801N001019999999N999999999-00861-01251104081ADDAA101000091KA1240M-00861KA2240N-00991MA1999999094301MD1990011+9999OD139900201999REMSYN08801359 26/// /1801 11086 21125 39430 40408 50001 92100 333 11086 21099 60005 90710 91102=
0220013590999992024011000004+60533+008200FM-12+077399999V0202001N001019999999N999999999-00871-01181104051ADDAA101000091AA206000091AJ100303100300099KA1120M-00701KA2120N-00931MA1999999094261MD1710031+9999OD139900301999REMSYN10001359 06/// /2001 11087 21118 39426 40405 57003 60001 90000 333 11070 21093 4/030 60005 90710 91103=
0174013590999992024011003004+60533+008200FM-12+077399999V0201601N001019999999N999999999-00801-01131103931ADDAA101000091KA1240M-00681KA2240N-00881MA1999999094171MD1610091+9999OD139900301999REMSYN08201359 26/// /1601 11080 21113 39417 40393 56009 333 11068 21088 60005 90710 91103=
0335013590999992024011006004+60533+008200FM-12+077399999V0209999C000059999999N070001199-00691-01171103731ADDAA101000091AA212000091AA324000091AJ100303100300099AY101021AY201021GA1001+999999999GE19AGL   +99999+99999GF199999001999999999999999IA1289KA1240M-00561KA2240N-01231MA1999999094041MD1710141+9999MW1021OD139900201999REMSYN11201359 01989 02100 11069 21117 39404 40373 57014 60002 70200 80000 333 11056 21123 48030 60005 70000 90710 91102=
0174013590999992024011009004+60533+008200FM-12+077399999V0201801N001019999999N999999999-00631-01131103631ADDAA101000091KA1240M-00621KA2240N-00751MA1999999093971MD1610061+9999OD139900201999REMSYN08201359 26/// /1801 11063 21113 39397 40363 56006 333 11062 21075 60005 90710 91102=
0337013590999992024011012004+60533+008200FM-12+077399999V0201201N001012200019N070001199-00471-01091103451ADDAA101000091AA206000091AJ100283100280099AY101021AY201021GA1999+999999001GE19AGL   +99999+99999GF102991001999999999999999IA1289KA1240M-00301KA2240N-00671MA1999999093871MD1510101+9999MW1031OD139900301999REMSYN10601359 01989 21201 11047 21109 39387 40345 55010 60001 70300 80001 333 11030 21067 48028 60005 90710 91103=EQDQ01    003SCCGA1
0174013590999992024011015004+60533+008200FM-12+077399999V0202501N001019999999N999999999-00451-01151103391ADDAA101000091KA1240M-00171KA2240N-00651MA1999999093811MD1610051+9999OD139900301999REMSYN08201359 26/// /2501 11045 21115 39381 40339 56005 333 11017 21065 60005 90710 91103=
0337013590999992024011018004+60533+008200FM-12+077399999V0203301N006019999999N045000199+00551-01031103081ADDAA101000091AA212000091AJ100283100280099AY121021AY201021GA1999+999999021GE19AGL   +99999+99999GF108991001999999999999999IA1289KA1120M+00551KA2120N-00831MA1999999093871MD1210051+9999MW1021OD139901101999REMSYN10601359 01983 83306 10055 21103 39387 40308 52005 60002 70220 80007 333 10055 21083 48028 60005 90710 91111=EQDQ01    003SCCGA1
0174013590999992024011021004+60533+008200FM-12+077399999V0202501N002019999999N999999999+00411-00941103151ADDAA101000091KA1240M+00621KA2240N+00411MA1999999093881MD1310011+9999OD139900601999REMSYN08201359 26/// /2502 10041 21094 39388 40315 53001 333 10062 20041 60005 90710 91106=
0214013590999992024011100004+60533+008200FM-12+077399999V0203101N005019999999N999999999+00461-01171103121ADDAA101000091AA206000091AJ100283100280099KA1120M+00501KA2120N+00421MA1999999093881MD1990011+9999OD139901101999REMSYN09401359 06/// /3105 10046 21117 39388 40312 50001 60001 333 10050 20042 4/028 60005 90710 91111=
0174013590999992024011103004+60533+008200FM-12+077399999V0203201N005019999999N999999999+00211-01091103241ADDAA101000091KA1240M+00321KA2240N+00141MA1999999093901MD1310021+9999OD139901001999REMSYN08201359 26/// /3205 10021 21109 39390 40324 53002 333 10032 20014 60005 90710 91110=
0354013590999992024011106004+60533+008200FM-12+077399999V0203201N006019999999N040000199+00091-00881103291ADDAA101000091AA212000091AA324000091AJ100263100260099AY121021AY221021GA1999+999999021GE19AGL   +99999+99999GF108991001999999999999999IA1289KA1240M+00621KA2240N-00011MA1999999093911MD1990011+9999MW1021OD139901101999REMSYN11201359 01982 83206 10009 21088 39391 40329 50001 60002 70222 80007 333 10062 21001 48026 60005 70000 90710 91111=EQDQ01    003SCCGA1
0180013590999992024011109004+60533+008200FM-12+077399999V0200201N002019999999N999999999-00031-00761103391ADDAA101000091KA1240M+00041KA2240N-00061MA1999999093961MD1310061+9999OD139901101999REMSYN08801359 26/// /0202 11003 21076 39396 40339 53006 90900 333 10004 21006 60005 90710 91111=
0343013590999992024011112004+60533+008200FM-12+077399999V0203301N008019999999N050000199+00051-00721103391ADDAA101000091AA206000091AJ100223100220099AY121021AY221021GA1999+999999001GE19AGL   +99999+99999GF105991001999999999999999IA1289KA1240M+00111KA2240N+00041MA1999999093991MD1990041+9999MW1021OD139901501999REMSYN11201359 01984 53308 10005 21072 39399 40339 50004 60001 70222 80002 91200 333 10011 20004 48022 60005 90710 91115=EQDQ01    003SCCGA1
0174013590999992024011115004+60533+008200FM-12+077399999V0203301N008019999999N999999999+00001-00661103311ADDAA101000091KA1240M+00081KA2240N-00011MA1999999093901MD1610061+9999OD139901401999REMSYN08201359 26/// /3308 10000 21066 39390 40331 56006 333 10008 21001 60005 90710 91114=
0318013590999992024011118004+60533+008200FM-12+077399999V0202301N003019999999N070001199-00131-00891103311ADDAA101000091AA212000091AJ100163100160099AY121021AY201021GA1001+999999999GE19AGL   +99999+99999GF199999001999999999999999IA1289KA1120M+00121KA2120N-00141MA1999999093851MD1810051+9999MW1011OD139901201999REMSYN10601359 01989 02303 11013 21089 39385 40331 58005 60002 70120 80000 333 10012 21014 48016 60005 90710 91112=
0209013590999992024011121004+60533+008200FM-12+077399999V0203201N001019999999N999999999-00571-01001103471ADDAA101000091KA1240M-00451KA2240N-00621MA1999999093841MD1290169+9999OD139900301999REMSYN08201359 26/// /3201 11057 21100 39384 40347 54001 333 11045 21062 60005 90710 91103=EQDQ01.1    3APC3  Q024     3APCTEN
0214013590999992024011200004+60533+008200FM-12+077399999V0202501N003019999999N999999999-00171-00861103181ADDAA101000091AA206000091AJ100163100160099KA1120M-00141KA2120N-00181MA1999999093721MD1810121+9999OD139901201999REMSYN09401359 06/// /2503 11017 21086 39372 40318 58012 60001 333 11014 21018 4/016 60005 90710 91112=
0174013590999992024011203004+60533+008200FM-12+077399999V0202801N001019999999N999999999-00561-00961103081ADDAA101000091KA1240M-00451KA2240N-00791MA1999999093491MD1810211+9999OD139900501999REMSYN08201359 26/// /2801 11056 21096 39349 40308 58021 333 11045 21079 60005 90710 91105=
0354013590999992024011206004+60533+008200FM-12+077399999V0203001N004012200019N060000199+00091-00811102701ADDAA101000091AA212000091AA324000091AJ100163100160099AY111021AY201021GA1999+999999021GE19AGL   +99999+99999GF104991001999999999999999IA1289KA1240M+00121KA2240N-00891MA1999999093371MD1610131+9999MW1021OD139901401999REMSYN11201359 01986 43004 10009 21081 39337 40270 56013 60002 70210 80008 333 10012 21089 48016 60005 70000 90710 91114=EQDQ01    003SCCGA1
0174013590999992024011209004+60533+008200FM-12+077399999V0200701N001019999999N999999999-00181-00751102791ADDAA101000091KA1240M+00021KA2240N-00181MA1999999093361MD1990001+9999OD139900901999REMSYN08201359 26/// /0701 11018 21075 39336 40279 50000 333 10002 21018 60005 90710 91109=
0318013590999992024011212004+60533+008200FM-12+077399999V0202201N005019999999N045000199+00051-00731102521ADDAA101000091AA206000091AJ100163100160099AY121021AY211021GA1081+999999031GE19AGL   +99999+99999GF108991081999999999999999IA1289KA1240M+00091KA2240N+00001MA1999999093191MD1810181+9999MW1021OD139901001999REMSYN10601359 01983 82205 10005 21073 39319 40252 58018 60001 70221 8807/ 333 10009 20000 48016 60005 90710 91110=
0174013590999992024011215004+60533+008200FM-12+077399999V0202801N003019999999N999999999+00051-00811102271ADDAA101000091KA1240M+00051KA2240N-00011MA1999999092971MD1710221+9999OD139900601999REMSYN08201359 26/// /2803 10005 21081 39297 40227 57022 333 10005 21001 60005 90710 91106=
0343013590999992024011218004+60533+008200FM-12+077399999V0202501N004019999999N050000199-00171-00711102031ADDAA101000091AA212000091AJ100163100160099AY121021AY221021GA1999+999999001GE19AGL   +99999+99999GF105991001999999999999999IA1289KA1120M+00261KA2120N-00251MA1999999092681MD1810281+9999MW1021OD139900901999REMSYN11201359 01984 52504 11017 21071 39268 40203 58028 60002 70222 80002 91800 333 10026 21025 48016 60005 90710 91109=EQDQ01    003SCCGA1
0180013590999992024011221004+60533+008200FM-12+077399999V0202201N007019999999N999999999-00081-00511101581ADDAA101000091KA1240M-00031KA2240N-00201MA1999999092291MD1810381+9999OD139901301999REMSYN08801359 26/// /2207 11008 21051 39229 40158 58038 92100 333 11003 21020 60005 90710 91113=
0214013590999992024011300004+60533+008200FM-12+077399999V0202201N005019999999N999999999-00121-00431101051ADDAA101000091AA206000091AJ100153100150099KA1120M+00001KA2120N-00141MA1999999091811MD1810481+9999OD139901001999REMSYN09401359 06/// /2205 11012 21043 39181 40105 58048 60001 333 10000 21014 4/015 60005 90710 91110=
0180013590999992024011303004+60533+008200FM-12+077399999V0202201N002019999999N999999999-00151-00311100521ADDAA101000231KA1240M-00141KA2240N-00221MA1999999091311MD1610491+9999OD139900701999REMSYN08801359 26/// /2202 11015 21031 39131 40052 56049 90300 333 11014 21022 69925 90710 91107=
0351013590999992024011306004+60533+008200FM-12+077399999V0202801N002019999999N035000199-00051-00441100011ADDAA101000091AA212000231AA324000231AJ100153100150099AY181021AY221021GA1031+012501061GA2999+999999001GE19AGL   +99999+99999GF105991031999012501999999IA1289KA1240M+00061KA2240N-00251MA1999999090881MD1610431+9999MW1021OD139900801999REMSYN11201359 01681 52802 11005 21044 39088 40001 56043 69922 70282 83502 333 10006 21025 48015 60005 70002 90710 91108=
0174013590999992024011309004+60533+008200FM-12+077399999V0202501N003019999999N999999999+00101-00481100041ADDAA101000091KA1240M+00131KA2240N+00061MA1999999090961MD1310081+9999OD139900701999REMSYN08201359 26/// /2503 10010 21048 39096 40004 53008 333 10013 20006 60005 90710 91107=
0334013590999992024011312004+60533+008200FM-12+077399999V0202801N003019999999N055000199-00011-00571100061ADDAA101000091AA206000091AJ100153100150099AY121021AY221021GA1011+012501081GA2999+999999031GE19AGL   +99999+99999GF107991011999012501999999IA1289KA1240M+00111KA2240N-00011MA1999999090931MD1810031+9999MW1021OD139900801999REMSYN10601359 01685 72803 11001 21057 39093 40006 58003 60001 70222 81270 333 10011 21001 48015 60005 90710 91108=
0174013590999992024011315004+60533+008200FM-12+077399999V0203001N002019999999N999999999-00031-00651100011ADDAA101000091KA1240M+00001KA2240N-00061MA1999999090881MD1710051+9999OD139900901999REMSYN08201359 26/// /3002 11003 21065 39088 40001 57005 333 10000 21006 60005 90710 91109=
0318013590999992024011318004+60533+008200FM-12+077399999V0203101N008012200019N045000199-00081-00671100001ADDAA101000091AA212000091AJ100153100150099AY121021AY201021GA1031+012501081GE19AGL   +99999+99999GF103991031999012501999999IA1289KA1120M+00181KA2120N-00131MA1999999090861MD1710031+9999MW1021OD139901401999REMSYN10601359 01683 33108 11008 21067 39086 40000 57003 60002 70220 83800 333 10018 21013 48015 60005 90710 91114=
0180013590999992024011321004+60533+008200FM-12+077399999V0202501N004019999999N999999999-00081-00751100071ADDAA101000091KA1240M-00071KA2240N-00171MA1999999090931MD1310081+9999OD139900901999REMSYN08801359 26/// /2504 11008 21075 39093 40007 53008 92100 333 11007 21017 60005 90710 91109=
0220013590999992024011400004+60533+008200FM-12+077399999V0203501N001019999999N999999999-00441-00881100151ADDAA101000091AA206000091AJ100143100140099KA1120M-00301KA2120N-00501MA1999999090881MD1810051+9999OD139900401999REMSYN10001359 06/// /3501 11044 21088 39088 40015 58005 60001 90000 333 11030 21050 4/014 60005 90710 91104=
0174013590999992024011403004+60533+008200FM-12+077399999V0202301N005019999999N999999999-00201-00641099841ADDAA101000091KA1240M-00041KA2240N-00201MA1999999090671MD1610191+9999OD139901101999REMSYN08201359 26/// /2305 11020 21064 39067 49984 56019 333 11004 21020 60005 90710 91111=
0335013590999992024011406004+60533+008200FM-12+077399999V0202301N004019999999N040000199-00241-00631099581ADDAA101000091AA212000091AA324000091AJ100143100140099AY121021AY201021GA1081+999999031GE19AGL   +99999+99999GF108991081999999999999999IA1289KA1240M+00021KA2240N-00691MA1999999090421MD1810241+9999MW1021OD139900801999REMSYN11201359 01982 82304 11024 21063 39042 49958 58024 60002 70220 8807/ 333 10002 21069 48014 60005 70000 90710 91108=
0180013590999992024011409004+60533+008200FM-12+077399999V0202101N003019999999N999999999-00281-00591099281ADDAA101000091KA1240M-00161KA2240N-00281MA1999999090141MD1710281+9999OD139900801999REMSYN08801359 26/// /2103 11028 21059 39014 49928 57028 90900 333 11016 21028 60005 90710 91108=
0324013590999992024011412004+60533+008200FM-12+077399999V0201901N002019999999N045000199-00291-00941099011ADDAA101000091AA206000091AJ100143100140099AY121021AY221021GA1061+012501061GE19AGL   +99999+99999GF106991061999012501999999IA1289KA1240M-00151KA2240N-00331MA1999999089891MD1710251+9999MW1021OD139901001999REMSYN11201359 01683 61902 11029 21094 38989 49901 57025 60001 70222 86500 91200 333 11015 21033 48014 60005 90710 91110=
0174013590999992024011415004+60533+008200FM-12+077399999V0203101N005019999999N999999999-00531-01091098901ADDAA101000091KA1240M-00491KA2240N-00571MA1999999089711MD1610171+9999OD139901101999REMSYN08201359 26/// /3105 11053 21109 38971 49890 56017 333 11049 21057 60005 90710 91111=
0318013590999992024011418004+60533+008200FM-12+077399999V0200101N004019999999N020000199-00421-01011098911ADDAA101000091AA212000331AJ100143100140099AY171021AY221021GA1081+004501051GE19AGL   +99999+99999GF108991081999004501999999IA1289KA1120M-00151KA2120N-00591MA1999999089761MD1310041+9999MW1021OD139901001999REMSYN10601359 01470 80104 11042 21101 38976 49891 53004 69932 70272 8802/ 333 11015 21059 48014 60005 90710 91110=
0180013590999992024011421004+60533+008200FM-12+077399999V0200201N005019999999N999999999-00481-01611099031ADDAA101000091KA1240M-00431KA2240N-00481MA1999999089841MD1310091+9999OD139901001999REMSYN08801359 26/// /0205 11048 21161 38984 49903 53009 92100 333 11043 21048 60005 90710 91110=
0220013590999992024011500004+60533+008200FM-12+077399999V0200801N001019999999N999999999-00841-01561099201ADDAA101000091AA206000091AJ100143100140099KA1120M-00721KA2120N-00911MA1999999089881MD1990041+9999OD139900501999REMSYN10001359 06/// /0801 11084 21156 38988 49920 50004 60001 90000 333 11072 21091 4/014 60005 90710 91105=
0174013590999992024011503004+60533+008200FM-12+077399999V0201801N001019999999N999999999-01001-01501099281ADDAA101000091KA1240M-01001KA2240N-01071MA1999999089901MD1210011+9999OD139900201999REMSYN08201359 26/// /1801 11100 21150 38990 49928 52001 333 11100 21107 60005 90710 91102=
0335013590999992024011506004+60533+008200FM-12+077399999V0209999C000059999999N070001199-01311-01441099421ADDAA101000091AA212000831AA324001131AJ100153100150099AY171021AY221021GA1001+999999999GE19AGL   +99999+99999GF199999001999999999999999IA1289KA1240M-00381KA2240N-01311MA1999999089921MD1990021+9999MW1011OD139900301999REMSYN11201359 01989 01800 11131 21144 38992 49942 50002 69982 70172 80000 333 11038 21131 48015 60005 70011 90710 91103=
0174013590999992024011509004+60533+008200FM-12+077399999V0203201N004019999999N999999999-00801-01531099411ADDAA101000091KA1240M-00801KA2240N-01651MA1999999090081MD1990161+9999OD139900801999REMSYN08201359 26/// /3204 11080 21153 39008 49941 50016 333 11080 21165 60005 90710 91108=
0337013590999992024011512004+60533+008200FM-12+077399999V0202201N002019999999N060000199-01121-01781099601ADDAA101000091AA206000091AJ100153100150099AY121021AY201021GA1999+999999001GE19AGL   +99999+99999GF105991001999999999999999IA1289KA1240M-00831KA2240N-01121MA1999999090151MD1310061+9999MW1031OD139900601999REMSYN10601359 01986 52202 11112 21178 39015 49960 53006 60001 70320 80002 333 11083 21112 48015 60005 90710 91106=EQDQ01    003SCCGA1
0174013590999992024011515004+60533+008200FM-12+077399999V0202501N001019999999N999999999-01461-01941099831ADDAA101000091KA1240M-01171KA2240N-01471MA1999999090231MD1310081+9999OD139900301999REMSYN08201359 26/// /2501 11146 21194 39023 49983 53008 333 11117 21147 60005 90710 91103=
0318013590999992024011518004+60533+008200FM-12+077399999V0202501N001019999999N070001199-01981-02321100151ADDAA101000091AA212000091AJ100153100150099AY121021AY201021GA1001+999999999GE19AGL   +99999+99999GF199999001999999999999999IA1289KA1120M-00771KA2120N-02001MA1999999090331MD1210101+9999MW1011OD139900201999REMSYN10601359 01989 02501 11198 21232 39033 40015 52010 60002 70120 80000 333 11077 21200 48015 60005 90710 91102=
0180013590999992024011521004+60533+008200FM-12+077399999V0200601N001019999999N999999999-02331-02511100491ADDAA101000091KA1240M-02111KA2240N-02381MA1999999090511MD1110181+9999OD139900201999REMSYN08801359 26/// /0601 11233 21251 39051 40049 51018 92100 333 11211 21238 60005 90710 91102=
0220013590999992024011600004+60533+008200FM-12+077399999V0202601N001019999999N999999999-02571-02761100671ADDAA101000091AA206000091AJ100163100160099KA1120M-02421KA2120N-02741MA1999999090591MD1990081+9999OD139900201999REMSYN10001359 06/// /2601 11257 21276 39059 40067 50008 60001 90000 333 11242 21274 4/016 60005 90710 91102=
0174013590999992024011603004+60533+008200FM-12+077399999V0202201N002019999999N999999999-02171-02501100481ADDAA101000091KA1240M-01981KA2240N-02201MA1999999090561MD1710031+9999OD139900301999REMSYN08201359 26/// /2202 11217 21250 39056 40048 57003 333 11198 21220 60005 90710 91103=
0354013590999992024011606004+60533+008200FM-12+077399999V0209999C000052200019N070001199-02221-02571100391ADDAA101000091AA212000091AA324000091AJ100153100150099AY101021AY201021GA1999+999999021GE19AGL   +99999+99999GF102991001999999999999999IA1289KA1240M-01721KA2240N-02741MA1999999090461MD1810101+9999MW1031OD139900201999REMSYN11201359 01989 20700 11222 21257 39046 40039 58010 60002 70300 80005 333 11172 21274 48015 60005 70000 90710 91102=EQDQ01    003SCCGA1
0174013590999992024011609004+60533+008200FM-12+077399999V0202301N002019999999N999999999-01571-02111100001ADDAA101000091KA1240M-01571KA2240N-01981MA1999999090351MD1710101+9999OD139900401999REMSYN08201359 26/// /2302 11157 21211 39035 40000 57010 333 11157 21198 60005 90710 91104=
0318013590999992024011612004+60533+008200FM-12+077399999V0202601N001019999999N030000199-01171-01861099711ADDAA101000091AA206000091AJ100153100150099AY121021AY201021GA1081+999999041GE19AGL   +99999+99999GF108991081999999999999999IA1289KA1240M-01171KA2240N-01301MA1999999090231MD1710121+9999MW1021OD139900501999REMSYN10601359 01980 82601 11117 21186 39023 49971 57012 60001 70220 8801/ 333 11117 21130 48015 60005 90710 91105=
0174013590999992024011615004+60533+008200FM-12+077399999V0202501N001019999999N999999999-01061-01401099391ADDAA101000091KA1240M-01051KA2240N-01091MA1999999089981MD1710251+9999OD139900301999REMSYN08201359 26/// /2501 11106 21140 38998 49939 57025 333 11105 21109 60005 90710 91103=
0318013590999992024011618004+60533+008200FM-12+077399999V0200601N001019999999N003500199-01611-01811099421ADDAA101000831AA212000931AJ100173100170099AY171021AY221021GA1081+004501051GE19AGL   +99999+99999GF108991081999004501999999IA1289KA1120M-01031KA2120N-02271MA1999999089811MD1810161+9999MW1711OD139900201999REMSYN10601359 01435 80601 11161 21181 38981 49942 58016 69992 77172 8802/ 333 11103 21227 48017 69985 90710 91102=
0174013590999992024011621004+60533+008200FM-12+077399999V0200101N002019999999N999999999-01721-01861099281ADDAA101000091KA1240M-01611KA2240N-01801MA1999999089641MD1710171+9999OD139900201999REMSYN08201359 26/// /0102 11172 21186 38964 49928 57017 333 11161 21180 60005 90710 91102=
0220013590999992024011700004+60533+008200FM-12+077399999V0209999C000059999999N999999999-02071-02321099251ADDAA101000091AA206000831AJ100183100180099KA1120M-01911KA2120N-02191MA1999999089491MD1810151+9999OD139900201999REMSYN10001359 06/// /0500 11207 21232 38949 49925 58015 69981 90000 333 11191 21219 4/018 60005 90710 91102=
0174013590999992024011703004+60533+008200FM-12+077399999V0202301N001019999999N999999999-02251-02481099171ADDAA101000091KA1240M-02011KA2240N-02341MA1999999089351MD1710141+9999OD139900201999REMSYN08201359 26/// /2301 11225 21248 38935 49917 57014 333 11201 21234 60005 90710 91102=
0335013590999992024011706004+60533+008200FM-12+077399999V0209999C000059999999N020000199-01991-02211098851ADDAA101000091AA212000831AA324001731AJ100183100180099AY171021AY221021GA1081+004501051GE19AGL   +99999+99999GF108991081999004501999999IA1289KA1240M-01561KA2240N-02341MA1999999089161MD1710191+9999MW1021OD139900101999REMSYN11201359 01470 82300 11199 21221 38916 49885 57019 69982 70272 8802/ 333 11156 21234 48018 60005 70017 90710 91101=
0174013590999992024011709004+60533+008200FM-12+077399999V0200401N001019999999N999999999-01791-01981098571ADDAA101000091KA1240M-01791KA2240N-01881MA1999999088981MD1710181+9999OD139900201999REMSYN08201359 26/// /0401 11179 21198 38898 49857 57018 333 11179 21188 60005 90710 91102=
0318013590999992024011712004+60533+008200FM-12+077399999V0201501N001019999999N040000199-01581-01781098361ADDAA101000091AA206000091AJ100183100180099AY121021AY221021GA1081+999999041GE19AGL   +99999+99999GF108991081999999999999999IA1289KA1240M-01551KA2240N-01661MA1999999088861MD1810121+9999MW1021OD139900401999REMSYN10601359 01982 81501 11158 21178 38886 49836 58012 60001 70222 8801/ 333 11155 21166 48018 60005 90710 91104=
0174013590999992024011715004+60533+008200FM-12+077399999V0203201N006019999999N999999999-00941-01581098141ADDAA101000091KA1240M-00791KA2240N-00971MA1999999088891MD1310031+9999OD139901101999REMSYN08201359 26/// /3206 11094 21158 38889 49814 53003 333 11079 21097 60005 90710 91111=
0337013590999992024011718004+60533+008200FM-12+077399999V0203201N005019999999N035000199-00851-01451098211ADDAA101000091AA212000091AJ100143100140099AY121021AY221021GA1999+999999001GE19AGL   +99999+99999GF105991001999999999999999IA1289KA1120M-00791KA2120N-02021MA1999999088981MD1310091+9999MW1021OD139901001999REMSYN10601359 01981 53205 11085 21145 38898 49821 53009 60002 70222 80002 333 11079 21202 48014 60005 90710 91110=EQDQ01    003SCCGA1
0174013590999992024011721004+60533+008200FM-12+077399999V0202901N004019999999N999999999-00951-01771098471ADDAA101000091KA1240M-00881KA2240N-00951MA1999999089191MD1210201+9999OD139901101999REMSYN08201359 26/// /2904 11095 21177 38919 49847 52020 333 11088 21095 60005 90710 91111=
0220013590999992024011800004+60533+008200FM-12+077399999V0203201N004019999999N999999999-01011-01781098751ADDAA101000091AA206000091AJ100143100140099KA1120M-00961KA2120N-01031MA1999999089411MD1110231+9999OD139901001999REMSYN10001359 06/// /3204 11101 21178 38941 49875 51023 60001 90000 333 11096 21103 4/014 60005 90710 91110=
0174013590999992024011803004+60533+008200FM-12+077399999V0202601N003019999999N999999999-01131-01731098921ADDAA101000091KA1240M-01121KA2240N-01201MA1999999089521MD1310111+9999OD139900601999REMSYN08201359 26/// /2603 11113 21173 38952 49892 53011 333 11112 21120 60005 90710 91106=
0335013590999992024011806004+60533+008200FM-12+077399999V0202201N003019999999N070001199-01021-01561098891ADDAA101000091AA212000091AA324000091AJ100143100140099AY121021AY201021GA1001+999999999GE19AGL   +99999+99999GF199999001999999999999999IA1289KA1240M-00731KA2240N-01201MA1999999089541MD1510001+9999MW1021OD139900701999REMSYN11201359 01989 02203 11102 21156 38954 49889 55000 60002 70220 80000 333 11073 21120 48014 60005 70000 90710 91107=
0174013590999992024011809004+60533+008200FM-12+077399999V0202901N003019999999N999999999-00651-01431098801ADDAA101000091KA1240M-00641KA2240N-01111MA1999999089581MD1990041+9999OD139900801999REMSYN08201359 26/// /2903 11065 21143 38958 49880 50004 333 11064 21111 60005 90710 91108=
0334013590999992024011812004+60533+008200FM-12+077399999V0202401N005019999999N035000199-00621-01311098851ADDAA101000091AA206000091AJ100143100140099AY121021AY201021GA1041+999999031GA2999+999999021GE19AGL   +99999+99999GF108991041999999999999999IA1289KA1240M-00601KA2240N-00691MA1999999089641MD1210061+9999MW1031OD139901001999REMSYN10601359 01981 82405 11062 21131 38964 49885 52006 60001 70320 84057 333 11060 21069 48014 60005 90710 91110=
0174013590999992024011815004+60533+008200FM-12+077399999V0202401N003019999999N999999999-00871-01331099031ADDAA101000091KA1240M-00731KA2240N-00881MA1999999089711MD1210071+9999OD139901001999REMSYN08201359 26/// /2403 11087 21133 38971 49903 52007 333 11073 21088 60005 90710 91110=
0318013590999992024011818004+60533+008200FM-12+077399999V0202101N003012200019N070001199-00891-01411099101ADDAA101000091AA212000091AJ100143100140099AY121021AY201021GA1021+012501061GE19AGL   +99999+99999GF102991021999012501999999IA1289KA1120M-00551KA2120N-01131MA1999999089771MD1990051+9999MW1021OD139900701999REMSYN10601359 01689 22103 11089 21141 38977 49910 50005 60002 70220 82500 333 11055 21113 48014 60005 90710 91107=
0174013590999992024011821004+60533+008200FM-12+077399999V0202601N002019999999N999999999-01041-01301099261ADDAA101000131KA1240M-00931KA2240N-01041MA1999999089861MD1210091+9999OD139900501999REMSYN08201359 26/// /2602 11104 21130 38986 49926 52009 333 11093 21104 69915 90710 91105=
0214013590999992024011900004+60533+008200FM-12+077399999V0201401N002019999999N999999999-00831-01421099321ADDAA101000091AA206000131AJ100143100140099KA1120M-00821KA2120N-01141MA1999999089991MD1210121+9999OD139900601999REMSYN09401359 06/// /1402 11083 21142 38999 49932 52012 69911 333 11082 21114 4/014 60005 90710 91106=
0174013590999992024011903004+60533+008200FM-12+077399999V0202401N005019999999N999999999-00741-01091099331ADDAA101000091KA1240M-00731KA2240N-01011MA1999999090031MD1210041+9999OD139901001999REMSYN08201359 26/// /2405 11074 21109 39003 49933 52004 333 11073 21101 60005 90710 91110=
0335013590999992024011906004+60533+008200FM-12+077399999V0202401N004019999999N004200199-00701-01031099381ADDAA101000091AA212000331AA324000331AJ100143100140099AY171021AY201021GA1081+004501051GE19AGL   +99999+99999GF108991081999004501999999IA1289KA1240M-00701KA2240N-01141MA1999999090091MD1990061+9999MW1701OD139900901999REMSYN11201359 01442 82404 11070 21103 39009 49938 50006 69932 77070 8802/ 333 11070 21114 48014 60005 70003 90710 91109=
0174013590999992024011909004+60533+008200FM-12+077399999V0202401N003019999999N999999999-00641-01011099471ADDAA101000091KA1240M-00631KA2240N-00701MA1999999090191MD1210101+9999OD139900601999REMSYN08201359 26/// /2403 11064 21101 39019 49947 52010 333 11063 21070 60005 90710 91106=
0318013590999992024011912004+60533+008200FM-12+077399999V0202301N003019999999N003500199-00531-00801099601ADDAA101000091AA206000731AJ100143100140099AY171021AY221021GA1081+004501051GE19AGL   +99999+99999GF108991081999004501999999IA1289KA1240M-00471KA2240N-00561MA1999999090351MD1310161+9999MW1701OD139901001999REMSYN10601359 01435 82303 11053 21080 39035 49960 53016 69971 77072 8802/ 333 11047 21056 48014 60005 90710 91110=
0174013590999992024011915004+60533+008200FM-12+077399999V0203401N002019999999N999999999-00551-01061099861ADDAA101000091KA1240M-00431KA2240N-00551MA1999999090581MD1310231+9999OD139900801999REMSYN08201359 26/// /3402 11055 21106 39058 49986 53023 333 11043 21055 60005 90710 91108=
0337013590999992024011918004+60533+008200FM-12+077399999V0201701N002012200019N070001199-00671-01131100091ADDAA101000091AA212000731AJ100143100140099AY171021AY221021GA1999+999999021GE19AGL   +99999+99999GF103991001999999999999999IA1289KA1120M-00411KA2120N-00731MA1999999090751MD1310171+9999MW1021OD139900601999REMSYN10601359 01989 31702 11067 21113 39075 40009 53017 69972 70272 80008 333 11041 21073 48014 60005 90710 91106=EQDQ01    003SCCGA1
0174013590999992024011921004+60533+008200FM-12+077399999V0203201N001019999999N999999999-01191-01381100501ADDAA101000091KA1240M-01041KA2240N-01251MA1999999090941MD1310191+9999OD139900201999REMSYN08201359 26/// /3201 11119 21138 39094 40050 53019 333 11104 21125 60005 90710 91102=
0220013590999992024012000004+60533+008200FM-12+077399999V0202901N001019999999N999999999-01551-01681100901ADDAA101000091AA206000091AJ100143100140099KA1120M-01421KA2120N-01651MA1999999091171MD1210231+9999OD139900201999REMSYN10001359 06/// /2901 11155 21168 39117 40090 52023 60001 90000 333 11142 21165 4/014 60005 90710 91102=
0174013590999992024012003004+60533+008200FM-12+077399999V0200801N001019999999N999999999-01651-01831101261ADDAA101000091KA1240M-01501KA2240N-01651MA1999999091461MD1210281+9999OD139900201999REMSYN08201359 26/// /0801 11165 21183 39146 40126 52028 333 11150 21165 60005 90710 91102=
0335013590999992024012006004+60533+008200FM-12+077399999V0202401N001019999999N070001199-01401-01641101421ADDAA101000091AA212000091AA324000731AJ100143100140099AY101021AY201021GA1001+999999999GE19AGL   +99999+99999GF199999001999999999999999IA1289KA1240M-00661KA2240N-01921MA1999999091691MD1110231+9999MW1021OD139900601999REMSYN11201359 01989 02401 11140 21164 39169 40142 51023 60002 70200 80000 333 11066 21192 48014 60005 70007 90710 91106=
0174013590999992024012009004+60533+008200FM-12+077399999V0202001N001019999999N999999999-01551-01751101721ADDAA101000091KA1240M-01541KA2240N-01651MA1999999091911MD1110211+9999OD139900301999REMSYN08201359 26/// /2001 11155 21175 39191 40172 51021 333 11154 21165 60005 90710 91103=
0318013590999992024012012004+60533+008200FM-12+077399999V0202301N001019999999N030000199-01141-01501101551ADDAA101000091AA206000091AJ100143100140099AY121021AY201021GA1081+999999041GE19AGL   +99999+99999GF108991081999999999999999IA1289KA1240M-01141KA2240N-01341MA1999999091911MD1990011+9999MW1031OD139900301999REMSYN10601359 01980 82301 11114 21150 39191 40155 50001 60001 70320 8801/ 333 11114 21134 48014 60005 90710 91103=
0174013590999992024012015004+60533+008200FM-12+077399999V0202501N001019999999N999999999-01031-01181101471ADDAA101001031KA1240M-01021KA2240N-01061MA1999999091871MD1810031+9999OD139900101999REMSYN08201359 26/// /2501 11103 21118 39187 40147 58003 333 11102 21106 60015 90710 91101=
0318013590999992024012018004+60533+008200FM-12+077399999V0200501N001019999999N008000199-01051-01161101431ADDAA101000331AA212003031AJ100193100190099AY171021AY221021GA1081+008001051GE19AGL   +99999+99999GF108991081999008001999999IA1289KA1120M-01021KA2120N-01651MA1999999091831MD1710041+9999MW1711OD139900201999REMSYN10601359 01558 80501 11105 21116 39183 40143 57004 60032 77172 8802/ 333 11102 21165 48019 69935 90710 91102=
0174013590999992024012021004+60533+008200FM-12+077399999V0202401N001019999999N999999999-01001-01111101371ADDAA101000091KA1240M-00941KA2240N-01041MA1999999091791MD1510041+9999OD139900401999REMSYN08201359 26/// /2401 11100 21111 39179 40137 55004 333 11094 21104 60005 90710 91104=
0220013590999992024012100004+60533+008200FM-12+077399999V0200901N001019999999N999999999-01081-01231101291ADDAA101000091AA206000531AJ100193100190099KA1120M-01051KA2120N-01081MA1999999091691MD1810101+9999OD139900301999REMSYN10001359 06/// /0901 11108 21123 39169 40129 58010 69951 90000 333 11105 21108 4/019 60005 90710 91103=
0174013590999992024012103004+60533+008200FM-12+077399999V0201701N001019999999N999999999-01071-01221101061ADDAA101000091KA1240M-01071KA2240N-01131MA1999999091481MD1810201+9999OD139900201999REMSYN08201359 26/// /1701 11107 21122 39148 40106 58020 333 11107 21113 60005 90710 91102=
0351013590999992024012106004+60533+008200FM-12+077399999V0200801N001019999999N040000199-01011-01151100701ADDAA101000091AA212000531AA324003131AJ100193100190099AY121021AY221021GA1031+012501061GA2999+999999031GE19AGL   +99999+99999GF108991031999012501999999IA1289KA1240M-00861KA2240N-01161MA1999999091181MD1710301+9999MW1021OD139900201999REMSYN11201359 01682 80801 11101 21115 39118 40070 57030 69952 70222 8357/ 333 11086 21116 48019 60005 70031 90710 91102=
0174013590999992024012109004+60533+008200FM-12+077399999V0202401N001019999999N999999999-00901-01031100261ADDAA101000131KA1240M-00901KA2240N-01001MA1999999090821MD1710371+9999OD139900401999REMSYN08201359 26/// /2401 11090 21103 39082 40026 57037 333 11090 21100 69915 90710 91104=
0318013590999992024012112004+60533+008200FM-12+077399999V0202301N004019999999N011000199-00071-00401099721ADDAA101000091AA206000331AJ100193100190099AY171021AY221021GA1081+004501051GE19AGL   +99999+99999GF108991081999004501999999IA1289KA1240M-00031KA2240N-00071MA1999999090611MD1810201+9999MW1221OD139901001999REMSYN10601359 01461 82304 11007 21040 39061 49972 58020 69931 72272 8802/ 333 11003 21007 48019 60005 90710 91110=
0174013590999992024012115004+60533+008200FM-12+077399999V0202301N004019999999N999999999-00041-00421099621ADDAA101000091KA1240M-00041KA2240N-00351MA1999999090531MD1610091+9999OD139900801999REMSYN08201359 26/// /2304 11004 21042 39053 49962 56009 333 11004 21035 60005 90710 91108=
0334013590999992024012118004+60533+008200FM-12+077399999V0200801N001012200019N070001199-00511-00741099761ADDAA101000091AA212000331AJ100193100190099AY171021AY221021GA1031+008001061GA2999+999999021GE19AGL   +99999+99999GF104991031999008001999999IA1289KA1120M-00021KA2120N-01051MA1999999090501MD1810021+9999MW1011OD139900301999REMSYN10601359 01589 40801 11051 21074 39050 49976 58002 69932 70172 83508 333 11002 21105 48019 60005 90710 91103=
0180013590999992024012121004+60533+008200FM-12+077399999V0200601N001019999999N999999999-00611-00731099541ADDAA101000091KA1240M-00471KA2240N-00611MA1999999090271MD1810231+9999OD139900601999REMSYN08801359 26/// /0601 11061 21073 39027 49954 58023 92100 333 11047 21061 60005 90710 91106=
0214013590999992024012200004+60533+008200FM-12+077399999V0202301N001019999999N999999999-00631-00711098661ADDAA101000431AA206000531AJ100203100200099KA1120M-00631KA2120N-00651MA1999999089461MD1810801+9999OD139900201999REMSYN09401359 06/// /2301 11063 21071 38946 49866 58080 69951 333 11063 21065 4/020 69945 90710 91102=
0174013590999992024012203004+60533+008200FM-12+077399999V0203001N001019999999N999999999-00401-00441097591ADDAA101001031KA1240M-00401KA2240N-00551MA1999999088571MD1610891+9999OD139900301999REMSYN08201359 26/// /3001 11040 21044 38857 49759 56089 333 11040 21055 60015 90710 91103=
0335013590999992024012206004+60533+008200FM-12+077399999V0201301N002019999999N004000199+00081-00151096821ADDAA101000091AA212004031AA324004131AJ100233100230099AY171021AY221021GA1081+004501051GE19AGL   +99999+99999GF108991081999004501999999IA1289KA1240M+00201KA2240N-00661MA1999999088021MD1610551+9999MW1711OD139901201999REMSYN11201359 01440 81302 10008 21015 38802 49682 56055 60042 77172 8802/ 333 10020 21066 48023 60005 70041 90710 91112=
0174013590999992024012209004+60533+008200FM-12+077399999V0202201N005019999999N999999999+00321-00021096381ADDAA101000091KA1240M+00361KA2240N+00281MA1999999087691MD1610311+9999OD139901101999REMSYN08201359 26/// /2205 10032 21002 38769 49638 56031 333 10036 20028 60005 90710 91111=
0318013590999992024012212004+60533+008200FM-12+077399999V0202301N012019999999N001800199+00191+00001096362ADDAA101000231AA206000231AJ100183100180099AY121021AY221021GA1081+004501051GE19AGL   +99999+99999GF108991081999004501999999IA1249KA1240M+00251KA2240N+00191MA1999999087641MD1510051+9999MW1731OD139902301999REMSYN10601359 01418 82312 10019 21000 38764 49636 55005 69921 77322 8802/ 333 10025 20019 44018 69925 90710 91123=
0174013590999992024012215004+60533+008200FM-12+077399999V0202401N009019999999N999999999+00061-00091096821ADDAA101000131KA1240M+00121KA2240N+00051MA1999999088011MD1310361+9999OD139902501999REMSYN08201359 26/// /2409 10006 21009 38801 49682 53036 333 10012 20005 69915 90710 91125=
0318013590999992024012218004+60533+008200FM-12+077399999V0202301N006019999999N003600199+00011-00191097401ADDAA101000091AA212002031AJ100183100180099AY171021AY221021GA1081+004501051GE19AGL   +99999+99999GF108991081999004501999999IA1249KA1120M+00361KA2120N+00001MA1999999088521MD1110511+9999MW1711OD139901401999REMSYN10601359 01436 82306 10001 21019 38852 49740 51051 60022 77172 8802/ 333 10036 20000 44018 60005 90710 91114=
0180013590999992024012221004+60533+008200FM-12+077399999V0202401N005019999999N999999999-00071-00131097731ADDAA101001031KA1240M-00041KA2240N-00091MA1999999088801MD1110271+9999OD139901601999REMSYN08801359 26/// /2405 11007 21013 38880 49773 51027 92100 333 11004 21009 60015 90710 91116=
0214013590999992024012300004+60533+008200FM-12+077399999V0202301N007019999999N999999999+00001-00081097871ADDAA101000231AA206004031AJ100243100240099KA1120M+00011KA2120N-00061MA1999999088951MD1310151+9999OD139901501999REMSYN09401359 06/// /2307 10000 21008 38895 49787 53015 60041 333 10001 21006 4/024 69925 90710 91115=
0174013590999992024012303004+60533+008200FM-12+077399999V0202401N009019999999N999999999+00021-00211098161ADDAA101000091KA1240M+00031KA2240N+00011MA1999999089231MD1110271+9999OD139901801999REMSYN08201359 26/// /2409 10002 21021 38923 49816 51027 333 10003 20001 60005 90710 91118=
0104013590999992024012304004+60530+008195FM-12+077299999V0202421N0067199999999999999999+00051-00291098461ADDAA199999999KA1120M+00061KA2120N+00001MA1999999089511MD1310471+9999OC101621OD199900951999REMSYN004BUFR
0335013590999992024012306004+60533+008200FM-12+077399999V0202601N006019999999N005000199+00111-00431099001ADDAA101000091AA212004031AA324005931AJ100223100220099AY171021AY231021GA1081+004501051GE19AGL   +99999+99999GF108991081999004501999999IA1249KA1240M+00141KA2240N-00091MA1999999090011MD1110791+9999MW1711OD139901301999REMSYN11201359 01450 82606 10011 21043 39001 49900 51079 60042 77173 8802/ 333 10014 21009 44022 60005 70059 90710 91113=
0174013590999992024012309004+60533+008200FM-12+077399999V0202501N003019999999N999999999+00031-00601099731ADDAA101000091KA1240M+00111KA2240N-00061MA1999999090661MD1310631+9999OD139901001999REMSYN08201359 26/// /2503 10003 21060 39066 49973 53063 333 10011 21006 60005 90710 91110=
0318013590999992024012312004+60533+008200FM-12+077399999V0202301N004012200019N070001199-00011-00481100251ADDAA101000091AA206000091AJ100213100210099AY171021AY221021GA1011+012501081GE19AGL   +99999+99999GF101991011999012501999999IA1249KA1240M+00071KA2240N-00011MA1999999091111MD1210451+9999MW1011OD139901101999REMSYN10601359 01689 12304 11001 21048 39111 40025 52045 60001 70172 81100 333 10007 21001 44021 60005 90710 91111=
0104013590999992024012314004+60530+008195FM-12+077299999V0202391N0047199999999999999999-00041-00471100261ADDAA199999999KA1120M-00011KA2120N-00121MA1999999091111MD1010141+9999OC100821OD199900471999REMSYN004BUFR
0199013590999992024012315004+60533+008200FM-12+077399999V0201501N002019999999N999999999-00231-00601999999ADDAA101000091KA1240M-00041KA2240N-00231MA1999999091201MD1310091+9999OD139901001999REMSYN08801359 26/// /1502 11023 21060 39120 40043 53009 91500 333 11004 21023 60005 90710 91110=EQDQ01 100433APOSLP
0318013590999992024012318004+60533+008200FM-12+077399999V0201901N003019999999N030000199-00201-00621100151ADDAA101000091AA212000091AJ100213100210099AY121021AY201021GA1081+004501051GE19AGL   +99999+99999GF108991081999004501999999IA1249KA1120M+00131KA2120N-00451MA1999999090951MD1810241+9999MW1031OD139900701999REMSYN10601359 01480 81903 11020 21062 39095 40015 58024 60002 70320 8802/ 333 10013 21045 44021 60005 90710 91107=
0180013590999992024012321004+60533+008200FM-12+077399999V0200401N002019999999N999999999-00261-00651099461ADDAA101000091KA1240M-00251KA2240N-00291MA1999999090311MD1810641+9999OD139900401999REMSYN08801359 26/// /0402 11026 21065 39031 49946 58064 92100 333 11025 21029 60005 90710 91104=
0214013590999992024012400004+60533+008200FM-12+077399999V0202401N001019999999N999999999-00421-00481098981ADDAA101003031AA206005031AJ100263100260099KA1120M-00411KA2120N-00421MA1999999089821MD1810491+9999OD139900201999REMSYN09401359 06/// /2401 11042 21048 38982 49898 58049 60051 333 11041 21042 4/026 60035 90710 91102=
0174013590999992024012403004+60533+008200FM-12+077399999V0209999C000059999999N999999999-00431-00501098431ADDAA101000131KA1240M-00401KA2240N-00431MA1999999089321MD1610501+9999OD139900201999REMSYN08201359 26/// /0700 11043 21050 38932 49843 56050 333 11040 21043 69915 90710 91102=
0335013590999992024012406004+60533+008200FM-12+077399999V0209999C000059999999N001100199-00431-00491098261ADDAA101000931AA212009032AA324008532AJ100283100280099AY171021AY221021GA1081+002501051GE19AGL   +99999+99999GF108991081999002501999999IA1289KA1240M-00161KA2240N-00451MA1999999089171MD1610151+9999MW1731OD139900101999REMSYN11201359 01311 81000 11043 21049 38917 49826 56015 60092 77372 8802/ 333 11016 21045 48028 69995 70085 90710 91101=
0174013590999992024012409004+60533+008200FM-12+077399999V0209999C000059999999N999999999-00481-00561098401ADDAA101000131KA1240M-00461KA2240N-00501MA1999999089281MD1310111+9999OD139900101999REMSYN08201359 26/// /2100 11048 21056 38928 49840 53011 333 11046 21050 69915 90710 91101=
0334013590999992024012412004+60533+008200FM-12+077399999V0202101N001019999999N014000199-00351-00561098581ADDAA101000091AA206001031AJ100283100280099AY171021AY221021GA1051+002501071GA2999+999999001GE19AGL   +99999+99999GF107991051999002501999999IA1289KA1240M-00111KA2240N-00351MA1999999089481MD1210201+9999MW1021OD139900201999REMSYN10601359 01364 72101 11035 21056 38948 49858 52020 60011 70272 85602 333 11011 21035 48028 60005 90710 91102=
0174013590999992024012415004+60533+008200FM-12+077399999V0200601N002019999999N999999999-00161-00231098901ADDAA101000091KA1240M-00161KA2240N-00231MA1999999089831MD1310351+9999OD139900401999REMSYN08201359 26/// /0602 11016 21023 38983 49890 53035 333 11016 21023 60005 90710 91104=
0340013590999992024012418004+60533+008200FM-12+077399999V0201601N002019999999N040000199+00161-00231099271ADDAA101000091AA212001031AJ100283100280099AY181021AY221021GA1041+008001081GA2999+999999021GE19AGL   +99999+99999GF105991041999008001999999IA1289KA1120M+00271KA2120N-00501MA1999999090271MD1210431+9999MW1021OD139900901999REMSYN11201359 01582 51602 10016 21023 39027 49927 52043 60012 70282 84808 91800 333 10027 21050 48028 60005 90710 91109=
0180013590999992024012421004+60533+008200FM-12+077399999V0202601N004019999999N999999999+00271-00131099771ADDAA101000091KA1240M+00301KA2240N+00231MA1999999090771MD1310491+9999OD139900701999REMSYN08801359 26/// /2604 10027 21013 39077 49977 53049 92100 333 10030 20023 60005 90710 91107=
0214013590999992024012500004+60533+008200FM-12+077399999V0202601N004019999999N999999999+00151-00501100531ADDAA101000091AA206000091AJ100283100280099KA1120M+00211KA2120N+00101MA1999999091421MD1310661+9999OD139900901999REMSYN09401359 06/// /2604 10015 21050 39142 40053 53066 60001 333 10021 20010 4/028 60005 90710 91109=
0174013590999992024012503004+60533+008200FM-12+077399999V0203001N004019999999N999999999+00071-00721101081ADDAA101000091KA1240M+00091KA2240N+00051MA1999999091891MD1110461+9999OD139901001999REMSYN08201359 26/// /3004 10007 21072 39189 40108 51046 333 10009 20005 60005 90710 91110=
0335013590999992024012506004+60533+008200FM-12+077399999V0203001N002019999999N070001199-00031-00641101451ADDAA101000091AA212000091AA324001231AJ100263100260099AY121021AY201021GA1001+999999999GE19AGL   +99999+99999GF199999001999999999999999IA1289KA1240M+00331KA2240N-00031MA1999999092191MD1310311+9999MW1021OD139901501999REMSYN11201359 01989 03002 11003 21064 39219 40145 53031 60002 70220 80000 333 10033 21003 48026 60005 70012 90710 91115=
0174013590999992024012509004+60533+008200FM-12+077399999V0202601N002019999999N999999999-00181-00681101821ADDAA101000091KA1240M+00021KA2240N-00191MA1999999092481MD1310291+9999OD139901101999REMSYN08201359 26/// /2602 11018 21068 39248 40182 53029 333 10002 21019 60005 90710 91111=
0334013590999992024012512004+60533+008200FM-12+077399999V0201401N003012200019N070001199-00051-00621101911ADDAA101000091AA206000091AJ100253100250099AY101021AY201021GA1021+999999031GA2999+999999021GE19AGL   +99999+99999GF103991021999999999999999IA1289KA1240M-00021KA2240N-00251MA1999999092611MD1110121+9999MW1031OD139900601999REMSYN10601359 01989 31403 11005 21062 39261 40191 51012 60001 70300 82055 333 11002 21025 48025 60005 90710 91106=
0174013590999992024012515004+60533+008200FM-12+077399999V0202201N002019999999N999999999-00811-01121102231ADDAA101000091KA1240M-00131KA2240N-00821MA1999999092631MD1310031+9999OD139900301999REMSYN08201359 26/// /2202 11081 21112 39263 40223 53003 333 11013 21082 60005 90710 91103=
0337013590999992024012518004+60533+008200FM-12+077399999V0202601N001012200019N070001199-00971-01031102251ADDAA101000091AA212000091AJ100253100250099AY101021AY201021GA1999+999999021GE19AGL   +99999+99999GF102991001999999999999999IA1289KA1120M+00081KA2120N-01041MA1999999092601MD1810041+9999MW1021OD139900201999REMSYN10601359 01989 22601 11097 21103 39260 40225 58004 60002 70200 80005 333 10008 21104 48025 60005 90710 91102=EQDQ01    003SCCGA1
0180013590999992024012521004+60533+008200FM-12+077399999V0200301N001019999999N999999999-00981-01081102121ADDAA101000091KA1240M-00981KA2240N-01091MA1999999092471MD1810121+9999OD139900301999REMSYN08801359 26/// /0301 11098 21108 39247 40212 58012 92100 333 11098 21109 60005 90710 91103=
0214013590999992024012600004+60533+008200FM-12+077399999V0200701N001019999999N999999999-00721-00871101721ADDAA101000091AA206000091AJ100253100250099KA1120M-00711KA2120N-00851MA1999999092211MD1710271+9999OD139900201999REMSYN09401359 06/// /0701 11072 21087 39221 40172 57027 60001 333 11071 21085 4/025 60005 90710 91102=
0174013590999992024012603004+60533+008200FM-12+077399999V0200601N002019999999N999999999-00621-00751101291ADDAA101000091KA1240M-00601KA2240N-00631MA1999999091851MD1810351+9999OD139900301999REMSYN08201359 26/// /0602 11062 21075 39185 40129 58035 333 11060 21063 60005 90710 91103=
0335013590999992024012606004+60533+008200FM-12+077399999V0200701N001019999999N002800199-00641-00731100781ADDAA101002031AA212002031AA324002131AJ100263100260099AY171021AY201021GA1081+004501051GE19AGL   +99999+99999GF108991081999004501999999IA1289KA1240M-00601KA2240N-01221MA1999999091381MD1810461+9999MW1711OD139900201999REMSYN11201359 01428 80701 11064 21073 39138 40078 58046 60022 77170 8802/ 333 11060 21122 48026 60025 70021 90710 91102=
0174013590999992024012609004+60533+008200FM-12+077399999V0200701N001019999999N999999999-00571-00671100251ADDAA101000091KA1240M-00571KA2240N-00631MA1999999090931MD1810451+9999OD139900401999REMSYN08201359 26/// /0701 11057 21067 39093 40025 58045 333 11057 21063 60005 90710 91104=
0324013590999992024012612004+60533+008200FM-12+077399999V0201001N001019999999N003700199-00341-00461100031ADDAA101000831AA206002031AJ100283100280099AY171021AY221021GA1081+004501051GE19AGL   +99999+99999GF108991081999004501999999IA1289KA1240M-00341KA2240N-00451MA1999999090801MD1510131+9999MW1711OD139900301999REMSYN11201359 01437 81001 11034 21046 39080 40003 55013 60021 77172 8802/ 91200 333 11034 21045 48028 69985 90710 91103=
0180013590999992024012615004+60533+008200FM-12+077399999V0202401N002019999999N999999999-00011-00451100091ADDAA101000091KA1240M+00191KA2240N-00011MA1999999090961MD1310161+9999OD139901101999REMSYN08801359 26/// /2402 11001 21045 39096 40009 53016 91500 333 10019 21001 60005 90710 91111=
0334013590999992024012618004+60533+008200FM-12+077399999V0202801N004012200019N050000199-00061-00581100741ADDAA101000091AA212002031AJ100263100260099AY171021AY201021GA1021+012501061GA2999+999999021GE19AGL   +99999+99999GF103991021999012501999999IA1289KA1120M+00201KA2120N-00661MA1999999091541MD1310571+9999MW1021OD139901401999REMSYN10601359 01684 32804 11006 21058 39154 40074 53057 60022 70270 82508 333 10020 21066 48026 60005 90710 91114=
0180013590999992024012621004+60533+008200FM-12+077399999V0202301N002019999999N999999999-00161-00721101251ADDAA101000091KA1240M-00051KA2240N-00211MA1999999091971MD1110421+9999OD139900801999REMSYN08801359 26/// /2302 11016 21072 39197 40125 51042 92100 333 11005 21021 60005 90710 91108=
0214013590999992024012700004+60533+008200FM-12+077399999V0202201N002019999999N999999999-00111-00511101471ADDAA101000091AA206000091AJ100263100260099KA1120M-00041KA2120N-00141MA1999999092181MD1110211+9999OD139901201999REMSYN09401359 06/// /2202 11011 21051 39218 40147 51021 60001 333 11004 21014 4/026 60005 90710 91112=
0174013590999992024012703004+60533+008200FM-12+077399999V0202401N001019999999N999999999-00101-00431101561ADDAA101000091KA1240M-00011KA2240N-00101MA1999999092271MD1110081+9999OD139900901999REMSYN08201359 26/// /2401 11010 21043 39227 40156 51008 333 11001 21010 60005 90710 91109=
0335013590999992024012706004+60533+008200FM-12+077399999V0200701N001019999999N040000199-00071-00281101511ADDAA101000091AA212000091AA324002331AJ100253100250099AY121021AY211021GA1051+012501061GE19AGL   +99999+99999GF105991051999012501999999IA1289KA1240M+00011KA2240N-00261MA1999999092231MD1610041+9999MW1021OD139900401999REMSYN11201359 01682 50701 11007 21028 39223 40151 56004 60002 70221 85500 333 10001 21026 48025 60005 70023 90710 91104=
0174013590999992024012709004+60533+008200FM-12+077399999V0200601N003019999999N999999999+00181-00111101521ADDAA101000091KA1240M+00191KA2240N+00131MA1999999092321MD1310091+9999OD139900801999REMSYN08201359 26/// /0603 10018 21011 39232 40152 53009 333 10019 20013 60005 90710 91108=
0334013590999992024012712004+60533+008200FM-12+077399999V0201301N002019999999N040000199+00341-00101101391ADDAA101000091AA206000231AJ100243100240099AY121021AY221021GA1051+008001071GA2999+999999021GE19AGL   +99999+99999GF108991051999008001999999IA1289KA1240M+00351KA2240N+00241MA1999999092261MD1810071+9999MW1021OD139900801999REMSYN10601359 01582 81302 10034 21010 39226 40139 58007 69921 70222 85607 333 10035 20024 48024 60005 90710 91108=
0174013590999992024012715004+60533+008200FM-12+077399999V0202301N008019999999N999999999+00271-00041101251ADDAA101000091KA1240M+00301KA2240N+00251MA1999999092111MD1610161+9999OD139901501999REMSYN08201359 26/// /2308 10027 21004 39211 40125 56016 333 10030 20025 60005 90710 91115=
0324013590999992024012718004+60533+008200FM-12+077399999V0202401N007019999999N009000199+00201+00031101571ADDAA101000831AA212001031AJ100233100230099AY161021AY221021GA1081+008001051GE19AGL   +99999+99999GF108991081999008001999999IA1249KA1120M+00351KA2120N-00061MA1999999092381MD1310271+9999MW1611OD139901401999REMSYN11201359 01559 82407 10020 20003 39238 40157 53027 60012 76162 8802/ 91800 333 10035 21006 44023 69985 90710 91114=
0180013590999992024012721004+60533+008200FM-12+077399999V0202501N006019999999N999999999+00201+00001101701ADDAA101000731KA1240M+00211KA2240N+00181MA1999999092501MD1990121+9999OD139901201999REMSYN08801359 26/// /2506 10020 20000 39250 40170 50012 92100 333 10021 20018 69975 90710 91112=
0214013590999992024012800004+60533+008200FM-12+077399999V0202301N008019999999N999999999+00281-00041101591ADDAA101000091AA206004031AJ100223100220099KA1120M+00281KA2120N+00241MA1999999092431MD1510081+9999OD139901501999REMSYN09401359 06/// /2308 10028 21004 39243 40159 55008 60041 333 10028 20024 4/022 60005 90710 91115=
0174013590999992024012803004+60533+008200FM-12+077399999V0202301N005019999999N999999999+00291-00101101651ADDAA101000091KA1240M+00351KA2240N+00291MA1999999092481MD1990071+9999OD139901401999REMSYN08201359 26/// /2305 10029 21010 39248 40165 50007 333 10035 20029 60005 90710 91114=
0351013590999992024012806004+60533+008200FM-12+077399999V0202201N006019999999N040000199+00281-00131101671ADDAA101000091AA212004031AA324004531AJ100223100220099AY121021AY221021GA1041+008001081GA2999+999999021GE19AGL   +99999+99999GF105991041999008001999999IA1249KA1240M+00351KA2240N+00181MA1999999092501MD1990011+9999MW1021OD139901101999REMSYN11201359 01582 52206 10028 21013 39250 40167 50001 60042 70222 84808 333 10035 20018 44022 60005 70045 90710 91111=
0174013590999992024012809004+60533+008200FM-12+077399999V0202301N003019999999N999999999+00171-00251101771ADDAA101000091KA1240M+00291KA2240N+00171MA1999999092551MD1990051+9999OD139901001999REMSYN08201359 26/// /2303 10017 21025 39255 40177 50005 333 10029 20017 60005 90710 91110=
0334013590999992024012812004+60533+008200FM-12+077399999V0202101N004019999999N045000199+00151-00341101681ADDAA101000091AA206000091AJ100223100220099AY121021AY221021GA1051+999999031GA2999+999999021GE19AGL   +99999+99999GF108991051999999999999999IA1249KA1240M+00161KA2240N+00131MA1999999092461MD1810091+9999MW1021OD139900901999REMSYN10601359 01983 82104 10015 21034 39246 40168 58009 60001 70222 85077 333 10016 20013 44022 60005 90710 91109=
0174013590999992024012815004+60533+008200FM-12+077399999V0202201N005019999999N999999999+00091-00491101451ADDAA101000091KA1240M+00111KA2240N+00061MA1999999092241MD1610221+9999OD139900901999REMSYN08201359 26/// /2205 10009 21049 39224 40145 56022 333 10011 20006 60005 90710 91109=
0334013590999992024012818004+60533+008200FM-12+077399999V0202601N004019999999N045000199+00261-00231101271ADDAA101000091AA212000091AJ100223100220099AY121021AY221021GA1041+012501061GA2999+999999021GE19AGL   +99999+99999GF106991041999012501999999IA1249KA1120M+00311KA2120N+00061MA1999999092131MD1510111+9999MW1021OD139900901999REMSYN10601359 01683 62604 10026 21023 39213 40127 55011 60002 70222 84508 333 10031 20006 44022 60005 90710 91109=
0180013590999992024012821004+60533+008200FM-12+077399999V0202301N004019999999N999999999+00281-00201101071ADDAA101000091KA1240M+00291KA2240N+00221MA1999999091951MD1810171+9999OD139901001999REMSYN08801359 26/// /2304 10028 21020 39195 40107 58017 92100 333 10029 20022 60005 90710 91110=
0214013590999992024012900004+60533+008200FM-12+077399999V0202401N003019999999N999999999+00441-00171100831ADDAA101000091AA206000091AJ100223100220099KA1120M+00561KA2120N+00421MA1999999091781MD1510181+9999OD139901201999REMSYN09401359 06/// /2403 10044 21017 39178 40083 55018 60001 333 10056 20042 4/022 60005 90710 91112=
0174013590999992024012903004+60533+008200FM-12+077399999V0202201N006019999999N999999999+00341+00041100811ADDAA101000131KA1240M+00341KA2240N+00311MA1999999091731MD1510051+9999OD139901201999REMSYN08201359 26/// /2206 10034 20004 39173 40081 55005 333 10034 20031 69915 90710 91112=
0335013590999992024012906004+60533+008200FM-12+077399999V0202301N005019999999N020000199+00261-00141101081ADDAA101000091AA212000431AA324000431AJ100203100200099AY161021AY221021GA1081+008001051GE19AGL   +99999+99999GF108991081999008001999999IA1249KA1240M+00561KA2240N+00181MA1999999091951MD1110221+9999MW1211OD139901101999REMSYN11201359 01570 82305 10026 21014 39195 40108 51022 69942 72162 8802/ 333 10056 20018 44020 60005 70004 90710 91111=
0174013590999992024012909004+60533+008200FM-12+077399999V0202601N002019999999N999999999-00021-00501101761ADDAA101000091KA1240M+00071KA2240N-00021MA1999999092481MD1210521+9999OD139900801999REMSYN08201359 26/// /2602 11002 21050 39248 40176 52052 333 10007 21002 60005 90710 91108=
0350013590999992024012912004+60533+008200FM-12+077399999V0202601N004019999999N050000199+00071-00611102041ADDAA101000091AA206000091AJ100203100200099AY121021AY221021GA1021+012501061GA2999+999999031GA3999+999999021GE19AGL   +99999+99999GF108991021999012501999999IA1249KA1240M+00071KA2240N+00001MA1999999092771MD1110291+9999MW1021OD139901001999REMSYN10601359 01684 82604 10007 21061 39277 40204 51029 60001 70222 82577 333 10007 20000 44020 60005 90710 91110=
0174013590999992024012915004+60533+008200FM-12+077399999V0202401N001019999999N999999999-00101-00701102331ADDAA101000091KA1240M+00081KA2240N-00101MA1999999092971MD1310201+9999OD139900601999REMSYN08201359 26/// /2401 11010 21070 39297 40233 53020 333 10008 21010 60005 90710 91106=
0337013590999992024012918004+60533+008200FM-12+077399999V0202601N001019999999N045000199-00501-00891102761ADDAA101000091AA212000091AJ100203100200099AY121021AY221021GA1999+999999021GE19AGL   +99999+99999GF105991001999999999999999IA1249KA1120M+00271KA2120N-00501MA1999999093221MD1110251+9999MW1021OD139900301999REMSYN10601359 01983 52601 11050 21089 39322 40276 51025 60002 70222 80006 333 10027 21050 44020 60005 90710 91103=EQDQ01    003SCCGA1
0174013590999992024012921004+60533+008200FM-12+077399999V0202301N001019999999N999999999-00531-00841102871ADDAA101000091KA1240M-00381KA2240N-00531MA1999999093311MD1310101+9999OD139900401999REMSYN08201359 26/// /2301 11053 21084 39331 40287 53010 333 11038 21053 60005 90710 91104=
0214013590999992024013000004+60533+008200FM-12+077399999V0202501N002019999999N999999999-00581-00841102891ADDAA101000091AA206000091AJ100203100200099KA1120M-00531KA2120N-00711MA1999999093311MD1410001+9999OD139900501999REMSYN09401359 06/// /2502 11058 21084 39331 40289 54000 60001 333 11053 21071 4/020 60005 90710 91105=
0174013590999992024013003004+60533+008200FM-12+077399999V0202101N002019999999N999999999-00791-01011102831ADDAA101000091KA1240M-00681KA2240N-00791MA1999999093181MD1810131+9999OD139900301999REMSYN08201359 26/// /2102 11079 21101 39318 40283 58013 333 11068 21079 60005 90710 91103=
0354013590999992024013006004+60533+008200FM-12+077399999V0202401N001019999999N050000199-00931-01141102761ADDAA101000091AA212000091AA324000091AJ100203100200099AY121021AY221021GA1999+999999021GE19AGL   +99999+99999GF108991001999999999999999IA1249KA1240M-00351KA2240N-00931MA1999999093081MD1610101+9999MW1021OD139900301999REMSYN11201359 01984 82401 11093 21114 39308 40276 56010 60002 70222 80007 333 11035 21093 44020 60005 70000 90710 91103=EQDQ01    003SCCGA1
0174013590999992024013009004+60533+008200FM-12+077399999V0209999C000059999999N999999999-00781-01041102621ADDAA101000091KA1240M-00781KA2240N-00861MA1999999093001MD1710071+9999OD139900201999REMSYN08201359 26/// /0400 11078 21104 39300 40262 57007 333 11078 21086 60005 90710 91102=
0318013590999992024013012004+60533+008200FM-12+077399999V0202101N001019999999N008000199-00581-00731102371ADDAA101000331AA206000431AJ100213100210099AY171021AY221021GA1081+004501051GE19AGL   +99999+99999GF108991081999004501999999IA1249KA1240M-00571KA2240N-00611MA1999999092841MD1810161+9999MW1711OD139900201999REMSYN10601359 01458 82101 11058 21073 39284 40237 58016 69941 77172 8802/ 333 11057 21061 44021 69935 90710 91102=
0174013590999992024013015004+60533+008200FM-12+077399999V0202301N001019999999N999999999-00621-00731102131ADDAA101000331KA1240M-00411KA2240N-00621MA1999999092611MD1610231+9999OD139900201999REMSYN08201359 26/// /2301 11062 21073 39261 40213 56023 333 11041 21062 69935 90710 91102=
0318013590999992024013018004+60533+008200FM-12+077399999V0201401N001019999999N070001199-01071-01231102281ADDAA101000091AA212001031AJ100223100220099AY171021AY221021GA1001+999999999GE19AGL   +99999+99999GF199999001999999999999999IA1289KA1120M-00411KA2120N-01071MA1999999092591MD1710011+9999MW1011OD139900201999REMSYN10601359 01989 01401 11107 21123 39259 40228 57001 60012 70172 80000 333 11041 21107 48022 60005 90710 91102=
0180013590999992024013021004+60533+008200FM-12+077399999V0202201N001019999999N999999999-01241-01421102321ADDAA101000091KA1240M-00861KA2240N-01241MA1999999092561MD1710031+9999OD139900401999REMSYN08801359 26/// /2201 11124 21142 39256 40232 57003 92100 333 11086 21124 60005 90710 91104=
0214013590999992024013100004+60533+008200FM-12+077399999V0202301N004019999999N999999999-00331-01061101921ADDAA101000091AA206000091AJ100223100220099KA1120M-00291KA2120N-00411MA1999999092521MD1810041+9999OD139900901999REMSYN09401359 06/// /2304 11033 21106 39252 40192 58004 60001 333 11029 21041 4/022 60005 90710 91109=
0180013590999992024013103004+60533+008200FM-12+077399999V0202301N008019999999N999999999-00011-00511101591ADDAA101000091KA1240M+00081KA2240N-00151MA1999999092331MD1810201+9999OD139901501999REMSYN08801359 26/// /2308 11001 21051 39233 40159 58020 90300 333 10008 21015 60005 90710 91115=
0373013590999992024013106004+60533+008200FM-12+077399999V0202801N002012200019N070001199-00141-00481101491ADDAA101000091AA212000091AA324001131AJ100213100210099AY111021AY201021GA1021+008001061GA2999+999999031GA3999+999999021GE19AGL   +99999+99999GF103991021999008001999999IA1289KA1240M+00091KA2240N-01241MA1999999092191MD1810131+9999MW1021OD139900701999REMSYN11801359 01589 32802 11014 21048 39219 40149 58013 60002 70210 82555 90600 333 10009 21124 48021 60005 70011 90710 91107=
0180013590999992024013109004+60533+008200FM-12+077399999V0202401N004019999999N999999999+00021-00541101041ADDAA101000091KA1240M+00021KA2240N-00071MA1999999091841MD1810351+9999OD139901201999REMSYN08801359 26/// /2404 10002 21054 39184 40104 58035 90900 333 10002 21007 60005 90710 91112=
0356013590999992024013112004+60533+008200FM-12+077399999V0202201N007019999999N025000199+00091-00341100261ADDAA101000091AA206000091AJ100213100210099AY121021AY201021GA1031+008001061GA2999+999999051GA3999+999999021GE19AGL   +99999+99999GF108991031999008001999999IA1249KA1240M+00111KA2240N+00061MA1999999091151MD1810681+9999MW1031OD139901401999REMSYN11201359 01575 82207 10009 21034 39115 40026 58068 60001 70320 83527 91200 333 10011 20006 44021 60005 90710 91114=
0180013590999992024013115004+60533+008200FM-12+077399999V0202401N010019999999N999999999+00061-00231099581ADDAA101000231KA1240M+00071KA2240N+00001MA1999999090521MD1610621+9999OD139901901999REMSYN08801359 26/// /2410 10006 21023 39052 49958 56062 91500 333 10007 20000 69925 90710 91119=
0324013590999992024013118004+60533+008200FM-12+077399999V0202201N012019999999N001100199-00031-00131098952ADDAA101000331AA212001031AJ100213100210099AY171021AY231021GA1081+004501051GE19AGL   +99999+99999GF108991081999004501999999IA1289KA1120M+00141KA2120N-00211MA1999999089932MD1810581+9999MW1711OD139902101999REMSYN11201359 01411 82212 11003 21013 38993 49895 58058 60012 77173 8802/ 91800 333 10014 21021 48021 69935 90710 91121=
0180013590999992024013121004+60533+008200FM-12+077399999V0202501N008019999999N999999999-00261-00361099121ADDAA101000131KA1240M-00181KA2240N-00261MA1999999090001MD1310061+9999OD139901501999REMSYN08801359 26/// /2508 11026 21036 39000 49912 53006 92100 333 11018 21026 69915 90710 91115=
0220013590999992024020100004+60533+008200FM-12+077399999V0202501N006019999999N999999999-00311-00401099181ADDAA101000631AA206002031AJ100213100210099KA1120M-00291KA2120N-00341MA1999999090041MD1310021+9999OD139901301999REMSYN10001359 06/// /2506 11031 21040 39004 49918 53002 60021 90000 333 11029 21034 4/021 69965 90710 91113=
0174013590999992024020103004+60533+008200FM-12+077399999V0202401N005019999999N999999999-00341-00641099321ADDAA101000931KA1240M-00321KA2240N-00431MA1999999090161MD1990121+9999OD139901401999REMSYN08201359 26/// /2405 11034 21064 39016 49932 50012 333 11032 21043 69995 90710 91114=
0335013590999992024020106004+60533+008200FM-12+077399999V0202501N006019999999N002100199-00381-00761099451ADDAA101000131AA212007031AA324007631AJ100253100250099AY171021AY231021GA1081+004501051GE19AGL   +99999+99999GF108991081999004501999999IA1289KA1240M+00001KA2240N-00431MA1999999090261MD1110111+9999MW1701OD139901401999REMSYN11201359 01421 82506 11038 21076 39026 49945 51011 60072 77073 8802/ 333 10000 21043 48025 69915 70076 90710 91114=
0174013590999992024020109004+60533+008200FM-12+077399999V0202501N006019999999N999999999-00351-00641099871ADDAA101000231KA1240M-00351KA2240N-00481MA1999999090651MD1110381+9999OD139901201999REMSYN08201359 26/// /2506 11035 21064 39065 49987 51038 333 11035 21048 69925 90710 91112=
0318013590999992024020112004+60533+008200FM-12+077399999V0202701N004012200019N070001199-00051-00761100491ADDAA101000091AA206000731AJ100243100240099AY171021AY231021GA1011+008001061GE19AGL   +99999+99999GF101991011999008001999999IA1289KA1240M-00051KA2240N-00121MA1999999091311MD1310661+9999MW1011OD139901201999REMSYN10601359 01589 12704 11005 21076 39131 40049 53066 69971 70173 81500 333 11005 21012 48024 60005 90710 91112=
0174013590999992024020115004+60533+008200FM-12+077399999V0202701N005019999999N999999999-00251-00641100891ADDAA101000091KA1240M-00171KA2240N-00251MA1999999091611MD1110301+9999OD139901301999REMSYN08201359 26/// /2705 11025 21064 39161 40089 51030 333 11017 21025 60005 90710 91113=
0318013590999992024020118004+60533+008200FM-12+077399999V0202701N005019999999N002300199-00341-00661101061ADDAA101000091AA212000831AJ100223100220099AY181021AY231021GA1051+004501091GE19AGL   +99999+99999GF105991051999004501999999IA1289KA1120M-00031KA2120N-00491MA1999999091741MD1110131+9999MW1851OD139901401999REMSYN10601359 01423 52705 11034 21066 39174 40106 51013 69982 78583 85300 333 11003 21049 48022 60005 90710 91114=
0174013590999992024020121004+60533+008200FM-12+077399999V0202601N006019999999N999999999-00171-00601101121ADDAA101000091KA1240M-00171KA2240N-00261MA1999999091841MD1210111+9999OD139901401999REMSYN08201359 26/// /2606 11017 21060 39184 40112 52011 333 11017 21026 60005 90710 91114=
0214013590999992024020200004+60533+008200FM-12+077399999V0202201N005019999999N999999999-00241-00621101071ADDAA101000091AA206000091AJ100213100210099KA1120M-00081KA2120N-00241MA1999999091781MD1610061+9999OD139901001999REMSYN09401359 06/// /2205 11024 21062 39178 40107 56006 60001 333 11008 21024 4/021 60005 90710 91110=
0174013590999992024020203004+60533+008200FM-12+077399999V0202101N005019999999N999999999-00111-00481100751ADDAA101000091KA1240M-00111KA2240N-00161MA1999999091541MD1810231+9999OD139901301999REMSYN08201359 26/// /2105 11011 21048 39154 40075 58023 333 11011 21016 60005 90710 91113=
0354013590999992024020206004+60533+008200FM-12+077399999V0202201N007019999999N003200199+00031-00161100321ADDAA101000091AA212999999AA324000831AJ100213100210099AY171021AY231021GA1081+004501051GE19AGL   +99999+99999GF108991081999004501999999IA1289KA1240M+00051KA2240N-00341MA1999999091191MD1610351+9999MW1711OD139901101999REMSYN11201359 01432 82207 10003 21016 39119 40032 56035 60002 77173 8802/ 333 10005 21034 48021 60005 70008 90710 91111=EQDQ01  00002PRCP12
0174013590999992024020209004+60533+008200FM-12+077399999V0200401N003019999999N999999999+00071-00031099951ADDAA101000331KA1240M+00071KA2240N-00031MA1999999090871MD1610321+9999OD139900501999REMSYN08201359 26/// /0403 10007 21003 39087 49995 56032 333 10007 21003 69935 90710 91105=
0334013590999992024020212004+60533+008200FM-12+077399999V0202301N012019999999N015000199+00441+00081099371ADDAA101000091AA206002031AJ100203100200099AY181021AY271021GA1051+008001061GA2999+999999021GE19AGL   +99999+99999GF107991051999008001999999IA1249KA1240M+00501KA2240N+00441MA1999999090451MD1610431+9999MW1251OD139902401999REMSYN10601359 01565 72312 10044 20008 39045 49937 56043 60021 72587 85508 333 10050 20044 44020 60005 90710 91124=
0174013590999992024020215004+60533+008200FM-12+077399999V0202301N007019999999N999999999+00271+00071099591ADDAA101001031KA1240M+00301KA2240N+00241MA1999999090601MD1110151+9999OD139901501999REMSYN08201359 26/// /2307 10027 20007 39060 49959 51015 333 10030 20024 60015 90710 91115=
0324013590999992024020218004+60533+008200FM-12+077399999V0202301N007019999999N009000199+00301+00081099391ADDAA101000931AA212007031AJ100173100170099AY161021AY221021GA1081+008001051GE19AGL   +99999+99999GF108991081999008001999999IA1249KA1120M+00501KA2120N-00041MA1999999090431MD1610171+9999MW1611OD139901301999REMSYN11201359 01559 82307 10030 20008 39043 49939 56017 60072 76162 8802/ 91800 333 10050 21004 44017 69995 90710 91113=
0174013590999992024020221004+60533+008200FM-12+077399999V0202301N007019999999N999999999+00361+00131099311ADDAA101002031KA1240M+00371KA2240N+00331MA1999999090381MD1810061+9999OD139901401999REMSYN08201359 26/// /2307 10036 20013 39038 49931 58006 333 10037 20033 60025 90710 91114=
0214013590999992024020300004+60533+008200FM-12+077399999V0202501N008019999999N999999999+00281-00071099451ADDAA101000091AA206006031AJ100143100140099KA1120M+00421KA2120N+00281MA1999999090481MD1310101+9999OD139901501999REMSYN09401359 06/// /2508 10028 21007 39048 49945 53010 60061 333 10042 20028 4/014 60005 90710 91115=
0174013590999992024020303004+60533+008200FM-12+077399999V0202501N009019999999N999999999+00121-00161099461ADDAA101000131KA1240M+00221KA2240N+00101MA1999999090441MD1510051+9999OD139901901999REMSYN08201359 26/// /2509 10012 21016 39044 49946 55005 333 10022 20010 69915 90710 91119=
0335013590999992024020306004+60533+008200FM-12+077399999V0202401N007019999999N012000199-00021-00231099511ADDAA101000131AA212006031AA324013131AJ100163100160099AY171021AY261021GA1081+008001051GE19AGL   +99999+99999GF108991081999008001999999IA1249KA1240M+00421KA2240N-00061MA1999999090441MD1510011+9999MW1701OD139901401999REMSYN11201359 01562 82407 11002 21023 39044 49951 55001 60062 77076 8802/ 333 10042 21006 44016 69915 70131 90710 91114=
0174013590999992024020309004+60533+008200FM-12+077399999V0202401N006019999999N999999999-00221-00361099621ADDAA101000131KA1240M-00121KA2240N-00221MA1999999090471MD1310031+9999OD139901701999REMSYN08201359 26/// /2406 11022 21036 39047 49962 53003 333 11012 21022 69915 90710 91117=
0318013590999992024020312004+60533+008200FM-12+077399999V0202401N006019999999N000900199-00251-00511099641ADDAA101000331AA206003031AJ100213100210099AY171021AY231021GA1081+004501051GE19AGL   +99999+99999GF108991081999004501999999IA1289KA1240M-00211KA2240N-00271MA1999999090481MD1990011+9999MW1711OD139901701999REMSYN10601359 01409 82406 11025 21051 39048 49964 50001 60031 77173 8802/ 333 11021 21027 48021 69935 90710 91117=
0180013590999992024020315004+60533+008200FM-12+077399999V0202401N006019999999N999999999-00281-00341099471ADDAA101000531KA1240M-00231KA2240N-00281MA1999999090311MD1510171+9999OD139901501999REMSYN08801359 26/// /2406 11028 21034 39031 49947 55017 91500 333 11023 21028 69955 90710 91115=
0324013590999992024020318004+60533+008200FM-12+077399999V0202501N008019999999N000600199-00261-00471099431ADDAA101000331AA212006031AJ100203100200099AY171021AY231021GA1081+004501051GE19AGL   +99999+99999GF108991081999004501999999IA1289KA1120M+00011KA2120N-00301MA1999999090281MD1510021+9999MW1711OD139901901999REMSYN11201359 01406 82508 11026 21047 39028 49943 55002 60062 77173 8802/ 91800 333 10001 21030 48020 69935 90710 91119=
0174013590999992024020321004+60533+008200FM-12+077399999V0202501N006019999999N999999999-00371-00661099671ADDAA101000091KA1240M-00311KA2240N-00401MA1999999090461MD1110171+9999OD139901501999REMSYN08201359 26/// /2506 11037 21066 39046 49967 51017 333 11031 21040 60005 90710 91115=
0249013590999992024020400004+60533+008200FM-12+077399999V0202401N005019999999N999999999-00321-00691099661ADDAA101000091AA206000331AJ100173100170099KA1120M-00321KA2120N-00361MA1999999090471MD1790019+9999OD139901201999REMSYN09401359 06/// /2405 11032 21069 39047 49966 54001 69931 333 11032 21036 4/017 60005 90710 91112=EQDQ01.1    3APC3  Q024     3APCTEN
0174013590999992024020403004+60533+008200FM-12+077399999V0202201N004019999999N999999999-00371-00591099431ADDAA101000091KA1240M-00351KA2240N-00381MA1999999090251MD1810231+9999OD139900701999REMSYN08201359 26/// /2204 11037 21059 39025 49943 58023 333 11035 21038 60005 90710 91107=
0335013590999992024020406004+60533+008200FM-12+077399999V0203401N001019999999N007000199-00451-00521099231ADDAA101000131AA212001031AA324006831AJ100193100190099AY171021AY231021GA1081+008001051GE19AGL   +99999+99999GF108991081999008001999999IA1289KA1240M-00231KA2240N-00471MA1999999090041MD1810211+9999MW1711OD139900301999REMSYN11201359 01557 83401 11045 21052 39004 49923 58021 60012 77173 8802/ 333 11023 21047 48019 69915 70068 90710 91103=
0174013590999992024020409004+60533+008200FM-12+077399999V0202501N003019999999N999999999-00131-00601099111ADDAA101000091KA1240M-00111KA2240N-00201MA1999999090031MD1510001+9999OD139900801999REMSYN08201359 26/// /2503 11013 21060 39003 49911 55000 333 11011 21020 60005 90710 91108=
0318013590999992024020412004+60533+008200FM-12+077399999V0203201N001019999999N009000199-00251-00501099211ADDAA101000131AA206000231AJ100193100190099AY171021AY221021GA1081+004501051GE19AGL   +99999+99999GF108991081999004501999999IA1289KA1240M-00181KA2240N-00291MA1999999090091MD1990051+9999MW1781OD139900801999REMSYN10601359 01459 83201 11025 21050 39009 49921 50005 69921 77872 8802/ 333 11018 21029 48019 69915 90710 91108=
0174013590999992024020415004+60533+008200FM-12+077399999V0202401N006019999999N999999999-00201-00691099031ADDAA101000091KA1240M-00201KA2240N-00311MA1999999089941MD1810151+9999OD139901201999REMSYN08201359 26/// /2406 11020 21069 38994 49903 58015 333 11020 21031 60005 90710 91112=
0324013590999992024020418004+60533+008200FM-12+077399999V0202601N006019999999N000500199-00511-00681099311ADDAA101000331AA212000831AJ100173100170099AY171021AY231021GA1081+004501051GE19AGL   +99999+99999GF108991081999004501999999IA1289KA1120M-00071KA2120N-00521MA1999999090091MD1310161+9999MW1711OD139901401999REMSYN11201359 01405 82606 11051 21068 39009 49931 53016 69982 77173 8802/ 91800 333 11007 21052 48017 69935 90710 91114=
0180013590999992024020421004+60533+008200FM-12+077399999V0202401N004019999999N999999999-00451-00551099111ADDAA101000731KA1240M-00301KA2240N-00481MA1999999089931MD1610161+9999OD139901201999REMSYN08801359 26/// /2404 11045 21055 38993 49911 56016 92100 333 11030 21048 69975 90710 91112=
0214013590999992024020500004+60533+008200FM-12+077399999V0202401N004019999999N999999999-00471-00941099281ADDAA101000091AA206002031AJ100183100180099KA1120M-00411KA2120N-00471MA1999999090081MD1310141+9999OD139901401999REMSYN09401359 06/// /2404 11047 21094 39008 49928 53014 60021 333 11041 21047 4/018 60005 90710 91114=
0174013590999992024020503004+60533+008200FM-12+077399999V0202501N004019999999N999999999-00451-00911099441ADDAA101000091KA1240M-00401KA2240N-00471MA1999999090231MD1310151+9999OD139901301999REMSYN08201359 26/// /2504 11045 21091 39023 49944 53015 333 11040 21047 60005 90710 91113=
0357013590999992024020506004+60533+008200FM-12+077399999V0203101N005012200019N035000199-00541-01211099781ADDAA101000091AA212002031AA324002331AJ100173100170099AY171021AY221021GA1031+008001061GA2999+999999021GE19AGL   +99999+99999GF104991031999008001999999IA1289KA1240M-00301KA2240N-00541MA1999999090511MD1210281+9999MW1021OD139901001999REMSYN11801359 01581 43105 11054 21121 39051 49978 52028 60022 70272 83508 90600 333 11030 21054 48017 60005 70023 90710 91110=
0180013590999992024020509004+60533+008200FM-12+077399999V0203001N004019999999N999999999-00571-01331099961ADDAA101000091KA1240M-00521KA2240N-00591MA1999999090661MD1310151+9999OD139900801999REMSYN08801359 26/// /3004 11057 21133 39066 49996 53015 90900 333 11052 21059 60005 90710 91108=
0334013590999992024020512004+60533+008200FM-12+077399999V0202501N005012200019N050000199-00461-01151099951ADDAA101000091AA206000091AJ100173100170099AY111021AY201021GA1011+008001081GA2999+999999021GE19AGL   +99999+99999GF103991011999008001999999IA1289KA1240M-00401KA2240N-00491MA1999999090681MD1990021+9999MW1021OD139901101999REMSYN10601359 01584 32505 11046 21115 39068 49995 50002 60001 70210 81205 333 11040 21049 48017 60005 90710 91111=
0174013590999992024020515004+60533+008200FM-12+077399999V0202801N001019999999N999999999-00631-01211100101ADDAA101000091KA1240M-00431KA2240N-00631MA1999999090761MD1110081+9999OD139900701999REMSYN08201359 26/// /2801 11063 21121 39076 40010 51008 333 11043 21063 60005 90710 91107=
0334013590999992024020518004+60533+008200FM-12+077399999V0203001N001012200019N070001199-01191-01451100351ADDAA101000091AA212000091AJ100173100170099AY101021AY201021GA1021+999999031GA2999+999999021GE19AGL   +99999+99999GF103991021999999999999999IA1289KA1120M-00391KA2120N-01261MA1999999090801MD1990031+9999MW1021OD139900301999REMSYN10601359 01989 33001 11119 21145 39080 40035 50003 60002 70200 82055 333 11039 21126 48017 60005 90710 91103=
0209013590999992024020521004+60533+008200FM-12+077399999V0202201N001019999999N999999999-01561-01711100501ADDAA101000091KA1240M-01421KA2240N-01611MA1999999090811MD1290159+9999OD139900301999REMSYN08201359 26/// /2201 11156 21171 39081 40050 54001 333 11142 21161 60005 90710 91103=EQDQ01.1    3APC3  Q024     3APCTEN
0214013590999992024020600004+60533+008200FM-12+077399999V0201801N001019999999N999999999-01671-01871100511ADDAA101000091AA206000091AJ100173100170099KA1120M-01541KA2120N-01691MA1999999090771MD1810041+9999OD139900301999REMSYN09401359 06/// /1801 11167 21187 39077 40051 58004 60001 333 11154 21169 4/017 60005 90710 91103=
