0148039620999992024010100004+52702-008925FM-15+001499999V0202501N004119999999N009999199+00701+00401999999ADDGA1021+005491999GE19AGL   +99999+99999GF199999021999005491999999MA1099801999999REMMET057METAR EINN 010000Z 25008KT 9999 FEW018 07/04 Q0998 NOSIG=
0160039620999992024010100304+52702-008925FM-15+001499999V0202501N003619999999N009999199+00701+00301999999ADDGA1021+005491999GE19AGL   +99999+99999GF199999021999005491999999MA1099901999999MW1801REMMET063METAR EINN 010030Z 25007KT 9999 -SHRA FEW018 07/03 Q0999 NOSIG=
0197039620999992024010101004+52700-008917FM-12+002099999V0202701N005012200019N018000199+00661+00271099951ADDAY181021AY211021GA1021+005401081GE19AGL   +99999+99999GF103991021999005401999999MA1999999099711MD1110211+9999MW1251REMSYN07003962 41468 32705 10066 20027 39971 49995 51021 72581 83800 333 82818=
0148039620999992024010101004+52702-008925FM-15+001499999V0202701N004619999999N009999199+00701+00301999999ADDGA1021+005491999GE19AGL   +99999+99999GF199999021999005491999999MA1099901999999REMMET057METAR EINN 010100Z 27009KT 9999 FEW018 07/03 Q0999 NOSIG=
0156039620999992024010101304+52702-008925FM-15+001499999V0202401V003119999999N009999199+00601+00301999999ADDGA1021+005491999GE19AGL   +99999+99999GF199999021999005491999999MA1099901999999REMMET065METAR EINN 010130Z 24006KT 210V270 9999 FEW018 06/03 Q0999 NOSIG=
0169039620999992024010102004+52700-008917FM-12+002099999V0202301N004012200019N018000199+00631+00301099931ADDGA1011+005401081GE19AGL   +99999+99999GF102991011999005401999999MA1999999099691MD1990101+9999REMSYN06403962 42468 22304 10063 20030 39969 49993 50010 82800 333 81818=
0148039620999992024010102004+52702-008925FM-15+001499999V0202301N004119999999N009999199+00601+00301999999ADDGA1021+005491999GE19AGL   +99999+99999GF199999021999005491999999MA1099901999999REMMET057METAR EINN 010200Z 23008KT 9999 FEW018 06/03 Q0999 NOSIG=
0148039620999992024010102304+52702-008925FM-15+001499999V0202301N005119999999N009999199+00701+00301999999ADDGA1021+005491999GE19AGL   +99999+99999GF199999021999005491999999MA1099901999999REMMET057METAR EINN 010230Z 23010KT 9999 FEW018 07/03 Q0999 NOSIG=
0213039620999992024010103004+52700-008917FM-12+002099999V0202301N004012200019N020000199+00641+00231099941ADDAY181021AY211021GA1011+005401081GA2999+999999001GE19AGL   +99999+99999GF101991011999005401999999MA1999999099701MD1110051+9999MW1011REMSYN07003962 41470 12304 10064 20023 39970 49994 51005 70181 81802 333 81818=
0148039620999992024010103004+52702-008925FM-15+001499999V0202301N004119999999N009999199+00601+00201999999ADDGA1021+005491999GE19AGL   +99999+99999GF199999021999005491999999MA1099901999999REMMET057METAR EINN 010300Z 23008KT 9999 FEW018 06/02 Q0999 NOSIG=
0171039620999992024010103304+52702-008925FM-15+001499999V0202401N00411060961CN009999199+00601+00201999999ADDGA1021+005491999GA2041+060961999GE19AGL   +99999+99999GF199999021999005491999999MA1099901999999REMMET064METAR EINN 010330Z 24008KT 9999 FEW018 SCT200 06/02 Q0999 NOSIG=
0191039620999992024010104004+52700-008917FM-12+002099999V0202201N00401060001CN020000199+00611+00201099941ADDGA1011+006001061GA2051+060001001GE19AGL   +99999+99999GF105991011999006001999999MA1999999099701MD1610011+9999REMSYN07003962 42570 52204 10061 20020 39970 49994 56001 81502 333 81620 85070=
0171039620999992024010104004+52702-008925FM-15+001499999V0202201N004110609619N009999199+00601+00201999999ADDGA1021+006101999GA2071+060961999GE19AGL   +99999+99999GF199999021999006101999999MA1099901999999REMMET064METAR EINN 010400Z 22008KT 9999 FEW020 BKN200 06/02 Q0999 NOSIG=
0171039620999992024010104304+52702-008925FM-15+001499999V0202001N00411060961CN009999199+00601+00301999999ADDGA1021+006101999GA2041+060961999GE19AGL   +99999+99999GF199999021999006101999999MA1099901999999REMMET064METAR EINN 010430Z 20008KT 9999 FEW020 SCT200 06/03 Q0999 NOSIG=
0185039620999992024010105004+52700-008917FM-12+002099999V0202001N005012200019N020000199+00551+00311099941ADDGA1021+009001061GA2999+999999001GE19AGL   +99999+99999GF103991021999009001999999MA1999999099701MD1110011+9999REMSYN06403962 42570 32005 10055 20031 39970 49994 51001 82502 333 82630=
0148039620999992024010105004+52702-008925FM-15+001499999V0202001N004619999999N009999199+00601+00301999999ADDGA1021+009141999GE19AGL   +99999+99999GF199999021999009141999999MA1099901999999REMMET057METAR EINN 010500Z 20009KT 9999 FEW030 06/03 Q0999 NOSIG=
0171039620999992024010105304+52702-008925FM-15+001499999V0201901N00311054861CN009999199+00601+00301999999ADDGA1021+009141999GA2041+054861999GE19AGL   +99999+99999GF199999021999009141999999MA1099901999999REMMET064METAR EINN 010530Z 19006KT 9999 FEW030 SCT180 06/03 Q0999 NOSIG=
0283039620999992024010106004+52700-008917FM-12+002099999V0201901N003012200019N020000199+00541+00311099901ADDAA112000731AY181021AY211021GA1011+009001061GA2031+033001031GA3999+999999001GE19AGL   +99999+99999GF104991011999009001999999KA1240N+00521MA1999999099661MD1810041+9999MW1031REMSYN10003962 11570 41903 10054 20031 39966 49990 58004 69972 70381 81532 333 20052 3/003 55010 81630 83361=
0171039620999992024010106004+52702-008925FM-15+001499999V0201901N00311033531CN009999199+00501+00301999999ADDGA1021+009141999GA2041+033531999GE19AGL   +99999+99999GF199999021999009141999999MA1099801999999REMMET064METAR EINN 010600Z 19006KT 9999 FEW030 SCT110 05/03 Q0998 NOSIG=
0194039620999992024010106304+52702-008925FM-15+001499999V0201401N00261036581CN009999199+00501+00301999999ADDGA1021+009141999GA2041+036581999GA3071+048771999GE19AGL   +99999+99999GF199999021999009141999999MA1099801999999REMMET071METAR EINN 010630Z 14005KT 9999 FEW030 SCT120 BKN160 05/03 Q0998 NOSIG=
0207039620999992024010107004+52700-008917FM-12+002099999V0201301N00201033001CN020000199+00471+00281099851ADDGA1021+008401061GA2051+033001031GA3999+999999001GE19AGL   +99999+99999GF107991021999008401999999MA1999999099611MD1810091+9999REMSYN07003962 42570 71302 10047 20028 39961 49985 58009 82532 333 82628 85361=
0171039620999992024010107004+52702-008925FM-15+001499999V0201301N002110335319N009999199+00501+00301999999ADDGA1021+008531999GA2071+033531999GE19AGL   +99999+99999GF199999021999008531999999MA1099801999999REMMET064METAR EINN 010700Z 13004KT 9999 FEW028 BKN110 05/03 Q0998 NOSIG=
0171039620999992024010107304+52702-008925FM-15+001499999V0201301N003110274319N009999199+00501+00301999999ADDGA1021+008531999GA2071+027431999GE19AGL   +99999+99999GF199999021999008531999999MA1099801999999REMMET064METAR EINN 010730Z 13006KT 9999 FEW028 BKN090 05/03 Q0998 NOSIG=
0213039620999992024010108004+52700-008917FM-12+002099999V0201301N00301024001CN020000199+00451+00301099811ADDGA1011+008401061GA2051+024001031GA3051+033001041GE19AGL   +99999+99999GF107991011999008401999999MA1999999099571MD1710131+9999REMSYN07603962 42570 71303 10045 20030 39957 49981 57013 8157/ 333 81628 85358 85461=
0194039620999992024010108004+52702-008925FM-15+001499999V0201301N003110243819N009999199+00501+00301999999ADDGA1021+008531999GA2071+024381999GA3071+033531999GE19AGL   +99999+99999GF199999021999008531999999MA1099801999999REMMET071METAR EINN 010800Z 13006KT 9999 FEW028 BKN080 BKN110 05/03 Q0998 NOSIG=
0181039620999992024010108304+52702-008925FM-15+001499999V0201201N003110182919N009999199+00501+00301999999ADDGA1041+009141999GA2081+018291999GE19AGL   +99999+99999GF199999041999009141999999MA1099701999999MW1611REMMET068METAR EINN 010830Z 12006KT 9999 -RA SCT030 OVC060 05/03 Q0997 NOSIG=
0219039620999992024010109004+52700-008917FM-12+002099999V0201101N003010150019N018000199+00511+00401099741ADDAY161021AY221021GA1031+007801061GA2081+015001061GE19AGL   +99999+99999GF108991031999007801999999MA1999999099501MD1810161+9999MW1601REMSYN07603962 41568 81103 10051 20040 39950 49974 58016 76062 885// 333 83626 88650=
0181039620999992024010109004+52702-008925FM-15+001499999V0201101N003110152419N009999199+00501+00401999999ADDGA1041+007921999GA2081+015241999GE19AGL   +99999+99999GF199999041999007921999999MA1099701999999MW1611REMMET068METAR EINN 010900Z 11006KT 9999 -RA SCT026 OVC050 05/04 Q0997 NOSIG=
0185039620999992024010109304+52702-008925FM-15+001499999V0201101N004110134119N009999199+00501+00401999999ADDGA1021+007621999GA2081+013411999GE19AGL   +99999+99999GF199999021999007621999999MA1099601999999MW1611REMMET072METAR COR EINN 010930Z 11008KT 9999 -RA FEW025 OVC044 05/04 Q0996 NOSIG=
0219039620999992024010110004+52700-008917FM-12+002099999V0201101N005010099019N006000199+00541+00411099611ADDAY161021AY261021GA1021+003601071GA2081+009901061GE19AGL   +99999+99999GF108991021999003601999999MA1999999099381MD1710231+9999MW1611REMSYN07603962 41456 81105 10054 20041 39938 49961 57023 76166 885// 333 82712 88633=
0193039620999992024010110004+52702-008925FM-15+001499999V0201101N004610100619N006000199+00501+00401999999ADDGA1021+003661999GA2081+010061999GE19AGL   +99999+99999GF199999021999003661999999MA1099601999999MW1611REMMET080METAR EINN 011000Z 11009KT 6000 -RA FEW012 OVC033 05/04 Q0996 TEMPO 4000 BKN010=
0193039620999992024010110304+52702-008925FM-15+001499999V0200901N004610076219N009000199+00601+00501999999ADDGA1021+002741999GA2081+007621999GE19AGL   +99999+99999GF199999021999002741999999MA1099501999999MW1611REMMET080METAR EINN 011030Z 09009KT 9000 -RA FEW009 OVC025 06/05 Q0995 TEMPO 4000 BKN010=
0241039620999992024010111004+52700-008917FM-12+002099999V0201001N00601007801CN018000199+00581+00511099401ADDAY161021AY221021GA1011+002101071GA2051+007801061GA3081+014401061GE19AGL   +99999+99999GF108991011999002101999999MA1999999099161MD1710411+9999MW1211REMSYN08203962 41368 81006 10058 20051 39916 49940 57041 72162 885// 333 81707 85626 88648=
0194039620999992024010111004+52702-008925FM-15+001499999V0201001N006210079219N009999199+00601+00501999999ADDGA1021+002131999GA2071+007921999GA3081+014631999GE19AGL   +99999+99999GF199999021999002131999999MA1099301999999REMMET071METAR EINN 011100Z 10012KT 9999 FEW007 BKN026 OVC048 06/05 Q0993 NOSIG=
0194039620999992024010111304+52702-008925FM-15+001499999V0201001N00621003961CN009999199+00601+00501999999ADDGA1021+002441999GA2041+003961999GA3071+007011999GE19AGL   +99999+99999GF199999021999002441999999MA1099201999999REMMET071METAR EINN 011130Z 10012KT 9999 FEW008 SCT013 BKN023 06/05 Q0992 NOSIG=
0258039620999992024010112004+52700-008917FM-12+002099999V0201101N006010054019N009000199+00631+00551099151ADDAA106002031AY161021AY221021GA1011+002401071GA2031+003901071GA3081+005401071GE19AGL   +99999+99999GF108991011999002401999999MA1999999098911MD1710591+9999MW1601REMSYN08803962 11359 81106 10063 20055 39891 49915 57059 60021 76062 886// 333 81708 83713 88718=
0216039620999992024010112004+52702-008925FM-15+001499999V0201101N00621003961CN009000199+00601+00601999999ADDGA1021+002441999GA2041+003961999GA3081+005491999GE19AGL   +99999+99999GF199999021999002441999999MA1099101999999MW1611REMMET087METAR EINN 011200Z 11012KT 9000 -RA FEW008 SCT013 OVC018 06/06 Q0991 TEMPO 4000 BKN010=
0216039620999992024010112304+52702-008925FM-15+001499999V0201001N00571002741CN009000199+00701+00601999999ADDGA1021+001831999GA2041+002741999GA3081+004571999GE19AGL   +99999+99999GF199999021999001831999999MA1099001999999MW1611REMMET087METAR EINN 011230Z 10011KT 9000 -RA FEW006 SCT009 OVC015 07/06 Q0990 TEMPO 4000 BKN010=
0241039620999992024010113004+52700-008917FM-12+002099999V0201001N005010024019N007000199+00691+00631098911ADDAY161021AY251021GA1031+001801071GA2061+002401071GA3081+003901071GE19AGL   +99999+99999GF108991031999001801999999MA1999999098671MD1710711+9999MW1581REMSYN08203962 41257 81005 10069 20063 39867 49891 57071 75865 886// 333 83706 86708 88713=
0211039620999992024010113004+52702-008925FM-15+001499999V0201001N005110024419N007000199+00701+00601999999ADDGA1041+001831999GA2071+002441999GA3081+003961999GE19AGL   +99999+99999GF199999041999001831999999MA1098901999999MW1581REMMET082METAR EINN 011300Z 10010KT 7000 -RADZ SCT006 BKN008 OVC013 07/06 Q0989 TEMPO 4000=
0211039620999992024010113304+52702-008925FM-15+001499999V0201101N005110021319N008000199+00801+00801999999ADDGA1041+001521999GA2071+002131999GA3081+003661999GE19AGL   +99999+99999GF199999041999001521999999MA1098801999999MW1581REMMET082METAR EINN 011330Z 11010KT 8000 -RADZ SCT005 BKN007 OVC012 08/08 Q0988 TEMPO 4000=
0241039620999992024010114004+52700-008917FM-12+002099999V0201201N005010144019N008000199+00861+00811098681ADDAY161021AY251021GA1011+001801071GA2031+006001061GA3071+014401061GE19AGL   +99999+99999GF108991011999001801999999MA1999999098451MD1810711+9999MW1581REMSYN08203962 41258 81205 10086 20081 39845 49868 58071 75865 885// 333 81706 83620 87648=
0211039620999992024010114004+52702-008925FM-15+001499999V0201201N00461006101CN008000199+00901+00801999999ADDGA1021+001831999GA2041+006101999GA3071+014631999GE19AGL   +99999+99999GF199999021999001831999999MA1098601999999MW1581REMMET082METAR EINN 011400Z 12009KT 8000 -RADZ FEW006 SCT020 BKN048 09/08 Q0986 TEMPO 4000=
0195039620999992024010114304+52702-008925FM-15+001499999V0201201N005110137219N006000199+00901+00901999999ADDGA1041+001831999GA2071+013721999GE19AGL   +99999+99999GF199999041999001831999999MA1098501999999MW1581REMMET082METAR EINN 011430Z 12010KT 6000 -RADZ SCT006 BKN045 09/09 Q0985 TEMPO 4000 BKN008=
0219039620999992024010115004+52700-008917FM-12+002099999V0201101N006010144019N018000199+00931+00871098391ADDAY161021AY251021GA1011+003001071GA2081+014401061GE19AGL   +99999+99999GF108991011999003001999999MA1999999098161MD1810751+9999MW1581REMSYN07603962 41468 81106 10093 20087 39816 49839 58075 75865 885// 333 81710 88648=
0195039620999992024010115004+52702-008925FM-15+001499999V0201101N005710146319N008000199+00901+00901999999ADDGA1021+003051999GA2071+014631999GE19AGL   +99999+99999GF199999021999003051999999MA1098301999999MW1581REMMET082METAR EINN 011500Z 11011KT 8000 -RADZ FEW010 BKN048 09/09 Q0983 TEMPO 4000 BKN008=
0206039620999992024010115304+52702-008925FM-15+001499999V0201201N00621004571CN008000199+01001+00901999999ADDGA1021+002741999GA2041+004571999GA3071+010971999GE19AGL   +99999+99999GF199999021999002741999999MA1098201999999MW1581REMMET077METAR EINN 011530Z 12012KT 8000 -RADZ FEW009 SCT015 BKN036 10/09 Q0982 NOSIG=
0241039620999992024010116004+52700-008917FM-12+002099999V0201201N006010087019N006000199+00961+00871098141ADDAY161021AY251021GA1011+002701071GA2031+003601071GA3071+008701061GE19AGL   +99999+99999GF108991011999002701999999MA1999999097911MD1810761+9999MW1581REMSYN08203962 41356 81206 10096 20087 39791 49814 58076 75865 885// 333 81709 83712 87629=
0206039620999992024010116004+52702-008925FM-15+001499999V0201201N00621003661CN006000199+01001+00901999999ADDGA1021+002741999GA2041+003661999GA3071+008841999GE19AGL   +99999+99999GF199999021999002741999999MA1098102999999MW1581REMMET077METAR EINN 011600Z 12012KT 6000 -RADZ FEW009 SCT012 BKN029 10/09 Q0981 NOSIG=
0206039620999992024010116304+52702-008925FM-15+001499999V0201501N00411003351CN006000199+01001+00901999999ADDGA1021+002441999GA2041+003351999GA3071+005491999GE19AGL   +99999+99999GF199999021999002441999999MA1098102999999MW1581REMMET077METAR EINN 011630Z 15008KT 6000 -RADZ FEW008 SCT011 BKN018 10/09 Q0981 NOSIG=
0219039620999992024010117004+52700-008917FM-12+002099999V0201901N00501003601CN008000199+01011+00941098121ADDAY161021AY251021GA1011+002101071GA2071+003601071GE19AGL   +99999+99999GF108991011999002101999999MA1999999097891MD1610561+9999MW1581REMSYN07603962 41358 81905 10101 20094 39789 49812 56056 75865 886// 333 81707 87712=
0183039620999992024010117004+52702-008925FM-15+001499999V0201901N004610036619N008000199+01001+00901999999ADDGA1021+002131999GA2071+003661999GE19AGL   +99999+99999GF199999021999002131999999MA1098102999999MW1581REMMET070METAR EINN 011700Z 19009KT 8000 -RADZ FEW007 BKN012 10/09 Q0981 NOSIG=
0171039620999992024010117304+52702-008925FM-15+001499999V0202101N005110042719N009999199+01001+01001999999ADDGA1021+002741999GA2071+004271999GE19AGL   +99999+99999GF199999021999002741999999MA1098101999999REMMET064METAR EINN 011730Z 21010KT 9999 FEW009 BKN014 10/10 Q0981 NOSIG=
0242039620999992024010118004+52700-008917FM-12+002099999V0202201N006019999999N020000199+01041+00931098131ADDAA112011031AY161021AY251021GA1011+003601071GA2031+006001061GE19AGL   +99999+99999GF106991011999003601999999MA1999999097901MD1510261+9999MW1211REMSYN08803962 11470 62206 10104 20093 39790 49813 55026 60112 72165 865// 333 10105 81712 83620=
0171039620999992024010118004+52702-008925FM-15+001499999V0202201N00621006101CN009999199+01001+00901999999ADDGA1021+003661999GA2041+006101999GE19AGL   +99999+99999GF199999021999003661999999MA1098101999999REMMET064METAR EINN 011800Z 22012KT 9999 FEW012 SCT020 10/09 Q0981 NOSIG=
0171039620999992024010118304+52702-008925FM-15+001499999V0202301N007210067119N009999199+01101+00901999999ADDGA1041+004881999GA2071+006711999GE19AGL   +99999+99999GF199999041999004881999999MA1098101999999REMMET064METAR EINN 011830Z 23014KT 9999 SCT016 BKN022 11/09 Q0981 NOSIG=
0191039620999992024010119004+52700-008917FM-12+002099999V0202301N00801006001CN015000199+01041+00861098181ADDGA1011+004501071GA2061+006001061GE19AGL   +99999+99999GF107991011999004501999999MA1999999097951MD1310041+9999REMSYN07003962 42465 72308 10104 20086 39795 49818 53004 875// 333 81715 86620=
0171039620999992024010119004+52702-008925FM-15+001499999V0202301N008210061019N009999199+01001+00901999999ADDGA1021+004571999GA2071+006101999GE19AGL   +99999+99999GF199999021999004571999999MA1098101999999REMMET064METAR EINN 011900Z 23016KT 9999 FEW015 BKN020 10/09 Q0981 NOSIG=
0171039620999992024010119304+52702-008925FM-15+001499999V0202301N009310070119N009999199+01101+00901999999ADDGA1021+004271999GA2071+007011999GE19AGL   +99999+99999GF199999021999004271999999MA1098201999999REMMET064METAR EINN 011930Z 23018KT 9999 FEW014 BKN023 11/09 Q0982 NOSIG=
0241039620999992024010120004+52700-008917FM-12+002099999V0202301N011010105019N010000199+01061+00881098261ADDAY181021AY221021GA1011+004801071GA2031+006301081GA3051+010501061GE19AGL   +99999+99999GF107991011999004801999999MA1999999098031MD1310141+9999MW1251REMSYN08203962 41460 72311 10106 20088 39803 49826 53014 72582 878// 333 81716 83821 85635=
0194039620999992024010120004+52702-008925FM-15+001499999V0202301N01081006401CN009999199+01101+00901999999ADDGA1021+004881999GA2041+006401999GA3071+010671999GE19AGL   +99999+99999GF199999021999004881999999MA1098201999999REMMET071METAR EINN 012000Z 23021KT 9999 FEW016 SCT021 BKN035 11/09 Q0982 NOSIG=
0171039620999992024010120304+52702-008925FM-15+001499999V0202301N010310115819N009999199+01101+00901999999ADDGA1021+005491999GA2071+011581999GE19AGL   +99999+99999GF199999021999005491999999MA1098201999999REMMET064METAR EINN 012030Z 23020KT 9999 FEW018 BKN038 11/09 Q0982 NOSIG=
0245039620999992024010121004+52700-008917FM-12+002099999V0202301N01001010501CN016000199+01091+00841098291ADDAY181021AY221021GA1011+005401071GA2051+010501061GE19AGL   +99999+99999GF105991011999005401999999MA1999999098061MD1110161+9999MW1251OD139901801999REMSYN08803962 41466 52310 10109 20084 39806 49829 51016 72582 85500 333 81718 85635 90710 91118=
0171039620999992024010121004+52702-008925FM-15+001499999V0202301N010310106719N009999199+01101+00801999999ADDGA1021+005491999GA2071+010671999GE19AGL   +99999+99999GF199999021999005491999999MA1098201999999REMMET064METAR EINN 012100Z 23020KT 9999 FEW018 BKN035 11/08 Q0982 NOSIG=
0194039620999992024010121304+52702-008925FM-15+001499999V0202301N010310067119N009999199+01101+00901999999ADDGA1021+004881999GA2071+006711999GA3071+010361999GE19AGL   +99999+99999GF199999021999004881999999MA1098301999999REMMET071METAR EINN 012130Z 23020KT 9999 FEW016 BKN022 BKN034 11/09 Q0983 NOSIG=
0191039620999992024010122004+52700-008917FM-12+002099999V0202401N01001010201CN016000199+01081+00851098351ADDGA1011+004801071GA2051+010201061GE19AGL   +99999+99999GF105991011999004801999999MA1999999098121MD1210171+9999REMSYN07003962 42466 52410 10108 20085 39812 49835 52017 85530 333 81716 85634=
0171039620999992024010122004+52702-008925FM-15+001499999V0202401N009810103619N009999199+01101+00901999999ADDGA1021+004881999GA2071+010361999GE19AGL   +99999+99999GF199999021999004881999999MA1098301999999REMMET064METAR EINN 012200Z 24019KT 9999 FEW016 BKN034 11/09 Q0983 NOSIG=
0194039620999992024010122304+52702-008925FM-15+001499999V0202301N00821005491CN009999199+01101+00901999999ADDGA1021+004571999GA2041+005491999GA3071+010671999GE19AGL   +99999+99999GF199999021999004571999999MA1098301999999REMMET071METAR EINN 012230Z 23016KT 9999 FEW015 SCT018 BKN035 11/09 Q0983 NOSIG=
0241039620999992024010123004+52700-008917FM-12+002099999V0202301N009010084019N010000199+01041+00901098381ADDAY181021AY221021GA1011+003601071GA2031+005401081GA3051+008401061GE19AGL   +99999+99999GF106991011999003601999999MA1999999098151MD1210121+9999MW1251REMSYN08203962 41460 62309 10104 20090 39815 49838 52012 72582 868// 333 81712 83818 85628=
0194039620999992024010123004+52702-008925FM-15+001499999V0202301N00931005491CN009999199+01001+00901999999ADDGA1021+003661999GA2041+005491999GA3071+008531999GE19AGL   +99999+99999GF199999021999003661999999MA1098301999999REMMET071METAR EINN 012300Z 23018KT 9999 FEW012 SCT018 BKN028 10/09 Q0983 NOSIG=
0171039620999992024010123304+52702-008925FM-15+001499999V0202201N00881011581CN009999199+01001+00801999999ADDGA1021+005491999GA2041+011581999GE19AGL   +99999+99999GF199999021999005491999999MA1098301999999REMMET064METAR EINN 012330Z 22017KT 9999 FEW018 SCT038 10/08 Q0983 NOSIG=
0214039620999992024010200004+52700-008917FM-12+002099999V0202301N009012200019N017000199+01041+00801098401ADDAA106000431AY181021AY211021GA1011+005401081GE19AGL   +99999+99999GF101991011999005401999999MA1999999098171MD1110111+9999MW1011REMSYN07603962 11467 12309 10104 20080 39817 49840 51011 69941 70181 81800 333 81818=
0148039620999992024010200004+52702-008925FM-15+001499999V0202301N009319999999N009999199+01001+00801999999ADDGA1021+005491999GE19AGL   +99999+99999GF199999021999005491999999MA1098401999999REMMET057METAR EINN 020000Z 23018KT 9999 FEW018 10/08 Q0984 NOSIG=
0148039620999992024010200304+52702-008925FM-15+001499999V0202301N008219999999N009999199+01001+00801999999ADDGA1021+005491999GE19AGL   +99999+99999GF199999021999005491999999MA1098301999999REMMET057METAR EINN 020030Z 23016KT 9999 FEW018 10/08 Q0983 NOSIG=
0185039620999992024010201004+52700-008917FM-12+002099999V0202301N008012200019N018000199+01021+00791098401ADDGA1011+006001061GA2999+999999001GE19AGL   +99999+99999GF102991011999006001999999MA1999999098171MD1110051+9999REMSYN06403962 42568 22308 10102 20079 39817 49840 51005 81502 333 81620=
0148039620999992024010201004+52702-008925FM-15+001499999V0202301N007719999999N009999199+01001+00801999999ADDGA1021+006101999GE19AGL   +99999+99999GF199999021999006101999999MA1098401999999REMMET057METAR EINN 020100Z 23015KT 9999 FEW020 10/08 Q0984 NOSIG=
0171039620999992024010201304+52702-008925FM-15+001499999V0202201N007710115819N009999199+01001+00801999999ADDGA1021+005491999GA2071+011581999GE19AGL   +99999+99999GF199999021999005491999999MA1098301999999REMMET064METAR EINN 020130Z 22015KT 9999 FEW018 BKN038 10/08 Q0983 NOSIG=
0235039620999992024010202004+52700-008917FM-12+002099999V0202201N00701051001CN018000199+01031+00741098341ADDAY181021AY211021GA1011+005401081GA2071+051001001GA3999+999999001GE19AGL   +99999+99999GF107991011999005401999999MA1999999098111MD1810041+9999MW1251REMSYN07603962 41468 72207 10103 20074 39811 49834 58004 72581 81832 333 81818 87067=
0171039620999992024010202004+52702-008925FM-15+001499999V0202201N006710518219N009999199+01001+00701999999ADDGA1021+005491999GA2071+051821999GE19AGL   +99999+99999GF199999021999005491999999MA1098301999999REMMET064METAR EINN 020200Z 22013KT 9999 FEW018 BKN170 10/07 Q0983 NOSIG=
0171039620999992024010202304+52702-008925FM-15+001499999V0202201N00571048771CN009999199+01001+00701999999ADDGA1021+006101999GA2041+048771999GE19AGL   +99999+99999GF199999021999006101999999MA1098301999999REMMET064METAR EINN 020230Z 22011KT 9999 FEW020 SCT160 10/07 Q0983 NOSIG=
0219039620999992024010203004+52700-008917FM-12+002099999V0201801N00401018001CN018000199+00971+00771098311ADDAY181021AY211021GA1011+006001061GA2071+018001061GE19AGL   +99999+99999GF107991011999006001999999MA1999999098081MD1810091+9999MW1021REMSYN07603962 41568 71804 10097 20077 39808 49831 58009 70281 875// 333 81620 87656=
0171039620999992024010203004+52702-008925FM-15+001499999V0201801N004110182919N009999199+01001+00801999999ADDGA1021+006101999GA2071+018291999GE19AGL   +99999+99999GF199999021999006101999999MA1098301999999REMMET064METAR EINN 020300Z 18008KT 9999 FEW020 BKN060 10/08 Q0983 NOSIG=
0204039620999992024010203304+52702-008925FM-15+001499999V0202001N00411013721CN009999199+01001+00801999999ADDGA1041+006101999GA2041+013721999GA3071+018291999GE19AGL   +99999+99999GF199999041999006101999999MA1098201999999MW1611REMMET075METAR EINN 020330Z 20008KT 9999 -RA SCT020 SCT045 BKN060 10/08 Q0982 NOSIG=
0235039620999992024010204004+52700-008917FM-12+002099999V0201801N00301027001CN018000199+00981+00821098231ADDAY161021AY221021GA1011+005401071GA2051+027001031GA3999+999999001GE19AGL   +99999+99999GF107991011999005401999999MA1999999098001MD1810171+9999MW1211REMSYN07603962 41468 71803 10098 20082 39800 49823 58017 72162 82632 333 81718 85359=
0171039620999992024010204004+52702-008925FM-15+001499999V0201801N003110274319N009999199+01001+00801999999ADDGA1021+005491999GA2071+027431999GE19AGL   +99999+99999GF199999021999005491999999MA1098201999999REMMET064METAR EINN 020400Z 18006KT 9999 FEW018 BKN090 10/08 Q0982 NOSIG=
0194039620999992024010204304+52702-008925FM-15+001499999V0201701N002610146319N009999199+01001+00801999999ADDGA1021+003961999GA2071+014631999GA3071+027431999GE19AGL   +99999+99999GF199999021999003961999999MA1098101999999REMMET071METAR EINN 020430Z 17005KT 9999 FEW013 BKN048 BKN090 10/08 Q0981 NOSIG=
0213039620999992024010205004+52700-008917FM-12+002099999V0201301N00201006001CN018000199+00991+00831098111ADDGA1011+004201071GA2051+006001061GA3061+027001031GE19AGL   +99999+99999GF107991011999004201999999MA1999999097881MD1810231+9999REMSYN07603962 42468 71302 10099 20083 39788 49811 58023 8553/ 333 81714 85620 86359=
0194039620999992024010205004+52702-008925FM-15+001499999V0201301N002110061019N009999199+01001+00801999999ADDGA1021+004271999GA2071+006101999GA3071+027431999GE19AGL   +99999+99999GF199999021999004271999999MA1098101999999REMMET071METAR EINN 020500Z 13004KT 9999 FEW014 BKN020 BKN090 10/08 Q0981 NOSIG=
0171039620999992024010205304+52702-008925FM-15+001499999V0201501N003610054919N009999199+00901+00801999999ADDGA1021+003961999GA2071+005491999GE19AGL   +99999+99999GF199999021999003961999999MA1098001999999REMMET064METAR EINN 020530Z 15007KT 9999 FEW013 BKN018 09/08 Q0980 NOSIG=
0289039620999992024010206004+52700-008917FM-12+002099999V0201501N00301005101CN016000199+00901+00781098041ADDAA112000431AY181021AY261021GA1011+003601071GA2051+005101071GA3061+010201061GE19AGL   +99999+99999GF107991011999003601999999KA1240N+00901MA1999999097811MD1710271+9999MW1601REMSYN10603962 11466 71503 10090 20078 39781 49804 57027 69942 76086 876// 333 20090 3/007 55000 81712 85717 86634=
0204039620999992024010206004+52702-008925FM-15+001499999V0201501N002610051819N009999199+00901+00801999999ADDGA1021+003661999GA2071+005181999GA3071+010361999GE19AGL   +99999+99999GF199999021999003661999999MA1098001999999MW1611REMMET075METAR EINN 020600Z 15005KT 9999 -RA FEW012 BKN017 BKN034 09/08 Q0980 NOSIG=
0204039620999992024010206304+52702-008925FM-15+001499999V0201601N003110097519N009999199+00901+00801999999ADDGA1021+003661999GA2071+009751999GA3071+018291999GE19AGL   +99999+99999GF199999021999003661999999MA1097901999999MW1611REMMET075METAR EINN 020630Z 16006KT 9999 -RA FEW012 BKN032 BKN060 09/08 Q0979 NOSIG=
0241039620999992024010207004+52700-008917FM-12+002099999V0201601N004010180019N012000199+00931+00851097961ADDAY161021AY261021GA1011+003001071GA2031+003601071GA3071+018001061GE19AGL   +99999+99999GF108991011999003001999999MA1999999097731MD1710271+9999MW1611REMSYN08203962 41462 81604 10093 20085 39773 49796 57027 76166 885// 333 81710 83712 87656=
0204039620999992024010207004+52702-008925FM-15+001499999V0201601N00361003661CN009999199+00901+00901999999ADDGA1021+003051999GA2041+003661999GA3071+018291999GE19AGL   +99999+99999GF199999021999003051999999MA1097901999999MW1611REMMET075METAR EINN 020700Z 16007KT 9999 -RA FEW010 SCT012 BKN060 09/09 Q0979 NOSIG=
0209039620999992024010207304+52702-008925FM-15+001499999V0201501N00211003961CN008000199+00901+00901999999ADDGA1021+003051999GA2041+003961999GA3071+010361999GE19AGL   +99999+99999GF199999021999003051999999MA1097901999999MW1611REMMET080METAR EINN 020730Z 15004KT 8000 -RA FEW010 SCT013 BKN034 09/09 Q0979 TEMPO 3000=
0241039620999992024010208004+52700-008917FM-12+002099999V0201801N003010150019N010000199+00921+00841097931ADDAY161021AY261021GA1011+003301071GA2031+010201061GA3071+015001061GE19AGL   +99999+99999GF108991011999003301999999MA1999999097701MD1610181+9999MW1611REMSYN08203962 41460 81803 10092 20084 39770 49793 56018 76166 885// 333 81711 83634 87650=
0209039620999992024010208004+52702-008925FM-15+001499999V0201801N00311010361CN009999199+00901+00801999999ADDGA1021+003351999GA2041+010361999GA3071+015241999GE19AGL   +99999+99999GF199999021999003351999999MA1097901999999MW1611REMMET080METAR EINN 020800Z 18006KT 9999 -RA FEW011 SCT034 BKN050 09/08 Q0979 TEMPO 3000=
0209039620999992024010208304+52702-008925FM-15+001499999V0201801N003110045719N009000199+00901+00801999999ADDGA1021+002741999GA2071+004571999GA3081+009141999GE19AGL   +99999+99999GF199999021999002741999999MA1097901999999MW1611REMMET080METAR EINN 020830Z 18006KT 9000 -RA FEW009 BKN015 OVC030 09/08 Q0979 TEMPO 3000=
0241039620999992024010209004+52700-008917FM-12+002099999V0202101N00501003301CN007000199+00911+00821097921ADDAY161021AY221021GA1011+002701071GA2051+003301071GA3081+005401071GE19AGL   +99999+99999GF108991011999002701999999MA1999999097691MD1610121+9999MW1631REMSYN08203962 41357 82105 10091 20082 39769 49792 56012 76362 886// 333 81709 85711 88718=
0208039620999992024010209004+52702-008925FM-15+001499999V0202101N005110033519N007000199+00901+00801999999ADDGA1021+002741999GA2071+003351999GA3081+005491999GE19AGL   +99999+99999GF199999021999002741999999MA1097901999999MW1631REMMET079METAR EINN 020900Z 21010KT 7000 RA FEW009 BKN011 OVC018 09/08 Q0979 TEMPO 3000=
0208039620999992024010209304+52702-008925FM-15+001499999V0202201N003110036619N006000199+00901+00801999999ADDGA1021+002131999GA2071+003661999GA3081+009141999GE19AGL   +99999+99999GF199999021999002131999999MA1097901999999MW1631REMMET079METAR EINN 020930Z 22006KT 6000 RA FEW007 BKN012 OVC030 09/08 Q0979 TEMPO 3000=
0241039620999992024010210004+52700-008917FM-12+002099999V0202301N00501004201CN007000199+00861+00771097951ADDAY161021AY261021GA1021+002401071GA2051+004201071GA3081+008401061GE19AGL   +99999+99999GF108991021999002401999999MA1999999097721MD1510011+9999MW1611REMSYN08203962 41357 82305 10086 20077 39772 49795 55001 76166 886// 333 82708 85714 88628=
0209039620999992024010210004+52702-008925FM-15+001499999V0202301N005110042719N007000199+00901+00801999999ADDGA1021+002441999GA2071+004271999GA3081+008531999GE19AGL   +99999+99999GF199999021999002441999999MA1097901999999MW1611REMMET080METAR EINN 021000Z 23010KT 7000 -RA FEW008 BKN014 OVC028 09/08 Q0979 TEMPO 3000=
0204039620999992024010210304+52702-008925FM-15+001499999V0202201N004110045719N009000199+00901+00801999999ADDGA1021+002441999GA2071+004571999GA3081+015241999GE19AGL   +99999+99999GF199999021999002441999999MA1097901999999MW1611REMMET075METAR EINN 021030Z 22008KT 9000 -RA FEW008 BKN015 OVC050 09/08 Q0979 NOSIG=
0241039620999992024010211004+52700-008917FM-12+002099999V0202201N006010084019N009000199+00871+00781097971ADDAY161021AY261021GA1011+002401071GA2031+003601071GA3081+008401061GE19AGL   +99999+99999GF108991011999002401999999MA1999999097741MD1310041+9999MW1611REMSYN08203962 41359 82206 10087 20078 39774 49797 53004 76166 885// 333 81708 83712 88628=
0204039620999992024010211004+52702-008925FM-15+001499999V0202201N00621003661CN009000199+00901+00801999999ADDGA1021+002441999GA2041+003661999GA3081+008531999GE19AGL   +99999+99999GF199999021999002441999999MA1097901999999MW1611REMMET075METAR EINN 021100Z 22012KT 9000 -RA FEW008 SCT012 OVC028 09/08 Q0979 NOSIG=
0204039620999992024010211304+52702-008925FM-15+001499999V0202201N007210033519N008000199+00901+00801999999ADDGA1021+002131999GA2071+003351999GA3081+012191999GE19AGL   +99999+99999GF199999021999002131999999MA1097901999999MW1611REMMET075METAR EINN 021130Z 22014KT 8000 -RA FEW007 BKN011 OVC040 09/08 Q0979 NOSIG=
0258039620999992024010212004+52700-008917FM-12+002099999V0202301N006010111019N008000199+00871+00791098001ADDAA106007031AY161021AY251021GA1011+001801071GA2031+003601071GA3061+011101061GE19AGL   +99999+99999GF108991011999001801999999MA1999999097771MD1210081+9999MW1501REMSYN08803962 11258 82306 10087 20079 39777 49800 52008 60071 75065 885// 333 81706 83712 86637=
0204039620999992024010212004+52702-008925FM-15+001499999V0202301N00621003661CN008000199+00901+00801999999ADDGA1021+001831999GA2041+003661999GA3071+011281999GE19AGL   +99999+99999GF199999021999001831999999MA1098001999999MW1511REMMET075METAR EINN 021200Z 23012KT 8000 -DZ FEW006 SCT012 BKN037 09/08 Q0980 NOSIG=
0211039620999992024010212304+52702-008925FM-15+001499999V0202301N005110036619N009999199+00801+00801999999ADDGA1021+002441999GA2071+003661999GA3081+005491999GE19AGL   +99999+99999GF199999021999002441999999MA1098001999999MW1611REMMET082METAR EINN 021230Z 23010KT 9999 -RA FEW008 BKN012 OVC018 08/08 Q0980 BECMG BKN015=
0241039620999992024010213004+52700-008917FM-12+002099999V0202201N006010096019N015000199+00911+00831098011ADDAY151021AY221021GA1011+001801071GA2031+003901071GA3071+009601061GE19AGL   +99999+99999GF107991011999001801999999MA1999999097781MD1210061+9999MW1201REMSYN08203962 41265 72206 10091 20083 39778 49801 52006 72052 878// 333 81706 83713 87632=
0194039620999992024010213004+52702-008925FM-15+001499999V0202201N00571003961CN009999199+00901+00801999999ADDGA1021+001831999GA2041+003961999GA3071+009751999GE19AGL   +99999+99999GF199999021999001831999999MA1098001999999REMMET071METAR EINN 021300Z 22011KT 9999 FEW006 SCT013 BKN032 09/08 Q0980 NOSIG=
0206039620999992024010213304+52702-008925FM-15+001499999V0202201N00881004271CN007000199+00901+00801999999ADDGA1021+001521999GA2041+004271999GA3071+011581999GE19AGL   +99999+99999GF199999021999001521999999MA1098001999999MW1801REMMET077METAR EINN 021330Z 22017KT 7000 -SHRA FEW005 SCT014 BKN038 09/08 Q0980 NOSIG=
0219039620999992024010214004+52700-008917FM-12+002099999V0202501N00801010501CN030000199+00921+00731098041ADDAY181021AY221021GA1011+003601071GA2051+010501061GE19AGL   +99999+99999GF105991011999003601999999MA1999999097811MD1310071+9999MW1251REMSYN07603962 41480 52508 10092 20073 39781 49804 53007 72582 85800 333 81712 85635=
0171039620999992024010214004+52702-008925FM-15+001499999V0202501N008210106719N009999199+00901+00701999999ADDGA1021+003661999GA2071+010671999GE19AGL   +99999+99999GF199999021999003661999999MA1098001999999REMMET064METAR EINN 021400Z 25016KT 9999 FEW012 BKN035 09/07 Q0980 NOSIG=
0217039620999992024010214304+52702-008925FM-15+001499999V0202401N010810061019N006000199+00801+00701999999ADDGA1021+002441999GA2071+006101999GA3071+008531999GE19AGL   +99999+99999GF199999021999002441999999MA1098001999999MW1801OC101651REMMET080METAR EINN 021430Z 24021G32KT 6000 -SHRA FEW008 BKN020 BKN028 08/07 Q0980 NOSIG=
0219039620999992024010215004+52700-008917FM-12+002099999V0202501N008019999999N020000199+00831+00691098131ADDAY181021AY221021GA1011+004501071GA2041+008101061GE19AGL   +99999+99999GF106991011999004501999999MA1999999097901MD1310131+9999MW1251REMSYN07603962 41470 62508 10083 20069 39790 49813 53013 72582 868// 333 81715 84627=
0171039620999992024010215004+52702-008925FM-15+001499999V0202501N00821008231CN009999199+00801+00701999999ADDGA1021+004571999GA2041+008231999GE19AGL   +99999+99999GF199999021999004571999999MA1098101999999REMMET064METAR EINN 021500Z 25016KT 9999 FEW015 SCT027 08/07 Q0981 NOSIG=
0171039620999992024010215304+52702-008925FM-15+001499999V0202501N00571012191CN009999199+00801+00701999999ADDGA1021+005791999GA2041+012191999GE19AGL   +99999+99999GF199999021999005791999999MA1098101999999REMMET064METAR EINN 021530Z 25011KT 9999 FEW019 SCT040 08/07 Q0981 NOSIG=
0191039620999992024010216004+52700-008917FM-12+002099999V0202401N005012200019N030000199+00871+00701098201ADDGA1011+005401071GA2041+013501061GE19AGL   +99999+99999GF104991011999005401999999MA1999999097971MD1310191+9999REMSYN07003962 42480 42405 10087 20070 39797 49820 53019 84800 333 81718 84645=
0171039620999992024010216004+52702-008925FM-15+001499999V0202401N00461013721CN009999199+00901+00701999999ADDGA1021+005491999GA2041+013721999GE19AGL   +99999+99999GF199999021999005491999999MA1098201999999REMMET064METAR EINN 021600Z 24009KT 9999 FEW018 SCT045 09/07 Q0982 NOSIG=
0171039620999992024010216304+52702-008925FM-15+001499999V0202401N00461006401CN009999199+00901+00701999999ADDGA1021+005181999GA2041+006401999GE19AGL   +99999+99999GF199999021999005181999999MA1098201999999REMMET064METAR EINN 021630Z 24009KT 9999 FEW017 SCT021 09/07 Q0982 NOSIG=
0213039620999992024010217004+52700-008917FM-12+002099999V0202201N005019999999N020000199+00831+00691098241ADDGA1011+005101071GA2011+006001091GA3031+007801061GE19AGL   +99999+99999GF105991011999005101999999MA1999999098011MD1110201+9999REMSYN07603962 42470 52205 10083 20069 39801 49824 51020 85300 333 81717 81920 83626=
0196039620999992024010217004+52702-008925FM-15+001499999V0202201N00511007921CN009999199+00801+00701999999ADDGA1021+005181999GA2021+006101091GA3041+007921999GE19AGL   +99999+99999GF199999021999005181999999MA1098201999999REMMET073METAR EINN 021700Z 22010KT 9999 FEW017 FEW020CB SCT026 08/07 Q0982 NOSIG=
0196039620999992024010217304+52702-008925FM-15+001499999V0202201N00571005181CN009999199+00901+00701999999ADDGA1021+004571999GA2041+005181999GA3021+006101091GE19AGL   +99999+99999GF199999021999004571999999MA1098201999999REMMET073METAR EINN 021730Z 22011KT 9999 FEW015 SCT017 FEW020CB 09/07 Q0982 NOSIG=
0264039620999992024010218004+52700-008917FM-12+002099999V0202201N00401005101CN020000199+00871+00741098281ADDAA112007031AY181021AY251021GA1011+003601071GA2051+005101071GA3011+006001091GE19AGL   +99999+99999GF105991011999003601999999MA1999999098051MD1310151+9999MW1801REMSYN09403962 11470 52204 10087 20074 39805 49828 53015 60072 78085 85300 333 10099 81712 85717 81920=
0208039620999992024010218004+52702-008925FM-15+001499999V0202201N004110051819N009999199+00901+00701999999ADDGA1021+003661999GA2071+005181999GA3021+006101091GE19AGL   +99999+99999GF199999021999003661999999MA1098201999999MW1801REMMET079METAR EINN 021800Z 22008KT 9999 -SHRA FEW012 BKN017 FEW020CB 09/07 Q0982 NOSIG=
0196039620999992024010218304+52702-008925FM-15+001499999V0202101N004110048819N009999199+00901+00801999999ADDGA1021+003961999GA2071+004881999GA3021+006101091GE19AGL   +99999+99999GF199999021999003961999999MA1098201999999REMMET073METAR EINN 021830Z 21008KT 9999 FEW013 BKN016 FEW020CB 09/08 Q0982 NOSIG=
0219039620999992024010219004+52700-008917FM-12+002099999V0202001N004012200019N020000199+00791+00631098271ADDAY181021AY221021GA1011+004801071GA2041+007201061GE19AGL   +99999+99999GF104991011999004801999999MA1999999098041MD1990071+9999MW1251REMSYN07603962 41470 42004 10079 20063 39804 49827 50007 72582 84500 333 81716 84624=
0171039620999992024010219004+52702-008925FM-15+001499999V0202001N00411007321CN009999199+00801+00601999999ADDGA1021+004881999GA2041+007321999GE19AGL   +99999+99999GF199999021999004881999999MA1098201999999REMMET064METAR EINN 021900Z 20008KT 9999 FEW016 SCT024 08/06 Q0982 NOSIG=
0202039620999992024010219304+52702-008925FM-15+001499999V0201901V00361010971CN009999199+00801+00701999999ADDGA1021+006711999GA2041+010971999GA3071+027431999GE19AGL   +99999+99999GF199999021999006711999999MA1098201999999REMMET079METAR EINN 021930Z 19007KT 160V220 9999 FEW022 SCT036 BKN090 08/07 Q0982 NOSIG=
0219039620999992024010220004+52700-008917FM-12+002099999V0201801N004012200019N020000199+00801+00641098271ADDAY181021AY221021GA1011+009601061GA2031+015001061GE19AGL   +99999+99999GF104991011999009601999999MA1999999098041MD1990031+9999MW1251REMSYN07603962 41570 41804 10080 20064 39804 49827 50003 72582 84570 333 81632 83650=
0171039620999992024010220004+52702-008925FM-15+001499999V0201801N00411015241CN009999199+00801+00601999999ADDGA1021+009751999GA2041+015241999GE19AGL   +99999+99999GF199999021999009751999999MA1098201999999REMMET064METAR EINN 022000Z 18008KT 9999 FEW032 SCT050 08/06 Q0982 NOSIG=
0208039620999992024010220304+52702-008925FM-15+001499999V0201801N00511015241CN009999199+00801+00601999999ADDGA1021+006101091GA2041+015241999GA3071+024381999GE19AGL   +99999+99999GF199999021999006101999999MA1098201999999MW1801REMMET079METAR EINN 022030Z 18010KT 9999 -SHRA FEW020CB SCT050 BKN080 08/06 Q0982 NOSIG=
0241039620999992024010221004+52700-008917FM-12+002099999V0201901N004010240019N018000199+00761+00651098251ADDAY181021AY221021GA1011+006001091GA2031+018001061GA3061+024001031GE19AGL   +99999+99999GF107991011999006001999999MA1999999098021MD1810031+9999MW1251REMSYN08203962 41568 71904 10076 20065 39802 49825 58003 72582 8333/ 333 81920 83656 86358=
0196039620999992024010221004+52702-008925FM-15+001499999V0201901N00411018291CN009999199+00801+00701999999ADDGA1021+006101091GA2041+018291999GA3071+024381999GE19AGL   +99999+99999GF199999021999006101999999MA1098201999999REMMET073METAR EINN 022100Z 19008KT 9999 FEW020CB SCT060 BKN080 08/07 Q0982 NOSIG=
0196039620999992024010221304+52702-008925FM-15+001499999V0201901N005710146319N009999199+00801+00701999999ADDGA1021+006101091GA2071+014631999GA3071+021341999GE19AGL   +99999+99999GF199999021999006101999999MA1098201999999REMMET073METAR EINN 022130Z 19011KT 9999 FEW020CB BKN048 BKN070 08/07 Q0982 NOSIG=
0219039620999992024010222004+52700-008917FM-12+002099999V0201801N00401013201CN018000199+00781+00651098241ADDAY181021AY221021GA1011+006001091GA2071+013201061GE19AGL   +99999+99999GF107991011999006001999999MA1999999098011MD1810031+9999MW1251REMSYN07603962 41568 71804 10078 20065 39801 49824 58003 72582 873// 333 81920 87644=
0173039620999992024010222004+52702-008925FM-15+001499999V0201801N004110134119N009999199+00801+00701999999ADDGA1021+006101091GA2071+013411999GE19AGL   +99999+99999GF199999021999006101999999MA1098201999999REMMET066METAR EINN 022200Z 18008KT 9999 FEW020CB BKN044 08/07 Q0982 NOSIG=
0173039620999992024010222304+52702-008925FM-15+001499999V0201801N004110152419N009999199+00801+00601999999ADDGA1021+006101091GA2071+015241999GE19AGL   +99999+99999GF199999021999006101999999MA1098201999999REMMET066METAR EINN 022230Z 18008KT 9999 FEW020CB BKN050 08/06 Q0982 NOSIG=
0241039620999992024010223004+52700-008917FM-12+002099999V0201801N00501007801CN018000199+00791+00661098231ADDAY181021AY221021GA1021+006001091GA2031+007801061GA3061+015001061GE19AGL   +99999+99999GF107991021999006001999999MA1999999098001MD1710041+9999MW1251REMSYN08203962 41568 71805 10079 20066 39800 49823 57004 72582 873// 333 82920 83626 86650=
0196039620999992024010223004+52702-008925FM-15+001499999V0201801N00461007921CN009999199+00801+00701999999ADDGA1021+006101091GA2041+007921999GA3071+015241999GE19AGL   +99999+99999GF199999021999006101999999MA1098201999999REMMET073METAR EINN 022300Z 18009KT 9999 FEW020CB SCT026 BKN050 08/07 Q0982 NOSIG=
0193039620999992024010223304+52702-008925FM-15+001499999V0202401V003610054919N009999199+00801+00701999999ADDGA1021+003661999GA2071+005491091GE19AGL   +99999+99999GF199999021999003661999999MA1098201999999MW1801REMMET080METAR EINN 022330Z 24007KT 210V280 9999 -SHRA FEW012 BKN018CB 08/07 Q0982 NOSIG=
0280039620999992024010300004+52700-008917FM-12+002099999V0201901N00301013801CN018000199+00781+00661098291ADDAA106000431AY181021AY221021GA1011+003001071GA2021+005401091GA3051+013801061GA4061+033001031GE19AGL   +99999+99999GF107991011999003001999999MA1999999098061MD1310041+9999MW1251REMSYN09403962 11468 71903 10078 20066 39806 49829 53004 69941 72582 8533/ 333 81710 82918 85646 86361=
0219039620999992024010300004+52702-008925FM-15+001499999V0201901N002610140219N009999199+00801+00701999999ADDGA1021+003051999GA2021+005491091GA3071+014021999GA4071+033531999GE19AGL   +99999+99999GF199999021999003051999999MA1098201999999REMMET080METAR EINN 030000Z 19005KT 9999 FEW010 FEW018CB BKN046 BKN110 08/07 Q0982 NOSIG=
0185039620999992024010300304+52702-008925FM-15+001499999V0201801N002610054919N009999199+00801+00701999999ADDGA1021+003051999GA2071+005491091GE19AGL   +99999+99999GF199999021999003051999999MA1098201999999MW1801REMMET072METAR EINN 030030Z 18005KT 9999 -SHRA FEW010 BKN018CB 08/07 Q0982 NOSIG=
0241039620999992024010301004+52700-008917FM-12+002099999V0201801N00301005401CN011000199+00741+00661098281ADDAY181021AY221021GA1021+003001071GA2031+005401091GA3061+007801061GE19AGL   +99999+99999GF107991021999003001999999MA1999999098051MD1990041+9999MW1801REMSYN08203962 41461 71803 10074 20066 39805 49828 50004 78082 873// 333 82710 83918 86626=
0208039620999992024010301004+52702-008925FM-15+001499999V0201801N00261005491CN009999199+00701+00701999999ADDGA1021+003051999GA2041+005491091GA3071+007921999GE19AGL   +99999+99999GF199999021999003051999999MA1098201999999MW1801REMMET079METAR EINN 030100Z 18005KT 9999 -SHRA FEW010 SCT018CB BKN026 07/07 Q0982 NOSIG=
0196039620999992024010301304+52702-008925FM-15+001499999V0201801N003110609619N009999199+00701+00701999999ADDGA1021+003051999GA2021+005491091GA3071+060961999GE19AGL   +99999+99999GF199999021999003051999999MA1098201999999REMMET073METAR EINN 030130Z 18006KT 9999 FEW010 FEW018CB BKN200 07/07 Q0982 NOSIG=
0241039620999992024010302004+52700-008917FM-12+002099999V0202101N00301060001CN020000199+00761+00691098291ADDAY181021AY221021GA1011+003001071GA2011+005401091GA3051+060001001GE19AGL   +99999+99999GF105991011999003001999999MA1999999098061MD1310061+9999MW1251REMSYN08203962 41470 52103 10076 20069 39806 49829 53006 72582 82332 333 81710 81918 85070=
0196039620999992024010302004+52702-008925FM-15+001499999V0202101N003110609619N009999199+00801+00701999999ADDGA1021+003051999GA2021+005491091GA3071+060961999GE19AGL   +99999+99999GF199999021999003051999999MA1098201999999REMMET073METAR EINN 030200Z 21006KT 9999 FEW010 FEW018CB BKN200 08/07 Q0982 NOSIG=
0196039620999992024010302304+52702-008925FM-15+001499999V0202101N00411011581CN009999199+00801+00701999999ADDGA1021+006101091GA2041+011581999GA3071+030481999GE19AGL   +99999+99999GF199999021999006101999999MA1098301999999REMMET073METAR EINN 030230Z 21008KT 9999 FEW020CB SCT038 BKN100 08/07 Q0983 NOSIG=
0241039620999992024010303004+52700-008917FM-12+002099999V0202101N004010150019N020000199+00781+00711098331ADDAY181021AY221021GA1021+003001071GA2011+006001091GA3061+015001061GE19AGL   +99999+99999GF107991021999003001999999MA1999999098101MD1310041+9999MW1031REMSYN08203962 41470 72104 10078 20071 39810 49833 53004 70382 873// 333 82710 81920 86650=
0196039620999992024010303004+52702-008925FM-15+001499999V0202101N003610152419N009999199+00801+00701999999ADDGA1021+003051999GA2021+006101091GA3071+015241999GE19AGL   +99999+99999GF199999021999003051999999MA1098301999999REMMET073METAR EINN 030300Z 21007KT 9999 FEW010 FEW020CB BKN050 08/07 Q0983 NOSIG=
0196039620999992024010303304+52702-008925FM-15+001499999V0202201N004110152419N009999199+00801+00701999999ADDGA1021+003051999GA2021+006101091GA3071+015241999GE19AGL   +99999+99999GF199999021999003051999999MA1098301999999REMMET073METAR EINN 030330Z 22008KT 9999 FEW010 FEW020CB BKN050 08/07 Q0983 NOSIG=
0235039620999992024010304004+52700-008917FM-12+002099999V0202301N00401018001CN020000199+00771+00691098351ADDGA1021+003001071GA2011+006001091GA3031+018001061GA4061+036001031GE19AGL   +99999+99999GF107991021999003001999999MA1999999098121MD1210071+9999REMSYN08203962 42470 72304 10077 20069 39812 49835 52007 85353 333 82710 81920 83656 86362=
0219039620999992024010304004+52702-008925FM-15+001499999V0202301N00361018291CN009999199+00801+00701999999ADDGA1021+003051999GA2021+006101091GA3041+018291999GA4071+036581999GE19AGL   +99999+99999GF199999021999003051999999MA1098301999999REMMET080METAR EINN 030400Z 23007KT 9999 FEW010 FEW020CB SCT060 BKN120 08/07 Q0983 NOSIG=
0196039620999992024010304304+52702-008925FM-15+001499999V0202101N00411018291CN009999199+00801+00701999999ADDGA1021+006101091GA2041+018291999GA3071+039621999GE19AGL   +99999+99999GF199999021999006101999999MA1098301999999REMMET073METAR EINN 030430Z 21008KT 9999 FEW020CB SCT060 BKN130 08/07 Q0983 NOSIG=
0213039620999992024010305004+52700-008917FM-12+002099999V0202101N005010330019N020000199+00791+00661098391ADDGA1011+006001091GA2031+012901061GA3061+033001031GE19AGL   +99999+99999GF107991011999006001999999MA1999999098161MD1210101+9999REMSYN07603962 42570 72105 10079 20066 39816 49839 52010 8433/ 333 81920 83643 86361=
0196039620999992024010305004+52702-008925FM-15+001499999V0202101N00511013111CN009999199+00801+00701999999ADDGA1021+006101091GA2041+013111999GA3071+033531999GE19AGL   +99999+99999GF199999021999006101999999MA1098301999999REMMET073METAR EINN 030500Z 21010KT 9999 FEW020CB SCT043 BKN110 08/07 Q0983 NOSIG=
0208039620999992024010305304+52702-008925FM-15+001499999V0202001N00411005491CN009999199+00801+00601999999ADDGA1021+003051999GA2041+005491091GA3071+011281999GE19AGL   +99999+99999GF199999021999003051999999MA1098401999999MW1801REMMET079METAR EINN 030530Z 20008KT 9999 -SHRA FEW010 SCT018CB BKN037 08/06 Q0984 NOSIG=
0311039620999992024010306004+52700-008917FM-12+002099999V0202201N00501011101CN020000199+00801+00711098451ADDAA112002031AY181021AY221021GA1011+003001071GA2021+005401091GA3031+011101061GA4071+024001031GE19AGL   +99999+99999GF107991011999003001999999KA1240N+00711MA1999999098221MD1210121+9999MW1251REMSYN11203962 11470 72205 10080 20071 39822 49845 52012 60022 72582 8433/ 333 20071 3/006 55013 81710 82918 83637 87358=
0219039620999992024010306004+52702-008925FM-15+001499999V0202201N00461011281CN009999199+00801+00701999999ADDGA1021+003051999GA2021+005491091GA3041+011281999GA4071+024381999GE19AGL   +99999+99999GF199999021999003051999999MA1098401999999REMMET080METAR EINN 030600Z 22009KT 9999 FEW010 FEW018CB SCT037 BKN080 08/07 Q0984 NOSIG=
0173039620999992024010306304+52702-008925FM-15+001499999V0202301N003610061019N009999199+00801+00701999999ADDGA1021+004271999GA2071+006101091GE19AGL   +99999+99999GF199999021999004271999999MA1098501999999REMMET066METAR EINN 030630Z 23007KT 9999 FEW014 BKN020CB 08/07 Q0985 NOSIG=
0241039620999992024010307004+52700-008917FM-12+002099999V0202301N00301006001CN020000199+00771+00701098541ADDAY181021AY221021GA1021+004201071GA2031+006001091GA3061+010801061GE19AGL   +99999+99999GF107991021999004201999999MA1999999098311MD1210191+9999MW1251REMSYN08203962 41470 72303 10077 20070 39831 49854 52019 72582 873// 333 82714 83920 86636=
0196039620999992024010307004+52702-008925FM-15+001499999V0202301N00261006101CN009999199+00801+00701999999ADDGA1021+004271999GA2041+006101091GA3071+010971999GE19AGL   +99999+99999GF199999021999004271999999MA1098501999999REMMET073METAR EINN 030700Z 23005KT 9999 FEW014 SCT020CB BKN036 08/07 Q0985 NOSIG=
0173039620999992024010307304+52702-008925FM-15+001499999V0202401N00261060961CN009999199+00701+00701999999ADDGA1021+006101091GA2041+060961999GE19AGL   +99999+99999GF199999021999006101999999MA1098601999999REMMET066METAR EINN 030730Z 24005KT 9999 FEW020CB SCT200 07/07 Q0986 NOSIG=
0241039620999992024010308004+52700-008917FM-12+002099999V0202401N003012200019N020000199+00761+00691098661ADDAY181021AY221021GA1011+004201071GA2011+005401091GA3031+060001001GE19AGL   +99999+99999GF104991011999004201999999MA1999999098431MD1210271+9999MW1251REMSYN08203962 41470 42403 10076 20069 39843 49866 52027 72582 81301 333 81714 81918 83070=
0196039620999992024010308004+52702-008925FM-15+001499999V0202401N00311060961CN009999199+00801+00701999999ADDGA1021+004271999GA2021+005491091GA3041+060961999GE19AGL   +99999+99999GF199999021999004271999999MA1098601999999REMMET073METAR EINN 030800Z 24006KT 9999 FEW014 FEW018CB SCT200 08/07 Q0986 NOSIG=
0173039620999992024010308304+52702-008925FM-15+001499999V0202301N003110073219N009999199+00801+00701999999ADDGA1021+005491091GA2071+007321999GE19AGL   +99999+99999GF199999021999005491999999MA1098701999999REMMET066METAR EINN 030830Z 23006KT 9999 FEW018CB BKN024 08/07 Q0987 NOSIG=
0235039620999992024010309004+52700-008917FM-12+002099999V0202401N00401007201CN020000199+00771+00681098781ADDAY181021AY221021GA1021+005401091GA2051+007201061GA3999+999999001GE19AGL   +99999+99999GF105991021999005401999999MA1999999098551MD1210331+9999MW1011REMSYN07603962 41470 52404 10077 20068 39855 49878 52033 70182 85371 333 82918 85624=
0173039620999992024010309004+52702-008925FM-15+001499999V0202401N003610073219N009999199+00801+00701999999ADDGA1021+005491091GA2071+007321999GE19AGL   +99999+99999GF199999021999005491999999MA1098701999999REMMET066METAR EINN 030900Z 24007KT 9999 FEW018CB BKN024 08/07 Q0987 NOSIG=
0196039620999992024010309304+52702-008925FM-15+001499999V0202401N005110067119N008000199+00801+00701999999ADDGA1041+002441999GA2021+005491091GA3071+006711999GE19AGL   +99999+99999GF199999041999002441999999MA1098801999999REMMET073METAR EINN 030930Z 24010KT 8000 SCT008 FEW018CB BKN022 08/07 Q0988 NOSIG=
0241039620999992024010310004+52700-008917FM-12+002099999V0202301N00401007201CN010000199+00791+00721098851ADDAY181021AY221021GA1021+002401071GA2011+005401091GA3051+007201061GE19AGL   +99999+99999GF106991021999002401999999MA1999999098621MD1110311+9999MW1251REMSYN08203962 41360 62304 10079 20072 39862 49885 51031 72582 85371 333 82708 81918 85624=
0196039620999992024010310004+52702-008925FM-15+001499999V0202301N003610073219N009999199+00801+00701999999ADDGA1021+002441999GA2021+005491091GA3071+007321999GE19AGL   +99999+99999GF199999021999002441999999MA1098801999999REMMET073METAR EINN 031000Z 23007KT 9999 FEW008 FEW018CB BKN024 08/07 Q0988 NOSIG=
0208039620999992024010310304+52702-008925FM-15+001499999V0202301N004610067119N008000199+00801+00701999999ADDGA1041+002441999GA2021+005491091GA3071+006711999GE19AGL   +99999+99999GF199999041999002441999999MA1098901999999MW1801REMMET079METAR EINN 031030Z 23009KT 8000 -SHRA SCT008 FEW018CB BKN022 08/07 Q0989 NOSIG=
0163039620999992024010311004+52700-008920FM-12+001499999V0202301N0050100660199012000199+00821+00741098981ADDAY181999AY221999GA1021+002401071GA2021+005401091GA3051+006601061GE19AGL   +99999+99999GF106991021999002401999999MA1999999098751MD1210321+9999MW1251REMSYN004BUFR
0196039620999992024010311004+52702-008925FM-15+001499999V0202301N004610067119N009999199+00801+00701999999ADDGA1021+002441999GA2021+005491091GA3071+006711999GE19AGL   +99999+99999GF199999021999002441999999MA1098901999999REMMET073METAR EINN 031100Z 23009KT 9999 FEW008 FEW018CB BKN022 08/07 Q0989 NOSIG=
0196039620999992024010311304+52702-008925FM-15+001499999V0202301N004610067119N009999199+00801+00701999999ADDGA1021+002441999GA2021+005491091GA3071+006711999GE19AGL   +99999+99999GF199999021999002441999999MA1099001999999REMMET073METAR EINN 031130Z 23009KT 9999 FEW008 FEW018CB BKN022 08/07 Q0990 NOSIG=
0174039620999992024010312004+52700-008920FM-12+001499999V0202301N00501007201C9020000199+00821+00741099031ADDAA199001031AY181999AY221999GA1011+002401071GA2021+005401091GA3051+007201061GE19AGL   +99999+99999GF106991011999002401999999MA1999999098801MD1110251+9999MW1021REMSYN004BUFR
0196039620999992024010312004+52702-008925FM-15+001499999V0202301N004610073219N009999199+00801+00701999999ADDGA1021+002441999GA2021+005491091GA3071+007321999GE19AGL   +99999+99999GF199999021999002441999999MA1099001999999REMMET073METAR EINN 031200Z 23009KT 9999 FEW008 FEW018CB BKN024 08/07 Q0990 NOSIG=
0196039620999992024010312304+52702-008925FM-15+001499999V0202401N00571007321CN009999199+00901+00801999999ADDGA1021+002441999GA2021+005491091GA3041+007321999GE19AGL   +99999+99999GF199999021999002441999999MA1099001999999REMMET073METAR EINN 031230Z 24011KT 9999 FEW008 FEW018CB SCT024 09/08 Q0990 NOSIG=
0157039620999992024010313004+52700-008920FM-12+001499999V0202301N0060199999999020000199+00951+00771099071ADDAZ101999AZ201999GA1011+002401071GA2011+005401091GA3031+006001081GE19AGL   +99999+99999GF105991011999002401999999MA1999999098841MD1110221+9999REMSYN004BUFR
0196039620999992024010313004+52702-008925FM-15+001499999V0202301N00571006101CN009999199+01001+00801999999ADDGA1021+002441999GA2021+005491091GA3041+006101999GE19AGL   +99999+99999GF199999021999002441999999MA1099001999999REMMET073METAR EINN 031300Z 23011KT 9999 FEW008 FEW018CB SCT020 10/08 Q0990 NOSIG=
0196039620999992024010313304+52702-008925FM-15+001499999V0202301N00571006711CN009999199+00901+00801999999ADDGA1021+002441999GA2021+005491091GA3041+006711999GE19AGL   +99999+99999GF199999021999002441999999MA1099001999999REMMET073METAR EINN 031330Z 23011KT 9999 FEW008 FEW018CB SCT022 09/08 Q0990 NOSIG=
0235039620999992024010314004+52700-008917FM-12+002099999V0202401N00601006601CN012000199+00971+00791099131ADDGA1021+002401071GA2011+005401091GA3031+006601081GA4051+009001061GE19AGL   +99999+99999GF105991021999002401999999MA1999999098901MD1210151+9999REMSYN08203962 42362 52406 10097 20079 39890 49913 52015 85300 333 82708 81918 83822 85630=
0219039620999992024010314004+52702-008925FM-15+001499999V0202401N00571006711CN009999199+01001+00801999999ADDGA1021+002441999GA2021+005491091GA3041+006711999GA4071+009141999GE19AGL   +99999+99999GF199999021999002441999999MA1099101999999REMMET080METAR EINN 031400Z 24011KT 9999 FEW008 FEW018CB SCT022 BKN030 10/08 Q0991 NOSIG=
0208039620999992024010314304+52702-008925FM-15+001499999V0202501N004110109719N008000199+00901+00701999999ADDGA1021+002441999GA2021+005491091GA3071+010971999GE19AGL   +99999+99999GF199999021999002441999999MA1099101999999MW1801REMMET079METAR EINN 031430Z 25008KT 8000 -SHRA FEW008 FEW018CB BKN036 09/07 Q0991 NOSIG=
0241039620999992024010315004+52700-008917FM-12+002099999V0202501N006010078019N008000199+00861+00731099191ADDAY181021AY221021GA1011+002401071GA2021+005401091GA3071+007801061GE19AGL   +99999+99999GF107991011999002401999999MA1999999098961MD1210161+9999MW1801REMSYN08203962 41358 72506 10086 20073 39896 49919 52016 78082 873// 333 81708 82918 87626=
0215039620999992024010315004+52702-008925FM-15+001499999V0202501N005710079219N008000199+00901+00701999999ADDGA1021+002441999GA2021+005491091GA3071+007921999GE19AGL   +99999+99999GF199999021999002441999999MA1099101999999MW1801REMMET086METAR EINN 031500Z 25011KT 8000 -SHRA FEW008 FEW018CB BKN026 09/07 Q0991 RESHRA NOSIG=
0203039620999992024010315304+52702-008925FM-15+001499999V0202501N006210091419N009999199+00801+00701999999ADDGA1021+002441999GA2021+005491091GA3071+009141999GE19AGL   +99999+99999GF199999021999002441999999MA1099201999999REMMET080METAR EINN 031530Z 25012KT 9999 FEW008 FEW018CB BKN030 08/07 Q0992 RESHRA NOSIG=
0241039620999992024010316004+52700-008917FM-12+002099999V0202501N008010105019N008000199+00821+00701099281ADDAY181021AY221021GA1011+002401071GA2021+005401091GA3061+010501061GE19AGL   +99999+99999GF107991011999002401999999MA1999999099051MD1310211+9999MW1801REMSYN08203962 41358 72508 10082 20070 39905 49928 53021 78082 873// 333 81708 82918 86635=
0215039620999992024010316004+52702-008925FM-15+001499999V0202501N007710106719N008000199+00801+00701999999ADDGA1021+002441999GA2021+005491091GA3071+010671999GE19AGL   +99999+99999GF199999021999002441999999MA1099201999999MW1801REMMET086METAR EINN 031600Z 25015KT 8000 -SHRA FEW008 FEW018CB BKN035 08/07 Q0992 RESHRA NOSIG=
0217039620999992024010316304+52702-008925FM-15+001499999V0202501N009310106719N008000199+00801+00701999999ADDGA1021+002441999GA2021+005491091GA3071+010671999GE19AGL   +99999+99999GF199999021999002441999999MA1099301999999MW1611OC101541REMMET080METAR EINN 031630Z 25018G30KT 8000 -RA FEW008 FEW018CB BKN035 08/07 Q0993 NOSIG=
0219039620999992024010317004+52700-008917FM-12+002099999V0202501N00601015001CN020000199+00781+00641099401ADDAY181021AY221021GA1011+005401091GA2071+015001061GE19AGL   +99999+99999GF107991011999005401999999MA1999999099171MD1310271+9999MW1251REMSYN07603962 41470 72506 10078 20064 39917 49940 53027 72582 873// 333 81918 87650=
0173039620999992024010317004+52702-008925FM-15+001499999V0202501N006210152419N009999199+00801+00601999999ADDGA1021+005491091GA2071+015241999GE19AGL   +99999+99999GF199999021999005491999999MA1099401999999REMMET066METAR EINN 031700Z 25012KT 9999 FEW018CB BKN050 08/06 Q0994 NOSIG=
0173039620999992024010317304+52702-008925FM-15+001499999V0202501N00621013411CN009999199+00801+00701999999ADDGA1021+005491091GA2041+013411999GE19AGL   +99999+99999GF199999021999005491999999MA1099401999999REMMET066METAR EINN 031730Z 25012KT 9999 FEW018CB SCT044 08/07 Q0994 NOSIG=
0242039620999992024010318004+52700-008917FM-12+002099999V0202401N007012200019N020000199+00781+00611099491ADDAA112005031AY181021AY221021GA1011+005401091GA2041+012001061GE19AGL   +99999+99999GF104991011999005401999999MA1999999099261MD1210301+9999MW1251REMSYN08803962 11470 42407 10078 20061 39926 49949 52030 60052 72582 84300 333 10098 81918 84640=
0173039620999992024010318004+52702-008925FM-15+001499999V0202401N00671012191CN009999199+00801+00601999999ADDGA1021+005491091GA2041+012191999GE19AGL   +99999+99999GF199999021999005491999999MA1099401999999REMMET066METAR EINN 031800Z 24013KT 9999 FEW018CB SCT040 08/06 Q0994 NOSIG=
0173039620999992024010318304+52702-008925FM-15+001499999V0202501N004610131119N009999199+00801+00601999999ADDGA1021+005491091GA2071+013111999GE19AGL   +99999+99999GF199999021999005491999999MA1099501999999REMMET066METAR EINN 031830Z 25009KT 9999 FEW018CB BKN043 08/06 Q0995 NOSIG=
0219039620999992024010319004+52700-008917FM-12+002099999V0202301N00701012001CN008000199+00771+00601099561ADDAY181021AY221021GA1021+005401091GA2061+012001061GE19AGL   +99999+99999GF107991021999005401999999MA1999999099331MD1110281+9999MW1801REMSYN07603962 41458 72307 10077 20060 39933 49956 51028 78082 873// 333 82918 86640=
0185039620999992024010319004+52702-008925FM-15+001499999V0202301N006710121919N008000199+00801+00601999999ADDGA1021+005491091GA2071+012191999GE19AGL   +99999+99999GF199999021999005491999999MA1099501999999MW1801REMMET072METAR EINN 031900Z 23013KT 8000 -SHRA FEW018CB BKN040 08/06 Q0995 NOSIG=
0185039620999992024010319304+52702-008925FM-15+001499999V0202501N00821015241CN009999199+00801+00601999999ADDGA1021+005491091GA2041+015241999GE19AGL   +99999+99999GF199999021999005491999999MA1099601999999MW1801REMMET072METAR EINN 031930Z 25016KT 9999 -SHRA FEW018CB SCT050 08/06 Q0996 NOSIG=
0219039620999992024010320004+52700-008917FM-12+002099999V0202401N00801015001CN018000199+00731+00591099641ADDAY181021AY221021GA1011+005401091GA2071+015001061GE19AGL   +99999+99999GF107991011999005401999999MA1999999099401MD1110231+9999MW1251REMSYN07603962 41468 72408 10073 20059 39940 49964 51023 72582 873// 333 81918 87650=
0173039620999992024010320004+52702-008925FM-15+001499999V0202401N007710152419N009999199+00701+00601999999ADDGA1021+005491091GA2071+015241999GE19AGL   +99999+99999GF199999021999005491999999MA1099601999999REMMET066METAR EINN 032000Z 24015KT 9999 FEW018CB BKN050 07/06 Q0996 NOSIG=
0206039620999992024010320304+52702-008925FM-15+001499999V0202401N00821014941CN009999199+00801+00601999999ADDGA1021+006101999GA2041+014941999GA3071+027431999GE19AGL   +99999+99999GF199999021999006101999999MA1099601999999MW1801REMMET077METAR EINN 032030Z 24016KT 9999 -SHRA FEW020 SCT049 BKN090 08/06 Q0996 NOSIG=
0241039620999992024010321004+52700-008917FM-12+002099999V0202301N006010210019N020000199+00731+00511099701ADDAY181021AY221021GA1011+006001081GA2031+010801061GA3051+021001031GE19AGL   +99999+99999GF106991011999006001999999MA1999999099461MD1210201+9999MW1251REMSYN08203962 41570 62306 10073 20051 39946 49970 52020 72582 8383/ 333 81820 83636 85357=
0194039620999992024010321004+52702-008925FM-15+001499999V0202301N00571010971CN009999199+00701+00501999999ADDGA1021+006101999GA2041+010971999GA3071+021341999GE19AGL   +99999+99999GF199999021999006101999999MA1099601999999REMMET071METAR EINN 032100Z 23011KT 9999 FEW020 SCT036 BKN070 07/05 Q0996 NOSIG=
0171039620999992024010321304+52702-008925FM-15+001499999V0202301N00571027431CN009999199+00801+00501999999ADDGA1021+006101999GA2041+027431999GE19AGL   +99999+99999GF199999021999006101999999MA1099701999999REMMET064METAR EINN 032130Z 23011KT 9999 FEW020 SCT090 08/05 Q0997 NOSIG=
0191039620999992024010322004+52700-008917FM-12+002099999V0202301N005019999999N020000199+00751+00481099781ADDGA1011+007201081GA2041+021001031GE19AGL   +99999+99999GF105991011999007201999999MA1999999099541MD1210211+9999REMSYN07003962 42570 52305 10075 20048 39954 49978 52021 82830 333 81824 84357=
0171039620999992024010322004+52702-008925FM-15+001499999V0202301N00511021341CN009999199+00801+00501999999ADDGA1021+007321999GA2041+021341999GE19AGL   +99999+99999GF199999021999007321999999MA1099701999999REMMET064METAR EINN 032200Z 23010KT 9999 FEW024 SCT070 08/05 Q0997 NOSIG=
0171039620999992024010322304+52702-008925FM-15+001499999V0202301N00511010971CN009999199+00701+00501999999ADDGA1021+007321999GA2041+010971999GE19AGL   +99999+99999GF199999021999007321999999MA1099701999999REMMET064METAR EINN 032230Z 23010KT 9999 FEW024 SCT036 07/05 Q0997 NOSIG=
0207039620999992024010323004+52700-008917FM-12+002099999V0202401N006019999999N020000199+00761+00471099801ADDGA1011+007201081GA2041+060001001GA3999+999999001GE19AGL   +99999+99999GF105991011999007201999999MA1999999099561MD1210161+9999REMSYN07003962 42570 52406 10076 20047 39956 49980 52016 81831 333 81824 84070=
0171039620999992024010323004+52702-008925FM-15+001499999V0202401N00571060961CN009999199+00801+00501999999ADDGA1021+007321999GA2041+060961999GE19AGL   +99999+99999GF199999021999007321999999MA1099701999999REMMET064METAR EINN 032300Z 24011KT 9999 FEW024 SCT200 08/05 Q0997 NOSIG=
0171039620999992024010323304+52702-008925FM-15+001499999V0202301N006710609619N009999199+00801+00501999999ADDGA1021+012191999GA2071+060961999GE19AGL   +99999+99999GF199999021999012191999999MA1099801999999REMMET064METAR EINN 032330Z 23013KT 9999 FEW040 BKN200 08/05 Q0998 NOSIG=
0258039620999992024010400004+52700-008917FM-12+002099999V0202401N007010210019N020000199+00711+00431099851ADDAA106000831AY181021AY221021GA1011+006001091GA2031+012601061GA3061+021001031GE19AGL   +99999+99999GF107991011999006001999999MA1999999099611MD1210151+9999MW1801REMSYN08803962 11570 72407 10071 20043 39961 49985 52015 69981 78082 8433/ 333 81920 83642 86357=
0208039620999992024010400004+52702-008925FM-15+001499999V0202401N00721012801CN009999199+00701+00401999999ADDGA1021+006101091GA2041+012801999GA3071+021341999GE19AGL   +99999+99999GF199999021999006101999999MA1099801999999MW1801REMMET079METAR EINN 040000Z 24014KT 9999 -SHRA FEW020CB SCT042 BKN070 07/04 Q0998 NOSIG=
0171039620999992024010400304+52702-008925FM-15+001499999V0202301N00721021341CN009999199+00701+00401999999ADDGA1021+007921999GA2041+021341999GE19AGL   +99999+99999GF199999021999007921999999MA1099801999999REMMET064METAR EINN 040030Z 23014KT 9999 FEW026 SCT070 07/04 Q0998 NOSIG=
0219039620999992024010401004+52700-008917FM-12+002099999V0202301N007012200019N020000199+00731+00471099851ADDAY181021AY221021GA1011+006001091GA2041+014401061GE19AGL   +99999+99999GF104991011999006001999999MA1999999099611MD1110071+9999MW1251REMSYN07603962 41570 42307 10073 20047 39961 49985 51007 72582 84300 333 81920 84648=
0173039620999992024010401004+52702-008925FM-15+001499999V0202301N00671014631CN009999199+00701+00501999999ADDGA1021+006101091GA2041+014631999GE19AGL   +99999+99999GF199999021999006101999999MA1099801999999REMMET066METAR EINN 040100Z 23013KT 9999 FEW020CB SCT048 07/05 Q0998 NOSIG=
0171039620999992024010401304+52702-008925FM-15+001499999V0202201N00511012801CN009999199+00701+00401999999ADDGA1021+007921999GA2041+012801999GE19AGL   +99999+99999GF199999021999007921999999MA1099801999999REMMET064METAR EINN 040130Z 22010KT 9999 FEW026 SCT042 07/04 Q0998 NOSIG=
0219039620999992024010402004+52700-008917FM-12+002099999V0202301N004012200019N020000199+00671+00371099891ADDAY181021AY221021GA1011+006001081GA2041+010801061GE19AGL   +99999+99999GF104991011999006001999999MA1999999099651MD1310091+9999MW1251REMSYN07603962 41570 42304 10067 20037 39965 49989 53009 72582 84800 333 81820 84636=
0171039620999992024010402004+52702-008925FM-15+001499999V0202301N00411010971CN009999199+00701+00401999999ADDGA1021+006101999GA2041+010971999GE19AGL   +99999+99999GF199999021999006101999999MA1099801999999REMMET064METAR EINN 040200Z 23008KT 9999 FEW020 SCT036 07/04 Q0998 NOSIG=
0148039620999992024010402304+52702-008925FM-15+001499999V0202001N004619999999N009999199+00601+00401999999ADDGA1041+012191999GE19AGL   +99999+99999GF199999041999012191999999MA1099901999999REMMET057METAR EINN 040230Z 20009KT 9999 SCT040 06/04 Q0999 NOSIG=
0219039620999992024010403004+52700-008917FM-12+002099999V0202301N00501021001CN020000199+00681+00421099941ADDAY181021AY221021GA1021+009001061GA2051+021001031GE19AGL   +99999+99999GF106991021999009001999999MA1999999099701MD1310091+9999MW1031REMSYN07603962 41570 62305 10068 20042 39970 49994 53009 70382 82530 333 82630 85357=
0171039620999992024010403004+52702-008925FM-15+001499999V0202301N004610213419N009999199+00701+00401999999ADDGA1021+009141999GA2071+021341999GE19AGL   +99999+99999GF199999021999009141999999MA1099901999999REMMET064METAR EINN 040300Z 23009KT 9999 FEW030 BKN070 07/04 Q0999 NOSIG=
0171039620999992024010403304+52702-008925FM-15+001499999V0202201N004110152419N009999199+00701+00401999999ADDGA1021+009141999GA2071+015241999GE19AGL   +99999+99999GF199999021999009141999999MA1099901999999REMMET064METAR EINN 040330Z 22008KT 9999 FEW030 BKN050 07/04 Q0999 NOSIG=
0219039620999992024010404004+52700-008917FM-12+002099999V0201901N00401013201CN020000199+00591+00381099941ADDAY181021AY221021GA1011+007801081GA2071+013201061GE19AGL   +99999+99999GF107991011999007801999999MA1999999099701MD1110091+9999MW1251REMSYN07603962 41570 71904 10059 20038 39970 49994 51009 72582 878// 333 81826 87644=
0171039620999992024010404004+52702-008925FM-15+001499999V0201901N004110134119N009999199+00601+00401999999ADDGA1021+007921999GA2071+013411999GE19AGL   +99999+99999GF199999021999007921999999MA1099901999999REMMET064METAR EINN 040400Z 19008KT 9999 FEW026 BKN044 06/04 Q0999 NOSIG=
0171039620999992024010404304+52702-008925FM-15+001499999V0202001N004110146319N009999199+00601+00401999999ADDGA1021+008231999GA2071+014631999GE19AGL   +99999+99999GF199999021999008231999999MA1099901999999REMMET064METAR EINN 040430Z 20008KT 9999 FEW027 BKN048 06/04 Q0999 NOSIG=
0191039620999992024010405004+52700-008917FM-12+002099999V0202001N001012200019N020000199+00541+00331099911ADDGA1011+009001061GA2031+015001061GE19AGL   +99999+99999GF103991011999009001999999MA1999999099671MD1990021+9999REMSYN07003962 42570 32001 10054 20033 39967 49991 50002 83500 333 81630 83650=
0171039620999992024010405004+52702-008925FM-15+001499999V0202001N00361015241CN009999199+00501+00301999999ADDGA1021+009141999GA2041+015241999GE19AGL   +99999+99999GF199999021999009141999999MA1099901999999REMMET064METAR EINN 040500Z 20007KT 9999 FEW030 SCT050 05/03 Q0999 NOSIG=
0171039620999992024010405304+52702-008925FM-15+001499999V0202101N003110149419N009999199+00601+00401999999ADDGA1021+009141999GA2071+014941999GE19AGL   +99999+99999GF199999021999009141999999MA1099901999999REMMET064METAR EINN 040530Z 21006KT 9999 FEW030 BKN049 06/04 Q0999 NOSIG=
0245039620999992024010406004+52700-008917FM-12+002099999V0201901N004012200019N020000199+00521+00321099941ADDAA112001031AY181021AY211021GA1011+009001061GE19AGL   +99999+99999GF102991011999009001999999KA1240N+00521MA1999999099701MD1510001+9999MW1011REMSYN09403962 11570 21904 10052 20032 39970 49994 55000 60012 70181 82500 333 20052 3/003 55025 81630=
0148039620999992024010406004+52702-008925FM-15+001499999V0201901N003619999999N009999199+00501+00301999999ADDGA1021+009141999GE19AGL   +99999+99999GF199999021999009141999999MA1099901999999REMMET057METAR EINN 040600Z 19007KT 9999 FEW030 05/03 Q0999 NOSIG=
0148039620999992024010406304+52702-008925FM-15+001499999V0201901N003619999999N009999199+00501+00301999999ADDGA1021+009141999GE19AGL   +99999+99999GF199999021999009141999999MA1099901999999REMMET057METAR EINN 040630Z 19007KT 9999 FEW030 05/03 Q0999 NOSIG=
0197039620999992024010407004+52700-008917FM-12+002099999V0202001N004012200019N020000199+00471+00311099931ADDAY181021AY201021GA1011+007801081GE19AGL   +99999+99999GF102991011999007801999999MA1999999099691MD1510011+9999MW1251REMSYN07003962 41570 22004 10047 20031 39969 49993 55001 72580 82800 333 81826=
0148039620999992024010407004+52702-008925FM-15+001499999V0202001N003619999999N009999199+00501+00301999999ADDGA1021+007921999GE19AGL   +99999+99999GF199999021999007921999999MA1099901999999REMMET057METAR EINN 040700Z 20007KT 9999 FEW026 05/03 Q0999 NOSIG=
0171039620999992024010407304+52702-008925FM-15+001499999V0201901N00211015241CN009999199+00501+00301999999ADDGA1021+007921999GA2041+015241999GE19AGL   +99999+99999GF199999021999007921999999MA1099901999999REMMET064METAR EINN 040730Z 19004KT 9999 FEW026 SCT050 05/03 Q0999 NOSIG=
0169039620999992024010408004+52700-008917FM-12+002099999V0201901N003012200019N020000199+00431+00281099941ADDGA1011+006301081GE19AGL   +99999+99999GF101991011999006301999999MA1999999099701MD1310031+9999REMSYN06403962 42570 11903 10043 20028 39970 49994 53003 81800 333 81821=
0148039620999992024010408004+52702-008925FM-15+001499999V0201901N002619999999N009999199+00401+00301999999ADDGA1021+006401999GE19AGL   +99999+99999GF199999021999006401999999MA1099901999999REMMET057METAR EINN 040800Z 19005KT 9999 FEW021 04/03 Q0999 NOSIG=
0171039620999992024010408304+52702-008925FM-15+001499999V0209999V00051009751CN009999199+00401+00301999999ADDGA1021+006101999GA2041+009751999GE19AGL   +99999+99999GF199999021999006101999999MA1099901999999REMMET064METAR EINN 040830Z VRB01KT 9999 FEW020 SCT032 04/03 Q0999 NOSIG=
0219039620999992024010409004+52700-008917FM-12+002099999V0201701N002012200019N020000199+00391+00271099961ADDAY181021AY201021GA1011+006001081GA2031+012001061GE19AGL   +99999+99999GF103991011999006001999999MA1999999099721MD1310021+9999MW1031REMSYN07603962 41570 31702 10039 20027 39972 49996 53002 70380 83870 333 81820 83640=
0171039620999992024010409004+52702-008925FM-15+001499999V0201701N00211012191CN009999199+00401+00301999999ADDGA1021+006101999GA2041+012191999GE19AGL   +99999+99999GF199999021999006101999999MA1099901999999REMMET064METAR EINN 040900Z 17004KT 9999 FEW020 SCT040 04/03 Q0999 NOSIG=
0171039620999992024010409304+52702-008925FM-15+001499999V0209999V00151007321CN009999199+00401+00301999999ADDGA1021+006101999GA2041+007321999GE19AGL   +99999+99999GF199999021999006101999999MA1099901999999REMMET064METAR EINN 040930Z VRB03KT 9999 FEW020 SCT024 04/03 Q0999 NOSIG=
0207039620999992024010410004+52700-008917FM-12+002099999V0201601N003012200019N020000199+00441+00331099961ADDGA1011+006001081GA2031+007201061GA3999+999999001GE19AGL   +99999+99999GF103991011999006001999999MA1999999099721MD1110031+9999REMSYN07003962 42570 31603 10044 20033 39972 49996 51003 83871 333 81820 83624=
0171039620999992024010410004+52702-008925FM-15+001499999V0201601N00311007321CN009999199+00401+00301999999ADDGA1021+006101999GA2041+007321999GE19AGL   +99999+99999GF199999021999006101999999MA1099901999999REMMET064METAR EINN 041000Z 16006KT 9999 FEW020 SCT024 04/03 Q0999 NOSIG=
0171039620999992024010410304+52702-008925FM-15+001499999V0201701N00211009141CN009999199+00501+00401999999ADDGA1021+006711999GA2041+009141999GE19AGL   +99999+99999GF199999021999006711999999MA1099901999999REMMET064METAR EINN 041030Z 17004KT 9999 FEW022 SCT030 05/04 Q0999 NOSIG=
0185039620999992024010411004+52700-008917FM-12+002099999V0201801N003012200019N020000199+00591+00341099981ADDGA1011+006001081GA2999+999999031GE19AGL   +99999+99999GF102991011999006001999999MA1999999099741MD1210041+9999REMSYN06403962 42570 21803 10059 20034 39974 49998 52004 82870 333 81820=
0148039620999992024010411004+52702-008925FM-15+001499999V0201801N003119999999N009999199+00601+00301999999ADDGA1021+006101999GE19AGL   +99999+99999GF199999021999006101999999MA1099901999999REMMET057METAR EINN 041100Z 18006KT 9999 FEW020 06/03 Q0999 NOSIG=
0148039620999992024010411304+52702-008925FM-15+001499999V0202001N003119999999N009999199+00601+00401999999ADDGA1021+006101999GE19AGL   +99999+99999GF199999021999006101999999MA1099901999999REMMET057METAR EINN 041130Z 20006KT 9999 FEW020 06/04 Q0999 NOSIG=
0230039620999992024010412004+52700-008917FM-12+002099999V0201801N003012200019N020000199+00731+00441099931ADDAA106000231AY181021AY201021GA1011+006001081GA2999+999999031GE19AGL   +99999+99999GF102991011999006001999999MA1999999099691MD1810031+9999MW1251REMSYN07603962 11570 21803 10073 20044 39969 49993 58003 69921 72580 82870 333 81820=
0148039620999992024010412004+52702-008925FM-15+001499999V0201801N003119999999N009999199+00701+00401999999ADDGA1021+006101999GE19AGL   +99999+99999GF199999021999006101999999MA1099901999999REMMET057METAR EINN 041200Z 18006KT 9999 FEW020 07/04 Q0999 NOSIG=
0171039620999992024010412304+52702-008925FM-15+001499999V0202001N00311009141CN009999199+00801+00501999999ADDGA1021+006101999GA2041+009141999GE19AGL   +99999+99999GF199999021999006101999999MA1099901999999REMMET064METAR EINN 041230Z 20006KT 9999 FEW020 SCT030 08/05 Q0999 NOSIG=
0219039620999992024010413004+52700-008917FM-12+002099999V0202101N004012200019N020000199+00831+00451099901ADDAY181021AY201021GA1011+006001081GA2031+010201061GE19AGL   +99999+99999GF103991011999006001999999MA1999999099661MD1810061+9999MW1251REMSYN07603962 41570 32104 10083 20045 39966 49990 58006 72580 83870 333 81820 83634=
0171039620999992024010413004+52702-008925FM-15+001499999V0202101N00361010361CN009999199+00801+00501999999ADDGA1021+006101999GA2041+010361999GE19AGL   +99999+99999GF199999021999006101999999MA1099801999999REMMET064METAR EINN 041300Z 21007KT 9999 FEW020 SCT034 08/05 Q0998 NOSIG=
0171039620999992024010413304+52702-008925FM-15+001499999V0202201N00361009141CN009999199+00901+00501999999ADDGA1021+006101999GA2041+009141999GE19AGL   +99999+99999GF199999021999006101999999MA1099801999999REMMET064METAR EINN 041330Z 22007KT 9999 FEW020 SCT030 09/05 Q0998 NOSIG=
0191039620999992024010414004+52700-008917FM-12+002099999V0202301N004012200019N030000199+00821+00401099871ADDGA1011+006001081GA2031+008401061GE19AGL   +99999+99999GF103991011999006001999999MA1999999099631MD1710111+9999REMSYN07003962 42580 32304 10082 20040 39963 49987 57011 83870 333 81820 83628=
0171039620999992024010414004+52702-008925FM-15+001499999V0202301N00361008531CN009999199+00801+00401999999ADDGA1021+006101999GA2041+008531999GE19AGL   +99999+99999GF199999021999006101999999MA1099801999999REMMET064METAR EINN 041400Z 23007KT 9999 FEW020 SCT028 08/04 Q0998 NOSIG=
0173039620999992024010414304+52702-008925FM-15+001499999V0202201N003619999999N009999199+00801+00501999999ADDGA1021+005491999GA2021+006101091GE19AGL   +99999+99999GF199999021999005491999999MA1099801999999REMMET066METAR EINN 041430Z 22007KT 9999 FEW018 FEW020CB 08/05 Q0998 NOSIG=
0241039620999992024010415004+52700-008917FM-12+002099999V0202201N004012200019N018000199+00881+00511099851ADDAY181021AY211021GA1011+005401071GA2011+006001091GA3031+024001031GE19AGL   +99999+99999GF104991011999005401999999MA1999999099621MD1610071+9999MW1031REMSYN08203962 41468 42204 10088 20051 39962 49985 56007 70381 83931 333 81718 81920 83358=
0196039620999992024010415004+52702-008925FM-15+001499999V0202201N00361024381CN009999199+00901+00501999999ADDGA1021+005491999GA2021+006101091GA3041+024381999GE19AGL   +99999+99999GF199999021999005491999999MA1099801999999REMMET073METAR EINN 041500Z 22007KT 9999 FEW018 FEW020CB SCT080 09/05 Q0998 NOSIG=
0173039620999992024010415304+52702-008925FM-15+001499999V0202201N003619999999N009999199+00801+00501999999ADDGA1021+005491999GA2021+006101091GE19AGL   +99999+99999GF199999021999005491999999MA1099801999999REMMET066METAR EINN 041530Z 22007KT 9999 FEW018 FEW020CB 08/05 Q0998 NOSIG=
0219039620999992024010416004+52700-008917FM-12+002099999V0202501N005019999999N008000199+00801+00511099891ADDAY181021AY211021GA1011+005401071GA2031+006001091GE19AGL   +99999+99999GF107991011999005401999999MA1999999099651MD1510011+9999MW1801REMSYN07603962 41458 72505 10080 20051 39965 49989 55001 78081 879// 333 81718 83920=
0185039620999992024010416004+52702-008925FM-15+001499999V0202501N00461006101CN008000199+00801+00501999999ADDGA1021+005491999GA2041+006101091GE19AGL   +99999+99999GF199999021999005491999999MA1099801999999MW1801REMMET072METAR EINN 041600Z 25009KT 8000 -SHRA FEW018 SCT020CB 08/05 Q0998 NOSIG=
0219039620999992024010416304+52702-008925FM-15+001499999V0202501N003610082319N009999199+00701+00601999999ADDGA1021+003661999GA2021+006101091GA3071+008231999GA4071+009451999GE19AGL   +99999+99999GF199999021999003661999999MA1099801999999REMMET080METAR EINN 041630Z 25007KT 9999 FEW012 FEW020CB BKN027 BKN031 07/06 Q0998 NOSIG=
0263039620999992024010417004+52700-008917FM-12+002099999V0202401N00401006901CN018000199+00691+00521099911ADDAY181021AY221021GA1011+003601071GA2021+005401091GA3031+006901061GA4051+010501061GE19AGL   +99999+99999GF105991011999003601999999MA1999999099671MD1310041+9999MW1251REMSYN08803962 41468 52404 10069 20052 39967 49991 53004 72582 85900 333 81712 82918 83623 85635=
0219039620999992024010417004+52702-008925FM-15+001499999V0202401N00361007011CN009999199+00701+00501999999ADDGA1021+003661999GA2021+005491091GA3041+007011999GA4071+010671999GE19AGL   +99999+99999GF199999021999003661999999MA1099901999999REMMET080METAR EINN 041700Z 24007KT 9999 FEW012 FEW018CB SCT023 BKN035 07/05 Q0999 NOSIG=
0208039620999992024010417304+52702-008925FM-15+001499999V0202401N00261005491CN009999199+00701+00501999999ADDGA1021+003661999GA2041+005491091GA3071+008231999GE19AGL   +99999+99999GF199999021999003661999999MA1099901999999MW1801REMMET079METAR EINN 041730Z 24005KT 9999 -SHRA FEW012 SCT018CB BKN027 07/05 Q0999 NOSIG=
0286039620999992024010418004+52700-008917FM-12+002099999V0202501N00301007201CN018000199+00661+00541099971ADDAA112000231AY181021AY211021GA1021+003001071GA2011+005401091GA3041+007201061GA4051+009301061GE19AGL   +99999+99999GF107991021999003001999999MA1999999099731MD1210111+9999MW1251REMSYN10003962 11468 72503 10066 20054 39973 49997 52011 69922 72581 879// 333 10089 82710 81918 84624 85631=
0219039620999992024010418004+52702-008925FM-15+001499999V0202501N00261007321CN009999199+00701+00501999999ADDGA1021+003051999GA2021+005491091GA3041+007321999GA4071+009451999GE19AGL   +99999+99999GF199999021999003051999999MA1099901999999REMMET080METAR EINN 041800Z 25005KT 9999 FEW010 FEW018CB SCT024 BKN031 07/05 Q0999 NOSIG=
0219039620999992024010418304+52702-008925FM-15+001499999V0202401N00261007321CN009999199+00701+00601999999ADDGA1021+004571999GA2021+005491091GA3041+007321999GA4071+010971999GE19AGL   +99999+99999GF199999021999004571999999MA1099901999999REMMET080METAR EINN 041830Z 24005KT 9999 FEW015 FEW018CB SCT024 BKN036 07/06 Q0999 NOSIG=
0263039620999992024010419004+52700-008917FM-12+002099999V0202401N003010510019N020000199+00631+00541100021ADDAY181021AY221021GA1011+004501071GA2011+005401091GA3031+010201061GA4051+051001021GE19AGL   +99999+99999GF107991011999004501999999MA1999999099781MD1210131+9999MW1251REMSYN08803962 41470 72403 10063 20054 39978 40002 52013 72582 84908 333 81715 81918 83634 85267=
0219039620999992024010419004+52702-008925FM-15+001499999V0202401N00311010361CN009999199+00601+00501999999ADDGA1021+004571999GA2021+005491091GA3041+010361999GA4071+051821999GE19AGL   +99999+99999GF199999021999004571999999MA1100001999999REMMET080METAR EINN 041900Z 24006KT 9999 FEW015 FEW018CB SCT034 BKN170 06/05 Q1000 NOSIG=
0196039620999992024010419304+52702-008925FM-15+001499999V0202601N00261051821CN009999199+00601+00501999999ADDGA1021+004571999GA2021+005491091GA3041+051821999GE19AGL   +99999+99999GF199999021999004571999999MA1100001999999REMMET073METAR EINN 041930Z 26005KT 9999 FEW015 FEW018CB SCT170 06/05 Q1000 NOSIG=
0191039620999992024010420004+52700-008917FM-12+002099999V0202701N003012200019N020000199+00541+00461100081ADDGA1011+005401091GA2031+051001021GE19AGL   +99999+99999GF104991011999005401999999MA1999999099841MD1210171+9999REMSYN07003962 42470 42703 10054 20046 39984 40008 52017 84908 333 81918 83267=
0173039620999992024010420004+52702-008925FM-15+001499999V0202701N00261051821CN009999199+00501+00501999999ADDGA1021+005491091GA2041+051821999GE19AGL   +99999+99999GF199999021999005491999999MA1100001999999REMMET066METAR EINN 042000Z 27005KT 9999 FEW018CB SCT170 05/05 Q1000 NOSIG=
0148039620999992024010420304+52702-008925FM-15+001499999V0202701N002619999999N009999199+00501+00501999999ADDGA1021+007621999GE19AGL   +99999+99999GF199999021999007621999999MA1100101999999REMMET057METAR EINN 042030Z 27005KT 9999 FEW025 05/05 Q1001 NOSIG=
0197039620999992024010421004+52700-008917FM-12+002099999V0202701N001012200019N020000199+00491+00401100151ADDAY181021AY211021GA1011+007501061GE19AGL   +99999+99999GF101991011999007501999999MA1999999099911MD1210181+9999MW1011REMSYN07003962 41570 12701 10049 20040 39991 40015 52018 70181 81500 333 81625=
0148039620999992024010421004+52702-008925FM-15+001499999V0202701N000519999999N009999199+00501+00401999999ADDGA1021+007621999GE19AGL   +99999+99999GF199999021999007621999999MA1100101999999REMMET057METAR EINN 042100Z 27001KT 9999 FEW025 05/04 Q1001 NOSIG=
0171039620999992024010421304+52702-008925FM-15+001499999V0209999C000010140219N009999199+00401+00301999999ADDGA1021+007621999GA2071+014021999GE19AGL   +99999+99999GF199999021999007621999999MA1100101999999REMMET064METAR EINN 042130Z 00000KT 9999 FEW025 BKN046 04/03 Q1001 NOSIG=
0169039620999992024010422004+52700-008917FM-12+002099999V0202801N002012200019N020000199+00441+00371100221ADDGA1011+007501061GE19AGL   +99999+99999GF102991011999007501999999MA1999999099981MD1210201+9999REMSYN06403962 42570 22802 10044 20037 39998 40022 52020 82500 333 81625=
0148039620999992024010422004+52702-008925FM-15+001499999V0202801N001519999999N009999199+00401+00301999999ADDGA1021+007621999GE19AGL   +99999+99999GF199999021999007621999999MA1100201999999REMMET057METAR EINN 042200Z 28003KT 9999 FEW025 04/03 Q1002 NOSIG=
0171039620999992024010422304+52702-008925FM-15+001499999V0202901N00151013411CN009999199+00501+00401999999ADDGA1021+007621999GA2041+013411999GE19AGL   +99999+99999GF199999021999007621999999MA1100201999999REMMET064METAR EINN 042230Z 29003KT 9999 FEW025 SCT044 05/04 Q1002 NOSIG=
0169039620999992024010423004+52700-008917FM-12+002099999V0202901N002012200019N020000199+00471+00391100271ADDGA1011+007501061GE19AGL   +99999+99999GF101991011999007501999999MA1999999100031MD1110191+9999REMSYN06403962 42570 12902 10047 20039 30003 40027 51019 81500 333 81625=
0148039620999992024010423004+52702-008925FM-15+001499999V0202901N002119999999N009999199+00501+00401999999ADDGA1021+007621999GE19AGL   +99999+99999GF199999021999007621999999MA1100201999999REMMET057METAR EINN 042300Z 29004KT 9999 FEW025 05/04 Q1002 NOSIG=
0148039620999992024010423304+52702-008925FM-15+001499999V0203001N001019999999N009999199+00501+00401999999ADDGA1021+007621999GE19AGL   +99999+99999GF199999021999007621999999MA1100201999999REMMET057METAR EINN 042330Z 30002KT 9999 FEW025 05/04 Q1002 NOSIG=
0214039620999992024010500004+52700-008917FM-12+002099999V0202701N001012200019N020000199+00361+00251100321ADDAA106000131AY181021AY211021GA1011+007501061GE19AGL   +99999+99999GF101991011999007501999999MA1999999100081MD1110171+9999MW1021REMSYN07603962 11570 12701 10036 20025 30008 40032 51017 69911 70281 81500 333 81625=
0148039620999992024010500004+52702-008925FM-15+001499999V0202701N001019999999N009999199+00401+00201999999ADDGA1021+007621999GE19AGL   +99999+99999GF199999021999007621999999MA1100301999999REMMET057METAR EINN 050000Z 27002KT 9999 FEW025 04/02 Q1003 NOSIG=
0148039620999992024010500304+52702-008925FM-15+001499999V0203001N000519999999N009999199+00401+00401999999ADDGA1021+007621999GE19AGL   +99999+99999GF199999021999007621999999MA1100301999999REMMET057METAR EINN 050030Z 30001KT 9999 FEW025 04/04 Q1003 NOSIG=
0169039620999992024010501004+52700-008917FM-12+002099999V0202601N002012200019N020000199+00441+00361100361ADDGA1011+007501061GE19AGL   +99999+99999GF101991011999007501999999MA1999999100121MD1110141+9999REMSYN06403962 42570 12602 10044 20036 30012 40036 51014 81500 333 81625=
0148039620999992024010501004+52702-008925FM-15+001499999V0202601N002119999999N009999199+00401+00401999999ADDGA1021+007621999GE19AGL   +99999+99999GF199999021999007621999999MA1100301999999REMMET057METAR EINN 050100Z 26004KT 9999 FEW025 04/04 Q1003 NOSIG=
0171039620999992024010501304+52702-008925FM-15+001499999V0202701N00151012501CN009999199+00601+00401999999ADDGA1021+007621999GA2041+012501999GE19AGL   +99999+99999GF199999021999007621999999MA1100301999999REMMET064METAR EINN 050130Z 27003KT 9999 FEW025 SCT041 06/04 Q1003 NOSIG=
0191039620999992024010502004+52700-008917FM-12+002099999V0202901N002012200019N020000199+00511+00391100401ADDGA1011+007501061GA2041+015001061GE19AGL   +99999+99999GF104991011999007501999999MA1999999100161MD1110131+9999REMSYN07003962 42570 42902 10051 20039 30016 40040 51013 84500 333 81625 84650=
0171039620999992024010502004+52702-008925FM-15+001499999V0202901N00151015241CN009999199+00501+00401999999ADDGA1021+007621999GA2041+015241999GE19AGL   +99999+99999GF199999021999007621999999MA1100301999999REMMET064METAR EINN 050200Z 29003KT 9999 FEW025 SCT050 05/04 Q1003 NOSIG=
0171039620999992024010502304+52702-008925FM-15+001499999V0203201N00211013721CN009999199+00501+00401999999ADDGA1021+007621999GA2041+013721999GE19AGL   +99999+99999GF199999021999007621999999MA1100401999999REMMET064METAR EINN 050230Z 32004KT 9999 FEW025 SCT045 05/04 Q1004 NOSIG=
0191039620999992024010503004+52700-008917FM-12+002099999V0202901N004012200019N020000199+00531+00421100451ADDGA1011+007501061GA2041+013201061GE19AGL   +99999+99999GF104991011999007501999999MA1999999100211MD1210131+9999REMSYN07003962 42570 42904 10053 20042 30021 40045 52013 84500 333 81625 84644=
0171039620999992024010503004+52702-008925FM-15+001499999V0202901N00411013411CN009999199+00501+00401999999ADDGA1021+007621999GA2041+013411999GE19AGL   +99999+99999GF199999021999007621999999MA1100401999999REMMET064METAR EINN 050300Z 29008KT 9999 FEW025 SCT044 05/04 Q1004 NOSIG=
0171039620999992024010503304+52702-008925FM-15+001499999V0202901N003110137219N009999199+00501+00401999999ADDGA1021+007621999GA2071+013721999GE19AGL   +99999+99999GF199999021999007621999999MA1100401999999REMMET064METAR EINN 050330Z 29006KT 9999 FEW025 BKN045 05/04 Q1004 NOSIG=
0219039620999992024010504004+52700-008917FM-12+002099999V0202701N002012200019N018000199+00511+00361100471ADDAY181021AY221021GA1011+005401091GA2041+013501061GE19AGL   +99999+99999GF104991011999005401999999MA1999999100231MD1210111+9999MW1251REMSYN07603962 41468 42702 10051 20036 30023 40047 52011 72582 84300 333 81918 84645=
0173039620999992024010504004+52702-008925FM-15+001499999V0202701N00211013721CN009999199+00501+00401999999ADDGA1021+005491091GA2041+013721999GE19AGL   +99999+99999GF199999021999005491999999MA1100401999999REMMET066METAR EINN 050400Z 27004KT 9999 FEW018CB SCT045 05/04 Q1004 NOSIG=
0150039620999992024010504304+52702-008925FM-15+001499999V0203001N001019999999N009999199+00501+00301999999ADDGA1021+005491091GE19AGL   +99999+99999GF199999021999005491999999MA1100401999999REMMET059METAR EINN 050430Z 30002KT 9999 FEW018CB 05/03 Q1004 NOSIG=
0169039620999992024010505004+52700-008917FM-12+002099999V0202901N003012200019N020000199+00431+00331100531ADDGA1011+007501061GE19AGL   +99999+99999GF101991011999007501999999MA1999999100291MD1210131+9999REMSYN06403962 42570 12903 10043 20033 30029 40053 52013 81500 333 81625=
0148039620999992024010505004+52702-008925FM-15+001499999V0202901N002619999999N009999199+00401+00301999999ADDGA1021+007621999GE19AGL   +99999+99999GF199999021999007621999999MA1100501999999REMMET057METAR EINN 050500Z 29005KT 9999 FEW025 04/03 Q1005 NOSIG=
0148039620999992024010505304+52702-008925FM-15+001499999V0203001N003619999999N009999199+00401+00301999999ADDGA1021+007621999GE19AGL   +99999+99999GF199999021999007621999999MA1100501999999REMMET057METAR EINN 050530Z 30007KT 9999 FEW025 04/03 Q1005 NOSIG=
0245039620999992024010506004+52700-008917FM-12+002099999V0203001N003012200019N020000199+00461+00341100581ADDAA112000231AY181021AY211021GA1011+007501061GE19AGL   +99999+99999GF101991011999007501999999KA1240N+00361MA1999999100341MD1210131+9999MW1021REMSYN09403962 11570 13003 10046 20034 30034 40058 52013 69922 70281 81500 333 20036 3/001 55055 81625=
0148039620999992024010506004+52702-008925FM-15+001499999V0203001N003119999999N009999199+00501+00301999999ADDGA1021+007621999GE19AGL   +99999+99999GF199999021999007621999999MA1100501999999REMMET057METAR EINN 050600Z 30006KT 9999 FEW025 05/03 Q1005 NOSIG=
0148039620999992024010506304+52702-008925FM-15+001499999V0203101N002119999999N009999199+00401+00301999999ADDGA1021+007621999GE19AGL   +99999+99999GF199999021999007621999999MA1100601999999REMMET057METAR EINN 050630Z 31004KT 9999 FEW025 04/03 Q1006 NOSIG=
0191039620999992024010507004+52700-008917FM-12+002099999V0202901N003012200019N020000199+00411+00291100661ADDGA1011+007501061GA2041+018001061GE19AGL   +99999+99999GF104991011999007501999999MA1999999100421MD1210191+9999REMSYN07003962 42570 42903 10041 20029 30042 40066 52019 84500 333 81625 84656=
0171039620999992024010507004+52702-008925FM-15+001499999V0202901N00261018291CN009999199+00401+00301999999ADDGA1021+007621999GA2041+018291999GE19AGL   +99999+99999GF199999021999007621999999MA1100601999999REMMET064METAR EINN 050700Z 29005KT 9999 FEW025 SCT060 04/03 Q1006 NOSIG=
0148039620999992024010507304+52702-008925FM-15+001499999V0202901N003119999999N009999199+00501+00301999999ADDGA1021+007621999GE19AGL   +99999+99999GF199999021999007621999999MA1100701999999REMMET057METAR EINN 050730Z 29006KT 9999 FEW025 05/03 Q1007 NOSIG=
0169039620999992024010508004+52700-008917FM-12+002099999V0202901N003012200019N020000199+00451+00301100751ADDGA1011+007501061GE19AGL   +99999+99999GF101991011999007501999999MA1999999100511MD1310221+9999REMSYN06403962 42570 12903 10045 20030 30051 40075 53022 81500 333 81625=
0148039620999992024010508004+52702-008925FM-15+001499999V0202901N002619999999N009999199+00501+00301999999ADDGA1021+007621999GE19AGL   +99999+99999GF199999021999007621999999MA1100701999999REMMET057METAR EINN 050800Z 29005KT 9999 FEW025 05/03 Q1007 NOSIG=
0148039620999992024010508304+52702-008925FM-15+001499999V0202801N003119999999N009999199+00501+00301999999ADDGA1021+006711999GE19AGL   +99999+99999GF199999021999006711999999MA1100801999999REMMET057METAR EINN 050830Z 28006KT 9999 FEW022 05/03 Q1008 NOSIG=
0169039620999992024010509004+52700-008917FM-12+002099999V0202901N003012200019N030000199+00451+00251100861ADDGA1011+005401091GE19AGL   +99999+99999GF102991011999005401999999MA1999999100621MD1210281+9999REMSYN06403962 42480 22903 10045 20025 30062 40086 52028 82300 333 81918=
0150039620999992024010509004+52702-008925FM-15+001499999V0202901N003119999999N009999199+00501+00301999999ADDGA1021+005491091GE19AGL   +99999+99999GF199999021999005491999999MA1100801999999REMMET059METAR EINN 050900Z 29006KT 9999 FEW018CB 05/03 Q1008 NOSIG=
0148039620999992024010509304+52702-008925FM-15+001499999V0202901N003619999999N009999199+00501+00301999999ADDGA1021+006101999GE19AGL   +99999+99999GF199999021999006101999999MA1100801999999REMMET057METAR EINN 050930Z 29007KT 9999 FEW020 05/03 Q1008 NOSIG=
0169039620999992024010510004+52700-008917FM-12+002099999V0202801N003012200019N030000199+00511+00281100951ADDGA1011+006001081GE19AGL   +99999+99999GF101991011999006001999999MA1999999100711MD1310291+9999REMSYN06403962 42580 12803 10051 20028 30071 40095 53029 81800 333 81820=
0148039620999992024010510004+52702-008925FM-15+001499999V0202801N003119999999N009999199+00501+00301999999ADDGA1021+006101999GE19AGL   +99999+99999GF199999021999006101999999MA1100901999999REMMET057METAR EINN 051000Z 28006KT 9999 FEW020 05/03 Q1009 NOSIG=
0148039620999992024010510304+52702-008925FM-15+001499999V0202901N003119999999N009999199+00601+00301999999ADDGA1021+006101999GE19AGL   +99999+99999GF199999021999006101999999MA1101001999999REMMET057METAR EINN 051030Z 29006KT 9999 FEW020 06/03 Q1010 NOSIG=
0169039620999992024010511004+52700-008917FM-12+002099999V0203001N003012200019N030000199+00671+00371101021ADDGA1011+005401091GE19AGL   +99999+99999GF101991011999005401999999MA1999999100781MD1210271+9999REMSYN06403962 42480 13003 10067 20037 30078 40102 52027 81300 333 81918=
0150039620999992024010511004+52702-008925FM-15+001499999V0203001N002619999999N009999199+00701+00401999999ADDGA1021+005491091GE19AGL   +99999+99999GF199999021999005491999999MA1101001999999REMMET059METAR EINN 051100Z 30005KT 9999 FEW018CB 07/04 Q1010 NOSIG=
0150039620999992024010511304+52702-008925FM-15+001499999V0203101N002619999999N009999199+00701+00401999999ADDGA1021+005491091GE19AGL   +99999+99999GF199999021999005491999999MA1101001999999REMMET059METAR EINN 051130Z 31005KT 9999 FEW018CB 07/04 Q1010 NOSIG=
0186039620999992024010512004+52700-008917FM-12+002099999V0202801N002012200019N030000199+00811+00471101071ADDAA106000131GA1011+005401091GE19AGL   +99999+99999GF101991011999005401999999MA1999999100831MD1110211+9999REMSYN07003962 12480 12802 10081 20047 30083 40107 51021 69911 81300 333 81918=
0150039620999992024010512004+52702-008925FM-15+001499999V0202801N001519999999N009999199+00801+00501999999ADDGA1021+005491091GE19AGL   +99999+99999GF199999021999005491999999MA1101001999999REMMET059METAR EINN 051200Z 28003KT 9999 FEW018CB 08/05 Q1010 NOSIG=
0148039620999992024010512304+52702-008925FM-15+001499999V0203001N003119999999N009999199+00901+00401999999ADDGA1021+006711999GE19AGL   +99999+99999GF199999021999006711999999MA1101001999999REMMET057METAR EINN 051230Z 30006KT 9999 FEW022 09/04 Q1010 NOSIG=
0169039620999992024010513004+52700-008917FM-12+002099999V0203001N005012200019N030000199+00891+00461101071ADDGA1011+007201081GE19AGL   +99999+99999GF101991011999007201999999MA1999999100831MD1110121+9999REMSYN06403962 42580 13005 10089 20046 30083 40107 51012 81800 333 81824=
0148039620999992024010513004+52702-008925FM-15+001499999V0203001N004619999999N009999199+00901+00501999999ADDGA1021+007321999GE19AGL   +99999+99999GF199999021999007321999999MA1101001999999REMMET057METAR EINN 051300Z 30009KT 9999 FEW024 09/05 Q1010 NOSIG=
0150039620999992024010513304+52702-008925FM-15+001499999V0202901N005119999999N009999199+00801+00501999999ADDGA1021+005491091GE19AGL   +99999+99999GF199999021999005491999999MA1101001999999REMMET059METAR EINN 051330Z 29010KT 9999 FEW018CB 08/05 Q1010 NOSIG=
0169039620999992024010514004+52700-008917FM-12+002099999V0203001N005012200019N030000199+00841+00451101111ADDGA1011+005401091GE19AGL   +99999+99999GF102991011999005401999999MA1999999100871MD1210091+9999REMSYN06403962 42480 23005 10084 20045 30087 40111 52009 82300 333 81918=
0150039620999992024010514004+52702-008925FM-15+001499999V0203001N004619999999N009999199+00801+00501999999ADDGA1021+005491091GE19AGL   +99999+99999GF199999021999005491999999MA1101101999999REMMET059METAR EINN 051400Z 30009KT 9999 FEW018CB 08/05 Q1011 NOSIG=
0173039620999992024010514304+52702-008925FM-15+001499999V0203001N00461024381CN009999199+00801+00401999999ADDGA1021+005491091GA2041+024381999GE19AGL   +99999+99999GF199999021999005491999999MA1101101999999REMMET066METAR EINN 051430Z 30009KT 9999 FEW018CB SCT080 08/04 Q1011 NOSIG=
0191039620999992024010515004+52700-008917FM-12+002099999V0203101N004019999999N020000199+00801+00441101161ADDGA1011+005401091GA2041+014101061GE19AGL   +99999+99999GF106991011999005401999999MA1999999100921MD1310091+9999REMSYN07003962 42470 63104 10080 20044 30092 40116 53009 86940 333 81918 84647=
0171039620999992024010515004+52702-008925FM-15+001499999V0203101N00361014331CN009999199+00801+00401999999ADDGA1021+005491999GA2041+014331999GE19AGL   +99999+99999GF199999021999005491999999MA1101101999999REMMET064METAR EINN 051500Z 31007KT 9999 FEW018 SCT047 08/04 Q1011 NOSIG=
