0142419410999992024010100004+23267+090700FM-12+999999999V0209999C00001002401C9000600199+01751+01701101581ADDAA124999999AY141999AY221999GA1081+002401071GE19AGL   +99999+99999GF108991081999002401999999MA1999999101521MD1999999+0041MW1461REMSYN004BUFR
0225419410999992024010103004+23267+090700FM-12+000799999V0203601N00101002401CN000400199+01741+01741101771ADDAA124000091AY141021AY241021GA1081+002401071GE19AGL   +99999+99999GF108991081999002401999999KA1240N+01701MA1999999101711MW1461REMSYN08841941 31304 83602 10174 20174 30171 40177 74644 886// 333 20170 56999 59006 70000 88708=
0228419410999992024010106004+23267+090700FM-12+000799999V0203601N001510240019N001500199+01901+01701101611ADDAA124000091AY141021AY221021GA1041+004801061GA2081+024001041GE19AGL   +99999+99999GF108991041999004801999999MA1999999101551MW1101REMSYN08841941 31415 83603 10190 20170 30155 40161 71042 8452/ 333 56999 59007 70000 84616 88458=
0082419410999992024010109004+23267+090700FM-12+999999999V0203601N0015122000199006000199+02371+01901101341ADDAA124999999GF100991999999999999999999MA1999999101291MD1999999-0051REMSYN004BUFR
0129419410999992024010112004+23267+090700FM-12+000799999V0202701N001019999999N006000199+02071+01801101361ADDAA124000091KA1240M+02421MA1999999101311MD1999999-0041REMSYN06441941 32956 02702 10207 20180 30131 40136 333 10242 59004 70000=
0138419410999992024010115004+23267+090700FM-12+000799999V0203401N001019999999N005000199+01951+01901101571ADDAA124000091AY101021AY201021MA1999999101521MD1999999+0061MW1051REMSYN06441941 31950 03402 10195 20190 30152 40157 70500 333 58006 70000=
0138419410999992024010118004+23267+090700FM-12+000799999V0203601N000519999999N004000199+01811+01701101551ADDAA124000091AY101021AY201021MA1999999101501MD1999999-0011MW1051REMSYN06441941 31940 03601 10181 20170 30150 40155 70500 333 59001 70000=
0158419410999992024010121004+23267+090700FM-12+000799999V0203601N000519999999N001500199+01721+01601999999ADDAA124000091AY101021AY201021MD1999999+0041MW1101REMSYN06441941 31915 03601 10172 20160 30041 40046 71000 333 58004 70000=EQDQ011004.13APOSP Q021004.63APOSLP
0200419410999992024010200004+23267+090700FM-12+000799999V0203601N00101001201WN000600199+01651+01601101581ADDAA124000091AY141021AY201021GA1091+999999999GE19AGL   +99999+99999GF109991091999999999999999MA1999999101521MW1471REMSYN07641941 31/06 93602 10165 20160 30152 40158 74740 89/// 333 56999 58000 70000=
0247419410999992024010203004+23267+090700FM-12+000799999V0203601N001010240019N001500199+01751+01701101781ADDAA124000091AY141021AY221021GA1041+004201061GA2081+024001041GE19AGL   +99999+99999GF108991041999004201999999KA1240N+01621MA1999999101721MW1101REMSYN09441941 31415 83602 10175 20170 30172 40178 71042 8452/ 333 20162 56999 59005 70000 84614 88458=
0138419410999992024010206004+23267+090700FM-12+000799999V0203601N002119999999N004000199+02101+01801101591ADDAA124000091AY141021AY221021MA1999999101531MD1999999-0031MW1011REMSYN06441941 31940 03604 10210 20180 30153 40159 70142 333 59003 70000=
0110419410999992024010209004+23267+090700FM-12+000799999V0203601N002119999999N006000199+02381+01401101331ADDAA124000091MA1999999101281MD1999999-0011REMSYN05841941 32956 03604 10238 20140 30128 40133 333 59001 70000=
0129419410999992024010212004+23267+090700FM-12+000799999V0203601N001519999999N005000199+02081+01601101311ADDAA124000091KA1240M+02451MA1999999101261MD1999999-0051REMSYN06441941 32950 03603 10208 20160 30126 40131 333 10245 59005 70000=
0110419410999992024010215004+23267+090700FM-12+000799999V0209999C000019999999N004000199+01851+01701101531ADDAA124000091MA1999999101471MD1999999-0051REMSYN05841941 32940 00000 10185 20170 30147 40153 333 59005 70000=
0138419410999992024010221004+23267+090700FM-12+000799999V0209999C000019999999N002000199+01601+01601101431ADDAA124000091AY101021AY201021MA1999999101371MD1999999-0041MW1101REMSYN06441941 31920 00000 10160 20160 30137 40143 71000 333 59004 70000=
0138419410999992024010300004+23267+090700FM-12+000799999V0203601N002119999999N002000199+01521+01501101641ADDAA124000091AY101021AY201021MA1999999101581MD1999999+0061MW1101REMSYN06441941 31920 03604 10152 20150 30158 40164 71000 333 58006 70000=
0138419410999992024010306004+23267+090700FM-12+000799999V0203601N002119999999N004000199+01801+01601101711ADDAA124000091AY101021AY201021MA1999999101651MD1999999+0121MW1051REMSYN06441941 31940 03604 10180 20160 30165 40171 70500 333 58012 70000=
0110419410999992024010309004+23267+090700FM-12+000799999V0203601N001519999999N006000199+02101+01601101381ADDAA124000091MA1999999101321MD1999999+0041REMSYN05841941 32956 03603 10210 20160 30132 40138 333 58004 70000=
0129419410999992024010312004+23267+090700FM-12+000799999V0209999C000019999999N004000199+01801+01701101381ADDAA124000091KA1240M+02171MA1999999101321MD1999999+0061REMSYN06441941 32940 00000 10180 20170 30132 40138 333 10217 58006 70000=
0110419410999992024010315004+23267+090700FM-12+000799999V0209999C000019999999N004000199+01601+01501101491ADDAA124000091MA1999999101431MD1999999-0041REMSYN05841941 32940 00000 10160 20150 30143 40149 333 59004 70000=
0138419410999992024010318004+23267+090700FM-12+000799999V0209999C000019999999N002000199+01501+01501101471ADDAA124000091AY101021AY201021MA1999999101411MD1999999-0031MW1101REMSYN06441941 31920 00000 10150 20150 30141 40147 71000 333 59003 70000=
0138419410999992024010321004+23267+090700FM-12+000799999V0209999C000019999999N002000199+01461+01461101381ADDAA124000091AY101021AY201021MA1999999101321MD1999999-0051MW1101REMSYN06441941 31920 00000 10146 20146 30132 40138 71000 333 59005 70000=
0200419410999992024010400004+23267+090700FM-12+000799999V0203601N00151002401WN000800199+01501+01501101631ADDAA124000091AY141021AY201021GA1091+999999999GE19AGL   +99999+99999GF109991091999999999999999MA1999999101571MW1451REMSYN07641941 31/08 93603 10150 20150 30157 40163 74540 89/// 333 56999 59002 70000=
0219419410999992024010403004+23267+090700FM-12+000799999V0203601N00151002401WN000800199+01641+01601101801ADDAA124000091AY141021AY241021GA1091+999999999GE19AGL   +99999+99999GF109991091999999999999999KA1240N+01421MA1999999101741MW1451REMSYN08241941 31/08 93603 10164 20160 30174 40180 74544 89/// 333 20142 56999 59001 70000=
0138419410999992024010406004+23267+090700FM-12+000799999V0203601N001019999999N006000199+02101+01701101671ADDAA124000091AY141021AY241021MA1999999101611MD1999999-0041MW1011REMSYN06441941 31956 03602 10210 20170 30161 40167 70144 333 59004 70000=
0110419410999992024010409004+23267+090700FM-12+000799999V0203601N001019999999N006000199+02451+01701101341ADDAA124000091MA1999999101291MD1999999-0031REMSYN05841941 32956 03602 10245 20170 30129 40134 333 59003 70000=
0129419410999992024010412004+23267+090700FM-12+000799999V0209999C000019999999N004000199+02001+01801101391ADDAA124000091KA1240M+02501MA1999999101331MD1999999+0011REMSYN06441941 32940 00000 10200 20180 30133 40139 333 10250 58001 70000=
0138419410999992024010415004+23267+090700FM-12+000799999V0209999C000019999999N003000199+01731+01701101581ADDAA124000091AY101021AY201021MA1999999101521MD1999999+0091MW1051REMSYN06441941 31930 00000 10173 20170 30152 40158 70500 333 58009 70000=
0138419410999992024010418004+23267+090700FM-12+000799999V0209999C000019999999N002000199+01651+01651101541ADDAA124000091AY101021AY201021MA1999999101481MD1999999+0071MW1101REMSYN06441941 31920 00000 10165 20165 30148 40154 71000 333 58007 70000=
0138419410999992024010421004+23267+090700FM-12+000799999V0209999C000019999999N002000199+01581+01581101581ADDAA124000091AY101021AY201021MA1999999101521MD1999999+0201MW1101REMSYN06441941 31920 00000 10158 20158 30152 40158 71000 333 58020 70000=
0200419410999992024010500004+23267+090700FM-12+000799999V0202601N001019999999N000800199+01531+01501101691ADDAA124000091AY141021AY201021GA1091+999999999GE19AGL   +99999+99999GF199999091999999999999999MA1999999101631MW1451REMSYN07641941 31/08 02602 10153 20150 30163 40169 74540 89/// 333 56999 58006 70000=
0219419410999992024010503004+23267+090700FM-12+000799999V0202601N001019999999N000800199+01651+01651101901ADDAA124000091AY141021AY241021GA1091+999999999GE19AGL   +99999+99999GF199999091999999999999999KA1240N+01501MA1999999101841MW1281REMSYN08241941 31/08 02602 10165 20165 30184 40190 72844 89/// 333 20150 56999 58010 70000=
0138419410999992024010506004+23267+090700FM-12+000799999V0203101N002119999999N006000199+02101+01701101661ADDAA124000091AY141021AY241021MA1999999101601MD1999999-0011MW1011REMSYN06441941 31956 03104 10210 20170 30160 40166 70144 333 59001 70000=
0110419410999992024010509004+23267+090700FM-12+000799999V0203601N001519999999N006000199+02291+01801101421ADDAA124000091MA1999999101361MD1999999+0071REMSYN05841941 32956 03603 10229 20180 30136 40142 333 58007 70000=
0129419410999992024010512004+23267+090700FM-12+000799999V0203601N001019999999N004000199+01951+01801101461ADDAA124000091KA1240M+02351MA1999999101401MD1999999+0071REMSYN06441941 32940 03602 10195 20180 30140 40146 333 10235 58007 70000=
0138419410999992024010515004+23267+090700FM-12+000799999V0209999C000019999999N003000199+01671+01671101651ADDAA124000091AY101021AY201021MA1999999101591MD1999999+0071MW1051REMSYN06441941 31930 00000 10167 20167 30159 40165 70500 333 58007 70000=
0138419410999992024010518004+23267+090700FM-12+000799999V0209999C000019999999N002000199+01651+01651101671ADDAA124000091AY101021AY201021MA1999999101611MD1999999+0131MW1101REMSYN06441941 31920 00000 10165 20165 30161 40167 71000 333 58013 70000=
0138419410999992024010521004+23267+090700FM-12+000799999V0209999C000019999999N002000199+01601+01601101641ADDAA124000091AY101021AY201021MA1999999101581MD1999999+0061MW1101REMSYN06441941 31920 00000 10160 20160 30158 40164 71000 333 58006 70000=
0200419410999992024010600004+23267+090700FM-12+000799999V0209999C00001001201WN000600199+01551+01551101711ADDAA124000091AY141021AY201021GA1091+999999999GE19AGL   +99999+99999GF109991091999999999999999MA1999999101651MW1471REMSYN07641941 31/06 90000 10155 20155 30165 40171 74740 89/// 333 56999 58002 70000=
0219419410999992024010603004+23267+090700FM-12+000799999V0209999C00001002401WN000800199+01801+01701101861ADDAA124000091AY141021AY241021GA1091+999999999GE19AGL   +99999+99999GF109991091999999999999999KA1240N+01511MA1999999101801MW1281REMSYN08241941 31/08 90000 10180 20170 30180 40186 72844 89/// 333 20151 56999 59004 70000=
0138419410999992024010606004+23267+090700FM-12+000799999V0203601N002619999999N006000199+02281+01601101611ADDAA124000091AY141021AY201021MA1999999101551MD1999999-0051MW1001REMSYN06441941 31956 03605 10228 20160 30155 40161 70040 333 59005 70000=
0110419410999992024010609004+23267+090700FM-12+000799999V0203601N002619999999N006000199+02531+01401101401ADDAA124000091MA1999999101341MD1999999-0021REMSYN05841941 32956 03605 10253 20140 30134 40140 333 59002 70000=
0138419410999992024010615004+23267+090700FM-12+000799999V0209999C000019999999N004000199+01801+01601101661ADDAA124000091AY101021AY201021MA1999999101601MD1999999+0011MW1051REMSYN06441941 31940 00000 10180 20160 30160 40166 70500 333 58001 70000=
0138419410999992024010618004+23267+090700FM-12+000799999V0209999C000019999999N004000199+01801+01701101721ADDAA124000091AY101021AY201021MA1999999101661MD1999999+0051MW1051REMSYN06441941 31940 00000 10180 20170 30166 40172 70500 333 58005 70000=
0138419410999992024010621004+23267+090700FM-12+000799999V0209999C000019999999N002000199+01701+01601101701ADDAA124000091AY101021AY201021MA1999999101641MD1999999+0061MW1101REMSYN06441941 31920 00000 10170 20160 30164 40170 71000 333 58006 70000=
0138419410999992024010700004+23267+090700FM-12+000799999V0209999C000019999999N000800199+01621+01601101721ADDAA124000091AY141021AY201021MA1999999101661MD1999999+0011MW1461REMSYN06441941 31908 00000 10162 20160 30166 40172 74640 333 58001 70000=
0157419410999992024010703004+23267+090700FM-12+000799999V0203101N002119999999N005000199+01971+01601101941ADDAA124000091AY141021AY201021KA1240N+01601MA1999999101881MD1999999+0081MW1051REMSYN07041941 31950 03104 10197 20160 30188 40194 70540 333 20160 58008 70000=
0138419410999992024010706004+23267+090700FM-12+000799999V0203601N001519999999N006000199+02431+01501101751ADDAA124000091AY141021AY201021MA1999999101691MD1999999+0141MW1001REMSYN06441941 31956 03603 10243 20150 30169 40175 70040 333 58014 70000=
0110419410999992024010709004+23267+090700FM-12+000799999V0203601N001519999999N006000199+02601+01601101461ADDAA124000091MA1999999101411MD1999999+0071REMSYN05841941 32956 03603 10260 20160 30141 40146 333 58007 70000=
0157419410999992024010712004+23267+090700FM-12+000799999V0203601N001019999999N005000199+02201+01701101521ADDAA124000091AY101021AY201021KA1240M+02681MA1999999101471MD1999999+0051MW1051REMSYN07041941 31950 03602 10220 20170 30147 40152 70500 333 10268 58005 70000=
0138419410999992024010715004+23267+090700FM-12+000799999V0209999C000019999999N004000199+01901+01701101671ADDAA124000091AY101021AY201021MA1999999101621MD1999999+0021MW1051REMSYN06441941 31940 00000 10190 20170 30162 40167 70500 333 58002 70000=
0138419410999992024010718004+23267+090700FM-12+000799999V0202901N001519999999N003000199+01881+01801101671ADDAA124000091AY101021AY201021MA1999999101611MD1999999-0051MW1051REMSYN06441941 31930 02903 10188 20180 30161 40167 70500 333 59005 70000=
0138419410999992024010800004+23267+090700FM-12+000799999V0203601N001519999999N000800199+01721+01701101731ADDAA124000091AY141021AY201021MA1999999101671MD1999999+0011MW1461REMSYN06441941 31908 03603 10172 20170 30167 40173 74640 333 58001 70000=
0171419410999992024010803004+23267+090700FM-12+999999999V0203601N00201004205C9000800199+01771+01701101961ADDAA124999999AY141999AY241999GA1051+004201061GA2081+024001041GE19AGL   +99999+99999GF108991051999004201999999KA1120N+01701MA1999999101901MD1999999+0021MW1421REMSYN004BUFR
0138419410999992024010806004+23267+090700FM-12+000799999V0203601N002119999999N004000199+02261+01901101801ADDAA124000091AY141021AY221021MA1999999101741MD1999999+0051MW1051REMSYN06441941 31940 03604 10226 20190 30174 40180 70542 333 58005 70000=
0110419410999992024010809004+23267+090700FM-12+000799999V0203601N002119999999N006000199+02461+01801101521ADDAA124000091MA1999999101461MD1999999+0051REMSYN05841941 32956 03604 10246 20180 30146 40152 333 58005 70000=
0082419410999992024010812004+23267+090700FM-12+999999999V0203601N0010122000199004000199+02101+01701101571ADDAA124999999GF100991999999999999999999MA1999999101521MD1999999+0051REMSYN004BUFR
0138419410999992024010815004+23267+090700FM-12+000799999V0203101N001019999999N004000199+01951+01901101701ADDAA124000091AY101021AY201021MA1999999101651MD1999999+0031MW1051REMSYN06441941 31940 03102 10195 20190 30165 40170 70500 333 58003 70000=
0138419410999992024010818004+23267+090700FM-12+000799999V0203601N002619999999N004000199+01851+01801101781ADDAA124000091AY101021AY201021MA1999999101721MD1999999+0111MW1051REMSYN06441941 31940 03605 10185 20180 30172 40178 70500 333 58011 70000=
0138419410999992024010821004+23267+090700FM-12+000799999V0203601N001519999999N003000199+01731+01701101721ADDAA124000091AY101021AY201021MA1999999101661MD1999999+0021MW1101REMSYN06441941 31930 03603 10173 20170 30166 40172 71000 333 58002 70000=
0138419410999992024010900004+23267+090700FM-12+000799999V0203601N001519999999N000800199+01671+01671101691ADDAA124000091AY141021AY201021MA1999999101631MD1999999-0041MW1461REMSYN06441941 31908 03603 10167 20167 30163 40169 74640 333 59004 70000=
0219419410999992024010903004+23267+090700FM-12+000799999V0203601N001019999999N000800199+01741+01601101901ADDAA124000091AY141021AY241021GA1091+999999999GE19AGL   +99999+99999GF199999091999999999999999KA1240N+01631MA1999999101841MW1421REMSYN08241941 31/08 03602 10174 20160 30184 40190 74244 89/// 333 20163 56999 59006 70000=
0138419410999992024010906004+23267+090700FM-12+000799999V0203601N001519999999N005000199+02081+01701101661ADDAA124000091AY141021AY241021MA1999999101601MD1999999-0141MW1051REMSYN06441941 31950 03603 10208 20170 30160 40166 70544 333 59014 70000=
0178419410999992024010909004+23267+090700FM-12+000799999V0202601N001512200019N005000199+02281+01701101431ADDAA124000091GA1031+005401061GE19AGL   +99999+99999GF103991031999005401999999MA1999999101381REMSYN07641941 32450 32603 10228 20170 30138 40143 83500 333 56900 59008 70000 83618=
0197419410999992024010912004+23267+090700FM-12+000799999V0202601N001512200019N004000199+02001+01701101501ADDAA124000091GA1031+005401061GE19AGL   +99999+99999GF103991031999005401999999KA1240M+02401MA1999999101451REMSYN08241941 32440 32603 10200 20170 30145 40150 83500 333 10240 56900 59007 70000 83618=
0110419410999992024010915004+23267+090700FM-12+000799999V0209999C000019999999N004000199+01751+01701101571ADDAA124000091MA1999999101511MD1999999-0141REMSYN05841941 32940 00000 10175 20170 30151 40157 333 59014 70000=
0138419410999992024010918004+23267+090700FM-12+000799999V0209999C000019999999N003000199+01621+01601101531ADDAA124000091AY101021AY201021MA1999999101471MD1999999-0221MW1051REMSYN06441941 31930 00000 10162 20160 30147 40153 70500 333 59022 70000=
0138419410999992024010921004+23267+090700FM-12+000799999V0209999C000019999999N002000199+01551+01551101531ADDAA124000091AY101021AY201021MA1999999101471MD1999999-0191MW1101REMSYN06441941 31920 00000 10155 20155 30147 40153 71000 333 59019 70000=
0138419410999992024011000004+23267+090700FM-12+000799999V0209999C000019999999N000800199+01401+01401101571ADDAA124000091AY141021AY201021MA1999999101511MD1999999-0121MW1461REMSYN06441941 31908 00000 10140 20140 30151 40157 74640 333 59012 70000=
0219419410999992024011003004+23267+090700FM-12+000799999V0209999C00001002401WN000800199+01501+01501101721ADDAA124000091AY141021AY241021GA1091+999999999GE19AGL   +99999+99999GF109991091999999999999999KA1240N+01381MA1999999101661MW1421REMSYN08241941 31/08 90000 10150 20150 30166 40172 74244 89/// 333 20138 56999 59018 70000=
0138419410999992024011006004+23267+090700FM-12+000799999V0203601N002119999999N002000199+01781+01601101561ADDAA124000091AY141021AY241021MA1999999101501MD1999999-0101MW1101REMSYN06441941 31920 03604 10178 20160 30150 40156 71044 333 59010 70000=
0110419410999992024011009004+23267+090700FM-12+000799999V0203601N002119999999N006000199+02101+01501101281ADDAA124000091MA1999999101221MD1999999-0161REMSYN05841941 32956 03604 10210 20150 30122 40128 333 59016 70000=
0129419410999992024011012004+23267+090700FM-12+000799999V0203601N002119999999N005000199+01801+01601101281ADDAA124000091KA1240M+02151MA1999999101221MD1999999-0231REMSYN06441941 32950 03604 10180 20160 30122 40128 333 10215 59023 70000=
0138419410999992024011015004+23267+090700FM-12+000799999V0209999C000019999999N002000199+01601+01601101451ADDAA124000091AY101021AY201021MA1999999101391MD1999999-0121MW1101REMSYN06441941 31920 00000 10160 20160 30139 40145 71000 333 59012 70000=
0138419410999992024011018004+23267+090700FM-12+000799999V0209999C000019999999N002000199+01531+01501101511ADDAA124000091AY101021AY201021MA1999999101451MD1999999-0051MW1101REMSYN06441941 31920 00000 10153 20150 30145 40151 71000 333 59005 70000=
0138419410999992024011021004+23267+090700FM-12+000799999V0209999C000019999999N002000199+01441+01401101471ADDAA124000091AY101021AY201021MA1999999101411MD1999999-0061MW1101REMSYN06441941 31920 00000 10144 20140 30141 40147 71000 333 59006 70000=
0138419410999992024011100004+23267+090700FM-12+000799999V0209999C000019999999N002000199+01481+01481101671ADDAA124000091AY101021AY201021MA1999999101611MD1999999+0101MW1101REMSYN06441941 31920 00000 10148 20148 30161 40167 71000 333 58010 70000=
0157419410999992024011103004+23267+090700FM-12+000799999V0203601N001519999999N004000199+01801+01601101851ADDAA124000091AY101021AY201021KA1240N+01441MA1999999101791MD1999999+0131MW1051REMSYN07041941 31940 03603 10180 20160 30179 40185 70500 333 20144 58013 70000=
0110419410999992024011106004+23267+090700FM-12+000799999V0203601N002119999999N006000199+02261+01501101771ADDAA124000091MA1999999101711MD1999999+0211REMSYN05841941 32956 03604 10226 20150 30171 40177 333 58021 70000=
0110419410999992024011109004+23267+090700FM-12+000799999V0203601N002119999999N006000199+02401+01701101421ADDAA124000091MA1999999101361MD1999999+0141REMSYN05841941 32956 03604 10240 20170 30136 40142 333 58014 70000=
0129419410999992024011112004+23267+090700FM-12+000799999V0203601N002119999999N005000199+01901+01501101411ADDAA124000091KA1240M+02501MA1999999101351MD1999999+0131REMSYN06441941 32950 03604 10190 20150 30135 40141 333 10250 58013 70000=
0110419410999992024011115004+23267+090700FM-12+000799999V0203601N001519999999N004000199+01671+01501101651ADDAA124000091MA1999999101591MD1999999+0201REMSYN05841941 32940 03603 10167 20150 30159 40165 333 58020 70000=
0138419410999992024011118004+23267+090700FM-12+000799999V0203601N001519999999N003000199+01501+01401101701ADDAA124000091AY101021AY201021MA1999999101641MD1999999+0191MW1051REMSYN06441941 31930 03603 10150 20140 30164 40170 70500 333 58019 70000=
0138419410999992024011121004+23267+090700FM-12+000799999V0209999C000019999999N002000199+01461+01461101571ADDAA124000091AY101021AY201021MA1999999101511MD1999999+0101MW1101REMSYN06441941 31920 00000 10146 20146 30151 40157 71000 333 58010 70000=
0138419410999992024011200004+23267+090700FM-12+000799999V0203601N001519999999N002000199+01461+01401101581ADDAA124000091AY101021AY201021MA1999999101521MD1999999-0091MW1101REMSYN06441941 31920 03603 10146 20140 30152 40158 71000 333 59009 70000=
0203419410999992024011203004+23267+090700FM-12+999999999V0203601N00151003601C9004000199+01601+01301101821ADDAA124999999AY121999AY201999GA1021+002401071GA2031+003601061GA3011+007201091GA4081+018001041GE19AGL   +99999+99999GF108991021999002401999999KA1120N+01381MA1999999101761MD1999999-0031MW1051REMSYN004BUFR
0200419410999992024011206004+23267+090700FM-12+000799999V0203601N002110240019N006000199+01901+01301101651ADDAA124000091GA1041+004201061GA2061+024001041GE19AGL   +99999+99999GF106991041999004201999999MA1999999101591REMSYN08241941 32456 63604 10190 20130 30159 40165 84520 333 56490 59012 70000 84614 86458=
0219419410999992024011209004+23267+090700FM-12+000799999V0203101N00311999999CN006000199+01911+01401101401ADDAA124000091GA1031+004201061GA2041+024001041GE19AGL   +99999+99999GF104991031999004201999999MA1999999101341REMSYN08241941 32456 43106 10191 20140 30134 40140 83520 333 56990 59002 70000 83614 84458=EQDQ01 024003SCOCIG
0157419410999992024011212004+23267+090700FM-12+000799999V0203101N002619999999N005000199+01621+01301101411ADDAA124000091AY121021AY201021KA1240M+02061MA1999999101351MD1999999+0001MW1051REMSYN07041941 31950 03105 10162 20130 30135 40141 70520 333 10206 58000 70000=
0138419410999992024011215004+23267+090700FM-12+000799999V0203601N002619999999N004000199+01531+01301101571ADDAA124000091AY101021AY201021MA1999999101511MD1999999+0081MW1051REMSYN06441941 31940 03605 10153 20130 30151 40157 70500 333 58008 70000=
0138419410999992024011218004+23267+090700FM-12+000799999V0203601N002119999999N003000199+01501+01401101571ADDAA124000091AY101021AY201021MA1999999101511MD1999999-0131MW1051REMSYN06441941 31930 03604 10150 20140 30151 40157 70500 333 59013 70000=
0138419410999992024011221004+23267+090700FM-12+000799999V0203601N001019999999N003000199+01481+01401101531ADDAA124000091AY101021AY201021MA1999999101481MD1999999-0031MW1051REMSYN06441941 31930 03602 10148 20140 30148 40153 70500 333 59003 70000=
0138419410999992024011300004+23267+090700FM-12+000799999V0203601N001519999999N003000199+01481+01401101551ADDAA124000091AY101021AY201021MA1999999101501MD1999999-0021MW1051REMSYN06441941 31930 03603 10148 20140 30150 40155 70500 333 59002 70000=
0247419410999992024011303004+23267+090700FM-12+000799999V0203601N00051004801CN004000199+01531+01301101771ADDAA124000091AY121021AY221021GA1051+004801061GA2081+024001041GE19AGL   +99999+99999GF108991051999004801999999KA1240N+01481MA1999999101721MW1051REMSYN09441941 31940 83601 10153 20130 30172 40177 70522 85520 333 20148 56999 59004 70000 85616 88458=
0206419410999992024011306004+23267+090700FM-12+000799999V0203601N00151002101CN004000199+01601+01301101671ADDAA124000091AY121021AY221021GA1081+002101071GE19AGL   +99999+99999GF108991081999002101999999MA1999999101621MW1051REMSYN08241941 31340 83603 10160 20130 30162 40167 70522 886// 333 56199 58003 70000 88707=
0206419410999992024011309004+23267+090700FM-12+000799999V0203601N00101002101CN004000199+01721+01401101421ADDAA124000091AY121021AY221021GA1081+002101041GE19AGL   +99999+99999GF108991081999002101999999MA1999999101361MW1051REMSYN08241941 31340 83602 10172 20140 30136 40142 70522 886// 333 56799 58002 70000 88407=
0247419410999992024011312004+23267+090700FM-12+000799999V0203601N00051004201CN004000199+01681+01401101431ADDAA124000091AY121021AY221021GA1051+004201061GA2081+024001041GE19AGL   +99999+99999GF108991051999004201999999KA1240M+01751MA1999999101371MW1051REMSYN09441941 31440 83601 10168 20140 30137 40143 70522 8552/ 333 10175 56999 58002 70000 85614 88458=
0138419410999992024011315004+23267+090700FM-12+000799999V0203601N001019999999N004000199+01521+01401101551ADDAA124000091AY101021AY201021MA1999999101491MD1999999-0021MW1051REMSYN06441941 31940 03602 10152 20140 30149 40155 70500 333 59002 70000=
0138419410999992024011318004+23267+090700FM-12+000799999V0203601N001019999999N004000199+01421+01401101501ADDAA124000091AY121021AY201021MA1999999101451MD1999999-0061MW1051REMSYN06441941 31940 03602 10142 20140 30145 40150 70520 333 59006 70000=
0138419410999992024011321004+23267+090700FM-12+000799999V0209999C000019999999N004000199+01431+01301101451ADDAA124000091AY101021AY201021MA1999999101401MD1999999-0081MW1051REMSYN06441941 31940 00000 10143 20130 30140 40145 70500 333 59008 70000=
0228419410999992024011400004+23267+090700FM-12+000799999V0203601N00051004201CN004000199+01451+01451101451ADDAA124000091AY121021AY201021GA1051+004201061GA2081+024001041GE19AGL   +99999+99999GF108991051999004201999999MA1999999101391MW1051REMSYN08841941 31440 83601 10145 20145 30139 40145 70520 8552/ 333 56999 59011 70000 85614 88458=
0219419410999992024011403004+23267+090700FM-12+000799999V0209999C00001001201WN000400199+01461+01461101701ADDAA124000091AY141021AY221021GA1091+999999999GE19AGL   +99999+99999GF109991091999999999999999KA1240N+01321MA1999999101651MW1471REMSYN08241941 31/04 90000 10146 20146 30165 40170 74742 89/// 333 20132 56999 59007 70000=
0200419410999992024011406004+23267+090700FM-12+000799999V0203601N00151002401WN001000199+01661+01601101601ADDAA124000091AY141021AY221021GA1091+999999999GE19AGL   +99999+99999GF109991091999999999999999MA1999999101541MW1281REMSYN07641941 31/10 93603 10166 20160 30154 40160 72842 89/// 333 56999 59008 70000=
0206419410999992024011409004+23267+090700FM-12+000799999V0203601N00151002401CN002000199+01721+01601101371ADDAA124000091AY121021AY201021GA1081+002401071GE19AGL   +99999+99999GF108991081999002401999999MA1999999101311MW1101REMSYN08241941 31320 83603 10172 20160 30131 40137 71020 886// 333 56899 59005 70000 88708=
0241419410999992024011412004+23267+090700FM-12+000799999V0203601N00151003601CN002000199+01641+01501101411ADDAA124000091GA1031+002401071GA2041+003601061GA3081+018001041GE19AGL   +99999+99999GF108991031999002401999999KA1240M+01801MA1999999101351REMSYN09441941 32320 83603 10164 20150 30135 40141 8662/ 333 10180 56899 59002 70000 83708 84612 88456=
0250419410999992024011415004+23267+090700FM-12+000799999V0209999C00001003601CN002000199+01621+01601101501ADDAA124000091AY121021AY221021GA1031+002401071GA2041+003601061GA3081+018001041GE19AGL   +99999+99999GF108991031999002401999999MA1999999101441MW1101REMSYN09441941 31320 80000 10162 20160 30144 40150 71022 8762/ 333 56899 59005 70000 83708 84612 88456=
0250419410999992024011418004+23267+090700FM-12+000799999V0209999C00001003601CN002000199+01571+01571101581ADDAA124000091AY121021AY221021GA1031+002401071GA2041+003601061GA3081+018001041GE19AGL   +99999+99999GF108991031999002401999999MA1999999101521MW1101REMSYN09441941 31320 80000 10157 20157 30152 40158 71022 8762/ 333 56899 58007 70000 83708 84612 88456=
0250419410999992024011421004+23267+090700FM-12+000799999V0209999C00001003601CN002000199+01561+01561101491ADDAA124000091AY121021AY221021GA1031+002401071GA2041+003601061GA3081+024001041GE19AGL   +99999+99999GF108991031999002401999999MA1999999101431MW1101REMSYN09441941 31320 80000 10156 20156 30143 40149 71022 8762/ 333 56899 58003 70000 83708 84612 88458=
0250419410999992024011500004+23267+090700FM-12+000799999V0209999C00001003601CN002000199+01501+01501101511ADDAA124000091AY121021AY221021GA1031+002401071GA2041+003601061GA3081+018001041GE19AGL   +99999+99999GF108991031999002401999999MA1999999101451MW1101REMSYN09441941 31320 80000 10150 20150 30145 40151 71022 8762/ 333 56999 58006 70000 83708 84612 88456=
0269419410999992024011503004+23267+090700FM-12+000799999V0203601N00151003601CN004000199+01621+01401101661ADDAA124000091AY121021AY221021GA1031+002401071GA2041+003601061GA3081+018001041GE19AGL   +99999+99999GF108991031999002401999999KA1240N+01421MA1999999101601MW1051REMSYN10041941 31340 83603 10162 20140 30160 40166 70522 8762/ 333 20142 56899 59005 70000 83708 84612 88456=
0136419410999992024011506004+23267+090700FM-12+999999999V0203601N0015102400199005000199+01911+01301101551ADDAA124999999GA1041+004801061GA2061+024001041GE19AGL   +99999+99999GF106991041999004801999999MA1999999101491MD1999999-0051REMSYN004BUFR
0200419410999992024011509004+23267+090700FM-12+000799999V0203601N001510240019N005000199+02151+01301101321ADDAA124000091GA1041+004801061GA2061+024001041GE19AGL   +99999+99999GF106991041999004801999999MA1999999101261REMSYN08241941 32450 63603 10215 20130 30126 40132 85420 333 56990 59005 70000 84616 86458=
0238419410999992024011512004+23267+090700FM-12+000799999V0203601N00151999999CN004000199+01771+01501101371ADDAA124000091GA1031+005401061GA2041+036001031GE19AGL   +99999+99999GF104991031999005401999999KA1240M+02201MA1999999101311REMSYN08841941 32440 43603 10177 20150 30131 40137 83530 333 10220 56990 59004 70000 83618 84362=EQDQ01 036003SCOCIG
0110419410999992024011515004+23267+090700FM-12+000799999V0203101N001019999999N004000199+01631+01401101471ADDAA124000091MA1999999101411MD1999999-0031REMSYN05841941 31940 03102 10163 20140 30141 40147 333 59003 70000=
0228419410999992024011518004+23267+090700FM-12+000799999V0203301N002112200019N003500199+01551+01501101501ADDAA124000091AY121021AY201021GA1011+004201061GA2041+024001041GE19AGL   +99999+99999GF104991011999004201999999MA1999999101441MW1051REMSYN08841941 31435 43304 10155 20150 30144 40150 70520 81510 333 56990 59008 70000 81614 84458=
0228419410999992024011521004+23267+090700FM-12+000799999V0203101N001012200019N003000199+01501+01401101451ADDAA124000091AY121021AY201021GA1011+004201061GA2041+024001041GE19AGL   +99999+99999GF104991011999004201999999MA1999999101391MW1051REMSYN08841941 31430 43102 10150 20140 30139 40145 70520 81510 333 56990 59004 70000 81614 84458=
0250419410999992024011600004+23267+090700FM-12+000799999V0203101N00101003601CN002000199+01451+01451101471ADDAA124000091AY121021AY221021GA1031+002401071GA2041+003601061GA3081+024001041GE19AGL   +99999+99999GF108991031999002401999999MA1999999101411MW1101REMSYN09441941 31320 83102 10145 20145 30141 40147 71022 8762/ 333 56899 59004 70000 83708 84612 88458=
0269419410999992024011603004+23267+090700FM-12+000799999V0203101N00101003601CN004000199+01531+01301101701ADDAA124000091AY121021AY221021GA1031+002401071GA2041+003601061GA3081+018001041GE19AGL   +99999+99999GF108991031999002401999999KA1240N+01401MA1999999101651MW1101REMSYN10041941 31340 83102 10153 20130 30165 40170 71022 8762/ 333 20140 56899 58005 70000 83708 84612 88456=
0200419410999992024011606004+23267+090700FM-12+000799999V0203601N001010240019N004000199+01891+01201101631ADDAA124000091GA1041+004801061GA2061+024001041GE19AGL   +99999+99999GF106991041999004801999999MA1999999101571REMSYN08241941 32440 63602 10189 20120 30157 40163 85420 333 56990 58008 70000 84616 86458=
0219419410999992024011609004+23267+090700FM-12+000799999V0203601N00211999999CN006000199+02001+01201101421ADDAA124000091GA1041+005401061GA2041+036001031GE19AGL   +99999+99999GF104991041999005401999999MA1999999101361REMSYN08241941 32456 43604 10200 20120 30136 40142 83530 333 56990 58010 70000 84618 84362=EQDQ01 036003SCOCIG
0155419410999992024011612004+23267+090700FM-12+999999999V0209999C00001999999C9004000199+01651+01401101371ADDAA124999999GA1041+005401061GA2041+036001031GE19AGL   +99999+99999GF104991041999005401999999MA1999999101311MD1999999+0001REMSYN004BUFREQDQ01 036003SCOCIG
0110419410999992024011615004+23267+090700FM-12+000799999V0203601N001519999999N004000199+01461+01401101501ADDAA124000091MA1999999101451MD1999999+0041REMSYN05841941 32940 03603 10146 20140 30145 40150 333 58004 70000=
0138419410999992024011618004+23267+090700FM-12+000799999V0209999C000019999999N004000199+01321+01301101601ADDAA124000091AY101021AY201021MA1999999101541MD1999999+0101MW1051REMSYN06441941 31940 00000 10132 20130 30154 40160 70500 333 58010 70000=
0138419410999992024011621004+23267+090700FM-12+000799999V0209999C000019999999N003000199+01321+01301101571ADDAA124000091AY101021AY201021MA1999999101511MD1999999+0121MW1101REMSYN06441941 31930 00000 10132 20130 30151 40157 71000 333 58012 70000=
0200419410999992024011700004+23267+090700FM-12+000799999V0203601N00101002401WN000800199+01301+01301101551ADDAA124000091AY141021AY201021GA1091+999999999GE19AGL   +99999+99999GF109991091999999999999999MA1999999101491MW1461REMSYN07641941 31/08 93602 10130 20130 30149 40155 74640 89/// 333 56999 58008 70000=
0117419410999992024011703004+23267+090700FM-12+999999999V0203601N0005122000199000400199+01371+99999101721ADDAA124999999AY141999AY221999GF100991999999999999999999KA1120N+01261MA1999999101661MD1999999+0011MW1471REMSYN004BUFR
0200419410999992024011706004+23267+090700FM-12+000799999V0203601N00051002401WN000800199+01601+01501101661ADDAA124000091AY141021AY241021GA1091+999999999GE19AGL   +99999+99999GF109991091999999999999999MA1999999101601MW1431REMSYN07641941 31/08 93601 10160 20150 30160 40166 74344 89/// 333 56999 58003 70000=
0228419410999992024011709004+23267+090700FM-12+000799999V0203601N000510240019N004000199+01951+01501101371ADDAA124000091AY141021AY221021GA1031+004201061GA2061+024001041GE19AGL   +99999+99999GF106991031999004201999999MA1999999101311MW1051REMSYN08841941 31440 63601 10195 20150 30131 40137 70542 83520 333 56990 59005 70000 83614 86458=
0247419410999992024011712004+23267+090700FM-12+000799999V0209999C000010240019N002500199+01701+01501101381ADDAA124000091AY141021AY221021GA1041+004201061GA2061+024001041GE19AGL   +99999+99999GF106991041999004201999999KA1240M+02021MA1999999101321MW1101REMSYN09441941 31425 60000 10170 20150 30132 40138 71042 84520 333 10202 56990 58001 70000 84614 86458=
0138419410999992024011715004+23267+090700FM-12+000799999V0203601N000519999999N002000199+01411+01301101591ADDAA124000091AY121021AY201021MA1999999101541MD1999999+0091MW1101REMSYN06441941 31920 03601 10141 20130 30154 40159 71020 333 58009 70000=
0138419410999992024011718004+23267+090700FM-12+000799999V0209999C000019999999N001500199+01401+01301101621ADDAA124000091AY121021AY201021MA1999999101561MD1999999+0021MW1101REMSYN06441941 31915 00000 10140 20130 30156 40162 71020 333 58002 70000=
0138419410999992024011721004+23267+090700FM-12+000799999V0209999C000019999999N001500199+01361+01301101491ADDAA124000091AY101021AY201021MA1999999101431MD1999999-0081MW1101REMSYN06441941 31915 00000 10136 20130 30143 40149 71000 333 59008 70000=
0138419410999992024011800004+23267+090700FM-12+000799999V0209999C000019999999N001200199+01311+01301101511ADDAA124000091AY101021AY201021MA1999999101461MD1999999-0031MW1101REMSYN06441941 31912 00000 10131 20130 30146 40151 71000 333 59003 70000=
0247419410999992024011803004+23267+090700FM-12+000799999V0203101N00051004201CN000800199+01541+01401101681ADDAA124000091AY141021AY221021GA1051+004201061GA2081+024001041GE19AGL   +99999+99999GF108991051999004201999999KA1240N+01291MA1999999101621MW1421REMSYN09441941 31408 83101 10154 20140 30162 40168 74242 8552/ 333 20129 56999 59004 70000 85614 88458=
0174419410999992024011806004+23267+090700FM-12+999999999V0203601N00101004201C9001500199+01671+01501101631ADDAA124999999AY141999AY221999GA1031+002401071GA2041+004201061GA3081+024001041GE19AGL   +99999+99999GF108991031999002401999999MA1999999101581MD1999999-0021MW1101REMSYN004BUFR
0280419410999992024011809004+23267+090700FM-12+000799999V0203601N00101004201CN004000199+01951+01601101371ADDAA103000091AA224000091AY161021AY221021GA1051+004201061GA2081+024001041GE19AGL   +99999+99999GF108991051999004201999999MA1999999101311MW1051REMSYN09441941 21440 83602 10195 20160 30131 40137 70562 8552/ 333 56999 58000 6990/ 79999 85614 88458=EQDQ01  00002PRCP03Q02  00002PRCP24
0264419410999992024011812004+23267+090700FM-12+000799999V0209999C00001004201CN004000199+01781+01601101411ADDAA118000021AA224000021AY161021AY221021GA1051+004201061GA2081+024001041GE19AGL   +99999+99999GF108991051999004201999999KA1240M+01971MA1999999101351MW1601REMSYN10041941 11440 80000 10178 20160 30135 40141 69903 76062 8552/ 333 10197 56999 58003 79999 85614 88458=
0245419410999992024011815004+23267+090700FM-12+000799999V0209999C00001004201CN004000199+01701+01601101541ADDAA103000021AA224000021AY161021AY221021GA1051+004201061GA2081+024001041GE19AGL   +99999+99999GF108991051999004201999999MA1999999101481MW1211REMSYN09441941 21440 80000 10170 20160 30148 40154 72162 8552/ 333 56999 59006 6990/ 79999 85614 88458=
0245419410999992024011818004+23267+090700FM-12+000799999V0209999C000010240019N003500199+01671+01671101611ADDAA118000331AA224000331AY161021AY221021GA1041+004201061GA2081+024001041GE19AGL   +99999+99999GF108991041999004201999999MA1999999101551MW1211REMSYN09441941 11435 80000 10167 20167 30155 40161 69933 72162 8452/ 333 56999 59001 70003 84614 88458=
0228419410999992024011821004+23267+090700FM-12+000799999V0209999C000010240019N002000199+01641+01601101581ADDAA124000331AY121021AY221021GA1031+004201061GA2081+024001041GE19AGL   +99999+99999GF108991031999004201999999MA1999999101521MW1101REMSYN08841941 31420 80000 10164 20160 30152 40158 71022 8352/ 333 56999 58009 70003 83614 88458=
0200419410999992024011900004+23267+090700FM-12+000799999V0209999C00001001201WN000400199+01511+01511101601ADDAA124000331AY141021AY221021GA1091+999999999GE19AGL   +99999+99999GF109991091999999999999999MA1999999101541MW1471REMSYN07641941 31/04 90000 10151 20151 30154 40160 74742 89/// 333 56999 58008 70003=
0157419410999992024011903004+23267+090700FM-12+000799999V0203601N001019999999N001200199+01861+01701101821ADDAA124000331AY141021AY201021KA1240N+01501MA1999999101761MD1999999+0141MW1101REMSYN07041941 31912 03602 10186 20170 30176 40182 71040 333 20150 58014 70003=
0138419410999992024011906004+23267+090700FM-12+000799999V0203101N002119999999N005000199+02301+01501101711ADDAA124000331AY141021AY201021MA1999999101651MD1999999+0071MW1001REMSYN06441941 31950 03104 10230 20150 30165 40171 70040 333 58007 70003=
0110419410999992024011909004+23267+090700FM-12+000799999V0203601N002119999999N006000199+02461+01401101431ADDAA124000091MA1999999101371MD1999999+0061REMSYN05841941 32956 03604 10246 20140 30137 40143 333 58006 70000=
0129419410999992024011912004+23267+090700FM-12+000799999V0203601N001519999999N005000199+02001+01701101411ADDAA124000091KA1240M+02501MA1999999101351MD1999999+0001REMSYN06441941 32950 03603 10200 20170 30135 40141 333 10250 58000 70000=
0138419410999992024011915004+23267+090700FM-12+000799999V0209999C000019999999N004000199+01801+01601101611ADDAA124000331AY101021AY201021MA1999999101551MD1999999+0051MW1051REMSYN06441941 31940 00000 10180 20160 30155 40161 70500 333 58005 70003=
0138419410999992024011918004+23267+090700FM-12+000799999V0209999C000019999999N002000199+01761+01701101701ADDAA124000091AY101021AY201021MA1999999101641MD1999999+0091MW1101REMSYN06441941 31920 00000 10176 20170 30164 40170 71000 333 58009 70000=
0138419410999992024011921004+23267+090700FM-12+000799999V0209999C000019999999N002000199+01701+01601101671ADDAA124000091AY101021AY201021MA1999999101611MD1999999+0091MW1101REMSYN06441941 31920 00000 10170 20160 30161 40167 71000 333 58009 70000=
0200419410999992024012000004+23267+090700FM-12+000799999V0203601N00151002401WN000800199+01501+01501101641ADDAA124000091AY141021AY201021GA1091+999999999GE19AGL   +99999+99999GF109991091999999999999999MA1999999101581MW1451REMSYN07641941 31/08 93603 10150 20150 30158 40164 74540 89/// 333 56999 58004 70000=
0117419410999992024012003004+23267+090700FM-12+999999999V0203601N0025122000199001000199+01501+01501101861ADDAA124999999AY141999AY241999GF100991999999999999999999KA1120N+01461MA1999999101801MD1999999+0041MW1281REMSYN004BUFR
0138419410999992024012006004+23267+090700FM-12+000799999V0203101N002119999999N004000199+01861+01601101781ADDAA124000091AY141021AY241021MA1999999101731MD1999999+0081MW1051REMSYN06441941 31940 03104 10186 20160 30173 40178 70544 333 58008 70000=
0110419410999992024012009004+23267+090700FM-12+000799999V0203601N002119999999N006000199+02301+01301101471ADDAA124000091MA1999999101411MD1999999+0041REMSYN05841941 32956 03604 10230 20130 30141 40147 333 58004 70000=
0129419410999992024012012004+23267+090700FM-12+000799999V0203601N001519999999N005000199+01961+01701101431ADDAA124000091KA1240M+02371MA1999999101371MD1999999+0021REMSYN06441941 32950 03603 10196 20170 30137 40143 333 10237 58002 70000=
0138419410999992024012015004+23267+090700FM-12+000799999V0203601N002119999999N003000199+01701+01601101581ADDAA124000091AY101021AY201021MA1999999101521MD1999999-0031MW1051REMSYN06441941 31930 03604 10170 20160 30152 40158 70500 333 59003 70000=
0138419410999992024012021004+23267+090700FM-12+000799999V0209999C000019999999N002000199+01601+01601101571ADDAA124000091AY101021AY201021MA1999999101511MD1999999-0101MW1101REMSYN06441941 31920 00000 10160 20160 30151 40157 71000 333 59010 70000=
0138419410999992024012100004+23267+090700FM-12+000799999V0203601N001519999999N002000199+01501+01501101561ADDAA124000091AY101021AY201021MA1999999101501MD1999999-0061MW1101REMSYN06441941 31920 03603 10150 20150 30150 40156 71000 333 59006 70000=
0219419410999992024012103004+23267+090700FM-12+000799999V0203601N00211001201WN000600199+01501+01501101711ADDAA124000091AY141021AY241021GA1091+999999999GE19AGL   +99999+99999GF109991091999999999999999KA1240N+01481MA1999999101651MW1471REMSYN08241941 31/06 93604 10150 20150 30165 40171 74744 89/// 333 20148 56999 59015 70000=
0228419410999992024012106004+23267+090700FM-12+000799999V0203601N001510240019N004000199+02031+01601101641ADDAA124000091AY141021AY221021GA1041+004801061GA2061+024001041GE19AGL   +99999+99999GF106991041999004801999999MA1999999101581MW1051REMSYN08841941 31440 63603 10203 20160 30158 40164 70542 84520 333 56990 59015 70000 84616 86458=
0228419410999992024012109004+23267+090700FM-12+000799999V0203601N00051024001CN005000199+02231+01101101431ADDAA124000091AY121021AY221021GA1031+004801061GA2051+024001041GE19AGL   +99999+99999GF105991031999004801999999MA1999999101371MW1051REMSYN08841941 31450 53601 10223 20110 30137 40143 70522 83520 333 56990 59004 70000 83616 85458=
0157419410999992024012112004+23267+090700FM-12+000799999V0209999C000019999999N005000199+01851+01501101461ADDAA124000091AY121021AY221021KA1240M+02301MA1999999101401MD1999999+0031MW1051REMSYN07041941 31950 00000 10185 20150 30140 40146 70522 333 10230 58003 70000=
0138419410999992024012115004+23267+090700FM-12+000799999V0203601N001019999999N004000199+01651+01501101701ADDAA124000091AY101021AY201021MA1999999101641MD1999999+0131MW1051REMSYN06441941 31940 03602 10165 20150 30164 40170 70500 333 58013 70000=
0228419410999992024012118004+23267+090700FM-12+000799999V0203601N00311024001CN002000199+01651+01601101761ADDAA124000091AY121021AY201021GA1031+004201061GA2051+024001041GE19AGL   +99999+99999GF105991031999004201999999MA1999999101701MW1101REMSYN08841941 31420 53606 10165 20160 30170 40176 71020 83510 333 56990 58013 70000 83614 85458=
0228419410999992024012121004+23267+090700FM-12+000799999V0203601N000510240019N001500199+01451+01401101761ADDAA124000091AY121021AY201021GA1041+004201061GA2071+024001041GE19AGL   +99999+99999GF107991041999004201999999MA1999999101701MW1101REMSYN08841941 31415 73601 10145 20140 30170 40176 71020 84510 333 56990 58019 70000 84614 87458=
0200419410999992024012200004+23267+090700FM-12+000799999V0203601N00151002401WN000800199+01231+01101101771ADDAA124000091AY141021AY221021GA1091+999999999GE19AGL   +99999+99999GF109991091999999999999999MA1999999101721MW1471REMSYN07641941 31/08 93603 10123 20110 30172 40177 74742 89/// 333 56999 58022 70000=
0219419410999992024012203004+23267+090700FM-12+000799999V0203601N00261001201WN000400199+01351+01301102001ADDAA124000091AY141021AY241021GA1091+999999999GE19AGL   +99999+99999GF109991091999999999999999KA1240N+01181MA1999999101941MW1471REMSYN08241941 31/04 93605 10135 20130 30194 40200 74744 89/// 333 20118 56999 58029 70000=
0206419410999992024012206004+23267+090700FM-12+000799999V0203601N00211024001CN002000199+01611+01201101881ADDAA124000091AY141021AY221021GA1061+024001041GE19AGL   +99999+99999GF106991061999024001999999MA1999999101821MW1101REMSYN08241941 31920 63604 10161 20120 30182 40188 71042 86010 333 56090 58024 70000 86458=
0138419410999992024012209004+23267+090700FM-12+000799999V0203601N002119999999N005000199+01861+01301101661ADDAA124000091AY121021AY201021MA1999999101611MD1999999+0241MW1051REMSYN06441941 31950 03604 10186 20130 30161 40166 70520 333 58024 70000=
0157419410999992024012212004+23267+090700FM-12+000799999V0203601N001519999999N003500199+01651+01501101651ADDAA124000091AY121021AY201021KA1240M+01921MA1999999101591MD1999999+0191MW1051REMSYN07041941 31935 03603 10165 20150 30159 40165 70520 333 10192 58019 70000=
0104419410999992024012215004+23267+090700FM-12+999999999V0203601N0020122000199002500199+01451+01401101841ADDAA124999999AY101999AY201999GF100991999999999999999999MA1999999101781MD1999999+0141MW1101REMSYN004BUFR
0138419410999992024012218004+23267+090700FM-12+000799999V0203601N002119999999N001500199+01401+01201101831ADDAA124000091AY101021AY201021MA1999999101771MD1999999+0071MW1101REMSYN06441941 31915 03604 10140 20120 30177 40183 71000 333 58007 70000=
0200419410999992024012221004+23267+090700FM-12+000799999V0203601N00051002401WN000800199+01321+01301101761ADDAA124000091AY141021AY201021GA1091+999999999GE19AGL   +99999+99999GF109991091999999999999999MA1999999101701MW1471REMSYN07641941 31/08 93601 10132 20130 30170 40176 74740 89/// 333 56999 58000 70000=
0200419410999992024012300004+23267+090700FM-12+000799999V0203601N00151000001WN000000199+01301+01301101741ADDAA124000091AY141021AY201021GA1091+999999999GE19AGL   +99999+99999GF109991091999999999999999MA1999999101681MW1451REMSYN07641941 31/00 93603 10130 20130 30168 40174 74540 89/// 333 56999 58004 70000=
0247419410999992024012303004+23267+090700FM-12+000799999V0203301N00151002401CN000600199+01361+01361101881ADDAA124000091AY141021AY241021GA1061+002401071GA2081+024001041GE19AGL   +99999+99999GF108991061999002401999999KA1240N+01151MA1999999101821MW1421REMSYN09441941 31306 83303 10136 20136 30182 40188 74244 8661/ 333 20115 56799 59012 70000 86708 88458=
0228419410999992024012306004+23267+090700FM-12+000799999V0203601N002110240019N005000199+01841+01301101731ADDAA124000091AY141021AY241021GA1041+004801061GA2061+024001041GE19AGL   +99999+99999GF106991041999004801999999MA1999999101681MW1011REMSYN08841941 31450 63604 10184 20130 30168 40173 70144 85420 333 56990 59014 70000 84616 86458=
0200419410999992024012309004+23267+090700FM-12+000799999V0203601N001510240019N006000199+02141+01401101481ADDAA124000091GA1041+004801061GA2061+024001041GE19AGL   +99999+99999GF106991041999004801999999MA1999999101421REMSYN08241941 32456 63603 10214 20140 30142 40148 85420 333 56990 59019 70000 84616 86458=
0157419410999992024012312004+23267+090700FM-12+000799999V0203601N001519999999N004000199+01661+01501101501ADDAA124000091AY121021AY201021KA1240M+02181MA1999999101441MD1999999-0151MW1051REMSYN07041941 31940 03603 10166 20150 30144 40150 70520 333 10218 59015 70000=
0138419410999992024012315004+23267+090700FM-12+000799999V0209999C000019999999N003000199+01521+01401101671ADDAA124000091AY101021AY201021MA1999999101621MD1999999-0161MW1051REMSYN06441941 31930 00000 10152 20140 30162 40167 70500 333 59016 70000=
0138419410999992024012318004+23267+090700FM-12+000799999V0209999C000019999999N003000199+01401+01401101661ADDAA124000091AY101021AY201021MA1999999101611MD1999999-0161MW1101REMSYN06441941 31930 00000 10140 20140 30161 40166 71000 333 59016 70000=
0214419410999992024012321004+23267+090700FM-12+000799999V0209999C00001002401WN000800199+01321+01301101641ADDAA124000091AY141021AY201021GA1091+999999999GE19AGL   +99999+99999GF109991091999999999999999MA1999999101581MD1619999-0121MW1471REMSYN07641941 31/08 90000 10132 20130 30158 40164 56999 74740 89/// 333 59012 70000=
0228419410999992024012400004+23267+090700FM-12+000799999V0209999C000010240019N003000199+01351+01351101701ADDAA124000091AY121021AY221021GA1041+004801061GA2061+024001041GE19AGL   +99999+99999GF106991041999004801999999MA1999999101651MW1051REMSYN08841941 31430 60000 10135 20135 30165 40170 70522 85420 333 56990 59003 70000 84616 86458=
0247419410999992024012403004+23267+090700FM-12+000799999V0209999C00001002401CN000800199+01551+01501101881ADDAA124000091AY141021AY241021GA1061+002401071GA2081+024001041GE19AGL   +99999+99999GF108991061999002401999999KA1240N+01311MA1999999101831MW1421REMSYN09441941 31408 80000 10155 20150 30183 40188 74244 8661/ 333 20131 56799 58001 70000 86708 88458=
0250419410999992024012406004+23267+090700FM-12+000799999V0203601N00211003601CN001000199+02201+01401101661ADDAA124000091AY141021AY221021GA1041+002401071GA2031+003601061GA3071+018001041GE19AGL   +99999+99999GF107991041999002401999999MA1999999101601MW1281REMSYN09441941 31310 73604 10220 20140 30160 40166 72842 86620 333 56890 59008 70000 84708 83612 87456=
0250419410999992024012409004+23267+090700FM-12+000799999V0203601N00151003601CN003000199+02161+01501101291ADDAA124000091AY121021AY221021GA1041+002401071GA2031+003601061GA3081+018001041GE19AGL   +99999+99999GF108991041999002401999999MA1999999101231MW1051REMSYN09441941 31330 83603 10216 20150 30123 40129 70522 8762/ 333 56899 59019 70000 84708 83612 88456=
0269419410999992024012412004+23267+090700FM-12+000799999V0209999C00001003601CN002000199+01901+01701101371ADDAA124000091AY121021AY221021GA1031+002401071GA2041+003601061GA3081+018001041GE19AGL   +99999+99999GF108991031999002401999999KA1240M+02301MA1999999101311MW1131REMSYN10041941 31320 80000 10190 20170 30131 40137 71322 8762/ 333 10230 56899 59013 70000 83708 84612 88456=
0267419410999992024012415004+23267+090700FM-12+000799999V0209999C00001003601CN003000199+01761+01701101441ADDAA103002031AA224002031AY161021AY221021GA1051+003601061GA2011+007201091GA3081+018001041GE19AGL   +99999+99999GF108991051999003601999999MA1999999101381MW1211REMSYN10041941 21430 80000 10176 20170 30138 40144 72162 8792/ 333 56999 59024 6002/ 70020 85612 81924 88456=
0267419410999992024012418004+23267+090700FM-12+000799999V0209999C00001003601CN003000199+01681+01601101791ADDAA118003031AA224003031AY161021AY221021GA1051+003601061GA2011+007201091GA3081+018001041GE19AGL   +99999+99999GF108991051999003601999999MA1999999101731MW1211REMSYN10041941 11430 80000 10168 20160 30173 40179 60033 72162 8792/ 333 56999 58012 70030 85612 81924 88456=
0228419410999992024012421004+23267+090700FM-12+000799999V0209999C000010240019N002000199+01641+01601101721ADDAA124003031AY121021AY221021GA1041+004801061GA2071+024001041GE19AGL   +99999+99999GF107991041999004801999999MA1999999101661MW1101REMSYN08841941 31420 70000 10164 20160 30166 40172 71022 85420 333 56990 58008 70030 84616 87458=
0228419410999992024012500004+23267+090700FM-12+000799999V0209999C000010240019N002000199+01451+01451101831ADDAA124003031AY121021AY221021GA1041+004801061GA2071+024001041GE19AGL   +99999+99999GF107991041999004801999999MA1999999101771MW1101REMSYN08841941 31420 70000 10145 20145 30177 40183 71022 85420 333 56990 58012 70030 84616 87458=
0171419410999992024012503004+23267+090700FM-12+999999999V0203601N0015102400199003000199+01851+01501102071ADDAA124003031AY121999AY221999GA1041+004801061GA2071+024001041GE19AGL   +99999+99999GF107991041999004801999999KA1120N+01401MA1999999102011MD1999999+0181MW1051REMSYN004BUFR
0200419410999992024012506004+23267+090700FM-12+000799999V0203601N001510240019N006000199+02221+01401101971ADDAA124003031GA1041+004801061GA2061+024001041GE19AGL   +99999+99999GF106991041999004801999999MA1999999101911REMSYN08241941 32456 63603 10222 20140 30191 40197 85420 333 56990 58031 70030 84616 86458=
0200419410999992024012509004+23267+090700FM-12+000799999V0209999C000010240019N006000199+02361+01701101691ADDAA124003031GA1041+004801061GA2061+024001041GE19AGL   +99999+99999GF106991041999004801999999MA1999999101631REMSYN08241941 32456 60000 10236 20170 30163 40169 85420 333 56990 58040 70030 84616 86458=
0219419410999992024012512004+23267+090700FM-12+000799999V0209999C000010240019N005000199+02041+01601101701ADDAA124003031GA1041+004801061GA2061+024001041GE19AGL   +99999+99999GF106991041999004801999999KA1240M+02451MA1999999101641REMSYN08841941 32450 60000 10204 20160 30164 40170 85420 333 10245 56990 58033 70030 84616 86458=
0228419410999992024012521004+23267+090700FM-12+000799999V0209999C000010240019N002000199+01601+01601101771ADDAA124000091AY121021AY221021GA1041+004801061GA2061+024001041GE19AGL   +99999+99999GF106991041999004801999999MA1999999101711MW1101REMSYN08841941 31420 60000 10160 20160 30171 40177 71022 85420 333 56990 58005 70000 84616 86458=
0228419410999992024012600004+23267+090700FM-12+000799999V0203601N001510240019N002000199+01641+01601101891ADDAA124000091AY121021AY221021GA1041+004801061GA2061+024001041GE19AGL   +99999+99999GF106991041999004801999999MA1999999101831MW1101REMSYN08841941 31420 63603 10164 20160 30183 40189 71022 85420 333 56990 58006 70000 84616 86458=
0247419410999992024012603004+23267+090700FM-12+000799999V0203601N002610240019N002000199+01761+01501102081ADDAA124000091AY121021AY221021GA1041+004801061GA2061+024001041GE19AGL   +99999+99999GF106991041999004801999999KA1240N+01601MA1999999102021MW1101REMSYN09441941 31420 63605 10176 20150 30202 40208 71022 85420 333 20160 56990 58001 70000 84616 86458=
0110419410999992024012606004+23267+090700FM-12+000799999V0203601N002619999999N006000199+02181+01401102011ADDAA124000091MA1999999101951MD1999999+0041REMSYN05841941 32956 03605 10218 20140 30195 40201 333 58004 70000=
0120419410999992024012609004+23267+090700FM-12+999999999V0203601N0015122000199006000199+02371+01501101691ADDAA124999999GA1031+024001041GE19AGL   +99999+99999GF104991031999024001999999MA1999999101631MD1999999+0001REMSYN004BUFR
0157419410999992024012612004+23267+090700FM-12+000799999V0203301N001019999999N005000199+02001+01301101721ADDAA124000091AY121021AY201021KA1240M+02441MA1999999101661MD1999999+0021MW1051REMSYN07041941 31950 03302 10200 20130 30166 40172 70520 333 10244 58002 70000=
0138419410999992024012615004+23267+090700FM-12+000799999V0203601N001019999999N004000199+01751+01501101901ADDAA124000091AY101021AY201021MA1999999101841MD1999999+0001MW1051REMSYN06441941 31940 03602 10175 20150 30184 40190 70500 333 58000 70000=
0138419410999992024012618004+23267+090700FM-12+000799999V0203601N002119999999N004000199+01651+01201101931ADDAA124000091AY101021AY201021MA1999999101871MD1999999-0031MW1051REMSYN06441941 31940 03604 10165 20120 30187 40193 70500 333 59003 70000=
0138419410999992024012621004+23267+090700FM-12+000799999V0203601N000519999999N004000199+01521+01301101861ADDAA124000091AY101021AY201021MA1999999101801MD1999999+0091MW1051REMSYN06441941 31940 03601 10152 20130 30180 40186 70500 333 58009 70000=
0138419410999992024012700004+23267+090700FM-12+000799999V0203601N000519999999N004000199+01401+01201101881ADDAA124000091AY101021AY201021MA1999999101821MD1999999-0011MW1051REMSYN06441941 31940 03601 10140 20120 30182 40188 70500 333 59001 70000=
0157419410999992024012703004+23267+090700FM-12+000799999V0203601N001519999999N005000199+01671+01401102111ADDAA124000091AY101021AY201021KA1240N+01371MA1999999102051MD1999999+0031MW1051REMSYN07041941 31950 03603 10167 20140 30205 40211 70500 333 20137 58003 70000=
0110419410999992024012706004+23267+090700FM-12+000799999V0203601N003119999999N006000199+01941+01301102051ADDAA124000091MA1999999101991MD1999999+0041REMSYN05841941 32956 03606 10194 20130 30199 40205 333 58004 70000=
0110419410999992024012709004+23267+090700FM-12+000799999V0203601N001519999999N006000199+02251+00901101781ADDAA124000091MA1999999101721MD1999999+0091REMSYN05841941 32956 03603 10225 20090 30172 40178 333 58009 70000=
0129419410999992024012712004+23267+090700FM-12+000799999V0203601N001519999999N005000199+01831+01101101751ADDAA124000091KA1240M+02451MA1999999101691MD1999999+0031REMSYN06441941 32950 03603 10183 20110 30169 40175 333 10245 58003 70000=
0110419410999992024012715004+23267+090700FM-12+000799999V0202601N001519999999N004000199+01601+01401101871ADDAA124000091MA1999999101811MD1999999-0031REMSYN05841941 32940 02603 10160 20140 30181 40187 333 59003 70000=
0138419410999992024012718004+23267+090700FM-12+000799999V0203601N001019999999N004000199+01521+01301101891ADDAA124000091AY101021AY201021MA1999999101831MD1999999-0041MW1051REMSYN06441941 31940 03602 10152 20130 30183 40189 70500 333 59004 70000=
0138419410999992024012721004+23267+090700FM-12+000799999V0209999C000019999999N004000199+01481+01301101851ADDAA124000091AY101021AY201021MA1999999101791MD1999999-0011MW1051REMSYN06441941 31940 00000 10148 20130 30179 40185 70500 333 59001 70000=
0138419410999992024012800004+23267+090700FM-12+000799999V0209999C000019999999N004000199+01301+01201101831ADDAA124000091AY101021AY201021MA1999999101771MD1999999-0051MW1051REMSYN06441941 31940 00000 10130 20120 30177 40183 70500 333 59005 70000=
0110419410999992024012806004+23267+090700FM-12+000799999V0203601N001519999999N006000199+02271+01301101891ADDAA124000091MA1999999101831MD1999999-0161REMSYN05841941 32956 03603 10227 20130 30183 40189 333 59016 70000=
0110419410999992024012809004+23267+090700FM-12+000799999V0203601N001519999999N006000199+02461+00801101621ADDAA124000091MA1999999101561MD1999999-0161REMSYN05841941 32956 03603 10246 20080 30156 40162 333 59016 70000=
0129419410999992024012812004+23267+090700FM-12+000799999V0202601N001519999999N005000199+01931+00701101751ADDAA124000091KA1240M+02531MA1999999101691MD1999999+0001REMSYN06441941 32950 02603 10193 20070 30169 40175 333 10253 58000 70000=
0138419410999992024012815004+23267+090700FM-12+000799999V0203601N001019999999N004000199+01671+01301101901ADDAA124000091AY101021AY201021MA1999999101841MD1999999+0031MW1051REMSYN06441941 31940 03602 10167 20130 30184 40190 70500 333 58003 70000=
0138419410999992024012818004+23267+090700FM-12+000799999V0209999C000019999999N004000199+01451+01001101891ADDAA124000091AY101021AY201021MA1999999101831MD1999999+0001MW1051REMSYN06441941 31940 00000 10145 20100 30183 40189 70500 333 58000 70000=
0138419410999992024012821004+23267+090700FM-12+000799999V0209999C000019999999N004000199+01351+01101101881ADDAA124000091AY101021AY201021MA1999999101821MD1999999+0031MW1051REMSYN06441941 31940 00000 10135 20110 30182 40188 70500 333 58003 70000=
0138419410999992024012900004+23267+090700FM-12+000799999V0209999C000019999999N004000199+01131+01001101851ADDAA124000091AY101021AY201021MA1999999101791MD1999999+0021MW1051REMSYN06441941 31940 00000 10113 20100 30179 40185 70500 333 58002 70000=
0247419410999992024012903004+23267+090700FM-12+000799999V0203601N001010240019N005000199+01701+01201101941ADDAA124000091AY121021AY221021GA1041+004801061GA2061+024001041GE19AGL   +99999+99999GF106991041999004801999999KA1240N+01101MA1999999101891MW1051REMSYN09441941 31450 63602 10170 20120 30189 40194 70522 85420 333 20110 56990 59013 70000 84616 86458=
0110419410999992024012906004+23267+090700FM-12+000799999V0203601N001519999999N006000199+02351+01001101861ADDAA124000091MA1999999101801MD1999999-0031REMSYN05841941 32956 03603 10235 20100 30180 40186 333 59003 70000=
0110419410999992024012909004+23267+090700FM-12+000799999V0203601N003119999999N006000199+02441+00501101601ADDAA124000091MA1999999101541MD1999999-0021REMSYN05841941 32956 03606 10244 20050 30154 40160 333 59002 70000=
0129419410999992024012912004+23267+090700FM-12+000799999V0209999C000019999999N005000199+01941+01001101551ADDAA124000091KA1240M+02531MA1999999101491MD1999999-0201REMSYN06441941 32950 00000 10194 20100 30149 40155 333 10253 59020 70000=
0138419410999992024012915004+23267+090700FM-12+000799999V0209999C000019999999N004000199+01551+01401101691ADDAA124000091AY101021AY201021MA1999999101631MD1999999-0211MW1051REMSYN06441941 31940 00000 10155 20140 30163 40169 70500 333 59021 70000=
0138419410999992024012918004+23267+090700FM-12+000799999V0209999C000019999999N004000199+01451+01401101731ADDAA124000091AY101021AY201021MA1999999101671MD1999999-0161MW1051REMSYN06441941 31940 00000 10145 20140 30167 40173 70500 333 59016 70000=
0138419410999992024012921004+23267+090700FM-12+000799999V0209999C000019999999N004000199+01301+01201101681ADDAA124000091AY101021AY201021MA1999999101621MD1999999-0201MW1051REMSYN06441941 31940 00000 10130 20120 30162 40168 70500 333 59020 70000=
0138419410999992024013000004+23267+090700FM-12+000799999V0209999C000019999999N002000199+01251+01251101761ADDAA124000091AY101021AY201021MA1999999101701MD1999999-0091MW1101REMSYN06441941 31920 00000 10125 20125 30170 40176 71000 333 59009 70000=
0095419410999992024013003004+23267+090700FM-12+999999999V0201801N0005122000199005000199+01821+01201101861ADDAA124999999GF100991999999999999999999KA1120N+01231MA1999999101801MD1999999-0091REMSYN004BUFR
0110419410999992024013006004+23267+090700FM-12+000799999V0201801N001019999999N006000199+02401+01201101751ADDAA124000091MA1999999101691MD1999999-0111REMSYN05841941 32956 01802 10240 20120 30169 40175 333 59011 70000=
0200419410999992024013009004+23267+090700FM-12+000799999V0202701N001010240019N006000199+02581+01301101501ADDAA124000091GA1041+048001011GA2061+024001041GE19AGL   +99999+99999GF106991041999048001999999MA1999999101441REMSYN08241941 32456 62702 10258 20130 30144 40150 84520 333 56990 59010 70000 84166 86458=
0219419410999992024013012004+23267+090700FM-12+000799999V0209999C000010240019N005000199+02141+01601101431ADDAA124000091GA1041+004801061GA2061+024001041GE19AGL   +99999+99999GF106991041999004801999999KA1240M+02631MA1999999101371REMSYN08841941 32450 60000 10214 20160 30137 40143 85420 333 10263 56990 59012 70000 84616 86458=
0110419410999992024013015004+23267+090700FM-12+000799999V0203601N001519999999N004000199+01781+01601101631ADDAA124000091MA1999999101571MD1999999-0061REMSYN05841941 32940 03603 10178 20160 30157 40163 333 59006 70000=
0138419410999992024013018004+23267+090700FM-12+000799999V0209999C000019999999N003000199+01741+01501101661ADDAA124000091AY121021AY201021MA1999999101601MD1999999-0071MW1051REMSYN06441941 31930 00000 10174 20150 30160 40166 70520 333 59007 70000=
0138419410999992024013021004+23267+090700FM-12+000799999V0209999C000019999999N002000199+01641+01601101571ADDAA124000091AY101021AY201021MA1999999101511MD1999999-0111MW1101REMSYN06441941 31920 00000 10164 20160 30151 40157 71000 333 59011 70000=
0138419410999992024013100004+23267+090700FM-12+000799999V0203601N001519999999N002000199+01631+01601101681ADDAA124000091AY101021AY201021MA1999999101621MD1999999-0081MW1101REMSYN06441941 31920 03603 10163 20160 30162 40168 71000 333 59008 70000=
0247419410999992024013103004+23267+090700FM-12+000799999V0203601N001510240019N003000199+02001+01601101811ADDAA124000091AY121021AY221021GA1041+004801061GA2061+024001041GE19AGL   +99999+99999GF106991041999004801999999KA1240N+01621MA1999999101751MW1051REMSYN09441941 31430 63603 10200 20160 30175 40181 70522 85420 333 20162 56990 59005 70000 84616 86458=
0158419410999992024013106004+23267+090700FM-12+999999999V0203601N00051004205C9004000199+02201+01701101731ADDAA124999999AY121999AY221999GA1051+004201061GA2071+024001041GE19AGL   +99999+99999GF107991051999004201999999MA1999999101671MD1999999-0021MW1051REMSYN004BUFR
0228419410999992024013109004+23267+090700FM-12+000799999V0203601N000510360019N005000199+02581+01201101431ADDAA124000091AY121021AY221021GA1031+004201061GA2061+036001031GE19AGL   +99999+99999GF106991031999004201999999MA1999999101371MW1051REMSYN08841941 31450 63601 10258 20120 30137 40143 70522 83530 333 56990 59007 70000 83614 86362=
0247419410999992024013112004+23267+090700FM-12+000799999V0209999C000010240019N004000199+02221+01501101461ADDAA124000091AY121021AY221021GA1031+004201061GA2061+024001041GE19AGL   +99999+99999GF106991031999004201999999KA1240M+02601MA1999999101401MW1051REMSYN09441941 31440 60000 10222 20150 30140 40146 70522 83520 333 10260 56990 58003 70000 83614 86458=
0228419410999992024013115004+23267+090700FM-12+000799999V0209999C000010240019N004000199+02001+01701101631ADDAA124000091AY121021AY221021GA1031+004201061GA2061+024001041GE19AGL   +99999+99999GF106991031999004201999999MA1999999101571MW1051REMSYN08841941 31440 60000 10200 20170 30157 40163 70522 83520 333 56990 58000 70000 83614 86458=
0228419410999992024013118004+23267+090700FM-12+000799999V0209999C00001024001CN004000199+01951+01701101611ADDAA124000091AY121021AY221021GA1021+004201061GA2051+024001041GE19AGL   +99999+99999GF105991021999004201999999MA1999999101551MW1051REMSYN08841941 31440 50000 10195 20170 30155 40161 70522 82520 333 56990 59005 70000 82614 85458=
0138419410999992024013121004+23267+090700FM-12+000799999V0209999C000019999999N004000199+01851+01701101621ADDAA124000091AY121021AY201021MA1999999101561MD1999999+0051MW1051REMSYN06441941 31940 00000 10185 20170 30156 40162 70520 333 58005 70000=
0138419410999992024020100004+23267+090700FM-12+000799999V0209999C000019999999N004000199+01801+01701101631ADDAA124000091AY121021AY201021MA1999999101571MD1999999-0051MW1051REMSYN06441941 31940 00000 10180 20170 30157 40163 70520 333 59005 70000=
0247419410999992024020103004+23267+090700FM-12+000799999V0209999C000010240019N004000199+01921+01701101871ADDAA124000091AY121021AY221021GA1021+004801061GA2081+024001041GE19AGL   +99999+99999GF108991021999004801999999KA1240N+01771MA1999999101811MW1051REMSYN09441941 31440 80000 10192 20170 30181 40187 70522 8252/ 333 20177 56999 58006 70000 82616 88458=
0200419410999992024020106004+23267+090700FM-12+000799999V0202701N001010240019N006000199+02431+01801101691ADDAA124000091GA1031+004801061GA2071+024001041GE19AGL   +99999+99999GF107991031999004801999999MA1999999101631REMSYN08241941 32456 72702 10243 20180 30163 40169 83520 333 56990 59004 70000 83616 87458=
0200419410999992024020109004+23267+090700FM-12+000799999V0209999C000010240019N005000199+02471+02001101491ADDAA124000091GA1031+004801061GA2071+024001041GE19AGL   +99999+99999GF107991031999004801999999MA1999999101441REMSYN08241941 32450 70000 10247 20200 30144 40149 83520 333 56990 58007 70000 83616 87458=
0241419410999992024020112004+23267+090700FM-12+000799999V0209999C00001004801CN004000199+02251+02101101561ADDAA124000091GA1051+004801061GA2011+009001091GA3081+024001041GE19AGL   +99999+99999GF108991051999004801999999KA1240M+02551MA1999999101511REMSYN09441941 32440 80000 10225 20210 30151 40156 8632/ 333 10255 56999 58011 70000 85616 81930 88458=
0267419410999992024020115004+23267+090700FM-12+000799999V0209999C00001004801CN004000199+02071+02071101621ADDAA103001032AA224000092AY161021AY221021GA1051+004801061GA2011+009001091GA3081+024001041GE19AGL   +99999+99999GF108991051999004801999999MA1999999101571MW1021REMSYN10041941 21440 80000 10207 20207 30157 40162 70262 8632/ 333 56999 58000 6001/ 70000 85616 81930 88458=
0267419410999992024020118004+23267+090700FM-12+000799999V0209999C00001004801CN004000199+02021+02001101611ADDAA102001031AA224001031AY161021AY221021GA1051+004801061GA2011+009001091GA3081+024001041GE19AGL   +99999+99999GF108991051999004801999999MA1999999101561MW1021REMSYN10041941 11440 80000 10202 20200 30156 40161 60016 70262 8632/ 333 56999 58001 70010 85616 81930 88458=
0222419410999992024020121004+23267+090700FM-12+000799999V0209999C00001004201CN003000199+01951+01951101521ADDAA124001031GA1051+004201061GA2011+007501091GA3081+018001041GE19AGL   +99999+99999GF108991051999004201999999MA1999999101471REMSYN08841941 32430 80000 10195 20195 30147 40152 8632/ 333 56999 59009 70010 85614 81925 88456=
0228419410999992024020200004+23267+090700FM-12+000799999V0209999C000010240019N004000199+01871+01871101501ADDAA124001031AY121021AY221021GA1041+004801061GA2071+024001041GE19AGL   +99999+99999GF107991041999004801999999MA1999999101451MW1051REMSYN08841941 32440 70000 10187 20187 30145 40150 70522 85420 333 56990 59012 70010 84616 87458=
0269419410999992024020203004+23267+090700FM-12+000799999V0209999C00001004801CN004000199+02031+01901101711ADDAA124001031AY121021AY221021GA1051+004801061GA2011+009001091GA3081+024001041GE19AGL   +99999+99999GF108991051999004801999999KA1240N+01831MA1999999101661MW1051REMSYN10041941 31440 80000 10203 20190 30166 40171 70522 8632/ 333 20183 56999 59015 70010 85616 81930 88458=
0228419410999992024020206004+23267+090700FM-12+000799999V0202301N001010240019N005000199+02451+02101101611ADDAA124001031AY121021AY221021GA1031+004201061GA2061+024001041GE19AGL   +99999+99999GF106991031999004201999999MA1999999101561MW1051REMSYN08841941 31450 62302 10245 20210 30156 40161 70522 83520 333 56990 59007 70010 83614 86458=
0200419410999992024020209004+23267+090700FM-12+000799999V0209999C000010240019N005000199+02621+02101101331ADDAA124001031GA1021+004201061GA2071+024001041GE19AGL   +99999+99999GF107991021999004201999999MA1999999101271REMSYN08241941 32450 70000 10262 20210 30127 40133 82510 333 56990 59017 70010 82614 87458=
0247419410999992024020212004+23267+090700FM-12+000799999V0209999C000010240019N005000199+02321+02101101311ADDAA124000091AY121021AY221021GA1041+004201061GA2061+024001041GE19AGL   +99999+99999GF106991041999004201999999KA1240M+02721MA1999999101251MW1051REMSYN09441941 31450 60000 10232 20210 30125 40131 70522 84520 333 10272 56990 59026 70000 84614 86458=
0228419410999992024020215004+23267+090700FM-12+000799999V0209999C000010240019N004000199+02101+02001101531ADDAA124000091AY121021AY221021GA1041+004801061GA2061+024001041GE19AGL   +99999+99999GF106991041999004801999999MA1999999101471MW1051REMSYN08841941 31440 60000 10210 20200 30147 40153 70522 85420 333 56990 59010 70000 84616 86458=
0138419410999992024020218004+23267+090700FM-12+000799999V0209999C000019999999N004000199+01971+01901101501ADDAA124000091AY121021AY201021MA1999999101451MD1999999-0111MW1051REMSYN06441941 31940 00000 10197 20190 30145 40150 70520 333 59011 70000=
0228419410999992024020221004+23267+090700FM-12+000799999V0209999C000010240019N003500199+01941+01801101531ADDAA124000091AY121021AY201021GA1031+004201061GA2061+024001041GE19AGL   +99999+99999GF106991031999004201999999MA1999999101481MW1051REMSYN08841941 31435 60000 10194 20180 30148 40153 70520 83520 333 56990 58001 70000 83614 86458=
0228419410999992024020300004+23267+090700FM-12+000799999V0202701N001010240019N004000199+02001+02001101551ADDAA124000091AY121021AY201021GA1031+004801061GA2061+024001041GE19AGL   +99999+99999GF106991031999004801999999MA1999999101501MW1051REMSYN08841941 31440 62702 10200 20200 30150 40155 70520 83520 333 56990 58005 70000 83616 86458=
0157419410999992024020303004+23267+090700FM-12+000799999V0209999C000019999999N005000199+02141+01901101841ADDAA124000091AY121021AY201021KA1240N+01921MA1999999101791MD1999999+0131MW1051REMSYN07041941 31950 00000 10214 20190 30179 40184 70520 333 20192 58013 70000=
0110419410999992024020306004+23267+090700FM-12+000799999V0209999C000019999999N006000199+02601+02101101721ADDAA124000091MA1999999101661MD1999999+0101REMSYN05841941 32956 00000 10260 20210 30166 40172 333 58010 70000=
0110419410999992024020309004+23267+090700FM-12+000799999V0203101N001519999999N006000199+02721+01201101411ADDAA124000091MA1999999101351MD1999999+0081REMSYN05841941 32956 03103 10272 20120 30135 40141 333 58008 70000=
0129419410999992024020312004+23267+090700FM-12+000799999V0209999C000019999999N005000199+02341+01301101391ADDAA124000091KA1240M+02771MA1999999101331MD1999999+0081REMSYN06441941 32950 00000 10234 20130 30133 40139 333 10277 58008 70000=
0110419410999992024020315004+23267+090700FM-12+000799999V0209999C000019999999N004000199+01831+01601101661ADDAA124000091MA1999999101601MD1999999+0131REMSYN05841941 32940 00000 10183 20160 30160 40166 333 58013 70000=
0138419410999992024020318004+23267+090700FM-12+000799999V0209999C000019999999N003000199+01701+01601101711ADDAA124000091AY101021AY201021MA1999999101651MD1999999+0201MW1051REMSYN06441941 31930 00000 10170 20160 30165 40171 70500 333 58020 70000=
0138419410999992024020321004+23267+090700FM-12+000799999V0209999C000019999999N003000199+01641+01501101621ADDAA124000091AY101021AY201021MA1999999101561MD1999999+0081MW1051REMSYN06441941 31930 00000 10164 20150 30156 40162 70500 333 58008 70000=
0139419410999992024020400004+23267+090700FM-12+000799999V0203601N00101001201WN000600199+01701+01701101591ADDGF109991999999999999999999MA1999999101541MD1619999+9999REMSYN07241941 31/06 93602 10170 20170 30154 40159 56999 58004 70000 74740 89///=
0219419410999992024020403004+23267+090700FM-12+000799999V0203601N00151002401WN001000199+01841+01801101871ADDAA124000091AY141021AY201021GA1091+999999999GE19AGL   +99999+99999GF109991091999999999999999KA1240N+01601MA1999999101811MW1281REMSYN08241941 31/10 93603 10184 20180 30181 40187 72840 89/// 333 20160 56999 58002 70000=
0138419410999992024020406004+23267+090700FM-12+000799999V0203601N001519999999N006000199+02421+01601101821ADDAA124000091AY141021AY201021MA1999999101771MD1999999+0111MW1001REMSYN06441941 31956 03603 10242 20160 30177 40182 70040 333 58011 70000=
0110419410999992024020409004+23267+090700FM-12+000799999V0203101N001019999999N006000199+02701+01001101601ADDAA124000091MA1999999101551MD1999999+0201REMSYN05841941 32956 03102 10270 20100 30155 40160 333 58020 70000=
0129419410999992024020412004+23267+090700FM-12+000799999V0209999C000019999999N005000199+02201+01401101571ADDAA124000091KA1240M+02761MA1999999101511MD1999999+0181REMSYN06441941 32950 00000 10220 20140 30151 40157 333 10276 58018 70000=
0110419410999992024020415004+23267+090700FM-12+000799999V0209999C000019999999N004000199+01801+01501101781ADDAA124000091MA1999999101731MD1999999+0131REMSYN05841941 32940 00000 10180 20150 30173 40178 333 58013 70000=
0138419410999992024020418004+23267+090700FM-12+000799999V0209999C000019999999N003000199+01701+01601101841ADDAA124000091AY101021AY201021MA1999999101791MD1999999+0141MW1051REMSYN06441941 31930 00000 10170 20160 30179 40184 70500 333 58014 70000=
0138419410999992024020421004+23267+090700FM-12+000799999V0209999C000019999999N003000199+01661+01601101721ADDAA124000091AY101021AY201021MA1999999101671MD1999999+0111MW1051REMSYN06441941 31930 00000 10166 20160 30167 40172 70500 333 58011 70000=
0200419410999992024020500004+23267+090700FM-12+000799999V0203601N00101001201WN000600199+01621+01601101681ADDAA124000091AY141021AY201021GA1091+999999999GE19AGL   +99999+99999GF109991091999999999999999MA1999999101621MW1451REMSYN07641941 31/06 93602 10162 20160 30162 40168 74540 89/// 333 56999 58008 70000=
0206419410999992024020503004+23267+090700FM-12+000799999V0209999C00001002401WN001000199+01821+01801101951ADDAA124000091AY141021AY241021GA1091+999999999GE19AGL   +99999+99999GF109991091999999999999999MA1999999101891MW1281REMSYN08241941 31/10 90000 10182 20180 30189 40195 72844 89/// 333 10160 56999 58008 70000=
0228419410999992024020506004+23267+090700FM-12+000799999V0209999C000010240019N006000199+02601+01001101831ADDAA124000091AY141021AY221021GA1041+004801061GA2061+024001041GE19AGL   +99999+99999GF106991041999004801999999MA1999999101781MW1031REMSYN08841941 31456 60000 10260 20100 30178 40183 70342 85420 333 56990 58001 70000 84616 86458=
0110419410999992024020509004+23267+090700FM-12+000799999V0202901N001019999999N006000199+02751+01401101491ADDAA124000091MA1999999101441MD1999999-0111REMSYN05841941 32956 02902 10275 20140 30144 40149 333 59011 70000=
0129419410999992024020512004+23267+090700FM-12+000799999V0209999C000019999999N006000199+02301+01701101481ADDAA124000091KA1240M+02851MA1999999101421MD1999999-0091REMSYN06441941 32956 00000 10230 20170 30142 40148 333 10285 59009 70000=
0138419410999992024020515004+23267+090700FM-12+000799999V0209999C000019999999N005000199+02001+01701101611ADDAA124000091AY101021AY201021MA1999999101551MD1999999-0181MW1051REMSYN06441941 31950 00000 10200 20170 30155 40161 70500 333 59018 70000=
0138419410999992024020518004+23267+090700FM-12+000799999V0209999C000019999999N005000199+01951+01901101641ADDAA124000091AY101021AY201021MA1999999101591MD1999999-0201MW1051REMSYN06441941 31950 00000 10195 20190 30159 40164 70500 333 59020 70000=
0138419410999992024020521004+23267+090700FM-12+000799999V0209999C000019999999N004000199+01851+01801101611ADDAA124000091AY101021AY201021MA1999999101561MD1999999-0111MW1051REMSYN06441941 31940 00000 10185 20180 30156 40161 70500 333 59011 70000=
0138419410999992024020600004+23267+090700FM-12+000799999V0209999C000019999999N002000199+01751+01751101591ADDAA124000091AY101021AY201021MA1999999101541MD1999999-0081MW1101REMSYN06441941 31920 00000 10175 20175 30154 40159 71000 333 59008 70000=
0247419410999992024020603004+23267+090700FM-12+000799999V0209999C000010240019N001500199+01981+01901101811ADDAA124000091AY121021AY201021GA1031+004801061GA2071+024001041GE19AGL   +99999+99999GF107991031999004801999999KA1240N+01731MA1999999101761MW1101REMSYN09441941 31415 70000 10198 20190 30176 40181 71020 83520 333 20173 56990 59013 70000 83616 87458=
0136419410999992024020606004+23267+090700FM-12+999999999V0209999C0000102400199005000199+01371+99999101761ADDAA124999999GA1031+004801061GA2071+024001041GE19AGL   +99999+99999GF107991031999004801999999MA1999999101701MD1999999-0081REMSYN004BUFR
0200419410999992024020609004+23267+090700FM-12+000799999V0209999C000010240019N005000199+02552+02101101501ADDAA124000091GA1041+004801061GA2071+024001041GE19AGL   +99999+99999GF107991041999004801999999MA1999999101441REMSYN08241941 32450 70000 10255 20210 30144 40150 85420 333 56990 58000 70000 84616 87458=
0247419410999992024020612004+23267+090700FM-12+000799999V0209999C000010240019N004000199+02341+02101101481ADDAA124000091AY121021AY221021GA1041+004801061GA2071+024001041GE19AGL   +99999+99999GF107991041999004801999999KA1240M+02581MA1999999101421MW1051REMSYN09441941 31440 70000 10234 20210 30142 40148 70522 85420 333 10258 56990 58000 70000 84616 87458=
0158419410999992024020615004+23267+090700FM-12+999999999V0209999C0000102400199004000199+02121+02101101641ADDAA124999999AY121999AY221999GA1041+004801061GA2071+024001041GE19AGL   +99999+99999GF107991041999004801999999MA1999999101581MD1999999+0031MW1051REMSYN004BUFR
0228419410999992024020618004+23267+090700FM-12+000799999V0209999C000010240019N004000199+01981+01981101661ADDAA124000091AY121021AY221021GA1041+004801061GA2071+024001041GE19AGL   +99999+99999GF107991041999004801999999MA1999999101601MW1051REMSYN08841941 31440 70000 10198 20198 30160 40166 70522 85420 333 56990 58001 70000 84616 87458=
0228419410999992024020621004+23267+090700FM-12+000799999V0209999C000010240019N004000199+01901+01901101631ADDAA124000091AY121021AY221021GA1041+004801061GA2071+024001041GE19AGL   +99999+99999GF107991041999004801999999MA1999999101581MW1051REMSYN08841941 31440 70000 10190 20190 30158 40163 70522 85420 333 56990 58002 70000 84616 87458=
0228419410999992024020700004+23267+090700FM-12+000799999V0203601N001010240019N004000199+01901+01901101601ADDAA124000091AY121021AY221021GA1041+004801061GA2071+024001041GE19AGL   +99999+99999GF107991041999004801999999MA1999999101541MW1051REMSYN08841941 31440 73602 10190 20190 30154 40160 70522 85420 333 56990 58000 70000 84616 87458=
0269419410999992024020703004+23267+090700FM-12+000799999V0203601N00151004801CN005000199+02121+01701101821ADDAA124000091AY121021AY221021GA1051+004801061GA2011+009001091GA3081+024001041GE19AGL   +99999+99999GF108991051999004801999999KA1240N+01901MA1999999101771MW1051REMSYN10041941 31450 83603 10212 20170 30177 40182 70522 8632/ 333 20190 56999 58001 70000 85616 81930 88458=
0250419410999992024020706004+23267+090700FM-12+000799999V0203601N00151004801CN005000199+02201+01701101861ADDAA124000091AY121021AY221021GA1051+004801061GA2011+009001091GA3081+024001041GE19AGL   +99999+99999GF108991051999004801999999MA1999999101801MW1051REMSYN09441941 32450 83603 10220 20170 30180 40186 70522 8632/ 333 56999 58010 70000 85616 81930 88458=
0178419410999992024020709004+23267+090700FM-12+000799999V0203601N001512200019N006000199+02451+01301101511ADDAA124000091GA1021+004801061GE19AGL   +99999+99999GF102991021999004801999999MA1999999101451REMSYN07641941 32456 23603 10245 20130 30145 40151 82500 333 56900 58001 70000 82616=
0197419410999992024020712004+23267+090700FM-12+000799999V0202601N001512200019N005000199+02101+01501101531ADDAA124000091GA1021+004801061GE19AGL   +99999+99999GF102991021999004801999999KA1240M+02531MA1999999101471REMSYN08241941 32450 22603 10210 20150 30147 40153 82500 333 10253 56900 58005 70000 82616=
0138419410999992024020715004+23267+090700FM-12+000799999V0209999C000019999999N004000199+01831+01601101611ADDAA124000091AY101021AY201021MA1999999101561MD1999999-0021MW1051REMSYN06441941 31940 00000 10183 20160 30156 40161 70500 333 59002 70000=
0138419410999992024020718004+23267+090700FM-12+000799999V0209999C000019999999N004000199+01701+01601101641ADDAA124000091AY101021AY201021MA1999999101591MD1999999-0011MW1051REMSYN06441941 31940 00000 10170 20160 30159 40164 70500 333 59001 70000=
0138419410999992024020721004+23267+090700FM-12+000799999V0209999C000019999999N004000199+01651+01601101611ADDAA124000091AY101021AY201021MA1999999101551MD1999999-0031MW1051REMSYN06441941 31940 00000 10165 20160 30155 40161 70500 333 59003 70000=
0138419410999992024020800004+23267+090700FM-12+000799999V0203601N001519999999N004000199+01551+01301101581ADDAA124000091AY101021AY201021MA1999999101521MD1999999-0021MW1051REMSYN06441941 31940 03603 10155 20130 30152 40158 70500 333 59002 70000=
0129419410999992024020803004+23267+090700FM-12+000799999V0209999C000019999999N006000199+02151+01101101781ADDAA124000091KA1240N+01501MA1999999101721MD1999999-0051REMSYN06441941 32956 00000 10215 20110 30172 40178 333 20150 59005 70000=
0110419410999992024020806004+23267+090700FM-12+000799999V0203601N001019999999N006000199+02351+01201101811ADDAA124000091MA1999999101761MD1999999-0041REMSYN05841941 32956 03602 10235 20120 30176 40181 333 59004 70000=
0178419410999992024020809004+23267+090700FM-12+000799999V0203301N002612200019N006000199+02461+01001101511ADDAA124000091GA1021+036001031GE19AGL   +99999+99999GF102991021999036001999999MA1999999101461REMSYN07641941 32956 23305 10246 20100 30146 40151 82030 333 56060 58001 70000 82362=
0129419410999992024020812004+23267+090700FM-12+000799999V0202601N002119999999N005000199+02101+01201101511ADDAA124000091KA1240M+02521MA1999999101461MD1999999-0011REMSYN06441941 32950 02604 10210 20120 30146 40151 333 10252 59001 70000=
0110419410999992024020815004+23267+090700FM-12+000799999V0209999C000019999999N004000199+01701+01701101681ADDAA124000091MA1999999101621MD1999999+0061REMSYN05841941 32940 00000 10170 20170 30162 40168 333 58006 70000=
0138419410999992024020818004+23267+090700FM-12+000799999V0203601N001019999999N004000199+01651+01501101751ADDAA124000091AY101021AY201021MA1999999101691MD1999999+0101MW1051REMSYN06441941 31940 03602 10165 20150 30169 40175 70500 333 58010 70000=
0138419410999992024020821004+23267+090700FM-12+000799999V0209999C000019999999N004000199+01581+01501101731ADDAA124000091AY101021AY201021MA1999999101671MD1999999+0121MW1051REMSYN06441941 31940 00000 10158 20150 30167 40173 70500 333 58012 70000=
0138419410999992024020900004+23267+090700FM-12+000799999V0203601N002119999999N004000199+01501+01101101781ADDAA124000091AY101021AY201021MA1999999101721MD1999999+0201MW1051REMSYN06441941 31940 03604 10150 20110 30172 40178 70500 333 58020 70000=
0129419410999992024020903004+23267+090700FM-12+000799999V0203601N002119999999N006000199+01901+01001102011ADDAA124000091KA1240N+01431MA1999999101951MD1999999+0231REMSYN06441941 32956 03604 10190 20100 30195 40201 333 20143 58023 70000=
0110419410999992024020906004+23267+090700FM-12+000799999V0203601N002119999999N006000199+02351+01301101951ADDAA124000091MA1999999101891MD1999999+0131REMSYN05841941 32956 03604 10235 20130 30189 40195 333 58013 70000=
0110419410999992024020909004+23267+090700FM-12+000799999V0203601N002619999999N006000199+02441+01101101721ADDAA124000091MA1999999101671MD1999999+0211REMSYN05841941 32956 03605 10244 20110 30167 40172 333 58021 70000=
0129419410999992024020912004+23267+090700FM-12+000799999V0203301N001519999999N006000199+02121+01301101651ADDAA124000091KA1240M+02501MA1999999101601MD1999999+0141REMSYN06441941 32956 03303 10212 20130 30160 40165 333 10250 58014 70000=
0104419410999992024020915004+23267+090700FM-12+999999999V0202801N0010122000199004000199+01871+01601101871ADDAA124999999AY101999AY201999GF100991999999999999999999MA1999999101621MD1999999+0201MW1051REMSYN004BUFR
0138419410999992024020918004+23267+090700FM-12+000799999V0203601N001519999999N004000199+01801+01401101901ADDAA124000091AY101021AY201021MA1999999101841MD1999999+0151MW1051REMSYN06441941 31940 03603 10180 20140 30184 40190 70500 333 58015 70000=
0138419410999992024020921004+23267+090700FM-12+000799999V0203601N001019999999N004000199+01701+01501101831ADDAA124000091AY101021AY201021MA1999999101771MD1999999+0101MW1051REMSYN06441941 31940 03602 10170 20150 30177 40183 70500 333 58010 70000=
0138419410999992024021000004+23267+090700FM-12+000799999V0203601N002119999999N004000199+01651+01601101781ADDAA124000091AY101021AY201021MA1999999101721MD1999999+0001MW1051REMSYN06441941 31940 03604 10165 20160 30172 40178 70500 333 58000 70000=
0129419410999992024021003004+23267+090700FM-12+000799999V0203601N003119999999N006000199+01921+01501101951ADDAA124000091KA1240N+01551MA1999999101891MD1999999-0061REMSYN06441941 32956 03606 10192 20150 30189 40195 333 20155 59006 70000=
0110419410999992024021009004+23267+090700FM-12+000799999V0203601N002119999999N006000199+02621+01201101621ADDAA124000091MA1999999101571MD1999999-0101REMSYN05841941 32956 03604 10262 20120 30157 40162 333 59010 70000=
0129419410999992024021012004+23267+090700FM-12+000799999V0202701N001519999999N005000199+02281+01501101591ADDAA124000091KA1240M+02801MA1999999101531MD1999999-0071REMSYN06441941 32950 02703 10228 20150 30153 40159 333 10280 59007 70000=
0110419410999992024021021004+23267+090700FM-12+000799999V0209999C000019999999N004000199+01801+01601101751ADDAA124000091MA1999999101691MD1999999-0081REMSYN05841941 32940 00000 10180 20160 30169 40175 333 59008 70000=
0138419410999992024021100004+23267+090700FM-12+000799999V0203601N002119999999N003000199+01781+01601101781ADDAA124000091AY101021AY201021MA1999999101721MD1999999+0001MW1051REMSYN06441941 31930 03604 10178 20160 30172 40178 70500 333 58000 70000=
0197419410999992024021103004+23267+090700FM-12+000799999V0203601N002112200019N006000199+02001+01501102031ADDAA124000091GA1031+004801061GE19AGL   +99999+99999GF104991031999004801999999KA1240N+01751MA1999999101971REMSYN08241941 32456 43604 10200 20150 30197 40203 84400 333 20175 56900 58008 70000 83616=
0110419410999992024021106004+23267+090700FM-12+000799999V0203601N001519999999N006000199+02451+01701101991ADDAA124000091MA1999999101941MD1999999+0121REMSYN05841941 32956 03603 10245 20170 30194 40199 333 58012 70000=
0110419410999992024021109004+23267+090700FM-12+000799999V0202301N001519999999N006000199+02751+01501101691ADDAA124000091MA1999999101641MD1999999+0071REMSYN05841941 32956 02303 10275 20150 30164 40169 333 58007 70000=
0129419410999992024021112004+23267+090700FM-12+000799999V0202701N001019999999N006000199+02321+01601101731ADDAA124000091KA1240M+02821MA1999999101671MD1999999+0141REMSYN06441941 32956 02702 10232 20160 30167 40173 333 10282 58014 70000=
0110419410999992024021115004+23267+090700FM-12+000799999V0209999C000019999999N004000199+02021+01401101891ADDAA124000091MA1999999101831MD1999999+0071REMSYN05841941 32940 00000 10202 20140 30183 40189 333 58007 70000=
0138419410999992024021118004+23267+090700FM-12+000799999V0209999C000019999999N004000199+01851+01601101881ADDAA124000091AY101021AY201021MA1999999101831MD1999999+0041MW1051REMSYN06441941 31940 00000 10185 20160 30183 40188 70500 333 58004 70000=
0138419410999992024021121004+23267+090700FM-12+000799999V0209999C000019999999N001500199+01761+01701101891ADDAA124000091AY101021AY201021MA1999999101841MD1999999+0151MW1101REMSYN06441941 31915 00000 10176 20170 30184 40189 71000 333 58015 70000=
0138419410999992024021200004+23267+090700FM-12+000799999V0209999C000019999999N000800199+01651+01601101931ADDAA124000091AY141021AY201021MA1999999101881MD1999999+0181MW1421REMSYN06441941 31908 00000 10165 20160 30188 40193 74240 333 58018 70000=
0247419410999992024021203004+23267+090700FM-12+000799999V0202301N00101004201CN001500199+02021+01601102071ADDAA124000091AY141021AY241021GA1051+004201061GA2081+024001041GE19AGL   +99999+99999GF108991051999004201999999KA1240N+01601MA1999999102011MW1421REMSYN09441941 31415 82302 10202 20160 30201 40207 74244 8552/ 333 20160 56999 58004 70000 85614 88458=
0138419410999992024021206004+23267+090700FM-12+000799999V0203601N001519999999N006000199+02601+01601102051ADDAA124000091AY141021AY221021MA1999999101991MD1999999+0051MW1011REMSYN06441941 31956 03603 10260 20160 30199 40205 70142 333 58005 70000=
0110419410999992024021209004+23267+090700FM-12+000799999V0203601N002119999999N006000199+02801+01201101731ADDAA124000091MA1999999101671MD1999999+0031REMSYN05841941 32956 03604 10280 20120 30167 40173 333 58003 70000=
0129419410999992024021212004+23267+090700FM-12+000799999V0209999C000019999999N005000199+02341+01601101721ADDAA124000091KA1240M+02851MA1999999101661MD1999999-0011REMSYN06441941 32950 00000 10234 20160 30166 40172 333 10285 59001 70000=
0138419410999992024021215004+23267+090700FM-12+000799999V0209999C000019999999N004000199+01901+01701101931ADDAA124000091AY101021AY201021MA1999999101871MD1999999+0041MW1051REMSYN06441941 31940 00000 10190 20170 30187 40193 70500 333 58004 70000=
0138419410999992024021218004+23267+090700FM-12+000799999V0209999C000019999999N003000199+01801+01701101991ADDAA124000091AY101021AY201021MA1999999101941MD1999999+0111MW1051REMSYN06441941 31930 00000 10180 20170 30194 40199 70500 333 58011 70000=
0138419410999992024021221004+23267+090700FM-12+000799999V0209999C000019999999N002000199+01741+01601101921ADDAA124000091AY101021AY201021MA1999999101871MD1999999+0031MW1101REMSYN06441941 31920 00000 10174 20160 30187 40192 71000 333 58003 70000=
0138419410999992024021300004+23267+090700FM-12+000799999V0209999C000019999999N003000199+01731+01501101881ADDAA124000091AY101021AY201021MA1999999101821MD1999999-0061MW1051REMSYN06441941 31930 00000 10173 20150 30182 40188 70500 333 59006 70000=
0129419410999992024021303004+23267+090700FM-12+000799999V0201801N001019999999N006000199+02121+01401101971ADDAA124000091KA1240N+01621MA1999999101921MD1999999-0091REMSYN06441941 32956 01802 10212 20140 30192 40197 333 20162 59009 70000=
0110419410999992024021306004+23267+090700FM-12+000799999V0200801N001519999999N006000199+02801+01301101921ADDAA124000091MA1999999101861MD1999999-0131REMSYN05841941 32956 00803 10280 20130 30186 40192 333 59013 70000=
0110419410999992024021309004+23267+090700FM-12+000799999V0203601N002119999999N006000199+02851+01401101691ADDAA124000091MA1999999101631MD1999999+0021REMSYN05841941 32956 03604 10285 20140 30163 40169 333 58002 70000=
0129419410999992024021312004+23267+090700FM-12+000799999V0209999C000019999999N005000199+02401+01501101591ADDAA124000091KA1240M+02931MA1999999101531MD1999999-0131REMSYN06441941 32950 00000 10240 20150 30153 40159 333 10293 59013 70000=
0138419410999992024021315004+23267+090700FM-12+000799999V0209999C000019999999N004000199+02001+01601101801ADDAA124000091AY101021AY201021MA1999999101741MD1999999-0131MW1051REMSYN06441941 32940 00000 10200 20160 30174 40180 70500 333 59013 70000=
0138419410999992024021318004+23267+090700FM-12+000799999V0209999C000019999999N004000199+01901+01501101881ADDAA124000091AY101021AY201021MA1999999101821MD1999999-0121MW1051REMSYN06441941 32940 00000 10190 20150 30182 40188 70500 333 59012 70000=
0138419410999992024021321004+23267+090700FM-12+000799999V0209999C000019999999N004000199+01801+01501101861ADDAA124000091AY101021AY201021MA1999999101811MD1999999-0061MW1051REMSYN06441941 32940 00000 10180 20150 30181 40186 70500 333 59006 70000=
0138419410999992024021400004+23267+090700FM-12+000799999V0209999C000019999999N004000199+01721+01501101671ADDAA124000091AY101021AY201021MA1999999101621MD1999999-0201MW1051REMSYN06441941 32940 00000 10172 20150 30162 40167 70500 333 59020 70000=
0219419410999992024021403004+23267+090700FM-12+000799999V0203601N001010240019N005000199+02251+01501101911ADDAA124000091GA1041+004801061GA2061+024001041GE19AGL   +99999+99999GF106991041999004801999999KA1240N+01501MA1999999101861REMSYN08841941 32450 63602 10225 20150 30186 40191 85420 333 20150 56990 59006 70000 84616 86458=
0110419410999992024021406004+23267+090700FM-12+000799999V0203601N001019999999N006000199+02641+01401101831ADDAA124000091MA1999999101771MD1999999-0091REMSYN05841941 32956 03602 10264 20140 30177 40183 333 59009 70000=
0110419410999992024021409004+23267+090700FM-12+000799999V0203601N001019999999N006000199+02861+01001101511ADDAA124000091MA1999999101451MD1999999-0181REMSYN05841941 32956 03602 10286 20100 30145 40151 333 59018 70000=
0129419410999992024021412004+23267+090700FM-12+000799999V0209999C000019999999N006000199+02401+01501101551ADDAA124000091KA1240M+02961MA1999999101491MD1999999-0041REMSYN06441941 32956 00000 10240 20150 30149 40155 333 10296 59004 70000=
0138419410999992024021415004+23267+090700FM-12+000799999V0209999C000019999999N004000199+02101+01701101681ADDAA124000091AY101021AY201021MA1999999101621MD1999999-0121MW1051REMSYN06441941 31940 00000 10210 20170 30162 40168 70500 333 59012 70000=
0138419410999992024021418004+23267+090700FM-12+000799999V0209999C000019999999N004000199+01951+01701101661ADDAA124000091AY101021AY201021MA1999999101601MD1999999-0221MW1051REMSYN06441941 31940 00000 10195 20170 30160 40166 70500 333 59022 70000=
0138419410999992024021421004+23267+090700FM-12+000799999V0209999C000019999999N004000199+01961+01801101631ADDAA124000091AY101021AY201021MA1999999101571MD1999999-0241MW1051REMSYN06441941 31940 00000 10196 20180 30157 40163 70500 333 59024 70000=
0138419410999992024021500004+23267+090700FM-12+000799999V0209999C000019999999N004000199+01881+01701101641ADDAA124000091AY101021AY201021MA1999999101591MD1999999-0031MW1051REMSYN06441941 31940 00000 10188 20170 30159 40164 70500 333 59003 70000=
0129419410999992024021503004+23267+090700FM-12+000799999V0209999C000019999999N006000199+02301+01701101871ADDAA124000091KA1240N+01881MA1999999101821MD1999999-0041REMSYN06441941 32956 00000 10230 20170 30182 40187 333 20188 59004 70000=
0200419410999992024021506004+23267+090700FM-12+000799999V0203101N002110240019N010000199+02801+01501101821ADDAA124000091GA1041+004801061GA2061+024001041GE19AGL   +99999+99999GF106991041999004801999999MA1999999101761REMSYN08241941 32560 63104 10280 20150 30176 40182 85420 333 56990 59001 70000 84616 86458=
0200419410999992024021509004+23267+090700FM-12+000799999V0203101N002110240019N006000199+02931+01601101541ADDAA124000091GA1041+004801061GA2061+024001041GE19AGL   +99999+99999GF106991041999004801999999MA1999999101491REMSYN08241941 32456 63104 10293 20160 30149 40154 85420 333 56990 58005 70000 84616 86458=
0136419410999992024021512004+23267+090700FM-12+999999999V0209999C0000102400199005000199+02551+01901101601ADDAA124999999GA1041+004801061GA2061+024001041GE19AGL   +99999+99999GF106991041999004801999999MA1999999101541MD1999999+0051REMSYN004BUFR
0267419410999992024021515004+23267+090700FM-12+000799999V0201801N00151004201CN004000199+01931+01801101741ADDAA103003032AA224002832AY161021AY221021GA1051+004201061GA2011+007201091GA3081+018001041GE19AGL   +99999+99999GF108991051999004201999999MA1999999101681MW1131REMSYN10041941 21440 81803 10193 20180 30168 40174 71362 8692/ 333 56999 58006 6003/ 70028 85614 81924 88456=
0267419410999992024021518004+23267+090700FM-12+000799999V0201801N00101004201CN003000199+01901+01901101801ADDAA102003032AA224002832AY161021AY221021GA1051+004201061GA2011+007201091GA3081+018001041GE19AGL   +99999+99999GF108991051999004201999999MA1999999101741MW1131REMSYN10041941 11430 81802 10190 20190 30174 40180 60036 71362 8692/ 333 56999 58014 70028 85614 81924 88456=
0250419410999992024021521004+23267+090700FM-12+000799999V0209999C00001004801CN003000199+01801+01801101711ADDAA124002831AY121021AY221021GA1051+004801061GA2011+008401091GA3081+024001041GE19AGL   +99999+99999GF108991051999004801999999MA1999999101651MW1131REMSYN09441941 31430 80000 10180 20180 30165 40171 71322 8692/ 333 56999 58008 70028 85616 81928 88458=
0110419410999992024021600004+23267+090700FM-12+000799999V0202701N001519999999N004000199+01901+01801101691ADDAA124002831MA1999999101631MD1999999-0041REMSYN05841941 32940 02703 10190 20180 30163 40169 333 59004 70028=
0157419410999992024021603004+23267+090700FM-12+000799999V0201801N001519999999N004000199+02201+01901101931ADDAA124002831AY101021AY201021KA1240N+01901MA1999999101871MD1999999+0051MW1051REMSYN07041941 31940 01803 10220 20190 30187 40193 70500 333 20190 58005 70028=
0110419410999992024021606004+23267+090700FM-12+000799999V0203601N001019999999N006000199+02701+02001101781ADDAA124000091MA1999999101721MD1999999-0041REMSYN05841941 32956 03602 10270 20200 30172 40178 333 59004 70000=
0110419410999992024021609004+23267+090700FM-12+000799999V0203601N002119999999N006000199+02861+01801101541ADDAA124002831MA1999999101481MD1999999-0021REMSYN05841941 32956 03604 10286 20180 30148 40154 333 59002 70028=
0129419410999992024021612004+23267+090700FM-12+000799999V0202301N001019999999N006000199+02501+01801101421ADDAA124002831KA1240M+02931MA1999999101361MD1999999-0181REMSYN06441941 32956 02302 10250 20180 30136 40142 333 10293 59018 70028=
0138419410999992024021615004+23267+090700FM-12+000799999V0202701N001519999999N005000199+02281+01701101541ADDAA124000091AY101021AY201021MA1999999101491MD1999999-0191MW1051REMSYN06441941 31950 02703 10228 20170 30149 40154 70500 333 59019 70000=
0138419410999992024021618004+23267+090700FM-12+000799999V0200501N001019999999N004000199+02051+01801101541ADDAA124000091AY101021AY201021MA1999999101481MD1999999-0261MW1051REMSYN06441941 31940 00502 10205 20180 30148 40154 70500 333 59026 70000=
0138419410999992024021700004+23267+090700FM-12+000799999V0203601N001019999999N004000199+01901+01801101441ADDAA124000091AY101021AY201021MA1999999101381MD1999999-0251MW1051REMSYN06441941 31940 03602 10190 20180 30138 40144 70500 333 59025 70000=
0157419410999992024021703004+23267+090700FM-12+000799999V0203101N001519999999N005000199+02171+01901101661ADDAA124000091AY101021AY201021KA1240N+01881MA1999999101601MD1999999-0271MW1051REMSYN07041941 31950 03103 10217 20190 30160 40166 70500 333 20188 59027 70000=
0110419410999992024021706004+23267+090700FM-12+000799999V0202701N001519999999N006000199+02651+01901101521ADDAA124000091MA1999999101461MD1999999-0261REMSYN05841941 32956 02703 10265 20190 30146 40152 333 59026 70000=
0110419410999992024021709004+23267+090700FM-12+000799999V0203301N002119999999N006000199+02851+01201101201ADDAA124000091MA1999999101141MD1999999-0341REMSYN05841941 32956 03304 10285 20120 30114 40120 333 59034 70000=
0129419410999992024021712004+23267+090700FM-12+000799999V0209999C000019999999N006000199+02401+01701101201ADDAA124000091KA1240M+02901MA1999999101141MD1999999-0221REMSYN06441941 32956 00000 10240 20170 30114 40120 333 10290 59022 70000=
0138419410999992024021715004+23267+090700FM-12+000799999V0209999C000019999999N005000199+02051+01801101401ADDAA124000091AY101021AY201021MA1999999101341MD1999999-0151MW1051REMSYN06441941 31950 00000 10205 20180 30134 40140 70500 333 59015 70000=
