0172483040999992024010100004+19867+099767FM-12+040199999V0209999C00001000601WN000300199+01381+01291101661ADDAY141021AY201021GF109991999999999999999999KA1120N+01331MA1999999096861MD1210221-0071MW1471REMSYN07048304 31/03 90000 10138 20129 39686 40166 52022 74740 333 20133 59007=
0104483040999992024010103004+19873+099779FM-12+039799999V0200201N0010122000199010000199+02111+01681101711ADDAA199999999AY141999AY201999GF100991999999999999999999MA1999999097021MD1210161-0071MW1011REMSYN004BUFR
0127483040999992024010106004+19867+099767FM-12+040199999V0200701N001019999999N012000199+02701+01631101301ADDAY141021AY201021MA1999999096721MD1710301-0091MW1021REMSYN06448304 31962 00702 10270 20163 39672 40130 57030 70240 333 59009=
0099483040999992024010109004+19867+099767FM-12+040199999V0209999C000019999999N012000199+02931+01531101031ADDMA1999999096501MD1710221-0041REMSYN05848304 32962 00000 10293 20153 39650 40103 57022 333 59004=
0118483040999992024010112004+19867+099767FM-12+040199999V0209999C000019999999N012000199+02311+01821101231ADDKA1240M+02991MA1999999096601MD1210101-0061REMSYN06448304 32962 00000 10231 20182 39660 40123 52010 333 10299 59006=
0169483040999992024010115004+19867+099767FM-12+040199999V0209999C000012200019N010000199+01931+01751101461ADDGA1011+008001081GE19AGL   +99999+99999GF101991011999008001999999MA1999999096761MD1210161-0031REMSYN06448304 32560 10000 10193 20175 39676 40146 52016 81100 333 59003=
0099483040999992024010118004+19867+099767FM-12+040199999V0209999C000019999999N010000199+01631+01491101481ADDMA1999999096731MD1710031-0021REMSYN05848304 32960 00000 10163 20149 39673 40148 57003 333 59002=
0099483040999992024010121004+19867+099767FM-12+040199999V0209999C000019999999N010000199+01521+01431101451ADDMA1999999096681MD1710051+0031REMSYN05848304 32960 00000 10152 20143 39668 40145 57005 333 58003=
0172483040999992024010200004+19867+099767FM-12+040199999V0209999C00001000301WN000100199+01501+01431101591ADDAY141021AY201021GF109991999999999999999999KA1120N+01461MA1999999096811MD1210131-0071MW1471REMSYN07048304 31/01 90000 10150 20143 39681 40159 52013 74740 333 20146 59007=
0197483040999992024010203004+19867+099767FM-12+040199999V0209999C000012200019N010000199+02151+01741101711ADDAY141021AY201021GA1011+008001081GE19AGL   +99999+99999GF101991011999008001999999MA1999999097031MD1210211+0001MW1011REMSYN07048304 31560 10000 10215 20174 39703 40171 52021 70140 81200 333 58000=
0197483040999992024010206004+19867+099767FM-12+040199999V0201001N002112200019N012000199+02801+01721101261ADDAY141021AY201021GA1021+008001081GE19AGL   +99999+99999GF102991021999008001999999MA1999999096701MD1710331-0041MW1031REMSYN07048304 31562 21004 10280 20172 39670 40126 57033 70340 82200 333 59004=
0169483040999992024010209004+19867+099767FM-12+040199999V0202101N001012200019N015000199+02901+01571101011ADDGA1011+008001061GE19AGL   +99999+99999GF101991011999008001999999MA1999999096471MD1710231-0021REMSYN06448304 32565 12102 10290 20157 39647 40101 57023 81500 333 59002=
0118483040999992024010212004+19867+099767FM-12+040199999V0209999C000019999999N015000199+02351+01841101231ADDKA1240M+02971MA1999999096601MD1210131+0001REMSYN06448304 32965 00000 10235 20184 39660 40123 52013 333 10297 58000=
0099483040999992024010215004+19867+099767FM-12+040199999V0209999C000019999999N010000199+01951+01771101501ADDMA1999999096801MD1210201+0051REMSYN05848304 32960 00000 10195 20177 39680 40150 52020 333 58005=
0099483040999992024010218004+19867+099767FM-12+040199999V0209999C000019999999N010000199+01731+01611101511ADDMA1999999096771MD1710031+0031REMSYN05848304 32960 00000 10173 20161 39677 40151 57003 333 58003=
0099483040999992024010221004+19867+099767FM-12+040199999V0209999C000019999999N010000199+01631+01531101461ADDMA1999999096711MD1710061+0021REMSYN05848304 32960 00000 10163 20153 39671 40146 57006 333 58002=
0204483040999992024010300004+19867+099767FM-12+040199999V0209999C000012200019N012000199+01491+01421101631ADDGA1021+008001061GA2999+999999021GE19AGL   +99999+99999GF103991021999008001999999KA1120N+01421MA1999999096851MD1210141+0041REMSYN07048304 32562 30000 10149 20142 39685 40163 52014 82505 333 20142 58004=
0169483040999992024010303004+19867+099767FM-12+040199999V0201101N001012200019N012000199+02151+01711101731ADDGA1011+008001061GE19AGL   +99999+99999GF101991011999008001999999MA1999999097051MD1210191+0021REMSYN06448304 32562 11102 10215 20171 39705 40173 52019 81500 333 58002=
0169483040999992024010306004+19867+099767FM-12+040199999V0201301N002112200019N015000199+02701+01651101311ADDGA1021+008001061GE19AGL   +99999+99999GF102991021999008001999999MA1999999096731MD1710311+0051REMSYN06448304 32565 21304 10270 20165 39673 40131 57031 82500 333 58005=
0169483040999992024010309004+19867+099767FM-12+040199999V0201801N001012200019N015000199+02951+01601101051ADDGA1021+008001061GE19AGL   +99999+99999GF102991021999008001999999MA1999999096521MD1710211+0051REMSYN06448304 32565 21802 10295 20160 39652 40105 57021 82500 333 58005=
0188483040999992024010312004+19867+099767FM-12+040199999V0209999C000012200019N012000199+02401+01811101231ADDGA1011+999999031GE19AGL   +99999+99999GF101991011999999999999999KA1240M+02981MA1999999096611MD1210081-0011REMSYN07048304 32962 10000 10240 20181 39661 40123 52008 81030 333 10298 59001=
0099483040999992024010315004+19867+099767FM-12+040199999V0209999C000019999999N010000199+01921+01741101431ADDMA1999999096731MD1210121-0081REMSYN05848304 32960 00000 10192 20174 39673 40143 52012 333 59008=
0169483040999992024010318004+19867+099767FM-12+040199999V0209999C000012200019N010000199+01781+01651101431ADDGA1021+008001061GE19AGL   +99999+99999GF102991021999008001999999MA1999999096711MD1710021-0081REMSYN06448304 32560 20000 10178 20165 39671 40143 57002 82500 333 59008=
0201483040999992024010321004+19867+099767FM-12+040199999V0209999C000019999999N010000199+01731+01631101381ADDGA1021+008001061GA2999+999999031GA3999+999999021GE19AGL   +99999+99999GF106991021999008001999999MA1999999096651MD1710061-0081REMSYN06448304 32560 60000 10173 20163 39665 40138 57006 82536 333 59008=
0220483040999992024010400004+19867+099767FM-12+040199999V0209999C000019999999N012000199+01661+01591101581ADDGA1051+008001061GA2999+999999031GA3999+999999021GE19AGL   +99999+99999GF106991051999008001999999KA1120N+01621MA1999999096831MD1210181-0061REMSYN07048304 32562 60000 10166 20159 39683 40158 52018 85545 333 20162 59006=
0201483040999992024010403004+19867+099767FM-12+040199999V0200601N002112200019N012000199+02171+01731101741ADDGA1011+012501081GA2999+999999031GA3999+999999021GE19AGL   +99999+99999GF102991011999012501999999MA1999999097061MD1210231+0011REMSYN06448304 32662 20604 10217 20173 39706 40174 52023 81135 333 58001=
0201483040999992024010406004+19867+099767FM-12+040199999V0201801N000512200019N015000199+02801+01681101301ADDGA1021+008001061GA2999+999999031GA3999+999999021GE19AGL   +99999+99999GF102991021999008001999999MA1999999096741MD1710321-0011REMSYN06448304 32565 21801 10280 20168 39674 40130 57032 82535 333 59001=
0168483040999992024010409004+19873+099779FM-12+039799999V0201601N0021122000199015000199+02861+01661101081ADDAA199999999AZ101999AZ201999GA1021+008001061GA2999+999999031GA3999+999999021GE19AGL   +99999+99999GF103991021999008001999999MA1999999096531MD1710201+0021REMSYN004BUFR
0220483040999992024010412004+19867+099767FM-12+040199999V0209999C000012200019N012000199+02431+01911101191ADDGA1011+008001061GA2999+999999031GA3999+999999021GE19AGL   +99999+99999GF102991011999008001999999KA1240M+02961MA1999999096581MD1210041-0041REMSYN07048304 32562 20000 10243 20191 39658 40119 52004 81535 333 10296 59004=
0099483040999992024010415004+19867+099767FM-12+040199999V0209999C000019999999N010000199+01971+01791101451ADDMA1999999096761MD1210181+0031REMSYN05848304 32960 00000 10197 20179 39676 40145 52018 333 58003=
0099483040999992024010418004+19867+099767FM-12+040199999V0209999C000019999999N010000199+01761+01621101481ADDMA1999999096751MD1710011+0041REMSYN05848304 32960 00000 10176 20162 39675 40148 57001 333 58004=
0169483040999992024010421004+19867+099767FM-12+040199999V0209999C000012200019N010000199+01631+01541101461ADDGA1011+999999031GE19AGL   +99999+99999GF101991011999999999999999MA1999999096711MD1710041+0081REMSYN06448304 32960 10000 10163 20154 39671 40146 57004 81040 333 58008=
0188483040999992024010500004+19867+099767FM-12+040199999V0209999C000012200019N010000199+01531+01481101631ADDGA1011+008001061GE19AGL   +99999+99999GF101991011999008001999999KA1120N+01501MA1999999096851MD1210141+0051REMSYN07048304 32560 10000 10153 20148 39685 40163 52014 81500 333 20150 58005=
0185483040999992024010503004+19867+099767FM-12+040199999V0209999C000012200019N012000199+02221+01801101721ADDGA1011+008001081GA2999+999999031GE19AGL   +99999+99999GF102991011999008001999999MA1999999097051MD1210201-0021REMSYN06448304 32562 20000 10222 20180 39705 40172 52020 81140 333 59002=
0169483040999992024010506004+19867+099767FM-12+040199999V0209999C000012200019N015000199+02811+01691101271ADDGA1011+008001081GE19AGL   +99999+99999GF101991011999008001999999MA1999999096711MD1710341-0031REMSYN06448304 32565 10000 10281 20169 39671 40127 57034 81200 333 59003=
0185483040999992024010509004+19867+099767FM-12+040199999V0209999C000012200019N015000199+02991+01611101021ADDGA1011+008001081GA2999+999999031GE19AGL   +99999+99999GF102991011999008001999999MA1999999096501MD1710211-0051REMSYN06448304 32565 20000 10299 20161 39650 40102 57021 81240 333 59005=
0118483040999992024010512004+19867+099767FM-12+040199999V0209999C000019999999N012000199+02421+01951101261ADDKA1240M+02991MA1999999096641MD1210141+0061REMSYN06448304 32962 00000 10242 20195 39664 40126 52014 333 10299 58006=
0099483040999992024010515004+19867+099767FM-12+040199999V0209999C000019999999N010000199+01961+01761101491ADDMA1999999096791MD1210161+0041REMSYN05848304 32960 00000 10196 20176 39679 40149 52016 333 58004=
0099483040999992024010518004+19867+099767FM-12+040199999V0209999C000019999999N010000199+01771+01651101571ADDMA1999999096841MD1210051+0091REMSYN05848304 32960 00000 10177 20165 39684 40157 52005 333 58009=
0169483040999992024010521004+19867+099767FM-12+040199999V0209999C000012200019N010000199+01681+01581101561ADDGA1031+999999031GE19AGL   +99999+99999GF103991031999999999999999MA1999999096811MD1710031+0101REMSYN06448304 32960 30000 10168 20158 39681 40156 57003 83040 333 58010=
0220483040999992024010600004+19867+099767FM-12+040199999V0209999C000012200019N012000199+01671+01581101641ADDGA1021+008001061GA2999+999999031GA3999+999999021GE19AGL   +99999+99999GF103991021999008001999999KA1120N+01631MA1999999096891MD1210081+0021REMSYN07048304 32562 30000 10167 20158 39689 40164 52008 82546 333 20163 58002=
0169483040999992024010603004+19867+099767FM-12+040199999V0200501N001012200019N012000199+02201+01801101741ADDGA1031+999999031GE19AGL   +99999+99999GF103991031999999999999999MA1999999097071MD1210181+0031REMSYN06448304 32962 30502 10220 20180 39707 40174 52018 83040 333 58003=
0201483040999992024010606004+19867+099767FM-12+040199999V0203601N001519999999N015000199+02611+01731101351ADDGA1021+008001061GA2999+999999031GA3999+999999021GE19AGL   +99999+99999GF106991021999008001999999MA1999999096761MD1710311+0081REMSYN06448304 32565 63603 10261 20173 39676 40135 57031 82546 333 58008=
0201483040999992024010609004+19867+099767FM-12+040199999V0209999C000019999999N015000199+02891+01771101041ADDGA1011+008001081GA2999+999999031GA3999+999999021GE19AGL   +99999+99999GF105991011999008001999999MA1999999096501MD1710251+0021REMSYN06448304 32565 50000 10289 20177 39650 40104 57025 81146 333 58002=
0220483040999992024010612004+19867+099767FM-12+040199999V0209999C000019999999N012000199+02461+01951101291ADDGA1021+008001061GA2999+999999031GA3999+999999021GE19AGL   +99999+99999GF105991021999008001999999KA1240M+02961MA1999999096681MD1210171+0041REMSYN07048304 32562 50000 10246 20195 39668 40129 52017 82546 333 10296 58004=
0169483040999992024010615004+19867+099767FM-12+040199999V0209999C000012200019N012000199+02051+01841101481ADDGA1011+999999031GE19AGL   +99999+99999GF101991011999999999999999MA1999999096801MD1210121-0011REMSYN06448304 32962 10000 10205 20184 39680 40148 52012 81040 333 59001=
0099483040999992024010618004+19867+099767FM-12+040199999V0209999C000019999999N010000199+01751+01581101541ADDMA1999999096811MD1210011-0031REMSYN05848304 32960 00000 10175 20158 39681 40154 52001 333 59003=
0098483040999992024010621004+19873+099779FM-12+039799999V0209999C0000122000199010000199+01701+01561101521ADDAA199999999AZ101999AZ201999GF100991999999999999999999MA1999999096781MD1710031-0041REMSYN004BUFR
0204483040999992024010700004+19867+099767FM-12+040199999V0209999C000012200019N012000199+01661+01561101631ADDGA1021+008001061GA2999+999999021GE19AGL   +99999+99999GF103991021999008001999999KA1120N+01601MA1999999096881MD1210101-0011REMSYN07048304 32562 30000 10166 20156 39688 40163 52010 82506 333 20160 59001=
0169483040999992024010703004+19867+099767FM-12+040199999V0200101N001512200019N012000199+02281+01831101701ADDGA1011+008001061GE19AGL   +99999+99999GF101991011999008001999999MA1999999097041MD1210171-0041REMSYN06448304 32562 10103 10228 20183 39704 40170 52017 81500 333 59004=
0185483040999992024010706004+19867+099767FM-12+040199999V0201201N001019999999N015000199+02801+01831101301ADDGA1031+008001061GA2999+999999021GE19AGL   +99999+99999GF105991031999008001999999MA1999999096741MD1710301-0051REMSYN06448304 32565 51202 10280 20183 39674 40130 57030 83505 333 59005=
0169483040999992024010709004+19867+099767FM-12+040199999V0202001N003112200019N015000199+02951+01731101011ADDGA1011+008001061GE19AGL   +99999+99999GF101991011999008001999999MA1999999096481MD1710261-0031REMSYN06448304 32565 12006 10295 20173 39648 40101 57026 81500 333 59003=
0118483040999992024010712004+19867+099767FM-12+040199999V0209999C000019999999N012000199+02501+01971101171ADDKA1240M+02971MA1999999096571MD1210091-0121REMSYN06448304 32962 00000 10250 20197 39657 40117 52009 333 10297 59012=
0169483040999992024010715004+19867+099767FM-12+040199999V0209999C000012200019N012000199+02121+01931101401ADDGA1021+999999031GE19AGL   +99999+99999GF102991021999999999999999MA1999999096731MD1210161-0091REMSYN06448304 32962 20000 10212 20193 39673 40140 52016 82040 333 59009=
0099483040999992024010718004+19867+099767FM-12+040199999V0209999C000019999999N010000199+01801+01671101451ADDMA1999999096731MD1410001-0091REMSYN05848304 32960 00000 10180 20167 39673 40145 54000 333 59009=
0099483040999992024010721004+19867+099767FM-12+040199999V0209999C000019999999N010000199+01701+01581101431ADDMA1999999096701MD1710031-0081REMSYN05848304 32960 00000 10170 20158 39670 40143 57003 333 59008=
0172483040999992024010800004+19867+099767FM-12+040199999V0209999C00001000301WN000100199+01701+01611101571ADDAY141021AY201021GF109991999999999999999999KA1120N+01681MA1999999096821MD1210131-0061MW1471REMSYN07048304 31/01 90000 10170 20161 39682 40157 52013 74740 333 20168 59006=
0142483040999992024010803004+19873+099779FM-12+039799999V0200601N0015122000199008000199+02321+01891101681ADDAA199999999AY141999AY201999GA1021+008001061GE19AGL   +99999+99999GF102991021999008001999999MA1999999097031MD1210211-0021MW1101REMSYN004BUFR
0197483040999992024010806004+19867+099767FM-12+040199999V0209999C000012200019N012000199+02841+01861101221ADDAY141021AY201021GA1021+008001081GE19AGL   +99999+99999GF102991021999008001999999MA1999999096671MD1710361-0081MW1021REMSYN07048304 31562 20000 10284 20186 39667 40122 57036 70240 82200 333 59008=
0169483040999992024010809004+19867+099767FM-12+040199999V0209999C000012200019N012000199+02971+01761100961ADDGA1021+008001081GE19AGL   +99999+99999GF102991021999008001999999MA1999999096441MD1710221-0051REMSYN06448304 32562 20000 10297 20176 39644 40096 57022 82200 333 59005=
0188483040999992024010812004+19867+099767FM-12+040199999V0209999C000012200019N012000199+02431+02001101131ADDGA1021+008001061GE19AGL   +99999+99999GF102991021999008001999999KA1240M+03051MA1999999096521MD1210081-0041REMSYN07048304 32562 20000 10243 20200 39652 40113 52008 82500 333 10305 59004=
0099483040999992024010815004+19867+099767FM-12+040199999V0209999C000019999999N010000199+02141+01921101331ADDMA1999999096671MD1210151-0061REMSYN05848304 32960 00000 10214 20192 39667 40133 52015 333 59006=
0099483040999992024010818004+19867+099767FM-12+040199999V0209999C000019999999N010000199+01951+01801101331ADDMA1999999096641MD1710031-0121REMSYN05848304 32960 00000 10195 20180 39664 40133 57003 333 59012=
0201483040999992024010821004+19867+099767FM-12+040199999V0209999C000012200019N010000199+01851+01751101241ADDGA1021+008001061GA2999+999999031GA3999+999999021GE19AGL   +99999+99999GF104991021999008001999999MA1999999096531MD1710101-0201REMSYN06448304 32560 40000 10185 20175 39653 40124 57010 82535 333 59020=
0248483040999992024010900004+19867+099767FM-12+040199999V0209999C000019999999N007000199+01811+01731101381ADDAY111021AY211021GA1031+008001061GA2999+999999031GA3999+999999021GE19AGL   +99999+99999GF106991031999008001999999KA1120N+01761MA1999999096671MD1210131-0181MW1101REMSYN07648304 31557 60000 10181 20173 39667 40138 52013 71011 83536 333 20176 59018=
0229483040999992024010903004+19867+099767FM-12+040199999V0201201N001012200019N009000199+02231+01901101481ADDAY111021AY211021GA1021+008001061GA2999+999999031GA3999+999999021GE19AGL   +99999+99999GF102991021999008001999999MA1999999096821MD1210151-0201MW1101REMSYN07048304 31559 21202 10223 20190 39682 40148 52015 71011 82535 333 59020=
0169483040999992024010906004+19867+099767FM-12+040199999V0201201N002112200019N012000199+02871+01881101051ADDGA1021+008001061GE19AGL   +99999+99999GF102991021999008001999999MA1999999096511MD1710311-0171REMSYN06448304 32562 21204 10287 20188 39651 40105 57031 82500 333 59017=
0169483040999992024010909004+19867+099767FM-12+040199999V0209999C000012200019N012000199+03011+01731100831ADDGA1021+008001061GE19AGL   +99999+99999GF102991021999008001999999MA1999999096321MD1710191-0131REMSYN06448304 32562 20000 10301 20173 39632 40083 57019 82500 333 59013=
0118483040999992024010912004+19867+099767FM-12+040199999V0201501N001519999999N012000199+02501+01961101001ADDKA1240M+03061MA1999999096401MD1210081-0141REMSYN06448304 32962 01503 10250 20196 39640 40100 52008 333 10306 59014=
0099483040999992024010915004+19867+099767FM-12+040199999V0209999C000019999999N010000199+02131+01921101211ADDMA1999999096551MD1210151-0131REMSYN05848304 32960 00000 10213 20192 39655 40121 52015 333 59013=
0099483040999992024010918004+19867+099767FM-12+040199999V0209999C000019999999N010000199+01861+01731101241ADDMA1999999096531MD1710011-0091REMSYN05848304 32960 00000 10186 20173 39653 40124 57001 333 59009=
0099483040999992024010921004+19867+099767FM-12+040199999V0209999C000019999999N010000199+01771+01671101211ADDMA1999999096491MD1710041-0031REMSYN05848304 32960 00000 10177 20167 39649 40121 57004 333 59003=
0172483040999992024011000004+19867+099767FM-12+040199999V0209999C00001000301WN000100199+01651+01561101341ADDAY141021AY201021GF109991999999999999999999KA1120N+01601MA1999999096601MD1210101-0051MW1471REMSYN07048304 31/01 90000 10165 20156 39660 40134 52010 74740 333 20160 59005=
0197483040999992024011003004+19867+099767FM-12+040199999V0201301N001012200019N008000199+02151+01901101451ADDAY141021AY201021GA1011+012501081GE19AGL   +99999+99999GF101991011999012501999999MA1999999096781MD1210181-0031MW1101REMSYN07048304 31658 11302 10215 20190 39678 40145 52018 71040 81100 333 59003=
0213483040999992024011006004+19867+099767FM-12+040199999V0201601N002112200019N010000199+02811+01861101031ADDAY141021AY201021GA1021+008001061GA2999+999999021GE19AGL   +99999+99999GF102991021999008001999999MA1999999096481MD1710301-0031MW1031REMSYN07048304 31560 21604 10281 20186 39648 40103 57030 70340 82505 333 59003=
0169483040999992024011009004+19867+099767FM-12+040199999V0202101N001512200019N012000199+03051+01501100731ADDGA1021+008001061GE19AGL   +99999+99999GF102991021999008001999999MA1999999096231MD1710251-0111REMSYN06448304 32562 22103 10305 20150 39623 40073 57025 82500 333 59011=
0207483040999992024011012004+19867+099767FM-12+040199999V0200501N001512200019N012000199+02351+01841100951ADDGA1999+999999021GE19AGL   +99999+99999GF101991001999999999999999KA1240M+03091MA1999999096341MD1210111-0051REMSYN07048304 32962 10503 10235 20184 39634 40095 52011 80005 333 10309 59005=EQDQ01    003SCCGA1
0099483040999992024011015004+19867+099767FM-12+040199999V0209999C000019999999N010000199+02031+01801101171ADDMA1999999096491MD1210161-0041REMSYN05848304 32960 00000 10203 20180 39649 40117 52016 333 59004=
0099483040999992024011018004+19867+099767FM-12+040199999V0209999C000019999999N010000199+01831+01681101261ADDMA1999999096551MD1210051+0021REMSYN05848304 32960 00000 10183 20168 39655 40126 52005 333 58002=
0216483040999992024011021004+19867+099767FM-12+040199999V0209999C000012200019N008000199+01621+01501101231ADDAY101021AY201021GA1999+999999021GE19AGL   +99999+99999GF102991001999999999999999MA1999999096491MD1710061+0021MW1101REMSYN07048304 31958 20000 10162 20150 39649 40123 57006 71000 80005 333 58002=EQDQ01    003SCCGA1
0235483040999992024011100004+19867+099767FM-12+040199999V0209999C000012200019N009000199+01521+01411101451ADDAY101021AY201021GA1999+999999021GE19AGL   +99999+99999GF102991001999999999999999KA1120N+01461MA1999999096681MD1210191+0111MW1101REMSYN07648304 31959 20000 10152 20141 39668 40145 52019 71000 80005 333 20146 58011=EQDQ01    003SCCGA1
0099483040999992024011103004+19867+099767FM-12+040199999V0201401N001019999999N012000199+02201+01711101541ADDMA1999999096871MD1210191+0091REMSYN05848304 32962 01402 10220 20171 39687 40154 52019 333 58009=
0169483040999992024011106004+19867+099767FM-12+040199999V0201501N001012200019N012000199+02851+01851101061ADDGA1011+008001061GE19AGL   +99999+99999GF101991011999008001999999MA1999999096521MD1710351+0041REMSYN06448304 32562 11502 10285 20185 39652 40106 57035 81500 333 58004=
0169483040999992024011109004+19867+099767FM-12+040199999V0201801N001512200019N015000199+03151+01541100741ADDGA1021+008001061GE19AGL   +99999+99999GF102991021999008001999999MA1999999096261MD1710261+0011REMSYN06448304 32565 21803 10315 20154 39626 40074 57026 82500 333 58001=
0118483040999992024011112004+19867+099767FM-12+040199999V0209999C000019999999N012000199+02441+01861100981ADDKA1240M+03161MA1999999096381MD1210121+0031REMSYN06448304 32962 00000 10244 20186 39638 40098 52012 333 10316 58003=
0099483040999992024011115004+19867+099767FM-12+040199999V0209999C000019999999N010000199+01961+01761101221ADDMA1999999096541MD1210161+0051REMSYN05848304 32960 00000 10196 20176 39654 40122 52016 333 58005=
0099483040999992024011118004+19867+099767FM-12+040199999V0209999C000019999999N010000199+01771+01641101211ADDMA1999999096491MD1710041-0051REMSYN05848304 32960 00000 10177 20164 39649 40121 57004 333 59005=
0099483040999992024011121004+19867+099767FM-12+040199999V0209999C000019999999N010000199+01651+01551101171ADDMA1999999096441MD1710061-0061REMSYN05848304 32960 00000 10165 20155 39644 40117 57006 333 59006=
0204483040999992024011200004+19867+099767FM-12+040199999V0209999C000012200019N010000199+01541+01451101321ADDGA1021+008001061GA2999+999999021GE19AGL   +99999+99999GF103991021999008001999999KA1120N+01501MA1999999096561MD1210121-0131REMSYN07048304 32560 30000 10154 20145 39656 40132 52012 82505 333 20150 59013=
0201483040999992024011203004+19867+099767FM-12+040199999V0201001N001012200019N012000199+02081+01631101461ADDGA1021+008001061GA2999+999999031GA3999+999999021GE19AGL   +99999+99999GF103991021999008001999999MA1999999096781MD1210231-0071REMSYN06448304 32562 31002 10208 20163 39678 40146 52023 82535 333 59007=
0185483040999992024011206004+19867+099767FM-12+040199999V0200901N002112200019N012000199+02751+01771101071ADDGA1021+008001061GA2999+999999021GE19AGL   +99999+99999GF102991021999008001999999MA1999999096511MD1710281+0001REMSYN06448304 32562 20904 10275 20177 39651 40107 57028 82505 333 58000=
0201483040999992024011209004+19867+099767FM-12+040199999V0203101N001519999999N012000199+03001+01931100811ADDGA1021+008001061GA2999+999999031GA3999+999999021GE19AGL   +99999+99999GF105991021999008001999999MA1999999096301MD1710211+0071REMSYN06448304 32562 53103 10300 20193 39630 40081 57021 82535 333 58007=
0220483040999992024011212004+19867+099767FM-12+040199999V0202401N001012200019N012000199+02461+01981100951ADDGA1021+008001061GA2999+999999031GA3999+999999021GE19AGL   +99999+99999GF103991021999008001999999KA1240M+03001MA1999999096351MD1210061-0031REMSYN07048304 32562 32402 10246 20198 39635 40095 52006 82535 333 10300 59003=
0099483040999992024011215004+19867+099767FM-12+040199999V0209999C000019999999N012000199+02071+01861101181ADDMA1999999096521MD1210161-0041REMSYN05848304 32962 00000 10207 20186 39652 40118 52016 333 59004=
0099483040999992024011218004+19867+099767FM-12+040199999V0209999C000019999999N010000199+01751+01611101261ADDMA1999999096541MD1210021+0051REMSYN05848304 32960 00000 10175 20161 39654 40126 52002 333 58005=
0099483040999992024011221004+19867+099767FM-12+040199999V0209999C000019999999N010000199+01671+01581101181ADDMA1999999096451MD1710081+0011REMSYN05848304 32960 00000 10167 20158 39645 40118 57008 333 58001=
0118483040999992024011300004+19867+099767FM-12+040199999V0209999C000019999999N012000199+01631+01581101371ADDKA1120N+01581MA1999999096621MD1210171+0051REMSYN06448304 32962 00000 10163 20158 39662 40137 52017 333 20158 58005=
0127483040999992024011303004+19867+099767FM-12+040199999V0209999C000019999999N008000199+02201+01781101501ADDAY141021AY201021MA1999999096831MD1210211+0031MW1101REMSYN06448304 31958 00000 10220 20178 39683 40150 52021 71040 333 58003=
0213483040999992024011306004+19867+099767FM-12+040199999V0201101N003112200019N010000199+02781+01881101111ADDAY141021AY201021GA1031+008001081GA2999+999999021GE19AGL   +99999+99999GF103991031999008001999999MA1999999096551MD1710281+0051MW1031REMSYN07048304 31560 31106 10278 20188 39655 40111 57028 70340 83205 333 58005=
0185483040999992024011309004+19867+099767FM-12+040199999V0200501N001512200019N010000199+02961+01951100901ADDGA1031+008001081GA2999+999999021GE19AGL   +99999+99999GF103991031999008001999999MA1999999096371MD1710181+0091REMSYN06448304 32560 30503 10296 20195 39637 40090 57018 83205 333 58009=
0118483040999992024011312004+19867+099767FM-12+040199999V0202701N001519999999N010000199+02511+02001101071ADDKA1240M+03051MA1999999096471MD1210101+0111REMSYN06448304 32960 02703 10251 20200 39647 40107 52010 333 10305 58011=
0169483040999992024011315004+19867+099767FM-12+040199999V0200201N001512200019N010000199+02251+02021101321ADDGA1021+008001061GE19AGL   +99999+99999GF102991021999008001999999MA1999999096671MD1210201+0131REMSYN06448304 32560 20203 10225 20202 39667 40132 52020 82500 333 58013=
0169483040999992024011318004+19867+099767FM-12+040199999V0209999C000012200019N010000199+01981+01851101401ADDGA1011+008001061GE19AGL   +99999+99999GF101991011999008001999999MA1999999096711MD1210041+0141REMSYN06448304 32560 10000 10198 20185 39671 40140 52004 81500 333 58014=
0169483040999992024011321004+19867+099767FM-12+040199999V0209999C000012200019N010000199+01941+01841101341ADDGA1031+008001061GE19AGL   +99999+99999GF103991031999008001999999MA1999999096651MD1710061+0161REMSYN06448304 32560 30000 10194 20184 39665 40134 57006 83500 333 58016=
0248483040999992024011400004+19867+099767FM-12+040199999V0209999C000019999999N008000199+02001+01901101541ADDAY111021AY211021GA1031+008001061GA2999+999999031GA3999+999999021GE19AGL   +99999+99999GF106991031999008001999999KA1120N+01901MA1999999096851MD1210201+0171MW1101REMSYN07648304 31558 60000 10200 20190 39685 40154 52020 71011 83576 333 20190 58017=
0213483040999992024011403004+19867+099767FM-12+040199999V0200301N002612200019N008000199+02351+02041101721ADDAY111021AY211021GA1031+008001061GA2999+999999021GE19AGL   +99999+99999GF103991031999008001999999MA1999999097071MD1210221+0221MW1101REMSYN07048304 31558 30305 10235 20204 39707 40172 52022 71011 83506 333 58022=
0213483040999992024011406004+19867+099767FM-12+040199999V0200701N001019999999N008000199+02741+01941101331ADDAY111021AY211021GA1061+008001081GA2999+999999021GE19AGL   +99999+99999GF106991061999008001999999MA1999999096761MD1710311+0221MW1051REMSYN07048304 31558 60702 10274 20194 39676 40133 57031 70511 86806 333 58022=
0229483040999992024011409004+19867+099767FM-12+040199999V0201201N001519999999N008000199+02901+01901101081ADDAY121021AY221021GA1031+008001081GA2999+999999031GA3999+999999021GE19AGL   +99999+99999GF105991031999008001999999MA1999999096541MD1710211+0181MW1051REMSYN07048304 31558 51203 10290 20190 39654 40108 57021 70522 83245 333 58018=
0216483040999992024011412004+19867+099767FM-12+040199999V0209999C000012200019N008000199+02451+02001101241ADDAY111021AY211021GA1021+008001061GE19AGL   +99999+99999GF102991021999008001999999KA1240M+02951MA1999999096631MD1210081+0171MW1101REMSYN07648304 31558 20000 10245 20200 39663 40124 52008 71011 82500 333 10295 58017=
0229483040999992024011415004+19867+099767FM-12+040199999V0209999C000019999999N007000199+02131+01961101491ADDAY111021AY211021GA1031+008001061GA2999+999999031GA3999+999999021GE19AGL   +99999+99999GF105991031999008001999999MA1999999096821MD1210191+0181MW1101REMSYN07048304 31557 50000 10213 20196 39682 40149 52019 71011 83546 333 58018=
0216483040999992024011418004+19867+099767FM-12+040199999V0209999C000012200019N007000199+02041+01911101491ADDAY111021AY211021GA1999+999999021GE19AGL   +99999+99999GF102991001999999999999999MA1999999096801MD1710021+0091MW1101REMSYN07048304 31957 20000 10204 20191 39680 40149 57002 71011 80005 333 58009=EQDQ01    003SCCGA1
0229483040999992024011421004+19867+099767FM-12+040199999V0209999C000019999999N007000199+02011+01931101441ADDAY111021AY211021GA1031+008001061GA2999+999999031GA3999+999999021GE19AGL   +99999+99999GF105991031999008001999999MA1999999096751MD1710051+0101MW1101REMSYN07048304 31557 50000 10201 20193 39675 40144 57005 71011 83546 333 58010=
0232483040999992024011500004+19867+099767FM-12+040199999V0209999C000019999999N007000199+01971+01891101581ADDAY111021AY211021GA1061+008001061GA2999+999999031GE19AGL   +99999+99999GF108991061999008001999999KA1120N+01941MA1999999096881MD1210121+0041MW1101REMSYN07648304 31557 80000 10197 20189 39688 40158 52012 71011 8657/ 333 20194 58004=
0229483040999992024011503004+19867+099767FM-12+040199999V0203601N002119999999N008000199+02461+02001101641ADDAY121021AY221021GA1051+008001061GA2999+999999031GA3999+999999021GE19AGL   +99999+99999GF107991051999008001999999MA1999999097011MD1210141-0081MW1101REMSYN07048304 31558 73604 10246 20200 39701 40164 52014 71022 85546 333 59008=
0229483040999992024011506004+19867+099767FM-12+040199999V0201401N001512200019N008000199+02801+01871101301ADDAY111021AY211021GA1021+008001081GA2999+999999031GA3999+999999021GE19AGL   +99999+99999GF104991021999008001999999MA1999999096731MD1710281-0031MW1051REMSYN07048304 31558 41403 10280 20187 39673 40130 57028 70511 82145 333 59003=
0229483040999992024011509004+19867+099767FM-12+040199999V0200601N001019999999N008000199+02921+01921101031ADDAY111021AY211021GA1051+008001081GA2999+999999031GA3999+999999021GE19AGL   +99999+99999GF106991051999008001999999MA1999999096491MD1710241-0051MW1051REMSYN07048304 31558 60602 10292 20192 39649 40103 57024 70511 85846 333 59005=
0232483040999992024011512004+19867+099767FM-12+040199999V0209999C000019999999N007000199+02611+02031101141ADDAY111021AY211021GA1021+008001061GA2999+999999021GE19AGL   +99999+99999GF105991021999008001999999KA1240M+03051MA1999999096551MD1210061-0101MW1101REMSYN07648304 31557 50000 10261 20203 39655 40114 52006 71011 82506 333 10305 59010=
0229483040999992024011515004+19867+099767FM-12+040199999V0209999C000019999999N007000199+02261+02001101341ADDAY121021AY221021GA1031+008001061GA2999+999999031GA3999+999999021GE19AGL   +99999+99999GF105991031999008001999999MA1999999096691MD1210141-0161MW1101REMSYN07048304 31557 50000 10226 20200 39669 40134 52014 71022 83546 333 59016=
0229483040999992024011518004+19867+099767FM-12+040199999V0209999C000019999999N007000199+02121+01961101341ADDAY121021AY221021GA1021+008001061GA2999+999999031GA3999+999999021GE19AGL   +99999+99999GF105991021999008001999999MA1999999096681MD1710021-0141MW1101REMSYN07048304 31557 50000 10212 20196 39668 40134 57002 71022 82546 333 59014=
0229483040999992024011521004+19867+099767FM-12+040199999V0209999C000019999999N007000199+02021+01891101311ADDAY121021AY221021GA1041+008001061GA2999+999999031GA3999+999999021GE19AGL   +99999+99999GF106991041999008001999999MA1999999096621MD1710051-0141MW1101REMSYN07048304 31557 60000 10202 20189 39662 40131 57005 71022 84546 333 59014=
0248483040999992024011600004+19867+099767FM-12+040199999V0209999C000019999999N008000199+02061+01921101451ADDAY121021AY221021GA1021+008001061GA2999+999999031GA3999+999999021GE19AGL   +99999+99999GF106991021999008001999999KA1120N+02011MA1999999096771MD1210141-0131MW1101REMSYN07648304 31558 60000 10206 20192 39677 40145 52014 71022 82546 333 20201 59013=
0265483040999992024011603004+19867+099767FM-12+040199999V0209999C000019999999N008000199+02311+01931101631ADDAA102000091AY161021AY221021GA1061+008001061GA2999+999999031GA3999+999999021GE19AGL   +99999+99999GF107991061999008001999999MA1999999096981MD1210211-0011MW1101REMSYN07648304 21558 70000 10231 20193 39698 40163 52021 71062 86556 333 59001 69906=EQDQ01  00002PRCP02
0298483040999992024011606004+19867+099767FM-12+040199999V0200501N002119999999N010000199+02761+01821101291ADDAA106000091AA224000091AY161021AY221021GA1051+008001081GA2999+999999031GA3999+999999021GE19AGL   +99999+99999GF107991051999008001999999MA1999999096721MD1710261-0011MW1031REMSYN08248304 11560 70504 10276 20182 39672 40129 57026 69901 70362 85846 333 59001 79999=EQDQ01  00002PRCP06Q02  00002PRCP24
0169483040999992024011609004+19867+099767FM-12+040199999V0200801N002112200019N010000199+02831+01871101031ADDGA1021+008001081GE19AGL   +99999+99999GF102991021999008001999999MA1999999096481MD1710241+0001REMSYN06448304 32560 20804 10283 20187 39648 40103 57024 82100 333 58000=
0284483040999992024011612004+19867+099767FM-12+040199999V0209999C000012200019N008000199+02361+01971101201ADDAA124000091AY111021AY211021GA1021+008001061GA2999+999999031GA3999+999999021GE19AGL   +99999+99999GF103991021999008001999999KA1240M+02841MA1999999096581MD1210101+0061MW1101REMSYN08248304 31558 30000 10236 20197 39658 40120 52010 71011 82546 333 10284 58006 79999=EQDQ01  00002PRCP24
0229483040999992024011615004+19867+099767FM-12+040199999V0209999C000012200019N008000199+02111+01891101381ADDAY101021AY201021GA1021+008001061GA2999+999999031GA3999+999999021GE19AGL   +99999+99999GF102991021999008001999999MA1999999096711MD1210131+0041MW1101REMSYN07048304 31558 20000 10211 20189 39671 40138 52013 71000 82545 333 58004=
0163483040999992024011618004+19867+099767FM-12+040199999V0209999C000019999999N007000199+01961+01831101371ADDAA124000091AY101021AY201021MA1999999096671MD1710031+0021MW1101REMSYN07048304 31957 00000 10196 20183 39667 40137 57003 71000 333 58002 79999=EQDQ01  00002PRCP24
0153483040999992024011621004+19867+099767FM-12+040199999V0209999C00001000301WN000100199+01861+01781101311ADDAY141021AY201021GF109991999999999999999999MA1999999096611MD1710071+0011MW1471REMSYN06448304 31/01 90000 10186 20178 39661 40131 57007 74740 333 58001=
0284483040999992024011700004+19867+099767FM-12+040199999V0209999C000019999999N007000199+01791+01711101421ADDAA124000091AY141021AY211021GA1021+008001061GA2999+999999031GA3999+999999021GE19AGL   +99999+99999GF105991021999008001999999KA1120N+01731MA1999999096701MD1210091-0031MW1101REMSYN08248304 31557 50000 10179 20171 39670 40142 52009 71041 82546 333 20173 59003 79999=EQDQ01  00002PRCP24
0201483040999992024011703004+19867+099767FM-12+040199999V0209999C000019999999N010000199+02161+01921101541ADDGA1031+008001081GA2999+999999031GA3999+999999021GE19AGL   +99999+99999GF105991031999008001999999MA1999999096871MD1210181-0091REMSYN06448304 32560 50000 10216 20192 39687 40154 52018 83846 333 59009=
0280483040999992024011706004+19867+099767FM-12+040199999V0209999C000019999999N008000199+02581+01801101211ADDAA101000021AA206000021AA324000021AY121021AY221021GA1061+008001061GA2999+999999031GA3999+999999021GE19AGL   +99999+99999GF107991061999008001999999MA1999999096621MD1710261-0081MW1601REMSYN08848304 01558 70000 10258 20180 39662 40121 57026 69901 76022 86576 333 59008 69905 79999=
0168483040999992024011709004+19873+099779FM-12+039799999V0201701N0015199999999010000199+02761+01821100991ADDAA199999999AZ101999AZ201999GA1021+008001061GA2999+999999031GA3999+999999021GE19AGL   +99999+99999GF105991021999008001999999MA1999999096441MD1710181-0031REMSYN004BUFR
0237483040999992024011712004+19867+099767FM-12+040199999V0209999C000019999999N010000199+02361+01971101151ADDAA124000021GA1021+008001061GA2999+999999031GA3999+999999021GE19AGL   +99999+99999GF106991021999008001999999KA1240M+02821MA1999999096531MD1210091-0051REMSYN07648304 32560 60000 10236 20197 39653 40115 52009 82556 333 10282 59005 79999=
0201483040999992024011715004+19867+099767FM-12+040199999V0209999C000012200019N010000199+02031+01771101401ADDGA1021+008001061GA2999+999999031GA3999+999999021GE19AGL   +99999+99999GF103991021999008001999999MA1999999096721MD1210191+0021REMSYN06448304 32560 30000 10203 20177 39672 40140 52019 82545 333 58002=
0246483040999992024011718004+19867+099767FM-12+040199999V0209999C000012200019N008000199+01911+01761101401ADDAA124000021AY111021AY211021GA1021+008001061GA2999+999999031GA3999+999999021GE19AGL   +99999+99999GF103991021999008001999999MA1999999096701MD1710021+0041MW1101REMSYN07648304 31558 30000 10191 20176 39670 40140 57002 71011 82535 333 58004 79999=
0127483040999992024011721004+19867+099767FM-12+040199999V0209999C000019999999N007000199+01741+01621101371ADDAY101021AY201021MA1999999096641MD1710061+0051MW1101REMSYN06448304 31957 00000 10174 20162 39664 40137 57006 71000 333 58005=
0265483040999992024011800004+19867+099767FM-12+040199999V0209999C000012200019N007000199+01661+01571101521ADDAA124000021AY101021AY201021GA1011+008001061GA2999+999999031GA3999+999999021GE19AGL   +99999+99999GF102991011999008001999999KA1120N+01591MA1999999096771MD1210131+0101MW1101REMSYN08248304 31557 20000 10166 20157 39677 40152 52013 71000 81545 333 20159 58010 79999=
0153483040999992024011803004+19867+099767FM-12+040199999V0200201N00151001201WN000500199+01901+01821101671ADDAY141021AY201021GF109991999999999999999999MA1999999096961MD1210181+0131MW1471REMSYN06448304 31/05 90203 10190 20182 39696 40167 52018 74740 333 58013=
0197483040999992024011806004+19867+099767FM-12+040199999V0209999C000012200019N008000199+02561+01871101221ADDAY141021AY201021GA1011+008001081GE19AGL   +99999+99999GF101991011999008001999999MA1999999096621MD1710341+0011MW1101REMSYN07048304 31558 10000 10256 20187 39662 40122 57034 71040 81200 333 58001=
0169483040999992024011809004+19867+099767FM-12+040199999V0203001N001012200019N012000199+02901+01731100871ADDGA1021+008001081GE19AGL   +99999+99999GF102991021999008001999999MA1999999096341MD1710281-0121REMSYN06448304 32562 23002 10290 20173 39634 40087 57028 82100 333 59012=
0207483040999992024011812004+19867+099767FM-12+040199999V0209999C000012200019N010000199+02491+01911101001ADDGA1999+999999021GE19AGL   +99999+99999GF102991001999999999999999KA1240M+02971MA1999999096411MD1210061-0151REMSYN07048304 32960 20000 10249 20191 39641 40100 52006 80005 333 10297 59015=EQDQ01    003SCCGA1
0099483040999992024011815004+19867+099767FM-12+040199999V0209999C000019999999N010000199+02001+01741101271ADDMA1999999096581MD1210181-0141REMSYN05848304 32960 00000 10200 20174 39658 40127 52018 333 59014=
0099483040999992024011818004+19867+099767FM-12+040199999V0209999C000019999999N010000199+01701+01531101251ADDMA1999999096521MD1710061-0151REMSYN05848304 32960 00000 10170 20153 39652 40125 57006 333 59015=
0216483040999992024011821004+19867+099767FM-12+040199999V0200401N001012200019N007000199+01551+01431101261ADDAY101021AY201021GA1999+999999021GE19AGL   +99999+99999GF103991001999999999999999MA1999999096511MD1710021-0111MW1101REMSYN07048304 31957 30402 10155 20143 39651 40126 57002 71000 80006 333 59011=EQDQ01    003SCCGA1
0235483040999992024011900004+19867+099767FM-12+040199999V0209999C000012200019N007000199+01491+01421101451ADDAY101021AY201021GA1999+999999021GE19AGL   +99999+99999GF102991001999999999999999KA1120N+01401MA1999999096681MD1210171-0071MW1101REMSYN07648304 31957 20000 10149 20142 39668 40145 52017 71000 80005 333 20140 59007=EQDQ01    003SCCGA1
0099483040999992024011903004+19867+099767FM-12+040199999V0201001N002119999999N012000199+02211+01741101551ADDMA1999999096891MD1210211-0121REMSYN05848304 32962 01004 10221 20174 39689 40155 52021 333 59012=
0169483040999992024011906004+19867+099767FM-12+040199999V0202901N001512200019N012000199+02801+01441101091ADDGA1011+008001081GE19AGL   +99999+99999GF101991011999008001999999MA1999999096541MD1710351-0131REMSYN06448304 32562 12903 10280 20144 39654 40109 57035 81200 333 59013=
0185483040999992024011909004+19867+099767FM-12+040199999V0202801N002112200019N015000199+03081+01011100841ADDGA1011+008001081GA2999+999999021GE19AGL   +99999+99999GF102991011999008001999999MA1999999096331MD1710201-0041REMSYN06448304 32565 22804 10308 20101 39633 40084 57020 81105 333 59004=
0207483040999992024011912004+19867+099767FM-12+040199999V0209999C000012200019N015000199+02311+01411101061ADDGA1999+999999021GE19AGL   +99999+99999GF102991001999999999999999KA1240M+03091MA1999999096431MD1210101+0061REMSYN07048304 32965 20000 10231 20141 39643 40106 52010 80005 333 10309 58006=EQDQ01    003SCCGA1
0099483040999992024011915004+19867+099767FM-12+040199999V0209999C000019999999N012000199+01761+01451101291ADDMA1999999096571MD1210141+0031REMSYN05848304 32962 00000 10176 20145 39657 40129 52014 333 58003=
0099483040999992024011918004+19867+099767FM-12+040199999V0209999C000019999999N010000199+01401+01291101331ADDMA1999999096551MD1710021+0081REMSYN05848304 32960 00000 10140 20129 39655 40133 57002 333 58008=
0099483040999992024011921004+19867+099767FM-12+040199999V0209999C000019999999N010000199+01251+01151101321ADDMA1999999096521MD1710031+0061REMSYN05848304 32960 00000 10125 20115 39652 40132 57003 333 58006=
0118483040999992024012000004+19867+099767FM-12+040199999V0209999C000019999999N012000199+01251+01151101541ADDKA1120N+01201MA1999999096721MD1210201+0091REMSYN06448304 32962 00000 10125 20115 39672 40154 52020 333 20120 58009=
0169483040999992024012003004+19867+099767FM-12+040199999V0209999C000012200019N015000199+02011+01381101621ADDGA1011+008001081GE19AGL   +99999+99999GF101991011999008001999999MA1999999096921MD1210201+0071REMSYN06448304 32565 10000 10201 20138 39692 40162 52020 81100 333 58007=
0169483040999992024012006004+19867+099767FM-12+040199999V0200501N001012200019N015000199+02631+01181101181ADDGA1011+008001061GE19AGL   +99999+99999GF101991011999008001999999MA1999999096591MD1710331+0091REMSYN06448304 32565 10502 10263 20118 39659 40118 57033 81500 333 58009=
0099483040999992024012009004+19867+099767FM-12+040199999V0202901N002119999999N015000199+02941+01261100921ADDMA1999999096401MD1710191+0091REMSYN05848304 32965 02904 10294 20126 39640 40092 57019 333 58009=
0188483040999992024012012004+19867+099767FM-12+040199999V0201601N001012200019N015000199+02381+01611101051ADDGA1021+008001061GE19AGL   +99999+99999GF102991021999008001999999KA1240M+02981MA1999999096441MD1210041-0011REMSYN07048304 32565 21602 10238 20161 39644 40105 52004 82500 333 10298 59001=
0099483040999992024012015004+19867+099767FM-12+040199999V0209999C000019999999N012000199+01811+01541101331ADDMA1999999096611MD1210171+0041REMSYN05848304 32962 00000 10181 20154 39661 40133 52017 333 58004=
0099483040999992024012018004+19867+099767FM-12+040199999V0209999C000019999999N010000199+01641+01471101371ADDMA1999999096621MD1210011+0041REMSYN05848304 32960 00000 10164 20147 39662 40137 52001 333 58004=
0099483040999992024012021004+19867+099767FM-12+040199999V0209999C000019999999N010000199+01501+01391101341ADDMA1999999096571MD1710051+0011REMSYN05848304 32960 00000 10150 20139 39657 40134 57005 333 58001=
0204483040999992024012100004+19867+099767FM-12+040199999V0209999C000012200019N012000199+01301+01221101511ADDGA1021+008001061GA2999+999999021GE19AGL   +99999+99999GF102991021999008001999999KA1120N+01261MA1999999096701MD1210131-0031REMSYN07048304 32562 20000 10130 20122 39670 40151 52013 82505 333 20126 59003=
0185483040999992024012103004+19867+099767FM-12+040199999V0201601N001012200019N015000199+02101+01511101571ADDGA1021+008001061GA2999+999999021GE19AGL   +99999+99999GF102991021999008001999999MA1999999096891MD1210181-0051REMSYN06448304 32565 21602 10210 20151 39689 40157 52018 82505 333 59005=
0185483040999992024012106004+19867+099767FM-12+040199999V0202001N004112200019N015000199+02851+00971101101ADDGA1011+008001061GA2999+999999021GE19AGL   +99999+99999GF101991011999008001999999MA1999999096561MD1710331-0071REMSYN06448304 32565 12008 10285 20097 39656 40110 57033 81505 333 59007=
0185483040999992024012109004+19867+099767FM-12+040199999V0202701N002612200019N015000199+03001+00951100891ADDGA1011+012501081GA2999+999999021GE19AGL   +99999+99999GF101991011999012501999999MA1999999096371MD1710181-0041REMSYN06448304 32665 12705 10300 20095 39637 40089 57018 81105 333 59004=
0118483040999992024012112004+19867+099767FM-12+040199999V0209999C000019999999N012000199+02221+01011101141ADDKA1240M+03031MA1999999096491MD1210121+0081REMSYN06448304 32962 00000 10222 20101 39649 40114 52012 333 10303 58008=
0099483040999992024012115004+19867+099767FM-12+040199999V0209999C000019999999N010000199+01721+01331101371ADDMA1999999096641MD1210151+0041REMSYN05848304 32960 00000 10172 20133 39664 40137 52015 333 58004=
0099483040999992024012118004+19867+099767FM-12+040199999V0209999C000019999999N010000199+01571+01371101441ADDMA1999999096681MD1210041+0071REMSYN05848304 32960 00000 10157 20137 39668 40144 52004 333 58007=
0099483040999992024012121004+19867+099767FM-12+040199999V0209999C000019999999N010000199+01351+01221101431ADDMA1999999096641MD1710041+0101REMSYN05848304 32960 00000 10135 20122 39664 40143 57004 333 58010=
0207483040999992024012200004+19867+099767FM-12+040199999V0209999C000012200019N012000199+01201+01101101651ADDGA1999+999999021GE19AGL   +99999+99999GF102991001999999999999999KA1120N+01151MA1999999096821MD1210181+0141REMSYN07048304 32962 20000 10120 20110 39682 40165 52018 80005 333 20115 58014=EQDQ01    003SCCGA1
0099483040999992024012203004+19867+099767FM-12+040199999V0209999C000019999999N012000199+01961+01421101721ADDMA1999999097011MD1210191+0151REMSYN05848304 32962 00000 10196 20142 39701 40172 52019 333 58015=
0185483040999992024012206004+19867+099767FM-12+040199999V0201001N001012200019N015000199+02651+01161101331ADDGA1011+008001061GA2999+999999021GE19AGL   +99999+99999GF102991011999008001999999MA1999999096751MD1710261+0231REMSYN06448304 32565 21002 10265 20116 39675 40133 57026 81505 333 58023=
0201483040999992024012209004+19867+099767FM-12+040199999V0209999C000012200019N015000199+02881+01311101101ADDGA1011+008001061GA2999+999999031GA3999+999999021GE19AGL   +99999+99999GF103991011999008001999999MA1999999096551MD1710191+0211REMSYN06448304 32565 30000 10288 20131 39655 40110 57019 81545 333 58021=
0188483040999992024012212004+19867+099767FM-12+040199999V0209999C000012200019N010000199+02261+01581101261ADDGA1011+999999031GE19AGL   +99999+99999GF101991011999999999999999KA1240M+02921MA1999999096621MD1210071+0131REMSYN07048304 32960 10000 10226 20158 39662 40126 52007 81040 333 10292 58013=
0099483040999992024012215004+19867+099767FM-12+040199999V0209999C000019999999N010000199+01761+01501101531ADDMA1999999096801MD1210181+0161REMSYN05848304 32960 00000 10176 20150 39680 40153 52018 333 58016=
0169483040999992024012218004+19867+099767FM-12+040199999V0209999C000012200019N010000199+01531+01371101581ADDGA1021+999999031GE19AGL   +99999+99999GF102991021999999999999999MA1999999096811MD1210011+0151REMSYN06448304 32960 20000 10153 20137 39681 40158 52001 82040 333 58015=
0169483040999992024012221004+19867+099767FM-12+040199999V0209999C000012200019N010000199+01391+01261101571ADDGA1011+999999031GE19AGL   +99999+99999GF101991011999999999999999MA1999999096771MD1710041+0131REMSYN06448304 32960 10000 10139 20126 39677 40157 57004 81040 333 58013=
0204483040999992024012300004+19867+099767FM-12+040199999V0209999C000012200019N010000199+01291+01181101731ADDGA1011+008001061GA2999+999999031GE19AGL   +99999+99999GF102991011999008001999999KA1120N+01241MA1999999096911MD1210141+0081REMSYN07048304 32560 20000 10129 20118 39691 40173 52014 81540 333 20124 58008=
0169483040999992024012303004+19867+099767FM-12+040199999V0209999C000019999999N012000199+01961+01501101791ADDGA1061+999999031GE19AGL   +99999+99999GF106991061999999999999999MA1999999097081MD1210171+0071REMSYN06448304 32962 60000 10196 20150 39708 40179 52017 86030 333 58007=
0169483040999992024012306004+19867+099767FM-12+040199999V0209999C000019999999N012000199+02671+01501101351ADDGA1061+999999031GE19AGL   +99999+99999GF106991061999999999999999MA1999999096761MD1710311+0011REMSYN06448304 32962 60000 10267 20150 39676 40135 57031 86040 333 58001=
0201483040999992024012309004+19867+099767FM-12+040199999V0209999C000019999999N012000199+02931+01221101071ADDGA1011+008001081GA2999+999999031GA3999+999999021GE19AGL   +99999+99999GF105991011999008001999999MA1999999096531MD1710231-0031REMSYN06448304 32562 50000 10293 20122 39653 40107 57023 81146 333 59003=
0204483040999992024012312004+19867+099767FM-12+040199999V0209999C000019999999N010000199+02511+01691101221ADDGA1061+008001061GA2999+999999031GE19AGL   +99999+99999GF108991061999008001999999KA1240M+03001MA1999999096621MD1210081-0041REMSYN07048304 32560 80000 10251 20169 39662 40122 52008 8655/ 333 10300 59004=
0201483040999992024012315004+19867+099767FM-12+040199999V0209999C000019999999N010000199+02121+01761101481ADDGA1021+008001061GA2999+999999031GA3999+999999021GE19AGL   +99999+99999GF106991021999008001999999MA1999999096811MD1210191-0051REMSYN06448304 32560 60000 10212 20176 39681 40148 52019 82556 333 59005=
0201483040999992024012318004+19867+099767FM-12+040199999V0209999C000019999999N010000199+01891+01671101571ADDGA1021+008001081GA2999+999999031GA3999+999999021GE19AGL   +99999+99999GF105991021999008001999999MA1999999096851MD1210051-0021REMSYN06448304 32560 50000 10189 20167 39685 40157 52005 82146 333 59002=
0201483040999992024012321004+19867+099767FM-12+040199999V0209999C000012200019N010000199+01721+01571101591ADDGA1011+008001081GA2999+999999031GA3999+999999021GE19AGL   +99999+99999GF102991011999008001999999MA1999999096851MD1410001+0031REMSYN06448304 32560 20000 10172 20157 39685 40159 54000 81145 333 58003=
0220483040999992024012400004+19867+099767FM-12+040199999V0209999C000012200019N010000199+01581+01461101771ADDGA1011+008001061GA2999+999999031GA3999+999999021GE19AGL   +99999+99999GF102991011999008001999999KA1120N+01531MA1999999097001MD1210151+0051REMSYN07048304 32560 20000 10158 20146 39700 40177 52015 81545 333 20153 58005=
0201483040999992024012403004+19867+099767FM-12+040199999V0209999C000012200019N012000199+02211+01521101871ADDGA1011+008001081GA2999+999999031GA3999+999999001GE19AGL   +99999+99999GF102991011999008001999999MA1999999097191MD1210191+0081REMSYN06448304 32562 20000 10221 20152 39719 40187 52019 81141 333 58008=
0201483040999992024012406004+19867+099767FM-12+040199999V0209999C000012200019N012000199+02661+01601101531ADDGA1011+008001081GA2999+999999031GA3999+999999021GE19AGL   +99999+99999GF102991011999008001999999MA1999999096931MD1710261+0181REMSYN06448304 32562 20000 10266 20160 39693 40153 57026 81145 333 58018=
0201483040999992024012409004+19867+099767FM-12+040199999V0209999C000012200019N012000199+02821+01591101211ADDGA1011+008001081GA2999+999999031GA3999+999999021GE19AGL   +99999+99999GF102991011999008001999999MA1999999096651MD1710281+0141REMSYN06448304 32562 20000 10282 20159 39665 40121 57028 81145 333 58014=
0220483040999992024012412004+19867+099767FM-12+040199999V0209999C000019999999N010000199+02361+01681101491ADDGA1021+008001061GA2999+999999031GA3999+999999021GE19AGL   +99999+99999GF105991021999008001999999KA1240M+02891MA1999999096851MD1210201+0271REMSYN07048304 32560 50000 10236 20168 39685 40149 52020 82546 333 10289 58027=
0169483040999992024012415004+19867+099767FM-12+040199999V0209999C000012200019N010000199+02021+01691101781ADDGA1031+008001061GE19AGL   +99999+99999GF103991031999008001999999MA1999999097081MD1210231+0301REMSYN06448304 32560 30000 10202 20169 39708 40178 52023 83500 333 58030=
0099483040999992024012418004+19867+099767FM-12+040199999V0209999C000019999999N010000199+01681+01471101841ADDMA1999999097081MD1410001+0271REMSYN05848304 32960 00000 10168 20147 39708 40184 54000 333 58027=
0099483040999992024012421004+19867+099767FM-12+040199999V0209999C000019999999N010000199+01501+01391101821ADDMA1999999097031MD1710051+0231REMSYN05848304 32960 00000 10150 20139 39703 40182 57005 333 58023=
0220483040999992024012500004+19867+099767FM-12+040199999V0209999C000019999999N010000199+01501+01411101971ADDGA1021+008001061GA2999+999999031GA3999+999999021GE19AGL   +99999+99999GF106991021999008001999999KA1120N+01451MA1999999097171MD1210141+0191REMSYN07048304 32560 60000 10150 20141 39717 40197 52014 82576 333 20145 58019=
0201483040999992024012503004+19867+099767FM-12+040199999V0200501N001519999999N012000199+02021+01641102111ADDGA1031+008001061GA2999+999999031GA3999+999999021GE19AGL   +99999+99999GF107991031999008001999999MA1999999097401MD1210221+0241REMSYN06448304 32562 70503 10202 20164 39740 40211 52022 83576 333 58024=
0185483040999992024012506004+19867+099767FM-12+040199999V0200901N001519999999N012000199+02601+01591101761ADDGA1031+008001061GA2999+999999021GE19AGL   +99999+99999GF105991031999008001999999MA1999999097141MD1710251+0231REMSYN06448304 32562 50903 10260 20159 39714 40176 57025 83506 333 58023=
0185483040999992024012509004+19867+099767FM-12+040199999V0201401N002112200019N012000199+02801+01681101441ADDGA1031+008001081GA2999+999999021GE19AGL   +99999+99999GF103991031999008001999999MA1999999096871MD1710271+0231REMSYN06448304 32562 31404 10280 20168 39687 40144 57027 83805 333 58023=
0220483040999992024012512004+19867+099767FM-12+040199999V0209999C000019999999N012000199+02431+01741101591ADDGA1031+008001081GA2999+999999031GA3999+999999021GE19AGL   +99999+99999GF105991031999008001999999KA1240M+02811MA1999999096961MD1210091+0101REMSYN07048304 32562 50000 10243 20174 39696 40159 52009 83875 333 10281 58010=
0201483040999992024012515004+19867+099767FM-12+040199999V0202401N001019999999N010000199+02301+01611101881ADDGA1041+008001061GA2999+999999031GA3999+999999021GE19AGL   +99999+99999GF106991041999008001999999MA1999999097221MD1210251+0101REMSYN06448304 32560 62402 10230 20161 39722 40188 52025 84576 333 58010=
0168483040999992024012518004+19873+099779FM-12+039799999V0202601N0021199999999010000199+01951+01621101891ADDAA199999999AZ101999AZ201999GA1031+008001061GA2999+999999031GA3999+999999021GE19AGL   +99999+99999GF106991031999008001999999MA1999999097171MD1710041+0061REMSYN004BUFR
0188483040999992024012521004+19867+099767FM-12+040199999V0202501N001012200019N010000199+01711+01451101891ADDGA1999+999999021GE19AGL   +99999+99999GF102991001999999999999999MA1999999097131MD1710051+0071REMSYN06448304 32960 22502 10171 20145 39713 40189 57005 80005 333 58007=EQDQ01    003SCCGA1
0220483040999992024012600004+19867+099767FM-12+040199999V0200901N001019999999N010000199+01701+01561101991ADDGA1051+008001061GA2999+999999031GA3999+999999021GE19AGL   +99999+99999GF107991051999008001999999KA1120N+01671MA1999999097231MD1110101+0021REMSYN07048304 32560 70902 10170 20156 39723 40199 51010 85576 333 20167 58002=
0201483040999992024012603004+19867+099767FM-12+040199999V0201501N001019999999N010000199+02061+01631102181ADDGA1051+008001061GA2999+999999031GA3999+999999021GE19AGL   +99999+99999GF107991051999008001999999MA1999999097471MD1210241+0071REMSYN06448304 32560 71502 10206 20163 39747 40218 52024 85576 333 58007=
0185483040999992024012606004+19867+099767FM-12+040199999V0203001N001019999999N010000199+02301+01641101911ADDGA1061+008001061GA2999+999999031GE19AGL   +99999+99999GF108991061999008001999999MA1999999097241MD1710221+0151REMSYN06448304 32560 83002 10230 20164 39724 40191 57022 8657/ 333 58015=
0185483040999992024012609004+19867+099767FM-12+040199999V0202601N001519999999N010000199+02281+01661101651ADDGA1061+008001061GA2999+999999031GE19AGL   +99999+99999GF108991061999008001999999MA1999999097001MD1710251+0211REMSYN06448304 32560 82603 10228 20166 39700 40165 57025 8657/ 333 58021=
0204483040999992024012612004+19867+099767FM-12+040199999V0201901N001019999999N010000199+02201+01851101791ADDGA1061+008001061GA2999+999999031GE19AGL   +99999+99999GF108991061999008001999999KA1240M+02401MA1999999097121MD1210121+0201REMSYN07048304 32560 81902 10220 20185 39712 40179 52012 8657/ 333 10240 58020=
0185483040999992024012615004+19867+099767FM-12+040199999V0202101N000519999999N010000199+02111+01771101901ADDGA1061+008001061GA2999+999999031GE19AGL   +99999+99999GF108991061999008001999999MA1999999097211MD1210091+0021REMSYN06448304 32560 82101 10211 20177 39721 40190 52009 8657/ 333 58002=
0185483040999992024012618004+19867+099767FM-12+040199999V0209999C000019999999N010000199+02061+01771101901ADDGA1061+008001061GA2999+999999031GE19AGL   +99999+99999GF108991061999008001999999MA1999999097201MD1710011+0001REMSYN06448304 32560 80000 10206 20177 39720 40190 57001 8657/ 333 58000=
0185483040999992024012621004+19867+099767FM-12+040199999V0209999C000019999999N010000199+02001+01811101821ADDGA1041+008001061GA2999+999999031GE19AGL   +99999+99999GF108991041999008001999999MA1999999097111MD1710091-0071REMSYN06448304 32560 80000 10200 20181 39711 40182 57009 8457/ 333 59007=
0248483040999992024012700004+19867+099767FM-12+040199999V0209999C000019999999N008000199+01931+01771101911ADDAY121021AY221021GA1051+008001071GA2999+999999031GA3999+999999021GE19AGL   +99999+99999GF106991051999008001999999KA1120N+01881MA1999999097181MD1210071-0081MW1101REMSYN07648304 31558 60000 10193 20177 39718 40191 52007 71022 85676 333 20188 59008=
0229483040999992024012703004+19867+099767FM-12+040199999V0201501N000512200019N008000199+02251+01771102011ADDAY111021AY211021GA1021+008001061GA2999+999999031GA3999+999999021GE19AGL   +99999+99999GF104991021999008001999999MA1999999097331MD1210141-0171MW1101REMSYN07048304 31558 41501 10225 20177 39733 40201 52014 71011 82535 333 59017=
0185483040999992024012706004+19867+099767FM-12+040199999V0202601N002119999999N015000199+02721+01701101581ADDGA1051+008001061GA2999+999999021GE19AGL   +99999+99999GF105991051999008001999999MA1999999097001MD1710331-0331REMSYN06448304 32565 52604 10272 20170 39700 40158 57033 85505 333 59033=
0201483040999992024012709004+19867+099767FM-12+040199999V0202001N003619999999N015000199+02851+01741101261ADDGA1041+008001061GA2999+999999031GA3999+999999021GE19AGL   +99999+99999GF105991041999008001999999MA1999999096711MD1710291-0391REMSYN06448304 32565 52007 10285 20174 39671 40126 57029 84535 333 59039=
0220483040999992024012712004+19867+099767FM-12+040199999V0209999C000019999999N012000199+02551+01841101411ADDGA1051+008001061GA2999+999999031GA3999+999999021GE19AGL   +99999+99999GF106991051999008001999999KA1240M+02871MA1999999096811MD1210101-0381REMSYN07048304 32562 60000 10255 20184 39681 40141 52010 85576 333 10287 59038=
0201483040999992024012715004+19867+099767FM-12+040199999V0209999C000019999999N010000199+02251+01851101651ADDGA1031+008001061GA2999+999999031GA3999+999999021GE19AGL   +99999+99999GF106991031999008001999999MA1999999096991MD1210191-0251REMSYN06448304 32560 60000 10225 20185 39699 40165 52019 83536 333 59025=
0201483040999992024012718004+19867+099767FM-12+040199999V0209999C000012200019N010000199+02001+01741101691ADDGA1021+008001061GA2999+999999031GA3999+999999021GE19AGL   +99999+99999GF103991021999008001999999MA1999999096991MD1410001-0211REMSYN06448304 32560 30000 10200 20174 39699 40169 54000 82535 333 59021=
0201483040999992024012721004+19867+099767FM-12+040199999V0209999C000019999999N010000199+01851+01681101661ADDGA1051+008001061GA2999+999999031GA3999+999999021GE19AGL   +99999+99999GF106991051999008001999999MA1999999096931MD1710051-0161REMSYN06448304 32560 60000 10185 20168 39693 40166 57005 85536 333 59016=
0248483040999992024012800004+19867+099767FM-12+040199999V0209999C000012200019N007000199+01701+01601101811ADDAY111021AY211021GA1021+008001061GA2999+999999031GA3999+999999021GE19AGL   +99999+99999GF103991021999008001999999KA1120N+01641MA1999999097061MD1210131-0091MW1101REMSYN07648304 31557 30000 10170 20160 39706 40181 52013 71011 82535 333 20164 59009=
0201483040999992024012803004+19867+099767FM-12+040199999V0203401N001019999999N010000199+02141+01871101921ADDGA1061+008001061GA2999+999999031GA3999+999999021GE19AGL   +99999+99999GF108991061999008001999999MA1999999097231MD1210171-0081REMSYN06448304 32560 83402 10214 20187 39723 40192 52017 86536 333 59008=
0201483040999992024012806004+19867+099767FM-12+040199999V0202001N002119999999N012000199+02751+01841101521ADDGA1041+008001061GA2999+999999031GA3999+999999021GE19AGL   +99999+99999GF105991041999008001999999MA1999999096941MD1710301-0071REMSYN06448304 32562 52004 10275 20184 39694 40152 57030 84535 333 59007=
0185483040999992024012809004+19867+099767FM-12+040199999V0201701N002619999999N015000199+02851+01801101141ADDGA1041+008001061GA2999+999999021GE19AGL   +99999+99999GF105991041999008001999999MA1999999096591MD1710351-0121REMSYN06448304 32565 51705 10285 20180 39659 40114 57035 84505 333 59012=
0220483040999992024012812004+19867+099767FM-12+040199999V0202001N002119999999N010000199+02611+01891101331ADDGA1041+008001061GA2999+999999031GA3999+999999021GE19AGL   +99999+99999GF106991041999008001999999KA1240M+02931MA1999999096741MD1210151-0081REMSYN07048304 32560 62004 10261 20189 39674 40133 52015 84576 333 10293 59008=
0201483040999992024012815004+19867+099767FM-12+040199999V0202001N002619999999N010000199+02271+01911101671ADDGA1011+008001081GA2999+999999031GA3999+999999021GE19AGL   +99999+99999GF105991011999008001999999MA1999999097011MD1210271+0011REMSYN06448304 32560 52005 10227 20191 39701 40167 52027 81146 333 58001=
0201483040999992024012818004+19867+099767FM-12+040199999V0202101N001019999999N010000199+02161+01891101671ADDGA1021+008001081GA2999+999999031GA3999+999999021GE19AGL   +99999+99999GF106991021999008001999999MA1999999096991MD1710021-0021REMSYN06448304 32560 62102 10216 20189 39699 40167 57002 82146 333 59002=
0201483040999992024012821004+19867+099767FM-12+040199999V0209999C000019999999N010000199+02081+01911101631ADDGA1021+008001081GA2999+999999031GA3999+999999021GE19AGL   +99999+99999GF106991021999008001999999MA1999999096941MD1710051-0031REMSYN06448304 32560 60000 10208 20191 39694 40163 57005 82146 333 59003=
0204483040999992024012900004+19867+099767FM-12+040199999V0209999C000019999999N010000199+02011+01881101731ADDGA1061+008001061GA2999+999999031GE19AGL   +99999+99999GF108991061999008001999999KA1120N+01911MA1999999097021MD1210091-0091REMSYN07048304 32560 80000 10201 20188 39702 40173 52009 8657/ 333 20191 59009=
0201483040999992024012903004+19867+099767FM-12+040199999V0202301N001519999999N012000199+02271+01911101811ADDGA1061+008001061GA2999+999999031GA3999+999999021GE19AGL   +99999+99999GF108991061999008001999999MA1999999097151MD1210131-0111REMSYN06448304 32562 82303 10227 20191 39715 40181 52013 86556 333 59011=
0185483040999992024012906004+19867+099767FM-12+040199999V0202501N001519999999N015000199+02801+01791101451ADDGA1041+008001081GA2999+999999021GE19AGL   +99999+99999GF106991041999008001999999MA1999999096881MD1710261-0061REMSYN06448304 32565 62503 10280 20179 39688 40145 57026 84206 333 59006=
0201483040999992024012909004+19867+099767FM-12+040199999V0201501N003112200019N015000199+02891+01681101081ADDGA1021+008001081GA2999+999999031GA3999+999999021GE19AGL   +99999+99999GF102991021999008001999999MA1999999096541MD1710341-0061REMSYN06448304 32565 21506 10289 20168 39654 40108 57034 82245 333 59006=
0204483040999992024012912004+19867+099767FM-12+040199999V0209999C000012200019N010000199+02611+02001101271ADDGA1021+008001081GA2999+999999021GE19AGL   +99999+99999GF103991021999008001999999KA1240M+02971MA1999999096681MD1210141-0061REMSYN07048304 32560 30000 10261 20200 39668 40127 52014 82105 333 10297 59006=
0169483040999992024012915004+19867+099767FM-12+040199999V0209999C000012200019N010000199+02251+01901101531ADDGA1021+008001061GE19AGL   +99999+99999GF102991021999008001999999MA1999999096881MD1210191-0131REMSYN06448304 32560 20000 10225 20190 39688 40153 52019 82500 333 59013=
0169483040999992024012918004+19867+099767FM-12+040199999V0202401N001012200019N010000199+02001+01761101541ADDGA1011+008001061GE19AGL   +99999+99999GF101991011999008001999999MA1999999096851MD1710031-0121REMSYN06448304 32560 12402 10200 20176 39685 40154 57003 81500 333 59012=
0099483040999992024012921004+19867+099767FM-12+040199999V0200601N000519999999N010000199+01911+01751101471ADDMA1999999096761MD1710091-0161REMSYN05848304 32960 00601 10191 20175 39676 40147 57009 333 59016=
0204483040999992024013000004+19867+099767FM-12+040199999V0209999C000019999999N010000199+01901+01821101631ADDGA1061+008001061GA2999+999999031GE19AGL   +99999+99999GF108991061999008001999999KA1120N+01801MA1999999096911MD1210151-0101REMSYN07048304 32560 80000 10190 20182 39691 40163 52015 8657/ 333 20180 59010=
0185483040999992024013003004+19867+099767FM-12+040199999V0201501N001019999999N012000199+02351+01881101721ADDGA1041+008001081GA2999+999999021GE19AGL   +99999+99999GF105991041999008001999999MA1999999097071MD1210161-0091REMSYN06448304 32562 51502 10235 20188 39707 40172 52016 84805 333 59009=
0169483040999992024013006004+19867+099767FM-12+040199999V0201601N003112200019N015000199+02851+01651101371ADDGA1031+008001081GE19AGL   +99999+99999GF103991031999008001999999MA1999999096821MD1710261-0081REMSYN06448304 32565 31606 10285 20165 39682 40137 57026 83200 333 59008=
0169483040999992024013009004+19867+099767FM-12+040199999V0201801N003612200019N015000199+02931+01441101051ADDGA1031+008001081GE19AGL   +99999+99999GF103991031999008001999999MA1999999096521MD1710301-0041REMSYN06448304 32565 31807 10293 20144 39652 40105 57030 83200 333 59004=
0188483040999992024013012004+19867+099767FM-12+040199999V0202101N001512200019N015000199+02601+01831101211ADDGA1031+008001061GE19AGL   +99999+99999GF103991031999008001999999KA1240M+03081MA1999999096631MD1210111-0061REMSYN07048304 32565 32103 10260 20183 39663 40121 52011 83500 333 10308 59006=
0169483040999992024013015004+19867+099767FM-12+040199999V0202001N001012200019N012000199+02291+01911101511ADDGA1011+008001061GE19AGL   +99999+99999GF101991011999008001999999MA1999999096861MD1210241-0021REMSYN06448304 32562 12002 10229 20191 39686 40151 52024 81500 333 59002=
0169483040999992024013018004+19867+099767FM-12+040199999V0202001N001012200019N010000199+02051+01721101551ADDGA1011+008001061GE19AGL   +99999+99999GF101991011999008001999999MA1999999096861MD1710011+0001REMSYN06448304 32560 12002 10205 20172 39686 40155 57001 81500 333 58000=
0169483040999992024013021004+19867+099767FM-12+040199999V0209999C000012200019N010000199+01901+01701101471ADDGA1021+008001061GE19AGL   +99999+99999GF102991021999008001999999MA1999999096761MD1710101+0001REMSYN06448304 32560 20000 10190 20170 39676 40147 57010 82500 333 58000=
0232483040999992024013100004+19867+099767FM-12+040199999V0209999C000012200019N004000199+01781+01701101651ADDAY101021AY201021GA1011+008001061GA2999+999999021GE19AGL   +99999+99999GF103991011999008001999999KA1120N+01751MA1999999096921MD1210151+0021MW1101REMSYN07648304 31540 30000 10178 20170 39692 40165 52015 71000 81505 333 20175 58002=
0213483040999992024013103004+19867+099767FM-12+040199999V0202301N001519999999N007000199+02171+01901101801ADDAY111021AY211021GA1051+008001061GA2999+999999021GE19AGL   +99999+99999GF105991051999008001999999MA1999999097121MD1210211+0081MW1101REMSYN07048304 31557 52303 10217 20190 39712 40180 52021 71011 85505 333 58008=
0169483040999992024013106004+19867+099767FM-12+040199999V0201701N002612200019N015000199+02751+01561101431ADDGA1031+008001081GE19AGL   +99999+99999GF103991031999008001999999MA1999999096851MD1710271+0051REMSYN06448304 32565 31705 10275 20156 39685 40143 57027 83200 333 58005=
0169483040999992024013109004+19867+099767FM-12+040199999V0202001N003612200019N015000199+03011+01071101081ADDGA1021+008001081GE19AGL   +99999+99999GF102991021999008001999999MA1999999096561MD1710291+0031REMSYN06448304 32565 22007 10301 20107 39656 40108 57029 82200 333 58003=
0098483040999992024013112004+19873+099779FM-12+039799999V0209999C0000122000199015000199+02501+01471101201ADDAA199999999AZ101999AZ201999GF100991999999999999999999MA1999999096601MD1210041-0011REMSYN004BUFR
0099483040999992024013115004+19867+099767FM-12+040199999V0209999C000019999999N012000199+01911+01571101491ADDMA1999999096781MD1210181-0021REMSYN05848304 32962 00000 10191 20157 39678 40149 52018 333 59002=
0099483040999992024013118004+19867+099767FM-12+040199999V0209999C000019999999N010000199+01661+01451101541ADDMA1999999096791MD1210011-0011REMSYN05848304 32960 00000 10166 20145 39679 40154 52001 333 59001=
0188483040999992024013121004+19867+099767FM-12+040199999V0209999C000012200019N010000199+01471+01361101561ADDGA1999+999999001GE19AGL   +99999+99999GF101991001999999999999999MA1999999096781MD1710011+0101REMSYN06448304 32960 10000 10147 20136 39678 40156 57001 80002 333 58010=EQDQ01    003SCCGA1
0220483040999992024020100004+19867+099767FM-12+040199999V0209999C000019999999N015000199+01411+01321101741ADDGA1021+008001061GA2999+999999031GA3999+999999021GE19AGL   +99999+99999GF106991021999008001999999KA1120N+01371MA1999999096951MD1210161+0091REMSYN07048304 32565 60000 10141 20132 39695 40174 52016 82547 333 20137 58009=
0201483040999992024020103004+19867+099767FM-12+040199999V0209999C000012200019N015000199+02071+01641101871ADDGA1011+008001081GA2999+999999031GA3999+999999021GE19AGL   +99999+99999GF102991011999008001999999MA1999999097171MD1210221+0061REMSYN06448304 32565 20000 10207 20164 39717 40187 52022 81145 333 58006=
0201483040999992024020106004+19867+099767FM-12+040199999V0202001N003112200019N015000199+02831+01391101421ADDGA1011+008001081GA2999+999999031GA3999+999999001GE19AGL   +99999+99999GF101991011999008001999999MA1999999096851MD1710311-0011REMSYN06448304 32565 12006 10283 20139 39685 40142 57031 81241 333 59001=
0201483040999992024020109004+19867+099767FM-12+040199999V0201401N002612200019N015000199+03031+01151101051ADDGA1011+008001081GA2999+999999031GA3999+999999001GE19AGL   +99999+99999GF101991011999008001999999MA1999999096541MD1710321-0031REMSYN06448304 32565 11405 10303 20115 39654 40105 57032 81141 333 59003=
0118483040999992024020112004+19867+099767FM-12+040199999V0202601N002119999999N012000199+02461+01551101221ADDKA1240M+03111MA1999999096611MD1210081+0021REMSYN06448304 32962 02604 10246 20155 39661 40122 52008 333 10311 58002=
0099483040999992024020115004+19867+099767FM-12+040199999V0209999C000019999999N012000199+01871+01491101511ADDMA1999999096791MD1210181+0021REMSYN05848304 32962 00000 10187 20149 39679 40151 52018 333 58002=
0099483040999992024020118004+19867+099767FM-12+040199999V0209999C000019999999N010000199+01601+01411101541ADDMA1999999096781MD1710011+0001REMSYN05848304 32960 00000 10160 20141 39678 40154 57001 333 58000=
0098483040999992024020121004+19873+099779FM-12+039799999V0209999C0000122000199010000199+01451+01341101491ADDAA199999999AZ101999AZ201999GF100991999999999999999999MA1999999096711MD1710071-0071REMSYN004BUFR
0207483040999992024020200004+19867+099767FM-12+040199999V0209999C000012200019N015000199+01251+01171101651ADDGA1999+999999021GE19AGL   +99999+99999GF102991001999999999999999KA1120N+01211MA1999999096831MD1210121-0091REMSYN07048304 32965 20000 10125 20117 39683 40165 52012 80005 333 20121 59009=EQDQ01    003SCCGA1
0099483040999992024020203004+19867+099767FM-12+040199999V0209999C000019999999N015000199+02121+01451101701ADDMA1999999097021MD1210191-0161REMSYN05848304 32965 00000 10212 20145 39702 40170 52019 333 59016=
0188483040999992024020206004+19867+099767FM-12+040199999V0201101N001012200019N015000199+02871+01201101281ADDGA1999+999999021GE19AGL   +99999+99999GF101991001999999999999999MA1999999096731MD1710291-0141REMSYN06448304 32965 11102 10287 20120 39673 40128 57029 80005 333 59014=EQDQ01    003SCCGA1
0099483040999992024020209004+19867+099767FM-12+040199999V0201501N001019999999N015000199+03101+00731100951ADDMA1999999096451MD1710281-0101REMSYN05848304 32965 01502 10310 20073 39645 40095 57028 333 59010=
0118483040999992024020212004+19867+099767FM-12+040199999V0209999C000019999999N012000199+02421+01251101101ADDKA1240M+03151MA1999999096491MD1210041-0121REMSYN06448304 32962 00000 10242 20125 39649 40110 52004 333 10315 59012=
0099483040999992024020215004+19867+099767FM-12+040199999V0201601N001019999999N012000199+01851+01411101411ADDMA1999999096701MD1210211-0101REMSYN05848304 32962 01602 10185 20141 39670 40141 52021 333 59010=
0099483040999992024020218004+19867+099767FM-12+040199999V0209999C000019999999N010000199+01551+01331101461ADDMA1999999096701MD1410001-0081REMSYN05848304 32960 00000 10155 20133 39670 40146 54000 333 59008=
0099483040999992024020221004+19867+099767FM-12+040199999V0209999C000019999999N010000199+01371+01241101471ADDMA1999999096681MD1710021-0021REMSYN05848304 32960 00000 10137 20124 39668 40147 57002 333 59002=
0207483040999992024020300004+19867+099767FM-12+040199999V0209999C000012200019N012000199+01201+01101101681ADDGA1999+999999021GE19AGL   +99999+99999GF102991001999999999999999KA1120N+01161MA1999999096851MD1210171+0031REMSYN07048304 32962 20000 10120 20110 39685 40168 52017 80005 333 20116 58003=EQDQ01    003SCCGA1
0099483040999992024020303004+19867+099767FM-12+040199999V0201801N001019999999N012000199+02041+01361101711ADDMA1999999097011MD1210161+0001REMSYN05848304 32962 01802 10204 20136 39701 40171 52016 333 58000=
0169483040999992024020306004+19867+099767FM-12+040199999V0201001N001512200019N012000199+02901+01251101251ADDGA1011+012501081GE19AGL   +99999+99999GF101991011999012501999999MA1999999096711MD1710301-0031REMSYN06448304 32662 11003 10290 20125 39671 40125 57030 81100 333 59003=
0099483040999992024020309004+19867+099767FM-12+040199999V0200201N002119999999N010000199+03171+00911100891ADDMA1999999096401MD1710311-0061REMSYN05848304 32960 00204 10317 20091 39640 40089 57031 333 59006=
0207483040999992024020312004+19867+099767FM-12+040199999V0209999C000012200019N010000199+02501+01401101091ADDGA1999+999999021GE19AGL   +99999+99999GF102991001999999999999999KA1240M+03241MA1999999096491MD1210091-0011REMSYN07048304 32960 20000 10250 20140 39649 40109 52009 80005 333 10324 59001=EQDQ01    003SCCGA1
0188483040999992024020315004+19867+099767FM-12+040199999V0209999C000012200019N010000199+01861+01481101401ADDGA1999+999999021GE19AGL   +99999+99999GF102991001999999999999999MA1999999096691MD1210201-0011REMSYN06448304 32960 20000 10186 20148 39669 40140 52020 80005 333 59001=EQDQ01    003SCCGA1
0188483040999992024020318004+19867+099767FM-12+040199999V0202801N002112200019N010000199+01761+01311101421ADDGA1999+999999021GE19AGL   +99999+99999GF102991001999999999999999MA1999999096691MD1210011-0041REMSYN06448304 32960 22804 10176 20131 39669 40142 52001 80005 333 59004=EQDQ01    003SCCGA1
0099483040999992024020321004+19867+099767FM-12+040199999V0209999C000019999999N010000199+01471+01291101461ADDMA1999999096681MD1710011-0021REMSYN05848304 32960 00000 10147 20129 39668 40146 57001 333 59002=
0118483040999992024020400004+19867+099767FM-12+040199999V0209999C000019999999N010000199+01311+01221101661ADDKA1120N+01261MA1999999096851MD1210171-0011REMSYN06448304 32960 00000 10131 20122 39685 40166 52017 333 20126 59001=
0099483040999992024020403004+19867+099767FM-12+040199999V0201401N001019999999N012000199+02151+01561101761ADDMA1999999097081MD1210231+0061REMSYN05848304 32962 01402 10215 20156 39708 40176 52023 333 58006=
0099483040999992024020406004+19867+099767FM-12+040199999V0201601N002119999999N010000199+02861+01231101341ADDMA1999999096781MD1710301+0091REMSYN05848304 32960 01604 10286 20123 39678 40134 57030 333 58009=
0099483040999992024020409004+19867+099767FM-12+040199999V0202001N001019999999N010000199+03151+01041101051ADDMA1999999096551MD1710231+0161REMSYN05848304 32960 02002 10315 20104 39655 40105 57023 333 58016=
0118483040999992024020412004+19867+099767FM-12+040199999V0200401N001519999999N010000199+02451+01481101221ADDKA1240M+03191MA1999999096611MD1210061+0131REMSYN06448304 32960 00403 10245 20148 39661 40122 52006 333 10319 58013=
0099483040999992024020415004+19867+099767FM-12+040199999V0209999C000019999999N010000199+01891+01511101491ADDMA1999999096781MD1210171+0091REMSYN05848304 32960 00000 10189 20151 39678 40149 52017 333 58009=
0099483040999992024020418004+19867+099767FM-12+040199999V0209999C000019999999N010000199+01561+01381101551ADDMA1999999096791MD1210011+0131REMSYN05848304 32960 00000 10156 20138 39679 40155 52001 333 58013=
0099483040999992024020421004+19867+099767FM-12+040199999V0209999C000019999999N010000199+01391+01261101471ADDMA1999999096681MD1710111+0011REMSYN05848304 32960 00000 10139 20126 39668 40147 57011 333 58001=
0118483040999992024020500004+19867+099767FM-12+040199999V0209999C000019999999N010000199+01281+01191101661ADDKA1120N+01251MA1999999096841MD1210161+0001REMSYN06448304 32960 00000 10128 20119 39684 40166 52016 333 20125 58000=
0099483040999992024020503004+19867+099767FM-12+040199999V0209999C000019999999N010000199+02111+01441101751ADDMA1999999097061MD1210221-0011REMSYN05848304 32960 00000 10211 20144 39706 40175 52022 333 59001=
0099483040999992024020506004+19867+099767FM-12+040199999V0209999C000019999999N010000199+02821+01381101341ADDMA1999999096781MD1710291+0001REMSYN05848304 32960 00000 10282 20138 39678 40134 57029 333 58000=
0099483040999992024020509004+19867+099767FM-12+040199999V0209999C000019999999N010000199+03171+01201100971ADDMA1999999096481MD1710301-0081REMSYN05848304 32960 00000 10317 20120 39648 40097 57030 333 59008=
0118483040999992024020512004+19867+099767FM-12+040199999V0209999C000019999999N010000199+02621+01591101141ADDKA1240M+03231MA1999999096561MD1210081-0081REMSYN06448304 32960 00000 10262 20159 39656 40114 52008 333 10323 59008=
0099483040999992024020515004+19867+099767FM-12+040199999V0209999C000019999999N010000199+01901+01581101471ADDMA1999999096761MD1210201-0021REMSYN05848304 32960 00000 10190 20158 39676 40147 52020 333 59002=
0099483040999992024020518004+19867+099767FM-12+040199999V0209999C000019999999N010000199+01531+01351101541ADDMA1999999096771MD1210011-0011REMSYN05848304 32960 00000 10153 20135 39677 40154 52001 333 59001=
0099483040999992024020521004+19867+099767FM-12+040199999V0209999C000019999999N010000199+01401+01251101501ADDMA1999999096711MD1710061+0031REMSYN05848304 32960 00000 10140 20125 39671 40150 57006 333 58003=
0118483040999992024020600004+19867+099767FM-12+040199999V0209999C000019999999N012000199+01351+01261101731ADDKA1120N+01291MA1999999096921MD1210201+0071REMSYN06448304 32962 00000 10135 20126 39692 40173 52020 333 20129 58007=
0099483040999992024020603004+19867+099767FM-12+040199999V0209999C000019999999N010000199+02201+01431101761ADDMA1999999097091MD1210171+0011REMSYN05848304 32960 00000 10220 20143 39709 40176 52017 333 58001=
0099483040999992024020606004+19867+099767FM-12+040199999V0209999C000019999999N010000199+02951+01361101311ADDMA1999999096771MD1710321-0031REMSYN05848304 32960 00000 10295 20136 39677 40131 57032 333 59003=
0099483040999992024020609004+19867+099767FM-12+040199999V0200901N001019999999N010000199+03141+01391100971ADDMA1999999096471MD1710301-0011REMSYN05848304 32960 00902 10314 20139 39647 40097 57030 333 59001=
0118483040999992024020612004+19867+099767FM-12+040199999V0201601N001019999999N010000199+02471+01621101141ADDKA1240M+03171MA1999999096541MD1210071+0001REMSYN06448304 32960 01602 10247 20162 39654 40114 52007 333 10317 58000=
0127483040999992024020615004+19867+099767FM-12+040199999V0209999C000019999999N007000199+02011+01661101431ADDAY101021AY201021MA1999999096741MD1210201-0041MW1101REMSYN06448304 31957 00000 10201 20166 39674 40143 52020 71000 333 59004=
0127483040999992024020618004+19867+099767FM-12+040199999V0203601N001019999999N006000199+01681+01541101491ADDAY101021AY201021MA1999999096751MD1210011-0051MW1101REMSYN06448304 31956 03602 10168 20154 39675 40149 52001 71000 333 59005=
0127483040999992024020621004+19867+099767FM-12+040199999V0209999C000019999999N007000199+01451+01361101441ADDAY101021AY201021MA1999999096671MD1710081-0061MW1101REMSYN06448304 31957 00000 10145 20136 39667 40144 57008 71000 333 59006=
0235483040999992024020700004+19867+099767FM-12+040199999V0209999C000012200019N007000199+01401+01311101591ADDAY101021AY201021GA1999+999999021GE19AGL   +99999+99999GF103991001999999999999999KA1120N+01361MA1999999096801MD1210141-0131MW1101REMSYN07648304 31957 30000 10140 20131 39680 40159 52014 71000 80006 333 20136 59013=EQDQ01    003SCCGA1
0127483040999992024020703004+19867+099767FM-12+040199999V0201801N001019999999N007000199+02241+01521101651ADDAY101021AY201021MA1999999096981MD1210181-0111MW1051REMSYN06448304 31957 01802 10224 20152 39698 40165 52018 70500 333 59011=
0127483040999992024020706004+19867+099767FM-12+040199999V0202401N001019999999N007000199+02971+01211101201ADDAY101021AY201021MA1999999096671MD1710311-0111MW1051REMSYN06448304 31957 02402 10297 20121 39667 40120 57031 70500 333 59011=
0127483040999992024020709004+19867+099767FM-12+040199999V0202201N001019999999N007000199+03301+01261100801ADDAY101021AY201021MA1999999096331MD1710341-0171MW1051REMSYN06448304 31957 02202 10330 20126 39633 40080 57034 70500 333 59017=
0118483040999992024020712004+19867+099767FM-12+040199999V0202701N001519999999N010000199+02501+01691101001ADDKA1240M+03321MA1999999096411MD1210081-0141REMSYN06448304 32960 02703 10250 20169 39641 40100 52008 333 10332 59014=
0099483040999992024020715004+19867+099767FM-12+040199999V0209999C000019999999N010000199+02051+01581101201ADDMA1999999096531MD1210121-0231REMSYN05848304 32960 00000 10205 20158 39653 40120 52012 333 59023=
0127483040999992024020718004+19867+099767FM-12+040199999V0209999C000019999999N008000199+01751+01511101231ADDAY101021AY201021MA1999999096511MD1710011-0261MW1101REMSYN06448304 31958 00000 10175 20151 39651 40123 57001 71000 333 59026=
0127483040999992024020721004+19867+099767FM-12+040199999V0209999C000019999999N008000199+01561+01441101141ADDAY101021AY201021MA1999999096401MD1710121-0301MW1101REMSYN06448304 31958 00000 10156 20144 39640 40114 57012 71000 333 59030=
0146483040999992024020800004+19867+099767FM-12+040199999V0209999C000019999999N006000199+01421+01311101361ADDAY101021AY201021KA1120N+01401MA1999999096581MD1210181-0241MW1101REMSYN07048304 31956 00000 10142 20131 39658 40136 52018 71000 333 20140 59024=
0127483040999992024020803004+19867+099767FM-12+040199999V0200801N001019999999N007000199+02251+01511101401ADDAY101021AY201021MA1999999096751MD1210171-0241MW1051REMSYN06448304 31957 00802 10225 20151 39675 40140 52017 70500 333 59024=
0127483040999992024020806004+19867+099767FM-12+040199999V0201301N001519999999N008000199+02951+01471101011ADDAY101021AY201021MA1999999096491MD1710271-0191MW1051REMSYN06448304 31958 01303 10295 20147 39649 40101 57027 70500 333 59019=
0127483040999992024020809004+19867+099767FM-12+040199999V0202101N002619999999N009000199+03301+01531100631ADDAY101021AY201021MA1999999096171MD1710311-0161MW1051REMSYN06448304 31959 02105 10330 20153 39617 40063 57031 70500 333 59016=
0235483040999992024020812004+19867+099767FM-12+040199999V0202601N001012200019N009000199+02741+01831100791ADDAY101021AY201021GA1999+999999021GE19AGL   +99999+99999GF102991001999999999999999KA1240M+03321MA1999999096241MD1210061-0221MW1051REMSYN07648304 31959 22602 10274 20183 39624 40079 52006 70500 80005 333 10332 59022=EQDQ01    003SCCGA1
0127483040999992024020815004+19867+099767FM-12+040199999V0202601N001019999999N008000199+02151+01761101091ADDAY101021AY201021MA1999999096441MD1210201-0111MW1101REMSYN06448304 31958 02602 10215 20176 39644 40109 52020 71000 333 59011=
0127483040999992024020818004+19867+099767FM-12+040199999V0209999C000019999999N008000199+01801+01611101231ADDAY101021AY201021MA1999999096521MD1210081-0011MW1101REMSYN06448304 31958 00000 10180 20161 39652 40123 52008 71000 333 59001=
0127483040999992024020821004+19867+099767FM-12+040199999V0209999C000019999999N006000199+01631+01511101201ADDAY101021AY201021MA1999999096461MD1710051+0061MW1101REMSYN06448304 31956 00000 10163 20151 39646 40120 57005 71000 333 58006=
0146483040999992024020900004+19867+099767FM-12+040199999V0209999C000019999999N006000199+01551+01461101391ADDAY101021AY201021KA1120N+01491MA1999999096631MD1210171+0031MW1101REMSYN07048304 31956 00000 10155 20146 39663 40139 52017 71000 333 20149 58003=
0127483040999992024020903004+19867+099767FM-12+040199999V0200701N001519999999N007000199+02351+01681101511ADDAY101021AY201021MA1999999096871MD1210251+0111MW1101REMSYN06448304 31957 00703 10235 20168 39687 40151 52025 71000 333 58011=
0185483040999992024020906004+19867+099767FM-12+040199999V0201701N001512200019N010000199+03001+01601101171ADDGA1011+012501081GA2999+999999021GE19AGL   +99999+99999GF103991011999012501999999MA1999999096641MD1710231+0161REMSYN06448304 32660 31703 10300 20160 39664 40117 57023 81105 333 58016=
0169483040999992024020909004+19867+099767FM-12+040199999V0201701N002612200019N010000199+03271+01451100831ADDGA1011+012501081GE19AGL   +99999+99999GF101991011999012501999999MA1999999096361MD1710281+0201REMSYN06448304 32660 11705 10327 20145 39636 40083 57028 81100 333 58020=
0207483040999992024020912004+19867+099767FM-12+040199999V0202701N000512200019N010000199+02751+01901101021ADDGA1999+999999021GE19AGL   +99999+99999GF102991001999999999999999KA1240M+03321MA1999999096461MD1210101+0231REMSYN07048304 32960 22701 10275 20190 39646 40102 52010 80005 333 10332 58023=EQDQ01    003SCCGA1
0099483040999992024020915004+19867+099767FM-12+040199999V0209999C000019999999N010000199+02161+01861101391ADDMA1999999096731MD1210271+0311REMSYN05848304 32960 00000 10216 20186 39673 40139 52027 333 58031=
0099483040999992024020918004+19867+099767FM-12+040199999V0209999C000019999999N010000199+01961+01801101461ADDMA1999999096771MD1210041+0241REMSYN05848304 32960 00000 10196 20180 39677 40146 52004 333 58024=
0099483040999992024020921004+19867+099767FM-12+040199999V0209999C000019999999N010000199+01821+01691101431ADDMA1999999096711MD1710051+0231REMSYN05848304 32960 00000 10182 20169 39671 40143 57005 333 58023=
0232483040999992024021000004+19867+099767FM-12+040199999V0209999C000019999999N007000199+01771+01691101671ADDAY111021AY211021GA1061+008001061GA2999+999999031GE19AGL   +99999+99999GF108991061999008001999999KA1120N+01711MA1999999096931MD1210211+0281MW1101REMSYN07648304 31557 80000 10177 20169 39693 40167 52021 71011 8657/ 333 20171 58028=
0213483040999992024021003004+19867+099767FM-12+040199999V0209999C000019999999N007000199+02251+01891101881ADDAY121021AY221021GA1061+008001061GA2999+999999031GE19AGL   +99999+99999GF108991061999008001999999MA1999999097201MD1210281+0361MW1101REMSYN07048304 31557 80000 10225 20189 39720 40188 52028 71022 8657/ 333 58036=
0229483040999992024021006004+19867+099767FM-12+040199999V0203301N001019999999N008000199+02761+01841101631ADDAY121021AY221021GA1021+008001081GA2999+999999031GA3999+999999021GE19AGL   +99999+99999GF106991021999008001999999MA1999999097041MD1710161+0461MW1051REMSYN07048304 31558 63302 10276 20184 39704 40163 57016 70522 82146 333 58046=
0216483040999992024021009004+19867+099767FM-12+040199999V0200401N006212200019N008000199+02901+01861101371ADDAY111021AY211021GA1999+999999021GE19AGL   +99999+99999GF103991001999999999999999MA1999999096821MD1710231+0541MW1051REMSYN07048304 31958 30412 10290 20186 39682 40137 57023 70511 80006 333 58054=EQDQ01    003SCCGA1
0248483040999992024021012004+19867+099767FM-12+040199999V0200401N005119999999N008000199+02401+01671101671ADDAY111021AY211021GA1051+008001061GA2999+999999031GA3999+999999021GE19AGL   +99999+99999GF107991051999008001999999KA1240M+02921MA1999999097031MD1210211+0651MW1051REMSYN07648304 31558 70410 10240 20167 39703 40167 52021 70511 85576 333 10292 58065=
0229483040999992024021015004+19867+099767FM-12+040199999V0200501N003619999999N007000199+02161+01501102051ADDAY121021AY221021GA1051+008001061GA2999+999999031GA3999+999999021GE19AGL   +99999+99999GF107991051999008001999999MA1999999097351MD1210331+0651MW1101REMSYN07048304 31557 70507 10216 20150 39735 40205 52033 71022 85576 333 58065=
0229483040999992024021018004+19867+099767FM-12+040199999V0200501N005119999999N006000199+02051+01391102131ADDAY121021AY221021GA1051+008001061GA2999+999999031GA3999+999999021GE19AGL   +99999+99999GF107991051999008001999999MA1999999097411MD1210061+0661MW1101REMSYN07048304 31556 70510 10205 20139 39741 40213 52006 71022 85576 333 58066=
0213483040999992024021021004+19867+099767FM-12+040199999V0200601N004119999999N006000199+01961+01351102021ADDAY121021AY221021GA1061+008001061GA2999+999999031GE19AGL   +99999+99999GF108991061999008001999999MA1999999097301MD1710111+0591MW1101REMSYN07048304 31556 80608 10196 20135 39730 40202 57011 71022 8657/ 333 58059=
0232483040999992024021100004+19867+099767FM-12+040199999V0200601N002119999999N008000199+01941+01361102221ADDAY121021AY221021GA1061+008001061GA2999+999999031GE19AGL   +99999+99999GF108991061999008001999999KA1120N+01921MA1999999097481MD1210181+0551MW1101REMSYN07648304 31558 80604 10194 20136 39748 40222 52018 71022 8657/ 333 20192 58055=
0213483040999992024021103004+19867+099767FM-12+040199999V0200601N003119999999N009000199+02051+01451102431ADDAY121021AY221021GA1061+008001061GA2999+999999031GE19AGL   +99999+99999GF108991061999008001999999MA1999999097701MD1210221+0551MW1101REMSYN07048304 31559 80606 10205 20145 39770 40243 52022 71022 8657/ 333 58055=
0213483040999992024021106004+19867+099767FM-12+040199999V0203601N003119999999N008000199+02281+01311102241ADDAY121021AY221021GA1061+008001061GA2999+999999031GE19AGL   +99999+99999GF108991061999008001999999MA1999999097551MD1710151+0611MW1051REMSYN07048304 31558 83606 10228 20131 39755 40224 57015 70522 8657/ 333 58061=
0216483040999992024021109004+19867+099767FM-12+040199999V0200601N002612200019N009000199+02481+01441101841ADDAY111021AY211021GA1999+999999021GE19AGL   +99999+99999GF102991001999999999999999MA1999999097201MD1710351+0471MW1051REMSYN07048304 31959 20605 10248 20144 39720 40184 57035 70511 80005 333 58047=EQDQ01    003SCCGA1
0248483040999992024021112004+19867+099767FM-12+040199999V0209999C000012200019N007000199+02211+01631101921ADDAY111021AY211021GA1021+008001061GA2999+999999031GA3999+999999021GE19AGL   +99999+99999GF102991021999008001999999KA1240M+02521MA1999999097241MD1210041+0261MW1101REMSYN07648304 31557 20000 10221 20163 39724 40192 52004 71011 82545 333 10252 58026=
0127483040999992024021115004+19867+099767FM-12+040199999V0209999C000019999999N006000199+02001+01691102141ADDAY101021AY201021MA1999999097411MD1210171+0091MW1101REMSYN06448304 31956 00000 10200 20169 39741 40214 52017 71000 333 58009=
0197483040999992024021118004+19867+099767FM-12+040199999V0209999C000012200019N006000199+01701+01531102081ADDAY101021AY201021GA1021+008001061GE19AGL   +99999+99999GF102991021999008001999999MA1999999097311MD1710101-0051MW1101REMSYN07048304 31556 20000 10170 20153 39731 40208 57010 71000 82500 333 59005=
0197483040999992024021121004+19867+099767FM-12+040199999V0209999C000012200019N006000199+01701+01561101971ADDAY101021AY201021GA1021+008001061GE19AGL   +99999+99999GF102991021999008001999999MA1999999097201MD1710111-0061MW1101REMSYN07048304 31556 20000 10170 20156 39720 40197 57011 71000 82500 333 59006=
0232483040999992024021200004+19867+099767FM-12+040199999V0209999C000019999999N007000199+01721+01621102051ADDAY111021AY211021GA1031+008001061GA2999+999999021GE19AGL   +99999+99999GF105991031999008001999999KA1120N+01661MA1999999097291MD1210081-0161MW1101REMSYN07648304 31557 50000 10172 20162 39729 40205 52008 71011 83506 333 20166 59016=
0229483040999992024021203004+19867+099767FM-12+040199999V0201001N001512200019N007000199+02261+01601102171ADDAY111021AY211021GA1011+008001061GA2999+999999031GA3999+999999021GE19AGL   +99999+99999GF103991011999008001999999MA1999999097491MD1210201-0251MW1101REMSYN07048304 31557 31003 10226 20160 39749 40217 52020 71011 81576 333 59025=
0197483040999992024021206004+19867+099767FM-12+040199999V0201501N002112200019N007000199+02741+01621101811ADDAY111021AY211021GA1021+008001061GE19AGL   +99999+99999GF102991021999008001999999MA1999999097221MD1710281-0431MW1051REMSYN07048304 31557 21504 10274 20162 39722 40181 57028 70511 82500 333 59043=
0185483040999992024021209004+19867+099767FM-12+040199999V0201801N002112200019N010000199+03011+01641101441ADDGA1011+008001061GA2999+999999021GE19AGL   +99999+99999GF103991011999008001999999MA1999999096901MD1710321-0401REMSYN06448304 32560 31804 10301 20164 39690 40144 57032 81506 333 59040=
0118483040999992024021212004+19867+099767FM-12+040199999V0209999C000019999999N010000199+02621+01821101511ADDKA1240M+03041MA1999999096911MD1210011-0421REMSYN06448304 32960 00000 10262 20182 39691 40151 52001 333 10304 59042=
0099483040999992024021215004+19867+099767FM-12+040199999V0209999C000019999999N010000199+02101+01791101781ADDMA1999999097091MD1210181-0351REMSYN05848304 32960 00000 10210 20179 39709 40178 52018 333 59035=
0099483040999992024021218004+19867+099767FM-12+040199999V0209999C000019999999N010000199+01851+01681101801ADDMA1999999097071MD1710021-0281REMSYN05848304 32960 00000 10185 20168 39707 40180 57002 333 59028=
0169483040999992024021221004+19867+099767FM-12+040199999V0209999C000012200019N010000199+01701+01581101681ADDGA1031+008001061GE19AGL   +99999+99999GF103991031999008001999999MA1999999096931MD1710141-0291REMSYN06448304 32560 30000 10170 20158 39693 40168 57014 83500 333 59029=
0235483040999992024021300004+19867+099767FM-12+040199999V0209999C000019999999N007000199+01681+01581101851ADDAY111021AY211021GA1999+999999021GE19AGL   +99999+99999GF105991001999999999999999KA1120N+01631MA1999999097091MD1210161-0201MW1101REMSYN07648304 31957 50000 10168 20158 39709 40185 52016 71011 80006 333 20163 59020=EQDQ01    003SCCGA1
0127483040999992024021303004+19867+099767FM-12+040199999V0200901N001519999999N006000199+02331+01771101941ADDAY111021AY211021MA1999999097281MD1210191-0231MW1101REMSYN06448304 31956 00903 10233 20177 39728 40194 52019 71011 333 59023=
0213483040999992024021306004+19867+099767FM-12+040199999V0200201N001012200019N007000199+02951+01771101471ADDAY111021AY211021GA1011+008001081GA2999+999999021GE19AGL   +99999+99999GF102991011999008001999999MA1999999096921MD1710361-0341MW1051REMSYN07048304 31557 20202 10295 20177 39692 40147 57036 70511 81205 333 59034=
0185483040999992024021309004+19867+099767FM-12+040199999V0201301N001512200019N010000199+03201+01501101101ADDGA1011+008001061GA2999+999999021GE19AGL   +99999+99999GF101991011999008001999999MA1999999096601MD1710321-0341REMSYN06448304 32560 11303 10320 20150 39660 40110 57032 81505 333 59034=
0118483040999992024021312004+19867+099767FM-12+040199999V0209999C000019999999N010000199+02691+01841101241ADDKA1240M+03241MA1999999096671MD1210061-0261REMSYN06448304 32960 00000 10269 20184 39667 40124 52006 333 10324 59026=
0099483040999992024021315004+19867+099767FM-12+040199999V0209999C000019999999N010000199+02121+01801101531ADDMA1999999096851MD1210181-0261REMSYN05848304 32960 00000 10212 20180 39685 40153 52018 333 59026=
0099483040999992024021318004+19867+099767FM-12+040199999V0209999C000019999999N010000199+01871+01691101581ADDMA1999999096861MD1210011-0221REMSYN05848304 32960 00000 10187 20169 39686 40158 52001 333 59022=
0099483040999992024021321004+19867+099767FM-12+040199999V0209999C000019999999N010000199+01671+01571101541ADDMA1999999096791MD1710071-0141REMSYN05848304 32960 00000 10167 20157 39679 40154 57007 333 59014=
0118483040999992024021400004+19867+099767FM-12+040199999V0209999C000019999999N010000199+01571+01481101701ADDKA1120N+01551MA1999999096931MD1210141-0151REMSYN06448304 32960 00000 10157 20148 39693 40170 52014 333 20155 59015=
0188483040999992024021403004+19867+099767FM-12+040199999V0202001N001012200019N010000199+02391+01691101721ADDGA1999+999999021GE19AGL   +99999+99999GF102991001999999999999999MA1999999097081MD1210141-0221REMSYN06448304 32960 22002 10239 20169 39708 40172 52014 80005 333 59022=EQDQ01    003SCCGA1
0099483040999992024021406004+19867+099767FM-12+040199999V0201901N002119999999N010000199+03061+01361101321ADDMA1999999096791MD1710291-0161REMSYN05848304 32960 01904 10306 20136 39679 40132 57029 333 59016=
0099483040999992024021409004+19867+099767FM-12+040199999V0201201N001019999999N010000199+03311+01351100971ADDMA1999999096491MD1710301-0131REMSYN05848304 32960 01202 10331 20135 39649 40097 57030 333 59013=
0118483040999992024021412004+19867+099767FM-12+040199999V0209999C000019999999N010000199+02671+01501101171ADDKA1240M+03331MA1999999096591MD1210101-0071REMSYN06448304 32960 00000 10267 20150 39659 40117 52010 333 10333 59007=
0099483040999992024021415004+19867+099767FM-12+040199999V0209999C000019999999N010000199+02071+01571101451ADDMA1999999096771MD1210181-0071REMSYN05848304 32960 00000 10207 20157 39677 40145 52018 333 59007=
0099483040999992024021418004+19867+099767FM-12+040199999V0209999C000019999999N010000199+01761+01501101501ADDMA1999999096771MD1410001-0081REMSYN05848304 32960 00000 10176 20150 39677 40150 54000 333 59008=
0099483040999992024021421004+19867+099767FM-12+040199999V0209999C000019999999N010000199+01591+01451101501ADDMA1999999096741MD1710031-0041REMSYN05848304 32960 00000 10159 20145 39674 40150 57003 333 59004=
0207483040999992024021500004+19867+099767FM-12+040199999V0209999C000019999999N012000199+01461+01331101721ADDGA1999+999999021GE19AGL   +99999+99999GF105991001999999999999999KA1120N+01411MA1999999096931MD1210191+0021REMSYN07048304 32962 50000 10146 20133 39693 40172 52019 80006 333 20141 58002=EQDQ01    003SCCGA1
0099483040999992024021503004+19867+099767FM-12+040199999V0201101N001019999999N012000199+02261+01321101781ADDMA1999999097121MD1210181+0061REMSYN05848304 32962 01102 10226 20132 39712 40178 52018 333 58006=
0185483040999992024021506004+19867+099767FM-12+040199999V0201001N001019999999N012000199+02961+01261101421ADDGA1011+008001081GA2999+999999021GE19AGL   +99999+99999GF105991011999008001999999MA1999999096871MD1710241+0101REMSYN06448304 32562 51002 10296 20126 39687 40142 57024 81106 333 58010=
0188483040999992024021509004+19867+099767FM-12+040199999V0200801N001012200019N012000199+03271+01111101081ADDGA1999+999999021GE19AGL   +99999+99999GF102991001999999999999999MA1999999096601MD1710271+0121REMSYN06448304 32962 20802 10327 20111 39660 40108 57027 80005 333 58012=EQDQ01    003SCCGA1
0204483040999992024021512004+19867+099767FM-12+040199999V0209999C000012200019N010000199+02221+01871101331ADDGA1011+008001061GA2999+999999021GE19AGL   +99999+99999GF102991011999008001999999KA1240M+03311MA1999999096681MD1210081+0161REMSYN07048304 32560 20000 10222 20187 39668 40133 52008 81505 333 10331 58016=
0099483040999992024021515004+19867+099767FM-12+040199999V0209999C000019999999N010000199+02051+01631101531ADDMA1999999096841MD1210161+0081REMSYN05848304 32960 00000 10205 20163 39684 40153 52016 333 58008=
0099483040999992024021521004+19867+099767FM-12+040199999V0209999C000019999999N010000199+01651+01511101501ADDMA1999999096751MD1710071+0001REMSYN05848304 32960 00000 10165 20151 39675 40150 57007 333 58000=
0204483040999992024021600004+19867+099767FM-12+040199999V0209999C000019999999N010000199+01521+01411101671ADDGA1011+012501061GA2999+999999021GE19AGL   +99999+99999GF105991011999012501999999KA1120N+01491MA1999999096891MD1210141-0061REMSYN07048304 32660 50000 10152 20141 39689 40167 52014 81506 333 20149 59006=
0099483040999992024021603004+19867+099767FM-12+040199999V0201001N001019999999N010000199+02271+01481101711ADDMA1999999097051MD1210161-0071REMSYN05848304 32960 01002 10227 20148 39705 40171 52016 333 59007=
