0254527870999992024010100004+37200+102867FM-12+304499999V0200901N006019999999N030000199-00561-02211103181ADDAA106000091AA212000091AA324000091AY101021AY201021KA1120M-00291KA2120N-01351MA1999999070481MD1210081+9999MW1001OD139901401999REMSYN11852787 04980 /0906 11056 21221 37048 40318 52008 60002 70000 333 11029 21135 3/115 54408 58031 60001 70000 90720 91114=
0254527870999992024010103004+37200+102867FM-12+304499999V0200201N003019999999N029000199-00521-02221103041ADDAA106000091AA212000091AA324000091AY101021AY201021KA1240M-00291KA2240N-01171MA1999999070561MD1210081+9999MW1001OD139901401999REMSYN11852787 04979 /0203 11052 21222 37056 40304 52008 60002 70000 333 11029 21117 3/115 54405 58033 60001 70000 90720 91114=
0254527870999992024010106004+37200+102867FM-12+304499999V0202001N007019999999N026000199-00211-02271102841ADDAA106000091AA212000091AA324000091AY101021AY201021KA1240M-00131KA2240N-01171MA1999999070351MD1710211+9999MW1001OD139901101999REMSYN11852787 04976 /2007 11021 21227 37035 40284 57021 60002 70000 333 11013 21117 3/115 54405 58022 60001 70000 90720 91111=
0248527870999992024010109004+37200+102867FM-12+304499999V0200201N007019999999N028000199-00451-01991102521ADDAA106000091AA212000091AA324000091AY101021AY201021KA1240M-00061KA2240N-01171MA1999999070311MD1710041+0101MW1001OD139901101999REMSYN11252787 04978 /0207 11045 21199 37031 40252 57004 60002 70000 333 11006 21117 3/112 58010 60001 70000 90720 91111=
0248527870999992024010112004+37200+102867FM-12+304499999V0203601N004019999999N030000199-00951-02031103081ADDAA106000091AA212000091AA324000091AY101021AY201021KA1240M-00061KA2240N-01131MA1999999070411MD1210101+0071MW1001OD139901101999REMSYN11252787 04980 /3604 11095 21203 37041 40308 52010 60002 70000 333 11006 21113 3/114 58007 60001 70000 90720 91111=
0248527870999992024010118004+37200+102867FM-12+304499999V0203601N002019999999N030000199-01101-01961103031ADDAA106000091AA212000091AA324000091AY101021AY201021KA1120M-00061KA2120N-01221MA1999999070481MD1210081+0091MW1001OD139900901999REMSYN11252787 04980 /3602 11110 21196 37048 40303 52008 60002 70000 333 11006 21122 3/118 58009 60001 70000 90720 91109=
0238527870999992024010121004+37200+102867FM-12+304499999V0200501N008019999999N030000199-01061-02031103191ADDAA106000091AA212000091AA324000091KA1240M-00061KA2240N-01331MA1999999070491MD1210011+9999MW1001OD139901301999REMSYN11852787 04980 /0508 11106 21203 37049 40319 52001 60002 700// 333 11006 21133 3/118 54416 58009 60001 70000 90720 91113=
0254527870999992024010200004+37200+102867FM-12+304499999V0200801N008019999999N030000199-00921-01981103531ADDAA106000091AA212000091AA324000091AY101021AY201021KA1120M-00061KA2120N-01541MA1999999070541MD1210051+9999MW1001OD139901301999REMSYN11852787 04980 /0808 11092 21198 37054 40353 52005 60002 70000 333 11006 21154 3/118 54415 58006 60001 70000 90720 91113=
0254527870999992024010203004+37200+102867FM-12+304499999V0200101N001019999999N030000199-00731-01921103641ADDAA106000091AA212000091AA324000091AY101021AY201021KA1240M-00061KA2240N-01541MA1999999070651MD1210111+9999MW1001OD139901301999REMSYN11852787 04980 /0101 11073 21192 37065 40364 52011 60002 70000 333 11006 21154 3/118 54415 58009 60001 70000 90720 91113=
0254527870999992024010206004+37200+102867FM-12+304499999V0200101N005019999999N027000199-00261-02141103081ADDAA106000091AA212000091AA324000091AY101021AY201021KA1240M-00061KA2240N-01541MA1999999070491MD1710161+9999MW1001OD139901301999REMSYN11852787 04977 /0105 11026 21214 37049 40308 57016 60002 70000 333 11006 21154 3/118 54415 58014 60001 70000 90720 91113=
0254527870999992024010209004+37200+102867FM-12+304499999V0203601N005019999999N029000199-00541-02881103261ADDAA106000091AA212000091AA324000091AY101021AY201021KA1240M-00181KA2240N-01541MA1999999070491MD1410001+9999MW1001OD139901101999REMSYN11852787 04979 /3605 11054 21288 37049 40326 54000 60002 70000 333 11018 21154 3/117 54415 58018 60001 70000 90720 91111=
0254527870999992024010212004+37200+102867FM-12+304499999V0202201N004019999999N030000199-01001-02401103621ADDAA106000091AA212000091AA324000091AY101021AY201021KA1240M-00181KA2240N-01541MA1999999070581MD1210091+9999MW1001OD139901101999REMSYN11852787 04980 /2204 11100 21240 37058 40362 52009 60002 70000 333 11018 21154 3/115 54415 58017 60001 70000 90720 91111=
0248527870999992024010218004+37200+102867FM-12+304499999V0202101N003019999999N030000199-01131-02201103021ADDAA106000091AA212000091AA324000091AY101021AY201021KA1120M-00181KA2120N-01541MA1999999070431MD1710111-0051MW1001OD139901101999REMSYN11252787 04980 /2103 11113 21220 37043 40302 57011 60002 70000 333 11018 21154 3/118 59005 60001 70000 90720 91111=
0238527870999992024010221004+37200+102867FM-12+304499999V0201901N002019999999N029000199-00741-02711102721ADDAA106000091AA212000091AA324000091KA1240M-00181KA2240N-01541MA1999999070281MD1710151+9999MW1001OD139900601999REMSYN11852787 04979 /1902 11074 21271 37028 40272 57015 60002 700// 333 11018 21154 3/120 54405 59021 60001 70000 90720 91106=
0185527870999992024010300004+37200+102870FM-12+304499999V0200641N0045199999999030000199-00651+99999102931ADDAA124000091AA299999999AJ199999999999999AY101999AY201999IA2999-02019KA1120M-00181KA2120N-01181MA1999999070241MD1710041-0301MW1001OC100691OD139900691070REMSYN004BUFREQDQ01 -04013ATOD  
0254527870999992024010303004+37200+102867FM-12+304499999V0200301N003019999999N029000199-00321-02861102751ADDAA106000091AA212000091AA324000091AY101021AY201021KA1240M-00181KA2240N-01181MA1999999070231MD1710011+9999MW1001OD139900701999REMSYN11852787 04979 /0303 11032 21286 37023 40275 57001 60002 70000 333 11018 21118 3/120 54405 59042 60001 70000 90720 91107=
0254527870999992024010306004+37200+102867FM-12+304499999V0200501N004019999999N026000199+00111-02831102141ADDAA106000091AA212000091AA324000091AY101021AY201021KA1240M+00201KA2240N-01181MA1999999070011MD1710221+9999MW1001OD139900701999REMSYN11852787 04976 /0504 10011 21283 37001 40214 57022 60002 70000 333 10020 21118 3/120 54405 59048 60001 70000 90720 91107=
0254527870999992024010309004+37200+102867FM-12+304499999V0200501N007019999999N027000199-00091-02991102071ADDAA106000091AA212000091AA324000091AY101021AY201021KA1240M+00201KA2240N-01181MA1999999070051MD1210041+9999MW1001OD139901001999REMSYN11852787 04977 /0507 11009 21299 37005 40207 52004 60002 70000 333 10020 21118 3/120 54405 59044 60001 70000 90720 91110=
0254527870999992024010318004+37200+102867FM-12+304499999V0203501N005019999999N030000199-01051-02641102161ADDAA106000091AA212000091AA324000091AY101021AY201021KA1120M+00201KA2120N-01131MA1999999070061MD1710051+9999MW1001OD139901001999REMSYN11852787 04980 /3505 11105 21264 37006 40216 57005 60002 70000 333 10020 21113 3/119 54405 59037 60001 70000 90720 91110=
0238527870999992024010321004+37200+102867FM-12+304499999V0203501N006019999999N030000199-01441-02561102461ADDAA106000091AA212000091AA324000091KA1240M+00201KA2240N-01441MA1999999069981MD1710081+9999MW1001OD139901001999REMSYN11852787 04980 /3506 11144 21256 36998 40246 57008 60002 700// 333 10020 21144 3/119 54417 59030 60001 70000 90720 91110=
0254527870999992024010400004+37200+102867FM-12+304499999V0203501N002019999999N030000199-01251-02481102731ADDAA106000091AA212000091AA324000091AY101021AY201021KA1120M+00201KA2120N-01451MA1999999070021MD1210041+9999MW1001OD139900701999REMSYN11852787 04980 /3502 11125 21248 37002 40273 52004 60002 70000 333 10020 21145 3/120 54416 59022 60001 70000 90720 91107=
0254527870999992024010403004+37200+102867FM-12+304499999V0202201N005019999999N030000199-00541-02601102511ADDAA106000091AA212000091AA324000091AY101021AY201021KA1240M+00201KA2240N-01451MA1999999070081MD1210061+9999MW1001OD139900701999REMSYN11852787 04980 /2205 11054 21260 37008 40251 52006 60002 70000 333 10020 21145 3/120 54415 59015 60001 70000 90720 91107=
0254527870999992024010406004+37200+102867FM-12+304499999V0202101N007019999999N029000199-00321-02481102241ADDAA106000091AA212000091AA324000091AY101021AY201021KA1240M+00161KA2240N-01451MA1999999069911MD1710171+9999MW1001OD139901001999REMSYN11852787 04979 /2107 11032 21248 36991 40224 57017 60002 70000 333 10016 21145 3/120 54415 59010 60001 70000 90720 91110=
0254527870999992024010409004+37200+102867FM-12+304499999V0203501N004019999999N028000199-00561-01901102841ADDAA106000091AA212000091AA324000091AY101021AY201021KA1240M-00091KA2240N-01451MA1999999070011MD1210101+9999MW1001OD139901001999REMSYN11852787 04978 /3504 11056 21190 37001 40284 52010 60002 70000 333 11009 21145 3/120 54415 59004 60001 70000 90720 91110=
0254527870999992024010412004+37200+102867FM-12+304499999V0200501N007019999999N030000199-00741-02201103031ADDAA106000091AA212000091AA324000091AY101021AY201021KA1240M-00141KA2240N-01451MA1999999070141MD1210131+9999MW1001OD139901001999REMSYN11852787 04980 /0507 11074 21220 37014 40303 52013 60002 70000 333 11014 21145 3/120 54415 59001 60001 70000 90720 91110=
0248527870999992024010418004+37200+102867FM-12+304499999V0200201N005019999999N030000199-01081-02331102701ADDAA106000091AA212000091AA324000091AY101021AY201021KA1120M-00141KA2120N-01451MA1999999070211MD1410001+0151MW1001OD139901101999REMSYN11252787 04980 /0205 11108 21233 37021 40270 54000 60002 70000 333 11014 21145 3/117 58015 60001 70000 90720 91111=
0238527870999992024010421004+37200+102867FM-12+304499999V0200101N004019999999N030000199-01171-02481102961ADDAA106000091AA212000091AA324000091KA1240M-00141KA2240N-01451MA1999999070221MD1210011+9999MW1001OD139901101999REMSYN11852787 04980 /0104 11117 21248 37022 40296 52001 60002 700// 333 11014 21145 3/118 54405 58024 60001 70000 90720 91111=
0254527870999992024010500004+37200+102867FM-12+304499999V0202901N001019999999N030000199-00921-02521102991ADDAA106000091AA212000091AA324000091AY101021AY201021KA1120M-00141KA2120N-01251MA1999999070281MD1210061+9999MW1001OD139901101999REMSYN11852787 04980 /2901 11092 21252 37028 40299 52006 60002 70000 333 11014 21125 3/120 54405 58026 60001 70000 90720 91111=
0254527870999992024010503004+37200+102867FM-12+304499999V0202901N002019999999N030000199-00621-02351103131ADDAA106000091AA212000091AA324000091AY101021AY201021KA1240M-00141KA2240N-01251MA1999999070371MD1210091+9999MW1001OD139901001999REMSYN11852787 04980 /2902 11062 21235 37037 40313 52009 60002 70000 333 11014 21125 3/120 54415 58029 60001 70000 90720 91110=
0254527870999992024010506004+37200+102867FM-12+304499999V0202101N007019999999N029000199-00251-02431102621ADDAA106000091AA212000091AA324000091AY101021AY201021KA1240M-00141KA2240N-01251MA1999999070191MD1710181+9999MW1001OD139900901999REMSYN11852787 04979 /2107 11025 21243 37019 40262 57018 60002 70000 333 11014 21125 3/120 54405 58028 60001 70000 90720 91109=
0254527870999992024010509004+37200+102867FM-12+304499999V0200701N005019999999N027000199-00461-02311102941ADDAA106000091AA212000091AA324000091AY101021AY201021KA1240M-00121KA2240N-01251MA1999999070261MD1210071+9999MW1001OD139900901999REMSYN11852787 04977 /0705 11046 21231 37026 40294 52007 60002 70000 333 11012 21125 3/120 54405 58025 60001 70000 90720 91109=
0254527870999992024010512004+37200+102867FM-12+304499999V0203401N002019999999N030000199-00981-02341103361ADDAA106000091AA212000091AA324000091AY101021AY201021KA1240M-00121KA2240N-01251MA1999999070411MD1210151+9999MW1001OD139900901999REMSYN11852787 04980 /3402 11098 21234 37041 40336 52015 60002 70000 333 11012 21125 3/120 54415 58027 60001 70000 90720 91109=
0254527870999992024010518004+37200+102867FM-12+304499999V0202101N002019999999N030000199-01151-02331102981ADDAA106000091AA212000091AA324000091AY101021AY201021KA1120M-00121KA2120N-01251MA1999999070401MD1710041+9999MW1001OD139900901999REMSYN11852787 04980 /2102 11115 21233 37040 40298 57004 60002 70000 333 11012 21125 3/120 54415 58019 60001 70000 90720 91109=
0238527870999992024010521004+37200+102867FM-12+304499999V0201801N002019999999N030000199-01061-02351102971ADDAA106000091AA212000091AA324000091KA1240M-00121KA2240N-01241MA1999999070331MD1710071+9999MW1001OD139900801999REMSYN11852787 04980 /1802 11106 21235 37033 40297 57007 60002 700// 333 11012 21124 3/120 54405 58011 60001 70000 90720 91108=
0158527870999992024010600004+37200+102870FM-12+304499999V0201921N0022199999999030000199-01021-02321103281ADDAA124000091AA299999999AJ199999999999999AY101999AY201999IA2999-02149KA1120M-00121KA2120N-01191MA1999999070301MD1710031+0021MW1001OD139900451210REMSYN004BUFR
0254527870999992024010603004+37200+102867FM-12+304499999V0202101N004019999999N029000199-00511-02211103021ADDAA106000091AA212000091AA324000091AY101021AY201021KA1240M-00121KA2240N-01191MA1999999070351MD1210051+9999MW1001OD139900501999REMSYN11852787 04979 /2104 11051 21221 37035 40302 52005 60002 70000 333 11012 21119 3/121 54405 59002 60001 70000 90720 91105=
0254527870999992024010606004+37200+102867FM-12+304499999V0202101N005019999999N022000199-00141-02211102521ADDAA106000091AA212000091AA324000091AY101021AY201021KA1240M-00121KA2240N-01191MA1999999070141MD1710211+9999MW1001OD139900801999REMSYN11852787 04972 /2105 11014 21221 37014 40252 57021 60002 70000 333 11012 21119 3/121 54405 59005 60001 70000 90720 91108=
0254527870999992024010609004+37200+102867FM-12+304499999V0200401N006019999999N028000199-00291-02401102651ADDAA106000091AA212000091AA324000091AY101021AY201021KA1240M-00091KA2240N-01191MA1999999070201MD1210061+9999MW1001OD139900901999REMSYN11852787 04978 /0406 11029 21240 37020 40265 52006 60002 70000 333 11009 21119 3/121 54405 59006 60001 70000 90720 91109=
0254527870999992024010612004+37200+102867FM-12+304499999V0201801N002019999999N030000199-00741-02321103151ADDAA106000091AA212000091AA324000091AY101021AY201021KA1240M-00091KA2240N-01191MA1999999070331MD1210131+9999MW1001OD139900901999REMSYN11852787 04980 /1802 11074 21232 37033 40315 52013 60002 70000 333 11009 21119 3/120 54405 59008 60001 70000 90720 91109=
0254527870999992024010618004+37200+102867FM-12+304499999V0202801N003019999999N030000199-00781-02321102521ADDAA106000091AA212000091AA324000091AY101021AY201021KA1120M-00091KA2120N-01181MA1999999070321MD1710031+9999MW1001OD139900901999REMSYN11852787 04980 /2803 11078 21232 37032 40252 57003 60002 70000 333 11009 21118 3/119 54405 59008 60001 70000 90720 91109=
0238527870999992024010621004+37200+102867FM-12+304499999V0202101N003019999999N030000199-00871-02281102551ADDAA106000091AA212000091AA324000091KA1240M-00091KA2240N-01081MA1999999070221MD1710101+9999MW1001OD139900801999REMSYN11852787 04980 /2103 11087 21228 37022 40255 57010 60002 700// 333 11009 21108 3/119 54405 59011 60001 70000 90720 91108=
0254527870999992024010700004+37200+102867FM-12+304499999V0202801N003019999999N030000199-00661-02301102691ADDAA106000091AA212000091AA324000091AY101021AY201021KA1120M-00091KA2120N-01071MA1999999070201MD1710021+9999MW1001OD139900801999REMSYN11852787 04980 /2803 11066 21230 37020 40269 57002 60002 70000 333 11009 21107 3/119 54405 59010 60001 70000 90720 91108=
0248527870999992024010703004+37200+102867FM-12+304499999V0203501N005019999999N029000199-00471-02131102671ADDAA106000091AA212000091AA324000091AY101021AY201021KA1240M-00091KA2240N-01031MA1999999070231MD1210031-0121MW1001OD139900801999REMSYN11252787 04979 /3505 11047 21213 37023 40267 52003 60002 70000 333 11009 21103 3/119 59012 60001 70000 90720 91108=
0248527870999992024010706004+37200+102867FM-12+304499999V0200401N008019999999N028000199-00111-02311102201ADDAA106000091AA212000091AA324000091AY101021AY201021KA1240M-00081KA2240N-01031MA1999999070111MD1710121-0031MW1001OD139901101999REMSYN11252787 04978 /0408 11011 21231 37011 40220 57012 60002 70000 333 11008 21103 3/119 59003 60001 70000 90720 91111=
0248527870999992024010709004+37200+102867FM-12+304499999V0200601N005019999999N030000199-00271-02321102451ADDAA106000091AA212000091AA324000091AY101021AY201021KA1240M-00081KA2240N-01031MA1999999070161MD1210051-0041MW1001OD139901401999REMSYN11252787 04980 /0605 11027 21232 37016 40245 52005 60002 70000 333 11008 21103 3/119 59004 60001 70000 90720 91114=
0248527870999992024010712004+37200+102867FM-12+304499999V0202201N005019999999N030000199-00711-02341102781ADDAA106000091AA212000091AA324000091AY101021AY201021KA1240M-00081KA2240N-01031MA1999999070281MD1210121-0051MW1001OD139901401999REMSYN11252787 04980 /2205 11071 21234 37028 40278 52012 60002 70000 333 11008 21103 3/118 59005 60001 70000 90720 91114=
0248527870999992024010718004+37200+102867FM-12+304499999V0202101N003019999999N030000199-00751-02371102221ADDAA106000091AA212000091AA324000091AY101021AY201021KA1120M-00081KA2120N-01031MA1999999070141MD1710101-0181MW1001OD139901401999REMSYN11252787 04980 /2103 11075 21237 37014 40222 57010 60002 70000 333 11008 21103 3/117 59018 60001 70000 90720 91114=
0238527870999992024010721004+37200+102867FM-12+304499999V0203301N002019999999N030000199-00711-02631102131ADDAA106000091AA212000091AA324000091KA1240M-00081KA2240N-00921MA1999999070021MD1710121+9999MW1001OD139900701999REMSYN11852787 04980 /3302 11071 21263 37002 40213 57012 60002 700// 333 11008 21092 3/119 54405 59020 60001 70000 90720 91107=
0254527870999992024010800004+37200+102867FM-12+304499999V0203401N010019999999N030000199-00461-02601102201ADDAA106000091AA212000091AA324000091AY101021AY201021KA1120M-00081KA2120N-00921MA1999999069981MD1710041+9999MW1001OD139901501999REMSYN11852787 04980 /3410 11046 21260 36998 40220 57004 60002 70000 333 11008 21092 3/119 54405 59022 60001 70000 90720 91115=
0254527870999992024010803004+37200+102867FM-12+304499999V0200101N007019999999N028000199-00741-02281102711ADDAA106000091AA212000091AA324000091AY101021AY201021KA1240M-00081KA2240N-00921MA1999999070121MD1210141+9999MW1001OD139901501999REMSYN11852787 04978 /0107 11074 21228 37012 40271 52014 60002 70000 333 11008 21092 3/119 54415 59011 60001 70000 90720 91115=
0254527870999992024010806004+37200+102867FM-12+304499999V0200601N011019999999N029000199-00501-02351102361ADDAA106000091AA212000091AA324000091AY101021AY201021KA1240M-00081KA2240N-00921MA1999999070051MD1710071+9999MW1001OD139901701999REMSYN11852787 04979 /0611 11050 21235 37005 40236 57007 60002 70000 333 11008 21092 3/119 54415 59006 60001 70000 90720 91117=
0254527870999992024010809004+37200+102867FM-12+304499999V0200501N010019999999N030000199-00601-02201102461ADDAA106000091AA212000091AA324000091AY101021AY201021KA1240M-00271KA2240N-00921MA1999999070091MD1210041+9999MW1001OD139901701999REMSYN11852787 04980 /0510 11060 21220 37009 40246 52004 60002 70000 333 11027 21092 3/117 54415 59007 60001 70000 90720 91117=
0254527870999992024010812004+37200+102867FM-12+304499999V0200201N006019999999N030000199-01011-02061102901ADDAA106000091AA212000091AA324000091AY101021AY201021KA1240M-00391KA2240N-01011MA1999999070311MD1210221+9999MW1001OD139901701999REMSYN11852787 04980 /0206 11101 21206 37031 40290 52022 60002 70000 333 11039 21101 3/112 54415 58003 60001 70000 90720 91117=
0254527870999992024010818004+37200+102867FM-12+304499999V0203301N002019999999N030000199-00881-02451102881ADDAA106000091AA212000091AA324000091AY101021AY201021KA1120M-00391KA2120N-01201MA1999999070341MD1710031+9999MW1001OD139901601999REMSYN11852787 04980 /3302 11088 21245 37034 40288 57003 60002 70000 333 11039 21120 3/119 54415 58020 60001 70000 90720 91116=
0238527870999992024010821004+37200+102867FM-12+304499999V0202101N002019999999N030000199-00971-02651102961ADDAA106000091AA212000091AA324000091KA1240M-00391KA2240N-01201MA1999999070301MD1710041+9999MW1001OD139901401999REMSYN11852787 04980 /2102 11097 21265 37030 40296 57004 60002 700// 333 11039 21120 3/121 54415 58028 60001 70000 90720 91114=
0254527870999992024010900004+37200+102867FM-12+304499999V0200701N005019999999N030000199-00721-03101103071ADDAA106000091AA212000091AA324000091AY101021AY201021KA1120M-00391KA2120N-01201MA1999999070301MD1410001+9999MW1001OD139901201999REMSYN11852787 04980 /0705 11072 21310 37030 40307 54000 60002 70000 333 11039 21120 3/123 54415 58032 60001 70000 90720 91112=
0254527870999992024010903004+37200+102867FM-12+304499999V0200701N005019999999N027000199-00331-03301102661ADDAA106000091AA212000091AA324000091AY101021AY201021KA1240M-00301KA2240N-01201MA1999999070391MD1210091+9999MW1001OD139901001999REMSYN11852787 04977 /0705 11033 21330 37039 40266 52009 60002 70000 333 11030 21120 3/123 54405 58027 60001 70000 90720 91110=
0254527870999992024010906004+37200+102867FM-12+304499999V0200401N005019999999N024000199-00041-03221102421ADDAA106000091AA212000091AA324000091AY101021AY201021KA1240M-00031KA2240N-01201MA1999999070251MD1710141+9999MW1001OD139900801999REMSYN11852787 04974 /0405 11004 21322 37025 40242 57014 60002 70000 333 11003 21120 3/123 54405 58020 60001 70000 90720 91108=
0254527870999992024010909004+37200+102867FM-12+304499999V0200501N006019999999N028000199-00191-03331102681ADDAA106000091AA212000091AA324000091AY101021AY201021KA1240M-00021KA2240N-01201MA1999999070311MD1210061+9999MW1001OD139901101999REMSYN11852787 04978 /0506 11019 21333 37031 40268 52006 60002 70000 333 11002 21120 3/123 54405 58022 60001 70000 90720 91111=
0254527870999992024010912004+37200+102867FM-12+304499999V0202001N003019999999N030000199-00851-03061103181ADDAA106000091AA212000091AA324000091AY101021AY201021KA1240M-00021KA2240N-01201MA1999999070451MD1210141+9999MW1001OD139901101999REMSYN11852787 04980 /2003 11085 21306 37045 40318 52014 60002 70000 333 11002 21120 3/118 54405 58014 60001 70000 90720 91111=
0254527870999992024010918004+37200+102867FM-12+304499999V0202101N004019999999N030000199-00951-02891102621ADDAA106000091AA212000091AA324000091AY101021AY201021KA1120M-00021KA2120N-01091MA1999999070351MD1710081+9999MW1001OD139901101999REMSYN11852787 04980 /2104 11095 21289 37035 40262 57008 60002 70000 333 11002 21109 3/118 54415 58001 60001 70000 90720 91111=
0232527870999992024010921004+37200+102867FM-12+304499999V0202001N003019999999N030000199-00951-02891102621ADDAA106000091AA212000091AA324000091KA1240M-00021KA2240N-01071MA1999999070281MD1710071-0021MW1001OD139900801999REMSYN11252787 04980 /2003 11095 21289 37028 40262 57007 60002 700// 333 11002 21107 3/118 59002 60001 70000 90720 91108=
0254527870999992024011000004+37200+102867FM-12+304499999V0200601N005019999999N029000199-00671-03151102881ADDAA106000091AA212000091AA324000091AY101021AY201021KA1120M-00021KA2120N-01071MA1999999070271MD1710011+9999MW1001OD139900701999REMSYN11852787 04979 /0605 11067 21315 37027 40288 57001 60002 70000 333 11002 21107 3/120 54405 59003 60001 70000 90720 91107=
0254527870999992024011003004+37200+102867FM-12+304499999V0200101N002019999999N028000199-00251-03001102721ADDAA106000091AA212000091AA324000091AY101021AY201021KA1240M-00021KA2240N-01071MA1999999070341MD1210071+9999MW1001OD139900701999REMSYN11852787 04978 /0102 11025 21300 37034 40272 52007 60002 70000 333 11002 21107 3/120 54405 59005 60001 70000 90720 91107=
0254527870999992024011006004+37200+102867FM-12+304499999V0202201N004019999999N025000199+00281-02971102071ADDAA106000091AA212000091AA324000091AY101021AY201021KA1240M+00301KA2240N-01071MA1999999070131MD1710211+9999MW1001OD139900701999REMSYN11852787 04975 /2204 10028 21297 37013 40207 57021 60002 70000 333 10030 21107 3/120 54405 59012 60001 70000 90720 91107=
0254527870999992024011009004+37200+102867FM-12+304499999V0200501N005019999999N028000199-00051-02561102381ADDAA106000091AA212000091AA324000091AY101021AY201021KA1240M+00301KA2240N-01071MA1999999070181MD1210051+9999MW1001OD139900901999REMSYN11852787 04978 /0505 11005 21256 37018 40238 52005 60002 70000 333 10030 21107 3/120 54405 59013 60001 70000 90720 91109=
0254527870999992024011012004+37200+102867FM-12+304499999V0201901N002019999999N030000199-00611-02791102781ADDAA106000091AA212000091AA324000091AY101021AY201021KA1240M+00301KA2240N-01071MA1999999070321MD1210141+9999MW1001OD139900901999REMSYN11852787 04980 /1902 11061 21279 37032 40278 52014 60002 70000 333 10030 21107 3/117 54405 59013 60001 70000 90720 91109=
0254527870999992024011018004+37200+102867FM-12+304499999V0202201N003019999999N030000199-00601-02851101991ADDAA106000091AA212000091AA324000091AY101021AY201021KA1120M+00301KA2120N-01061MA1999999070241MD1710071+9999MW1001OD139900901999REMSYN11852787 04980 /2203 11060 21285 37024 40199 57007 60002 70000 333 10030 21106 3/118 54405 59011 60001 70000 90720 91109=
0238527870999992024011021004+37200+102867FM-12+304499999V0202501N001019999999N030000199-00521-02941102091ADDAA106000091AA212000091AA324000091KA1240M+00301KA2240N-00941MA1999999070191MD1710051+9999MW1001OD139900701999REMSYN11852787 04980 /2501 11052 21294 37019 40209 57005 60002 700// 333 10030 21094 3/120 54405 59009 60001 70000 90720 91107=
0254527870999992024011100004+37200+102867FM-12+304499999V0203301N008019999999N030000199-00381-02911102411ADDAA106000091AA212000091AA324000091AY101021AY201021KA1120M+00301KA2120N-00721MA1999999070211MD1210021+9999MW1001OD139901201999REMSYN11852787 04980 /3308 11038 21291 37021 40241 52002 60002 70000 333 10030 21072 3/120 54405 59006 60001 70000 90720 91112=
0254527870999992024011103004+37200+102867FM-12+304499999V0203301N007019999999N026000199+00091-02741102241ADDAA106000091AA212000091AA324000091AY101021AY201021KA1240M+00301KA2240N-00721MA1999999070341MD1210131+9999MW1001OD139901301999REMSYN11852787 04976 /3307 10009 21274 37034 40224 52013 60002 70000 333 10030 21072 3/120 54405 58000 60001 70000 90720 91113=
0254527870999992024011106004+37200+102867FM-12+304499999V0200501N007019999999N024000199+00331-02661101951ADDAA106000091AA212000091AA324000091AY101021AY201021KA1240M+00371KA2240N-00721MA1999999070231MD1710111+9999MW1001OD139901501999REMSYN11852787 04974 /0507 10033 21266 37023 40195 57011 60002 70000 333 10037 21072 3/120 54405 58010 60001 70000 90720 91115=
0254527870999992024011109004+37200+102867FM-12+304499999V0200401N007019999999N022000199+00181-02671102081ADDAA106000091AA212000091AA324000091AY101021AY201021KA1240M+00371KA2240N-00721MA1999999070291MD1210061+9999MW1001OD139901501999REMSYN11852787 04972 /0407 10018 21267 37029 40208 52006 60002 70000 333 10037 21072 3/120 54405 58011 60001 70000 90720 91115=
0248527870999992024011118004+37200+102867FM-12+304499999V0202101N004019999999N030000199-00601-02721101931ADDAA106000091AA212000091AA324000091AY101021AY201021KA1120M+00371KA2120N-00681MA1999999070221MD1710071-0021MW1001OD139901101999REMSYN11252787 04980 /2104 11060 21272 37022 40193 57007 60002 70000 333 10037 21068 3/116 59002 60001 70000 90720 91111=
0238527870999992024011121004+37200+102867FM-12+304499999V0200301N002019999999N030000199-00251-02721101721ADDAA106000091AA212000091AA324000091KA1240M+00371KA2240N-00661MA1999999070171MD1710051+9999MW1001OD139901001999REMSYN11852787 04980 /0302 11025 21272 37017 40172 57005 60002 700// 333 10037 21066 3/116 54405 59002 60001 70000 90720 91110=
0254527870999992024011200004+37200+102867FM-12+304499999V0203601N002019999999N030000199-00461-02741102301ADDAA106000091AA212000091AA324000091AY101021AY201021KA1120M+00371KA2120N-00661MA1999999070201MD1210031+9999MW1001OD139900701999REMSYN11852787 04980 /3602 11046 21274 37020 40230 52003 60002 70000 333 10037 21066 3/117 54415 59001 60001 70000 90720 91107=
0254527870999992024011203004+37200+102867FM-12+304499999V0203201N006019999999N023000199+00151-02691102011ADDAA106000091AA212000091AA324000091AY101021AY201021KA1240M+00371KA2240N-00661MA1999999070221MD1210021+9999MW1001OD139900901999REMSYN11852787 04973 /3206 10015 21269 37022 40201 52002 60002 70000 333 10037 21066 3/118 54405 59012 60001 70000 90720 91109=
0254527870999992024011206004+37200+102867FM-12+304499999V0202001N007019999999N026000199+00451-02701101621ADDAA106000091AA212000091AA324000091AY101021AY201021KA1240M+00481KA2240N-00661MA1999999070061MD1710161+9999MW1001OD139901001999REMSYN11852787 04976 /2007 10045 21270 37006 40162 57016 60002 70000 333 10048 21066 3/118 54405 59017 60001 70000 90720 91110=
0254527870999992024011209004+37200+102867FM-12+304499999V0200501N007019999999N025000199+00401-02611101531ADDAA106000091AA212000091AA324000091AY101021AY201021KA1240M+00661KA2240N-00661MA1999999070141MD1210081+9999MW1001OD139901001999REMSYN11852787 04975 /0507 10040 21261 37014 40153 52008 60002 70000 333 10066 21066 3/118 54405 59015 60001 70000 90720 91110=
0254527870999992024011212004+37200+102867FM-12+304499999V0200801N006019999999N027000199+00061-03141102031ADDAA106000091AA212000091AA324000091AY101021AY201021KA1240M+00661KA2240N-00661MA1999999070231MD1210091+9999MW1001OD139901101999REMSYN11852787 04977 /0806 10006 21314 37023 40203 52009 60002 70000 333 10066 21066 3/118 54405 59014 60001 70000 90720 91111=
0254527870999992024011218004+37200+102867FM-12+304499999V0203401N001019999999N030000199-00351-02891101711ADDAA106000091AA212000091AA324000091AY101021AY201021KA1120M+00661KA2120N-00641MA1999999070241MD1710021+9999MW1001OD139901101999REMSYN11852787 04980 /3401 11035 21289 37024 40171 57002 60002 70000 333 10066 21064 3/117 54405 58002 60001 70000 90720 91111=
0238527870999992024011221004+37200+102867FM-12+304499999V0203501N005019999999N030000199-01101-02481102261ADDAA106000091AA212000091AA324000091KA1240M+00661KA2240N-01131MA1999999070241MD1410001+9999MW1001OD139901101999REMSYN11852787 04980 /3505 11110 21248 37024 40226 54000 60002 700// 333 10066 21113 3/117 54419 58007 60001 70000 90720 91111=
0254527870999992024011300004+37200+102867FM-12+304499999V0200101N009019999999N030000199-00971-02481102431ADDAA106000091AA212000091AA324000091AY101021AY201021KA1120M+00661KA2120N-01131MA1999999070261MD1210021+9999MW1001OD139901401999REMSYN11852787 04980 /0109 11097 21248 37026 40243 52002 60002 70000 333 10066 21113 3/117 54415 58006 60001 70000 90720 91114=
0254527870999992024011303004+37200+102867FM-12+304499999V0200501N008019999999N029000199-00371-02401102431ADDAA106000091AA212000091AA324000091AY101021AY201021KA1240M+00661KA2240N-01131MA1999999070391MD1210131+9999MW1001OD139901401999REMSYN11852787 04979 /0508 11037 21240 37039 40243 52013 60002 70000 333 10066 21113 3/117 54415 58017 60001 70000 90720 91114=
0254527870999992024011306004+37200+102867FM-12+304499999V0200201N008019999999N029000199-00231-02171102161ADDAA106000091AA212000091AA324000091AY101021AY201021KA1240M+00661KA2240N-01131MA1999999070231MD1710161+9999MW1001OD139901401999REMSYN11852787 04979 /0208 11023 21217 37023 40216 57016 60002 70000 333 10066 21113 3/117 54417 58017 60001 70000 90720 91114=
0254527870999992024011309004+37200+102867FM-12+304499999V0200801N006019999999N029000199-00331-02431102921ADDAA106000091AA212000091AA324000091AY101021AY201021KA1240M+00401KA2240N-01131MA1999999070341MD1210111+9999MW1001OD139901401999REMSYN11852787 04979 /0806 11033 21243 37034 40292 52011 60002 70000 333 10040 21113 3/117 54417 58020 60001 70000 90720 91114=
0254527870999992024011312004+37200+102867FM-12+304499999V0200301N002019999999N030000199-00771-02391103331ADDAA106000091AA212000091AA324000091AY101021AY201021KA1240M+00091KA2240N-01131MA1999999070471MD1210131+9999MW1001OD139901401999REMSYN11852787 04980 /0302 11077 21239 37047 40333 52013 60002 70000 333 10009 21113 3/116 54418 58024 60001 70000 90720 91114=
0254527870999992024011318004+37200+102867FM-12+304499999V0202101N006019999999N030000199-01001-02141102851ADDAA106000091AA212000091AA324000091AY101021AY201021KA1120M-00211KA2120N-01181MA1999999070391MD1710051+9999MW1001OD139901401999REMSYN11852787 04980 /2106 11100 21214 37039 40285 57005 60002 70000 333 11021 21118 3/117 54417 58015 60001 70000 90720 91114=
0238527870999992024011321004+37200+102867FM-12+304499999V0202201N005019999999N030000199-01151-02161103001ADDAA106000091AA212000091AA324000091KA1240M-00211KA2240N-01251MA1999999070371MD1710021+9999MW1001OD139900801999REMSYN11852787 04980 /2205 11115 21216 37037 40300 57002 60002 700// 333 11021 21125 3/117 54415 58013 60001 70000 90720 91108=
0166527870999992024011400004+37200+102870FM-12+304499999V0202031N0043199999999030000199-01121-02341103281ADDAA124000091AA299999999AJ199999999999999AY101999AY201999IA2999-01759KA1120M-00211KA2120N-01251MA1999999070361MD1710011+0101MW1001OC100821OD139900821223REMSYN004BUFR
0254527870999992024011403004+37200+102867FM-12+304499999V0202101N005019999999N029000199-00421-02181103081ADDAA106000091AA212000091AA324000091AY101021AY201021KA1240M-00211KA2240N-01251MA1999999070391MD1210031+9999MW1001OD139900801999REMSYN11852787 04979 /2105 11042 21218 37039 40308 52003 60002 70000 333 11021 21125 3/117 54415 58000 60001 70000 90720 91108=
0254527870999992024011406004+37200+102867FM-12+304499999V0202201N007019999999N024000199-00131-02201102561ADDAA106000091AA212000091AA324000091AY101021AY201021KA1240M-00031KA2240N-01251MA1999999070241MD1710151+9999MW1001OD139900901999REMSYN11852787 04974 /2207 11013 21220 37024 40256 57015 60002 70000 333 11003 21125 3/117 54405 58001 60001 70000 90720 91109=
0254527870999992024011409004+37200+102867FM-12+304499999V0202201N006019999999N024000199+00021-02271102611ADDAA106000091AA212000091AA324000091AY101021AY201021KA1240M+00161KA2240N-01251MA1999999070281MD1210041+9999MW1001OD139900901999REMSYN11852787 04974 /2206 10002 21227 37028 40261 52004 60002 70000 333 10016 21125 3/117 54405 59006 60001 70000 90720 91109=
0254527870999992024011412004+37200+102867FM-12+304499999V0202401N003019999999N030000199-00391-02421103061ADDAA106000091AA212000091AA324000091AY101021AY201021KA1240M+00161KA2240N-01251MA1999999070401MD1210121+9999MW1001OD139900901999REMSYN11852787 04980 /2403 11039 21242 37040 40306 52012 60002 70000 333 10016 21125 3/117 54405 59007 60001 70000 90720 91109=
0254527870999992024011418004+37200+102867FM-12+304499999V0201701N002019999999N030000199-00511-02411102371ADDAA106000091AA212000091AA324000091AY101021AY201021KA1120M+00161KA2120N-01251MA1999999070351MD1710081+9999MW1001OD139900801999REMSYN11852787 04980 /1702 11051 21241 37035 40237 57008 60002 70000 333 10016 21125 3/115 54405 59004 60001 70000 90720 91108=
0238527870999992024011421004+37200+102867FM-12+304499999V0201501N001019999999N030000199-00221-02981101931ADDAA106000091AA212000091AA324000091KA1240M+00161KA2240N-01231MA1999999070251MD1710101+9999MW1001OD139900701999REMSYN11852787 04980 /1501 11022 21298 37025 40193 57010 60002 700// 333 10016 21123 3/115 54409 59012 60001 70000 90720 91107=
0254527870999992024011500004+37200+102867FM-12+304499999V0203501N004019999999N029000199-00441-02651102261ADDAA106000091AA212000091AA324000091AY101021AY201021KA1120M+00161KA2120N-01131MA1999999070181MD1710071+9999MW1001OD139900501999REMSYN11852787 04979 /3504 11044 21265 37018 40226 57007 60002 70000 333 10016 21113 3/115 54407 59018 60001 70000 90720 91105=
0254527870999992024011503004+37200+102867FM-12+304499999V0202201N005019999999N026000199-00141-02401102361ADDAA106000091AA212000091AA324000091AY101021AY201021KA1240M+00161KA2240N-00721MA1999999070251MD1210071+9999MW1001OD139900701999REMSYN11852787 04976 /2205 11014 21240 37025 40236 52007 60002 70000 333 10016 21072 3/115 54405 59014 60001 70000 90720 91107=
0254527870999992024011506004+37200+102867FM-12+304499999V0202101N005019999999N024000199+00281-02481101631ADDAA106000091AA212000091AA324000091AY101021AY201021KA1240M+00381KA2240N-00721MA1999999070031MD1710221+9999MW1001OD139900801999REMSYN11852787 04974 /2105 10028 21248 37003 40163 57022 60002 70000 333 10038 21072 3/115 54405 59021 60001 70000 90720 91108=
0254527870999992024011509004+37200+102867FM-12+304499999V0202101N006019999999N026000199-00031-01801101691ADDAA106000091AA212000091AA324000091AY101021AY201021KA1240M+00381KA2240N-00721MA1999999070061MD1210031+9999MW1001OD139900801999REMSYN11852787 04976 /2106 11003 21180 37006 40169 52003 60002 70000 333 10038 21072 3/112 54415 59022 60001 70000 90720 91108=
0254527870999992024011512004+37200+102867FM-12+304499999V0202001N002019999999N030000199-00611-01851102401ADDAA106000091AA212000091AA324000091AY101021AY201021KA1240M+00381KA2240N-00721MA1999999070171MD1210111+9999MW1001OD139900801999REMSYN11852787 04980 /2002 11061 21185 37017 40240 52011 60002 70000 333 10038 21072 3/113 54415 59023 60001 70000 90720 91108=
0254527870999992024011518004+37200+102867FM-12+304499999V0202001N002019999999N030000199-00611-01851101831ADDAA106000091AA212000091AA324000091AY101021AY201021KA1120M+00381KA2120N-00761MA1999999070121MD1710071+9999MW1001OD139900801999REMSYN11852787 04980 /2002 11061 21185 37012 40183 57007 60002 70000 333 10038 21076 3/117 54415 59023 60001 70000 90720 91108=
0238527870999992024011521004+37200+102867FM-12+304499999V0201901N001019999999N030000199-00781-01851102081ADDAA106000091AA212000091AA324000091KA1240M+00381KA2240N-00881MA1999999070071MD1710051+9999MW1001OD139900801999REMSYN11852787 04980 /1901 11078 21185 37007 40208 57005 60002 700// 333 10038 21088 3/117 54416 59018 60001 70000 90720 91108=
0166527870999992024011600004+37200+102870FM-12+304499999V0200601N0075199999999030000199-00471-02221102271ADDAA124000091AA299999999AJ199999999999999AY101999AY201999IA2999-01729KA1120M+00381KA2120N-00901MA1999999070071MD1410001-0111MW1001OC101081OD139901081032REMSYN004BUFR
0248527870999992024011603004+37200+102867FM-12+304499999V0200501N007019999999N028000199-00111-02451102221ADDAA106000091AA212000091AA324000091AY101021AY201021KA1240M+00381KA2240N-00901MA1999999070171MD1210101-0081MW1001OD139901101999REMSYN11252787 04978 /0507 11011 21245 37017 40222 52010 60002 70000 333 10038 21090 3/117 59008 60001 70000 90720 91111=
0254527870999992024011606004+37200+102867FM-12+304499999V0200701N006019999999N027000199+00031-02131101821ADDAA106000091AA212000091AA324000091AY101021AY201021KA1240M+00291KA2240N-00901MA1999999070001MD1710171+9999MW1001OD139901101999REMSYN11852787 04977 /0706 10003 21213 37000 40182 57017 60002 70000 333 10029 21090 3/117 54415 59003 60001 70000 90720 91111=
0254527870999992024011609004+37200+102867FM-12+304499999V0200701N007019999999N028000199-00191-01891102201ADDAA106000091AA212000091AA324000091AY101021AY201021KA1240M+00101KA2240N-00901MA1999999070071MD1210071+9999MW1001OD139901501999REMSYN11852787 04978 /0707 11019 21189 37007 40220 52007 60002 70000 333 10010 21090 3/117 54415 58001 60001 70000 90720 91115=
0248527870999992024011612004+37200+102867FM-12+304499999V0200101N003019999999N029000199-00651-01791102461ADDAA106000091AA212000091AA324000091AY101021AY201021KA1240M+00101KA2240N-00901MA1999999070181MD1210111+0011MW1001OD139901501999REMSYN11252787 04979 /0103 11065 21179 37018 40246 52011 60002 70000 333 10010 21090 3/112 58001 60001 70000 90720 91115=
0254527870999992024011618004+37200+102867FM-12+304499999V0201901N003019999999N030000199-00811-01961102171ADDAA106000091AA212000091AA324000091AY101021AY201021KA1120M+00101KA2120N-00901MA1999999070141MD1710041+9999MW1001OD139901501999REMSYN11852787 04980 /1903 11081 21196 37014 40217 57004 60002 70000 333 10010 21090 3/117 54415 58002 60001 70000 90720 91115=
0238527870999992024011621004+37200+102867FM-12+304499999V0202001N003019999999N030000199-00871-01961102261ADDAA106000091AA212000091AA324000091KA1240M+00101KA2240N-00901MA1999999070071MD1710071+9999MW1001OD139901001999REMSYN11852787 04980 /2003 11087 21196 37007 40226 57007 60002 700// 333 10010 21090 3/118 54415 58000 60001 70000 90720 91110=
0254527870999992024011700004+37200+102867FM-12+304499999V0202101N003019999999N030000199-00911-02121102641ADDAA106000091AA212000091AA324000091AY101021AY201021KA1120M+00101KA2120N-00981MA1999999070091MD1210021+9999MW1001OD139900601999REMSYN11852787 04980 /2103 11091 21212 37009 40264 52002 60002 70000 333 10010 21098 3/118 54415 58002 60001 70000 90720 91106=
0254527870999992024011703004+37200+102867FM-12+304499999V0202101N005019999999N027000199-00291-02021102221ADDAA106000091AA212000091AA324000091AY101021AY201021KA1240M+00101KA2240N-00981MA1999999070131MD1210041+9999MW1001OD139900601999REMSYN11852787 04977 /2105 11029 21202 37013 40222 52004 60002 70000 333 10010 21098 3/118 54415 59004 60001 70000 90720 91106=
0254527870999992024011706004+37200+102867FM-12+304499999V0202001N008019999999N027000199+00111-02061101801ADDAA106000091AA212000091AA324000091AY101021AY201021KA1240M+00121KA2240N-00981MA1999999069931MD1710201+9999MW1001OD139901201999REMSYN11852787 04977 /2008 10011 21206 36993 40180 57020 60002 70000 333 10012 21098 3/118 54405 59007 60001 70000 90720 91112=
0166527870999992024011709004+37200+102870FM-12+304499999V0201911N0097199999999028200199+00001-01981101921ADDAA124000091AA299999999AJ199999999999999AY101999AY201999IA2999-01829KA1120M+00151KA2120N-00981MA1999999069931MD1410001-0141MW1001OC101331OD139901331202REMSYN004BUFR
0254527870999992024011712004+37200+102867FM-12+304499999V0201901N008019999999N029000199-00441-01861102431ADDAA106000091AA212000091AA324000091AY101021AY201021KA1240M+00151KA2240N-00981MA1999999070051MD1210121+9999MW1001OD139901301999REMSYN11852787 04979 /1908 11044 21186 37005 40243 52012 60002 70000 333 10015 21098 3/118 54405 59013 60001 70000 90720 91113=
0248527870999992024011718004+37200+102867FM-12+304499999V0202201N007019999999N030000199-00791-01781101751ADDAA106000091AA212000091AA324000091AY101021AY201021KA1120M+00151KA2120N-00981MA1999999069901MD1710131-0241MW1001OD139901301999REMSYN11252787 04980 /2207 11079 21178 36990 40175 57013 60002 70000 333 10015 21098 3/113 59024 60001 70000 90720 91113=
0238527870999992024011721004+37200+102867FM-12+304499999V0202201N007019999999N030000199-00741-01631101611ADDAA106000091AA212000091AA324000091KA1240M+00151KA2240N-00981MA1999999069781MD1710121+9999MW1001OD139901201999REMSYN11852787 04980 /2207 11074 21163 36978 40161 57012 60002 700// 333 10015 21098 3/113 54405 59029 60001 70000 90720 91112=
0254527870999992024011800004+37200+102867FM-12+304499999V0202201N006019999999N030000199-00711-01651101881ADDAA106000091AA212000091AA324000091AY101021AY201021KA1120M+00151KA2120N-00971MA1999999069771MD1710011+9999MW1001OD139901201999REMSYN11852787 04980 /2206 11071 21165 36977 40188 57001 60002 70000 333 10015 21097 3/113 54405 59032 60001 70000 90720 91112=
0254527870999992024011803004+37200+102867FM-12+304499999V0202201N006019999999N030000199-00491-01641102041ADDAA106000091AA212000091AA324000091AY101021AY201021KA1240M+00151KA2240N-00931MA1999999069811MD1210041+9999MW1001OD139901201999REMSYN11852787 04980 /2206 11049 21164 36981 40204 52004 60002 70000 333 10015 21093 3/113 54415 59032 60001 70000 90720 91112=
0254527870999992024011806004+37200+102867FM-12+304499999V0202001N006019999999N027000199-00111-01301101461ADDAA106000091AA212000091AA324000091AY101021AY201021KA1240M+00151KA2240N-00931MA1999999069601MD1710211+9999MW1001OD139901201999REMSYN11852787 04977 /2006 11011 21130 36960 40146 57021 60002 70000 333 10015 21093 3/112 54415 59033 60001 70000 90720 91112=
0254527870999992024011809004+37200+102867FM-12+304499999V0200601N008019999999N028000199-00211-01391101701ADDAA106000091AA212000091AA324000091AY101021AY201021KA1240M+00051KA2240N-00931MA1999999069741MD1210141+9999MW1001OD139901101999REMSYN11852787 04978 /0608 11021 21139 36974 40170 52014 60002 70000 333 10005 21093 3/112 54415 59019 60001 70000 90720 91111=
0254527870999992024011812004+37200+102867FM-12+304499999V0200901N002019999999N030000199-00491-01481102141ADDAA106000091AA212000091AA324000091AY101021AY201021KA1240M+00051KA2240N-00931MA1999999069921MD1210181+9999MW1001OD139901101999REMSYN11852787 04980 /0902 11049 21148 36992 40214 52018 60002 70000 333 10005 21093 3/111 54415 59013 60001 70000 90720 91111=
0254527870999992024011818004+37200+102867FM-12+304499999V0201901N002019999999N030000199-00631-01711101831ADDAA106000091AA212000091AA324000091AY101021AY201021KA1120M+00051KA2120N-00931MA1999999069931MD1710041+9999MW1001OD139901101999REMSYN11852787 04980 /1902 11063 21171 36993 40183 57004 60002 70000 333 10005 21093 3/116 54405 58003 60001 70000 90720 91111=
0232527870999992024011821004+37200+102867FM-12+304499999V0203601N002019999999N030000199-00761-01751101981ADDAA106000091AA212000091AA324000091KA1240M+00051KA2240N-00911MA1999999069921MD1710011+0141MW1001OD139901101999REMSYN11252787 04980 /3602 11076 21175 36992 40198 57001 60002 700// 333 10005 21091 3/117 58014 60001 70000 90720 91111=
0166527870999992024011900004+37200+102870FM-12+304499999V0203591N0065199999999030000199-01321-01831102681ADDAA124000091AA299999999AJ199999999999999AY101999AY201999IA2999-01849KA1120M+00051KA2120N-01361MA1999999069991MD1210071+0221MW1001OC100881OD139900881004REMSYN004BUFR
0254527870999992024011903004+37200+102867FM-12+304499999V0200401N008019999999N030000199-00831-01901102591ADDAA106000091AA212000091AA324000091AY101021AY201021KA1240M+00051KA2240N-01381MA1999999070091MD1210101+9999MW1001OD139901101999REMSYN11852787 04980 /0408 11083 21190 37009 40259 52010 60002 70000 333 10005 21138 3/118 54415 58028 60001 70000 90720 91111=
0254527870999992024011906004+37200+102867FM-12+304499999V0200601N010019999999N030000199-00851-01681102411ADDAA106000091AA212000091AA324000091AY101021AY201021KA1240M+00051KA2240N-01381MA1999999069971MD1710121+9999MW1001OD139901401999REMSYN11852787 04980 /0610 11085 21168 36997 40241 57012 60002 70000 333 10005 21138 3/118 54417 58037 60001 70000 90720 91114=
0305527870999992024011909004+37200+102867FM-12+304499999V0200501N010019999999N030000199-01181-01461102901ADDAA106999999AA212999999AA324999999AY101021AY201021KA1240M-00221KA2240N-01381MA1999999070081MD1210111+9999MW1701OD139901601999REMSYN11852787 04980 /0510 11118 21146 37008 40290 52011 60002 77000 333 11022 21138 3/118 54410 58034 60001 70000 90720 91116=EQDQ01  00002PRCP06Q02  00002PRCP12Q03  00002PRCP24
0277527870999992024011912004+37200+102867FM-12+304499999V0200501N007019999999N030000199-01301-01591103692ADDAA106000231AA212000231AA324000231AJ100013100010099AY171021AY201021KA1240M-00421KA2240N-01381MA1999999070271MD1210191+9999MW1701OD139901601999REMSYN12452787 04980 /0507 11130 21159 37027 40369 52019 69922 77070 333 11042 21138 3/118 4/001 54418 58035 69921 70002 90720 91116=
0277527870999992024011918004+37200+102867FM-12+304499999V0202101N005019999999N030000199-01521-01621103371ADDAA106000331AA212000531AA324000531AJ100013100010099AY101021AY201021KA1120M-00571KA2120N-01641MA1999999070181MD1710111+9999MW1701OD139901601999REMSYN12452787 04980 /2105 11152 21162 37018 40337 57011 69952 77000 333 11057 21164 3/117 4/001 54419 58025 69931 70005 90720 91116=
0261527870999992024011921004+37200+102867FM-12+304499999V0202201N006019999999N030000199-01601-01711103471ADDAA106000331AA212000631AA324000631AJ100013100010099KA1240M-00741KA2240N-01801MA1999999070041MD1710141+9999MW1701OD139901501999REMSYN12452787 04980 /2206 11160 21171 37004 40347 57014 69962 770// 333 11074 21180 3/118 4/001 54418 58012 69931 70006 90720 91115=
0277527870999992024012000004+37200+102867FM-12+304499999V0209999C000059999999N030000199-01681-01811103621ADDAA106000131AA212000431AA324000631AJ100013100010099AY101021AY201021KA1120M-00741KA2120N-01841MA1999999070041MD1410001+9999MW1221OD139901001999REMSYN12452787 04980 /0000 11168 21181 37004 40362 54000 69942 72200 333 11074 21184 3/122 4/001 54415 58005 69911 70006 90720 91110=
0277527870999992024012003004+37200+102867FM-12+304499999V0200201N005019999999N030000199-01391-01491103691ADDAA106000091AA212000331AA324000631AJ100013100010099AY101021AY201021KA1240M-00741KA2240N-01841MA1999999070091MD1210051+9999MW1001OD139901001999REMSYN12452787 04980 /0205 11139 21149 37009 40369 52005 69932 70000 333 11074 21184 3/123 4/001 54416 58000 60001 70006 90720 91110=
0296527870999992024012006004+37200+102867FM-12+304499999V0200401N008019999999N030000199-01341-01551103441ADDAA106999999AA212000131AA324000631AJ100013100010099AY101021AY201021KA1240M-00831KA2240N-01841MA1999999069981MD1710111+9999MW1701OD139901101999REMSYN12452787 04980 /0408 11134 21155 36998 40344 57011 69912 77000 333 11083 21184 3/123 4/001 54415 58001 60001 70006 90720 91111=EQDQ01  00002PRCP06
0277527870999992024012009004+37200+102867FM-12+304499999V0200501N007019999999N030000199-01521-01851103861ADDAA106000131AA212000131AA324000731AJ100013100010099AY101021AY201021KA1240M-01191KA2240N-01841MA1999999070131MD1210151+9999MW1701OD139901301999REMSYN12452787 04980 /0507 11152 21185 37013 40386 52015 69912 77000 333 11119 21184 3/123 4/001 54415 58005 69911 70007 90720 91113=
0277527870999992024012012004+37200+102867FM-12+304499999V0200101N008019999999N030000199-01901-02021104471ADDAA106000131AA212000131AA324000531AJ100013100010099AY101021AY201021KA1240M-01231KA2240N-01901MA1999999070301MD1210171+9999MW1701OD139901301999REMSYN12452787 04980 /0108 11190 21202 37030 40447 52017 69912 77000 333 11123 21190 3/123 4/001 54416 58003 69911 70005 90720 91113=
0296527870999992024012018004+37200+102867FM-12+304499999V0203601N004019999999N030000199-02351-02601104591ADDAA106999999AA212000131AA324000231AJ100013100010099AY101021AY201021KA1120M-01231KA2120N-02381MA1999999070321MD1710031+9999MW1701OD139901301999REMSYN12452787 04980 /3604 11235 21260 37032 40459 57003 69912 77000 333 11123 21238 3/122 4/001 54418 58014 60001 70002 90720 91113=EQDQ01  00002PRCP06
0296527870999992024012021004+37200+102867FM-12+304499999V0200101N001019999999N030000199-01981-02131104351ADDAA106999999AA212999999AA324000131AJ100013100010099KA1240M-01231KA2240N-02381MA1999999070261MD1710061+9999MW1221OD139901201999REMSYN12452787 04980 /0101 11198 21213 37026 40435 57006 60002 722// 333 11123 21238 3/122 4/001 54415 58022 60001 70001 90720 91112=EQDQ01  00002PRCP06Q02  00002PRCP12
0277527870999992024012100004+37200+102867FM-12+304499999V0203501N003019999999N030000199-02171-02371104971ADDAA106000091AA212000091AA324000131AJ100013100010099AY101021AY201021KA1120M-01231KA2120N-02381MA1999999070371MD1210111+9999MW1001OD139901201999REMSYN12452787 04980 /3503 11217 21237 37037 40497 52011 60002 70000 333 11123 21238 3/123 4/001 54415 58033 60001 70001 90720 91112=
0312527870999992024012103004+37200+102867FM-12+304499999V0203601N007019999999N030000199-02231-02441105361ADDAA106999999AA212999999AA324000131AJ100013100010099AY101021AY201021KA1240M-01231KA2240N-02531MA1999999070501MD1210131+9999MW1701OD139900901999REMSYN12452787 04980 /3607 11223 21244 37050 40536 52013 60002 77000 333 11123 21253 3/123 4/001 54418 58041 60001 70001 90720 91109=EQDQ01  00002PRCP06Q02  00002PRCP12
0312527870999992024012106004+37200+102867FM-12+304499999V0203601N006019999999N030000199-01901-02051105251ADDAA106999999AA212999999AA324000131AJ100013100010099AY101021AY201021KA1240M-01321KA2240N-02531MA1999999070461MD1710041+9999MW1701OD139901001999REMSYN12452787 04980 /3606 11190 21205 37046 40525 57004 60002 77000 333 11132 21253 3/123 4/001 54416 58048 60001 70001 90720 91110=EQDQ01  00002PRCP06Q02  00002PRCP12
0277527870999992024012109004+37200+102867FM-12+304499999V0200101N006019999999N030000199-01851-01991104941ADDAA106000091AA212000091AA324000091AJ100013100010099AY101021AY201021KA1240M-01521KA2240N-02531MA1999999070481MD1210021+9999MW1001OD139901001999REMSYN12452787 04980 /0106 11185 21199 37048 40494 52002 60002 70000 333 11152 21253 3/123 4/001 54415 58035 60001 70000 90720 91110=
0328527870999992024012112004+37200+102867FM-12+304499999V0202101N003019999999N030000199-02031-02191105371ADDAA106999999AA212999999AA324999999AJ100013100010099AY101021AY201021KA1240M-01781KA2240N-02531MA1999999070571MD1210091+9999MW1701OD139901001999REMSYN12452787 04980 /2103 11203 21219 37057 40537 52009 60002 77000 333 11178 21253 3/123 4/001 54415 58027 60001 70000 90720 91110=EQDQ01  00002PRCP06Q02  00002PRCP12Q03  00002PRCP24
0328527870999992024012118004+37200+102867FM-12+304499999V0201901N004019999999N030000199-02101-02291104821ADDAA106999999AA212999999AA324999999AJ100013100010099AY101021AY201021KA1120M-01781KA2120N-02531MA1999999070311MD1710191+9999MW1221OD139900801999REMSYN12452787 04980 /1904 11210 21229 37031 40482 57019 60002 72200 333 11178 21253 3/124 4/001 54405 59001 60001 70000 90720 91108=EQDQ01  00002PRCP06Q02  00002PRCP12Q03  00002PRCP24
0255527870999992024012121004+37200+102867FM-12+304499999V0202201N004019999999N030000199-01991-02151104441ADDAA106000091AA212000091AA324000091AJ100013100010099KA1240M-01781KA2240N-02531MA1999999070141MD1710171-0121MW1001OD139900701999REMSYN11852787 04980 /2204 11199 21215 37014 40444 57017 60002 700// 333 11178 21253 3/124 4/001 59012 60001 70000 90720 91107=
0166527870999992024012200004+37200+102870FM-12+304499999V0201981N0020199999999030000199-01841-02001104431ADDAA124010091AA299999999AJ199999999999999AY101999AY201999IA2999-02479KA1120M-01781KA2120N-02531MA1999999070111MD1710031-0261MW1001OC100591OD139900591196REMSYN004BUFR
0277527870999992024012203004+37200+102867FM-12+304499999V0203401N006019999999N030000199-01641-01791104431ADDAA106000091AA212000091AA324000091AJ100013100010099AY101021AY201021KA1240M-01561KA2240N-02251MA1999999070131MD1210021+9999MW1001OD139900701999REMSYN12452787 04980 /3406 11164 21179 37013 40443 52002 60002 70000 333 11156 21225 3/126 4/001 54406 59037 60001 70000 90720 91107=
0277527870999992024012206004+37200+102867FM-12+304499999V0203501N006019999999N030000199-01341-02101103981ADDAA106000091AA212000091AA324000021AJ100013100010099AY101021AY201021KA1240M-01321KA2240N-02251MA1999999070041MD1710091+9999MW1001OD139900701999REMSYN12452787 04980 /3506 11134 21210 37004 40398 57009 60002 70000 333 11132 21225 3/126 4/001 54406 59042 60001 79999 90720 91107=
0277527870999992024012209004+37200+102867FM-12+304499999V0203601N007019999999N030000199-01661-02321104181ADDAA106000091AA212000091AA324000091AJ100013100010099AY101021AY201021KA1240M-01221KA2240N-02251MA1999999070071MD1210031+9999MW1001OD139901101999REMSYN12452787 04980 /3607 11166 21232 37007 40418 52003 60002 70000 333 11122 21225 3/126 4/001 54405 59041 60001 70000 90720 91111=
0271527870999992024012212004+37200+102867FM-12+304499999V0203401N003019999999N030000199-02041-02431104611ADDAA106000091AA212000091AA324000021AJ100013100010099AY101021AY201021KA1240M-01221KA2240N-02251MA1999999070231MD1210161-0341MW1001OD139901101999REMSYN11852787 04980 /3403 11204 21243 37023 40461 52016 60002 70000 333 11122 21225 3/126 4/001 59034 60001 79999 90720 91111=
0277527870999992024012218004+37200+102867FM-12+304499999V0202201N004019999999N030000199-01941-02081104071ADDAA106000331AA212000331AA324000331AJ100013100010099AY101021AY201021KA1120M-01221KA2120N-02141MA1999999070191MD1710061+9999MW1701OD139901101999REMSYN12452787 04980 /2204 11194 21208 37019 40407 57006 69932 77000 333 11122 21214 3/118 4/001 54405 59012 69931 70003 90720 91111=
0166527870999992024012300004+37200+102870FM-12+304499999V0202111N0053199999999030000199-02331-02571105001ADDAA124000431AA299000131AJ100003100000099AY101999AY201999IA2999-02239KA1120M-01221KA2120N-02351MA1999999070231MD1210091+0121MW1701OC100861OD139900861218REMSYN004BUFR
0296527870999992024012303004+37200+102867FM-12+304499999V0202201N009019999999N030000199-01971-02121104691ADDAA106999999AA212000431AA324000431AJ100013100010099AY101021AY201021KA1240M-01221KA2240N-02351MA1999999070281MD1210051+9999MW1701OD139901201999REMSYN12452787 04980 /2209 11197 21212 37028 40469 52005 69942 77000 333 11122 21235 3/122 4/001 54415 58015 60001 70004 90720 91112=EQDQ01  00002PRCP06
0166527870999992024012306004+37200+102870FM-12+304499999V0202091N0101199999999030000199-01671-01801104261ADDAA124000431AA299999999AJ100003100000099AY171999AY201999IA2999-02239KA1120M-01221KA2120N-02351MA1999999070141MD1710141+0101MW1701OC101391OD139901391212REMSYN004BUFR
0277527870999992024012309004+37200+102867FM-12+304499999V0202101N010019999999N030000199-01551-01911104331ADDAA106000091AA212000091AA324000431AJ100013100010099AY101021AY201021KA1240M-01531KA2240N-02351MA1999999070131MD1710011+9999MW1001OD139901401999REMSYN12452787 04980 /2110 11155 21191 37013 40433 57001 60002 70000 333 11153 21235 3/122 4/001 54405 58006 60001 70004 90720 91114=
0166527870999992024012312004+37200+102870FM-12+304499999V0201941N0097199999999030000199-01871-02201104911ADDAA124000431AA299999999AJ100019100010099AY171999AY201999IA2999-02239KA1120M-01531KA2120N-02351MA1999999070261MD1210131+0031MW1701OC101391OD139901391212REMSYN004BUFR
0312527870999992024012318004+37200+102867FM-12+304499999V0202201N006019999999N030000199-02091-02261104581ADDAA106999999AA212999999AA324000131AJ100013100010099AY101021AY201021KA1120M-01531KA2120N-02351MA1999999070281MD1710041+9999MW1701OD139901301999REMSYN12452787 04980 /2206 11209 21226 37028 40458 57004 60002 77000 333 11153 21235 3/121 4/001 54415 58009 60001 70001 90720 91113=EQDQ01  00002PRCP06Q02  00002PRCP12
0255527870999992024012321004+37200+102867FM-12+304499999V0202201N002019999999N030000199-02141-02341104501ADDAA106000091AA212000091AA324000091AJ100013100010099KA1240M-01531KA2240N-02351MA1999999070261MD1710021+0121MW1001OD139901301999REMSYN11852787 04980 /2202 11214 21234 37026 40450 57002 60002 700// 333 11153 21235 3/122 4/001 58012 60001 70000 90720 91113=
0166527870999992024012400004+37200+102870FM-12+304499999V0203581N0020199999999030000199-02071-02341104741ADDAA124010091AA299999999AJ199999999999999AY101999AY201999IA2999-02329KA1120M-01531KA2120N-02351MA1999999070291MD1210031+0061MW1001OC101251OD139901251191REMSYN004BUFR
0277527870999992024012403004+37200+102867FM-12+304499999V0200101N007019999999N030000199-01641-01981104631ADDAA106000091AA212000091AA324000091AJ100013100010099AY101021AY201021KA1240M-01531KA2240N-02241MA1999999070371MD1210081+9999MW1001OD139901201999REMSYN12452787 04980 /0107 11164 21198 37037 40463 52008 60002 70000 333 11153 21224 3/123 4/001 54405 58009 60001 70000 90720 91112=
0277527870999992024012406004+37200+102867FM-12+304499999V0200401N008019999999N030000199-01221-02031104141ADDAA106000091AA212000091AA324000021AJ100013100010099AY101021AY201021KA1240M-01211KA2240N-02241MA1999999070221MD1710151+9999MW1001OD139901101999REMSYN12452787 04980 /0408 11122 21203 37022 40414 57015 60002 70000 333 11121 21224 3/123 4/001 54405 58008 60001 79999 90720 91111=
0271527870999992024012409004+37200+102867FM-12+304499999V0200101N009019999999N030000199-01551-02151104471ADDAA106000091AA212000091AA324000091AJ100013100010099AY101021AY201021KA1240M-01191KA2240N-02241MA1999999070241MD1210021+0111MW1001OD139901201999REMSYN11852787 04980 /0109 11155 21215 37024 40447 52002 60002 70000 333 11119 21224 3/123 4/001 58011 60001 70000 90720 91112=
0277527870999992024012412004+37200+102867FM-12+304499999V0203401N005019999999N030000199-02021-02351104951ADDAA106000091AA212000091AA324000021AJ100013100010099AY101021AY201021KA1240M-01191KA2240N-02241MA1999999070351MD1210111+9999MW1001OD139901201999REMSYN12452787 04980 /3405 11202 21235 37035 40495 52011 60002 70000 333 11119 21224 3/123 4/001 54415 58009 60001 79999 90720 91112=
0277527870999992024012418004+37200+102867FM-12+304499999V0202201N003019999999N030000199-01761-02301104051ADDAA106000091AA212000091AA324000091AJ100013100010099AY101021AY201021KA1120M-01191KA2120N-02191MA1999999070331MD1710051+9999MW1001OD139901201999REMSYN12452787 04980 /2203 11176 21230 37033 40405 57005 60002 70000 333 11119 21219 3/124 4/001 54405 58005 60001 70000 90720 91112=
0261527870999992024012421004+37200+102867FM-12+304499999V0200101N002019999999N030000199-02031-02301104411ADDAA106000091AA212000091AA324000091AJ100013100010099KA1240M-01191KA2240N-02191MA1999999070261MD1710071+9999MW1001OD139901201999REMSYN12452787 04980 /0102 11203 21230 37026 40441 57007 60002 700// 333 11119 21219 3/124 4/001 54405 58000 60001 70000 90720 91112=
0277527870999992024012500004+37200+102867FM-12+304499999V0203501N005019999999N030000199-02151-02321104911ADDAA106000091AA212000091AA324000091AJ100013100010099AY101021AY201021KA1120M-01191KA2120N-02191MA1999999070281MD1210021+9999MW1001OD139900601999REMSYN12452787 04980 /3505 11215 21232 37028 40491 52002 60002 70000 333 11119 21219 3/124 4/001 54415 59001 60001 70000 90720 91106=
0277527870999992024012503004+37200+102867FM-12+304499999V0200101N003019999999N030000199-01861-02021104871ADDAA106000091AA212000091AA324000091AJ100013100010099AY101021AY201021KA1240M-01191KA2240N-02171MA1999999070391MD1210111+9999MW1001OD139900601999REMSYN12452787 04980 /0103 11186 21202 37039 40487 52011 60002 70000 333 11119 21217 3/124 4/001 54415 58002 60001 70000 90720 91106=
0166527870999992024012506004+37200+102870FM-12+304499999V0200131N0057199999999030000199-01651-01931104251ADDAA124010091AA299999999AJ199999999999999AY171999AY201999IA2999-02199KA1120M-01191KA2120N-02171MA1999999070241MD1710151+0021MW1001OC100731OD139900731014REMSYN004BUFR
0277527870999992024012509004+37200+102867FM-12+304499999V0200201N006019999999N030000199-01831-02091104601ADDAA106000091AA212000091AA324000091AJ100013100010099AY101021AY201021KA1240M-01551KA2240N-02171MA1999999070241MD1410001+9999MW1001OD139900901999REMSYN12452787 04980 /0206 11183 21209 37024 40460 54000 60002 70000 333 11155 21217 3/122 4/001 54415 58000 60001 70000 90720 91109=
0296527870999992024012512004+37200+102867FM-12+304499999V0203601N006019999999N030000199-02141-02331105161ADDAA106999999AA212000021AA324000021AJ100013100010099AY101021AY201021KA1240M-01591KA2240N-02191MA1999999070381MD1210141+9999MW1701OD139900901999REMSYN12452787 04980 /3606 11214 21233 37038 40516 52014 69902 77000 333 11159 21219 3/122 4/001 54415 58003 60001 79999 90720 91109=EQDQ01  00002PRCP06
0277527870999992024012518004+37200+102867FM-12+304499999V0201901N004019999999N030000199-02231-02441104561ADDAA106000091AA212000091AA324000091AJ100013100010099AY101021AY201021KA1120M-01591KA2120N-02251MA1999999070201MD1710151+9999MW1001OD139900901999REMSYN12452787 04980 /1904 11223 21244 37020 40456 57015 60002 70000 333 11159 21225 3/125 4/001 54415 59013 60001 70000 90720 91109=
0261527870999992024012521004+37200+102867FM-12+304499999V0202201N002019999999N030000199-01961-02581104351ADDAA106000091AA212000091AA324000091AJ100013100010099KA1240M-01591KA2240N-02251MA1999999070111MD1710091+9999MW1001OD139900901999REMSYN12452787 04980 /2202 11196 21258 37011 40435 57009 60002 700// 333 11159 21225 3/125 4/001 54405 59015 60001 70000 90720 91109=
0277527870999992024012600004+37200+102867FM-12+304499999V0201701N001019999999N030000199-01721-03181104451ADDAA106000091AA212000091AA324000021AJ100013100010099AY101021AY201021KA1120M-01561KA2120N-02251MA1999999070141MD1210031+9999MW1001OD139900901999REMSYN12452787 04980 /1701 11172 21318 37014 40445 52003 60002 70000 333 11156 21225 3/128 4/001 54405 59014 60001 79999 90720 91109=
0277527870999992024012603004+37200+102867FM-12+304499999V0200301N006019999999N030000199-01171-03021104051ADDAA106000091AA212000091AA324000091AJ100013100010099AY101021AY201021KA1240M-01171KA2240N-02251MA1999999070141MD1410001+9999MW1001OD139900901999REMSYN12452787 04980 /0306 11117 21302 37014 40405 54000 60002 70000 333 11117 21225 3/128 4/001 54407 59025 60001 70000 90720 91109=
0277527870999992024012606004+37200+102867FM-12+304499999V0200301N011019999999N030000199-01241-02301104011ADDAA106000091AA212000091AA324000091AJ100013100010099AY101021AY201021KA1240M-00981KA2240N-02251MA1999999070051MD1710091+9999MW1001OD139901501999REMSYN12452787 04980 /0311 11124 21230 37005 40401 57009 60002 70000 333 11098 21225 3/128 4/001 54405 59019 60001 70000 90720 91115=
0254527870999992024012609004+37200+102867FM-12+304499999V0200501N010019999999N030000199-01511-02631104301ADDAA106000091AA212000091AA324000091AY101021AY201021KA1240M-00981KA2240N-02251MA1999999070241MD1210191+9999MW1001OD139901601999REMSYN11852787 04980 /0510 11151 21263 37024 40430 52019 60002 70000 333 11098 21225 3/128 54405 58000 60001 70000 90720 91116=
0277527870999992024012612004+37200+102867FM-12+304499999V0200101N004019999999N030000199-01921-02891104671ADDAA106000091AA212000091AA324000091AJ100013100010099AY101021AY201021KA1240M-00981KA2240N-02251MA1999999070401MD1210161+9999MW1001OD139901601999REMSYN12452787 04980 /0104 11192 21289 37040 40467 52016 60002 70000 333 11098 21225 3/127 4/001 54405 58002 60001 70000 90720 91116=
0277527870999992024012618004+37200+102867FM-12+304499999V0202101N002019999999N030000199-01661-03601103971ADDAA106000091AA212000091AA324000091AJ100013100010099AY101021AY201021KA1120M-00981KA2120N-02201MA1999999070321MD1710081+9999MW1001OD139901601999REMSYN12452787 04980 /2102 11166 21360 37032 40397 57008 60002 70000 333 11098 21220 3/127 4/001 54406 58012 60001 70000 90720 91116=
0261527870999992024012621004+37200+102867FM-12+304499999V0202101N003019999999N030000199-01491-03581103951ADDAA106000091AA212000091AA324000091AJ100013100010099KA1240M-00981KA2240N-02081MA1999999070251MD1710071+9999MW1001OD139901601999REMSYN12452787 04980 /2103 11149 21358 37025 40395 57007 60002 700// 333 11098 21208 3/127 4/001 54405 58014 60001 70000 90720 91116=
0277527870999992024012700004+37200+102867FM-12+304499999V0202301N002019999999N030000199-01181-03561103991ADDAA106000091AA212000091AA324000091AJ100013100010099AY101021AY201021KA1120M-00981KA2120N-02081MA1999999070231MD1710021+9999MW1001OD139901001999REMSYN12452787 04980 /2302 11118 21356 37023 40399 57002 60002 70000 333 11098 21208 3/127 4/001 54405 58009 60001 70000 90720 91110=
0277527870999992024012703004+37200+102867FM-12+304499999V0203601N002019999999N030000199-00681-03151103461ADDAA106000091AA212000091AA324000091AJ100013100010099AY101021AY201021KA1240M-00671KA2240N-02081MA1999999070311MD1210081+9999MW1001OD139900501999REMSYN12452787 04980 /3602 11068 21315 37031 40346 52008 60002 70000 333 11067 21208 3/127 4/001 54405 58017 60001 70000 90720 91105=
0254527870999992024012706004+37200+102867FM-12+304499999V0202401N004019999999N029000199-00391-03111103171ADDAA106000091AA212000091AA324000091AY101021AY201021KA1240M-00321KA2240N-02081MA1999999070211MD1710101+9999MW1001OD139900701999REMSYN11852787 04979 /2404 11039 21311 37021 40317 57010 60002 70000 333 11032 21208 3/127 54409 58016 60001 70000 90720 91107=
0254527870999992024012709004+37200+102867FM-12+304499999V0200501N006019999999N029000199-00591-03001103331ADDAA106000091AA212000091AA324000091AY101021AY201021KA1240M-00261KA2240N-02081MA1999999070301MD1210091+9999MW1001OD139901101999REMSYN11852787 04979 /0506 11059 21300 37030 40333 52009 60002 70000 333 11026 21208 3/127 54409 58006 60001 70000 90720 91111=
0254527870999992024012712004+37200+102867FM-12+304499999V0203501N002019999999N030000199-01291-02731103851ADDAA106000091AA212000091AA324000091AY101021AY201021KA1240M-00261KA2240N-01921MA1999999070461MD1210161+9999MW1001OD139901101999REMSYN11852787 04980 /3502 11129 21273 37046 40385 52016 60002 70000 333 11026 21192 3/126 54406 58006 60001 70000 90720 91111=
0254527870999992024012718004+37200+102867FM-12+304499999V0202101N005019999999N030000199-01531-03091103271ADDAA106000091AA212000091AA324000091AY101021AY201021KA1120M-00261KA2120N-01711MA1999999070341MD1710131+9999MW1001OD139901101999REMSYN11852787 04980 /2105 11153 21309 37034 40327 57013 60002 70000 333 11026 21171 3/124 54405 58002 60001 70000 90720 91111=
0232527870999992024012721004+37200+102867FM-12+304499999V0202101N005019999999N030000199-01461-02991103131ADDAA106000091AA212000091AA324000091KA1240M-00261KA2240N-01641MA1999999070181MD1710161-0071MW1001OD139901001999REMSYN11252787 04980 /2105 11146 21299 37018 40313 57016 60002 700// 333 11026 21164 3/124 59007 60001 70000 90720 91110=
0254527870999992024012800004+37200+102867FM-12+304499999V0201901N003019999999N030000199-01281-03171103461ADDAA106000091AA212000091AA324000091AY101021AY201021KA1120M-00261KA2120N-01581MA1999999070141MD1710041+9999MW1001OD139900701999REMSYN11852787 04980 /1903 11128 21317 37014 40346 57004 60002 70000 333 11026 21158 3/124 54415 59009 60001 70000 90720 91107=
0254527870999992024012803004+37200+102867FM-12+304499999V0200201N005019999999N030000199-00741-02551103031ADDAA106000091AA212000091AA324000091AY101021AY201021KA1240M-00261KA2240N-01581MA1999999070151MD1210011+9999MW1001OD139900701999REMSYN11852787 04980 /0205 11074 21255 37015 40303 52001 60002 70000 333 11026 21158 3/123 54415 59016 60001 70000 90720 91107=
0248527870999992024012806004+37200+102867FM-12+304499999V0200501N008019999999N028000199-00391-02831102801ADDAA106000091AA212000091AA324000091AY101021AY201021KA1240M-00261KA2240N-01581MA1999999070021MD1710131-0191MW1001OD139901101999REMSYN11252787 04978 /0508 11039 21283 37002 40280 57013 60002 70000 333 11026 21158 3/122 59019 60001 70000 90720 91111=
0254527870999992024012809004+37200+102867FM-12+304499999V0200801N008019999999N029000199-00511-03211102871ADDAA106000091AA212000091AA324000091AY101021AY201021KA1240M-00371KA2240N-01581MA1999999070041MD1210021+9999MW1001OD139901301999REMSYN11852787 04979 /0808 11051 21321 37004 40287 52002 60002 70000 333 11037 21158 3/122 54405 59026 60001 70000 90720 91113=
0254527870999992024012812004+37200+102867FM-12+304499999V0202201N005019999999N030000199-01001-03111103211ADDAA106000091AA212000091AA324000091AY101021AY201021KA1240M-00371KA2240N-01581MA1999999070121MD1210081+9999MW1001OD139901301999REMSYN11852787 04980 /2205 11100 21311 37012 40321 52008 60002 70000 333 11037 21158 3/122 54405 59034 60001 70000 90720 91113=
0254527870999992024012818004+37200+102867FM-12+304499999V0202001N006019999999N030000199-01221-02871102501ADDAA106000091AA212000091AA324000091AY101021AY201021KA1120M-00371KA2120N-01581MA1999999069971MD1710131+9999MW1001OD139901301999REMSYN11852787 04980 /2006 11122 21287 36997 40250 57013 60002 70000 333 11037 21158 3/118 54405 59037 60001 70000 90720 91113=
0238527870999992024012821004+37200+102867FM-12+304499999V0201901N003019999999N030000199-01181-02831102311ADDAA106000091AA212000091AA324000091KA1240M-00371KA2240N-01491MA1999999069801MD1710171+9999MW1001OD139901001999REMSYN11852787 04980 /1903 11118 21283 36980 40231 57017 60002 700// 333 11037 21149 3/119 54405 59038 60001 70000 90720 91110=
0166527870999992024012900004+37200+102870FM-12+304499999V0202091N0029199999999030000199-01151-02851102501ADDAA124000091AA299999999AJ199999999999999AY101999AY201999IA2999-01919KA1120M-00371KA2120N-01331MA1999999069701MD1710101-0441MW1001OC100851OD139900851224REMSYN004BUFR
0254527870999992024012903004+37200+102867FM-12+304499999V0202101N003019999999N028000199-00351-02511101981ADDAA106000091AA212000091AA324000091AY101021AY201021KA1240M-00351KA2240N-01301MA1999999069671MD1710031+9999MW1001OD139900901999REMSYN11852787 04978 /2103 11035 21251 36967 40198 57003 60002 70000 333 11035 21130 3/119 54405 59048 60001 70000 90720 91109=
0254527870999992024012906004+37200+102867FM-12+304499999V0203401N008019999999N027000199+00091-02981101461ADDAA106000091AA212000091AA324000091AY101021AY201021KA1240M+00221KA2240N-01301MA1999999069491MD1710181+9999MW1001OD139901301999REMSYN11852787 04977 /3408 10009 21298 36949 40146 57018 60002 70000 333 10022 21130 3/119 54405 59053 60001 70000 90720 91113=
0254527870999992024012909004+37200+102867FM-12+304499999V0203601N007019999999N028000199-00221-02221101671ADDAA106000091AA212000091AA324000091AY101021AY201021KA1240M+00221KA2240N-01301MA1999999069501MD1210011+9999MW1001OD139901401999REMSYN11852787 04978 /3607 11022 21222 36950 40167 52001 60002 70000 333 10022 21130 3/119 54405 59054 60001 70000 90720 91114=
0254527870999992024012912004+37200+102867FM-12+304499999V0203501N005019999999N030000199-00901-02111102351ADDAA106000091AA212000091AA324000091AY101021AY201021KA1240M+00221KA2240N-01301MA1999999069651MD1210151+9999MW1001OD139901401999REMSYN11852787 04980 /3505 11090 21211 36965 40235 52015 60002 70000 333 10022 21130 3/119 54405 59047 60001 70000 90720 91114=
0166527870999992024012918004+37200+102870FM-12+304499999V0200741N0097199999999030000199-00741-02321101581ADDAA124000091AA299999999AJ199999999999999AY101999AY201999IA2999-01649KA1120M+00221KA2120N-01381MA1999999069801MD1210041-0171MW1001OC101431OD139901431072REMSYN004BUFR
0238527870999992024012921004+37200+102867FM-12+304499999V0203401N004019999999N030000199-01041-02401102021ADDAA106000091AA212000091AA324000091KA1240M+00221KA2240N-01381MA1999999069811MD1210011+9999MW1001OD139901401999REMSYN11852787 04980 /3404 11104 21240 36981 40202 52001 60002 700// 333 10022 21138 3/117 54405 58001 60001 70000 90720 91114=
0166527870999992024013000004+37200+102870FM-12+304499999V0202081N0032199999999030000199-01051-02551102591ADDAA124000091AA299999999AJ199999999999999AY101999AY201999IA2999-02009KA1120M+00221KA2120N-01381MA1999999069861MD1210051+0161MW1001OC101431OD139901431072REMSYN004BUFR
0248527870999992024013003004+37200+102867FM-12+304499999V0202201N004019999999N029000199-00381-02411102421ADDAA106000091AA212000091AA324000091AY101021AY201021KA1240M+00221KA2240N-01381MA1999999069901MD1210041+0231MW1001OD139901401999REMSYN11252787 04979 /2204 11038 21241 36990 40242 52004 60002 70000 333 10022 21138 3/120 58023 60001 70000 90720 91114=
0254527870999992024013006004+37200+102867FM-12+304499999V0202001N008019999999N027000199-00121-02391101622ADDAA106000091AA212000091AA324000091AY101021AY201021KA1240M+00181KA2240N-01381MA1999999069731MD1710171+9999MW1001OD139901201999REMSYN11852787 04977 /2008 11012 21239 36973 40162 57017 60002 70000 333 10018 21138 3/120 54415 58024 60001 70000 90720 91112=
0248527870999992024013009004+37200+102867FM-12+304499999V0202101N005019999999N028000199-00241-02291101991ADDAA106000091AA212000091AA324000091AY101021AY201021KA1240M-00101KA2240N-01381MA1999999069781MD1210051+0281MW1001OD139901301999REMSYN11252787 04978 /2105 11024 21229 36978 40199 52005 60002 70000 333 11010 21138 3/120 58028 60001 70000 90720 91113=
0254527870999992024013012004+37200+102867FM-12+304499999V0203401N004019999999N030000199-00961-02101102751ADDAA106000091AA212000091AA324000091AY101021AY201021KA1240M-00101KA2240N-01381MA1999999069941MD1210161+9999MW1001OD139901301999REMSYN11852787 04980 /3404 11096 21210 36994 40275 52016 60002 70000 333 11010 21138 3/119 54415 58029 60001 70000 90720 91113=
0254527870999992024013018004+37200+102867FM-12+304499999V0202301N002019999999N030000199-00851-02191101931ADDAA106000091AA212000091AA324000091AY101021AY201021KA1120M-00101KA2120N-01181MA1999999069891MD1710071+9999MW1001OD139901301999REMSYN11852787 04980 /2302 11085 21219 36989 40193 57007 60002 70000 333 11010 21118 3/114 54415 58009 60001 70000 90720 91113=
0238527870999992024013021004+37200+102867FM-12+304499999V0202101N002019999999N030000199-00901-01991101881ADDAA106000091AA212000091AA324000091KA1240M-00101KA2240N-01181MA1999999069771MD1710121+9999MW1001OD139900901999REMSYN11852787 04980 /2102 11090 21199 36977 40188 57012 60002 700// 333 11010 21118 3/114 54405 59004 60001 70000 90720 91109=
0166527870999992024013100004+37200+102870FM-12+304499999V0202211N0013199999999030000199-01091-01951102481ADDAA124000091AA299999999AJ199999999999999AY101999AY201999IA2999-01649KA1120M-00101KA2120N-01121MA1999999069741MD1710031-0121MW1001OC100571OD139900571345REMSYN004BUFR
0254527870999992024013103004+37200+102867FM-12+304499999V0202101N007019999999N030000199-00661-01611102121ADDAA106000091AA212000091AA324000091AY101021AY201021KA1240M-00101KA2240N-01111MA1999999069741MD1410001+9999MW1001OD139900901999REMSYN11852787 04980 /2107 11066 21161 36974 40212 54000 60002 70000 333 11010 21111 3/117 54415 59016 60001 70000 90720 91109=
0254527870999992024013106004+37200+102867FM-12+304499999V0202101N006019999999N030000199-00531-01651101831ADDAA106000091AA212000091AA324000091AY101021AY201021KA1240M-00101KA2240N-01111MA1999999069621MD1710121+9999MW1001OD139901201999REMSYN11852787 04980 /2106 11053 21165 36962 40183 57012 60002 70000 333 11010 21111 3/117 54415 59011 60001 70000 90720 91112=
0305527870999992024013109004+37200+102867FM-12+304499999V0203001N002019999999N030000199-00641-01541101971ADDAA106999999AA212999999AA324999999AY101021AY201021KA1240M-00231KA2240N-01111MA1999999069641MD1210021+9999MW1701OD139901201999REMSYN11852787 04980 /3002 11064 21154 36964 40197 52002 60002 77000 333 11023 21111 3/117 54415 59014 60001 70000 90720 91112=EQDQ01  00002PRCP06Q02  00002PRCP12Q03  00002PRCP24
0254527870999992024013112004+37200+102867FM-12+304499999V0203601N003019999999N028000199-01191-01261102872ADDAA106000131AA212000131AA324000131AY171021AY201021KA1240M-00501KA2240N-01191MA1999999069891MD1210251+9999MW1701OD139901201999REMSYN11852787 04978 /3603 11119 21126 36989 40287 52025 69912 77070 333 11050 21119 3/117 54415 59005 69911 70001 90720 91112=
0277527870999992024013118004+37200+102867FM-12+304499999V0202201N006019999999N015000199-01281-01361102591ADDAA106000531AA212000631AA324000631AJ100013100010099AY101021AY201021KA1120M-00501KA2120N-01311MA1999999069931MD1710031+9999MW1701OD139900901999REMSYN12452787 04965 /2206 11128 21136 36993 40259 57003 69962 77000 333 11050 21131 3/114 4/001 54415 58004 69951 70006 90720 91109=
0238527870999992024013121004+37200+102867FM-12+304499999V0202101N003019999999N007000199-01301-01391102591ADDAA106000131AA212000631AA324000631KA1240M-00501KA2240N-01391MA1999999069871MD1710061+9999MW1001OD139900801999REMSYN11852787 04957 /2103 11130 21139 36987 40259 57006 69962 700// 333 11050 21139 3/116 54415 58010 69911 70006 90720 91108=
0277527870999992024020100004+37200+102867FM-12+304499999V0201901N003019999999N007000199-01261-01351103011ADDAA106000091AA212000531AA324000631AJ100013100010099AY101021AY201021KA1120M-00501KA2120N-01411MA1999999069901MD1210031+9999MW1101OD139900801999REMSYN12452787 04957 /1903 11126 21135 36990 40301 52003 69952 71000 333 11050 21141 3/117 4/001 54415 58016 60001 70006 90720 91108=
0254527870999992024020103004+37200+102867FM-12+304499999V0202201N004019999999N026000199-00871-01141102771ADDAA106000091AA212000131AA324000631AY101021AY201021KA1240M-00501KA2240N-01411MA1999999069941MD1210041+9999MW1001OD139900801999REMSYN11852787 04976 /2204 11087 21114 36994 40277 52004 69912 70000 333 11050 21141 3/117 54415 58020 60001 70006 90720 91108=
0254527870999992024020106004+37200+102867FM-12+304499999V0202201N006019999999N030000199-00231-01241102211ADDAA106000091AA212000091AA324000631AY101021AY201021KA1240M-00201KA2240N-01411MA1999999069821MD1710121+9999MW1001OD139901001999REMSYN11852787 04980 /2206 11023 21124 36982 40221 57012 60002 70000 333 11020 21141 3/117 54405 58020 60001 70006 90720 91110=
0254527870999992024020109004+37200+102867FM-12+304499999V0200101N004019999999N030000199-00541-01041102421ADDAA106000091AA212000091AA324000631AY101021AY201021KA1240M-00041KA2240N-01411MA1999999069801MD1710021+9999MW1001OD139901001999REMSYN11852787 04980 /0104 11054 21104 36980 40242 57002 60002 70000 333 11004 21141 3/117 54405 58016 60001 70006 90720 91110=
0248527870999992024020112004+37200+102867FM-12+304499999V0203401N002019999999N030000199-01161-01241102991ADDAA106000091AA212000091AA324000531AY101021AY201021KA1240M-00041KA2240N-01411MA1999999069901MD1210101+0011MW1001OD139901001999REMSYN11252787 04980 /3402 11116 21124 36990 40299 52010 60002 70000 333 11004 21141 3/116 58001 60001 70005 90720 91110=
0277527870999992024020118004+37200+102867FM-12+304499999V0202201N006019999999N018000199-01061-01111101851ADDAA106000731AA212000731AA324000731AJ100013100010099AY101021AY201021KA1120M-00041KA2120N-01411MA1999999069681MD1710181+9999MW1701OD139900901999REMSYN12452787 04968 /2206 11106 21111 36968 40185 57018 69972 77000 333 11004 21141 3/114 4/001 54405 59025 69971 70007 90720 91109=
0158527870999992024020121004+37200+102870FM-12+304499999V0202141N0040199999999024200199-01071-01151101941ADDAA124002731AJ100003100003099IA2999-01409KA1120M-00041KA2120N-01411MA1999999069581MD1710101-0291MW1701OC100701OD139900701219REMSYN004BUFREQDQ01  00273PRCP99
0166527870999992024020200004+37200+102870FM-12+304499999V0201791N0020199999999030000199-01201-01291102531ADDAA124003331AA299002631AJ100003100003099AY171999AY201999IA2999-01409KA1120M-00041KA2120N-01301MA1999999069611MD1210031-0291MW1701OC100701OD139900701219REMSYN004BUFR
0277527870999992024020203004+37200+102867FM-12+304499999V0203601N003019999999N030000199-01231-01311102731ADDAA106000731AA212003031AA324003431AJ100023100020099AY101021AY201021KA1240M-00041KA2240N-01391MA1999999069741MD1210131+9999MW1701OD139900701999REMSYN12452787 04980 /3603 11123 21131 36974 40273 52013 60032 77000 333 11004 21139 3/111 4/002 54415 59020 69971 70034 90720 91107=
0166527870999992024020206004+37200+102870FM-12+304499999V0200051N0034199999999030000199-01001-01161102431ADDAA124003431AA299000131AJ100003100003099AY171999AY201999IA2999-01129KA1120M-00041KA2120N-01391MA1999999069701MD1710041-0121MW1701OC100701OD139900701219REMSYN004BUFR
0296527870999992024020209004+37200+102867FM-12+304499999V0200301N007019999999N030000199-01221-01321102771ADDAA106999999AA212000731AA324003431AJ100033100030099AY101021AY201021KA1240M-00551KA2240N-01391MA1999999069811MD1210111+9999MW1701OD139901101999REMSYN12452787 04980 /0307 11122 21132 36981 40277 52011 69972 77000 333 11055 21139 3/111 4/003 54417 58001 60001 70034 90720 91111=EQDQ01  00002PRCP06
0277527870999992024020212004+37200+102867FM-12+304499999V0200401N008019999999N030000199-01341-01511103241ADDAA106000231AA212000331AA324003631AJ100033100030099AY171021AY271021KA1240M-00821KA2240N-01471MA1999999070001MD1210191+9999MW1701OD139901101999REMSYN12452787 04980 /0408 11134 21151 37000 40324 52019 69932 77077 333 11082 21147 3/111 4/003 54415 58010 69921 70036 90720 91111=
0296527870999992024020218004+37200+102867FM-12+304499999V0202101N006019999999N030000199-01401-01491103121ADDAA106999999AA212000231AA324002931AJ100033100030099AY101021AY201021KA1120M-00821KA2120N-01551MA1999999070001MD1710131+9999MW1701OD139901301999REMSYN12452787 04980 /2106 11140 21149 37000 40312 57013 69922 77000 333 11082 21155 3/110 4/003 54415 58032 60001 70029 90720 91113=EQDQ01  00002PRCP06
0280527870999992024020221004+37200+102867FM-12+304499999V0202101N003019999999N029000199-01351-01441103071ADDAA106999999AA212000231AA324000931AJ100033100030099KA1240M-00821KA2240N-01551MA1999999069881MD1710121+9999MW1701OD139901301999REMSYN12452787 04979 /2103 11135 21144 36988 40307 57012 69922 770// 333 11082 21155 3/110 4/003 54415 58030 60001 70009 90720 91113=EQDQ01  00002PRCP06
0166527870999992024020300004+37200+102870FM-12+304499999V0201961N0101199999999030000199-01351-01441103181ADDAA124001431AA299001131AJ100003100001099AY101999AY201999IA2999-01039KA1120M-00821KA2120N-01551MA1999999069891MD1210011+0281MW1701OC101291OD139901291035REMSYN004BUFR
0277527870999992024020303004+37200+102867FM-12+304499999V0201901N010019999999N030000199-01311-01411103221ADDAA106001031AA212001031AA324001531AJ100043100040099AY101021AY201021KA1240M-00821KA2240N-01551MA1999999069871MD1710021+9999MW1701OD139901301999REMSYN12452787 04980 /1910 11131 21141 36987 40322 57002 60012 77000 333 11082 21155 3/110 4/004 54415 58013 60011 70015 90720 91113=
0277527870999992024020306004+37200+102867FM-12+304499999V0202201N009019999999N030000199-01181-01331102861ADDAA106000331AA212001031AA324001631AJ100043100040099AY171021AY271021KA1240M-00991KA2240N-01551MA1999999069731MD1710141+9999MW1701OD139901301999REMSYN12452787 04980 /2209 11118 21133 36973 40286 57014 60012 77077 333 11099 21155 3/110 4/004 54415 58003 69931 70016 90720 91113=
0271527870999992024020309004+37200+102867FM-12+304499999V0202101N007019999999N030000199-01201-01251102751ADDAA106000131AA212001031AA324001631AJ100033100030099AY101021AY201021KA1240M-01051KA2240N-01551MA1999999069671MD1710061-0141MW1701OD139901301999REMSYN11852787 04980 /2107 11120 21125 36967 40275 57006 60012 77000 333 11105 21155 3/109 4/003 59014 69911 70016 90720 91113=
0271527870999992024020312004+37200+102867FM-12+304499999V0200701N010019999999N030000199-01381-01471103121ADDAA106000021AA212000331AA324001431AJ100033100030099AY171021AY201021KA1240M-01051KA2240N-01551MA1999999069831MD1210161-0171MW1701OD139901401999REMSYN11852787 04980 /0710 11138 21147 36983 40312 52016 69932 77070 333 11105 21155 3/110 4/003 59017 69901 70014 90720 91114=
0277527870999992024020318004+37200+102867FM-12+304499999V0200701N006019999999N030000199-01011-02241102631ADDAA106000091AA212000091AA324001431AJ100033100030099AY101021AY201021KA1120M-01001KA2120N-01511MA1999999069771MD1710121+9999MW1001OD139901401999REMSYN12452787 04980 /0706 11101 21224 36977 40263 57012 60002 70000 333 11100 21151 3/112 4/003 54405 59023 60001 70014 90720 91114=
0261527870999992024020321004+37200+102867FM-12+304499999V0202001N002019999999N030000199-01301-02171102701ADDAA106000091AA212000091AA324001431AJ100033100030099KA1240M-01001KA2240N-01511MA1999999069661MD1710111+9999MW1001OD139901401999REMSYN12452787 04980 /2002 11130 21217 36966 40270 57011 60002 700// 333 11100 21151 3/117 4/003 54405 59022 60001 70014 90720 91114=
0271527870999992024020400004+37200+102867FM-12+304499999V0201901N001019999999N030000199-01351-02241102911ADDAA106000091AA212000021AA324000331AJ100033100030099AY101021AY201021KA1120M-01001KA2120N-01511MA1999999069691MD1210031-0201MW1001OD139901401999REMSYN11852787 04980 /1901 11135 21224 36969 40291 52003 69902 70000 333 11100 21151 3/119 4/003 59020 60001 70003 90720 91114=
0277527870999992024020403004+37200+102867FM-12+304499999V0200101N002019999999N030000199-00831-02141102621ADDAA106000091AA212000091AA324000131AJ100033100030099AY101021AY201021KA1240M-00771KA2240N-01511MA1999999069741MD1210051+9999MW1001OD139900901999REMSYN12452787 04980 /0102 11083 21214 36974 40262 52005 60002 70000 333 11077 21151 3/119 4/003 54405 59013 60001 70001 90720 91109=
0277527870999992024020406004+37200+102867FM-12+304499999V0202101N005019999999N030000199-00671-01691102071ADDAA106000091AA212000091AA324000021AJ100033100030099AY101021AY201021KA1240M-00391KA2240N-01511MA1999999069641MD1710101+9999MW1001OD139900801999REMSYN12452787 04980 /2105 11067 21169 36964 40207 57010 60002 70000 333 11039 21151 3/119 4/003 54405 59009 60001 79999 90720 91108=
0277527870999992024020409004+37200+102867FM-12+304499999V0202301N005019999999N030000199-00751-01641102441ADDAA106000091AA212000091AA324000091AJ100033100030099AY101021AY201021KA1240M-00391KA2240N-01511MA1999999069711MD1210071+9999MW1001OD139900701999REMSYN12452787 04980 /2305 11075 21164 36971 40244 52007 60002 70000 333 11039 21151 3/119 4/003 54405 58004 60001 70000 90720 91107=
0277527870999992024020412004+37200+102867FM-12+304499999V0201901N002019999999N030000199-01101-01751103001ADDAA106000091AA212000091AA324000021AJ100033100030099AY101021AY201021KA1240M-00391KA2240N-01511MA1999999069891MD1210181+9999MW1001OD139900701999REMSYN12452787 04980 /1902 11110 21175 36989 40300 52018 60002 70000 333 11039 21151 3/118 4/003 54405 58006 60001 79999 90720 91107=
0277527870999992024020418004+37200+102867FM-12+304499999V0203401N002019999999N030000199-01401-02291102651ADDAA106000091AA212000091AA324000091AJ100033100030099AY101021AY201021KA1120M-00391KA2120N-01511MA1999999069841MD1710071+9999MW1001OD139900701999REMSYN12452787 04980 /3402 11140 21229 36984 40265 57007 60002 70000 333 11039 21151 3/118 4/003 54415 58007 60001 70000 90720 91107=
0261527870999992024020421004+37200+102867FM-12+304499999V0200101N003019999999N030000199-01571-02401102771ADDAA106000091AA212000091AA324000091AJ100033100030099KA1240M-00391KA2240N-01571MA1999999069801MD1710041+9999MW1001OD139900601999REMSYN12452787 04980 /0103 11157 21240 36980 40277 57004 60002 700// 333 11039 21157 3/119 4/003 54415 58014 60001 70000 90720 91106=
0277527870999992024020500004+37200+102867FM-12+304499999V0203601N006019999999N030000199-01521-02471103161ADDAA106000091AA212000091AA324000091AJ100033100030099AY101021AY201021KA1120M-00391KA2120N-01621MA1999999069911MD1210111+9999MW1001OD139900701999REMSYN12452787 04980 /3606 11152 21247 36991 40316 52011 60002 70000 333 11039 21162 3/119 4/003 54415 58022 60001 70000 90720 91107=
0277527870999992024020503004+37200+102867FM-12+304499999V0200201N008019999999N030000199-01041-02301103091ADDAA106000091AA212000091AA324000091AJ100033100030099AY101021AY201021KA1240M-00391KA2240N-01621MA1999999070021MD1210111+9999MW1001OD139901001999REMSYN12452787 04980 /0208 11104 21230 37002 40309 52011 60002 70000 333 11039 21162 3/119 4/003 54415 58028 60001 70000 90720 91110=
0271527870999992024020506004+37200+102867FM-12+304499999V0200301N008019999999N030000199-00711-02141102871ADDAA106000091AA212000091AA324000091AJ100033100030099AY101021AY201021KA1240M-00591KA2240N-01621MA1999999069971MD1710051+0331MW1001OD139901001999REMSYN11852787 04980 /0308 11071 21214 36997 40287 57005 60002 70000 333 11059 21162 3/119 4/003 58033 60001 70000 90720 91110=
0271527870999992024020509004+37200+102867FM-12+304499999V0200601N006019999999N030000199-00721-02351103061ADDAA106000091AA212000091AA324000091AJ100033100030099AY101021AY201021KA1240M-00611KA2240N-01621MA1999999070011MD1210041+0301MW1001OD139901001999REMSYN11852787 04980 /0606 11072 21235 37001 40306 52004 60002 70000 333 11061 21162 3/119 4/003 58030 60001 70000 90720 91110=
0328527870999992024020512004+37200+102867FM-12+304499999V0201901N006019999999N030000199-01191-01531103621ADDAA106999999AA212999999AA324999999AJ100033100030099AY101021AY201021KA1240M-00611KA2240N-01621MA1999999070181MD1210171+9999MW1221OD139901001999REMSYN12452787 04980 /1906 11119 21153 37018 40362 52017 60002 72200 333 11061 21162 3/118 4/003 54415 58029 60001 70000 90720 91110=EQDQ01  00002PRCP06Q02  00002PRCP12Q03  00002PRCP24
0277527870999992024020518004+37200+102867FM-12+304499999V0202001N004019999999N030000199-01451-01691103201ADDAA106000091AA212000091AA324000091AJ100033100030099AY101021AY201021KA1120M-00611KA2120N-01621MA1999999070171MD1710071+9999MW1001OD139901001999REMSYN12452787 04980 /2004 11145 21169 37017 40320 57007 60002 70000 333 11061 21162 3/117 4/003 54415 58033 60001 70000 90720 91110=
0261527870999992024020521004+37200+102867FM-12+304499999V0202101N004019999999N030000199-01481-01681103111ADDAA106000091AA212000091AA324000091AJ100033100030099KA1240M-00611KA2240N-01621MA1999999070091MD1710081+9999MW1001OD139900801999REMSYN12452787 04980 /2104 11148 21168 37009 40311 57008 60002 700// 333 11061 21162 3/117 4/003 54405 58029 60001 70000 90720 91108=
0271527870999992024020600004+37200+102867FM-12+304499999V0202101N004019999999N030000199-01521-01651103491ADDAA106000091AA212000091AA324000091AJ100033100030099AY101021AY201021KA1120M-00611KA2120N-01561MA1999999070091MD1410001+0181MW1001OD139900701999REMSYN11852787 04980 /2104 11152 21165 37009 40349 54000 60002 70000 333 11061 21156 3/117 4/003 58018 60001 70000 90720 91107=
0277527870999992024020603004+37200+102867FM-12+304499999V0202101N004019999999N030000199-01121-01671103411ADDAA106000091AA212000091AA324000091AJ100033100030099AY101021AY201021KA1240M-00611KA2240N-01551MA1999999070151MD1210061+9999MW1001OD139900701999REMSYN12452787 04980 /2104 11112 21167 37015 40341 52006 60002 70000 333 11061 21155 3/117 4/003 54415 58013 60001 70000 90720 91107=
0277527870999992024020606004+37200+102867FM-12+304499999V0202101N009019999999N030000199-00901-01621103071ADDAA106000091AA212000091AA324000091AJ100033100030099AY101021AY201021KA1240M-00611KA2240N-01551MA1999999069991MD1710161+9999MW1001OD139901201999REMSYN12452787 04980 /2109 11090 21162 36999 40307 57016 60002 70000 333 11061 21155 3/115 4/003 54415 58002 60001 70000 90720 91112=
0277527870999992024020609004+37200+102867FM-12+304499999V0202101N007019999999N030000199-00911-01321103041ADDAA106000091AA212000091AA324000091AJ100033100030099AY101021AY201021KA1240M-00711KA2240N-01551MA1999999069951MD1710041+9999MW1001OD139901201999REMSYN12452787 04980 /2107 11091 21132 36995 40304 57004 60002 70000 333 11071 21155 3/115 4/003 54415 59006 60001 70000 90720 91112=
0166527870999992024020612004+37200+102870FM-12+304499999V0201981N0086199999999030000199-01141-01311103451ADDAA124030091AA299999999AJ199999999999999AY171999AY201999IA2999-01489KA1120M-00841KA2120N-01551MA1999999070091MD1210141-0091MW1701OC101201OD139901201207REMSYN004BUFR
0322527870999992024020618004+37200+102867FM-12+304499999V0202201N007019999999N012000199-01421-01511103091ADDAA106999999AA212999999AA324999999AJ100033100030099AY101021AY201021KA1120M-00841KA2120N-01551MA1999999070021MD1710111-0151MW1701OD139901101999REMSYN11852787 04962 /2207 11142 21151 37002 40309 57011 60002 77000 333 11084 21155 3/113 4/003 59015 60001 70000 90720 91111=EQDQ01  00002PRCP06Q02  00002PRCP12Q03  00002PRCP24
0312527870999992024020621004+37200+102867FM-12+304499999V0202201N006019999999N006000199-01551-01651103011ADDAA106999999AA212999999AA324999999AJ100033100030099KA1240M-00841KA2240N-01581MA1999999069891MD1710131+9999MW1701OD139901001999REMSYN12452787 04956 /2206 11155 21165 36989 40301 57013 60002 770// 333 11084 21158 3/114 4/003 54415 59020 60001 70000 90720 91110=EQDQ01  00002PRCP06Q02  00002PRCP12Q03  00002PRCP24
0290527870999992024020700004+37200+102867FM-12+304499999V0201901N004019999999N003000199-01491-01591103161ADDAA106999999AA212000021AA324000021AJ100033100030099AY101021AY201021KA1120M-00841KA2120N-01581MA1999999069911MD1210021-0181MW1701OD139901001999REMSYN11852787 04930 /1904 11149 21159 36991 40316 52002 69902 77000 333 11084 21158 3/114 4/003 59018 60001 79999 90720 91110=EQDQ01  00002PRCP06
0322527870999992024020703004+37200+102867FM-12+304499999V0202101N003019999999N004100199-01161-01241103181ADDAA106999999AA212999999AA324999999AJ100033100030099AY101021AY201021KA1240M-00841KA2240N-01581MA1999999070001MD1210091-0151MW1701OD139901001999REMSYN11852787 04941 /2103 11116 21124 37000 40318 52009 60002 77000 333 11084 21158 3/114 4/003 59015 60001 70000 90720 91110=EQDQ01  00002PRCP06Q02  00002PRCP12Q03  00002PRCP24
0166527870999992024020706004+37200+102870FM-12+304499999V0200431N0060199999999030000199-00891-01161102911ADDAA124030091AA299999999AJ199999999999999AY171999AY201999IA2999-01399KA1120M-00841KA2120N-01581MA1999999069901MD1710101-0091MW1221OC101061OD139901061039REMSYN004BUFR
0322527870999992024020709004+37200+102867FM-12+304499999V0200501N006019999999N030000199-00901-01711103091ADDAA106999999AA212999999AA324999999AJ100033100030099AY101021AY201021KA1240M-00691KA2240N-01581MA1999999069951MD1210051+0001MW1221OD139901101999REMSYN11852787 04980 /0506 11090 21171 36995 40309 52005 60002 72200 333 11069 21158 3/113 4/003 58000 60001 70000 90720 91111=EQDQ01  00002PRCP06Q02  00002PRCP12Q03  00002PRCP24
0166527870999992024020712004+37200+102870FM-12+304499999V0203441N0047199999999030000199-01341-01611103591ADDAA124030091AA299999999AJ199999999999999AY171999AY201999IA2999-01289KA1120M-00691KA2120N-01581MA1999999070101MD1210151+0011MW1001OC101061OD139901061039REMSYN004BUFR
0277527870999992024020718004+37200+102867FM-12+304499999V0200701N001019999999N030000199-01301-01571103011ADDAA106000091AA212000091AA324000091AJ100033100030099AY101021AY201021KA1120M-00691KA2120N-01581MA1999999070031MD1710021+9999MW1001OD139901001999REMSYN12452787 04980 /0701 11130 21157 37003 40301 57002 60002 70000 333 11069 21158 3/117 4/003 54405 58001 60001 70000 90720 91110=
0261527870999992024020721004+37200+102867FM-12+304499999V0203401N002019999999N030000199-01111-01521102781ADDAA106000091AA212000091AA324000091AJ100033100030099KA1240M-00691KA2240N-01571MA1999999069961MD1710071+9999MW1001OD139900901999REMSYN12452787 04980 /3402 11111 21152 36996 40278 57007 60002 700// 333 11069 21157 3/117 4/003 54405 58007 60001 70000 90720 91109=
0296527870999992024020800004+37200+102867FM-12+304499999V0200301N002019999999N030000199-01201-01971103241ADDAA106000091AA212000091AA324000021AJ100033100030099AY101021AY201021KA1120M-00691KA2120N-01521MA1999999070011MD1210051+9999MW1001OD139900601999REMSYN12452787 04980 /0302 11120 21197 37001 40324 52005 69902 70000 333 11069 21152 3/118 4/003 54405 58010 60001 79999 90720 91106=EQDQ01  00002PRCP12
0277527870999992024020803004+37200+102867FM-12+304499999V0203401N003019999999N030000199-00631-01801102971ADDAA106000091AA212000091AA324000091AJ100033100030099AY101021AY201021KA1240M-00631KA2240N-01431MA1999999070111MD1210101+9999MW1001OD139900601999REMSYN12452787 04980 /3403 11063 21180 37011 40297 52010 60002 70000 333 11063 21143 3/118 4/003 54405 58011 60001 70000 90720 91106=
0277527870999992024020806004+37200+102867FM-12+304499999V0200401N009019999999N030000199-00531-02101102781ADDAA106000091AA212000091AA324000021AJ100033100030099AY101021AY201021KA1240M-00461KA2240N-01431MA1999999070051MD1710061+9999MW1001OD139901201999REMSYN12452787 04980 /0409 11053 21210 37005 40278 57006 60002 70000 333 11046 21143 3/118 4/003 54405 58015 60001 79999 90720 91112=
0277527870999992024020809004+37200+102867FM-12+304499999V0200701N004019999999N030000199-00571-01751102771ADDAA106000091AA212000091AA324000091AJ100033100030099AY101021AY201021KA1240M-00461KA2240N-01431MA1999999070121MD1210071+9999MW1001OD139901201999REMSYN12452787 04980 /0704 11057 21175 37012 40277 52007 60002 70000 333 11046 21143 3/118 4/003 54405 58017 60001 70000 90720 91112=
0296527870999992024020812004+37200+102867FM-12+304499999V0203501N003019999999N030000199-01041-01961103511ADDAA106000091AA212000091AA324000091AJ100033100030099AY101021AY201021KA1240M-00461KA2240N-01431MA1999999070341MD1210221+9999MW1001OD139901201999REMSYN12452787 04980 /3503 11104 21196 37034 40351 52022 60002 70000 333 11046 21143 3/118 4/003 54405 58024 60001 79999 90720 91112=EQDQ01  00002PRCP24
0277527870999992024020818004+37200+102867FM-12+304499999V0200701N001019999999N030000199-01181-01621103221ADDAA106000091AA212000091AA324000091AJ100033100030099AY101021AY201021KA1120M-00461KA2120N-01301MA1999999070411MD1710051+9999MW1001OD139901101999REMSYN12452787 04980 /0701 11118 21162 37041 40322 57005 60002 70000 333 11046 21130 3/118 4/003 54405 58038 60001 70000 90720 91111=
0255527870999992024020821004+37200+102867FM-12+304499999V0201701N002019999999N030000199-01131-01951103151ADDAA106000091AA212000091AA324000091AJ100033100030099KA1240M-00461KA2240N-01241MA1999999070371MD1710041+0411MW1001OD139900801999REMSYN11852787 04980 /1702 11113 21195 37037 40315 57004 60002 700// 333 11046 21124 3/119 4/003 58041 60001 70000 90720 91108=
0271527870999992024020900004+37200+102867FM-12+304499999V0202101N003019999999N030000199-01211-01891103631ADDAA106000091AA212000091AA324000091AJ100033100030099AY101021AY201021KA1120M-00461KA2120N-01321MA1999999070421MD1210051+0411MW1001OD139900501999REMSYN11852787 04980 /2103 11121 21189 37042 40363 52005 60002 70000 333 11046 21132 3/119 4/003 58041 60001 70000 90720 91105=
0277527870999992024020903004+37200+102867FM-12+304499999V0200501N005019999999N030000199-00521-02271103311ADDAA106000091AA212000091AA324000091AJ100033100030099AY101021AY201021KA1240M-00461KA2240N-01321MA1999999070561MD1210141+9999MW1001OD139901201999REMSYN12452787 04980 /0505 11052 21227 37056 40331 52014 60002 70000 333 11046 21132 3/119 4/003 54405 58045 60001 70000 90720 91112=
0277527870999992024020906004+37200+102867FM-12+304499999V0203301N008019999999N030000199-00271-02381103111ADDAA106000091AA212000091AA324000091AJ100033100030099AY101021AY201021KA1240M-00261KA2240N-01321MA1999999070461MD1710101+9999MW1001OD139901501999REMSYN12452787 04980 /3308 11027 21238 37046 40311 57010 60002 70000 333 11026 21132 3/119 4/003 54405 58041 60001 70000 90720 91115=
0277527870999992024020909004+37200+102867FM-12+304499999V0200701N009019999999N030000199-00751-01911103391ADDAA106000091AA212000091AA324000091AJ100033100030099AY101021AY201021KA1240M-00171KA2240N-01321MA1999999070441MD1710021+9999MW1001OD139902001999REMSYN12452787 04980 /0709 11075 21191 37044 40339 57002 60002 70000 333 11017 21132 3/119 4/003 54415 58032 60001 70000 90720 91120=
0277527870999992024020912004+37200+102867FM-12+304499999V0200501N006019999999N030000199-00841-01821103791ADDAA106000091AA212000091AA324000091AJ100033100030099AY101021AY201021KA1240M-00171KA2240N-01321MA1999999070631MD1210191+9999MW1001OD139902001999REMSYN12452787 04980 /0506 11084 21182 37063 40379 52019 60002 70000 333 11017 21132 3/119 4/003 54405 58029 60001 70000 90720 91120=
0277527870999992024020918004+37200+102867FM-12+304499999V0200601N004019999999N030000199-00891-02341103131ADDAA106000091AA212000091AA324000091AJ100033100030099AY101021AY201021KA1120M-00171KA2120N-01321MA1999999070621MD1710011+9999MW1001OD139902001999REMSYN12452787 04980 /0604 11089 21234 37062 40313 57001 60002 70000 333 11017 21132 3/116 4/003 54405 58021 60001 70000 90720 91120=
0261527870999992024020921004+37200+102867FM-12+304499999V0200701N005019999999N030000199-00851-02421103391ADDAA106000091AA212000091AA324000091AJ100033100030099KA1240M-00171KA2240N-01321MA1999999070581MD1710041+9999MW1001OD139901901999REMSYN12452787 04980 /0705 11085 21242 37058 40339 57004 60002 700// 333 11017 21132 3/118 4/003 54405 58021 60001 70000 90720 91119=
