0254583380999992024010100004+31150+118583FM-12+001699999V0200601N004019999999N002100199+00141-00051103091ADDAA106000091AA212000091AA324000091AY101021AY201021KA1120M+01141KA2120N+00121MA1999999102571MD1210101+9999MW1051OD139900601999REMSYN11858338 04921 /0604 10014 21005 30257 40309 52010 60002 70500 333 10114 20012 3/100 54415 58036 60001 70000 90720 91106=
0254583380999992024010103004+31150+118583FM-12+001699999V0200901N004019999999N003100199+00531+00051103051ADDAA106000091AA212000091AA324000091AY101021AY201021KA1240M+01141KA2240N+00121MA1999999102531MD1710041+9999MW1051OD139900801999REMSYN11858338 04931 /0904 10053 20005 30253 40305 57004 60002 70500 333 10114 20012 3/100 54415 58017 60001 70000 90720 91108=
0254583380999992024010106004+31150+118583FM-12+001699999V0200901N003019999999N004100199+00761-00011102721ADDAA106000091AA212000091AA324000091AY101021AY201021KA1240M+01111KA2240N+00121MA1999999102201MD1710331+9999MW1051OD139900801999REMSYN11858338 04941 /0903 10076 21001 30220 40272 57033 60002 70500 333 10111 20012 3/100 54415 59005 60001 70000 90720 91108=
0254583380999992024010109004+31150+118583FM-12+001699999V0200501N002019999999N004200199+00641-00011102641ADDAA106000091AA212000091AA324000091AY101021AY201021KA1240M+00871KA2240N+00121MA1999999102121MD1710081+9999MW1051OD139900801999REMSYN11858338 04942 /0502 10064 21001 30212 40264 57008 60002 70500 333 10087 20012 3/100 54415 59023 60001 70000 90720 91108=
0254583380999992024010112004+31150+118583FM-12+001699999V0200501N002019999999N004000199+00451-00011102671ADDAA106000091AA212000091AA324000091AY101021AY201021KA1240M+00811KA2240N+00121MA1999999102151MD1210031+9999MW1051OD139900801999REMSYN11858338 04940 /0502 10045 21001 30215 40267 52003 60002 70500 333 10081 20012 3/000 54415 59035 60001 70000 90720 91108=
0254583380999992024010118004+31150+118583FM-12+001699999V0200601N002019999999N002400199-00021-00151102561ADDAA106000091AA212000091AA324000091AY101021AY201021KA1120M+00811KA2120N-00021MA1999999102041MD1710081+9999MW1101OD139900601999REMSYN11858338 04924 /0602 11002 21015 30204 40256 57008 60002 71000 333 10081 21002 3/101 54415 59044 60001 70000 90720 91106=
0238583380999992024010121004+31150+118583FM-12+001699999V0200601N002019999999N001400199-00061-00131102441ADDAA106000091AA212000091AA324000091KA1240M+00811KA2240N-00081MA1999999101921MD1710121+9999MW1101OD139900501999REMSYN11858338 04914 /0602 11006 21013 30192 40244 57012 60002 710// 333 10081 21008 3/101 54415 59055 60001 70000 90720 91105=
0254583380999992024010200004+31150+118583FM-12+001699999V0209999C000059999999N001400199-00021-00081102461ADDAA106000091AA212000091AA324000091AY101021AY201021KA1120M+00811KA2120N-00131MA1999999101941MD1210021+9999MW1101OD139900501999REMSYN11858338 04914 /3000 11002 21008 30194 40246 52002 60002 71000 333 10081 21013 3/101 54415 59063 60001 70000 90720 91105=
0254583380999992024010203004+31150+118583FM-12+001699999V0200601N003019999999N003200199+00601+00191102351ADDAA106000091AA212000091AA324000091AY101021AY201021KA1240M+00811KA2240N-00131MA1999999101831MD1710111+9999MW1051OD139900501999REMSYN11858338 04932 /0603 10060 20019 30183 40235 57011 60002 70500 333 10081 21013 3/101 54405 59070 60001 70000 90720 91105=
0254583380999992024010206004+31150+118583FM-12+001699999V0203401N003019999999N003600199+00711+00161102231ADDAA106000091AA212000091AA324000091AY101021AY201021KA1240M+00811KA2240N-00131MA1999999101711MD1710121+9999MW1051OD139900601999REMSYN11858338 04936 /3403 10071 20016 30171 40223 57012 60002 70500 333 10081 21013 3/101 54415 59049 60001 70000 90720 91106=
0254583380999992024010209004+31150+118583FM-12+001699999V0203201N002019999999N003700199+00701+00151102401ADDAA106000091AA212000091AA324000091AY101021AY201021KA1240M+00811KA2240N-00131MA1999999101881MD1210171+9999MW1051OD139900701999REMSYN11858338 04937 /3202 10070 20015 30188 40240 52017 60002 70500 333 10081 21013 3/101 54405 59024 60001 70000 90720 91107=
0254583380999992024010212004+31150+118583FM-12+001699999V0203101N002019999999N001200199+00351+00261102561ADDAA106002031AA212002031AA324002331AY101021AY201021KA1240M+00811KA2240N-00131MA1999999102041MD1210161+9999MW1601OD139900801999REMSYN11858338 04912 /3102 10035 20026 30204 40256 52016 60022 76000 333 10081 21013 3/100 54415 59011 60021 70023 90720 91108=
0254583380999992024010218004+31150+118583FM-12+001699999V0202801N003019999999N001200199+00311+00271102701ADDAA106002031AA212004031AA324004431AY101021AY201021KA1120M+00811KA2120N-00131MA1999999102181MD1210071+9999MW1101OD139900801999REMSYN11858338 04912 /2803 10031 20027 30218 40270 52007 60042 71000 333 10081 21013 3/004 54405 58014 60021 70044 90720 91108=
0238583380999992024010221004+31150+118583FM-12+001699999V0202601N003019999999N002600199+00301+00181102691ADDAA106000091AA212004031AA324004431KA1240M+00811KA2240N-00131MA1999999102171MD1710011+9999MW1051OD139900801999REMSYN11858338 04926 /2603 10030 20018 30217 40269 57001 60042 705// 333 10081 21013 3/003 54405 58025 60001 70044 90720 91108=
0254583380999992024010300004+31150+118583FM-12+001699999V0202301N002019999999N003400199+00331+00231102861ADDAA106000091AA212002031AA324004431AY101021AY201021KA1120M+00811KA2120N-00021MA1999999102341MD1210171+9999MW1051OD139900701999REMSYN11858338 04934 /2302 10033 20023 30234 40286 52017 60022 70500 333 10081 21002 3/003 54405 58040 60001 70044 90720 91107=
0248583380999992024010303004+31150+118583FM-12+001699999V0202701N004019999999N003300199+00571+00271102941ADDAA106000091AA212000091AA324004431AY101021AY201021KA1240M+00811KA2240N+00281MA1999999102421MD1210081+0591MW1051OD139900701999REMSYN11258338 04933 /2704 10057 20027 30242 40294 52008 60002 70500 333 10081 20028 3/003 58059 60001 70044 90720 91107=
0254583380999992024010306004+31150+118583FM-12+001699999V0203001N001019999999N004700199+00821+00271102761ADDAA106000091AA212000091AA324004431AY101021AY201021KA1240M+00851KA2240N+00281MA1999999102241MD1710181+9999MW1051OD139900701999REMSYN11858338 04947 /3001 10082 20027 30224 40276 57018 60002 70500 333 10085 20028 3/003 54405 58053 60001 70044 90720 91107=
0254583380999992024010309004+31150+118583FM-12+001699999V0203101N001019999999N006000199+00771+00241102771ADDAA106000091AA212000091AA324004431AY101021AY201021KA1240M+00921KA2240N+00281MA1999999102251MD1210011+9999MW1051OD139900701999REMSYN11858338 04956 /3101 10077 20024 30225 40277 52001 60002 70500 333 10092 20028 3/003 54405 58037 60001 70044 90720 91107=
0254583380999992024010318004+31150+118583FM-12+001699999V0200701N001019999999N000000199-00201-00231102561ADDAA106000091AA212000091AA324000091AY101021AY201021KA1120M+00921KA2120N-00201MA1999999102041MD1710151+9999MW1461OD139900301999REMSYN11858338 04900 /0701 11020 21023 30204 40256 57015 60002 74600 333 10092 21020 3/100 54415 59014 60001 70000 90720 91103=
0238583380999992024010321004+31150+118583FM-12+001699999V0201501N001019999999N002700199-00271-00311102461ADDAA106000091AA212000091AA324000091KA1240M+00921KA2240N-00291MA1999999101941MD1710101+9999MW1101OD139900301999REMSYN11858338 04927 /1501 11027 21031 30194 40246 57010 60002 710// 333 10092 21029 3/101 54416 59023 60001 70000 90720 91103=
0254583380999992024010400004+31150+118583FM-12+001699999V0201101N002019999999N001700199-00221-00261102521ADDAA106000091AA212000091AA324000091AY101021AY201021KA1120M+00921KA2120N-00361MA1999999102001MD1210061+9999MW1101OD139900301999REMSYN11858338 04917 /1102 11022 21026 30200 40252 52006 60002 71000 333 10092 21036 3/102 54416 59034 60001 70000 90720 91103=
0254583380999992024010403004+31150+118583FM-12+001699999V0201401N002019999999N004400199+00631+00351102471ADDAA106000091AA212000091AA324000091AY101021AY201021KA1240M+00921KA2240N-00361MA1999999101951MD1710051+9999MW1051OD139900301999REMSYN11858338 04944 /1402 10063 20035 30195 40247 57005 60002 70500 333 10092 21036 3/102 54405 59047 60001 70000 90720 91103=
0254583380999992024010406004+31150+118583FM-12+001699999V0201101N001019999999N021000199+01371+00171102061ADDAA106000091AA212000091AA324000091AY101021AY201021KA1240M+01381KA2240N-00361MA1999999101551MD1710401+9999MW1001OD139900601999REMSYN11858338 04971 /1101 10137 20017 30155 40206 57040 60002 70000 333 10138 21036 3/102 54406 59069 60001 70000 90720 91106=
0254583380999992024010409004+31150+118583FM-12+001699999V0200801N003019999999N012000199+01051+00161102041ADDAA106000091AA212000091AA324000091AY101021AY201021KA1240M+01381KA2240N-00361MA1999999101521MD1710031+9999MW1001OD139900601999REMSYN11858338 04962 /0803 10105 20016 30152 40204 57003 60002 70000 333 10138 21036 3/102 54405 59073 60001 70000 90720 91106=
0254583380999992024010412004+31150+118583FM-12+001699999V0200701N002019999999N008000199+00641+00131102081ADDAA106000091AA212000091AA324000091AY101021AY201021KA1240M+01381KA2240N-00361MA1999999101561MD1210041+9999MW1001OD139900601999REMSYN11858338 04958 /0702 10064 20013 30156 40208 52004 60002 70000 333 10138 21036 3/101 54405 59071 60001 70000 90720 91106=
0254583380999992024010418004+31150+118583FM-12+001699999V0202801N001019999999N007000199+00471+00191102121ADDAA106000091AA212000091AA324000091AY101021AY201021KA1120M+01381KA2120N-00361MA1999999101611MD1210021+9999MW1051OD139900501999REMSYN11858338 04957 /2801 10047 20019 30161 40212 52002 60002 70500 333 10138 21036 3/001 54407 59043 60001 70000 90720 91105=
0238583380999992024010421004+31150+118583FM-12+001699999V0202501N001019999999N006000199+00451+00221102141ADDAA106000091AA212000091AA324000091KA1240M+01381KA2240N-00361MA1999999101631MD1210021+9999MW1051OD139900501999REMSYN11858338 04956 /2501 10045 20022 30163 40214 52002 60002 705// 333 10138 21036 3/001 54407 59031 60001 70000 90720 91105=
0254583380999992024010500004+31150+118583FM-12+001699999V0202401N002019999999N007000199+00461+00231102271ADDAA106000091AA212000091AA324000091AY101021AY201021KA1120M+01381KA2120N-00231MA1999999101761MD1210131+9999MW1001OD139900301999REMSYN11858338 04957 /2402 10046 20023 30176 40227 52013 60002 70000 333 10138 21023 3/000 54407 59024 60001 70000 90720 91103=
0254583380999992024010503004+31150+118583FM-12+001699999V0202801N002019999999N012000199+01171+00351102331ADDAA106000091AA212000091AA324000091AY101021AY201021KA1240M+01381KA2240N+00291MA1999999101821MD1210061+9999MW1001OD139900401999REMSYN11858338 04962 /2802 10117 20035 30182 40233 52006 60002 70000 333 10138 20029 3/000 54405 59013 60001 70000 90720 91104=
0254583380999992024010506004+31150+118583FM-12+001699999V0203301N002019999999N013000199+01521+00131102081ADDAA106000091AA212000091AA324000091AY101021AY201021KA1240M+01521KA2240N+00291MA1999999101571MD1710251+9999MW1001OD139900601999REMSYN11858338 04963 /3302 10152 20013 30157 40208 57025 60002 70000 333 10152 20029 3/000 54405 58002 60001 70000 90720 91106=
0254583380999992024010509004+31150+118583FM-12+001699999V0203501N001019999999N013000199+01261+00101102171ADDAA106000091AA212000091AA324000091AY101021AY201021KA1240M+01551KA2240N+00291MA1999999101661MD1210091+9999MW1001OD139900601999REMSYN11858338 04963 /3501 10126 20010 30166 40217 52009 60002 70000 333 10155 20029 3/000 54405 58014 60001 70000 90720 91106=
0254583380999992024010512004+31150+118583FM-12+001699999V0202401N001019999999N007000199+00861+00171102321ADDAA106000091AA212000091AA324000091AY101021AY201021KA1240M+01551KA2240N+00291MA1999999101811MD1210151+9999MW1001OD139900601999REMSYN11858338 04957 /2401 10086 20017 30181 40232 52015 60002 70000 333 10155 20029 3/002 54405 58025 60001 70000 90720 91106=
0254583380999992024010518004+31150+118583FM-12+001699999V0202601N002019999999N007000199+00551+00231102361ADDAA106000091AA212000091AA324000091AY101021AY201021KA1120M+01551KA2120N+00431MA1999999101851MD1710021+9999MW1001OD139900301999REMSYN11858338 04957 /2602 10055 20023 30185 40236 57002 60002 70000 333 10155 20043 3/002 54405 58024 60001 70000 90720 91103=
0238583380999992024010521004+31150+118583FM-12+001699999V0202401N001019999999N005000199+00311+00161102391ADDAA106000091AA212000091AA324000091KA1240M+01551KA2240N+00311MA1999999101881MD1210031+9999MW1051OD139900301999REMSYN11858338 04950 /2401 10031 20016 30188 40239 52003 60002 705// 333 10155 20031 3/001 54415 58025 60001 70000 90720 91103=
0254583380999992024010600004+31150+118583FM-12+001699999V0202601N002019999999N003200199+00301+00211102581ADDAA106000091AA212000091AA324000091AY101021AY201021KA1120M+01551KA2120N+00261MA1999999102061MD1210181+9999MW1051OD139900301999REMSYN11858338 04932 /2602 10030 20021 30206 40258 52018 60002 70500 333 10155 20026 3/000 54415 58030 60001 70000 90720 91103=
0254583380999992024010603004+31150+118583FM-12+001699999V0202501N002019999999N006000199+01041+00411102571ADDAA106000091AA212000091AA324000091AY101021AY201021KA1240M+01551KA2240N+00261MA1999999102061MD1410001+9999MW1051OD139900401999REMSYN11858338 04956 /2502 10104 20041 30206 40257 54000 60002 70500 333 10155 20026 3/000 54415 58024 60001 70000 90720 91104=
0254583380999992024010606004+31150+118583FM-12+001699999V0203001N004019999999N004100199+01231+00501102431ADDAA106000091AA212000091AA324000091AY101021AY201021KA1240M+01551KA2240N+00261MA1999999101921MD1710141+9999MW1051OD139900801999REMSYN11858338 04941 /3004 10123 20050 30192 40243 57014 60002 70500 333 10155 20026 3/000 54415 58035 60001 70000 90720 91108=
0254583380999992024010609004+31150+118583FM-12+001699999V0203001N002019999999N003600199+01091+00521102581ADDAA106000091AA212000091AA324000091AY101021AY201021KA1240M+01281KA2240N+00261MA1999999102071MD1210151+9999MW1051OD139900801999REMSYN11858338 04936 /3002 10109 20052 30207 40258 52015 60002 70500 333 10128 20026 3/000 54415 58041 60001 70000 90720 91108=
0248583380999992024010612004+31150+118583FM-12+001699999V0203301N002019999999N003800199+00861+00421102761ADDAA106000091AA212000091AA324000091AY101021AY201021KA1240M+01281KA2240N+00261MA1999999102241MD1210171+0431MW1051OD139900801999REMSYN11258338 04938 /3302 10086 20042 30224 40276 52017 60002 70500 333 10128 20026 3/002 58043 60001 70000 90720 91108=
0248583380999992024010618004+31150+118583FM-12+001699999V0200401N001019999999N001500199+00521+00401102901ADDAA106000091AA212000091AA324000091AY101021AY201021KA1120M+01281KA2120N+00261MA1999999102391MD1210031+0541MW1051OD139900701999REMSYN11258338 04915 /0401 10052 20040 30239 40290 52003 60002 70500 333 10128 20026 3/002 58054 60001 70000 90720 91107=
0232583380999992024010621004+31150+118583FM-12+001699999V0200401N002019999999N001000199+00341+00241102971ADDAA106000091AA212000091AA324000091KA1240M+01281KA2240N+00261MA1999999102461MD1210071+0581MW1101OD139900501999REMSYN11258338 04910 /0402 10034 20024 30246 40297 52007 60002 710// 333 10128 20026 3/001 58058 60001 70000 90720 91105=
0254583380999992024010700004+31150+118583FM-12+001699999V0200601N004019999999N001800199+00361+00211103141ADDAA106000091AA212000091AA324000091AY101021AY201021KA1120M+01281KA2120N+00191MA1999999102621MD1210161+9999MW1051OD139900601999REMSYN11858338 04918 /0604 10036 20021 30262 40314 52016 60002 70500 333 10128 20019 3/000 54405 58056 60001 70000 90720 91106=
0254583380999992024010703004+31150+118583FM-12+001699999V0200501N002019999999N004600199+00621+00151103211ADDAA106000091AA212000091AA324000091AY101021AY201021KA1240M+01281KA2240N+00191MA1999999102691MD1210071+9999MW1051OD139900601999REMSYN11858338 04946 /0502 10062 20015 30269 40321 52007 60002 70500 333 10128 20019 3/000 54415 58063 60001 70000 90720 91106=
0254583380999992024010706004+31150+118583FM-12+001699999V0200501N003019999999N005000199+00821+00161102941ADDAA106000091AA212000091AA324000091AY101021AY201021KA1240M+01271KA2240N+00191MA1999999102421MD1710271+9999MW1051OD139900601999REMSYN11858338 04950 /0503 10082 20016 30242 40294 57027 60002 70500 333 10127 20019 3/000 54415 58050 60001 70000 90720 91106=
0254583380999992024010709004+31150+118583FM-12+001699999V0200601N004019999999N005000199+00721-00071102941ADDAA106000091AA212000091AA324000091AY101021AY201021KA1240M+01091KA2240N+00191MA1999999102421MD1410001+9999MW1051OD139900701999REMSYN11858338 04950 /0604 10072 21007 30242 40294 54000 60002 70500 333 10109 20019 3/000 54415 58035 60001 70000 90720 91107=
0254583380999992024010712004+31150+118583FM-12+001699999V0200701N004019999999N008000199+00451-00151102971ADDAA106000091AA212000091AA324000091AY101021AY201021KA1240M+00871KA2240N+00191MA1999999102451MD1210031+9999MW1001OD139900801999REMSYN11858338 04958 /0704 10045 21015 30245 40297 52003 60002 70000 333 10087 20019 3/003 54415 58021 60001 70000 90720 91108=
0254583380999992024010718004+31150+118583FM-12+001699999V0200901N005019999999N011000199+00391-00271102641ADDAA106000091AA212000091AA324000091AY101021AY201021KA1120M+00841KA2120N+00191MA1999999102131MD1710211+9999MW1001OD139900801999REMSYN11858338 04961 /0905 10039 21027 30213 40264 57021 60002 70000 333 10084 20019 3/002 54415 59026 60001 70000 90720 91108=
0238583380999992024010721004+31150+118583FM-12+001699999V0200801N005019999999N011000199+00281-00101102501ADDAA106000091AA212000091AA324000091KA1240M+00841KA2240N+00191MA1999999101981MD1710151+9999MW1001OD139900901999REMSYN11858338 04961 /0805 10028 21010 30198 40250 57015 60002 700// 333 10084 20019 3/001 54415 59048 60001 70000 90720 91109=
0254583380999992024010803004+31150+118583FM-12+001699999V0200701N003019999999N012000199+00521+00041102551ADDAA106000091AA212000091AA324000091AY101021AY201021KA1240M+00841KA2240N+00281MA1999999102031MD1410001+9999MW1001OD139900901999REMSYN11858338 04962 /0703 10052 20004 30203 40255 54000 60002 70000 333 10084 20028 3/001 54415 59066 60001 70000 90720 91109=
0305583380999992024010806004+31150+118583FM-12+001699999V0201201N002019999999N011000199+00601+00091102301ADDAA106999999AA212999999AA324999999AY101021AY201021KA1240M+00841KA2240N+00281MA1999999101781MD1710251+9999MW1211OD139900901999REMSYN11858338 04961 /1202 10060 20009 30178 40230 57025 60002 72100 333 10084 20028 3/001 54415 59064 60001 70000 90720 91109=EQDQ01  00002PRCP06Q02  00002PRCP12Q03  00002PRCP24
0254583380999992024010809004+31150+118583FM-12+001699999V0201401N001019999999N009000199+00611+00141102231ADDAA106000091AA212000091AA324000091AY101021AY201021KA1240M+00721KA2240N+00281MA1999999101711MD1710071+9999MW1001OD139900801999REMSYN11858338 04959 /1401 10061 20014 30171 40223 57007 60002 70000 333 10072 20028 3/001 54415 59071 60001 70000 90720 91108=
0254583380999992024010812004+31150+118583FM-12+001699999V0201601N001019999999N008000199+00591+00181102231ADDAA106000091AA212000021AA324000021AY101021AY201021KA1240M+00621KA2240N+00281MA1999999101711MD1410001+9999MW1001OD139900701999REMSYN11858338 04958 /1601 10059 20018 30171 40223 54000 69902 70000 333 10062 20028 3/003 54405 59074 60001 79999 90720 91107=
0254583380999992024010818004+31150+118583FM-12+001699999V0202301N001019999999N004100199+00341+00181102161ADDAA106000091AA212000091AA324000091AY101021AY201021KA1120M+00621KA2120N+00281MA1999999101641MD1710061+9999MW1051OD139900401999REMSYN11858338 04941 /2301 10034 20018 30164 40216 57006 60002 70500 333 10062 20028 3/001 54415 59049 60001 70000 90720 91104=
0238583380999992024010821004+31150+118583FM-12+001699999V0201301N001019999999N001600199+00161+00091102081ADDAA106000091AA212000091AA324000091KA1240M+00621KA2240N+00091MA1999999101561MD1710081+9999MW1101OD139900201999REMSYN11858338 04916 /1301 10016 20009 30156 40208 57008 60002 710// 333 10062 20009 3/100 54415 59042 60001 70000 90720 91102=
0248583380999992024010900004+31150+118583FM-12+001699999V0202201N001019999999N002400199+00371+00281102131ADDAA106000091AA212000091AA324000021AY101021AY201021KA1120M+00621KA2120N+00091MA1999999101621MD1210061-0411MW1101OD139900201999REMSYN11258338 04924 /2201 10037 20028 30162 40213 52006 60002 71000 333 10062 20009 3/100 59041 60001 79999 90720 91102=
0254583380999992024010903004+31150+118583FM-12+001699999V0202601N002019999999N004400199+01001+00601102171ADDAA106000091AA212000091AA324000091AY101021AY201021KA1240M+01001KA2240N+00091MA1999999101661MD1210041+9999MW1051OD139900401999REMSYN11858338 04944 /2602 10100 20060 30166 40217 52004 60002 70500 333 10100 20009 3/100 54405 59037 60001 70000 90720 91104=
0254583380999992024010906004+31150+118583FM-12+001699999V0203101N003019999999N006000199+01381+00571101891ADDAA106000091AA212000091AA324000091AY101021AY201021KA1240M+01391KA2240N+00091MA1999999101381MD1710281+9999MW1051OD139900601999REMSYN11858338 04956 /3103 10138 20057 30138 40189 57028 60002 70500 333 10139 20009 3/100 54408 59040 60001 70000 90720 91106=
0254583380999992024010912004+31150+118583FM-12+001699999V0203001N003019999999N005000199+00991+00471102271ADDAA106000091AA212000091AA324000091AY101021AY201021KA1240M+01431KA2240N+00091MA1999999101761MD1210281+9999MW1051OD139900701999REMSYN11858338 04950 /3003 10099 20047 30176 40227 52028 60002 70500 333 10143 20009 3/004 54405 58005 60001 70000 90720 91107=
0254583380999992024010918004+31150+118583FM-12+001699999V0202601N001019999999N002700199+00541+00261102651ADDAA106000091AA212000091AA324000091AY101021AY201021KA1120M+01431KA2120N+00091MA1999999102141MD1210091+9999MW1051OD139900801999REMSYN11858338 04927 /2601 10054 20026 30214 40265 52009 60002 70500 333 10143 20009 3/002 54405 58050 60001 70000 90720 91108=
0238583380999992024010921004+31150+118583FM-12+001699999V0203201N003019999999N001700199+00451+00271102681ADDAA106000091AA212000091AA324000091KA1240M+01431KA2240N+00161MA1999999102171MD1210031+9999MW1051OD139900801999REMSYN11858338 04917 /3203 10045 20027 30217 40268 52003 60002 705// 333 10143 20016 3/001 54405 58061 60001 70000 90720 91108=
0254583380999992024011000004+31150+118583FM-12+001699999V0203001N003019999999N001900199+00431+00271102841ADDAA106000091AA212000091AA324000091AY101021AY201021KA1120M+01431KA2120N+00301MA1999999102331MD1210161+9999MW1051OD139900801999REMSYN11858338 04919 /3003 10043 20027 30233 40284 52016 60002 70500 333 10143 20030 3/001 54405 58071 60001 70000 90720 91108=
0254583380999992024011003004+31150+118583FM-12+001699999V0202901N002019999999N002200199+00551+00221102981ADDAA106000091AA212000091AA324000091AY101021AY201021KA1240M+01431KA2240N+00301MA1999999102461MD1210131+9999MW1101OD139900701999REMSYN11858338 04922 /2902 10055 20022 30246 40298 52013 60002 71000 333 10143 20030 3/001 54415 58080 60001 70000 90720 91107=
0254583380999992024011006004+31150+118583FM-12+001699999V0203101N003019999999N003900199+00731-00111102801ADDAA106000091AA212000091AA324000091AY101021AY201021KA1240M+01431KA2240N+00301MA1999999102281MD1710181+9999MW1051OD139900701999REMSYN11858338 04939 /3103 10073 21011 30228 40280 57018 60002 70500 333 10143 20030 3/001 54417 58090 60001 70000 90720 91107=
0254583380999992024011009004+31150+118583FM-12+001699999V0203101N001019999999N003700199+00621-00081102741ADDAA106000091AA212000091AA324000091AY101021AY201021KA1240M+01181KA2240N+00301MA1999999102221MD1710061+9999MW1051OD139900701999REMSYN11858338 04937 /3101 10062 21008 30222 40274 57006 60002 70500 333 10118 20030 3/003 54416 58074 60001 70000 90720 91107=
0254583380999992024011012004+31150+118583FM-12+001699999V0201201N001019999999N002300199+00191-00051102721ADDAA106000091AA212000091AA324000091AY101021AY201021KA1240M+01001KA2240N+00191MA1999999102201MD1710021+9999MW1101OD139900701999REMSYN11858338 04923 /1201 10019 21005 30220 40272 57002 60002 71000 333 10100 20019 3/000 54418 58044 60001 70000 90720 91107=
0254583380999992024011018004+31150+118583FM-12+001699999V0202201N001019999999N001500199-00081-00181102491ADDAA106000091AA212000091AA324000091AY101021AY201021KA1120M+00781KA2120N-00111MA1999999101971MD1710171+9999MW1101OD139900701999REMSYN11858338 04915 /2201 11008 21018 30197 40249 57017 60002 71000 333 10078 21011 3/102 54416 59017 60001 70000 90720 91107=
0238583380999992024011021004+31150+118583FM-12+001699999V0201501N002019999999N002200199-00131-00211102411ADDAA106000091AA212000091AA324000091KA1240M+00781KA2240N-00211MA1999999101891MD1710081+9999MW1051OD139900401999REMSYN11858338 04922 /1502 11013 21021 30189 40241 57008 60002 705// 333 10078 21021 3/102 54416 59028 60001 70000 90720 91104=
0254583380999992024011100004+31150+118583FM-12+001699999V0202401N001019999999N001900199-00131-00211102401ADDAA106000091AA212000091AA324000091AY101021AY201021KA1120M+00781KA2120N-00211MA1999999101881MD1710011+9999MW1051OD139900401999REMSYN11858338 04919 /2401 11013 21021 30188 40240 57001 60002 70500 333 10078 21021 3/103 54416 59045 60001 70000 90720 91104=
0254583380999992024011103004+31150+118583FM-12+001699999V0202201N003019999999N008000199+00941-00131102331ADDAA106000091AA212000091AA324000091AY101021AY201021KA1240M+00941KA2240N-00211MA1999999101811MD1710071+9999MW1001OD139900401999REMSYN11858338 04958 /2203 10094 21013 30181 40233 57007 60002 70000 333 10094 21021 3/103 54405 59065 60001 70000 90720 91104=
0254583380999992024011109004+31150+118583FM-12+001699999V0202201N002019999999N019000199+01481-00311101921ADDAA106000091AA212000091AA324000091AY101021AY201021KA1240M+01611KA2240N-00211MA1999999101411MD1710071+9999MW1001OD139900801999REMSYN11858338 04969 /2202 10148 21031 30141 40192 57007 60002 70000 333 10161 21021 3/103 54409 59081 60001 70000 90720 91108=
0254583380999992024011112004+31150+118583FM-12+001699999V0201501N002019999999N011000199+00721-00071101971ADDAA106000091AA212000091AA324000091AY101021AY201021KA1240M+01611KA2240N-00211MA1999999101451MD1210041+9999MW1001OD139900801999REMSYN11858338 04961 /1502 10072 21007 30145 40197 52004 60002 70000 333 10161 21021 3/101 54405 59075 60001 70000 90720 91108=
0254583380999992024011118004+31150+118583FM-12+001699999V0202401N002019999999N012000199+00781-00021101951ADDAA106000091AA212000091AA324000091AY101021AY201021KA1120M+01611KA2120N-00211MA1999999101451MD1210021+9999MW1001OD139900801999REMSYN11858338 04962 /2402 10078 21002 30145 40195 52002 60002 70000 333 10161 21021 3/001 54409 59052 60001 70000 90720 91108=
0238583380999992024011121004+31150+118583FM-12+001699999V0202301N001019999999N015000199+00411-00071101971ADDAA106000091AA212000091AA324000091KA1240M+01611KA2240N-00201MA1999999101461MD1210011+9999MW1001OD139900401999REMSYN11858338 04965 /2301 10041 21007 30146 40197 52001 60002 700// 333 10161 21020 3/100 54405 59043 60001 70000 90720 91104=
0254583380999992024011203004+31150+118583FM-12+001699999V0202401N002019999999N019000199+01431-00091102111ADDAA106000091AA212000091AA324000091AY101021AY201021KA1240M+01611KA2240N+00271MA1999999101611MD1210031+9999MW1001OD139900401999REMSYN11858338 04969 /2402 10143 21009 30161 40211 52003 60002 70000 333 10161 20027 3/101 54405 59020 60001 70000 90720 91104=
0254583380999992024011206004+31150+118583FM-12+001699999V0202501N002019999999N014000199+01811+00161101911ADDAA106000091AA212000091AA324000091AY101021AY201021KA1240M+01811KA2240N+00271MA1999999101411MD1710201+9999MW1001OD139900501999REMSYN11858338 04964 /2502 10181 20016 30141 40191 57020 60002 70000 333 10181 20027 3/101 54405 59007 60001 70000 90720 91105=
0254583380999992024011209004+31150+118583FM-12+001699999V0203401N001019999999N014000199+01701+00141101961ADDAA106000091AA212000091AA324000091AY101021AY201021KA1240M+01891KA2240N+00001MA1999999101461MD1210051+9999MW1001OD139900501999REMSYN11858338 04964 /3401 10170 20014 30146 40196 52005 60002 70000 333 10189 20000 3/101 54405 58005 60001 70000 90720 91105=
0254583380999992024011212004+31150+118583FM-12+001699999V0201101N002019999999N008000199+00901+00321102091ADDAA106000091AA212000091AA324000091AY101021AY201021KA1240M+01891KA2240N+00271MA1999999101581MD1210121+9999MW1001OD139900501999REMSYN11858338 04958 /1102 10090 20032 30158 40209 52012 60002 70000 333 10189 20027 3/002 54405 58013 60001 70000 90720 91105=
0254583380999992024011218004+31150+118583FM-12+001699999V0202401N001019999999N008000199+00641+00271102151ADDAA106000091AA212000091AA324000091AY101021AY201021KA1120M+01891KA2120N+00271MA1999999101651MD1210031+9999MW1001OD139900301999REMSYN11858338 04958 /2401 10064 20027 30165 40215 52003 60002 70000 333 10189 20027 3/002 54415 58020 60001 70000 90720 91103=
0238583380999992024011221004+31150+118583FM-12+001699999V0201201N001019999999N004600199+00321+00191102241ADDAA106000091AA212000091AA324000091KA1240M+01891KA2240N+00271MA1999999101731MD1210081+9999MW1051OD139900301999REMSYN11858338 04946 /1201 10032 20019 30173 40224 52008 60002 705// 333 10189 20027 3/001 54415 58027 60001 70000 90720 91103=
0254583380999992024011300004+31150+118583FM-12+001699999V0201101N002019999999N006000199+00281+00131102401ADDAA106000091AA212000091AA324000091AY101021AY201021KA1120M+01891KA2120N+00181MA1999999101891MD1210161+9999MW1051OD139900301999REMSYN11858338 04956 /1102 10028 20013 30189 40240 52016 60002 70500 333 10189 20018 3/100 54415 58031 60001 70000 90720 91103=
0248583380999992024011303004+31150+118583FM-12+001699999V0200901N003019999999N014000199+01392+00341102381ADDAA106000091AA212000091AA324000091AY101021AY201021KA1240M+01891KA2240N+00181MA1999999101881MD1710011+0271MW1001OD139900401999REMSYN11258338 04964 /0903 10139 20034 30188 40238 57001 60002 70000 333 10189 20018 3/100 58027 60001 70000 90720 91104=
0254583380999992024011306004+31150+118583FM-12+001699999V0200801N004019999999N014000199+01871+00211102101ADDAA106000091AA212000091AA324000091AY101021AY201021KA1240M+01891KA2240N+00181MA1999999101601MD1710281+9999MW1001OD139900601999REMSYN11858338 04964 /0804 10187 20021 30160 40210 57028 60002 70000 333 10189 20018 3/100 54405 58019 60001 70000 90720 91106=
0248583380999992024011309004+31150+118583FM-12+001699999V0200801N003019999999N014000199+01731+00211102041ADDAA106000091AA212000091AA324000091AY101021AY201021KA1240M+01941KA2240N+00181MA1999999101541MD1710061+0081MW1001OD139900601999REMSYN11258338 04964 /0803 10173 20021 30154 40204 57006 60002 70000 333 10194 20018 3/100 58008 60001 70000 90720 91106=
0254583380999992024011312004+31150+118583FM-12+001699999V0201001N003019999999N008000199+01221+00261102111ADDAA106000091AA212000091AA324000091AY101021AY201021KA1240M+01941KA2240N+00181MA1999999101601MD1210061+9999MW1001OD139900601999REMSYN11858338 04958 /1003 10122 20026 30160 40211 52006 60002 70000 333 10194 20018 3/002 54405 58002 60001 70000 90720 91106=
0254583380999992024011318004+31150+118583FM-12+001699999V0201001N002019999999N004100199+00541+00271102041ADDAA106000091AA212000091AA324000091AY101021AY201021KA1120M+01941KA2120N+00181MA1999999101541MD1710031+9999MW1051OD139900601999REMSYN11858338 04941 /1002 10054 20027 30154 40204 57003 60002 70500 333 10194 20018 3/002 54415 59011 60001 70000 90720 91106=
0238583380999992024011321004+31150+118583FM-12+001699999V0201101N002019999999N003700199+00431+00221102061ADDAA106000091AA212000091AA324000091KA1240M+01941KA2240N+00181MA1999999101561MD1210021+9999MW1101OD139900501999REMSYN11858338 04937 /1102 10043 20022 30156 40206 52002 60002 710// 333 10194 20018 3/001 54405 59017 60001 70000 90720 91105=
0254583380999992024011400004+31150+118583FM-12+001699999V0202101N001019999999N005000199+00711+00371102251ADDAA106000091AA212000091AA324000091AY101021AY201021KA1120M+01941KA2120N+00281MA1999999101741MD1210181+9999MW1051OD139900501999REMSYN11858338 04950 /2101 10071 20037 30174 40225 52018 60002 70500 333 10194 20028 3/001 54405 59015 60001 70000 90720 91105=
0254583380999992024011403004+31150+118583FM-12+001699999V0202801N002019999999N015000199+01551+00541102311ADDAA106000091AA212000091AA324000091AY101021AY201021KA1240M+01941KA2240N+00371MA1999999101811MD1210071+9999MW1001OD139900301999REMSYN11858338 04965 /2802 10155 20054 30181 40231 52007 60002 70000 333 10194 20037 3/001 54405 59007 60001 70000 90720 91103=
0254583380999992024011406004+31150+118583FM-12+001699999V0202801N003019999999N012000199+01511+00561102261ADDAA106000091AA212000091AA324000091AY101021AY201021KA1240M+01941KA2240N+00371MA1999999101751MD1710061+9999MW1001OD139900901999REMSYN11858338 04962 /2803 10151 20056 30175 40226 57006 60002 70000 333 10194 20037 3/001 54415 58015 60001 70000 90720 91109=
0254583380999992024011409004+31150+118583FM-12+001699999V0202901N003019999999N003700199+01201+00831102541ADDAA106000131AA212000131AA324000131AY101021AY201021KA1240M+01721KA2240N+00371MA1999999102031MD1210281+9999MW1051OD139900901999REMSYN11858338 04937 /2903 10120 20083 30203 40254 52028 69912 70500 333 10172 20037 3/001 54415 58049 69911 70001 90720 91109=
0254583380999992024011412004+31150+118583FM-12+001699999V0200201N002019999999N002200199+00981+00631102881ADDAA106000131AA212000131AA324000131AY101021AY201021KA1240M+01711KA2240N+00371MA1999999102371MD1210341+9999MW1051OD139900901999REMSYN11858338 04922 /0202 10098 20063 30237 40288 52034 69912 70500 333 10171 20037 3/004 54415 58077 69911 70001 90720 91109=
0248583380999992024011418004+31150+118583FM-12+001699999V0200401N004019999999N004400199+00541+00151103211ADDAA106000091AA212000131AA324000131AY101021AY201021KA1120M+01711KA2120N+00371MA1999999102701MD1210121+9999MW1051OD139900901999REMSYN11258338 04944 /0404 10054 20015 30270 40321 52012 69912 70500 333 10171 20037 3/006 58116 60001 70001 90720 91109=
0232583380999992024011421004+31150+118583FM-12+001699999V0200301N004019999999N011000199+00411-00111103301ADDAA106000091AA212000091AA324000131KA1240M+01711KA2240N+00371MA1999999102791MD1210091+9999MW1001OD139900901999REMSYN11258338 04961 /0304 10041 21011 30279 40330 52009 60002 700// 333 10171 20037 3/004 58123 60001 70001 90720 91109=
0254583380999992024011500004+31150+118583FM-12+001699999V0200601N005019999999N016000199+00241-00271103401ADDAA106000091AA212000091AA324000131AY101021AY201021KA1120M+01711KA2120N+00231MA1999999102881MD1210091+9999MW1001OD139900901999REMSYN11858338 04966 /0605 10024 21027 30288 40340 52009 60002 70000 333 10171 20023 3/003 54415 58114 60001 70001 90720 91109=
0254583380999992024011503004+31150+118583FM-12+001699999V0200701N004019999999N017000199+00461-00181103421ADDAA106000091AA212000091AA324000131AY101021AY201021KA1240M+01711KA2240N+00211MA1999999102901MD1210021+9999MW1001OD139900801999REMSYN11858338 04967 /0704 10046 21018 30290 40342 52002 60002 70000 333 10171 20021 3/003 54411 58109 60001 70001 90720 91108=
0254583380999992024011506004+31150+118583FM-12+001699999V0200501N003019999999N015000199+00731-00091103091ADDAA106000091AA212000091AA324000131AY101021AY201021KA1240M+01551KA2240N+00211MA1999999102571MD1710331+9999MW1001OD139900801999REMSYN11858338 04965 /0503 10073 21009 30257 40309 57033 60002 70000 333 10155 20021 3/003 54418 58082 60001 70001 90720 91108=
0254583380999992024011509004+31150+118583FM-12+001699999V0200801N004019999999N014000199+00671-00151103021ADDAA106000091AA212000091AA324000091AY101021AY201021KA1240M+01201KA2240N+00211MA1999999102501MD1710071+9999MW1001OD139900801999REMSYN11858338 04964 /0804 10067 21015 30250 40302 57007 60002 70000 333 10120 20021 3/003 54415 58047 60001 70000 90720 91108=
0254583380999992024011512004+31150+118583FM-12+001699999V0200601N004019999999N017000199+00511-00251103091ADDAA106000091AA212000091AA324000091AY101021AY201021KA1240M+00981KA2240N+00211MA1999999102571MD1210071+9999MW1001OD139900801999REMSYN11858338 04967 /0604 10051 21025 30257 40309 52007 60002 70000 333 10098 20021 3/003 54415 58020 60001 70000 90720 91108=
0254583380999992024011518004+31150+118583FM-12+001699999V0200901N005019999999N012000199+00351-00091102911ADDAA106000091AA212000091AA324000091AY101021AY201021KA1120M+00781KA2120N+00211MA1999999102391MD1710051+9999MW1001OD139900901999REMSYN11858338 04962 /0905 10035 21009 30239 40291 57005 60002 70000 333 10078 20021 3/001 54415 59031 60001 70000 90720 91109=
0238583380999992024011521004+31150+118583FM-12+001699999V0200801N005019999999N013000199+00301-00011102781ADDAA106000091AA212000091AA324000091KA1240M+00781KA2240N+00211MA1999999102261MD1710131+9999MW1001OD139901001999REMSYN11858338 04963 /0805 10030 21001 30226 40278 57013 60002 700// 333 10078 20021 3/001 54415 59053 60001 70000 90720 91110=
0254583380999992024011600004+31150+118583FM-12+001699999V0200901N006019999999N013000199+00361-00011102901ADDAA106000091AA212000091AA324000091AY101021AY201021KA1120M+00781KA2120N+00211MA1999999102381MD1210121+9999MW1001OD139901001999REMSYN11858338 04963 /0906 10036 21001 30238 40290 52012 60002 70000 333 10078 20021 3/001 54405 59050 60001 70000 90720 91110=
0254583380999992024011603004+31150+118583FM-12+001699999V0200801N006019999999N015000199+00771+00041102881ADDAA106000091AA212000091AA324000091AY101021AY201021KA1240M+00781KA2240N+00251MA1999999102361MD1710021+9999MW1001OD139901401999REMSYN11858338 04965 /0806 10077 20004 30236 40288 57002 60002 70000 333 10078 20025 3/001 54405 59054 60001 70000 90720 91114=
0254583380999992024011606004+31150+118583FM-12+001699999V0200901N006019999999N017000199+01091+00061102571ADDAA106000091AA212000091AA324000091AY101021AY201021KA1240M+01091KA2240N+00251MA1999999102061MD1710301+9999MW1001OD139901401999REMSYN11858338 04967 /0906 10109 20006 30206 40257 57030 60002 70000 333 10109 20025 3/001 54405 59051 60001 70000 90720 91114=
0254583380999992024011612004+31150+118583FM-12+001699999V0201001N004019999999N015000199+00971+00161102531ADDAA106000091AA212000091AA324000091AY101021AY201021KA1240M+01181KA2240N+00251MA1999999102021MD1410001+9999MW1001OD139901401999REMSYN11858338 04965 /1004 10097 20016 30202 40253 54000 60002 70000 333 10118 20025 3/003 54405 59055 60001 70000 90720 91114=
0254583380999992024011618004+31150+118583FM-12+001699999V0201001N002019999999N014000199+00691+00371102321ADDAA106000091AA212000091AA324000091AY101021AY201021KA1120M+01181KA2120N+00281MA1999999101811MD1710081+9999MW1001OD139901001999REMSYN11858338 04964 /1002 10069 20037 30181 40232 57008 60002 70000 333 10118 20028 3/005 54405 59058 60001 70000 90720 91110=
0238583380999992024011621004+31150+118583FM-12+001699999V0201801N001019999999N012000199+00601+00351102241ADDAA106000091AA212000091AA324000091KA1240M+01181KA2240N+00281MA1999999101731MD1710081+9999MW1001OD139900901999REMSYN11858338 04962 /1801 10060 20035 30173 40224 57008 60002 700// 333 10118 20028 3/005 54405 59053 60001 70000 90720 91109=
0254583380999992024011700004+31150+118583FM-12+001699999V0202501N002019999999N007000199+00631+00361102361ADDAA106000091AA212000091AA324000091AY101021AY201021KA1120M+01181KA2120N+00361MA1999999101851MD1210121+9999MW1001OD139900801999REMSYN11858338 04957 /2502 10063 20036 30185 40236 52012 60002 70000 333 10118 20036 3/005 54405 59053 60001 70000 90720 91108=
0254583380999992024011703004+31150+118583FM-12+001699999V0202901N002019999999N008000199+00921+00481102421ADDAA106000091AA212000091AA324000091AY101021AY201021KA1240M+01181KA2240N+00561MA1999999101911MD1210061+9999MW1001OD139900601999REMSYN11858338 04958 /2902 10092 20048 30191 40242 52006 60002 70000 333 10118 20056 3/005 54405 59045 60001 70000 90720 91106=
0254583380999992024011706004+31150+118583FM-12+001699999V0202901N003019999999N007000199+00991+00491102161ADDAA106000091AA212000091AA324000091AY101021AY201021KA1240M+01181KA2240N+00561MA1999999101651MD1710261+9999MW1001OD139900601999REMSYN11858338 04957 /2903 10099 20049 30165 40216 57026 60002 70000 333 10118 20056 3/005 54415 59041 60001 70000 90720 91106=
0254583380999992024011709004+31150+118583FM-12+001699999V0203301N003019999999N005000199+00881+00521102231ADDAA106000091AA212000091AA324000091AY101021AY201021KA1240M+01101KA2240N+00561MA1999999101721MD1210071+9999MW1051OD139900601999REMSYN11858338 04950 /3303 10088 20052 30172 40223 52007 60002 70500 333 10110 20056 3/005 54415 59030 60001 70000 90720 91106=
0254583380999992024011712004+31150+118583FM-12+001699999V0203501N002019999999N004600199+00751+00511102311ADDAA106000091AA212000091AA324000091AY101021AY201021KA1240M+01011KA2240N+00561MA1999999101801MD1210081+9999MW1101OD139900601999REMSYN11858338 04946 /3502 10075 20051 30180 40231 52008 60002 71000 333 10101 20056 3/007 54415 59022 60001 70000 90720 91106=
0254583380999992024011718004+31150+118583FM-12+001699999V0200101N001019999999N003400199+00601+00511102371ADDAA106000831AA212000831AA324000831AY101021AY201021KA1120M+01011KA2120N+00561MA1999999101861MD1210011+9999MW1601OD139900701999REMSYN11858338 04934 /0101 10060 20051 30186 40237 52001 69982 76000 333 10101 20056 3/007 54415 58005 69981 70008 90720 91107=
0238583380999992024011721004+31150+118583FM-12+001699999V0203401N002019999999N004000199+00551+00491102351ADDAA106004031AA212004032AA324003632KA1240M+01011KA2240N+00551MA1999999101841MD1710021+9999MW1601OD139900701999REMSYN11858338 04940 /3402 10055 20049 30184 40235 57002 60042 760// 333 10101 20055 3/006 54415 58011 60041 70036 90720 91107=
0254583380999992024011800004+31150+118583FM-12+001699999V0200201N002019999999N003600199+00561+00521102491ADDAA106003031AA212004031AA324004031AY151021AY201021KA1120M+01011KA2120N+00541MA1999999101981MD1210141+9999MW1601OD139900701999REMSYN11858338 04936 /0202 10056 20052 30198 40249 52014 60042 76050 333 10101 20054 3/006 54415 58013 60031 70040 90720 91107=
0254583380999992024011803004+31150+118583FM-12+001699999V0200401N002019999999N008000199+00611+00541102521ADDAA106002031AA212006032AA324005532AY151021AY201021KA1240M+01011KA2240N+00541MA1999999102011MD1210031+9999MW1601OD139900701999REMSYN11858338 04958 /0402 10061 20054 30201 40252 52003 60062 76050 333 10101 20054 3/006 54415 58010 60021 70055 90720 91107=
0254583380999992024011806004+31150+118583FM-12+001699999V0200201N002019999999N006000199+00611+00541102331ADDAA106003031AA212006031AA324006831AY101021AY201021KA1240M+01011KA2240N+00541MA1999999101821MD1710191+9999MW1601OD139900501999REMSYN11858338 04956 /0202 10061 20054 30182 40233 57019 60062 76000 333 10101 20054 3/006 54415 58017 60031 70068 90720 91105=
0254583380999992024011809004+31150+118583FM-12+001699999V0200401N003019999999N005000199+00631+00571102361ADDAA106003031AA212005031AA324008431AY161021AY201021KA1240M+00881KA2240N+00541MA1999999101851MD1210031+9999MW1501OD139900601999REMSYN11858338 04950 /0403 10063 20057 30185 40236 52003 60052 75060 333 10088 20054 3/006 54415 58013 60031 70084 90720 91106=
0254583380999992024011812004+31150+118583FM-12+001699999V0200401N002019999999N004700199+00661+00601102451ADDAA106002031AA212004031AA324008431AY151021AY201021KA1240M+00751KA2240N+00541MA1999999101941MD1210091+9999MW1601OD139900601999REMSYN11858338 04947 /0402 10066 20060 30194 40245 52009 60042 76050 333 10075 20054 3/006 54415 58014 60021 70084 90720 91106=
0254583380999992024011818004+31150+118583FM-12+001699999V0200601N005019999999N005000199+00701+00661102381ADDAA106005031AA212007031AA324012831AY151021AY201021KA1120M+00711KA2120N+00541MA1999999101871MD1710051+9999MW1211OD139900901999REMSYN11858338 04950 /0605 10070 20066 30187 40238 57005 60072 72150 333 10071 20054 3/007 54405 58001 60051 70128 90720 91109=
0238583380999992024011821004+31150+118583FM-12+001699999V0200601N007019999999N003300199+00621+00561102301ADDAA106005031AA212006031AA324010331KA1240M+00711KA2240N+00541MA1999999101791MD1710081+9999MW1601OD139901001999REMSYN11858338 04933 00607 10062 20056 30179 40230 57008 60062 760// 333 10071 20054 3/006 54405 59005 60051 70103 90720 91110=
0248583380999992024011900004+31150+118583FM-12+001699999V0200501N005019999999N003300199+00581+00521102421ADDAA106001031AA212007031AA324010931AY101021AY201021KA1120M+00711KA2120N+00561MA1999999101911MD1210121-0071MW1201OD139901001999REMSYN11258338 04933 /0505 10058 20052 30191 40242 52012 60072 72000 333 10071 20056 3/006 59007 60011 70109 90720 91110=
0248583380999992024011903004+31150+118583FM-12+001699999V0200501N004019999999N002300199+00571+00531102521ADDAA106002031AA212007031AA324010631AY101021AY201021KA1240M+00711KA2240N+00561MA1999999102011MD1210101+0001MW1601OD139901001999REMSYN11258338 04923 /0504 10057 20053 30201 40252 52010 60072 76000 333 10071 20056 3/006 58000 60021 70106 90720 91110=
0254583380999992024011906004+31150+118583FM-12+001699999V0200501N003019999999N005000199+00561+00501102311ADDAA106002031AA212004031AA324010531AY101021AY201021KA1240M+00711KA2240N+00551MA1999999101801MD1710211+9999MW1601OD139901001999REMSYN11858338 04950 /0503 10056 20050 30180 40231 57021 60042 76000 333 10071 20055 3/006 54415 59002 60021 70105 90720 91110=
0254583380999992024011909004+31150+118583FM-12+001699999V0200301N003019999999N003600199+00501+00441102361ADDAA106004031AA212007031AA324012131AY101021AY201021KA1240M+00711KA2240N+00501MA1999999101851MD1210051+9999MW1621OD139901001999REMSYN11858338 04936 /0303 10050 20044 30185 40236 52005 60072 76200 333 10071 20050 3/006 54415 58000 60041 70121 90720 91110=
0254583380999992024011912004+31150+118583FM-12+001699999V0200201N003019999999N004100199+00491+00451102521ADDAA106007031AA212009031AA324015431AY151021AY201021KA1240M+00711KA2240N+00491MA1999999102001MD1210151+9999MW1211OD139901001999REMSYN11858338 04941 /0203 10049 20045 30200 40252 52015 60092 72150 333 10071 20049 3/005 54415 58006 60071 70154 90720 91110=
0254583380999992024011918004+31150+118583FM-12+001699999V0203301N002019999999N002000199+00391+00351102531ADDAA106004031AA212011031AA324014431AY101021AY201021KA1120M+00701KA2120N+00391MA1999999102011MD1710021+9999MW1601OD139900801999REMSYN11858338 04920 /3302 10039 20035 30201 40253 57002 60112 76000 333 10070 20039 3/005 54415 58014 60041 70144 90720 91108=
0238583380999992024011921004+31150+118583FM-12+001699999V0203201N003019999999N003000199+00301+00241102531ADDAA106004031AA212009031AA324015731KA1240M+00621KA2240N+00301MA1999999102011MD1410001+9999MW1601OD139900701999REMSYN11858338 04930 03203 10030 20024 30201 40253 54000 60092 760// 333 10062 20030 3/004 54415 58022 60041 70157 90720 91107=
0254583380999992024012000004+31150+118583FM-12+001699999V0203001N003019999999N001600199+00201+00161102701ADDAA106002031AA212007031AA324015531AY151021AY201021KA1120M+00581KA2120N+00201MA1999999102181MD1210171+9999MW1601OD139900701999REMSYN11858338 04916 /3003 10020 20016 30218 40270 52017 60072 76050 333 10058 20020 3/003 54415 58027 60021 70155 90720 91107=
0254583380999992024012003004+31150+118583FM-12+001699999V0202701N003019999999N001900199+00241+00171102811ADDAA106001031AA212005031AA324014631AY101021AY201021KA1240M+00581KA2240N+00181MA1999999102291MD1210111+9999MW1211OD139900801999REMSYN11858338 04919 /2703 10024 20017 30229 40281 52011 60052 72100 333 10058 20018 3/003 54415 58028 60011 70146 90720 91108=
0254583380999992024012006004+31150+118583FM-12+001699999V0203001N003019999999N003000199+00331+00101102661ADDAA106000331AA212003031AA324013431AY101021AY201021KA1240M+00561KA2240N+00181MA1999999102141MD1710151+9999MW1051OD139900801999REMSYN11858338 04930 /3003 10033 20010 30214 40266 57015 60032 70500 333 10056 20018 3/003 54415 58034 69931 70134 90720 91108=
0254583380999992024012009004+31150+118583FM-12+001699999V0202801N002019999999N003200199+00311+00071102721ADDAA106000091AA212001031AA324010231AY101021AY201021KA1240M+00511KA2240N+00181MA1999999102201MD1210061+9999MW1051OD139900801999REMSYN11858338 04932 /2802 10031 20007 30220 40272 52006 60012 70500 333 10051 20018 3/003 54415 58035 60001 70102 90720 91108=
0254583380999992024012018004+31150+118583FM-12+001699999V0202801N001019999999N003200199+00271+00081103021ADDAA106000091AA212000091AA324002731AY101021AY201021KA1120M+00391KA2120N+00181MA1999999102501MD1710011+9999MW1101OD139900701999REMSYN11858338 04932 /2801 10027 20008 30250 40302 57001 60002 71000 333 10039 20018 3/003 54415 58049 60001 70027 90720 91107=
0267583380999992024012021004+31150+118583FM-12+001699999V0203001N002019999999N002800199+00261+00101103061ADDAA106999999AA212999999AA324001131KA1240M+00351KA2240N+00181MA1999999102541MD1210041+0531MW1501OD139900701999REMSYN11258338 04928 /3002 10026 20010 30254 40306 52004 60002 750// 333 10035 20018 3/003 58053 60001 70011 90720 91107=EQDQ01  00002PRCP06Q02  00002PRCP12
0248583380999992024012100004+31150+118583FM-12+001699999V0202701N001019999999N000800199+00211+00151103241ADDAA106000631AA212000631AA324000931AY151021AY201021KA1120M+00351KA2120N+00181MA1999999102721MD1210181+0541MW1601OD139900701999REMSYN11258338 04908 /2701 10021 20015 30272 40324 52018 69962 76050 333 10035 20018 3/003 58054 69961 70009 90720 91107=
0254583380999992024012103004+31150+118583FM-12+001699999V0203301N003019999999N002400199+00311+00181103361ADDAA106001031AA212001031AA324001331AY101021AY201021KA1240M+00351KA2240N+00191MA1999999102841MD1210121+9999MW1101OD139900501999REMSYN11858338 04924 /3303 10031 20018 30284 40336 52012 60012 71000 333 10035 20019 3/003 54405 58055 60011 70013 90720 91105=
0248583380999992024012106004+31150+118583FM-12+001699999V0203401N002019999999N003500199+00361+00161103221ADDAA106000731AA212001031AA324001331AY101021AY201021KA1240M+00361KA2240N+00191MA1999999102701MD1710141+0561MW1051OD139900601999REMSYN11258338 04935 /3402 10036 20016 30270 40322 57014 60012 70500 333 10036 20019 3/003 58056 69971 70013 90720 91106=
0248583380999992024012109004+31150+118583FM-12+001699999V0200101N004019999999N005000199+00331+00041103341ADDAA106000091AA212001031AA324001331AY101021AY201021KA1240M+00371KA2240N+00191MA1999999102821MD1210121+0621MW1051OD139900701999REMSYN11258338 04950 /0104 10033 20004 30282 40334 52012 60012 70500 333 10037 20019 3/003 58062 60001 70013 90720 91107=
0273583380999992024012112004+31150+118583FM-12+001699999V0200301N004019999999N006000199+00191-00101103641ADDAA106999999AA212000731AA324001331AY151021AY201021KA1240M+00371KA2240N+00191MA1999999103111MD1210291+9999MW1211OD139900801999REMSYN11858338 04956 /0304 10019 21010 30311 40364 52029 69972 72150 333 10037 20019 3/002 54415 58070 60001 70013 90720 91108=EQDQ01  00002PRCP06
0254583380999992024012118004+31150+118583FM-12+001699999V0200301N003019999999N014000199+00041-00521103901ADDAA106000091AA212000091AA324001331AY101021AY201021KA1120M+00371KA2120N+00041MA1999999103371MD1210061+9999MW1001OD139900901999REMSYN11858338 04964 /0303 10004 21052 30337 40390 52006 60002 70000 333 10037 20004 3/100 54415 58087 60001 70013 90720 91109=
0238583380999992024012121004+31150+118583FM-12+001699999V0200301N001019999999N003600199-00031-00331103881ADDAA106000131AA212000131AA324001431KA1240M+00371KA2240N-00031MA1999999103351MD1710021+9999MW1701OD139900901999REMSYN11858338 04936 00301 11003 21033 30335 40388 57002 69912 770// 333 10037 21003 3/100 54415 58081 69911 70014 90720 91109=
0254583380999992024012200004+31150+118583FM-12+001699999V0200401N002019999999N003000199-00081-00221104021ADDAA106000631AA212000631AA324001331AY101021AY201021KA1120M+00371KA2120N-00091MA1999999103491MD1210141+9999MW1701OD139900901999REMSYN11858338 04930 /0402 11008 21022 30349 40402 52014 69962 77000 333 10037 21009 3/100 54415 58077 69961 70013 90720 91109=
0254583380999992024012203004+31150+118583FM-12+001699999V0200101N005019999999N012000199-00111-00921104151ADDAA106000831AA212000931AA324000931AY101021AY201021KA1240M+00371KA2240N-00131MA1999999103621MD1210131+9999MW1001OD139900901999REMSYN11858338 04962 /0105 11011 21092 30362 40415 52013 69992 70000 333 10037 21013 3/100 54415 58078 69981 70009 90720 91109=
0254583380999992024012206004+31150+118583FM-12+001699999V0203501N004019999999N020000199-00101-01061103961ADDAA106000331AA212000931AA324000931AY101021AY201021KA1240M+00371KA2240N-00131MA1999999103431MD1710191+9999MW1001OD139900901999REMSYN11858338 04970 /3504 11010 21106 30343 40396 57019 69992 70000 333 10037 21013 3/100 54415 58073 69931 70009 90720 91109=
0254583380999992024012209004+31150+118583FM-12+001699999V0203401N004019999999N028000199-00181-01221104041ADDAA106000091AA212000831AA324000931AY101021AY201021KA1240M+00331KA2240N-00181MA1999999103501MD1210071+9999MW1001OD139900901999REMSYN11858338 04978 /3404 11018 21122 30350 40404 52007 69982 70000 333 10033 21018 3/100 54415 58068 60001 70009 90720 91109=
0254583380999992024012212004+31150+118583FM-12+001699999V0203401N003019999999N030000199-00241-01391104131ADDAA106000091AA212000331AA324000931AY101021AY201021KA1240M+00191KA2240N-00241MA1999999103591MD1210091+9999MW1001OD139900901999REMSYN11858338 04980 /3403 11024 21139 30359 40413 52009 69932 70000 333 10019 21024 3/101 54415 58048 60001 70009 90720 91109=
0254583380999992024012218004+31150+118583FM-12+001699999V0203301N003019999999N027000199-00421-01331104191ADDAA106000091AA212000091AA324000931AY101021AY201021KA1120M+00041KA2120N-00431MA1999999103651MD1210031+9999MW1001OD139900901999REMSYN11858338 04977 /3303 11042 21133 30365 40419 52003 60002 70000 333 10004 21043 3/106 54415 58028 60001 70009 90720 91109=
0254583380999992024012300004+31150+118583FM-12+001699999V0202901N002019999999N028000199-00521-01311104221ADDAA106000091AA212000091AA324000331AY101021AY201021KA1120M-00061KA2120N-00631MA1999999103681MD1210081+9999MW1001OD139900801999REMSYN11858338 04978 /2902 11052 21131 30368 40422 52008 60002 70000 333 11006 21063 3/108 54415 58019 60001 70003 90720 91108=
0254583380999992024012303004+31150+118583FM-12+001699999V0203201N004019999999N030000199-00261-01701104271ADDAA106000091AA212000091AA324000091AY101021AY201021KA1240M-00061KA2240N-00631MA1999999103731MD1210051+9999MW1001OD139900801999REMSYN11858338 04980 /3204 11026 21170 30373 40427 52005 60002 70000 333 11006 21063 3/108 54415 58011 60001 70000 90720 91108=
0254583380999992024012306004+31150+118583FM-12+001699999V0202801N002019999999N030000199-00011-01451103961ADDAA106000091AA212000091AA324000091AY101021AY201021KA1240M+00011KA2240N-00631MA1999999103421MD1710311+9999MW1001OD139901001999REMSYN11858338 04980 /2802 11001 21145 30342 40396 57031 60002 70000 333 10001 21063 3/108 54405 59001 60001 70000 90720 91110=
0254583380999992024012309004+31150+118583FM-12+001699999V0203001N003019999999N030000199-00051-01481103911ADDAA106000091AA212000091AA324000091AY101021AY201021KA1240M+00041KA2240N-00631MA1999999103371MD1710051+9999MW1001OD139901001999REMSYN11858338 04980 /3003 11005 21148 30337 40391 57005 60002 70000 333 10004 21063 3/108 54405 59013 60001 70000 90720 91110=
0248583380999992024012312004+31150+118583FM-12+001699999V0203001N002019999999N030000199-00251-01151103941ADDAA106000091AA212000091AA324000091AY101021AY201021KA1240M+00041KA2240N-00631MA1999999103401MD1210031-0191MW1001OD139901001999REMSYN11258338 04980 /3002 11025 21115 30340 40394 52003 60002 70000 333 10004 21063 3/105 59019 60001 70000 90720 91110=
0254583380999992024012318004+31150+118583FM-12+001699999V0202501N002019999999N025000199-00541-00901103931ADDAA106000091AA212000091AA324000091AY101021AY201021KA1120M+00041KA2120N-00631MA1999999103391MD1710051+9999MW1001OD139900801999REMSYN11858338 04975 /2502 11054 21090 30339 40393 57005 60002 70000 333 10004 21063 3/105 54415 59026 60001 70000 90720 91108=
0238583380999992024012321004+31150+118583FM-12+001699999V0202601N001019999999N024000199-00621-00971103781ADDAA106000091AA212000091AA324000091KA1240M+00041KA2240N-00641MA1999999103241MD1710151+9999MW1001OD139900501999REMSYN11858338 04974 /2601 11062 21097 30324 40378 57015 60002 700// 333 10004 21064 3/106 54415 59036 60001 70000 90720 91105=
0254583380999992024012400004+31150+118583FM-12+001699999V0202301N002019999999N019000199-00571-00881103881ADDAA106000131AA212000131AA324000131AY101021AY201021KA1120M+00041KA2120N-00671MA1999999103341MD1210101+9999MW1001OD139900301999REMSYN11858338 04969 /2302 11057 21088 30334 40388 52010 69912 70000 333 10004 21067 3/107 54415 59034 69911 70001 90720 91103=
0254583380999992024012403004+31150+118583FM-12+001699999V0202701N002019999999N020000199+00081-01011103861ADDAA106000091AA212000091AA324000091AY101021AY201021KA1240M+00081KA2240N-00671MA1999999103321MD1710021+9999MW1001OD139900601999REMSYN11858338 04970 /2702 10008 21101 30332 40386 57002 60002 70000 333 10008 21067 3/107 54405 59041 60001 70000 90720 91106=
0254583380999992024012406004+31150+118583FM-12+001699999V0203601N003019999999N023000199+00251-01141103581ADDAA106000091AA212000091AA324000091AY101021AY201021KA1240M+00321KA2240N-00671MA1999999103051MD1710271+9999MW1001OD139900601999REMSYN11858338 04973 /3603 10025 21114 30305 40358 57027 60002 70000 333 10032 21067 3/107 54405 59037 60001 70000 90720 91106=
0254583380999992024012418004+31150+118583FM-12+001699999V0202401N002019999999N016000199-00101-00561103511ADDAA106000091AA212000091AA324000091AY101021AY201021KA1120M+00371KA2120N-00671MA1999999102981MD1710021+9999MW1001OD139900701999REMSYN11858338 04966 /2402 11010 21056 30298 40351 57002 60002 70000 333 10037 21067 3/101 54405 59041 60001 70000 90720 91107=
0238583380999992024012421004+31150+118583FM-12+001699999V0202401N001019999999N015000199-00171-00501103451ADDAA106000091AA212000091AA324000091KA1240M+00371KA2240N-00671MA1999999102921MD1710061+9999MW1001OD139900301999REMSYN11858338 04965 /2401 11017 21050 30292 40345 57006 60002 700// 333 10037 21067 3/102 54405 59032 60001 70000 90720 91103=
0254583380999992024012503004+31150+118583FM-12+001699999V0202701N003019999999N021000199+00441-00901103611ADDAA106000091AA212000091AA324000091AY101021AY201021KA1240M+00471KA2240N-00181MA1999999103081MD1210041+9999MW1001OD139900501999REMSYN11858338 04971 /2703 10044 21090 30308 40361 52004 60002 70000 333 10047 21018 3/102 54405 59024 60001 70000 90720 91105=
0254583380999992024012506004+31150+118583FM-12+001699999V0202901N004019999999N023000199+00621-00971103361ADDAA106000091AA212000091AA324000091AY101021AY201021KA1240M+00651KA2240N-00181MA1999999102831MD1710251+9999MW1001OD139900801999REMSYN11858338 04973 /2904 10062 21097 30283 40336 57025 60002 70000 333 10065 21018 3/102 54405 59022 60001 70000 90720 91108=
0254583380999992024012509004+31150+118583FM-12+001699999V0202601N002019999999N022000199+00561-00901103321ADDAA106000091AA212000091AA324000091AY101021AY201021KA1240M+00701KA2240N-00181MA1999999102791MD1710041+9999MW1001OD139900901999REMSYN11858338 04972 /2602 10056 21090 30279 40332 57004 60002 70000 333 10070 21018 3/101 54405 59019 60001 70000 90720 91109=
0254583380999992024012512004+31150+118583FM-12+001699999V0202401N001019999999N020000199+00291-00881103421ADDAA106000091AA212000091AA324000091AY101021AY201021KA1240M+00701KA2240N-00181MA1999999102891MD1210101+9999MW1001OD139900901999REMSYN11858338 04970 /2401 10029 21088 30289 40342 52010 60002 70000 333 10070 21018 3/101 54405 59015 60001 70000 90720 91109=
0254583380999992024012518004+31150+118583FM-12+001699999V0202601N002019999999N014000199-00161-00601103381ADDAA106000091AA212000091AA324000091AY101021AY201021KA1120M+00701KA2120N-00181MA1999999102851MD1710071+9999MW1001OD139900901999REMSYN11858338 04964 /2602 11016 21060 30285 40338 57007 60002 70000 333 10070 21018 3/102 54415 59013 60001 70000 90720 91109=
0238583380999992024012521004+31150+118583FM-12+001699999V0202701N002019999999N011000199-00231-00501103321ADDAA106000091AA212000091AA324000091KA1240M+00701KA2240N-00231MA1999999102791MD1710061+9999MW1001OD139900401999REMSYN11858338 04961 /2702 11023 21050 30279 40332 57006 60002 700// 333 10070 21023 3/103 54415 59013 60001 70000 90720 91104=
0254583380999992024012600004+31150+118583FM-12+001699999V0202501N001019999999N010000199-00081-00401103451ADDAA106000091AA212000091AA324000091AY101021AY201021KA1120M+00701KA2120N-00241MA1999999102921MD1210131+9999MW1001OD139900301999REMSYN11858338 04960 /2501 11008 21040 30292 40345 52013 60002 70000 333 10070 21024 3/103 54405 59012 60001 70000 90720 91103=
0254583380999992024012603004+31150+118583FM-12+001699999V0203301N002019999999N014000199+00581-00711103431ADDAA106000091AA212000091AA324000091AY101021AY201021KA1240M+00701KA2240N-00241MA1999999102901MD1710021+9999MW1001OD139900401999REMSYN11858338 04964 /3302 10058 21071 30290 40343 57002 60002 70000 333 10070 21024 3/103 54405 59018 60001 70000 90720 91104=
0254583380999992024012606004+31150+118583FM-12+001699999V0203001N001019999999N011000199+00531-00661103241ADDAA106000091AA212000091AA324000091AY101021AY201021KA1240M+00701KA2240N-00241MA1999999102711MD1710191+9999MW1001OD139900401999REMSYN11858338 04961 /3001 10053 21066 30271 40324 57019 60002 70000 333 10070 21024 3/103 54415 59012 60001 70000 90720 91104=
0254583380999992024012609004+31150+118583FM-12+001699999V0202701N001019999999N013000199+00501-00621103251ADDAA106000091AA212000091AA324000091AY101021AY201021KA1240M+00601KA2240N-00241MA1999999102721MD1210011+9999MW1001OD139900401999REMSYN11858338 04963 /2701 10050 21062 30272 40325 52001 60002 70000 333 10060 21024 3/103 54415 59007 60001 70000 90720 91104=
0254583380999992024012612004+31150+118583FM-12+001699999V0202201N001019999999N010000199+00391-00481103271ADDAA106000091AA212000091AA324000091AY101021AY201021KA1240M+00601KA2240N-00241MA1999999102741MD1210021+9999MW1001OD139900401999REMSYN11858338 04960 /2201 10039 21048 30274 40327 52002 60002 70000 333 10060 21024 3/100 54405 59015 60001 70000 90720 91104=
0254583380999992024012618004+31150+118583FM-12+001699999V0202401N001019999999N008000199+00121-00271103211ADDAA106000091AA212000091AA324000091AY101021AY201021KA1120M+00601KA2120N-00241MA1999999102691MD1710021+9999MW1001OD139900301999REMSYN11858338 04958 /2401 10012 21027 30269 40321 57002 60002 70000 333 10060 21024 3/100 54405 59016 60001 70000 90720 91103=
0238583380999992024012621004+31150+118583FM-12+001699999V0202801N001019999999N007000199+00021-00271103191ADDAA106000091AA212000091AA324000091KA1240M+00601KA2240N-00241MA1999999102671MD1710021+9999MW1101OD139900201999REMSYN11858338 04957 /2801 10002 21027 30267 40319 57002 60002 710// 333 10060 21024 3/101 54405 59012 60001 70000 90720 91102=
0254583380999992024012700004+31150+118583FM-12+001699999V0202501N001019999999N008000199+00021-00281103311ADDAA106000091AA212000091AA324000091AY101021AY201021KA1120M+00601KA2120N-00071MA1999999102781MD1210111+9999MW1001OD139900301999REMSYN11858338 04958 /2501 10002 21028 30278 40331 52011 60002 70000 333 10060 21007 3/101 54405 59014 60001 70000 90720 91103=
0254583380999992024012703004+31150+118583FM-12+001699999V0202601N002019999999N011000199+00421-00291103321ADDAA106000091AA212000091AA324000091AY101021AY201021KA1240M+00581KA2240N-00061MA1999999102801MD1210021+9999MW1001OD139900301999REMSYN11858338 04961 /2602 10042 21029 30280 40332 52002 60002 70000 333 10058 21006 3/101 54415 59010 60001 70000 90720 91103=
0254583380999992024012706004+31150+118583FM-12+001699999V0202701N003019999999N012000199+00781-00531103081ADDAA106000091AA212000091AA324000091AY101021AY201021KA1240M+00781KA2240N-00061MA1999999102561MD1710241+9999MW1001OD139900601999REMSYN11858338 04962 /2703 10078 21053 30256 40308 57024 60002 70000 333 10078 21006 3/101 54405 59015 60001 70000 90720 91106=
0248583380999992024012712004+31150+118583FM-12+001699999V0202401N001019999999N012000199+00361-00671103171ADDAA106000091AA212000091AA324000091AY101021AY201021KA1240M+00821KA2240N-00061MA1999999102641MD1210071-0101MW1001OD139900801999REMSYN11258338 04962 /2401 10036 21067 30264 40317 52007 60002 70000 333 10082 21006 3/101 59010 60001 70000 90720 91108=
0254583380999992024012718004+31150+118583FM-12+001699999V0202501N003019999999N011000199-00031-00531103281ADDAA106000091AA212000091AA324000091AY101021AY201021KA1120M+00821KA2120N-00061MA1999999102761MD1210031+9999MW1001OD139900801999REMSYN11858338 04961 /2503 11003 21053 30276 40328 52003 60002 70000 333 10082 21006 3/102 54415 58007 60001 70000 90720 91108=
0238583380999992024012721004+31150+118583FM-12+001699999V0202401N002019999999N010000199-00141-00531103241ADDAA106000091AA212000091AA324000091KA1240M+00821KA2240N-00141MA1999999102721MD1710041+9999MW1001OD139900401999REMSYN11858338 04960 /2402 11014 21053 30272 40324 57004 60002 700// 333 10082 21014 3/103 54415 58005 60001 70000 90720 91104=
0254583380999992024012803004+31150+118583FM-12+001699999V0202701N002019999999N013000199+00751-00521103401ADDAA106000091AA212000091AA324000091AY101021AY201021KA1240M+00821KA2240N-00161MA1999999102881MD1410001+9999MW1001OD139900401999REMSYN11858338 04963 /2702 10075 21052 30288 40340 54000 60002 70000 333 10082 21016 3/104 54405 58008 60001 70000 90720 91104=
0254583380999992024012812004+31150+118583FM-12+001699999V0201101N002019999999N011000199+00421-00581103121ADDAA106000091AA212000091AA324000091AY101021AY201021KA1240M+01051KA2240N-00161MA1999999102591MD1210031+9999MW1001OD139900501999REMSYN11858338 04961 /1102 10042 21058 30259 40312 52003 60002 70000 333 10105 21016 3/101 54405 59005 60001 70000 90720 91105=
0254583380999992024012818004+31150+118583FM-12+001699999V0201001N002019999999N008000199+00351-00251102891ADDAA106000091AA212000091AA324000091AY101021AY201021KA1120M+01051KA2120N-00161MA1999999102381MD1710201+9999MW1001OD139900501999REMSYN11858338 04958 /1002 10035 21025 30238 40289 57020 60002 70000 333 10105 21016 3/002 54405 59038 60001 70000 90720 91105=
0238583380999992024012821004+31150+118583FM-12+001699999V0200701N002019999999N007000199+00261-00251102831ADDAA106000091AA212000091AA324000091KA1240M+01051KA2240N-00161MA1999999102311MD1710071+9999MW1001OD139900401999REMSYN11858338 04957 /0702 10026 21025 30231 40283 57007 60002 700// 333 10105 21016 3/000 54405 59041 60001 70000 90720 91104=
0254583380999992024012900004+31150+118583FM-12+001699999V0201001N002019999999N009000199+00391-00361102861ADDAA106000091AA212000091AA324000091AY101021AY201021KA1120M+01051KA2120N-00031MA1999999102341MD1210031+9999MW1001OD139900501999REMSYN11858338 04959 /1002 10039 21036 30234 40286 52003 60002 70000 333 10105 21003 3/000 54405 59054 60001 70000 90720 91105=
0248583380999992024012903004+31150+118583FM-12+001699999V0200801N003019999999N010000199+00791-00391102831ADDAA106000091AA212000091AA324000091AY101021AY201021KA1240M+01051KA2240N+00231MA1999999102311MD1710031-0571MW1001OD139900501999REMSYN11258338 04960 /0803 10079 21039 30231 40283 57003 60002 70000 333 10105 20023 3/000 59057 60001 70000 90720 91105=
0254583380999992024012906004+31150+118583FM-12+001699999V0200801N003019999999N011000199+01121-00451102531ADDAA106000091AA212000091AA324000091AY101021AY201021KA1240M+01141KA2240N+00231MA1999999102021MD1710291+9999MW1001OD139900501999REMSYN11858338 04961 /0803 10112 21045 30202 40253 57029 60002 70000 333 10114 20023 3/000 54405 59060 60001 70000 90720 91105=
0254583380999992024012909004+31150+118583FM-12+001699999V0200501N002019999999N008000199+01031-00081102501ADDAA106000091AA212000091AA324000091AY101021AY201021KA1240M+01141KA2240N+00231MA1999999101991MD1710031+9999MW1001OD139900501999REMSYN11858338 04958 /0502 10103 21008 30199 40250 57003 60002 70000 333 10114 20023 3/000 54405 59057 60001 70000 90720 91105=
0254583380999992024012912004+31150+118583FM-12+001699999V0200801N004019999999N007000199+00871-00011102531ADDAA106000091AA212000091AA324000091AY101021AY201021KA1240M+01141KA2240N+00231MA1999999102021MD1210031+9999MW1051OD139900701999REMSYN11858338 04957 /0804 10087 21001 30202 40253 52003 60002 70500 333 10114 20023 3/003 54405 59057 60001 70000 90720 91107=
0254583380999992024012918004+31150+118583FM-12+001699999V0200801N003019999999N004700199+00691+00261102411ADDAA106000091AA212000091AA324000091AY101021AY201021KA1120M+01141KA2120N+00231MA1999999101901MD1710081+9999MW1051OD139900801999REMSYN11858338 04947 /0803 10069 20026 30190 40241 57008 60002 70500 333 10114 20023 3/006 54405 59048 60001 70000 90720 91108=
0238583380999992024012921004+31150+118583FM-12+001699999V0200701N002019999999N003600199+00651+00371102371ADDAA106000091AA212000091AA324000091KA1240M+01141KA2240N+00231MA1999999101861MD1710041+9999MW1101OD139900801999REMSYN11858338 04936 /0702 10065 20037 30186 40237 57004 60002 710// 333 10114 20023 3/006 54405 59045 60001 70000 90720 91108=
0254583380999992024013000004+31150+118583FM-12+001699999V0201101N001019999999N002700199+00651+00451102431ADDAA106000091AA212000091AA324000091AY101021AY201021KA1120M+01141KA2120N+00391MA1999999101921MD1210061+9999MW1101OD139900801999REMSYN11858338 04927 /1101 10065 20045 30192 40243 52006 60002 71000 333 10114 20039 3/006 54405 59042 60001 70000 90720 91108=
0254583380999992024013003004+31150+118583FM-12+001699999V0202501N001019999999N007000199+01081+00381102421ADDAA106000091AA212000091AA324000091AY101021AY201021KA1240M+01141KA2240N+00621MA1999999101911MD1710011+9999MW1051OD139900501999REMSYN11858338 04957 /2501 10108 20038 30191 40242 57001 60002 70500 333 10114 20062 3/006 54405 59040 60001 70000 90720 91105=
0273583380999992024013006004+31150+118583FM-12+001699999V0200601N002019999999N007000199+01321+00561102161ADDAA106000091AA212000091AA324000091AY101021AY201021KA1240M+01361KA2240N+00621MA1999999101651MD1710261+9999MW1051OD139900501999REMSYN11858338 04957 /0602 10132 20056 30165 40216 57026 60002 70500 333 10136 20062 3/006 54405 59037 60001 79999 90720 91105=EQDQ01  00002PRCP24
0254583380999992024013009004+31150+118583FM-12+001699999V0200801N002019999999N009000199+01261+00641102131ADDAA106000091AA212000091AA324000091AY101021AY201021KA1240M+01391KA2240N+00621MA1999999101621MD1710031+9999MW1001OD139900401999REMSYN11858338 04959 /0802 10126 20064 30162 40213 57003 60002 70000 333 10139 20062 3/006 54405 59037 60001 70000 90720 91104=
0273583380999992024013012004+31150+118583FM-12+001699999V0200501N001019999999N007000199+01161+00671102191ADDAA106000091AA212000091AA324000091AY101021AY201021KA1240M+01391KA2240N+00621MA1999999101681MD1210061+9999MW1051OD139900401999REMSYN11858338 04957 /0501 10116 20067 30168 40219 52006 60002 70500 333 10139 20062 3/007 54405 59034 60001 79999 90720 91104=EQDQ01  00002PRCP24
0254583380999992024013018004+31150+118583FM-12+001699999V0200501N002019999999N002800199+01011+00821102071ADDAA106000091AA212000091AA324000091AY101021AY201021KA1120M+01391KA2120N+00621MA1999999101571MD1710121+9999MW1101OD139900501999REMSYN11858338 04928 /0502 10101 20082 30157 40207 57012 60002 71000 333 10139 20062 3/009 54405 59033 60001 70000 90720 91105=
0238583380999992024013021004+31150+118583FM-12+001699999V0200701N002019999999N001200199+00941+00881102001ADDAA106001031AA212001031AA324001331KA1240M+01391KA2240N+00621MA1999999101501MD1710071+9999MW1601OD139900501999REMSYN11858338 04912 /0702 10094 20088 30150 40200 57007 60012 760// 333 10139 20062 3/009 54405 59036 60011 70013 90720 91105=
0254583380999992024013100004+31150+118583FM-12+001699999V0203601N002019999999N001000199+00941+00901102211ADDAA106004031AA212004031AA324004331AY151021AY201021KA1120M+01391KA2120N+00651MA1999999101711MD1210211+9999MW1601OD139900501999REMSYN11858338 04910 /3602 10094 20090 30171 40221 52021 60042 76050 333 10139 20065 3/009 54405 59021 60041 70043 90720 91105=
0254583380999992024013103004+31150+118583FM-12+001699999V0200401N001019999999N001900199+00981+00951102311ADDAA106003031AA212005032AA324004732AY101021AY201021KA1240M+01391KA2240N+00921MA1999999101801MD1210091+9999MW1201OD139900501999REMSYN11858338 04919 /0401 10098 20095 30180 40231 52009 60052 72000 333 10139 20092 3/009 54415 59011 60031 70047 90720 91105=
0254583380999992024013106004+31150+118583FM-12+001699999V0200501N002019999999N003500199+01021+00981101991ADDAA106000531AA212005032AA324004832AY101021AY201021KA1240M+01391KA2240N+00921MA1999999101491MD1710311+9999MW1601OD139900501999REMSYN11858338 04935 /0502 10102 20098 30149 40199 57031 60052 76000 333 10139 20092 3/009 54415 59016 69951 70048 90720 91105=
0254583380999992024013112004+31150+118583FM-12+001699999V0200401N003019999999N006000199+00911+00851102001ADDAA106000131AA212000631AA324004931AY101021AY201021KA1240M+01171KA2240N+00911MA1999999101491MD1210091+9999MW1101OD139900601999REMSYN11858338 04956 /0403 10091 20085 30149 40200 52009 69962 71000 333 10117 20091 3/009 54415 59019 69911 70049 90720 91106=
0254583380999992024013118004+31150+118583FM-12+001699999V0200101N002019999999N001600199+00831+00801102131ADDAA106010031AA212010031AA324014731AY151021AY201021KA1120M+01031KA2120N+00831MA1999999101621MD1210061+9999MW1621OD139900601999REMSYN11858338 04916 /0102 10083 20080 30162 40213 52006 60102 76250 333 10103 20083 3/008 54415 58005 60101 70147 90720 91106=
0238583380999992024013121004+31150+118583FM-12+001699999V0203401N002019999999N002400199+00811+00781102241ADDAA106014031AA212014031AA324017231KA1240M+01031KA2240N+00811MA1999999101731MD1210111+9999MW1621OD139900601999REMSYN11858338 04924 /3402 10081 20078 30173 40224 52011 60142 762// 333 10103 20081 3/008 54415 58023 60141 70172 90720 91106=
0254583380999992024020100004+31150+118583FM-12+001699999V0200401N003019999999N006000199+00741+00701102561ADDAA106008031AA212018031AA324018631AY101021AY201021KA1120M+01031KA2120N+00731MA1999999102051MD1210321+9999MW1601OD139900701999REMSYN11858338 04956 /0403 10074 20070 30205 40256 52032 60182 76000 333 10103 20073 3/008 54415 58034 60081 70186 90720 91107=
0254583380999992024020103004+31150+118583FM-12+001699999V0200401N004019999999N005000199+00541+00441102641ADDAA106005031AA212019031AA324019131AY101021AY201021KA1240M+01031KA2240N+00541MA1999999102131MD1210081+9999MW1621OD139901101999REMSYN11858338 04950 /0404 10054 20044 30213 40264 52008 60192 76200 333 10103 20054 3/006 54415 58033 60051 70191 90720 91111=
0254583380999992024020106004+31150+118583FM-12+001699999V0200401N004019999999N013000199+00451+00361102601ADDAA106003031AA212011031AA324020831AY161021AY201021KA1240M+01021KA2240N+00441MA1999999102091MD1710041+9999MW1601OD139901101999REMSYN11858338 04063 00404 10045 20036 30209 40260 57004 60112 76060 333 10102 20044 3/006 54416 58060 60031 70208 90720 91111=
0254583380999992024020109004+31150+118583FM-12+001699999V0200401N005019999999N006000199+00371+00311102641ADDAA106005031AA212010031AA324024031AY161021AY261021KA1240M+00951KA2240N+00371MA1999999102121MD1210031+9999MW1601OD139901101999REMSYN11858338 04056 00405 10037 20031 30212 40264 52003 60102 76066 333 10095 20037 3/005 54416 58072 60051 70240 90720 91111=
0254583380999992024020112004+31150+118583FM-12+001699999V0200401N005019999999N005000199+00331+00241102801ADDAA106004031AA212007031AA324024931AY161021AY201021KA1240M+00911KA2240N+00331MA1999999102281MD1210161+9999MW1601OD139901101999REMSYN11858338 04050 00405 10033 20024 30228 40280 52016 60072 76060 333 10091 20033 3/004 54416 58079 60041 70249 90720 91111=
0254583380999992024020118004+31150+118583FM-12+001699999V0200401N004019999999N007000199+00131+00071102821ADDAA106001031AA212006031AA324016531AY161021AY201021KA1120M+00831KA2120N+00121MA1999999102301MD1710061+9999MW1501OD139901101999REMSYN11858338 04957 /0404 10013 20007 30230 40282 57006 60062 75060 333 10083 20012 3/002 54417 58068 60011 70165 90720 91111=
0238583380999992024020121004+31150+118583FM-12+001699999V0200501N003019999999N008000199+00131+00041102821ADDAA106001031AA212003031AA324013031KA1240M+00811KA2240N+00111MA1999999102301MD1410001+9999MW1001OD139901001999REMSYN11858338 04958 /0503 10013 20004 30230 40282 54000 60032 700// 333 10081 20011 3/002 54417 58057 60011 70130 90720 91110=
0254583380999992024020200004+31150+118583FM-12+001699999V0200601N005019999999N010000199+00161+00031102791ADDAA106000331AA212002031AA324008631AY161021AY251021KA1120M+00741KA2120N+00111MA1999999102271MD1710031+9999MW1001OD139901001999REMSYN11858338 04060 00605 10016 20003 30227 40279 57003 60022 70065 333 10074 20011 3/002 54416 58022 69931 70086 90720 91110=
0254583380999992024020206004+31150+118583FM-12+001699999V0200601N004019999999N009000199+00291+00051102701ADDAA106000091AA212000331AA324005931AY101021AY201021KA1240M+00461KA2240N+00111MA1999999102181MD1710201+9999MW1001OD139901001999REMSYN11858338 04959 /0604 10029 20005 30218 40270 57020 69932 70000 333 10046 20011 3/002 54415 58009 60001 70059 90720 91110=
0254583380999992024020212004+31150+118583FM-12+001699999V0200701N005019999999N002900199+00221+00151102841ADDAA106001031AA212001031AA324003031AY101021AY201021KA1240M+00331KA2240N+00111MA1999999102321MD1210151+9999MW1601OD139901001999REMSYN11858338 04929 /0705 10022 20015 30232 40284 52015 60012 76000 333 10033 20011 3/002 54415 58004 60011 70030 90720 91110=
0254583380999992024020218004+31150+118583FM-12+001699999V0200601N007019999999N009000199+00221+00151102681ADDAA106006031AA212007031AA324007631AY151021AY201021KA1120M+00301KA2120N+00111MA1999999102161MD1710181+9999MW1211OD139901101999REMSYN11858338 04959 /0607 10022 20015 30216 40268 57018 60072 72150 333 10030 20011 3/002 54405 59014 60061 70076 90720 91111=
0232583380999992024020221004+31150+118583FM-12+001699999V0200401N003019999999N004500199+00141+00071102791ADDAA106010031AA212014032AA324013832KA1240M+00301KA2240N+00121MA1999999102271MD1210111-0031MW1601OD139901101999REMSYN11258338 04945 /0403 10014 20007 30227 40279 52011 60142 760// 333 10030 20012 3/002 59003 60101 70138 90720 91111=
0248583380999992024020300004+31150+118583FM-12+001699999V0200501N004019999999N011000199+00121+00041102911ADDAA106008031AA212014031AA324014831AY101021AY201021KA1120M+00301KA2120N+00111MA1999999102391MD1210121+0121MW1211OD139901101999REMSYN11258338 04061 00504 10012 20004 30239 40291 52012 60142 72100 333 10030 20011 3/002 58012 60081 70148 90720 91111=
0248583380999992024020303004+31150+118583FM-12+001699999V0200401N002019999999N003100199+00171+00111103051ADDAA106001031AA212011031AA324015131AY151021AY201021KA1240M+00301KA2240N+00111MA1999999102531MD1210141+0151MW1601OD139901101999REMSYN11258338 04931 /0402 10017 20011 30253 40305 52014 60112 76050 333 10030 20011 3/002 58015 60011 70151 90720 91111=
0254583380999992024020306004+31150+118583FM-12+001699999V0200101N002019999999N007000199+00201+00141102821ADDAA106000931AA212008031AA324015731AY151021AY201021KA1240M+00301KA2240N+00111MA1999999102301MD1710231+9999MW1601OD139901001999REMSYN11858338 04957 /0102 10020 20014 30230 40282 57023 60082 76050 333 10030 20011 3/002 54415 58012 69991 70157 90720 91110=
0248583380999992024020309004+31150+118583FM-12+001699999V0200201N003019999999N004800199+00201+00141102871ADDAA106003031AA212005031AA324018531AY101021AY201021KA1240M+00271KA2240N+00111MA1999999102351MD1210051+0181MW1601OD139900901999REMSYN11258338 04948 /0203 10020 20014 30235 40287 52005 60052 76000 333 10027 20011 3/002 58018 60031 70185 90720 91109=
0254583380999992024020312004+31150+118583FM-12+001699999V0200301N003019999999N003400199+00161+00101102991ADDAA106003031AA212004031AA324017731AY101021AY201021KA1240M+00271KA2240N+00111MA1999999102461MD1210111+9999MW1601OD139900801999REMSYN11858338 04934 /0303 10016 20010 30246 40299 52011 60042 76000 333 10027 20011 3/002 54415 58014 60031 70177 90720 91108=
0254583380999992024020318004+31150+118583FM-12+001699999V0200501N002019999999N003600199+00131+00071102791ADDAA106002031AA212005031AA324013531AY151021AY201021KA1120M+00221KA2120N+00111MA1999999102271MD1710191+9999MW1601OD139900601999REMSYN11858338 04936 /0502 10013 20007 30227 40279 57019 60052 76050 333 10022 20011 3/002 54415 58011 60021 70135 90720 91106=
0232583380999992024020321004+31150+118583FM-12+001699999V0200401N004019999999N001700199+00111+00071102611ADDAA106003031AA212005031AA324009731KA1240M+00221KA2240N+00111MA1999999102091MD1710181-0181MW1601OD139900701999REMSYN11258338 04917 /0404 10011 20007 30209 40261 57018 60052 760// 333 10022 20011 3/002 59018 60031 70097 90720 91107=
0248583380999992024020400004+31150+118583FM-12+001699999V0200601N006019999999N002200199+00141+00101102431ADDAA106009031AA212011031AA324015031AY101021AY201021KA1120M+00221KA2120N+00111MA1999999101911MD1710181-0481MW1621OD139900901999REMSYN11258338 04922 /0606 10014 20010 30191 40243 57018 60112 76200 333 10022 20011 3/002 59048 60091 70150 90720 91109=
0248583380999992024020403004+31150+118583FM-12+001699999V0200501N003019999999N002300199+00151+00111102591ADDAA106014031AA212017031AA324022231AY101021AY201021KA1240M+00221KA2240N+00111MA1999999102071MD1210161-0461MW1621OD139901001999REMSYN11258338 04923 /0503 10015 20011 30207 40259 52016 60172 76200 333 10022 20011 3/002 59046 60141 70222 90720 91110=
0248583380999992024020406004+31150+118583FM-12+001699999V0200101N003019999999N004700199+00181+00111102461ADDAA106011031AA212020031AA324025231AY101021AY201021KA1240M+00221KA2240N+00111MA1999999101941MD1710131-0361MW1501OD139901001999REMSYN11258338 04947 /0103 10018 20011 30194 40246 57013 60202 75000 333 10022 20011 3/002 59036 60111 70252 90720 91110=
0248583380999992024020409004+31150+118583FM-12+001699999V0203001N003019999999N002500199+00201+00161102561ADDAA106005031AA212019031AA324023731AY161021AY201021KA1240M+00201KA2240N+00111MA1999999102041MD1210101-0311MW1501OD139901001999REMSYN11258338 04925 /3003 10020 20016 30204 40256 52010 60192 75060 333 10020 20011 3/002 59031 60051 70237 90720 91110=
0254583380999992024020412004+31150+118583FM-12+001699999V0203001N003019999999N001100199+00061+00021102621ADDAA106004031AA212015031AA324025431AY161021AY251021KA1240M+00201KA2240N+00061MA1999999102101MD1210061+9999MW1681OD139901001999REMSYN11858338 04911 /3003 10006 20002 30210 40262 52006 60152 76865 333 10020 20006 3/000 54415 59036 60041 70254 90720 91110=
0254583380999992024020418004+31150+118583FM-12+001699999V0202901N003019999999N003200199+00041-00071102811ADDAA106000631AA212004031AA324024231AY101021AY201021KA1120M+00201KA2120N+00031MA1999999102281MD1710091+9999MW1101OD139901001999REMSYN11858338 04932 /2903 10004 21007 30228 40281 57009 60042 71000 333 10020 20003 3/000 54415 58001 69961 70242 90720 91110=
0238583380999992024020421004+31150+118583FM-12+001699999V0202701N004019999999N003800199+00011-00131102921ADDAA106000091AA212003031AA324021531KA1240M+00201KA2240N+00011MA1999999102391MD1210111+9999MW1101OD139901001999REMSYN11858338 04938 /2704 10001 21013 30239 40292 52011 60032 710// 333 10020 20001 3/000 54415 58030 60001 70215 90720 91110=
0254583380999992024020500004+31150+118583FM-12+001699999V0202901N003019999999N003700199-00031-00191103131ADDAA106000021AA212000631AA324015231AY101021AY201021KA1120M+00201KA2120N-00031MA1999999102601MD1210211+9999MW1701OD139901001999REMSYN11858338 04037 02903 11003 21019 30260 40313 52021 69962 77000 333 10020 21003 3/000 54415 58069 69901 70152 90720 91110=
0254583380999992024020503004+31150+118583FM-12+001699999V0203001N002019999999N006000199+00071-00201103081ADDAA106000021AA212000021AA324007731AY101021AY201021KA1240M+00201KA2240N-00031MA1999999102551MD1710051+9999MW1101OD139900901999REMSYN11858338 04956 /3002 10007 21020 30255 40308 57005 69902 71000 333 10020 21003 3/000 54415 58048 69901 70077 90720 91109=
0254583380999992024020506004+31150+118583FM-12+001699999V0202901N003019999999N007000199+00121-00221103041ADDAA106000091AA212000021AA324004131AY101021AY201021KA1240M+00201KA2240N-00031MA1999999102511MD1710041+9999MW1051OD139900901999REMSYN11858338 04957 /2903 10012 21022 30251 40304 57004 69902 70500 333 10020 21003 3/000 54415 58057 60001 70041 90720 91109=
0254583380999992024020509004+31150+118583FM-12+001699999V0203501N002019999999N006000199+00051-00241103041ADDAA106000091AA212000021AA324002831AY101021AY201021KA1240M+00201KA2240N-00031MA1999999102511MD1410001+9999MW1051OD139900901999REMSYN11858338 04056 03502 10005 21024 30251 40304 54000 69902 70500 333 10020 21003 3/000 54415 58047 60001 70028 90720 91109=
0254583380999992024020512004+31150+118583FM-12+001699999V0200101N002019999999N005000199-00041-00291103111ADDAA106000091AA212000091AA324000631AY101021AY201021KA1240M+00151KA2240N-00041MA1999999102581MD1210071+9999MW1101OD139900701999REMSYN11858338 04050 00102 11004 21029 30258 40311 52007 60002 71000 333 10015 21004 3/000 54415 58048 60001 70006 90720 91107=
0254583380999992024020518004+31150+118583FM-12+001699999V0200301N003019999999N003300199-00051-00261103031ADDAA106000091AA212000091AA324000021AY101021AY201021KA1120M+00151KA2120N-00051MA1999999102501MD1710141+9999MW1101OD139900701999REMSYN11858338 04933 /0303 11005 21026 30250 40303 57014 60002 71000 333 10015 21005 3/000 54415 58022 60001 79999 90720 91107=
0238583380999992024020521004+31150+118583FM-12+001699999V0200201N003019999999N003700199-00051-00241103021ADDAA106000091AA212000091AA324000021KA1240M+00151KA2240N-00051MA1999999102491MD1710011+9999MW1101OD139900501999REMSYN11858338 04937 00203 11005 21024 30249 40302 57001 60002 710// 333 10015 21005 3/000 54415 58010 60001 79999 90720 91105=
0248583380999992024020600004+31150+118583FM-12+001699999V0200101N003019999999N002900199-00071-00241103161ADDAA106000091AA212000091AA324000091AY101021AY201021KA1120M+00151KA2120N-00071MA1999999102631MD1210141+0031MW1101OD139900501999REMSYN11258338 04929 /0103 11007 21024 30263 40316 52014 60002 71000 333 10015 21007 3/100 58003 60001 70000 90720 91105=
0254583380999992024020603004+31150+118583FM-12+001699999V0200601N003019999999N004600199+00011-00291103201ADDAA106000091AA212000091AA324000091AY101021AY201021KA1240M+00151KA2240N-00071MA1999999102671MD1210041+9999MW1101OD139900501999REMSYN11858338 04946 /0603 10001 21029 30267 40320 52004 60002 71000 333 10015 21007 3/100 54415 58012 60001 70000 90720 91105=
0305583380999992024020606004+31150+118583FM-12+001699999V0200401N002019999999N004100199+00041-00211102991ADDAA106999999AA212999999AA324999999AY101021AY201021KA1240M+00151KA2240N-00071MA1999999102461MD1710211+9999MW1681OD139900501999REMSYN11858338 04941 /0402 10004 21021 30246 40299 57021 60002 76800 333 10015 21007 3/100 54415 59005 60001 70000 90720 91105=EQDQ01  00002PRCP06Q02  00002PRCP12Q03  00002PRCP24
0248583380999992024020609004+31150+118583FM-12+001699999V0200401N001019999999N005000199+00091-00231102941ADDAA106000021AA212000021AA324000021AY101021AY201021KA1240M+00091KA2240N-00071MA1999999102411MD1710051-0101MW1051OD139900501999REMSYN11258338 04950 /0401 10009 21023 30241 40294 57005 69902 70500 333 10009 21007 3/100 59010 69901 79999 90720 91105=
0254583380999992024020612004+31150+118583FM-12+001699999V0200301N002019999999N005000199+00101-00241102991ADDAA106000021AA212000021AA324000021AY101021AY201021KA1240M+00101KA2240N-00071MA1999999102461MD1210051+9999MW1051OD139900501999REMSYN11858338 04950 /0302 10010 21024 30246 40299 52005 69902 70500 333 10010 21007 3/000 54405 59012 69901 79999 90720 91105=
0254583380999992024020618004+31150+118583FM-12+001699999V0203501N001019999999N004300199+00091-00221103081ADDAA106000091AA212000021AA324000021AY101021AY201021KA1120M+00111KA2120N-00071MA1999999102551MD1410001+9999MW1101OD139900401999REMSYN11858338 04943 /3501 10009 21022 30255 40308 54000 69902 71000 333 10011 21007 3/001 54405 58005 60001 79999 90720 91104=
0238583380999992024020621004+31150+118583FM-12+001699999V0200201N002019999999N004800199+00091-00131102931ADDAA106000091AA212000091AA324000021KA1240M+00111KA2240N-00071MA1999999102401MD1710151+9999MW1101OD139900401999REMSYN11858338 04948 00202 10009 21013 30240 40293 57015 60002 710// 333 10011 21007 3/001 54405 59009 60001 79999 90720 91104=
0254583380999992024020700004+31150+118583FM-12+001699999V0200301N002019999999N008000199+00101-00191103051ADDAA106000091AA212000091AA324000021AY101021AY201021KA1120M+00111KA2120N-00071MA1999999102521MD1210121+9999MW1001OD139900401999REMSYN11858338 04958 /0302 10010 21019 30252 40305 52012 60002 70000 333 10011 21007 3/000 54405 59011 60001 79999 90720 91104=
0254583380999992024020703004+31150+118583FM-12+001699999V0200401N002019999999N009000199+00211-00201103111ADDAA106000091AA212000091AA324000021AY101021AY201021KA1240M+00211KA2240N+00011MA1999999102581MD1210061+9999MW1001OD139900501999REMSYN11858338 04959 /0402 10021 21020 30258 40311 52006 60002 70000 333 10021 20001 3/000 54405 59009 60001 79999 90720 91105=
0254583380999992024020706004+31150+118583FM-12+001699999V0200101N002019999999N009000199+00361-00161102831ADDAA106000091AA212000091AA324000021AY101021AY201021KA1240M+00361KA2240N+00041MA1999999102311MD1710271+9999MW1001OD139900501999REMSYN11858338 04959 /0102 10036 21016 30231 40283 57027 60002 70000 333 10036 20004 3/000 54405 59015 60001 79999 90720 91105=
0254583380999992024020709004+31150+118583FM-12+001699999V0200201N002019999999N008000199+00331-00201102791ADDAA106000091AA212000091AA324000091AY101021AY201021KA1240M+00411KA2240N+00081MA1999999102271MD1710041+9999MW1001OD139900501999REMSYN11858338 04958 /0202 10033 21020 30227 40279 57004 60002 70000 333 10041 20008 3/000 54405 59014 60001 70000 90720 91105=
0248583380999992024020712004+31150+118583FM-12+001699999V0202701N001019999999N007000199+00131-00181102781ADDAA106000091AA212000091AA324000091AY101021AY201021KA1240M+00411KA2240N+00081MA1999999102261MD1710011-0201MW1001OD139900501999REMSYN11258338 04957 /2701 10013 21018 30226 40278 57001 60002 70000 333 10041 20008 3/100 59020 60001 70000 90720 91105=
0254583380999992024020718004+31150+118583FM-12+001699999V0203101N001019999999N002000199-00091-00171102861ADDAA106000091AA212000091AA324000091AY101021AY201021KA1120M+00411KA2120N-00101MA1999999102341MD1210021+9999MW1101OD139900401999REMSYN11858338 04920 /3101 11009 21017 30234 40286 52002 60002 71000 333 10041 21010 3/101 54415 59021 60001 70000 90720 91104=
0238583380999992024020721004+31150+118583FM-12+001699999V0202201N001019999999N002000199-00091-00201102721ADDAA106000091AA212000091AA324000091KA1240M+00411KA2240N-00111MA1999999102201MD1710141+9999MW1101OD139900301999REMSYN11858338 04920 /2201 11009 21020 30220 40272 57014 60002 710// 333 10041 21011 3/101 54415 59020 60001 70000 90720 91103=
0254583380999992024020800004+31150+118583FM-12+001699999V0202201N002019999999N001400199-00051-00111102871ADDAA106000091AA212000091AA324000091AY101021AY201021KA1120M+00411KA2120N-00131MA1999999102341MD1210141+9999MW1101OD139900301999REMSYN11858338 04914 /2202 11005 21011 30234 40287 52014 60002 71000 333 10041 21013 3/101 54415 59018 60001 70000 90720 91103=
0254583380999992024020803004+31150+118583FM-12+001699999V0203601N002019999999N004800199+00431-00371102861ADDAA106000091AA212000091AA324000091AY101021AY201021KA1240M+00451KA2240N-00131MA1999999102341MD1410001+9999MW1051OD139900401999REMSYN11858338 04948 /3602 10043 21037 30234 40286 54000 60002 70500 333 10045 21013 3/101 54405 59024 60001 70000 90720 91104=
0254583380999992024020806004+31150+118583FM-12+001699999V0200501N002019999999N006000199+00661-00451102571ADDAA106000091AA212000091AA324000091AY101021AY201021KA1240M+00691KA2240N-00131MA1999999102051MD1710291+9999MW1051OD139900401999REMSYN11858338 04956 /0502 10066 21045 30205 40257 57029 60002 70500 333 10069 21013 3/101 54405 59026 60001 70000 90720 91104=
0254583380999992024020809004+31150+118583FM-12+001699999V0200801N002019999999N007000199+00581-00581102541ADDAA106000091AA212000091AA324000091AY101021AY201021KA1240M+00741KA2240N-00131MA1999999102021MD1710031+9999MW1001OD139900501999REMSYN11858338 04957 /0802 10058 21058 30202 40254 57003 60002 70000 333 10074 21013 3/101 54405 59025 60001 70000 90720 91105=
0254583380999992024020812004+31150+118583FM-12+001699999V0203101N001019999999N006000199+00301-00401102721ADDAA106000091AA212000091AA324000091AY101021AY201021KA1240M+00741KA2240N-00131MA1999999102201MD1210181+9999MW1051OD139900501999REMSYN11858338 04956 /3101 10030 21040 30220 40272 52018 60002 70500 333 10074 21013 3/100 54405 59006 60001 70000 90720 91105=
0254583380999992024020818004+31150+118583FM-12+001699999V0202701N001019999999N002700199+00051-00131102811ADDAA106000091AA212000091AA324000091AY101021AY201021KA1120M+00741KA2120N-00131MA1999999102291MD1210031+9999MW1101OD139900501999REMSYN11858338 04927 /2701 10005 21013 30229 40281 52003 60002 71000 333 10074 21013 3/101 54405 59005 60001 70000 90720 91105=
0232583380999992024020821004+31150+118583FM-12+001699999V0202401N002019999999N002500199-00061-00191102781ADDAA106000091AA212000091AA324000091KA1240M+00741KA2240N-00131MA1999999102261MD1710031+0061MW1101OD139900401999REMSYN11258338 04925 /2402 11006 21019 30226 40278 57003 60002 710// 333 10074 21013 3/101 58006 60001 70000 90720 91104=
0248583380999992024020900004+31150+118583FM-12+001699999V0202401N002019999999N002000199-00051-00151102991ADDAA106000091AA212000091AA324000091AY101021AY201021KA1120M+00741KA2120N-00131MA1999999102461MD1210201+0121MW1101OD139900401999REMSYN11258338 04920 /2402 11005 21015 30246 40299 52020 60002 71000 333 10074 21013 3/102 58012 60001 70000 90720 91104=
0254583380999992024020903004+31150+118583FM-12+001699999V0202301N004019999999N005000199+00641-00081102941ADDAA106000091AA212000091AA324000091AY101021AY201021KA1240M+00741KA2240N-00131MA1999999102421MD1710041+9999MW1051OD139900701999REMSYN11858338 04950 /2304 10064 21008 30242 40294 57004 60002 70500 333 10074 21013 3/102 54405 58008 60001 70000 90720 91107=
0254583380999992024020906004+31150+118583FM-12+001699999V0202501N003019999999N006000199+01041-00161102721ADDAA106000091AA212000091AA324000091AY101021AY201021KA1240M+01071KA2240N-00131MA1999999102201MD1710221+9999MW1051OD139900701999REMSYN11858338 04956 /2503 10104 21016 30220 40272 57022 60002 70500 333 10107 21013 3/102 54405 58015 60001 70000 90720 91107=
0254583380999992024020909004+31150+118583FM-12+001699999V0202801N002019999999N009000199+01011-00291102631ADDAA106000091AA212000091AA324000091AY101021AY201021KA1240M+01131KA2240N-00131MA1999999102111MD1710091+9999MW1001OD139900701999REMSYN11858338 04959 /2802 10101 21029 30211 40263 57009 60002 70000 333 10113 21013 3/102 54405 58009 60001 70000 90720 91107=
0254583380999992024020912004+31150+118583FM-12+001699999V0202201N001019999999N003400199+00601-00121102691ADDAA106000091AA212000091AA324000091AY101021AY201021KA1240M+01131KA2240N-00131MA1999999102171MD1210061+9999MW1051OD139900701999REMSYN11858338 04934 /2201 10060 21012 30217 40269 52006 60002 70500 333 10113 21013 3/100 54405 59003 60001 70000 90720 91107=
0254583380999992024020918004+31150+118583FM-12+001699999V0202501N003019999999N005000199+00341-00121102761ADDAA106000091AA212000091AA324000091AY101021AY201021KA1120M+01131KA2120N-00131MA1999999102251MD1410001+9999MW1051OD139900601999REMSYN11858338 04950 /2503 10034 21012 30225 40276 54000 60002 70500 333 10113 21013 3/000 54405 59004 60001 70000 90720 91106=
0238583380999992024020921004+31150+118583FM-12+001699999V0202401N003019999999N006000199+00281-00141102751ADDAA106000091AA212000091AA324000091KA1240M+01131KA2240N-00131MA1999999102241MD1710011+9999MW1051OD139900401999REMSYN11858338 04956 /2403 10028 21014 30224 40275 57001 60002 705// 333 10113 21013 3/000 54405 59002 60001 70000 90720 91104=
0254583380999992024021000004+31150+118583FM-12+001699999V0202301N003019999999N007000199+00361-00081102881ADDAA106000091AA212000091AA324000091AY101021AY201021KA1120M+01131KA2120N-00051MA1999999102361MD1210121+9999MW1001OD139900501999REMSYN11858338 04957 /2303 10036 21008 30236 40288 52012 60002 70000 333 10113 21005 3/000 54405 59010 60001 70000 90720 91105=
0254583380999992024021003004+31150+118583FM-12+001699999V0202401N004019999999N011000199+01061+00031102891ADDAA106000091AA212000091AA324000091AY101021AY201021KA1240M+01131KA2240N+00251MA1999999102381MD1210021+9999MW1001OD139900901999REMSYN11858338 04961 /2404 10106 20003 30238 40289 52002 60002 70000 333 10113 20025 3/000 54405 59004 60001 70000 90720 91109=
0254583380999992024021006004+31150+118583FM-12+001699999V0202701N004019999999N015000199+01551-00031102611ADDAA106000091AA212000091AA324000091AY101021AY201021KA1240M+01571KA2240N+00251MA1999999102101MD1710281+9999MW1001OD139900901999REMSYN11858338 04965 /2704 10155 21003 30210 40261 57028 60002 70000 333 10157 20025 3/000 54405 59010 60001 70000 90720 91109=
0254583380999992024021009004+31150+118583FM-12+001699999V0202701N002019999999N017000199+01561-00101102511ADDAA106000091AA212000091AA324000091AY101021AY201021KA1240M+01641KA2240N+00251MA1999999102001MD1710101+9999MW1001OD139900901999REMSYN11858338 04967 /2702 10156 21010 30200 40251 57010 60002 70000 333 10164 20025 3/000 54406 59011 60001 70000 90720 91109=
0254583380999992024021012004+31150+118583FM-12+001699999V0203201N003019999999N011000199+01131+00041102731ADDAA106000091AA212000091AA324000091AY101021AY201021KA1240M+01641KA2240N+00251MA1999999102221MD1210221+9999MW1001OD139900901999REMSYN11858338 04961 /3203 10113 20004 30222 40273 52022 60002 70000 333 10164 20025 3/000 54405 58005 60001 70000 90720 91109=
0254583380999992024021018004+31150+118583FM-12+001699999V0202601N002019999999N011000199+00611+00121102981ADDAA106000091AA212000091AA324000091AY101021AY201021KA1120M+01641KA2120N+00251MA1999999102471MD1210071+9999MW1001OD139900701999REMSYN11858338 04961 /2602 10061 20012 30247 40298 52007 60002 70000 333 10164 20025 3/003 54405 58022 60001 70000 90720 91107=
0238583380999992024021021004+31150+118583FM-12+001699999V0202601N002019999999N007000199+00491+00171102961ADDAA106000091AA212000091AA324000091KA1240M+01641KA2240N+00251MA1999999102451MD1710021+9999MW1001OD139900701999REMSYN11858338 04957 /2602 10049 20017 30245 40296 57002 60002 700// 333 10164 20025 3/002 54405 58021 60001 70000 90720 91107=
0254583380999992024021100004+31150+118583FM-12+001699999V0202401N002019999999N007000199+00511+00181103141ADDAA106000091AA212000091AA324000091AY101021AY201021KA1120M+01641KA2120N+00361MA1999999102631MD1210181+9999MW1101OD139900701999REMSYN11858338 04957 /2402 10051 20018 30263 40314 52018 60002 71000 333 10164 20036 3/001 54405 58027 60001 70000 90720 91107=
0254583380999992024021103004+31150+118583FM-12+001699999V0202401N002019999999N008000199+01251+00321103181ADDAA106000091AA212000091AA324000091AY101021AY201021KA1240M+01641KA2240N+00431MA1999999102671MD1210041+9999MW1001OD139900501999REMSYN11858338 04958 /2402 10125 20032 30267 40318 52004 60002 70000 333 10164 20043 3/001 54405 58029 60001 70000 90720 91105=
0254583380999992024021106004+31150+118583FM-12+001699999V0202701N003019999999N013000199+01611-00151102891ADDAA106000091AA212000091AA324000091AY101021AY201021KA1240M+01641KA2240N+00431MA1999999102381MD1710291+9999MW1001OD139900601999REMSYN11858338 04963 /2703 10161 21015 30238 40289 57029 60002 70000 333 10164 20043 3/001 54405 58028 60001 70000 90720 91106=
0248583380999992024021109004+31150+118583FM-12+001699999V0203001N001019999999N018000199+01591-00411102831ADDAA106000091AA212000091AA324000091AY101021AY201021KA1240M+01691KA2240N+00431MA1999999102321MD1710061+0321MW1001OD139900801999REMSYN11258338 04968 /3001 10159 21041 30232 40283 57006 60002 70000 333 10169 20043 3/001 58032 60001 70000 90720 91108=
0254583380999992024021112004+31150+118583FM-12+001699999V0200401N001019999999N015000199+00891-00101102911ADDAA106000091AA212000091AA324000091AY101021AY201021KA1240M+01691KA2240N+00431MA1999999102401MD1210081+9999MW1001OD139900801999REMSYN11858338 04965 /0401 10089 21010 30240 40291 52008 60002 70000 333 10169 20043 3/003 54415 58018 60001 70000 90720 91108=
0254583380999992024021118004+31150+118583FM-12+001699999V0201201N001019999999N008000199+00391+00091102791ADDAA106000091AA212000091AA324000091AY101021AY201021KA1120M+01691KA2120N+00391MA1999999102281MD1710101+9999MW1001OD139900801999REMSYN11858338 04958 /1201 10039 20009 30228 40279 57010 60002 70000 333 10169 20039 3/002 54415 59019 60001 70000 90720 91108=
0238583380999992024021121004+31150+118583FM-12+001699999V0200701N002019999999N009000199+00191+00011102701ADDAA106000091AA212000091AA324000091KA1240M+01691KA2240N+00171MA1999999102191MD1710091+9999MW1001OD139900401999REMSYN11858338 04959 /0702 10019 20001 30219 40270 57009 60002 700// 333 10169 20017 3/000 54415 59026 60001 70000 90720 91104=
0254583380999992024021200004+31150+118583FM-12+001699999V0201301N001019999999N008000199+00391+00091102791ADDAA106000091AA212000091AA324000091AY101021AY201021KA1120M+01691KA2120N+00081MA1999999102271MD1210081+9999MW1001OD139900401999REMSYN11858338 04958 /1301 10039 20009 30227 40279 52008 60002 70000 333 10169 20008 3/000 54415 59036 60001 70000 90720 91104=
0254583380999992024021203004+31150+118583FM-12+001699999V0201601N002019999999N019000199+01552+00131102731ADDAA106000091AA212000091AA324000091AY101021AY201021KA1240M+01691KA2240N+00081MA1999999102221MD1710051+9999MW1001OD139900401999REMSYN11858338 04969 /1602 10155 20013 30222 40273 57005 60002 70000 333 10169 20008 3/000 54405 59045 60001 70000 90720 91104=
0254583380999992024021206004+31150+118583FM-12+001699999V0202701N002019999999N026000199+01961-00151102411ADDAA106000091AA212000091AA324000091AY101021AY201021KA1240M+01981KA2240N+00081MA1999999101911MD1710311+9999MW1001OD139900701999REMSYN11858338 04976 /2702 10196 21015 30191 40241 57031 60002 70000 333 10198 20008 3/000 54405 59047 60001 70000 90720 91107=
