0118583670999992024010100004+31198+121336FM-15+000399999V0203201N003012200019N005000199+00501-00101999999ADDGF100991999999999999999999MA1103101999999MW1051REMMET059METAR ZSSS 010000Z 32003MPS 5000 HZ NSC 05/M01 Q1031 NOSIG=
0126583670999992024010100304+31198+121336FM-15+000399999V0203201V003012200019N005000199+00601-00101999999ADDGF100991999999999999999999MA1103101999999MW1051REMMET067METAR ZSSS 010030Z 32003MPS 290V350 5000 HZ NSC 06/M01 Q1031 NOSIG=
0117583670999992024010101004+31198+121336FM-15+000399999V0203201V003012200019N006000199+00601-00101999999ADDGF100991999999999999999999MA1103201999999REMMET064METAR ZSSS 010100Z 32003MPS 300V360 6000 NSC 06/M01 Q1032 NOSIG=
0117583670999992024010101304+31198+121336FM-15+000399999V0203301V003012200019N006000199+00701-00101999999ADDGF100991999999999999999999MA1103201999999REMMET064METAR ZSSS 010130Z 33003MPS 290V030 6000 NSC 07/M01 Q1032 NOSIG=
0117583670999992024010102004+31198+121336FM-15+000399999V0200201V003012200019N006000199+00601-00101999999ADDGF100991999999999999999999MA1103101999999REMMET064METAR ZSSS 010200Z 02003MPS 330V050 6000 NSC 06/M01 Q1031 NOSIG=
0117583670999992024010102304+31198+121336FM-15+000399999V0200101V002012200019N006000199+00701-00101999999ADDGF100991999999999999999999MA1103101999999REMMET064METAR ZSSS 010230Z 01002MPS 320V050 6000 NSC 07/M01 Q1031 NOSIG=
0150583670999992024010103004+31198+121336FM-15+000399999V0209999V001019999999N008000199+00801-00101999999ADDGA1021+009141999GE19AGL   +99999+99999GF199999021999009141999999MA1103001999999REMMET059METAR ZSSS 010300Z VRB01MPS 8000 FEW030 08/M01 Q1030 NOSIG=
0158583670999992024010103304+31198+121336FM-15+000399999V0200401V002019999999N008000199+00801-00101999999ADDGA1041+009141999GE19AGL   +99999+99999GF199999041999009141999999MA1103001999999REMMET067METAR ZSSS 010330Z 04002MPS 350V090 8000 SCT030 08/M01 Q1030 NOSIG=
0158583670999992024010104004+31198+121336FM-15+000399999V0203501V003019999999N008000199+00901-00101999999ADDGA1041+009141999GE19AGL   +99999+99999GF199999041999009141999999MA1102901999999REMMET067METAR ZSSS 010400Z 35003MPS 300V050 8000 SCT030 09/M01 Q1029 NOSIG=
0158583670999992024010104304+31198+121336FM-15+000399999V0203401V003019999999N008000199+00901+00001999999ADDGA1041+009141999GE19AGL   +99999+99999GF199999041999009141999999MA1102901999999REMMET067METAR ZSSS 010430Z 34003MPS 300V020 8000 SCT030 09/M00 Q1029 NOSIG=
0158583670999992024010105004+31198+121336FM-15+000399999V0202901V002019999999N008000199+00901-00101999999ADDGA1041+009141999GE19AGL   +99999+99999GF199999041999009141999999MA1102801999999REMMET067METAR ZSSS 010500Z 29002MPS 230V340 8000 SCT030 09/M01 Q1028 NOSIG=
0109583670999992024010105304+31198+121336FM-15+000399999V0209999V002012200019N008000199+01001+00001999999ADDGF100991999999999999999999MA1102801999999REMMET056METAR ZSSS 010530Z VRB02MPS 8000 NSC 10/M00 Q1028 NOSIG=
0109583670999992024010106004+31198+121336FM-15+000399999V0209999V001012200019N008000199+00901-00101999999ADDGF100991999999999999999999MA1102801999999REMMET056METAR ZSSS 010600Z VRB01MPS 8000 NSC 09/M01 Q1028 NOSIG=
0117583670999992024010106304+31198+121336FM-15+000399999V0203601V002012200019N008000199+01001-00101999999ADDGF100991999999999999999999MA1102701999999REMMET064METAR ZSSS 010630Z 36002MPS 310V120 8000 NSC 10/M01 Q1027 NOSIG=
0117583670999992024010107004+31198+121336FM-15+000399999V0203601V002012200019N008000199+00901-00101999999ADDGF100991999999999999999999MA1102701999999REMMET064METAR ZSSS 010700Z 36002MPS 310V050 8000 NSC 09/M01 Q1027 NOSIG=
0109583670999992024010107304+31198+121336FM-15+000399999V0209999V001012200019N008000199+00901-00101999999ADDGF100991999999999999999999MA1102701999999REMMET056METAR ZSSS 010730Z VRB01MPS 8000 NSC 09/M01 Q1027 NOSIG=
0109583670999992024010108004+31198+121336FM-15+000399999V0209999V001012200019N008000199+00901-00101999999ADDGF100991999999999999999999MA1102701999999REMMET056METAR ZSSS 010800Z VRB01MPS 8000 NSC 09/M01 Q1027 NOSIG=
0109583670999992024010108304+31198+121336FM-15+000399999V0209999V001012200019N008000199+00901-00101999999ADDGF100991999999999999999999MA1102701999999REMMET056METAR ZSSS 010830Z VRB01MPS 8000 NSC 09/M01 Q1027 NOSIG=
0117583670999992024010109004+31198+121336FM-15+000399999V0203601V002012200019N008000199+00801-00101999999ADDGF100991999999999999999999MA1102701999999REMMET064METAR ZSSS 010900Z 36002MPS 330V040 8000 NSC 08/M01 Q1027 NOSIG=
0117583670999992024010109304+31198+121336FM-15+000399999V0203501V002012200019N008000199+00701-00101999999ADDGF100991999999999999999999MA1102701999999REMMET064METAR ZSSS 010930Z 35002MPS 330V030 8000 NSC 07/M01 Q1027 NOSIG=
0080583670999992024010110004+31198+121336FM-15+000399999V0200101N003019999999Y009900599+00701-00101999999ADDMA1102701999999REMMET053METAR ZSSS 011000Z 01003MPS CAVOK 07/M01 Q1027 NOSIG=
0080583670999992024010110304+31198+121336FM-15+000399999V0200301N002019999999Y009900599+00701-00101999999ADDMA1102701999999REMMET053METAR ZSSS 011030Z 03002MPS CAVOK 07/M01 Q1027 NOSIG=
0080583670999992024010111004+31198+121336FM-15+000399999V0200201N002019999999Y009900599+00601-00101999999ADDMA1102701999999REMMET053METAR ZSSS 011100Z 02002MPS CAVOK 06/M01 Q1027 NOSIG=
0088583670999992024010111304+31198+121336FM-15+000399999V0200901V002019999999Y009900599+00701-00101999999ADDMA1102701999999REMMET061METAR ZSSS 011130Z 09002MPS 070V130 CAVOK 07/M01 Q1027 NOSIG=
0080583670999992024010112004+31198+121336FM-15+000399999V0201001N002019999999Y009900599+00701-00101999999ADDMA1102701999999REMMET053METAR ZSSS 011200Z 10002MPS CAVOK 07/M01 Q1027 NOSIG=
0080583670999992024010112304+31198+121336FM-15+000399999V0201101N003019999999Y009900599+00701+00001999999ADDMA1102701999999REMMET053METAR ZSSS 011230Z 11003MPS CAVOK 07/M00 Q1027 NOSIG=
0079583670999992024010113004+31198+121336FM-15+000399999V0201101N003019999999Y009900599+00601+00101999999ADDMA1102701999999REMMET052METAR ZSSS 011300Z 11003MPS CAVOK 06/01 Q1027 NOSIG=
0079583670999992024010113304+31198+121336FM-15+000399999V0201101N002019999999Y009900599+00601+00101999999ADDMA1102701999999REMMET052METAR ZSSS 011330Z 11002MPS CAVOK 06/01 Q1027 NOSIG=
0087583670999992024010114004+31198+121336FM-15+000399999V0201101V003019999999Y009900599+00601+00101999999ADDMA1102701999999REMMET060METAR ZSSS 011400Z 11003MPS 080V140 CAVOK 06/01 Q1027 NOSIG=
0079583670999992024010114304+31198+121336FM-15+000399999V0201101N003019999999Y009900599+00601+00201999999ADDMA1102701999999REMMET052METAR ZSSS 011430Z 11003MPS CAVOK 06/02 Q1027 NOSIG=
0079583670999992024010115004+31198+121336FM-15+000399999V0200801N001019999999Y009900599+00601+00201999999ADDMA1102701999999REMMET052METAR ZSSS 011500Z 08001MPS CAVOK 06/02 Q1027 NOSIG=
0087583670999992024010115304+31198+121336FM-15+000399999V0201001V002019999999Y009900599+00501+00201999999ADDMA1102701999999REMMET060METAR ZSSS 011530Z 10002MPS 050V120 CAVOK 05/02 Q1027 NOSIG=
0079583670999992024010116004+31198+121336FM-15+000399999V0201001N001019999999Y009900599+00501+00201999999ADDMA1102701999999REMMET052METAR ZSSS 011600Z 10001MPS CAVOK 05/02 Q1027 NOSIG=
0079583670999992024010116304+31198+121336FM-15+000399999V0209999C000019999999Y009900599+00401+00101999999ADDMA1102701999999REMMET052METAR ZSSS 011630Z 00000MPS CAVOK 04/01 Q1027 NOSIG=
0079583670999992024010117004+31198+121336FM-15+000399999V0200501N001019999999Y009900599+00401+00101999999ADDMA1102601999999REMMET052METAR ZSSS 011700Z 05001MPS CAVOK 04/01 Q1026 NOSIG=
0079583670999992024010117304+31198+121336FM-15+000399999V0200201N001019999999Y009900599+00401+00201999999ADDMA1102601999999REMMET052METAR ZSSS 011730Z 02001MPS CAVOK 04/02 Q1026 NOSIG=
0079583670999992024010118004+31198+121336FM-15+000399999V0209999C000019999999Y009900599+00301+00101999999ADDMA1102601999999REMMET052METAR ZSSS 011800Z 00000MPS CAVOK 03/01 Q1026 NOSIG=
0079583670999992024010118304+31198+121336FM-15+000399999V0200101N001019999999Y009900599+00301+00101999999ADDMA1102601999999REMMET052METAR ZSSS 011830Z 01001MPS CAVOK 03/01 Q1026 NOSIG=
0079583670999992024010119004+31198+121336FM-15+000399999V0200201N001019999999Y009900599+00201+00001999999ADDMA1102501999999REMMET052METAR ZSSS 011900Z 02001MPS CAVOK 02/00 Q1025 NOSIG=
0079583670999992024010119304+31198+121336FM-15+000399999V0200201N001019999999Y009900599+00201+00101999999ADDMA1102501999999REMMET052METAR ZSSS 011930Z 02001MPS CAVOK 02/01 Q1025 NOSIG=
0080583670999992024010120004+31198+121336FM-15+000399999V0203601N002019999999Y009900599+00101+00001999999ADDMA1102501999999REMMET053METAR ZSSS 012000Z 36002MPS CAVOK 01/M00 Q1025 NOSIG=
0079583670999992024010120304+31198+121336FM-15+000399999V0203601N001019999999Y009900599+00201+00101999999ADDMA1102501999999REMMET052METAR ZSSS 012030Z 36001MPS CAVOK 02/01 Q1025 NOSIG=
0079583670999992024010121004+31198+121336FM-15+000399999V0200101N002019999999Y009900599+00201+00101999999ADDMA1102501999999REMMET052METAR ZSSS 012100Z 01002MPS CAVOK 02/01 Q1025 NOSIG=
0079583670999992024010121304+31198+121336FM-15+000399999V0203501N001019999999Y009900599+00201+00101999999ADDMA1102501999999REMMET052METAR ZSSS 012130Z 35001MPS CAVOK 02/01 Q1025 NOSIG=
0079583670999992024010122004+31198+121336FM-15+000399999V0200101N002019999999Y009900599+00201+00101999999ADDMA1102501999999REMMET052METAR ZSSS 012200Z 01002MPS CAVOK 02/01 Q1025 NOSIG=
0079583670999992024010122304+31198+121336FM-15+000399999V0203601N002019999999Y009900599+00201+00101999999ADDMA1102501999999REMMET052METAR ZSSS 012230Z 36002MPS CAVOK 02/01 Q1025 NOSIG=
0079583670999992024010123004+31198+121336FM-15+000399999V0200101N001019999999Y009900599+00201+00101999999ADDMA1102501999999REMMET052METAR ZSSS 012300Z 01001MPS CAVOK 02/01 Q1025 NOSIG=
0108583670999992024010123304+31198+121336FM-15+000399999V0200201N001012200019N008000199+00301+00201999999ADDGF100991999999999999999999MA1102501999999REMMET055METAR ZSSS 012330Z 02001MPS 8000 NSC 03/02 Q1025 NOSIG=
0108583670999992024010200004+31198+121336FM-15+000399999V0200101N001012200019N008000199+00401+00301999999ADDGF100991999999999999999999MA1102501999999REMMET055METAR ZSSS 020000Z 01001MPS 8000 NSC 04/03 Q1025 NOSIG=
0108583670999992024010200304+31198+121336FM-15+000399999V0209999V001012200019N008000199+00601+00301999999ADDGF100991999999999999999999MA1102501999999REMMET055METAR ZSSS 020030Z VRB01MPS 8000 NSC 06/03 Q1025 NOSIG=
0079583670999992024010201004+31198+121336FM-15+000399999V0200801N002019999999Y009900599+00701+00301999999ADDMA1102501999999REMMET052METAR ZSSS 020100Z 08002MPS CAVOK 07/03 Q1025 NOSIG=
0087583670999992024010201304+31198+121336FM-15+000399999V0200701V002019999999Y009900599+00801+00201999999ADDMA1102501999999REMMET060METAR ZSSS 020130Z 07002MPS 040V120 CAVOK 08/02 Q1025 NOSIG=
0079583670999992024010202004+31198+121336FM-15+000399999V0201301N003019999999Y009900599+00901+00101999999ADDMA1102501999999REMMET052METAR ZSSS 020200Z 13003MPS CAVOK 09/01 Q1025 NOSIG=
0087583670999992024010202304+31198+121336FM-15+000399999V0201101V002019999999Y009900599+00901+00101999999ADDMA1102401999999REMMET060METAR ZSSS 020230Z 11002MPS 080V180 CAVOK 09/01 Q1024 NOSIG=
0087583670999992024010203004+31198+121336FM-15+000399999V0201601V002019999999Y009900599+01001+00201999999ADDMA1102401999999REMMET060METAR ZSSS 020300Z 16002MPS 090V240 CAVOK 10/02 Q1024 NOSIG=
0079583670999992024010203304+31198+121336FM-15+000399999V0209999V001019999999Y009900599+01001+00201999999ADDMA1102401999999REMMET052METAR ZSSS 020330Z VRB01MPS CAVOK 10/02 Q1024 NOSIG=
0087583670999992024010204004+31198+121336FM-15+000399999V0201801V002019999999Y009900599+01101+00301999999ADDMA1102301999999REMMET060METAR ZSSS 020400Z 18002MPS 130V250 CAVOK 11/03 Q1023 NOSIG=
0079583670999992024010204304+31198+121336FM-15+000399999V0209999V002019999999Y009900599+01101+00201999999ADDMA1102201999999REMMET052METAR ZSSS 020430Z VRB02MPS CAVOK 11/02 Q1022 NOSIG=
0079583670999992024010205004+31198+121336FM-15+000399999V0209999V002019999999Y009900599+01201+00201999999ADDMA1102201999999REMMET052METAR ZSSS 020500Z VRB02MPS CAVOK 12/02 Q1022 NOSIG=
0079583670999992024010205304+31198+121336FM-15+000399999V0209999V001019999999Y009900599+01201+00201999999ADDMA1102101999999REMMET052METAR ZSSS 020530Z VRB01MPS CAVOK 12/02 Q1021 NOSIG=
0087583670999992024010206004+31198+121336FM-15+000399999V0201001V002019999999Y009900599+01201+00201999999ADDMA1102101999999REMMET060METAR ZSSS 020600Z 10002MPS 020V190 CAVOK 12/02 Q1021 NOSIG=
0079583670999992024010206304+31198+121336FM-15+000399999V0209999V002019999999Y009900599+01201+00201999999ADDMA1102101999999REMMET052METAR ZSSS 020630Z VRB02MPS CAVOK 12/02 Q1021 NOSIG=
0087583670999992024010207004+31198+121336FM-15+000399999V0201401V002019999999Y009900599+01201+00201999999ADDMA1102001999999REMMET060METAR ZSSS 020700Z 14002MPS 050V180 CAVOK 12/02 Q1020 NOSIG=
0079583670999992024010207304+31198+121336FM-15+000399999V0200901N002019999999Y009900599+01201+00201999999ADDMA1102001999999REMMET052METAR ZSSS 020730Z 09002MPS CAVOK 12/02 Q1020 NOSIG=
0087583670999992024010208004+31198+121336FM-15+000399999V0200401V002019999999Y009900599+01101+00201999999ADDMA1102101999999REMMET060METAR ZSSS 020800Z 04002MPS 010V130 CAVOK 11/02 Q1021 NOSIG=
0079583670999992024010208304+31198+121336FM-15+000399999V0200401N004019999999Y009900599+01101+00301999999ADDMA1102101999999REMMET052METAR ZSSS 020830Z 04004MPS CAVOK 11/03 Q1021 NOSIG=
0079583670999992024010209004+31198+121336FM-15+000399999V0200301N005019999999Y009900599+01001+00301999999ADDMA1102101999999REMMET052METAR ZSSS 020900Z 03005MPS CAVOK 10/03 Q1021 NOSIG=
0079583670999992024010209304+31198+121336FM-15+000399999V0200301N003019999999Y009900599+01001+00301999999ADDMA1102201999999REMMET052METAR ZSSS 020930Z 03003MPS CAVOK 10/03 Q1022 NOSIG=
0149583670999992024010210004+31198+121336FM-15+000399999V0200301N003019999999N009999199+01001+00201999999ADDGA1041+012191999GE19AGL   +99999+99999GF199999041999012191999999MA1102201999999REMMET058METAR ZSSS 021000Z 03003MPS 9999 SCT040 10/02 Q1022 NOSIG=
0149583670999992024010210304+31198+121336FM-15+000399999V0200401N00501012191CN009999199+00901+00301999999ADDGA1071+012191999GE19AGL   +99999+99999GF199999071999012191999999MA1102301999999REMMET058METAR ZSSS 021030Z 04005MPS 9999 BKN040 09/03 Q1023 NOSIG=
0149583670999992024010211004+31198+121336FM-15+000399999V0200201N00701009141CN009999199+00801+00201999999ADDGA1071+009141999GE19AGL   +99999+99999GF199999071999009141999999MA1102301999999REMMET058METAR ZSSS 021100Z 02007MPS 9999 BKN030 08/02 Q1023 NOSIG=
0149583670999992024010211304+31198+121336FM-15+000399999V0200301N00601009141CN009999199+00801+00101999999ADDGA1071+009141999GE19AGL   +99999+99999GF199999071999009141999999MA1102401999999REMMET058METAR ZSSS 021130Z 03006MPS 9999 BKN030 08/01 Q1024 NOSIG=
0149583670999992024010212004+31198+121336FM-15+000399999V0200301N006019999999N009999199+00701+00001999999ADDGA1041+009141999GE19AGL   +99999+99999GF199999041999009141999999MA1102301999999REMMET058METAR ZSSS 021200Z 03006MPS 9999 SCT030 07/00 Q1023 NOSIG=
0149583670999992024010212304+31198+121336FM-15+000399999V0200501N006019999999N009999199+00701+00001999999ADDGA1041+009141999GE19AGL   +99999+99999GF199999041999009141999999MA1102301999999REMMET058METAR ZSSS 021230Z 05006MPS 9999 SCT030 07/00 Q1023 NOSIG=
0079583670999992024010213004+31198+121336FM-15+000399999V0200501N005019999999Y009900599+00701+00101999999ADDMA1102301999999REMMET052METAR ZSSS 021300Z 05005MPS CAVOK 07/01 Q1023 NOSIG=
0087583670999992024010213304+31198+121336FM-15+000399999V0200301V002019999999Y009900599+00701+00101999999ADDMA1102301999999REMMET060METAR ZSSS 021330Z 03002MPS 010V070 CAVOK 07/01 Q1023 NOSIG=
0079583670999992024010214004+31198+121336FM-15+000399999V0203601N003019999999Y009900599+00701+00101999999ADDMA1102401999999REMMET052METAR ZSSS 021400Z 36003MPS CAVOK 07/01 Q1024 NOSIG=
0149583670999992024010214304+31198+121336FM-15+000399999V0203501N004019999999N009999199+00701+00101999999ADDGA1041+012191999GE19AGL   +99999+99999GF199999041999012191999999MA1102401999999REMMET058METAR ZSSS 021430Z 35004MPS 9999 SCT040 07/01 Q1024 NOSIG=
0149583670999992024010215004+31198+121336FM-15+000399999V0203601N003019999999N009999199+00701+00101999999ADDGA1041+012191999GE19AGL   +99999+99999GF199999041999012191999999MA1102401999999REMMET058METAR ZSSS 021500Z 36003MPS 9999 SCT040 07/01 Q1024 NOSIG=
0149583670999992024010215304+31198+121336FM-15+000399999V0203401N002019999999N009999199+00701+00101999999ADDGA1041+012191999GE19AGL   +99999+99999GF199999041999012191999999MA1102401999999REMMET058METAR ZSSS 021530Z 34002MPS 9999 SCT040 07/01 Q1024 NOSIG=
0149583670999992024010216004+31198+121336FM-15+000399999V0203301N004019999999N009999199+00701+00201999999ADDGA1041+012191999GE19AGL   +99999+99999GF199999041999012191999999MA1102401999999REMMET058METAR ZSSS 021600Z 33004MPS 9999 SCT040 07/02 Q1024 NOSIG=
0159583670999992024010216304+31198+121336FM-15+000399999V0203301N00301009141CN009999199+00601+00201999999ADDGA1071+009141999GE19AGL   +99999+99999GF199999071999009141999999MA1102401999999MW1611REMMET062METAR ZSSS 021630Z 33003MPS 9999 -RA BKN030 06/02 Q1024 NOSIG=
0159583670999992024010217004+31198+121336FM-15+000399999V0203301N00301009141CN009999199+00501+00301999999ADDGA1071+009141999GE19AGL   +99999+99999GF199999071999009141999999MA1102401999999MW1611REMMET062METAR ZSSS 021700Z 33003MPS 9999 -RA BKN030 05/03 Q1024 NOSIG=
0159583670999992024010217304+31198+121336FM-15+000399999V0203201N00301009141CN007000199+00501+00301999999ADDGA1071+009141999GE19AGL   +99999+99999GF199999071999009141999999MA1102401999999MW1611REMMET062METAR ZSSS 021730Z 32003MPS 7000 -RA BKN030 05/03 Q1024 NOSIG=
0159583670999992024010218004+31198+121336FM-15+000399999V0203301N00401007011CN007000199+00501+00301999999ADDGA1071+007011999GE19AGL   +99999+99999GF199999071999007011999999MA1102401999999MW1611REMMET062METAR ZSSS 021800Z 33004MPS 7000 -RA BKN023 05/03 Q1024 NOSIG=
0159583670999992024010218304+31198+121336FM-15+000399999V0203201N00501007011CN007000199+00501+00301999999ADDGA1071+007011999GE19AGL   +99999+99999GF199999071999007011999999MA1102501999999MW1611REMMET062METAR ZSSS 021830Z 32005MPS 7000 -RA BKN023 05/03 Q1025 NOSIG=
0159583670999992024010219004+31198+121336FM-15+000399999V0203301N00401007011CN007000199+00401+00301999999ADDGA1071+007011999GE19AGL   +99999+99999GF199999071999007011999999MA1102501999999MW1611REMMET062METAR ZSSS 021900Z 33004MPS 7000 -RA BKN023 04/03 Q1025 NOSIG=
0159583670999992024010219304+31198+121336FM-15+000399999V0203401N00401004881CN007000199+00401+00301999999ADDGA1071+004881999GE19AGL   +99999+99999GF199999071999004881999999MA1102401999999MW1611REMMET062METAR ZSSS 021930Z 34004MPS 7000 -RA BKN016 04/03 Q1024 NOSIG=
0167583670999992024010220004+31198+121336FM-15+000399999V0203301V00401004881CN007000199+00401+00301999999ADDGA1071+004881999GE19AGL   +99999+99999GF199999071999004881999999MA1102401999999MW1611REMMET070METAR ZSSS 022000Z 33004MPS 300V360 7000 -RA BKN016 04/03 Q1024 NOSIG=
0159583670999992024010220304+31198+121336FM-15+000399999V0203201N00401004571CN007000199+00401+00301999999ADDGA1071+004571999GE19AGL   +99999+99999GF199999071999004571999999MA1102401999999MW1611REMMET062METAR ZSSS 022030Z 32004MPS 7000 -RA BKN015 04/03 Q1024 NOSIG=
0181583670999992024010221004+31198+121336FM-15+000399999V0203301V00301004571CN007000199+00501+00301999999ADDGA1071+004571999GE19AGL   +99999+99999GF199999071999004571999999MA1102401999999MW1611REMMET084METAR ZSSS 022100Z 33003MPS 300V360 7000 -RA BKN015 05/03 Q1024 BECMG TL2130 BKN009=
0149583670999992024010221304+31198+121336FM-15+000399999V0203401N00401003351CN007000199+00501+00301999999ADDGA1071+003351999GE19AGL   +99999+99999GF199999071999003351999999MA1102401999999REMMET058METAR ZSSS 022130Z 34004MPS 7000 BKN011 05/03 Q1024 NOSIG=
0163583670999992024010222004+31198+121336FM-15+000399999V0203201N00401003351CN007000199+00501+00301999999ADDGA1071+003351999GE19AGL   +99999+99999GF199999071999003351999999MA1102501999999REMMET072METAR ZSSS 022200Z 32004MPS 7000 BKN011 05/03 Q1025 BECMG TL2330 BKN015=
0149583670999992024010222304+31198+121336FM-15+000399999V0203301N00401003961CN007000199+00501+00301999999ADDGA1071+003961999GE19AGL   +99999+99999GF199999071999003961999999MA1102501999999REMMET058METAR ZSSS 022230Z 33004MPS 7000 BKN013 05/03 Q1025 NOSIG=
0149583670999992024010223004+31198+121336FM-15+000399999V0203201N00501003961CN007000199+00501+00301999999ADDGA1071+003961999GE19AGL   +99999+99999GF199999071999003961999999MA1102501999999REMMET058METAR ZSSS 022300Z 32005MPS 7000 BKN013 05/03 Q1025 NOSIG=
0157583670999992024010223304+31198+121336FM-15+000399999V0203201V00501005491CN008000199+00501+00201999999ADDGA1071+005491999GE19AGL   +99999+99999GF199999071999005491999999MA1102601999999REMMET066METAR ZSSS 022330Z 32005MPS 290V350 8000 BKN018 05/02 Q1026 NOSIG=
0149583670999992024010300004+31198+121336FM-15+000399999V0203301N00701006401CN009999199+00501+00201999999ADDGA1071+006401999GE19AGL   +99999+99999GF199999071999006401999999MA1102601999999REMMET058METAR ZSSS 030000Z 33007MPS 9999 BKN021 05/02 Q1026 NOSIG=
0157583670999992024010300304+31198+121336FM-15+000399999V0203101V00601007921CN009999199+00501+00101999999ADDGA1071+007921999GE19AGL   +99999+99999GF199999071999007921999999MA1102701999999REMMET066METAR ZSSS 030030Z 31006MPS 280V340 9999 BKN026 05/01 Q1027 NOSIG=
0157583670999992024010301004+31198+121336FM-15+000399999V0203001V00601007921CN008000199+00601+00101999999ADDGA1071+007921999GE19AGL   +99999+99999GF199999071999007921999999MA1102701999999REMMET066METAR ZSSS 030100Z 30006MPS 280V350 8000 BKN026 06/01 Q1027 NOSIG=
0157583670999992024010301304+31198+121336FM-15+000399999V0203001V00601007011CN006000199+00601+00101999999ADDGA1071+007011999GE19AGL   +99999+99999GF199999071999007011999999MA1102701999999REMMET066METAR ZSSS 030130Z 30006MPS 270V350 6000 BKN023 06/01 Q1027 NOSIG=
0149583670999992024010302004+31198+121336FM-15+000399999V0203101N00601007011CN006000199+00601+00001999999ADDGA1071+007011999GE19AGL   +99999+99999GF199999071999007011999999MA1102701999999REMMET058METAR ZSSS 030200Z 31006MPS 6000 BKN023 06/00 Q1027 NOSIG=
0149583670999992024010302304+31198+121336FM-15+000399999V0203301N00601007011CN007000199+00701+00001999999ADDGA1071+007011999GE19AGL   +99999+99999GF199999071999007011999999MA1102801999999REMMET058METAR ZSSS 030230Z 33006MPS 7000 BKN023 07/00 Q1028 NOSIG=
0157583670999992024010303004+31198+121336FM-15+000399999V0203101V00601007011CN007000199+00801+00001999999ADDGA1071+007011999GE19AGL   +99999+99999GF199999071999007011999999MA1102701999999REMMET066METAR ZSSS 030300Z 31006MPS 280V340 7000 BKN023 08/00 Q1027 NOSIG=
0150583670999992024010303304+31198+121336FM-15+000399999V0203301N00601007011CN007000199+00801+00001999999ADDGA1071+007011999GE19AGL   +99999+99999GF199999071999007011999999MA1102701999999REMMET059METAR ZSSS 030330Z 33006MPS 7000 BKN023 08/M00 Q1027 NOSIG=
0149583670999992024010304004+31198+121336FM-15+000399999V0203201N006019999999N007000199+00801+00001999999ADDGA1041+007921999GE19AGL   +99999+99999GF199999041999007921999999MA1102701999999REMMET058METAR ZSSS 030400Z 32006MPS 7000 SCT026 08/00 Q1027 NOSIG=
0116583670999992024010304304+31198+121336FM-15+000399999V0203101V006012200019N007000199+00901+00001999999ADDGF100991999999999999999999MA1102601999999REMMET063METAR ZSSS 030430Z 31006MPS 270V340 7000 NSC 09/00 Q1026 NOSIG=
0108583670999992024010305004+31198+121336FM-15+000399999V0203201N005012200019N007000199+00901+00001999999ADDGF100991999999999999999999MA1102601999999REMMET055METAR ZSSS 030500Z 32005MPS 7000 NSC 09/00 Q1026 NOSIG=
0116583670999992024010305304+31198+121336FM-15+000399999V0203201V004012200019N007000199+00901+00001999999ADDGF100991999999999999999999MA1102601999999REMMET063METAR ZSSS 030530Z 32004MPS 250V050 7000 NSC 09/00 Q1026 NOSIG=
0116583670999992024010306004+31198+121336FM-15+000399999V0203101V005012200019N007000199+00901+00001999999ADDGF100991999999999999999999MA1102601999999REMMET063METAR ZSSS 030600Z 31005MPS 280V340 7000 NSC 09/00 Q1026 NOSIG=
0109583670999992024010306304+31198+121336FM-15+000399999V0203201N005012200019N007000199+00901+00001999999ADDGF100991999999999999999999MA1102601999999REMMET056METAR ZSSS 030630Z 32005MPS 7000 NSC 09/M00 Q1026 NOSIG=
0117583670999992024010307004+31198+121336FM-15+000399999V0203201V006012200019N007000199+00901+00001999999ADDGF100991999999999999999999MA1102601999999REMMET064METAR ZSSS 030700Z 32006MPS 280V350 7000 NSC 09/M00 Q1026 NOSIG=
0109583670999992024010307304+31198+121336FM-15+000399999V0203301N004012200019N007000199+00801+00001999999ADDGF100991999999999999999999MA1102601999999REMMET056METAR ZSSS 030730Z 33004MPS 7000 NSC 08/M00 Q1026 NOSIG=
0116583670999992024010308004+31198+121336FM-15+000399999V0203301V004012200019N007000199+00801+00001999999ADDGF100991999999999999999999MA1102701999999REMMET063METAR ZSSS 030800Z 33004MPS 290V010 7000 NSC 08/00 Q1027 NOSIG=
0116583670999992024010308304+31198+121336FM-15+000399999V0203401V004012200019N006000199+00701+00001999999ADDGF100991999999999999999999MA1102701999999REMMET063METAR ZSSS 030830Z 34004MPS 280V360 6000 NSC 07/00 Q1027 NOSIG=
0108583670999992024010309004+31198+121336FM-15+000399999V0203501N005012200019N006000199+00701+00001999999ADDGF100991999999999999999999MA1102701999999REMMET055METAR ZSSS 030900Z 35005MPS 6000 NSC 07/00 Q1027 NOSIG=
0108583670999992024010309304+31198+121336FM-15+000399999V0203501N004012200019N006000199+00601+00101999999ADDGF100991999999999999999999MA1102701999999REMMET055METAR ZSSS 030930Z 35004MPS 6000 NSC 06/01 Q1027 NOSIG=
0108583670999992024010310004+31198+121336FM-15+000399999V0203301N004012200019N008000199+00601+00101999999ADDGF100991999999999999999999MA1102801999999REMMET055METAR ZSSS 031000Z 33004MPS 8000 NSC 06/01 Q1028 NOSIG=
0108583670999992024010310304+31198+121336FM-15+000399999V0203401N003012200019N008000199+00501+00001999999ADDGF100991999999999999999999MA1102801999999REMMET055METAR ZSSS 031030Z 34003MPS 8000 NSC 05/00 Q1028 NOSIG=
0108583670999992024010311004+31198+121336FM-15+000399999V0203401N003012200019N008000199+00501+00001999999ADDGF100991999999999999999999MA1102801999999REMMET055METAR ZSSS 031100Z 34003MPS 8000 NSC 05/00 Q1028 NOSIG=
0108583670999992024010311304+31198+121336FM-15+000399999V0203601N004012200019N006000199+00401+00001999999ADDGF100991999999999999999999MA1102801999999REMMET055METAR ZSSS 031130Z 36004MPS 6000 NSC 04/00 Q1028 NOSIG=
0108583670999992024010312004+31198+121336FM-15+000399999V0200101N003012200019N006000199+00301+00101999999ADDGF100991999999999999999999MA1102801999999REMMET055METAR ZSSS 031200Z 01003MPS 6000 NSC 03/01 Q1028 NOSIG=
0117583670999992024010312304+31198+121336FM-15+000399999V0200101N003012200019N005000199+00301+00001999999ADDGF100991999999999999999999MA1102801999999MW1101REMMET058METAR ZSSS 031230Z 01003MPS 5000 BR NSC 03/00 Q1028 NOSIG=
0117583670999992024010313004+31198+121336FM-15+000399999V0200101N003012200019N005000199+00301+00001999999ADDGF100991999999999999999999MA1102801999999MW1101REMMET058METAR ZSSS 031300Z 01003MPS 5000 BR NSC 03/00 Q1028 NOSIG=
0117583670999992024010313304+31198+121336FM-15+000399999V0200101N003012200019N005000199+00301+00101999999ADDGF100991999999999999999999MA1102801999999MW1101REMMET058METAR ZSSS 031330Z 01003MPS 5000 BR NSC 03/01 Q1028 NOSIG=
0117583670999992024010314004+31198+121336FM-15+000399999V0200101N003012200019N005000199+00301+00101999999ADDGF100991999999999999999999MA1102801999999MW1101REMMET058METAR ZSSS 031400Z 01003MPS 5000 BR NSC 03/01 Q1028 NOSIG=
0117583670999992024010314304+31198+121336FM-15+000399999V0203601N002012200019N005000199+00201+00001999999ADDGF100991999999999999999999MA1102801999999MW1101REMMET058METAR ZSSS 031430Z 36002MPS 5000 BR NSC 02/00 Q1028 NOSIG=
0125583670999992024010315004+31198+121336FM-15+000399999V0203601V002012200019N004000199+00301+00001999999ADDGF100991999999999999999999MA1102701999999MW1101REMMET066METAR ZSSS 031500Z 36002MPS 320V040 4000 BR NSC 03/00 Q1027 NOSIG=
0117583670999992024010315304+31198+121336FM-15+000399999V0209999V001012200019N004000199+00301+00001999999ADDGF100991999999999999999999MA1102701999999MW1101REMMET058METAR ZSSS 031530Z VRB01MPS 4000 BR NSC 03/00 Q1027 NOSIG=
0117583670999992024010316004+31198+121336FM-15+000399999V0203601N001012200019N004000199+00201+00001999999ADDGF100991999999999999999999MA1102701999999MW1101REMMET058METAR ZSSS 031600Z 36001MPS 4000 BR NSC 02/00 Q1027 NOSIG=
0117583670999992024010316304+31198+121336FM-15+000399999V0209999V001012200019N003500199+00201+00101999999ADDGF100991999999999999999999MA1102701999999MW1101REMMET058METAR ZSSS 031630Z VRB01MPS 3500 BR NSC 02/01 Q1027 NOSIG=
0117583670999992024010317004+31198+121336FM-15+000399999V0201001N001012200019N003500199+00201+00001999999ADDGF100991999999999999999999MA1102701999999MW1101REMMET058METAR ZSSS 031700Z 10001MPS 3500 BR NSC 02/00 Q1027 NOSIG=
0117583670999992024010317304+31198+121336FM-15+000399999V0209999V001012200019N003500199+00201+00101999999ADDGF100991999999999999999999MA1102701999999MW1101REMMET058METAR ZSSS 031730Z VRB01MPS 3500 BR NSC 02/01 Q1027 NOSIG=
0129583670999992024010318004+31198+121336FM-15+000399999V0209999V001012200019N003500199+00201+00001999999ADDGF100991999999999999999999MA1102601999999MW1101REMMET070METAR ZSSS 031800Z VRB01MPS 3500 BR NSC 02/00 Q1026 BECMG TL1950 2800=
0118583670999992024010318304+31198+121336FM-15+000399999V0209999V001012200019N002600199+00101+00001999999ADDGF100991999999999999999999MA1102601999999MW1101REMMET059METAR ZSSS 031830Z VRB01MPS 2600 BR NSC 01/M00 Q1026 NOSIG=
0117583670999992024010319004+31198+121336FM-15+000399999V0209999V001012200019N002600199+00101+00001999999ADDGF100991999999999999999999MA1102601999999MW1101REMMET058METAR ZSSS 031900Z VRB01MPS 2600 BR NSC 01/00 Q1026 NOSIG=
0118583670999992024010319304+31198+121336FM-15+000399999V0209999C000012200019N002600199+00101+00001999999ADDGF100991999999999999999999MA1102601999999MW1101REMMET059METAR ZSSS 031930Z 00000MPS 2600 BR NSC 01/M00 Q1026 NOSIG=
0118583670999992024010320004+31198+121336FM-15+000399999V0202101N001012200019N002600199+00101+00001999999ADDGF100991999999999999999999MA1102601999999MW1101REMMET059METAR ZSSS 032000Z 21001MPS 2600 BR NSC 01/M00 Q1026 NOSIG=
0118583670999992024010320304+31198+121336FM-15+000399999V0202001N001012200019N002500199+00001+00001999999ADDGF100991999999999999999999MA1102501999999MW1101REMMET059METAR ZSSS 032030Z 20001MPS 2500 BR NSC 00/M00 Q1025 NOSIG=
0117583670999992024010321004+31198+121336FM-15+000399999V0202001N001012200019N002500199+00201+00101999999ADDGF100991999999999999999999MA1102501999999MW1101REMMET058METAR ZSSS 032100Z 20001MPS 2500 BR NSC 02/01 Q1025 NOSIG=
0118583670999992024010321304+31198+121336FM-15+000399999V0202101N002012200019N002500199+00001-00101999999ADDGF100991999999999999999999MA1102601999999MW1101REMMET059METAR ZSSS 032130Z 21002MPS 2500 BR NSC 00/M01 Q1026 NOSIG=
0118583670999992024010322004+31198+121336FM-15+000399999V0201901N001012200019N002500199+00101+00001999999ADDGF100991999999999999999999MA1102601999999MW1101REMMET059METAR ZSSS 032200Z 19001MPS 2500 BR NSC 01/M00 Q1026 NOSIG=
0118583670999992024010322304+31198+121336FM-15+000399999V0201501N001012200019N002500199+00101+00001999999ADDGF100991999999999999999999MA1102601999999MW1101REMMET059METAR ZSSS 032230Z 15001MPS 2500 BR NSC 01/M00 Q1026 NOSIG=
0117583670999992024010323004+31198+121336FM-15+000399999V0201601N001012200019N002000199+00101+00001999999ADDGF100991999999999999999999MA1102601999999MW1101REMMET058METAR ZSSS 032300Z 16001MPS 2000 BR NSC 01/00 Q1026 NOSIG=
0118583670999992024010323304+31198+121336FM-15+000399999V0201801N001012200019N002000199+00101+00001999999ADDGF100991999999999999999999MA1102601999999MW1101REMMET059METAR ZSSS 032330Z 18001MPS 2000 BR NSC 01/M00 Q1026 NOSIG=
0163583670999992024010400004+31198+121336FM-15+000399999V0201501N002012200019N002000199+00201+00101999999ADDED118L99999GF100991999999999999999999MA1102601999999MW1101REMMET093METAR ZSSS 040000Z 15002MPS 2000 R18L/1400N R18R/P2000N BR NSC 02/01 Q1026 BECMG TL0150 3000=
0151583670999992024010400304+31198+121336FM-15+000399999V0201501N002012200019N002000199+00401+00201999999ADDED118L99999GF100991999999999999999999MA1102701999999MW1101REMMET081METAR ZSSS 040030Z 15002MPS 2000 R18L/1200N R18R/P2000N BR NSC 04/02 Q1027 NOSIG=
0162583670999992024010401004+31198+121336FM-15+000399999V0201501N002012200019N002000199+00401+00301999999ADDED118L99999GF100991999999999999999999MA1102701999999MW1101REMMET092METAR ZSSS 040100Z 15002MPS 2000 R18L/1200N R18R/2000N BR NSC 04/03 Q1027 BECMG TL0250 3000=
0158583670999992024010401304+31198+121336FM-15+000399999V0201801V002012200019N002000199+00501+00301999999ADDED118L99999GF100991999999999999999999MA1102701999999MW1101REMMET088METAR ZSSS 040130Z 18002MPS 150V220 2000 R18L/1200N R18R/1800N BR NSC 05/03 Q1027 NOSIG=
0137583670999992024010402004+31198+121336FM-15+000399999V0202001V003012200019N002000199+00601+00401999999ADDGF100991999999999999999999MA1102701999999MW1101REMMET078METAR ZSSS 040200Z 20003MPS 180V240 2000 BR NSC 06/04 Q1027 BECMG TL0340 3000=
0125583670999992024010402304+31198+121336FM-15+000399999V0201801V003012200019N003000199+00801+00301999999ADDGF100991999999999999999999MA1102601999999MW1101REMMET066METAR ZSSS 040230Z 18003MPS 140V210 3000 BR NSC 08/03 Q1026 NOSIG=
0125583670999992024010403004+31198+121336FM-15+000399999V0202001V004012200019N003000199+00801+00201999999ADDGF100991999999999999999999MA1102601999999MW1051REMMET066METAR ZSSS 040300Z 20004MPS 160V250 3000 HZ NSC 08/02 Q1026 NOSIG=
0125583670999992024010403304+31198+121336FM-15+000399999V0202001V003012200019N004000199+00901+00201999999ADDGF100991999999999999999999MA1102501999999MW1051REMMET066METAR ZSSS 040330Z 20003MPS 160V230 4000 HZ NSC 09/02 Q1025 NOSIG=
0125583670999992024010404004+31198+121336FM-15+000399999V0201901V004012200019N005000199+01001+00101999999ADDGF100991999999999999999999MA1102401999999MW1051REMMET066METAR ZSSS 040400Z 19004MPS 150V220 5000 HZ NSC 10/01 Q1024 NOSIG=
0125583670999992024010404304+31198+121336FM-15+000399999V0202001V004012200019N005000199+01101+00001999999ADDGF100991999999999999999999MA1102401999999MW1051REMMET066METAR ZSSS 040430Z 20004MPS 170V240 5000 HZ NSC 11/00 Q1024 NOSIG=
0108583670999992024010405004+31198+121336FM-15+000399999V0201901N004012200019N006000199+01101+00001999999ADDGF100991999999999999999999MA1102301999999REMMET055METAR ZSSS 040500Z 19004MPS 6000 NSC 11/00 Q1023 NOSIG=
0116583670999992024010405304+31198+121336FM-15+000399999V0202001V003012200019N007000199+01101+00101999999ADDGF100991999999999999999999MA1102301999999REMMET063METAR ZSSS 040530Z 20003MPS 140V240 7000 NSC 11/01 Q1023 NOSIG=
0117583670999992024010406004+31198+121336FM-15+000399999V0201901V004012200019N007000199+01201-00101999999ADDGF100991999999999999999999MA1102201999999REMMET064METAR ZSSS 040600Z 19004MPS 160V220 7000 NSC 12/M01 Q1022 NOSIG=
0116583670999992024010406304+31198+121336FM-15+000399999V0201701V003012200019N008000199+01201+00001999999ADDGF100991999999999999999999MA1102201999999REMMET063METAR ZSSS 040630Z 17003MPS 130V210 8000 NSC 12/00 Q1022 NOSIG=
0117583670999992024010407004+31198+121336FM-15+000399999V0201901V004012200019N008000199+01201-00101999999ADDGF100991999999999999999999MA1102201999999REMMET064METAR ZSSS 040700Z 19004MPS 130V240 8000 NSC 12/M01 Q1022 NOSIG=
0109583670999992024010407304+31198+121336FM-15+000399999V0201801N004012200019N008000199+01201-00101999999ADDGF100991999999999999999999MA1102201999999REMMET056METAR ZSSS 040730Z 18004MPS 8000 NSC 12/M01 Q1022 NOSIG=
0080583670999992024010408004+31198+121336FM-15+000399999V0201801N003019999999Y009900599+01101-00301999999ADDMA1102201999999REMMET053METAR ZSSS 040800Z 18003MPS CAVOK 11/M03 Q1022 NOSIG=
0080583670999992024010408304+31198+121336FM-15+000399999V0201801N004019999999Y009900599+01001-00401999999ADDMA1102201999999REMMET053METAR ZSSS 040830Z 18004MPS CAVOK 10/M04 Q1022 NOSIG=
0080583670999992024010409004+31198+121336FM-15+000399999V0201601N005019999999Y009900599+01001-00301999999ADDMA1102201999999REMMET053METAR ZSSS 040900Z 16005MPS CAVOK 10/M03 Q1022 NOSIG=
0080583670999992024010409304+31198+121336FM-15+000399999V0201501N004019999999Y009900599+00801-00301999999ADDMA1102201999999REMMET053METAR ZSSS 040930Z 15004MPS CAVOK 08/M03 Q1022 NOSIG=
0080583670999992024010410004+31198+121336FM-15+000399999V0201501N004019999999Y009900599+00801-00301999999ADDMA1102201999999REMMET053METAR ZSSS 041000Z 15004MPS CAVOK 08/M03 Q1022 NOSIG=
0080583670999992024010410304+31198+121336FM-15+000399999V0201501N004019999999Y009900599+00701-00301999999ADDMA1102201999999REMMET053METAR ZSSS 041030Z 15004MPS CAVOK 07/M03 Q1022 NOSIG=
0080583670999992024010411004+31198+121336FM-15+000399999V0201501N004019999999Y009900599+00701-00101999999ADDMA1102201999999REMMET053METAR ZSSS 041100Z 15004MPS CAVOK 07/M01 Q1022 NOSIG=
0079583670999992024010411304+31198+121336FM-15+000399999V0201501N004019999999Y009900599+00801+00001999999ADDMA1102201999999REMMET052METAR ZSSS 041130Z 15004MPS CAVOK 08/00 Q1022 NOSIG=
0079583670999992024010412004+31198+121336FM-15+000399999V0201501N004019999999Y009900599+00701+00101999999ADDMA1102301999999REMMET052METAR ZSSS 041200Z 15004MPS CAVOK 07/01 Q1023 NOSIG=
0108583670999992024010412304+31198+121336FM-15+000399999V0201501N004012200019N008000199+00701+00101999999ADDGF100991999999999999999999MA1102201999999REMMET055METAR ZSSS 041230Z 15004MPS 8000 NSC 07/01 Q1022 NOSIG=
0108583670999992024010413004+31198+121336FM-15+000399999V0201601N003012200019N008000199+00701+00201999999ADDGF100991999999999999999999MA1102201999999REMMET055METAR ZSSS 041300Z 16003MPS 8000 NSC 07/02 Q1022 NOSIG=
0108583670999992024010413304+31198+121336FM-15+000399999V0201501N003012200019N008000199+00701+00301999999ADDGF100991999999999999999999MA1102201999999REMMET055METAR ZSSS 041330Z 15003MPS 8000 NSC 07/03 Q1022 NOSIG=
0108583670999992024010414004+31198+121336FM-15+000399999V0201501N003012200019N008000199+00701+00201999999ADDGF100991999999999999999999MA1102201999999REMMET055METAR ZSSS 041400Z 15003MPS 8000 NSC 07/02 Q1022 NOSIG=
0108583670999992024010414304+31198+121336FM-15+000399999V0201501N003012200019N008000199+00701+00201999999ADDGF100991999999999999999999MA1102201999999REMMET055METAR ZSSS 041430Z 15003MPS 8000 NSC 07/02 Q1022 NOSIG=
0108583670999992024010415004+31198+121336FM-15+000399999V0201501N002012200019N008000199+00601+00301999999ADDGF100991999999999999999999MA1102201999999REMMET055METAR ZSSS 041500Z 15002MPS 8000 NSC 06/03 Q1022 NOSIG=
0108583670999992024010415304+31198+121336FM-15+000399999V0201501N002012200019N008000199+00601+00301999999ADDGF100991999999999999999999MA1102201999999REMMET055METAR ZSSS 041530Z 15002MPS 8000 NSC 06/03 Q1022 NOSIG=
0108583670999992024010416004+31198+121336FM-15+000399999V0201501N002012200019N008000199+00501+00201999999ADDGF100991999999999999999999MA1102201999999REMMET055METAR ZSSS 041600Z 15002MPS 8000 NSC 05/02 Q1022 NOSIG=
0108583670999992024010416304+31198+121336FM-15+000399999V0201501N002012200019N008000199+00601+00201999999ADDGF100991999999999999999999MA1102201999999REMMET055METAR ZSSS 041630Z 15002MPS 8000 NSC 06/02 Q1022 NOSIG=
0108583670999992024010417004+31198+121336FM-15+000399999V0201601N002012200019N008000199+00601+00201999999ADDGF100991999999999999999999MA1102201999999REMMET055METAR ZSSS 041700Z 16002MPS 8000 NSC 06/02 Q1022 NOSIG=
0079583670999992024010417304+31198+121336FM-15+000399999V0201501N002019999999Y009900599+00501+00201999999ADDMA1102201999999REMMET052METAR ZSSS 041730Z 15002MPS CAVOK 05/02 Q1022 NOSIG=
0079583670999992024010418004+31198+121336FM-15+000399999V0201501N002019999999Y009900599+00501+00201999999ADDMA1102101999999REMMET052METAR ZSSS 041800Z 15002MPS CAVOK 05/02 Q1021 NOSIG=
0079583670999992024010418304+31198+121336FM-15+000399999V0201501N002019999999Y009900599+00501+00201999999ADDMA1102101999999REMMET052METAR ZSSS 041830Z 15002MPS CAVOK 05/02 Q1021 NOSIG=
0079583670999992024010419004+31198+121336FM-15+000399999V0201601N002019999999Y009900599+00501+00201999999ADDMA1102101999999REMMET052METAR ZSSS 041900Z 16002MPS CAVOK 05/02 Q1021 NOSIG=
0079583670999992024010419304+31198+121336FM-15+000399999V0201501N001019999999Y009900599+00401+00101999999ADDMA1102101999999REMMET052METAR ZSSS 041930Z 15001MPS CAVOK 04/01 Q1021 NOSIG=
0079583670999992024010420004+31198+121336FM-15+000399999V0201601N001019999999Y009900599+00501+00201999999ADDMA1102101999999REMMET052METAR ZSSS 042000Z 16001MPS CAVOK 05/02 Q1021 NOSIG=
0079583670999992024010420304+31198+121336FM-15+000399999V0201801N002019999999Y009900599+00401+00201999999ADDMA1102101999999REMMET052METAR ZSSS 042030Z 18002MPS CAVOK 04/02 Q1021 NOSIG=
0079583670999992024010421004+31198+121336FM-15+000399999V0202001N001019999999Y009900599+00601+00201999999ADDMA1102101999999REMMET052METAR ZSSS 042100Z 20001MPS CAVOK 06/02 Q1021 NOSIG=
0079583670999992024010421304+31198+121336FM-15+000399999V0201801N001019999999Y009900599+00501+00201999999ADDMA1102101999999REMMET052METAR ZSSS 042130Z 18001MPS CAVOK 05/02 Q1021 NOSIG=
0079583670999992024010422004+31198+121336FM-15+000399999V0209999C000019999999Y009900599+00501+00201999999ADDMA1102201999999REMMET052METAR ZSSS 042200Z 00000MPS CAVOK 05/02 Q1022 NOSIG=
0079583670999992024010422304+31198+121336FM-15+000399999V0209999C000019999999Y009900599+00401+00201999999ADDMA1102201999999REMMET052METAR ZSSS 042230Z 00000MPS CAVOK 04/02 Q1022 NOSIG=
0079583670999992024010423004+31198+121336FM-15+000399999V0201601N001019999999Y009900599+00501+00301999999ADDMA1102201999999REMMET052METAR ZSSS 042300Z 16001MPS CAVOK 05/03 Q1022 NOSIG=
0079583670999992024010423304+31198+121336FM-15+000399999V0201901N002019999999Y009900599+00501+00301999999ADDMA1102201999999REMMET052METAR ZSSS 042330Z 19002MPS CAVOK 05/03 Q1022 NOSIG=
0079583670999992024010500004+31198+121336FM-15+000399999V0201601N001019999999Y009900599+00601+00301999999ADDMA1102201999999REMMET052METAR ZSSS 050000Z 16001MPS CAVOK 06/03 Q1022 NOSIG=
0108583670999992024010500304+31198+121336FM-15+000399999V0209999V001012200019N008000199+00701+00401999999ADDGF100991999999999999999999MA1102301999999REMMET055METAR ZSSS 050030Z VRB01MPS 8000 NSC 07/04 Q1023 NOSIG=
0116583670999992024010501004+31198+121336FM-15+000399999V0201901V002012200019N008000199+00801+00401999999ADDGF100991999999999999999999MA1102301999999REMMET063METAR ZSSS 050100Z 19002MPS 150V210 8000 NSC 08/04 Q1023 NOSIG=
0116583670999992024010501304+31198+121336FM-15+000399999V0202401V002012200019N008000199+00901+00201999999ADDGF100991999999999999999999MA1102301999999REMMET063METAR ZSSS 050130Z 24002MPS 140V270 8000 NSC 09/02 Q1023 NOSIG=
0116583670999992024010502004+31198+121336FM-15+000399999V0202301V002012200019N008000199+01001+00201999999ADDGF100991999999999999999999MA1102301999999REMMET063METAR ZSSS 050200Z 23002MPS 180V290 8000 NSC 10/02 Q1023 NOSIG=
0116583670999992024010502304+31198+121336FM-15+000399999V0202801V002012200019N008000199+01001+00201999999ADDGF100991999999999999999999MA1102301999999REMMET063METAR ZSSS 050230Z 28002MPS 240V310 8000 NSC 10/02 Q1023 NOSIG=
0108583670999992024010503004+31198+121336FM-15+000399999V0209999V002012200019N008000199+01101+00201999999ADDGF100991999999999999999999MA1102301999999REMMET055METAR ZSSS 050300Z VRB02MPS 8000 NSC 11/02 Q1023 NOSIG=
0116583670999992024010503304+31198+121336FM-15+000399999V0202801V002012200019N008000199+01301+00201999999ADDGF100991999999999999999999MA1102201999999REMMET063METAR ZSSS 050330Z 28002MPS 200V360 8000 NSC 13/02 Q1022 NOSIG=
0116583670999992024010504004+31198+121336FM-15+000399999V0203201V002012200019N008000199+01401+00201999999ADDGF100991999999999999999999MA1102201999999REMMET063METAR ZSSS 050400Z 32002MPS 250V040 8000 NSC 14/02 Q1022 NOSIG=
0116583670999992024010504304+31198+121336FM-15+000399999V0203101V002012200019N008000199+01501+00301999999ADDGF100991999999999999999999MA1102101999999REMMET063METAR ZSSS 050430Z 31002MPS 270V010 8000 NSC 15/03 Q1021 NOSIG=
0116583670999992024010505004+31198+121336FM-15+000399999V0203301V002012200019N008000199+01501+00201999999ADDGF100991999999999999999999MA1102101999999REMMET063METAR ZSSS 050500Z 33002MPS 270V020 8000 NSC 15/02 Q1021 NOSIG=
0087583670999992024010505304+31198+121336FM-15+000399999V0202901V003019999999Y009900599+01501+00101999999ADDMA1102101999999REMMET060METAR ZSSS 050530Z 29003MPS 240V340 CAVOK 15/01 Q1021 NOSIG=
0087583670999992024010506004+31198+121336FM-15+000399999V0202801V003019999999Y009900599+01601+00101999999ADDMA1102001999999REMMET060METAR ZSSS 050600Z 28003MPS 250V340 CAVOK 16/01 Q1020 NOSIG=
0088583670999992024010506304+31198+121336FM-15+000399999V0203001V003019999999Y009900599+01601+00001999999ADDMA1102001999999REMMET061METAR ZSSS 050630Z 30003MPS 260V350 CAVOK 16/M00 Q1020 NOSIG=
0088583670999992024010507004+31198+121336FM-15+000399999V0203101V002019999999Y009900599+01501+00001999999ADDMA1102001999999REMMET061METAR ZSSS 050700Z 31002MPS 260V020 CAVOK 15/M00 Q1020 NOSIG=
0088583670999992024010507304+31198+121336FM-15+000399999V0203201V002019999999Y009900599+01501+00001999999ADDMA1102001999999REMMET061METAR ZSSS 050730Z 32002MPS 260V360 CAVOK 15/M00 Q1020 NOSIG=
0088583670999992024010508004+31198+121336FM-15+000399999V0203401V002019999999Y009900599+01501+00001999999ADDMA1102101999999REMMET061METAR ZSSS 050800Z 34002MPS 310V010 CAVOK 15/M00 Q1021 NOSIG=
0088583670999992024010508304+31198+121336FM-15+000399999V0203101V002019999999Y009900599+01401+00001999999ADDMA1102101999999REMMET061METAR ZSSS 050830Z 31002MPS 280V030 CAVOK 14/M00 Q1021 NOSIG=
0079583670999992024010509004+31198+121336FM-15+000399999V0209999V001019999999Y009900599+01301+00001999999ADDMA1102101999999REMMET052METAR ZSSS 050900Z VRB01MPS CAVOK 13/00 Q1021 NOSIG=
0088583670999992024010509304+31198+121336FM-15+000399999V0202901V002019999999Y009900599+01301-00101999999ADDMA1102101999999REMMET061METAR ZSSS 050930Z 29002MPS 260V340 CAVOK 13/M01 Q1021 NOSIG=
0079583670999992024010510004+31198+121336FM-15+000399999V0209999V001019999999Y009900599+01201+00001999999ADDMA1102201999999REMMET052METAR ZSSS 051000Z VRB01MPS CAVOK 12/00 Q1022 NOSIG=
0079583670999992024010510304+31198+121336FM-15+000399999V0203601N004019999999Y009900599+01101+00201999999ADDMA1102201999999REMMET052METAR ZSSS 051030Z 36004MPS CAVOK 11/02 Q1022 NOSIG=
0079583670999992024010511004+31198+121336FM-15+000399999V0209999V001019999999Y009900599+00901+00201999999ADDMA1102201999999REMMET052METAR ZSSS 051100Z VRB01MPS CAVOK 09/02 Q1022 NOSIG=
0079583670999992024010511304+31198+121336FM-15+000399999V0209999V001019999999Y009900599+01101+00301999999ADDMA1102201999999REMMET052METAR ZSSS 051130Z VRB01MPS CAVOK 11/03 Q1022 NOSIG=
0108583670999992024010512004+31198+121336FM-15+000399999V0200701N001012200019N008000199+01001+00301999999ADDGF100991999999999999999999MA1102301999999REMMET055METAR ZSSS 051200Z 07001MPS 8000 NSC 10/03 Q1023 NOSIG=
0108583670999992024010512304+31198+121336FM-15+000399999V0209999V001012200019N008000199+00901+00301999999ADDGF100991999999999999999999MA1102301999999REMMET055METAR ZSSS 051230Z VRB01MPS 8000 NSC 09/03 Q1023 NOSIG=
0116583670999992024010513004+31198+121336FM-15+000399999V0201401V002012200019N008000199+00901+00301999999ADDGF100991999999999999999999MA1102301999999REMMET063METAR ZSSS 051300Z 14002MPS 100V160 8000 NSC 09/03 Q1023 NOSIG=
0116583670999992024010513304+31198+121336FM-15+000399999V0200901V002012200019N008000199+00901+00301999999ADDGF100991999999999999999999MA1102301999999REMMET063METAR ZSSS 051330Z 09002MPS 040V140 8000 NSC 09/03 Q1023 NOSIG=
0108583670999992024010514004+31198+121336FM-15+000399999V0209999C000012200019N008000199+00801+00301999999ADDGF100991999999999999999999MA1102301999999REMMET055METAR ZSSS 051400Z 00000MPS 8000 NSC 08/03 Q1023 NOSIG=
0108583670999992024010514304+31198+121336FM-15+000399999V0203601N003012200019N007000199+00701+00301999999ADDGF100991999999999999999999MA1102301999999REMMET055METAR ZSSS 051430Z 36003MPS 7000 NSC 07/03 Q1023 NOSIG=
0108583670999992024010515004+31198+121336FM-15+000399999V0203601N002012200019N007000199+00701+00401999999ADDGF100991999999999999999999MA1102301999999REMMET055METAR ZSSS 051500Z 36002MPS 7000 NSC 07/04 Q1023 NOSIG=
0108583670999992024010515304+31198+121336FM-15+000399999V0203401N001012200019N007000199+00701+00301999999ADDGF100991999999999999999999MA1102301999999REMMET055METAR ZSSS 051530Z 34001MPS 7000 NSC 07/03 Q1023 NOSIG=
0108583670999992024010516004+31198+121336FM-15+000399999V0200201N001012200019N007000199+00601+00301999999ADDGF100991999999999999999999MA1102301999999REMMET055METAR ZSSS 051600Z 02001MPS 7000 NSC 06/03 Q1023 NOSIG=
0108583670999992024010516304+31198+121336FM-15+000399999V0203501N002012200019N006000199+00601+00201999999ADDGF100991999999999999999999MA1102301999999REMMET055METAR ZSSS 051630Z 35002MPS 6000 NSC 06/02 Q1023 NOSIG=
0108583670999992024010517004+31198+121336FM-15+000399999V0203601N002012200019N006000199+00501+00201999999ADDGF100991999999999999999999MA1102301999999REMMET055METAR ZSSS 051700Z 36002MPS 6000 NSC 05/02 Q1023 NOSIG=
0117583670999992024010517304+31198+121336FM-15+000399999V0203601N002012200019N005000199+00401+00201999999ADDGF100991999999999999999999MA1102301999999MW1101REMMET058METAR ZSSS 051730Z 36002MPS 5000 BR NSC 04/02 Q1023 NOSIG=
0117583670999992024010518004+31198+121336FM-15+000399999V0203501N002012200019N005000199+00501+00201999999ADDGF100991999999999999999999MA1102301999999MW1101REMMET058METAR ZSSS 051800Z 35002MPS 5000 BR NSC 05/02 Q1023 NOSIG=
0117583670999992024010518304+31198+121336FM-15+000399999V0203501N002012200019N005000199+00401+00201999999ADDGF100991999999999999999999MA1102301999999MW1101REMMET058METAR ZSSS 051830Z 35002MPS 5000 BR NSC 04/02 Q1023 NOSIG=
0117583670999992024010519004+31198+121336FM-15+000399999V0203601N001012200019N005000199+00501+00201999999ADDGF100991999999999999999999MA1102301999999MW1101REMMET058METAR ZSSS 051900Z 36001MPS 5000 BR NSC 05/02 Q1023 NOSIG=
0117583670999992024010519304+31198+121336FM-15+000399999V0203601N002012200019N005000199+00401+00201999999ADDGF100991999999999999999999MA1102301999999MW1101REMMET058METAR ZSSS 051930Z 36002MPS 5000 BR NSC 04/02 Q1023 NOSIG=
0117583670999992024010520004+31198+121336FM-15+000399999V0203501N003012200019N005000199+00401+00201999999ADDGF100991999999999999999999MA1102301999999MW1101REMMET058METAR ZSSS 052000Z 35003MPS 5000 BR NSC 04/02 Q1023 NOSIG=
0117583670999992024010520304+31198+121336FM-15+000399999V0203501N002012200019N005000199+00401+00201999999ADDGF100991999999999999999999MA1102301999999MW1101REMMET058METAR ZSSS 052030Z 35002MPS 5000 BR NSC 04/02 Q1023 NOSIG=
0117583670999992024010521004+31198+121336FM-15+000399999V0203601N003012200019N005000199+00401+00201999999ADDGF100991999999999999999999MA1102301999999MW1101REMMET058METAR ZSSS 052100Z 36003MPS 5000 BR NSC 04/02 Q1023 NOSIG=
0117583670999992024010521304+31198+121336FM-15+000399999V0203601N003012200019N005000199+00401+00201999999ADDGF100991999999999999999999MA1102401999999MW1101REMMET058METAR ZSSS 052130Z 36003MPS 5000 BR NSC 04/02 Q1024 NOSIG=
0117583670999992024010522004+31198+121336FM-15+000399999V0203601N003012200019N004000199+00401+00301999999ADDGF100991999999999999999999MA1102401999999MW1101REMMET058METAR ZSSS 052200Z 36003MPS 4000 BR NSC 04/03 Q1024 NOSIG=
0117583670999992024010522304+31198+121336FM-15+000399999V0203601N003012200019N004000199+00401+00201999999ADDGF100991999999999999999999MA1102401999999MW1101REMMET058METAR ZSSS 052230Z 36003MPS 4000 BR NSC 04/02 Q1024 NOSIG=
0129583670999992024010523004+31198+121336FM-15+000399999V0200101N003012200019N003500199+00401+00201999999ADDGF100991999999999999999999MA1102401999999MW1101REMMET070METAR ZSSS 052300Z 01003MPS 3500 BR NSC 04/02 Q1024 BECMG TL2340 2800=
0117583670999992024010523304+31198+121336FM-15+000399999V0200101N002012200019N002000199+00401+00201999999ADDGF100991999999999999999999MA1102501999999MW1101REMMET058METAR ZSSS 052330Z 01002MPS 2000 BR NSC 04/02 Q1025 NOSIG=
0129583670999992024010600004+31198+121336FM-15+000399999V0200101N002012200019N002000199+00601+00401999999ADDGF100991999999999999999999MA1102501999999MW1101REMMET070METAR ZSSS 060000Z 01002MPS 2000 BR NSC 06/04 Q1025 BECMG TL0130 3000=
0117583670999992024010600304+31198+121336FM-15+000399999V0200101N002012200019N002000199+00601+00401999999ADDGF100991999999999999999999MA1102501999999MW1101REMMET058METAR ZSSS 060030Z 01002MPS 2000 BR NSC 06/04 Q1025 NOSIG=
0129583670999992024010601004+31198+121336FM-15+000399999V0200101N002012200019N002000199+00701+00401999999ADDGF100991999999999999999999MA1102501999999MW1101REMMET070METAR ZSSS 060100Z 01002MPS 2000 BR NSC 07/04 Q1025 BECMG TL0240 3000=
0117583670999992024010601304+31198+121336FM-15+000399999V0209999V001012200019N002000199+00901+00501999999ADDGF100991999999999999999999MA1102501999999MW1101REMMET058METAR ZSSS 060130Z VRB01MPS 2000 BR NSC 09/05 Q1025 NOSIG=
0137583670999992024010602004+31198+121336FM-15+000399999V0203501V002012200019N002700199+01001+00401999999ADDGF100991999999999999999999MA1102501999999MW1051REMMET078METAR ZSSS 060200Z 35002MPS 310V030 2700 HZ NSC 10/04 Q1025 BECMG TL0340 3000=
0125583670999992024010602304+31198+121336FM-15+000399999V0203301V002012200019N003000199+01101+00401999999ADDGF100991999999999999999999MA1102501999999MW1051REMMET066METAR ZSSS 060230Z 33002MPS 290V020 3000 HZ NSC 11/04 Q1025 NOSIG=
0117583670999992024010603004+31198+121336FM-15+000399999V0209999V002012200019N004000199+01101+00301999999ADDGF100991999999999999999999MA1102501999999MW1051REMMET058METAR ZSSS 060300Z VRB02MPS 4000 HZ NSC 11/03 Q1025 NOSIG=
0117583670999992024010603304+31198+121336FM-15+000399999V0209999V001012200019N004000199+01201+00301999999ADDGF100991999999999999999999MA1102401999999MW1051REMMET058METAR ZSSS 060330Z VRB01MPS 4000 HZ NSC 12/03 Q1024 NOSIG=
0125583670999992024010604004+31198+121336FM-15+000399999V0203201V002012200019N004000199+01301+00301999999ADDGF100991999999999999999999MA1102401999999MW1051REMMET066METAR ZSSS 060400Z 32002MPS 280V010 4000 HZ NSC 13/03 Q1024 NOSIG=
0125583670999992024010604304+31198+121336FM-15+000399999V0203201V003012200019N004000199+01301+00301999999ADDGF100991999999999999999999MA1102401999999MW1051REMMET066METAR ZSSS 060430Z 32003MPS 290V030 4000 HZ NSC 13/03 Q1024 NOSIG=
0117583670999992024010605004+31198+121336FM-15+000399999V0209999V003012200019N005000199+01401+00301999999ADDGF100991999999999999999999MA1102301999999MW1051REMMET058METAR ZSSS 060500Z VRB03MPS 5000 HZ NSC 14/03 Q1023 NOSIG=
0125583670999992024010605304+31198+121336FM-15+000399999V0203201V003012200019N005000199+01401+00301999999ADDGF100991999999999999999999MA1102301999999MW1051REMMET066METAR ZSSS 060530Z 32003MPS 280V020 5000 HZ NSC 14/03 Q1023 NOSIG=
0116583670999992024010606004+31198+121336FM-15+000399999V0203401V004012200019N007000199+01401+00201999999ADDGF100991999999999999999999MA1102301999999REMMET063METAR ZSSS 060600Z 34004MPS 300V010 7000 NSC 14/02 Q1023 NOSIG=
0116583670999992024010606304+31198+121336FM-15+000399999V0203501V003012200019N007000199+01401+00201999999ADDGF100991999999999999999999MA1102301999999REMMET063METAR ZSSS 060630Z 35003MPS 320V020 7000 NSC 14/02 Q1023 NOSIG=
0108583670999992024010607004+31198+121336FM-15+000399999V0203601N005012200019N007000199+01301+00201999999ADDGF100991999999999999999999MA1102301999999REMMET055METAR ZSSS 060700Z 36005MPS 7000 NSC 13/02 Q1023 NOSIG=
0108583670999992024010607304+31198+121336FM-15+000399999V0203601N004012200019N007000199+01201+00301999999ADDGF100991999999999999999999MA1102301999999REMMET055METAR ZSSS 060730Z 36004MPS 7000 NSC 12/03 Q1023 NOSIG=
0108583670999992024010608004+31198+121336FM-15+000399999V0200101N005012200019N007000199+01201+00301999999ADDGF100991999999999999999999MA1102401999999REMMET055METAR ZSSS 060800Z 01005MPS 7000 NSC 12/03 Q1024 NOSIG=
0117583670999992024010608304+31198+121336FM-15+000399999V0200201N004012200019N005000199+01101+00301999999ADDGF100991999999999999999999MA1102401999999MW1051REMMET058METAR ZSSS 060830Z 02004MPS 5000 HZ NSC 11/03 Q1024 NOSIG=
0117583670999992024010609004+31198+121336FM-15+000399999V0200101N005012200019N004000199+01001+00301999999ADDGF100991999999999999999999MA1102501999999MW1051REMMET058METAR ZSSS 060900Z 01005MPS 4000 HZ NSC 10/03 Q1025 NOSIG=
0117583670999992024010609304+31198+121336FM-15+000399999V0200101N004012200019N005000199+00901+00301999999ADDGF100991999999999999999999MA1102501999999MW1051REMMET058METAR ZSSS 060930Z 01004MPS 5000 HZ NSC 09/03 Q1025 NOSIG=
0108583670999992024010610004+31198+121336FM-15+000399999V0200101N004012200019N006000199+00901+00201999999ADDGF100991999999999999999999MA1102501999999REMMET055METAR ZSSS 061000Z 01004MPS 6000 NSC 09/02 Q1025 NOSIG=
0108583670999992024010610304+31198+121336FM-15+000399999V0203601N004012200019N006000199+00801+00201999999ADDGF100991999999999999999999MA1102601999999REMMET055METAR ZSSS 061030Z 36004MPS 6000 NSC 08/02 Q1026 NOSIG=
0108583670999992024010611004+31198+121336FM-15+000399999V0200101N003012200019N007000199+00701+00201999999ADDGF100991999999999999999999MA1102601999999REMMET055METAR ZSSS 061100Z 01003MPS 7000 NSC 07/02 Q1026 NOSIG=
0108583670999992024010611304+31198+121336FM-15+000399999V0200101N003012200019N007000199+00701+00201999999ADDGF100991999999999999999999MA1102601999999REMMET055METAR ZSSS 061130Z 01003MPS 7000 NSC 07/02 Q1026 NOSIG=
0108583670999992024010612004+31198+121336FM-15+000399999V0200101N004012200019N007000199+00701+00301999999ADDGF100991999999999999999999MA1102701999999REMMET055METAR ZSSS 061200Z 01004MPS 7000 NSC 07/03 Q1027 NOSIG=
0108583670999992024010612304+31198+121336FM-15+000399999V0203601N003012200019N007000199+00701+00301999999ADDGF100991999999999999999999MA1102701999999REMMET055METAR ZSSS 061230Z 36003MPS 7000 NSC 07/03 Q1027 NOSIG=
0108583670999992024010613004+31198+121336FM-15+000399999V0203501N003012200019N006000199+00601+00401999999ADDGF100991999999999999999999MA1102701999999REMMET055METAR ZSSS 061300Z 35003MPS 6000 NSC 06/04 Q1027 NOSIG=
0117583670999992024010613304+31198+121336FM-15+000399999V0203601N004012200019N005000199+00601+00401999999ADDGF100991999999999999999999MA1102701999999MW1101REMMET058METAR ZSSS 061330Z 36004MPS 5000 BR NSC 06/04 Q1027 NOSIG=
0117583670999992024010614004+31198+121336FM-15+000399999V0203601N004012200019N005000199+00601+00401999999ADDGF100991999999999999999999MA1102701999999MW1101REMMET058METAR ZSSS 061400Z 36004MPS 5000 BR NSC 06/04 Q1027 NOSIG=
0117583670999992024010614304+31198+121336FM-15+000399999V0203601N004012200019N005000199+00501+00301999999ADDGF100991999999999999999999MA1102801999999MW1101REMMET058METAR ZSSS 061430Z 36004MPS 5000 BR NSC 05/03 Q1028 NOSIG=
0117583670999992024010615004+31198+121336FM-15+000399999V0200101N004012200019N004000199+00501+00401999999ADDGF100991999999999999999999MA1102801999999MW1101REMMET058METAR ZSSS 061500Z 01004MPS 4000 BR NSC 05/04 Q1028 NOSIG=
0117583670999992024010615304+31198+121336FM-15+000399999V0203601N004012200019N004000199+00501+00401999999ADDGF100991999999999999999999MA1102801999999MW1101REMMET058METAR ZSSS 061530Z 36004MPS 4000 BR NSC 05/04 Q1028 NOSIG=
0117583670999992024010616004+31198+121336FM-15+000399999V0203601N004012200019N004000199+00501+00301999999ADDGF100991999999999999999999MA1102801999999MW1101REMMET058METAR ZSSS 061600Z 36004MPS 4000 BR NSC 05/03 Q1028 NOSIG=
0117583670999992024010616304+31198+121336FM-15+000399999V0200101N004012200019N004000199+00401+00301999999ADDGF100991999999999999999999MA1102701999999MW1101REMMET058METAR ZSSS 061630Z 01004MPS 4000 BR NSC 04/03 Q1027 NOSIG=
0117583670999992024010617004+31198+121336FM-15+000399999V0203601N004012200019N004000199+00401+00201999999ADDGF100991999999999999999999MA1102801999999MW1101REMMET058METAR ZSSS 061700Z 36004MPS 4000 BR NSC 04/02 Q1028 NOSIG=
0117583670999992024010617304+31198+121336FM-15+000399999V0200101N004012200019N004000199+00401+00301999999ADDGF100991999999999999999999MA1102801999999MW1101REMMET058METAR ZSSS 061730Z 01004MPS 4000 BR NSC 04/03 Q1028 NOSIG=
0117583670999992024010618004+31198+121336FM-15+000399999V0200101N003012200019N004000199+00401+00201999999ADDGF100991999999999999999999MA1102801999999MW1101REMMET058METAR ZSSS 061800Z 01003MPS 4000 BR NSC 04/02 Q1028 NOSIG=
0117583670999992024010618304+31198+121336FM-15+000399999V0200101N003012200019N005000199+00301+00201999999ADDGF100991999999999999999999MA1102901999999MW1101REMMET058METAR ZSSS 061830Z 01003MPS 5000 BR NSC 03/02 Q1029 NOSIG=
0117583670999992024010619004+31198+121336FM-15+000399999V0203601N003012200019N005000199+00401+00201999999ADDGF100991999999999999999999MA1102801999999MW1101REMMET058METAR ZSSS 061900Z 36003MPS 5000 BR NSC 04/02 Q1028 NOSIG=
0117583670999992024010619304+31198+121336FM-15+000399999V0203601N002012200019N005000199+00301+00101999999ADDGF100991999999999999999999MA1102801999999MW1101REMMET058METAR ZSSS 061930Z 36002MPS 5000 BR NSC 03/01 Q1028 NOSIG=
0117583670999992024010620004+31198+121336FM-15+000399999V0203501N002012200019N005000199+00401+00201999999ADDGF100991999999999999999999MA1102901999999MW1101REMMET058METAR ZSSS 062000Z 35002MPS 5000 BR NSC 04/02 Q1029 NOSIG=
0117583670999992024010620304+31198+121336FM-15+000399999V0200101N003012200019N005000199+00301+00101999999ADDGF100991999999999999999999MA1102901999999MW1101REMMET058METAR ZSSS 062030Z 01003MPS 5000 BR NSC 03/01 Q1029 NOSIG=
0117583670999992024010621004+31198+121336FM-15+000399999V0203601N003012200019N005000199+00301+00101999999ADDGF100991999999999999999999MA1102901999999MW1101REMMET058METAR ZSSS 062100Z 36003MPS 5000 BR NSC 03/01 Q1029 NOSIG=
0117583670999992024010621304+31198+121336FM-15+000399999V0203501N002012200019N005000199+00301+00201999999ADDGF100991999999999999999999MA1102901999999MW1101REMMET058METAR ZSSS 062130Z 35002MPS 5000 BR NSC 03/02 Q1029 NOSIG=
0117583670999992024010622004+31198+121336FM-15+000399999V0203601N002012200019N005000199+00301+00101999999ADDGF100991999999999999999999MA1102901999999MW1101REMMET058METAR ZSSS 062200Z 36002MPS 5000 BR NSC 03/01 Q1029 NOSIG=
0117583670999992024010622304+31198+121336FM-15+000399999V0203401N003012200019N005000199+00301+00101999999ADDGF100991999999999999999999MA1103001999999MW1101REMMET058METAR ZSSS 062230Z 34003MPS 5000 BR NSC 03/01 Q1030 NOSIG=
0117583670999992024010623004+31198+121336FM-15+000399999V0203501N003012200019N005000199+00301+00101999999ADDGF100991999999999999999999MA1103001999999MW1101REMMET058METAR ZSSS 062300Z 35003MPS 5000 BR NSC 03/01 Q1030 NOSIG=
0117583670999992024010623304+31198+121336FM-15+000399999V0203401N003012200019N005000199+00401+00101999999ADDGF100991999999999999999999MA1103101999999MW1101REMMET058METAR ZSSS 062330Z 34003MPS 5000 BR NSC 04/01 Q1031 NOSIG=
0117583670999992024010700004+31198+121336FM-15+000399999V0203401N003012200019N005000199+00401+00201999999ADDGF100991999999999999999999MA1103101999999MW1101REMMET058METAR ZSSS 070000Z 34003MPS 5000 BR NSC 04/02 Q1031 NOSIG=
0108583670999992024010700304+31198+121336FM-15+000399999V0203501N003012200019N007000199+00501+00201999999ADDGF100991999999999999999999MA1103101999999REMMET055METAR ZSSS 070030Z 35003MPS 7000 NSC 05/02 Q1031 NOSIG=
0079583670999992024010701004+31198+121336FM-15+000399999V0203601N004019999999Y009900599+00501+00101999999ADDMA1103201999999REMMET052METAR ZSSS 070100Z 36004MPS CAVOK 05/01 Q1032 NOSIG=
0079583670999992024010701304+31198+121336FM-15+000399999V0203601N005019999999Y009900599+00601+00101999999ADDMA1103201999999REMMET052METAR ZSSS 070130Z 36005MPS CAVOK 06/01 Q1032 NOSIG=
0079583670999992024010702004+31198+121336FM-15+000399999V0203501N005019999999Y009900599+00601+00101999999ADDMA1103201999999REMMET052METAR ZSSS 070200Z 35005MPS CAVOK 06/01 Q1032 NOSIG=
0157583670999992024010702304+31198+121336FM-15+000399999V0203601V005019999999N009999199+00701+00001999999ADDGA1021+010061999GE19AGL   +99999+99999GF199999021999010061999999MA1103201999999REMMET066METAR ZSSS 070230Z 36005MPS 320V030 9999 FEW033 07/00 Q1032 NOSIG=
0150583670999992024010703004+31198+121336FM-15+000399999V0200301N005019999999N009999199+00801-00101999999ADDGA1021+010061999GE19AGL   +99999+99999GF199999021999010061999999MA1103101999999REMMET059METAR ZSSS 070300Z 03005MPS 9999 FEW033 08/M01 Q1031 NOSIG=
0088583670999992024010703304+31198+121336FM-15+000399999V0200101V005019999999Y009900599+00801-00201999999ADDMA1103101999999REMMET061METAR ZSSS 070330Z 01005MPS 330V030 CAVOK 08/M02 Q1031 NOSIG=
0088583670999992024010704004+31198+121336FM-15+000399999V0203601V004019999999Y009900599+00901-00301999999ADDMA1103101999999REMMET061METAR ZSSS 070400Z 36004MPS 320V050 CAVOK 09/M03 Q1031 NOSIG=
0080583670999992024010704304+31198+121336FM-15+000399999V0200201N005019999999Y009900599+00801-00401999999ADDMA1103001999999REMMET053METAR ZSSS 070430Z 02005MPS CAVOK 08/M04 Q1030 NOSIG=
0088583670999992024010705004+31198+121336FM-15+000399999V0200201V005019999999Y009900599+00901-00401999999ADDMA1103001999999REMMET061METAR ZSSS 070500Z 02005MPS 350V050 CAVOK 09/M04 Q1030 NOSIG=
0080583670999992024010705304+31198+121336FM-15+000399999V0203501N005019999999Y009900599+00901-00401999999ADDMA1103001999999REMMET053METAR ZSSS 070530Z 35005MPS CAVOK 09/M04 Q1030 NOSIG=
0080583670999992024010706004+31198+121336FM-15+000399999V0200101N005019999999Y009900599+00801-00501999999ADDMA1103001999999REMMET053METAR ZSSS 070600Z 01005MPS CAVOK 08/M05 Q1030 NOSIG=
0088583670999992024010706304+31198+121336FM-15+000399999V0203501V005019999999Y009900599+00901-00601999999ADDMA1102901999999REMMET061METAR ZSSS 070630Z 35005MPS 320V020 CAVOK 09/M06 Q1029 NOSIG=
0088583670999992024010707004+31198+121336FM-15+000399999V0200101V004019999999Y009900599+00901-00601999999ADDMA1102901999999REMMET061METAR ZSSS 070700Z 01004MPS 330V040 CAVOK 09/M06 Q1029 NOSIG=
0080583670999992024010707304+31198+121336FM-15+000399999V0200301N004019999999Y009900599+00801-00501999999ADDMA1103001999999REMMET053METAR ZSSS 070730Z 03004MPS CAVOK 08/M05 Q1030 NOSIG=
0080583670999992024010708004+31198+121336FM-15+000399999V0200301N004019999999Y009900599+00801-00501999999ADDMA1103001999999REMMET053METAR ZSSS 070800Z 03004MPS CAVOK 08/M05 Q1030 NOSIG=
0088583670999992024010708304+31198+121336FM-15+000399999V0200201V004019999999Y009900599+00701-00501999999ADDMA1103001999999REMMET061METAR ZSSS 070830Z 02004MPS 340V100 CAVOK 07/M05 Q1030 NOSIG=
0080583670999992024010709004+31198+121336FM-15+000399999V0200301N004019999999Y009900599+00701-00501999999ADDMA1103001999999REMMET053METAR ZSSS 070900Z 03004MPS CAVOK 07/M05 Q1030 NOSIG=
0080583670999992024010709304+31198+121336FM-15+000399999V0200101N004019999999Y009900599+00501-00501999999ADDMA1103001999999REMMET053METAR ZSSS 070930Z 01004MPS CAVOK 05/M05 Q1030 NOSIG=
0088583670999992024010710004+31198+121336FM-15+000399999V0200401V005019999999Y009900599+00601-00301999999ADDMA1103101999999REMMET061METAR ZSSS 071000Z 04005MPS 020V080 CAVOK 06/M03 Q1031 NOSIG=
0080583670999992024010710304+31198+121336FM-15+000399999V0200401N004019999999Y009900599+00501-00401999999ADDMA1103101999999REMMET053METAR ZSSS 071030Z 04004MPS CAVOK 05/M04 Q1031 NOSIG=
0080583670999992024010711004+31198+121336FM-15+000399999V0200301N004019999999Y009900599+00501-00401999999ADDMA1103101999999REMMET053METAR ZSSS 071100Z 03004MPS CAVOK 05/M04 Q1031 NOSIG=
0080583670999992024010711304+31198+121336FM-15+000399999V0200301N006019999999Y009900599+00401-00401999999ADDMA1103101999999REMMET053METAR ZSSS 071130Z 03006MPS CAVOK 04/M04 Q1031 NOSIG=
0080583670999992024010712004+31198+121336FM-15+000399999V0200501N005019999999Y009900599+00401-00301999999ADDMA1103101999999REMMET053METAR ZSSS 071200Z 05005MPS CAVOK 04/M03 Q1031 NOSIG=
0080583670999992024010712304+31198+121336FM-15+000399999V0200501N005019999999Y009900599+00401-00301999999ADDMA1103101999999REMMET053METAR ZSSS 071230Z 05005MPS CAVOK 04/M03 Q1031 NOSIG=
0088583670999992024010713004+31198+121336FM-15+000399999V0200501V004019999999Y009900599+00401-00301999999ADDMA1103101999999REMMET061METAR ZSSS 071300Z 05004MPS 030V090 CAVOK 04/M03 Q1031 NOSIG=
0088583670999992024010713304+31198+121336FM-15+000399999V0200601V003019999999Y009900599+00401-00301999999ADDMA1103101999999REMMET061METAR ZSSS 071330Z 06003MPS 030V090 CAVOK 04/M03 Q1031 NOSIG=
0080583670999992024010714004+31198+121336FM-15+000399999V0200501N004019999999Y009900599+00401-00301999999ADDMA1103101999999REMMET053METAR ZSSS 071400Z 05004MPS CAVOK 04/M03 Q1031 NOSIG=
0080583670999992024010714304+31198+121336FM-15+000399999V0200501N003019999999Y009900599+00301-00301999999ADDMA1103101999999REMMET053METAR ZSSS 071430Z 05003MPS CAVOK 03/M03 Q1031 NOSIG=
0088583670999992024010715004+31198+121336FM-15+000399999V0200801V002019999999Y009900599+00301-00301999999ADDMA1103101999999REMMET061METAR ZSSS 071500Z 08002MPS 040V100 CAVOK 03/M03 Q1031 NOSIG=
0080583670999992024010715304+31198+121336FM-15+000399999V0200601N003019999999Y009900599+00301-00301999999ADDMA1103001999999REMMET053METAR ZSSS 071530Z 06003MPS CAVOK 03/M03 Q1030 NOSIG=
0080583670999992024010716004+31198+121336FM-15+000399999V0200701N003019999999Y009900599+00401-00301999999ADDMA1103001999999REMMET053METAR ZSSS 071600Z 07003MPS CAVOK 04/M03 Q1030 NOSIG=
0080583670999992024010716304+31198+121336FM-15+000399999V0200801N002019999999Y009900599+00301-00301999999ADDMA1103001999999REMMET053METAR ZSSS 071630Z 08002MPS CAVOK 03/M03 Q1030 NOSIG=
0080583670999992024010717004+31198+121336FM-15+000399999V0200701N003019999999Y009900599+00301-00301999999ADDMA1103001999999REMMET053METAR ZSSS 071700Z 07003MPS CAVOK 03/M03 Q1030 NOSIG=
0080583670999992024010717304+31198+121336FM-15+000399999V0200701N002019999999Y009900599+00301-00301999999ADDMA1102901999999REMMET053METAR ZSSS 071730Z 07002MPS CAVOK 03/M03 Q1029 NOSIG=
0080583670999992024010718004+31198+121336FM-15+000399999V0200701N002019999999Y009900599+00301-00301999999ADDMA1102901999999REMMET053METAR ZSSS 071800Z 07002MPS CAVOK 03/M03 Q1029 NOSIG=
0080583670999992024010718304+31198+121336FM-15+000399999V0200701N002019999999Y009900599+00301-00301999999ADDMA1102801999999REMMET053METAR ZSSS 071830Z 07002MPS CAVOK 03/M03 Q1028 NOSIG=
0080583670999992024010719004+31198+121336FM-15+000399999V0209999V001019999999Y009900599+00201-00301999999ADDMA1102901999999REMMET053METAR ZSSS 071900Z VRB01MPS CAVOK 02/M03 Q1029 NOSIG=
0088583670999992024010719304+31198+121336FM-15+000399999V0200901V002019999999Y009900599+00301-00301999999ADDMA1102901999999REMMET061METAR ZSSS 071930Z 09002MPS 060V120 CAVOK 03/M03 Q1029 NOSIG=
0080583670999992024010720004+31198+121336FM-15+000399999V0200901N001019999999Y009900599+00301-00201999999ADDMA1102801999999REMMET053METAR ZSSS 072000Z 09001MPS CAVOK 03/M02 Q1028 NOSIG=
0088583670999992024010720304+31198+121336FM-15+000399999V0200901V002019999999Y009900599+00301-00201999999ADDMA1102701999999REMMET061METAR ZSSS 072030Z 09002MPS 060V120 CAVOK 03/M02 Q1027 NOSIG=
0088583670999992024010721004+31198+121336FM-15+000399999V0201001V002019999999Y009900599+00401-00201999999ADDMA1102701999999REMMET061METAR ZSSS 072100Z 10002MPS 080V140 CAVOK 04/M02 Q1027 NOSIG=
0080583670999992024010721304+31198+121336FM-15+000399999V0201201N002019999999Y009900599+00301-00201999999ADDMA1102701999999REMMET053METAR ZSSS 072130Z 12002MPS CAVOK 03/M02 Q1027 NOSIG=
0080583670999992024010722004+31198+121336FM-15+000399999V0201101N002019999999Y009900599+00401-00201999999ADDMA1102701999999REMMET053METAR ZSSS 072200Z 11002MPS CAVOK 04/M02 Q1027 NOSIG=
0080583670999992024010722304+31198+121336FM-15+000399999V0209999V001019999999Y009900599+00301-00201999999ADDMA1102801999999REMMET053METAR ZSSS 072230Z VRB01MPS CAVOK 03/M02 Q1028 NOSIG=
0088583670999992024010723004+31198+121336FM-15+000399999V0201001V002019999999Y009900599+00401-00201999999ADDMA1102701999999REMMET061METAR ZSSS 072300Z 10002MPS 080V150 CAVOK 04/M02 Q1027 NOSIG=
0080583670999992024010723304+31198+121336FM-15+000399999V0201101N003019999999Y009900599+00401-00101999999ADDMA1102701999999REMMET053METAR ZSSS 072330Z 11003MPS CAVOK 04/M01 Q1027 NOSIG=
0088583670999992024010800004+31198+121336FM-15+000399999V0201101V003019999999Y009900599+00501-00101999999ADDMA1102701999999REMMET061METAR ZSSS 080000Z 11003MPS 070V150 CAVOK 05/M01 Q1027 NOSIG=
0088583670999992024010800304+31198+121336FM-15+000399999V0201001V002019999999Y009900599+00501-00101999999ADDMA1102701999999REMMET061METAR ZSSS 080030Z 10002MPS 070V160 CAVOK 05/M01 Q1027 NOSIG=
0080583670999992024010801004+31198+121336FM-15+000399999V0201301N003019999999Y009900599+00601+00001999999ADDMA1102701999999REMMET053METAR ZSSS 080100Z 13003MPS CAVOK 06/M00 Q1027 NOSIG=
0088583670999992024010801304+31198+121336FM-15+000399999V0201301V004019999999Y009900599+00601+00001999999ADDMA1102801999999REMMET061METAR ZSSS 080130Z 13004MPS 100V160 CAVOK 06/M00 Q1028 NOSIG=
0087583670999992024010802004+31198+121336FM-15+000399999V0201401V004019999999Y009900599+00701+00001999999ADDMA1102701999999REMMET060METAR ZSSS 080200Z 14004MPS 100V160 CAVOK 07/00 Q1027 NOSIG=
0088583670999992024010802304+31198+121336FM-15+000399999V0201301V004019999999Y009900599+00701+00001999999ADDMA1102701999999REMMET061METAR ZSSS 080230Z 13004MPS 090V180 CAVOK 07/M00 Q1027 NOSIG=
0087583670999992024010803004+31198+121336FM-15+000399999V0201301V004019999999Y009900599+00801+00001999999ADDMA1102701999999REMMET060METAR ZSSS 080300Z 13004MPS 100V160 CAVOK 08/00 Q1027 NOSIG=
0087583670999992024010803304+31198+121336FM-15+000399999V0201301V004019999999Y009900599+00801+00001999999ADDMA1102601999999REMMET060METAR ZSSS 080330Z 13004MPS 100V170 CAVOK 08/00 Q1026 NOSIG=
0087583670999992024010804004+31198+121336FM-15+000399999V0201201V004019999999Y009900599+00901+00001999999ADDMA1102601999999REMMET060METAR ZSSS 080400Z 12004MPS 090V160 CAVOK 09/00 Q1026 NOSIG=
0087583670999992024010804304+31198+121336FM-15+000399999V0201301V004019999999Y009900599+00901+00101999999ADDMA1102501999999REMMET060METAR ZSSS 080430Z 13004MPS 100V170 CAVOK 09/01 Q1025 NOSIG=
0087583670999992024010805004+31198+121336FM-15+000399999V0201501V004019999999Y009900599+01001+00101999999ADDMA1102501999999REMMET060METAR ZSSS 080500Z 15004MPS 120V180 CAVOK 10/01 Q1025 NOSIG=
0087583670999992024010805304+31198+121336FM-15+000399999V0201401V004019999999Y009900599+01001+00101999999ADDMA1102401999999REMMET060METAR ZSSS 080530Z 14004MPS 100V180 CAVOK 10/01 Q1024 NOSIG=
0087583670999992024010806004+31198+121336FM-15+000399999V0201201V003019999999Y009900599+01001+00101999999ADDMA1102401999999REMMET060METAR ZSSS 080600Z 12003MPS 090V150 CAVOK 10/01 Q1024 NOSIG=
0079583670999992024010806304+31198+121336FM-15+000399999V0201401N004019999999Y009900599+00901+00201999999ADDMA1102401999999REMMET052METAR ZSSS 080630Z 14004MPS CAVOK 09/02 Q1024 NOSIG=
0118583670999992024010807004+31198+121336FM-15+000399999V0201301N004012200019N009999199+00901+00201999999ADDGF100991999999999999999999MA1102301999999MW1611REMMET059METAR ZSSS 080700Z 13004MPS 9999 -RA NSC 09/02 Q1023 NOSIG=
0118583670999992024010807304+31198+121336FM-15+000399999V0201601N005012200019N009999199+00901+00401999999ADDGF100991999999999999999999MA1102301999999MW1611REMMET059METAR ZSSS 080730Z 16005MPS 9999 -RA NSC 09/04 Q1023 NOSIG=
0118583670999992024010808004+31198+121336FM-15+000399999V0201601N004012200019N009999199+00801+00401999999ADDGF100991999999999999999999MA1102301999999MW1611REMMET059METAR ZSSS 080800Z 16004MPS 9999 -RA NSC 08/04 Q1023 NOSIG=
0118583670999992024010808304+31198+121336FM-15+000399999V0201501N003012200019N009999199+00801+00401999999ADDGF100991999999999999999999MA1102301999999MW1611REMMET059METAR ZSSS 080830Z 15003MPS 9999 -RA NSC 08/04 Q1023 NOSIG=
0118583670999992024010809004+31198+121336FM-15+000399999V0201401N003012200019N009999199+00801+00401999999ADDGF100991999999999999999999MA1102301999999MW1611REMMET059METAR ZSSS 080900Z 14003MPS 9999 -RA NSC 08/04 Q1023 NOSIG=
0079583670999992024010809304+31198+121336FM-15+000399999V0201301N004019999999Y009900599+00801+00401999999ADDMA1102301999999REMMET052METAR ZSSS 080930Z 13004MPS CAVOK 08/04 Q1023 NOSIG=
0087583670999992024010810004+31198+121336FM-15+000399999V0201401V003019999999Y009900599+00801+00401999999ADDMA1102301999999REMMET060METAR ZSSS 081000Z 14003MPS 100V160 CAVOK 08/04 Q1023 NOSIG=
0079583670999992024010810304+31198+121336FM-15+000399999V0201401N003019999999Y009900599+00801+00401999999ADDMA1102301999999REMMET052METAR ZSSS 081030Z 14003MPS CAVOK 08/04 Q1023 NOSIG=
0087583670999992024010811004+31198+121336FM-15+000399999V0201301V002019999999Y009900599+00801+00401999999ADDMA1102301999999REMMET060METAR ZSSS 081100Z 13002MPS 100V160 CAVOK 08/04 Q1023 NOSIG=
0087583670999992024010811304+31198+121336FM-15+000399999V0201301V002019999999Y009900599+00901+00401999999ADDMA1102301999999REMMET060METAR ZSSS 081130Z 13002MPS 100V170 CAVOK 09/04 Q1023 NOSIG=
0159583670999992024010812004+31198+121336FM-15+000399999V0201401N00301007921CN009999199+00801+00501999999ADDGA1071+007921999GE19AGL   +99999+99999GF199999071999007921999999MA1102301999999MW1611REMMET062METAR ZSSS 081200Z 14003MPS 9999 -RA BKN026 08/05 Q1023 NOSIG=
0157583670999992024010812304+31198+121336FM-15+000399999V0201301V00201007921CN009999199+00801+00501999999ADDGA1071+007921999GE19AGL   +99999+99999GF199999071999007921999999MA1102301999999REMMET066METAR ZSSS 081230Z 13002MPS 100V160 9999 BKN026 08/05 Q1023 NOSIG=
0157583670999992024010813004+31198+121336FM-15+000399999V0201501V00201010061CN009999199+00801+00501999999ADDGA1071+010061999GE19AGL   +99999+99999GF199999071999010061999999MA1102301999999REMMET066METAR ZSSS 081300Z 15002MPS 120V180 9999 BKN033 08/05 Q1023 NOSIG=
0149583670999992024010813304+31198+121336FM-15+000399999V0201501N00301010061CN009999199+00801+00501999999ADDGA1071+010061999GE19AGL   +99999+99999GF199999071999010061999999MA1102201999999REMMET058METAR ZSSS 081330Z 15003MPS 9999 BKN033 08/05 Q1022 NOSIG=
0157583670999992024010814004+31198+121336FM-15+000399999V0201501V00201010061CN009999199+00801+00501999999ADDGA1071+010061999GE19AGL   +99999+99999GF199999071999010061999999MA1102201999999REMMET066METAR ZSSS 081400Z 15002MPS 120V180 9999 BKN033 08/05 Q1022 NOSIG=
0159583670999992024010814304+31198+121336FM-15+000399999V0201601N00201010061CN009999199+00801+00501999999ADDGA1071+010061999GE19AGL   +99999+99999GF199999071999010061999999MA1102201999999MW1611REMMET062METAR ZSSS 081430Z 16002MPS 9999 -RA BKN033 08/05 Q1022 NOSIG=
0149583670999992024010815004+31198+121336FM-15+000399999V0201501N00201010061CN009999199+00801+00501999999ADDGA1071+010061999GE19AGL   +99999+99999GF199999071999010061999999MA1102201999999REMMET058METAR ZSSS 081500Z 15002MPS 9999 BKN033 08/05 Q1022 NOSIG=
0149583670999992024010815304+31198+121336FM-15+000399999V0201601N00201010061CN009999199+00801+00501999999ADDGA1071+010061999GE19AGL   +99999+99999GF199999071999010061999999MA1102201999999REMMET058METAR ZSSS 081530Z 16002MPS 9999 BKN033 08/05 Q1022 NOSIG=
0149583670999992024010816004+31198+121336FM-15+000399999V0201601N00201010061CN009999199+00801+00501999999ADDGA1071+010061999GE19AGL   +99999+99999GF199999071999010061999999MA1102201999999REMMET058METAR ZSSS 081600Z 16002MPS 9999 BKN033 08/05 Q1022 NOSIG=
0149583670999992024010816304+31198+121336FM-15+000399999V0201401N002019999999N009999199+00801+00501999999ADDGA1021+010061999GE19AGL   +99999+99999GF199999021999010061999999MA1102201999999REMMET058METAR ZSSS 081630Z 14002MPS 9999 FEW033 08/05 Q1022 NOSIG=
0149583670999992024010817004+31198+121336FM-15+000399999V0201501N001019999999N009999199+00801+00601999999ADDGA1021+010061999GE19AGL   +99999+99999GF199999021999010061999999MA1102201999999REMMET058METAR ZSSS 081700Z 15001MPS 9999 FEW033 08/06 Q1022 NOSIG=
0079583670999992024010817304+31198+121336FM-15+000399999V0201401N001019999999Y009900599+00801+00601999999ADDMA1102101999999REMMET052METAR ZSSS 081730Z 14001MPS CAVOK 08/06 Q1021 NOSIG=
0079583670999992024010818004+31198+121336FM-15+000399999V0209999C000019999999Y009900599+00801+00601999999ADDMA1102101999999REMMET052METAR ZSSS 081800Z 00000MPS CAVOK 08/06 Q1021 NOSIG=
0079583670999992024010818304+31198+121336FM-15+000399999V0202001N001019999999Y009900599+00801+00601999999ADDMA1102101999999REMMET052METAR ZSSS 081830Z 20001MPS CAVOK 08/06 Q1021 NOSIG=
0079583670999992024010819004+31198+121336FM-15+000399999V0202101N002019999999Y009900599+00801+00601999999ADDMA1102101999999REMMET052METAR ZSSS 081900Z 21002MPS CAVOK 08/06 Q1021 NOSIG=
0079583670999992024010819304+31198+121336FM-15+000399999V0202001N001019999999Y009900599+00801+00601999999ADDMA1102101999999REMMET052METAR ZSSS 081930Z 20001MPS CAVOK 08/06 Q1021 NOSIG=
0079583670999992024010820004+31198+121336FM-15+000399999V0202001N002019999999Y009900599+00801+00601999999ADDMA1102001999999REMMET052METAR ZSSS 082000Z 20002MPS CAVOK 08/06 Q1020 NOSIG=
0079583670999992024010820304+31198+121336FM-15+000399999V0201801N001019999999Y009900599+00801+00601999999ADDMA1102001999999REMMET052METAR ZSSS 082030Z 18001MPS CAVOK 08/06 Q1020 NOSIG=
0079583670999992024010821004+31198+121336FM-15+000399999V0202301N001019999999Y009900599+00701+00501999999ADDMA1102001999999REMMET052METAR ZSSS 082100Z 23001MPS CAVOK 07/05 Q1020 NOSIG=
0079583670999992024010821304+31198+121336FM-15+000399999V0202801N001019999999Y009900599+00701+00501999999ADDMA1102001999999REMMET052METAR ZSSS 082130Z 28001MPS CAVOK 07/05 Q1020 NOSIG=
0079583670999992024010822004+31198+121336FM-15+000399999V0202801N002019999999Y009900599+00701+00501999999ADDMA1102101999999REMMET052METAR ZSSS 082200Z 28002MPS CAVOK 07/05 Q1021 NOSIG=
0079583670999992024010822304+31198+121336FM-15+000399999V0202401N002019999999Y009900599+00701+00501999999ADDMA1102001999999REMMET052METAR ZSSS 082230Z 24002MPS CAVOK 07/05 Q1020 NOSIG=
0116583670999992024010823004+31198+121336FM-15+000399999V0202601V002012200019N008000199+00701+00501999999ADDGF100991999999999999999999MA1102101999999REMMET063METAR ZSSS 082300Z 26002MPS 240V320 8000 NSC 07/05 Q1021 NOSIG=
0116583670999992024010823304+31198+121336FM-15+000399999V0202801V003012200019N008000199+00801+00501999999ADDGF100991999999999999999999MA1102101999999REMMET063METAR ZSSS 082330Z 28003MPS 260V330 8000 NSC 08/05 Q1021 NOSIG=
0116583670999992024010900004+31198+121336FM-15+000399999V0202501V002012200019N008000199+00801+00501999999ADDGF100991999999999999999999MA1102101999999REMMET063METAR ZSSS 090000Z 25002MPS 200V310 8000 NSC 08/05 Q1021 NOSIG=
0116583670999992024010900304+31198+121336FM-15+000399999V0202501V002012200019N006000199+00801+00501999999ADDGF100991999999999999999999MA1102101999999REMMET063METAR ZSSS 090030Z 25002MPS 220V300 6000 NSC 08/05 Q1021 NOSIG=
0116583670999992024010901004+31198+121336FM-15+000399999V0202601V003012200019N006000199+00901+00501999999ADDGF100991999999999999999999MA1102101999999REMMET063METAR ZSSS 090100Z 26003MPS 230V310 6000 NSC 09/05 Q1021 NOSIG=
0116583670999992024010901304+31198+121336FM-15+000399999V0202601V003012200019N006000199+00901+00501999999ADDGF100991999999999999999999MA1102201999999REMMET063METAR ZSSS 090130Z 26003MPS 230V320 6000 NSC 09/05 Q1022 NOSIG=
0125583670999992024010902004+31198+121336FM-15+000399999V0202801V003012200019N005000199+01001+00501999999ADDGF100991999999999999999999MA1102201999999MW1101REMMET066METAR ZSSS 090200Z 28003MPS 240V310 5000 BR NSC 10/05 Q1022 NOSIG=
0125583670999992024010902304+31198+121336FM-15+000399999V0202901V002012200019N005000199+01101+00501999999ADDGF100991999999999999999999MA1102101999999MW1051REMMET066METAR ZSSS 090230Z 29002MPS 240V320 5000 HZ NSC 11/05 Q1021 NOSIG=
0125583670999992024010903004+31198+121336FM-15+000399999V0203101V002012200019N005000199+01201+00401999999ADDGF100991999999999999999999MA1102101999999MW1051REMMET066METAR ZSSS 090300Z 31002MPS 250V360 5000 HZ NSC 12/04 Q1021 NOSIG=
0125583670999992024010903304+31198+121336FM-15+000399999V0202801V002012200019N005000199+01201+00401999999ADDGF100991999999999999999999MA1102001999999MW1051REMMET066METAR ZSSS 090330Z 28002MPS 200V360 5000 HZ NSC 12/04 Q1020 NOSIG=
0125583670999992024010904004+31198+121336FM-15+000399999V0202701V002012200019N005000199+01301+00401999999ADDGF100991999999999999999999MA1101901999999MW1051REMMET066METAR ZSSS 090400Z 27002MPS 210V330 5000 HZ NSC 13/04 Q1019 NOSIG=
0125583670999992024010904304+31198+121336FM-15+000399999V0203101V003012200019N005000199+01401+00401999999ADDGF100991999999999999999999MA1101901999999MW1051REMMET066METAR ZSSS 090430Z 31003MPS 270V350 5000 HZ NSC 14/04 Q1019 NOSIG=
0125583670999992024010905004+31198+121336FM-15+000399999V0202601V003012200019N005000199+01401+00301999999ADDGF100991999999999999999999MA1101901999999MW1051REMMET066METAR ZSSS 090500Z 26003MPS 220V310 5000 HZ NSC 14/03 Q1019 NOSIG=
0125583670999992024010905304+31198+121336FM-15+000399999V0202801V003012200019N005000199+01401+00301999999ADDGF100991999999999999999999MA1101801999999MW1051REMMET066METAR ZSSS 090530Z 28003MPS 230V330 5000 HZ NSC 14/03 Q1018 NOSIG=
0125583670999992024010906004+31198+121336FM-15+000399999V0202601V004012200019N005000199+01401+00301999999ADDGF100991999999999999999999MA1101801999999MW1051REMMET066METAR ZSSS 090600Z 26004MPS 230V300 5000 HZ NSC 14/03 Q1018 NOSIG=
0116583670999992024010906304+31198+121336FM-15+000399999V0202901V003012200019N006000199+01401+00301999999ADDGF100991999999999999999999MA1101801999999REMMET063METAR ZSSS 090630Z 29003MPS 200V330 6000 NSC 14/03 Q1018 NOSIG=
0116583670999992024010907004+31198+121336FM-15+000399999V0202801V004012200019N006000199+01401+00301999999ADDGF100991999999999999999999MA1101801999999REMMET063METAR ZSSS 090700Z 28004MPS 240V330 6000 NSC 14/03 Q1018 NOSIG=
0116583670999992024010907304+31198+121336FM-15+000399999V0202901V003012200019N006000199+01401+00301999999ADDGF100991999999999999999999MA1101801999999REMMET063METAR ZSSS 090730Z 29003MPS 250V340 6000 NSC 14/03 Q1018 NOSIG=
0116583670999992024010908004+31198+121336FM-15+000399999V0202801V003012200019N007000199+01401+00401999999ADDGF100991999999999999999999MA1101801999999REMMET063METAR ZSSS 090800Z 28003MPS 240V320 7000 NSC 14/04 Q1018 NOSIG=
0116583670999992024010908304+31198+121336FM-15+000399999V0202901V004012200019N007000199+01301+00401999999ADDGF100991999999999999999999MA1101801999999REMMET063METAR ZSSS 090830Z 29004MPS 250V340 7000 NSC 13/04 Q1018 NOSIG=
0116583670999992024010909004+31198+121336FM-15+000399999V0202801V004012200019N007000199+01301+00401999999ADDGF100991999999999999999999MA1101801999999REMMET063METAR ZSSS 090900Z 28004MPS 250V320 7000 NSC 13/04 Q1018 NOSIG=
0116583670999992024010909304+31198+121336FM-15+000399999V0202901V004012200019N007000199+01301+00401999999ADDGF100991999999999999999999MA1101901999999REMMET063METAR ZSSS 090930Z 29004MPS 260V330 7000 NSC 13/04 Q1019 NOSIG=
0087583670999992024010910004+31198+121336FM-15+000399999V0203101V003019999999Y009900599+01201+00401999999ADDMA1101901999999REMMET060METAR ZSSS 091000Z 31003MPS 280V350 CAVOK 12/04 Q1019 NOSIG=
0079583670999992024010910304+31198+121336FM-15+000399999V0203201N003019999999Y009900599+01201+00401999999ADDMA1102001999999REMMET052METAR ZSSS 091030Z 32003MPS CAVOK 12/04 Q1020 NOSIG=
0079583670999992024010911004+31198+121336FM-15+000399999V0203301N003019999999Y009900599+01101+00401999999ADDMA1102001999999REMMET052METAR ZSSS 091100Z 33003MPS CAVOK 11/04 Q1020 NOSIG=
0116583670999992024010911304+31198+121336FM-15+000399999V0203101V002012200019N008000199+01201+00401999999ADDGF100991999999999999999999MA1102001999999REMMET063METAR ZSSS 091130Z 31002MPS 260V350 8000 NSC 12/04 Q1020 NOSIG=
0108583670999992024010912004+31198+121336FM-15+000399999V0203201N004012200019N008000199+01101+00401999999ADDGF100991999999999999999999MA1102001999999REMMET055METAR ZSSS 091200Z 32004MPS 8000 NSC 11/04 Q1020 NOSIG=
0108583670999992024010912304+31198+121336FM-15+000399999V0203301N005012200019N008000199+01101+00401999999ADDGF100991999999999999999999MA1102101999999REMMET055METAR ZSSS 091230Z 33005MPS 8000 NSC 11/04 Q1021 NOSIG=
0157583670999992024010913004+31198+121336FM-15+000399999V0203401V004019999999N006000199+01101+00401999999ADDGA1041+012191999GE19AGL   +99999+99999GF199999041999012191999999MA1102101999999REMMET066METAR ZSSS 091300Z 34004MPS 310V010 6000 SCT040 11/04 Q1021 NOSIG=
0149583670999992024010913304+31198+121336FM-15+000399999V0203301N003019999999N006000199+01001+00401999999ADDGA1041+012191999GE19AGL   +99999+99999GF199999041999012191999999MA1102101999999REMMET058METAR ZSSS 091330Z 33003MPS 6000 SCT040 10/04 Q1021 NOSIG=
0149583670999992024010914004+31198+121336FM-15+000399999V0203301N003019999999N006000199+01001+00401999999ADDGA1041+012191999GE19AGL   +99999+99999GF199999041999012191999999MA1102201999999REMMET058METAR ZSSS 091400Z 33003MPS 6000 SCT040 10/04 Q1022 NOSIG=
0149583670999992024010914304+31198+121336FM-15+000399999V0203301N004019999999N006000199+01001+00401999999ADDGA1041+012191999GE19AGL   +99999+99999GF199999041999012191999999MA1102201999999REMMET058METAR ZSSS 091430Z 33004MPS 6000 SCT040 10/04 Q1022 NOSIG=
0149583670999992024010915004+31198+121336FM-15+000399999V0203301N006019999999N006000199+01001+00301999999ADDGA1041+012191999GE19AGL   +99999+99999GF199999041999012191999999MA1102301999999REMMET058METAR ZSSS 091500Z 33006MPS 6000 SCT040 10/03 Q1023 NOSIG=
0158583670999992024010915304+31198+121336FM-15+000399999V0203301N008019999999N005000199+01001+00301999999ADDGA1041+012191999GE19AGL   +99999+99999GF199999041999012191999999MA1102301999999MW1051REMMET061METAR ZSSS 091530Z 33008MPS 5000 HZ SCT040 10/03 Q1023 NOSIG=
0158583670999992024010916004+31198+121336FM-15+000399999V0203301N006019999999N005000199+00901+00301999999ADDGA1041+012191999GE19AGL   +99999+99999GF199999041999012191999999MA1102301999999MW1051REMMET061METAR ZSSS 091600Z 33006MPS 5000 HZ SCT040 09/03 Q1023 NOSIG=
0158583670999992024010916304+31198+121336FM-15+000399999V0203501N007019999999N005000199+00901+00301999999ADDGA1041+010061999GE19AGL   +99999+99999GF199999041999010061999999MA1102301999999MW1051REMMET061METAR ZSSS 091630Z 35007MPS 5000 HZ SCT033 09/03 Q1023 NOSIG=
0158583670999992024010917004+31198+121336FM-15+000399999V0200101N007019999999N005000199+00801+00401999999ADDGA1041+010061999GE19AGL   +99999+99999GF199999041999010061999999MA1102301999999MW1051REMMET061METAR ZSSS 091700Z 01007MPS 5000 HZ SCT033 08/04 Q1023 NOSIG=
0149583670999992024010917304+31198+121336FM-15+000399999V0203601N007019999999N006000199+00701+00201999999ADDGA1041+010061999GE19AGL   +99999+99999GF199999041999010061999999MA1102401999999REMMET058METAR ZSSS 091730Z 36007MPS 6000 SCT033 07/02 Q1024 NOSIG=
0149583670999992024010918004+31198+121336FM-15+000399999V0203601N006019999999N006000199+00701+00101999999ADDGA1041+010061999GE19AGL   +99999+99999GF199999041999010061999999MA1102401999999REMMET058METAR ZSSS 091800Z 36006MPS 6000 SCT033 07/01 Q1024 NOSIG=
0108583670999992024010918304+31198+121336FM-15+000399999V0203601N004012200019N006000199+00601+00201999999ADDGF100991999999999999999999MA1102401999999REMMET055METAR ZSSS 091830Z 36004MPS 6000 NSC 06/02 Q1024 NOSIG=
0108583670999992024010919004+31198+121336FM-15+000399999V0203401N004012200019N006000199+00601+00201999999ADDGF100991999999999999999999MA1102401999999REMMET055METAR ZSSS 091900Z 34004MPS 6000 NSC 06/02 Q1024 NOSIG=
0149583670999992024010919304+31198+121336FM-15+000399999V0203501N006019999999N006000199+00601+00101999999ADDGA1041+007011999GE19AGL   +99999+99999GF199999041999007011999999MA1102401999999REMMET058METAR ZSSS 091930Z 35006MPS 6000 SCT023 06/01 Q1024 NOSIG=
0149583670999992024010920004+31198+121336FM-15+000399999V0203401N006019999999N006000199+00601+00101999999ADDGA1041+007011999GE19AGL   +99999+99999GF199999041999007011999999MA1102401999999REMMET058METAR ZSSS 092000Z 34006MPS 6000 SCT023 06/01 Q1024 NOSIG=
0149583670999992024010920304+31198+121336FM-15+000399999V0203401N005019999999N006000199+00601+00101999999ADDGA1041+007011999GE19AGL   +99999+99999GF199999041999007011999999MA1102401999999REMMET058METAR ZSSS 092030Z 34005MPS 6000 SCT023 06/01 Q1024 NOSIG=
0149583670999992024010921004+31198+121336FM-15+000399999V0203301N005019999999N006000199+00501+00101999999ADDGA1041+007011999GE19AGL   +99999+99999GF199999041999007011999999MA1102401999999REMMET058METAR ZSSS 092100Z 33005MPS 6000 SCT023 05/01 Q1024 NOSIG=
0149583670999992024010921304+31198+121336FM-15+000399999V0203301N005019999999N006000199+00501+00101999999ADDGA1041+007011999GE19AGL   +99999+99999GF199999041999007011999999MA1102501999999REMMET058METAR ZSSS 092130Z 33005MPS 6000 SCT023 05/01 Q1025 NOSIG=
0157583670999992024010922004+31198+121336FM-15+000399999V0203201V003019999999N006000199+00401+00101999999ADDGA1041+007011999GE19AGL   +99999+99999GF199999041999007011999999MA1102501999999REMMET066METAR ZSSS 092200Z 32003MPS 280V340 6000 SCT023 04/01 Q1025 NOSIG=
0149583670999992024010922304+31198+121336FM-15+000399999V0203201N004019999999N006000199+00401+00001999999ADDGA1041+007011999GE19AGL   +99999+99999GF199999041999007011999999MA1102501999999REMMET058METAR ZSSS 092230Z 32004MPS 6000 SCT023 04/00 Q1025 NOSIG=
0166583670999992024010923004+31198+121336FM-15+000399999V0203201V00401009141CN004000199+00401+00001999999ADDGA1071+009141999GE19AGL   +99999+99999GF199999071999009141999999MA1102601999999MW1101REMMET069METAR ZSSS 092300Z 32004MPS 290V350 4000 BR BKN030 04/00 Q1026 NOSIG=
0159583670999992024010923304+31198+121336FM-15+000399999V0203301N00501009141CN004000199+00401+00001999999ADDGA1071+009141999GE19AGL   +99999+99999GF199999071999009141999999MA1102601999999MW1101REMMET062METAR ZSSS 092330Z 33005MPS 4000 BR BKN030 04/M00 Q1026 NOSIG=
0166583670999992024011000004+31198+121336FM-15+000399999V0203201V00501009141CN004000199+00401+00001999999ADDGA1071+009141999GE19AGL   +99999+99999GF199999071999009141999999MA1102601999999MW1101REMMET069METAR ZSSS 100000Z 32005MPS 280V350 4000 BR BKN030 04/00 Q1026 NOSIG=
0166583670999992024011000304+31198+121336FM-15+000399999V0203201V005019999999N004000199+00401+00001999999ADDGA1041+009141999GE19AGL   +99999+99999GF199999041999009141999999MA1102601999999MW1101REMMET069METAR ZSSS 100030Z 32005MPS 290V350 4000 BR SCT030 04/00 Q1026 NOSIG=
0158583670999992024011001004+31198+121336FM-15+000399999V0203301N00601004881CN004000199+00501+00001999999ADDGA1071+004881999GE19AGL   +99999+99999GF199999071999004881999999MA1102701999999MW1101REMMET061METAR ZSSS 100100Z 33006MPS 4000 BR BKN016 05/00 Q1027 NOSIG=
0167583670999992024011001304+31198+121336FM-15+000399999V0203201V00501004881CN004000199+00401+00001999999ADDGA1071+004881999GE19AGL   +99999+99999GF199999071999004881999999MA1102701999999MW1101REMMET070METAR ZSSS 100130Z 32005MPS 290V350 4000 BR BKN016 04/M00 Q1027 NOSIG=
0166583670999992024011002004+31198+121336FM-15+000399999V0203201V00501004881CN004000199+00501+00001999999ADDGA1071+004881999GE19AGL   +99999+99999GF199999071999004881999999MA1102801999999MW1101REMMET069METAR ZSSS 100200Z 32005MPS 290V360 4000 BR BKN016 05/00 Q1028 NOSIG=
0167583670999992024011002304+31198+121336FM-15+000399999V0203101V00501004881CN004000199+00601+00001999999ADDGA1071+004881999GE19AGL   +99999+99999GF199999071999004881999999MA1102701999999MW1051REMMET070METAR ZSSS 100230Z 31005MPS 280V350 4000 HZ BKN016 06/M00 Q1027 NOSIG=
0167583670999992024011003004+31198+121336FM-15+000399999V0203301V00601006101CN004000199+00601+00001999999ADDGA1071+006101999GE19AGL   +99999+99999GF199999071999006101999999MA1102701999999MW1051REMMET070METAR ZSSS 100300Z 33006MPS 300V360 4000 HZ BKN020 06/M00 Q1027 NOSIG=
0167583670999992024011003304+31198+121336FM-15+000399999V0203101V00601006101CN004000199+00601+00001999999ADDGA1071+006101999GE19AGL   +99999+99999GF199999071999006101999999MA1102701999999MW1051REMMET070METAR ZSSS 100330Z 31006MPS 280V340 4000 HZ BKN020 06/M00 Q1027 NOSIG=
0167583670999992024011004004+31198+121336FM-15+000399999V0203101V00601007011CN004000199+00701+00001999999ADDGA1071+007011999GE19AGL   +99999+99999GF199999071999007011999999MA1102601999999MW1051REMMET070METAR ZSSS 100400Z 31006MPS 280V340 4000 HZ BKN023 07/M00 Q1026 NOSIG=
0149583670999992024011004304+31198+121336FM-15+000399999V0203301N00701007011CN006000199+00801+00001999999ADDGA1071+007011999GE19AGL   +99999+99999GF199999071999007011999999MA1102601999999REMMET058METAR ZSSS 100430Z 33007MPS 6000 BKN023 08/00 Q1026 NOSIG=
0158583670999992024011005004+31198+121336FM-15+000399999V0203201V00701009141CN006000199+00801-00101999999ADDGA1071+009141999GE19AGL   +99999+99999GF199999071999009141999999MA1102601999999REMMET067METAR ZSSS 100500Z 32007MPS 290V350 6000 BKN030 08/M01 Q1026 NOSIG=
0150583670999992024011005304+31198+121336FM-15+000399999V0203301N00601009141CN007000199+00801-00201999999ADDGA1071+009141999GE19AGL   +99999+99999GF199999071999009141999999MA1102601999999REMMET059METAR ZSSS 100530Z 33006MPS 7000 BKN030 08/M02 Q1026 NOSIG=
0158583670999992024011006004+31198+121336FM-15+000399999V0203201V00601012191CN008000199+00801-00201999999ADDGA1071+012191999GE19AGL   +99999+99999GF199999071999012191999999MA1102601999999REMMET067METAR ZSSS 100600Z 32006MPS 290V350 8000 BKN040 08/M02 Q1026 NOSIG=
0150583670999992024011006304+31198+121336FM-15+000399999V0203301N00601012191CN007000199+00701-00201999999ADDGA1071+012191999GE19AGL   +99999+99999GF199999071999012191999999MA1102601999999REMMET059METAR ZSSS 100630Z 33006MPS 7000 BKN040 07/M02 Q1026 NOSIG=
0158583670999992024011007004+31198+121336FM-15+000399999V0203401V00601012191CN008000199+00701-00301999999ADDGA1071+012191999GE19AGL   +99999+99999GF199999071999012191999999MA1102601999999REMMET067METAR ZSSS 100700Z 34006MPS 300V360 8000 BKN040 07/M03 Q1026 NOSIG=
0169583670999992024011007304+31198+121336FM-15+000399999V0203201V006019999999N008000199+00701-00301999999ADDGA1041+012191999GE19AGL   +99999+99999GF199999041999012191999999MA1102601999999OC101101REMMET070METAR ZSSS 100730Z 32006G11MPS 290V350 8000 SCT040 07/M03 Q1026 NOSIG=
0158583670999992024011008004+31198+121336FM-15+000399999V0203401V006019999999N008000199+00701-00301999999ADDGA1041+012191999GE19AGL   +99999+99999GF199999041999012191999999MA1102601999999REMMET067METAR ZSSS 100800Z 34006MPS 300V360 8000 SCT040 07/M03 Q1026 NOSIG=
0158583670999992024011008304+31198+121336FM-15+000399999V0203401V006019999999N008000199+00701-00301999999ADDGA1041+012191999GE19AGL   +99999+99999GF199999041999012191999999MA1102601999999REMMET067METAR ZSSS 100830Z 34006MPS 310V010 8000 SCT040 07/M03 Q1026 NOSIG=
0150583670999992024011009004+31198+121336FM-15+000399999V0203301N006019999999N008000199+00601-00301999999ADDGA1041+012191999GE19AGL   +99999+99999GF199999041999012191999999MA1102601999999REMMET059METAR ZSSS 100900Z 33006MPS 8000 SCT040 06/M03 Q1026 NOSIG=
0150583670999992024011009304+31198+121336FM-15+000399999V0203601N005019999999N008000199+00501-00201999999ADDGA1041+012191999GE19AGL   +99999+99999GF199999041999012191999999MA1102701999999REMMET059METAR ZSSS 100930Z 36005MPS 8000 SCT040 05/M02 Q1027 NOSIG=
0080583670999992024011010004+31198+121336FM-15+000399999V0203601N005019999999Y009900599+00501-00301999999ADDMA1102701999999REMMET053METAR ZSSS 101000Z 36005MPS CAVOK 05/M03 Q1027 NOSIG=
0080583670999992024011010304+31198+121336FM-15+000399999V0203601N005019999999Y009900599+00501-00301999999ADDMA1102701999999REMMET053METAR ZSSS 101030Z 36005MPS CAVOK 05/M03 Q1027 NOSIG=
0080583670999992024011011004+31198+121336FM-15+000399999V0203601N004019999999Y009900599+00401-00301999999ADDMA1102701999999REMMET053METAR ZSSS 101100Z 36004MPS CAVOK 04/M03 Q1027 NOSIG=
0088583670999992024011011304+31198+121336FM-15+000399999V0203601V003019999999Y009900599+00401-00301999999ADDMA1102701999999REMMET061METAR ZSSS 101130Z 36003MPS 310V020 CAVOK 04/M03 Q1027 NOSIG=
0080583670999992024011012004+31198+121336FM-15+000399999V0203601N003019999999Y009900599+00401-00301999999ADDMA1102701999999REMMET053METAR ZSSS 101200Z 36003MPS CAVOK 04/M03 Q1027 NOSIG=
0080583670999992024011012304+31198+121336FM-15+000399999V0203501N003019999999Y009900599+00401-00301999999ADDMA1102701999999REMMET053METAR ZSSS 101230Z 35003MPS CAVOK 04/M03 Q1027 NOSIG=
0080583670999992024011013004+31198+121336FM-15+000399999V0203501N003019999999Y009900599+00301-00301999999ADDMA1102701999999REMMET053METAR ZSSS 101300Z 35003MPS CAVOK 03/M03 Q1027 NOSIG=
