0180643870999992024010100004-01969+030139FM-15+148199999V0209999C000010054919N000600199+01701+01701999999ADDGA1021+002441999GA2071+005491999GE19AGL   +99999+99999GF199999021999002441999999MA1102101999999MW1441REMMET067METAR HRYR 010000Z 00000KT 0600 FG FEW008 BKN018 17/17 Q1021 NOSIG=
0180643870999992024010100304-01969+030139FM-15+148199999V0209999V001010304819N004000199+01701+01701999999ADDGA1041+004881999GA2071+030481999GE19AGL   +99999+99999GF199999041999004881999999MA1102101999999MW1101REMMET067METAR HRYR 010030Z VRB02KT 4000 BR SCT016 BKN100 17/17 Q1021 NOSIG=
0180643870999992024010101004-01969+030139FM-15+148199999V0209999C000010061019N003000199+01701+01701999999ADDGA1041+004881999GA2071+006101999GE19AGL   +99999+99999GF199999041999004881999999MA1102101999999MW1101REMMET067METAR HRYR 010100Z 00000KT 3000 BR SCT016 BKN020 17/17 Q1021 NOSIG=
0180643870999992024010101304-01969+030139FM-15+148199999V0209999C000010061019N005000199+01701+01701999999ADDGA1041+004881999GA2071+006101999GE19AGL   +99999+99999GF199999041999004881999999MA1102101999999MW1101REMMET067METAR HRYR 010130Z 00000KT 5000 BR SCT016 BKN020 17/17 Q1021 NOSIG=
0180643870999992024010102004-01969+030139FM-15+148199999V0209999C000010304819N005000199+01701+01701999999ADDGA1041+004881999GA2071+030481999GE19AGL   +99999+99999GF199999041999004881999999MA1102101999999MW1101REMMET067METAR HRYR 010200Z 00000KT 5000 BR SCT016 BKN100 17/17 Q1021 NOSIG=
0180643870999992024010102304-01969+030139FM-15+148199999V0203601N002110304819N004000199+01701+01701999999ADDGA1041+004881999GA2071+030481999GE19AGL   +99999+99999GF199999041999004881999999MA1102201999999MW1101REMMET067METAR HRYR 010230Z 36004KT 4000 BR SCT016 BKN100 17/17 Q1022 NOSIG=
0180643870999992024010103004-01969+030139FM-15+148199999V0203101N001510304819N004000199+01701+01701999999ADDGA1041+004881999GA2071+030481999GE19AGL   +99999+99999GF199999041999004881999999MA1102201999999MW1101REMMET067METAR HRYR 010300Z 31003KT 4000 BR SCT016 BKN100 17/17 Q1022 NOSIG=
0171643870999992024010103304-01969+030139FM-15+148199999V0202601N00151030481CN008000199+01601+01601999999ADDGA1041+004881999GA2041+030481999GE19AGL   +99999+99999GF199999041999004881999999MA1102201999999REMMET064METAR HRYR 010330Z 26003KT 8000 SCT016 SCT100 16/16 Q1022 NOSIG=
0171643870999992024010104004-01969+030139FM-15+148199999V0209999V00101030481CN007000199+01601+01601999999ADDGA1041+004881999GA2041+030481999GE19AGL   +99999+99999GF199999041999004881999999MA1102201999999REMMET064METAR HRYR 010400Z VRB02KT 7000 SCT016 SCT100 16/16 Q1022 NOSIG=
0171643870999992024010104304-01969+030139FM-15+148199999V0209999C000010304819N006000199+01701+01601999999ADDGA1041+004881999GA2071+030481999GE19AGL   +99999+99999GF199999041999004881999999MA1102301999999REMMET064METAR HRYR 010430Z 00000KT 6000 SCT016 BKN100 17/16 Q1023 NOSIG=
0171643870999992024010105004-01969+030139FM-15+148199999V0209999V00101030481CN009000199+01701+01601999999ADDGA1041+006101999GA2041+030481999GE19AGL   +99999+99999GF199999041999006101999999MA1102301999999REMMET064METAR HRYR 010500Z VRB02KT 9000 SCT020 SCT100 17/16 Q1023 NOSIG=
0157643870999992024010105304-01969+030139FM-15+148199999V0209999V001019999999N005000199+01701+01701999999ADDGA1021+002441999GE19AGL   +99999+99999GF199999021999002441999999MA1102301999999MW1101REMMET060METAR HRYR 010530Z VRB02KT 5000 BR FEW008 17/17 Q1023 NOSIG=
0247643870999992024010106004-01967+030117FM-12+149199999V0203401N001019999999N006000199+01811+01701999999ADDAA124000231GA1021+002401071GA2999+999999031GE19AGL   +99999+99999GF105991021999002401999999KA1240M+02091KA2240N+01621MA1999999085511ME1315459REMSYN09464387 12556 53402 10181 20170 38551 48545 69924 83730 333 01218 10209 20162 50114 58005 82708=
0153643870999992024010106004-01969+030139FM-15+148199999V0203401N001519999999N006000199+01801+01601999999ADDGA1021+002441999GE19AGL   +99999+99999GF199999021999002441999999MA1102301999999REMMET062METAR HRYR 010600Z 34003KT 6000 FEW008 18/16 Q1023 BECMG 8000=
0148643870999992024010106304-01969+030139FM-15+148199999V0202501N001519999999N008000199+02001+01701999999ADDGA1021+003051999GE19AGL   +99999+99999GF199999021999003051999999MA1102301999999REMMET057METAR HRYR 010630Z 25003KT 8000 FEW010 20/17 Q1023 NOSIG=
0148643870999992024010107004-01969+030139FM-15+148199999V0201401N002119999999N007000199+02001+01801999999ADDGA1041+007011999GE19AGL   +99999+99999GF199999041999007011999999MA1102401999999REMMET057METAR HRYR 010700Z 14004KT 7000 SCT023 20/18 Q1024 NOSIG=
0171643870999992024010107304-01969+030139FM-15+148199999V0201501N00261007011CN006000199+02001+01801999999ADDGA1021+003051999GA2041+007011999GE19AGL   +99999+99999GF199999021999003051999999MA1102301999999REMMET064METAR HRYR 010730Z 15005KT 6000 FEW010 SCT023 20/18 Q1023 NOSIG=
0148643870999992024010108004-01969+030139FM-15+148199999V0201501N001519999999N008000199+02201+01801999999ADDGA1021+007011999GE19AGL   +99999+99999GF199999021999007011999999MA1102401999999REMMET057METAR HRYR 010800Z 15003KT 8000 FEW023 22/18 Q1024 NOSIG=
0148643870999992024010108304-01969+030139FM-15+148199999V0201701N001519999999N008000199+02301+01801999999ADDGA1021+007321999GE19AGL   +99999+99999GF199999021999007321999999MA1102301999999REMMET057METAR HRYR 010830Z 17003KT 8000 FEW024 23/18 Q1023 NOSIG=
0156643870999992024010109004-01969+030139FM-15+148199999V0201701V003119999999N008000199+02301+01801999999ADDGA1021+007321999GE19AGL   +99999+99999GF199999021999007321999999MA1102301999999REMMET065METAR HRYR 010900Z 17006KT 120V210 8000 FEW024 23/18 Q1023 NOSIG=
0156643870999992024010109304-01969+030139FM-15+148199999V0201701V003119999999N008000199+02401+01801999999ADDGA1021+007321999GE19AGL   +99999+99999GF199999021999007321999999MA1102201999999REMMET065METAR HRYR 010930Z 17006KT 140V210 8000 FEW024 24/18 Q1022 NOSIG=
0179643870999992024010110004-01969+030139FM-15+148199999V0201501V00361030481CN008000199+02401+01801999999ADDGA1021+007621999GA2041+030481999GE19AGL   +99999+99999GF199999021999007621999999MA1102201999999REMMET072METAR HRYR 011000Z 15007KT 110V180 8000 FEW025 SCT100 24/18 Q1022 NOSIG=
0155643870999992024010110304-01969+030139FM-15+148199999V0201501V002619999999N009999199+02501+01801999999ADDGA1041+999999999GE19AGL   +99999+99999GF199999041999999999999999MA1102101999999REMMET064METAR HRYR 011030Z 15005KT 080V210 9999 SCT25 25/18 Q1021 NOSIG=
0156643870999992024010111004-01969+030139FM-15+148199999V0201601V003119999999N009999199+02601+01801999999ADDGA1041+007621999GE19AGL   +99999+99999GF199999041999007621999999MA1102001999999REMMET065METAR HRYR 011100Z 16006KT 110V220 9999 SCT025 26/18 Q1020 NOSIG=
0181643870999992024010111304-01969+030139FM-15+148199999V0201401V00261007621CN008000199+02601+01801999999ADDGA1021+007011091GA2041+007621999GE19AGL   +99999+99999GF199999021999007011999999MA1102001999999REMMET074METAR HRYR 011130Z 14005KT 080V200 8000 FEW023CB SCT025 26/18 Q1020 NOSIG=
0184643870999992024010112004-01969+030139FM-15+148199999V0200801V00311007011CN009999199+02501+01701999999ADDGA1021+006101091GA2041+007011999GE19AGL   +99999+99999GF199999021999006101999999MA1101901999999REMMET077METAR HRYR 011200Z 08006KT 050V120 9999 FEW020CB SCT023 25/17 Q1019 TEMPO TS=
0181643870999992024010112304-01969+030139FM-15+148199999V0201501V00211007011CN009999199+02301+01701999999ADDGA1021+006101091GA2041+007011999GE19AGL   +99999+99999GF199999021999006101999999MA1101901999999REMMET074METAR HRYR 011230Z 15004KT 120V180 9999 FEW020CB SCT023 23/17 Q1019 NOSIG=
0182643870999992024010113004-01969+030139FM-15+148199999V0201401N003110070119N009999199+02401+01701999999ADDGA1021+006101091GA2071+007011999GE19AGL   +99999+99999GF199999021999006101999999MA1101801999999MW1171REMMET069METAR HRYR 011300Z 14006KT 9999 TS FEW020CB BKN023 24/17 Q1018 NOSIG=
0190643870999992024010113304-01969+030139FM-15+148199999V0201801V00261007321CN009999199+02401+01801999999ADDGA1021+006711091GA2041+007321999GE19AGL   +99999+99999GF199999021999006711999999MA1101801999999MW1171REMMET077METAR HRYR 011330Z 18005KT 160V220 9999 TS FEW022CB SCT024 24/18 Q1018 NOSIG=
0173643870999992024010114004-01969+030139FM-15+148199999V0202101N00261007321CN009999199+02401+01701999999ADDGA1021+006711091GA2041+007321999GE19AGL   +99999+99999GF199999021999006711999999MA1101801999999REMMET066METAR HRYR 011400Z 21005KT 9999 FEW022CB SCT024 24/17 Q1018 NOSIG=
0173643870999992024010114304-01969+030139FM-15+148199999V0202101N00311007321CN009999199+02501+01701999999ADDGA1021+006711091GA2041+007321999GE19AGL   +99999+99999GF199999021999006711999999MA1101801999999REMMET066METAR HRYR 011430Z 21006KT 9999 FEW022CB SCT024 25/17 Q1018 NOSIG=
0173643870999992024010115004-01969+030139FM-15+148199999V0202801N00311007621CN009999199+02501+01701999999ADDGA1021+007011091GA2041+007621999GE19AGL   +99999+99999GF199999021999007011999999MA1101801999999REMMET066METAR HRYR 011500Z 28006KT 9999 FEW023CB SCT025 25/17 Q1018 NOSIG=
0190643870999992024010115304-01969+030139FM-15+148199999V0202501V00211007621CN009999199+02401+01701999999ADDGA1021+007011091GA2041+007621999GE19AGL   +99999+99999GF199999021999007011999999MA1101801999999MW1171REMMET077METAR HRYR 011530Z 25004KT 200V280 9999 TS FEW023CB SCT025 24/17 Q1018 NOSIG=
0173643870999992024010116004-01969+030139FM-15+148199999V0209999V001010076219N009999199+02401+01701999999ADDGA1021+007011091GA2071+007621999GE19AGL   +99999+99999GF199999021999007011999999MA1101901999999REMMET066METAR HRYR 011600Z VRB02KT 9999 FEW023CB BKN025 24/17 Q1019 NOSIG=
0173643870999992024010116304-01969+030139FM-15+148199999V0200901N003610076219N009999199+02201+01801999999ADDGA1021+007011091GA2071+007621999GE19AGL   +99999+99999GF199999021999007011999999MA1101901999999REMMET066METAR HRYR 011630Z 09007KT 9999 FEW023CB BKN025 22/18 Q1019 NOSIG=
0184643870999992024010117004-01969+030139FM-15+148199999V0200401N005710076219N009999199+02001+01801999999ADDGA1021+007011091GA2071+007621999GE19AGL   +99999+99999GF199999021999007011999999MA1102001999999MW1951REMMET071METAR HRYR 011700Z 04011KT 9999 TSRA FEW023CB BKN025 20/18 Q1020 NOSIG=
0184643870999992024010117304-01969+030139FM-15+148199999V0203301N005710076219N009999199+01801+01801999999ADDGA1021+007011091GA2071+007621999GE19AGL   +99999+99999GF199999021999007011999999MA1102101999999MW1951REMMET071METAR HRYR 011730Z 33011KT 9999 TSRA FEW023CB BKN025 18/18 Q1021 NOSIG=
0277643870999992024010118004-01967+030117FM-12+149199999V0202901N003619999999N010000199+01821+01781999999ADDAA112004031AY191021AY291021GA1061+008001091GA2999+999999031GE19AGL   +99999+99999GF107991061999008001999999KA1120M+02621MA1999999085381MD1999999+0051ME1315329MW1951REMSYN10164387 11560 72907 10182 20178 38538 48532 60042 79599 8693/ 333 0//61 10262 58005 8 1923 85825 94963=
0185643870999992024010118004-01969+030139FM-15+148199999V0202901N003610076219N009999199+01901+01801999999ADDGA1021+007011091GA2071+007621999GE19AGL   +99999+99999GF199999021999007011999999MA1102101999999MW1951REMMET072METAR HRYR 011800Z 29007KT 9999 -TSRA FEW023CB BKN025 19/18 Q1021 NOSIG=
0180643870999992024010118304-01969+030139FM-15+148199999V0203201N003110076219N009999199+01901+01801999999ADDGA1021+007011091GA2071+007621999GE19AGL   +99999+99999GF199999021999007011999999MA1102201999999REMMET073METAR HRYR 011830Z 32006KT 9999 FEW023CB BKN025 19/18 Q1022 RETSRA NOSIG=
0181643870999992024010119004-01969+030139FM-15+148199999V0203201V004610076219N009999199+01901+01701999999ADDGA1021+007011091GA2071+007621999GE19AGL   +99999+99999GF199999021999007011999999MA1102101999999REMMET074METAR HRYR 011900Z 32009KT 260V330 9999 FEW023CB BKN025 19/17 Q1021 NOSIG=
0173643870999992024010119304-01969+030139FM-15+148199999V0203401N00261007621CN009999199+01901+01701999999ADDGA1021+007011091GA2041+007621999GE19AGL   +99999+99999GF199999021999007011999999MA1102101999999REMMET066METAR HRYR 011930Z 34005KT 9999 FEW023CB SCT025 19/17 Q1021 NOSIG=
0179643870999992024010120004-01969+030139FM-15+148199999V0202401V00211030481CN009999199+01901+01701999999ADDGA1021+007621999GA2041+030481999GE19AGL   +99999+99999GF199999021999007621999999MA1102201999999REMMET072METAR HRYR 012000Z 24004KT 200V270 9999 FEW025 SCT100 19/17 Q1022 NOSIG=
0171643870999992024010120304-01969+030139FM-15+148199999V0202801N00261030481CN009999199+01901+01701999999ADDGA1021+007621999GA2041+030481999GE19AGL   +99999+99999GF199999021999007621999999MA1102201999999REMMET064METAR HRYR 012030Z 28005KT 9999 FEW025 SCT100 19/17 Q1022 NOSIG=
0171643870999992024010121004-01969+030139FM-15+148199999V0209999C00001030481CN009999199+01901+01801999999ADDGA1021+007621999GA2041+030481999GE19AGL   +99999+99999GF199999021999007621999999MA1102201999999REMMET064METAR HRYR 012100Z 00000KT 9999 FEW025 SCT100 19/18 Q1022 NOSIG=
0171643870999992024010121304-01969+030139FM-15+148199999V0209999C00001030481CN009999199+01901+01801999999ADDGA1021+007621999GA2041+030481999GE19AGL   +99999+99999GF199999021999007621999999MA1102201999999REMMET064METAR HRYR 012130Z 00000KT 9999 FEW025 SCT100 19/18 Q1022 NOSIG=
0171643870999992024010122004-01969+030139FM-15+148199999V0209999C00001030481CN009999199+01901+01801999999ADDGA1021+007621999GA2041+030481999GE19AGL   +99999+99999GF199999021999007621999999MA1102201999999REMMET064METAR HRYR 012200Z 00000KT 9999 FEW025 SCT100 19/18 Q1022 NOSIG=
0171643870999992024010122304-01969+030139FM-15+148199999V0209999V001010304819N009999199+01801+01801999999ADDGA1041+007621999GA2071+030481999GE19AGL   +99999+99999GF199999041999007621999999MA1102201999999REMMET064METAR HRYR 012230Z VRB02KT 9999 SCT025 BKN100 18/18 Q1022 NOSIG=
0171643870999992024010123004-01969+030139FM-15+148199999V0209999C00001030481CN008000199+01801+01801999999ADDGA1021+007621999GA2041+030481999GE19AGL   +99999+99999GF199999021999007621999999MA1102101999999REMMET064METAR HRYR 012300Z 00000KT 8000 FEW025 SCT100 18/18 Q1021 NOSIG=
0171643870999992024010123304-01969+030139FM-15+148199999V0200101N00211030481CN008000199+01801+01801999999ADDGA1021+007621999GA2041+030481999GE19AGL   +99999+99999GF199999021999007621999999MA1102101999999REMMET064METAR HRYR 012330Z 01004KT 8000 FEW025 SCT100 18/18 Q1021 NOSIG=
0179643870999992024010200004-01969+030139FM-15+148199999V0203501V00151030481CN009999199+01801+01801999999ADDGA1021+007621999GA2041+030481999GE19AGL   +99999+99999GF199999021999007621999999MA1102001999999REMMET072METAR HRYR 020000Z 35003KT 310V030 9999 FEW025 SCT100 18/18 Q1020 NOSIG=
0171643870999992024010200304-01969+030139FM-15+148199999V0209999C00001030481CN009999199+01801+01801999999ADDGA1021+007621999GA2041+030481999GE19AGL   +99999+99999GF199999021999007621999999MA1102001999999REMMET064METAR HRYR 020030Z 00000KT 9999 FEW025 SCT100 18/18 Q1020 NOSIG=
0171643870999992024010201004-01969+030139FM-15+148199999V0203201N00151030481CN009999199+01801+01801999999ADDGA1041+007011999GA2041+030481999GE19AGL   +99999+99999GF199999041999007011999999MA1102101999999REMMET064METAR HRYR 020100Z 32003KT 9999 SCT023 SCT100 18/18 Q1021 NOSIG=
0171643870999992024010201304-01969+030139FM-15+148199999V0209999V00101030481CN009999199+01801+01801999999ADDGA1041+007011999GA2041+030481999GE19AGL   +99999+99999GF199999041999007011999999MA1102101999999REMMET064METAR HRYR 020130Z VRB02KT 9999 SCT023 SCT100 18/18 Q1021 NOSIG=
0171643870999992024010202004-01969+030139FM-15+148199999V0203301N00101030481CN006000199+01801+01801999999ADDGA1041+007011999GA2041+030481999GE19AGL   +99999+99999GF199999041999007011999999MA1102001999999REMMET064METAR HRYR 020200Z 33002KT 6000 SCT023 SCT100 18/18 Q1020 NOSIG=
0180643870999992024010202304-01969+030139FM-15+148199999V0203501N00261030481CN005000199+01701+01701999999ADDGA1041+007011999GA2041+030481999GE19AGL   +99999+99999GF199999041999007011999999MA1102101999999MW1101REMMET067METAR HRYR 020230Z 35005KT 5000 BR SCT023 SCT100 17/17 Q1021 NOSIG=
0171643870999992024010203004-01969+030139FM-15+148199999V0203401N00211030481CN006000199+01701+01701999999ADDGA1041+007011999GA2041+030481999GE19AGL   +99999+99999GF199999041999007011999999MA1102101999999REMMET064METAR HRYR 020300Z 34004KT 6000 SCT023 SCT100 17/17 Q1021 NOSIG=
0180643870999992024010203304-01969+030139FM-15+148199999V0203601N00261030481CN005000199+01701+01701999999ADDGA1041+006101999GA2041+030481999GE19AGL   +99999+99999GF199999041999006101999999MA1102101999999MW1101REMMET067METAR HRYR 020330Z 36005KT 5000 BR SCT020 SCT100 17/17 Q1021 NOSIG=
0180643870999992024010204004-01969+030139FM-15+148199999V0203501N002610304819N005000199+01701+01701999999ADDGA1041+006101999GA2071+030481999GE19AGL   +99999+99999GF199999041999006101999999MA1102101999999MW1101REMMET067METAR HRYR 020400Z 35005KT 5000 BR SCT020 BKN100 17/17 Q1021 NOSIG=
0211643870999992024010204304-01969+030139FM-15+148199999V0202201V00151006101CN004000199+01701+01701999999ADDGA1021+003051999GA2041+006101999GA3071+030481999GE19AGL   +99999+99999GF199999021999003051999999MA1102201999999MW1101REMMET082METAR HRYR 020430Z 22003KT 180V250 4000 BR FEW010 SCT020 BKN100 17/17 Q1022 NOSIG=
0180643870999992024010205004-01969+030139FM-15+148199999V0202801N00211006101CN005000199+01801+01801999999ADDGA1021+003051999GA2041+006101999GE19AGL   +99999+99999GF199999021999003051999999MA1102201999999MW1101REMMET067METAR HRYR 020500Z 28004KT 5000 BR FEW010 SCT020 18/18 Q1022 NOSIG=
0171643870999992024010205304-01969+030139FM-15+148199999V0202201N00151030481CN007000199+01901+01801999999ADDGA1041+007011999GA2041+030481999GE19AGL   +99999+99999GF199999041999007011999999MA1102301999999REMMET064METAR HRYR 020530Z 22003KT 7000 SCT023 SCT100 19/18 Q1023 NOSIG=
0171643870999992024010206304-01969+030139FM-15+148199999V0203101N00151030481CN008000199+02101+01801999999ADDGA1041+007011999GA2041+030481999GE19AGL   +99999+99999GF199999041999007011999999MA1102301999999REMMET064METAR HRYR 020630Z 31003KT 8000 SCT023 SCT100 21/18 Q1023 NOSIG=
0125643870999992024010207004-01969+030139FM-15+148199999V0209999N999999999999N999999999+02105+01805999999ADDMA1102305999999REMMET063METAR HRYR 020700Z 24003T 8000 FEW023 BKN300 21/18 Q1023 NOSIG=EQDD01      0ADE693D02      0ADE539
0171643870999992024010207304-01969+030139FM-15+148199999V0201601N002110914419N008000199+02201+01801999999ADDGA1021+007011999GA2071+091441999GE19AGL   +99999+99999GF199999021999007011999999MA1102301999999REMMET064METAR HRYR 020730Z 16004KT 8000 FEW023 BKN300 22/18 Q1023 NOSIG=
0171643870999992024010208004-01969+030139FM-15+148199999V0201301N001510914419N009000199+02301+02001999999ADDGA1041+007011999GA2071+091441999GE19AGL   +99999+99999GF199999041999007011999999MA1102201999999REMMET064METAR HRYR 020800Z 13003KT 9000 SCT023 BKN300 23/20 Q1022 NOSIG=
0179643870999992024010208304-01969+030139FM-15+148199999V0200601V001510914419N009000199+02301+01801999999ADDGA1041+007011999GA2071+091441999GE19AGL   +99999+99999GF199999041999007011999999MA1102201999999REMMET072METAR HRYR 020830Z 06003KT 010V140 9000 SCT023 BKN300 23/18 Q1022 NOSIG=
0148643870999992024010209004-01969+030139FM-15+148199999V0201801N002119999999N009999199+02401+01801999999ADDGA1041+007011999GE19AGL   +99999+99999GF199999041999007011999999MA1102101999999REMMET057METAR HRYR 020900Z 18004KT 9999 SCT023 24/18 Q1021 NOSIG=
0148643870999992024010209304-01969+030139FM-15+148199999V0209999V001519999999N009999199+02501+01901999999ADDGA1041+007011999GE19AGL   +99999+99999GF199999041999007011999999MA1102101999999REMMET057METAR HRYR 020930Z VRB03KT 9999 SCT023 25/19 Q1021 NOSIG=
0176643870999992024010210004-01969+030139FM-15+148199999V0201801N002110076219N009999199+02601+01901999999ADDGA1021+007011091GA2071+007621999GE19AGL   +99999+99999GF199999021999007011999999MA1102101999999REMMET069METAR HRYR 021000Z 18004KT 9999 FEW023CB BKN025 26/19 Q1021 TEMPO TS=
0173643870999992024010210304-01969+030139FM-15+148199999V0209999V001510076219N009999199+02401+01801999999ADDGA1021+007011091GA2071+007621999GE19AGL   +99999+99999GF199999021999007011999999MA1102101999999REMMET066METAR HRYR 021030Z VRB03KT 9999 FEW023CB BKN025 24/18 Q1021 NOSIG=
0181643870999992024010212004-01969+030139FM-15+148199999V0201501V00311007621CN009999199+02601+01701999999ADDGA1021+007011091GA2041+007621999GE19AGL   +99999+99999GF199999021999007011999999MA1101801999999REMMET074METAR HRYR 021200Z 15006KT 110V210 9999 FEW023CB SCT025 26/17 Q1018 NOSIG=
0145643870999992024010212304-01969+030139FM-15+148199999V0209999N999999999999N999999999+02105+01905999999ADDMA1101805999999MW1635MW2955REMMET087METAR HRYR 021230Z 05012TKT 030V090 TSRA 9999 FEW020CB BKN022 BKN090 21/19 Q1018 NOSIG=EQDD01      0ADE735
0160643870999992024010213004-01969+030139FM-15+148199999V0202501V003619999999N009999199+02005+01805999999ADDMA1101905999999MW1951REMMET092METAR HRYR 021300Z 25007KT 180V270 9999 -TSRA 9999 FEW020CB BKN022 BKN090 20/18 Q1019 NOSIG=EQDD01      0ADE693D02      0ADE539
0152643870999992024010213304-01969+030139FM-15+148199999V0203301N004619999999N009999199+02105+01805999999ADDMA1101805999999MW1951REMMET084METAR HRYR 021330Z 33009KT 9999 -TSRA 9999 FEW020CB BKN022 BKN090 21/18 Q1018 NOSIG=EQDD01      0ADE693D02      0ADE539
0204643870999992024010214004-01969+030139FM-15+148199999V0203001V003610076219N999999999+02101+01801999999ADDGA1021+007011091GA2071+007621999GA3071+030481999GE19AGL   +99999+99999GF199999021999007011999999MA1101801999999REMMET081METAR HRYR 021400Z 30007KT 260V320 FEW023CB BKN025 BKN100 21/18 Q1018 RERA NOSIG=
0171643870999992024010214304-01969+030139FM-15+148199999V0203301N003110304819N009999199+02201+01801999999ADDGA1041+007621999GA2071+030481999GE19AGL   +99999+99999GF199999041999007621999999MA1101701999999REMMET064METAR HRYR 021430Z 33006KT 9999 SCT025 BKN100 22/18 Q1017 NOSIG=
0171643870999992024010215004-01969+030139FM-15+148199999V0209999V001510304819N009999199+02201+01801999999ADDGA1041+007621999GA2071+030481999GE19AGL   +99999+99999GF199999041999007621999999MA1101801999999REMMET064METAR HRYR 021500Z VRB03KT 9999 SCT025 BKN100 22/18 Q1018 NOSIG=
0171643870999992024010215304-01969+030139FM-15+148199999V0209999V001510304819N009999199+02201+01801999999ADDGA1041+007621999GA2071+030481999GE19AGL   +99999+99999GF199999041999007621999999MA1101901999999REMMET064METAR HRYR 021530Z VRB03KT 9999 SCT025 BKN100 22/18 Q1019 NOSIG=
0171643870999992024010216004-01969+030139FM-15+148199999V0209999V001010304819N008000199+02201+01801999999ADDGA1041+007621999GA2071+030481999GE19AGL   +99999+99999GF199999041999007621999999MA1101901999999REMMET064METAR HRYR 021600Z VRB02KT 8000 SCT025 BKN100 22/18 Q1019 NOSIG=
0171643870999992024010216304-01969+030139FM-15+148199999V0202701N002110304819N009999199+02101+01801999999ADDGA1041+007621999GA2071+030481999GE19AGL   +99999+99999GF199999041999007621999999MA1102001999999REMMET064METAR HRYR 021630Z 27004KT 9999 SCT025 BKN100 21/18 Q1020 NOSIG=
0179643870999992024010217004-01969+030139FM-15+148199999V0203301V00211030481CN009999199+02101+01801999999ADDGA1041+007011999GA2041+030481999GE19AGL   +99999+99999GF199999041999007011999999MA1101901999999REMMET072METAR HRYR 021700Z 33004KT 300V010 9999 SCT023 SCT100 21/18 Q1019 NOSIG=
0171643870999992024010217304-01969+030139FM-15+148199999V0209999V00101030481CN009999199+02101+01801999999ADDGA1041+007011999GA2041+030481999GE19AGL   +99999+99999GF199999041999007011999999MA1102001999999REMMET064METAR HRYR 021730Z VRB02KT 9999 SCT023 SCT100 21/18 Q1020 NOSIG=
0270643870999992024010218004-01967+030117FM-12+149199999V0201801N001510300019N010000199+02031+01881999999ADDAA112004031AY191021AY261021GA1041+006901081GA2051+030001031GE19AGL   +99999+99999GF107991041999006901999999KA1120M+02611MA1999999085291MD1999999-0091ME1315239MW1031REMSYN09464387 11560 71803 10203 20188 38529 48523 60042 70396 8523/ 333 0//56 10261 59009 84823 85360=
0171643870999992024010218004-01969+030139FM-15+148199999V0202101N002610304819N009999199+02001+01901999999ADDGA1041+007011999GA2071+030481999GE19AGL   +99999+99999GF199999041999007011999999MA1102101999999REMMET064METAR HRYR 021800Z 21005KT 9999 SCT023 BKN100 20/19 Q1021 NOSIG=
0179643870999992024010218304-01969+030139FM-15+148199999V0202201V002110304819N009999199+02001+01901999999ADDGA1041+007011999GA2071+030481999GE19AGL   +99999+99999GF199999041999007011999999MA1102101999999REMMET072METAR HRYR 021830Z 22004KT 180V240 9999 SCT023 BKN100 20/19 Q1021 NOSIG=
0171643870999992024010219004-01969+030139FM-15+148199999V0201901N001510304819N009999199+02001+01801999999ADDGA1041+007011999GA2071+030481999GE19AGL   +99999+99999GF199999041999007011999999MA1102201999999REMMET064METAR HRYR 021900Z 19003KT 9999 SCT023 BKN100 20/18 Q1022 NOSIG=
0171643870999992024010219304-01969+030139FM-15+148199999V0209999V001010274319N009999199+02001+01801999999ADDGA1041+006711999GA2071+027431999GE19AGL   +99999+99999GF199999041999006711999999MA1102201999999REMMET064METAR HRYR 021930Z VRB02KT 9999 SCT022 BKN090 20/18 Q1022 NOSIG=
0171643870999992024010220004-01969+030139FM-15+148199999V0203501N001510274319N009999199+02001+01901999999ADDGA1041+006711999GA2071+027431999GE19AGL   +99999+99999GF199999041999006711999999MA1102201999999REMMET064METAR HRYR 022000Z 35003KT 9999 SCT022 BKN090 20/19 Q1022 NOSIG=
0171643870999992024010220304-01969+030139FM-15+148199999V0203501N001010274319N009999199+02001+01901999999ADDGA1041+006711999GA2071+027431999GE19AGL   +99999+99999GF199999041999006711999999MA1102101999999REMMET064METAR HRYR 022030Z 35002KT 9999 SCT022 BKN090 20/19 Q1021 NOSIG=
0171643870999992024010221004-01969+030139FM-15+148199999V0209999V001010274319N009999199+02001+01901999999ADDGA1041+006711999GA2071+027431999GE19AGL   +99999+99999GF199999041999006711999999MA1102101999999REMMET064METAR HRYR 022100Z VRB02KT 9999 SCT022 BKN090 20/19 Q1021 NOSIG=
0171643870999992024010221304-01969+030139FM-15+148199999V0200701N00101027431CN009999199+02001+01901999999ADDGA1041+006711999GA2041+027431999GE19AGL   +99999+99999GF199999041999006711999999MA1102101999999REMMET064METAR HRYR 022130Z 07002KT 9999 SCT022 SCT090 20/19 Q1021 NOSIG=
0171643870999992024010222004-01969+030139FM-15+148199999V0209999C00001030481CN009999199+02001+01901999999ADDGA1041+006711999GA2041+030481999GE19AGL   +99999+99999GF199999041999006711999999MA1102001999999REMMET064METAR HRYR 022200Z 00000KT 9999 SCT022 SCT100 20/19 Q1020 NOSIG=
0171643870999992024010222304-01969+030139FM-15+148199999V0209999C00001030481CN008000199+02001+01901999999ADDGA1041+006711999GA2041+030481999GE19AGL   +99999+99999GF199999041999006711999999MA1102001999999REMMET064METAR HRYR 022230Z 00000KT 8000 SCT022 SCT100 20/19 Q1020 NOSIG=
0171643870999992024010223004-01969+030139FM-15+148199999V0209999C00001030481CN007000199+01901+01901999999ADDGA1041+006101999GA2041+030481999GE19AGL   +99999+99999GF199999041999006101999999MA1102001999999REMMET064METAR HRYR 022300Z 00000KT 7000 SCT020 SCT100 19/19 Q1020 NOSIG=
0171643870999992024010223304-01969+030139FM-15+148199999V0209999C00001030481CN007000199+01901+01901999999ADDGA1041+006101999GA2041+030481999GE19AGL   +99999+99999GF199999041999006101999999MA1102001999999REMMET064METAR HRYR 022330Z 00000KT 7000 SCT020 SCT100 19/19 Q1020 NOSIG=
0171643870999992024010300004-01969+030139FM-15+148199999V0209999V00101030481CN007000199+01901+01901999999ADDGA1041+006101999GA2041+030481999GE19AGL   +99999+99999GF199999041999006101999999MA1102001999999REMMET064METAR HRYR 030000Z VRB02KT 7000 SCT020 SCT100 19/19 Q1020 NOSIG=
0171643870999992024010300304-01969+030139FM-15+148199999V0203601N00101030481CN007000199+01901+01901999999ADDGA1041+006101999GA2041+030481999GE19AGL   +99999+99999GF199999041999006101999999MA1101901999999REMMET064METAR HRYR 030030Z 36002KT 7000 SCT020 SCT100 19/19 Q1019 NOSIG=
0171643870999992024010301004-01969+030139FM-15+148199999V0203401N00101030481CN006000199+01901+01901999999ADDGA1041+006101999GA2041+030481999GE19AGL   +99999+99999GF199999041999006101999999MA1101901999999REMMET064METAR HRYR 030100Z 34002KT 6000 SCT020 SCT100 19/19 Q1019 NOSIG=
0179643870999992024010301304-01969+030139FM-15+148199999V0203201V00151030481CN006000199+01901+01901999999ADDGA1041+006101999GA2041+030481999GE19AGL   +99999+99999GF199999041999006101999999MA1101901999999REMMET072METAR HRYR 030130Z 32003KT 280V360 6000 SCT020 SCT100 19/19 Q1019 NOSIG=
0179643870999992024010302004-01969+030139FM-15+148199999V0200301N00211030481CN006000199+01801+01801999999ADDGA1041+006101999GA2041+030481999GE19AGL   +99999+99999GF199999041999006101999999MA1102001999999REMMET072METAR HRYR 030200Z 03004KT 6000 SCT020 SCT100 18/18 Q1020 BECMG 3000 BR=
0171643870999992024010302304-01969+030139FM-15+148199999V0200701N00211030481CN006000199+01801+01801999999ADDGA1041+006101999GA2041+030481999GE19AGL   +99999+99999GF199999041999006101999999MA1102001999999REMMET064METAR HRYR 030230Z 07004KT 6000 SCT020 SCT100 18/18 Q1020 NOSIG=
0171643870999992024010303004-01969+030139FM-15+148199999V0209999V00101030481CN006000199+01801+01801999999ADDGA1041+006101999GA2041+030481999GE19AGL   +99999+99999GF199999041999006101999999MA1102001999999REMMET064METAR HRYR 030300Z VRB02KT 6000 SCT020 SCT100 18/18 Q1020 NOSIG=
0203643870999992024010303304-01969+030139FM-15+148199999V0202101N00151006101CN003000199+01801+01801999999ADDGA1021+002441999GA2041+006101999GA3041+030481999GE19AGL   +99999+99999GF199999021999002441999999MA1102001999999MW1101REMMET074METAR HRYR 030330Z 21003KT 3000 BR FEW008 SCT020 SCT100 18/18 Q1020 NOSIG=
0203643870999992024010304004-01969+030139FM-15+148199999V0209999C00001006101CN004000199+01801+01801999999ADDGA1021+002441999GA2041+006101999GA3071+030481999GE19AGL   +99999+99999GF199999021999002441999999MA1102001999999MW1101REMMET074METAR HRYR 030400Z 00000KT 4000 BR FEW008 SCT020 BKN100 18/18 Q1020 NOSIG=
0176643870999992024010304304-01969+030139FM-15+148199999V0209999V00101006101CN004000199+01801+01801999999ADDGA1021+003051999GA2041+006101999GE19AGL   +99999+99999GF199999021999003051999999MA1102101999999REMMET069METAR HRYR 030430Z VRB02KT 4000 FEW010 SCT020 18/18 Q1021 BECMG 8000=
0180643870999992024010305004-01969+030139FM-15+148199999V0209999C00001006101CN003000199+01901+01901999999ADDGA1021+003051999GA2041+006101999GE19AGL   +99999+99999GF199999021999003051999999MA1102101999999MW1101REMMET067METAR HRYR 030500Z 00000KT 3000 BR FEW010 SCT020 19/19 Q1021 NOSIG=
0180643870999992024010305304-01969+030139FM-15+148199999V0200401N00151006101CN004000199+01901+01901999999ADDGA1021+003051999GA2041+006101999GE19AGL   +99999+99999GF199999021999003051999999MA1102201999999MW1101REMMET067METAR HRYR 030530Z 04003KT 4000 BR FEW010 SCT020 19/19 Q1022 NOSIG=
0203643870999992024010306004-01969+030139FM-15+148199999V0201901N00151006101CN004000199+02001+01901999999ADDGA1021+002441999GA2041+006101999GA3071+030481999GE19AGL   +99999+99999GF199999021999002441999999MA1102201999999MW1101REMMET074METAR HRYR 030600Z 19003KT 4000 BR FEW008 SCT020 BKN100 20/19 Q1022 NOSIG=
0171643870999992024010306304-01969+030139FM-15+148199999V0202601N002110304819N007000199+02101+01801999999ADDGA1041+005491999GA2071+030481999GE19AGL   +99999+99999GF199999041999005491999999MA1102201999999REMMET064METAR HRYR 030630Z 26004KT 7000 SCT018 BKN100 21/18 Q1022 NOSIG=
0203643870999992024010307004-01969+030139FM-15+148199999V0201901N00151006101CN004000199+02001+01901999999ADDGA1021+002441999GA2041+006101999GA3071+030481999GE19AGL   +99999+99999GF199999021999002441999999MA1102201999999MW1101REMMET074METAR HRYR 030700Z 19003KT 4000 BR FEW008 SCT020 BKN100 20/19 Q1022 NOSIG=
0171643870999992024010307304-01969+030139FM-15+148199999V0202301N001510304819N008000199+02201+01901999999ADDGA1041+005491999GA2071+030481999GE19AGL   +99999+99999GF199999041999005491999999MA1102201999999REMMET064METAR HRYR 030730Z 23003KT 8000 SCT018 BKN100 22/19 Q1022 NOSIG=
0171643870999992024010308004-01969+030139FM-15+148199999V0201801N001510304819N008000199+02201+01901999999ADDGA1041+005491999GA2071+030481999GE19AGL   +99999+99999GF199999041999005491999999MA1102201999999REMMET064METAR HRYR 030800Z 18003KT 8000 SCT018 BKN100 22/19 Q1022 NOSIG=
0171643870999992024010308304-01969+030139FM-15+148199999V0201501N001510304819N009999199+02201+01901999999ADDGA1041+005491999GA2071+030481999GE19AGL   +99999+99999GF199999041999005491999999MA1102101999999REMMET064METAR HRYR 030830Z 15003KT 9999 SCT018 BKN100 22/19 Q1021 NOSIG=
0176643870999992024010309004-01969+030139FM-15+148199999V0201101N003110067119N009999199+02101+01701999999ADDGA1021+006101091GA2071+006711999GE19AGL   +99999+99999GF199999021999006101999999MA1102101999999REMMET069METAR HRYR 030900Z 11006KT 9999 FEW020CB BKN022 21/17 Q1021 TEMPO TS=
0210643870999992024010309304-01969+030139FM-15+148199999V0200501N004610067119N003000199+01801+01801999999ADDGA1021+005491091GA2071+006711999GA3071+027431999GE19AGL   +99999+99999GF199999021999005491999999MA1102101999999MW1631REMMET081METAR HRYR 030930Z 05009KT 3000 RA FEW018CB BKN022 BKN090 18/18 Q1021 TEMPO TSRA=
0183643870999992024010310004-01969+030139FM-15+148199999V0200701N003110067119N009999199+01901+01801999999ADDGA1021+006101091GA2071+006711999GE19AGL   +99999+99999GF199999021999006101999999MA1102001999999MW1611REMMET070METAR HRYR 031000Z 07006KT 9999 -RA FEW020CB BKN022 19/18 Q1020 NOSIG=
0185643870999992024010310304-01969+030139FM-15+148199999V0201901N002610067119N009999199+02001+01801999999ADDGA1021+006101091GA2071+006711999GE19AGL   +99999+99999GF199999021999006101999999MA1102001999999MW1951REMMET072METAR HRYR 031030Z 19005KT 9999 -TSRA FEW020CB BKN022 20/18 Q1020 NOSIG=
0178643870999992024010311004-01969+030139FM-15+148199999V0200401N003110067119N009999199+02101+01801999999ADDGA1021+006101091GA2071+006711999GE19AGL   +99999+99999GF199999021999006101999999MA1102001999999REMMET071METAR HRYR 031100Z 04006KT 9999 FEW020CB BKN022 21/18 Q1020 RERA NOSIG=
0173643870999992024010311304-01969+030139FM-15+148199999V0200801N001510070119N009999199+02201+01701999999ADDGA1021+006711091GA2071+007011999GE19AGL   +99999+99999GF199999021999006711999999MA1102001999999REMMET066METAR HRYR 031130Z 08003KT 9999 FEW022CB BKN023 22/17 Q1020 NOSIG=
0173643870999992024010312004-01969+030139FM-15+148199999V0203201N002110076219N009999199+02201+01701999999ADDGA1021+007011091GA2071+007621999GE19AGL   +99999+99999GF199999021999007011999999MA1102001999999REMMET066METAR HRYR 031200Z 32004KT 9999 FEW023CB BKN025 22/17 Q1020 NOSIG=
0191643870999992024010312304-01969+030139FM-15+148199999V0203101V003610076219N009999199+02001+01601999999ADDGA1021+007011091GA2071+007621999GE19AGL   +99999+99999GF199999021999007011999999MA1101901999999MW1611REMMET078METAR HRYR 031230Z 31007KT 260V350 9999 -RA FEW023CB BKN025 20/16 Q1019 NOSIG=
0191643870999992024010313004-01969+030139FM-15+148199999V0203001V004110076219N009999199+02001+01601999999ADDGA1021+007011091GA2071+007621999GE19AGL   +99999+99999GF199999021999007011999999MA1101901999999MW1611REMMET078METAR HRYR 031300Z 30008KT 260V330 9999 -RA FEW023CB BKN025 20/16 Q1019 NOSIG=
0176643870999992024010313304-01969+030139FM-15+148199999V0202701N00261007011CN008000199+01801+01701999999ADDGA1071+007011999GA2041+027431999GE19AGL   +99999+99999GF199999071999007011999999MA1101901999999REMMET069METAR HRYR 031330Z 27005KT 8000 BKN023 SCT090 18/17 Q1019 RERA NOSIG=
0171643870999992024010314004-01969+030139FM-15+148199999V0202701N00261007011CN009999199+01801+01801999999ADDGA1071+007011999GA2041+027431999GE19AGL   +99999+99999GF199999071999007011999999MA1101901999999REMMET064METAR HRYR 031400Z 27005KT 9999 BKN023 SCT090 18/18 Q1019 NOSIG=
0171643870999992024010314304-01969+030139FM-15+148199999V0209999V00151007011CN009999199+01801+01701999999ADDGA1071+007011999GA2041+027431999GE19AGL   +99999+99999GF199999071999007011999999MA1101901999999REMMET064METAR HRYR 031430Z VRB03KT 9999 BKN023 SCT090 18/17 Q1019 NOSIG=
0179643870999992024010315004-01969+030139FM-15+148199999V0200401V00151007011CN009999199+01901+01801999999ADDGA1071+007011999GA2071+027431999GE19AGL   +99999+99999GF199999071999007011999999MA1101901999999REMMET072METAR HRYR 031500Z 04003KT 360V070 9999 BKN023 BKN090 19/18 Q1019 NOSIG=
0171643870999992024010315304-01969+030139FM-15+148199999V0209999V00051007011CN009999199+01901+01801999999ADDGA1071+007011999GA2071+027431999GE19AGL   +99999+99999GF199999071999007011999999MA1102001999999REMMET064METAR HRYR 031530Z VRB01KT 9999 BKN023 BKN090 19/18 Q1020 NOSIG=
0171643870999992024010316004-01969+030139FM-15+148199999V0200501N001510304819N009999199+01901+01801999999ADDGA1041+007011999GA2071+030481999GE19AGL   +99999+99999GF199999041999007011999999MA1102001999999REMMET064METAR HRYR 031600Z 05003KT 9999 SCT023 BKN100 19/18 Q1020 NOSIG=
0171643870999992024010316304-01969+030139FM-15+148199999V0200201N001510304819N009999199+01901+01801999999ADDGA1041+006101999GA2071+030481999GE19AGL   +99999+99999GF199999041999006101999999MA1102001999999REMMET064METAR HRYR 031630Z 02003KT 9999 SCT020 BKN100 19/18 Q1020 NOSIG=
0171643870999992024010317004-01969+030139FM-15+148199999V0201701N001010304819N009999199+01901+01801999999ADDGA1041+006101999GA2071+030481999GE19AGL   +99999+99999GF199999041999006101999999MA1102101999999REMMET064METAR HRYR 031700Z 17002KT 9999 SCT020 BKN100 19/18 Q1021 NOSIG=
0176643870999992024010317304-01969+030139FM-15+148199999V0202201N001510304819N009000199+01901+01901999999ADDGA1041+006101999GA2071+030481999GE19AGL   +99999+99999GF199999041999006101999999MA1102101999999REMMET069METAR HRYR 031730Z 22003KT 9000 SCT020 BKN100 19/19 Q1021 BECMG 5000=
0171643870999992024010318004-01969+030139FM-15+148199999V0201901N001510061019N007000199+01801+01801999999ADDGA1021+002441999GA2071+006101999GE19AGL   +99999+99999GF199999021999002441999999MA1102201999999REMMET064METAR HRYR 031800Z 19003KT 7000 FEW008 BKN020 18/18 Q1022 NOSIG=
0171643870999992024010318304-01969+030139FM-15+148199999V0200401N001510061019N007000199+01801+01801999999ADDGA1021+002441999GA2071+006101999GE19AGL   +99999+99999GF199999021999002441999999MA1102201999999REMMET064METAR HRYR 031830Z 04003KT 7000 FEW008 BKN020 18/18 Q1022 NOSIG=
0171643870999992024010319304-01969+030139FM-15+148199999V0209999V001010304819N008000199+01801+01801999999ADDGA1041+005791999GA2071+030481999GE19AGL   +99999+99999GF199999041999005791999999MA1102201999999REMMET064METAR HRYR 031930Z VRB02KT 8000 SCT019 BKN100 18/18 Q1022 NOSIG=
0171643870999992024010320004-01969+030139FM-15+148199999V0209999C000010304819N008000199+01801+01801999999ADDGA1041+005791999GA2071+030481999GE19AGL   +99999+99999GF199999041999005791999999MA1102201999999REMMET064METAR HRYR 032000Z 00000KT 8000 SCT019 BKN100 18/18 Q1022 NOSIG=
0171643870999992024010320304-01969+030139FM-15+148199999V0209999V001010304819N006000199+01801+01801999999ADDGA1041+005791999GA2071+030481999GE19AGL   +99999+99999GF199999041999005791999999MA1102201999999REMMET064METAR HRYR 032030Z VRB02KT 6000 SCT019 BKN100 18/18 Q1022 NOSIG=
0171643870999992024010321004-01967+030117FM-12+149199999V0200401N001519999999N010000199+01801+01801999999ADDGA1999+008001999GE19AGL   +99999+99999GF108991999999008001999999MA1999999085411ME1315359REMSYN07164387 32560 80403 10180 20180 38541 48535A 8423/ 333 58010 84819 85360=
0171643870999992024010321004-01969+030139FM-15+148199999V0200201N001510304819N008000199+01801+01801999999ADDGA1041+005791999GA2071+030481999GE19AGL   +99999+99999GF199999041999005791999999MA1102201999999REMMET064METAR HRYR 032100Z 02003KT 8000 SCT019 BKN100 18/18 Q1022 NOSIG=
0171643870999992024010321304-01969+030139FM-15+148199999V0209999C000010304819N009000199+01801+01801999999ADDGA1041+005791999GA2071+030481999GE19AGL   +99999+99999GF199999041999005791999999MA1102201999999REMMET064METAR HRYR 032130Z 00000KT 9000 SCT019 BKN100 18/18 Q1022 NOSIG=
0171643870999992024010322004-01969+030139FM-15+148199999V0209999C000010304819N007000199+01801+01801999999ADDGA1041+005491999GA2071+030481999GE19AGL   +99999+99999GF199999041999005491999999MA1102101999999REMMET064METAR HRYR 032200Z 00000KT 7000 SCT018 BKN100 18/18 Q1021 NOSIG=
0171643870999992024010322304-01969+030139FM-15+148199999V0209999C000010304819N006000199+01801+01801999999ADDGA1041+005181999GA2071+030481999GE19AGL   +99999+99999GF199999041999005181999999MA1102101999999REMMET064METAR HRYR 032230Z 00000KT 6000 SCT017 BKN100 18/18 Q1021 NOSIG=
0176643870999992024010323004-01969+030139FM-15+148199999V0209999C000010304819N006000199+01801+01801999999ADDGA1041+005181999GA2071+030481999GE19AGL   +99999+99999GF199999041999005181999999MA1102101999999REMMET069METAR HRYR 032300Z 00000KT 6000 SCT017 BKN100 18/18 Q1021 BECMG 0800=
0180643870999992024010400004-01969+030139FM-15+148199999V0200301N00151005491CN000200199+01701+01701999999ADDGA1041+002441999GA2041+005491999GE19AGL   +99999+99999GF199999041999002441999999MA1102001999999MW1441REMMET067METAR HRYR 040000Z 03003KT 0200 FG SCT008 SCT018 17/17 Q1020 NOSIG=
0180643870999992024010400304-01969+030139FM-15+148199999V0200401N00101005491CN000200199+01701+01701999999ADDGA1041+002441999GA2041+005491999GE19AGL   +99999+99999GF199999041999002441999999MA1102001999999MW1441REMMET067METAR HRYR 040030Z 04002KT 0200 FG SCT008 SCT018 17/17 Q1020 NOSIG=
0180643870999992024010401004-01969+030139FM-15+148199999V0209999C00001005181CN000300199+01701+01701999999ADDGA1041+002441999GA2041+005181999GE19AGL   +99999+99999GF199999041999002441999999MA1102001999999MW1441REMMET067METAR HRYR 040100Z 00000KT 0300 FG SCT008 SCT017 17/17 Q1020 NOSIG=
0180643870999992024010401304-01969+030139FM-15+148199999V0200301N002110054919N000400199+01701+01701999999ADDGA1021+002441999GA2071+005491999GE19AGL   +99999+99999GF199999021999002441999999MA1102101999999MW1441REMMET067METAR HRYR 040130Z 03004KT 0400 FG FEW008 BKN018 17/17 Q1021 NOSIG=
0180643870999992024010402004-01969+030139FM-15+148199999V0200101N001510054919N000600199+01701+01701999999ADDGA1021+002441999GA2071+005491999GE19AGL   +99999+99999GF199999021999002441999999MA1102101999999MW1441REMMET067METAR HRYR 040200Z 01003KT 0600 FG FEW008 BKN018 17/17 Q1021 NOSIG=
0185643870999992024010402304-01969+030139FM-15+148199999V0203601N001510054919N003000199+01701+01701999999ADDGA1021+002441999GA2071+005491999GE19AGL   +99999+99999GF199999021999002441999999MA1102101999999MW1101REMMET072METAR HRYR 040230Z 36003KT 3000 BR FEW008 BKN018 17/17 Q1021 BECMG 5000=
0180643870999992024010403004-01969+030139FM-15+148199999V0209999V001010054919N004000199+01701+01701999999ADDGA1021+002441999GA2071+005491999GE19AGL   +99999+99999GF199999021999002441999999MA1102101999999MW1101REMMET067METAR HRYR 040300Z VRB02KT 4000 BR FEW008 BKN018 17/17 Q1021 NOSIG=
0185643870999992024010403304-01969+030139FM-15+148199999V0203001N001010054919N005000199+01701+01701999999ADDGA1021+002441999GA2071+005491999GE19AGL   +99999+99999GF199999021999002441999999MA1102101999999MW1101REMMET072METAR HRYR 040330Z 30002KT 5000 BR FEW008 BKN018 17/17 Q1021 BECMG 5000=
0185643870999992024010404004-01969+030139FM-15+148199999V0209999C000010054919N003000199+01701+01701999999ADDGA1021+002441999GA2071+005491999GE19AGL   +99999+99999GF199999021999002441999999MA1102201999999MW1101REMMET072METAR HRYR 040400Z 00000KT 3000 BR FEW008 BKN018 17/17 Q1022 BECMG 8000=
0180643870999992024010404304-01969+030139FM-15+148199999V0209999C00001005491CN003000199+01701+01701999999ADDGA1021+002441999GA2041+005491999GE19AGL   +99999+99999GF199999021999002441999999MA1102201999999MW1101REMMET067METAR HRYR 040430Z 00000KT 3000 BR FEW008 SCT018 17/17 Q1022 NOSIG=
0180643870999992024010405004-01969+030139FM-15+148199999V0209999V00101005491CN003000199+01701+01701999999ADDGA1021+002441999GA2041+005491999GE19AGL   +99999+99999GF199999021999002441999999MA1102201999999MW1101REMMET067METAR HRYR 040500Z VRB02KT 3000 BR FEW008 SCT018 17/17 Q1022 NOSIG=
0180643870999992024010405304-01969+030139FM-15+148199999V0209999V00101005491CN005000199+01801+01801999999ADDGA1021+002441999GA2041+005491999GE19AGL   +99999+99999GF199999021999002441999999MA1102301999999MW1101REMMET067METAR HRYR 040530Z VRB02KT 5000 BR FEW008 SCT018 18/18 Q1023 NOSIG=
0180643870999992024010406004-01969+030139FM-15+148199999V0209999C000010304819N005000199+01901+01901999999ADDGA1041+006101999GA2071+030481999GE19AGL   +99999+99999GF199999041999006101999999MA1102301999999MW1101REMMET067METAR HRYR 040600Z 00000KT 5000 BR SCT020 BKN100 19/19 Q1023 NOSIG=
0203643870999992024010406304-01969+030139FM-15+148199999V0209999V00101006101CN005000199+01901+01801999999ADDGA1021+001831999GA2041+006101999GA3071+027431999GE19AGL   +99999+99999GF199999021999001831999999MA1102301999999MW1101REMMET074METAR HRYR 040630Z VRB02KT 5000 BR FEW006 SCT020 BKN090 19/18 Q1023 NOSIG=
0171643870999992024010407004-01969+030139FM-15+148199999V0209999C000010274319N007000199+02101+01901999999ADDGA1041+006101999GA2071+027431999GE19AGL   +99999+99999GF199999041999006101999999MA1102301999999REMMET064METAR HRYR 040700Z 00000KT 7000 SCT020 BKN090 21/19 Q1023 NOSIG=
0179643870999992024010407304-01969+030139FM-15+148199999V0200901V00151027431CN007000199+02101+01801999999ADDGA1041+006101999GA2041+027431999GE19AGL   +99999+99999GF199999041999006101999999MA1102301999999REMMET072METAR HRYR 040730Z 09003KT 040V140 7000 SCT020 SCT090 21/18 Q1023 NOSIG=
0174643870999992024010408004-01969+030139FM-15+148199999V0201601V00311027431CN999999999+02301+01901999999ADDGA1041+004571999GA2041+027431999GE19AGL   +99999+99999GF199999041999004571999999MA1102301999999REMMET067METAR HRYR 040800Z 16006KT 080V250 SCT015 SCT090 23/19 Q1023 NOSIG=
0171643870999992024010408304-01969+030139FM-15+148199999V0201501N003110274319N009999199+02301+01801999999ADDGA1041+005491999GA2071+027431999GE19AGL   +99999+99999GF199999041999005491999999MA1102301999999REMMET064METAR HRYR 040830Z 15006KT 9999 SCT018 BKN090 23/18 Q1023 NOSIG=
0130643870999992024010409004-01969+030139FM-15+148199999V0201701N004119999999N999999999+02305+01805999999ADDMA1102205999999REMMET068METAR HRYR 040900Z 17008KT 1400V200 SCT020 SCT100 23/18 Q1022 NOSIG=EQDD01      0ADE693D02      0ADE539
0151643870999992024010409304-01969+030139FM-15+148199999V0201601V00261006711CN999999999+02501+01901999999ADDGA1071+006711999GE19AGL   +99999+99999GF199999071999006711999999MA1102201999999REMMET060METAR HRYR 040930Z 16005KT 120V200 BKN022 25/19 Q1022 NOSIG=
0181643870999992024010410004-01969+030139FM-15+148199999V0201401V004110070119N009999199+02501+01801999999ADDGA1021+006401091GA2071+007011999GE19AGL   +99999+99999GF199999021999006401999999MA1102101999999REMMET074METAR HRYR 041000Z 14008KT 110V170 9999 FEW021CB BKN023 25/18 Q1021 NOSIG=
0181643870999992024010410304-01969+030139FM-15+148199999V0200801V003110070119N009999199+02501+01601999999ADDGA1021+006401091GA2071+007011999GE19AGL   +99999+99999GF199999021999006401999999MA1102001999999REMMET074METAR HRYR 041030Z 08006KT 040V150 9999 FEW021CB BKN023 25/16 Q1020 NOSIG=
0181643870999992024010411004-01969+030139FM-15+148199999V0200701V004110070119N009999199+02501+01701999999ADDGA1021+006401091GA2071+007011999GE19AGL   +99999+99999GF199999021999006401999999MA1102001999999REMMET074METAR HRYR 041100Z 07008KT 040V100 9999 FEW021CB BKN023 25/17 Q1020 NOSIG=
0184643870999992024010411304-01969+030139FM-15+148199999V0200401V005110070119N009999199+02501+01701999999ADDGA1021+006401091GA2071+007011999GE19AGL   +99999+99999GF199999021999006401999999MA1101901999999REMMET077METAR HRYR 041130Z 04010KT 360V070 9999 FEW021CB BKN023 25/17 Q1019 TEMPO TS=
0187643870999992024010412004-01967+030117FM-12+149199999V0200401N003119999999N010000199+02541+01501999999ADDGA1061+008001091GA2999+999999031GE19AGL   +99999+99999GF107991061999008001999999MA1999999085131ME1315079REMSYN07164387 32560 70406 10254 20150 38513 48507 8693/A 333 59005 81921 85823=
0173643870999992024010412004-01969+030139FM-15+148199999V0200301N004110070119N009999199+02501+01501999999ADDGA1021+006401091GA2071+007011999GE19AGL   +99999+99999GF199999021999006401999999MA1101901999999REMMET066METAR HRYR 041200Z 03008KT 9999 FEW021CB BKN023 25/15 Q1019 NOSIG=
0173643870999992024010412304-01969+030139FM-15+148199999V0200401N003610070119N009999199+02601+01601999999ADDGA1021+006401091GA2071+007011999GE19AGL   +99999+99999GF199999021999006401999999MA1101901999999REMMET066METAR HRYR 041230Z 04007KT 9999 FEW021CB BKN023 26/16 Q1019 NOSIG=
0171643870999992024010413004-01969+030139FM-15+148199999V0200501N00411007011CN009999199+02601+01601999999ADDGA1071+007011999GA2041+030481999GE19AGL   +99999+99999GF199999071999007011999999MA1101801999999REMMET064METAR HRYR 041300Z 05008KT 9999 BKN023 SCT100 26/16 Q1018 NOSIG=
0171643870999992024010413304-01969+030139FM-15+148199999V0200501N00461030481CN009999199+02501+01601999999ADDGA1041+007011999GA2041+030481999GE19AGL   +99999+99999GF199999041999007011999999MA1101801999999REMMET064METAR HRYR 041330Z 05009KT 9999 SCT023 SCT100 25/16 Q1018 NOSIG=
0171643870999992024010414004-01969+030139FM-15+148199999V0200501N00361030481CN009999199+02501+01601999999ADDGA1041+007011999GA2041+030481999GE19AGL   +99999+99999GF199999041999007011999999MA1101801999999REMMET064METAR HRYR 041400Z 05007KT 9999 SCT023 SCT100 25/16 Q1018 NOSIG=
0171643870999992024010414304-01969+030139FM-15+148199999V0200501N00311091441CN009999199+02501+01601999999ADDGA1041+007011999GA2041+091441999GE19AGL   +99999+99999GF199999041999007011999999MA1101801999999REMMET064METAR HRYR 041430Z 05006KT 9999 SCT023 SCT300 25/16 Q1018 NOSIG=
0171643870999992024010415004-01969+030139FM-15+148199999V0200701N00411091441CN009999199+02401+01601999999ADDGA1041+007011999GA2041+091441999GE19AGL   +99999+99999GF199999041999007011999999MA1101801999999REMMET064METAR HRYR 041500Z 07008KT 9999 SCT023 SCT300 24/16 Q1018 NOSIG=
0171643870999992024010415304-01969+030139FM-15+148199999V0200701N00311091441CN009999199+02301+01701999999ADDGA1041+007011999GA2041+091441999GE19AGL   +99999+99999GF199999041999007011999999MA1101901999999REMMET064METAR HRYR 041530Z 07006KT 9999 SCT023 SCT300 23/17 Q1019 NOSIG=
0171643870999992024010416004-01969+030139FM-15+148199999V0200901N00211030481CN009999199+02201+01701999999ADDGA1041+007011999GA2041+030481999GE19AGL   +99999+99999GF199999041999007011999999MA1101901999999REMMET064METAR HRYR 041600Z 09004KT 9999 SCT023 SCT100 22/17 Q1019 NOSIG=
0171643870999992024010416304-01969+030139FM-15+148199999V0201101N002610304819N009999199+02301+01701999999ADDGA1041+007011999GA2071+030481999GE19AGL   +99999+99999GF199999041999007011999999MA1102001999999REMMET064METAR HRYR 041630Z 11005KT 9999 SCT023 BKN100 23/17 Q1020 NOSIG=
0171643870999992024010417004-01969+030139FM-15+148199999V0201601N001010304819N009999199+02301+01701999999ADDGA1041+007011999GA2071+030481999GE19AGL   +99999+99999GF199999041999007011999999MA1102001999999REMMET064METAR HRYR 041700Z 16002KT 9999 SCT023 BKN100 23/17 Q1020 NOSIG=
0171643870999992024010417304-01969+030139FM-15+148199999V0201101N001010304819N009999199+02201+01701999999ADDGA1041+007011999GA2071+030481999GE19AGL   +99999+99999GF199999041999007011999999MA1102001999999REMMET064METAR HRYR 041730Z 11002KT 9999 SCT023 BKN100 22/17 Q1020 NOSIG=
0171643870999992024010418004-01969+030139FM-15+148199999V0201201N002110304819N009999199+02201+01701999999ADDGA1041+007011999GA2071+030481999GE19AGL   +99999+99999GF199999041999007011999999MA1102101999999REMMET064METAR HRYR 041800Z 12004KT 9999 SCT023 BKN100 22/17 Q1021 NOSIG=
0171643870999992024010418304-01969+030139FM-15+148199999V0200901N002610304819N009999199+02101+01701999999ADDGA1041+007011999GA2071+030481999GE19AGL   +99999+99999GF199999041999007011999999MA1102201999999REMMET064METAR HRYR 041830Z 09005KT 9999 SCT023 BKN100 21/17 Q1022 NOSIG=
0171643870999992024010419004-01969+030139FM-15+148199999V0200901N002110304819N009999199+02101+01701999999ADDGA1041+007321999GA2071+030481999GE19AGL   +99999+99999GF199999041999007321999999MA1102201999999REMMET064METAR HRYR 041900Z 09004KT 9999 SCT024 BKN100 21/17 Q1022 NOSIG=
0171643870999992024010419304-01969+030139FM-15+148199999V0201701N001510304819N009999199+02101+01801999999ADDGA1041+007621999GA2071+030481999GE19AGL   +99999+99999GF199999041999007621999999MA1102201999999REMMET064METAR HRYR 041930Z 17003KT 9999 SCT025 BKN100 21/18 Q1022 NOSIG=
0171643870999992024010420004-01969+030139FM-15+148199999V0201001N00211030481CN009999199+02101+01801999999ADDGA1041+007621999GA2041+030481999GE19AGL   +99999+99999GF199999041999007621999999MA1102201999999REMMET064METAR HRYR 042000Z 10004KT 9999 SCT025 SCT100 21/18 Q1022 NOSIG=
0171643870999992024010420304-01969+030139FM-15+148199999V0201001N00211030481CN009999199+02101+01701999999ADDGA1041+007621999GA2041+030481999GE19AGL   +99999+99999GF199999041999007621999999MA1102201999999REMMET064METAR HRYR 042030Z 10004KT 9999 SCT025 SCT100 21/17 Q1022 NOSIG=
0171643870999992024010421004-01969+030139FM-15+148199999V0202101N00151030481CN009000199+02001+01801999999ADDGA1021+007621999GA2041+030481999GE19AGL   +99999+99999GF199999021999007621999999MA1102201999999REMMET064METAR HRYR 042100Z 21003KT 9000 FEW025 SCT100 20/18 Q1022 NOSIG=
0171643870999992024010421304-01969+030139FM-15+148199999V0202001N00211030481CN009000199+02001+01901999999ADDGA1041+007621999GA2041+030481999GE19AGL   +99999+99999GF199999041999007621999999MA1102201999999REMMET064METAR HRYR 042130Z 20004KT 9000 SCT025 SCT100 20/19 Q1022 NOSIG=
0171643870999992024010422004-01969+030139FM-15+148199999V0201901N00151030481CN009000199+02001+01801999999ADDGA1021+007621999GA2041+030481999GE19AGL   +99999+99999GF199999021999007621999999MA1102201999999REMMET064METAR HRYR 042200Z 19003KT 9000 FEW025 SCT100 20/18 Q1022 NOSIG=
0171643870999992024010422304-01969+030139FM-15+148199999V0201901N00211030481CN008000199+01901+01901999999ADDGA1021+007621999GA2041+030481999GE19AGL   +99999+99999GF199999021999007621999999MA1102201999999REMMET064METAR HRYR 042230Z 19004KT 8000 FEW025 SCT100 19/19 Q1022 NOSIG=
0171643870999992024010423004-01969+030139FM-15+148199999V0201901N00151030481CN008000199+01901+01901999999ADDGA1021+007621999GA2041+030481999GE19AGL   +99999+99999GF199999021999007621999999MA1102201999999REMMET064METAR HRYR 042300Z 19003KT 8000 FEW025 SCT100 19/19 Q1022 NOSIG=
0171643870999992024010423304-01969+030139FM-15+148199999V0202201N00101030481CN008000199+01901+01901999999ADDGA1041+007621999GA2041+030481999GE19AGL   +99999+99999GF199999041999007621999999MA1102101999999REMMET064METAR HRYR 042330Z 22002KT 8000 SCT025 SCT100 19/19 Q1021 NOSIG=
0189643870999992024010500004-01969+030139FM-15+148199999V0202201N001519999999N008000199+02005+01805999999ADDGA1041+007321999GE19AGL   +99999+99999GF199999041999007321999999MA1102105999999REMMET063METAR HRYR 050000Z 22003KT 8000 SCT024 KN100 20/18 Q1021 NOSIG=EQDD01      0ADE693D02      0ADE539
0189643870999992024010500304-01969+030139FM-15+148199999V0201701N001519999999N008000199+02005+01705999999ADDGA1041+007321999GE19AGL   +99999+99999GF199999041999007321999999MA1102105999999REMMET063METAR HRYR 050030Z 17003KT 8000 SCT024 KN100 20/17 Q1021 NOSIG=EQDD01      0ADE693D02      0ADE539
0176643870999992024010501004-01969+030139FM-15+148199999V0200801N001510274319N008000199+01901+01901999999ADDGA1041+006101999GA2071+027431999GE19AGL   +99999+99999GF199999041999006101999999MA1102101999999REMMET069METAR HRYR 050100Z 08003KT 8000 SCT020 BKN090 19/19 Q1021 BECMG 3000=
0171643870999992024010501304-01969+030139FM-15+148199999V0200401N001510274319N007000199+01901+01901999999ADDGA1041+006101999GA2071+027431999GE19AGL   +99999+99999GF199999041999006101999999MA1102101999999REMMET064METAR HRYR 050130Z 04003KT 7000 SCT020 BKN090 19/19 Q1021 NOSIG=
0171643870999992024010502004-01969+030139FM-15+148199999V0200801N001510274319N007000199+01901+01901999999ADDGA1041+006101999GA2071+027431999GE19AGL   +99999+99999GF199999041999006101999999MA1102101999999REMMET064METAR HRYR 050200Z 08003KT 7000 SCT020 BKN090 19/19 Q1021 NOSIG=
0171643870999992024010502304-01969+030139FM-15+148199999V0200501N00151030481CN007000199+01901+01901999999ADDGA1041+006711999GA2041+030481999GE19AGL   +99999+99999GF199999041999006711999999MA1102201999999REMMET064METAR HRYR 050230Z 05003KT 7000 SCT022 SCT100 19/19 Q1022 NOSIG=
0171643870999992024010503004-01969+030139FM-15+148199999V0200801N00151030481CN006000199+01801+01801999999ADDGA1041+006711999GA2041+030481999GE19AGL   +99999+99999GF199999041999006711999999MA1102201999999REMMET064METAR HRYR 050300Z 08003KT 6000 SCT022 SCT100 18/18 Q1022 NOSIG=
0171643870999992024010503304-01969+030139FM-15+148199999V0201601N00151030481CN006000199+01801+01801999999ADDGA1041+006711999GA2041+030481999GE19AGL   +99999+99999GF199999041999006711999999MA1102201999999REMMET064METAR HRYR 050330Z 16003KT 6000 SCT022 SCT100 18/18 Q1022 NOSIG=
0204643870999992024010504004-01969+030139FM-15+148199999V0209999N99999006711CN005000199+01801+01801999999ADDGA1021+003051999GA2041+006711999GA3071+030481999GE19AGL   +99999+99999GF199999021999003051999999MA1102301999999MW1101REMMET075METAR HRYR 050400Z 180033KT 5000 BR FEW010 SCT022 BKN100 18/18 Q1023 NOSIG=
0125643870999992024010505004-01969+030139FM-15+148199999V0209999N999999999999N999999999+01805+01805999999ADDMA1102405999999MW1105REMMET073METAR HRYR 050500Z VRB02T 2000 BR FEW008 SCT020 BKN090 18/18 Q1024 NOSIG=EQDD01      0ADE735
0185643870999992024010505304-01969+030139FM-15+148199999V0209999C00001006101CN003000199+01901+01901999999ADDGA1021+003051999GA2041+006101999GE19AGL   +99999+99999GF199999021999003051999999MA1102401999999MW1101REMMET072METAR HRYR 050530Z 00000KT 3000 BR FEW010 SCT020 19/19 Q1024 BECMG 6000=
0157643870999992024010506004-01969+030139FM-15+148199999V0209999V001019999999N005000199+02001+01801999999ADDGA1041+006101999GE19AGL   +99999+99999GF199999041999006101999999MA1102401999999MW1101REMMET060METAR HRYR 050600Z VRB02KT 5000 BR SCT020 20/18 Q1024 NOSIG=
0148643870999992024010506304-01969+030139FM-15+148199999V0209999V001019999999N006000199+02101+01801999999ADDGA1041+006101999GE19AGL   +99999+99999GF199999041999006101999999MA1102401999999REMMET057METAR HRYR 050630Z VRB02KT 6000 SCT020 21/18 Q1024 NOSIG=
0148643870999992024010507004-01969+030139FM-15+148199999V0209999C000019999999N008000199+02201+01801999999ADDGA1041+006711999GE19AGL   +99999+99999GF199999041999006711999999MA1102401999999REMMET057METAR HRYR 050700Z 00000KT 8000 SCT022 22/18 Q1024 NOSIG=
0148643870999992024010507304-01969+030139FM-15+148199999V0202001N003119999999N009999199+02201+01701999999ADDGA1041+006711999GE19AGL   +99999+99999GF199999041999006711999999MA1102401999999REMMET057METAR HRYR 050730Z 20006KT 9999 SCT022 22/17 Q1024 NOSIG=
0148643870999992024010508004-01969+030139FM-15+148199999V0202001N002119999999N009999199+02401+01701999999ADDGA1041+006711999GE19AGL   +99999+99999GF199999041999006711999999MA1102301999999REMMET057METAR HRYR 050800Z 20004KT 9999 SCT022 24/17 Q1023 NOSIG=
0156643870999992024010508304-01969+030139FM-15+148199999V0201901V002619999999N009999199+02401+01601999999ADDGA1041+007011999GE19AGL   +99999+99999GF199999041999007011999999MA1102301999999REMMET065METAR HRYR 050830Z 19005KT 160V240 9999 SCT023 24/16 Q1023 NOSIG=
0148643870999992024010509004-01969+030139FM-15+148199999V0201901N00311007011CN009999199+02501+01701999999ADDGA1071+007011999GE19AGL   +99999+99999GF199999071999007011999999MA1102301999999REMMET057METAR HRYR 050900Z 19006KT 9999 BKN023 25/17 Q1023 NOSIG=
0171643870999992024010510004-01969+030139FM-15+148199999V0201601N00311091441CN009999199+02601+01801999999ADDGA1041+007321999GA2041+091441999GE19AGL   +99999+99999GF199999041999007321999999MA1102201999999REMMET064METAR HRYR 051000Z 16006KT 9999 SCT024 SCT300 26/18 Q1022 NOSIG=
0156643870999992024010510304-01969+030139FM-15+148199999V0201801V003619999999N009999199+02601+01701999999ADDGA1041+007621999GE19AGL   +99999+99999GF199999041999007621999999MA1102101999999REMMET065METAR HRYR 051030Z 18007KT 130V220 9999 SCT025 26/17 Q1021 NOSIG=
0156643870999992024010511004-01969+030139FM-15+148199999V0201301V002619999999N009999199+02601+01601999999ADDGA1041+007621999GE19AGL   +99999+99999GF199999041999007621999999MA1102101999999REMMET065METAR HRYR 051100Z 13005KT 100V210 9999 SCT025 26/16 Q1021 NOSIG=
0156643870999992024010511304-01969+030139FM-15+148199999V0201601V003119999999N009999199+02701+01701999999ADDGA1041+007621999GE19AGL   +99999+99999GF199999041999007621999999MA1102001999999REMMET065METAR HRYR 051130Z 16006KT 070V200 9999 SCT025 27/17 Q1020 NOSIG=
0234643870999992024010512004-01967+030117FM-12+149199999V0200501N00511007501CN010000199+02741+01631999999ADDAY121021AY221021GA1011+006601091GA2051+007501081GE19AGL   +99999+99999GF107991011999006601999999MA1999999085171MD1999999+0041ME1315119MW1171REMSYN08264387 21560 70510 10274 20163 38517 48511 71722 8693/ 333 58004 81922 85825 94961=
0201643870999992024010512004-01969+030139FM-15+148199999V0200401V003610076219N009999199+02601+01401999999ADDGA1021+006711091GA2071+007621999GE19AGL   +99999+99999GF199999021999006711999999MA1101901999999MW1171OC100981REMMET080METAR HRYR 051200Z 04007G19KT 360V120 9999 TS FEW022CB BKN025 26/14 Q1019 NOSIG=
0181643870999992024010512304-01969+030139FM-15+148199999V0200301V00461007621CN009999199+02501+01401999999ADDGA1021+006711091GA2041+007621999GE19AGL   +99999+99999GF199999021999006711999999MA1101901999999REMMET074METAR HRYR 051230Z 03009KT 350V050 9999 FEW022CB SCT025 25/14 Q1019 NOSIG=
0181643870999992024010513004-01969+030139FM-15+148199999V0200301V00311007621CN009999199+02601+01401999999ADDGA1021+006711091GA2041+007621999GE19AGL   +99999+99999GF199999021999006711999999MA1101901999999REMMET074METAR HRYR 051300Z 03006KT 340V060 9999 FEW022CB SCT025 26/14 Q1019 NOSIG=
0181643870999992024010513304-01969+030139FM-15+148199999V0200501V00261007621CN009999199+02601+01401999999ADDGA1021+006711091GA2041+007621999GE19AGL   +99999+99999GF199999021999006711999999MA1101801999999REMMET074METAR HRYR 051330Z 05005KT 020V090 9999 FEW022CB SCT025 26/14 Q1018 NOSIG=
0179643870999992024010514004-01969+030139FM-15+148199999V0200701V001510304819N009999199+02501+01501999999ADDGA1041+007621999GA2071+030481999GE19AGL   +99999+99999GF199999041999007621999999MA1101901999999REMMET072METAR HRYR 051400Z 07003KT 040V100 9999 SCT025 BKN100 25/15 Q1019 NOSIG=
0171643870999992024010514304-01969+030139FM-15+148199999V0200801N002110304819N009999199+02501+01501999999ADDGA1041+007621999GA2071+030481999GE19AGL   +99999+99999GF199999041999007621999999MA1101901999999REMMET064METAR HRYR 051430Z 08004KT 9999 SCT025 BKN100 25/15 Q1019 NOSIG=
0171643870999992024010515004-01969+030139FM-15+148199999V0201501N002610304819N009999199+02501+01701999999ADDGA1041+007621999GA2071+030481999GE19AGL   +99999+99999GF199999041999007621999999MA1101901999999REMMET064METAR HRYR 051500Z 15005KT 9999 SCT025 BKN100 25/17 Q1019 NOSIG=
0171643870999992024010516004-01969+030139FM-15+148199999V0201101N002610304819N009999199+02401+01601999999ADDGA1041+007621999GA2071+030481999GE19AGL   +99999+99999GF199999041999007621999999MA1101901999999REMMET064METAR HRYR 051600Z 11005KT 9999 SCT025 BKN100 24/16 Q1019 NOSIG=
0171643870999992024010516304-01969+030139FM-15+148199999V0200901N003110304819N009999199+02301+01701999999ADDGA1041+007621999GA2071+030481999GE19AGL   +99999+99999GF199999041999007621999999MA1102001999999REMMET064METAR HRYR 051630Z 09006KT 9999 SCT025 BKN100 23/17 Q1020 NOSIG=
0171643870999992024010517004-01969+030139FM-15+148199999V0200501N003610304819N009999199+02301+01601999999ADDGA1041+007621999GA2071+030481999GE19AGL   +99999+99999GF199999041999007621999999MA1102001999999REMMET064METAR HRYR 051700Z 05007KT 9999 SCT025 BKN100 23/16 Q1020 NOSIG=
0171643870999992024010517304-01969+030139FM-15+148199999V0200501N003110304819N009999199+02201+01601999999ADDGA1041+007621999GA2071+030481999GE19AGL   +99999+99999GF199999041999007621999999MA1102101999999REMMET064METAR HRYR 051730Z 05006KT 9999 SCT025 BKN100 22/16 Q1021 NOSIG=
0171643870999992024010518004-01969+030139FM-15+148199999V0200601N00361030481CN009999199+02201+01601999999ADDGA1041+007621999GA2041+030481999GE19AGL   +99999+99999GF199999041999007621999999MA1102101999999REMMET064METAR HRYR 051800Z 06007KT 9999 SCT025 SCT100 22/16 Q1021 NOSIG=
0171643870999992024010519004-01969+030139FM-15+148199999V0200501N00261030481CN009999199+02101+01701999999ADDGA1041+007621999GA2041+030481999GE19AGL   +99999+99999GF199999041999007621999999MA1102201999999REMMET064METAR HRYR 051900Z 05005KT 9999 SCT025 SCT100 21/17 Q1022 NOSIG=
0171643870999992024010519304-01969+030139FM-15+148199999V0201101N00151030481CN009999199+02101+01701999999ADDGA1041+007621999GA2041+030481999GE19AGL   +99999+99999GF199999041999007621999999MA1102201999999REMMET064METAR HRYR 051930Z 11003KT 9999 SCT025 SCT100 21/17 Q1022 NOSIG=
0171643870999992024010520004-01969+030139FM-15+148199999V0202301N00151030481CN009999199+02101+01701999999ADDGA1041+007621999GA2041+030481999GE19AGL   +99999+99999GF199999041999007621999999MA1102201999999REMMET064METAR HRYR 052000Z 23003KT 9999 SCT025 SCT100 21/17 Q1022 NOSIG=
0171643870999992024010520304-01969+030139FM-15+148199999V0201001N00211030481CN009999199+02101+01801999999ADDGA1041+007621999GA2041+030481999GE19AGL   +99999+99999GF199999041999007621999999MA1102201999999REMMET064METAR HRYR 052030Z 10004KT 9999 SCT025 SCT100 21/18 Q1022 NOSIG=
0171643870999992024010521004-01969+030139FM-15+148199999V0201001N00151030481CN009999199+02101+01701999999ADDGA1041+007621999GA2041+030481999GE19AGL   +99999+99999GF199999041999007621999999MA1102201999999REMMET064METAR HRYR 052100Z 10003KT 9999 SCT025 SCT100 21/17 Q1022 NOSIG=
0171643870999992024010521304-01969+030139FM-15+148199999V0202501N00151030481CN009999199+02101+01701999999ADDGA1041+007621999GA2041+030481999GE19AGL   +99999+99999GF199999041999007621999999MA1102201999999REMMET064METAR HRYR 052130Z 25003KT 9999 SCT025 SCT100 21/17 Q1022 NOSIG=
0171643870999992024010522004-01969+030139FM-15+148199999V0201701N00211030481CN009999199+02001+01801999999ADDGA1041+007621999GA2041+030481999GE19AGL   +99999+99999GF199999041999007621999999MA1102201999999REMMET064METAR HRYR 052200Z 17004KT 9999 SCT025 SCT100 20/18 Q1022 NOSIG=
0171643870999992024010522304-01969+030139FM-15+148199999V0201401N00151030481CN009999199+02001+01801999999ADDGA1041+007621999GA2041+030481999GE19AGL   +99999+99999GF199999041999007621999999MA1102101999999REMMET064METAR HRYR 052230Z 14003KT 9999 SCT025 SCT100 20/18 Q1021 NOSIG=
0171643870999992024010523004-01969+030139FM-15+148199999V0202501N00151030481CN009999199+02001+01801999999ADDGA1041+007621999GA2041+030481999GE19AGL   +99999+99999GF199999041999007621999999MA1102101999999REMMET064METAR HRYR 052300Z 25003KT 9999 SCT025 SCT100 20/18 Q1021 NOSIG=
0171643870999992024010523304-01969+030139FM-15+148199999V0201801N00151030481CN009999199+02001+01801999999ADDGA1041+007621999GA2041+030481999GE19AGL   +99999+99999GF199999041999007621999999MA1102101999999REMMET064METAR HRYR 052330Z 18003KT 9999 SCT025 SCT100 20/18 Q1021 NOSIG=
0179643870999992024010600004-01969+030139FM-15+148199999V0200801V00151030481CN009999199+01901+01801999999ADDGA1041+007621999GA2041+030481999GE19AGL   +99999+99999GF199999041999007621999999MA1102101999999REMMET072METAR HRYR 060000Z 08003KT 040V120 9999 SCT025 SCT100 19/18 Q1021 NOSIG=
0171643870999992024010600304-01969+030139FM-15+148199999V0201401N00151030481CN007000199+01901+01901999999ADDGA1041+007621999GA2041+030481999GE19AGL   +99999+99999GF199999041999007621999999MA1102101999999REMMET064METAR HRYR 060030Z 14003KT 7000 SCT025 SCT100 19/19 Q1021 NOSIG=
0171643870999992024010601004-01969+030139FM-15+148199999V0209999C00001030481CN009999199+01901+01901999999ADDGA1041+007621999GA2041+030481999GE19AGL   +99999+99999GF199999041999007621999999MA1102101999999REMMET064METAR HRYR 060100Z 00000KT 9999 SCT025 SCT100 19/19 Q1021 NOSIG=
0171643870999992024010601304-01969+030139FM-15+148199999V0201701N00151030481CN009000199+01901+01801999999ADDGA1041+007621999GA2041+030481999GE19AGL   +99999+99999GF199999041999007621999999MA1102101999999REMMET064METAR HRYR 060130Z 17003KT 9000 SCT025 SCT100 19/18 Q1021 NOSIG=
0171643870999992024010602304-01969+030139FM-15+148199999V0209999C00001030481CN009999199+01901+01801999999ADDGA1041+007621999GA2041+030481999GE19AGL   +99999+99999GF199999041999007621999999MA1102101999999REMMET064METAR HRYR 060230Z 00000KT 9999 SCT025 SCT100 19/18 Q1021 NOSIG=
0171643870999992024010603004-01969+030139FM-15+148199999V0202301N00151030481CN009999199+01901+01801999999ADDGA1041+007621999GA2041+030481999GE19AGL   +99999+99999GF199999041999007621999999MA1102101999999REMMET064METAR HRYR 060300Z 23003KT 9999 SCT025 SCT100 19/18 Q1021 NOSIG=
0171643870999992024010603304-01969+030139FM-15+148199999V0200201N00151030481CN008000199+01801+01801999999ADDGA1041+007621999GA2041+030481999GE19AGL   +99999+99999GF199999041999007621999999MA1102101999999REMMET064METAR HRYR 060330Z 02003KT 8000 SCT025 SCT100 18/18 Q1021 NOSIG=
0171643870999992024010604004-01969+030139FM-15+148199999V0202101N00151030481CN007000199+01801+01801999999ADDGA1041+007621999GA2041+030481999GE19AGL   +99999+99999GF199999041999007621999999MA1102201999999REMMET064METAR HRYR 060400Z 21003KT 7000 SCT025 SCT100 18/18 Q1022 NOSIG=
0171643870999992024010604304-01969+030139FM-15+148199999V0202201N00151007621CN005000199+01801+01801999999ADDGA1021+003051999GA2041+007621999GE19AGL   +99999+99999GF199999021999003051999999MA1102201999999REMMET064METAR HRYR 060430Z 22003KT 5000 FEW010 SCT025 18/18 Q1022 NOSIG=
0207643870999992024010605004-01969+030139FM-15+148199999V0200201N00151000611CN009000199+01905+01805999999ADDGA1021+003051999GA2041+000611999GE19AGL   +99999+99999GF199999021999003051999999MA1102305999999REMMET065METAR HRYR 060500Z 02003KT 9000 FEW010 SCT0025 19/18 Q1023 NOSIG=EQDD01      0ADE693D02      0ADE539
0207643870999992024010605304-01969+030139FM-15+148199999V0200201N00151000611CN004000199+01905+01805999999ADDGA1021+003051999GA2041+000611999GE19AGL   +99999+99999GF199999021999003051999999MA1102305999999REMMET065METAR HRYR 060530Z 02003KT 4000 FEW010 SCT0025 19/18 Q1023 NOSIG=EQDD01      0ADE693D02      0ADE539
0230643870999992024010606004-01967+030117FM-12+149199999V0200501N001512200019N005000199+02091+01841999999ADDGA1011+003001071GA2999+999999001GE19AGL   +99999+99999GF104991011999003001999999KA1240M+02741KA2240N+01851MA1999999085531ME1315489REMSYN08864387 32550 40503 10209 20184 38553 48548 82702 333 01300 10274 20185 50424 59002 81710=
0148643870999992024010606004-01969+030139FM-15+148199999V0200601N001519999999N006000199+02001+01801999999ADDGA1021+003051999GE19AGL   +99999+99999GF199999021999003051999999MA1102401999999REMMET057METAR HRYR 060600Z 06003KT 6000 FEW010 20/18 Q1024 NOSIG=
0148643870999992024010606304-01969+030139FM-15+148199999V0209999V001019999999N008000199+02201+01801999999ADDGA1021+007011999GE19AGL   +99999+99999GF199999021999007011999999MA1102401999999REMMET057METAR HRYR 060630Z VRB02KT 8000 FEW023 22/18 Q1024 NOSIG=
0171643870999992024010607004-01969+030139FM-15+148199999V0202101N00211030481CN009999199+02201+01801999999ADDGA1041+007011999GA2041+030481999GE19AGL   +99999+99999GF199999041999007011999999MA1102301999999REMMET064METAR HRYR 060700Z 21004KT 9999 SCT023 SCT100 22/18 Q1023 NOSIG=
0171643870999992024010607304-01969+030139FM-15+148199999V0202601N00211030481CN009999199+02201+01701999999ADDGA1041+007011999GA2041+030481999GE19AGL   +99999+99999GF199999041999007011999999MA1102301999999REMMET064METAR HRYR 060730Z 26004KT 9999 SCT023 SCT100 22/17 Q1023 NOSIG=
0171643870999992024010608004-01969+030139FM-15+148199999V0202701N00151030481CN009999199+02401+01701999999ADDGA1041+007621999GA2041+030481999GE19AGL   +99999+99999GF199999041999007621999999MA1102301999999REMMET064METAR HRYR 060800Z 27003KT 9999 SCT025 SCT100 24/17 Q1023 NOSIG=
0171643870999992024010608304-01969+030139FM-15+148199999V0209999V00101030481CN009999199+02401+01701999999ADDGA1041+007621999GA2041+030481999GE19AGL   +99999+99999GF199999041999007621999999MA1102301999999REMMET064METAR HRYR 060830Z VRB02KT 9999 SCT025 SCT100 24/17 Q1023 NOSIG=
0171643870999992024010609004-01969+030139FM-15+148199999V0200201N00151030481CN009999199+02501+01601999999ADDGA1041+007621999GA2041+030481999GE19AGL   +99999+99999GF199999041999007621999999MA1102301999999REMMET064METAR HRYR 060900Z 02003KT 9999 SCT025 SCT100 25/16 Q1023 NOSIG=
0171643870999992024010609304-01969+030139FM-15+148199999V0209999V00151030481CN009999199+02501+01701999999ADDGA1041+007621999GA2041+030481999GE19AGL   +99999+99999GF199999041999007621999999MA1102201999999REMMET064METAR HRYR 060930Z VRB03KT 9999 SCT025 SCT100 25/17 Q1022 NOSIG=
0148643870999992024010610004-01969+030139FM-15+148199999V0202301N002119999999N009999199+02701+01701999999ADDGA1041+007621999GE19AGL   +99999+99999GF199999041999007621999999MA1102101999999REMMET057METAR HRYR 061000Z 23004KT 9999 SCT025 27/17 Q1021 NOSIG=
0171643870999992024010611004-01969+030139FM-15+148199999V0201101N00211030481CN009999199+02601+01601999999ADDGA1041+007921999GA2041+030481999GE19AGL   +99999+99999GF199999041999007921999999MA1102001999999REMMET064METAR HRYR 061100Z 11004KT 9999 SCT026 SCT100 26/16 Q1020 NOSIG=
0171643870999992024010611304-01969+030139FM-15+148199999V0201001N00261030481CN009999199+02701+01601999999ADDGA1041+008531999GA2041+030481999GE19AGL   +99999+99999GF199999041999008531999999MA1101901999999REMMET064METAR HRYR 061130Z 10005KT 9999 SCT028 SCT100 27/16 Q1019 NOSIG=
0200643870999992024010612004-01967+030117FM-12+149199999V0201101N00361030001CN010000199+02671+01591999999ADDGA1041+007501081GA2031+030001031GE19AGL   +99999+99999GF107991041999007501999999MA1999999085291MD1999999-0081ME1315069REMSYN07064387 32560 71107 10267 20159 38529 48506 84230 333 59008 84825 83360=
0179643870999992024010612004-01969+030139FM-15+148199999V0201101V00361030481CN009999199+02601+01701999999ADDGA1041+007921999GA2041+030481999GE19AGL   +99999+99999GF199999041999007921999999MA1101801999999REMMET072METAR HRYR 061200Z 11007KT 060V150 9999 SCT026 SCT100 26/17 Q1018 NOSIG=
0179643870999992024010612304-01969+030139FM-15+148199999V0200801V00261030481CN009999199+02701+01601999999ADDGA1041+007921999GA2041+030481999GE19AGL   +99999+99999GF199999041999007921999999MA1101801999999REMMET072METAR HRYR 061230Z 08005KT 010V130 9999 SCT026 SCT100 27/16 Q1018 NOSIG=
0179643870999992024010613004-01969+030139FM-15+148199999V0200601V00261030481CN009999199+02701+01501999999ADDGA1041+007921999GA2041+030481999GE19AGL   +99999+99999GF199999041999007921999999MA1101801999999REMMET072METAR HRYR 061300Z 06005KT 350V110 9999 SCT026 SCT100 27/15 Q1018 NOSIG=
0156643870999992024010613304-01969+030139FM-15+148199999V0200901V004119999999N009999199+02801+01501999999ADDGA1041+007921999GE19AGL   +99999+99999GF199999041999007921999999MA1101701999999REMMET065METAR HRYR 061330Z 09008KT 060V140 9999 SCT026 28/15 Q1017 NOSIG=
0156643870999992024010614004-01969+030139FM-15+148199999V0200701V004619999999N009999199+02701+01501999999ADDGA1041+007921999GE19AGL   +99999+99999GF199999041999007921999999MA1101801999999REMMET065METAR HRYR 061400Z 07009KT 020V090 9999 SCT026 27/15 Q1018 NOSIG=
0148643870999992024010614304-01969+030139FM-15+148199999V0200501N004119999999N009999199+02701+01501999999ADDGA1021+007921999GE19AGL   +99999+99999GF199999021999007921999999MA1101701999999REMMET057METAR HRYR 061430Z 05008KT 9999 FEW026 27/15 Q1017 NOSIG=
0148643870999992024010615004-01969+030139FM-15+148199999V0200701N003619999999N009999199+02601+01501999999ADDGA1041+007921999GE19AGL   +99999+99999GF199999041999007921999999MA1101701999999REMMET057METAR HRYR 061500Z 07007KT 9999 SCT026 26/15 Q1017 NOSIG=
0148643870999992024010615304-01969+030139FM-15+148199999V0200601N003619999999N009999199+02601+01501999999ADDGA1021+007921999GE19AGL   +99999+99999GF199999021999007921999999MA1101701999999REMMET057METAR HRYR 061530Z 06007KT 9999 FEW026 26/15 Q1017 NOSIG=
0148643870999992024010616004-01969+030139FM-15+148199999V0200501N003619999999N009999199+02501+01501999999ADDGA1021+007921999GE19AGL   +99999+99999GF199999021999007921999999MA1101801999999REMMET057METAR HRYR 061600Z 05007KT 9999 FEW026 25/15 Q1018 NOSIG=
0148643870999992024010617004-01969+030139FM-15+148199999V0203601N002119999999N009999199+02401+01601999999ADDGA1021+007921999GE19AGL   +99999+99999GF199999021999007921999999MA1101901999999REMMET057METAR HRYR 061700Z 36004KT 9999 FEW026 24/16 Q1019 NOSIG=
0179643870999992024010617304-01969+030139FM-15+148199999V0200401V00151030481CN009999199+02401+01501999999ADDGA1021+007621999GA2041+030481999GE19AGL   +99999+99999GF199999021999007621999999MA1102001999999REMMET072METAR HRYR 061730Z 04003KT 360V100 9999 FEW025 SCT100 24/15 Q1020 NOSIG=
0219643870999992024010618004-01967+030117FM-12+149199999V0200401N00151030001CN010000199+02381+01541999999ADDGA1021+007501081GA2031+030001031GE19AGL   +99999+99999GF105991021999007501999999KA1120M+02821MA1999999085241MD1999999-0061ME1315199REMSYN07664387 32560 50403 10238 20154 38524 48519 82230 333 10282 59006 82825 83360=
0171643870999992024010618004-01969+030139FM-15+148199999V0200101N00211030481CN009999199+02301+01601999999ADDGA1021+007621999GA2041+030481999GE19AGL   +99999+99999GF199999021999007621999999MA1102001999999REMMET064METAR HRYR 061800Z 01004KT 9999 FEW025 SCT100 23/16 Q1020 NOSIG=
0148643870999992024010618304-01969+030139FM-15+148199999V0203501N002119999999N009999199+02301+01601999999ADDGA1021+007621999GE19AGL   +99999+99999GF199999021999007621999999MA1102101999999REMMET057METAR HRYR 061830Z 35004KT 9999 FEW025 23/16 Q1021 NOSIG=
0171643870999992024010619004-01969+030139FM-15+148199999V0200401N00311030481CN009999199+02301+01601999999ADDGA1021+007621999GA2041+030481999GE19AGL   +99999+99999GF199999021999007621999999MA1102101999999REMMET064METAR HRYR 061900Z 04006KT 9999 FEW025 SCT100 23/16 Q1021 NOSIG=
0171643870999992024010619304-01969+030139FM-15+148199999V0200401N00311030481CN009999199+02201+01601999999ADDGA1021+007621999GA2041+030481999GE19AGL   +99999+99999GF199999021999007621999999MA1102101999999REMMET064METAR HRYR 061930Z 04006KT 9999 FEW025 SCT100 22/16 Q1021 NOSIG=
0171643870999992024010620004-01969+030139FM-15+148199999V0203301N00211030481CN009999199+02201+01601999999ADDGA1021+007621999GA2041+030481999GE19AGL   +99999+99999GF199999021999007621999999MA1102101999999REMMET064METAR HRYR 062000Z 33004KT 9999 FEW025 SCT100 22/16 Q1021 NOSIG=
0171643870999992024010620304-01969+030139FM-15+148199999V0209999V00101030481CN009999199+02301+01601999999ADDGA1021+007011999GA2041+030481999GE19AGL   +99999+99999GF199999021999007011999999MA1102101999999REMMET064METAR HRYR 062030Z VRB02KT 9999 FEW023 SCT100 23/16 Q1021 NOSIG=
0148643870999992024010621004-01969+030139FM-15+148199999V0200801N002119999999N009999199+02201+01601999999ADDGA1021+007011999GE19AGL   +99999+99999GF199999021999007011999999MA1102101999999REMMET057METAR HRYR 062100Z 08004KT 9999 FEW023 22/16 Q1021 NOSIG=
0148643870999992024010621304-01969+030139FM-15+148199999V0202101N002119999999N009999199+02101+01701999999ADDGA1021+007011999GE19AGL   +99999+99999GF199999021999007011999999MA1102101999999REMMET057METAR HRYR 062130Z 21004KT 9999 FEW023 21/17 Q1021 NOSIG=
0148643870999992024010622004-01969+030139FM-15+148199999V0202101N001019999999N009999199+02101+01701999999ADDGA1021+007011999GE19AGL   +99999+99999GF199999021999007011999999MA1102101999999REMMET057METAR HRYR 062200Z 21002KT 9999 FEW023 21/17 Q1021 NOSIG=
0148643870999992024010622304-01969+030139FM-15+148199999V0203601N001519999999N009999199+02101+01701999999ADDGA1021+007011999GE19AGL   +99999+99999GF199999021999007011999999MA1102001999999REMMET057METAR HRYR 062230Z 36003KT 9999 FEW023 21/17 Q1020 NOSIG=
0172643870999992024010623004-01969+030139FM-15+148199999V0209999N99999030481CN009999199+02101+01701999999ADDGA1041+007011999GA2041+030481999GE19AGL   +99999+99999GF199999041999007011999999MA1102001999999REMMET065METAR HRYR 062300Z VRB002KT 9999 SCT023 SCT100 21/17 Q1020 NOSIG=
0171643870999992024010623304-01969+030139FM-15+148199999V0203601N00151030481CN009999199+02001+01701999999ADDGA1041+006711999GA2041+030481999GE19AGL   +99999+99999GF199999041999006711999999MA1102001999999REMMET064METAR HRYR 062330Z 36003KT 9999 SCT022 SCT100 20/17 Q1020 NOSIG=
0171643870999992024010700004-01969+030139FM-15+148199999V0209999C00001030481CN009999199+02001+01701999999ADDGA1041+006711999GA2041+030481999GE19AGL   +99999+99999GF199999041999006711999999MA1101901999999REMMET064METAR HRYR 070000Z 00000KT 9999 SCT022 SCT100 20/17 Q1019 NOSIG=
0171643870999992024010700304-01969+030139FM-15+148199999V0201001N001510304819N009999199+02001+01801999999ADDGA1041+006711999GA2071+030481999GE19AGL   +99999+99999GF199999041999006711999999MA1101901999999REMMET064METAR HRYR 070030Z 10003KT 9999 SCT022 BKN100 20/18 Q1019 NOSIG=
0171643870999992024010701004-01969+030139FM-15+148199999V0209999C000010304819N009999199+02001+01801999999ADDGA1041+006711999GA2071+030481999GE19AGL   +99999+99999GF199999041999006711999999MA1102001999999REMMET064METAR HRYR 070100Z 00000KT 9999 SCT022 BKN100 20/18 Q1020 NOSIG=
0171643870999992024010701304-01969+030139FM-15+148199999V0209999C000010304819N009999199+02001+01801999999ADDGA1041+006711999GA2071+030481999GE19AGL   +99999+99999GF199999041999006711999999MA1102001999999REMMET064METAR HRYR 070130Z 00000KT 9999 SCT022 BKN100 20/18 Q1020 NOSIG=
0171643870999992024010702004-01969+030139FM-15+148199999V0200601N002110304819N009999199+02001+01801999999ADDGA1041+006711999GA2071+030481999GE19AGL   +99999+99999GF199999041999006711999999MA1102001999999REMMET064METAR HRYR 070200Z 06004KT 9999 SCT022 BKN100 20/18 Q1020 NOSIG=
0171643870999992024010702304-01969+030139FM-15+148199999V0200101N002110304819N009000199+02001+01901999999ADDGA1041+006711999GA2071+030481999GE19AGL   +99999+99999GF199999041999006711999999MA1102001999999REMMET064METAR HRYR 070230Z 01004KT 9000 SCT022 BKN100 20/19 Q1020 NOSIG=
0171643870999992024010703004-01969+030139FM-15+148199999V0200101N00211006711CN009000199+02001+01801999999ADDGA1071+006711999GA2071+030481999GE19AGL   +99999+99999GF199999071999006711999999MA1102001999999REMMET064METAR HRYR 070300Z 01004KT 9000 BKN022 BKN100 20/18 Q1020 NOSIG=
0171643870999992024010703304-01969+030139FM-15+148199999V0209999V00101006711CN009000199+02001+01801999999ADDGA1071+006711999GA2071+030481999GE19AGL   +99999+99999GF199999071999006711999999MA1102001999999REMMET064METAR HRYR 070330Z VRB02KT 9000 BKN022 BKN100 20/18 Q1020 NOSIG=
0171643870999992024010704004-01969+030139FM-15+148199999V0201401N00261006711CN006000199+01901+01901999999ADDGA1071+006711999GA2071+030481999GE19AGL   +99999+99999GF199999071999006711999999MA1102001999999REMMET064METAR HRYR 070400Z 14005KT 6000 BKN022 BKN100 19/19 Q1020 NOSIG=
0171643870999992024010704304-01969+030139FM-15+148199999V0201801N001510304819N009999199+01901+01701999999ADDGA1041+006101999GA2071+030481999GE19AGL   +99999+99999GF199999041999006101999999MA1102101999999REMMET064METAR HRYR 070430Z 18003KT 9999 SCT020 BKN100 19/17 Q1021 NOSIG=
0171643870999992024010705004-01969+030139FM-15+148199999V0202101N001510304819N006000199+01901+01901999999ADDGA1041+006101999GA2071+030481999GE19AGL   +99999+99999GF199999041999006101999999MA1102101999999REMMET064METAR HRYR 070500Z 21003KT 6000 SCT020 BKN100 19/19 Q1021 NOSIG=
0171643870999992024010705304-01969+030139FM-15+148199999V0209999C00001091441CN008000199+02001+01901999999ADDGA1041+006101999GA2041+091441999GE19AGL   +99999+99999GF199999041999006101999999MA1102201999999REMMET064METAR HRYR 070530Z 00000KT 8000 SCT020 SCT300 20/19 Q1022 NOSIG=
0171643870999992024010706004-01969+030139FM-15+148199999V0209999V00101091441CN008000199+02001+01801999999ADDGA1041+007011999GA2041+091441999GE19AGL   +99999+99999GF199999041999007011999999MA1102201999999REMMET064METAR HRYR 070600Z VRB02KT 8000 SCT023 SCT300 20/18 Q1022 NOSIG=
0171643870999992024010706304-01969+030139FM-15+148199999V0202701N00151030481CN009999199+02201+01801999999ADDGA1041+007011999GA2041+030481999GE19AGL   +99999+99999GF199999041999007011999999MA1102201999999REMMET064METAR HRYR 070630Z 27003KT 9999 SCT023 SCT100 22/18 Q1022 NOSIG=
0171643870999992024010707004-01969+030139FM-15+148199999V0201601N00361030481CN009999199+02201+01801999999ADDGA1041+007011999GA2041+030481999GE19AGL   +99999+99999GF199999041999007011999999MA1102201999999REMMET064METAR HRYR 070700Z 16007KT 9999 SCT023 SCT100 22/18 Q1022 NOSIG=
0179643870999992024010707304-01969+030139FM-15+148199999V0201501V00261030481CN009999199+02301+01701999999ADDGA1041+007011999GA2041+030481999GE19AGL   +99999+99999GF199999041999007011999999MA1102201999999REMMET072METAR HRYR 070730Z 15005KT 120V190 9999 SCT023 SCT100 23/17 Q1022 NOSIG=
0179643870999992024010708004-01969+030139FM-15+148199999V0201401V00411030481CN009999199+02301+01701999999ADDGA1041+007011999GA2041+030481999GE19AGL   +99999+99999GF199999041999007011999999MA1102201999999REMMET072METAR HRYR 070800Z 14008KT 100V170 9999 SCT023 SCT100 23/17 Q1022 NOSIG=
0179643870999992024010708304-01969+030139FM-15+148199999V0201601V00361030481CN009999199+02401+01801999999ADDGA1041+007011999GA2041+030481999GE19AGL   +99999+99999GF199999041999007011999999MA1102201999999REMMET072METAR HRYR 070830Z 16007KT 120V190 9999 SCT023 SCT100 24/18 Q1022 NOSIG=
0179643870999992024010709004-01969+030139FM-15+148199999V0201401V00411030481CN009999199+02301+01701999999ADDGA1041+007011999GA2041+030481999GE19AGL   +99999+99999GF199999041999007011999999MA1102201999999REMMET072METAR HRYR 070900Z 14008KT 100V170 9999 SCT023 SCT100 23/17 Q1022 NOSIG=
0126643870999992024010709304-01969+030139FM-15+148199999V0209999N999999999999N999999999+02405+01705999999ADDMA1102105999999REMMET064METAR HRYR 070930Z 21006T 170V270 9999 BKN025 24/17 Q1021 NOSIG=EQDD01      0ADE693D02      0ADE539
0148643870999992024010710004-01969+030139FM-15+148199999V0201501N00311007621CN009999199+02501+01701999999ADDGA1071+007621999GE19AGL   +99999+99999GF199999071999007621999999MA1102001999999REMMET057METAR HRYR 071000Z 15006KT 9999 BKN025 25/17 Q1020 NOSIG=
0156643870999992024010710304-01969+030139FM-15+148199999V0201901V00261007621CN009999199+02601+01701999999ADDGA1071+007621999GE19AGL   +99999+99999GF199999071999007621999999MA1102001999999REMMET065METAR HRYR 071030Z 19005KT 140V250 9999 BKN025 26/17 Q1020 NOSIG=
0179643870999992024010711004-01969+030139FM-15+148199999V0202301N002610076219N009999199+02601+01701999999ADDGA1021+007011091GA2071+007621999GE19AGL   +99999+99999GF199999021999007011999999MA1101901999999REMMET072METAR HRYR 071100Z 23005KT 9999 FEW023CB BKN025 26/17 Q1019 TEMPO -TSRA=
0173643870999992024010711304-01969+030139FM-15+148199999V0201901N004110076219N009999199+02501+01801999999ADDGA1021+007011091GA2071+007621999GE19AGL   +99999+99999GF199999021999007011999999MA1101801999999REMMET066METAR HRYR 071130Z 19008KT 9999 FEW023CB BKN025 25/18 Q1018 NOSIG=
0173643870999992024010712004-01969+030139FM-15+148199999V0201901N005110076219N009999199+02501+01801999999ADDGA1021+007011091GA2071+007621999GE19AGL   +99999+99999GF199999021999007011999999MA1101801999999REMMET066METAR HRYR 071200Z 19010KT 9999 FEW023CB BKN025 25/18 Q1018 NOSIG=
0173643870999992024010712304-01969+030139FM-15+148199999V0201901N006210076219N009999199+02401+01701999999ADDGA1021+007011091GA2071+007621999GE19AGL   +99999+99999GF199999021999007011999999MA1101701999999REMMET066METAR HRYR 071230Z 19012KT 9999 FEW023CB BKN025 24/17 Q1017 NOSIG=
0184643870999992024010713004-01969+030139FM-15+148199999V0201201N005710070119N009000199+02201+01801999999ADDGA1021+006401091GA2071+007011999GE19AGL   +99999+99999GF199999021999006401999999MA1101801999999MW1951REMMET071METAR HRYR 071300Z 12011KT 9000 TSRA FEW021CB BKN023 22/18 Q1018 NOSIG=
0184643870999992024010713304-01969+030139FM-15+148199999V0202601N003610070119N009999199+02001+01801999999ADDGA1021+006401091GA2071+007011999GE19AGL   +99999+99999GF199999021999006401999999MA1101801999999MW1951REMMET071METAR HRYR 071330Z 26007KT 9999 TSRA FEW021CB BKN023 20/18 Q1018 NOSIG=
0215643870999992024010714004-01969+030139FM-15+148199999V0202401V005110061019N004000199+01801+01801999999ADDGA1021+001521999GA2021+004571091GA3081+006101999GE19AGL   +99999+99999GF199999021999001521999999MA1101801999999MW1951REMMET086METAR HRYR 071400Z 24010KT 170V260 4000 TSRA FEW005 FEW015CB OVC020 18/18 Q1018 NOSIG=
0193643870999992024010714304-01969+030139FM-15+148199999V0203101V003110061019N009999199+01901+01801999999ADDGA1021+004571091GA2071+006101999GE19AGL   +99999+99999GF199999021999004571999999MA1101801999999MW1951REMMET080METAR HRYR 071430Z 31006KT 240V020 9999 -TSRA FEW015CB BKN020 19/18 Q1018 NOSIG=
0180643870999992024010715004-01969+030139FM-15+148199999V0203601N003110064019N009999199+02001+01701999999ADDGA1021+005491091GA2071+006401999GE19AGL   +99999+99999GF199999021999005491999999MA1101801999999REMMET073METAR HRYR 071500Z 36006KT 9999 FEW018CB BKN021 20/17 Q1018 RETSRA NOSIG=
0179643870999992024010715304-01969+030139FM-15+148199999V0203201V00211006401CN009999199+02001+01701999999ADDGA1071+006401999GA2041+030481999GE19AGL   +99999+99999GF199999071999006401999999MA1101801999999REMMET072METAR HRYR 071530Z 32004KT 300V360 9999 BKN021 SCT100 20/17 Q1018 NOSIG=
0179643870999992024010716004-01969+030139FM-15+148199999V0202701V00211007011CN009999199+02001+01701999999ADDGA1071+007011999GA2041+030481999GE19AGL   +99999+99999GF199999071999007011999999MA1101801999999REMMET072METAR HRYR 071600Z 27004KT 230V340 9999 BKN023 SCT100 20/17 Q1018 NOSIG=
0179643870999992024010716304-01969+030139FM-15+148199999V0203101V00151007011CN009999199+02001+01701999999ADDGA1071+007011999GA2041+030481999GE19AGL   +99999+99999GF199999071999007011999999MA1101901999999REMMET072METAR HRYR 071630Z 31003KT 280V340 9999 BKN023 SCT100 20/17 Q1019 NOSIG=
0171643870999992024010717004-01969+030139FM-15+148199999V0203201N00211007011CN009999199+02001+01801999999ADDGA1071+007011999GA2041+030481999GE19AGL   +99999+99999GF199999071999007011999999MA1101901999999REMMET064METAR HRYR 071700Z 32004KT 9999 BKN023 SCT100 20/18 Q1019 NOSIG=
0171643870999992024010717304-01969+030139FM-15+148199999V0209999V00101007011CN009999199+01901+01801999999ADDGA1071+007011999GA2041+030481999GE19AGL   +99999+99999GF199999071999007011999999MA1102001999999REMMET064METAR HRYR 071730Z VRB02KT 9999 BKN023 SCT100 19/18 Q1020 NOSIG=
0171643870999992024010718004-01969+030139FM-15+148199999V0203501N00151007011CN009999199+02001+01701999999ADDGA1071+007011999GA2041+030481999GE19AGL   +99999+99999GF199999071999007011999999MA1102001999999REMMET064METAR HRYR 071800Z 35003KT 9999 BKN023 SCT100 20/17 Q1020 NOSIG=
0171643870999992024010718304-01969+030139FM-15+148199999V0209999V00101030481CN009999199+01901+01801999999ADDGA1041+007011999GA2041+030481999GE19AGL   +99999+99999GF199999041999007011999999MA1102101999999REMMET064METAR HRYR 071830Z VRB02KT 9999 SCT023 SCT100 19/18 Q1021 NOSIG=
0179643870999992024010719004-01969+030139FM-15+148199999V0201901V00151030481CN009999199+01901+01801999999ADDGA1041+007011999GA2041+030481999GE19AGL   +99999+99999GF199999041999007011999999MA1102101999999REMMET072METAR HRYR 071900Z 19003KT 160V220 9999 SCT023 SCT100 19/18 Q1021 NOSIG=
0171643870999992024010719304-01969+030139FM-15+148199999V0202201N00151030481CN008000199+01901+01901999999ADDGA1041+007011999GA2041+030481999GE19AGL   +99999+99999GF199999041999007011999999MA1102101999999REMMET064METAR HRYR 071930Z 22003KT 8000 SCT023 SCT100 19/19 Q1021 NOSIG=
0179643870999992024010720004-01969+030139FM-15+148199999V0203301V00211030481CN009000199+01901+01801999999ADDGA1041+007011999GA2041+030481999GE19AGL   +99999+99999GF199999041999007011999999MA1102101999999REMMET072METAR HRYR 072000Z 33004KT 290V360 9000 SCT023 SCT100 19/18 Q1021 NOSIG=
0171643870999992024010720304-01969+030139FM-15+148199999V0203401N00361030481CN008000199+01901+01901999999ADDGA1041+007011999GA2041+030481999GE19AGL   +99999+99999GF199999041999007011999999MA1102101999999REMMET064METAR HRYR 072030Z 34007KT 8000 SCT023 SCT100 19/19 Q1021 NOSIG=
0179643870999992024010721004-01969+030139FM-15+148199999V0200201V00261030481CN008000199+01901+01801999999ADDGA1021+007621999GA2041+030481999GE19AGL   +99999+99999GF199999021999007621999999MA1102101999999REMMET072METAR HRYR 072100Z 02005KT 290V040 8000 FEW025 SCT100 19/18 Q1021 NOSIG=
0171643870999992024010721304-01969+030139FM-15+148199999V0202101N00101030481CN008000199+01801+01801999999ADDGA1021+007621999GA2041+030481999GE19AGL   +99999+99999GF199999021999007621999999MA1102101999999REMMET064METAR HRYR 072130Z 21002KT 8000 FEW025 SCT100 18/18 Q1021 NOSIG=
0171643870999992024010722004-01969+030139FM-15+148199999V0209999V00101030481CN007000199+01801+01801999999ADDGA1021+003051999GA2041+030481999GE19AGL   +99999+99999GF199999021999003051999999MA1102101999999REMMET064METAR HRYR 072200Z VRB02KT 7000 FEW010 SCT100 18/18 Q1021 NOSIG=
0171643870999992024010722304-01969+030139FM-15+148199999V0203501N00101030481CN007000199+01801+01801999999ADDGA1021+003051999GA2041+030481999GE19AGL   +99999+99999GF199999021999003051999999MA1102001999999REMMET064METAR HRYR 072230Z 35002KT 7000 FEW010 SCT100 18/18 Q1020 NOSIG=
0171643870999992024010723004-01969+030139FM-15+148199999V0203301N00211030481CN006000199+01801+01801999999ADDGA1021+003051999GA2041+030481999GE19AGL   +99999+99999GF199999021999003051999999MA1102001999999REMMET064METAR HRYR 072300Z 33004KT 6000 FEW010 SCT100 18/18 Q1020 NOSIG=
0185643870999992024010723304-01969+030139FM-15+148199999V0200201N00261030481CN005000199+01801+01801999999ADDGA1021+003051999GA2041+030481999GE19AGL   +99999+99999GF199999021999003051999999MA1102001999999MW1101REMMET072METAR HRYR 072330Z 02005KT 5000 BR FEW010 SCT100 18/18 Q1020 BECMG 2000=
0171643870999992024010800004-01969+030139FM-15+148199999V0203601N00211030481CN006000199+01801+01801999999ADDGA1021+003051999GA2041+030481999GE19AGL   +99999+99999GF199999021999003051999999MA1102001999999REMMET064METAR HRYR 080000Z 36004KT 6000 FEW010 SCT100 18/18 Q1020 NOSIG=
0171643870999992024010800304-01969+030139FM-15+148199999V0202401N00151030481CN009999199+01801+01801999999ADDGA1021+007011999GA2041+030481999GE19AGL   +99999+99999GF199999021999007011999999MA1102001999999REMMET064METAR HRYR 080030Z 24003KT 9999 FEW023 SCT100 18/18 Q1020 NOSIG=
0171643870999992024010801004-01969+030139FM-15+148199999V0203301N00151030481CN009999199+01801+01801999999ADDGA1021+007011999GA2041+030481999GE19AGL   +99999+99999GF199999021999007011999999MA1101901999999REMMET064METAR HRYR 080100Z 33003KT 9999 FEW023 SCT100 18/18 Q1019 NOSIG=
0171643870999992024010801304-01969+030139FM-15+148199999V0209999V00101030481CN009999199+01801+01801999999ADDGA1021+007011999GA2041+030481999GE19AGL   +99999+99999GF199999021999007011999999MA1101901999999REMMET064METAR HRYR 080130Z VRB02KT 9999 FEW023 SCT100 18/18 Q1019 NOSIG=
0176643870999992024010802004-01969+030139FM-15+148199999V0209999V00101030481CN009999199+01701+01701999999ADDGA1021+007011999GA2041+030481999GE19AGL   +99999+99999GF199999021999007011999999MA1102001999999REMMET069METAR HRYR 080200Z VRB02KT 9999 FEW023 SCT100 17/17 Q1020 BECMG 3000=
0171643870999992024010802304-01969+030139FM-15+148199999V0203101N00261030481CN009999199+01701+01701999999ADDGA1021+007011999GA2041+030481999GE19AGL   +99999+99999GF199999021999007011999999MA1102001999999REMMET064METAR HRYR 080230Z 31005KT 9999 FEW023 SCT100 17/17 Q1020 NOSIG=
0171643870999992024010803004-01969+030139FM-15+148199999V0202501N00101030481CN009999199+01701+01701999999ADDGA1021+007011999GA2041+030481999GE19AGL   +99999+99999GF199999021999007011999999MA1102001999999REMMET064METAR HRYR 080300Z 25002KT 9999 FEW023 SCT100 17/17 Q1020 NOSIG=
0171643870999992024010803304-01969+030139FM-15+148199999V0209999C00001030481CN009999199+01701+01701999999ADDGA1021+007011999GA2041+030481999GE19AGL   +99999+99999GF199999021999007011999999MA1102001999999REMMET064METAR HRYR 080330Z 00000KT 9999 FEW023 SCT100 17/17 Q1020 NOSIG=
0203643870999992024010804004-01969+030139FM-15+148199999V0201701N00101001831CN000200199+01701+01701999999ADDGA1021+000911999GA2041+001831999GA3071+027431999GE19AGL   +99999+99999GF199999021999000911999999MA1102101999999MW1441REMMET074METAR HRYR 080400Z 17002KT 0200 FG FEW003 SCT006 BKN090 17/17 Q1021 NOSIG=
0203643870999992024010804304-01969+030139FM-15+148199999V0202701N00101005491CN001500199+01701+01701999999ADDGA1021+000911999GA2041+005491999GA3071+027431999GE19AGL   +99999+99999GF199999021999000911999999MA1102101999999MW1101REMMET074METAR HRYR 080430Z 27002KT 1500 BR FEW003 SCT018 BKN090 17/17 Q1021 NOSIG=
0180643870999992024010805004-01969+030139FM-15+148199999V0209999V001010054919N001000199+01701+01701999999ADDGA1041+002441999GA2071+005491999GE19AGL   +99999+99999GF199999041999002441999999MA1102201999999MW1441REMMET067METAR HRYR 080500Z VRB02KT 1000 FG SCT008 BKN018 17/17 Q1022 NOSIG=
0180643870999992024010805304-01969+030139FM-15+148199999V0203301N002110054919N001000199+01701+01701999999ADDGA1041+002441999GA2071+005491999GE19AGL   +99999+99999GF199999041999002441999999MA1102201999999MW1441REMMET067METAR HRYR 080530Z 33004KT 1000 FG SCT008 BKN018 17/17 Q1022 NOSIG=
0180643870999992024010806004-01969+030139FM-15+148199999V0200101N001510054919N005000199+01801+01701999999ADDGA1041+002441999GA2071+005491999GE19AGL   +99999+99999GF199999041999002441999999MA1102201999999MW1101REMMET067METAR HRYR 080600Z 01003KT 5000 BR SCT008 BKN018 18/17 Q1022 NOSIG=
0124643870999992024010806304-01969+030139FM-15+148199999V0209999N999999999999N005000599+01905+01805999999ADDMA1102205999999MW1105REMMET072METAR HRYR 080630Z VRBKT 5000 BR FEW010 SCT020 BKN090 19/18 Q1022 NOSIG=EQDD01      0ADE735
0148643870999992024010807304-01969+030139FM-15+148199999V0209999V001019999999N008000199+02301+01701999999ADDGA1041+007011999GE19AGL   +99999+99999GF199999041999007011999999MA1102101999999REMMET057METAR HRYR 080730Z VRB02KT 8000 SCT023 23/17 Q1021 NOSIG=
0148643870999992024010808304-01969+030139FM-15+148199999V0202301N001519999999N009000199+02401+01801999999ADDGA1041+007321999GE19AGL   +99999+99999GF199999041999007321999999MA1102101999999REMMET057METAR HRYR 080830Z 23003KT 9000 SCT024 24/18 Q1021 NOSIG=
0148643870999992024010809304-01969+030139FM-15+148199999V0201501N003119999999N009000199+02401+01801999999ADDGA1041+007321999GE19AGL   +99999+99999GF199999041999007321999999MA1102001999999REMMET057METAR HRYR 080930Z 15006KT 9000 SCT024 24/18 Q1020 NOSIG=
0156643870999992024010810304-01969+030139FM-15+148199999V0201201V002119999999N009999199+02601+01701999999ADDGA1041+007321999GE19AGL   +99999+99999GF199999041999007321999999MA1101901999999REMMET065METAR HRYR 081030Z 12004KT 080V200 9999 SCT024 26/17 Q1019 NOSIG=
0148643870999992024010811304-01969+030139FM-15+148199999V0200901N00211007621CN009999199+02701+01601999999ADDGA1071+007621999GE19AGL   +99999+99999GF199999071999007621999999MA1101701999999REMMET057METAR HRYR 081130Z 09004KT 9999 BKN025 27/16 Q1017 NOSIG=
0148643870999992024010812004-01969+030139FM-15+148199999V0200701N00211007621CN009999199+02701+01501999999ADDGA1071+007621999GE19AGL   +99999+99999GF199999071999007621999999MA1101701999999REMMET057METAR HRYR 081200Z 07004KT 9999 BKN025 27/15 Q1017 NOSIG=
0179643870999992024010813004-01969+030139FM-15+148199999V0200801V003610304819N009999199+02701+01601999999ADDGA1041+007621999GA2071+030481999GE19AGL   +99999+99999GF199999041999007621999999MA1101601999999REMMET072METAR HRYR 081300Z 08007KT 040V120 9999 SCT025 BKN100 27/16 Q1016 NOSIG=
0171643870999992024010814304-01969+030139FM-15+148199999V0200301N003610304819N009999199+02701+01401999999ADDGA1041+007621999GA2071+030481999GE19AGL   +99999+99999GF199999041999007621999999MA1101601999999REMMET064METAR HRYR 081430Z 03007KT 9999 SCT025 BKN100 27/14 Q1016 NOSIG=
0171643870999992024010815304-01969+030139FM-15+148199999V0200601N00261030481CN009999199+02501+01501999999ADDGA1041+007621999GA2041+030481999GE19AGL   +99999+99999GF199999041999007621999999MA1101601999999REMMET064METAR HRYR 081530Z 06005KT 9999 SCT025 SCT100 25/15 Q1016 NOSIG=
0148643870999992024010816304-01969+030139FM-15+148199999V0201001N002119999999N009999199+02401+01601999999ADDGA1021+007621999GE19AGL   +99999+99999GF199999021999007621999999MA1101701999999REMMET057METAR HRYR 081630Z 10004KT 9999 FEW025 24/16 Q1017 NOSIG=
0148643870999992024010817004-01969+030139FM-15+148199999V0200701N002619999999N009999199+02301+01701999999ADDGA1021+007621999GE19AGL   +99999+99999GF199999021999007621999999MA1101701999999REMMET057METAR HRYR 081700Z 07005KT 9999 FEW025 23/17 Q1017 NOSIG=
