0080712230999992024010100004+51933-110700FM-12+077299999V0202801N004119999999N999999999-00331-00611999999ADDAA106000091AA224999919REMSYN04671223 16/// /2808 11033 21061 60001 333 7////=
0058712230999992024010100004+51930-110720SAO  +077299999V020290190041199999999999999999-00331-00611999999REMAWY049XCS SA 0000 AUTO8 M M M M/-03/-06/2908/M/ M 31MM=
0058712230999992024010101004+51930-110720SAO  +077299999V020310190067199999999999999999-00241-00521999999REMAWY049XCS SA 0100 AUTO8 M M M M/-02/-05/3113/M/ M 42MM=
0058712230999992024010102004+51930-110720SAO  +077299999V020310190062199999999999999999-00391-00581999999REMAWY049XCS SA 0200 AUTO8 M M M M/-04/-06/3112/M/ M 98MM=
0063712230999992024010115004+51933-110700FM-12+077299999V0203601N002619999999N999999999-00761-00911999999ADDAA103999999REMSYN04071223 46/// /0005 11076 21091 333 6///7=
0059712230999992024010115004+51930-110720SAO  +077299999V020360190026199999999999999999-00761-00911999999REMAWY050XCS SA 1500 AUTO8 M M M M/-08/-09/3605/M/M M 61MM=
0059712230999992024010116004+51930-110720SAO  +077299999V020290190062199999999999999999-00441-00661999999REMAWY050XCS SA 1600 AUTO8 M M M M/-04/-07/2912/M/M M 46MM=
0059712230999992024010117004+51930-110720SAO  +077299999V020290190067199999999999999999-00291-00571999999REMAWY050XCS SA 1700 AUTO8 M M M M/-03/-06/2913/M/M M 97MM=
0080712230999992024010118004+51933-110700FM-12+077299999V0202901N005719999999N999999999-00111-00491999999ADDAA106999919AA224999919REMSYN04671223 46/// /2911 11011 21049 6///1 333 7////=
0059712230999992024010118004+51930-110720SAO  +077299999V020290190057199999999999999999-00111-00491999999REMAWY050XCS SA 1800 AUTO8 M M M M/-01/-05/2911/M/M M 19MM=
0059712230999992024010216004+51930-110720SAO  +077299999V020360190000199999999999999999-00721-00821999999REMAWY050XCS SA 1600 AUTO8 M M M M/-07/-08/0000/M/M M 22MM=
0059712230999992024010217004+51930-110720SAO  +077299999V020220190005199999999999999999-00551-00801999999REMAWY050XCS SA 1700 AUTO8 M M M M/-06/-08/2201/M/M M 50MM=
0080712230999992024010218004+51933-110700FM-12+077299999V0200901N001019999999N999999999-00461-00701999999ADDAA106999919AA224999919REMSYN04671223 46/// /0902 11046 21070 6///1 333 7////=
0059712230999992024010218004+51930-110720SAO  +077299999V020090190010199999999999999999-00461-00701999999REMAWY050XCS SA 1800 AUTO8 M M M M/-05/-07/0902/M/M M 60MM=
0058712230999992024010219004+51930-110720SAO  +077299999V020110190010199999999999999999-00301-00631999999REMAWY049XCS SA 1900 AUTO8 M M M M/-03/-06/1102/M/ M 03MM=
0058712230999992024010220004+51930-110720SAO  +077299999V020070190026199999999999999999-00361-00621999999REMAWY049XCS SA 2000 AUTO8 M M M M/-04/-06/0705/M/ M 62MM=
0063712230999992024010221004+51933-110700FM-12+077299999V0200901N001019999999N999999999-00221-00621999999ADDAA103000091REMSYN04071223 26/// /0902 11022 21062 333 60007=
0058712230999992024010221004+51930-110720SAO  +077299999V020100190010199999999999999999-00221-00621999999REMAWY049XCS SA 2100 AUTO8 M M M M/-02/-06/1002/M/ M 22MM=
0058712230999992024010222004+51930-110720SAO  +077299999V020070190015199999999999999999-00251-00641999999REMAWY049XCS SA 2200 AUTO8 M M M M/-03/-06/0703/M/ M 54MM=
0058712230999992024010223004+51930-110720SAO  +077299999V020070190021199999999999999999-00431-00731999999REMAWY049XCS SA 2300 AUTO8 M M M M/-04/-07/0704/M/ M 33MM=
0080712230999992024010300004+51933-110700FM-12+077299999V0200501N002119999999N999999999-00651-00831999999ADDAA106000091AA224999919REMSYN04671223 16/// /0504 11065 21083 60001 333 7////=
0058712230999992024010300004+51930-110720SAO  +077299999V020050190021199999999999999999-00651-00831999999REMAWY049XCS SA 0000 AUTO8 M M M M/-07/-08/0504/M/ M 53MM=
0058712230999992024010301004+51930-110720SAO  +077299999V020070190026199999999999999999-00821-00911999999REMAWY049XCS SA 0100 AUTO8 M M M M/-08/-09/0705/M/ M 21MM=
0058712230999992024010302004+51930-110720SAO  +077299999V020090190026199999999999999999-01031-01151999999REMAWY049XCS SA 0200 AUTO8 M M M M/-10/-12/0905/M/ M 35MM=
0063712230999992024010303004+51933-110700FM-12+077299999V0201101N003119999999N999999999-00951-01071999999ADDAA103000091REMSYN04071223 26/// /1106 11095 21107 333 60007=
0058712230999992024010303004+51930-110720SAO  +077299999V020110190031199999999999999999-00851-01071999999REMAWY049XCS SA 0300 AUTO8 M M M M/-09/-11/1106/M/ M 57MM=
0058712230999992024010304004+51930-110720SAO  +077299999V020100190031199999999999999999-00921-01041999999REMAWY049XCS SA 0400 AUTO8 M M M M/-09/-10/1006/M/ M 24MM=
0058712230999992024010305004+51930-110720SAO  +077299999V020120190026199999999999999999-00891-01011999999REMAWY049XCS SA 0500 AUTO8 M M M M/-09/-10/1205/M/ M 91MM=
0080712230999992024010306004+51933-110700FM-12+077299999V0201201N002619999999N999999999-00881-01001999999ADDAA106000091AA224999919REMSYN04671223 16/// /1205 11088 21100 60001 333 7////=
0058712230999992024010306004+51930-110720SAO  +077299999V020120190026199999999999999999-00881-01001999999REMAWY049XCS SA 0600 AUTO8 M M M M/-09/-10/1205/M/ M 80MM=
0058712230999992024010307004+51930-110720SAO  +077299999V020130190026199999999999999999-00911-01041999999REMAWY049XCS SA 0700 AUTO8 M M M M/-09/-10/1305/M/ M 14MM=
0058712230999992024010308004+51930-110720SAO  +077299999V020120190021199999999999999999-00941-01071999999REMAWY049XCS SA 0800 AUTO8 M M M M/-09/-11/1204/M/ M 47MM=
0063712230999992024010309004+51933-110700FM-12+077299999V0201301N002119999999N999999999-00951-01081999999ADDAA103000091REMSYN04071223 26/// /1304 11095 21108 333 60007=
0058712230999992024010309004+51930-110720SAO  +077299999V020130190021199999999999999999-00951-01081999999REMAWY049XCS SA 0900 AUTO8 M M M M/-10/-11/1304/M/ M 58MM=
0058712230999992024010310004+51930-110720SAO  +077299999V020120190031199999999999999999-00971-01101999999REMAWY049XCS SA 1000 AUTO8 M M M M/-10/-11/1206/M/ M 70MM=
0058712230999992024010311004+51930-110720SAO  +077299999V020130190036199999999999999999-00981-01121999999REMAWY049XCS SA 1100 AUTO8 M M M M/-10/-11/1307/M/ M 82MM=
0099712230999992024010312004+51933-110700FM-12+077299999V0201201N003619999999N999999999-01001-01131999999ADDAA106000091AA224999919KA1240N-01031REMSYN05271223 16/// /1207 11100 21113 60001 333 21103 7////=
0058712230999992024010312004+51930-110720SAO  +077299999V020120190036199999999999999999-01001-01131999999REMAWY049XCS SA 1200 AUTO8 M M M M/-10/-11/1207/M/ M 03MM=
0058712230999992024010313004+51930-110720SAO  +077299999V020120190036199999999999999999-01001-01131999999REMAWY049XCS SA 1300 AUTO8 M M M M/-10/-11/1207/M/ M 03MM=
0058712230999992024010314004+51930-110720SAO  +077299999V020120190036199999999999999999-01001-01131999999REMAWY049XCS SA 1400 AUTO8 M M M M/-10/-11/1207/M/ M 03MM=
0063712230999992024010315004+51933-110700FM-12+077299999V0201101N003119999999N999999999-00991-01121999999ADDAA103000091REMSYN04071223 26/// /1106 11099 21112 333 60007=
0058712230999992024010315004+51930-110720SAO  +077299999V020110190031199999999999999999-00991-01121999999REMAWY049XCS SA 1500 AUTO8 M M M M/-10/-11/1106/M/ M 92MM=
0058712230999992024010316004+51930-110720SAO  +077299999V020110190031199999999999999999-00961-01091999999REMAWY049XCS SA 1600 AUTO8 M M M M/-10/-11/1106/M/ M 69MM=
0058712230999992024010317004+51930-110720SAO  +077299999V020120190026199999999999999999-00931-01061999999REMAWY049XCS SA 1700 AUTO8 M M M M/-09/-11/1205/M/ M 36MM=
0118712230999992024010318004+51933-110700FM-12+077299999V0201201N002619999999N999999999-00871-00991999999ADDAA106000091AA224000091KA1120M-00871KA2120N-01031REMSYN05871223 16/// /1205 11087 21099 60001 333 11087 21103 70000=
0058712230999992024010318004+51930-110720SAO  +077299999V020120190026199999999999999999-00871-00991999999REMAWY049XCS SA 1800 AUTO8 M M M M/-09/-10/1205/M/ M 79MM=
0058712230999992024010319004+51930-110720SAO  +077299999V020110190031199999999999999999-00811-00921999999REMAWY049XCS SA 1900 AUTO8 M M M M/-08/-09/1106/M/ M 12MM=
0058712230999992024010320004+51930-110720SAO  +077299999V020100190031199999999999999999-00751-00861999999REMAWY049XCS SA 2000 AUTO8 M M M M/-08/-09/1006/M/ M 56MM=
0063712230999992024010321004+51933-110700FM-12+077299999V0201201N003119999999N999999999-00691-00791999999ADDAA103000091REMSYN04071223 26/// /1206 11069 21079 333 60007=
0058712230999992024010321004+51930-110720SAO  +077299999V020120190031199999999999999999-00691-00791999999REMAWY049XCS SA 2100 AUTO8 M M M M/-07/-08/1206/M/ M 99MM=
0058712230999992024010322004+51930-110720SAO  +077299999V020120190031199999999999999999-00651-00751999999REMAWY049XCS SA 2200 AUTO8 M M M M/-07/-08/1206/M/ M 55MM=
0058712230999992024010323004+51930-110720SAO  +077299999V020120190026199999999999999999-00671-00771999999REMAWY049XCS SA 2300 AUTO8 M M M M/-07/-08/1205/M/ M 77MM=
0118712230999992024010400004+51933-110700FM-12+077299999V0201201N002619999999N999999999-00671-00771999999ADDAA106000091AA224000091KA1120M-00651KA2120N-01011REMSYN05871223 16/// /1205 11067 21077 60001 333 11065 21101 70000=
0058712230999992024010400004+51930-110720SAO  +077299999V020120190026199999999999999999-00671-00771999999REMAWY049XCS SA 0000 AUTO8 M M M M/-07/-08/1205/M/ M 77MM=
0058712230999992024010401004+51930-110720SAO  +077299999V020110190026199999999999999999-00671-00761999999REMAWY049XCS SA 0100 AUTO8 M M M M/-07/-08/1105/M/ M 76MM=
0058712230999992024010402004+51930-110720SAO  +077299999V020120190026199999999999999999-00681-00781999999REMAWY049XCS SA 0200 AUTO8 M M M M/-07/-08/1205/M/ M 88MM=
0063712230999992024010403004+51933-110700FM-12+077299999V0201301N002119999999N999999999-00711-00811999999ADDAA103000091REMSYN04071223 26/// /1304 11071 21081 333 60007=
0058712230999992024010403004+51930-110720SAO  +077299999V020130190021199999999999999999-00711-00811999999REMAWY049XCS SA 0300 AUTO8 M M M M/-07/-08/1304/M/ M 11MM=
0058712230999992024010404004+51930-110720SAO  +077299999V020130190015199999999999999999-00791-00891999999REMAWY049XCS SA 0400 AUTO8 M M M M/-08/-09/1303/M/ M 99MM=
0058712230999992024010405004+51930-110720SAO  +077299999V020120190010199999999999999999-00821-00941999999REMAWY049XCS SA 0500 AUTO8 M M M M/-08/-09/1202/M/ M 24MM=
0118712230999992024010406004+51933-110700FM-12+077299999V0201301N001019999999N999999999-00821-00931999999ADDAA106000091AA224000091KA1240M-00651KA2240N-01011REMSYN05871223 16/// /1302 11082 21093 60001 333 11065 21101 70000=
0058712230999992024010406004+51930-110720SAO  +077299999V020130190010199999999999999999-00821-00931999999REMAWY049XCS SA 0600 AUTO8 M M M M/-08/-09/1302/M/ M 23MM=
0058712230999992024010407004+51930-110720SAO  +077299999V020130190005199999999999999999-00891-01011999999REMAWY049XCS SA 0700 AUTO8 M M M M/-09/-10/1301/M/ M 91MM=
0058712230999992024010408004+51930-110720SAO  +077299999V020360190000199999999999999999-00821-00931999999REMAWY049XCS SA 0800 AUTO8 M M M M/-08/-09/0000/M/ M 23MM=
0063712230999992024010409004+51933-110700FM-12+077299999V0202201N001019999999N999999999-00731-00841999999ADDAA103000091REMSYN04071223 26/// /2202 11073 21084 333 60007=
0058712230999992024010409004+51930-110720SAO  +077299999V020220190010199999999999999999-00731-00841999999REMAWY049XCS SA 0900 AUTO8 M M M M/-07/-08/2202/M/ M 34MM=
0058712230999992024010410004+51930-110720SAO  +077299999V020260190015199999999999999999-00631-00721999999REMAWY049XCS SA 1000 AUTO8 M M M M/-06/-07/2603/M/ M 32MM=
0058712230999992024010411004+51930-110720SAO  +077299999V020290190021199999999999999999-00591-00671999999REMAWY049XCS SA 1100 AUTO8 M M M M/-06/-07/2904/M/ M 97MM=
0105712230999992024010412004+51933-110700FM-12+077299999V0202901N002119999999N999999999-00581-00661999999ADDAA106000091AA224000091KA1240N-00911REMSYN05871223 16/// /2904 11058 21066 60001 333 11065 21091 70000=
0058712230999992024010412004+51930-110720SAO  +077299999V020290190021199999999999999999-00581-00661999999REMAWY049XCS SA 1200 AUTO8 M M M M/-06/-07/2904/M/ M 86MM=
0058712230999992024010413004+51930-110720SAO  +077299999V020300190026199999999999999999-00661-00761999999REMAWY049XCS SA 1300 AUTO8 M M M M/-07/-08/3005/M/ M 66MM=
0058712230999992024010414004+51930-110720SAO  +077299999V020300190010199999999999999999-00701-00801999999REMAWY049XCS SA 1400 AUTO8 M M M M/-07/-08/3002/M/ M 00MM=
0063712230999992024010415004+51933-110700FM-12+077299999V0203201N001519999999N999999999-00761-00861999999ADDAA103000091REMSYN04071223 26/// /3203 11076 21086 333 60007=
0058712230999992024010415004+51930-110720SAO  +077299999V020320190015199999999999999999-00761-00861999999REMAWY049XCS SA 1500 AUTO8 M M M M/-08/-09/3203/M/ M 66MM=
0058712230999992024010416004+51930-110720SAO  +077299999V020340190010199999999999999999-00761-00861999999REMAWY049XCS SA 1600 AUTO8 M M M M/-08/-09/3402/M/ M 66MM=
0058712230999992024010417004+51930-110720SAO  +077299999V020360190000199999999999999999-00751-00861999999REMAWY049XCS SA 1700 AUTO8 M M M M/-08/-09/0000/M/ M 56MM=
0118712230999992024010418004+51933-110700FM-12+077299999V0209999C000019999999N999999999-00741-00841999999ADDAA106000091AA224000091KA1120M-00561KA2120N-00911REMSYN05871223 16/// /0000 11074 21084 60001 333 11056 21091 70000=
0058712230999992024010418004+51930-110720SAO  +077299999V020290190005199999999999999999-00741-00841999999REMAWY049XCS SA 1800 AUTO8 M M M M/-07/-08/2901/M/ M 44MM=
0058712230999992024010419004+51930-110720SAO  +077299999V020240190005199999999999999999-00671-00771999999REMAWY049XCS SA 1900 AUTO8 M M M M/-07/-08/2401/M/ M 77MM=
0062712230999992024010421004+51775-111176FM-12+077299999V0209999C0000199999999999999999-00681-00781999999ADDAA124999999REMSYN004BUFREQDQ01  99993PRCP99Q02  99993PRCP99
0058712230999992024010421004+51930-110720SAO  +077299999V020210190005199999999999999999-00631-00721999999REMAWY049XCS SA 2100 AUTO8 M M M M/-06/-07/2101/M/ M 32MM=
0058712230999992024010422004+51930-110720SAO  +077299999V020150190005199999999999999999-00661-00761999999REMAWY049XCS SA 2200 AUTO8 M M M M/-07/-08/1501/M/ M 66MM=
0058712230999992024010423004+51930-110720SAO  +077299999V020130190005199999999999999999-00671-00771999999REMAWY049XCS SA 2300 AUTO8 M M M M/-07/-08/1301/M/ M 77MM=
0118712230999992024010500004+51933-110700FM-12+077299999V0209999C000019999999N999999999-00701-00801999999ADDAA106000091AA224000091KA1120M-00581KA2120N-00911REMSYN05871223 16/// /0000 11070 21080 60001 333 11058 21091 70000=
0058712230999992024010500004+51930-110720SAO  +077299999V020110190005199999999999999999-00701-00801999999REMAWY049XCS SA 0000 AUTO8 M M M M/-07/-08/1101/M/ M 00MM=
0058712230999992024010501004+51930-110720SAO  +077299999V020130190010199999999999999999-00761-00871999999REMAWY049XCS SA 0100 AUTO8 M M M M/-08/-09/1302/M/ M 67MM=
0058712230999992024010502004+51930-110720SAO  +077299999V020110190010199999999999999999-00771-00881999999REMAWY049XCS SA 0200 AUTO8 M M M M/-08/-09/1102/M/ M 78MM=
0063712230999992024010503004+51933-110700FM-12+077299999V0201101N003619999999N999999999-00751-00861999999ADDAA103000091REMSYN04071223 26/// /1107 11075 21086 333 60007=
0058712230999992024010503004+51930-110720SAO  +077299999V020110190036199999999999999999-00751-00861999999REMAWY049XCS SA 0300 AUTO8 M M M M/-08/-09/1107/M/ M 56MM=
0058712230999992024010504004+51930-110720SAO  +077299999V020120190036199999999999999999-00731-00831999999REMAWY049XCS SA 0400 AUTO8 M M M M/-07/-08/1207/M/ M 33MM=
0058712230999992024010505004+51930-110720SAO  +077299999V020130190026199999999999999999-00711-00811999999REMAWY049XCS SA 0500 AUTO8 M M M M/-07/-08/1305/M/ M 11MM=
0118712230999992024010506004+51933-110700FM-12+077299999V0201301N002619999999N999999999-00721-00821999999ADDAA106000091AA224000091KA1240M-00561KA2240N-00911REMSYN05871223 16/// /1305 11072 21082 60001 333 11056 21091 70000=
0058712230999992024010506004+51930-110720SAO  +077299999V020130190026199999999999999999-00721-00821999999REMAWY049XCS SA 0600 AUTO8 M M M M/-07/-08/1305/M/ M 22MM=
0058712230999992024010507004+51930-110720SAO  +077299999V020150190010199999999999999999-00741-00841999999REMAWY049XCS SA 0700 AUTO8 M M M M/-07/-08/1502/M/ M 44MM=
0058712230999992024010508004+51930-110720SAO  +077299999V020150190010199999999999999999-00651-00751999999REMAWY049XCS SA 0800 AUTO8 M M M M/-07/-08/1502/M/ M 55MM=
0063712230999992024010509004+51933-110700FM-12+077299999V0202901N001019999999N999999999-00751-00851999999ADDAA103000091REMSYN04071223 26/// /2902 11075 21085 333 60007=
0058712230999992024010509004+51930-110720SAO  +077299999V020290190010199999999999999999-00651-00751999999REMAWY049XCS SA 0900 AUTO8 M M M M/-07/-08/2902/M/ M 55MM=
0058712230999992024010510004+51930-110720SAO  +077299999V020290190010199999999999999999-00751-00861999999REMAWY049XCS SA 1000 AUTO8 M M M M/-08/-09/2902/M/ M 56MM=
0058712230999992024010511004+51930-110720SAO  +077299999V020310190015199999999999999999-00751-00861999999REMAWY049XCS SA 1100 AUTO8 M M M M/-08/-09/3103/M/ M 56MM=
0118712230999992024010512004+51933-110700FM-12+077299999V0203201N002619999999N999999999-00791-00901999999ADDAA106000091AA224000091KA1240M-00561KA2240N-00801REMSYN05871223 16/// /3205 11079 21090 60001 333 11056 21080 70000=
0058712230999992024010512004+51930-110720SAO  +077299999V020320190026199999999999999999-00791-00901999999REMAWY049XCS SA 1200 AUTO8 M M M M/-08/-09/3205/M/ M 90MM=
0095712230999992024010513004+51930-110720SAO  +077299999V020320190021199999999999999999-00811-00921999999ADDAA101000631REMAWY072XCS SA 1300 AUTO8 M M M M/-08/-09/3204/M/0006 PCPN 0.6MM PAST HR M 12MM=
0095712230999992024010514004+51930-110720SAO  +077299999V020360190000199999999999999999-00781-00891999999ADDAA101000631REMAWY072XCS SA 1400 AUTO8 M M M M/-08/-09/0000/M/0012 PCPN 0.6MM PAST HR M 89MM=
0063712230999992024010515004+51933-110700FM-12+077299999V0202901N001519999999N999999999-00791-00901999999ADDAA103001031REMSYN04071223 26/// /2903 11079 21090 333 60017=
0062712230999992024010515004+51930-110720SAO  +077299999V020290190015199999999999999999-00791-00901999999REMAWY053XCS SA 1500 AUTO8 M M M M/-08/-09/2903/M/0012 M 90MM=
0062712230999992024010516004+51930-110720SAO  +077299999V020300190021199999999999999999-00751-00971999999REMAWY053XCS SA 1600 AUTO8 M M M M/-08/-10/3004/M/0012 M 57MM=
0062712230999992024010517004+51930-110720SAO  +077299999V020300190021199999999999999999-00961-01081999999REMAWY053XCS SA 1700 AUTO8 M M M M/-10/-11/3004/M/0012 M 68MM=
0118712230999992024010518004+51933-110700FM-12+077299999V0203001N002119999999N999999999-00801-00911999999ADDAA106001031AA224001231KA1120M-00721KA2120N-00971REMSYN05871223 16/// /3004 11080 21091 60011 333 11072 21097 70012=
0062712230999992024010518004+51930-110720SAO  +077299999V020300190021199999999999999999-00801-00911999999REMAWY053XCS SA 1800 AUTO8 M M M M/-08/-09/3004/M/0012 M 01MM=
0058712230999992024010519004+51930-110720SAO  +077299999V020290190021199999999999999999-00601-00691999999REMAWY049XCS SA 1900 AUTO8 M M M M/-06/-07/2904/M/ M 09MM=
0058712230999992024010520004+51930-110720SAO  +077299999V020280190021199999999999999999-00351-00521999999REMAWY049XCS SA 2000 AUTO8 M M M M/-04/-05/2804/M/ M 52MM=
0063712230999992024010521004+51933-110700FM-12+077299999V0202701N004119999999N999999999-00391-00451999999ADDAA103000091REMSYN04071223 26/// /2708 11039 21045 333 60007=
0077712230999992024010521004+51930-110720SAO  +077299999V020270190041199999999999999999-00391+99999999999REMAWY049XCS SA 2100 AUTO8 M M M M/-04/-04/2708/M/ M 95MM=EQDQ01-3.5  2ATOD  
0058712230999992024010522004+51930-110720SAO  +077299999V020260190031199999999999999999-00351-00521999999REMAWY049XCS SA 2200 AUTO8 M M M M/-04/-05/2606/M/ M 52MM=
0058712230999992024010523004+51930-110720SAO  +077299999V020250190036199999999999999999-00531-00611999999REMAWY049XCS SA 2300 AUTO8 M M M M/-05/-06/2507/M/ M 31MM=
0118712230999992024010600004+51933-110700FM-12+077299999V0202301N005719999999N999999999-00751-00861999999ADDAA106000091AA224001231KA1120M-00361KA2120N-00971REMSYN05871223 16/// /2311 11075 21086 60001 333 11036 21097 70012=
0058712230999992024010600004+51930-110720SAO  +077299999V020230190057199999999999999999-00751-00861999999REMAWY049XCS SA 0000 AUTO8 M M M M/-08/-09/2311/M/ M 56MM=
0058712230999992024010601004+51930-110720SAO  +077299999V020220190051199999999999999999-00841-00951999999REMAWY049XCS SA 0100 AUTO8 M M M M/-08/-10/2210/M/ M 45MM=
0058712230999992024010602004+51930-110720SAO  +077299999V020220190036199999999999999999-00991-01121999999REMAWY049XCS SA 0200 AUTO8 M M M M/-10/-11/2207/M/ M 92MM=
0063712230999992024010815004+51933-110700FM-12+077299999V0202301N002619999999N999999999-02141-02381999999ADDAA103999999REMSYN04071223 46/// /2305 11214 21238 333 6///7=
0059712230999992024010815004+51930-110720SAO  +077299999V020230190026199999999999999999-02141-02381999999REMAWY050XCS SA 1500 AUTO8 M M M M/-21/-24/2305/M/M M 48MM=
0067712230999992024010816004+51553-110982FM-12+077299999V0202281N0027199999999999999999-02251-02521999999ADDAA199999999KA1120M-02121KA2120N-02261OD139900311238REMSYN004BUFR
0059712230999992024010816004+51930-110720SAO  +077299999V020230190026199999999999999999-02261-02521999999REMAWY050XCS SA 1600 AUTO8 M M M M/-23/-25/2305/M/M M 62MM=
0059712230999992024010817004+51930-110720SAO  +077299999V020230190021199999999999999999-02031-02261999999REMAWY050XCS SA 1700 AUTO8 M M M M/-20/-23/2304/M/M M 36MM=
0080712230999992024010818004+51933-110700FM-12+077299999V0202301N007219999999N999999999-01891-02111999999ADDAA106999919AA224999919REMSYN04671223 46/// /2314 11189 21211 6///1 333 7////=
0094712230999992024010818004+51930-110720SAO  +077299999V020230190072199999999999999999-01891-02111999999ADDOD130100931230REMAWY068XCS SA 1800 AUTO8 M M M M/-19/-21/2314/M/M PK WND 2318 1751Z M 91MM=
0093712230999992024010819004+51930-110720SAO  +077299999V020230190067199999999999999999-01701-01911999999ADDOD130100931230REMAWY067XCS SA 1900 AUTO8 M M M M/-17/-19/2313/M/ PK WND 2318 1836Z M 01MM=
0058712230999992024010820004+51930-110720SAO  +077299999V020230190057199999999999999999-01661-01861999999REMAWY049XCS SA 2000 AUTO8 M M M M/-17/-19/2311/M/ M 66MM=
0063712230999992024010821004+51933-110700FM-12+077299999V0202201N005119999999N999999999-01511-01701999999ADDAA103000091REMSYN04071223 26/// /2210 11151 21170 333 60007=
0058712230999992024010821004+51930-110720SAO  +077299999V020220190051199999999999999999-01511-01701999999REMAWY049XCS SA 2100 AUTO8 M M M M/-15/-17/2210/M/ M 10MM=
0058712230999992024010822004+51930-110720SAO  +077299999V020230190051199999999999999999-01501-01691999999REMAWY049XCS SA 2200 AUTO8 M M M M/-15/-17/2310/M/ M 09MM=
0095712230999992024010823004+51930-110720SAO  +077299999V020230190062199999999999999999-01671-01881999999ADDAA101000431REMAWY072XCS SA 2300 AUTO8 M M M M/-17/-19/2312/M/0004 PCPN 0.4MM PAST HR M 78MM=
0094712230999992024010900004+51933-110700FM-12+077299999V0202401N005719999999N999999999-01811-02041999999ADDAA106000431AA224999919AZ141021REMSYN05271223 17/// /2411 11181 21204 69941 7//4/ 333 7////=
0062712230999992024010900004+51930-110720SAO  +077299999V020240190057199999999999999999-01811-02041999999REMAWY053XCS SA 0000 AUTO8 M M M M/-18/-20/2411/M/0004 M 14MM=
0058712230999992024010901004+51930-110720SAO  +077299999V020240190062199999999999999999-01851-02071999999REMAWY049XCS SA 0100 AUTO8 M M M M/-19/-21/2412/M/ M 57MM=
0063712230999992024010903004+51933-110700FM-12+077299999V0202301N005119999999N999999999-02161-02411999999ADDAA103000091REMSYN04071223 26/// /2310 11216 21241 333 60007=
0058712230999992024010903004+51930-110720SAO  +077299999V020230190051199999999999999999-02161-02411999999REMAWY049XCS SA 0300 AUTO8 M M M M/-22/-24/2310/M/ M 61MM=
0058712230999992024010904004+51930-110720SAO  +077299999V020240190036199999999999999999-02281-02541999999REMAWY049XCS SA 0400 AUTO8 M M M M/-23/-25/2407/M/ M 84MM=
0058712230999992024010905004+51930-110720SAO  +077299999V020260190036199999999999999999-02181-02411999999REMAWY049XCS SA 0500 AUTO8 M M M M/-22/-24/2607/M/ M 81MM=
0080712230999992024010906004+51933-110700FM-12+077299999V0202301N002119999999N999999999-02301-02561999999ADDAA106000091AA224999919REMSYN04671223 16/// /2304 11230 21256 60001 333 7////=
0058712230999992024010906004+51930-110720SAO  +077299999V020230190021199999999999999999-02301-02561999999REMAWY049XCS SA 0600 AUTO8 M M M M/-23/-26/2304/M/ M 06MM=
0058712230999992024010907004+51930-110720SAO  +077299999V020220190026199999999999999999-02181-02421999999REMAWY049XCS SA 0700 AUTO8 M M M M/-22/-24/2205/M/ M 82MM=
0058712230999992024010908004+51930-110720SAO  +077299999V020170190005199999999999999999-02161-02411999999REMAWY049XCS SA 0800 AUTO8 M M M M/-22/-24/1701/M/ M 61MM=
0063712230999992024010909004+51933-110700FM-12+077299999V0201401N001019999999N999999999-02201-02451999999ADDAA103000091REMSYN04071223 26/// /1402 11220 21245 333 60007=
0058712230999992024010909004+51930-110720SAO  +077299999V020140190010199999999999999999-02201-02351999999REMAWY049XCS SA 0900 AUTO8 M M M M/-22/-24/1402/M/ M 05MM=
0058712230999992024010910004+51930-110720SAO  +077299999V020100190026199999999999999999-02221-02471999999REMAWY049XCS SA 1000 AUTO8 M M M M/-22/-25/1005/M/ M 27MM=
0058712230999992024010911004+51930-110720SAO  +077299999V020090190036199999999999999999-02271-02531999999REMAWY049XCS SA 1100 AUTO8 M M M M/-23/-25/0907/M/ M 73MM=
0099712230999992024010912004+51933-110700FM-12+077299999V0201001N002619999999N999999999-02231-02481999999ADDAA106000091AA224999919KA1240N-02321REMSYN05271223 16/// /1005 11223 21248 60001 333 21232 7////=
0058712230999992024010912004+51930-110720SAO  +077299999V020100190026199999999999999999-02231-02481999999REMAWY049XCS SA 1200 AUTO8 M M M M/-22/-25/1005/M/ M 38MM=
0058712230999992024010913004+51930-110720SAO  +077299999V020100190041199999999999999999-02061-02301999999REMAWY049XCS SA 1300 AUTO8 M M M M/-21/-23/1008/M/ M 60MM=
0058712230999992024010914004+51930-110720SAO  +077299999V020070190031199999999999999999-01931-02161999999REMAWY049XCS SA 1400 AUTO8 M M M M/-19/-22/0706/M/ M 36MM=
0063712230999992024010915004+51933-110700FM-12+077299999V0200801N004619999999N999999999-01691-01891999999ADDAA103000091REMSYN04071223 26/// /0809 11169 21189 333 60007=
0058712230999992024010915004+51930-110720SAO  +077299999V020080190046199999999999999999-01691-01891999999REMAWY049XCS SA 1500 AUTO8 M M M M/-17/-19/0809/M/ M 99MM=
0095712230999992024010916004+51930-110720SAO  +077299999V020080190051199999999999999999-01601-01801999999ADDAA101000431REMAWY072XCS SA 1600 AUTO8 M M M M/-16/-18/0810/M/0004 PCPN 0.4MM PAST HR M 00MM=
0127712230999992024010917004+51930-110720SAO  +077299999V020080190067199999999999999999-01541-01731999999ADDAA101000731OD130100871070REMAWY090XCS SA 1700 AUTO8 M M M M/-15/-17/0813/M/0012 PCPN 0.7MM PAST HR PK WND 0717 1651Z M 43MM=
0132712230999992024010918004+51933-110700FM-12+077299999V0200701N007219999999N999999999-01461-01641999999ADDAA106002031AA224002431AZ141021KA1120M-01461KA2120N-02321REMSYN06471223 17/// /0714 11146 21164 60021 7//4/ 333 11146 21232 70024=
0127712230999992024010918004+51930-110720SAO  +077299999V020080190072199999999999999999-01461-01641999999ADDAA101000831OD130100871090REMAWY090XCS SA 1800 AUTO8 M M M M/-15/-16/0814/M/0020 PCPN 0.8MM PAST HR PK WND 0917 1758Z M 64MM=
0127712230999992024010919004+51930-110720SAO  +077299999V020080190077199999999999999999-01501-01681999999ADDAA101000431OD130101181090REMAWY090XCS SA 1900 AUTO8 M M M M/-15/-17/0815/M/0004 PCPN 0.4MM PAST HR PK WND 0923 1846Z M 08MM=
0097712230999992024010920004+51930-110720SAO  +077299999V020060190072199999999999999999-01541-01731999999ADDOD130101031080REMAWY071XCS SA 2000 AUTO8 M M M M/-15/-17/0614/M/0004 PK WND 0820 1904Z M 43MM=
0049712230999992024010921004+51775-111176FM-12+077299999V0200521N0084199999999999999999-01641-01841999999ADDAA124003031AA299001031AA399999999REMSYN004BUFR
0127712230999992024010921004+51930-110720SAO  +077299999V020050190093199999999999999999-01571-01761999999ADDAA101000631OD130101081050REMAWY090XCS SA 2100 AUTO8 M M M M/-16/-18/0518/M/0010 PCPN 0.6MM PAST HR PK WND 0521 2052Z M 76MM=
0097712230999992024010922004+51930-110720SAO  +077299999V020040190067199999999999999999-01571-01761999999ADDOD130101031060REMAWY071XCS SA 2200 AUTO8 M M M M/-16/-18/0413/M/0010 PK WND 0620 2100Z M 76MM=
0127712230999992024010923004+51930-110720SAO  +077299999V020010190093199999999999999999-01641-01841999999ADDAA101000431OD130101081010REMAWY090XCS SA 2300 AUTO8 M M M M/-16/-18/0118/M/0014 PCPN 0.4MM PAST HR PK WND 0121 2256Z M 44MM=
0132712230999992024011000004+51933-110700FM-12+077299999V0200201N009319999999N999999999-01661-01861999999ADDAA106001031AA224003431AZ141021KA1120M-01451KA2120N-02311REMSYN06471223 17/// /0218 11166 21186 60011 7//4/ 333 11145 21231 70034=
0097712230999992024011000004+51930-110720SAO  +077299999V020020190093199999999999999999-01661-01861999999ADDOD130101281020REMAWY071XCS SA 0000 AUTO8 M M M M/-17/-19/0218/M/0014 PK WND 0225 2328Z M 66MM=
0093712230999992024011001004+51930-110720SAO  +077299999V020010190093199999999999999999-01661-01861999999ADDOD130101231010REMAWY067XCS SA 0100 AUTO8 M M M M/-17/-19/0118/M/ PK WND 0124 0028Z M 66MM=
0093712230999992024011002004+51930-110720SAO  +077299999V020010190093199999999999999999-01691-01901999999ADDOD130101231020REMAWY067XCS SA 0200 AUTO8 M M M M/-17/-19/0118/M/ PK WND 0224 0124Z M 90MM=
0063712230999992024011003004+51933-110700FM-12+077299999V0203601N009819999999N999999999-01721-01921999999ADDAA103000091REMSYN04071223 26/// /0019 11172 21192 333 60007=
0093712230999992024011003004+51930-110720SAO  +077299999V020360190098199999999999999999-01711-01921999999ADDOD130101181020REMAWY067XCS SA 0300 AUTO8 M M M M/-17/-19/3619/M/ PK WND 0223 0235Z M 12MM=
0093712230999992024011004004+51930-110720SAO  +077299999V020350190072199999999999999999-01861-02081999999ADDOD130101081010REMAWY067XCS SA 0400 AUTO8 M M M M/-19/-21/3514/M/ PK WND 0121 0304Z M 68MM=
0093712230999992024011005004+51930-110720SAO  +077299999V020350190082199999999999999999-01921-02141999999ADDOD130101031340REMAWY067XCS SA 0500 AUTO8 M M M M/-19/-21/3516/M/ PK WND 3420 0440Z M 24MM=
0134712230999992024011006004+51933-110700FM-12+077299999V0203501N007719999999N999999999-01991-02221999999ADDAA106000091AA224003431KA1240M-01451KA2240N-02311REMSYN07471223 16/// /3515 11199 21222 60001 333 11145 21231 70034 555 30225 40001=
0093712230999992024011006004+51930-110720SAO  +077299999V020350190077199999999999999999-01991-02221999999ADDOD130101081350REMAWY067XCS SA 0600 AUTO8 M M M M/-20/-22/3515/M/ PK WND 3521 0500Z M 92MM=
0093712230999992024011007004+51930-110720SAO  +077299999V020350190057199999999999999999-02031-02261999999ADDOD130100981350REMAWY067XCS SA 0700 AUTO8 M M M M/-20/-23/3511/M/ PK WND 3519 0605Z M 36MM=
0093712230999992024011008004+51930-110720SAO  +077299999V020350190057199999999999999999-02081-02321999999ADDOD130100871350REMAWY067XCS SA 0800 AUTO8 M M M M/-21/-23/3511/M/ PK WND 3517 0710Z M 82MM=
0063712230999992024011009004+51933-110700FM-12+077299999V0203501N005119999999N999999999-02101-02341999999ADDAA103000091REMSYN04071223 26/// /3510 11210 21234 333 60007=
0058712230999992024011009004+51930-110720SAO  +077299999V020350190051199999999999999999-02101-02341999999REMAWY049XCS SA 0900 AUTO8 M M M M/-21/-23/3510/M/ M 04MM=
0058712230999992024011010004+51930-110720SAO  +077299999V020350190046199999999999999999-02121-02361999999REMAWY049XCS SA 1000 AUTO8 M M M M/-21/-24/3509/M/ M 26MM=
0058712230999992024011011004+51930-110720SAO  +077299999V020010190062199999999999999999-02161-02411999999REMAWY049XCS SA 1100 AUTO8 M M M M/-22/-24/0112/M/ M 61MM=
0118712230999992024011012004+51933-110700FM-12+077299999V0200101N005119999999N999999999-02231-02481999999ADDAA106000091AA224003431KA1240M-01451KA2240N-02231REMSYN05871223 16/// /0110 11223 21248 60001 333 11145 21223 70034=
0058712230999992024011012004+51930-110720SAO  +077299999V020010190051199999999999999999-02231-02481999999REMAWY049XCS SA 1200 AUTO8 M M M M/-22/-25/0110/M/ M 38MM=
0093712230999992024011013004+51930-110720SAO  +077299999V020350190072199999999999999999-02261-02521999999ADDOD130100871350REMAWY067XCS SA 1300 AUTO8 M M M M/-23/-25/3514/M/ PK WND 3517 1258Z M 62MM=
0093712230999992024011014004+51930-110720SAO  +077299999V020360190072199999999999999999-02301-02561999999ADDOD130100871350REMAWY067XCS SA 1400 AUTO8 M M M M/-23/-26/3614/M/ PK WND 3517 1300Z M 06MM=
0063712230999992024011015004+51933-110700FM-12+077299999V0203601N007719999999N999999999-02311-02581999999ADDAA103000091REMSYN04071223 26/// /0015 11231 21258 333 60007=
0093712230999992024011015004+51930-110720SAO  +077299999V020360190077199999999999999999-02311-02581999999ADDOD130100931999REMAWY067XCS SA 1500 AUTO8 M M M M/-23/-26/3615/M/ PK WND MM18 1454Z M 18MM=
0093712230999992024011016004+51930-110720SAO  +077299999V020340190072199999999999999999-02371-02641999999ADDOD130100931340REMAWY067XCS SA 1600 AUTO8 M M M M/-24/-26/3414/M/ PK WND 3418 1551Z M 74MM=
0093712230999992024011017004+51930-110720SAO  +077299999V020340190072199999999999999999-02431-02701999999ADDOD130100981340REMAWY067XCS SA 1700 AUTO8 M M M M/-24/-27/3414/M/ PK WND 3419 1648Z M 30MM=
0118712230999992024011018004+51933-110700FM-12+077299999V0200101N003119999999N999999999-02401-02671999999ADDAA106000091AA224001431KA1120M-01991KA2120N-02441REMSYN05871223 16/// /0106 11240 21267 60001 333 11199 21244 70014=
0093712230999992024011018004+51930-110720SAO  +077299999V020010190031199999999999999999-02401-02671999999ADDOD130101031350REMAWY067XCS SA 1800 AUTO8 M M M M/-24/-27/0106/M/ PK WND 3520 1700Z M 07MM=
0058712230999992024011019004+51930-110720SAO  +077299999V020360190051199999999999999999-02411-02681999999REMAWY049XCS SA 1900 AUTO8 M M M M/-24/-27/3610/M/ M 18MM=
0095712230999992024011020004+51930-110720SAO  +077299999V020330190051199999999999999999-02391-02671999999ADDAA101000431REMAWY072XCS SA 2000 AUTO8 M M M M/-24/-27/3310/M/0004 PCPN 0.4MM PAST HR M 97MM=
0077712230999992024011021004+51933-110700FM-12+077299999V0203401N006219999999N999999999-02431-02711999999ADDAA103000431AZ141021REMSYN04671223 27/// /3412 11243 21271 7//4/ 333 69947=
0062712230999992024011021004+51930-110720SAO  +077299999V020340190062199999999999999999-02431-02711999999REMAWY053XCS SA 2100 AUTO8 M M M M/-24/-27/3412/M/0004 M 31MM=
0097712230999992024011022004+51930-110720SAO  +077299999V020340190057199999999999999999-02461-02741999999ADDOD130100871340REMAWY071XCS SA 2200 AUTO8 M M M M/-25/-27/3411/M/0004 PK WND 3417 2142Z M 64MM=
0062712230999992024011023004+51930-110720SAO  +077299999V020360190051199999999999999999-02471-02751999999REMAWY053XCS SA 2300 AUTO8 M M M M/-25/-28/3610/M/0004 M 75MM=
0132712230999992024011100004+51933-110700FM-12+077299999V0203401N004119999999N999999999-02461-02741999999ADDAA106000431AA224000431AZ141021KA1120M-02231KA2120N-02481REMSYN06471223 17/// /3408 11246 21274 69941 7//4/ 333 11223 21248 70004=
0062712230999992024011100004+51930-110720SAO  +077299999V020340190041199999999999999999-02461-02741999999REMAWY053XCS SA 0000 AUTO8 M M M M/-25/-27/3408/M/0004 M 64MM=
0058712230999992024011101004+51930-110720SAO  +077299999V020360190041199999999999999999-02491-02761999999REMAWY049XCS SA 0100 AUTO8 M M M M/-25/-28/3608/M/ M 96MM=
0058712230999992024011102004+51930-110720SAO  +077299999V020360190031199999999999999999-02611-02901999999REMAWY049XCS SA 0200 AUTO8 M M M M/-26/-29/3606/M/ M 10MM=
0063712230999992024011103004+51933-110700FM-12+077299999V0203501N002119999999N999999999-02671-02961999999ADDAA103000091REMSYN04071223 26/// /3504 11267 21296 333 60007=
0058712230999992024011103004+51930-110720SAO  +077299999V020350190021199999999999999999-02671-02961999999REMAWY049XCS SA 0300 AUTO8 M M M M/-27/-30/3504/M/ M 76MM=
0058712230999992024011104004+51930-110720SAO  +077299999V020340190036199999999999999999-02611-02901999999REMAWY049XCS SA 0400 AUTO8 M M M M/-26/-29/3407/M/ M 10MM=
0058712230999992024011105004+51930-110720SAO  +077299999V020360190046199999999999999999-02581-02871999999REMAWY049XCS SA 0500 AUTO8 M M M M/-26/-29/3609/M/ M 87MM=
0134712230999992024011106004+51933-110700FM-12+077299999V0203601N004619999999N999999999-02651-02951999999ADDAA106000431AA224000831KA1240M-01991KA2240N-02721REMSYN07471223 16/// /0009 11265 21295 69941 333 11199 21272 70008 555 33520 40171=
0095712230999992024011106004+51930-110720SAO  +077299999V020360190046199999999999999999-02651-02951999999ADDAA101000431REMAWY072XCS SA 0600 AUTO8 M M M M/-27/-30/3609/M/0004 PCPN 0.4MM PAST HR M 55MM=
0058712230999992024011107004+51930-110720SAO  +077299999V020350190031199999999999999999-02711-03011999999REMAWY049XCS SA 0700 AUTO8 M M M M/-27/-30/3506/M/ M 11MM=
0058712230999992024011108004+51930-110720SAO  +077299999V020340190041199999999999999999-02731-03031999999REMAWY049XCS SA 0800 AUTO8 M M M M/-27/-30/3408/M/ M 33MM=
0063712230999992024011109004+51933-110700FM-12+077299999V0203301N003619999999N999999999-02761-03061999999ADDAA103000091REMSYN04071223 26/// /3307 11276 21306 333 60007=
0058712230999992024011109004+51930-110720SAO  +077299999V020330190036199999999999999999-02761-03061999999REMAWY049XCS SA 0900 AUTO8 M M M M/-28/-31/3307/M/ M 66MM=
0058712230999992024011110004+51930-110720SAO  +077299999V020320190041199999999999999999-02801-03111999999REMAWY049XCS SA 1000 AUTO8 M M M M/-28/-31/3208/M/ M 01MM=
0058712230999992024011111004+51930-110720SAO  +077299999V020320190046199999999999999999-02851-03161999999REMAWY049XCS SA 1100 AUTO8 M M M M/-29/-32/3209/M/ M 56MM=
0118712230999992024011112004+51933-110700FM-12+077299999V0203201N005719999999N999999999-02881-03191999999ADDAA106000091AA224000831KA1240M-01991KA2240N-02881REMSYN05871223 16/// /3211 11288 21319 60001 333 11199 21288 70008=
0058712230999992024011112004+51930-110720SAO  +077299999V020330190057199999999999999999-02881-03191999999REMAWY049XCS SA 1200 AUTO8 M M M M/-29/-32/3311/M/ M 89MM=
0058712230999992024011113004+51930-110720SAO  +077299999V020320190046199999999999999999-02931-03151999999REMAWY049XCS SA 1300 AUTO8 M M M M/-29/-32/3209/M/ M 35MM=
0058712230999992024011114004+51930-110720SAO  +077299999V020320190046199999999999999999-02991-03301999999REMAWY049XCS SA 1400 AUTO8 M M M M/-30/-33/3209/M/ M 90MM=
0063712230999992024011115004+51933-110700FM-12+077299999V0203301N004619999999N999999999-02991-03311999999ADDAA103000091REMSYN04071223 26/// /3309 11299 21331 333 60007=
0058712230999992024011115004+51930-110720SAO  +077299999V020330190046199999999999999999-02991-03311999999REMAWY049XCS SA 1500 AUTO8 M M M M/-30/-33/3309/M/ M 91MM=
0058712230999992024011116004+51930-110720SAO  +077299999V020320190057199999999999999999-03011-03331999999REMAWY049XCS SA 1600 AUTO8 M M M M/-30/-33/3211/M/ M 13MM=
0058712230999992024011117004+51930-110720SAO  +077299999V020340190057199999999999999999-03111-03441999999REMAWY049XCS SA 1700 AUTO8 M M M M/-31/-34/3411/M/ M 14MM=
0118712230999992024011118004+51933-110700FM-12+077299999V0203401N005119999999N999999999-03101-03421999999ADDAA106000091AA224000831KA1120M-02651KA2120N-03131REMSYN05871223 16/// /3410 11310 21342 60001 333 11265 21313 70008=
0058712230999992024011118004+51930-110720SAO  +077299999V020340190051199999999999999999-03091-03421999999REMAWY049XCS SA 1800 AUTO8 M M M M/-31/-34/3410/M/ M 92MM=
0058712230999992024011119004+51930-110720SAO  +077299999V020330190046199999999999999999-03091-03411999999REMAWY049XCS SA 1900 AUTO8 M M M M/-31/-34/3309/M/ M 91MM=
0058712230999992024011120004+51930-110720SAO  +077299999V020320190046199999999999999999-03121-03351999999REMAWY049XCS SA 2000 AUTO8 M M M M/-31/-34/3209/M/ M 25MM=
0063712230999992024011121004+51933-110700FM-12+077299999V0203401N005719999999N999999999-03101-03431999999ADDAA103000091REMSYN04071223 26/// /3411 11310 21343 333 60007=
0058712230999992024011121004+51930-110720SAO  +077299999V020340190057199999999999999999-03101-03431999999REMAWY049XCS SA 2100 AUTO8 M M M M/-31/-34/3411/M/ M 03MM=
0058712230999992024011122004+51930-110720SAO  +077299999V020340190057199999999999999999-03121-03351999999REMAWY049XCS SA 2200 AUTO8 M M M M/-31/-34/3411/M/ M 25MM=
0093712230999992024011123004+51930-110720SAO  +077299999V020340190067199999999999999999-03131-03471999999ADDOD130100871340REMAWY067XCS SA 2300 AUTO8 M M M M/-31/-35/3413/M/ PK WND 3417 2252Z M 37MM=
0118712230999992024011200004+51933-110700FM-12+077299999V0203401N006219999999N999999999-03131-03461999999ADDAA106000091AA224000431KA1120M-02881KA2120N-03141REMSYN05871223 16/// /3412 11313 21346 60001 333 11288 21314 70004=
0093712230999992024011200004+51930-110720SAO  +077299999V020340190062199999999999999999-03131-03461999999ADDOD130100871330REMAWY067XCS SA 0000 AUTO8 M M M M/-31/-35/3412/M/ PK WND 3317 2346Z M 36MM=
0093712230999992024011201004+51930-110720SAO  +077299999V020330190067199999999999999999-03131-03471999999ADDOD130100871320REMAWY067XCS SA 0100 AUTO8 M M M M/-31/-35/3313/M/ PK WND 3217 0059Z M 37MM=
0093712230999992024011202004+51930-110720SAO  +077299999V020330190072199999999999999999-03191-03521999999ADDOD130101031330REMAWY067XCS SA 0200 AUTO8 M M M M/-32/-35/3314/M/ PK WND 3320 0143Z M 92MM=
0063712230999992024011203004+51933-110700FM-12+077299999V0203301N006219999999N999999999-03261-03601999999ADDAA103000091REMSYN04071223 26/// /3312 11326 21360 333 60007=
0093712230999992024011203004+51930-110720SAO  +077299999V020330190062199999999999999999-03261-03601999999ADDOD130100981330REMAWY067XCS SA 0300 AUTO8 M M M M/-33/-36/3312/M/ PK WND 3319 0212Z M 60MM=
0058712230999992024011204004+51930-110720SAO  +077299999V020330190057199999999999999999-03361-03701999999REMAWY049XCS SA 0400 AUTO8 M M M M/-34/-37/3311/M/ M 60MM=
0058712230999992024011205004+51930-110720SAO  +077299999V020330190057199999999999999999-03411-03761999999REMAWY049XCS SA 0500 AUTO8 M M M M/-34/-38/3311/M/ M 16MM=
0134712230999992024011206004+51933-110700FM-12+077299999V0203201N003619999999N999999999-03551-03901999999ADDAA106000091AA224000091KA1240M-02651KA2240N-03551REMSYN07471223 16/// /3207 11355 21390 60001 333 11265 21355 70000 555 33320 40021=
0058712230999992024011206004+51930-110720SAO  +077299999V020320190036199999999999999999-03551-03901999999REMAWY049XCS SA 0600 AUTO8 M M M M/-36/-39/3207/M/ M 50MM=
0095712230999992024011207004+51930-110720SAO  +077299999V020310190041199999999999999999-03711-04071999999ADDAA101000431REMAWY072XCS SA 0700 AUTO8 M M M M/-37/-41/3108/M/0004 PCPN 0.4MM PAST HR M 17MM=
0062712230999992024011208004+51930-110720SAO  +077299999V020310190041199999999999999999-03821-04181999999REMAWY053XCS SA 0800 AUTO8 M M M M/-38/-42/3108/M/0004 M 28MM=
0063712230999992024011209004+51933-110700FM-12+077299999V0203001N004119999999N999999999-03881-04241999999ADDAA103000431REMSYN04071223 26/// /3008 11388 21424 333 69947=
0062712230999992024011209004+51930-110720SAO  +077299999V020300190041199999999999999999-03881-04241999999REMAWY053XCS SA 0900 AUTO8 M M M M/-39/-42/3008/M/0004 M 84MM=
0062712230999992024011210004+51930-110720SAO  +077299999V020300190057199999999999999999-03861-04221999999REMAWY053XCS SA 1000 AUTO8 M M M M/-39/-42/3011/M/0004 M 62MM=
0062712230999992024011211004+51930-110720SAO  +077299999V020310190057199999999999999999-03861-04221999999REMAWY053XCS SA 1100 AUTO8 M M M M/-39/-42/3111/M/0004 M 62MM=
0118712230999992024011212004+51933-110700FM-12+077299999V0203201N005119999999N999999999-03871-04231999999ADDAA106000431AA224000431KA1240M-02651KA2240N-03911REMSYN05871223 16/// /3210 11387 21423 69941 333 11265 21391 70004=
0062712230999992024011212004+51930-110720SAO  +077299999V020320190051199999999999999999-03871-04231999999REMAWY053XCS SA 1200 AUTO8 M M M M/-39/-42/3210/M/0004 M 73MM=
0058712230999992024011213004+51930-110720SAO  +077299999V020310190036199999999999999999-03941-04311999999REMAWY049XCS SA 1300 AUTO8 M M M M/-39/-43/3107/M/ M 41MM=
0058712230999992024011214004+51930-110720SAO  +077299999V020310190036199999999999999999-03941-04321999999REMAWY049XCS SA 1400 AUTO8 M M M M/-39/-43/3107/M/ M 42MM=
0063712230999992024011215004+51933-110700FM-12+077299999V0203101N006219999999N999999999-03861-04231999999ADDAA103000091REMSYN04071223 26/// /3112 11386 21423 333 60007=
0058712230999992024011215004+51930-110720SAO  +077299999V020310190062199999999999999999-03861-04231999999REMAWY049XCS SA 1500 AUTO8 M M M M/-39/-42/3112/M/ M 63MM=
0058712230999992024011216004+51930-110720SAO  +077299999V020310190041199999999999999999-03851-04221999999REMAWY049XCS SA 1600 AUTO8 M M M M/-39/-42/3108/M/ M 52MM=
0058712230999992024011217004+51930-110720SAO  +077299999V020310190062199999999999999999-03861-04231999999REMAWY049XCS SA 1700 AUTO8 M M M M/-39/-42/3112/M/ M 63MM=
0118712230999992024011218004+51933-110700FM-12+077299999V0203101N005719999999N999999999-03821-04191999999ADDAA106000091AA224000431KA1120M-03551KA2120N-03961REMSYN05871223 16/// /3111 11382 21419 60001 333 11355 21396 70004=
0058712230999992024011218004+51930-110720SAO  +077299999V020310190057199999999999999999-03821-04191999999REMAWY049XCS SA 1800 AUTO8 M M M M/-38/-42/3111/M/ M 29MM=
0058712230999992024011219004+51930-110720SAO  +077299999V020300190051199999999999999999-03821-04191999999REMAWY049XCS SA 1900 AUTO8 M M M M/-38/-42/3010/M/ M 29MM=
0058712230999992024011220004+51930-110720SAO  +077299999V020310190057199999999999999999-03741-04101999999REMAWY049XCS SA 2000 AUTO8 M M M M/-37/-41/3111/M/ M 40MM=
0063712230999992024011221004+51933-110700FM-12+077299999V0203101N007219999999N999999999-03691-04061999999ADDAA103000091REMSYN04071223 26/// /3114 11369 21406 333 60007=
0058712230999992024011221004+51930-110720SAO  +077299999V020310190072199999999999999999-03691-04061999999REMAWY049XCS SA 2100 AUTO8 M M M M/-37/-41/3114/M/ M 96MM=
0058712230999992024011222004+51930-110720SAO  +077299999V020310190062199999999999999999-03681-03951999999REMAWY049XCS SA 2200 AUTO8 M M M M/-37/-40/3112/M/ M 85MM=
0058712230999992024011223004+51930-110720SAO  +077299999V020300190072199999999999999999-03761-04141999999REMAWY049XCS SA 2300 AUTO8 M M M M/-38/-41/3014/M/ M 64MM=
0118712230999992024011300004+51933-110700FM-12+077299999V0203001N006219999999N999999999-03921-04301999999ADDAA106000091AA224000431KA1120M-03661KA2120N-03961REMSYN05871223 16/// /3012 11392 21430 60001 333 11366 21396 70004=
0058712230999992024011300004+51930-110720SAO  +077299999V020300190062199999999999999999-03921-04301999999REMAWY049XCS SA 0000 AUTO8 M M M M/-39/-43/3012/M/ M 20MM=
0058712230999992024011301004+51930-110720SAO  +077299999V020310190072199999999999999999-03981-04351999999REMAWY049XCS SA 0100 AUTO8 M M M M/-40/-44/3114/M/ M 85MM=
0058712230999992024011302004+51930-110720SAO  +077299999V020300190067199999999999999999-04001-04371999999REMAWY049XCS SA 0200 AUTO8 M M M M/-40/-44/3013/M/ M 07MM=
0063712230999992024011303004+51933-110700FM-12+077299999V0203001N006219999999N999999999-04011-04391999999ADDAA103000091REMSYN04071223 26/// /3012 11401 21439 333 60007=
0058712230999992024011303004+51930-110720SAO  +077299999V020300190062199999999999999999-04011-04391999999REMAWY049XCS SA 0300 AUTO8 M M M M/-40/-44/3012/M/ M 19MM=
0058712230999992024011304004+51930-110720SAO  +077299999V020290190041199999999999999999-04121-04511999999REMAWY049XCS SA 0400 AUTO8 M M M M/-41/-45/2908/M/ M 21MM=
0058712230999992024011305004+51930-110720SAO  +077299999V020300190041199999999999999999-04241-04641999999REMAWY049XCS SA 0500 AUTO8 M M M M/-42/-46/3008/M/ M 44MM=
0118712230999992024011306004+51933-110700FM-12+077299999V0202901N004119999999N999999999-04111-04481999999ADDAA106000091AA224000431KA1240M-03551KA2240N-04261REMSYN05871223 16/// /2908 11411 21448 60001 333 11355 21426 70004=
0058712230999992024011306004+51930-110720SAO  +077299999V020290190041199999999999999999-04101-04481999999REMAWY049XCS SA 0600 AUTO8 M M M M/-41/-45/2908/M/ M 08MM=
0058712230999992024011307004+51930-110720SAO  +077299999V020290190036199999999999999999-04001-04381999999REMAWY049XCS SA 0700 AUTO8 M M M M/-40/-44/2907/M/ M 08MM=
0058712230999992024011308004+51930-110720SAO  +077299999V020290190036199999999999999999-04231-04621999999REMAWY049XCS SA 0800 AUTO8 M M M M/-42/-46/2907/M/ M 32MM=
0063712230999992024011309004+51933-110700FM-12+077299999V0202901N004119999999N999999999-04261-04651999999ADDAA103000091REMSYN04071223 26/// /2908 11426 21465 333 60007=
0058712230999992024011310004+51930-110720SAO  +077299999V020290190031199999999999999999-04071-04351999999REMAWY049XCS SA 1000 AUTO8 M M M M/-41/-44/2906/M/ M 75MM=
0058712230999992024011311004+51930-110720SAO  +077299999V020300190036199999999999999999-04151-04541999999REMAWY049XCS SA 1100 AUTO8 M M M M/-42/-45/3007/M/ M 54MM=
0118712230999992024011312004+51933-110700FM-12+077299999V0202901N002619999999N999999999-04281-04661999999ADDAA106000091AA224000091KA1240M-03551KA2240N-04531REMSYN05871223 16/// /2905 11428 21466 60001 333 11355 21453 70000=
0058712230999992024011312004+51930-110720SAO  +077299999V020290190026199999999999999999-04281-04661999999REMAWY049XCS SA 1200 AUTO8 M M M M/-43/-47/2905/M/ M 86MM=
0058712230999992024011313004+51930-110720SAO  +077299999V020290190026199999999999999999-04111-04501999999REMAWY049XCS SA 1300 AUTO8 M M M M/-41/-45/2905/M/ M 10MM=
0067712230999992024011314004+51050-111345FM-12+077299999V0202971N0020199999999999999999-04211-04611999999ADDAA199999999KA1120M-04081KA2120N-04271OD139900311289REMSYN004BUFR
0058712230999992024011314004+51930-110720SAO  +077299999V020300190026199999999999999999-04201-04591999999REMAWY049XCS SA 1400 AUTO8 M M M M/-42/-46/3005/M/ M 09MM=
0063712230999992024011315004+51933-110700FM-12+077299999V0202801N002119999999N999999999-04261-04651999999ADDAA103000091REMSYN04071223 26/// /2804 11426 21465 333 60007=
0058712230999992024011315004+51930-110720SAO  +077299999V020280190021199999999999999999-04261-04551999999REMAWY049XCS SA 1500 AUTO8 M M M M/-43/-46/2804/M/ M 65MM=
0058712230999992024011316004+51930-110720SAO  +077299999V020120190005199999999999999999-04181-04571999999REMAWY049XCS SA 1600 AUTO8 M M M M/-42/-46/1201/M/ M 87MM=
0058712230999992024011317004+51930-110720SAO  +077299999V020230190015199999999999999999-04211-04611999999REMAWY049XCS SA 1700 AUTO8 M M M M/-42/-46/2303/M/ M 11MM=
0118712230999992024011318004+51933-110700FM-12+077299999V0202401N003119999999N999999999-04121-04521999999ADDAA106000091AA224000091KA1120M-03851KA2120N-04531REMSYN05871223 16/// /2406 11412 21452 60001 333 11385 21453 70000=
0058712230999992024011318004+51930-110720SAO  +077299999V020240190031199999999999999999-04121-04521999999REMAWY049XCS SA 1800 AUTO8 M M M M/-41/-45/2406/M/ M 22MM=
0058712230999992024011319004+51930-110720SAO  +077299999V020240190021199999999999999999-03601-03951999999REMAWY049XCS SA 1900 AUTO8 M M M M/-36/-40/2404/M/ M 05MM=
0058712230999992024011320004+51930-110720SAO  +077299999V020240190021199999999999999999-03681-03951999999REMAWY049XCS SA 2000 AUTO8 M M M M/-37/-40/2404/M/ M 85MM=
0063712230999992024011321004+51933-110700FM-12+077299999V0202201N001019999999N999999999-03421-03781999999ADDAA103000091REMSYN04071223 26/// /2202 11342 21378 333 60007=
0058712230999992024011321004+51930-110720SAO  +077299999V020220190010199999999999999999-03421-03781999999REMAWY049XCS SA 2100 AUTO8 M M M M/-34/-38/2202/M/ M 28MM=
0058712230999992024011322004+51930-110720SAO  +077299999V020350190005199999999999999999-03341-03681999999REMAWY049XCS SA 2200 AUTO8 M M M M/-33/-37/3501/M/ M 48MM=
0058712230999992024011323004+51930-110720SAO  +077299999V020160190005199999999999999999-03591-03961999999REMAWY049XCS SA 2300 AUTO8 M M M M/-36/-40/1601/M/ M 96MM=
0118712230999992024011400004+51933-110700FM-12+077299999V0209999C000019999999N999999999-03751-04131999999ADDAA106000091AA224000091KA1120M-03191KA2120N-04531REMSYN05871223 16/// /0000 11375 21413 60001 333 11319 21453 70000=
0058712230999992024011400004+51930-110720SAO  +077299999V020240190005199999999999999999-03651-04131999999REMAWY049XCS SA 0000 AUTO8 M M M M/-37/-41/2401/M/ M 53MM=
0058712230999992024011401004+51930-110720SAO  +077299999V020360190000199999999999999999-03751-04121999999REMAWY049XCS SA 0100 AUTO8 M M M M/-38/-41/0000/M/ M 52MM=
0063712230999992024011415004+51933-110700FM-12+077299999V0202901N002619999999N999999999-03861-04231999999ADDAA103999999REMSYN04071223 46/// /2905 11386 21423 333 6///7=
0059712230999992024011415004+51930-110720SAO  +077299999V020290190026199999999999999999-03851-04231999999REMAWY050XCS SA 1500 AUTO8 M M M M/-39/-42/2905/M/M M 53MM=
0059712230999992024011416004+51930-110720SAO  +077299999V020300190041199999999999999999-04021-04411999999REMAWY050XCS SA 1600 AUTO8 M M M M/-40/-44/3008/M/M M 21MM=
0059712230999992024011417004+51930-110720SAO  +077299999V020310190041199999999999999999-03881-04151999999REMAWY050XCS SA 1700 AUTO8 M M M M/-39/-42/3108/M/M M 85MM=
0080712230999992024011418004+51933-110700FM-12+077299999V0203101N004619999999N999999999-03721-04081999999ADDAA106999919AA224999919REMSYN04671223 46/// /3109 11372 21408 6///1 333 7////=
0059712230999992024011418004+51930-110720SAO  +077299999V020310190046199999999999999999-03721-04081999999REMAWY050XCS SA 1800 AUTO8 M M M M/-37/-41/3109/M/M M 28MM=
0058712230999992024011419004+51930-110720SAO  +077299999V020300190051199999999999999999-03481-03831999999REMAWY049XCS SA 1900 AUTO8 M M M M/-35/-38/3010/M/ M 83MM=
0058712230999992024011420004+51930-110720SAO  +077299999V020310190067199999999999999999-03411-03771999999REMAWY049XCS SA 2000 AUTO8 M M M M/-34/-38/3113/M/ M 17MM=
0063712230999992024011421004+51933-110700FM-12+077299999V0203001N005119999999N999999999-03321-03671999999ADDAA103000091REMSYN04071223 26/// /3010 11332 21367 333 60007=
0058712230999992024011421004+51930-110720SAO  +077299999V020300190051199999999999999999-03321-03671999999REMAWY049XCS SA 2100 AUTO8 M M M M/-33/-37/3010/M/ M 27MM=
0058712230999992024011422004+51930-110720SAO  +077299999V020300190062199999999999999999-03311-03661999999REMAWY049XCS SA 2200 AUTO8 M M M M/-33/-37/3012/M/ M 16MM=
0058712230999992024011423004+51930-110720SAO  +077299999V020310190062199999999999999999-03351-03721999999REMAWY049XCS SA 2300 AUTO8 M M M M/-34/-37/3112/M/ M 52MM=
0080712230999992024011500004+51933-110700FM-12+077299999V0202901N006719999999N999999999-03471-03831999999ADDAA106000091AA224999919REMSYN04671223 16/// /2913 11347 21383 60001 333 7////=
0058712230999992024011500004+51930-110720SAO  +077299999V020300190067199999999999999999-03461-03831999999REMAWY049XCS SA 0000 AUTO8 M M M M/-35/-38/3013/M/ M 63MM=
0093712230999992024011501004+51930-110720SAO  +077299999V020290190077199999999999999999-03471-03831999999ADDOD130100931300REMAWY067XCS SA 0100 AUTO8 M M M M/-35/-38/2915/M/ PK WND 3018 0050Z M 73MM=
0093712230999992024011502004+51930-110720SAO  +077299999V020300190082199999999999999999-03591-03951999999ADDOD130100871300REMAWY067XCS SA 0200 AUTO8 M M M M/-36/-40/3016/M/ PK WND 3017 0131Z M 95MM=
0063712230999992024011503004+51933-110700FM-12+077299999V0203001N007219999999N999999999-03511-03871999999ADDAA103000091REMSYN04071223 26/// /3014 11351 21387 333 60007=
0093712230999992024011503004+51930-110720SAO  +077299999V020300190072199999999999999999-03511-03871999999ADDOD130100871300REMAWY067XCS SA 0300 AUTO8 M M M M/-35/-39/3014/M/ PK WND 3017 0203Z M 17MM=
0058712230999992024011504004+51930-110720SAO  +077299999V020300190067199999999999999999-03481-03841999999REMAWY049XCS SA 0400 AUTO8 M M M M/-35/-38/3013/M/ M 84MM=
0058712230999992024011505004+51930-110720SAO  +077299999V020300190072199999999999999999-03461-03821999999REMAWY049XCS SA 0500 AUTO8 M M M M/-35/-38/3014/M/ M 62MM=
0080712230999992024011506004+51933-110700FM-12+077299999V0203001N007219999999N999999999-03531-03901999999ADDAA106000091AA224999919REMSYN04671223 16/// /3014 11353 21390 60001 333 7////=
0058712230999992024011506004+51930-110720SAO  +077299999V020300190072199999999999999999-03531-03901999999REMAWY049XCS SA 0600 AUTO8 M M M M/-35/-39/3014/M/ M 30MM=
0093712230999992024011507004+51930-110720SAO  +077299999V020290190067199999999999999999-03401-03751999999ADDOD130100871300REMAWY067XCS SA 0700 AUTO8 M M M M/-34/-38/2913/M/ PK WND 3017 0645Z M 05MM=
0093712230999992024011508004+51930-110720SAO  +077299999V020300190072199999999999999999-03301-03551999999ADDOD130100871300REMAWY067XCS SA 0800 AUTO8 M M M M/-33/-36/3014/M/ PK WND 3017 0753Z M 05MM=
0063712230999992024011509004+51933-110700FM-12+077299999V0202701N004619999999N999999999-03531-03901999999ADDAA103000091REMSYN04071223 26/// /2709 11353 21390 333 60007=
0058712230999992024011509004+51930-110720SAO  +077299999V020280190046199999999999999999-03531-03901999999REMAWY049XCS SA 0900 AUTO8 M M M M/-35/-39/2809/M/ M 30MM=
0058712230999992024011510004+51930-110720SAO  +077299999V020270190046199999999999999999-03581-03951999999REMAWY049XCS SA 1000 AUTO8 M M M M/-36/-40/2709/M/ M 85MM=
0058712230999992024011511004+51930-110720SAO  +077299999V020290190057199999999999999999-03491-03751999999REMAWY049XCS SA 1100 AUTO8 M M M M/-35/-38/2911/M/ M 95MM=
0099712230999992024011512004+51933-110700FM-12+077299999V0202801N004119999999N999999999-03451-03811999999ADDAA106000091AA224999919KA1240N-03601REMSYN05271223 16/// /2808 11345 21381 60001 333 21360 7////=
0058712230999992024011512004+51930-110720SAO  +077299999V020280190041199999999999999999-03351-03811999999REMAWY049XCS SA 1200 AUTO8 M M M M/-34/-38/2808/M/ M 51MM=
0058712230999992024011513004+51930-110720SAO  +077299999V020280190036199999999999999999-03381-03741999999REMAWY049XCS SA 1300 AUTO8 M M M M/-34/-37/2807/M/ M 84MM=
0058712230999992024011514004+51930-110720SAO  +077299999V020270190036199999999999999999-03591-03951999999REMAWY049XCS SA 1400 AUTO8 M M M M/-36/-40/2707/M/ M 95MM=
0063712230999992024011515004+51933-110700FM-12+077299999V0202601N004619999999N999999999-03491-03851999999ADDAA103000091REMSYN04071223 26/// /2609 11349 21385 333 60007=
0058712230999992024011515004+51930-110720SAO  +077299999V020260190046199999999999999999-03491-03751999999REMAWY049XCS SA 1500 AUTO8 M M M M/-35/-38/2609/M/ M 95MM=
0058712230999992024011516004+51930-110720SAO  +077299999V020240190051199999999999999999-03421-03781999999REMAWY049XCS SA 1600 AUTO8 M M M M/-34/-38/2410/M/ M 28MM=
0058712230999992024011517004+51930-110720SAO  +077299999V020230190057199999999999999999-03491-03751999999REMAWY049XCS SA 1700 AUTO8 M M M M/-35/-38/2311/M/ M 95MM=
0118712230999992024011518004+51933-110700FM-12+077299999V0202301N005719999999N999999999-03171-03521999999ADDAA106000091AA224000091KA1120M-03171KA2120N-03841REMSYN05871223 16/// /2311 11317 21352 60001 333 11317 21384 70000=
0058712230999992024011519004+51930-110720SAO  +077299999V020230190067199999999999999999-03071-03421999999REMAWY049XCS SA 1900 AUTO8 M M M M/-31/-34/2313/M/ M 72MM=
0058712230999992024011520004+51930-110720SAO  +077299999V020210190026199999999999999999-02991-03361999999REMAWY049XCS SA 2000 AUTO8 M M M M/-30/-34/2105/M/ M 96MM=
0063712230999992024011521004+51933-110700FM-12+077299999V0202301N008219999999N999999999-02931-03271999999ADDAA103000091REMSYN04071223 26/// /2316 11293 21327 333 60007=
0093712230999992024011521004+51930-110720SAO  +077299999V020240190082199999999999999999-02931-03271999999ADDOD130100931240REMAWY067XCS SA 2100 AUTO8 M M M M/-29/-33/2416/M/ PK WND 2418 2052Z M 37MM=
0093712230999992024011522004+51930-110720SAO  +077299999V020230190082199999999999999999-02901-03151999999ADDOD130100931240REMAWY067XCS SA 2200 AUTO8 M M M M/-29/-32/2316/M/ PK WND 2418 2100Z M 05MM=
0058712230999992024011523004+51930-110720SAO  +077299999V020230190067199999999999999999-02851-03301999999REMAWY049XCS SA 2300 AUTO8 M M M M/-29/-33/2313/M/ M 50MM=
0118712230999992024011600004+51933-110700FM-12+077299999V0202001N003619999999N999999999-03041-03411999999ADDAA106000091AA224000091KA1120M-02891KA2120N-03841REMSYN05871223 16/// /2007 11304 21341 60001 333 11289 21384 70000=
0058712230999992024011600004+51930-110720SAO  +077299999V020200190036199999999999999999-03041-03411999999REMAWY049XCS SA 0000 AUTO8 M M M M/-30/-34/2007/M/ M 41MM=
0058712230999992024011601004+51930-110720SAO  +077299999V020180190021199999999999999999-03141-03511999999REMAWY049XCS SA 0100 AUTO8 M M M M/-31/-35/1804/M/ M 41MM=
0058712230999992024011602004+51930-110720SAO  +077299999V020230190041199999999999999999-03291-03641999999REMAWY049XCS SA 0200 AUTO8 M M M M/-33/-36/2308/M/ M 94MM=
0063712230999992024011603004+51933-110700FM-12+077299999V0202101N003619999999N999999999-03351-03711999999ADDAA103000091REMSYN04071223 26/// /2107 11335 21371 333 60007=
0058712230999992024011603004+51930-110720SAO  +077299999V020210190036199999999999999999-03251-03711999999REMAWY049XCS SA 0300 AUTO8 M M M M/-33/-37/2107/M/ M 51MM=
0058712230999992024011604004+51930-110720SAO  +077299999V020230190051199999999999999999-03311-03661999999REMAWY049XCS SA 0400 AUTO8 M M M M/-33/-37/2310/M/ M 16MM=
0058712230999992024011605004+51930-110720SAO  +077299999V020220190062199999999999999999-03291-03641999999REMAWY049XCS SA 0500 AUTO8 M M M M/-33/-36/2212/M/ M 94MM=
0134712230999992024011606004+51933-110700FM-12+077299999V0202401N006719999999N999999999-03091-03441999999ADDAA106000091AA224000091KA1240M-02891KA2240N-03841REMSYN07471223 16/// /2413 11309 21344 60001 333 11289 21384 70000 555 32418 40211=
0058712230999992024011606004+51930-110720SAO  +077299999V020240190067199999999999999999-03091-03441999999REMAWY049XCS SA 0600 AUTO8 M M M M/-31/-34/2413/M/ M 94MM=
0093712230999992024011607004+51930-110720SAO  +077299999V020230190067199999999999999999-02911-03271999999ADDOD130100871230REMAWY067XCS SA 0700 AUTO8 M M M M/-29/-33/2313/M/ PK WND 2317 0641Z M 17MM=
0058712230999992024011608004+51930-110720SAO  +077299999V020250190046199999999999999999-02721-02951999999REMAWY049XCS SA 0800 AUTO8 M M M M/-27/-30/2509/M/ M 25MM=
0063712230999992024011609004+51933-110700FM-12+077299999V0202501N004619999999N999999999-02701-03051999999ADDAA103000091REMSYN04071223 26/// /2509 11270 21305 333 60007=
0058712230999992024011609004+51930-110720SAO  +077299999V020250190046199999999999999999-02701-02951999999REMAWY049XCS SA 0900 AUTO8 M M M M/-27/-30/2509/M/ M 05MM=
0058712230999992024011610004+51930-110720SAO  +077299999V020280190041199999999999999999-02411-02741999999REMAWY049XCS SA 1000 AUTO8 M M M M/-24/-27/2808/M/ M 14MM=
0058712230999992024011611004+51930-110720SAO  +077299999V020290190041199999999999999999-02151-02581999999REMAWY049XCS SA 1100 AUTO8 M M M M/-22/-26/2908/M/ M 58MM=
0105712230999992024011612004+51933-110700FM-12+077299999V0203001N004619999999N999999999-02111-02381999999ADDAA106000091AA224000091KA1240N-03371REMSYN05871223 16/// /3009 11211 21238 60001 333 11289 21337 70000=
0058712230999992024011612004+51930-110720SAO  +077299999V020300190046199999999999999999-02111-02381999999REMAWY049XCS SA 1200 AUTO8 M M M M/-21/-24/3009/M/ M 18MM=
0093712230999992024011613004+51930-110720SAO  +077299999V020300190082199999999999999999-02091-02331999999ADDOD130100871310REMAWY067XCS SA 1300 AUTO8 M M M M/-21/-23/3016/M/ PK WND 3117 1258Z M 93MM=
0093712230999992024011614004+51930-110720SAO  +077299999V020310190067199999999999999999-01991-02231999999ADDOD130100871310REMAWY067XCS SA 1400 AUTO8 M M M M/-20/-22/3113/M/ PK WND 3117 1302Z M 93MM=
0063712230999992024011615004+51933-110700FM-12+077299999V0203001N007719999999N999999999-01901-02131999999ADDAA103000091REMSYN04071223 26/// /3015 11190 21213 333 60007=
0093712230999992024011615004+51930-110720SAO  +077299999V020300190077199999999999999999-01901-02131999999ADDOD130100871300REMAWY067XCS SA 1500 AUTO8 M M M M/-19/-21/3015/M/ PK WND 3017 1459Z M 03MM=
0093712230999992024011616004+51930-110720SAO  +077299999V020310190067199999999999999999-01691-01891999999ADDOD130100931310REMAWY067XCS SA 1600 AUTO8 M M M M/-17/-19/3113/M/ PK WND 3118 1525Z M 99MM=
0093712230999992024011617004+51930-110720SAO  +077299999V020310190062199999999999999999-01621-01821999999ADDOD130100871300REMAWY067XCS SA 1700 AUTO8 M M M M/-16/-18/3112/M/ PK WND 3017 1610Z M 22MM=
0118712230999992024011618004+51933-110700FM-12+077299999V0203101N006219999999N999999999-01501-01691999999ADDAA106000091AA224000091KA1120M-01491KA2120N-03371REMSYN05871223 16/// /3112 11150 21169 60001 333 11149 21337 70000=
0093712230999992024011618004+51930-110720SAO  +077299999V020310190062199999999999999999-01501-01691999999ADDOD130100871310REMAWY067XCS SA 1800 AUTO8 M M M M/-15/-17/3112/M/ PK WND 3117 1732Z M 09MM=
0058712230999992024011619004+51930-110720SAO  +077299999V020310190057199999999999999999-01401-01611999999REMAWY049XCS SA 1900 AUTO8 M M M M/-14/-16/3111/M/ M 01MM=
0058712230999992024011620004+51930-110720SAO  +077299999V020330190067199999999999999999-01381-01611999999REMAWY049XCS SA 2000 AUTO8 M M M M/-14/-16/3313/M/ M 81MM=
0063712230999992024011621004+51933-110700FM-12+077299999V0203201N006719999999N999999999-01421-01651999999ADDAA103000091REMSYN04071223 26/// /3213 11142 21165 333 60007=
0058712230999992024011621004+51930-110720SAO  +077299999V020320190067199999999999999999-01421-01551999999REMAWY049XCS SA 2100 AUTO8 M M M M/-14/-16/3213/M/ M 25MM=
0058712230999992024011622004+51930-110720SAO  +077299999V020320190046199999999999999999-01471-01711999999REMAWY049XCS SA 2200 AUTO8 M M M M/-15/-17/3209/M/ M 71MM=
0058712230999992024011623004+51930-110720SAO  +077299999V020330190057199999999999999999-01471-01741999999REMAWY049XCS SA 2300 AUTO8 M M M M/-15/-17/3311/M/ M 74MM=
0118712230999992024011700004+51933-110700FM-12+077299999V0203301N006219999999N999999999-01581-01881999999ADDAA106000091AA224000091KA1120M-01371KA2120N-03131REMSYN05871223 16/// /3312 11158 21188 60001 333 11137 21313 70000=
0093712230999992024011700004+51930-110720SAO  +077299999V020330190062199999999999999999-01581-01881999999ADDOD130100871320REMAWY067XCS SA 0000 AUTO8 M M M M/-16/-19/3312/M/ PK WND 3217 2350Z M 88MM=
0093712230999992024011701004+51930-110720SAO  +077299999V020320190077199999999999999999-01621-01941999999ADDOD130100871330REMAWY067XCS SA 0100 AUTO8 M M M M/-16/-19/3215/M/ PK WND 3317 0056Z M 24MM=
0093712230999992024011702004+51930-110720SAO  +077299999V020320190072199999999999999999-01711-02141999999ADDOD130100871310REMAWY067XCS SA 0200 AUTO8 M M M M/-17/-21/3214/M/ PK WND 3117 0145Z M 14MM=
0063712230999992024011703004+51933-110700FM-12+077299999V0203101N004619999999N999999999-01811-02181999999ADDAA103000091REMSYN04071223 26/// /3109 11181 21218 333 60007=
0093712230999992024011703004+51930-110720SAO  +077299999V020310190046199999999999999999-01811-02181999999ADDOD130100981320REMAWY067XCS SA 0300 AUTO8 M M M M/-18/-22/3109/M/ PK WND 3219 0223Z M 18MM=
0093712230999992024011704004+51930-110720SAO  +077299999V020320190072199999999999999999-01891-02171999999ADDOD130100981320REMAWY067XCS SA 0400 AUTO8 M M M M/-19/-22/3214/M/ PK WND 3219 0343Z M 97MM=
0093712230999992024011705004+51930-110720SAO  +077299999V020320190082199999999999999999-01961-02241999999ADDOD130101031300REMAWY067XCS SA 0500 AUTO8 M M M M/-20/-22/3216/M/ PK WND 3020 0449Z M 64MM=
0134712230999992024011706004+51933-110700FM-12+077299999V0203201N009319999999N999999999-02071-02351999999ADDAA106000091AA224000091KA1240M-01371KA2240N-03131REMSYN07471223 16/// /3218 11207 21235 60001 333 11137 21313 70000 555 33323 40061=
0093712230999992024011706004+51930-110720SAO  +077299999V020320190093199999999999999999-02071-02351999999ADDOD130101181330REMAWY067XCS SA 0600 AUTO8 M M M M/-21/-24/3218/M/ PK WND 3323 0534Z M 75MM=
0093712230999992024011707004+51930-110720SAO  +077299999V020310190087199999999999999999-02181-02511999999ADDOD130101131310REMAWY067XCS SA 0700 AUTO8 M M M M/-22/-25/3117/M/ PK WND 3122 0602Z M 81MM=
0093712230999992024011708004+51930-110720SAO  +077299999V020320190067199999999999999999-02291-02591999999ADDOD130101031310REMAWY067XCS SA 0800 AUTO8 M M M M/-23/-26/3213/M/ PK WND 3120 0703Z M 99MM=
0063712230999992024011709004+51933-110700FM-12+077299999V0203101N007219999999N999999999-02321-02591999999ADDAA103000091REMSYN04071223 26/// /3114 11232 21259 333 60007=
0093712230999992024011709004+51930-110720SAO  +077299999V020310190072199999999999999999-02321-02591999999ADDOD130100871310REMAWY067XCS SA 0900 AUTO8 M M M M/-23/-26/3114/M/ PK WND 3117 0857Z M 29MM=
0093712230999992024011710004+51930-110720SAO  +077299999V020310190082199999999999999999-02341-02631999999ADDOD130100981310REMAWY067XCS SA 1000 AUTO8 M M M M/-23/-26/3116/M/ PK WND 3119 0938Z M 43MM=
0093712230999992024011711004+51930-110720SAO  +077299999V020300190072199999999999999999-02481-02781999999ADDOD130100931310REMAWY067XCS SA 1100 AUTO8 M M M M/-25/-28/3014/M/ PK WND 3118 1009Z M 88MM=
0118712230999992024011712004+51933-110700FM-12+077299999V0203101N006719999999N999999999-02491-02791999999ADDAA106000091AA224000091KA1240M-01371KA2240N-02511REMSYN05871223 16/// /3113 11249 21279 60001 333 11137 21251 70000=
0093712230999992024011712004+51930-110720SAO  +077299999V020310190067199999999999999999-02491-02791999999ADDOD130100871300REMAWY067XCS SA 1200 AUTO8 M M M M/-25/-28/3113/M/ PK WND 3017 1113Z M 99MM=
0093712230999992024011713004+51930-110720SAO  +077299999V020310190082199999999999999999-02531-02751999999ADDOD130100931300REMAWY067XCS SA 1300 AUTO8 M M M M/-25/-28/3116/M/ PK WND 3018 1257Z M 35MM=
0093712230999992024011714004+51930-110720SAO  +077299999V020310190062199999999999999999-02491-02751999999ADDOD130101031310REMAWY067XCS SA 1400 AUTO8 M M M M/-25/-28/3112/M/ PK WND 3120 1308Z M 95MM=
0063712230999992024011715004+51933-110700FM-12+077299999V0203101N007219999999N999999999-02471-02811999999ADDAA103000091REMSYN04071223 26/// /3114 11247 21281 333 60007=
0093712230999992024011715004+51930-110720SAO  +077299999V020310190072199999999999999999-02471-02811999999ADDOD130100871320REMAWY067XCS SA 1500 AUTO8 M M M M/-25/-28/3114/M/ PK WND 3217 1449Z M 71MM=
0093712230999992024011716004+51930-110720SAO  +077299999V020320190041199999999999999999-02421-02751999999ADDOD130100871310REMAWY067XCS SA 1600 AUTO8 M M M M/-24/-28/3208/M/ PK WND 3117 1500Z M 25MM=
0058712230999992024011717004+51930-110720SAO  +077299999V020300190051199999999999999999-02411-02761999999REMAWY049XCS SA 1700 AUTO8 M M M M/-24/-28/3010/M/ M 16MM=
0118712230999992024011718004+51933-110700FM-12+077299999V0203101N007219999999N999999999-02381-02741999999ADDAA106000091AA224000091KA1120M-02071KA2120N-02561REMSYN05871223 16/// /3114 11238 21274 60001 333 11207 21256 70000=
0058712230999992024011718004+51930-110720SAO  +077299999V020310190072199999999999999999-02381-02741999999REMAWY049XCS SA 1800 AUTO8 M M M M/-24/-27/3114/M/ M 84MM=
0058712230999992024011719004+51930-110720SAO  +077299999V020320190051199999999999999999-02321-02711999999REMAWY049XCS SA 1900 AUTO8 M M M M/-23/-27/3210/M/ M 21MM=
0058712230999992024011720004+51930-110720SAO  +077299999V020300190046199999999999999999-02331-02701999999REMAWY049XCS SA 2000 AUTO8 M M M M/-23/-27/3009/M/ M 30MM=
0063712230999992024011721004+51933-110700FM-12+077299999V0203201N005719999999N999999999-02281-02651999999ADDAA103000091REMSYN04071223 26/// /3211 11228 21265 333 60007=
0058712230999992024011721004+51930-110720SAO  +077299999V020320190057199999999999999999-02281-02551999999REMAWY049XCS SA 2100 AUTO8 M M M M/-23/-26/3211/M/ M 85MM=
0058712230999992024011722004+51930-110720SAO  +077299999V020330190041199999999999999999-02281-02641999999REMAWY049XCS SA 2200 AUTO8 M M M M/-23/-26/3308/M/ M 84MM=
0058712230999992024011723004+51930-110720SAO  +077299999V020320190031199999999999999999-02291-02641999999REMAWY049XCS SA 2300 AUTO8 M M M M/-23/-26/3206/M/ M 94MM=
0118712230999992024011800004+51933-110700FM-12+077299999V0203401N003619999999N999999999-02331-02641999999ADDAA106000091AA224000091KA1120M-02271KA2120N-02561REMSYN05871223 16/// /3407 11233 21264 60001 333 11227 21256 70000=
0058712230999992024011800004+51930-110720SAO  +077299999V020340190036199999999999999999-02331-02641999999REMAWY049XCS SA 0000 AUTO8 M M M M/-23/-26/3407/M/ M 34MM=
0058712230999992024011801004+51930-110720SAO  +077299999V020350190036199999999999999999-02361-02671999999REMAWY049XCS SA 0100 AUTO8 M M M M/-24/-27/3507/M/ M 67MM=
0058712230999992024011802004+51930-110720SAO  +077299999V020330190026199999999999999999-02451-02741999999REMAWY049XCS SA 0200 AUTO8 M M M M/-25/-27/3305/M/ M 54MM=
0063712230999992024011803004+51933-110700FM-12+077299999V0203201N003119999999N999999999-02471-02751999999ADDAA103000091REMSYN04071223 26/// /3206 11247 21275 333 60007=
0058712230999992024011803004+51930-110720SAO  +077299999V020330190031199999999999999999-02471-02751999999REMAWY049XCS SA 0300 AUTO8 M M M M/-25/-28/3306/M/ M 75MM=
0058712230999992024011804004+51930-110720SAO  +077299999V020320190031199999999999999999-02431-02711999999REMAWY049XCS SA 0400 AUTO8 M M M M/-24/-27/3206/M/ M 31MM=
0058712230999992024011805004+51930-110720SAO  +077299999V020350190041199999999999999999-02281-02551999999REMAWY049XCS SA 0500 AUTO8 M M M M/-23/-26/3508/M/ M 85MM=
0134712230999992024011806004+51933-110700FM-12+077299999V0203501N003619999999N999999999-02241-02491999999ADDAA106000091AA224000091KA1240M-02071KA2240N-02561REMSYN07471223 16/// /3507 11224 21249 60001 333 11207 21256 70000 555 33122 40071=
0058712230999992024011806004+51930-110720SAO  +077299999V020350190036199999999999999999-02241-02491999999REMAWY049XCS SA 0600 AUTO8 M M M M/-22/-25/3507/M/ M 49MM=
0058712230999992024011807004+51930-110720SAO  +077299999V020350190041199999999999999999-02221-02461999999REMAWY049XCS SA 0700 AUTO8 M M M M/-22/-25/3508/M/ M 26MM=
0058712230999992024011808004+51930-110720SAO  +077299999V020340190036199999999999999999-02231-02481999999REMAWY049XCS SA 0800 AUTO8 M M M M/-22/-25/3407/M/ M 38MM=
0063712230999992024011809004+51933-110700FM-12+077299999V0203101N002619999999N999999999-02241-02501999999ADDAA103000091REMSYN04071223 26/// /3105 11224 21250 333 60007=
0058712230999992024011809004+51930-110720SAO  +077299999V020320190026199999999999999999-02241-02501999999REMAWY049XCS SA 0900 AUTO8 M M M M/-22/-25/3205/M/ M 40MM=
0058712230999992024011810004+51930-110720SAO  +077299999V020320190026199999999999999999-02241-02501999999REMAWY049XCS SA 1000 AUTO8 M M M M/-22/-25/3205/M/ M 40MM=
0058712230999992024011811004+51930-110720SAO  +077299999V020310190041199999999999999999-02251-02511999999REMAWY049XCS SA 1100 AUTO8 M M M M/-23/-25/3108/M/ M 51MM=
0118712230999992024011812004+51933-110700FM-12+077299999V0203001N004619999999N999999999-02281-02541999999ADDAA106000091AA224000091KA1240M-02071KA2240N-02491REMSYN05871223 16/// /3009 11228 21254 60001 333 11207 21249 70000=
0058712230999992024011812004+51930-110720SAO  +077299999V020300190046199999999999999999-02281-02541999999REMAWY049XCS SA 1200 AUTO8 M M M M/-23/-25/3009/M/ M 84MM=
0058712230999992024011813004+51930-110720SAO  +077299999V020320190067199999999999999999-02251-02521999999REMAWY049XCS SA 1300 AUTO8 M M M M/-23/-25/3213/M/ M 52MM=
0093712230999992024011814004+51930-110720SAO  +077299999V020310190077199999999999999999-02231-02501999999ADDOD130100981300REMAWY067XCS SA 1400 AUTO8 M M M M/-22/-25/3115/M/ PK WND 3019 1359Z M 30MM=
0063712230999992024011815004+51933-110700FM-12+077299999V0203101N007719999999N999999999-02251-02521999999ADDAA103000091REMSYN04071223 26/// /3115 11225 21252 333 60007=
0093712230999992024011815004+51930-110720SAO  +077299999V020310190077199999999999999999-02151-02521999999ADDOD130101031310REMAWY067XCS SA 1500 AUTO8 M M M M/-22/-25/3115/M/ PK WND 3120 1427Z M 52MM=
0093712230999992024011816004+51930-110720SAO  +077299999V020320190072199999999999999999-02291-02581999999ADDOD130101031310REMAWY067XCS SA 1600 AUTO8 M M M M/-23/-26/3214/M/ PK WND 3120 1509Z M 98MM=
0118712230999992024011818004+51933-110700FM-12+077299999V0203101N009319999999N999999999-02331-02611999999ADDAA106000091AA224000091KA1120M-02211KA2120N-02491REMSYN05871223 16/// /3118 11233 21261 60001 333 11221 21249 70000=
0093712230999992024011818004+51930-110720SAO  +077299999V020310190093199999999999999999-02331-02611999999ADDOD130101131300REMAWY067XCS SA 1800 AUTO8 M M M M/-23/-26/3118/M/ PK WND 3022 1800Z M 31MM=
0093712230999992024011819004+51930-110720SAO  +077299999V020310190093199999999999999999-02271-02581999999ADDOD130101231310REMAWY067XCS SA 1900 AUTO8 M M M M/-23/-26/3118/M/ PK WND 3124 1824Z M 78MM=
0093712230999992024011820004+51930-110720SAO  +077299999V020310190098199999999999999999-02211-02501999999ADDOD130101231310REMAWY067XCS SA 2000 AUTO8 M M M M/-22/-25/3119/M/ PK WND 3124 1934Z M 10MM=
0063712230999992024011821004+51933-110700FM-12+077299999V0203101N008819999999N999999999-02161-02491999999ADDAA103000091REMSYN04071223 26/// /3117 11216 21249 333 60007=
0093712230999992024011821004+51930-110720SAO  +077299999V020310190087199999999999999999-02161-02491999999ADDOD130101181310REMAWY067XCS SA 2100 AUTO8 M M M M/-22/-25/3117/M/ PK WND 3123 2019Z M 69MM=
0093712230999992024011822004+51930-110720SAO  +077299999V020320190103199999999999999999-02161-02491999999ADDOD130101181320REMAWY067XCS SA 2200 AUTO8 M M M M/-22/-25/3220/M/ PK WND 3223 2149Z M 69MM=
0093712230999992024011823004+51930-110720SAO  +077299999V020300190082199999999999999999-02231-02541999999ADDOD130101131320REMAWY067XCS SA 2300 AUTO8 M M M M/-22/-25/3016/M/ PK WND 3222 2202Z M 34MM=
0118712230999992024011900004+51933-110700FM-12+077299999V0203001N009819999999N999999999-02291-02611999999ADDAA106000091AA224000091KA1120M-02161KA2120N-02421REMSYN05871223 16/// /3019 11229 21261 60001 333 11216 21242 70000=
0093712230999992024011900004+51930-110720SAO  +077299999V020300190098199999999999999999-02291-02611999999ADDOD130101181300REMAWY067XCS SA 0000 AUTO8 M M M M/-23/-26/3019/M/ PK WND 3023 2338Z M 91MM=
0093712230999992024011901004+51930-110720SAO  +077299999V020300190118199999999999999999-02261-02571999999ADDOD130101341300REMAWY067XCS SA 0100 AUTO8 M M M M/-23/-26/3023/M/ PK WND 3026 0058Z M 67MM=
0093712230999992024011902004+51930-110720SAO  +077299999V020310190093199999999999999999-02201-02531999999ADDOD130101391310REMAWY067XCS SA 0200 AUTO8 M M M M/-22/-25/3118/M/ PK WND 3127 0114Z M 03MM=
0063712230999992024011903004+51933-110700FM-12+077299999V0202901N006719999999N999999999-02221-02541999999ADDAA103000091REMSYN04071223 26/// /2913 11222 21254 333 60007=
0093712230999992024011903004+51930-110720SAO  +077299999V020290190067199999999999999999-02221-02541999999ADDOD130101231310REMAWY067XCS SA 0300 AUTO8 M M M M/-22/-25/2913/M/ PK WND 3124 0213Z M 24MM=
0093712230999992024011904004+51930-110720SAO  +077299999V020300190062199999999999999999-02271-02591999999ADDOD130101031300REMAWY067XCS SA 0400 AUTO8 M M M M/-23/-26/3012/M/ PK WND 3020 0323Z M 79MM=
0058712230999992024011905004+51930-110720SAO  +077299999V020310190057199999999999999999-02371-02681999999REMAWY049XCS SA 0500 AUTO8 M M M M/-24/-27/3111/M/ M 78MM=
0134712230999992024011906004+51933-110700FM-12+077299999V0202901N006219999999N999999999-02391-02681999999ADDAA106000091AA224000091KA1240M-02161KA2240N-02441REMSYN07471223 16/// /2912 11239 21268 60001 333 11216 21244 70000 555 33127 40021=
0058712230999992024011906004+51930-110720SAO  +077299999V020290190062199999999999999999-02391-02681999999REMAWY049XCS SA 0600 AUTO8 M M M M/-24/-27/2912/M/ M 98MM=
0058712230999992024011907004+51930-110720SAO  +077299999V020300190062199999999999999999-02411-02691999999REMAWY049XCS SA 0700 AUTO8 M M M M/-24/-27/3012/M/ M 19MM=
0058712230999992024011908004+51930-110720SAO  +077299999V020300190046199999999999999999-02461-02721999999REMAWY049XCS SA 0800 AUTO8 M M M M/-25/-27/3009/M/ M 62MM=
0063712230999992024011909004+51933-110700FM-12+077299999V0202701N003119999999N999999999-02641-02901999999ADDAA103000091REMSYN04071223 26/// /2706 11264 21290 333 60007=
0058712230999992024011909004+51930-110720SAO  +077299999V020270190031199999999999999999-02641-02901999999REMAWY049XCS SA 0900 AUTO8 M M M M/-26/-29/2706/M/ M 40MM=
0058712230999992024011910004+51930-110720SAO  +077299999V020300190036199999999999999999-02661-02931999999REMAWY049XCS SA 1000 AUTO8 M M M M/-27/-29/3007/M/ M 63MM=
0058712230999992024011911004+51930-110720SAO  +077299999V020300190021199999999999999999-02721-02991999999REMAWY049XCS SA 1100 AUTO8 M M M M/-27/-30/3004/M/ M 29MM=
0118712230999992024011912004+51933-110700FM-12+077299999V0203001N003119999999N999999999-02681-02961999999ADDAA106000091AA224000091KA1240M-02161KA2240N-02741REMSYN05871223 16/// /3006 11268 21296 60001 333 11216 21274 70000=
0058712230999992024011912004+51930-110720SAO  +077299999V020300190031199999999999999999-02681-02961999999REMAWY049XCS SA 1200 AUTO8 M M M M/-27/-30/3006/M/ M 86MM=
0058712230999992024011913004+51930-110720SAO  +077299999V020220190026199999999999999999-02991-03301999999REMAWY049XCS SA 1300 AUTO8 M M M M/-30/-33/2205/M/ M 90MM=
0058712230999992024011914004+51930-110720SAO  +077299999V020240190015199999999999999999-02981-03291999999REMAWY049XCS SA 1400 AUTO8 M M M M/-30/-33/2403/M/ M 89MM=
0063712230999992024011915004+51933-110700FM-12+077299999V0202201N002119999999N999999999-03111-03431999999ADDAA103000091REMSYN04071223 26/// /2204 11311 21343 333 60007=
0058712230999992024011915004+51930-110720SAO  +077299999V020230190021199999999999999999-03111-03431999999REMAWY049XCS SA 1500 AUTO8 M M M M/-31/-34/2304/M/ M 13MM=
0058712230999992024011916004+51930-110720SAO  +077299999V020250190010199999999999999999-03041-03341999999REMAWY049XCS SA 1600 AUTO8 M M M M/-30/-33/2502/M/ M 44MM=
0058712230999992024011917004+51930-110720SAO  +077299999V020220190026199999999999999999-02821-03111999999REMAWY049XCS SA 1700 AUTO8 M M M M/-28/-31/2205/M/ M 21MM=
0118712230999992024011918004+51933-110700FM-12+077299999V0201801N001519999999N999999999-02561-02831999999ADDAA106000091AA224000091KA1120M-02391KA2120N-03151REMSYN05871223 16/// /1803 11256 21283 60001 333 11239 21315 70000=
0058712230999992024011918004+51930-110720SAO  +077299999V020180190015199999999999999999-02561-02831999999REMAWY049XCS SA 1800 AUTO8 M M M M/-26/-28/1803/M/ M 63MM=
0067712230999992024011923004+51050-110745FM-12+077299999V0201121N0031199999999999999999-02361-02631999999ADDAA199999999KA1120M-02361KA2120N-02431OD139900481129REMSYN004BUFR
0059712230999992024011923004+51930-110720SAO  +077299999V020110190041199999999999999999-02361-02631999999REMAWY050XCS SA 2300 AUTO8 M M M M/-24/-26/1108/M/M M 63MM=
0080712230999992024012000004+51933-110700FM-12+077299999V0201101N004119999999N999999999-02371-02641999999ADDAA106999919AA224999919REMSYN04671223 46/// /1108 11237 21264 6///1 333 7////=
0059712230999992024012000004+51930-110720SAO  +077299999V020110190041199999999999999999-02371-02641999999REMAWY050XCS SA 0000 AUTO8 M M M M/-24/-26/1108/M/M M 74MM=
0063712230999992024012015004+51933-110700FM-12+077299999V0209999C000019999999N999999999-01991-02231999999ADDAA103999999REMSYN04071223 46/// /0000 11199 21223 333 6///7=
0059712230999992024012015004+51930-110720SAO  +077299999V020360190000199999999999999999-01991-02231999999REMAWY050XCS SA 1500 AUTO8 M M M M/-20/-22/0000/M/M M 93MM=
0059712230999992024012016004+51930-110720SAO  +077299999V020180190005199999999999999999-01911-02131999999REMAWY050XCS SA 1600 AUTO8 M M M M/-19/-21/1801/M/M M 13MM=
0059712230999992024012017004+51930-110720SAO  +077299999V020240190005199999999999999999-01841-02081999999REMAWY050XCS SA 1700 AUTO8 M M M M/-18/-21/2401/M/M M 48MM=
0080712230999992024012018004+51933-110700FM-12+077299999V0203001N003619999999N999999999-01831-02061999999ADDAA106999919AA224999919REMSYN04671223 46/// /3007 11183 21206 6///1 333 7////=
0059712230999992024012018004+51930-110720SAO  +077299999V020300190036199999999999999999-01831-02061999999REMAWY050XCS SA 1800 AUTO8 M M M M/-18/-21/3007/M/M M 36MM=
0058712230999992024012019004+51930-110720SAO  +077299999V020300190015199999999999999999-01631-01901999999REMAWY049XCS SA 1900 AUTO8 M M M M/-16/-19/3003/M/ M 30MM=
0058712230999992024012020004+51930-110720SAO  +077299999V020320190041199999999999999999-01581-01951999999REMAWY049XCS SA 2000 AUTO8 M M M M/-16/-20/3208/M/ M 85MM=
0063712230999992024012021004+51933-110700FM-12+077299999V0203301N002619999999N999999999-01531-01911999999ADDAA103000091REMSYN04071223 26/// /3305 11153 21191 333 60007=
0058712230999992024012021004+51930-110720SAO  +077299999V020330190026199999999999999999-01531-01911999999REMAWY049XCS SA 2100 AUTO8 M M M M/-15/-19/3305/M/ M 31MM=
0058712230999992024012022004+51930-110720SAO  +077299999V020340190021199999999999999999-01431-01831999999REMAWY049XCS SA 2200 AUTO8 M M M M/-14/-18/3404/M/ M 33MM=
0058712230999992024012023004+51930-110720SAO  +077299999V020360190036199999999999999999-01391-01751999999REMAWY049XCS SA 2300 AUTO8 M M M M/-14/-18/3607/M/ M 95MM=
0080712230999992024012100004+51933-110700FM-12+077299999V0203601N003619999999N999999999-01491-01831999999ADDAA106000091AA224999919REMSYN04671223 16/// /0007 11149 21183 60001 333 7////=
0058712230999992024012100004+51930-110720SAO  +077299999V020360190036199999999999999999-01491-01831999999REMAWY049XCS SA 0000 AUTO8 M M M M/-15/-18/3607/M/ M 93MM=
0058712230999992024012101004+51930-110720SAO  +077299999V020350190026199999999999999999-01591-01891999999REMAWY049XCS SA 0100 AUTO8 M M M M/-16/-19/3505/M/ M 99MM=
0058712230999992024012102004+51930-110720SAO  +077299999V020350190021199999999999999999-01721-02011999999REMAWY049XCS SA 0200 AUTO8 M M M M/-17/-20/3504/M/ M 21MM=
0063712230999992024012103004+51933-110700FM-12+077299999V0203201N002619999999N999999999-01761-01981999999ADDAA103000091REMSYN04071223 26/// /3205 11176 21198 333 60007=
0058712230999992024012103004+51930-110720SAO  +077299999V020320190026199999999999999999-01761-01981999999REMAWY049XCS SA 0300 AUTO8 M M M M/-18/-20/3205/M/ M 68MM=
0058712230999992024012104004+51930-110720SAO  +077299999V020350190026199999999999999999-01551-01841999999REMAWY049XCS SA 0400 AUTO8 M M M M/-16/-18/3505/M/ M 54MM=
0058712230999992024012105004+51930-110720SAO  +077299999V020350190046199999999999999999-01531-01681999999REMAWY049XCS SA 0500 AUTO8 M M M M/-15/-17/3509/M/ M 38MM=
0080712230999992024012106004+51933-110700FM-12+077299999V0203501N002119999999N999999999-01521-01701999999ADDAA106000091AA224999919REMSYN04671223 16/// /3504 11152 21170 60001 333 7////=
0058712230999992024012106004+51930-110720SAO  +077299999V020350190021199999999999999999-01521-01701999999REMAWY049XCS SA 0600 AUTO8 M M M M/-15/-17/3504/M/ M 20MM=
0058712230999992024012107004+51930-110720SAO  +077299999V020360190005199999999999999999-01511-01701999999REMAWY049XCS SA 0700 AUTO8 M M M M/-15/-17/3601/M/ M 10MM=
0058712230999992024012108004+51930-110720SAO  +077299999V020040190005199999999999999999-01481-01661999999REMAWY049XCS SA 0800 AUTO8 M M M M/-15/-17/0401/M/ M 86MM=
0063712230999992024012109004+51933-110700FM-12+077299999V0200601N001019999999N999999999-01481-01661999999ADDAA103000091REMSYN04071223 26/// /0602 11148 21166 333 60007=
0058712230999992024012109004+51930-110720SAO  +077299999V020060190010199999999999999999-01481-01661999999REMAWY049XCS SA 0900 AUTO8 M M M M/-15/-17/0602/M/ M 86MM=
0058712230999992024012110004+51930-110720SAO  +077299999V020060190010199999999999999999-01451-01641999999REMAWY049XCS SA 1000 AUTO8 M M M M/-15/-16/0602/M/ M 54MM=
0058712230999992024012111004+51930-110720SAO  +077299999V020070190010199999999999999999-01471-01551999999REMAWY049XCS SA 1100 AUTO8 M M M M/-15/-16/0702/M/ M 75MM=
0099712230999992024012112004+51933-110700FM-12+077299999V0200901N001019999999N999999999-01471-01651999999ADDAA106000091AA224999919KA1240N-01821REMSYN05271223 16/// /0902 11147 21165 60001 333 21182 7////=
0058712230999992024012112004+51930-110720SAO  +077299999V020100190010199999999999999999-01471-01551999999REMAWY049XCS SA 1200 AUTO8 M M M M/-15/-16/1002/M/ M 75MM=
0058712230999992024012113004+51930-110720SAO  +077299999V020050190005199999999999999999-01481-01661999999REMAWY049XCS SA 1300 AUTO8 M M M M/-15/-17/0501/M/ M 86MM=
0058712230999992024012114004+51930-110720SAO  +077299999V020050190015199999999999999999-01481-01661999999REMAWY049XCS SA 1400 AUTO8 M M M M/-15/-17/0503/M/ M 86MM=
0063712230999992024012115004+51933-110700FM-12+077299999V0200701N001519999999N999999999-01481-01671999999ADDAA103000091REMSYN04071223 26/// /0703 11148 21167 333 60007=
0058712230999992024012115004+51930-110720SAO  +077299999V020080190015199999999999999999-01481-01671999999REMAWY049XCS SA 1500 AUTO8 M M M M/-15/-17/0803/M/ M 87MM=
0058712230999992024012116004+51930-110720SAO  +077299999V020090190010199999999999999999-01351-01631999999REMAWY049XCS SA 1600 AUTO8 M M M M/-14/-16/0902/M/ M 53MM=
0058712230999992024012117004+51930-110720SAO  +077299999V020100190010199999999999999999-01411-01601999999REMAWY049XCS SA 1700 AUTO8 M M M M/-14/-16/1002/M/ M 10MM=
0118712230999992024012118004+51933-110700FM-12+077299999V0209999C000019999999N999999999-01371-01551999999ADDAA106000091AA224000091KA1120M-01371KA2120N-01831REMSYN05871223 16/// /0000 11137 21155 60001 333 11137 21183 70000=
0058712230999992024012118004+51930-110720SAO  +077299999V020110190005199999999999999999-01371-01551999999REMAWY049XCS SA 1800 AUTO8 M M M M/-14/-16/1101/M/ M 75MM=
0058712230999992024012119004+51930-110720SAO  +077299999V020080190031199999999999999999-01361-01541999999REMAWY049XCS SA 1900 AUTO8 M M M M/-14/-15/0806/M/ M 64MM=
0058712230999992024012120004+51930-110720SAO  +077299999V020300190005199999999999999999-01261-01471999999REMAWY049XCS SA 2000 AUTO8 M M M M/-13/-15/3001/M/ M 67MM=
0063712230999992024012121004+51933-110700FM-12+077299999V0200301N003619999999N999999999-01281-01491999999ADDAA103000091REMSYN04071223 26/// /0307 11128 21149 333 60007=
0058712230999992024012121004+51930-110720SAO  +077299999V020030190036199999999999999999-01281-01491999999REMAWY049XCS SA 2100 AUTO8 M M M M/-13/-15/0307/M/ M 89MM=
0058712230999992024012122004+51930-110720SAO  +077299999V020020190036199999999999999999-01271-01481999999REMAWY049XCS SA 2200 AUTO8 M M M M/-13/-15/0207/M/ M 78MM=
0058712230999992024012123004+51930-110720SAO  +077299999V020040190041199999999999999999-01291-01501999999REMAWY049XCS SA 2300 AUTO8 M M M M/-13/-15/0408/M/ M 90MM=
0118712230999992024012200004+51933-110700FM-12+077299999V0200401N004119999999N999999999-01331-01521999999ADDAA106000631AA224000631KA1120M-01251KA2120N-01521REMSYN05871223 16/// /0408 11133 21152 69961 333 11125 21152 70006=
0095712230999992024012200004+51930-110720SAO  +077299999V020040190041199999999999999999-01331-01521999999ADDAA101000631REMAWY072XCS SA 0000 AUTO8 M M M M/-13/-15/0408/M/0006 PCPN 0.6MM PAST HR M 32MM=
0095712230999992024012201004+51930-110720SAO  +077299999V020050190046199999999999999999-01331-01521999999ADDAA101000531REMAWY072XCS SA 0100 AUTO8 M M M M/-13/-15/0509/M/0005 PCPN 0.5MM PAST HR M 32MM=
0062712230999992024012202004+51930-110720SAO  +077299999V020050190046199999999999999999-01341-01521999999REMAWY053XCS SA 0200 AUTO8 M M M M/-13/-15/0509/M/0005 M 42MM=
0063712230999992024012203004+51933-110700FM-12+077299999V0200601N004619999999N999999999-01331-01511999999ADDAA103000531REMSYN04071223 26/// /0609 11133 21151 333 69957=
0062712230999992024012203004+51930-110720SAO  +077299999V020060190046199999999999999999-01331-01511999999REMAWY053XCS SA 0300 AUTO8 M M M M/-13/-15/0609/M/0005 M 31MM=
0062712230999992024012204004+51930-110720SAO  +077299999V020070190046199999999999999999-01351-01531999999REMAWY053XCS SA 0400 AUTO8 M M M M/-14/-15/0709/M/0005 M 53MM=
0062712230999992024012205004+51930-110720SAO  +077299999V020060190041199999999999999999-01381-01551999999REMAWY053XCS SA 0500 AUTO8 M M M M/-14/-16/0608/M/0005 M 85MM=
0118712230999992024012206004+51933-110700FM-12+077299999V0200801N003119999999N999999999-01361-01551999999ADDAA106000531AA224001131KA1240M-01251KA2240N-01521REMSYN05871223 16/// /0806 11136 21155 69951 333 11125 21152 70011=
0062712230999992024012206004+51930-110720SAO  +077299999V020080190031199999999999999999-01361-01551999999REMAWY053XCS SA 0600 AUTO8 M M M M/-14/-16/0806/M/0005 M 65MM=
0058712230999992024012207004+51930-110720SAO  +077299999V020070190031199999999999999999-01371-01541999999REMAWY049XCS SA 0700 AUTO8 M M M M/-14/-15/0706/M/ M 74MM=
0058712230999992024012208004+51930-110720SAO  +077299999V020080190036199999999999999999-01361-01531999999REMAWY049XCS SA 0800 AUTO8 M M M M/-14/-15/0807/M/ M 63MM=
0063712230999992024012209004+51933-110700FM-12+077299999V0200701N003619999999N999999999-01361-01551999999ADDAA103000091REMSYN04071223 26/// /0707 11136 21155 333 60007=
0058712230999992024012209004+51930-110720SAO  +077299999V020070190036199999999999999999-01361-01551999999REMAWY049XCS SA 0900 AUTO8 M M M M/-14/-16/0707/M/ M 65MM=
0058712230999992024012210004+51930-110720SAO  +077299999V020080190036199999999999999999-01341-01531999999REMAWY049XCS SA 1000 AUTO8 M M M M/-13/-15/0807/M/ M 43MM=
0058712230999992024012211004+51930-110720SAO  +077299999V020090190057199999999999999999-01251-01541999999REMAWY049XCS SA 1100 AUTO8 M M M M/-13/-15/0911/M/ M 54MM=
0118712230999992024012212004+51933-110700FM-12+077299999V0201001N005119999999N999999999-01361-01561999999ADDAA106000091AA224001131KA1240M-01251KA2240N-01391REMSYN05871223 16/// /1010 11136 21156 60001 333 11125 21139 70011=
0058712230999992024012212004+51930-110720SAO  +077299999V020100190051199999999999999999-01361-01561999999REMAWY049XCS SA 1200 AUTO8 M M M M/-14/-16/1010/M/ M 66MM=
0058712230999992024012213004+51930-110720SAO  +077299999V020110190057199999999999999999-01421-01591999999REMAWY049XCS SA 1300 AUTO8 M M M M/-14/-16/1111/M/ M 29MM=
0058712230999992024012214004+51930-110720SAO  +077299999V020100190067199999999999999999-01441-01621999999REMAWY049XCS SA 1400 AUTO8 M M M M/-14/-16/1013/M/ M 42MM=
0063712230999992024012215004+51933-110700FM-12+077299999V0201101N005719999999N999999999-01451-01631999999ADDAA103000091REMSYN04071223 26/// /1111 11145 21163 333 60007=
0058712230999992024012215004+51930-110720SAO  +077299999V020110190057199999999999999999-01351-01631999999REMAWY049XCS SA 1500 AUTO8 M M M M/-14/-16/1111/M/ M 53MM=
0058712230999992024012216004+51930-110720SAO  +077299999V020120190067199999999999999999-01351-01551999999REMAWY049XCS SA 1600 AUTO8 M M M M/-14/-16/1213/M/ M 55MM=
0093712230999992024012217004+51930-110720SAO  +077299999V020120190072199999999999999999-01431-01631999999ADDOD130100931120REMAWY067XCS SA 1700 AUTO8 M M M M/-14/-16/1214/M/ PK WND 1218 1652Z M 33MM=
0118712230999992024012218004+51933-110700FM-12+077299999V0201201N007719999999N999999999-01401-01611999999ADDAA106000091AA224001131KA1120M-01341KA2120N-01461REMSYN05871223 16/// /1215 11140 21161 60001 333 11134 21146 70011=
0093712230999992024012218004+51930-110720SAO  +077299999V020120190077199999999999999999-01401-01611999999ADDOD130100981120REMAWY067XCS SA 1800 AUTO8 M M M M/-14/-16/1215/M/ PK WND 1219 1756Z M 01MM=
0093712230999992024012219004+51930-110720SAO  +077299999V020120190072199999999999999999-01391-01611999999ADDOD130101031130REMAWY067XCS SA 1900 AUTO8 M M M M/-14/-16/1214/M/ PK WND 1320 1813Z M 91MM=
0093712230999992024012220004+51930-110720SAO  +077299999V020130190077199999999999999999-01401-01611999999ADDOD130100981120REMAWY067XCS SA 2000 AUTO8 M M M M/-14/-16/1315/M/ PK WND 1219 1907Z M 01MM=
0063712230999992024012221004+51933-110700FM-12+077299999V0201301N006219999999N999999999-01371-01581999999ADDAA103000091REMSYN04071223 26/// /1312 11137 21158 333 60007=
0093712230999992024012221004+51930-110720SAO  +077299999V020130190062199999999999999999-01371-01581999999ADDOD130100981130REMAWY067XCS SA 2100 AUTO8 M M M M/-14/-16/1312/M/ PK WND 1319 2007Z M 78MM=
0093712230999992024012222004+51930-110720SAO  +077299999V020130190051199999999999999999-01361-01561999999ADDOD130100871140REMAWY067XCS SA 2200 AUTO8 M M M M/-14/-16/1310/M/ PK WND 1417 2125Z M 66MM=
0093712230999992024012223004+51930-110720SAO  +077299999V020130190062199999999999999999-01341-01531999999ADDOD130100871140REMAWY067XCS SA 2300 AUTO8 M M M M/-13/-15/1312/M/ PK WND 1417 2256Z M 43MM=
0118712230999992024012300004+51933-110700FM-12+077299999V0201301N006219999999N999999999-01331-01491999999ADDAA106000091AA224000531KA1120M-01331KA2120N-01461REMSYN05871223 16/// /1312 11133 21149 60001 333 11133 21146 70005=
0093712230999992024012300004+51930-110720SAO  +077299999V020130190062199999999999999999-01331-01491999999ADDOD130100981130REMAWY067XCS SA 0000 AUTO8 M M M M/-13/-15/1312/M/ PK WND 1319 2317Z M 39MM=
0093712230999992024012301004+51930-110720SAO  +077299999V020130190067199999999999999999-01311-01471999999ADDOD130100871120REMAWY067XCS SA 0100 AUTO8 M M M M/-13/-15/1313/M/ PK WND 1217 0059Z M 17MM=
0058712230999992024012302004+51930-110720SAO  +077299999V020130190057199999999999999999-01271-01431999999REMAWY049XCS SA 0200 AUTO8 M M M M/-13/-14/1311/M/ M 73MM=
0063712230999992024012303004+51933-110700FM-12+077299999V0201301N003619999999N999999999-01221-01371999999ADDAA103000091REMSYN04071223 26/// /1307 11122 21137 333 60007=
0058712230999992024012303004+51930-110720SAO  +077299999V020130190036199999999999999999-01221-01371999999REMAWY049XCS SA 0300 AUTO8 M M M M/-12/-14/1307/M/ M 27MM=
0058712230999992024012304004+51930-110720SAO  +077299999V020130190041199999999999999999-01171-01321999999REMAWY049XCS SA 0400 AUTO8 M M M M/-12/-13/1308/M/ M 72MM=
0058712230999992024012305004+51930-110720SAO  +077299999V020160190015199999999999999999-01051-01291999999REMAWY049XCS SA 0500 AUTO8 M M M M/-11/-13/1603/M/ M 59MM=
0134712230999992024012306004+51933-110700FM-12+077299999V0201201N002119999999N999999999-01111-01251999999ADDAA106000091AA224000091KA1240M-01111KA2240N-01461REMSYN07471223 16/// /1204 11111 21125 60001 333 11111 21146 70000 555 31320 40191=
0058712230999992024012306004+51930-110720SAO  +077299999V020120190021199999999999999999-01111-01151999999REMAWY049XCS SA 0600 AUTO8 M M M M/-11/-12/1204/M/ M 15MM=
0058712230999992024012307004+51930-110720SAO  +077299999V020110190026199999999999999999-01061-01201999999REMAWY049XCS SA 0700 AUTO8 M M M M/-11/-12/1105/M/ M 60MM=
0058712230999992024012308004+51930-110720SAO  +077299999V020120190021199999999999999999-01031-01161999999REMAWY049XCS SA 0800 AUTO8 M M M M/-10/-12/1204/M/ M 36MM=
0063712230999992024012309004+51933-110700FM-12+077299999V0201301N002619999999N999999999-00971-01101999999ADDAA103000091REMSYN04071223 26/// /1305 11097 21110 333 60007=
0058712230999992024012309004+51930-110720SAO  +077299999V020130190026199999999999999999-00971-01101999999REMAWY049XCS SA 0900 AUTO8 M M M M/-10/-11/1305/M/ M 70MM=
0058712230999992024012310004+51930-110720SAO  +077299999V020150190026199999999999999999-00981-01121999999REMAWY049XCS SA 1000 AUTO8 M M M M/-10/-11/1505/M/ M 82MM=
0058712230999992024012311004+51930-110720SAO  +077299999V020120190015199999999999999999-00991-01131999999REMAWY049XCS SA 1100 AUTO8 M M M M/-10/-11/1203/M/ M 93MM=
0105712230999992024012312004+51933-110700FM-12+077299999V0201101N002119999999N999999999-00981-01111999999ADDAA106000091AA224000091KA1240N-01331REMSYN05871223 16/// /1104 11098 21111 60001 333 11111 21133 70000=
0058712230999992024012312004+51930-110720SAO  +077299999V020110190021199999999999999999-00981-01111999999REMAWY049XCS SA 1200 AUTO8 M M M M/-10/-11/1104/M/ M 81MM=
0058712230999992024012313004+51930-110720SAO  +077299999V020070190021199999999999999999-01071-01211999999REMAWY049XCS SA 1300 AUTO8 M M M M/-11/-12/0704/M/ M 71MM=
0095712230999992024012314004+51930-110720SAO  +077299999V020090190015199999999999999999-01191-01351999999ADDAA101000431REMAWY072XCS SA 1400 AUTO8 M M M M/-12/-14/0903/M/0004 PCPN 0.4MM PAST HR M 95MM=
0077712230999992024012315004+51933-110700FM-12+077299999V0200701N001019999999N999999999-01211-01371999999ADDAA103000431AZ141021REMSYN04671223 27/// /0702 11121 21137 7//4/ 333 69947=
0062712230999992024012315004+51930-110720SAO  +077299999V020080190010199999999999999999-01211-01371999999REMAWY053XCS SA 1500 AUTO8 M M M M/-12/-14/0802/M/0004 M 17MM=
0062712230999992024012316004+51930-110720SAO  +077299999V020360190000199999999999999999-01171-01311999999REMAWY053XCS SA 1600 AUTO8 M M M M/-12/-13/0000/M/0004 M 71MM=
0062712230999992024012317004+51930-110720SAO  +077299999V020270190010199999999999999999-01021-01151999999REMAWY053XCS SA 1700 AUTO8 M M M M/-10/-12/2702/M/0004 M 25MM=
