0030723445939932024010100004+36010-094169SHEF +038199999V020999999999999999999999999999+99999+99999999999ADDAJ100009100000099AL19900091
0198723445939932024010100217+36010-094168FM-16+0384KFYV V0309999V00315004275MN0160935N5+00115-00285999999ADDGA1085+004275999GD14991+0042759GE19AGL   +99999+99999GF199999999999004271999999MA1102305097745REMMET09212/31/23 18:21:03 SPECI KFYV 010021Z VRB06KT 10SM OVC014 01/M03 A3021 RMK AO2 T00111028 (XX)
0216723445939932024010100537+36010-094168FM-15+0384KFYV V0300405N00315004275MN0160935N5+00115-00285102435ADDAA101000095GA1085+004275999GD14991+0042759GE19AGL   +99999+99999GF199999999999004271999999MA1102345097775REMMET09912/31/23 18:53:03 METAR KFYV 010053Z 04006KT 10SM OVC014 01/M03 A3022 RMK AO2 SLP243 T00111028 (XX)
0215723445939932024010101537+36010-094168FM-15+0384KFYV V0309999V00215004275MN0144845N5+00115-00285102485ADDAA101000095GA1085+004275999GD14991+0042759GE19AGL   +99999+99999GF199999999999004271999999MA1102405097835REMMET09812/31/23 19:53:03 METAR KFYV 010153Z VRB04KT 9SM OVC014 01/M03 A3024 RMK AO2 SLP248 T00111028 (XX)
0197723445939932024010102357+36010-094168FM-16+0384KFYV V0309999V00315004575MN0144845N5+00115-00335999999ADDGA1085+004575999GD14991+0045759GE19AGL   +99999+99999GF199999999999004571999999MA1102405097835REMMET09112/31/23 20:35:03 SPECI KFYV 010235Z VRB06KT 9SM OVC015 01/M03 A3024 RMK AO2 T00111033 (XX)
0235723445939932024010102537+36010-094168FM-15+0384KFYV V0300205N00265004575MN0144845N5+00115-00335102515ADDAA101000095GA1085+004575999GD14991+0045759GE19AGL   +99999+99999GF199999999999004571999999MA1102445097875MD1190159+9999REMMET10412/31/23 20:53:03 METAR KFYV 010253Z 02005KT 9SM OVC015 01/M03 A3025 RMK AO2 SLP251 T00111033 51015 (XX)
0211723445939932024010103537+36010-094168FM-15+0384KFYV V0300405N00415005495MN0160935N5+00065-00395102525ADDAA101000095GA1085+005495999GD14991+0054959GE19AGL   +99999+99999GF199999999999005491999999MA1102475097905REMMET09412/31/23 21:53:03 METAR KFYV 010353Z 04008KT 10SM OVC018 01/M04 A3026 RMK AO2 SLP252 T00061039
0211723445939932024010104537+36010-094168FM-15+0384KFYV V0300105N00365005795MN0160935N5+00005-00505102565ADDAA101000095GA1085+005795999GD14991+0057959GE19AGL   +99999+99999GF199999999999005791999999MA1102515097935REMMET09412/31/23 22:53:03 METAR KFYV 010453Z 01007KT 10SM OVC019 00/M05 A3027 RMK AO2 SLP256 T00001050
0305723445939932024010105537+36010-094168FM-15+0384KFYV V0300405N00215006405MN0160935N5+00005-00505102615ADDAA101000095GA1085+006405999GD14991+0064059GE19AGL   +99999+99999GF199999999999006401999999KA1060M+00111KA2060N+00001KA3240M+00941KA4240N-00331MA1102575098005MD1390139+9999REMMET12212/31/23 23:53:03 METAR KFYV 010553Z 04004KT 10SM OVC021 00/M05 A3029 RMK AO2 SLP261 T00001050 10011 20000 400941033 53013
0968723445939932024010105596+36010-094168SOD  +0384KFYV V030999999999999999999999999999+99999+99999999999ADDAA124000095AJ100009599999999AN1024000095KA1240M+00945KA2240N-00325KG1024W+0000D4KG2024D-0028D4MF1097604102104MG1097584101694OE11240098335099995OE22240071533099995OE33240025999999995RH1024X089D4RH2024N052D4RH3024M072D4REMSOD73924 HR PRECIPITATION (IN): 0.00 SNOW DEPTH (IN):0     24 HR SNOWFALL (IN):0.0  24 HR MAX TEMP (F): 4924 HR MIN TEMP (F): 26AVERAGE STATION PRESSURE:28.815 MINIMUM SEA LEVEL PRESSURE:30.03 TIME OF OCCURRENCE:0157 PEAK WIND SPEED (MPH): 22 PEAK WIND DIR (DEG):350 PEAK WIND TIME (LST):      FASTEST 2MIN SPEED (MPH): 16FASTEST 2MIN DIR (DEG):330 FASTEST 2MIN TIME (LST):     AVERAGE WIND SPEED (MPH): 5.8 24 HR AVG TEMP (F): 38DEPART FROM NORMAL:  2  HEATING DEGREE DAYS: 27 COOLING DEGREE DAYS:  0 LATEST DAY MAX TEMP (0700-1900 LST):49  LATEST NIGHT MIN TEMP(1900-0800 LST):26 HOURLY INCREMENTAL PRECIPITATION VALUES (IN):.00 0.00 0.00 0.00 0.00 0.00 0.00 0.00 0.00 0.00 0.00 0.00 0.00 0.00 0.00 0.00 0.00 0.00 0.00 0.00 0.00 0.00 0.00 0.00
1308723445939932024010105596+36010-094168SOM  +0384KFYV V030999999999999999999999999999+99999+99999999999ADDAB1005319AAD1003999242599999999UAE1065035015015AH1005003092421435AH2010005192421475AH3015006992421535AH4020008992421505AH5030012292421575AH6045015592422055AI1060017592422155AI2080019692422305AI3100021392422525AI4120022692423035AI5150024992422565AI6180026992423035AK100009999999IAM100002282899999999IAN174400003IKB1744N+00895KB2744M+13115KB3744A+07005KC1N9-00721999995KC2M9+01942399995KD1744H06265KD2744C00005KE100U00U19U00UMH109743U10200UMK1103691408225100300816225REMSOM796PCP MTOT:2.09 PCP GT 24HRS:1.57 DATE(S):24-25 DAYS W/PCP >=.01:6  DAYS W/PCP >=.10:3  DAYS W/ PCP >=.50:1 DAYS W/PCP >=1.00:1 MSDP AMTS W/DATE-TIME TAGS:MIN:5 0.12  24/2143 MIN:10 0.20  24/2147 MIN:15 0.27  24/2153 MIN:20 0.35  24/2150 MIN:30 0.48  24/2157 MIN:45 0.61  24/2205 MIN:60 0.69  24/2215 MIN:80 0.77  24/2230 MIN:100 0.84  24/2252 MIN:120 0.89  24/2303 MIN:150 0.98  24/2256 MIN:180 1.06  24/2303 AVG DLY MIN:33.6  AVG DLY MAX:55.6  AVG MLY TMP:44.6  MIN TMP:19 DATE(S):19 MAX TMP:67  DATE(S):23 DAYS MAX <=32:0 DAYS MAX >=90:0  DAYS MIN <=32:19 DAYS MIN  <=0:0  AVG STP:28.765 LWST SLP:29.62 DATE/TIME:081622 HGST SLP:30.62 DATE/TIME:140822 HDD MTH TOT:626 DEP NORM:-2553 SEASON(JUL 1-JUN 30):1275 DEP NORM:-25536 CDD MTH TOT:0 DEP NORM:-2553 SEASON(JAN 1-DEC 31):1808 DEP NORM:-25536EQDR01  2.097ABP070R02  1.577ADP081
0211723445939932024010106537+36010-094168FM-15+0384KFYV V0300405N00155006105MN0160935N5+00005-00505102625ADDAA101000095GA1085+006105999GD14991+0061059GE19AGL   +99999+99999GF199999999999006101999999MA1102575098005REMMET09401/01/24 00:53:02 METAR KFYV 010653Z 04003KT 10SM OVC020 00/M05 A3029 RMK AO2 SLP262 T00001050
0211723445939932024010107537+36010-094168FM-15+0384KFYV V0300105N00155006105MN0160935N5+00005-00505102665ADDAA101000095GA1085+006105999GD14991+0061059GE19AGL   +99999+99999GF199999999999006101999999MA1102615098035REMMET09401/01/24 01:53:02 METAR KFYV 010753Z 01003KT 10SM OVC020 00/M05 A3030 RMK AO2 SLP266 T00001050
0231723445939932024010108537+36010-094168FM-15+0384KFYV V0300305N00265007015MN0160935N5+00005-00565102715ADDAA101000095GA1085+007015999GD14991+0070159GE19AGL   +99999+99999GF199999999999007011999999MA1102645098065MD1390089+9999REMMET10001/01/24 02:53:02 METAR KFYV 010853Z 03005KT 10SM OVC023 00/M06 A3031 RMK AO2 SLP271 T00001056 53008
0211723445939932024010109537+36010-094168FM-15+0384KFYV V0300305N00215006405MN0160935N5+00005-00505102725ADDAA101000095GA1085+006405999GD14991+0064059GE19AGL   +99999+99999GF199999999999006401999999MA1102645098065REMMET09401/01/24 03:53:02 METAR KFYV 010953Z 03004KT 10SM OVC021 00/M05 A3031 RMK AO2 SLP272 T00001050
0211723445939932024010110537+36010-094168FM-15+0384KFYV V0309999V00265006105MN0160935N5+00005-00505102745ADDAA101000095GA1085+006105999GD14991+0061059GE19AGL   +99999+99999GF199999999999006101999999MA1102645098065REMMET09401/01/24 04:53:02 METAR KFYV 011053Z VRB05KT 10SM OVC020 00/M05 A3031 RMK AO2 SLP274 T00001050
0274723445939932024010111537+36010-094168FM-15+0384KFYV V0300305N00215005795MN0160935N5+00005-00505102805ADDAA101000095GA1085+005795999GD14991+0057959GE19AGL   +99999+99999GF199999999999005791999999KA1060M+00001KA2060N+00001MA1102715098135MD1390079+9999REMMET11701/01/24 05:53:02 METAR KFYV 011153Z 03004KT 10SM OVC019 00/M05 A3033 RMK AO2 SLP280 T00001050 10000 20000 53007 (OO)
0217723445939932024010112537+36010-094168FM-15+0384KFYV V0300105N00215005795MN0160935N5-00065-00565102875ADDAA101000095GA1085+005795999GD14991+0057959GE19AGL   +99999+99999GF199999999999005791999999MA1102785098195REMMET10001/01/24 06:53:02 METAR KFYV 011253Z 01004KT 10SM OVC019 M01/M06 A3035 RMK AO2 SLP287 T10061056 (OO)
0217723445939932024010113537+36010-094168FM-15+0384KFYV V0303605N00315005795MN0160935N5-00065-00505102905ADDAA101000095GA1085+005795999GD14991+0057959GE19AGL   +99999+99999GF199999999999005791999999MA1102815098235REMMET10001/01/24 07:53:02 METAR KFYV 011353Z 36006KT 10SM OVC019 M01/M05 A3036 RMK AO2 SLP290 T10061050 (OO)
0236723445939932024010114537+36010-094168FM-15+0384KFYV V0300105N00215005795MN0160935N5+00005-00505102955ADDAA101000095GA1085+005795999GD14991+0057959GE19AGL   +99999+99999GF199999999999005791999999MA1102885098295MD1190159+9999REMMET10501/01/24 08:53:02 METAR KFYV 011453Z 01004KT 10SM OVC019 00/M05 A3038 RMK AO2 SLP295 T00001050 51015 (OO)
0216723445939932024010115537+36010-094168FM-15+0384KFYV V0300105N00215005495MN0160935N5+00115-00445103045ADDAA101000095GA1085+005495999GD14991+0054959GE19AGL   +99999+99999GF199999999999005491999999MA1102955098365REMMET09901/01/24 09:53:02 METAR KFYV 011553Z 01004KT 10SM OVC018 01/M04 A3040 RMK AO2 SLP304 T00111044 (OO)
0216723445939932024010116537+36010-094168FM-15+0384KFYV V0309999C00005005795MN0160935N5+00115-00445103085ADDAA101000095GA1085+005795999GD14991+0057959GE19AGL   +99999+99999GF199999999999005791999999MA1103015098425REMMET09901/01/24 10:53:02 METAR KFYV 011653Z 00000KT 10SM OVC019 01/M04 A3042 RMK AO2 SLP308 T00111044 (OO)
0274723445939932024010117537+36010-094168FM-15+0384KFYV V0309999C00005007015MN0160935N5+00225-00395103035ADDAA101000095GA1075+007015999GD13991+0070159GE19AGL   +99999+99999GF199999999999007011999999KA1060M+00331KA2060N-00061MA1102955098365MD1090079+9999REMMET11701/01/24 11:53:02 METAR KFYV 011753Z 00000KT 10SM BKN023 02/M04 A3040 RMK AO2 SLP303 T00221039 10033 21006 50007 (OO)
0142723445939932024010118516+36010-094168FM-16+0384KFYV V0309999C000052200059N0160935N5+00405-00405999999ADDGA1005+999999999GD10991+9999999MA1102815098235REMMET08401/01/24 12:51:02 SPECI KFYV 011851Z 00000KT 10SM CLR 04/M04 A3036 RMK AO2 FIBI (OO)
0191723445939932024010118537+36010-094168FM-15+0384KFYV V0309999C000052200059N0160935N5+00445-00395102895ADDAA101000095GA1005+999999999GD10991+9999999GF100991999999999999999999MA1102815098235REMMET09601/01/24 12:53:02 METAR KFYV 011853Z 00000KT 10SM CLR 04/M04 A3036 RMK AO2 SLP289 T00441039 (OO)
0191723445939932024010119537+36010-094168FM-15+0384KFYV V0302505N002152200059N0160935N5+00505-00335102795ADDAA101000095GA1005+999999999GD10991+9999999GF100991999999999999999999MA1102715098135REMMET09601/01/24 13:53:02 METAR KFYV 011953Z 25004KT 10SM CLR 05/M03 A3033 RMK AO2 SLP279 T00501033 (XX)
0211723445939932024010120537+36010-094168FM-15+0384KFYV V0309999C000052200059N0160935N5+00565-00335102835ADDAA101000095GA1005+999999999GD10991+9999999GF100991999999999999999999MA1102785098195MD1590189+9999REMMET10201/01/24 14:53:02 METAR KFYV 012053Z 00000KT 10SM CLR 06/M03 A3035 RMK AO2 SLP283 T00561033 55018 (XX)
0191723445939932024010121537+36010-094168FM-15+0384KFYV V0309999C000052200059N0160935N5+00675-00335102775ADDAA101000095GA1005+999999999GD10991+9999999GF100991999999999999999999MA1102715098135REMMET09601/01/24 15:53:02 METAR KFYV 012153Z 00000KT 10SM CLR 07/M03 A3033 RMK AO2 SLP277 T00671033 (XX)
0191723445939932024010122537+36010-094168FM-15+0384KFYV V0309999V001552200059N0160935N5+00505-00395102785ADDAA101000095GA1005+999999999GD10991+9999999GF100991999999999999999999MA1102715098135REMMET09601/01/24 16:53:02 METAR KFYV 012253Z VRB03KT 10SM CLR 05/M04 A3033 RMK AO2 SLP278 T00501039 (XX)
0284723445939932024010123537+36010-094168FM-15+0384KFYV V0303205N001552200059N0160935N5+00005-00445102865ADDAA101000095GA1005+999999999GD10991+9999999GF100991999999999999999999KA1060M+00671KA2060N-00061MA1102785098195MD1390009+9999REMMET11401/01/24 17:53:02 METAR KFYV 012353Z 32003KT 10SM CLR 00/M04 A3035 RMK AO2 SLP286 T00001044 10067 21006 53000 (XX)EQDQ010     3APC3  Q023     3APCTEN
0030723445939932024010200004+36010-094169SHEF +038199999V020999999999999999999999999999+99999+99999999999ADDAJ100009100000099AL19900091
0187723445939932024010200537+36010-094168FM-15+0384KFYV V0309999C000052200059N0160935N5-00065-00445102865ADDAA101000095GA1005+999999999GD10991+9999999GF100991999999999999999999MA1102785098195REMMET09201/01/24 18:53:01 METAR KFYV 020053Z 00000KT 10SM CLR M01/M04 A3035 RMK AO2 SLP286 T10061044
0187723445939932024010201537+36010-094168FM-15+0384KFYV V0309999C000052200059N0160935N5-00225-00565102855ADDAA101000095GA1005+999999999GD10991+9999999GF100991999999999999999999MA1102745098165REMMET09201/01/24 19:53:01 METAR KFYV 020153Z 00000KT 10SM CLR M02/M06 A3034 RMK AO2 SLP285 T10221056
0207723445939932024010202537+36010-094168FM-15+0384KFYV V0309999C000052200059N0160935N5-00335-00615102845ADDAA101000095GA1005+999999999GD10991+9999999GF100991999999999999999999MA1102745098165MD1890049+9999REMMET09801/01/24 20:53:01 METAR KFYV 020253Z 00000KT 10SM CLR M03/M06 A3034 RMK AO2 SLP284 T10331061 58004
0187723445939932024010203537+36010-094168FM-15+0384KFYV V0309999C000052200059N0160935N5-00445-00675102825ADDAA101000095GA1005+999999999GD10991+9999999GF100991999999999999999999MA1102715098135REMMET09201/01/24 21:53:01 METAR KFYV 020353Z 00000KT 10SM CLR M04/M07 A3033 RMK AO2 SLP282 T10441067
0202723445939932024010204537+36010-094168FM-15+0384KFYV V0309999C000052200059N0160935N5-00445-00615102845ADDAA101000095GA1005+999999999GD10991+9999999GF100991999999999999999999MA1102745098165WA1900099REMMET09801/01/24 22:53:02 METAR KFYV 020453Z 00000KT 10SM CLR M04/M06 A3034 RMK AO2 SLP284 I1000 T10441061
0302723445939932024010205537+36010-094168FM-15+0384KFYV V0309999C000052200059N0160935N5-00565-00785102825ADDAA101000095GA1005+999999999GD10991+9999999GF100991999999999999999999KA1060M+00061KA2060N-00561KA3240M+00671KA4240N-00561MA1102715098135MD1890039+9999WA1900099REMMET13201/01/24 23:53:02 METAR KFYV 020553Z 00000KT 10SM CLR M06/M08 A3033 RMK AO2 SLP282 I1000 I6000 T10561078 10006 21056 400671056 58003
0968723445939932024010205596+36010-094168SOD  +0384KFYV V030999999999999999999999999999+99999+99999999999ADDAA124000095AJ100009599999999AN1024000095KA1240M+00675KA2240N-00555KG1024W-0017D4KG2024D-0050D4MF1098214102844MG1098194102614OE11240062632099995OE22240035834099995OE33240011299999995RH1024X088D4RH2024N049D4RH3024M069D4REMSOD73924 HR PRECIPITATION (IN): 0.00 SNOW DEPTH (IN):0     24 HR SNOWFALL (IN):0.0  24 HR MAX TEMP (F): 4424 HR MIN TEMP (F): 22AVERAGE STATION PRESSURE:28.995 MINIMUM SEA LEVEL PRESSURE:30.30 TIME OF OCCURRENCE:0111 PEAK WIND SPEED (MPH): 14 PEAK WIND DIR (DEG):320 PEAK WIND TIME (LST):      FASTEST 2MIN SPEED (MPH):  8FASTEST 2MIN DIR (DEG):340 FASTEST 2MIN TIME (LST):     AVERAGE WIND SPEED (MPH): 2.5 24 HR AVG TEMP (F): 33DEPART FROM NORMAL: -3  HEATING DEGREE DAYS: 32 COOLING DEGREE DAYS:  0 LATEST DAY MAX TEMP (0700-1900 LST):44  LATEST NIGHT MIN TEMP(1900-0800 LST):31 HOURLY INCREMENTAL PRECIPITATION VALUES (IN):.00 0.00 0.00 0.00 0.00 0.00 0.00 0.00 0.00 0.00 0.00 0.00 0.00 0.00 0.00 0.00 0.00 0.00 0.00 0.00 0.00 0.00 0.00 0.00
0201723445939932024010206537+36010-094168FM-15+0384KFYV V0309999C000052200059N0128755N5-00565-00725102755ADDAA101000095GA1005+999999999GD10991+9999999GF100991999999999999999999MA1102645098065WA1900099REMMET09701/02/24 00:53:02 METAR KFYV 020653Z 00000KT 8SM CLR M06/M07 A3031 RMK AO2 SLP275 I1000 T10561072
0201723445939932024010207537+36010-094168FM-15+0384KFYV V0309999C000052200059N0128755N5-00615-00785102735ADDAA101000095GA1005+999999999GD10991+9999999GF100991999999999999999999MA1102645098065WA1900099REMMET09701/02/24 01:53:02 METAR KFYV 020753Z 00000KT 8SM CLR M06/M08 A3031 RMK AO2 SLP273 I1000 T10611078
0227723445939932024010208537+36010-094168FM-15+0384KFYV V0309999C000052200059N0144845N5-00615-00785102685ADDAA101000095GA1005+999999999GD10991+9999999GF100991999999999999999999MA1102575098005MD1890119+9999WA1900099REMMET10901/02/24 02:53:02 METAR KFYV 020853Z 00000KT 9SM CLR M06/M08 A3029 RMK AO2 SLP268 I1000 I3000 T10611078 58011
0201723445939932024010209537+36010-094168FM-15+0384KFYV V0309999C000052200059N0144845N5-00615-00785102665ADDAA101000095GA1005+999999999GD10991+9999999GF100991999999999999999999MA1102575098005WA1900099REMMET09701/02/24 03:53:02 METAR KFYV 020953Z 00000KT 9SM CLR M06/M08 A3029 RMK AO2 SLP266 I1000 T10611078
0201723445939932024010210537+36010-094168FM-15+0384KFYV V0309999C000052200059N0144845N5-00615-00835102665ADDAA101000095GA1005+999999999GD10991+9999999GF100991999999999999999999MA1102575098005WA1900099REMMET09701/02/24 04:53:02 METAR KFYV 021053Z 00000KT 9SM CLR M06/M08 A3029 RMK AO2 SLP266 I1000 T10611083
0265723445939932024010211537+36010-094168FM-15+0384KFYV V0309999C000052200059N0160935N5-00615-00835102745ADDAA101000095GA1005+999999999GD10991+9999999GF100991999999999999999999KA1060M-00501KA2060N-00671MA1102615098035MD1390039+9999WA1900099REMMET12101/02/24 05:53:02 METAR KFYV 021153Z 00000KT 10SM CLR M06/M08 A3030 RMK AO2 SLP274 I6000 T10611083 11050 21067 53003 (OO)
0192723445939932024010212537+36010-094168FM-15+0384KFYV V0309999C000052200059N0160935N5-00615-00835102785ADDAA101000095GA1005+999999999GD10991+9999999GF100991999999999999999999MA1102645098065REMMET09701/02/24 06:53:02 METAR KFYV 021253Z 00000KT 10SM CLR M06/M08 A3031 RMK AO2 SLP278 T10611083 (OO)
0191723445939932024010213537+36010-094168FM-15+0384KFYV V0300905N001552200059N0144845N5-00565-00785102805ADDAA101000095GA1005+999999999GD10991+9999999GF100991999999999999999999MA1102685098095REMMET09601/02/24 07:53:02 METAR KFYV 021353Z 09003KT 9SM CLR M06/M08 A3032 RMK AO2 SLP280 T10561078 (OO)
0213723445939932024010214537+36010-094168FM-15+0384KFYV V0309999C000052200059N0144845N5-00335-00565102815ADDAA101000095GA1005+999999999GD10991+9999999GF100991999999999999999999MA1102685098095MD1190059+9999REMMET10401/02/24 08:53:02 METAR KFYV 021453Z 00000KT 9SM CLR M03/M06 A3032 RMK AO2 SLP281 T10331056 51005 $ (OO)
0193723445939932024010215537+36010-094168FM-15+0384KFYV V0301905N003152200059N0160935N5+00225-00175102765ADDAA101000095GA1005+999999999GD10991+9999999GF100991999999999999999999MA1102645098065REMMET09801/02/24 09:53:02 METAR KFYV 021553Z 19006KT 10SM CLR 02/M02 A3031 RMK AO2 SLP276 T00221017 $ (OO)
0193723445939932024010216537+36010-094168FM-15+0384KFYV V0301705N003652200059N0160935N5+00395-00175102735ADDAA101000095GA1005+999999999GD10991+9999999GF100991999999999999999999MA1102645098065REMMET09801/02/24 10:53:02 METAR KFYV 021653Z 17007KT 10SM CLR 04/M02 A3031 RMK AO2 SLP273 T00391017 $ (MB)
0262723445939932024010217537+36010-094168FM-15+0384KFYV V0302205N004652200059N0160935N5+00675-00225102645ADDAA101000095GA1005+999999999GD10991+9999999GF100991999999999999999999KA1060M+00671KA2060N-00611MA1102545097965MD1890129+9999OC100825REMMET11901/02/24 11:53:02 METAR KFYV 021753Z 22009G16KT 10SM CLR 07/M02 A3028 RMK AO2 SLP264 T00671022 10067 21061 58012 $ (MB)
0193723445939932024010218537+36010-094168FM-15+0384KFYV V0302005N005152200059N0160935N5+00725-00225102555ADDAA101000095GA1005+999999999GD10991+9999999GF100991999999999999999999MA1102475097905REMMET09801/02/24 12:53:02 METAR KFYV 021853Z 20010KT 10SM CLR 07/M02 A3026 RMK AO2 SLP255 T00721022 $ (MB)
0191723445939932024010219537+36010-094168FM-15+0384KFYV V0309999C000052200059N0160935N5+00675-00225102415ADDAA101000095GA1005+999999999GD10991+9999999GF100991999999999999999999MA1102345097775REMMET09601/02/24 13:53:02 METAR KFYV 021953Z 00000KT 10SM CLR 07/M02 A3022 RMK AO2 SLP241 T00671022 (MB)
0211723445939932024010220537+36010-094168FM-15+0384KFYV V0302705N001552200059N0160935N5+00725-00225102335ADDAA101000095GA1005+999999999GD10991+9999999GF100991999999999999999999MA1102245097675MD1690299+9999REMMET10201/02/24 14:53:02 METAR KFYV 022053Z 27003KT 10SM CLR 07/M02 A3019 RMK AO2 SLP233 T00721022 56029 (XX)
0191723445939932024010221537+36010-094168FM-15+0384KFYV V0302705N001552200059N0160935N5+00725-00225102255ADDAA101000095GA1005+999999999GD10991+9999999GF100991999999999999999999MA1102175097615REMMET09601/02/24 15:53:02 METAR KFYV 022153Z 27003KT 10SM CLR 07/M02 A3017 RMK AO2 SLP225 T00721022 (XX)
0191723445939932024010222537+36010-094168FM-15+0384KFYV V0309999C000052200059N0160935N5+00615-00225102275ADDAA101000095GA1005+999999999GD10991+9999999GF100991999999999999999999MA1102175097615REMMET09601/02/24 16:53:02 METAR KFYV 022253Z 00000KT 10SM CLR 06/M02 A3017 RMK AO2 SLP227 T00611022 (XX)
0249723445939932024010223537+36010-094168FM-15+0384KFYV V0309999C000052200059N0160935N5+00395-00285102265ADDAA101000095GA1005+999999999GD10991+9999999GF100991999999999999999999KA1060M+00781KA2060N+00391MA1102175097615MD1690089+9999REMMET11401/02/24 17:53:02 METAR KFYV 022353Z 00000KT 10SM CLR 04/M03 A3017 RMK AO2 SLP226 T00391028 10078 20039 56008 (XX)
0030723445939932024010300004+36010-094169SHEF +038199999V020999999999999999999999999999+99999+99999999999ADDAJ100009100000099AL19900091
0186723445939932024010300537+36010-094168FM-15+0384KFYV V0309999C000052200059N0160935N5+00115-00285102245ADDAA101000095GA1005+999999999GD10991+9999999GF100991999999999999999999MA1102135097575REMMET09101/02/24 18:53:01 METAR KFYV 030053Z 00000KT 10SM CLR 01/M03 A3016 RMK AO2 SLP224 T00111028
0186723445939932024010301537+36010-094168FM-15+0384KFYV V0309999C000052200059N0160935N5+00065-00335102265ADDAA101000095GA1005+999999999GD10991+9999999GF100991999999999999999999MA1102135097575REMMET09101/02/24 19:53:01 METAR KFYV 030153Z 00000KT 10SM CLR 01/M03 A3016 RMK AO2 SLP226 T00061033
0242723445939932024010302537+36010-094168FM-15+0384KFYV V0309999C000052200059N0160935N5-00115-00395102275ADDAA101000095GA1005+999999999GD10991+9999999GF100991999999999999999999MA1102175097615MD1390009+9999REMMET09801/02/24 20:53:01 METAR KFYV 030253Z 00000KT 10SM CLR M01/M04 A3017 RMK AO2 SLP227 T10111039 53000EQDQ010     3APC3  Q023     3APCTEN
0187723445939932024010303537+36010-094168FM-15+0384KFYV V0302005N002652200059N0160935N5-00065-00335102305ADDAA101000095GA1005+999999999GD10991+9999999GF100991999999999999999999MA1102245097675REMMET09201/02/24 21:53:01 METAR KFYV 030353Z 20005KT 10SM CLR M01/M03 A3019 RMK AO2 SLP230 T10061033
0187723445939932024010304537+36010-094168FM-15+0384KFYV V0301705N001552200059N0160935N5-00065-00335102315ADDAA101000095GA1005+999999999GD10991+9999999GF100991999999999999999999MA1102245097675REMMET09201/02/24 22:53:02 METAR KFYV 030453Z 17003KT 10SM CLR M01/M03 A3019 RMK AO2 SLP231 T10061033
0281723445939932024010305537+36010-094168FM-15+0384KFYV V0301905N001552200059N0160935N5-00175-00395102265ADDAA101000095GA1005+999999999GD10991+9999999GF100991999999999999999999KA1060M+00391KA2060N-00171KA3240M+00781KA4240N-00671MA1102205097645MD1090049+9999REMMET12001/02/24 23:53:02 METAR KFYV 030553Z 19003KT 10SM CLR M02/M04 A3018 RMK AO2 SLP226 T10171039 10039 21017 400781067 50004
0968723445939932024010305596+36010-094168SOD  +0384KFYV V030999999999999999999999999999+99999+99999999999ADDAA124000095AJ100009599999999AN1024000095KA1240M+00785KA2240N-00665KG1024W-0017D4KG2024D-0044D4MF1097804102514MG1097804102244OE11240084924099995OE22240058121099995OE33240011299999995RH1024X088D4RH2024N052D4RH3024M074D4REMSOD73924 HR PRECIPITATION (IN): 0.00 SNOW DEPTH (IN):0     24 HR SNOWFALL (IN):0.0  24 HR MAX TEMP (F): 4624 HR MIN TEMP (F): 20AVERAGE STATION PRESSURE:28.880 MINIMUM SEA LEVEL PRESSURE:30.19 TIME OF OCCURRENCE:2121 PEAK WIND SPEED (MPH): 19 PEAK WIND DIR (DEG):240 PEAK WIND TIME (LST):      FASTEST 2MIN SPEED (MPH): 13FASTEST 2MIN DIR (DEG):210 FASTEST 2MIN TIME (LST):     AVERAGE WIND SPEED (MPH): 2.5 24 HR AVG TEMP (F): 33DEPART FROM NORMAL: -3  HEATING DEGREE DAYS: 32 COOLING DEGREE DAYS:  0 LATEST DAY MAX TEMP (0700-1900 LST):46  LATEST NIGHT MIN TEMP(1900-0800 LST):20 HOURLY INCREMENTAL PRECIPITATION VALUES (IN):.00 0.00 0.00 0.00 0.00 0.00 0.00 0.00 0.00 0.00 0.00 0.00 0.00 0.00 0.00 0.00 0.00 0.00 0.00 0.00 0.00 0.00 0.00 0.00
0187723445939932024010306537+36010-094168FM-15+0384KFYV V0309999C000052200059N0160935N5-00175-00395102185ADDAA101000095GA1005+999999999GD10991+9999999GF100991999999999999999999MA1102135097575REMMET09201/03/24 00:53:02 METAR KFYV 030653Z 00000KT 10SM CLR M02/M04 A3016 RMK AO2 SLP218 T10171039
0187723445939932024010307537+36010-094168FM-15+0384KFYV V0309999C000052200059N0160935N5-00285-00445102195ADDAA101000095GA1005+999999999GD10991+9999999GF100991999999999999999999MA1102135097575REMMET09201/03/24 01:53:02 METAR KFYV 030753Z 00000KT 10SM CLR M03/M04 A3016 RMK AO2 SLP219 T10281044
0207723445939932024010308537+36010-094168FM-15+0384KFYV V0309999C000052200059N0160935N5-00225-00445102175ADDAA101000095GA1005+999999999GD10991+9999999GF100991999999999999999999MA1102105097545MD1690099+9999REMMET09801/03/24 02:53:02 METAR KFYV 030853Z 00000KT 10SM CLR M02/M04 A3015 RMK AO2 SLP217 T10221044 56009
0186723445939932024010309537+36010-094168FM-15+0384KFYV V0309999C000052200059N0128755N5-00335-00565102145ADDAA101000095GA1005+999999999GD10991+9999999GF100991999999999999999999MA1102075097515REMMET09101/03/24 03:53:02 METAR KFYV 030953Z 00000KT 8SM CLR M03/M06 A3014 RMK AO2 SLP214 T10331056
0201723445939932024010310537+36010-094168FM-15+0384KFYV V0309999C000052200059N0144845N5-00335-00565102145ADDAA101000095GA1005+999999999GD10991+9999999GF100991999999999999999999MA1102075097515WA1900099REMMET09701/03/24 04:53:02 METAR KFYV 031053Z 00000KT 9SM CLR M03/M06 A3014 RMK AO2 SLP214 I1000 T10331056
0270723445939932024010311537+36010-094168FM-15+0384KFYV V0309999C000052200059N0144845N5-00395-00565102175ADDAA101000095GA1005+999999999GD10991+9999999GF100991999999999999999999KA1060M-00111KA2060N-00391MA1102075097515MD1590029+9999WA1900099REMMET12601/03/24 05:53:02 METAR KFYV 031153Z 00000KT 9SM CLR M04/M06 A3014 RMK AO2 SLP217 I1000 I6000 T10391056 11011 21039 55002 (MB)
0206723445939932024010312537+36010-094168FM-15+0384KFYV V0309999C000052200059N0128755N5-00335-00565102195ADDAA101000095GA1005+999999999GD10991+9999999GF100991999999999999999999MA1102105097545WA1900099REMMET10201/03/24 06:53:02 METAR KFYV 031253Z 00000KT 8SM CLR M03/M06 A3015 RMK AO2 SLP219 I1000 T10331056 (MB)
0206723445939932024010313537+36010-094168FM-15+0384KFYV V0309999C000052200059N0112655N5-00445-00615102235ADDAA101000095GA1005+999999999GD10991+9999999GF100991999999999999999999MA1102135097575WA1900099REMMET10201/03/24 07:53:02 METAR KFYV 031353Z 00000KT 7SM CLR M04/M06 A3016 RMK AO2 SLP223 I1000 T10441061 (MB)
0226723445939932024010314537+36010-094168FM-15+0384KFYV V0309999C000052200059N0144845N5-00175-00335102255ADDAA101000095GA1005+999999999GD10991+9999999GF100991999999999999999999MA1102135097575MD1390069+9999WA1900099REMMET10801/03/24 08:53:02 METAR KFYV 031453Z 00000KT 9SM CLR M02/M03 A3016 RMK AO2 SLP225 I3000 T10171033 53006 (MB)
0191723445939932024010315537+36010-094168FM-15+0384KFYV V0309999C000052200059N0160935N5+00225-00115102235ADDAA101000095GA1005+999999999GD10991+9999999GF100991999999999999999999MA1102175097615REMMET09601/03/24 09:53:02 METAR KFYV 031553Z 00000KT 10SM CLR 02/M01 A3017 RMK AO2 SLP223 T00221011 (XX)
0191723445939932024010316537+36010-094168FM-15+0384KFYV V0303505N002152200059N0160935N5+00675-00065102195ADDAA101000095GA1005+999999999GD10991+9999999GF100991999999999999999999MA1102135097575REMMET09601/03/24 10:53:02 METAR KFYV 031653Z 35004KT 10SM CLR 07/M01 A3016 RMK AO2 SLP219 T00671006 (XX)
0263723445939932024010317537+36010-094168FM-15+0384KFYV V0303505N003152200059N0160935N5+00835+00005102125ADDAA101000095GA1005+999999999GD10991+9999999GF100991999999999999999999KA1060M+00831KA2060N-00441MA1102075097515MD1890089+9999WA1900099REMMET11901/03/24 11:53:02 METAR KFYV 031753Z 35006KT 10SM CLR 08/00 A3014 RMK AO2 SLP212 I6000 T00830000 10083 21044 58008 (XX)
0190723445939932024010318537+36010-094168FM-15+0384KFYV V0303205N003652200059N0160935N5+00945+00065102015ADDAA101000095GA1005+999999999GD10991+9999999GF100991999999999999999999MA1101965097415REMMET09501/03/24 12:53:02 METAR KFYV 031853Z 32007KT 10SM CLR 09/01 A3011 RMK AO2 SLP201 T00940006 (XX)
0190723445939932024010319537+36010-094168FM-15+0384KFYV V0302505N002652200059N0160935N5+01005+00005101945ADDAA101000095GA1005+999999999GD10991+9999999GF100991999999999999999999MA1101905097345REMMET09501/03/24 13:53:02 METAR KFYV 031953Z 25005KT 10SM CLR 10/00 A3009 RMK AO2 SLP194 T01000000 (XX)
0210723445939932024010320537+36010-094168FM-15+0384KFYV V0302805N003152200059N0160935N5+01065+00005101925ADDAA101000095GA1005+999999999GD10991+9999999GF100991999999999999999999MA1101905097345MD1690189+9999REMMET10101/03/24 14:53:02 METAR KFYV 032053Z 28006KT 10SM CLR 11/00 A3009 RMK AO2 SLP192 T01060000 56018 (TD)
0190723445939932024010321537+36010-094168FM-15+0384KFYV V0303005N002152200059N0160935N5+01005+00005101975ADDAA101000095GA1005+999999999GD10991+9999999GF100991999999999999999999MA1101935097385REMMET09501/03/24 15:53:02 METAR KFYV 032153Z 30004KT 10SM CLR 10/00 A3010 RMK AO2 SLP197 T01000000 (TD)
0190723445939932024010322537+36010-094168FM-15+0384KFYV V0303405N002652200059N0160935N5+00835+00005102025ADDAA101000095GA1005+999999999GD10991+9999999GF100991999999999999999999MA1101965097415REMMET09501/03/24 16:53:02 METAR KFYV 032253Z 34005KT 10SM CLR 08/00 A3011 RMK AO2 SLP202 T00830000 (TD)
0248723445939932024010323537+36010-094168FM-15+0384KFYV V0309999C000052200059N0128755N5+00285-00175102125ADDAA101000095GA1005+999999999GD10991+9999999GF100991999999999999999999KA1060M+01061KA2060N+00221MA1102035097475MD1390159+9999REMMET11301/03/24 17:53:02 METAR KFYV 032353Z 00000KT 8SM CLR 03/M02 A3013 RMK AO2 SLP212 T00281017 10106 20022 53015 (TD)
0030723445939932024010400004+36010-094169SHEF +038199999V020999999999999999999999999999+99999+99999999999ADDAJ100009100000099AL19900091
0185723445939932024010400537+36010-094168FM-15+0384KFYV V0309999C000052200059N0128755N5+00115-00225102195ADDAA101000095GA1005+999999999GD10991+9999999GF100991999999999999999999MA1102105097545REMMET09001/03/24 18:53:01 METAR KFYV 040053Z 00000KT 8SM CLR 01/M02 A3015 RMK AO2 SLP219 T00111022
0185723445939932024010401537+36010-094168FM-15+0384KFYV V0309999C000052200059N0128755N5+00005-00285102265ADDAA101000095GA1005+999999999GD10991+9999999GF100991999999999999999999MA1102175097615REMMET09001/03/24 19:53:01 METAR KFYV 040153Z 00000KT 8SM CLR 00/M03 A3017 RMK AO2 SLP226 T00001028
0206723445939932024010402537+36010-094168FM-15+0384KFYV V0309999C000052200059N0112655N5-00115-00335102305ADDAA101000095GA1005+999999999GD10991+9999999GF100991999999999999999999MA1102205097645MD1190169+9999REMMET09701/03/24 20:53:01 METAR KFYV 040253Z 00000KT 7SM CLR M01/M03 A3018 RMK AO2 SLP230 T10111033 51016
0206723445939932024010403537+36010-094168FM-15+0384KFYV V0309999C000052200059N0096565N5-00115-00335102335ADDAA101000095AU100001015AW1105GA1005+999999999GD10991+9999999GF100991999999999999999999MA1102245097675REMMET09401/03/24 21:53:01 METAR KFYV 040353Z 00000KT 6SM BR CLR M01/M03 A3019 RMK AO2 SLP233 T10111033
0206723445939932024010404537+36010-094168FM-15+0384KFYV V0309999C000052200059N0080475N5-00225-00445102305ADDAA101000095AU100001015AW1105GA1005+999999999GD10991+9999999GF100991999999999999999999MA1102245097675REMMET09401/03/24 22:53:02 METAR KFYV 040453Z 00000KT 5SM BR CLR M02/M04 A3019 RMK AO2 SLP230 T10221044
0321723445939932024010405537+36010-094168FM-15+0384KFYV V0309999C000052200059N0080475N5-00285-00505102325ADDAA101000095AU100001015AW1105GA1005+999999999GD10991+9999999GF100991999999999999999999KA1060M+00281KA2060N-00391KA3240M+01061KA4240N-00441MA1102275097705MD1190069+9999WA1900099REMMET13401/03/24 23:53:02 METAR KFYV 040553Z 00000KT 5SM BR CLR M03/M05 A3020 RMK AO2 SLP232 I1000 I6000 T10281050 10028 21039 401061044 51006
1051723445939932024010405596+36010-094168SOD  +0384KFYV V030999999999999999999999999999+99999+99999999999ADDAA124000095AJ100009599999999AN1024000095AT1AU13BR  5AX1016246AX2086246KA1240M+01065KA2240N-00435KG1024W-0006D4KG2024D-0028D4MF1097534102204MG1097544101934OE11240058132099995OE22240040233099995OE33240008099999995RH1024X089D4RH2024N048D4RH3024M075D4REMSOD75724 HR PRECIPITATION (IN): 0.00 SNOW DEPTH (IN):0     24 HR SNOWFALL (IN):0.0  WEATHER(CODE):18  24 HR MAX TEMP (F): 5124 HR MIN TEMP (F): 24AVERAGE STATION PRESSURE:28.805 MINIMUM SEA LEVEL PRESSURE:30.10 TIME OF OCCURRENCE:1534 PEAK WIND SPEED (MPH): 13 PEAK WIND DIR (DEG):320 PEAK WIND TIME (LST):      FASTEST 2MIN SPEED (MPH):  9FASTEST 2MIN DIR (DEG):330 FASTEST 2MIN TIME (LST):     AVERAGE WIND SPEED (MPH): 1.8 24 HR AVG TEMP (F): 38DEPART FROM NORMAL:  2  HEATING DEGREE DAYS: 27 COOLING DEGREE DAYS:  0 LATEST DAY MAX TEMP (0700-1900 LST):51  LATEST NIGHT MIN TEMP(1900-0800 LST):24 HOURLY INCREMENTAL PRECIPITATION VALUES (IN):.00 0.00 0.00 0.00 0.00 0.00 0.00 0.00 0.00 0.00 0.00 0.00 0.00 0.00 0.00 0.00 0.00 0.00 0.00 0.00 0.00 0.00 0.00 0.00EQDR01    187AXW093R02    187AXW093
0020723445939932024010406004+36010-094169SHEF +038199999V020999999999999999999999999999+99999+99999999999ADDAJ100009100000099
0221723445939932024010406537+36010-094168FM-15+0384KFYV V0309999C000052200059N0080475N5-00395-00565102345ADDAA101000095AU100001015AW1105GA1005+999999999GD10991+9999999GF100991999999999999999999MA1102275097705WA1900099REMMET10001/04/24 00:53:02 METAR KFYV 040653Z 00000KT 5SM BR CLR M04/M06 A3020 RMK AO2 SLP234 I1000 T10391056
0221723445939932024010407537+36010-094168FM-15+0384KFYV V0301805N002152200059N0096565N5-00505-00675102375ADDAA101000095AU100001015AW1105GA1005+999999999GD10991+9999999GF100991999999999999999999MA1102305097745WA1900099REMMET10001/04/24 01:53:02 METAR KFYV 040753Z 18004KT 6SM BR CLR M05/M07 A3021 RMK AO2 SLP237 I1000 T10501067
0247723445939932024010408537+36010-094168FM-15+0384KFYV V0309999C000052200059N0080475N5-00445-00675102385ADDAA101000095AU100001015AW1105GA1005+999999999GD10991+9999999GF100991999999999999999999MA1102345097775MD1390079+9999WA1900099REMMET11201/04/24 02:53:02 METAR KFYV 040853Z 00000KT 5SM BR CLR M04/M07 A3022 RMK AO2 SLP238 I1000 I3000 T10441067 53007
0221723445939932024010409537+36010-094168FM-15+0384KFYV V0309999C000052200059N0080475N5-00615-00835102385ADDAA101000095AU100001015AW1105GA1005+999999999GD10991+9999999GF100991999999999999999999MA1102305097745WA1900099REMMET10001/04/24 03:53:02 METAR KFYV 040953Z 00000KT 5SM BR CLR M06/M08 A3021 RMK AO2 SLP238 I1000 T10611083
0221723445939932024010410537+36010-094168FM-15+0384KFYV V0302105N001552200059N0096565N5-00565-00785102405ADDAA101000095AU100001015AW1105GA1005+999999999GD10991+9999999GF100991999999999999999999MA1102345097775WA1900099REMMET10001/04/24 04:53:02 METAR KFYV 041053Z 21003KT 6SM BR CLR M06/M08 A3022 RMK AO2 SLP240 I1000 T10561078
0290723445939932024010411537+36010-094168FM-15+0384KFYV V0309999C000052200059N0096565N5-00615-00835102445ADDAA101000095AU100001015AW1105GA1005+999999999GD10991+9999999GF100991999999999999999999KA1060M-00281KA2060N-00671MA1102345097775MD1690019+9999WA1900099REMMET12901/04/24 05:53:02 METAR KFYV 041153Z 00000KT 6SM BR CLR M06/M08 A3022 RMK AO2 SLP244 I1000 I6000 T10611083 11028 21067 56001 (MB)
0226723445939932024010412537+36010-094168FM-15+0384KFYV V0309999C000052200059N0096565N5-00675-00835102515ADDAA101000095AU100001015AW1105GA1005+999999999GD10991+9999999GF100991999999999999999999MA1102405097835WA1900099REMMET10501/04/24 06:53:02 METAR KFYV 041253Z 00000KT 6SM BR CLR M07/M08 A3024 RMK AO2 SLP251 I1000 T10671083 (MB)
0226723445939932024010413537+36010-094168FM-15+0384KFYV V0309999C000052200059N0080475N5-00615-00835102535ADDAA101000095AU100001015AW1105GA1005+999999999GD10991+9999999GF100991999999999999999999MA1102405097835WA1900099REMMET10501/04/24 07:53:02 METAR KFYV 041353Z 00000KT 5SM BR CLR M06/M08 A3024 RMK AO2 SLP253 I1000 T10611083 (MB)
0246723445939932024010414537+36010-094168FM-15+0384KFYV V0309999C000052200059N0080475N5-00335-00505102585ADDAA101000095AU100001015AW1105GA1005+999999999GD10991+9999999GF100991999999999999999999MA1102475097905MD1290149+9999WA1900099REMMET11101/04/24 08:53:02 METAR KFYV 041453Z 00000KT 5SM BR CLR M03/M05 A3026 RMK AO2 SLP258 I3000 T10331050 52014 (MB)
0216723445939932024010415537+36010-094168FM-15+0384KFYV V0309999C000052200059N0096565N5+00175-00175102595ADDAA101000095AU100007015AW1051GA1005+999999999GD10991+9999999GF100991999999999999999999MA1102515097935MW1055REMMET09801/04/24 09:53:02 METAR KFYV 041553Z 00000KT 6SM HZ CLR 02/M02 A3027 RMK AO2 SLP259 T00171017 (XX)
0191723445939932024010416537+36010-094168FM-15+0384KFYV V0300705N003152200059N0160935N5+00565-00115102535ADDAA101000095GA1005+999999999GD10991+9999999GF100991999999999999999999MA1102475097905REMMET09601/04/24 10:53:02 METAR KFYV 041653Z 07006KT 10SM CLR 06/M01 A3026 RMK AO2 SLP253 T00561011 (XX)
0264723445939932024010417537+36010-094168FM-15+0384KFYV V0309999V001552200059N0160935N5+00895-00065102405ADDAA101000095GA1005+999999999GD10991+9999999GF100991999999999999999999KA1060M+00891KA2060N-00721MA1102345097775MD1890129+9999WA1900099REMMET12001/04/24 11:53:02 METAR KFYV 041753Z VRB03KT 10SM CLR 09/M01 A3022 RMK AO2 SLP240 I6000 T00891006 10089 21072 58012 (XX)
0191723445939932024010418537+36010-094168FM-15+0384KFYV V0300705N003152200059N0160935N5+01065-00285102265ADDAA101000095GA1005+999999999GD10991+9999999GF100991999999999999999999MA1102205097645REMMET09601/04/24 12:53:02 METAR KFYV 041853Z 07006KT 10SM CLR 11/M03 A3018 RMK AO2 SLP226 T01061028 (XX)
0216723445939932024010419537+36010-094168FM-15+0384KFYV V0301005N004152200059N0080475N5+01176-00565102185ADDAA101000095AU100007015AW1051GA1005+999999999GD10991+9999999GF100991999999999999999999MA1102135097575MW1055REMMET09801/04/24 13:53:02 METAR KFYV 041953Z 10008KT 5SM HZ CLR 12/M06 A3016 RMK AO2 SLP218 T01171056 (XX)
0261723445939932024010420537+36010-094168FM-15+0384KFYV V0301105N00315011585MN0064375N5+01175-00505102135ADDAA101000095AU100007015AW1051GA1075+011585999GD13991+0115859GE19AGL   +99999+99999GF199999999999011581999999MA1102075097515MD1690269+9999MW1055REMMET10701/04/24 14:53:02 METAR KFYV 042053Z 11006KT 4SM HZ BKN038 12/M05 A3014 RMK AO2 SLP213 T01171050 56026 (TD)
0235723445939932024010421537+36010-094168FM-15+0384KFYV V0301005N004152200059N0160935N5+01115-00445102145ADDAA101000095GA1025+010365999GD11991+0103659GE19AGL   +99999+99999GF102995999999010361999999MA1102105097545REMMET09901/04/24 15:53:02 METAR KFYV 042153Z 10008KT 10SM FEW034 11/M04 A3015 RMK AO2 SLP214 T01111044 (TD)EQDD01      0ADE726
0191723445939932024010422537+36010-094168FM-15+0384KFYV V0301205N005752200059N0160935N5+00895-00565102165ADDAA101000095GA1005+999999999GD10991+9999999GF100991999999999999999999MA1102105097545REMMET09601/04/24 16:53:02 METAR KFYV 042253Z 12011KT 10SM CLR 09/M06 A3015 RMK AO2 SLP216 T00891056 (TD)
0249723445939932024010423537+36010-094168FM-15+0384KFYV V0301705N002652200059N0160935N5+00615-00565102235ADDAA101000095GA1005+999999999GD10991+9999999GF100991999999999999999999KA1060M+01221KA2060N+00441MA1102135097575MD1390069+9999REMMET11401/04/24 17:53:02 METAR KFYV 042353Z 17005KT 10SM CLR 06/M06 A3016 RMK AO2 SLP223 T00611056 10122 20044 53006 (TD)
0030723445939932024010500004+36010-094169SHEF +038199999V020999999999999999999999999999+99999+99999999999ADDAJ100009100000099AL19900091
0186723445939932024010500537+36010-094168FM-15+0384KFYV V0309999C000052200059N0160935N5+00175-00445102225ADDAA101000095GA1005+999999999GD10991+9999999GF100991999999999999999999MA1102105097545REMMET09101/04/24 18:53:01 METAR KFYV 050053Z 00000KT 10SM CLR 02/M04 A3015 RMK AO2 SLP222 T00171044
0186723445939932024010501537+36010-094168FM-15+0384KFYV V0309999C000052200059N0160935N5+00445-00335102175ADDAA101000095GA1005+999999999GD10991+9999999GF100991999999999999999999MA1102075097515REMMET09101/04/24 19:53:01 METAR KFYV 050153Z 00000KT 10SM CLR 04/M03 A3014 RMK AO2 SLP217 T00441033
0206723445939932024010502537+36010-094168FM-15+0384KFYV V0309999C000052200059N0160935N5+00335-00335102165ADDAA101000095GA1005+999999999GD10991+9999999GF100991999999999999999999MA1102075097515MD1690069+9999REMMET09701/04/24 20:53:02 METAR KFYV 050253Z 00000KT 10SM CLR 03/M03 A3014 RMK AO2 SLP216 T00331033 56006
0186723445939932024010503537+36010-094168FM-15+0384KFYV V0300505N002152200059N0160935N5+00115-00335102205ADDAA101000095GA1005+999999999GD10991+9999999GF100991999999999999999999MA1102135097575REMMET09101/04/24 21:53:02 METAR KFYV 050353Z 05004KT 10SM CLR 01/M03 A3016 RMK AO2 SLP220 T00111033
0187723445939932024010504537+36010-094168FM-15+0384KFYV V0309999C000052200059N0160935N5-00115-00445102205ADDAA101000095GA1005+999999999GD10991+9999999GF100991999999999999999999MA1102135097575REMMET09201/04/24 22:53:02 METAR KFYV 050453Z 00000KT 10SM CLR M01/M04 A3016 RMK AO2 SLP220 T10111044
0279723445939932024010505537+36010-094168FM-15+0384KFYV V0309999C000052200059N0144845N5+00005-00335102095ADDAA101000095GA1005+999999999GD10991+9999999GF100991999999999999999999KA1060M+00611KA2060N-00221KA3240M+01221KA4240N-00721MA1102075097515MD1890029+9999REMMET11801/04/24 23:53:02 METAR KFYV 050553Z 00000KT 9SM CLR 00/M03 A3014 RMK AO2 SLP209 T00001033 10061 21022 401221072 58002
1028723445939932024010505596+36010-094168SOD  +0384KFYV V030999999999999999999999999999+99999+99999999999ADDAA124000095AJ100009599999999AN1024000095AT1AU13BR  5AT2AU08HZ  5AX1015245AX2085245KA1240M+01225KA2240N-00715KG1024W-0006D4KG2024D-0050D4MF1097664102304MG1097654102104OE11240084910099995OE22240058112099995OE33240013999999995RH1024X089D4RH2024N030D4RH3024M066D4REMSOD75724 HR PRECIPITATION (IN): 0.00 SNOW DEPTH (IN):0     24 HR SNOWFALL (IN):0.0  WEATHER(CODE):18  24 HR MAX TEMP (F): 5424 HR MIN TEMP (F): 19AVERAGE STATION PRESSURE:28.835 MINIMUM SEA LEVEL PRESSURE:30.15 TIME OF OCCURRENCE:2359 PEAK WIND SPEED (MPH): 19 PEAK WIND DIR (DEG):100 PEAK WIND TIME (LST):      FASTEST 2MIN SPEED (MPH): 13FASTEST 2MIN DIR (DEG):120 FASTEST 2MIN TIME (LST):     AVERAGE WIND SPEED (MPH): 3.1 24 HR AVG TEMP (F): 37DEPART FROM NORMAL:  1  HEATING DEGREE DAYS: 28 COOLING DEGREE DAYS:  0 LATEST DAY MAX TEMP (0700-1900 LST):54  LATEST NIGHT MIN TEMP(1900-0800 LST):19 HOURLY INCREMENTAL PRECIPITATION VALUES (IN):.00 0.00 0.00 0.00 0.00 0.00 0.00 0.00 0.00 0.00 0.00 0.00 0.00 0.00 0.00 0.00 0.00 0.00 0.00 0.00 0.00 0.00 0.00 0.00
0185723445939932024010506537+36010-094168FM-15+0384KFYV V0300505N002152200059N0144845N5+00005-00335102015ADDAA101000095GA1005+999999999GD10991+9999999GF100991999999999999999999MA1102005097445REMMET09001/05/24 00:53:02 METAR KFYV 050653Z 05004KT 9SM CLR 00/M03 A3012 RMK AO2 SLP201 T00001033
0186723445939932024010507537+36010-094168FM-15+0384KFYV V0300705N001552200059N0160935N5+00065-00335101855ADDAA101000095GA1005+999999999GD10991+9999999GF100991999999999999999999MA1101835097285REMMET09101/05/24 01:53:02 METAR KFYV 050753Z 07003KT 10SM CLR 01/M03 A3007 RMK AO2 SLP185 T00061033
0231723445939932024010508537+36010-094168FM-15+0384KFYV V0301005N00365033535MN0160935N5+00175-00395101785ADDAA101000095GA1085+033535999GD14991+0335359GE19AGL   +99999+99999GF199999999999033531999999MA1101765097215MD1690289+9999REMMET10001/05/24 02:53:02 METAR KFYV 050853Z 10007KT 10SM OVC110 02/M04 A3005 RMK AO2 SLP178 T00171039 56028
0211723445939932024010509537+36010-094168FM-15+0384KFYV V0300805N00265028965MN0160935N5+00175-00335101705ADDAA101000095GA1085+028965999GD14991+0289659GE19AGL   +99999+99999GF199999999999028961999999MA1101695097155REMMET09401/05/24 03:53:02 METAR KFYV 050953Z 08005KT 10SM OVC095 02/M03 A3003 RMK AO2 SLP170 T00171033
0248723445939932024010510537+36010-094168FM-15+0384KFYV V0303005N00265025915MN0144845N5+00175-00285101945ADDAA101000095GA1025+021345999GA2085+025915999GD11991+0213459GD24991+0259159GE19AGL   +99999+99999GF199999999999021341999999MA1101905097345REMMET10001/05/24 04:53:02 METAR KFYV 051053Z 30005KT 9SM FEW070 OVC085 02/M03 A3009 RMK AO2 SLP194 T00171028
0273723445939932024010511447+36010-094168FM-16+0384KFYV V0302105N00265007015MN0144845N5+00225-00285999999ADDGA1075+007015999GA2075+010365999GA3085+027435999GD13991+0070159GD23991+0103659GD34991+0274359GE19AGL   +99999+99999GF199999999999007011999999MA1101935097385REMMET10501/05/24 05:44:02 SPECI KFYV 051144Z 21005KT 9SM BKN023 BKN034 OVC090 02/M03 A3010 RMK AO2 T00221028 (MB)
0386723445939932024010511537+36010-094168FM-15+0384KFYV V0302205N00415005795MN0032195N5+00175-00225101955ADDAA101000025AA206000021AU110030015AW1715GA1075+005795999GA2085+027435999GD13991+0057959GD24991+0274359GE19AGL   +99999+99999GF199999999999005791999999KA1060M+00221KA2060N-00061MA1101905097345MD1390149+9999MW1715REMMET14501/05/24 05:53:02 METAR KFYV 051153Z 22008KT 2SM -SN BKN019 OVC090 02/M02 A3009 RMK AO2 SNB50 SLP195 P0000 60000 T00171022 10022 21006 53014 (MB)EQDQ01  00008PRCP06
0279723445939932024010512007+36010-094168FM-16+0384KFYV V0302105N00315004575MN0016095N5+00115-00175999999ADDAA101000021AU110030015AW1715GA1075+004575999GA2085+006715999GD13991+0045759GD24991+0067159GE19AGL   +99999+99999GF199999999999004571999999MA1101935097385MW1715REMMET10801/05/24 06:00:02 SPECI KFYV 051200Z 21006KT 1SM -SN BKN015 OVC022 01/M02 A3010 RMK AO2 P0000 T00111017 (MB)
0013723445939932024010512004+36010-094169SHEF +038199999V020999999999999999999999999999+99999+99999999999ADDAL19900631
0281723445939932024010512027+36010-094168FM-16+0384KFYV V0302105N00265003965MN0012075N5+00115-00175999999ADDAA101000021AU110030015AW1715GA1075+003965999GA2085+006715999GD13991+0039659GD24991+0067159GE19AGL   +99999+99999GF199999999999003961999999MA1101935097385MW1715REMMET11001/05/24 06:02:02 SPECI KFYV 051202Z 21005KT 3/4SM -SN BKN013 OVC022 01/M02 A3010 RMK AO2 P0000 T00111017 (MB)
0261723445939932024010512167+36010-094168FM-16+0384KFYV V0301605N00215002745WN0008055N5+00065-00065999999ADDAA101000531AU120030015AU200002015AW1305AW2725GA1095+002745999GD15991+0027459GE19AGL   +99999+99999GF109991999999002741999999MA1101965097415MW1735REMMET10401/05/24 06:16:02 SPECI KFYV 051216Z 16004KT 1/2SM SN FG VV009 01/M01 A3011 RMK AO2 P0002 T00061006 (MB)
0262723445939932024010512417+36010-094168FM-16+0384KFYV V0301005N00155003055WN0012075N5+00065-00065999999ADDAA101001531AU110030015AU200001015AW1105AW2715GA1095+003055999GD15991+0030559GE19AGL   +99999+99999GF109991999999003051999999MA1101835097285MW1715REMMET10501/05/24 06:41:02 SPECI KFYV 051241Z 10003KT 3/4SM -SN BR VV010 01/M01 A3007 RMK AO2 P0006 T00061006 (MB)
0289723445939932024010512507+36010-094168FM-16+0384KFYV V0300705N00155003355MN0016095N5+00105-00105999999ADDAA101001731AU110030015AU200001015AW1105AW2715GA1045+002135999GA2085+003355999GD12991+0021359GD24991+0033559GE19AGL   +99999+99999GF199999999999002131999999MA1101835097285MW1715REMMET10101/05/24 06:50:02 SPECI KFYV 051250Z 07003KT 1SM -SN BR SCT007 OVC011 01/M01 A3007 RMK AO2 P0007 (MB)
0306723445939932024010512537+36010-094168FM-15+0384KFYV V0300905N00215003355MN0016095N5+00065-00065101875ADDAA101002095AU110030015AU200001015AW1105AW2715GA1045+002135999GA2085+003355999GD12991+0021359GD24991+0033559GE19AGL   +99999+99999GF199999999999002131999999MA1101795097255MW1715REMMET11801/05/24 06:53:02 METAR KFYV 051253Z 09004KT 1SM -SN BR SCT007 OVC011 01/M01 A3006 RMK AO2 SLP187 P0007 T00061006 (MB)
0299723445939932024010513037+36010-094168FM-16+0384KFYV V0300905N00215002135MN0016095N5+00115-00065999999ADDAA101000231AU110030015AU200001015AW1105AW2715GA1075+002135999GA2085+004275999GD13991+0021359GD24991+0042759GE19AGL   +99999+99999GF199999999999002131999999MA1101765097215MW1715REMMET11101/05/24 07:03:02 SPECI KFYV 051303Z 09004KT 1SM -SN BR BKN007 OVC014 01/M01 A3005 RMK AO2 P0001 T00111006 (MB)
0337723445939932024010513467+36010-094168FM-16+0384KFYV V0301105N00365003055MN0032195N5+00115-00115999999ADDAA101001531AU110030015AU200001015AW1105AW2715GA1025+001835999GA2075+003055999GA3085+007625999GD11991+0018359GD23991+0030559GD34991+0076259GE19AGL   +99999+99999GF199999999999001831999999MA1101695097155MW1715REMMET11801/05/24 07:46:02 SPECI KFYV 051346Z 11007KT 2SM -SN BR FEW006 BKN010 OVC025 01/M01 A3003 RMK AO2 P0006 T00111011 (MB)
0273723445939932024010513516+36010-094168FM-16+0384KFYV V0301005N00265003055MN0048285N5+00105-00105999999ADDAU110030015AU200001015AW1105AW2715GA1045+001835999GA2075+003055999GA3085+008235999GD12991+0018359GD23991+0030559GD34991+0082359MA1101665097125MW1715REMMET11301/05/24 07:51:02 SPECI KFYV 051351Z 10005KT 3SM -SN BR SCT006 BKN010 OVC027 01/M01 A3002 RMK AO2 P0006 FIBI (MB)
0344723445939932024010513537+36010-094168FM-15+0384KFYV V0301005N00265003055MN0048285N5+00115-00115101725ADDAA101001595AU110030015AU200001015AW1105AW2715GA1045+001835999GA2075+003055999GA3085+008235999GD12991+0018359GD23991+0030559GD34991+0082359GE19AGL   +99999+99999GF199999999999001831999999MA1101665097125MW1715REMMET12501/05/24 07:53:02 METAR KFYV 051353Z 10005KT 3SM -SN BR SCT006 BKN010 OVC027 01/M01 A3002 RMK AO2 SLP172 P0006 T00111011 (MB)
0355723445939932024010514077+36010-094168FM-16+0384KFYV V0300805N00365002445MN0032195N5+00115-00115999999ADDAA101000531AU110020015AU200001015AW1105AW2615GA1075+002445999GA2075+007925999GA3085+011285999GD13991+0024459GD23991+0079259GD34991+0112859GE19AGL   +99999+99999GF199999999999002441999999MA1101595097055MW1615REMMET13601/05/24 08:07:02 SPECI KFYV 051407Z 08007KT 2SM -RA BR BKN008 BKN026 OVC037 01/M01 A3000 RMK AO2 RAB06SNE06 PRESFR P0002 T00111011 (MB)
0257723445939932024010514124+36005-094170FM-15+038199999V0200901N005110079219N004828199+00111-00111999999ADDAA101000531AW1101AW2611GD12991+0024419GD23991+0079219GD34991+0137219GE19AGL   +99999+99999GF199999999999002441999999MA1101491999999REMMET114METAR KFYV 051412Z 09010KT 3SM -RA BR SCT008 BKN026 OVC045 01/M01 A2997 RMK AO2 RAB06SNE06 PRESFR P0002 T00111011=
0355723445939932024010514127+36010-094168FM-16+0384KFYV V0300905N00515007925MN0048285N5+00115-00115999999ADDAA101000531AU110020015AU200001015AW1105AW2615GA1045+002445999GA2075+007925999GA3085+013725999GD12991+0024459GD23991+0079259GD34991+0137259GE19AGL   +99999+99999GF199999999999002441999999MA1101495096955MW1615REMMET13601/05/24 08:12:02 SPECI KFYV 051412Z 09010KT 3SM -RA BR SCT008 BKN026 OVC045 01/M01 A2997 RMK AO2 RAB06SNE06 PRESFR P0002 T00111011 (MB)
0366723445939932024010514217+36010-094168FM-16+0384KFYV V0300805N00575014335MN0048285N5+00115-00115999999ADDAA101000731AU110020015AU200001015AW1105AW2615GA1045+002445999GA2075+014335999GA3085+021345999GD12991+0024459GD23991+0143359GD34991+0213459GE19AGL   +99999+99999GF199999999999002441999999MA1101425096895MW1615OC100985REMMET13901/05/24 08:21:02 SPECI KFYV 051421Z 08011G19KT 3SM -RA BR SCT008 BKN047 OVC070 01/M01 A2995 RMK AO2 RAB06SNE06 PRESFR P0003 T00111011 (MB)
0329723445939932024010514537+36010-094168FM-15+0384KFYV V0309999V00215003055MN0112655N5+00175-00065101495ADDAA101000595AA203004191GA1075+003055999GA2085+033535999GD13991+0030559GD24991+0335359GE19AGL   +99999+99999GF199999999999003051999999MA1101425096895MD1890379+9999REMMET13701/05/24 08:53:02 METAR KFYV 051453Z VRB04KT 7SM BKN010 OVC110 02/M01 A2995 RMK AO2 RAB06E34SNE06 SLP149 P0003 60016 T00171006 58037 (MB)EQDQ01  00408PRCP03
0143723445939932024010515516+36010-094168FM-16+0384KFYV V0301005N00215004885MN0144845N5+00305+00005999999ADDGA1085+004885999GD14991+0048859MA1101495096955REMMET08501/05/24 09:51:02 SPECI KFYV 051551Z 10004KT 9SM OVC016 03/00 A2997 RMK AO2 FIBI (MB)
0214723445939932024010515537+36010-094168FM-15+0384KFYV V0301005N00265004885MN0144845N5+00285+00005101575ADDAA101000095GA1085+004885999GD14991+0048859GE19AGL   +99999+99999GF199999999999004881999999MA1101525096995REMMET09701/05/24 09:53:02 METAR KFYV 051553Z 10005KT 9SM OVC016 03/00 A2998 RMK AO2 SLP157 T00280000 (MB)
0215723445939932024010516537+36010-094168FM-15+0384KFYV V0301205N00415004885MN0160935N5+00445+00115101525ADDAA101000095GA1075+004885999GD13991+0048859GE19AGL   +99999+99999GF199999999999004881999999MA1101465096925REMMET09801/05/24 10:53:02 METAR KFYV 051653Z 12008KT 10SM BKN016 04/01 A2996 RMK AO2 SLP152 T00440011 (MB)
0316723445939932024010517537+36010-094168FM-15+0384KFYV V0301105N004152200059N0160935N5+00565+00115101345ADDAA101000095AA206004191GA1045+005495999GD12991+0054959GE19AGL   +99999+99999GF104995999999005491999999KA1060M+00561KA2060N+00061MA1101295096765MD1890149+9999REMMET12901/05/24 11:53:02 METAR KFYV 051753Z 11008KT 10SM SCT018 06/01 A2991 RMK AO2 PRESFR SLP134 60016 T00560011 10056 20006 58014 (MB)EQDD01      0ADE726
0144723445939932024010518516+36010-094168FM-16+0384KFYV V0301005N00315005795MN0160935N5+00705+00205999999ADDGA1085+005795999GD14991+0057959MA1101155096635REMMET08601/05/24 12:51:02 SPECI KFYV 051851Z 10006KT 10SM OVC019 07/02 A2987 RMK AO2 FIBI (MB)
0215723445939932024010518537+36010-094168FM-15+0384KFYV V0301105N00265005795MN0160935N5+00675+00225101195ADDAA101000095GA1075+005795999GD13991+0057959GE19AGL   +99999+99999GF199999999999005791999999MA1101155096635REMMET09801/05/24 12:53:02 METAR KFYV 051853Z 11005KT 10SM BKN019 07/02 A2987 RMK AO2 SLP119 T00670022 (MB)
0215723445939932024010519537+36010-094168FM-15+0384KFYV V0301205N00515006105MN0160935N5+00675+00175101095ADDAA101000095GA1085+006105999GD14991+0061059GE19AGL   +99999+99999GF199999999999006101999999MA1101055096535REMMET09801/05/24 13:53:02 METAR KFYV 051953Z 12010KT 10SM OVC020 07/02 A2984 RMK AO2 SLP109 T00670017 (MB)
0235723445939932024010520537+36010-094168FM-15+0384KFYV V0301105N00265005495MN0160935N5+00675+00175101055ADDAA101000095GA1085+005495999GD14991+0054959GE19AGL   +99999+99999GF199999999999005491999999MA1101025096505MD1690269+9999REMMET10401/05/24 14:53:02 METAR KFYV 052053Z 11005KT 10SM OVC018 07/02 A2983 RMK AO2 SLP105 T00670017 56026 (OO)
0215723445939932024010521537+36010-094168FM-15+0384KFYV V0301305N00215005795MN0160935N5+00675+00175101035ADDAA101000095GA1085+005795999GD14991+0057959GE19AGL   +99999+99999GF199999999999005791999999MA1100985096465REMMET09801/05/24 15:53:02 METAR KFYV 052153Z 13004KT 10SM OVC019 07/02 A2982 RMK AO2 SLP103 T00670017 (OO)
0215723445939932024010522537+36010-094168FM-15+0384KFYV V0309999C00005005185MN0160935N5+00615+00225101065ADDAA101000095GA1085+005185999GD14991+0051859GE19AGL   +99999+99999GF199999999999005181999999MA1101025096505REMMET09801/05/24 16:53:02 METAR KFYV 052253Z 00000KT 10SM OVC017 06/02 A2983 RMK AO2 SLP106 T00610022 (OO)
0273723445939932024010523537+36010-094168FM-15+0384KFYV V0309999C00005004885MN0160935N5+00565+00175101075ADDAA101000095GA1085+004885999GD14991+0048859GE19AGL   +99999+99999GF199999999999004881999999KA1060M+00721KA2060N+00561MA1101025096505MD1390019+9999REMMET11601/05/24 17:53:02 METAR KFYV 052353Z 00000KT 10SM OVC016 06/02 A2983 RMK AO2 SLP107 T00560017 10072 20056 53001 (OO)
0030723445939932024010600004+36010-094169SHEF +038199999V020999999999999999999999999999+99999+99999999999ADDAJ100009100000099AL19900631
0143723445939932024010600516+36010-094168FM-16+0384KFYV V0309999C00005003965MN0144845N5+00605+00205999999ADDGA1085+003965999GD14991+0039659MA1101055096535REMMET08501/05/24 18:51:03 SPECI KFYV 060051Z 00000KT 9SM OVC013 06/02 A2984 RMK AO2 FIBI (OO)
0209723445939932024010600537+36010-094168FM-15+0384KFYV V0309999C00005003965MN0128755N5+00565+00175101095ADDAA101000095GA1085+003965999GD14991+0039659GE19AGL   +99999+99999GF199999999999003961999999MA1101055096535REMMET09201/05/24 18:53:01 METAR KFYV 060053Z 00000KT 8SM OVC013 06/02 A2984 RMK AO2 SLP109 T00560017
0170723445939932024010601516+36010-094168FM-16+0384KFYV V0309999C00005002445MN0128755N5+00405+00305999999ADDGA1085+002445999GD14991+0024459MA1101055096535REMMET11201/05/24 19:51:03 SPECI KFYV 060151Z 00000KT 8SM OVC008 04/03 A2984 RMK AO2 RAB26E50 CIG 005V010 P0000 FIBI (OO)
0256723445939932024010601537+36010-094168FM-15+0384KFYV V0309999C00005002445MN0048285N5+00445+00285101105ADDAA101000395AU100001015AW1105GA1085+002445999GD14991+0024451GE19AGL   +99999+99999GF199999999999002441999999MA1101055096535REMMET12201/05/24 19:53:01 METAR KFYV 060153Z 00000KT 3SM BR OVC008 04/03 A2984 RMK AO2 RAB26E50 CIG 005V009 SLP110 P0000 T00440028
0266723445939932024010602516+36010-094168FM-16+0384KFYV V0309999C00005003055MN0064375N5+00405+00305999999ADDAU100001015AW1105GA1045+001225999GA2075+003055999GA3085+004885999GD12991+0012259GD23991+0030559GD34991+0048859MA1101025096505REMMET12901/05/24 20:51:03 SPECI KFYV 060251Z 00000KT 4SM BR SCT004 BKN010 OVC016 04/03 A2983 RMK AO2 RAB01E16 CIG 007V013 P0001 FIBI (OO)
0338723445939932024010602537+36010-094168FM-15+0384KFYV V0309999C00005004885MN0064375N5+00445+00285101075ADDAA101000025AA203000391AU100001015AW1105GA1045+001225999GA2085+004885999GD12991+0012259GD24991+0048859GE19AGL   +99999+99999GF199999999999001221999999MA1101025096505MD1090009+9999REMMET12901/05/24 20:53:01 METAR KFYV 060253Z 00000KT 4SM BR SCT004 OVC016 04/03 A2983 RMK AO2 RAB01E16 SLP107 P0001 60001 T00440028 50000EQDQ01  00028PRCP03
0211723445939932024010603516+36010-094168FM-16+0384KFYV V0309999C00005004275MN0064375N5+00405+00305999999ADDAU100001015AW1105GA1045+001835999GA2085+004275999GD12991+0018359GD24991+0042759MA1101025096505REMMET10501/05/24 21:51:03 SPECI KFYV 060351Z 00000KT 4SM BR SCT006 OVC014 04/03 A2983 RMK AO2 RAB02E39 P0002 FIBI
0306723445939932024010603537+36010-094168FM-15+0384KFYV V0309999C00005004885MN0064375N5+00445+00285101045ADDAA101000895AU110020015AU200001015AW1105AW2615GA1045+001835999GA2085+004885999GD12991+0018359GD24991+0048859GE19AGL   +99999+99999GF199999999999001831999999MA1101025096505MW1615REMMET11801/05/24 21:53:02 METAR KFYV 060353Z 00000KT 4SM -RA BR SCT006 OVC016 04/03 A2983 RMK AO2 RAB02 SLP104 P0002 T00440028
0335723445939932024010603587+36010-094168FM-16+0384KFYV V0309999C00005004275MN0040235N5+00445+00285999999ADDAA101000021AU110020015AU200001015AW1105AW2615GA1025+001835999GA2075+004275999GA3085+006105999GD11991+0018359GD23991+0042759GD34991+0061059GE19AGL   +99999+99999GF199999999999001831999999MA1100985096465MW1615REMMET11601/05/24 21:58:02 SPECI KFYV 060358Z 00000KT 2 1/2SM -RA BR FEW006 BKN014 OVC020 04/03 A2982 RMK AO2 P0000 T00440028
0331723445939932024010604117+36010-094168FM-16+0384KFYV V0309999C00005003665MN0048285N5+00445+00285999999ADDAA101000231AU110020015AU200001015AW1105AW2615GA1045+002135999GA2075+003665999GA3085+006105999GD12991+0021359GD23991+0036659GD34991+0061059GE19AGL   +99999+99999GF199999999999002131999999MA1100985096465MW1615REMMET11201/05/24 22:11:02 SPECI KFYV 060411Z 00000KT 3SM -RA BR SCT007 BKN012 OVC020 04/03 A2982 RMK AO2 P0001 T00440028
0310723445939932024010604337+36010-094168FM-16+0384KFYV V0309999C00005006105MN0096565N5+00395+00285999999ADDAA101000231AU100001015AW1105GA1025+001225999GA2045+003055999GA3085+006105999GD11991+0012259GD22991+0030559GD34991+0061059GE19AGL   +99999+99999GF199999999999001221999999MA1100955096435REMMET11401/05/24 22:33:02 SPECI KFYV 060433Z 00000KT 6SM BR FEW004 SCT010 OVC020 04/03 A2981 RMK AO2 RAE27 P0001 T00390028
0221723445939932024010604537+36010-094168FM-15+0384KFYV V0309999C00005006105MN0128755N5+00395+00285100985ADDAA101000025GA1085+006105999GD14991+0061059GE19AGL   +99999+99999GF199999999999006101999999MA1100955096435REMMET10401/05/24 22:53:02 METAR KFYV 060453Z 00000KT 8SM OVC020 04/03 A2981 RMK AO2 RAE27 SLP098 P0001 T00390028
0378723445939932024010605537+36010-094168FM-15+0384KFYV V0302705N00155004885MN0080475N5+00395+00285100985ADDAA101000095AA206001091AU100001015AW1105GA1025+003055999GA2085+004885999GD11991+0030559GD24991+0048859GE19AGL   +99999+99999GF199999999999003051999999KA1060M+00561KA2060N+00391KA3240M+00721KA4240N-00061MA1100955096435MD1590079+9999REMMET13601/05/24 23:53:02 METAR KFYV 060553Z 27003KT 5SM BR FEW010 OVC016 04/03 A2981 RMK AO2 SLP098 60004 T00390028 10056 20039 400721006 55007
1087723445939932024010605596+36010-094168SOD  +0384KFYV V030999999999999999999999999999+99999+99999999999ADDAA124005195AJ100009599999999AN1024005895AT1AU16RA  5AT2AU18SN  5AT3AU01FG  5AT4AU13BR  5AX1016246AX2086246KA1240M+00725KA2240N-00055KG1024W+0022D4KG2024D+0000D4MF1096754101424MG1096754100984OE11240102809099995OE22240067108099995OE33240019799999995RH1024X093D4RH2024N067D4RH3024M079D4REMSOD75724 HR PRECIPITATION (IN): 0.20 SNOW DEPTH (IN):0     24 HR SNOWFALL (IN):2.3  WEATHER(CODE):18  24 HR MAX TEMP (F): 4524 HR MIN TEMP (F): 31AVERAGE STATION PRESSURE:28.570 MINIMUM SEA LEVEL PRESSURE:29.82 TIME OF OCCURRENCE:2359 PEAK WIND SPEED (MPH): 23 PEAK WIND DIR (DEG): 90 PEAK WIND TIME (LST):      FASTEST 2MIN SPEED (MPH): 15FASTEST 2MIN DIR (DEG): 80 FASTEST 2MIN TIME (LST):     AVERAGE WIND SPEED (MPH): 4.4 24 HR AVG TEMP (F): 38DEPART FROM NORMAL:  2  HEATING DEGREE DAYS: 27 COOLING DEGREE DAYS:  0 LATEST DAY MAX TEMP (0700-1900 LST):45  LATEST NIGHT MIN TEMP(1900-0800 LST):28 HOURLY INCREMENTAL PRECIPITATION VALUES (IN):.00 0.00 0.00 0.00 0.00 T    0.08 0.06 0.02 0.00 0.00 0.00 0.00 0.00 0.00 0.00 0.00 0.00 0.00 0.01 T    0.03 T    0.00EQDR01    187AXW093R02    187AXW093
0191723445939932024010606027+36010-094168FM-16+0384KFYV V0302705N00155004275MN0112655N5+00395+00285999999ADDGA1085+004275999GD14991+0042759GE19AGL   +99999+99999GF199999999999004271999999MA1100955096435REMMET08501/06/24 00:02:02 SPECI KFYV 060602Z 27003KT 7SM OVC014 04/03 A2981 RMK AO2 T00390028
0241723445939932024010606337+36010-094168FM-16+0384KFYV V0302505N00155004575MN0144845N5+00395+00225999999ADDAA101000231AU110020015AW1615GA1085+004575999GD14991+0045759GE19AGL   +99999+99999GF199999999999004571999999MA1100985096465MW1615REMMET10101/06/24 00:33:02 SPECI KFYV 060633Z 25003KT 9SM -RA OVC015 04/02 A2982 RMK AO2 RAB11 P0001 T00390022
0248723445939932024010606537+36010-094168FM-15+0384KFYV V0302605N00155004575MN0128755N5+00395+00225100975ADDAA101000395AU110020015AW1615GA1085+004575999GD14991+0045759GE19AGL   +99999+99999GF199999999999004571999999MA1100955096435MW1615REMMET10801/06/24 00:53:02 METAR KFYV 060653Z 26003KT 8SM -RA OVC015 04/02 A2981 RMK AO2 RAB11 SLP097 P0001 T00390022
0254723445939932024010607027+36010-094168FM-16+0384KFYV V0302505N00155004275MN0144845N5+00395+00225999999ADDAA101000021GA1075+004275999GA2085+006105999GD13991+0042759GD24991+0061059GE19AGL   +99999+99999GF199999999999004271999999MA1100955096435REMMET10601/06/24 01:02:02 SPECI KFYV 060702Z 25003KT 9SM BKN014 OVC020 04/02 A2981 RMK AO2 RAE0655 P0000 T00390022
0284723445939932024010607117+36010-094168FM-16+0384KFYV V0302205N00215006105MN0128755N5+00395+00225999999ADDAA101000021AU110020015AW1615GA1045+004275999GA2085+006105999GD12991+0042759GD24991+0061059GE19AGL   +99999+99999GF199999999999004271999999MA1100955096435MW1615REMMET11301/06/24 01:11:02 SPECI KFYV 060711Z 22004KT 8SM -RA SCT014 OVC020 04/02 A2981 RMK AO2 RAE0655B07 P0000 T00390022
0322723445939932024010607267+36010-094168FM-16+0384KFYV V0302105N00265004275MN0128755N5+00395+00225999999ADDAA101000021AU110020015AW1615GA1025+002745999GA2075+004275999GA3085+005795999GD11991+0027459GD23991+0042759GD34991+0057959GE19AGL   +99999+99999GF199999999999002741999999MA1100955096435MW1615REMMET12001/06/24 01:26:02 SPECI KFYV 060726Z 21005KT 8SM -RA FEW009 BKN014 OVC019 04/02 A2981 RMK AO2 RAE0655B07 P0000 T00390022
0272723445939932024010607367+36010-094168FM-16+0384KFYV V0302205N00215002135MN0144845N5+00395+00225999999ADDAA101000021GA1075+002135999GA2085+004575999GD13991+0021351GD24991+0045759GE19AGL   +99999+99999GF199999999999002131999999MA1100955096435REMMET12401/06/24 01:36:02 SPECI KFYV 060736Z 22004KT 9SM BKN007 OVC015 04/02 A2981 RMK AO2 RAE0655B07E35 CIG 006V010 P0000 T00390022
0267723445939932024010607537+36010-094168FM-15+0384KFYV V0302305N00215001835MN0128755N5+00395+00225100975ADDAA101000025GA1075+001835999GA2085+003355999GD13991+0018359GD24991+0033559GE19AGL   +99999+99999GF199999999999001831999999MA1100955096435REMMET11901/06/24 01:53:02 METAR KFYV 060753Z 23004KT 8SM BKN006 OVC011 04/02 A2981 RMK AO2 RAE0655B07E35 SLP097 P0000 T00390022
0215723445939932024010608287+36010-094168FM-16+0384KFYV V0302705N00265001225MN0040235N5+00395+00225999999ADDAU100001015AW1105GA1085+001225999GD14991+0012259GE19AGL   +99999+99999GF199999999999001221999999MA1100955096435REMMET09201/06/24 02:28:02 SPECI KFYV 060828Z 27005KT 2 1/2SM BR OVC004 04/02 A2981 RMK AO2 T00390022
0270723445939932024010608537+36010-094168FM-15+0384KFYV V0302605N00155001225MN0040235N5+00335+00225100915ADDAA101000095AA203000391AU100001015AW1105GA1085+001225999GD14991+0012259GE19AGL   +99999+99999GF199999999999001221999999MA1100885096365MD1890069+9999REMMET11101/06/24 02:53:02 METAR KFYV 060853Z 26003KT 2 1/2SM BR OVC004 03/02 A2979 RMK AO2 SLP091 60001 T00330022 58006
0215723445939932024010609137+36010-094168FM-16+0384KFYV V0302505N00155000915MN0040235N5+00335+00225999999ADDAU100001015AW1105GA1085+000915999GD14991+0009159GE19AGL   +99999+99999GF199999999999000911999999MA1100885096365REMMET09201/06/24 03:13:02 SPECI KFYV 060913Z 25003KT 2 1/2SM BR OVC003 03/02 A2979 RMK AO2 T00330022
0211723445939932024010609287+36010-094168FM-16+0384KFYV V0302405N00215000915MN0048285N5+00335+00225999999ADDAU100001015AW1105GA1085+000915999GD14991+0009159GE19AGL   +99999+99999GF199999999999000911999999MA1100915096405REMMET08801/06/24 03:28:02 SPECI KFYV 060928Z 24004KT 3SM BR OVC003 03/02 A2980 RMK AO2 T00330022
0211723445939932024010609367+36010-094168FM-16+0384KFYV V0302505N00265000915MN0032195N5+00335+00225999999ADDAU100001015AW1105GA1085+000915999GD14991+0009159GE19AGL   +99999+99999GF199999999999000911999999MA1100915096405REMMET08801/06/24 03:36:02 SPECI KFYV 060936Z 25005KT 2SM BR OVC003 03/02 A2980 RMK AO2 T00330022
0205723445939932024010609487+36010-094168FM-16+0384KFYV V0302605N00315000915MN0024145N5+00305+00205999999ADDAU100001015AW1105GA1085+000915999GD14991+0009159GE19AGL   +99999+99999GF199999999999000911999999MA1100915096405REMMET08201/06/24 03:48:02 SPECI KFYV 060948Z 26006KT 1 1/2SM BR OVC003 03/02 A2980 RMK AO2
0233723445939932024010609537+36010-094168FM-15+0384KFYV V0302705N00215000915MN0020125N5+00335+00225100915ADDAA101000095AU100001015AW1105GA1085+000915999GD14991+0009159GE19AGL   +99999+99999GF199999999999000911999999MA1100885096365REMMET09901/06/24 03:53:02 METAR KFYV 060953Z 27004KT 1 1/4SM BR OVC003 03/02 A2979 RMK AO2 SLP091 T00330022
0227723445939932024010610137+36010-094168FM-16+0384KFYV V0302805N00155001225MN0040235N5+00335+00175999999ADDAU100001015AW1105GA1085+001225999GD14991+0012251GE19AGL   +99999+99999GF199999999999001221999999MA1100855096335REMMET10401/06/24 04:13:02 SPECI KFYV 061013Z 28003KT 2 1/2SM BR OVC004 03/02 A2978 RMK AO2 CIG 002V006 T00330017
0223723445939932024010610207+36010-094168FM-16+0384KFYV V0302705N00155001225MN0064375N5+00335+00225999999ADDAU100001015AW1105GA1085+001225999GD14991+0012251GE19AGL   +99999+99999GF199999999999001221999999MA1100855096335REMMET10001/06/24 04:20:02 SPECI KFYV 061020Z 27003KT 4SM BR OVC004 03/02 A2978 RMK AO2 CIG 002V006 T00330022
0201723445939932024010610507+36010-094168FM-16+0384KFYV V0302605N00315001225MN0032195N5+00305+00205999999ADDAU100001015AW1105GA1085+001225999GD14991+0012259GE19AGL   +99999+99999GF199999999999001221999999MA1100855096335REMMET07801/06/24 04:50:02 SPECI KFYV 061050Z 26006KT 2SM BR OVC004 03/02 A2978 RMK AO2
0162723445939932024010610516+36010-094168FM-16+0384KFYV V0302605N00265001225MN0028165N5+00305+00205999999ADDAU100001015AW1105GA1085+001225999GD14991+0012259MA1100855096335REMMET08701/06/24 04:51:02 SPECI KFYV 061051Z 26005KT 1 3/4SM BR OVC004 03/02 A2978 RMK AO2 FIBI
0233723445939932024010610537+36010-094168FM-15+0384KFYV V0302905N00265001225MN0028165N5+00335+00225100885ADDAA101000095AU100001015AW1105GA1085+001225999GD14991+0012259GE19AGL   +99999+99999GF199999999999001221999999MA1100855096335REMMET09901/06/24 04:53:02 METAR KFYV 061053Z 29005KT 1 3/4SM BR OVC004 03/02 A2978 RMK AO2 SLP088 T00330022
0215723445939932024010611057+36010-094168FM-16+0384KFYV V0302705N00365000915MN0028165N5+00335+00175999999ADDAU100001015AW1105GA1085+000915999GD14991+0009159GE19AGL   +99999+99999GF199999999999000911999999MA1100885096365REMMET09201/06/24 05:05:02 SPECI KFYV 061105Z 27007KT 1 3/4SM BR OVC003 03/02 A2979 RMK AO2 T00330017
0211723445939932024010611177+36010-094168FM-16+0384KFYV V0302705N00265000915MN0032195N5+00335+00225999999ADDAU100001015AW1105GA1085+000915999GD14991+0009159GE19AGL   +99999+99999GF199999999999000911999999MA1100885096365REMMET08801/06/24 05:17:02 SPECI KFYV 061117Z 27005KT 2SM BR OVC003 03/02 A2979 RMK AO2 T00330022
0211723445939932024010611327+36010-094168FM-16+0384KFYV V0302805N00265001225MN0032195N5+00335+00175999999ADDAU100001015AW1105GA1085+001225999GD14991+0012259GE19AGL   +99999+99999GF199999999999001221999999MA1100885096365REMMET08801/06/24 05:32:02 SPECI KFYV 061132Z 28005KT 2SM BR OVC004 03/02 A2979 RMK AO2 T00330017
0268723445939932024010611507+36010-094168FM-16+0384KFYV V0302605N00265001835MN0048285N5+00305+00205999999ADDAA101000021AU110020015AU200001015AW1105AW2615GA1085+001835999GD14991+0018351GE19AGL   +99999+99999GF199999999999001831999999MA1100915096405MW1615REMMET11101/06/24 05:50:02 SPECI KFYV 061150Z 26005KT 3SM -RA BR OVC006 03/02 A2980 RMK AO2 RAB41 CIG 004V009 P0000 (TD)
0412723445939932024010611537+36010-094168FM-15+0384KFYV V0302905N00265001835MN0048285N5+00335+00225100955ADDAA101000025AA206000391AA324005391AU110020015AU200001015AW1105AW2615GA1085+001835999GD14991+0018351GE19AGL   +99999+99999GF199999999999001831999999KA1060M+00391KA2060N+00331MA1100915096405MD1390039+9999MW1615REMMET15801/06/24 05:53:02 METAR KFYV 061153Z 29005KT 3SM -RA BR OVC006 03/02 A2980 RMK AO2 RAB41 CIG 004V009 SLP095 P0000 60001 70021 T00330022 10039 20033 53003 (TD)EQDQ01  00028PRCP06Q02  00538PRCP24
0282723445939932024010612537+36010-094168FM-15+0384KFYV V0302805N00415002745MN0112655N5+00285+00065100975ADDAA101000025GA1075+002745999GA2085+004575999GD13991+0027451GD24991+0045759GE19AGL   +99999+99999GF199999999999002741999999MA1100955096435REMMET13401/06/24 06:53:02 METAR KFYV 061253Z 28008KT 7SM BKN009 OVC015 03/01 A2981 RMK AO2 RAE01B17E26 CIG 006V012 SLP097 P0000 T00280006 (TD)
0226723445939932024010613537+36010-094168FM-15+0384KFYV V0302805N00215002135MN0144845N5+00175+00005101075ADDAA101000095GA1085+002135999GD14991+0021351GE19AGL   +99999+99999GF199999999999002131999999MA1101025096505REMMET10901/06/24 07:53:02 METAR KFYV 061353Z 28004KT 9SM OVC007 02/00 A2983 RMK AO2 CIG 006V010 SLP107 T00170000 (TD)
0272723445939932024010614537+36010-094168FM-15+0384KFYV V0303005N00415001835MN0096565N5+00115-00065101165ADDAA101000095AA203000021AU100001015AW1105GA1085+001835999GD14991+0018359GE19AGL   +99999+99999GF199999999999001831999999MA1101125096595MD1390189+9999REMMET11301/06/24 08:53:02 METAR KFYV 061453Z 30008KT 6SM BR OVC006 01/M01 A2986 RMK AO2 SLP116 60000 T00111006 53018 (TD)
0215723445939932024010615537+36010-094168FM-15+0384KFYV V0303105N00315002135MN0112655N5+00115-00065101165ADDAA101000095GA1085+002135999GD14991+0021359GE19AGL   +99999+99999GF199999999999002131999999MA1101125096595REMMET09801/06/24 09:53:02 METAR KFYV 061553Z 31006KT 7SM OVC007 01/M01 A2986 RMK AO2 SLP116 T00111006 (TD)
0215723445939932024010616537+36010-094168FM-15+0384KFYV V0302905N00265002445MN0112655N5+00175-00065101195ADDAA101000095GA1085+002445999GD14991+0024459GE19AGL   +99999+99999GF199999999999002441999999MA1101155096635REMMET09801/06/24 10:53:02 METAR KFYV 061653Z 29005KT 7SM OVC008 02/M01 A2987 RMK AO2 SLP119 T00171006 (TD)
0303723445939932024010617537+36010-094168FM-15+0384KFYV V0302605N00415002745MN0160935N5+00115-00115101135ADDAA101000095AA206000021GA1085+002745999GD14991+0027451GE19AGL   +99999+99999GF199999999999002741999999KA1060M+00331KA2060N+00111MA1101085096565MD1890039+9999REMMET13501/06/24 11:53:02 METAR KFYV 061753Z 26008KT 10SM OVC009 01/M01 A2985 RMK AO2 CIG 006V011 SLP113 60000 T00111011 10033 20011 58003 (TD)
0227723445939932024010618537+36010-094168FM-15+0384KFYV V0302905N00365001835MN0128755N5+00115-00115101115ADDAA101000095GA1085+001835999GD14991+0018351GE19AGL   +99999+99999GF199999999999001831999999MA1101055096535REMMET11001/06/24 12:53:02 METAR KFYV 061853Z 29007KT 8SM OVC006 01/M01 A2984 RMK AO2 CIG 006V011 SLP111 T00111011 (TD)
0228723445939932024010619537+36010-094168FM-15+0384KFYV V0302805N00315002445MN0160935N5+00175-00115101075ADDAA101000095GA1085+002445999GD14991+0024451GE19AGL   +99999+99999GF199999999999002441999999MA1101025096505REMMET11101/06/24 13:53:02 METAR KFYV 061953Z 28006KT 10SM OVC008 02/M01 A2983 RMK AO2 CIG 006V012 SLP107 T00171011 (TD)
0198723445939932024010620157+36010-094168FM-16+0384KFYV V0309999V00215003055MN0160935N5+00175-00175999999ADDGA1085+003055999GD14991+0030559GE19AGL   +99999+99999GF199999999999003051999999MA1101025096505REMMET09201/06/24 14:15:02 SPECI KFYV 062015Z VRB04KT 10SM OVC010 02/M02 A2983 RMK AO2 T00171017 (TD)
0198723445939932024010620227+36010-094168FM-16+0384KFYV V0302405N00315002445MN0160935N5+00175-00175999999ADDGA1085+002445999GD14991+0024459GE19AGL   +99999+99999GF199999999999002441999999MA1101025096505REMMET09201/06/24 14:22:02 SPECI KFYV 062022Z 24006KT 10SM OVC008 02/M02 A2983 RMK AO2 T00171017 (TD)
0145723445939932024010620516+36010-094168FM-16+0384KFYV V0302605N00365003355MN0160935N5+00205-00205999999ADDGA1085+003355999GD14991+0033559MA1101025096505REMMET08701/06/24 14:51:02 SPECI KFYV 062051Z 26007KT 10SM OVC011 02/M02 A2983 RMK AO2 FIBI (OO)
0236723445939932024010620537+36010-094168FM-15+0384KFYV V0302705N00365003355MN0160935N5+00175-00175101075ADDAA101000095GA1085+003355999GD14991+0033559GE19AGL   +99999+99999GF199999999999003351999999MA1101025096505MD1690069+9999REMMET10501/06/24 14:53:02 METAR KFYV 062053Z 27007KT 10SM OVC011 02/M02 A2983 RMK AO2 SLP107 T00171017 56006 (OO)
0215723445939932024010621537+36010-094168FM-15+0384KFYV V0302605N00365003355MN0144845N5+00225-00115101135ADDAA101000095GA1085+003355999GD14991+0033559GE19AGL   +99999+99999GF199999999999003351999999MA1101085096565REMMET09801/06/24 15:53:02 METAR KFYV 062153Z 26007KT 9SM OVC011 02/M01 A2985 RMK AO2 SLP113 T00221011 (OO)
0216723445939932024010622537+36010-094168FM-15+0384KFYV V0302405N00315004275MN0160935N5+00225-00115101175ADDAA101000095GA1085+004275999GD14991+0042759GE19AGL   +99999+99999GF199999999999004271999999MA1101125096595REMMET09901/06/24 16:53:02 METAR KFYV 062253Z 24006KT 10SM OVC014 02/M01 A2986 RMK AO2 SLP117 T00221011 (OO)
0274723445939932024010623537+36010-094168FM-15+0384KFYV V0302405N00315004275MN0160935N5+00225-00115101215ADDAA101000095GA1085+004275999GD14991+0042759GE19AGL   +99999+99999GF199999999999004271999999KA1060M+00221KA2060N+00111MA1101155096635MD1190149+9999REMMET11701/06/24 17:53:02 METAR KFYV 062353Z 24006KT 10SM OVC014 02/M01 A2987 RMK AO2 SLP121 T00221011 10022 20011 51014 (OO)
0030723445939932024010700004+36010-094169SHEF +038199999V020999999999999999999999999999+99999+99999999999ADDAJ100009100000099AL19900091
0211723445939932024010700537+36010-094168FM-15+0384KFYV V0302305N00365003355MN0160935N5+00225-00065101295ADDAA101000095GA1085+003355999GD14991+0033559GE19AGL   +99999+99999GF199999999999003351999999MA1101255096725REMMET09401/06/24 18:53:01 METAR KFYV 070053Z 23007KT 10SM OVC011 02/M01 A2990 RMK AO2 SLP129 T00221006
0210723445939932024010701537+36010-094168FM-15+0384KFYV V0302305N00415003965MN0144845N5+00225-00065101315ADDAA101000095GA1085+003965999GD14991+0039659GE19AGL   +99999+99999GF199999999999003961999999MA1101255096725REMMET09301/06/24 19:53:01 METAR KFYV 070153Z 23008KT 9SM OVC013 02/M01 A2990 RMK AO2 SLP131 T00221006
0219723445939932024010702516+36010-094168FM-16+0384KFYV V0302205N00315005795MN0144845N5+00305+00005999999ADDGA1045+003965999GA2075+005795999GA3085+007925999GD12991+0039659GD23991+0057959GD34991+0079259MA1101295096765REMMET09901/06/24 20:51:03 SPECI KFYV 070251Z 22006KT 9SM SCT013 BKN019 OVC026 03/00 A2991 RMK AO2 FIBI (OO)
0267723445939932024010702537+36010-094168FM-15+0384KFYV V0302305N00365004575MN0144845N5+00285+00005101335ADDAA101000095GA1075+004575999GA2085+007925999GD13991+0045759GD24991+0079259GE19AGL   +99999+99999GF199999999999004571999999MA1101295096765MD1190119+9999REMMET10501/06/24 20:53:01 METAR KFYV 070253Z 23007KT 9SM BKN015 OVC026 03/00 A2991 RMK AO2 SLP133 T00280000 51011
0229723445939932024010703537+36010-094168FM-15+0384KFYV V0302305N003652200059N0128755N5+00225-00065101355ADDAA101000095GA1045+003665999GD12991+0036659GE19AGL   +99999+99999GF104995999999003661999999MA1101295096765REMMET09301/06/24 21:53:02 METAR KFYV 070353Z 23007KT 8SM SCT012 02/M01 A2991 RMK AO2 SLP135 T00221006EQDD01      0ADE726
0247723445939932024010704537+36010-094168FM-15+0384KFYV V0302205N00365018295MN0128755N5+00285+00005101435ADDAA101000095GA1025+011585999GA2085+018295999GD11991+0115859GD24991+0182959GE19AGL   +99999+99999GF199999999999011581999999MA1101395096855REMMET09901/06/24 22:53:02 METAR KFYV 070453Z 22007KT 8SM FEW038 OVC060 03/00 A2994 RMK AO2 SLP143 T00280000
0303723445939932024010705537+36010-094168FM-15+0384KFYV V0302305N00315019815MN0128755N5+00285+00005101475ADDAA101000095GA1085+019815999GD14991+0198159GE19AGL   +99999+99999GF199999999999019811999999KA1060M+00281KA2060N+00171KA3240M+00391KA4240N+00111MA1101425096895MD1390149+9999REMMET12001/06/24 23:53:02 METAR KFYV 070553Z 23006KT 8SM OVC065 03/00 A2995 RMK AO2 SLP147 T00280000 10028 20017 400390011 53014
1045723445939932024010705596+36010-094168SOD  +0384KFYV V030999999999999999999999999999+99999+99999999999ADDAA124000395AJ100009599999999AN1024000095AT1AU16RA  5AT2AU13BR  5AX1015245KA1240M+00395KA2240N+00115KG1024W+0011D4KG2024D+0000D4MF1096614101194MG1096614100854OE11240076029099995OE22240062629099995OE33240030899999995RH1024X093D4RH2024N078D4RH3024M085D4REMSOD78324 HR PRECIPITATION (IN): 0.01 SNOW DEPTH (IN):0     24 HR SNOWFALL (IN):0.0  WEATHER(CODE):1  24 HR MAX TEMP (F): 3924 HR MIN TEMP (F): 34AVERAGE STATION PRESSURE:28.530 MINIMUM SEA LEVEL PRESSURE:29.78 TIME OF OCCURRENCE:0446 PEAK WIND SPEED (MPH): 17 PEAK WIND DIR (DEG):290 PEAK WIND TIME (LST):      FASTEST 2MIN SPEED (MPH): 14FASTEST 2MIN DIR (DEG):290 FASTEST 2MIN TIME (LST):     AVERAGE WIND SPEED (MPH): 6.9 24 HR AVG TEMP (F): 37DEPART FROM NORMAL:  1  SKY COVER SR-SS (TENTHS): 1HEATING DEGREE DAYS: 28 COOLING DEGREE DAYS:  0 LATEST DAY MAX TEMP (0700-1900 LST):37  LATEST NIGHT MIN TEMP(1900-0800 LST):35 HOURLY INCREMENTAL PRECIPITATION VALUES (IN):.01 T    0.00 0.00 0.00 T    T    0.00 0.00 0.00 0.00 0.00 0.00 0.00 0.00 0.00 0.00 0.00 0.00 0.00 0.00 0.00 0.00 0.00
0209723445939932024010706537+36010-094168FM-15+0384KFYV V0302105N00315019815MN0144845N5+00335+00065101455ADDAA101000095GA1085+019815999GD14991+0198159GE19AGL   +99999+99999GF199999999999019811999999MA1101395096855REMMET09201/07/24 00:53:02 METAR KFYV 070653Z 21006KT 9SM OVC065 03/01 A2994 RMK AO2 SLP145 T00330006
0248723445939932024010707537+36010-094168FM-15+0384KFYV V0302305N00465010675MN0160935N5+00335+00005101545ADDAA101000095GA1075+010675999GA2075+019815999GD13991+0106759GD23991+0198159GE19AGL   +99999+99999GF199999999999010671999999MA1101495096955REMMET10001/07/24 01:53:02 METAR KFYV 070753Z 23009KT 10SM BKN035 BKN065 03/00 A2997 RMK AO2 SLP154 T00330000
0268723445939932024010708537+36010-094168FM-15+0384KFYV V0302405N00315009455MN0160935N5+00395+00065101595ADDAA101000095GA1075+009455999GA2085+011895999GD13991+0094559GD24991+0118959GE19AGL   +99999+99999GF199999999999009451999999MA1101525096995MD1390119+9999REMMET10601/07/24 02:53:02 METAR KFYV 070853Z 24006KT 10SM BKN031 OVC039 04/01 A2998 RMK AO2 SLP159 T00390006 53011
0229723445939932024010709537+36010-094168FM-15+0384KFYV V0302705N004152200059N0160935N5+00335+00005101635ADDAA101000095GA1025+008845999GD11991+0088459GE19AGL   +99999+99999GF102995999999008841999999MA1101565097025REMMET09301/07/24 03:53:02 METAR KFYV 070953Z 27008KT 10SM FEW029 03/00 A2999 RMK AO2 SLP163 T00330000EQDD01      0ADE726
0186723445939932024010710537+36010-094168FM-15+0384KFYV V0302605N003152200059N0160935N5+00225-00065101675ADDAA101000095GA1005+999999999GD10991+9999999GF100991999999999999999999MA1101635097085REMMET09101/07/24 04:53:02 METAR KFYV 071053Z 26006KT 10SM CLR 02/M01 A3001 RMK AO2 SLP167 T00221006
0249723445939932024010711537+36010-094168FM-15+0384KFYV V0302605N003152200059N0160935N5+00175-00115101715ADDAA101000095GA1005+999999999GD10991+9999999GF100991999999999999999999KA1060M+00391KA2060N+00171MA1101665097125MD1190129+9999REMMET11401/07/24 05:53:02 METAR KFYV 071153Z 26006KT 10SM CLR 02/M01 A3002 RMK AO2 SLP171 T00171011 10039 20017 51012 (TD)
0191723445939932024010712537+36010-094168FM-15+0384KFYV V0309999C000052200059N0128755N5-00115-00285101825ADDAA101000095GA1005+999999999GD10991+9999999GF100991999999999999999999MA1101765097215REMMET09601/07/24 06:53:02 METAR KFYV 071253Z 00000KT 8SM CLR M01/M03 A3005 RMK AO2 SLP182 T10111028 (TD)
0190723445939932024010713537+36010-094168FM-15+0384KFYV V0302005N003652200059N0112655N5+00005-00225101905ADDAA101000095GA1005+999999999GD10991+9999999GF100991999999999999999999MA1101835097285REMMET09501/07/24 07:53:02 METAR KFYV 071353Z 20007KT 7SM CLR 00/M02 A3007 RMK AO2 SLP190 T00001022 (TD)
0210723445939932024010714537+36010-094168FM-15+0384KFYV V0302005N001552200059N0144845N5+00175-00065101945ADDAA101000095GA1005+999999999GD10991+9999999GF100991999999999999999999MA1101865097315MD1190229+9999REMMET10101/07/24 08:53:02 METAR KFYV 071453Z 20003KT 9SM CLR 02/M01 A3008 RMK AO2 SLP194 T00171006 51022 (TD)
0191723445939932024010715537+36010-094168FM-15+0384KFYV V0309999C000052200059N0160935N5+00505-00175102015ADDAA101000095GA1005+999999999GD10991+9999999GF100991999999999999999999MA1101965097415REMMET09601/07/24 09:53:02 METAR KFYV 071553Z 00000KT 10SM CLR 05/M02 A3011 RMK AO2 SLP201 T00501017 (TD)
0191723445939932024010716537+36010-094168FM-15+0384KFYV V0309999C000052200059N0160935N5+00725-00395101975ADDAA101000095GA1005+999999999GD10991+9999999GF100991999999999999999999MA1101935097385REMMET09601/07/24 10:53:02 METAR KFYV 071653Z 00000KT 10SM CLR 07/M04 A3010 RMK AO2 SLP197 T00721039 (OO)
0249723445939932024010717537+36010-094168FM-15+0384KFYV V0303305N001552200059N0160935N5+00945-00565101905ADDAA101000095GA1005+999999999GD10991+9999999GF100991999999999999999999KA1060M+00941KA2060N-00221MA1101865097315MD1090009+9999REMMET11401/07/24 11:53:02 METAR KFYV 071753Z 33003KT 10SM CLR 09/M06 A3008 RMK AO2 SLP190 T00941056 10094 21022 50000 (OO)
0191723445939932024010718537+36010-094168FM-15+0384KFYV V0301605N001552200059N0160935N5+01005-00615101815ADDAA101000095GA1005+999999999GD10991+9999999GF100991999999999999999999MA1101795097255REMMET09601/07/24 12:53:02 METAR KFYV 071853Z 16003KT 10SM CLR 10/M06 A3006 RMK AO2 SLP181 T01001061 (OO)
0191723445939932024010719537+36010-094168FM-15+0384KFYV V0302205N001552200059N0160935N5+01175-00505101755ADDAA101000095GA1005+999999999GD10991+9999999GF100991999999999999999999MA1101735097185REMMET09601/07/24 13:53:02 METAR KFYV 071953Z 22003KT 10SM CLR 12/M05 A3004 RMK AO2 SLP175 T01171050 (OO)
0211723445939932024010720537+36010-094168FM-15+0384KFYV V0309999V002152200059N0160935N5+01175-00505101695ADDAA101000095GA1005+999999999GD10991+9999999GF100991999999999999999999MA1101695097155MD1690189+9999REMMET10201/07/24 14:53:02 METAR KFYV 072053Z VRB04KT 10SM CLR 12/M05 A3003 RMK AO2 SLP169 T01171050 56018 (OO)
0191723445939932024010721537+36010-094168FM-15+0384KFYV V0301805N003152200059N0160935N5+01225-00395101665ADDAA101000095GA1005+999999999GD10991+9999999GF100991999999999999999999MA1101665097125REMMET09601/07/24 15:53:02 METAR KFYV 072153Z 18006KT 10SM CLR 12/M04 A3002 RMK AO2 SLP166 T01221039 (OO)
0191723445939932024010722537+36010-094168FM-15+0384KFYV V0301905N003152200059N0160935N5+00835-00175101745ADDAA101000095GA1005+999999999GD10991+9999999GF100991999999999999999999MA1101735097185REMMET09601/07/24 16:53:02 METAR KFYV 072253Z 19006KT 10SM CLR 08/M02 A3004 RMK AO2 SLP174 T00831017 (OO)
0249723445939932024010723537+36010-094168FM-15+0384KFYV V0301705N003652200059N0160935N5+00615-00175101765ADDAA101000095GA1005+999999999GD10991+9999999GF100991999999999999999999KA1060M+01281KA2060N+00611MA1101735097185MD1390029+9999REMMET11401/07/24 17:53:02 METAR KFYV 072353Z 17007KT 10SM CLR 06/M02 A3004 RMK AO2 SLP176 T00611017 10128 20061 53002 (OO)
0030723445939932024010800004+36010-094169SHEF +038199999V020999999999999999999999999999+99999+99999999999ADDAJ100009100000099AL19900091
0186723445939932024010800537+36010-094168FM-15+0384KFYV V0309999C000052200059N0160935N5+00335-00175101795ADDAA101000095GA1005+999999999GD10991+9999999GF100991999999999999999999MA1101735097185REMMET09101/07/24 18:53:01 METAR KFYV 080053Z 00000KT 10SM CLR 03/M02 A3004 RMK AO2 SLP179 T00331017
0186723445939932024010801537+36010-094168FM-15+0384KFYV V0300705N001552200059N0160935N5+00395-00225101745ADDAA101000095GA1005+999999999GD10991+9999999GF100991999999999999999999MA1101695097155REMMET09101/07/24 19:53:01 METAR KFYV 080153Z 07003KT 10SM CLR 04/M02 A3003 RMK AO2 SLP174 T00391022
0206723445939932024010802537+36010-094168FM-15+0384KFYV V0301305N003652200059N0160935N5+00785-00225101695ADDAA101000095GA1005+999999999GD10991+9999999GF100991999999999999999999MA1101665097125MD1890049+9999REMMET09701/07/24 20:53:01 METAR KFYV 080253Z 13007KT 10SM CLR 08/M02 A3002 RMK AO2 SLP169 T00781022 58004
0186723445939932024010803537+36010-094168FM-15+0384KFYV V0301305N003652200059N0160935N5+00785-00225101625ADDAA101000095GA1005+999999999GD10991+9999999GF100991999999999999999999MA1101595097055REMMET09101/07/24 21:53:02 METAR KFYV 080353Z 13007KT 10SM CLR 08/M02 A3000 RMK AO2 SLP162 T00781022
0197723445939932024010804537+36010-094168FM-15+0384KFYV V0301305N004152200059N0160935N5+00835-00225101575ADDAA101000095GA1005+999999999GD10991+9999999GF100991999999999999999999MA1101565097025OC100825REMMET09401/07/24 22:53:02 METAR KFYV 080453Z 13008G16KT 10SM CLR 08/M02 A2999 RMK AO2 SLP157 T00831022
0291723445939932024010805537+36010-094168FM-15+0384KFYV V0301505N004652200059N0160935N5+00835-00225101555ADDAA101000095GA1005+999999999GD10991+9999999GF100991999999999999999999KA1060M+00891KA2060N+00061KA3240M+01281KA4240N-00221MA1101565097025MD1690119+9999OC100985REMMET12201/07/24 23:53:02 METAR KFYV 080553Z 15009G19KT 10SM CLR 08/M02 A2999 RMK AO2 SLP155 T00831022 10089 20006 401281022 56011
0968723445939932024010805596+36010-094168SOD  +0384KFYV V030999999999999999999999999999+99999+99999999999ADDAA124000095AJ100009599999999AN1024000095KA1240M+01285KA2240N-00215KG1024W+0028D4KG2024D-0022D4MF1097164101694MG1097144101464OE11240107311099995OE22240071514099995OE33240025099999995RH1024X089D4RH2024N031D4RH3024M059D4REMSOD73924 HR PRECIPITATION (IN): 0.00 SNOW DEPTH (IN):0     24 HR SNOWFALL (IN):0.0  24 HR MAX TEMP (F): 5524 HR MIN TEMP (F): 28AVERAGE STATION PRESSURE:28.685 MINIMUM SEA LEVEL PRESSURE:29.96 TIME OF OCCURRENCE:0109 PEAK WIND SPEED (MPH): 24 PEAK WIND DIR (DEG):110 PEAK WIND TIME (LST):      FASTEST 2MIN SPEED (MPH): 16FASTEST 2MIN DIR (DEG):140 FASTEST 2MIN TIME (LST):     AVERAGE WIND SPEED (MPH): 5.6 24 HR AVG TEMP (F): 42DEPART FROM NORMAL:  6  HEATING DEGREE DAYS: 23 COOLING DEGREE DAYS:  0 LATEST DAY MAX TEMP (0700-1900 LST):55  LATEST NIGHT MIN TEMP(1900-0800 LST):28 HOURLY INCREMENTAL PRECIPITATION VALUES (IN):.00 0.00 0.00 0.00 0.00 0.00 0.00 0.00 0.00 0.00 0.00 0.00 0.00 0.00 0.00 0.00 0.00 0.00 0.00 0.00 0.00 0.00 0.00 0.00
0197723445939932024010806537+36010-094168FM-15+0384KFYV V0301705N004652200059N0160935N5+00835-00175101575ADDAA101000095GA1005+999999999GD10991+9999999GF100991999999999999999999MA1101595097055OC101035REMMET09401/08/24 00:53:02 METAR KFYV 080653Z 17009G20KT 10SM CLR 08/M02 A3000 RMK AO2 SLP157 T00831017
0197723445939932024010807537+36010-094168FM-15+0384KFYV V0301705N005752200059N0160935N5+00785-00115101595ADDAA101000095GA1005+999999999GD10991+9999999GF100991999999999999999999MA1101595097055OC100985REMMET09401/08/24 01:53:02 METAR KFYV 080753Z 17011G19KT 10SM CLR 08/M01 A3000 RMK AO2 SLP159 T00781011
0217723445939932024010808537+36010-094168FM-15+0384KFYV V0301405N004152200059N0160935N5+00835-00115101445ADDAA101000095GA1005+999999999GD10991+9999999GF100991999999999999999999MA1101465096925MD1890099+9999OC100935REMMET10001/08/24 02:53:02 METAR KFYV 080853Z 14008G18KT 10SM CLR 08/M01 A2996 RMK AO2 SLP144 T00831011 58009
0211723445939932024010809537+36010-094168FM-15+0384KFYV V0309999V00265030485MN0160935N5+00835-00115101365ADDAA101000095GA1085+030485999GD14991+0304859GE19AGL   +99999+99999GF199999999999030481999999MA1101395096855REMMET09401/08/24 03:53:02 METAR KFYV 080953Z VRB05KT 10SM OVC100 08/M01 A2994 RMK AO2 SLP136 T00831011
0222723445939932024010810537+36010-094168FM-15+0384KFYV V0301305N00575027435MN0160935N5+00835-00225101275ADDAA101000095GA1085+027435999GD14991+0274359GE19AGL   +99999+99999GF199999999999027431999999MA1101295096765OC100935REMMET09701/08/24 04:53:02 METAR KFYV 081053Z 13011G18KT 10SM OVC090 08/M02 A2991 RMK AO2 SLP127 T00831022
0292723445939932024010811537+36010-094168FM-15+0384KFYV V0301205N00775028965MN0160935N5+00895-00285101115ADDAA101000095GA1085+028965999GD14991+0289659GE19AGL   +99999+99999GF199999999999028961999999KA1060M+00891KA2060N+00721MA1101125096595MD1890349+9999OC101245REMMET12701/08/24 05:53:02 METAR KFYV 081153Z 12015G24KT 10SM OVC095 09/M03 A2986 RMK AO2 PRESFR SLP111 T00891028 10089 20072 58034 (MB)
0259723445939932024010812537+36010-094168FM-15+0384KFYV V0301405N00675033535MN0160935N5+00895-00335100955ADDAA101000095GA1085+033535999GD14991+0335359GE19AGL   +99999+99999GF199999999999033531999999MA1100955096435OC101185OD149901441120REMMET12001/08/24 06:53:02 METAR KFYV 081253Z 14013G23KT 10SM OVC110 09/M03 A2981 RMK AO2 PK WND 12028/1207 SLP095 T00891033 (MB)
0274723445939932024010813537+36010-094168FM-15+0384KFYV V0301205N00825024385MN0160935N5+00945-00565101075ADDAA101000025GA1085+024385999GD14991+0243859GE19AGL   +99999+99999GF199999999999024381999999MA1101055096535OC101135OD149901441130REMMET13501/08/24 07:53:02 METAR KFYV 081353Z 12016G22KT 10SM OVC080 09/M06 A2984 RMK AO2 PK WND 13028/1334 RAB25E35 SLP107 P0000 T00941056 (MB)
0330723445939932024010814407+36010-094168FM-16+0384KFYV V0301305N00885008535MN0040235N5+00505+00065999999ADDAA101001531AU120020015AW1625GA1075+008535999GA2085+011285999GD13991+0085359GD24991+0112859GE19AGL   +99999+99999GF199999999999008531999999MA1101025096505MW1655OC102215OD149902521150REMMET13701/08/24 08:40:02 SPECI KFYV 081440Z 13017G43KT 2 1/2SM RA BKN028 OVC037 05/01 A2983 RMK AO2 PK WND 15049/1424 RAB05 P0006 T00500006 (MB)
0365723445939932024010814517+36010-094168FM-16+0384KFYV V0301305N00825009755MN0028165N5+00405+00105999999ADDAA101002531AU120020015AW1625GA1025+007325999GA2075+009755999GA3085+022865999GD11991+0073259GD23991+0097559GD34991+0228659GE19AGL   +99999+99999GF199999999999007321999999MA1100985096465MW1655OC102015OD149902521150REMMET14101/08/24 08:51:02 SPECI KFYV 081451Z 13016G39KT 1 3/4SM RA FEW024 BKN032 OVC075 04/01 A2982 RMK AO2 PK WND 15049/1424 RAB05 PRESFR P0010 (MB)
0438723445939932024010814527+36010-094168FM-15+0384KFYV V0301305N00725009755MN0028165N5+00445+00065100965ADDAA101002896AA203002592AU120020015AW1625GA1025+007325999GA2075+009755999GA3085+022865999GD11991+0073259GD23991+0097559GD34991+0228659GE19AGL   +99999+99999GF199999999999007321999999MA1100955096435MD1690159+9999MW1655OC102015OD149902521150REMMET17001/08/24 08:52:02 METAR KFYV 081452Z 13014G39KT 1 3/4SM RA FEW024 BKN032 OVC075 04/01 A2981 RMK AO2 PK WND 15049/1424 RAB05 PRESFR SLP096 P0010 60010 T00440006 56015 (MB)EQDQ01  00258PRCP03
0283723445939932024010815537+36010-094168FM-15+0384KFYV V0301305N00775019815MN0144845N5+00565+00115100795ADDAA101000595AU110020015AW1615GA1085+019815999GD14991+0198159GE19AGL   +99999+99999GF199999999999019811999999MA1100785096275MW1615OC101855REMMET13501/08/24 09:53:02 METAR KFYV 081553Z 13015G36KT 9SM -RA OVC065 06/01 A2976 RMK AO2 PK WND 12036/1550 PRESFR SLP079 P0003 T00560011 (XX)
0329723445939932024010816537+36010-094168FM-15+0384KFYV V0301305N00885019815MN0160935N5+00675+00115100595ADDAA101000395AU110020015AW1615GA1075+019815999GA2085+024385999GD13991+0198159GD24991+0243859GE19AGL   +99999+99999GF199999999999019811999999MA1100615096105MW1615OC101445OD149901691150REMMET13601/08/24 10:53:02 METAR KFYV 081653Z 13017G28KT 10SM -RA BKN065 OVC080 07/01 A2971 RMK AO2 PK WND 15033/1603 SLP059 P0001 T00670011 (XX)
0320723445939932024010817467+36010-094168FM-16+0384KFYV V0301305N00625018295MN0032195N5+00615+00225999999ADDAA101002231AU120020015AW1625GA1075+018295999GA2085+022865999GD13991+0182959GD24991+0228659GE19AGL   +99999+99999GF199999999999018291999999MA1100445095945MW1655OC101185OD149901591120REMMET12701/08/24 11:46:02 SPECI KFYV 081746Z 13012G23KT 2SM RA BKN060 OVC075 06/02 A2966 RMK AO2 PK WND 12031/1716 P0009 T00610022 (XX)
0363723445939932024010817537+36010-094168FM-15+0384KFYV V0301205N00465019815MN0032195N5+00615+00225100385ADDAA101003395AA206006691AU120020015AW1625GA1085+019815999GD14991+0198159GE19AGL   +99999+99999GF199999999999019811999999KA1060M+01001MA1100375095885MD1890559+9999MW1655OC100985REMMET15801/08/24 11:53:02 METAR KFYV 081753Z 12009G19KT 2SM RA OVC065 06/02 A2964 RMK AO2 PK WND 12031/1716 PRESFR SLP038 P0012 60026 T00610022 10100 20044 58055 (XX)EQDQ01  00668PRCP06
0257723445939932024010818107+36010-094168FM-16+0384KFYV V0301305N00775019815MN0048285N5+00615+00285999999ADDAA101000731AU120020015AW1625GA1085+019815999GD14991+0198159GE19AGL   +99999+99999GF199999999999019811999999MA1100305095815MW1655OC101295REMMET10901/08/24 12:10:02 SPECI KFYV 081810Z 13015G25KT 3SM RA OVC065 06/03 A2962 RMK AO2 PRESFR P0003 T00610028 (XX)
0254723445939932024010818197+36010-094168FM-16+0384KFYV V0301205N00725019815MN0040235N5+00615+00285999999ADDAA101001731AU120020015AW1625GA1085+019815999GD14991+0198159GE19AGL   +99999+99999GF199999999999019811999999MA1100245095755MW1655OC101295REMMET10601/08/24 12:19:02 SPECI KFYV 081819Z 12014G25KT 2 1/2SM RA OVC065 06/03 A2960 RMK AO2 P0007 T00610028 (XX)
0327723445939932024010818397+36010-094168FM-16+0384KFYV V0301105N00625015245MN0112655N5+00615+00335999999ADDAA101002531AU110020015AW1615GA1045+012505999GA2075+015245999GA3085+021345999GD12991+0125059GD23991+0152459GD34991+0213459GE19AGL   +99999+99999GF199999999999012501999999MA1100175095685MW1615OC101035REMMET11701/08/24 12:39:02 SPECI KFYV 081839Z 11012G20KT 7SM -RA SCT041 BKN050 OVC070 06/03 A2958 RMK AO2 P0010 T00610033 (XX)
0296723445939932024010818537+36010-094168FM-15+0384KFYV V0301205V00365013115MN0096565N5+00615+00335100135ADDAA101002895AU110020015AW1615GA1045+005795999GA2085+013115999GD12991+0057959GD24991+0131159GE19AGL   +99999+99999GF199999999999005791999999MA1100145095655MW1615OC101035REMMET11701/08/24 12:53:02 METAR KFYV 081853Z 12007G20KT 6SM -RA SCT019 OVC043 06/03 A2957 RMK AO2 SLP013 P0011 T00610033 (XX)
0326723445939932024010819017+36010-094168FM-16+0384KFYV V0301205N00625005795MN0064375N5+00675+00335999999ADDAA101000231AU120020015AW1625GA1075+005795999GA2075+008845999GA3085+012505999GD13991+0057959GD23991+0088459GD34991+0125059GE19AGL   +99999+99999GF199999999999005791999999MA1100105095615MW1655OC100935REMMET11601/08/24 13:01:02 SPECI KFYV 081901Z 12012G18KT 4SM RA BKN019 BKN029 OVC041 07/03 A2956 RMK AO2 P0001 T00670033 (XX)
0204723445939932024010819516+36010-094168FM-16+0384KFYV V0302705N00415005795MN0040235N5+00705+00405999999ADDAU120020015AW1625GA1085+005795999GD14991+0057959MA1100175095685MW1655REMMET12301/08/24 13:51:02 SPECI KFYV 081951Z 27008KT 2 1/2SM RA OVC019 07/04 A2958 RMK AO2 PK WND 11028/1917 PRESRR P0004 FIBI (XX)
0279723445939932024010819537+36010-094168FM-15+0384KFYV V0302705N00265005185MN0032195N5+00675+00395100175ADDAA101001395AU130020015AW1635GA1085+005185999GD14991+0051859GE19AGL   +99999+99999GF199999999999005181999999MA1100175095685MW1635OD149901441110REMMET12501/08/24 13:53:02 METAR KFYV 081953Z 27005KT 2SM +RA OVC017 07/04 A2958 RMK AO2 PK WND 11028/1917 SLP017 P0005 T00670039 (XX)
0318723445939932024010820537+36010-094168FM-15+0384KFYV V0309999C00005005795MN0032195N5+00615+00445100185ADDAA101001895AA203006191AU110020015AU200001015AW1105AW2615GA1085+005795999GD14991+0057959GE19AGL   +99999+99999GF199999999999005791999999MA1100175095685MD1590199+9999MW1615REMMET11701/08/24 14:53:02 METAR KFYV 082053Z 00000KT 2SM -RA BR OVC019 06/04 A2958 RMK AO2 SLP018 P0008 60024 T00610044 55019EQDQ01  00608PRCP03
0214723445939932024010821007+36010-094168FM-16+0384KFYV V0309999C00005005795MN0144845N5+00675+00445999999ADDAA101000021GA1085+005795999GD14991+0057959GE19AGL   +99999+99999GF199999999999005791999999MA1100205095715REMMET09701/08/24 15:00:02 SPECI KFYV 082100Z 00000KT 9SM OVC019 07/04 A2959 RMK AO2 RAE00 P0000 T00670044
0223723445939932024010821516+36010-094168FM-16+0384KFYV V0301305N00415011895MN0096565N5+00605+00305999999ADDAU110020015AW1615GA1025+005795999GA2085+011895999GD11991+0057959GD24991+0118959MA1100145095655MW1615REMMET11101/08/24 15:51:02 SPECI KFYV 082151Z 13008KT 6SM -RA FEW019 OVC039 06/03 A2957 RMK AO2 RAE00B10 P0004 FIBI (OO)
0332723445939932024010821537+36010-094168FM-15+0384KFYV V0301305N00365013115MN0096565N5+00615+00285100155ADDAA101001395AU110020015AW1615GA1025+005495999GA2045+010975999GA3085+013115999GD11991+0054959GD22991+0109759GD34991+0131159GE19AGL   +99999+99999GF199999999999005491999999MA1100145095655MW1615REMMET13001/08/24 15:53:02 METAR KFYV 082153Z 13007KT 6SM -RA FEW018 SCT036 OVC043 06/03 A2957 RMK AO2 RAE00B10 SLP015 P0005 T00610028 (OO)
0323723445939932024010822537+36010-094168FM-15+0384KFYV V0301305N00315015245MN0080475N5+00565+00285100095ADDAA101000895AU110020015AW1615GA1025+006715999GA2075+015245999GA3085+019815999GD11991+0067159GD23991+0152459GD34991+0198159GE19AGL   +99999+99999GF199999999999006711999999MA1100105095615MW1615REMMET12101/08/24 16:53:02 METAR KFYV 082253Z 13006KT 5SM -RA FEW022 BKN050 OVC065 06/03 A2956 RMK AO2 SLP009 P0002 T00560028 (OO)
0386723445939932024010823537+36010-094168FM-15+0384KFYV V0300705N00155013725MN0128755N5+00505+00335100075ADDAA101001895AA206009991AU110020015AW1615GA1025+003965999GA2085+013725999GD11991+0039659GD24991+0137259GE19AGL   +99999+99999GF199999999999003961999999KA1060M+00721KA2060N+00501MA1100075095585MD1690109+9999MW1615REMMET14501/08/24 17:53:02 METAR KFYV 082353Z 07003KT 8SM -RA FEW013 OVC045 05/03 A2955 RMK AO2 PRESFR SLP007 P0008 60039 T00500033 10072 20050 56010 (OO)EQDQ01  00998PRCP06
0239723445939932024010900516+36010-094168FM-16+0384KFYV V0300505N00415030485MN0160935N5+00605+00305999999ADDGA1025+002135999GA2045+022865999GA3085+030485999GD11991+0021359GD22991+0228659GD34991+0304859MA1099765095295REMMET11901/08/24 18:51:03 SPECI KFYV 090051Z 05008KT 10SM FEW007 SCT075 OVC100 06/03 A2946 RMK AO2 RAE43 PRESFR P0002 FIBI (OO)
0298723445939932024010900537+36010-094168FM-15+0384KFYV V0300605N00365030485MN0160935N5+00565+00335099765ADDAA101000595GA1025+002135999GA2045+022865999GA3085+030485999GD11991+0021359GD22991+0228659GD34991+0304859GE19AGL   +99999+99999GF199999999999002131999999MA1099765095295REMMET11901/08/24 18:53:01 METAR KFYV 090053Z 06007KT 10SM FEW007 SCT075 OVC100 06/03 A2946 RMK AO2 RAE43 SLP976 P0002 T00560033
0332723445939932024010901537+36010-094168FM-15+0384KFYV V0300605N00365019815MN0160935N5+00675+00335099655ADDAA101000025AU110020015AW1615GA1075+019815999GA2075+022865999GA3085+027435999GD13991+0198159GD23991+0228659GD34991+0274359GE19AGL   +99999+99999GF199999999999019811999999MA1099665095195MW1615REMMET13001/08/24 19:53:01 METAR KFYV 090153Z 06007KT 10SM -RA BKN065 BKN075 OVC090 07/03 A2943 RMK AO2 RAB47 PRESFR SLP965 P0000 T00670033
0296723445939932024010902537+36010-094168FM-15+0384KFYV V0309999V001552200059N0160935N5+00565+00335099825ADDAA101000095AA203000591GA1045+021345999GD12991+0213459GE19AGL   +99999+99999GF104995999999021341999999MA1099805095325MD1590269+9999REMMET11901/08/24 20:53:01 METAR KFYV 090253Z VRB03KT 10SM SCT070 06/03 A2947 RMK AO2 RAE0157 SLP982 P0000 60002 T00560033 55026EQDQ01  00058PRCP03D01      0ADE726
0210723445939932024010903537+36010-094168FM-15+0384KFYV V0301705N00515021345MN0160935N5+00565+00335099665ADDAA101000095GA1075+021345999GD13991+0213459GE19AGL   +99999+99999GF199999999999021341999999MA1099665095195REMMET09301/08/24 21:53:02 METAR KFYV 090353Z 17010KT 10SM BKN070 06/03 A2943 RMK AO2 SLP966 T00560033
0200723445939932024010904537+36010-094168FM-15+0384KFYV V0301805N002652200059N0160935N5+00505+00335099595ADDAA101000025GA1005+999999999GD10991+9999999GF100991999999999999999999MA1099595095135REMMET10501/08/24 22:53:02 METAR KFYV 090453Z 18005KT 10SM CLR 05/03 A2941 RMK AO2 RAB06E19 SLP959 P0000 T00500033
0296723445939932024010905537+36010-094168FM-15+0384KFYV V0309999V002152200059N0160935N5+00445+00225099435ADDAA101000095AA206000591GA1005+999999999GD10991+9999999GF100991999999999999999999KA1060M+00671KA2060N+00391KA3240M+01001KA4240N+00391MA1099425094965MD1890379+9999REMMET12401/08/24 23:53:02 METAR KFYV 090553Z VRB04KT 10SM CLR 04/02 A2936 RMK AO2 SLP943 60002 T00440022 10067 20039 401000039 58037
