0165724116138682024010100154+37137-080678FM-15+064299999V0202501N003110274319N016093199+00461-00101999999ADDGD14991+0274399GE19AGL   +99999+99999GF199999999999027431999999MA1101491999999REMMET075METAR KPSK 010015Z AUTO 25006KT 10SM OVC090 05/M01 A2997 RMK AO2 T00461010=
0165724116138682024010100354+37137-080678FM-15+064299999V0202401N003110274319N016093199+00481-00101999999ADDGD14991+0274399GE19AGL   +99999+99999GF199999999999027431999999MA1101521999999REMMET075METAR KPSK 010035Z AUTO 24006KT 10SM OVC090 05/M01 A2998 RMK AO2 T00481010=
0184724116138682024010100554+37137-080678FM-15+064299999V0202501N002612200059N016093199+00431-00131999999ADDGD12991+0274319GE19AGL   +99999+99999GF104995999999027431999999MA1101521999999REMMET075METAR KPSK 010055Z AUTO 25005KT 10SM SCT090 04/M01 A2998 RMK AO2 T00431013=EQDD01      0ADE726
0184724116138682024010101154+37137-080678FM-15+064299999V0202201N003112200059N016093199+00251-00141999999ADDGD12991+0167619GE19AGL   +99999+99999GF104995999999016761999999MA1101521999999REMMET075METAR KPSK 010115Z AUTO 22006KT 10SM SCT055 03/M01 A2998 RMK AO2 T00251014=EQDD01      0ADE726
0125724116138682024010101354+37137-080678FM-15+064299999V0201901N002612200019N016093199+00381-00131999999ADDGF100991999999999999999999MA1101491999999REMMET072METAR KPSK 010135Z AUTO 19005KT 10SM CLR 04/M01 A2997 RMK AO2 T00381013=
0125724116138682024010101554+37137-080678FM-15+064299999V0201901N002112200019N016093199+00371-00131999999ADDGF100991999999999999999999MA1101491999999REMMET072METAR KPSK 010155Z AUTO 19004KT 10SM CLR 04/M01 A2997 RMK AO2 T00371013=
0125724116138682024010102154+37137-080678FM-15+064299999V0202301N001512200019N016093199+00151-00201999999ADDGF100991999999999999999999MA1101491999999REMMET072METAR KPSK 010215Z AUTO 23003KT 10SM CLR 02/M02 A2997 RMK AO2 T00151020=
0125724116138682024010102354+37137-080678FM-15+064299999V0209999C000012200019N016093199+00171-00171999999ADDGF100991999999999999999999MA1101491999999REMMET072METAR KPSK 010235Z AUTO 00000KT 10SM CLR 02/M02 A2997 RMK AO2 T00171017=
0125724116138682024010102554+37137-080678FM-15+064299999V0209999C000012200019N016093199+00111-00181999999ADDGF100991999999999999999999MA1101491999999REMMET072METAR KPSK 010255Z AUTO 00000KT 10SM CLR 01/M02 A2997 RMK AO2 T00111018=
0125724116138682024010103154+37137-080678FM-15+064299999V0202001N001512200019N016093199+00091-00201999999ADDGF100991999999999999999999MA1101491999999REMMET072METAR KPSK 010315Z AUTO 20003KT 10SM CLR 01/M02 A2997 RMK AO2 T00091020=
0184724116138682024010103354+37137-080678FM-15+064299999V0202101N001512200059N016093199+00181-00171999999ADDGD12991+0213419GE19AGL   +99999+99999GF104995999999021341999999MA1101461999999REMMET075METAR KPSK 010335Z AUTO 21003KT 10SM SCT070 02/M02 A2996 RMK AO2 T00181017=EQDD01      0ADE726
0165724116138682024010103554+37137-080678FM-15+064299999V0202501N001510213419N016093199+00131-00201999999ADDGD13991+0213419GE19AGL   +99999+99999GF199999999999021341999999MA1101461999999REMMET075METAR KPSK 010355Z AUTO 25003KT 10SM BKN070 01/M02 A2996 RMK AO2 T00131020=
0165724116138682024010104154+37137-080678FM-15+064299999V0209999C000010213419N016093199+00061-00241999999ADDGD13991+0213419GE19AGL   +99999+99999GF199999999999021341999999MA1101461999999REMMET075METAR KPSK 010415Z AUTO 00000KT 10SM BKN070 01/M02 A2996 RMK AO2 T00061024=
0165724116138682024010104354+37137-080678FM-15+064299999V0209999C000010213419N016093199-00051-00251999999ADDGD13991+0213419GE19AGL   +99999+99999GF199999999999021341999999MA1101491999999REMMET075METAR KPSK 010435Z AUTO 00000KT 10SM BKN070 00/M02 A2997 RMK AO2 T10051025=
0165724116138682024010104554+37137-080678FM-15+064299999V0209999C000010213419N016093199+00011-00201999999ADDGD13991+0213419GE19AGL   +99999+99999GF199999999999021341999999MA1101461999999REMMET075METAR KPSK 010455Z AUTO 00000KT 10SM BKN070 00/M02 A2996 RMK AO2 T00011020=
0193724116138682024010105157+37133-080683FM-15+0642KPSK V0209999C00005021345MN0160935N5-00045-00225999999ADDGA1075+021345999GD13991+0213459GE19AGL   +99999+99999GF199999999999021341999999MA1101465093975REMMET08701/01/24 00:15:02 METAR KPSK 010515Z 00000KT 10SM BKN070 00/M02 A2996 RMK AO2 T10041022
0212724116138682024010105357+37133-080683FM-15+0642KPSK V0209999C000052200059N0160935N5+00035-00185999999ADDGA1045+021345999GD12991+0213459GE19AGL   +99999+99999GF104995999999021341999999MA1101465093975REMMET08701/01/24 00:35:02 METAR KPSK 010535Z 00000KT 10SM SCT070 00/M02 A2996 RMK AO2 T00031018EQDD01      0ADE726
0242724116138682024010105557+37133-080683FM-15+0642KPSK V0209999C000052200059N0160935N5+00135-00205999999ADDGA1005+999999999GD10991+9999999GF100991999999999999999999KA1060M+00531KA2060N-00051KA3240M+00811KA4240N-00051MA1101425093935REMMET10601/01/24 00:55:02 METAR KPSK 010555Z 00000KT 10SM CLR 01/M02 A2995 RMK AO2 T00131020 10053 21005 400811005
0193724116138682024010106157+37133-080683FM-15+0642KPSK V0209999C00005018295MN0160935N5-00045-00235999999ADDGA1075+018295999GD13991+0182959GE19AGL   +99999+99999GF199999999999018291999999MA1101465093975REMMET08701/01/24 01:15:02 METAR KPSK 010615Z 00000KT 10SM BKN060 00/M02 A2996 RMK AO2 T10041023
0212724116138682024010106357+37133-080683FM-15+0642KPSK V0209999C000052200059N0160935N5+00005-00235999999ADDGA1045+018295999GD12991+0182959GE19AGL   +99999+99999GF104995999999018291999999MA1101465093975REMMET08701/01/24 01:35:02 METAR KPSK 010635Z 00000KT 10SM SCT060 00/M02 A2996 RMK AO2 T00001023EQDD01      0ADE726
0269724116138682024010106557+37133-080683FM-15+0642KPSK V0202205N00215018295MN0160935N5+00055-00165999999ADDGA1045+011585999GA2045+014335999GA3075+018295999GD12991+0115859GD22991+0143359GD33991+0182959GE19AGL   +99999+99999GF199999999999011581999999MA1101465093975REMMET10101/01/24 01:55:02 METAR KPSK 010655Z 22004KT 10SM SCT038 SCT047 BKN060 01/M02 A2996 RMK AO2 T00051016
0269724116138682024010107157+37133-080683FM-15+0642KPSK V0209999C00005018295MN0160935N5+00065-00165999999ADDGA1045+011585999GA2045+013725999GA3075+018295999GD12991+0115859GD22991+0137259GD33991+0182959GE19AGL   +99999+99999GF199999999999011581999999MA1101465093975REMMET10101/01/24 02:15:02 METAR KPSK 010715Z 00000KT 10SM SCT038 SCT045 BKN060 01/M02 A2996 RMK AO2 T00061016
0269724116138682024010107357+37133-080683FM-15+0642KPSK V0209999C00005015245MN0160935N5+00155-00135999999ADDGA1045+012505999GA2075+015245999GA3085+018295999GD12991+0125059GD23991+0152459GD34991+0182959GE19AGL   +99999+99999GF199999999999012501999999MA1101465093975REMMET10101/01/24 02:35:02 METAR KPSK 010735Z 00000KT 10SM SCT041 BKN050 OVC060 02/M01 A2996 RMK AO2 T00151013
0269724116138682024010107557+37133-080683FM-15+0642KPSK V0202605N00155012805MN0160935N5+00105-00105999999ADDGA1045+010675999GA2075+012805999GA3085+015245999GD12991+0106759GD23991+0128059GD34991+0152459GE19AGL   +99999+99999GF199999999999010671999999MA1101495094005REMMET10101/01/24 02:55:02 METAR KPSK 010755Z 26003KT 10SM SCT035 BKN042 OVC050 01/M01 A2997 RMK AO2 T00101010
0268724116138682024010108157+37133-080683FM-15+0642KPSK V0202205N00215012505MN0160935N5+00315-00035999999ADDGA1045+009755999GA2075+012505999GA3085+014635999GD12991+0097559GD23991+0125059GD34991+0146359GE19AGL   +99999+99999GF199999999999009751999999MA1101495094005REMMET10001/01/24 03:15:02 METAR KPSK 010815Z 22004KT 10SM SCT032 BKN041 OVC048 03/00 A2997 RMK AO2 T00311003
0230724116138682024010108357+37133-080683FM-15+0642KPSK V0202405N00215012195MN0160935N5+00325+00005999999ADDGA1075+012195999GA2085+014335999GD13991+0121959GD24991+0143359GE19AGL   +99999+99999GF199999999999012191999999MA1101495094005REMMET09301/01/24 03:35:02 METAR KPSK 010835Z 24004KT 10SM BKN040 OVC047 03/00 A2997 RMK AO2 T00320000
0230724116138682024010108557+37133-080683FM-15+0642KPSK V0202505N00265012195MN0160935N5+00385+00005999999ADDGA1075+012195999GA2085+014335999GD13991+0121959GD24991+0143359GE19AGL   +99999+99999GF199999999999012191999999MA1101495094005REMMET09301/01/24 03:55:02 METAR KPSK 010855Z 25005KT 10SM BKN040 OVC047 04/00 A2997 RMK AO2 T00380000
0268724116138682024010109157+37133-080683FM-15+0642KPSK V0202605N00155011285MN0160935N5+00385+00005999999ADDGA1045+009455999GA2075+011285999GA3085+014635999GD12991+0094559GD23991+0112859GD34991+0146359GE19AGL   +99999+99999GF199999999999009451999999MA1101495094005REMMET10001/01/24 04:15:02 METAR KPSK 010915Z 26003KT 10SM SCT031 BKN037 OVC048 04/00 A2997 RMK AO2 T00380000
0230724116138682024010109357+37133-080683FM-15+0642KPSK V0202705N00415011285MN0160935N5+00425+00005999999ADDGA1045+009145999GA2085+011285999GD12991+0091459GD24991+0112859GE19AGL   +99999+99999GF199999999999009141999999MA1101495094005REMMET09301/01/24 04:35:02 METAR KPSK 010935Z 27008KT 10SM SCT030 OVC037 04/00 A2997 RMK AO2 T00420000
0230724116138682024010109557+37133-080683FM-15+0642KPSK V0202805N00415010065MN0160935N5+00405+00005999999ADDGA1075+010065999GA2085+011895999GD13991+0100659GD24991+0118959GE19AGL   +99999+99999GF199999999999010061999999MA1101495094005REMMET09301/01/24 04:55:02 METAR KPSK 010955Z 28008KT 10SM BKN033 OVC039 04/00 A2997 RMK AO2 T00400000
0268724116138682024010110157+37133-080683FM-15+0642KPSK V0203105N00575008845MN0160935N5+00355-00015999999ADDGA1075+008845999GA2075+010975999GA3085+012505999GD13991+0088459GD23991+0109759GD34991+0125059GE19AGL   +99999+99999GF199999999999008841999999MA1101525094035REMMET10001/01/24 05:15:02 METAR KPSK 011015Z 31011KT 10SM BKN029 BKN036 OVC041 04/00 A2998 RMK AO2 T00351001
0268724116138682024010110357+37133-080683FM-15+0642KPSK V0202905N00465010975MN0160935N5+00305-00025999999ADDGA1045+008235999GA2075+010975999GA3085+014945999GD12991+0082359GD23991+0109759GD34991+0149459GE19AGL   +99999+99999GF199999999999008231999999MA1101525094035REMMET10001/01/24 05:35:02 METAR KPSK 011035Z 29009KT 10SM SCT027 BKN036 OVC049 03/00 A2998 RMK AO2 T00301002
0268724116138682024010110557+37133-080683FM-15+0642KPSK V0202905N00625011895MN0160935N5+00285-00045999999ADDGA1045+006105999GA2075+011895999GA3085+014335999GD12991+0061059GD23991+0118959GD34991+0143359GE19AGL   +99999+99999GF199999999999006101999999MA1101525094035REMMET10001/01/24 05:55:02 METAR KPSK 011055Z 29012KT 10SM SCT020 BKN039 OVC047 03/00 A2998 RMK AO2 T00281004
0280724116138682024010111157+37133-080683FM-15+0642KPSK V0202805N00675010365MN0160935N5+00275-00065999999ADDGA1045+008235999GA2075+010365999GA3085+013115999GD12991+0082359GD23991+0103659GD34991+0131159GE19AGL   +99999+99999GF199999999999008231999999MA1101565094065OC100825REMMET10401/01/24 06:15:02 METAR KPSK 011115Z 28013G16KT 10SM SCT027 BKN034 OVC043 03/M01 A2999 RMK AO2 T00271006
0269724116138682024010111357+37133-080683FM-15+0642KPSK V0203105N00575008235MN0160935N5+00245-00105999999ADDGA1045+006715999GA2075+008235999GA3085+010065999GD12991+0067159GD23991+0082359GD34991+0100659GE19AGL   +99999+99999GF199999999999006711999999MA1101595094095REMMET10101/01/24 06:35:02 METAR KPSK 011135Z 31011KT 10SM SCT022 BKN027 OVC033 02/M01 A3000 RMK AO2 T00241010
0269724116138682024010111557+37133-080683FM-15+0642KPSK V0203105N00725006715MN0160935N5+00175-00165999999ADDGA1075+006715999GA2085+008235999GD13991+0067159GD24991+0082359GE19AGL   +99999+99999GF199999999999006711999999KA1060M+00421KA2060N-00041MA1101635094125REMMET10601/01/24 06:55:02 METAR KPSK 011155Z 31014KT 10SM BKN022 OVC027 02/M02 A3001 RMK AO2 T00171016 10042 21004
0204724116138682024010112157+37133-080683FM-15+0642KPSK V0203205N00885006715MN0160935N5+00135-00205999999ADDGA1085+006715999GD14991+0067159GE19AGL   +99999+99999GF199999999999006711999999MA1101665094165OC101135REMMET09001/01/24 07:15:02 METAR KPSK 011215Z 32017G22KT 10SM OVC022 01/M02 A3002 RMK AO2 T00131020
0204724116138682024010112357+37133-080683FM-15+0642KPSK V0203105N00575006715MN0160935N5+00065-00275999999ADDGA1085+006715999GD14991+0067159GE19AGL   +99999+99999GF199999999999006711999999MA1101695094195OC100935REMMET09001/01/24 07:35:02 METAR KPSK 011235Z 31011G18KT 10SM OVC022 01/M03 A3003 RMK AO2 T00061027
0204724116138682024010112557+37133-080683FM-15+0642KPSK V0203005N00575006715MN0160935N5+00005-00415999999ADDGA1085+006715999GD14991+0067159GE19AGL   +99999+99999GF199999999999006711999999MA1101765094255OC101085REMMET09001/01/24 07:55:02 METAR KPSK 011255Z 30011G21KT 10SM OVC022 00/M04 A3005 RMK AO2 T00001041
0204724116138682024010113157+37133-080683FM-15+0642KPSK V0202905N00675007325MN0160935N5-00025-00495999999ADDGA1085+007325999GD14991+0073259GE19AGL   +99999+99999GF199999999999007321999999MA1101795094285OC100935REMMET09001/01/24 08:15:02 METAR KPSK 011315Z 29013G18KT 10SM OVC024 00/M05 A3006 RMK AO2 T10021049
0242724116138682024010113357+37133-080683FM-15+0642KPSK V0203205N00825008535MN0160935N5-00055-00575999999ADDGA1075+008535999GA2085+010975999GD13991+0085359GD24991+0109759GE19AGL   +99999+99999GF199999999999008531999999MA1101835094325OC101035REMMET09701/01/24 08:35:02 METAR KPSK 011335Z 32016G20KT 10SM BKN028 OVC036 00/M06 A3007 RMK AO2 T10051057
0243724116138682024010113557+37133-080683FM-15+0642KPSK V0203005N00725008535MN0160935N5-00065-00605999999ADDGA1075+008535999GA2085+011585999GD13991+0085359GD24991+0115859GE19AGL   +99999+99999GF199999999999008531999999MA1101835094325OC100935REMMET09801/01/24 08:55:02 METAR KPSK 011355Z 30014G18KT 10SM BKN028 OVC038 M01/M06 A3007 RMK AO2 T10061060
0261724116138682024010114157+37133-080683FM-15+0642KPSK V0203005N007252200059N0160935N5-00015-00635999999ADDGA1045+008535999GA2045+010365999GD12991+0085359GD22991+0103659GE19AGL   +99999+99999GF104995999999008531999999MA1101865094355OC100985REMMET09701/01/24 09:15:02 METAR KPSK 011415Z 30014G19KT 10SM SCT028 SCT034 00/M06 A3008 RMK AO2 T10011063EQDD01      0ADE726
0204724116138682024010114357+37133-080683FM-15+0642KPSK V0203005N00625009455MN0160935N5+00005-00615999999ADDGA1075+009455999GD13991+0094559GE19AGL   +99999+99999GF199999999999009451999999MA1101865094355OC100985REMMET09001/01/24 09:35:02 METAR KPSK 011435Z 30012G19KT 10SM BKN031 00/M06 A3008 RMK AO2 T00001061
0204724116138682024010114557+37133-080683FM-15+0642KPSK V0203205N00625009455MN0160935N5-00055-00655999999ADDGA1085+009455999GD14991+0094559GE19AGL   +99999+99999GF199999999999009451999999MA1101905094385OC100985REMMET09001/01/24 09:55:02 METAR KPSK 011455Z 32012G19KT 10SM OVC031 00/M06 A3009 RMK AO2 T10051065
0204724116138682024010115157+37133-080683FM-15+0642KPSK V0203105N00515009455MN0160935N5-00055-00665999999ADDGA1085+009455999GD14991+0094559GE19AGL   +99999+99999GF199999999999009451999999MA1101935094415OC100775REMMET09001/01/24 10:15:02 METAR KPSK 011515Z 31010G15KT 10SM OVC031 00/M07 A3010 RMK AO2 T10051066
0204724116138682024010115357+37133-080683FM-15+0642KPSK V0203005N00575009455MN0160935N5-00055-00665999999ADDGA1085+009455999GD14991+0094559GE19AGL   +99999+99999GF199999999999009451999999MA1101965094445OC100885REMMET09001/01/24 10:35:02 METAR KPSK 011535Z 30011G17KT 10SM OVC031 00/M07 A3011 RMK AO2 T10051066
0204724116138682024010115557+37133-080683FM-15+0642KPSK V0203005N00775009455MN0160935N5-00015-00675999999ADDGA1085+009455999GD14991+0094559GE19AGL   +99999+99999GF199999999999009451999999MA1101935094415OC101085REMMET09001/01/24 10:55:02 METAR KPSK 011555Z 30015G21KT 10SM OVC031 00/M07 A3010 RMK AO2 T10011067
0204724116138682024010116157+37133-080683FM-15+0642KPSK V0203005N00675010065MN0160935N5-00055-00715999999ADDGA1075+010065999GD13991+0100659GE19AGL   +99999+99999GF199999999999010061999999MA1101935094415OC100985REMMET09001/01/24 11:15:02 METAR KPSK 011615Z 30013G19KT 10SM BKN033 00/M07 A3010 RMK AO2 T10051071
0223724116138682024010116357+37133-080683FM-15+0642KPSK V0203005N006252200059N0160935N5+00075-00685999999ADDGA1045+010975999GD12991+0109759GE19AGL   +99999+99999GF104995999999010971999999MA1101865094355OC100825REMMET09001/01/24 11:35:02 METAR KPSK 011635Z 30012G16KT 10SM SCT036 01/M07 A3008 RMK AO2 T00071068EQDD01      0ADE726
0204724116138682024010116557+37133-080683FM-15+0642KPSK V0203105N00675010975MN0160935N5+00135-00625999999ADDGA1075+010975999GD13991+0109759GE19AGL   +99999+99999GF199999999999010971999999MA1101835094325OC100935REMMET09001/01/24 11:55:02 METAR KPSK 011655Z 31013G18KT 10SM BKN036 01/M06 A3007 RMK AO2 T00131062
0242724116138682024010117157+37133-080683FM-15+0642KPSK V0203105N00365010975MN0160935N5+00125-00665999999ADDGA1075+010975999GA2085+013725999GD13991+0109759GD24991+0137259GE19AGL   +99999+99999GF199999999999010971999999MA1101835094325OC100825REMMET09701/01/24 12:15:02 METAR KPSK 011715Z 31007G16KT 10SM BKN036 OVC045 01/M07 A3007 RMK AO2 T00121066
0242724116138682024010117357+37133-080683FM-15+0642KPSK V0203105N00825010975MN0160935N5+00115-00645999999ADDGA1075+010975999GA2085+013415999GD13991+0109759GD24991+0134159GE19AGL   +99999+99999GF199999999999010971999999MA1101795094285OC101085REMMET09701/01/24 12:35:02 METAR KPSK 011735Z 31016G21KT 10SM BKN036 OVC044 01/M06 A3006 RMK AO2 T00111064
0242724116138682024010117557+37133-080683FM-15+0642KPSK V0203205N00415011895MN0160935N5+00105-00655999999ADDGA1075+011895999GD13991+0118959GE19AGL   +99999+99999GF199999999999011891999999KA1060M+00171KA2060N-00061MA1101765094255OC100775REMMET10201/01/24 12:55:02 METAR KPSK 011755Z 32008G15KT 10SM BKN039 01/M06 A3005 RMK AO2 T00101065 10017 21006
0193724116138682024010118157+37133-080683FM-15+0642KPSK V0203205N00365011895MN0160935N5+00115-00635999999ADDGA1075+011895999GD13991+0118959GE19AGL   +99999+99999GF199999999999011891999999MA1101765094255REMMET08701/01/24 13:15:02 METAR KPSK 011815Z 32007KT 10SM BKN039 01/M06 A3005 RMK AO2 T00111063
0204724116138682024010118357+37133-080683FM-15+0642KPSK V0203205N00465011895MN0160935N5+00145-00625999999ADDGA1075+011895999GD13991+0118959GE19AGL   +99999+99999GF199999999999011891999999MA1101735094225OC100825REMMET09001/01/24 13:35:02 METAR KPSK 011835Z 32009G16KT 10SM BKN039 01/M06 A3004 RMK AO2 T00141062
0223724116138682024010118557+37133-080683FM-15+0642KPSK V0203305N006252200059N0160935N5+00195-00595999999ADDGA1045+011285999GD12991+0112859GE19AGL   +99999+99999GF104995999999011281999999MA1101735094225OC100775REMMET09001/01/24 13:55:02 METAR KPSK 011855Z 33012G15KT 10SM SCT037 02/M06 A3004 RMK AO2 T00191059EQDD01      0ADE726
0179724116138682024010119157+37133-080683FM-15+0642KPSK V0203405N006752200059N0160935N5+00255-00565999999ADDGA1005+999999999GD10991+9999999GF100991999999999999999999MA1101765094255OC101035REMMET08701/01/24 14:15:02 METAR KPSK 011915Z 34013G20KT 10SM CLR 03/M06 A3005 RMK AO2 T00251056
0212724116138682024010119357+37133-080683FM-15+0642KPSK V0203305N005752200059N0160935N5+00215-00565999999ADDGA1045+010365999GD12991+0103659GE19AGL   +99999+99999GF104995999999010361999999MA1101765094255REMMET08701/01/24 14:35:02 METAR KPSK 011935Z 33011KT 10SM SCT034 02/M06 A3005 RMK AO2 T00211056EQDD01      0ADE726
0250724116138682024010119557+37133-080683FM-15+0642KPSK V0203105V006752200059N0160935N5+00225-00515999999ADDGA1045+010365999GA2045+024385999GD12991+0103659GD22991+0243859GE19AGL   +99999+99999GF104995999999010361999999MA1101795094285REMMET09401/01/24 14:55:02 METAR KPSK 011955Z 31013KT 10SM SCT034 SCT080 02/M05 A3006 RMK AO2 T00221051EQDD01      0ADE726
0242724116138682024010120157+37133-080683FM-15+0642KPSK V0203105N00725010365MN0160935N5+00215-00515999999ADDGA1075+010365999GA2075+024385999GD13991+0103659GD23991+0243859GE19AGL   +99999+99999GF199999999999010361999999MA1101795094285OC100985REMMET09701/01/24 15:15:02 METAR KPSK 012015Z 31014G19KT 10SM BKN034 BKN080 02/M05 A3006 RMK AO2 T00211051
0204724116138682024010120357+37133-080683FM-15+0642KPSK V0203205N00575009755MN0160935N5+00225-00495999999ADDGA1085+009755999GD14991+0097559GE19AGL   +99999+99999GF199999999999009751999999MA1101835094325OC100985REMMET09001/01/24 15:35:02 METAR KPSK 012035Z 32011G19KT 10SM OVC032 02/M05 A3007 RMK AO2 T00221049
0204724116138682024010120557+37133-080683FM-15+0642KPSK V0203205V00415009755MN0160935N5+00135-00495999999ADDGA1085+009755999GD14991+0097559GE19AGL   +99999+99999GF199999999999009751999999MA1101865094355OC100885REMMET09001/01/24 15:55:02 METAR KPSK 012055Z 32008G17KT 10SM OVC032 01/M05 A3008 RMK AO2 T00131049
0204724116138682024010121157+37133-080683FM-15+0642KPSK V0203305N00575008535MN0160935N5+00075-00475999999ADDGA1085+008535999GD14991+0085359GE19AGL   +99999+99999GF199999999999008531999999MA1101905094385OC100725REMMET09001/01/24 16:15:02 METAR KPSK 012115Z 33011G14KT 10SM OVC028 01/M05 A3009 RMK AO2 T00071047
0204724116138682024010121357+37133-080683FM-15+0642KPSK V0203305N00575008535MN0160935N5+00065-00455999999ADDGA1085+008535999GD14991+0085359GE19AGL   +99999+99999GF199999999999008531999999MA1101935094415OC100885REMMET09001/01/24 16:35:02 METAR KPSK 012135Z 33011G17KT 10SM OVC028 01/M04 A3010 RMK AO2 T00061045
0193724116138682024010121557+37133-080683FM-15+0642KPSK V0203305V00365007925MN0160935N5+00045-00455999999ADDGA1085+007925999GD14991+0079259GE19AGL   +99999+99999GF199999999999007921999999MA1101965094445REMMET08701/01/24 16:55:02 METAR KPSK 012155Z 33007KT 10SM OVC026 00/M04 A3011 RMK AO2 T00041045
0193724116138682024010122157+37133-080683FM-15+0642KPSK V0203405N00315007325MN0160935N5+00015-00425999999ADDGA1085+007325999GD14991+0073259GE19AGL   +99999+99999GF199999999999007321999999MA1101965094445REMMET08701/01/24 17:15:02 METAR KPSK 012215Z 34006KT 10SM OVC024 00/M04 A3011 RMK AO2 T00011042
0204724116138682024010122357+37133-080683FM-15+0642KPSK V0203205N00575006715MN0160935N5+00005-00405999999ADDGA1085+006715999GD14991+0067159GE19AGL   +99999+99999GF199999999999006711999999MA1102005094475OC100825REMMET09001/01/24 17:35:02 METAR KPSK 012235Z 32011G16KT 10SM OVC022 00/M04 A3012 RMK AO2 T00001040
0204724116138682024010122557+37133-080683FM-15+0642KPSK V0203205N00415006715MN0160935N5+00005-00405999999ADDGA1085+006715999GD14991+0067159GE19AGL   +99999+99999GF199999999999006711999999MA1102005094475OC100725REMMET09001/01/24 17:55:02 METAR KPSK 012255Z 32008G14KT 10SM OVC022 00/M04 A3012 RMK AO2 T00001040
0204724116138682024010123157+37133-080683FM-15+0642KPSK V0203305N00575006105MN0160935N5+00005-00365999999ADDGA1085+006105999GD14991+0061059GE19AGL   +99999+99999GF199999999999006101999999MA1102035094515OC100775REMMET09001/01/24 18:15:02 METAR KPSK 012315Z 33011G15KT 10SM OVC020 00/M04 A3013 RMK AO2 T00001036
0204724116138682024010123357+37133-080683FM-15+0642KPSK V0203105N00625006105MN0160935N5+00005-00365999999ADDGA1085+006105999GD14991+0061059GE19AGL   +99999+99999GF199999999999006101999999MA1102035094515OC100885REMMET09001/01/24 18:35:02 METAR KPSK 012335Z 31012G17KT 10SM OVC020 00/M04 A3013 RMK AO2 T00001036
0242724116138682024010123557+37133-080683FM-15+0642KPSK V0203205N00365005495MN0160935N5-00015-00355999999ADDGA1085+005495999GD14991+0054959GE19AGL   +99999+99999GF199999999999005491999999KA1060M+00251KA2060N-00011MA1102075094545OC101085REMMET10201/01/24 18:55:02 METAR KPSK 012355Z 32007G21KT 10SM OVC018 00/M03 A3014 RMK AO2 T10011035 10025 21001
0193724116138682024010200157+37133-080683FM-15+0642KPSK V0203205N00465005495MN0160935N5-00015-00335999999ADDGA1085+005495999GD14991+0054959GE19AGL   +99999+99999GF199999999999005491999999MA1102105094575REMMET08701/01/24 19:15:01 METAR KPSK 020015Z 32009KT 10SM OVC018 00/M03 A3015 RMK AO2 T10011033
0193724116138682024010200357+37133-080683FM-15+0642KPSK V0203005N00415005495MN0160935N5-00025-00335999999ADDGA1085+005495999GD14991+0054959GE19AGL   +99999+99999GF199999999999005491999999MA1102105094575REMMET08701/01/24 19:35:01 METAR KPSK 020035Z 30008KT 10SM OVC018 00/M03 A3015 RMK AO2 T10021033
0193724116138682024010200557+37133-080683FM-15+0642KPSK V0203005N00465005495MN0160935N5-00025-00325999999ADDGA1085+005495999GD14991+0054959GE19AGL   +99999+99999GF199999999999005491999999MA1102135094605REMMET08701/01/24 19:55:01 METAR KPSK 020055Z 30009KT 10SM OVC018 00/M03 A3016 RMK AO2 T10021032
0204724116138682024010201157+37133-080683FM-15+0642KPSK V0202805N00465005495MN0160935N5-00025-00345999999ADDGA1085+005495999GD14991+0054959GE19AGL   +99999+99999GF199999999999005491999999MA1102135094605OC100775REMMET09001/01/24 20:15:01 METAR KPSK 020115Z 28009G15KT 10SM OVC018 00/M03 A3016 RMK AO2 T10021034
0193724116138682024010201357+37133-080683FM-15+0642KPSK V0202805N00365006105MN0160935N5-00025-00355999999ADDGA1085+006105999GD14991+0061059GE19AGL   +99999+99999GF199999999999006101999999MA1102135094605REMMET08701/01/24 20:35:01 METAR KPSK 020135Z 28007KT 10SM OVC020 00/M03 A3016 RMK AO2 T10021035
0193724116138682024010201557+37133-080683FM-15+0642KPSK V0202705N00265006715MN0160935N5-00015-00365999999ADDGA1085+006715999GD14991+0067159GE19AGL   +99999+99999GF199999999999006711999999MA1102135094605REMMET08701/01/24 20:55:01 METAR KPSK 020155Z 27005KT 10SM OVC022 00/M04 A3016 RMK AO2 T10011036
0193724116138682024010202157+37133-080683FM-15+0642KPSK V0202905N00265007325MN0160935N5+00005-00395999999ADDGA1085+007325999GD14991+0073259GE19AGL   +99999+99999GF199999999999007321999999MA1102135094605REMMET08701/01/24 21:15:01 METAR KPSK 020215Z 29005KT 10SM OVC024 00/M04 A3016 RMK AO2 T00001039
0193724116138682024010202357+37133-080683FM-15+0642KPSK V0202905N00265007325MN0160935N5+00005-00405999999ADDGA1085+007325999GD14991+0073259GE19AGL   +99999+99999GF199999999999007321999999MA1102135094605REMMET08701/01/24 21:35:01 METAR KPSK 020235Z 29005KT 10SM OVC024 00/M04 A3016 RMK AO2 T00001040
0193724116138682024010202557+37133-080683FM-15+0642KPSK V0202905N00315007325MN0160935N5+00005-00405999999ADDGA1085+007325999GD14991+0073259GE19AGL   +99999+99999GF199999999999007321999999MA1102135094605REMMET08701/01/24 21:55:01 METAR KPSK 020255Z 29006KT 10SM OVC024 00/M04 A3016 RMK AO2 T00001040
0193724116138682024010203157+37133-080683FM-15+0642KPSK V0203105N00365006715MN0160935N5+00005-00365999999ADDGA1085+006715999GD14991+0067159GE19AGL   +99999+99999GF199999999999006711999999MA1102175094635REMMET08701/01/24 22:15:01 METAR KPSK 020315Z 31007KT 10SM OVC022 00/M04 A3017 RMK AO2 T00001036
0193724116138682024010203357+37133-080683FM-15+0642KPSK V0203005N00365006105MN0160935N5+00005-00355999999ADDGA1085+006105999GD14991+0061059GE19AGL   +99999+99999GF199999999999006101999999MA1102175094635REMMET08701/01/24 22:35:01 METAR KPSK 020335Z 30007KT 10SM OVC020 00/M03 A3017 RMK AO2 T00001035
0193724116138682024010203557+37133-080683FM-15+0642KPSK V0202805V00315006105MN0160935N5+00005-00355999999ADDGA1085+006105999GD14991+0061059GE19AGL   +99999+99999GF199999999999006101999999MA1102175094635REMMET08701/01/24 22:55:01 METAR KPSK 020355Z 28006KT 10SM OVC020 00/M03 A3017 RMK AO2 T00001035
0193724116138682024010204157+37133-080683FM-15+0642KPSK V0202905N00365006105MN0160935N5+00005-00345999999ADDGA1085+006105999GD14991+0061059GE19AGL   +99999+99999GF199999999999006101999999MA1102175094635REMMET08701/01/24 23:15:02 METAR KPSK 020415Z 29007KT 10SM OVC020 00/M03 A3017 RMK AO2 T00001034
0193724116138682024010204357+37133-080683FM-15+0642KPSK V0203105N00465006105MN0160935N5+00005-00335999999ADDGA1085+006105999GD14991+0061059GE19AGL   +99999+99999GF199999999999006101999999MA1102175094635REMMET08701/01/24 23:35:02 METAR KPSK 020435Z 31009KT 10SM OVC020 00/M03 A3017 RMK AO2 T00001033
0242724116138682024010204557+37133-080683FM-15+0642KPSK V0203005N00465006105MN0160935N5+00005-00345999999ADDGA1075+006105999GA2085+007625999GD13991+0061059GD24991+0076259GE19AGL   +99999+99999GF199999999999006101999999MA1102175094635OC100825REMMET09701/01/24 23:55:02 METAR KPSK 020455Z 30009G16KT 10SM BKN020 OVC025 00/M03 A3017 RMK AO2 T00001034
0231724116138682024010205157+37133-080683FM-15+0642KPSK V0203005N00365006715MN0160935N5+00005-00325999999ADDGA1075+006715999GA2085+009145999GD13991+0067159GD24991+0091459GE19AGL   +99999+99999GF199999999999006711999999MA1102175094635REMMET09401/02/24 00:15:02 METAR KPSK 020515Z 30007KT 10SM BKN022 OVC030 00/M03 A3017 RMK AO2 T00001032
0231724116138682024010205357+37133-080683FM-15+0642KPSK V0203105N00365007015MN0160935N5+00005-00355999999ADDGA1075+007015999GA2085+009755999GD13991+0070159GD24991+0097559GE19AGL   +99999+99999GF199999999999007011999999MA1102135094605REMMET09401/02/24 00:35:02 METAR KPSK 020535Z 31007KT 10SM BKN023 OVC032 00/M03 A3016 RMK AO2 T00001035
0305724116138682024010205557+37133-080683FM-15+0642KPSK V0203205N00215007625MN0160935N5+00005-00375999999ADDGA1075+007625999GA2085+010675999GD13991+0076259GD24991+0106759GE19AGL   +99999+99999GF199999999999007621999999KA1060M+00001KA2060N-00021KA3240M+00421KA4240N-00061MA1102105094575REMMET11601/02/24 00:55:02 METAR KPSK 020555Z 32004KT 10SM BKN025 OVC035 00/M04 A3015 RMK AO2 T00001037 10000 21002 400421006
0269724116138682024010206157+37133-080683FM-15+0642KPSK V0203205N00365010365MN0160935N5+00005-00405999999ADDGA1045+007015999GA2075+010365999GA3085+012195999GD12991+0070159GD23991+0103659GD34991+0121959GE19AGL   +99999+99999GF199999999999007011999999MA1102105094575REMMET10101/02/24 01:15:02 METAR KPSK 020615Z 32007KT 10SM SCT023 BKN034 OVC040 00/M04 A3015 RMK AO2 T00001040
0193724116138682024010206357+37133-080683FM-15+0642KPSK V0203205N00365008845MN0160935N5+00015-00405999999ADDGA1085+008845999GD14991+0088459GE19AGL   +99999+99999GF199999999999008841999999MA1102105094575REMMET08701/02/24 01:35:02 METAR KPSK 020635Z 32007KT 10SM OVC029 00/M04 A3015 RMK AO2 T00011040
0231724116138682024010206557+37133-080683FM-15+0642KPSK V0203305N00315008235MN0160935N5+00055-00405999999ADDGA1075+008235999GA2085+010365999GD13991+0082359GD24991+0103659GE19AGL   +99999+99999GF199999999999008231999999MA1102105094575REMMET09401/02/24 01:55:02 METAR KPSK 020655Z 33006KT 10SM BKN027 OVC034 01/M04 A3015 RMK AO2 T00051040
0204724116138682024010207157+37133-080683FM-15+0642KPSK V0203405N00465008235MN0160935N5+00055-00425999999ADDGA1085+008235999GD14991+0082359GE19AGL   +99999+99999GF199999999999008231999999MA1102105094575OC100935REMMET09001/02/24 02:15:02 METAR KPSK 020715Z 34009G18KT 10SM OVC027 01/M04 A3015 RMK AO2 T00051042
0193724116138682024010207357+37133-080683FM-15+0642KPSK V0203305N00265007625MN0160935N5+00035-00385999999ADDGA1085+007625999GD14991+0076259GE19AGL   +99999+99999GF199999999999007621999999MA1102105094575REMMET08701/02/24 02:35:02 METAR KPSK 020735Z 33005KT 10SM OVC025 00/M04 A3015 RMK AO2 T00031038
0204724116138682024010207557+37133-080683FM-15+0642KPSK V0203305N00515008235MN0160935N5+00055-00405999999ADDGA1085+008235999GD14991+0082359GE19AGL   +99999+99999GF199999999999008231999999MA1102135094605OC101185REMMET09001/02/24 02:55:02 METAR KPSK 020755Z 33010G23KT 10SM OVC027 01/M04 A3016 RMK AO2 T00051040
0204724116138682024010208157+37133-080683FM-15+0642KPSK V0203105N00515008845MN0160935N5+00055-00475999999ADDGA1085+008845999GD14991+0088459GE19AGL   +99999+99999GF199999999999008841999999MA1102105094575OC100885REMMET09001/02/24 03:15:02 METAR KPSK 020815Z 31010G17KT 10SM OVC029 01/M05 A3015 RMK AO2 T00051047
0204724116138682024010208357+37133-080683FM-15+0642KPSK V0203205N00725008845MN0160935N5+00055-00455999999ADDGA1085+008845999GD14991+0088459GE19AGL   +99999+99999GF199999999999008841999999MA1102105094575OC101185REMMET09001/02/24 03:35:02 METAR KPSK 020835Z 32014G23KT 10SM OVC029 01/M04 A3015 RMK AO2 T00051045
0204724116138682024010208557+37133-080683FM-15+0642KPSK V0203105N00625008235MN0160935N5+00055-00455999999ADDGA1085+008235999GD14991+0082359GE19AGL   +99999+99999GF199999999999008231999999MA1102105094575OC100825REMMET09001/02/24 03:55:02 METAR KPSK 020855Z 31012G16KT 10SM OVC027 01/M04 A3015 RMK AO2 T00051045
0204724116138682024010209157+37133-080683FM-15+0642KPSK V0203105N00365008235MN0160935N5+00055-00455999999ADDGA1085+008235999GD14991+0082359GE19AGL   +99999+99999GF199999999999008231999999MA1102105094575OC100885REMMET09001/02/24 04:15:02 METAR KPSK 020915Z 31007G17KT 10SM OVC027 01/M04 A3015 RMK AO2 T00051045
0204724116138682024010209357+37133-080683FM-15+0642KPSK V0203105N00465008235MN0160935N5+00035-00455999999ADDGA1085+008235999GD14991+0082359GE19AGL   +99999+99999GF199999999999008231999999MA1102105094575OC101185REMMET09001/02/24 04:35:02 METAR KPSK 020935Z 31009G23KT 10SM OVC027 00/M04 A3015 RMK AO2 T00031045
0204724116138682024010209557+37133-080683FM-15+0642KPSK V0203105N00515008235MN0160935N5+00035-00455999999ADDGA1085+008235999GD14991+0082359GE19AGL   +99999+99999GF199999999999008231999999MA1102105094575OC100935REMMET09001/02/24 04:55:02 METAR KPSK 020955Z 31010G18KT 10SM OVC027 00/M04 A3015 RMK AO2 T00031045
0193724116138682024010210157+37133-080683FM-15+0642KPSK V0203105N00215008235MN0160935N5+00035-00425999999ADDGA1085+008235999GD14991+0082359GE19AGL   +99999+99999GF199999999999008231999999MA1102135094605REMMET08701/02/24 05:15:02 METAR KPSK 021015Z 31004KT 10SM OVC027 00/M04 A3016 RMK AO2 T00031042
0204724116138682024010210357+37133-080683FM-15+0642KPSK V0203205N00415007625MN0160935N5+00055-00405999999ADDGA1085+007625999GD14991+0076259GE19AGL   +99999+99999GF199999999999007621999999MA1102135094605OC100825REMMET09001/02/24 05:35:02 METAR KPSK 021035Z 32008G16KT 10SM OVC025 01/M04 A3016 RMK AO2 T00051040
0204724116138682024010210557+37133-080683FM-15+0642KPSK V0203005N00465007625MN0160935N5+00055-00415999999ADDGA1085+007625999GD14991+0076259GE19AGL   +99999+99999GF199999999999007621999999MA1102175094635OC100825REMMET09001/02/24 05:55:02 METAR KPSK 021055Z 30009G16KT 10SM OVC025 01/M04 A3017 RMK AO2 T00051041
0204724116138682024010211157+37133-080683FM-15+0642KPSK V0203205N00515008235MN0160935N5+00055-00415999999ADDGA1085+008235999GD14991+0082359GE19AGL   +99999+99999GF199999999999008231999999MA1102175094635OC100775REMMET09001/02/24 06:15:02 METAR KPSK 021115Z 32010G15KT 10SM OVC027 01/M04 A3017 RMK AO2 T00051041
0193724116138682024010211357+37133-080683FM-15+0642KPSK V0203305N00315007625MN0160935N5+00055-00405999999ADDGA1085+007625999GD14991+0076259GE19AGL   +99999+99999GF199999999999007621999999MA1102205094675REMMET08701/02/24 06:35:02 METAR KPSK 021135Z 33006KT 10SM OVC025 01/M04 A3018 RMK AO2 T00051040
0242724116138682024010211557+37133-080683FM-15+0642KPSK V0203305N00465007015MN0160935N5+00025-00365999999ADDGA1085+007015999GD14991+0070159GE19AGL   +99999+99999GF199999999999007011999999KA1060M+00061KA2060N+00001MA1102205094675OC100935REMMET10201/02/24 06:55:02 METAR KPSK 021155Z 33009G18KT 10SM OVC023 00/M04 A3018 RMK AO2 T00021036 10006 20000
0193724116138682024010212157+37133-080683FM-15+0642KPSK V0203205N00365007015MN0160935N5+00015-00385999999ADDGA1085+007015999GD14991+0070159GE19AGL   +99999+99999GF199999999999007011999999MA1102205094675REMMET08701/02/24 07:15:02 METAR KPSK 021215Z 32007KT 10SM OVC023 00/M04 A3018 RMK AO2 T00011038
0193724116138682024010212357+37133-080683FM-15+0642KPSK V0203105N00465007015MN0160935N5+00005-00365999999ADDGA1085+007015999GD14991+0070159GE19AGL   +99999+99999GF199999999999007011999999MA1102245094705REMMET08701/02/24 07:35:02 METAR KPSK 021235Z 31009KT 10SM OVC023 00/M04 A3019 RMK AO2 T00001036
0204724116138682024010212557+37133-080683FM-15+0642KPSK V0203005N00315007015MN0160935N5+00005-00415999999ADDGA1085+007015999GD14991+0070159GE19AGL   +99999+99999GF199999999999007011999999MA1102245094705OC100775REMMET09001/02/24 07:55:02 METAR KPSK 021255Z 30006G15KT 10SM OVC023 00/M04 A3019 RMK AO2 T00001041
0193724116138682024010213157+37133-080683FM-15+0642KPSK V0202905N00515007015MN0160935N5+00005-00415999999ADDGA1085+007015999GD14991+0070159GE19AGL   +99999+99999GF199999999999007011999999MA1102275094735REMMET08701/02/24 08:15:02 METAR KPSK 021315Z 29010KT 10SM OVC023 00/M04 A3020 RMK AO2 T00001041
0204724116138682024010213357+37133-080683FM-15+0642KPSK V0203005N00415007015MN0160935N5+00005-00435999999ADDGA1085+007015999GD14991+0070159GE19AGL   +99999+99999GF199999999999007011999999MA1102275094735OC100825REMMET09001/02/24 08:35:02 METAR KPSK 021335Z 30008G16KT 10SM OVC023 00/M04 A3020 RMK AO2 T00001043
0204724116138682024010213557+37133-080683FM-15+0642KPSK V0203105N00515007015MN0160935N5+00015-00435999999ADDGA1085+007015999GD14991+0070159GE19AGL   +99999+99999GF199999999999007011999999MA1102305094765OC100775REMMET09001/02/24 08:55:02 METAR KPSK 021355Z 31010G15KT 10SM OVC023 00/M04 A3021 RMK AO2 T00011043
0204724116138682024010214157+37133-080683FM-15+0642KPSK V0203005N00625007015MN0160935N5+00015-00425999999ADDGA1085+007015999GD14991+0070159GE19AGL   +99999+99999GF199999999999007011999999MA1102305094765OC100775REMMET09001/02/24 09:15:02 METAR KPSK 021415Z 30012G15KT 10SM OVC023 00/M04 A3021 RMK AO2 T00011042
0204724116138682024010214357+37133-080683FM-15+0642KPSK V0202905N00625007625MN0160935N5+00015-00435999999ADDGA1085+007625999GD14991+0076259GE19AGL   +99999+99999GF199999999999007621999999MA1102345094795OC100985REMMET09001/02/24 09:35:02 METAR KPSK 021435Z 29012G19KT 10SM OVC025 00/M04 A3022 RMK AO2 T00011043
0204724116138682024010214557+37133-080683FM-15+0642KPSK V0203005N00725007625MN0160935N5+00025-00445999999ADDGA1085+007625999GD14991+0076259GE19AGL   +99999+99999GF199999999999007621999999MA1102375094825OC100935REMMET09001/02/24 09:55:02 METAR KPSK 021455Z 30014G18KT 10SM OVC025 00/M04 A3023 RMK AO2 T00021044
0204724116138682024010215157+37133-080683FM-15+0642KPSK V0203305N00575007625MN0160935N5+00055-00435999999ADDGA1085+007625999GD14991+0076259GE19AGL   +99999+99999GF199999999999007621999999MA1102375094825OC100885REMMET09001/02/24 10:15:02 METAR KPSK 021515Z 33011G17KT 10SM OVC025 01/M04 A3023 RMK AO2 T00051043
0204724116138682024010215357+37133-080683FM-15+0642KPSK V0203005N00625007625MN0160935N5+00055-00435999999ADDGA1085+007625999GD14991+0076259GE19AGL   +99999+99999GF199999999999007621999999MA1102375094825OC100825REMMET09001/02/24 10:35:02 METAR KPSK 021535Z 30012G16KT 10SM OVC025 01/M04 A3023 RMK AO2 T00051043
0204724116138682024010215557+37133-080683FM-15+0642KPSK V0203005N00515007625MN0160935N5+00065-00405999999ADDGA1085+007625999GD14991+0076259GE19AGL   +99999+99999GF199999999999007621999999MA1102375094825OC100725REMMET09001/02/24 10:55:02 METAR KPSK 021555Z 30010G14KT 10SM OVC025 01/M04 A3023 RMK AO2 T00061040
0193724116138682024010216157+37133-080683FM-15+0642KPSK V0203205N00515007015MN0160935N5+00105-00405999999ADDGA1085+007015999GD14991+0070159GE19AGL   +99999+99999GF199999999999007011999999MA1102345094795REMMET08701/02/24 11:15:02 METAR KPSK 021615Z 32010KT 10SM OVC023 01/M04 A3022 RMK AO2 T00101040
0204724116138682024010216357+37133-080683FM-15+0642KPSK V0203205N00415007015MN0160935N5+00075-00405999999ADDGA1085+007015999GD14991+0070159GE19AGL   +99999+99999GF199999999999007011999999MA1102305094765OC100725REMMET09001/02/24 11:35:02 METAR KPSK 021635Z 32008G14KT 10SM OVC023 01/M04 A3021 RMK AO2 T00071040
0193724116138682024010216557+37133-080683FM-15+0642KPSK V0203205N00465007015MN0160935N5+00105-00395999999ADDGA1085+007015999GD14991+0070159GE19AGL   +99999+99999GF199999999999007011999999MA1102275094735REMMET08701/02/24 11:55:02 METAR KPSK 021655Z 32009KT 10SM OVC023 01/M04 A3020 RMK AO2 T00101039
0193724116138682024010217157+37133-080683FM-15+0642KPSK V0203405N00265007015MN0160935N5+00105-00375999999ADDGA1085+007015999GD14991+0070159GE19AGL   +99999+99999GF199999999999007011999999MA1102245094705REMMET08701/02/24 12:15:02 METAR KPSK 021715Z 34005KT 10SM OVC023 01/M04 A3019 RMK AO2 T00101037
0204724116138682024010217357+37133-080683FM-15+0642KPSK V0202805N00515007015MN0160935N5+00135-00365999999ADDGA1085+007015999GD14991+0070159GE19AGL   +99999+99999GF199999999999007011999999MA1102205094675OC100725REMMET09001/02/24 12:35:02 METAR KPSK 021735Z 28010G14KT 10SM OVC023 01/M04 A3018 RMK AO2 T00131036
0231724116138682024010217557+37133-080683FM-15+0642KPSK V0203305N00365007015MN0160935N5+00125-00405999999ADDGA1085+007015999GD14991+0070159GE19AGL   +99999+99999GF199999999999007011999999KA1060M+00161KA2060N+00001MA1102175094635REMMET09901/02/24 12:55:02 METAR KPSK 021755Z 33007KT 10SM OVC023 01/M04 A3017 RMK AO2 T00121040 10016 20000
0193724116138682024010218157+37133-080683FM-15+0642KPSK V0202705N00365007625MN0160935N5+00175-00395999999ADDGA1085+007625999GD14991+0076259GE19AGL   +99999+99999GF199999999999007621999999MA1102135094605REMMET08701/02/24 13:15:02 METAR KPSK 021815Z 27007KT 10SM OVC025 02/M04 A3016 RMK AO2 T00171039
0193724116138682024010218357+37133-080683FM-15+0642KPSK V0203405N00265007625MN0160935N5+00215-00395999999ADDGA1075+007625999GD13991+0076259GE19AGL   +99999+99999GF199999999999007621999999MA1102105094575REMMET08701/02/24 13:35:02 METAR KPSK 021835Z 34005KT 10SM BKN025 02/M04 A3015 RMK AO2 T00211039
0193724116138682024010218557+37133-080683FM-15+0642KPSK V0202705N00215008235MN0160935N5+00155-00445999999ADDGA1075+008235999GD13991+0082359GE19AGL   +99999+99999GF199999999999008231999999MA1102075094545REMMET08701/02/24 13:55:02 METAR KPSK 021855Z 27004KT 10SM BKN027 02/M04 A3014 RMK AO2 T00151044
0212724116138682024010219157+37133-080683FM-15+0642KPSK V0202905N003652200059N0160935N5+00205-00415999999ADDGA1045+008235999GD12991+0082359GE19AGL   +99999+99999GF104995999999008231999999MA1102075094545REMMET08701/02/24 14:15:02 METAR KPSK 021915Z 29007KT 10SM SCT027 02/M04 A3014 RMK AO2 T00201041EQDD01      0ADE726
0212724116138682024010219357+37133-080683FM-15+0642KPSK V0202905N004652200059N0160935N5+00255-00375999999ADDGA1045+008235999GD12991+0082359GE19AGL   +99999+99999GF104995999999008231999999MA1102035094515REMMET08701/02/24 14:35:02 METAR KPSK 021935Z 29009KT 10SM SCT027 03/M04 A3013 RMK AO2 T00251037EQDD01      0ADE726
0212724116138682024010219557+37133-080683FM-15+0642KPSK V0202805N004152200059N0160935N5+00205-00395999999ADDGA1045+008235999GD12991+0082359GE19AGL   +99999+99999GF104995999999008231999999MA1102035094515REMMET08701/02/24 14:55:02 METAR KPSK 021955Z 28008KT 10SM SCT027 02/M04 A3013 RMK AO2 T00201039EQDD01      0ADE726
0168724116138682024010220157+37133-080683FM-15+0642KPSK V0203005N004652200059N0160935N5+00195-00385999999ADDGA1005+999999999GD10991+9999999GF100991999999999999999999MA1102035094515REMMET08401/02/24 15:15:02 METAR KPSK 022015Z 30009KT 10SM CLR 02/M04 A3013 RMK AO2 T00191038
0168724116138682024010220357+37133-080683FM-15+0642KPSK V0203005N003152200059N0160935N5+00185-00425999999ADDGA1005+999999999GD10991+9999999GF100991999999999999999999MA1102005094475REMMET08401/02/24 15:35:02 METAR KPSK 022035Z 30006KT 10SM CLR 02/M04 A3012 RMK AO2 T00181042
0168724116138682024010220557+37133-080683FM-15+0642KPSK V0202905N003652200059N0160935N5+00185-00405999999ADDGA1005+999999999GD10991+9999999GF100991999999999999999999MA1102005094475REMMET08401/02/24 15:55:02 METAR KPSK 022055Z 29007KT 10SM CLR 02/M04 A3012 RMK AO2 T00181040
0168724116138682024010221157+37133-080683FM-15+0642KPSK V0203105N003152200059N0160935N5+00175-00425999999ADDGA1005+999999999GD10991+9999999GF100991999999999999999999MA1102005094475REMMET08401/02/24 16:15:02 METAR KPSK 022115Z 31006KT 10SM CLR 02/M04 A3012 RMK AO2 T00171042
0168724116138682024010221357+37133-080683FM-15+0642KPSK V0202905N002652200059N0160935N5+00165-00435999999ADDGA1005+999999999GD10991+9999999GF100991999999999999999999MA1102005094475REMMET08401/02/24 16:35:02 METAR KPSK 022135Z 29005KT 10SM CLR 02/M04 A3012 RMK AO2 T00161043
0168724116138682024010221557+37133-080683FM-15+0642KPSK V0202705N002152200059N0160935N5+00105-00435999999ADDGA1005+999999999GD10991+9999999GF100991999999999999999999MA1102035094515REMMET08401/02/24 16:55:02 METAR KPSK 022155Z 27004KT 10SM CLR 01/M04 A3013 RMK AO2 T00101043
0168724116138682024010222157+37133-080683FM-15+0642KPSK V0202705N002152200059N0160935N5+00025-00455999999ADDGA1005+999999999GD10991+9999999GF100991999999999999999999MA1102075094545REMMET08401/02/24 17:15:02 METAR KPSK 022215Z 27004KT 10SM CLR 00/M04 A3014 RMK AO2 T00021045
0168724116138682024010222357+37133-080683FM-15+0642KPSK V0202805N001552200059N0160935N5+00005-00455999999ADDGA1005+999999999GD10991+9999999GF100991999999999999999999MA1102075094545REMMET08401/02/24 17:35:02 METAR KPSK 022235Z 28003KT 10SM CLR 00/M04 A3014 RMK AO2 T00001045
0169724116138682024010222557+37133-080683FM-15+0642KPSK V0209999C000052200059N0160935N5-00075-00495999999ADDGA1005+999999999GD10991+9999999GF100991999999999999999999MA1102075094545REMMET08501/02/24 17:55:02 METAR KPSK 022255Z 00000KT 10SM CLR M01/M05 A3014 RMK AO2 T10071049
0169724116138682024010223157+37133-080683FM-15+0642KPSK V0202405N001552200059N0160935N5-00125-00465999999ADDGA1005+999999999GD10991+9999999GF100991999999999999999999MA1102075094545REMMET08501/02/24 18:15:02 METAR KPSK 022315Z 24003KT 10SM CLR M01/M05 A3014 RMK AO2 T10121046
0169724116138682024010223357+37133-080683FM-15+0642KPSK V0202505N002152200059N0160935N5-00125-00475999999ADDGA1005+999999999GD10991+9999999GF100991999999999999999999MA1102075094545REMMET08501/02/24 18:35:02 METAR KPSK 022335Z 25004KT 10SM CLR M01/M05 A3014 RMK AO2 T10121047
0207724116138682024010223557+37133-080683FM-15+0642KPSK V0202805N002652200059N0160935N5-00125-00455999999ADDGA1005+999999999GD10991+9999999GF100991999999999999999999KA1060M+00261KA2060N-00151MA1102075094545REMMET09701/02/24 18:55:02 METAR KPSK 022355Z 28005KT 10SM CLR M01/M04 A3014 RMK AO2 T10121045 10026 21015
0169724116138682024010300157+37133-080683FM-15+0642KPSK V0202505N002652200059N0160935N5-00135-00465999999ADDGA1005+999999999GD10991+9999999GF100991999999999999999999MA1102035094515REMMET08501/02/24 19:15:01 METAR KPSK 030015Z 25005KT 10SM CLR M01/M05 A3013 RMK AO2 T10131046
0169724116138682024010300357+37133-080683FM-15+0642KPSK V0202405N001552200059N0160935N5-00175-00465999999ADDGA1005+999999999GD10991+9999999GF100991999999999999999999MA1102035094515REMMET08501/02/24 19:35:01 METAR KPSK 030035Z 24003KT 10SM CLR M02/M05 A3013 RMK AO2 T10171046
0169724116138682024010300557+37133-080683FM-15+0642KPSK V0202805N001552200059N0160935N5-00175-00465999999ADDGA1005+999999999GD10991+9999999GF100991999999999999999999MA1102035094515REMMET08501/02/24 19:55:01 METAR KPSK 030055Z 28003KT 10SM CLR M02/M05 A3013 RMK AO2 T10171046
0169724116138682024010301157+37133-080683FM-15+0642KPSK V0209999C000052200059N0160935N5-00155-00455999999ADDGA1005+999999999GD10991+9999999GF100991999999999999999999MA1102035094515REMMET08501/02/24 20:15:01 METAR KPSK 030115Z 00000KT 10SM CLR M01/M04 A3013 RMK AO2 T10151045
0169724116138682024010301357+37133-080683FM-15+0642KPSK V0202605N001552200059N0160935N5-00165-00445999999ADDGA1005+999999999GD10991+9999999GF100991999999999999999999MA1102035094515REMMET08501/02/24 20:35:01 METAR KPSK 030135Z 26003KT 10SM CLR M02/M04 A3013 RMK AO2 T10161044
0169724116138682024010301557+37133-080683FM-15+0642KPSK V0202505N002152200059N0160935N5-00185-00475999999ADDGA1005+999999999GD10991+9999999GF100991999999999999999999MA1102035094515REMMET08501/02/24 20:55:01 METAR KPSK 030155Z 25004KT 10SM CLR M02/M05 A3013 RMK AO2 T10181047
0169724116138682024010302157+37133-080683FM-15+0642KPSK V0202405N002152200059N0160935N5-00145-00445999999ADDGA1005+999999999GD10991+9999999GF100991999999999999999999MA1102005094475REMMET08501/02/24 21:15:01 METAR KPSK 030215Z 24004KT 10SM CLR M01/M04 A3012 RMK AO2 T10141044
0169724116138682024010302357+37133-080683FM-15+0642KPSK V0202605N001552200059N0160935N5-00175-00455999999ADDGA1005+999999999GD10991+9999999GF100991999999999999999999MA1102035094515REMMET08501/02/24 21:35:01 METAR KPSK 030235Z 26003KT 10SM CLR M02/M04 A3013 RMK AO2 T10171045
0169724116138682024010302557+37133-080683FM-15+0642KPSK V0202305N002152200059N0160935N5-00225-00465999999ADDGA1005+999999999GD10991+9999999GF100991999999999999999999MA1102005094475REMMET08501/02/24 21:55:01 METAR KPSK 030255Z 23004KT 10SM CLR M02/M05 A3012 RMK AO2 T10221046
0169724116138682024010303157+37133-080683FM-15+0642KPSK V0202405N001552200059N0160935N5-00125-00415999999ADDGA1005+999999999GD10991+9999999GF100991999999999999999999MA1102005094475REMMET08501/02/24 22:15:01 METAR KPSK 030315Z 24003KT 10SM CLR M01/M04 A3012 RMK AO2 T10121041
0169724116138682024010303357+37133-080683FM-15+0642KPSK V0202405N001552200059N0160935N5-00145-00455999999ADDGA1005+999999999GD10991+9999999GF100991999999999999999999MA1102005094475REMMET08501/02/24 22:35:01 METAR KPSK 030335Z 24003KT 10SM CLR M01/M04 A3012 RMK AO2 T10141045
0169724116138682024010303557+37133-080683FM-15+0642KPSK V0202605N001552200059N0160935N5-00135-00435999999ADDGA1005+999999999GD10991+9999999GF100991999999999999999999MA1102005094475REMMET08501/02/24 22:55:01 METAR KPSK 030355Z 26003KT 10SM CLR M01/M04 A3012 RMK AO2 T10131043
0169724116138682024010304157+37133-080683FM-15+0642KPSK V0202505N002152200059N0160935N5-00155-00455999999ADDGA1005+999999999GD10991+9999999GF100991999999999999999999MA1101965094445REMMET08501/02/24 23:15:02 METAR KPSK 030415Z 25004KT 10SM CLR M01/M04 A3011 RMK AO2 T10151045
0169724116138682024010304357+37133-080683FM-15+0642KPSK V0202405N002152200059N0160935N5-00255-00485999999ADDGA1005+999999999GD10991+9999999GF100991999999999999999999MA1102005094475REMMET08501/02/24 23:35:02 METAR KPSK 030435Z 24004KT 10SM CLR M02/M05 A3012 RMK AO2 T10251048
0169724116138682024010304557+37133-080683FM-15+0642KPSK V0202705N003152200059N0160935N5-00085-00405999999ADDGA1005+999999999GD10991+9999999GF100991999999999999999999MA1102005094475REMMET08501/02/24 23:55:02 METAR KPSK 030455Z 27006KT 10SM CLR M01/M04 A3012 RMK AO2 T10081040
0169724116138682024010305157+37133-080683FM-15+0642KPSK V0202405N002152200059N0160935N5-00135-00425999999ADDGA1005+999999999GD10991+9999999GF100991999999999999999999MA1101965094445REMMET08501/03/24 00:15:02 METAR KPSK 030515Z 24004KT 10SM CLR M01/M04 A3011 RMK AO2 T10131042
0169724116138682024010305357+37133-080683FM-15+0642KPSK V0202205N002652200059N0160935N5-00115-00425999999ADDGA1005+999999999GD10991+9999999GF100991999999999999999999MA1101965094445REMMET08501/03/24 00:35:02 METAR KPSK 030535Z 22005KT 10SM CLR M01/M04 A3011 RMK AO2 T10111042
0243724116138682024010305557+37133-080683FM-15+0642KPSK V0202405N003152200059N0160935N5-00155-00425999999ADDGA1005+999999999GD10991+9999999GF100991999999999999999999KA1060M-00071KA2060N-00251KA3240M+00261KA4240N-00251MA1101935094415REMMET10701/03/24 00:55:02 METAR KPSK 030555Z 24006KT 10SM CLR M01/M04 A3010 RMK AO2 T10151042 11007 21025 400261025
0168724116138682024010306157+37133-080683FM-15+0642KPSK V0202705N004652200059N0160935N5+00005-00375999999ADDGA1005+999999999GD10991+9999999GF100991999999999999999999MA1101935094415REMMET08401/03/24 01:15:02 METAR KPSK 030615Z 27009KT 10SM CLR 00/M04 A3010 RMK AO2 T00001037
0168724116138682024010306357+37133-080683FM-15+0642KPSK V0202605N003152200059N0160935N5+00005-00385999999ADDGA1005+999999999GD10991+9999999GF100991999999999999999999MA1101935094415REMMET08401/03/24 01:35:02 METAR KPSK 030635Z 26006KT 10SM CLR 00/M04 A3010 RMK AO2 T00001038
0169724116138682024010306557+37133-080683FM-15+0642KPSK V0202405N003152200059N0160935N5-00155-00435999999ADDGA1005+999999999GD10991+9999999GF100991999999999999999999MA1101935094415REMMET08501/03/24 01:55:02 METAR KPSK 030655Z 24006KT 10SM CLR M01/M04 A3010 RMK AO2 T10151043
0169724116138682024010307157+37133-080683FM-15+0642KPSK V0202405N002652200059N0160935N5-00065-00405999999ADDGA1005+999999999GD10991+9999999GF100991999999999999999999MA1101905094385REMMET08501/03/24 02:15:02 METAR KPSK 030715Z 24005KT 10SM CLR M01/M04 A3009 RMK AO2 T10061040
0169724116138682024010307357+37133-080683FM-15+0642KPSK V0202505N003152200059N0160935N5-00125-00415999999ADDGA1005+999999999GD10991+9999999GF100991999999999999999999MA1101935094415REMMET08501/03/24 02:35:02 METAR KPSK 030735Z 25006KT 10SM CLR M01/M04 A3010 RMK AO2 T10121041
0169724116138682024010307557+37133-080683FM-15+0642KPSK V0202105N001552200059N0160935N5-00105-00425999999ADDGA1005+999999999GD10991+9999999GF100991999999999999999999MA1101865094355REMMET08501/03/24 02:55:02 METAR KPSK 030755Z 21003KT 10SM CLR M01/M04 A3008 RMK AO2 T10101042
0169724116138682024010308157+37133-080683FM-15+0642KPSK V0202105N001552200059N0160935N5-00075-00425999999ADDGA1005+999999999GD10991+9999999GF100991999999999999999999MA1101865094355REMMET08501/03/24 03:15:02 METAR KPSK 030815Z 21003KT 10SM CLR M01/M04 A3008 RMK AO2 T10071042
0169724116138682024010308357+37133-080683FM-15+0642KPSK V0202305N002652200059N0160935N5-00065-00435999999ADDGA1005+999999999GD10991+9999999GF100991999999999999999999MA1101905094385REMMET08501/03/24 03:35:02 METAR KPSK 030835Z 23005KT 10SM CLR M01/M04 A3009 RMK AO2 T10061043
0169724116138682024010308557+37133-080683FM-15+0642KPSK V0202205N003652200059N0160935N5-00135-00455999999ADDGA1005+999999999GD10991+9999999GF100991999999999999999999MA1101905094385REMMET08501/03/24 03:55:02 METAR KPSK 030855Z 22007KT 10SM CLR M01/M04 A3009 RMK AO2 T10131045
0169724116138682024010309157+37133-080683FM-15+0642KPSK V0202105N002652200059N0160935N5-00225-00465999999ADDGA1005+999999999GD10991+9999999GF100991999999999999999999MA1101865094355REMMET08501/03/24 04:15:02 METAR KPSK 030915Z 21005KT 10SM CLR M02/M05 A3008 RMK AO2 T10221046
0169724116138682024010309357+37133-080683FM-15+0642KPSK V0202505N001552200059N0160935N5-00215-00455999999ADDGA1005+999999999GD10991+9999999GF100991999999999999999999MA1101865094355REMMET08501/03/24 04:35:02 METAR KPSK 030935Z 25003KT 10SM CLR M02/M04 A3008 RMK AO2 T10211045
0169724116138682024010309557+37133-080683FM-15+0642KPSK V0202005N001552200059N0160935N5-00265-00475999999ADDGA1005+999999999GD10991+9999999GF100991999999999999999999MA1101865094355REMMET08501/03/24 04:55:02 METAR KPSK 030955Z 20003KT 10SM CLR M03/M05 A3008 RMK AO2 T10261047
0169724116138682024010310157+37133-080683FM-15+0642KPSK V0202105N002152200059N0160935N5-00165-00455999999ADDGA1005+999999999GD10991+9999999GF100991999999999999999999MA1101865094355REMMET08501/03/24 05:15:02 METAR KPSK 031015Z 21004KT 10SM CLR M02/M04 A3008 RMK AO2 T10161045
0169724116138682024010310357+37133-080683FM-15+0642KPSK V0202105N002652200059N0160935N5-00335-00535999999ADDGA1005+999999999GD10991+9999999GF100991999999999999999999MA1101865094355REMMET08501/03/24 05:35:02 METAR KPSK 031035Z 21005KT 10SM CLR M03/M05 A3008 RMK AO2 T10331053
0169724116138682024010310557+37133-080683FM-15+0642KPSK V0202105N002152200059N0160935N5-00265-00505999999ADDGA1005+999999999GD10991+9999999GF100991999999999999999999MA1101865094355REMMET08501/03/24 05:55:02 METAR KPSK 031055Z 21004KT 10SM CLR M03/M05 A3008 RMK AO2 T10261050
0169724116138682024010311157+37133-080683FM-15+0642KPSK V0209999C000052200059N0160935N5-00285-00515999999ADDGA1005+999999999GD10991+9999999GF100991999999999999999999MA1101865094355REMMET08501/03/24 06:15:02 METAR KPSK 031115Z 00000KT 10SM CLR M03/M05 A3008 RMK AO2 T10281051
0169724116138682024010311357+37133-080683FM-15+0642KPSK V0209999C000052200059N0160935N5-00325-00545999999ADDGA1005+999999999GD10991+9999999GF100991999999999999999999MA1101835094325REMMET08501/03/24 06:35:02 METAR KPSK 031135Z 00000KT 10SM CLR M03/M05 A3007 RMK AO2 T10321054
0207724116138682024010311557+37133-080683FM-15+0642KPSK V0202005N002152200059N0160935N5-00415-00585999999ADDGA1005+999999999GD10991+9999999GF100991999999999999999999KA1060M+00011KA2060N-00431MA1101795094285REMMET09701/03/24 06:55:02 METAR KPSK 031155Z 20004KT 10SM CLR M04/M06 A3006 RMK AO2 T10411058 10001 21043
0169724116138682024010312157+37133-080683FM-15+0642KPSK V0202105N001552200059N0160935N5-00355-00545999999ADDGA1005+999999999GD10991+9999999GF100991999999999999999999MA1101765094255REMMET08501/03/24 07:15:02 METAR KPSK 031215Z 21003KT 10SM CLR M03/M05 A3005 RMK AO2 T10351054
0169724116138682024010312357+37133-080683FM-15+0642KPSK V0202705N002152200059N0160935N5-00385-00565999999ADDGA1005+999999999GD10991+9999999GF100991999999999999999999MA1101795094285REMMET08501/03/24 07:35:02 METAR KPSK 031235Z 27004KT 10SM CLR M04/M06 A3006 RMK AO2 T10381056
0169724116138682024010312557+37133-080683FM-15+0642KPSK V0202505N001552200059N0160935N5-00465-00595999999ADDGA1005+999999999GD10991+9999999GF100991999999999999999999MA1101795094285REMMET08501/03/24 07:55:02 METAR KPSK 031255Z 25003KT 10SM CLR M05/M06 A3006 RMK AO2 T10461059
0169724116138682024010313157+37133-080683FM-15+0642KPSK V0209999C000052200059N0160935N5-00295-00465999999ADDGA1005+999999999GD10991+9999999GF100991999999999999999999MA1101795094285REMMET08501/03/24 08:15:02 METAR KPSK 031315Z 00000KT 10SM CLR M03/M05 A3006 RMK AO2 T10291046
0169724116138682024010313357+37133-080683FM-15+0642KPSK V0209999C000052200059N0160935N5-00325-00485999999ADDGA1005+999999999GD10991+9999999GF100991999999999999999999MA1101835094325REMMET08501/03/24 08:35:02 METAR KPSK 031335Z 00000KT 10SM CLR M03/M05 A3007 RMK AO2 T10321048
0169724116138682024010313557+37133-080683FM-15+0642KPSK V0209999C000052200059N0160935N5-00215-00405999999ADDGA1005+999999999GD10991+9999999GF100991999999999999999999MA1101835094325REMMET08501/03/24 08:55:02 METAR KPSK 031355Z 00000KT 10SM CLR M02/M04 A3007 RMK AO2 T10211040
0168724116138682024010314157+37133-080683FM-15+0642KPSK V0209999C000052200059N0160935N5-00025-00295999999ADDGA1005+999999999GD10991+9999999GF100991999999999999999999MA1101835094325REMMET08401/03/24 09:15:02 METAR KPSK 031415Z 00000KT 10SM CLR 00/M03 A3007 RMK AO2 T10021029
0168724116138682024010314357+37133-080683FM-15+0642KPSK V0209999C000052200059N0160935N5+00005-00295999999ADDGA1005+999999999GD10991+9999999GF100991999999999999999999MA1101865094355REMMET08401/03/24 09:35:02 METAR KPSK 031435Z 00000KT 10SM CLR 00/M03 A3008 RMK AO2 T00001029
0168724116138682024010314557+37133-080683FM-15+0642KPSK V0209999C000052200059N0160935N5+00135-00215999999ADDGA1005+999999999GD10991+9999999GF100991999999999999999999MA1101865094355REMMET08401/03/24 09:55:02 METAR KPSK 031455Z 00000KT 10SM CLR 01/M02 A3008 RMK AO2 T00131021
0168724116138682024010315157+37133-080683FM-15+0642KPSK V0202605N001552200059N0160935N5+00265-00265999999ADDGA1005+999999999GD10991+9999999GF100991999999999999999999MA1101865094355REMMET08401/03/24 10:15:02 METAR KPSK 031515Z 26003KT 10SM CLR 03/M03 A3008 RMK AO2 T00261026
0168724116138682024010315357+37133-080683FM-15+0642KPSK V0202905N002152200059N0160935N5+00345-00315999999ADDGA1005+999999999GD10991+9999999GF100991999999999999999999MA1101865094355REMMET08401/03/24 10:35:02 METAR KPSK 031535Z 29004KT 10SM CLR 03/M03 A3008 RMK AO2 T00341031
0168724116138682024010315557+37133-080683FM-15+0642KPSK V0203305N001552200059N0160935N5+00415-00285999999ADDGA1005+999999999GD10991+9999999GF100991999999999999999999MA1101835094325REMMET08401/03/24 10:55:02 METAR KPSK 031555Z 33003KT 10SM CLR 04/M03 A3007 RMK AO2 T00411028
0168724116138682024010316157+37133-080683FM-15+0642KPSK V0209999C000052200059N0160935N5+00405-00315999999ADDGA1005+999999999GD10991+9999999GF100991999999999999999999MA1101795094285REMMET08401/03/24 11:15:02 METAR KPSK 031615Z 00000KT 10SM CLR 04/M03 A3006 RMK AO2 T00401031
0168724116138682024010316357+37133-080683FM-15+0642KPSK V0209999C000052200059N0160935N5+00465-00315999999ADDGA1005+999999999GD10991+9999999GF100991999999999999999999MA1101765094255REMMET08401/03/24 11:35:02 METAR KPSK 031635Z 00000KT 10SM CLR 05/M03 A3005 RMK AO2 T00461031
0168724116138682024010316557+37133-080683FM-15+0642KPSK V0200805N001552200059N0160935N5+00485-00315999999ADDGA1005+999999999GD10991+9999999GF100991999999999999999999MA1101695094195REMMET08401/03/24 11:55:02 METAR KPSK 031655Z 08003KT 10SM CLR 05/M03 A3003 RMK AO2 T00481031
0168724116138682024010317157+37133-080683FM-15+0642KPSK V0209999C000052200059N0160935N5+00555-00365999999ADDGA1005+999999999GD10991+9999999GF100991999999999999999999MA1101665094165REMMET08401/03/24 12:15:02 METAR KPSK 031715Z 00000KT 10SM CLR 06/M04 A3002 RMK AO2 T00551036
0168724116138682024010317357+37133-080683FM-15+0642KPSK V0201705N001552200059N0160935N5+00565-00415999999ADDGA1005+999999999GD10991+9999999GF100991999999999999999999MA1101635094125REMMET08401/03/24 12:35:02 METAR KPSK 031735Z 17003KT 10SM CLR 06/M04 A3001 RMK AO2 T00561041
0206724116138682024010317557+37133-080683FM-15+0642KPSK V0202005N001552200059N0160935N5+00605-00365999999ADDGA1005+999999999GD10991+9999999GF100991999999999999999999KA1060M+00601KA2060N-00481MA1101635094125REMMET09601/03/24 12:55:02 METAR KPSK 031755Z 20003KT 10SM CLR 06/M04 A3001 RMK AO2 T00601036 10060 21048
0168724116138682024010318157+37133-080683FM-15+0642KPSK V0209999C000052200059N0160935N5+00645-00395999999ADDGA1005+999999999GD10991+9999999GF100991999999999999999999MA1101595094095REMMET08401/03/24 13:15:02 METAR KPSK 031815Z 00000KT 10SM CLR 06/M04 A3000 RMK AO2 T00641039
0168724116138682024010318357+37133-080683FM-15+0642KPSK V0202005N001552200059N0160935N5+00655-00425999999ADDGA1005+999999999GD10991+9999999GF100991999999999999999999MA1101565094065REMMET08401/03/24 13:35:02 METAR KPSK 031835Z 20003KT 10SM CLR 07/M04 A2999 RMK AO2 T00651042
0168724116138682024010318557+37133-080683FM-15+0642KPSK V0209999C000052200059N0160935N5+00655-00395999999ADDGA1005+999999999GD10991+9999999GF100991999999999999999999MA1101525094035REMMET08401/03/24 13:55:02 METAR KPSK 031855Z 00000KT 10SM CLR 07/M04 A2998 RMK AO2 T00651039
0168724116138682024010319157+37133-080683FM-15+0642KPSK V0209999C000052200059N0160935N5+00685-00415999999ADDGA1005+999999999GD10991+9999999GF100991999999999999999999MA1101495094005REMMET08401/03/24 14:15:02 METAR KPSK 031915Z 00000KT 10SM CLR 07/M04 A2997 RMK AO2 T00681041
0168724116138682024010319357+37133-080683FM-15+0642KPSK V0209999C000052200059N0160935N5+00715-00425999999ADDGA1005+999999999GD10991+9999999GF100991999999999999999999MA1101425093935REMMET08401/03/24 14:35:02 METAR KPSK 031935Z 00000KT 10SM CLR 07/M04 A2995 RMK AO2 T00711042
0168724116138682024010319557+37133-080683FM-15+0642KPSK V0209999C000052200059N0160935N5+00735-00415999999ADDGA1005+999999999GD10991+9999999GF100991999999999999999999MA1101465093975REMMET08401/03/24 14:55:02 METAR KPSK 031955Z 00000KT 10SM CLR 07/M04 A2996 RMK AO2 T00731041
0168724116138682024010320157+37133-080683FM-15+0642KPSK V0209999C000052200059N0160935N5+00745-00425999999ADDGA1005+999999999GD10991+9999999GF100991999999999999999999MA1101465093975REMMET08401/03/24 15:15:02 METAR KPSK 032015Z 00000KT 10SM CLR 07/M04 A2996 RMK AO2 T00741042
0168724116138682024010320357+37133-080683FM-15+0642KPSK V0209999C000052200059N0160935N5+00715-00375999999ADDGA1005+999999999GD10991+9999999GF100991999999999999999999MA1101465093975REMMET08401/03/24 15:35:02 METAR KPSK 032035Z 00000KT 10SM CLR 07/M04 A2996 RMK AO2 T00711037
0193724116138682024010320557+37133-080683FM-15+0642KPSK V0209999C00005036585MN0160935N5+00695-00385999999ADDGA1075+036585999GD13991+0365859GE19AGL   +99999+99999GF199999999999036581999999MA1101465093975REMMET08701/03/24 15:55:02 METAR KPSK 032055Z 00000KT 10SM BKN120 07/M04 A2996 RMK AO2 T00691038
0193724116138682024010321157+37133-080683FM-15+0642KPSK V0209999C00005036585MN0160935N5+00675-00375999999ADDGA1075+036585999GD13991+0365859GE19AGL   +99999+99999GF199999999999036581999999MA1101465093975REMMET08701/03/24 16:15:02 METAR KPSK 032115Z 00000KT 10SM BKN120 07/M04 A2996 RMK AO2 T00671037
0193724116138682024010321357+37133-080683FM-15+0642KPSK V0209999C00005036585MN0160935N5+00645-00315999999ADDGA1075+036585999GD13991+0365859GE19AGL   +99999+99999GF199999999999036581999999MA1101465093975REMMET08701/03/24 16:35:02 METAR KPSK 032135Z 00000KT 10SM BKN120 06/M03 A2996 RMK AO2 T00641031
0193724116138682024010321557+37133-080683FM-15+0642KPSK V0209999C00005033535MN0160935N5+00625-00355999999ADDGA1085+033535999GD14991+0335359GE19AGL   +99999+99999GF199999999999033531999999MA1101425093935REMMET08701/03/24 16:55:02 METAR KPSK 032155Z 00000KT 10SM OVC110 06/M03 A2995 RMK AO2 T00621035
0193724116138682024010322157+37133-080683FM-15+0642KPSK V0209999C00005033535MN0160935N5+00595-00295999999ADDGA1085+033535999GD14991+0335359GE19AGL   +99999+99999GF199999999999033531999999MA1101465093975REMMET08701/03/24 17:15:02 METAR KPSK 032215Z 00000KT 10SM OVC110 06/M03 A2996 RMK AO2 T00591029
0212724116138682024010322357+37133-080683FM-15+0642KPSK V0209999C000052200059N0160935N5+00535-00315999999ADDGA1045+033535999GD12991+0335359GE19AGL   +99999+99999GF104995999999033531999999MA1101425093935REMMET08701/03/24 17:35:02 METAR KPSK 032235Z 00000KT 10SM SCT110 05/M03 A2995 RMK AO2 T00531031EQDD01      0ADE726
0193724116138682024010322557+37133-080683FM-15+0642KPSK V0209999C00005030485MN0160935N5+00495-00295999999ADDGA1075+030485999GD13991+0304859GE19AGL   +99999+99999GF199999999999030481999999MA1101425093935REMMET08701/03/24 17:55:02 METAR KPSK 032255Z 00000KT 10SM BKN100 05/M03 A2995 RMK AO2 T00491029
0231724116138682024010323157+37133-080683FM-15+0642KPSK V0203005N00155027435MN0160935N5+00465-00325999999ADDGA1045+024385999GA2085+027435999GD12991+0243859GD24991+0274359GE19AGL   +99999+99999GF199999999999024381999999MA1101425093935REMMET09401/03/24 18:15:02 METAR KPSK 032315Z 30003KT 10SM SCT080 OVC090 05/M03 A2995 RMK AO2 T00461032
0269724116138682024010323357+37133-080683FM-15+0642KPSK V0201905N00215027435MN0160935N5+00455-00315999999ADDGA1045+018295999GA2075+027435999GA3085+033535999GD12991+0182959GD23991+0274359GD34991+0335359GE19AGL   +99999+99999GF199999999999018291999999MA1101425093935REMMET10101/03/24 18:35:02 METAR KPSK 032335Z 19004KT 10SM SCT060 BKN090 OVC110 05/M03 A2995 RMK AO2 T00451031
0269724116138682024010323557+37133-080683FM-15+0642KPSK V0202505N00265033535MN0160935N5+00475-00405999999ADDGA1045+027435999GA2085+033535999GD12991+0274359GD24991+0335359GE19AGL   +99999+99999GF199999999999027431999999KA1060M+00751KA2060N+00431MA1101425093935REMMET10601/03/24 18:55:02 METAR KPSK 032355Z 25005KT 10SM SCT090 OVC110 05/M04 A2995 RMK AO2 T00471040 10075 20043
0231724116138682024010400157+37133-080683FM-15+0642KPSK V0202705N00155027435MN0160935N5+00475-00435999999ADDGA1075+027435999GA2085+030485999GD13991+0274359GD24991+0304859GE19AGL   +99999+99999GF199999999999027431999999MA1101465093975REMMET09401/03/24 19:15:01 METAR KPSK 040015Z 27003KT 10SM BKN090 OVC100 05/M04 A2996 RMK AO2 T00471043
0193724116138682024010400357+37133-080683FM-15+0642KPSK V0202005N00265024385MN0160935N5+00435-00335999999ADDGA1085+024385999GD14991+0243859GE19AGL   +99999+99999GF199999999999024381999999MA1101465093975REMMET08701/03/24 19:35:01 METAR KPSK 040035Z 20005KT 10SM OVC080 04/M03 A2996 RMK AO2 T00431033
0269724116138682024010400557+37133-080683FM-15+0642KPSK V0202105N00365021345MN0160935N5+00455-00415999999ADDGA1045+013415999GA2075+021345999GA3085+024385999GD12991+0134159GD23991+0213459GD34991+0243859GE19AGL   +99999+99999GF199999999999013411999999MA1101465093975REMMET10101/03/24 19:55:01 METAR KPSK 040055Z 21007KT 10SM SCT044 BKN070 OVC080 05/M04 A2996 RMK AO2 T00451041
0193724116138682024010401157+37133-080683FM-15+0642KPSK V0202505N00315012195MN0160935N5+00425-00345999999ADDGA1085+012195999GD14991+0121959GE19AGL   +99999+99999GF199999999999012191999999MA1101495094005REMMET08701/03/24 20:15:01 METAR KPSK 040115Z 25006KT 10SM OVC040 04/M03 A2997 RMK AO2 T00421034
0193724116138682024010401357+37133-080683FM-15+0642KPSK V0202905N00515011585MN0160935N5+00435-00195999999ADDGA1085+011585999GD14991+0115859GE19AGL   +99999+99999GF199999999999011581999999MA1101495094005REMMET08701/03/24 20:35:01 METAR KPSK 040135Z 29010KT 10SM OVC038 04/M02 A2997 RMK AO2 T00431019
0267724116138682024010401557+37133-080683FM-15+0642KPSK V0202805N00515012195MN0160935N5+00355-00055999999ADDAU120020015AW1625GA1075+012195999GA2085+016765999GD13991+0121959GD24991+0167659GE19AGL   +99999+99999GF199999999999012191999999MA1101495094005MW1655OC100825REMMET09901/03/24 20:55:01 METAR KPSK 040155Z 28010G16KT 10SM RA BKN040 OVC055 04/00 A2997 RMK AO2 T00351005
0268724116138682024010402157+37133-080683FM-15+0642KPSK V0202705N00365013725MN0160935N5+00265+00005999999ADDGA1045+008845999GA2075+013725999GA3085+030485999GD12991+0088459GD23991+0137259GD34991+0304859GE19AGL   +99999+99999GF199999999999008841999999MA1101495094005REMMET10001/03/24 21:15:01 METAR KPSK 040215Z 27007KT 10SM SCT029 BKN045 OVC100 03/00 A2997 RMK AO2 T00260000
0268724116138682024010402357+37133-080683FM-15+0642KPSK V0202105N00265012805MN0160935N5+00255+00005999999ADDGA1075+012805999GA2075+014945999GA3085+021345999GD13991+0128059GD23991+0149459GD34991+0213459GE19AGL   +99999+99999GF199999999999012801999999MA1101495094005REMMET10001/03/24 21:35:01 METAR KPSK 040235Z 21005KT 10SM BKN042 BKN049 OVC070 03/00 A2997 RMK AO2 T00250000
0295724116138682024010402557+37133-080683FM-15+0642KPSK V0202505N00265010975MN0160935N5+00255+00005999999ADDAU110020015AW1615GA1075+010975999GA2075+012805999GA3085+014945999GD13991+0109759GD23991+0128059GD34991+0149459GE19AGL   +99999+99999GF199999999999010971999999MA1101525094035MW1615REMMET10401/03/24 21:55:01 METAR KPSK 040255Z 25005KT 10SM -RA BKN036 BKN042 OVC049 03/00 A2998 RMK AO2 T00250000
0250724116138682024010403157+37133-080683FM-15+0642KPSK V0202705N00365010365MN0160935N5+00235-00075999999ADDAU110030015AW1715GA1085+010365999GD14991+0103659GE19AGL   +99999+99999GF199999999999010361999999MA1101525094035MW1715OC100517REMMET09401/03/24 22:15:01 METAR KPSK 040315Z 27007G10KT 10SM -SN OVC034 02/M01 A2998 RMK AO2 T00231007EQDR01 G10KT7OCW039
0295724116138682024010403357+37133-080683FM-15+0642KPSK V0202405N00315010365MN0160935N5+00135-00015999999ADDAU110030015AW1715GA1075+010365999GA2075+014945999GA3085+018295999GD13991+0103659GD23991+0149459GD34991+0182959GE19AGL   +99999+99999GF199999999999010361999999MA1101525094035MW1715REMMET10401/03/24 22:35:01 METAR KPSK 040335Z 24006KT 10SM -SN BKN034 BKN049 OVC060 01/00 A2998 RMK AO2 T00131001
0294724116138682024010403557+37133-080683FM-15+0642KPSK V0202505N00365012195MN0080475N5+00115+00005999999ADDAU110030015AW1715GA1045+006715999GA2075+012195999GA3085+018295999GD12991+0067159GD23991+0121959GD34991+0182959GE19AGL   +99999+99999GF199999999999006711999999MA1101525094035MW1715REMMET10301/03/24 22:55:01 METAR KPSK 040355Z 25007KT 5SM -SN SCT022 BKN040 OVC060 01/00 A2998 RMK AO2 T00110000
0294724116138682024010404157+37133-080683FM-15+0642KPSK V0202105N00315008845MN0112655N5+00105+00005999999ADDAU110030015AW1715GA1045+007325999GA2075+008845999GA3085+011585999GD12991+0073259GD23991+0088459GD34991+0115859GE19AGL   +99999+99999GF199999999999007321999999MA1101525094035MW1715REMMET10301/03/24 23:15:02 METAR KPSK 040415Z 21006KT 7SM -SN SCT024 BKN029 OVC038 01/00 A2998 RMK AO2 T00100000
0294724116138682024010404357+37133-080683FM-15+0642KPSK V0202105N00215006715MN0064375N5+00065+00005999999ADDAU110030015AW1715GA1045+002745999GA2075+006715999GA3085+008845999GD12991+0027459GD23991+0067159GD34991+0088459GE19AGL   +99999+99999GF199999999999002741999999MA1101525094035MW1715REMMET10301/03/24 23:35:02 METAR KPSK 040435Z 21004KT 4SM -SN SCT009 BKN022 OVC029 01/00 A2998 RMK AO2 T00060000
0294724116138682024010404557+37133-080683FM-15+0642KPSK V0202005N00265012805MN0160935N5+00055+00005999999ADDAU120090015AW1401AW2415GA1045+002745999GA2045+006715999GA3085+012805999GD12991+0027459GD22991+0067159GD34991+0128059GE19AGL   +99999+99999GF199999999999002741999999MA1101495094005REMMET10301/03/24 23:55:02 METAR KPSK 040455Z 20005KT 10SM UP SCT009 SCT022 OVC042 01/00 A2997 RMK AO2 T00050000
003972411613868202401040459O+37133-080683SOD  +0642KPSK V020999999999999999999999999999+99999+99999999999ADDAT1AU16RA  5AT2AU18SN  5AT3AU19UP  5
0268724116138682024010405157+37133-080683FM-15+0642KPSK V0202205N00315014945MN0160935N5+00055+00005999999ADDGA1045+012805999GA2075+014945999GA3085+019815999GD12991+0128059GD23991+0149459GD34991+0198159GE19AGL   +99999+99999GF199999999999012801999999MA1101495094005REMMET10001/04/24 00:15:02 METAR KPSK 040515Z 22006KT 10SM SCT042 BKN049 OVC065 01/00 A2997 RMK AO2 T00050000
0268724116138682024010405357+37133-080683FM-15+0642KPSK V0202305N00365022865MN0160935N5+00055+00005999999ADDGA1045+008845999GA2075+022865999GA3085+025915999GD12991+0088459GD23991+0228659GD34991+0259159GE19AGL   +99999+99999GF199999999999008841999999MA1101465093975REMMET10001/04/24 00:35:02 METAR KPSK 040535Z 23007KT 10SM SCT029 BKN075 OVC085 01/00 A2996 RMK AO2 T00050000
0304724116138682024010405557+37133-080683FM-15+0642KPSK V0202205N00365008845MN0160935N5+00055+00005999999ADDGA1075+008845999GA2085+025915999GD13991+0088459GD24991+0259159GE19AGL   +99999+99999GF199999999999008841999999KA1060M+00481KA2060N+00051KA3240M+00751KA4240N-00481MA1101465093975REMMET11501/04/24 00:55:02 METAR KPSK 040555Z 22007KT 10SM BKN029 OVC085 01/00 A2996 RMK AO2 T00050000 10048 20005 400751048
0192724116138682024010406157+37133-080683FM-15+0642KPSK V0202305N00315008845MN0160935N5+00055+00005999999ADDGA1085+008845999GD14991+0088459GE19AGL   +99999+99999GF199999999999008841999999MA1101465093975REMMET08601/04/24 01:15:02 METAR KPSK 040615Z 23006KT 10SM OVC029 01/00 A2996 RMK AO2 T00050000
0192724116138682024010406357+37133-080683FM-15+0642KPSK V0202605N00265008235MN0160935N5+00065+00005999999ADDGA1085+008235999GD14991+0082359GE19AGL   +99999+99999GF199999999999008231999999MA1101425093935REMMET08601/04/24 01:35:02 METAR KPSK 040635Z 26005KT 10SM OVC027 01/00 A2995 RMK AO2 T00060000
0231724116138682024010406557+37133-080683FM-15+0642KPSK V0203005N00515008235MN0160935N5+00095-00065999999ADDGA1075+008235999GA2085+009755999GD13991+0082359GD24991+0097559GE19AGL   +99999+99999GF199999999999008231999999MA1101425093935REMMET09401/04/24 01:55:02 METAR KPSK 040655Z 30010KT 10SM BKN027 OVC032 01/M01 A2995 RMK AO2 T00091006
0193724116138682024010407157+37133-080683FM-15+0642KPSK V0203005N00675008235MN0160935N5+00105-00235999999ADDGA1085+008235999GD14991+0082359GE19AGL   +99999+99999GF199999999999008231999999MA1101425093935REMMET08701/04/24 02:15:02 METAR KPSK 040715Z 30013KT 10SM OVC027 01/M02 A2995 RMK AO2 T00101023
0193724116138682024010407357+37133-080683FM-15+0642KPSK V0202905N00575008235MN0160935N5+00085-00265999999ADDGA1085+008235999GD14991+0082359GE19AGL   +99999+99999GF199999999999008231999999MA1101465093975REMMET08701/04/24 02:35:02 METAR KPSK 040735Z 29011KT 10SM OVC027 01/M03 A2996 RMK AO2 T00081026
0204724116138682024010407557+37133-080683FM-15+0642KPSK V0203005N00315009145MN0160935N5+00065-00365999999ADDGA1085+009145999GD14991+0091459GE19AGL   +99999+99999GF199999999999009141999999MA1101465093975OC100775REMMET09001/04/24 02:55:02 METAR KPSK 040755Z 30006G15KT 10SM OVC030 01/M04 A2996 RMK AO2 T00061036
0242724116138682024010408157+37133-080683FM-15+0642KPSK V0202805N00625009145MN0160935N5+00055-00405999999ADDGA1075+009145999GA2085+015245999GD13991+0091459GD24991+0152459GE19AGL   +99999+99999GF199999999999009141999999MA1101465093975OC100825REMMET09701/04/24 03:15:02 METAR KPSK 040815Z 28012G16KT 10SM BKN030 OVC050 01/M04 A2996 RMK AO2 T00051040
0269724116138682024010408357+37133-080683FM-15+0642KPSK V0202905N00415009145MN0160935N5+00005-00405999999ADDGA1075+009145999GA2075+015245999GA3085+019815999GD13991+0091459GD23991+0152459GD34991+0198159GE19AGL   +99999+99999GF199999999999009141999999MA1101465093975REMMET10101/04/24 03:35:02 METAR KPSK 040835Z 29008KT 10SM BKN030 BKN050 OVC065 00/M04 A2996 RMK AO2 T00001040
0193724116138682024010408557+37133-080683FM-15+0642KPSK V0202905N00415009145MN0160935N5+00005-00405999999ADDGA1075+009145999GD13991+0091459GE19AGL   +99999+99999GF199999999999009141999999MA1101425093935REMMET08701/04/24 03:55:02 METAR KPSK 040855Z 29008KT 10SM BKN030 00/M04 A2995 RMK AO2 T00001040
0193724116138682024010409157+37133-080683FM-15+0642KPSK V0203005N00265009145MN0160935N5+00015-00365999999ADDGA1085+009145999GD14991+0091459GE19AGL   +99999+99999GF199999999999009141999999MA1101465093975REMMET08701/04/24 04:15:02 METAR KPSK 040915Z 30005KT 10SM OVC030 00/M04 A2996 RMK AO2 T00011036
0204724116138682024010409357+37133-080683FM-15+0642KPSK V0203005N00315008535MN0160935N5+00055-00365999999ADDGA1085+008535999GD14991+0085359GE19AGL   +99999+99999GF199999999999008531999999MA1101465093975OC100725REMMET09001/04/24 04:35:02 METAR KPSK 040935Z 30006G14KT 10SM OVC028 01/M04 A2996 RMK AO2 T00051036
0204724116138682024010409557+37133-080683FM-15+0642KPSK V0203205N00575007925MN0160935N5+00055-00315999999ADDGA1085+007925999GD14991+0079259GE19AGL   +99999+99999GF199999999999007921999999MA1101465093975OC100825REMMET09001/04/24 04:55:02 METAR KPSK 040955Z 32011G16KT 10SM OVC026 01/M03 A2996 RMK AO2 T00051031
0193724116138682024010410157+37133-080683FM-15+0642KPSK V0202905N00515007925MN0160935N5+00055-00305999999ADDGA1085+007925999GD14991+0079259GE19AGL   +99999+99999GF199999999999007921999999MA1101495094005REMMET08701/04/24 05:15:02 METAR KPSK 041015Z 29010KT 10SM OVC026 01/M03 A2997 RMK AO2 T00051030
0204724116138682024010410357+37133-080683FM-15+0642KPSK V0203105N00575007925MN0160935N5+00065-00305999999ADDGA1085+007925999GD14991+0079259GE19AGL   +99999+99999GF199999999999007921999999MA1101495094005OC100775REMMET09001/04/24 05:35:02 METAR KPSK 041035Z 31011G15KT 10SM OVC026 01/M03 A2997 RMK AO2 T00061030
0204724116138682024010410557+37133-080683FM-15+0642KPSK V0203205N00465007325MN0160935N5+00055-00315999999ADDGA1085+007325999GD14991+0073259GE19AGL   +99999+99999GF199999999999007321999999MA1101525094035OC100725REMMET09001/04/24 05:55:02 METAR KPSK 041055Z 32009G14KT 10SM OVC024 01/M03 A2998 RMK AO2 T00051031
0204724116138682024010411157+37133-080683FM-15+0642KPSK V0203205N00625007325MN0160935N5+00055-00335999999ADDGA1085+007325999GD14991+0073259GE19AGL   +99999+99999GF199999999999007321999999MA1101525094035OC100825REMMET09001/04/24 06:15:02 METAR KPSK 041115Z 32012G16KT 10SM OVC024 01/M03 A2998 RMK AO2 T00051033
0204724116138682024010411357+37133-080683FM-15+0642KPSK V0203205N00415007325MN0160935N5+00055-00355999999ADDGA1085+007325999GD14991+0073259GE19AGL   +99999+99999GF199999999999007321999999MA1101565094065OC101035REMMET09001/04/24 06:35:02 METAR KPSK 041135Z 32008G20KT 10SM OVC024 01/M03 A2999 RMK AO2 T00051035
0231724116138682024010411557+37133-080683FM-15+0642KPSK V0203205V00465006715MN0160935N5+00045-00325999999ADDGA1085+006715999GD14991+0067159GE19AGL   +99999+99999GF199999999999006711999999KA1060M+00111KA2060N+00001MA1101635094125REMMET09901/04/24 06:55:02 METAR KPSK 041155Z 32009KT 10SM OVC022 00/M03 A3001 RMK AO2 T00041032 10011 20000
0204724116138682024010412157+37133-080683FM-15+0642KPSK V0203305N00575006105MN0160935N5+00025-00305999999ADDGA1085+006105999GD14991+0061059GE19AGL   +99999+99999GF199999999999006101999999MA1101665094165OC100985REMMET09001/04/24 07:15:02 METAR KPSK 041215Z 33011G19KT 10SM OVC020 00/M03 A3002 RMK AO2 T00021030
0193724116138682024010412357+37133-080683FM-15+0642KPSK V0203205N00415006105MN0160935N5+00005-00345999999ADDGA1085+006105999GD14991+0061059GE19AGL   +99999+99999GF199999999999006101999999MA1101665094165REMMET08701/04/24 07:35:02 METAR KPSK 041235Z 32008KT 10SM OVC020 00/M03 A3002 RMK AO2 T00001034
0242724116138682024010412557+37133-080683FM-15+0642KPSK V0203405N00515007325MN0160935N5+00015-00425999999ADDGA1075+007325999GA2085+008535999GD13991+0073259GD24991+0085359GE19AGL   +99999+99999GF199999999999007321999999MA1101735094225OC101245REMMET09701/04/24 07:55:02 METAR KPSK 041255Z 34010G24KT 10SM BKN024 OVC028 00/M04 A3004 RMK AO2 T00011042
0204724116138682024010413157+37133-080683FM-15+0642KPSK V0203505N00625007925MN0160935N5+00005-00485999999ADDGA1085+007925999GD14991+0079259GE19AGL   +99999+99999GF199999999999007921999999MA1101765094255OC100935REMMET09001/04/24 08:15:02 METAR KPSK 041315Z 35012G18KT 10SM OVC026 00/M05 A3005 RMK AO2 T00001048
0204724116138682024010413357+37133-080683FM-15+0642KPSK V0203405N00775007925MN0160935N5-00045-00475999999ADDGA1085+007925999GD14991+0079259GE19AGL   +99999+99999GF199999999999007921999999MA1101795094285OC100985REMMET09001/04/24 08:35:02 METAR KPSK 041335Z 34015G19KT 10SM OVC026 00/M05 A3006 RMK AO2 T10041047
0205724116138682024010413557+37133-080683FM-15+0642KPSK V0203205N00465007325MN0160935N5-00065-00485999999ADDGA1085+007325999GD14991+0073259GE19AGL   +99999+99999GF199999999999007321999999MA1101865094355OC100825REMMET09101/04/24 08:55:02 METAR KPSK 041355Z 32009G16KT 10SM OVC024 M01/M05 A3008 RMK AO2 T10061048
0205724116138682024010414157+37133-080683FM-15+0642KPSK V0203305N00725006715MN0160935N5-00075-00515999999ADDGA1085+006715999GD14991+0067159GE19AGL   +99999+99999GF199999999999006711999999MA1101905094385OC101035REMMET09101/04/24 09:15:02 METAR KPSK 041415Z 33014G20KT 10SM OVC022 M01/M05 A3009 RMK AO2 T10071051
0205724116138682024010414357+37133-080683FM-15+0642KPSK V0203205N00575006715MN0160935N5-00085-00535999999ADDGA1085+006715999GD14991+0067159GE19AGL   +99999+99999GF199999999999006711999999MA1101935094415OC101085REMMET09101/04/24 09:35:02 METAR KPSK 041435Z 32011G21KT 10SM OVC022 M01/M05 A3010 RMK AO2 T10081053
0194724116138682024010414557+37133-080683FM-15+0642KPSK V0203505N00365007325MN0160935N5-00105-00545999999ADDGA1085+007325999GD14991+0073259GE19AGL   +99999+99999GF199999999999007321999999MA1102005094475REMMET08801/04/24 09:55:02 METAR KPSK 041455Z 35007KT 10SM OVC024 M01/M05 A3012 RMK AO2 T10101054
0205724116138682024010415157+37133-080683FM-15+0642KPSK V0203205N00885007325MN0160935N5-00105-00585999999ADDGA1085+007325999GD14991+0073259GE19AGL   +99999+99999GF199999999999007321999999MA1102005094475OC101345REMMET09101/04/24 10:15:02 METAR KPSK 041515Z 32017G26KT 10SM OVC024 M01/M06 A3012 RMK AO2 T10101058
0205724116138682024010415357+37133-080683FM-15+0642KPSK V0203405V00515007925MN0160935N5-00105-00585999999ADDGA1085+007925999GD14991+0079259GE19AGL   +99999+99999GF199999999999007921999999MA1102035094515OC101135REMMET09101/04/24 10:35:02 METAR KPSK 041535Z 34010G22KT 10SM OVC026 M01/M06 A3013 RMK AO2 T10101058
0205724116138682024010415557+37133-080683FM-15+0642KPSK V0203505N00515007925MN0160935N5-00075-00585999999ADDGA1085+007925999GD14991+0079259GE19AGL   +99999+99999GF199999999999007921999999MA1102035094515OC101035REMMET09101/04/24 10:55:02 METAR KPSK 041555Z 35010G20KT 10SM OVC026 M01/M06 A3013 RMK AO2 T10071058
0205724116138682024010416157+37133-080683FM-15+0642KPSK V0203305N00625007925MN0160935N5-00085-00555999999ADDGA1085+007925999GD14991+0079259GE19AGL   +99999+99999GF199999999999007921999999MA1102035094515OC100885REMMET09101/04/24 11:15:02 METAR KPSK 041615Z 33012G17KT 10SM OVC026 M01/M05 A3013 RMK AO2 T10081055
0205724116138682024010416357+37133-080683FM-15+0642KPSK V0203405V00575007925MN0160935N5-00075-00605999999ADDGA1085+007925999GD14991+0079259GE19AGL   +99999+99999GF199999999999007921999999MA1102035094515OC101085REMMET09101/04/24 11:35:02 METAR KPSK 041635Z 34011G21KT 10SM OVC026 M01/M06 A3013 RMK AO2 T10071060
0205724116138682024010416557+37133-080683FM-15+0642KPSK V0203505N00725007925MN0160935N5-00065-00585999999ADDGA1085+007925999GD14991+0079259GE19AGL   +99999+99999GF199999999999007921999999MA1102035094515OC101085REMMET09101/04/24 11:55:02 METAR KPSK 041655Z 35014G21KT 10SM OVC026 M01/M06 A3013 RMK AO2 T10061058
0204724116138682024010417157+37133-080683FM-15+0642KPSK V0203205N00465007925MN0160935N5-00055-00585999999ADDGA1085+007925999GD14991+0079259GE19AGL   +99999+99999GF199999999999007921999999MA1102035094515OC100775REMMET09001/04/24 12:15:02 METAR KPSK 041715Z 32009G15KT 10SM OVC026 00/M06 A3013 RMK AO2 T10051058
0204724116138682024010417357+37133-080683FM-15+0642KPSK V0203005N00675009145MN0160935N5-00025-00605999999ADDGA1085+009145999GD14991+0091459GE19AGL   +99999+99999GF199999999999009141999999MA1102035094515OC100935REMMET09001/04/24 12:35:02 METAR KPSK 041735Z 30013G18KT 10SM OVC030 00/M06 A3013 RMK AO2 T10021060
0231724116138682024010417557+37133-080683FM-15+0642KPSK V0203105N00415009145MN0160935N5-00015-00605999999ADDGA1085+009145999GD14991+0091459GE19AGL   +99999+99999GF199999999999009141999999KA1060M+00041KA2060N-00101MA1102035094515REMMET09901/04/24 12:55:02 METAR KPSK 041755Z 31008KT 10SM OVC030 00/M06 A3013 RMK AO2 T10011060 10004 21010
0204724116138682024010418157+37133-080683FM-15+0642KPSK V0203105N00515009145MN0160935N5+00005-00605999999ADDGA1085+009145999GD14991+0091459GE19AGL   +99999+99999GF199999999999009141999999MA1102035094515OC100935REMMET09001/04/24 13:15:02 METAR KPSK 041815Z 31010G18KT 10SM OVC030 00/M06 A3013 RMK AO2 T00001060
0193724116138682024010418357+37133-080683FM-15+0642KPSK V0203205N00465009755MN0160935N5+00045-00615999999ADDGA1085+009755999GD14991+0097559GE19AGL   +99999+99999GF199999999999009751999999MA1102075094545REMMET08701/04/24 13:35:02 METAR KPSK 041835Z 32009KT 10SM OVC032 00/M06 A3014 RMK AO2 T00041061
0193724116138682024010418557+37133-080683FM-15+0642KPSK V0203405N00465010365MN0160935N5+00055-00625999999ADDGA1085+010365999GD14991+0103659GE19AGL   +99999+99999GF199999999999010361999999MA1102035094515REMMET08701/04/24 13:55:02 METAR KPSK 041855Z 34009KT 10SM OVC034 01/M06 A3013 RMK AO2 T00051062
0204724116138682024010419157+37133-080683FM-15+0642KPSK V0203205N00515010365MN0160935N5+00055-00625999999ADDGA1085+010365999GD14991+0103659GE19AGL   +99999+99999GF199999999999010361999999MA1102075094545OC100725REMMET09001/04/24 14:15:02 METAR KPSK 041915Z 32010G14KT 10SM OVC034 01/M06 A3014 RMK AO2 T00051062
0204724116138682024010419357+37133-080683FM-15+0642KPSK V0203305N00515010975MN0160935N5+00045-00625999999ADDGA1075+010975999GD13991+0109759GE19AGL   +99999+99999GF199999999999010971999999MA1102075094545OC100825REMMET09001/04/24 14:35:02 METAR KPSK 041935Z 33010G16KT 10SM BKN036 00/M06 A3014 RMK AO2 T00041062
0231724116138682024010419557+37133-080683FM-15+0642KPSK V0203305N00265010365MN0160935N5+00055-00605999999ADDGA1075+010365999GA2085+012505999GD13991+0103659GD24991+0125059GE19AGL   +99999+99999GF199999999999010361999999MA1102105094575REMMET09401/04/24 14:55:02 METAR KPSK 041955Z 33005KT 10SM BKN034 OVC041 01/M06 A3015 RMK AO2 T00051060
0204724116138682024010420157+37133-080683FM-15+0642KPSK V0203305N00465010365MN0160935N5+00075-00615999999ADDGA1085+010365999GD14991+0103659GE19AGL   +99999+99999GF199999999999010361999999MA1102135094605OC100725REMMET09001/04/24 15:15:02 METAR KPSK 042015Z 33009G14KT 10SM OVC034 01/M06 A3016 RMK AO2 T00071061
0204724116138682024010420357+37133-080683FM-15+0642KPSK V0203405N00465010975MN0160935N5+00055-00595999999ADDGA1085+010975999GD14991+0109759GE19AGL   +99999+99999GF199999999999010971999999MA1102135094605OC100775REMMET09001/04/24 15:35:02 METAR KPSK 042035Z 34009G15KT 10SM OVC036 01/M06 A3016 RMK AO2 T00051059
0193724116138682024010420557+37133-080683FM-15+0642KPSK V0203205N00415010365MN0160935N5+00035-00605999999ADDGA1085+010365999GD14991+0103659GE19AGL   +99999+99999GF199999999999010361999999MA1102205094675REMMET08701/04/24 15:55:02 METAR KPSK 042055Z 32008KT 10SM OVC034 00/M06 A3018 RMK AO2 T00031060
0193724116138682024010421157+37133-080683FM-15+0642KPSK V0203205N00155010975MN0160935N5+00025-00665999999ADDGA1075+010975999GD13991+0109759GE19AGL   +99999+99999GF199999999999010971999999MA1102245094705REMMET08701/04/24 16:15:02 METAR KPSK 042115Z 32003KT 10SM BKN036 00/M07 A3019 RMK AO2 T00021066
0193724116138682024010421357+37133-080683FM-15+0642KPSK V0203105N00365010975MN0160935N5+00015-00685999999ADDGA1085+010975999GD14991+0109759GE19AGL   +99999+99999GF199999999999010971999999MA1102245094705REMMET08701/04/24 16:35:02 METAR KPSK 042135Z 31007KT 10SM OVC036 00/M07 A3019 RMK AO2 T00011068
0193724116138682024010421557+37133-080683FM-15+0642KPSK V0203105N00365010975MN0160935N5+00005-00685999999ADDGA1085+010975999GD14991+0109759GE19AGL   +99999+99999GF199999999999010971999999MA1102245094705REMMET08701/04/24 16:55:02 METAR KPSK 042155Z 31007KT 10SM OVC036 00/M07 A3019 RMK AO2 T00001068
0193724116138682024010422157+37133-080683FM-15+0642KPSK V0203305N00315010975MN0160935N5-00025-00725999999ADDGA1075+010975999GD13991+0109759GE19AGL   +99999+99999GF199999999999010971999999MA1102245094705REMMET08701/04/24 17:15:02 METAR KPSK 042215Z 33006KT 10SM BKN036 00/M07 A3019 RMK AO2 T10021072
0193724116138682024010422357+37133-080683FM-15+0642KPSK V0203205N00415010975MN0160935N5-00045-00705999999ADDGA1075+010975999GD13991+0109759GE19AGL   +99999+99999GF199999999999010971999999MA1102275094735REMMET08701/04/24 17:35:02 METAR KPSK 042235Z 32008KT 10SM BKN036 00/M07 A3020 RMK AO2 T10041070
0213724116138682024010422557+37133-080683FM-15+0642KPSK V0203305N005752200059N0160935N5-00065-00715999999ADDGA1045+010975999GD12991+0109759GE19AGL   +99999+99999GF104995999999010971999999MA1102275094735REMMET08801/04/24 17:55:02 METAR KPSK 042255Z 33011KT 10SM SCT036 M01/M07 A3020 RMK AO2 T10061071EQDD01      0ADE726
0194724116138682024010423157+37133-080683FM-15+0642KPSK V0203105N00365010365MN0160935N5-00105-00705999999ADDGA1075+010365999GD13991+0103659GE19AGL   +99999+99999GF199999999999010361999999MA1102305094765REMMET08801/04/24 18:15:02 METAR KPSK 042315Z 31007KT 10SM BKN034 M01/M07 A3021 RMK AO2 T10101070
0213724116138682024010423357+37133-080683FM-15+0642KPSK V0203305N004152200059N0160935N5-00105-00715999999ADDGA1045+010365999GD12991+0103659GE19AGL   +99999+99999GF104995999999010361999999MA1102305094765REMMET08801/04/24 18:35:02 METAR KPSK 042335Z 33008KT 10SM SCT034 M01/M07 A3021 RMK AO2 T10101071EQDD01      0ADE726
0207724116138682024010423557+37133-080683FM-15+0642KPSK V0203205N003652200059N0160935N5-00125-00725999999ADDGA1005+999999999GD10991+9999999GF100991999999999999999999KA1060M+00081KA2060N-00141MA1102305094765REMMET09701/04/24 18:55:02 METAR KPSK 042355Z 32007KT 10SM CLR M01/M07 A3021 RMK AO2 T10121072 10008 21014
0213724116138682024010500157+37133-080683FM-15+0642KPSK V0203105N002652200059N0160935N5-00135-00735999999ADDGA1045+010365999GD12991+0103659GE19AGL   +99999+99999GF104995999999010361999999MA1102345094795REMMET08801/04/24 19:15:01 METAR KPSK 050015Z 31005KT 10SM SCT034 M01/M07 A3022 RMK AO2 T10131073EQDD01      0ADE726
0213724116138682024010500357+37133-080683FM-15+0642KPSK V0203305N002652200059N0160935N5-00155-00725999999ADDGA1045+010365999GD12991+0103659GE19AGL   +99999+99999GF104995999999010361999999MA1102345094795REMMET08801/04/24 19:35:01 METAR KPSK 050035Z 33005KT 10SM SCT034 M01/M07 A3022 RMK AO2 T10151072EQDD01      0ADE726
0169724116138682024010500557+37133-080683FM-15+0642KPSK V0203305N003152200059N0160935N5-00135-00735999999ADDGA1005+999999999GD10991+9999999GF100991999999999999999999MA1102375094825REMMET08501/04/24 19:55:01 METAR KPSK 050055Z 33006KT 10SM CLR M01/M07 A3023 RMK AO2 T10131073
0169724116138682024010501157+37133-080683FM-15+0642KPSK V0209999C000052200059N0160935N5-00185-00755999999ADDGA1005+999999999GD10991+9999999GF100991999999999999999999MA1102375094825REMMET08501/04/24 20:15:01 METAR KPSK 050115Z 00000KT 10SM CLR M02/M07 A3023 RMK AO2 T10181075
0169724116138682024010501357+37133-080683FM-15+0642KPSK V0203305N003652200059N0160935N5-00195-00755999999ADDGA1005+999999999GD10991+9999999GF100991999999999999999999MA1102345094795REMMET08501/04/24 20:35:01 METAR KPSK 050135Z 33007KT 10SM CLR M02/M07 A3022 RMK AO2 T10191075
0169724116138682024010501557+37133-080683FM-15+0642KPSK V0203305N003152200059N0160935N5-00175-00745999999ADDGA1005+999999999GD10991+9999999GF100991999999999999999999MA1102305094765REMMET08501/04/24 20:55:01 METAR KPSK 050155Z 33006KT 10SM CLR M02/M07 A3021 RMK AO2 T10171074
0169724116138682024010502157+37133-080683FM-15+0642KPSK V0203205N004152200059N0160935N5-00175-00755999999ADDGA1005+999999999GD10991+9999999GF100991999999999999999999MA1102345094795REMMET08501/04/24 21:15:02 METAR KPSK 050215Z 32008KT 10SM CLR M02/M07 A3022 RMK AO2 T10171075
0169724116138682024010502357+37133-080683FM-15+0642KPSK V0203305N001552200059N0160935N5-00175-00735999999ADDGA1005+999999999GD10991+9999999GF100991999999999999999999MA1102345094795REMMET08501/04/24 21:35:02 METAR KPSK 050235Z 33003KT 10SM CLR M02/M07 A3022 RMK AO2 T10171073
0169724116138682024010502557+37133-080683FM-15+0642KPSK V0203605N002152200059N0160935N5-00195-00735999999ADDGA1005+999999999GD10991+9999999GF100991999999999999999999MA1102345094795REMMET08501/04/24 21:55:02 METAR KPSK 050255Z 36004KT 10SM CLR M02/M07 A3022 RMK AO2 T10191073
0169724116138682024010503157+37133-080683FM-15+0642KPSK V0203105N002152200059N0160935N5-00205-00735999999ADDGA1005+999999999GD10991+9999999GF100991999999999999999999MA1102345094795REMMET08501/04/24 22:15:02 METAR KPSK 050315Z 31004KT 10SM CLR M02/M07 A3022 RMK AO2 T10201073
0169724116138682024010503357+37133-080683FM-15+0642KPSK V0203505N001552200059N0160935N5-00225-00715999999ADDGA1005+999999999GD10991+9999999GF100991999999999999999999MA1102405094865REMMET08501/04/24 22:35:02 METAR KPSK 050335Z 35003KT 10SM CLR M02/M07 A3024 RMK AO2 T10221071
0169724116138682024010503557+37133-080683FM-15+0642KPSK V0203205N001552200059N0160935N5-00275-00725999999ADDGA1005+999999999GD10991+9999999GF100991999999999999999999MA1102405094865REMMET08501/04/24 22:55:02 METAR KPSK 050355Z 32003KT 10SM CLR M03/M07 A3024 RMK AO2 T10271072
0169724116138682024010504157+37133-080683FM-15+0642KPSK V0209999C000052200059N0160935N5-00345-00715999999ADDGA1005+999999999GD10991+9999999GF100991999999999999999999MA1102445094895REMMET08501/04/24 23:15:02 METAR KPSK 050415Z 00000KT 10SM CLR M03/M07 A3025 RMK AO2 T10341071
0169724116138682024010504357+37133-080683FM-15+0642KPSK V0202305N001552200059N0160935N5-00455-00785999999ADDGA1005+999999999GD10991+9999999GF100991999999999999999999MA1102475094925REMMET08501/04/24 23:35:02 METAR KPSK 050435Z 23003KT 10SM CLR M04/M08 A3026 RMK AO2 T10451078
0169724116138682024010504557+37133-080683FM-15+0642KPSK V0209999C000052200059N0160935N5-00475-00815999999ADDGA1005+999999999GD10991+9999999GF100991999999999999999999MA1102405094865REMMET08501/04/24 23:55:02 METAR KPSK 050455Z 00000KT 10SM CLR M05/M08 A3024 RMK AO2 T10471081
0169724116138682024010505157+37133-080683FM-15+0642KPSK V0203105N002152200059N0160935N5-00525-00835999999ADDGA1005+999999999GD10991+9999999GF100991999999999999999999MA1102405094865REMMET08501/05/24 00:15:02 METAR KPSK 050515Z 31004KT 10SM CLR M05/M08 A3024 RMK AO2 T10521083
0169724116138682024010505357+37133-080683FM-15+0642KPSK V0202405N001552200059N0160935N5-00555-00815999999ADDGA1005+999999999GD10991+9999999GF100991999999999999999999MA1102405094865REMMET08501/05/24 00:35:02 METAR KPSK 050535Z 24003KT 10SM CLR M05/M08 A3024 RMK AO2 T10551081
0243724116138682024010505557+37133-080683FM-15+0642KPSK V0202405N002152200059N0160935N5-00635-00865999999ADDGA1005+999999999GD10991+9999999GF100991999999999999999999KA1060M-00111KA2060N-00631KA3240M+00111KA4240N-00631MA1102445094895REMMET10701/05/24 00:55:02 METAR KPSK 050555Z 24004KT 10SM CLR M06/M09 A3025 RMK AO2 T10631086 11011 21063 400111063
0169724116138682024010506157+37133-080683FM-15+0642KPSK V0203005N001552200059N0160935N5-00585-00865999999ADDGA1005+999999999GD10991+9999999GF100991999999999999999999MA1102405094865REMMET08501/05/24 01:15:02 METAR KPSK 050615Z 30003KT 10SM CLR M06/M09 A3024 RMK AO2 T10581086
0169724116138682024010506357+37133-080683FM-15+0642KPSK V0209999C000052200059N0160935N5-00655-00885999999ADDGA1005+999999999GD10991+9999999GF100991999999999999999999MA1102445094895REMMET08501/05/24 01:35:02 METAR KPSK 050635Z 00000KT 10SM CLR M06/M09 A3025 RMK AO2 T10651088
0169724116138682024010506557+37133-080683FM-15+0642KPSK V0209999C000052200059N0160935N5-00575-00825999999ADDGA1005+999999999GD10991+9999999GF100991999999999999999999MA1102405094865REMMET08501/05/24 01:55:02 METAR KPSK 050655Z 00000KT 10SM CLR M06/M08 A3024 RMK AO2 T10571082
0169724116138682024010507157+37133-080683FM-15+0642KPSK V0209999C000052200059N0160935N5-00655-00845999999ADDGA1005+999999999GD10991+9999999GF100991999999999999999999MA1102475094925REMMET08501/05/24 02:15:02 METAR KPSK 050715Z 00000KT 10SM CLR M06/M08 A3026 RMK AO2 T10651084
0169724116138682024010507357+37133-080683FM-15+0642KPSK V0209999C000052200059N0160935N5-00625-00815999999ADDGA1005+999999999GD10991+9999999GF100991999999999999999999MA1102475094925REMMET08501/05/24 02:35:02 METAR KPSK 050735Z 00000KT 10SM CLR M06/M08 A3026 RMK AO2 T10621081
0169724116138682024010507557+37133-080683FM-15+0642KPSK V0202105N001552200059N0160935N5-00655-00855999999ADDGA1005+999999999GD10991+9999999GF100991999999999999999999MA1102475094925REMMET08501/05/24 02:55:02 METAR KPSK 050755Z 21003KT 10SM CLR M06/M08 A3026 RMK AO2 T10651085
0169724116138682024010508157+37133-080683FM-15+0642KPSK V0209999C000052200059N0160935N5-00725-00925999999ADDGA1005+999999999GD10991+9999999GF100991999999999999999999MA1102445094895REMMET08501/05/24 03:15:02 METAR KPSK 050815Z 00000KT 10SM CLR M07/M09 A3025 RMK AO2 T10721092
0169724116138682024010508357+37133-080683FM-15+0642KPSK V0209999C000052200059N0160935N5-00695-00905999999ADDGA1005+999999999GD10991+9999999GF100991999999999999999999MA1102405094865REMMET08501/05/24 03:35:02 METAR KPSK 050835Z 00000KT 10SM CLR M07/M09 A3024 RMK AO2 T10691090
0169724116138682024010508557+37133-080683FM-15+0642KPSK V0209999C000052200059N0160935N5-00695-00865999999ADDGA1005+999999999GD10991+9999999GF100991999999999999999999MA1102405094865REMMET08501/05/24 03:55:02 METAR KPSK 050855Z 00000KT 10SM CLR M07/M09 A3024 RMK AO2 T10691086
0169724116138682024010509157+37133-080683FM-15+0642KPSK V0209999C000052200059N0160935N5-00625-00815999999ADDGA1005+999999999GD10991+9999999GF100991999999999999999999MA1102405094865REMMET08501/05/24 04:15:02 METAR KPSK 050915Z 00000KT 10SM CLR M06/M08 A3024 RMK AO2 T10621081
0169724116138682024010509357+37133-080683FM-15+0642KPSK V0209999C000052200059N0160935N5-00635-00855999999ADDGA1005+999999999GD10991+9999999GF100991999999999999999999MA1102405094865REMMET08501/05/24 04:35:02 METAR KPSK 050935Z 00000KT 10SM CLR M06/M08 A3024 RMK AO2 T10631085
0169724116138682024010509557+37133-080683FM-15+0642KPSK V0202805N001552200059N0160935N5-00625-00855999999ADDGA1005+999999999GD10991+9999999GF100991999999999999999999MA1102445094895REMMET08501/05/24 04:55:02 METAR KPSK 050955Z 28003KT 10SM CLR M06/M08 A3025 RMK AO2 T10621085
0169724116138682024010510157+37133-080683FM-15+0642KPSK V0209999C000052200059N0160935N5-00815-00965999999ADDGA1005+999999999GD10991+9999999GF100991999999999999999999MA1102475094925REMMET08501/05/24 05:15:02 METAR KPSK 051015Z 00000KT 10SM CLR M08/M10 A3026 RMK AO2 T10811096
0169724116138682024010510357+37133-080683FM-15+0642KPSK V0209999C000052200059N0160935N5-00855-00975999999ADDGA1005+999999999GD10991+9999999GF100991999999999999999999MA1102515094955REMMET08501/05/24 05:35:02 METAR KPSK 051035Z 00000KT 10SM CLR M08/M10 A3027 RMK AO2 T10851097
0169724116138682024010510557+37133-080683FM-15+0642KPSK V0209999C000052200059N0160935N5-00885-00995999999ADDGA1005+999999999GD10991+9999999GF100991999999999999999999MA1102515094955REMMET08501/05/24 05:55:02 METAR KPSK 051055Z 00000KT 10SM CLR M09/M10 A3027 RMK AO2 T10881099
0169724116138682024010511157+37133-080683FM-15+0642KPSK V0209999C000052200059N0160935N5-00825-00955999999ADDGA1005+999999999GD10991+9999999GF100991999999999999999999MA1102515094955REMMET08501/05/24 06:15:02 METAR KPSK 051115Z 00000KT 10SM CLR M08/M09 A3027 RMK AO2 T10821095
0169724116138682024010511357+37133-080683FM-15+0642KPSK V0209999C000052200059N0160935N5-00845-00975999999ADDGA1005+999999999GD10991+9999999GF100991999999999999999999MA1102545094985REMMET08501/05/24 06:35:02 METAR KPSK 051135Z 00000KT 10SM CLR M08/M10 A3028 RMK AO2 T10841097
0207724116138682024010511557+37133-080683FM-15+0642KPSK V0209999C000052200059N0160935N5-00815-00965999999ADDGA1005+999999999GD10991+9999999GF100991999999999999999999KA1060M-00521KA2060N-00901MA1102575095025REMMET09701/05/24 06:55:02 METAR KPSK 051155Z 00000KT 10SM CLR M08/M10 A3029 RMK AO2 T10811096 11052 21090
0169724116138682024010512157+37133-080683FM-15+0642KPSK V0209999C000052200059N0160935N5-00835-00965999999ADDGA1005+999999999GD10991+9999999GF100991999999999999999999MA1102575095025REMMET08501/05/24 07:15:02 METAR KPSK 051215Z 00000KT 10SM CLR M08/M10 A3029 RMK AO2 T10831096
0169724116138682024010512357+37133-080683FM-15+0642KPSK V0202205N002152200059N0160935N5-00815-00925999999ADDGA1005+999999999GD10991+9999999GF100991999999999999999999MA1102575095025REMMET08501/05/24 07:35:02 METAR KPSK 051235Z 22004KT 10SM CLR M08/M09 A3029 RMK AO2 T10811092
0169724116138682024010512557+37133-080683FM-15+0642KPSK V0202105N002652200059N0160935N5-00765-00895999999ADDGA1005+999999999GD10991+9999999GF100991999999999999999999MA1102615095055REMMET08501/05/24 07:55:02 METAR KPSK 051255Z 21005KT 10SM CLR M08/M09 A3030 RMK AO2 T10761089
