0130013590999992019010100004+60533+008200FM-12+077399999V0202301N006019999999N999999999-00041-00201099411ADDAA106004031MA1999999090361MD1810421+9999OD139901901999REMSYN06401359 16/// /2306 11004 21020 39036 49941 58042 60041 333 91119=
0110013590999992019010101004+60533+008200FM-12+077399999V0202401N006019999999N999999999-00021-00121099201ADDAA101000531MA1999999090181MD1810521+9999REMSYN05801359 26/// /2406 11002 21012 39018 49920 58052 333 69955=
0110013590999992019010102004+60533+008200FM-12+077399999V0202401N007019999999N999999999+00001-00111099041ADDAA101000231MA1999999090041MD1610611+9999REMSYN05801359 26/// /2407 10000 21011 39004 49904 56061 333 69925=
0110013590999992019010103004+60533+008200FM-12+077399999V0202501N007019999999N999999999+00081-00131099201ADDAA101000091MA1999999090211MD1510181+9999REMSYN05801359 26/// /2507 10008 21013 39021 49920 55018 333 60005=
0110013590999992019010104004+60533+008200FM-12+077399999V0202601N006019999999N999999999+00111-00351099331ADDAA101000231MA1999999090341MD1310161+9999REMSYN05801359 26/// /2606 10011 21035 39034 49933 53016 333 69925=
0110013590999992019010105004+60533+008200FM-12+077399999V0202701N006019999999N999999999+00101-00441099391ADDAA101000131MA1999999090391MD1110371+9999REMSYN05801359 26/// /2706 10010 21044 39039 49939 51037 333 69915=
0293013590999992019010106004+60533+008200FM-12+077399999V0202601N009012200019N003100199+00221-00391099401ADDAA112005031AA224009131AJ100083100080099AY171021AY231021GA1011+008001061GE19AGL   +99999+99999GF101991011999008001999999IA1249KA1240N-00081MA1999999090441MD1110211+9999MW1381OD139902001999REMSYN09401359 11531 12609 10022 21039 39044 49940 51021 60052 73873 81500 333 21008 44008 70091 91120=
0110013590999992019010107004+60533+008200FM-12+077399999V0202601N005019999999N999999999+00111-00381099681ADDAA101000131MA1999999090651MD1310311+9999REMSYN05801359 26/// /2605 10011 21038 39065 49968 53031 333 69915=
0110013590999992019010108004+60533+008200FM-12+077399999V0202701N005019999999N999999999+00111-00591099831ADDAA101000131MA1999999090801MD1310381+9999REMSYN05801359 26/// /2705 10011 21059 39080 49983 53038 333 69915=
0110013590999992019010109004+60533+008200FM-12+077399999V0202701N006019999999N999999999+00071-00621099931ADDAA101000091MA1999999090871MD1110451+9999REMSYN05801359 26/// /2706 10007 21062 39087 49993 51045 333 60005=
0110013590999992019010110004+60533+008200FM-12+077399999V0202701N004019999999N999999999+00001-00541100181ADDAA101000131MA1999999091071MD1310421+9999REMSYN05801359 26/// /2704 10000 21054 39107 40018 53042 333 69915=
0110013590999992019010111004+60533+008200FM-12+077399999V0202701N006019999999N999999999-00061-00481100421ADDAA101000331MA1999999091281MD1310491+9999REMSYN05801359 26/// /2706 11006 21048 39128 40042 53049 333 69935=
0228013590999992019010112004+60533+008200FM-12+077399999V0202601N006012200019N022000199-00131-00541100601ADDAA106000731AY181021AY231021GA1031+004501091GE19AGL   +99999+99999GF103991031999004501999999MA1999999091421MD1110541+9999MW1851OD139901601999REMSYN07601359 11472 32606 11013 21054 39142 40060 51054 69971 78583 83300 333 91116=
0110013590999992019010113004+60533+008200FM-12+077399999V0202601N007019999999N999999999-00211-00621100801ADDAA101000131MA1999999091571MD1110481+9999REMSYN05801359 26/// /2607 11021 21062 39157 40080 51048 333 69915=
0110013590999992019010114004+60533+008200FM-12+077399999V0202801N005019999999N999999999-00171-00741100981ADDAA101000231MA1999999091751MD1310471+9999REMSYN05801359 26/// /2805 11017 21074 39175 40098 53047 333 69925=
0110013590999992019010115004+60533+008200FM-12+077399999V0202701N004019999999N999999999-00181-00671101161ADDAA101000091MA1999999091911MD1310481+9999REMSYN05801359 26/// /2704 11018 21067 39191 40116 53048 333 60005=
0110013590999992019010116004+60533+008200FM-12+077399999V0202501N004019999999N999999999-00161-00621101281ADDAA101000091MA1999999092021MD1110441+9999REMSYN05801359 26/// /2504 11016 21062 39202 40128 51044 333 60005=
0110013590999992019010117004+60533+008200FM-12+077399999V0202801N005019999999N999999999-00091-00581101421ADDAA101000091MA1999999092171MD1310421+9999REMSYN05801359 26/// /2805 11009 21058 39217 40142 53042 333 60005=
0247013590999992019010118004+60533+008200FM-12+077399999V0203301N003019999999N030000199-00081-00711101631ADDAA112001031AY181021AY231021GA1051+008001061GE19AGL   +99999+99999GF105991051999008001999999KA1120M+00211MA1999999092371MD1310461+9999MW1021OD139901501999REMSYN08201359 11580 53303 11008 21071 39237 40163 53046 60012 70283 85500 333 10021 91115=
0110013590999992019010119004+60533+008200FM-12+077399999V0202701N004019999999N999999999-00151-00701101831ADDAA101000091MA1999999092531MD1110511+9999REMSYN05801359 26/// /2704 11015 21070 39253 40183 51051 333 60005=
0039013590999992019010120004+60533+008200FM-12+077399999V0209999C999999999999N999999999+99999+99999999999REMSYN03001359 46/// ///// 1//// 2////=
0110013590999992019010121004+60533+008200FM-12+077399999V0202501N004019999999N999999999-00281-00721102251ADDAA101000091MA1999999092861MD1310491+9999REMSYN05801359 26/// /2504 11028 21072 39286 40225 53049 333 60005=
0110013590999992019010122004+60533+008200FM-12+077399999V0202101N002019999999N999999999-00321-00941102401ADDAA101000091MA1999999092991MD1110451+9999REMSYN05801359 26/// /2102 11032 21094 39299 40240 51045 333 60005=
0110013590999992019010123004+60533+008200FM-12+077399999V0203401N003019999999N999999999-00301-01071102541ADDAA101000091MA1999999093121MD1110411+9999REMSYN05801359 26/// /3403 11030 21107 39312 40254 51041 333 60005=
0130013590999992019010200004+60533+008200FM-12+077399999V0203201N002019999999N999999999-00331-01001102691ADDAA106000131MA1999999093241MD1210381+9999OD139901001999REMSYN06401359 16/// /3202 11033 21100 39324 40269 52038 69911 333 91110=
0110013590999992019010201004+60533+008200FM-12+077399999V0203601N003019999999N999999999-00301-01051102761ADDAA101000091MA1999999093311MD1110321+9999REMSYN05801359 26/// /3603 11030 21105 39331 40276 51032 333 60005=
0110013590999992019010202004+60533+008200FM-12+077399999V0201201N001019999999N999999999-00441-01051102961ADDAA101000091MA1999999093461MD1310331+9999REMSYN05801359 26/// /1201 11044 21105 39346 40296 53033 333 60005=
0110013590999992019010203004+60533+008200FM-12+077399999V0203201N003019999999N999999999-00351-01051102961ADDAA101000091MA1999999093491MD1110251+9999REMSYN05801359 26/// /3203 11035 21105 39349 40296 51025 333 60005=
0110013590999992019010204004+60533+008200FM-12+077399999V0203201N004019999999N999999999-00361-01031103021ADDAA101000091MA1999999093541MD1110221+9999REMSYN05801359 26/// /3204 11036 21103 39354 40302 51022 333 60005=
0110013590999992019010205004+60533+008200FM-12+077399999V0202901N005019999999N999999999-00361-01041103061ADDAA101000091MA1999999093571MD1210111+9999REMSYN05801359 26/// /2905 11036 21104 39357 40306 52011 333 60005=
0293013590999992019010206004+60533+008200FM-12+077399999V0202801N003012200019N065000199-00371-01011103141ADDAA112000131AA224001131AJ100073100070099AY101021AY201021GA1011+012501061GE19AGL   +99999+99999GF101991011999012501999999IA1289KA1240N-00491MA1999999093641MD1310141+9999MW1021OD139901201999REMSYN09401359 11687 12803 11037 21101 39364 40314 53014 69912 70200 81500 333 21049 48007 70011 91112=
0110013590999992019010207004+60533+008200FM-12+077399999V0202001N004019999999N999999999-00371-01041103181ADDAA101000091MA1999999093671MD1990131+9999REMSYN05801359 26/// /2004 11037 21104 39367 40318 50013 333 60005=
0110013590999992019010208004+60533+008200FM-12+077399999V0202301N003019999999N999999999-00371-01051103231ADDAA101000091MA1999999093721MD1210151+9999REMSYN05801359 26/// /2303 11037 21105 39372 40323 52015 333 60005=
0110013590999992019010209004+60533+008200FM-12+077399999V0202601N004019999999N999999999-00371-01001103281ADDAA101000091MA1999999093771MD1990131+9999REMSYN05801359 26/// /2604 11037 21100 39377 40328 50013 333 60005=
0110013590999992019010210004+60533+008200FM-12+077399999V0202501N005019999999N999999999-00361-01011103341ADDAA101000091MA1999999093831MD1110151+9999REMSYN05801359 26/// /2505 11036 21101 39383 40334 51015 333 60005=
0110013590999992019010211004+60533+008200FM-12+077399999V0202901N004019999999N999999999-00321-00981103361ADDAA101000091MA1999999093851MD1110131+9999REMSYN05801359 26/// /2904 11032 21098 39385 40336 51013 333 60005=
0260013590999992019010212004+60533+008200FM-12+077399999V0202501N004012200019N055000199-00301-00961103381ADDAA106000091AY131021AY201021GA1011+008001061GA2999+999999031GA3999+999999021GE19AGL   +99999+99999GF103991011999008001999999MA1999999093881MD1110111+9999MW1021OD139901101999REMSYN07601359 11585 32504 11030 21096 39388 40338 51011 60001 70230 81548 333 91111=
0110013590999992019010213004+60533+008200FM-12+077399999V0202501N002019999999N999999999-00401-00891103471ADDAA101000091MA1999999093931MD1310101+9999REMSYN05801359 26/// /2502 11040 21089 39393 40347 53010 333 60005=
0110013590999992019010214004+60533+008200FM-12+077399999V0202901N001019999999N999999999-00421-00911103501ADDAA101000091MA1999999093951MD1210101+9999REMSYN05801359 26/// /2901 11042 21091 39395 40350 52010 333 60005=
0110013590999992019010215004+60533+008200FM-12+077399999V0202701N004019999999N999999999-00381-00901103461ADDAA101000091MA1999999093931MD1990051+9999REMSYN05801359 26/// /2704 11038 21090 39393 40346 50005 333 60005=
0110013590999992019010216004+60533+008200FM-12+077399999V0202701N003019999999N999999999-00341-00921103451ADDAA101000091MA1999999093941MD1990001+9999REMSYN05801359 26/// /2703 11034 21092 39394 40345 50000 333 60005=
0110013590999992019010217004+60533+008200FM-12+077399999V0202401N003019999999N999999999-00301-00931103481ADDAA101000091MA1999999093971MD1310021+9999REMSYN05801359 26/// /2403 11030 21093 39397 40348 53002 333 60005=
0247013590999992019010218004+60533+008200FM-12+077399999V0202901N004012200019N070001199-00321-00911103511ADDAA112000091AY101021AY201021GA1011+012501081GE19AGL   +99999+99999GF101991011999012501999999KA1120M-00261MA1999999094001MD1210061+9999MW1021OD139901001999REMSYN08201359 11689 12904 11032 21091 39400 40351 52006 60002 70200 81100 333 11026 91110=
0110013590999992019010219004+60533+008200FM-12+077399999V0202801N004019999999N999999999-00311-00861103521ADDAA101000091MA1999999094011MD1210081+9999REMSYN05801359 26/// /2804 11031 21086 39401 40352 52008 333 60005=
0110013590999992019010220004+60533+008200FM-12+077399999V0202701N005019999999N999999999-00251-00831103491ADDAA101000091MA1999999093991MD1990021+9999REMSYN05801359 26/// /2705 11025 21083 39399 40349 50002 333 60005=
0110013590999992019010221004+60533+008200FM-12+077399999V0202201N007019999999N999999999-00291-00831103461ADDAA101000091MA1999999093961MD1810031+9999REMSYN05801359 26/// /2207 11029 21083 39396 40346 58003 333 60005=
0110013590999992019010222004+60533+008200FM-12+077399999V0202301N005019999999N999999999-00201-00791103511ADDAA101000091MA1999999094041MD1310031+9999REMSYN05801359 26/// /2305 11020 21079 39404 40351 53003 333 60005=
0110013590999992019010223004+60533+008200FM-12+077399999V0202601N004019999999N999999999-00191-00781103531ADDAA101000091MA1999999094051MD1310051+9999REMSYN05801359 26/// /2604 11019 21078 39405 40353 53005 333 60005=
0130013590999992019010300004+60533+008200FM-12+077399999V0203101N002019999999N999999999-00221-00731103591ADDAA106000091MA1999999094101MD1110141+9999OD139901101999REMSYN06401359 16/// /3102 11022 21073 39410 40359 51014 60001 333 91111=
0110013590999992019010301004+60533+008200FM-12+077399999V0202401N006019999999N999999999-00091-00681103501ADDAA101000091MA1999999094061MD1990021+9999REMSYN05801359 26/// /2406 11009 21068 39406 40350 50002 333 60005=
0110013590999992019010302004+60533+008200FM-12+077399999V0202001N007019999999N999999999-00101-00671103451ADDAA101000091MA1999999094011MD1810051+9999REMSYN05801359 26/// /2007 11010 21067 39401 40345 58005 333 60005=
0110013590999992019010303004+60533+008200FM-12+077399999V0202301N003019999999N999999999-00061-00611103461ADDAA101000091MA1999999094031MD1510071+9999REMSYN05801359 26/// /2303 11006 21061 39403 40346 55007 333 60005=
0110013590999992019010304004+60533+008200FM-12+077399999V0203001N002019999999N999999999-00011-00561103491ADDAA101000091MA1999999094081MD1310021+9999REMSYN05801359 26/// /3002 11001 21056 39408 40349 53002 333 60005=
0110013590999992019010305004+60533+008200FM-12+077399999V0203301N002019999999N999999999+00061-00581103471ADDAA101000091MA1999999094091MD1990071+9999REMSYN05801359 26/// /3302 10006 21058 39409 40347 50007 333 60005=
0309013590999992019010306004+60533+008200FM-12+077399999V0203001N006019999999N040000199+00191-00491103331ADDAA112000091AA224000091AJ100063100060099AY121021AY201021GA1021+008001061GA2999+999999021GE19AGL   +99999+99999GF108991021999008001999999IA1289KA1240N-00331MA1999999094011MD1810021+9999MW1021OD139901401999REMSYN09401359 11582 83006 10019 21049 39401 40333 58002 60002 70220 82507 333 21033 48006 70000 91114=
0110013590999992019010307004+60533+008200FM-12+077399999V0202701N005019999999N999999999+00231-00491103281ADDAA101000091MA1999999093971MD1810111+9999REMSYN05801359 26/// /2705 10023 21049 39397 40328 58011 333 60005=
0110013590999992019010308004+60533+008200FM-12+077399999V0202701N002019999999N999999999+00151-00471103391ADDAA101000091MA1999999094051MD1510031+9999REMSYN05801359 26/// /2702 10015 21047 39405 40339 55003 333 60005=
0110013590999992019010309004+60533+008200FM-12+077399999V0200901N003019999999N999999999+00291-00441103331ADDAA101000091MA1999999094031MD1310031+9999REMSYN05801359 26/// /0903 10029 21044 39403 40333 53003 333 60005=
0110013590999992019010310004+60533+008200FM-12+077399999V0203301N003019999999N999999999+00341-00431103321ADDAA101000091MA1999999094041MD1990061+9999REMSYN05801359 26/// /3303 10034 21043 39404 40332 50006 333 60005=
0110013590999992019010311004+60533+008200FM-12+077399999V0201801N001019999999N999999999+00251-00401103291ADDAA101000091MA1999999093981MD1810061+9999REMSYN05801359 26/// /1801 10025 21040 39398 40329 58006 333 60005=
0260013590999992019010312004+60533+008200FM-12+077399999V0203501N001019999999N055000199+00241-00361103241ADDAA106000091AY121021AY221021GA1011+008001061GA2999+999999031GA3999+999999021GE19AGL   +99999+99999GF107991011999008001999999MA1999999093941MD1810091+9999MW1021OD139901401999REMSYN07601359 11585 73501 10024 21036 39394 40324 58009 60001 70222 81576 333 91114=
0110013590999992019010313004+60533+008200FM-12+077399999V0201901N002019999999N999999999+00211-00361103221ADDAA101000091MA1999999093911MD1810131+9999REMSYN05801359 26/// /1902 10021 21036 39391 40322 58013 333 60005=
0110013590999992019010314004+60533+008200FM-12+077399999V0203001N002019999999N999999999+00221-00441103221ADDAA101000091MA1999999093911MD1510071+9999REMSYN05801359 26/// /3002 10022 21044 39391 40322 55007 333 60005=
0110013590999992019010315004+60533+008200FM-12+077399999V0202601N003019999999N999999999+00201-00401103261ADDAA101000091MA1999999093941MD1510011+9999REMSYN05801359 26/// /2603 10020 21040 39394 40326 55001 333 60005=
0110013590999992019010316004+60533+008200FM-12+077399999V0202201N003019999999N999999999+00151-00401103251ADDAA101000091MA1999999093921MD1990011+9999REMSYN05801359 26/// /2203 10015 21040 39392 40325 50001 333 60005=
0110013590999992019010317004+60533+008200FM-12+077399999V0202401N003019999999N999999999+00121-00421103231ADDAA101000091MA1999999093881MD1810021+9999REMSYN05801359 26/// /2403 10012 21042 39388 40323 58002 333 60005=
0279013590999992019010318004+60533+008200FM-12+077399999V0203001N002019999999N050000199+00101-00501103181ADDAA112000091AY121021AY221021GA1011+012501061GA2999+999999031GA3999+999999021GE19AGL   +99999+99999GF108991011999012501999999KA1120M+00391MA1999999093831MD1710101+9999MW1021OD139901201999REMSYN08201359 11684 83002 10010 21050 39383 40318 57010 60002 70222 81537 333 10039 91112=
0110013590999992019010319004+60533+008200FM-12+077399999V0203001N002019999999N999999999+00091-00501103161ADDAA101000091MA1999999093811MD1510101+9999REMSYN05801359 26/// /3002 10009 21050 39381 40316 55010 333 60005=
0110013590999992019010320004+60533+008200FM-12+077399999V0201101N002019999999N999999999+00121-00531103021ADDAA101000091MA1999999093701MD1810171+9999REMSYN05801359 26/// /1102 10012 21053 39370 40302 58017 333 60005=
0110013590999992019010321004+60533+008200FM-12+077399999V0202501N005019999999N999999999+00231-00561102971ADDAA101000091MA1999999093691MD1810191+9999REMSYN05801359 26/// /2505 10023 21056 39369 40297 58019 333 60005=
0110013590999992019010322004+60533+008200FM-12+077399999V0202401N006019999999N999999999+00201-00511102921ADDAA101000091MA1999999093631MD1610171+9999REMSYN05801359 26/// /2406 10020 21051 39363 40292 56017 333 60005=
0110013590999992019010323004+60533+008200FM-12+077399999V0201801N005019999999N999999999+00231-00471102961ADDAA101000091MA1999999093671MD1510031+9999REMSYN05801359 26/// /1805 10023 21047 39367 40296 55003 333 60005=
0130013590999992019010400004+60533+008200FM-12+077399999V0202601N004019999999N999999999+00291-00381102881ADDAA106000091MA1999999093621MD1510051+9999OD139901701999REMSYN06401359 16/// /2604 10029 21038 39362 40288 55005 60001 333 91117=
0110013590999992019010401004+60533+008200FM-12+077399999V0202501N003019999999N999999999+00121-00431102991ADDAA101000091MA1999999093671MD1310031+9999REMSYN05801359 26/// /2503 10012 21043 39367 40299 53003 333 60005=
0110013590999992019010402004+60533+008200FM-12+077399999V0202401N004019999999N999999999+00181-00381102901ADDAA101000091MA1999999093611MD1510061+9999REMSYN05801359 26/// /2404 10018 21038 39361 40290 55006 333 60005=
0110013590999992019010403004+60533+008200FM-12+077399999V0202701N005019999999N999999999+00131-00371102831ADDAA101000091MA1999999093531MD1810101+9999REMSYN05801359 26/// /2705 10013 21037 39353 40283 58010 333 60005=
0110013590999992019010404004+60533+008200FM-12+077399999V0202601N004019999999N999999999+00111-00371102751ADDAA101000091MA1999999093451MD1510221+9999REMSYN05801359 26/// /2604 10011 21037 39345 40275 55022 333 60005=
0110013590999992019010405004+60533+008200FM-12+077399999V0202201N003019999999N999999999+00141-00311102631ADDAA101000091MA1999999093351MD1810261+9999REMSYN05801359 26/// /2203 10014 21031 39335 40263 58026 333 60005=
0229013590999992019010406004+60533+008200FM-12+077399999V0209999C999992200019N055000199+99999+99999999999ADDAA199999919AJ100183100180099AY121021AY201021GA1031+012501061GE19AGL   +99999+99999GF103991031999012501999999IA1289KA1240N-00051MW1021OD139901301999REMSYN07001359 11685 3//// 1//// 2//// 6//// 70220 83500 333 21005 48018 91113=
0110013590999992019010407004+60533+008200FM-12+077399999V0202601N005019999999N999999999+00311-00051102391ADDAA101000091MA1999999093191MD1610261+9999REMSYN05801359 26/// /2605 10031 21005 39319 40239 56026 333 60005=
0110013590999992019010408004+60533+008200FM-12+077399999V0202601N005019999999N999999999+00401-00021102341ADDAA101000091MA1999999093171MD1610181+9999REMSYN05801359 26/// /2605 10040 21002 39317 40234 56018 333 60005=
0110013590999992019010409004+60533+008200FM-12+077399999V0202701N005019999999N999999999+00431-00031102321ADDAA101000091MA1999999093161MD1710071+9999REMSYN05801359 26/// /2705 10043 21003 39316 40232 57007 333 60005=
0110013590999992019010410004+60533+008200FM-12+077399999V0202501N005019999999N999999999+00451+00001102281ADDAA101000091MA1999999093141MD1710051+9999REMSYN05801359 26/// /2505 10045 21000 39314 40228 57005 333 60005=
0110013590999992019010411004+60533+008200FM-12+077399999V0203001N001019999999N999999999+00461+00031102191ADDAA101000091MA1999999093061MD1810121+9999REMSYN05801359 26/// /3001 10046 20003 39306 40219 58012 333 60005=
0260013590999992019010412004+60533+008200FM-12+077399999V0202301N002019999999N055000199+00481+00051102071ADDAA106000091AY181021AY221021GA1041+012501061GA2999+999999031GA3999+999999001GE19AGL   +99999+99999GF106991041999012501999999MA1999999092951MD1810201+9999MW1021OD139901301999REMSYN07601359 11685 62302 10048 20005 39295 40207 58020 60001 70282 84571 333 91113=
0110013590999992019010413004+60533+008200FM-12+077399999V0202701N003019999999N999999999+00511+00051102051ADDAA101000091MA1999999092941MD1610191+9999REMSYN05801359 26/// /2703 10051 20005 39294 40205 56019 333 60005=
0110013590999992019010414004+60533+008200FM-12+077399999V0202501N001019999999N999999999+00561+00071102051ADDAA101000091MA1999999092961MD1510101+9999REMSYN05801359 26/// /2501 10056 20007 39296 40205 55010 333 60005=
0110013590999992019010415004+60533+008200FM-12+077399999V0202801N004019999999N999999999+00511+00071102031ADDAA101000091MA1999999092921MD1810031+9999REMSYN05801359 26/// /2804 10051 20007 39292 40203 58003 333 60005=
0110013590999992019010416004+60533+008200FM-12+077399999V0202601N005019999999N999999999+00541+00101101991ADDAA101000091MA1999999092901MD1810041+9999REMSYN05801359 26/// /2605 10054 20010 39290 40199 58004 333 60005=
0110013590999992019010417004+60533+008200FM-12+077399999V0202701N003019999999N999999999+00491+00111101981ADDAA101000091MA1999999092871MD1710081+9999REMSYN05801359 26/// /2703 10049 20011 39287 40198 57008 333 60005=
0247013590999992019010418004+60533+008200FM-12+077399999V0202501N003012200019N065000199+00651+00101101931ADDAA112000091AY121021AY201021GA1031+012501061GE19AGL   +99999+99999GF103991031999012501999999KA1120M+00661MA1999999092881MD1510041+9999MW1011OD139901001999REMSYN08201359 11687 32503 10065 20010 39288 40193 55004 60002 70120 83500 333 10066 91110=
0110013590999992019010419004+60533+008200FM-12+077399999V0202401N006019999999N999999999+00731-00071101831ADDAA101000091MA1999999092821MD1810081+9999REMSYN05801359 26/// /2406 10073 21007 39282 40183 58008 333 60005=
0110013590999992019010420004+60533+008200FM-12+077399999V0202701N004019999999N999999999+00691-00091101911ADDAA101000091MA1999999092871MD1310011+9999REMSYN05801359 26/// /2704 10069 21009 39287 40191 53001 333 60005=
0110013590999992019010421004+60533+008200FM-12+077399999V0202901N004019999999N999999999+00641+00071101931ADDAA101000091MA1999999092881MD1510011+9999REMSYN05801359 26/// /2904 10064 20007 39288 40193 55001 333 60005=
0110013590999992019010422004+60533+008200FM-12+077399999V0201601N001019999999N999999999+00511+00021102021ADDAA101000091MA1999999092921MD1110101+9999REMSYN05801359 26/// /1601 10051 20002 39292 40202 51010 333 60005=
0110013590999992019010423004+60533+008200FM-12+077399999V0202701N003019999999N999999999+00621+00061102031ADDAA101000091MA1999999092971MD1310101+9999REMSYN05801359 26/// /2703 10062 20006 39297 40203 53010 333 60005=
0130013590999992019010500004+60533+008200FM-12+077399999V0202601N005019999999N999999999+00601+00041102051ADDAA106000091MA1999999092971MD1990091+9999OD139901201999REMSYN06401359 16/// /2605 10060 20004 39297 40205 50009 60001 333 91112=
0110013590999992019010501004+60533+008200FM-12+077399999V0202401N003019999999N999999999+00551+00051102131ADDAA101000091MA1999999093031MD1310111+9999REMSYN05801359 26/// /2403 10055 20005 39303 40213 53011 333 60005=
0110013590999992019010502004+60533+008200FM-12+077399999V0202401N004019999999N999999999+00531+00041102191ADDAA101000091MA1999999093081MD1310111+9999REMSYN05801359 26/// /2404 10053 20004 39308 40219 53011 333 60005=
0110013590999992019010503004+60533+008200FM-12+077399999V0202501N003019999999N999999999+00541+00021102211ADDAA101000091MA1999999093101MD1110131+9999REMSYN05801359 26/// /2503 10054 20002 39310 40221 51013 333 60005=
0110013590999992019010504004+60533+008200FM-12+077399999V0202001N002019999999N999999999+00561+00011102201ADDAA101000091MA1999999093101MD1990061+9999REMSYN05801359 26/// /2002 10056 20001 39310 40220 50006 333 60005=
0110013590999992019010505004+60533+008200FM-12+077399999V0203001N003019999999N999999999+00601+00011102191ADDAA101000091MA1999999093101MD1210011+9999REMSYN05801359 26/// /3003 10060 20001 39310 40219 52001 333 60005=
0293013590999992019010506004+60533+008200FM-12+077399999V0202901N003019999999N045000199+00561+00001102221ADDAA112000091AA224000091AJ100163100160099AY121021AY201021GA1061+012501061GE19AGL   +99999+99999GF106991061999012501999999IA1249KA1240N+00441MA1999999093121MD1990011+9999MW1021OD139901101999REMSYN09401359 11683 62903 10056 20000 39312 40222 50001 60002 70220 86500 333 20044 44016 70000 91111=
0110013590999992019010507004+60533+008200FM-12+077399999V0202801N002019999999N999999999+00501+00011102281ADDAA101000091MA1999999093151MD1310051+9999REMSYN05801359 26/// /2802 10050 20001 39315 40228 53005 333 60005=
0110013590999992019010508004+60533+008200FM-12+077399999V0203001N004019999999N999999999+00571+00031102281ADDAA101000091MA1999999093171MD1310071+9999REMSYN05801359 26/// /3004 10057 20003 39317 40228 53007 333 60005=
0110013590999992019010509004+60533+008200FM-12+077399999V0203001N003019999999N999999999+00561+00041102321ADDAA101000091MA1999999093201MD1210101+9999REMSYN05801359 26/// /3003 10056 20004 39320 40232 52010 333 60005=
0110013590999992019010510004+60533+008200FM-12+077399999V0203301N004019999999N999999999+00571+00021102331ADDAA101000091MA1999999093211MD1110061+9999REMSYN05801359 26/// /3304 10057 20002 39321 40233 51006 333 60005=
0110013590999992019010511004+60533+008200FM-12+077399999V0203201N004019999999N999999999+00571+00001102291ADDAA101000091MA1999999093191MD1990021+9999REMSYN05801359 26/// /3204 10057 21000 39319 40229 50002 333 60005=
0244013590999992019010512004+60533+008200FM-12+077399999V0202701N004019999999N055000199+00601+00031102291ADDAA106000091AY181021AY221021GA1051+008001061GA2999+999999021GE19AGL   +99999+99999GF106991051999008001999999MA1999999093191MD1710011+9999MW1021OD139900901999REMSYN07601359 11585 62704 10060 20003 39319 40229 57001 60001 70282 85508 333 91109=
0110013590999992019010513004+60533+008200FM-12+077399999V0202301N003019999999N999999999+00621+00011102281ADDAA101000091MA1999999093191MD1710031+9999REMSYN05801359 26/// /2303 10062 20001 39319 40228 57003 333 60005=
0110013590999992019010514004+60533+008200FM-12+077399999V0202601N003019999999N999999999+00581-00061102341ADDAA101000091MA1999999093231MD1310041+9999REMSYN05801359 26/// /2603 10058 21006 39323 40234 53004 333 60005=
0110013590999992019010515004+60533+008200FM-12+077399999V0202501N001019999999N999999999+00461-00011102391ADDAA101000091MA1999999093241MD1310051+9999REMSYN05801359 26/// /2501 10046 21001 39324 40239 53005 333 60005=
0110013590999992019010516004+60533+008200FM-12+077399999V0201901N002019999999N999999999+00531+00031102331ADDAA101000091MA1999999093211MD1990021+9999REMSYN05801359 26/// /1902 10053 20003 39321 40233 50002 333 60005=
0110013590999992019010517004+60533+008200FM-12+077399999V0202401N001019999999N999999999+00461-00041102381ADDAA101000091MA1999999093231MD1410001+9999REMSYN05801359 26/// /2401 10046 21004 39323 40238 54000 333 60005=
0247013590999992019010518004+60533+008200FM-12+077399999V0203301N004012200019N060000199+00551-00011102351ADDAA112000091AY121021AY201021GA1011+012501061GE19AGL   +99999+99999GF101991011999012501999999KA1120M+00621MA1999999093231MD1510001+9999MW1011OD139901301999REMSYN08201359 11686 13304 10055 21001 39323 40235 55000 60002 70120 81500 333 10062 91113=
0110013590999992019010519004+60533+008200FM-12+077399999V0202701N002019999999N999999999+00431-00061102461ADDAA101000091MA1999999093291MD1310071+9999REMSYN05801359 26/// /2702 10043 21006 39329 40246 53007 333 60005=
0110013590999992019010520004+60533+008200FM-12+077399999V0203001N002019999999N999999999+00411-00051102471ADDAA101000091MA1999999093291MD1310061+9999REMSYN05801359 26/// /3002 10041 21005 39329 40247 53006 333 60005=
0110013590999992019010521004+60533+008200FM-12+077399999V0202401N001019999999N999999999+00261-00091102511ADDAA101000091MA1999999093281MD1990051+9999REMSYN05801359 26/// /2401 10026 21009 39328 40251 50005 333 60005=
0129013590999992019010522004+60533+008200FM-12+077399999V0202301N001019999999N999999999-00081-00231102641ADDAA101000091MA1999999093281MD1290189+9999REMSYN05801359 26/// /2301 11008 21023 39328 40264 54001 333 60005=EQDQ01.1    3APC3  
0110013590999992019010523004+60533+008200FM-12+077399999V0202901N001019999999N999999999-00171-00211102681ADDAA101000091MA1999999093291MD1510011+9999REMSYN05801359 26/// /2901 11017 21021 39329 40268 55001 333 60005=
0130013590999992019010600004+60533+008200FM-12+077399999V0202601N003019999999N999999999+00131-00141102571ADDAA106000091MA1999999093291MD1210021+9999OD139901001999REMSYN06401359 16/// /2603 10013 21014 39329 40257 52002 60001 333 91110=
0110013590999992019010601004+60533+008200FM-12+077399999V0202701N002019999999N999999999+00131-00211102571ADDAA101000091MA1999999093291MD1990011+9999REMSYN05801359 26/// /2702 10013 21021 39329 40257 50001 333 60005=
0110013590999992019010602004+60533+008200FM-12+077399999V0202201N001019999999N999999999-00151-00271102671ADDAA101000091MA1999999093291MD1990011+9999REMSYN05801359 26/// /2201 11015 21027 39329 40267 50001 333 60005=
0110013590999992019010603004+60533+008200FM-12+077399999V0200601N001019999999N999999999-00171-00261102671ADDAA101000091MA1999999093281MD1810011+9999REMSYN05801359 26/// /0601 11017 21026 39328 40267 58001 333 60005=
0110013590999992019010604004+60533+008200FM-12+077399999V0203201N001019999999N999999999-00161-00281102661ADDAA101000091MA1999999093271MD1810031+9999REMSYN05801359 26/// /3201 11016 21028 39327 40266 58003 333 60005=
0110013590999992019010605004+60533+008200FM-12+077399999V0202701N001019999999N999999999-00311-00351102691ADDAA101000091MA1999999093261MD1710031+9999REMSYN05801359 26/// /2701 11031 21035 39326 40269 57003 333 60005=
0249013590999992019010606004+60533+008200FM-12+077399999V0202201N001019999999N070001199-00351-00441102691ADDAA112000091AA224000091AJ100123100120099AY101021AY201021GF100995999999999999999999IA1269KA1240N-00381MA1999999093241MD1710041+9999MW1021OD139900501999REMSYN08801359 11989 02201 11035 21044 39324 40269 57004 60002 70200 333 21038 42012 70000 91105=
0110013590999992019010607004+60533+008200FM-12+077399999V0202801N001019999999N999999999-00371-00411102751ADDAA101000091MA1999999093281MD1510011+9999REMSYN05801359 26/// /2801 11037 21041 39328 40275 55001 333 60005=
0110013590999992019010608004+60533+008200FM-12+077399999V0201201N002019999999N999999999-00421-00471102781ADDAA101000091MA1999999093291MD1310041+9999REMSYN05801359 26/// /1202 11042 21047 39329 40278 53004 333 60005=
0110013590999992019010609004+60533+008200FM-12+077399999V0200101N001019999999N999999999-00381-00461102821ADDAA101000091MA1999999093341MD1210101+9999REMSYN05801359 26/// /0101 11038 21046 39334 40282 52010 333 60005=
0110013590999992019010610004+60533+008200FM-12+077399999V0209999C999999999999N999999999-00321-00371102811ADDAA101000091MA1999999093361MD1210081+9999REMSYN05801359 26/// /0000 11032 21037 39336 40281 52008 333 60005=
0110013590999992019010611004+60533+008200FM-12+077399999V0202701N002019999999N999999999-00271-00491102771ADDAA101000091MA1999999093331MD1990041+9999REMSYN05801359 26/// /2702 11027 21049 39333 40277 50004 333 60005=
0244013590999992019010612004+60533+008200FM-12+077399999V0202701N002012200019N055000199+00251-00151102551ADDAA106000091AY111021AY201021GA1011+012501061GA2999+999999031GE19AGL   +99999+99999GF104991011999012501999999MA1999999093311MD1810031+9999MW1031OD139900501999REMSYN07601359 11685 42702 10025 21015 39331 40255 58003 60001 70310 81550 333 91105=
0110013590999992019010613004+60533+008200FM-12+077399999V0202501N002019999999N999999999+00301-00091102511ADDAA101000091MA1999999093301MD1710061+9999REMSYN05801359 26/// /2502 10030 21009 39330 40251 57006 333 60005=
0110013590999992019010614004+60533+008200FM-12+077399999V0202601N002019999999N999999999+00261-00091102541ADDAA101000091MA1999999093301MD1510031+9999REMSYN05801359 26/// /2602 10026 21009 39330 40254 55003 333 60005=
0110013590999992019010615004+60533+008200FM-12+077399999V0202401N003019999999N999999999+00271-00091102541ADDAA101000091MA1999999093311MD1410001+9999REMSYN05801359 26/// /2403 10027 21009 39331 40254 54000 333 60005=
0129013590999992019010616004+60533+008200FM-12+077399999V0202701N002019999999N999999999+00171-00141102571ADDAA101000091MA1999999093301MD1290069+9999REMSYN05801359 26/// /2702 10017 21014 39330 40257 54001 333 60005=EQDQ01.1    3APC3  
0129013590999992019010617004+60533+008200FM-12+077399999V0202701N002019999999N999999999+00161-00211102561ADDAA101000091MA1999999093301MD1290029+9999REMSYN05801359 26/// /2702 10016 21021 39330 40256 54001 333 60005=EQDQ01.1    3APC3  
0282013590999992019010618004+60533+008200FM-12+077399999V0202901N002012200019N050000199+00191-00221102571ADDAA112000091AY121021AY201021GA1011+012501061GA2999+999999031GE19AGL   +99999+99999GF103991011999012501999999KA1120M+00311MA1999999093311MD1290039+9999MW1021OD139900801999REMSYN08201359 11684 32902 10019 21022 39331 40257 54001 60002 70220 81550 333 10031 91108=EQDQ01.1    3APC3  
0110013590999992019010619004+60533+008200FM-12+077399999V0202901N002019999999N999999999+00151-00251102561ADDAA101000091MA1999999093291MD1710011+9999REMSYN05801359 26/// /2902 10015 21025 39329 40256 57001 333 60005=
0110013590999992019010620004+60533+008200FM-12+077399999V0202701N002019999999N999999999+00101-00311102561ADDAA101000091MA1999999093271MD1810031+9999REMSYN05801359 26/// /2702 10010 21031 39327 40256 58003 333 60005=
0110013590999992019010621004+60533+008200FM-12+077399999V0202601N002019999999N999999999-00011-00331102621ADDAA101000091MA1999999093291MD1510021+9999REMSYN05801359 26/// /2602 11001 21033 39329 40262 55002 333 60005=
0110013590999992019010622004+60533+008200FM-12+077399999V0202701N001019999999N999999999-00131-00431102651ADDAA101000091MA1999999093271MD1510011+9999REMSYN05801359 26/// /2701 11013 21043 39327 40265 55001 333 60005=
0110013590999992019010623004+60533+008200FM-12+077399999V0202801N002019999999N999999999-00151-00511102611ADDAA101000091MA1999999093231MD1810041+9999REMSYN05801359 26/// /2802 11015 21051 39323 40261 58004 333 60005=
0130013590999992019010700004+60533+008200FM-12+077399999V0202701N001019999999N999999999-00141-00471102571ADDAA106000091MA1999999093201MD1710091+9999OD139900801999REMSYN06401359 16/// /2701 11014 21047 39320 40257 57009 60001 333 91108=
0110013590999992019010701004+60533+008200FM-12+077399999V0202801N002019999999N999999999-00231-00561102571ADDAA101000091MA1999999093171MD1710111+9999REMSYN05801359 26/// /2802 11023 21056 39317 40257 57011 333 60005=
0110013590999992019010702004+60533+008200FM-12+077399999V0203001N001019999999N999999999-00321-00691102571ADDAA101000091MA1999999093141MD1710091+9999REMSYN05801359 26/// /3001 11032 21069 39314 40257 57009 333 60005=
0110013590999992019010703004+60533+008200FM-12+077399999V0202701N002019999999N999999999-00561-00741102611ADDAA101000091MA1999999093091MD1810111+9999REMSYN05801359 26/// /2702 11056 21074 39309 40261 58011 333 60005=
0110013590999992019010704004+60533+008200FM-12+077399999V0201901N001019999999N999999999-00671-00911102581ADDAA101000091MA1999999093031MD1810141+9999REMSYN05801359 26/// /1901 11067 21091 39303 40258 58014 333 60005=
0110013590999992019010705004+60533+008200FM-12+077399999V0201201N001019999999N999999999-00701-00881102491ADDAA101000091MA1999999092941MD1810201+9999REMSYN05801359 26/// /1201 11070 21088 39294 40249 58020 333 60005=
0293013590999992019010706004+60533+008200FM-12+077399999V0202101N001012200019N070001199-00761-00881102461ADDAA112000091AA224000091AJ100123100120099AY101021AY201021GA1011+999999031GE19AGL   +99999+99999GF101991011999999999999999IA1269KA1240N-00811MA1999999092881MD1710201+9999MW1021OD139900401999REMSYN09401359 11989 12101 11076 21088 39288 40246 57020 60002 70200 81050 333 21081 42012 70000 91104=
0110013590999992019010707004+60533+008200FM-12+077399999V0202601N001019999999N999999999-00561-00811102231ADDAA101000091MA1999999092751MD1810281+9999REMSYN05801359 26/// /2601 11056 21081 39275 40223 58028 333 60005=
0110013590999992019010708004+60533+008200FM-12+077399999V0200601N001019999999N999999999-00511-00761102081ADDAA101000091MA1999999092631MD1810301+9999REMSYN05801359 26/// /0601 11051 21076 39263 40208 58030 333 60005=
0110013590999992019010709004+60533+008200FM-12+077399999V0203401N001019999999N999999999-00491-00701101921ADDAA101000091MA1999999092491MD1710391+9999REMSYN05801359 26/// /3401 11049 21070 39249 40192 57039 333 60005=
0110013590999992019010710004+60533+008200FM-12+077399999V0202401N002019999999N999999999-00261-00521101631ADDAA101000091MA1999999092301MD1810431+9999REMSYN05801359 26/// /2402 11026 21052 39230 40163 58043 333 60005=
0110013590999992019010711004+60533+008200FM-12+077399999V0202501N004019999999N999999999-00231-00531101501ADDAA101000091MA1999999092201MD1610431+9999REMSYN05801359 26/// /2504 11023 21053 39220 40150 56043 333 60005=
0247013590999992019010712004+60533+008200FM-12+077399999V0202501N002019999999N018000199-00221-00561101221ADDAA106999999AY171021AY201021GA1081+008001051GE19AGL   +99999+99999GF108991081999008001999999MA1999999091951MD1810531+9999MW1781OD139900701999REMSYN07601359 11568 82502 11022 21056 39195 40122 58053 60001 77870 8802/ 333 91107=EQDQ01  00002PRCP06
0110013590999992019010713004+60533+008200FM-12+077399999V0200701N002019999999N999999999-00361-00521101041ADDAA101000091MA1999999091741MD1810561+9999REMSYN05801359 26/// /0702 11036 21052 39174 40104 58056 333 60005=
0110013590999992019010714004+60533+008200FM-12+077399999V0200701N001019999999N999999999-00401-00491100831ADDAA101001031MA1999999091541MD1610651+9999REMSYN05801359 26/// /0701 11040 21049 39154 40083 56065 333 60015=
0110013590999992019010715004+60533+008200FM-12+077399999V0200801N001019999999N999999999-00441-00521100601ADDAA101000931MA1999999091311MD1710631+9999REMSYN05801359 26/// /0801 11044 21052 39131 40060 57063 333 69995=
0110013590999992019010716004+60533+008200FM-12+077399999V0209999C999999999999N999999999-00481-00551100451ADDAA101000931MA1999999091161MD1610581+9999REMSYN05801359 26/// /0000 11048 21055 39116 40045 56058 333 69995=
0110013590999992019010717004+60533+008200FM-12+077399999V0209999C999999999999N999999999-00491-00551100281ADDAA101001031MA1999999091001MD1610531+9999REMSYN05801359 26/// /0000 11049 21055 39100 40028 56053 333 60015=
0247013590999992019010718004+60533+008200FM-12+077399999V0201901N001019999999N014000199-00511-00571100121ADDAA112004031AY171021AY271021GA1081+008001051GE19AGL   +99999+99999GF108991081999008001999999KA1120M-00211MA1999999090851MD1610461+9999MW1711OD139900401999REMSYN08201359 11564 81901 11051 21057 39085 40012 56046 60042 77177 8802/ 333 11021 91104=
0110013590999992019010719004+60533+008200FM-12+077399999V0209999C999999999999N999999999-00511-00571100011ADDAA101000091MA1999999090751MD1610401+9999REMSYN05801359 26/// /0000 11051 21057 39075 40001 56040 333 60005=
0110013590999992019010720004+60533+008200FM-12+077399999V0200501N001019999999N999999999-00511-00571099931ADDAA101000091MA1999999090681MD1610321+9999REMSYN05801359 26/// /0501 11051 21057 39068 49993 56032 333 60005=
0110013590999992019010721004+60533+008200FM-12+077399999V0200601N002019999999N999999999-00531-00581099851ADDAA101000091MA1999999090601MD1710251+9999REMSYN05801359 26/// /0602 11053 21058 39060 49985 57025 333 60005=
0110013590999992019010722004+60533+008200FM-12+077399999V0200201N002019999999N999999999-00551-00721099791ADDAA101000091MA1999999090541MD1710221+9999REMSYN05801359 26/// /0202 11055 21072 39054 49979 57022 333 60005=
0110013590999992019010723004+60533+008200FM-12+077399999V0202201N001019999999N999999999-00711-00831099821ADDAA101000091MA1999999090511MD1610171+9999REMSYN05801359 26/// /2201 11071 21083 39051 49982 56017 333 60005=
0130013590999992019010800004+60533+008200FM-12+077399999V0202701N001019999999N999999999-00781-00831099861ADDAA106000091MA1999999090521MD1610081+9999OD139900701999REMSYN06401359 16/// /2701 11078 21083 39052 49986 56008 60001 333 91107=
0110013590999992019010801004+60533+008200FM-12+077399999V0200701N002019999999N999999999-00631-00741099811ADDAA101000091MA1999999090531MD1510011+9999REMSYN05801359 26/// /0702 11063 21074 39053 49981 55001 333 60005=
0110013590999992019010802004+60533+008200FM-12+077399999V0200301N003019999999N999999999-00591-00681099841ADDAA101000131MA1999999090571MD1310061+9999REMSYN05801359 26/// /0303 11059 21068 39057 49984 53006 333 69915=
0110013590999992019010803004+60533+008200FM-12+077399999V0200501N002019999999N999999999-00491-00601099901ADDAA101000131MA1999999090651MD1310131+9999REMSYN05801359 26/// /0502 11049 21060 39065 49990 53013 333 69915=
0110013590999992019010804004+60533+008200FM-12+077399999V0200901N002019999999N999999999-00381-00561099971ADDAA101000091MA1999999090751MD1310221+9999REMSYN05801359 26/// /0902 11038 21056 39075 49997 53022 333 60005=
0110013590999992019010805004+60533+008200FM-12+077399999V0200301N002019999999N999999999-00391-00521100141ADDAA101000131MA1999999090911MD1310331+9999REMSYN05801359 26/// /0302 11039 21052 39091 40014 53033 333 69915=
0293013590999992019010806004+60533+008200FM-12+077399999V0203201N002019999999N018000199-00071-00581100111ADDAA112000431AA224004431AJ100043100040099AY171021AY221021GA1081+008001051GE19AGL   +99999+99999GF108991081999008001999999IA1289KA1240N-00821MA1999999090991MD1110331+9999MW1701OD139900801999REMSYN09401359 11568 83202 11007 21058 39099 40011 51033 69942 77072 8802/ 333 21082 48004 70044 91108=
0110013590999992019010807004+60533+008200FM-12+077399999V0201801N003019999999N999999999-00061-00621100241ADDAA101000091MA1999999091111MD1110361+9999REMSYN05801359 26/// /1803 11006 21062 39111 40024 51036 333 60005=
0110013590999992019010808004+60533+008200FM-12+077399999V0201901N003019999999N999999999-00081-00601100441ADDAA101000091MA1999999091281MD1310371+9999REMSYN05801359 26/// /1903 11008 21060 39128 40044 53037 333 60005=
0110013590999992019010809004+60533+008200FM-12+077399999V0202701N003019999999N999999999-00071-00651100611ADDAA101000091MA1999999091441MD1310451+9999REMSYN05801359 26/// /2703 11007 21065 39144 40061 53045 333 60005=
0110013590999992019010810004+60533+008200FM-12+077399999V0203101N002019999999N999999999-00031-00701100681ADDAA101000091MA1999999091521MD1110401+9999REMSYN05801359 26/// /3102 11003 21070 39152 40068 51040 333 60005=
0110013590999992019010811004+60533+008200FM-12+077399999V0202301N003019999999N999999999-00041-00681100701ADDAA101000091MA1999999091541MD1110251+9999REMSYN05801359 26/// /2303 11004 21068 39154 40070 51025 333 60005=
0260013590999992019010812004+60533+008200FM-12+077399999V0202801N002019999999N045000199-00041-00691100811ADDAA106000091AY171021AY221021GA1041+008001061GA2999+999999031GA3999+999999001GE19AGL   +99999+99999GF107991041999008001999999MA1999999091641MD1310181+9999MW1021OD139901301999REMSYN07601359 11583 72802 11004 21069 39164 40081 53018 60001 70272 84572 333 91113=
0110013590999992019010813004+60533+008200FM-12+077399999V0202601N003019999999N999999999-00071-00771100911ADDAA101000091MA1999999091721MD1310191+9999REMSYN05801359 26/// /2603 11007 21077 39172 40091 53019 333 60005=
0110013590999992019010814004+60533+008200FM-12+077399999V0203301N004019999999N999999999-00051-00781100941ADDAA101000091MA1999999091751MD1110211+9999REMSYN05801359 26/// /3304 11005 21078 39175 40094 51021 333 60005=
0110013590999992019010815004+60533+008200FM-12+077399999V0203301N004019999999N999999999-00081-00821101021ADDAA101000091MA1999999091811MD1210171+9999REMSYN05801359 26/// /3304 11008 21082 39181 40102 52017 333 60005=
0110013590999992019010816004+60533+008200FM-12+077399999V0203401N003019999999N999999999-00081-00841101081ADDAA101000091MA1999999091871MD1310141+9999REMSYN05801359 26/// /3403 11008 21084 39187 40108 53014 333 60005=
0110013590999992019010817004+60533+008200FM-12+077399999V0202001N003019999999N999999999-00131-00831101141ADDAA101000091MA1999999091911MD1310171+9999REMSYN05801359 26/// /2003 11013 21083 39191 40114 53017 333 60005=
0247013590999992019010818004+60533+008200FM-12+077399999V0202901N003012200019N040000199-00201-00811101271ADDAA112000091AY121021AY201021GA1011+012501061GE19AGL   +99999+99999GF101991011999012501999999KA1120M-00011MA1999999092001MD1310181+9999MW1011OD139901001999REMSYN08201359 11682 12903 11020 21081 39200 40127 53018 60002 70120 81500 333 11001 91110=
0110013590999992019010819004+60533+008200FM-12+077399999V0203001N003019999999N999999999-00211-00771101401ADDAA101000091MA1999999092111MD1310241+9999REMSYN05801359 26/// /3003 11021 21077 39211 40140 53024 333 60005=
0110013590999992019010820004+60533+008200FM-12+077399999V0202901N003019999999N999999999-00261-00711101511ADDAA101000091MA1999999092201MD1110281+9999REMSYN05801359 26/// /2903 11026 21071 39220 40151 51028 333 60005=
0110013590999992019010821004+60533+008200FM-12+077399999V0203401N004019999999N999999999-00241-00901101621ADDAA101000091MA1999999092311MD1210301+9999REMSYN05801359 26/// /3404 11024 21090 39231 40162 52030 333 60005=
0110013590999992019010822004+60533+008200FM-12+077399999V0202901N004019999999N999999999-00331-01061101761ADDAA101000091MA1999999092391MD1210281+9999REMSYN05801359 26/// /2904 11033 21106 39239 40176 52028 333 60005=
0110013590999992019010823004+60533+008200FM-12+077399999V0203101N004019999999N999999999-00401-01131101861ADDAA101000091MA1999999092471MD1110271+9999REMSYN05801359 26/// /3104 11040 21113 39247 40186 51027 333 60005=
0130013590999992019010900004+60533+008200FM-12+077399999V0202901N003019999999N999999999-00431-01121101971ADDAA106000091MA1999999092561MD1110251+9999OD139901101999REMSYN06401359 16/// /2903 11043 21112 39256 40197 51025 60001 333 91111=
0110013590999992019010901004+60533+008200FM-12+077399999V0203201N004019999999N999999999-00381-01071102061ADDAA101000091MA1999999092651MD1210271+9999REMSYN05801359 26/// /3204 11038 21107 39265 40206 52027 333 60005=
0110013590999992019010902004+60533+008200FM-12+077399999V0203301N005019999999N999999999-00331-01061102081ADDAA101000091MA1999999092691MD1110221+9999REMSYN05801359 26/// /3305 11033 21106 39269 40208 51022 333 60005=
0110013590999992019010903004+60533+008200FM-12+077399999V0203301N006019999999N999999999-00281-01021102041ADDAA101000091MA1999999092671MD1110111+9999REMSYN05801359 26/// /3306 11028 21102 39267 40204 51011 333 60005=
0110013590999992019010904004+60533+008200FM-12+077399999V0203101N004019999999N999999999-00341-01021102191ADDAA101000091MA1999999092781MD1310141+9999REMSYN05801359 26/// /3104 11034 21102 39278 40219 53014 333 60005=
0110013590999992019010905004+60533+008200FM-12+077399999V0203001N004019999999N999999999-00321-01011102241ADDAA101000091MA1999999092841MD1310151+9999REMSYN05801359 26/// /3004 11032 21101 39284 40224 53015 333 60005=
0249013590999992019010906004+60533+008200FM-12+077399999V0203101N004019999999N060000199-00281-00951102281ADDAA112000091AA224000091AJ100023100020099AY101021AY201021GF100995999999999999999999IA1289KA1240N-00461MA1999999092881MD1110211+9999MW1021OD139901301999REMSYN08801359 11986 03104 11028 21095 39288 40228 51021 60002 70200 333 21046 48002 70000 91113=
0110013590999992019010907004+60533+008200FM-12+077399999V0203001N004019999999N999999999-00371-01031102361ADDAA101000091MA1999999092931MD1110141+9999REMSYN05801359 26/// /3004 11037 21103 39293 40236 51014 333 60005=
0110013590999992019010908004+60533+008200FM-12+077399999V0203201N005019999999N999999999-00411-01061102431ADDAA101000091MA1999999092981MD1310141+9999REMSYN05801359 26/// /3205 11041 21106 39298 40243 53014 333 60005=
0110013590999992019010909004+60533+008200FM-12+077399999V0203301N005019999999N999999999-00331-01021102451ADDAA101000091MA1999999093031MD1210141+9999REMSYN05801359 26/// /3305 11033 21102 39303 40245 52014 333 60005=
0110013590999992019010910004+60533+008200FM-12+077399999V0203201N005019999999N999999999-00271-01031102461ADDAA101000091MA1999999093051MD1210131+9999REMSYN05801359 26/// /3205 11027 21103 39305 40246 52013 333 60005=
0110013590999992019010911004+60533+008200FM-12+077399999V0203201N005019999999N999999999-00251-01011102521ADDAA101000091MA1999999093121MD1210141+9999REMSYN05801359 26/// /3205 11025 21101 39312 40252 52014 333 60005=
0247013590999992019010912004+60533+008200FM-12+077399999V0203301N005012200019N060000199-00301-01021102531ADDAA106000091AY101021AY201021GA1999+999999001GE19AGL   +99999+99999GF101991001999999999999999MA1999999093111MD1990081+9999MW1021OD139901101999REMSYN07601359 11986 13305 11030 21102 39311 40253 50008 60001 70200 80001 333 91111=EQDQ01    003SCCGA1
0110013590999992019010913004+60533+008200FM-12+077399999V0202301N002019999999N999999999-00351-01071102531ADDAA101000091MA1999999093091MD1990041+9999REMSYN05801359 26/// /2302 11035 21107 39309 40253 50004 333 60005=
0110013590999992019010914004+60533+008200FM-12+077399999V0202701N001019999999N999999999-00441-01111102621ADDAA101000091MA1999999093141MD1310021+9999REMSYN05801359 26/// /2701 11044 21111 39314 40262 53002 333 60005=
0110013590999992019010915004+60533+008200FM-12+077399999V0202801N002019999999N999999999-00521-01091102661ADDAA101000091MA1999999093151MD1310051+9999REMSYN05801359 26/// /2802 11052 21109 39315 40266 53005 333 60005=
0110013590999992019010916004+60533+008200FM-12+077399999V0202401N001019999999N999999999-00641-01081102701ADDAA101000091MA1999999093151MD1990061+9999REMSYN05801359 26/// /2401 11064 21108 39315 40270 50006 333 60005=
0110013590999992019010917004+60533+008200FM-12+077399999V0202701N002019999999N999999999-00541-01041102651ADDAA101000091MA1999999093141MD1990001+9999REMSYN05801359 26/// /2702 11054 21104 39314 40265 50000 333 60005=
0266013590999992019010918004+60533+008200FM-12+077399999V0202701N002019999999N050000199-00591-01071102601ADDAA112000091AY121021AY201021GA1999+999999021GE19AGL   +99999+99999GF105991001999999999999999KA1120M-00241MA1999999093071MD1810081+9999MW1021OD139900901999REMSYN08201359 11984 52702 11059 21107 39307 40260 58008 60002 70220 80006 333 11024 91109=EQDQ01    003SCCGA1
0110013590999992019010919004+60533+008200FM-12+077399999V0202701N002019999999N999999999-00581-01031102601ADDAA101000091MA1999999093081MD1510071+9999REMSYN05801359 26/// /2702 11058 21103 39308 40260 55007 333 60005=
0110013590999992019010920004+60533+008200FM-12+077399999V0202701N002019999999N999999999-00491-00981102551ADDAA101000091MA1999999093061MD1610081+9999REMSYN05801359 26/// /2702 11049 21098 39306 40255 56008 333 60005=
0110013590999992019010921004+60533+008200FM-12+077399999V0202501N002019999999N999999999-00431-00971102521ADDAA101000091MA1999999093051MD1810031+9999REMSYN05801359 26/// /2502 11043 21097 39305 40252 58003 333 60005=
0110013590999992019010922004+60533+008200FM-12+077399999V0202701N001019999999N999999999-00401-00941102461ADDAA101000091MA1999999093011MD1810061+9999REMSYN05801359 26/// /2701 11040 21094 39301 40246 58006 333 60005=
0110013590999992019010923004+60533+008200FM-12+077399999V0201901N001019999999N999999999-00391-00831102391ADDAA101000231MA1999999092951MD1810101+9999REMSYN05801359 26/// /1901 11039 21083 39295 40239 58010 333 69925=
0130013590999992019011000004+60533+008200FM-12+077399999V0202401N003019999999N999999999-00291-00761102281ADDAA106000231MA1999999092891MD1710161+9999OD139900601999REMSYN06401359 16/// /2403 11029 21076 39289 40228 57016 69921 333 91106=
0110013590999992019011001004+60533+008200FM-12+077399999V0202501N001019999999N999999999-00241-00751102181ADDAA101000091MA1999999092811MD1710201+9999REMSYN05801359 26/// /2501 11024 21075 39281 40218 57020 333 60005=
0110013590999992019011002004+60533+008200FM-12+077399999V0200401N001019999999N999999999-00261-00641102151ADDAA101000091MA1999999092781MD1610181+9999REMSYN05801359 26/// /0401 11026 21064 39278 40215 56018 333 60005=
0110013590999992019011003004+60533+008200FM-12+077399999V0202701N001019999999N999999999-00291-00631102121ADDAA101000091MA1999999092741MD1610151+9999REMSYN05801359 26/// /2701 11029 21063 39274 40212 56015 333 60005=
0110013590999992019011004004+60533+008200FM-12+077399999V0200101N001019999999N999999999-00211-00571102021ADDAA101000091MA1999999092681MD1810131+9999REMSYN05801359 26/// /0101 11021 21057 39268 40202 58013 333 60005=
0110013590999992019011005004+60533+008200FM-12+077399999V0202601N003019999999N999999999-00041-00471101941ADDAA101000091MA1999999092661MD1510121+9999REMSYN05801359 26/// /2603 11004 21047 39266 40194 55012 333 60005=
0309013590999992019011006004+60533+008200FM-12+077399999V0202601N004019999999N050000199-00051-00451101861ADDAA112000231AA224000231AJ100143100140099AY121021AY221021GA1021+012501061GA2999+999999031GE19AGL   +99999+99999GF108991021999012501999999IA1289KA1240N-00591MA1999999092581MD1810161+9999MW1021OD139900901999REMSYN09401359 11684 82604 11005 21045 39258 40186 58016 69922 70222 8257/ 333 21059 48014 70002 91109=
0039013590999992019011007004+60533+008200FM-12+077399999V0209999C999999999999N999999999+99999+99999999999REMSYN03001359 46/// ///// 1//// 2////=
0110013590999992019011008004+60533+008200FM-12+077399999V0202401N003019999999N999999999+00001-00371101801ADDAA101000091MA1999999092551MD1610111+9999REMSYN05801359 26/// /2403 10000 21037 39255 40180 56011 333 60005=
0110013590999992019011009004+60533+008200FM-12+077399999V0202601N004019999999N999999999+00081-00341101741ADDAA101000091MA1999999092521MD1810071+9999REMSYN05801359 26/// /2604 10008 21034 39252 40174 58007 333 60005=
0110013590999992019011010004+60533+008200FM-12+077399999V0202701N004019999999N999999999+00211-00231101691ADDAA101000091MA1999999092521MD1510071+9999REMSYN05801359 26/// /2704 10021 21023 39252 40169 55007 333 60005=
0110013590999992019011011004+60533+008200FM-12+077399999V0202601N002019999999N999999999+00291-00161101601ADDAA101000091MA1999999092461MD1810081+9999REMSYN05801359 26/// /2602 10029 21016 39246 40160 58008 333 60005=
0260013590999992019011012004+60533+008200FM-12+077399999V0203201N002019999999N040000199+00321-00171101511ADDAA106000091AY121021AY221021GA1051+008001081GA2999+999999031GA3999+999999001GE19AGL   +99999+99999GF106991051999008001999999MA1999999092391MD1810131+9999MW1021OD139901301999REMSYN07601359 11582 63202 10032 21017 39239 40151 58013 60001 70222 85871 333 91113=
0110013590999992019011013004+60533+008200FM-12+077399999V0202201N003019999999N999999999+00351-00091101421ADDAA101000091MA1999999092321MD1610201+9999REMSYN05801359 26/// /2203 10035 21009 39232 40142 56020 333 60005=
0110013590999992019011014004+60533+008200FM-12+077399999V0202501N005019999999N999999999+00421-00101101341ADDAA101000091MA1999999092271MD1610191+9999REMSYN05801359 26/// /2505 10042 21010 39227 40134 56019 333 60005=
0110013590999992019011015004+60533+008200FM-12+077399999V0202201N005019999999N999999999+00411-00131101231ADDAA101000091MA1999999092171MD1810221+9999REMSYN05801359 26/// /2205 10041 21013 39217 40123 58022 333 60005=
0110013590999992019011016004+60533+008200FM-12+077399999V0202401N006019999999N999999999+00381-00091101231ADDAA101000091MA1999999092161MD1510171+9999REMSYN05801359 26/// /2406 10038 21009 39216 40123 55017 333 60005=
0110013590999992019011017004+60533+008200FM-12+077399999V0202501N006019999999N999999999+00371-00091101211ADDAA101000091MA1999999092131MD1610141+9999REMSYN05801359 26/// /2506 10037 21009 39213 40121 56014 333 60005=
0263013590999992019011018004+60533+008200FM-12+077399999V0202101N009012200019N045000199+00321-00101101151ADDAA112000091AY121021AY211021GA1021+012501081GA2999+999999021GE19AGL   +99999+99999GF104991021999012501999999KA1120M+00461MA1999999092061MD1810091+9999MW1021OD139901601999REMSYN08201359 11683 42109 10032 21010 39206 40115 58009 60002 70221 82808 333 10046 91116=
0110013590999992019011019004+60533+008200FM-12+077399999V0202301N009019999999N999999999+00341-00091101081ADDAA101000091MA1999999092001MD1810151+9999REMSYN05801359 26/// /2309 10034 21009 39200 40108 58015 333 60005=
0110013590999992019011020004+60533+008200FM-12+077399999V0202301N004019999999N999999999+00351-00031101071ADDAA101000091MA1999999092001MD1510131+9999REMSYN05801359 26/// /2304 10035 21003 39200 40107 55013 333 60005=
0110013590999992019011021004+60533+008200FM-12+077399999V0202301N003019999999N999999999+00381-00061101001ADDAA101000091MA1999999091951MD1610111+9999REMSYN05801359 26/// /2303 10038 21006 39195 40100 56011 333 60005=
0110013590999992019011022004+60533+008200FM-12+077399999V0202301N003019999999N999999999+00371-00041100931ADDAA101000091MA1999999091881MD1810121+9999REMSYN05801359 26/// /2303 10037 21004 39188 40093 58012 333 60005=
0110013590999992019011023004+60533+008200FM-12+077399999V0201901N003019999999N999999999+00411-00211100861ADDAA101000091MA1999999091831MD1710161+9999REMSYN05801359 26/// /1903 10041 21021 39183 40086 57016 333 60005=
0130013590999992019011100004+60533+008200FM-12+077399999V0201801N003019999999N999999999+00381-00421100841ADDAA106000091MA1999999091801MD1610161+9999OD139901701999REMSYN06401359 16/// /1803 10038 21042 39180 40084 56016 60001 333 91117=
0110013590999992019011101004+60533+008200FM-12+077399999V0202501N005019999999N999999999+00271-00401100951ADDAA101000091MA1999999091861MD1510021+9999REMSYN05801359 26/// /2505 10027 21040 39186 40095 55002 333 60005=
0110013590999992019011102004+60533+008200FM-12+077399999V0202601N005019999999N999999999+00191-00311100901ADDAA101000091MA1999999091791MD1810041+9999REMSYN05801359 26/// /2605 10019 21031 39179 40090 58004 333 60005=
0110013590999992019011103004+60533+008200FM-12+077399999V0202501N006019999999N999999999+00161-00341100851ADDAA101000091MA1999999091731MD1810071+9999REMSYN05801359 26/// /2506 10016 21034 39173 40085 58007 333 60005=
0110013590999992019011104004+60533+008200FM-12+077399999V0202201N006019999999N999999999+00251-00711100761ADDAA101000091MA1999999091681MD1810191+9999REMSYN05801359 26/// /2206 10025 21071 39168 40076 58019 333 60005=
0110013590999992019011105004+60533+008200FM-12+077399999V0202601N006019999999N999999999+00221-00861100731ADDAA101000091MA1999999091651MD1710151+9999REMSYN05801359 26/// /2606 10022 21086 39165 40073 57015 333 60005=
0309013590999992019011106004+60533+008200FM-12+077399999V0203101N008019999999N025000199+00111-00721100631ADDAA112000091AA224000091AJ100113100110099AY111021AY201021GA1031+012501061GA2999+999999001GE19AGL   +99999+99999GF105991031999012501999999IA1249KA1240N+00111MA1999999091521MD1810201+9999MW1021OD139902001999REMSYN09401359 11675 53108 10011 21072 39152 40063 58020 60002 70210 83501 333 20011 44011 70000 91120=
0039013590999992019011107004+60533+008200FM-12+077399999V0209999C999999999999N999999999+99999+99999999999REMSYN03001359 46/// ///// 1//// 2////=
0110013590999992019011108004+60533+008200FM-12+077399999V0203101N010019999999N999999999+00041-00871100701ADDAA101000331MA1999999091561MD1510111+9999REMSYN05801359 26/// /3110 10004 21087 39156 40070 55011 333 69935=
0110013590999992019011109004+60533+008200FM-12+077399999V0202801N008019999999N999999999+00001-00801100791ADDAA101000091MA1999999091631MD1310101+9999REMSYN05801359 26/// /2808 10000 21080 39163 40079 53010 333 60005=
0110013590999992019011110004+60533+008200FM-12+077399999V0203001N006019999999N999999999+00011-00981100901ADDAA101000091MA1999999091731MD1310251+9999REMSYN05801359 26/// /3006 10001 21098 39173 40090 53025 333 60005=
0110013590999992019011111004+60533+008200FM-12+077399999V0202901N004019999999N999999999+00001-00871100941ADDAA101000091MA1999999091771MD1110211+9999REMSYN05801359 26/// /2904 10000 21087 39177 40094 51021 333 60005=
0244013590999992019011112004+60533+008200FM-12+077399999V0200301N003012200019N030000199-00101-00801101141ADDAA106000531AY111021AY201021GA1011+012501061GA2999+999999021GE19AGL   +99999+99999GF103991011999012501999999MA1999999091911MD1110281+9999MW1021OD139902401999REMSYN07601359 11680 30303 11010 21080 39191 40114 51028 69951 70210 81508 333 91124=
0110013590999992019011113004+60533+008200FM-12+077399999V0202501N004019999999N999999999-00091-00831101171ADDAA101000091MA1999999091951MD1310221+9999REMSYN05801359 26/// /2504 11009 21083 39195 40117 53022 333 60005=
0110013590999992019011114004+60533+008200FM-12+077399999V0202901N003019999999N999999999-00181-00841101251ADDAA101000091MA1999999091991MD1110221+9999REMSYN05801359 26/// /2903 11018 21084 39199 40125 51022 333 60005=
0110013590999992019011115004+60533+008200FM-12+077399999V0203201N004019999999N999999999-00231-00871101261ADDAA101000091MA1999999091981MD1990071+9999REMSYN05801359 26/// /3204 11023 21087 39198 40126 50007 333 60005=
0110013590999992019011116004+60533+008200FM-12+077399999V0202801N005019999999N999999999-00191-00911101201ADDAA101000091MA1999999091941MD1990001+9999REMSYN05801359 26/// /2805 11019 21091 39194 40120 50000 333 60005=
0110013590999992019011117004+60533+008200FM-12+077399999V0202901N003019999999N999999999-00181-00991101211ADDAA101000091MA1999999091951MD1510041+9999REMSYN05801359 26/// /2903 11018 21099 39195 40121 55004 333 60005=
0263013590999992019011118004+60533+008200FM-12+077399999V0201101N001019999999N040000199-00411-00901101281ADDAA112000531AY121021AY201021GA1021+012501061GA2999+999999001GE19AGL   +99999+99999GF106991021999012501999999KA1120M+00121MA1999999091941MD1510041+9999MW1031OD139901801999REMSYN08201359 11682 61101 11041 21090 39194 40128 55004 69952 70320 82501 333 10012 91118=
0110013590999992019011119004+60533+008200FM-12+077399999V0202701N001019999999N999999999-00371-01011101221ADDAA101000091MA1999999091901MD1810041+9999REMSYN05801359 26/// /2701 11037 21101 39190 40122 58004 333 60005=
0110013590999992019011120004+60533+008200FM-12+077399999V0202801N002019999999N999999999-00351-01021101201ADDAA101000091MA1999999091891MD1810061+9999REMSYN05801359 26/// /2802 11035 21102 39189 40120 58006 333 60005=
0110013590999992019011121004+60533+008200FM-12+077399999V0203201N001019999999N999999999-00401-00941101231ADDAA101000091MA1999999091901MD1510041+9999REMSYN05801359 26/// /3201 11040 21094 39190 40123 55004 333 60005=
0110013590999992019011122004+60533+008200FM-12+077399999V0202701N003019999999N999999999-00381-00921101151ADDAA101000091MA1999999091831MD1810071+9999REMSYN05801359 26/// /2703 11038 21092 39183 40115 58007 333 60005=
0110013590999992019011123004+60533+008200FM-12+077399999V0202901N003019999999N999999999-00381-00911101101ADDAA101000091MA1999999091781MD1810101+9999REMSYN05801359 26/// /2903 11038 21091 39178 40110 58010 333 60005=
0130013590999992019011200004+60533+008200FM-12+077399999V0202601N002019999999N999999999-00361-00881100981ADDAA106000091MA1999999091681MD1810221+9999OD139901001999REMSYN06401359 16/// /2602 11036 21088 39168 40098 58022 60001 333 91110=
0110013590999992019011201004+60533+008200FM-12+077399999V0200501N001019999999N999999999-00421-00831100931ADDAA101000091MA1999999091611MD1810221+9999REMSYN05801359 26/// /0501 11042 21083 39161 40093 58022 333 60005=
0110013590999992019011202004+60533+008200FM-12+077399999V0202501N003019999999N999999999-00291-00731100801ADDAA101000091MA1999999091541MD1610231+9999REMSYN05801359 26/// /2503 11029 21073 39154 40080 56023 333 60005=
0110013590999992019011203004+60533+008200FM-12+077399999V0202701N003019999999N999999999-00361-00801100721ADDAA101000091MA1999999091441MD1810241+9999REMSYN05801359 26/// /2703 11036 21080 39144 40072 58024 333 60005=
0110013590999992019011204004+60533+008200FM-12+077399999V0202501N003019999999N999999999-00381-00761100621ADDAA101000091MA1999999091351MD1810261+9999REMSYN05801359 26/// /2503 11038 21076 39135 40062 58026 333 60005=
0110013590999992019011205004+60533+008200FM-12+077399999V0202901N001019999999N999999999-00401-00781100491ADDAA101000091MA1999999091221MD1810321+9999REMSYN05801359 26/// /2901 11040 21078 39122 40049 58032 333 60005=
0293013590999992019011206004+60533+008200FM-12+077399999V0200401N001019999999N030000199-00381-00751100371ADDAA112000091AA224000531AJ100083100080099AY121021AY221021GA1081+008001061GE19AGL   +99999+99999GF108991081999008001999999IA1269KA1240N-00491MA1999999091121MD1710321+9999MW1021OD139900701999REMSYN09401359 11580 80401 11038 21075 39112 40037 57032 60002 70222 885// 333 21049 42008 70005 91107=
0110013590999992019011207004+60533+008200FM-12+077399999V0200401N001019999999N999999999-00511-00761100351ADDAA101000091MA1999999091061MD1610291+9999REMSYN05801359 26/// /0401 11051 21076 39106 40035 56029 333 60005=
0110013590999992019011208004+60533+008200FM-12+077399999V0203001N002019999999N999999999-00411-00711100201ADDAA101000091MA1999999090961MD1710261+9999REMSYN05801359 26/// /3002 11041 21071 39096 40020 57026 333 60005=
0110013590999992019011209004+60533+008200FM-12+077399999V0200701N001019999999N999999999-00441-00721100111ADDAA101000091MA1999999090871MD1610251+9999REMSYN05801359 26/// /0701 11044 21072 39087 40011 56025 333 60005=
0110013590999992019011210004+60533+008200FM-12+077399999V0200201N001019999999N999999999-00361-00601100021ADDAA101000091MA1999999090811MD1610251+9999REMSYN05801359 26/// /0201 11036 21060 39081 40002 56025 333 60005=
0110013590999992019011211004+60533+008200FM-12+077399999V0209999C999999999999N999999999-00411-00511099981ADDAA101000631MA1999999090761MD1610201+9999REMSYN05801359 26/// /0000 11041 21051 39076 49998 56020 333 69965=
0228013590999992019011212004+60533+008200FM-12+077399999V0209999C999999999999N005000199-00341-00451099871ADDAA106001031AY171021AY221021GA1081+004501051GE19AGL   +99999+99999GF108991081999004501999999MA1999999090681MD1710181+9999MW1711OD139900901999REMSYN07601359 11450 80000 11034 21045 39068 49987 57018 60011 77172 8802/ 333 91109=
0110013590999992019011213004+60533+008200FM-12+077399999V0200801N001019999999N999999999-00381-00511099841ADDAA101000331MA1999999090641MD1710171+9999REMSYN05801359 26/// /0801 11038 21051 39064 49984 57017 333 69935=
0110013590999992019011214004+60533+008200FM-12+077399999V0200801N001019999999N999999999-00391-00521099831ADDAA101000231MA1999999090631MD1610131+9999REMSYN05801359 26/// /0801 11039 21052 39063 49983 56013 333 69925=
0110013590999992019011215004+60533+008200FM-12+077399999V0209999C999999999999N999999999-00501-00581099871ADDAA101000131MA1999999090621MD1610061+9999REMSYN05801359 26/// /0000 11050 21058 39062 49987 56006 333 69915=
0129013590999992019011216004+60533+008200FM-12+077399999V0209999C999999999999N999999999-00711-00771099951ADDAA101000131MA1999999090631MD1290119+9999REMSYN05801359 26/// /0000 11071 21077 39063 49995 54001 333 69915=EQDQ01.1    3APC3  
0110013590999992019011217004+60533+008200FM-12+077399999V0202501N001019999999N999999999-00971-01051100061ADDAA101000091MA1999999090641MD1210011+9999REMSYN05801359 26/// /2501 11097 21105 39064 40006 52001 333 60005=
0279013590999992019011218004+60533+008200FM-12+077399999V0202101N001012200019N045000199-00991-01061100021ADDAA112002031AY171021AY221021GA1011+012501061GA2999+999999031GA3999+999999021GE19AGL   +99999+99999GF104991011999012501999999KA1120M-00331MA1999999090601MD1810031+9999MW1021OD139900201999REMSYN08201359 11683 42101 11099 21106 39060 40002 58003 60022 70272 81538 333 11033 91102=
0110013590999992019011219004+60533+008200FM-12+077399999V0202301N001019999999N999999999-00761-00851099941ADDAA101000091MA1999999090611MD1510021+9999REMSYN05801359 26/// /2301 11076 21085 39061 49994 55002 333 60005=
0110013590999992019011220004+60533+008200FM-12+077399999V0200401N001019999999N999999999-00841-00941099911ADDAA101000091MA1999999090541MD1810091+9999REMSYN05801359 26/// /0401 11084 21094 39054 49991 58009 333 60005=
0110013590999992019011221004+60533+008200FM-12+077399999V0202501N003019999999N999999999-00311-00461099611ADDAA101000091MA1999999090461MD1810141+9999REMSYN05801359 26/// /2503 11031 21046 39046 49961 58014 333 60005=
0110013590999992019011222004+60533+008200FM-12+077399999V0200501N001019999999N999999999-00741-00851099661ADDAA101000091MA1999999090361MD1810241+9999REMSYN05801359 26/// /0501 11074 21085 39036 49966 58024 333 60005=
0110013590999992019011223004+60533+008200FM-12+077399999V0200101N001019999999N999999999-00361-00441099391ADDAA101000091MA1999999090241MD1810311+9999REMSYN05801359 26/// /0101 11036 21044 39024 49939 58031 333 60005=
0130013590999992019011300004+60533+008200FM-12+077399999V0203301N001019999999N999999999-00201-00461099211ADDAA106000091MA1999999090121MD1810331+9999OD139900801999REMSYN06401359 16/// /3301 11020 21046 39012 49921 58033 60001 333 91108=
0110013590999992019011301004+60533+008200FM-12+077399999V0203301N002019999999N999999999-00061-00241099031ADDAA101000091MA1999999090021MD1710341+9999REMSYN05801359 26/// /3302 11006 21024 39002 49903 57034 333 60005=
0110013590999992019011302004+60533+008200FM-12+077399999V0202401N002019999999N999999999-00011-00351098921ADDAA101000091MA1999999089931MD1610311+9999REMSYN05801359 26/// /2402 11001 21035 38993 49892 56031 333 60005=
0110013590999992019011303004+60533+008200FM-12+077399999V0200401N001019999999N999999999-00151-00351098801ADDAA101000091MA1999999089781MD1810341+9999REMSYN05801359 26/// /0401 11015 21035 38978 49880 58034 333 60005=
0110013590999992019011304004+60533+008200FM-12+077399999V0203601N002019999999N999999999-00061-00301098591ADDAA101000091MA1999999089611MD1810401+9999REMSYN05801359 26/// /3602 11006 21030 38961 49859 58040 333 60005=
0110013590999992019011305004+60533+008200FM-12+077399999V0202701N002019999999N999999999+00021-00321098401ADDAA101000091MA1999999089461MD1710461+9999REMSYN05801359 26/// /2702 10002 21032 38946 49840 57046 333 60005=
0293013590999992019011306004+60533+008200FM-12+077399999V0202501N001012200019N040000199-00081-00371098271ADDAA112000091AA224002031AJ100123100120099AY111021AY201021GA1021+012501061GE19AGL   +99999+99999GF102991021999012501999999IA1289KA1240N-01011MA1999999089311MD1710461+9999MW1021OD139900701999REMSYN09401359 11682 22501 11008 21037 38931 49827 57046 60002 70210 82500 333 21101 48012 70020 91107=
0110013590999992019011307004+60533+008200FM-12+077399999V0202401N006019999999N999999999+00161-00391098001ADDAA101000091MA1999999089141MD1710471+9999REMSYN05801359 26/// /2406 10016 21039 38914 49800 57047 333 60005=
0110013590999992019011308004+60533+008200FM-12+077399999V0202401N005019999999N999999999+00171-00391097921ADDAA101000091MA1999999089081MD1610381+9999REMSYN05801359 26/// /2405 10017 21039 38908 49792 56038 333 60005=
0110013590999992019011309004+60533+008200FM-12+077399999V0202901N003019999999N999999999+00201-00571097821ADDAA101000091MA1999999088991MD1610321+9999REMSYN05801359 26/// /2903 10020 21057 38899 49782 56032 333 60005=
0110013590999992019011310004+60533+008200FM-12+077399999V0202601N002019999999N999999999+00061-00461097831ADDAA101000091MA1999999088961MD1610191+9999REMSYN05801359 26/// /2602 10006 21046 38896 49783 56019 333 60005=
0110013590999992019011311004+60533+008200FM-12+077399999V0202801N003019999999N999999999+00241-00481097791ADDAA101000091MA1999999088981MD1510101+9999REMSYN05801359 26/// /2803 10024 21048 38898 49779 55010 333 60005=
0244013590999992019011312004+60533+008200FM-12+077399999V0202801N003012200019N035000199+00211-00491097871ADDAA106000091AY111021AY201021GA1031+008001081GA2999+999999001GE19AGL   +99999+99999GF104991031999008001999999MA1999999089051MD1310051+9999MW1021OD139901101999REMSYN07601359 11581 42803 10021 21049 38905 49787 53005 60001 70210 83801 333 91111=
0110013590999992019011313004+60533+008200FM-12+077399999V0202601N002019999999N999999999+00021-00691098081ADDAA101000131MA1999999089171MD1310201+9999REMSYN05801359 26/// /2602 10002 21069 38917 49808 53020 333 69915=
0039013590999992019011314004+60533+008200FM-12+077399999V0209999C999999999999N999999999+99999+99999999999REMSYN03001359 46/// ///// 1//// 2////=
0110013590999992019011315004+60533+008200FM-12+077399999V0202601N003019999999N999999999-00281-00781098351ADDAA101000131MA1999999089321MD1110281+9999REMSYN05801359 26/// /2603 11028 21078 38932 49835 51028 333 69915=
0110013590999992019011316004+60533+008200FM-12+077399999V0202601N004019999999N999999999-00431-01081098521ADDAA101000091MA1999999089431MD1310261+9999REMSYN05801359 26/// /2604 11043 21108 38943 49852 53026 333 60005=
0110013590999992019011317004+60533+008200FM-12+077399999V0202701N003019999999N999999999-00471-01161098601ADDAA101000091MA1999999089491MD1110231+9999REMSYN05801359 26/// /2703 11047 21116 38949 49860 51023 333 60005=
0247013590999992019011318004+60533+008200FM-12+077399999V0202601N004012200019N060000199-00531-01231098641ADDAA112000231AY111021AY201021GA1011+008001061GE19AGL   +99999+99999GF101991011999008001999999KA1120M+00271MA1999999089511MD1110191+9999MW1021OD139901201999REMSYN08201359 11586 12604 11053 21123 38951 49864 51019 69922 70210 81500 333 10027 91112=
0110013590999992019011319004+60533+008200FM-12+077399999V0202701N004019999999N999999999-00581-01211098731ADDAA101000091MA1999999089571MD1110141+9999REMSYN05801359 26/// /2704 11058 21121 38957 49873 51014 333 60005=
0110013590999992019011320004+60533+008200FM-12+077399999V0202701N005019999999N999999999-00561-01321098781ADDAA101000091MA1999999089621MD1310121+9999REMSYN05801359 26/// /2705 11056 21132 38962 49878 53012 333 60005=
0110013590999992019011321004+60533+008200FM-12+077399999V0202601N004019999999N999999999-00611-01371098811ADDAA101000091MA1999999089631MD1990111+9999REMSYN05801359 26/// /2604 11061 21137 38963 49881 50011 333 60005=
0110013590999992019011322004+60533+008200FM-12+077399999V0202701N005019999999N999999999-00651-01401098951ADDAA101000091MA1999999089741MD1310171+9999REMSYN05801359 26/// /2705 11065 21140 38974 49895 53017 333 60005=
0110013590999992019011323004+60533+008200FM-12+077399999V0202801N003019999999N999999999-00761-01491099111ADDAA101000091MA1999999089851MD1310231+9999REMSYN05801359 26/// /2803 11076 21149 38985 49911 53023 333 60005=
0130013590999992019011400004+60533+008200FM-12+077399999V0202801N003019999999N999999999-00761-01561099151ADDAA106000091MA1999999089891MD1110271+9999OD139901201999REMSYN06401359 16/// /2803 11076 21156 38989 49915 51027 60001 333 91112=
0110013590999992019011401004+60533+008200FM-12+077399999V0202701N005019999999N999999999-00751-01521099241ADDAA101000091MA1999999089971MD1110221+9999REMSYN05801359 26/// /2705 11075 21152 38997 49924 51022 333 60005=
0110013590999992019011402004+60533+008200FM-12+077399999V0202801N004019999999N999999999-00781-01551099281ADDAA101000091MA1999999090001MD1990151+9999REMSYN05801359 26/// /2804 11078 21155 39000 49928 50015 333 60005=
0110013590999992019011403004+60533+008200FM-12+077399999V0202701N004019999999N999999999-00761-01581099341ADDAA101000091MA1999999090061MD1110161+9999REMSYN05801359 26/// /2704 11076 21158 39006 49934 51016 333 60005=
0110013590999992019011404004+60533+008200FM-12+077399999V0202701N005019999999N999999999-00691-01541099331ADDAA101000091MA1999999090071MD1990091+9999REMSYN05801359 26/// /2705 11069 21154 39007 49933 50009 333 60005=
0110013590999992019011405004+60533+008200FM-12+077399999V0202801N005019999999N999999999-00721-01481099351ADDAA101000091MA1999999090081MD1990071+9999REMSYN05801359 26/// /2805 11072 21148 39008 49935 50007 333 60005=
0293013590999992019011406004+60533+008200FM-12+077399999V0202801N006012200019N035000199-00661-01491099311ADDAA112000091AA224000231AJ100113100110099AY101021AY201021GA1011+008001061GE19AGL   +99999+99999GF101991011999008001999999IA1289KA1240N-00851MA1999999090061MD1990001+9999MW1021OD139901401999REMSYN09401359 11581 12806 11066 21149 39006 49931 50000 60002 70200 81500 333 21085 48011 70002 91114=
0110013590999992019011407004+60533+008200FM-12+077399999V0203001N007019999999N999999999-00611-01401099351ADDAA101000091MA1999999090121MD1310051+9999REMSYN05801359 26/// /3007 11061 21140 39012 49935 53005 333 60005=
0110013590999992019011408004+60533+008200FM-12+077399999V0202501N006019999999N999999999-00691-01321099531ADDAA101000131MA1999999090261MD1310191+9999REMSYN05801359 26/// /2506 11069 21132 39026 49953 53019 333 69915=
0110013590999992019011409004+60533+008200FM-12+077399999V0202501N008019999999N999999999-00671-01141099661ADDAA101000091MA1999999090381MD1310311+9999REMSYN05801359 26/// /2508 11067 21114 39038 49966 53031 333 60005=
0110013590999992019011410004+60533+008200FM-12+077399999V0202501N009019999999N999999999-00591-01091099651ADDAA101000091MA1999999090391MD1110261+9999REMSYN05801359 26/// /2509 11059 21109 39039 49965 51026 333 60005=
0110013590999992019011411004+60533+008200FM-12+077399999V0202501N007019999999N999999999-00491-01081099611ADDAA101000091MA1999999090391MD1110141+9999REMSYN05801359 26/// /2507 11049 21108 39039 49961 51014 333 60005=
0244013590999992019011412004+60533+008200FM-12+077399999V0202501N007019999999N017000199-00461-00951099671ADDAA106000131AY181021AY231021GA1031+008001091GA2999+999999021GE19AGL   +99999+99999GF105991031999008001999999MA1999999090461MD1310081+9999MW1851OD139902001999REMSYN07601359 11567 52507 11046 21095 39046 49967 53008 69911 78583 83308 333 91120=
0110013590999992019011413004+60533+008200FM-12+077399999V0202501N005019999999N999999999-00351-00931099711ADDAA101000091MA1999999090531MD1310141+9999REMSYN05801359 26/// /2505 11035 21093 39053 49971 53014 333 60005=
0110013590999992019011414004+60533+008200FM-12+077399999V0202501N005019999999N999999999-00421-00851099831ADDAA101000091MA1999999090621MD1210231+9999REMSYN05801359 26/// /2505 11042 21085 39062 49983 52023 333 60005=
0110013590999992019011415004+60533+008200FM-12+077399999V0202701N004019999999N999999999-00361-01231099891ADDAA101000091MA1999999090691MD1210231+9999REMSYN05801359 26/// /2704 11036 21123 39069 49989 52023 333 60005=
0110013590999992019011416004+60533+008200FM-12+077399999V0202901N003019999999N999999999-00401-01251100001ADDAA101000091MA1999999090771MD1210231+9999REMSYN05801359 26/// /2903 11040 21125 39077 40000 52023 333 60005=
0110013590999992019011417004+60533+008200FM-12+077399999V0202801N003019999999N999999999-00431-01271100061ADDAA101000091MA1999999090821MD1310201+9999REMSYN05801359 26/// /2803 11043 21127 39082 40006 53020 333 60005=
0247013590999992019011418004+60533+008200FM-12+077399999V0202701N004012200019N055000199-00461-01321100161ADDAA112000131AY181021AY231021GA1011+012501061GE19AGL   +99999+99999GF101991011999012501999999KA1120M-00281MA1999999090911MD1210221+9999MW1011OD139901301999REMSYN08201359 11685 12704 11046 21132 39091 40016 52022 69912 70183 81500 333 11028 91113=
0110013590999992019011419004+60533+008200FM-12+077399999V0202601N005019999999N999999999-00481-01361100201ADDAA101000091MA1999999090931MD1990161+9999REMSYN05801359 26/// /2605 11048 21136 39093 40020 50016 333 60005=
0110013590999992019011420004+60533+008200FM-12+077399999V0202601N005019999999N999999999-00501-01381100241ADDAA101000091MA1999999090961MD1110141+9999REMSYN05801359 26/// /2605 11050 21138 39096 40024 51014 333 60005=
0110013590999992019011421004+60533+008200FM-12+077399999V0202301N003019999999N999999999-00611-01261100371ADDAA101000091MA1999999091051MD1310141+9999REMSYN05801359 26/// /2303 11061 21126 39105 40037 53014 333 60005=
0110013590999992019011422004+60533+008200FM-12+077399999V0202801N002019999999N999999999-00711-01241100411ADDAA101000091MA1999999091051MD1990111+9999REMSYN05801359 26/// /2802 11071 21124 39105 40041 50011 333 60005=
0110013590999992019011423004+60533+008200FM-12+077399999V0203001N002019999999N999999999-00671-01311100391ADDAA101000091MA1999999091041MD1990071+9999REMSYN05801359 26/// /3002 11067 21131 39104 40039 50007 333 60005=
0130013590999992019011500004+60533+008200FM-12+077399999V0202601N002019999999N999999999-00691-01341100371ADDAA106000091MA1999999091021MD1810031+9999OD139901301999REMSYN06401359 16/// /2602 11069 21134 39102 40037 58003 60001 333 91113=
0110013590999992019011501004+60533+008200FM-12+077399999V0202601N002019999999N999999999-00841-01281100401ADDAA101000091MA1999999090991MD1810051+9999REMSYN05801359 26/// /2602 11084 21128 39099 40040 58005 333 60005=
0110013590999992019011502004+60533+008200FM-12+077399999V0202501N003019999999N999999999-00741-01251100331ADDAA101000091MA1999999090961MD1710081+9999REMSYN05801359 26/// /2503 11074 21125 39096 40033 57008 333 60005=
0110013590999992019011503004+60533+008200FM-12+077399999V0202501N002019999999N999999999-00741-01261100211ADDAA101000091MA1999999090861MD1810161+9999REMSYN05801359 26/// /2502 11074 21126 39086 40021 58016 333 60005=
0110013590999992019011504004+60533+008200FM-12+077399999V0203101N001019999999N999999999-00741-01201100081ADDAA101000091MA1999999090741MD1810251+9999REMSYN05801359 26/// /3101 11074 21120 39074 40008 58025 333 60005=
0110013590999992019011505004+60533+008200FM-12+077399999V0202701N002019999999N999999999-00661-01081099991ADDAA101000091MA1999999090681MD1610281+9999REMSYN05801359 26/// /2702 11066 21108 39068 49999 56028 333 60005=
0312013590999992019011506004+60533+008200FM-12+077399999V0202301N001019999999N008000199-00651-00971099821ADDAA112999999AA224000131AJ100113100110099AY171021AY221021GA1081+008001051GE19AGL   +99999+99999GF108991081999008001999999IA1269KA1240N-00851MA1999999090531MD1810321+9999MW1701OD139900701999REMSYN09401359 11558 82301 11065 21097 39053 49982 58032 60002 77072 8802/ 333 21085 42011 70001 91107=EQDQ01  00002PRCP12
0110013590999992019011507004+60533+008200FM-12+077399999V0200401N001019999999N999999999-00791-00911099821ADDAA101000731MA1999999090481MD1810251+9999REMSYN05801359 26/// /0401 11079 21091 39048 49982 58025 333 69975=
0110013590999992019011508004+60533+008200FM-12+077399999V0200501N001019999999N999999999-00761-00871099701ADDAA101000231MA1999999090381MD1610301+9999REMSYN05801359 26/// /0501 11076 21087 39038 49970 56030 333 69925=
0110013590999992019011509004+60533+008200FM-12+077399999V0200601N001019999999N999999999-00771-00861099621ADDAA101000231MA1999999090311MD1810231+9999REMSYN05801359 26/// /0601 11077 21086 39031 49962 58023 333 69925=
0110013590999992019011510004+60533+008200FM-12+077399999V0201601N001019999999N999999999-00711-00801099481ADDAA101000331MA1999999090201MD1710281+9999REMSYN05801359 26/// /1601 11071 21080 39020 49948 57028 333 69935=
0110013590999992019011511004+60533+008200FM-12+077399999V0201501N001019999999N999999999-00691-00811099381ADDAA101000531MA1999999090121MD1710261+9999REMSYN05801359 26/// /1501 11069 21081 39012 49938 57026 333 69955=
0244013590999992019011512004+60533+008200FM-12+077399999V0200801N002019999999N015000199-00681-00851099321ADDAA106002031AY171021AY271021GA1071+008001051GA2999+999999021GE19AGL   +99999+99999GF108991071999008001999999MA1999999090061MD1610251+9999MW1701OD139900501999REMSYN07601359 11565 80802 11068 21085 39006 49932 56025 60021 77077 87027 333 91105=
0110013590999992019011513004+60533+008200FM-12+077399999V0202401N004019999999N999999999-00201-00541099111ADDAA101000131MA1999999090041MD1610161+9999REMSYN05801359 26/// /2404 11020 21054 39004 49911 56016 333 69915=
0110013590999992019011514004+60533+008200FM-12+077399999V0202601N006019999999N999999999-00101-00621099131ADDAA101000091MA1999999090091MD1510031+9999REMSYN05801359 26/// /2606 11010 21062 39009 49913 55003 333 60005=
0110013590999992019011515004+60533+008200FM-12+077399999V0202401N004019999999N999999999-00181-00511099211ADDAA101000091MA1999999090141MD1310081+9999REMSYN05801359 26/// /2404 11018 21051 39014 49921 53008 333 60005=
0110013590999992019011516004+60533+008200FM-12+077399999V0202401N003019999999N999999999-00151-00561099281ADDAA101000091MA1999999090211MD1210171+9999REMSYN05801359 26/// /2403 11015 21056 39021 49928 52017 333 60005=
0110013590999992019011517004+60533+008200FM-12+077399999V0202501N005019999999N999999999-00141-00621099321ADDAA101000091MA1999999090251MD1210151+9999REMSYN05801359 26/// /2505 11014 21062 39025 49932 52015 333 60005=
0247013590999992019011518004+60533+008200FM-12+077399999V0202701N004012200019N040000199-00061-00881099341ADDAA112002031AY171021AY231021GA1011+008001061GE19AGL   +99999+99999GF101991011999008001999999KA1120M-00031MA1999999090291MD1110151+9999MW1011OD139901201999REMSYN08201359 11582 12704 11006 21088 39029 49934 51015 60022 70173 81500 333 11003 91112=
0039013590999992019011519004+60533+008200FM-12+077399999V0209999C999999999999N999999999+99999+99999999999REMSYN03001359 46/// ///// 1//// 2////=
0110013590999992019011520004+60533+008200FM-12+077399999V0202101N001019999999N999999999-00421-00831099591ADDAA101000091MA1999999090401MD1210161+9999REMSYN05801359 26/// /2101 11042 21083 39040 49959 52016 333 60005=
0110013590999992019011521004+60533+008200FM-12+077399999V0202201N002019999999N999999999-00331-00701099571ADDAA101000091MA1999999090411MD1110121+9999REMSYN05801359 26/// /2202 11033 21070 39041 49957 51012 333 60005=
0110013590999992019011522004+60533+008200FM-12+077399999V0203301N002019999999N999999999-00291-00671099531ADDAA101000091MA1999999090381MD1990031+9999REMSYN05801359 26/// /3302 11029 21067 39038 49953 50003 333 60005=
0110013590999992019011523004+60533+008200FM-12+077399999V0200201N001019999999N999999999-00451-00811099581ADDAA101000091MA1999999090381MD1810031+9999REMSYN05801359 26/// /0201 11045 21081 39038 49958 58003 333 60005=
0130013590999992019011600004+60533+008200FM-12+077399999V0202801N002019999999N999999999-00341-00711099521ADDAA106000091MA1999999090361MD1610051+9999OD139900801999REMSYN06401359 16/// /2802 11034 21071 39036 49952 56005 60001 333 91108=
0110013590999992019011601004+60533+008200FM-12+077399999V0202501N001019999999N999999999-00461-00741099531ADDAA101000091MA1999999090331MD1710051+9999REMSYN05801359 26/// /2501 11046 21074 39033 49953 57005 333 60005=
0110013590999992019011602004+60533+008200FM-12+077399999V0203101N002019999999N999999999-00371-00691099451ADDAA101000091MA1999999090291MD1710081+9999REMSYN05801359 26/// /3102 11037 21069 39029 49945 57008 333 60005=
0110013590999992019011603004+60533+008200FM-12+077399999V0200601N001019999999N999999999-00531-00691099411ADDAA101000231MA1999999090201MD1810161+9999REMSYN05801359 26/// /0601 11053 21069 39020 49941 58016 333 69925=
0110013590999992019011604004+60533+008200FM-12+077399999V0200801N001019999999N999999999-00751-00891099431ADDAA101000331MA1999999090141MD1810191+9999REMSYN05801359 26/// /0801 11075 21089 39014 49943 58019 333 69935=
0110013590999992019011605004+60533+008200FM-12+077399999V0200501N001019999999N999999999-00811-00921099321ADDAA101002031MA1999999090031MD1810261+9999REMSYN05801359 26/// /0501 11081 21092 39003 49932 58026 333 60025=
0293013590999992019011606004+60533+008200FM-12+077399999V0200601N001019999999N002700199-00821-00931099181ADDAA112004031AA224006531AJ100073100070099AY171021AY201021GA1081+004501051GE19AGL   +99999+99999GF108991081999004501999999IA1289KA1240N-00821MA1999999089891MD1810301+9999MW1711OD139900301999REMSYN09401359 11427 80601 11082 21093 38989 49918 58030 60042 77170 8802/ 333 21082 48007 70065 91103=
0110013590999992019011607004+60533+008200FM-12+077399999V0200701N001019999999N999999999-00841-00961099011ADDAA101003031MA1999999089731MD1810401+9999REMSYN05801359 26/// /0701 11084 21096 38973 49901 58040 333 60035=
0110013590999992019011608004+60533+008200FM-12+077399999V0200501N001019999999N999999999-00871-00991098941ADDAA101002031MA1999999089661MD1610371+9999REMSYN05801359 26/// /0501 11087 21099 38966 49894 56037 333 60025=
0110013590999992019011609004+60533+008200FM-12+077399999V0200201N001019999999N999999999-00871-00981098891ADDAA101002031MA1999999089611MD1610271+9999REMSYN05801359 26/// /0201 11087 21098 38961 49889 56027 333 60025=
0110013590999992019011610004+60533+008200FM-12+077399999V0202601N001019999999N999999999-00861-00981098771ADDAA101001031MA1999999089511MD1810221+9999REMSYN05801359 26/// /2601 11086 21098 38951 49877 58022 333 60015=
0110013590999992019011611004+60533+008200FM-12+077399999V0200901N001019999999N999999999-00751-00921098641ADDAA101000231MA1999999089431MD1810231+9999REMSYN05801359 26/// /0901 11075 21092 38943 49864 58023 333 69925=
0244013590999992019011612004+60533+008200FM-12+077399999V0201001N001019999999N030000199-00701-00911098491ADDAA106008031AY171021AY221021GA1051+002501061GA2999+999999031GE19AGL   +99999+99999GF108991051999002501999999MA1999999089311MD1710301+9999MW1021OD139900301999REMSYN07601359 11380 81001 11070 21091 38931 49849 57030 60081 70272 8557/ 333 91103=
0110013590999992019011613004+60533+008200FM-12+077399999V0202201N002019999999N999999999-00741-00941098321ADDAA101000091MA1999999089141MD1810371+9999REMSYN05801359 26/// /2202 11074 21094 38914 49832 58037 333 60005=
0110013590999992019011614004+60533+008200FM-12+077399999V0200701N002019999999N999999999-00771-00901098241ADDAA101000091MA1999999089061MD1510391+9999REMSYN05801359 26/// /0702 11077 21090 38906 49824 55039 333 60005=
0110013590999992019011615004+60533+008200FM-12+077399999V0200501N003019999999N999999999-00731-00861098341ADDAA101003031MA1999999089161MD1510161+9999REMSYN05801359 26/// /0503 11073 21086 38916 49834 55016 333 60035=
0110013590999992019011616004+60533+008200FM-12+077399999V0200501N002019999999N999999999-00841-00941098481ADDAA101000091MA1999999089251MD1310111+9999REMSYN05801359 26/// /0502 11084 21094 38925 49848 53011 333 60005=
0110013590999992019011617004+60533+008200FM-12+077399999V0200701N002019999999N999999999-00961-01031098601ADDAA101000091MA1999999089321MD1110271+9999REMSYN05801359 26/// /0702 11096 21103 38932 49860 51027 333 60005=
0203013590999992019011618004+60533+008200FM-12+077399999V0202501N002019999999N060000199-01121-01261098731ADDAA112011031AY171021AY221021GF100995999999999999999999KA1120M-00371MA1999999089391MD1310231+9999MW1011OD139900801999REMSYN07601359 11986 02502 11112 21126 38939 49873 53023 60112 70172 333 11037 91108=
0110013590999992019011619004+60533+008200FM-12+077399999V0200101N001019999999N999999999-01221-01361098841ADDAA101000091MA1999999089441MD1110181+9999REMSYN05801359 26/// /0101 11122 21136 38944 49884 51018 333 60005=
0110013590999992019011620004+60533+008200FM-12+077399999V0202201N001019999999N999999999-01501-01621098961ADDAA101000091MA1999999089461MD1110141+9999REMSYN05801359 26/// /2201 11150 21162 38946 49896 51014 333 60005=
0110013590999992019011621004+60533+008200FM-12+077399999V0200201N002019999999N999999999-01301-01421098911ADDAA101000091MA1999999089491MD1110101+9999REMSYN05801359 26/// /0202 11130 21142 38949 49891 51010 333 60005=
0110013590999992019011622004+60533+008200FM-12+077399999V0202301N002019999999N999999999-01471-01661099031ADDAA101000091MA1999999089531MD1310091+9999REMSYN05801359 26/// /2302 11147 21166 38953 49903 53009 333 60005=
0110013590999992019011623004+60533+008200FM-12+077399999V0203401N001019999999N999999999-01401-01551099041ADDAA101000091MA1999999089571MD1310111+9999REMSYN05801359 26/// /3401 11140 21155 38957 49904 53011 333 60005=
0130013590999992019011700004+60533+008200FM-12+077399999V0202601N001019999999N999999999-01531-01761099121ADDAA106000091MA1999999089591MD1110101+9999OD139900501999REMSYN06401359 16/// /2601 11153 21176 38959 49912 51010 60001 333 91105=
0110013590999992019011701004+60533+008200FM-12+077399999V0200401N001019999999N999999999-01301-01481099041ADDAA101000091MA1999999089601MD1210081+9999REMSYN05801359 26/// /0401 11130 21148 38960 49904 52008 333 60005=
0110013590999992019011702004+60533+008200FM-12+077399999V0202401N001019999999N999999999-01191-01401099051ADDAA101000091MA1999999089651MD1990061+9999REMSYN05801359 26/// /2401 11119 21140 38965 49905 50006 333 60005=
0110013590999992019011703004+60533+008200FM-12+077399999V0203601N004019999999N999999999-00721-01321098931ADDAA101000091MA1999999089701MD1310111+9999REMSYN05801359 26/// /3604 11072 21132 38970 49893 53011 333 60005=
0110013590999992019011704004+60533+008200FM-12+077399999V0203301N005019999999N999999999-00641-01331098911ADDAA101000091MA1999999089701MD1110101+9999REMSYN05801359 26/// /3305 11064 21133 38970 49891 51010 333 60005=
0110013590999992019011705004+60533+008200FM-12+077399999V0203101N005019999999N999999999-00661-01341099021ADDAA101000091MA1999999089801MD1310141+9999REMSYN05801359 26/// /3105 11066 21134 38980 49902 53014 333 60005=
0293013590999992019011706004+60533+008200FM-12+077399999V0203101N003012200019N020000199-00681-01301099141ADDAA112000091AA224010731AJ100193100190099AY131021AY201021GA1011+012501061GE19AGL   +99999+99999GF101991011999012501999999IA1289KA1240N-01631MA1999999089911MD1310201+9999MW1021OD139901001999REMSYN09401359 11670 13103 11068 21130 38991 49914 53020 60002 70230 81500 333 21163 48019 70107 91110=
0110013590999992019011707004+60533+008200FM-12+077399999V0203301N003019999999N999999999-00601-01291099241ADDAA101000091MA1999999090021MD1310311+9999REMSYN05801359 26/// /3303 11060 21129 39002 49924 53031 333 60005=
0110013590999992019011708004+60533+008200FM-12+077399999V0202601N002019999999N999999999-00711-01361099451ADDAA101000091MA1999999090181MD1310371+9999REMSYN05801359 26/// /2602 11071 21136 39018 49945 53037 333 60005=
0110013590999992019011709004+60533+008200FM-12+077399999V0202901N002019999999N999999999-00711-01301099611ADDAA101000091MA1999999090321MD1310411+9999REMSYN05801359 26/// /2902 11071 21130 39032 49961 53041 333 60005=
0110013590999992019011710004+60533+008200FM-12+077399999V0203101N002019999999N999999999-00611-01311099711ADDAA101000091MA1999999090451MD1110421+9999REMSYN05801359 26/// /3102 11061 21131 39045 49971 51042 333 60005=
0110013590999992019011711004+60533+008200FM-12+077399999V0203101N003019999999N999999999-00611-01471099831ADDAA101000091MA1999999090551MD1110381+9999REMSYN05801359 26/// /3103 11061 21147 39055 49983 51038 333 60005=
0200013590999992019011712004+60533+008200FM-12+077399999V0209999C999992200019N060000199+99999+99999999999ADDAA199999919AY101021AY201021GA1999+999999021GE19AGL   +99999+99999GF101991001999999999999999MW1021OD139901001999REMSYN05801359 11986 1//// 1//// 2//// 6//// 70200 80008 333 91110=EQDQ01    003SCCGA1
0110013590999992019011713004+60533+008200FM-12+077399999V0203101N004019999999N999999999-00511-01521099911ADDAA101000091MA1999999090661MD1110211+9999REMSYN05801359 26/// /3104 11051 21152 39066 49991 51021 333 60005=
0110013590999992019011714004+60533+008200FM-12+077399999V0203101N005019999999N999999999-00581-01341099991ADDAA101000091MA1999999090711MD1210161+9999REMSYN05801359 26/// /3105 11058 21134 39071 49999 52016 333 60005=
0110013590999992019011715004+60533+008200FM-12+077399999V0203101N006019999999N999999999-00611-01281100091ADDAA101000091MA1999999090791MD1110201+9999REMSYN05801359 26/// /3106 11061 21128 39079 40009 51020 333 60005=
0110013590999992019011716004+60533+008200FM-12+077399999V0203101N005019999999N999999999-00591-01331100181ADDAA101000091MA1999999090881MD1310221+9999REMSYN05801359 26/// /3105 11059 21133 39088 40018 53022 333 60005=
0110013590999992019011717004+60533+008200FM-12+077399999V0203101N005019999999N999999999-00591-01251100261ADDAA101000091MA1999999090951MD1110241+9999REMSYN05801359 26/// /3105 11059 21125 39095 40026 51024 333 60005=
0247013590999992019011718004+60533+008200FM-12+077399999V0203001N004019999999N050000199-00701-01281100461ADDAA112000091AY121021AY201021GA1051+012501061GE19AGL   +99999+99999GF105991051999012501999999KA1120M-00481MA1999999091091MD1310301+9999MW1021OD139901401999REMSYN08201359 11684 53004 11070 21128 39109 40046 53030 60002 70220 85500 333 11048 91114=
0110013590999992019011719004+60533+008200FM-12+077399999V0202901N003019999999N999999999-00661-01291100501ADDAA101000091MA1999999091141MD1110261+9999REMSYN05801359 26/// /2903 11066 21129 39114 40050 51026 333 60005=
0110013590999992019011720004+60533+008200FM-12+077399999V0202701N002019999999N999999999-00641-01341100571ADDAA101000091MA1999999091211MD1110261+9999REMSYN05801359 26/// /2702 11064 21134 39121 40057 51026 333 60005=
0110013590999992019011721004+60533+008200FM-12+077399999V0203001N004019999999N999999999-00621-01301100591ADDAA101000091MA1999999091241MD1110141+9999REMSYN05801359 26/// /3004 11062 21130 39124 40059 51014 333 60005=
0110013590999992019011722004+60533+008200FM-12+077399999V0202601N004019999999N999999999-00641-01271100671ADDAA101000091MA1999999091301MD1210161+9999REMSYN05801359 26/// /2604 11064 21127 39130 40067 52016 333 60005=
0110013590999992019011723004+60533+008200FM-12+077399999V0202401N003019999999N999999999-00671-01361100741ADDAA101000091MA1999999091361MD1310141+9999REMSYN05801359 26/// /2403 11067 21136 39136 40074 53014 333 60005=
0130013590999992019011800004+60533+008200FM-12+077399999V0202801N003019999999N999999999-00861-01371100861ADDAA106000091MA1999999091401MD1110161+9999OD139901101999REMSYN06401359 16/// /2803 11086 21137 39140 40086 51016 60001 333 91111=
0110013590999992019011801004+60533+008200FM-12+077399999V0202801N003019999999N999999999-00951-01451100951ADDAA101000091MA1999999091451MD1110151+9999REMSYN05801359 26/// /2803 11095 21145 39145 40095 51015 333 60005=
0110013590999992019011802004+60533+008200FM-12+077399999V0202701N003019999999N999999999-01001-01471100991ADDAA101000091MA1999999091471MD1110111+9999REMSYN05801359 26/// /2703 11100 21147 39147 40099 51011 333 60005=
0110013590999992019011803004+60533+008200FM-12+077399999V0202601N003019999999N999999999-01001-01431100981ADDAA101000091MA1999999091461MD1110061+9999REMSYN05801359 26/// /2603 11100 21143 39146 40098 51006 333 60005=
0110013590999992019011804004+60533+008200FM-12+077399999V0202701N001019999999N999999999-00961-01341100921ADDAA101000091MA1999999091421MD1810021+9999REMSYN05801359 26/// /2701 11096 21134 39142 40092 58002 333 60005=
0110013590999992019011805004+60533+008200FM-12+077399999V0202401N004019999999N999999999-00781-01091100851ADDAA101000091MA1999999091421MD1810051+9999REMSYN05801359 26/// /2404 11078 21109 39142 40085 58005 333 60005=
0293013590999992019011806004+60533+008200FM-12+077399999V0202401N003012200019N050000199-00731-01161100841ADDAA112000091AA224000091AJ100153100150099AY121021AY201021GA1031+012501061GE19AGL   +99999+99999GF103991031999012501999999IA1289KA1240N-01061MA1999999091421MD1510041+9999MW1021OD139900901999REMSYN09401359 11684 32403 11073 21116 39142 40084 55004 60002 70220 83500 333 21106 48015 70000 91109=
0110013590999992019011807004+60533+008200FM-12+077399999V0202201N003019999999N999999999-00711-01151100861ADDAA101000091MA1999999091461MD1310031+9999REMSYN05801359 26/// /2203 11071 21115 39146 40086 53003 333 60005=
0110013590999992019011808004+60533+008200FM-12+077399999V0202501N003019999999N999999999-00631-01121100911ADDAA101000091MA1999999091531MD1310101+9999REMSYN05801359 26/// /2503 11063 21112 39153 40091 53010 333 60005=
0110013590999992019011809004+60533+008200FM-12+077399999V0202701N002019999999N999999999-00631-01111100971ADDAA101000091MA1999999091581MD1310161+9999REMSYN05801359 26/// /2702 11063 21111 39158 40097 53016 333 60005=
0110013590999992019011810004+60533+008200FM-12+077399999V0202701N002019999999N999999999-00551-01141101021ADDAA101000091MA1999999091661MD1210201+9999REMSYN05801359 26/// /2702 11055 21114 39166 40102 52020 333 60005=
0110013590999992019011811004+60533+008200FM-12+077399999V0202501N002019999999N999999999-00521-01101101051ADDAA101000091MA1999999091691MD1110161+9999REMSYN05801359 26/// /2502 11052 21110 39169 40105 51016 333 60005=
0228013590999992019011812004+60533+008200FM-12+077399999V0202201N003012200019N070000199-00621-01191101081ADDAA106000091AY101021AY201021GA1011+012501061GE19AGL   +99999+99999GF101991011999012501999999MA1999999091681MD1990101+9999MW1021OD139900601999REMSYN07601359 11688 12203 11062 21119 39168 40108 50010 60001 70200 81500 333 91106=
0110013590999992019011813004+60533+008200FM-12+077399999V0202101N004019999999N999999999-00581-01031101081ADDAA101000091MA1999999091701MD1110051+9999REMSYN05801359 26/// /2104 11058 21103 39170 40108 51005 333 60005=
0110013590999992019011814004+60533+008200FM-12+077399999V0202201N004019999999N999999999-00571-00871101101ADDAA101000091MA1999999091721MD1210031+9999REMSYN05801359 26/// /2204 11057 21087 39172 40110 52003 333 60005=
0110013590999992019011815004+60533+008200FM-12+077399999V0202601N002019999999N999999999-00581-00801101141ADDAA101000091MA1999999091751MD1210061+9999REMSYN05801359 26/// /2602 11058 21080 39175 40114 52006 333 60005=
0110013590999992019011816004+60533+008200FM-12+077399999V0202601N001019999999N999999999-00621-00801101141ADDAA101000091MA1999999091741MD1990041+9999REMSYN05801359 26/// /2601 11062 21080 39174 40114 50004 333 60005=
