0164419410999992019010100004+23267+090700FM-12+000799999V0203601N001019999999N004000199+01571+01501101581ADDAA124000091AY101021AY201021GF100995999999999999999999MA1999999101521MD1999999-0141MW1051REMSYN06441941 32940 03602 10157 20150 30152 40158 70500 333 59014 70000=
0155419410999992019010103004+23267+090700FM-12+000799999V0203601N001019999999N006000199+01921+01501101871ADDAA124000091GF100995999999999999999999KA1240N+01511MA1999999101811MD1999999-0041REMSYN06441941 32956 03602 10192 20150 30181 40187 333 20151 59004 70000=
0136419410999992019010106004+23267+090700FM-12+000799999V0203601N001519999999N006000199+02501+01301101771ADDAA124000091GF100995999999999999999999MA1999999101711MD1999999-0061REMSYN05841941 32956 03603 10250 20130 30171 40177 333 59006 70000=
0238419410999992019010112004+23267+090700FM-12+000799999V0209999C00001999999CN005000199+02101+01501101711ADDAA124000091GA1021+003901061GA2031+036001031GE19AGL   +99999+99999GF103991021999003901999999KA1240M+02781MA1999999101661REMSYN08841941 32450 30000 10210 20150 30166 40171 82530 333 10278 56990 58016 70000 82613 83362=EQDQ01 036003SCOCIG
0136419410999992019010115004+23267+090700FM-12+000799999V0209999C000019999999N004000199+01941+01501101801ADDAA124000091GF100995999999999999999999MA1999999101751MD1999999+0151REMSYN05841941 32940 00000 10194 20150 30175 40180 333 58015 70000=
0136419410999992019010118004+23267+090700FM-12+000799999V0203601N001019999999N004000199+01741+01501101811ADDAA124000091GF100995999999999999999999MA1999999101751MD1999999+0101REMSYN05841941 32940 03602 10174 20150 30175 40181 333 58010 70000=
0164419410999992019010121004+23267+090700FM-12+000799999V0203201N000519999999N004000199+01661+01601101761ADDAA124000091AY101021AY201021GF100995999999999999999999MA1999999101701MD1999999+0161MW1051REMSYN06441941 31940 03201 10166 20160 30170 40176 70500 333 58016 70000=
0164419410999992019010200004+23267+090700FM-12+000799999V0209999C000019999999N004000199+01541+01401101781ADDAA124000091AY101021AY201021GF100995999999999999999999MA1999999101721MD1999999+0201MW1051REMSYN06441941 31940 00000 10154 20140 30172 40178 70500 333 58020 70000=
0155419410999992019010203004+23267+090700FM-12+000799999V0209999C000019999999N006000199+01981+01401101981ADDAA124000091GF100995999999999999999999KA1240N+01491MA1999999101921MD1999999+0111REMSYN06441941 32956 00000 10198 20140 30192 40198 333 20149 58011 70000=
0136419410999992019010206004+23267+090700FM-12+000799999V0203201N000519999999N006000199+02631+00401101841ADDAA124000091GF100995999999999999999999MA1999999101791MD1999999+0081REMSYN05841941 32956 03201 10263 20040 30179 40184 333 58008 70000=
0155419410999992019010212004+23267+090700FM-12+000799999V0209999C000019999999N005000199+02101+01401101771ADDAA124000091GF100995999999999999999999KA1240M+02841MA1999999101721MD1999999+0061REMSYN06441941 32950 00000 10210 20140 30172 40177 333 10284 58006 70000=
0136419410999992019010215004+23267+090700FM-12+000799999V0209999C000019999999N004000199+01921+01401101711ADDAA124000091GF100995999999999999999999MA1999999101661MD1999999-0091REMSYN05841941 32940 00000 10192 20140 30166 40171 333 59009 70000=
0136419410999992019010218004+23267+090700FM-12+000799999V0209999C000019999999N004000199+01771+01401101891ADDAA124000091GF100995999999999999999999MA1999999101841MD1999999+0091REMSYN05841941 32940 00000 10177 20140 30184 40189 333 58009 70000=
0164419410999992019010221004+23267+090700FM-12+000799999V0209999C000019999999N004000199+01551+01501101841ADDAA124000091AY101021AY201021GF100995999999999999999999MA1999999101781MD1999999+0081MW1051REMSYN06441941 31940 00000 10155 20150 30178 40184 70500 333 58008 70000=
0164419410999992019010300004+23267+090700FM-12+000799999V0209999C000019999999N004000199+01481+01401101871ADDAA124000091AY101021AY201021GF100995999999999999999999MA1999999101811MD1999999+0091MW1051REMSYN06441941 31940 00000 10148 20140 30181 40187 70500 333 58009 70000=
0155419410999992019010303004+23267+090700FM-12+000799999V0203201N001019999999N006000199+01981+01401102071ADDAA124000091GF100995999999999999999999KA1240N+01451MA1999999102011MD1999999+0091REMSYN06441941 32956 03202 10198 20140 30201 40207 333 20145 58009 70000=
0136419410999992019010306004+23267+090700FM-12+000799999V0203201N001019999999N007000199+02501+01001101921ADDAA124000091GF100995999999999999999999MA1999999101871MD1999999+0081REMSYN05841941 32957 03202 10250 20100 30187 40192 333 58008 70000=
0136419410999992019010309004+23267+090700FM-12+000799999V0203601N002119999999N007000199+02571+01201101781ADDAA124000091GF100995999999999999999999MA1999999101731MD1999999+0121REMSYN05841941 32957 03604 10257 20120 30173 40178 333 58012 70000=
0155419410999992019010312004+23267+090700FM-12+000799999V0209999C000019999999N005000199+02081+01301101701ADDAA124000091GF100995999999999999999999KA1240M+02621MA1999999101641MD1999999-0021REMSYN06441941 32950 00000 10208 20130 30164 40170 333 10262 59002 70000=
0136419410999992019010315004+23267+090700FM-12+000799999V0209999C000019999999N005000199+01921+01401101801ADDAA124000091GF100995999999999999999999MA1999999101751MD1999999+0091REMSYN05841941 32950 00000 10192 20140 30175 40180 333 58009 70000=
0136419410999992019010318004+23267+090700FM-12+000799999V0209999C000019999999N004000199+01771+01401101961ADDAA124000091GF100995999999999999999999MA1999999101911MD1999999+0071REMSYN05841941 32940 00000 10177 20140 30191 40196 333 58007 70000=
0136419410999992019010321004+23267+090700FM-12+000799999V0209999C000019999999N004000199+01551+01501101941ADDAA124000091GF100995999999999999999999MA1999999101881MD1999999+0101REMSYN05841941 32940 00000 10155 22150 30188 40194 333 58010 70000=
0164419410999992019010400004+23267+090700FM-12+000799999V0203601N001519999999N004000199+01471+01401101921ADDAA124000091AY101021AY201021GF100995999999999999999999MA1999999101861MD1999999+0051MW1051REMSYN06441941 31940 03603 10147 20140 30186 40192 70500 333 58005 70000=
0155419410999992019010403004+23267+090700FM-12+000799999V0209999C000019999999N006000199+01971+01301102081ADDAA124000091GF100995999999999999999999KA1240N+01441MA1999999102021MD1999999+0011REMSYN06441941 32956 00000 10197 20130 30202 40208 333 20144 58001 70000=
0136419410999992019010406004+23267+090700FM-12+000799999V0203601N002119999999N006000199+02321+01101102141ADDAA124000091GF100995999999999999999999MA1999999102081MD1999999+0211REMSYN05841941 32956 03604 10232 20110 30208 40214 333 58021 70000=
0136419410999992019010409004+23267+090700FM-12+000799999V0203601N002619999999N006000199+02421+01001101761ADDAA124000091GF100995999999999999999999MA1999999101701MD1999999-0031REMSYN05841941 32956 03605 10242 20100 30170 40176 333 59003 70000=
0155419410999992019010412004+23267+090700FM-12+000799999V0203601N001519999999N005000199+02121+01101101681ADDAA124000091GF100995999999999999999999KA1240M+02471MA1999999101621MD1999999-0021REMSYN06441941 32950 03603 10212 20110 30162 40168 333 10247 59002 70000=
0136419410999992019010415004+23267+090700FM-12+000799999V0203601N001019999999N004000199+01821+01301101861ADDAA124000091GF100995999999999999999999MA1999999101801MD1999999+0051REMSYN05841941 32940 03602 10182 20130 30180 40186 333 58005 70000=
0164419410999992019010421004+23267+090700FM-12+000799999V0203601N001019999999N004000199+01621+01301101671ADDAA124000091AY101021AY201021GF100995999999999999999999MA1999999101611MD1999999-0271MW1051REMSYN06441941 31940 03602 10162 20130 30161 40167 70500 333 59027 70000=
0164419410999992019010500004+23267+090700FM-12+000799999V0203601N001019999999N004000199+01521+01401101611ADDAA124000091AY101021AY201021GF100995999999999999999999MA1999999101551MD1999999-0311MW1051REMSYN06441941 31940 03602 10152 20140 30155 40161 70500 333 59031 70000=
0155419410999992019010503004+23267+090700FM-12+000799999V0203601N001019999999N006000199+01741+01201101791ADDAA124000091GF100995999999999999999999KA1240N+01411MA1999999101731MD1999999-0291REMSYN06441941 32956 03602 10174 20120 30173 40179 333 20141 59029 70000=
0136419410999992019010506004+23267+090700FM-12+000799999V0203601N002119999999N006000199+02321+01301101781ADDAA124000091GF100995999999999999999999MA1999999101721MD1999999-0361REMSYN05841941 32956 03604 10232 20130 30172 40178 333 59036 70000=
0136419410999992019010509004+23267+090700FM-12+000799999V0203601N001019999999N006000199+02521+01101101581ADDAA124000091GF100995999999999999999999MA1999999101521MD1999999-0181REMSYN05841941 32956 03602 10252 20110 30152 40158 333 59018 70000=
0164419410999992019010515004+23267+090700FM-12+000799999V0209999C000019999999N004000199+01841+01601101571ADDAA124000091AY101021AY201021GF100995999999999999999999MA1999999101511MD1999999-0291MW1051REMSYN06441941 31940 00000 10184 20160 30151 40157 70500 333 59029 70000=
0164419410999992019010518004+23267+090700FM-12+000799999V0209999C000019999999N004000199+01641+01501101701ADDAA124000091AY101021AY201021GF100995999999999999999999MA1999999101641MD1999999+0031MW1051REMSYN06441941 32940 00000 10164 20150 30164 40170 70500 333 58003 70000=
0164419410999992019010521004+23267+090700FM-12+000799999V0209999C000019999999N004000199+01441+01201101571ADDAA124000091AY101021AY201021GF100995999999999999999999MA1999999101511MD1999999-0101MW1051REMSYN06441941 31940 00000 10144 20120 30151 40157 70500 333 59010 70000=
0155419410999992019010603004+23267+090700FM-12+000799999V0203601N000519999999N006000199+01871+01401101701ADDAA124000091GF100995999999999999999999KA1240N+01311MA1999999101641MD1999999-0091REMSYN06441941 32956 03601 10187 20140 30164 40170 333 20131 59009 70000=
0136419410999992019010606004+23267+090700FM-12+000799999V0203601N001019999999N006000199+02371+01201101551ADDAA124000091GF100995999999999999999999MA1999999101501MD1999999-0221REMSYN05841941 32956 03602 10237 20120 30150 40155 333 59022 70000=
0136419410999992019010609004+23267+090700FM-12+000799999V0203601N001519999999N007000199+02641+00901101401ADDAA124000091GF100995999999999999999999MA1999999101351MD1999999-0171REMSYN05841941 32957 03603 10264 20090 30135 40140 333 59017 70000=
0155419410999992019010612004+23267+090700FM-12+000799999V0209999C000019999999N005000199+02131+01401101421ADDAA124000091GF100995999999999999999999KA1240M+02721MA1999999101371MD1999999-0031REMSYN06441941 32950 00000 10213 20140 30137 40142 333 10272 59003 70000=
0164419410999992019010615004+23267+090700FM-12+000799999V0209999C000019999999N004000199+01861+01601101591ADDAA124000091AY101021AY201021GF100995999999999999999999MA1999999101541MD1999999+0031MW1051REMSYN06441941 31940 00000 10186 20160 30154 40159 70500 333 58003 70000=
0164419410999992019010618004+23267+090700FM-12+000799999V0209999C000019999999N004000199+01681+01501101601ADDAA124000091AY101021AY201021GF100995999999999999999999MA1999999101541MD1999999-0101MW1051REMSYN06441941 31940 00000 10168 20150 30154 40160 70500 333 59010 70000=
0164419410999992019010621004+23267+090700FM-12+000799999V0209999C000019999999N004000199+01571+01501101491ADDAA124000091AY101021AY201021GF100995999999999999999999MA1999999101431MD1999999+0121MW1051REMSYN06441941 31940 00000 10157 20150 30143 40149 70500 333 58012 70000=
0164419410999992019010700004+23267+090700FM-12+000799999V0209999C000019999999N004000199+01391+01301101371ADDAA124000091AY101021AY201021GF100995999999999999999999MA1999999101311MD1999999-0051MW1051REMSYN06441941 31940 00000 10139 20130 30131 40137 70500 333 59005 70000=
0155419410999992019010703004+23267+090700FM-12+000799999V0209999C000019999999N005000199+01971+01601101701ADDAA124000091GF100995999999999999999999KA1240N+01341MA1999999101641MD1999999+0001REMSYN06441941 32950 00000 10197 20160 30164 40170 333 20134 58000 70000=
0136419410999992019010706004+23267+090700FM-12+000799999V0203601N001519999999N007000199+02471+01501101491ADDAA124000091GF100995999999999999999999MA1999999101431MD1999999-0071REMSYN05841941 32957 03603 10247 20150 30143 40149 333 59007 70000=
0136419410999992019010709004+23267+090700FM-12+000799999V0203601N002119999999N007000199+02741+01101101221ADDAA124000091GF100995999999999999999999MA1999999101171MD1999999-0181REMSYN05841941 32957 03604 10274 20110 30117 40122 333 59018 70000=
0155419410999992019010712004+23267+090700FM-12+000799999V0209999C000019999999N005000199+02221+01301101201ADDAA124000091GF100995999999999999999999KA1240M+02761MA1999999101151MD1999999-0221REMSYN06441941 32950 00000 10222 20130 30115 40120 333 10276 59022 70000=
0136419410999992019010715004+23267+090700FM-12+000799999V0209999C000019999999N005000199+01821+01601101261ADDAA124000091GF100995999999999999999999MA1999999101211MD1999999-0331REMSYN05841941 32950 00000 10182 20160 30121 40126 333 59033 70000=
0136419410999992019010718004+23267+090700FM-12+000799999V0209999C000019999999N004000199+01771+01601101401ADDAA124000091GF100995999999999999999999MA1999999101341MD1999999-0201REMSYN05841941 32940 00000 10177 20160 30134 40140 333 59020 70000=
0164419410999992019010721004+23267+090700FM-12+000799999V0209999C000019999999N004000199+01671+01601101241ADDAA124000091AY101021AY201021GF100995999999999999999999MA1999999101181MD1999999-0251MW1051REMSYN06441941 31940 00000 10167 20160 30118 40124 70500 333 59025 70000=
0164419410999992019010800004+23267+090700FM-12+000799999V0209999C000019999999N004000199+01501+01401101291ADDAA124000091AY101021AY201021GF100995999999999999999999MA1999999101231MD1999999-0081MW1051REMSYN06441941 31940 00000 10150 20140 30123 40129 70500 333 59008 70000=
0136419410999992019010806004+23267+090700FM-12+000799999V0203601N001519999999N007000199+02421+01301101361ADDAA124000091GF100995999999999999999999MA1999999101301MD1999999-0131REMSYN05841941 32957 03603 10242 20130 30130 40136 333 59013 70000=
0155419410999992019010812004+23267+090700FM-12+000799999V0203601N001519999999N005000199+02171+01201101051ADDAA124000091GF100995999999999999999999KA1240M+02661MA1999999101001MD1999999-0151REMSYN06441941 32950 03603 10217 20120 30100 40105 333 10266 59015 70000=
0136419410999992019010815004+23267+090700FM-12+000799999V0203601N001019999999N004000199+01781+01401101291ADDAA124000091GF100995999999999999999999MA1999999101231MD1999999-0021REMSYN05841941 32940 03602 10178 20140 30123 40129 333 59002 70000=
0136419410999992019010818004+23267+090700FM-12+000799999V0209999C000019999999N004000199+01721+01301101351ADDAA124000091GF100995999999999999999999MA1999999101291MD1999999-0051REMSYN05841941 32940 00000 10172 20130 30129 40135 333 59005 70000=
0164419410999992019010821004+23267+090700FM-12+000799999V0209999C000019999999N004000199+01571+01501101321ADDAA124000091AY101021AY201021GF100995999999999999999999MA1999999101261MD1999999+0081MW1051REMSYN06441941 31940 00000 10157 20150 30126 40132 70500 333 58008 70000=
0164419410999992019010900004+23267+090700FM-12+000799999V0209999C000019999999N004000199+01501+01401101311ADDAA124000091AY101021AY201021GF100995999999999999999999MA1999999101251MD1999999+0021MW1051REMSYN06441941 31940 00000 10150 20140 30125 40131 70500 333 58002 70000=
0155419410999992019010903004+23267+090700FM-12+000799999V0203601N001019999999N006000199+01771+01301101601ADDAA124000091GF100995999999999999999999KA1240N+01411MA1999999101541MD1999999+0111REMSYN06441941 32956 03602 10177 20130 30154 40160 333 20141 58011 70000=
0136419410999992019010906004+23267+090700FM-12+000799999V0203201N001019999999N006000199+02371+01401101561ADDAA124000091GF100995999999999999999999MA1999999101501MD1999999+0201REMSYN05841941 32956 03202 10237 20140 30150 40156 333 58020 70000=
0136419410999992019010909004+23267+090700FM-12+000799999V0203101N001019999999N006000199+02581+01301101321ADDAA124000091GF100995999999999999999999MA1999999101271MD1999999+0211REMSYN05841941 32956 03102 10258 20130 30127 40132 333 58021 70000=
0155419410999992019010912004+23267+090700FM-12+000799999V0203601N000519999999N005000199+02121+01301101381ADDAA124000091GF100995999999999999999999KA1240M+02611MA1999999101331MD1999999+0331REMSYN06441941 32950 03601 10212 20130 30133 40138 333 10261 58033 70000=
0164419410999992019010915004+23267+090700FM-12+000799999V0209999C000019999999N004000199+01871+01601101531ADDAA124000091AY101021AY201021GF100995999999999999999999MA1999999101481MD1999999+0251MW1051REMSYN06441941 31940 00000 10187 20160 30148 40153 70500 333 58025 70000=
0164419410999992019010918004+23267+090700FM-12+000799999V0209999C000019999999N004000199+01671+01401101551ADDAA124000091AY101021AY201021GF100995999999999999999999MA1999999101491MD1999999+0201MW1051REMSYN06441941 31940 00000 10167 20140 30149 40155 70500 333 58020 70000=
0164419410999992019010921004+23267+090700FM-12+000799999V0209999C000019999999N004000199+01571+01501101451ADDAA124000091AY101021AY201021GF100995999999999999999999MA1999999101391MD1999999+0131MW1051REMSYN06441941 31940 00000 10157 20150 30139 40145 70500 333 58013 70000=
0164419410999992019011000004+23267+090700FM-12+000799999V0209999C000019999999N004000199+01511+01401101481ADDAA124000091AY101021AY201021GF100995999999999999999999MA1999999101421MD1999999+0171MW1051REMSYN06441941 31940 00000 10151 20140 30142 40148 70500 333 58017 70000=
0136419410999992019011006004+23267+090700FM-12+000799999V0203101N001019999999N006000199+02421+01501101651ADDAA124000091GF100995999999999999999999MA1999999101591MD1999999+0091REMSYN05841941 32956 03102 10242 20150 30159 40165 333 58009 70000=
0136419410999992019011009004+23267+090700FM-12+000799999V0203601N001519999999N006000199+02451+01101101491ADDAA124000091GF100995999999999999999999MA1999999101441MD1999999+0171REMSYN05841941 32956 03603 10245 20110 30144 40149 333 58017 70000=
0155419410999992019011012004+23267+090700FM-12+000799999V0209999C000019999999N005000199+01971+01501101511ADDAA124000091GF100995999999999999999999KA1240M+02601MA1999999101451MD1999999+0121REMSYN06441941 32950 00000 10197 20150 30145 40151 333 10260 58012 70000=
0136419410999992019011015004+23267+090700FM-12+000799999V0209999C000019999999N004000199+01771+01301101671ADDAA124000091GF100995999999999999999999MA1999999101611MD1999999+0131REMSYN05841941 32940 00000 10177 20130 30161 40167 333 58013 70000=
0136419410999992019011018004+23267+090700FM-12+000799999V0209999C000019999999N004000199+01561+01301101651ADDAA124000091GF100995999999999999999999MA1999999101591MD1999999+0101REMSYN05841941 32940 00000 10156 20130 30159 40165 333 58010 70000=
0183419410999992019011203004+23267+090700FM-12+000799999V0209999C000019999999N005000199+01821+01401101761ADDAA124000091AY101021AY201021GF100995999999999999999999KA1240N+01301MA1999999101711MD1999999-0051MW1051REMSYN07041941 31950 00000 10182 20140 30171 40176 70500 333 20130 59005 70000=
0136419410999992019011215004+23267+090700FM-12+000799999V0209999C000019999999N004000199+01841+01501101591ADDAA124000091GF100995999999999999999999MA1999999101531MD1999999-0071REMSYN05841941 32940 00000 10184 20150 30153 40159 333 59007 70000=
0164419410999992019011218004+23267+090700FM-12+000799999V0209999C000019999999N004000199+01721+01401101621ADDAA124000091AY101021AY201021GF100995999999999999999999MA1999999101561MD1999999-0041MW1051REMSYN06441941 31940 00000 10172 20140 30156 40162 70500 333 59004 70000=
0164419410999992019011221004+23267+090700FM-12+000799999V0209999C000019999999N002000199+01541+01401101621ADDAA124000091AY101021AY201021GF100995999999999999999999MA1999999101561MD1999999+0051MW1101REMSYN06441941 31920 00000 10154 20140 30156 40162 71000 333 58005 70000=
0164419410999992019011300004+23267+090700FM-12+000799999V0209999C000019999999N002000199+01491+01401101601ADDAA124000091AY101021AY201021GF100995999999999999999999MA1999999101541MD1999999+0011MW1101REMSYN06441941 31920 00000 10149 20140 30154 40160 71000 333 58001 70000=
0183419410999992019011303004+23267+090700FM-12+000799999V0203201N001019999999N005000199+01971+01501101781ADDAA124000091AY101021AY201021GF100995999999999999999999KA1240N+01461MA1999999101721MD1999999+0011MW1051REMSYN07041941 31950 03202 10197 20150 30172 40178 70500 333 20146 58001 70000=
0178419410999992019011306004+23267+090700FM-12+000799999V0203101N001512200019N006000199+02481+01601101651ADDAA124000091GA1041+090001001GE19AGL   +99999+99999GF104991041999090001999999MA1999999101591REMSYN07641941 32956 43103 10248 20160 30159 40165 80001 333 56009 58002 70000 84080=
0136419410999992019011309004+23267+090700FM-12+000799999V0203601N002119999999N006000199+02571+00901101451ADDAA124000091GF100995999999999999999999MA1999999101401MD1999999+0041REMSYN05841941 32956 03604 10257 20090 30140 40145 333 58004 70000=
0155419410999992019011312004+23267+090700FM-12+000799999V0209999C000019999999N005000199+02071+01301101401ADDAA124000091GF100995999999999999999999KA1240M+02701MA1999999101351MD1999999-0071REMSYN06441941 32950 00000 10207 20130 30135 40140 333 10270 59007 70000=
0136419410999992019011315004+23267+090700FM-12+000799999V0203201N001019999999N004000199+01741+01401101481ADDAA124000091GF100995999999999999999999MA1999999101421MD1999999-0111REMSYN05841941 32940 03202 10174 20140 30142 40148 333 59011 70000=
0164419410999992019011318004+23267+090700FM-12+000799999V0203101N000519999999N004000199+01641+01301101521ADDAA124000091AY101021AY201021GF100995999999999999999999MA1999999101461MD1999999-0101MW1051REMSYN06441941 31940 03101 10164 20130 30146 40152 70500 333 59010 70000=
0164419410999992019011321004+23267+090700FM-12+000799999V0209999C000019999999N002000199+01521+01401101461ADDAA124000091AY101021AY201021GF100995999999999999999999MA1999999101401MD1999999-0161MW1101REMSYN06441941 31920 00000 10152 20140 30140 40146 71000 333 59016 70000=
0164419410999992019011400004+23267+090700FM-12+000799999V0209999C000019999999N002000199+01441+01301101401ADDAA124000091AY101021AY201021GF100995999999999999999999MA1999999101341MD1999999-0201MW1101REMSYN06441941 31920 00000 10144 20130 30134 40140 71000 333 59020 70000=
0200419410999992019011406004+23267+090700FM-12+000799999V0203601N00151090001CN006000199+02471+01401101531ADDAA124000091GA1031+005401061GA2051+090001001GE19AGL   +99999+99999GF105991031999005401999999MA1999999101471REMSYN08241941 32456 53603 10247 20140 30147 40153 83501 333 56909 59012 70000 83618 85080=
0136419410999992019011409004+23267+090700FM-12+000799999V0203601N002619999999N006000199+02621+01201101331ADDAA124000091GF100995999999999999999999MA1999999101281MD1999999-0121REMSYN05841941 32956 03605 10262 20120 30128 40133 333 59012 70000=
0200419410999992019052206004+23267+090700FM-12+000799999V0203601N001010240019N006000199+03071+02501100811ADDAA124000091GA1041+004801061GA2061+024001041GE19AGL   +99999+99999GF106991041999004801999999MA1999999100761REMSYN08241941 32456 63602 10307 20250 30076 40081 84520 333 56990 58016 70000 84616 86458=
0225419410999992019052212004+23267+090700FM-12+000799999V0201801N001519999999N007000199+03301+02701100451ADDAA124000091GF100995999999999999999999KA1240M+03521MA1999999100401MD1999999-0111REMSYN13441941 32957 01803 10330 20270 30040 40045 333 10352 59011 70000 41964 31956 00000 10315 20260 30037 40040 70292 333 10350 59009 70000=
0200419410999992019052218004+23267+090700FM-12+000799999V0201801N001510240019N004000199+02921+02701100591ADDAA124000091GA1041+004801061GA2061+024001041GE19AGL   +99999+99999GF106991041999004801999999MA1999999100531REMSYN08241941 32440 61803 10292 20270 30053 40059 85420 333 56990 59020 70000 84616 86458=
0200419410999992019052306004+23267+090700FM-12+000799999V0209999C000010240019N006000199+03151+02501100891ADDAA124016031GA1041+004801061GA2061+024001031GE19AGL   +99999+99999GF106991041999004801999999MA1999999100831REMSYN08241941 32456 60000 10315 20250 30083 40089 84520 333 56990 58007 70160 84616 86358=
0219419410999992019052312004+23267+090700FM-12+000799999V0201801N00151024001CN006000199+03121+02501100461ADDAA124016031GA1031+004801061GA2051+024001041GE19AGL   +99999+99999GF105991031999004801999999KA1240M+03341MA1999999100411REMSYN08841941 32456 51803 10312 20250 30041 40046 84420 333 10334 56990 58001 70160 83616 85458=
0178419410999992019052318004+23267+090700FM-12+000799999V0209999C000012200019N004000199+02881+02701100681ADDAA124016031GA1031+005401061GE19AGL   +99999+99999GF103991031999005401999999MA1999999100581REMSYN07641941 32440 30000 10288 20270 30058 40068 83500 333 56900 58005 70160 83618=
0200419410999992019052400004+23267+090700FM-12+000799999V0201801N001510240019N005000199+02871+02701100641ADDAA124000091GA1031+004801061GA2061+024001041GE19AGL   +99999+99999GF106991031999004801999999MA1999999100591REMSYN08241941 32450 61803 10287 20270 30059 40064 84420 333 56990 59011 70000 83616 86458=
0200419410999992019052406004+23267+090700FM-12+000799999V0201801N002110360019N006000199+03261+02701100551ADDAA124005031GA1031+005401061GA2071+036001031GE19AGL   +99999+99999GF107991031999005401999999MA1999999100501REMSYN08241941 32456 71804 10326 20270 30050 40055 83530 333 56990 59033 70050 83618 87362=
0202419410999992019052412004+23267+090700FM-12+000799999V0201801N002610240019N006000199+03141+02601100181ADDGA1041+004801061GA2071+024001041GE19AGL   +99999+99999GF107991041999004801999999KA1240M+03361MA1999999100131REMSYN08241941 32456 71805 10314 20260 30013 40018 85420 333 10336 56990 59028 84616 87458=
0250419410999992019052418004+23267+090700FM-12+000799999V0201801N00211004501CN004000199+02521+02201100411ADDAA124000091AY191021AY221021GA1051+004501061GA2011+009001091GA3081+024001041GE19AGL   +99999+99999GF108991051999004501999999MA1999999100351MW1291REMSYN09441941 31440 81804 10252 20220 30035 40041 72992 8632/ 333 56999 59023 70000 85615 81930 88458=
0267419410999992019052500004+23267+090700FM-12+000799999V0201801N00101004501CN005000199+02241+02101100351ADDAA103044031AA224044031AY191021AY261021GA1051+004501061GA2011+009001091GA3081+024001041GE19AGL   +99999+99999GF108991051999004501999999MA1999999100301MW1951REMSYN10041941 11450 81802 10224 20210 30030 40035 60447 79596 8632/ 333 56999 59029 70440 85615 81930 88458=
0200419410999992019052518004+23267+090700FM-12+000799999V0201801N001510240019N004000199+02721+02501100301ADDAA124047031GA1041+004801061GA2061+024001041GE19AGL   +99999+99999GF106991041999004801999999MA1999999100241REMSYN08241941 32440 61803 10272 20250 30024 40030 84520 333 56990 59011 70470 84616 86458=
0200419410999992019052600004+23267+090700FM-12+000799999V0209999C00001007501CN005000199+02641+02601100481ADDAA124003031GA1021+004801061GA2031+007501081GE19AGL   +99999+99999GF105991021999004801999999MA1999999100421REMSYN08241941 32450 50000 10264 20260 30042 40048 85400 333 56900 58012 70030 82616 83825=
0178419410999992019052606004+23267+090700FM-12+000799999V0201801N002112200019N007000199+03321+02701100451ADDAA124003031GA1041+004801061GE19AGL   +99999+99999GF104991041999004801999999MA1999999100401REMSYN07641941 32457 41804 10332 20270 30040 40045 84500 333 56900 58001 70030 84616=
0219419410999992019052612004+23267+090700FM-12+000799999V0201801N001510900019N006000199+03321+02801100251ADDAA124000091GA1041+005401061GA2051+090001001GE19AGL   +99999+99999GF105991041999005401999999KA1240M+03521MA1999999100201REMSYN08841941 32456 51803 10332 20280 30020 40025 84501 333 10352 56909 58006 70000 84618 85080=
0200419410999992019052618004+23267+090700FM-12+000799999V0201801N00101024001CN004000199+02921+02801100441ADDAA124000091GA1031+004801061GA2051+024001041GE19AGL   +99999+99999GF105991031999004801999999MA1999999100391REMSYN08241941 32440 51802 10292 20280 30039 40044 84420 333 56990 58015 70000 83616 85458=
0178419410999992019052700004+23267+090700FM-12+000799999V0201801N001012200019N005000199+02861+02801100401ADDAA124000091GA1031+005401061GE19AGL   +99999+99999GF103991031999005401999999MA1999999100351REMSYN07641941 32450 31802 10286 20280 30035 40040 83500 333 56900 59007 70000 83618=
0200419410999992019052706004+23267+090700FM-12+000799999V0201801N002110360019N007000199+03461+02701100491ADDAA124000091GA1031+004801061GA2061+036001031GE19AGL   +99999+99999GF106991031999004801999999MA1999999100431REMSYN08241941 32457 61804 10346 20270 30043 40049 84430 333 56990 58003 70000 83616 86362=
0200419410999992019052800004+23267+090700FM-12+000799999V0209999C000010240019N005000199+02621+02401100531ADDAA124000091GA1041+004801061GA2061+024001041GE19AGL   +99999+99999GF106991041999004801999999MA1999999100481REMSYN08241941 32450 60000 10262 20240 30048 40053 85420 333 56990 58013 70000 84616 86458=
0200419410999992019052806004+23267+090700FM-12+000799999V0201801N001510240019N007000199+03421+02601100571ADDAA124000091GA1041+004801061GA2051+024001041GE19AGL   +99999+99999GF105991041999004801999999MA1999999100511REMSYN08241941 32457 51803 10342 20260 30051 40057 84510 333 56990 58008 70000 84616 85458=
0219419410999992019052812004+23267+090700FM-12+000799999V0201801N001010240019N006000199+03361+02701100171ADDAA124000091GA1041+004801061GA2061+024001041GE19AGL   +99999+99999GF106991041999004801999999KA1240M+03621MA1999999100111REMSYN08841941 32456 61802 10336 20270 30011 40017 85420 333 10362 56990 59017 70000 84616 86458=
0200419410999992019052818004+23267+090700FM-12+000799999V0201801N001010240019N004000199+02981+02701100361ADDAA124000091GA1041+004801061GA2061+024001041GE19AGL   +99999+99999GF106991041999004801999999MA1999999100301REMSYN08241941 32440 61802 10298 20270 30030 40036 85420 333 56990 59013 70000 84616 86458=
0219419410999992019052900004+23267+090700FM-12+000799999V0201801N001010240019N005000199+02801+99999100291ADDAA124000091GA1041+004801061GA2061+024001041GE19AGL   +99999+99999GF106991041999004801999999MA1999999100241REMSYN08241941 32450 61802 10280 20070 30024 40029 85420 333 56990 59024 70000 84616 86458=EQDQ017     3ATOD  
0200419410999992019052906004+23267+090700FM-12+000799999V0201801N001510240019N005000199+03421+02701100501ADDAA124000091GA1041+004801061GA2061+024001041GE19AGL   +99999+99999GF106991041999004801999999MA1999999100441REMSYN08241941 32450 61803 10342 20270 30044 40050 85420 333 56990 59007 70000 84616 86458=
0238419410999992019052912004+23267+090700FM-12+000799999V0201801N00101999999CN006000199+03371+02701100151ADDAA124000091GA1031+004801061GA2041+024001041GE19AGL   +99999+99999GF104991031999004801999999KA1240M+03581MA1999999100101REMSYN08841941 32456 41802 10337 20270 30010 40015 84420 333 10358 56990 59001 70000 83616 84458=EQDQ01 024003SCOCIG
0178419410999992019052918004+23267+090700FM-12+000799999V0209999C000012200019N005000199+02931+02701100501ADDAA124000091GA1031+004501061GE19AGL   +99999+99999GF103991031999004501999999MA1999999100441REMSYN07641941 32450 30000 10293 20270 30044 40050 83500 333 56900 58014 70000 83615=
0200419410999992019053106004+23267+090700FM-12+000799999V0201801N001010900019N006000199+03341+02701100561ADDAA124000091GA1031+005101061GA2061+090001001GE19AGL   +99999+99999GF106991031999005101999999MA1999999100501REMSYN08241941 32456 61802 10334 20270 30050 40056 84501 333 56909 58014 70000 83617 86080=
0200419410999992019053118004+23267+090700FM-12+000799999V0201801N001010240019N004000199+02951+02701100581ADDAA124000091GA1041+004801061GA2061+024001041GE19AGL   +99999+99999GF106991041999004801999999MA1999999100531REMSYN08241941 32440 61802 10295 20270 30053 40058 85420 333 56990 58015 70000 84616 86458=
0222419410999992019060100004+23267+090700FM-12+000799999V0201801N00211004801CN005000199+02921+99999100541ADDAA124000091GA1051+004801061GA2011+009001091GA3081+024001041GE19AGL   +99999+99999GF108991051999004801999999MA1999999100491REMSYN08841941 32450 81804 10292 29260 30049 40054 8632/ 333 56999 59006 70000 85616 81930 88458=
0245419410999992019060106004+23267+090700FM-12+000799999V0201401N001510360019N007000199+03201+02401100601ADDAA109020031AA224020031AY161021AY221021GA1041+004801061GA2051+036001031GE19AGL   +99999+99999GF105991041999004801999999MA1999999100541MW1011REMSYN09441941 11457 51403 10320 20240 30054 40060 60208 70162 84530 333 56990 58004 70200 84616 85362=
0219419410999992019060112004+23267+090700FM-12+000799999V0201801N001510240019N006000199+03081+02701100181ADDAA124020031GA1041+004801061GA2061+024001041GE19AGL   +99999+99999GF106991041999004801999999KA1240M+03441MA1999999100131REMSYN08841941 32456 61803 10308 20270 30013 40018 85420 333 10344 56990 59006 70200 84616 86458=
0200419410999992019060118004+23267+090700FM-12+000799999V0201801N001010240019N004000199+02921+02701100491ADDAA124020031GA1041+004801061GA2071+024001041GE19AGL   +99999+99999GF107991041999004801999999MA1999999100441REMSYN08241941 32440 71802 10292 20270 30044 40049 85420 333 56990 59009 70200 84616 87458=
0222419410999992019060200004+23267+090700FM-12+000799999V0201801N00101004501CN005000199+02821+02601100391ADDAA124020031GA1051+004501061GA2011+009001091GA3081+024001041GE19AGL   +99999+99999GF108991051999004501999999MA1999999100341REMSYN08841941 32450 81802 10282 20260 30034 40039 8632/ 333 56999 59015 70200 85615 81930 88458=
0222419410999992019060206004+23267+090700FM-12+000799999V0201801N00101009001CN006000199+03061+02701100511ADDAA124000091GA1041+004801061GA2011+009001091GA3081+024001041GE19AGL   +99999+99999GF108991041999004801999999MA1999999100461REMSYN08841941 32456 81802 10306 20270 30046 40051 8632/ 333 56999 59008 70000 84616 81930 88458=
0264419410999992019060212004+23267+090700FM-12+000799999V0209999C000010240019N006000199+02791+02401100441ADDAA102008031AA224008031AY161021AY221021GA1041+004801061GA2061+024001041GE19AGL   +99999+99999GF106991041999004801999999KA1240M+03271MA1999999100391MW1011REMSYN10041941 11456 60000 10279 20240 30039 40044 60086 70162 84520 333 10327 56990 58026 70080 84616 86458=
0200419410999992019060218004+23267+090700FM-12+000799999V0209999C000010240019N004000199+02611+02501100601ADDAA124008031GA1041+004801061GA2061+024001041GE19AGL   +99999+99999GF106991041999004801999999MA1999999100541REMSYN08241941 32440 60000 10261 20250 30054 40060 84520 333 56990 58010 70080 84616 86458=
0200419410999992019060300004+23267+090700FM-12+000799999V0209999C000010210019N005000199+02631+02501100581ADDAA124008031GA1041+004501061GA2051+021001041GE19AGL   +99999+99999GF107991041999004501999999MA1999999100521REMSYN08241941 32450 70000 10263 20250 30052 40058 85420 333 56990 58018 70080 84615 85457=
0222419410999992019060306004+23267+090700FM-12+000799999V0201801N00101004801CN005000199+03071+02501100591ADDAA124008031GA1051+004801061GA2011+009001091GA3081+024001041GE19AGL   +99999+99999GF108991051999004801999999MA1999999100541REMSYN08841941 32450 81802 10307 20250 30054 40059 8632/ 333 56999 58008 70080 85616 81930 88458=
0264419410999992019060312004+23267+090700FM-12+000799999V0201801N001010240019N005000199+02681+02501100241ADDAA103004031AA224004031AY191021AY261021GA1041+004801061GA2061+024001041GE19AGL   +99999+99999GF106991041999004801999999KA1240M+03291MA1999999100181MW1011REMSYN10041941 11450 61802 10268 20250 30018 40024 60047 70196 85420 333 10329 56990 59021 70040 84616 86458=
0200419410999992019060318004+23267+090700FM-12+000799999V0201801N001010240019N004000199+02761+02701100461ADDAA124004031GA1041+004801061GA2061+024001041GE19AGL   +99999+99999GF106991041999004801999999MA1999999100401REMSYN08241941 32440 61802 10276 20270 30040 40046 85420 333 56990 59014 70040 84616 86458=
0200419410999992019060400004+23267+090700FM-12+000799999V0201801N001010360019N005000199+02761+02701100411ADDAA124004031GA1031+005401061GA2061+036001031GE19AGL   +99999+99999GF106991031999005401999999MA1999999100361REMSYN08241941 32450 61802 10276 20270 30036 40041 83530 333 56990 59016 70040 83618 86362=
0286419410999992019060406004+23267+090700FM-12+000799999V0200101N00151004201CN005000199+02461+99999100741ADDAA124014032AA224018032AY121021AY221021GA1021+002401071GA2041+004201061GA3081+018001041GE19AGL   +99999+99999GF108991021999002401999999MA1999999100681MW1951REMSYN10041941 11350 80103 10246 20250 30068 40074 60144 79522 8672/ 333 56499 58014 70180 82708 84614 88456=EQDQ0125    2ATOD  
0200419410999992019060418004+23267+090700FM-12+000799999V0209999C000010240019N004000199+02551+02501100561ADDAA124017031GA1041+004801061GA2061+024001041GE19AGL   +99999+99999GF106991041999004801999999MA1999999100511REMSYN08241941 32440 60000 10255 20250 30051 40056 85420 333 56990 58011 70170 84616 86458=
0200419410999992019060506004+23267+090700FM-12+000799999V0201801N001510240019N006000199+03151+02601100611ADDAA124003031GA1041+004801061GA2061+024001041GE19AGL   +99999+99999GF106991041999004801999999MA1999999100551REMSYN08241941 32456 61803 10315 20260 30055 40061 84520 333 56990 59013 70030 84616 86458=
0241419410999992019060512004+23267+090700FM-12+000799999V0201801N00261004501CN006000199+02741+02501100221ADDAA124000091GA1051+004501061GA2011+009001091GA3081+024001041GE19AGL   +99999+99999GF108991051999004501999999KA1240M+03141MA1999999100161REMSYN09441941 32456 81805 10274 20250 30016 40022 8632/ 333 10314 56999 59017 70000 85615 81930 88458=
0200419410999992019060518004+23267+090700FM-12+000799999V0209999C000010240019N004000199+02621+02501100431ADDAA124000091GA1041+004501061GA2061+024001041GE19AGL   +99999+99999GF106991041999004501999999MA1999999100371REMSYN08241941 32440 60000 10262 20250 30037 40043 85420 333 56990 59014 70000 84615 86458=
0200419410999992019060600004+23267+090700FM-12+000799999V0201801N001010240019N005000199+02641+02601100271ADDAA124000091GA1041+004501061GA2071+024001041GE19AGL   +99999+99999GF107991041999004501999999MA1999999100211REMSYN08241941 32450 71802 10264 20260 30021 40027 84520 333 56990 59024 70000 84615 87458=
0200419410999992019060606004+23267+090700FM-12+000799999V0201801N001510240019N006000199+03221+02401100471ADDAA124000091GA1041+004801061GA2071+024001041GE19AGL   +99999+99999GF107991041999004801999999MA1999999100421REMSYN08241941 32456 71803 10322 20240 30042 40047 85420 333 56990 59013 70000 84616 87458=
0264419410999992019060612004+23267+090700FM-12+000799999V0201801N001010900019N006000199+03041+02601100451ADDAA102001031AA224001031AY161021AY221021GA1041+005101061GA2051+090001001GE19AGL   +99999+99999GF105991041999005101999999KA1240M+03521MA1999999100401MW1011REMSYN10041941 11456 51802 10304 20260 30040 40045 60016 70162 84501 333 10352 56909 58024 70010 84617 85080=
0200419410999992019060618004+23267+090700FM-12+000799999V0201801N00151036001CN004000199+02751+02601100541ADDAA124001031GA1031+005401061GA2051+036001031GE19AGL   +99999+99999GF105991031999005401999999MA1999999100481REMSYN08241941 32440 51803 10275 20260 30048 40054 83530 333 56990 58011 70010 83618 85362=
0200419410999992019060700004+23267+090700FM-12+000799999V0201801N00151024001CN005000199+02651+02601100481ADDAA124001031GA1031+005401061GA2051+024001041GE19AGL   +99999+99999GF105991031999005401999999MA1999999100421REMSYN08241941 32450 51803 10265 20260 30042 40048 84420 333 56990 58021 70010 83618 85458=
0289419410999992019060706004+23267+090700FM-12+000799999V0201801N00151003901CN005000199+03121+02601100671ADDAA124001032AA224002032AY121021AY221021GA1021+002401071GA2051+003901061GA3011+009001091GA4081+018001041GE19AGL   +99999+99999GF108991021999002401999999MA1999999100621MW1611REMSYN10641941 11450 81803 10312 20260 30062 40067 60014 76122 8632/ 333 56999 58020 70020 82708 85613 81930 88456=
0308419410999992019060712004+23267+090700FM-12+000799999V0201801N00101004801CN005000199+02821+02601100491ADDAA102001031AA224002031AY161021AY221021GA1021+003001071GA2041+004801061GA3011+009001091GA4081+024001041GE19AGL   +99999+99999GF108991021999003001999999KA1240M+03281MA1999999100431MW1031REMSYN11241941 11450 81802 10282 20260 30043 40049 60016 70362 8632/ 333 10328 56999 58003 70020 82710 84616 81930 88458=
0200419410999992019060718004+23267+090700FM-12+000799999V0201801N001010360019N004000199+02681+02601100611ADDAA124002031GA1031+005401061GA2061+036001031GE19AGL   +99999+99999GF106991031999005401999999MA1999999100551REMSYN08241941 32440 61802 10268 20260 30055 40061 83530 333 56990 58007 70020 83618 86362=
0200419410999992019060800004+23267+090700FM-12+000799999V0209999C00001036001CN005000199+02661+02601100521ADDAA124002031GA1031+005401061GA2051+036001031GE19AGL   +99999+99999GF105991031999005401999999MA1999999100461REMSYN08241941 32450 50000 10266 20260 30046 40052 83530 333 56990 58004 70020 83618 85362=
0200419410999992019060806004+23267+090700FM-12+000799999V0201801N001010360019N007000199+03261+02601100531ADDAA124001031GA1031+005401061GA2061+036001031GE19AGL   +99999+99999GF106991031999005401999999MA1999999100481REMSYN08241941 32457 61802 10326 20260 30048 40053 83530 333 56990 59014 70010 83618 86362=
0264419410999992019060812004+23267+090700FM-12+000799999V0201801N001510360019N006000199+02871+02701100341ADDAA101001031AA224001031AY191021AY261021GA1041+004801061GA2051+036001031GE19AGL   +99999+99999GF106991041999004801999999KA1240M+03301MA1999999100281MW1011REMSYN10041941 11456 61803 10287 20270 30028 40034 60015 70196 84530 333 10330 56990 59015 70010 84616 85362=
0222419410999992019060818004+23267+090700FM-12+000799999V0201801N00101004801CN004000199+02811+02601100321ADDAA124001031GA1051+004801061GA2011+009001091GA3081+024001041GE19AGL   +99999+99999GF108991051999004801999999MA1999999100261REMSYN08841941 32440 81802 10281 20260 30026 40032 8632/ 333 56999 59029 70010 85616 81930 88458=
0267419410999992019060900004+23267+090700FM-12+000799999V0209999C00001004501CN005000199+02721+02701100321ADDAA124001032AA224002032AY161021AY221021GA1051+004501061GA2011+009001091GA3081+024001041GE19AGL   +99999+99999GF108991051999004501999999MA1999999100261MW1211REMSYN10041941 11450 80000 10272 20270 30026 40032 60014 72162 8632/ 333 56999 59020 70020 85615 81930 88458=
0200419410999992019060918004+23267+090700FM-12+000799999V0201801N00101024001CN004000199+02841+02601100191ADDAA124001031GA1031+004501061GA2051+024001041GE19AGL   +99999+99999GF105991031999004501999999MA1999999100131REMSYN08241941 32440 51802 10284 20260 30013 40019 84420 333 56990 59013 70010 83615 85458=
0200419410999992019061000004+23267+090700FM-12+000799999V0201801N001010240019N005000199+02741+02701100121ADDAA124000091GA1041+004501061GA2061+024001041GE19AGL   +99999+99999GF106991041999004501999999MA1999999100061REMSYN08241941 32450 61802 10274 20270 30006 40012 85420 333 56990 59020 70000 84615 86458=
0200419410999992019061006004+23267+090700FM-12+000799999V0201801N001010240019N007000199+03421+02501100211ADDAA124000091GA1041+004501061GA2061+024001041GE19AGL   +99999+99999GF106991041999004501999999MA1999999100161REMSYN08241941 32457 61802 10342 20250 30016 40021 85420 333 56990 59017 70000 84615 86458=
0238419410999992019061012004+23267+090700FM-12+000799999V0201801N00101999999CN006000199+03301+02701100071ADDAA124000091GA1031+004801061GA2041+024001041GE19AGL   +99999+99999GF104991031999004801999999KA1240M+03531MA1999999100011REMSYN08841941 32456 41802 10330 20270 30001 40007 84420 333 10353 56990 58012 70000 83616 84458=EQDQ01 024003SCOCIG
0136419410999992019061018004+23267+090700FM-12+000799999V0209999C000019999999N005000199+02871+02801100241ADDAA124000091GF100995999999999999999999MA1999999100191MD1999999+0061REMSYN05841941 32950 00000 10287 20280 30019 40024 333 58006 70000=
0200419410999992019061206004+23267+090700FM-12+000799999V0201801N001010240019N007000199+03361+02801100211ADDAA124000091GA1041+004801061GA2061+024001041GE19AGL   +99999+99999GF106991041999004801999999MA1999999100151REMSYN08241941 32457 61802 10336 20280 30015 40021 85420 333 56990 59005 70000 84616 86458=
0200419410999992019061218004+23267+090700FM-12+000799999V0209999C00001024001CN004000199+03061+02801099971ADDAA124000091GA1031+004801061GA2051+024001041GE19AGL   +99999+99999GF105991031999004801999999MA1999999099911REMSYN08241941 32440 50000 10306 20280 39991 49997 83520 333 56990 59034 70000 83616 85458=
0200419410999992019061300004+23267+090700FM-12+000799999V0201801N001010240019N005000199+02881+02801099821ADDAA124000091GA1041+004501061GA2061+024001041GE19AGL   +99999+99999GF106991041999004501999999MA1999999099771REMSYN08241941 32450 61802 10288 20280 39977 49982 85420 333 56990 59040 70000 84615 86458=
0222419410999992019061400004+23267+090700FM-12+000799999V0201801N00211004501CN005000199+02881+02801099891ADDAA124000091GA1051+004501061GA2011+009001091GA3081+024001041GE19AGL   +99999+99999GF108991051999004501999999MA1999999099841REMSYN08841941 32450 81804 10288 20280 39984 49989 8632/ 333 56499 58007 70000 85615 81930 88458=
0205419410999992019061406004+23267+090700FM-12+000799999V0209999C00001004801CN005000199+03181+02801100111ADDGA1051+004801061GA2011+009001091GA3081+024001041GE19AGL   +99999+99999GF108991051999004801999999MA1999999100051REMSYN08241941 32450 80000 10318 20280 30005 40011 8632/ 333 56999 58007 85616 81930 88458=
0200419410999992019061418004+23267+090700FM-12+000799999V0201801N001010240019N004000199+02921+02801100061ADDAA124004031GA1041+004801061GA2061+024001041GE19AGL   +99999+99999GF106991041999004801999999MA1999999100001REMSYN08241941 32440 61802 10292 20280 30000 40006 84520 333 56990 58012 70040 84616 86458=
0200419410999992019061500004+23267+090700FM-12+000799999V0201801N001510240019N005000199+02911+02801099961ADDAA124004031GA1041+004801061GA2061+024001041GE19AGL   +99999+99999GF106991041999004801999999MA1999999099901REMSYN08241941 32450 61803 10291 20280 39990 49996 84520 333 56990 58006 70040 84616 86458=
0222419410999992019061506004+23267+090700FM-12+000799999V0201801N00151004501CN005000199+02701+02501100131ADDAA124004031GA1051+004501061GA2011+009001091GA3081+024001041GE19AGL   +99999+99999GF108991051999004501999999MA1999999100071REMSYN08841941 32450 81803 10270 20250 30007 40013 8632/ 333 56999 58002 70040 85615 81930 88458=
0286419410999992019061512004+23267+090700FM-12+000799999V0209999C00001004501CN005000199+02531+02301099951ADDAA102002031AA224002031AY191021AY261021GA1051+004501061GA2011+009001091GA3081+024001041GE19AGL   +99999+99999GF108991051999004501999999KA1240M+03271MA1999999099891MW1291REMSYN10641941 11450 80000 10253 20230 39989 49995 60026 72996 8632/ 333 10327 56999 58016 70020 85615 81930 88458=
0222419410999992019061518004+23267+090700FM-12+000799999V0201801N00151004501CN004000199+02581+02501100101ADDAA124002031GA1051+004501061GA2011+009001091GA3081+024001041GE19AGL   +99999+99999GF108991051999004501999999MA1999999100041REMSYN08841941 32440 81803 10258 20250 30004 40010 8632/ 333 56999 58004 70020 85615 81930 88458=
0222419410999992019061600004+23267+090700FM-12+000799999V0201801N00151004801CN005000199+02671+02601100131ADDAA124002031GA1051+004801061GA2011+009001091GA3081+024001041GE19AGL   +99999+99999GF108991051999004801999999MA1999999100071REMSYN08841941 32450 81803 10267 20260 30007 40013 8632/ 333 56999 58017 70020 85616 81930 88458=
0200419410999992019061606004+23267+090700FM-12+000799999V0201801N002110240019N007000199+03401+02801100041ADDAA124002031GA1041+004801061GA2061+024001041GE19AGL   +99999+99999GF106991041999004801999999MA1999999099901REMSYN08241941 32457 61804 10340 20280 39990 40004 85420 333 56990 59009 70020 84616 86458=
0219419410999992019061612004+23267+090700FM-12+000799999V0201801N002110240019N007000199+03221+02801099861ADDAA124000091GA1031+004801061GA2061+024001041GE19AGL   +99999+99999GF106991031999004801999999KA1240M+03541MA1999999099801REMSYN08841941 32457 61804 10322 20280 39980 49986 84420 333 10354 56990 59009 70000 83616 86458=
0219419410999992019061618004+23267+090700FM-12+000799999V0201801N00151999999CN005000199+02921+02801100001ADDAA124000091GA1031+004801061GA2041+024001041GE19AGL   +99999+99999GF104991031999004801999999MA1999999099941REMSYN08241941 32450 41803 10292 20280 39994 40000 84420 333 56990 59010 70000 83616 84458=EQDQ01 024003SCOCIG
0222419410999992019061700004+23267+090700FM-12+000799999V0209999C00001004501CN005000199+02871+02801099971ADDAA124000091GA1051+004501061GA2011+009001091GA3081+024001041GE19AGL   +99999+99999GF108991051999004501999999MA1999999099921REMSYN08841941 32450 80000 10287 20280 39992 49997 8632/ 333 56999 59015 70000 85615 81930 88458=
0200419410999992019061706004+23267+090700FM-12+000799999V0201801N002610240019N007000199+03421+02701099891ADDAA124000091GA1041+004801061GA2061+024001041GE19AGL   +99999+99999GF106991041999004801999999MA1999999099831REMSYN08241941 32457 61805 10342 20270 39983 49989 85420 333 56990 59015 70000 84616 86458=
0219419410999992019061712004+23267+090700FM-12+000799999V0201801N003110240019N006000199+03241+02701099761ADDAA124000091GA1041+004801061GA2061+024001041GE19AGL   +99999+99999GF106991041999004801999999KA1240M+03541MA1999999099711REMSYN08841941 32456 61806 10324 20270 39971 49976 85420 333 10354 56990 59009 70000 84616 86458=
0267419410999992019061800004+23267+090700FM-12+000799999V0201801N00101004501CN005000199+02471+02401100221ADDAA118031031AA224076031AY191021AY261021GA1051+004501061GA2011+009001091GA3081+024001041GE19AGL   +99999+99999GF108991051999004501999999MA1999999100161MW1951REMSYN10041941 11450 81802 10247 20240 30016 40022 60313 79596 8632/ 333 56999 58024 70760 85615 81930 88458=
0239419410999992019061806004+23267+090700FM-12+000799999V0209999C000019999999N006000199+03151+02701100071ADDAA102004031AA224080031AY191021AY261021GA1041+004801061GA2999+999999051GE19AGL   +99999+99999GF106991041999004801999999MA1999999100011MW1011REMSYN08841941 11456 60000 10315 20270 30001 40007 60046 70196 85420 333 56990 59018 70800 84616=
0219419410999992019061812004+23267+090700FM-12+000799999V0201801N001510240019N006000199+03181+02601099841ADDAA124080031GA1031+004801061GA2061+024001041GE19AGL   +99999+99999GF106991031999004801999999KA1240M+03421MA1999999099781REMSYN08841941 32456 61803 10318 20260 39978 49984 84420 333 10342 56990 58007 70800 83616 86458=
0200419410999992019061818004+23267+090700FM-12+000799999V0201801N001510240019N004000199+02851+02801100101ADDAA124035031GA1041+004801061GA2061+024001041GE19AGL   +99999+99999GF106991041999004801999999MA1999999100051REMSYN08241941 32440 61803 10285 20280 30005 40010 85420 333 56990 59018 70350 84616 86458=
0200419410999992019061900004+23267+090700FM-12+000799999V0209999C000010360019N005000199+02781+02781100051ADDAA124004031GA1041+004801061GA2051+036001031GE19AGL   +99999+99999GF106991041999004801999999MA1999999099991REMSYN08241941 32450 60000 10278 20278 39999 40005 85430 333 56990 59019 70040 84616 85362=
0194419410999992019061906004+23267+090700FM-12+000799999V0201801N00101024001CN006000199+03381+02701100091ADDAA124000091GA1061+024001041GA2999+999999051GE19AGL   +99999+99999GF106991061999024001999999MA1999999100041REMSYN07641941 32456 61802 10338 20270 30004 40009 85420 333 56990 58003 70000 86458=
0219419410999992019061912004+23267+090700FM-12+000799999V0201801N001010360019N006000199+03451+02701099841ADDAA124000091GA1031+005401061GA2061+036001031GE19AGL   +99999+99999GF106991031999005401999999KA1240M+03621MA1999999099781REMSYN08841941 32456 61802 10345 20270 39978 49984 83530 333 10362 56990 58000 70000 83618 86362=
0222419410999992019061918004+23267+090700FM-12+000799999V0201801N00101004801CN004000199+03021+02801100161ADDAA124000091GA1051+004801061GA2011+009001091GA3081+024001041GE19AGL   +99999+99999GF108991051999004801999999MA1999999100111REMSYN08841941 32440 81802 10302 20280 30011 40016 8632/ 333 56999 58006 70000 85616 81930 88458=
0200419410999992019062000004+23267+090700FM-12+000799999V0201801N001510240019N005000199+02841+02601100171ADDAA124000091GA1041+004801061GA2061+024001041GE19AGL   +99999+99999GF106991041999004801999999MA1999999100121REMSYN08241941 32450 61803 10284 20260 30012 40017 85420 333 56990 58013 70000 84616 86458=
0200419410999992019062006004+23267+090700FM-12+000799999V0201801N001010240019N007000199+03401+02601100311ADDAA124000091GA1031+004801061GA2061+024001041GE19AGL   +99999+99999GF106991031999004801999999MA1999999100251REMSYN08241941 32457 61802 10340 20260 30025 40031 85420 333 56990 58021 70000 83616 86458=
0286419410999992019062012004+23267+090700FM-12+000799999V0209999C00001004801CN006000199+02801+02701100111ADDAA101016031AA224016031AY121021AY221021GA1051+004801061GA2011+009001091GA3081+024001041GE19AGL   +99999+99999GF108991051999004801999999KA1240M+03461MA1999999100061MW1651REMSYN10641941 11456 80000 10280 20270 30006 40011 60165 76522 8632/ 333 10346 56999 58028 70160 85616 81930 88458=
0245419410999992019062018004+23267+090700FM-12+000799999V0209999C000010240019N004000199+02871+02701100331ADDAA101001031AA224017031AY161021AY221021GA1041+004801061GA2061+024001041GE19AGL   +99999+99999GF106991041999004801999999MA1999999100281MW1021REMSYN09441941 11440 60000 10287 20270 30028 40033 60015 70262 85420 333 56990 58017 70170 84616 86458=
0200419410999992019062100004+23267+090700FM-12+000799999V0209999C000010210019N005000199+02861+02701100151ADDAA124017031GA1041+004501061GA2051+021001041GE19AGL   +99999+99999GF107991041999004501999999MA1999999100101REMSYN08241941 32450 70000 10286 20270 30010 40015 85420 333 56990 59002 70170 84615 85457=
0200419410999992019062106004+23267+090700FM-12+000799999V0201801N002610240019N006000199+02961+02601100281ADDAA124017031GA1041+004801061GA2071+024001041GE19AGL   +99999+99999GF107991041999004801999999MA1999999100221REMSYN08241941 32456 71805 10296 20260 30022 40028 85420 333 56990 59003 70170 84616 87458=
0219419410999992019062218004+23267+090700FM-12+000799999V0201801N00101999999CN004000199+02841+02601100471ADDAA124014031GA1031+004801061GA2041+024001041GE19AGL   +99999+99999GF104991031999004801999999MA1999999100421REMSYN08241941 32440 41802 10284 20260 30042 40047 84420 333 56990 58021 70140 83616 84458=EQDQ01 024003SCOCIG
0200419410999992019062306004+23267+090700FM-12+000799999V0201801N001010240019N007000199+03441+02401100441ADDAA124004031GA1041+004501061GA2061+024001041GE19AGL   +99999+99999GF106991041999004501999999MA1999999100381REMSYN08241941 32457 61802 10344 20240 30038 40044 83540 333 56990 59002 70040 84615 86458=
0241419410999992019062312004+23267+090700FM-12+000799999V0201801N00101036001CN006000199+03321+02501100321ADDAA124000091GA1041+005401061GA2041+036001031GA3061+090001001GE19AGL   +99999+99999GF106991041999005401999999KA1240M+03551MA1999999100271REMSYN09441941 32456 61802 10332 20250 30027 40032 84531 333 10355 56999 58011 70000 84618 84362 86080=
0200419410999992019062318004+23267+090700FM-12+000799999V0201801N001010240019N004000199+02951+99999100471ADDAA124000091GA1031+004801061GA2061+024001041GE19AGL   +99999+99999GF106991031999004801999999MA1999999100421REMSYN08241941 32440 61802 10295 29270 30042 40047 84420 333 56990 58000 70000 83616 86458=
0178419410999992019062400004+23267+090700FM-12+000799999V0209999C000012200019N005000199+02851+02801100551ADDAA124000091GA1041+004801061GE19AGL   +99999+99999GF104991041999004801999999MA1999999100501REMSYN07641941 32450 40000 10285 20280 30050 40055 85400 333 56900 58005 70000 84616=
0200419410999992019062406004+23267+090700FM-12+000799999V0201801N00151036001CN006000199+03361+02701100611ADDAA124000091GA1031+004801061GA2051+036001031GE19AGL   +99999+99999GF105991031999004801999999MA1999999100561REMSYN08241941 32456 51803 10336 20270 30056 40061 83530 333 56990 58018 70000 83616 85362=
0219419410999992019062412004+23267+090700FM-12+000799999V0201801N00151036001CN006000199+03421+02501100331ADDAA124000091GA1031+004801061GA2051+036001031GE19AGL   +99999+99999GF105991031999004801999999KA1240M+03561MA1999999100281REMSYN08841941 32456 51803 10342 20250 30028 40033 83530 333 10356 56990 58001 70000 83616 85362=
0200419410999992019062418004+23267+090700FM-12+000799999V0209999C000010240019N005000199+03041+02701100591ADDAA124000091GA1041+004801061GA2061+024001041GE19AGL   +99999+99999GF106991041999004801999999MA1999999100531REMSYN08241941 32450 60000 10304 20270 30053 40059 85420 333 56990 58011 70000 84616 86458=
0222419410999992019062500004+23267+090700FM-12+000799999V0201801N00151004801CN005000199+02901+02601100581ADDAA124000091GA1051+004801061GA2011+009001091GA3081+024001041GE19AGL   +99999+99999GF108991051999004801999999MA1999999100521REMSYN08841941 32450 81803 10290 20260 30052 40058 8632/ 333 56999 58002 70000 85616 81930 88458=
0200419410999992019062506004+23267+090700FM-12+000799999V0201801N001010240019N007000199+03461+02701100471ADDAA124000091GA1041+004501061GA2061+024001041GE19AGL   +99999+99999GF106991041999004501999999MA1999999100411REMSYN08241941 32457 61802 10346 20270 30041 40047 85420 333 56990 59015 70000 84615 86458=
0219419410999992019062512004+23267+090700FM-12+000799999V0201801N001010240019N006000199+03321+02701100231ADDAA124000091GA1041+004801061GA2061+024001041GE19AGL   +99999+99999GF106991041999004801999999KA1240M+03621MA1999999100171REMSYN08841941 32456 61802 10332 20270 30017 40023 85420 333 10362 56990 59011 70000 84616 86458=
0200419410999992019062518004+23267+090700FM-12+000799999V0201801N001510240019N004000199+02981+02801100301ADDAA124000091GA1041+004501061GA2051+024001041GE19AGL   +99999+99999GF105991041999004501999999MA1999999100251REMSYN08241941 32440 51803 10298 20280 30025 40030 84420 333 56990 59028 70000 84615 85458=
0200419410999992019062600004+23267+090700FM-12+000799999V0201801N001510240019N005000199+02921+02701100361ADDAA124000091GA1041+004501061GA2061+024001041GE19AGL   +99999+99999GF106991041999004501999999MA1999999100301REMSYN08241941 32450 61803 10292 20270 30030 40036 85420 333 56990 59022 70000 84615 86458=
0219419410999992019062612004+23267+090700FM-12+000799999V0201801N002110240019N006000199+03321+02701100151ADDAA124000091GA1041+004801061GA2061+024001041GE19AGL   +99999+99999GF106991041999004801999999KA1240M+03521MA1999999100101REMSYN08841941 32456 61804 10332 20270 30010 40015 85420 333 10352 56990 59007 70000 84616 86458=
0200419410999992019062618004+23267+090700FM-12+000799999V0201801N002110210019N004000199+03001+02701100241ADDAA124000091GA1041+004501061GA2051+021001041GE19AGL   +99999+99999GF107991041999004501999999MA1999999100181REMSYN08241941 32440 71804 10300 20270 30018 40024 85420 333 56990 59007 70000 84615 85457=
0200419410999992019062700004+23267+090700FM-12+000799999V0201801N002110210019N005000199+02941+02601100211ADDAA124000091GA1041+004501061GA2051+021001041GE19AGL   +99999+99999GF107991041999004501999999MA1999999100151REMSYN08241941 32450 71804 10294 20260 30015 40021 85420 333 56990 59015 70000 84615 85457=
0278419410999992019062706004+23267+090700FM-12+000799999V0201801N00151004201CN006000199+03081+02601100221ADDAA124001031AY121021AY221021GA1021+002401071GA2041+004201061GA3011+009001091GA4081+018001041GE19AGL   +99999+99999GF108991021999002401999999MA1999999100171MW1211REMSYN10641941 11456 81803 10308 20260 30017 40022 60014 72122 8632/ 333 56999 59017 70010 82708 84614 81930 88456=
0308419410999992019062712004+23267+090700FM-12+000799999V0201801N00151003901CN005000199+02981+02901099871ADDAA103008031AA224009031AY191021AY261021GA1021+002401071GA2051+003901061GA3011+008401091GA4081+018001041GE19AGL   +99999+99999GF108991021999002401999999KA1240M+03461MA1999999099811MW1611REMSYN11241941 11350 81803 10298 20290 39981 49987 60087 76196 8692/ 333 10346 56999 59029 70090 82708 85613 81928 88456=
0200419410999992019062800004+23267+090700FM-12+000799999V0201801N001010360019N005000199+02861+02701100051ADDAA124010031GA1031+005401061GA2061+036001031GE19AGL   +99999+99999GF106991031999005401999999MA1999999100001REMSYN08241941 32450 61802 10286 20270 30000 40005 83530 333 56990 59015 70100 83618 86362=
0200419410999992019062806004+23267+090700FM-12+000799999V0201801N001510360019N006000199+03421+02601099971ADDAA124009031GA1041+004801061GA2061+036001031GE19AGL   +99999+99999GF106991041999004801999999MA1999999099921REMSYN08241941 32456 61803 10342 20260 39992 49997 83530 333 56990 59025 70090 84616 86362=
0286419410999992019062812004+23267+090700FM-12+000799999V0209999C00001004501CN005000199+02951+02901099841ADDAA109007031AA224008031AY161021AY221021GA1051+004501061GA2011+009001091GA3081+024001041GE19AGL   +99999+99999GF108991051999004501999999KA1240M+03481MA1999999099781MW1021REMSYN10641941 11450 80000 10295 20290 39978 49984 60078 70262 8632/ 333 10348 56999 59003 70080 85615 81930 88458=
0222419410999992019062900004+23267+090700FM-12+000799999V0209999C00001004501CN005000199+02751+02751100011ADDAA124007031GA1051+004501061GA2011+009001091GA3081+024001041GE19AGL   +99999+99999GF108991051999004501999999MA1999999099951REMSYN08841941 32450 80000 10275 20275 39995 40001 8632/ 333 56999 59005 70070 85615 81930 88458=
0267419410999992019062906004+23267+090700FM-12+000799999V0201801N00151004201CN005000199+02821+02601099961ADDAA124001032AA224008032AY191021AY261021GA1051+004201061GA2011+009001091GA3081+024001041GE19AGL   +99999+99999GF108991051999004201999999MA1999999099911MW1291REMSYN10041941 11450 81803 10282 20260 39991 49996 60014 72996 8692/ 333 56999 59001 70080 85614 81930 88458=
0200419410999992019062918004+23267+090700FM-12+000799999V0209999C000010240019N004000199+02931+02801100001ADDAA124006031GA1041+004801061GA2061+024001041GE19AGL   +99999+99999GF106991041999004801999999MA1999999099941REMSYN08241941 32440 60000 10293 20280 39994 40000 84520 333 56990 59001 70060 84616 86458=
0200419410999992019063000004+23267+090700FM-12+000799999V0209999C000010240019N005000199+02881+02801099861ADDAA124006031GA1041+004801061GA2061+024001041GE19AGL   +99999+99999GF106991041999004801999999MA1999999099811REMSYN08241941 32450 60000 10288 20280 39981 49986 84520 333 56990 59014 70060 84616 86458=
0245419410999992019063006004+23267+090700FM-12+000799999V0201801N001510240019N006000199+03251+02801100031ADDAA124001032AA224006032AY121021AY221021GA1041+004801061GA2061+024001041GE19AGL   +99999+99999GF106991041999004801999999MA1999999099971MW1211REMSYN09441941 11456 61803 10325 20280 39997 40003 60014 72122 85420 333 56990 58006 70060 84616 86458=
0264419410999992019063012004+23267+090700FM-12+000799999V0209999C000010240019N005000199+03121+02801099781ADDAA101003031AA224004031AY161021AY221021GA1041+004801061GA2061+024001041GE19AGL   +99999+99999GF106991041999004801999999KA1240M+03391MA1999999099721MW1021REMSYN10041941 11450 60000 10312 20280 39972 49978 60035 70262 85420 333 10339 56990 59004 70040 84616 86458=
0219419410999992019063018004+23267+090700FM-12+000799999V0209999C00001999999CN005000199+02921+02601100001ADDAA124004031GA1031+004801061GA2041+024001041GE19AGL   +99999+99999GF104991031999004801999999MA1999999099941REMSYN08241941 32450 40000 10292 20260 39994 40000 84420 333 56996 58000 70040 83616 84458=EQDQ01 024003SCOCIG
0219419410999992019070100004+23267+090700FM-12+000799999V0201801N001010360019N005000199+02791+99999099871ADDAA124004031GA1031+005401061GA2061+036001031GE19AGL   +99999+99999GF106991031999005401999999MA1999999099821REMSYN08241941 32450 61802 10279 20280 39982 49987 83530 333 56990 58001 70040 83618 86362=EQDQ0128    2ATOD  
0200419410999992019070106004+23267+090700FM-12+000799999V0201801N001510240019N006000199+03261+02601099851ADDAA124003031GA1031+005401061GA2071+024001041GE19AGL   +99999+99999GF107991031999005401999999MA1999999099791REMSYN08241941 32456 71803 10326 20260 39979 49985 84420 333 56990 59018 70030 83618 87458=
0275419410999992019070112004+23267+090700FM-12+000799999V0201801N00261004801CN005000199+02861+02801099701ADDAA124002031AY121021AY221021GA1051+004801061GA2011+009001091GA3081+024001041GE19AGL   +99999+99999GF108991051999004801999999KA1240M+03381MA1999999099641MW1611REMSYN10641941 11450 81805 10286 20280 39964 49970 60024 76122 8632/ 333 10338 56999 59008 70020 85616 81930 88458=
0245419410999992019070118004+23267+090700FM-12+000799999V0201801N001510240019N004000199+02761+02601099971ADDAA102001031AA224003031AY161021AY221021GA1041+004801061GA2071+024001041GE19AGL   +99999+99999GF107991041999004801999999MA1999999099921MW1011REMSYN09441941 11440 71803 10276 20260 39992 49997 60016 70162 85420 333 56990 59002 70030 84616 87458=
0289419410999992019070200004+23267+090700FM-12+000799999V0201801N00151003901CN005000199+02661+02661099951ADDAA103023031AA224026031AY161021AY221021GA1021+002701071GA2041+003901061GA3011+009001091GA4081+018001041GE19AGL   +99999+99999GF108991021999002701999999MA1999999099901MW1631REMSYN10641941 11350 81803 10266 20266 39990 49995 60237 76362 8632/ 333 56999 58008 70260 82709 84613 81930 88456=
0286419410999992019070212004+23267+090700FM-12+000799999V0201801N00151004201CN005000199+02721+02701099871ADDAA115014031AA224066031AY161021AY261021GA1051+004201061GA2011+009001091GA3081+024001041GE19AGL   +99999+99999GF108991051999004201999999KA1240M+03161MA1999999099811MW1211REMSYN10641941 11450 81803 10272 20270 39981 49987 60149 72166 8632/ 333 10316 56999 58017 70660 85614 81930 88458=
0219419410999992019070312004+23267+090700FM-12+000799999V0201801N002110240019N006000199+02971+02701099791ADDAA124004031GA1041+004801061GA2061+024001041GE19AGL   +99999+99999GF106991041999004801999999KA1240M+03301MA1999999099741REMSYN08841941 32456 61804 10297 20270 39974 49979 85420 333 10330 56990 59007 70040 84616 86458=
0200419410999992019070318004+23267+090700FM-12+000799999V0201801N00101024001CN004000199+02781+02701099981ADDAA124002031GA1031+004501061GA2051+024001041GE19AGL   +99999+99999GF105991031999004501999999MA1999999099931REMSYN08241941 32440 51802 10278 20270 39993 49998 84420 333 56990 59024 70020 83615 85458=
0200419410999992019070400004+23267+090700FM-12+000799999V0201801N001510240019N005000199+02741+02701099891ADDAA124000091GA1041+004801061GA2061+024001041GE19AGL   +99999+99999GF106991041999004801999999MA1999999099841REMSYN08241941 32450 61803 10274 20270 39984 49989 85420 333 56990 59021 70000 84616 86458=
0200419410999992019070406004+23267+090700FM-12+000799999V0201801N001510240019N006000199+03221+02601100011ADDAA124000091GA1041+004801061GA2061+024001041GE19AGL   +99999+99999GF108991041999004801999999MA1999999099921REMSYN08241941 32456 81803 10322 20260 39992 40001 85420 333 56990 59005 70000 84616 86458=
0264419410999992019070412004+23267+090700FM-12+000799999V0201801N001010240019N005000199+02881+02701099791ADDAA102002031AA224002031AY161021AY221021GA1041+004801061GA2061+024001041GE19AGL   +99999+99999GF106991041999004801999999KA1240M+03281MA1999999099741MW1021REMSYN10041941 11450 61802 10288 20270 39974 49979 60026 70262 85420 333 10328 56990 58000 70020 84616 86458=
0200419410999992019070418004+23267+090700FM-12+000799999V0201801N001010360019N004000199+02821+02701099901ADDAA124002031GA1031+005401061GA2061+036001031GE19AGL   +99999+99999GF106991031999005401999999MA1999999099851REMSYN08241941 32440 61802 10282 20270 39985 49990 83530 333 56990 59008 70020 83618 86362=
0219419410999992019070500004+23267+090700FM-12+000799999V0209999C00001999999CN005000199+02751+02701099791ADDAA124002031GA1031+005401061GA2041+036001031GE19AGL   +99999+99999GF104991031999005401999999MA1999999099741REMSYN08241941 32450 40000 10275 20270 39974 49979 83530 333 56990 59010 70020 83618 84362=EQDQ01 036003SCOCIG
0200419410999992019070506004+23267+090700FM-12+000799999V0201801N001510240019N006000199+03321+02601099771ADDAA124002031GA1041+004801061GA2061+024001041GE19AGL   +99999+99999GF106991041999004801999999MA1999999099741REMSYN08241941 32456 61803 10332 20260 39974 49977 85420 333 56990 59021 70020 84616 86458=
0219419410999992019070512004+23267+090700FM-12+000799999V0201801N001510360019N006000199+03021+02601099451ADDAA124000091GA1041+004801061GA2061+036001031GE19AGL   +99999+99999GF106991041999004801999999KA1240M+03411MA1999999099391REMSYN08841941 32456 61803 10302 20260 39939 49945 85430 333 10341 56990 59025 70000 84616 86362=
0267419410999992019070518004+23267+090700FM-12+000799999V0201801N00261004201CN004000199+02801+02701099741ADDAA102001031AA224001031AY161021AY221021GA1021+002401071GA2041+004201061GA3081+018001041GE19AGL   +99999+99999GF108991021999002401999999MA1999999099691MW1031REMSYN10041941 11340 81805 10280 20270 39969 49974 60016 70362 8662/ 333 56499 59016 70010 82708 84614 88456=
0267419410999992019070600004+23267+090700FM-12+000799999V0201801N00151004201CN005000199+02741+02701099591ADDAA124003032AA224004032AY161021AY221021GA1051+004201061GA2011+009001091GA3081+024001041GE19AGL   +99999+99999GF108991051999004201999999MA1999999099531MW1211REMSYN10041941 11450 81803 10274 20270 39953 49959 60034 72162 8632/ 333 56999 59021 70040 85614 81930 88458=
0200419410999992019070606004+23267+090700FM-12+000799999V0201801N002610240019N006000199+03061+02801099521ADDAA124004031GA1041+004501061GA2071+024001041GE19AGL   +99999+99999GF107991041999004501999999MA1999999099461REMSYN08241941 32456 71805 10306 20280 39946 49952 85420 333 56990 59025 70040 84615 87458=
0286419410999992019070612004+23267+090700FM-12+000799999V0201801N00261004501CN006000199+02981+02701099381ADDAA102001031AA224005031AY161021AY221021GA1051+004501061GA2011+009001091GA3081+024001041GE19AGL   +99999+99999GF108991051999004501999999KA1240M+03071MA1999999099321MW1021REMSYN10641941 11456 81805 10298 20270 39932 49938 60016 70262 8632/ 333 10307 56990 59007 70050 85615 81930 88458=
0200419410999992019070618004+23267+090700FM-12+000799999V0201801N001010240019N004000199+02781+02701099591ADDAA124004031GA1041+004501061GA2061+024001041GE19AGL   +99999+99999GF106991041999004501999999MA1999999099541REMSYN08241941 32440 61802 10278 20270 39954 49959 85420 333 56990 59015 70040 84615 86458=
0222419410999992019070700004+23267+090700FM-12+000799999V0201801N00211009001CN005000199+02741+02701099491ADDAA124001031GA1041+004501061GA2011+009001091GA3081+024001041GE19AGL   +99999+99999GF108991041999004501999999MA1999999099441REMSYN08841941 32450 81804 10274 20270 39944 49949 8632/ 333 56999 59009 70010 84615 81930 88458=
0222419410999992019070706004+23267+090700FM-12+000799999V0201801N00101004501CN005000199+02971+02801099771ADDAA124001031GA1051+004501061GA2011+009001091GA3081+024001041GE19AGL   +99999+99999GF108991051999004501999999MA1999999099721REMSYN08841941 32450 81802 10297 20280 39972 49977 8632/ 333 56999 58026 70010 85615 81930 88458=
0222419410999992019070718004+23267+090700FM-12+000799999V0201801N00101004501CN004000199+02851+02701099971ADDAA124002031GA1051+004501061GA2011+009001091GA3081+024001041GE19AGL   +99999+99999GF108991051999004501999999MA1999999099921REMSYN08841941 32440 81802 10285 20270 39992 49997 8632/ 333 56999 58038 70020 85615 81930 88458=
0222419410999992019070800004+23267+090700FM-12+000799999V0209999C00001004801CN005000199+02801+02701099981ADDAA124002031GA1051+004801061GA2011+009001091GA3081+024001041GE19AGL   +99999+99999GF108991051999004801999999MA1999999099931REMSYN08841941 32450 80000 10280 20270 39993 49998 8632/ 333 56999 58049 70020 85616 81930 88458=
0267419410999992019070806004+23267+090700FM-12+000799999V0201801N00101005101CN006000199+03801+02701100111ADDAA118005031AA224007031AY161021AY231021GA1021+002701071GA2041+005101061GA3081+024001041GE19AGL   +99999+99999GF108991021999002701999999MA1999999100051MW1211REMSYN10041941 11456 81802 10380 20270 30005 40011 60053 72163 8672/ 333 56999 58033 70070 82709 84617 88458=
0219419410999992019070812004+23267+090700FM-12+000799999V0209999C000010240019N005000199+02911+02701099961ADDAA124005031GA1041+004801061GA2071+024001041GE19AGL   +99999+99999GF107991041999004801999999KA1240M+02951MA1999999099901REMSYN08841941 32450 70000 10291 20270 39990 49996 85420 333 10295 56990 58012 70050 84616 87458=
0267419410999992019070900004+23267+090700FM-12+000799999V0201801N00151004501CN005000199+02721+02701100041ADDAA103025031AA224030031AY161021AY261021GA1051+004501061GA2011+009001091GA3081+018001041GE19AGL   +99999+99999GF108991051999004501999999MA1999999099981MW1611REMSYN10041941 11450 81803 10272 20270 39998 40004 60257 76166 8632/ 333 56999 58005 70300 85615 81930 88456=
0245419410999992019070906004+23267+090700FM-12+000799999V0201801N001010240019N006000199+02821+02701100131ADDAA103004031AA224029031AY161021AY221021GA1041+004801061GA2061+024001041GE19AGL   +99999+99999GF107991041999004801999999MA1999999100071MW1011REMSYN09441941 11456 71802 10282 20270 30007 40013 60047 70162 85420 333 56990 58002 70290 84616 86458=
0200419410999992019070918004+23267+090700FM-12+000799999V0201801N002110240019N004000199+02821+02601100091ADDAA124029031GA1041+004801061GA2071+024001041GE19AGL   +99999+99999GF107991041999004801999999MA1999999100031REMSYN08241941 32440 71804 10282 20260 30003 40009 85420 333 56990 59007 70290 84616 87458=
0222419410999992019071000004+23267+090700FM-12+000799999V0201801N00211004201CN005000199+02851+02851100001ADDAA124004031GA1021+002401071GA2041+004201061GA3081+024001041GE19AGL   +99999+99999GF108991021999002401999999MA1999999099941REMSYN08841941 32350 81804 10285 20285 39994 40000 8662/ 333 56499 59004 70040 82708 84614 88458=
0200419410999992019071006004+23267+090700FM-12+000799999V0201801N001510240019N006000199+03081+02801100001ADDAA124000091GA1041+004801061GA2071+024001041GE19AGL   +99999+99999GF107991041999004801999999MA1999999100041REMSYN08241941 32456 71803 10308 20280 30004 40000 85420 333 56990 59018 70000 84616 87458=
0286419410999992019071012004+23267+090700FM-12+000799999V0201801N00151004501CN006000199+02661+02601099821ADDAA109048031AA224048031AY191021AY261021GA1051+004501061GA2011+009001091GA3081+024001041GE19AGL   +99999+99999GF108991051999004501999999KA1240M+03171MA1999999099771MW1021REMSYN10641941 11456 81803 10266 20260 39977 49982 60488 70296 8632/ 333 10317 56999 59010 70480 85615 81930 88458=
0200419410999992019071100004+23267+090700FM-12+000799999V0201801N001010240019N005000199+02621+02501100031ADDAA124048031GA1041+004501061GA2061+024001041GE19AGL   +99999+99999GF106991041999004501999999MA1999999099971REMSYN08241941 32450 61802 10262 20250 39997 40003 85420 333 56990 58003 70480 84615 86458=
0222419410999992019071106004+23267+090700FM-12+000799999V0201801N00101004801CN005000199+02911+02801100281ADDAA124048031GA1051+004801061GA2011+009001091GA3081+024001041GE19AGL   +99999+99999GF108991051999004801999999MA1999999100221REMSYN08841941 32450 81802 10291 20280 30022 40028 8632/ 333 56999 58028 70480 85616 81930 88458=
0275419410999992019071112004+23267+090700FM-12+000799999V0201801N00101004801CN005000199+02641+02501100371ADDAA124003031AY161021AY221021GA1051+004801061GA2011+009001091GA3081+024001041GE19AGL   +99999+99999GF108991051999004801999999KA1240M+03121MA1999999100311MW1611REMSYN10641941 11450 81802 10264 20250 30031 40037 60034 76162 8632/ 333 10312 56999 58054 70030 85616 81930 88458=
0267419410999992019071118004+23267+090700FM-12+000799999V0209999C00001004801CN004000199+02731+02701100541ADDAA101004031AA224007031AY161021AY221021GA1051+004801061GA2011+009001091GA3081+024001041GE19AGL   +99999+99999GF108991051999004801999999MA1999999100481MW1021REMSYN10041941 11440 80000 10273 20270 30048 40054 60045 70262 8632/ 333 56999 58043 70070 85616 81930 88458=
0222419410999992019071200004+23267+090700FM-12+000799999V0201801N00101004801CN005000199+02801+02801100281ADDAA124007031GA1051+004801061GA2011+009001091GA3081+024001041GE19AGL   +99999+99999GF108991051999004801999999MA1999999100221REMSYN08841941 32450 81802 10280 20280 30022 40028 8632/ 333 56999 58025 70070 85616 81930 88458=
0267419410999992019071206004+23267+090700FM-12+000799999V0209999C00001004201CN005000199+03121+02701100411ADDAA109015031AA224022031AY161021AY221021GA1051+004201061GA2011+009001091GA3081+024001041GE19AGL   +99999+99999GF108991051999004201999999MA1999999100351MW1021REMSYN10041941 11450 80000 10312 20270 30035 40041 60158 70262 86321 333 56999 58013 70220 85614 81930 88458=
0286419410999992019071212004+23267+090700FM-12+000799999V0201801N00151003901CN005000199+02521+02501100351ADDAA103036031AA224062031AY161021AY221021GA1051+003901061GA2011+009001091GA3081+018001041GE19AGL   +99999+99999GF108991051999003901999999KA1240M+03131MA1999999100291MW1611REMSYN10641941 11450 81803 10252 20250 30029 40035 60367 76162 8632/ 333 10313 56999 59002 70620 85613 81930 88456=
0267419410999992019071218004+23267+090700FM-12+000799999V0201801N00151009001CN004000199+02721+02701100501ADDAA102001031AA224059031AY161021AY221021GA1041+004801061GA2011+009001091GA3081+024001041GE19AGL   +99999+99999GF108991041999004801999999MA1999999100451MW1021REMSYN10041941 11440 81803 10272 20270 30045 40050 60016 70262 8532/ 333 56999 59003 70590 84616 81930 88458=
0200419410999992019071300004+23267+090700FM-12+000799999V0201801N001510240019N005000199+02761+02761100341ADDAA124059031GA1041+004801061GA2081+024001041GE19AGL   +99999+99999GF108991041999004801999999MA1999999100281REMSYN08241941 32450 81803 10276 20276 30028 40034 8542/ 333 56999 58006 70590 84616 88458=
0200419410999992019071306004+23267+090700FM-12+000799999V0201801N002110240019N006000199+03251+02901100401ADDAA124037031GA1041+004801061GA2061+024001041GE19AGL   +99999+99999GF106991041999004801999999MA1999999100341REMSYN08241941 32456 61804 10325 20290 30034 40040 85420 333 56990 59001 70370 84616 86458=
0208419410999992019071312004+23267+090700FM-12+000799999V0209999C000019999999N005000199+02751+02751100101ADDAA124000091GA1999+004501999GE19AGL   +99999+99999GF108991999999004501999999MA1999999100045REMSYN10641941 11450 80000 10275 20275 40010 60004 60327 72996 8692/ 333 10326 56999 59025 70330 85612 81930 88456=
0267419410999992019071318004+23267+090700FM-12+000799999V0209999C00001003601CN004000199+02521+02501100461ADDAA115022031AA224054031AY191021AY261021GA1051+003601061GA2011+009001091GA3081+018001041GE19AGL   +99999+99999GF108991051999003601999999MA1999999100401MW1951REMSYN10041941 11440 80000 10252 20250 30040 40046 60229 79596 8692/ 333 56999 59004 70540 85612 81930 88456=
0267419410999992019071400004+23267+090700FM-12+000799999V0209999C00001004201CN005000199+02551+02501100121ADDAA115004031AA224058031AY191021AY261021GA1051+004201061GA2011+009001091GA3081+024001041GE19AGL   +99999+99999GF108991051999004201999999MA1999999100061MW1021REMSYN10041941 11450 80000 10255 20250 30006 40012 60049 70296 8632/ 333 56999 59022 70580 85614 81930 88458=
0267419410999992019071406004+23267+090700FM-12+000799999V0201801N00151004501CN006000199+02641+02501100251ADDAA124002032AA224060032AY121021AY221021GA1051+004501061GA2011+009001091GA3081+024001041GE19AGL   +99999+99999GF108991051999004501999999MA1999999100191MW1291REMSYN10041941 11456 81803 10264 20250 30019 40025 60024 72922 8632/ 333 56999 59015 70600 85615 81930 88458=
0241419410999992019071412004+23267+090700FM-12+000799999V0201801N00101004501CN006000199+02771+02601099911ADDAA124028031GA1051+004501061GA2011+009001091GA3081+024001041GE19AGL   +99999+99999GF108991051999004501999999KA1240N+02821MA1999999099851REMSYN09441941 32456 81802 10277 20260 39985 49991 8632/ 333 20282 56999 59019 70280 85615 81930 88458=
0200419410999992019071418004+23267+090700FM-12+000799999V0201801N001010240019N004000199+02661+02501100091ADDAA124006031GA1041+004501061GA2061+024001041GE19AGL   +99999+99999GF106991041999004501999999MA1999999100031REMSYN08241941 32440 61802 10266 20250 30003 40009 85420 333 56990 59037 70060 84615 86458=
0222419410999992019071500004+23267+090700FM-12+000799999V0201801N00151004501CN005000199+02621+02501099961ADDAA124002031GA1051+004501061GA2011+009001091GA3081+024001041GE19AGL   +99999+99999GF108991051999004501999999MA1999999099901REMSYN08841941 32450 81803 10262 20250 39990 49996 8632/ 333 56999 59016 70020 85615 81930 88458=
0200419410999992019071506004+23267+090700FM-12+000799999V0201801N002110240019N006000199+03171+02801100091ADDAA124000091GA1041+004501061GA2071+024001041GE19AGL   +99999+99999GF107991041999004501999999MA1999999100041REMSYN08241941 32456 71804 10317 20280 30004 40009 85420 333 56990 59015 70000 84615 87458=
0219419410999992019071512004+23267+090700FM-12+000799999V0201801N002110240019N006000199+02841+02701099921ADDAA124000091GA1041+004501061GA2061+024001041GE19AGL   +99999+99999GF106991041999004501999999KA1240M+03241MA1999999099871REMSYN08841941 32456 61804 10284 20270 39987 49992 85420 333 10324 56990 59002 70000 84615 86458=
0200419410999992019071518004+23267+090700FM-12+000799999V0201801N001010240019N004000199+02781+02701100081ADDAA124000091GA1041+004801061GA2061+024001041GE19AGL   +99999+99999GF106991041999004801999999MA1999999100021REMSYN08241941 32440 61802 10278 20270 30002 40008 85420 333 56990 59001 70000 84616 86458=
0222419410999992019071600004+23267+090700FM-12+000799999V0201801N00101004501CN005000199+02681+02681099941ADDAA124000091GA1051+004501061GA2011+006001091GA3081+024001041GE19AGL   +99999+99999GF108991051999004501999999MA1999999099881REMSYN08841941 32450 81802 10268 20268 39988 49994 8632/ 333 56999 59002 70000 85615 81920 88458=
0200419410999992019071606004+23267+090700FM-12+000799999V0201801N001510360019N006000199+03361+02801100401ADDAA124000091GA1031+005401061GA2061+036001031GE19AGL   +99999+99999GF106991031999005401999999MA1999999100351REMSYN08241941 32456 61803 10336 20280 30035 40040 83530 333 56990 58031 70000 83618 86362=
0219419410999992019071612004+23267+090700FM-12+000799999V0201801N00211036001CN005000199+03321+02701100061ADDAA124000091GA1031+005401061GA2051+036001031GE19AGL   +99999+99999GF105991031999005401999999KA1240M+03501MA1999999100011REMSYN08841941 32450 51804 10332 20270 30001 40006 83530 333 10350 56990 58014 70000 83618 85362=
0200419410999992019071618004+23267+090700FM-12+000799999V0201801N00151024001CN004000199+02921+02801100271ADDAA124000091GA1031+004801061GA2051+024001041GE19AGL   +99999+99999GF105991031999004801999999MA1999999100221REMSYN08241941 32440 51803 10292 20280 30022 40027 84420 333 56990 58020 70000 83616 85458=
0200419410999992019071700004+23267+090700FM-12+000799999V0209999C000010240019N005000199+02851+02851100281ADDAA124000091GA1041+004801061GA2061+024001041GE19AGL   +99999+99999GF106991041999004801999999MA1999999100231REMSYN08241941 32450 60000 10285 20285 30023 40028 85420 333 56990 58035 70000 84616 86458=
0200419410999992019071706004+23267+090700FM-12+000799999V0201801N001510360019N006000199+03321+02701100241ADDAA124000091GA1031+005401061GA2061+036001031GE19AGL   +99999+99999GF106991031999005401999999MA1999999100191REMSYN08241941 32456 61803 10332 20270 30019 40024 83530 333 56990 59016 70000 83618 86362=
0219419410999992019071812004+23267+090700FM-12+000799999V0201801N001010240019N006000199+03061+02701099391ADDAA124009031GA1041+004801061GA2061+024001041GE19AGL   +99999+99999GF106991041999004801999999KA1240M+03261MA1999999099341REMSYN08841941 32456 61802 10306 20270 39934 49939 85420 333 10326 56990 59055 70090 84616 86458=
0219419410999992019071818004+23267+090700FM-12+000799999V0201801N00101999999CN004000199+02821+02601100121ADDAA124009031GA1031+004801061GA2041+024001041GE19AGL   +99999+99999GF104991031999004801999999MA1999999100071REMSYN08241941 32440 41802 10282 20260 30007 40012 84420 333 56990 59001 70090 83616 84458=EQDQ01 024003SCOCIG
0222419410999992019071900004+23267+090700FM-12+000799999V0209999C00001004501CN005000199+02781+02601100291ADDAA124009031GA1051+004501061GA2011+009001091GA3081+024001041GE19AGL   +99999+99999GF108991051999004501999999MA1999999100231REMSYN08841941 32450 80000 10278 20260 30023 40029 8632/ 333 56999 58013 70090 85615 81930 88458=
0200419410999992019071906004+23267+090700FM-12+000799999V0201801N001010240019N006000199+03231+02701100351ADDAA124000091GA1041+004501061GA2061+024001041GE19AGL   +99999+99999GF106991041999004501999999MA1999999100301REMSYN08241941 32456 61802 10323 20270 30030 40035 85420 333 56990 58023 70000 84615 86458=
0264419410999992019071912004+23267+090700FM-12+000799999V0209999C000010240019N006000199+03181+02601100181ADDAA101001031AA224001031AY161021AY221021GA1041+004501061GA2061+024001041GE19AGL   +99999+99999GF106991041999004501999999KA1240M+03361MA1999999100131MW1011REMSYN10041941 11456 60000 10318 20260 30013 40018 60015 70162 85420 333 10336 56990 58079 70010 84615 86458=
0194419410999992019071918004+23267+090700FM-12+000799999V0209999C000012200019N005000199+02841+02701100521ADDAA124001031GA1031+004501061GA2999+999999031GE19AGL   +99999+99999GF103991031999004501999999MA1999999100471REMSYN07641941 32450 30000 10284 20270 30047 40052 83530 333 56900 58040 70010 83615=
0200419410999992019072000004+23267+090700FM-12+000799999V0209999C000010240019N005000199+02791+02791100461ADDAA124001031GA1041+004801061GA2061+024001041GE19AGL   +99999+99999GF106991041999004801999999MA1999999100411REMSYN08241941 32450 60000 10279 20279 30041 40046 84520 333 56990 58018 70010 84616 86458=
0245419410999992019072006004+23267+090700FM-12+000799999V0201801N001510240019N006000199+03321+02601100561ADDAA101002031AA224003031AY161021AY221021GA1041+004801061GA2061+024001041GE19AGL   +99999+99999GF106991041999004801999999MA1999999100501MW1021REMSYN09441941 11456 61803 10332 20260 30050 40056 60025 70262 85420 333 56990 58020 70030 84616 86458=
0219419410999992019072012004+23267+090700FM-12+000799999V0201801N00211090001CN006000199+03241+02501100271ADDAA124002031GA1021+005401061GA2051+090001001GE19AGL   +99999+99999GF105991021999005401999999KA1240M+03461MA1999999100211REMSYN08841941 32456 51804 10324 20250 30021 40027 82501 333 10346 56909 58008 70020 82618 85080=
0200419410999992019072100004+23267+090700FM-12+000799999V0201801N001510900019N005000199+02811+02701100431ADDAA124000091GA1041+004801061GA2051+090001001GE19AGL   +99999+99999GF105991041999004801999999MA1999999100381REMSYN08241941 32450 51803 10281 20270 30038 40043 85401 333 56909 59003 70000 84616 85080=
0200419410999992019072106004+23267+090700FM-12+000799999V0201801N002110240019N007000199+03281+02601100591ADDAA124000091GA1041+004801061GA2061+024001041GE19AGL   +99999+99999GF106991041999004801999999MA1999999100531REMSYN08241941 32457 61804 10328 20260 30053 40059 85420 333 56990 58003 70000 84616 86458=
0219419410999992019072112004+23267+090700FM-12+000799999V0209999C000010360019N006000199+03141+02501100241ADDAA124000091GA1041+004801061GA2061+036001031GE19AGL   +99999+99999GF106991041999004801999999KA1240M+03501MA1999999100181REMSYN08841941 32456 60000 10314 20250 30018 40024 85430 333 10350 56990 59003 70000 84616 86362=
0200419410999992019072118004+23267+090700FM-12+000799999V0201801N001010240019N004000199+02921+02701100451ADDAA124000091GA1041+004801061GA2061+024001041GE19AGL   +99999+99999GF106991041999004801999999MA1999999100401REMSYN08241941 32440 61802 10292 20270 30040 40045 85420 333 56990 59003 70000 84616 86458=
0222419410999992019072200004+23267+090700FM-12+000799999V0201801N00151004801CN005000199+02901+02801100371ADDAA124000091GA1051+004801061GA2011+009001091GA3081+024001041GE19AGL   +99999+99999GF108991051999004801999999MA1999999100311REMSYN08841941 32450 81803 10290 20280 30031 40037 8632/ 333 56999 59007 70000 85616 81930 88458=
0200419410999992019072306004+23267+090700FM-12+000799999V0201801N001510360019N006000199+03331+02501100421ADDAA124000091GA1041+004801061GA2061+036001031GE19AGL   +99999+99999GF106991041999004801999999MA1999999100361REMSYN08241941 32456 61803 10333 20250 30036 40042 85430 333 56990 59006 70000 84616 86362=
0219419410999992019072312004+23267+090700FM-12+000799999V0201801N00151036001CN006000199+03161+02701100081ADDAA124000091GA1031+005401061GA2051+036001031GE19AGL   +99999+99999GF105991031999005401999999KA1240M+03481MA1999999100021REMSYN08841941 32456 51803 10316 20270 30002 40008 83530 333 10348 56990 59016 70000 83618 85362=
0200419410999992019072318004+23267+090700FM-12+000799999V0201801N001510360019N004000199+02921+02701100381ADDAA124000091GA1041+005401061GA2051+036001031GE19AGL   +99999+99999GF105991041999005401999999MA1999999100331REMSYN08241941 32440 51803 10292 20270 30033 40038 84530 333 56990 59006 70000 84618 85362=
0200419410999992019072400004+23267+090700FM-12+000799999V0209999C000010240019N005000199+02841+02701100271ADDAA124000091GA1041+004801061GA2071+024001041GE19AGL   +99999+99999GF107991041999004801999999MA1999999100221REMSYN08241941 32450 70000 10284 20270 30022 40027 85420 333 56990 59009 70000 84616 87458=
0200419410999992019072406004+23267+090700FM-12+000799999V0201801N001510360019N006000199+03281+02801100301ADDAA124000091GA1041+004801061GA2061+036001031GE19AGL   +99999+99999GF106991041999004801999999MA1999999100241REMSYN08241941 32456 61803 10328 20280 30024 40030 85430 333 56990 59012 70000 84616 86362=
0219419410999992019072412004+23267+090700FM-12+000799999V0201801N002110240019N006000199+03061+02601100071ADDAA124000091GA1041+004801061GA2071+024001041GE19AGL   +99999+99999GF107991041999004801999999KA1240M+03421MA1999999100011REMSYN08841941 32456 71804 10306 20260 30001 40007 85420 333 10342 56990 59001 70000 84616 87458=
0200419410999992019072418004+23267+090700FM-12+000799999V0209999C000010240019N004000199+02851+02601100341ADDAA124000091GA1041+004801061GA2071+024001041GE19AGL   +99999+99999GF107991041999004801999999MA1999999100281REMSYN08241941 32440 70000 10285 20260 30028 40034 85420 333 56990 59005 70000 84616 87458=
0267419410999992019072500004+23267+090700FM-12+000799999V0209999C00001004201CN005000199+02751+02751100191ADDAA109011031AA224011031AY161021AY221021GA1051+004201061GA2011+009001091GA3081+024001041GE19AGL   +99999+99999GF108991051999004201999999MA1999999100131MW1021REMSYN10041941 11450 80000 10275 20275 30013 40019 60118 70262 8632/ 333 56999 59009 70110 85614 81930 88458=
0267419410999992019072506004+23267+090700FM-12+000799999V0201801N00101004501CN006000199+02971+02801100231ADDAA124003032AA224014032AY161021AY221021GA1051+004501061GA2011+009001091GA3081+024001041GE19AGL   +99999+99999GF108991051999004501999999MA1999999100181MW1611REMSYN10041941 11456 81802 10297 20280 30018 40023 60034 76162 8632/ 333 56999 59006 70140 85615 81930 88458=
0219419410999992019072512004+23267+090700FM-12+000799999V0201801N001010240019N006000199+02941+02601099981ADDAA124014031GA1041+004801061GA2061+024001041GE19AGL   +99999+99999GF106991041999004801999999KA1240M+03341MA1999999099921REMSYN08841941 32456 61802 10294 20260 39992 49998 85420 333 10334 56990 59009 70140 84616 86458=
0222419410999992019072518004+23267+090700FM-12+000799999V0209999C00001004501CN004000199+02821+02601100231ADDAA124014031GA1051+004501061GA2011+009001091GA3081+024001041GE19AGL   +99999+99999GF108991051999004501999999MA1999999100181REMSYN08841941 32440 80000 10282 20260 30018 40023 8632/ 333 56999 59010 70140 85615 81930 88458=
0267419410999992019072600004+23267+090700FM-12+000799999V0201801N00101004201CN005000199+02641+02601099911ADDAA115010031AA224013031AY161021AY261021GA1051+004201061GA2011+009001091GA3081+024001041GE19AGL   +99999+99999GF108991051999004201999999MA1999999099861MW1611REMSYN10041941 11450 81802 10264 20260 39986 49991 60109 76166 8632/ 333 56999 59027 70130 85614 81930 88458=
0267419410999992019072606004+23267+090700FM-12+000799999V0201801N00151004501CN006000199+02961+02701100111ADDAA118005031AA224015031AY161021AY221021GA1051+004501061GA2011+009001091GA3081+024001041GE19AGL   +99999+99999GF108991051999004501999999MA1999999100061MW1021REMSYN10041941 11456 81803 10296 20270 30006 40011 60053 70262 8632/ 333 56999 59012 70150 85615 81930 88458=
0286419410999992019072612004+23267+090700FM-12+000799999V0201801N00151004501CN006000199+02941+02601099831ADDAA109003031AA224018031AY161021AY221021GA1051+004501061GA2011+009001091GA3081+024001041GE19AGL   +99999+99999GF108991051999004501999999KA1240M+03121MA1999999099781MW1021REMSYN10641941 11456 81803 10294 20260 39978 49983 60038 70262 8632/ 333 10312 56999 59014 70180 85615 81930 88458=
0245419410999992019072618004+23267+090700FM-12+000799999V0201801N001010240019N004000199+02771+02501100151ADDAA101001031AA224019031AY161021AY221021GA1041+004501061GA2061+024001041GE19AGL   +99999+99999GF106991041999004501999999MA1999999100091MW1021REMSYN09441941 11440 61802 10277 20250 30009 40015 60015 70262 85420 333 56990 59009 70190 84615 86458=
0267419410999992019072700004+23267+090700FM-12+000799999V0201801N00101004501CN004000199+02721+02501099991ADDAA103002031AA224017031AY161021AY221021GA1051+004501061GA2011+009001091GA3081+024001041GE19AGL   +99999+99999GF108991051999004501999999MA1999999099941MW1021REMSYN10041941 21440 81802 10272 20250 39994 49999 70262 8632/ 333 56999 59003 6002/ 70170 85615 81930 88458=
0267419410999992019072706004+23267+090700FM-12+000799999V0201801N00151003901CN006000199+02841+02601100131ADDAA124001032AA224007032AY121021AY221021GA1021+002401071GA2041+003901061GA3081+018001041GE19AGL   +99999+99999GF108991021999002401999999MA1999999100081MW1611REMSYN10041941 11356 81803 10284 20260 30008 40013 60014 76122 8672/ 333 56999 58002 70070 82708 84613 88456=
0264419410999992019072712004+23267+090700FM-12+000799999V0201801N002110240019N005000199+02841+02601099911ADDAA109024031AA224028031AY161021AY221021GA1041+004801061GA2061+024001041GE19AGL   +99999+99999GF106991041999004801999999KA1240M+03161MA1999999099861MW1011REMSYN10041941 11450 61804 10284 20260 39986 49991 60248 70162 85420 333 10316 56990 58008 70280 84616 86458=
0267419410999992019072718004+23267+090700FM-12+000799999V0201801N00211004801CN004000199+02721+02601100241ADDAA124001032AA224028032AY161021AY221021GA1051+004801061GA2011+009001091GA3081+024001041GE19AGL   +99999+99999GF108991051999004801999999MA1999999100181MW1031REMSYN10041941 11440 81804 10272 20260 30018 40024 60014 70362 8632/ 333 56999 58009 70280 85616 81930 88458=
0222419410999992019072800004+23267+090700FM-12+000799999V0201801N00151005401CN005000199+02621+02601100211ADDAA124026031GA1051+005401061GA2011+009001091GA3081+024001041GE19AGL   +99999+99999GF108991051999005401999999MA1999999100151REMSYN08841941 32450 81803 10262 20260 30015 40021 8642/ 333 56999 58030 70260 85618 81930 88458=
0200419410999992019072806004+23267+090700FM-12+000799999V0201801N002610240019N006000199+03061+02501100341ADDAA124025031GA1041+004501061GA2061+024001041GE19AGL   +99999+99999GF106991041999004501999999MA1999999100291REMSYN08241941 32456 61805 10306 20250 30029 40034 85420 333 56990 58021 70250 84615 86458=
0219419410999992019072812004+23267+090700FM-12+000799999V0201801N003610240019N006000199+03041+02301100101ADDAA124001031GA1041+004801061GA2061+024001041GE19AGL   +99999+99999GF106991041999004801999999KA1240M+03181MA1999999100041REMSYN08841941 32456 61807 10304 20230 30004 40010 85420 333 10318 56990 58018 70010 84616 86458=
0200419410999992019072818004+23267+090700FM-12+000799999V0201801N002610240019N004000199+02821+99999100291ADDAA124000091GA1041+004501061GA2061+024001041GE19AGL   +99999+99999GF106991041999004501999999MA1999999100231REMSYN08241941 32440 61805 10282 29250 30023 40029 85420 333 56990 58005 70000 84615 86458=
0200419410999992019072900004+23267+090700FM-12+000799999V0201801N001510240019N005000199+02701+02501100241ADDAA124000091GA1041+004501061GA2061+024001041GE19AGL   +99999+99999GF106991041999004501999999MA1999999100181REMSYN08241941 32450 61803 10270 20250 30018 40024 85420 333 56990 58003 70000 84615 86458=
0200419410999992019072906004+23267+090700FM-12+000799999V0201801N003110360019N007000199+03221+02601100391ADDAA124000091GA1041+004801061GA2051+036001031GE19AGL   +99999+99999GF106991041999004801999999MA1999999100331REMSYN08241941 32457 61806 10322 20260 30033 40039 85430 333 56990 58004 70000 84616 85362=
0264419410999992019072912004+23267+090700FM-12+000799999V0209999C000010240019N006000199+02821+02601100311ADDAA118009031AA224009031AY161021AY221021GA1041+004801061GA2061+024001041GE19AGL   +99999+99999GF106991041999004801999999KA1240M+03241MA1999999100251MW1011REMSYN10041941 11456 60000 10282 20260 30025 40031 60093 70162 85420 333 10324 56990 58021 70090 84616 86458=
0200419410999992019072918004+23267+090700FM-12+000799999V0201801N001510240019N004000199+02721+02601100571ADDAA124009031GA1041+004801061GA2071+024001041GE19AGL   +99999+99999GF107991041999004801999999MA1999999100511REMSYN08241941 32440 71803 10272 20260 30051 40057 85420 333 56990 58018 70090 84616 87458=
0222419410999992019073000004+23267+090700FM-12+000799999V0209999C00001004801CN005000199+02681+02681100441ADDAA124009031GA1051+004801061GA2011+009001091GA3081+024001041GE19AGL   +99999+99999GF108991051999004801999999MA1999999100381REMSYN08841941 32450 80000 10268 20268 30038 40044 8632/ 333 56999 58020 70090 85616 81930 88458=
0245419410999992019073006004+23267+090700FM-12+000799999V0201801N001510240019N006000199+03081+02701100471ADDAA102015031AA224024031AY161021AY221021GA1041+004501061GA2061+024001041GE19AGL   +99999+99999GF106991041999004501999999MA1999999100241MW1011REMSYN09441941 11456 61803 10308 20270 30024 40047 60156 70162 85420 333 56990 58009 70240 84615 86458=
0286419410999992019073012004+23267+090700FM-12+000799999V0201801N00101004501CN006000199+02721+02601100211ADDAA102001031AA224016031AY161021AY221021GA1051+004501061GA2011+009001091GA3081+024001041GE19AGL   +99999+99999GF108991051999004501999999KA1240M+03221MA1999999100151MW1031REMSYN10641941 11456 81802 10272 20260 30015 40021 60016 70362 8632/ 333 10322 56999 59010 70160 85615 81930 88458=
0267419410999992019073018004+23267+090700FM-12+000799999V0201801N00101004501CN004000199+02671+02601100411ADDAA102002031AA224018031AY161021AY221021GA1051+004501061GA2011+009001091GA3081+024001041GE19AGL   +99999+99999GF108991051999004501999999MA1999999100351MW1021REMSYN10041941 11440 81802 10267 20260 30035 40041 60026 70262 8632/ 333 56999 59016 70180 85615 81930 88458=
0267419410999992019073100004+23267+090700FM-12+000799999V0201801N00101004501CN005000199+02641+02601100251ADDAA102001031AA224019031AY161021AY221021GA1051+004501061GA2011+009001091GA3081+024001041GE19AGL   +99999+99999GF108991051999004501999999MA1999999100191MW1021REMSYN10041941 11450 81802 10264 20260 30019 40025 60016 70262 8632/ 333 56999 59019 70190 85615 81930 88458=
0200419410999992019073106004+23267+090700FM-12+000799999V0201801N001510360019N006000199+02981+02601100371ADDAA124004031GA1031+005401061GA2061+036001031GE19AGL   +99999+99999GF106991031999005401999999MA1999999100321REMSYN08241941 32456 61803 10298 20260 30032 40037 83530 333 56990 59010 70040 83618 86362=
0280419410999992019073112004+23267+090700FM-12+000799999V0201801N00151036001CN006000199+02921+02601100101ADDAA102013031AA224016031AY161021AY221021GA1031+005401061GA2041+036001031GA3999+999999001GE19AGL   +99999+99999GF106991031999005401999999KA1240M+03211MA1999999100051MW1011REMSYN10041941 11456 61803 10292 20260 30005 40010 60136 70162 83531 333 10321 56999 59010 70160 83618 84362=
0200419410999992019073118004+23267+090700FM-12+000799999V0209999C000010240019N004000199+02741+02601100331ADDAA124014031GA1041+004801061GA2061+024001041GE19AGL   +99999+99999GF106991041999004801999999MA1999999100271REMSYN08241941 32440 60000 10274 20260 30027 40033 85420 333 56990 59008 70140 84616 86458=
0200419410999992019080100004+23267+090700FM-12+000799999V0209999C00001036001CN005000199+02661+02601100231ADDAA124013031GA1031+005401061GA2051+036001031GE19AGL   +99999+99999GF105991031999005401999999MA1999999100131REMSYN08241941 32450 50000 10266 20260 30013 40023 83530 333 56990 59002 70130 83618 85362=
0200419410999992019080106004+23267+090700FM-12+000799999V0201801N002110240019N006000199+03121+02601100211ADDAA124013031GA1041+004801061GA2061+024001041GE19AGL   +99999+99999GF106991041999004801999999MA1999999100161REMSYN08241941 32456 61804 10312 20260 30016 40021 85420 333 56990 59016 70130 84616 86458=
0219419410999992019080112004+23267+090700FM-12+000799999V0201801N00151024001CN006000199+03041+02501099911ADDAA124000091GA1031+005401061GA2051+024001041GE19AGL   +99999+99999GF105991031999005401999999KA1240M+03261MA1999999099861REMSYN08841941 32456 51803 10304 20250 39986 49991 84420 333 10326 56990 59019 70000 83618 85458=
0200419410999992019080118004+23267+090700FM-12+000799999V0209999C000010240019N004000199+02781+02601100181ADDAA124000091GA1041+004801061GA2051+024001041GE19AGL   +99999+99999GF105991041999004801999999MA1999999100131REMSYN08241941 32440 50000 10278 20260 30013 40018 85420 333 56990 59014 70000 84616 85458=
0245419410999992019080200004+23267+090700FM-12+000799999V0209999C000010240019N005000199+02621+02601100021ADDAA101016031AA224016031AY161021AY221021GA1041+004801061GA2061+024001041GE19AGL   +99999+99999GF106991041999004801999999MA1999999099961MW1011REMSYN09441941 11450 60000 10262 20260 39996 40002 60165 70162 85420 333 56990 59021 70160 84616 86458=
0222419410999992019080206004+23267+090700FM-12+000799999V0201801N00101009001CN006000199+03281+02701100081ADDAA124010631GA1041+004801061GA2011+009001091GA3061+024001041GE19AGL   +99999+99999GF106991041999004801999999MA1999999100031REMSYN08841941 32456 61802 10328 20270 30003 40008 85320 333 56990 59013 70106 84616 81930 86458=
