0204483040999992019010100004+19867+099767FM-12+040199999V0209999C000019999999N012000199+01851+01771101981ADDGA1061+008001061GA2999+999999031GE19AGL   +99999+99999GF108991061999008001999999KA1120N+01741MA1999999097261MD1210011+0111REMSYN07048304 32562 80000 10185 20177 39726 40198 52001 8657/ 333 20174 58011=
0201483040999992019010103004+19867+099767FM-12+040199999V0209999C000019999999N015000199+02021+01811102171ADDGA1061+008001061GA2999+999999031GA3999+999999021GE19AGL   +99999+99999GF107991061999008001999999MA1999999097471MD1210201+0111REMSYN06448304 32565 70000 10202 20181 39747 40217 52020 86546 333 58011=
0201483040999992019010106004+19867+099767FM-12+040199999V0201601N001519999999N015000199+02451+01821101761ADDGA1051+008001061GA2999+999999031GA3999+999999021GE19AGL   +99999+99999GF106991051999008001999999MA1999999097151MD1710321+0011REMSYN06448304 32565 61603 10245 20182 39715 40176 57032 85546 333 58001=
0169483040999992019010109004+19867+099767FM-12+040199999V0209999C000019999999N015000199+02481+01801101561ADDGA1051+008001081GE19AGL   +99999+99999GF105991051999008001999999MA1999999096951MD1710191-0091REMSYN06448304 32565 50000 10248 20180 39695 40156 57019 85100 333 59009=
0188483040999992019010112004+19867+099767FM-12+040199999V0209999C000012200019N012000199+02111+01871101741ADDGA1021+008001061GE19AGL   +99999+99999GF102991021999008001999999KA1240M+02561MA1999999097071MD1210121-0051REMSYN07048304 32562 20000 10211 20187 39707 40174 52012 82500 333 10256 59005=
0169483040999992019010115004+19867+099767FM-12+040199999V0209999C000012200019N012000199+01921+01791101881ADDGA1031+999999031GE19AGL   +99999+99999GF103991031999999999999999MA1999999097171MD1210101-0031REMSYN06448304 32962 30000 10192 20179 39717 40188 52010 83040 333 59003=
0169483040999992019010118004+19867+099767FM-12+040199999V0209999C000012200019N012000199+01831+01731101931ADDGA1021+999999031GE19AGL   +99999+99999GF102991021999999999999999MA1999999097211MD1990041-0061REMSYN06448304 32962 20000 10183 20173 39721 40193 50004 82040 333 59006=
0169483040999992019010121004+19867+099767FM-12+040199999V0209999C000019999999N010000199+01771+01691101891ADDGA1061+999999031GE19AGL   +99999+99999GF106991061999999999999999MA1999999097161MD1710051-0101REMSYN06448304 32960 60000 10177 20169 39716 40189 57005 86050 333 59010=
0220483040999992019010200004+19867+099767FM-12+040199999V0209999C000019999999N010000199+01761+01691102021ADDGA1041+008001061GA2999+999999031GA3999+999999021GE19AGL   +99999+99999GF108991041999008001999999KA1120N+01721MA1999999097281MD1210121+0031REMSYN07048304 32560 80000 10176 20169 39728 40202 52012 84576 333 20172 58003=
0169483040999992019010203004+19867+099767FM-12+040199999V0209999C000012200019N015000199+02051+01631102141ADDGA1041+008001061GE19AGL   +99999+99999GF104991041999008001999999MA1999999097451MD1210171-0031REMSYN06448304 32565 40000 10205 20163 39745 40214 52017 84500 333 59003=
0136483040999992019010206004+19870+099774FM-12+039799999V0203601N0000122000199015000199+02401+01671101811ADDAA106999999AZ101061AZ201061GA1021+008001061GE19AGL   +99999+99999GF102991021999008001999999MA1999999097181MD1710271+0041REMSYN004BUFR
0136483040999992019010209004+19870+099774FM-12+039799999V0203601N0000122000199015000199+02551+01561101591ADDAA103999999AZ101031AZ201031GA1021+008001081GE19AGL   +99999+99999GF102991021999008001999999MA1999999097001MD1710181+0041REMSYN004BUFR
0188483040999992019010212004+19867+099767FM-12+040199999V0209999C000012200019N015000199+02111+01751101831ADDGA1021+012501061GE19AGL   +99999+99999GF102991021999012501999999KA1240M+02601MA1999999097161MD1210161+0091REMSYN07048304 32665 20000 10211 20175 39716 40183 52016 82500 333 10260 58009=
0169483040999992019010215004+19867+099767FM-12+040199999V0209999C000012200019N015000199+01721+01551102001ADDGA1021+012501061GE19AGL   +99999+99999GF102991021999012501999999MA1999999097261MD1210101+0121REMSYN06448304 32665 20000 10172 20155 39726 40200 52010 82500 333 58012=
0125483040999992019010218004+19867+099767FM-12+040199999V0209999C000019999999N015000199+01541+01451102071ADDGF100995999999999999999999MA1999999097301MD1990041+0141REMSYN05848304 32965 00000 10154 20145 39730 40207 50004 333 58014=
0125483040999992019010221004+19867+099767FM-12+040199999V0209999C000019999999N010000199+01451+01401102011ADDGF100995999999999999999999MA1999999097221MD1710071+0121REMSYN05848304 32960 00000 10145 20140 39722 40201 57007 333 58012=
0165483040999992019010300004+19870+099774FM-12+039799999V0203601N0000122000199010000199+01301+01241102171ADDAA106999999AZ101061AZ201061GA1021+030001031GA2999+999999001GE19AGL   +99999+99999GF102991021999030001999999KA1120N+01251MA1999999097351MD1210131+0161REMSYN004BUFR
0152483040999992019010303004+19870+099774FM-12+039799999V0200701N0026122000199015000199+02001+01491102271ADDAA103999999AZ101031AZ201031GA1021+008001061GA2999+999999001GE19AGL   +99999+99999GF102991021999008001999999MA1999999097561MD1210201+0121REMSYN004BUFR
0168483040999992019010306004+19870+099774FM-12+039799999V0203601N0000122000199015000199+02461+01631101871ADDAA106999999AZ101061AZ201061GA1011+012501061GA2999+999999031GA3999+999999001GE19AGL   +99999+99999GF104991011999012501999999MA1999999097251MD1710311+0061REMSYN004BUFR
0168483040999992019010309004+19870+099774FM-12+039799999V0203601N0000199999999015000199+02421+01531101661ADDAA103999999AZ101031AZ201031GA1021+012501061GA2999+999999031GA3999+999999001GE19AGL   +99999+99999GF105991021999012501999999MA1999999097041MD1710211+0061REMSYN004BUFR
0168483040999992019010312004+19870+099774FM-12+039799999V0203601N0000122000199015000199+02071+01751101841ADDAA106999999AZ101061AZ201061GA1011+012501061GA2999+999999031GA3999+999999001GE19AGL   +99999+99999GF104991011999012501999999MA1999999097171MD1210131+0021REMSYN004BUFR
0125483040999992019010315004+19867+099767FM-12+040199999V0209999C000019999999N012000199+01651+01481101991ADDGF100995999999999999999999MA1999999097241MD1110071-0011REMSYN05848304 32962 00000 10165 20148 39724 40199 51007 333 59001=
0125483040999992019010318004+19867+099767FM-12+040199999V0209999C000019999999N012000199+01451+01361102011ADDGF100995999999999999999999MA1999999097231MD1610011-0061REMSYN05848304 32962 00000 10145 20136 39723 40201 56001 333 59006=
0125483040999992019010321004+19867+099767FM-12+040199999V0209999C000019999999N012000199+01301+01241101951ADDGF100995999999999999999999MA1999999097141MD1610081-0061REMSYN05848304 32962 00000 10130 20124 39714 40195 56008 333 59006=
0091483040999992019010400004+19870+099774FM-12+039799999V0203601N0000199999999000090199+01271+01221102081ADDAA106999999AY141061AY201061KA1120N+01201MA1999999097261MD1210121-0101MW1471REMSYN004BUFR
0142483040999992019010403004+19870+099774FM-12+039799999V0203601N0000122000199012000199+01651+01561102271ADDAA103999999AY141031AY221031GA1041+008001061GE19AGL   +99999+99999GF104991041999008001999999MA1999999097501MD1210241+0001MW1011REMSYN004BUFR
0142483040999992019010406004+19870+099774FM-12+039799999V0203601N0000122000199015000199+02551+01421101751ADDAA106999999AY141061AY201061GA1021+008001061GE19AGL   +99999+99999GF102991021999008001999999MA1999999097151MD1710351-0111MW1011REMSYN004BUFR
0185483040999992019010409004+19867+099767FM-12+040199999V0209999C000012200019N015000199+02601+01471101531ADDGA1011+008001081GA2999+999999001GE19AGL   +99999+99999GF102991011999008001999999MA1999999096951MD1710201-0121REMSYN06448304 32565 20000 10260 20147 39695 40153 57020 81101 333 59012=
0188483040999992019010412004+19867+099767FM-12+040199999V0209999C000012200019N015000199+02051+01691101701ADDGA1011+008001061GE19AGL   +99999+99999GF101991011999008001999999KA1240M+02651MA1999999097031MD1110081-0141REMSYN07048304 32565 10000 10205 20169 39703 40170 51008 81500 333 10265 59014=
0169483040999992019010415004+19867+099767FM-12+040199999V0209999C000012200019N012000199+01851+01681101921ADDGA1011+008001061GE19AGL   +99999+99999GF101991011999008001999999MA1999999097211MD1210181-0071REMSYN06448304 32562 10000 10185 20168 39721 40192 52018 81500 333 59007=
0125483040999992019010418004+19867+099767FM-12+040199999V0209999C000019999999N012000199+01701+01581101871ADDGF100995999999999999999999MA1999999097131MD1610071-0141REMSYN05848304 32962 00000 10170 20158 39713 40187 56007 333 59014=
0169483040999992019010421004+19867+099767FM-12+040199999V0209999C000012200019N012000199+01551+01461101771ADDGA1021+008001061GE19AGL   +99999+99999GF102991021999008001999999MA1999999097021MD1710121-0181REMSYN06448304 32562 20000 10155 20146 39702 40177 57012 82500 333 59018=
0220483040999992019010500004+19867+099767FM-12+040199999V0209999C000019999999N015000199+01551+01461101941ADDGA1021+008001061GA2999+999999031GA3999+999999001GE19AGL   +99999+99999GF105991021999008001999999KA1120N+01501MA1999999097181MD1210161-0131REMSYN07048304 32565 50000 10155 20146 39718 40194 52016 82541 333 20150 59013=
0201483040999992019010503004+19867+099767FM-12+040199999V0209999C000019999999N015000199+02051+01631102021ADDGA1021+008001061GA2999+999999031GA3999+999999001GE19AGL   +99999+99999GF105991021999008001999999MA1999999097331MD1210151-0251REMSYN06448304 32565 50000 10205 20163 39733 40202 52015 82541 333 59025=
0169483040999992019010506004+19867+099767FM-12+040199999V0209999C000012200019N015000199+02601+01621101641ADDGA1021+008001081GE19AGL   +99999+99999GF102991021999008001999999MA1999999097051MD1710271-0111REMSYN06448304 32565 20000 10260 20162 39705 40164 57027 82100 333 59011=
0201483040999992019010509004+19867+099767FM-12+040199999V0209999C000012200019N015000199+02751+01621101381ADDGA1021+008001061GA2999+999999031GA3999+999999001GE19AGL   +99999+99999GF103991021999008001999999MA1999999096821MD1710231-0151REMSYN06448304 32565 30000 10275 20162 39682 40138 57023 82541 333 59015=
0188483040999992019010512004+19867+099767FM-12+040199999V0209999C000012200019N015000199+02201+01971101571ADDGA1011+008001061GE19AGL   +99999+99999GF101991011999008001999999KA1240M+02801MA1999999096921MD1210101-0141REMSYN07048304 32565 10000 10220 20197 39692 40157 52010 81500 333 10280 59014=
0125483040999992019010515004+19867+099767FM-12+040199999V0209999C000019999999N012000199+01971+01841101751ADDGF100995999999999999999999MA1999999097061MD1210141-0181REMSYN05848304 32962 00000 10197 20184 39706 40175 52014 333 59018=
0201483040999992019010518004+19867+099767FM-12+040199999V0209999C000019999999N010000199+01931+01851101801ADDGA1031+008001061GA2999+999999031GA3999+999999021GE19AGL   +99999+99999GF105991031999008001999999MA1999999097101MD1210051-0071REMSYN06448304 32560 50000 10193 20185 39710 40180 52005 83546 333 59007=
0201483040999992019010521004+19867+099767FM-12+040199999V0209999C000019999999N010000199+01871+01801101751ADDGA1051+008001061GA2999+999999031GA3999+999999021GE19AGL   +99999+99999GF107991051999008001999999MA1999999097041MD1710061-0021REMSYN06448304 32560 70000 10187 20180 39704 40175 57006 85546 333 59002=
0204483040999992019010600004+19867+099767FM-12+040199999V0209999C000019999999N012000199+01801+01731101781ADDGA1061+008001061GA2999+999999031GE19AGL   +99999+99999GF108991061999008001999999KA1120N+01761MA1999999097061MD1210011-0171REMSYN07048304 32562 80000 10180 20173 39706 40178 52001 8655/ 333 20176 59017=
0098483040999992019010603004+19870+099774FM-12+039799999V0203601N0000122000199015000199+02351+01961101821ADDAA103999999AZ101031AZ201031GF100991999999999999999999MA1999999097181MD1210131-0201REMSYN004BUFR
0201483040999992019010606004+19867+099767FM-12+040199999V0209999C000019999999N015000199+02821+02031101531ADDGA1011+008001081GA2999+999999031GA3999+999999021GE19AGL   +99999+99999GF105991011999008001999999MA1999999096981MD1710201-0111REMSYN06448304 32565 50000 10282 20203 39698 40153 57020 81146 333 59011=
0168483040999992019010609004+19870+099774FM-12+039799999V0203601N0000199999999015000199+02901+01991101291ADDAA103999999AZ101031AZ201031GA1021+008001061GA2999+999999031GA3999+999999021GE19AGL   +99999+99999GF106991021999008001999999MA1999999096761MD1710221-0091REMSYN004BUFR
0168483040999992019010612004+19870+099774FM-12+039799999V0203601N0000199999999013000199+02571+02151101371ADDAA106999999AZ101061AZ201061GA1021+008001061GA2999+999999031GA3999+999999021GE19AGL   +99999+99999GF107991021999008001999999MA1999999096791MD1210031-0191REMSYN004BUFR
0201483040999992019010615004+19867+099767FM-12+040199999V0209999C000019999999N012000199+02301+02131101571ADDGA1051+008001061GA2999+999999031GA3999+999999021GE19AGL   +99999+99999GF106991051999008001999999MA1999999096941MD1210151-0181REMSYN06448304 32562 60000 10230 20213 39694 40157 52015 85536 333 59018=
0201483040999992019010618004+19867+099767FM-12+040199999V0209999C000019999999N010000199+02181+02061101561ADDGA1041+008001061GA2999+999999031GA3999+999999021GE19AGL   +99999+99999GF106991041999008001999999MA1999999096911MD1710031-0241REMSYN06448304 32560 60000 10218 20206 39691 40156 57003 84536 333 59024=
0201483040999992019010621004+19867+099767FM-12+040199999V0209999C000019999999N010000199+02101+02021101461ADDGA1061+008001061GA2999+999999031GA3999+999999021GE19AGL   +99999+99999GF106991061999008001999999MA1999999096801MD1710111-0291REMSYN06448304 32560 60000 10210 20202 39680 40146 57011 86556 333 59029=
0220483040999992019010700004+19867+099767FM-12+040199999V0209999C000019999999N013000199+01971+01891101541ADDGA1031+008001061GA2999+999999051GA3999+999999021GE19AGL   +99999+99999GF106991031999008001999999KA1120N+01931MA1999999096861MD1210061-0241REMSYN07048304 32563 60000 10197 20189 39686 40154 52006 83526 333 20193 59024=
0201483040999992019010703004+19867+099767FM-12+040199999V0209999C000019999999N015000199+02351+02061101651ADDGA1021+008001061GA2999+999999031GA3999+999999021GE19AGL   +99999+99999GF106991021999008001999999MA1999999097021MD1210161-0171REMSYN06448304 32565 60000 10235 20206 39702 40165 52016 82546 333 59017=
0201483040999992019010706004+19867+099767FM-12+040199999V0203101N001019999999N015000199+02851+02081101271ADDGA1021+008001081GA2999+999999031GA3999+999999021GE19AGL   +99999+99999GF106991021999008001999999MA1999999096731MD1710291-0261REMSYN06448304 32565 63102 10285 20208 39673 40127 57029 82146 333 59026=
0230483040999992019010709004+19867+099767FM-12+040199999V0202101N001519999999N008000199+02751+02151101121ADDAA101000021AY121021AY221021GA1061+008001061GA2999+999999031GE19AGL   +99999+99999GF108991061999008001999999MA1999999096571MD1710161-0171MW1601REMSYN07648304 21558 82103 10275 20215 39657 40112 57016 76022 8657/ 333 59017 69905=
0185483040999992019010712004+19870+099774FM-12+039799999V0203601N0000199999999012000199+02471+02091101261ADDAA112999999AA224999999AY161061AY221061GA1021+008001061GA2999+999999031GA3999+999999021GE19AGL   +99999+99999GF107991021999008001999999MA1999999096671MD1210091-0121MW1011REMSYN004BUFR
0152483040999992019010715004+19870+099774FM-12+039799999V0203601N0000199999999012000199+02201+02051101391ADDAA103999999AZ101031AZ201031GA1021+008001061GA2999+999999031GE19AGL   +99999+99999GF105991021999008001999999MA1999999096751MD1210091-0181REMSYN004BUFR
0218483040999992019010718004+19867+099767FM-12+040199999V0209999C000019999999N012000199+02161+02041101361ADDAA124000021GA1031+008001061GA2999+999999031GA3999+999999021GE19AGL   +99999+99999GF107991031999008001999999MA1999999096721MD1710031-0201REMSYN07048304 32562 70000 10216 20204 39672 40136 57003 83576 333 59020 79999=
0201483040999992019010721004+19867+099767FM-12+040199999V0209999C000019999999N010000199+02121+02061101211ADDGA1051+008001061GA2999+999999031GA3999+999999021GE19AGL   +99999+99999GF108991051999008001999999MA1999999096571MD1710151-0251REMSYN06448304 32560 80000 10212 20206 39657 40121 57015 85576 333 59025=
0288483040999992019010800004+19867+099767FM-12+040199999V0209999C000019999999N010000199+02071+02021101341ADDAA102000231AA224000231AY161021AY221021GA1041+008001061GA2999+999999031GA3999+999999021GE19AGL   +99999+99999GF108991041999008001999999KA1120N+02011MA1999999096681MD1210121-0201MW1021REMSYN09448304 01560 80000 10207 20202 39668 40134 52012 69924 70262 84576 333 20201 59020 69926 70002=
0230483040999992019010803004+19867+099767FM-12+040199999V0209999C000019999999N001000199+02131+02081101501ADDAA102018031AY191021AY261021GA1061+008001061GA2999+999999031GE19AGL   +99999+99999GF108991061999008001999999MA1999999096841MD1210161-0151MW1611REMSYN07648304 21510 80000 10213 20208 39684 40150 52016 76196 8657/ 333 59015 60186=
0196483040999992019010806004+19870+099774FM-12+039799999V0203601N00001008001C9001500199+02101+02051101321ADDAA103026031AA206045031AA324045031AY191061AY261061GA1061+008001061GA2999+999999031GA3999+999999101GE19AGL   +99999+99999GF108991061999008001999999MA1999999096671MD1710171+0051MW1611REMSYN004BUFR
0174483040999992019010809004+19870+099774FM-12+039799999V0203601N00001008001C9015000199+02101+01991101261ADDAA103003031AY161031AY221031GA1051+008001061GA2999+999999031GA3999+999999101GE19AGL   +99999+99999GF108991051999008001999999MA1999999096621MD1710051+0151MW1211REMSYN004BUFR
0185483040999992019010812004+19870+099774FM-12+039799999V0203601N0000199999999012000199+02021+01941101451ADDAA112048032AA224047832AY161061AY221061GA1031+008001061GA2999+999999031GA3999+999999021GE19AGL   +99999+99999GF106991031999008001999999MA1999999096781MD1210171+0201MW1011REMSYN004BUFR
0230483040999992019010815004+19867+099767FM-12+040199999V0209999C000019999999N001500199+02011+01961101491ADDAA102000431AY161021AY221021GA1061+008001061GA2999+999999031GE19AGL   +99999+99999GF108991061999008001999999MA1999999096821MD1210031+0101MW1611REMSYN07648304 21515 80000 10201 20196 39682 40149 52003 76162 8657/ 333 58010 69946=
0263483040999992019010818004+19867+099767FM-12+040199999V0209999C000019999999N012000199+01991+01941101471ADDAA118048031AA224048231AY161021AY221021GA1051+008001061GA2999+999999031GA3999+999999021GE19AGL   +99999+99999GF108991051999008001999999MA1999999096791MD1710021+0111MW1021REMSYN08248304 11562 80000 10199 20194 39679 40147 57002 60483 70262 85576 333 58011 70482=
0246483040999992019010821004+19867+099767FM-12+040199999V0209999C000019999999N010000199+01961+01911101381ADDAA102003031AY161021AY221021GA1031+008001061GA2999+999999031GA3999+999999021GE19AGL   +99999+99999GF106991031999008001999999MA1999999096711MD1710091+0171MW1211REMSYN07648304 21560 60000 10196 20191 39671 40138 57009 72162 83546 333 58017 60036=
0282483040999992019010900004+19867+099767FM-12+040199999V0209999C000019999999N004000199+01981+01951101531ADDAA124051032AA224051232AY161021AY221021GA1061+008001061GA2999+999999031GA3999+999999021GE19AGL   +99999+99999GF108991061999008001999999KA1120N+01941MA1999999096851MD1210141+0191MW1101REMSYN08848304 11540 80000 10198 20195 39685 40153 52014 60514 71062 86576 333 20194 58019 70512=
0201483040999992019010903004+19867+099767FM-12+040199999V0209999C000019999999N015000199+02051+02001101661ADDGA1051+008001061GA2999+999999031GA3999+999999021GE19AGL   +99999+99999GF108991051999008001999999MA1999999096991MD1210141+0171REMSYN06448304 32565 80000 10205 20200 39699 40166 52014 85576 333 58017=
0163483040999992019010906004+19870+099774FM-12+039799999V0203601N0000199999999015000199+02351+01961101411ADDAA106999999AA224006431AZ101061AZ201061GA1021+008001081GA2999+999999031GE19AGL   +99999+99999GF105991021999008001999999MA1999999096801MD1710191+0101REMSYN004BUFR
0136483040999992019010909004+19870+099774FM-12+039799999V0203601N0000122000199015000199+02601+01981101131ADDAA103999999AZ101031AZ201031GA1031+008001081GE19AGL   +99999+99999GF103991031999008001999999MA1999999096571MD1710231-0131REMSYN004BUFR
0163483040999992019010912004+19870+099774FM-12+039799999V0203601N0000122000199015000199+02301+02021101311ADDAA106999999AA224003631AZ101061AZ201061GA1021+008001061GA2999+999999031GE19AGL   +99999+99999GF103991021999008001999999MA1999999096691MD1210121-0141REMSYN004BUFR
0185483040999992019010915004+19867+099767FM-12+040199999V0209999C000012200019N010000199+02171+02061101441ADDGA1021+008001061GA2999+999999031GE19AGL   +99999+99999GF103991021999008001999999MA1999999096801MD1210111-0051REMSYN06448304 32560 30000 10217 20206 39680 40144 52011 82540 333 59005=
0218483040999992019010918004+19867+099767FM-12+040199999V0209999C000019999999N010000199+02101+01971101401ADDAA124003231GA1041+008001061GA2999+999999031GA3999+999999021GE19AGL   +99999+99999GF106991041999008001999999MA1999999096751MD1610051-0071REMSYN07048304 32560 60000 10210 20197 39675 40140 56005 84576 333 59007 70032=
0201483040999992019010921004+19867+099767FM-12+040199999V0209999C000019999999N010000199+02051+01971101341ADDGA1041+008001061GA2999+999999031GA3999+999999001GE19AGL   +99999+99999GF106991041999008001999999MA1999999096691MD1610061-0041REMSYN06448304 32560 60000 10205 20197 39669 40134 56006 84571 333 59004=
0181483040999992019011000004+19870+099774FM-12+039799999V0203601N00001008001C9012000199+02001+01921101481ADDAA106999999AZ101061AZ201061GA1051+008001061GA2999+999999031GA3999+999999101GE19AGL   +99999+99999GF108991051999008001999999KA1120N+01901MA1999999096801MD1210121-0051REMSYN004BUFR
0201483040999992019011003004+19867+099767FM-12+040199999V0209999C000019999999N015000199+02201+02051101621ADDGA1041+008001061GA2999+999999031GA3999+999999021GE19AGL   +99999+99999GF107991041999008001999999MA1999999096971MD1210171-0041REMSYN06448304 32565 70000 10220 20205 39697 40162 52017 84576 333 59004=
0152483040999992019011006004+19870+099774FM-12+039799999V0201201N0026122000199015000199+02751+01981101241ADDAA106999999AZ101061AZ201061GA1031+008001081GA2999+999999001GE19AGL   +99999+99999GF104991031999008001999999MA1999999096701MD1710281-0171REMSYN004BUFR
0152483040999992019011009004+19870+099774FM-12+039799999V0203601N0000122000199015000199+02851+02101101011ADDAA103999999AZ101031AZ201031GA1031+008001081GA2999+999999001GE19AGL   +99999+99999GF104991031999008001999999MA1999999096491MD1710211-0121REMSYN004BUFR
0136483040999992019011012004+19870+099774FM-12+039799999V0203601N0000122000199015000199+02501+02201101201ADDAA106999999AZ101061AZ201061GA1021+008001081GE19AGL   +99999+99999GF102991021999008001999999MA1999999096621MD1210131-0111REMSYN004BUFR
0125483040999992019011015004+19867+099767FM-12+040199999V0209999C000019999999N012000199+02151+02031101401ADDGF100995999999999999999999MA1999999096751MD1210141-0041REMSYN05848304 32962 00000 10215 20203 39675 40140 52014 333 59004=
0125483040999992019011018004+19867+099767FM-12+040199999V0209999C000019999999N012000199+01951+01871101441ADDGF100995999999999999999999MA1999999096761MD1110011+0041REMSYN05848304 32962 00000 10195 20187 39676 40144 51001 333 58004=
0153483040999992019011021004+19867+099767FM-12+040199999V0209999C000019999999N000600199+01901+01821101411ADDAY101021AY201021GF100995999999999999999999MA1999999096721MD1610041+0061MW1461REMSYN06448304 31906 00000 10190 20182 39672 40141 56004 74600 333 58006=
0172483040999992019011100004+19867+099767FM-12+040199999V0209999C00001000601WN000300199+01901+01821101571ADDAY141021AY201021GF109991999999999999999999KA1120N+01841MA1999999096871MD1210151+0091MW1471REMSYN07048304 31/03 90000 10190 20182 39687 40157 52015 74740 333 20184 58009=
0158483040999992019011103004+19870+099774FM-12+039799999V0203601N0000199999999012000199+02101+02021101711ADDAA103999999AY141031AY211031GA1041+008001061GA2999+999999031GE19AGL   +99999+99999GF106991041999008001999999MA1999999097041MD1210171+0091MW1011REMSYN004BUFR
0197483040999992019011106004+19867+099767FM-12+040199999V0201201N002612200019N015000199+02751+02021101281ADDAY141021AY201021GA1021+008001081GE19AGL   +99999+99999GF102991021999008001999999MA1999999096731MD1710311+0041MW1011REMSYN07048304 31565 21205 10275 20202 39673 40128 57031 70140 82200 333 58004=
0169483040999992019011109004+19867+099767FM-12+040199999V0209999C000012200019N015000199+02951+01961101041ADDGA1021+008001081GE19AGL   +99999+99999GF102991021999008001999999MA1999999096531MD1710201+0031REMSYN06448304 32565 20000 10295 20196 39653 40104 57020 82200 333 58003=
0098483040999992019011112004+19870+099774FM-12+039799999V0203601N0000122000199015000199+02401+02091101311ADDAA106999999AZ101061AZ201061GF100991999999999999999999MA1999999096711MD1210171+0111REMSYN004BUFR
0125483040999992019011115004+19867+099767FM-12+040199999V0209999C000019999999N012000199+02101+01941101481ADDGF100995999999999999999999MA1999999096821MD1210121+0081REMSYN05848304 32962 00000 10210 20194 39682 40148 52012 333 58008=
0125483040999992019011118004+19867+099767FM-12+040199999V0209999C000019999999N010000199+01981+01881101491ADDGF100995999999999999999999MA1999999096821MD1610011+0051REMSYN05848304 32960 00000 10198 20188 39682 40149 56001 333 58005=
0201483040999992019011121004+19867+099767FM-12+040199999V0209999C000019999999N010000199+01901+01821101441ADDGA1021+008001061GA2999+999999031GA3999+999999021GE19AGL   +99999+99999GF105991021999008001999999MA1999999096751MD1710071+0031REMSYN06448304 32560 50000 10190 20182 39675 40144 57007 82546 333 58003=
0181483040999992019011200004+19870+099774FM-12+039799999V0203601N0000199999999010000199+01861+01791101581ADDAA106999999AZ101061AZ201061GA1021+008001061GA2999+999999031GA3999+999999021GE19AGL   +99999+99999GF106991021999008001999999KA1120N+01771MA1999999096881MD1210131+0021REMSYN004BUFR
0152483040999992019011203004+19870+099774FM-12+039799999V0203601N00001008001C9013000199+02271+01991101771ADDAA103999999AZ101031AZ201031GA1051+008001061GA2999+999999021GE19AGL   +99999+99999GF106991051999008001999999MA1999999097131MD1210241+0071REMSYN004BUFR
0185483040999992019011206004+19867+099767FM-12+040199999V0209999C000012200019N015000199+02721+02001101451ADDGA1021+008001081GA2999+999999021GE19AGL   +99999+99999GF104991021999008001999999MA1999999096891MD1710241+0171REMSYN06448304 32565 40000 10272 20200 39689 40145 57024 82106 333 58017=
0136483040999992019011209004+19870+099774FM-12+039799999V0203601N0000199999999015000199+02901+02071101171ADDAA103999999AZ101031AZ201031GA1999+030001021GE19AGL   +99999+99999GF106991999999030001999999MA1999999096651MD1710241+0131REMSYN004BUFR
0136483040999992019011212004+19870+099774FM-12+039799999V0203601N0000199999999010000199+02411+02151101331ADDAA106999999AZ101061AZ201061GA1999+030001021GE19AGL   +99999+99999GF106991999999030001999999MA1999999096721MD1210071+0021REMSYN004BUFR
0201483040999992019011215004+19867+099767FM-12+040199999V0209999C000012200019N012000199+02101+01941101511ADDGA1021+008001061GA2999+999999031GA3999+999999021GE19AGL   +99999+99999GF103991021999008001999999MA1999999096851MD1210131+0031REMSYN06448304 32562 30000 10210 20194 39685 40151 52013 82545 333 58003=
0153483040999992019011218004+19867+099767FM-12+040199999V0209999C000019999999N008000199+02011+01911101481ADDAY111021AY211021GF100995999999999999999999MA1999999096811MD1710041-0011MW1101REMSYN06448304 31958 00000 10201 20191 39681 40148 57004 71011 333 59001=
0153483040999992019011221004+19867+099767FM-12+040199999V0209999C000019999999N007000199+01901+01821101441ADDAY101021AY201021GF100995999999999999999999MA1999999096751MD1710061+0001MW1101REMSYN06448304 31957 00000 10190 20182 39675 40144 57006 71000 333 58000=
0171483040999992019011300004+19870+099774FM-12+039799999V0203601N0000122000199001000199+01801+01731101611ADDAA106999999AY141061AY201061GA1021+008001061GA2999+999999021GE19AGL   +99999+99999GF102991021999008001999999KA1120N+01761MA1999999096901MD1210151+0031MW1461REMSYN004BUFR
0174483040999992019011303004+19870+099774FM-12+039799999V0203601N00001008001C9006000199+02121+01931101751ADDAA103999999AY141031AY211031GA1061+008001061GA2999+999999051GA3999+999999101GE19AGL   +99999+99999GF108991061999008001999999MA1999999097081MD1210181-0021MW1101REMSYN004BUFR
0213483040999992019011306004+19867+099767FM-12+040199999V0201901N001512200019N015000199+02801+01991101261ADDAY141021AY211021GA1011+008001081GA2999+999999021GE19AGL   +99999+99999GF104991011999008001999999MA1999999096721MD1710361-0191MW1011REMSYN07048304 31565 41903 10280 20199 39672 40126 57036 70141 81106 333 59019=
0188483040999992019011309004+19867+099767FM-12+040199999V0209999C000019999999N015000199+02941+02121101051ADDGA1999+999999021GE19AGL   +99999+99999GF106991001999999999999999MA1999999096531MD1710191-0131REMSYN06448304 32965 60000 10294 20212 39653 40105 57019 80006 333 59013=EQDQ01    003SCCGA1
0152483040999992019011312004+19870+099774FM-12+039799999V0203601N0000122000199012000199+02411+02111101221ADDAA106999999AZ101061AZ201061GA1011+008001061GA2999+999999021GE19AGL   +99999+99999GF102991011999008001999999MA1999999096621MD1210091-0111REMSYN004BUFR
0125483040999992019011315004+19867+099767FM-12+040199999V0209999C000019999999N012000199+02101+01941101411ADDGF100995999999999999999999MA1999999096751MD1210131-0101REMSYN05848304 32962 00000 10210 20194 39675 40141 52013 333 59010=
0125483040999992019011318004+19867+099767FM-12+040199999V0209999C000019999999N012000199+01931+01831101351ADDGF100995999999999999999999MA1999999096671MD1710091-0141REMSYN05848304 32962 00000 10193 20183 39667 40135 57009 333 59014=
0153483040999992019011321004+19867+099767FM-12+040199999V0209999C000019999999N000600199+01731+01661101341ADDAY101021AY201021GF100995999999999999999999MA1999999096641MD1710031-0101MW1461REMSYN06448304 31906 00000 10173 20166 39664 40134 57003 74600 333 59010=
0172483040999992019011400004+19867+099767FM-12+040199999V0209999C00001000001WN000000199+01701+01651101461ADDAY141021AY201021GF109991999999999999999999KA1120N+01641MA1999999096741MD1210111-0151MW1471REMSYN07048304 31/00 90000 10170 20165 39674 40146 52011 74740 333 20164 59015=
0142483040999992019011403004+19870+099774FM-12+039799999V0203601N00001004501C9004000199+01951+01871101601ADDAA103999999AY141031AY221031GA1061+004501071GE19AGL   +99999+99999GF106991061999004501999999MA1999999096911MD1210171-0151MW1101REMSYN004BUFR
0213483040999992019011406004+19867+099767FM-12+040199999V0209999C000012200019N015000199+02731+01821101091ADDAY141021AY201021GA1011+008001081GA2999+999999001GE19AGL   +99999+99999GF102991011999008001999999MA1999999096551MD1710371-0171MW1011REMSYN07048304 31565 20000 10273 20182 39655 40109 57037 70140 81101 333 59017=
0185483040999992019011409004+19867+099767FM-12+040199999V0209999C000012200019N015000199+02951+01851100861ADDGA1011+008001081GA2999+999999001GE19AGL   +99999+99999GF102991011999008001999999MA1999999096361MD1710191-0191REMSYN06448304 32565 20000 10295 20185 39636 40086 57019 81101 333 59019=
0136483040999992019011412004+19870+099774FM-12+039799999V0203601N0000122000199015000199+02321+01991101081ADDAA106999999AZ101061AZ201061GA1999+030001001GE19AGL   +99999+99999GF102991999999030001999999MA1999999096471MD1210121-0141REMSYN004BUFR
0125483040999992019011415004+19867+099767FM-12+040199999V0209999C000019999999N015000199+02011+01881101241ADDGF100995999999999999999999MA1999999096581MD1210111-0171REMSYN05848304 32965 00000 10201 20188 39658 40124 52011 333 59017=
0125483040999992019011418004+19867+099767FM-12+040199999V0209999C000019999999N012000199+01871+01771101221ADDGF100995999999999999999999MA1999999096531MD1710051-0131REMSYN05848304 32962 00000 10187 20177 39653 40122 57005 333 59013=
0153483040999992019011421004+19867+099767FM-12+040199999V0209999C000019999999N000600199+01781+01701101211ADDAY101021AY201021GF100995999999999999999999MA1999999096511MD1710021-0141MW1461REMSYN06448304 31906 00000 10178 20170 39651 40121 57002 74600 333 59014=
0155483040999992019011500004+19870+099774FM-12+039799999V0203601N00001008001C9002000199+01651+01601101361ADDAA106999999AY141061AY221061GA1051+008001061GE19AGL   +99999+99999GF105991051999008001999999KA1120N+01631MA1999999096641MD1210131-0101MW1101REMSYN004BUFR
0169483040999992019011503004+19867+099767FM-12+040199999V0209999C000019999999N015000199+02051+01821101551ADDGA1051+008001061GE19AGL   +99999+99999GF105991051999008001999999MA1999999096881MD1210241-0051REMSYN06448304 32565 50000 10205 20182 39688 40155 52024 85500 333 59005=
0136483040999992019011506004+19870+099774FM-12+039799999V0201501N0026122000199015000199+02601+01811101101ADDAA106999999AZ101061AZ201061GA1011+008001061GE19AGL   +99999+99999GF101991011999008001999999MA1999999096541MD1710341+0011REMSYN004BUFR
0152483040999992019011509004+19870+099774FM-12+039799999V0203601N0000199999999015000199+02801+01941100901ADDAA103999999AZ101031AZ201031GA1041+008001061GA2999+999999011GE19AGL   +99999+99999GF105991041999008001999999MA1999999096371MD1710171+0041REMSYN004BUFR
0220483040999992019011512004+19867+099767FM-12+040199999V0209999C000012200019N015000199+02421+02121101051ADDGA1021+008001061GA2999+999999031GA3999+999999001GE19AGL   +99999+99999GF103991021999008001999999KA1240M+02831MA1999999096461MD1210091-0031REMSYN07048304 32565 30000 10242 20212 39646 40105 52009 82541 333 10283 59003=
0169483040999992019011515004+19867+099767FM-12+040199999V0209999C000012200019N012000199+02101+01941101271ADDGA1011+008001061GE19AGL   +99999+99999GF101991011999008001999999MA1999999096621MD1210161+0031REMSYN06448304 32562 10000 10210 20194 39662 40127 52016 81500 333 58003=
0201483040999992019011518004+19867+099767FM-12+040199999V0209999C000019999999N010000199+02001+01891101221ADDGA1051+008001061GA2999+999999031GA3999+999999021GE19AGL   +99999+99999GF107991051999008001999999MA1999999096561MD1610051+0011REMSYN06448304 32560 70000 10200 20189 39656 40122 56005 85576 333 58001=
0185483040999992019011521004+19867+099767FM-12+040199999V0209999C000019999999N010000199+02001+01921101221ADDGA1061+008001061GA2999+999999031GE19AGL   +99999+99999GF108991061999008001999999MA1999999096561MD1410001+0011REMSYN06448304 32560 80000 10200 20192 39656 40122 54000 8657/ 333 58001=
0181483040999992019011600004+19870+099774FM-12+039799999V0203601N00001008001C9012000199+01851+01771101381ADDAA106999999AZ101061AZ201061GA1051+008001061GA2999+999999031GA3999+999999021GE19AGL   +99999+99999GF107991051999008001999999KA1120N+01801MA1999999096681MD1210131+0011REMSYN004BUFR
0168483040999992019011603004+19870+099774FM-12+039799999V0203601N0000199999999015000199+02251+01851101431ADDAA103999999AZ101031AZ201031GA1031+008001061GA2999+999999031GA3999+999999021GE19AGL   +99999+99999GF106991031999008001999999MA1999999096791MD1210111-0121REMSYN004BUFR
0169483040999992019011606004+19867+099767FM-12+040199999V0201301N002612200019N015000199+02701+01651101271ADDGA1011+008001061GE19AGL   +99999+99999GF101991011999008001999999MA1999999096711MD1610081+0171REMSYN06448304 32565 11305 10270 20165 39671 40127 56008 81500 333 58017=
0136483040999992019011609004+19870+099774FM-12+039799999V0203601N0000122000199015000199+02871+01591101021ADDAA103999999AZ101031AZ201031GA1011+008001061GE19AGL   +99999+99999GF101991011999008001999999MA1999999096501MD1710211+0131REMSYN004BUFR
0098483040999992019011612004+19870+099774FM-12+039799999V0203601N0000122000199015000199+02251+01941101221ADDAA106999999AZ101061AZ201061GF100991999999999999999999MA1999999096601MD1210101+0171REMSYN004BUFR
0125483040999992019011615004+19867+099767FM-12+040199999V0209999C000019999999N015000199+01871+01701101481ADDGF100995999999999999999999MA1999999096791MD1210191+0211REMSYN05848304 32965 00000 10187 20170 39679 40148 52019 333 58021=
0125483040999992019011618004+19867+099767FM-12+040199999V0209999C000019999999N015000199+01651+01561101511ADDGF100995999999999999999999MA1999999096781MD1610011+0291REMSYN05848304 32965 00000 10165 20156 39678 40151 56001 333 58029=
0169483040999992019011621004+19867+099767FM-12+040199999V0209999C000012200019N012000199+01571+01481101441ADDGA1041+008001061GE19AGL   +99999+99999GF104991041999008001999999MA1999999096701MD1610081+0221REMSYN06448304 32562 40000 10157 20148 39670 40144 56008 84500 333 58022=
0220483040999992019011700004+19867+099767FM-12+040199999V0209999C000019999999N015000199+01601+01511101581ADDGA1051+008001061GA2999+999999031GA3999+999999021GE19AGL   +99999+99999GF106991051999008001999999KA1120N+01501MA1999999096841MD1210141+0201REMSYN07048304 32565 60000 10160 20151 39684 40158 52014 85576 333 20150 58020=
0136483040999992019011703004+19870+099774FM-12+039799999V0203601N0000122000199015000199+01971+01451101841ADDAA103999999AZ101031AZ201031GA1041+008001061GE19AGL   +99999+99999GF104991041999008001999999MA1999999097141MD1210301+0411REMSYN004BUFR
0169483040999992019011706004+19867+099767FM-12+040199999V0200901N002612200019N015000199+02551+01361101501ADDGA1011+008001061GE19AGL   +99999+99999GF101991011999008001999999MA1999999096911MD1710241+0231REMSYN06448304 32565 10905 10255 20136 39691 40150 57024 81500 333 58023=
0136483040999992019011709004+19870+099774FM-12+039799999V0203601N0000122000199015000199+02701+01751101221ADDAA103999999AZ101031AZ201031GA1041+008001061GE19AGL   +99999+99999GF104991041999008001999999MA1999999096661MD1710241+0191REMSYN004BUFR
0168483040999992019011712004+19870+099774FM-12+039799999V0203601N00001008001C9015000199+02301+01991101301ADDAA106999999AZ101061AZ201061GA1051+008001061GA2999+999999031GA3999+999999021GE19AGL   +99999+99999GF106991051999008001999999MA1999999096691MD1110021+0081REMSYN004BUFR
0185483040999992019011715004+19867+099767FM-12+040199999V0209999C000012200019N015000199+02051+01911101541ADDGA1011+008001081GA2999+999999031GE19AGL   +99999+99999GF102991011999008001999999MA1999999096881MD1210191+0061REMSYN06448304 32565 20000 10205 20191 39688 40154 52019 81140 333 58006=
0201483040999992019011718004+19867+099767FM-12+040199999V0209999C000012200019N012000199+01911+01831101591ADDGA1021+008001061GA2999+999999031GA3999+999999021GE19AGL   +99999+99999GF103991021999008001999999MA1999999096901MD1110031+0081REMSYN06448304 32562 30000 10191 20183 39690 40159 51003 82545 333 58008=
0201483040999992019011721004+19867+099767FM-12+040199999V0209999C000012200019N012000199+01831+01751101511ADDGA1021+008001061GA2999+999999031GA3999+999999021GE19AGL   +99999+99999GF104991021999008001999999MA1999999096811MD1710091+0071REMSYN06448304 32562 40000 10183 20175 39681 40151 57009 82546 333 58007=
0188483040999992019011800004+19867+099767FM-12+040199999V0209999C000012200019N012000199+01761+01681101621ADDGA1021+008001061GE19AGL   +99999+99999GF102991021999008001999999KA1120N+01731MA1999999096901MD1210091+0041REMSYN07048304 32562 20000 10176 20168 39690 40162 52009 82500 333 20173 58004=
0136483040999992019011803004+19870+099774FM-12+039799999V0203601N0000122000199015000199+02251+01811101761ADDAA103999999AZ101031AZ201031GA1011+030001031GE19AGL   +99999+99999GF101991011999030001999999MA1999999097111MD1210211-0081REMSYN004BUFR
0136483040999992019011806004+19870+099774FM-12+039799999V0201701N00151008001C9015000199+02651+01961101411ADDAA106999999AZ101061AZ201061GA1061+008001081GE19AGL   +99999+99999GF106991061999008001999999MA1999999096841MD1710271-0091REMSYN004BUFR
0152483040999992019011809004+19870+099774FM-12+039799999V0203601N0000199999999015000199+02751+01901101091ADDAA103999999AZ101031AZ201031GA1021+008001081GA2999+999999031GE19AGL   +99999+99999GF106991021999008001999999MA1999999096551MD1710291-0131REMSYN004BUFR
0207483040999992019011812004+19867+099767FM-12+040199999V0209999C000012200019N012000199+02441+02071101231ADDGA1999+999999021GE19AGL   +99999+99999GF102991001999999999999999KA1240M+02801MA1999999096631MD1210081-0081REMSYN07048304 32962 20000 10244 20207 39663 40123 52008 80005 333 10280 59008=EQDQ01    003SCCGA1
0125483040999992019011815004+19867+099767FM-12+040199999V0209999C000019999999N012000199+02001+01861101451ADDGF100995999999999999999999MA1999999096781MD1210141-0091REMSYN05848304 32962 00000 10200 20186 39678 40145 52014 333 59009=
0188483040999992019011818004+19867+099767FM-12+040199999V0209999C000012200019N010000199+01871+01771101501ADDGA1999+999999021GE19AGL   +99999+99999GF102991001999999999999999MA1999999096811MD1210031-0091REMSYN06448304 32960 20000 10187 20177 39681 40150 52003 80005 333 59009=EQDQ01    003SCCGA1
0185483040999992019011821004+19867+099767FM-12+040199999V0209999C000012200019N010000199+01761+01681101441ADDGA1021+008001061GA2999+999999031GE19AGL   +99999+99999GF102991021999008001999999MA1999999096731MD1710071-0071REMSYN06448304 32560 20000 10176 20168 39673 40144 57007 82540 333 59007=
0091483040999992019011900004+19870+099774FM-12+039799999V0203601N0000199999999000100199+01711+01681101511ADDAA106999999AY141061AY201061KA1120N+01661MA1999999096801MD1210061-0101MW1471REMSYN004BUFR
0142483040999992019011903004+19870+099774FM-12+039799999V0203601N0000122000199007000199+02021+01831101681ADDAA103999999AY141031AY221031GA1031+008001081GE19AGL   +99999+99999GF103991031999008001999999MA1999999097001MD1210201-0081MW1101REMSYN004BUFR
0142483040999992019011906004+19870+099774FM-12+039799999V0203601N0000122000199015000199+02721+01931101321ADDAA106999999AY141061AY211061GA1011+008001081GE19AGL   +99999+99999GF101991011999008001999999MA1999999096761MD1710241-0101MW1011REMSYN004BUFR
0136483040999992019011909004+19870+099774FM-12+039799999V0203601N0000122000199015000199+02921+01831100981ADDAA103999999AZ101031AZ201031GA1021+008001081GE19AGL   +99999+99999GF102991021999008001999999MA1999999096461MD1710301-0121REMSYN004BUFR
0188483040999992019011912004+19867+099767FM-12+040199999V0209999C000012200019N013000199+02341+02031101121ADDGA1011+008001081GE19AGL   +99999+99999GF101991011999008001999999KA1240M+02971MA1999999096511MD1210051-0111REMSYN07048304 32563 10000 10234 20203 39651 40112 52005 81200 333 10297 59011=
0125483040999992019011915004+19867+099767FM-12+040199999V0209999C000019999999N012000199+02021+01861101391ADDGF100995999999999999999999MA1999999096721MD1210211-0061REMSYN05848304 32962 00000 10202 20186 39672 40139 52021 333 59006=
0125483040999992019011918004+19867+099767FM-12+040199999V0209999C000019999999N012000199+01811+01711101451ADDGF100995999999999999999999MA1999999096751MD1990021-0051REMSYN05848304 32962 00000 10181 20171 39675 40145 50002 333 59005=
0125483040999992019011921004+19867+099767FM-12+040199999V0209999C000019999999N010000199+01731+01661101381ADDGF100995999999999999999999MA1999999096671MD1710081-0071REMSYN05848304 32960 00000 10173 20166 39667 40138 57008 333 59007=
0091483040999992019012000004+19870+099774FM-12+039799999V0203601N0000199999999000090199+01651+01611101561ADDAA106999999AY141061AY201061KA1120N+01591MA1999999096831MD1210161+0051MW1471REMSYN004BUFR
0142483040999992019012003004+19870+099774FM-12+039799999V0203601N0000122000199015000199+02161+01811101661ADDAA103999999AY141031AY201031GA1021+030001031GE19AGL   +99999+99999GF102991021999030001999999MA1999999097001MD1210181-0021MW1011REMSYN004BUFR
0197483040999992019012006004+19867+099767FM-12+040199999V0200801N001512200019N015000199+02791+01801101251ADDAY141021AY201021GA1021+008001081GE19AGL   +99999+99999GF102991021999008001999999MA1999999096701MD1710301-0071MW1021REMSYN07048304 31565 20803 10279 20180 39670 40125 57030 70240 82800 333 59007=
0169483040999992019012009004+19867+099767FM-12+040199999V0209999C000012200019N015000199+02901+01611100951ADDGA1021+008001061GE19AGL   +99999+99999GF102991021999008001999999MA1999999096431MD1710271-0031REMSYN06448304 32565 20000 10290 20161 39643 40095 57027 82500 333 59003=
0136483040999992019012012004+19870+099774FM-12+039799999V0203601N0000122000199015000199+02311+02051101091ADDAA106999999AZ101061AZ201061GA1999+030001001GE19AGL   +99999+99999GF102991999999030001999999MA1999999096491MD1210051-0021REMSYN004BUFR
0125483040999992019012015004+19867+099767FM-12+040199999V0209999C000019999999N015000199+01931+01751101301ADDGF100995999999999999999999MA1999999096631MD1210141-0091REMSYN05848304 32965 00000 10193 20175 39663 40130 52014 333 59009=
0125483040999992019012018004+19867+099767FM-12+040199999V0209999C000019999999N012000199+01761+01661101421ADDGF100995999999999999999999MA1999999096711MD1990091-0031REMSYN05848304 32962 00000 10176 20166 39671 40142 50009 333 59003=
0153483040999992019012021004+19867+099767FM-12+040199999V0209999C000019999999N008000199+01721+01651101431ADDAY101021AY201021GF100995999999999999999999MA1999999096711MD1410001+0051MW1101REMSYN06448304 31958 00000 10172 20165 39671 40143 54000 71000 333 58005=
0149483040999992019012100004+19870+099774FM-12+039799999V0203601N0000122000199015000199+01571+01531101651ADDAA106999999AZ101061AZ201061GA1021+008001061GE19AGL   +99999+99999GF102991021999008001999999KA1120N+01531MA1999999096901MD1210191+0091REMSYN004BUFR
0098483040999992019012103004+19870+099774FM-12+039799999V0203601N0000122000199015000199+02171+01751101741ADDAA103999999AZ101031AZ201031GF100991999999999999999999MA1999999097081MD1210181+0081REMSYN004BUFR
0098483040999992019012106004+19870+099774FM-12+039799999V0203601N0000122000199015000199+02701+01711101361ADDAA106999999AZ101061AZ201061GF100991999999999999999999MA1999999096801MD1710281+0121REMSYN004BUFR
0136483040999992019012109004+19870+099774FM-12+039799999V0203601N0000122000199015000199+02951+01581101121ADDAA103999999AZ101031AZ201031GA1011+008001061GE19AGL   +99999+99999GF101991011999008001999999MA1999999096611MD1710191+0181REMSYN004BUFR
0136483040999992019012112004+19870+099774FM-12+039799999V0203601N0000122000199015000199+02301+01991101241ADDAA106999999AZ101061AZ201061GA1011+012501061GE19AGL   +99999+99999GF101991011999012501999999MA1999999096621MD1210011+0141REMSYN004BUFR
0125483040999992019012115004+19867+099767FM-12+040199999V0209999C000019999999N015000199+01841+01641101461ADDGF100995999999999999999999MA1999999096761MD1210141+0161REMSYN05848304 32965 00000 10184 20164 39676 40146 52014 333 58016=
0125483040999992019012118004+19867+099767FM-12+040199999V0209999C000019999999N015000199+01651+01511101621ADDGF100995999999999999999999MA1999999096891MD1210131+0211REMSYN05848304 32965 00000 10165 20151 39689 40162 52013 333 58021=
0169483040999992019012121004+19867+099767FM-12+040199999V0209999C000012200019N015000199+01551+01461101551ADDGA1011+008001061GE19AGL   +99999+99999GF101991011999008001999999MA1999999096801MD1610091+0121REMSYN06448304 32565 10000 10155 20146 39680 40155 56009 81500 333 58012=
0188483040999992019012200004+19867+099767FM-12+040199999V0209999C000012200019N015000199+01451+01361101751ADDGA1021+008001061GE19AGL   +99999+99999GF102991021999008001999999KA1120N+01401MA1999999096981MD1210181+0101REMSYN07048304 32565 20000 10145 20136 39698 40175 52018 82500 333 20140 58010=
0169483040999992019012203004+19867+099767FM-12+040199999V0209999C000012200019N015000199+02051+01721101811ADDGA1021+008001061GE19AGL   +99999+99999GF102991021999008001999999MA1999999097131MD1210151+0071REMSYN06448304 32565 20000 10205 20172 39713 40181 52015 82500 333 58007=
0136483040999992019012206004+19870+099774FM-12+039799999V0200901N0026122000199015000199+02701+01751101521ADDAA106999999AZ101061AZ201061GA1011+008001061GE19AGL   +99999+99999GF101991011999008001999999MA1999999096951MD1710181+0151REMSYN004BUFR
0169483040999992019012209004+19867+099767FM-12+040199999V0209999C000012200019N015000199+02851+01741101171ADDGA1021+008001061GE19AGL   +99999+99999GF102991021999008001999999MA1999999096641MD1710311+0051REMSYN06448304 32565 20000 10285 20174 39664 40117 57031 82500 333 58005=
0098483040999992019012212004+19870+099774FM-12+039799999V0203601N0000122000199015000199+02351+02041101291ADDAA106999999AZ101061AZ201061GF100991999999999999999999MA1999999096681MD1110041+0051REMSYN004BUFR
0125483040999992019012215004+19867+099767FM-12+040199999V0209999C000019999999N015000199+02001+01841101531ADDGF100995999999999999999999MA1999999096861MD1210171+0071REMSYN05848304 32965 00000 10200 20184 39686 40153 52017 333 58007=
0169483040999992019012218004+19867+099767FM-12+040199999V0209999C000012200019N015000199+01851+01771101561ADDGA1021+008001061GE19AGL   +99999+99999GF102991021999008001999999MA1999999096861MD1110011-0061REMSYN06448304 32565 20000 10185 20177 39686 40156 51001 82500 333 59006=
0098483040999992019012221004+19870+099774FM-12+039799999V0203601N0000122000199012000199+01701+01611101501ADDAA103999999AZ101031AZ201031GF100991999999999999999999MA1999999096781MD1610081-0051REMSYN004BUFR
0188483040999992019012300004+19867+099767FM-12+040199999V0209999C000012200019N012000199+01601+01511101711ADDGA1021+008001061GE19AGL   +99999+99999GF102991021999008001999999KA1120N+01501MA1999999096971MD1210191-0041REMSYN07048304 32562 20000 10160 20151 39697 40171 52019 82500 333 20150 59004=
0142483040999992019012303004+19870+099774FM-12+039799999V0203601N0000122000199015000199+02051+01891101781ADDAA103999999AY141031AY201031GA1021+008001061GE19AGL   +99999+99999GF102991021999008001999999MA1999999097101MD1210131-0031MW1021REMSYN004BUFR
0142483040999992019012306004+19870+099774FM-12+039799999V0203601N0000122000199015000199+02751+01811101351ADDAA106999999AY141061AY201061GA1021+008001081GE19AGL   +99999+99999GF102991021999008001999999MA1999999096801MD1710301-0161MW1021REMSYN004BUFR
0136483040999992019012309004+19870+099774FM-12+039799999V0203601N0000122000199015000199+02951+01681101101ADDAA103999999AZ101031AZ201031GA1021+008001081GE19AGL   +99999+99999GF102991021999008001999999MA1999999096591MD1710211-0071REMSYN004BUFR
0098483040999992019012312004+19870+099774FM-12+039799999V0203601N0000122000199015000199+02351+01961101281ADDAA106999999AZ101061AZ201061GF100991999999999999999999MA1999999096671MD1110081-0021REMSYN004BUFR
0125483040999992019012315004+19867+099767FM-12+040199999V0209999C000019999999N012000199+02001+01791101441ADDGF100995999999999999999999MA1999999096761MD1210101-0101REMSYN05848304 32962 00000 10200 20179 39676 40144 52010 333 59010=
0125483040999992019012318004+19867+099767FM-12+040199999V0209999C000019999999N012000199+01771+01691101491ADDGF100995999999999999999999MA1999999096781MD1990011-0081REMSYN05848304 32962 00000 10177 20169 39678 40149 50001 333 59008=
0125483040999992019012321004+19867+099767FM-12+040199999V0209999C000019999999N010000199+01651+01581101451ADDGF100995999999999999999999MA1999999096731MD1710051-0051REMSYN05848304 32960 00000 10165 20158 39673 40145 57005 333 59005=
0091483040999992019012400004+19870+099774FM-12+039799999V0203601N0000199999999000090199+01501+01441101671ADDAA106999999AY141061AY201061KA1120N+01441MA1999999096911MD1210181-0041MW1471REMSYN004BUFR
0153483040999992019012403004+19867+099767FM-12+040199999V0209999C000019999999N015000199+02091+01641101791ADDAY141021AY201021GF100995999999999999999999MA1999999097111MD1210201+0011MW1011REMSYN06448304 31965 00000 10209 20164 39711 40179 52020 70140 333 58001=
0142483040999992019012406004+19870+099774FM-12+039799999V0203601N0000122000199015000199+02671+01471101441ADDAA106999999AY141061AY201061GA1011+008001061GE19AGL   +99999+99999GF101991011999008001999999MA1999999096871MD1710251+0081MW1031REMSYN004BUFR
0136483040999992019012409004+19870+099774FM-12+039799999V0203601N0000122000199015000199+02951+01471101151ADDAA103999999AZ101031AZ201031GA1011+008001081GE19AGL   +99999+99999GF101991011999008001999999MA1999999096631MD1710231+0051REMSYN004BUFR
0098483040999992019012412004+19870+099774FM-12+039799999V0203601N0000122000199015000199+02321+01881101371ADDAA106999999AZ101061AZ201061GF100991999999999999999999MA1999999096751MD1210121+0101REMSYN004BUFR
0125483040999992019012415004+19867+099767FM-12+040199999V0209999C000019999999N012000199+01901+01741101571ADDGF100995999999999999999999MA1999999096881MD1210121+0131REMSYN05848304 32962 00000 10190 20174 39688 40157 52012 333 58013=
0125483040999992019012418004+19867+099767FM-12+040199999V0209999C000019999999N010000199+01681+01581101701ADDGF100995999999999999999999MA1999999096971MD1210091+0221REMSYN05848304 32960 00000 10168 20158 39697 40170 52009 333 58022=
0125483040999992019012421004+19867+099767FM-12+040199999V0209999C000019999999N010000199+01371+01301101851ADDGF100995999999999999999999MA1999999097061MD1210091+0401REMSYN05848304 32960 00000 10137 20130 39706 40185 52009 333 58040=
0111483040999992019012500004+19870+099774FM-12+039799999V0203601N0000122000199010000199+01251+01171101841ADDAA106999999AZ101061AZ201061GF100991999999999999999999KA1120N+01211MA1999999097031MD1710041+0161REMSYN004BUFR
0125483040999992019012503004+19867+099767FM-12+040199999V0209999C000019999999N015000199+01971+01401101931ADDGF100995999999999999999999MA1999999097231MD1210211+0141REMSYN05848304 32965 00000 10197 20140 39723 40193 52021 333 58014=
0169483040999992019012506004+19867+099767FM-12+040199999V0209999C000012200019N015000199+02671+01411101551ADDGA1011+008001081GE19AGL   +99999+99999GF101991011999008001999999MA1999999096981MD1710261+0121REMSYN06448304 32565 10000 10267 20141 39698 40155 57026 81100 333 58012=
0125483040999992019012509004+19867+099767FM-12+040199999V0201201N001519999999N015000199+02941+01161101301ADDGF100995999999999999999999MA1999999096781MD1710201+0151REMSYN05848304 32965 01203 10294 20116 39678 40130 57020 333 58015=
0144483040999992019012512004+19867+099767FM-12+040199999V0209999C000019999999N013000199+02301+01591101481ADDGF100995999999999999999999KA1240M+02961MA1999999096851MD1210071+0111REMSYN06448304 32963 00000 10230 20159 39685 40148 52007 333 10296 58011=
0125483040999992019012515004+19867+099767FM-12+040199999V0209999C000019999999N012000199+01761+01521101741ADDGF100995999999999999999999MA1999999097021MD1210171+0181REMSYN05848304 32962 00000 10176 20152 39702 40174 52017 333 58018=
0125483040999992019012518004+19867+099767FM-12+040199999V0209999C000019999999N010000199+01501+01411101761ADDGF100995999999999999999999MA1999999097001MD1710021+0061REMSYN05848304 32960 00000 10150 20141 39700 40176 57002 333 58006=
0125483040999992019012521004+19867+099767FM-12+040199999V0209999C000019999999N010000199+01351+01281101781ADDGF100995999999999999999999MA1999999096991MD1410001-0071REMSYN05848304 32960 00000 10135 20128 39699 40178 54000 333 59007=
0144483040999992019012600004+19867+099767FM-12+040199999V0209999C000019999999N012000199+01201+01121101961ADDGF100995999999999999999999KA1120N+01151MA1999999097131MD1210141+0121REMSYN06448304 32962 00000 10120 20112 39713 40196 52014 333 20115 58012=
0125483040999992019012603004+19867+099767FM-12+040199999V0201601N001519999999N015000199+01931+01611102081ADDGF100995999999999999999999MA1999999097371MD1210241+0151REMSYN05848304 32965 01603 10193 20161 39737 40208 52024 333 58015=
0098483040999992019012606004+19870+099774FM-12+039799999V0201901N0015122000199015000199+02621+01611101711ADDAA106999999AZ101061AZ201061GF100991999999999999999999MA1999999097131MD1710241+0161REMSYN004BUFR
0136483040999992019012609004+19870+099774FM-12+039799999V0201401N0010122000199015000199+02921+01531101421ADDAA103999999AZ101031AZ201031GA1011+008001081GE19AGL   +99999+99999GF101991011999008001999999MA1999999096891MD1710241+0121REMSYN004BUFR
0098483040999992019012612004+19870+099774FM-12+039799999V0203601N0000122000199013000199+02351+01971101531ADDAA106999999AZ101061AZ201061GF100991999999999999999999MA1999999096911MD1210021+0051REMSYN004BUFR
0125483040999992019012615004+19867+099767FM-12+040199999V0209999C000019999999N012000199+01881+01651101771ADDGF100995999999999999999999MA1999999097071MD1210161+0031REMSYN05848304 32962 00000 10188 20165 39707 40177 52016 333 58003=
0125483040999992019012618004+19867+099767FM-12+040199999V0209999C000019999999N010000199+01621+01501101811ADDGF100995999999999999999999MA1999999097061MD1710011+0051REMSYN05848304 32960 00000 10162 20150 39706 40181 57001 333 58005=
0125483040999992019012621004+19867+099767FM-12+040199999V0209999C000019999999N010000199+01551+01461101791ADDGF100995999999999999999999MA1999999097031MD1710031+0001REMSYN05848304 32960 00000 10155 20146 39703 40179 57003 333 58000=
0220483040999992019012700004+19867+099767FM-12+040199999V0209999C000019999999N015000199+01521+01451101971ADDGA1021+012501061GA2999+999999031GA3999+999999021GE19AGL   +99999+99999GF106991021999012501999999KA1120N+01451MA1999999097201MD1210171+0021REMSYN07048304 32665 60000 10152 20145 39720 40197 52017 82546 333 20145 58002=
0188483040999992019012703004+19867+099767FM-12+040199999V0209999C000012200019N015000199+02101+01711102031ADDGA1999+999999001GE19AGL   +99999+99999GF101991001999999999999999MA1999999097351MD1210151-0051REMSYN06448304 32965 10000 10210 20171 39735 40203 52015 80001 333 59005=EQDQ01    003SCCGA1
0125483040999992019012706004+19867+099767FM-12+040199999V0209999C000019999999N015000199+02571+01531101651ADDGF100995999999999999999999MA1999999097051MD1710291-0071REMSYN05848304 32965 00000 10257 20153 39705 40165 57029 333 59007=
0136483040999992019012709004+19870+099774FM-12+039799999V0203601N0000122000199015000199+02721+01501101261ADDAA103999999AZ101031AZ201031GA1011+012501061GE19AGL   +99999+99999GF101991011999012501999999MA1999999096711MD1710341-0161REMSYN004BUFR
0188483040999992019012712004+19867+099767FM-12+040199999V0209999C000019999999N015000199+02301+02101101401ADDGA1051+999999031GE19AGL   +99999+99999GF105991051999999999999999KA1240M+02801MA1999999096781MD1210071-0131REMSYN07048304 32965 50000 10230 20210 39678 40140 52007 85050 333 10280 59013=
0169483040999992019012715004+19867+099767FM-12+040199999V0209999C000012200019N012000199+01871+01671101611ADDGA1041+008001061GE19AGL   +99999+99999GF104991041999008001999999MA1999999096911MD1210131-0171REMSYN06448304 32562 40000 10187 20167 39691 40161 52013 84500 333 59017=
0125483040999992019012718004+19867+099767FM-12+040199999V0209999C000019999999N012000199+01681+01541101671ADDGF100995999999999999999999MA1999999096941MD1110031-0141REMSYN05848304 32962 00000 10168 20154 39694 40167 51003 333 59014=
0169483040999992019012721004+19867+099767FM-12+040199999V0209999C000012200019N012000199+01551+01461101681ADDGA1041+008001061GE19AGL   +99999+99999GF104991041999008001999999MA1999999096921MD1610021-0111REMSYN06448304 32562 40000 10155 20146 39692 40168 56002 84500 333 59011=
0165483040999992019012800004+19870+099774FM-12+039799999V0203601N0000199999999015000199+01601+01511101781ADDAA106999999AZ101061AZ201061GA1041+008001061GA2999+999999021GE19AGL   +99999+99999GF106991041999008001999999KA1120N+01451MA1999999097031MD1210111-0191REMSYN004BUFR
0136483040999992019012803004+19870+099774FM-12+039799999V0203601N0000122000199015000199+02051+01721101931ADDAA103999999AZ101031AZ201031GA1041+008001061GE19AGL   +99999+99999GF104991041999008001999999MA1999999097241MD1210211-0101REMSYN004BUFR
0169483040999992019012806004+19867+099767FM-12+040199999V0209999C000012200019N015000199+02651+01591101501ADDGA1021+008001081GE19AGL   +99999+99999GF102991021999008001999999MA1999999096921MD1710321-0151REMSYN06448304 32565 20000 10265 20159 39692 40150 57032 82200 333 59015=
0169483040999992019012809004+19867+099767FM-12+040199999V0209999C000012200019N015000199+02801+01681101191ADDGA1021+008001081GE19AGL   +99999+99999GF102991021999008001999999MA1999999096651MD1710271-0081REMSYN06448304 32565 20000 10280 20168 39665 40119 57027 82200 333 59008=
0188483040999992019012812004+19867+099767FM-12+040199999V0209999C000012200019N015000199+02301+01991101281ADDGA1021+008001061GE19AGL   +99999+99999GF102991021999008001999999KA1240M+02851MA1999999096661MD1110011-0121REMSYN07048304 32565 20000 10230 20199 39666 40128 51001 82500 333 10285 59012=
0125483040999992019012815004+19867+099767FM-12+040199999V0209999C000019999999N012000199+01911+01731101561ADDGF100995999999999999999999MA1999999096871MD1210211-0041REMSYN05848304 32962 00000 10191 20173 39687 40156 52021 333 59004=
0125483040999992019012818004+19867+099767FM-12+040199999V0209999C000019999999N012000199+01751+01581101581ADDGF100995999999999999999999MA1999999096871MD1610011-0091REMSYN05848304 32962 00000 10175 20158 39687 40158 56001 333 59009=
0125483040999992019012821004+19867+099767FM-12+040199999V0209999C000019999999N012000199+01581+01511101531ADDGF100995999999999999999999MA1999999096791MD1610081-0151REMSYN05848304 32962 00000 10158 20151 39679 40153 56008 333 59015=
0091483040999992019012900004+19870+099774FM-12+039799999V0203601N0000199999999000300199+01501+01411101651ADDAA106999999AY141061AY201061KA1120N+01451MA1999999096891MD1210101-0141MW1471REMSYN004BUFR
0142483040999992019012903004+19870+099774FM-12+039799999V0203601N0000122000199012000199+02051+01721101751ADDAA103999999AY141031AY201031GA1041+008001061GE19AGL   +99999+99999GF104991041999008001999999MA1999999097071MD1210191-0181MW1011REMSYN004BUFR
0142483040999992019012906004+19870+099774FM-12+039799999V0203601N0000122000199015000199+02671+01771101381ADDAA106999999AY141061AY201061GA1011+012501061GE19AGL   +99999+99999GF101991011999012501999999MA1999999096821MD1710261-0111MW1011REMSYN004BUFR
0136483040999992019012909004+19870+099774FM-12+039799999V0203601N0000122000199015000199+02871+01421101101ADDAA103999999AZ101031AZ201031GA1011+012501061GE19AGL   +99999+99999GF101991011999012501999999MA1999999096581MD1710241-0091REMSYN004BUFR
0098483040999992019012912004+19870+099774FM-12+039799999V0203601N0000122000199015000199+02261+01931101311ADDAA106999999AZ101061AZ201061GF100991999999999999999999MA1999999096681MD1210111+0031REMSYN004BUFR
0125483040999992019012915004+19867+099767FM-12+040199999V0209999C000019999999N012000199+01981+01821101501ADDGF100995999999999999999999MA1999999096831MD1210141-0061REMSYN05848304 32962 00000 10198 20182 39683 40150 52014 333 59006=
0169483040999992019012918004+19867+099767FM-12+040199999V0209999C000012200019N010000199+01741+01621101491ADDGA1011+999999031GE19AGL   +99999+99999GF101991011999999999999999MA1999999096781MD1710051-0091REMSYN06448304 32960 10000 10174 20162 39678 40149 57005 81040 333 59009=
0125483040999992019012921004+19867+099767FM-12+040199999V0209999C000019999999N010000199+01621+01531101421ADDGF100995999999999999999999MA1999999096691MD1610091-0111REMSYN05848304 32960 00000 10162 20153 39669 40142 56009 333 59011=
0149483040999992019013000004+19870+099774FM-12+039799999V0203601N0000122000199010000199+01521+01471101641ADDAA106999999AZ101061AZ201061GA1031+008001061GE19AGL   +99999+99999GF103991031999008001999999KA1120N+01471MA1999999096891MD1210201-0011REMSYN004BUFR
0098483040999992019013003004+19870+099774FM-12+039799999V0203601N0000122000199015000199+02051+01771101791ADDAA103999999AZ101031AZ201031GF100991999999999999999999MA1999999097111MD1210231+0041REMSYN004BUFR
0136483040999992019013006004+19870+099774FM-12+039799999V0203601N0000122000199015000199+02751+01821101401ADDAA106999999AZ101061AZ201061GA1011+008001081GE19AGL   +99999+99999GF101991011999008001999999MA1999999096841MD1710271+0011REMSYN004BUFR
0136483040999992019013009004+19870+099774FM-12+039799999V0203601N0000122000199015000199+03011+01591101041ADDAA103999999AZ101031AZ201031GA1011+008001081GE19AGL   +99999+99999GF101991011999008001999999MA1999999096541MD1710301-0061REMSYN004BUFR
0098483040999992019013012004+19870+099774FM-12+039799999V0203601N0000122000199013000199+02451+02071101261ADDAA106999999AZ101061AZ201061GF100991999999999999999999MA1999999096661MD1210131-0051REMSYN004BUFR
0125483040999992019013015004+19867+099767FM-12+040199999V0209999C000019999999N012000199+02001+01841101511ADDGF100995999999999999999999MA1999999096841MD1210171+0011REMSYN05848304 32962 00000 10200 20184 39684 40151 52017 333 58001=
0125483040999992019013018004+19867+099767FM-12+040199999V0209999C000019999999N010000199+01851+01751101581ADDGF100995999999999999999999MA1999999096881MD1210041+0081REMSYN05848304 32960 00000 10185 20175 39688 40158 52004 333 58008=
0125483040999992019013021004+19867+099767FM-12+040199999V0209999C000019999999N010000199+01761+01691101531ADDGF100995999999999999999999MA1999999096821MD1710061+0111REMSYN05848304 32960 00000 10176 20169 39682 40153 57006 333 58011=
0172483040999992019013100004+19867+099767FM-12+040199999V0209999C00001000601WN000200199+01611+01521101711ADDAY141021AY201021GF109991999999999999999999KA1120N+01551MA1999999096961MD1210141+0071MW1471REMSYN07048304 31/02 90000 10161 20152 39696 40171 52014 74740 333 20155 58007=
0104483040999992019013103004+19870+099774FM-12+039799999V0203601N0000122000199006000199+02201+01781101861ADDAA103999999AY141031AY201031GF100991999999999999999999MA1999999097201MD1210241+0071MW1101REMSYN004BUFR
0197483040999992019013106004+19867+099767FM-12+040199999V0209999C000012200019N015000199+02861+01371101481ADDAY141021AY201021GA1011+008001081GE19AGL   +99999+99999GF101991011999008001999999MA1999999096941MD1710261+0091MW1031REMSYN07048304 31565 10000 10286 20137 39694 40148 57026 70340 81100 333 58009=
0098483040999992019013109004+19870+099774FM-12+039799999V0203601N0000122000199015000199+02971+01321101231ADDAA103999999AZ101031AZ201031GF100991999999999999999999MA1999999096711MD1710231+0191REMSYN004BUFR
0098483040999992019013112004+19870+099774FM-12+039799999V0203601N0000122000199012000199+02271+01871101451ADDAA106999999AZ101061AZ201061GF100991999999999999999999MA1999999096821MD1210111+0191REMSYN004BUFR
0125483040999992019013115004+19867+099767FM-12+040199999V0209999C000019999999N012000199+01781+01591101701ADDGF100995999999999999999999MA1999999096981MD1210171+0191REMSYN05848304 32962 00000 10178 20159 39698 40170 52017 333 58019=
0125483040999992019013118004+19867+099767FM-12+040199999V0209999C000019999999N012000199+01601+01441101781ADDGF100995999999999999999999MA1999999097031MD1110051+0201REMSYN05848304 32962 00000 10160 20144 39703 40178 51005 333 58020=
0125483040999992019013121004+19867+099767FM-12+040199999V0209999C000019999999N012000199+01451+01361101701ADDGF100995999999999999999999MA1999999096931MD1710101+0171REMSYN05848304 32962 00000 10145 20136 39693 40170 57010 333 58017=
0144483040999992019020100004+19867+099767FM-12+040199999V0209999C000019999999N012000199+01371+01331101811ADDGF100995999999999999999999KA1120N+01301MA1999999097021MD1110091+0101REMSYN06448304 32962 00000 10137 20133 39702 40181 51009 333 20130 58010=
0098483040999992019020103004+19870+099774FM-12+039799999V0203601N0000122000199015000199+02101+01601101891ADDAA103999999AZ101031AZ201031GF100991999999999999999999MA1999999097221MD1210191+0031REMSYN004BUFR
0098483040999992019020106004+19870+099774FM-12+039799999V0203601N0000122000199015000199+02801+01481101441ADDAA106999999AZ101061AZ201061GF100991999999999999999999MA1999999096891MD1710331-0041REMSYN004BUFR
0136483040999992019020109004+19870+099774FM-12+039799999V0203601N0000122000199015000199+02951+01471101151ADDAA103999999AZ101031AZ201031GA1011+012501061GE19AGL   +99999+99999GF101991011999012501999999MA1999999096641MD1710251-0081REMSYN004BUFR
0136483040999992019020112004+19870+099774FM-12+039799999V0203601N0000122000199015000199+02361+01951101271ADDAA106999999AZ101061AZ201061GA1011+012501061GE19AGL   +99999+99999GF101991011999012501999999MA1999999096661MD1110021-0181REMSYN004BUFR
0125483040999992019020115004+19867+099767FM-12+040199999V0209999C000019999999N012000199+01871+01671101561ADDGF100995999999999999999999MA1999999096861MD1210211-0141REMSYN05848304 32962 00000 10187 20167 39686 40156 52021 333 59014=
0125483040999992019020118004+19867+099767FM-12+040199999V0209999C000019999999N012000199+01681+01541101551ADDGF100995999999999999999999MA1999999096831MD1610041-0231REMSYN05848304 32962 00000 10168 20154 39683 40155 56004 333 59023=
0125483040999992019020121004+19867+099767FM-12+040199999V0209999C000019999999N012000199+01551+01461101451ADDGF100995999999999999999999MA1999999096701MD1710121-0261REMSYN05848304 32962 00000 10155 20146 39670 40145 57012 333 59026=
0144483040999992019020200004+19867+099767FM-12+040199999V0209999C000019999999N015000199+01471+01381101511ADDGF100995999999999999999999KA1120N+01401MA1999999096761MD1110051-0301REMSYN06448304 32965 00000 10147 20138 39676 40151 51005 333 20140 59030=
0125483040999992019020203004+19867+099767FM-12+040199999V0209999C000019999999N015000199+02101+01651101651ADDGF100995999999999999999999MA1999999096981MD1210231-0251REMSYN05848304 32965 00000 10210 20165 39698 40165 52023 333 59025=
0136483040999992019020206004+19870+099774FM-12+039799999V0203601N0000122000199015000199+02701+01651101231ADDAA106999999AZ101061AZ201061GA1011+012501061GE19AGL   +99999+99999GF101991011999012501999999MA1999999096681MD1710301-0211REMSYN004BUFR
0169483040999992019020209004+19867+099767FM-12+040199999V0209999C000012200019N015000199+03001+01741100911ADDGA1021+012501061GE19AGL   +99999+99999GF102991021999012501999999MA1999999096411MD1710271-0251REMSYN06448304 32665 20000 10300 20174 39641 40091 57027 82500 333 59025=
0136483040999992019020212004+19870+099774FM-12+039799999V0203601N0000122000199015000199+02411+02091101081ADDAA106999999AZ101061AZ201061GA1011+012501061GE19AGL   +99999+99999GF101991011999012501999999MA1999999096491MD1110081-0191REMSYN004BUFR
0125483040999992019020215004+19867+099767FM-12+040199999V0209999C000019999999N012000199+02101+01941101261ADDGF100995999999999999999999MA1999999096611MD1210121-0311REMSYN05848304 32962 00000 10210 20194 39661 40126 52012 333 59031=
0125483040999992019020218004+19867+099767FM-12+040199999V0209999C000019999999N012000199+01881+01751101391ADDGF100995999999999999999999MA1999999096701MD1990091-0171REMSYN05848304 32962 00000 10188 20175 39670 40139 50009 333 59017=
0125483040999992019020221004+19867+099767FM-12+040199999V0209999C000019999999N010000199+01691+01591101371ADDGF100995999999999999999999MA1999999096651MD1710041-0081REMSYN05848304 32960 00000 10169 20159 39665 40137 57004 333 59008=
0172483040999992019020300004+19867+099767FM-12+040199999V0209999C00001000001WN000000199+01551+01501101631ADDAY141021AY241021GF109991999999999999999999KA1120N+01501MA1999999096881MD1210231+0121MW1471REMSYN07048304 31/00 90000 10155 20150 39688 40163 52023 74744 333 20150 58012=
0104483040999992019020303004+19870+099774FM-12+039799999V0203601N0000122000199015000199+02301+01921101731ADDAA103999999AY141031AY201031GF100991999999999999999999MA1999999097091MD1210211+0081MW1011REMSYN004BUFR
0153483040999992019020306004+19867+099767FM-12+040199999V0209999C000019999999N015000199+02921+01561101381ADDAY141021AY201021GF100995999999999999999999MA1999999096851MD1710251+0141MW1021REMSYN06448304 31965 00000 10292 20156 39685 40138 57025 70240 333 58014=
0098483040999992019020309004+19870+099774FM-12+039799999V0203601N0000122000199015000199+03101+01321101031ADDAA103999999AZ101031AZ201031GF100991999999999999999999MA1999999096541MD1710301+0131REMSYN004BUFR
0098483040999992019020312004+19870+099774FM-12+039799999V0203601N0000122000199015000199+02501+02041101261ADDAA106999999AZ101061AZ201061GF100991999999999999999999MA1999999096681MD1210131+0191REMSYN004BUFR
0125483040999992019020315004+19867+099767FM-12+040199999V0209999C000019999999N015000199+01921+01651101551ADDGF100995999999999999999999MA1999999096861MD1210191+0291REMSYN05848304 32965 00000 10192 20165 39686 40155 52019 333 58029=
0125483040999992019020318004+19867+099767FM-12+040199999V0209999C000019999999N012000199+01641+01501101621ADDGF100995999999999999999999MA1999999096881MD1990021+0231REMSYN05848304 32962 00000 10164 20150 39688 40162 50002 333 58023=
0153483040999992019020321004+19867+099767FM-12+040199999V0209999C000019999999N006000199+01491+01401101581ADDAY101021AY201021GF100995999999999999999999MA1999999096821MD1710061+0211MW1101REMSYN06448304 31956 00000 10149 20140 39682 40158 57006 71000 333 58021=
0172483040999992019020400004+19867+099767FM-12+040199999V0209999C000019999999N002000199+01391+01331101751ADDAY101021AY201021GF100995999999999999999999KA1120N+01331MA1999999096971MD1210141+0121MW1101REMSYN07048304 31920 00000 10139 20133 39697 40175 52014 71000 333 20133 58012=
0098483040999992019020403004+19870+099774FM-12+039799999V0203601N0000122000199015000199+02101+01471101851ADDAA103999999AZ101031AZ201031GF100991999999999999999999MA1999999097181MD1210211+0121REMSYN004BUFR
0098483040999992019020406004+19870+099774FM-12+039799999V0203601N0000122000199015000199+02801+01371101331ADDAA106999999AZ101061AZ201061GF100991999999999999999999MA1999999096791MD1710391-0041REMSYN004BUFR
0098483040999992019020409004+19870+099774FM-12+039799999V0203601N0000122000199015000199+03151+01221101071ADDAA103999999AZ101031AZ201031GF100991999999999999999999MA1999999096591MD1710201+0041REMSYN004BUFR
0098483040999992019020412004+19870+099774FM-12+039799999V0203601N0000122000199015000199+02411+01841101231ADDAA106999999AZ101061AZ201061GF100991999999999999999999MA1999999096631MD1210041-0041REMSYN004BUFR
0125483040999992019020415004+19867+099767FM-12+040199999V0209999C000019999999N012000199+01971+01741101441ADDGF100995999999999999999999MA1999999096771MD1210141-0111REMSYN05848304 32962 00000 10197 20174 39677 40144 52014 333 59011=
0125483040999992019020418004+19867+099767FM-12+040199999V0209999C000019999999N010000199+01691+01531101531ADDGF100995999999999999999999MA1999999096801MD1210041-0091REMSYN05848304 32960 00000 10169 20153 39680 40153 52004 333 59009=
0125483040999992019020421004+19867+099767FM-12+040199999V0209999C000019999999N010000199+01461+01351101541ADDGF100995999999999999999999MA1999999096771MD1610031-0051REMSYN05848304 32960 00000 10146 20135 39677 40154 56003 333 59005=
0111483040999992019020500004+19870+099774FM-12+039799999V0203601N0000122000199012000199+01311+01221101711ADDAA106999999AZ101061AZ201061GF100991999999999999999999KA1120N+01261MA1999999096921MD1210141-0041REMSYN004BUFR
0098483040999992019020503004+19870+099774FM-12+039799999V0203601N0000122000199015000199+02071+01491101791ADDAA103999999AZ101031AZ201031GF100991999999999999999999MA1999999097111MD1210191-0071REMSYN004BUFR
0125483040999992019020506004+19867+099767FM-12+040199999V0209999C000019999999N015000199+02831+01371101411ADDGF100995999999999999999999MA1999999096861MD1710251+0081REMSYN05848304 32965 00000 10283 20137 39686 40141 57025 333 58008=
0125483040999992019020509004+19867+099767FM-12+040199999V0200501N001019999999N015000199+03091+00861101051ADDGF100995999999999999999999MA1999999096561MD1710301-0021REMSYN05848304 32965 00502 10309 20086 39656 40105 57030 333 59002=
0144483040999992019020512004+19867+099767FM-12+040199999V0209999C000019999999N013000199+02321+01721101191ADDGF100995999999999999999999KA1240M+03131MA1999999096581MD1210011-0041REMSYN06448304 32963 00000 10232 20172 39658 40119 52001 333 10313 59004=
0125483040999992019020515004+19867+099767FM-12+040199999V0209999C000019999999N010000199+01781+01561101411ADDGF100995999999999999999999MA1999999096701MD1210131-0031REMSYN05848304 32960 00000 10178 20156 39670 40141 52013 333 59003=
0125483040999992019020518004+19867+099767FM-12+040199999V0209999C000019999999N010000199+01451+01341101461ADDGF100995999999999999999999MA1999999096701MD1410001-0071REMSYN05848304 32960 00000 10145 20134 39670 40146 54000 333 59007=
0125483040999992019020521004+19867+099767FM-12+040199999V0209999C000019999999N010000199+01261+01161101421ADDGF100995999999999999999999MA1999999096641MD1710061-0111REMSYN05848304 32960 00000 10126 20116 39664 40142 57006 333 59011=
0111483040999992019020600004+19870+099774FM-12+039799999V0203601N0000122000199010000199+01101+01031101431ADDAA106999999AZ101061AZ201061GF100991999999999999999999KA1120N+01041MA1999999096621MD1610021-0281REMSYN004BUFR
0125483040999992019020603004+19867+099767FM-12+040199999V0209999C000019999999N015000199+01961+01271101551ADDGF100995999999999999999999MA1999999096871MD1210251-0231REMSYN05848304 32965 00000 10196 20127 39687 40155 52025 333 59023=
0125483040999992019020606004+19867+099767FM-12+040199999V0201101N001019999999N015000199+02711+01131101181ADDGF100995999999999999999999MA1999999096631MD1710241-0231REMSYN05848304 32965 01102 10271 20113 39663 40118 57024 333 59023=
0098483040999992019020609004+19870+099774FM-12+039799999V0200101N0015122000199015000199+03061+01181100821ADDAA103999999AZ101031AZ201031GF100991999999999999999999MA1999999096341MD1710291-0231REMSYN004BUFR
0098483040999992019020612004+19870+099774FM-12+039799999V0203601N0000122000199013000199+02301+01861100991ADDAA106999999AZ101061AZ201061GF100991999999999999999999MA1999999096391MD1210051-0201REMSYN004BUFR
0125483040999992019020615004+19867+099767FM-12+040199999V0209999C000019999999N012000199+01901+01631101241ADDGF100995999999999999999999MA1999999096561MD1210181-0171REMSYN05848304 32962 00000 10190 20163 39656 40124 52018 333 59017=
0125483040999992019020618004+19867+099767FM-12+040199999V0209999C000019999999N012000199+01601+01501101341ADDGF100995999999999999999999MA1999999096611MD1990051-0121REMSYN05848304 32962 00000 10160 20150 39661 40134 50005 333 59012=
0125483040999992019020621004+19867+099767FM-12+040199999V0209999C000019999999N010000199+01411+01341101271ADDGF100995999999999999999999MA1999999096511MD1710101-0161REMSYN05848304 32960 00000 10141 20134 39651 40127 57010 333 59016=
0144483040999992019020700004+19867+099767FM-12+040199999V0209999C000019999999N010000199+01241+01181101511ADDGF100995999999999999999999KA1120N+01191MA1999999096711MD1210201+0071REMSYN06448304 32960 00000 10124 20118 39671 40151 52020 333 20119 58007=
0125483040999992019020703004+19867+099767FM-12+040199999V0209999C000019999999N015000199+02101+01471101631ADDGF100995999999999999999999MA1999999096971MD1210261+0081REMSYN05848304 32965 00000 10210 20147 39697 40163 52026 333 58008=
0098483040999992019020706004+19870+099774FM-12+039799999V0203601N0000122000199015000199+02851+01411101261ADDAA106999999AZ101061AZ201061GF100991999999999999999999MA1999999096721MD1710251+0071REMSYN004BUFR
0098483040999992019020709004+19870+099774FM-12+039799999V0203601N0000122000199015000199+03161+01421100951ADDAA103999999AZ101031AZ201031GF100991999999999999999999MA1999999096471MD1710251+0131REMSYN004BUFR
0098483040999992019020712004+19870+099774FM-12+039799999V0203601N0000122000199015000199+02421+01831101081ADDAA106999999AZ101061AZ201061GF100991999999999999999999MA1999999096491MD1210021+0091REMSYN004BUFR
0125483040999992019020715004+19867+099767FM-12+040199999V0209999C000019999999N015000199+01981+01751101401ADDGF100995999999999999999999MA1999999096721MD1210231+0161REMSYN05848304 32965 00000 10198 20175 39672 40140 52023 333 58016=
0125483040999992019020718004+19867+099767FM-12+040199999V0209999C000019999999N012000199+01621+01521101471ADDGF100995999999999999999999MA1999999096741MD1990011+0131REMSYN05848304 32962 00000 10162 20152 39674 40147 50001 333 58013=
0125483040999992019020721004+19867+099767FM-12+040199999V0209999C000019999999N010000199+01461+01391101411ADDGF100995999999999999999999MA1999999096651MD1710091+0141REMSYN05848304 32960 00000 10146 20139 39665 40141 57009 333 58014=
0172483040999992019020800004+19867+099767FM-12+040199999V0209999C000019999999N003000199+01301+01241101561ADDAY101021AY201021GF100995999999999999999999KA1120N+01241MA1999999096771MD1210121+0061MW1101REMSYN07048304 31930 00000 10130 20124 39677 40156 52012 71000 333 20124 58006=
0125483040999992019020803004+19867+099767FM-12+040199999V0202201N001519999999N010000199+02151+01551101661ADDGF100995999999999999999999MA1999999097011MD1210231+0031REMSYN05848304 32960 02203 10215 20155 39701 40166 52023 333 58003=
0098483040999992019020806004+19870+099774FM-12+039799999V0203601N0000122000199015000199+02901+01421101241ADDAA106999999AZ101061AZ201061GF100991999999999999999999MA1999999096711MD1710291-0021REMSYN004BUFR
0125483040999992019020809004+19867+099767FM-12+040199999V0209999C000019999999N015000199+03151+01191100911ADDGF100995999999999999999999MA1999999096431MD1710281-0041REMSYN05848304 32965 00000 10315 20119 39643 40091 57028 333 59004=
0144483040999992019020812004+19867+099767FM-12+040199999V0209999C000019999999N015000199+02351+01881101121ADDGF100995999999999999999999KA1240M+03201MA1999999096521MD1110091+0041REMSYN06448304 32965 00000 10235 20188 39652 40112 51009 333 10320 58004=
0125483040999992019020815004+19867+099767FM-12+040199999V0209999C000019999999N015000199+01801+01541101341ADDGF100995999999999999999999MA1999999096651MD1210131-0051REMSYN05848304 32965 00000 10180 20154 39665 40134 52013 333 59005=
0125483040999992019020818004+19867+099767FM-12+040199999V0209999C000019999999N012000199+01551+01371101441ADDGF100995999999999999999999MA1999999096691MD1110051-0031REMSYN05848304 32962 00000 10155 20137 39669 40144 51005 333 59003=
0125483040999992019020821004+19867+099767FM-12+040199999V0209999C000019999999N012000199+01351+01261101381ADDGF100995999999999999999999MA1999999096601MD1610091-0031REMSYN05848304 32962 00000 10135 20126 39660 40138 56009 333 59003=
0117483040999992019020900004+19870+099774FM-12+039799999V0203601N0000122000199000500199+01201+01101101591ADDAA106999999AY141061AY201061GF100991999999999999999999KA1120N+01101MA1999999096781MD1210181+0031MW1471REMSYN004BUFR
0104483040999992019020903004+19870+099774FM-12+039799999V0203601N0000122000199015000199+02051+01451101691ADDAA103999999AY141031AY201031GF100991999999999999999999MA1999999097011MD1210231+0021MW1021REMSYN004BUFR
0104483040999992019020906004+19870+099774FM-12+039799999V0203601N0000122000199015000199+02801+01481101291ADDAA106999999AY141061AY201061GF100991999999999999999999MA1999999096751MD1710261+0051MW1021REMSYN004BUFR
0098483040999992019020909004+19870+099774FM-12+039799999V0203601N0000122000199015000199+03151+01311100961ADDAA103999999AZ101031AZ201031GF100991999999999999999999MA1999999096481MD1710261+0051REMSYN004BUFR
0098483040999992019020912004+19870+099774FM-12+039799999V0203601N0000122000199015000199+02421+01971101151ADDAA106999999AZ101061AZ201061GF100991999999999999999999MA1999999096561MD1110081+0031REMSYN004BUFR
0125483040999992019020915004+19867+099767FM-12+040199999V0209999C000019999999N012000199+01831+01611101431ADDGF100995999999999999999999MA1999999096731MD1210171+0081REMSYN05848304 32962 00000 10183 20161 39673 40143 52017 333 58008=
0125483040999992019020918004+19867+099767FM-12+040199999V0209999C000019999999N012000199+01581+01441101441ADDGF100995999999999999999999MA1999999096701MD1610031+0001REMSYN05848304 32962 00000 10158 20144 39670 40144 56003 333 58000=
0125483040999992019020921004+19867+099767FM-12+040199999V0209999C000019999999N012000199+01401+01311101441ADDGF100995999999999999999999MA1999999096681MD1610021+0071REMSYN05848304 32962 00000 10140 20131 39668 40144 56002 333 58007=
0144483040999992019021000004+19867+099767FM-12+040199999V0209999C000019999999N012000199+01251+01151101631ADDGF100995999999999999999999KA1120N+01141MA1999999096831MD1210161+0051REMSYN06448304 32962 00000 10125 20115 39683 40163 52016 333 20114 58005=
0098483040999992019021003004+19870+099774FM-12+039799999V0203601N0000122000199015000199+02151+01471101711ADDAA103999999AZ101031AZ201031GF100991999999999999999999MA1999999097051MD1210211+0021REMSYN004BUFR
0125483040999992019021006004+19867+099767FM-12+040199999V0200801N002619999999N015000199+02901+01401101361ADDGF100995999999999999999999MA1999999096821MD1710221+0061REMSYN05848304 32965 00805 10290 20140 39682 40136 57022 333 58006=
0098483040999992019021009004+19870+099774FM-12+039799999V0203601N0000122000199015000199+03201+01391101051ADDAA103999999AZ101031AZ201031GF100991999999999999999999MA1999999096581MD1710251+0091REMSYN004BUFR
0098483040999992019021012004+19870+099774FM-12+039799999V0203601N0000122000199015000199+02451+01991101271ADDAA106999999AZ101061AZ201061GF100991999999999999999999MA1999999096681MD1210101+0121REMSYN004BUFR
0125483040999992019021015004+19867+099767FM-12+040199999V0209999C000019999999N012000199+02021+01831101521ADDGF100995999999999999999999MA1999999096851MD1210181+0101REMSYN05848304 32962 00000 10202 20183 39685 40152 52018 333 58010=
0125483040999992019021018004+19867+099767FM-12+040199999V0209999C000019999999N012000199+01661+01521101591ADDGF100995999999999999999999MA1999999096851MD1410001+0151REMSYN05848304 32962 00000 10166 20152 39685 40159 54000 333 58015=
0125483040999992019021021004+19867+099767FM-12+040199999V0209999C000019999999N012000199+01501+01391101581ADDGF100995999999999999999999MA1999999096831MD1610031+0141REMSYN05848304 32962 00000 10150 20139 39683 40158 56003 333 58014=
0204483040999992019021100004+19867+099767FM-12+040199999V0209999C000012200019N012000199+01441+01371101761ADDGA1011+008001061GA2999+999999031GE19AGL   +99999+99999GF101991011999008001999999KA1120N+01381MA1999999096981MD1210161+0121REMSYN07048304 32562 10000 10144 20137 39698 40176 52016 81540 333 20138 58012=
0098483040999992019021103004+19870+099774FM-12+039799999V0203601N0000122000199015000199+02161+01611101841ADDAA103999999AZ101031AZ201031GF100991999999999999999999MA1999999097171MD1210191+0131REMSYN004BUFR
0098483040999992019021106004+19870+099774FM-12+039799999V0203601N0000122000199015000199+02861+01681101491ADDAA106999999AZ101061AZ201061GF100991999999999999999999MA1999999096951MD1710231+0141REMSYN004BUFR
0136483040999992019021109004+19870+099774FM-12+039799999V0201401N0015122000199015000199+03151+01801101151ADDAA103999999AZ101031AZ201031GA1021+030001031GE19AGL   +99999+99999GF102991021999030001999999MA1999999096671MD1710281+0101REMSYN004BUFR
0188483040999992019021112004+19867+099767FM-12+040199999V0209999C000012200019N015000199+02491+02061101291ADDGA1021+999999031GE19AGL   +99999+99999GF102991021999999999999999KA1240M+03151MA1999999096701MD1210041+0021REMSYN07048304 32965 20000 10249 20206 39670 40129 52004 82040 333 10315 58002=
0125483040999992019021115004+19867+099767FM-12+040199999V0209999C000019999999N012000199+02091+01881101551ADDGF100995999999999999999999MA1999999096891MD1210191+0031REMSYN05848304 32962 00000 10209 20188 39689 40155 52019 333 58003=
0125483040999992019021118004+19867+099767FM-12+040199999V0209999C000019999999N010000199+01831+01711101661ADDGF100995999999999999999999MA1999999096961MD1990071+0081REMSYN05848304 32960 00000 10183 20171 39696 40166 50007 333 58008=
0125483040999992019021121004+19867+099767FM-12+040199999V0209999C000019999999N010000199+01681+01581101621ADDGF100995999999999999999999MA1999999096891MD1710061+0041REMSYN05848304 32960 00000 10168 20158 39689 40162 57006 333 58004=
0235483040999992019021200004+19867+099767FM-12+040199999V0209999C000012200019N003000199+01621+01531101851ADDAY101021AY201021GA1999+999999001GE19AGL   +99999+99999GF102991001999999999999999KA1120N+01571MA1999999097101MD1210211+0091MW1101REMSYN07648304 31930 20000 10162 20153 39710 40185 52021 71000 80001 333 20157 58009=EQDQ01    003SCCGA1
0104483040999992019021203004+19870+099774FM-12+039799999V0203601N0000122000199006000199+02101+01781102051ADDAA103999999AY101031AY201031GF100991999999999999999999MA1999999097361MD1210261+0211MW1101REMSYN004BUFR
0125483040999992019021206004+19867+099767FM-12+040199999V0209999C000019999999N012000199+02851+01941101661ADDGF100995999999999999999999MA1999999097101MD1710261+0161REMSYN05848304 32962 00000 10285 20194 39710 40166 57026 333 58016=
0098483040999992019021209004+19870+099774FM-12+039799999V0203601N0000122000199012000199+03101+02051101321ADDAA103999999AZ101031AZ201031GF100991999999999999999999MA1999999096821MD1710291+0161REMSYN004BUFR
0235483040999992019021212004+19867+099767FM-12+040199999V0209999C000019999999N008000199+02711+02161101491ADDAY111021AY211021GA1999+999999021GE19AGL   +99999+99999GF105991001999999999999999KA1240M+03121MA1999999096931MD1210111+0201MW1101REMSYN07648304 31958 50000 10271 20216 39693 40149 52011 71011 80006 333 10312 58020=EQDQ01    003SCCGA1
0153483040999992019021215004+19867+099767FM-12+040199999V0209999C000019999999N004000199+02301+02091101761ADDAY101021AY201021GF100995999999999999999999MA1999999097121MD1210201+0211MW1101REMSYN06448304 31940 00000 10230 20209 39712 40176 52020 71000 333 58021=
0216483040999992019021218004+19867+099767FM-12+040199999V0209999C000012200019N003000199+02191+02051101761ADDAY101021AY201021GA1999+999999001GE19AGL   +99999+99999GF102991001999999999999999MA1999999097101MD1710021+0101MW1101REMSYN07048304 31930 20000 10219 20205 39710 40176 57002 71000 80001 333 58010=EQDQ01    003SCCGA1
0153483040999992019021221004+19867+099767FM-12+040199999V0209999C000019999999N002000199+02021+01921101781ADDAY101021AY201021GF100995999999999999999999MA1999999097101MD1710011+0161MW1101REMSYN06448304 31920 00000 10202 20192 39710 40178 57001 71000 333 58016=
0172483040999992019021300004+19867+099767FM-12+040199999V0209999C00001000001WN000000199+01901+01821101831ADDAY141021AY241021GF109991999999999999999999KA1120N+01851MA1999999097121MD1210031-0021MW1471REMSYN07048304 31/00 90000 10190 20182 39712 40183 52003 74744 333 20185 59002=
0104483040999992019021303004+19870+099774FM-12+039799999V0203601N0000122000199012000199+02451+02101101871ADDAA103999999AY141031AY201031GF100991999999999999999999MA1999999097251MD1210131-0181MW1011REMSYN004BUFR
0142483040999992019021306004+19870+099774FM-12+039799999V0201401N0026122000199012000199+03101+01961101411ADDAA106999999AY141061AY201061GA1011+008001081GE19AGL   +99999+99999GF101991011999008001999999MA1999999096901MD1710351-0251MW1031REMSYN004BUFR
0136483040999992019021309004+19870+099774FM-12+039799999V0203601N0000122000199012000199+03251+01671101091ADDAA103999999AZ101031AZ201031GA1011+008001081GE19AGL   +99999+99999GF101991011999008001999999MA1999999096621MD1710281-0221REMSYN004BUFR
0144483040999992019021312004+19867+099767FM-12+040199999V0209999C000019999999N010000199+02551+02171101301ADDGF100995999999999999999999KA1240M+03281MA1999999096721MD1210101-0191REMSYN06448304 32960 00000 10255 20217 39672 40130 52010 333 10328 59019=
0125483040999992019021315004+19867+099767FM-12+040199999V0209999C000019999999N010000199+02171+01971101541ADDGF100995999999999999999999MA1999999096891MD1210161-0231REMSYN05848304 32960 00000 10217 20197 39689 40154 52016 333 59023=
0125483040999992019021318004+19867+099767FM-12+040199999V0209999C000019999999N010000199+01901+01771101531ADDGF100995999999999999999999MA1999999096841MD1610051-0231REMSYN05848304 32960 00000 10190 20177 39684 40153 56005 333 59023=
0125483040999992019021321004+19867+099767FM-12+040199999V0209999C000019999999N010000199+01751+01651101471ADDGF100995999999999999999999MA1999999096761MD1710081-0311REMSYN05848304 32960 00000 10175 20165 39676 40147 57008 333 59031=
0144483040999992019021400004+19867+099767FM-12+040199999V0209999C000019999999N010000199+01611+01521101591ADDGF100995999999999999999999KA1120N+01561MA1999999096851MD1210091-0241REMSYN06448304 32960 00000 10161 20152 39685 40159 52009 333 20156 59024=
0098483040999992019021403004+19870+099774FM-12+039799999V0203601N0000122000199012000199+02321+01641101651ADDAA103999999AZ101031AZ201031GF100991999999999999999999MA1999999097021MD1210161-0221REMSYN004BUFR
0169483040999992019021406004+19867+099767FM-12+040199999V0209999C000012200019N012000199+03031+01641101241ADDGA1011+008001081GE19AGL   +99999+99999GF101991011999008001999999MA1999999096731MD1710291-0171REMSYN06448304 32562 10000 10303 20164 39673 40124 57029 81100 333 59017=
0098483040999992019021409004+19870+099774FM-12+039799999V0203601N0000122000199012000199+03271+01681100881ADDAA103999999AZ101031AZ201031GF100991999999999999999999MA1999999096421MD1710311-0211REMSYN004BUFR
0098483040999992019021412004+19870+099774FM-12+039799999V0203601N0000122000199010000199+02711+02191101061ADDAA106999999AZ101061AZ201061GF100991999999999999999999MA1999999096521MD1210101-0241REMSYN004BUFR
0125483040999992019021415004+19867+099767FM-12+040199999V0209999C000019999999N010000199+02131+01921101331ADDGF100995999999999999999999MA1999999096691MD1210171-0201REMSYN05848304 32960 00000 10213 20192 39669 40133 52017 333 59020=
0125483040999992019021418004+19867+099767FM-12+040199999V0209999C000019999999N010000199+01901+01741101411ADDGF100995999999999999999999MA1999999096721MD1110041-0131REMSYN05848304 32960 00000 10190 20174 39672 40141 51004 333 59013=
0125483040999992019021421004+19867+099767FM-12+040199999V0209999C000019999999N010000199+01701+01611101371ADDGF100995999999999999999999MA1999999096651MD1610071-0101REMSYN05848304 32960 00000 10170 20161 39665 40137 56007 333 59010=
0144483040999992019021500004+19867+099767FM-12+040199999V0209999C000019999999N012000199+01601+01511101591ADDGF100995999999999999999999KA1120N+01451MA1999999096851MD1210201+0001REMSYN06448304 32962 00000 10160 20151 39685 40159 52020 333 20145 58000=
0188483040999992019021503004+19867+099767FM-12+040199999V0209999C000012200019N015000199+02201+01801101641ADDGA1999+999999021GE19AGL   +99999+99999GF102991001999999999999999MA1999999096991MD1210131-0011REMSYN06448304 32965 20000 10220 20180 39699 40164 52013 80005 333 59001=EQDQ01    003SCCGA1
0136483040999992019021506004+19870+099774FM-12+039799999V0203601N0000122000199015000199+03001+01741101241ADDAA106999999AZ101061AZ201061GA1999+030001021GE19AGL   +99999+99999GF103991999999030001999999MA1999999096731MD1710261+0001REMSYN004BUFR
0136483040999992019021509004+19870+099774FM-12+039799999V0200801N0026122000199015000199+03251+01871100961ADDAA103999999AZ101031AZ201031GA1999+030001021GE19AGL   +99999+99999GF103991999999030001999999MA1999999096491MD1710241+0081REMSYN004BUFR
0152483040999992019021512004+19870+099774FM-12+039799999V0203601N0000122000199015000199+02621+02211101081ADDAA106999999AZ101061AZ201061GA1011+008001061GA2999+999999021GE19AGL   +99999+99999GF103991011999008001999999MA1999999096521MD1110031+0021REMSYN004BUFR
0125483040999992019021515004+19867+099767FM-12+040199999V0209999C000019999999N012000199+02251+02021101381ADDGF100995999999999999999999MA1999999096751MD1210221+0051REMSYN05848304 32962 00000 10225 20202 39675 40138 52022 333 58005=
0188483040999992019021518004+19867+099767FM-12+040199999V0209999C000012200019N012000199+02071+01961101471ADDGA1999+999999021GE19AGL   +99999+99999GF101991001999999999999999MA1999999096811MD1110061+0071REMSYN06448304 32962 10000 10207 20196 39681 40147 51006 80005 333 58007=EQDQ01    003SCCGA1
0125483040999992019021521004+19867+099767FM-12+040199999V0209999C000019999999N010000199+01941+01831101371ADDGF100995999999999999999999MA1999999096691MD1710121+0001REMSYN05848304 32960 00000 10194 20183 39669 40137 57012 333 58000=
0188483040999992019021600004+19867+099767FM-12+040199999V0209999C000012200019N012000199+01851+01771101501ADDGA1021+999999031GE19AGL   +99999+99999GF102991021999999999999999KA1120N+01801MA1999999096811MD1210121-0091REMSYN07048304 32962 20000 10185 20177 39681 40150 52012 82040 333 20180 59009=
0188483040999992019021603004+19867+099767FM-12+040199999V0209999C000012200019N012000199+02451+01991101561ADDGA1999+999999021GE19AGL   +99999+99999GF103991001999999999999999MA1999999096951MD1210151-0071REMSYN06448304 32962 30000 10245 20199 39695 40156 52015 80006 333 59007=EQDQ01    003SCCGA1
0152483040999992019021606004+19870+099774FM-12+039799999V0203601N0000199999999012000199+03001+02031101131ADDAA106999999AZ101061AZ201061GA1031+008001061GA2999+999999021GE19AGL   +99999+99999GF106991031999008001999999MA1999999096621MD1710331-0111REMSYN004BUFR
0185483040999992019021609004+19867+099767FM-12+040199999V0209999C000019999999N012000199+03201+02081100871ADDGA1031+008001061GA2999+999999021GE19AGL   +99999+99999GF106991031999008001999999MA1999999096401MD1710221-0091REMSYN06448304 32562 60000 10320 20208 39640 40087 57022 83506 333 59009=
0207483040999992019021612004+19867+099767FM-12+040199999V0209999C000012200019N012000199+02651+01961100821ADDGA1999+999999021GE19AGL   +99999+99999GF103991001999999999999999KA1240M+03251MA1999999096271MD1710131-0271REMSYN07048304 32962 30000 10265 20196 39627 40082 57013 80006 333 10325 59027=EQDQ01    003SCCGA1
0169483040999992019021615004+19867+099767FM-12+040199999V0209999C000012200019N010000199+02231+02031101071ADDGA1021+999999031GE19AGL   +99999+99999GF102991021999999999999999MA1999999096451MD1210181-0311REMSYN06448304 32960 20000 10223 20203 39645 40107 52018 82040 333 59031=
0188483040999992019021618004+19867+099767FM-12+040199999V0209999C000012200019N010000199+02021+01891101111ADDGA1999+999999021GE19AGL   +99999+99999GF102991001999999999999999MA1999999096461MD1210011-0361REMSYN06448304 32960 20000 10202 20189 39646 40111 52001 80005 333 59036=EQDQ01    003SCCGA1
0188483040999992019021621004+19867+099767FM-12+040199999V0209999C000012200019N010000199+01971+01861101021ADDGA1999+999999021GE19AGL   +99999+99999GF102991001999999999999999MA1999999096361MD1710101-0351REMSYN06448304 32960 20000 10197 20186 39636 40102 57010 80005 333 59035=EQDQ01    003SCCGA1
0188483040999992019021700004+19867+099767FM-12+040199999V0209999C000012200019N010000199+01811+01731101151ADDGA1011+008001061GE19AGL   +99999+99999GF101991011999008001999999KA1120N+01761MA1999999096461MD1210101-0361REMSYN07048304 32560 10000 10181 20173 39646 40115 52010 81500 333 20176 59036=
0098483040999992019021703004+19870+099774FM-12+039799999V0203601N0000122000199012000199+02521+01981101291ADDAA103999999AZ101031AZ201031GF100991999999999999999999MA1999999096701MD1210241-0281REMSYN004BUFR
0098483040999992019021706004+19870+099774FM-12+039799999V0201901N0026122000199012000199+03121+01661100821ADDAA106999999AZ101061AZ201061GF100991999999999999999999MA1999999096341MD1710361-0311REMSYN004BUFR
0136483040999992019021709004+19870+099774FM-12+039799999V0202101N0021122000199012000199+03251+01581100431ADDAA103999999AZ101031AZ201031GA1031+008001081GE19AGL   +99999+99999GF103991031999008001999999MA1999999095981MD1710361-0441REMSYN004BUFR
0164483040999992019021712004+19870+099774FM-12+039799999V0203601N0000122000199010000199+02571+02001100661ADDAA102999999AA212999999AA324999999AY161061AY211061GA1999+030001001GE19AGL   +99999+99999GF102991999999030001999999MA1999999096111MD1210121-0161MW1011REMSYN004BUFR
0125483040999992019021715004+19867+099767FM-12+040199999V0209999C000019999999N010000199+02131+01921100971ADDGF100995999999999999999999MA1999999096341MD1210231-0101REMSYN05848304 32960 00000 10213 20192 39634 40097 52023 333 59010=
0161483040999992019021718004+19867+099767FM-12+040199999V0209999C000019999999N010000199+01841+01711101031ADDAA124000091GF100995999999999999999999MA1999999096351MD1210011-0091REMSYN06448304 32960 00000 10184 20171 39635 40103 52001 333 59009 79999=EQDQ01  00002PRCP24
0125483040999992019021721004+19867+099767FM-12+040199999V0209999C000019999999N010000199+01661+01561100971ADDGF100995999999999999999999MA1999999096271MD1710081-0041REMSYN05848304 32960 00000 10166 20156 39627 40097 57008 333 59004=
0122483040999992019021800004+19870+099774FM-12+039799999V0203601N0000122000199010000199+01451+01351101141ADDAA124999999AA224999999AZ101061AZ201061GF100991999999999999999999KA1120N+01391MA1999999096391MD1210121-0011REMSYN004BUFR
0098483040999992019021803004+19870+099774FM-12+039799999V0203601N0000122000199012000199+02251+01491101261ADDAA103999999AZ101031AZ201031GF100991999999999999999999MA1999999096631MD1210241-0031REMSYN004BUFR
0205483040999992019021806004+19867+099767FM-12+040199999V0209999C000012200019N015000199+02911+01481100841ADDAA124000091GA1031+008001081GE19AGL   +99999+99999GF103991031999008001999999MA1999999096331MD1710301+0021REMSYN07048304 32565 30000 10291 20148 39633 40084 57030 83100 333 58002 79999=EQDQ01  00002PRCP24
0169483040999992019021809004+19867+099767FM-12+040199999V0202401N002612200019N015000199+03141+01001100531ADDGA1011+008001081GE19AGL   +99999+99999GF101991011999008001999999MA1999999096071MD1710261+0111REMSYN06448304 32565 12405 10314 20100 39607 40053 57026 81100 333 58011=
0188483040999992019021812004+19867+099767FM-12+040199999V0209999C000012200019N012000199+02501+01541100751ADDGA1021+008001081GE19AGL   +99999+99999GF102991021999008001999999KA1240M+03171MA1999999096191MD1210121+0101REMSYN07048304 32562 20000 10250 20154 39619 40075 52012 82100 333 10317 58010=
0125483040999992019021815004+19867+099767FM-12+040199999V0209999C000019999999N012000199+01991+01831100991ADDGF100995999999999999999999MA1999999096341MD1210151+0021REMSYN05848304 32962 00000 10199 20183 39634 40099 52015 333 58002=
0125483040999992019021818004+19867+099767FM-12+040199999V0209999C000019999999N010000199+01721+01621101151ADDGF100995999999999999999999MA1999999096451MD1990111+0121REMSYN05848304 32960 00000 10172 20162 39645 40115 50011 333 58012=
0153483040999992019021821004+19867+099767FM-12+040199999V0209999C000019999999N006000199+01621+01521101181ADDAY101021AY201021GF100995999999999999999999MA1999999096471MD1990021+0211MW1101REMSYN06448304 31956 00000 10162 20152 39647 40118 50002 71000 333 58021=
0172483040999992019021900004+19867+099767FM-12+040199999V0209999C000019999999N006000199+01351+01261101441ADDAY101021AY201021GF100995999999999999999999KA1120N+01301MA1999999096671MD1210211+0311MW1101REMSYN07048304 31956 00000 10135 20126 39667 40144 52021 71000 333 20130 58031=
0098483040999992019021903004+19870+099774FM-12+039799999V0203601N0000122000199012000199+02101+01451101521ADDAA103999999AZ101031AZ201031GF100991999999999999999999MA1999999096861MD1210191+0261REMSYN004BUFR
