0163527870999992019010100004+37200+102867FM-12+304499999V0201601N005012200019N030000199-01431-02291999999ADDGA1011+017501999GE19AGL   +99999+99999GF101991011999017501999999MA1999999070401MD1410001+9999REMSYN05852787 32780 11605 11143 21229 37040 54000 81/// 333 00200=
0093527870999992019010103004+37200+102870FM-12+304499999V0201601N0030122000199030000199-00751-02431999999ADDAA106999999AA224999999GF100991999999999999999999MA1999999070451MD1210051+9999REMSYN004BUFR
0138527870999992019010106004+37200+102867FM-12+304499999V0203401N006019999999N030000199-00381-01891999999ADDGF100995999999999999999999KA1240N-01571MA1999999070231MD1710221+9999REMSYN05852787 32980 03406 11038 21189 37023 57022 333 05103 21157=
0093527870999992019010109004+37200+102870FM-12+304499999V0202901N0050122000199030000199-00571-02021999999ADDAA106999999AA224999999GF100991999999999999999999MA1999999070311MD1210081-0101REMSYN004BUFR
0119527870999992019010112004+37200+102867FM-12+304499999V0201401N009019999999N030000199-00751-02251999999ADDGF100995999999999999999999MA1999999070341MD1210031+9999REMSYN05252787 32980 01409 11075 21225 37034 52003 333 05206=
0138527870999992019010118004+37200+102867FM-12+304499999V0201801N00701002401WN030000199-01161-02091999999ADDGF109991999999999999999999KA1120M-00311MA1999999070181MD1710101+9999REMSYN05852787 32/80 91807 11116 21209 37018 57010 333 05304 11031=
0067527870999992019010121004+37200+102870FM-12+304499999V0202701N0070199999999030000199-00621-02031999999ADDAA106999999AA224999999MA1999999070051MD1710131-0401REMSYN004BUFR
0119527870999992019010200004+37200+102867FM-12+304499999V0202901N009019999999N030000199-00461-02211999999ADDGF100995999999999999999999MA1999999070031MD1710021+9999REMSYN05252787 32980 02909 11046 21221 37003 57002 333 05410=
0093527870999992019010203004+37200+102870FM-12+304499999V0202901N0090122000199030000199-00251-02041999999ADDAA106999999AA224999999GF100991999999999999999999MA1999999070101MD1210071+9999REMSYN004BUFR
0164527870999992019010206004+37200+102867FM-12+304499999V0202901N010019999999N030000199+00001-02151999999ADDGF100995999999999999999999KA1240N-01231MA1999999069931MD1710171+9999OD139901701320REMSYN07052787 32980 02910 10000 21215 36993 57017 333 05304 21123 91117 91532=
0093527870999992019010209004+37200+102870FM-12+304499999V0203201N0060122000199030000199+00021-02201999999ADDAA106999999AA224999999GF100991999999999999999999MA1999999069991MD1210061-0301REMSYN004BUFR
0119527870999992019010212004+37200+102867FM-12+304499999V0203201N005019999999N030000199-01132-01901999999ADDGF100995999999999999999999MA1999999070161MD1210171+9999REMSYN05252787 32980 03205 11113 21190 37016 52017 333 05254=
0138527870999992019010218004+37200+102867FM-12+304499999V0203401N00501002401WN030000199-00991-02131999999ADDGF109991999999999999999999KA1120M+00101MA1999999070221MD1210011+9999REMSYN05852787 32/80 93405 11099 21213 37022 52001 333 00002 10010=
0067527870999992019010221004+37200+102870FM-12+304499999V0203601N0030199999999030000199-01101-02141999999ADDAA106999999AA224999999MA1999999070141MD1710081+0101REMSYN004BUFR
0163527870999992019010300004+37200+102867FM-12+304499999V0203201N002019999999N030000199-01311-02161999999ADDGA1071+017501999GE19AGL   +99999+99999GF107991071999017501999999MA1999999070141MD1410001+9999REMSYN05852787 32780 73202 11131 21216 37014 54000 87/// 333 00159=
0163527870999992019010303004+37200+102870FM-12+304499999V0203201N00601017501C9030000199-00951-01901999999ADDAA106999999AA224999999GA1071+017501101GA2999+999999101GA3999+999999101GE19AGL   +99999+99999GF107991071999017501999999MA1999999070241MD1210101+9999REMSYN004BUFR
0182527870999992019010306004+37200+102867FM-12+304499999V0203401N007019999999N030000199-00691-01691999999ADDGA1071+017501999GE19AGL   +99999+99999GF107991071999017501999999KA1240N-01381MA1999999070121MD1710121+9999REMSYN06452787 32780 73407 11069 21169 37012 57012 87/// 333 00257 21138=
0163527870999992019010309004+37200+102870FM-12+304499999V0203201N00501017501C9030000199-00851-01711999999ADDAA106999999AA224999999GA1061+017501101GA2999+999999101GA3999+999999101GE19AGL   +99999+99999GF106991061999017501999999MA1999999070221MD1210101+0201REMSYN004BUFR
0163527870999992019010312004+37200+102867FM-12+304499999V0202901N001019999999N030000199-01231-01811999999ADDGA1071+017501999GE19AGL   +99999+99999GF107991071999017501999999MA1999999070391MD1210171+9999REMSYN05852787 32780 72901 11123 21181 37039 52017 87/// 333 00251=
0138527870999992019010318004+37200+102867FM-12+304499999V0201101N00101002401WN030000199-01261-02001999999ADDGF109991999999999999999999KA1120M-00581MA1999999070311MD1710071+9999REMSYN05852787 32/80 91101 11126 21200 37031 57007 333 00153 11058=
0067527870999992019010321004+37200+102870FM-12+304499999V0201401N0030199999999030000199-01451-02031999999ADDAA106999999AA224999999MA1999999070241MD1710071+0101REMSYN004BUFR
0163527870999992019010400004+37200+102867FM-12+304499999V0201601N004019999999N030000199-01461-02131999999ADDGA1071+017501999GE19AGL   +99999+99999GF107991071999017501999999MA1999999070201MD1710041+9999REMSYN05852787 32780 71604 11146 21213 37020 57004 87/// 333 00152=
0163527870999992019010403004+37200+102870FM-12+304499999V0201601N00901012501C9030000199-00841-01821999999ADDAA106999999AA224999999GA1071+012501101GA2999+999999101GA3999+999999101GE19AGL   +99999+99999GF107991071999012501999999MA1999999070201MD1410001+9999REMSYN004BUFR
0182527870999992019010406004+37200+102867FM-12+304499999V0201601N011019999999N030000199-00741-01841999999ADDGA1071+012501999GE19AGL   +99999+99999GF107991071999012501999999KA1240N-01541MA1999999070011MD1710191+9999REMSYN06452787 32680 71611 11074 21184 37001 57019 87/// 333 05151 21154=
0163527870999992019010409004+37200+102870FM-12+304499999V0201601N00901017501C9030000199-00851-01601999999ADDAA106999999AA224999999GA1071+017501101GA2999+999999101GA3999+999999101GE19AGL   +99999+99999GF107991071999017501999999MA1999999069991MD1710021-0201REMSYN004BUFR
0163527870999992019010412004+37200+102867FM-12+304499999V0201601N006019999999N030000199-01231-01581999999ADDGA1071+999999999GE19AGL   +99999+99999GF107991071999999999999999MA1999999070101MD1210111+9999REMSYN05852787 32980 71606 11123 21158 37010 52011 87/// 333 05300=
0138527870999992019010418004+37200+102867FM-12+304499999V0201601N00201002401WN030000199-01351-01551999999ADDGF109991999999999999999999KA1120M-00701MA1999999069991MD1710121+9999REMSYN05852787 32/80 91602 11135 21155 36999 57012 333 05351 11070=
0067527870999992019010421004+37200+102870FM-12+304499999V0203401N0020199999999030000199-01101-01771999999ADDAA106999999AA224999999MA1999999069851MD1710141-0401REMSYN004BUFR
0119527870999992019010500004+37200+102867FM-12+304499999V0203201N005019999999N030000199-01081-02041999999ADDGF100995999999999999999999MA1999999069871MD1210021+9999REMSYN05252787 32980 03205 11108 21204 36987 52002 333 05304=
0093527870999992019010503004+37200+102870FM-12+304499999V0202901N0050122000199030000199-00671-02261999999ADDAA106999999AA224999999GF100991999999999999999999MA1999999069971MD1210101+9999REMSYN004BUFR
0182527870999992019010506004+37200+102867FM-12+304499999V0202901N008012200019N029000199-00251-02431999999ADDGA1011+999999999GE19AGL   +99999+99999GF101991011999999999999999KA1240N-01541MA1999999069771MD1710201+9999REMSYN06452787 32979 12908 11025 21243 36977 57020 81/// 333 05205 21154=
0093527870999992019010509004+37200+102870FM-12+304499999V0203201N0060122000199029000199-00251-02371999999ADDAA106999999AA224999999GF100991999999999999999999MA1999999069821MD1210051-0201REMSYN004BUFR
0119527870999992019010512004+37200+102867FM-12+304499999V0200201N003019999999N030000199-00601-02431999999ADDGF100995999999999999999999MA1999999069981MD1210161+9999REMSYN05252787 32980 00203 11060 21243 36998 52016 333 05106=
0138527870999992019010518004+37200+102867FM-12+304499999V0202901N00601002401WN030000199-01181-02111999999ADDGF109991999999999999999999KA1120M-00201MA1999999070011MD1710041+9999REMSYN05852787 32/80 92906 11118 21211 37001 57004 333 00002 11020=
0067527870999992019010521004+37200+102870FM-12+304499999V0203201N0070199999999030000199-01321-02121999999ADDAA106999999AA224999999MA1999999070001MD1710011+0201REMSYN004BUFR
0163527870999992019010600004+37200+102867FM-12+304499999V0202901N007019999999N030000199-01411-02101999999ADDGA1061+999999999GE19AGL   +99999+99999GF106991061999999999999999MA1999999070061MD1210061+9999REMSYN05852787 32980 62907 11141 21210 37006 52006 86/// 333 00253=
0163527870999992019010603004+37200+102870FM-12+304499999V0203201N0080122000199030000199-00971-01941999999ADDAA106999999AA224999999GA1021+026001101GA2999+999999101GA3999+999999101GE19AGL   +99999+99999GF102991021999026001999999MA1999999070201MD1210141+9999REMSYN004BUFR
0182527870999992019010606004+37200+102867FM-12+304499999V0203401N007012200019N030000199-00711-01871999999ADDGA1031+999999999GE19AGL   +99999+99999GF103991031999999999999999KA1240N-01481MA1999999070081MD1710121+9999REMSYN06452787 32980 33407 11071 21187 37008 57012 83/// 333 00355 21148=
0163527870999992019010609004+37200+102870FM-12+304499999V0203201N00901026001C9030000199-01201-01771999999ADDAA106999999AA224999999GA1071+026001101GA2999+999999101GA3999+999999101GE19AGL   +99999+99999GF107991071999026001999999MA1999999070121MD1210041+0301REMSYN004BUFR
0163527870999992019010612004+37200+102867FM-12+304499999V0203201N008019999999N030000199-01741-01911999999ADDGA1071+999999999GE19AGL   +99999+99999GF107991071999999999999999MA1999999070291MD1210171+9999REMSYN05852787 32980 73208 11174 21191 37029 52017 87/// 333 00361=
0166527870999992019010618004+37200+102867FM-12+304499999V0203201N00701002401WN030000199-01741-01911999999ADDAY101021AY201021GF109991999999999999999999KA1120M-00671MA1999999070271MD1710051+9999MW1221REMSYN06452787 31/80 93207 11174 21191 37027 57005 72200 333 00356 11067=
0073527870999992019010621004+37200+102870FM-12+304499999V0203201N0050199999999030000199-01781-01951999999ADDAA106999999AA224999999MA1999999070261MD1710011+0301MW1701REMSYN004BUFR
0197527870999992019010700004+37200+102867FM-12+304499999V0203201N004012200019N030000199-01771-01991999999ADDAA112000021AA224000021GA1021+999999999GE19AGL   +99999+99999GF102991021999999999999999MA1999999070291MD1210031+9999REMSYN07052787 12980 23204 11177 21199 37029 52003 69902 82/// 333 00254 79999=
0163527870999992019010703004+37200+102870FM-12+304499999V0201601N00401017501C9029000199-01151-01631999999ADDAA106999999AA224999999GA1071+017501101GA2999+999999101GA3999+999999101GE19AGL   +99999+99999GF107991071999017501999999MA1999999070361MD1210071+9999REMSYN004BUFR
0182527870999992019010706004+37200+102867FM-12+304499999V0203401N006019999999N030000199-00981-01551999999ADDGA1071+999999999GE19AGL   +99999+99999GF107991071999999999999999KA1240N-01841MA1999999070181MD1710181+9999REMSYN06452787 32980 73406 11098 21155 37018 57018 87/// 333 00153 21184=
0163527870999992019010709004+37200+102870FM-12+304499999V0203201N00501017501C9030000199-01251-01741999999ADDAA106999999AA224999999GA1071+017501101GA2999+999999101GA3999+999999101GE19AGL   +99999+99999GF107991071999017501999999MA1999999070271MD1210091+0201REMSYN004BUFR
0163527870999992019010712004+37200+102867FM-12+304499999V0201401N002019999999N030000199-01631-01811999999ADDGA1071+017501999GE19AGL   +99999+99999GF107991071999017501999999MA1999999070361MD1210091+9999REMSYN05852787 32780 71402 11163 21181 37036 52009 87/// 333 00101=
0138527870999992019010718004+37200+102867FM-12+304499999V0201601N00801002401WN030000199-01751-01901999999ADDGF109991999999999999999999KA1120M-00891MA1999999070191MD1710141+9999REMSYN05852787 32/80 91608 11175 21190 37019 57014 333 05100 11089=
0073527870999992019010721004+37200+102870FM-12+304499999V0201801N0080199999999022000199-01701-01851999999ADDAA106999999AA224999999MA1999999070041MD1710151-0201MW1701REMSYN004BUFR
0209527870999992019010800004+37200+102867FM-12+304499999V0201601N007019999999N009000199-01641-01781999999ADDAA112000021AA224000021GA1071+017501999GE19AGL   +99999+99999GF107991071999017501999999MA1999999069951MD1710091+9999MW1701REMSYN07652787 11759 71607 11164 21178 36995 57009 69902 770// 87/// 333 05301 79999=
0185527870999992019010803004+37200+102870FM-12+304499999V0201601N01101017501C9011000199-01501-01651999999ADDAA106999999AA224999999AY171031AY271031GA1071+017501101GA2999+999999101GA3999+999999101GE19AGL   +99999+99999GF107991071999017501999999MA1999999069881MD1710071+9999MW1701REMSYN004BUFR
0227527870999992019010806004+37200+102867FM-12+304499999V0201601N010019999999N030000199-01261-01381999999ADDAA106000021AY171021AY271021GA1071+017501999GE19AGL   +99999+99999GF107991071999017501999999KA1240N-01791MA1999999069681MD1710201+9999MW1221REMSYN07652787 11780 71610 11126 21138 36968 57020 69901 72277 87/// 333 05553 21179=
0185527870999992019010809004+37200+102870FM-12+304499999V0201601N00901017501C9030000199-01121-01481999999ADDAA106999999AA224999999AY171031AY201031GA1071+017501101GA2999+999999101GA3999+999999101GE19AGL   +99999+99999GF107991071999017501999999MA1999999069751MD1210071-0501MW1701REMSYN004BUFR
0208527870999992019010812004+37200+102867FM-12+304499999V0201601N008019999999N030000199-01451-01651999999ADDAA106000021AY171021AY201021GA1071+999999999GE19AGL   +99999+99999GF107991071999999999999999MA1999999069821MD1210071+9999MW1001REMSYN07052787 11980 71608 11145 21165 36982 52007 69901 70070 87/// 333 05502=
0138527870999992019010818004+37200+102867FM-12+304499999V0201601N00201002401WN007000199-01631-01771999999ADDGF109991999999999999999999KA1120M-01041MA1999999069721MD1710061+9999REMSYN05852787 32/57 91602 11163 21177 36972 57006 333 05501 11104=
0067527870999992019010821004+37200+102870FM-12+304499999V0202901N0030199999999024000199-01071-01941999999ADDAA106999999AA224999999MA1999999069621MD1710101-0401REMSYN004BUFR
0172527870999992019010900004+37200+102867FM-12+304499999V0203201N003019999999N030000199-01081-01971999999ADDAA112000091AA224000021GF100995999999999999999999MA1999999069651MD1210031+9999REMSYN06452787 12980 03203 11108 21197 36965 52003 69902 333 05306 79999=EQDQ01  00002PRCP12
0093527870999992019010903004+37200+102870FM-12+304499999V0203201N0020122000199030000199-00641-01781999999ADDAA106999999AA224999999GF100991999999999999999999MA1999999069741MD1210091+9999REMSYN004BUFR
0138527870999992019010906004+37200+102867FM-12+304499999V0203201N008019999999N030000199-00901-01481999999ADDGF100995999999999999999999KA1240N-01761MA1999999069671MD1710071+9999REMSYN05852787 32980 03208 11090 21148 36967 57007 333 00004 21176=
0163527870999992019010909004+37200+102870FM-12+304499999V0203201N00801017501C9030000199-01191-01611999999ADDAA106999999AA224999999GA1071+017501101GA2999+999999101GA3999+999999101GE19AGL   +99999+99999GF107991071999017501999999MA1999999069771MD1210101+0001REMSYN004BUFR
0119527870999992019010912004+37200+102867FM-12+304499999V0202901N003019999999N030000199-01541-01811999999ADDGF100995999999999999999999MA1999999069911MD1210141+9999REMSYN05252787 32980 02903 11154 21181 36991 52014 333 00151=
0166527870999992019010918004+37200+102867FM-12+304499999V0203201N00401002401WN028000199-01891-02051999999ADDAY101021AY201021GF109991999999999999999999KA1120M-00591MA1999999069931MD1710021+9999MW1701REMSYN06452787 31/78 93204 11189 21205 36993 57002 77000 333 00253 11059=
0073527870999992019010921004+37200+102870FM-12+304499999V0200201N0060199999999030000199-01471-01641999999ADDAA106999999AA224999999MA1999999069891MD1710041+0301MW1701REMSYN004BUFR
0197527870999992019011000004+37200+102867FM-12+304499999V0203201N005019999999N030000199-01701-01881999999ADDAA112000021AA224000021GA1071+017501999GE19AGL   +99999+99999GF107991071999017501999999MA1999999069971MD1210081+9999REMSYN07052787 12780 73205 11170 21188 36997 52008 69902 87/// 333 00356 79999=
0163527870999992019011003004+37200+102870FM-12+304499999V0203201N00701017501C9030000199-01351-01571999999ADDAA106999999AA224999999GA1071+017501101GA2999+999999101GA3999+999999101GE19AGL   +99999+99999GF107991071999017501999999MA1999999070021MD1210051+9999REMSYN004BUFR
0182527870999992019011006004+37200+102867FM-12+304499999V0203401N002019999999N030000199-01021-01541999999ADDGA1071+017501999GE19AGL   +99999+99999GF107991071999017501999999KA1240N-01931MA1999999069891MD1710131+9999REMSYN06452787 32780 73402 11102 21154 36989 57013 87/// 333 00251 21193=
0163527870999992019011009004+37200+102870FM-12+304499999V0203601N00501017501C9030000199-00891-02101999999ADDAA106999999AA224999999GA1071+017501101GA2999+999999101GA3999+999999101GE19AGL   +99999+99999GF107991071999017501999999MA1999999069951MD1210061+0201REMSYN004BUFR
0163527870999992019011012004+37200+102867FM-12+304499999V0201601N003019999999N030000199-01371-01721999999ADDGA1071+017501999GE19AGL   +99999+99999GF107991071999017501999999MA1999999070071MD1210121+9999REMSYN05852787 32780 71603 11137 21172 37007 52012 87/// 333 00202=
0138527870999992019011018004+37200+102867FM-12+304499999V0201401N00301002401WN030000199-01351-02021999999ADDGF109991999999999999999999KA1120M-00781MA1999999069901MD1710111+9999REMSYN05852787 32/80 91403 11135 21202 36990 57011 333 00005 11078=
0067527870999992019011021004+37200+102870FM-12+304499999V0200901N0020199999999030000199-01091-02631999999ADDAA106999999AA224999999MA1999999069781MD1710121-0101REMSYN004BUFR
0119527870999992019011100004+37200+102867FM-12+304499999V0203401N006019999999N030000199-00941-02581999999ADDGF100995999999999999999999MA1999999069711MD1710071+9999REMSYN05252787 32980 03406 11094 21258 36971 57007 333 05308=
0093527870999992019011103004+37200+102870FM-12+304499999V0203401N0070122000199030000199-00671-02181999999ADDAA106999999AA224999999GF100991999999999999999999MA1999999069811MD1210101+9999REMSYN004BUFR
0138527870999992019011106004+37200+102867FM-12+304499999V0202701N008019999999N030000199-00241-02631999999ADDGF100995999999999999999999KA1240N-01541MA1999999069651MD1710161+9999REMSYN05852787 32980 02708 11024 21263 36965 57016 333 05208 21154=
0093527870999992019011109004+37200+102870FM-12+304499999V0203601N0030122000199030000199-00201-02381999999ADDAA106999999AA224999999GF100991999999999999999999MA1999999069671MD1210021-0301REMSYN004BUFR
0119527870999992019011112004+37200+102867FM-12+304499999V0203401N012019999999N030000199-01291-01891999999ADDGF100995999999999999999999MA1999999069851MD1210181+9999REMSYN05252787 32980 03412 11129 21189 36985 52018 333 05201=
0138527870999992019011118004+37200+102867FM-12+304499999V0203401N00501002401WN030000199-01391-01941999999ADDGF109991999999999999999999KA1120M-00081MA1999999070061MD1210011+9999REMSYN05852787 32/80 93405 11139 21194 37006 52001 333 00200 11008=
0067527870999992019011121004+37200+102870FM-12+304499999V0203201N0020199999999030000199-01401-02121999999ADDAA106999999AA224999999MA1999999070011MD1710051+0201REMSYN004BUFR
0188527870999992019011200004+37200+102867FM-12+304499999V0203601N001019999999N030000199-01221-02231999999ADDAA112000091AA224000091GF100995999999999999999999MA1999999070071MD1210061+9999REMSYN06452787 12980 03601 11122 21223 37007 52006 69902 333 00453 79999=EQDQ01  00002PRCP12Q02  00002PRCP24
0093527870999992019011203004+37200+102870FM-12+304499999V0201801N0070122000199030000199-00841-02021999999ADDAA106999999AA224999999GF100991999999999999999999MA1999999070141MD1210071+9999REMSYN004BUFR
0138527870999992019011206004+37200+102867FM-12+304499999V0201401N010019999999N030000199-00551-01891999999ADDGF100995999999999999999999KA1240N-01571MA1999999070021MD1710121+9999REMSYN05852787 32980 01410 11055 21189 37002 57012 333 00453 21157=
0163527870999992019011209004+37200+102870FM-12+304499999V0201601N00401017501C9030000199-00571-01941999999ADDAA106999999AA224999999GA1071+017501101GA2999+999999101GA3999+999999101GE19AGL   +99999+99999GF107991071999017501999999MA1999999070101MD1210081+0401REMSYN004BUFR
0119527870999992019011212004+37200+102867FM-12+304499999V0201601N004019999999N030000199-01131-02091999999ADDGF100995999999999999999999MA1999999070261MD1210161+9999REMSYN05252787 32980 01604 11113 21209 37026 52016 333 00402=
0138527870999992019011218004+37200+102867FM-12+304499999V0201601N00301002401WN030000199-01211-02001999999ADDGF109991999999999999999999KA1120M-00481MA1999999070241MD1710051+9999REMSYN05852787 32/80 91603 11121 21200 37024 57005 333 00202 11048=
0067527870999992019011221004+37200+102870FM-12+304499999V0201101N0020199999999030000199-01091-02111999999ADDAA106999999AA224999999MA1999999070111MD1710131+0101REMSYN004BUFR
0163527870999992019011300004+37200+102867FM-12+304499999V0202001N003012200019N030000199-00811-02381999999ADDGA1031+017501999GE19AGL   +99999+99999GF103991031999017501999999MA1999999070101MD1710011+9999REMSYN05852787 32780 32003 11081 21238 37010 57001 83/// 333 00004=
0093527870999992019011303004+37200+102870FM-12+304499999V0201601N0070122000199029000199-00651-02021999999ADDAA106999999AA224999999GF100991999999999999999999MA1999999070111MD1210011+9999REMSYN004BUFR
0182527870999992019011306004+37200+102867FM-12+304499999V0203201N005019999999N029000199-00481-01861999999ADDGA1071+999999999GE19AGL   +99999+99999GF107991071999999999999999KA1240N-01331MA1999999069971MD1710141+9999REMSYN06452787 32979 73205 11048 21186 36997 57014 87/// 333 05101 21133=
0163527870999992019011309004+37200+102870FM-12+304499999V0203401N00801026001C9030000199-00821-01761999999ADDAA106999999AA224999999GA1071+026001101GA2999+999999101GA3999+999999101GE19AGL   +99999+99999GF107991071999026001999999MA1999999070051MD1210081-0101REMSYN004BUFR
0163527870999992019011312004+37200+102867FM-12+304499999V0202901N007019999999N030000199-01261-01941999999ADDGA1071+999999999GE19AGL   +99999+99999GF107991071999999999999999MA1999999070191MD1210141+9999REMSYN05852787 32980 72907 11126 21194 37019 52014 87/// 333 05151=
0138527870999992019011318004+37200+102867FM-12+304499999V0203201N00301002401WN030000199-01551-02011999999ADDGF109991999999999999999999KA1120M-00301MA1999999070161MD1710061+9999REMSYN05852787 32/80 93203 11155 21201 37016 57006 333 05153 11030=
0067527870999992019011321004+37200+102870FM-12+304499999V0203601N0090199999999030000199-01501-02061999999ADDAA106999999AA224999999MA1999999070181MD1210021+0101REMSYN004BUFR
0232527870999992019011400004+37200+102867FM-12+304499999V0203601N010019999999N030000199-01521-01901999999ADDAA112000091AA224000091GA1071+017501999GE19AGL   +99999+99999GF107991071999017501999999MA1999999070261MD1210081+9999REMSYN07052787 12780 73610 11152 21190 37026 52008 69902 87/// 333 00257 79999=EQDQ01  00002PRCP12Q02  00002PRCP24
0163527870999992019011403004+37200+102870FM-12+304499999V0203201N00901017501C9030000199-01451-01761999999ADDAA106999999AA224999999GA1071+017501101GA2999+999999101GA3999+999999101GE19AGL   +99999+99999GF107991071999017501999999MA1999999070461MD1210201+9999REMSYN004BUFR
0182527870999992019011406004+37200+102867FM-12+304499999V0203601N008019999999N030000199-01271-01891999999ADDGA1071+017501999GE19AGL   +99999+99999GF107991071999017501999999KA1240N-01751MA1999999070361MD1710101+9999REMSYN06452787 32780 73608 11127 21189 37036 57010 87/// 333 00458 21175=
0163527870999992019011409004+37200+102870FM-12+304499999V0203601N00901017501C9030000199-01401-01941999999ADDAA106999999AA224999999GA1071+017501101GA2999+999999101GA3999+999999101GE19AGL   +99999+99999GF107991071999017501999999MA1999999070411MD1210051+0401REMSYN004BUFR
0163527870999992019011412004+37200+102867FM-12+304499999V0203401N006019999999N030000199-01551-01991999999ADDGA1071+017501999GE19AGL   +99999+99999GF107991071999017501999999MA1999999070541MD1210131+9999REMSYN05852787 32780 73406 11155 21199 37054 52013 87/// 333 00453=
0166527870999992019011418004+37200+102867FM-12+304499999V0202901N00101002401WN030000199-01751-01921999999ADDAY101021AY201021GF109991999999999999999999KA1120M-01201MA1999999070491MD1710061+9999MW1701REMSYN06452787 31/80 92901 11175 21192 37049 57006 77000 333 00352 11120=
0062527870999992019011421004+37200+102870FM-12+304499999V0201601N0070199999999030000199-01651-01791999999ADDAA124000131MA1999999070301MD1710191+0101MW1701REMSYN004BUFR
0209527870999992019011500004+37200+102867FM-12+304499999V0201601N007019999999N008000199-01711-01861999999ADDAA106000131AA224000131GA1081+017501999GE19AGL   +99999+99999GF108991081999017501999999MA1999999070281MD1710021+9999MW1701REMSYN07652787 11758 81607 11171 21186 37028 57002 69911 770// 88/// 333 00052 70001=
0185527870999992019011503004+37200+102870FM-12+304499999V0201601N00401017501C9999999999-01601-01761999999ADDAA106999999AA224999999AY171031AY201031GA1071+017501101GA2999+999999101GA3999+999999101GE19AGL   +99999+99999GF107991071999017501999999MA1999999070261MD1710021+9999MW1701REMSYN004BUFR
0210527870999992019011506004+37200+102867FM-12+304499999V0201601N004019999999N030000199-01311-01431999999ADDAY171021AY201021GA1071+999999999GE19AGL   +99999+99999GF107991071999999999999999KA1240N-01751MA1999999070051MD1710211+9999MW1001REMSYN07052787 31980 71604 11131 21143 37005 57021 70070 87/// 333 05300 21175=
0163527870999992019011509004+37200+102870FM-12+304499999V0201601N00701026001C9030000199-01151-01561999999ADDAA106999999AA224999999GA1071+026001101GA2999+999999101GA3999+999999101GE19AGL   +99999+99999GF107991071999026001999999MA1999999070031MD1710021-0401REMSYN004BUFR
0163527870999992019011512004+37200+102867FM-12+304499999V0201401N004019999999N030000199-01521-01701999999ADDGA1071+999999999GE19AGL   +99999+99999GF107991071999999999999999MA1999999070061MD1210031+9999REMSYN05852787 32980 71404 11152 21170 37006 52003 87/// 333 05500=
0138527870999992019011518004+37200+102867FM-12+304499999V0203601N00801002401WN030000199-01251-02391999999ADDGF109991999999999999999999KA1120M-01081MA1999999069781MD1710181+9999REMSYN05852787 32/80 93608 11125 21239 36978 57018 333 05705 11108=
0067527870999992019011521004+37200+102870FM-12+304499999V0203601N0080199999999030000199-01301-02381999999ADDAA106999999AA224999999MA1999999069731MD1710051-0601REMSYN004BUFR
0119527870999992019011600004+37200+102867FM-12+304499999V0203601N009019999999N030000199-01351-02221999999ADDGF100995999999999999999999MA1999999069811MD1210081+9999REMSYN05252787 32980 03609 11135 21222 36981 52008 333 05504=
0093527870999992019011603004+37200+102870FM-12+304499999V0203201N0100122000199030000199-01191-02051999999ADDAA106999999AA224999999GF100991999999999999999999MA1999999069981MD1210171+9999REMSYN004BUFR
0138527870999992019011606004+37200+102867FM-12+304499999V0203201N006019999999N030000199-00831-01841999999ADDGF100995999999999999999999KA1240N-01591MA1999999069891MD1710091+9999REMSYN05852787 32980 03206 11083 21184 36989 57009 333 05205 21159=
0093527870999992019011609004+37200+102870FM-12+304499999V0202701N0030122000199030000199-00751-01921999999ADDAA106999999AA224999999GF100991999999999999999999MA1999999070021MD1210131+0001REMSYN004BUFR
0119527870999992019011612004+37200+102867FM-12+304499999V0201401N003019999999N030000199-01221-01901999999ADDGF100995999999999999999999MA1999999070121MD1210101+9999REMSYN05252787 32980 01403 11122 21190 37012 52010 333 00103=
0138527870999992019011618004+37200+102867FM-12+304499999V0203601N00201002401WN030000199-00841-02331999999ADDGF109991999999999999999999KA1120M-00481MA1999999069971MD1710131+9999REMSYN05852787 32/80 93602 11084 21233 36997 57013 333 00204 11048=
0067527870999992019011621004+37200+102870FM-12+304499999V0202701N0040199999999030000199-00691-02461999999ADDAA106999999AA224999999MA1999999069861MD1710111+0101REMSYN004BUFR
0119527870999992019011700004+37200+102867FM-12+304499999V0202701N002019999999N030000199-00741-02461999999ADDGF100995999999999999999999MA1999999069871MD1210011+9999REMSYN05252787 32780 02702 11074 21246 36987 52001 333 00106=
0093527870999992019011703004+37200+102870FM-12+304499999V0201601N0030122000199029000199-00051-02201999999ADDAA106999999AA224999999GF100991999999999999999999MA1999999069871MD1410001+9999REMSYN004BUFR
0182527870999992019011706004+37200+102867FM-12+304499999V0203401N005019999999N030000199+00101-02011999999ADDGA1071+017501999GE19AGL   +99999+99999GF107991071999017501999999KA1240N-01351MA1999999069761MD1710111+9999REMSYN06452787 32780 73405 10010 21201 36976 57011 87/// 333 05109 21135=
0163527870999992019011709004+37200+102870FM-12+304499999V0203401N01101017501C9030000199-00871-02401999999ADDAA106999999AA224999999GA1071+017501101GA2999+999999101GA3999+999999101GE19AGL   +99999+99999GF107991071999017501999999MA1999999069801MD1210041-0201REMSYN004BUFR
0163527870999992019011712004+37200+102867FM-12+304499999V0203601N010019999999N030000199-00961-03221999999ADDGA1071+017501999GE19AGL   +99999+99999GF107991071999017501999999MA1999999070001MD1210201+9999REMSYN05852787 32780 73610 11096 21322 37000 52020 87/// 333 05103=
0138527870999992019011718004+37200+102867FM-12+304499999V0203201N00801002401WN030000199-01561-02141999999ADDGF109991999999999999999999KA1120M+00171MA1999999069951MD1710091+9999REMSYN05852787 32/80 93208 11156 21214 36995 57009 333 00057 10017=
0067527870999992019011721004+37200+102870FM-12+304499999V0202901N0080199999999030000199-01641-02081999999ADDAA106999999AA224999999MA1999999069851MD1710101+0001REMSYN004BUFR
0163527870999992019011800004+37200+102867FM-12+304499999V0203601N007019999999N030000199-01361-02381999999ADDGA1071+017501999GE19AGL   +99999+99999GF107991071999017501999999MA1999999069901MD1210051+9999REMSYN05852787 32780 73607 11136 21238 36990 52005 87/// 333 00056=
0163527870999992019011803004+37200+102870FM-12+304499999V0203201N00701017501C9030000199-01301-01961999999ADDAA106999999AA224999999GA1071+017501101GA2999+999999101GA3999+999999101GE19AGL   +99999+99999GF107991071999017501999999MA1999999069951MD1210051+9999REMSYN004BUFR
0182527870999992019011806004+37200+102867FM-12+304499999V0203201N003019999999N030000199-01221-01861999999ADDGA1071+017501999GE19AGL   +99999+99999GF107991071999017501999999KA1240N-01801MA1999999069801MD1710151+9999REMSYN06452787 32780 73203 11122 21186 36980 57015 87/// 333 00063 21180=
0163527870999992019011809004+37200+102870FM-12+304499999V0201601N00501017501C9030000199-01021-02001999999ADDAA106999999AA224999999GA1071+017501101GA2999+999999101GA3999+999999101GE19AGL   +99999+99999GF107991071999017501999999MA1999999069771MD1710031+0001REMSYN004BUFR
0163527870999992019011812004+37200+102867FM-12+304499999V0203201N001019999999N030000199-01531-01861999999ADDGA1071+017501999GE19AGL   +99999+99999GF107991071999017501999999MA1999999069901MD1210131+9999REMSYN05852787 32780 73201 11153 21186 36990 52013 87/// 333 05156=
0138527870999992019011818004+37200+102867FM-12+304499999V0201601N00201002401WN030000199-01651-01951999999ADDGF109991999999999999999999KA1120M-00981MA1999999069871MD1710061+9999REMSYN05852787 32/80 91602 11165 21195 36987 57006 333 05151 11098=
0067527870999992019011821004+37200+102870FM-12+304499999V0203201N0050199999999030000199-01571-01901999999ADDAA106999999AA224999999MA1999999069801MD1710071-0101REMSYN004BUFR
0163527870999992019011900004+37200+102867FM-12+304499999V0203201N007019999999N030000199-01681-01951999999ADDGA1071+017501999GE19AGL   +99999+99999GF107991071999017501999999MA1999999069851MD1210051+9999REMSYN05852787 32780 73207 11168 21195 36985 52005 87/// 333 05153=
0163527870999992019011903004+37200+102870FM-12+304499999V0203201N00701026001C9030000199-01141-01601999999ADDAA106999999AA224999999GA1071+026001101GA2999+999999101GA3999+999999101GE19AGL   +99999+99999GF107991071999026001999999MA1999999070001MD1210151+9999REMSYN004BUFR
0182527870999992019011906004+37200+102867FM-12+304499999V0200201N007019999999N030000199-00781-01851999999ADDGA1071+999999999GE19AGL   +99999+99999GF107991071999999999999999KA1240N-01711MA1999999069951MD1710051+9999REMSYN06452787 32980 70207 11078 21185 36995 57005 87/// 333 00204 21171=
0185527870999992019011909004+37200+102870FM-12+304499999V0203201N00701017501C9029000199-01051-01431999999ADDAA106999999AA224999999AY171031AY201031GA1081+017501101GA2999+999999101GA3999+999999101GE19AGL   +99999+99999GF108991081999017501999999MA1999999070101MD1210151+0301MW1701REMSYN004BUFR
0208527870999992019011912004+37200+102867FM-12+304499999V0203201N005019999999N027000199-01401-01521999999ADDAA106000231AY171021AY201021GA1081+017501999GE19AGL   +99999+99999GF108991081999017501999999MA1999999070261MD1210161+9999MW1701REMSYN07052787 11777 83205 11140 21152 37026 52016 69921 77070 88/// 333 00401=
0183527870999992019011918004+37200+102867FM-12+304499999V0203601N00801002401WN024000199-01411-01541999999ADDAA106000131AY101021AY201021GF109991999999999999999999KA1120M-00691MA1999999070391MD1710031+9999MW1701REMSYN07052787 11/74 93608 11141 21154 37039 57003 69911 77000 333 00502 11069=
0062527870999992019011921004+37200+102870FM-12+304499999V0203601N0070199999999030000199-01421-01621999999ADDAA124000331MA1999999070421MD1210031+0601MW1701REMSYN004BUFR
0209527870999992019012000004+37200+102867FM-12+304499999V0203601N006019999999N024000199-01501-01641999999ADDAA112000131AA224000331GA1081+017501999GE19AGL   +99999+99999GF108991081999017501999999MA1999999070501MD1210081+9999MW1701REMSYN07652787 11774 83606 11150 21164 37050 52008 69912 770// 88/// 333 00702 70003=
0185527870999992019012003004+37200+102870FM-12+304499999V0203601N01001017501C9030000199-01501-01731999999ADDAA106999999AA224999999AY171031AY201031GA1081+017501101GA2999+999999101GA3999+999999101GE19AGL   +99999+99999GF108991081999017501999999MA1999999070641MD1210141+9999MW1701REMSYN004BUFR
0210527870999992019012006004+37200+102867FM-12+304499999V0203201N007019999999N030000199-01471-01671999999ADDAY171021AY201021GA1081+017501999GE19AGL   +99999+99999GF108991081999017501999999KA1240N-01661MA1999999070621MD1710021+9999MW1701REMSYN07052787 31780 83207 11147 21167 37062 57002 77070 88/// 333 00757 21166=
0163527870999992019012009004+37200+102870FM-12+304499999V0203201N00501017501C9030000199-01541-01681999999ADDAY171031AY271031GA1071+017501101GA2999+999999101GA3999+999999101GE19AGL   +99999+99999GF107991071999017501999999MA1999999070621MD1410001+0501MW1701REMSYN004BUFR
0208527870999992019012012004+37200+102867FM-12+304499999V0201401N001019999999N030000199-01711-01881999999ADDAA106000431AY171021AY271021GA1081+017501999GE19AGL   +99999+99999GF108991081999017501999999MA1999999070651MD1210031+9999MW1701REMSYN07052787 11780 81401 11171 21188 37065 52003 69941 77077 88/// 333 00453=
0138527870999992019012018004+37200+102867FM-12+304499999V0203201N00401002401WN030000199-01731-01911999999ADDGF109991999999999999999999KA1120M-01411MA1999999070461MD1710111+9999REMSYN05852787 32/80 93204 11173 21191 37046 57011 333 00153 11141=
0067527870999992019012021004+37200+102870FM-12+304499999V0203401N0050199999999030000199-01421-02261999999ADDAA106999999AA224000431MA1999999070361MD1710101-0101REMSYN004BUFR
0153527870999992019012100004+37200+102867FM-12+304499999V0203401N002019999999N030000199-01561-02441999999ADDAA112000021AA224000431GF100995999999999999999999MA1999999070401MD1210041+9999REMSYN06452787 12980 03402 11156 21244 37040 52004 69902 333 05151 70004=
0093527870999992019012103004+37200+102870FM-12+304499999V0203201N0030122000199030000199-01101-02381999999ADDAA106999999AA224999999GF100991999999999999999999MA1999999070491MD1210091+9999REMSYN004BUFR
0138527870999992019012106004+37200+102867FM-12+304499999V0202901N004019999999N030000199-00751-02211999999ADDGF100995999999999999999999KA1240N-01831MA1999999070351MD1710141+9999REMSYN05852787 32980 02904 11075 21221 37035 57014 333 05307 21183=
0093527870999992019012109004+37200+102870FM-12+304499999V0203201N0040122000199030000199-00741-02171999999ADDAA106999999AA224999999GF100991999999999999999999MA1999999070361MD1210011-0301REMSYN004BUFR
0119527870999992019012112004+37200+102867FM-12+304499999V0202501N007019999999N030000199-01221-02561999999ADDGF100995999999999999999999MA1999999070351MD1710011+9999REMSYN05252787 32980 02507 11122 21256 37035 57001 333 05305=
0138527870999992019012118004+37200+102867FM-12+304499999V0202701N00301002401WN030000199-01081-03181999999ADDGF109991999999999999999999KA1120M-00671MA1999999070151MD1710121+9999REMSYN05852787 32/80 92703 11108 21318 37015 57012 333 05307 11067=
0067527870999992019012121004+37200+102870FM-12+304499999V0202901N0020199999999030000199-01001-03421999999ADDAA106999999AA224999999MA1999999070101MD1710051-0301REMSYN004BUFR
0119527870999992019012200004+37200+102867FM-12+304499999V0203201N003019999999N030000199-01091-03401999999ADDGF100995999999999999999999MA1999999070121MD1210021+9999REMSYN05252787 32980 03203 11109 21340 37012 52002 333 05305=
0093527870999992019012203004+37200+102870FM-12+304499999V0203201N0060122000199030000199-00591-02921999999ADDAA106999999AA224999999GF100991999999999999999999MA1999999070231MD1210111+9999REMSYN004BUFR
0138527870999992019012206004+37200+102867FM-12+304499999V0202901N003019999999N029000199-00191-02521999999ADDGF100995999999999999999999KA1240N-01341MA1999999070111MD1710121+9999REMSYN05852787 32979 02903 11019 21252 37011 57012 333 05206 21134=
0093527870999992019012209004+37200+102870FM-12+304499999V0203201N0040122000199030000199-00271-02011999999ADDAA106999999AA224999999GF100991999999999999999999MA1999999070091MD1710021-0301REMSYN004BUFR
0119527870999992019012212004+37200+102867FM-12+304499999V0201601N003019999999N030000199-00891-01981999999ADDGF100995999999999999999999MA1999999070131MD1210041+9999REMSYN05252787 32980 01603 11089 21198 37013 52004 333 05203=
0138527870999992019012218004+37200+102867FM-12+304499999V0201601N00301002401WN030000199-00691-02371999999ADDGF109991999999999999999999KA1120M-00061MA1999999069971MD1710121+9999REMSYN05852787 32/80 91603 11069 21237 36997 57012 333 05204 11006=
0067527870999992019012221004+37200+102870FM-12+304499999V0201401N0020199999999030000199-00691-02611999999ADDAA106999999AA224999999MA1999999069861MD1710111-0201REMSYN004BUFR
0163527870999992019012300004+37200+102867FM-12+304499999V0202201N003012200019N030000199-00261-02911999999ADDGA1011+999999999GE19AGL   +99999+99999GF101991011999999999999999MA1999999069821MD1710041+9999REMSYN05852787 32980 12203 11026 21291 36982 57004 81/// 333 05308=
0093527870999992019012303004+37200+102870FM-12+304499999V0201601N0040122000199029000199+00051-02771999999ADDAA106999999AA224999999GF100991999999999999999999MA1999999069801MD1710021+9999REMSYN004BUFR
0138527870999992019012306004+37200+102867FM-12+304499999V0201601N006019999999N030000199+00261-02501999999ADDGF100995999999999999999999KA1240N-01021MA1999999069661MD1710141+9999REMSYN05852787 32980 01606 10026 21250 36966 57014 333 05505 21102=
0093527870999992019012309004+37200+102870FM-12+304499999V0201601N0060122000199028000199+00251-02161999999ADDAA106999999AA224999999GF100991999999999999999999MA1999999069661MD1410001-0401REMSYN004BUFR
0119527870999992019012312004+37200+102867FM-12+304499999V0201601N002019999999N029000199-00271-02051999999ADDGF100995999999999999999999MA1999999069751MD1210091+9999REMSYN05252787 32979 01602 11027 21205 36975 52009 333 05406=
0138527870999992019012318004+37200+102867FM-12+304499999V0202901N00301002401WN030000199-01591-01791999999ADDGF109991999999999999999999KA1120M+00381MA1999999069771MD1210011+9999REMSYN05852787 32/80 92903 11159 21179 36977 52001 333 05259 10038=
0067527870999992019012321004+37200+102870FM-12+304499999V0202901N0050199999999030000199-01401-01791999999ADDAA106999999AA224999999MA1999999069681MD1710091-0201REMSYN004BUFR
0163527870999992019012400004+37200+102867FM-12+304499999V0203201N002019999999N030000199-01581-01821999999ADDGA1071+017501999GE19AGL   +99999+99999GF107991071999017501999999MA1999999069731MD1210051+9999REMSYN05852787 32780 73202 11158 21182 36973 52005 87/// 333 05163=
0185527870999992019012403004+37200+102870FM-12+304499999V0203201N00501017501C9028000199-01571-01711999999ADDAA106999999AA224999999AY101031AY201031GA1071+017501101GA2999+999999101GA3999+999999101GE19AGL   +99999+99999GF107991071999017501999999MA1999999069881MD1210151+9999MW1701REMSYN004BUFR
0227527870999992019012406004+37200+102867FM-12+304499999V0203201N010019999999N030000199-01261-01571999999ADDAA106000021AY171021AY201021GA1071+017501999GE19AGL   +99999+99999GF107991071999017501999999KA1240N-01671MA1999999069891MD1210011+9999MW1001REMSYN07652787 11780 73210 11126 21157 36989 52001 69901 70070 87/// 333 00265 21167=
0185527870999992019012409004+37200+102870FM-12+304499999V0203201N01501017501C9030000199-01151-01671999999ADDAA106999999AA224999999AY171031AY201031GA1071+017501101GA2999+999999101GA3999+999999101GE19AGL   +99999+99999GF107991071999017501999999MA1999999070011MD1210121+0401MW1001REMSYN004BUFR
0217527870999992019012412004+37200+102867FM-12+304499999V0203201N013019999999N030000199-01351-01731999999ADDAY171021AY201021GA1071+017501999GE19AGL   +99999+99999GF107991071999017501999999MA1999999070211MD1210201+9999MW1001OD139901801320REMSYN07652787 31780 73213 11135 21173 37021 52020 70070 87/// 333 00561 91118 91532=
0138527870999992019012418004+37200+102867FM-12+304499999V0201401N00201002401WN030000199-01321-01701999999ADDGF109991999999999999999999KA1120M-00981MA1999999070381MD1210021+9999REMSYN05852787 32/80 91402 11132 21170 37038 52002 333 00603 11098=
0067527870999992019012421004+37200+102870FM-12+304499999V0203401N0030199999999030000199-01101-01591999999ADDAA106999999AA224999999MA1999999070361MD1710021+0701REMSYN004BUFR
0180527870999992019012500004+37200+102867FM-12+304499999V0201601N003012200019N030000199-01271-01691999999ADDAA124000021GA1021+017501999GE19AGL   +99999+99999GF102991021999017501999999MA1999999070441MD1210081+9999REMSYN06452787 32780 21603 11127 21169 37044 52008 82/// 333 00703 79999=
0093527870999992019012503004+37200+102870FM-12+304499999V0201601N0060122000199030000199-00751-01421999999ADDAA106999999AA224999999GF100991999999999999999999MA1999999070491MD1210051+9999REMSYN004BUFR
0138527870999992019012506004+37200+102867FM-12+304499999V0201601N006019999999N029000199-00161-01351999999ADDGF100995999999999999999999KA1240N-01451MA1999999070321MD1710171+9999REMSYN05852787 32979 01606 11016 21135 37032 57017 333 00411 21145=
0093527870999992019012509004+37200+102870FM-12+304499999V0203201N0070122000199030000199-00801-01461999999ADDAA106999999AA224999999GF100991999999999999999999MA1999999070431MD1210111+0401REMSYN004BUFR
0119527870999992019012512004+37200+102867FM-12+304499999V0203401N008019999999N030000199-01111-01721999999ADDGF100995999999999999999999MA1999999070591MD1210161+9999REMSYN05252787 32980 03408 11111 21172 37059 52016 333 00402=
0138527870999992019012518004+37200+102867FM-12+304499999V0203601N00301002401WN030000199-01211-01931999999ADDGF109991999999999999999999KA1120M-00071MA1999999070581MD1710071+9999REMSYN05852787 32/80 93603 11121 21193 37058 57007 333 00201 11007=
0067527870999992019012521004+37200+102870FM-12+304499999V0201401N0030199999999030000199-01201-01801999999ADDAA106999999AA224999999MA1999999070401MD1710181+0001REMSYN004BUFR
0163527870999992019012600004+37200+102867FM-12+304499999V0201601N006019999999N030000199-01301-01821999999ADDGA1071+999999999GE19AGL   +99999+99999GF107991071999999999999999MA1999999070291MD1710111+9999REMSYN05852787 32980 71606 11130 21182 37029 57011 87/// 333 05200=
0163527870999992019012603004+37200+102870FM-12+304499999V0201601N00801026001C9030000199-00791-01651999999ADDAA106999999AA224999999GA1071+026001101GA2999+999999101GA3999+999999101GE19AGL   +99999+99999GF107991071999026001999999MA1999999070211MD1710081+9999REMSYN004BUFR
0182527870999992019012606004+37200+102867FM-12+304499999V0203401N005012200019N030000199-00631-01581999999ADDGA1021+999999999GE19AGL   +99999+99999GF102991021999999999999999KA1240N-01371MA1999999070031MD1710181+9999REMSYN06452787 32980 23405 11063 21158 37003 57018 82/// 333 05355 21137=
0163527870999992019012609004+37200+102870FM-12+304499999V0203401N00901026001C9030000199-00971-01651999999ADDAA106999999AA224999999GA1071+026001101GA2999+999999101GA3999+999999101GE19AGL   +99999+99999GF107991071999026001999999MA1999999070031MD1410001-0401REMSYN004BUFR
0163527870999992019012612004+37200+102867FM-12+304499999V0203401N008019999999N030000199-01211-01861999999ADDGA1071+999999999GE19AGL   +99999+99999GF107991071999999999999999MA1999999070171MD1210141+9999REMSYN05852787 32980 73408 11121 21186 37017 52014 87/// 333 05451=
0138527870999992019012618004+37200+102867FM-12+304499999V0203201N00801002401WN030000199-01501-01881999999ADDGF109991999999999999999999KA1120M-00441MA1999999070291MD1210051+9999REMSYN05852787 32/80 93208 11150 21188 37029 52005 333 05353 11044=
0073527870999992019012621004+37200+102870FM-12+304499999V0203601N0070199999999030000199-01221-01671999999ADDAA106999999AA224999999MA1999999070271MD1710021-0101MW1701REMSYN004BUFR
0209527870999992019012700004+37200+102867FM-12+304499999V0203201N003019999999N027000199-01361-01491999999ADDAA106000231AA224000231GA1071+017501999GE19AGL   +99999+99999GF107991071999017501999999MA1999999070301MD1210031+9999MW1701REMSYN07652787 11777 73203 11136 21149 37030 52003 69921 770// 87/// 333 00051 70002=
0163527870999992019012703004+37200+102870FM-12+304499999V0201601N00401017501C9030000199-00941-01191999999ADDAY171031AY201031GA1071+017501101GA2999+999999101GA3999+999999101GE19AGL   +99999+99999GF107991071999017501999999MA1999999070321MD1210021+9999MW1001REMSYN004BUFR
0227527870999992019012706004+37200+102867FM-12+304499999V0201601N007019999999N030000199-00811-01371999999ADDAA106000131AY171021AY201021GA1071+017501999GE19AGL   +99999+99999GF107991071999017501999999KA1240N-01621MA1999999070111MD1710211+9999MW1001REMSYN07652787 11780 71607 11081 21137 37011 57021 69911 70070 87/// 333 00152 21162=
0163527870999992019012709004+37200+102870FM-12+304499999V0203201N00201026001C9029000199-00951-01231999999ADDAA106999999AA224999999GA1071+026001101GA2999+999999101GA3999+999999101GE19AGL   +99999+99999GF107991071999026001999999MA1999999070051MD1710061+0001REMSYN004BUFR
0163527870999992019012712004+37200+102867FM-12+304499999V0201401N009019999999N030000199-01141-01511999999ADDGA1071+999999999GE19AGL   +99999+99999GF107991071999999999999999MA1999999070161MD1210111+9999REMSYN05852787 32980 71409 11114 21151 37016 52011 87/// 333 00001=
0138527870999992019012718004+37200+102867FM-12+304499999V0201601N00801002401WN030000199-01371-01581999999ADDGF109991999999999999999999KA1120M-00731MA1999999070001MD1710121+9999REMSYN05852787 32/80 91608 11137 21158 37000 57012 333 05301 11073=
0067527870999992019012721004+37200+102870FM-12+304499999V0201601N0060199999999030000199-01591-01731999999ADDAA106999999AA224000331MA1999999069931MD1710071-0301REMSYN004BUFR
0209527870999992019012800004+37200+102867FM-12+304499999V0201401N002019999999N030000199-01501-01621999999ADDAA112000021AA224000131GA1071+999999999GE19AGL   +99999+99999GF107991071999999999999999MA1999999070011MD1210081+9999MW1221REMSYN07652787 11980 71402 11150 21162 37001 52008 69902 722// 87/// 333 05351 70001=
0163527870999992019012803004+37200+102870FM-12+304499999V0201601N00301017501C9030000199-01171-01391999999ADDAA106999999AA224999999GA1071+017501101GA2999+999999101GA3999+999999101GE19AGL   +99999+99999GF107991071999017501999999MA1999999070111MD1210101+9999REMSYN004BUFR
0210527870999992019012806004+37200+102867FM-12+304499999V0200201N010019999999N030000199-00931-01811999999ADDAY171021AY201021GA1071+017501999GE19AGL   +99999+99999GF107991071999017501999999KA1240N-01641MA1999999070051MD1710061+9999MW1001REMSYN07052787 31780 70210 11093 21181 37005 57006 70070 87/// 333 05151 21164=
0163527870999992019012809004+37200+102870FM-12+304499999V0203401N00801026001C9030000199-00921-01741999999ADDAA106999999AA224999999GA1071+026001101GA2999+999999101GA3999+999999101GE19AGL   +99999+99999GF107991071999026001999999MA1999999070001MD1710051-0101REMSYN004BUFR
0163527870999992019012812004+37200+102867FM-12+304499999V0202901N004012200019N030000199-01261-01771999999ADDGA1021+999999999GE19AGL   +99999+99999GF102991021999999999999999MA1999999070191MD1210191+9999REMSYN05852787 32980 22904 11126 21177 37019 52019 82/// 333 00051=
0138527870999992019012818004+37200+102867FM-12+304499999V0201401N00101002401WN030000199-01301-01841999999ADDGF109991999999999999999999KA1120M-00721MA1999999070171MD1710091+9999REMSYN05852787 32/80 91401 11130 21184 37017 57009 333 00201 11072=
0067527870999992019012821004+37200+102870FM-12+304499999V0201601N0060199999999030000199-01171-01651999999ADDAA106999999AA224999999MA1999999070051MD1710121+0101REMSYN004BUFR
0163527870999992019012900004+37200+102867FM-12+304499999V0201401N011019999999N030000199-01121-01741999999ADDGA1071+017501999GE19AGL   +99999+99999GF107991071999017501999999MA1999999070001MD1710051+9999REMSYN05852787 32780 71411 11112 21174 37000 57005 87/// 333 00004=
0163527870999992019012903004+37200+102870FM-12+304499999V0201401N01301026001C9030000199-00821-01841999999ADDAA106999999AA224999999GA1071+026001101GA2999+999999101GA3999+999999101GE19AGL   +99999+99999GF107991071999026001999999MA1999999070041MD1210041+9999REMSYN004BUFR
0208527870999992019012906004+37200+102867FM-12+304499999V0201401N013019999999N030000199-00731-01601999999ADDGA1071+999999999GE19AGL   +99999+99999GF107991071999999999999999KA1240N-01411MA1999999069811MD1710231+9999OD139901801140REMSYN07652787 32980 71413 11073 21160 36981 57023 87/// 333 05202 21141 91118 91514=
0163527870999992019012909004+37200+102870FM-12+304499999V0201401N00901026001C9028000199-00771-01381999999ADDAA106999999AA224999999GA1071+026001101GA2999+999999101GA3999+999999101GE19AGL   +99999+99999GF107991071999026001999999MA1999999069771MD1710041-0201REMSYN004BUFR
0208527870999992019012912004+37200+102867FM-12+304499999V0200201N006019999999N030000199-01231-01701999999ADDAA106000021AY101021AY201021GA1081+017501999GE19AGL   +99999+99999GF108991081999017501999999MA1999999069951MD1210181+9999MW1701REMSYN07052787 11780 80206 11123 21170 36995 52018 69901 77000 88/// 333 05200=
0166527870999992019012918004+37200+102867FM-12+304499999V0203401N00701002401WN030000199-01481-01751999999ADDAY101021AY201021GF109991999999999999999999KA1120M-00611MA1999999070031MD1710021+9999MW1701REMSYN06452787 31/80 93407 11148 21175 37003 57002 77000 333 05152 11061=
0062527870999992019012921004+37200+102870FM-12+304499999V0203401N0060199999999030000199-01691-01901999999ADDAA124000131MA1999999069931MD1710101-0101MW1701REMSYN004BUFR
0209527870999992019013000004+37200+102867FM-12+304499999V0202901N005019999999N030000199-01951-02141999999ADDAA106000331AA224000331GA1071+017501999GE19AGL   +99999+99999GF107991071999017501999999MA1999999070001MD1210071+9999MW1701REMSYN07652787 11780 72905 11195 21214 37000 52007 69931 770// 87/// 333 00058 70003=
0163527870999992019013003004+37200+102870FM-12+304499999V0203201N00301017501C9030000199-01851-02041999999ADDAY171031AY271031GA1071+017501101GA2999+999999101GA3999+999999101GE19AGL   +99999+99999GF107991071999017501999999MA1999999070031MD1210031+9999MW1701REMSYN004BUFR
0227527870999992019013006004+37200+102867FM-12+304499999V0201601N011019999999N030000199-01301-01441999999ADDAA106000231AY171021AY271021GA1071+017501999GE19AGL   +99999+99999GF107991071999017501999999KA1240N-01961MA1999999069831MD1710201+9999MW1701REMSYN07652787 11780 71611 11130 21144 36983 57020 69921 77077 87/// 333 00056 21196=
0163527870999992019013009004+37200+102870FM-12+304499999V0201401N01001017501C9027000199-01321-01521999999ADDAY171031AY271031GA1071+017501101GA2999+999999101GA3999+999999101GE19AGL   +99999+99999GF107991071999017501999999MA1999999069801MD1710031+0001MW1701REMSYN004BUFR
0208527870999992019013012004+37200+102867FM-12+304499999V0203201N006019999999N029000199-02191-02401999999ADDAA106000231AY171021AY271021GA1081+017501999GE19AGL   +99999+99999GF108991081999017501999999MA1999999069961MD1210161+9999MW1701REMSYN07052787 11779 83206 11219 21240 36996 52016 69921 77077 88/// 333 00060=
0183527870999992019013018004+37200+102867FM-12+304499999V0203201N01001002401WN030000199-02261-02471999999ADDAA106000331AY101021AY201021GF109991999999999999999999KA1120M-01231MA1999999070071MD1210031+9999MW1701REMSYN07052787 11/80 93210 11226 21247 37007 52003 69931 77000 333 00058 11123=
0073527870999992019013021004+37200+102870FM-12+304499999V0203601N0100199999999030000199-01941-02141999999ADDAA106999999AA224000931MA1999999070101MD1210031+0201MW1221REMSYN004BUFR
0153527870999992019013100004+37200+102867FM-12+304499999V0202701N001019999999N030000199-02191-02471999999ADDAA112000331AA224000731GF100995999999999999999999MA1999999070231MD1210131+9999REMSYN06452787 12980 02701 11219 21247 37023 52013 69932 333 00252 70007=
0093527870999992019013103004+37200+102870FM-12+304499999V0203201N0020122000199030000199-01171-02491999999ADDAA106999999AA224999999GF100991999999999999999999MA1999999070301MD1210071+9999REMSYN004BUFR
0138527870999992019013106004+37200+102867FM-12+304499999V0201401N001019999999N029000199-00911-01631999999ADDGF100995999999999999999999KA1240N-02311MA1999999070191MD1710111+9999REMSYN05852787 32979 01401 11091 21163 37019 57011 333 00404 21231=
0093527870999992019013109004+37200+102870FM-12+304499999V0201601N0060122000199030000199-00921-01981999999ADDAA106999999AA224999999GF100991999999999999999999MA1999999070191MD1410001+0401REMSYN004BUFR
0119527870999992019013112004+37200+102867FM-12+304499999V0201801N005019999999N030000199-01251-01811999999ADDGF100995999999999999999999MA1999999070211MD1210021+9999REMSYN05252787 32980 01805 11125 21181 37021 52002 333 00309=
0138527870999992019013118004+37200+102867FM-12+304499999V0201401N00301002401WN030000199-01321-02061999999ADDGF109991999999999999999999KA1120M-00701MA1999999070041MD1710141+9999REMSYN05852787 32/80 91403 11132 21206 37004 57014 333 00009 11070=
0067527870999992019013121004+37200+102870FM-12+304499999V0202701N0030199999999030000199-00721-02361999999ADDAA106999999AA224999999MA1999999069861MD1710181-0201REMSYN004BUFR
0119527870999992019020100004+37200+102867FM-12+304499999V0202201N004019999999N030000199-00601-02541999999ADDGF100995999999999999999999MA1999999069721MD1710141+9999REMSYN05252787 32780 02204 11060 21254 36972 57014 333 05516=
0093527870999992019020103004+37200+102870FM-12+304499999V0201801N0050122000199029000199+00171-02381999999ADDAA106999999AA224999999GF100991999999999999999999MA1999999069541MD1710181+9999REMSYN004BUFR
0182527870999992019020106004+37200+102867FM-12+304499999V0201801N005012200019N029000199+00301-01561999999ADDGA1031+999999999GE19AGL   +99999+99999GF103991031999999999999999KA1240N-01651MA1999999069221MD1710321+9999REMSYN06452787 32979 31805 10030 21156 36922 57032 83/// 333 06012 21165=
0163527870999992019020109004+37200+102870FM-12+304499999V0202501N00601026001C9026000199+00521-01421999999ADDAA106999999AA224999999GA1071+026001101GA2999+999999101GA3999+999999101GE19AGL   +99999+99999GF107991071999026001999999MA1999999069121MD1710101-1101REMSYN004BUFR
0119527870999992019020112004+37200+102867FM-12+304499999V0203201N007019999999N030000199-01112-01701999999ADDGF100995999999999999999999MA1999999069231MD1210111+9999REMSYN05252787 32980 03207 11111 21170 36923 52011 333 06001=
0164527870999992019020118004+37200+102867FM-12+304499999V0203401N01101002401WN030000199-01071-02291999999ADDGF109991999999999999999999KA1120M+00611MA1999999069301MD1210041+9999OD139901801320REMSYN07052787 32/80 93411 11107 21229 36930 52004 333 05703 10061 91118 91532=
0067527870999992019020121004+37200+102870FM-12+304499999V0203201N0080199999999030000199-01351-02071999999ADDAA106999999AA224999999MA1999999069251MD1710051-0601REMSYN004BUFR
0163527870999992019020200004+37200+102867FM-12+304499999V0203201N011019999999N030000199-01571-02131999999ADDGA1071+017501999GE19AGL   +99999+99999GF107991071999017501999999MA1999999069341MD1210091+9999REMSYN05852787 32780 73211 11157 21213 36934 52009 87/// 333 05460=
0163527870999992019020203004+37200+102870FM-12+304499999V0203401N00801017501C9030000199-01121-02041999999ADDAA106999999AA224999999GA1071+017501101GA2999+999999101GA3999+999999101GE19AGL   +99999+99999GF107991071999017501999999MA1999999069461MD1210121+9999REMSYN004BUFR
0182527870999992019020206004+37200+102867FM-12+304499999V0203401N007019999999N030000199-00761-01951999999ADDGA1071+017501999GE19AGL   +99999+99999GF107991071999017501999999KA1240N-01661MA1999999069471MD1210011+9999REMSYN06452787 32780 73407 11076 21195 36947 52001 87/// 333 00361 21166=
0163527870999992019020209004+37200+102870FM-12+304499999V0203601N00701017501C9030000199-00971-01691999999ADDAA106999999AA224999999GA1071+017501101GA2999+999999101GA3999+999999101GE19AGL   +99999+99999GF107991071999017501999999MA1999999069581MD1210111+0501REMSYN004BUFR
0208527870999992019020212004+37200+102867FM-12+304499999V0200201N009019999999N030000199-01351-01751999999ADDAA106000021AY171021AY201021GA1071+017501999GE19AGL   +99999+99999GF107991071999017501999999MA1999999069901MD1210321+9999MW1701REMSYN07052787 11780 70209 11135 21175 36990 52032 69901 77070 87/// 333 00752=
0166527870999992019020218004+37200+102867FM-12+304499999V0203401N00401002401WN030000199-01621-01771999999ADDAY101021AY201021GF109991999999999999999999KA1120M-00701MA1999999070111MD1210051+9999MW1221REMSYN06452787 31/80 93404 11162 21177 37011 52005 72200 333 00856 11070=
0073527870999992019020221004+37200+102870FM-12+304499999V0203201N0020199999999030000199-01601-01751999999ADDAA106999999AA224999999MA1999999070071MD1710041+0801MW1701REMSYN004BUFR
0209527870999992019020300004+37200+102867FM-12+304499999V0201601N004019999999N030000199-01751-01921999999ADDAA112000021AA224000021GA1071+017501999GE19AGL   +99999+99999GF107991071999017501999999MA1999999070111MD1210041+9999MW1701REMSYN07652787 11780 71604 11175 21192 37011 52004 69902 770// 87/// 333 00852 79999=
0163527870999992019020303004+37200+102870FM-12+304499999V0201601N00901026001C9030000199-01271-01391999999ADDAY171031AY271031GA1071+026001101GA2999+999999101GA3999+999999101GE19AGL   +99999+99999GF107991071999026001999999MA1999999070221MD1210111+9999MW1701REMSYN004BUFR
0227527870999992019020306004+37200+102867FM-12+304499999V0201601N007019999999N030000199-00871-01411999999ADDAA106000131AY171021AY271021GA1071+012501999GE19AGL   +99999+99999GF107991071999012501999999KA1240N-01781MA1999999070041MD1710181+9999MW1221REMSYN07652787 11680 71607 11087 21141 37004 57018 69911 72277 87/// 333 00651 21178=
0163527870999992019020309004+37200+102870FM-12+304499999V0201601N00601012501C9030000199-00871-01361999999ADDAA106999999AA224999999GA1051+012501101GA2999+999999101GA3999+999999101GE19AGL   +99999+99999GF105991051999012501999999MA1999999070021MD1710021+0401REMSYN004BUFR
0163527870999992019020312004+37200+102867FM-12+304499999V0201601N007019999999N030000199-01131-01391999999ADDGA1071+999999999GE19AGL   +99999+99999GF107991071999999999999999MA1999999070081MD1210061+9999REMSYN05852787 32980 71607 11113 21139 37008 52006 87/// 333 00202=
0138527870999992019020318004+37200+102867FM-12+304499999V0209999C99999002401WN030000199-01371-01561999999ADDGF109991999999999999999999KA1120M-00691MA1999999070091MD1710041+9999REMSYN05852787 32/80 90000 11137 21156 37009 57004 333 00003 11069=
0067527870999992019020321004+37200+102870FM-12+304499999V0201401N0020199999999030000199-01451-01751999999ADDAA106999999AA224000131MA1999999069991MD1710101-0101REMSYN004BUFR
0136527870999992019020400004+37200+102867FM-12+304499999V0203201N007019999999N030000199-01021-02701999999ADDAA124000131GF100995999999999999999999MA1999999069931MD1710061+9999REMSYN05852787 32980 03207 11102 21270 36993 57006 333 05207 70001=
0093527870999992019020403004+37200+102870FM-12+304499999V0202901N0080122000199030000199-00621-02561999999ADDAA106999999AA224999999GF100991999999999999999999MA1999999069981MD1210051+9999REMSYN004BUFR
0164527870999992019020406004+37200+102867FM-12+304499999V0203201N012019999999N030000199-00321-02701999999ADDGF100995999999999999999999KA1240N-01511MA1999999069821MD1710161+9999OD139901901320REMSYN07052787 32680 03212 11032 21270 36982 57016 333 05206 21151 91119 91532=
0163527870999992019020409004+37200+102870FM-12+304499999V0202701N00201012501C9030000199-00421-02141999999ADDAA106999999AA224999999GA1071+012501101GA2999+999999101GA3999+999999101GE19AGL   +99999+99999GF107991071999012501999999MA1999999069821MD1410001-0201REMSYN004BUFR
0189527870999992019020412004+37200+102867FM-12+304499999V0203201N006019999999N030000199-00841-01751999999ADDGA1071+017501999GE19AGL   +99999+99999GF107991071999017501999999MA1999999069891MD1210071+9999OD139902101320REMSYN07052787 32780 73206 11084 21175 36989 52007 87/// 333 05203 91121 91532=
0138527870999992019020418004+37200+102867FM-12+304499999V0201601N00301002401WN030000199-01241-01961999999ADDGF109991999999999999999999KA1120M-00261MA1999999069711MD1710091+9999REMSYN05852787 32/80 91603 11124 21196 36971 57009 333 05401 11026=
0067527870999992019020421004+37200+102870FM-12+304499999V0201601N0020199999999030000199-01221-01971999999ADDAA106999999AA224999999MA1999999069581MD1710131-0401REMSYN004BUFR
0163527870999992019020500004+37200+102867FM-12+304499999V0201601N003019999999N028000199-01141-02051999999ADDGA1071+017501999GE19AGL   +99999+99999GF107991071999017501999999MA1999999069521MD1710061+9999REMSYN05852787 32778 71603 11114 21205 36952 57006 87/// 333 05451=
0163527870999992019020503004+37200+102870FM-12+304499999V0201601N00601017501C9030000199-00771-01971999999ADDAA106999999AA224999999GA1071+017501101GA2999+999999101GA3999+999999101GE19AGL   +99999+99999GF107991071999017501999999MA1999999069511MD1710011+9999REMSYN004BUFR
0182527870999992019020506004+37200+102867FM-12+304499999V0203201N005012200019N030000199-00131-01881999999ADDGA1021+012501999GE19AGL   +99999+99999GF102991021999012501999999KA1240N-01291MA1999999069331MD1710181+9999REMSYN06452787 32680 23205 11013 21188 36933 57018 82/// 333 05502 21129=
0163527870999992019020509004+37200+102870FM-12+304499999V0203201N00601012501C9030000199-00451-01671999999ADDAA106999999AA224999999GA1071+012501101GA2999+999999101GA3999+999999101GE19AGL   +99999+99999GF107991071999012501999999MA1999999069271MD1710061-0601REMSYN004BUFR
0119527870999992019020512004+37200+102867FM-12+304499999V0200201N009019999999N030000199-00881-01861999999ADDGF100995999999999999999999MA1999999069431MD1210161+9999REMSYN05252787 32980 00209 11088 21186 36943 52016 333 05500=
0138527870999992019020518004+37200+102867FM-12+304499999V0203201N00401002401WN030000199-01141-01951999999ADDGF109991999999999999999999KA1120M+00041MA1999999069571MD1710011+9999REMSYN05852787 32/80 93204 11114 21195 36957 57001 333 05101 10004=
0067527870999992019020521004+37200+102870FM-12+304499999V0203601N0050199999999030000199-00971-02201999999ADDAA106999999AA224999999MA1999999069561MD1710011+0001REMSYN004BUFR
0163527870999992019020600004+37200+102867FM-12+304499999V0203401N002019999999N030000199-01161-02121999999ADDGA1071+017501999GE19AGL   +99999+99999GF107991071999017501999999MA1999999069611MD1210051+9999REMSYN05852787 32780 73402 11116 21212 36961 52005 87/// 333 00100=
0163527870999992019020603004+37200+102870FM-12+304499999V0202901N00101026001C9030000199-00691-02021999999ADDAA106999999AA224999999GA1071+026001101GA2999+999999101GA3999+999999101GE19AGL   +99999+99999GF107991071999026001999999MA1999999069731MD1210121+9999REMSYN004BUFR
0182527870999992019020606004+37200+102867FM-12+304499999V0203401N006012200019N029000199-00321-01801999999ADDGA1031+999999999GE19AGL   +99999+99999GF103991031999999999999999KA1240N-01191MA1999999069661MD1710071+9999REMSYN06452787 32979 33406 11032 21180 36966 57007 83/// 333 00352 21119=
0163527870999992019020609004+37200+102870FM-12+304499999V0200201N00901017501C9030000199-00621-01741999999ADDAA106999999AA224999999GA1071+017501101GA2999+999999101GA3999+999999101GE19AGL   +99999+99999GF107991071999017501999999MA1999999069691MD1210031+0401REMSYN004BUFR
0163527870999992019020612004+37200+102867FM-12+304499999V0202901N004019999999N030000199-01211-01721999999ADDGA1071+017501999GE19AGL   +99999+99999GF107991071999017501999999MA1999999069881MD1210191+9999REMSYN05852787 32780 72904 11121 21172 36988 52019 87/// 333 00553=
0164527870999992019020618004+37200+102867FM-12+304499999V0201401N01601002401WN030000199-00991-01661999999ADDGF109991999999999999999999KA1120M-00281MA1999999069671MD1710081+9999OD139902301140REMSYN07052787 32/80 91416 11099 21166 36967 57008 333 00102 11028 91123 91514=
0067527870999992019020621004+37200+102870FM-12+304499999V0201801N0120199999999030000199-01141-01931999999ADDAA106999999AA224999999MA1999999069461MD1710211-0101REMSYN004BUFR
0189527870999992019020700004+37200+102867FM-12+304499999V0201601N005019999999N030000199-01141-01821999999ADDGA1071+017501999GE19AGL   +99999+99999GF107991071999017501999999MA1999999069441MD1710021+9999OD139902001140REMSYN07052787 32780 71605 11114 21182 36944 57002 87/// 333 05200 91120 91514=
0163527870999992019020703004+37200+102870FM-12+304499999V0203201N00901017501C9029000199-00321-01381999999ADDAA106999999AA224999999GA1071+017501101GA2999+999999101GA3999+999999101GE19AGL   +99999+99999GF107991071999017501999999MA1999999069501MD1210061+9999REMSYN004BUFR
0208527870999992019020706004+37200+102867FM-12+304499999V0203601N011019999999N030000199-00341-01641999999ADDGA1071+999999999GE19AGL   +99999+99999GF107991071999999999999999KA1240N-01241MA1999999069561MD1210061+9999OD139901901360REMSYN07652787 32980 73611 11034 21164 36956 52006 87/// 333 05100 21124 91119 91536=
0163527870999992019020709004+37200+102870FM-12+304499999V0203601N01001026001C9029000199-00641-01441999999ADDAA106999999AA224999999GA1071+026001101GA2999+999999101GA3999+999999101GE19AGL   +99999+99999GF107991071999026001999999MA1999999069701MD1210141+0001REMSYN004BUFR
0234527870999992019020712004+37200+102867FM-12+304499999V0200201N007019999999N030000199-01001-01331999999ADDAA106000021AY171021AY201021GA1081+999999999GE19AGL   +99999+99999GF108991081999999999999999MA1999999069871MD1210171+9999MW1701OD139902001340REMSYN08252787 11980 80207 11100 21133 36987 52017 69901 77070 88/// 333 00002 91120 91534=
0138527870999992019020718004+37200+102867FM-12+304499999V0202901N00401002401WN030000199-01241-01371999999ADDGF109991999999999999999999KA1120M+00001MA1999999069821MD1710081+9999REMSYN05852787 32/80 92904 11124 21137 36982 57008 333 00253 10000=
0073527870999992019020721004+37200+102870FM-12+304499999V0203201N0040199999999030000199-01601-01751999999ADDAA106999999AA224999999MA1999999069771MD1710051+0301MW1701REMSYN004BUFR
0209527870999992019020800004+37200+102867FM-12+304499999V0203201N006019999999N030000199-01711-01861999999ADDAA112000021AA224000021GA1081+017501999GE19AGL   +99999+99999GF108991081999017501999999MA1999999069841MD1210071+9999MW1701REMSYN07652787 11780 83206 11171 21186 36984 52007 69902 770// 88/// 333 00456 79999=
0185527870999992019020803004+37200+102870FM-12+304499999V0203201N00401017501C9030000199-01371-01501999999ADDAA106999999AA224999999AY171031AY271031GA1071+017501101GA2999+999999101GA3999+999999101GE19AGL   +99999+99999GF107991071999017501999999MA1999999069941MD1210101+9999MW1701REMSYN004BUFR
0227527870999992019020806004+37200+102867FM-12+304499999V0203201N003019999999N030000199-01021-01151999999ADDAA106000021AY171021AY201021GA1071+017501999GE19AGL   +99999+99999GF107991071999017501999999KA1240N-01721MA1999999069791MD1710151+9999MW1221REMSYN07652787 11780 73203 11102 21115 36979 57015 69901 72270 87/// 333 00257 21172=
0185527870999992019020809004+37200+102870FM-12+304499999V0202901N00201017501C9024000199-01071-01251999999ADDAA106999999AA224999999AY171031AY201031GA1071+017501101GA2999+999999101GA3999+999999101GE19AGL   +99999+99999GF107991071999017501999999MA1999999069791MD1410001+0101MW1701REMSYN004BUFR
0208527870999992019020812004+37200+102867FM-12+304499999V0201401N008019999999N030000199-01191-01581999999ADDAA106000231AY171021AY201021GA1071+017501999GE19AGL   +99999+99999GF107991071999017501999999MA1999999069871MD1210081+9999MW1701REMSYN07052787 11780 71408 11119 21158 36987 52008 69921 77070 87/// 333 00052=
0166527870999992019020818004+37200+102867FM-12+304499999V0201401N01101002401WN030000199-01331-01811999999ADDAY101021AY201021GF109991999999999999999999KA1120M-00771MA1999999069741MD1710111+9999MW1701REMSYN06452787 31/80 91411 11133 21181 36974 57011 77000 333 05151 11077=
0073527870999992019020821004+37200+102870FM-12+304499999V0201401N0020199999999030000199-01501-01741999999ADDAA106999999AA224000231MA1999999069671MD1710071-0101MW1701REMSYN004BUFR
0209527870999992019020900004+37200+102867FM-12+304499999V0203201N006019999999N030000199-01791-01961999999ADDAA112000021AA224000231GA1071+017501999GE19AGL   +99999+99999GF107991071999017501999999MA1999999069731MD1210061+9999MW1701REMSYN07652787 11780 73206 11179 21196 36973 52006 69902 770// 87/// 333 05151 70002=
0163527870999992019020903004+37200+102870FM-12+304499999V0203201N00101017501C9030000199-01621-01771999999ADDAY171031AY271031GA1071+017501101GA2999+999999101GA3999+999999101GE19AGL   +99999+99999GF107991071999017501999999MA1999999069821MD1210091+9999MW1701REMSYN004BUFR
0227527870999992019020906004+37200+102867FM-12+304499999V0203201N004019999999N028000199-01451-01611999999ADDAA106000231AY171021AY271021GA1071+017501999GE19AGL   +99999+99999GF107991071999017501999999KA1240N-01791MA1999999069691MD1710131+9999MW1701REMSYN07652787 11778 73204 11145 21161 36969 57013 69921 77077 87/// 333 05154 21179=
0163527870999992019020909004+37200+102870FM-12+304499999V0203201N00801017501C9030000199-01521-01661999999ADDAY171031AY271031GA1071+017501101GA2999+999999101GA3999+999999101GE19AGL   +99999+99999GF107991071999017501999999MA1999999069681MD1710011-0101MW1701REMSYN004BUFR
0208527870999992019020912004+37200+102867FM-12+304499999V0203201N008019999999N030000199-01781-01951999999ADDAA106000131AY171021AY271021GA1071+017501999GE19AGL   +99999+99999GF107991071999017501999999MA1999999069861MD1210181+9999MW1701REMSYN07052787 11780 73208 11178 21195 36986 52018 69911 77077 87/// 333 00056=
0164527870999992019020918004+37200+102867FM-12+304499999V0203401N00901002401WN030000199-01721-01911999999ADDGF109991999999999999999999KA1120M-01241MA1999999069891MD1710041+9999OD139902001360REMSYN07052787 32/80 93409 11172 21191 36989 57004 333 00254 11124 91120 91536=
0067527870999992019020921004+37200+102870FM-12+304499999V0203601N0090199999999030000199-01351-01931999999ADDAA106999999AA224000331MA1999999069911MD1210021+0201REMSYN004BUFR
0192527870999992019021000004+37200+102867FM-12+304499999V0203601N007019999999N030000199-01591-01931999999ADDAA124000331GA1071+017501999GE19AGL   +99999+99999GF107991071999017501999999MA1999999070031MD1210121+9999MW1701REMSYN07052787 31780 73607 11159 21193 37003 52012 770// 87/// 333 00302 70003=
0163527870999992019021003004+37200+102870FM-12+304499999V0201401N0090122000199030000199-01151-01671999999ADDAA106999999AA224999999GA1031+017501101GA2999+999999101GA3999+999999101GE19AGL   +99999+99999GF103991031999017501999999MA1999999070011MD1710021+9999REMSYN004BUFR
0182527870999992019021006004+37200+102867FM-12+304499999V0201601N007012200019N030000199-00791-01521999999ADDGA1011+012501999GE19AGL   +99999+99999GF101991011999012501999999KA1240N-01781MA1999999069931MD1710081+9999REMSYN06452787 32680 11607 11079 21152 36993 57008 81/// 333 00207 21178=
0093527870999992019021009004+37200+102870FM-12+304499999V0201601N0080122000199030000199-00671-01541999999ADDAA106999999AA224999999GF100991999999999999999999MA1999999069941MD1210011+0301REMSYN004BUFR
0119527870999992019021012004+37200+102867FM-12+304499999V0201601N009019999999N030000199-01061-01591999999ADDGF100995999999999999999999MA1999999070011MD1210071+9999REMSYN05252787 32980 01609 11106 21159 37001 52007 333 00207=
0138527870999992019021018004+37200+102867FM-12+304499999V0201401N00201002401WN030000199-01291-01641999999ADDGF109991999999999999999999KA1120M-00591MA1999999069901MD1710101+9999REMSYN05852787 32/80 91402 11129 21164 36990 57010 333 00004 11059=
0067527870999992019021021004+37200+102870FM-12+304499999V0203401N0030199999999030000199-00751-02101999999ADDAA106999999AA224999999MA1999999069831MD1710071-0101REMSYN004BUFR
0163527870999992019021100004+37200+102867FM-12+304499999V0203201N005012200019N030000199-00721-02221999999ADDGA1011+017501999GE19AGL   +99999+99999GF101991011999017501999999MA1999999069891MD1210061+9999REMSYN05852787 32780 13205 11072 21222 36989 52006 81/// 333 05109=
0093527870999992019021103004+37200+102870FM-12+304499999V0202901N0060122000199029000199-00201-02261999999ADDAA106999999AA224999999GF100991999999999999999999MA1999999069941MD1210051+9999REMSYN004BUFR
0208527870999992019021106004+37200+102867FM-12+304499999V0202901N007012200019N030000199-00021-02111999999ADDGA1031+999999999GE19AGL   +99999+99999GF103991031999999999999999KA1240N-01411MA1999999069811MD1710131+9999OD139902301320REMSYN07652787 32980 32907 11002 21211 36981 57013 83/// 333 05108 21141 91123 91532=
0163527870999992019021109004+37200+102870FM-12+304499999V0203401N00801017501C9029000199-00321-01651999999ADDAA106999999AA224999999GA1051+017501101GA2999+999999101GA3999+999999101GE19AGL   +99999+99999GF105991051999017501999999MA1999999069781MD1710031-0201REMSYN004BUFR
0189527870999992019021112004+37200+102867FM-12+304499999V0203601N010012200019N030000199-01021-02041999999ADDGA1031+999999999GE19AGL   +99999+99999GF103991031999999999999999MA1999999070091MD1210311+9999OD139902001020REMSYN07052787 32980 33610 11102 21204 37009 52031 83/// 333 00100 91120 91502=
0138527870999992019021118004+37200+102867FM-12+304499999V0201601N00201002401WN030000199-01151-01811999999ADDGF109991999999999999999999KA1120M+00101MA1999999070201MD1410001+9999REMSYN05852787 32/80 91602 11115 21181 37020 54000 333 00301 10010=
0067527870999992019021121004+37200+102870FM-12+304499999V0201101N0020199999999030000199-01101-01801999999ADDAA106999999AA224999999MA1999999070201MD1410001+0401REMSYN004BUFR
0119527870999992019021200004+37200+102867FM-12+304499999V0201401N006019999999N030000199-01221-01821999999ADDGF100995999999999999999999MA1999999070221MD1210021+9999REMSYN05252787 32980 01406 11122 21182 37022 52002 333 00355=
0093527870999992019021203004+37200+102870FM-12+304499999V0202701N0010122000199029000199-00201-02271999999ADDAA106999999AA224999999GF100991999999999999999999MA1999999070301MD1210081+9999REMSYN004BUFR
0138527870999992019021206004+37200+102867FM-12+304499999V0202701N005019999999N026000199+00221-01971999999ADDGF100995999999999999999999KA1240N-01431MA1999999070181MD1710121+9999REMSYN05852787 32976 02705 10022 21197 37018 57012 333 00402 21143=
0163527870999992019021209004+37200+102870FM-12+304499999V0201801N00401026001C9027000199+00021-01851999999ADDAA106999999AA224999999GA1071+026001101GA2999+999999101GA3999+999999101GE19AGL   +99999+99999GF107991071999026001999999MA1999999070151MD1710031+0401REMSYN004BUFR
0163527870999992019021212004+37200+102867FM-12+304499999V0202701N002019999999N030000199-00681-01881999999ADDGA1071+017501999GE19AGL   +99999+99999GF107991071999017501999999MA1999999070251MD1210101+9999REMSYN05852787 32780 72702 11068 21188 37025 52010 87/// 333 00203=
0138527870999992019021218004+37200+102867FM-12+304499999V0201601N00301002401WN030000199-00661-01661999999ADDGF109991999999999999999999KA1120M+00271MA1999999070131MD1710071+9999REMSYN05852787 32/80 91603 11066 21166 37013 57007 333 05105 10027=
0067527870999992019021221004+37200+102870FM-12+304499999V0203401N0010199999999030000199-00621-01771999999ADDAA106999999AA224999999MA1999999069941MD1710191-0301REMSYN004BUFR
0163527870999992019021300004+37200+102867FM-12+304499999V0201601N004012200019N030000199-00711-01761999999ADDGA1021+017501999GE19AGL   +99999+99999GF102991021999017501999999MA1999999069861MD1710081+9999REMSYN05852787 32780 21604 11071 21176 36986 57008 82/// 333 05405=
0163527870999992019021303004+37200+102870FM-12+304499999V0202901N0100122000199026000199+00121-01821999999ADDAA106999999AA224999999GA1021+017501101GA2999+999999101GA3999+999999101GE19AGL   +99999+99999GF102991021999017501999999MA1999999069771MD1710091+9999REMSYN004BUFR
0208527870999992019021306004+37200+102867FM-12+304499999V0203201N010019999999N027000199+00361-01921999999ADDGA1071+017501999GE19AGL   +99999+99999GF107991071999017501999999KA1240N-00881MA1999999069571MD1710201+9999OD139901801290REMSYN07652787 32777 73210 10036 21192 36957 57020 87/// 333 05601 21088 91118 91529=
0163527870999992019021309004+37200+102870FM-12+304499999V0202901N00901017501C9026000199+00321-01821999999ADDAA106999999AA224999999GA1071+017501101GA2999+999999101GA3999+999999101GE19AGL   +99999+99999GF107991071999017501999999MA1999999069561MD1710011-0601REMSYN004BUFR
0189527870999992019021312004+37200+102867FM-12+304499999V0203601N014019999999N030000199-00952-01621999999ADDGA1071+017501999GE19AGL   +99999+99999GF107991071999017501999999MA1999999069801MD1210241+9999OD139901901360REMSYN07052787 32780 73614 11095 21162 36980 52024 87/// 333 05553 91119 91536=
0192527870999992019021318004+37200+102867FM-12+304499999V0203201N01101002401WN030000199-01351-01471999999ADDAY101021AY201021GF109991999999999999999999KA1120M+00421MA1999999069901MD1710031+9999MW1701OD139901801360REMSYN07652787 31/80 93211 11135 21147 36990 57003 77000 333 05257 10042 91118 91536=
0073527870999992019021321004+37200+102870FM-12+304499999V0203201N0070199999999030000199-01551-01701999999ADDAA106999999AA224999999MA1999999069921MD1210021+0001MW1701REMSYN004BUFR
0209527870999992019021400004+37200+102867FM-12+304499999V0203201N006019999999N030000199-01661-01811999999ADDAA112000021AA224000021GA1081+017501999GE19AGL   +99999+99999GF108991081999017501999999MA1999999070051MD1210131+9999MW1701REMSYN07652787 11780 83206 11166 21181 37005 52013 69902 770// 88/// 333 00260 79999=
0185527870999992019021403004+37200+102870FM-12+304499999V0203201N00101012501C9030000199-01221-01321999999ADDAA106999999AA224999999AY171031AY271031GA1071+012501101GA2999+999999101GA3999+999999101GE19AGL   +99999+99999GF107991071999012501999999MA1999999070151MD1210101+9999MW1701REMSYN004BUFR
0227527870999992019021406004+37200+102867FM-12+304499999V0203401N006019999999N030000199-00961-01031999999ADDAA106000021AY171021AY201021GA1071+012501999GE19AGL   +99999+99999GF107991071999012501999999KA1240N-01731MA1999999070051MD1710101+9999MW1701REMSYN07652787 11680 73406 11096 21103 37005 57010 69901 77070 87/// 333 00563 21173=
0185527870999992019021409004+37200+102870FM-12+304499999V0203601N00701017501C9030000199-00951-01201999999ADDAA106999999AA224999999AY171031AY271031GA1071+017501101GA2999+999999101GA3999+999999101GE19AGL   +99999+99999GF107991071999017501999999MA1999999070071MD1210021+0501MW1701REMSYN004BUFR
0208527870999992019021412004+37200+102867FM-12+304499999V0201401N005019999999N030000199-01191-01351999999ADDAA106000231AY171021AY271021GA1071+017501999GE19AGL   +99999+99999GF107991071999017501999999MA1999999070241MD1210171+9999MW1701REMSYN07052787 11780 71405 11119 21135 37024 52017 69921 77077 87/// 333 00452=
0183527870999992019021418004+37200+102867FM-12+304499999V0201401N00401002401WN030000199-01451-01571999999ADDAA106000131AY101021AY201021GF109991999999999999999999KA1120M-00801MA1999999070081MD1710101+9999MW1701REMSYN07052787 11/80 91404 11145 21157 37008 57010 69911 77000 333 00251 11080=
0073527870999992019021421004+37200+102870FM-12+304499999V0201601N0030199999999030000199-01551-01691999999ADDAA106999999AA224000331MA1999999069981MD1710101+0101MW1221REMSYN004BUFR
0197527870999992019021500004+37200+102867FM-12+304499999V0201401N003019999999N030000199-01421-01631999999ADDAA112000131AA224000331GA1071+017501999GE19AGL   +99999+99999GF107991071999017501999999MA1999999069991MD1210011+9999REMSYN07052787 12780 71403 11142 21163 36999 52001 69912 87/// 333 05102 70003=
0163527870999992019021503004+37200+102870FM-12+304499999V0201101N0020122000199030000199-00651-01351999999ADDAA106999999AA224999999GA1031+026001101GA2999+999999101GA3999+999999101GE19AGL   +99999+99999GF103991031999026001999999MA1999999070041MD1210051+9999REMSYN004BUFR
0182527870999992019021506004+37200+102867FM-12+304499999V0201601N005012200019N030000199-00381-01931999999ADDGA1021+999999999GE19AGL   +99999+99999GF102991021999999999999999KA1240N-01641MA1999999069941MD1710101+9999REMSYN06452787 32980 21605 11038 21193 36994 57010 82/// 333 05106 21164=
0163527870999992019021509004+37200+102870FM-12+304499999V0203201N0050122000199030000199-00751-01621999999ADDAA106999999AA224999999GA1011+017501101GA2999+999999101GA3999+999999101GE19AGL   +99999+99999GF101991011999017501999999MA1999999069931MD1710011-0101REMSYN004BUFR
0119527870999992019021512004+37200+102867FM-12+304499999V0201401N009019999999N030000199-00951-01781999999ADDGF100995999999999999999999MA1999999069981MD1210051+9999REMSYN05252787 32980 01409 11095 21178 36998 52005 333 05302=
0138527870999992019021518004+37200+102867FM-12+304499999V0201601N00501002401WN030000199-01381-01881999999ADDGF109991999999999999999999KA1120M-00281MA1999999069901MD1710111+9999REMSYN05852787 32/80 91605 11138 21188 36990 57011 333 05201 11028=
0067527870999992019021521004+37200+102870FM-12+304499999V0201601N0050199999999030000199-01401-01871999999ADDAA106999999AA224999999MA1999999069761MD1710141-0201REMSYN004BUFR
0163527870999992019021600004+37200+102867FM-12+304499999V0201601N005019999999N030000199-01351-01591999999ADDGA1071+017501999GE19AGL   +99999+99999GF107991071999017501999999MA1999999069731MD1710031+9999REMSYN05852787 32780 71605 11135 21159 36973 57003 87/// 333 05301=
0163527870999992019021603004+37200+102870FM-12+304499999V0201601N00501017501C9030000199-00971-01441999999ADDAA106999999AA224999999GA1071+017501101GA2999+999999101GA3999+999999101GE19AGL   +99999+99999GF107991071999017501999999MA1999999069751MD1210021+9999REMSYN004BUFR
0182527870999992019021606004+37200+102867FM-12+304499999V0203201N003019999999N030000199-01151-01701999999ADDGA1081+017501999GE19AGL   +99999+99999GF108991081999017501999999KA1240N-01441MA1999999069681MD1710071+9999REMSYN06452787 32780 83203 11115 21170 36968 57007 88/// 333 05358 21144=
0163527870999992019021609004+37200+102870FM-12+304499999V0203201N01101017501C9030000199-01221-01891999999ADDAA106999999AA224999999GA1071+017501101GA2999+999999101GA3999+999999101GE19AGL   +99999+99999GF107991071999017501999999MA1999999069641MD1710041-0301REMSYN004BUFR
0163527870999992019021612004+37200+102867FM-12+304499999V0203201N009019999999N030000199-01751-02141999999ADDGA1071+017501999GE19AGL   +99999+99999GF107991071999017501999999MA1999999069801MD1210161+9999REMSYN05852787 32780 73209 11175 21214 36980 52016 87/// 333 05258=
0138527870999992019021618004+37200+102867FM-12+304499999V0203201N00401002401WN030000199-01571-02031999999ADDGF109991999999999999999999KA1120M-00741MA1999999069841MD1710061+9999REMSYN05852787 32/80 93204 11157 21203 36984 57006 333 05152 11074=
0067527870999992019021621004+37200+102870FM-12+304499999V0203201N0070199999999030000199-01601-02021999999ADDAA106999999AA224999999MA1999999069721MD1710121+0001REMSYN004BUFR
0163527870999992019021700004+37200+102867FM-12+304499999V0202901N005012200019N030000199-01831-02151999999ADDGA1021+017501999GE19AGL   +99999+99999GF102991021999017501999999MA1999999069741MD1210021+9999REMSYN05852787 32780 22905 11183 21215 36974 52002 82/// 333 00055=
0163527870999992019021703004+37200+102870FM-12+304499999V0203201N00701026001C9030000199-01121-02131999999ADDAA106999999AA224999999GA1071+026001101GA2999+999999101GA3999+999999101GE19AGL   +99999+99999GF107991071999026001999999MA1999999069761MD1210021+9999REMSYN004BUFR
0182527870999992019021706004+37200+102867FM-12+304499999V0203401N009019999999N030000199-00971-02021999999ADDGA1071+012501999GE19AGL   +99999+99999GF107991071999012501999999KA1240N-01841MA1999999069591MD1710171+9999REMSYN06452787 32680 73409 11097 21202 36959 57017 87/// 333 05102 21184=
0185527870999992019021709004+37200+102870FM-12+304499999V0200201N00801017501C9030000199-01171-01861999999ADDAA106999999AA224999999AY101031AY201031GA1071+017501101GA2999+999999101GA3999+999999101GE19AGL   +99999+99999GF107991071999017501999999MA1999999069521MD1710071-0101MW1701REMSYN004BUFR
0208527870999992019021712004+37200+102867FM-12+304499999V0203201N005019999999N030000199-01481-01961999999ADDAA106000131AY171021AY201021GA1081+017501999GE19AGL   +99999+99999GF108991081999017501999999MA1999999069641MD1210121+9999MW1701REMSYN07052787 11780 83205 11148 21196 36964 52012 69911 77070 88/// 333 05203=
0166527870999992019021718004+37200+102867FM-12+304499999V0201601N00801002401WN030000199-01541-01681999999ADDAY101021AY201021GF109991999999999999999999KA1120M-00881MA1999999069421MD1710231+9999MW1701REMSYN06452787 31/80 91608 11154 21168 36942 57023 77000 333 05400 11088=
0067527870999992019021721004+37200+102870FM-12+304499999V0201401N0030199999999027000199-01651-01801999999ADDAA106999999AA224000131MA1999999069311MD1710111-0401REMSYN004BUFR
0197527870999992019021800004+37200+102867FM-12+304499999V0201401N002019999999N029000199-01581-01781999999ADDAA112000021AA224000131GA1071+017501999GE19AGL   +99999+99999GF107991071999017501999999MA1999999069281MD1710031+9999REMSYN07052787 12779 71402 11158 21178 36928 57003 69902 87/// 333 05503 70001=
0163527870999992019021803004+37200+102870FM-12+304499999V0203201N00701026001C9030000199-00921-01471999999ADDAA106999999AA224999999GA1071+026001101GA2999+999999101GA3999+999999101GE19AGL   +99999+99999GF107991071999026001999999MA1999999069311MD1210031+9999REMSYN004BUFR
0182527870999992019021806004+37200+102867FM-12+304499999V0203401N008019999999N030000199-00721-01661999999ADDGA1071+999999999GE19AGL   +99999+99999GF107991071999999999999999KA1240N-01681MA1999999069241MD1710071+9999REMSYN06452787 32980 73408 11072 21166 36924 57007 87/// 333 05403 21168=
0163527870999992019021809004+37200+102870FM-12+304499999V0203601N00701017501C9028000199-00741-01731999999ADDAA106999999AA224999999GA1071+017501101GA2999+999999101GA3999+999999101GE19AGL   +99999+99999GF107991071999017501999999MA1999999069281MD1210041-0201REMSYN004BUFR
0119527870999992019021812004+37200+102867FM-12+304499999V0202901N003019999999N030000199-01331-01871999999ADDGF100995999999999999999999MA1999999069461MD1210181+9999REMSYN05252787 32980 02903 11133 21187 36946 52018 333 05202=
0138527870999992019021818004+37200+102867FM-12+304499999V0201601N00501002401WN030000199-01461-01761999999ADDGF109991999999999999999999KA1120M-00471MA1999999069511MD1210021+9999REMSYN05852787 32/80 91605 11146 21176 36951 52002 333 00101 11047=
0067527870999992019021821004+37200+102870FM-12+304499999V0201401N0050199999999030000199-01471-01711999999ADDAA106999999AA224999999MA1999999069381MD1710131+0101REMSYN004BUFR
0119527870999992019021900004+37200+102867FM-12+304499999V0201601N005019999999N030000199-01421-01661999999ADDGF100995999999999999999999MA1999999069411MD1210031+9999REMSYN05252787 32980 01605 11142 21166 36941 52003 333 00102=
0093527870999992019021903004+37200+102870FM-12+304499999V0201601N0070122000199030000199-00521-01331999999ADDAA106999999AA224999999GF100991999999999999999999MA1999999069471MD1210061+9999REMSYN004BUFR
0138527870999992019021906004+37200+102867FM-12+304499999V0201601N006019999999N029000199-00101-01561999999ADDGF100995999999999999999999KA1240N-01581MA1999999069421MD1710051+9999REMSYN05852787 32979 01606 11010 21156 36942 57005 333 00206 21158=
0093527870999992019021909004+37200+102870FM-12+304499999V0203601N0090122000199029000199-00191-01721999999ADDAA106999999AA224999999GF100991999999999999999999MA1999999069491MD1210071+0201REMSYN004BUFR
0163527870999992019021912004+37200+102867FM-12+304499999V0202901N003019999999N030000199-00981-01691999999ADDGA1071+999999999GE19AGL   +99999+99999GF107991071999999999999999MA1999999069771MD1210281+9999REMSYN05852787 32980 72903 11098 21169 36977 52028 87/// 333 00304=
0138527870999992019021918004+37200+102867FM-12+304499999V0201401N00301002401WN030000199-00911-01511999999ADDGF109991999999999999999999KA1120M+00161MA1999999069871MD1210011+9999REMSYN05852787 32/80 91403 11091 21151 36987 52001 333 00406 10016=
0067527870999992019021921004+37200+102870FM-12+304499999V0201601N0030199999999030000199-00971-01471999999ADDAA106999999AA224999999MA1999999069751MD1710121+0401REMSYN004BUFR
0119527870999992019022000004+37200+102867FM-12+304499999V0201601N004019999999N030000199-01041-01611999999ADDGF100995999999999999999999MA1999999069791MD1210041+9999REMSYN05252787 32780 01604 11104 21161 36979 52004 333 00404=
0163527870999992019022003004+37200+102870FM-12+304499999V0201601N0060122000199029000199-00451-01351999999ADDAA106999999AA224999999GA1031+026001101GA2999+999999101GA3999+999999101GE19AGL   +99999+99999GF103991031999026001999999MA1999999069921MD1210131+9999REMSYN004BUFR
0182527870999992019022006004+37200+102867FM-12+304499999V0201601N007019999999N029000199-00131-01171999999ADDGA1071+999999999GE19AGL   +99999+99999GF107991071999999999999999KA1240N-01081MA1999999069921MD1410001+9999REMSYN06452787 32979 71607 11013 21117 36992 54000 87/// 333 00500 21108=
0163527870999992019022009004+37200+102870FM-12+304499999V0203201N01101026001C9029000199-00591-01491999999ADDAA106999999AA224999999GA1071+026001101GA2999+999999101GA3999+999999101GE19AGL   +99999+99999GF107991071999026001999999MA1999999070031MD1210111+0501REMSYN004BUFR
0227527870999992019022012004+37200+102867FM-12+304499999V0203201N006019999999N030000199-00941-01521999999ADDAA106000091AY171021AY201021GA1081+017501999GE19AGL   +99999+99999GF108991081999017501999999MA1999999070291MD1210261+9999MW1001REMSYN07052787 11780 83206 11094 21152 37029 52026 69901 70070 88/// 333 00500=EQDQ01  00002PRCP06
0166527870999992019022018004+37200+102867FM-12+304499999V0201601N00501002401WN030000199-01011-01161999999ADDAY101021AY201021GF109991999999999999999999KA1120M-00021MA1999999070291MD1710111+9999MW1701REMSYN06452787 31/80 91605 11101 21116 37029 57011 77000 333 00451 11002=
0073527870999992019022021004+37200+102870FM-12+304499999V0201401N0090199999999030000199-00901-00951999999ADDAA106999999AA224999999MA1999999070151MD1710141+0401MW1701REMSYN004BUFR
0197527870999992019022100004+37200+102867FM-12+304499999V0201601N003019999999N023000199-01011-01061999999ADDAA112000021AA224000021GA1071+017501999GE19AGL   +99999+99999GF107991071999017501999999MA1999999070191MD1210041+9999REMSYN07052787 12773 71603 11101 21106 37019 52004 69902 87/// 333 00400 79999=
0163527870999992019022103004+37200+102870FM-12+304499999V0202901N00501026001C9029000199-00201-01091999999ADDAA106999999AA224999999GA1071+026001101GA2999+999999101GA3999+999999101GE19AGL   +99999+99999GF107991071999026001999999MA1999999070231MD1210041+9999REMSYN004BUFR
0182527870999992019022106004+37200+102867FM-12+304499999V0200201N006019999999N029000199+00071-02161999999ADDGA1071+012501999GE19AGL   +99999+99999GF107991071999012501999999KA1240N-01081MA1999999070101MD1710131+9999REMSYN06452787 32679 70206 10007 21216 37010 57013 87/// 333 00202 21108=
0163527870999992019022109004+37200+102870FM-12+304499999V0200201N00601017501C9029000199-00171-02181999999ADDAA106999999AA224999999GA1071+017501101GA2999+999999101GA3999+999999101GE19AGL   +99999+99999GF107991071999017501999999MA1999999070091MD1710011+0101REMSYN004BUFR
0163527870999992019022112004+37200+102867FM-12+304499999V0201401N004019999999N029000199-00461-01681999999ADDGA1071+017501999GE19AGL   +99999+99999GF107991071999017501999999MA1999999070151MD1210061+9999REMSYN05852787 32779 71404 11046 21168 37015 52006 87/// 333 05105=
0138527870999992019022118004+37200+102867FM-12+304499999V0201601N00701002401WN030000199-00821-01401999999ADDGF109991999999999999999999KA1120M+00131MA1999999070001MD1710151+9999REMSYN05852787 32/80 91607 11082 21140 37000 57015 333 05302 10013=
0067527870999992019022121004+37200+102870FM-12+304499999V0201601N0030199999999030000199-00921-01331999999ADDAA106999999AA224999999MA1999999069961MD1710041-0201REMSYN004BUFR
0163527870999992019022200004+37200+102867FM-12+304499999V0203201N007019999999N030000199-00941-01371999999ADDGA1071+017501999GE19AGL   +99999+99999GF107991071999017501999999MA1999999070061MD1210101+9999REMSYN05852787 32780 73207 11094 21137 37006 52010 87/// 333 05101=
0163527870999992019022203004+37200+102870FM-12+304499999V0203401N00701017501C9029000199-00521-01201999999ADDAA106999999AA224999999GA1071+017501101GA2999+999999101GA3999+999999101GE19AGL   +99999+99999GF107991071999017501999999MA1999999070211MD1210151+9999REMSYN004BUFR
0182527870999992019022206004+37200+102867FM-12+304499999V0203401N007019999999N028000199-00311-01111999999ADDGA1071+012501999GE19AGL   +99999+99999GF107991071999012501999999KA1240N-01071MA1999999070131MD1710081+9999REMSYN06452787 32678 73407 11031 21111 37013 57008 87/// 333 00054 21107=
0185527870999992019022209004+37200+102870FM-12+304499999V0203601N00601017501C9026000199-00571-00941999999ADDAA106999999AA224999999AY171031AY201031GA1081+017501101GA2999+999999101GA3999+999999101GE19AGL   +99999+99999GF108991081999017501999999MA1999999070211MD1210081+0101MW1701REMSYN004BUFR
0208527870999992019022212004+37200+102867FM-12+304499999V0203201N003019999999N030000199-00771-00881999999ADDAA106000131AY171021AY201021GA1081+017501999GE19AGL   +99999+99999GF108991081999017501999999MA1999999070351MD1210141+9999MW1701REMSYN07052787 11780 83203 11077 21088 37035 52014 69911 77070 88/// 333 00253=
0166527870999992019022218004+37200+102867FM-12+304499999V0201401N01001002401WN030000199-00771-00981999999ADDAY101021AY201021GF109991999999999999999999KA1120M-00231MA1999999070211MD1710121+9999MW1701REMSYN06452787 31/80 91410 11077 21098 37021 57012 77000 333 00201 11023=
0073527870999992019022221004+37200+102870FM-12+304499999V0201801N0070199999999030000199-00951-01071999999ADDAA106999999AA224000131MA1999999070071MD1710141+0101MW1221REMSYN004BUFR
0197527870999992019022300004+37200+102867FM-12+304499999V0201601N006019999999N030000199-00911-01091999999ADDAA112000021AA224000131GA1071+017501999GE19AGL   +99999+99999GF107991071999017501999999MA1999999070061MD1710011+9999REMSYN07052787 12780 71606 11091 21109 37006 57001 69902 87/// 333 00000 70001=
0163527870999992019022303004+37200+102870FM-12+304499999V0201401N00201017501C9030000199-00721-00951999999ADDAA106999999AA224999999GA1071+017501101GA2999+999999101GA3999+999999101GE19AGL   +99999+99999GF107991071999017501999999MA1999999070111MD1210051+9999REMSYN004BUFR
0227527870999992019022306004+37200+102867FM-12+304499999V0203401N005019999999N029000199-00511-00661999999ADDAA106000131AY171021AY201021GA1071+017501999GE19AGL   +99999+99999GF107991071999017501999999KA1240N-01121MA1999999069971MD1710141+9999MW1701REMSYN07652787 11779 73405 11051 21066 36997 57014 69911 77070 87/// 333 05252 21112=
0163527870999992019022309004+37200+102870FM-12+304499999V0203401N00701017501C9029000199-00801-00911999999ADDAY171031AY271031GA1071+017501101GA2999+999999101GA3999+999999101GE19AGL   +99999+99999GF107991071999017501999999MA1999999069971MD1410001-0201MW1701REMSYN004BUFR
0214527870999992019022312004+37200+102867FM-12+304499999V0203601N007019999999N030000199-01011-01231999999ADDAA106001031AY171021AY271021GA1081+017501999GE19AGL   +99999+99999GF108991081999017501999999MA1999999070111MD1210141+9999MW1701REMSYN07652787 11780 83607 11101 21123 37011 52014 60011 77077 88/// 333 05252 92501=
0189527870999992019022318004+37200+102867FM-12+304499999V0202901N00401002401WN030000199-01161-01241999999ADDAA106000331AY101021AY201021GF109991999999999999999999KA1120M-00361MA1999999070051MD1710111+9999MW1701REMSYN07652787 11/80 92904 11116 21124 37005 57011 69931 77000 333 05254 11036 92501=
0079527870999992019022321004+37200+102870FM-12+304499999V0203201N0050199999999030000199-01121-01211999999ADDAA124001731AJ100019100010099MA1999999069961MD1710091-0101MW1701REMSYN004BUFR
0215527870999992019022400004+37200+102867FM-12+304499999V0203601N004019999999N030000199-01071-01151999999ADDAA106000531AA224002131GA1071+017501999GE19AGL   +99999+99999GF107991071999017501999999MA1999999070011MD1210051+9999MW1701REMSYN08252787 11780 73604 11107 21115 37001 52005 69951 770// 87/// 333 05152 70021 92502=
0180527870999992019022403004+37200+102870FM-12+304499999V0203201N00601017501C9030000199-00991-01061999999ADDAJ100019100010099AY171031AY271031GA1071+017501101GA2999+999999101GA3999+999999101GE19AGL   +99999+99999GF107991071999017501999999MA1999999070091MD1210081+9999MW1701REMSYN004BUFR
0227527870999992019022406004+37200+102867FM-12+304499999V0203401N006019999999N020000199-00711-00851999999ADDAA106000231AY171021AY271021GA1071+017501999GE19AGL   +99999+99999GF107991071999017501999999KA1240N-01201MA1999999069981MD1710111+9999MW1701REMSYN07652787 11770 73406 11071 21085 36998 57011 69921 77077 87/// 333 00052 21120=
0163527870999992019022409004+37200+102870FM-12+304499999V0203601N00601017501C9030000199-00791-01001999999ADDAY171031AY271031GA1071+017501101GA2999+999999101GA3999+999999101GE19AGL   +99999+99999GF107991071999017501999999MA1999999069991MD1210011+0001MW1701REMSYN004BUFR
0208527870999992019022412004+37200+102867FM-12+304499999V0203201N005019999999N030000199-01021-01071999999ADDAA106000831AY171021AY271021GA1081+017501999GE19AGL   +99999+99999GF108991081999017501999999MA1999999070071MD1210081+9999MW1701REMSYN07052787 11780 83205 11102 21107 37007 52008 69981 77077 88/// 333 00000=
0183527870999992019022418004+37200+102867FM-12+304499999V0201401N00901002401WN030000199-01041-01111999999ADDAA106000731AY101021AY201021GF109991999999999999999999KA1120M-00661MA1999999069941MD1710141+9999MW1701REMSYN07052787 11/80 91409 11104 21111 36994 57014 69971 77000 333 05101 11066=
0062527870999992019022421004+37200+102870FM-12+304499999V0201601N0050199999999030000199-01041-01111999999ADDAA124002231MA1999999069841MD1710101-0101MW1701REMSYN004BUFR
0215527870999992019022500004+37200+102867FM-12+304499999V0201601N002019999999N030000199-01051-01121999999ADDAA106000131AA224001831GA1081+017501999GE19AGL   +99999+99999GF108991081999017501999999MA1999999069881MD1210041+9999MW1701REMSYN08252787 11780 81602 11105 21112 36988 52004 69911 770// 88/// 333 05100 31046 70018=
0163527870999992019022503004+37200+102870FM-12+304499999V0203601N00001017501C9030000199-00901-00951999999ADDAY171031AY271031GA1071+017501101GA2999+999999101GA3999+999999101GE19AGL   +99999+99999GF107991071999017501999999MA1999999069981MD1210101+9999MW1701REMSYN004BUFR
0227527870999992019022506004+37200+102867FM-12+304499999V0203401N004019999999N030000199-00811-00851999999ADDAA106000331AY171021AY201021GA1071+017501999GE19AGL   +99999+99999GF107991071999017501999999KA1240N-01131MA1999999069851MD1710131+9999MW1701REMSYN07652787 11780 73404 11081 21085 36985 57013 69931 77070 87/// 333 05151 21113=
0163527870999992019022509004+37200+102870FM-12+304499999V0203401N00601017501C9030000199-00841-00881999999ADDAY171031AY201031GA1071+017501101GA2999+999999101GA3999+999999101GE19AGL   +99999+99999GF107991071999017501999999MA1999999069841MD1710011-0201MW1701REMSYN004BUFR
0208527870999992019022512004+37200+102867FM-12+304499999V0203201N003019999999N030000199-00991-01041999999ADDAA106000231AY171021AY201021GA1081+017501999GE19AGL   +99999+99999GF108991081999017501999999MA1999999069991MD1210151+9999MW1701REMSYN07052787 11780 83203 11099 21104 36999 52015 69921 77070 88/// 333 05100=
0183527870999992019022518004+37200+102867FM-12+304499999V0201601N00201002401WN011000199-00951-00991999999ADDAA106000131AY101021AY201021GF109991999999999999999999KA1120M-00771MA1999999069951MD1710081+9999MW1701REMSYN07052787 11/61 91602 11095 21099 36995 57008 69911 77000 333 00001 11077=
0073527870999992019022521004+37200+102870FM-12+304499999V0201601N0030199999999030000199-01151-01231999999ADDAA106999999AA224000631MA1999999069871MD1710081+0001MW1701REMSYN004BUFR
0197527870999992019022600004+37200+102867FM-12+304499999V0203401N001019999999N030000199-01241-01331999999ADDAA112000131AA224000631GA1071+017501999GE19AGL   +99999+99999GF107991071999017501999999MA1999999069891MD1210021+9999REMSYN07052787 12780 73401 11124 21133 36989 52002 69912 87/// 333 00052 70006=
0163527870999992019022603004+37200+102870FM-12+304499999V0201601N00401017501C9026000199-00901-00981999999ADDAA106999999AA224999999GA1071+017501101GA2999+999999101GA3999+999999101GE19AGL   +99999+99999GF107991071999017501999999MA1999999069961MD1210071+9999REMSYN004BUFR
