0169583380999992019010100004+31150+118583FM-12+001699999V0200201N002019999999N009000199+00081-00231104061ADDGA1081+012501999GE19AGL   +99999+99999GF108991081999012501999999MA1999999103525MD1210181+9999REMSYN06458338 32659 80202 10008 21023 40406 52018 88/// 333 05103 30005=
0163583380999992019010103004+31330+118350FM-12+001699999V0200201N00101017501C9011000199+00201-00231104011ADDAA106999999AA224999999GA1081+017501101GA2999+999999101GA3999+999999101GE19AGL   +99999+99999GF108991081999017501999999MA1999999103475MD1710051+9999REMSYN004BUFR
0176583380999992019010106004+31150+118583FM-12+001699999V0209999C999999999999N016000199+00301-00311103731ADDGA1081+017501999GE19AGL   +99999+99999GF108991081999017501999999KA1240N+00001MA1999999103195MD1710281+9999REMSYN05858338 32766 80000 10030 21031 40373 57028 88/// 333 20000=
0163583380999992019010109004+31330+118350FM-12+001699999V0203601N00001012501C9015000199+00271-00271103761ADDAA106999999AA224999999GA1081+012501101GA2999+999999101GA3999+999999101GE19AGL   +99999+99999GF108991081999012501999999MA1999999103225MD1210031+9999REMSYN004BUFR
0153583380999992019010112004+31150+118583FM-12+001699999V0200901N001019999999N011000199+00191-00101103791ADDGA1081+012501999GE19AGL   +99999+99999GF108991081999012501999999MA1999999103255MD1210031+9999REMSYN04858338 32661 80901 10019 21010 40379 52003 88///=
0132583380999992019010118004+31150+118583FM-12+001699999V0201101N00101002401WN012000199+00151-00191103861ADDGF109991999999999999999999KA1120M+00331MA1999999103325MD1210031+9999REMSYN05258338 32/62 91101 10015 21019 40386 52003 333 10033=
0067583380999992019010121004+31330+118350FM-12+001699999V0200701N0030199999999007000199+00071-00111103731ADDAA106999999AA224999999MA1999999103195MD1710131+9999REMSYN004BUFR
0181583380999992019010200004+31150+118583FM-12+001699999V0200701N003019999999N006000199+00111-00071103761ADDGA1081+012501999GE19AGL   +99999+99999GF108991081999012501999999MA1999999103225MD1210031+9999MW1101REMSYN07058338 31656 80703 10011 21007 40376 52003 710// 88/// 333 05300 30008=
0163583380999992019010203004+31330+118350FM-12+001699999V0201101N00401012501C9008000199+00251-00121103711ADDAA106999999AA224999999GA1081+012501101GA2999+999999101GA3999+999999101GE19AGL   +99999+99999GF108991081999012501999999MA1999999103175MD1710051+9999REMSYN004BUFR
0176583380999992019010206004+31150+118583FM-12+001699999V0200701N004019999999N008000199+00281-00191103461ADDGA1081+012501999GE19AGL   +99999+99999GF108991081999012501999999KA1240N+00061MA1999999102935MD1710251+9999REMSYN05858338 32658 80704 10028 21019 40346 57025 88/// 333 20006=
0163583380999992019010209004+31330+118350FM-12+001699999V0200701N00401012501C9008000199+00271-00191103521ADDAA106999999AA224999999GA1081+012501101GA2999+999999101GA3999+999999101GE19AGL   +99999+99999GF108991081999012501999999MA1999999102995MD1210061+9999REMSYN004BUFR
0189583380999992019010212004+31150+118583FM-12+001699999V0200901N003019999999N008000199+00241-00121103551ADDAA106000091GA1081+004501999GE19AGL   +99999+99999GF108991081999004501999999MA1999999103015MD1210031+9999REMSYN05458338 12458 80903 10024 21012 40355 52003 69901 88///=EQDQ01  00002PRCP06
0160583380999992019010218004+31150+118583FM-12+001699999V0200901N00301002401WN004700199+00211+00031103471ADDAY101021AY201021GF109991999999999999999999KA1120M+00301MA1999999102935MD1710021+9999MW1101REMSYN05858338 31/47 90903 10021 20003 40347 57002 71000 333 10030=
0073583380999992019010221004+31330+118350FM-12+001699999V0200901N0020199999999004300199+00211+00051103381ADDAA106999999AA224999999MA1999999102845MD1710091+9999MW1101REMSYN004BUFR
0250583380999992019010300004+31150+118583FM-12+001699999V0200901N001019999999N003300199+00251+00121103491ADDAA106000091AA224000091GA1081+012501999GE19AGL   +99999+99999GF108991081999012501999999MA1999999102955MD1210111+9999MW1101REMSYN08258338 11633 80901 10025 20012 40349 52011 69901 710// 88/// 333 05301 30017 79999=EQDQ01  00002PRCP06Q02  00002PRCP24
0185583380999992019010303004+31330+118350FM-12+001699999V0201401N00201012501C9004600199+00501+00211103461ADDAA106999999AA224999999AY101031AY201031GA1081+012501101GA2999+999999101GA3999+999999101GE19AGL   +99999+99999GF108991081999012501999999MA1999999102935MD1710031+9999MW1101REMSYN004BUFR
0210583380999992019010306004+31150+118583FM-12+001699999V0201101N003019999999N004800199+00591+00311103131ADDAY101021AY201021GA1081+012501999GE19AGL   +99999+99999GF108991081999012501999999KA1240N+00181MA1999999102611MD1710331+9999MW1101REMSYN07058338 31648 81103 10059 20031 30261 40313 57033 71000 88/// 333 20018=
0185583380999992019010309004+31330+118350FM-12+001699999V0200901N00301012501C9005000199+00601+00341103121ADDAA106999999AA224999999AY101031AY201031GA1081+012501101GA2999+999999101GA3999+999999101GE19AGL   +99999+99999GF108991081999012501999999MA1999999102595MD1710011+9999MW1101REMSYN004BUFR
0181583380999992019010312004+31150+118583FM-12+001699999V0201101N002019999999N006000199+00601+00351103191ADDAY101021AY201021GA1081+012501999GE19AGL   +99999+99999GF108991081999012501999999MA1999999102665MD1210071+9999MW1101REMSYN05458338 31656 81102 10060 20035 40319 52007 71000 88///=
0160583380999992019010318004+31150+118583FM-12+001699999V0200901N00301002401WN003400199+00591+00441102881ADDAY101021AY201021GF109991999999999999999999KA1120M+00621MA1999999102355MD1710091+9999MW1101REMSYN05858338 31/34 90903 10059 20044 40288 57009 71000 333 10062=
0062583380999992019010321004+31330+118350FM-12+001699999V0200201N0010199999999000900199+00501+00461102801ADDAA124003331MA1999999102275MD1710081+9999MW1101REMSYN004BUFR
0215583380999992019010400004+31150+118583FM-12+001699999V0202501N001019999999N000700199+00521+00511102961ADDAA106007031AA224007331GA1081+004501999GE19AGL   +99999+99999GF108991081999004501999999MA1999999102435MD1210161+9999MW1101REMSYN08258338 11407 82501 10052 20051 40296 52016 60071 710// 88/// 333 05503 30046 70073=
0163583380999992019010403004+31330+118350FM-12+001699999V0202701N00201002501C9001800199+00601+00591102951ADDAY101031AY201031GA1081+002501101GA2999+999999101GA3999+999999101GE19AGL   +99999+99999GF108991081999002501999999MA1999999102425MD1710011+9999MW1101REMSYN004BUFR
0227583380999992019010406004+31150+118583FM-12+001699999V0203201N003019999999N002300199+00581+00541102771ADDAA106002031AY101021AY201021GA1081+002501999GE19AGL   +99999+99999GF108991081999002501999999KA1240N+00501MA1999999102261MD1710171+9999MW1101REMSYN07658338 11323 83203 10058 20054 30226 40277 57017 60021 71000 88/// 333 20050=
0163583380999992019010409004+31330+118350FM-12+001699999V0202701N00201002501C9000800199+00551+00511102811ADDAY101031AY201031GA1081+002501101GA2999+999999101GA3999+999999101GE19AGL   +99999+99999GF108991081999002501999999MA1999999102285MD1210031+9999MW1101REMSYN004BUFR
0198583380999992019010412004+31150+118583FM-12+001699999V0203201N002019999999N001700199+00491+00461102921ADDAA106000831AY101021AY201021GA1081+002501999GE19AGL   +99999+99999GF108991081999002501999999MA1999999102395MD1210111+9999MW1101REMSYN06058338 11317 83202 10049 20046 40292 52011 69981 71000 88///=
0177583380999992019010418004+31150+118583FM-12+001699999V0202901N00201002401WN002600199+00411+00371102911ADDAA106000231AY101021AY201021GF109991999999999999999999KA1120M+00611MA1999999102385MD1710011+9999MW1101REMSYN06458338 11/26 92902 10041 20037 40291 57001 69921 71000 333 10061=
0073583380999992019010421004+31330+118350FM-12+001699999V0203201N0030199999999001800199+00371+00341102881ADDAA106999999AA224006831MA1999999102355MD1710031+9999MW1101REMSYN004BUFR
0215583380999992019010500004+31150+118583FM-12+001699999V0203201N002019999999N002100199+00341+00311102971ADDAA106000131AA224002931GA1081+004501999GE19AGL   +99999+99999GF108991081999004501999999MA1999999102445MD1210091+9999MW1101REMSYN08258338 11421 83202 10034 20031 40297 52009 69911 710// 88/// 333 00052 30042 70029=
0163583380999992019010503004+31330+118350FM-12+001699999V0203201N00101004501C9001800199+00361+00321103001ADDAY101031AY201031GA1081+004501101GA2999+999999101GA3999+999999101GE19AGL   +99999+99999GF108991081999004501999999MA1999999102475MD1210031+9999MW1101REMSYN004BUFR
0227583380999992019010506004+31150+118583FM-12+001699999V0202901N002019999999N001900199+00391+00361102841ADDAA106000131AY101021AY201021GA1081+004501999GE19AGL   +99999+99999GF108991081999004501999999KA1240N+00341MA1999999102321MD1710161+9999MW1101REMSYN07658338 11419 82902 10039 20036 30232 40284 57016 69911 71000 88/// 333 20034=
0163583380999992019010509004+31330+118350FM-12+001699999V0202901N00301004501C9001400199+00371+00341102861ADDAY101031AY201031GA1081+004501101GA2999+999999101GA3999+999999101GE19AGL   +99999+99999GF108991081999004501999999MA1999999102335MD1210021+9999MW1101REMSYN004BUFR
0198583380999992019010512004+31150+118583FM-12+001699999V0202901N002019999999N002200199+00341+00311103071ADDAA106000431AY101021AY201021GA1081+004501999GE19AGL   +99999+99999GF108991081999004501999999MA1999999102545MD1210211+9999MW1101REMSYN06058338 11422 82902 10034 20031 40307 52021 69941 71000 88///=
0160583380999992019010518004+31150+118583FM-12+001699999V0202501N00201002401WN002000199+00321+00261103131ADDAY101021AY201021GF109991999999999999999999KA1120M+00411MA1999999102605MD1210021+9999MW1101REMSYN05858338 31/20 92502 10032 20026 40313 52002 71000 333 10041=
0073583380999992019010521004+31330+118350FM-12+001699999V0202901N0020199999999002600199+00271+00151103221ADDAA106999999AA224000631MA1999999102695MD1210091+9999MW1101REMSYN004BUFR
0234583380999992019010600004+31150+118583FM-12+001699999V0200201N002019999999N002700199+00261+00141103141ADDAA106000091AA224000531GA1081+004501999GE19AGL   +99999+99999GF108991081999004501999999MA1999999102615MD1710081+9999MW1101REMSYN08258338 11427 80202 10026 20014 40314 57008 69901 710// 88/// 333 00251 30031 70005=EQDQ01  00002PRCP06
0185583380999992019010603004+31330+118350FM-12+001699999V0200701N00101012501C9006000199+00321+00061103151ADDAA106999999AA224999999AY101031AY201031GA1081+012501101GA2999+999999101GA3999+999999101GE19AGL   +99999+99999GF108991081999012501999999MA1999999102625MD1210011+9999MW1101REMSYN004BUFR
0176583380999992019010606004+31150+118583FM-12+001699999V0200901N003019999999N007000199+00431+00121102951ADDGA1081+012501999GE19AGL   +99999+99999GF108991081999012501999999KA1240N+00231MA1999999102425MD1710201+9999REMSYN05858338 32657 80903 10043 20012 40295 57020 88/// 333 20023=
0185583380999992019010609004+31330+118350FM-12+001699999V0200401N00201012501C9999999999+00411+00181103021ADDAA106999999AA224999999AY101031AY201031GA1081+012501101GA2999+999999101GA3999+999999101GE19AGL   +99999+99999GF108991081999012501999999MA1999999102495MD1210071+9999MW1101REMSYN004BUFR
0181583380999992019010612004+31150+118583FM-12+001699999V0200701N003019999999N004300199+00371+00221103001ADDAY101021AY201021GA1081+012501999GE19AGL   +99999+99999GF108991081999012501999999MA1999999102475MD1710021+9999MW1101REMSYN05458338 31643 80703 10037 20022 40300 57002 71000 88///=
0160583380999992019010618004+31150+118583FM-12+001699999V0200401N00201002401WN003600199+00411+00311102901ADDAY101021AY201021GF109991999999999999999999KA1120M+00491MA1999999102375MD1710051+9999MW1101REMSYN05858338 31/36 90402 10041 20031 40290 57005 71000 333 10049=
0073583380999992019010621004+31330+118350FM-12+001699999V0200701N0020199999999003200199+00421+00331102751ADDAA106999999AA224999999MA1999999102225MD1710151+9999MW1101REMSYN004BUFR
0181583380999992019010700004+31150+118583FM-12+001699999V0200701N003019999999N002800199+00481+00411102721ADDGA1081+012501999GE19AGL   +99999+99999GF108991081999012501999999MA1999999102195MD1710031+9999MW1101REMSYN07058338 31628 80703 10048 20041 40272 57003 710// 88/// 333 05402 30030=
0185583380999992019010703004+31330+118350FM-12+001699999V0200401N00101008001C9002900199+00571+00471102811ADDAA106999999AA224999999AY101031AY201031GA1081+008001101GA2999+999999101GA3999+999999101GE19AGL   +99999+99999GF108991081999008001999999MA1999999102285MD1210091+9999MW1101REMSYN004BUFR
0221583380999992019010706004+31150+118583FM-12+001699999V0200701N004019999999N001800199+00531+00501102671ADDAA106001031AY101021AY201021GA1081+002501999GE19AGL   +99999+99999GF108991081999002501999999KA1240N+00321MA1999999102145MD1710141+9999MW1101REMSYN07058338 11318 80704 10053 20050 40267 57014 60011 71000 88/// 333 20032=
0163583380999992019010709004+31330+118350FM-12+001699999V0200401N00201002501C9002400199+00521+00491102791ADDAY101031AY201031GA1081+002501101GA2999+999999101GA3999+999999101GE19AGL   +99999+99999GF108991081999002501999999MA1999999102265MD1210121+9999MW1101REMSYN004BUFR
0198583380999992019010712004+31150+118583FM-12+001699999V0200401N002019999999N002300199+00521+00491102931ADDAA106002031AY101021AY201021GA1081+002501999GE19AGL   +99999+99999GF108991081999002501999999MA1999999102405MD1210141+9999MW1101REMSYN06058338 11323 80402 10052 20049 40293 52014 60021 71000 88///=
0177583380999992019010718004+31150+118583FM-12+001699999V0200201N00201002401WN001200199+00491+00481103091ADDAA106000631AY101021AY201021GF109991999999999999999999KA1120M+00591MA1999999102565MD1210071+9999MW1101REMSYN06458338 11/12 90202 10049 20048 40309 52007 69961 71000 333 10059=
0062583380999992019010721004+31330+118350FM-12+001699999V0200201N0020199999999001100199+00461+00451103091ADDAA124003731MA1999999102565MD1410001+9999MW1101REMSYN004BUFR
0215583380999992019010800004+31150+118583FM-12+001699999V0200701N003019999999N003500199+00431+00391103181ADDAA106000231AA224003831GA1081+004501999GE19AGL   +99999+99999GF108991081999004501999999MA1999999102655MD1210091+9999MW1101REMSYN08258338 11435 80703 10043 20039 40318 52009 69921 710// 88/// 333 00551 30047 70038=
0163583380999992019010803004+31330+118350FM-12+001699999V0200401N00301004501C9003400199+00451+00371103271ADDAY101031AY201031GA1081+004501101GA2999+999999101GA3999+999999101GE19AGL   +99999+99999GF108991081999004501999999MA1999999102745MD1210091+9999MW1101REMSYN004BUFR
0204583380999992019010806004+31150+118583FM-12+001699999V0200401N003019999999N999999999+00531+00281103171ADDAY101021AY201021GA1081+008001999GE19AGL   +99999+99999GF108991081999008001999999KA1240N+00411MA1999999102645MD1710101+9999MW1101REMSYN06458338 31555 80403 10053 20028 40317 57010 71000 88/// 333 20041=
0185583380999992019010809004+31330+118350FM-12+001699999V0200401N00301008001C9999999999+00511+00191103221ADDAA106999999AA224999999AY101031AY201031GA1081+008001101GA2999+999999101GA3999+999999101GE19AGL   +99999+99999GF108991081999008001999999MA1999999102695MD1210051+9999MW1101REMSYN004BUFR
0181583380999992019010812004+31150+118583FM-12+001699999V0200401N002019999999N003900199+00471+00211103381ADDAY101021AY201021GA1081+008001999GE19AGL   +99999+99999GF108991081999008001999999MA1999999102855MD1210161+9999MW1101REMSYN05458338 31539 80402 10047 20021 40338 52016 71000 88///=
0177583380999992019010818004+31150+118583FM-12+001699999V0200701N00301002401WN000800199+00051+00041103481ADDAA106002031AY101021AY201021GF109991999999999999999999KA1120M+00541MA1999999102945MD1710091+9999MW1281REMSYN06458338 11/08 90703 10005 20004 40348 57009 60021 72800 333 10054=
0062583380999992019010821004+31330+118350FM-12+001699999V0200701N0040199999999003900199+00121+00051103431ADDAA124005131MA1999999102895MD1710051+9999MW1101REMSYN004BUFR
0215583380999992019010900004+31150+118583FM-12+001699999V0200401N004019999999N003800199+00121+00081103441ADDAA106005031AA224007531GA1081+004501999GE19AGL   +99999+99999GF108991081999004501999999MA1999999102905MD1210011+9999MW1101REMSYN08258338 11438 80404 10012 20008 40344 52001 60051 710// 88/// 333 00353 30000 70075=
0163583380999992019010903004+31330+118350FM-12+001699999V0200701N00501004501C9004100199+00151+00101103361ADDAY101031AY201031GA1081+004501101GA2999+999999101GA3999+999999101GE19AGL   +99999+99999GF108991081999004501999999MA1999999102825MD1710091+9999MW1101REMSYN004BUFR
0221583380999992019010906004+31150+118583FM-12+001699999V0200401N004019999999N004800199+00161+00121102981ADDAA106005031AY101021AY201021GA1081+004501999GE19AGL   +99999+99999GF108991081999004501999999KA1240N+00021MA1999999102455MD1710371+9999MW1101REMSYN07058338 11448 80404 10016 20012 40298 57037 60051 71000 88/// 333 20002=
0163583380999992019010909004+31330+118350FM-12+001699999V0200701N00401004501C9004100199+00221+00191102861ADDAY101031AY201031GA1081+004501101GA2999+999999101GA3999+999999101GE19AGL   +99999+99999GF108991081999004501999999MA1999999102335MD1710121+9999MW1101REMSYN004BUFR
0198583380999992019010912004+31150+118583FM-12+001699999V0200701N003019999999N004100199+00241+00211102841ADDAA106005031AY101021AY201021GA1081+004501999GE19AGL   +99999+99999GF108991081999004501999999MA1999999102315MD1710021+9999MW1101REMSYN06058338 11441 80703 10024 20021 40284 57002 60051 71000 88///=
0177583380999992019010918004+31150+118583FM-12+001699999V0209999C99999002401WN002100199+00271+00261102811ADDAA106002031AY101021AY201021GF109991999999999999999999KA1120M+00281MA1999999102285MD1710051+9999MW1101REMSYN06458338 11/21 90000 10027 20026 40281 57005 60021 71000 333 10028=
0062583380999992019010921004+31330+118350FM-12+001699999V0203201N0020199999999002400199+00211+00201102811ADDAA124014231MA1999999102285MD1410001+9999MW1101REMSYN004BUFR
0215583380999992019011000004+31150+118583FM-12+001699999V0209999C999999999999N002700199+00241+00231102871ADDAA106000531AA224011831GA1081+004501999GE19AGL   +99999+99999GF108991081999004501999999MA1999999102345MD1210061+9999MW1101REMSYN08258338 11427 80000 10024 20023 40287 52006 69951 710// 88/// 333 05601 30027 70118=
0163583380999992019011003004+31330+118350FM-12+001699999V0203201N00101008001C9006000199+00321+00271102871ADDAY101031AY201031GA1081+008001101GA2999+999999101GA3999+999999101GE19AGL   +99999+99999GF108991081999008001999999MA1999999102345MD1410001+9999MW1101REMSYN004BUFR
0176583380999992019011006004+31150+118583FM-12+001699999V0203601N002019999999N008000199+00381+00251102651ADDGA1081+008001999GE19AGL   +99999+99999GF108991081999008001999999KA1240N+00161MA1999999102125MD1710221+9999REMSYN05858338 32558 83602 10038 20025 40265 57022 88/// 333 20016=
0185583380999992019011009004+31330+118350FM-12+001699999V0200401N00101004501C9999999999+00351+00251102651ADDAA106999999AA224999999AY101031AY201031GA1081+004501101GA2999+999999101GA3999+999999101GE19AGL   +99999+99999GF108991081999004501999999MA1999999102125MD1410001+9999MW1101REMSYN004BUFR
0217583380999992019011012004+31150+118583FM-12+001699999V0200701N003019999999N002600199+00371+00331102641ADDAA106000091AY101021AY201021GA1081+004501999GE19AGL   +99999+99999GF108991081999004501999999MA1999999102115MD1710011+9999MW1101REMSYN06058338 11426 80703 10037 20033 40264 57001 69901 71000 88///=EQDQ01  00002PRCP06
0177583380999992019011018004+31150+118583FM-12+001699999V0200401N00201002401WN001500199+00391+00381102591ADDAA106001031AY101021AY201021GF109991999999999999999999KA1120M+00401MA1999999102065MD1710071+9999MW1101REMSYN06458338 11/15 90402 10039 20038 40259 57007 60011 71000 333 10040=
0062583380999992019011021004+31330+118350FM-12+001699999V0200401N0020199999999001700199+00401+00391102481ADDAA124001731MA1999999101955MD1710111+9999MW1101REMSYN004BUFR
0215583380999992019011100004+31150+118583FM-12+001699999V0200401N002019999999N002700199+00431+00421102471ADDAA106000531AA224001731GA1081+004501999GE19AGL   +99999+99999GF108991081999004501999999MA1999999101945MD1710011+9999MW1101REMSYN08258338 11427 80402 10043 20042 40247 57001 69951 710// 88/// 333 05402 30041 70017=
0163583380999992019011103004+31330+118350FM-12+001699999V0203201N00101004501C9002400199+00501+00481102471ADDAY101031AY201031GA1081+004501101GA2999+999999101GA3999+999999101GE19AGL   +99999+99999GF108991081999004501999999MA1999999101955MD1410001+9999MW1101REMSYN004BUFR
0221583380999992019011106004+31150+118583FM-12+001699999V0202901N002019999999N999999999+00521+00491102261ADDAA106002031AY101021AY201021GA1081+004501999GE19AGL   +99999+99999GF108991081999004501999999KA1240N+00351MA1999999101745MD1710201+9999MW1101REMSYN07058338 11455 82902 10052 20049 40226 57020 60021 71000 88/// 333 20035=
0163583380999992019011109004+31330+118350FM-12+001699999V0202901N00201004501C9003600199+00471+00451102341ADDAY101031AY201031GA1081+004501101GA2999+999999101GA3999+999999101GE19AGL   +99999+99999GF108991081999004501999999MA1999999101825MD1210071+9999MW1101REMSYN004BUFR
0198583380999992019011112004+31150+118583FM-12+001699999V0202701N002019999999N001900199+00441+00431102471ADDAA106001031AY101021AY201021GA1081+004501999GE19AGL   +99999+99999GF108991081999004501999999MA1999999101945MD1210131+9999MW1101REMSYN06058338 11419 82702 10044 20043 40247 52013 60011 71000 88///=
0177583380999992019011118004+31150+118583FM-12+001699999V0202701N00201002401WN003600199+00371+00361102491ADDAA106000331AY101021AY201021GF109991999999999999999999KA1120M+00531MA1999999101965MD1210021+9999MW1101REMSYN06458338 11/36 92702 10037 20036 40249 52002 69931 71000 333 10053=
0062583380999992019011121004+31330+118350FM-12+001699999V0202901N0020199999999999999999+00351+00301102541ADDAA124003831MA1999999102015MD1210051+9999MW1101REMSYN004BUFR
0215583380999992019011200004+31150+118583FM-12+001699999V0203201N002019999999N004500199+00321+00171102731ADDAA112000331AA224003731GA1081+004501999GE19AGL   +99999+99999GF108991081999004501999999MA1999999102205MD1210191+9999MW1101REMSYN08258338 11445 83202 10032 20017 40273 52019 69932 710// 88/// 333 00351 30032 70037=
0185583380999992019011203004+31330+118350FM-12+001699999V0202501N00301012501C9007000199+00411+00161102751ADDAA106999999AA224999999AY101031AY201031GA1081+012501101GA2999+999999101GA3999+999999101GE19AGL   +99999+99999GF108991081999012501999999MA1999999102225MD1210021+9999MW1101REMSYN004BUFR
0176583380999992019011206004+31150+118583FM-12+001699999V0203401N002019999999N008000199+00501+00171102631ADDGA1081+012501999GE19AGL   +99999+99999GF108991081999012501999999KA1240N+00301MA1999999102105MD1710121+9999REMSYN05858338 32658 83402 10050 20017 40263 57012 88/// 333 20030=
0185583380999992019011209004+31330+118350FM-12+001699999V0203401N00101012501C9007000199+00461+00091102681ADDAA106999999AA224999999AY101031AY201031GA1081+012501101GA2999+999999101GA3999+999999101GE19AGL   +99999+99999GF108991081999012501999999MA1999999102155MD1210051+9999MW1101REMSYN004BUFR
0181583380999992019011212004+31150+118583FM-12+001699999V0200401N002019999999N005000199+00281+00051102731ADDAY101021AY201021GA1081+012501999GE19AGL   +99999+99999GF108991081999012501999999MA1999999102205MD1210051+9999MW1101REMSYN05458338 31650 80402 10028 20005 40273 52005 71000 88///=
0160583380999992019011218004+31150+118583FM-12+001699999V0209999C99999002401WN003700199+00141+00071102751ADDAY101021AY201021GF109991999999999999999999KA1120M+00581MA1999999102225MD1210031+9999MW1101REMSYN05858338 31/37 90000 10014 20007 40275 52003 71000 333 10058=
0073583380999992019011221004+31330+118350FM-12+001699999V0203601N0010199999999001900199+00071+00031102731ADDAA106999999AA224999999MA1999999102205MD1710021+9999MW1101REMSYN004BUFR
0181583380999992019011300004+31150+118583FM-12+001699999V0201101N001019999999N000100199+00051+00041102861ADDGA1081+012501999GE19AGL   +99999+99999GF108991081999012501999999MA1999999102325MD1210131+9999MW1451REMSYN07058338 31601 81101 10005 20004 40286 52013 745// 88/// 333 00153 31003=
0185583380999992019011303004+31330+118350FM-12+001699999V0201401N0020122000199004100199+00551+00341102911ADDAA106999999AA224999999AY101031AY201031GA1021+008001101GA2999+999999101GA3999+999999101GE19AGL   +99999+99999GF102991021999008001999999MA1999999102385MD1210051+9999MW1101REMSYN004BUFR
0132583380999992019011306004+31150+118583FM-12+001699999V0200701N003019999999N008000199+00741+00191102651ADDGF100995999999999999999999KA1240N+00031MA1999999102135MD1710261+9999REMSYN05258338 32958 00703 10074 20019 40265 57026 333 20003=
0115583380999992019011309004+31330+118350FM-12+001699999V0200401N0020122000199006000199+00621+00221102651ADDAA106999999AA224999999AY101031AY201031GF100991999999999999999999MA1999999102135MD1410001+9999MW1101REMSYN004BUFR
0137583380999992019011312004+31150+118583FM-12+001699999V0200701N002019999999N003700199+00351+00191102751ADDAY101021AY201021GF100995999999999999999999MA1999999102225MD1210101+9999MW1101REMSYN04858338 31937 00702 10035 20019 40275 52010 71000=
0160583380999992019011318004+31150+118583FM-12+001699999V0200201N00201002401WN001800199+00151+00091102731ADDAY101021AY201021GF109991999999999999999999KA1120M+00761MA1999999102205MD1210011+9999MW1101REMSYN05858338 31/18 90202 10015 20009 40273 52001 71000 333 10076=
0073583380999992019011321004+31330+118350FM-12+001699999V0200701N0040199999999002100199+00221+00151102581ADDAA106999999AA224999999MA1999999102055MD1710151+9999MW1101REMSYN004BUFR
0181583380999992019011400004+31150+118583FM-12+001699999V0200401N002019999999N002100199+00261+00201102661ADDGA1061+999999999GE19AGL   +99999+99999GF106991061999999999999999MA1999999102135MD1210081+9999MW1101REMSYN07058338 31921 60402 10026 20020 40266 52008 710// 86/// 333 05202 31002=
0185583380999992019011403004+31330+118350FM-12+001699999V0200901N00601026001C9003900199+00571+00281102591ADDAA106999999AA224999999AY101031AY201031GA1071+026001101GA2999+999999101GA3999+999999101GE19AGL   +99999+99999GF107991071999026001999999MA1999999102075MD1710071+9999MW1101REMSYN004BUFR
0204583380999992019011406004+31150+118583FM-12+001699999V0200901N005012200019N999999999+00811+00381102281ADDAY101021AY201021GA1041+999999999GE19AGL   +99999+99999GF104991041999999999999999KA1240N+00121MA1999999101765MD1710301+9999MW1101REMSYN06458338 31955 40905 10081 20038 40228 57030 71000 84/// 333 20012=
0185583380999992019011409004+31330+118350FM-12+001699999V0200701N00301017501C9004300199+00751+00421102301ADDAA106999999AA224999999AY101031AY201031GA1081+017501101GA2999+999999101GA3999+999999101GE19AGL   +99999+99999GF108991081999017501999999MA1999999101785MD1210021+9999MW1101REMSYN004BUFR
0204583380999992019011412004+31150+118583FM-12+001699999V0200201N003019999999N002600199+00601+00481102521ADDAA106000431AY101021AY201021GA1081+008001999GE19AGL   +99999+99999GF108991081999008001999999MA1999999102001MD1210211+9999MW1101REMSYN06658338 11526 80203 10060 20048 30200 40252 52021 69941 71000 88///=
0177583380999992019011418004+31150+118583FM-12+001699999V0203401N00201002401WN001500199+00531+00471102671ADDAA106001031AY101021AY201021GF109991999999999999999999KA1120M+00821MA1999999102145MD1210111+9999MW1101REMSYN06458338 11/15 93402 10053 20047 40267 52011 60011 71000 333 10082=
0062583380999992019011421004+31330+118350FM-12+001699999V0202901N0010199999999000600199+00471+00441102621ADDAA124001831MA1999999102095MD1710051+9999MW1451REMSYN004BUFR
0209583380999992019011500004+31150+118583FM-12+001699999V0203601N002019999999N001000199+00481+00471102861ADDAA106000931AA224002631GA1081+004501999GE19AGL   +99999+99999GF108991081999004501999999MA1999999102335MD1210231+9999MW1101REMSYN07658338 11410 83602 10048 20047 40286 52023 69991 710// 88/// 333 00202 70026=
0163583380999992019011503004+31330+118350FM-12+001699999V0200201N00301004501C9001300199+00501+00461103061ADDAY101031AY201031GA1081+004501101GA2999+999999101GA3999+999999101GE19AGL   +99999+99999GF108991081999004501999999MA1999999102535MD1210201+9999MW1101REMSYN004BUFR
0221583380999992019011506004+31150+118583FM-12+001699999V0203201N002019999999N001400199+00481+00421102951ADDAA106002031AY101021AY201021GA1081+004501999GE19AGL   +99999+99999GF108991081999004501999999KA1240N+00471MA1999999102425MD1710111+9999MW1101REMSYN07058338 11414 83202 10048 20042 40295 57011 60021 71000 88/// 333 20047=
0163583380999992019011509004+31330+118350FM-12+001699999V0203401N00401004501C9001200199+00401+00271103171ADDAY101031AY201031GA1081+004501101GA2999+999999101GA3999+999999101GE19AGL   +99999+99999GF108991081999004501999999MA1999999102645MD1210221+9999MW1101REMSYN004BUFR
0198583380999992019011512004+31150+118583FM-12+001699999V0203401N002019999999N002200199+00391+00131103311ADDAA106000531AY101021AY201021GA1081+004501999GE19AGL   +99999+99999GF108991081999004501999999MA1999999102785MD1210141+9999MW1101REMSYN06058338 11422 83402 10039 20013 40331 52014 69951 71000 88///=
0132583380999992019011518004+31150+118583FM-12+001699999V0200401N00301002401WN010000199+00211-00061103301ADDGF109991999999999999999999KA1120M+00531MA1999999102775MD1710051+9999REMSYN05258338 32/60 90403 10021 21006 40330 57005 333 10053=
0067583380999992019011521004+31330+118350FM-12+001699999V0200701N0020199999999012000199+00151-00161103171ADDAA106999999AA224003031MA1999999102635MD1710131+9999REMSYN004BUFR
0192583380999992019011600004+31150+118583FM-12+001699999V0200701N002019999999N011000199+00071-00221103281ADDAA124002231GA1071+999999999GE19AGL   +99999+99999GF107991071999999999999999MA1999999102761MD1210111+9999REMSYN07658338 32961 70702 10007 21022 30276 40328 52011 87/// 333 00454 31002 70022=
0163583380999992019011603004+31330+118350FM-12+001699999V0201101N0020122000199015000199+00351-00141103211ADDAA106999999AA224999999GA1021+026001101GA2999+999999101GA3999+999999101GE19AGL   +99999+99999GF102991021999026001999999MA1999999102685MD1710071+9999REMSYN004BUFR
0176583380999992019011606004+31150+118583FM-12+001699999V0200201N002019999999N013000199+00441-00141102921ADDGA1071+999999999GE19AGL   +99999+99999GF107991071999999999999999KA1240N+00001MA1999999102395MD1710291+9999REMSYN05858338 32963 70202 10044 21014 40292 57029 87/// 333 20000=
0163583380999992019011609004+31330+118350FM-12+001699999V0203601N00001026001C9011000199+00361-00181102981ADDAA106999999AA224999999GA1071+026001101GA2999+999999101GA3999+999999101GE19AGL   +99999+99999GF107991071999026001999999MA1999999102455MD1210061+9999REMSYN004BUFR
0153583380999992019011612004+31150+118583FM-12+001699999V0201101N001019999999N008000199+00241-00041102971ADDGA1071+999999999GE19AGL   +99999+99999GF107991071999999999999999MA1999999102445MD1710011+9999REMSYN04858338 32958 71101 10024 21004 40297 57001 87///=
0160583380999992019011618004+31150+118583FM-12+001699999V0202501N00101002401WN003100199-00051-00111102981ADDAY101021AY201021GF109991999999999999999999KA1120M+00471MA1999999102445MD1710061+9999MW1101REMSYN05858338 31/31 92501 11005 21011 40298 57006 71000 333 10047=
0073583380999992019011621004+31330+118350FM-12+001699999V0202701N0020199999999002200199-00201-00241102891ADDAA106999999AA224999999MA1999999102355MD1710091+9999MW1101REMSYN004BUFR
0143583380999992019011700004+31150+118583FM-12+001699999V0202501N00101000601WN000200199-00321-00331103091ADDGF109991999999999999999999MA1999999102561MD1210191+9999MW1461REMSYN07058338 31/02 92501 11032 21033 30256 40309 52019 746// 333 05254 31005=
0115583380999992019011703004+31330+118350FM-12+001699999V0202201N0040122000199999999999+00401+00141103031ADDAA106999999AA224999999AY101031AY201031GF100991999999999999999999MA1999999102505MD1710051+9999MW1281REMSYN004BUFR
0132583380999992019011706004+31150+118583FM-12+001699999V0203201N003019999999N014000199+00821-00671102811ADDGF100995999999999999999999KA1240N-00361MA1999999102295MD1710221+9999REMSYN05258338 32964 03203 10082 21067 40281 57022 333 21036=
0093583380999992019011709004+31330+118350FM-12+001699999V0203401N0010122000199011000199+00751-00341102881ADDAA106999999AA224999999GF100991999999999999999999MA1999999102365MD1210071+9999REMSYN004BUFR
0137583380999992019011712004+31150+118583FM-12+001699999V0200701N002019999999N006000199+00231-00031102931ADDAY101021AY201021GF100995999999999999999999MA1999999102405MD1210041+9999MW1101REMSYN04858338 31956 00702 10023 21003 40293 52004 71000=
0132583380999992019011718004+31150+118583FM-12+001699999V0201101N00301002401WN007000199-00011-00151102851ADDGF109991999999999999999999KA1120M+00931MA1999999102315MD1710121+9999REMSYN05258338 32/57 91103 11001 21015 40285 57012 333 10093=
0073583380999992019011721004+31330+118350FM-12+001699999V0201101N0010199999999006000199-00021-00131102741ADDAA106999999AA224999999MA1999999102205MD1710111+9999MW1101REMSYN004BUFR
0137583380999992019011800004+31150+118583FM-12+001699999V0201101N003019999999N999999999+00091-00101102711ADDGF100995999999999999999999MA1999999102185MD1710031+9999MW1101REMSYN06458338 31955 01103 10009 21010 40271 57003 710// 333 05404 31011=
0093583380999992019011803004+31330+118350FM-12+001699999V0201101N0040122000199009000199+00711+00051102601ADDAA106999999AA224999999GF100991999999999999999999MA1999999102085MD1710111+9999REMSYN004BUFR
0132583380999992019011806004+31150+118583FM-12+001699999V0200701N001019999999N011000199+01161+00151102271ADDGF100995999999999999999999KA1240N-00111MA1999999101765MD1710321+9999REMSYN05258338 32961 00701 10116 20015 40227 57032 333 21011=
0093583380999992019011809004+31330+118350FM-12+001699999V0203401N0020122000199011000199+01071+00131102181ADDAA106999999AA224999999GF100991999999999999999999MA1999999101675MD1710091+9999REMSYN004BUFR
0109583380999992019011812004+31150+118583FM-12+001699999V0200401N002019999999N007000199+00601+00191102231ADDGF100995999999999999999999MA1999999101715MD1210041+9999REMSYN04258338 32957 00402 10060 20019 40223 52004=
0160583380999992019011818004+31150+118583FM-12+001699999V0209999C99999002401WN006000199+00591+00311102191ADDAY101021AY201021GF109991999999999999999999KA1120M+01241MA1999999101675MD1710061+9999MW1101REMSYN05858338 31/56 90000 10059 20031 40219 57006 71000 333 10124=
0073583380999992019011821004+31330+118350FM-12+001699999V0203601N0000199999999999999999+00621+00341102151ADDAA106999999AA224999999MA1999999101635MD1710041+9999MW1101REMSYN004BUFR
0181583380999992019011900004+31150+118583FM-12+001699999V0202901N002019999999N004900199+00671+00471102271ADDGA1081+012501999GE19AGL   +99999+99999GF108991081999012501999999MA1999999101755MD1210121+9999MW1101REMSYN07058338 31649 82902 10067 20047 40227 52012 710// 88/// 333 05406 30019=
0163583380999992019011903004+31330+118350FM-12+001699999V0202701N00101004501C9002500199+00661+00561102401ADDAY101031AY201031GA1081+004501101GA2999+999999101GA3999+999999101GE19AGL   +99999+99999GF108991081999004501999999MA1999999101885MD1210131+9999MW1101REMSYN004BUFR
0221583380999992019011906004+31150+118583FM-12+001699999V0202501N002019999999N002700199+00701+00581102171ADDAA106000431AY101021AY201021GA1081+004501999GE19AGL   +99999+99999GF108991081999004501999999KA1240N+00351MA1999999101655MD1710231+9999MW1101REMSYN07058338 11427 82502 10070 20058 40217 57023 69941 71000 88/// 333 20035=
0163583380999992019011909004+31330+118350FM-12+001699999V0202901N00201008001C9002000199+00671+00581102231ADDAY101031AY201031GA1081+008001101GA2999+999999101GA3999+999999101GE19AGL   +99999+99999GF108991081999008001999999MA1999999101715MD1210061+9999MW1101REMSYN004BUFR
0217583380999992019011912004+31150+118583FM-12+001699999V0202501N002019999999N001800199+00561+00521102441ADDAA106000091AY101021AY201021GA1081+004501999GE19AGL   +99999+99999GF108991081999004501999999MA1999999101925MD1210211+9999MW1101REMSYN06058338 11418 82502 10056 20052 40244 52021 69901 71000 88///=EQDQ01  00002PRCP06
0177583380999992019011918004+31150+118583FM-12+001699999V0202901N00301002401WN002300199+00521+00401102791ADDAA106000131AY101021AY201021GF109991999999999999999999KA1120M+00751MA1999999102265MD1210131+9999MW1101REMSYN06458338 11/23 92903 10052 20040 40279 52013 69911 71000 333 10075=
0062583380999992019011921004+31330+118350FM-12+001699999V0202701N0020199999999001500199+00351+00271102871ADDAA124000531MA1999999102345MD1210071+9999MW1101REMSYN004BUFR
0215583380999992019012000004+31150+118583FM-12+001699999V0202901N002019999999N001700199+00371+00271103111ADDAA112000131AA224000531GA1081+012501999GE19AGL   +99999+99999GF108991081999012501999999MA1999999102585MD1210241+9999MW1101REMSYN08258338 11617 82902 10037 20027 40311 52024 69912 710// 88/// 333 00853 30016 70005=
0185583380999992019012003004+31330+118350FM-12+001699999V0200401N0020122000199003400199+00651+00211103151ADDAA106999999AA224999999AY101031AY201031GA1021+008001101GA2999+999999101GA3999+999999101GE19AGL   +99999+99999GF102991021999008001999999MA1999999102625MD1210041+9999MW1101REMSYN004BUFR
0160583380999992019012006004+31150+118583FM-12+001699999V0203201N002019999999N004700199+00801+00051103051ADDAY101021AY201021GF100995999999999999999999KA1240N+00281MA1999999102535MD1710091+9999MW1051REMSYN05858338 31947 03202 10080 20005 40305 57009 70500 333 20028=
0163583380999992019012009004+31330+118350FM-12+001699999V0203401N0020122000199007000199+00671-00191103091ADDAA106999999AA224999999GA1021+026001101GA2999+999999101GA3999+999999101GE19AGL   +99999+99999GF102991021999026001999999MA1999999102575MD1210031+9999REMSYN004BUFR
0109583380999992019012012004+31150+118583FM-12+001699999V0200401N001019999999N011000199+00451-00281103251ADDGF100995999999999999999999MA1999999102725MD1210161+9999REMSYN04258338 32961 00401 10045 21028 40325 52016=
0132583380999992019012018004+31150+118583FM-12+001699999V0202501N00101002401WN008000199+00071-00141103191ADDGF109991999999999999999999KA1120M+00821MA1999999102655MD1710101+9999REMSYN05258338 32/58 92501 10007 21014 40319 57010 333 10082=
0073583380999992019012021004+31330+118350FM-12+001699999V0202201N0020199999999002600199-00071-00151103111ADDAA106999999AA224999999MA1999999102575MD1710081+9999MW1101REMSYN004BUFR
0181583380999992019012100004+31150+118583FM-12+001699999V0202501N001019999999N003200199+00041-00031103121ADDGA1071+999999999GE19AGL   +99999+99999GF107991071999999999999999MA1999999102585MD1210011+9999MW1101REMSYN07058338 31932 72501 10004 21003 40312 52001 710// 87/// 333 00053 31005=
0163583380999992019012103004+31330+118350FM-12+001699999V0202901N0020122000199012000199+00611-00091103111ADDAA106999999AA224999999GA1021+026001101GA2999+999999101GA3999+999999101GE19AGL   +99999+99999GF102991021999026001999999MA1999999102585MD1710011+9999REMSYN004BUFR
0132583380999992019012106004+31150+118583FM-12+001699999V0202701N003019999999N013000199+00851-00191102801ADDGF100995999999999999999999KA1240N-00121MA1999999102285MD1710311+9999REMSYN05258338 32963 02703 10085 21019 40280 57031 333 21012=
0093583380999992019012109004+31330+118350FM-12+001699999V0202901N0020122000199014000199+00751-00561102691ADDAA106999999AA224999999GF100991999999999999999999MA1999999102175MD1710111+9999REMSYN004BUFR
0109583380999992019012112004+31150+118583FM-12+001699999V0202501N001019999999N007000199+00371-00381102711ADDGF100995999999999999999999MA1999999102185MD1210021+9999REMSYN04258338 32957 02501 10037 21038 40271 52002=
0132583380999992019012118004+31150+118583FM-12+001699999V0202901N00201002401WN009000199+00091-00221102671ADDGF109991999999999999999999KA1120M+00901MA1999999102145MD1710071+9999REMSYN05258338 32/59 92902 10009 21022 40267 57007 333 10090=
0067583380999992019012121004+31330+118350FM-12+001699999V0202901N0020199999999010000199+00021-00311102551ADDAA106999999AA224999999MA1999999102025MD1710121+9999REMSYN004BUFR
0125583380999992019012200004+31150+118583FM-12+001699999V0202501N002019999999N008000199+00041-00251102661ADDGF100995999999999999999999MA1999999102135MD1210111+9999REMSYN05858338 32958 02502 10004 21025 40266 52011 333 05500 31011=
0093583380999992019012203004+31330+118350FM-12+001699999V0202201N0040122000199008000199+00821-00151102711ADDAA106999999AA224999999GF100991999999999999999999MA1999999102195MD1210051+9999REMSYN004BUFR
0132583380999992019012206004+31150+118583FM-12+001699999V0202901N006019999999N013000199+01171-00491102471ADDGF100995999999999999999999KA1240N-00031MA1999999101965MD1710231+9999REMSYN05258338 32963 02906 10117 21049 40247 57023 333 21003=
0093583380999992019012209004+31330+118350FM-12+001699999V0202901N0030122000199014000199+01011-00471102421ADDAA106999999AA224999999GF100991999999999999999999MA1999999101905MD1710051+9999REMSYN004BUFR
0109583380999992019012212004+31150+118583FM-12+001699999V0202501N002019999999N011000199+00561-00351102431ADDGF100995999999999999999999MA1999999101915MD1410001+9999REMSYN04258338 32961 02502 10056 21035 40243 54000=
0132583380999992019012218004+31150+118583FM-12+001699999V0202501N00101002401WN012000199+00191-00281102411ADDGF109991999999999999999999KA1120M+01201MA1999999101885MD1210021+9999REMSYN05258338 32/62 92501 10019 21028 40241 52002 333 10120=
0067583380999992019012221004+31330+118350FM-12+001699999V0202001N0010199999999012000199+00111-00281102371ADDAA106999999AA224999999MA1999999101845MD1710041+9999REMSYN004BUFR
0125583380999992019012300004+31150+118583FM-12+001699999V0202001N001019999999N010000199+00131-00181102521ADDGF100995999999999999999999MA1999999101995MD1210141+9999REMSYN05858338 32960 02001 10013 21018 40252 52014 333 05101 31018=
0093583380999992019012303004+31330+118350FM-12+001699999V0202501N0040122000199014000199+01061-00241102571ADDAA106999999AA224999999GF100991999999999999999999MA1999999102055MD1210061+9999REMSYN004BUFR
0132583380999992019012306004+31150+118583FM-12+001699999V0200201N002019999999N014000199+01391-00291102391ADDGF100995999999999999999999KA1240N-00061MA1999999101885MD1710181+9999REMSYN05258338 32964 00202 10139 21029 40239 57018 333 21006=
0093583380999992019012309004+31330+118350FM-12+001699999V0200201N0010122000199013000199+01271-00311102371ADDAA106999999AA224999999GF100991999999999999999999MA1999999101865MD1710021+9999REMSYN004BUFR
0109583380999992019012312004+31150+118583FM-12+001699999V0201401N003019999999N012000199+00621-00191102461ADDGF100995999999999999999999MA1999999101945MD1210081+9999REMSYN04258338 32962 01403 10062 21019 40246 52008=
0160583380999992019012318004+31150+118583FM-12+001699999V0201101N002019999999N999999999+00111-00101102471ADDAY101021AY201021GF109991999999999999999999KA1120M+01461MA1999999101945MD1710011+9999MW1101REMSYN05858338 31/55 91102 10011 21010 40247 57001 71000 333 10146=
0073583380999992019012321004+31330+118350FM-12+001699999V0201101N0020199999999004900199-00051-00171102441ADDAA106999999AA224999999MA1999999101905MD1710031+9999MW1101REMSYN004BUFR
0137583380999992019012400004+31150+118583FM-12+001699999V0201101N002019999999N006000199+00081-00071102561ADDGF100995999999999999999999MA1999999102035MD1210111+9999MW1101REMSYN06458338 31956 01102 10008 21007 40256 52011 710// 333 00051 31017=
0093583380999992019012403004+31330+118350FM-12+001699999V0200701N0030122000199011000199+01101-00061102531ADDAA106999999AA224999999GF100991999999999999999999MA1999999102025MD1710021+9999REMSYN004BUFR
0132583380999992019012406004+31150+118583FM-12+001699999V0200701N004019999999N016000199+01371-00361102221ADDGF100995999999999999999999KA1240N-00151MA1999999101715MD1710311+9999REMSYN05258338 32966 00704 10137 21036 40222 57031 333 21015=
0093583380999992019012409004+31330+118350FM-12+001699999V0201101N0030122000199014000199+01321-00191102141ADDAA106999999AA224999999GF100991999999999999999999MA1999999101635MD1710081+9999REMSYN004BUFR
0109583380999992019012412004+31150+118583FM-12+001699999V0200701N004019999999N008000199+00841+00041102241ADDGF100995999999999999999999MA1999999101725MD1210101+9999REMSYN04258338 32958 00704 10084 20004 40224 52010=
0160583380999992019012418004+31150+118583FM-12+001699999V0201101N00401002401WN004800199+00421+00041102251ADDAY101021AY201021GF109991999999999999999999KA1120M+01461MA1999999101725MD1710091+9999MW1101REMSYN05858338 31/48 91104 10042 20004 40225 57009 71000 333 10146=
0073583380999992019012421004+31330+118350FM-12+001699999V0200401N0030199999999005000199+00521+00011102291ADDAA106999999AA224999999MA1999999101775MD1210041+9999MW1101REMSYN004BUFR
0181583380999992019012500004+31150+118583FM-12+001699999V0201101N001019999999N003600199+00491+00161102551ADDGA1081+017501999GE19AGL   +99999+99999GF108991081999017501999999MA1999999102025MD1210261+9999MW1101REMSYN07058338 31736 81101 10049 20016 40255 52026 710// 88/// 333 00004 30009=
0185583380999992019012503004+31330+118350FM-12+001699999V0200401N00301026001C9004400199+00861+00361102781ADDAA106999999AA224999999AY101031AY201031GA1051+026001101GA2999+999999101GA3999+999999101GE19AGL   +99999+99999GF105991051999026001999999MA1999999102265MD1210231+9999MW1101REMSYN004BUFR
0176583380999992019012506004+31150+118583FM-12+001699999V0200201N004019999999N007000199+01161+00291102751ADDGA1071+999999999GE19AGL   +99999+99999GF107991071999999999999999KA1240N+00331MA1999999102245MD1710031+9999REMSYN05858338 32957 70204 10116 20029 40275 57003 87/// 333 20033=
0163583380999992019012509004+31330+118350FM-12+001699999V0200201N00401026001C9009000199+01061+00221102971ADDAA106999999AA224999999GA1071+026001101GA2999+999999101GA3999+999999101GE19AGL   +99999+99999GF107991071999026001999999MA1999999102455MD1210221+9999REMSYN004BUFR
0153583380999992019012512004+31150+118583FM-12+001699999V0200401N003019999999N009000199+00771+00301103221ADDGA1071+999999999GE19AGL   +99999+99999GF107991071999999999999999MA1999999102705MD1210241+9999REMSYN04858338 32959 70403 10077 20030 40322 52024 87///=
0132583380999992019012518004+31150+118583FM-12+001699999V0200701N00501002401WN015000199+00281-00401103551ADDGF109991999999999999999999KA1120M+01181MA1999999103025MD1210121+9999REMSYN05258338 32/65 90705 10028 21040 40355 52012 333 10118=
0067583380999992019012521004+31330+118350FM-12+001699999V0200701N0010199999999022000199+00061-00461103541ADDAA106999999AA224999999MA1999999103005MD1710011+9999REMSYN004BUFR
0125583380999992019012600004+31150+118583FM-12+001699999V0200401N003019999999N018000199+00011-00471103761ADDGF100995999999999999999999MA1999999103225MD1210221+9999REMSYN05858338 32968 00403 10001 21047 40376 52022 333 01255 31021=
0093583380999992019012603004+31330+118350FM-12+001699999V0200401N0030122000199028000199+00401-00551103711ADDAA106999999AA224999999GF100991999999999999999999MA1999999103185MD1710051+9999REMSYN004BUFR
0176583380999992019012606004+31150+118583FM-12+001699999V0200701N002012200019N030000199+00541-00501103411ADDGA1021+999999999GE19AGL   +99999+99999GF102991021999999999999999KA1240N-00071MA1999999102885MD1710301+9999REMSYN05858338 32980 20702 10054 21050 40341 57030 82/// 333 21007=
0163583380999992019012609004+31330+118350FM-12+001699999V0200401N0020122000199030000199+00511-00451103361ADDAA106999999AA224999999GA1021+026001101GA2999+999999101GA3999+999999101GE19AGL   +99999+99999GF102991021999026001999999MA1999999102835MD1710051+9999REMSYN004BUFR
0153583380999992019012612004+31150+118583FM-12+001699999V0200901N003012200019N019000199+00181-00331103351ADDGA1041+999999999GE19AGL   +99999+99999GF104991041999999999999999MA1999999102815MD1710021+9999REMSYN04858338 32969 40903 10018 21033 40335 57002 84///=
0132583380999992019012618004+31150+118583FM-12+001699999V0201101N00201002401WN011000199-00021-00261103211ADDGF109991999999999999999999KA1120M+00601MA1999999102675MD1710111+9999REMSYN05258338 32/61 91102 11002 21026 40321 57011 333 10060=
0067583380999992019012621004+31330+118350FM-12+001699999V0201101N0030199999999010000199-00121-00291103081ADDAA106999999AA224999999MA1999999102545MD1710131+9999REMSYN004BUFR
0125583380999992019012700004+31150+118583FM-12+001699999V0201101N004019999999N009000199-00041-00261103091ADDGF100995999999999999999999MA1999999102555MD1410001+9999REMSYN05858338 32959 01104 11004 21026 40309 54000 333 05751 31022=
0093583380999992019012703004+31330+118350FM-12+001699999V0201601N0020122000199016000199+00601-00241103061ADDAA106999999AA224999999GF100991999999999999999999MA1999999102535MD1710021+9999REMSYN004BUFR
0132583380999992019012706004+31150+118583FM-12+001699999V0200901N002019999999N018000199+01071-00141102651ADDGF100995999999999999999999KA1240N-00181MA1999999102135MD1710411+9999REMSYN05258338 32968 00902 10107 21014 40265 57041 333 21018=
0163583380999992019012709004+31330+118350FM-12+001699999V0200401N00101026001C9017000199+01001-00181102441ADDAA106999999AA224999999GA1071+026001101GA2999+999999101GA3999+999999101GE19AGL   +99999+99999GF107991071999026001999999MA1999999101925MD1710211+9999REMSYN004BUFR
0153583380999992019012712004+31150+118583FM-12+001699999V0203401N001019999999N013000199+00641+00091102471ADDGA1071+017501999GE19AGL   +99999+99999GF107991071999017501999999MA1999999101955MD1210031+9999REMSYN04858338 32763 73401 10064 20009 40247 52003 87///=
0132583380999992019012718004+31150+118583FM-12+001699999V0201101N00101002401WN008000199+00631+00281102451ADDGF109991999999999999999999KA1120M+01141MA1999999101935MD1710011+9999REMSYN05258338 32/58 91101 10063 20028 40245 57001 333 10114=
0067583380999992019012721004+31330+118350FM-12+001699999V0200201N0010199999999009000199+00621+00301102501ADDAA106999999AA224999999MA1999999101985MD1210051+9999REMSYN004BUFR
0125583380999992019012800004+31150+118583FM-12+001699999V0200401N00201002401WN008000199+00631+00311102681ADDGF109991999999999999999999MA1999999102165MD1210181+9999REMSYN05858338 32/58 90402 10063 20031 40268 52018 333 05407 30039=
0141583380999992019012803004+31330+118350FM-12+001699999V0200701N00201008001C9007000199+00661+00291102721ADDGA1081+008001101GA2999+999999101GA3999+999999101GE19AGL   +99999+99999GF108991081999008001999999MA1999999102205MD1210041+9999REMSYN004BUFR
0212583380999992019012806004+31150+118583FM-12+001699999V0200401N003019999999N007000199+00671+00261102611ADDAA106000091GA1081+008001999GE19AGL   +99999+99999GF108991081999008001999999KA1240N+00521MA1999999102095MD1710111+9999REMSYN06458338 12557 80403 10067 20026 40261 57011 69901 88/// 333 20052=EQDQ01  00002PRCP06
0163583380999992019012809004+31330+118350FM-12+001699999V0200701N00201004501C9003600199+00521+00351102671ADDAY101031AY201031GA1081+004501101GA2999+999999101GA3999+999999101GE19AGL   +99999+99999GF108991081999004501999999MA1999999102145MD1210061+9999MW1101REMSYN004BUFR
0204583380999992019012812004+31150+118583FM-12+001699999V0200701N004019999999N002100199+00461+00371102761ADDAA106002031AY101021AY201021GA1081+004501999GE19AGL   +99999+99999GF108991081999004501999999MA1999999102241MD1210081+9999MW1101REMSYN06658338 11421 80704 10046 20037 30224 40276 52008 60021 71000 88///=
0183583380999992019012818004+31150+118583FM-12+001699999V0200701N00401002401WN002200199+00451+00381102721ADDAA106000831AY101021AY201021GF109991999999999999999999KA1120M+00691MA1999999102211MD1710061+9999MW1101REMSYN07058338 11/22 90704 10045 20038 30221 40272 57006 69981 71000 333 10069=
0062583380999992019012821004+31330+118350FM-12+001699999V0201101N0040199999999002800199+00451+00331102601ADDAA124002431MA1999999102075MD1710131+9999MW1101REMSYN004BUFR
0215583380999992019012900004+31150+118583FM-12+001699999V0200901N003019999999N002300199+00471+00371102741ADDAA106000131AA224002431GA1081+004501999GE19AGL   +99999+99999GF108991081999004501999999MA1999999102215MD1210141+9999MW1101REMSYN08258338 11423 80903 10047 20037 40274 52014 69911 710// 88/// 333 00152 30044 70024=
0185583380999992019012903004+31330+118350FM-12+001699999V0200901N00301008001C9004100199+00651+00421102661ADDAA106999999AA224999999AY101031AY201031GA1081+008001101GA2999+999999101GA3999+999999101GE19AGL   +99999+99999GF108991081999008001999999MA1999999102145MD1710071+9999MW1101REMSYN004BUFR
0204583380999992019012906004+31150+118583FM-12+001699999V0200901N002019999999N999999999+00721+00401102431ADDAY101021AY201021GA1081+012501999GE19AGL   +99999+99999GF108991081999012501999999KA1240N+00441MA1999999101915MD1710231+9999MW1101REMSYN06458338 31655 80902 10072 20040 40243 57023 71000 88/// 333 20044=
0185583380999992019012909004+31330+118350FM-12+001699999V0200901N00201012501C9004900199+00701+00411102451ADDAA106999999AA224999999AY101031AY201031GA1081+012501101GA2999+999999101GA3999+999999101GE19AGL   +99999+99999GF108991081999012501999999MA1999999101935MD1210021+9999MW1101REMSYN004BUFR
0181583380999992019012912004+31150+118583FM-12+001699999V0200401N001019999999N003400199+00671+00491102521ADDAY101021AY201021GA1081+012501999GE19AGL   +99999+99999GF108991081999012501999999MA1999999102005MD1210071+9999MW1101REMSYN05458338 31634 80401 10067 20049 40252 52007 71000 88///=
0160583380999992019012918004+31150+118583FM-12+001699999V0209999C99999002401WN001900199+00651+00561102471ADDAY101021AY201021GF109991999999999999999999KA1120M+00741MA1999999101955MD1710051+9999MW1101REMSYN05858338 31/19 90000 10065 20056 40247 57005 71000 333 10074=
0073583380999992019012921004+31330+118350FM-12+001699999V0200701N0010199999999001400199+00651+00581102351ADDAA106999999AA224999999MA1999999101835MD1710121+9999MW1101REMSYN004BUFR
0244583380999992019013000004+31150+118583FM-12+001699999V0200701N003019999999N001400199+00651+00611102421ADDAA106000091AA224000091GA1081+004501999GE19AGL   +99999+99999GF108991081999004501999999MA1999999101905MD1210071+9999MW1101REMSYN07658338 11414 80703 10065 20061 40242 52007 69901 710// 88/// 333 05302 79999=EQDQ01  00002PRCP06Q02  00002PRCP24
0185583380999992019013003004+31330+118350FM-12+001699999V0200401N00201012501C9003200199+00801+00661102391ADDAA106999999AA224999999AY101031AY201031GA1081+012501101GA2999+999999101GA3999+999999101GE19AGL   +99999+99999GF108991081999012501999999MA1999999101875MD1710031+9999MW1101REMSYN004BUFR
0204583380999992019013006004+31150+118583FM-12+001699999V0200201N003019999999N004300199+00951+00681102071ADDAY101021AY201021GA1081+012501999GE19AGL   +99999+99999GF108991081999012501999999KA1240N+00631MA1999999101565MD1710321+9999MW1101REMSYN06458338 31643 80203 10095 20068 40207 57032 71000 88/// 333 20063=
0185583380999992019013009004+31330+118350FM-12+001699999V0200201N00301012501C9004400199+00861+00661102001ADDAA106999999AA224999999AY101031AY201031GA1081+012501101GA2999+999999101GA3999+999999101GE19AGL   +99999+99999GF108991081999012501999999MA1999999101485MD1710071+9999MW1101REMSYN004BUFR
0181583380999992019013012004+31150+118583FM-12+001699999V0200401N002019999999N002700199+00791+00701101971ADDAY101021AY201021GA1081+012501999GE19AGL   +99999+99999GF108991081999012501999999MA1999999101455MD1710031+9999MW1101REMSYN05458338 31627 80402 10079 20070 40197 57003 71000 88///=
0177583380999992019013018004+31150+118583FM-12+001699999V0203601N00401002401WN003100199+00631+00621101921ADDAA106003031AY101021AY201021GF109991999999999999999999KA1120M+00991MA1999999101405MD1210091+9999MW1101REMSYN06458338 11/31 93604 10063 20062 40192 52009 60031 71000 333 10099=
0056583380999992019013021004+31330+118350FM-12+001699999V0203201N0030199999999008000199+00451+00381102251ADDAA124009331MA1999999101735MD1210331+9999REMSYN004BUFR
0203583380999992019013100004+31150+118583FM-12+001699999V0203401N005019999999N009000199+00131+00091102891ADDAA106010031AA224012931GA1081+004501999GE19AGL   +99999+99999GF108991081999004501999999MA1999999102365MD1210631+9999REMSYN07658338 12459 83405 10013 20009 40289 52063 60101 88/// 333 00555 30022 70129=
0141583380999992019013103004+31330+118350FM-12+001699999V0200201N00301008001C9016000199+00271+00161103141ADDGA1081+008001101GA2999+999999101GA3999+999999101GE19AGL   +99999+99999GF108991081999008001999999MA1999999102615MD1210251+9999REMSYN004BUFR
0193583380999992019013106004+31150+118583FM-12+001699999V0203601N002019999999N020000199+00291+00111103141ADDAA106000331GA1081+008001999GE19AGL   +99999+99999GF108991081999008001999999KA1240N+00111MA1999999102615MD1410001+9999REMSYN06458338 12570 83602 10029 20011 40314 54000 69931 88/// 333 20011=
0163583380999992019013109004+31330+118350FM-12+001699999V0203401N00301008001C9019000199+00301+00061103241ADDAA106999999AA224999999GA1081+008001101GA2999+999999101GA3999+999999101GE19AGL   +99999+99999GF108991081999008001999999MA1999999102715MD1210101+9999REMSYN004BUFR
0189583380999992019013112004+31150+118583FM-12+001699999V0203201N002019999999N008000199+00271+00081103321ADDAA106000091GA1081+008001999GE19AGL   +99999+99999GF108991081999008001999999MA1999999102795MD1210081+9999REMSYN05458338 12558 83202 10027 20008 40332 52008 69901 88///=EQDQ01  00002PRCP06
0132583380999992019013118004+31150+118583FM-12+001699999V0202501N00301002401WN008000199+00231+00001103231ADDGF109991999999999999999999KA1120M+00631MA1999999102705MD1710081+9999REMSYN05258338 32/58 92503 10023 20000 40323 57008 333 10063=
0067583380999992019013121004+31330+118350FM-12+001699999V0202901N0040199999999010000199+00151-00121103181ADDAA106999999AA224003931MA1999999102645MD1710051+9999REMSYN004BUFR
0186583380999992019020100004+31150+118583FM-12+001699999V0202201N002019999999N007000199+00171-00071103211ADDAA124000331GA1081+012501999GE19AGL   +99999+99999GF108991081999012501999999MA1999999102675MD1210031+9999REMSYN07058338 32657 82202 10017 21007 40321 52003 88/// 333 00300 30018 70003=
0185583380999992019020103004+31330+118350FM-12+001699999V0202701N00201026001C9006000199+00371-00091103111ADDAA106999999AA224999999AY101031AY201031GA1071+026001101GA2999+999999101GA3999+999999101GE19AGL   +99999+99999GF107991071999026001999999MA1999999102585MD1710101+9999MW1101REMSYN004BUFR
0204583380999992019020106004+31150+118583FM-12+001699999V0202201N001012200019N007000199+00581-00091102761ADDAY101021AY201021GA1041+999999999GE19AGL   +99999+99999GF104991041999999999999999KA1240N+00141MA1999999102245MD1710351+9999MW1051REMSYN06458338 31957 42201 10058 21009 40276 57035 70500 84/// 333 20014=
0093583380999992019020109004+31330+118350FM-12+001699999V0201101N0030122000199008000199+00571+00061102571ADDAA106999999AA224999999GF100991999999999999999999MA1999999102055MD1710191+9999REMSYN004BUFR
0137583380999992019020112004+31150+118583FM-12+001699999V0200901N003019999999N004700199+00231+00081102441ADDAY101021AY201021GF100995999999999999999999MA1999999101915MD1710131+9999MW1101REMSYN04858338 31/47 00903 10023 20008 40244 57013 71000=
0160583380999992019020118004+31150+118583FM-12+001699999V0202001N00101002401WN003100199+00091+00031102101ADDAY101021AY201021GF109991999999999999999999KA1120M+00711MA1999999101575MD1710201+9999MW1101REMSYN05858338 31/31 92001 10009 20003 40210 57020 71000 333 10071=
0073583380999992019020121004+31330+118350FM-12+001699999V0201101N0020199999999003800199+00251+00141101811ADDAA106999999AA224999999MA1999999101285MD1710281+9999MW1101REMSYN004BUFR
0181583380999992019020200004+31150+118583FM-12+001699999V0201101N002019999999N003700199+00361+00211101751ADDGA1071+999999999GE19AGL   +99999+99999GF107991071999999999999999MA1999999101235MD1710061+9999MW1101REMSYN07058338 31937 71102 10036 20021 40175 57006 710// 87/// 333 06502 31001=
0185583380999992019020203004+31330+118350FM-12+001699999V0201401N00101026001C9006000199+00661+00321101611ADDAA106999999AA224999999AY101031AY201031GA1081+026001101GA2999+999999101GA3999+999999101GE19AGL   +99999+99999GF108991081999026001999999MA1999999101095MD1710141+9999MW1101REMSYN004BUFR
0204583380999992019020206004+31150+118583FM-12+001699999V0200901N002019999999N007000199+00871+00451101271ADDAY101021AY201021GA1081+999999999GE19AGL   +99999+99999GF108991081999999999999999KA1240N+00031MA1999999100765MD1710341+9999MW1101REMSYN06458338 31957 80902 10087 20045 40127 57034 71000 88/// 333 20003=
0163583380999992019020209004+31330+118350FM-12+001699999V0200701N00201026001C9007000199+00901+00491101161ADDAA106999999AA224999999GA1081+026001101GA2999+999999101GA3999+999999101GE19AGL   +99999+99999GF108991081999026001999999MA1999999100655MD1710111+9999REMSYN004BUFR
0181583380999992019020212004+31150+118583FM-12+001699999V0209999C999999999999N999999999+00821+00551101211ADDAY101021AY201021GA1081+999999999GE19AGL   +99999+99999GF108991081999999999999999MA1999999100705MD1210051+9999MW1101REMSYN05458338 31955 80000 10082 20055 40121 52005 71000 88///=
0160583380999992019020218004+31150+118583FM-12+001699999V0202901N00101002401WN003900199+00761+00611101491ADDAY101021AY201021GF109991999999999999999999KA1120M+00971MA1999999100975MD1210141+9999MW1101REMSYN05858338 31/39 92901 10076 20061 40149 52014 71000 333 10097=
0073583380999992019020221004+31330+118350FM-12+001699999V0202701N0020199999999003800199+00761+00621101631ADDAA106999999AA224999999MA1999999101115MD1210141+9999MW1101REMSYN004BUFR
0209583380999992019020300004+31150+118583FM-12+001699999V0203201N002019999999N000900199+00721+00691101921ADDAA106002031AA224002131GA1081+004501999GE19AGL   +99999+99999GF108991081999004501999999MA1999999101405MD1210281+9999MW1101REMSYN07658338 11409 83202 10072 20069 40192 52028 60021 710// 88/// 333 00204 70021=
0163583380999992019020303004+31330+118350FM-12+001699999V0202701N00201002501C9001800199+00721+00701102211ADDAY101031AY201031GA1081+002501101GA2999+999999101GA3999+999999101GE19AGL   +99999+99999GF108991081999002501999999MA1999999101695MD1210291+9999MW1101REMSYN004BUFR
0221583380999992019020306004+31150+118583FM-12+001699999V0202901N003019999999N002600199+00701+00551102281ADDAA106001031AY101021AY201021GA1081+002501999GE19AGL   +99999+99999GF108991081999002501999999KA1240N+00701MA1999999101765MD1210071+9999MW1101REMSYN07058338 11326 82903 10070 20055 40228 52007 60011 71000 88/// 333 20070=
0163583380999992019020309004+31330+118350FM-12+001699999V0202501N00201002501C9002100199+00571+00501102471ADDAY101031AY201031GA1081+002501101GA2999+999999101GA3999+999999101GE19AGL   +99999+99999GF108991081999002501999999MA1999999101955MD1210191+9999MW1101REMSYN004BUFR
0198583380999992019020312004+31150+118583FM-12+001699999V0202901N001019999999N002000199+00531+00461102621ADDAA106002031AY101021AY201021GA1081+004501999GE19AGL   +99999+99999GF108991081999004501999999MA1999999102095MD1210151+9999MW1101REMSYN06058338 11420 82901 10053 20046 40262 52015 60021 71000 88///=
0183583380999992019020318004+31150+118583FM-12+001699999V0209999C99999000001WN000000199+00121+00091102881ADDAA106000131AY141021AY201021GF109991999999999999999999KA1120M+00821MA1999999102361MD1210091+9999MW1451REMSYN07058338 11/00 90000 10012 20009 30236 40288 52009 69911 74540 333 10082=
0073583380999992019020321004+31330+118350FM-12+001699999V0203601N0000199999999000100199-00021-00041102881ADDAA106999999AA224005231MA1999999102345MD1410001+9999MW1451REMSYN004BUFR
0198583380999992019020400004+31150+118583FM-12+001699999V0201101N002019999999N000100199+00101+00091102861ADDAA124003031GA1081+999999999GE19AGL   +99999+99999GF108991081999999999999999MA1999999102335MD1710021+9999MW1461REMSYN07658338 31901 81102 10010 20009 40286 57002 746// 88/// 333 00956 30004 70030=
0185583380999992019020403004+31330+118350FM-12+001699999V0200701N00301026001C9001000199+00371+00371102791ADDAA106999999AA224999999AY101031AY201031GA1071+026001101GA2999+999999101GA3999+999999101GE19AGL   +99999+99999GF107991071999026001999999MA1999999102265MD1710071+9999MW1281REMSYN004BUFR
0204583380999992019020406004+31150+118583FM-12+001699999V0200401N002012200019N004700199+00951+00351102441ADDAY101021AY201021GA1041+999999999GE19AGL   +99999+99999GF104991041999999999999999KA1240N-00061MA1999999101925MD1710341+9999MW1051REMSYN06458338 31947 40402 10095 20035 40244 57034 70500 84/// 333 21006=
0185583380999992019020409004+31330+118350FM-12+001699999V0200701N00301012501C9005000199+00911+00431102301ADDAA106999999AA224999999AY101031AY201031GA1081+012501101GA2999+999999101GA3999+999999101GE19AGL   +99999+99999GF108991081999012501999999MA1999999101785MD1710151+9999MW1101REMSYN004BUFR
0181583380999992019020412004+31150+118583FM-12+001699999V0200901N004019999999N004900199+00831+00361102291ADDAY101021AY201021GA1081+012501999GE19AGL   +99999+99999GF108991081999012501999999MA1999999101775MD1410001+9999MW1101REMSYN05458338 31649 80904 10083 20036 40229 54000 71000 88///=
0160583380999992019020418004+31150+118583FM-12+001699999V0201101N00201002401WN004500199+00561+00361102061ADDAY101021AY201021GF109991999999999999999999KA1120M+01011MA1999999101545MD1710191+9999MW1101REMSYN05858338 31/45 91102 10056 20036 40206 57019 71000 333 10101=
0073583380999992019020421004+31330+118350FM-12+001699999V0202201N0010199999999002100199+00401+00331101941ADDAA106999999AA224999999MA1999999101425MD1710121+9999MW1101REMSYN004BUFR
0137583380999992019020500004+31150+118583FM-12+001699999V0202201N00101000001WN000000199+00311+00301101981ADDGF109991999999999999999999MA1999999101455MD1210041+9999MW1451REMSYN06458338 31/00 92201 10031 20030 40198 52004 745// 333 05902 30015=
0185583380999992019020503004+31330+118350FM-12+001699999V0202901N00201026001C9003900199+01101+00681101941ADDAA106999999AA224999999AY101031AY201031GA1081+026001101GA2999+999999101GA3999+999999101GE19AGL   +99999+99999GF108991081999026001999999MA1999999101435MD1710031+9999MW1101REMSYN004BUFR
0176583380999992019020506004+31150+118583FM-12+001699999V0202901N001019999999N009000199+01211+00661101541ADDGA1081+999999999GE19AGL   +99999+99999GF108991081999999999999999KA1240N+00281MA1999999101035MD1710401+9999REMSYN05858338 32959 82901 10121 20066 40154 57040 88/// 333 20028=
0163583380999992019020509004+31330+118350FM-12+001699999V0202501N00101026001C9009000199+01251+00761101571ADDAA106999999AA224999999GA1051+026001101GA2999+999999101GA3999+999999101GE19AGL   +99999+99999GF105991051999026001999999MA1999999101065MD1210031+9999REMSYN004BUFR
0181583380999992019020512004+31150+118583FM-12+001699999V0200401N002019999999N002800199+00791+00681101591ADDAY101021AY201021GA1081+017501999GE19AGL   +99999+99999GF108991081999017501999999MA1999999101075MD1210011+9999MW1101REMSYN05458338 31728 80402 10079 20068 40159 52001 71000 88///=
0160583380999992019020518004+31150+118583FM-12+001699999V0209999C99999002401WN001500199+00581+00541101571ADDAY101021AY201021GF109991999999999999999999KA1120M+01251MA1999999101055MD1710071+9999MW1101REMSYN05858338 31/15 90000 10058 20054 40157 57007 71000 333 10125=
0073583380999992019020521004+31330+118350FM-12+001699999V0201401N0020199999999002200199+00671+00651101421ADDAA106999999AA224999999MA1999999100905MD1710151+9999MW1101REMSYN004BUFR
0181583380999992019020600004+31150+118583FM-12+001699999V0201101N001019999999N001000199+00641+00631101471ADDGA1071+999999999GE19AGL   +99999+99999GF107991071999999999999999MA1999999100955MD1210041+9999MW1101REMSYN07058338 31910 71101 10064 20063 40147 52004 710// 87/// 333 05503 30038=
0163583380999992019020603004+31330+118350FM-12+001699999V0200701N0030122000199013000199+01461+00921101451ADDAA106999999AA224999999GA1031+999999101GA2999+999999101GA3999+999999101GE19AGL   +99999+99999GF103991031999999999999999MA1999999100955MD1710011+9999REMSYN004BUFR
0176583380999992019020606004+31150+118583FM-12+001699999V0200701N003019999999N020000199+01831+01091101071ADDGA1071+999999999GE19AGL   +99999+99999GF107991071999999999999999KA1240N+00501MA1999999100585MD1710381+9999REMSYN05858338 32/70 70703 10183 20109 40107 57038 87/// 333 20050=
0163583380999992019020609004+31330+118350FM-12+001699999V0200201N0030199999999020000199+01771+01171101021ADDAA106999999AA224999999GA1071+999999101GA2999+999999101GA3999+999999101GE19AGL   +99999+99999GF107991071999999999999999MA1999999100525MD1710041+9999REMSYN004BUFR
0153583380999992019020612004+31150+118583FM-12+001699999V0200401N004019999999N011000199+01351+01051101211ADDGA1071+999999999GE19AGL   +99999+99999GF107991071999999999999999MA1999999100715MD1210181+9999REMSYN04858338 32/61 70404 10135 20105 40121 52018 87///=
0183583380999992019020618004+31150+118583FM-12+001699999V0203601N00301002401WN001800199+01121+01071101441ADDAA106001031AY101021AY201021GF109991999999999999999999KA1120M+01921MA1999999100951MD1210261+9999MW1101REMSYN07058338 11/18 93603 10112 20107 30095 40144 52026 60011 71000 333 10192=
0062583380999992019020621004+31330+118350FM-12+001699999V0200201N0070199999999001700199+00971+00901101711ADDAA124001231MA1999999101205MD1210261+9999MW1101REMSYN004BUFR
0209583380999992019020700004+31150+118583FM-12+001699999V0203601N004019999999N002600199+00681+00641102251ADDAA106003031AA224003931GA1081+004501999GE19AGL   +99999+99999GF108991081999004501999999MA1999999101735MD1210541+9999MW1101REMSYN07658338 11426 83604 10068 20064 40225 52054 60031 710// 88/// 333 00800 70039=
0163583380999992019020703004+31330+118350FM-12+001699999V0200201N00701004501C9002900199+00421+00361102561ADDAY101031AY201031GA1081+004501101GA2999+999999101GA3999+999999101GE19AGL   +99999+99999GF108991081999004501999999MA1999999102035MD1210301+9999MW1101REMSYN004BUFR
0221583380999992019020706004+31150+118583FM-12+001699999V0200701N005019999999N004000199+00421+00301102481ADDAA106001031AY101021AY201021GA1081+004501999GE19AGL   +99999+99999GF108991081999004501999999KA1240N+00371MA1999999101955MD1710081+9999MW1101REMSYN07058338 11440 80705 10042 20030 40248 57008 60011 71000 88/// 333 20037=
0163583380999992019020709004+31330+118350FM-12+001699999V0200701N00801012501C9006000199+00421+00181102561ADDAY101031AY201031GA1081+012501101GA2999+999999101GA3999+999999101GE19AGL   +99999+99999GF108991081999012501999999MA1999999102035MD1210081+9999MW1101REMSYN004BUFR
0153583380999992019020712004+31150+118583FM-12+001699999V0200701N008019999999N011000199+00371-00051102661ADDGA1081+012501999GE19AGL   +99999+99999GF108991081999012501999999MA1999999102135MD1210091+9999REMSYN04858338 32661 80708 10037 21005 40266 52009 88///=
0149583380999992019020718004+31150+118583FM-12+001699999V0200701N00501002401WN016000199+00021-00121102831ADDAA106002031GF109991999999999999999999KA1120M+01121MA1999999102295MD1210081+9999REMSYN05858338 12/66 90705 10002 21012 40283 52008 60021 333 10112=
0056583380999992019020721004+31330+118350FM-12+001699999V0200701N0060199999999019000199-00021-00131102791ADDAA124005531MA1999999102255MD1710041+9999REMSYN004BUFR
0203583380999992019020800004+31150+118583FM-12+001699999V0200701N006019999999N023000199-00011-00141102721ADDAA112002031AA224002831GA1081+004501999GE19AGL   +99999+99999GF108991081999004501999999MA1999999102185MD1710071+9999REMSYN07658338 12473 80706 11001 21014 40272 57007 60022 88/// 333 00557 30002 70028=
0163583380999992019020803004+31330+118350FM-12+001699999V0200701N00601012501C9024000199+00071-00101102761ADDAA106999999AA224999999GA1081+012501101GA2999+999999101GA3999+999999101GE19AGL   +99999+99999GF108991081999012501999999MA1999999102235MD1210041+9999REMSYN004BUFR
0176583380999992019020806004+31150+118583FM-12+001699999V0200701N007019999999N015000199+00091-00091102421ADDGA1081+012501999GE19AGL   +99999+99999GF108991081999012501999999KA1240N-00041MA1999999101895MD1710341+9999REMSYN05858338 32665 80707 10009 21009 40242 57034 88/// 333 21004=
0163583380999992019020809004+31330+118350FM-12+001699999V0200701N00701012501C9013000199+00121-00051102341ADDAA106999999AA224999999GA1081+012501101GA2999+999999101GA3999+999999101GE19AGL   +99999+99999GF108991081999012501999999MA1999999101815MD1710081+9999REMSYN004BUFR
0198583380999992019020812004+31150+118583FM-12+001699999V0200401N004019999999N003500199+00071+00031102511ADDAA106004031AY101021AY201021GA1081+004501999GE19AGL   +99999+99999GF108991081999004501999999MA1999999101985MD1210171+9999MW1101REMSYN06058338 11435 80404 10007 20003 40251 52017 60041 71000 88///=
0177583380999992019020818004+31150+118583FM-12+001699999V0200401N00301002401WN004900199+00021-00011102861ADDAA106004031AY101021AY201021GF109991999999999999999999KA1120M+00141MA1999999102325MD1210181+9999MW1101REMSYN06458338 11/49 90403 10002 21001 40286 52018 60041 71000 333 10014=
0056583380999992019020821004+31330+118350FM-12+001699999V0200401N0030199999999008000199+00021-00011102901ADDAA124008031MA1999999102365MD1210051+9999REMSYN004BUFR
0215583380999992019020900004+31150+118583FM-12+001699999V0200401N006019999999N006000199+00031-00061103071ADDAA106000431AA224008231GA1081+004501999GE19AGL   +99999+99999GF108991081999004501999999MA1999999102535MD1210161+9999MW1101REMSYN08258338 11456 80406 10003 21006 40307 52016 69941 710// 88/// 333 00300 30001 70082=
0141583380999992019020903004+31330+118350FM-12+001699999V0200401N00501004501C9015000199+00071-00111103181ADDGA1081+004501101GA2999+999999101GA3999+999999101GE19AGL   +99999+99999GF108991081999004501999999MA1999999102645MD1210111+9999REMSYN004BUFR
0193583380999992019020906004+31150+118583FM-12+001699999V0200701N003019999999N015000199+00061-00151103091ADDAA106000231GA1081+004501999GE19AGL   +99999+99999GF108991081999004501999999KA1240N+00021MA1999999102555MD1710091+9999REMSYN06458338 12465 80703 10006 21015 40309 57009 69921 88/// 333 20002=
0163583380999992019020909004+31330+118350FM-12+001699999V0200401N00401002501C9004000199-00021-00111103211ADDAY101031AY201031GA1081+002501101GA2999+999999101GA3999+999999101GE19AGL   +99999+99999GF108991081999002501999999MA1999999102675MD1210121+9999MW1101REMSYN004BUFR
0208583380999992019020912004+31150+118583FM-12+001699999V0200401N004019999999N003500199-00031-00101103281ADDAA106002031AY101021AY201021GA1081+002501999GE19AGL   +99999+99999GF108991081999002501999999MA1999999102745MD1210071+9999MW1101REMSYN07058338 11335 80404 11003 21010 40328 52007 60021 71000 88/// 333 92500=
0132583380999992019020918004+31150+118583FM-12+001699999V0200701N00401002401WN009000199+00051-00101103221ADDGF109991999999999999999999KA1120M+00081MA1999999102685MD1710101+9999REMSYN05258338 32/59 90704 10005 21010 40322 57010 333 10008=
0079583380999992019020921004+31330+118350FM-12+001699999V0200701N0050199999999008000199+00011-00091103001ADDAA124000091AJ199999999999999MA1999999102465MD1710221+9999MW1101REMSYN004BUFR
0221583380999992019021000004+31150+118583FM-12+001699999V0200701N006019999999N999999999-00011-00081103141ADDAA112000831AA224003131GA1081+002501999GE19AGL   +99999+99999GF108991081999002501999999MA1999999102605MD1210141+9999MW1101REMSYN08858338 11355 80706 11001 21008 40314 52014 69982 710// 88/// 333 00100 30000 70031 92500=
0185583380999992019021003004+31330+118350FM-12+001699999V0200401N00301002501C9004400199+00001-00071103271ADDAA106999999AA224999999AY101031AY201031GA1081+002501101GA2999+999999101GA3999+999999101GE19AGL   +99999+99999GF108991081999002501999999MA1999999102735MD1210131+9999MW1101REMSYN004BUFR
0227583380999992019021006004+31150+118583FM-12+001699999V0209999C999999999999N003800199+00001-00041103171ADDAA106004031AY101021AY201021GA1081+002501999GE19AGL   +99999+99999GF108991081999002501999999KA1240N-00041MA1999999102641MD1710101+9999MW1101REMSYN07658338 11338 80000 10000 21004 30264 40317 57010 60041 71000 88/// 333 21004=
0185583380999992019021009004+31330+118350FM-12+001699999V0203601N00001002501C9003200199+00001-00031103321ADDAA106999999AA224999999AY101031AY201031GA1081+002501101GA2999+999999101GA3999+999999101GE19AGL   +99999+99999GF108991081999002501999999MA1999999102785MD1210151+9999MW1101REMSYN004BUFR
0204583380999992019021012004+31150+118583FM-12+001699999V0209999C999999999999N003900199+00021-00021103481ADDAA106000631AY101021AY201021GA1081+004501999GE19AGL   +99999+99999GF108991081999004501999999MA1999999102951MD1210161+9999MW1101REMSYN06658338 11439 80000 10002 21002 30295 40348 52016 69961 71000 88///=
0160583380999992019021018004+31150+118583FM-12+001699999V0209999C999999999999N999999999+00021-00041103501ADDAY101021AY201021GF109991999999999999999999KA1120M+00051MA1999999102965MD1710031+9999MW1101REMSYN05858338 31/55 90000 10002 21004 40350 57003 71000 333 10005=
0062583380999992019021021004+31330+118350FM-12+001699999V0203601N0000199999999999999999+00001-00061103491ADDAA124000131MA1999999102955MD1710011+9999MW1101REMSYN004BUFR
0198583380999992019021100004+31150+118583FM-12+001699999V0209999C999999999999N999999999+00011-00051103511ADDAA124004631GA1081+008001999GE19AGL   +99999+99999GF108991081999008001999999MA1999999102975MD1210021+9999MW1101REMSYN07658338 31555 80000 10001 21005 40351 52002 710// 88/// 333 00400 30004 70046=
0163583380999992019021103004+31330+118350FM-12+001699999V0201101N00401012501C9012000199+00201-00081103491ADDAA106999999AA224999999GA1081+012501101GA2999+999999101GA3999+999999101GE19AGL   +99999+99999GF108991081999012501999999MA1999999102955MD1710021+9999REMSYN004BUFR
0176583380999992019021106004+31150+118583FM-12+001699999V0201101N003019999999N019000199+00351-00031103281ADDGA1081+012501999GE19AGL   +99999+99999GF108991081999012501999999KA1240N-00011MA1999999102755MD1710201+9999REMSYN05858338 32669 81103 10035 21003 40328 57020 88/// 333 21001=
0163583380999992019021109004+31330+118350FM-12+001699999V0201101N00401012501C9010000199+00311+00021103251ADDAA106999999AA224999999GA1081+012501101GA2999+999999101GA3999+999999101GE19AGL   +99999+99999GF108991081999012501999999MA1999999102725MD1710041+9999REMSYN004BUFR
0153583380999992019021112004+31150+118583FM-12+001699999V0201101N004019999999N010000199+00251+00021103251ADDGA1081+012501999GE19AGL   +99999+99999GF108991081999012501999999MA1999999102725MD1410001+9999REMSYN04858338 32660 81104 10025 20002 40325 54000 88///=
0138583380999992019021118004+31150+118583FM-12+001699999V0200901N00501002401WN008000199+00231+00021103101ADDGF109991999999999999999999KA1120M+00371MA1999999102581MD1710111+9999REMSYN05858338 32/58 90905 10023 20002 30258 40310 57011 333 10037=
0067583380999992019021121004+31330+118350FM-12+001699999V0201101N0050199999999011000199+00251+00011102971ADDAA106999999AA224999999MA1999999102445MD1710131+9999REMSYN004BUFR
0169583380999992019021200004+31150+118583FM-12+001699999V0200901N006019999999N012000199+00311+00071102871ADDGA1081+012501999GE19AGL   +99999+99999GF108991081999012501999999MA1999999102345MD1710101+9999REMSYN06458338 32662 80906 10031 20007 40287 57010 88/// 333 05603 30006=
0163583380999992019021203004+31330+118350FM-12+001699999V0200701N00301002501C9002200199+00271+00241102941ADDAY161031AY201031GA1081+002501101GA2999+999999101GA3999+999999101GE19AGL   +99999+99999GF108991081999002501999999MA1999999102415MD1210071+9999MW1621REMSYN004BUFR
0227583380999992019021206004+31150+118583FM-12+001699999V0203401N002019999999N002000199+00321+00291102741ADDAA106022031AY161021AY201021GA1081+002501999GE19AGL   +99999+99999GF108991081999002501999999KA1240N+00191MA1999999102221MD1710201+9999MW1631REMSYN07658338 11320 83402 10032 20029 30222 40274 57020 60221 76360 88/// 333 20019=
0163583380999992019021209004+31330+118350FM-12+001699999V0203201N00201002501C9002700199+00321+00291102861ADDAY161031AY261031GA1081+002501101GA2999+999999101GA3999+999999101GE19AGL   +99999+99999GF108991081999002501999999MA1999999102335MD1210121+9999MW1611REMSYN004BUFR
0198583380999992019021212004+31150+118583FM-12+001699999V0203201N001019999999N002500199+00281+00251103041ADDAA106009031AY161021AY261021GA1081+002501999GE19AGL   +99999+99999GF108991081999002501999999MA1999999102515MD1210181+9999MW1611REMSYN06058338 11325 83201 10028 20025 40304 52018 60091 76166 88///=
0183583380999992019021218004+31150+118583FM-12+001699999V0202901N00201001201WN000600199+00261+00251103161ADDAA106000831AY141021AY201021GF109991999999999999999999KA1120M+00341MA1999999102641MD1210021+9999MW1451REMSYN07058338 11/06 92902 10026 20025 30264 40316 52002 69981 74540 333 10034=
0062583380999992019021221004+31330+118350FM-12+001699999V0203401N0010199999999000600199+00301+00281103131ADDAA124031331MA1999999102605MD1710031+9999MW1461REMSYN004BUFR
0215583380999992019021300004+31150+118583FM-12+001699999V0200401N003019999999N001500199+00311+00301103231ADDAA106000431AA224031531GA1081+002501999GE19AGL   +99999+99999GF108991081999002501999999MA1999999102705MD1210101+9999MW1101REMSYN08258338 11315 80403 10031 20030 40323 52010 69941 710// 88/// 333 00400 30030 70315=
0163583380999992019021303004+31330+118350FM-12+001699999V0200701N00401004501C9999999999+00401+00361103221ADDAY101031AY201031GA1081+004501101GA2999+999999101GA3999+999999101GE19AGL   +99999+99999GF108991081999004501999999MA1999999102695MD1710011+9999MW1101REMSYN004BUFR
0204583380999992019021306004+31150+118583FM-12+001699999V0200401N004019999999N004900199+00461+00401102871ADDAY101021AY201021GA1081+004501999GE19AGL   +99999+99999GF108991081999004501999999KA1240N+00261MA1999999102345MD1710351+9999MW1101REMSYN06458338 31449 80404 10046 20040 40287 57035 71000 88/// 333 20026=
0163583380999992019021309004+31330+118350FM-12+001699999V0200701N00401004501C9003100199+00471+00451102771ADDAY161031AY201031GA1081+004501101GA2999+999999101GA3999+999999101GE19AGL   +99999+99999GF108991081999004501999999MA1999999102245MD1710101+9999MW1601REMSYN004BUFR
0198583380999992019021312004+31150+118583FM-12+001699999V0200701N004019999999N002600199+00511+00481102761ADDAA106007031AY161021AY201021GA1081+004501999GE19AGL   +99999+99999GF108991081999004501999999MA1999999102235MD1710011+9999MW1601REMSYN06058338 11426 80704 10051 20048 40276 57001 60071 76060 88///=
0177583380999992019021318004+31150+118583FM-12+001699999V0200701N005019999999N999999999+00331+00291102861ADDAA106005031AY101021AY201021GF109991999999999999999999KA1120M+00511MA1999999102335MD1210101+9999MW1101REMSYN06458338 11/55 90705 10033 20029 40286 52010 60051 71000 333 10051=
0056583380999992019021321004+31330+118350FM-12+001699999V0200901N0060199999999014000199+00311+00241102801ADDAA124011731MA1999999102275MD1710061+9999REMSYN004BUFR
0203583380999992019021400004+31150+118583FM-12+001699999V0201101N005019999999N022000199+00331+00231103031ADDAA112005031AA224011531GA1081+004501999GE19AGL   +99999+99999GF108991081999004501999999MA1999999102505MD1210231+9999REMSYN07658338 12472 81105 10033 20023 40303 52023 60052 88/// 333 05200 30030 70115=
0163583380999992019021403004+31330+118350FM-12+001699999V0200901N00701012501C9021000199+00471+00291103011ADDAA106999999AA224999999GA1081+012501101GA2999+999999101GA3999+999999101GE19AGL   +99999+99999GF108991081999012501999999MA1999999102485MD1710021+9999REMSYN004BUFR
0176583380999992019021406004+31150+118583FM-12+001699999V0201101N005019999999N021000199+00681+00391102571ADDGA1081+012501999GE19AGL   +99999+99999GF108991081999012501999999KA1240N+00301MA1999999102055MD1710441+9999REMSYN05858338 32671 81105 10068 20039 40257 57044 88/// 333 20030=
0163583380999992019021409004+31330+118350FM-12+001699999V0200901N00801012501C9023000199+00621+00401102461ADDAA106999999AA224999999GA1081+012501101GA2999+999999101GA3999+999999101GE19AGL   +99999+99999GF108991081999012501999999MA1999999101945MD1710111+9999REMSYN004BUFR
0198583380999992019021412004+31150+118583FM-12+001699999V0200401N004019999999N007000199+00541+00441102731ADDAA106000131AY161021AY201021GA1081+004501999GE19AGL   +99999+99999GF108991081999004501999999MA1999999102205MD1210271+9999MW1601REMSYN06058338 11457 80404 10054 20044 40273 52027 69911 76060 88///=
0183583380999992019021418004+31150+118583FM-12+001699999V0203201N00301002401WN003000199+00491+00481102671ADDAA106004031AY101021AY201021GF109991999999999999999999KA1120M+00701MA1999999102161MD1710021+9999MW1101REMSYN07058338 11/30 93203 10049 20048 30216 40267 57002 60041 71000 333 10070=
0062583380999992019021421004+31330+118350FM-12+001699999V0203401N0020199999999001900199+00471+00461102561ADDAA124004631MA1999999102035MD1710111+9999MW1101REMSYN004BUFR
0215583380999992019021500004+31150+118583FM-12+001699999V0203401N002019999999N000800199+00471+00461102721ADDAA106002031AA224005431GA1081+004501999GE19AGL   +99999+99999GF108991081999004501999999MA1999999102195MD1210151+9999MW1601REMSYN08258338 11408 83402 10047 20046 40272 52015 60021 760// 88/// 333 05301 30048 70054=
0163583380999992019021503004+31330+118350FM-12+001699999V0203201N00201002501C9002800199+00471+00471102781ADDAY161031AY241031GA1081+002501101GA2999+999999101GA3999+999999101GE19AGL   +99999+99999GF108991081999002501999999MA1999999102255MD1210061+9999MW1601REMSYN004BUFR
0221583380999992019021506004+31150+118583FM-12+001699999V0203401N002019999999N005000199+00451+00421102581ADDAA106003031AY161021AY241021GA1081+002501999GE19AGL   +99999+99999GF108991081999002501999999KA1240N+00451MA1999999102055MD1710201+9999MW1611REMSYN07058338 11350 83402 10045 20042 40258 57020 60031 76164 88/// 333 20045=
0163583380999992019021509004+31330+118350FM-12+001699999V0203401N00301002501C9003600199+00421+00391102671ADDAY161031AY261031GA1081+002501101GA2999+999999101GA3999+999999101GE19AGL   +99999+99999GF108991081999002501999999MA1999999102145MD1210091+9999MW1611REMSYN004BUFR
0198583380999992019021512004+31150+118583FM-12+001699999V0200201N002019999999N003600199+00371+00341102801ADDAA106004031AY161021AY261021GA1081+002501999GE19AGL   +99999+99999GF108991081999002501999999MA1999999102275MD1210131+9999MW1601REMSYN06058338 11336 80202 10037 20034 40280 52013 60041 76066 88///=
0177583380999992019021518004+31150+118583FM-12+001699999V0203401N00101002401WN002900199+00351+00311102941ADDAA106000331AY101021AY201021GF109991999999999999999999KA1120M+00501MA1999999102415MD1210031+9999MW1101REMSYN06458338 11/29 93401 10035 20031 40294 52003 69931 71000 333 10050=
0073583380999992019021521004+31330+118350FM-12+001699999V0200201N0020199999999002800199+00361+00321102871ADDAA106999999AA224007531MA1999999102345MD1710071+9999MW1101REMSYN004BUFR
0215583380999992019021600004+31150+118583FM-12+001699999V0200201N002019999999N003800199+00361+00271102991ADDAA112000331AA224006731GA1081+004501999GE19AGL   +99999+99999GF108991081999004501999999MA1999999102465MD1210121+9999MW1101REMSYN08258338 11438 80202 10036 20027 40299 52012 69932 710// 88/// 333 00351 30036 70067=
0185583380999992019021603004+31330+118350FM-12+001699999V0200701N00401004501C9002000199+00321+00271103041ADDAA106999999AA224999999AY161031AY201031GA1081+004501101GA2999+999999101GA3999+999999101GE19AGL   +99999+99999GF108991081999004501999999MA1999999102515MD1210051+9999MW1101REMSYN004BUFR
0240583380999992019021606004+31150+118583FM-12+001699999V0200701N003019999999N004900199+00331+00101102891ADDAA106000091AY161021AY201021GA1081+004501999GE19AGL   +99999+99999GF108991081999004501999999KA1240N+00251MA1999999102365MD1710151+9999MW1101REMSYN07058338 11449 80703 10033 20010 40289 57015 69901 71060 88/// 333 20025=EQDQ01  00002PRCP06
0185583380999992019021609004+31330+118350FM-12+001699999V0200701N00201004501C9999999999+00351+00091102821ADDAA106999999AA224999999AY101031AY201031GA1081+004501101GA2999+999999101GA3999+999999101GE19AGL   +99999+99999GF108991081999004501999999MA1999999102295MD1710071+9999MW1101REMSYN004BUFR
0137583380999992019021612004+31150+118583FM-12+001699999V0200701N00101002401WN004200199+00321+00141102921ADDAY101021AY201021GF109991999999999999999999MA1999999102395MD1210101+9999MW1101REMSYN04858338 31/42 90701 10032 20014 40292 52010 71000=
0132583380999992019021618004+31150+118583FM-12+001699999V0200201N00201002401WN023000199+00211-00221103021ADDGF109991999999999999999999KA1120M+00381MA1999999102495MD1210011+9999REMSYN05258338 32/73 90202 10021 21022 40302 52001 333 10038=
0067583380999992019021621004+31330+118350FM-12+001699999V0200401N0020199999999019000199+00221-00091102991ADDAA106999999AA224999999MA1999999102465MD1710031+9999REMSYN004BUFR
0205583380999992019021700004+31150+118583FM-12+001699999V0200701N004019999999N016000199+00211-00121103051ADDAA124000091GA1071+999999999GE19AGL   +99999+99999GF107991071999999999999999MA1999999102525MD1210061+9999REMSYN07058338 32966 70704 10021 21012 40305 52006 87/// 333 00152 30007 79999=EQDQ01  00002PRCP24
0163583380999992019021703004+31330+118350FM-12+001699999V0200701N00301026001C9018000199+00371-00141103021ADDAA106999999AA224999999GA1071+026001101GA2999+999999101GA3999+999999101GE19AGL   +99999+99999GF107991071999026001999999MA1999999102495MD1710031+9999REMSYN004BUFR
0176583380999992019021706004+31150+118583FM-12+001699999V0200401N003019999999N019000199+00441-00161102761ADDGA1081+999999999GE19AGL   +99999+99999GF108991081999999999999999KA1240N+00161MA1999999102235MD1710261+9999REMSYN05858338 32969 80403 10044 21016 40276 57026 88/// 333 20016=
0163583380999992019021709004+31330+118350FM-12+001699999V0200701N00301012501C9018000199+00451-00141102681ADDAA106999999AA224999999GA1081+012501101GA2999+999999101GA3999+999999101GE19AGL   +99999+99999GF108991081999012501999999MA1999999102155MD1710081+9999REMSYN004BUFR
0153583380999992019021712004+31150+118583FM-12+001699999V0200701N003019999999N017000199+00421-00141102701ADDGA1081+012501999GE19AGL   +99999+99999GF108991081999012501999999MA1999999102175MD1210021+9999REMSYN04858338 32667 80703 10042 21014 40270 52002 88///=
0149583380999992019021718004+31150+118583FM-12+001699999V0200901N00401002401WN011000199+00301+00171102391ADDAA106000331GF109991999999999999999999KA1120M+00461MA1999999101865MD1710251+9999REMSYN05858338 12/61 90904 10030 20017 40239 57025 69931 333 10046=
0062583380999992019021721004+31330+118350FM-12+001699999V0201101N0040199999999999999999+00301+00231102201ADDAA124001131MA1999999101675MD1710191+9999MW1101REMSYN004BUFR
0215583380999992019021800004+31150+118583FM-12+001699999V0201101N004019999999N004500199+00341+00301102161ADDAA106002031AA224002531GA1081+004501999GE19AGL   +99999+99999GF108991081999004501999999MA1999999101635MD1710041+9999MW1601REMSYN08258338 11445 81104 10034 20030 40216 57004 60021 760// 88/// 333 05901 30026 70025=
0163583380999992019021803004+31330+118350FM-12+001699999V0201101N00601002501C9006000199+00421+00391102021ADDAY161031AY261031GA1081+002501101GA2999+999999101GA3999+999999101GE19AGL   +99999+99999GF108991081999002501999999MA1999999101505MD1710131+9999MW1611REMSYN004BUFR
0221583380999992019021806004+31150+118583FM-12+001699999V0200901N002019999999N999999999+00521+00481101881ADDAA106008031AY161021AY261021GA1081+002501999GE19AGL   +99999+99999GF108991081999002501999999KA1240N+00271MA1999999101365MD1710141+9999MW1611REMSYN07058338 11355 80902 10052 20048 40188 57014 60081 76166 88/// 333 20027=
0163583380999992019021809004+31330+118350FM-12+001699999V0202701N00201002501C9004900199+00501+00471101811ADDAY161031AY261031GA1081+002501101GA2999+999999101GA3999+999999101GE19AGL   +99999+99999GF108991081999002501999999MA1999999101295MD1710071+9999MW1611REMSYN004BUFR
0198583380999992019021812004+31150+118583FM-12+001699999V0202501N002019999999N002400199+00471+00461101921ADDAA106003031AY161021AY261021GA1081+002501999GE19AGL   +99999+99999GF108991081999002501999999MA1999999101405MD1210111+9999MW1611REMSYN06058338 11324 82502 10047 20046 40192 52011 60031 76166 88///=
0177583380999992019021818004+31150+118583FM-12+001699999V0202701N00301002401WN002900199+00361+00351102031ADDAA106003031AY101021AY201021GF109991999999999999999999KA1120M+00561MA1999999101505MD1210041+9999MW1101REMSYN06458338 11/29 92703 10036 20035 40203 52004 60031 71000 333 10056=
0056583380999992019021821004+31330+118350FM-12+001699999V0202701N0030199999999008000199+00321+00311102101ADDAA124017431MA1999999101575MD1210071+9999REMSYN004BUFR
0203583380999992019021900004+31150+118583FM-12+001699999V0202901N004019999999N011000199+00311+00241102381ADDAA106003031AA224016031GA1081+004501999GE19AGL   +99999+99999GF108991081999004501999999MA1999999101855MD1210271+9999REMSYN07658338 12461 82904 10031 20024 40238 52027 60031 88/// 333 00200 30033 70160=
0163583380999992019021903004+31330+118350FM-12+001699999V0202901N00101008001C9008000199+00411+00251102451ADDAA106999999AA224999999GA1081+008001101GA2999+999999101GA3999+999999101GE19AGL   +99999+99999GF108991081999008001999999MA1999999101925MD1210071+9999REMSYN004BUFR
0204583380999992019021906004+31150+118583FM-12+001699999V0203601N003019999999N007000199+00501+00251102281ADDAY101021AY201021GA1081+008001999GE19AGL   +99999+99999GF108991081999008001999999KA1240N+00301MA1999999101765MD1710171+9999MW1101REMSYN06458338 31557 83603 10050 20025 40228 57017 71000 88/// 333 20030=
0163583380999992019021909004+31330+118350FM-12+001699999V0200201N00201008001C9008000199+00461+00201102351ADDAA106999999AA224999999GA1081+008001101GA2999+999999101GA3999+999999101GE19AGL   +99999+99999GF108991081999008001999999MA1999999101825MD1210071+9999REMSYN004BUFR
0198583380999992019021912004+31150+118583FM-12+001699999V0200401N001019999999N008000199+00441+00231102461ADDAA106000021AY161021AY201021GA1081+004501999GE19AGL   +99999+99999GF108991081999004501999999MA1999999101935MD1210111+9999MW1601REMSYN06058338 11458 80401 10044 20023 40246 52011 69901 76060 88///=
0177583380999992019021918004+31150+118583FM-12+001699999V0200401N00301002401WN002400199+00361+00321102551ADDAA106007031AY101021AY201021GF109991999999999999999999KA1120M+00571MA1999999102025MD1210041+9999MW1101REMSYN06458338 11/24 90403 10036 20032 40255 52004 60071 71000 333 10057=
0062583380999992019021921004+31330+118350FM-12+001699999V0200701N0040199999999004000199+00351+00271102461ADDAA124007331MA1999999101935MD1710091+9999MW1101REMSYN004BUFR
0215583380999992019022000004+31150+118583FM-12+001699999V0200701N005019999999N003900199+00341+00251102601ADDAA106000231AA224007331GA1081+008001999GE19AGL   +99999+99999GF108991081999008001999999MA1999999102075MD1210141+9999MW1101REMSYN08258338 11539 80705 10034 20025 40260 52014 69921 710// 88/// 333 00200 30033 70073=
0163583380999992019022003004+31330+118350FM-12+001699999V0200401N00301004501C9002900199+00411+00341102681ADDAY161031AY201031GA1081+004501101GA2999+999999101GA3999+999999101GE19AGL   +99999+99999GF108991081999004501999999MA1999999102155MD1210081+9999MW1601REMSYN004BUFR
0221583380999992019022006004+31150+118583FM-12+001699999V0200701N004019999999N003300199+00451+00351102511ADDAA106001031AY161021AY201021GA1081+004501999GE19AGL   +99999+99999GF108991081999004501999999KA1240N+00331MA1999999101985MD1710171+9999MW1601REMSYN07058338 11433 80704 10045 20035 40251 57017 60011 76060 88/// 333 20033=
0163583380999992019022009004+31330+118350FM-12+001699999V0200401N00301004501C9001500199+00401+00371102661ADDAY161031AY261031GA1081+004501101GA2999+999999101GA3999+999999101GE19AGL   +99999+99999GF108991081999004501999999MA1999999102135MD1210151+9999MW1601REMSYN004BUFR
0198583380999992019022012004+31150+118583FM-12+001699999V0200401N003019999999N001500199+00431+00401102811ADDAA106000731AY161021AY261021GA1081+004501999GE19AGL   +99999+99999GF108991081999004501999999MA1999999102285MD1210151+9999MW1601REMSYN06058338 11415 80403 10043 20040 40281 52015 69971 76066 88///=
0177583380999992019022018004+31150+118583FM-12+001699999V0200701N00401002401WN002200199+00411+00371102791ADDAA106002031AY101021AY201021GF109991999999999999999999KA1120M+00461MA1999999102265MD1710071+9999MW1101REMSYN06458338 11/22 90704 10041 20037 40279 57007 60021 71000 333 10046=
0062583380999992019022021004+31330+118350FM-12+001699999V0200701N0040199999999001600199+00401+00361102661ADDAA124003731MA1999999102135MD1710131+9999MW1101REMSYN004BUFR
0215583380999992019022100004+31150+118583FM-12+001699999V0200401N006019999999N001600199+00371+00341102781ADDAA106000431AA224004031GA1081+004501999GE19AGL   +99999+99999GF108991081999004501999999MA1999999102255MD1210121+9999MW1601REMSYN08258338 11416 80406 10037 20034 40278 52012 69941 760// 88/// 333 00200 30037 70040=
0163583380999992019022103004+31330+118350FM-12+001699999V0200401N00301002501C9001900199+00461+00431102741ADDAY161031AY261031GA1081+002501101GA2999+999999101GA3999+999999101GE19AGL   +99999+99999GF108991081999002501999999MA1999999102215MD1710041+9999MW1601REMSYN004BUFR
0221583380999992019022106004+31150+118583FM-12+001699999V0200401N004019999999N002000199+00491+00451102541ADDAA106002031AY161021AY261021GA1081+002501999GE19AGL   +99999+99999GF108991081999002501999999KA1240N+00361MA1999999102015MD1710201+9999MW1611REMSYN07058338 11320 80404 10049 20045 40254 57020 60021 76166 88/// 333 20036=
0163583380999992019022109004+31330+118350FM-12+001699999V0200401N00401002501C9002700199+00471+00391102501ADDAY161031AY261031GA1081+002501101GA2999+999999101GA3999+999999101GE19AGL   +99999+99999GF108991081999002501999999MA1999999101975MD1710041+9999MW1611REMSYN004BUFR
0198583380999992019022112004+31150+118583FM-12+001699999V0200701N004019999999N001700199+00461+00421102561ADDAA106003031AY161021AY261021GA1081+002501999GE19AGL   +99999+99999GF108991081999002501999999MA1999999102035MD1210061+9999MW1611REMSYN06058338 11317 80704 10046 20042 40256 52006 60031 76166 88///=
0183583380999992019022118004+31150+118583FM-12+001699999V0200201N00201002401WN001000199+00471+00461102381ADDAA106002031AY101021AY201021GF109991999999999999999999KA1120M+00501MA1999999101871MD1710161+9999MW1101REMSYN07058338 11/10 90202 10047 20046 30187 40238 57016 60021 71000 333 10050=
0062583380999992019022121004+31330+118350FM-12+001699999V0200201N0020199999999002900199+00371+00371102451ADDAA124011731MA1999999101925MD1210061+9999MW1101REMSYN004BUFR
0215583380999992019022200004+31150+118583FM-12+001699999V0203401N002019999999N004900199+00261+00221102601ADDAA106006031AA224012431GA1081+004501999GE19AGL   +99999+99999GF108991081999004501999999MA1999999102075MD1210151+9999MW1601REMSYN08258338 11449 83402 10026 20022 40260 52015 60061 760// 88/// 333 05251 30034 70124=
0163583380999992019022203004+31330+118350FM-12+001699999V0202901N00201008001C9008000199+00351+00261102701ADDAY161031AY201031GA1081+008001101GA2999+999999101GA3999+999999101GE19AGL   +99999+99999GF108991081999008001999999MA1999999102175MD1210101+9999MW1001REMSYN004BUFR
0221583380999992019022206004+31150+118583FM-12+001699999V0202901N003019999999N002700199+00301+00261102581ADDAA106000021AY161021AY201021GA1081+008001999GE19AGL   +99999+99999GF108991081999008001999999KA1240N+00241MA1999999102055MD1710121+9999MW1101REMSYN07058338 11527 82903 10030 20026 40258 57012 69901 71060 88/// 333 20024=
0185583380999992019022209004+31330+118350FM-12+001699999V0202501N00201008001C9004400199+00321+00281102691ADDAA106999999AA224999999AY101031AY201031GA1081+008001101GA2999+999999101GA3999+999999101GE19AGL   +99999+99999GF108991081999008001999999MA1999999102165MD1210111+9999MW1101REMSYN004BUFR
0181583380999992019022212004+31150+118583FM-12+001699999V0202501N001019999999N004100199+00331+00271102811ADDAY101021AY201021GA1081+008001999GE19AGL   +99999+99999GF108991081999008001999999MA1999999102285MD1210121+9999MW1101REMSYN05458338 31541 82501 10033 20027 40281 52012 71000 88///=
0160583380999992019022218004+31150+118583FM-12+001699999V0202901N00201001201WN000600199+00251+00241102831ADDAY101021AY201021GF109991999999999999999999KA1120M+00471MA1999999102305MD1710021+9999MW1101REMSYN05858338 31/06 92902 10025 20024 40283 57002 71000 333 10047=
0073583380999992019022221004+31330+118350FM-12+001699999V0200401N0010199999999002100199+00261+00251102631ADDAA106999999AA224001031MA1999999102105MD1710201+9999MW1101REMSYN004BUFR
0198583380999992019022300004+31150+118583FM-12+001699999V0200401N001019999999N002100199+00321+00291102761ADDAA124000021GA1071+999999999GE19AGL   +99999+99999GF107991071999999999999999MA1999999102235MD1210131+9999MW1101REMSYN07658338 31921 70401 10032 20029 40276 52013 710// 87/// 333 00201 30009 79999=
0185583380999992019022303004+31330+118350FM-12+001699999V0200701N00201026001C9004200199+00451+00221102791ADDAA106999999AA224999999AY101031AY201031GA1081+026001101GA2999+999999101GA3999+999999101GE19AGL   +99999+99999GF108991081999026001999999MA1999999102265MD1210031+9999MW1101REMSYN004BUFR
0204583380999992019022306004+31150+118583FM-12+001699999V0203601N001019999999N003800199+00601+00231102501ADDAY101021AY201021GA1081+999999999GE19AGL   +99999+99999GF108991081999999999999999KA1240N+00201MA1999999101985MD1710291+9999MW1101REMSYN06458338 31938 83601 10060 20023 40250 57029 71000 88/// 333 20020=
0185583380999992019022309004+31330+118350FM-12+001699999V0203401N00201026001C9003400199+00601+00291102531ADDAA106999999AA224999999AY101031AY201031GA1081+026001101GA2999+999999101GA3999+999999101GE19AGL   +99999+99999GF108991081999026001999999MA1999999102015MD1210031+9999MW1101REMSYN004BUFR
0181583380999992019022312004+31150+118583FM-12+001699999V0202201N001019999999N002700199+00471+00291102651ADDAY101021AY201021GA1081+017501999GE19AGL   +99999+99999GF108991081999017501999999MA1999999102125MD1210121+9999MW1101REMSYN05458338 31727 82201 10047 20029 40265 52012 71000 88///=
0160583380999992019022318004+31150+118583FM-12+001699999V0200701N00101001201WN000600199+00011-00021102531ADDAY101021AY201021GF109991999999999999999999KA1120M+00621MA1999999102005MD1710091+9999MW1101REMSYN05858338 31/06 90701 10001 21002 40253 57009 71000 333 10062=
0073583380999992019022321004+31330+118350FM-12+001699999V0201101N0010199999999000050199-00171-00181102481ADDAA106999999AA224999999MA1999999101945MD1710051+9999MW1441REMSYN004BUFR
0181583380999992019022400004+31150+118583FM-12+001699999V0202901N001019999999N000100199-00111-00121102591ADDGA1081+017501999GE19AGL   +99999+99999GF108991081999017501999999MA1999999102055MD1210111+9999MW1441REMSYN07058338 31701 82901 11011 21012 40259 52011 744// 88/// 333 05254 31002=
