0173583670999992019010100004+31198+121336FM-15+000399999V0203501N005010121919N009999199+00301-00201999999ADDGA1021+007011999GA2081+012191999GE19AGL   +99999+99999GF199999021999007011999999MA1103901999999REMMET066METAR ZSSS 010000Z 35005MPS 9999 FEW023 OVC040 03/M02 Q1039 NOSIG=
0173583670999992019010100304+31198+121336FM-15+000399999V0203601N006010121919N009999199+00301-00201999999ADDGA1021+007011999GA2081+012191999GE19AGL   +99999+99999GF199999021999007011999999MA1103901999999REMMET066METAR ZSSS 010030Z 36006MPS 9999 FEW023 OVC040 03/M02 Q1039 NOSIG=
0080583670999992019010101004+31198+121336FM-15+000399999V0203601N006019999999Y009900199+00301-00401999999ADDMA1103901999999REMMET053METAR ZSSS 010100Z 36006MPS CAVOK 03/M04 Q1039 NOSIG=
0080583670999992019010101304+31198+121336FM-15+000399999V0203501N007019999999Y009900199+00401-00401999999ADDMA1103901999999REMMET053METAR ZSSS 010130Z 35007MPS CAVOK 04/M04 Q1039 NOSIG=
0080583670999992019010102004+31198+121336FM-15+000399999V0200101N006019999999Y009900199+00401-00401999999ADDMA1103901999999REMMET053METAR ZSSS 010200Z 01006MPS CAVOK 04/M04 Q1039 NOSIG=
0080583670999992019010102304+31198+121336FM-15+000399999V0203601N006019999999Y009900199+00401-00401999999ADDMA1103901999999REMMET053METAR ZSSS 010230Z 36006MPS CAVOK 04/M04 Q1039 NOSIG=
0080583670999992019010103004+31198+121336FM-15+000399999V0203401N006019999999Y009900199+00401-00501999999ADDMA1103801999999REMMET053METAR ZSSS 010300Z 34006MPS CAVOK 04/M05 Q1038 NOSIG=
0080583670999992019010103304+31198+121336FM-15+000399999V0203401N005019999999Y009900199+00401-00501999999ADDMA1103701999999REMMET053METAR ZSSS 010330Z 34005MPS CAVOK 04/M05 Q1037 NOSIG=
0080583670999992019010104004+31198+121336FM-15+000399999V0203401N006019999999Y009900199+00401-00501999999ADDMA1103701999999REMMET053METAR ZSSS 010400Z 34006MPS CAVOK 04/M05 Q1037 NOSIG=
0088583670999992019010104304+31198+121336FM-15+000399999V0203501V004019999999Y009900199+00501-00401999999ADDMA1103601999999REMMET061METAR ZSSS 010430Z 35004MPS 320V030 CAVOK 05/M04 Q1036 NOSIG=
0088583670999992019010105004+31198+121336FM-15+000399999V0203501V005019999999Y009900199+00501-00401999999ADDMA1103601999999REMMET061METAR ZSSS 010500Z 35005MPS 310V030 CAVOK 05/M04 Q1036 NOSIG=
0088583670999992019010105304+31198+121336FM-15+000399999V0203301V005019999999Y009900199+00501-00501999999ADDMA1103601999999REMMET061METAR ZSSS 010530Z 33005MPS 300V360 CAVOK 05/M05 Q1036 NOSIG=
0080583670999992019010106004+31198+121336FM-15+000399999V0203501N004019999999Y009900199+00501-00501999999ADDMA1103601999999REMMET053METAR ZSSS 010600Z 35004MPS CAVOK 05/M05 Q1036 NOSIG=
0088583670999992019010106304+31198+121336FM-15+000399999V0203301V004019999999Y009900199+00501-00401999999ADDMA1103601999999REMMET061METAR ZSSS 010630Z 33004MPS 310V010 CAVOK 05/M04 Q1036 NOSIG=
0088583670999992019010107004+31198+121336FM-15+000399999V0203501V003019999999Y009900199+00501-00401999999ADDMA1103601999999REMMET061METAR ZSSS 010700Z 35003MPS 310V030 CAVOK 05/M04 Q1036 NOSIG=
0080583670999992019010107304+31198+121336FM-15+000399999V0203601N004019999999Y009900199+00501-00401999999ADDMA1103601999999REMMET053METAR ZSSS 010730Z 36004MPS CAVOK 05/M04 Q1036 NOSIG=
0088583670999992019010108004+31198+121336FM-15+000399999V0203601V004019999999Y009900199+00501-00501999999ADDMA1103601999999REMMET061METAR ZSSS 010800Z 36004MPS 330V030 CAVOK 05/M05 Q1036 NOSIG=
0080583670999992019010108304+31198+121336FM-15+000399999V0203601N005019999999Y009900199+00501-00401999999ADDMA1103601999999REMMET053METAR ZSSS 010830Z 36005MPS CAVOK 05/M04 Q1036 NOSIG=
0150583670999992019010109004+31198+121336FM-15+000399999V0203601N005019999999N009999199+00401-00401999999ADDGA1041+012191999GE19AGL   +99999+99999GF199999041999012191999999MA1103601999999REMMET059METAR ZSSS 010900Z 36005MPS 9999 SCT040 04/M04 Q1036 NOSIG=
0150583670999992019010109304+31198+121336FM-15+000399999V0200101N005019999999N009999199+00401-00401999999ADDGA1041+012191999GE19AGL   +99999+99999GF199999041999012191999999MA1103601999999REMMET059METAR ZSSS 010930Z 01005MPS 9999 SCT040 04/M04 Q1036 NOSIG=
0150583670999992019010110004+31198+121336FM-15+000399999V0200401N005019999999N009999199+00401-00301999999ADDGA1041+012191999GE19AGL   +99999+99999GF199999041999012191999999MA1103601999999REMMET059METAR ZSSS 011000Z 04005MPS 9999 SCT040 04/M03 Q1036 NOSIG=
0158583670999992019010110304+31198+121336FM-15+000399999V0200301V005019999999N009999199+00301-00301999999ADDGA1021+012191999GE19AGL   +99999+99999GF199999021999012191999999MA1103701999999REMMET067METAR ZSSS 011030Z 03005MPS 020V080 9999 FEW040 03/M03 Q1037 NOSIG=
0080583670999992019010111004+31198+121336FM-15+000399999V0200401N005019999999Y009900199+00301-00301999999ADDMA1103701999999REMMET053METAR ZSSS 011100Z 04005MPS CAVOK 03/M03 Q1037 NOSIG=
0080583670999992019010111304+31198+121336FM-15+000399999V0200401N004019999999Y009900199+00301-00401999999ADDMA1103701999999REMMET053METAR ZSSS 011130Z 04004MPS CAVOK 03/M04 Q1037 NOSIG=
0080583670999992019010112004+31198+121336FM-15+000399999V0200201N004019999999Y009900199+00201-00401999999ADDMA1103701999999REMMET053METAR ZSSS 011200Z 02004MPS CAVOK 02/M04 Q1037 NOSIG=
0080583670999992019010112304+31198+121336FM-15+000399999V0203601N003019999999Y009900199+00201-00401999999ADDMA1103801999999REMMET053METAR ZSSS 011230Z 36003MPS CAVOK 02/M04 Q1038 NOSIG=
0080583670999992019010113004+31198+121336FM-15+000399999V0203601N004019999999Y009900199+00201-00401999999ADDMA1103701999999REMMET053METAR ZSSS 011300Z 36004MPS CAVOK 02/M04 Q1037 NOSIG=
0080583670999992019010113304+31198+121336FM-15+000399999V0200101N003019999999Y009900199+00201-00301999999ADDMA1103701999999REMMET053METAR ZSSS 011330Z 01003MPS CAVOK 02/M03 Q1037 NOSIG=
0080583670999992019010114004+31198+121336FM-15+000399999V0203601N003019999999Y009900199+00101-00301999999ADDMA1103801999999REMMET053METAR ZSSS 011400Z 36003MPS CAVOK 01/M03 Q1038 NOSIG=
0080583670999992019010114304+31198+121336FM-15+000399999V0200201N003019999999Y009900199+00201-00301999999ADDMA1103701999999REMMET053METAR ZSSS 011430Z 02003MPS CAVOK 02/M03 Q1037 NOSIG=
0080583670999992019010115004+31198+121336FM-15+000399999V0200101N003019999999Y009900199+00201-00301999999ADDMA1103701999999REMMET053METAR ZSSS 011500Z 01003MPS CAVOK 02/M03 Q1037 NOSIG=
0080583670999992019010115304+31198+121336FM-15+000399999V0200101N004019999999Y009900199+00201-00301999999ADDMA1103701999999REMMET053METAR ZSSS 011530Z 01004MPS CAVOK 02/M03 Q1037 NOSIG=
0080583670999992019010116004+31198+121336FM-15+000399999V0203601N003019999999Y009900199+00201-00301999999ADDMA1103701999999REMMET053METAR ZSSS 011600Z 36003MPS CAVOK 02/M03 Q1037 NOSIG=
0080583670999992019010116304+31198+121336FM-15+000399999V0203501N002019999999Y009900199+00301-00301999999ADDMA1103701999999REMMET053METAR ZSSS 011630Z 35002MPS CAVOK 03/M03 Q1037 NOSIG=
0080583670999992019010117004+31198+121336FM-15+000399999V0203301N003019999999Y009900199+00301-00301999999ADDMA1103801999999REMMET053METAR ZSSS 011700Z 33003MPS CAVOK 03/M03 Q1038 NOSIG=
0080583670999992019010117304+31198+121336FM-15+000399999V0203401N004019999999Y009900199+00301-00301999999ADDMA1103801999999REMMET053METAR ZSSS 011730Z 34004MPS CAVOK 03/M03 Q1038 NOSIG=
0080583670999992019010118004+31198+121336FM-15+000399999V0203201N004019999999Y009900199+00301-00301999999ADDMA1103701999999REMMET053METAR ZSSS 011800Z 32004MPS CAVOK 03/M03 Q1037 NOSIG=
0080583670999992019010118304+31198+121336FM-15+000399999V0203301N003019999999Y009900199+00301-00301999999ADDMA1103701999999REMMET053METAR ZSSS 011830Z 33003MPS CAVOK 03/M03 Q1037 NOSIG=
0080583670999992019010119004+31198+121336FM-15+000399999V0203301N003019999999Y009900199+00201-00301999999ADDMA1103701999999REMMET053METAR ZSSS 011900Z 33003MPS CAVOK 02/M03 Q1037 NOSIG=
0080583670999992019010119304+31198+121336FM-15+000399999V0203401N003019999999Y009900199+00201-00301999999ADDMA1103701999999REMMET053METAR ZSSS 011930Z 34003MPS CAVOK 02/M03 Q1037 NOSIG=
0080583670999992019010120004+31198+121336FM-15+000399999V0203301N003019999999Y009900199+00201-00201999999ADDMA1103701999999REMMET053METAR ZSSS 012000Z 33003MPS CAVOK 02/M02 Q1037 NOSIG=
0080583670999992019010120304+31198+121336FM-15+000399999V0203301N003019999999Y009900199+00201-00201999999ADDMA1103701999999REMMET053METAR ZSSS 012030Z 33003MPS CAVOK 02/M02 Q1037 NOSIG=
0080583670999992019010121004+31198+121336FM-15+000399999V0203301N002019999999Y009900199+00201-00201999999ADDMA1103701999999REMMET053METAR ZSSS 012100Z 33002MPS CAVOK 02/M02 Q1037 NOSIG=
0080583670999992019010121304+31198+121336FM-15+000399999V0203301N001019999999Y009900199+00201-00201999999ADDMA1103701999999REMMET053METAR ZSSS 012130Z 33001MPS CAVOK 02/M02 Q1037 NOSIG=
0080583670999992019010122004+31198+121336FM-15+000399999V0209999V001019999999Y009900199+00301-00201999999ADDMA1103701999999REMMET053METAR ZSSS 012200Z VRB01MPS CAVOK 03/M02 Q1037 NOSIG=
0080583670999992019010122304+31198+121336FM-15+000399999V0203401N002019999999Y009900199+00201-00201999999ADDMA1103701999999REMMET053METAR ZSSS 012230Z 34002MPS CAVOK 02/M02 Q1037 NOSIG=
0080583670999992019010123004+31198+121336FM-15+000399999V0203501N003019999999Y009900199+00301-00301999999ADDMA1103701999999REMMET053METAR ZSSS 012300Z 35003MPS CAVOK 03/M03 Q1037 NOSIG=
0080583670999992019010123304+31198+121336FM-15+000399999V0203601N003019999999Y009900199+00301-00301999999ADDMA1103701999999REMMET053METAR ZSSS 012330Z 36003MPS CAVOK 03/M03 Q1037 NOSIG=
0080583670999992019010200004+31198+121336FM-15+000399999V0203601N005019999999Y009900199+00301-00201999999ADDMA1103701999999REMMET053METAR ZSSS 020000Z 36005MPS CAVOK 03/M02 Q1037 NOSIG=
0080583670999992019010200304+31198+121336FM-15+000399999V0203601N004019999999Y009900199+00301-00301999999ADDMA1103701999999REMMET053METAR ZSSS 020030Z 36004MPS CAVOK 03/M03 Q1037 NOSIG=
0080583670999992019010201004+31198+121336FM-15+000399999V0203601N005019999999Y009900199+00401-00301999999ADDMA1103701999999REMMET053METAR ZSSS 020100Z 36005MPS CAVOK 04/M03 Q1037 NOSIG=
0080583670999992019010201304+31198+121336FM-15+000399999V0200301N005019999999Y009900199+00401-00201999999ADDMA1103701999999REMMET053METAR ZSSS 020130Z 03005MPS CAVOK 04/M02 Q1037 NOSIG=
0088583670999992019010202004+31198+121336FM-15+000399999V0200101V004019999999Y009900199+00501-00201999999ADDMA1103701999999REMMET061METAR ZSSS 020200Z 01004MPS 340V040 CAVOK 05/M02 Q1037 NOSIG=
0080583670999992019010202304+31198+121336FM-15+000399999V0200101N004019999999Y009900199+00501-00201999999ADDMA1103601999999REMMET053METAR ZSSS 020230Z 01004MPS CAVOK 05/M02 Q1036 NOSIG=
0088583670999992019010203004+31198+121336FM-15+000399999V0203601V004019999999Y009900199+00501-00201999999ADDMA1103601999999REMMET061METAR ZSSS 020300Z 36004MPS 330V030 CAVOK 05/M02 Q1036 NOSIG=
0088583670999992019010203304+31198+121336FM-15+000399999V0200101V004019999999Y009900199+00501-00201999999ADDMA1103501999999REMMET061METAR ZSSS 020330Z 01004MPS 340V040 CAVOK 05/M02 Q1035 NOSIG=
0080583670999992019010204004+31198+121336FM-15+000399999V0200201N003019999999Y009900199+00501-00101999999ADDMA1103501999999REMMET053METAR ZSSS 020400Z 02003MPS CAVOK 05/M01 Q1035 NOSIG=
0109583670999992019010204304+31198+121336FM-15+000399999V0203601N004012200019N008000199+00601-00101999999ADDGF100991999999999999999999MA1103401999999REMMET056METAR ZSSS 020430Z 36004MPS 8000 NSC 06/M01 Q1034 NOSIG=
0109583670999992019010205004+31198+121336FM-15+000399999V0200101N004012200019N008000199+00701-00201999999ADDGF100991999999999999999999MA1103401999999REMMET056METAR ZSSS 020500Z 01004MPS 8000 NSC 07/M02 Q1034 NOSIG=
0109583670999992019010205304+31198+121336FM-15+000399999V0200501N004012200019N008000199+00601-00201999999ADDGF100991999999999999999999MA1103401999999REMMET056METAR ZSSS 020530Z 05004MPS 8000 NSC 06/M02 Q1034 NOSIG=
0158583670999992019010206004+31198+121336FM-15+000399999V0200201V004019999999N008000199+00601-00201999999ADDGA1041+012191999GE19AGL   +99999+99999GF199999041999012191999999MA1103401999999REMMET067METAR ZSSS 020600Z 02004MPS 350V050 8000 SCT040 06/M02 Q1034 NOSIG=
0150583670999992019010206304+31198+121336FM-15+000399999V0200501N004019999999N008000199+00601-00101999999ADDGA1041+012191999GE19AGL   +99999+99999GF199999041999012191999999MA1103401999999REMMET059METAR ZSSS 020630Z 05004MPS 8000 SCT040 06/M01 Q1034 NOSIG=
0150583670999992019010207004+31198+121336FM-15+000399999V0200501N00401012191CN008000199+00601-00201999999ADDGA1071+012191999GE19AGL   +99999+99999GF199999071999012191999999MA1103401999999REMMET059METAR ZSSS 020700Z 05004MPS 8000 BKN040 06/M02 Q1034 NOSIG=
0158583670999992019010207304+31198+121336FM-15+000399999V0200101V00401012191CN008000199+00601-00101999999ADDGA1071+012191999GE19AGL   +99999+99999GF199999071999012191999999MA1103401999999REMMET067METAR ZSSS 020730Z 01004MPS 340V050 8000 BKN040 06/M01 Q1034 NOSIG=
0150583670999992019010208004+31198+121336FM-15+000399999V0203601N00301012191CN008000199+00601-00101999999ADDGA1071+012191999GE19AGL   +99999+99999GF199999071999012191999999MA1103401999999REMMET059METAR ZSSS 020800Z 36003MPS 8000 BKN040 06/M01 Q1034 NOSIG=
0158583670999992019010208304+31198+121336FM-15+000399999V0200201V00401010061CN008000199+00601-00101999999ADDGA1071+010061999GE19AGL   +99999+99999GF199999071999010061999999MA1103401999999REMMET067METAR ZSSS 020830Z 02004MPS 340V080 8000 BKN033 06/M01 Q1034 NOSIG=
0150583670999992019010209004+31198+121336FM-15+000399999V0200401N00301010061CN008000199+00601-00201999999ADDGA1071+010061999GE19AGL   +99999+99999GF199999071999010061999999MA1103501999999REMMET059METAR ZSSS 020900Z 04003MPS 8000 BKN033 06/M02 Q1035 NOSIG=
0150583670999992019010209304+31198+121336FM-15+000399999V0200301N00401010061CN008000199+00601-00201999999ADDGA1071+010061999GE19AGL   +99999+99999GF199999071999010061999999MA1103501999999REMMET059METAR ZSSS 020930Z 03004MPS 8000 BKN033 06/M02 Q1035 NOSIG=
0150583670999992019010210004+31198+121336FM-15+000399999V0200501N00301012191CN009999199+00601-00201999999ADDGA1081+012191999GE19AGL   +99999+99999GF199999081999012191999999MA1103501999999REMMET059METAR ZSSS 021000Z 05003MPS 9999 OVC040 06/M02 Q1035 NOSIG=
0158583670999992019010210304+31198+121336FM-15+000399999V0200501V00301012191CN009999199+00601-00201999999ADDGA1081+012191999GE19AGL   +99999+99999GF199999081999012191999999MA1103501999999REMMET067METAR ZSSS 021030Z 05003MPS 020V080 9999 OVC040 06/M02 Q1035 NOSIG=
0150583670999992019010211004+31198+121336FM-15+000399999V0200601N00401012191CN009999199+00601-00201999999ADDGA1081+012191999GE19AGL   +99999+99999GF199999081999012191999999MA1103501999999REMMET059METAR ZSSS 021100Z 06004MPS 9999 OVC040 06/M02 Q1035 NOSIG=
0150583670999992019010211304+31198+121336FM-15+000399999V0200501N00401012191CN009999199+00601-00201999999ADDGA1081+012191999GE19AGL   +99999+99999GF199999081999012191999999MA1103501999999REMMET059METAR ZSSS 021130Z 05004MPS 9999 OVC040 06/M02 Q1035 NOSIG=
0158583670999992019010212004+31198+121336FM-15+000399999V0200501V00401012191CN009999199+00601-00201999999ADDGA1081+012191999GE19AGL   +99999+99999GF199999081999012191999999MA1103501999999REMMET067METAR ZSSS 021200Z 05004MPS 030V120 9999 OVC040 06/M02 Q1035 NOSIG=
0150583670999992019010212304+31198+121336FM-15+000399999V0200501N00401012191CN009999199+00601-00201999999ADDGA1081+012191999GE19AGL   +99999+99999GF199999081999012191999999MA1103501999999REMMET059METAR ZSSS 021230Z 05004MPS 9999 OVC040 06/M02 Q1035 NOSIG=
0080583670999992019010213004+31198+121336FM-15+000399999V0200301N004019999999Y009900199+00501-00101999999ADDMA1103501999999REMMET053METAR ZSSS 021300Z 03004MPS CAVOK 05/M01 Q1035 NOSIG=
0088583670999992019010213304+31198+121336FM-15+000399999V0200201V002019999999Y009900199+00501-00101999999ADDMA1103501999999REMMET061METAR ZSSS 021330Z 02002MPS 350V060 CAVOK 05/M01 Q1035 NOSIG=
0088583670999992019010214004+31198+121336FM-15+000399999V0200101V002019999999Y009900199+00501+00001999999ADDMA1103501999999REMMET061METAR ZSSS 021400Z 01002MPS 340V040 CAVOK 05/M00 Q1035 NOSIG=
0080583670999992019010214304+31198+121336FM-15+000399999V0209999V001019999999Y009900199+00501+00001999999ADDMA1103501999999REMMET053METAR ZSSS 021430Z VRB01MPS CAVOK 05/M00 Q1035 NOSIG=
0127583670999992019010215004+31198+121336FM-15+000399999V0200101V002012200019N009999199+00501+00001999999ADDGF100991999999999999999999MA1103501999999MW1611REMMET068METAR ZSSS 021500Z 01002MPS 350V050 9999 -RA NSC 05/M00 Q1035 NOSIG=
0126583670999992019010215304+31198+121336FM-15+000399999V0200101V002012200019N009999199+00501+00101999999ADDGF100991999999999999999999MA1103501999999MW1611REMMET067METAR ZSSS 021530Z 01002MPS 340V070 9999 -RA NSC 05/01 Q1035 NOSIG=
0079583670999992019010216004+31198+121336FM-15+000399999V0203401N001019999999Y009900199+00501+00101999999ADDMA1103501999999REMMET052METAR ZSSS 021600Z 34001MPS CAVOK 05/01 Q1035 NOSIG=
0079583670999992019010216304+31198+121336FM-15+000399999V0203501N002019999999Y009900199+00501+00101999999ADDMA1103401999999REMMET052METAR ZSSS 021630Z 35002MPS CAVOK 05/01 Q1034 NOSIG=
0079583670999992019010217004+31198+121336FM-15+000399999V0203401N002019999999Y009900199+00501+00101999999ADDMA1103401999999REMMET052METAR ZSSS 021700Z 34002MPS CAVOK 05/01 Q1034 NOSIG=
0079583670999992019010217304+31198+121336FM-15+000399999V0203501N003019999999Y009900199+00501+00101999999ADDMA1103401999999REMMET052METAR ZSSS 021730Z 35003MPS CAVOK 05/01 Q1034 NOSIG=
0079583670999992019010218004+31198+121336FM-15+000399999V0203501N002019999999Y009900199+00501+00101999999ADDMA1103401999999REMMET052METAR ZSSS 021800Z 35002MPS CAVOK 05/01 Q1034 NOSIG=
0079583670999992019010218304+31198+121336FM-15+000399999V0200101N002019999999Y009900199+00501+00101999999ADDMA1103401999999REMMET052METAR ZSSS 021830Z 01002MPS CAVOK 05/01 Q1034 NOSIG=
0079583670999992019010219004+31198+121336FM-15+000399999V0200301N002019999999Y009900199+00501+00101999999ADDMA1103401999999REMMET052METAR ZSSS 021900Z 03002MPS CAVOK 05/01 Q1034 NOSIG=
0079583670999992019010219304+31198+121336FM-15+000399999V0200301N002019999999Y009900199+00501+00101999999ADDMA1103401999999REMMET052METAR ZSSS 021930Z 03002MPS CAVOK 05/01 Q1034 NOSIG=
0079583670999992019010220004+31198+121336FM-15+000399999V0200401N001019999999Y009900199+00501+00101999999ADDMA1103401999999REMMET052METAR ZSSS 022000Z 04001MPS CAVOK 05/01 Q1034 NOSIG=
0149583670999992019010220304+31198+121336FM-15+000399999V0200201N00101010061CN009999199+00501+00101999999ADDGA1081+010061999GE19AGL   +99999+99999GF199999081999010061999999MA1103401999999REMMET058METAR ZSSS 022030Z 02001MPS 9999 OVC033 05/01 Q1034 NOSIG=
0149583670999992019010221004+31198+121336FM-15+000399999V0203601N00201010061CN009999199+00501+00101999999ADDGA1081+010061999GE19AGL   +99999+99999GF199999081999010061999999MA1103401999999REMMET058METAR ZSSS 022100Z 36002MPS 9999 OVC033 05/01 Q1034 NOSIG=
0149583670999992019010221304+31198+121336FM-15+000399999V0203601N00201010061CN009999199+00501+00101999999ADDGA1081+010061999GE19AGL   +99999+99999GF199999081999010061999999MA1103401999999REMMET058METAR ZSSS 022130Z 36002MPS 9999 OVC033 05/01 Q1034 NOSIG=
0149583670999992019010222004+31198+121336FM-15+000399999V0200101N00201010061CN009999199+00501+00101999999ADDGA1081+010061999GE19AGL   +99999+99999GF199999081999010061999999MA1103401999999REMMET058METAR ZSSS 022200Z 01002MPS 9999 OVC033 05/01 Q1034 NOSIG=
0149583670999992019010222304+31198+121336FM-15+000399999V0200501N00201012191CN009999199+00601+00001999999ADDGA1081+012191999GE19AGL   +99999+99999GF199999081999012191999999MA1103401999999REMMET058METAR ZSSS 022230Z 05002MPS 9999 OVC040 06/00 Q1034 NOSIG=
0149583670999992019010223004+31198+121336FM-15+000399999V0200501N00201012191CN009999199+00601+00001999999ADDGA1081+012191999GE19AGL   +99999+99999GF199999081999012191999999MA1103401999999REMMET058METAR ZSSS 022300Z 05002MPS 9999 OVC040 06/00 Q1034 NOSIG=
0157583670999992019010223304+31198+121336FM-15+000399999V0200601V00201012191CN009999199+00601+00101999999ADDGA1081+012191999GE19AGL   +99999+99999GF199999081999012191999999MA1103501999999REMMET066METAR ZSSS 022330Z 06002MPS 030V100 9999 OVC040 06/01 Q1035 NOSIG=
0157583670999992019010300004+31198+121336FM-15+000399999V0200501V00201012191CN009999199+00601+00001999999ADDGA1081+012191999GE19AGL   +99999+99999GF199999081999012191999999MA1103501999999REMMET066METAR ZSSS 030000Z 05002MPS 010V080 9999 OVC040 06/00 Q1035 NOSIG=
0157583670999992019010300304+31198+121336FM-15+000399999V0200601V00201010061CN009999199+00701+00001999999ADDGA1081+010061999GE19AGL   +99999+99999GF199999081999010061999999MA1103501999999REMMET066METAR ZSSS 030030Z 06002MPS 030V100 9999 OVC033 07/00 Q1035 NOSIG=
0149583670999992019010301004+31198+121336FM-15+000399999V0200701N00301007921CN009999199+00701+00001999999ADDGA1071+007921999GE19AGL   +99999+99999GF199999071999007921999999MA1103601999999REMMET058METAR ZSSS 030100Z 07003MPS 9999 BKN026 07/00 Q1036 NOSIG=
0149583670999992019010301304+31198+121336FM-15+000399999V0200701N00301009141CN009999199+00701+00001999999ADDGA1071+009141999GE19AGL   +99999+99999GF199999071999009141999999MA1103601999999REMMET058METAR ZSSS 030130Z 07003MPS 9999 BKN030 07/00 Q1036 NOSIG=
0149583670999992019010302004+31198+121336FM-15+000399999V0200601N00201009141CN009999199+00701+00101999999ADDGA1071+009141999GE19AGL   +99999+99999GF199999071999009141999999MA1103601999999REMMET058METAR ZSSS 030200Z 06002MPS 9999 BKN030 07/01 Q1036 NOSIG=
0149583670999992019010302304+31198+121336FM-15+000399999V0200701N00301009141CN009999199+00801+00101999999ADDGA1071+009141999GE19AGL   +99999+99999GF199999071999009141999999MA1103501999999REMMET058METAR ZSSS 030230Z 07003MPS 9999 BKN030 08/01 Q1035 NOSIG=
0157583670999992019010303004+31198+121336FM-15+000399999V0200901V00301010061CN009999199+00801+00001999999ADDGA1081+010061999GE19AGL   +99999+99999GF199999081999010061999999MA1103501999999REMMET066METAR ZSSS 030300Z 09003MPS 050V130 9999 OVC033 08/00 Q1035 NOSIG=
0157583670999992019010303304+31198+121336FM-15+000399999V0201001V00301010061CN009999199+00901+00001999999ADDGA1081+010061999GE19AGL   +99999+99999GF199999081999010061999999MA1103401999999REMMET066METAR ZSSS 030330Z 10003MPS 060V130 9999 OVC033 09/00 Q1034 NOSIG=
0157583670999992019010304004+31198+121336FM-15+000399999V0201001V00301010061CN009999199+00901+00001999999ADDGA1081+010061999GE19AGL   +99999+99999GF199999081999010061999999MA1103301999999REMMET066METAR ZSSS 030400Z 10003MPS 070V130 9999 OVC033 09/00 Q1033 NOSIG=
0149583670999992019010304304+31198+121336FM-15+000399999V0200801N00401010061CN009999199+00901+00101999999ADDGA1081+010061999GE19AGL   +99999+99999GF199999081999010061999999MA1103301999999REMMET058METAR ZSSS 030430Z 08004MPS 9999 OVC033 09/01 Q1033 NOSIG=
0149583670999992019010305004+31198+121336FM-15+000399999V0200901N00301010061CN009999199+00901+00101999999ADDGA1081+010061999GE19AGL   +99999+99999GF199999081999010061999999MA1103201999999REMMET058METAR ZSSS 030500Z 09003MPS 9999 OVC033 09/01 Q1032 NOSIG=
0157583670999992019010305304+31198+121336FM-15+000399999V0200901V00301010061CN009999199+00901+00101999999ADDGA1081+010061999GE19AGL   +99999+99999GF199999081999010061999999MA1103201999999REMMET066METAR ZSSS 030530Z 09003MPS 060V120 9999 OVC033 09/01 Q1032 NOSIG=
0157583670999992019010306004+31198+121336FM-15+000399999V0200901V00401010061CN009999199+00901+00101999999ADDGA1081+010061999GE19AGL   +99999+99999GF199999081999010061999999MA1103201999999REMMET066METAR ZSSS 030600Z 09004MPS 060V130 9999 OVC033 09/01 Q1032 NOSIG=
0157583670999992019010306304+31198+121336FM-15+000399999V0200801V00401010061CN009999199+00901+00101999999ADDGA1081+010061999GE19AGL   +99999+99999GF199999081999010061999999MA1103201999999REMMET066METAR ZSSS 030630Z 08004MPS 050V110 9999 OVC033 09/01 Q1032 NOSIG=
0157583670999992019010307004+31198+121336FM-15+000399999V0201001V00301010061CN009999199+00901+00201999999ADDGA1081+010061999GE19AGL   +99999+99999GF199999081999010061999999MA1103201999999REMMET066METAR ZSSS 030700Z 10003MPS 070V140 9999 OVC033 09/02 Q1032 NOSIG=
0149583670999992019010307304+31198+121336FM-15+000399999V0201001N00301010061CN009999199+00901+00201999999ADDGA1081+010061999GE19AGL   +99999+99999GF199999081999010061999999MA1103201999999REMMET058METAR ZSSS 030730Z 10003MPS 9999 OVC033 09/02 Q1032 NOSIG=
0157583670999992019010308004+31198+121336FM-15+000399999V0201001V00301010061CN009999199+00901+00201999999ADDGA1081+010061999GE19AGL   +99999+99999GF199999081999010061999999MA1103201999999REMMET066METAR ZSSS 030800Z 10003MPS 060V120 9999 OVC033 09/02 Q1032 NOSIG=
0157583670999992019010308304+31198+121336FM-15+000399999V0201101V00401010061CN009999199+00901+00201999999ADDGA1081+010061999GE19AGL   +99999+99999GF199999081999010061999999MA1103201999999REMMET066METAR ZSSS 030830Z 11004MPS 070V150 9999 OVC033 09/02 Q1032 NOSIG=
0149583670999992019010309004+31198+121336FM-15+000399999V0201001N00401010061CN009999199+00901+00201999999ADDGA1081+010061999GE19AGL   +99999+99999GF199999081999010061999999MA1103201999999REMMET058METAR ZSSS 030900Z 10004MPS 9999 OVC033 09/02 Q1032 NOSIG=
0157583670999992019010309304+31198+121336FM-15+000399999V0201001V00201010061CN009999199+00901+00201999999ADDGA1081+010061999GE19AGL   +99999+99999GF199999081999010061999999MA1103201999999REMMET066METAR ZSSS 030930Z 10002MPS 070V140 9999 OVC033 09/02 Q1032 NOSIG=
0157583670999992019010310004+31198+121336FM-15+000399999V0201001V00401012191CN009999199+00901+00201999999ADDGA1081+012191999GE19AGL   +99999+99999GF199999081999012191999999MA1103201999999REMMET066METAR ZSSS 031000Z 10004MPS 070V130 9999 OVC040 09/02 Q1032 NOSIG=
0157583670999992019010310304+31198+121336FM-15+000399999V0201101V00301012191CN009999199+00901+00201999999ADDGA1081+012191999GE19AGL   +99999+99999GF199999081999012191999999MA1103201999999REMMET066METAR ZSSS 031030Z 11003MPS 080V140 9999 OVC040 09/02 Q1032 NOSIG=
0149583670999992019010311004+31198+121336FM-15+000399999V0201001N00301012191CN009999199+00901+00201999999ADDGA1081+012191999GE19AGL   +99999+99999GF199999081999012191999999MA1103201999999REMMET058METAR ZSSS 031100Z 10003MPS 9999 OVC040 09/02 Q1032 NOSIG=
0157583670999992019010311304+31198+121336FM-15+000399999V0201001V00301012191CN009999199+00901+00201999999ADDGA1081+012191999GE19AGL   +99999+99999GF199999081999012191999999MA1103201999999REMMET066METAR ZSSS 031130Z 10003MPS 080V150 9999 OVC040 09/02 Q1032 NOSIG=
0149583670999992019010312004+31198+121336FM-15+000399999V0201001N00301012191CN009999199+00901+00301999999ADDGA1081+012191999GE19AGL   +99999+99999GF199999081999012191999999MA1103301999999REMMET058METAR ZSSS 031200Z 10003MPS 9999 OVC040 09/03 Q1033 NOSIG=
0157583670999992019010312304+31198+121336FM-15+000399999V0201001V00401012191CN009999199+00901+00301999999ADDGA1081+012191999GE19AGL   +99999+99999GF199999081999012191999999MA1103201999999REMMET066METAR ZSSS 031230Z 10004MPS 070V130 9999 OVC040 09/03 Q1032 NOSIG=
0149583670999992019010313004+31198+121336FM-15+000399999V0201101N00301010061CN009999199+00901+00301999999ADDGA1081+010061999GE19AGL   +99999+99999GF199999081999010061999999MA1103201999999REMMET058METAR ZSSS 031300Z 11003MPS 9999 OVC033 09/03 Q1032 NOSIG=
0149583670999992019010313304+31198+121336FM-15+000399999V0201101N00301010061CN009999199+00901+00301999999ADDGA1081+010061999GE19AGL   +99999+99999GF199999081999010061999999MA1103101999999REMMET058METAR ZSSS 031330Z 11003MPS 9999 OVC033 09/03 Q1031 NOSIG=
0149583670999992019010314004+31198+121336FM-15+000399999V0201201N00401010061CN009999199+00901+00401999999ADDGA1081+010061999GE19AGL   +99999+99999GF199999081999010061999999MA1103101999999REMMET058METAR ZSSS 031400Z 12004MPS 9999 OVC033 09/04 Q1031 NOSIG=
0157583670999992019010314304+31198+121336FM-15+000399999V0201301V00301012191CN009999199+00901+00401999999ADDGA1081+012191999GE19AGL   +99999+99999GF199999081999012191999999MA1103101999999REMMET066METAR ZSSS 031430Z 13003MPS 100V160 9999 OVC040 09/04 Q1031 NOSIG=
0149583670999992019010315004+31198+121336FM-15+000399999V0201201N00401012191CN009999199+00901+00401999999ADDGA1081+012191999GE19AGL   +99999+99999GF199999081999012191999999MA1103101999999REMMET058METAR ZSSS 031500Z 12004MPS 9999 OVC040 09/04 Q1031 NOSIG=
0149583670999992019010315304+31198+121336FM-15+000399999V0201101N00401012191CN009999199+00901+00401999999ADDGA1081+012191999GE19AGL   +99999+99999GF199999081999012191999999MA1103001999999REMMET058METAR ZSSS 031530Z 11004MPS 9999 OVC040 09/04 Q1030 NOSIG=
0157583670999992019010316004+31198+121336FM-15+000399999V0201101V00301012191CN009999199+00901+00401999999ADDGA1081+012191999GE19AGL   +99999+99999GF199999081999012191999999MA1103001999999REMMET066METAR ZSSS 031600Z 11003MPS 090V150 9999 OVC040 09/04 Q1030 NOSIG=
0149583670999992019010316304+31198+121336FM-15+000399999V0201201N00401012191CN009999199+00901+00401999999ADDGA1081+012191999GE19AGL   +99999+99999GF199999081999012191999999MA1103001999999REMMET058METAR ZSSS 031630Z 12004MPS 9999 OVC040 09/04 Q1030 NOSIG=
0149583670999992019010317004+31198+121336FM-15+000399999V0201301N00301010061CN009999199+00901+00501999999ADDGA1081+010061999GE19AGL   +99999+99999GF199999081999010061999999MA1103101999999REMMET058METAR ZSSS 031700Z 13003MPS 9999 OVC033 09/05 Q1031 NOSIG=
0149583670999992019010317304+31198+121336FM-15+000399999V0201101N00501010061CN009999199+00901+00501999999ADDGA1081+010061999GE19AGL   +99999+99999GF199999081999010061999999MA1103001999999REMMET058METAR ZSSS 031730Z 11005MPS 9999 OVC033 09/05 Q1030 NOSIG=
0149583670999992019010318004+31198+121336FM-15+000399999V0201201N00401010061CN009999199+00901+00501999999ADDGA1081+010061999GE19AGL   +99999+99999GF199999081999010061999999MA1103001999999REMMET058METAR ZSSS 031800Z 12004MPS 9999 OVC033 09/05 Q1030 NOSIG=
0149583670999992019010318304+31198+121336FM-15+000399999V0201301N00501010061CN009999199+00901+00401999999ADDGA1081+010061999GE19AGL   +99999+99999GF199999081999010061999999MA1102901999999REMMET058METAR ZSSS 031830Z 13005MPS 9999 OVC033 09/04 Q1029 NOSIG=
0149583670999992019010319004+31198+121336FM-15+000399999V0201301N00401010061CN009999199+00901+00401999999ADDGA1081+010061999GE19AGL   +99999+99999GF199999081999010061999999MA1103001999999REMMET058METAR ZSSS 031900Z 13004MPS 9999 OVC033 09/04 Q1030 NOSIG=
0149583670999992019010319304+31198+121336FM-15+000399999V0201201N00401010061CN009999199+00901+00401999999ADDGA1081+010061999GE19AGL   +99999+99999GF199999081999010061999999MA1102901999999REMMET058METAR ZSSS 031930Z 12004MPS 9999 OVC033 09/04 Q1029 NOSIG=
0149583670999992019010320004+31198+121336FM-15+000399999V0201201N00401010061CN009999199+00901+00501999999ADDGA1081+010061999GE19AGL   +99999+99999GF199999081999010061999999MA1102901999999REMMET058METAR ZSSS 032000Z 12004MPS 9999 OVC033 09/05 Q1029 NOSIG=
0149583670999992019010320304+31198+121336FM-15+000399999V0201201N00501010061CN009999199+00901+00501999999ADDGA1081+010061999GE19AGL   +99999+99999GF199999081999010061999999MA1102801999999REMMET058METAR ZSSS 032030Z 12005MPS 9999 OVC033 09/05 Q1028 NOSIG=
0149583670999992019010321004+31198+121336FM-15+000399999V0201201N00501010061CN009999199+00901+00501999999ADDGA1081+010061999GE19AGL   +99999+99999GF199999081999010061999999MA1102801999999REMMET058METAR ZSSS 032100Z 12005MPS 9999 OVC033 09/05 Q1028 NOSIG=
0149583670999992019010321304+31198+121336FM-15+000399999V0201301N00601010061CN009999199+00901+00501999999ADDGA1081+010061999GE19AGL   +99999+99999GF199999081999010061999999MA1102801999999REMMET058METAR ZSSS 032130Z 13006MPS 9999 OVC033 09/05 Q1028 NOSIG=
0157583670999992019010322004+31198+121336FM-15+000399999V0201301V00501010061CN009999199+00901+00601999999ADDGA1081+010061999GE19AGL   +99999+99999GF199999081999010061999999MA1102801999999REMMET066METAR ZSSS 032200Z 13005MPS 090V150 9999 OVC033 09/06 Q1028 NOSIG=
0159583670999992019010322304+31198+121336FM-15+000399999V0201301N00401009141CN009999199+00901+00601999999ADDGA1081+009141999GE19AGL   +99999+99999GF199999081999009141999999MA1102801999999MW1611REMMET062METAR ZSSS 032230Z 13004MPS 9999 -RA OVC030 09/06 Q1028 NOSIG=
0159583670999992019010323004+31198+121336FM-15+000399999V0201101N00401009141CN009999199+00901+00701999999ADDGA1081+009141999GE19AGL   +99999+99999GF199999081999009141999999MA1102801999999MW1611REMMET062METAR ZSSS 032300Z 11004MPS 9999 -RA OVC030 09/07 Q1028 NOSIG=
0159583670999992019010323304+31198+121336FM-15+000399999V0201201N00301009141CN009999199+00901+00701999999ADDGA1081+009141999GE19AGL   +99999+99999GF199999081999009141999999MA1102801999999MW1611REMMET062METAR ZSSS 032330Z 12003MPS 9999 -RA OVC030 09/07 Q1028 NOSIG=
0159583670999992019010400004+31198+121336FM-15+000399999V0201201N00301007921CN009999199+00901+00701999999ADDGA1081+007921999GE19AGL   +99999+99999GF199999081999007921999999MA1102901999999MW1611REMMET062METAR ZSSS 040000Z 12003MPS 9999 -RA OVC026 09/07 Q1029 NOSIG=
0182583670999992019010400304+31198+121336FM-15+000399999V0201101N00301007011CN007000199+00901+00801999999ADDGA1071+007011999GA2081+012191999GE19AGL   +99999+99999GF199999071999007011999999MA1102901999999MW1611REMMET069METAR ZSSS 040030Z 11003MPS 7000 -RA BKN023 OVC040 09/08 Q1029 NOSIG=
0190583670999992019010401004+31198+121336FM-15+000399999V0201201V00301006101CN007000199+00901+00801999999ADDGA1071+006101999GA2081+012191999GE19AGL   +99999+99999GF199999071999006101999999MA1102901999999MW1611REMMET077METAR ZSSS 040100Z 12003MPS 090V150 7000 -RA BKN020 OVC040 09/08 Q1029 NOSIG=
0220583670999992019010401304+31198+121336FM-15+000399999V0201301V00201006101CN005000199+00901+00801999999ADDGA1071+006101999GA2081+012191999GE19AGL   +99999+99999GF199999071999006101999999MA1102901999999MW1101MW2611REMMET101METAR ZSSS 040130Z 13002MPS 080V160 5000 -RA BR BKN020 OVC040 09/08 Q1029 BECMG TL0220 BKN011 OVC040=
0217583670999992019010402004+31198+121336FM-15+000399999V0201301N00201002131CN002800199+00901+00901999999ADDGA1071+002131999GA2081+010061999GE19AGL   +99999+99999GF199999071999002131999999MA1102901999999MW1101MW2611REMMET098METAR ZSSS 040200Z 13002MPS 2800 -RA BR BKN007 OVC033 09/09 Q1029 BECMG TL0320 3000 BKN010 OVC033=
0212583670999992019010402304+31198+121336FM-15+000399999V0201301N00401002131CN005000199+01001+00901999999ADDGA1071+002131999GA2081+010061999GE19AGL   +99999+99999GF199999071999002131999999MA1102901999999MW1101MW2611REMMET093METAR ZSSS 040230Z 13004MPS 5000 -RA BR BKN007 OVC033 10/09 Q1029 BECMG TL0400 BKN010 OVC033=
0191583670999992019010403004+31198+121336FM-15+000399999V0201401N00301001831CN005000199+01001+00901999999ADDGA1071+001831999GA2081+010061999GE19AGL   +99999+99999GF199999071999001831999999MA1102801999999MW1101MW2611REMMET072METAR ZSSS 040300Z 14003MPS 5000 -RA BR BKN006 OVC033 10/09 Q1028 NOSIG=
0191583670999992019010403304+31198+121336FM-15+000399999V0201401N00301001831CN005000199+01001+01001999999ADDGA1071+001831999GA2081+010061999GE19AGL   +99999+99999GF199999071999001831999999MA1102701999999MW1101MW2611REMMET072METAR ZSSS 040330Z 14003MPS 5000 -RA BR BKN006 OVC033 10/10 Q1027 NOSIG=
0203583670999992019010404004+31198+121336FM-15+000399999V0201501N00301001831CN005000199+01001+01001999999ADDGA1071+001831999GA2081+010061999GE19AGL   +99999+99999GF199999071999001831999999MA1102701999999MW1611REMMET090METAR ZSSS 040400Z 15003MPS 5000 -RA BKN006 OVC033 10/10 Q1027 BECMG TL0540 BKN010 OVC033=
0191583670999992019010404304+31198+121336FM-15+000399999V0201601N00401001831CN005000199+01001+01001999999ADDGA1071+001831999GA2081+012191999GE19AGL   +99999+99999GF199999071999001831999999MA1102601999999MW1101MW2611REMMET072METAR ZSSS 040430Z 16004MPS 5000 -RA BR BKN006 OVC040 10/10 Q1026 NOSIG=
0191583670999992019010405004+31198+121336FM-15+000399999V0201501N00301001831CN005000199+01101+01001999999ADDGA1071+001831999GA2081+012191999GE19AGL   +99999+99999GF199999071999001831999999MA1102601999999MW1101MW2611REMMET072METAR ZSSS 040500Z 15003MPS 5000 -RA BR BKN006 OVC040 11/10 Q1026 NOSIG=
0182583670999992019010405304+31198+121336FM-15+000399999V0201501N00401001521CN006000199+01101+01001999999ADDGA1071+001521999GA2081+012191999GE19AGL   +99999+99999GF199999071999001521999999MA1102501999999MW1611REMMET069METAR ZSSS 040530Z 15004MPS 6000 -RA BKN005 OVC040 11/10 Q1025 NOSIG=
0182583670999992019010406004+31198+121336FM-15+000399999V0201601N00401001831CN008000199+01101+01001999999ADDGA1071+001831999GA2081+012191999GE19AGL   +99999+99999GF199999071999001831999999MA1102501999999MW1611REMMET069METAR ZSSS 040600Z 16004MPS 8000 -RA BKN006 OVC040 11/10 Q1025 NOSIG=
0172583670999992019010406304+31198+121336FM-15+000399999V0201701N00301001831CN009999199+01101+01001999999ADDGA1071+001831999GA2081+012191999GE19AGL   +99999+99999GF199999071999001831999999MA1102501999999REMMET065METAR ZSSS 040630Z 17003MPS 9999 BKN006 OVC040 11/10 Q1025 NOSIG=
0172583670999992019010407004+31198+121336FM-15+000399999V0202201N00301001831CN009999199+01101+01001999999ADDGA1071+001831999GA2081+012191999GE19AGL   +99999+99999GF199999071999001831999999MA1102501999999REMMET065METAR ZSSS 040700Z 22003MPS 9999 BKN006 OVC040 11/10 Q1025 NOSIG=
0211583670999992019010407304+31198+121336FM-15+000399999V0202301V00201002131CN009999199+01101+01001999999ADDGA1071+002131999GA2081+012191999GE19AGL   +99999+99999GF199999071999002131999999MA1102501999999MW1611REMMET098METAR ZSSS 040730Z 23002MPS 180V330 9999 -RA BKN007 OVC040 11/10 Q1025 BECMG TL0910 BKN010 OVC040=
0201583670999992019010408004+31198+121336FM-15+000399999V0202301V00201002441CN009999199+01101+01001999999ADDGA1071+002441999GA2081+012191999GE19AGL   +99999+99999GF199999071999002441999999MA1102501999999REMMET094METAR ZSSS 040800Z 23002MPS 130V260 9999 BKN008 OVC040 11/10 Q1025 BECMG TL0940 BKN010 OVC040=
0181583670999992019010408304+31198+121336FM-15+000399999V0209999V00301002441CN005000199+01101+01001999999ADDGA1071+002441999GA2081+012191999GE19AGL   +99999+99999GF199999071999002441999999MA1102501999999MW1101REMMET068METAR ZSSS 040830Z VRB03MPS 5000 BR BKN008 OVC040 11/10 Q1025 NOSIG=
0196583670999992019010409004+31198+121336FM-15+000399999V0209999V00401000911CN003000199+01001+00901999999ADDGA1071+000911999GA2081+010061999GE19AGL   +99999+99999GF199999071999000911999999MA1102501999999MW1101REMMET083METAR ZSSS 040900Z VRB04MPS 3000 BR BKN003 OVC033 10/09 Q1025 BECMG TL1000 2500 BR=
0201583670999992019010409304+31198+121336FM-15+000399999V0203001V00401000911CN002500199+01001+00901999999ADDGA1071+000911999GA2081+010061999GE19AGL   +99999+99999GF199999071999000911999999MA1102501999999MW1101REMMET088METAR ZSSS 040930Z 30004MPS 280V340 2500 BR BKN003 OVC033 10/09 Q1025 BECMG TL1050 3000=
0193583670999992019010410004+31198+121336FM-15+000399999V0203101N00401000911CN002500199+01001+00901999999ADDGA1071+000911999GA2081+010061999GE19AGL   +99999+99999GF199999071999000911999999MA1102601999999MW1101REMMET080METAR ZSSS 041000Z 31004MPS 2500 BR BKN003 OVC033 10/09 Q1026 BECMG TL1130 3000=
0211583670999992019010410304+31198+121336FM-15+000399999V0203001V00501000911CN002500199+01001+00901999999ADDGA1071+000911999GA2081+010061999GE19AGL   +99999+99999GF199999071999000911999999MA1102601999999MW1101MW2611REMMET092METAR ZSSS 041030Z 30005MPS 280V340 2500 -RA BR BKN003 OVC033 10/09 Q1026 BECMG TL1130 3000=
0191583670999992019010411004+31198+121336FM-15+000399999V0203101N00301000911CN003000199+01001+00901999999ADDGA1071+000911999GA2081+010061999GE19AGL   +99999+99999GF199999071999000911999999MA1102601999999MW1101MW2611REMMET072METAR ZSSS 041100Z 31003MPS 3000 -RA BR BKN003 OVC033 10/09 Q1026 NOSIG=
0189583670999992019010411304+31198+121336FM-15+000399999V0203101V00401001221CN005000199+00901+00901999999ADDGA1071+001221999GA2081+010061999GE19AGL   +99999+99999GF199999071999001221999999MA1102601999999MW1101REMMET076METAR ZSSS 041130Z 31004MPS 270V350 5000 BR BKN004 OVC033 09/09 Q1026 NOSIG=
0172583670999992019010412004+31198+121336FM-15+000399999V0202901N00401001521CN006000199+00901+00801999999ADDGA1071+001521999GA2081+010061999GE19AGL   +99999+99999GF199999071999001521999999MA1102601999999REMMET065METAR ZSSS 041200Z 29004MPS 6000 BKN005 OVC033 09/08 Q1026 NOSIG=
0199583670999992019010412304+31198+121336FM-15+000399999V0203001V00301001521CN005000199+00901+00801999999ADDGA1071+001521999GA2081+010061999GE19AGL   +99999+99999GF199999071999001521999999MA1102601999999MW1101MW2611REMMET080METAR ZSSS 041230Z 30003MPS 270V360 5000 -RA BR BKN005 OVC033 09/08 Q1026 NOSIG=
0202583670999992019010413004+31198+121336FM-15+000399999V0203301N00401001221CN005000199+00901+00801999999ADDGA1071+001221999GA2081+010061999GE19AGL   +99999+99999GF199999071999001221999999MA1102501999999MW1101REMMET089METAR ZSSS 041300Z 33004MPS 5000 BR BKN004 OVC033 09/08 Q1025 BECMG TL1430 BKN005 OVC033=
0210583670999992019010413304+31198+121336FM-15+000399999V0203001V00401001221CN005000199+00901+00801999999ADDGA1071+001221999GA2081+010061999GE19AGL   +99999+99999GF199999071999001221999999MA1102601999999MW1101REMMET097METAR ZSSS 041330Z 30004MPS 280V340 5000 BR BKN004 OVC033 09/08 Q1026 BECMG TL1500 BKN005 OVC033=
0212583670999992019010414004+31198+121336FM-15+000399999V0203001N00501001221CN005000199+00901+00801999999ADDGA1071+001221999GA2081+010061999GE19AGL   +99999+99999GF199999071999001221999999MA1102601999999MW1101MW2611REMMET093METAR ZSSS 041400Z 30005MPS 5000 -RA BR BKN004 OVC033 09/08 Q1026 BECMG TL1540 BKN005 OVC033=
0191583670999992019010414304+31198+121336FM-15+000399999V0203001N00501001221CN005000199+00901+00801999999ADDGA1071+001221999GA2081+010061999GE19AGL   +99999+99999GF199999071999001221999999MA1102601999999MW1101MW2611REMMET072METAR ZSSS 041430Z 30005MPS 5000 -RA BR BKN004 OVC033 09/08 Q1026 NOSIG=
0212583670999992019010415004+31198+121336FM-15+000399999V0202901N00501001221CN005000199+00801+00801999999ADDGA1071+001221999GA2081+010061999GE19AGL   +99999+99999GF199999071999001221999999MA1102601999999MW1101MW2611REMMET093METAR ZSSS 041500Z 29005MPS 5000 -RA BR BKN004 OVC033 08/08 Q1026 BECMG TL1600 BKN005 OVC033=
0191583670999992019010415304+31198+121336FM-15+000399999V0203001N00401001221CN005000199+00801+00801999999ADDGA1071+001221999GA2081+010061999GE19AGL   +99999+99999GF199999071999001221999999MA1102601999999MW1101MW2611REMMET072METAR ZSSS 041530Z 30004MPS 5000 -RA BR BKN004 OVC033 08/08 Q1026 NOSIG=
0212583670999992019010416004+31198+121336FM-15+000399999V0203101N00401001221CN005000199+00801+00801999999ADDGA1071+001221999GA2081+010061999GE19AGL   +99999+99999GF199999071999001221999999MA1102501999999MW1101MW2611REMMET093METAR ZSSS 041600Z 31004MPS 5000 -RA BR BKN004 OVC033 08/08 Q1025 BECMG TL1700 BKN005 OVC033=
0199583670999992019010416304+31198+121336FM-15+000399999V0203101V00401001521CN005000199+00801+00801999999ADDGA1071+001521999GA2081+010061999GE19AGL   +99999+99999GF199999071999001521999999MA1102601999999MW1101MW2611REMMET080METAR ZSSS 041630Z 31004MPS 280V340 5000 -RA BR BKN005 OVC033 08/08 Q1026 NOSIG=
0212583670999992019010417004+31198+121336FM-15+000399999V0202901N00401001521CN005000199+00801+00801999999ADDGA1071+001521999GA2081+010061999GE19AGL   +99999+99999GF199999071999001521999999MA1102601999999MW1101MW2611REMMET093METAR ZSSS 041700Z 29004MPS 5000 -RA BR BKN005 OVC033 08/08 Q1026 BECMG TL1830 BKN004 OVC033=
0191583670999992019010417304+31198+121336FM-15+000399999V0202901N00401001521CN005000199+00801+00701999999ADDGA1071+001521999GA2081+010061999GE19AGL   +99999+99999GF199999071999001521999999MA1102601999999MW1101MW2611REMMET072METAR ZSSS 041730Z 29004MPS 5000 -RA BR BKN005 OVC033 08/07 Q1026 NOSIG=
0180583670999992019010418004+31198+121336FM-15+000399999V0202901V00501001521CN006000199+00801+00701999999ADDGA1071+001521999GA2081+010061999GE19AGL   +99999+99999GF199999071999001521999999MA1102601999999REMMET073METAR ZSSS 041800Z 29005MPS 260V320 6000 BKN005 OVC033 08/07 Q1026 NOSIG=
0199583670999992019010418304+31198+121336FM-15+000399999V0203001V00401001221CN005000199+00801+00701999999ADDGA1071+001221999GA2081+010061999GE19AGL   +99999+99999GF199999071999001221999999MA1102601999999MW1101MW2611REMMET080METAR ZSSS 041830Z 30004MPS 270V330 5000 -RA BR BKN004 OVC033 08/07 Q1026 NOSIG=
0199583670999992019010419004+31198+121336FM-15+000399999V0203201V00301000611CN003000199+00801+00701999999ADDGA1071+000611999GA2081+010061999GE19AGL   +99999+99999GF199999071999000611999999MA1102501999999MW1101MW2611REMMET080METAR ZSSS 041900Z 32003MPS 290V010 3000 -RA BR BKN002 OVC033 08/07 Q1025 NOSIG=
0181583670999992019010419304+31198+121336FM-15+000399999V0203101N00301000611CN004000199+00801+00701999999ADDGA1071+000611999GA2081+010061999GE19AGL   +99999+99999GF199999071999000611999999MA1102501999999MW1101REMMET068METAR ZSSS 041930Z 31003MPS 4000 BR BKN002 OVC033 08/07 Q1025 NOSIG=
0204583670999992019010420004+31198+121336FM-15+000399999V0203201V00301000611CN003000199+00801+00701999999ADDGA1071+000611999GA2081+010061999GE19AGL   +99999+99999GF199999071999000611999999MA1102501999999MW1101REMMET091METAR ZSSS 042000Z 32003MPS 290V360 3000 BR BKN002 OVC033 08/07 Q1025 BECMG TL2050 2500 BR=
0181583670999992019010420304+31198+121336FM-15+000399999V0202901N00401000611CN002500199+00801+00701999999ADDGA1071+000611999GA2081+010061999GE19AGL   +99999+99999GF199999071999000611999999MA1102601999999MW1101REMMET068METAR ZSSS 042030Z 29004MPS 2500 BR BKN002 OVC033 08/07 Q1026 NOSIG=
0181583670999992019010421004+31198+121336FM-15+000399999V0202901N00401000611CN002500199+00701+00701999999ADDGA1071+000611999GA2081+010061999GE19AGL   +99999+99999GF199999071999000611999999MA1102601999999MW1101REMMET068METAR ZSSS 042100Z 29004MPS 2500 BR BKN002 OVC033 07/07 Q1026 NOSIG=
0181583670999992019010421304+31198+121336FM-15+000399999V0203001N00401000911CN003000199+00701+00701999999ADDGA1071+000911999GA2081+010061999GE19AGL   +99999+99999GF199999071999000911999999MA1102601999999MW1101REMMET068METAR ZSSS 042130Z 30004MPS 3000 BR BKN003 OVC033 07/07 Q1026 NOSIG=
0195583670999992019010422004+31198+121336FM-15+000399999V0203001N00401001221CN004000199+00701+00701999999ADDGA1071+001221999GA2081+010061999GE19AGL   +99999+99999GF199999071999001221999999MA1102601999999MW1101REMMET082METAR ZSSS 042200Z 30004MPS 4000 BR BKN004 OVC033 07/07 Q1026 BECMG TL2330 BKN005=
0189583670999992019010422304+31198+121336FM-15+000399999V0203201V00301001221CN005000199+00701+00701999999ADDGA1071+001221999GA2081+010061999GE19AGL   +99999+99999GF199999071999001221999999MA1102601999999MW1101REMMET076METAR ZSSS 042230Z 32003MPS 290V350 5000 BR BKN004 OVC033 07/07 Q1026 NOSIG=
0195583670999992019010423004+31198+121336FM-15+000399999V0203001N00401001221CN005000199+00801+00701999999ADDGA1071+001221999GA2081+010061999GE19AGL   +99999+99999GF199999071999001221999999MA1102601999999MW1101REMMET082METAR ZSSS 042300Z 30004MPS 5000 BR BKN004 OVC033 08/07 Q1026 BECMG TL0030 BKN005=
0181583670999992019010423304+31198+121336FM-15+000399999V0203001N00401001221CN004000199+00801+00701999999ADDGA1071+001221999GA2081+010061999GE19AGL   +99999+99999GF199999071999001221999999MA1102601999999MW1101REMMET068METAR ZSSS 042330Z 30004MPS 4000 BR BKN004 OVC033 08/07 Q1026 NOSIG=
0204583670999992019010500004+31198+121336FM-15+000399999V0203101V00301001221CN003000199+00801+00801999999ADDGA1071+001221999GA2081+010061999GE19AGL   +99999+99999GF199999071999001221999999MA1102701999999MW1101REMMET091METAR ZSSS 050000Z 31003MPS 280V350 3000 BR BKN004 OVC033 08/08 Q1027 BECMG TL0030 2500 BR=
0211583670999992019010500304+31198+121336FM-15+000399999V0203401V00301001521CN002500199+00801+00801999999ADDGA1071+001521999GA2081+010061999GE19AGL   +99999+99999GF199999071999001521999999MA1102701999999MW1101MW2611REMMET092METAR ZSSS 050030Z 34003MPS 300V010 2500 -RA BR BKN005 OVC033 08/08 Q1027 BECMG TL0120 3000=
0181583670999992019010501004+31198+121336FM-15+000399999V0200201N00401001521CN005000199+00801+00801999999ADDGA1071+001521999GA2081+010061999GE19AGL   +99999+99999GF199999071999001521999999MA1102701999999MW1101REMMET068METAR ZSSS 050100Z 02004MPS 5000 BR BKN005 OVC033 08/08 Q1027 NOSIG=
0189583670999992019010501304+31198+121336FM-15+000399999V0200301V00401001521CN005000199+00801+00801999999ADDGA1071+001521999GA2081+010061999GE19AGL   +99999+99999GF199999071999001521999999MA1102801999999MW1101REMMET076METAR ZSSS 050130Z 03004MPS 360V070 5000 BR BKN005 OVC033 08/08 Q1028 NOSIG=
0181583670999992019010502004+31198+121336FM-15+000399999V0200301N00401001831CN005000199+00901+00801999999ADDGA1071+001831999GA2081+010061999GE19AGL   +99999+99999GF199999071999001831999999MA1102701999999MW1101REMMET068METAR ZSSS 050200Z 03004MPS 5000 BR BKN006 OVC033 09/08 Q1027 NOSIG=
0191583670999992019010502304+31198+121336FM-15+000399999V0200101N00401001831CN005000199+00801+00801999999ADDGA1071+001831999GA2081+010061999GE19AGL   +99999+99999GF199999071999001831999999MA1102801999999MW1101MW2611REMMET072METAR ZSSS 050230Z 01004MPS 5000 -RA BR BKN006 OVC033 08/08 Q1028 NOSIG=
0186583670999992019010503004+31198+121336FM-15+000399999V0200201N00301001831CN007000199+00801+00701999999ADDGA1071+001831999GA2081+010061999GE19AGL   +99999+99999GF199999071999001831999999MA1102701999999REMMET079METAR ZSSS 050300Z 02003MPS 7000 BKN006 OVC033 08/07 Q1027 BECMG TL0430 BKN010=
0180583670999992019010503304+31198+121336FM-15+000399999V0200301V00301002131CN008000199+00801+00801999999ADDGA1071+002131999GA2081+010061999GE19AGL   +99999+99999GF199999071999002131999999MA1102701999999REMMET073METAR ZSSS 050330Z 03003MPS 360V060 8000 BKN007 OVC033 08/08 Q1027 NOSIG=
0182583670999992019010504004+31198+121336FM-15+000399999V0200201N00301002131CN006000199+00801+00701999999ADDGA1071+002131999GA2081+010061999GE19AGL   +99999+99999GF199999071999002131999999MA1102601999999MW1611REMMET069METAR ZSSS 050400Z 02003MPS 6000 -RA BKN007 OVC033 08/07 Q1026 NOSIG=
0191583670999992019010504304+31198+121336FM-15+000399999V0200401N00401001831CN005000199+00801+00701999999ADDGA1071+001831999GA2081+010061999GE19AGL   +99999+99999GF199999071999001831999999MA1102601999999MW1101MW2611REMMET072METAR ZSSS 050430Z 04004MPS 5000 -RA BR BKN006 OVC033 08/07 Q1026 NOSIG=
0182583670999992019010505004+31198+121336FM-15+000399999V0200101N00301001831CN006000199+00801+00801999999ADDGA1071+001831999GA2081+010061999GE19AGL   +99999+99999GF199999071999001831999999MA1102601999999MW1611REMMET069METAR ZSSS 050500Z 01003MPS 6000 -RA BKN006 OVC033 08/08 Q1026 NOSIG=
0172583670999992019010505304+31198+121336FM-15+000399999V0200201N00301001831CN007000199+00801+00701999999ADDGA1071+001831999GA2081+010061999GE19AGL   +99999+99999GF199999071999001831999999MA1102501999999REMMET065METAR ZSSS 050530Z 02003MPS 7000 BKN006 OVC033 08/07 Q1025 NOSIG=
0180583670999992019010506004+31198+121336FM-15+000399999V0200201V00301002131CN007000199+00801+00701999999ADDGA1071+002131999GA2081+010061999GE19AGL   +99999+99999GF199999071999002131999999MA1102501999999REMMET073METAR ZSSS 050600Z 02003MPS 360V060 7000 BKN007 OVC033 08/07 Q1025 NOSIG=
0172583670999992019010506304+31198+121336FM-15+000399999V0203601N00401002131CN007000199+00801+00701999999ADDGA1071+002131999GA2081+010061999GE19AGL   +99999+99999GF199999071999002131999999MA1102501999999REMMET065METAR ZSSS 050630Z 36004MPS 7000 BKN007 OVC033 08/07 Q1025 NOSIG=
0195583670999992019010507004+31198+121336FM-15+000399999V0200101N003010048819N007000199+00901+00701999999ADDGA1041+002441999GA2071+004881999GA3081+012191999GE19AGL   +99999+99999GF199999041999002441999999MA1102501999999REMMET072METAR ZSSS 050700Z 01003MPS 7000 SCT008 BKN016 OVC040 09/07 Q1025 NOSIG=
0180583670999992019010507304+31198+121336FM-15+000399999V0203401V004010048819N007000199+00801+00701999999ADDGA1041+002741999GA2071+004881999GE19AGL   +99999+99999GF199999041999002741999999MA1102601999999REMMET073METAR ZSSS 050730Z 34004MPS 300V010 7000 SCT009 BKN016 08/07 Q1026 NOSIG=
0168583670999992019010508004+31198+121336FM-15+000399999V0200201N00401002741CN004000199+00801+00701999999ADDGA1071+002741999GE19AGL   +99999+99999GF199999071999002741999999MA1102601999999MW1101MW2611REMMET065METAR ZSSS 050800Z 02004MPS 4000 -RA BR BKN009 08/07 Q1026 NOSIG=
0158583670999992019010508304+31198+121336FM-15+000399999V0200101N00201002131CN005000199+00801+00701999999ADDGA1071+002131999GE19AGL   +99999+99999GF199999071999002131999999MA1102501999999MW1101REMMET061METAR ZSSS 050830Z 01002MPS 5000 BR BKN007 08/07 Q1025 NOSIG=
0171583670999992019010509004+31198+121336FM-15+000399999V0200501V00201002131CN007000199+00801+00701999999ADDGA1071+002131999GE19AGL   +99999+99999GF199999071999002131999999MA1102601999999REMMET080METAR ZSSS 050900Z 05002MPS 020V090 7000 BKN007 08/07 Q1026 BECMG TL1030 BKN010=
0157583670999992019010509304+31198+121336FM-15+000399999V0200101V00201003051CN007000199+00801+00701999999ADDGA1071+003051999GE19AGL   +99999+99999GF199999071999003051999999MA1102601999999REMMET066METAR ZSSS 050930Z 01002MPS 340V040 7000 BKN010 08/07 Q1026 NOSIG=
0163583670999992019010510004+31198+121336FM-15+000399999V0203601N00301003051CN006000199+00801+00701999999ADDGA1071+003051999GE19AGL   +99999+99999GF199999071999003051999999MA1102601999999REMMET072METAR ZSSS 051000Z 36003MPS 6000 BKN010 08/07 Q1026 BECMG TL1120 BKN008=
0191583670999992019010510304+31198+121336FM-15+000399999V0200101N00301002131CN003500199+00801+00701999999ADDGA1071+002131999GA2081+012191999GE19AGL   +99999+99999GF199999071999002131999999MA1102701999999MW1101MW2611REMMET072METAR ZSSS 051030Z 01003MPS 3500 -RA BR BKN007 OVC040 08/07 Q1027 NOSIG=
0205583670999992019010511004+31198+121336FM-15+000399999V0203601N00301001521CN003500199+00801+00701999999ADDGA1071+001521999GA2081+010061999GE19AGL   +99999+99999GF199999071999001521999999MA1102701999999MW1101MW2611REMMET086METAR ZSSS 051100Z 36003MPS 3500 -RA BR BKN005 OVC033 08/07 Q1027 BECMG TL1230 BKN004=
0191583670999992019010511304+31198+121336FM-15+000399999V0203601N00401001521CN003500199+00801+00701999999ADDGA1071+001521999GA2081+010061999GE19AGL   +99999+99999GF199999071999001521999999MA1102701999999MW1101MW2611REMMET072METAR ZSSS 051130Z 36004MPS 3500 -RA BR BKN005 OVC033 08/07 Q1027 NOSIG=
0217583670999992019010512004+31198+121336FM-15+000399999V0203601N00301001521CN003000199+00801+00701999999ADDGA1071+001521999GA2081+010061999GE19AGL   +99999+99999GF199999071999001521999999MA1102801999999MW1101MW2611REMMET098METAR ZSSS 051200Z 36003MPS 3000 -RA BR BKN005 OVC033 08/07 Q1028 BECMG TL1310 2500 -RA BR BKN004=
0191583670999992019010512304+31198+121336FM-15+000399999V0203601N00301001221CN002500199+00801+00701999999ADDGA1071+001221999GA2081+010061999GE19AGL   +99999+99999GF199999071999001221999999MA1102701999999MW1101MW2611REMMET072METAR ZSSS 051230Z 36003MPS 2500 -RA BR BKN004 OVC033 08/07 Q1027 NOSIG=
0210583670999992019010513004+31198+121336FM-15+000399999V0203601N00401001221CN002800199+00801+00701999999ADDGA1071+001221999GA2081+010061999GE19AGL   +99999+99999GF199999071999001221999999MA1102801999999MW1101MW2611REMMET091METAR ZSSS 051300Z 36004MPS 2800 -RA BR BKN004 OVC033 08/07 Q1028 BECMG TL1430 3500 BKN005=
0191583670999992019010513304+31198+121336FM-15+000399999V0203601N00301001831CN003000199+00801+00701999999ADDGA1071+001831999GA2081+010061999GE19AGL   +99999+99999GF199999071999001831999999MA1102801999999MW1101MW2611REMMET072METAR ZSSS 051330Z 36003MPS 3000 -RA BR BKN006 OVC033 08/07 Q1028 NOSIG=
0217583670999992019010514004+31198+121336FM-15+000399999V0200101N00301001521CN003000199+00801+00701999999ADDGA1071+001521999GA2081+007921999GE19AGL   +99999+99999GF199999071999001521999999MA1102801999999MW1101MW2611REMMET098METAR ZSSS 051400Z 01003MPS 3000 -RA BR BKN005 OVC026 08/07 Q1028 BECMG TL1450 2500 -RA BR BKN004=
0191583670999992019010514304+31198+121336FM-15+000399999V0203601N00301001521CN002800199+00801+00701999999ADDGA1071+001521999GA2081+007921999GE19AGL   +99999+99999GF199999071999001521999999MA1102801999999MW1101MW2611REMMET072METAR ZSSS 051430Z 36003MPS 2800 -RA BR BKN005 OVC026 08/07 Q1028 NOSIG=
0203583670999992019010515004+31198+121336FM-15+000399999V0203601N00201001521CN002800199+00801+00701999999ADDGA1071+001521999GA2081+007921999GE19AGL   +99999+99999GF199999071999001521999999MA1102801999999MW1101MW2611REMMET084METAR ZSSS 051500Z 36002MPS 2800 -RA BR BKN005 OVC026 08/07 Q1028 BECMG TL1550 3500=
0191583670999992019010515304+31198+121336FM-15+000399999V0200201N00201002131CN004000199+00801+00701999999ADDGA1071+002131999GA2081+009141999GE19AGL   +99999+99999GF199999071999002131999999MA1102801999999MW1101MW2611REMMET072METAR ZSSS 051530Z 02002MPS 4000 -RA BR BKN007 OVC030 08/07 Q1028 NOSIG=
0205583670999992019010516004+31198+121336FM-15+000399999V0203601N00301002441CN004500199+00701+00701999999ADDGA1071+002441999GA2081+009141999GE19AGL   +99999+99999GF199999071999002441999999MA1102801999999MW1101MW2611REMMET086METAR ZSSS 051600Z 36003MPS 4500 -RA BR BKN008 OVC030 07/07 Q1028 BECMG TL1730 BKN010=
0181583670999992019010516304+31198+121336FM-15+000399999V0203501N00301002741CN004500199+00701+00601999999ADDGA1071+002741999GA2081+009141999GE19AGL   +99999+99999GF199999071999002741999999MA1102801999999MW1101REMMET068METAR ZSSS 051630Z 35003MPS 4500 BR BKN009 OVC030 07/06 Q1028 NOSIG=
0191583670999992019010517004+31198+121336FM-15+000399999V0203601N00301002131CN003500199+00701+00701999999ADDGA1071+002131999GA2081+009141999GE19AGL   +99999+99999GF199999071999002131999999MA1102801999999MW1101MW2611REMMET072METAR ZSSS 051700Z 36003MPS 3500 -RA BR BKN007 OVC030 07/07 Q1028 NOSIG=
0191583670999992019010517304+31198+121336FM-15+000399999V0203601N00301001521CN003000199+00701+00701999999ADDGA1071+001521999GA2081+009141999GE19AGL   +99999+99999GF199999071999001521999999MA1102801999999MW1101MW2611REMMET072METAR ZSSS 051730Z 36003MPS 3000 -RA BR BKN005 OVC030 07/07 Q1028 NOSIG=
0191583670999992019010518004+31198+121336FM-15+000399999V0203601N00401001521CN003000199+00701+00601999999ADDGA1071+001521999GA2081+009141999GE19AGL   +99999+99999GF199999071999001521999999MA1102801999999MW1101MW2611REMMET072METAR ZSSS 051800Z 36004MPS 3000 -RA BR BKN005 OVC030 07/06 Q1028 NOSIG=
0191583670999992019010518304+31198+121336FM-15+000399999V0203601N00301001521CN003000199+00701+00601999999ADDGA1071+001521999GA2081+009141999GE19AGL   +99999+99999GF199999071999001521999999MA1102801999999MW1101MW2611REMMET072METAR ZSSS 051830Z 36003MPS 3000 -RA BR BKN005 OVC030 07/06 Q1028 NOSIG=
0181583670999992019010519004+31198+121336FM-15+000399999V0203501N00401001521CN003000199+00701+00601999999ADDGA1071+001521999GA2081+009141999GE19AGL   +99999+99999GF199999071999001521999999MA1102801999999MW1101REMMET068METAR ZSSS 051900Z 35004MPS 3000 BR BKN005 OVC030 07/06 Q1028 NOSIG=
0181583670999992019010519304+31198+121336FM-15+000399999V0203501N00301001521CN003000199+00701+00601999999ADDGA1071+001521999GA2081+009141999GE19AGL   +99999+99999GF199999071999001521999999MA1102801999999MW1101REMMET068METAR ZSSS 051930Z 35003MPS 3000 BR BKN005 OVC030 07/06 Q1028 NOSIG=
0181583670999992019010520004+31198+121336FM-15+000399999V0203301N00301001521CN003000199+00701+00601999999ADDGA1071+001521999GA2081+009141999GE19AGL   +99999+99999GF199999071999001521999999MA1102801999999MW1101REMMET068METAR ZSSS 052000Z 33003MPS 3000 BR BKN005 OVC030 07/06 Q1028 NOSIG=
0181583670999992019010520304+31198+121336FM-15+000399999V0203401N00301001221CN003000199+00701+00601999999ADDGA1071+001221999GA2081+009141999GE19AGL   +99999+99999GF199999071999001221999999MA1102801999999MW1101REMMET068METAR ZSSS 052030Z 34003MPS 3000 BR BKN004 OVC030 07/06 Q1028 NOSIG=
0181583670999992019010521004+31198+121336FM-15+000399999V0203501N00301001221CN003000199+00601+00601999999ADDGA1071+001221999GA2081+009141999GE19AGL   +99999+99999GF199999071999001221999999MA1102901999999MW1101REMMET068METAR ZSSS 052100Z 35003MPS 3000 BR BKN004 OVC030 06/06 Q1029 NOSIG=
0181583670999992019010521304+31198+121336FM-15+000399999V0203501N00401001221CN003000199+00601+00601999999ADDGA1071+001221999GA2081+009141999GE19AGL   +99999+99999GF199999071999001221999999MA1102901999999MW1101REMMET068METAR ZSSS 052130Z 35004MPS 3000 BR BKN004 OVC030 06/06 Q1029 NOSIG=
0212583670999992019010522004+31198+121336FM-15+000399999V0203601N00401001221CN004500199+00601+00601999999ADDGA1071+001221999GA2081+009141999GE19AGL   +99999+99999GF199999071999001221999999MA1102901999999MW1101MW2611REMMET093METAR ZSSS 052200Z 36004MPS 4500 -RA BR BKN004 OVC030 06/06 Q1029 BECMG TL2300 BKN005 OVC030=
0203583670999992019010522304+31198+121336FM-15+000399999V0203601N00401001221CN009999199+00601+00601999999ADDGA1071+001221999GA2081+009141999GE19AGL   +99999+99999GF199999071999001221999999MA1103001999999MW1611REMMET090METAR ZSSS 052230Z 36004MPS 9999 -RA BKN004 OVC030 06/06 Q1030 BECMG TL2350 BKN005 OVC030=
0203583670999992019010523004+31198+121336FM-15+000399999V0203601N00301001831CN009999199+00601+00601999999ADDGA1071+001831999GA2081+009141999GE19AGL   +99999+99999GF199999071999001831999999MA1103101999999MW1611REMMET090METAR ZSSS 052300Z 36003MPS 9999 -RA BKN006 OVC030 06/06 Q1031 BECMG TL0030 BKN011 OVC030=
0202583670999992019010523304+31198+121336FM-15+000399999V0203601N00401001831CN005000199+00601+00601999999ADDGA1071+001831999GA2081+009141999GE19AGL   +99999+99999GF199999071999001831999999MA1103101999999MW1101REMMET089METAR ZSSS 052330Z 36004MPS 5000 BR BKN006 OVC030 06/06 Q1031 BECMG TL0050 BKN011 OVC030=
0205583670999992019010600004+31198+121336FM-15+000399999V0203601N00501001521CN004000199+00601+00601999999ADDGA1071+001521999GA2081+009141999GE19AGL   +99999+99999GF199999071999001521999999MA1103101999999MW1101MW2611REMMET086METAR ZSSS 060000Z 36005MPS 4000 -RA BR BKN005 OVC030 06/06 Q1031 BECMG TL0050 BKN004=
0191583670999992019010600304+31198+121336FM-15+000399999V0200101N00401001521CN005000199+00601+00601999999ADDGA1071+001521999GA2081+009141999GE19AGL   +99999+99999GF199999071999001521999999MA1103101999999MW1101MW2611REMMET072METAR ZSSS 060030Z 01004MPS 5000 -RA BR BKN005 OVC030 06/06 Q1031 NOSIG=
0182583670999992019010601004+31198+121336FM-15+000399999V0200201N00401001831CN007000199+00601+00601999999ADDGA1071+001831999GA2081+009141999GE19AGL   +99999+99999GF199999071999001831999999MA1103001999999MW1611REMMET069METAR ZSSS 060100Z 02004MPS 7000 -RA BKN006 OVC030 06/06 Q1030 NOSIG=
0182583670999992019010601304+31198+121336FM-15+000399999V0200101N00401002441CN008000199+00601+00501999999ADDGA1071+002441999GA2081+009141999GE19AGL   +99999+99999GF199999071999002441999999MA1103001999999MW1611REMMET069METAR ZSSS 060130Z 01004MPS 8000 -RA BKN008 OVC030 06/05 Q1030 NOSIG=
0186583670999992019010602004+31198+121336FM-15+000399999V0200401N00401002441CN009999199+00601+00501999999ADDGA1071+002441999GA2081+009141999GE19AGL   +99999+99999GF199999071999002441999999MA1103001999999REMMET079METAR ZSSS 060200Z 04004MPS 9999 BKN008 OVC030 06/05 Q1030 BECMG TL0350 BKN010=
0172583670999992019010602304+31198+121336FM-15+000399999V0200301N00301003051CN009999199+00701+00501999999ADDGA1071+003051999GA2081+010061999GE19AGL   +99999+99999GF199999071999003051999999MA1103001999999REMMET065METAR ZSSS 060230Z 03003MPS 9999 BKN010 OVC033 07/05 Q1030 NOSIG=
0172583670999992019010603004+31198+121336FM-15+000399999V0200201N00301003961CN009999199+00701+00501999999ADDGA1071+003961999GA2081+010061999GE19AGL   +99999+99999GF199999071999003961999999MA1103001999999REMMET065METAR ZSSS 060300Z 02003MPS 9999 BKN013 OVC033 07/05 Q1030 NOSIG=
0201583670999992019010603304+31198+121336FM-15+000399999V0200201V00201003961CN009999199+00701+00501999999ADDGA1071+003961999GA2081+010061999GE19AGL   +99999+99999GF199999071999003961999999MA1103001999999REMMET094METAR ZSSS 060330Z 02002MPS 350V050 9999 BKN013 OVC033 07/05 Q1030 BECMG TL0500 BKN015 OVC033=
0201583670999992019010604004+31198+121336FM-15+000399999V0200101V00201003961CN009999199+00701+00501999999ADDGA1071+003961999GA2081+010061999GE19AGL   +99999+99999GF199999071999003961999999MA1102901999999REMMET094METAR ZSSS 060400Z 01002MPS 340V060 9999 BKN013 OVC033 07/05 Q1029 BECMG TL0530 BKN015 OVC033=
0180583670999992019010604304+31198+121336FM-15+000399999V0200201V002010100619N009999199+00701+00501999999ADDGA1041+003961999GA2081+010061999GE19AGL   +99999+99999GF199999041999003961999999MA1102901999999REMMET073METAR ZSSS 060430Z 02002MPS 340V060 9999 SCT013 OVC033 07/05 Q1029 NOSIG=
0172583670999992019010605004+31198+121336FM-15+000399999V0200301N002010100619N009999199+00801+00501999999ADDGA1041+004571999GA2081+010061999GE19AGL   +99999+99999GF199999041999004571999999MA1102801999999REMMET065METAR ZSSS 060500Z 03002MPS 9999 SCT015 OVC033 08/05 Q1028 NOSIG=
0180583670999992019010605304+31198+121336FM-15+000399999V0203401V002010100619N009999199+00801+00501999999ADDGA1041+004571999GA2081+010061999GE19AGL   +99999+99999GF199999041999004571999999MA1102901999999REMMET073METAR ZSSS 060530Z 34002MPS 310V010 9999 SCT015 OVC033 08/05 Q1029 NOSIG=
0172583670999992019010606004+31198+121336FM-15+000399999V0209999V001010100619N009999199+00701+00401999999ADDGA1041+004571999GA2081+010061999GE19AGL   +99999+99999GF199999041999004571999999MA1102901999999REMMET065METAR ZSSS 060600Z VRB01MPS 9999 SCT015 OVC033 07/04 Q1029 NOSIG=
0172583670999992019010606304+31198+121336FM-15+000399999V0209999V001010100619N009999199+00701+00401999999ADDGA1021+004571999GA2081+010061999GE19AGL   +99999+99999GF199999021999004571999999MA1102901999999REMMET065METAR ZSSS 060630Z VRB01MPS 9999 FEW015 OVC033 07/04 Q1029 NOSIG=
0172583670999992019010607004+31198+121336FM-15+000399999V0209999V001010100619N009999199+00701+00401999999ADDGA1021+004571999GA2081+010061999GE19AGL   +99999+99999GF199999021999004571999999MA1102801999999REMMET065METAR ZSSS 060700Z VRB01MPS 9999 FEW015 OVC033 07/04 Q1028 NOSIG=
0172583670999992019010607304+31198+121336FM-15+000399999V0200201N002010091419N009999199+00701+00401999999ADDGA1021+004571999GA2081+009141999GE19AGL   +99999+99999GF199999021999004571999999MA1102901999999REMMET065METAR ZSSS 060730Z 02002MPS 9999 FEW015 OVC030 07/04 Q1029 NOSIG=
0172583670999992019010608004+31198+121336FM-15+000399999V0203601N001010091419N009999199+00701+00401999999ADDGA1021+004571999GA2081+009141999GE19AGL   +99999+99999GF199999021999004571999999MA1102901999999REMMET065METAR ZSSS 060800Z 36001MPS 9999 FEW015 OVC030 07/04 Q1029 NOSIG=
0172583670999992019010608304+31198+121336FM-15+000399999V0209999V001010091419N009999199+00701+00401999999ADDGA1021+004571999GA2081+009141999GE19AGL   +99999+99999GF199999021999004571999999MA1102901999999REMMET065METAR ZSSS 060830Z VRB01MPS 9999 FEW015 OVC030 07/04 Q1029 NOSIG=
0172583670999992019010609004+31198+121336FM-15+000399999V0203301N003010121919N009999199+00801+00501999999ADDGA1041+006101999GA2081+012191999GE19AGL   +99999+99999GF199999041999006101999999MA1102901999999REMMET065METAR ZSSS 060900Z 33003MPS 9999 SCT020 OVC040 08/05 Q1029 NOSIG=
0180583670999992019010609304+31198+121336FM-15+000399999V0203301V00301006101CN009999199+00801+00501999999ADDGA1071+006101999GA2081+012191999GE19AGL   +99999+99999GF199999071999006101999999MA1103001999999REMMET073METAR ZSSS 060930Z 33003MPS 290V350 9999 BKN020 OVC040 08/05 Q1030 NOSIG=
0191583670999992019010610004+31198+121336FM-15+000399999V0203001V00301004881CN009999199+00801+00501999999ADDGA1071+004881999GA2081+012191999GE19AGL   +99999+99999GF199999071999004881999999MA1103001999999OC100801REMMET076METAR ZSSS 061000Z 30003G08MPS 270V330 9999 BKN016 OVC040 08/05 Q1030 NOSIG=
0180583670999992019010610304+31198+121336FM-15+000399999V0203401V00301005491CN009999199+00701+00501999999ADDGA1071+005491999GA2081+012191999GE19AGL   +99999+99999GF199999071999005491999999MA1103001999999REMMET073METAR ZSSS 061030Z 34003MPS 310V010 9999 BKN018 OVC040 07/05 Q1030 NOSIG=
0172583670999992019010611004+31198+121336FM-15+000399999V0203601N00301005491CN009999199+00701+00501999999ADDGA1071+005491999GA2081+012191999GE19AGL   +99999+99999GF199999071999005491999999MA1103001999999REMMET065METAR ZSSS 061100Z 36003MPS 9999 BKN018 OVC040 07/05 Q1030 NOSIG=
0172583670999992019010611304+31198+121336FM-15+000399999V0200101N00401006101CN009999199+00701+00501999999ADDGA1071+006101999GA2081+012191999GE19AGL   +99999+99999GF199999071999006101999999MA1103001999999REMMET065METAR ZSSS 061130Z 01004MPS 9999 BKN020 OVC040 07/05 Q1030 NOSIG=
0180583670999992019010612004+31198+121336FM-15+000399999V0200401V00301006101CN009999199+00701+00501999999ADDGA1071+006101999GA2081+012191999GE19AGL   +99999+99999GF199999071999006101999999MA1103001999999REMMET073METAR ZSSS 061200Z 04003MPS 010V080 9999 BKN020 OVC040 07/05 Q1030 NOSIG=
0172583670999992019010612304+31198+121336FM-15+000399999V0200401N00301007011CN009999199+00701+00501999999ADDGA1071+007011999GA2081+012191999GE19AGL   +99999+99999GF199999071999007011999999MA1103001999999REMMET065METAR ZSSS 061230Z 04003MPS 9999 BKN023 OVC040 07/05 Q1030 NOSIG=
0172583670999992019010613004+31198+121336FM-15+000399999V0200501N00301007011CN009999199+00701+00501999999ADDGA1071+007011999GA2081+012191999GE19AGL   +99999+99999GF199999071999007011999999MA1103001999999REMMET065METAR ZSSS 061300Z 05003MPS 9999 BKN023 OVC040 07/05 Q1030 NOSIG=
0172583670999992019010613304+31198+121336FM-15+000399999V0200401N003010121919N009999199+00701+00401999999ADDGA1021+007011999GA2081+012191999GE19AGL   +99999+99999GF199999021999007011999999MA1103001999999REMMET065METAR ZSSS 061330Z 04003MPS 9999 FEW023 OVC040 07/04 Q1030 NOSIG=
0172583670999992019010614004+31198+121336FM-15+000399999V0200501N002010121919N009999199+00701+00401999999ADDGA1021+006101999GA2081+012191999GE19AGL   +99999+99999GF199999021999006101999999MA1103001999999REMMET065METAR ZSSS 061400Z 05002MPS 9999 FEW020 OVC040 07/04 Q1030 NOSIG=
0157583670999992019010614304+31198+121336FM-15+000399999V0200401V00201012191CN009999199+00701+00401999999ADDGA1081+012191999GE19AGL   +99999+99999GF199999081999012191999999MA1102901999999REMMET066METAR ZSSS 061430Z 04002MPS 010V070 9999 OVC040 07/04 Q1029 NOSIG=
0172583670999992019010615004+31198+121336FM-15+000399999V0200201N003010121919N009999199+00701+00401999999ADDGA1021+005491999GA2081+012191999GE19AGL   +99999+99999GF199999021999005491999999MA1102901999999REMMET065METAR ZSSS 061500Z 02003MPS 9999 FEW018 OVC040 07/04 Q1029 NOSIG=
0172583670999992019010615304+31198+121336FM-15+000399999V0200401N002010121919N009999199+00701+00401999999ADDGA1021+005491999GA2081+012191999GE19AGL   +99999+99999GF199999021999005491999999MA1102901999999REMMET065METAR ZSSS 061530Z 04002MPS 9999 FEW018 OVC040 07/04 Q1029 NOSIG=
0149583670999992019010616004+31198+121336FM-15+000399999V0200801N00201012191CN009999199+00701+00401999999ADDGA1081+012191999GE19AGL   +99999+99999GF199999081999012191999999MA1102901999999REMMET058METAR ZSSS 061600Z 08002MPS 9999 OVC040 07/04 Q1029 NOSIG=
0149583670999992019010616304+31198+121336FM-15+000399999V0200801N00201013111CN009999199+00701+00401999999ADDGA1081+013111999GE19AGL   +99999+99999GF199999081999013111999999MA1102901999999REMMET058METAR ZSSS 061630Z 08002MPS 9999 OVC043 07/04 Q1029 NOSIG=
0157583670999992019010617004+31198+121336FM-15+000399999V0200901V00201013111CN009999199+00701+00401999999ADDGA1081+013111999GE19AGL   +99999+99999GF199999081999013111999999MA1102901999999REMMET066METAR ZSSS 061700Z 09002MPS 050V120 9999 OVC043 07/04 Q1029 NOSIG=
0149583670999992019010617304+31198+121336FM-15+000399999V0200901N00101013111CN009999199+00701+00401999999ADDGA1081+013111999GE19AGL   +99999+99999GF199999081999013111999999MA1102901999999REMMET058METAR ZSSS 061730Z 09001MPS 9999 OVC043 07/04 Q1029 NOSIG=
0149583670999992019010618004+31198+121336FM-15+000399999V0200701N00201013111CN009999199+00701+00401999999ADDGA1081+013111999GE19AGL   +99999+99999GF199999081999013111999999MA1102901999999REMMET058METAR ZSSS 061800Z 07002MPS 9999 OVC043 07/04 Q1029 NOSIG=
0149583670999992019010618304+31198+121336FM-15+000399999V0200301N00401013111CN009999199+00701+00401999999ADDGA1081+013111999GE19AGL   +99999+99999GF199999081999013111999999MA1102801999999REMMET058METAR ZSSS 061830Z 03004MPS 9999 OVC043 07/04 Q1028 NOSIG=
0149583670999992019010619004+31198+121336FM-15+000399999V0200401N00301013111CN009999199+00701+00401999999ADDGA1081+013111999GE19AGL   +99999+99999GF199999081999013111999999MA1102801999999REMMET058METAR ZSSS 061900Z 04003MPS 9999 OVC043 07/04 Q1028 NOSIG=
0079583670999992019010619304+31198+121336FM-15+000399999V0200301N002019999999Y009900199+00701+00401999999ADDMA1102801999999REMMET052METAR ZSSS 061930Z 03002MPS CAVOK 07/04 Q1028 NOSIG=
0079583670999992019010620004+31198+121336FM-15+000399999V0203501N001019999999Y009900199+00601+00401999999ADDMA1102801999999REMMET052METAR ZSSS 062000Z 35001MPS CAVOK 06/04 Q1028 NOSIG=
0079583670999992019010620304+31198+121336FM-15+000399999V0200201N003019999999Y009900199+00601+00401999999ADDMA1102801999999REMMET052METAR ZSSS 062030Z 02003MPS CAVOK 06/04 Q1028 NOSIG=
0079583670999992019010621004+31198+121336FM-15+000399999V0200501N002019999999Y009900199+00701+00401999999ADDMA1102801999999REMMET052METAR ZSSS 062100Z 05002MPS CAVOK 07/04 Q1028 NOSIG=
0079583670999992019010621304+31198+121336FM-15+000399999V0200501N003019999999Y009900199+00701+00401999999ADDMA1102801999999REMMET052METAR ZSSS 062130Z 05003MPS CAVOK 07/04 Q1028 NOSIG=
0079583670999992019010622004+31198+121336FM-15+000399999V0200501N003019999999Y009900199+00701+00401999999ADDMA1102801999999REMMET052METAR ZSSS 062200Z 05003MPS CAVOK 07/04 Q1028 NOSIG=
0079583670999992019010622304+31198+121336FM-15+000399999V0200501N002019999999Y009900199+00701+00401999999ADDMA1102801999999REMMET052METAR ZSSS 062230Z 05002MPS CAVOK 07/04 Q1028 NOSIG=
0079583670999992019010623004+31198+121336FM-15+000399999V0200401N002019999999Y009900199+00701+00401999999ADDMA1102801999999REMMET052METAR ZSSS 062300Z 04002MPS CAVOK 07/04 Q1028 NOSIG=
0149583670999992019010623304+31198+121336FM-15+000399999V0200201N00201013111CN009999199+00701+00401999999ADDGA1081+013111999GE19AGL   +99999+99999GF199999081999013111999999MA1102801999999REMMET058METAR ZSSS 062330Z 02002MPS 9999 OVC043 07/04 Q1028 NOSIG=
0157583670999992019010700004+31198+121336FM-15+000399999V0200601V00201013111CN009999199+00801+00301999999ADDGA1081+013111999GE19AGL   +99999+99999GF199999081999013111999999MA1102801999999REMMET066METAR ZSSS 070000Z 06002MPS 020V100 9999 OVC043 08/03 Q1028 NOSIG=
0157583670999992019010700304+31198+121336FM-15+000399999V0200801V00201013111CN009999199+00801+00301999999ADDGA1081+013111999GE19AGL   +99999+99999GF199999081999013111999999MA1102801999999REMMET066METAR ZSSS 070030Z 08002MPS 050V110 9999 OVC043 08/03 Q1028 NOSIG=
0157583670999992019010701004+31198+121336FM-15+000399999V0200801V00301013111CN009999199+00801+00301999999ADDGA1081+013111999GE19AGL   +99999+99999GF199999081999013111999999MA1102801999999REMMET066METAR ZSSS 070100Z 08003MPS 050V110 9999 OVC043 08/03 Q1028 NOSIG=
0157583670999992019010701304+31198+121336FM-15+000399999V0200701V00401013111CN009999199+00801+00301999999ADDGA1081+013111999GE19AGL   +99999+99999GF199999081999013111999999MA1102801999999REMMET066METAR ZSSS 070130Z 07004MPS 040V100 9999 OVC043 08/03 Q1028 NOSIG=
0157583670999992019010702004+31198+121336FM-15+000399999V0200701V00401012191CN009999199+00801+00201999999ADDGA1081+012191999GE19AGL   +99999+99999GF199999081999012191999999MA1102801999999REMMET066METAR ZSSS 070200Z 07004MPS 030V090 9999 OVC040 08/02 Q1028 NOSIG=
0157583670999992019010702304+31198+121336FM-15+000399999V0200701V00301012191CN009999199+00801+00301999999ADDGA1081+012191999GE19AGL   +99999+99999GF199999081999012191999999MA1102801999999REMMET066METAR ZSSS 070230Z 07003MPS 040V100 9999 OVC040 08/03 Q1028 NOSIG=
0149583670999992019010703004+31198+121336FM-15+000399999V0200801N00301012191CN009999199+00801+00301999999ADDGA1081+012191999GE19AGL   +99999+99999GF199999081999012191999999MA1102701999999REMMET058METAR ZSSS 070300Z 08003MPS 9999 OVC040 08/03 Q1027 NOSIG=
0157583670999992019010703304+31198+121336FM-15+000399999V0200801V00301012191CN009999199+00801+00401999999ADDGA1081+012191999GE19AGL   +99999+99999GF199999081999012191999999MA1102701999999REMMET066METAR ZSSS 070330Z 08003MPS 040V100 9999 OVC040 08/04 Q1027 NOSIG=
0149583670999992019010704004+31198+121336FM-15+000399999V0200601N00201012191CN009999199+00801+00501999999ADDGA1081+012191999GE19AGL   +99999+99999GF199999081999012191999999MA1102701999999REMMET058METAR ZSSS 070400Z 06002MPS 9999 OVC040 08/05 Q1027 NOSIG=
0182583670999992019010704304+31198+121336FM-15+000399999V0200401N00301007921CN007000199+00801+00501999999ADDGA1071+007921999GA2081+012191999GE19AGL   +99999+99999GF199999071999007921999999MA1102601999999MW1611REMMET069METAR ZSSS 070430Z 04003MPS 7000 -RA BKN026 OVC040 08/05 Q1026 NOSIG=
0191583670999992019010705004+31198+121336FM-15+000399999V0200401N00301007921CN005000199+00701+00601999999ADDGA1071+007921999GA2081+012191999GE19AGL   +99999+99999GF199999071999007921999999MA1102601999999MW1101MW2611REMMET072METAR ZSSS 070500Z 04003MPS 5000 -RA BR BKN026 OVC040 07/06 Q1026 NOSIG=
0205583670999992019010705304+31198+121336FM-15+000399999V0209999V00201004571CN004000199+00701+00601999999ADDGA1071+004571999GA2081+012191999GE19AGL   +99999+99999GF199999071999004571999999MA1102601999999MW1101MW2611REMMET086METAR ZSSS 070530Z VRB02MPS 4000 -RA BR BKN015 OVC040 07/06 Q1026 BECMG TL0550 BKN011=
0213583670999992019010706004+31198+121336FM-15+000399999V0200301V00401003051CN005000199+00701+00601999999ADDGA1071+003051999GA2081+012191999GE19AGL   +99999+99999GF199999071999003051999999MA1102601999999MW1101MW2611REMMET094METAR ZSSS 070600Z 03004MPS 360V060 5000 -RA BR BKN010 OVC040 07/06 Q1026 BECMG TL0710 BKN007=
0199583670999992019010706304+31198+121336FM-15+000399999V0200301V00301003051CN005000199+00701+00601999999ADDGA1071+003051999GA2081+012191999GE19AGL   +99999+99999GF199999071999003051999999MA1102601999999MW1101MW2611REMMET080METAR ZSSS 070630Z 03003MPS 360V070 5000 -RA BR BKN010 OVC040 07/06 Q1026 NOSIG=
0205583670999992019010707004+31198+121336FM-15+000399999V0200201N00401002741CN005000199+00701+00601999999ADDGA1071+002741999GA2081+012191999GE19AGL   +99999+99999GF199999071999002741999999MA1102601999999MW1101MW2611REMMET086METAR ZSSS 070700Z 02004MPS 5000 -RA BR BKN009 OVC040 07/06 Q1026 BECMG TL0850 BKN011=
0181583670999992019010707304+31198+121336FM-15+000399999V0200201N00501002741CN004000199+00701+00601999999ADDGA1071+002741999GA2081+012191999GE19AGL   +99999+99999GF199999071999002741999999MA1102601999999MW1101REMMET068METAR ZSSS 070730Z 02005MPS 4000 BR BKN009 OVC040 07/06 Q1026 NOSIG=
0181583670999992019010708004+31198+121336FM-15+000399999V0200301N00401002741CN003000199+00701+00601999999ADDGA1071+002741999GA2081+012191999GE19AGL   +99999+99999GF199999071999002741999999MA1102701999999MW1101REMMET068METAR ZSSS 070800Z 03004MPS 3000 BR BKN009 OVC040 07/06 Q1027 NOSIG=
0191583670999992019010708304+31198+121336FM-15+000399999V0200301N00301001831CN002500199+00701+00601999999ADDGA1071+001831999GA2081+012191999GE19AGL   +99999+99999GF199999071999001831999999MA1102601999999MW1101MW2611REMMET072METAR ZSSS 070830Z 03003MPS 2500 -RA BR BKN006 OVC040 07/06 Q1026 NOSIG=
0202583670999992019010709004+31198+121336FM-15+000399999V0200401N00401002131CN003500199+00701+00601999999ADDGA1071+002131999GA2081+012191999GE19AGL   +99999+99999GF199999071999002131999999MA1102601999999MW1101REMMET089METAR ZSSS 070900Z 04004MPS 3500 BR BKN007 OVC040 07/06 Q1026 BECMG TL1030 BKN010 OVC040=
0182583670999992019010709304+31198+121336FM-15+000399999V0200201N00401002441CN006000199+00701+00601999999ADDGA1071+002441999GA2081+012191999GE19AGL   +99999+99999GF199999071999002441999999MA1102701999999MW1611REMMET069METAR ZSSS 070930Z 02004MPS 6000 -RA BKN008 OVC040 07/06 Q1027 NOSIG=
0211583670999992019010710004+31198+121336FM-15+000399999V0200401V00301002741CN006000199+00701+00601999999ADDGA1071+002741999GA2081+012191999GE19AGL   +99999+99999GF199999071999002741999999MA1102701999999MW1611REMMET098METAR ZSSS 071000Z 04003MPS 020V080 6000 -RA BKN009 OVC040 07/06 Q1027 BECMG TL1040 BKN010 OVC040=
0190583670999992019010710304+31198+121336FM-15+000399999V0200301V00301002131CN006000199+00701+00601999999ADDGA1071+002131999GA2081+012191999GE19AGL   +99999+99999GF199999071999002131999999MA1102701999999MW1611REMMET077METAR ZSSS 071030Z 03003MPS 010V110 6000 -RA BKN007 OVC040 07/06 Q1027 NOSIG=
0203583670999992019010711004+31198+121336FM-15+000399999V0200401N00501003051CN006000199+00701+00601999999ADDGA1071+003051999GA2081+012191999GE19AGL   +99999+99999GF199999071999003051999999MA1102701999999MW1611REMMET090METAR ZSSS 071100Z 04005MPS 6000 -RA BKN010 OVC040 07/06 Q1027 BECMG TL1230 BKN008 OVC040=
0182583670999992019010711304+31198+121336FM-15+000399999V0200401N00401002131CN006000199+00701+00601999999ADDGA1071+002131999GA2081+012191999GE19AGL   +99999+99999GF199999071999002131999999MA1102801999999MW1611REMMET069METAR ZSSS 071130Z 04004MPS 6000 -RA BKN007 OVC040 07/06 Q1028 NOSIG=
0182583670999992019010712004+31198+121336FM-15+000399999V0200401N00401002441CN006000199+00601+00601999999ADDGA1071+002441999GA2081+012191999GE19AGL   +99999+99999GF199999071999002441999999MA1102801999999MW1611REMMET069METAR ZSSS 071200Z 04004MPS 6000 -RA BKN008 OVC040 06/06 Q1028 NOSIG=
0190583670999992019010712304+31198+121336FM-15+000399999V0200401V00401002441CN006000199+00601+00601999999ADDGA1071+002441999GA2081+012191999GE19AGL   +99999+99999GF199999071999002441999999MA1102801999999MW1611REMMET077METAR ZSSS 071230Z 04004MPS 020V080 6000 -RA BKN008 OVC040 06/06 Q1028 NOSIG=
0203583670999992019010713004+31198+121336FM-15+000399999V0200401N00401002741CN006000199+00601+00501999999ADDGA1071+002741999GA2081+012191999GE19AGL   +99999+99999GF199999071999002741999999MA1102801999999MW1611REMMET090METAR ZSSS 071300Z 04004MPS 6000 -RA BKN009 OVC040 06/05 Q1028 BECMG TL1400 BKN010 OVC040=
0182583670999992019010713304+31198+121336FM-15+000399999V0200301N00401003051CN006000199+00601+00501999999ADDGA1071+003051999GA2081+012191999GE19AGL   +99999+99999GF199999071999003051999999MA1102801999999MW1611REMMET069METAR ZSSS 071330Z 03004MPS 6000 -RA BKN010 OVC040 06/05 Q1028 NOSIG=
0182583670999992019010714004+31198+121336FM-15+000399999V0200401N00401003051CN008000199+00601+00501999999ADDGA1071+003051999GA2081+012191999GE19AGL   +99999+99999GF199999071999003051999999MA1102801999999MW1611REMMET069METAR ZSSS 071400Z 04004MPS 8000 -RA BKN010 OVC040 06/05 Q1028 NOSIG=
0196583670999992019010714304+31198+121336FM-15+000399999V0200201N00401003051CN008000199+00701+00501999999ADDGA1071+003051999GA2081+012191999GE19AGL   +99999+99999GF199999071999003051999999MA1102801999999MW1611REMMET083METAR ZSSS 071430Z 02004MPS 8000 -RA BKN010 OVC040 07/05 Q1028 BECMG TL1510 BKN009=
0196583670999992019010715004+31198+121336FM-15+000399999V0200201N00501002741CN008000199+00601+00501999999ADDGA1071+002741999GA2081+012191999GE19AGL   +99999+99999GF199999071999002741999999MA1102801999999MW1611REMMET083METAR ZSSS 071500Z 02005MPS 8000 -RA BKN009 OVC040 06/05 Q1028 BECMG TL1650 BKN010=
0186583670999992019010715304+31198+121336FM-15+000399999V0200201N00501002741CN009999199+00601+00501999999ADDGA1071+002741999GA2081+012191999GE19AGL   +99999+99999GF199999071999002741999999MA1102801999999REMMET079METAR ZSSS 071530Z 02005MPS 9999 BKN009 OVC040 06/05 Q1028 BECMG TL1720 BKN010=
0193583670999992019010716004+31198+121336FM-15+000399999V0200201N00401003351CN009999199+00601+00501999999ADDGA1071+003351999GA2081+012191999GE19AGL   +99999+99999GF199999071999003351999999MA1102801999999REMMET086METAR ZSSS 071600Z 02004MPS 9999 BKN011 OVC040 06/05 Q1028 BECMG TL1710 SCT011 OVC040=
0172583670999992019010716304+31198+121336FM-15+000399999V0200101N00401003351CN009999199+00601+00501999999ADDGA1071+003351999GA2081+012191999GE19AGL   +99999+99999GF199999071999003351999999MA1102901999999REMMET065METAR ZSSS 071630Z 01004MPS 9999 BKN011 OVC040 06/05 Q1029 NOSIG=
0172583670999992019010717004+31198+121336FM-15+000399999V0200101N004010121919N009999199+00601+00501999999ADDGA1041+003351999GA2081+012191999GE19AGL   +99999+99999GF199999041999003351999999MA1102901999999REMMET065METAR ZSSS 071700Z 01004MPS 9999 SCT011 OVC040 06/05 Q1029 NOSIG=
0172583670999992019010717304+31198+121336FM-15+000399999V0203601N004010121919N009999199+00601+00501999999ADDGA1041+003351999GA2081+012191999GE19AGL   +99999+99999GF199999041999003351999999MA1102901999999REMMET065METAR ZSSS 071730Z 36004MPS 9999 SCT011 OVC040 06/05 Q1029 NOSIG=
0172583670999992019010718004+31198+121336FM-15+000399999V0200101N004010121919N009999199+00601+00501999999ADDGA1041+003351999GA2081+012191999GE19AGL   +99999+99999GF199999041999003351999999MA1102901999999REMMET065METAR ZSSS 071800Z 01004MPS 9999 SCT011 OVC040 06/05 Q1029 NOSIG=
0172583670999992019010718304+31198+121336FM-15+000399999V0200101N00501003051CN006000199+00601+00501999999ADDGA1071+003051999GA2081+012191999GE19AGL   +99999+99999GF199999071999003051999999MA1102901999999REMMET065METAR ZSSS 071830Z 01005MPS 6000 BKN010 OVC040 06/05 Q1029 NOSIG=
0193583670999992019010719004+31198+121336FM-15+000399999V0203601N00401002441CN007000199+00601+00501999999ADDGA1071+002441999GA2081+012191999GE19AGL   +99999+99999GF199999071999002441999999MA1102901999999REMMET086METAR ZSSS 071900Z 36004MPS 7000 BKN008 OVC040 06/05 Q1029 BECMG TL2030 BKN010 OVC040=
0172583670999992019010719304+31198+121336FM-15+000399999V0203501N00401002741CN007000199+00601+00501999999ADDGA1071+002741999GA2081+012191999GE19AGL   +99999+99999GF199999071999002741999999MA1103001999999REMMET065METAR ZSSS 071930Z 35004MPS 7000 BKN009 OVC040 06/05 Q1030 NOSIG=
0193583670999992019010720004+31198+121336FM-15+000399999V0203601N00501002741CN007000199+00601+00501999999ADDGA1071+002741999GA2081+012191999GE19AGL   +99999+99999GF199999071999002741999999MA1102901999999REMMET086METAR ZSSS 072000Z 36005MPS 7000 BKN009 OVC040 06/05 Q1029 BECMG TL2100 SCT009 OVC040=
0172583670999992019010720304+31198+121336FM-15+000399999V0203601N004010100619N007000199+00601+00401999999ADDGA1021+002741999GA2081+010061999GE19AGL   +99999+99999GF199999021999002741999999MA1102901999999REMMET065METAR ZSSS 072030Z 36004MPS 7000 FEW009 OVC033 06/04 Q1029 NOSIG=
0149583670999992019010721004+31198+121336FM-15+000399999V0203601N00401010061CN007000199+00601+00401999999ADDGA1081+010061999GE19AGL   +99999+99999GF199999081999010061999999MA1102901999999REMMET058METAR ZSSS 072100Z 36004MPS 7000 OVC033 06/04 Q1029 NOSIG=
0172583670999992019010721304+31198+121336FM-15+000399999V0203601N004010100619N007000199+00601+00401999999ADDGA1041+006101999GA2081+010061999GE19AGL   +99999+99999GF199999041999006101999999MA1103001999999REMMET065METAR ZSSS 072130Z 36004MPS 7000 SCT020 OVC033 06/04 Q1030 NOSIG=
0172583670999992019010722004+31198+121336FM-15+000399999V0203601N004010100619N009999199+00601+00401999999ADDGA1041+006101999GA2081+010061999GE19AGL   +99999+99999GF199999041999006101999999MA1103001999999REMMET065METAR ZSSS 072200Z 36004MPS 9999 SCT020 OVC033 06/04 Q1030 NOSIG=
0172583670999992019010722304+31198+121336FM-15+000399999V0203601N004010100619N009999199+00601+00401999999ADDGA1021+006101999GA2081+010061999GE19AGL   +99999+99999GF199999021999006101999999MA1103001999999REMMET065METAR ZSSS 072230Z 36004MPS 9999 FEW020 OVC033 06/04 Q1030 NOSIG=
0172583670999992019010723004+31198+121336FM-15+000399999V0203601N004010121919N007000199+00601+00401999999ADDGA1021+007011999GA2081+012191999GE19AGL   +99999+99999GF199999021999007011999999MA1103001999999REMMET065METAR ZSSS 072300Z 36004MPS 7000 FEW023 OVC040 06/04 Q1030 NOSIG=
0149583670999992019010723304+31198+121336FM-15+000399999V0203601N00501012191CN007000199+00601+00401999999ADDGA1081+012191999GE19AGL   +99999+99999GF199999081999012191999999MA1103001999999REMMET058METAR ZSSS 072330Z 36005MPS 7000 OVC040 06/04 Q1030 NOSIG=
0149583670999992019010800004+31198+121336FM-15+000399999V0203601N00501012191CN009999199+00601+00301999999ADDGA1081+012191999GE19AGL   +99999+99999GF199999081999012191999999MA1103101999999REMMET058METAR ZSSS 080000Z 36005MPS 9999 OVC040 06/03 Q1031 NOSIG=
0149583670999992019010800304+31198+121336FM-15+000399999V0203601N00601012191CN009999199+00601+00301999999ADDGA1081+012191999GE19AGL   +99999+99999GF199999081999012191999999MA1103101999999REMMET058METAR ZSSS 080030Z 36006MPS 9999 OVC040 06/03 Q1031 NOSIG=
0149583670999992019010801004+31198+121336FM-15+000399999V0200101N00501012191CN009999199+00601+00301999999ADDGA1081+012191999GE19AGL   +99999+99999GF199999081999012191999999MA1103101999999REMMET058METAR ZSSS 080100Z 01005MPS 9999 OVC040 06/03 Q1031 NOSIG=
0149583670999992019010801304+31198+121336FM-15+000399999V0203601N00601012191CN009999199+00601+00301999999ADDGA1081+012191999GE19AGL   +99999+99999GF199999081999012191999999MA1103201999999REMMET058METAR ZSSS 080130Z 36006MPS 9999 OVC040 06/03 Q1032 NOSIG=
0149583670999992019010802004+31198+121336FM-15+000399999V0203601N00601012191CN009999199+00701+00301999999ADDGA1081+012191999GE19AGL   +99999+99999GF199999081999012191999999MA1103101999999REMMET058METAR ZSSS 080200Z 36006MPS 9999 OVC040 07/03 Q1031 NOSIG=
0149583670999992019010802304+31198+121336FM-15+000399999V0203601N00601004881CN009999199+00701+00301999999ADDGA1071+004881999GE19AGL   +99999+99999GF199999071999004881999999MA1103101999999REMMET058METAR ZSSS 080230Z 36006MPS 9999 BKN016 07/03 Q1031 NOSIG=
0172583670999992019010803004+31198+121336FM-15+000399999V0203601N006010121919N009999199+00701+00301999999ADDGA1041+004881999GA2081+012191999GE19AGL   +99999+99999GF199999041999004881999999MA1103101999999REMMET065METAR ZSSS 080300Z 36006MPS 9999 SCT016 OVC040 07/03 Q1031 NOSIG=
0172583670999992019010803304+31198+121336FM-15+000399999V0203601N006010121919N009999199+00701+00301999999ADDGA1041+006101999GA2081+012191999GE19AGL   +99999+99999GF199999041999006101999999MA1103101999999REMMET065METAR ZSSS 080330Z 36006MPS 9999 SCT020 OVC040 07/03 Q1031 NOSIG=
0172583670999992019010804004+31198+121336FM-15+000399999V0203601N006010121919N009999199+00701+00301999999ADDGA1041+006101999GA2081+012191999GE19AGL   +99999+99999GF199999041999006101999999MA1103001999999REMMET065METAR ZSSS 080400Z 36006MPS 9999 SCT020 OVC040 07/03 Q1030 NOSIG=
0172583670999992019010804304+31198+121336FM-15+000399999V0200101N006010121919N009999199+00701+00301999999ADDGA1041+006101999GA2081+012191999GE19AGL   +99999+99999GF199999041999006101999999MA1103001999999REMMET065METAR ZSSS 080430Z 01006MPS 9999 SCT020 OVC040 07/03 Q1030 NOSIG=
0172583670999992019010805004+31198+121336FM-15+000399999V0203601N005010121919N009999199+00801+00301999999ADDGA1041+006101999GA2081+012191999GE19AGL   +99999+99999GF199999041999006101999999MA1103001999999REMMET065METAR ZSSS 080500Z 36005MPS 9999 SCT020 OVC040 08/03 Q1030 NOSIG=
0172583670999992019010805304+31198+121336FM-15+000399999V0203401N005010121919N009999199+00801+00301999999ADDGA1041+006101999GA2081+012191999GE19AGL   +99999+99999GF199999041999006101999999MA1103001999999REMMET065METAR ZSSS 080530Z 34005MPS 9999 SCT020 OVC040 08/03 Q1030 NOSIG=
0149583670999992019010806004+31198+121336FM-15+000399999V0200101N00601007921CN009999199+00701+00101999999ADDGA1071+007921999GE19AGL   +99999+99999GF199999071999007921999999MA1103001999999REMMET058METAR ZSSS 080600Z 01006MPS 9999 BKN026 07/01 Q1030 NOSIG=
0149583670999992019010806304+31198+121336FM-15+000399999V0203601N00701007921CN009999199+00701+00101999999ADDGA1071+007921999GE19AGL   +99999+99999GF199999071999007921999999MA1103001999999REMMET058METAR ZSSS 080630Z 36007MPS 9999 BKN026 07/01 Q1030 NOSIG=
0149583670999992019010807004+31198+121336FM-15+000399999V0200101N00601007921CN009999199+00701+00101999999ADDGA1071+007921999GE19AGL   +99999+99999GF199999071999007921999999MA1103001999999REMMET058METAR ZSSS 080700Z 01006MPS 9999 BKN026 07/01 Q1030 NOSIG=
0149583670999992019010807304+31198+121336FM-15+000399999V0200201N005019999999N009999199+00701+00001999999ADDGA1041+007921999GE19AGL   +99999+99999GF199999041999007921999999MA1103001999999REMMET058METAR ZSSS 080730Z 02005MPS 9999 SCT026 07/00 Q1030 NOSIG=
0108583670999992019010808004+31198+121336FM-15+000399999V0200101N005012200019N007000199+00701+00001999999ADDGF100991999999999999999999MA1103101999999REMMET055METAR ZSSS 080800Z 01005MPS 7000 NSC 07/00 Q1031 NOSIG=
0108583670999992019010808304+31198+121336FM-15+000399999V0203601N006012200019N006000199+00701+00001999999ADDGF100991999999999999999999MA1103101999999REMMET055METAR ZSSS 080830Z 36006MPS 6000 NSC 07/00 Q1031 NOSIG=
0118583670999992019010809004+31198+121336FM-15+000399999V0200101N006012200019N005000199+00701-00101999999ADDGF100991999999999999999999MA1103201999999MW1051REMMET059METAR ZSSS 080900Z 01006MPS 5000 HZ NSC 07/M01 Q1032 NOSIG=
0118583670999992019010809304+31198+121336FM-15+000399999V0200101N006012200019N005000199+00701+00001999999ADDGF100991999999999999999999MA1103201999999MW1051REMMET059METAR ZSSS 080930Z 01006MPS 5000 HZ NSC 07/M00 Q1032 NOSIG=
0116583670999992019010810004+31198+121336FM-15+000399999V0200301V007012200019N006000199+00701+00001999999ADDGF100991999999999999999999MA1103201999999REMMET063METAR ZSSS 081000Z 03007MPS 010V070 6000 NSC 07/00 Q1032 NOSIG=
0108583670999992019010810304+31198+121336FM-15+000399999V0200301N007012200019N006000199+00601+00101999999ADDGF100991999999999999999999MA1103201999999REMMET055METAR ZSSS 081030Z 03007MPS 6000 NSC 06/01 Q1032 NOSIG=
0109583670999992019010811004+31198+121336FM-15+000399999V0200201N007012200019N008000199+00601+00001999999ADDGF100991999999999999999999MA1103201999999REMMET056METAR ZSSS 081100Z 02007MPS 8000 NSC 06/M00 Q1032 NOSIG=
0108583670999992019010811304+31198+121336FM-15+000399999V0200101N008012200019N008000199+00601+00101999999ADDGF100991999999999999999999MA1103201999999REMMET055METAR ZSSS 081130Z 01008MPS 8000 NSC 06/01 Q1032 NOSIG=
0079583670999992019010812004+31198+121336FM-15+000399999V0200101N007019999999Y009900199+00601+00101999999ADDMA1103301999999REMMET052METAR ZSSS 081200Z 01007MPS CAVOK 06/01 Q1033 NOSIG=
0079583670999992019010812304+31198+121336FM-15+000399999V0200101N006019999999Y009900199+00601+00001999999ADDMA1103301999999REMMET052METAR ZSSS 081230Z 01006MPS CAVOK 06/00 Q1033 NOSIG=
0079583670999992019010813004+31198+121336FM-15+000399999V0200101N006019999999Y009900199+00501+00001999999ADDMA1103401999999REMMET052METAR ZSSS 081300Z 01006MPS CAVOK 05/00 Q1034 NOSIG=
0079583670999992019010813304+31198+121336FM-15+000399999V0200101N005019999999Y009900199+00501+00001999999ADDMA1103301999999REMMET052METAR ZSSS 081330Z 01005MPS CAVOK 05/00 Q1033 NOSIG=
0079583670999992019010814004+31198+121336FM-15+000399999V0200101N005019999999Y009900199+00501+00001999999ADDMA1103401999999REMMET052METAR ZSSS 081400Z 01005MPS CAVOK 05/00 Q1034 NOSIG=
0079583670999992019010814304+31198+121336FM-15+000399999V0203601N005019999999Y009900199+00501+00001999999ADDMA1103401999999REMMET052METAR ZSSS 081430Z 36005MPS CAVOK 05/00 Q1034 NOSIG=
0080583670999992019010815004+31198+121336FM-15+000399999V0200101N004019999999Y009900199+00501+00001999999ADDMA1103401999999REMMET053METAR ZSSS 081500Z 01004MPS CAVOK 05/M00 Q1034 NOSIG=
0080583670999992019010815304+31198+121336FM-15+000399999V0200101N004019999999Y009900199+00501+00001999999ADDMA1103401999999REMMET053METAR ZSSS 081530Z 01004MPS CAVOK 05/M00 Q1034 NOSIG=
0079583670999992019010816004+31198+121336FM-15+000399999V0203601N003019999999Y009900199+00501+00101999999ADDMA1103401999999REMMET052METAR ZSSS 081600Z 36003MPS CAVOK 05/01 Q1034 NOSIG=
0079583670999992019010816304+31198+121336FM-15+000399999V0203601N003019999999Y009900199+00501+00001999999ADDMA1103401999999REMMET052METAR ZSSS 081630Z 36003MPS CAVOK 05/00 Q1034 NOSIG=
0079583670999992019010817004+31198+121336FM-15+000399999V0203501N003019999999Y009900199+00501+00101999999ADDMA1103401999999REMMET052METAR ZSSS 081700Z 35003MPS CAVOK 05/01 Q1034 NOSIG=
0079583670999992019010817304+31198+121336FM-15+000399999V0203401N003019999999Y009900199+00501+00001999999ADDMA1103401999999REMMET052METAR ZSSS 081730Z 34003MPS CAVOK 05/00 Q1034 NOSIG=
0079583670999992019010818004+31198+121336FM-15+000399999V0203501N003019999999Y009900199+00501+00101999999ADDMA1103401999999REMMET052METAR ZSSS 081800Z 35003MPS CAVOK 05/01 Q1034 NOSIG=
0118583670999992019010818304+31198+121336FM-15+000399999V0203601N003012200019N009999199+00401+00201999999ADDGF100991999999999999999999MA1103401999999MW1611REMMET059METAR ZSSS 081830Z 36003MPS 9999 -RA NSC 04/02 Q1034 NOSIG=
0079583670999992019010819004+31198+121336FM-15+000399999V0203601N003019999999Y009900199+00401+00201999999ADDMA1103301999999REMMET052METAR ZSSS 081900Z 36003MPS CAVOK 04/02 Q1033 NOSIG=
0159583670999992019010819304+31198+121336FM-15+000399999V0203601N002019999999N009999199+00401+00201999999ADDGA1021+010061999GE19AGL   +99999+99999GF199999021999010061999999MA1103301999999MW1611REMMET062METAR ZSSS 081930Z 36002MPS 9999 -RA FEW033 04/02 Q1033 NOSIG=
0149583670999992019010820004+31198+121336FM-15+000399999V0203501N002019999999N009999199+00401+00201999999ADDGA1021+010061999GE19AGL   +99999+99999GF199999021999010061999999MA1103301999999REMMET058METAR ZSSS 082000Z 35002MPS 9999 FEW033 04/02 Q1033 NOSIG=
0159583670999992019010820304+31198+121336FM-15+000399999V0203501N003019999999N009999199+00501+00201999999ADDGA1021+010061999GE19AGL   +99999+99999GF199999021999010061999999MA1103301999999MW1611REMMET062METAR ZSSS 082030Z 35003MPS 9999 -RA FEW033 05/02 Q1033 NOSIG=
0149583670999992019010821004+31198+121336FM-15+000399999V0203501N003019999999N009999199+00501+00201999999ADDGA1021+010061999GE19AGL   +99999+99999GF199999021999010061999999MA1103401999999REMMET058METAR ZSSS 082100Z 35003MPS 9999 FEW033 05/02 Q1034 NOSIG=
0079583670999992019010821304+31198+121336FM-15+000399999V0200201N003019999999Y009900199+00501+00201999999ADDMA1103301999999REMMET052METAR ZSSS 082130Z 02003MPS CAVOK 05/02 Q1033 NOSIG=
0079583670999992019010822004+31198+121336FM-15+000399999V0203601N004019999999Y009900199+00501+00201999999ADDMA1103401999999REMMET052METAR ZSSS 082200Z 36004MPS CAVOK 05/02 Q1034 NOSIG=
0079583670999992019010822304+31198+121336FM-15+000399999V0200101N005019999999Y009900199+00501+00101999999ADDMA1103401999999REMMET052METAR ZSSS 082230Z 01005MPS CAVOK 05/01 Q1034 NOSIG=
0079583670999992019010823004+31198+121336FM-15+000399999V0200101N005019999999Y009900199+00501+00201999999ADDMA1103401999999REMMET052METAR ZSSS 082300Z 01005MPS CAVOK 05/02 Q1034 NOSIG=
0079583670999992019010823304+31198+121336FM-15+000399999V0200101N005019999999Y009900199+00401+00101999999ADDMA1103401999999REMMET052METAR ZSSS 082330Z 01005MPS CAVOK 04/01 Q1034 NOSIG=
0079583670999992019010900004+31198+121336FM-15+000399999V0200101N005019999999Y009900199+00401+00101999999ADDMA1103401999999REMMET052METAR ZSSS 090000Z 01005MPS CAVOK 04/01 Q1034 NOSIG=
0118583670999992019010900304+31198+121336FM-15+000399999V0200401N004012200019N009999199+00401+00101999999ADDGF100991999999999999999999MA1103401999999MW1611REMMET059METAR ZSSS 090030Z 04004MPS 9999 -RA NSC 04/01 Q1034 NOSIG=
0118583670999992019010901004+31198+121336FM-15+000399999V0200301N004012200019N009999199+00501+00101999999ADDGF100991999999999999999999MA1103401999999MW1611REMMET059METAR ZSSS 090100Z 03004MPS 9999 -RA NSC 05/01 Q1034 NOSIG=
0118583670999992019010901304+31198+121336FM-15+000399999V0200101N005012200019N009999199+00401+00201999999ADDGF100991999999999999999999MA1103401999999MW1611REMMET059METAR ZSSS 090130Z 01005MPS 9999 -RA NSC 04/02 Q1034 NOSIG=
0149583670999992019010902004+31198+121336FM-15+000399999V0200101N004019999999N008000199+00501+00301999999ADDGA1021+004571999GE19AGL   +99999+99999GF199999021999004571999999MA1103401999999REMMET058METAR ZSSS 090200Z 01004MPS 8000 FEW015 05/03 Q1034 NOSIG=
0182583670999992019010902304+31198+121336FM-15+000399999V0203601N00501003051CN005000199+00401+00301999999ADDGA1071+003051999GE19AGL   +99999+99999GF199999071999003051999999MA1103401999999MW1101MW2611REMMET079METAR ZSSS 090230Z 36005MPS 5000 -RA BR BKN010 04/03 Q1034 BECMG TL0330 BKN008=
0168583670999992019010903004+31198+121336FM-15+000399999V0203601N00401002441CN004000199+00401+00301999999ADDGA1071+002441999GE19AGL   +99999+99999GF199999071999002441999999MA1103401999999MW1101MW2611REMMET065METAR ZSSS 090300Z 36004MPS 4000 -RA BR BKN008 04/03 Q1034 NOSIG=
