0148643870999992019010100004-01969+030139FM-15+148199999V0203001N00261007621CN009999199+01701+01601999999ADDGA1071+007621999GE19AGL   +99999+99999GF199999071999007621999999MA1102001999999REMMET057METAR HRYR 010000Z 30005KT 9999 BKN025 17/16 Q1020 NOSIG=
0171643870999992019010100304-01969+030139FM-15+148199999V0202701N00211030481CN009999199+01701+01601999999ADDGA1041+007621999GA2041+030481999GE19AGL   +99999+99999GF199999041999007621999999MA1102001999999REMMET064METAR HRYR 010030Z 27004KT 9999 SCT025 SCT100 17/16 Q1020 NOSIG=
0171643870999992019010101004-01969+030139FM-15+148199999V0202301N00151030481CN009999199+01701+01601999999ADDGA1041+007621999GA2041+030481999GE19AGL   +99999+99999GF199999041999007621999999MA1102001999999REMMET064METAR HRYR 010100Z 23003KT 9999 SCT025 SCT100 17/16 Q1020 NOSIG=
0171643870999992019010101304-01969+030139FM-15+148199999V0209999V00101030481CN009999199+01701+01601999999ADDGA1041+007621999GA2041+030481999GE19AGL   +99999+99999GF199999041999007621999999MA1102001999999REMMET064METAR HRYR 010130Z VRB02KT 9999 SCT025 SCT100 17/16 Q1020 NOSIG=
0171643870999992019010102004-01969+030139FM-15+148199999V0203401N00151030481CN009999199+01701+01601999999ADDGA1041+007621999GA2041+030481999GE19AGL   +99999+99999GF199999041999007621999999MA1102001999999REMMET064METAR HRYR 010200Z 34003KT 9999 SCT025 SCT100 17/16 Q1020 NOSIG=
0171643870999992019010102304-01969+030139FM-15+148199999V0203601N00101030481CN009999199+01701+01601999999ADDGA1041+007621999GA2041+030481999GE19AGL   +99999+99999GF199999041999007621999999MA1102001999999REMMET064METAR HRYR 010230Z 36002KT 9999 SCT025 SCT100 17/16 Q1020 NOSIG=
0171643870999992019010103004-01969+030139FM-15+148199999V0200701N002110304819N009999199+01601+01601999999ADDGA1041+007621999GA2071+030481999GE19AGL   +99999+99999GF199999041999007621999999MA1102101999999REMMET064METAR HRYR 010300Z 07004KT 9999 SCT025 BKN100 16/16 Q1021 NOSIG=
0181643870999992019010103304-01969+030139FM-15+148199999V0202401N00151007011CN008000199+01601+01601999999ADDGA1071+007011999GA2071+030481999GE19AGL   +99999+99999GF199999071999007011999999MA1102101999999MW1611REMMET068METAR HRYR 010330Z 24003KT 8000 -RA BKN023 BKN100 16/16 Q1021 NOSIG=
0151643870999992019010104004-01969+030139FM-15+148199999V0203601N00261007621CN009999199+01601+01601999999ADDGA1071+007621999GE19AGL   +99999+99999GF199999071999007621999999MA1102201999999REMMET060METAR COR HRYR 010400Z 36005KT 9999 BKN025 16/16 Q1022 RERA=
0183643870999992019010104304-01969+030139FM-15+148199999V0203201V00151030481CN009999199+01701+01601999999ADDGA1041+007621999GA2041+030481999GE19AGL   +99999+99999GF199999041999007621999999MA1102201999999REMMET076METAR COR HRYR 010430Z 32003KT 290V350 9999 SCT025 SCT100 17/16 Q1022 NOSIG=
0171643870999992019010105004-01969+030139FM-15+148199999V0202701N00261030481CN009999199+01701+01701999999ADDGA1041+007621999GA2041+030481999GE19AGL   +99999+99999GF199999041999007621999999MA1102301999999REMMET064METAR HRYR 010500Z 27005KT 9999 SCT025 SCT100 17/17 Q1023 NOSIG=
0179643870999992019010105304-01969+030139FM-15+148199999V0202201V00151030481CN009999199+01801+01701999999ADDGA1041+007621999GA2041+030481999GE19AGL   +99999+99999GF199999041999007621999999MA1102301999999REMMET072METAR HRYR 010530Z 22003KT 180V320 9999 SCT025 SCT100 18/17 Q1023 NOSIG=
0275643870999992019010106004-01967+030117FM-12+149199999V0202101N002119999999N010000199+01971+01621999999ADDAA124016031AY161021AY221021GA1031+007501081GA2999+999999031GE19AGL   +99999+99999GF107991031999007501999999KA1240M+02421KA2240N+01641MA1999999085521ME1315469MW1011REMSYN10064387 11560 72104 10197 20162 38552 48546 60164 70162 83230 333 01412 10242 20164 50184 58004 83825=
0152643870999992019010106004-01969+030139FM-15+148199999V0202101N002119999999N009999199+02001+01601999999ADDGA1041+007621999GE19AGL   +99999+99999GF199999041999007621999999MA1102201999999REMMET061METAR COR HRYR 010600Z 21004KT 9999 SCT025 20/16 Q1022 NOSIG=
0156643870999992019010106304-01969+030139FM-15+148199999V0201901V002119999999N009999199+02001+01701999999ADDGA1041+007621999GE19AGL   +99999+99999GF199999041999007621999999MA1102401999999REMMET065METAR HRYR 010630Z 19004KT 160V220 9999 SCT025 20/17 Q1024 NOSIG=
0152643870999992019010107004-01969+030139FM-15+148199999V0201501N003119999999N009999199+02101+01701999999ADDGA1041+007621999GE19AGL   +99999+99999GF199999041999007621999999MA1102401999999REMMET061METAR COR HRYR 010700Z 15006KT 9999 SCT025 21/17 Q1024 NOSIG=
0156643870999992019010107304-01969+030139FM-15+148199999V0201801V002619999999N009999199+02201+01701999999ADDGA1041+007621999GE19AGL   +99999+99999GF199999041999007621999999MA1102401999999REMMET065METAR HRYR 010730Z 18005KT 120V210 9999 SCT025 22/17 Q1024 NOSIG=
0152643870999992019010108004-01969+030139FM-15+148199999V0201801N002119999999N009999199+02301+01801999999ADDGA1041+007621999GE19AGL   +99999+99999GF199999041999007621999999MA1102401999999REMMET061METAR COR HRYR 010800Z 18004KT 9999 SCT025 23/18 Q1024 NOSIG=
0194643870999992019010109004-01967+030117FM-12+149199999V0201701N002119999999N010000199+02541+01671999999ADDGA1041+007501081GA2999+999999031GE19AGL   +99999+99999GF106991041999007501999999MA1999999085441MD1999999+0031ME1315389REMSYN06464387 32560 61704 10254 20167 38544 48538 84230 333 58003 84825=
0152643870999992019010109004-01969+030139FM-15+148199999V0201701N002119999999N009999199+02501+01701999999ADDGA1041+007621999GE19AGL   +99999+99999GF199999041999007621999999MA1102201999999REMMET061METAR COR HRYR 010900Z 17004KT 9999 SCT025 25/17 Q1022 NOSIG=
0181643870999992019010109304-01969+030139FM-15+148199999V0201501V00211007621CN009999199+02601+01601999999ADDGA1021+007011091GA2041+007621999GE19AGL   +99999+99999GF199999021999007011999999MA1102201999999REMMET074METAR HRYR 010930Z 15004KT 070V240 9999 FEW023CB SCT025 26/16 Q1022 NOSIG=
0206643870999992019010110004-01969+030139FM-15+148199999V0209999V00151007621CN009999199+02501+01501999999ADDGA1021+007011091GA2041+007621999GA3041+030481999GE19AGL   +99999+99999GF199999021999007011999999MA1102201999999MW1611REMMET077METAR HRYR 011000Z VRB03KT 9999 -RA FEW023CB SCT025 SCT100 25/15 Q1022 NOSIG=
0205643870999992019010110304-01969+030139FM-15+148199999V0203201N005710076219N007000199+01901+01801999999ADDGA1021+007011091GA2071+007621999GA3041+030481999GE19AGL   +99999+99999GF199999021999007011999999MA1102101999999MW1631REMMET076METAR HRYR 011030Z 32011KT 7000 RA FEW023CB BKN025 SCT100 19/18 Q1021 NOSIG=
0211643870999992019010111004-01969+030139FM-15+148199999V0201001N005710076219N007000199+01801+01501999999ADDGA1021+007011091GA2071+007621999GA3041+030481999GE19AGL   +99999+99999GF199999021999007011999999MA1102101999999MW1951REMMET082METAR COR HRYR 011100Z 10011KT 7000 TSRA FEW023CB BKN025 SCT100 18/15 Q1021 NOSIG=
0208643870999992019010111304-01969+030139FM-15+148199999V0202101N003110076219N009999199+01701+01701999999ADDGA1021+007011091GA2071+007621999GA3041+030481999GE19AGL   +99999+99999GF199999021999007011999999MA1102101999999MW1951REMMET079METAR HRYR 011130Z 21006KT 9999 -TSRA FEW023CB BKN025 SCT100 17/17 Q1021 NOSIG=
0257643870999992019010112004-01967+030117FM-12+149199999V0200201N00411007501CN010000199+01911+01761999999ADDAA106029031AY191021AY261021GA1011+006901091GA2061+007501081GE19AGL   +99999+99999GF107991011999006901999999MA1999999085281MD1999999+0071ME1315229MW1291REMSYN09464387 11560 70208 10191 20176 38528 48522 60291 72996 8793/ 333 0//31 58007 81923 86825 94968=
0174643870999992019010112004-01969+030139FM-15+148199999V0200201N004110076219N007000199+01901+01701999999ADDGA1021+007011091GA2071+007621999GE19AGL   +99999+99999GF199999021999007011999999MA1102001999999REMMET067METAR HRYR 011200Z 02008KT 7000 FEW023CB BKN025 19/17 Q1020 RETSRA=
0173643870999992019010112304-01969+030139FM-15+148199999V0200201N009310076219N009999199+02001+01701999999ADDGA1021+007011091GA2071+007621999GE19AGL   +99999+99999GF199999021999007011999999MA1102001999999REMMET066METAR HRYR 011230Z 02018KT 9999 FEW023CB BKN025 20/17 Q1020 NOSIG=
0196643870999992019010113004-01969+030139FM-15+148199999V0200101N00771007621CN009999199+02101+01701999999ADDGA1021+007011091GA2041+007621999GA3041+030481999GE19AGL   +99999+99999GF199999021999007011999999MA1102001999999REMMET073METAR HRYR 011300Z 01015KT 9999 FEW023CB SCT025 SCT100 21/17 Q1020 NOSIG=
0173643870999992019010113304-01969+030139FM-15+148199999V0203601N00511007621CN009999199+02101+01601999999ADDGA1021+007011091GA2041+007621999GE19AGL   +99999+99999GF199999021999007011999999MA1101901999999REMMET066METAR HRYR 011330Z 36010KT 9999 FEW023CB SCT025 21/16 Q1019 NOSIG=
0173643870999992019010114004-01969+030139FM-15+148199999V0200101N00311007621CN009999199+02101+01701999999ADDGA1021+007011091GA2041+007621999GE19AGL   +99999+99999GF199999021999007011999999MA1101901999999REMMET066METAR HRYR 011400Z 01006KT 9999 FEW023CB SCT025 21/17 Q1019 NOSIG=
0165643870999992019010114304-01969+030139FM-15+148199999V0209999V00101030481CN009999199+02201+01701999999ADDGA1041+007621999GA2041+030481999GE19AGL   +99999+99999GF199999041999007621999999MA1101901999999REMMET058METAR HRYR 011430Z VRB02KT 9999 SCT025 SCT100 22/17 Q1019=
0109643870999992019010115004-01969+030139FM-15+148199999V0209999N999999999999N011265599+02205+01705999999ADDMA1101905999999REMMET063METAR HRYR 011500Z 0000KT 9999 SCT025 SCT100 22/17 Q1019 NOSIG=EQDD01      0ADE592
0165643870999992019010115304-01969+030139FM-15+148199999V0200701N00211030481CN009999199+99999+99999999999ADDGA1041+007621999GA2041+030481999GE19AGL   +99999+99999GF199999041999007621999999MA1101901999999REMMET058METAR HRYR 011530Z 07004KT 9999 SCT025 SCT100 Q1019 NOSIG=
0171643870999992019010116004-01969+030139FM-15+148199999V0201101N00211030481CN009999199+02001+01601999999ADDGA1041+007621999GA2041+030481999GE19AGL   +99999+99999GF199999041999007621999999MA1102001999999REMMET064METAR HRYR 011600Z 11004KT 9999 SCT025 SCT100 20/16 Q1020 NOSIG=
0171643870999992019010116304-01969+030139FM-15+148199999V0202001N00211030481CN009999199+02001+01701999999ADDGA1041+007621999GA2041+030481999GE19AGL   +99999+99999GF199999041999007621999999MA1102101999999REMMET064METAR HRYR 011630Z 20004KT 9999 SCT025 SCT100 20/17 Q1021 NOSIG=
0171643870999992019010117004-01969+030139FM-15+148199999V0202101N00151030481CN009999199+01901+01701999999ADDGA1041+007621999GA2041+030481999GE19AGL   +99999+99999GF199999041999007621999999MA1102101999999REMMET064METAR HRYR 011700Z 21003KT 9999 SCT025 SCT100 19/17 Q1021 NOSIG=
0171643870999992019010117304-01969+030139FM-15+148199999V0201601N00101030481CN009999199+01901+01701999999ADDGA1041+007621999GA2041+030481999GE19AGL   +99999+99999GF199999041999007621999999MA1102101999999REMMET064METAR HRYR 011730Z 16002KT 9999 SCT025 SCT100 19/17 Q1021 NOSIG=
0171643870999992019010118004-01969+030139FM-15+148199999V0209999V00101030481CN009999199+01901+01601999999ADDGA1041+007621999GA2041+030481999GE19AGL   +99999+99999GF199999041999007621999999MA1102101999999REMMET064METAR HRYR 011800Z VRB02KT 9999 SCT025 SCT100 19/16 Q1021 NOSIG=
0171643870999992019010118304-01969+030139FM-15+148199999V0200201N00101030481CN009999199+01901+01701999999ADDGA1041+007921999GA2041+030481999GE19AGL   +99999+99999GF199999041999007921999999MA1102201999999REMMET064METAR HRYR 011830Z 02002KT 9999 SCT026 SCT100 19/17 Q1022 NOSIG=
0171643870999992019010119004-01969+030139FM-15+148199999V0203401N00101030481CN009999199+01901+01701999999ADDGA1021+007921999GA2041+030481999GE19AGL   +99999+99999GF199999021999007921999999MA1102201999999REMMET064METAR HRYR 011900Z 34002KT 9999 FEW026 SCT100 19/17 Q1022 NOSIG=
0171643870999992019010119304-01969+030139FM-15+148199999V0202101N00151030481CN009999199+01901+01601999999ADDGA1021+007921999GA2041+030481999GE19AGL   +99999+99999GF199999021999007921999999MA1102201999999REMMET064METAR HRYR 011930Z 21003KT 9999 FEW026 SCT100 19/16 Q1022 NOSIG=
0171643870999992019010120004-01969+030139FM-15+148199999V0209999V00101030481CN009999199+01801+01601999999ADDGA1021+007921999GA2041+030481999GE19AGL   +99999+99999GF199999021999007921999999MA1102201999999REMMET064METAR HRYR 012000Z VRB02KT 9999 FEW026 SCT100 18/16 Q1022 NOSIG=
0148643870999992019010121304-01969+030139FM-15+148199999V0203501N002119999999N008000199+01701+01601999999ADDGA1021+007921999GE19AGL   +99999+99999GF199999021999007921999999MA1102201999999REMMET057METAR HRYR 012130Z 35004KT 8000 FEW026 17/16 Q1022 NOSIG=
0179643870999992019010122004-01969+030139FM-15+148199999V0203401V00261030481CN008000199+01701+01701999999ADDGA1041+007921999GA2041+030481999GE19AGL   +99999+99999GF199999041999007921999999MA1102201999999REMMET072METAR HRYR 012200Z 34005KT 210V360 8000 SCT026 SCT100 17/17 Q1022 NOSIG=
0171643870999992019010122304-01969+030139FM-15+148199999V0203301N00261030481CN009000199+01701+01601999999ADDGA1021+007921999GA2041+030481999GE19AGL   +99999+99999GF199999021999007921999999MA1102101999999REMMET064METAR HRYR 012230Z 33005KT 9000 FEW026 SCT100 17/16 Q1021 NOSIG=
0171643870999992019010123004-01969+030139FM-15+148199999V0209999V00101030481CN009999199+01701+01601999999ADDGA1021+007921999GA2041+030481999GE19AGL   +99999+99999GF199999021999007921999999MA1102101999999REMMET064METAR HRYR 012300Z VRB02KT 9999 FEW026 SCT100 17/16 Q1021 NOSIG=
0165643870999992019010123304-01969+030139FM-15+148199999V0201601N00101030481CN006000199+99999+99999999999ADDGA1041+007921999GA2041+030481999GE19AGL   +99999+99999GF199999041999007921999999MA1102101999999REMMET058METAR HRYR 012330Z 16002KT 6000 SCT026 SCT100 Q1021 NOSIG=
0180643870999992019010200004-01969+030139FM-15+148199999V0200201N00211007621CN004000199+01601+01601999999ADDGA1021+004571999GA2041+007621999GE19AGL   +99999+99999GF199999021999004571999999MA1102101999999MW1101REMMET067METAR HRYR 020000Z 02004KT 4000 BR FEW015 SCT025 16/16 Q1021 NOSIG=
0180643870999992019010200304-01969+030139FM-15+148199999V0203601N00211007621CN005000199+01601+01601999999ADDGA1021+004571999GA2041+007621999GE19AGL   +99999+99999GF199999021999004571999999MA1102101999999MW1101REMMET067METAR HRYR 020030Z 36004KT 5000 BR FEW015 SCT025 16/16 Q1021 NOSIG=
0171643870999992019010201004-01969+030139FM-15+148199999V0203301N00261030481CN006000199+01601+01601999999ADDGA1041+007621999GA2041+030481999GE19AGL   +99999+99999GF199999041999007621999999MA1102101999999REMMET064METAR HRYR 020100Z 33005KT 6000 SCT025 SCT100 16/16 Q1021 NOSIG=
0171643870999992019010201304-01969+030139FM-15+148199999V0203301N00151030481CN007000199+01601+01601999999ADDGA1041+007921999GA2041+030481999GE19AGL   +99999+99999GF199999041999007921999999MA1102101999999REMMET064METAR HRYR 020130Z 33003KT 7000 SCT026 SCT100 16/16 Q1021 NOSIG=
0171643870999992019010202004-01969+030139FM-15+148199999V0209999V00101030481CN008000199+01601+01501999999ADDGA1041+007921999GA2041+030481999GE19AGL   +99999+99999GF199999041999007921999999MA1102101999999REMMET064METAR HRYR 020200Z VRB02KT 8000 SCT026 SCT100 16/15 Q1021 NOSIG=
0171643870999992019010202304-01969+030139FM-15+148199999V0209999C00001030481CN009000199+01601+01601999999ADDGA1021+007921999GA2041+030481999GE19AGL   +99999+99999GF199999021999007921999999MA1102101999999REMMET064METAR HRYR 020230Z 00000KT 9000 FEW026 SCT100 16/16 Q1021 NOSIG=
0171643870999992019010203004-01969+030139FM-15+148199999V0209999V00101030481CN009000199+01601+01501999999ADDGA1021+007921999GA2041+030481999GE19AGL   +99999+99999GF199999021999007921999999MA1102101999999REMMET064METAR HRYR 020300Z VRB02KT 9000 FEW026 SCT100 16/15 Q1021 NOSIG=
0171643870999992019010203304-01969+030139FM-15+148199999V0209999C00001030481CN008000199+01401+01401999999ADDGA1021+007921999GA2041+030481999GE19AGL   +99999+99999GF199999021999007921999999MA1102201999999REMMET064METAR HRYR 020330Z 00000KT 8000 FEW026 SCT100 14/14 Q1022 NOSIG=
0184643870999992019010204004-01969+030139FM-15+148199999V0209999C00001007921CN001000199+01501+01401999999ADDGA1021+003051999GA2041+007921999GE19AGL   +99999+99999GF199999021999003051999999MA1102201999999MW1441REMMET071METAR COR HRYR 020400Z 00000KT 1000 FG FEW010 SCT026 15/14 Q1022 NOSIG=
0185643870999992019010204304-01969+030139FM-15+148199999V0203401N00151007921CN000300199+01401+01401999999ADDGA1021+003051999GA2041+007921999GE19AGL   +99999+99999GF199999021999003051999999MA1102301999999MW1441REMMET072METAR HRYR 020430Z 34003KT 0300 FG FEW010 SCT026 14/14 Q1023 BECMG1000M=
0186643870999992019010205004-01969+030139FM-15+148199999V0203501N00211007921CN002000199+01501+01501999999ADDGA1021+003051999GA2041+007921999GE19AGL   +99999+99999GF199999021999003051999999MA1102301999999MW1441REMMET073METAR HRYR 020500Z 35004KT 2000 FG FEW010 SCT026 15/15 Q1023 BECMG 4000M=
0180643870999992019010205304-01969+030139FM-15+148199999V0203301N00211007921CN004000199+01601+01601999999ADDGA1021+004571999GA2041+007921999GE19AGL   +99999+99999GF199999021999004571999999MA1102301999999MW1101REMMET067METAR HRYR 020530Z 33004KT 4000 BR FEW015 SCT026 16/16 Q1023 NOSIG=
0281643870999992019010206004-01967+030117FM-12+149199999V0203001N001519999999N005000199+01781+01581999999ADDAA124030031AY141021AY241021GA1011+004501071GA2031+007801081GE19AGL   +99999+99999GF105991011999004501999999KA1240M+02661KA2240N+01431MA1999999085511ME1315469MW1101REMSYN10664387 11450 53003 10178 20158 38551 48546 60304 71044 84230 333 01458 10266 20143 50184 59001 81715 83826=
0188643870999992019010206004-01969+030139FM-15+148199999V0202501V00151007921CN005000199+01801+01601999999ADDGA1021+004571999GA2041+007921999GE19AGL   +99999+99999GF199999021999004571999999MA1102401999999MW1101REMMET075METAR HRYR 020600Z 25003KT 180V310 5000 BR FEW015 SCT026 18/16 Q1024 NOSIG=
0179643870999992019010206304-01969+030139FM-15+148199999V0201601V00151007921CN007000199+01901+01701999999ADDGA1021+004571999GA2041+007921999GE19AGL   +99999+99999GF199999021999004571999999MA1102401999999REMMET072METAR HRYR 020630Z 16003KT 130V190 7000 FEW015 SCT026 19/17 Q1024 NOSIG=
0156643870999992019010207004-01969+030139FM-15+148199999V0201501V002119999999N007000199+01901+01801999999ADDGA1041+007011999GE19AGL   +99999+99999GF199999041999007011999999MA1102401999999REMMET065METAR HRYR 020700Z 15004KT 110V180 7000 SCT023 19/18 Q1024 NOSIG=
0156643870999992019010207304-01969+030139FM-15+148199999V0201701V002119999999N008000199+02001+01801999999ADDGA1041+007011999GE19AGL   +99999+99999GF199999041999007011999999MA1102301999999REMMET065METAR HRYR 020730Z 17004KT 130V200 8000 SCT023 20/18 Q1023 NOSIG=
0148643870999992019010208004-01969+030139FM-15+148199999V0201401N003119999999N009999199+02101+01801999999ADDGA1041+007011999GE19AGL   +99999+99999GF199999041999007011999999MA1102301999999REMMET057METAR HRYR 020800Z 14006KT 9999 SCT023 21/18 Q1023 NOSIG=
0156643870999992019010208304-01969+030139FM-15+148199999V0201501V002619999999N009999199+02201+01801999999ADDGA1041+007011999GE19AGL   +99999+99999GF199999041999007011999999MA1102301999999REMMET065METAR HRYR 020830Z 15005KT 110V190 9999 SCT023 22/18 Q1023 NOSIG=
0194643870999992019010209004-01967+030117FM-12+149199999V0201501N002619999999N010000199+02431+01881999999ADDGA1041+006901081GA2999+999999031GE19AGL   +99999+99999GF106991041999006901999999MA1999999085441MD1999999+0001ME1315389REMSYN06464387 32560 61505 10243 20188 38544 48538 84230 333 58000 84823=
0156643870999992019010209004-01969+030139FM-15+148199999V0201501V002119999999N009999199+02401+01801999999ADDGA1041+007011999GE19AGL   +99999+99999GF199999041999007011999999MA1102301999999REMMET065METAR HRYR 020900Z 15004KT 080V190 9999 SCT023 24/18 Q1023 NOSIG=
0156643870999992019010209304-01969+030139FM-15+148199999V0201501V002619999999N009999199+02501+01701999999ADDGA1041+007011999GE19AGL   +99999+99999GF199999041999007011999999MA1102201999999REMMET065METAR HRYR 020930Z 15005KT 080V210 9999 SCT023 25/17 Q1022 NOSIG=
0160643870999992019010210004-01969+030139FM-15+148199999V0201501V003119999999N009999199+02601+01801999999ADDGA1041+007011081GE19AGL   +99999+99999GF199999041999007011999999MA1102201999999REMMET069METAR HRYR 021000Z 15006KT 100V200 9999 SCT023 TCU 26/18 Q1022 NOSIG=
0156643870999992019010210304-01969+030139FM-15+148199999V0201701V00411007011CN009999199+02601+01601999999ADDGA1071+007011999GE19AGL   +99999+99999GF199999071999007011999999MA1102101999999REMMET065METAR HRYR 021030Z 17008KT 110V200 9999 BKN023 26/16 Q1021 NOSIG=
0156643870999992019010211004-01969+030139FM-15+148199999V0201401V00261007621CN009999199+02701+01601999999ADDGA1071+007621999GE19AGL   +99999+99999GF199999071999007621999999MA1102101999999REMMET065METAR HRYR 021100Z 14005KT 040V190 9999 BKN025 27/16 Q1021 NOSIG=
0156643870999992019010211304-01969+030139FM-15+148199999V0201001V00311007621CN009999199+02801+01801999999ADDGA1071+007621999GE19AGL   +99999+99999GF199999071999007621999999MA1102001999999REMMET065METAR HRYR 021130Z 10006KT 050V170 9999 BKN025 28/18 Q1020 NOSIG=
0194643870999992019010212004-01967+030117FM-12+149199999V0201101N00311007501CN010000199+02741+01661999999ADDGA1061+007501081GA2999+999999031GE19AGL   +99999+99999GF107991061999007501999999MA1999999085161MD1999999-0121ME1315109REMSYN06464387 32560 71106 10274 20166 38516 48510 8623/ 333 59012 86825=
0159643870999992019010212004-01969+030139FM-15+148199999V0201101V00311007621CN009999199+02701+01601999999ADDGA1071+007621081GE19AGL   +99999+99999GF199999071999007621999999MA1101901999999REMMET068METAR HRYR 021200Z 11006KT 030V170 9999 BKN025TCU 27/16 Q1019 NOSIG=
0159643870999992019010212304-01969+030139FM-15+148199999V0201201V00311007621CN009999199+02601+01501999999ADDGA1071+007621081GE19AGL   +99999+99999GF199999071999007621999999MA1101901999999REMMET068METAR HRYR 021230Z 12006KT 090V170 9999 BKN025TCU 26/15 Q1019 NOSIG=
0159643870999992019010213004-01969+030139FM-15+148199999V0201501V002619999999N009999199+02701+01601999999ADDGA1041+007621081GE19AGL   +99999+99999GF199999041999007621999999MA1101901999999REMMET068METAR HRYR 021300Z 15005KT 070V220 9999 SCT025TCU 27/16 Q1019 NOSIG=
0148643870999992019010213304-01969+030139FM-15+148199999V0201001N002619999999N009999199+02701+01401999999ADDGA1041+007621999GE19AGL   +99999+99999GF199999041999007621999999MA1101801999999REMMET057METAR HRYR 021330Z 10005KT 9999 SCT025 27/14 Q1018 NOSIG=
0156643870999992019010214004-01969+030139FM-15+148199999V0201301V003119999999N009999199+02701+01301999999ADDGA1021+007621999GE19AGL   +99999+99999GF199999021999007621999999MA1101801999999REMMET065METAR HRYR 021400Z 13006KT 090V170 9999 FEW025 27/13 Q1018 NOSIG=
0156643870999992019010214304-01969+030139FM-15+148199999V0201101V002119999999N009999199+02701+01401999999ADDGA1021+007621999GE19AGL   +99999+99999GF199999021999007621999999MA1101701999999REMMET065METAR HRYR 021430Z 11004KT 070V150 9999 FEW025 27/14 Q1017 NOSIG=
0213643870999992019010215004-01967+030117FM-12+149199999V0201601N002112200019N010000199+02711+01291999999ADDGA1021+007501081GA2999+999999031GE19AGL   +99999+99999GF103991021999007501999999KA1240M+02801MA1999999085011MD1999999-0181ME1314959REMSYN07064387 32560 31604 10271 20129 38501 48495 82230 333 10280 59018 82825=
0156643870999992019010215004-01969+030139FM-15+148199999V0201601V002119999999N009999199+02701+01301999999ADDGA1021+007621999GE19AGL   +99999+99999GF199999021999007621999999MA1101801999999REMMET065METAR HRYR 021500Z 16004KT 110V220 9999 FEW025 27/13 Q1018 NOSIG=
0148643870999992019010215304-01969+030139FM-15+148199999V0200901N002619999999N009999199+02601+01401999999ADDGA1021+007621999GE19AGL   +99999+99999GF199999021999007621999999MA1101801999999REMMET057METAR HRYR 021530Z 09005KT 9999 FEW025 26/14 Q1018 NOSIG=
0148643870999992019010216004-01969+030139FM-15+148199999V0200801N003619999999N009999199+02501+01301999999ADDGA1021+007621999GE19AGL   +99999+99999GF199999021999007621999999MA1101801999999REMMET057METAR HRYR 021600Z 08007KT 9999 FEW025 25/13 Q1018 NOSIG=
0148643870999992019010216304-01969+030139FM-15+148199999V0200801N002119999999N009999199+02501+01401999999ADDGA1021+007621999GE19AGL   +99999+99999GF199999021999007621999999MA1101801999999REMMET057METAR HRYR 021630Z 08004KT 9999 FEW025 25/14 Q1018 NOSIG=
0156643870999992019010217004-01969+030139FM-15+148199999V0200401V002619999999N009999199+02501+01401999999ADDGA1021+007621999GE19AGL   +99999+99999GF199999021999007621999999MA1101901999999REMMET065METAR HRYR 021700Z 04005KT 010V120 9999 FEW025 25/14 Q1019 NOSIG=
0156643870999992019010217304-01969+030139FM-15+148199999V0200201V002119999999N009999199+02301+01401999999ADDGA1021+007621999GE19AGL   +99999+99999GF199999021999007621999999MA1101901999999REMMET065METAR HRYR 021730Z 02004KT 280V040 9999 FEW025 23/14 Q1019 NOSIG=
0148643870999992019010218004-01969+030139FM-15+148199999V0200201N003119999999N009999199+02301+01301999999ADDGA1021+007921999GE19AGL   +99999+99999GF199999021999007921999999MA1102001999999REMMET057METAR HRYR 021800Z 02006KT 9999 FEW026 23/13 Q1020 NOSIG=
0148643870999992019010218304-01969+030139FM-15+148199999V0200201N003119999999N009999199+02301+01301999999ADDGA1021+007921999GE19AGL   +99999+99999GF199999021999007921999999MA1102001999999REMMET057METAR HRYR 021830Z 02006KT 9999 FEW026 23/13 Q1020 NOSIG=
0156643870999992019010219004-01969+030139FM-15+148199999V0203601V002619999999N009999199+02201+01301999999ADDGA1021+007921999GE19AGL   +99999+99999GF199999021999007921999999MA1102001999999REMMET065METAR HRYR 021900Z 36005KT 330V030 9999 FEW026 22/13 Q1020 NOSIG=
0148643870999992019010219304-01969+030139FM-15+148199999V0209999V001019999999N009999199+02301+01301999999ADDGA1021+007921999GE19AGL   +99999+99999GF199999021999007921999999MA1102001999999REMMET057METAR HRYR 021930Z VRB02KT 9999 FEW026 23/13 Q1020 NOSIG=
0148643870999992019010220004-01969+030139FM-15+148199999V0209999V001019999999N009999199+02201+01401999999ADDGA1021+007921999GE19AGL   +99999+99999GF199999021999007921999999MA1102101999999REMMET057METAR HRYR 022000Z VRB02KT 9999 FEW026 22/14 Q1021 NOSIG=
0148643870999992019010220304-01969+030139FM-15+148199999V0203101N002119999999N009999199+02101+01401999999ADDGA1021+007921999GE19AGL   +99999+99999GF199999021999007921999999MA1102101999999REMMET057METAR HRYR 022030Z 31004KT 9999 FEW026 21/14 Q1021 NOSIG=
0156643870999992019010221304-01969+030139FM-15+148199999V0200301V001519999999N009999199+02101+01401999999ADDGA1021+007921999GE19AGL   +99999+99999GF199999021999007921999999MA1102101999999REMMET065METAR HRYR 022130Z 03003KT 360V060 9999 FEW026 21/14 Q1021 NOSIG=
0148643870999992019010222004-01969+030139FM-15+148199999V0209999V001019999999N009999199+02101+01401999999ADDGA1021+007921999GE19AGL   +99999+99999GF199999021999007921999999MA1102101999999REMMET057METAR HRYR 022200Z VRB02KT 9999 FEW026 21/14 Q1021 NOSIG=
0179643870999992019010222304-01969+030139FM-15+148199999V0203001V00151091441CN009999199+02001+01501999999ADDGA1021+007921999GA2041+091441999GE19AGL   +99999+99999GF199999021999007921999999MA1102101999999REMMET072METAR HRYR 022230Z 30003KT 280V350 9999 FEW026 SCT300 20/15 Q1021 NOSIG=
0171643870999992019010223004-01969+030139FM-15+148199999V0203001N00261091441CN009999199+02001+01401999999ADDGA1021+007921999GA2041+091441999GE19AGL   +99999+99999GF199999021999007921999999MA1102001999999REMMET064METAR HRYR 022300Z 30005KT 9999 FEW026 SCT300 20/14 Q1020 NOSIG=
0179643870999992019010223304-01969+030139FM-15+148199999V0202601V00151091441CN009999199+01901+01401999999ADDGA1021+007921999GA2041+091441999GE19AGL   +99999+99999GF199999021999007921999999MA1102001999999REMMET072METAR HRYR 022330Z 26003KT 220V320 9999 FEW026 SCT300 19/14 Q1020 NOSIG=
0171643870999992019010300004-01969+030139FM-15+148199999V0209999V00101030481CN009999199+01901+01401999999ADDGA1021+007921999GA2041+030481999GE19AGL   +99999+99999GF199999021999007921999999MA1102001999999REMMET064METAR HRYR 030000Z VRB02KT 9999 FEW026 SCT100 19/14 Q1020 NOSIG=
0148643870999992019010300304-01969+030139FM-15+148199999V0209999C000019999999N009999199+01801+01501999999ADDGA1021+007921999GE19AGL   +99999+99999GF199999021999007921999999MA1102001999999REMMET057METAR HRYR 030030Z 00000KT 9999 FEW026 18/15 Q1020 NOSIG=
0148643870999992019010301004-01969+030139FM-15+148199999V0209999V001019999999N009999199+01801+01501999999ADDGA1021+007921999GE19AGL   +99999+99999GF199999021999007921999999MA1102001999999REMMET057METAR HRYR 030100Z VRB02KT 9999 FEW026 18/15 Q1020 NOSIG=
0148643870999992019010301304-01969+030139FM-15+148199999V0203501N001019999999N009999199+01701+01501999999ADDGA1021+007921999GE19AGL   +99999+99999GF199999021999007921999999MA1102001999999REMMET057METAR HRYR 030130Z 35002KT 9999 FEW026 17/15 Q1020 NOSIG=
0148643870999992019010302004-01969+030139FM-15+148199999V0209999C000019999999N009999199+01801+01501999999ADDGA1021+007921999GE19AGL   +99999+99999GF199999021999007921999999MA1102001999999REMMET057METAR HRYR 030200Z 00000KT 9999 FEW026 18/15 Q1020 NOSIG=
0148643870999992019010302304-01969+030139FM-15+148199999V0202701N001519999999N009999199+01701+01401999999ADDGA1021+007921999GE19AGL   +99999+99999GF199999021999007921999999MA1102001999999REMMET057METAR HRYR 030230Z 27003KT 9999 FEW026 17/14 Q1020 NOSIG=
0179643870999992019010303304-01969+030139FM-15+148199999V0202601V00151030481CN009999199+01701+01501999999ADDGA1021+007921999GA2041+030481999GE19AGL   +99999+99999GF199999021999007921999999MA1102101999999REMMET072METAR HRYR 030330Z 26003KT 200V290 9999 FEW026 SCT100 17/15 Q1021 NOSIG=
0170643870999992019010304004-01969+030139FM-15+148199999V0209999C00001030481CN009999199+01701+01501999999ADDGA1021+007921999GA2041+030481999GE19AGL   +99999+99999GF199999021999007921999999MA1102101999999REMMET063METAR HRYR 030400Z 00000KT 9999 FEW026SCT100 17/15 Q1021 NOSIG=
0171643870999992019010304304-01969+030139FM-15+148199999V0203401N00211030481CN009999199+01701+01501999999ADDGA1021+007921999GA2041+030481999GE19AGL   +99999+99999GF199999021999007921999999MA1102201999999REMMET064METAR HRYR 030430Z 34004KT 9999 FEW026 SCT100 17/15 Q1022 NOSIG=
0170643870999992019010305004-01969+030139FM-15+148199999V0209999C00001030481CN009999199+01801+01501999999ADDGA1021+007921999GA2041+030481999GE19AGL   +99999+99999GF199999021999007921999999MA1102201999999REMMET063METAR HRYR 030500Z 00000KT 9999 FEW026SCT100 18/15 Q1022 NOSIG=
0171643870999992019010305304-01969+030139FM-15+148199999V0203401N00151030481CN009999199+01901+01601999999ADDGA1021+007921999GA2041+030481999GE19AGL   +99999+99999GF199999021999007921999999MA1102201999999REMMET064METAR HRYR 030530Z 34003KT 9999 FEW026 SCT100 19/16 Q1022 NOSIG=
0246643870999992019010306004-01967+030117FM-12+149199999V0209999C000012200019N010000199+02031+01601999999ADDGA1011+007801081GA2999+999999031GA3999+999999001GE19AGL   +99999+99999GF103991011999007801999999KA1240M+02801KA2240N+01701MA1999999085411ME1315369REMSYN08864387 32560 30000 10203 20160 38541 48536 81232 333 01400 10280 20170 50584 59010 81826=
0151643870999992019010306004-01969+030139FM-15+148199999V0209999C000019999999N009999199+02001+01601999999ADDGA1021+007921999GE19AGL   +99999+99999GF199999021999007921999999MA1102201999999REMMET060METAR COR HRYR 030600Z 00000KT 9999 FEW026 20/16Q1022 NOSIG=
0148643870999992019010306304-01969+030139FM-15+148199999V0209999V001019999999N009999199+02201+01601999999ADDGA1021+007921999GE19AGL   +99999+99999GF199999021999007921999999MA1102201999999REMMET057METAR HRYR 030630Z VRB02KT 9999 FEW026 22/16 Q1022 NOSIG=
0171643870999992019010307004-01969+030139FM-15+148199999V0209999V00101030481CN009999199+02301+01701999999ADDGA1021+007921999GA2041+030481999GE19AGL   +99999+99999GF199999021999007921999999MA1102201999999REMMET064METAR HRYR 030700Z VRB02KT 9999 FEW026 SCT100 23/17 Q1022 NOSIG=
0171643870999992019010307304-01969+030139FM-15+148199999V0209999V00151030481CN009999199+02401+01801999999ADDGA1021+007011999GA2041+030481999GE19AGL   +99999+99999GF199999021999007011999999MA1102201999999REMMET064METAR HRYR 030730Z VRB03KT 9999 FEW023 SCT100 24/18 Q1022 NOSIG=
0171643870999992019010308004-01969+030139FM-15+148199999V0209999V00101030481CN009999199+02401+01601999999ADDGA1021+007011999GA2041+030481999GE19AGL   +99999+99999GF199999021999007011999999MA1102201999999REMMET064METAR HRYR 030800Z VRB02KT 9999 FEW023 SCT100 24/16 Q1022 NOSIG=
0179643870999992019010308304-01969+030139FM-15+148199999V0201601V00211030481CN009999199+02501+01701999999ADDGA1021+007621999GA2041+030481999GE19AGL   +99999+99999GF199999021999007621999999MA1102101999999REMMET072METAR HRYR 030830Z 16004KT 100V200 9999 FEW025 SCT100 25/17 Q1021 NOSIG=
0200643870999992019010309004-01967+030117FM-12+149199999V0201101N00261030001CN010000199+02581+01651999999ADDGA1031+007501081GA2031+030001031GE19AGL   +99999+99999GF106991031999007501999999MA1999999085281MD1999999-0161ME1315229REMSYN07064387 32560 61105 10258 20165 38528 48522 83230 333 59016 83825 83360=
0179643870999992019010309004-01969+030139FM-15+148199999V0201101V00261030481CN009999199+02601+01701999999ADDGA1041+007621999GA2041+030481999GE19AGL   +99999+99999GF199999041999007621999999MA1102101999999REMMET072METAR HRYR 030900Z 11005KT 050V180 9999 SCT025 SCT100 26/17 Q1021 NOSIG=
0176643870999992019010309304-01969+030139FM-15+148199999V0209999V001510076219N009999199+02601+01601999999ADDGA1021+007011091GA2071+007621999GE19AGL   +99999+99999GF199999021999007011999999MA1102001999999REMMET069METAR HRYR 030930Z VRB03KT 9999 FEW023CB BKN025 26/16 Q1020 TEMPO TS=
0178643870999992019010310004-01969+030139FM-15+148199999V0200201N004110076219N009999199+02701+01501999999ADDGA1021+007011091GA2071+007621999GE19AGL   +99999+99999GF199999021999007011999999MA1102001999999REMMET071METAR HRYR 031000Z 02008KT 9999 FEW023CB BKN025 27/15 Q1020 TEMPO TSRA=
0184643870999992019010310304-01969+030139FM-15+148199999V0200501N005710076219N009999199+02601+01501999999ADDGA1021+007011091GA2071+007621999GE19AGL   +99999+99999GF199999021999007011999999MA1101901999999REMMET077METAR HRYR 031030Z 05011KT 9999 FEW023CB BKN025 26/15 Q1019 WS ALL RWY NOSIG=
0186643870999992019010311004-01969+030139FM-15+148199999V0201001N002610076219N009999199+02401+01601999999ADDGA1021+007321091GA2071+007621999GE19AGL   +99999+99999GF199999021999007321999999MA1101901999999MW1631REMMET073METAR COR HRYR 031100Z 10005KT 9999 RA FEW024CB BKN025 24/16 Q1019 NOSIG=
0184643870999992019010311304-01969+030139FM-15+148199999V0200801V003110076219N009999199+99999+99999999999ADDGA1021+007011091GA2071+007621999GE19AGL   +99999+99999GF199999021999007011999999MA1101801999999MW1171REMMET071METAR HRYR 031130Z 08006KT 050V110 9999 TS FEW023CB BKN025 Q1018 NOSIG=
0375643870999992019010312004-01967+030117FM-12+149199999V0201501N004619999999N010000199+02881+01761999999ADDAA106000021AY191021AY261021GA1011+006901091GA2041+007501081GE19AGL   +99999+99999GF107991011999006901999999MA1999999085031MD1999999-0131ME1314979MW1171REMSYN21264387 11560 71509 10288 20176 38503 48497 69901 71796 8593/ 333 0//51 59013 81923 84825 94964/A A A A A A A A A A A A A A A A A A A A A A A A A A A 64380 32560 61806 10255 20176 38434 48519 83232 333 59001 84825=
0185643870999992019010312004-01969+030139FM-15+148199999V0201501N00461007621CN009999199+02601+01801999999ADDGA1021+007011091GA2041+007621999GE19AGL   +99999+99999GF199999021999007011999999MA1101801999999MW1171REMMET072METAR COR HRYR 031200Z 15009KT 9999 TS FEW023CB SCT025 26/18 Q1018 RERA=
0173643870999992019010312304-01969+030139FM-15+148199999V0202001N00461007621CN009999199+02501+01801999999ADDGA1021+007011091GA2041+007621999GE19AGL   +99999+99999GF199999021999007011999999MA1101701999999REMMET066METAR HRYR 031230Z 20009KT 9999 FEW023CB SCT025 25/18 Q1017 NOSIG=
0172643870999992019010313004-01969+030139FM-15+148199999V0202001N00461007621CN009999199+02501+01801999999ADDGA1021+007011091GA2041+007621999GE19AGL   +99999+99999GF199999021999007011999999MA1101701999999REMMET065METAR HRYR 031300Z 20009KT 9999 FEW023CB SCT025 25/18 Q1017 RETS=
0190643870999992019010313304-01969+030139FM-15+148199999V0201901V00311007621CN009999199+02701+01701999999ADDGA1021+007011091GA2041+007621999GE19AGL   +99999+99999GF199999021999007011999999MA1101601999999MW1171REMMET077METAR HRYR 031330Z 19006KT 170V240 9999 TS FEW023CB SCT025 27/17 Q1016 NOSIG=
0185643870999992019010314004-01969+030139FM-15+148199999V0200201N007710076219N009999199+02401+01501999999ADDGA1021+007011091GA2071+007621999GE19AGL   +99999+99999GF199999021999007011999999MA1101701999999MW1951REMMET072METAR HRYR 031400Z 02015KT 9999 -TSRA FEW023CB BKN025 24/15 Q1017 NOSIG=
0190643870999992019010314304-01969+030139FM-15+148199999V0200701V002610076219N009999199+02301+01601999999ADDGA1021+007011091GA2071+007621999GE19AGL   +99999+99999GF199999021999007011999999MA1101701999999MW1171REMMET077METAR HRYR 031430Z 07005KT 030V110 9999 TS FEW023CB BKN025 23/16 Q1017 NOSIG=
0176643870999992019010315004-01969+030139FM-15+148199999V0202901N00261007621CN009999199+02501+01601999999ADDGA1021+007011091GA2041+007621999GE19AGL   +99999+99999GF199999021999007011999999MA1101701999999REMMET069METAR COR HRYR 031500Z 29005KT 9999 FEW023CB SCT025 25/16 Q1017 RETS=
0156643870999992019010315304-01969+030139FM-15+148199999V0202901V002119999999N009999199+02201+01601999999ADDGA1041+007621999GE19AGL   +99999+99999GF199999041999007621999999MA1101701999999REMMET065METAR HRYR 031530Z 29004KT 260V320 9999 SCT025 22/16 Q1017 NOSIG=
0173643870999992019010316004-01969+030139FM-15+148199999V0209999V00261007621CN009999199+02101+01601999999ADDGA1021+007011091GA2041+007621999GE19AGL   +99999+99999GF199999021999007011999999MA1101701999999REMMET066METAR HRYR 031600Z VRB05KT 9999 FEW023CB SCT025 21/16 Q1017 NOSIG=
0179643870999992019010316304-01969+030139FM-15+148199999V0203001V00151030481CN009999199+02101+01601999999ADDGA1041+007621999GA2041+030481999GE19AGL   +99999+99999GF199999041999007621999999MA1101701999999REMMET072METAR HRYR 031630Z 30003KT 180V310 9999 SCT025 SCT100 21/16 Q1017 NOSIG=
0171643870999992019010317004-01969+030139FM-15+148199999V0209999V00101030481CN009999199+02101+01601999999ADDGA1041+007621999GA2041+030481999GE19AGL   +99999+99999GF199999041999007621999999MA1101801999999REMMET064METAR HRYR 031700Z VRB02KT 9999 SCT025 SCT100 21/16 Q1018 NOSIG=
0171643870999992019010317304-01969+030139FM-15+148199999V0201901N00151030481CN009999199+02001+01601999999ADDGA1021+007621999GA2041+030481999GE19AGL   +99999+99999GF199999021999007621999999MA1101901999999REMMET064METAR HRYR 031730Z 19003KT 9999 FEW025 SCT100 20/16 Q1019 NOSIG=
0171643870999992019010318004-01969+030139FM-15+148199999V0209999V00101030481CN009999199+02101+01601999999ADDGA1021+007621999GA2041+030481999GE19AGL   +99999+99999GF199999021999007621999999MA1101901999999REMMET064METAR HRYR 031800Z VRB02KT 9999 FEW025 SCT100 21/16 Q1019 NOSIG=
0171643870999992019010318304-01969+030139FM-15+148199999V0200401N00261030481CN009999199+01901+01601999999ADDGA1021+007621999GA2041+030481999GE19AGL   +99999+99999GF199999021999007621999999MA1102001999999REMMET064METAR HRYR 031830Z 04005KT 9999 FEW025 SCT100 19/16 Q1020 NOSIG=
0179643870999992019010319004-01969+030139FM-15+148199999V0203601V00211030481CN009999199+02001+01601999999ADDGA1021+007621999GA2041+030481999GE19AGL   +99999+99999GF199999021999007621999999MA1102001999999REMMET072METAR HRYR 031900Z 36004KT 320V030 9999 FEW025 SCT100 20/16 Q1020 NOSIG=
0171643870999992019010319304-01969+030139FM-15+148199999V0209999V00101030481CN009999199+02001+01701999999ADDGA1021+007621999GA2041+030481999GE19AGL   +99999+99999GF199999021999007621999999MA1102101999999REMMET064METAR HRYR 031930Z VRB02KT 9999 FEW025 SCT100 20/17 Q1021 NOSIG=
0179643870999992019010320004-01969+030139FM-15+148199999V0203001V00211030481CN009999199+01901+01601999999ADDGA1021+007621999GA2041+030481999GE19AGL   +99999+99999GF199999021999007621999999MA1102101999999REMMET072METAR HRYR 032000Z 30004KT 170V320 9999 FEW025 SCT100 19/16 Q1021 NOSIG=
0171643870999992019010320304-01969+030139FM-15+148199999V0209999V00101030481CN009999199+01801+01701999999ADDGA1021+007621999GA2041+030481999GE19AGL   +99999+99999GF199999021999007621999999MA1102101999999REMMET064METAR HRYR 032030Z VRB02KT 9999 FEW025 SCT100 18/17 Q1021 NOSIG=
0171643870999992019010321004-01969+030139FM-15+148199999V0203601N00151030481CN008000199+01901+01601999999ADDGA1021+007621999GA2041+030481999GE19AGL   +99999+99999GF199999021999007621999999MA1102101999999REMMET064METAR HRYR 032100Z 36003KT 8000 FEW025 SCT100 19/16 Q1021 NOSIG=
0171643870999992019010321304-01969+030139FM-15+148199999V0203501N00151030481CN009999199+01801+01601999999ADDGA1041+007621999GA2041+030481999GE19AGL   +99999+99999GF199999041999007621999999MA1102101999999REMMET064METAR HRYR 032130Z 35003KT 9999 SCT025 SCT100 18/16 Q1021 NOSIG=
0148643870999992019010322304-01969+030139FM-15+148199999V0203501N002619999999N008000199+01701+01701999999ADDGA1041+007011999GE19AGL   +99999+99999GF199999041999007011999999MA1102001999999REMMET057METAR HRYR 032230Z 35005KT 8000 SCT023 17/17 Q1020 NOSIG=
0179643870999992019010323004-01969+030139FM-15+148199999V0202801V00211030481CN009999199+01701+01601999999ADDGA1021+007011999GA2041+030481999GE19AGL   +99999+99999GF199999021999007011999999MA1101901999999REMMET072METAR HRYR 032300Z 28004KT 230V310 9999 FEW023 SCT100 17/16 Q1019 NOSIG=
0179643870999992019010323304-01969+030139FM-15+148199999V0202801V00151030481CN009000199+01701+01601999999ADDGA1021+007011999GA2041+030481999GE19AGL   +99999+99999GF199999021999007011999999MA1101901999999REMMET072METAR HRYR 032330Z 28003KT 200V300 9000 FEW023 SCT100 17/16 Q1019 NOSIG=
0179643870999992019010400004-01969+030139FM-15+148199999V0203401V00151030481CN008000199+01701+01601999999ADDGA1021+007011999GA2041+030481999GE19AGL   +99999+99999GF199999021999007011999999MA1101901999999REMMET072METAR HRYR 040000Z 34003KT 290V360 8000 FEW023 SCT100 17/16 Q1019 NOSIG=
0171643870999992019010400304-01969+030139FM-15+148199999V0202201N00151030481CN006000199+01701+01601999999ADDGA1021+007011999GA2041+030481999GE19AGL   +99999+99999GF199999021999007011999999MA1101901999999REMMET064METAR HRYR 040030Z 22003KT 6000 FEW023 SCT100 17/16 Q1019 NOSIG=
0171643870999992019010401004-01969+030139FM-15+148199999V0202001N00101030481CN008000199+01701+01601999999ADDGA1021+007011999GA2041+030481999GE19AGL   +99999+99999GF199999021999007011999999MA1101901999999REMMET064METAR HRYR 040100Z 20002KT 8000 FEW023 SCT100 17/16 Q1019 NOSIG=
0166643870999992019010401304-01969+030139FM-15+148199999V0209999V00101030481CN999999999+01701+01601999999ADDGA1041+007621999GA2041+030481999GE19AGL   +99999+99999GF199999041999007621999999MA1101901999999REMMET059METAR HRYR 040130Z VRB02KT SCT025 SCT100 17/16 Q1019 NOSIG=
0166643870999992019010402004-01969+030139FM-15+148199999V0203401N00151030481CN999999999+01601+01601999999ADDGA1041+007621999GA2041+030481999GE19AGL   +99999+99999GF199999041999007621999999MA1101901999999REMMET059METAR HRYR 040200Z 34003KT SCT025 SCT100 16/16 Q1019 NOSIG=
0171643870999992019010402304-01969+030139FM-15+148199999V0203501N00151030481CN009999199+01701+01601999999ADDGA1041+007621999GA2041+030481999GE19AGL   +99999+99999GF199999041999007621999999MA1102001999999REMMET064METAR HRYR 040230Z 35003KT 9999 SCT025 SCT100 17/16 Q1020 NOSIG=
0171643870999992019010403004-01969+030139FM-15+148199999V0209999V00101030481CN009999199+01701+01601999999ADDGA1041+007621999GA2041+030481999GE19AGL   +99999+99999GF199999041999007621999999MA1102001999999REMMET064METAR HRYR 040300Z VRB02KT 9999 SCT025 SCT100 17/16 Q1020 NOSIG=
0179643870999992019010403304-01969+030139FM-15+148199999V0202901V00151030481CN009999199+01701+01601999999ADDGA1041+007621999GA2041+030481999GE19AGL   +99999+99999GF199999041999007621999999MA1102101999999REMMET072METAR HRYR 040330Z 29003KT 210V350 9999 SCT025 SCT100 17/16 Q1021 NOSIG=
0170643870999992019010404004-01969+030139FM-15+148199999V0209999C00001007621CN009999199+01701+01601999999ADDGA1071+007621999GA2041+030481999GE19AGL   +99999+99999GF199999071999007621999999MA1102101999999REMMET063METAR HRYR 040400Z 00000KT 9999 BKN025SCT100 17/16 Q1021 NOSIG=
0171643870999992019010404304-01969+030139FM-15+148199999V0203401N00261007621CN009999199+01701+01601999999ADDGA1071+007621999GA2071+030481999GE19AGL   +99999+99999GF199999071999007621999999MA1102101999999REMMET064METAR HRYR 040430Z 34005KT 9999 BKN025 BKN100 17/16 Q1021 NOSIG=
0171643870999992019010405004-01969+030139FM-15+148199999V0203101N00151030481CN009999199+01701+01601999999ADDGA1041+007621999GA2041+030481999GE19AGL   +99999+99999GF199999041999007621999999MA1102201999999REMMET064METAR HRYR 040500Z 31003KT 9999 SCT025 SCT100 17/16 Q1022 NOSIG=
0171643870999992019010405304-01969+030139FM-15+148199999V0209999C000010304819N009999199+01801+01601999999ADDGA1041+007621999GA2071+030481999GE19AGL   +99999+99999GF199999041999007621999999MA1102201999999REMMET064METAR HRYR 040530Z 00000KT 9999 SCT025 BKN100 18/16 Q1022 NOSIG=
0247643870999992019010406004-01967+030117FM-12+149199999V0201501N00211007501CN008000199+01871+01631999999ADDAA124000021GA1051+007501081GA2999+999999031GE19AGL   +99999+99999GF106991051999007501999999KA1240M+02671KA2240N+01661MA1999999085431ME1315379REMSYN09464387 12558 61504 10187 20163 38543 48537 69904 85230 333 01458 10267 20166 50364 58002 85825=
0151643870999992019010406004-01969+030139FM-15+148199999V0201501N00211007621CN009999199+01901+01601999999ADDGA1071+007621999GE19AGL   +99999+99999GF199999071999007621999999MA1102301999999REMMET060METAR COR HRYR 040600Z 15004KT 9999 BKN025 19/16Q1023 NOSIG=
0148643870999992019010406304-01969+030139FM-15+148199999V0209999V00101007621CN008000199+01901+01801999999ADDGA1071+007621999GE19AGL   +99999+99999GF199999071999007621999999MA1102301999999REMMET057METAR HRYR 040630Z VRB02KT 8000 BKN025 19/18 Q1023 NOSIG=
0151643870999992019010407004-01969+030139FM-15+148199999V0201601N00211007621CN008000199+02001+01601999999ADDGA1071+007621999GE19AGL   +99999+99999GF199999071999007621999999MA1102301999999REMMET060METAR COR HRYR 040700Z 16004KT 8000 BKN025 20/16Q1023 NOSIG=
0179643870999992019010407304-01969+030139FM-15+148199999V0202001V00261030481CN008000199+02101+01801999999ADDGA1041+007621999GA2041+030481999GE19AGL   +99999+99999GF199999041999007621999999MA1102201999999REMMET072METAR HRYR 040730Z 20005KT 170V240 8000 SCT025 SCT100 21/18 Q1022 NOSIG=
0151643870999992019010408004-01969+030139FM-15+148199999V0202001N002619999999N009999199+02201+01701999999ADDGA1041+007621999GE19AGL   +99999+99999GF199999041999007621999999MA1102201999999REMMET060METAR COR HRYR 040800Z 20005KT 9999 SCT025 22/17Q1022 NOSIG=
0156643870999992019010408304-01969+030139FM-15+148199999V0202001V003119999999N009999199+02301+01701999999ADDGA1041+007621999GE19AGL   +99999+99999GF199999041999007621999999MA1102201999999REMMET065METAR HRYR 040830Z 20006KT 140V250 9999 SCT025 23/17 Q1022 NOSIG=
0210643870999992019010409004-01967+030117FM-12+149199999V0201901N003119999999N010000199+02301+01821999999ADDGA1031+007501081GA2999+999999031GA3999+999999001GE19AGL   +99999+99999GF105991031999007501999999MA1999999085361MD1999999+0081ME1315309REMSYN06464387 32560 51906 10230 20182 38536 48530 83232 333 58008 83825=
0151643870999992019010409004-01969+030139FM-15+148199999V0201901N003119999999N009999199+02301+01801999999ADDGA1041+007621999GE19AGL   +99999+99999GF199999041999007621999999MA1102201999999REMMET060METAR COR HRYR 040900Z 19006KT 9999 SCT025 23/18Q1022 NOSIG=
0156643870999992019010409304-01969+030139FM-15+148199999V0201601V002619999999N009999199+02401+01801999999ADDGA1041+007621999GE19AGL   +99999+99999GF199999041999007621999999MA1102101999999REMMET065METAR HRYR 040930Z 16005KT 110V230 9999 SCT025 24/18 Q1021 NOSIG=
0154643870999992019010410004-01969+030139FM-15+148199999V0201801N003119999999N009999199+02501+01701999999ADDGA1041+007621081GE19AGL   +99999+99999GF199999041999007621999999MA1102001999999REMMET063METAR COR HRYR 041000Z 18006KT 9999 SCT025TCU25/17 Q1020 NOSIG=
0173643870999992019010410304-01969+030139FM-15+148199999V0201701N002610076219N009999199+02501+01801999999ADDGA1021+007011091GA2071+007621999GE19AGL   +99999+99999GF199999021999007011999999MA1102001999999REMMET066METAR HRYR 041030Z 17005KT 9999 FEW023CB BKN025 25/18 Q1020 NOSIG=
0181643870999992019010411004-01969+030139FM-15+148199999V0201401N002119999999N009999199+02405+01705999999ADDGA1021+007011091GE19AGL   +99999+99999GF199999021999007011999999MA1101905999999REMMET071METAR COR HRYR 041100Z 14004KT 9999 FEW023CB SBKN025 24/17 Q1019 NOSIG=EQDD01      0ADE693
0181643870999992019010411304-01969+030139FM-15+148199999V0201501V002610076219N009999199+02401+01701999999ADDGA1021+007011091GA2071+007621999GE19AGL   +99999+99999GF199999021999007011999999MA1101901999999REMMET074METAR HRYR 041130Z 15005KT 110V180 9999 FEW023CB BKN025 24/17 Q1019 NOSIG=
0206643870999992019010412004-01967+030117FM-12+149199999V0201601N00261007501CN010000199+02441+01651999999ADDGA1011+006901091GA2061+007501081GE19AGL   +99999+99999GF107991011999006901999999MA1999999085041MD1999999+0011ME1314989REMSYN07664387 32560 71605 10244 20165 38504 48498 8793/ 333 58001 81923 86825 94961=
0177643870999992019010412004-01969+030139FM-15+148199999V0201601N002610076219N009999199+02401+01701999999ADDGA1021+007011091GA2071+007621999GE19AGL   +99999+99999GF199999021999007011999999MA1101801999999REMMET070METAR COR HRYR 041200Z 16005KT 9999 FEW023CB BKN025 24/17 Q1018 NOSIG=
0181643870999992019010412304-01969+030139FM-15+148199999V0201801V004110076219N009999199+02601+01801999999ADDGA1021+007011091GA2071+007621999GE19AGL   +99999+99999GF199999021999007011999999MA1101701999999REMMET074METAR HRYR 041230Z 18008KT 150V210 9999 FEW023CB BKN025 26/18 Q1017 NOSIG=
0191643870999992019010413004-01969+030139FM-15+148199999V0201401N002110076219N009999199+02701+01701999999ADDGA1021+007011091GA2071+007621999GE19AGL   +99999+99999GF199999021999007011999999MA1101701999999MW1171REMMET078METAR COR HRYR 041300Z 14004KT 9999 TS FEW023CB BKN025 27/17 Q1017 TEMPO TSRA=
0196643870999992019010413304-01969+030139FM-15+148199999V0200301N011310076219N002200199+01802+01701999999ADDGA1021+007011091GA2071+007621999GE19AGL   +99999+99999GF199999021999007011999999MA1101801999999MW1951REMMET083METAR HRYR 041330Z 03022KT 2200 -TSRA FEW023CB BKN025 18/17 Q1018 WS ALL RWY NOSIG=
0188643870999992019010414004-01969+030139FM-15+148199999V0200201N005110076219N009999199+01901+01701999999ADDGA1021+007011091GA2071+007621999GE19AGL   +99999+99999GF199999021999007011999999MA1101801999999MW1951REMMET075METAR COR HRYR 041400Z 02010KT 9999 TSRA FEW023CB BKN025 19/17 Q1018 MOSIG=
0181643870999992019010414304-01969+030139FM-15+148199999V0203101V002610076219N009999199+02001+01701999999ADDGA1021+007011091GA2071+007621999GE19AGL   +99999+99999GF199999021999007011999999MA1101801999999REMMET074METAR HRYR 041430Z 31005KT 270V340 9999 FEW023CB BKN025 20/17 Q1018 NOSIG=
0177643870999992019010415004-01969+030139FM-15+148199999V0203101N003110076219N009999199+02001+01701999999ADDGA1021+007011091GA2071+007621999GE19AGL   +99999+99999GF199999021999007011999999MA1101701999999REMMET070METAR COR HRYR 041500Z 31006KT 9999 FEW023CB BKN025 20/17 Q1017 MOSIG=
0173643870999992019010415304-01969+030139FM-15+148199999V0203201N003110076219N009999199+02001+01601999999ADDGA1021+007011091GA2071+007621999GE19AGL   +99999+99999GF199999021999007011999999MA1101801999999REMMET066METAR HRYR 041530Z 32006KT 9999 FEW023CB BKN025 20/16 Q1018 NOSIG=
0173643870999992019010416004-01969+030139FM-15+148199999V0203601N00311007621CN009999199+02001+01601999999ADDGA1021+007011091GA2041+007621999GE19AGL   +99999+99999GF199999021999007011999999MA1101801999999REMMET066METAR HRYR 041600Z 36006KT 9999 FEW023CB SCT025 20/16 Q1018 NOSIG=
0171643870999992019010416304-01969+030139FM-15+148199999V0203601N00311030481CN009999199+01901+01601999999ADDGA1021+007621999GA2041+030481999GE19AGL   +99999+99999GF199999021999007621999999MA1101901999999REMMET064METAR HRYR 041630Z 36006KT 9999 FEW025 SCT100 19/16 Q1019 NOSIG=
0171643870999992019010417004-01969+030139FM-15+148199999V0209999V00101030481CN009999199+01901+01601999999ADDGA1021+007621999GA2041+030481999GE19AGL   +99999+99999GF199999021999007621999999MA1101901999999REMMET064METAR HRYR 041700Z VRB02KT 9999 FEW025 SCT100 19/16 Q1019 NOSIG=
0171643870999992019010417304-01969+030139FM-15+148199999V0200201N00211030481CN009999199+01901+01601999999ADDGA1021+007621999GA2041+030481999GE19AGL   +99999+99999GF199999021999007621999999MA1101901999999REMMET064METAR HRYR 041730Z 02004KT 9999 FEW025 SCT100 19/16 Q1019 NOSIG=
0277643870999992019010418004-01967+030117FM-12+149199999V0209999C00001030001CN010000199+01921+01611999999ADDAA106002031AY191021AY261021GA1021+007501081GA2031+030001031GE19AGL   +99999+99999GF105991021999007501999999KA1120M+02701MA1999999085151MD1999999-0021ME1315099MW1021REMSYN10164387 11560 50000 10192 20161 38515 48509 60021 70296 82230 333 0//64 10270 59002 82825 83360 1019.3=
0171643870999992019010418004-01969+030139FM-15+148199999V0200401N00151030481CN009999199+01901+01601999999ADDGA1021+007621999GA2041+030481999GE19AGL   +99999+99999GF199999021999007621999999MA1101901999999REMMET064METAR HRYR 041800Z 04003KT 9999 FEW025 SCT100 19/16 Q1019 NOSIG=
0171643870999992019010418304-01969+030139FM-15+148199999V0200101N00101030481CN009999199+01901+01601999999ADDGA1021+007621999GA2041+030481999GE19AGL   +99999+99999GF199999021999007621999999MA1102001999999REMMET064METAR HRYR 041830Z 01002KT 9999 FEW025 SCT100 19/16 Q1020 NOSIG=
0179643870999992019010419004-01969+030139FM-15+148199999V0203301V00151030481CN009999199+01901+01601999999ADDGA1021+007621999GA2041+030481999GE19AGL   +99999+99999GF199999021999007621999999MA1102001999999REMMET072METAR HRYR 041900Z 33003KT 240V360 9999 FEW025 SCT100 19/16 Q1020 NOSIG=
0148643870999992019010419304-01969+030139FM-15+148199999V0203601N001519999999N009999199+01801+01601999999ADDGA1021+007621999GE19AGL   +99999+99999GF199999021999007621999999MA1102001999999REMMET057METAR HRYR 041930Z 36003KT 9999 FEW025 18/16 Q1020 NOSIG=
0148643870999992019010420004-01969+030139FM-15+148199999V0202201N001519999999N009999199+01801+01601999999ADDGA1021+007621999GE19AGL   +99999+99999GF199999021999007621999999MA1102001999999REMMET057METAR HRYR 042000Z 22003KT 9999 FEW025 18/16 Q1020 NOSIG=
0148643870999992019010420304-01969+030139FM-15+148199999V0202301N001019999999N009000199+01701+01601999999ADDGA1021+007621999GE19AGL   +99999+99999GF199999021999007621999999MA1102101999999REMMET057METAR HRYR 042030Z 23002KT 9000 FEW025 17/16 Q1021 NOSIG=
0207643870999992019010421004-01967+030117FM-12+149199999V0209999C00001030001CN010000199+01781+01581999999ADDGA1031+007801081GA2031+030001031GE19AGL   +99999+99999GF106991031999007801999999MA1999999085281MD1999999+0001ME1315229REMSYN07764387 32560 60000 10178 20158 38528 48522 83230 333 58000 83826 83360 1020.7=
0171643870999992019010421004-01969+030139FM-15+148199999V0209999C00001030481CN009000199+01701+01701999999ADDGA1041+007921999GA2041+030481999GE19AGL   +99999+99999GF199999041999007921999999MA1102101999999REMMET064METAR HRYR 042100Z 00000KT 9000 SCT026 SCT100 17/17 Q1021 NOSIG=
0171643870999992019010421304-01969+030139FM-15+148199999V0209999C00001007921CN009000199+01801+01601999999ADDGA1071+007921999GA2071+030481999GE19AGL   +99999+99999GF199999071999007921999999MA1102101999999REMMET064METAR HRYR 042130Z 00000KT 9000 BKN026 BKN100 18/16 Q1021 NOSIG=
0179643870999992019010422004-01969+030139FM-15+148199999V0200401V00151007921CN009000199+01701+01601999999ADDGA1071+007921999GA2071+030481999GE19AGL   +99999+99999GF199999071999007921999999MA1102101999999REMMET072METAR HRYR 042200Z 04003KT 350V070 9000 BKN026 BKN100 17/16 Q1021 NOSIG=
0171643870999992019010422304-01969+030139FM-15+148199999V0209999C000010304819N009000199+01701+01601999999ADDGA1041+007921999GA2071+030481999GE19AGL   +99999+99999GF199999041999007921999999MA1102001999999REMMET064METAR HRYR 042230Z 00000KT 9000 SCT026 BKN100 17/16 Q1020 NOSIG=
0171643870999992019010423004-01969+030139FM-15+148199999V0209999C000010304819N009999199+01701+01601999999ADDGA1041+007921999GA2071+030481999GE19AGL   +99999+99999GF199999041999007921999999MA1102001999999REMMET064METAR HRYR 042300Z 00000KT 9999 SCT026 BKN100 17/16 Q1020 NOSIG=
0171643870999992019010423304-01969+030139FM-15+148199999V0209999V001010304819N009999199+01701+01601999999ADDGA1041+007921999GA2071+030481999GE19AGL   +99999+99999GF199999041999007921999999MA1102001999999REMMET064METAR HRYR 042330Z VRB02KT 9999 SCT026 BKN100 17/16 Q1020 NOSIG=
0207643870999992019010500004-01967+030117FM-12+149199999V0200401N00151030001CN010000199+01721+01591999999ADDGA1031+007801081GA2051+030001031GE19AGL   +99999+99999GF107991031999007801999999MA1999999085171MD1999999+0011ME1315119REMSYN07764387 32560 70403 10172 20159 38517 48511 8323/ 333 58001 83826 85360 1019.5=
0171643870999992019010500304-01969+030139FM-15+148199999V0200501N002610304819N008000199+01701+01601999999ADDGA1041+007921999GA2071+030481999GE19AGL   +99999+99999GF199999041999007921999999MA1102001999999REMMET064METAR HRYR 050030Z 05005KT 8000 SCT026 BKN100 17/16 Q1020 NOSIG=
0179643870999992019010501004-01969+030139FM-15+148199999V0200501V00151007921CN008000199+01701+01601999999ADDGA1071+007921999GA2071+030481999GE19AGL   +99999+99999GF199999071999007921999999MA1101901999999REMMET072METAR HRYR 050100Z 05003KT 010V090 8000 BKN026 BKN100 17/16 Q1019 NOSIG=
0171643870999992019010501304-01969+030139FM-15+148199999V0200201N00211007921CN009000199+01701+01601999999ADDGA1071+007921999GA2071+030481999GE19AGL   +99999+99999GF199999071999007921999999MA1102001999999REMMET064METAR HRYR 050130Z 02004KT 9000 BKN026 BKN100 17/16 Q1020 NOSIG=
0171643870999992019010502004-01969+030139FM-15+148199999V0209999V001010304819N009000199+01701+01601999999ADDGA1041+007621999GA2071+030481999GE19AGL   +99999+99999GF199999041999007621999999MA1102001999999REMMET064METAR HRYR 050200Z VRB02KT 9000 SCT025 BKN100 17/16 Q1020 NOSIG=
0181643870999992019010502304-01969+030139FM-15+148199999V0201501N00361007621CN008000199+01701+01601999999ADDGA1071+007621999GA2071+027431999GE19AGL   +99999+99999GF199999071999007621999999MA1102101999999MW1611REMMET068METAR HRYR 050230Z 15007KT 8000 -RA BKN025 BKN090 17/16 Q1021 NOSIG=
0253643870999992019010503004-01967+030117FM-12+149199999V0209999C000019999999N008000199+01701+01621999999ADDAA103001031AY161021AY221021GA1051+008001081GA2999+999999031GE19AGL   +99999+99999GF108991051999008001999999MA1999999085281MD1999999+0031ME1315229MW1611REMSYN09064387 21558 80000 10170 20162 38528 48522 76162 8523/ 333 58003 60017A 85825 85359 1020.7=
0189643870999992019010503004-01969+030139FM-15+148199999V0203101V00211007621CN008000199+01701+01601999999ADDGA1071+007621999GA2071+027431999GE19AGL   +99999+99999GF199999071999007621999999MA1102101999999MW1611REMMET076METAR HRYR 050300Z 31004KT 260V360 8000 -RA BKN025 BKN090 17/16 Q1021 NOSIG=
0181643870999992019010503304-01969+030139FM-15+148199999V0203001N00151007621CN007000199+01701+01601999999ADDGA1071+007621999GA2071+027431999GE19AGL   +99999+99999GF199999071999007621999999MA1102101999999MW1611REMMET068METAR HRYR 050330Z 30003KT 7000 -RA BKN025 BKN090 17/16 Q1021 NOSIG=
0171643870999992019010504004-01969+030139FM-15+148199999V0203201N002610304819N008000199+01701+01601999999ADDGA1041+007621999GA2071+030481999GE19AGL   +99999+99999GF199999041999007621999999MA1102101999999REMMET064METAR HRYR 050400Z 32005KT 8000 SCT025 BKN100 17/16 Q1021 NOSIG=
0171643870999992019010504304-01969+030139FM-15+148199999V0203601N00151030481CN009000199+01701+01601999999ADDGA1041+007621999GA2041+030481999GE19AGL   +99999+99999GF199999041999007621999999MA1102201999999REMMET064METAR HRYR 050430Z 36003KT 9000 SCT025 SCT100 17/16 Q1022 NOSIG=
0171643870999992019010505004-01969+030139FM-15+148199999V0209999V001010304819N009000199+01701+01701999999ADDGA1041+007621999GA2071+030481999GE19AGL   +99999+99999GF199999041999007621999999MA1102201999999REMMET064METAR HRYR 050500Z VRB02KT 9000 SCT025 BKN100 17/17 Q1022 NOSIG=
0171643870999992019010505304-01969+030139FM-15+148199999V0201701N001510304819N006000199+01801+01701999999ADDGA1041+007621999GA2071+030481999GE19AGL   +99999+99999GF199999041999007621999999MA1102201999999REMMET064METAR HRYR 050530Z 17003KT 6000 SCT025 BKN100 18/17 Q1022 NOSIG=
0171643870999992019010506004-01969+030139FM-15+148199999V0201901N00151030481CN007000199+02001+01701999999ADDGA1041+007621999GA2041+030481999GE19AGL   +99999+99999GF199999041999007621999999MA1102201999999REMMET064METAR HRYR 050600Z 19003KT 7000 SCT025 SCT100 20/17 Q1022 NOSIG=
0171643870999992019010506304-01969+030139FM-15+148199999V0209999V00101030481CN009999199+02001+01701999999ADDGA1041+007621999GA2041+030481999GE19AGL   +99999+99999GF199999041999007621999999MA1102201999999REMMET064METAR HRYR 050630Z VRB02KT 9999 SCT025 SCT100 20/17 Q1022 NOSIG=
0175643870999992019010507004-01969+030139FM-15+148199999V0201701N00151030481CN009999199+02101+01701999999ADDGA1041+007621999GA2041+030481999GE19AGL   +99999+99999GF199999041999007621999999MA1102201999999REMMET068METAR COR HRYR 050700Z 17003KT 9999 SCT025 SCT100 21/17 Q1022 NOSIG=
0179643870999992019010507304-01969+030139FM-15+148199999V0201601V00151030481CN009999199+02201+01701999999ADDGA1021+007621999GA2041+030481999GE19AGL   +99999+99999GF199999021999007621999999MA1102201999999REMMET072METAR HRYR 050730Z 16003KT 100V230 9999 FEW025 SCT100 22/17 Q1022 NOSIG=
0175643870999992019010508004-01969+030139FM-15+148199999V0201601N00311030481CN009999199+02401+01801999999ADDGA1021+007921999GA2041+030481999GE19AGL   +99999+99999GF199999021999007921999999MA1102101999999REMMET068METAR COR HRYR 050800Z 16006KT 9999 FEW026 SCT100 24/18 Q1021 NOSIG=
0179643870999992019010508304-01969+030139FM-15+148199999V0201201V00261030481CN009999199+02401+01701999999ADDGA1021+007921999GA2041+030481999GE19AGL   +99999+99999GF199999021999007921999999MA1102201999999REMMET072METAR HRYR 050830Z 12005KT 070V180 9999 FEW026 SCT100 24/17 Q1022 NOSIG=
0171643870999992019010509004-01969+030139FM-15+148199999V0209999C000010304819N009999199+02401+01601999999ADDGA1041+007621999GA2071+030481999GE19AGL   +99999+99999GF199999041999007621999999MA1102101999999REMMET064METAR HRYR 050900Z 00000KT 9999 SCT025 BKN100 24/16 Q1021 NOSIG=
0179643870999992019010509304-01969+030139FM-15+148199999V0200901V003610304819N009999199+02501+01601999999ADDGA1041+007621999GA2071+030481999GE19AGL   +99999+99999GF199999041999007621999999MA1102001999999REMMET072METAR HRYR 050930Z 09007KT 050V150 9999 SCT025 BKN100 25/16 Q1020 NOSIG=
0177643870999992019010510004-01969+030139FM-15+148199999V0201001N004110076219N009999199+02601+01601999999ADDGA1021+007011091GA2071+007621999GE19AGL   +99999+99999GF199999021999007011999999MA1102001999999REMMET070METAR COR HRYR 051000Z 10008KT 9999 FEW023CB BKN025 26/16 Q1020 NOSIG=
0181643870999992019010510304-01969+030139FM-15+148199999V0200701V004110076219N009999199+02701+01601999999ADDGA1021+007011091GA2071+007621999GE19AGL   +99999+99999GF199999021999007011999999MA1101901999999REMMET074METAR HRYR 051030Z 07008KT 030V100 9999 FEW023CB BKN025 27/16 Q1019 NOSIG=
0185643870999992019010511004-01969+030139FM-15+148199999V0201001N002610076219N009999199+02301+01701999999ADDGA1021+007011091GA2071+007621999GE19AGL   +99999+99999GF199999021999007011999999MA1101901999999MW1951REMMET072METAR HRYR 051100Z 10005KT 9999 -TSRA FEW023CB BKN025 23/17 Q1019 NOSIG=
0181643870999992019010511304-01969+030139FM-15+148199999V0201201V002610076219N009999199+02401+01801999999ADDGA1021+007011091GA2071+007621999GE19AGL   +99999+99999GF199999021999007011999999MA1101901999999REMMET074METAR HRYR 051130Z 12005KT 090V150 9999 FEW023CB BKN025 24/18 Q1019 NOSIG=
0405643870999992019010512004-01967+030117FM-12+149199999V0201501N00261007501CN010000199+02451+01661999999ADDAA106000021AY191021AY261021GA1011+006901091GA2051+007501081GE19AGL   +99999+99999GF107991011999006901999999MA1999999085041MD1999999+0001ME1314989MW1291REMSYN24264387 21560 71505 10245 20166 38504 48498 69901 72996 8693/ 333 0//12 58000 81923 85825 94963/A A A A A A A A A A A A A A A A A A A A A A A A A A A 64380 11560 71708 10270 20190 38437 48521 69981 72166 8693/ 333 0//51 59007 81923 85825 94965=
0178643870999992019010512004-01969+030139FM-15+148199999V0201501N002610076219N009999199+02501+01701999999ADDGA1021+007011091GA2071+007621999GE19AGL   +99999+99999GF199999021999007011999999MA1101701999999REMMET071METAR COR HRYR 051200Z 15005KT 9999 FEW023CB BKN025 25/17 Q1017 RETSRA=
0181643870999992019010512304-01969+030139FM-15+148199999V0201601V00261007621CN009999199+02601+01801999999ADDGA1021+007011091GA2041+007621999GE19AGL   +99999+99999GF199999021999007011999999MA1101701999999REMMET074METAR HRYR 051230Z 16005KT 110V200 9999 FEW023CB SCT025 26/18 Q1017 NOSIG=
0177643870999992019010513004-01969+030139FM-15+148199999V0201601N006710076219N009999199+02401+01601999999ADDGA1021+007011091GA2071+007621999GE19AGL   +99999+99999GF199999021999007011999999MA1101701999999REMMET070METAR COR HRYR 051300Z 16013KT 9999 FEW023CB BKN025 24/16 Q1017 NOSIG=
0193643870999992019010513304-01969+030139FM-15+148199999V0200201N012410076219N009999199+02201+01401999999ADDGA1021+007011091GA2071+007621999GE19AGL   +99999+99999GF199999021999007011999999MA1101801999999MW1171REMMET080METAR HRYR 051330Z 02024KT 9999 TS FEW023CB BKN025 22/14 Q1018 WS ALL RWY NOSIG=
0173643870999992019010514004-01969+030139FM-15+148199999V0200101N007210076219N009999199+02201+01501999999ADDGA1021+007011091GA2071+007621999GE19AGL   +99999+99999GF199999021999007011999999MA1101801999999REMMET066METAR HRYR 051400Z 01014KT 9999 FEW023CB BKN025 22/15 Q1018 NOSIG=
0173643870999992019010514304-01969+030139FM-15+148199999V0200101N00571007621CN009999199+02301+01301999999ADDGA1021+007011091GA2041+007621999GE19AGL   +99999+99999GF199999021999007011999999MA1101801999999REMMET066METAR HRYR 051430Z 01011KT 9999 FEW023CB SCT025 23/13 Q1018 NOSIG=
0148643870999992019010515004-01969+030139FM-15+148199999V0203101N003119999999N009999199+02201+01501999999ADDGA1041+007621999GE19AGL   +99999+99999GF199999041999007621999999MA1101701999999REMMET057METAR HRYR 051500Z 31006KT 9999 SCT025 22/15 Q1017 NOSIG=
0148643870999992019010515304-01969+030139FM-15+148199999V0203201N003619999999N009999199+02201+01501999999ADDGA1041+007621999GE19AGL   +99999+99999GF199999041999007621999999MA1101701999999REMMET057METAR HRYR 051530Z 32007KT 9999 SCT025 22/15 Q1017 NOSIG=
0148643870999992019010516004-01969+030139FM-15+148199999V0203301N003119999999N009999199+02201+01501999999ADDGA1021+007621999GE19AGL   +99999+99999GF199999021999007621999999MA1101801999999REMMET057METAR HRYR 051600Z 33006KT 9999 FEW025 22/15 Q1018 NOSIG=
0148643870999992019010516304-01969+030139FM-15+148199999V0203201N002619999999N009999199+02101+01501999999ADDGA1021+007621999GE19AGL   +99999+99999GF199999021999007621999999MA1101801999999REMMET057METAR HRYR 051630Z 32005KT 9999 FEW025 21/15 Q1018 NOSIG=
0148643870999992019010517004-01969+030139FM-15+148199999V0203201N003119999999N009999199+02101+01501999999ADDGA1021+007621999GE19AGL   +99999+99999GF199999021999007621999999MA1101801999999REMMET057METAR HRYR 051700Z 32006KT 9999 FEW025 21/15 Q1018 NOSIG=
0078643870999992019010517304-01969+030139FM-15+148199999V0203201N003119999999Y009900199+02101+01501999999ADDMA1101901999999REMMET051METAR HRYR 051730Z 32006KT CAVOK 21/15 Q1019 NOSIG=
0148643870999992019010518004-01969+030139FM-15+148199999V0203401N003119999999N009999199+02001+01501999999ADDGA1021+007921999GE19AGL   +99999+99999GF199999021999007921999999MA1101901999999REMMET057METAR HRYR 051800Z 34006KT 9999 FEW026 20/15 Q1019 NOSIG=
0156643870999992019010518304-01969+030139FM-15+148199999V0203201V002619999999N009999199+02001+01501999999ADDGA1021+007921999GE19AGL   +99999+99999GF199999021999007921999999MA1101901999999REMMET065METAR HRYR 051830Z 32005KT 200V340 9999 FEW026 20/15 Q1019 NOSIG=
0148643870999992019010519004-01969+030139FM-15+148199999V0203301N002119999999N009999199+02001+01601999999ADDGA1021+007921999GE19AGL   +99999+99999GF199999021999007921999999MA1102001999999REMMET057METAR HRYR 051900Z 33004KT 9999 FEW026 20/16 Q1020 NOSIG=
0171643870999992019010519304-01969+030139FM-15+148199999V0209999V00101030481CN009999199+02001+01501999999ADDGA1021+007921999GA2041+030481999GE19AGL   +99999+99999GF199999021999007921999999MA1102001999999REMMET064METAR HRYR 051930Z VRB02KT 9999 FEW026 SCT100 20/15 Q1020 NOSIG=
0179643870999992019010520004-01969+030139FM-15+148199999V0202401V00151030481CN009999199+02001+01601999999ADDGA1021+007921999GA2041+030481999GE19AGL   +99999+99999GF199999021999007921999999MA1102001999999REMMET072METAR HRYR 052000Z 24003KT 180V300 9999 FEW026 SCT100 20/16 Q1020 NOSIG=
0179643870999992019010520304-01969+030139FM-15+148199999V0203101V00151030481CN009999199+01901+01601999999ADDGA1021+007921999GA2041+030481999GE19AGL   +99999+99999GF199999021999007921999999MA1102001999999REMMET072METAR HRYR 052030Z 31003KT 270V040 9999 FEW026 SCT100 19/16 Q1020 NOSIG=
0171643870999992019010521004-01969+030139FM-15+148199999V0209999C00001030481CN009999199+01901+01601999999ADDGA1021+007921999GA2041+030481999GE19AGL   +99999+99999GF199999021999007921999999MA1102001999999REMMET064METAR HRYR 052100Z 00000KT 9999 FEW026 SCT100 19/16 Q1020 NOSIG=
0171643870999992019010521304-01969+030139FM-15+148199999V0209999V00101030481CN009999199+01901+01601999999ADDGA1021+007921999GA2041+030481999GE19AGL   +99999+99999GF199999021999007921999999MA1102001999999REMMET064METAR HRYR 052130Z VRB02KT 9999 FEW026 SCT100 19/16 Q1020 NOSIG=
0171643870999992019010522004-01969+030139FM-15+148199999V0201701N00151030481CN009999199+01801+01601999999ADDGA1041+007621999GA2041+030481999GE19AGL   +99999+99999GF199999041999007621999999MA1102001999999REMMET064METAR HRYR 052200Z 17003KT 9999 SCT025 SCT100 18/16 Q1020 NOSIG=
0171643870999992019010522304-01969+030139FM-15+148199999V0209999V00101030481CN009999199+01801+01601999999ADDGA1041+007621999GA2041+030481999GE19AGL   +99999+99999GF199999041999007621999999MA1102001999999REMMET064METAR HRYR 052230Z VRB02KT 9999 SCT025 SCT100 18/16 Q1020 NOSIG=
0171643870999992019010523004-01969+030139FM-15+148199999V0209999C000010304819N009999199+01801+01601999999ADDGA1041+007621999GA2071+030481999GE19AGL   +99999+99999GF199999041999007621999999MA1102001999999REMMET064METAR HRYR 052300Z 00000KT 9999 SCT025 BKN100 18/16 Q1020 NOSIG=
0171643870999992019010523304-01969+030139FM-15+148199999V0203501N001010304819N009999199+01801+01601999999ADDGA1041+007621999GA2071+030481999GE19AGL   +99999+99999GF199999041999007621999999MA1101901999999REMMET064METAR HRYR 052330Z 35002KT 9999 SCT025 BKN100 18/16 Q1019 NOSIG=
0171643870999992019010600004-01969+030139FM-15+148199999V0203501N001510304819N009999199+01801+01701999999ADDGA1041+007621999GA2071+030481999GE19AGL   +99999+99999GF199999041999007621999999MA1101901999999REMMET064METAR HRYR 060000Z 35003KT 9999 SCT025 BKN100 18/17 Q1019 NOSIG=
0171643870999992019010600304-01969+030139FM-15+148199999V0200301N002610304819N009999199+01801+01601999999ADDGA1041+007621999GA2071+030481999GE19AGL   +99999+99999GF199999041999007621999999MA1101901999999REMMET064METAR HRYR 060030Z 03005KT 9999 SCT025 BKN100 18/16 Q1019 NOSIG=
0189643870999992019010601004-01969+030139FM-15+148199999V0200901V002110304819N009999199+01801+01601999999ADDGA1041+007621999GA2071+030481999GE19AGL   +99999+99999GF199999041999007621999999MA1101901999999MW1611REMMET076METAR HRYR 060100Z 09004KT 070V130 9999 -RA SCT025 BKN100 18/16 Q1019 NOSIG=
0171643870999992019010601304-01969+030139FM-15+148199999V0209999V001010304819N009999199+01801+01701999999ADDGA1041+007621999GA2071+030481999GE19AGL   +99999+99999GF199999041999007621999999MA1101901999999REMMET064METAR HRYR 060130Z VRB02KT 9999 SCT025 BKN100 18/17 Q1019 NOSIG=
0179643870999992019010602004-01969+030139FM-15+148199999V0202601V001510304819N009999199+01801+01701999999ADDGA1041+007621999GA2071+030481999GE19AGL   +99999+99999GF199999041999007621999999MA1101901999999REMMET072METAR HRYR 060200Z 26003KT 190V310 9999 SCT025 BKN100 18/17 Q1019 NOSIG=
0181643870999992019010602304-01969+030139FM-15+148199999V0203401N004610304819N009999199+01801+01701999999ADDGA1041+007621999GA2071+030481999GE19AGL   +99999+99999GF199999041999007621999999MA1101901999999MW1611REMMET068METAR HRYR 060230Z 34009KT 9999 -RA SCT025 BKN100 18/17 Q1019 NOSIG=
0171643870999992019010603004-01969+030139FM-15+148199999V0203201N003610304819N009999199+01801+01601999999ADDGA1041+007621999GA2071+030481999GE19AGL   +99999+99999GF199999041999007621999999MA1101901999999REMMET064METAR HRYR 060300Z 32007KT 9999 SCT025 BKN100 18/16 Q1019 NOSIG=
0181643870999992019010603304-01969+030139FM-15+148199999V0201401N002610304819N009999199+01701+01701999999ADDGA1041+007621999GA2071+030481999GE19AGL   +99999+99999GF199999041999007621999999MA1102001999999MW1611REMMET068METAR HRYR 060330Z 14005KT 9999 -RA SCT025 BKN100 17/17 Q1020 NOSIG=
0175643870999992019010604004-01969+030139FM-15+148199999V0203301N002610304819N009999199+01801+01701999999ADDGA1041+007921999GA2071+030481999GE19AGL   +99999+99999GF199999041999007921999999MA1102001999999REMMET068METAR COR HRYR 060400Z 33005KT 9999 SCT026 BKN100 18/17 Q1020 NOSIG=
0179643870999992019010604304-01969+030139FM-15+148199999V0203301V002610304819N009999199+01801+01701999999ADDGA1041+007621999GA2071+030481999GE19AGL   +99999+99999GF199999041999007621999999MA1102001999999REMMET072METAR HRYR 060430Z 33005KT 270V350 9999 SCT025 BKN100 18/17 Q1020 NOSIG=
0175643870999992019010605004-01969+030139FM-15+148199999V0202801N001510304819N009999199+01801+01701999999ADDGA1041+007621999GA2071+030481999GE19AGL   +99999+99999GF199999041999007621999999MA1102101999999REMMET068METAR COR HRYR 060500Z 28003KT 9999 SCT025 BKN100 18/17 Q1021 NOSIG=
0171643870999992019010605304-01969+030139FM-15+148199999V0209999V001010304819N009999199+01901+01801999999ADDGA1041+007621999GA2071+030481999GE19AGL   +99999+99999GF199999041999007621999999MA1102101999999REMMET064METAR HRYR 060530Z VRB02KT 9999 SCT025 BKN100 19/18 Q1021 NOSIG=
0281643870999992019010606004-01967+030117FM-12+149199999V0209999C00001030001CN010000199+01951+01641999999ADDAA124000231AY161021AY221021GA1031+007501081GA2051+030001031GE19AGL   +99999+99999GF107991031999007501999999KA1240M+02761KA2240N+01761MA1999999085361ME1315309MW1021REMSYN10664387 11560 70000 10195 20164 38536 48530 69924 70262 8323/ 333 01653 10276 20176 50414 59004 83825 85360=
0175643870999992019010606004-01969+030139FM-15+148199999V0209999C000010304819N009999199+02001+01601999999ADDGA1041+007621999GA2071+030481999GE19AGL   +99999+99999GF199999041999007621999999MA1102201999999REMMET068METAR COR HRYR 060600Z 00000KT 9999 SCT025 BKN100 20/16 Q1022 NOSIG=
0171643870999992019010606304-01969+030139FM-15+148199999V0209999C00001030481CN009999199+02101+01801999999ADDGA1041+007621999GA2041+030481999GE19AGL   +99999+99999GF199999041999007621999999MA1102201999999REMMET064METAR HRYR 060630Z 00000KT 9999 SCT025 SCT100 21/18 Q1022 NOSIG=
0175643870999992019010607004-01969+030139FM-15+148199999V0201701N00151030481CN009999199+02301+01801999999ADDGA1021+007621999GA2041+030481999GE19AGL   +99999+99999GF199999021999007621999999MA1102201999999REMMET068METAR COR HRYR 060700Z 17003KT 9999 FEW025 SCT100 23/18 Q1022 NOSIG=
0179643870999992019010607304-01969+030139FM-15+148199999V0201601V00151030481CN009999199+02401+01601999999ADDGA1021+007621999GA2041+030481999GE19AGL   +99999+99999GF199999021999007621999999MA1102101999999REMMET072METAR HRYR 060730Z 16003KT 120V240 9999 FEW025 SCT100 24/16 Q1021 NOSIG=
0175643870999992019010608004-01969+030139FM-15+148199999V0201801N00261030481CN009999199+02401+01801999999ADDGA1021+007621999GA2041+030481999GE19AGL   +99999+99999GF199999021999007621999999MA1102101999999REMMET068METAR COR HRYR 060800Z 18005KT 9999 FEW025 SCT100 24/18 Q1021 NOSIG=
0179643870999992019010608304-01969+030139FM-15+148199999V0201801V00261030481CN009999199+02401+01701999999ADDGA1041+007621999GA2041+030481999GE19AGL   +99999+99999GF199999041999007621999999MA1102101999999REMMET072METAR HRYR 060830Z 18005KT 120V220 9999 SCT025 SCT100 24/17 Q1021 NOSIG=
0194643870999992019010609004-01967+030117FM-12+149199999V0201701N002119999999N010000199+02441+01681999999ADDGA1031+007501081GA2999+999999031GE19AGL   +99999+99999GF105991031999007501999999MA1999999085231MD1999999-0081ME1315179REMSYN06464387 32560 51704 10244 20168 38523 48517 83230 333 59008 83825=
0148643870999992019010609004-01969+030139FM-15+148199999V0201701N002119999999N009999199+02401+01701999999ADDGA1041+007621999GE19AGL   +99999+99999GF199999041999007621999999MA1102001999999REMMET057METAR HRYR 060900Z 17004KT 9999 SCT025 24/17 Q1020 NOSIG=
0148643870999992019010609304-01969+030139FM-15+148199999V0209999V00151007621CN009999199+02501+01601999999ADDGA1071+007621999GE19AGL   +99999+99999GF199999071999007621999999MA1102001999999REMMET057METAR HRYR 060930Z VRB03KT 9999 BKN025 25/16 Q1020 NOSIG=
0184643870999992019010610004-01969+030139FM-15+148199999V0200901V00151007321CN009999199+02601+01601999999ADDGA1071+007321999GA2021+007621091GE19AGL   +99999+99999GF199999071999007321999999MA1102001999999REMMET077METAR HRYR 061000Z 09003KT 040V150 9999 BKN024 FEW025CB 26/16 Q1020 TEMPO TS=
0173643870999992019010610304-01969+030139FM-15+148199999V0209999V002619999999N009999199+02601+01401999999ADDGA1041+007321999GA2021+007621091GE19AGL   +99999+99999GF199999041999007321999999MA1101901999999REMMET066METAR HRYR 061030Z VRB05KT 9999 SCT024 FEW025CB 26/14 Q1019 NOSIG=
0177643870999992019010611004-01969+030139FM-15+148199999V0201801N003619999999N009999199+02701+01701999999ADDGA1041+007321999GA2021+007621091GE19AGL   +99999+99999GF199999041999007321999999MA1101801999999REMMET070METAR COR HRYR 061100Z 18007KT 9999 SCT024 FEW025CB 27/17 Q1018 NOSIG=
0159643870999992019010611304-01969+030139FM-15+148199999V0201701V004619999999N009999199+02601+01701999999ADDGA1041+007621081GE19AGL   +99999+99999GF199999041999007621999999MA1101701999999REMMET068METAR HRYR 061130Z 17009KT 140V200 9999 SCT025TCU 26/17 Q1017 NOSIG=
0200643870999992019010612004-01967+030117FM-12+149199999V0201801N00461030001CN010000199+02631+01701999999ADDGA1041+007501081GA2031+030001031GE19AGL   +99999+99999GF107991041999007501999999MA1999999085001MD1999999-0041ME1314929REMSYN07064387 32560 71809 10263 20170 38500 48492 8423/ 333 59004 84825 83360=
0175643870999992019010612004-01969+030139FM-15+148199999V0201801N00461030481CN009999199+02601+01701999999ADDGA1041+007621999GA2041+030481999GE19AGL   +99999+99999GF199999041999007621999999MA1101701999999REMMET068METAR COR HRYR 061200Z 18009KT 9999 SCT025 SCT100 26/17 Q1017 NOSIG=
0200643870999992019010612304-01969+030139FM-15+148199999V0200101N014410076219N001200199+99999+99999999999ADDED128U99999GA1021+007011091GA2071+007621999GE19AGL   +99999+99999GF199999021999007011999999MA1101801999999OC102111REMMET074METAR HRYR 061230Z 01028G41KT 1200 R28/P2000N FEW023CB BKN025 Q1018 NOSIG=
0185643870999992019010613004-01969+030139FM-15+148199999V0200101N011310076219N009999199+01802+01501999999ADDGA1021+007011091GA2071+007621999GE19AGL   +99999+99999GF199999021999007011999999MA1101801999999MW1951REMMET072METAR HRYR 061300Z 01022KT 9999 -TSRA FEW023CB BKN025 18/15 Q1018 NOSIG=
0185643870999992019010613304-01969+030139FM-15+148199999V0203201N004610076219N009999199+01901+01501999999ADDGA1021+007011091GA2071+007621999GE19AGL   +99999+99999GF199999021999007011999999MA1101801999999MW1951REMMET072METAR HRYR 061330Z 32009KT 9999 -TSRA FEW023CB BKN025 19/15 Q1018 NOSIG=
0176643870999992019010614004-01969+030139FM-15+148199999V0202901N001510076219N009999199+02001+01501999999ADDGA1021+007011091GA2071+007621999GE19AGL   +99999+99999GF199999021999007011999999MA1101801999999REMMET069METAR COR HRYR 061400Z 29003KT 9999 FEW023CB BKN025 20/15 Q1018 RERA=
0173643870999992019010614304-01969+030139FM-15+148199999V0203301N003610076219N009999199+02001+01501999999ADDGA1021+007011091GA2071+007621999GE19AGL   +99999+99999GF199999021999007011999999MA1101701999999REMMET066METAR HRYR 061430Z 33007KT 9999 FEW023CB BKN025 20/15 Q1017 NOSIG=
0230643870999992019010615004-01967+030117FM-12+149199999V0203201N003119999999N010000199+02011+01541999999ADDAA115010031GA1031+007501081GA2999+999999031GE19AGL   +99999+99999GF106991031999007501999999KA1240M+02761MA1999999085001MD1999999-0011ME1314949REMSYN07664387 21560 63206 10201 20154 38500 48494 83230 333 10276 59001 60109 83825=
0152643870999992019010615004-01969+030139FM-15+148199999V0203201N003119999999N009999199+02001+01501999999ADDGA1041+007621999GE19AGL   +99999+99999GF199999041999007621999999MA1101801999999REMMET061METAR COR HRYR 061500Z 32006KT 9999 SCT025 20/15 Q1018 NOSIG=
0148643870999992019010615304-01969+030139FM-15+148199999V0203401N003619999999N009999199+02101+01501999999ADDGA1041+007621999GE19AGL   +99999+99999GF199999041999007621999999MA1101701999999REMMET057METAR HRYR 061530Z 34007KT 9999 SCT025 21/15 Q1017 NOSIG=
0148643870999992019010616004-01969+030139FM-15+148199999V0202701N002619999999N009999199+02001+01501999999ADDGA1021+007621999GE19AGL   +99999+99999GF199999021999007621999999MA1101801999999REMMET057METAR HRYR 061600Z 27005KT 9999 FEW025 20/15 Q1018 NOSIG=
0148643870999992019010616304-01969+030139FM-15+148199999V0203101N002119999999N009999199+01901+01501999999ADDGA1021+007621999GE19AGL   +99999+99999GF199999021999007621999999MA1101801999999REMMET057METAR HRYR 061630Z 31004KT 9999 FEW025 19/15 Q1018 NOSIG=
0156643870999992019010617004-01969+030139FM-15+148199999V0203301V001519999999N009999199+01901+01501999999ADDGA1021+007921999GE19AGL   +99999+99999GF199999021999007921999999MA1101801999999REMMET065METAR HRYR 061700Z 33003KT 300V110 9999 FEW026 19/15 Q1018 NOSIG=
0156643870999992019010617304-01969+030139FM-15+148199999V0202701V001519999999N009999199+01901+01501999999ADDGA1021+007921999GE19AGL   +99999+99999GF199999021999007921999999MA1101901999999REMMET065METAR HRYR 061730Z 27003KT 200V330 9999 FEW026 19/15 Q1019 NOSIG=
0148643870999992019010618004-01969+030139FM-15+148199999V0202201N002119999999N009999199+01901+01501999999ADDGA1021+007921999GE19AGL   +99999+99999GF199999021999007921999999MA1101901999999REMMET057METAR HRYR 061800Z 22004KT 9999 FEW026 19/15 Q1019 NOSIG=
0148643870999992019010618304-01969+030139FM-15+148199999V0209999V001019999999N009999199+01801+01501999999ADDGA1021+007921999GE19AGL   +99999+99999GF199999021999007921999999MA1101901999999REMMET057METAR HRYR 061830Z VRB02KT 9999 FEW026 18/15 Q1019 NOSIG=
0148643870999992019010619304-01969+030139FM-15+148199999V0209999V001019999999N009999199+01801+01501999999ADDGA1021+007921999GE19AGL   +99999+99999GF199999021999007921999999MA1102001999999REMMET057METAR HRYR 061930Z VRB02KT 9999 FEW026 18/15 Q1020 NOSIG=
0171643870999992019010620004-01969+030139FM-15+148199999V0200301N00101030481CN009999199+01701+01501999999ADDGA1021+007921999GA2041+030481999GE19AGL   +99999+99999GF199999021999007921999999MA1102001999999REMMET064METAR HRYR 062000Z 03002KT 9999 FEW026 SCT100 17/15 Q1020 NOSIG=
0171643870999992019010620304-01969+030139FM-15+148199999V0203601N00151030481CN009999199+01701+01501999999ADDGA1021+007921999GA2041+030481999GE19AGL   +99999+99999GF199999021999007921999999MA1102001999999REMMET064METAR HRYR 062030Z 36003KT 9999 FEW026 SCT100 17/15 Q1020 NOSIG=
0171643870999992019010621004-01969+030139FM-15+148199999V0203401N00361030481CN009999199+01701+01601999999ADDGA1041+007921999GA2041+030481999GE19AGL   +99999+99999GF199999041999007921999999MA1102001999999REMMET064METAR HRYR 062100Z 34007KT 9999 SCT026 SCT100 17/16 Q1020 NOSIG=
0179643870999992019010621304-01969+030139FM-15+148199999V0202701V001510304819N009999199+01701+01501999999ADDGA1041+007921999GA2071+030481999GE19AGL   +99999+99999GF199999041999007921999999MA1101901999999REMMET072METAR HRYR 062130Z 27003KT 240V300 9999 SCT026 BKN100 17/15 Q1019 NOSIG=
0179643870999992019010622004-01969+030139FM-15+148199999V0202901V002610304819N009999199+01701+01601999999ADDGA1041+007921999GA2071+030481999GE19AGL   +99999+99999GF199999041999007921999999MA1101901999999REMMET072METAR HRYR 062200Z 29005KT 200V310 9999 SCT026 BKN100 17/16 Q1019 NOSIG=
0171643870999992019010622304-01969+030139FM-15+148199999V0209999V001010304819N009999199+01701+01601999999ADDGA1041+007921999GA2071+030481999GE19AGL   +99999+99999GF199999041999007921999999MA1101901999999REMMET064METAR HRYR 062230Z VRB02KT 9999 SCT026 BKN100 17/16 Q1019 NOSIG=
0179643870999992019010623004-01969+030139FM-15+148199999V0202801V001510304819N009999199+01701+01601999999ADDGA1041+007921999GA2071+030481999GE19AGL   +99999+99999GF199999041999007921999999MA1101901999999REMMET072METAR HRYR 062300Z 28003KT 250V340 9999 SCT026 BKN100 17/16 Q1019 NOSIG=
0171643870999992019010623304-01969+030139FM-15+148199999V0203001N002110304819N009999199+01701+01601999999ADDGA1041+007921999GA2071+030481999GE19AGL   +99999+99999GF199999041999007921999999MA1101801999999REMMET064METAR HRYR 062330Z 30004KT 9999 SCT026 BKN100 17/16 Q1018 NOSIG=
0179643870999992019010700004-01969+030139FM-15+148199999V0203301V001510304819N009999199+01701+01501999999ADDGA1041+007921999GA2071+030481999GE19AGL   +99999+99999GF199999041999007921999999MA1101801999999REMMET072METAR HRYR 070000Z 33003KT 300V010 9999 SCT026 BKN100 17/15 Q1018 NOSIG=
0171643870999992019010700304-01969+030139FM-15+148199999V0203401N001510304819N009999199+01701+01501999999ADDGA1041+007921999GA2071+030481999GE19AGL   +99999+99999GF199999041999007921999999MA1101801999999REMMET064METAR HRYR 070030Z 34003KT 9999 SCT026 BKN100 17/15 Q1018 NOSIG=
0171643870999992019010701004-01969+030139FM-15+148199999V0209999C000010304819N009999199+01701+01601999999ADDGA1041+007921999GA2071+030481999GE19AGL   +99999+99999GF199999041999007921999999MA1101801999999REMMET064METAR HRYR 070100Z 00000KT 9999 SCT026 BKN100 17/16 Q1018 NOSIG=
0171643870999992019010701304-01969+030139FM-15+148199999V0209999C000010304819N009000199+01701+01601999999ADDGA1041+007921999GA2071+030481999GE19AGL   +99999+99999GF199999041999007921999999MA1101801999999REMMET064METAR HRYR 070130Z 00000KT 9000 SCT026 BKN100 17/16 Q1018 NOSIG=
0171643870999992019010702004-01969+030139FM-15+148199999V0209999V001010304819N008000199+01601+01601999999ADDGA1041+007921999GA2071+030481999GE19AGL   +99999+99999GF199999041999007921999999MA1101801999999REMMET064METAR HRYR 070200Z VRB02KT 8000 SCT026 BKN100 16/16 Q1018 NOSIG=
0171643870999992019010702304-01969+030139FM-15+148199999V0209999V00101030481CN009999199+01601+01501999999ADDGA1041+007921999GA2041+030481999GE19AGL   +99999+99999GF199999041999007921999999MA1101801999999REMMET064METAR HRYR 070230Z VRB02KT 9999 SCT026 SCT100 16/15 Q1018 NOSIG=
0171643870999992019010703004-01969+030139FM-15+148199999V0209999C00001030481CN009999199+01701+01601999999ADDGA1041+007921999GA2041+030481999GE19AGL   +99999+99999GF199999041999007921999999MA1101901999999REMMET064METAR HRYR 070300Z 00000KT 9999 SCT026 SCT100 17/16 Q1019 NOSIG=
0171643870999992019010703304-01969+030139FM-15+148199999V0203301N00101007621CN008000199+01601+01601999999ADDGA1071+007621999GA2071+030481999GE19AGL   +99999+99999GF199999071999007621999999MA1101901999999REMMET064METAR HRYR 070330Z 33002KT 8000 BKN025 BKN100 16/16 Q1019 NOSIG=
0171643870999992019010704004-01969+030139FM-15+148199999V0203101N00151007621CN009999199+01701+01601999999ADDGA1071+007621999GA2041+030481999GE19AGL   +99999+99999GF199999071999007621999999MA1101901999999REMMET064METAR HRYR 070400Z 31003KT 9999 BKN025 SCT100 17/16 Q1019 NOSIG=
0171643870999992019010704304-01969+030139FM-15+148199999V0209999V00101007621CN009999199+01701+01601999999ADDGA1071+007621999GA2041+030481999GE19AGL   +99999+99999GF199999071999007621999999MA1102001999999REMMET064METAR HRYR 070430Z VRB02KT 9999 BKN025 SCT100 17/16 Q1020 NOSIG=
0171643870999992019010705004-01969+030139FM-15+148199999V0203401N00151007621CN009999199+01701+01601999999ADDGA1071+007621999GA2071+030481999GE19AGL   +99999+99999GF199999071999007621999999MA1102001999999REMMET064METAR HRYR 070500Z 34003KT 9999 BKN025 BKN100 17/16 Q1020 NOSIG=
0179643870999992019010705304-01969+030139FM-15+148199999V0201901V00151007621CN009000199+01801+01701999999ADDGA1071+007621999GA2071+030481999GE19AGL   +99999+99999GF199999071999007621999999MA1102001999999REMMET072METAR HRYR 070530Z 19003KT 130V230 9000 BKN025 BKN100 18/17 Q1020 NOSIG=
0253643870999992019010706004-01967+030117FM-12+149199999V0200501N00151007501CN010000199+01881+01611999999ADDAA124010031GA1051+007501081GA2051+030001031GE19AGL   +99999+99999GF108991051999007501999999KA1240M+02761KA2240N+01641MA1999999085271ME1315219REMSYN10064387 12560 80503 10188 20161 38527 48521 60104 8583/ 333 01452 10276 20164 50344 59009 85825 85360=
0183643870999992019010706004-01969+030139FM-15+148199999V0200501V00151007621CN009999199+01801+01701999999ADDGA1071+007621999GA2071+030481999GE19AGL   +99999+99999GF199999071999007621999999MA1102101999999REMMET076METAR COR HRYR 070600Z 05003KT 020V090 9999 BKN025 BKN100 18/17 Q1021 NOSIG=
0171643870999992019010706304-01969+030139FM-15+148199999V0209999V00051007621CN009999199+02101+01701999999ADDGA1071+007621999GA2071+030481999GE19AGL   +99999+99999GF199999071999007621999999MA1102101999999REMMET064METAR HRYR 070630Z VRB01KT 9999 BKN025 BKN100 21/17 Q1021 NOSIG=
0183643870999992019010707004-01969+030139FM-15+148199999V0201601V00151007621CN009999199+02101+01701999999ADDGA1071+007621999GA2071+030481999GE19AGL   +99999+99999GF199999071999007621999999MA1102001999999REMMET076METAR COR HRYR 070700Z 16003KT 110V210 9999 BKN025 BKN100 21/17 Q1020 NOSIG=
0171643870999992019010707304-01969+030139FM-15+148199999V0209999V00101007621CN009999199+02201+01601999999ADDGA1071+007621999GA2071+030481999GE19AGL   +99999+99999GF199999071999007621999999MA1102001999999REMMET064METAR HRYR 070730Z VRB02KT 9999 BKN025 BKN100 22/16 Q1020 NOSIG=
0179643870999992019010708004-01969+030139FM-15+148199999V0201601V00211007621CN009999199+02301+01701999999ADDGA1071+007621999GA2071+030481999GE19AGL   +99999+99999GF199999071999007621999999MA1102001999999REMMET072METAR HRYR 070800Z 16004KT 120V240 9999 BKN025 BKN100 23/17 Q1020 NOSIG=
0179643870999992019010708304-01969+030139FM-15+148199999V0201601V00311007621CN009999199+02301+01701999999ADDGA1071+007621999GA2071+030481999GE19AGL   +99999+99999GF199999071999007621999999MA1102001999999REMMET072METAR HRYR 070830Z 16006KT 120V190 9999 BKN025 BKN100 23/17 Q1020 NOSIG=
0200643870999992019010709004-01967+030117FM-12+149199999V0201401N00261030001CN012000199+02321+01611999999ADDGA1031+006901081GA2031+030001031GE19AGL   +99999+99999GF106991031999006901999999MA1999999085231MD1999999+0001ME1315179REMSYN07064387 32562 61405 10232 20161 38523 48517 83230 333 58000 83823 83360=
0171643870999992019010709004-01969+030139FM-15+148199999V0201401N00211030481CN009999199+02301+01601999999ADDGA1041+007011999GA2041+030481999GE19AGL   +99999+99999GF199999041999007011999999MA1102001999999REMMET064METAR HRYR 070900Z 14004KT 9999 SCT023 SCT100 23/16 Q1020 NOSIG=
0179643870999992019010709304-01969+030139FM-15+148199999V0201701V00311030481CN009999199+02501+01601999999ADDGA1041+007621999GA2041+030481999GE19AGL   +99999+99999GF199999041999007621999999MA1102001999999REMMET072METAR HRYR 070930Z 17006KT 100V210 9999 SCT025 SCT100 25/16 Q1020 NOSIG=
0183643870999992019010710004-01969+030139FM-15+148199999V0201701V00361030481CN009999199+02601+01501999999ADDGA1041+007621999GA2041+030481999GE19AGL   +99999+99999GF199999041999007621999999MA1101901999999REMMET076METAR COR HRYR 071000Z 17007KT 100V200 9999 SCT025 SCT100 26/15 Q1019 NOSIG=
0179643870999992019010710304-01969+030139FM-15+148199999V0201601V00461030481CN009999199+02701+01701999999ADDGA1041+007621999GA2041+030481999GE19AGL   +99999+99999GF199999041999007621999999MA1101801999999REMMET072METAR HRYR 071030Z 16009KT 130V200 9999 SCT025 SCT100 27/17 Q1018 NOSIG=
0183643870999992019010711004-01969+030139FM-15+148199999V0201701V00361007621CN009999199+02501+01601999999ADDGA1071+007621999GA2071+030481999GE19AGL   +99999+99999GF199999071999007621999999MA1101801999999REMMET076METAR COR HRYR 071100Z 17007KT 120V190 9999 BKN025 BKN100 25/16 Q1018 NOSIG=
0179643870999992019010711304-01969+030139FM-15+148199999V0201501V00361007621CN009999199+02501+01701999999ADDGA1071+007621999GA2071+030481999GE19AGL   +99999+99999GF199999071999007621999999MA1101701999999REMMET072METAR HRYR 071130Z 15007KT 120V180 9999 BKN025 BKN100 25/17 Q1017 NOSIG=
0212643870999992019010712004-01967+030117FM-12+149199999V0200801N00671007501CN010000199+02151+01501999999ADDGA1021+006901091GA2051+007501081GE19AGL   +99999+99999GF108991021999006901999999MA1999999085001MD1999999+0001ME1314949REMSYN08264387 32560 80813 10215 20150 38500 48494 8793/ 333 58000 82923 85825 94971 94973=
0193643870999992019010712004-01969+030139FM-15+148199999V0200701N008210076219N009999199+02101+01501999999ADDGA1021+007011091GA2071+007621999GE19AGL   +99999+99999GF199999021999007011999999MA1101701999999REMMET086METAR COR HRYR 071200Z 07016KT 9999 FEW023CB BKN025 21/15 Q1017 WS ALL RWY TEMPO TSRA=
0194643870999992019010712304-01969+030139FM-15+148199999V0200601V004110076219N009999199+02101+01601999999ADDGA1021+007011091GA2071+007621999GE19AGL   +99999+99999GF199999021999007011999999MA1101701999999MW1171REMMET081METAR COR HRYR 071230Z 06008KT 010V090 9999 TS FEW023CB BKN025 21/16 Q1017 NOSIG=
0204643870999992019010713004-01969+030139FM-15+148199999V0201601V00261007621CN009999199+02201+01701999999ADDGA1021+007011091GA2041+007621999GA3071+030481999GE19AGL   +99999+99999GF199999021999007011999999MA1101701999999REMMET081METAR HRYR 071300Z 16005KT 090V210 9999 FEW023CB SCT025 BKN100 22/17 Q1017 NOSIG=
0204643870999992019010713304-01969+030139FM-15+148199999V0200801V00261007621CN009999199+02301+01501999999ADDGA1021+007011091GA2041+007621999GA3071+030481999GE19AGL   +99999+99999GF199999021999007011999999MA1101601999999REMMET081METAR HRYR 071330Z 08005KT 050V110 9999 FEW023CB SCT025 BKN100 23/15 Q1016 NOSIG=
0171643870999992019010714004-01969+030139FM-15+148199999V0209999V001010304819N009999199+02301+01501999999ADDGA1041+007621999GA2071+030481999GE19AGL   +99999+99999GF199999041999007621999999MA1101601999999REMMET064METAR HRYR 071400Z VRB02KT 9999 SCT025 BKN100 23/15 Q1016 NOSIG=
0171643870999992019010714304-01969+030139FM-15+148199999V0209999V00101030481CN009999199+02401+01701999999ADDGA1041+007621999GA2041+030481999GE19AGL   +99999+99999GF199999041999007621999999MA1101601999999REMMET064METAR HRYR 071430Z VRB02KT 9999 SCT025 SCT100 24/17 Q1016 NOSIG=
0148643870999992019010715004-01969+030139FM-15+148199999V0201101N001519999999N009999199+02301+01501999999ADDGA1041+007621999GE19AGL   +99999+99999GF199999041999007621999999MA1101701999999REMMET057METAR HRYR 071500Z 11003KT 9999 SCT025 23/15 Q1017 NOSIG=
0148643870999992019010715304-01969+030139FM-15+148199999V0201901N001519999999N009999199+02301+01601999999ADDGA1041+007621999GE19AGL   +99999+99999GF199999041999007621999999MA1101701999999REMMET057METAR HRYR 071530Z 19003KT 9999 SCT025 23/16 Q1017 NOSIG=
0171643870999992019010716304-01969+030139FM-15+148199999V0201601N00261030481CN009999199+02001+01701999999ADDGA1021+007621999GA2041+030481999GE19AGL   +99999+99999GF199999021999007621999999MA1101701999999REMMET064METAR HRYR 071630Z 16005KT 9999 FEW025 SCT100 20/17 Q1017 NOSIG=
0171643870999992019010717004-01969+030139FM-15+148199999V0201701N00211030481CN009999199+01901+01601999999ADDGA1021+007621999GA2041+030481999GE19AGL   +99999+99999GF199999021999007621999999MA1101701999999REMMET064METAR HRYR 071700Z 17004KT 9999 FEW025 SCT100 19/16 Q1017 NOSIG=
0171643870999992019010717304-01969+030139FM-15+148199999V0202001N00261030481CN009999199+02001+01501999999ADDGA1021+007621999GA2041+030481999GE19AGL   +99999+99999GF199999021999007621999999MA1101801999999REMMET064METAR HRYR 071730Z 20005KT 9999 FEW025 SCT100 20/15 Q1018 NOSIG=
0248643870999992019010718004-01967+030117FM-12+149199999V0201901N001519999999N010000199+01981+01671999999ADDAY191021AY221021GA1021+008001081GA2999+999999031GE19AGL   +99999+99999GF105991021999008001999999KA1120M+02581MA1999999085081MD1999999-0041ME1315029MW1021REMSYN08364387 31560 51903 10198 20167 38508 48502 70292 82230 333 10258 59004A 82825 83360=
0171643870999992019010718004-01969+030139FM-15+148199999V0201901N00151030481CN009999199+01901+01501999999ADDGA1021+007621999GA2041+030481999GE19AGL   +99999+99999GF199999021999007621999999MA1101801999999REMMET064METAR HRYR 071800Z 19003KT 9999 FEW025 SCT100 19/15 Q1018 NOSIG=
0171643870999992019010718304-01969+030139FM-15+148199999V0201101N00151030481CN009999199+01901+01501999999ADDGA1021+007621999GA2041+030481999GE19AGL   +99999+99999GF199999021999007621999999MA1101901999999REMMET064METAR HRYR 071830Z 11003KT 9999 FEW025 SCT100 19/15 Q1019 NOSIG=
0171643870999992019010719004-01969+030139FM-15+148199999V0201601N00101030481CN009999199+01901+01501999999ADDGA1041+007621999GA2041+030481999GE19AGL   +99999+99999GF199999041999007621999999MA1101901999999REMMET064METAR HRYR 071900Z 16002KT 9999 SCT025 SCT100 19/15 Q1019 NOSIG=
0171643870999992019010719304-01969+030139FM-15+148199999V0200401N00211030481CN009999199+01901+01601999999ADDGA1041+007621999GA2041+030481999GE19AGL   +99999+99999GF199999041999007621999999MA1102001999999REMMET064METAR HRYR 071930Z 04004KT 9999 SCT025 SCT100 19/16 Q1020 NOSIG=
0171643870999992019010720004-01969+030139FM-15+148199999V0209999C00001030481CN009999199+01901+01601999999ADDGA1041+007621999GA2041+030481999GE19AGL   +99999+99999GF199999041999007621999999MA1101901999999REMMET064METAR HRYR 072000Z 00000KT 9999 SCT025 SCT100 19/16 Q1019 NOSIG=
0171643870999992019010720304-01969+030139FM-15+148199999V0200601N00151030481CN009999199+01801+01601999999ADDGA1041+007621999GA2041+030481999GE19AGL   +99999+99999GF199999041999007621999999MA1102001999999REMMET064METAR HRYR 072030Z 06003KT 9999 SCT025 SCT100 18/16 Q1020 NOSIG=
0200643870999992019010721004-01967+030117FM-12+149199999V0209999C00001030001CN010000199+01881+01571999999ADDGA1031+007801081GA2031+030001031GE19AGL   +99999+99999GF106991031999007801999999MA1999999085201MD1999999+0001ME1315149REMSYN07064387 32560 60000 10188 20157 38520 48514 83230 333 58000 83826 83360=
0171643870999992019010721004-01969+030139FM-15+148199999V0209999V00101030481CN009999199+01801+01501999999ADDGA1041+007921999GA2041+030481999GE19AGL   +99999+99999GF199999041999007921999999MA1102001999999REMMET064METAR HRYR 072100Z VRB02KT 9999 SCT026 SCT100 18/15 Q1020 NOSIG=
0171643870999992019010721304-01969+030139FM-15+148199999V0209999V00101030481CN009999199+01801+01601999999ADDGA1041+007921999GA2041+030481999GE19AGL   +99999+99999GF199999041999007921999999MA1102001999999REMMET064METAR HRYR 072130Z VRB02KT 9999 SCT026 SCT100 18/16 Q1020 NOSIG=
0200643870999992019010800004-01967+030117FM-12+149199999V0201501N00101030001CN010000199+01831+01471999999ADDGA1031+007501081GA2051+030001031GE19AGL   +99999+99999GF107991031999007501999999MA1999999085121MD1999999+0071ME1315069REMSYN07064387 32560 71502 10183 20147 38512 48506 8323/ 333 58007 83825 85360=
0171643870999992019010800304-01969+030139FM-15+148199999V0200401N001010304819N009999199+01701+01601999999ADDGA1041+007921999GA2071+030481999GE19AGL   +99999+99999GF199999041999007921999999MA1101901999999REMMET064METAR HRYR 080030Z 04002KT 9999 SCT026 BKN100 17/16 Q1019 NOSIG=
0179643870999992019010801004-01969+030139FM-15+148199999V0200201V001510304819N008000199+01701+01601999999ADDGA1041+007921999GA2071+030481999GE19AGL   +99999+99999GF199999041999007921999999MA1101901999999REMMET072METAR HRYR 080100Z 02003KT 360V060 8000 SCT026 BKN100 17/16 Q1019 NOSIG=
0113643870999992019010802004-01969+030139FM-15+148199999V0209999N999999999999N999999999+01705+01605999999ADDMA1101805999999REMMET067METAR COR HRYR 080200Z 33004KT9000 FEW025 SCT100 17/16 Q1018 NOSIG=EQDD01      0ADE693
0113643870999992019010802304-01969+030139FM-15+148199999V0209999N999999999999N999999999+01705+01605999999ADDMA1101905999999REMMET067METAR COR HRYR 080230Z 33003KT9000 FEW025 SCT100 17/16 Q1019 NOSIG=EQDD01      0ADE693
0200643870999992019010803004-01967+030117FM-12+149199999V0203301N00151030001CN007000199+01691+01591999999ADDGA1021+007501081GA2041+030001031GE19AGL   +99999+99999GF106991021999007501999999MA1999999085101MD1999999-0011ME1315049REMSYN07064387 32557 63303 10169 20159 38510 48504 82230 333 59001 82825 84360=
