0075712230999992019010100004+51937-110858FM-12+077199999V0202211N0047199999999999999999-01801-02191999999ADDAA101999999AA206999999AA324999999KA1120M-01641KA2180N-02671REMSYN004BUFR
0058712230999992019010100004+51930-110720SAO  +077299999V020220190057199999999999999999-01811-02151999999REMAWY049XCS SA 0000 AUTO8 M M M M/-18/-22/2211/M/ M 15MM=
0058712230999992019010101004+51930-110720SAO  +077299999V020210190062199999999999999999-01901-02231999999REMAWY049XCS SA 0100 AUTO8 M M M M/-19/-22/2112/M/ M 03MM=
0093712230999992019010102004+51930-110720SAO  +077299999V020210190077199999999999999999-01941-02261999999ADDOD130100871210REMAWY067XCS SA 0200 AUTO8 M M M M/-19/-23/2115/M/ PK WND 2117 0140Z M 46MM=
0063712230999992019010103004+51933-110700FM-12+077299999V0202101N006719999999N999999999-01921-02231999999ADDAA103000091REMSYN04071223 26/// /2113 11192 21223 333 60007=
0058712230999992019010103004+51930-110720SAO  +077299999V020220190067199999999999999999-01921-02231999999REMAWY049XCS SA 0300 AUTO8 M M M M/-19/-22/2213/M/ M 23MM=
0058712230999992019010104004+51930-110720SAO  +077299999V020210190062199999999999999999-01971-02291999999REMAWY049XCS SA 0400 AUTO8 M M M M/-20/-23/2112/M/ M 79MM=
0058712230999992019010105004+51930-110720SAO  +077299999V020210190051199999999999999999-02031-02351999999REMAWY049XCS SA 0500 AUTO8 M M M M/-20/-24/2110/M/ M 35MM=
0134712230999992019010106004+51933-110700FM-12+077299999V0202001N005119999999N999999999-01941-02261999999ADDAA106000091AA224000091KA1240M-01541KA2240N-02651REMSYN07471223 16/// /2010 11194 21226 60001 333 11154 21265 70000 555 32320 40221=
0058712230999992019010106004+51930-110720SAO  +077299999V020200190051199999999999999999-01941-02261999999REMAWY049XCS SA 0600 AUTO8 M M M M/-19/-23/2010/M/ M 46MM=
0058712230999992019010107004+51930-110720SAO  +077299999V020200190046199999999999999999-01821-02141999999REMAWY049XCS SA 0700 AUTO8 M M M M/-18/-21/2009/M/ M 24MM=
0093712230999992019010108004+51930-110720SAO  +077299999V020200190067199999999999999999-01611-01941999999ADDOD130100931190REMAWY067XCS SA 0800 AUTO8 M M M M/-16/-19/2013/M/ PK WND 1918 0746Z M 14MM=
0063712230999992019010109004+51933-110700FM-12+077299999V0202001N006719999999N999999999-01551-01901999999ADDAA103000091REMSYN04071223 26/// /2013 11155 21190 333 60007=
0093712230999992019010109004+51930-110720SAO  +077299999V020200190067199999999999999999-01451-01901999999ADDOD130100981210REMAWY067XCS SA 0900 AUTO8 M M M M/-15/-19/2013/M/ PK WND 2119 0827Z M 50MM=
0093712230999992019010110004+51930-110720SAO  +077299999V020200190067199999999999999999-01541-01881999999ADDOD130100981210REMAWY067XCS SA 1000 AUTO8 M M M M/-15/-19/2013/M/ PK WND 2119 0936Z M 48MM=
0093712230999992019010111004+51930-110720SAO  +077299999V020210190093199999999999999999-01411-01751999999ADDOD130101131210REMAWY067XCS SA 1100 AUTO8 M M M M/-14/-18/2118/M/ PK WND 2122 1058Z M 15MM=
0124712230999992019010112004+51933-110700FM-12+077299999V0202201N008819999999N999999999-01261-01621999999ADDAA106000091AA224000091KA1240N-02051REMSYN05871223 16/// /2217 11126 21162 60001 333 11154 21205 70000=EQDQ01-15.4 2EATMX 
0093712230999992019010112004+51930-110720SAO  +077299999V020220190087199999999999999999-01261-01621999999ADDOD130101181210REMAWY067XCS SA 1200 AUTO8 M M M M/-13/-16/2217/M/ PK WND 2123 1113Z M 62MM=
0093712230999992019010113004+51930-110720SAO  +077299999V020210190077199999999999999999-01261-01521999999ADDOD130101281220REMAWY067XCS SA 1300 AUTO8 M M M M/-13/-15/2115/M/ PK WND 2225 1214Z M 62MM=
0127712230999992019010114004+51930-110720SAO  +077299999V020220190082199999999999999999-01121-01371999999ADDAA101000431OD130101031220REMAWY090XCS SA 1400 AUTO8 M M M M/-11/-14/2216/M/0004 PCPN 0.4MM PAST HR PK WND 2220 1358Z M 27MM=
0077712230999992019010115004+51933-110700FM-12+077299999V0202301N011319999999N999999999-01041-01341999999ADDAA103000431AZ141021REMSYN04671223 27/// /2322 11104 21134 7//4/ 333 69947=
0097712230999992019010115004+51930-110720SAO  +077299999V020230190113199999999999999999-01041-01341999999ADDOD130101391230REMAWY071XCS SA 1500 AUTO8 M M M M/-10/-13/2322/M/0004 PK WND 2327 1458Z M 44MM=
0097712230999992019010116004+51930-110720SAO  +077299999V020240190098199999999999999999-00851-01291999999ADDOD130101441230REMAWY071XCS SA 1600 AUTO8 M M M M/-09/-13/2419/M/0004 PK WND 2328 1509Z M 59MM=
0097712230999992019010117004+51930-110720SAO  +077299999V020260190098199999999999999999-00681-01001999999ADDOD130101231240REMAWY071XCS SA 1700 AUTO8 M M M M/-07/-10/2619/M/0004 PK WND 2424 1606Z M 80MM=
0132712230999992019010118004+51933-110700FM-12+077299999V0202801N008219999999N999999999-00451-00751999999ADDAA106000431AA224000431AZ141021KA1120M-00441KA2120N-02081REMSYN06471223 17/// /2816 11045 21075 69941 7//4/ 333 11044 21208 70004=
0097712230999992019010118004+51930-110720SAO  +077299999V020280190082199999999999999999-00451-00751999999ADDOD130101281270REMAWY071XCS SA 1800 AUTO8 M M M M/-05/-08/2816/M/0004 PK WND 2725 1713Z M 55MM=
0093712230999992019010119004+51930-110720SAO  +077299999V020290190082199999999999999999-00061-00441999999ADDOD130101081290REMAWY067XCS SA 1900 AUTO8 M M M M/-01/-04/2916/M/ PK WND 2921 1849Z M 64MM=
0092712230999992019010120004+51930-110720SAO  +077299999V020290190082199999999999999999+00041-00391999999ADDOD130101031300REMAWY066XCS SA 2000 AUTO8 M M M M/00/-04/2916/M/ PK WND 3020 1905Z M 49MM=
0063712230999992019010121004+51933-110700FM-12+077299999V0202901N009319999999N999999999+00081-00381999999ADDAA103000091REMSYN04071223 26/// /2918 10008 21038 333 60007=
0092712230999992019010121004+51930-110720SAO  +077299999V020290190093199999999999999999+00081-00381999999ADDOD130101081290REMAWY066XCS SA 2100 AUTO8 M M M M/01/-04/2918/M/ PK WND 2921 2058Z M 88MM=
0092712230999992019010122004+51930-110720SAO  +077299999V020310190093199999999999999999+00061-00441999999ADDOD130101341310REMAWY066XCS SA 2200 AUTO8 M M M M/01/-04/3118/M/ PK WND 3126 2113Z M 64MM=
0093712230999992019010123004+51930-110720SAO  +077299999V020290190062199999999999999999-00091-00501999999ADDOD130101031300REMAWY067XCS SA 2300 AUTO8 M M M M/-01/-05/2912/M/ PK WND 3020 2201Z M 90MM=
0118712230999992019010200004+51933-110700FM-12+077299999V0202701N006719999999N999999999-00231-00541999999ADDAA106000091AA224000431KA1120M+00101KA2120N-01961REMSYN05871223 16/// /2713 11023 21054 60001 333 10010 21196 70004=
0058712230999992019010200004+51930-110720SAO  +077299999V020270190067199999999999999999-00231-00541999999REMAWY049XCS SA 0000 AUTO8 M M M M/-02/-05/2713/M/ M 34MM=
0058712230999992019010201004+51930-110720SAO  +077299999V020260190072199999999999999999-00301-00631999999REMAWY049XCS SA 0100 AUTO8 M M M M/-03/-06/2614/M/ M 03MM=
0058712230999992019010202004+51930-110720SAO  +077299999V020260190072199999999999999999-00281-00581999999REMAWY049XCS SA 0200 AUTO8 M M M M/-03/-06/2614/M/ M 88MM=
0063712230999992019010203004+51933-110700FM-12+077299999V0202501N005719999999N999999999-00201-00511999999ADDAA103000091REMSYN04071223 26/// /2511 11020 21051 333 60007=
0058712230999992019010203004+51930-110720SAO  +077299999V020250190057199999999999999999-00201-00511999999REMAWY049XCS SA 0300 AUTO8 M M M M/-02/-05/2511/M/ M 01MM=
0093712230999992019010204004+51930-110720SAO  +077299999V020260190072199999999999999999-00121-00461999999ADDOD130100981270REMAWY067XCS SA 0400 AUTO8 M M M M/-01/-05/2614/M/ PK WND 2719 0332Z M 26MM=
0093712230999992019010205004+51930-110720SAO  +077299999V020260190072199999999999999999-00161-00491999999ADDOD130100931250REMAWY067XCS SA 0500 AUTO8 M M M M/-02/-05/2614/M/ PK WND 2518 0414Z M 69MM=
0134712230999992019010206004+51933-110700FM-12+077299999V0202701N007219999999N999999999+00041-00311999999ADDAA106000091AA224000431KA1240M+00101KA2240N-01961REMSYN07471223 16/// /2714 10004 21031 60001 333 10010 21196 70004 555 32328 40161=
0057712230999992019010206004+51930-110720SAO  +077299999V020270190072199999999999999999+00041-00311999999REMAWY048XCS SA 0600 AUTO8 M M M M/00/-03/2714/M/ M 41MM=
0093712230999992019010207004+51930-110720SAO  +077299999V020270190077199999999999999999-00121-00351999999ADDOD130100981280REMAWY067XCS SA 0700 AUTO8 M M M M/-01/-04/2715/M/ PK WND 2819 0641Z M 25MM=
0092712230999992019010208004+51930-110720SAO  +077299999V020260190072199999999999999999+00021-00421999999ADDOD130100871260REMAWY066XCS SA 0800 AUTO8 M M M M/00/-04/2614/M/ PK WND 2617 0759Z M 22MM=
0063712230999992019010209004+51933-110700FM-12+077299999V0202701N008219999999N999999999+00101-00371999999ADDAA103000091REMSYN04071223 26/// /2716 10010 21037 333 60007=
0092712230999992019010209004+51930-110720SAO  +077299999V020270190082199999999999999999+00101-00371999999ADDOD130100981270REMAWY066XCS SA 0900 AUTO8 M M M M/01/-04/2716/M/ PK WND 2719 0842Z M 07MM=
0092712230999992019010210004+51930-110720SAO  +077299999V020270190077199999999999999999+00051-00301999999ADDOD130101031270REMAWY066XCS SA 1000 AUTO8 M M M M/01/-03/2715/M/ PK WND 2720 0910Z M 50MM=
0092712230999992019010211004+51930-110720SAO  +077299999V020260190067199999999999999999+00191-00151999999ADDOD130100931270REMAWY066XCS SA 1100 AUTO8 M M M M/02/-02/2613/M/ PK WND 2718 1036Z M 95MM=
0124712230999992019010212004+51933-110700FM-12+077299999V0202501N007719999999N999999999+00261-00221999999ADDAA106000091AA224000431KA1240N-00311REMSYN05871223 16/// /2515 10026 21022 60001 333 10010 21031 70004=EQDQ011     2EATMX 
0092712230999992019010212004+51930-110720SAO  +077299999V020250190077199999999999999999+00261-00221999999ADDOD130101081250REMAWY066XCS SA 1200 AUTO8 M M M M/03/-02/2515/M/ PK WND 2521 1155Z M 62MM=
0092712230999992019010213004+51930-110720SAO  +077299999V020250190067199999999999999999+00151-00181999999ADDOD130100981250REMAWY066XCS SA 1300 AUTO8 M M M M/02/-02/2513/M/ PK WND 2519 1243Z M 58MM=
0092712230999992019010214004+51930-110720SAO  +077299999V020250190072199999999999999999+00221-00171999999ADDOD130100871250REMAWY066XCS SA 1400 AUTO8 M M M M/02/-02/2514/M/ PK WND 2517 1356Z M 27MM=
0063712230999992019010215004+51933-110700FM-12+077299999V0202401N006219999999N999999999+00261-00121999999ADDAA103000091REMSYN04071223 26/// /2412 10026 21012 333 60007=
0092712230999992019010215004+51930-110720SAO  +077299999V020240190062199999999999999999+00261-00121999999ADDOD130100871240REMAWY066XCS SA 1500 AUTO8 M M M M/03/-01/2412/M/ PK WND 2417 1418Z M 62MM=
0092712230999992019010216004+51930-110720SAO  +077299999V020240190077199999999999999999+00331-00181999999ADDOD130100931240REMAWY066XCS SA 1600 AUTO8 M M M M/03/-02/2415/M/ PK WND 2418 1556Z M 38MM=
0092712230999992019010217004+51930-110720SAO  +077299999V020220190067199999999999999999+00201-00171999999ADDOD130101031250REMAWY066XCS SA 1700 AUTO8 M M M M/02/-02/2213/M/ PK WND 2520 1609Z M 07MM=
0118712230999992019010218004+51933-110700FM-12+077299999V0202201N007719999999N999999999+00221-00211999999ADDAA106000091AA224000091KA1120M+00381KA2120N-00451REMSYN05871223 16/// /2215 10022 21021 60001 333 10038 21045 70000=
0092712230999992019010218004+51930-110720SAO  +077299999V020220190077199999999999999999+00221-00211999999ADDOD130100931220REMAWY066XCS SA 1800 AUTO8 M M M M/02/-02/2215/M/ PK WND 2218 1755Z M 21MM=
0092712230999992019010219004+51930-110720SAO  +077299999V020220190072199999999999999999+00261-00181999999ADDOD130100871230REMAWY066XCS SA 1900 AUTO8 M M M M/03/-02/2214/M/ PK WND 2317 1800Z M 68MM=
0057712230999992019010220004+51930-110720SAO  +077299999V020220190057199999999999999999+00201-00161999999REMAWY048XCS SA 2000 AUTO8 M M M M/02/-02/2211/M/ M 06MM=
0063712230999992019010221004+51933-110700FM-12+077299999V0202401N006719999999N999999999+00291-00161999999ADDAA103000091REMSYN04071223 26/// /2413 10029 21016 333 60007=
0057712230999992019010221004+51930-110720SAO  +077299999V020240190067199999999999999999+00291-00161999999REMAWY048XCS SA 2100 AUTO8 M M M M/03/-02/2413/M/ M 96MM=
0057712230999992019010222004+51930-110720SAO  +077299999V020220190067199999999999999999+00251-00131999999REMAWY048XCS SA 2200 AUTO8 M M M M/03/-01/2213/M/ M 53MM=
0092712230999992019010223004+51930-110720SAO  +077299999V020250190072199999999999999999+00321-00141999999ADDOD130100871230REMAWY066XCS SA 2300 AUTO8 M M M M/03/-01/2514/M/ PK WND 2317 2222Z M 24MM=
0118712230999992019010300004+51933-110700FM-12+077299999V0202401N005119999999N999999999+00231-00141999999ADDAA106000091AA224000091KA1120M+00381KA2120N-00161REMSYN05871223 16/// /2410 10023 21014 60001 333 10038 21016 70000=
0092712230999992019010300004+51930-110720SAO  +077299999V020240190051199999999999999999+00231-00141999999ADDOD130100931240REMAWY066XCS SA 0000 AUTO8 M M M M/02/-01/2410/M/ PK WND 2418 2317Z M 34MM=
0057712230999992019010301004+51930-110720SAO  +077299999V020260190057199999999999999999+00231-00191999999REMAWY048XCS SA 0100 AUTO8 M M M M/02/-02/2611/M/ M 39MM=
0058712230999992019010302004+51930-110720SAO  +077299999V020240190046199999999999999999-00031-00271999999REMAWY049XCS SA 0200 AUTO8 M M M M/00/-03/2409/M/ M -37MM=
0063712230999992019010303004+51933-110700FM-12+077299999V0202201N004119999999N999999999+00061-00211999999ADDAA103000091REMSYN04071223 26/// /2208 10006 21021 333 60007=
0057712230999992019010303004+51930-110720SAO  +077299999V020220190041199999999999999999+00061-00211999999REMAWY048XCS SA 0300 AUTO8 M M M M/01/-02/2208/M/ M 61MM=
0058712230999992019010304004+51930-110720SAO  +077299999V020220190051199999999999999999-00011-00261999999REMAWY049XCS SA 0400 AUTO8 M M M M/00/-03/2210/M/ M -16MM=
0058712230999992019010305004+51930-110720SAO  +077299999V020230190046199999999999999999+00001-00301999999REMAWY049XCS SA 0500 AUTO8 M M M M/00/-03/2309/M/ M -00MM=
0134712230999992019010306004+51933-110700FM-12+077299999V0202301N005119999999N999999999-00121-00361999999ADDAA106000091AA224000091KA1240M+00381KA2240N-00161REMSYN07471223 16/// /2310 11012 21036 60001 333 10038 21016 70000 555 32521 40121=
0058712230999992019010306004+51930-110720SAO  +077299999V020230190051199999999999999999-00121-00361999999REMAWY049XCS SA 0600 AUTO8 M M M M/-01/-04/2310/M/ M 26MM=
0058712230999992019010307004+51930-110720SAO  +077299999V020230190057199999999999999999-00231-00351999999REMAWY049XCS SA 0700 AUTO8 M M M M/-02/-04/2311/M/ M 35MM=
0058712230999992019010308004+51930-110720SAO  +077299999V020260190046199999999999999999-00111-00401999999REMAWY049XCS SA 0800 AUTO8 M M M M/-01/-04/2609/M/ M 10MM=
0063712230999992019010309004+51933-110700FM-12+077299999V0202301N006219999999N999999999-00271-00511999999ADDAA103000091REMSYN04071223 26/// /2312 11027 21051 333 60007=
0058712230999992019010309004+51930-110720SAO  +077299999V020230190062199999999999999999-00271-00511999999REMAWY049XCS SA 0900 AUTO8 M M M M/-03/-05/2312/M/ M 71MM=
0093712230999992019010310004+51930-110720SAO  +077299999V020280190062199999999999999999-00091-00441999999ADDOD130100871250REMAWY067XCS SA 1000 AUTO8 M M M M/-01/-04/2812/M/ PK WND 2517 0908Z M 94MM=
0058712230999992019010311004+51930-110720SAO  +077299999V020300190046199999999999999999-00271-00521999999REMAWY049XCS SA 1100 AUTO8 M M M M/-03/-05/3009/M/ M 72MM=
0118712230999992019010312004+51933-110700FM-12+077299999V0202501N003119999999N999999999-00561-00731999999ADDAA106000091AA224000091KA1240M+00381KA2240N-00581REMSYN05871223 16/// /2506 11056 21073 60001 333 10038 21058 70000=
0058712230999992019010312004+51930-110720SAO  +077299999V020250190031199999999999999999-00561-00731999999REMAWY049XCS SA 1200 AUTO8 M M M M/-06/-07/2506/M/ M 63MM=
0058712230999992019010313004+51930-110720SAO  +077299999V020220190046199999999999999999-00581-00741999999REMAWY049XCS SA 1300 AUTO8 M M M M/-06/-07/2209/M/ M 84MM=
0058712230999992019010314004+51930-110720SAO  +077299999V020230190051199999999999999999-00611-00791999999REMAWY049XCS SA 1400 AUTO8 M M M M/-06/-08/2310/M/ M 19MM=
0063712230999992019010315004+51933-110700FM-12+077299999V0203001N002619999999N999999999-00381-00581999999ADDAA103000091REMSYN04071223 26/// /3005 11038 21058 333 60007=
0058712230999992019010315004+51930-110720SAO  +077299999V020300190026199999999999999999-00381-00581999999REMAWY049XCS SA 1500 AUTO8 M M M M/-04/-06/3005/M/ M 88MM=
0058712230999992019010316004+51930-110720SAO  +077299999V020290190041199999999999999999-00311-00461999999REMAWY049XCS SA 1600 AUTO8 M M M M/-03/-05/2908/M/ M 16MM=
0058712230999992019010317004+51930-110720SAO  +077299999V020230190046199999999999999999-00451-00551999999REMAWY049XCS SA 1700 AUTO8 M M M M/-05/-06/2309/M/ M 55MM=
0118712230999992019010318004+51933-110700FM-12+077299999V0203101N003619999999N999999999-00221-00451999999ADDAA106000091AA224000091KA1120M-00031KA2120N-00641REMSYN05871223 16/// /3107 11022 21045 60001 333 11003 21064 70000=
0058712230999992019010318004+51930-110720SAO  +077299999V020310190036199999999999999999-00221-00351999999REMAWY049XCS SA 1800 AUTO8 M M M M/-02/-04/3107/M/ M 25MM=
0057712230999992019010319004+51930-110720SAO  +077299999V020260190015199999999999999999+00111-00331999999REMAWY048XCS SA 1900 AUTO8 M M M M/01/-03/2603/M/ M 13MM=
0057712230999992019010320004+51930-110720SAO  +077299999V020330190026199999999999999999+00081-00291999999REMAWY048XCS SA 2000 AUTO8 M M M M/01/-03/3305/M/ M 89MM=
0063712230999992019010321004+51933-110700FM-12+077299999V0200701N002619999999N999999999+00081-00291999999ADDAA103000091REMSYN04071223 26/// /0705 10008 21029 333 60007=
0057712230999992019010321004+51930-110720SAO  +077299999V020070190026199999999999999999+00081-00291999999REMAWY048XCS SA 2100 AUTO8 M M M M/01/-03/0705/M/ M 89MM=
0057712230999992019010322004+51930-110720SAO  +077299999V020080190021199999999999999999+00121-00291999999REMAWY048XCS SA 2200 AUTO8 M M M M/01/-03/0804/M/ M 29MM=
0057712230999992019010323004+51930-110720SAO  +077299999V020080190015199999999999999999+00001-00331999999REMAWY048XCS SA 2300 AUTO8 M M M M/00/-03/0803/M/ M 03MM=
0075712230999992019010400004+51937-110713FM-12+077299999V0200421N0027199999999999999999-00051-00361999999ADDAA101999999AA206999999AA324999999KA1120M+00151KA2180N-00641REMSYN004BUFR
0058712230999992019010400004+51930-110720SAO  +077299999V020040190026199999999999999999-00061-00361999999REMAWY049XCS SA 0000 AUTO8 M M M M/-01/-04/0405/M/ M 66MM=
0058712230999992019010401004+51930-110720SAO  +077299999V020070190021199999999999999999-00051-00391999999REMAWY049XCS SA 0100 AUTO8 M M M M/-01/-04/0704/M/ M 59MM=
0058712230999992019010402004+51930-110720SAO  +077299999V020070190026199999999999999999-00221-00391999999REMAWY049XCS SA 0200 AUTO8 M M M M/-02/-04/0705/M/ M 29MM=
0063712230999992019010403004+51933-110700FM-12+077299999V0200501N002619999999N999999999-00231-00411999999ADDAA103000091REMSYN04071223 26/// /0505 11023 21041 333 60007=
0058712230999992019010403004+51930-110720SAO  +077299999V020060190026199999999999999999-00231-00411999999REMAWY049XCS SA 0300 AUTO8 M M M M/-02/-04/0605/M/ M 31MM=
0058712230999992019010404004+51930-110720SAO  +077299999V020070190021199999999999999999-00311-00441999999REMAWY049XCS SA 0400 AUTO8 M M M M/-03/-04/0704/M/ M 14MM=
0058712230999992019010405004+51930-110720SAO  +077299999V020070190010199999999999999999-00341-00441999999REMAWY049XCS SA 0500 AUTO8 M M M M/-03/-04/0702/M/ M 44MM=
0134712230999992019010406004+51933-110700FM-12+077299999V0200501N003119999999N999999999-00251-00441999999ADDAA106000091AA224000091KA1240M+00151KA2240N-00641REMSYN07471223 16/// /0506 11025 21044 60001 333 10015 21064 70000 555 32517 40100=
0058712230999992019010406004+51930-110720SAO  +077299999V020060190031199999999999999999-00151-00441999999REMAWY049XCS SA 0600 AUTO8 M M M M/-02/-04/0606/M/ M 54MM=
0058712230999992019010407004+51930-110720SAO  +077299999V020050190015199999999999999999-00311-00551999999REMAWY049XCS SA 0700 AUTO8 M M M M/-03/-06/0503/M/ M 15MM=
0058712230999992019010408004+51930-110720SAO  +077299999V020070190021199999999999999999-00341-00741999999REMAWY049XCS SA 0800 AUTO8 M M M M/-03/-07/0704/M/ M 44MM=
0063712230999992019010409004+51933-110700FM-12+077299999V0200801N002119999999N999999999-00351-00761999999ADDAA103000091REMSYN04071223 26/// /0804 11035 21076 333 60007=
0058712230999992019010409004+51930-110720SAO  +077299999V020080190021199999999999999999-00351-00761999999REMAWY049XCS SA 0900 AUTO8 M M M M/-04/-08/0804/M/ M 56MM=
0058712230999992019010410004+51930-110720SAO  +077299999V020090190015199999999999999999-00411-00731999999REMAWY049XCS SA 1000 AUTO8 M M M M/-04/-07/0903/M/ M 13MM=
0058712230999992019010411004+51930-110720SAO  +077299999V020070190021199999999999999999-00451-00741999999REMAWY049XCS SA 1100 AUTO8 M M M M/-05/-07/0704/M/ M 54MM=
0118712230999992019010412004+51933-110700FM-12+077299999V0200801N003119999999N999999999-00611-00741999999ADDAA106000091AA224000091KA1240M+00151KA2240N-00651REMSYN05871223 16/// /0806 11061 21074 60001 333 10015 21065 70000=
0058712230999992019010412004+51930-110720SAO  +077299999V020080190031199999999999999999-00611-00741999999REMAWY049XCS SA 1200 AUTO8 M M M M/-06/-07/0806/M/ M 14MM=
0058712230999992019010413004+51930-110720SAO  +077299999V020080190031199999999999999999-00721-00831999999REMAWY049XCS SA 1300 AUTO8 M M M M/-07/-08/0806/M/ M 23MM=
0058712230999992019010414004+51930-110720SAO  +077299999V020100190041199999999999999999-00631-00831999999REMAWY049XCS SA 1400 AUTO8 M M M M/-06/-08/1008/M/ M 33MM=
0063712230999992019010415004+51933-110700FM-12+077299999V0201101N003619999999N999999999-00621-00841999999ADDAA103000091REMSYN04071223 26/// /1107 11062 21084 333 60007=
0058712230999992019010415004+51930-110720SAO  +077299999V020110190036199999999999999999-00621-00841999999REMAWY049XCS SA 1500 AUTO8 M M M M/-06/-08/1107/M/ M 24MM=
0058712230999992019010416004+51930-110720SAO  +077299999V020080190041199999999999999999-00651-00751999999REMAWY049XCS SA 1600 AUTO8 M M M M/-07/-08/0808/M/ M 55MM=
0058712230999992019010417004+51930-110720SAO  +077299999V020080190036199999999999999999-00631-00821999999REMAWY049XCS SA 1700 AUTO8 M M M M/-06/-08/0807/M/ M 32MM=
0118712230999992019010418004+51933-110700FM-12+077299999V0200801N002619999999N999999999-00511-00721999999ADDAA106000091AA224000091KA1120M-00231KA2120N-00731REMSYN05871223 16/// /0805 11051 21072 60001 333 11023 21073 70000=
0058712230999992019010418004+51930-110720SAO  +077299999V020080190026199999999999999999-00511-00721999999REMAWY049XCS SA 1800 AUTO8 M M M M/-05/-07/0805/M/ M 12MM=
0058712230999992019010419004+51930-110720SAO  +077299999V020080190021199999999999999999-00391-00601999999REMAWY049XCS SA 1900 AUTO8 M M M M/-04/-06/0804/M/ M 90MM=
0058712230999992019010420004+51930-110720SAO  +077299999V020360190000199999999999999999-00161-00491999999REMAWY049XCS SA 2000 AUTO8 M M M M/-02/-05/0000/M/ M 69MM=
0063712230999992019010421004+51933-110700FM-12+077299999V0203201N001519999999N999999999-00151-00491999999ADDAA103000091REMSYN04071223 26/// /3203 11015 21049 333 60007=
0058712230999992019010421004+51930-110720SAO  +077299999V020320190015199999999999999999-00051-00491999999REMAWY049XCS SA 2100 AUTO8 M M M M/-01/-05/3203/M/ M 59MM=
0058712230999992019010422004+51930-110720SAO  +077299999V020340190036199999999999999999-00241-00581999999REMAWY049XCS SA 2200 AUTO8 M M M M/-02/-06/3407/M/ M 48MM=
0058712230999992019010423004+51930-110720SAO  +077299999V020020190031199999999999999999-00381-00671999999REMAWY049XCS SA 2300 AUTO8 M M M M/-04/-07/0206/M/ M 87MM=
0118712230999992019010500004+51933-110700FM-12+077299999V0200101N003119999999N999999999-00401-00691999999ADDAA106000091AA224000091KA1120M-00081KA2120N-00731REMSYN05871223 16/// /0106 11040 21069 60001 333 11008 21073 70000=
0058712230999992019010500004+51930-110720SAO  +077299999V020010190031199999999999999999-00401-00691999999REMAWY049XCS SA 0000 AUTO8 M M M M/-04/-07/0106/M/ M 09MM=
0058712230999992019010501004+51930-110720SAO  +077299999V020020190031199999999999999999-00371-00621999999REMAWY049XCS SA 0100 AUTO8 M M M M/-04/-06/0206/M/ M 72MM=
0058712230999992019010502004+51930-110720SAO  +077299999V020020190031199999999999999999-00381-00551999999REMAWY049XCS SA 0200 AUTO8 M M M M/-04/-06/0206/M/ M 85MM=
0063712230999992019010503004+51933-110700FM-12+077299999V0200201N003619999999N999999999-00391-00541999999ADDAA103000091REMSYN04071223 26/// /0207 11039 21054 333 60007=
0058712230999992019010503004+51930-110720SAO  +077299999V020020190036199999999999999999-00391-00541999999REMAWY049XCS SA 0300 AUTO8 M M M M/-04/-05/0207/M/ M 94MM=
0058712230999992019010504004+51930-110720SAO  +077299999V020040190021199999999999999999-00401-00531999999REMAWY049XCS SA 0400 AUTO8 M M M M/-04/-05/0404/M/ M 03MM=
0058712230999992019010505004+51930-110720SAO  +077299999V020010190021199999999999999999-00421-00541999999REMAWY049XCS SA 0500 AUTO8 M M M M/-04/-05/0104/M/ M 24MM=
0118712230999992019010506004+51933-110700FM-12+077299999V0203101N000519999999N999999999-00431-00551999999ADDAA106000091AA224000091KA1240M-00081KA2240N-00731REMSYN05871223 16/// /3101 11043 21055 60001 333 11008 21073 70000=
0058712230999992019010506004+51930-110720SAO  +077299999V020310190005199999999999999999-00431-00551999999REMAWY049XCS SA 0600 AUTO8 M M M M/-04/-06/3101/M/ M 35MM=
0058712230999992019010507004+51930-110720SAO  +077299999V020030190021199999999999999999-00421-00551999999REMAWY049XCS SA 0700 AUTO8 M M M M/-04/-06/0304/M/ M 25MM=
0058712230999992019010508004+51930-110720SAO  +077299999V020060190021199999999999999999-00411-00541999999REMAWY049XCS SA 0800 AUTO8 M M M M/-04/-05/0604/M/ M 14MM=
0063712230999992019010509004+51933-110700FM-12+077299999V0200901N002619999999N999999999-00421-00541999999ADDAA103000091REMSYN04071223 26/// /0905 11042 21054 333 60007=
0058712230999992019010509004+51930-110720SAO  +077299999V020090190026199999999999999999-00421-00541999999REMAWY049XCS SA 0900 AUTO8 M M M M/-04/-05/0905/M/ M 24MM=
0058712230999992019010510004+51930-110720SAO  +077299999V020120190031199999999999999999-00441-00581999999REMAWY049XCS SA 1000 AUTO8 M M M M/-04/-06/1206/M/ M 48MM=
0058712230999992019010511004+51930-110720SAO  +077299999V020110190026199999999999999999-00481-00591999999REMAWY049XCS SA 1100 AUTO8 M M M M/-05/-06/1105/M/ M 89MM=
0118712230999992019010512004+51933-110700FM-12+077299999V0201101N003619999999N999999999-00501-00591999999ADDAA106000091AA224000091KA1240M-00081KA2240N-00501REMSYN05871223 16/// /1107 11050 21059 60001 333 11008 21050 70000=
0058712230999992019010512004+51930-110720SAO  +077299999V020110190036199999999999999999-00501-00591999999REMAWY049XCS SA 1200 AUTO8 M M M M/-05/-06/1107/M/ M 09MM=
0058712230999992019010513004+51930-110720SAO  +077299999V020110190031199999999999999999-00521-00601999999REMAWY049XCS SA 1300 AUTO8 M M M M/-05/-06/1106/M/ M 20MM=
0058712230999992019010514004+51930-110720SAO  +077299999V020110190031199999999999999999-00491-00571999999REMAWY049XCS SA 1400 AUTO8 M M M M/-05/-06/1106/M/ M 97MM=
0063712230999992019010515004+51933-110700FM-12+077299999V0201201N003119999999N999999999-00471-00561999999ADDAA103000091REMSYN04071223 26/// /1206 11047 21056 333 60007=
0058712230999992019010515004+51930-110720SAO  +077299999V020120190031199999999999999999-00471-00561999999REMAWY049XCS SA 1500 AUTO8 M M M M/-05/-06/1206/M/ M 76MM=
0058712230999992019010516004+51930-110720SAO  +077299999V020120190036199999999999999999-00461-00551999999REMAWY049XCS SA 1600 AUTO8 M M M M/-05/-06/1207/M/ M 65MM=
0058712230999992019010517004+51930-110720SAO  +077299999V020130190041199999999999999999-00431-00511999999REMAWY049XCS SA 1700 AUTO8 M M M M/-04/-05/1308/M/ M 31MM=
0118712230999992019010518004+51933-110700FM-12+077299999V0201301N005119999999N999999999-00431-00531999999ADDAA106000091AA224000091KA1120M-00411KA2120N-00531REMSYN05871223 16/// /1310 11043 21053 60001 333 11041 21053 70000=
0058712230999992019010518004+51930-110720SAO  +077299999V020130190051199999999999999999-00431-00531999999REMAWY049XCS SA 1800 AUTO8 M M M M/-04/-05/1310/M/ M 33MM=
0058712230999992019010519004+51930-110720SAO  +077299999V020120190051199999999999999999-00431-00541999999REMAWY049XCS SA 1900 AUTO8 M M M M/-04/-05/1210/M/ M 34MM=
0058712230999992019010520004+51930-110720SAO  +077299999V020130190062199999999999999999-00421-00531999999REMAWY049XCS SA 2000 AUTO8 M M M M/-04/-05/1312/M/ M 23MM=
0063712230999992019010521004+51933-110700FM-12+077299999V0201401N006719999999N999999999-00431-00541999999ADDAA103000091REMSYN04071223 26/// /1413 11043 21054 333 60007=
0058712230999992019010521004+51930-110720SAO  +077299999V020140190067199999999999999999-00431-00541999999REMAWY049XCS SA 2100 AUTO8 M M M M/-04/-05/1413/M/ M 34MM=
0093712230999992019010522004+51930-110720SAO  +077299999V020120190072199999999999999999-00471-00561999999ADDOD130100931120REMAWY067XCS SA 2200 AUTO8 M M M M/-05/-06/1214/M/ PK WND 1218 2139Z M 76MM=
0075712230999992019010618004+51775-111176FM-12+077299999V0201351N0018199999999999999999-00281-00371999999ADDAA101999999AA206999999AA324999999KA1120M-00321KA2240N-00621REMSYN004BUFR
0049712230999992019010621004+51775-110802FM-12+077299999V0201941N0044199999999999999999-00031-00151999999ADDAA101999999AA206999999AA324999999REMSYN004BUFR
0075712230999992019010700004+51775-110858FM-12+077299999V0203021N0055199999999999999999-00191-00421999999ADDAA101999999AA206999999AA324999999KA1120M-00051KA2180N-00601REMSYN004BUFR
0049712230999992019010703004+51775-111176FM-12+077299999V0203081N0089199999999999999999-00461-00681999999ADDAA101999999AA206999999AA324999999REMSYN004BUFR
0134712230999992019010706004+51933-110700FM-12+077299999V0202901N008219999999N999999999-00511-00611999999ADDAA106999919AA224000091KA1240M+00001KA2240N-00601REMSYN07471223 46/// /2916 11051 21061 6///1 333 11000 21060 70000 555 33227 40041=
0093712230999992019010707004+51930-110720SAO  +077299999V020300190087199999999999999999-00511-00681999999ADDOD130101231290REMAWY067XCS SA 0700 AUTO8 M M M M/-05/-07/3017/M/ PK WND 2924 0612Z M 18MM=
0093712230999992019010708004+51930-110720SAO  +077299999V020300190087199999999999999999-00571-00731999999ADDOD130101081300REMAWY067XCS SA 0800 AUTO8 M M M M/-06/-07/3017/M/ PK WND 3021 0754Z M 73MM=
0063712230999992019010709004+51933-110700FM-12+077299999V0203101N008219999999N999999999-00641-00791999999ADDAA103000731REMSYN04071223 26/// /3116 11064 21079 333 69977=
0127712230999992019010709004+51930-110720SAO  +077299999V020310190082199999999999999999-00641-00791999999ADDAA101000731OD130101231300REMAWY090XCS SA 0900 AUTO8 M M M M/-06/-08/3116/M/0007 PCPN 0.7MM PAST HR PK WND 3024 0826Z M 49MM=
0097712230999992019010710004+51930-110720SAO  +077299999V020300190072199999999999999999-00611-00791999999ADDOD130101441300REMAWY071XCS SA 1000 AUTO8 M M M M/-06/-08/3014/M/0007 PK WND 3028 0924Z M 19MM=
0097712230999992019010711004+51930-110720SAO  +077299999V020310190108199999999999999999-00551-00911999999ADDOD130101391310REMAWY071XCS SA 1100 AUTO8 M M M M/-06/-09/3121/M/0007 PK WND 3127 1057Z M 51MM=
0132712230999992019010712004+51933-110700FM-12+077299999V0203101N008819999999N999999999-00641-00861999999ADDAA106000731AA224000731AZ141021KA1240M+00001KA2240N-00661REMSYN06471223 17/// /3117 11064 21086 69971 7//4/ 333 11000 21066 70007=
0097712230999992019010712004+51930-110720SAO  +077299999V020310190087199999999999999999-00641-00861999999ADDOD130101341310REMAWY071XCS SA 1200 AUTO8 M M M M/-06/-09/3117/M/0007 PK WND 3126 1106Z M 46MM=
0093712230999992019010713004+51930-110720SAO  +077299999V020320190103199999999999999999-00811-00951999999ADDOD130101441300REMAWY067XCS SA 1300 AUTO8 M M M M/-08/-10/3220/M/ PK WND 3028 1203Z M 15MM=
0093712230999992019010714004+51930-110720SAO  +077299999V020310190103199999999999999999-00991-01271999999ADDOD130101491310REMAWY067XCS SA 1400 AUTO8 M M M M/-10/-13/3120/M/ PK WND 3129 1307Z M 97MM=
0063712230999992019010715004+51933-110700FM-12+077299999V0203101N010819999999N999999999-01151-01461999999ADDAA103000091REMSYN04071223 26/// /3121 11115 21146 333 60007=
0093712230999992019010715004+51930-110720SAO  +077299999V020310190108199999999999999999-01151-01461999999ADDOD130101281320REMAWY067XCS SA 1500 AUTO8 M M M M/-12/-15/3121/M/ PK WND 3225 1418Z M 56MM=
0093712230999992019010716004+51930-110720SAO  +077299999V020310190103199999999999999999-01211-01531999999ADDOD130101281310REMAWY067XCS SA 1600 AUTO8 M M M M/-12/-15/3120/M/ PK WND 3125 1557Z M 13MM=
0093712230999992019010717004+51930-110720SAO  +077299999V020310190123199999999999999999-01151-01611999999ADDOD130101491310REMAWY067XCS SA 1700 AUTO8 M M M M/-12/-16/3124/M/ PK WND 3129 1659Z M 51MM=
0118712230999992019010718004+51933-110700FM-12+077299999V0203101N011819999999N999999999-01221-01611999999ADDAA106000091AA224000731KA1120M-00511KA2120N-01261REMSYN05871223 16/// /3123 11122 21161 60001 333 11051 21126 70007=
0093712230999992019010718004+51930-110720SAO  +077299999V020310190118199999999999999999-01221-01611999999ADDOD130101441310REMAWY067XCS SA 1800 AUTO8 M M M M/-12/-16/3123/M/ PK WND 3128 1725Z M 21MM=
0093712230999992019010719004+51930-110720SAO  +077299999V020310190103199999999999999999-01191-01551999999ADDOD130101541310REMAWY067XCS SA 1900 AUTO8 M M M M/-12/-16/3120/M/ PK WND 3130 1828Z M 95MM=
0093712230999992019010720004+51930-110720SAO  +077299999V020310190128199999999999999999-01261-01671999999ADDOD130101591300REMAWY067XCS SA 2000 AUTO8 M M M M/-13/-17/3125/M/ PK WND 3031 1953Z M 67MM=
0063712230999992019010721004+51933-110700FM-12+077299999V0203101N011319999999N999999999-01361-01781999999ADDAA103000091REMSYN04071223 26/// /3122 11136 21178 333 60007=
0093712230999992019010721004+51930-110720SAO  +077299999V020310190113199999999999999999-01361-01781999999ADDOD130101491310REMAWY067XCS SA 2100 AUTO8 M M M M/-14/-18/3122/M/ PK WND 3129 2014Z M 68MM=
0093712230999992019010722004+51930-110720SAO  +077299999V020310190098199999999999999999-01411-01751999999ADDOD130101391310REMAWY067XCS SA 2200 AUTO8 M M M M/-14/-18/3119/M/ PK WND 3127 2112Z M 15MM=
0093712230999992019010723004+51930-110720SAO  +077299999V020300190098199999999999999999-01431-01891999999ADDOD130101341300REMAWY067XCS SA 2300 AUTO8 M M M M/-14/-19/3019/M/ PK WND 3026 2249Z M 39MM=
0118712230999992019010800004+51933-110700FM-12+077299999V0203001N009819999999N999999999-01521-01991999999ADDAA106000091AA224000731KA1120M-00641KA2120N-01531REMSYN05871223 16/// /3019 11152 21199 60001 333 11064 21153 70007=
0093712230999992019010800004+51930-110720SAO  +077299999V020300190098199999999999999999-01521-01991999999ADDOD130101341300REMAWY067XCS SA 0000 AUTO8 M M M M/-15/-20/3019/M/ PK WND 3026 2308Z M 29MM=
0093712230999992019010801004+51930-110720SAO  +077299999V020300190103199999999999999999-01531-02011999999ADDOD130101281290REMAWY067XCS SA 0100 AUTO8 M M M M/-15/-20/3020/M/ PK WND 2925 0047Z M 31MM=
0093712230999992019010802004+51930-110720SAO  +077299999V020300190087199999999999999999-01581-02061999999ADDOD130101281300REMAWY067XCS SA 0200 AUTO8 M M M M/-16/-21/3017/M/ PK WND 3025 0104Z M 86MM=
0063712230999992019010803004+51933-110700FM-12+077299999V0203001N009819999999N999999999-01631-02101999999ADDAA103000091REMSYN04071223 26/// /3019 11163 21210 333 60007=
0093712230999992019010803004+51930-110720SAO  +077299999V020300190098199999999999999999-01631-02101999999ADDOD130101281300REMAWY067XCS SA 0300 AUTO8 M M M M/-16/-21/3019/M/ PK WND 3025 0241Z M 30MM=
0093712230999992019010804004+51930-110720SAO  +077299999V020300190118199999999999999999-01631-02121999999ADDOD130101391300REMAWY067XCS SA 0400 AUTO8 M M M M/-16/-21/3023/M/ PK WND 3027 0348Z M 32MM=
0093712230999992019010805004+51930-110720SAO  +077299999V020310190108199999999999999999-01661-02141999999ADDOD130101391300REMAWY067XCS SA 0500 AUTO8 M M M M/-17/-21/3121/M/ PK WND 3027 0404Z M 64MM=
0134712230999992019010806004+51933-110700FM-12+077299999V0203101N012419999999N999999999-01701-02181999999ADDAA106000091AA224000731KA1240M-00511KA2240N-01711REMSYN07471223 16/// /3124 11170 21218 60001 333 11051 21171 70007 555 33031 40201=
0093712230999992019010806004+51930-110720SAO  +077299999V020310190123199999999999999999-01701-02181999999ADDOD130101541310REMAWY067XCS SA 0600 AUTO8 M M M M/-17/-22/3124/M/ PK WND 3130 0557Z M 08MM=
0093712230999992019010807004+51930-110720SAO  +077299999V020310190123199999999999999999-01731-02211999999ADDOD130101491320REMAWY067XCS SA 0700 AUTO8 M M M M/-17/-22/3124/M/ PK WND 3229 0658Z M 31MM=
0093712230999992019010808004+51930-110720SAO  +077299999V020310190103199999999999999999-01781-02261999999ADDOD130101491300REMAWY067XCS SA 0800 AUTO8 M M M M/-18/-23/3120/M/ PK WND 3029 0715Z M 86MM=
0063712230999992019010809004+51933-110700FM-12+077299999V0203001N007719999999N999999999-01861-02331999999ADDAA103000091REMSYN04071223 26/// /3015 11186 21233 333 60007=
0093712230999992019010809004+51930-110720SAO  +077299999V020300190077199999999999999999-01861-02331999999ADDOD130101181300REMAWY067XCS SA 0900 AUTO8 M M M M/-19/-23/3015/M/ PK WND 3023 0810Z M 63MM=
0093712230999992019010810004+51930-110720SAO  +077299999V020300190093199999999999999999-01921-02401999999ADDOD130101081290REMAWY067XCS SA 1000 AUTO8 M M M M/-19/-24/3018/M/ PK WND 2921 0932Z M 20MM=
0093712230999992019010811004+51930-110720SAO  +077299999V020310190082199999999999999999-01941-02351999999ADDOD130101031300REMAWY067XCS SA 1100 AUTO8 M M M M/-19/-24/3116/M/ PK WND 3020 1025Z M 45MM=
0118712230999992019010812004+51933-110700FM-12+077299999V0203001N009819999999N999999999-01991-02511999999ADDAA106000091AA224000091KA1240M-00511KA2240N-01991REMSYN05871223 16/// /3019 11199 21251 60001 333 11051 21199 70000=
0093712230999992019010812004+51930-110720SAO  +077299999V020300190098199999999999999999-01991-02511999999ADDOD130101231290REMAWY067XCS SA 1200 AUTO8 M M M M/-20/-25/3019/M/ PK WND 2924 1109Z M 91MM=
0093712230999992019010813004+51930-110720SAO  +077299999V020300190093199999999999999999-02011-02541999999ADDOD130101231300REMAWY067XCS SA 1300 AUTO8 M M M M/-20/-25/3018/M/ PK WND 3024 1211Z M 14MM=
0093712230999992019010814004+51930-110720SAO  +077299999V020300190093199999999999999999-01951-02561999999ADDOD130101131300REMAWY067XCS SA 1400 AUTO8 M M M M/-20/-26/3018/M/ PK WND 3022 1330Z M 56MM=
0063712230999992019010815004+51933-110700FM-12+077299999V0202901N008819999999N999999999-02111-02621999999ADDAA103000091REMSYN04071223 26/// /2917 11211 21262 333 60007=
0093712230999992019010815004+51930-110720SAO  +077299999V020290190087199999999999999999-02111-02621999999ADDOD130101131300REMAWY067XCS SA 1500 AUTO8 M M M M/-21/-26/2917/M/ PK WND 3022 1447Z M 12MM=
0093712230999992019010816004+51930-110720SAO  +077299999V020280190057199999999999999999-02141-02661999999ADDOD130100981290REMAWY067XCS SA 1600 AUTO8 M M M M/-21/-27/2811/M/ PK WND 2919 1502Z M 46MM=
0093712230999992019010817004+51930-110720SAO  +077299999V020290190082199999999999999999-02031-02581999999ADDOD130100981290REMAWY067XCS SA 1700 AUTO8 M M M M/-20/-26/2916/M/ PK WND 2919 1658Z M 38MM=
0118712230999992019010818004+51933-110700FM-12+077299999V0202801N008819999999N999999999-02001-02531999999ADDAA106000091AA224000091KA1120M-01701KA2120N-02151REMSYN05871223 16/// /2817 11200 21253 60001 333 11170 21215 70000=
0093712230999992019010818004+51930-110720SAO  +077299999V020290190087199999999999999999-02001-02531999999ADDOD130101031290REMAWY067XCS SA 1800 AUTO8 M M M M/-20/-25/2917/M/ PK WND 2920 1758Z M 03MM=
0093712230999992019010819004+51930-110720SAO  +077299999V020290190062199999999999999999-01881-02431999999ADDOD130101031290REMAWY067XCS SA 1900 AUTO8 M M M M/-19/-24/2912/M/ PK WND 2920 1816Z M 83MM=
0058712230999992019010820004+51930-110720SAO  +077299999V020310190057199999999999999999-01651-02361999999REMAWY049XCS SA 2000 AUTO8 M M M M/-17/-24/3111/M/ M 56MM=
0063712230999992019010821004+51933-110700FM-12+077299999V0203001N003619999999N999999999-01671-02301999999ADDAA103000091REMSYN04071223 26/// /3007 11167 21230 333 60007=
0058712230999992019010821004+51930-110720SAO  +077299999V020300190036199999999999999999-01671-02301999999REMAWY049XCS SA 2100 AUTO8 M M M M/-17/-23/3007/M/ M 70MM=
0058712230999992019010822004+51930-110720SAO  +077299999V020280190021199999999999999999-01601-02291999999REMAWY049XCS SA 2200 AUTO8 M M M M/-16/-23/2804/M/ M 09MM=
0058712230999992019010823004+51930-110720SAO  +077299999V020240190026199999999999999999-01811-02341999999REMAWY049XCS SA 2300 AUTO8 M M M M/-18/-23/2405/M/ M 14MM=
0118712230999992019010900004+51933-110700FM-12+077299999V0202401N002619999999N999999999-02011-02461999999ADDAA106000091AA224000091KA1120M-01531KA2120N-02151REMSYN05871223 16/// /2405 11201 21246 60001 333 11153 21215 70000=
0058712230999992019010900004+51930-110720SAO  +077299999V020240190026199999999999999999-02011-02461999999REMAWY049XCS SA 0000 AUTO8 M M M M/-20/-25/2405/M/ M 16MM=
0058712230999992019010901004+51930-110720SAO  +077299999V020210190036199999999999999999-01961-02411999999REMAWY049XCS SA 0100 AUTO8 M M M M/-20/-24/2107/M/ M 61MM=
0058712230999992019010902004+51930-110720SAO  +077299999V020180190015199999999999999999-01931-02401999999REMAWY049XCS SA 0200 AUTO8 M M M M/-19/-24/1803/M/ M 30MM=
0063712230999992019010903004+51933-110700FM-12+077299999V0201101N002119999999N999999999-01961-02421999999ADDAA103000091REMSYN04071223 26/// /1104 11196 21242 333 60007=
0058712230999992019010903004+51930-110720SAO  +077299999V020110190021199999999999999999-01961-02421999999REMAWY049XCS SA 0300 AUTO8 M M M M/-20/-24/1104/M/ M 62MM=
0058712230999992019010904004+51930-110720SAO  +077299999V020080190031199999999999999999-02111-02511999999REMAWY049XCS SA 0400 AUTO8 M M M M/-21/-25/0806/M/ M 11MM=
0058712230999992019010905004+51930-110720SAO  +077299999V020090190031199999999999999999-02231-02591999999REMAWY049XCS SA 0500 AUTO8 M M M M/-22/-26/0906/M/ M 39MM=
0134712230999992019010906004+51933-110700FM-12+077299999V0200801N003119999999N999999999-02001-02351999999ADDAA106000091AA224000091KA1240M-01531KA2240N-02231REMSYN07471223 16/// /0806 11200 21235 60001 333 11153 21223 70000 555 33229 40071=
0058712230999992019010906004+51930-110720SAO  +077299999V020080190031199999999999999999-02001-02351999999REMAWY049XCS SA 0600 AUTO8 M M M M/-20/-24/0806/M/ M 05MM=
0058712230999992019010907004+51930-110720SAO  +077299999V020080190021199999999999999999-01961-02281999999REMAWY049XCS SA 0700 AUTO8 M M M M/-20/-23/0804/M/ M 68MM=
0058712230999992019010908004+51930-110720SAO  +077299999V020070190031199999999999999999-01661-02021999999REMAWY049XCS SA 0800 AUTO8 M M M M/-17/-20/0706/M/ M 62MM=
0049712230999992019010909004+51937-110858FM-12+077299999V0201161N0042199999999999999999-01611-02011999999ADDAA101999999AA206999999AA324999999REMSYN004BUFR
0058712230999992019010909004+51930-110720SAO  +077299999V020120190041199999999999999999-01621-02011999999REMAWY049XCS SA 0900 AUTO8 M M M M/-16/-20/1208/M/ M 21MM=
0058712230999992019010910004+51930-110720SAO  +077299999V020110190057199999999999999999-01581-01981999999REMAWY049XCS SA 1000 AUTO8 M M M M/-16/-20/1111/M/ M 88MM=
0058712230999992019010911004+51930-110720SAO  +077299999V020100190057199999999999999999-01611-02031999999REMAWY049XCS SA 1100 AUTO8 M M M M/-16/-20/1011/M/ M 13MM=
0118712230999992019010912004+51933-110700FM-12+077299999V0201101N005119999999N999999999-01631-02071999999ADDAA106000091AA224000091KA1240M-01531KA2240N-02231REMSYN05871223 16/// /1110 11163 21207 60001 333 11153 21223 70000=
0093712230999992019010912004+51930-110720SAO  +077299999V020110190051199999999999999999-01631-02071999999ADDOD130101031110REMAWY067XCS SA 1200 AUTO8 M M M M/-16/-21/1110/M/ PK WND 1120 1133Z M 37MM=
0058712230999992019010913004+51930-110720SAO  +077299999V020100190041199999999999999999-01571-02021999999REMAWY049XCS SA 1300 AUTO8 M M M M/-16/-20/1008/M/ M 72MM=
0093712230999992019010914004+51930-110720SAO  +077299999V020100190057199999999999999999-01491-01941999999ADDOD130100871090REMAWY067XCS SA 1400 AUTO8 M M M M/-15/-19/1011/M/ PK WND 0917 1343Z M 94MM=
0063712230999992019010915004+51933-110700FM-12+077299999V0201101N004619999999N999999999-01391-01831999999ADDAA103000091REMSYN04071223 26/// /1109 11139 21183 333 60007=
0058712230999992019010915004+51930-110720SAO  +077299999V020110190046199999999999999999-01391-01831999999REMAWY049XCS SA 1500 AUTO8 M M M M/-14/-18/1109/M/ M 93MM=
0058712230999992019010916004+51930-110720SAO  +077299999V020110190046199999999999999999-01271-01731999999REMAWY049XCS SA 1600 AUTO8 M M M M/-13/-17/1109/M/ M 73MM=
0093712230999992019010917004+51930-110720SAO  +077299999V020110190067199999999999999999-01191-01631999999ADDOD130100981100REMAWY067XCS SA 1700 AUTO8 M M M M/-12/-16/1113/M/ PK WND 1019 1640Z M 93MM=
0118712230999992019010918004+51933-110700FM-12+077299999V0201001N006219999999N999999999-01141-01431999999ADDAA106000091AA224000091KA1120M-01121KA2120N-02231REMSYN05871223 16/// /1012 11114 21143 60001 333 11112 21223 70000=
0093712230999992019010918004+51930-110720SAO  +077299999V020100190062199999999999999999-01131-01431999999ADDOD130101081110REMAWY067XCS SA 1800 AUTO8 M M M M/-11/-14/1012/M/ PK WND 1121 1732Z M 33MM=
0127712230999992019010919004+51930-110720SAO  +077299999V020110190077199999999999999999-01061-01281999999ADDAA101000531OD130101131100REMAWY090XCS SA 1900 AUTO8 M M M M/-11/-13/1115/M/0005 PCPN 0.5MM PAST HR PK WND 1022 1842Z M 68MM=
0097712230999992019010920004+51930-110720SAO  +077299999V020110190067199999999999999999-00941-01221999999ADDOD130101081120REMAWY071XCS SA 2000 AUTO8 M M M M/-09/-12/1113/M/0005 PK WND 1221 1921Z M 42MM=
0063712230999992019010921004+51933-110700FM-12+077299999V0200901N006719999999N999999999-00931-01271999999ADDAA103000531REMSYN04071223 26/// /0913 11093 21127 333 69957=
0097712230999992019010921004+51930-110720SAO  +077299999V020100190067199999999999999999-00931-01271999999ADDOD130101031100REMAWY071XCS SA 2100 AUTO8 M M M M/-09/-13/1013/M/0005 PK WND 1020 2059Z M 37MM=
0097712230999992019010922004+51930-110720SAO  +077299999V020100190087199999999999999999-00981-01281999999ADDOD130101081100REMAWY071XCS SA 2200 AUTO8 M M M M/-10/-13/1017/M/0005 PK WND 1021 2135Z M 88MM=
0097712230999992019010923004+51930-110720SAO  +077299999V020070190046199999999999999999-01011-01301999999ADDOD130101031100REMAWY071XCS SA 2300 AUTO8 M M M M/-10/-13/0709/M/0005 PK WND 1020 2200Z M 10MM=
0118712230999992019011000004+51933-110700FM-12+077299999V0200901N007219999999N999999999-01071-01371999999ADDAA106000531AA224000631KA1120M-00901KA2120N-02101REMSYN05871223 16/// /0914 11107 21137 69951 333 11090 21210 70006=
0097712230999992019011000004+51930-110720SAO  +077299999V020090190072199999999999999999-01071-01371999999ADDOD130100981090REMAWY071XCS SA 0000 AUTO8 M M M M/-11/-14/0914/M/0005 PK WND 0919 2344Z M 77MM=
0093712230999992019011001004+51930-110720SAO  +077299999V020090190067199999999999999999-01081-01391999999ADDOD130100871090REMAWY067XCS SA 0100 AUTO8 M M M M/-11/-14/0913/M/ PK WND 0917 0001Z M 89MM=
0058712230999992019011002004+51930-110720SAO  +077299999V020080190051199999999999999999-01101-01401999999REMAWY049XCS SA 0200 AUTO8 M M M M/-11/-14/0810/M/ M 00MM=
0063712230999992019011003004+51933-110700FM-12+077299999V0200801N004619999999N999999999-01151-01441999999ADDAA103000091REMSYN04071223 26/// /0809 11115 21144 333 60007=
0058712230999992019011003004+51930-110720SAO  +077299999V020080190046199999999999999999-01151-01441999999REMAWY049XCS SA 0300 AUTO8 M M M M/-12/-14/0809/M/ M 54MM=
0058712230999992019011004004+51930-110720SAO  +077299999V020080190026199999999999999999-01271-01541999999REMAWY049XCS SA 0400 AUTO8 M M M M/-13/-15/0805/M/ M 74MM=
0058712230999992019011005004+51930-110720SAO  +077299999V020010190036199999999999999999-01341-01631999999REMAWY049XCS SA 0500 AUTO8 M M M M/-13/-16/0107/M/ M 43MM=
0134712230999992019011006004+51933-110700FM-12+077299999V0200201N004119999999N999999999-01341-01601999999ADDAA106000091AA224000631KA1240M-00901KA2240N-02101REMSYN07471223 16/// /0208 11134 21160 60001 333 11090 21210 70006 555 31022 40191=
0058712230999992019011006004+51930-110720SAO  +077299999V020020190041199999999999999999-01341-01601999999REMAWY049XCS SA 0600 AUTO8 M M M M/-13/-16/0208/M/ M 40MM=
0058712230999992019011007004+51930-110720SAO  +077299999V020050190021199999999999999999-01341-01581999999REMAWY049XCS SA 0700 AUTO8 M M M M/-13/-16/0504/M/ M 48MM=
0058712230999992019011008004+51930-110720SAO  +077299999V020360190036199999999999999999-01371-01611999999REMAWY049XCS SA 0800 AUTO8 M M M M/-14/-16/3607/M/ M 71MM=
0063712230999992019011009004+51933-110700FM-12+077299999V0203401N002119999999N999999999-01461-01711999999ADDAA103000091REMSYN04071223 26/// /3404 11146 21171 333 60007=
0058712230999992019011009004+51930-110720SAO  +077299999V020340190021199999999999999999-01461-01711999999REMAWY049XCS SA 0900 AUTO8 M M M M/-15/-17/3404/M/ M 61MM=
0058712230999992019011010004+51930-110720SAO  +077299999V020340190021199999999999999999-01451-01791999999REMAWY049XCS SA 1000 AUTO8 M M M M/-15/-18/3404/M/ M 59MM=
0058712230999992019011011004+51930-110720SAO  +077299999V020360190015199999999999999999-01581-01821999999REMAWY049XCS SA 1100 AUTO8 M M M M/-16/-18/3603/M/ M 82MM=
0118712230999992019011012004+51933-110700FM-12+077299999V0200401N001019999999N999999999-01601-01851999999ADDAA106000091AA224000631KA1240M-00901KA2240N-01661REMSYN05871223 16/// /0402 11160 21185 60001 333 11090 21166 70006=
0058712230999992019011012004+51930-110720SAO  +077299999V020040190010199999999999999999-01591-01751999999REMAWY049XCS SA 1200 AUTO8 M M M M/-16/-18/0402/M/ M 95MM=
0058712230999992019011013004+51930-110720SAO  +077299999V020020190015199999999999999999-01611-01871999999REMAWY049XCS SA 1300 AUTO8 M M M M/-16/-19/0203/M/ M 17MM=
0058712230999992019011014004+51930-110720SAO  +077299999V020050190010199999999999999999-01611-01881999999REMAWY049XCS SA 1400 AUTO8 M M M M/-16/-19/0502/M/ M 18MM=
0063712230999992019011015004+51933-110700FM-12+077299999V0200401N001019999999N999999999-01631-01891999999ADDAA103000091REMSYN04071223 26/// /0402 11163 21189 333 60007=
0058712230999992019011015004+51930-110720SAO  +077299999V020040190010199999999999999999-01631-01891999999REMAWY049XCS SA 1500 AUTO8 M M M M/-16/-19/0402/M/ M 39MM=
0058712230999992019011016004+51930-110720SAO  +077299999V020060190015199999999999999999-01621-01901999999REMAWY049XCS SA 1600 AUTO8 M M M M/-16/-19/0603/M/ M 20MM=
0058712230999992019011017004+51930-110720SAO  +077299999V020070190015199999999999999999-01541-01791999999REMAWY049XCS SA 1700 AUTO8 M M M M/-15/-18/0703/M/ M 49MM=
0118712230999992019011018004+51933-110700FM-12+077299999V0200701N002119999999N999999999-01521-01781999999ADDAA106000091AA224000631KA1120M-01331KA2120N-01661REMSYN05871223 16/// /0704 11152 21178 60001 333 11133 21166 70006=
0058712230999992019011018004+51930-110720SAO  +077299999V020070190021199999999999999999-01521-01781999999REMAWY049XCS SA 1800 AUTO8 M M M M/-15/-18/0704/M/ M 28MM=
0058712230999992019011019004+51930-110720SAO  +077299999V020100190031199999999999999999-01421-01661999999REMAWY049XCS SA 1900 AUTO8 M M M M/-14/-17/1006/M/ M 26MM=
0058712230999992019011020004+51930-110720SAO  +077299999V020100190021199999999999999999-01361-01601999999REMAWY049XCS SA 2000 AUTO8 M M M M/-14/-16/1004/M/ M 60MM=
0063712230999992019011021004+51933-110700FM-12+077299999V0200601N002119999999N999999999-01321-01561999999ADDAA103000091REMSYN04071223 26/// /0604 11132 21156 333 60007=
0058712230999992019011021004+51930-110720SAO  +077299999V020060190021199999999999999999-01321-01561999999REMAWY049XCS SA 2100 AUTO8 M M M M/-13/-16/0604/M/ M 26MM=
0058712230999992019011022004+51930-110720SAO  +077299999V020060190021199999999999999999-01271-01521999999REMAWY049XCS SA 2200 AUTO8 M M M M/-13/-15/0604/M/ M 72MM=
0058712230999992019011023004+51930-110720SAO  +077299999V020360190031199999999999999999-01341-01621999999REMAWY049XCS SA 2300 AUTO8 M M M M/-13/-16/3606/M/ M 42MM=
0118712230999992019011100004+51933-110700FM-12+077299999V0200501N002619999999N999999999-01381-01651999999ADDAA106000091AA224000091KA1120M-01271KA2120N-01661REMSYN05871223 16/// /0505 11138 21165 60001 333 11127 21166 70000=
0058712230999992019011100004+51930-110720SAO  +077299999V020050190026199999999999999999-01381-01551999999REMAWY049XCS SA 0000 AUTO8 M M M M/-14/-16/0505/M/ M 85MM=
0058712230999992019011101004+51930-110720SAO  +077299999V020030190021199999999999999999-01491-01761999999REMAWY049XCS SA 0100 AUTO8 M M M M/-15/-18/0304/M/ M 96MM=
0058712230999992019011102004+51930-110720SAO  +077299999V020340190015199999999999999999-01611-01881999999REMAWY049XCS SA 0200 AUTO8 M M M M/-16/-19/3403/M/ M 18MM=
0063712230999992019011103004+51933-110700FM-12+077299999V0200601N001519999999N999999999-01551-01811999999ADDAA103000091REMSYN04071223 26/// /0603 11155 21181 333 60007=
0058712230999992019011103004+51930-110720SAO  +077299999V020060190015199999999999999999-01551-01811999999REMAWY049XCS SA 0300 AUTO8 M M M M/-16/-18/0603/M/ M 51MM=
0058712230999992019011104004+51930-110720SAO  +077299999V020050190015199999999999999999-01541-01791999999REMAWY049XCS SA 0400 AUTO8 M M M M/-15/-18/0503/M/ M 49MM=
0058712230999992019011105004+51930-110720SAO  +077299999V020070190010199999999999999999-01611-01871999999REMAWY049XCS SA 0500 AUTO8 M M M M/-16/-19/0702/M/ M 17MM=
0118712230999992019011106004+51933-110700FM-12+077299999V0201001N001019999999N999999999-01641-01901999999ADDAA106000091AA224000091KA1240M-01271KA2240N-01661REMSYN05871223 16/// /1002 11164 21190 60001 333 11127 21166 70000=
0058712230999992019011106004+51930-110720SAO  +077299999V020100190010199999999999999999-01641-01901999999REMAWY049XCS SA 0600 AUTO8 M M M M/-16/-19/1002/M/ M 40MM=
0058712230999992019011107004+51930-110720SAO  +077299999V020130190005199999999999999999-01661-01931999999REMAWY049XCS SA 0700 AUTO8 M M M M/-17/-19/1301/M/ M 63MM=
0058712230999992019011108004+51930-110720SAO  +077299999V020140190015199999999999999999-01551-01911999999REMAWY049XCS SA 0800 AUTO8 M M M M/-16/-19/1403/M/ M 51MM=
0063712230999992019011109004+51933-110700FM-12+077299999V0201801N001019999999N999999999-01711-01981999999ADDAA103000091REMSYN04071223 26/// /1802 11171 21198 333 60007=
0058712230999992019011109004+51930-110720SAO  +077299999V020180190010199999999999999999-01711-01981999999REMAWY049XCS SA 0900 AUTO8 M M M M/-17/-20/1802/M/ M 18MM=
0058712230999992019011110004+51930-110720SAO  +077299999V020210190031199999999999999999-01811-02101999999REMAWY049XCS SA 1000 AUTO8 M M M M/-18/-21/2106/M/ M 10MM=
0058712230999992019011111004+51930-110720SAO  +077299999V020180190021199999999999999999-01821-02121999999REMAWY049XCS SA 1100 AUTO8 M M M M/-18/-21/1804/M/ M 22MM=
0118712230999992019011112004+51933-110700FM-12+077299999V0202001N002119999999N999999999-01861-02161999999ADDAA106000091AA224000091KA1240M-01271KA2240N-01891REMSYN05871223 16/// /2004 11186 21216 60001 333 11127 21189 70000=
0058712230999992019011112004+51930-110720SAO  +077299999V020200190021199999999999999999-01861-02161999999REMAWY049XCS SA 1200 AUTO8 M M M M/-19/-22/2004/M/ M 66MM=
0058712230999992019011113004+51930-110720SAO  +077299999V020190190015199999999999999999-01811-02111999999REMAWY049XCS SA 1300 AUTO8 M M M M/-18/-21/1903/M/ M 11MM=
0058712230999992019011114004+51930-110720SAO  +077299999V020120190015199999999999999999-02061-02401999999REMAWY049XCS SA 1400 AUTO8 M M M M/-21/-24/1203/M/ M 60MM=
0063712230999992019011115004+51933-110700FM-12+077299999V0201601N001019999999N999999999-01851-02161999999ADDAA103000091REMSYN04071223 26/// /1602 11185 21216 333 60007=
0058712230999992019011115004+51930-110720SAO  +077299999V020160190010199999999999999999-01851-02161999999REMAWY049XCS SA 1500 AUTO8 M M M M/-19/-22/1602/M/ M 56MM=
0058712230999992019011116004+51930-110720SAO  +077299999V020170190026199999999999999999-01771-02071999999REMAWY049XCS SA 1600 AUTO8 M M M M/-18/-21/1705/M/ M 77MM=
0058712230999992019011117004+51930-110720SAO  +077299999V020110190015199999999999999999-01781-02081999999REMAWY049XCS SA 1700 AUTO8 M M M M/-18/-21/1103/M/ M 88MM=
0118712230999992019011118004+51933-110700FM-12+077299999V0201101N002119999999N999999999-01681-01971999999ADDAA106000091AA224000091KA1120M-01611KA2120N-02071REMSYN05871223 16/// /1104 11168 21197 60001 333 11161 21207 70000=
0058712230999992019011118004+51930-110720SAO  +077299999V020110190021199999999999999999-01681-01971999999REMAWY049XCS SA 1800 AUTO8 M M M M/-17/-20/1104/M/ M 87MM=
0058712230999992019011119004+51930-110720SAO  +077299999V020110190015199999999999999999-01391-01661999999REMAWY049XCS SA 1900 AUTO8 M M M M/-14/-17/1103/M/ M 96MM=
0058712230999992019011120004+51930-110720SAO  +077299999V020140190046199999999999999999-01061-01401999999REMAWY049XCS SA 2000 AUTO8 M M M M/-11/-14/1409/M/ M 60MM=
0063712230999992019011121004+51933-110700FM-12+077299999V0201301N004619999999N999999999-01041-01391999999ADDAA103000091REMSYN04071223 26/// /1309 11104 21139 333 60007=
0058712230999992019011121004+51930-110720SAO  +077299999V020130190046199999999999999999-01041-01391999999REMAWY049XCS SA 2100 AUTO8 M M M M/-10/-14/1309/M/ M 49MM=
0058712230999992019011122004+51930-110720SAO  +077299999V020120190041199999999999999999-01061-01411999999REMAWY049XCS SA 2200 AUTO8 M M M M/-11/-14/1208/M/ M 61MM=
0058712230999992019011123004+51930-110720SAO  +077299999V020110190041199999999999999999-01111-01431999999REMAWY049XCS SA 2300 AUTO8 M M M M/-11/-14/1108/M/ M 13MM=
0118712230999992019011200004+51933-110700FM-12+077299999V0201101N003619999999N999999999-01241-01511999999ADDAA106000091AA224000091KA1120M-01011KA2120N-02071REMSYN05871223 16/// /1107 11124 21151 60001 333 11101 21207 70000=
0058712230999992019011200004+51930-110720SAO  +077299999V020110190036199999999999999999-01241-01511999999REMAWY049XCS SA 0000 AUTO8 M M M M/-12/-15/1107/M/ M 41MM=
0058712230999992019011201004+51930-110720SAO  +077299999V020100190031199999999999999999-01351-01581999999REMAWY049XCS SA 0100 AUTO8 M M M M/-14/-16/1006/M/ M 58MM=
0058712230999992019011202004+51930-110720SAO  +077299999V020100190041199999999999999999-01391-01611999999REMAWY049XCS SA 0200 AUTO8 M M M M/-14/-16/1008/M/ M 91MM=
0063712230999992019011203004+51933-110700FM-12+077299999V0201001N004119999999N999999999-01461-01681999999ADDAA103000091REMSYN04071223 26/// /1008 11146 21168 333 60007=
0058712230999992019011203004+51930-110720SAO  +077299999V020100190041199999999999999999-01461-01681999999REMAWY049XCS SA 0300 AUTO8 M M M M/-15/-17/1008/M/ M 68MM=
0058712230999992019011204004+51930-110720SAO  +077299999V020090190031199999999999999999-01481-01711999999REMAWY049XCS SA 0400 AUTO8 M M M M/-15/-17/0906/M/ M 81MM=
0058712230999992019011205004+51930-110720SAO  +077299999V020090190031199999999999999999-01471-01691999999REMAWY049XCS SA 0500 AUTO8 M M M M/-15/-17/0906/M/ M 79MM=
0118712230999992019011206004+51933-110700FM-12+077299999V0201001N002119999999N999999999-01461-01691999999ADDAA106000091AA224000091KA1240M-01011KA2240N-02071REMSYN05871223 16/// /1004 11146 21169 60001 333 11101 21207 70000=
0058712230999992019011206004+51930-110720SAO  +077299999V020100190021199999999999999999-01461-01691999999REMAWY049XCS SA 0600 AUTO8 M M M M/-15/-17/1004/M/ M 69MM=
0058712230999992019011207004+51930-110720SAO  +077299999V020080190015199999999999999999-01381-01601999999REMAWY049XCS SA 0700 AUTO8 M M M M/-14/-16/0803/M/ M 80MM=
0058712230999992019011208004+51930-110720SAO  +077299999V020110190021199999999999999999-01251-01571999999REMAWY049XCS SA 0800 AUTO8 M M M M/-13/-16/1104/M/ M 57MM=
0063712230999992019011209004+51933-110700FM-12+077299999V0200801N001519999999N999999999-01301-01511999999ADDAA103000091REMSYN04071223 26/// /0803 11130 21151 333 60007=
0058712230999992019011209004+51930-110720SAO  +077299999V020080190015199999999999999999-01291-01511999999REMAWY049XCS SA 0900 AUTO8 M M M M/-13/-15/0803/M/ M 91MM=
0058712230999992019011210004+51930-110720SAO  +077299999V020180190015199999999999999999-01221-01441999999REMAWY049XCS SA 1000 AUTO8 M M M M/-12/-14/1803/M/ M 24MM=
0058712230999992019011211004+51930-110720SAO  +077299999V020200190036199999999999999999-01021-01181999999REMAWY049XCS SA 1100 AUTO8 M M M M/-10/-12/2007/M/ M 28MM=
0124712230999992019011212004+51933-110700FM-12+077299999V0202101N005119999999N999999999-00821-01031999999ADDAA106000091AA224000091KA1240N-01481REMSYN05871223 16/// /2110 11082 21103 60001 333 11101 21148 70000=EQDQ01-10.1 2EATMX 
0058712230999992019011212004+51930-110720SAO  +077299999V020210190051199999999999999999-00821-01031999999REMAWY049XCS SA 1200 AUTO8 M M M M/-08/-10/2110/M/ M 23MM=
0058712230999992019011213004+51930-110720SAO  +077299999V020230190067199999999999999999-00761-00971999999REMAWY049XCS SA 1300 AUTO8 M M M M/-08/-10/2313/M/ M 67MM=
0093712230999992019011214004+51930-110720SAO  +077299999V020230190077199999999999999999-00641-00921999999ADDOD130100981240REMAWY067XCS SA 1400 AUTO8 M M M M/-06/-09/2315/M/ PK WND 2419 1342Z M 42MM=
0063712230999992019011215004+51933-110700FM-12+077299999V0202401N002619999999N999999999-00681-00991999999ADDAA103000091REMSYN04071223 26/// /2405 11068 21099 333 60007=
0058712230999992019011215004+51930-110720SAO  +077299999V020240190026199999999999999999-00681-00991999999REMAWY049XCS SA 1500 AUTO8 M M M M/-07/-10/2405/M/ M 89MM=
0058712230999992019011216004+51930-110720SAO  +077299999V020240190051199999999999999999-00731-01061999999REMAWY049XCS SA 1600 AUTO8 M M M M/-07/-11/2410/M/ M 36MM=
0058712230999992019011217004+51930-110720SAO  +077299999V020250190046199999999999999999-00521-00911999999REMAWY049XCS SA 1700 AUTO8 M M M M/-05/-09/2509/M/ M 21MM=
0118712230999992019011218004+51933-110700FM-12+077299999V0202701N005119999999N999999999-00251-00771999999ADDAA106000091AA224000091KA1120M-00251KA2120N-01681REMSYN05871223 16/// /2710 11025 21077 60001 333 11025 21168 70000=
0058712230999992019011218004+51930-110720SAO  +077299999V020270190051199999999999999999-00151-00771999999REMAWY049XCS SA 1800 AUTO8 M M M M/-02/-08/2710/M/ M 57MM=
0058712230999992019011219004+51930-110720SAO  +077299999V020280190051199999999999999999-00131-00721999999REMAWY049XCS SA 1900 AUTO8 M M M M/-01/-07/2810/M/ M 32MM=
0057712230999992019011220004+51930-110720SAO  +077299999V020280190036199999999999999999+00031-00621999999REMAWY048XCS SA 2000 AUTO8 M M M M/00/-06/2807/M/ M 32MM=
0049712230999992019011221004+51937-110858FM-12+077299999V0202421N0016199999999999999999-00281-00741999999ADDAA101999999AA206999999AA324999999REMSYN004BUFR
0058712230999992019011221004+51930-110720SAO  +077299999V020240190021199999999999999999-00261-00741999999REMAWY049XCS SA 2100 AUTO8 M M M M/-03/-07/2404/M/ M 64MM=
0058712230999992019011222004+51930-110720SAO  +077299999V020270190026199999999999999999-00121-00631999999REMAWY049XCS SA 2200 AUTO8 M M M M/-01/-06/2705/M/ M 23MM=
0058712230999992019011223004+51930-110720SAO  +077299999V020080190015199999999999999999-00081-00671999999REMAWY049XCS SA 2300 AUTO8 M M M M/-01/-07/0803/M/ M 87MM=
0118712230999992019011300004+51933-110700FM-12+077299999V0202101N002119999999N999999999-00261-00721999999ADDAA106000091AA224000091KA1120M+00111KA2120N-01461REMSYN05871223 16/// /2104 11026 21072 60001 333 10011 21146 70000=
0058712230999992019011300004+51930-110720SAO  +077299999V020210190021199999999999999999-00261-00721999999REMAWY049XCS SA 0000 AUTO8 M M M M/-03/-07/2104/M/ M 62MM=
0058712230999992019011301004+51930-110720SAO  +077299999V020250190041199999999999999999-00521-00881999999REMAWY049XCS SA 0100 AUTO8 M M M M/-05/-09/2508/M/ M 28MM=
0058712230999992019011302004+51930-110720SAO  +077299999V020270190031199999999999999999-00341-00741999999REMAWY049XCS SA 0200 AUTO8 M M M M/-03/-07/2706/M/ M 44MM=
0063712230999992019011303004+51933-110700FM-12+077299999V0202601N002619999999N999999999-00241-00751999999ADDAA103000091REMSYN04071223 26/// /2605 11024 21075 333 60007=
0058712230999992019011303004+51930-110720SAO  +077299999V020260190026199999999999999999-00241-00751999999REMAWY049XCS SA 0300 AUTO8 M M M M/-02/-08/2605/M/ M 45MM=
0058712230999992019011304004+51930-110720SAO  +077299999V020280190026199999999999999999-00441-00891999999REMAWY049XCS SA 0400 AUTO8 M M M M/-04/-09/2805/M/ M 49MM=
0058712230999992019011305004+51930-110720SAO  +077299999V020330190021199999999999999999-00371-00791999999REMAWY049XCS SA 0500 AUTO8 M M M M/-04/-08/3304/M/ M 79MM=
0134712230999992019011306004+51933-110700FM-12+077299999V0203601N002119999999N999999999-00501-00781999999ADDAA106000091AA224000091KA1240M+00111KA2240N-01461REMSYN07471223 16/// /3604 11050 21078 60001 333 10011 21146 70000 555 32419 40141=
0058712230999992019011306004+51930-110720SAO  +077299999V020360190021199999999999999999-00501-00781999999REMAWY049XCS SA 0600 AUTO8 M M M M/-05/-08/3604/M/ M 08MM=
0058712230999992019011307004+51930-110720SAO  +077299999V020340190015199999999999999999-00611-01021999999REMAWY049XCS SA 0700 AUTO8 M M M M/-06/-10/3403/M/ M 12MM=
0058712230999992019011308004+51930-110720SAO  +077299999V020080190005199999999999999999-00461-00811999999REMAWY049XCS SA 0800 AUTO8 M M M M/-05/-08/0801/M/ M 61MM=
0063712230999992019011309004+51933-110700FM-12+077299999V0201301N001519999999N999999999-00431-00801999999ADDAA103000091REMSYN04071223 26/// /1303 11043 21080 333 60007=
0058712230999992019011309004+51930-110720SAO  +077299999V020130190015199999999999999999-00431-00801999999REMAWY049XCS SA 0900 AUTO8 M M M M/-04/-08/1303/M/ M 30MM=
0058712230999992019011310004+51930-110720SAO  +077299999V020080190021199999999999999999-00301-00761999999REMAWY049XCS SA 1000 AUTO8 M M M M/-03/-08/0804/M/ M 06MM=
0058712230999992019011311004+51930-110720SAO  +077299999V020080190015199999999999999999-00451-00751999999REMAWY049XCS SA 1100 AUTO8 M M M M/-05/-08/0803/M/ M 55MM=
0118712230999992019011312004+51933-110700FM-12+077299999V0201301N001519999999N999999999-00531-00831999999ADDAA106000091AA224000091KA1240M+00111KA2240N-00661REMSYN05871223 16/// /1303 11053 21083 60001 333 10011 21066 70000=
0058712230999992019011312004+51930-110720SAO  +077299999V020130190015199999999999999999-00531-00831999999REMAWY049XCS SA 1200 AUTO8 M M M M/-05/-08/1303/M/ M 33MM=
0058712230999992019011313004+51930-110720SAO  +077299999V020170190021199999999999999999-00531-00861999999REMAWY049XCS SA 1300 AUTO8 M M M M/-05/-09/1704/M/ M 36MM=
0058712230999992019011314004+51930-110720SAO  +077299999V020220190036199999999999999999-00511-01021999999REMAWY049XCS SA 1400 AUTO8 M M M M/-05/-10/2207/M/ M 12MM=
0063712230999992019011315004+51933-110700FM-12+077299999V0202301N002619999999N999999999-00631-00971999999ADDAA103000091REMSYN04071223 26/// /2305 11063 21097 333 60007=
0058712230999992019011315004+51930-110720SAO  +077299999V020230190026199999999999999999-00631-00971999999REMAWY049XCS SA 1500 AUTO8 M M M M/-06/-10/2305/M/ M 37MM=
0058712230999992019011316004+51930-110720SAO  +077299999V020250190026199999999999999999-00551-00981999999REMAWY049XCS SA 1600 AUTO8 M M M M/-06/-10/2505/M/ M 58MM=
0058712230999992019011317004+51930-110720SAO  +077299999V020360190000199999999999999999-00691-01031999999REMAWY049XCS SA 1700 AUTO8 M M M M/-07/-10/0000/M/ M 93MM=
0118712230999992019011318004+51933-110700FM-12+077299999V0200601N001519999999N999999999-00581-00941999999ADDAA106000091AA224000091KA1120M-00251KA2120N-00771REMSYN05871223 16/// /0603 11058 21094 60001 333 11025 21077 70000=
0058712230999992019011318004+51930-110720SAO  +077299999V020060190015199999999999999999-00581-00941999999REMAWY049XCS SA 1800 AUTO8 M M M M/-06/-09/0603/M/ M 84MM=
0058712230999992019011319004+51930-110720SAO  +077299999V020100190010199999999999999999-00431-00861999999REMAWY049XCS SA 1900 AUTO8 M M M M/-04/-09/1002/M/ M 36MM=
0058712230999992019011320004+51930-110720SAO  +077299999V020070190005199999999999999999-00371-00841999999REMAWY049XCS SA 2000 AUTO8 M M M M/-04/-08/0701/M/ M 74MM=
0063712230999992019011321004+51933-110700FM-12+077299999V0201001N001019999999N999999999-00201-00811999999ADDAA103000091REMSYN04071223 26/// /1002 11020 21081 333 60007=
0058712230999992019011321004+51930-110720SAO  +077299999V020110190010199999999999999999-00201-00811999999REMAWY049XCS SA 2100 AUTO8 M M M M/-02/-08/1102/M/ M 01MM=
0058712230999992019011322004+51930-110720SAO  +077299999V020100190005199999999999999999-00071-00751999999REMAWY049XCS SA 2200 AUTO8 M M M M/-01/-08/1001/M/ M 75MM=
0058712230999992019011323004+51930-110720SAO  +077299999V020090190021199999999999999999-00291-00801999999REMAWY049XCS SA 2300 AUTO8 M M M M/-03/-08/0904/M/ M 90MM=
0118712230999992019011400004+51933-110700FM-12+077299999V0209999C000019999999N999999999-00341-00751999999ADDAA106000091AA224000091KA1120M+00011KA2120N-00771REMSYN05871223 16/// /0000 11034 21075 60001 333 10001 21077 70000=
0058712230999992019011400004+51930-110720SAO  +077299999V020360190000199999999999999999-00341-00751999999REMAWY049XCS SA 0000 AUTO8 M M M M/-03/-08/0000/M/ M 45MM=
0058712230999992019011401004+51930-110720SAO  +077299999V020310190041199999999999999999-00871-01091999999REMAWY049XCS SA 0100 AUTO8 M M M M/-09/-11/3108/M/ M 79MM=
0058712230999992019011402004+51930-110720SAO  +077299999V020310190026199999999999999999-00751-01031999999REMAWY049XCS SA 0200 AUTO8 M M M M/-08/-10/3105/M/ M 53MM=
0063712230999992019011403004+51933-110700FM-12+077299999V0203101N004119999999N999999999-01031-01201999999ADDAA103000091REMSYN04071223 26/// /3108 11103 21120 333 60007=
0058712230999992019011403004+51930-110720SAO  +077299999V020310190041199999999999999999-01031-01201999999REMAWY049XCS SA 0300 AUTO8 M M M M/-10/-12/3108/M/ M 30MM=
0058712230999992019011404004+51930-110720SAO  +077299999V020320190036199999999999999999-01011-01171999999REMAWY049XCS SA 0400 AUTO8 M M M M/-10/-12/3207/M/ M 17MM=
0058712230999992019011405004+51930-110720SAO  +077299999V020300190026199999999999999999-01041-01201999999REMAWY049XCS SA 0500 AUTO8 M M M M/-10/-12/3005/M/ M 40MM=
0118712230999992019011406004+51933-110700FM-12+077299999V0201101N000519999999N999999999-00851-01041999999ADDAA106000091AA224000091KA1240M+00011KA2240N-01131REMSYN05871223 16/// /1101 11085 21104 60001 333 10001 21113 70000=
0058712230999992019011406004+51930-110720SAO  +077299999V020110190005199999999999999999-00751-01041999999REMAWY049XCS SA 0600 AUTO8 M M M M/-08/-10/1101/M/ M 54MM=
0058712230999992019011407004+51930-110720SAO  +077299999V020360190000199999999999999999-00921-01131999999REMAWY049XCS SA 0700 AUTO8 M M M M/-09/-11/0000/M/ M 23MM=
0058712230999992019011408004+51930-110720SAO  +077299999V020320190021199999999999999999-01121-01271999999REMAWY049XCS SA 0800 AUTO8 M M M M/-11/-13/3204/M/ M 27MM=
0063712230999992019011409004+51933-110700FM-12+077299999V0202501N003119999999N999999999-01311-01561999999ADDAA103000091REMSYN04071223 26/// /2506 11131 21156 333 60007=
0058712230999992019011409004+51930-110720SAO  +077299999V020250190031199999999999999999-01311-01561999999REMAWY049XCS SA 0900 AUTO8 M M M M/-13/-16/2506/M/ M 16MM=
0058712230999992019011410004+51930-110720SAO  +077299999V020290190036199999999999999999-01091-01341999999REMAWY049XCS SA 1000 AUTO8 M M M M/-11/-13/2907/M/ M 94MM=
0058712230999992019011411004+51930-110720SAO  +077299999V020280190026199999999999999999-01361-01621999999REMAWY049XCS SA 1100 AUTO8 M M M M/-14/-16/2805/M/ M 62MM=
0118712230999992019011412004+51933-110700FM-12+077299999V0202801N002119999999N999999999-01521-01771999999ADDAA106000091AA224000091KA1240M+00011KA2240N-01551REMSYN05871223 16/// /2804 11152 21177 60001 333 10001 21155 70000=
0058712230999992019011412004+51930-110720SAO  +077299999V020280190021199999999999999999-01521-01771999999REMAWY049XCS SA 1200 AUTO8 M M M M/-15/-18/2804/M/ M 27MM=
0058712230999992019011413004+51930-110720SAO  +077299999V020260190031199999999999999999-01501-01741999999REMAWY049XCS SA 1300 AUTO8 M M M M/-15/-17/2606/M/ M 04MM=
0058712230999992019011414004+51930-110720SAO  +077299999V020250190031199999999999999999-01531-01761999999REMAWY049XCS SA 1400 AUTO8 M M M M/-15/-18/2506/M/ M 36MM=
0063712230999992019011415004+51933-110700FM-12+077299999V0202601N003119999999N999999999-01411-01641999999ADDAA103000091REMSYN04071223 26/// /2606 11141 21164 333 60007=
0058712230999992019011415004+51930-110720SAO  +077299999V020260190031199999999999999999-01411-01641999999REMAWY049XCS SA 1500 AUTO8 M M M M/-14/-16/2606/M/ M 14MM=
0058712230999992019011416004+51930-110720SAO  +077299999V020240190041199999999999999999-01451-01681999999REMAWY049XCS SA 1600 AUTO8 M M M M/-15/-17/2408/M/ M 58MM=
0058712230999992019011417004+51930-110720SAO  +077299999V020230190036199999999999999999-01201-01401999999REMAWY049XCS SA 1700 AUTO8 M M M M/-12/-14/2307/M/ M 00MM=
0118712230999992019011418004+51933-110700FM-12+077299999V0202301N003119999999N999999999-00791-00961999999ADDAA106000091AA224000091KA1120M-00711KA2120N-01631REMSYN05871223 16/// /2306 11079 21096 60001 333 11071 21163 70000=
0058712230999992019011418004+51930-110720SAO  +077299999V020230190031199999999999999999-00791-00961999999REMAWY049XCS SA 1800 AUTO8 M M M M/-08/-10/2306/M/ M 96MM=
0058712230999992019011419004+51930-110720SAO  +077299999V020220190057199999999999999999-00651-00951999999REMAWY049XCS SA 1900 AUTO8 M M M M/-07/-10/2211/M/ M 55MM=
0058712230999992019011420004+51930-110720SAO  +077299999V020230190057199999999999999999-00571-00751999999REMAWY049XCS SA 2000 AUTO8 M M M M/-06/-08/2311/M/ M 75MM=
0063712230999992019011421004+51933-110700FM-12+077299999V0202401N006219999999N999999999-00461-00781999999ADDAA103000091REMSYN04071223 26/// /2412 11046 21078 333 60007=
0058712230999992019011421004+51930-110720SAO  +077299999V020240190062199999999999999999-00461-00781999999REMAWY049XCS SA 2100 AUTO8 M M M M/-05/-08/2412/M/ M 68MM=
0058712230999992019011422004+51930-110720SAO  +077299999V020210190062199999999999999999-00421-00761999999REMAWY049XCS SA 2200 AUTO8 M M M M/-04/-08/2112/M/ M 26MM=
0058712230999992019011423004+51930-110720SAO  +077299999V020270190067199999999999999999-00201-00681999999REMAWY049XCS SA 2300 AUTO8 M M M M/-02/-07/2713/M/ M 08MM=
0118712230999992019011500004+51933-110700FM-12+077299999V0202801N006719999999N999999999-00261-00711999999ADDAA106000091AA224000091KA1120M-00161KA2120N-01631REMSYN05871223 16/// /2813 11026 21071 60001 333 11016 21163 70000=
0093712230999992019011500004+51930-110720SAO  +077299999V020280190067199999999999999999-00261-00711999999ADDOD130100871280REMAWY067XCS SA 0000 AUTO8 M M M M/-03/-07/2813/M/ PK WND 2817 2311Z M 61MM=
0058712230999992019011501004+51930-110720SAO  +077299999V020290190067199999999999999999-00291-00691999999REMAWY049XCS SA 0100 AUTO8 M M M M/-03/-07/2913/M/ M 99MM=
0058712230999992019011502004+51930-110720SAO  +077299999V020290190072199999999999999999-00161-00581999999REMAWY049XCS SA 0200 AUTO8 M M M M/-02/-06/2914/M/ M 68MM=
0063712230999992019011503004+51933-110700FM-12+077299999V0203001N007219999999N999999999-00161-00571999999ADDAA103000091REMSYN04071223 26/// /3014 11016 21057 333 60007=
0093712230999992019011503004+51930-110720SAO  +077299999V020300190072199999999999999999-00161-00571999999ADDOD130100981300REMAWY067XCS SA 0300 AUTO8 M M M M/-02/-06/3014/M/ PK WND 3019 0206Z M 67MM=
0058712230999992019011504004+51930-110720SAO  +077299999V020310190072199999999999999999-00211-00571999999REMAWY049XCS SA 0400 AUTO8 M M M M/-02/-06/3114/M/ M 17MM=
0058712230999992019011505004+51930-110720SAO  +077299999V020310190072199999999999999999-00261-00551999999REMAWY049XCS SA 0500 AUTO8 M M M M/-03/-06/3114/M/ M 65MM=
0134712230999992019011506004+51933-110700FM-12+077299999V0203101N007719999999N999999999-00291-00541999999ADDAA106000091AA224000091KA1240M-00081KA2240N-01631REMSYN07471223 16/// /3115 11029 21054 60001 333 11008 21163 70000 555 33019 40031=
0093712230999992019011506004+51930-110720SAO  +077299999V020320190077199999999999999999-00291-00541999999ADDOD130100931320REMAWY067XCS SA 0600 AUTO8 M M M M/-03/-05/3215/M/ PK WND 3218 0531Z M 94MM=
0093712230999992019011507004+51930-110720SAO  +077299999V020320190072199999999999999999-00331-00551999999ADDOD130100931320REMAWY067XCS SA 0700 AUTO8 M M M M/-03/-06/3214/M/ PK WND 3218 0601Z M 35MM=
0093712230999992019011508004+51930-110720SAO  +077299999V020320190051199999999999999999-00421-00601999999ADDOD130100981320REMAWY067XCS SA 0800 AUTO8 M M M M/-04/-06/3210/M/ PK WND 3219 0721Z M 20MM=
0063712230999992019011509004+51933-110700FM-12+077299999V0203101N005719999999N999999999-00551-00691999999ADDAA103000091REMSYN04071223 26/// /3111 11055 21069 333 60007=
0058712230999992019011509004+51930-110720SAO  +077299999V020310190057199999999999999999-00451-00691999999REMAWY049XCS SA 0900 AUTO8 M M M M/-05/-07/3111/M/ M 59MM=
0058712230999992019011510004+51930-110720SAO  +077299999V020320190041199999999999999999-00661-00781999999REMAWY049XCS SA 1000 AUTO8 M M M M/-07/-08/3208/M/ M 68MM=
0058712230999992019011511004+51930-110720SAO  +077299999V020330190036199999999999999999-00711-00821999999REMAWY049XCS SA 1100 AUTO8 M M M M/-07/-08/3307/M/ M 12MM=
0075712230999992019011512004+51937-110858FM-12+077299999V0200011N0027199999999999999999-00671-00801999999ADDAA101999999AA206999999AA324999999KA1120N-00811KA2300M-00081REMSYN004BUFR
0058712230999992019011512004+51930-110720SAO  +077299999V020360190036199999999999999999-00581-00721999999REMAWY049XCS SA 1200 AUTO8 M M M M/-06/-07/3607/M/ M 82MM=
0058712230999992019011513004+51930-110720SAO  +077299999V020010190051199999999999999999-00701-00841999999REMAWY049XCS SA 1300 AUTO8 M M M M/-07/-08/0110/M/ M 04MM=
0058712230999992019011514004+51930-110720SAO  +077299999V020020190046199999999999999999-00801-00981999999REMAWY049XCS SA 1400 AUTO8 M M M M/-08/-10/0209/M/ M 08MM=
0049712230999992019011515004+51937-110713FM-12+077299999V0200231N0030199999999999999999-00791-00971999999ADDAA101999999AA206999999AA324999999REMSYN004BUFR
0058712230999992019011515004+51930-110720SAO  +077299999V020020190031199999999999999999-00801-00971999999REMAWY049XCS SA 1500 AUTO8 M M M M/-08/-10/0206/M/ M 07MM=
0058712230999992019011516004+51930-110720SAO  +077299999V020060190036199999999999999999-00871-01031999999REMAWY049XCS SA 1600 AUTO8 M M M M/-09/-10/0607/M/ M 73MM=
0058712230999992019011517004+51930-110720SAO  +077299999V020070190036199999999999999999-00951-01101999999REMAWY049XCS SA 1700 AUTO8 M M M M/-10/-11/0707/M/ M 50MM=
0118712230999992019011518004+51933-110700FM-12+077299999V0200801N003119999999N999999999-00931-01071999999ADDAA106000091AA224000091KA1120M-00261KA2120N-00961REMSYN05871223 16/// /0806 11093 21107 60001 333 11026 21096 70000=
0058712230999992019011518004+51930-110720SAO  +077299999V020080190031199999999999999999-00931-01071999999REMAWY049XCS SA 1800 AUTO8 M M M M/-09/-11/0806/M/ M 37MM=
0058712230999992019011519004+51930-110720SAO  +077299999V020110190031199999999999999999-01091-01231999999REMAWY049XCS SA 1900 AUTO8 M M M M/-11/-12/1106/M/ M 93MM=
0058712230999992019011520004+51930-110720SAO  +077299999V020120190031199999999999999999-01081-01221999999REMAWY049XCS SA 2000 AUTO8 M M M M/-11/-12/1206/M/ M 82MM=
0063712230999992019011521004+51933-110700FM-12+077299999V0201201N002119999999N999999999-01061-01211999999ADDAA103000091REMSYN04071223 26/// /1204 11106 21121 333 60007=
0058712230999992019011521004+51930-110720SAO  +077299999V020120190021199999999999999999-01061-01211999999REMAWY049XCS SA 2100 AUTO8 M M M M/-11/-12/1204/M/ M 61MM=
0058712230999992019011522004+51930-110720SAO  +077299999V020100190031199999999999999999-01071-01231999999REMAWY049XCS SA 2200 AUTO8 M M M M/-11/-12/1006/M/ M 73MM=
0058712230999992019011523004+51930-110720SAO  +077299999V020100190031199999999999999999-01081-01151999999REMAWY049XCS SA 2300 AUTO8 M M M M/-11/-12/1006/M/ M 85MM=
0118712230999992019011600004+51933-110700FM-12+077299999V0200901N002619999999N999999999-01101-01281999999ADDAA106000091AA224000091KA1120M-00581KA2120N-01121REMSYN05871223 16/// /0905 11110 21128 60001 333 11058 21112 70000=
0058712230999992019011600004+51930-110720SAO  +077299999V020100190026199999999999999999-01101-01281999999REMAWY049XCS SA 0000 AUTO8 M M M M/-11/-13/1005/M/ M 08MM=
0058712230999992019011601004+51930-110720SAO  +077299999V020100190036199999999999999999-01191-01391999999REMAWY049XCS SA 0100 AUTO8 M M M M/-12/-14/1007/M/ M 99MM=
0058712230999992019011602004+51930-110720SAO  +077299999V020090190026199999999999999999-01261-01471999999REMAWY049XCS SA 0200 AUTO8 M M M M/-13/-15/0905/M/ M 67MM=
0063712230999992019011603004+51933-110700FM-12+077299999V0201001N004619999999N999999999-01311-01521999999ADDAA103000091REMSYN04071223 26/// /1009 11131 21152 333 60007=
0058712230999992019011603004+51930-110720SAO  +077299999V020100190046199999999999999999-01311-01521999999REMAWY049XCS SA 0300 AUTO8 M M M M/-13/-15/1009/M/ M 12MM=
0058712230999992019011604004+51930-110720SAO  +077299999V020130190021199999999999999999-01321-01531999999REMAWY049XCS SA 0400 AUTO8 M M M M/-13/-15/1304/M/ M 23MM=
0058712230999992019011605004+51930-110720SAO  +077299999V020130190015199999999999999999-01311-01541999999REMAWY049XCS SA 0500 AUTO8 M M M M/-13/-15/1303/M/ M 14MM=
0134712230999992019011606004+51933-110700FM-12+077299999V0201001N000519999999N999999999-01321-01551999999ADDAA106000091AA224000091KA1240M-00261KA2240N-01321REMSYN07471223 16/// /1001 11132 21155 60001 333 11026 21132 70000 555 33219 40080=
0058712230999992019011606004+51930-110720SAO  +077299999V020100190005199999999999999999-01321-01551999999REMAWY049XCS SA 0600 AUTO8 M M M M/-13/-16/1001/M/ M 25MM=
0058712230999992019011607004+51930-110720SAO  +077299999V020100190005199999999999999999-01331-01561999999REMAWY049XCS SA 0700 AUTO8 M M M M/-13/-16/1001/M/ M 36MM=
0058712230999992019011608004+51930-110720SAO  +077299999V020110190010199999999999999999-01361-01601999999REMAWY049XCS SA 0800 AUTO8 M M M M/-14/-16/1102/M/ M 60MM=
0063712230999992019011609004+51933-110700FM-12+077299999V0201001N000519999999N999999999-01361-01591999999ADDAA103000091REMSYN04071223 26/// /1001 11136 21159 333 60007=
0058712230999992019011609004+51930-110720SAO  +077299999V020100190005199999999999999999-01361-01591999999REMAWY049XCS SA 0900 AUTO8 M M M M/-14/-16/1001/M/ M 69MM=
0058712230999992019011610004+51930-110720SAO  +077299999V020100190005199999999999999999-01331-01561999999REMAWY049XCS SA 1000 AUTO8 M M M M/-13/-16/1001/M/ M 36MM=
0058712230999992019011611004+51930-110720SAO  +077299999V020360190000199999999999999999-01291-01521999999REMAWY049XCS SA 1100 AUTO8 M M M M/-13/-15/0000/M/ M 92MM=
0118712230999992019011612004+51933-110700FM-12+077299999V0209999C000019999999N999999999-01281-01501999999ADDAA106000091AA224000091KA1240M-00261KA2240N-01371REMSYN05871223 16/// /0000 11128 21150 60001 333 11026 21137 70000=
0058712230999992019011612004+51930-110720SAO  +077299999V020360190000199999999999999999-01281-01501999999REMAWY049XCS SA 1200 AUTO8 M M M M/-13/-15/0000/M/ M 80MM=
0058712230999992019011613004+51930-110720SAO  +077299999V020360190000199999999999999999-01231-01351999999REMAWY049XCS SA 1300 AUTO8 M M M M/-12/-14/0000/M/ M 35MM=
0058712230999992019011614004+51930-110720SAO  +077299999V020360190000199999999999999999-01221-01441999999REMAWY049XCS SA 1400 AUTO8 M M M M/-12/-14/0000/M/ M 24MM=
0063712230999992019011615004+51933-110700FM-12+077299999V0209999C000019999999N999999999-01261-01481999999ADDAA103000091REMSYN04071223 26/// /0000 11126 21148 333 60007=
0058712230999992019011615004+51930-110720SAO  +077299999V020360190000199999999999999999-01261-01481999999REMAWY049XCS SA 1500 AUTO8 M M M M/-13/-15/0000/M/ M 68MM=
0058712230999992019011616004+51930-110720SAO  +077299999V020360190000199999999999999999-01261-01481999999REMAWY049XCS SA 1600 AUTO8 M M M M/-13/-15/0000/M/ M 68MM=
0058712230999992019011617004+51930-110720SAO  +077299999V020360190000199999999999999999-01261-01481999999REMAWY049XCS SA 1700 AUTO8 M M M M/-13/-15/0000/M/ M 68MM=
0118712230999992019011618004+51933-110700FM-12+077299999V0209999C000019999999N999999999-01251-01471999999ADDAA106000091AA224000091KA1120M-01221KA2120N-01371REMSYN05871223 16/// /0000 11125 21147 60001 333 11122 21137 70000=
0058712230999992019011618004+51930-110720SAO  +077299999V020360190000199999999999999999-01151-01471999999REMAWY049XCS SA 1800 AUTO8 M M M M/-12/-15/0000/M/ M 57MM=
0058712230999992019011619004+51930-110720SAO  +077299999V020360190000199999999999999999-01231-01351999999REMAWY049XCS SA 1900 AUTO8 M M M M/-12/-14/0000/M/ M 35MM=
0058712230999992019011620004+51930-110720SAO  +077299999V020360190000199999999999999999-01211-01431999999REMAWY049XCS SA 2000 AUTO8 M M M M/-12/-14/0000/M/ M 13MM=
0063712230999992019011621004+51933-110700FM-12+077299999V0209999C000019999999N999999999-01211-01441999999ADDAA103000091REMSYN04071223 26/// /0000 11121 21144 333 60007=
0058712230999992019011621004+51930-110720SAO  +077299999V020360190000199999999999999999-01211-01441999999REMAWY049XCS SA 2100 AUTO8 M M M M/-12/-14/0000/M/ M 14MM=
0058712230999992019011622004+51930-110720SAO  +077299999V020360190000199999999999999999-01221-01351999999REMAWY049XCS SA 2200 AUTO8 M M M M/-12/-14/0000/M/ M 25MM=
0095712230999992019011623004+51930-110720SAO  +077299999V020360190000199999999999999999-01281-01531999999ADDAA101000431REMAWY072XCS SA 2300 AUTO8 M M M M/-13/-15/0000/M/0004 PCPN 0.4MM PAST HR M 83MM=
0132712230999992019011700004+51933-110700FM-12+077299999V0209999C000019999999N999999999-01311-01561999999ADDAA106000431AA224000431AZ141021KA1120M-01201KA2120N-01371REMSYN06471223 17/// /0000 11131 21156 69941 7//4/ 333 11120 21137 70004=
0062712230999992019011700004+51930-110720SAO  +077299999V020360190000199999999999999999-01311-01561999999REMAWY053XCS SA 0000 AUTO8 M M M M/-13/-16/0000/M/0004 M 16MM=
0058712230999992019011701004+51930-110720SAO  +077299999V020360190000199999999999999999-01361-01621999999REMAWY049XCS SA 0100 AUTO8 M M M M/-14/-16/0000/M/ M 62MM=
0058712230999992019011702004+51930-110720SAO  +077299999V020360190000199999999999999999-01391-01641999999REMAWY049XCS SA 0200 AUTO8 M M M M/-14/-16/0000/M/ M 94MM=
0063712230999992019011703004+51933-110700FM-12+077299999V0209999C000019999999N999999999-01421-01681999999ADDAA103000091REMSYN04071223 26/// /0000 11142 21168 333 60007=
0058712230999992019011703004+51930-110720SAO  +077299999V020360190000199999999999999999-01421-01681999999REMAWY049XCS SA 0300 AUTO8 M M M M/-14/-17/0000/M/ M 28MM=
0095712230999992019011704004+51930-110720SAO  +077299999V020360190000199999999999999999-01441-01721999999ADDAA101000431REMAWY072XCS SA 0400 AUTO8 M M M M/-14/-17/0000/M/0004 PCPN 0.4MM PAST HR M 42MM=
0062712230999992019011705004+51930-110720SAO  +077299999V020040190046199999999999999999-01451-01821999999REMAWY053XCS SA 0500 AUTO8 M M M M/-15/-18/0409/M/0004 M 52MM=
0132712230999992019011706004+51933-110700FM-12+077299999V0200201N004119999999N999999999-01631-01921999999ADDAA106000431AA224000831AZ141021KA1240M-01201KA2240N-01631REMSYN06471223 17/// /0208 11163 21192 69941 7//4/ 333 11120 21163 70008=
0062712230999992019011706004+51930-110720SAO  +077299999V020020190041199999999999999999-01631-01921999999REMAWY053XCS SA 0600 AUTO8 M M M M/-16/-19/0208/M/0004 M 32MM=
0058712230999992019011707004+51930-110720SAO  +077299999V020020190046199999999999999999-01711-02031999999REMAWY049XCS SA 0700 AUTO8 M M M M/-17/-20/0209/M/ M 13MM=
0058712230999992019011708004+51930-110720SAO  +077299999V020030190041199999999999999999-01701-02021999999REMAWY049XCS SA 0800 AUTO8 M M M M/-17/-20/0308/M/ M 02MM=
0063712230999992019011709004+51933-110700FM-12+077299999V0200501N004119999999N999999999-01681-01981999999ADDAA103000091REMSYN04071223 26/// /0508 11168 21198 333 60007=
0058712230999992019011709004+51930-110720SAO  +077299999V020050190041199999999999999999-01681-01981999999REMAWY049XCS SA 0900 AUTO8 M M M M/-17/-20/0508/M/ M 88MM=
0058712230999992019011710004+51930-110720SAO  +077299999V020060190041199999999999999999-01661-01971999999REMAWY049XCS SA 1000 AUTO8 M M M M/-17/-20/0608/M/ M 67MM=
0058712230999992019011711004+51930-110720SAO  +077299999V020040190041199999999999999999-01551-01961999999REMAWY049XCS SA 1100 AUTO8 M M M M/-16/-20/0408/M/ M 56MM=
0118712230999992019011712004+51933-110700FM-12+077299999V0200501N003619999999N999999999-01671-01961999999ADDAA106000091AA224000831KA1240M-01201KA2240N-01721REMSYN05871223 16/// /0507 11167 21196 60001 333 11120 21172 70008=
0058712230999992019011712004+51930-110720SAO  +077299999V020050190036199999999999999999-01671-01961999999REMAWY049XCS SA 1200 AUTO8 M M M M/-17/-20/0507/M/ M 76MM=
0058712230999992019011713004+51930-110720SAO  +077299999V020050190046199999999999999999-01701-02021999999REMAWY049XCS SA 1300 AUTO8 M M M M/-17/-20/0509/M/ M 02MM=
0058712230999992019011714004+51930-110720SAO  +077299999V020060190036199999999999999999-01731-01951999999REMAWY049XCS SA 1400 AUTO8 M M M M/-17/-20/0607/M/ M 35MM=
0063712230999992019011715004+51933-110700FM-12+077299999V0200601N005119999999N999999999-01741-02051999999ADDAA103000091REMSYN04071223 26/// /0610 11174 21205 333 60007=
0058712230999992019011715004+51930-110720SAO  +077299999V020060190051199999999999999999-01741-01951999999REMAWY049XCS SA 1500 AUTO8 M M M M/-17/-20/0610/M/ M 45MM=
0058712230999992019011716004+51930-110720SAO  +077299999V020070190046199999999999999999-01741-02041999999REMAWY049XCS SA 1600 AUTO8 M M M M/-17/-20/0709/M/ M 44MM=
0058712230999992019011717004+51930-110720SAO  +077299999V020090190051199999999999999999-01731-02041999999REMAWY049XCS SA 1700 AUTO8 M M M M/-17/-20/0910/M/ M 34MM=
0118712230999992019011718004+51933-110700FM-12+077299999V0200901N005119999999N999999999-01731-02051999999ADDAA106000091AA224000831KA1120M-01631KA2120N-01751REMSYN05871223 16/// /0910 11173 21205 60001 333 11163 21175 70008=
0058712230999992019011718004+51930-110720SAO  +077299999V020090190051199999999999999999-01731-01951999999REMAWY049XCS SA 1800 AUTO8 M M M M/-17/-20/0910/M/ M 35MM=
0058712230999992019011719004+51930-110720SAO  +077299999V020100190041199999999999999999-01721-02031999999REMAWY049XCS SA 1900 AUTO8 M M M M/-17/-20/1008/M/ M 23MM=
0058712230999992019011720004+51930-110720SAO  +077299999V020100190041199999999999999999-01681-01991999999REMAWY049XCS SA 2000 AUTO8 M M M M/-17/-20/1008/M/ M 89MM=
0063712230999992019011721004+51933-110700FM-12+077299999V0200901N004119999999N999999999-01671-01991999999ADDAA103000091REMSYN04071223 26/// /0908 11167 21199 333 60007=
0058712230999992019011721004+51930-110720SAO  +077299999V020090190041199999999999999999-01671-01991999999REMAWY049XCS SA 2100 AUTO8 M M M M/-17/-20/0908/M/ M 79MM=
0058712230999992019011722004+51930-110720SAO  +077299999V020090190046199999999999999999-01671-01991999999REMAWY049XCS SA 2200 AUTO8 M M M M/-17/-20/0909/M/ M 79MM=
0058712230999992019011723004+51930-110720SAO  +077299999V020090190057199999999999999999-01681-02001999999REMAWY049XCS SA 2300 AUTO8 M M M M/-17/-20/0911/M/ M 80MM=
0118712230999992019011800004+51933-110700FM-12+077299999V0200901N005719999999N999999999-01681-02001999999ADDAA106000091AA224000431KA1120M-01661KA2120N-01751REMSYN05871223 16/// /0911 11168 21200 60001 333 11166 21175 70004=
0058712230999992019011800004+51930-110720SAO  +077299999V020090190057199999999999999999-01681-02001999999REMAWY049XCS SA 0000 AUTO8 M M M M/-17/-20/0911/M/ M 80MM=
0058712230999992019011801004+51930-110720SAO  +077299999V020100190067199999999999999999-01721-02031999999REMAWY049XCS SA 0100 AUTO8 M M M M/-17/-20/1013/M/ M 23MM=
0058712230999992019011802004+51930-110720SAO  +077299999V020090190051199999999999999999-01761-02071999999REMAWY049XCS SA 0200 AUTO8 M M M M/-18/-21/0910/M/ M 67MM=
0063712230999992019011803004+51933-110700FM-12+077299999V0200901N005119999999N999999999-01781-02121999999ADDAA103000091REMSYN04071223 26/// /0910 11178 21212 333 60007=
0058712230999992019011803004+51930-110720SAO  +077299999V020090190051199999999999999999-01781-02121999999REMAWY049XCS SA 0300 AUTO8 M M M M/-18/-21/0910/M/ M 82MM=
0093712230999992019011804004+51930-110720SAO  +077299999V020100190067199999999999999999-01791-02121999999ADDOD130100931100REMAWY067XCS SA 0400 AUTO8 M M M M/-18/-21/1013/M/ PK WND 1018 0345Z M 92MM=
0093712230999992019011805004+51930-110720SAO  +077299999V020100190072199999999999999999-01791-02131999999ADDOD130100871100REMAWY067XCS SA 0500 AUTO8 M M M M/-18/-21/1014/M/ PK WND 1017 0451Z M 93MM=
0134712230999992019011806004+51933-110700FM-12+077299999V0201001N006719999999N999999999-01801-02151999999ADDAA106000091AA224000091KA1240M-01631KA2240N-01801REMSYN07471223 16/// /1013 11180 21215 60001 333 11163 21180 70000 555 31018 40040=
0093712230999992019011806004+51930-110720SAO  +077299999V020100190067199999999999999999-01801-02151999999ADDOD130100931100REMAWY067XCS SA 0600 AUTO8 M M M M/-18/-22/1013/M/ PK WND 1018 0556Z M 05MM=
0058712230999992019011807004+51930-110720SAO  +077299999V020100190067199999999999999999-01841-02221999999REMAWY049XCS SA 0700 AUTO8 M M M M/-18/-22/1013/M/ M 42MM=
0058712230999992019011808004+51930-110720SAO  +077299999V020110190062199999999999999999-01861-02311999999REMAWY049XCS SA 0800 AUTO8 M M M M/-19/-23/1112/M/ M 61MM=
0063712230999992019011809004+51933-110700FM-12+077299999V0201001N004619999999N999999999-01851-02351999999ADDAA103000091REMSYN04071223 26/// /1009 11185 21235 333 60007=
0058712230999992019011809004+51930-110720SAO  +077299999V020100190046199999999999999999-01851-02351999999REMAWY049XCS SA 0900 AUTO8 M M M M/-19/-24/1009/M/ M 55MM=
0058712230999992019011810004+51930-110720SAO  +077299999V020110190051199999999999999999-01861-02421999999REMAWY049XCS SA 1000 AUTO8 M M M M/-19/-24/1110/M/ M 62MM=
0058712230999992019011811004+51930-110720SAO  +077299999V020110190051199999999999999999-01871-02411999999REMAWY049XCS SA 1100 AUTO8 M M M M/-19/-24/1110/M/ M 71MM=
0118712230999992019011812004+51933-110700FM-12+077299999V0201101N005719999999N999999999-01871-02431999999ADDAA106000091AA224000091KA1240M-01631KA2240N-01871REMSYN05871223 16/// /1111 11187 21243 60001 333 11163 21187 70000=
0058712230999992019011812004+51930-110720SAO  +077299999V020110190057199999999999999999-01871-02431999999REMAWY049XCS SA 1200 AUTO8 M M M M/-19/-24/1111/M/ M 73MM=
0058712230999992019011813004+51930-110720SAO  +077299999V020110190057199999999999999999-01851-02491999999REMAWY049XCS SA 1300 AUTO8 M M M M/-19/-25/1111/M/ M 59MM=
0058712230999992019011814004+51930-110720SAO  +077299999V020100190057199999999999999999-02021-02491999999REMAWY049XCS SA 1400 AUTO8 M M M M/-20/-25/1011/M/ M 29MM=
0063712230999992019011815004+51933-110700FM-12+077299999V0201001N005719999999N999999999-02061-02501999999ADDAA103000091REMSYN04071223 26/// /1011 11206 21250 333 60007=
0058712230999992019011815004+51930-110720SAO  +077299999V020100190057199999999999999999-02061-02501999999REMAWY049XCS SA 1500 AUTO8 M M M M/-21/-25/1011/M/ M 60MM=
0058712230999992019011816004+51930-110720SAO  +077299999V020100190051199999999999999999-02031-02461999999REMAWY049XCS SA 1600 AUTO8 M M M M/-20/-25/1010/M/ M 36MM=
0058712230999992019011817004+51930-110720SAO  +077299999V020110190051199999999999999999-01961-02431999999REMAWY049XCS SA 1700 AUTO8 M M M M/-20/-24/1110/M/ M 63MM=
0118712230999992019011818004+51933-110700FM-12+077299999V0201001N005119999999N999999999-01881-02331999999ADDAA106000091AA224000091KA1120M-01801KA2120N-02071REMSYN05871223 16/// /1010 11188 21233 60001 333 11180 21207 70000=
0058712230999992019011818004+51930-110720SAO  +077299999V020100190051199999999999999999-01881-02331999999REMAWY049XCS SA 1800 AUTO8 M M M M/-19/-23/1010/M/ M 83MM=
0058712230999992019011819004+51930-110720SAO  +077299999V020110190051199999999999999999-01821-02301999999REMAWY049XCS SA 1900 AUTO8 M M M M/-18/-23/1110/M/ M 20MM=
0058712230999992019011820004+51930-110720SAO  +077299999V020120190046199999999999999999-01721-02181999999REMAWY049XCS SA 2000 AUTO8 M M M M/-17/-22/1209/M/ M 28MM=
0063712230999992019011821004+51933-110700FM-12+077299999V0201001N006219999999N999999999-01691-02111999999ADDAA103000091REMSYN04071223 26/// /1012 11169 21211 333 60007=
0058712230999992019011821004+51930-110720SAO  +077299999V020100190062199999999999999999-01691-02111999999REMAWY049XCS SA 2100 AUTO8 M M M M/-17/-21/1012/M/ M 91MM=
0058712230999992019011822004+51930-110720SAO  +077299999V020100190057199999999999999999-01671-02101999999REMAWY049XCS SA 2200 AUTO8 M M M M/-17/-21/1011/M/ M 70MM=
0058712230999992019011823004+51930-110720SAO  +077299999V020100190057199999999999999999-01741-02161999999REMAWY049XCS SA 2300 AUTO8 M M M M/-17/-22/1011/M/ M 46MM=
0118712230999992019011900004+51933-110700FM-12+077299999V0201101N005119999999N999999999-01751-02151999999ADDAA106000091AA224000091KA1120M-01671KA2120N-02071REMSYN05871223 16/// /1110 11175 21215 60001 333 11167 21207 70000=
0058712230999992019011900004+51930-110720SAO  +077299999V020110190051199999999999999999-01651-02151999999REMAWY049XCS SA 0000 AUTO8 M M M M/-17/-22/1110/M/ M 55MM=
0058712230999992019011901004+51930-110720SAO  +077299999V020110190051199999999999999999-01791-02171999999REMAWY049XCS SA 0100 AUTO8 M M M M/-18/-22/1110/M/ M 97MM=
0058712230999992019011902004+51930-110720SAO  +077299999V020120190046199999999999999999-01781-02161999999REMAWY049XCS SA 0200 AUTO8 M M M M/-18/-22/1209/M/ M 86MM=
0063712230999992019011903004+51933-110700FM-12+077299999V0201101N004119999999N999999999-01761-02141999999ADDAA103000091REMSYN04071223 26/// /1108 11176 21214 333 60007=
0058712230999992019011903004+51930-110720SAO  +077299999V020110190041199999999999999999-01761-02141999999REMAWY049XCS SA 0300 AUTO8 M M M M/-18/-21/1108/M/ M 64MM=
0058712230999992019011904004+51930-110720SAO  +077299999V020110190051199999999999999999-01751-02121999999REMAWY049XCS SA 0400 AUTO8 M M M M/-18/-21/1110/M/ M 52MM=
0058712230999992019011905004+51930-110720SAO  +077299999V020110190051199999999999999999-01741-02121999999REMAWY049XCS SA 0500 AUTO8 M M M M/-17/-21/1110/M/ M 42MM=
0118712230999992019011906004+51933-110700FM-12+077299999V0201001N004619999999N999999999-01731-02091999999ADDAA106000091AA224000091KA1240M-01671KA2240N-02071REMSYN05871223 16/// /1009 11173 21209 60001 333 11167 21207 70000=
0058712230999992019011906004+51930-110720SAO  +077299999V020110190046199999999999999999-01731-02091999999REMAWY049XCS SA 0600 AUTO8 M M M M/-17/-21/1109/M/ M 39MM=
0058712230999992019011907004+51930-110720SAO  +077299999V020110190051199999999999999999-01741-02091999999REMAWY049XCS SA 0700 AUTO8 M M M M/-17/-21/1110/M/ M 49MM=
0058712230999992019011908004+51930-110720SAO  +077299999V020100190051199999999999999999-01741-02081999999REMAWY049XCS SA 0800 AUTO8 M M M M/-17/-21/1010/M/ M 48MM=
0063712230999992019011909004+51933-110700FM-12+077299999V0201001N004119999999N999999999-01751-02071999999ADDAA103000091REMSYN04071223 26/// /1008 11175 21207 333 60007=
0058712230999992019011909004+51930-110720SAO  +077299999V020100190041199999999999999999-01651-02071999999REMAWY049XCS SA 0900 AUTO8 M M M M/-17/-21/1008/M/ M 57MM=
0058712230999992019011910004+51930-110720SAO  +077299999V020100190057199999999999999999-01731-01951999999REMAWY049XCS SA 1000 AUTO8 M M M M/-17/-20/1011/M/ M 35MM=
0058712230999992019011911004+51930-110720SAO  +077299999V020100190051199999999999999999-01761-02071999999REMAWY049XCS SA 1100 AUTO8 M M M M/-18/-21/1010/M/ M 67MM=
0118712230999992019011912004+51933-110700FM-12+077299999V0201001N007219999999N999999999-01741-02041999999ADDAA106000091AA224000091KA1240M-01671KA2240N-01791REMSYN05871223 16/// /1014 11174 21204 60001 333 11167 21179 70000=
0093712230999992019011912004+51930-110720SAO  +077299999V020100190072199999999999999999-01741-02041999999ADDOD130100871100REMAWY067XCS SA 1200 AUTO8 M M M M/-17/-20/1014/M/ PK WND 1017 1156Z M 44MM=
0093712230999992019011913004+51930-110720SAO  +077299999V020110190072199999999999999999-01711-02011999999ADDOD130100981100REMAWY067XCS SA 1300 AUTO8 M M M M/-17/-20/1114/M/ PK WND 1019 1214Z M 11MM=
0093712230999992019011914004+51930-110720SAO  +077299999V020120190072199999999999999999-01671-01961999999ADDOD130101081110REMAWY067XCS SA 1400 AUTO8 M M M M/-17/-20/1214/M/ PK WND 1121 1334Z M 76MM=
0063712230999992019011915004+51933-110700FM-12+077299999V0201101N006719999999N999999999-01681-01971999999ADDAA103000091REMSYN04071223 26/// /1113 11168 21197 333 60007=
