0125039620999991986010100004+52683-008917FM-12+0020EINN V0201901N00261220001CN0400001N9+00211+00081099881ADDAA106000191AG10001AY181061AY211061GA1011+006609099GF101991011031008001001001MD1510001+9999MW1011REMSYN017333   81922 92000
0075039620999991986010100304+52683-008917FM-15+0020EINN V0201701N00311220001CN0112001N1+00201+00101999999ADDAG11999GA1011+006609099MA1099701999999REMMET006NOSIG?EQDQ01+000000PRSWM2
0144039620999991986010101004+52683-008917SY-MT+0020EINN V0201201N00261220001CN0400001N1+00151+00051099771ADDAG11001GA1011+006609089GF101991011021008001001001MA1099701999999MD1810081+9999MW1001REMSYN017333   81822 92000MET006NOSIG?EQDQ01+000000PRSWM2
0075039620999991986010101304+52683-008917FM-15+0020EINN V0201401N00261220001CN0112001N1+00101+00001999999ADDAG11999GA1011+006609089MA1099701999999REMMET006NOSIG?EQDQ01+000000PRSWM2
0128039620999991986010102004+52683-008917SY-MT+0020EINN V0201201N00311220001CN0400001N1+00111+00001099701ADDAG11001GF100991001001999999001001MA1099701999999MD1810111+9999MW1001REMSYN011333   92000MET012CAVOK NOSIG?EQDQ01+000000PRSWM2
0065039620999991986010102304+52683-008917FM-15+0020EINN V0201201N00311999991CY0099001N1+00101+00001999999ADDAG12000MA1099591999999REMMET012CAVOK NOSIG?EQDQ01+000000PRSWM2
0128039620999991986010103004+52683-008917SY-MT+0020EINN V0201201N00461220001CN0400001N1+00101-00041099621ADDAG12000GF100991001001999999001001MA1099591999999MD1710251+9999MW1001REMSYN011333   92000MET012CAVOK NOSIG?EQDQ01+000000PRSWM2
0065039620999991986010103304+52683-008917FM-15+0020EINN V0201201N00571999991CY0099001N1+00101+00001999999ADDAG11999MA1099491999999REMMET012CAVOK NOSIG?EQDQ01+000000PRSWM2
0128039620999991986010104004+52683-008917SY-MT+0020EINN V0201101N00361220001CN0400001N1+00091-00021099511ADDAG12001GF100991001001999999001001MA1099491999999MD1710251+9999MW1001REMSYN011333   92000MET012CAVOK NOSIG?EQDQ01+000000PRSWM2
0065039620999991986010104304+52683-008917FM-15+0020EINN V0201201N00511999991CY0099001N1+00101+00001999999ADDAG12999MA1099391999999REMMET012CAVOK NOSIG?EQDQ01+000000PRSWM2
0150039620999991986010105004+52683-008917SY-MT+0020EINN V0201201N00671075001CN0300001N1+00141+00001099351ADDAG12001GA1031+027009049GF107991031001999999021061MA1099291999999MD1710351+9999MW1001REMSYN017333   83459 86270MET012CAVOK NOSIG?EQDQ01+000000PRSWM2
0065039620999991986010105304+52683-008917FM-15+0020EINN V0201201N00571999991CY0099001N1+00101+00001999999ADDAG12000MA1099191999999REMMET012CAVOK NOSIG?EQDQ01+000000PRSWM2
0204039620999991986010106004+52683-008917SY-MT+0020EINN V0201201N00511075001CN0300001N1+00171+00071099191ADDAA199000191AG10000GA1021+027009049GF108991021001999999021071IA1099IA2999-00209KA1120N+00051MA1099091999999MD1710431+9999MW1001REMSYN029333   20005 31102 82459 88270MET012CAVOK NOSIG?EQDQ01+000000PRSWM2
0065039620999991986010106304+52683-008917FM-15+0020EINN V0201101N00671999991CY0099001N1+00201+00101999999ADDAG12999MA1098981999999REMMET012CAVOK NOSIG?EQDQ01+000000PRSWM2
0150039620999991986010107004+52683-008917SY-MT+0020EINN V0201101N00721075001CN0300001N1+00211+00081098951ADDAG12001GA1031+027009049GF108991031001999999021071MA1098921999999MD1710561+9999MW1001REMSYN017333   83459 88270MET012CAVOK NOSIG?EQDQ01+000000PRSWM2
0065039620999991986010107304+52683-008917FM-15+0020EINN V0201101N00721999991CY0099001N1+00201+00101999999ADDAG12999MA1098821999999REMMET012CAVOK NOSIG?EQDQ01+000000PRSWM2
0150039620999991986010108004+52683-008917SY-MT+0020EINN V0201101N00721027001CN0300001N1+00261+00071098741ADDAG12999GA1061+027009049GF108991061001999999021071MA1098711999999MD1710611+9999MW1001REMSYN017333   86459 88270MET012CAVOK NOSIG?EQDQ01+000000PRSWM2
0118039620999991986010108304+52683-008917FM-15+0020EINN V0201201N00881015001CN0112001N1+00301+00101999999ADDAG12002GA1011+003009079GA2031+007509059GA3071+015009059MA1098611999999MW1601REMMET030TEMPO 8000       ?     5ST012?
0184039620999991986010109004+52683-008917SY-MT+0020EINN V0201101N00871003001CN0110001N1+00301+00171098501ADDAG12001AY161031AY221031GA1021+001809079GA2031+003009079GA3071+003909079GF108991081071001501999999MA1098511999999MD1710691+9999MW1601REMSYN023333   82706 83710 87713MET011TEMPO 7000?
0198039620999991986010110004+52683-008917SY-MT+0020EINN V0201001N01081006001CN0080001N1+00351+00231098271ADDAG12001AY161011AY261011GA1021+003009079GA2041+006009059GA3081+015009049GF108991061051002501021999MA1098211999999MD1710681+9999MW1651REMSYN023333   82710 84620 88550MET025TEMPO 6000 5ST008?? 0116?
0113039620999991986010110304+52683-008917FM-15+0020EINN V0201001N01131005401CN0080001N1+00401+00301999999ADDAG12999GA1011+003909079GA2051+005409079GA3081+015009049MA1098101999999MW1631REMMET025TEMPO 6000 5ST008?? 0116?
0198039620999991986010111004+52683-008917SY-MT+0020EINN V0201001N01181005101CN0070001N1+00411+00311098031ADDAG12001AY161021AY261021GA1021+003309079GA2031+005109079GA3081+015009049GF108991051061004501021999MA1098001999999MD1710711+9999MW1631REMSYN023333   82711 83717 88550MET025TEMPO 6000 5ST008?? 0116?
0221039620999991986010112004+52683-008917SY-MT+0020EINN V0201001N01081006001CN0120001N1+00481+00411097731ADDAA106009091AG10004AY161061AY221061GA1021+003609079GA2041+006009059GA3081+015009049GF108991061051004501021999MA1097701999999MD1710771+9999MW1631REMSYN035333   82712 84620 88550 97270 97370MET025TEMPO 6000 5ST008?? 0116?
0101039620999991986010112304+52683-008917FM-15+0020EINN V0201001N00931006001CN0080001N1+00501+00501999999ADDAG12999GA1031+004209079GA2071+006009059MA1097491999999MW1631REMMET029TEMPO      ?     6000 5ST008?
0197039620999991986010113004+52683-008917SY-MT+0020EINN V0201201N00931001801CN0035001N1+00571+00501097451ADDAG12001AY161011AY261011GA1061+001809079GA2081+003009079GF108991081071002501999999MA1097391999999MD1710821+9999MW1581OA149901491REMSYN023333   86706 88710 91129MET029GRADU      ?     9999 5ST015?
0123039620999991986010113304+52683-008917FM-15+0020EINN V0201701N00571001501CN0040001N1+00601+00501999999ADDAG12999GA1051+001509079GA2071+002709079MA1097391999999MW1581REMMET0519999 TO          ?     SW GRADU 9999 5ST015?? 0116?
0203039620999991986010114004+52683-008917SY-MT+0020EINN V0202901N00151220001CN0250001N1+00691+00581097351ADDAG12001AY161021AY251021GA1011+003009079GA2011+007509099GA3031+030009039GF104991021031004501031001MA1097291999999MD1610681+9999MW1211REMSYN047333   81710 81925 83360 91311 91323 91920 91903MET006NOSIG?
0094039620999991986010114304+52683-008917FM-15+0020EINN V0202301N00151015001CN0112001N1+00601+00601999999ADDAG11003GA1011+003009079GA2011+007509099GA3031+015009059MA1097291999999MW1211REMMET006NOSIG?
0157039620999991986010115004+52683-008917SY-MT+0020EINN V0202301N00511007201CN0150001N1+00601+00491097361ADDAG12003AY161031AY251031GA1031+002709079GA2071+007209099GF107991071031002501999999MA1097291999999MD1510371+9999MW1811REMSYN017333   83709 87924MET006NOSIG?
0078039620999991986010115304+52683-008917FM-15+0020EINN V0203101N00411024001CN0112001N1+00601+00401999999ADDAG11999GA1031+006009099GA2061+024009049MA1097291999999MW1251REMMET006NOSIG?
0157039620999991986010116004+52683-008917SY-MT+0020EINN V0202001N00261015001CN0250001N1+00601+00411097341ADDAG12999AY181011AY221011GA1041+007209099GA2031+015009059GF107991061031008001031999MA1097291999999MD1710111+9999MW1251REMSYN017333   84924 83650MET006NOSIG?
0176039620999991986010117004+52683-008917SY-MT+0020EINN V0201701N00261220001CN0300001N1+00531+00381097291ADDAG12999GA1011+007209099GA2031+015009059GF103991031031008001999001MA1097191999999MD1810061+9999MW1001REMSYN017333   81924 83650MET006NOSIG?EQDQ01+000000PRSWM2Q02    003SCOMCG
0184039620999991986010118004+52683-008917SY-MT+0020EINN V0201601N00361220001CN0400001N1+00441+00341097221ADDAA199013091AG10001AY181061AY261061GA1011+007209099GF101991011031008001001001KA1120M+00691MA1097191999999MD1710141+9999MW1021REMSYN017333   10069 81924MET006NOSIG?EQDQ01+000000PRSWM2
0138039620999991986010119004+52683-008917SY-MT+0020EINN V0201201N00361220001CN0400001N1+00411+00291097181ADDAG12001GA1011+007209099GF101991011031008001001001MA1097091999999MD1610161+9999MW1001REMSYN011333   81924MET006NOSIG?EQDQ01+000000PRSWM2
0075039620999991986010119304+52683-008917FM-15+0020EINN V0201001N00311006601CN0112001N1+00401+00301999999ADDAG12999GA1051+006609099MA1097091999999REMMET006NOSIG?EQDQ01+000000PRSWM2
0138039620999991986010120004+52683-008917SY-MT+0020EINN V0200901N00311220001CN0400001N1+00361+00311097111ADDAG12999GA1011+007209099GF101991011031008001001001MA1097091999999MD1710181+9999MW1001REMSYN011333   81924MET006NOSIG?EQDQ01+000000PRSWM2
0075039620999991986010120304+52683-008917FM-15+0020EINN V0201201N00461220001CN0112001N1+00401+00201999999ADDAG12000GA1011+007209099MA1097091999999REMMET006NOSIG?EQDQ01+000000PRSWM2
0138039620999991986010121004+52683-008917SY-MT+0020EINN V0201201N00461220001CN0400001N1+00391+00291097091ADDAG12000GA1011+007209099GF101991011031008001001001MA1096991999999MD1610131+9999MW1001REMSYN011333   81924MET006NOSIG?EQDQ01+000000PRSWM2
0075039620999991986010121304+52683-008917FM-15+0020EINN V0201001N00411220001CN0112001N1+00401+00301999999ADDAG12999GA1011+007209099MA1096991999999REMMET006NOSIG?EQDQ01+000000PRSWM2
0160039620999991986010122004+52683-008917SY-MT+0020EINN V0200901N00311027001CN0400001N1+00401+00331097091ADDAG12001GA1011+007209089GA2051+027009049GF107991011021008001071999MA1096991999999MD1710091+9999MW1001REMSYN017333   81824 86459MET006NOSIG?EQDQ01+000000PRSWM2
0091039620999991986010122304+52683-008917FM-15+0020EINN V0200701N00261012001CN0112001N1+00401+00401999999ADDAG12999GA1011+007209089GA2051+012009059MA1096991999999REMMET006NOSIG?EQDQ01+000000PRSWM2
0160039620999991986010123004+52683-008917SY-MT+0020EINN V0201001N00361027001CN0300001N1+00441+00341097081ADDAG12001GA1031+012009059GA2061+027009049GF107991031051012501071999MA1096991999999MD1710031+9999MW1001REMSYN017333   83640 86459MET006NOSIG?EQDQ01+000000PRSWM2
0075039620999991986010123304+52683-008917FM-15+0020EINN V0201001N00261220001CN0112001N1+00401+00301999999ADDAG12000GA1011+012009059MA1096991999999REMMET006NOSIG?EQDQ01+000000PRSWM2
0149039620999991986010200004+52683-008917SY-MT+0020EINN V0203201N00261220001CN0300001N1+00311+00181097081ADDAA106999929AG10000GA1011+012009059GF102991011051012501031001MA1096991999999MD1710011+9999MW1001REMSYN011333   81640MET006NOSIG?EQDQ01+000000PRSWM2
0075039620999991986010200304+52683-008917FM-15+0020EINN V0203601N00261220001CN0112001N1+00201+00101999999ADDAG11999GA1011+012009059MA1096991999999REMMET006NOSIG?EQDQ01+000000PRSWM2
0138039620999991986010201004+52683-008917SY-MT+0020EINN V0203501N00211220001CN0250001N1+00121+00041097101ADDAG11001GA1021+012009059GF103991021051012501041001MA1096991999999MD1310011+9999MW1001REMSYN011333   82640MET006NOSIG?EQDQ01+000000PRSWM2
0075039620999991986010201304+52683-008917FM-15+0020EINN V0203601N00361220001CN0112001N1+00101+00001999999ADDAG11999GA1011+012009059MA1097091999999REMMET006NOSIG?EQDQ01+000000PRSWM2
0138039620999991986010202004+52683-008917SY-MT+0020EINN V0203501N00261220001CN0250001N1+00081-00031097151ADDAG12001GA1021+010509059GF103991021051012501031001MA1097091999999MD1310071+9999MW1001REMSYN011333   82635MET006NOSIG?EQDQ01+000000PRSWM2
0075039620999991986010202304+52683-008917FM-15+0020EINN V0203501N00261010501CN0112001N1+00101+00001999999ADDAG12000GA1071+010509059MA1097091999999REMMET006NOSIG?EQDQ01+000000PRSWM2
0138039620999991986010203004+52683-008917SY-MT+0020EINN V0203501N00311010801CN0250001N1+00121+00061097231ADDAG12000GA1051+010809059GF106991051051012501031999MA1097191999999MD1310151+9999MW1001REMSYN011333   85636MET006NOSIG?EQDQ01+000000PRSWM2
0076039620999991986010203304+52683-008917FM-15+0020EINN V0203401N00261010201CN0112001N1+00101+00101999999ADDAG12999GA1051+010209059MA1097191999999REMMET007NO SIG?EQDQ01+000000PRSWM2
0139039620999991986010204004+52683-008917SY-MT+0020EINN V0203301N00311010201CN0250001N1+00141+00081097281ADDAG12001GA1051+010209059GF107991051051012501031999MA1097191999999MD1210181+9999MW1001REMSYN011333   85634MET007NO SIG?EQDQ01+000000PRSWM2
0076039620999991986010204304+52683-008917FM-15+0020EINN V0203401N00361010201CN0112001N1+00101+00001999999ADDAG12999GA1051+010209059MA1097291999999REMMET007NO SIG?EQDQ01+000000PRSWM2
0139039620999991986010205004+52683-008917SY-MT+0020EINN V0203401N00411010201CN0250001N1+00111+00031097381ADDAG12001GA1051+010209059GF106991051051012501031999MA1097291999999MD1210231+9999MW1001REMSYN011333   85634MET007NO SIG?EQDQ01+000000PRSWM2
0079039620999991986010205304+52683-008917FM-15+0020EINN V0203501N00411010201CN0008001N1+00001+00001999999ADDAG12000GA1031+000309079GA2031+010209059MA1097391999999MW1461REMMET007NO SIG?
0222039620999991986010206004+52683-008917SY-MT+0020EINN V0203401N00361000301CN0007001N1+00051-00011097471ADDAA199999929AG10000AY141061AY211061GA1051+000309079GA2031+010209059GF106991061061000251999999IA1099IA2999-00209KA1120N+00021MA1097391999999MD1310241+9999MW1461REMSYN035333   20002 31102 85701 83634 90555MET011TEMPO 4000?
0084039620999991986010206304+52683-008917FM-15+0020EINN V0203601N00261006001CN0030001N1+00001-00101999999ADDAG12999GA1041+000609079GA2051+006009059MA1097491999999MW1101REMMET012TEMPO 0700??
0175039620999991986010207004+52683-008917SY-MT+0020EINN V0203501N00411000601CN0030001N1+00041-00071097581ADDAG12001AY141011AY221011GA1051+000609079GA2031+007509059GF107991071061000751999999MA1097491999999MD1210301+9999MW1101MW2281REMSYN023333   85702 83625 90556MET012TEMPO 0700??
0184039620999991986010208004+52683-008917SY-MT+0020EINN V0203501N00511012001CN0160001N1+00071-00071097711ADDAG12999AY121021AY221021GA1031+000609079GA2041+012009059GF105991051051000751001001MA1097701999999MD1210331+9999MW1101REMSYN017333   83702 84640MET014GRADU 4SC020??EQDQ01+000000PRSWM2
0168039620999991986010209004+52683-008917SY-MT+0020EINN V0203501N00261000301CN0004001N1+00051+00021097891ADDAG12000AY141031AY221031GA1071+000309079GF107991071061000251999999MA1097801999999MD1210421+9999MW1461REMSYN017333   87701 90458MET033TEMPO 3000 3ST002 5ST010 ?? 0116?
0182039620999991986010210004+52683-008917SY-MT+0020EINN V0203501N00511003001CN0008001N1+00081-00031097981ADDAG12001AY141011AY241011GA1021+000609079GA2051+003009079GF106991061061000751999999MA1097901999999MD1210401+9999MW1421REMSYN023333   82702 85710 97356MET025GRADU 9999 2CU020?? 0116?
0214039620999991986010211004+52683-008917SY-MT+0020EINN V0203401N00571001201CN0022001N1+00181+00081098151ADDAG12001AY141021AY221021GA1021+000609079GA2041+001209079GA3051+002709079GF107991071061000751001021MA1098101999999MD1210441+9999MW1101MW2281REMSYN029333   82702 84704 85709 97230MET0293000 TO SE GRADU 9000 4CU018?
0118039620999991986010211304+52683-008917FM-15+0020EINN V0203601N00511001801CN0050001N1+00301+00201999999ADDAG12001GA1021+000909079GA2031+001809079GA3051+004509079MA1098211999999MW1501REMMET030GRADU 9000       ?     4ST018?
0209039620999991986010212004+52683-008917SY-MT+0020EINN V0203401N00361002401CN0070001N1+00331+00281098251ADDAA106000191AG10000AY151061AY221061GA1021+001209079GA2031+002409079GA3051+003609079GF107991071061001501999999MA1098211999999MD1210361+9999MW1201REMSYN023333   82704 83708 85712MET025GRADU 9000 4ST018?? 0116?
0193039620999991986010213004+52683-008917SY-MT+0020EINN V0203601N00511003301CN0080001N1+00401+00301098351ADDAG12001AY121011AY221011GA1021+001809079GA2051+003309079GA3061+005109079GF107991071061002501999999MA1098311999999MD1210371+9999MW1101REMSYN023333   82706 85711 86717MET020GRADU 5CU018?? 0116?
0164039620999991986010214004+52683-008917SY-MT+0020EINN V0203601N00461003901CN0100001N1+00461+00291098481ADDAG12001AY121021AY221021GA1031+002409079GA2061+003909079GF107991071061002501999999MA1098411999999MD1210331+9999MW1101REMSYN017333   83708 86713MET013GRADU 5ST020?
0157039620999991986010215004+52683-008917SY-MT+0020EINN V0200101N00671004501CN0150001N1+00451+00281098591ADDAG12000AY121031AY221031GA1031+003009079GA2071+004509079GF107991071061004501999999MA1098511999999MD1210341+9999MW1101REMSYN017333   83710 87715MET006NOSIG?
0157039620999991986010216004+52683-008917SY-MT+0020EINN V0203601N00621006001CN0200001N1+00431+00281098751ADDAG12001AY151011AY221011GA1031+003609079GA2071+006009059GF107991071051004501999999MA1098711999999MD1210401+9999MW1201REMSYN017333   83712 87620MET006NOSIG?
0157039620999991986010217004+52683-008917SY-MT+0020EINN V0203601N00621007501CN0200001N1+00431+00281098881ADDAG12001AY151021AY221021GA1031+004509079GA2081+007509059GF108991081051004501999999MA1098821999999MD1210401+9999MW1201REMSYN017333   83715 88625MET006NOSIG?
0078039620999991986010217304+52683-008917FM-15+0020EINN V0203501N00621007201CN0112001N1+00501+00301999999ADDAG12001GA1031+004509079GA2081+007209059MA1098921999999MW1201REMMET006NOSIG?
0206039620999991986010218004+52683-008917SY-MT+0020EINN V0200101N00621006601CN0200001N1+00471+00271099011ADDAA199000191AG10000AY151061AY221061GA1031+003909079GA2081+006609059GF108991081051004501999999KA1120M+00481MA1098981999999MD1210421+9999MW1021REMSYN023333   10048 83713 88622MET006NOSIG?EQDQ01+000000PRSWM2
0091039620999991986010218304+52683-008917FM-15+0020EINN V0200101N00721006001CN0112001N1+00501+00301999999ADDAG12999GA1031+003909079GA2081+006009059MA1098981999999REMMET006NOSIG?EQDQ01+000000PRSWM2
0196039620999991986010219004+52683-008917SY-MT+0020EINN V0200101N00571003301CN0150001N1+00471+00251099141ADDAG12001AY161011AY221011GA1021+001809079GA2041+003309079GA3081+005709079GF108991081061001501999999MA1099091999999MD1210391+9999MW1601OA149901241REMSYN029333   82706 84711 88719 91124MET006NOSIG?
0078039620999991986010219304+52683-008917FM-15+0020EINN V0200101N00881005701CN0112001N1+00501+00201999999ADDAG12999GA1021+003009079GA2071+005709079MA1099191999999MW1601REMMET006NOSIG?
0174039620999991986010220004+52683-008917SY-MT+0020EINN V0200101N00721006001CN0150001N1+00481+00261099331ADDAG12001AY161021AY261021GA1021+003009079GA2081+006009059GF108991081051004501999999MA1099291999999MD1210451+9999MW1611OA149901491REMSYN023333   82710 88620 91129MET006NOSIG?
0078039620999991986010220304+52683-008917FM-15+0020EINN V0200201N00771006001CN0112001N1+00501+00201999999ADDAG12007GA1021+003009079GA2081+006009059MA1099391999999MW1611REMMET006NOSIG?
0174039620999991986010221004+52683-008917SY-MT+0020EINN V0200201N00721007201CN0150001N1+00501+00251099511ADDAG12002AY161031AY261031GA1021+003009079GA2081+007209059GF108991081051004501999999MA1099491999999MD1210501+9999MW1611OA149901241REMSYN023333   82710 88624 91124MET006NOSIG?
0078039620999991986010221304+52683-008917FM-15+0020EINN V0200201N00721007501CN0112001N1+00501+00301999999ADDAG12999GA1031+004509079GA2081+007509059MA1099491999999MW1211REMMET006NOSIG?
0210039620999991986010222004+52683-008917SY-MT+0020EINN V0200301N00721027001CN0250001N1+00511+00181099651ADDAG12001AY161011AY221011GA1011+003009079GA2041+007509059GA3061+027009049GF107991051051004501071999GJ100009MA1099591999999MD1210511+9999MW1211OA149901241REMSYN035333   81710 84625 86459 91124 94000MET006NOSIG?
0115039620999991986010222304+52683-008917FM-15+0020EINN V0200201N00721027001CN0112001N1+00501+00201999999ADDAG12999GA1011+003009079GA2041+007209059GA3071+027009049MA1099701999999OC101241REMMET006NOSIG?EQDQ01+000000PRSWM2
0177039620999991986010223004+52683-008917SY-MT+0020EINN V0200201N00671027001CN0250001N1+00481+00201099831ADDAG12001GA1041+006909059GA2061+027009049GF107991041051008001071999MA1099801999999MD1210501+9999MW1001OA149901241REMSYN023333   84623 86459 91124MET006NOSIG?EQDQ01+000000PRSWM2
0091039620999991986010223304+52683-008917FM-15+0020EINN V0203501N00361027001CN0112001N1+00501+00201999999ADDAG12000GA1031+006909059GA2061+027009049MA1099901999999REMMET006NOSIG?EQDQ01+000000PRSWM2
0165039620999991986010300004+52683-008917SY-MT+0020EINN V0203601N00571220001CN0200001N1+00271+00111100011ADDAA106000391AG10001AY161061AY221061GA1021+007209059GF104991021051008001031001MA1099701999999MD1210491+9999MW1011REMSYN011333   82624MET006NOSIG?EQDQ01+000000PRSWM2
0076039620999991986010300304+52683-008917FM-15+0020EINN V0200101N00571220001CN0112001N1+00201+00101999999ADDAG11999GA1021+007209059MA1100001999999REMMET007ONOSIG?EQDQ01+000000PRSWM2
0138039620999991986010301004+52683-008917SY-MT+0020EINN V0203601N00311220001CN0200001N1+00161+00081100151ADDAG11001GA1011+012009059GF101991011051012501031001MA1100101999999MD1210501+9999MW1001REMSYN011333   81640MET006NOSIG?EQDQ01+000000PRSWM2
0075039620999991986010301304+52683-008917FM-15+0020EINN V0203401N00361220001CN0112001N1+00101+00001999999ADDAG11999GA1011+012009059MA1100201999999REMMET006NOSIG?EQDQ01+000000PRSWM2
0138039620999991986010302004+52683-008917SY-MT+0020EINN V0203501N00311220001CN0180001N1+00121+00011100311ADDAG11001GA1011+012009059GF101991011051012501001001MA1100311999999MD1210471+9999MW1001REMSYN011333   81640MET006NOSIG?EQDQ01+000000PRSWM2
0075039620999991986010302304+52683-008917FM-15+0020EINN V0203601N00361220001CN0112001N1+00101+00001999999ADDAG11000GA1011+012009059MA1100311999999REMMET006NOSIG?EQDQ01+000000PRSWM2
0144039620999991986010303004+52683-008917SY-MT+0020EINN V0200101N00411220001CN0180001N1+00101-00071100441ADDAG12000GA1011+012009059GF101991011051012501001001MA1100411999999MD1210431+9999MW1001REMSYN017333   81640 92000MET006NOSIG?EQDQ01+000000PRSWM2
0075039620999991986010303304+52683-008917FM-15+0020EINN V0200201N00461220001CN0112001N1+00101-00101999999ADDAG11999GA1011+012009059MA1100511999999REMMET006NOSIG?EQDQ01+000000PRSWM2
0138039620999991986010304004+52683-008917SY-MT+0020EINN V0200401N00361220001CN0200001N1+00131-00131100551ADDAG12001GA1011+012009059GF101991011051012501001001MA1100511999999MD1210391+9999MW1001REMSYN011333   81640MET006NOSIG?EQDQ01+000000PRSWM2
0075039620999991986010304304+52683-008917FM-15+0020EINN V0200101N00261220001CN0112001N1+00101-00101999999ADDAG11999GA1011+012009059MA1100611999999REMMET006NOSIG?EQDQ01+000000PRSWM2
0144039620999991986010305004+52683-008917SY-MT+0020EINN V0200201N00211220001CN0160001N1+00031-00151100691ADDAG12001GA1011+012009059GF101991011051012501001001MA1100611999999MD1210381+9999MW1001REMSYN017333   81640 92000MET006NOSIG?EQDQ01+000000PRSWM2
0075039620999991986010305304+52683-008917FM-15+0020EINN V0203501N00311220001CN0112001N1+00001-00201999999ADDAG12000GA1011+012009059MA1100711999999REMMET006NOSIG?EQDQ01+000000PRSWM2
0198039620999991986010306004+52683-008917SY-MT+0020EINN V0203501N00361220001CN0160001N1+00001-00151100831ADDAA199000391AG10000GA1011+012009059GF101991011051012501001001IA1099IA2999-00409KA1120N-00021MA1100811999999MD1210391+9999MW1001REMSYN029333   21002 31104 81640 92011MET006NOSIG?EQDQ01+000000PRSWM2
0145039620999991986010307004+52683-008917SY-MT+0020EINN V0200101N00261220001CN0200001N1-00031-00181100871ADDAG12001GA1011+012009059GF101991011051012501001001MA1100811999999MD1110321+9999MW1001REMSYN017333   81640 92011MET007NO SIG?EQDQ01+000000PRSWM2
0145039620999991986010308004+52683-008917SY-MT+0020EINN V0203401N00261220001CN0200001N1-00061-00241101011ADDAG12999GA1011+012009059GF101991011051012501001001MA1101021999999MD1210321+9999MW1001REMSYN017333   81640 92011MET007NO SIG?EQDQ01+000000PRSWM2
0076039620999991986010308304+52683-008917FM-15+0020EINN V0203301N00211220001CN0112001N1-00101-00201999999ADDAG12000GA1011+012009059MA1101021999999REMMET007NO SIG?EQDQ01+000000PRSWM2
0145039620999991986010309004+52683-008917SY-MT+0020EINN V0203301N00151220001CN0150001N1-00031-00141101121ADDAG12000GA1021+013509059GF103991021051012501001011MA1101081999999MD1310291+9999MW1001REMSYN017333   82645 92011MET007NO SIG?EQDQ01+000000PRSWM2
0150039620999991986010310004+52683-008917SY-MT+0020EINN V0203401N00211015001CN0150001N1+00011-00101101241ADDAG12001GA1071+015009059GF107991071051017501999999MA1101191999999MD1210371+9999MW1001REMSYN017333   87650 92000MET012CAVOK NOSIG?EQDQ01+000000PRSWM2
0144039620999991986010311004+52683-008917SY-MT+0020EINN V0209991C00001030001CN0150001N1+00131-00011101281ADDAG12001GA1041+018009059GF106991041051017501031021MA1101191999999MD1110271+9999MW1001REMSYN011333   84656MET012CAVOK NOSIG?EQDQ01+000000PRSWM2
0209039620999991986010312004+52683-008917SY-MT+0020EINN V0202601N00101075001CN0080001N1+00271+00081101311ADDAA106999929AG10000AY111061AY211061GA1031+018009059GA2071+075009029GF107991031051017501031061MA1101291999999MD1110191+9999MW1101REMSYN035333   83656 87275 97165 97265 97465MET029VIS 10KM NE SE NW GRADU 9999?
0185039620999991986010313004+52683-008917SY-MT+0020EINN V0201901N00101018001CN0100001N1+00281+00151101351ADDAG12001AY121011AY221011GA1071+018009059GF107991071051017501999081MD1210111+9999MW1101REMSYN035333   87656 86275 97165 97265 97465MET028CAVOK 10BR 03/02 1013 NOSIG?EQDQ01+000000PRSWM2
0184039620999991986010314004+52683-008917SY-MT+0020EINN V0202101N00151015001CN0100001N1+00321+00111101351ADDAG12001AY121021AY221021GA1051+015009059GF107991051051017501999021MA1101291999999MD1110071+9999MW1101REMSYN035333   85650 84070 97165 97265 97465MET012CAVOK NOSIG?EQDQ01+000000PRSWM2
0150039620999991986010315004+52683-008917SY-MT+0020EINN V0201901N00151030001CN0200001N1+00311+00071101391ADDAG12000GA1011+015009059GF106991011051017501031021MA1101291999999MD1210081+9999MW1001REMSYN017333   81650 85070MET012CAVOK NOSIG?EQDQ01+000000PRSWM2
0065039620999991986010315304+52683-008917FM-15+0020EINN V0201801N00151999991CY0099001N1+00301+00001999999ADDAG12999MA1101291999999REMMET012CAVOK NOSIG?EQDQ01+000000PRSWM2
0150039620999991986010316004+52683-008917SY-MT+0020EINN V0202001N00211220001CN0160001N1+00221+00031101421ADDAG12001GA1011+015009059GF103991011051017501031021MA1101391999999MD1310071+9999MW1001REMSYN017333   81650 83070MET012CAVOK NOSIG?EQDQ01+000000PRSWM2
0065039620999991986010316304+52683-008917FM-15+0020EINN V0202001N00151999991CY0099001N1+00201+00001999999ADDAG12999MA1101391999999REMMET012CAVOK NOSIG?EQDQ01+000000PRSWM2
0156039620999991986010317004+52683-008917SY-MT+0020EINN V0201801N00211220001CN0200001N1+00191-00091101461ADDAG12001GA1011+015009059GF104991011051017501031021MA1101391999999MD1210111+9999MW1001REMSYN023333   81650 84360 92000MET012CAVOK NOSIG?EQDQ01+000000PRSWM2
0065039620999991986010317304+52683-008917FM-15+0020EINN V0201701N00211999991CY0099001N1+00201-00101999999ADDAG12000MA1101391999999REMMET012CAVOK NOSIG?EQDQ01+000000PRSWM2
0186039620999991986010318004+52683-008917SY-MT+0020EINN V0201301N00151075001CN0150001N1+00171-00051101471ADDAA199999929AG10000GA1031+027009039GF105991031001999999031021KA1120M+00391MA1101391999999MD1110081+9999MW1001REMSYN029333   10039 83359 83075 92000MET012CAVOK NOSIG?EQDQ01+000000PRSWM2
0066039620999991986010318304+52683-008917FM-15+0020EINN V0201301N00261999991CY0099001N1+99999+99999999999ADDAG12999REMMET028CAVOK 10BR 01/00 1014 NOSIG?EQDQ01+000000PRSWM2
0172039620999991986010319004+52683-008917SY-MT+0020EINN V0201301N00261220001CN0120001N1+00131-00011101501ADDAG12001AY101011AY201011GA1011+027009039GF103991031001999999031021MA1101391999999MD1210081+9999MW1101REMSYN023333   81359 83070 92000MET012CAVOK NOSIG?EQDQ01+000000PRSWM2
0062039620999991986010319304+52683-008917FM-15+0020EINN V0201201N00311220001CN0080001N1+00101+00001999999ADDAG12999GA1011+027009039MA1101491999999MW1101REMMET006NOSIG?
0119039620999991986010320004+52683-008917SY-MT+0020EINN V0201101N00411220001CN0080001N1+00101-00041101491ADDAG12999AY101021AY201021GF100991001001999999001001MA1101391999999MD1010031+9999MW1101REMSYN011333   92010MET006NOSIG?
0046039620999991986010320304+52683-008917FM-15+0020EINN V0201301N00361220001CN0080001N1+00101-00101999999ADDAG12000MA1101391999999MW1101REMMET006NOSIG?
0119039620999991986010321004+52683-008917SY-MT+0020EINN V0201201N00411220001CN0070001N1+00081-00091101471ADDAG12000AY111031AY211031GF100991001001999999001001MA1101391999999MD1010001+9999MW1101REMSYN011333   92010MET006NOSIG?
0062039620999991986010321304+52683-008917FM-15+0020EINN V0201201N00361036001CN0112001N1+00101-00101999999ADDAG12999GA1071+036009049MA1101391999999MW1101REMMET006NOSIG?
0141039620999991986010322004+52683-008917SY-MT+0020EINN V0201301N00361036001CN0120001N1+00061-00141101451ADDAG12001AY121011AY211011GA1071+036009039GF107991071001999999071999MA1101391999999MD1710051+9999MW1101REMSYN017333   87362 92010MET006NOSIG?
0062039620999991986010322304+52683-008917FM-15+0020EINN V0201201N00411036001CN0112001N1+00101-00101999999ADDAG12999GA1061+036009039MA1101391999999MW1101REMMET006NOSIG?
0141039620999991986010323004+52683-008917SY-MT+0020EINN V0201101N00311036001CN0140001N1+00101-00131101391ADDAG12001AY121021AY221021GA1071+036009039GF107991071001999999071999MA1101291999999MD1710101+9999MW1101REMSYN017333   87362 92010MET006NOSIG?
0062039620999991986010323304+52683-008917FM-15+0020EINN V0201101N00361036001CN0112001N1+00101-00101999999ADDAG12000GA1071+036009039MA1101291999999MW1101REMMET006NOSIG?
0152039620999991986010400004+52683-008917SY-MT+0020EINN V0201301N00461036001CN0120001N1+00131-00071101321ADDAA106999929AG10000AY121061AY211061GA1071+036009039GF107991071001999999071999MA1101291999999MD1710151+9999MW1101REMSYN017333   87362 92010MET006NOSIG?
0065039620999991986010400304+52683-008917FM-15+0020EINN V0201401N00571999991CY0099001N1+00201+00001999999ADDAG11999MA1101191999999REMMET012CAVOK NOSIG?EQDQ01+000000PRSWM2
0144039620999991986010401004+52683-008917SY-MT+0020EINN V0201501N00571036001CN0250001N1+00251+00011101231ADDAG11999GA1081+036009049GF108991081001999999021999MA1101191999999MD1810221+9999MW1001REMSYN011333   88462MET012CAVOK NOSIG?EQDQ01+000000PRSWM2
0065039620999991986010401304+52683-008917FM-15+0020EINN V0201501N00621999991CY0099001N1+00301+00001999999ADDAG11999MA1101081999999REMMET012CAVOK NOSIG?EQDQ01+000000PRSWM2
0144039620999991986010402004+52683-008917SY-MT+0020EINN V0201501N00571036001CN0200001N1+00311+00041101141ADDAG11999GA1081+036009049GF108991081001999999021999MA1101081999999MD1710251+9999MW1001REMSYN011333   88462MET012CAVOK NOSIG?EQDQ01+000000PRSWM2
0103039620999991986010402304+52683-008917FM-15+0020EINN V0201501N00621015001CN0112001N1+00401+00101999999ADDAG12002GA1061+015009059GA2081+030009049MA1101021999999MW1601REMMET031GRADU 4ST012 7SC020          ??
0182039620999991986010403004+52683-008917SY-MT+0020EINN V0201501N00511015001CN0150001N1+00401+00141101041ADDAG12001AY161031AY221031GA1061+015009059GA2081+030009049GF108991061051012501021999MA1101021999999MD1710281+9999MW1601REMSYN017333   86650 88460MET031GRADU 4ST012 7SC020          ??
0100039620999991986010403304+52683-008917FM-15+0020EINN V0201601N00671027001CN0112001N1+00501+00201999999ADDAG12001GA1031+013509059GA2081+027009049MA1100911999999MW1611REMMET028GRADU 4ST012 7SC020 ?? 0116?
0200039620999991986010404004+52683-008917SY-MT+0020EINN V0201601N00671013501CN0120001N1+00461+00241100901ADDAG12001AY161011AY261011GA1021+007509059GA2051+013509059GA3081+024009049GF108991061051008001071999MA1100811999999MD1710331+9999MW1611REMSYN023333   82625 85645 88458MET027GRADU 4ST012 7SC020?? 0116?
0115039620999991986010404304+52683-008917FM-15+0020EINN V0201601N00721009001CN0112001N1+00501+00301999999ADDAG12999GA1021+004509079GA2031+009009059GA3081+015009049MA1100811999999MW1631REMMET027GRADU 4ST012 7SC020?? 0116?
0178039620999991986010405004+52683-008917SY-MT+0020EINN V0201701N00771015001CN0080001N1+00501+00351100771ADDAG12001AY161021AY261021GA1031+004509079GA2081+015009049GF108991031071004501021999MA1100711999999MD1710371+9999MW1631REMSYN017333   83715 88550MET027GRADU 4ST008 6ST012?? 0116?
0120039620999991986010405304+52683-008917FM-15+0020EINN V0201601N00721009001CN0080001N1+00501+00401999999ADDAG12019GA1021+004509079GA2031+009009059GA3081+015009049MA1100711999999MW1631REMMET032GRADU 6000 4ST008 6ST012?? 0116?
0262039620999991986010406004+52683-008917SY-MT+0020EINN V0201701N00821009001CN0120001N1+00561+00451100651ADDAA199005091AG10004AY161061AY221061GA1031+004209079GA2031+009009059GA3081+015009049GF108991051061004501021999IA1099IA2999-00109KA1120N+00051MA1100611999999MD1710391+9999MW1631REMSYN035333   20005 31101 83714 83630 88550MET035GRADU 8000 4ST012 7SC020 06?? 0116?
0120039620999991986010406304+52683-008917FM-15+0020EINN V0201701N00881009901CN0112001N1+00601+00501999999ADDAG12999GA1021+003609079GA2041+009909059GA3081+015009049MA1100511999999MW1611REMMET032GRADU 8000 4ST012 7SC020?? 0116?
0205039620999991986010407004+52683-008917SY-MT+0020EINN V0201701N00821015001CN0120001N1+00621+00481100531ADDAG12999AY161011AY261011GA1011+003009079GA2031+009909059GA3081+015009049GF108991031051004501021999MA1100511999999MD1710371+9999MW1611REMSYN023333   81710 83633 88550MET032GRADU 8000 4ST012 7SC020?? 0116?
0205039620999991986010408004+52683-008917SY-MT+0020EINN V0201801N00721018001CN0150001N1+00651+00541100451ADDAG12001AY161021AY261021GA1011+004509079GA2041+012009059GA3081+018009049GF108991041051004501021999MA1100411999999MD1710321+9999MW1611REMSYN023333   81715 84640 88556MET032GRADU 8000 4ST012 7SC020?? 0116?
0120039620999991986010408304+52683-008917FM-15+0020EINN V0201801N00671009001CN0112001N1+00701+00601999999ADDAG12007GA1031+003909079GA2041+009009059GA3081+018009049MA1100411999999MW1611REMMET032GRADU 8000 4ST012 7SC020?? 0116?
0205039620999991986010409004+52683-008917SY-MT+0020EINN V0201701N00571024001CN0150001N1+00681+00591100391ADDAG12002AY161031AY261031GA1011+004509079GA2041+012009059GA3081+024009049GF108991051051004501021999MA1100311999999MD1610261+9999MW1611REMSYN023333   81715 84640 88458MET032GRADU 8000 4ST012 7SC020?? 0116?
0198039620999991986010410004+52683-008917SY-MT+0020EINN V0201701N00511024001CN0150001N1+00741+00611100311ADDAG12001AY161011AY261011GA1021+002409079GA2041+006009059GA3081+024009049GF108991041061002501071999MA1100311999999MD1710221+9999MW1611REMSYN023333   82708 84620 88458MET025TEMPO 7000 5ST010?? 0116?
0176039620999991986010411004+52683-008917SY-MT+0020EINN V0201701N00511002401CN0060001N1+00771+00681100191ADDAG12001AY161021AY251021GA1051+002409079GA2081+004509079GF108991081061002501999999MA1100101999999MD1710251+9999MW1511REMSYN017333   85708 88715MET025GRADU 8000 5ST012?? 0116?
0168039620999991986010412004+52683-008917SY-MT+0020EINN V0201901N00571002101CN0080001N1+00861+00781100031ADDAA106002091AG10001AY161061AY251061GA1051+002109079GA2081+003309079GF108991081061002501999999MA1100001999999MD1710351+9999MW1511REMSYN017333   85707 88711MET006NOSIG?
0097039620999991986010412304+52683-008917FM-15+0020EINN V0201901N00511002101CN0070001N1+00901+00801999999ADDAG12999GA1051+002109079GA2081+003609079MA1099901999999MW1511REMMET025GRADU 9999 5ST015?? 0116?
0241039620999991986010413004+52683-008917SY-MT+0020EINN V0202601N00721005401CN0080001N1+00891+00791099981ADDAG12999AY161011AY251011GA1031+002409079GA2061+005409079GA3081+015009059GF108991081061002501999999MA1099901999999MD1510321+9999MW1611OA149901391OC101391REMSYN047333   83708 86718 88650 91320 91326 90062 91127MET025GRADU 9999 6ST018?? 0116?
0078039620999991986010413304+52683-008917FM-15+0020EINN V0202601N00771005401CN0112001N1+00901+00701999999ADDAG12999GA1031+003009079GA2061+005409089MA1100001999999MW1211REMMET006NOSIG?
0157039620999991986010414004+52683-008917SY-MT+0020EINN V0202801N01031015001CN0200001N1+00831+00541100061ADDAG12001AY161021AY221021GA1031+005409079GA2071+015009059GF107991071051004501999999MA1100001999999MD1510131+9999MW1211REMSYN017333   83718 87650MET006NOSIG?
0176039620999991986010415004+52683-008917SY-MT+0020EINN V0202701N00511015001CN0200001N1+00731+00381100031ADDAG12001AY161031AY251031GA1021+009009059GA2071+015009059GF107991071051012501999999MA1100001999999MD1710011+9999MW1021REMSYN017333   82630 87650MET006NOSIG?EQDQ01+000000PRSWM2
0193039620999991986010416004+52683-008917SY-MT+0020EINN V0202701N00871015001CN0200001N1+00691+00141100061ADDAG12001AY161011AY221011GA1031+005409079GA2081+015009059GF199999081051004501999999MA1100001999999MD1210071+9999MW1601OA149901441REMSYN023333   83718 88650 91128MET006NOSIG?EQDQ01+000072SCOTCV
0078039620999991986010416304+52683-008917FM-15+0020EINN V0202501N00511015001CN0112001N1+00601+00101999999ADDAG12999GA1021+006609089GA2051+015009059MA1100001999999MW1801REMMET006NOSIG?
0152039620999991986010417004+52683-008917SY-MT+0020EINN V0202501N00361009001CN0200001N1+00561+00161100011ADDAG12001AY181021AY261021GA1021+005409079GF105991051081004501999999MA1100001999999MD1710061+9999MW1251OA149901601REMSYN017333   82718 91131MET006NOSIG?
0099039620999991986010417304+52683-008917FM-15+0020EINN V0202501N00771007201CN0112001N1+00501+00101999999ADDAG12000GA1021+004209079GA2041+007209099MA1100001999999OC101341REMMET006NOSIG?EQDQ01+000000PRSWM2
0209039620999991986010418004+52683-008917SY-MT+0020EINN V0202501N00721220001CN0300001N1+00531+00041100011ADDAA199003091AG10001AY181061AY261061GA1011+005709099GF101991011031004501001001KA1120M+00891MA1100001999999MD1610021+9999MW1011OA149901651OC101241REMSYN023333   10089 81919 91132MET006NOSIG?EQDQ01+000000PRSWM2
0075039620999991986010418304+52683-008917FM-15+0020EINN V0202501N00671220001CN0112001N1+00501+00001999999ADDAG12999GA1011+005709099MA1099901999999REMMET006NOSIG?EQDQ01+000000PRSWM2
0086039620999991986010419004+52683-008917FM-12+0020EINN V0202601N00771220001CN0300001N9+00481-00051099991ADDAG12999GA1011+005709089GF101991011081004501001001MD1710071+9999REMSYN011333   81819
0075039620999991986010419304+52683-008917FM-15+0020EINN V0202701N00621220001CN0112001N1+00401+00001999999ADDAG12999GA1011+006009089MA1099901999999REMMET006NOSIG?EQDQ01+000000PRSWM2
0155039620999991986010420004+52683-008917SY-MT+0020EINN V0202401N00411220001CN0300001N1+00321+00021099951ADDAG12001GA1011+005709089GF101991011081004501001001MA1099901999999MD1810061+9999MW1001OA149901391REMSYN017333   81819 91127MET006NOSIG?EQDQ01+000000PRSWM2
0091039620999991986010420304+52683-008917FM-15+0020EINN V0202301N00511012001CN0112001N1+00401+00101999999ADDAG12000GA1021+005709089GA2031+012009059MA1099901999999REMMET006NOSIG?EQDQ01+000000PRSWM2
0160039620999991986010421004+52683-008917SY-MT+0020EINN V0202001N00511220001CN0300001N1+00331+00031099891ADDAG12000GA1011+005709089GA2031+009009059GF103991031081004501001001MA1099801999999MD1710121+9999MW1001REMSYN017333   81819 83630MET006NOSIG?EQDQ01+000000PRSWM2
0091039620999991986010421304+52683-008917FM-15+0020EINN V0202001N00461220001CN0112001N1+00301+00001999999ADDAG12999GA1011+005709089GA2031+009009059MA1099801999999REMMET006NOSIG?EQDQ01+000000PRSWM2
0149039620999991986010422004+52683-008917SY-MT+0020EINN V0202001N00151220001CN0300001N1+00291+00081099921ADDAG12999AY181011AY201011GA1011+006009089GF102991021081008001001001GJ100069MA1099901999999MD1510071+9999MW1251REMSYN017333   81820 94001MET006NOSIG?
0078039620999991986010422304+52683-008917FM-15+0020EINN V0202301N00511220001CN0112001N1+00301+00101999999ADDAG12999GA1011+003009079GA2011+006009099MA1099801999999MW1251REMMET006NOSIG?
0152039620999991986010423004+52683-008917SY-MT+0020EINN V0201901N00411220001CN0300001N1+00311-00021099841ADDAG12999AY181021AY201021GA1011+006009099GF102991021031008001001001MA1099801999999MD1710111+9999MW1251OA149901601REMSYN017333   81920 91131MET006NOSIG?
0075039620999991986010423304+52683-008917FM-15+0020EINN V0201901N00411220001CN0112001N1+00301+00001999999ADDAG12000GA1011+006009099MA1099801999999REMMET006NOSIG?EQDQ01+000000PRSWM2
0171039620999991986010500004+52683-008917SY-MT+0020EINN V0201801N00361220001CN0300001N1+00261-00041099811ADDAA106000391AG10001AY181061AY201061GA1011+006009099GF101991011031008001001001MA1099801999999MD1610081+9999MW1021REMSYN017333   81920 92000MET006NOSIG?EQDQ01+000000PRSWM2
0065039620999991986010500304+52683-008917FM-15+0020EINN V0209991C00001999991CY0099001N1+00201+00001999999ADDAG11999MA1099701999999REMMET012CAVOK NOSIG?EQDQ01+000000PRSWM2
0128039620999991986010501004+52683-008917SY-MT+0020EINN V0202001N00211220001CN0300001N1+00171-00021099701ADDAG11001GF100991001001999999001001MA1099701999999MD1710211+9999MW1001REMSYN011333   92000MET012CAVOK NOSIG?EQDQ01+000000PRSWM2
0065039620999991986010501304+52683-008917FM-15+0020EINN V0201801N00211999991CY0099001N1+00201-00101999999ADDAG11999MA1099591999999REMMET012CAVOK NOSIG?EQDQ01+000000PRSWM2
0150039620999991986010502004+52683-008917SY-MT+0020EINN V0202201N00151220001CN0300001N1+00221+00001099651ADDAG11001GA1041+060009009GF104991001001999999001021MA1099591999999MD1710181+9999MW1001REMSYN017333   84070 92000MET012CAVOK NOSIG?EQDQ01+000000PRSWM2
0065039620999991986010502304+52683-008917FM-15+0020EINN V0200601N00101999991CY0099001N1+00201+00001999999ADDAG12000MA1099591999999REMMET012CAVOK NOSIG?EQDQ01+000000PRSWM2
0150039620999991986010503004+52683-008917SY-MT+0020EINN V0200801N00151060001CN0300001N1+00221+00031099601ADDAG12000GA1071+060009009GF107991001001999999001021MA1099591999999MD1710201+9999MW1001REMSYN017333   87070 92000MET012CAVOK NOSIG?EQDQ01+000000PRSWM2
0065039620999991986010503304+52683-008917FM-15+0020EINN V0201401N00261999991CY0099001N1+00201-00101999999ADDAG11999MA1099591999999REMMET012CAVOK NOSIG?EQDQ01+000000PRSWM2
0150039620999991986010504004+52683-008917SY-MT+0020EINN V0201901N00151060001CN0300001N1+00191-00061099611ADDAG12001GA1071+060009009GF107991001001999999001021MA1099591999999MD1510091+9999MW1001REMSYN017333   87070 92000MET012CAVOK NOSIG?EQDQ01+000000PRSWM2
0065039620999991986010504304+52683-008917FM-15+0020EINN V0202401N00261999991CY0099001N1+00101+00001999999ADDAG12999MA1099491999999REMMET012CAVOK NOSIG?EQDQ01+000000PRSWM2
0151039620999991986010505004+52683-008917SY-MT+0020EINN V0203501N00361220001CN0300001N1+00121-00081099551ADDAG12001GA1031+060009009GF103991001001999999001021MA1099491999999MD1710101+9999MW1001REMSYN017333   83070 92000MET013CAVOK NODSIG?EQDQ01+000000PRSWM2
0065039620999991986010505304+52683-008917FM-15+0020EINN V0203301N00261999991CY0099001N1+00201+00001999999ADDAG12000MA1099491999999REMMET012CAVOK NOSIG?EQDQ01+000000PRSWM2
0204039620999991986010506004+52683-008917SY-MT+0020EINN V0203201N00151220001CN0300001N1+00151-00101099601ADDAA199000391AG10000GA1031+060009009GF103991001001999999001021IA1099IA2999-00309KA1120N+00101MA1099591999999MD1510001+9999MW1001REMSYN029333   20010 31103 83070 92000MET012CAVOK NOSIG?EQDQ01+000000PRSWM2
0066039620999991986010506304+52683-008917FM-15+0020EINN V0203401N00361999991CY0099001N1+00201-00101999999ADDAG12999MA1099591999999REMMET013CAVOK NOSIGV?EQDQ01+000000PRSWM2
0086039620999991986010507004+52683-008917FM-12+0020EINN V0203301N00311220001CN0300001N9+00271-00031099651ADDAG12999GA1041+060009009GF104991001001999999001021MD1310041+9999REMSYN011333   84070
0065039620999991986010507304+52683-008917FM-15+0020EINN V0203401N00211999991CY0099001N1+00301+00001999999ADDAG12999MA1099701999999REMMET012CAVOK NOSIG?EQDQ01+000000PRSWM2
0144039620999991986010508004+52683-008917SY-MT+0020EINN V0203401N00101060001CN0300001N1+00191+00061099761ADDAG12999GA1071+060009009GF107991001001999999001021MA1099701999999MD1310201+9999MW1001REMSYN011333   87070MET012CAVOK NOSIG?EQDQ01+000000PRSWM2
0176039620999991986010509004+52683-008917SY-MT+0020EINN V0203001N00311220001CN0300001N1+00261+00101099861ADDAG12000GA1011+012009059GA2031+060009009GF104991011051999999001021MA1099801999999MD1310251+9999MW1001REMSYN017333   81640 83070MET006NOSIG?EQDQ01+000992SCOLCBQ02+000000PRSWM2
0091039620999991986010509304+52683-008917FM-15+0020EINN V0202801N00211220001CN0112001N1+99999+99999999999ADDAG12999GA1011+006009089GA2041+060009009MA1099801999999REMMET006NOSIG?EQDQ01+000000PRSWM2
0160039620999991986010510004+52683-008917SY-MT+0020EINN V0202501N00211220001CN0400001N1+00271+00111099941ADDAG12999GA1011+006609089GA2031+075009009GF103991011021008001001021MA1099901999999MD1210281+9999MW1001REMSYN017333   81822 83075MET006NOSIG?EQDQ01+000000PRSWM2
0075039620999991986010510304+52683-008917FM-15+0020EINN V0202601N00211220001CN0112001N1+00401+00201999999ADDAG12999GA1011+006609089MA1099901999999REMMET006NOSIG?EQDQ01+000000PRSWM2
0138039620999991986010511004+52683-008917SY-MT+0020EINN V0203301N00311220001CN0400001N1+00491+00161100021ADDAG12001GA1011+006609099GF102991021091008001001031MA1100001999999MD1210261+9999MW1001REMSYN011333   81922MET006NOSIG?EQDQ01+000000PRSWM2
0091039620999991986010511304+52683-008917FM-15+0020EINN V0203101N00461220001CN0112001N1+00501+00301999999ADDAG12000GA1011+005109079GA2021+006609099MA1100001999999REMMET006NOSIG?EQDQ01+000000PRSWM2
0171039620999991986010512004+52683-008917SY-MT+0020EINN V0203101N00931075001CN0400001N1+00591+00221100041ADDAA106999929AG10000GA1011+005109079GA2031+006609099GF106991031091004501001031MA1100001999999MD1210181+9999MW1001REMSYN017333   81717 83922MET006NOSIG?EQDQ01+000000PRSWM2
0098039620999991986010512304+52683-008917FM-15+0020EINN V0203101N00931220001CN0112001N1+00601+00301999999ADDAG12999GA1011+003909079GA2041+006609099MA1100001999999REMMET013TEMPO MAX 30?EQDQ01+000000PRSWM2
0199039620999991986010513004+52683-008917SY-MT+0020EINN V0203301N00461075001CN0400001N1+00511+00261100131ADDAG12999GA1011+003909079GA2031+006609099GA3051+075009009GF106991031091004501001031MA1100101999999MD1210181+9999MW1001OA149901291REMSYN029333   81713 83922 85075 91125MET006NOSIG?EQDQ01+000000PRSWM2
0184039620999991986010514004+52683-008917SY-MT+0020EINN V0203301N00571024001CN0200001N1+00521+00241100201ADDAG12001GA1011+006609099GA2051+024009049GF106991011091008001071031MA1100101999999MD1210181+9999MW1001REMSYN035333   81922 85458 97182 97382 97482MET012TEMPO MAX30?EQDQ01+000000PRSWM2
0098039620999991986010514304+52683-008917FM-15+0020EINN V0203101N00571220001CN0112001N1+00501+00101999999ADDAG12000GA1011+007509099GA2041+024009049MA1100201999999REMMET013TEMPO MAX 30?EQDQ01+000000PRSWM2
0142039620999991986010515004+52683-008917FM-12+0020EINN V0203101N00621024001CN0200001N9+00511+00101100301ADDAG12001AY121031AY221031GA1021+007509099GA2051+024009049GF106991021091008001071031MD1210261+9999MW1801REMSYN029333   82925 85458 97182 97282
0190039620999991986010516004+52683-008917SY-MT+0020EINN V0202801N00461015001CN0400001N1+00441+00101100421ADDAG12001AY181011AY221011GA1031+007509099GA2041+015009059GF105991051091008001999001MA1100411999999MD1210291+9999MW1251REMSYN017333   83925 84650MET020TEMPO MAX 30?? 0116?EQDQ01    003SCOMCG
0083039620999991986010516304+52683-008917FM-15+0020EINN V0202901N00261220001CN0112001N1+00401+00101999999ADDAG12999GA1021+007509099MA1100411999999REMMET014NTEMPO MAX 30?EQDQ01+000000PRSWM2
0179039620999991986010517004+52683-008917SY-MT+0020EINN V0203001N00511220001CN0250001N1+00371+00051100531ADDAG12001AY111021AY211021GA1031+007509099GF103991031091008001001001MA1100511999999MD1210331+9999MW1151REMSYN029333   83925 97182 97282 97482MET013TEMPO MAX 30?EQDQ01+000000PRSWM2
0075039620999991986010517304+52683-008917FM-15+0020EINN V0203001N00461220001CN0112001N1+00401+00101999999ADDAG12000GA1031+007509099MA1100511999999REMMET006NOSIG?EQDQ01+000000PRSWM2
0223039620999991986010518004+52683-008917SY-MT+0020EINN V0203001N00821012001CN0250001N1+00451+00061100631ADDAA199999929AG10001AY181061AY211061GA1031+006609099GA2031+012009059GF105991051031008001001001KA1120M+00601MA1100611999999MD1210331+9999MW1031OA149901491REMSYN029333   10060 83922 83640 91129MET006NOSIG?EQDQ01+000000PRSWM2
0075039620999991986010518304+52683-008917FM-15+0020EINN V0203201N00721220001CN0112001N1+00401+00001999999ADDAG12999GA1031+007209099MA1100611999999REMMET006NOSIG?EQDQ01+000000PRSWM2
0155039620999991986010519004+52683-008917SY-MT+0020EINN V0203101N00621220001CN0300001N1+00331+00061100711ADDAG12001GA1011+007209099GF102991011031008001001031MA1100711999999MD1210291+9999MW1001OA149901181REMSYN017333   81924 91123MET006NOSIG?EQDQ01+000000PRSWM2
0075039620999991986010519304+52683-008917FM-15+0020EINN V0202801N00511220001CN0112001N1+00301+00001999999ADDAG12999GA1021+007209099MA1100711999999REMMET006NOSIG?EQDQ01+000000PRSWM2
0138039620999991986010520004+52683-008917SY-MT+0020EINN V0202901N00621220001CN0300001N1+00261+00021100811ADDAG12999GA1031+007209099GF104991041031008001001031MA1100811999999MD1210281+9999MW1001REMSYN011333   83924MET006NOSIG?EQDQ01+000000PRSWM2
0078039620999991986010520304+52683-008917FM-15+0020EINN V0203101N00571013501CN0112001N1+00301+00001999999ADDAG12001GA1041+007209099GA2031+013509059MA1100811999999MW1251REMMET006NOSIG?
0135039620999991986010521004+52683-008917SY-MT+0020EINN V0202901N00411220001CN0300001N1+00291-00071100851ADDAG12001AY181031AY211031GA1041+007209099GF104991041031008001001001MA1100811999999MD1210221+9999MW1251REMSYN011333   84924MET006NOSIG?
0075039620999991986010521304+52683-008917FM-15+0020EINN V0202901N00411220001CN0112001N1+00201-00101999999ADDAG12999GA1041+007209099MA1100811999999REMMET006NOSIG?EQDQ01+000000PRSWM2
0152039620999991986010522004+52683-008917SY-MT+0020EINN V0202701N00461220001CN0300001N1+00231-00021100901ADDAG12001GA1021+006009099GF102991021031008001001001GJ101089MA1100811999999MD1210191+9999MW1001REMSYN017333   82920 94018MET006NOSIG?EQDQ01+000000PRSWM2
0075039620999991986010522304+52683-008917FM-15+0020EINN V0202801N00411220001CN0112001N1+00201+00001999999ADDAG12999GA1011+006009099MA1100911999999REMMET006NOSIG?EQDQ01+000000PRSWM2
0138039620999991986010523004+52683-008917SY-MT+0020EINN V0203101N00461220001CN0300001N1+00301-00031100961ADDAG12001GA1021+006009099GF103991021031008001061001MA1100911999999MD1210151+9999MW1001REMSYN011333   82920MET006NOSIG?EQDQ01+000000PRSWM2
0075039620999991986010523304+52683-008917FM-15+0020EINN V0202501N00311220001CN0112001N1+00201+00001999999ADDAG12000GA1011+006009099MA1100911999999REMMET006NOSIG?EQDQ01+000000PRSWM2
0189039620999991986010600004+52683-008917SY-MT+0020EINN V0202601N00461220001CN0300001N1+00181+00021100971ADDAA106999929AG10001AY181061AY211061GA1011+006009099GF101991011031008001001001MA1100911999999MD1110121+9999MW1011REMSYN035333   81920 91330 91324 90098 92000MET006NOSIG?EQDQ01+000000PRSWM2
0075039620999991986010600304+52683-008917FM-15+0020EINN V0203001N00411220001CN0112001N1+00201+00001999999ADDAG11999GA1011+006009099MA1100911999999REMMET006NOSIG?EQDQ01+000000PRSWM2
0144039620999991986010601004+52683-008917SY-MT+0020EINN V0202901N00361220001CN0300001N1+00251-00051100991ADDAG11001GA1011+006009099GF101991011031008001001001MA1100911999999MD1210091+9999MW1001REMSYN017333   81920 92000MET006NOSIG?EQDQ01+000000PRSWM2
0075039620999991986010601304+52683-008917FM-15+0020EINN V0202601N00411220001CN0112001N1+00201+00001999999ADDAG11999GA1011+006009099MA1100911999999REMMET006NOSIG?EQDQ01+000000PRSWM2
0144039620999991986010602004+52683-008917SY-MT+0020EINN V0202701N00571220001CN0300001N1+00211-00011100981ADDAG11001GA1011+006009099GF101991011031008001001001MA1100911999999MD1010021+9999MW1001REMSYN017333   81920 92000MET006NOSIG?EQDQ01+000000PRSWM2
0065039620999991986010602304+52683-008917FM-15+0020EINN V0202701N00411999991CY0099001N1+00201+00101999999ADDAG11000MA1101021999999REMMET012CAVOK NOSIG?EQDQ01+000000PRSWM2
0128039620999991986010603004+52683-008917SY-MT+0020EINN V0202501N00311220001CN0300001N1+00211+00021101021ADDAG12000GF100991001001999999001001MA1101021999999MD1210051+9999MW1001REMSYN011333   92000MET012CAVOK NOSIG?EQDQ01+000000PRSWM2
0066039620999991986010603304+52683-008917FM-15+0020EINN V0202501N00211999991CY0099001N1+00101+00001999999ADDAG11001MA1101021999999REMMET013CAVOK NPOSIG?EQDQ01+000000PRSWM2
0129039620999991986010604004+52683-008917SY-MT+0020EINN V0202601N00211220001CN0300001N1+00111-00031101011ADDAG12001GF100991001001999999001001MA1101021999999MD1010021+9999MW1001REMSYN011333   92000MET013CAVOK NOSIHG?EQDQ01+000000PRSWM2
0065039620999991986010604304+52683-008917FM-15+0020EINN V0202601N00261999991CY0099001N1+00201+00001999999ADDAG12999MA1101021999999REMMET012CAVOK NOSIG?EQDQ01+000000PRSWM2
0128039620999991986010605004+52683-008917SY-MT+0020EINN V0202401N00311220001CN0300001N1+00161+00001101011ADDAG11999GF100991001001999999001001MA1101021999999MD1110031+9999MW1001REMSYN011333   92000MET012CAVOK NOSIG?EQDQ01+000000PRSWM2
0078039620999991986010605304+52683-008917FM-15+0020EINN V0209991C00001004501CN0112001N1+00201+00101999999ADDAG12004GA1031+001509079GA2031+004509089MA1100911999999MW1801REMMET006NOSIG?
0211039620999991986010606004+52683-008917SY-MT+0020EINN V0201001N00151060001CN0300001N1+00151+00021100991ADDAA106999929AG12001AY181061AY211061GA1021+007509059GA2031+060009009GF107991041051008001001021IA1099IA2999-00309KA1120N+00071MA1100911999999MD1510031+9999MW1251REMSYN029333   20007 31103 82625 86070MET006NOSIG?
0075039620999991986010606304+52683-008917FM-15+0020EINN V0201301N00211220001CN0112001N1+00101-00101999999ADDAG12999GA1011+012009059MA1100911999999REMMET006NOSIG?EQDQ01+000000PRSWM2
0166039620999991986010607004+52683-008917SY-MT+0020EINN V0201401N00211060001CN0300001N1+00081-00031100981ADDAG12001GA1021+012009059GA2041+060009009GF105991021051012501001021MA1100911999999MD1610031+9999MW1001REMSYN023333   82640 84070 92000MET006NOSIG?EQDQ01+000000PRSWM2
0091039620999991986010607304+52683-008917FM-15+0020EINN V0201201N00361220001CN0112001N1+00101-00101999999ADDAG12999GA1011+012009059GA2031+060009009MA1100911999999REMMET006NOSIG?EQDQ01+000000PRSWM2
0166039620999991986010608004+52683-008917SY-MT+0020EINN V0201201N00461060001CN0400001N1+00051-00091100941ADDAG12999GA1021+012009059GA2061+060009029GF106991021051012501001061MA1100911999999MD1710071+9999MW1001REMSYN023333   82640 86270 92000MET006NOSIG?EQDQ01+000000PRSWM2
0166039620999991986010609004+52683-008917SY-MT+0020EINN V0201201N00571060001CN0600001N1+00061-00111100921ADDAG12000GA1021+012009059GA2061+060009029GF106991021051012501001061MA1100911999999MD1710071+9999MW1001REMSYN023333   82640 86270 92000MET006NOSIG?EQDQ01+000000PRSWM2
0160039620999991986010610004+52683-008917SY-MT+0020EINN V0201201N00461036001CN0500001N1+00101-00071100921ADDAG12999GA1011+006009059GA2071+036009049GF107991011051008001071999MA1100911999999MD1610061+9999MW1001REMSYN017333   81620 87462MET006NOSIG?EQDQ01+000000PRSWM2
0091039620999991986010610304+52683-008917FM-15+0020EINN V0201201N00571030001CN0112001N1+00101-00101999999ADDAG12999GA1011+006009059GA2071+030009049MA1100811999999REMMET006NOSIG?EQDQ01+000000PRSWM2
0160039620999991986010611004+52683-008917SY-MT+0020EINN V0201201N00511030001CN0500001N1+00131-00041100821ADDAG12001GA1011+007509059GA2071+030009049GF107991011051008001071999MA1100811999999MD1810121+9999MW1001REMSYN017333   81625 87460MET006NOSIG?EQDQ01+000000PRSWM2
0171039620999991986010612004+52683-008917SY-MT+0020EINN V0201201N00571030001CN0400001N1+00251+00061100701ADDAA106999929AG10000GA1011+009009059GA2071+030009049GF107991011051012501071999MA1100611999999MD1810221+9999MW1001REMSYN017333   81630 87460MET006NOSIG?EQDQ01+000000PRSWM2
0160039620999991986010613004+52683-008917SY-MT+0020EINN V0201301N00721027001CN0400001N1+00391-00071100561ADDAG12999GA1021+006009059GA2071+027009049GF107991021051008001071999MA1100511999999MD1710361+9999MW1001REMSYN017333   82620 87459MET006NOSIG?EQDQ01+000000PRSWM2
0157039620999991986010614004+52683-008917SY-MT+0020EINN V0201401N00771027001CN0300001N1+00471+00081100461ADDAG12001AY161021AY221021GA1011+006009059GA2081+027009049GF108991011051008001071999MA1100411999999MD1710361+9999MW1601REMSYN017333   81620 88459MET006NOSIG?
0094039620999991986010614304+52683-008917FM-15+0020EINN V0201301N00931027001CN0112001N1+00501+00201999999ADDAG12002GA1011+006009059GA2031+015009059GA3071+027009049MA1100311999999MW1601REMMET006NOSIG?
0196039620999991986010615004+52683-008917SY-MT+0020EINN V0201201N00721024001CN0200001N1+00511+00261100301ADDAG12001AY161031AY261031GA1011+003009079GA2031+009009059GA3061+024009049GF107991041051004501071999MA1100201999999MD1710401+9999MW1601OA149901391REMSYN029333   81710 83630 86458 91127MET006NOSIG?
0094039620999991986010615304+52683-008917FM-15+0020EINN V0201201N00821024001CN0112001N1+00501+00201999999ADDAG12999GA1011+005409079GA2031+009009059GA3061+024009049MA1100201999999MW1211REMMET006NOSIG?
0198039620999991986010616004+52683-008917SY-MT+0020EINN V0201301N00871027001CN0250001N1+00581+00241100231ADDAG12001AY161011AY221011GA1011+006009059GA2041+009009059GA3071+027009049GF107991061051008001071999MA1100201999999MD1710331+9999MW1211REMSYN023333   81620 84630 87459MET006NOSIG?EQDQ01+000000PRSWM2
0205039620999991986010617004+52683-008917SY-MT+0020EINN V0201401N00981009601CN0200001N1+00631+00291100121ADDAG12001GA1031+007209059GA2041+009609059GA3071+027009049GF107991051051008001071999MA1100101999999MD1710341+9999MW1001OA149901491OC101491REMSYN029333   83624 84632 87459 91129MET004SIG?EQDQ01+000000PRSWM2
0108039620999991986010617304+52683-008917FM-15+0020EINN V0201401N00981009001CN0112001N1+00701+00301999999ADDAG12000GA1031+005409079GA2061+009009059GA3081+027009049MA1100101999999REMMET007NO SIG?EQDQ01+000000PRSWM2
0229039620999991986010618004+52683-008917SY-MT+0020EINN V0201401N01031009001CN0200001N1+00651+00371100061ADDAA199000391AG10001AY161061AY261061GA1031+004509079GA2061+009009059GA3081+027009049GF108991061061004501071999KA1120M+00651MA1100001999999MD1710241+9999MW1021REMSYN029333   10065 83715 86630 88459MET007NO SIG?EQDQ01+000000PRSWM2
0095039620999991986010618304+52683-008917FM-15+0020EINN V0201401N01131004501CN0112001N1+00701+00401999999ADDAG12999GA1021+003909079GA2051+004509079GA3071+009009059MA1100001999999MW1601REMMET007NO SIG?
0218039620999991986010619004+52683-008917SY-MT+0020EINN V0201401N01131003901CN0120001N1+00651+00441100021ADDAG12001AY161011AY261011GA1021+002409079GA2051+003909079GA3081+012009049GF108991061061002501021999MD1610211+9999MW1631OA149901851OC101851REMSYN029333   82708 85713 88540 91136MET035100        ?     TEMPO 7000?? 0116?
0090039620999991986010619304+52683-008917FM-15+0020EINN V0201401N00981005101CN0112001N1+00701+00501999999ADDAG12999GA1021+003609079GA2061+005109079MA1099901999999MW1631REMMET018TEMPO 7000?? 0116?
0152039620999991986010620004+52683-008917FM-12+0020EINN V0201401N00771004801CN0150001N9+00651+00491099981ADDAG12999AY161021AY261021GA1021+003909079GA2051+004809079GA3051+006609059GF108991071061004501021999MD1610141+9999MW1631REMSYN023333   82713 85716 85622
0114039620999991986010620304+52683-008917FM-15+0020EINN V0201401N00931004201CN0112001N1+00701+00501999999ADDAG12019GA1021+002109079GA2051+004209079GA3071+006009059MA1099901999999MW1631OC101491REMMET018TEMPO 7000?? 0116?
0193039620999991986010621004+52683-008917SY-MT+0020EINN V0201301N00931004801CN0150001N1+00661+00501099871ADDAG12004AY161031AY261031GA1021+002409079GA2061+004809079GF108991061061002501021999MA1099801999999MD1810191+9999MW1631OA149901491OC101491REMSYN029333   82708 86716 88540 91129MET011TEMPO 7000?
0095039620999991986010621304+52683-008917FM-15+0020EINN V0201301N00981004501CN0112001N1+00701+00501999999ADDAG12999GA1021+003009079GA2061+004509079GA3081+010509059MA1099801999999MW1211REMMET007NO SIG?
0193039620999991986010622004+52683-008917SY-MT+0020EINN V0201301N01131003901CN0140001N1+00701+00521099801ADDAG12001AY161011AY221011GA1021+002409079GA2051+003909079GA3081+009009059GF108991081061002501999999GJ100069MA1099701999999MD1710221+9999MW1601REMSYN029333   82708 85713 88630 94001MET006NOSIG?
0099039620999991986010622304+52683-008917FM-15+0020EINN V0201301N01131002101CN0112001N1+00701+00601999999ADDAG12999GA1021+001209079GA2041+002109079GA3061+003909079MA1099701999999MW1581REMMET011TEMPO 7000?
0216039620999991986010623004+52683-008917SY-MT+0020EINN V0201301N00981003001CN0150001N1+00711+00601099681ADDAG12001AY161021AY251021GA1021+002109079GA2041+003009079GA3071+004209079GF108991081071002501999999MA1099591999999MD1710291+9999MW1601OA149901701OC101701REMSYN029333   82707 84710 87714 91133MET018TEMPO 7000?? 0116?
0102039620999991986010623304+52683-008917FM-15+0020EINN V0201301N01031004501CN0112001N1+00701+00601999999ADDAG12003GA1021+003009079GA2031+004509079GA3081+024009049MA1099591999999MW1211OC101541REMMET006NOSIG?
0185039620999991986010700004+52683-008917SY-MT+0020EINN V0201501N00981006001CN0200001N1+00751+00621099631ADDAA106009091AG10001AY161061AY251061GA1031+004509079GA2071+006009059GF108991081051004501999999MA1099591999999MD1510221+9999MW1211OA149901541REMSYN023333   83715 87620 91130MET006NOSIG?
0078039620999991986010700304+52683-008917FM-15+0020EINN V0201401N00621009001CN0112001N1+00701+00701999999ADDAG11999GA1031+004509079GA2071+009009059MA1099591999999MW1211REMMET006NOSIG?
0179039620999991986010701004+52683-008917SY-MT+0020EINN V0201401N00511009001CN0400001N1+00721+00611099591ADDAG12001AY161011AY221011GA1021+004509079GA2031+009009059GA3071+015009059GF108991081051004501999999MA1099491999999MD1710201+9999MW1211REMSYN023333   82715 83630 87650MET006NOSIG?
0098039620999991986010701304+52683-008917FM-15+0020EINN V0201401N00621009001CN0112001N1+00701+99999999999ADDAG11999GA1021+004509079GA2041+009009059GA3071+015009059REMMET01206995 NOSIG?EQDQ01+000000PRSWM2
0189039620999991986010702004+52683-008917SY-MT+0020EINN V0201101N00621006601CN0400001N1+00651+00611099491ADDAG11001GA1021+002409079GA2031+006609059GA3071+015009059GF107991071051002501999999MA1099491999999MD1710191+9999MW1001REMSYN023333   82708 83622 87650MET013TEMPO 5ST008?EQDQ01+000000PRSWM2
0114039620999991986010702304+52683-008917FM-15+0020EINN V0201101N00671003901CN0112001N1+00601+00601999999ADDAG11000GA1031+002409079GA2051+003909079GA3071+006009059MA1099491999999REMMET013TEMPO 5ST008?EQDQ01+000000PRSWM2
0181039620999991986010703004+52683-008917SY-MT+0020EINN V0201101N00571002401CN0400001N1+00621+00581099481ADDAG12001AY161031AY221031GA1051+002409079GA2081+006009059GF108991081061002501999999MA1099391999999MD1710161+9999MW1031REMSYN017333   85708 88620MET011TEMPO 7000?EQDQ01+000000PRSWM2
0112039620999991986010703304+52683-008917FM-15+0020EINN V0201101N00621003601CN0112001N1+00601+00601999999ADDAG12999GA1021+002409079GA2041+003609079GA3071+018009059MA1099391999999REMMET011TEMPO 7000?EQDQ01+000000PRSWM2
0160039620999991986010704004+52683-008917SY-MT+0020EINN V0201001N00621003601CN0400001N1+00671+00631099431ADDAG11999GA1051+003609079GA2071+018009059GF108991081061004501999999MA1099391999999MD1710161+9999MW1001REMSYN017333   85712 87656MET006NOSIG?EQDQ01+000000PRSWM2
0107039620999991986010704304+52683-008917FM-15+0020EINN V0200901N00511018001CN0112001N1+00701+00601999999ADDAG11999GA1011+002709079GA2031+003609079GA3071+018009059MA1099291999999REMMET006NOSIG?EQDQ01+000000PRSWM2
0160039620999991986010705004+52683-008917SY-MT+0020EINN V0201001N00621003601CN0400001N1+00671+00601099361ADDAG11999GA1051+003609079GA2071+018009059GF108991081061004501999999MA1099291999999MD1810131+9999MW1001REMSYN017333   85712 87656MET006NOSIG?EQDQ01+000000PRSWM2
0257039620999991986010706004+52683-008917SY-MT+0020EINN V0201001N00571006001CN0400001N1+00681+00591099341ADDAA199010091AG10001AY161061AY221061GA1031+004209079GA2051+006009059GA3071+015009059GF108991081051004501999999IA1099IA2999+00509KA1120N+00611MA1099291999999MD1710141+9999MW1021REMSYN035333   20061 31005 83714 85620 87650MET011TEMPO 8000?EQDQ01+000000PRSWM2
0165039620999991986010707004+52683-008917SY-MT+0020EINN V0201001N00621018001CN0400001N1+00691+00621099331ADDAG12001GA1021+006009059GA2081+018009059GF108991081051008001999999MA1099291999999MD1610101+9999MW1001REMSYN017333   82620 88656MET011TEMPO 8000?EQDQ01+000000PRSWM2
0211039620999991986010708004+52683-008917SY-MT+0020EINN V0201001N00411007501CN0400001N1+00741+00651099311ADDAG12001AY161021AY221021GA1021+004809079GA2031+007509059GA3081+024009049GF108991041051004501021999MA1099291999999MD1710051+9999MW1601REMSYN023333   82716 83625 88458MET019ETEMPO 8000 5ST012?EQDQ01+000000PRSWM2
0163039620999991986010709004+52683-008917SY-MT+0020EINN V0201001N00461002101CN0100001N1+00751+00641099331ADDAG12001AY161031AY221031GA1051+002109079GA2081+024009049GF108991051061002501021999MA1099291999999MD1510011+9999MW1601REMSYN017333   85707 88458MET012TEMPO 8000??
0078039620999991986010709304+52683-008917FM-15+0020EINN V0201001N00461001801CN0080001N1+00801+00701999999ADDAG12999GA1061+001809079GA2081+003309079MA1099291999999MW1601REMMET006NOSIG?
0157039620999991986010710004+52683-008917SY-MT+0020EINN V0201101N00621002101CN0120001N1+00731+00621099361ADDAG12999AY161011AY261011GA1051+002109079GA2071+003309079GF108991081061002501999999MA1099291999999MD1310031+9999MW1631REMSYN017333   85707 87711MET006NOSIG?
0094039620999991986010710304+52683-008917FM-15+0020EINN V0201201N00771003601CN0112001N1+00701+00601999999ADDAG12999GA1031+002709079GA2051+003609079GA3071+009009059MA1099291999999MW1611REMMET006NOSIG?
0200039620999991986010711004+52683-008917SY-MT+0020EINN V0201201N00671003301CN0160001N1+00701+00591099401ADDAG12001AY161021AY261021GA1031+002109079GA2051+003309079GA3071+007509059GF108991081061002501999999MA1099391999999MD1210091+9999MW1611REMSYN023333   83707 85711 87625MET027GRADU 2ST012 4SC020?? 0116?
0102039620999991986010711304+52683-008917FM-15+0020EINN V0201001N00821004201CN0112001N1+00701+00601999999ADDAG12007GA1031+002409079GA2051+004209079GA3051+007509059MA1099291999999MW1611OC101391REMMET006NOSIG?
0227039620999991986010712004+52683-008917SY-MT+0020EINN V0201001N00721002701CN0140001N1+00681+00591099381ADDAA106004091AG10002AY161061AY261061GA1031+002109079GA2051+002709079GA3071+006009059GF108991081061002501999999MA1099291999999MD1110051+9999MW1611REMSYN023333   83707 85709 87620MET043GRADU 4ST010 8SC020 07/06 993 NOSIG?? 0116?
0191039620999991986010713004+52683-008917SY-MT+0020EINN V0201001N00931003001CN0080001N1+00631+00491099371ADDAG12001AY161011AY261011GA1031+002109079GA2051+003009079GA3071+004509079GF108991081071002501999999MA1099291999999MD1010011+9999MW1611REMSYN023333   83707 85710 87715MET018GRADU 9999?? 0116?
0192039620999991986010714004+52683-008917SY-MT+0020EINN V0200901N00571003901CN0090001N1+00601+00411099381ADDAG12001AY161021AY261021GA1021+002409079GA2041+003909079GA3051+007509059GF108991081051002501999999MA1099291999999MD1510021+9999MW1611REMSYN023333   82708 84713 85625MET019TEMPO 8000 ?? 0116?
0152039620999991986010715004+52683-008917FM-12+0020EINN V0200801N00621003601CN0140001N9+00511+00361099431ADDAG12001AY161031AY261031GA1031+002409079GA2041+003609079GA3071+007509059GF108991081061002501999999MD1310051+9999MW1601REMSYN023333   83708 84712 87625
0198039620999991986010716004+52683-008917SY-MT+0020EINN V0200801N00361010501CN0120001N1+00431+00281099471ADDAG12001AY161011AY261011GA1011+002709079GA2031+003909079GA3051+010509059GF108991081051002501999999MA1099391999999MD1210101+9999MW1601REMSYN023333   81709 83713 85635MET025TEMPO 8000 5ST010?? 0116?
0094039620999991986010716304+52683-008917FM-15+0020EINN V0201001N00361012001CN0090001N1+00401+00301999999ADDAG12999GA1011+002709079GA2031+004209079GA3051+012009059MA1099491999999MW1611REMMET006NOSIG?
0179039620999991986010717004+52683-008917SY-MT+0020EINN V0200401N00051007501CN0080001N1+00391+00271099551ADDAG12999AY161021AY261021GA1011+002409079GA2031+003609079GA3051+007509059GF108991071051002501021999MA1099491999999MD1210171+9999MW1611REMSYN023333   81708 83712 85625MET006NOSIG?
0118039620999991986010717304+52683-008917FM-15+0020EINN V0200701N00311003901CN0112001N1+00401+00301999999ADDAG12007GA1031+003009079GA2061+003909079GA3081+018009049MA1099491999999MW1611REMMET030TEMPO 8000       ?     5ST010?
0182039620999991986010718004+52683-008917FM-12+0020EINN V0200301N00261003901CN0140001N9+00341+00261099611ADDAA199009091AG10002AY161061AY261061GA1021+002709079GA2061+003909079GA3081+015009049GF108991061061002501021999KA1120M+00761MD1210181+9999MW1611REMSYN029333   10076 82709 86713 88550
0097039620999991986010718304+52683-008917FM-15+0020EINN V0200401N00361015001CN0112001N1+00301+00201999999ADDAG12999GA1031+003609079GA2081+015009049MA1099591999999MW1611REMMET025TEMPO 8000 5ST012      ??
0176039620999991986010719004+52683-008917SY-MT+0020EINN V0200401N00361015001CN0150001N1+00261+00181099651ADDAG12001AY161011AY261011GA1021+003609079GA2081+015009049GF108991021061004501021999MA1099591999999MD1210181+9999MW1611REMSYN017333   82712 88550MET025TEMPO 8000 5ST012      ??
0099039620999991986010719304+52683-008917FM-15+0020EINN V0200101N00261003901CN0112001N1+00301+00201999999ADDAG12999GA1011+001809079GA2051+003909079GA3081+015009049MA1099591999999MW1611REMMET011TEMPO 8000?
0162039620999991986010720004+52683-008917SY-MT+0020EINN V0203601N00311004201CN0150001N1+00261+00231099741ADDAG12999AY161021AY221021GA1061+004209079GA2081+015009059GF108991081061004501999999MA1099701999999MD1210191+9999MW1601REMSYN017333   86714 88650MET011TEMPO 8000?
0062039620999991986010720304+52683-008917FM-15+0020EINN V0203601N00261004501CN0112001N1+00301+00201999999ADDAG12002GA1081+004509079MA1099701999999MW1601REMMET006NOSIG?
0157039620999991986010721004+52683-008917SY-MT+0020EINN V0203601N00211015001CN0150001N1+00271+00221099801ADDAG12001AY161031AY221031GA1041+005409079GA2051+015009059GF106991061061004501999999MA1099701999999MD1210181+9999MW1601REMSYN017333   84718 85650MET006NOSIG?
0094039620999991986010721304+52683-008917FM-15+0020EINN V0203601N00261007801CN0112001N1+00301+00201999999ADDAG12999GA1041+006009059GA2041+007809059GA3061+012009059MA1099801999999MW1211REMMET006NOSIG?
0157039620999991986010722004+52683-008917SY-MT+0020EINN V0200101N00151004501CN0150001N1+00221+00171099841ADDAG12001AY161011AY221011GA1061+004509079GA2061+024009049GF107991061061004501071999MA1099801999999MD1210181+9999MW1211REMSYN017333   86715 86458MET006NOSIG?
0096039620999991986010722304+52683-008917FM-15+0020EINN V0203101N00211004801CN0112001N1+00201+00201999999ADDAG12999GA1011+001209079GA2071+004809079MA1099801999999REMMET011TEMPO 7000?EQDQ01+000000PRSWM2
0184039620999991986010723004+52683-008917SY-MT+0020EINN V0203101N00261004801CN0120001N1+00211+00161099931ADDAG12001AY121021AY221021GA1011+001209079GA2041+003009079GA3071+004809079GF108991081061001501999999MA1099901999999MD1210181+9999MW1101REMSYN023333   81704 84710 87716MET011TEMPO 7000?
0083039620999991986010723304+52683-008917FM-15+0020EINN V0203301N00361004801CN0112001N1+00201+00201999999ADDAG12000GA1021+001209079GA2071+004809079MA1099901999999MW1101REMMET011TEMPO 7000?
0192039620999991986010800004+52683-008917SY-MT+0020EINN V0203101N00211004501CN0150001N1+00241+00141100021ADDAA106001091AG10001AY161061AY221061GA1021+003009079GA2071+004509079GF108991081061004501999999MA1100001999999MD1210221+9999MW1021REMSYN017333   82710 87715MET011TEMPO 7000?EQDQ01+000000PRSWM2
0103039620999991986010800304+52683-008917FM-15+0020EINN V0203101N00311003301CN0112001N1+00301+00201999999ADDAG11999GA1011+002409079GA2061+003309079MA1100001999999REMMET018TEMPO 7000?? 0116?EQDQ01+000000PRSWM2
0165039620999991986010801004+52683-008917SY-MT+0020EINN V0202901N00261015001CN0200001N1+00261+00161100091ADDAG11001GA1021+003309079GA2071+015009059GF108991081051004501999999MA1100001999999MD1210251+9999MW1001REMSYN017333   82711 87650MET011TEMPO 7000?EQDQ01+000000PRSWM2
0096039620999991986010801304+52683-008917FM-15+0020EINN V0202801N00211002701CN0112001N1+00301+00101999999ADDAG11999GA1051+002709079GA2081+003609079MA1100101999999REMMET011TEMPO 7000?EQDQ01+000000PRSWM2
0165039620999991986010802004+52683-008917SY-MT+0020EINN V0203001N00101005401CN0200001N1+00291+00191100171ADDAG12001GA1021+003309079GA2081+005409079GF108991081061004501999999MA1100101999999MD1210241+9999MW1001REMSYN017333   82711 88718MET011TEMPO 7000?EQDQ01+000000PRSWM2
0096039620999991986010802304+52683-008917FM-15+0020EINN V0203001N00101003901CN0112001N1+00301+00201999999ADDAG11000GA1061+003909079GA2071+005409079MA1100101999999REMMET011TEMPO 7000?EQDQ01+000000PRSWM2
0165039620999991986010803004+52683-008917SY-MT+0020EINN V0202801N00211004801CN0200001N1+00301+00201100241ADDAG12000GA1031+003609079GA2081+004809079GF108991081061004501999999MA1100201999999MD1210221+9999MW1001REMSYN017333   83712 88716MET011TEMPO 7000?EQDQ01+000000PRSWM2
0103039620999991986010803304+52683-008917FM-15+0020EINN V0202501N00101004501CN0112001N1+00301+00201999999ADDAG11999GA1031+003009079GA2081+004509079MA1100201999999REMMET018TEMPO 8000 5ST010?EQDQ01+000000PRSWM2
0172039620999991986010804004+52683-008917SY-MT+0020EINN V0209991C00001004501CN0200001N1+00351+00231100291ADDAG12999GA1031+003009079GA2081+004509079GF108991081061004501999999MA1100201999999MD1210211+9999MW1001REMSYN017333   83710 88715MET018TEMPO 8000 5ST010?EQDQ01+000000PRSWM2
0103039620999991986010804304+52683-008917FM-15+0020EINN V0209991C00001004501CN0112001N1+00401+00201999999ADDAG12999GA1031+003009079GA2081+004509079MA1100311999999REMMET018TEMPO 8000 5ST010?EQDQ01+000000PRSWM2
0157039620999991986010805004+52683-008917SY-MT+0020EINN V0202301N00051003601CN0140001N1+00381+00261100351ADDAG12999AY151021AY221021GA1031+002409079GA2081+003609079GF108991081061002501999999MA1100311999999MD1210191+9999MW1201REMSYN017333   83708 88712MET006NOSIG?
0097039620999991986010805304+52683-008917FM-15+0020EINN V0201901N00101003901CN0112001N1+00401+00301999999ADDAG12000GA1021+002709079GA2081+003909079MA1100311999999MW1101REMMET025TEMPO 8000 5ST008      ??
0230039620999991986010806004+52683-008917SY-MT+0020EINN V0202201N00151008101CN0150001N1+00361+00311100391ADDAA199001091AG10000AY151061AY221061GA1031+003309079GA2031+008109059GF105991051061004501999999IA1099IA2999+00009KA1120N+00201MA1100311999999MD1210161+9999MW1101REMSYN029333   20020 31000 83711 83627MET025TEMPO 8000 5ST008      ??
0176039620999991986010807004+52683-008917SY-MT+0020EINN V0202201N00211009001CN0150001N1+00331+00301100471ADDAG12999AY111011AY211011GA1031+002109079GA2031+009009059GF105991051061002501001001MA1100411999999MD1210171+9999MW1101REMSYN017333   83707 83630MET025TEMPO 8000 5ST008      ??
0146039620999991986010808004+52683-008917SY-MT+0020EINN V0209991C00001220001CN0120001N1+00271+00241100561ADDAG12999AY111021AY211021GA1021+001209079GF103991031061001501001001MA1100511999999MD1210201+9999MW1111REMSYN017333   82704 92000MET011TEMPO 3000?
0146039620999991986010809004+52683-008917SY-MT+0020EINN V0202001N00101220001CN0050001N1+00301+00251100661ADDAG12000AY111031AY211031GA1021+000609079GF103991031081000751001021MA1100611999999MD1210261+9999MW1111REMSYN017333   82702 92000MET011GRADU 9999?
0109039620999991986010809304+52683-008917FM-15+0020EINN V0201601N00101220001CN0016001N1+00301+00301999999ADDAG12999GA1021+000609079MA1100711999999MW1111REMMET053VIS 10KM TO NE AND SE        ?     GRADU 9999?? 0116?
0179039620999991986010810004+52683-008917SY-MT+0020EINN V0200601N00101220001CN0005001N1+00311+00261100761ADDAG12999AY141011AY241011GA1021+000609079GA2031+006009089GF103991031021000751001001MA1100711999999MD1210291+9999MW1461REMSYN035333   82702 83820 90410 92000 97370MET010GRADU9999?
0142039620999991986010811004+52683-008917FM-12+0020EINN V0201001N00101220001CN0050001N9+00381+00261100851ADDAG12999AY141021AY241021GA1011+000609079GA2031+009009059GF103991031081000751001001MD1210291+9999MW1281REMSYN029333   81702 83630 90585 97370
0179039620999991986010812004+52683-008917SY-MT+0020EINN V0201001N00261220001CN0003001N1+00371+00351100901ADDAA106999929AG10000AY141061AY241061GA1021+000309079GA2031+009009059GF103991031061000251001001MA1100811999999MD1110241+9999MW1461REMSYN023333   82701 83630 90461MET011GRADU 9999?
0182039620999991986010813004+52683-008917SY-MT+0020EINN V0201101N00101220001CN0006001N1+00481+00411100931ADDAG12001AY141011AY241011GA1011+000309079GF103991031081000251001001MA1100911999999MD1110171+9999MW1421REMSYN017333   81701 97413MET047VIS 1300TO NW          ?     GRADU 9999?? 0116?
0208039620999991986010814004+52683-008917SY-MT+0020EINN V0201001N002119999999N0008001N1+00461+00411100951ADDAG12001AY141021AY241021GA1021+000309079GA2041+006009089GF105991999081000251001001MA1100911999999MD1210111+9999MW1421REMSYN029333   82701 84820 97120 97420MET0262000MTONE N NW GRADU 9999?EQDQ01+000042SCOTLC
0171039620999991986010815004+52683-008917SY-MT+0020EINN V0209991C00001220001CN0070001N1+00571+00501101011ADDAG12001AY181031AY241031GA1031+006009089GF103991031021008001001001MA1101021999999MD1210121+9999MW1251MW2281REMSYN035333   83820 90539 97160 97360 97460MET012TEMPO 3000??
0097039620999991986010815304+52683-008917FM-15+0020EINN V0201501N00151220001CN0040001N1+00701+00501999999ADDAG12999GA1031+006009089MA1101021999999MW1251REMMET041VIS 10KMSW NW NE       ?     TREMPO 3000?
0188039620999991986010816004+52683-008917SY-MT+0020EINN V0201201N00101220001CN0040001N1+00591+00501101071ADDAG12001AY101011AY201011GA1021+006009089GF102991021081008001001001MA1101021999999MD1210151+9999MW1111REMSYN029333   82820 97162 97362 97462MET04110KMNW SW NE     ?     TEMPO 3000?? 0116?
0153039620999991986010817004+52683-008917SY-MT+0020EINN V0202001N00101220001CN0040001N1+00551+00461101151ADDAG12999AY101021AY201021GA1011+006009089GF102991021081008001001001MA1101081999999MD1210191+9999MW1111REMSYN023333   81820 97365 97465MET012TE MPO 2500?
0125039620999991986010817304+52683-008917FM-15+0020EINN V0201101N00151220001CN0003001N1+00501+00401999999ADDAG12000GA1011+006009089GA2031+060009009MA1101081999999MW1461REMMET053VIS 1200M  TO          ?     W,NW  TEMPO 2500?? 0116?
0225039620999991986010818004+52683-008917SY-MT+0020EINN V0201101N00151220001CN0002001N1+00381+00361101191ADDAA199000391AG10001AY181061AY241061GA1011+006009059GA2031+060009009GF104991021041008001001021KA1120M+00681MA1101081999999MD1210171+9999MW1461REMSYN035333   10068 81620 83070 90442 97406MET032VIS 600M TO      ?     NW NOSIG?
0078039620999991986010818304+52683-008917FM-15+0020EINN V0201101N00151220001CN0003001N1+00301+00301999999ADDAG12999GA1011+006009059GA2031+060009009MA1101191999999MW1441REMMET006NOSIG?
0203039620999991986010819004+52683-008917SY-MT+0020EINN V0201201N00211220001CN0006001N1+00321+00291101261ADDAG12001AY141011AY241011GA1011+006009059GA2031+060009009GF103991011051008001001021MA1101191999999MD1210181+9999MW1421REMSYN023333   81620 83070 97440MET046VIS 4000M TO     ?     W,NW TEMPO 0800?? 0116?
0103039620999991986010819304+52683-008917FM-15+0020EINN V0201201N00151220001CN0006001N1+00301+00301999999ADDAG12999GA1011+006009059MA1101191999999MW1441REMMET047VIS 7KM TO W,NW        ?     TEMPO 0800?? 0116?
0182039620999991986010820004+52683-008917SY-MT+0020EINN V0201201N00211220001CN0004001N1+00251+00221101321ADDAG12999AY141021AY241021GA1011+007509059GF103991011051008001001021MA1101291999999MD1210171+9999MW1461REMSYN017333   81625 97409MET047VIS 900M TO W,NW       ?     GRADU 3000?? 0116?
0103039620999991986010820304+52683-008917FM-15+0020EINN V0201301N00261220001CN0012001N1+00301+00201999999ADDAG12000GA1031+009009059MA1101291999999MW1101REMMET047VIS 7KM TO WNW         ?     GRADU 9999?? 0116?
0213039620999991986010821004+52683-008917SY-MT+0020EINN V0201301N00151009001CN0025001N1+00311+00281101381ADDAG12000AY141031AY221031GA1021+004509079GA2061+009009059GF107991071051004501999999MA1101291999999MD1210191+9999MW1101MW2281REMSYN029333   82715 86630 90570 97357MET044VIS 7KM TO       ?     SW GRADU 8000?? 0116?
0118039620999991986010821304+52683-008917FM-15+0020EINN V0201201N00211220001CN0025001N1+00301+00301999999ADDAG12999GA1011+003609079GA2041+009009059MA1101291999999MW1101REMMET046VIS 7KM TO       ?     W,NW GRADU 8000?? 0116?
0204039620999991986010822004+52683-008917SY-MT+0020EINN V0201101N00211005701CN0025001N1+00351+00301101381ADDAG12999AY121011AY221011GA1021+000309079GA2051+005709079GA3071+010509059GF107991071061000251999999GJ101209MA1101291999999MD1110121+9999MW1101REMSYN035333   82701 85719 87635 97362 94020MET011GRADU 7000?
0097039620999991986010822304+52683-008917FM-15+0020EINN V0201101N00411015001CN0025001N1+00501+00401999999ADDAG12999GA1031+004509079GA2081+015009049MA1101291999999MW1601REMMET025TEMPO 7000 5ST012      ??
0227039620999991986010823004+52683-008917SY-MT+0020EINN V0201201N00311010501CN0030001N1+00401+00351101381ADDAG12999AY161021AY221021GA1021+004509079GA2061+010509059GA3081+024009049GF108991061051004501021999MA1101291999999MD1110061+9999MW1601REMSYN029333   82715 86635 88460 97358MET0488KM TOSW         ?     TEMPO 7000 5ST012?? 0116?
0085039620999991986010823304+52683-008917FM-15+0020EINN V0201301N00101010501CN0112001N1+00401+00401999999ADDAG12003GA1021+000309079GA2071+010509059MA1101291999999MW1211REMMET013TEMPO 5ST012?
0227039620999991986010900004+52683-008917SY-MT+0020EINN V0201001N00261009001CN0025001N1+00441+00391101411ADDAA106000391AG10001AY161061AY241061GA1021+000309079GA2081+009009059GF108991081051000251999999MA1101391999999MD1310031+9999MW1211REMSYN035333   82701 88630 97162 97362 97462MET04710KM TO NE SW NW       ?     TEMPO 7000?? 0116?
0080039620999991986010900304+52683-008917FM-15+0020EINN V0201701N00361007801CN0112001N1+00601+00501999999ADDAG11999GA1081+007809059MA1101391999999REMMET011TEMPO 7000?EQDQ01+000000PRSWM2
0165039620999991986010901004+52683-008917SY-MT+0020EINN V0201801N00411006601CN0150001N1+00681+00521101411ADDAG11001GA1051+006609059GA2071+011409059GF108991081051008001999999MA1101391999999MD1110031+9999MW1001REMSYN017333   85622 87638MET011TEMPO 7000?EQDQ01+000000PRSWM2
0091039620999991986010901304+52683-008917FM-15+0020EINN V0201701N00361015001CN0112001N1+00701+00501999999ADDAG11999GA1041+007509059GA2071+015009059MA1101291999999REMMET006NOSIG?EQDQ01+000000PRSWM2
0160039620999991986010902004+52683-008917SY-MT+0020EINN V0201701N00411015001CN0150001N1+00681+00501101361ADDAG11999GA1031+007509059GA2071+015009059GF108991081051008001999999MA1101291999999MD1810021+9999MW1001REMSYN017333   83625 87650MET006NOSIG?EQDQ01+000000PRSWM2
0091039620999991986010902304+52683-008917FM-15+0020EINN V0201501N00361015001CN0112001N1+00701+00501999999ADDAG12000GA1031+007509059GA2071+015009059MA1101291999999REMMET006NOSIG?EQDQ01+000000PRSWM2
0138039620999991986010903004+52683-008917SY-MT+0020EINN V0201601N00311220001CN0150001N1+00621+00511101391ADDAG12000GA1031+009009059GF103991031051012501001001MA1101291999999MD1510021+9999MW1001REMSYN011333   83630MET006NOSIG?EQDQ01+000000PRSWM2
0065039620999991986010903304+52683-008917FM-15+0020EINN V0201801N00311999991CY0099001N1+00601+00501999999ADDAG11999MA1101291999999REMMET012CAVOK NOSIG?EQDQ01+000000PRSWM2
0138039620999991986010904004+52683-008917SY-MT+0020EINN V0201801N00361220001CN0250001N1+00641+00481101441ADDAG12999GA1021+013509059GF102991021051012501001001MA1101391999999MD1310031+9999MW1001REMSYN011333   82645MET006NOSIG?EQDQ01+000000PRSWM2
0091039620999991986010904304+52683-008917FM-15+0020EINN V0202001N00461007201CN0112001N1+00601+00501999999ADDAG12999GA1061+007209059GA2061+013509059MA1101391999999REMMET006NOSIG?EQDQ01+000000PRSWM2
0191039620999991986010905004+52683-008917SY-MT+0020EINN V0202001N00461003301CN0150001N1+00741+00561101471ADDAG12999AY151021AY211021GA1021+001509079GA2041+003309079GA3081+006009059GF108991081061001501999999MA1101391999999MD1210111+9999MW1501REMSYN023333   82705 84711 88620MET018TEMPO 7000?? 0116?
0106039620999991986010905304+52683-008917FM-15+0020EINN V0202101N00461004501CN0112001N1+00801+00601999999ADDAG12001GA1021+002709079GA2041+004509079GA3081+010509059MA1101391999999MW1201REMMET018TEMPO 7000?? 0116?
0245039620999991986010906004+52683-008917SY-MT+0020EINN V0202001N00511004501CN0250001N1+00841+00691101441ADDAA199000391AG10000AY151061AY211061GA1021+002709079GA2051+004509079GA3081+007509059GF108991081061002501999999IA1099IA2999+00109KA1120N+00251MA1101391999999MD1010061+9999MW1201REMSYN035333   20025 31001 82709 85715 88625MET018TEMPO 7000?? 0116?
0160039620999991986010907004+52683-008917SY-MT+0020EINN V0202001N00411009901CN0400001N1+00851+00731101451ADDAG12001GA1021+004509079GA2081+009909059GF108991081051004501999999MA1101391999999MD1310021+9999MW1001REMSYN017333   82715 88633MET006NOSIG?EQDQ01+000000PRSWM2
0160039620999991986010908004+52683-008917SY-MT+0020EINN V0202001N00411009001CN0500001N1+00851+00731101501ADDAG12999GA1021+006009059GA2071+009009059GF107991071051008001999999MA1101391999999MD1310041+9999MW1001REMSYN017333   82620 87630MET006NOSIG?EQDQ01+000000PRSWM2
0182039620999991986010909004+52683-008917SY-MT+0020EINN V0201601N00411006001CN0400001N1+00811+00701101521ADDAG12000GA1021+003609079GA2041+006009059GA3071+009609059GF107991071051004501999999MA1101491999999MD1210081+9999MW1001REMSYN023333   82712 84620 87632MET006NOSIG?EQDQ01+000000PRSWM2
0107039620999991986010909304+52683-008917FM-15+0020EINN V0201901N00261006001CN0112001N1+00801+00701999999ADDAG12999GA1021+004209079GA2031+006009059GA3051+010509059MA1101491999999REMMET006NOSIG?EQDQ01+000000PRSWM2
0183039620999991986010910004+52683-008917SY-MT+0020EINN V0201801N00511007501CN0300001N1+00871+00751101551ADDAG12999GA1021+004809079GA2031+007509059GA3061+030009049GF108991031051004501071071MA1101491999999MD1110101+9999MW1001REMSYN023333   82716 83625 86460MET007NO SIG?EQDQ01+000000PRSWM2
0183039620999991986010911004+52683-008917SY-MT+0020EINN V0201801N00411030001CN0300001N1+00941+00751101511ADDAG12999GA1011+003009079GA2031+009009059GA3061+030009049GF107991031051004501071081MA1101491999999MD1010011+9999MW1001REMSYN023333   81710 83630 86460MET007NO SIG?EQDQ01+000000PRSWM2
0194039620999991986010912004+52683-008917SY-MT+0020EINN V0201801N00151030001CN0300001N1+00961+00791101541ADDAA106000091AG14000GA1011+003009079GA2031+007509059GA3051+030009049GF107991041051004501071081MA1101491999999MD1110021+9999MW1001REMSYN023333   81710 83625 85460MET007NO SIG?EQDQ01+000000PRSWM2
0183039620999991986010913004+52683-008917SY-MT+0020EINN V0201801N00621007801CN0200001N1+01031+00731101471ADDAG12999GA1051+007809059GA2061+030009049GA3051+060009009GF107991051051008001071021MA1101391999999MD1810081+9999MW1001REMSYN023333   85626 86460 85070MET007NO SIG?EQDQ01+000000PRSWM2
0182039620999991986010914004+52683-008917SY-MT+0020EINN V0201801N00571006601CN0250001N1+01051+00721101441ADDAG12001GA1021+005409079GA2041+006609059GA3051+060009009GF107991051051004501071021MA1101391999999MD1810071+9999MW1001REMSYN023333   82718 84622 85070MET006NOSIG?EQDQ01+000000PRSWM2
0107039620999991986010914304+52683-008917FM-15+0020EINN V0201901N00361030001CN0112001N1+01001+00701999999ADDAG12000GA1041+006009059GA2031+030009049GA3061+060009009MA1101391999999REMMET006NOSIG?EQDQ01+000000PRSWM2
0199039620999991986010915004+52683-008917SY-MT+0020EINN V0201601N00411027001CN0250001N1+01001+00721101391ADDAG12000GA1021+005409079GA2051+027009039GA3061+060009009GF107991021061004501031021MA1101291999999MD1710151+9999MW1001OA149901031REMSYN029333   82718 84359 86070 91120MET006NOSIG?EQDQ01+000000PRSWM2
0182039620999991986010916004+52683-008917SY-MT+0020EINN V0201901N00571030001CN0300001N1+00961+00561101371ADDAG12999GA1011+004809079GA2031+015009059GA3051+030009039GF108991031051004501071071MA1101291999999MD1710101+9999MW1001REMSYN023333   81716 83650 85360MET006NOSIG?EQDQ01+000000PRSWM2
0182039620999991986010917004+52683-008917SY-MT+0020EINN V0201801N00511015001CN0300001N1+00901+00571101271ADDAG12001GA1011+004809079GA2051+015009059GA3081+030009049GF108991051051004501071999MA1101191999999MD1810171+9999MW1001REMSYN023333   81716 85650 88460MET006NOSIG?EQDQ01+000000PRSWM2
0212039620999991986010918004+52683-008917SY-MT+0020EINN V0201601N00671009001CN0300001N1+00921+00611101211ADDAA106000091AG14000GA1011+004509079GA2051+009009059GA3081+024009049GF108991051051004501071999KA1120M+01051MA1101191999999MD1610181+9999MW1001REMSYN029333   10105 81715 85630 88458MET006NOSIG?EQDQ01+000000PRSWM2
0182039620999991986010919004+52683-008917SY-MT+0020EINN V0201801N00871015001CN0300001N1+00991+00631101031ADDAG12999GA1031+007509059GA2041+015009059GA3081+024009049GF108991051051008001071999MA1101021999999MD1710341+9999MW1001REMSYN023333   83625 84650 88458MET006NOSIG?EQDQ01+000000PRSWM2
0107039620999991986010919304+52683-008917FM-15+0020EINN V0201801N01181015001CN0112001N1+01001+00601999999ADDAG12999GA1021+007509059GA2041+015009059GA3081+024009049MA1100911999999REMMET006NOSIG?EQDQ01+000000PRSWM2
0199039620999991986010920004+52683-008917SY-MT+0020EINN V0201801N01031015001CN0300001N1+00991+00651100861ADDAG12999GA1021+007509059GA2041+015009059GA3081+024009049GF108991051051008001071999MA1100811999999MD1710411+9999MW1001OA149901701REMSYN029333   82625 84650 88458 91133MET006NOSIG?EQDQ01+000000PRSWM2
0094039620999991986010920304+52683-008917FM-15+0020EINN V0201901N01081015001CN0112001N1+01001+00701999999ADDAG12003GA1021+007509059GA2041+015009059GA3081+024009049MA1100811999999MW1211REMMET006NOSIG?
0179039620999991986010921004+52683-008917SY-MT+0020EINN V0201801N01181010501CN0300001N1+01001+00681100801ADDAG12001AY161031AY221031GA1021+006009059GA2041+010509059GA3081+024009049GF108991051051008001071999MA1100711999999MD1710411+9999MW1211REMSYN023333   82620 84635 88458MET006NOSIG?
0107039620999991986010921304+52683-008917FM-15+0020EINN V0201801N01181010501CN0112001N1+01001+00701999999ADDAG12999GA1021+006009059GA2041+010509059GA3081+024009049MA1100611999999REMMET006NOSIG?EQDQ01+000000PRSWM2
0210039620999991986010922004+52683-008917SY-MT+0020EINN V0201701N00931006001CN0300001N1+00991+00781100571ADDAG12999AY181011AY221011GA1021+005109079GA2041+006009059GA3081+024009049GF108991061051004501071999GJ100189MA1100511999999MD1710461+9999MW1801OA149901651REMSYN035333   82717 84620 88458 94003 91132MET006NOSIG?
0094039620999991986010922304+52683-008917FM-15+0020EINN V0201701N00981006001CN0112001N1+01001+00801999999ADDAG11999GA1021+005109079GA2051+006009059GA3071+015009059MA1100411999999MW1801REMMET006NOSIG?
0196039620999991986010923004+52683-008917SY-MT+0020EINN V0201801N01031015001CN0250001N1+01031+00861100401ADDAG12999AY181021AY261021GA1011+003009079GA2031+006009059GA3071+015009059GF108991081051004501999999MA1100411999999MD1710471+9999MW1601OA149901601REMSYN029333   81710 83620 87650 91131MET006NOSIG?
0126039620999991986010923304+52683-008917FM-15+0020EINN V0201801N00931004501CN0112001N1+01001+00901999999ADDAG12002GA1021+002409079GA2031+004509079GA3071+015009059MA1100311999999MW1601REMMET038GRADU MAX        ?     35 7000 5ST010?
0239039620999991986011000004+52683-008917SY-MT+0020EINN V0201801N00931015001CN0200001N1+01051+00931100251ADDAA106002091AG10002AY181061AY261061GA1011+002409079GA2031+006009059GA3071+015009059GF108991081051002501999999MA1100201999999MD1710551+9999MW1611OA149901651REMSYN029333   81708 83620 87650 91132MET038GRADU MAX        ?     35 7000 5ST012?
0120039620999991986011000304+52683-008917FM-15+0020EINN V0201901N00931009901CN0112001N1+01101+01001999999ADDAG11999GA1031+005409079GA2051+009909059GA3081+018009049MA1100101999999MW1611REMMET032GRADU MAX 35 7000 5ST012?? 0116?
0199039620999991986011001004+52683-008917SY-MT+0020EINN V0201901N00931018001CN0200001N1+01091+00951100071ADDAG12001AY161011AY221011GA1041+007809059GA2081+018009049GF108991041051008001021999MA1100001999999MD1610501+9999MW1601OA149901491REMSYN023333   84626 88556 91129MET031GRADU MAX35 7000 5ST012?? 0116?
0120039620999991986011001304+52683-008917FM-15+0020EINN V0201901N01241004501CN0112001N1+01101+01001999999ADDAG11999GA1051+004509079GA2041+010509059GA3081+018009049MA1100001999999MW1621REMMET032GRADU MAX 35 7000 5ST012?? 0116?
0185039620999991986011002004+52683-008917SY-MT+0020EINN V0202101N00871001801CN0090001N1+01181+01131100041ADDAG12001AY161021AY261021GA1061+001809079GA2081+004209079GF108991081071002501999999MA1100001999999MD1610351+9999MW1611MW2631REMSYN017333   86706 88714MET028TEMPO MAX 35     ?     7000?
0090039620999991986011002304+52683-008917FM-15+0020EINN V0202201N01031005401CN0112001N1+01201+01101999999ADDAG12003GA1031+002109079GA2081+005409079MA1100001999999MW1211REMMET018TEMPO MAX35 7000#?
0223039620999991986011003004+52683-008917SY-MT+0020EINN V0202301N01291010501CN0200001N1+01231+01101099991ADDAG12001AY161031AY221031GA1031+004809079GA2051+010509059GA3081+018009059GF108991081051004501999999MA1099901999999MD1610261+9999MW1211OA149901801OC101801REMSYN029333   83716 85635 88656 91135MET025TEMPO 7000 5ST008?? 0116?
0102039620999991986011003304+52683-008917FM-15+0020EINN V0202301N01391005401CN0112001N1+01201+01101999999ADDAG11999GA1011+002709079GA2031+003909079GA3061+005409079MA1099901999999MW1601OC102111REMMET006NOSIG?
0226039620999991986011004004+52683-008917SY-MT+0020EINN V0202301N01181004801CN0200001N1+01231+01021099931ADDAG12999AY161011AY221011GA1021+003609079GA2041+004809079GA3081+024009049GF108991051061004501021999MA1099901999999MD1710141+9999MW1211OA149902261OA259901601REMSYN035333   82712 84716 88458 91144 91231MET019TEMPO MAX45?? 0116?
0114039620999991986011004304+52683-008917FM-15+0020EINN V0202601N01391002101CN0070001N1+01001+00901999999ADDAG12999GA1021+001509079GA2041+002109079GA3071+003609079MA1100001999999MW1581OC102571REMMET018GRADU 9999?? 0116?
0233039620999991986011005004+52683-008917SY-MT+0020EINN V0202501N01181003601CN0120001N1+00931+00721100091ADDAG12999AY161021AY221021GA1021+002109079GA2031+003609079GA3081+007509059GF108991081061002501999999MA1100001999999MD1310051+9999MW1581OA149902781OA259901851OC101851REMSYN047333   82707 83712 88625 91154 91236 91324 91327MET006NOSIG?
0120039620999991986011005304+52683-008917FM-15+0020EINN V0202401N01081006001CN0112001N1+00901+00701999999ADDAG12003GA1021+003609079GA2031+006009059GA3061+024009049MA1100001999999MW1211OC101601REMMET024MPO        ?     MAX 45?
0228039620999991986011006004+52683-008917SY-MT+0020EINN V0202401N01031075001CN0250001N1+00861+00601100081ADDAA199005091AG10001AY161061AY251061GA1021+004509079GA2031+075009009GF105991041051004501001021IA1099IA2999+00709KA1120N+00861MA1100001999999MD1310091+9999MW1211OA149901701REMSYN035333   20086 31007 82715 83075 91133MET006NOSIG?
0075039620999991986011006304+52683-008917FM-15+0020EINN V0202301N00771220001CN0112001N1+00901+00601999999ADDAG12999GA1011+004509079MA1100101999999REMMET006NOSIG?EQDQ01+000000PRSWM2
0086039620999991986011007004+52683-008917FM-12+0020EINN V0202401N00771220001CN0250001N9+00861+00651100151ADDAG12999GA1021+005409089GF102991021081004501001001MD1210221+9999REMSYN011333   82818
0169039620999991986011008004+52683-008917FM-12+0020EINN V0202601N01491005401CN0100001N9+00881+00621100261ADDAG12999AY181021AY281021GA1021+003909079GA2041+005409089GA3051+009009059GF107991071081004501999999MD1210171+9999MW1801OA149902211REMSYN029333   82713 84818 85630 91143
0062039620999991986011008304+52683-008917FM-15+0020EINN V0202501N01081220001CN0112001N1+00801+00601999999ADDAG12001GA1011+005409089MA1100201999999MW1251REMMET006NOSIG?
0196039620999991986011009004+52683-008917SY-MT+0020EINN V0202501N01291006001CN0200001N1+00811+00571100351ADDAG12002AY181031AY211031GA1021+003909079GA2031+006009089GA3051+012009059GF107991071081004501999999MA1100311999999MD1210271+9999MW1801OA149901851REMSYN029333   82713 83820 85640 91136MET006NOSIG?
0186039620999991986011010004+52683-008917SY-MT+0020EINN V0202501N01391220001CN0300001N1+00761+00341100451ADDAG12001AY181011AY211011GA1011+004509079GA2011+006009099GF104991041031004501001021MA1100411999999MD1210301+9999MW1271OA149902521OC101961REMSYN029333   81715 81920 91149 99720MET004SIG?
0182039620999991986011011004+52683-008917SY-MT+0020EINN V0202501N01131220001CN0200001N1+00921+00291100581ADDAG12001AY181021AY211021GA1011+006009099GA2021+006009089GF103991031031008001001001MA1100511999999MD1210321+9999MW1251OA149901961OC101801REMSYN023333   81920 82820 91138MET006NOSIG?
0094039620999991986011011304+52683-008917FM-15+0020EINN V0202501N01081015001CN0112001N1+00901+00401999999ADDAG12004GA1011+006009099GA2031+006009089GA3051+015009059MA1100511999999MW1801REMMET006NOSIG?
0199039620999991986011012004+52683-008917SY-MT+0020EINN V0202601N01181220001CN0200001N1+00871+00491100661ADDAA106002091AG10001AY181061AY211061GA1011+006009099GA2021+006009089GF104991041031008001001001MA1100611999999MD1210311+9999MW1251OA149902211OC101851REMSYN029333   81920 82820 91143 99720MET006NOSIG?
0182039620999991986011013004+52683-008917SY-MT+0020EINN V0202601N01131220001CN0200001N1+00901+00261100751ADDAG12999AY181011AY211011GA1011+006009099GA2011+006009089GF103991021031008001001021MA1100711999999MD1210301+9999MW1251OA149902061OC101751REMSYN023333   81920 81820 91140MET006NOSIG?
0152039620999991986011014004+52683-008917SY-MT+0020EINN V0202601N01181220001CN0200001N1+00881+00431100791ADDAG12001AY181021AY211021GA1011+006009099GF101991011031008001001001MA1100711999999MD1210211+9999MW1251OA149901851REMSYN017333   81920 91136MET006NOSIG?
0196039620999991986011015004+52683-008917SY-MT+0020EINN V0202501N01291012001CN0200001N1+00751+00351100841ADDAG12001AY181031AY211031GA1021+006009099GA2011+006009089GA3031+012009059GF105991051031008001999999MA1100811999999MD1210181+9999MW1251OA149902261REMSYN029333   82920 81820 83640 91144MET006NOSIG?
0155039620999991986011016004+52683-008917SY-MT+0020EINN V0202501N00981220001CN0300001N1+00801+00281100921ADDAG12001GA1021+006009099GF102991021031008001001001MA1100911999999MD1210171+9999MW1001OA149902011REMSYN017333   82920 91139MET006NOSIG?EQDQ01+000000PRSWM2
0152039620999991986011017004+52683-008917SY-MT+0020EINN V0202501N00821220001CN0300001N1+00671+00411101031ADDAG12001AY181021AY211021GA1011+006009099GF101991011031008001001001MA1101021999999MD1210231+9999MW1251OA149901851REMSYN017333   81920 91136MET006NOSIG?
0062039620999991986011017304+52683-008917FM-15+0020EINN V0202601N00821220001CN0112001N1+00701+00301999999ADDAG12001GA1011+006009099MA1101021999999MW1251REMMET006NOSIG?
0174039620999991986011018004+52683-008917SY-MT+0020EINN V0202501N00871220001CN0300001N1+00781+00281101041ADDAA199002091AG10001AY181061AY201061GA1011+006009099GF101991011031008001001001KA1120M+00931MA1101021999999MD1210201+9999MW1251OC101441REMSYN017333   10093 81920MET007NOSIG+?
0075039620999991986011018304+52683-008917FM-15+0020EINN V0202501N00981220001CN0112001N1+00701+00301999999ADDAG12999GA1011+006009099MA1101021999999REMMET006NOSIG?EQDQ01+000000PRSWM2
0160039620999991986011019004+52683-008917SY-MT+0020EINN V0202501N00771220001CN0300001N1+00721+00371101091ADDAG12001GA1011+006009099GA2031+054009009GF104991011031008001001021MA1101021999999MD1210161+9999MW1001REMSYN017333   81920 83068MET006NOSIG?EQDQ01+000000PRSWM2
0078039620999991986011019304+52683-008917FM-15+0020EINN V0202501N00881009001CN0112001N1+00701+00401999999ADDAG12999GA1031+006009099GA2051+009009059MA1101081999999MW1251REMMET006NOSIG?
0179039620999991986011020004+52683-008917SY-MT+0020EINN V0202301N00871011701CN0300001N1+00741+00411101101ADDAG12001AY181021AY221021GA1021+006009099GA2041+011709059GA3061+060009009GF107991051031008001999021MA1101021999999MD1010071+9999MW1251REMSYN023333   82920 84639 86080MET006NOSIG?
0094039620999991986011020304+52683-008917FM-15+0020EINN V0202301N00881006001CN0112001N1+00701+00401999999ADDAG12004GA1021+003309079GA2041+006009099GA3061+010209059MA1101081999999MW1801REMMET006NOSIG?
0157039620999991986011021004+52683-008917SY-MT+0020EINN V0202501N00771010501CN0300001N1+00701+00371101141ADDAG12001AY181031AY211031GA1021+006009099GA2051+010509059GF107991051031008001999021MA1101081999999MD1310091+9999MW1251REMSYN017333   82920 85634MET006NOSIG?
0094039620999991986011021304+52683-008917FM-15+0020EINN V0202401N00981005101CN0112001N1+00801+00301999999ADDAG12999GA1021+003309079GA2041+005109099GA3061+009909059MA1101081999999MW1251REMMET006NOSIG?
0237039620999991986011022004+52683-008917SY-MT+0020EINN V0202601N00771220001CN0300001N1+00611+00341101181ADDAG12999AY181011AY211011GA1011+003009079GA2031+005409099GF103991031031004501001001GJ101809MA1101081999999MD1310091+9999MW1271OA149901851OC101391REMSYN035333   81710 83918 94030 99720 91136MET041WS ON      ?     APPCH TEMPO 8000?? 0116?
0090039620999991986011022304+52683-008917FM-15+0020EINN V0202501N00821220001CN0112001N1+00701+00201999999ADDAG12999GA1021+005409099MA1101081999999MW1271REMMET034WS ON APPCH TEMPO      ?     8000?
0240039620999991986011023004+52683-008917SY-MT+0020EINN V0202601N01181005101CN0080001N1+00671+00361101161ADDAG12999AY111021AY211021GA1031+003609079GA2061+005109099GF107991071031004501999999MA1101081999999MD1010061+9999MW1801OA149902371OC102371REMSYN041333   83712 86917 91146 97170 97270 97470MET046VIS 10KM         ?     TO NE SE NW GRADU 9999?
0067039620999991986011023304+52683-008917FM-15+0020EINN V0202501N00671220001CN0112001N1+00501+00201999999ADDAG12001GA1021+005109099MA1101081999999MW1251REMMET011TEMPO 8000?
0152039620999991986011100004+52683-008917SY-MT+0020EINN V0202401N00771220001CN0300001N1+00581+00341101161ADDAA106002091AG10001AY181061AY211061GA1031+005409099GF103991031031004501001001MA1101081999999MD1010021+9999MW1251REMSYN017333   83918 99720MET006NOSIG?
0087039620999991986011100304+52683-008917FM-15+0020EINN V0202501N01181006001CN0112001N1+00601+00401999999ADDAG11999GA1051+006009099MA1101081999999MW1801OC101901REMMET023TEMPO 8000 87GR?? 0116?
