0192039620999991992010100004+52700-008917SY-MT+0020EINN V0202401N01181009001CN0250001N1+01031+00641102641ADDAA106999929AG13000GA1011+007509059GA2071+009009059GA3081+030009049GF108991071051008001071999MA1102611999999MD1610091+9999MW1001REMSYN023333   81625 87630 88460MET005NOSIGEQDQ01+000000PRSWM2
0106039620999991992010100304+52700-008917FM-15+0020EINN V0202301N00931006901CN0112001N1+01001+00701999999ADDAG11999GA1021+005409079GA2061+006909059GA3081+027009049MA1102611999999REMMET005NOSIGEQDQ01+000000PRSWM2
0159039620999991992010101004+52700-008917SY-MT+0020EINN V0202301N00871009001CN0260001N1+01041+00721102621ADDAG11999GA1031+006009059GA2071+009009059GF108991081051008001999999MA1102611999999MD1810011+9999MW1001REMSYN017333   83620 87630MET005NOSIGEQDQ01+000000PRSWM2
0090039620999991992010101304+52700-008917FM-15+0020EINN V0202301N00881009001CN0112001N1+01001+00701999999ADDAG11999GA1021+006909059GA2071+009009059MA1102611999999REMMET005NOSIGEQDQ01+000000PRSWM2
0181039620999991992010102004+52700-008917SY-MT+0020EINN V0202201N00931008401CN0300001N1+01031+00731102561ADDAG11999GA1021+006009059GA2061+008409059GA3071+015009059GF108991081051008001999999MA1102511999999MD1810081+9999MW1001REMSYN023333   82620 86628 87650MET005NOSIGEQDQ01+000000PRSWM2
0106039620999991992010102304+52700-008917FM-15+0020EINN V0202301N01031009001CN0112001N1+01001+00701999999ADDAG11000GA1021+006009059GA2061+009009059GA3071+015009059MA1102511999999REMMET005NOSIGEQDQ01+000000PRSWM2
0159039620999991992010103004+52700-008917SY-MT+0020EINN V0202301N00931007801CN0300001N1+01061+00731102561ADDAG12000GA1051+007809059GA2081+009609059GF108991081051008001999999MA1102511999999MD1710081+9999MW1001REMSYN017333   85626 88632MET005NOSIGEQDQ01+000000PRSWM2
0090039620999991992010103304+52700-008917FM-15+0020EINN V0202301N00931008101CN0112001N1+01101+00701999999ADDAG12999GA1061+008109059GA2071+009609059MA1102511999999REMMET005NOSIGEQDQ01+000000PRSWM2
0153039620999991992010104004+52700-008917SY-MT+0020EINN V0202401N00981007801CN0300001N1+01061+00751102551ADDAG12999GA1041+006009059GA2081+007809059GF108991081051008001999999MA1102511999999MD1610071+9999REMSYN017333   84620 88626MET005NOSIGEQDQ01+000000PRSWM2
0106039620999991992010104304+52700-008917FM-15+0020EINN V0202401N01081007501CN0112001N1+01101+00701999999ADDAG12999GA1031+006009059GA2051+007509059GA3081+009009059MA1102511999999REMMET005NOSIGEQDQ01+000000PRSWM2
0161039620999991992010105004+52700-008917SY-MT+0020EINN V0202301N00981009001CN0200001N1+01071+00741102501ADDAG12999GA1031+006009059GA2071+009009059GF108991081051008001999999MA1102511999999MD1810061+9999OC101541REMSYN017333   83620 87630MET005NOSIGEQDQ01+000000PRSWM2
0249039620999991992010106004+52700-008917SY-MT+0020EINN V0202301N01031009001CN0250001N1+01111+00781102521ADDAA199999929AG13000GA1011+004509079GA2031+006609059GA3081+009009059GF108991081051004501999999GJ100069IA1099IA2999+00509KA1120N+00701MA1102511999999MD1510041+9999MW1001REMSYN041333   20070 31005 55001 81715 83622 88630MET005NOSIGEQDQ01+000000PRSWM2
0098039620999991992010106304+52700-008917FM-15+0020EINN V0202401N01081006001CN0112001N1+01101+00801999999ADDAG11999GA1011+004509079GA2081+006009059MA1102511999999OC101651REMMET005NOSIGEQDQ01+000000PRSWM2
0156039620999991992010107004+52700-008917SY-MT+0020EINN V0202401N01081006001CN0150001N1+01081+00841102531ADDAG12999AY151011AY221011GA1031+003309079GA2081+006009059GF108991081051004501999999MA1102511999999MD1510021+9999MW1501REMSYN017333   83711 88620MET005NOSIG
0093039620999991992010107304+52700-008917FM-15+0020EINN V0202401N01081005401CN0112001N1+01101+00801999999ADDAG12999GA1021+004509079GA2031+005409079GA3081+007509059MA1102511999999MW1501REMMET005NOSIG
0156039620999991992010108004+52700-008917SY-MT+0020EINN V0202401N00981006001CN0200001N1+01071+00831102541ADDAG12999AY151021AY221021GA1031+003609079GA2081+006009059GF108991081051004501999999MA1102511999999MD1010041+9999MW1501REMSYN017333   83712 88620MET005NOSIG
0077039620999991992010108304+52700-008917FM-15+0020EINN V0202301N00821007201CN0112001N1+01101+00801999999ADDAG12000GA1031+005409079GA2081+007209059MA1102511999999MW1201REMMET005NOSIG
0178039620999991992010109004+52700-008917SY-MT+0020EINN V0202301N00821006001CN0200001N1+01101+00771102581ADDAG12000AY151031AY221031GA1021+005409079GA2041+006009059GA3071+010509059GF107991071051004501999999MA1102511999999MD1210061+9999MW1201REMSYN023333   82718 84620 87635MET005NOSIG
0106039620999991992010109304+52700-008917FM-15+0020EINN V0202301N00881007501CN0112001N1+01101+00801999999ADDAG11999GA1031+005409079GA2051+007509059GA3071+010509059MA1102611999999REMMET005NOSIGEQDQ01+000000PRSWM2
0153039620999991992010110004+52700-008917SY-MT+0020EINN V0202301N00931015001CN0200001N1+01091+00741102611ADDAG11999GA1031+007509059GA2061+015009059GF107991071051008001999999MA1102611999999MD1210081+9999REMSYN017333   83625 86650MET005NOSIGEQDQ01+000000PRSWM2
0090039620999991992010110304+52700-008917FM-15+0020EINN V0202401N01081015001CN0112001N1+01101+00701999999ADDAG12999GA1031+007509059GA2061+015009059MA1102611999999REMMET005NOSIGEQDQ01+000000PRSWM2
0169039620999991992010111004+52700-008917SY-MT+0020EINN V0202401N01031015001CN0250001N1+01131+00691102601ADDAG11999GA1021+007509059GA2041+015009059GF106991051051008001999011MA1102611999999MD1110061+9999REMSYN017333   82625 84650MET005NOSIGEQDQ01+000000PRSWM2Q02    003SCOMCG
0106039620999991992010111304+52700-008917FM-15+0020EINN V0202401N01031015001CN0112001N1+01101+00701999999ADDAG11000GA1021+007509059GA2041+015009059GA3051+075009009MA1102611999999REMMET005NOSIGEQDQ01+000000PRSWM2
0210039620999991992010112004+52700-008917SY-MT+0020EINN V0202501N01031015001CN0250001N1+01131+00641102581ADDAA106999929AG10000AY151061AY221061GA1031+007509059GA2031+015009059GF106991051051008001999021MA1102511999999MD1010001+9999MW1021OC101701REMSYN017333   83625 83650MET005NOSIGEQDQ01+000000PRSWM2Q02    003SCOMCG
0098039620999991992010112304+52700-008917FM-15+0020EINN V0202301N00721015001CN0112001N1+01101+00701999999ADDAG11999GA1031+007509059GA2031+015009059MA1102511999999OC101291REMMET005NOSIGEQDQ01+000000PRSWM2
0175039620999991992010113004+52700-008917SY-MT+0020EINN V0202301N00671015001CN0250001N1+01091+00741102551ADDAG12999GA1031+007509059GA2031+015009059GF106991051051008001999021MA1102511999999MD1810061+9999MW1001REMSYN017333   83625 83650MET005NOSIGEQDQ01+000000PRSWM2Q02    003SCOMCG
0098039620999991992010113304+52700-008917FM-15+0020EINN V0202401N00981015001CN0112001N1+01101+00701999999ADDAG11999GA1021+007509059GA2031+015009059MA1102511999999OC101491REMMET005NOSIGEQDQ01+000000PRSWM2
0159039620999991992010114004+52700-008917SY-MT+0020EINN V0202401N01031008401CN0250001N1+01111+00691102461ADDAG12999GA1051+008409059GA2031+015009059GF106991061051008001999021MA1102401999999MD1810141+9999MW1001REMSYN017333   85628 83650MET005NOSIGEQDQ01+000000PRSWM2
0090039620999991992010114304+52700-008917FM-15+0020EINN V0202401N01031008401CN0112001N1+01101+00701999999ADDAG11000GA1061+008409059GA2031+015009059MA1102401999999REMMET005NOSIGEQDQ01+000000PRSWM2
0090039620999991992010115004+52700-008917FM-15+0020EINN V0202401N01181008401CN0112001N1+01101+00701999999ADDAG12000GA1051+008409059GA2031+015009059MA1102401999999REMMET005NOSIGEQDQ01+000000PRSWM2
0090039620999991992010115304+52700-008917FM-15+0020EINN V0202301N00931015001CN0112001N1+01101+00701999999ADDAG12999GA1021+008409059GA2031+015009059MA1102401999999REMMET005NOSIGEQDQ01+000000PRSWM2
0169039620999991992010116004+52700-008917SY-MT+0020EINN V0202301N01031220001CN0250001N1+01111+00641102421ADDAG12999GA1021+008409059GA2031+015009059GF103991031051008001999021MA1102401999999MD1610131+9999REMSYN017333   82628 83650MET005NOSIGEQDQ01+000000PRSWM2Q02    003SCOMCG
0090039620999991992010116304+52700-008917FM-15+0020EINN V0202501N01241015001CN0112001N1+01101+00601999999ADDAG11999GA1021+008409059GA2031+015009059MA1102301999999REMMET005NOSIGEQDQ01+000000PRSWM2
0177039620999991992010117004+52700-008917SY-MT+0020EINN V0202401N01031220001CN0250001N1+01101+00631102381ADDAG12999GA1011+008409059GA2031+015009059GF103991031051008001999021MA1102301999999MD1510081+9999OC101601REMSYN017333   81628 83650MET005NOSIGEQDQ01+000000PRSWM2Q02    003SCOMCG
0090039620999991992010117304+52700-008917FM-15+0020EINN V0202201N00821220001CN0112001N1+01101+00701999999ADDAG11000GA1011+008409059GA2031+015009059MA1102301999999REMMET005NOSIGEQDQ01+000000PRSWM2
0183039620999991992010118004+52700-008917SY-MT+0020EINN V0202201N00721008101CN0200001N1+01071+00651102361ADDAA199999929AG10000GA1061+008109059GA2031+015009059GF107991071051008001999999KA1120M+01141MA1102301999999MD1810061+9999REMSYN023333   10114 86627 83650MET005NOSIGEQDQ01+000000PRSWM2
0074039620999991992010118304+52700-008917FM-15+0020EINN V0202101N00771007801CN0112001N1+01101+00701999999ADDAG12999GA1071+007809059MA1102301999999REMMET005NOSIGEQDQ01+000000PRSWM2
0131039620999991992010119004+52700-008917SY-MT+0020EINN V0202201N00671007801CN0300001N1+01091+00691102381ADDAG12999GA1081+007809059GF108991081051008001999999MA1102301999999MD1610041+9999REMSYN011333   88626MET005NOSIGEQDQ01+000000PRSWM2
0090039620999991992010119304+52700-008917FM-15+0020EINN V0201901N00621015001CN0112001N1+01101+00701999999ADDAG12999GA1041+007509059GA2061+015009059MA1102301999999REMMET005NOSIGEQDQ01+000000PRSWM2
0175039620999991992010120004+52700-008917SY-MT+0020EINN V0202001N00621009001CN0300001N1+01081+00701102331ADDAG12999GA1031+007209059GA2031+009009059GA3051+015009059GF107991071051008001999999MA1102301999999MD1810051+9999REMSYN023333   83624 83630 85650MET005NODIGEQDQ01+000000PRSWM2
0090039620999991992010120304+52700-008917FM-15+0020EINN V0202001N00671007501CN0112001N1+01101+00701999999ADDAG12000GA1061+007509059GA2061+015009059MA1102301999999REMMET005NOSIGEQDQ01+000000PRSWM2
0175039620999991992010121004+52700-008917SY-MT+0020EINN V0202001N00721010501CN0300001N1+01101+00681102291ADDAG12000GA1031+006909059GA2061+010509059GA3061+018009059GF108991081051008001999999MA1102201999999MD1810071+9999REMSYN023333   83623 86635 86656MET005NOSIGEQDQ01+000000PRSWM2
0074039620999991992010121304+52700-008917FM-15+0020EINN V0202001N00671006001CN0112001N1+01101+00701999999ADDAG12999GA1071+006009059MA1102201999999REMMET005NOSIGEQDQ01+000000PRSWM2
0162039620999991992010122004+52700-008917SY-MT+0020EINN V0202201N00871005401CN0300001N1+01121+00741102231ADDAG12999GA1061+005409079GA2061+008409059GF107991071061004501999999MA1102201999999MD1710151+9999OC101391REMSYN017333   86718 86628MET006NOSIG+EQDQ01+000000PRSWM2
0090039620999991992010122304+52700-008917FM-15+0020EINN V0202101N00821005101CN0112001N1+01101+00801999999ADDAG12999GA1051+005109079GA2061+007509059MA1102201999999REMMET005NOSIGEQDQ01+000000PRSWM2
0153039620999991992010123004+52700-008917SY-MT+0020EINN V0202201N00931005101CN0300001N1+01101+00791102201ADDAG12999GA1061+005109079GA2061+007509059GF107991071061004501999999MA1102201999999MD1710131+9999REMSYN017333   86717 86625MET005NOSIGEQDQ01+000000PRSWM2
0099039620999991992010123304+52700-008917FM-15+0020EINN V0202301N00981008401CN0112001N1+01101+00701999999ADDAG11000GA1041+005109079GA2071+008409059MA1102201999999OC101541REMMET006NOSIG+EQDQ01+000000PRSWM2
0170039620999991992010200004+52700-008917SY-MT+0020EINN V0202301N01081009001CN0300001N1+01131+00671102171ADDAA106000091AG14000GA1021+005409079GA2071+009009059GF107991071051004501999999MA1102101999999MD1710121+9999MW1001REMSYN017333   82718 87630MET005NOSIGEQDQ01+000000PRSWM2
0106039620999991992010200304+52700-008917FM-15+0020EINN V0202201N00931024001CN0112001N1+01101+00701999999ADDAG11999GA1011+005409079GA2031+009009059GA3071+024009049MA1102101999999REMMET005NOSIGEQDQ01+000000PRSWM2
0159039620999991992010201004+52700-008917SY-MT+0020EINN V0202201N01031008701CN0250001N1+01121+00651102121ADDAG11999GA1071+008709059GA2071+024009049GF108991071051008001021999MA1102101999999MD1710111+9999MW1001REMSYN017333   87629 87458MET005NOSIGEQDQ01+000000PRSWM2
0098039620999991992010201304+52700-008917FM-15+0020EINN V0202201N00981008701CN0112001N1+01101+00601999999ADDAG11999GA1071+008709059GA2061+024009049MA1102001999999OC101541REMMET005NOSIGEQDQ01+000000PRSWM2
0153039620999991992010202004+52700-008917SY-MT+0020EINN V0202101N00871009001CN0250001N1+01121+00631102091ADDAG11999GA1041+006909059GA2071+009009059GF107991071051008001999999MA1102001999999MD1610111+9999REMSYN017333   84623 87630MET005NOSIGEQDQ01+000000PRSWM2
0090039620999991992010202304+52700-008917FM-15+0020EINN V0202101N00821012601CN0112001N1+01101+00701999999ADDAG11000GA1031+006909059GA2071+012609059MA1102001999999REMMET005NOSIGEQDQ01+000000PRSWM2
0181039620999991992010203004+52700-008917SY-MT+0020EINN V0202101N00931009001CN0250001N1+01101+00721102041ADDAG11000GA1031+006909059GA2031+009009059GA3071+024009049GF108991051051008001021999MA1102001999999MD1710131+9999MW1001REMSYN023333   83623 83630 87458MET005NOSIGEQDQ01+000000PRSWM2
0106039620999991992010203304+52700-008917FM-15+0020EINN V0202101N00931009001CN0112001N1+01101+00701999999ADDAG12999GA1031+006309059GA2031+009009059GA3071+024009049MA1102001999999REMMET005NOSIGEQDQ01+000000PRSWM2
0159039620999991992010204004+52700-008917SY-MT+0020EINN V0202201N00931024001CN0250001N1+01101+00751101981ADDAG11999GA1021+006309059GA2071+024009049GF108991031051008001021999MA1101901999999MD1710141+9999MW1001REMSYN017333   82621 87458MET005NOSIGEQDQ01+000000PRSWM2
0093039620999991992010204304+52700-008917FM-15+0020EINN V0202301N01031006301CN0112001N1+01101+00801999999ADDAG11999GA1011+004809079GA2061+006309059GA3071+015009059MA1101901999999MW1211REMMET005NOSIG
0156039620999991992010205004+52700-008917SY-MT+0020EINN V0202201N00931006001CN0250001N1+01091+00821101951ADDAG12999AY161021AY221021GA1021+004809079GA2081+006009059GF108991081051004501999999MA1101901999999MD1710141+9999MW1211REMSYN017333   82716 88620MET005NOSIG
0074039620999991992010205304+52700-008917FM-15+0020EINN V0202101N00931005401CN0112001N1+01101+00801999999ADDAG11000GA1081+005409079MA1101901999999REMMET005NOSIGEQDQ01+000000PRSWM2
0243039620999991992010206004+52700-008917SY-MT+0020EINN V0202101N00871004801CN0300001N1+01121+00831101941ADDAA199999929AG19001AY161061AY221061GA1051+004809079GA2081+006009059GF108991081061004501999999GJ100009IA1099IA2999+00909KA1120N+01041MA1101901999999MD1510101+9999MW1021REMSYN035333   20104 31009 55000 85716 88620MET005NOSIGEQDQ01+000000PRSWM2
0175039620999991992010207004+52700-008917SY-MT+0020EINN V0202201N00821006601CN0300001N1+01131+00841101911ADDAG12999GA1031+004509079GA2031+006609059GA3061+009009059GF107991071051004501999999MA1101901999999MD1710071+9999REMSYN023333   83715 83622 86630MET005NOSIGEQDQ01+000000PRSWM2
0090039620999991992010207304+52700-008917FM-15+0020EINN V0202301N00821006301CN0112001N1+01201+00901999999ADDAG12999GA1021+004509079GA2081+006309059MA1101901999999REMMET005NOSIGEQDQ01+000000PRSWM2
0175039620999991992010208004+52700-008917SY-MT+0020EINN V0202201N00721006601CN0300001N1+01181+00841101901ADDAG12999GA1021+004509079GA2031+006609059GA3081+010509059GF108991081051004501999999MA1101901999999MD1710051+9999REMSYN023333   82715 83622 88635MET005NOSIGEQDQ01+000000PRSWM2
0106039620999991992010208304+52700-008917FM-15+0020EINN V0202101N00821006001CN0112001N1+01201+00901999999ADDAG11000GA1011+005409079GA2051+006009059GA3081+010509059MA1101801999999REMMET005NOSIGEQDQ01+000000PRSWM2
0178039620999991992010209004+52700-008917SY-MT+0020EINN V0202201N00821006601CN0350001N1+01181+00861101881ADDAG12000AY121031AY221031GA1031+005409079GA2051+006609059GA3081+010509059GF108991081051004501999999MA1101801999999MD1710061+9999MW1601REMSYN023333   83718 85622 88635MET005NOSIG
0077039620999991992010209304+52700-008917FM-15+0020EINN V0202201N00821006601CN0112001N1+01201+00901999999ADDAG12999GA1041+005409079GA2081+006609059MA1101901999999MW1211REMMET005NOSIG
0156039620999991992010210004+52700-008917SY-MT+0020EINN V0202201N00671006301CN0300001N1+01191+00891101911ADDAG12999AY161011AY221011GA1041+005109079GA2071+006309059GF108991081061004501999999MA1101901999999MD1510001+9999MW1601REMSYN017333   84717 87621MET005NOSIG
0077039620999991992010210304+52700-008917FM-15+0020EINN V0202201N00721006001CN0112001N1+01201+00901999999ADDAG12999GA1041+004509079GA2071+006009059MA1101901999999MW1601REMMET005NOSIG
0178039620999991992010211004+52700-008917SY-MT+0020EINN V0202201N00721006601CN0250001N1+01201+00921101901ADDAG12999AY161021AY221021GA1031+004509079GA2051+006609059GA3071+015009059GF108991081051004501999999MA1101901999999MD1510001+9999MW1211REMSYN023333   83715 85622 87650MET005NOSIG
0101039620999991992010211304+52700-008917FM-15+0020EINN V0202201N00931006601CN0112001N1+01201+00901999999ADDAG11000GA1041+004509079GA2051+006609059GA3081+015009059MA1101801999999MW1501OC101541REMMET005NOSIG
0189039620999991992010212004+52700-008917SY-MT+0020EINN V0202101N00931006601CN0300001N1+01251+00961101851ADDAA106999929AG19001AY161061AY251061GA1021+004509079GA2051+006609059GA3071+015009059GF107991071051004501999999MA1101801999999MD1810031+9999MW1501REMSYN023333   82715 85622 87650MET005NOSIG
0077039620999991992010212304+52700-008917FM-15+0020EINN V0202101N00931006601CN0112001N1+01301+00901999999ADDAG11999GA1051+006609059GA2051+015009059MA1101801999999MW1201REMMET005NOSIG
0156039620999991992010213004+52700-008917SY-MT+0020EINN V0202201N01031015001CN0300001N1+01301+00911101781ADDAG12041AY151011AY221011GA1041+006309059GA2051+015009059GF107991071051008001999999MA1101691999999MD1810131+9999MW1201REMSYN017333   84621 85650MET005NOSIG
0106039620999991992010213304+52700-008917FM-15+0020EINN V0202201N00981015001CN0112001N1+01301+00901999999ADDAG11999GA1041+007509059GA2051+015009059GA3051+075009009MA1101691999999REMMET005NOSIGEQDQ01+000000PRSWM2
0181039620999991992010214004+52700-008917SY-MT+0020EINN V0202301N00931006601CN0300001N1+01301+00911101721ADDAG12999GA1051+006609059GA2051+015009059GA3061+060009029GF107991071051008001999061MA1101691999999MD1710181+9999MW1001REMSYN023333   85622 85650 86270MET005NOSIGEQDQ01+000000PRSWM2
0106039620999991992010214304+52700-008917FM-15+0020EINN V0202201N01031006601CN0112001N1+01301+00901999999ADDAG12000GA1051+006609059GA2051+015009059GA3061+060009029MA1101691999999REMMET005NOSIGEQDQ01+000000PRSWM2
0175039620999991992010215004+52700-008917SY-MT+0020EINN V0202201N00871006601CN0300001N1+01311+00921101691ADDAG12000AY151031AY221031GA1061+006609059GA2061+015009059GF107991071051008001999999MA1101591999999MD1710161+9999MW1021REMSYN017333   86622 86650MET005NOSIGEQDQ01+000000PRSWM2
0091039620999991992010215304+52700-008917FM-15+0020EINN V0202201N00981006601CN0112001N1+01301+00901999999ADDAG12999GA1061+006609059GA2061+015009059MA1101591999999REMMET006NOSIG+EQDQ01+000000PRSWM2
0156039620999991992010216004+52700-008917SY-MT+0020EINN V0202301N01031006601CN0250001N1+01301+00911101661ADDAG12037AY151011AY221011GA1061+006609059GA2061+015009059GF108991081051008001999999MA1101591999999MD1710121+9999MW1501REMSYN017333   86622 86650MET005NOSIG
0077039620999991992010216304+52700-008917FM-15+0020EINN V0202201N00981005401CN0112001N1+01301+00901999999ADDAG12999GA1051+005409079GA2061+007809059MA1101591999999MW1501REMMET005NOSIG
0152039620999991992010217004+52700-008917FM-12+0020EINN V0202201N01031015001CN0300001N9+01271+00941101611ADDAG12041AY151021AY221021GA1011+005409079GA2031+007509059GA3061+015009059GF107991071051004501999999MD1710101+9999MW1201REMSYN023333   81718 83625 86650
0101039620999991992010217304+52700-008917FM-15+0020EINN V0202201N01031006601CN0112001N1+01301+01001999999ADDAG11000GA1031+004809079GA2061+006609059GA3071+012609059MA1101491999999MW1601OC101601REMMET005NOSIG
0208039620999991992010218004+52700-008917SY-MT+0020EINN V0202101N01031006001CN0200001N1+01251+00981101571ADDAA199999929AG10001AY161061AY251061GA1021+004209079GA2051+006009059GA3071+012009059GF108991081051004501999999KA1120M+01341MA1101491999999MD1710111+9999MW1501REMSYN029333   10134 82714 85620 87640MET005NOSIG
0085039620999991992010218304+52700-008917FM-15+0020EINN V0202201N01081006001CN0112001N1+01301+01001999999ADDAG11999GA1021+004209079GA2071+006009059MA1101491999999MW1501OC101651REMMET005NOSIG
0178039620999991992010219004+52700-008917SY-MT+0020EINN V0202301N01081006601CN0250001N1+01261+00951101521ADDAG12999AY151011AY221011GA1021+004809079GA2051+006609059GA3071+015009059GF108991081051004501999999MA1101491999999MD1710131+9999MW1201REMSYN023333   82716 85622 87650MET005NOSIG
0106039620999991992010219304+52700-008917FM-15+0020EINN V0202201N01081006601CN0112001N1+01301+00901999999ADDAG11999GA1021+004809079GA2061+006609059GA3071+015009059MA1101491999999REMMET005NOSIGEQDQ01+000000PRSWM2
0175039620999991992010220004+52700-008917SY-MT+0020EINN V0202201N01131007801CN0250001N1+01281+00951101491ADDAG12999GA1021+005109079GA2051+007809059GA3071+013509059GF108991081051004501999999MA1101391999999MD1710121+9999REMSYN023333   82717 85626 87645MET005NOSIGEQDQ01+000000PRSWM2
0090039620999991992010220304+52700-008917FM-15+0020EINN V0202201N01131007801CN0112001N1+01301+01001999999ADDAG11000GA1021+004509079GA2071+007809059MA1101391999999REMMET005NOSIGEQDQ01+000000PRSWM2
0178039620999991992010221004+52700-008917SY-MT+0020EINN V0202201N01181004801CN0200001N1+01231+00971101501ADDAG12000AY151031AY221031GA1021+002409079GA2051+004809079GA3071+007209059GF108991081061002501999999MA1101491999999MD1610081+9999MW1501REMSYN023333   82708 85716 87624MET005NOSIG
0101039620999991992010221304+52700-008917FM-15+0020EINN V0202101N01031004801CN0112001N1+01301+01001999999ADDAG11999GA1021+002409079GA2051+004809079GA3071+007209059MA1101391999999MW1201OC101541REMMET005NOSIG
0153039620999991992010222004+52700-008917SY-MT+0020EINN V0202101N01231004501CN0200001N1+01251+00961101441ADDAG12999GA1061+004509079GA2081+007509059GF108991081061004501999999MA1101391999999MD1810081+9999REMSYN017333   86715 88625MET005NOSIGEQDQ01+000000PRSWM2
0098039620999991992010222304+52700-008917FM-15+0020EINN V0202201N01181004801CN0112001N1+01201+00901999999ADDAG11999GA1061+004809079GA2081+007509059MA1101391999999OC101751REMMET005NOSIGEQDQ01+000000PRSWM2
0170039620999991992010223004+52700-008917SY-MT+0020EINN V0202301N01181005101CN0200001N1+01251+00921101411ADDAG12999GA1061+005109079GA2081+008109059GF108991081061004501999999MA1101391999999MD1810081+9999OA149901751REMSYN023333   86717 88627 91134MET005NOSIGEQDQ01+000000PRSWM2
0098039620999991992010223304+52700-008917FM-15+0020EINN V0202201N01081005401CN0112001N1+01301+00901999999ADDAG11000GA1061+005409079GA2081+008109059MA1101291999999OC101601REMMET005NOSIGEQDQ01+000000PRSWM2
0209039620999991992010300004+52700-008917SY-MT+0020EINN V0202201N01031006001CN0300001N1+01271+00941101381ADDAA106999929AG19000AY151061AY221061GA1061+006009059GA2081+009009059GF108991081051008001999999MA1101291999999MD1610111+9999MW1021OA140101851REMSYN029333   86620 88630 90710 91136MET005NOSIGEQDQ01+000000PRSWM2
0082039620999991992010300304+52700-008917FM-15+0020EINN V0202201N01241005701CN0112001N1+01301+00901999999ADDAG11999GA1081+005709059MA1101291999999OC101801REMMET005NOSIGEQDQ01+000000PRSWM2
0162039620999991992010301004+52700-008917SY-MT+0020EINN V0202201N01291006001CN0250001N1+01261+00931101321ADDAG11999GA1081+006009059GF108991081051008001999999MA1101291999999MD1710121+9999MW1001OA149902011OC101901REMSYN017333   88620 91139MET005NOSIGEQDQ01+000000PRSWM2
0082039620999991992010301304+52700-008917FM-15+0020EINN V0202301N01241006001CN0112001N1+01301+00901999999ADDAG11999GA1081+006009059MA1101191999999OC101851REMMET005NOSIGEQDQ01+000000PRSWM2
0210039620999991992010302004+52700-008917SY-MT+0020EINN V0202201N01181003601CN0200001N1+01231+00951101261ADDAG12999AY151021AY221021GA1031+002109079GA2051+003609079GA3071+004509079GF108991081061002501999999MA1101191999999MD1710161+9999MW1501OA149901961OC101751REMSYN029333   83707 85712 87715 91138MET012TEMPO 5ST006
0077039620999991992010302304+52700-008917FM-15+0020EINN V0202201N01031005401CN0112001N1+01201+01001999999ADDAG11000GA1031+003009079GA2071+005409079MA1101191999999MW1201REMMET005NOSIG
0173039620999991992010303004+52700-008917SY-MT+0020EINN V0202201N01131006001CN0200001N1+01281+00991101151ADDAG12000AY151031AY221031GA1031+003009079GA2081+006009059GF108991081051004501999999MA1101081999999MD1710231+9999MW1201OA149901751REMSYN023333   83710 88620 91134MET005NOSIG
0098039620999991992010303304+52700-008917FM-15+0020EINN V0202201N01181006001CN0112001N1+01301+01001999999ADDAG11999GA1031+003009079GA2081+006009059MA1101081999999OC101701REMMET005NOSIGEQDQ01+000000PRSWM2
0161039620999991992010304004+52700-008917SY-MT+0020EINN V0202201N01291005101CN0250001N1+01271+00981101071ADDAG11999GA1031+003009079GA2081+005109079GF108991081061004501999999MA1101021999999MD1710251+9999OC101801REMSYN017333   83710 88717MET005NOSIGEQDQ01+000000PRSWM2
0087039620999991992010304304+52700-008917FM-15+0020EINN V0202101N01241003601CN0112001N1+01201+01001999999ADDAG11999GA1031+002109079GA2041+003609079GA3081+004809079MA1101021999999MW1581OC101751
0186039620999991992010305004+52700-008917SY-MT+0020EINN V0202101N01081006001CN0250001N1+01241+01011101041ADDAG12999AY161021AY251021GA1031+005109079GA2081+006009059GF108991081051004501999999MA1101021999999MD1710221+9999MW1211OA149901851REMSYN023333   83717 88620 91136MET018TEMPO 5ST006     ?
0090039620999991992010305304+52700-008917FM-15+0020EINN V0202201N01131006001CN0112001N1+01301+01001999999ADDAG11000GA1021+002109079GA2081+006009059MA1101021999999MW1211REMMET018TEMPO 5ST006     ?
0266039620999991992010306004+52700-008917SY-MT+0020EINN V0202201N01291006001CN0250001N1+01251+00941100991ADDAA199000391AG10001AY161061AY251061GA1021+005109079GA2081+006009059GF108991081051004501999999GJ100009IA1099IA2999+01009KA1120N+01151MA1100911999999MD1710161+9999MW1021OA140101851REMSYN047333   20115 31010 55000 82717 88620 90710 91136MET005NOSIGEQDQ01+000000PRSWM2
0090039620999991992010306304+52700-008917FM-15+0020EINN V0202101N01031006001CN0112001N1+01301+00901999999ADDAG12999GA1041+005409079GA2081+006009059MA1101021999999REMMET005NOSIGEQDQ01+000000PRSWM2
0173039620999991992010307004+52700-008917SY-MT+0020EINN V0202101N01181006001CN0200001N1+01261+00951101001ADDAG12999AY151011AY221011GA1041+005409079GA2081+006009059GF108991081061004501999999MA1101021999999MD1610071+9999MW1501OA149901801REMSYN023333   84718 88620 91135MET005NOSIG
0085039620999991992010307304+52700-008917FM-15+0020EINN V0202101N01181006001CN0112001N1+01301+00901999999ADDAG12999GA1031+005409079GA2081+006009059MA1100911999999MW1201OC101901REMMET005NOSIG
0085039620999991992010308004+52700-008917FM-15+0020EINN V0202201N01131006001CN0112001N1+01301+01001999999ADDAG12999GA1031+004509079GA2081+006009059MA1100911999999MW1601OC101701REMMET005NOSIG
0085039620999991992010308304+52700-008917FM-15+0020EINN V0202301N01031004501CN0112001N1+01201+01001999999ADDAG12000GA1051+004509079GA2081+006009059MA1100911999999MW1601OC101751REMMET005NOSIG
0179039620999991992010309004+52700-008917SY-MT+0020EINN V0202301N01291004501CN0100001N1+01231+01001100961ADDAG12001AY161031AY251031GA1051+004509079GA2081+006009059GF108991081061004501999999MA1100911999999MD1510041+9999MW1211OA140102011REMSYN029333   85715 88620 90710 91139MET005TEMPO
0108039620999991992010309304+52700-008917FM-15+0020EINN V0202401N01291004501CN0060001N1+01201+01001999999ADDAG12999GA1031+003009079GA2051+004509079GA3081+006009059MA1101021999999MW1581OC101961REMMET012TEMPO 6ST007
0185039620999991992010310004+52700-008917SY-MT+0020EINN V0203001N00571001801CN0070001N1+00901+00781101081ADDAG12999AY161011AY251011GA1051+001809079GA2071+003309079GF108991081071002501999999MA1101021999999MD1310071+9999MW1581OA149901961REMSYN035333   85706 87711 91607 91138 99703MET005NOSIG
0077039620999991992010310304+52700-008917FM-15+0020EINN V0203101N00361001801CN0070001N1+00901+00801999999ADDAG12999GA1021+001209079GA2081+001809079MA1101081999999MW1531REMMET005NOSIG
0156039620999991992010311004+52700-008917SY-MT+0020EINN V0202601N00261002101CN0050001N1+00831+00741101181ADDAG12999AY161021AY251021GA1031+001209079GA2081+002109079GF108991081071001501999999MA1101081999999MD1310221+9999MW1591REMSYN017333   83704 88707MET005NOSIG
0077039620999991992010311304+52700-008917FM-15+0020EINN V0202701N00511002401CN0040001N1+00801+00701999999ADDAG12000GA1031+001209079GA2071+002409079MA1101191999999MW1581REMMET005NOSIG
0182039620999991992010312004+52700-008917SY-MT+0020EINN V0202501N00261001801CN0030001N1+00801+00761101161ADDAA106002091AG10002AY161061AY251061GA1041+001209079GA2081+001809079GF108991081071001501999999MA1101081999999MD1010201+9999MW1591REMSYN017333   84704 88706MET020TEMPO      ?     6ST
0077039620999991992010312304+52700-008917FM-15+0020EINN V0202501N00311001501CN0040001N1+00801+00801999999ADDAG12999GA1031+000909079GA2081+001509079MA1101081999999MW1551REMMET005NOSIG
0190039620999991992010313004+52700-008917SY-MT+0020EINN V0202601N00571001801CN0070001N1+00811+00721101151ADDAG12999AY161011AY251011GA1021+001209079GA2051+001809079GA3071+003009079GF108991081071001501999999MA1101081999999MD1110071+9999MW1611REMSYN023333   82704 85706 87710MET017TEMPO 3000 6ST004
0077039620999991992010313304+52700-008917FM-15+0020EINN V0202601N00571021001CN0112001N1+00801+00701999999ADDAG12999GA1031+002409079GA2081+021009049MA1101081999999MW1611REMMET005NOSIG
0178039620999991992010314004+52700-008917SY-MT+0020EINN V0202601N00571003301CN0150001N1+00781+00651101131ADDAG12999AY161021AY261021GA1031+002109079GA2061+003309079GA3081+015009049GF108991071071002501021999MA1101081999999MD1810051+9999MW1611REMSYN023333   83707 86711 88550MET005NOSIG
0116039620999991992010314304+52700-008917FM-15+0020EINN V0202601N00721003601CN0112001N1+00801+00601999999ADDAG12001GA1021+002409079GA2041+003609079GA3081+015009049MA1101081999999MW1611REMMET028TEMPO      ?     8000 5ST008
0201039620999991992010315004+52700-008917SY-MT+0020EINN V0202601N00721003601CN0150001N1+00751+00621101161ADDAG12001AY161031AY251031GA1031+002409079GA2051+003609079GA3081+015009049GF108991061071002501021999MA1101081999999MD1510001+9999MW1611REMSYN023333   83708 85712 88550MET028TEMPO      ?     8000 5ST008
0116039620999991992010315304+52700-008917FM-15+0020EINN V0202601N00721003601CN0112001N1+00701+00601999999ADDAG12999GA1021+002409079GA2041+003609079GA3081+015009049MA1101081999999MW1611REMMET028TEMPO      ?     8000 5ST008
0201039620999991992010316004+52700-008917SY-MT+0020EINN V0202501N00621015001CN0200001N1+00681+00551101171ADDAG12059AY161011AY261011GA1011+002409079GA2031+003909079GA3081+015009049GF108991031071002501021999MA1101081999999MD1310021+9999MW1611REMSYN023333   81708 83713 88550MET028TEMPO      ?     8000 5ST008
0116039620999991992010316304+52700-008917FM-15+0020EINN V0202501N00571003901CN0112001N1+00701+00501999999ADDAG12999GA1031+002409079GA2041+003909079GA3081+015009049MA1101081999999MW1611REMMET028TEMPO      ?     8000 5ST008
0201039620999991992010317004+52700-008917SY-MT+0020EINN V0202501N00671003601CN0150001N1+00681+00551101201ADDAG12999AY161021AY261021GA1031+002109079GA2051+003609079GA3081+015009049GF108991071071002501021999MA1101191999999MD1210071+9999MW1611REMSYN023333   83707 85712 88550MET028TEMPO      ?     8000 5ST007
0116039620999991992010317304+52700-008917FM-15+0020EINN V0202601N00771003601CN0112001N1+00701+00501999999ADDAG11001GA1031+002109079GA2051+003609079GA3071+006009059MA1101191999999MW1611REMMET028TEMPO      ?     8000 5ST007
0210039620999991992010318004+52700-008917SY-MT+0020EINN V0202501N00571015001CN0300001N1+00671+00441101211ADDAA199007091AG10001AY161061AY251061GA1031+002409079GA2081+015009059GF108991081051002501999999KA1120M+01261MA1101191999999MD1210051+9999MW1211REMSYN023333   10126 83708 88650MET029TEMPO  8000      ?     5ST007
0109039620999991992010318304+52700-008917FM-15+0020EINN V0202501N00511018001CN0112001N1+00701+00401999999ADDAG12999GA1041+010509059GA2081+018009059MA1101191999999REMMET024TEMPO 8000 5ST007      ?EQDQ01+000000PRSWM2
0152039620999991992010319004+52700-008917SY-MT+0020EINN V0202501N00671018001CN0300001N1+00711+00411101271ADDAG12999AY161011AY221011GA1081+018009059GF108991081051017501999999MA1101191999999MD1210101+9999MW1211REMSYN011333   88656MET023CAVOK TEMPO 8000 5ST007
0093039620999991992010319304+52700-008917FM-15+0020EINN V0202501N00721006901CN0112001N1+00701+00401999999ADDAG12999GA1031+002109079GA2041+006909079GA3081+010509059MA1101291999999MW1601REMMET005NOSIG
0156039620999991992010320004+52700-008917SY-MT+0020EINN V0202501N00671015001CN0300001N1+00701+00491101331ADDAG12999AY161021AY221021GA1031+007509059GA2061+015009059GF106991061051008001999999MA1101291999999MD1210131+9999MW1211REMSYN017333   83625 86650MET005NOSIG
0090039620999991992010320304+52700-008917FM-15+0020EINN V0202601N00721009001CN0112001N1+00701+00401999999ADDAG11000GA1031+006009059GA2071+009009059MA1101291999999REMMET005NOSIGEQDQ01+000000PRSWM2
0175039620999991992010321004+52700-008917SY-MT+0020EINN V0202501N00411010201CN0300001N1+00701+00371101401ADDAG12001AY161031AY221031GA1051+010209059GA2081+015009059GF108991081051012501999999MA1101391999999MD1210191+9999MW1031REMSYN017333   85634 88650MET005NOSIGEQDQ01+000000PRSWM2
0090039620999991992010321304+52700-008917FM-15+0020EINN V0202601N00511015001CN0112001N1+00701+00501999999ADDAG12999GA1031+006009059GA2081+015009059MA1101391999999REMMET005NOSIGEQDQ01+000000PRSWM2
0156039620999991992010322004+52700-008917SY-MT+0020EINN V0202701N00771006901CN0200001N1+00701+00421101501ADDAG12999AY181011AY221011GA1051+006909089GA2071+015009059GF107991071081008001999999MA1101491999999MD1210231+9999MW1801REMSYN017333   85823 87650MET005NOSIG
0077039620999991992010322304+52700-008917FM-15+0020EINN V0202701N00621015001CN0112001N1+00701+00301999999ADDAG12999GA1031+006909089GA2051+015009059MA1101491999999MW1251REMMET005NOSIG
0156039620999991992010323004+52700-008917SY-MT+0020EINN V0202501N00511015001CN0300001N1+00671+00361101531ADDAG12999AY181021AY221021GA1031+006909089GA2061+015009059GF106991061081008001999999MA1101491999999MD1110201+9999MW1251REMSYN017333   83823 86650MET005NOSIG
0090039620999991992010323304+52700-008917FM-15+0020EINN V0202501N00511015001CN0112001N1+00701+00401999999ADDAG12000GA1031+006909089GA2061+015009059MA1101491999999REMMET005NOSIGEQDQ01+000000PRSWM2
0186039620999991992010400004+52700-008917SY-MT+0020EINN V0202501N00461015001CN0300001N1+00671+00441101591ADDAA106000391AG19001AY181061AY261061GA1031+006909089GA2071+015009059GF107991071081008001999999MA1101491999999MD1210191+9999MW1031REMSYN017333   83823 87650MET005NOSIGEQDQ01+000000PRSWM2
0090039620999991992010400304+52700-008917FM-15+0020EINN V0202701N00411015001CN0112001N1+00701+00401999999ADDAG11999GA1021+006909089GA2071+015009059MA1101591999999REMMET005NOSIGEQDQ01+000000PRSWM2
0156039620999991992010401004+52700-008917SY-MT+0020EINN V0202501N00411015001CN0250001N1+00691+00441101661ADDAG12999AY181011AY221011GA1031+006009089GA2071+015009059GF107991071081008001999999MA1101591999999MD1210161+9999MW1801REMSYN017333   83820 87650MET005NOSIG
0090039620999991992010401304+52700-008917FM-15+0020EINN V0202601N00311015001CN0112001N1+00701+00401999999ADDAG11999GA1021+006009089GA2071+015009059MA1101591999999REMMET005NOSIGEQDQ01+000000PRSWM2
0175039620999991992010402004+52700-008917SY-MT+0020EINN V0202501N00311015001CN0300001N1+00651+00441101671ADDAG12999AY181021AY221021GA1021+006009089GA2051+015009059GF105991051081008001999001MA1101591999999MD1010141+9999MW1251REMSYN017333   82820 85650MET005NOSIGEQDQ01    003SCOMCG
0077039620999991992010402304+52700-008917FM-15+0020EINN V0202601N00311015001CN0112001N1+00701+00401999999ADDAG12000GA1031+006009089GA2061+015009059MA1101691999999MW1251REMMET005NOSIG
0178039620999991992010403004+52700-008917SY-MT+0020EINN V0202501N00621006001CN0200001N1+00701+00401101731ADDAG12001AY181031AY221031GA1021+003009079GA2031+006009089GA3051+015009059GF107991071081004501999999MA1101691999999MD1210141+9999MW1801REMSYN023333   82710 83820 85650MET005NOSIG
0077039620999991992010403304+52700-008917FM-15+0020EINN V0202601N00411015001CN0112001N1+00701+00401999999ADDAG12999GA1031+006009089GA2051+015009059MA1101691999999MW1251REMMET005NOSIG
0178039620999991992010404004+52700-008917SY-MT+0020EINN V0202401N00311009601CN0250001N1+00691+00441101761ADDAG12999AY181011AY221011GA1021+006009089GA2031+009609059GA3051+015009059GF107991071081004501999999MA1101691999999MD1210101+9999MW1251REMSYN023333   82820 83632 85650MET005NOSIG
0106039620999991992010404304+52700-008917FM-15+0020EINN V0202601N00311009601CN0112001N1+00701+00401999999ADDAG11999GA1021+006009089GA2031+009609059GA3051+015009059MA1101691999999REMMET005NOSIGEQDQ01+000000PRSWM2
0178039620999991992010405004+52700-008917SY-MT+0020EINN V0202601N00461010201CN0200001N1+00691+00361101781ADDAG12999AY181021AY221021GA1011+003609079GA2031+006009089GA3051+010209059GF107991071081004501999999MA1101691999999MD1210111+9999MW1251REMSYN023333   81712 83820 85634MET005NOSIG
0090039620999991992010405304+52700-008917FM-15+0020EINN V0202301N00311012901CN0112001N1+00701+00501999999ADDAG11000GA1031+006609089GA2061+012909059MA1101801999999REMMET005NOSIGEQDQ01+000000PRSWM2
0243039620999991992010406004+52700-008917SY-MT+0020EINN V0202101N00361012901CN0300001N1+00651+00491101791ADDAA199001091AG10001AY181061AY221061GA1021+006609089GA2051+012909059GF106991051081008001001021GJ100009IA1099IA2999+00409KA1120N+00601MA1101691999999MD1110061+9999MW1011REMSYN035333   20060 31004 55000 82822 85643MET005NOSIGEQDQ01+000000PRSWM2
0090039620999991992010406304+52700-008917FM-15+0020EINN V0202101N00361015001CN0112001N1+00601+00401999999ADDAG12999GA1021+006609089GA2051+015009059MA1101801999999REMMET005NOSIGEQDQ01+000000PRSWM2
0156039620999991992010407004+52700-008917SY-MT+0020EINN V0202401N00311009001CN0300001N1+00641+00481101851ADDAG12051AY181011AY221011GA1041+006009089GA2061+009009059GF107991071081008001999999MA1101801999999MD1210091+9999MW1251REMSYN017333   84820 86630MET005NOSIG
0077039620999991992010407304+52700-008917FM-15+0020EINN V0202301N00311012001CN0112001N1+00701+00501999999ADDAG12999GA1021+006609089GA2061+012009059MA1101801999999MW1251REMMET005NOSIG
0159039620999991992010408004+52700-008917SY-MT+0020EINN V0202301N00211012001CN0300001N1+00661+00481101911ADDAG11999GA1021+006609089GA2041+012009059GF106991051081008001001021MA1101901999999MD1210131+9999MW1001REMSYN017333   82822 84640MET005NOSIGEQDQ01+000000PRSWM2
0093039620999991992010408304+52700-008917FM-15+0020EINN V0202201N00361006001CN0112001N1+00701+00501999999ADDAG12000GA1021+002409079GA2041+006009089GA3071+015009059MA1101901999999MW1801REMMET005NOSIG
0178039620999991992010409004+52700-008917SY-MT+0020EINN V0202401N00461015001CN0250001N1+00681+00431101931ADDAG12001AY181031AY221031GA1011+004509079GA2031+006009089GA3071+015009059GF107991071081004501999999MA1101901999999MD1210141+9999MW1251REMSYN023333   81715 83820 87650MET005NOSIG
0106039620999991992010409304+52700-008917FM-15+0020EINN V0202301N00261075001CN0112001N1+00701+00501999999ADDAG11999GA1011+004509079GA2031+015009059GA3051+075009009MA1101901999999REMMET005NOSIGEQDQ01+000000PRSWM2
0181039620999991992010410004+52700-008917SY-MT+0020EINN V0202001N00311027001CN0250001N1+00641+00461101981ADDAG12999GA1011+005409089GA2031+015009059GA3051+027009049GF107991031081004501021021MA1101901999999MD1210131+9999MW1001REMSYN023333   81818 83650 85459MET005NOSIGEQDQ01+000000PRSWM2
0106039620999991992010410304+52700-008917FM-15+0020EINN V0202001N00211015001CN0112001N1+00601+00501999999ADDAG12999GA1021+005709089GA2041+015009059GA3051+027009049MA1102001999999REMMET005NOSIGEQDQ01+000000PRSWM2
0175039620999991992010411004+52700-008917SY-MT+0020EINN V0202001N00151015001CN0250001N1+00671+00491102031ADDAG12999GA1011+005409089GA2031+010509059GA3061+015009059GF107991061081004501021999MA1102001999999MD1210121+9999REMSYN023333   81818 83635 86650MET005NOSIGEQDQ01+000000PRSWM2
0106039620999991992010411304+52700-008917FM-15+0020EINN V0201901N00211015001CN0112001N1+00701+00501999999ADDAG12000GA1031+010509059GA2031+015009059GA3081+027009049MA1102001999999REMMET005NOSIGEQDQ01+000000PRSWM2
0208039620999991992010412004+52700-008917SY-MT+0020EINN V0201901N00311015001CN0250001N1+00721+00541102021ADDAA106000391AG10001AY181061AY221061GA1021+007509059GA2051+015009059GA3071+027009049GF107991051051008001021999MA1102001999999MD1010091+9999MW1011REMSYN023333   82625 85650 87459MET005NOSIGEQDQ01+000000PRSWM2
0106039620999991992010412304+52700-008917FM-15+0020EINN V0201901N00261027001CN0112001N1+00701+00601999999ADDAG12999GA1011+007509059GA2041+015009059GA3071+027009049MA1102001999999REMMET005NOSIGEQDQ01+000000PRSWM2
0175039620999991992010413004+52700-008917SY-MT+0020EINN V0201901N00311027001CN0250001N1+00741+00511101991ADDAG12999GA1011+007509059GA2031+015009059GA3071+027009049GF107991031051008001021999MA1101901999999MD1010011+9999REMSYN023333   81625 83650 87459MET005NOSIGEQDQ01+000000PRSWM2
0106039620999991992010413304+52700-008917FM-15+0020EINN V0201901N00311027001CN0112001N1+00801+00501999999ADDAG12999GA1011+007509059GA2031+015009059GA3071+027009049MA1101901999999REMMET005NOSIGEQDQ01+000000PRSWM2
0175039620999991992010414004+52700-008917SY-MT+0020EINN V0201701N00261027001CN0250001N1+00751+00511101961ADDAG12999GA1011+007509059GA2031+015009059GA3071+027009049GF107991031051008001021999MA1101901999999MD1710071+9999REMSYN023333   81625 83650 87459MET005NOSIGEQDQ01+000000PRSWM2
0106039620999991992010414304+52700-008917FM-15+0020EINN V0201701N00311027001CN0112001N1+00801+00501999999ADDAG12000GA1011+007509059GA2041+015009059GA3071+027009049MA1101901999999REMMET005NOSIGEQDQ01+000000PRSWM2
0181039620999991992010415004+52700-008917SY-MT+0020EINN V0201701N00311027001CN0200001N1+00761+00491101911ADDAG12000GA1011+007509059GA2041+013509059GA3071+027009049GF108991041051004501021999MA1101901999999MD1710111+9999MW1001REMSYN023333   81625 84645 97459MET005NOSIGEQDQ01+000000PRSWM2
0093039620999991992010415304+52700-008917FM-15+0020EINN V0201501N00261027001CN0112001N1+00801+00501999999ADDAG12999GA1011+006009059GA2041+013509059GA3071+027009049MA1101801999999MW1601REMMET005NOSIG
0178039620999991992010416004+52700-008917SY-MT+0020EINN V0201601N00311012001CN0080001N1+00731+00521101881ADDAG12999AY161011AY221011GA1021+006009059GA2061+012009059GA3071+027009049GF108991061051008001021999MA1101801999999MD1710111+9999MW1601REMSYN023333   82620 85640 87459MET005NOSIG
0093039620999991992010416304+52700-008917FM-15+0020EINN V0201701N00461012001CN0080001N1+00701+00601999999ADDAG12999GA1021+006009059GA2061+012009059GA3071+027009049MA1101801999999MW1601REMMET005NOSIG
0178039620999991992010417004+52700-008917SY-MT+0020EINN V0201601N00311012001CN0080001N1+00681+00551101891ADDAG12999AY161021AY261021GA1021+006009059GA2061+012009059GA3071+027009049GF108991061051008001021999MA1101801999999MD1510071+9999MW1611REMSYN023333   82620 86640 87459MET005NOSIG
0093039620999991992010417304+52700-008917FM-15+0020EINN V0201701N00311027001CN0112001N1+00701+00501999999ADDAG12001GA1011+003009079GA2041+006609059GA3081+027009049MA1101801999999MW1611REMMET005NOSIG
0227039620999991992010418004+52700-008917SY-MT+0020EINN V0201601N00311006601CN0120001N1+00681+00571101891ADDAA199003091AG19001AY161061AY221061GA1011+003009079GA2051+006609059GA3081+027009049GF108991051051004501071999KA1120M+00791MA1101801999999MD1610021+9999MW1611REMSYN029333   10079 81710 85622 88459MET024GRADU 8000 3ST007 8ST010
0112039620999991992010418304+52700-008917FM-15+0020EINN V0201401N00311006601CN0112001N1+00701+00601999999ADDAG12999GA1021+003009079GA2051+006609059GA3081+027009049MA1101801999999MW1611REMMET024GRADU 8000 3ST007 8ST010
0197039620999991992010419004+52700-008917SY-MT+0020EINN V0201001N00211006601CN0120001N1+00631+00541101851ADDAG12999AY161011AY261011GA1011+003009079GA2051+006609059GA3081+027009049GF108991051051004501071999MA1101801999999MD1810031+9999MW1611REMSYN023333   81710 85622 88459MET024GRADU 8000 3ST007 8ST010
0112039620999991992010419304+52700-008917FM-15+0020EINN V0201001N00311006601CN0112001N1+00601+00501999999ADDAG12999GA1021+001809079GA2051+006609059GA3081+027009049MA1101801999999MW1611REMMET024GRADU 8000 3ST007 8ST010
0190039620999991992010420004+52700-008917SY-MT+0020EINN V0200801N00361006001CN0060001N1+00621+00551101811ADDAG12999AY161021AY261021GA1031+001809079GA2051+006009059GA3081+027009049GF108991051061002501071999MA1101801999999MD1810081+9999MW1611REMSYN023333   83706 85620 88459MET017TEMPO 4000 8ST004
0105039620999991992010420304+52700-008917FM-15+0020EINN V0200801N00311007801CN0080001N1+00601+00501999999ADDAG12001GA1021+003009079GA2061+007809059GA3081+027009049MA1101691999999MW1611REMMET017TEMPO 4000 8ST004
0190039620999991992010421004+52700-008917SY-MT+0020EINN V0200701N00211007801CN0080001N1+00581+00491101781ADDAG12001AY161031AY261031GA1031+001809079GA2051+007809059GA3081+027009049GF108991051061002501071999MA1101691999999MD1710111+9999MW1611REMSYN023333   83706 85626 88459MET017TEMPO 4000 8ST004
0105039620999991992010421304+52700-008917FM-15+0020EINN V0200701N00311006601CN0112001N1+00601+00501999999ADDAG12999GA1031+001809079GA2061+006609059GA3081+027009049MA1101691999999MW1631REMMET017TEMPO 4000 8ST004
0201039620999991992010422004+52700-008917SY-MT+0020EINN V0200701N00361003301CN0080001N1+00581+00471101661ADDAG12999AY161011AY261011GA1031+001809079GA2041+003309079GA3081+007509049GF108991051061002501021999MA1101591999999MD1810191+9999MW1631REMSYN023333   83706 84711 88525MET028TEMPO      ?     4000 8ST004
0116039620999991992010422304+52700-008917FM-15+0020EINN V0200701N00311003001CN0080001N1+00601+00501999999ADDAG12999GA1031+001809079GA2051+003009079GA3081+006909049MA1101591999999MW1631REMMET028TEMPO      ?     4000 8ST004
0168039620999991992010423004+52700-008917SY-MT+0020EINN V0200701N00311002701CN0090001N1+00591+00501101611ADDAG12999AY161021AY261021GA1031+001509079GA2081+002709079GF108991081061001501999999MA1101591999999MD1710201+9999MW1631REMSYN017333   83705 88709MET017TEMPO 4000 8ST004
0089039620999991992010423304+52700-008917FM-15+0020EINN V0200701N00211002701CN0090001N1+00601+00501999999ADDAG11002GA1031+001809079GA2081+002709079MA1101491999999MW1631REMMET017TEMPO 4000 8ST004
0179039620999991992010500004+52700-008917SY-MT+0020EINN V0201001N00311002401CN0090001N1+00651+00561101521ADDAA106012091AG10001AY161061AY261061GA1031+001509079GA2081+002409079GF108991081061001501999999MA1101491999999MD1710261+9999MW1611REMSYN017333   83705 88708MET017TEMPO 4000 8ST004
0089039620999991992010500304+52700-008917FM-15+0020EINN V0201201N00361002701CN0112001N1+00701+00601999999ADDAG11999GA1041+001809079GA2061+002709079MA1101391999999MW1611REMMET017TEMPO 4000 8ST004
0180039620999991992010501004+52700-008917SY-MT+0020EINN V0201101N00461002101CN0080001N1+00671+00581101421ADDAG12999AY161011AY261011GA1041+001209079GA2071+002109079GF108991081071001501999999MA1101391999999MD1710241+9999MW1631REMSYN017333   84704 87707MET029GRADU 3ST006     ?     7ST012
0108039620999991992010501304+52700-008917FM-15+0020EINN V0201201N00101002101CN0112001N1+00701+00601999999ADDAG11999GA1021+001209079GA2061+002109079GA3061+003309079MA1101391999999MW1611REMMET020GRADU      ?     6ST
0168039620999991992010502004+52700-008917SY-MT+0020EINN V0201101N00101021001CN0120001N1+00721+00631101341ADDAG12999AY161021AY261021GA1031+001809079GA2081+021009049GF108991031071002501021999MA1101291999999MD1710271+9999MW1611REMSYN017333   83706 88557MET017TEMPO 8000 6ST010
0130039620999991992010502304+52700-008917FM-15+0020EINN V0201301N00211007201CN0112001N1+00801+00701999999ADDAG11000GA1011+002109079GA2051+007209059GA3081+021009049MA1101291999999REMMET029TEMPO 8000       ?     6ST010EQDQ01+000000PRSWM2
0203039620999991992010503004+52700-008917SY-MT+0020EINN V0201401N00361003001CN0080001N1+00861+00781101241ADDAG12002AY161031AY261031GA1031+001209079GA2051+003009079GA3061+006009059GF108991081071001501999999MA1101191999999MD1710281+9999MW1631REMSYN023333   83704 85710 86620MET030GRADU      ?     3ST010 6ST015
0077039620999991992010503304+52700-008917FM-15+0020EINN V0202301N00101004801CN0112001N1+00901+00801999999ADDAG12999GA1031+001809079GA2071+004809079MA1101191999999MW1631REMMET005NOSIG
0156039620999991992010504004+52700-008917SY-MT+0020EINN V0202101N00361004201CN0100001N1+01021+00941101201ADDAG12999AY161011AY261011GA1031+002109079GA2071+004209079GF108991081071002501999999MA1101191999999MD1710221+9999MW1631REMSYN017333   83707 87714MET005NOSIG
0077039620999991992010504304+52700-008917FM-15+0020EINN V0202201N00771003601CN0112001N1+01201+01001999999ADDAG12999GA1041+002109079GA2071+003609079MA1101081999999MW1611REMMET005NOSIG
0192039620999991992010505004+52700-008917SY-MT+0020EINN V0202201N00821003301CN0120001N1+01171+01041101151ADDAG12999AY161021AY261021GA1031+002109079GA2061+003309079GA3081+004809079GF108991081071002501999999MA1101081999999MD1710191+9999MW1611REMSYN023333   83707 86711 88716MET019GRADU 3ST015 7SC020
0112039620999991992010505304+52700-008917FM-15+0020EINN V0202301N00981002701CN0060001N1+01201+01101999999ADDAG12001GA1031+001509079GA2061+002709079GA3081+003609079MA1101081999999MW1611REMMET024GRADU 9999 3ST015 7SC020
0268039620999991992010506004+52700-008917SY-MT+0020EINN V0202301N00981003601CN0120001N1+01221+01091101151ADDAA199021091AG19001AY161061AY261061GA1021+002109079GA2061+003609079GA3081+004509079GF108991081071002501999999GJ100009IA1119IA2999+00509KA1120N+00561MA1101081999999MD1610091+9999MW1611OC101541REMSYN041333   20056 32005 55000 82707 86712 88715MET019GRADU 3ST015 7SC020
0115039620999991992010506304+52700-008917FM-15+0020EINN V0202301N00881003601CN0112001N1+01201+01101999999ADDAG12999GA1021+002109079GA2051+003609079GA3081+004509079MA1101081999999MW1211OC101441REMMET019GRADU 3ST015 7SC020
0192039620999991992010507004+52700-008917SY-MT+0020EINN V0202301N01181003601CN0150001N1+01281+01051101181ADDAG12999AY161011AY221011GA1051+003609079GA2081+004509079GF108991081071004501999999MA1101081999999MD1510011+9999MW1211OA149901851REMSYN023333   85712 88715 91136MET024TEMPO 7000 4ST008 7ST012
0112039620999991992010507304+52700-008917FM-15+0020EINN V0202201N00721004501CN0112001N1+01201+01101999999ADDAG12999GA1031+003609079GA2061+004509079GA3081+005709079MA1101191999999MW1601REMMET024TEMPO 7000 4ST008 7ST012
0130039620999991992010508004+52700-008917FM-12+0020EINN V0202201N00981005101CN0120001N9+01221+01051101211ADDAG12999AY161021AY261021GA1031+003909079GA2081+005109079GF108991081071004501999999MD1110061+9999MW1601REMSYN017333   83713 88717
0114039620999991992010508304+52700-008917FM-15+0020EINN V0202201N01031005101CN0112001N1+01201+99999999999ADDAG12001GA1031+003909079GA2061+005109079GA3081+009009059MW1611REMMET041111012     ?     TEMPO 7000 4ST008 7ST012
0197039620999991992010509004+52700-008917SY-MT+0020EINN V0202201N00981003001CN0060001N1+01211+01031101011ADDAG12001AY161031AY261031GA1031+002109079GA2051+003009079GA3081+006009059GF108991081071002501999999MA1101191999999MD1210101+9999MW1611REMSYN023333   83707 85710 88620MET024GRADU 9999 3ST012 7SC020
0112039620999991992010509304+52700-008917FM-15+0020EINN V0202201N00881003001CN0050001N1+01201+01101999999ADDAG12999GA1031+002109079GA2061+003009079GA3081+004509079MA1101291999999MW1611REMMET024GRADU 9999 3ST012 7SC020
0205039620999991992010510004+52700-008917SY-MT+0020EINN V0202301N00771001801CN0060001N1+01221+01091101321ADDAG12999AY161011AY261011GA1051+001809079GA2061+003609079GA3081+004809079GF108991081061002501999999MA1101291999999MD1210131+9999MW1611REMSYN023333   85706 86712 88716MET032GRADU      ?     9999 3ST012 7SC
0105039620999991992010510304+52700-008917FM-15+0020EINN V0202301N01131005401CN0112001N1+01301+01101999999ADDAG11999GA1011+001809079GA2051+005409079GA3081+015009059MA1101291999999MW1611REMMET017TEMPO 7000 5ST010
0178039620999991992010511004+52700-008917SY-MT+0020EINN V0202301N01081004501CN0060001N1+01271+01081101391ADDAG12999AY161021AY261021GA1041+002409079GA2061+004509079GA3081+009009059GF108991081061002501999999MA1101291999999MD1210191+9999MW1611REMSYN023333   84708 86715 88630MET005NOSIG
0077039620999991992010511304+52700-008917FM-15+0020EINN V0202301N00931001801CN0060001N1+01301+01101999999ADDAG12001GA1051+001809079GA2081+003909079MA1101391999999MW1611REMMET005NOSIG
0178039620999991992010512004+52700-008917SY-MT+0020EINN V0202201N00771002101CN0120001N1+01251+01121101431ADDAA106005091AG19001AY161061AY221061GA1051+002109079GA2081+003909079GF108991081061002501999999MA1101391999999MD1110181+9999MW1101MW2211REMSYN017333   85707 88713MET010TEMPO 5000
0100039620999991992010512304+52700-008917FM-15+0020EINN V0202301N01031003901CN0112001N1+01301+01101999999ADDAG12999GA1061+003909079GA2081+007509059MA1101391999999MW1211OC101541REMMET020TEMPO      ?     500
0161039620999991992010513004+52700-008917SY-MT+0020EINN V0202401N00931003601CN0080001N1+01291+01121101441ADDAG12999AY161011AY221011GA1041+001809079GA2081+003609079GF108991081061002501999999MA1101391999999MD1110131+9999MW1601REMSYN017333   84706 88712MET010TEMPO 5000
0077039620999991992010513304+52700-008917FM-15+0020EINN V0202401N00771001501CN0050001N1+01201+01101999999ADDAG12999GA1061+001509079GA2081+003009079MA1101391999999MW1601REMMET005NOSIG
0187039620999991992010514004+52700-008917SY-MT+0020EINN V0202301N00671001501CN0070001N1+01211+01141101491ADDAG12999AY161021AY261021GA1051+001509079GA2081+003009079GF108991081061001501999999MA1101391999999MD1210091+9999MW1611REMSYN017333   85705 88715MET036TEMPO 8000       ?     4ST008 7ST015
0080039620999991992010514304+52700-008917FM-15+0020EINN V0202301N00571003301CN0112001N1+01201+01101999999ADDAG12000GA1031+001809079GA2081+003309079MA1101391999999MW1211REMMET008TEMPO 60
0161039620999991992010515004+52700-008917SY-MT+0020EINN V0202301N00721003601CN0120001N1+01251+01121101491ADDAG12001AY161031AY221031GA1031+001809079GA2081+003609079GF108991081061002501999999MA1101391999999MD1110071+9999MW1601REMSYN017333   83706 88712MET010TEMPO 6000
0089039620999991992010515304+52700-008917FM-15+0020EINN V0202401N00671003001CN0060001N1+01201+01101999999ADDAG11999GA1031+001809079GA2081+003009079MA1101491999999MW1611REMMET017TEMPO 4000 7ST005
0168039620999991992010516004+52700-008917SY-MT+0020EINN V0202301N00721003301CN0080001N1+01211+01101101571ADDAG12999AY161011AY261011GA1031+001809079GA2081+003309079GF108991081061002501999999MA1101491999999MD1210121+9999MW1611REMSYN017333   83706 88711MET017TEMPO 4000 7ST005
0089039620999991992010516304+52700-008917FM-15+0020EINN V0202401N00671003301CN0060001N1+01201+01101999999ADDAG11999GA1031+001809079GA2081+003309079MA1101591999999MW1611REMMET017TEMPO 4000 7ST005
0168039620999991992010517004+52700-008917SY-MT+0020EINN V0202301N00671003301CN0080001N1+01191+01081101621ADDAG12059AY161021AY261021GA1031+001809079GA2081+003309079GF108991081061002501999999MA1101591999999MD1210131+9999MW1611REMSYN017333   83706 88711MET017TEMPO 4000 7ST005
0093039620999991992010517304+52700-008917FM-15+0020EINN V0202301N00671001801CN0050001N1+01201+01101999999ADDAG12002GA1031+001209079GA2051+001809079GA3081+003009079MA1101591999999MW1631REMMET005NOSIG
0216039620999991992010518004+52700-008917SY-MT+0020EINN V0202301N00871002401CN0070001N1+01211+01101101701ADDAA199008091AG10001AY161061AY221061GA1031+001509079GA2051+002409079GA3081+003909079GF108991081061001501999999KA1120M+01301MA1101691999999MD1210201+9999MW1611OC101441REMSYN029333   10130 83705 85708 88713MET005NOSIG
0107039620999991992010518304+52700-008917FM-15+0020EINN V0202301N00981006901CN0080001N1+01201+01101999999ADDAG12999GA1011+002409079GA2041+003909079GA3071+006909059MA1101691999999MW1601REMMET019TEMPO 3ST005 5ST008
0192039620999991992010519004+52700-008917SY-MT+0020EINN V0202301N00981004501CN0100001N1+01221+01031101761ADDAG12999AY161011AY221011GA1021+003309079GA2061+004509079GA3071+006009059GF108991081061004501999999MA1101691999999MD1210191+9999MW1211REMSYN023333   82711 86715 87620MET019TEMPO 3ST005 5ST008
0100039620999991992010519304+52700-008917FM-15+0020EINN V0202301N00881004501CN0112001N1+01201+01001999999ADDAG12999GA1011+003009079GA2061+004509079GA3071+006309059MA1101801999999MW1211REMMET012TEMPO 5ST010
0185039620999991992010520004+52700-008917SY-MT+0020EINN V0202301N00871005101CN0120001N1+01241+01011101831ADDAG12999AY121021AY221021GA1011+003609079GA2051+005109079GA3061+006909059GF108991081061004501999999MA1101801999999MD1210211+9999MW1101REMSYN023333   81712 85717 86623MET012TEMPO 5ST010
0093039620999991992010520304+52700-008917FM-15+0020EINN V0202301N01081009601CN0112001N1+01201+00901999999ADDAG11000GA1011+004509079GA2031+006609059GA3061+009609059MA1101801999999MW1101REMMET005NOSIG
0156039620999991992010521004+52700-008917SY-MT+0020EINN V0202301N00931009901CN0150001N1+01241+00921101851ADDAG12001AY161031AY221031GA1021+004809079GA2061+009909059GF107991071051004501999999MA1101801999999MD1110151+9999MW1101REMSYN017333   82716 86633MET005NOSIG
0090039620999991992010521304+52700-008917FM-15+0020EINN V0202301N00721009001CN0112001N1+01201+00901999999ADDAG12999GA1021+004509079GA2051+009009059MA1101901999999REMMET005NOSIGEQDQ01+000000PRSWM2
0159039620999991992010522004+52700-008917SY-MT+0020EINN V0202101N00671009001CN0200001N1+01181+00921101921ADDAG11999GA1021+004509079GA2061+009009059GF107991071051004501999999MA1101901999999MD1210161+9999MW1001REMSYN017333   82715 86630MET005NOSIGEQDQ01+000000PRSWM2
0090039620999991992010522304+52700-008917FM-15+0020EINN V0202201N00821009001CN0112001N1+01201+00901999999ADDAG11999GA1021+004509079GA2061+009009059MA1101901999999REMMET005NOSIGEQDQ01+000000PRSWM2
0153039620999991992010523004+52700-008917SY-MT+0020EINN V0202101N00721009001CN0200001N1+01211+00951101921ADDAG11999GA1021+004509079GA2061+009009059GF107991071051004501999999MA1101901999999MD1110091+9999REMSYN017333   82715 86630MET005NOSIGEQDQ01+000000PRSWM2
0090039620999991992010523304+52700-008917FM-15+0020EINN V0202101N00771009001CN0112001N1+01201+00901999999ADDAG12000GA1031+006009059GA2061+009009059MA1101901999999REMMET005NOSIGEQDQ01+000000PRSWM2
0186039620999991992010600004+52700-008917SY-MT+0020EINN V0202001N00621009601CN0200001N1+01181+00951101931ADDAA106000191AG10001AY161061AY221061GA1031+006009059GA2061+009609059GF107991071051008001999999MA1101901999999MD1110081+9999MW1021REMSYN017333   83620 86632MET005NOSIGEQDQ01+000000PRSWM2
0090039620999991992010600304+52700-008917FM-15+0020EINN V0202101N00461010501CN0112001N1+01201+00901999999ADDAG11999GA1031+006009059GA2071+010509059MA1101901999999REMMET005NOSIGEQDQ01+000000PRSWM2
0159039620999991992010601004+52700-008917SY-MT+0020EINN V0202001N00511010501CN0200001N1+01101+00881101921ADDAG11999GA1021+006009059GA2071+010509059GF107991071051008001999999MA1101901999999MD1010001+9999MW1001REMSYN017333   82620 87635MET005NOSIGEQDQ01+000000PRSWM2
0090039620999991992010601304+52700-008917FM-15+0020EINN V0202001N00411010501CN0112001N1+01101+00901999999ADDAG11999GA1021+006009059GA2061+010509059MA1101901999999REMMET005NOSIGEQDQ01+000000PRSWM2
0153039620999991992010602004+52700-008917SY-MT+0020EINN V0202001N00461220001CN0200001N1+01071+00851101911ADDAG11999GA1011+006009059GA2031+010509059GF103991031051008001001001MA1101901999999MD1610011+9999REMSYN017333   81620 83635MET005NOSIGEQDQ01+000000PRSWM2
0090039620999991992010602304+52700-008917FM-15+0020EINN V0202001N00511220001CN0112001N1+01101+00801999999ADDAG11000GA1011+006009059GA2031+010509059MA1101901999999REMMET005NOSIGEQDQ01+000000PRSWM2
0153039620999991992010603004+52700-008917SY-MT+0020EINN V0202101N00511220001CN0200001N1+01061+00821101951ADDAG11000GA1011+006009059GA2031+010509059GF103991031051008001001001MA1101801999999MD1310021+9999REMSYN017333   81620 83635MET005NOSIGEQDQ01+000000PRSWM2
0090039620999991992010603304+52700-008917FM-15+0020EINN V0201901N00411220001CN0112001N1+01001+00801999999ADDAG12999GA1011+006009059GA2031+010509059MA1101901999999REMMET005NOSIGEQDQ01+000000PRSWM2
0153039620999991992010604004+52700-008917SY-MT+0020EINN V0201801N00511220001CN0200001N1+01111+00991101921ADDAG11999GA1011+006009059GA2031+010509059GF103991031051008001001001MA1101901999999MD1010001+9999REMSYN017333   81620 83635MET005NOSIGEQDQ01+000000PRSWM2
0074039620999991992010604304+52700-008917FM-15+0020EINN V0201701N00621220001CN0112001N1+01101+01001999999ADDAG12999GA1031+010509059MA1101801999999REMMET005NOSIGEQDQ01+000000PRSWM2
0131039620999991992010605004+52700-008917SY-MT+0020EINN V0201701N00571220001CN0200001N1+01071+00761101871ADDAG11999GA1031+010509059GF103991031051012501001001MA1101801999999MD1810041+9999REMSYN011333   83635MET005NOSIGEQDQ01+000000PRSWM2
0074039620999991992010605304+52700-008917FM-15+0020EINN V0201801N00571220001CN0112001N1+01101+00801999999ADDAG12000GA1021+010509059MA1101801999999REMMET005NOSIGEQDQ01+000000PRSWM2
0211039620999991992010606004+52700-008917SY-MT+0020EINN V0201701N00511075001CN0200001N1+01061+00771101841ADDAA199000191AG10000GA1031+027009039GF105991031001999999031021GJ100009IA1099IA2999+00709KA1120N+00981MA1101801999999MD1710111+9999REMSYN035333   20098 31007 55000 83359 83075MET011CAVOK NOSIGEQDQ01+000000PRSWM2
0064039620999991992010606304+52700-008917FM-15+0020EINN V0201901N00461999991CY0099001N1+01001+00801999999ADDAG11999MA1101801999999REMMET011CAVOK NOSIGEQDQ01+000000PRSWM2
0143039620999991992010607004+52700-008917SY-MT+0020EINN V0201901N00411220001CN0200001N1+00981+00771101861ADDAG12999GA1011+027009039GF102991011001999999031011MA1101801999999MD1610061+9999MW1001REMSYN011333   81359MET011CAVOK NOSIGEQDQ01+000000PRSWM2
0159039620999991992010608004+52700-008917SY-MT+0020EINN V0202101N00511220001CN0200001N1+01021+00721101861ADDAG12999GA1011+015009059GF101991011051017501999011MA1101801999999MD1610011+9999MW1001REMSYN011333   81650MET011CAVOK NOSIGEQDQ01+000000PRSWM2Q02    003SCOMCG
0064039620999991992010608304+52700-008917FM-15+0020EINN V0201901N00671999991CY0099001N1+01001+00701999999ADDAG11000MA1101801999999REMMET011CAVOK NOSIGEQDQ01+000000PRSWM2
0137039620999991992010609004+52700-008917SY-MT+0020EINN V0202001N00511220001CN0200001N1+01001+00681101901ADDAG12000GA1011+010509059GF101991011051012501001001MA1101901999999MD1310061+9999MW1001REMSYN011333   81635MET005NOSIGEQDQ01+000000PRSWM2
0074039620999991992010609304+52700-008917FM-15+0020EINN V0201901N00571220001CN0112001N1+01001+00701999999ADDAG11999GA1011+010209059MA1101801999999REMMET005NOSIGEQDQ01+000000PRSWM2
0137039620999991992010610004+52700-008917SY-MT+0020EINN V0201901N00511220001CN0250001N1+01071+00721101871ADDAG12999GA1011+012009059GF101991011051012501001021MA1101801999999MD1010011+9999MW1001REMSYN011333   81640MET005NOSIGEQDQ01+000000PRSWM2
0074039620999991992010610304+52700-008917FM-15+0020EINN V0201701N00411012001CN0112001N1+01101+00801999999ADDAG11999GA1051+012009059MA1101801999999REMMET005NOSIGEQDQ01+000000PRSWM2
0137039620999991992010611004+52700-008917SY-MT+0020EINN V0202001N00571012001CN0200001N1+01181+00811101881ADDAG12999GA1051+012009059GF105991051051012501001021MA1101801999999MD1010021+9999MW1001REMSYN011333   85640MET005NOSIGEQDQ01+000000PRSWM2
0074039620999991992010612004+52700-008917FM-15+0020EINN V0202001N00511220001CN0112001N1+01201+00801999999ADDAG11000GA1031+012009059MA1101801999999REMMET005NOSIGEQDQ01+000000PRSWM2
0075039620999991992010612304+52700-008917FM-15+0020EINN V0202101N00411220001CN0112001N1+01301+00801999999ADDAG11999GA1031+012009059MA1101691999999REMMET006NIOSIGEQDQ01+000000PRSWM2
0153039620999991992010613004+52700-008917SY-MT+0020EINN V0201701N00211220001CN0200001N1+01301+00871101751ADDAG12999GA1011+006009089GA2031+012009059GF103991031081008001001001MA1101691999999MD1710121+9999REMSYN017333   81820 83640MET005NOSIGEQDQ01+000000PRSWM2
0074039620999991992010613304+52700-008917FM-15+0020EINN V0201701N00411220001CN0112001N1+01301+00801999999ADDAG11999GA1031+007809089MA1101691999999REMMET005NOSIGEQDQ01+000000PRSWM2
0159039620999991992010614004+52700-008917SY-MT+0020EINN V0202001N00571015001CN0200001N1+01201+00831101661ADDAG11999GA1031+008109089GA2041+015009059GF106991061081008001999999MA1101591999999MD1710221+9999MW1001REMSYN017333   83827 84650MET005NOSIGEQDQ01+000000PRSWM2
0090039620999991992010614304+52700-008917FM-15+0020EINN V0202001N00571015001CN0112001N1+01201+00801999999ADDAG11000GA1031+008109089GA2061+015009059MA1101591999999REMMET005NOSIGEQDQ01+000000PRSWM2
0153039620999991992010615004+52700-008917SY-MT+0020EINN V0201801N00461015001CN0200001N1+01141+00831101611ADDAG12000GA1041+007509059GA2071+015009059GF107991071051008001999999MA1101591999999MD1710211+9999REMSYN017333   84625 87650MET005NOSIGEQDQ01+000000PRSWM2
0090039620999991992010615304+52700-008917FM-15+0020EINN V0201701N00571015001CN0112001N1+01101+00801999999ADDAG11999GA1031+007509059GA2071+015009059MA1101491999999REMMET005NOSIGEQDQ01+000000PRSWM2
0153039620999991992010616004+52700-008917SY-MT+0020EINN V0201701N00571015001CN0200001N1+01101+00771101551ADDAG12999GA1021+007509089GA2061+015009059GF107991071081008001999999MA1101491999999MD1710201+9999REMSYN017333   82825 86650MET005NOSIGEQDQ01+000000PRSWM2
0090039620999991992010616304+52700-008917FM-15+0020EINN V0201601N00411015001CN0112001N1+01101+00801999999ADDAG11999GA1031+009009059GA2071+015009059MA1101491999999REMMET005NOSIGEQDQ01+000000PRSWM2
0153039620999991992010617004+52700-008917SY-MT+0020EINN V0201601N00571009001CN0160001N1+01081+00751101501ADDAG12999GA1051+009009059GA2061+015009059GF108991081051012501999999MA1101491999999MD1710161+9999REMSYN017333   85630 86650MET005NOSIGEQDQ01+000000PRSWM2
0090039620999991992010617304+52700-008917FM-15+0020EINN V0201601N00511015001CN0112001N1+01101+00701999999ADDAG11000GA1031+007209059GA2081+015009059MA1101391999999REMMET005NOSIGEQDQ01+000000PRSWM2
0183039620999991992010618004+52700-008917SY-MT+0020EINN V0201801N00621018001CN0200001N1+01011+00761101441ADDAA199999929AG10000GA1031+009009059GA2071+018009059GF107991071051012501999999KA1120M+01311MA1101391999999MD1710171+9999REMSYN023333   10131 83630 87656MET005NOSIGEQDQ01+000000PRSWM2
0090039620999991992010618304+52700-008917FM-15+0020EINN V0201601N00411220001CN0112001N1+01001+00701999999ADDAG11999GA1011+009009059GA2041+018009059MA1101391999999REMMET005NOSIGEQDQ01+000000PRSWM2
0090039620999991992010619004+52700-008917FM-15+0020EINN V0201601N00621220001CN0112001N1+01001+00701999999ADDAG12999GA1011+009009059GA2031+018009059MA1101291999999REMMET005NOSIGEQDQ01+000000PRSWM2
0149039620999991992010620004+52700-008917SY-MT+0020EINN V0201701N00511220001CN0200001N1+00971+00671101301ADDAG11999GA1021+018009059GF104991021051017501031001MA1101291999999MD1610201+9999MW1001REMSYN017333   82656 84358MET011CAVOK NOSIGEQDQ01+000000PRSWM2
0064039620999991992010620304+52700-008917FM-15+0020EINN V0201601N00571999991CY0099001N1+01001+00701999999ADDAG11000MA1101191999999REMMET011CAVOK NOSIGEQDQ01+000000PRSWM2
0143039620999991992010621004+52700-008917SY-MT+0020EINN V0201701N00571030001CN0200001N1+01001+00681101191ADDAG12000GA1031+018009059GF107991031051017501031999MA1101081999999MD1810251+9999REMSYN017333   83656 86359MET011CAVOK NOSIGEQDQ01+000000PRSWM2
0064039620999991992010621304+52700-008917FM-15+0020EINN V0201801N00621999991CY0099001N1+01001+00701999999ADDAG12999MA1101081999999REMMET011CAVOK NOSIGEQDQ01+000000PRSWM2
0143039620999991992010622004+52700-008917SY-MT+0020EINN V0201701N00771030001CN0250001N1+01041+00701101061ADDAG12999GA1031+015009059GF108991031051017501021999MA1101021999999MD1710301+9999REMSYN017333   83650 88459MET011CAVOK NOSIGEQDQ01+000000PRSWM2
0064039620999991992010622304+52700-008917FM-15+0020EINN V0201701N00881999991CY0099001N1+01101+00801999999ADDAG12999MA1101021999999REMMET011CAVOK NOSIGEQDQ01+000000PRSWM2
0162039620999991992010623004+52700-008917SY-MT+0020EINN V0201701N00871024001CN0250001N1+01051+00831100981ADDAG12999AY161021AY221021GA1031+010509059GA2081+024009049GF108991031051012501021999MA1100911999999MD1710321+9999MW1211MW2601REMSYN017333   83635 88458MET005NOSIG
0093039620999991992010623304+52700-008917FM-15+0020EINN V0201701N00771024001CN0112001N1+01101+00801999999ADDAG11000GA1011+010509059GA2031+015009059GA3081+024009049MA1100911999999MW1211REMMET005NOSIG
0208039620999991992010700004+52700-008917SY-MT+0020EINN V0201801N00621015001CN0250001N1+01071+00851100931ADDAA106999929AG10001AY161061AY221061GA1021+008709059GA2031+015009059GA3071+024009049GF107991041051008001021999MA1100911999999MD1710261+9999MW1101REMSYN023333   82629 83650 87458MET005NOSIGEQDQ01+000000PRSWM2
0106039620999991992010700304+52700-008917FM-15+0020EINN V0201901N00671015001CN0112001N1+01101+00801999999ADDAG11999GA1021+008409059GA2031+015009059GA3071+024009049MA1100911999999REMMET005NOSIGEQDQ01+000000PRSWM2
0175039620999991992010701004+52700-008917SY-MT+0020EINN V0201901N00771015001CN0250001N1+01101+00791100851ADDAG11999GA1021+007509059GA2031+015009059GA3061+024009049GF107991041051008001021999MA1100811999999MD1710211+9999REMSYN023333   82625 83650 86458MET005NOSIGEQDQ01+000000PRSWM2
0106039620999991992010701304+52700-008917FM-15+0020EINN V0201901N00671012001CN0112001N1+01101+00801999999ADDAG11999GA1021+007509059GA2031+012009059GA3061+024009049MA1100711999999REMMET005NOSIGEQDQ01+000000PRSWM2
0175039620999991992010702004+52700-008917SY-MT+0020EINN V0201901N00721024001CN0250001N1+01121+00791100751ADDAG11999GA1031+007509059GA2031+012009059GA3051+024009049GF107991041051008001021999MA1100711999999MD1710231+9999REMSYN023333   83625 83640 85458MET005NOSIGEQDQ01+000000PRSWM2
0106039620999991992010702304+52700-008917FM-15+0020EINN V0201901N00721010501CN0112001N1+01101+00801999999ADDAG11000GA1041+007509059GA2061+010509059GA3061+024009049MA1100711999999REMMET005NOSIGEQDQ01+000000PRSWM2
0175039620999991992010703004+52700-008917SY-MT+0020EINN V0201901N00721009001CN0250001N1+01121+00851100721ADDAG12000GA1031+006009059GA2061+009009059GA3071+015009059GF107991071051008001999999MA1100711999999MD1610211+9999REMSYN023333   83620 86630 87650MET005NOSIGEQDQ01+000000PRSWM2
0106039620999991992010703304+52700-008917FM-15+0020EINN V0201701N00721009001CN0112001N1+01101+00901999999ADDAG11999GA1031+006009059GA2061+009009059GA3071+015009059MA1100611999999REMMET005NOSIGEQDQ01+000000PRSWM2
0178039620999991992010704004+52700-008917SY-MT+0020EINN V0201801N00721009001CN0200001N1+01131+00861100641ADDAG12999AY161011AY221011GA1041+006009059GA2061+009009059GA3071+012009059GF108991081051008001999999MA1100611999999MD1710211+9999MW1601REMSYN023333   84620 86630 87640MET005NOSIG
0077039620999991992010704304+52700-008917FM-15+0020EINN V0201701N00571009001CN0112001N1+01101+00901999999ADDAG11999GA1031+006009059GA2071+009009059MA1100511999999MW1211REMMET005NOSIG
0178039620999991992010705004+52700-008917SY-MT+0020EINN V0201601N00721005101CN0200001N1+01101+00881100511ADDAG12999AY161021AY221021GA1031+003009079GA2061+005109079GA3081+009009059GF108991081061004501999999MA1100511999999MD1810241+9999MW1601REMSYN023333   83710 86717 88630MET005NOSIG
0093039620999991992010705304+52700-008917FM-15+0020EINN V0201601N00821006601CN0112001N1+01101+00901999999ADDAG12000GA1031+004509079GA2061+006609059GA3081+010509059MA1100411999999MW1601REMMET005NOSIG
0256039620999991992010706004+52700-008917SY-MT+0020EINN V0201701N00771015001CN0200001N1+01131+00951100401ADDAA199999929AG19001AY161061AY221061GA1031+004509079GA2081+015009049GF108991031061004501021999GJ101989IA1099IA2999+00709KA1120N+00941MA1100311999999MD1810321+9999MW1601OC101341REMSYN035333   20094 31007 55033 83715 88550MET029TEMPO 8000       ?     6ST010
0116039620999991992010706304+52700-008917FM-15+0020EINN V0201801N00881006301CN0112001N1+01101+00901999999ADDAG12999GA1021+004509079GA2051+006309059GA3081+009909059MA1100311999999MW1211REMMET028TEMPO      ?     8000 6ST010
0201039620999991992010707004+52700-008917SY-MT+0020EINN V0201701N00821006001CN0200001N1+01111+00951100361ADDAG12999AY161011AY221011GA1031+002709079GA2051+006009059GA3081+015009059GF108991081051002501999999MA1100311999999MD1610281+9999MW1601REMSYN023333   83709 85620 88650MET028TEMPO      ?     8000 6ST010
0116039620999991992010707304+52700-008917FM-15+0020EINN V0201701N00721004501CN0112001N1+01101+01001999999ADDAG12999GA1031+002709079GA2031+004509079GA3081+009009059MA1100311999999MW1611REMMET028TEMPO      ?     8000 6ST010
0201039620999991992010708004+52700-008917SY-MT+0020EINN V0201801N00721015001CN0200001N1+01111+00951100331ADDAG12999AY161021AY261021GA1031+002709079GA2031+004509079GA3081+015009049GF108991041061002501021999MA1100311999999MD1610181+9999MW1611REMSYN023333   83709 83715 88550MET028TEMPO      ?     8000 6ST010
0100039620999991992010708304+52700-008917FM-15+0020EINN V0201801N00621006901CN0080001N1+01101+01001999999ADDAG11001GA1031+002709079GA2051+006909059GA3081+015009049MA1100311999999MW1611REMMET012TEMPO 6ST008
0185039620999991992010709004+52700-008917SY-MT+0020EINN V0201801N00621006601CN0090001N1+01101+01001100331ADDAG12001AY161031AY261031GA1031+003609079GA2061+006609059GA3081+015009049GF108991061061004501021999MA1100311999999MD1610071+9999MW1611REMSYN023333   83712 86622 88550MET012TEMPO 6ST008
0100039620999991992010709304+52700-008917FM-15+0020EINN V0201901N00571004501CN0060001N1+01101+01001999999ADDAG12999GA1021+002409079GA2051+004509079GA3071+006909059MA1100311999999MW1611REMMET012TEMPO 6ST008
0209039620999991992010710004+52700-008917SY-MT+0020EINN V0201901N00571003001CN0070001N1+01111+01011100341ADDAG12999AY161011AY261011GA1021+001809079GA2051+003009079GA3081+015009049GF108991999061002501021999MA1100311999999MD1510021+9999MW1611REMSYN023333   82706 85710 88550MET017TEMPO 6000 6ST007EQDQ01+000082SCOTLC
0100039620999991992010710304+52700-008917FM-15+0020EINN V0201801N00511006001CN0060001N1+01101+01001999999ADDAG12999GA1021+002409079GA2061+006009059GA3081+015009049MA1100311999999MW1611REMMET012TEMPO 6ST007
0185039620999991992010711004+52700-008917SY-MT+0020EINN V0201701N00571005101CN0090001N1+01121+01001100291ADDAG12999AY161021AY221021GA1021+003009079GA2061+005109079GA3071+012009059GF108991081061004501999999MA1100201999999MD1810041+9999MW1601REMSYN023333   82710 86717 87640MET012TEMPO 6ST007
0100039620999991992010711304+52700-008917FM-15+0020EINN V0201801N00671004801CN0112001N1+01201+01001999999ADDAG12000GA1011+002709079GA2051+004809079GA3071+007509059MA1100201999999MW1211REMMET012TEMPO 6ST007
0196039620999991992010712004+52700-008917SY-MT+0020EINN V0201901N00721005101CN0060001N1+01161+01011100211ADDAA106007091AG19001AY161061AY221061GA1021+002709079GA2061+005109079GA3071+006909059GF108991081061002501999999MA1100201999999MD1810121+9999MW1601REMSYN023333   82709 86717 87623MET012TEMPO 6ST007
0100039620999991992010712304+52700-008917FM-15+0020EINN V0202001N00621005401CN0090001N1+01201+00901999999ADDAG12999GA1011+003609079GA2051+005409079GA3071+010809059MA1100101999999MW1601REMMET012TEMPO 6ST007
0190039620999991992010713004+52700-008917SY-MT+0020EINN V0201701N00571005401CN0100001N1+01131+00911100111ADDAG12999AY161011AY221011GA1021+003309079GA2041+005409079GA3061+007809059GF108991081061004501999999MA1100101999999MD1710231+9999MW1601REMSYN023333   82711 84718 86626MET017TEMPO 6000 6ST007
0115039620999991992010713304+52700-008917FM-15+0020EINN V0201601N00461010201CN0112001N1+01101+00901999999ADDAG12999GA1011+003609079GA2031+005409079GA3071+010209059MA1100001999999MW1211REMMET027TEMPO VIS 7KM 3ST007 7ST010
0166039620999991992010714004+52700-008917SY-MT+0020EINN V0201601N00721003001CN0070001N1+01111+00951099961ADDAG12999AY161021AY251021GA1041+002109079GA2051+003009079GA3071+004209079GF108991081061002501999999MD1710331+9999MW1581REMSYN023333   84707 85710 86714MET008999NOSIG
0100039620999991992010714304+52700-008917FM-15+0020EINN V0201601N00671003001CN0070001N1+01101+01001999999ADDAG12000GA1031+002109079GA2051+003009079GA3071+004809079MA1099801999999MW1601REMMET012BNOSIG     ?
0175039620999991992010715004+52700-008917SY-MT+0020EINN V0201601N00671004501CN0120001N1+01061+00961099821ADDAG12001AY161031AY251031GA1031+002409079GA2081+004509079GF108991081061002501999999MA1099801999999MD1710391+9999MW1601REMSYN017333   83708 88715MET024TEMPO 6000 5ST007 7ST010
0112039620999991992010715304+52700-008917FM-15+0020EINN V0201601N00721003601CN0112001N1+01101+00901999999ADDAG12999GA1031+002409079GA2051+003609079GA3071+004809079MA1099701999999MW1601REMMET024TEMPO 6000 5ST007 7ST010
0197039620999991992010716004+52700-008917SY-MT+0020EINN V0201701N00821003901CN0140001N1+01101+00941099721ADDAG12999AY161011AY261011GA1021+002709079GA2041+003909079GA3071+015009059GF108991081061002501999999MA1099701999999MD1710381+9999MW1611REMSYN023333   82709 84713 88650MET024TEMPO 7000 5ST007 7ST010
0112039620999991992010716304+52700-008917FM-15+0020EINN V0201701N00931004501CN0090001N1+01101+00901999999ADDAG12999GA1021+002709079GA2041+004509079GA3071+015009059MA1099591999999MW1611REMMET024TEMPO 6000 5ST007 7ST010
0197039620999991992010717004+52700-008917SY-MT+0020EINN V0201701N00721004501CN0120001N1+01081+00941099641ADDAG12999AY161021AY261021GA1031+002709079GA2041+004509079GA3071+015009059GF108991081061002501999999MA1099591999999MD1710311+9999MW1611REMSYN023333   83709 84715 87650MET024TEMPO 6000 5ST007 7ST010
0116039620999991992010717304+52700-008917FM-15+0020EINN V0201601N00721009001CN0112001N1+01101+00901999999ADDAG11001GA1031+003909079GA2051+009009059GA3071+015009059MA1099591999999MW1611REMMET028TEMPO      ?     5000 5ST006
0231039620999991992010718004+52700-008917SY-MT+0020EINN V0201601N00671015001CN0200001N1+01061+00921099571ADDAA199009091AG10001AY161061AY251061GA1011+003909079GA2031+007509059GA3081+015009059GF108991081051004501999999KA1120M+01191MA1099491999999MD1710241+9999MW1501REMSYN029333   10119 81713 83625 88650MET028GRADU      ?     8000 8ST010
0116039620999991992010718304+52700-008917FM-15+0020EINN V0201601N00721004501CN0112001N1+01001+00901999999ADDAG11999GA1021+002109079GA2051+004509079GA3071+006609059MA1099491999999MW1501REMMET028GRADU      ?     8000 8ST010
0159039620999991992010719004+52700-008917SY-MT+0020EINN V0201601N00721003001CN0150001N1+01061+00901099481ADDAG12043AY161011AY251011GA1021+002109079GA2071+003009079GF108991081061002501999999MA1099391999999MD1710241+9999MW1211REMSYN017333   82707 87710MET008GRADU 80
0106039620999991992010719304+52700-008917FM-15+0020EINN V0201501N00621004201CN0112001N1+01101+00901999999ADDAG12999GA1031+002709079GA2041+004209079GA3061+005409079MA1099391999999MW1501REMMET018GRADU 8000  8ST010
0178039620999991992010720004+52700-008917SY-MT+0020EINN V0201501N00721004501CN0100001N1+01051+00911099371ADDAG12999AY151021AY221021GA1011+002109079GA2041+003009079GA3071+004509079GF108991081061002501999999MA1099291999999MD1710271+9999MW1501REMSYN023333   81707 84710 87715MET005NOSIG
0101039620999991992010720304+52700-008917FM-15+0020EINN V0201401N00571003001CN0080001N1+01101+00901999999ADDAG12000GA1031+002109079GA2081+003009079MA1099291999999MW1511REMMET029TEMPO 5000       ?     8ST006
0201039620999991992010721004+52700-008917SY-MT+0020EINN V0201501N00571003001CN0080001N1+01051+00951099241ADDAG12001AY161031AY251031GA1031+002109079GA2051+003009079GA3071+004509079GF108991081061002501999999MA1099191999999MD1710331+9999MW1511REMSYN023333   83707 85710 87715MET028TEMPO      ?     5000 8ST006
0105039620999991992010721304+52700-008917FM-15+0020EINN V0201401N00571008101CN0112001N1+01001+00901999999ADDAG12999GA1011+002709079GA2041+003909079GA3081+008109059MA1099091999999MW1601REMMET017TEMPO 5000 8ST006
0201039620999991992010722004+52700-008917SY-MT+0020EINN V0201301N00511004501CN0080001N1+01031+00951099131ADDAG12999AY161011AY251011GA1031+002109079GA2051+004509079GA3081+015009049GF108991061061002501021999MA1099091999999MD1710351+9999MW1601REMSYN023333   83707 85715 88550MET028TEMPO      ?     5000 8ST006
0082039620999991992010722304+52700-008917FM-15+0020EINN V0201501N00461001801CN0080001N1+01101+01001999999ADDAG11999GA1061+001809079GA2071+003309079MA1098981999999MW1581REMMET010TEMPO 5000
0190039620999991992010723004+52700-008917SY-MT+0020EINN V0201501N00511003901CN0150001N1+01071+00991099021ADDAG12999AY161021AY251021GA1021+001809079GA2061+003909079GA3061+006009059GF108991081061002501999999MA1098981999999MD1710351+9999MW1511REMSYN023333   82706 86713 86620MET017TEMPO 5000 8ST006
0105039620999991992010723304+52700-008917FM-15+0020EINN V0201701N00461003301CN0112001N1+01101+01001999999ADDAG11000GA1021+002409079GA2031+003309079GA3071+007509059MA1098981999999MW1501REMMET017TEMPO 5000 8ST006
0201039620999991992010800004+52700-008917SY-MT+0020EINN V0201701N00461005101CN0200001N1+01121+01021098981ADDAA106001091AG19001AY161061AY251061GA1021+002409079GA2041+005109079GA3081+007509059GF108991081061002501999999MA1098921999999MD1710261+9999MW1511REMSYN023333   82708 84717 88625MET017TEMPO 5000 8ST006
0116039620999991992010800304+52700-008917FM-15+0020EINN V0202301N00621003001CN0112001N1+01101+01001999999ADDAG11999GA1021+001809079GA2041+003009079GA3061+004509079MA1098981999999MW1601REMMET028TEMPO      ?     5000 8ST006
0190039620999991992010801004+52700-008917SY-MT+0020EINN V0202301N00771004501CN0200001N1+00981+00921099031ADDAG12999AY161011AY251011GA1021+003009079GA2041+004509079GA3071+015009059GF108991081061004501999999MA1098981999999MD1510101+9999MW1211REMSYN023333   82710 84715 87650MET017TEMPO 5000 8ST006
0105039620999991992010801304+52700-008917FM-15+0020EINN V0202301N00621003601CN0112001N1+01001+00901999999ADDAG11999GA1031+001809079GA2031+003609079GA3071+015009059MA1098981999999MW1211REMMET017TEMPO 5000 8ST006
0190039620999991992010802004+52700-008917SY-MT+0020EINN V0202301N00411003601CN0200001N1+00971+00891099081ADDAG12999AY161021AY221021GA1031+002109079GA2031+003609079GA3071+015009059GF108991081061002501999999MA1098981999999MD1310061+9999MW1211REMSYN023333   83707 83712 87650MET017TEMPO 5000 8ST006
0089039620999991992010802304+52700-008917FM-15+0020EINN V0202301N00461003301CN0070001N1+01001+00901999999ADDAG12000GA1031+002109079GA2061+003309079MA1099091999999MW1501REMMET017TEMPO 5000 8ST006
0179039620999991992010803004+52700-008917SY-MT+0020EINN V0202401N00511003601CN0200001N1+00941+00861099131ADDAG12001AY161031AY251031GA1031+001809079GA2041+003609079GF106991061061002501999999MA1099091999999MD1210151+9999MW1201REMSYN017333   83706 84712MET028TEMPO      ?     5000 8ST006
0089039620999991992010803304+52700-008917FM-15+0020EINN V0202401N00571003601CN0112001N1+00901+00901999999ADDAG12999GA1031+002109079GA2061+003609079MA1099091999999MW1201REMMET017TEMPO 5000 8ST006
0190039620999991992010804004+52700-008917SY-MT+0020EINN V0202301N00461003001CN0200001N1+00941+00841099171ADDAG12999AY151011AY221011GA1031+001809079GA2051+003009079GA3061+004509079GF108991081071002501999999MA1099091999999MD1210141+9999MW1201REMSYN023333   83706 85710 86715MET017TEMPO 5000 8ST006
0105039620999991992010804304+52700-008917FM-15+0020EINN V0202301N00261003601CN0112001N1+00901+00801999999ADDAG12999GA1021+001809079GA2041+003609079GA3051+015009059MA1099091999999MW1201REMMET017TEMPO 5000 8ST006
0201039620999991992010805004+52700-008917SY-MT+0020EINN V0202501N00211003001CN0200001N1+00891+00811099221ADDAG12999AY151021AY221021GA1031+001809079GA2041+003009079GA3051+007509059GF108991081071002501999999MA1099191999999MD1210141+9999MW1201REMSYN023333   83706 84710 85625MET028TEMPO      ?     5000 8ST006
0109039620999991992010805304+52700-008917FM-15+0020EINN V0202801N00211003001CN0112001N1+00901+00801999999ADDAG11000GA1031+001809079GA2071+003009079MA1099191999999REMMET024TEMPO 5000 8ST006      ?EQDQ01+000000PRSWM2
0269039620999991992010806004+52700-008917SY-MT+0020EINN V0203601N00361002401CN0060001N1+00851+00771099231ADDAA199001091AG10001AY161061AY251061GA1031+001209079GA2041+002409079GA3071+003009079GF108991081071001501999999GJ100009IA1099IA2999+00909KA1120N+00851MA1099191999999MD1110101+9999MW1501REMSYN041333   20085 31009 55000 83704 84708 87712MET028GRADU      ?     9999 5ST010
0116039620999991992010806304+52700-008917FM-15+0020EINN V0200201N00621002401CN0060001N1+00701+00601999999ADDAG12999GA1031+001209079GA2051+002409079GA3071+003609079MA1099191999999MW1581REMMET028GRADU      ?     9999 5ST010
0201039620999991992010807004+52700-008917SY-MT+0020EINN V0200101N00511003001CN0080001N1+00681+00601099261ADDAG12999AY161011AY251011GA1031+001509079GA2041+003009079GA3071+007509059GF108991081061001501999999MA1099191999999MD1210091+9999MW1611REMSYN023333   83705 84710 87625MET028GRADU      ?     9999 5ST010
0116039620999991992010807304+52700-008917FM-15+0020EINN V0200201N00511003001CN0060001N1+00701+00601999999ADDAG12999GA1031+001209079GA2061+003009079GA3071+005409079MA1099291999999MW1631REMMET028GRADU      ?     9999 5ST010
0201039620999991992010808004+52700-008917SY-MT+0020EINN V0200201N00511002401CN0060001N1+00641+00551099331ADDAG12999AY161021AY261021GA1031+001209079GA2061+002409079GA3071+005409079GF108991081061001501999999MA1099291999999MD1310111+9999MW1631REMSYN023333   83704 86708 87718MET028GRADU      ?     9999 5ST010
0100039620999991992010808304+52700-008917FM-15+0020EINN V0200201N00361003001CN0112001N1+00601+00501999999ADDAG12000GA1021+001509079GA2051+003009079GA3061+005409079MA1099291999999MW1211REMMET012GRADU 5ST010
0100039620999991992010809004+52700-008917FM-15+0020EINN V0203201N00211002701CN0112001N1+00601+00501999999ADDAG11000GA1031+001809079GA2061+002709079GA3071+005409079MA1099391999999MW1601REMMET012GRADU 5ST010
0100039620999991992010809304+52700-008917FM-15+0020EINN V0203501N00261002701CN0112001N1+00601+00501999999ADDAG12999GA1041+001509079GA2061+002709079GA3071+005409079MA1099391999999MW1211REMMET012GRADU 5ST010
0193039620999991992010810004+52700-008917SY-MT+0020EINN V0200101N00511002101CN0200001N1+00641+00551099501ADDAG12999AY161011AY221011GA1031+001509079GA2051+002109079GA3061+003309079GF107991071061001501999999MA1099391999999MD1210231+9999MW1601REMSYN023333   83705 85707 86711MET020TEMPO      ?     700
0108039620999991992010810304+52700-008917FM-15+0020EINN V0203501N00411003001CN0112001N1+00601+00501999999ADDAG11999GA1041+001809079GA2061+003009079GA3061+007509059MA1099491999999MW1501REMMET020TEMPO      ?     700
0189039620999991992010811004+52700-008917SY-MT+0020EINN V0200101N00461003001CN0150001N1+00621+00511099541ADDAG12999AY161021AY251021GA1031+001809079GA2061+003009079GA3071+005109079GF107991071061002501999999MA1099491999999MD1210201+9999MW1501REMSYN023333   83706 86710 87717MET016TEMPO      ?7000
0108039620999991992010811304+52700-008917FM-15+0020EINN V0203501N00461002401CN0060001N1+00601+00501999999ADDAG12000GA1021+001509079GA2031+002409079GA3071+003009079MA1099491999999MW1501REMMET020TEMPO      ?     5ST
0200039620999991992010812004+52700-008917SY-MT+0020EINN V0203601N00511002101CN0080001N1+00591+00481099571ADDAA106004091AG10001AY161061AY251061GA1021+001509079GA2061+002109079GA3071+003009079GF107991071061001501999999MA1099491999999MD1210151+9999MW1501REMSYN023333   82705 86707 87710MET016TEMPO      ?6000
0125039620999991992010812304+52700-008917FM-15+0020EINN V0200101N00571002401CN0050001N1+00501+00401999999ADDAG12999GA1031+001509079GA2061+002409079GA3081+004509079MA1099491999999MW1581REMMET037VIS        ?     10KM TO E TEMPO 8000
0189039620999991992010813004+52700-008917SY-MT+0020EINN V0200101N00571002701CN0060001N1+00531+00381099601ADDAG12999AY161011AY251011GA1031+001809079GA2041+002709079GA3071+003909079GF108991081061002501999999MA1099491999999MD1110101+9999MW1511REMSYN023333   83706 84709 87713MET016TEMPO      ?9000
0116039620999991992010813304+52700-008917FM-15+0020EINN V0203501N00621003001CN0090001N1+00501+00401999999ADDAG12999GA1031+001809079GA2041+003009079GA3081+004509079MA1099591999999MW1581REMMET028TEMPO      ?     6000 5ST007
0185039620999991992010814004+52700-008917SY-MT+0020EINN V0203601N00671003001CN0070001N1+00521+00371099631ADDAG12999AY161021AY251021GA1021+001809079GA2051+003009079GA3081+015009049GF108991061061002501021999MA1099591999999MD1210091+9999MW1581REMSYN023333   82706 85710 88550MET012TEMPO 5ST007
0100039620999991992010814304+52700-008917FM-15+0020EINN V0203601N00571003001CN0112001N1+00501+00401999999ADDAG12001GA1031+001809079GA2071+003009079MA1099591999999MW1611REMMET028TEMPO      ?     6000 5ST007
0201039620999991992010815004+52700-008917SY-MT+0020EINN V0203501N00671015001CN0200001N1+00531+00361099651ADDAG12001AY161031AY251031GA1011+002709079GA2041+003609079GA3051+015009059GF107991071061002501999999MA1099591999999MD1210081+9999MW1211REMSYN023333   81709 84712 85650MET028TEMPO      ?     7000 5ST010
0082039620999991992010815304+52700-008917FM-15+0020EINN V0203601N00571002401CN0112001N1+00501+00301999999ADDAG12999GA1051+002409079GA2071+004209079MA1099591999999MW1601REMMET010TEMPO 7000
0183039620999991992010816004+52700-008917SY-MT+0020EINN V0203501N00571003001CN0200001N1+00511+00361099701ADDAG12999AY161011AY221011GA1031+001809079GA2061+003009079GA3061+004809079GF108991081061002501999999MA1099591999999MD1210101+9999MW1501REMSYN023333   83706 86710 86716MET010TEMPO 7000
0100039620999991992010816304+52700-008917FM-15+0020EINN V0203601N00511004501CN0112001N1+00501+00401999999ADDAG12999GA1031+002709079GA2051+004509079MA1099701999999MW1501REMMET028TEMPO      ?     7000 5ST010
0183039620999991992010817004+52700-008917SY-MT+0020EINN V0203501N00571003001CN0150001N1+00541+00341099731ADDAG12999AY161021AY251021GA1031+002109079GA2041+003009079GA3051+004809079GF107991071061002501999999MA1099701999999MD1210101+9999MW1501REMSYN023333   83707 84710 85716MET010TEMPO 7000
0098039620999991992010817304+52700-008917FM-15+0020EINN V0203601N00771004501CN0112001N1+00501+00301999999ADDAG12000GA1031+002409079GA2051+004509079GA3071+007509059MA1099701999999MW1501REMMET010TEMPO 7000
0213039620999991992010818004+52700-008917SY-MT+0020EINN V0203601N00721003601CN0150001N1+00521+00301099821ADDAA199005091AG19001AY161061AY251061GA1031+002409079GA2051+003609079GA3071+007509059GF108991081061002501999999KA1120M+00921MA1099801999999MD1210171+9999MW1511REMSYN029333   10092 83708 86712 87625MET010TEMPO 7000
0098039620999991992010818304+52700-008917FM-15+0020EINN V0200101N00671003301CN0112001N1+00501+00301999999ADDAG12999GA1031+002409079GA2051+003309079GA3071+006009059MA1099801999999MW1201REMMET010TEMPO 7000
0189039620999991992010819004+52700-008917SY-MT+0020EINN V0200101N00721003901CN0200001N1+00501+00281099921ADDAG12999AY151011AY221011GA1021+002709079GA2051+003909079GA3071+006009059GF108991081061002501999999MA1099901999999MD1210221+9999MW1201REMSYN023333   82709 85713 87620MET016TEMPO      ?7000
0090039620999991992010819304+52700-008917FM-15+0020EINN V0203601N00621006901CN0112001N1+00501+00301999999ADDAG12999GA1041+004209079GA2081+006909059MA1099901999999REMMET005NOSIGEQDQ01+000000PRSWM2
0153039620999991992010820004+52700-008917SY-MT+0020EINN V0203601N00821006901CN0250001N1+00531+00251100021ADDAG12999GA1041+004209079GA2071+006909059GF108991081051004501999999MA1100001999999MD1210291+9999REMSYN017333   84714 87623MET005NOSIGEQDQ01+000000PRSWM2
0090039620999991992010820304+52700-008917FM-15+0020EINN V0203601N00721006601CN0112001N1+00501+00301999999ADDAG11000GA1021+004209079GA2071+006609059MA1100001999999REMMET005NOSIGEQDQ01+000000PRSWM2
0175039620999991992010821004+52700-008917SY-MT+0020EINN V0203601N00671006001CN0300001N1+00551+00231100101ADDAG12000AY151031AY221031GA1031+004509079GA2081+006009059GF108991081051004501999999MA1100001999999MD1210281+9999MW1021REMSYN017333   83715 88620MET005NOSIGEQDQ01+000000PRSWM2
0090039620999991992010821304+52700-008917FM-15+0020EINN V0203601N00721006301CN0112001N1+00601+00201999999ADDAG12999GA1021+003609079GA2071+006309059MA1100101999999REMMET005NOSIGEQDQ01+000000PRSWM2
0186039620999991992010822004+52700-008917SY-MT+0020EINN V0200101N00871006001CN0200001N1+00551+00181100151ADDAG12999AY161011AY221011GA1021+004509079GA2061+006009059GA3061+015009059GF108991081051004501999999MA1100101999999MD1210231+9999MW1601OC101701REMSYN023333   82715 86620 86650MET005NOSIG
0077039620999991992010822304+52700-008917FM-15+0020EINN V0200101N01031006301CN0112001N1+00501+99999999999ADDAG12999GA1031+002409079GA2081+006309059MW1601OC101651REMMET012021001 NOSIG
0156039620999991992010823004+52700-008917SY-MT+0020EINN V0200201N01181004801CN0200001N1+00491+00241100221ADDAG12999AY161021AY221021GA1031+002409079GA2071+004809079GF108991081061002501999999MA1100201999999MD1210201+9999MW1601REMSYN017333   83708 88716MET005NOSIG
0077039620999991992010823304+52700-008917FM-15+0020EINN V0200101N01081006301CN0112001N1+00501+00201999999ADDAG11000GA1041+004809079GA2081+006309059MA1100201999999MW1211REMMET005NOSIG
0175039620999991992010900004+52700-008917SY-MT+0020EINN V0200101N01031004501CN0200001N1+00531+00201100371ADDAA106999929AG10001AY161061AY221061GA1061+004509079GA2071+006009059GF108991081061004501999999MA1100311999999MD1210271+9999MW1211OC101441REMSYN017333   86715 87620MET005NOSIG
0090039620999991992010900304+52700-008917FM-15+0020EINN V0200101N00771005101CN0112001N1+00501+00201999999ADDAG11999GA1061+005109079GA2061+007509059MA1100411999999REMMET005NOSIGEQDQ01+000000PRSWM2
0164039620999991992010901004+52700-008917SY-MT+0020EINN V0200101N00821005401CN0150001N1+00491+00211100441ADDAG12999AY161011AY221011GA1031+004209079GA2071+005409079GF108991081061004501999999MA1100411999999MD1210291+9999MW1601OC101491REMSYN017333   83714 87718MET005NOSIG
0077039620999991992010901304+52700-008917FM-15+0020EINN V0200201N00881005401CN0112001N1+00501+00201999999ADDAG11999GA1031+004209079GA2071+005409079MA1100511999999MW1211REMMET005NOSIG
0164039620999991992010902004+52700-008917SY-MT+0020EINN V0200101N00931005401CN0200001N1+00551+00231100591ADDAG12999AY161021AY221021GA1031+004209079GA2071+005409079GF108991081061004501999999MA1100511999999MD1210371+9999MW1211OC101541REMSYN017333   83714 87718MET005NOSIG
0085039620999991992010902304+52700-008917FM-15+0020EINN V0200101N00821006001CN0112001N1+00601+00201999999ADDAG11000GA1031+004209079GA2071+006009059MA1100611999999MW1211OC101541REMMET005NOSIG
0183039620999991992010903004+52700-008917SY-MT+0020EINN V0200101N00771009001CN0200001N1+00551+00211100731ADDAG12001AY161031AY221031GA1021+004509079GA2041+009009059GF105991051051004501001001MA1100711999999MD1210361+9999MW1011OC101441REMSYN017333   82715 84630MET005NOSIGEQDQ01+000000PRSWM2
0098039620999991992010903304+52700-008917FM-15+0020EINN V0203501N00721009901CN0112001N1+00601+00201999999ADDAG11999GA1021+004509079GA2061+009909059MA1100811999999OC101391REMMET005NOSIGEQDQ01+000000PRSWM2
0131039620999991992010904004+52700-008917SY-MT+0020EINN V0203601N00871220001CN0200001N1+00531+00201100881ADDAG11999GA1041+008409059GF104991041051008001001001MA1100811999999MD1210441+9999REMSYN011333   84628MET005NOSIGEQDQ01+000000PRSWM2
0074039620999991992010904304+52700-008917FM-15+0020EINN V0200101N00771220001CN0112001N1+00501+00201999999ADDAG12999GA1021+010509059MA1100911999999REMMET005NOSIGEQDQ01+000000PRSWM2
0131039620999991992010905004+52700-008917SY-MT+0020EINN V0203601N00771220001CN0200001N1+00461+00131101001ADDAG12999GA1011+007509089GF102991021081008001001001MA1101021999999MD1210411+9999REMSYN011333   81825MET005NOSIGEQDQ01+000000PRSWM2
0074039620999991992010905304+52700-008917FM-15+0020EINN V0203601N00671220001CN0112001N1+00401+00201999999ADDAG11000GA1011+007509089MA1101021999999REMMET005NOSIGEQDQ01+000000PRSWM2
0221039620999991992010906004+52700-008917SY-MT+0020EINN V0200101N00671220001CN0200001N1+00411+00091101121ADDAA199000391AG10001AY161061AY211061GA1011+007509089GF101991011021008001001001GJ100009IA1099IA2999+01009KA1120N+00411MA1101081999999MD1210391+9999MW1011REMSYN029333   20041 31010 55000 81825MET005NOSIGEQDQ01+000000PRSWM2
0074039620999991992010906304+52700-008917FM-15+0020EINN V0203601N00621220001CN0112001N1+00401+00101999999ADDAG11999GA1011+007509089MA1101081999999REMMET005NOSIGEQDQ01+000000PRSWM2
0131039620999991992010907004+52700-008917SY-MT+0020EINN V0203501N00621220001CN0200001N1+00321+00051101251ADDAG11999GA1011+007509089GF101991011021008001001001MA1101191999999MD1210371+9999REMSYN011333   81825MET005NOSIGEQDQ01+000000PRSWM2
0074039620999991992010907304+52700-008917FM-15+0020EINN V0203601N00511220001CN0112001N1+00301+00001999999ADDAG11999GA1011+007509089MA1101291999999REMMET005NOSIGEQDQ01+000000PRSWM2
0131039620999991992010908004+52700-008917SY-MT+0020EINN V0203601N00571220001CN0400001N1+00291-00011101381ADDAG11999GA1011+007509089GF101991011081008001001001MA1101291999999MD1210381+9999REMSYN011333   81825MET005NOSIGEQDQ01+000000PRSWM2
0074039620999991992010908304+52700-008917FM-15+0020EINN V0203501N00461220001CN0112001N1+00301+00001999999ADDAG12000GA1011+007509089MA1101391999999REMMET005NOSIGEQDQ01+000000PRSWM2
0134039620999991992010909004+52700-008917SY-MT+0020EINN V0203601N00411220001CN0500001N1+00261-00071101501ADDAG12000GA1011+030009039GF101991011001999999031001MA1101491999999MD1210381+9999REMSYN011333   81360MET008CAVOK NOEQDQ01+000000PRSWM2
0061039620999991992010909304+52700-008917FM-15+0020EINN V0200101N00621999991CY0099001N1+00301-00101999999ADDAG11999MA1101491999999REMMET008CAVOK NOEQDQ01+000000PRSWM2
0134039620999991992010910004+52700-008917SY-MT+0020EINN V0203501N00671220001CN0400001N1+00271-00101101611ADDAG12999GA1011+030009039GF101991011001999999031001MA1101591999999MD1210361+9999REMSYN011333   81360MET008CAVOK NOEQDQ01+000000PRSWM2
0074039620999991992010910304+52700-008917FM-15+0020EINN V0203501N00571220001CN0112001N1+00301-00101999999ADDAG11999GA1011+009009059MA1101591999999REMMET005NOSIGEQDQ01+000000PRSWM2
0131039620999991992010911004+52700-008917SY-MT+0020EINN V0203501N00511220001CN0400001N1+00351-00061101711ADDAG12999GA1011+009009059GF101991011051012501031001MA1101691999999MD1210331+9999REMSYN011333   81630MET005NOSIGEQDQ01+000000PRSWM2
0074039620999991992010911304+52700-008917FM-15+0020EINN V0203501N00621220001CN0112001N1+00401+00001999999ADDAG12000GA1011+009009059MA1101691999999REMMET005NOSIGEQDQ01+000000PRSWM2
0148039620999991992010912004+52700-008917SY-MT+0020EINN V0203501N00571220001CN0400001N1+00421-00041101771ADDAA106000091AG14000GA1011+009009059GF101991011051012501031001MA1101691999999MD1210271+9999MW1001REMSYN011333   81630MET005NOSIGEQDQ01+000000PRSWM2
0074039620999991992010912304+52700-008917FM-15+0020EINN V0203501N00361220001CN0112001N1+00501+00001999999ADDAG12999GA1011+009009059MA1101801999999REMMET005NOSIGEQDQ01+000000PRSWM2
0131039620999991992010913004+52700-008917SY-MT+0020EINN V0203501N00311220001CN0400001N1+00541+00021101881ADDAG12999GA1011+009009059GF101991011051012501031001MA1101801999999MD1210271+9999REMSYN011333   81630MET005NOSIGEQDQ01+000000PRSWM2
0074039620999991992010913304+52700-008917FM-15+0020EINN V0203601N00411220001CN0112001N1+00601+00001999999ADDAG12999GA1011+009009059MA1101901999999REMMET005NOSIGEQDQ01+000000PRSWM2
0131039620999991992010914004+52700-008917SY-MT+0020EINN V0203601N00411220001CN0400001N1+00551-00061101941ADDAG12999GA1011+007209059GF101991011051008001031001MA1101901999999MD1210231+9999REMSYN011333   81624MET005NOSIGEQDQ01+000000PRSWM2
0074039620999991992010914304+52700-008917FM-15+0020EINN V0203601N00411220001CN0112001N1+00601+00001999999ADDAG11000GA1011+006909059MA1101901999999REMMET005NOSIGEQDQ01+000000PRSWM2
0137039620999991992010915004+52700-008917SY-MT+0020EINN V0200101N00211220001CN0400001N1+00581-00061101991ADDAG12000GA1011+007209059GF101991011051008001031001MA1101901999999MD1210221+9999MW1001REMSYN011333   81624MET005NOSIGEQDQ01+000000PRSWM2
0131039620999991992010916004+52700-008917SY-MT+0020EINN V0203601N00361220001CN0400001N1+00521-00011102071ADDAG12999GA1011+008109059GF101991011051008001001001MA1102001999999MD1210191+9999REMSYN011333   81627MET005NOSIGEQDQ01+000000PRSWM2
0074039620999991992010916304+52700-008917FM-15+0020EINN V0203501N00211220001CN0112001N1+00501+00001999999ADDAG12999GA1011+008409059MA1102101999999REMMET005NOSIGEQDQ01+000000PRSWM2
0131039620999991992010917004+52700-008917SY-MT+0020EINN V0203401N00261220001CN0300001N1+00401-00031102161ADDAG12999GA1011+008409059GF101991011051008001001001MA1102101999999MD1210221+9999REMSYN011333   81628MET005NOSIGEQDQ01+000000PRSWM2
0074039620999991992010917304+52700-008917FM-15+0020EINN V0200101N00261220001CN0112001N1+00401+00001999999ADDAG12000GA1011+010509059MA1102201999999REMMET005NOSIGEQDQ01+000000PRSWM2
0173039620999991992010918004+52700-008917SY-MT+0020EINN V0203201N00261220001CN0300001N1+00321-00011102291ADDAA199999929AG10000GA1011+010509059GF101991011051012501001001KA1120M+00601MA1102201999999MD1210301+9999MW1001REMSYN023333   10060 81635 92600MET005NOSIGEQDQ01+000000PRSWM2
0074039620999991992010918304+52700-008917FM-15+0020EINN V0203401N00261220001CN0112001N1+00301+00001999999ADDAG12999GA1011+010509059MA1102301999999REMMET005NOSIGEQDQ01+000000PRSWM2
