0141039620999991993050100004+52700-008917SY-MT+0020EINN V0202801N00361220001CN0200001N1+00871+00661101531ADDAA106999929AG13000GA1021+009009059GF102991021051012501001001MA1101491999999MD1610011+9999REMSYN010 333 82630MET005NOSIGEQDQ01+000000PRSWM2
0074039620999991993050100304+52700-008917FM-15+0020EINN V0203001N00151007201CN0112651N1+00901+00701999999ADDAG11999GA1071+007209059MA1101491999999REMMET005NOSIGEQDQ01+000000PRSWM2
0090039620999991993050101004+52700-008917FM-15+0020EINN V0202701N00251007201CN0112651N1+00901+00701999999ADDAG11999GA1011+004509079GA2071+007209059MA1101391999999REMMET005NOSIGEQDQ01+000000PRSWM2
0090039620999991993050101304+52700-008917FM-15+0020EINN V0202701N00151007201CN0112651N1+00901+00701999999ADDAG11999GA1021+004509079GA2071+007209059MA1101391999999REMMET005NOSIGEQDQ01+000000PRSWM2
0097039620999991993050102004+52700-008917FM-15+0020EINN V0202601N00101005401CN0112651N1+00901+00801999999ADDAG11999GA1041+002409079GA2071+005409079MA1101391999999REMMET012TEMPO 6ST007EQDQ01+000000PRSWM2
0080039620999991993050102304+52700-008917FM-15+0020EINN V0202501N00251001501CN0040001N1+00901+00801999999ADDAG11000GA1051+001509079GA2071+003009079MA1101391999999MW1501REMMET008TEMPO 80
0189039620999991993050103004+52700-008917SY-MT+0020EINN V0202401N00261003001CN0150001N1+00941+00841101401ADDAG12002AY161031AY251031GA1021+001509079GA2041+003009079GA3071+005409079GF108991081061001501999999MA1101391999999MD1710131+9999MW1211REMSYN022 333 82705 84710 87718MET017TEMPO 6000 6ST006
0118039620999991993050103304+52700-008917FM-15+0020EINN V0203201N00771005401CN0112651N1+01001+00801999999ADDAG11999GA1011+001509079GA2041+003009079GA3071+005409079MA1101291999999REMMET017TEMPO 6000 6ST006EQDQ01+000000PRSWM2
0118039620999991993050104004+52700-008917FM-15+0020EINN V0203201N00661010501CN0112651N1+00901+00701999999ADDAG11999GA1011+001809079GA2031+004509079GA3051+010509059MA1101291999999REMMET017TEMPO 6000 6ST008EQDQ01+000000PRSWM2
0097039620999991993050104304+52700-008917FM-15+0020EINN V0203301N00721010501CN0112651N1+00901+00701999999ADDAG11999GA1011+002409079GA2051+010509059MA1101291999999REMMET012TEMPO 5ST008EQDQ01+000000PRSWM2
0151039620999991993050105004+52700-008917FM-12+0020EINN V0203201N00671004201CN0150001N9+00881+00651101421ADDAG12999AY161021AY221021GA1021+002409079GA2041+004209079GA3051+010509059GF107991071061002501999999MD1510021+9999MW1601REMSYN022 333 82708 84714 85635
0100039620999991993050105304+52700-008917FM-15+0020EINN V0203201N00871007501CN0112651N1+00901+00501999999ADDAG11001GA1011+002409079GA2051+007509059GA3051+012009059MA1101391999999MW1211REMMET012TEMPO 5ST008
0252039620999991993050106004+52700-008917SY-MT+0020EINN V0203201N00671015001CN0200001N1+00871+00661101471ADDAA199000391AG10002AY161061AY251061GA1011+002409079GA2031+008109059GA3061+015009059GF107991071051002501999999GJ101389IA1099IA2999+00409KA1120N+00831MA1101391999999MD1310071+9999MW1211REMSYN040 333 20083 31004 55023 81708 83627 86650MET012TEMPO 5ST008
0097039620999991993050106304+52700-008917FM-15+0020EINN V0203201N00661015001CN0112651N1+00801+00601999999ADDAG11999GA1011+004509079GA2051+015009059MA1101391999999REMMET012TEMPO 5ST008EQDQ01+000000PRSWM2
0199039620999991993050107004+52700-008917SY-MT+0020EINN V0203201N00771075001CN0300001N1+00841+00381101551ADDAG11999GA1011+004509079GA2041+015009059GA3061+075009009GF106991041051004501999021MA1101491999999MD1310171+9999REMSYN022 333 81715 84650 86075MET014TEMPO 5ST008 ?EQDQ01+000000PRSWM2Q02    003SCOMCG
0090039620999991993050107304+52700-008917FM-15+0020EINN V0203301N00661075001CN0112651N1+00901+00401999999ADDAG11999GA1011+005409089GA2061+075009009MA1101491999999REMMET005NOSIGEQDQ01+000000PRSWM2
0152039620999991993050108004+52700-008917SY-MT+0020EINN V0203301N00721075001CN0350001N1+00891+00311101571ADDAG11999GA1011+005409089GA2061+075009009GF107991021081004501001021MA1101491999999MD1110151+9999REMSYN016 333 81818 86075MET005NOSIGEQDQ01+000000PRSWM2
0090039620999991993050108304+52700-008917FM-15+0020EINN V0203301N00721075001CN0112651N1+01001+00301999999ADDAG11000GA1031+005409089GA2051+075009009MA1101491999999REMMET005NOSIGEQDQ01+000000PRSWM2
0152039620999991993050109004+52700-008917SY-MT+0020EINN V0203201N00621075001CN0400001N1+01041+00221101591ADDAG11000GA1031+005709089GA2041+075009009GF107991041081004501031021MA1101491999999MD1110121+9999REMSYN016 333 83819 84075MET005NOSIGEQDQ01+000000PRSWM2
0174039620999991993050110004+52700-008917SY-MT+0020EINN V0203201N00671036001CN0450001N1+01021+00281101631ADDAG12999GA1031+006009089GA2031+036009039GA3051+075009009GF107991031081008001031021MA1101591999999MD1310081+9999REMSYN022 333 83820 83362 85075MET005NOSIGEQDQ01+000000PRSWM2
0077039620999991993050110304+52700-008917FM-15+0020EINN V0203101N00661012001CN0112651N1+01001+00401999999ADDAG11999GA1041+006609089GA2041+012009059MA1101591999999MW1251REMMET005NOSIG
0177039620999991993050111004+52700-008917SY-MT+0020EINN V0203101N00671012001CN0450001N1+01091+00261101641ADDAG12999AY181021AY221021GA1031+006909089GA2031+012009059GA3051+066009009GF107991051081008001031021MA1101591999999MD1210071+9999MW1251REMSYN022 333 83823 83640 85072MET005NOSIG
0090039620999991993050111304+52700-008917FM-15+0020EINN V0203301N00661066001CN0112651N1+01101+00201999999ADDAG11000GA1031+006909089GA2051+066009009MA1101591999999REMMET005NOSIGEQDQ01+000000PRSWM2
0185039620999991993050112004+52700-008917SY-MT+0020EINN V0203201N00871066001CN0450001N1+01071+00171101661ADDAA106999929AG11001AY181061AY221061GA1041+006909089GA2041+066009009GF107991051081008001031021MA1101591999999MD1210071+9999MW1011REMSYN016 333 84823 84072MET005NOSIGEQDQ01+000000PRSWM2
0090039620999991993050112304+52700-008917FM-15+0020EINN V0203201N00721066001CN0112651N1+01101+00201999999ADDAG11999GA1021+006909089GA2051+066009009MA1101591999999REMMET005NOSIGEQDQ01+000000PRSWM2
0107039620999991993050113004+52700-008917FM-12+0020EINN V0203201N00721060001CN0550001N9+01131+00131101661ADDAG12999GA1031+007509089GA2061+060009009GF107991031081008001001021MD1210031+9999REMSYN016 333 83825 86070
0090039620999991993050113304+52700-008917FM-15+0020EINN V0203201N00661060001CN0112651N1+01101+00201999999ADDAG11999GA1031+007509089GA2061+060009009MA1101591999999REMMET005NOSIGEQDQ01+000000PRSWM2
0152039620999991993050114004+52700-008917SY-MT+0020EINN V0203201N00571060001CN0550001N1+01051+00291101681ADDAG12999GA1031+007509089GA2061+060009009GF107991031081008001001021MA1101591999999MD1210041+9999REMSYN016 333 83825 86070MET005NOSIGEQDQ01+000000PRSWM2
0090039620999991993050114304+52700-008917FM-15+0020EINN V0203201N00721060001CN0112651N1+01101+00301999999ADDAG11000GA1031+007509089GA2061+060009009MA1101591999999REMMET005NOSIGEQDQ01+000000PRSWM2
0152039620999991993050115004+52700-008917SY-MT+0020EINN V0203101N00721060001CN0550001N1+01121+00081101681ADDAG12000GA1031+009009089GA2061+060009009GF107991031081012501001021MA1101591999999MD1110021+9999REMSYN016 333 83830 86070MET005NOSIGEQDQ01+000000PRSWM2
0090039620999991993050115304+52700-008917FM-15+0020EINN V0203001N00771060001CN0112651N1+01101+00001999999ADDAG11999GA1021+009009089GA2061+060009009MA1101591999999REMMET005NOSIGEQDQ01+000000PRSWM2
0152039620999991993050116004+52700-008917SY-MT+0020EINN V0203201N00621060001CN0550001N1+01091+00141101681ADDAG12999GA1021+009009089GA2061+060009009GF106991021081012501001021MA1101591999999MD1110021+9999REMSYN016 333 82830 86070MET005NOSIGEQDQ01+000000PRSWM2
0090039620999991993050116304+52700-008917FM-15+0020EINN V0203101N00721060001CN0112651N1+01101+00101999999ADDAG11999GA1011+009009089GA2061+060009009MA1101691999999REMMET005NOSIGEQDQ01+000000PRSWM2
0152039620999991993050117004+52700-008917SY-MT+0020EINN V0203101N00671060001CN0500001N1+01041+00041101711ADDAG12999GA1011+009009089GA2061+060009009GF106991011081012501001021MA1101691999999MD1110031+9999REMSYN016 333 81830 86070MET005NOSIGEQDQ01+000000PRSWM2
0090039620999991993050117304+52700-008917FM-15+0020EINN V0203001N00661060001CN0112651N1+01001-00101999999ADDAG11000GA1011+009009089GA2061+060009009MA1101691999999REMMET005NOSIGEQDQ01+000000PRSWM2
0182039620999991993050118004+52700-008917SY-MT+0020EINN V0203001N00671060001CN0500001N1+01001-00201101731ADDAA199999929AG12000GA1011+009009089GA2061+060009009GF106991011081012501001021KA1120M+01181MA1101691999999MD1210051+9999REMSYN022 333 10118 81830 86070MET005NOSIGEQDQ01+000000PRSWM2
0090039620999991993050118304+52700-008917FM-15+0020EINN V0203001N00661060001CN0112651N1+00901-00201999999ADDAG11999GA1011+009009089GA2051+060009009MA1101691999999REMMET005NOSIGEQDQ01+000000PRSWM2
0152039620999991993050119004+52700-008917SY-MT+0020EINN V0203101N00721220001CN0500001N1+00861+00191101751ADDAG12999GA1011+007509089GA2041+060009009GF104991021081008001001021MA1101691999999MD1210071+9999REMSYN016 333 81825 84070MET005NOSIGEQDQ01+000000PRSWM2
0090039620999991993050119304+52700-008917FM-15+0020EINN V0203001N00511220001CN0112651N1+00801+00201999999ADDAG11999GA1011+007509089GA2031+060009009MA1101691999999REMMET005NOSIGEQDQ01+000000PRSWM2
0168039620999991993050120004+52700-008917SY-MT+0020EINN V0203101N00361220001CN0400001N1+00791+00041101801ADDAG12999GA1011+007509089GA2041+015009059GF104991041081008001999011MA1101801999999MD1210091+9999REMSYN016 333 81825 84650MET005NOSIGEQDQ01+000000PRSWM2Q02    003SCOMCG
0130039620999991993050121004+52700-008917SY-MT+0020EINN V0203001N00361220001CN0400001N1+00621+00081101841ADDAG11000GA1011+007509089GF101991011081008001001001MA1101801999999MD1210111+9999REMSYN010 333 81825MET005NOSIGEQDQ01+000000PRSWM2
0074039620999991993050121304+52700-008917FM-15+0020EINN V0202901N00251220001CN0112651N1+00601+00101999999ADDAG11999GA1011+007509089MA1101801999999REMMET005NOSIGEQDQ01+000000PRSWM2
0149039620999991993050122004+52700-008917SY-MT+0020EINN V0203001N00151220001CN0400001N1+00521+00081101871ADDAG11999GA1011+015009059GF101991011051017501999001MA1101801999999MD1210121+9999REMSYN010 333 81650MET008CAVOK NOEQDQ01+000000PRSWM2Q02    003SCOMCG
0061039620999991993050122304+52700-008917FM-15+0020EINN V0209991C00001999991CY0099001N1+00501+00201999999ADDAG11999MA1101801999999REMMET008CAVOK NOEQDQ01+000000PRSWM2
0155039620999991993050123004+52700-008917SY-MT+0020EINN V0200501N00101220001CN0400001N1+00511+00071101901ADDAG11999GA1011+015009059GF101991011051017501999001MA1101901999999MD1210101+9999REMSYN016 333 81650 92600MET008CAVOK NOEQDQ01+000000PRSWM2Q02    003SCOMCG
0061039620999991993050123304+52700-008917FM-15+0020EINN V0203101N00201999991CY0099001N1+00501+00001999999ADDAG11000MA1101901999999REMMET008CAVOK NOEQDQ01+000000PRSWM2
0166039620999991993050200004+52700-008917SY-MT+0020EINN V0203201N00261220001CN0400001N1+00511+00041101911ADDAA106999929AG13000GA1011+015009059GF101991011051017501999001MA1101901999999MD1110071+9999REMSYN016 333 81650 92600MET008CAVOK NOEQDQ01+000000PRSWM2Q02    003SCOMCG
0061039620999991993050200304+52700-008917FM-15+0020EINN V0203201N00201999991CY0099001N1+00401+00101999999ADDAG11999MA1101901999999REMMET008CAVOK NOEQDQ01+000000PRSWM2
0155039620999991993050201004+52700-008917SY-MT+0020EINN V0203201N00211220001CN0400001N1+00431+00121101901ADDAG11999GA1011+015009059GF101991011051017501999001MA1101901999999MD1010031+9999REMSYN016 333 81650 92601MET008CAVOK NOEQDQ01+000000PRSWM2Q02    003SCOMCG
0090039620999991993050201304+52700-008917FM-15+0020EINN V0203301N00151220001CN0112651N1+00401+00101999999ADDAG11999GA1011+007509089GA2031+015009059MA1101901999999REMMET005NOSIGEQDQ01+000000PRSWM2
0158039620999991993050202004+52700-008917SY-MT+0020EINN V0209991C00001220001CN0400001N1+00351+00121101911ADDAG11999GA1011+007509089GA2031+012009059GF103991031081008001001001MA1101901999999MD1310011+9999REMSYN022 333 81825 83640 92601MET005NOSIGEQDQ01+000000PRSWM2
0090039620999991993050202304+52700-008917FM-15+0020EINN V0202901N00101220001CN0112651N1+00401+00101999999ADDAG11000GA1011+007509089GA2031+012009059MA1101801999999REMMET005NOSIGEQDQ01+000000PRSWM2
0136039620999991993050203004+52700-008917SY-MT+0020EINN V0203401N00051220001CN0400001N1+00401+00081101891ADDAG11000GA1011+007509089GF102991021081008001001001MA1101801999999MD1710021+9999REMSYN016 333 81825 92600MET005NOSIGEQDQ01+000000PRSWM2
0074039620999991993050203304+52700-008917FM-15+0020EINN V0200401N00101220001CN0112651N1+00401+00101999999ADDAG11999GA1011+007509089MA1101901999999REMMET005NOSIGEQDQ01+000000PRSWM2
0152039620999991993050204004+52700-008917SY-MT+0020EINN V0200501N00051220001CN0400001N1+00291+00081101901ADDAG11999GA1011+007509059GA2031+012009059GF103991031081008001001001MA1101901999999MD1510001+9999REMSYN016 333 81825 83640MET005NOSIGEQDQ01+000000PRSWM2
0090039620999991993050204304+52700-008917FM-15+0020EINN V0200601N00101220001CN0112651N1+00301+00101999999ADDAG11999GA1011+007509089GA2031+012009059MA1101801999999REMMET005NOSIGEQDQ01+000000PRSWM2
0136039620999991993050205004+52700-008917SY-MT+0020EINN V0201701N00101220001CN0400001N1+00241+00051101911ADDAG11999GA1011+007509089GF101991011081008001001001MA1101901999999MD1510011+9999REMSYN016 333 81825 92600MET005NOSIGEQDQ01+000000PRSWM2
0074039620999991993050205304+52700-008917FM-15+0020EINN V0200301N00201220001CN0112651N1+00201+00001999999ADDAG11000GA1011+007509089MA1101901999999REMMET005NOSIGEQDQ01+000000PRSWM2
0204039620999991993050206004+52700-008917SY-MT+0020EINN V0200501N00051220001CN0400001N1+00181-00011101971ADDAA199999929AG13000GA1011+007509089GF101991011081008001001001GJ104149IA1099IA2999-00509KA1120N+00161MA1101901999999MD1310071+9999REMSYN034 333 20016 31105 55069 81825 92600MET005NOSIGEQDQ01+000000PRSWM2
0074039620999991993050206304+52700-008917FM-15+0020EINN V0201501N00051220001CN0112651N1+00301+00101999999ADDAG11999GA1011+007509089MA1101901999999REMMET005NOSIGEQDQ01+000000PRSWM2
0130039620999991993050207004+52700-008917SY-MT+0020EINN V0209991C00001220001CN0400001N1+00411+00231102011ADDAG11999GA1011+007509089GF102991021081008001001001MA1102001999999MD1210111+9999REMSYN010 333 81825MET005NOSIGEQDQ01+000000PRSWM2
0090039620999991993050207304+52700-008917FM-15+0020EINN V0202701N00561012001CN0112651N1+00601+00201999999ADDAG11999GA1031+007509089GA2031+012009059MA1102001999999REMMET005NOSIGEQDQ01+000000PRSWM2
0130039620999991993050208004+52700-008917SY-MT+0020EINN V0202801N00411220001CN0400001N1+00591+00191102071ADDAG11999GA1021+007509089GF103991031081008001001001MA1102001999999MD1210171+9999REMSYN010 333 82825MET005NOSIGEQDQ01+000000PRSWM2
0074039620999991993050208304+52700-008917FM-15+0020EINN V0202501N00151220001CN0112651N1+00701+00301999999ADDAG11000GA1011+007509089MA1102001999999REMMET005NOSIGEQDQ01+000000PRSWM2
0130039620999991993050209004+52700-008917SY-MT+0020EINN V0202701N00211220001CN0400001N1+00791+00241102081ADDAG11000GA1021+007509089GF102991021081008001001011MA1102001999999MD1210121+9999REMSYN010 333 82825MET005NOSIGEQDQ01+000000PRSWM2
0074039620999991993050209304+52700-008917FM-15+0020EINN V0202801N00251007501CN0112651N1+00801+00201999999ADDAG11999GA1051+007509089MA1102001999999REMMET005NOSIGEQDQ01+000000PRSWM2
0130039620999991993050210004+52700-008917SY-MT+0020EINN V0202601N00511007501CN0400001N1+00841+00191102111ADDAG11999GA1051+007509089GF105991051081008001001011MA1102101999999MD1210101+9999REMSYN010 333 85825MET005NOSIGEQDQ01+000000PRSWM2
0074039620999991993050210304+52700-008917FM-15+0020EINN V0202601N00361220001CN0112651N1+00901+00201999999ADDAG11999GA1021+007509089MA1102101999999REMMET005NOSIGEQDQ01+000000PRSWM2
0161039620999991993050211004+52700-008917SY-MT+0020EINN V0202901N00151007501CN0300001N1+00991+00241102131ADDAG12999AY181021AY221021GA1021+006609099GA2041+007509089GF106991061091008001999999MA1102101999999MD1310061+9999MW1871REMSYN022 333 82922 84825 96487MET005NOSIG
0077039620999991993050211304+52700-008917FM-15+0020EINN V0200501N00301007501CN0112651N1+00801+00201999999ADDAG11000GA1021+006609099GA2041+007509089MA1102101999999MW1271REMMET005NOSIG
0143039620999991993050212004+52700-008917SY-MT+0020EINN V0202001N00311006601CN0300001N1+00761+00121102161ADDAA106002091AG11002AY181061AY221061GA1061+006609099GF106991061031008001999999MD1210081+9999MW1271REMSYN016 333 86922 96487EQDQ01+030333APOA  
0061039620999991993050212304+52700-008917FM-15+0020EINN V0202601N00251006601CN0112651N1+00801+00301999999ADDAG11999GA1061+006609099MA1102101999999MW1801REMMET005NOSIG
0155039620999991993050213004+52700-008917SY-MT+0020EINN V0202801N00311006601CN0300001N1+00901+00291102171ADDAG12999AY181011AY221011GA1031+006609099GA2031+006609089GF106991061031008001999999MA1102101999999MD1110061+9999MW1251REMSYN016 333 83922 83822MET005NOSIG
0077039620999991993050213304+52700-008917FM-15+0020EINN V0203101N00411006601CN0112651N1+00901+00201999999ADDAG11999GA1031+006609099GA2021+006609089MA1102101999999MW1271REMMET005NOSIG
0161039620999991993050214004+52700-008917SY-MT+0020EINN V0202801N00571220001CN0500001N1+01061+00271102171ADDAG12999AY181021AY211021GA1011+006609099GA2021+006609089GF103991031031008001001001MA1102101999999MD1110041+9999MW1271REMSYN022 333 81922 82822 96487MET005NOSIG
0061039620999991993050214304+52700-008917FM-15+0020EINN V0203001N00561220001CN0112651N1+01001+00301999999ADDAG11001GA1041+006609089MA1102101999999MW1801REMMET005NOSIG
0139039620999991993050215004+52700-008917SY-MT+0020EINN V0203001N00511220001CN0500001N1+01121+00081102181ADDAG12002AY181031AY211031GA1041+006609089GF104991041021008001001001MA1102101999999MD1210021+9999MW1251REMSYN016 333 84822 96487MET005NOSIG
0074039620999991993050215304+52700-008917FM-15+0020EINN V0203101N00611220001CN0112651N1+01101-00101999999ADDAG11999GA1031+006609089MA1102201999999REMMET005NOSIGEQDQ01+000000PRSWM2
0130039620999991993050216004+52700-008917SY-MT+0020EINN V0203001N00461220001CN0600001N1+01071-00101102221ADDAG12999GA1031+006609089GF103991031021008001001001MA1102201999999MD1310051+9999REMSYN010 333 83822MET005NOSIGEQDQ01+000000PRSWM2
0074039620999991993050216304+52700-008917FM-15+0020EINN V0203001N00561220001CN0112651N1+01101+00201999999ADDAG11999GA1031+006909089MA1102201999999REMMET005NOSIGEQDQ01+000000PRSWM2
0130039620999991993050217004+52700-008917SY-MT+0020EINN V0203001N00511220001CN0500001N1+01091-00101102241ADDAG12999GA1021+006909089GF102991021021008001001011MA1102201999999MD1210071+9999REMSYN010 333 82823MET005NOSIGEQDQ01+000000PRSWM2
0188039620999991993050218004+52700-008917SY-MT+0020EINN V0203201N00511220001CN0500001N1+00961+00141102291ADDAA199003091AG12001AY181061AY211061GA1021+007509089GF102991021021008001001021KA1120M+01181MA1102201999999MD1210111+9999MW1021REMSYN022 333 10118 82825 96487MET005NOSIGEQDQ01+000000PRSWM2
0061039620999991993050218304+52700-008917FM-15+0020EINN V0203501N00611006601CN0112651N1+00801+00201999999ADDAG11999GA1051+006609089MA1102301999999MW1801REMMET005NOSIG
0133039620999991993050219004+52700-008917SY-MT+0020EINN V0203301N00361220001CN0500001N1+00861+00321102361ADDAG12999AY181011AY211011GA1041+006609089GF104991041021008001001021MA1102301999999MD1210141+9999MW1251REMSYN010 333 84822MET005NOSIG
0074039620999991993050219304+52700-008917FM-15+0020EINN V0203301N00361220001CN0112651N1+00901+00201999999ADDAG11999GA1021+006609089MA1102301999999REMMET005NOSIGEQDQ01+000000PRSWM2
0130039620999991993050220004+52700-008917SY-MT+0020EINN V0203201N00361220001CN0500001N1+00801+00251102421ADDAG12999GA1011+006609089GF101991011021008001001021MA1102401999999MD1210181+9999REMSYN010 333 81822MET005NOSIGEQDQ01+000000PRSWM2
0074039620999991993050220304+52700-008917FM-15+0020EINN V0203501N00301220001CN0112651N1+00701+00201999999ADDAG11000GA1011+006609089MA1102401999999REMMET005NOSIGEQDQ01+000000PRSWM2
0130039620999991993050221004+52700-008917SY-MT+0020EINN V0203301N00211220001CN0400001N1+00651+00151102481ADDAG12000GA1011+006609059GF101991011051008001001001MA1102401999999MD1210191+9999REMSYN010 333 81622MET005NOSIGEQDQ01+000000PRSWM2
0062039620999991993050221304+52700-008917FM-15+0020EINN V0203201N00251220001CN0112651N1+00601+00201999999ADDAG11999GA1011+007209059REMMET008- ,53:5(EQDQ01+000000PRSWM2
0130039620999991993050222004+52700-008917SY-MT+0020EINN V0203201N00261220001CN0400001N1+00551+00211102571ADDAG12999GA1011+007209059GF101991011051008001001001MA1102511999999MD1210211+9999REMSYN010 333 81624MET005NOSIGEQDQ01+000000PRSWM2
0074039620999991993050222304+52700-008917FM-15+0020EINN V0203201N00251220001CN0112651N1+00501+00201999999ADDAG11999GA1011+007209059MA1102511999999REMMET005NOSIGEQDQ01+000000PRSWM2
0085039620999991993050223004+52700-008917FM-12+0020EINN V0203201N00261220001CN0400001N9+00481+00181102611ADDAG12999GA1011+007509059GF101991011051008001001001MD1210191+9999REMSYN010 333 81625
0074039620999991993050223304+52700-008917FM-15+0020EINN V0203201N00201220001CN0112651N1+00401+00201999999ADDAG11000GA1011+009009059MA1102611999999REMMET005NOSIGEQDQ01+000000PRSWM2
0163039620999991993050300004+52700-008917SY-MT+0020EINN V0203201N00151220001CN0300001N1+00371+00081102671ADDAA106999929AG10001AY181061AY211061GA1021+012009059GF102991021051012501001001MA1102611999999MD1210191+9999MW1031REMSYN010 333 82640MET005NOSIGEQDQ01+000000PRSWM2
0074039620999991993050300304+52700-008917FM-15+0020EINN V0203401N00251220001CN0112651N1+00301+00101999999ADDAG11999GA1021+012009059MA1102611999999REMMET005NOSIGEQDQ01+000000PRSWM2
0130039620999991993050301004+52700-008917SY-MT+0020EINN V0203401N00151220001CN0300001N1+00311+00071102701ADDAG12999GA1021+012009059GF102991021051012501001001MA1102711999999MD1210131+9999REMSYN010 333 82640MET005NOSIGEQDQ01+000000PRSWM2
0074039620999991993050301304+52700-008917FM-15+0020EINN V0209991C00001220001CN0112651N1+00301+00101999999ADDAG11999GA1021+012009059MA1102611999999REMMET005NOSIGEQDQ01+000000PRSWM2
0117039620999991993050302004+52700-008917SY-MT+0020EINN V0209991C00001220001CN0300001N1+00281+00071102691ADDAG12999GF100991001001999999001001MA1102611999999MD1110081+9999REMSYN010 333 92600MET008CAVOK NOEQDQ01+000000PRSWM2
0061039620999991993050302304+52700-008917FM-15+0020EINN V0209991C00001999991CY0099001N1+00301+00001999999ADDAG11000MA1102711999999REMMET008CAVOK NOEQDQ01+000000PRSWM2
0117039620999991993050303004+52700-008917SY-MT+0020EINN V0209991C00001220001CN0300001N1+00251+00061102721ADDAG12000GF100991001001999999001001MA1102711999999MD1210051+9999REMSYN010 333 92600MET008CAVOK NOEQDQ01+000000PRSWM2
0061039620999991993050303304+52700-008917FM-15+0020EINN V0209991C00001999991CY0099001N1+00201+00001999999ADDAG11999MA1102711999999REMMET008CAVOK NOEQDQ01+000000PRSWM2
0139039620999991993050304004+52700-008917SY-MT+0020EINN V0202901N00051220001CN0400001N1+00191+00031102771ADDAG12999GA1011+075009009GF101991001001999999001021MA1102711999999MD1310061+9999REMSYN016 333 81075 92600MET008CAVOK NOEQDQ01+000000PRSWM2
0074039620999991993050304304+52700-008917FM-15+0020EINN V0203301N00051220001CN0112651N1+00301+00101999999ADDAG11999GA1011+007509089MA1102711999999REMMET005NOSIGEQDQ01+000000PRSWM2
0152039620999991993050305004+52700-008917SY-MT+0020EINN V0209991C00001220001CN0750001N1+00231+00071102821ADDAG12999GA1011+007509089GF101991011021999999001021MA1102811999999MD1210121+9999REMSYN016 333 81825 92600MET005NOSIGEQDQ01+000992SCOLCBQ02+000000PRSWM2
0074039620999991993050305304+52700-008917FM-15+0020EINN V0203001N00051220001CN0112651N1+00301+00101999999ADDAG11000GA1011+007509089MA1102811999999REMMET005NOSIGEQDQ01+000000PRSWM2
0204039620999991993050306004+52700-008917SY-MT+0020EINN V0200201N00101220001CN0750001N1+00321+00081102871ADDAA199999929AG12000GA1011+007509089GF101991011021008001001001GJ105829IA1099IA2999-00509KA1120N+00171MA1102811999999MD1210141+9999REMSYN034 333 20017 31105 55097 81825 92600MET005NOSIGEQDQ01+000000PRSWM2
0074039620999991993050306304+52700-008917FM-15+0020EINN V0209991C00001220001CN0112651N1+00401+00101999999ADDAG11999GA1011+007509089MA1102811999999REMMET005NOSIGEQDQ01+000000PRSWM2
0130039620999991993050307004+52700-008917SY-MT+0020EINN V0209991C00001220001CN0750001N1+00471+00191102911ADDAG12999GA1011+007509089GF101991011021008001001001MA1102911999999MD1210141+9999REMSYN010 333 81825MET005NOSIGEQDQ01+000000PRSWM2
0074039620999991993050307304+52700-008917FM-15+0020EINN V0209991C00001220001CN0112651N1+00601+00301999999ADDAG11999GA1011+007509089MA1102911999999REMMET005NOSIGEQDQ01+000000PRSWM2
0130039620999991993050308004+52700-008917SY-MT+0020EINN V0201201N00051220001CN0750001N1+00651+00321102971ADDAG12999GA1011+007509089GF101991011081008001001001MA1102911999999MD1210151+9999REMSYN010 333 81825MET005NOSIGEQDQ01+000000PRSWM2
0074039620999991993050308304+52700-008917FM-15+0020EINN V0209991C00001220001CN0112651N1+00701+00401999999ADDAG11000GA1011+007509089MA1102911999999REMMET005NOSIGEQDQ01+000000PRSWM2
0130039620999991993050309004+52700-008917SY-MT+0020EINN V0201901N00051220001CN0600001N1+00791+00371102981ADDAG11000GA1011+005409089GF101991011021004501001021MA1102911999999MD1210121+9999REMSYN010 333 81818MET005NOSIGEQDQ01+000000PRSWM2
0074039620999991993050309304+52700-008917FM-15+0020EINN V0202801N00151220001CN0112651N1+00801+00301999999ADDAG11999GA1021+006009089MA1102911999999REMMET005NOSIGEQDQ01+000000PRSWM2
0118039620999991993050310004+52700-008917SY-MT+0020EINN V0203201N00051220001CN0600001N1+00901+00241102981ADDAG11999GA1011+007509089GF101991011021008001001021MD1110081+9999REMSYN010 333 81825MET008-75 -93-EQDQ01+000000PRSWM2
0074039620999991993050310304+52700-008917FM-15+0020EINN V0202401N00151220001CN0112651N1+01001+00201999999ADDAG11999GA1031+009009089MA1102911999999REMMET005NOSIGEQDQ01+000000PRSWM2
0130039620999991993050311004+52700-008917SY-MT+0020EINN V0202301N00261220001CN0600001N1+00991+00031102991ADDAG11999GA1021+009009089GF102991021021012501001021MA1102911999999MD1210031+9999REMSYN010 333 82830MET005NOSIGEQDQ01+000000PRSWM2
0074039620999991993050311304+52700-008917FM-15+0020EINN V0202301N00251220001CN0112651N1+01101+00101999999ADDAG11000GA1031+009009089MA1103011999999REMMET005NOSIGEQDQ01+000000PRSWM2
0141039620999991993050312004+52700-008917SY-MT+0020EINN V0202101N00211220001CN0600001N1+01111+00041103001ADDAA106999929AG13000GA1031+009009089GF103991031021012501001011MA1103011999999MD1210021+9999REMSYN010 333 83830MET005NOSIGEQDQ01+000000PRSWM2
0074039620999991993050312304+52700-008917FM-15+0020EINN V0202101N00251220001CN0112651N1+01101+00101999999ADDAG11999GA1041+009009089MA1103011999999REMMET005NOSIGEQDQ01+000000PRSWM2
0130039620999991993050313004+52700-008917SY-MT+0020EINN V0202401N00411220001CN0600001N1+01161+00051102991ADDAG11999GA1031+009609089GF103991031021012501001021MA1102911999999MD1110011+9999REMSYN010 333 83832MET005NOSIGEQDQ01+000000PRSWM2
0074039620999991993050313304+52700-008917FM-15+0020EINN V0202301N00411220001CN0112651N1+01201+00001999999ADDAG11999GA1021+010209089MA1102911999999REMMET005NOSIGEQDQ01+000000PRSWM2
0130039620999991993050314004+52700-008917SY-MT+0020EINN V0202601N00361220001CN0600001N1+01191+00131102991ADDAG11999GA1021+010209089GF102991021021012501001021MA1102911999999MD1410001+9999REMSYN010 333 82834MET005NOSIGEQDQ01+000000PRSWM2
0074039620999991993050314304+52700-008917FM-15+0020EINN V0202601N00361220001CN0112651N1+01201+00101999999ADDAG11000GA1031+010209089MA1103011999999REMMET005NOSIGEQDQ01+000000PRSWM2
0130039620999991993050315004+52700-008917SY-MT+0020EINN V0202601N00411220001CN0600001N1+01271-00031102991ADDAG11000GA1021+010209089GF103991021021012501001051MA1102911999999MD1610011+9999REMSYN010 333 82834MET005NOSIGEQDQ01+000000PRSWM2
0074039620999991993050315304+52700-008917FM-15+0020EINN V0202701N00411220001CN0112651N1+01301+00001999999ADDAG11999GA1021+010209089MA1103011999999REMMET005NOSIGEQDQ01+000000PRSWM2
0130039620999991993050316004+52700-008917SY-MT+0020EINN V0202801N00361220001CN0600001N1+01241+00101103011ADDAG11999GA1011+010209089GF103991011021012501001051MA1103011999999MD1210021+9999REMSYN010 333 81834MET005NOSIGEQDQ01+000000PRSWM2
0090039620999991993050316304+52700-008917FM-15+0020EINN V0202601N00361060001CN0112651N1+01201+00101999999ADDAG11999GA1011+010509089GA2051+060009009MA1103011999999REMMET005NOSIGEQDQ01+000000PRSWM2
0152039620999991993050317004+52700-008917SY-MT+0020EINN V0202901N00361060001CN0600001N1+01191+00101103041ADDAG11999GA1011+010509089GA2051+060009029GF105991011021012501001051MA1103011999999MD1310051+9999REMSYN016 333 81835 85270MET005NOSIGEQDQ01+000000PRSWM2
0075039620999991993050317304+52700-008917FM-15+0020EINN V0202901N00511060001CN0112651N1+01101+00101999999ADDAG11000GA1011+010509089GA2051+060009029REMMET005NOSIGEQDQ01+000000PRSWM2
0182039620999991993050318004+52700-008917SY-MT+0020EINN V0202901N00461220001CN0600001N1+01111+00011103081ADDAA199999929AG13000GA1011+010509059GA2041+060009009GF104991011021012501001021KA1120M+01341MA1103011999999MD1210091+9999REMSYN022 333 10134 81835 84070MET005NOSIGEQDQ01+000000PRSWM2
0090039620999991993050318304+52700-008917FM-15+0020EINN V0202801N00251220001CN0112651N1+01101+00001999999ADDAG11999GA1011+012009059GA2031+060009009MA1103011999999REMMET005NOSIGEQDQ01+000000PRSWM2
0152039620999991993050319004+52700-008917SY-MT+0020EINN V0202801N00311220001CN0600001N1+01011+00051103111ADDAG11999GA1011+012009059GA2031+060009009GF103991011051012501001021MA1103121999999MD1210101+9999REMSYN016 333 81640 83070MET005NOSIGEQDQ01+000000PRSWM2
0090039620999991993050319304+52700-008917FM-15+0020EINN V0202801N00251220001CN0112651N1+01001+00101999999ADDAG11999GA1011+013509059GA2031+060009009MA1103121999999REMMET005NOSIGEQDQ01+000000PRSWM2
0136039620999991993050320004+52700-008917SY-MT+0020EINN V0202901N00261220001CN0600001N1+00891+00111103151ADDAG11999GA1011+013509059GF103991011051012501031021MA1103121999999MD1210111+9999REMSYN016 333 81640 83070MET005NOSIGEQDQ01+000000PRSWM2
0061039620999991993050320304+52700-008917FM-15+0020EINN V0202901N00201999991CY0099001N1+00801+00201999999ADDAG11000MA1103121999999REMMET008CAVOK NOEQDQ01+000000PRSWM2
0155039620999991993050321004+52700-008917SY-MT+0020EINN V0202901N00211075001CN0500001N1+00831+00211103201ADDAG11000GA1041+030009039GA2031+075009009GF105991041001999999031021MA1103181999999MD1210121+9999REMSYN016 333 84360 83075MET008CAVOK NOEQDQ01+000000PRSWM2
0061039620999991993050321304+52700-008917FM-15+0020EINN V0202901N00201999991CY0099001N1+00801+00301999999ADDAG11999MA1103181999999REMMET008CAVOK NOEQDQ01+000000PRSWM2
0155039620999991993050322004+52700-008917SY-MT+0020EINN V0202801N00051030001CN0500001N1+00781+00281103231ADDAG11999GA1051+030009039GA2031+075009009GF106991051001999999031021MA1103181999999MD1210121+9999REMSYN016 333 85360 83075MET008CAVOK NOEQDQ01+000000PRSWM2
0061039620999991993050322304+52700-008917FM-15+0020EINN V0209991C00001999991CY0099001N1+00801+00301999999ADDAG11999MA1103181999999REMMET008CAVOK NOEQDQ01+000000PRSWM2
0133039620999991993050323004+52700-008917SY-MT+0020EINN V0209991C00001220001CN0400001N1+00721+00261103251ADDAG11999GA1041+030009039GF104991041001999999031001MA1103181999999MD1110091+9999REMSYN010 333 84360MET008CAVOK NOEQDQ01+000000PRSWM2
0061039620999991993050323304+52700-008917FM-15+0020EINN V0209991C00001999991CY0099001N1+00701+00301999999ADDAG11000MA1103181999999REMMET008CAVOK NOEQDQ01+000000PRSWM2
0110039620999991993050400004+52700-008917SY-MT+0020EINN V0201501N00051030001CN0400001N9+00671+00251103261ADDAA106999929AG10000GA1051+030009039GF105991051001999999031001MD1110051+9999REMSYN010 333 85360MET008CAVOK NO
0061039620999991993050400304+52700-008917FM-15+0020EINN V0202201N00201999991CY0099001N1+00701+00301999999ADDAG11999MA1103181999999REMMET008CAVOK NOEQDQ01+000000PRSWM2
0133039620999991993050401004+52700-008917SY-MT+0020EINN V0202101N00151030001CN0400001N1+00631+00271103251ADDAG11999GA1051+030009039GF105991051001999999031001MA1103181999999MD1010011+9999REMSYN010 333 85360MET008CAVOK NOEQDQ01+000000PRSWM2
0061039620999991993050401304+52700-008917FM-15+0020EINN V0202001N00151999991CY0099001N1+00601+00301999999ADDAG11999MA1103181999999REMMET008CAVOK NOEQDQ01+000000PRSWM2
0133039620999991993050402004+52700-008917SY-MT+0020EINN V0201501N00101030001CN0400001N1+00601+00231103261ADDAG11999GA1061+030009039GF106991061001999999031001MA1103181999999MD1310011+9999REMSYN010 333 86360MET008CAVOK NOEQDQ01+000000PRSWM2
0061039620999991993050402304+52700-008917FM-15+0020EINN V0201501N00151999991CY0099001N1+00601+00301999999ADDAG11000MA1103181999999REMMET008CAVOK NOEQDQ01+000000PRSWM2
0133039620999991993050403004+52700-008917SY-MT+0020EINN V0201601N00211030001CN0400001N1+00641+00201103261ADDAG11000GA1061+030009039GF106991061001999999031001MA1103181999999MD1510001+9999REMSYN010 333 86360MET008CAVOK NOEQDQ01+000000PRSWM2
0061039620999991993050403304+52700-008917FM-15+0020EINN V0201401N00251999991CY0099001N1+00601+00201999999ADDAG11999MA1103181999999REMMET008CAVOK NOEQDQ01+000000PRSWM2
0155039620999991993050404004+52700-008917SY-MT+0020EINN V0201301N00151030001CN0300001N1+00561+00221103261ADDAG11999GA1011+015009059GA2051+030009039GF105991011051017501031999MA1103181999999MD1210011+9999REMSYN016 333 81650 85360MET008CAVOK NOEQDQ01+000000PRSWM2
0061039620999991993050404304+52700-008917FM-15+0020EINN V0201401N00301999991CY0099001N1+00501+00201999999ADDAG11999MA1103181999999REMMET008CAVOK NOEQDQ01+000000PRSWM2
0155039620999991993050405004+52700-008917SY-MT+0020EINN V0201401N00211220001CN0300001N1+00521+00171103261ADDAG11999GA1011+015009059GA2031+030009039GF103991011051017501031001MA1103181999999MD1410001+9999REMSYN016 333 81650 83360MET008CAVOK NOEQDQ01+000000PRSWM2
0061039620999991993050405304+52700-008917FM-15+0020EINN V0201401N00301999991CY0099001N1+00501+00201999999ADDAG11000MA1103181999999REMMET008CAVOK NOEQDQ01+000000PRSWM2
0223039620999991993050406004+52700-008917SY-MT+0020EINN V0201401N00261220001CN0300001N1+00491+00241103291ADDAA199999929AG13000GA1011+015009059GA2031+075009009GF104991011051017501031021GJ107989IA1099IA2999-00109KA1120N+00461MA1103181999999MD1310031+9999REMSYN034 333 20046 31101 55133 81650 83075MET008CAVOK NOEQDQ01+000000PRSWM2
0061039620999991993050406304+52700-008917FM-15+0020EINN V0201401N00301999991CY0099001N1+00501+00301999999ADDAG11999MA1103291999999REMMET008CAVOK NOEQDQ01+000000PRSWM2
0155039620999991993050407004+52700-008917SY-MT+0020EINN V0201501N00311220001CN0300001N1+00651+00291103311ADDAG11999GA1011+015009059GA2031+075009009GF103991011051017501031021MA1103291999999MD1310051+9999REMSYN016 333 81650 83075MET008CAVOK NOEQDQ01+000000PRSWM2
0061039620999991993050407304+52700-008917FM-15+0020EINN V0201401N00251999991CY0099001N1+00701+00401999999ADDAG11999MA1103291999999REMMET008CAVOK NOEQDQ01+000000PRSWM2
0133039620999991993050408004+52700-008917SY-MT+0020EINN V0201301N00311220001CN0500001N1+00811+00421103331ADDAG11999GA1011+015009059GF102991011051017501031021MA1103291999999MD1210081+9999REMSYN010 333 81650MET008CAVOK NOEQDQ01+000000PRSWM2
0061039620999991993050408304+52700-008917FM-15+0020EINN V0201401N00301999991CY0099001N1+00901+00401999999ADDAG11000MA1103291999999REMMET008CAVOK NOEQDQ01+000000PRSWM2
0130039620999991993050409004+52700-008917SY-MT+0020EINN V0201301N00261220001CN0600001N1+01001+00411103321ADDAG11000GA1011+009009089GF102991011081012501001021MA1103291999999MD1110041+9999REMSYN010 333 81830MET005NOSIGEQDQ01+000000PRSWM2
0074039620999991993050409304+52700-008917FM-15+0020EINN V0201201N00151220001CN0112651N1+01101+00501999999ADDAG11999GA1011+009009089MA1103291999999REMMET005NOSIGEQDQ01+000000PRSWM2
0130039620999991993050410004+52700-008917SY-MT+0020EINN V0201401N00211220001CN0600001N1+01151+00471103311ADDAG11999GA1011+009009089GF102991011081012501001021MA1103291999999MD1010011+9999REMSYN010 333 81830MET005NOSIGEQDQ01+000000PRSWM2
0074039620999991993050410304+52700-008917FM-15+0020EINN V0201301N00151220001CN0112651N1+01201+00301999999ADDAG11999GA1011+009009089MA1103181999999REMMET005NOSIGEQDQ01+000000PRSWM2
0130039620999991993050411004+52700-008917SY-MT+0020EINN V0201401N00151220001CN0600001N1+01261+00481103301ADDAG11999GA1011+009009089GF101991011081012501001021MA1103291999999MD1610031+9999REMSYN010 333 81830MET005NOSIGEQDQ01+000000PRSWM2
0074039620999991993050411304+52700-008917FM-15+0020EINN V0201501N00151220001CN0112651N1+01301+00401999999ADDAG11000GA1011+009009089MA1103181999999REMMET005NOSIGEQDQ01+000000PRSWM2
0141039620999991993050412004+52700-008917SY-MT+0020EINN V0201601N00211220001CN0600001N1+01381+00311103281ADDAA106999929AG13000GA1011+009009089GF101991011081012501001021MA1103181999999MD1710041+9999REMSYN010 333 81830MET005NOSIGEQDQ01+000000PRSWM2
0074039620999991993050412304+52700-008917FM-15+0020EINN V0200101N00051220001CN0112651N1+01401+00301999999ADDAG11999GA1011+009009089MA1103181999999REMMET005NOSIGEQDQ01+000000PRSWM2
0130039620999991993050413004+52700-008917SY-MT+0020EINN V0201301N00101220001CN0600001N1+01451+00461103271ADDAG11999GA1011+010509089GF101991011011012501001001MA1103181999999MD1710041+9999REMSYN010 333 81835MET005NOSIGEQDQ01+000000PRSWM2
0074039620999991993050413304+52700-008917FM-15+0020EINN V0201101N00151220001CN0112651N1+01501+00501999999ADDAG11999GA1011+010509089MA1103181999999REMMET005NOSIGEQDQ01+000000PRSWM2
0130039620999991993050414004+52700-008917SY-MT+0020EINN V0202501N00051220001CN0600001N1+01491+00471103231ADDAG11999GA1021+010509089GF102991021011012501001001MA1103181999999MD1810071+9999REMSYN010 333 82835MET005NOSIGEQDQ01+000000PRSWM2
0074039620999991993050414304+52700-008917FM-15+0020EINN V0201001N00151220001CN0112651N1+01501+00701999999ADDAG11000GA1021+010509089MA1103181999999REMMET005NOSIGEQDQ01+000000PRSWM2
0130039620999991993050415004+52700-008917SY-MT+0020EINN V0209991C00001220001CN0600001N1+01551+00501103191ADDAG11000GA1021+010509089GF102991021011012501001001MA1103121999999MD1810091+9999REMSYN010 333 82835MET005NOSIGEQDQ01+000000PRSWM2
0074039620999991993050415304+52700-008917FM-15+0020EINN V0201401N00201220001CN0112651N1+01601+00601999999ADDAG11999GA1021+010509089MA1103121999999REMMET005NOSIGEQDQ01+000000PRSWM2
0130039620999991993050416004+52700-008917SY-MT+0020EINN V0200801N00211220001CN0600001N1+01501+00561103151ADDAG11999GA1021+010509089GF102991021011012501001001MA1103121999999MD1810121+9999REMSYN010 333 82835MET005NOSIGEQDQ01+000000PRSWM2
0074039620999991993050416304+52700-008917FM-15+0020EINN V0201201N00151220001CN0112651N1+01501+00601999999ADDAG11999GA1011+010509089MA1103121999999REMMET005NOSIGEQDQ01+000000PRSWM2
0130039620999991993050417004+52700-008917SY-MT+0020EINN V0201101N00151220001CN0500001N1+01541+00591103131ADDAG11999GA1011+010509089GF101991011081012501001001MA1103121999999MD1710101+9999REMSYN010 333 81835MET005NOSIGEQDQ01+000000PRSWM2
0074039620999991993050417304+52700-008917FM-15+0020EINN V0200801N00151220001CN0112651N1+01501+00601999999ADDAG11000GA1011+009009089MA1103121999999REMMET005NOSIGEQDQ01+000000PRSWM2
0160039620999991993050418004+52700-008917SY-MT+0020EINN V0201201N00211220001CN0500001N1+01551+00411103111ADDAA199999929AG13000GA1011+009009089GF102991021081012501001001KA1120M+01591MA1103121999999MD1710081+9999REMSYN016 333 10159 81830MET005NOSIGEQDQ01+000000PRSWM2
0075039620999991993050418304+52700-008917FM-15+0020EINN V0201201N00151220001CN0112651N1+01501+00601999999ADDAG11999GA1011+009009089GA2031+015009059REMMET005NOSIGEQDQ01+000000PRSWM2
0152039620999991993050419004+52700-008917SY-MT+0020EINN V0201401N00151015001CN0500001N1+01481+00561103111ADDAG11999GA1011+009009059GA2071+015009059GF107991071051012501999999MA1103121999999MD1610041+9999REMSYN016 333 81630 87650MET005NOSIGEQDQ01+000000PRSWM2
0090039620999991993050419304+52700-008917FM-15+0020EINN V0201401N00151015001CN0112651N1+01401+00601999999ADDAG11999GA1011+012009059GA2071+015009059MA1103121999999REMMET005NOSIGEQDQ01+000000PRSWM2
0152039620999991993050420004+52700-008917SY-MT+0020EINN V0201501N00311015001CN0400001N1+01361+00651103161ADDAG11999GA1011+012009059GA2061+015009059GF106991061051012501999999MA1103121999999MD1310031+9999REMSYN016 333 81640 86650MET005NOSIGEQDQ01+000000PRSWM2
0074039620999991993050420304+52700-008917FM-15+0020EINN V0201601N00301220001CN0112651N1+01301+00501999999ADDAG11000GA1031+012009059MA1103121999999REMMET005NOSIGEQDQ01+000000PRSWM2
0130039620999991993050421004+52700-008917SY-MT+0020EINN V0201801N00311220001CN0300001N1+01121+00411103211ADDAG11000GA1021+012009059GF102991021051012501001001MA1103181999999MD1210101+9999REMSYN010 333 82640MET005NOSIGEQDQ01+000000PRSWM2
0074039620999991993050421304+52700-008917FM-15+0020EINN V0201801N00251220001CN0112651N1+01001+00401999999ADDAG11999GA1011+012009059MA1103181999999REMMET005NOSIGEQDQ01+000000PRSWM2
0130039620999991993050422004+52700-008917SY-MT+0020EINN V0201701N00211220001CN0300001N1+00981+00421103211ADDAG11999GA1011+012009059GF101991011051012501001001MA1103181999999MD1110101+9999REMSYN010 333 81640MET005NOSIGEQDQ01+000000PRSWM2
0130039620999991993050423004+52700-008917SY-MT+0020EINN V0201601N00151220001CN0250001N1+00891+00491103211ADDAG11999GA1011+012009059GF101991011051012501001001MA1103181999999MD1110051+9999REMSYN010 333 81640MET005NOSIGEQDQ01+000000PRSWM2
0061039620999991993050423304+52700-008917FM-15+0020EINN V0201401N00151999991CY0099001N1+00801+00501999999ADDAG11000MA1103181999999REMMET008CAVOK NOEQDQ01+000000PRSWM2
0112039620999991993050500004+52700-008917SY-MT+0020EINN V0201401N00151220001CN0250001N1+00791+00471103191ADDAA106999929AG13000GF100991001001999999001001MA1103121999999MD1710021+9999REMMET008CAVOK NOEQDQ01+000000PRSWM2
0061039620999991993050500304+52700-008917FM-15+0020EINN V0201401N00251999991CY0099001N1+00701+00401999999ADDAG11999MA1103121999999REMMET008CAVOK NOEQDQ01+000000PRSWM2
0117039620999991993050501004+52700-008917SY-MT+0020EINN V0201201N00101220001CN0250001N1+00731+00451103171ADDAG11999GF100991001001999999001001MA1103121999999MD1810051+9999REMSYN010 333 92600MET008CAVOK NOEQDQ01+000000PRSWM2
0061039620999991993050501304+52700-008917FM-15+0020EINN V0201501N00151999991CY0099001N1+00701+00401999999ADDAG11999MA1103121999999REMMET008CAVOK NOEQDQ01+000000PRSWM2
0083039620999991993050502004+52700-008917SY-MT+0020EINN V0201301N00211220001CN0250001N9+00661+00301103161ADDAG12999GF100991001001999999001001MD1710061+9999REMSYN010 333 92600MET008CAVOK NO
0061039620999991993050502304+52700-008917FM-15+0020EINN V0201101N00051999991CY0099001N1+00701+00301999999ADDAG11000MA1103121999999REMMET008CAVOK NOEQDQ01+000000PRSWM2
0117039620999991993050503004+52700-008917SY-MT+0020EINN V0201101N00101220001CN0250001N1+00631+00291103141ADDAG12000GF100991001001999999001001MA1103121999999MD1710061+9999REMSYN010 333 92600MET008CAVOK NOEQDQ01+000000PRSWM2
0061039620999991993050503304+52700-008917FM-15+0020EINN V0201401N00201999991CY0099001N1+00601+00201999999ADDAG11999MA1103121999999REMMET008CAVOK NOEQDQ01+000000PRSWM2
0171039620999991993050504004+52700-008917SY-MT+0020EINN V0201301N00211220001CN0250001N1+00581+00241103151ADDAG12999GA1011+015009059GF101991011051999999999001MA1103121999999MD1510021+9999REMSYN016 333 81650 92600MET008CAVOK NOEQDQ01+000992SCOLCBQ02+000000PRSWM2Q03    003SCOMCG
0061039620999991993050504304+52700-008917FM-15+0020EINN V0201001N00101999991CY0099001N1+00601+00101999999ADDAG11999MA1103121999999REMMET008CAVOK NOEQDQ01+000000PRSWM2
0139039620999991993050505004+52700-008917SY-MT+0020EINN V0200601N00101220001CN0250001N1+00541+00261103151ADDAG12999GA1011+030009039GF102991011001999999031021MA1103121999999MD1610011+9999REMSYN016 333 81360 92600MET008CAVOK NOEQDQ01+000000PRSWM2
0061039620999991993050505304+52700-008917FM-15+0020EINN V0200501N00101999991CY0099001N1+00501+00201999999ADDAG11000MA1103121999999REMMET008CAVOK NOEQDQ01+000000PRSWM2
0201039620999991993050506004+52700-008917SY-MT+0020EINN V0200801N00151220001CN0250001N1+00571+00251103161ADDAA199999929AG12000GA1011+075009009GF101991001001999999001011GJ107569IA1099IA2999+00309KA1120N+00461MA1103121999999MD1210021+9999REMSYN028 333 20046 31003 55126 81075MET008CAVOK NOEQDQ01+000000PRSWM2
0065039620999991993050506304+52700-008917FM-15+0020EINN V0201001N00051999991CY0099001N1+00601+00301999999ADDAG11999MA1103121999999REMMET012CAVOK NOSIG+EQDQ01+000000PRSWM2
0133039620999991993050507004+52700-008917SY-MT+0020EINN V0200501N00151220001CN0400001N1+00721+00231103151ADDAG12999GA1011+075009009GF101991001001999999001011MA1103121999999MD1010001+9999REMSYN010 333 81075MET008CAVOK NOEQDQ01+000000PRSWM2
0061039620999991993050507304+52700-008917FM-15+0020EINN V0200501N00101999991CY0099001N1+00801+00301999999ADDAG11999MA1103121999999REMMET008CAVOK NOEQDQ01+000000PRSWM2
0133039620999991993050508004+52700-008917SY-MT+0020EINN V0200801N00051220001CN0400001N1+00891+00391103121ADDAG12999GA1011+075009009GF101991001001999999001011MA1103121999999MD1810021+9999REMSYN010 333 81075MET008CAVOK NOEQDQ01+000000PRSWM2
0061039620999991993050508304+52700-008917FM-15+0020EINN V0201601N00151999991CY0099001N1+01001+00401999999ADDAG11000MA1103121999999REMMET008CAVOK NOEQDQ01+000000PRSWM2
0133039620999991993050509004+52700-008917SY-MT+0020EINN V0201301N00051220001CN0300001N1+01081+00381103101ADDAG12000GA1011+075009009GF101991001001999999001011MA1103121999999MD1710051+9999REMSYN010 333 81075MET008CAVOK NOEQDQ01+000000PRSWM2
0061039620999991993050509304+52700-008917FM-15+0020EINN V0201101N00151999991CY0099001N1+01101+00601999999ADDAG11999MA1103011999999REMMET008CAVOK NOEQDQ01+000000PRSWM2
0133039620999991993050510004+52700-008917SY-MT+0020EINN V0201001N00261220001CN0300001N1+01321+00381103061ADDAG12999GA1011+075009009GF101991001001999999001011MA1103011999999MD1710081+9999REMSYN010 333 81075MET008CAVOK NOEQDQ01+000000PRSWM2
0061039620999991993050510304+52700-008917FM-15+0020EINN V0201401N00301999991CY0099001N1+01401+00601999999ADDAG11999MA1103011999999REMMET008CAVOK NOEQDQ01+000000PRSWM2
0133039620999991993050511004+52700-008917SY-MT+0020EINN V0201401N00311220001CN0300001N1+01461+00691103041ADDAG12999GA1011+075009009GF101991001001999999001021MA1103011999999MD1710081+9999REMSYN010 333 81075MET008CAVOK NOEQDQ01+000000PRSWM2
0074039620999991993050511304+52700-008917FM-15+0020EINN V0201301N00361220001CN0112651N1+01501+00701999999ADDAG11000GA1011+009009089MA1103011999999REMMET005NOSIGEQDQ01+000000PRSWM2
0163039620999991993050512004+52700-008917SY-MT+0020EINN V0201201N00411220001CN0300001N1+01621+00401102981ADDAA106999929AG13000GA1011+009009089GA2031+075009009GF103991011011012501001021MA1102911999999MD1710121+9999REMSYN016 333 81830 83075MET005NOSIGEQDQ01+000000PRSWM2
0090039620999991993050512304+52700-008917FM-15+0020EINN V0201101N00511220001CN0112651N1+01601+00401999999ADDAG11999GA1021+009009089GA2031+075009009MA1102911999999REMMET005NOSIGEQDQ01+000000PRSWM2
0152039620999991993050513004+52700-008917SY-MT+0020EINN V0201201N00411220001CN0200001N1+01651+00471102951ADDAG11999GA1011+009009089GA2031+075009009GF103991011011012501001021MA1102911999999MD1710111+9999REMSYN016 333 81830 83075MET005NOSIGEQDQ01+000000PRSWM2
0090039620999991993050513304+52700-008917FM-15+0020EINN V0201101N00511220001CN0112651N1+01701+00601999999ADDAG11999GA1011+009009089GA2031+075009009MA1102911999999REMMET005NOSIGEQDQ01+000000PRSWM2
0152039620999991993050514004+52700-008917SY-MT+0020EINN V0201201N00461220001CN0200001N1+01741+00571102931ADDAG11999GA1011+010509089GA2031+075009009GF103991011011012501001021MA1102911999999MD1710111+9999REMSYN016 333 81835 83075MET005NOSIGEQDQ01+000000PRSWM2
0090039620999991993050514304+52700-008917FM-15+0020EINN V0201101N00411220001CN0112651N1+01701+00501999999ADDAG11000GA1011+010509089GA2031+075009009MA1102911999999REMMET005NOSIGEQDQ01+000000PRSWM2
0130039620999991993050515004+52700-008917SY-MT+0020EINN V0201201N00461220001CN0200001N1+01701+00721102901ADDAG11000GA1031+010509089GF103991031081012501001021MA1102911999999MD1710081+9999REMSYN010 333 83835MET005NOSIGEQDQ01+000000PRSWM2
0074039620999991993050515304+52700-008917FM-15+0020EINN V0201201N00411220001CN0112651N1+01601+00801999999ADDAG11999GA1031+010509089MA1102811999999REMMET005NOSIGEQDQ01+000000PRSWM2
0130039620999991993050516004+52700-008917SY-MT+0020EINN V0201201N00361220001CN0150001N1+01621+00791102881ADDAG11999GA1041+010509089GF104991041081012501001021MA1102811999999MD1710071+9999REMSYN010 333 84835MET005NOSIGEQDQ01+000000PRSWM2
0090039620999991993050516304+52700-008917FM-15+0020EINN V0201401N00411075001CN0112651N1+01701+00801999999ADDAG11999GA1021+010509089GA2051+075009009MA1102811999999REMMET005NOSIGEQDQ01+000000PRSWM2
0152039620999991993050517004+52700-008917SY-MT+0020EINN V0201501N00361075001CN0250001N1+01571+00701102851ADDAG11999GA1011+010509089GA2051+075009009GF105991011081012501001021MA1102811999999MD1710081+9999REMSYN016 333 81835 85075MET005NOSIGEQDQ01+000000PRSWM2
0090039620999991993050517304+52700-008917FM-15+0020EINN V0201801N00251220001CN0112651N1+01501+00701999999ADDAG11000GA1011+010509089GA2041+075009009MA1102811999999REMMET005NOSIGEQDQ01+000000PRSWM2
0220039620999991993050518004+52700-008917SY-MT+0020EINN V0201901N00211075001CN0250001N1+01591+00581102821ADDAA199999929AG13000GA1011+010509089GA2041+015009059GA3051+075009009GF106991041081012501999021KA1120M+01791MA1102811999999MD1710081+9999REMSYN028 333 10179 81835 84650 85075MET005NOSIGEQDQ01+000000PRSWM2Q02    003SCOMCG
0090039620999991993050518304+52700-008917FM-15+0020EINN V0202101N00251015001CN0112651N1+01501+00701999999ADDAG11999GA1011+010509089GA2061+015009059MA1102811999999REMMET005NOSIGEQDQ01+000000PRSWM2
0152039620999991993050519004+52700-008917SY-MT+0020EINN V0202201N00261015001CN0250001N1+01451+00731102821ADDAG11999GA1011+009009089GA2071+015009059GF107991071081012501999999MA1102811999999MD1610061+9999REMSYN016 333 81830 87650MET005NOSIGEQDQ01+000000PRSWM2
0090039620999991993050519304+52700-008917FM-15+0020EINN V0202001N00301015001CN0112651N1+01401+00701999999ADDAG11999GA1011+009009089GA2071+015009059MA1102811999999REMMET005NOSIGEQDQ01+000000PRSWM2
0155039620999991993050520004+52700-008917SY-MT+0020EINN V0201901N00311015001CN0300001N1+01321+00751102851ADDAG11999GA1061+015009059GA2051+075009009GF107991061051017501999021MA1102811999999MD1510001+9999REMSYN016 333 86650 85075MET008CAVOK NOEQDQ01+000000PRSWM2
0061039620999991993050520304+52700-008917FM-15+0020EINN V0201801N00201999991CY0099001N1+01301+00701999999ADDAG11000MA1102811999999REMMET008CAVOK NOEQDQ01+000000PRSWM2
0149039620999991993050521004+52700-008917SY-MT+0020EINN V0201801N00211015001CN0300001N1+01251+00601102881ADDAG11000GA1051+015009059GF106991051051017501999021MA1102811999999MD1310061+9999REMSYN010 333 85650MET008CAVOK NOEQDQ01+000000PRSWM2Q02    003SCOMCG
0061039620999991993050521304+52700-008917FM-15+0020EINN V0202001N00201999991CY0099001N1+01201+00801999999ADDAG11999MA1102811999999REMMET008CAVOK NOEQDQ01+000000PRSWM2
0155039620999991993050522004+52700-008917SY-MT+0020EINN V0202001N00151015001CN0300001N1+01191+00741102881ADDAG11999GA1021+012009059GA2061+015009059GF107991071051012501999999MD1010061+9999REMSYN016 333 82640 86650MET0078 NOSIGEQDQ01+029883APOA  Q02+000000PRSWM2
0090039620999991993050522304+52700-008917FM-15+0020EINN V0202101N00201018001CN0112651N1+01201+00701999999ADDAG11999GA1021+012009059GA2051+018009059MA1102811999999REMMET005NOSIGEQDQ01+000000PRSWM2
0168039620999991993050523004+52700-008917SY-MT+0020EINN V0209991C00001220001CN0300001N1+01151+00741102911ADDAG11999GA1011+012009059GA2031+018009059GF104991041051012501999001MA1102911999999MD1210061+9999REMSYN016 333 81640 83656MET005NOSIGEQDQ01+000000PRSWM2Q02    003SCOMCG
0141039620999991993050600004+52700-008917SY-MT+0020EINN V0201401N00211220001CN0250001N1+01001+00681102911ADDAA199999929AG13000GA1011+013509059GF101991011051012501001001MA1102911999999MD1110031+9999REMSYN010 333 81645MET005NOSIGEQDQ01+000000PRSWM2
0074039620999991993050600304+52700-008917FM-15+0020EINN V0201001N00101220001CN0112651N1+01001+00701999999ADDAG11999GA1011+013509059MA1102911999999REMMET005NOSIGEQDQ01+000000PRSWM2
0130039620999991993050601004+52700-008917SY-MT+0020EINN V0200301N00101220001CN0200001N1+00951+00701102891ADDAG11999GA1011+013509059GF101991011051012501001001MA1102811999999MD1010011+9999REMSYN010 333 81645MET005NOSIGEQDQ01+000000PRSWM2
0074039620999991993050601304+52700-008917FM-15+0020EINN V0200401N00151220001CN0112651N1+00901+00501999999ADDAG11999GA1011+013509059MA1102811999999REMMET005NOSIGEQDQ01+000000PRSWM2
0130039620999991993050602004+52700-008917SY-MT+0020EINN V0203201N00151220001CN0200001N1+00781+00451102881ADDAG11999GA1011+013509059GF101991011051012501001001MA1102811999999MD1810031+9999REMSYN010 333 81645MET005NOSIGEQDQ01+000000PRSWM2
0074039620999991993050602304+52700-008917FM-15+0020EINN V0203401N00101220001CN0112651N1+00801+00501999999ADDAG11000GA1011+013509059MA1102811999999REMMET005NOSIGEQDQ01+000000PRSWM2
0130039620999991993050603004+52700-008917SY-MT+0020EINN V0200501N00101220001CN0200001N1+00791+00401102881ADDAG11000GA1021+013509059GF102991021051012501001001MA1102811999999MD1610031+9999REMSYN010 333 82645MET005NOSIGEQDQ01+000000PRSWM2
0090039620999991993050603304+52700-008917FM-15+0020EINN V0200601N00201018001CN0112651N1+00801+00501999999ADDAG11999GA1031+013509059GA2031+018009059MA1102811999999REMMET005NOSIGEQDQ01+000000PRSWM2
0174039620999991993050604004+52700-008917SY-MT+0020EINN V0200701N00151018001CN0120001N1+00801+00481102871ADDAG11999AY111011AY211011GA1011+013509059GA2071+018009059GF107991071051012501999999MA1102811999999MD1710021+9999MW1101REMSYN016 333 81645 87656MET005NOSIGEQDQ01+000000PRSWM2
0061039620999991993050604304+52700-008917FM-15+0020EINN V0203601N00051999991CY0099001N1+00801+00601999999ADDAG11999MA1102811999999REMMET008CAVOK NOEQDQ01+000000PRSWM2
0155039620999991993050605004+52700-008917SY-MT+0020EINN V0203601N00051018001CN0100001N1+00791+00521102851ADDAG11999AY121021AY221021GA1071+018009059GF107991071051017501999999MA1102811999999MD1710031+9999MW1101REMSYN010 333 87656MET008CAVOK NOEQDQ01+000000PRSWM2
0061039620999991993050605304+52700-008917FM-15+0020EINN V0209991C00001999991CY0099001N1+00801+00501999999ADDAG11000MA1102811999999REMMET008CAVOK NOEQDQ01+000000PRSWM2
0204039620999991993050606004+52700-008917SY-MT+0020EINN V0209991C00001018001CN0080001N1+00851+00521102871ADDAA199999929AG13000AY111061AY211061GA1071+018009059GF107991071051017501999999GJ106789IA1019IA2999-00109KA1120N+00751MA1102811999999MD1510011+9999MW1101REMSYN028 333 20075 30101 55113 87656MET008GRADU 99
0064039620999991993050606304+52700-008917FM-15+0020EINN V0202901N00051018001CN0080001N1+00901+00501999999ADDAG11999GA1081+018009059MA1102811999999MW1101REMMET008GRADU 99
0136039620999991993050607004+52700-008917SY-MT+0020EINN V0209991C00001018001CN0080001N1+00891+00611102881ADDAG11999AY121011AY221011GA1081+018009059GF108991081051017501999999MA1102811999999MD1210011+9999MW1101REMSYN010 333 88656MET008GRADU 99
0064039620999991993050607304+52700-008917FM-15+0020EINN V0209991C00001018001CN0080001N1+00901+00601999999ADDAG11999GA1081+018009059MA1102811999999MW1101REMMET008GRADU 99
0136039620999991993050608004+52700-008917SY-MT+0020EINN V0209991C00001018001CN0080001N1+00981+00641102891ADDAG11999AY121021AY221021GA1081+018009059GF108991081051017501999999MA1102811999999MD1210041+9999MW1101REMSYN010 333 88656MET008GRADU 99
0064039620999991993050608304+52700-008917FM-15+0020EINN V0209991C00001018001CN0080001N1+01001+00601999999ADDAG11000GA1081+018009059MA1102811999999MW1101REMMET008GRADU 99
0155039620999991993050609004+52700-008917SY-MT+0020EINN V0209991C00001018001CN0100001N1+01011+00761102911ADDAG11000AY121031AY221031GA1081+018009059GF108991081051017501999999MA1102911999999MD1210041+9999MW1101REMSYN010 333 88656MET008CAVOK NOEQDQ01+000000PRSWM2
0061039620999991993050609304+52700-008917FM-15+0020EINN V0209991C00001999991CY0099001N1+01001+00701999999ADDAG11999MA1102911999999REMMET008CAVOK NOEQDQ01+000000PRSWM2
0155039620999991993050610004+52700-008917SY-MT+0020EINN V0209991C00001018001CN0100001N1+01101+00811102911ADDAG11999AY121011AY221011GA1081+018009059GF108991081051017501999999MA1102911999999MD1210031+9999MW1101REMSYN010 333 88656MET008CAVOK NOEQDQ01+000000PRSWM2
0061039620999991993050610304+52700-008917FM-15+0020EINN V0209991C00001999991CY0099001N1+01201+00801999999ADDAG11999MA1102911999999REMMET008CAVOK NOEQDQ01+000000PRSWM2
0155039620999991993050611004+52700-008917SY-MT+0020EINN V0209991C00001018001CN0100001N1+01251+00851102901ADDAG11999AY121021AY221021GA1071+018009059GF107991071051017501999999MA1102911999999MD1210011+9999MW1101REMSYN010 333 87656MET008CAVOK NOEQDQ01+000000PRSWM2
0064039620999991993050611304+52700-008917FM-15+0020EINN V0201801N00151021001CN0070001N1+01401+00901999999ADDAG11000GA1071+021009059MA1102911999999MW1101REMMET008GRADU 99
0147039620999991993050612004+52700-008917SY-MT+0020EINN V0201901N00101021001CN0090001N1+01451+00861102871ADDAA106999929AG13000AY121061AY221061GA1071+021009059GF107991071051022501999999MA1102811999999MD1710041+9999MW1051REMSYN010 333 87657MET008GRADU 99
0090039620999991993050612304+52700-008917FM-15+0020EINN V0201101N00201027001CN0112651N1+01601+01001999999ADDAG11999GA1011+009009089GA2061+027009039MA1102811999999REMMET005NOSIGEQDQ01+000000PRSWM2
0155039620999991993050613004+52700-008917SY-MT+0020EINN V0201201N00211027001CN0120001N1+01611+00981102851ADDAG11999AY121011AY221011GA1021+009009089GA2061+027009039GF107991021021012501031001MA1102811999999MD1710061+9999MW1051REMSYN016 333 82830 86459MET005NOSIG
0077039620999991993050613304+52700-008917FM-15+0020EINN V0201301N00201027001CN0112651N1+01601+00901999999ADDAG11999GA1021+009009089GA2061+027009039MA1102811999999MW1051REMMET005NOSIG
0155039620999991993050614004+52700-008917SY-MT+0020EINN V0200301N00211027001CN0140001N1+01701+00961102821ADDAG11999AY121021AY221021GA1021+009009089GA2061+027009039GF107991021021012501031999MA1102811999999MD1710081+9999MW1051REMSYN016 333 82830 86359MET005NOSIG
0093039620999991993050614304+52700-008917FM-15+0020EINN V0201101N00411015001CN0112651N1+01701+01001999999ADDAG11000GA1011+009009089GA2051+015009059GA3061+027009039MA1102711999999MW1051REMMET005NOSIG
0177039620999991993050615004+52700-008917SY-MT+0020EINN V0201101N00461015001CN0140001N1+01651+00781102781ADDAG11000AY121031AY221031GA1011+009009089GA2051+015009059GA3061+027009039GF107991051081012501031999MA1102711999999MD1710091+9999MW1051REMSYN022 333 81830 85650 86359MET005NOSIG
0093039620999991993050615304+52700-008917FM-15+0020EINN V0200701N00251015001CN0112651N1+01601+01001999999ADDAG11999GA1021+009009089GA2041+015009059GA3061+027009039MA1102711999999MW1051REMMET005NOSIG
0177039620999991993050616004+52700-008917SY-MT+0020EINN V0201201N00411027001CN0120001N1+01641+00931102761ADDAG11999AY121011AY221011GA1031+009009089GA2031+015009059GA3061+027009039GF107991041081012501031999MA1102711999999MD1710091+9999MW1051REMSYN022 333 83830 83650 86359MET005NOSIG
0093039620999991993050616304+52700-008917FM-15+0020EINN V0201201N00411015001CN0112651N1+01601+01101999999ADDAG11999GA1031+009009059GA2031+015009059GA3061+027009039MA1102711999999MW1051REMMET005NOSIG
0177039620999991993050617004+52700-008917SY-MT+0020EINN V0201301N00361027001CN0100001N1+01571+01001102761ADDAG11999AY121021AY221021GA1031+009009089GA2031+015009059GA3061+027009039GF107991041081012501031999MA1102711999999MD1610061+9999MW1051REMSYN022 333 83830 83650 86359MET005NOSIG
0093039620999991993050617304+52700-008917FM-15+0020EINN V0201401N00251015001CN0112651N1+01501+01001999999ADDAG11000GA1021+008409089GA2031+015009059GA3061+027009039MA1102711999999MW1051REMMET005NOSIG
0207039620999991993050618004+52700-008917SY-MT+0020EINN V0201601N00211015001CN0080001N1+01441+00941102781ADDAA199999929AG13000AY121061AY221061GA1021+008409089GA2031+015009059GA3061+027009039GF107991031081008001031999KA1120M+01741MA1102711999999MD1510001+9999MW1051REMSYN028 333 10174 82828 83650 86359MET005NOSIG
0093039620999991993050618304+52700-008917FM-15+0020EINN V0201501N00101027001CN0080001N1+01401+01001999999ADDAG11999GA1011+008409089GA2031+015009059GA3061+027009039MA1102711999999MW1051REMMET005NOSIG
0155039620999991993050619004+52700-008917SY-MT+0020EINN V0209991C00001030001CN0080001N1+01391+01011102781ADDAG11999AY121011AY221011GA1011+008409089GA2031+015009059GF105991031081008001031021MA1102711999999MD1110021+9999MW1051REMSYN016 333 81828 83650MET005NOSIG
0077039620999991993050619304+52700-008917FM-15+0020EINN V0209991C00001220001CN0080001N1+01401+01001999999ADDAG11999GA1011+008409089GA2031+015009059MA1102711999999MW1051REMMET005NOSIG
0140039620999991993050620004+52700-008917SY-MT+0020EINN V0203201N00101015001CN0070001N9+01371+00991102811ADDAG11999AY121021AY221021GA1011+008409089GA2051+015009059GF106991051081008001031021MD1210051+9999MW1051REMSYN016 333 81828 85650MET005NOSIG
0077039620999991993050620304+52700-008917FM-15+0020EINN V0203401N00151015001CN0070001N1+01301+01101999999ADDAG11000GA1011+008409089GA2051+015009059MA1102811999999MW1101REMMET005NOSIG
0155039620999991993050621004+52700-008917SY-MT+0020EINN V0209991C00001015001CN0070001N1+01321+00941102831ADDAG11000AY121031AY221031GA1011+008409089GA2061+015009059GF107991071081008001999999MA1102811999999MD1210051+9999MW1101REMSYN016 333 81828 86650MET005NOSIG
0061039620999991993050621304+52700-008917FM-15+0020EINN V0203401N00101012001CN0090001N1+01301+01001999999ADDAG11999GA1051+012009059MA1102811999999MW1101REMMET005NOSIG
0133039620999991993050622004+52700-008917SY-MT+0020EINN V0203501N00101220001CN0090001N1+01241+00981102841ADDAG11999AY121011AY221011GA1041+012009059GF104991041051012501001001MA1102811999999MD1210061+9999MW1101REMSYN010 333 84640MET005NOSIG
0061039620999991993050622304+52700-008917FM-15+0020EINN V0203501N00051220001CN0080001N1+01201+00901999999ADDAG11999GA1031+012009059MA1102811999999MW1101REMMET005NOSIG
0133039620999991993050623004+52700-008917SY-MT+0020EINN V0203601N00151220001CN0080001N1+01101+00921102861ADDAG11999AY111021AY211021GA1031+009009059GF103991031051012501001001MA1102811999999MD1210051+9999MW1101REMSYN010 333 83630MET005NOSIG
0061039620999991993050623304+52700-008917FM-15+0020EINN V0200301N00201220001CN0080001N1+01101+00901999999ADDAG11000GA1031+009009059MA1102811999999MW1101REMMET005NOSIG
0141039620999991993050700004+52700-008917SY-MT+0020EINN V0200401N00311220001CN0080001N1+01001+00811102871ADDAA106999929AG13000GA1031+009009059GF103991031051012501001001MA1102811999999MD1210041+9999REMSYN010 333 83630MET005NOSIGEQDQ01+000003PRSWM1
0061039620999991993050700304+52700-008917FM-15+0020EINN V0200601N00201220001CN0080001N1+00901+00801999999ADDAG11999GA1031+009009059MA1102811999999MW1101REMMET005NOSIG
0133039620999991993050701004+52700-008917SY-MT+0020EINN V0200701N00211220001CN0080001N1+00941+00751102871ADDAG11999AY101011AY201011GA1021+009009059GF102991021051012501001001MA1102811999999MD1110031+9999MW1101REMSYN010 333 82630MET005NOSIG
0061039620999991993050701304+52700-008917FM-15+0020EINN V0209991C00001220001CN0080001N1+00901+00701999999ADDAG11999GA1021+009009059MA1102811999999MW1101REMMET005NOSIG
0133039620999991993050702004+52700-008917SY-MT+0020EINN V0209991C00001220001CN0070001N1+00881+00691102891ADDAG11999AY101021AY201021GA1021+009009059GF102991021051012501001001MA1102811999999MD1210031+9999MW1101REMSYN010 333 82630MET005NOSIG
0061039620999991993050702304+52700-008917FM-15+0020EINN V0200401N00101011401CN0070001N1+00901+00701999999ADDAG11000GA1061+011409059MA1102911999999MW1101REMMET005NOSIG
0133039620999991993050703004+52700-008917SY-MT+0020EINN V0203301N00051011401CN0070001N1+00891+00701102911ADDAG11000AY111031AY201031GA1071+011409059GF107991071051012501999999MA1102911999999MD1210041+9999MW1101REMSYN010 333 87638MET005NOSIG
0061039620999991993050703304+52700-008917FM-15+0020EINN V0203201N00151011401CN0070001N1+00901+00601999999ADDAG11999GA1071+011409059MA1102911999999MW1101REMMET005NOSIG
0133039620999991993050704004+52700-008917SY-MT+0020EINN V0203401N00051015001CN0070001N1+00871+00681102891ADDAG11999AY121011AY221011GA1071+015009059GF107991071051017501999999MA1102811999999MD1010021+9999MW1101REMSYN010 333 87650MET005NOSIG
0061039620999991993050704304+52700-008917FM-15+0020EINN V0200301N00101015001CN0070001N1+00901+00701999999ADDAG11999GA1071+015009059MA1102811999999MW1101REMMET005NOSIG
0136039620999991993050705004+52700-008917SY-MT+0020EINN V0200301N00101015001CN0050001N1+00871+00681102901ADDAG11999AY121021AY221021GA1051+015009059GF105991051051017501999999MA1102911999999MD1210011+9999MW1101REMSYN010 333 85650MET008TEMPO 30
0061039620999991993050705304+52700-008917FM-15+0020EINN V0200401N00101220001CN0040001N1+00901+00701999999ADDAG11000GA1031+015009059MA1102911999999MW1101REMMET005NOSIG
0220039620999991993050706004+52700-008917SY-MT+0020EINN V0200701N00101220001CN0040001N1+00851+00681102921ADDAA199999929AG13000AY111061AY211061GA1011+015009059GF101991011051017501999001GJ100609IA1099IA2999+00109KA1120N+00851MA1102911999999MD1310011+9999MW1101REMSYN028 333 20085 31001 55010 81650MET005NOSIGEQDQ01    003SCOMCG
0061039620999991993050706304+52700-008917FM-15+0020EINN V0200601N00101220001CN0040001N1+00901+00701999999ADDAG11999GA1011+015009059MA1102911999999MW1101REMMET005NOSIG
0101039620999991993050707004+52700-008917SY-MT+0020EINN V0209991C00001220001CN0040001N1+00961+00751102941ADDAG11999AY101011AY201011GF100991001001999999001001MA1102911999999MD1210051+9999MW1101REMMET005NOSIG
0045039620999991993050707304+52700-008917FM-15+0020EINN V0209991C00001220001CN0040001N1+01001+00801999999ADDAG11999MA1102911999999MW1101REMMET005NOSIG
0101039620999991993050708004+52700-008917SY-MT+0020EINN V0201401N00151220001CN0050001N1+01081+00811102971ADDAG11999AY101021AY201021GF100991001001999999001001MA1102911999999MD1210071+9999MW1101REMMET005NOSIG
0045039620999991993050708304+52700-008917FM-15+0020EINN V0201101N00151220001CN0050001N1+01201+00901999999ADDAG11000MA1102911999999MW1101REMMET005NOSIG
0104039620999991993050709004+52700-008917SY-MT+0020EINN V0201301N00211220001CN0060001N1+01291+00861102991ADDAG11000AY101031AY201031GF100991001001999999001001MA1102911999999MD1210071+9999MW1101REMMET008GRADU 90
0048039620999991993050709304+52700-008917FM-15+0020EINN V0201301N00201220001CN0060001N1+01401+00901999999ADDAG11999MA1102911999999MW1051REMMET008GRADU 90
0104039620999991993050710004+52700-008917SY-MT+0020EINN V0201301N00311220001CN0070001N1+01491+00911102971ADDAG11999AY101011AY201011GF100991001001999999001001MA1102911999999MD1010031+9999MW1051REMMET008GRADU 90
0064039620999991993050710304+52700-008917FM-15+0020EINN V0201301N00251220001CN0070001N1+01501+00901999999ADDAG11999GA1011+009009089MA1102911999999MW1051REMMET008GRADU 90
0118039620999991993050711004+52700-008917SY-MT+0020EINN V0201301N00311220001CN0080001N9+01641+00961102951ADDAG11999AY101021AY201021GA1011+006909089GF101991011011012501001001MD1810021+9999MW1051REMSYN010 333 81830MET005NOSIG
0144039620999991993050712004+52700-008917SY-MT+0020EINN V0201201N00411220001CN0090001N1+01821+00761102931ADDAA106999929AG13000AY101061AY201061GA1011+009009089GF101991011011012501001011MA1102911999999MD1710051+9999MW1051REMSYN010 333 81830MET005NOSIG
0061039620999991993050712304+52700-008917FM-15+0020EINN V0200901N00151220001CN0112651N1+01801+01001999999ADDAG11999GA1011+009609089MA1102911999999MW1051REMMET005NOSIG
0133039620999991993050713004+52700-008917SY-MT+0020EINN V0201401N00411220001CN0110001N1+01821+00961102941ADDAG11999AY101011AY201011GA1021+009009089GF102991021021012501001001MA1102911999999MD1610021+9999MW1051REMSYN010 333 82830MET005NOSIG
0061039620999991993050713304+52700-008917FM-15+0020EINN V0201401N00301220001CN0112651N1+01901+01001999999ADDAG11999GA1021+009009089MA1102911999999MW1051REMMET005NOSIG
0133039620999991993050714004+52700-008917SY-MT+0020EINN V0201501N00311220001CN0110001N1+01921+00971102921ADDAG11999AY101021AY201021GA1011+009009089GF101991011021012501001001MA1102911999999MD1710021+9999MW1051REMSYN010 333 81830MET005NOSIG
0061039620999991993050714304+52700-008917FM-15+0020EINN V0201501N00201220001CN0112651N1+01901+01001999999ADDAG11000GA1021+009009089MA1102911999999MW1051REMMET005NOSIG
0133039620999991993050715004+52700-008917SY-MT+0020EINN V0201501N00311220001CN0100001N1+01911+00931102901ADDAG11000AY101031AY201031GA1021+009009089GF102991021021012501001001MA1102911999999MD1810031+9999MW1051REMSYN010 333 82830MET005NOSIG
0061039620999991993050715304+52700-008917FM-15+0020EINN V0201501N00151220001CN0112651N1+01901+01101999999ADDAG11999GA1031+009009089MA1102811999999MW1051REMMET005NOSIG
0133039620999991993050716004+52700-008917SY-MT+0020EINN V0201401N00261220001CN0090001N1+01941+01131102871ADDAG11999AY101011AY201011GA1031+009909089GF103991031021012501001001MA1102811999999MD1710071+9999MW1051REMSYN010 333 83833MET005NOSIG
0061039620999991993050716304+52700-008917FM-15+0020EINN V0201701N00151220001CN0112651N1+01901+01001999999ADDAG11999GA1031+009909089MA1102811999999MW1051REMMET005NOSIG
0133039620999991993050717004+52700-008917SY-MT+0020EINN V0201601N00151220001CN0150001N1+01861+01051102881ADDAG11999AY101021AY201021GA1031+009909089GF103991031021012501001001MA1102811999999MD1510041+9999MW1051REMSYN010 333 83833MET005NOSIG
0061039620999991993050717304+52700-008917FM-15+0020EINN V0201901N00051220001CN0112651N1+01801+01001999999ADDAG11000GA1031+009909089MA1102811999999MW1051REMMET005NOSIG
0163039620999991993050718004+52700-008917SY-MT+0020EINN V0202901N00101220001CN0160001N1+01851+00851102871ADDAA199999929AG13000AY101061AY201061GA1031+012009089GF103991031041012501001001KA1120M+01981MA1102811999999MD1510031+9999MW1051REMSYN016 333 10198 83840MET005NOSIG
0061039620999991993050718304+52700-008917FM-15+0020EINN V0202901N00201220001CN0112651N1+01801+01001999999ADDAG11999GA1031+012009089MA1102811999999MW1051REMMET005NOSIG
0133039620999991993050719004+52700-008917SY-MT+0020EINN V0203001N00151220001CN0160001N1+01801+00991102871ADDAG11999AY101011AY201011GA1011+012009059GF101991011041012501001001MA1102811999999MD1010001+9999MW1051REMSYN010 333 81640MET005NOSIG
0061039620999991993050719304+52700-008917FM-15+0020EINN V0203101N00151220001CN0112651N1+01701+01001999999ADDAG11999GA1011+012009059MA1102911999999MW1051REMMET005NOSIG
0133039620999991993050720004+52700-008917SY-MT+0020EINN V0203201N00361220001CN0080001N1+01571+01021102931ADDAG11999AY101021AY201021GA1011+012009059GF101991011051012501001011MA1102911999999MD1310041+9999MW1051REMSYN010 333 81640MET005NOSIG
0061039620999991993050720304+52700-008917FM-15+0020EINN V0203301N00461220001CN0080001N1+01401+00901999999ADDAG11000GA1011+012009059MA1102911999999MW1051REMMET005NOSIG
0133039620999991993050721004+52700-008917SY-MT+0020EINN V0203301N00411220001CN0080001N1+01351+00881102941ADDAG11000AY101031AY201031GA1011+012009059GF102991021051012501001011MA1102911999999MD1210061+9999MW1051REMSYN010 333 81640MET005NOSIG
0061039620999991993050721304+52700-008917FM-15+0020EINN V0203401N00411220001CN0080001N1+01301+00901999999ADDAG11999GA1031+012009059MA1102911999999MW1051REMMET005NOSIG
0133039620999991993050722004+52700-008917SY-MT+0020EINN V0203501N00211220001CN0080001N1+01221+00831102961ADDAG11999AY101011AY201011GA1021+012009059GF102991021051012501001011MA1102911999999MD1210081+9999MW1101REMSYN010 333 82640MET005NOSIG
0061039620999991993050722304+52700-008917FM-15+0020EINN V0200301N00251220001CN0080001N1+01201+00901999999ADDAG11999GA1011+012009059MA1102911999999MW1101REMMET005NOSIG
0133039620999991993050723004+52700-008917SY-MT+0020EINN V0200601N00311220001CN0150001N1+01281+00891103001ADDAG11999AY101021AY201021GA1011+012009059GF101991011051012501001001MA1103011999999MD1210071+9999MW1101REMSYN010 333 81640MET005NOSIG
0144039620999991993050800004+52700-008917SY-MT+0020EINN V0201001N00311220001CN0130001N1+01281+01011103001ADDAA106999929AG13000AY101061AY201061GA1011+012009059GF101991011051012501001001MA1103011999999MD1110061+9999MW1101REMSYN010 333 81640MET005NOSIG
0064039620999991993050800304+52700-008917FM-15+0020EINN V0203401N00201220001CN0112651N1+01201+01001999999ADDAG11999GA1011+012009059MA1103011999999MW1101REMMET008TEMPO 80
0121039620999991993050801004+52700-008917SY-MT+0020EINN V0203501N00151220001CN0130001N9+01081+00901103041ADDAG11999AY101011AY201011GA1011+012009059GF101991011051012501001001MD1210081+9999MW1101REMSYN010 333 81640MET008TEMPO 80
0064039620999991993050801304+52700-008917FM-15+0020EINN V0209991C00001220001CN0112651N1+01101+00901999999ADDAG11999GA1011+012009059MA1103011999999MW1101REMMET008TEMPO 80
0136039620999991993050802004+52700-008917SY-MT+0020EINN V0209991C00001220001CN0150001N1+01031+00831103041ADDAG11999AY101021AY201021GA1011+009009059GF101991011051012501001001MA1103011999999MD1110041+9999MW1101REMSYN010 333 81640MET008TEMPO 80
0136039620999991993050803004+52700-008917SY-MT+0020EINN V0200701N00101220001CN0150001N1+00931+00721103061ADDAG11000AY101031AY201031GA1011+012009059GF101991011051012501001001MA1103011999999MD1210061+9999MW1101REMSYN010 333 81640MET008TEMPO 80
0064039620999991993050803304+52700-008917FM-15+0020EINN V0200401N00201220001CN0112651N1+00901+00701999999ADDAG11999GA1011+012009059MA1103011999999MW1101REMMET008TEMPO 80
0136039620999991993050804004+52700-008917SY-MT+0020EINN V0200501N00151220001CN0150001N1+00831+00651103031ADDAG11999AY101011AY201011GA1011+012009059GF101991011051012501001001MA1103011999999MD1810011+9999MW1101REMSYN010 333 81640MET008TEMPO 80
0064039620999991993050804304+52700-008917FM-15+0020EINN V0200501N00251220001CN0112651N1+00801+00601999999ADDAG11999GA1011+012009059MA1103011999999MW1101REMMET008TEMPO 80
0136039620999991993050805004+52700-008917SY-MT+0020EINN V0200501N00211220001CN0150001N1+00781+00601103011ADDAG11999AY101021AY201021GA1011+012009059GF101991011051012501001001MA1103011999999MD1810031+9999MW1101REMSYN010 333 81640MET008TEMPO 80
0064039620999991993050805304+52700-008917FM-15+0020EINN V0203501N00051220001CN0112651N1+00801+00601999999ADDAG11000GA1011+012009059MA1103011999999MW1101REMMET008TEMPO 80
0226039620999991993050806004+52700-008917SY-MT+0020EINN V0203201N00051220001CN0100001N1+00821+00621103041ADDAA199999929AG13000AY101061AY201061GA1011+012009059GA2031+075009009GF103991011051012501001021GJ107569IA1099IA2999+00009KA1120N+00751MA1103011999999MD1510021+9999MW1101REMSYN034 333 20075 31000 55126 81640 83075MET008TEMPO 80
0061039620999991993050806304+52700-008917FM-15+0020EINN V0200101N00101220001CN0050001N1+00801+00601999999ADDAG11999GA1031+075009009MA1103011999999MW1101REMMET005NOSIG
0136039620999991993050807004+52700-008917SY-MT+0020EINN V0200601N00051220001CN0050001N1+00921+00691103061ADDAG11999AY101011AY201011GA1031+075009009GF103991001001999999001021MA1103011999999MD1210031+9999MW1101REMSYN010 333 83075MET008GRADU 99
0061039620999991993050807304+52700-008917FM-15+0020EINN V0209991C00001220001CN0050001N1+01001+00701999999ADDAG11999GA1031+075009009MA1103011999999MW1101REMMET005NOSIG
0133039620999991993050808004+52700-008917SY-MT+0020EINN V0209991C00001220001CN0050001N1+01041+00721103061ADDAG11999AY101021AY201021GA1031+075009009GF103991001001999999001021MA1103011999999MD1210051+9999MW1101REMSYN010 333 83075MET005NOSIG
0047039620999991993050808304+52700-008917FM-15+0020EINN V0202201N00051220001CN0050001N1+01101+00801999999ADDAG11000GA1011+075009009MA1103011999999MW1101
0136039620999991993050809004+52700-008917SY-MT+0020EINN V0202001N00151220001CN0060001N1+01261+00931103041ADDAG11000AY101031AY201031GA1011+060009009GF101991001001999999001021MA1103011999999MD1010001+9999MW1101REMSYN010 333 81070MET008GRADU 99
0064039620999991993050809304+52700-008917FM-15+0020EINN V0202001N00101220001CN0060001N1+01301+00901999999ADDAG11999GA1011+060009009MA1103011999999MW1051REMMET008GRADU 99
0136039620999991993050810004+52700-008917SY-MT+0020EINN V0202401N00151220001CN0060001N1+01351+00901103001ADDAG11999AY101011AY201011GA1021+060009009GF102991001001999999001021MA1103011999999MD1710061+9999MW1051REMSYN010 333 82070MET008GRADU 99
0064039620999991993050810304+52700-008917FM-15+0020EINN V0202901N00101220001CN0060001N1+01501+01001999999ADDAG11999GA1031+060009009MA1102911999999MW1051REMMET008GRADU 99
0158039620999991993050811004+52700-008917SY-MT+0020EINN V0202701N00101220001CN0060001N1+01531+01041102971ADDAG11999AY101021AY201021GA1011+009009089GA2031+060009009GF103991011011012501001021MA1102911999999MD1710091+9999MW1051REMSYN016 333 81830 83070MET008GRADU 99
0080039620999991993050811304+52700-008917FM-15+0020EINN V0201601N00251220001CN0070001N1+01601+01101999999ADDAG11000GA1011+009009089GA2031+060009009MA1102911999999MW1051REMMET008GRADU 99
0169039620999991993050812004+52700-008917SY-MT+0020EINN V0200801N00511220001CN0090001N1+01771+00861102921ADDAA106999929AG13000AY101061AY201061GA1011+009009089GA2031+060009009GF104991011011012501001021MA1102911999999MD1710111+9999MW1051REMSYN016 333 81830 83070MET008GRADU 99
0077039620999991993050812304+52700-008917FM-15+0020EINN V0200901N00511220001CN0112651N1+01801+01001999999ADDAG11999GA1021+009009089GA2031+060009009MA1102911999999MW1051REMMET005NOSIG
0129039620999991993050813004+52700-008917FM-12+0020EINN V0200501N00361075001CN0140001N9+01841+01041102911ADDAG11999AY111011AY211011GA1031+009009089GA2031+075009009GF105991031021012501001021MD1610081+9999MW1051REMSYN016 333 83830 83075
0077039620999991993050813304+52700-008917FM-15+0020EINN V0200401N00361075001CN0112651N1+01901+01101999999ADDAG11999GA1031+009009089GA2031+075009009MA1102811999999MW1051REMMET005NOSIG
0152039620999991993050814004+52700-008917SY-MT+0020EINN V0200501N00511075001CN0140001N1+01921+01141102851ADDAG11999AY121021AY221021GA1041+009009089GF105991041021012501001021MA1102811999999MD1710111+9999MW1051REMSYN010 333 84830MET005NOSIGEQDQ01+000000PRSWM2
0074039620999991993050814304+52700-008917FM-15+0020EINN V0200501N00561220001CN0112651N1+02001+01201999999ADDAG11000GA1041+009009089MA1102811999999REMMET005NOSIGEQDQ01+000000PRSWM2
0130039620999991993050815004+52700-008917SY-MT+0020EINN V0200701N00511220001CN0160001N1+01961+00971102811ADDAG11000GA1031+009009089GF104991031021012501001021MA1102811999999MD1710111+9999REMSYN010 333 83830MET005NOSIGEQDQ01+000000PRSWM2
0074039620999991993050815304+52700-008917FM-15+0020EINN V0200801N00561220001CN0112651N1+02001+01101999999ADDAG11999GA1021+009009089MA1102811999999REMMET005NOSIGEQDQ01+000000PRSWM2
0130039620999991993050816004+52700-008917SY-MT+0020EINN V0200701N00571220001CN0140001N1+01951+01031102791ADDAG11999GA1021+009009089GF104991021021012501001021MA1102811999999MD1710121+9999REMSYN010 333 82830MET005NOSIGEQDQ01+000000PRSWM2
0074039620999991993050816304+52700-008917FM-15+0020EINN V0200701N00561220001CN0112651N1+01901+01001999999ADDAG11999GA1021+009009089MA1102711999999REMMET005NOSIGEQDQ01+000000PRSWM2
0152039620999991993050817004+52700-008917SY-MT+0020EINN V0200701N00511075001CN0160001N1+01941+01031102751ADDAG11999GA1021+009009089GA2051+075009009GF105991021021012501001021MA1102711999999MD1710101+9999REMSYN016 333 82830 85075MET005NOSIGEQDQ01+000000PRSWM2
0090039620999991993050817304+52700-008917FM-15+0020EINN V0200801N00561075001CN0112651N1+01901+01001999999ADDAG11000GA1021+009009089GA2051+075009009MA1102711999999REMMET005NOSIGEQDQ01+000000PRSWM2
0182039620999991993050818004+52700-008917SY-MT+0020EINN V0200901N00511075001CN0180001N1+01831+00701102731ADDAA199999929AG13000GA1021+009009089GA2051+075009009GF106991031081012501001021KA1120M+02031MA1102711999999MD1710081+9999REMSYN022 333 10203 82830 85075MET005NOSIGEQDQ01+000000PRSWM2
0106039620999991993050818304+52700-008917FM-15+0020EINN V0200801N00511075001CN0112651N1+01801+00901999999ADDAG11999GA1011+009009089GA2031+015009059GA3051+075009009MA1102711999999REMMET005NOSIGEQDQ01+000000PRSWM2
0190039620999991993050819004+52700-008917SY-MT+0020EINN V0200601N00361075001CN0200001N1+01701+00921102751ADDAG11999GA1011+009009089GA2031+015009059GA3051+075009009GF105991031081012501999021MA1102711999999MD1610051+9999REMSYN022 333 81830 83650 85075MET005NOSIGEQDQ01+000000PRSWM2Q02    003SCOMCG
0090039620999991993050819304+52700-008917FM-15+0020EINN V0200501N00361015001CN0112651N1+01701+00901999999ADDAG11999GA1011+009009059GA2051+015009059MA1102711999999REMMET005NOSIGEQDQ01+000000PRSWM2
0171039620999991993050820004+52700-008917SY-MT+0020EINN V0200501N00461015001CN0200001N1+01591+00991102791ADDAG11999GA1051+015009059GA2041+075009009GF107991051051017501999021MA1102711999999MD1310031+9999REMSYN016 333 85650 84075MET008CAVOK NOEQDQ01+000000PRSWM2Q02    003SCOMCG
0061039620999991993050820304+52700-008917FM-15+0020EINN V0200501N00301999991CY0099001N1+01501+00901999999ADDAG11000MA1102811999999REMMET008CAVOK NOEQDQ01+000000PRSWM2
0133039620999991993050821004+52700-008917SY-MT+0020EINN V0200601N00461015001CN0200001N1+01431+00701102831ADDAG11000GA1061+015009059GF106991061051017501999999MA1102811999999MD1210091+9999REMSYN010 333 86650MET008CAVOK NOEQDQ01+000000PRSWM2
0061039620999991993050821304+52700-008917FM-15+0020EINN V0200701N00361999991CY0099001N1+01301+00701999999ADDAG11999MA1102811999999REMMET008CAVOK NOEQDQ01+000000PRSWM2
0149039620999991993050822004+52700-008917SY-MT+0020EINN V0200801N00261220001CN0200001N1+01271+00691102861ADDAG11999GA1041+015009059GF104991041051017501999001MA1102811999999MD1210111+9999REMSYN010 333 84650MET008CAVOK NOEQDQ01+000000PRSWM2Q02    003SCOMCG
0061039620999991993050822304+52700-008917FM-15+0020EINN V0200701N00361999991CY0099001N1+01301+00501999999ADDAG11999MA1102811999999REMMET008CAVOK NOEQDQ01+000000PRSWM2
0133039620999991993050823004+52700-008917SY-MT+0020EINN V0200501N00461015001CN0200001N1+01241+00511102851ADDAG11999GA1061+015009059GF106991061051017501999999MA1102811999999MD1010061+9999REMSYN010 333 86650MET008CAVOK NOEQDQ01+000000PRSWM2
0061039620999991993050823304+52700-008917FM-15+0020EINN V0200601N00361999991CY0099001N1+01201+00501999999ADDAG11000MA1102811999999REMMET008CAVOK NOEQDQ01+000000PRSWM2
0160039620999991993050900004+52700-008917SY-MT+0020EINN V0200501N00361015001CN0200001N1+01171+00441102861ADDAA106999929AG13000GA1051+015009059GF105991051051017501999001MA1102811999999MD1210031+9999REMSYN010 333 85650MET008CAVOK NOEQDQ01+000000PRSWM2Q02    003SCOMCG
0061039620999991993050900304+52700-008917FM-15+0020EINN V0200201N00201999991CY0099001N1+01101+00601999999ADDAG11999MA1102811999999REMMET008CAVOK NOEQDQ01+000000PRSWM2
0149039620999991993050901004+52700-008917SY-MT+0020EINN V0200501N00311220001CN0200001N1+01071+00601102831ADDAG11999GA1041+015009059GF104991041051017501999001MA1102811999999MD1810031+9999REMSYN010 333 84650MET008CAVOK NOEQDQ01+000000PRSWM2Q02    003SCOMCG
0061039620999991993050901304+52700-008917FM-15+0020EINN V0200101N00201999991CY0099001N1+01101+00601999999ADDAG11999MA1102811999999REMMET008CAVOK NOEQDQ01+000000PRSWM2
0149039620999991993050902004+52700-008917SY-MT+0020EINN V0200301N00311220001CN0200001N1+00981+00591102831ADDAG11999GA1011+018009059GF101991011051017501999001MA1102811999999MD1710021+9999REMSYN010 333 81656MET008CAVOK NOEQDQ01+000000PRSWM2Q02    003SCOMCG
0061039620999991993050902304+52700-008917FM-15+0020EINN V0200501N00301999991CY0099001N1+00901+00601999999ADDAG11000MA1102811999999REMMET008CAVOK NOEQDQ01+000000PRSWM2
0133039620999991993050903004+52700-008917SY-MT+0020EINN V0200401N00211220001CN0200001N1+00891+00581102791ADDAG11000GA1011+018009059GF101991011051017501031001MA1102711999999MD1710071+9999REMSYN010 333 81656MET008CAVOK NOEQDQ01+000000PRSWM2
0061039620999991993050903304+52700-008917FM-15+0020EINN V0200301N00361999991CY0099001N1+00801+00601999999ADDAG11999MA1102711999999REMMET008CAVOK NOEQDQ01+000000PRSWM2
0133039620999991993050904004+52700-008917SY-MT+0020EINN V0200301N00361220001CN0180001N1+00821+00601102741ADDAG11999GA1011+018009059GF101991011051017501031001MA1102711999999MD1810091+9999REMSYN010 333 81656MET008CAVOK NOEQDQ01+000000PRSWM2
0137039620999991993050905004+52700-008917SY-MT+0020EINN V0200501N00261220001CN0050001N9+00831+00611102731ADDAG11999AY101021AY201021GA1011+015009059GF101991011051017501999021MD1710101+9999MW1101REMSYN010 333 81650MET005NOSIGEQDQ01    003SCOMCG
0061039620999991993050905304+52700-008917FM-15+0020EINN V0200501N00201220001CN0050001N1+00801+00601999999ADDAG11000GA1011+015009059MA1102711999999MW1101REMMET005NOSIG
0220039620999991993050906004+52700-008917SY-MT+0020EINN V0200301N00361220001CN0050001N1+00841+00641102731ADDAA199999929AG13000AY101061AY201061GA1011+015009059GF101991011051017501999021GJ106609IA1019IA2999+00409KA1120N+00781MA1102711999999MD1610061+9999MW1101REMSYN028 333 20078 30004 55110 81650MET005NOSIGEQDQ01    003SCOMCG
0061039620999991993050906304+52700-008917FM-15+0020EINN V0200301N00461220001CN0112651N1+00901+00701999999ADDAG11999GA1021+012009059MA1102711999999MW1101REMMET005NOSIG
0133039620999991993050907004+52700-008917SY-MT+0020EINN V0200501N00461220001CN0120001N1+00941+00711102721ADDAG11999AY101011AY201011GA1031+012009059GF103991031051012501001021MA1102711999999MD1610021+9999MW1101REMSYN010 333 83640MET005NOSIG
0074039620999991993050907304+52700-008917FM-15+0020EINN V0200501N00511220001CN0112651N1+01001+00701999999ADDAG11999GA1011+012009059MA1102711999999REMMET005NOSIGEQDQ01+000000PRSWM2
0130039620999991993050908004+52700-008917SY-MT+0020EINN V0200301N00461220001CN0150001N1+01071+00671102741ADDAG11999GA1011+007509089GF101991011051008001001021MA1102711999999MD1310011+9999REMSYN010 333 81640MET005NOSIGEQDQ01+000000PRSWM2
0074039620999991993050908304+52700-008917FM-15+0020EINN V0200501N00561220001CN0112651N1+01101+00701999999ADDAG11000GA1011+009009089MA1102711999999REMMET005NOSIGEQDQ01+000000PRSWM2
0130039620999991993050909004+52700-008917SY-MT+0020EINN V0200401N00511220001CN0250001N1+01161+00611102711ADDAG11000GA1011+009009089GF101991011081012501001021MA1102711999999MD1710021+9999REMSYN010 333 81830MET005NOSIGEQDQ01+000000PRSWM2
0074039620999991993050909304+52700-008917FM-15+0020EINN V0200501N00561220001CN0112651N1+01301+00701999999ADDAG11999GA1011+009009089MA1102611999999REMMET005NOSIGEQDQ01+000000PRSWM2
0130039620999991993050910004+52700-008917SY-MT+0020EINN V0200501N00511220001CN0250001N1+01331+00701102671ADDAG11999GA1011+009009089GF101991011081012501031021MA1102611999999MD1810051+9999REMSYN010 333 81830MET005NOSIGEQDQ01+000000PRSWM2
0090039620999991993050910304+52700-008917FM-15+0020EINN V0200401N00611220001CN0112651N1+01301+00601999999ADDAG11999GA1011+009009089GA2031+075009009MA1102611999999REMMET005NOSIGEQDQ01+000000PRSWM2
0130039620999991993050911004+52700-008917SY-MT+0020EINN V0200501N00771220001CN0400001N1+01481+00801102651ADDAG11999GA1021+009009089GF104991021081012501031021MA1102611999999MD1610091+9999REMSYN010 333 82830MET005NOSIGEQDQ01+000000PRSWM2
0090039620999991993050911304+52700-008917FM-15+0020EINN V0200301N00871015001CN0112651N1+01401+00701999999ADDAG11000GA1031+009009089GA2051+015009059MA1102611999999REMMET005NOSIGEQDQ01+000000PRSWM2
0163039620999991993050912004+52700-008917SY-MT+0020EINN V0200501N00721015001CN0300001N1+01401+00661102621ADDAA106999929AG13000GA1021+009009089GA2071+015009059GF107991071081012501999999MA1102611999999MD1710091+9999REMSYN016 333 82830 87650MET005NOSIGEQDQ01+000000PRSWM2
0090039620999991993050912304+52700-008917FM-15+0020EINN V0200501N00771015001CN0112651N1+01401+00801999999ADDAG11999GA1011+009009089GA2071+015009059MA1102611999999REMMET005NOSIGEQDQ01+000000PRSWM2
0152039620999991993050913004+52700-008917SY-MT+0020EINN V0200601N00871018001CN0300001N1+01391+00691102591ADDAG11999GA1011+009009089GA2061+018009059GF106991061081012501999999MA1102511999999MD1710081+9999REMSYN016 333 81830 86656MET005NOSIGEQDQ01+000000PRSWM2
0090039620999991993050913304+52700-008917FM-15+0020EINN V0200501N00771018001CN0112651N1+01401+00701999999ADDAG11999GA1011+009009089GA2061+018009059MA1102511999999REMMET005NOSIGEQDQ01+000000PRSWM2
0168039620999991993050914004+52700-008917SY-MT+0020EINN V0200501N00871075001CN0300001N1+01491+00751102521ADDAG11999GA1011+009009089GA2041+018009059GF106991041081012501999021MA1102511999999MD1710131+9999REMSYN016 333 81830 84656MET005NOSIGEQDQ01+000000PRSWM2Q02    003SCOMCG
0090039620999991993050914304+52700-008917FM-15+0020EINN V0200501N00771018001CN0112651N1+01501+00801999999ADDAG11000GA1011+009009089GA2061+018009059MA1102511999999REMMET005NOSIGEQDQ01+000000PRSWM2
0155039620999991993050915004+52700-008917SY-MT+0020EINN V0200501N00821018001CN0200001N1+01501+00611102461ADDAG12002AY181031AY221031GA1031+009009089GA2051+018009059GF107991071081012501999999MA1102401999999MD1710161+9999MW1801REMSYN016 333 83830 85656MET005NOSIG
0077039620999991993050915304+52700-008917FM-15+0020EINN V0200601N00771018001CN0112651N1+01301+00701999999ADDAG11999GA1011+009009089GA2071+018009059MA1102401999999MW1251REMMET005NOSIG
0177039620999991993050916004+52700-008917SY-MT+0020EINN V0200501N00671030001CN0200001N1+01311+00671102441ADDAG12999AY181011AY221011GA1011+009009089GA2041+018009059GA3071+030009039GF107991041081012501071999MA1102401999999MD1710151+9999MW1251REMSYN022 333 81830 84656 87360MET005NOSIG
0106039620999991993050916304+52700-008917FM-15+0020EINN V0200501N00871030001CN0112651N1+01301+00601999999ADDAG11999GA1011+009009089GA2041+018009059GA3071+030009039MA1102401999999REMMET005NOSIGEQDQ01+000000PRSWM2
0174039620999991993050917004+52700-008917SY-MT+0020EINN V0200501N00821018001CN0200001N1+01391+00721102381ADDAG11999GA1011+009009089GA2051+018009059GA3071+030009039GF107991051081012501071999MA1102301999999MD1710141+9999REMSYN022 333 81830 85656 87360MET005NOSIGEQDQ01+000000PRSWM2
0106039620999991993050917304+52700-008917FM-15+0020EINN V0200501N00661018001CN0112651N1+01401+00701999999ADDAG11000GA1011+009009089GA2051+018009059GA3051+030009039MA1102301999999REMMET005NOSIGEQDQ01+000000PRSWM2
0226039620999991993050918004+52700-008917SY-MT+0020EINN V0200601N00511015001CN0200001N1+01421+00711102361ADDAA199999929AG11001AY181061AY221061GA1011+006009089GA2051+015009059GA3051+030009039GF107991051081012501031999KA1120M+01571MA1102301999999MD1710101+9999MW1021REMSYN028 333 10157 81830 85650 85360MET005NOSIGEQDQ01+000000PRSWM2
0093039620999991993050918304+52700-008917FM-15+0020EINN V0200601N00611015001CN0112651N1+01401+00801999999ADDAG11999GA1011+009009059GA2051+015009059GA3071+024009049MA1102301999999MW1601REMMET005NOSIG
0177039620999991993050919004+52700-008917SY-MT+0020EINN V0200601N00671015001CN0300001N1+01321+00681102351ADDAG12999AY161011AY221011GA1021+009009059GA2051+015009059GA3071+024009049GF108991051051012501071999MA1102301999999MD1610091+9999MW1601REMSYN022 333 82630 85650 87458MET005NOSIG
0093039620999991993050919304+52700-008917FM-15+0020EINN V0200601N00511015001CN0112651N1+01301+00701999999ADDAG11999GA1011+009009059GA2051+015009059GA3051+024009039MA1102301999999MW1211REMMET005NOSIG
0177039620999991993050920004+52700-008917SY-MT+0020EINN V0200501N00511015001CN0300001N1+01271+00691102361ADDAG12999AY161021AY221021GA1021+009009059GA2051+015009059GA3051+060009009GF107991051051012501031021MA1102301999999MD1510021+9999MW1211REMSYN022 333 81630 85650 85070MET005NOSIG
0106039620999991993050920304+52700-008917FM-15+0020EINN V0200501N00201015001CN0112651N1+01301+00701999999ADDAG11000GA1011+009009059GA2051+015009059GA3051+060009009MA1102301999999REMMET005NOSIGEQDQ01+000000PRSWM2
0196039620999991993050921004+52700-008917SY-MT+0020EINN V0200501N00461015001CN0200001N1+01261+00611102351ADDAG12001AY161031AY221031GA1011+009009059GA2051+015009059GA3051+060009009GF107991051051012501031021MA1102301999999MD1810011+9999MW1021REMSYN022 333 81630 85650 85070MET005NOSIGEQDQ01+000000PRSWM2
0106039620999991993050921304+52700-008917FM-15+0020EINN V0200501N00661015001CN0112651N1+01201+00701999999ADDAG11999GA1011+009009059GA2051+015009059GA3051+060009009MA1102301999999REMMET005NOSIGEQDQ01+000000PRSWM2
0174039620999991993050922004+52700-008917SY-MT+0020EINN V0200501N00511015001CN0200001N1+01241+00561102291ADDAG12999GA1021+009009059GA2051+015009059GA3051+060009009GF107991051051012501031021MA1102201999999MD1810061+9999REMSYN022 333 82630 85650 85070MET005NOSIGEQDQ01+000000PRSWM2
0174039620999991993050923004+52700-008917SY-MT+0020EINN V0200101N00411015001CN0200001N1+01211+00691102281ADDAG12999GA1021+009009059GA2051+015009059GA3051+060009009GF107991051051012501031021MA1102201999999MD1510081+9999REMSYN022 333 82630 85650 85070MET005NOSIGEQDQ01+000000PRSWM2
0090039620999991993050923304+52700-008917FM-15+0020EINN V0200101N00411015001CN0112651N1+01201+00701999999ADDAG11000GA1011+010509059GA2051+015009059MA1102201999999REMMET005NOSIGEQDQ01+000000PRSWM2
0185039620999991993051000004+52700-008917SY-MT+0020EINN V0200201N00261015001CN0200001N1+01161+00701102261ADDAA106999929AG12001AY161061AY221061GA1011+010509059GA2051+015009059GF106991051051012501031999MA1102201999999MD1610091+9999MW1011REMSYN016 333 81635 85650MET005NOSIGEQDQ01+000000PRSWM2
0090039620999991993051000304+52700-008917FM-15+0020EINN V0200801N00101015001CN0112651N1+01101+00701999999ADDAG11999GA1011+010509059GA2051+015009059MA1102201999999REMMET005NOSIGEQDQ01+000000PRSWM2
0152039620999991993051001004+52700-008917SY-MT+0020EINN V0200401N00311015001CN0200001N1+01111+00691102251ADDAG12999GA1021+010809059GA2051+015009059GF106991061051012501999999MA1102201999999MD1710041+9999REMSYN016 333 82636 85650MET005NOSIGEQDQ01+000000PRSWM2
0090039620999991993051001304+52700-008917FM-15+0020EINN V0200301N00201015001CN0112651N1+01101+00701999999ADDAG11999GA1011+010809059GA2051+015009059MA1102201999999REMMET005NOSIGEQDQ01+000000PRSWM2
0152039620999991993051002004+52700-008917SY-MT+0020EINN V0200501N00411015001CN0200001N1+01081+00661102221ADDAG12999GA1011+010809059GA2061+015009059GF107991071051012501999999MA1102201999999MD1710061+9999REMSYN016 333 81636 86650MET005NOSIGEQDQ01+000000PRSWM2
0090039620999991993051002304+52700-008917FM-15+0020EINN V0200201N00561220001CN0112651N1+01001+00601999999ADDAG11000GA1011+010809059GA2041+015009059MA1102101999999REMMET005NOSIGEQDQ01+000000PRSWM2
0152039620999991993051003004+52700-008917SY-MT+0020EINN V0200201N00571075001CN0200001N1+00981+00641102161ADDAG12000GA1011+012009059GA2031+027009039GF105991011051012501031021MA1102101999999MD1810101+9999REMSYN016 333 81640 83659MET005NOSIGEQDQ01+000000PRSWM2
0090039620999991993051003304+52700-008917FM-15+0020EINN V0200301N00511220001CN0112651N1+01001+00601999999ADDAG11999GA1011+012009059GA2031+027009039MA1102101999999REMMET005NOSIGEQDQ01+000000PRSWM2
0130039620999991993051004004+52700-008917SY-MT+0020EINN V0200401N00511220001CN0200001N1+00941+00591102101ADDAG12999GA1011+012009059GF103991011051012501031011MA1102101999999MD1810151+9999REMSYN010 333 81640MET005NOSIGEQDQ01+000000PRSWM2
0074039620999991993051004304+52700-008917FM-15+0020EINN V0200501N00511220001CN0112651N1+00901+00601999999ADDAG11999GA1011+012009059MA1102001999999REMMET005NOSIGEQDQ01+000000PRSWM2
0130039620999991993051005004+52700-008917SY-MT+0020EINN V0200601N00571220001CN0200001N1+00901+00591102061ADDAG12999GA1011+012009059GF101991011051012501001011MA1102001999999MD1710161+9999REMSYN010 333 81640MET005NOSIGEQDQ01+000000PRSWM2
0074039620999991993051005304+52700-008917FM-15+0020EINN V0200601N00561220001CN0112651N1+00901+00601999999ADDAG11000GA1011+012009059MA1102001999999REMMET005NOSIGEQDQ01+000000PRSWM2
0198039620999991993051006004+52700-008917SY-MT+0020EINN V0200501N00721220001CN0200001N1+00941+00591102041ADDAA199999929AG13000GA1011+012009059GF101991011051012501001011GJ103189IA1019IA2999+00609KA1120N+00891MA1102001999999MD1610121+9999REMSYN028 333 20089 30006 55053 81640MET005NOSIGEQDQ01+000000PRSWM2
0074039620999991993051006304+52700-008917FM-15+0020EINN V0200501N00721220001CN0112651N1+01001+00701999999ADDAG11999GA1011+012009059MA1102001999999REMMET005NOSIGEQDQ01+000000PRSWM2
0130039620999991993051007004+52700-008917SY-MT+0020EINN V0200501N00671220001CN0200001N1+00991+00671102051ADDAG11999GA1011+012009059GF101991011051012501001001MA1102001999999MD1510051+9999REMSYN010 333 81640MET005NOSIGEQDQ01+000000PRSWM2
0074039620999991993051007304+52700-008917FM-15+0020EINN V0200601N00661220001CN0112651N1+01101+00701999999ADDAG11999GA1011+006009089MA1102001999999REMMET005NOSIGEQDQ01+000000PRSWM2
0130039620999991993051008004+52700-008917SY-MT+0020EINN V0200501N00511220001CN0250001N1+01131+00751102051ADDAG11999GA1011+006009089GF101991011081008001001001MA1102001999999MD1510011+9999REMSYN010 333 81820MET005NOSIGEQDQ01+000000PRSWM2
0074039620999991993051008304+52700-008917FM-15+0020EINN V0200401N00561220001CN0112651N1+01201+00801999999ADDAG11000GA1031+006009089MA1102001999999REMMET005NOSIGEQDQ01+000000PRSWM2
0152039620999991993051009004+52700-008917SY-MT+0020EINN V0200301N00621012001CN0180001N1+01211+00781102021ADDAG11000GA1031+005409079GA2041+012009059GF106991061051004501999999MA1102001999999MD1810021+9999REMSYN016 333 83718 84640MET005NOSIGEQDQ01+000000PRSWM2
0090039620999991993051009304+52700-008917FM-15+0020EINN V0200401N00661012001CN0112651N1+01301+00901999999ADDAG11999GA1041+005709079GA2041+012009059MA1102001999999REMMET005NOSIGEQDQ01+000000PRSWM2
0118039620999991993051010004+52700-008917SY-MT+0020EINN V0200401N00671006001CN0200001N9+01361+00981102001ADDAG12999GA1051+006009059GA2031+012009059GF106991061051008001999999MD1810051+9999REMSYN016 333 85620 83640MET005NOSIG
0090039620999991993051010304+52700-008917FM-15+0020EINN V0200401N00611007201CN0112651N1+01501+01001999999ADDAG11999GA1051+007209059GA2031+015009059MA1101901999999REMMET005NOSIGEQDQ01+000000PRSWM2
0152039620999991993051011004+52700-008917SY-MT+0020EINN V0200501N00771007201CN0200001N1+01601+01061101951ADDAG11999GA1051+007209059GA2031+015009059GF106991061051008001999999MA1101901999999MD1710101+9999REMSYN016 333 85624 83650MET005NOSIGEQDQ01+000000PRSWM2
0074039620999991993051011304+52700-008917FM-15+0020EINN V0200501N00871007501CN0112651N1+01601+01001999999ADDAG11000GA1061+007509059MA1101901999999REMMET005NOSIGEQDQ01+000000PRSWM2
0144039620999991993051012004+52700-008917SY-MT+0020EINN V0200501N01081007501CN0120001N1+01621+00881101891ADDAA106000091AG11000AY111061AY211061GA1051+007509059GF105991051051008001001001MA1101801999999MD1710131+9999MW1051REMSYN010 333 85625MET005NOSIG
0061039620999991993051012304+52700-008917FM-15+0020EINN V0200601N00821007501CN0112651N1+01601+01001999999ADDAG11999GA1061+007509059MA1101901999999MW1051REMMET005NOSIG
0133039620999991993051013004+52700-008917SY-MT+0020EINN V0200601N00981007501CN0090001N1+01661+01071101891ADDAG11999AY121011AY221011GA1061+007509059GF106991061051008001999999MA1101801999999MD1610111+9999MW1051REMSYN010 333 86625MET005NOSIG
0061039620999991993051013304+52700-008917FM-15+0020EINN V0200501N00971008101CN0112651N1+01701+01001999999ADDAG11999GA1071+008109059MA1101901999999MW1051REMMET005NOSIG
0133039620999991993051014004+52700-008917SY-MT+0020EINN V0200601N00571008101CN0150001N1+01511+00971101941ADDAG11999AY121021AY221021GA1071+008109059GF107991071051008001999999MA1101901999999MD1510011+9999MW1051REMSYN010 333 87627MET005NOSIG
0061039620999991993051014304+52700-008917FM-15+0020EINN V0200501N00771008101CN0112651N1+01501+01001999999ADDAG11000GA1071+008109059MA1101901999999MW1051REMMET005NOSIG
0133039620999991993051015004+52700-008917SY-MT+0020EINN V0200501N00461008101CN0150001N1+01501+00901101891ADDAG11000AY121031AY221031GA1071+008109059GF107991071051008001999999MA1101801999999MD1010001+9999MW1051REMSYN010 333 87627MET005NOSIG
0061039620999991993051015304+52700-008917FM-15+0020EINN V0200501N00721008101CN0112651N1+01501+00901999999ADDAG11999GA1071+008109059MA1101801999999MW1051REMMET005NOSIG
0118039620999991993051016004+52700-008917SY-MT+0020EINN V0200501N00771007201CN0150001N9+01531+00891101831ADDAG12999AY121011AY221011GA1071+007209059GF107991071051008001999999MD1810061+9999MW1051REMSYN010 333 87624MET005NOSIG
0090039620999991993051016304+52700-008917FM-15+0020EINN V0200501N00721006601CN0112651N1+01501+00901999999ADDAG11999GA1061+006609059GA2081+036009049MA1101801999999REMMET005NOSIGEQDQ01+000000PRSWM2
0151039620999991993051017004+52700-008917FM-12+0020EINN V0200501N00671005401CN0180001N9+01371+00921101841ADDAG11999AY121021AY221021GA1051+005409079GA2041+006609059GA3081+027009049GF108991061061004501021999MD1610101+9999MW1051REMSYN022 333 85718 84622 88459
0090039620999991993051017304+52700-008917FM-15+0020EINN V0200601N00411005101CN0112651N1+01401+00901999999ADDAG11000GA1071+005109079GA2081+024009049MA1101801999999REMMET005NOSIGEQDQ01+000000PRSWM2
0182039620999991993051018004+52700-008917SY-MT+0020EINN V0200601N00571005101CN0200001N1+01351+00951101851ADDAA106000091AG11000GA1071+005109079GA2081+009009059GF108991081061004501999999KA1120M+01751MA1101801999999MD1610041+9999REMSYN022 333 10175 87717 88630MET005NOSIGEQDQ01+000000PRSWM2
0082039620999991993051018304+52700-008917FM-15+0020EINN V0200601N00611004801CN0112651N1+01301+01001999999ADDAG11999GA1081+004809079MA1101801999999OC101131REMMET005NOSIGEQDQ01+000000PRSWM2
