0290039620999992001010100004+52690-008910SY-MT+0020EINN V0201401N004012200019N0300001N1+00641+00481097561ADDAA106001091AY161061AY211061GA1031+060009019GF103991001001999999001011MA1097491097331MD1210121+9999MW1031REMSYN088AAXX  01001 03962 11980 31404 10064 20048 39733 49756 52012 60011 70361 80001 333 83070;MET045EINN 010000Z 14008KT CAVOK 06/05 Q0975 NOSIG;EQDQ01+000000PRSWM2Q02    003PRSWM1
0257039620999992001010101004+52690-008910SY-MT+0020EINN V0201501N006012200019N0250001N1+00741+00491097531ADDGA1021+030009019GA2031+060009019GF104991021001999999021011MA1097491097301MD1010031+9999MW1001REMSYN082AAXX  01011 03962 42975 41506 10074 20049 39730 49753 50003 82021 333 82460 83070;MET045EINN 010100Z 15012KT CAVOK 07/05 Q0975 NOSIG;EQDQ01+000000PRSWM2
0339039620999992001010102004+52690-008910SY-MT+0020EINN V0201401N006010099019N0250001N1+00721+00561097491ADDAY181999AY221999GA1021+006009099GA2071+009909999GA3071+015009999GF107991071031008001999999MA1097391097261MD1810041+9999MW1251REMSYN094AAXX  01021 03962 41575 71406 10072 20056 39726 49749 58004 72582 873// 333 81920 86633 86650;MET067EINN 010200Z 14011KT 9999 FEW020CB BKN033 BKN050 07/06 Q0974 NOSIG;EQDQ01+000000PRSWM2Q02    003PRSWM1
0312039620999992001010103004+52690-008910SY-MT+0020EINN V0201501N005010066019N0150001N1+00801+00651097461ADDAY181031AY211031GA1021+003009999GA2071+006609099GF107991071031004501999999MA1097391097231MD1710101+9999MW1801REMSYN088AAXX  01031 03962 41465 71505 10080 20065 39723 49746 57010 78081 873// 333 83710 86922;MET078EINN 010300Z 15009KT 9999 -SHRA SCT010 BKN022CB 08/07 Q0974 TEMPO 5000 BKN010;EQDQ01    003PRSWM1
0318039620999992001010104004+52690-008910SY-MT+0020EINN V0201501N006012200019N0250001N1+00771+00621097391ADDAY181999AY211999GA1021+006609099GF199999011031008001001001MA1097291097161MD1710141+9999MW1251REMSYN082AAXX  01041 03962 41575 11506 10077 20062 39716 49739 57014 72581 81300 333 81922;MET074EINN 010400Z 15012KT 9999 FEW022CB 08/06 Q0973 TEMPO 5000 BKN010 BKN020CB;EQDQ01+000012SCOTCVQ02+000000PRSWM2Q03    003PRSWM1
0331039620999992001010105004+52690-008910SY-MT+0020EINN V0201501N007012200019N0200001N1+00821+00651097341ADDAY181999AY211999GA1021+006609099GA2021+072009999GF104991031031008001021021MA1097291097111MD1710151+9999MW1251REMSYN088AAXX  01051 03962 41570 41507 10082 20065 39711 49734 57015 72581 83322 333 81922 84074;MET081EINN 010500Z 15013KT 9999 FEW022CB SCT240 08/07 Q0973 TEMPO 5000 BKN010 BKN020CB;EQDQ01+000000PRSWM2Q02    003PRSWM1
0405039620999992001010106004+52690-008910SY-MT+0020EINN V0201501N007010150019N0200001N1+00821+00671097321ADDAA112004191AY181061AY211061GA1021+006609099GA2071+015009999GF107991061031008001021021GJ100609IA1099IA2999+00109KA1120N+00611MA1097291097091MD1610141+9999MW1251REMSYN112AAXX  01061 03962 11570 71507 10082 20067 39709 49732 56014 60042 72581 86322 333 20061 31001 55010 83922 86650;MET081EINN 010600Z 15013KT 9999 SCT022CB BKN050 08/07 Q0973 TEMPO 5000 BKN010 BKN020CB;EQDQ01+000000PRSWM2Q02    003PRSWM1
0330039620999992001010107004+52690-008910SY-MT+0020EINN V0201401N006010150019N0200001N1+00811+00661097291ADDAY181999AY221999GA1021+006009099GA2041+015009059GF106991041031008001021021MA1999999097061MD1710101+9999MW1251REMSYN088AAXX  01071 03962 41570 61406 10081 20066 39706 49729 57010 72582 84322 333 82920 84650;MET080EINN 010700Z 14012KT 999 FEW020CB SCT050 08/07 Q0972 TEMPO 5000 BKN010 BKN020CB;EQDQ01+000000PRSWM2Q02    003PRSWM1
0293039620999992001010108004+52690-008910SY-MT+0020EINN V0201301N006010300019N0200001N1+00801+00671097231ADDGA1021+006009099GA2021+010509999GF106991031031008001031021MA1097191097001MD1710111+9999MW1001REMSYN082AAXX  01081 03962 42570 61306 10080 20067 39700 49723 57011 83332 333 82920 83635;MET081EINN 010800Z 14012KT 9999 FEW020CB SCT035 08/07 Q0972 TEMPO 5000 BKN010 BKN020CB;EQDQ01+000000PRSWM2
0321039620999992001010109004+52690-008910SY-MT+0020EINN V0201401N007010060019N0120001N1+00831+00701097231ADDAY181031AY221031GA1021+004509999GA2071+006009099GF107991051031004501071021MA1097191097001MD1610091+9999MW1801REMSYN088AAXX  01091 03962 41462 71407 10083 20070 39700 49723 56009 78082 85372 333 82715 85920;MET087EINN 010900Z 14013KT 9999 -SHRA FEW015 BKN020CB 08/07 Q0972 TEMPO 5000 BKN010 BKN020CB;EQDQ01    003PRSWM1
0376039620999992001010110004+52690-008910SY-MT+0020EINN V0201501N007010360019N0200001N1+00821+00671097191ADDAY181999AY221999GA1021+005409099GA2021+015009999GA3071+036009999GF199999031031004501031021MA1097091096961MD1810101+9999MW1251REMSYN094AAXX  01101 03962 41470 51507 10082 20067 39696 49719 58010 72582 83332 333 81918 83650 85362;MET088EINN 011000Z 15013KT 9999 FEW018CB SCT050 BKN120 08/07 Q0971 TEMPO 5000 BKN010 BKN020CB;EQDQ01+000052SCOTCVQ02+000000PRSWM2Q03    003PRSWM1
0350039620999992001010111004+52690-008910SY-MT+0020EINN V0201401N00701060001CN0200001N1+00811+00611097191ADDAY181999AY221999GA1021+005409099GA2021+015009999GA3071+060009999GF107991061031004501999021MA1097091096961MD1610041+9999MW1801REMSYN094AAXX  01111 03962 41470 71407 10081 20061 39696 49719 56004 78082 863/2 333 84918 84650 85070;MET094EINN 011100Z 14013KT 9999 -SHRA SCT018CB SCT050 BKN200 08/06 Q0971 TEMPO 5000 BKN010 BKN020CB;EQDQ01    003PRSWM1
0348039620999992001010112004+52690-008910SY-MT+0020EINN V0201401N007010054019N0150001N1+00931+00761097051ADDAA106000591AY181061AY221061GA1071+005409099GA2071+012009999GF107991071031004501999021MA1096991096821MD1810181+9999MW1251REMSYN094AAXX  01121 03962 11465 71407 10093 20076 39682 49705 58018 69951 72582 873/2 333 85918 85640;MET081EINN 011200Z 14013KT 9999 BKN018CB BKN040 09/08 Q0970 TEMPO 5000 BKN010 BKN020CB;EQDQ01+000000PRSWM2Q02    003PRSWM1
0306039620999992001010113004+52690-008910SY-MT+0020EINN V0201401N009010060019N0070001N1+00921+00821096901ADDAY181999AY221999GA1021+004509999GA2071+006009099GF107991071031004501999999MA1096881096671MD1810291+9999MW1801REMSYN094AAXX  01131 03962 41457 71409 10092 20082 39667 49690 58029 78082 873// 333 82715 86920 98665;MET066EINN 011300Z 14018KT 7000 -SHRA FEW015 BKN020CB 09/08 Q0969 NOSIG;EQDQ01    003PRSWM1
0300039620999992001010114004+52690-008910SY-MT+0020EINN V0201501N008010060019N0120001N1+00981+00811096811ADDAY181999AY221999GA1021+003609999GA2071+006009099GF107991071031004501999999MA1096821096581MD1710381+9999MW1801REMSYN088AAXX  01141 03962 41462 71508 10098 20081 39658 49681 57038 78082 873// 333 83712 86920;MET066EINN 011400Z 15016KT 9999 -SHRA SCT012 BKN020CB 10/08 Q0968 NOSIG;EQDQ01    003PRSWM1
0322039620999992001010115004+52690-008910SY-MT+0020EINN V0201601N010010060019N0200001N1+01031+00761096791ADDAY181031AY221031GA1021+003609999GA2071+006009099GA3021+060009999GF107991071031004501999999MA1096721096561MD1610261+9999MW1801REMSYN088AAXX  01151 03962 41470 71610 10103 20076 39656 49679 56026 78082 873// 333 82712 85920;MET072EINN 011500Z 16019KT 9999 -SHRA FEW012 BKN020CB SCT20010/08 Q0967 NOSIG;EQDQ01    003PRSWM1
0339039620999992001010116004+52690-008910SY-MT+0020EINN V0201601N010010600019N0200001N1+00981+00701096821ADDAY181999AY221999GA1021+003609999GA2021+006009099GA3071+060009999GF107991041031004501001021MA1096821096591MD1510081+9999MW1251REMSYN094AAXX  01161 03962 41470 71610 10098 20070 39659 49682 55008 72582 84302 333 81712 83920 85070;MET067EINN 011600Z 16019KT 9999 FEW012 SCT020CB BKN200 10/07 Q0968 NOSIG;EQDQ01+000000PRSWM2Q02    003PRSWM1
0301039620999992001010117004+52690-008910SY-MT+0020EINN V0201601N006010720019N0200001N1+00881+00641096891ADDGA1021+006009099GA2021+013509999GA3071+072009999GF107991041031008001001021MA1096821096661MD1310081+9999MW1001REMSYN088AAXX  01171 03962 42570 71606 10088 20064 39666 49689 53008 84302 333 82920 83645 85074;MET067EINN 011700Z 16012KT 9999 FEW020CB SCT045 BKN240 09/06 Q0968 NOSIG;EQDQ01+000000PRSWM2
0251039620999992001010118004+52690-008910FM-12+0020EINN V0201601N00601013501CN0200001N1+00821+00621096941ADDAA112003091AY181061AY221061GA1021+006009099GA2031+013509069GF107991041031008001001021KA1120M+01041MA1999999096711MD1210151+9999MW1021REMSYN106AAXX  01181 03962 11570 71606 10082 20062 39671 49694 52015 60032 70282 84302 333 10104 82920 83645 85074;
0193039620999992001010118304+52690-008910FM-15+0020EINN V0201601N004610720019N0112651N1+00801+00701999999ADDGA1021+006009099GA2021+013509999GA3071+072009999GF107991999999999999999999MA1096881999999MW1001REMMET067EINN 011830Z 16009KT 9999 FEW020CB SCT045 BKN240 08/07 Q0969 NOSIG;EQDQ01+000000PRSWM2
0339039620999992001010119004+52690-008910SY-MT+0020EINN V0201401N00501072001CN0200001N1+00801+00671096991ADDAY181999AY221999GA1021+006009099GA2021+013509999GA3071+072009999GF107991051031008001001021MA1096881096761MD1210171+9999MW1251REMSYN094AAXX  01191 03962 41570 71405 10080 20067 39676 49699 52017 72582 85302 333 83920 83650 85074;MET067EINN 011900Z 14009KT 9999 FEW020CB SCT045 BKN240 08/07 Q0969 NOSIG;EQDQ01+000000PRSWM2Q02    003PRSWM1
0339039620999992001010120004+52690-008910SY-MT+0020EINN V0201601N005010300019N0200001N1+00831+00611096981ADDAY181999AY221999GA1021+006009099GA2021+015009999GA3071+030009999GF107991041031008001031021MA1096881096751MD1110091+9999MW1251REMSYN094AAXX  01201 03962 41570 71605 10083 20061 39675 49698 51009 72582 84332 333 82920 83650 85360;MET067EINN 012000Z 16009KT 9999 FEW020CB SCT050 BKN100 08/06 Q0969 NOSIG;EQDQ01+000000PRSWM2Q02    003PRSWM1
0337039620999992001010121004+52690-008910SY-MT+0020EINN V0201401N00201030001CN0200001N1+00761+00611097031ADDAY181031AY221031GA1021+006009999GA2071+030009999GA3021+090009999GF107991051081008001031999MA1096991096801MD1310091+9999MW1021REMSYN094AAXX  01211 03962 41570 71402 10076 20061 39680 49703 53009 70282 8583/ 333 82820 84635 85360;MET065EINN 012100Z 14004KT 9999 FEW020 SCT305 BKN100 08/06 Q0970 NOSIG;EQDQ01+000000PRSWM2Q02    003PRSWM1
0270039620999992001010122004+52690-008910SY-MT+0020EINN V0201501N00401030001CN0200001N1+00711+00601097051ADDGA1021+010509999GA2021+027009999GF107991031051012501031021MA1096991096821MD1210061+9999MW1001REMSYN082AAXX  01221 03962 42670 71504 10071 20060 39682 49705 52006 83532 333 83635 84359;MET058EINN 012200Z 15007KT 9999 SCT035 SCT090 07/06 Q0970 NOSIG;EQDQ01+000000PRSWM2
0270039620999992001010123004+52690-008910SY-MT+0020EINN V0201401N002010120019N0200001N1+00681+00571097101ADDGA1071+012009999GA2071+027009999GF108991061051012501071999MA1097091096871MD1210121+9999MW1001REMSYN082AAXX  01231 03962 42670 81402 10068 20057 39687 49710 52012 8657/ 333 86640 87459;MET058EINN 012300Z 14004KT 9999 BKN040 BKN090 07/06 Q0971 NOSIG;EQDQ01+000000PRSWM2
0325039620999992001010200004+52690-008910SY-MT+0020EINN V0201101N003010120019N0150001N1+00691+00601097141ADDAA106000191AY181061AY261061GA1071+012009999GA2071+018009999GF108991081051012501999999MA1097091096911MD1210111+9999MW1211REMSYN094AAXX  02001 03962 11665 81103 10069 20060 39691 49714 52011 69921 72186 885// 333 86640 87656;MET058EINN 020000Z 11005KT 9999 BKN040 BKN060 07/06 Q0971 NOSIG;EQDQ01+000000PRSWM2Q02    003PRSWM1
0302039620999992001010201004+52690-008910SY-MT+0020EINN V0201201N003010120019N0150001N1+00671+00601097151ADDAY161999AY221999GA1021+010509999GA2081+012009999GF108991081051012501999999MA1097091096921MD1110101+9999MW1601MW2611REMSYN088AAXX  02011 03962 41665 81203 10067 20060 39692 49715 51010 76062 885// 333 83635 88640;MET062EINN 020100Z 12005KT 9999 -RA SCT035 OVC040 07/06 Q0971 NOSIG;EQDQ01    003PRSWM1
0337039620999992001010202004+52690-008910SY-MT+0020EINN V0201201N002010240019N0200001N1+00651+00611097161ADDAY161999AY221999GA1021+009009999GA2021+015009999GA3081+024009999GF108991031051012501071999MA1097091096931MD1110061+9999MW1211REMSYN094AAXX  02021 03962 41670 81202 10065 20061 39693 49716 51006 72162 8357/ 333 82630 83650 88458;MET065EINN 020200Z 12004KT 9999 FEW030 SCT050 OVC080 07/06 Q0971 NOSIG;EQDQ01+000000PRSWM2Q02    003PRSWM1
0337039620999992001010203004+52690-008910SY-MT+0020EINN V0201101N001010150019N0200001N1+00611+00541097211ADDAY161031AY221031GA1021+007509999GA2071+015009999GA3081+027009999GF108991051051008001071999MA1097191096981MD1310071+9999MW1021REMSYN094AAXX  02031 03962 41570 81101 10061 20054 39698 49721 53007 70262 8557/ 333 83625 85650 88459;MET065EINN 020300Z 11002KT 9999 SCT025 BKN050 OVC090 06/05 Q0972 NOSIG;EQDQ01+000000PRSWM2Q02    003PRSWM1
0315039620999992001010204004+52690-008910SY-MT+0020EINN V0201101N00101015001CN0200001N1+00601+00531097251ADDGA1021+007509999GA2021+012009999GA3071+015009999GF199999051051008001001001MA1097191097021MD1210101+9999MW1001REMSYN088AAXX  02041 03962 42570 51101 10060 20053 39702 49725 52010 85500 333 82625 83640 85650;MET065EINN 020400Z 11002KT 9999 FEW025 SCT040 BKN050 06/05 Q0972 NOSIG;EQDQ01+000052SCOTCVQ02+000000PRSWM2
0322039620999992001010205004+52690-008910SY-MT+0020EINN V0202801N001010030019N0050001N1+00561+00491097291ADDAY181999AY221999GA1021+002109999GA2071+003009999GF108991081061002501999999MA1097191097061MD1210131+9999MW1801REMSYN100AAXX  02051 03962 41350 82801 10056 20049 39706 49729 52013 78082 886// 333 83707 87710 98170 98370;MET076EINN 020500Z 28001KT 5000 -SHRA SCT007 BKN010 06/05 Q0972 TEMPO 3000 BKN005;EQDQ01    003PRSWM1
0386039620999992001010206004+52690-008910SY-MT+0020EINN V0202701N001010075019N0150001N1+00601+00551097391ADDAA112007991AY181061AY221061GA1021+002109999GA2071+007509099GF108991081031002501999999GJ100189IA1099IA2999+00209KA1120N+00561MA1097291097161MD1210181+9999MW1801REMSYN112AAXX  02061 03962 11365 82701 10060 20055 39716 49739 52018 60082 78082 883// 333 20056 31002 55003 83707 85925;MET078EINN 020600Z 27001KT 9999 -SHRA SCT007 BKN025CB 06/06 Q0973 TEMPO 3000 BKN008;EQDQ01    003PRSWM1
0360039620999992001010207004+52690-008910SY-MT+0020EINN V0202901N002010120019N0150001N1+00661+00621097481ADDAY181999AY221999GA1021+002109999GA2021+006009099GA3071+012009999GF107991071031002501999999MA1097391097251MD1210231+9999MW1251REMSYN094AAXX  02071 03962 41365 72902 10066 20062 39725 49748 52023 72582 873// 333 82707 81920 86640;MET088EINN 020700Z 29003KT 9999 FEW007 FEW020CB BKN040 07/06 Q0974 TEMPO 5000 SCT010 BKN018CB;EQDQ01+000000PRSWM2Q02    003PRSWM1
0322039620999992001010208004+52690-008910SY-MT+0020EINN V0203001N002010105019N0200001N1+00691+00651097591ADDGA1021+002109999GA2021+006009099GA3071+010509999GF108991081031002501999999MA1097491097361MD1210301+9999MW1001REMSYN088AAXX  02081 03962 42370 83002 10069 20065 39736 49759 52030 883// 333 81707 81920 87635;MET088EINN 020800Z 30004KT 9999 FEW007 FEW020CB BKN035 07/07 Q0975 TEMPO 5000 SCT010 BKN018CB;EQDQ01+000000PRSWM2
0337039620999992001010209004+52690-008910SY-MT+0020EINN V0203001N005010030019N0180001N1+00761+00631097731ADDAY181031AY221031GA1071+003009999GA2071+010509999GA3071+024009999GF108991071061004501021999MA1097701097501MD1210341+9999MW1021REMSYN094AAXX  02091 03962 41468 83005 10076 20063 39750 49773 52034 70282 8762/ 333 86710 85635 86458;MET065EINN 020900Z 30010KT 9999 BKN010 BKN035 BKN080 08/06 Q0977 NOSIG;EQDQ01+000000PRSWM2Q02    003PRSWM1
0331039620999992001010210004+52690-008910SY-MT+0020EINN V0203001N007010060019N0150001N1+00761+00581097901ADDAY151999AY221999GA1021+003309999GA2071+006009999GA3071+015009999GF107991071061004501999999MA1097901097671MD1210421+9999MW1501MW2511REMSYN094AAXX  02101 03962 41465 73007 10076 20058 39767 49790 52042 75052 876// 333 82711 85620 86650;MET069EINN 021000Z 30014KT 9999 -DZ FEW011 BKN020 BKN050 08/06 Q0979 NOSIG;EQDQ01    003PRSWM1
0337039620999992001010211004+52690-008910SY-MT+0020EINN V0203001N00701027001CN0200001N1+00781+00511098081ADDAY151999AY221999GA1021+003609999GA2021+009009999GA3071+027009999GF107991051081004501071999MA1098001097851MD1210491+9999MW1201REMSYN094AAXX  02111 03962 41470 73007 10078 20051 39785 49808 52049 72052 8587/ 333 81712 84630 86359;MET065EINN 021100Z 30014KT 9999 FEW012 SCT030 BKN090 08/05 Q0980 NOSIG;EQDQ01+000000PRSWM2Q02    003PRSWM1
0354039620999992001010212004+52690-008910SY-MT+0020EINN V0203001N00701027001CN0200001N1+00751+00481098221ADDAA106000191AY181061AY251061GA1021+004509999GA2021+012009999GA3071+027009999GF107991061081004501031999MA1098211097991MD1210491+9999MW1021REMSYN100AAXX  02121 03962 11470 73007 10075 20048 39799 49822 52049 69911 70285 8683/ 333 82715 83640 85359;MET065EINN 021200Z 30014KT 9999 FEW015 SCT040 BKN090 08/05 Q0982 NOSIG;EQDQ01+000000PRSWM2Q02    003PRSWM1
0315039620999992001010213004+52690-008910SY-MT+0020EINN V0203001N008010270019N0200001N1+00781+00441098281ADDGA1021+004509999GA2021+009009999GA3071+027009999GF199999051081004501031999MA1098211098051MD1110381+9999MW1001REMSYN088AAXX  02131 03962 42470 63008 10078 20044 39805 49828 51038 8583/ 333 81715 83630 85359;MET065EINN 021300Z 30015KT 9999 FEW015 SCT030 BKN090 08/04 Q0982 NOSIG;EQDQ01+000062SCOTCVQ02+000000PRSWM2
0298039620999992001010214004+52690-008910SY-MT+0020EINN V0202801N006010300019N0200001N1+00761+00361098401ADDAY181999AY221999GA1021+006009999GA2021+012009999GF105991041081008001031021MA1098411098171MD1210321+9999MW1801REMSYN088AAXX  02141 03962 41570 52806 10076 20036 39817 49840 52032 78082 84832 333 82820 83640;MET064EINN 021400Z 28012KT 9999 -SHRA FEW020 SCT040 08/04 Q0984 NOSIG;EQDQ01    003PRSWM1
0322039620999992001010215004+52690-008910SY-MT+0020EINN V0202901N007012200019N0200001N1+00691+00231098531ADDAY181031AY211031GA1021+004809999GA2021+006009099GF103991031031004501001001MA1098511098301MD1210311+9999MW1251REMSYN100AAXX  02151 03962 41470 32907 10069 20023 39830 49853 52031 72581 83300 333 81716 83920 90710 91119;MET060EINN 021500Z 29014KT 9999 FEW016 SCT020CB 07/02 Q0985 NOSIG;EQDQ01+000000PRSWM2Q02    003PRSWM1
0319039620999992001010216004+52690-008910SY-MT+0020EINN V0203001N010010060019N0200001N1+00631+00211098701ADDAY181999AY221999GA1021+003609999GA2071+006009099GF107991071031004501999999MA1098711098471MD1210421+9999MW1801OC101591REMSYN088AAXX  02161 03962 41470 73010 10063 20021 39847 49870 52042 78082 873// 333 83712 85920;MET077EINN 021600Z 30020G31KT 260V340 9999 -SHRA SCT012 BKN020CB 06/02 Q0987 NOSIG;EQDQ01    003PRSWM1
0281039620999992001010217004+52690-008910SY-MT+0020EINN V0202901N005012200019N0200001N1+00511+00161098801ADDAY181999AY211999GA1021+006009099GF102991021031008001001001MA1098821098561MD1210391+9999MW1251REMSYN082AAXX  02171 03962 41570 22905 10051 20016 39856 49880 52039 72581 82300 333 82920;MET053EINN 021700Z 29010KT 9999 FEW020CB 05/02 Q0988 NOSIG;EQDQ01+000000PRSWM2Q02    003PRSWM1
0315039620999992001010218004+52690-008910SY-MT+0020EINN V0202801N005012200019N0200001N1+00471+00141098911ADDAA112000191AY181061AY211061GA1021+006009099GF103991031031008001001001KA1120M+00821MA1098921098671MD1210371+9999MW1801REMSYN094AAXX  02181 03962 11570 32805 10047 20014 39867 49891 52037 69912 78081 83300 333 10082 82920;MET067EINN 021800Z 28010KT 240V300 9999 -SHRA FEW020CB 05/01 Q0989 NOSIG;EQDQ01    003PRSWM1
0281039620999992001010219004+52690-008910SY-MT+0020EINN V0202501N005012200019N0200001N1+00481+00091099001ADDAY181999AY201999GA1021+006009099GF102991011031008001031001MA1098921098761MD1210291+9999MW1251REMSYN082AAXX  02191 03962 41570 22505 10048 20009 39876 49900 52029 72580 81330 333 81920;MET053EINN 021900Z 25010KT 9999 FEW020CB 05/01 Q0989 NOSIG;EQDQ01+000000PRSWM2Q02    003PRSWM1
0270039620999992001010220004+52690-008910SY-MT+0020EINN V0202801N003010102019N0200001N1+00431+00151099111ADDGA1071+010209999GA2021+015009999GF107991071051012501999999MA1099091098871MD1210311+9999MW1001REMSYN082AAXX  02201 03962 42670 72803 10043 20015 39887 49911 52031 875// 333 85634 83650;MET058EINN 022000Z 28006KT 9999 BKN034 SCT050 04/02 Q0991 NOSIG;EQDQ01+000000PRSWM2
0279039620999992001010221004+52690-008910SY-MT+0020EINN V0202501N006012200019N0200001N1+00441+00051099151ADDAY181031AY211031GA1021+006009999GF102991021081008001001001MA1099091098911MD1110241+9999MW1251REMSYN082AAXX  02211 03962 41570 22506 10044 20005 39891 49915 51024 72581 82800 333 81820;MET051EINN 022100Z 25012KT 9999 FEW020 04/01 Q0991 NOSIG;EQDQ01+000000PRSWM2Q02    003PRSWM1
0281039620999992001010222004+52690-008910SY-MT+0020EINN V0202601N004012200019N0250001N1+00351+00091099241ADDAY181999AY211999GA1021+006009099GF102991021031008001001001MA1099191099001MD1210241+9999MW1251REMSYN082AAXX  02221 03962 41575 22604 10035 20009 39900 49924 52024 72581 82300 333 81920;MET053EINN 022200Z 26008KT 9999 FEW020CB 04/01 Q0992 NOSIG;EQDQ01+000000PRSWM2Q02    003PRSWM1
0300039620999992001010223004+52690-008910SY-MT+0020EINN V0202301N004010060019N0200001N1+00331+00121099271ADDAY181999AY211999GA1021+004509999GA2071+006009099GF107991071031004501999999MA1099191099031MD1110161+9999MW1801REMSYN088AAXX  02231 03962 41470 72304 10033 20012 39903 49927 51016 78081 873// 333 82715 85920;MET066EINN 022300Z 23008KT 9999 -SHRA FEW015 BKN020CB 03/01 Q0992 NOSIG;EQDQ01    003PRSWM1
0336039620999992001010300004+52690-008910SY-MT+0020EINN V0202301N008010060019N0050001N1+00421+00191099321ADDAA106001091AY181061AY211061GA1021+004509999GA2071+006009099GF108991081031004501999999MA1099291099081MD1210171+9999MW1801OC101491REMSYN094AAXX  03001 03962 11450 82308 10042 20019 39908 49932 52017 60011 78081 883// 333 82715 85920;MET077EINN 030000Z 23015G29KT 200V260 5000 -SHRA FEW015 BKN020CB 04/02 Q0993 NOSIG;EQDQ01    003PRSWM1
0281039620999992001010301004+52690-008910SY-MT+0020EINN V0201801N005012200019N0200001N1+00291+00051099301ADDAY181999AY211999GA1021+006009099GF102991021031008001001001MA1099191099061MD1110061+9999MW1251REMSYN082AAXX  03011 03962 41570 21805 10029 20005 39906 49930 51006 72581 82300 333 81820;MET053EINN 030100Z 18010KT 9999 FEW020CB 03/01 Q0992 NOSIG;EQDQ01+000000PRSWM2Q02    003PRSWM1
0310039620999992001010302004+52690-008910SY-MT+0020EINN V0201901N00501007501CN0200001N1+00331+00121099301ADDAY181999AY211999GA1021+006009099GA2021+015009999GF105991051031008001001001MA1099191099061MD1010031+9999MW1251REMSYN088AAXX  03021 03962 41570 51905 10033 20012 39906 49930 50003 72581 85300 333 83920 83650;MET060EINN 030200Z 19009KT 9999 SCT020CB SCT050 03/01 Q0992 NOSIG;EQDQ01+000000PRSWM2Q02    003PRSWM1
0281039620999992001010303004+52690-008910SY-MT+0020EINN V0202101N006012200019N0200001N1+00331+00091099301ADDAY181031AY211031GA1021+006009099GF103991031031008001001001MA1099191099061MD1510021+9999MW1251REMSYN082AAXX  03031 03962 41570 32106 10033 20009 39906 49930 55002 72581 83300 333 82920;MET053EINN 030300Z 21012KT 9999 FEW020CB 03/01 Q0992 NOSIG;EQDQ01+000000PRSWM2Q02    003PRSWM1
0281039620999992001010304004+52690-008910SY-MT+0020EINN V0202001N005012200019N0200001N1+00301+00061099231ADDAY181999AY201999GA1021+006009099GF103991031031008001001001MA1099191099001MD1810061+9999MW1251REMSYN082AAXX  03041 03962 41570 32005 10030 20006 39900 49923 58006 72580 83300 333 82920;MET053EINN 030400Z 20010KT 9999 FEW020CB 03/01 Q0992 NOSIG;EQDQ01+000000PRSWM2Q02    003PRSWM1
0243039620999992001010305004+52690-008910SY-MT+0020EINN V0201801N007012200019N0250001N1+00261+00051099171ADDGA1021+006009099GF102991021031008001001001MA1099091098931MD1810131+9999MW1001REMSYN076AAXX  03051 03962 42575 21807 10026 20005 39893 49917 58013 82300 333 81920;MET053EINN 030500Z 18013KT 9999 FEW020CB 03/01 Q0991 NOSIG;EQDQ01+000000PRSWM2
0384039620999992001010306004+52690-008910SY-MT+0020EINN V0202001N00701007501CN0250001N1+00411+00181099121ADDAA112002091AY181061AY211061GA1021+006009099GA2021+021009999GF105991051031008001001001GJ100549IA1099IA2999+00009KA1120N+00261MA1099091098881MD1710181+9999MW1031REMSYN112AAXX  03061 03962 11575 52007 10041 20018 39888 49912 57018 60022 70381 85300 333 20026 31000 55009 83920 83657;MET060EINN 030600Z 20013KT 9999 SCT020CB SCT070 04/02 Q0991 NOSIG;EQDQ01+000000PRSWM2Q02    003PRSWM1
0299039620999992001010307004+52690-008910SY-MT+0020EINN V0201601N00501054001CN0250001N1+00281+00121099081ADDGA1021+006609999GA2021+015009999GA3071+054009999GF107991031081008001001021MA1098981098841MD1710161+9999MW1001REMSYN088AAXX  03071 03962 42575 71605 10028 20012 39884 49908 57016 83802 333 81822 83650 86078;MET065EINN 030700Z 16009KT 9999 FEW022 SCT050 BKN180 03/01 Q0990 NOSIG;EQDQ01+000000PRSWM2
0191039620999992001010308004+52690-008910FM-15+0020EINN V0201801N004610150019N0112651N1+00401+00201999999ADDGA1021+009009999GA2071+015009999GA3071+045009999GF107991999999999999999999MA1098981999999MW1001REMMET065EINN 030800Z 18009KT 9999 FEW030 BKN050 BKN150 04/02 Q0990 NOSIG;EQDQ01+000000PRSWM2
0347039620999992001010309004+52690-008910SY-MT+0020EINN V0201701N00601042001CN0400001N1+00411+00261099011ADDAY161031AY221031GA1021+007809999GA2021+027009999GA3071+042009999GF199999031051008001071999MA1098981098771MD1710111+9999MW1601MW2611REMSYN094AAXX  03091 03962 41582 61706 10041 20026 39877 49901 57011 76062 8357/ 333 83626 83359 85364;MET069EINN 030900Z 17011KT 9999 -RA SCT026 SCT090 BKN140 04/03 Q0990 NOSIG;EQDQ01+000062SCOTCVQ02    003PRSWM1
0308039620999992001010310004+52690-008910SY-MT+0020EINN V0201701N005010180019N0300001N1+00481+00311098981ADDAY161999AY221999GA1021+010509999GA2071+018009999GF107991071051012501999999MA1098921098741MD1710101+9999MW1211REMSYN088AAXX  03101 03962 41680 71705 10048 20031 39874 49898 57010 72162 875// 333 83635 86656;MET058EINN 031000Z 17010KT 9999 SCT035 BKN060 05/03 Q0989 NOSIG;EQDQ01+000000PRSWM2Q02    003PRSWM1
0302039620999992001010311004+52690-008910SY-MT+0020EINN V0201801N004010087019N0200001N1+00521+00401098951ADDAY161999AY251999GA1071+008709999GA2071+015009999GF107991071051008001999999MA1098921098711MD1710081+9999MW1601MW2611REMSYN088AAXX  03111 03962 41570 71804 10052 20040 39871 49895 57008 76065 875// 333 85629 87650;MET062EINN 031100Z 18008KT 9999 -RA BKN029 BKN050 05/04 Q0989 NOSIG;EQDQ01    003PRSWM1
0325039620999992001010312004+52690-008910SY-MT+0020EINN V0201301N00301007501CN0200001N1+00561+00491098851ADDAA106000891AY161061AY251061GA1021+007509999GA2021+010209999GF107991071051008001999999MA1098821098611MD1810161+9999MW1211REMSYN094AAXX  03121 03962 11570 71303 10056 20049 39861 49885 58016 69971 72165 875// 333 83625 84634;MET058EINN 031200Z 13006KT 9999 SCT025 SCT034 06/05 Q0988 NOSIG;EQDQ01+000000PRSWM2Q02    003PRSWM1
0337039620999992001010313004+52690-008910SY-MT+0020EINN V0201101N00301021001CN0250001N1+00611+00541098721ADDAY161999AY221999GA1021+003909999GA2021+006609999GA3071+021009999GF107991061061004501071999MA1098711098491MD1810251+9999MW1211REMSYN094AAXX  03131 03962 41475 71103 10061 20054 39849 49872 58025 72162 8667/ 333 84713 84622 87457;MET065EINN 031300Z 11006KT 9999 SCT013 SCT022 BKN070 06/05 Q0987 NOSIG;EQDQ01+000000PRSWM2Q02    003PRSWM1
0299039620999992001010314004+52690-008910SY-MT+0020EINN V0201101N004010210019N0200001N1+00631+00591098551ADDGA1021+003309999GA2021+006009999GA3071+021009999GF107991041051004501071999MA1098511098321MD1710391+9999MW1001REMSYN088AAXX  03141 03962 42470 71104 10063 20059 39832 49855 57039 8457/ 333 82711 83620 87457;MET065EINN 031400Z 11008KT 9999 FEW011 SCT020 BKN070 06/06 Q0985 NOSIG;EQDQ01+000000PRSWM2
0337039620999992001010315004+52690-008910SY-MT+0020EINN V0201201N004010210019N0200001N1+00721+00651098461ADDAY161031AY221031GA1021+003009999GA2021+006009999GA3071+021009999GF108991041051004501071999MA1098411098231MD1710381+9999MW1031REMSYN094AAXX  03151 03962 41470 81204 10072 20065 39823 49846 57038 70362 8457/ 333 82710 84620 87457;MET065EINN 031500Z 12007KT 9999 FEW010 SCT020 BKN070 07/07 Q0984 NOSIG;EQDQ01+000000PRSWM2Q02    003PRSWM1
0337039620999992001010316004+52690-008910SY-MT+0020EINN V0201301N003010045019N0200001N1+00771+00681098361ADDAY161999AY221999GA1021+003009999GA2071+004509999GA3071+006609999GF108991081061004501999999MA1098311098131MD1710361+9999MW1211REMSYN094AAXX  03161 03962 41470 81303 10077 20068 39813 49836 57036 72162 886// 333 82710 85715 87622;MET065EINN 031600Z 13006KT 9999 FEW010 BKN015 BKN022 08/07 Q0983 NOSIG;EQDQ01+000000PRSWM2Q02    003PRSWM1
0331039620999992001010317004+52690-008910SY-MT+0020EINN V0201301N003010075019N0200001N1+00781+00721098291ADDAY161999AY221999GA1021+003009999GA2071+007509999GA3071+015009999GF108991081051004501999999MA1098211098061MD1610261+9999MW1601MW2611REMSYN094AAXX  03171 03962 41470 81303 10078 20072 39806 49829 56026 76062 885// 333 83710 85625 87650;MET069EINN 031700Z 13006KT 9999 -RA SCT010 BKN025 BKN050 08/07 Q0982 NOSIG;EQDQ01    003PRSWM1
0361039620999992001010318004+52690-008910SY-MT+0020EINN V0201401N00201012001CN0200001N1+00731+00661098251ADDAA112002091AY161061AY221061GA1021+003609999GA2021+007209999GA3071+012009999GF108991081051004501999999KA1120M+00791MA1098211098021MD1610211+9999MW1611REMSYN106AAXX  03181 03962 11470 81402 10073 20066 39802 49825 56021 60022 76162 885// 333 10079 82712 84624 87640;MET069EINN 031800Z 14004KT 9999 -RA FEW012 SCT024 BKN040 07/07 Q0982 NOSIG;EQDQ01    003PRSWM1
0331039620999992001010319004+52690-008910SY-MT+0020EINN V0201401N00201012601CN0200001N1+00701+00631098201ADDAY161999AY221999GA1021+004809999GA2021+009009999GA3071+012609999GF108991081051004501999999MA1098211097971MD1710161+9999MW1601MW2611REMSYN094AAXX  03191 03962 41470 81402 10070 20063 39797 49820 57016 76062 885// 333 81716 84630 87642;MET069EINN 031900Z 14004KT 9999 -RA FEW016 SCT030 BKN042 07/06 Q0982 NOSIG;EQDQ01    003PRSWM1
0215039620999992001010320004+52690-008910FM-12+0020EINN V0201901N001010084019N0080001N1+00711+00621098191ADDAY161999AY251999GA1011+005409079GA2051+008409069GF108991081051004501999999MA1999999097961MD1710101+9999MW1581REMSYN094AAXX  03201 03962 41458 81901 10071 20062 39796 49819 57010 75865 885// 333 81718 85628 87636;
0219039620999992001010320304+52690-008910FM-15+0020EINN V0202001N001510072019N0070001N1+00701+00601999999ADDGA1021+005109999GA2071+007209999GA3071+009009999GF107991999999999999999999MA1098211999999MW1511MW2611REMMET071EINN 032030Z 20003KT 7000 -RADZ SCT017 BKN024 BKN030 07/06 Q0982 NOSIG;EQDQ01+000003PRSWM1Q02    003PRSWM1
0333039620999992001010321004+52690-008910SY-MT+0020EINN V0202201N00201006601CN0080001N1+00701+00631098201ADDAY161031AY251031GA1021+004809999GA2071+006609999GA3071+011409999GF108991081051004501999999MA1098211097971MD1510051+9999MW1581MW2611REMSYN094AAXX  03211 03962 41458 82202 10070 20063 39797 49820 55005 75865 885// 333 83716 85620 87638;MET071EINN 032100Z 22004KT 8000 -RADZ SCT016 BKN022 BKN038 07/06 Q0982 NOSIG;EQDQ01    003PRSWM1
0330039620999992001010322004+52690-008910SY-MT+0020EINN V0202401N003010027019N0180001N1+00671+00601098201ADDAY161999AY251999GA1021+002109999GA2071+002709999GA3071+007509999GF108991081061002501999999MA1098211097971MD1510001+9999MW1501MW2511REMSYN094AAXX  03221 03962 41368 82403 10067 20060 39797 49820 55000 75065 886// 333 82707 86709 87625;MET068EINN 032200Z 24006KT 9999-DZ FEW007 BKN009 BKN025 07/06 Q0982 NOSIG;EQDQ01    003PRSWM1
0337039620999992001010323004+52690-008910SY-MT+0020EINN V0202901N001010042019N0120001N1+00681+00611098241ADDAY161999AY251999GA1021+001809999GA2071+004209999GA3071+009009999GF108991081061002501999999MA1098211098011MD1210051+9999MW1211REMSYN094AAXX  03231 03962 41362 82901 10068 20061 39801 49824 52005 72165 886// 333 81706 85714 87630;MET065EINN 032300Z 29002KT 9999 FEW006 BKN014 BKN030 07/06 Q0982 NOSIG;EQDQ01+000000PRSWM2Q02    003PRSWM1
0348039620999992001010400004+52690-008910SY-MT+0020EINN V0203001N003010048019N0160001N1+00661+00591098301ADDAA106002091AY161061AY251061GA1021+003309999GA2071+004809999GA3071+009609999GF108991081061004501999999MA1098311098071MD1310101+9999MW1501MW2511REMSYN100AAXX  04001 03962 11466 83003 10066 20059 39807 49830 53010 60021 75065 886// 333 81711 85716 87632;MET069EINN 040000Z 30006KT 9999 -DZ FEW011 BKN016 BKN032 07/06 Q0983 NOSIG;EQDQ01    003PRSWM1
0331039620999992001010401004+52690-008910SY-MT+0020EINN V0202901N003010090019N0120001N1+00591+00541098371ADDAY151999AY221999GA1021+002409999GA2021+004809999GA3071+009009999GF107991071061002501999999MA1098311098141MD1210171+9999MW1501MW2511REMSYN094AAXX  04011 03962 41362 72903 10059 20054 39814 49837 52017 75052 876// 333 81708 83716 87630;MET069EINN 040100Z 29005KT 9999 -DZ FEW008 SCT016 BKN030 06/05 Q0983 NOSIG;EQDQ01    003PRSWM1
0308039620999992001010402004+52690-008910SY-MT+0020EINN V0202901N002010084019N0150001N1+00531+00481098381ADDAY151999AY221999GA1021+004809999GA2071+008409999GF107991071051004501999999MA1098311098151MD1110141+9999MW1201REMSYN088AAXX  04021 03962 41465 72902 10053 20048 39815 49838 51014 72052 875// 333 83716 87628;MET058EINN 040200Z 29004KT 9999 SCT016 BKN028 05/05 Q0983 NOSIG;EQDQ01+000000PRSWM2Q02    003PRSWM1
0308039620999992001010403004+52690-008910SY-MT+0020EINN V0202301N002010090019N0140001N1+00551+00501098421ADDAY151031AY221031GA1021+004809999GA2071+009009999GF107991071051004501999999MA1098411098191MD1310121+9999MW1101REMSYN088AAXX  04031 03962 41464 72302 10055 20050 39819 49842 53012 71052 875// 333 81716 87630;MET058EINN 040300Z 23004KT 9999 FEW016 BKN030 06/05 Q0984 NOSIG;EQDQ01+000000PRSWM2Q02    003PRSWM1
0241039620999992001010404004+52690-008910SY-MT+0020EINN V0202501N001010090019N0200001N1+00531+00481098421ADDGA1071+009009999GF107991071051012501999999MA1098411098181MD1010041+9999MW1001REMSYN076AAXX  04041 03962 42670 72501 10053 20048 39818 49842 50004 875// 333 87630;MET051EINN 040400Z 25001KT 9999 BKN030 05/05 Q0984 NOSIG;EQDQ01+000000PRSWM2
0241039620999992001010405004+52690-008910SY-MT+0020EINN V0202501N001010090019N0250001N1+00531+00481098451ADDGA1071+009009999GF107991071051012501999999MA1098411098221MD1310071+9999MW1001REMSYN076AAXX  04051 03962 42675 72501 10053 20048 39822 49845 53007 875// 333 87630;MET051EINN 040500Z 25001KT 9999 BKN030 05/05 Q0984 NOSIG;EQDQ01+000000PRSWM2
0295039620999992001010406004+52690-008910SY-MT+0020EINN V0202201N001010078019N0250001N1+00501+00501999999ADDGA1081+007809999GF108991999999008001999999GJ100009IA1099IA2999+00209KA1120N+00521MA1098511999999MW1001REMSYN105AAXX  04061 03962 11575 82201 10053 2006 39828 49851 53009 60022 70352 885// 333 20052 31002 55000 88626;MET051EINN 040600Z 22002KT 9999 OVC026 05/05 Q0985 NOSIG;EQDQ01+000000PRSWM2
0331039620999992001010407004+52690-008910SY-MT+0020EINN V0202301N001010075019N0150001N1+00521+00431098591ADDAY151999AY221999GA1021+002709999GA2071+007509999GA3081+009009999GF108991081051002501999999MA1098511098361MD1310181+9999MW1501MW2511REMSYN094AAXX  04071 03962 41365 82301 10052 20043 39836 49859 53018 75052 885// 333 83709 85625 88630;MET069EINN 040700Z 23002KT 9999 -DZ SCT009 BKN025 OVC030 05/04 Q0985 NOSIG;EQDQ01    003PRSWM1
0308039620999992001010408004+52690-008910SY-MT+0020EINN V0202101N002010090019N0200001N1+00481+00411098641ADDAY181999AY281999GA1021+007209999GA2071+009009999GF107991071081008001999999MA1098611098411MD1210191+9999MW1251REMSYN088AAXX  04081 03962 41570 72102 10048 20041 39841 49864 52019 72588 878// 333 83824 86630;MET058EINN 040800Z 21004KT 9999 SCT024 BKN030 05/04 Q0986 NOSIG;EQDQ01+000000PRSWM2Q02    003PRSWM1
0308039620999992001010409004+52690-008910SY-MT+0020EINN V0202101N002010090019N0400001N1+00451+00381098711ADDAY181031AY251031GA1021+006009999GA2071+009009999GF107991071051008001999999MA1098711098481MD1210201+9999MW1021REMSYN088AAXX  04091 03962 41582 72102 10045 20038 39848 49871 52020 70285 875// 333 82620 87630;MET058EINN 040900Z 21003KT 9999 FEW020 BKN030 05/04 Q0987 NOSIG;EQDQ01+000000PRSWM2Q02    003PRSWM1
0315039620999992001010410004+52690-008910SY-MT+0020EINN V0202001N002010126019N0300001N1+00421+00351098791ADDGA1021+005409999GA2021+008109999GA3071+012609999GF199999061051004501999999MA1098711098551MD1210191+9999MW1001REMSYN088AAXX  04101 03962 42480 62002 10042 20035 39855 49879 52019 865// 333 81718 83627 85642;MET065EINN 041000Z 20004KT 9999 FEW018 SCT027 BKN042 04/04 Q0987 NOSIG;EQDQ01+000062SCOTCVQ02+000000PRSWM2
0315039620999992001010411004+52690-008910SY-MT+0020EINN V0202001N00301011401CN0400001N1+00521+00431098851ADDGA1021+005409999GA2021+008109999GA3071+011409999GF199999061051004501999999MA1098821098611MD1210201+9999MW1001REMSYN088AAXX  04111 03962 42482 62003 10052 20043 39861 49885 52020 865// 333 81718 84627 85638;MET065EINN 041100Z 20005KT 9999 FEW018 SCT027 BKN038 05/04 Q0988 NOSIG;EQDQ01+000062SCOTCVQ02+000000PRSWM2
0370039620999992001010412004+52690-008910SY-MT+0020EINN V0201601N002010114019N0400001N1+00611+00561098891ADDAA106000191AY181061AY251061GA1021+005409999GA2021+007209999GA3071+011409999GF199999061081004501999999MA1098821098651MD1210171+9999MW1021REMSYN100AAXX  04121 03962 11482 61602 10061 20056 39865 49889 52017 69911 70285 868// 333 81818 83624 85638;MET065EINN 041200Z 16004KT 9999 FEW018 SCT024 BKN038 06/06 Q0988 NOSIG;EQDQ01+000062SCOTCVQ02+000000PRSWM2Q03    003PRSWM1
0270039620999992001010413004+52690-008910SY-MT+0020EINN V0201901N00201012001CN0300001N1+00621+00551098901ADDGA1021+006309999GA2021+009609999GF106991051081008001001021MA1098821098661MD1110111+9999MW1001REMSYN082AAXX  04131 03962 42580 61902 10062 20055 39866 49890 51011 85802 333 82821 84632;MET058EINN 041300Z 19004KT 9999 FEW021 SCT032 06/06 Q0988 NOSIG;EQDQ01+000000PRSWM2
0247039620999992001010414004+52690-008910SY-MT+0020EINN V0202301N00301075001CN0600001N1+00661+00521098901ADDGA1021+005109999GF105991021011004501001021MA1098821098661MD1110051+9999MW1001REMSYN082AAXX  04141 03962 42486 52303 10066 20052 39866 49890 51005 82102 333 82817 84068;MET051EINN 041400Z 23006KT 9999 FEW017 07/05 Q0988 NOSIG;EQDQ01+000000PRSWM2
0286039620999992001010415004+52690-008910SY-MT+0020EINN V0202101N003010540019N0600001N1+00771+00551098881ADDGA1021+005709999GA2071+054009999GF199999011011004501041021MA1098821098641MD1710011+9999MW1001REMSYN082AAXX  04151 03962 42486 62103 10077 20055 39864 49888 57001 81142 333 81819 86068;MET058EINN 041500Z 21005KT 9999 FEW019 BKN180 07/06 Q0988 NOSIG;EQDQ01+000062SCOTCVQ02+000000PRSWM2
0270039620999992001010416004+52690-008910SY-MT+0020EINN V0202101N003012200019N0450001N1+00821+00511098871ADDGA1021+006009999GA2021+045009999GF104991011011008001031011MA1098821098641MD1610021+9999MW1001REMSYN082AAXX  04161 03962 42583 42103 10082 20051 39864 49887 56002 81131 333 81820 83365;MET058EINN 041600Z 21006KT 9999 FEW020 SCT150 08/05 Q0988 NOSIG;EQDQ01+000000PRSWM2
0241039620999992001010417004+52690-008910SY-MT+0020EINN V0201501N002012200019N0400001N1+00611+00401098871ADDGA1021+010209999GF102991011041012501031001MA1098821098631MD1710031+9999MW1001REMSYN076AAXX  04171 03962 42682 21502 10061 20040 39863 49887 57003 81430 333 81634;MET051EINN 041700Z 15003KT 9999 FEW034 06/04 Q0988 NOSIG;EQDQ01+000000PRSWM2
0195039620999992001010418004+52690-008910FM-12+0020EINN V0201501N002012200019N0300001N1+00501+00381098861ADDAA112000191GA1011+009009059GF102991011051012501031021KA1120M+00861MA1999999098621MD1710021+9999REMSYN088AAXX  04181 03962 12680 21502 10050 20038 39862 49886 57002 69912 81532 333 10086 81630;
0153039620999992001010418304+52690-008910FM-15+0020EINN V0201401N002112200019N0112651N1+00401+00401999999ADDGA1021+010509999GF102991999999999999999999MA1098821999999MW1001REMMET059EINN 041830Z 14004KT 100V180 9999 FEW035 04/04 Q0988 NOSIG;EQDQ01+000000PRSWM2
0270039620999992001010419004+52690-008910SY-MT+0020EINN V0201001N001012200019N0250001N1+00431+00361098831ADDGA1021+010809999GA2021+054009999GF103991011051012501001021MA1098821098591MD1810051+9999MW1001REMSYN082AAXX  04191 03962 42675 31001 10043 20036 39859 49883 58005 81502 333 81636 83068;MET058EINN 041900Z 10001KT 9999 FEW036 SCT180 04/04 Q0988 NOSIG;EQDQ01+000000PRSWM2
0276039620999992001010420004+52690-008910SY-MT+0020EINN V0201201N003012200019N0250001N1+00371+00321098811ADDGA1021+012009999GA2021+060009999GF103991011051012501001021MA1098821098571MD1710061+9999MW1001REMSYN088AAXX  04201 03962 42675 31203 10037 20032 39857 49881 57006 81502 333 81640 83070 92600;MET058EINN 042000Z 12005KT 9999 FEW040 SCT200 04/03 Q0988 NOSIG;EQDQ01+000000PRSWM2
0292039620999992001010421004+52690-008910SY-MT+0020EINN V0201201N002010150019N0250001N1+00351+00281098761ADDGA1021+010809999GA2071+015009999GF199999051051012501001021MA1098711098521MD1710101+9999MW1001REMSYN088AAXX  04211 03962 42675 51202 10035 20028 39852 49876 57010 85502 333 81636 85650 92600;MET058EINN 042100Z 12004KT 9999 FEW036 BKN050 04/03 Q0987 NOSIG;EQDQ01+000052SCOTCVQ02+000000PRSWM2
0270039620999992001010422004+52690-008910SY-MT+0020EINN V0201401N001010150019N0160001N1+00351+00271098711ADDGA1021+009609999GA2071+015009999GF107991071051012501999999MA1098711098481MD1710111+9999MW1001REMSYN082AAXX  04221 03962 42666 71401 10035 20027 39848 49871 57011 875// 333 81632 87650;MET058EINN 042200Z 14001KT 9999 FEW032 BKN050 04/03 Q0987 NOSIG;EQDQ01+000000PRSWM2
0337039620999992001010423004+52690-008910SY-MT+0020EINN V0200501N001010600019N0120001N1+00371+00301098641ADDAY121999AY221999GA1021+009009999GA2021+015009999GA3071+060009999GF107991031051012501001021MA1098611098411MD1710161+9999MW1101REMSYN094AAXX  04231 03962 41662 70501 10037 20030 39841 49864 57016 71022 83502 333 81630 83650 86070;MET065EINN 042300Z 05002KT 9999 FEW030 SCT050 BKN200 04/03 Q0986 NOSIG;EQDQ01+000000PRSWM2Q02    003PRSWM1
0341039620999992001010500004+52690-008910SY-MT+0020EINN V0203401N00101039001CN0050001N1+00301+00251098671ADDAA106000791AY121061AY221061GA1021+009009999GA2021+024009999GA3071+039009999GF107991011051012501071999MA1098611098441MD1510081+9999MW1101REMSYN100AAXX  05001 03962 11650 73401 10030 20025 39844 49867 55008 69901 71022 8157/ 333 81630 84358 86363;MET068EINN 050000Z 34001KT 5000 BR FEW030 SCT080 BKN130 03/03 Q0986 NOSIG;EQDQ01    003PRSWM1
0324039620999992001010501004+52690-008910SY-MT+0020EINN V0209999C000010360019N0050001N1+00261+00231098631ADDAY121999AY221999GA1021+010509999GA2071+036009999GA3071+060009999GF107991011051012501031021MA1098611098391MD1710091+9999MW1101REMSYN094AAXX  05011 03962 41650 70000 10026 20023 39839 49863 57009 71022 81532 333 81635 85362 85070;MET068EINN 050100Z 00000KT 5000 BR FEW035 BKN120 BKN200 03/02 Q0986 NOSIG;EQDQ01    003PRSWM1
0354039620999992001010502004+52690-008910SY-MT+0020EINN V0203401N001010600019N0050001N1+00211+00181098571ADDAY121999AY221999ED199U15009GA1021+010509999GA2071+060009999GF199999021051012501001021MA1098511098331MD1810081+9999MW1101REMSYN094AAXX  05021 03962 41650 53401 10021 20018 39833 49857 58008 71022 82502 333 82635 85070 98550;MET087EINN 050200Z 34002KT 2000 R24/P1500N R06/1300V0800D BR FEW035 BKN200 02/02 Q0985 NOSIG;EQDQ01+000052SCOTCVQ02    003PRSWM1
0344039620999992001010503004+52690-008910SY-MT+0020EINN V0209999C000012200019N0015001N1+00201+00171098531ADDAY121031AY221031ED199U03509GA1021+015009999GA2021+060009999GF104991021051017501001021MA1098511098291MD1710151+9999MW1111MW2121REMSYN088AAXX  05031 03962 41715 40000 10020 20017 39829 49853 57015 71122 82502 333 82650 83070;MET093EINN 050300Z 00000KT 1500 R06/0350N R24/1300V0800D MIFG FEW050 SCT200 02/02 Q0985 TEMPO 0500;EQDQ01    003PRSWM1
0367039620999992001010504004+52690-008910SY-MT+0020EINN V0203201N002010015019N0003001N1+00051+00051098481ADDAY141999AY221999GA1021+000309999GA2071+001509999GA3071+015009999GF107991071061000251999999MA1098411098241MD1710151+9999MW1441MW2461REMSYN100AAXX  05041 03962 41003 73202 10005 20005 39824 49848 57015 74642 876// 333 83701 85705 85650 90006;MET099EINN 050400Z 32004KT 0300 R24/P1500V0800U R06/0350V0550D FG SCT001 BKN005 BKN050 01/01 Q0984 NOSIG;EQDQ01    003PRSWM1
0298039620999992001010505004+52690-008910SY-MT+0020EINN V0202201N00101000151CN0003001N1-00061-00061098471ADDAY141999AY241999ED199U09009GA1091+000159999GF109991091999000151999999MA1098411098231MD1610101+9999MW1451REMSYN082AAXX  05051 03962 41/03 92201 11006 21006 39823 49847 56010 74544 333 89/01 92611;MET075EINN 050500Z 22001KT 0300 R24/0900N R06/0300D FG VV001 M01/M01 Q0984 NOSIG;EQDQ01    003PRSWM1
0380039620999992001010506004+52690-008910SY-MT+0020EINN V0203001N00101000151CN0002001N1-00051-00081098501ADDAA112000791AY141061AY211061ED199U05509GA1091+000159999GF109991091999000151999999GJ100909IA1099IA2999-00309KA1120N-00061MA1098411098261MD1510031+9999MW1471MW2491REMSYN106AAXX  05061 03962 11/02 93001 11005 21008 39826 49850 55003 69902 74741 333 21006 31103 55015 89/01 92600;MET077EINN 050600Z 30002KT 0200 R24/0550D R06/0250N FZFG VV001 M00/M01 Q0984 NOSIG;EQDQ01    003PRSWM1
0306039620999992001010507004+52690-008910SY-MT+0020EINN V0209999C00001000151CN0002001N1-00041-00101098531ADDAY141999AY241999ED199U02009GA1091+000159999GF109991091999000151999999MA1098511098291MD1310051+9999MW1451MW2491REMSYN082AAXX  05071 03962 41/02 90000 11004 21010 39829 49853 53005 74544 333 89/01 92600;MET077EINN 050700Z 00000KT 0200 R24/0200N R06/0275N FZFG VV001 M00/M01 Q0985 NOSIG;EQDQ01    003PRSWM1
0306039620999992001010508004+52690-008910SY-MT+0020EINN V0209999C00001000151CN0002001N1-00051-00081098541ADDAY141999AY241999ED199U02259GA1091+000159999GF109991091999000151999999MA1098511098301MD1110071+9999MW1451MW2491REMSYN082AAXX  05081 03962 41/02 90000 11005 21008 39830 49854 51007 74544 333 89/01 92600;MET077EINN 050800Z 00000KT 0200 R24/0225N R06/0275N FZFG VV001 M00/M01 Q0985 NOSIG;EQDQ01    003PRSWM1
0306039620999992001010509004+52690-008910SY-MT+0020EINN V0209999C00001000151CN0002001N1-00051-00051098601ADDAY141031AY241031ED199U02259GA1091+000159999GF109991091999000151999999MA1098511098361MD1310101+9999MW1451MW2491REMSYN082AAXX  05091 03962 41/02 90000 11005 21005 39836 49860 53010 74544 333 89/01 92601;MET077EINN 050900Z 00000KT 0175 R24/0225N R06/0175N FZFG VV001 M01/M01 Q0985 NOSIG;EQDQ01    003PRSWM1
0304039620999992001010510004+52690-008910SY-MT+0020EINN V0202701N00101000151CN0001001N1-00051-00051098641ADDAY141999AY241999ED199U01759GA1091+000159999GF109991091999000151999999MA1098611098401MD1310111+9999MW1451MW2471REMSYN082AAXX  05101 03962 41/01 92701 11005 21005 39840 49864 53011 74744 333 89/01 92600;MET075EINN 051000Z 27001KT 0150 R24/0175N R06/0225N FG VV001 M00/M00 Q0986 NOSIG;EQDQ01    003PRSWM1
0296039620999992001010511004+52690-008910SY-MT+0020EINN V0209999C00001000151CN0001001N1-00011-00071098721ADDAY141999AY241999ED199U01759GA1091+000159999GF109991091999000151999999MA1098711098481MD1210181+9999MW1451MW2471REMSYN076AAXX  05111 03962 41/01 90000 11001 21007 39848 49872 52018 74744 333 89/01;MET073EINN 051100Z 00000KT 0100 R24/0175 R06/0200 FG VV001 M00/M01 Q0987 NOSIG;EQDQ01    003PRSWM1
0307039620999992001010512004+52690-008910SY-MT+0020EINN V0209999C00001000151CN0001001N1+00081+00081098751ADDAA106000191AY141061AY241061ED199U02259GA1091+000159999GF109991091999000151999999MA1098711098511MD1210151+9999MW1451REMSYN082AAXX  05121 03962 11/01 90000 10008 20008 39851 49875 52015 69921 74544 333 89/01;MET073EINN 051200Z 00000KT 0100 R24/0225N R06/0225N FG VV001 01/00 Q0987 NOSIG;EQDQ01    003PRSWM1
0290039620999992001010513004+52690-008910SY-MT+0020EINN V0201701N00101000151CN0001001N1+00051+00051098751ADDAY141999AY241999ED199U01759GA1091+000159999GF109991091999000151999999MA1098711098511MD1110111+9999MW1451REMSYN076AAXX  05131 03962 41/01 91701 10005 20005 39851 49875 51011 74544 333 89/01;MET073EINN 051300Z 17001KT 0100 R24/0175N R06/0225N FG VV001 01/01 Q0987 NOSIG;EQDQ01    003PRSWM1
0296039620999992001010514004+52690-008910SY-MT+0020EINN V0201001N00101000151CN0001001N1+00051+00051098751ADDAY141999AY241999ED199U02259GA1091+000159999GF109991091999000151999999MA1098711098511MD1110031+9999MW1431MW2451REMSYN076AAXX  05141 03962 41/01 91001 10005 20005 39851 49875 51003 74344 333 89/01;MET073EINN 051400Z 10001KT 0150 R24/0225N R06/0225N FG VV001 01/01 Q0987 NOSIG;EQDQ01    003PRSWM1
0290039620999992001010515004+52690-008910SY-MT+0020EINN V0209999C00001000151CN0001001N1+00111+00111098751ADDAY141031AY241031ED199U02759GA1091+000159999GF109991091999000151999999MA1098711098511MD1410001+9999MW1451REMSYN076AAXX  05151 03962 41/01 90000 10011 20011 39851 49875 54000 74544 333 89/01;MET073EINN 051500Z 00000KT 0150 R24/0275N R06/0275N FG VV001 01/01 Q0987 NOSIG;EQDQ01    003PRSWM1
0301039620999992001010516004+52690-008910SY-MT+0020EINN V0201501N00101000151CN0004001N1+00131+00131098811ADDAY141999AY241999ED199U05009GA1091+000159999GF109991091999000151999999MA1098821098571MD1310061+9999MW1431MW2451REMSYN076AAXX  05161 03962 41/04 91501 10013 20013 39857 49881 53006 74344 333 89/02;MET078EINN 051600Z 15002KT 0400 R24/0500U R06/0600U FG VV002 01/01 Q0988 TEMPO 0700;EQDQ01    003PRSWM1
0338039620999992001010517004+52690-008910SY-MT+0020EINN V0201401N00201000601CN0006001N1+00131+00131098871ADDAY181999AY241999ED199U15009GA1021+000609999GA2021+002709999GF105991051021000751001001MA1098821098631MD1310121+9999MW1801REMSYN094AAXX  05171 03962 41106 51402 10013 20013 39863 49887 53012 78084 85200 333 81702 83709 96042;MET087EINN 051700Z 14003KT 0600 R24/1500N R06/0900N -SHRA FG FEW002 SCT009 01/01 Q0988 NOSIG;EQDQ01    003PRSWM1
0424039620999992001010518004+52690-008910SY-MT+0020EINN V0201401N003010003019N0003001N1+00181+00151098941ADDAA112000191AY181061AY241061ED199U05509GA1071+000309999GA2021+000909999GA3071+001809999GF107991071061000251999999KA1120M+00181MA1098921098701MD1210191+9999MW1441MW2461REMSYN106AAXX  05181 03962 11003 71403 10018 20015 39870 49894 52019 69922 74684 876// 333 10018 85701 83703 85706;MET115EINN 051800Z 14005KT 0300 R24/0550N R06/0375N FG BKN001 SCT003 BKN006 02/02 Q0989 BECMG 28007KT 1200 SCT001 BKN003;EQDQ01    003PRSWM1
0350039620999992001010519004+52690-008910SY-MT+0020EINN V0201201N002010018019N0005001N1+00101+00071099011ADDAY151999AY241999ED199U09009GA1021+000309999GA2071+001809999GF107991071061000251999999MA1098981098771MD1210201+9999MW1501MW2531REMSYN094AAXX  05191 03962 41005 71202 10010 20007 39877 49901 52020 75054 876// 333 83701 86706 96042;MET093EINN 051900Z 12004KT 0500 R24/0900U R06/0600V0900U DZFG SCT001 BKN006 01/01 Q0990 BECMG 1500;EQDQ01    003PRSWM1
0391039620999992001010520004+52690-008910SY-MT+0020EINN V0201301N002010075019N0016001N1+00101+00101099061ADDAY151999AY241999ED199U10009GA1021+000909069GA2051+007509059GA3061+012009059GF107991071051001501999999MA1999999098821MD1210191+9999MW1211REMSYN106AAXX  05201 03962 41216 71302 10010 20010 39882 49906 52019 72154 875// 333 82703 85625 86640 90102 98556;MET096EINN 052000Z 13004KT 1600 R24/10001400 R06/1500U BR FEW003 BKN025 BKN040 01/01 Q0990 BECMG 6000;EQDQ01+000000PRSWM2Q02    003PRSWM1
0318039620999992001010521004+52690-008910SY-MT+0020EINN V0201201N00201006001CN0038001N1+00091+00061099101ADDAY161031AY251031GA1021+001209999GA2021+006909999GF105991051081001501001001MA1099091098871MD1210171+9999MW1101REMSYN106AAXX  05211 03962 41238 51202 10009 20006 39887 49910 52017 71065 85800 333 81704 83823 92600 98558 98658;MET066EINN 052100Z 12004KT 3800 BR FEW004 SCT023 01/01 Q0991 BECMG 8000;EQDQ01    003PRSWM1
0325039620999992001010522004+52690-008910SY-MT+0020EINN V0201301N002010300019N0060001N1+00131+00101099161ADDAY181999AY221999GA1021+004509999GA2021+013809999GF105991041081004501031001MA1099091098921MD1210151+9999MW1251REMSYN100AAXX  05221 03962 41456 51302 10013 20010 39892 49916 52015 72582 84830 333 81715 84646 98568 98765;MET063EINN 052200Z 13003KT 6000 FEW015 SCT046 01/01 Q0991 BECMG 8000;EQDQ01+000000PRSWM2Q02    003PRSWM1
0361039620999992001010523004+52690-008910SY-MT+0020EINN V0201801N001010135019N0120001N1+00391+00371099221ADDAY181999AY221999GA1021+004209999GA2021+006009099GA3071+013509999GF199999061031004501999999MA1099191098981MD1210161+9999MW1251REMSYN100AAXX  05231 03962 41462 61801 10039 20037 39898 49922 52016 72582 863// 333 81714 83920 86645 92600;MET067EINN 052300Z 00000KT 9999 FEW014 SCT020CB BKN045 04/04 Q0992 NOSIG;EQDQ01+000062SCOTCVQ02+000000PRSWM2Q03    003PRSWM1
0312039620999992001010600004+52690-008910SY-MT+0020EINN V0202401N003012200019N0180001N1+00451+00431099261ADDAA106000591AY181061AY261061GA1021+004209999GF199999011081004501001001MA1099191099021MD1210151+9999MW1011REMSYN088AAXX  06001 03962 11468 12403 10045 20043 39902 49926 52015 69951 70186 81800 333 81714;MET051EINN 060000Z 25006KT 9999 FEW014 05/04 Q0992 NOSIG;EQDQ01+000012SCOTCVQ02+000000PRSWM2Q03    003PRSWM1
0257039620999992001010601004+52690-008910SY-MT+0020EINN V0202501N003012200019N0250001N1+00441+00421099301ADDGA1021+005409999GF199999011051004501001001MA1099191099061MD1210141+9999MW1001REMSYN076AAXX  06011 03962 42475 12503 10044 20042 39906 49930 52014 81500 333 81718;MET051EINN 060100Z 25005KT 9999 FEW018 04/04 Q0992 NOSIG;EQDQ01+000012SCOTCVQ02+000000PRSWM2
0257039620999992001010602004+52690-008910SY-MT+0020EINN V0202501N004012200019N0200001N1+00421+00371099331ADDGA1021+005409999GF199999011051004501001001MA1099291099091MD1210111+9999MW1001REMSYN076AAXX  06021 03962 42470 12504 10042 20037 39909 49933 52011 81500 333 81718;MET051EINN 060200Z 25007KT 9999 FEW018 04/04 Q0993 NOSIG;EQDQ01+000012SCOTCVQ02+000000PRSWM2
0327039620999992001010603004+52690-008910SY-MT+0020EINN V0202501N003010126019N0180001N1+00421+00371099391ADDAY181031AY211031GA1021+004209999GA2021+006609999GA3071+012609999GF107991071081004501999999MA1099291099151MD1210131+9999MW1801REMSYN094AAXX  06031 03962 41468 72503 10042 20037 39915 49939 52013 78081 878// 333 81714 83822 86642;MET071EINN 060300Z 25006KT 9999 -SHRA FEW014 SCT022 BKN042 04/04 Q0993 NOSIG;EQDQ01    003PRSWM1
0324039620999992001010604004+52690-008910SY-MT+0020EINN V0202401N004010126019N0200001N1+00491+00421099401ADDAY181999AY221999GA1021+006609999GA2071+012609999GF199999061081008001999999MA1099291099161MD1110101+9999MW1251REMSYN088AAXX  06041 03962 41570 62404 10049 20042 39916 49940 51010 72582 868// 333 83822 85642;MET058EINN 060400Z 24007KT 9999 SCT022 BKN042 05/04 Q0993 NOSIG;EQDQ01+000062SCOTCVQ02+000000PRSWM2Q03    003PRSWM1
0308039620999992001010605004+52690-008910SY-MT+0020EINN V0202501N00301012001CN0200001N1+00511+00461099451ADDAY181999AY221999GA1021+006009999GA2021+015009999GF105991051081008001001001MA1099391099211MD1210121+9999MW1251REMSYN088AAXX  06051 03962 41570 52503 10051 20046 39921 49945 52012 72582 85800 333 83820 83650;MET058EINN 060500Z 25005KT 9999 SCT020 SCT050 05/05 Q0994 NOSIG;EQDQ01+000000PRSWM2Q02    003PRSWM1
0382039620999992001010606004+52690-008910SY-MT+0020EINN V0202401N00301075001CN0200001N1+00501+00431099481ADDAA112001091AY181061AY211061GA1021+006009999GA2021+060009999GF105991031081008001001021GJ100009IA1099IA2999-00209KA1120N+00091MA1099391099241MD1210091+9999MW1251REMSYN112AAXX  06061 03962 11570 52403 10050 20043 39924 49948 52009 69992 72581 83802 333 20009 31102 55000 82820 83070;MET058EINN 060600Z 24006KT 9999 FEW020 SCT200 05/04 Q0994 NOSIG;EQDQ01+000000PRSWM2Q02    003PRSWM1
0270039620999992001010607004+52690-008910SY-MT+0020EINN V0202301N003010750019N0200001N1+00441+00391099531ADDGA1021+006009999GA2021+012009999GF105991041081008001001021MA1099491099291MD1210131+9999MW1001REMSYN082AAXX  06071 03962 42570 52303 10044 20039 39929 49953 52013 84802 333 82820 83640;MET058EINN 060700Z 23006KT 9999 FEW020 SCT040 04/04 Q0995 NOSIG;EQDQ01+000000PRSWM2
0270039620999992001010608004+52690-008910SY-MT+0020EINN V0202501N00401012001CN0200001N1+00491+00441099601ADDGA1021+006009999GA2021+013509999GF106991051081008001031001MA1099491099361MD1210151+9999MW1001REMSYN082AAXX  06081 03962 42570 62504 10049 20044 39936 49960 52015 85830 333 82820 84645;MET058EINN 060800Z 25007KT 9999 FEW020 SCT045 05/04 Q0995 NOSIG;EQDQ01+000000PRSWM2
0306039620999992001010609004+52690-008910SY-MT+0020EINN V0202601N00501012001CN0200001N1+00501+00431099691ADDAY181031AY221031GA1021+006009999GA2021+013509999GF107991061081008001031999MA1099591099451MD1210211+9999MW1801REMSYN088AAXX  06091 03962 41570 72605 10050 20043 39945 49969 52021 78082 8683/ 333 83820 84656;MET072EINN 060900Z 26010KT 230V290 9999 -SHRA SCT020 SCT045 05/04 Q0996 NOSIG;EQDQ01    003PRSWM1
0300039620999992001010610004+52690-008910SY-MT+0020EINN V0202501N004010060019N0120001N1+00521+00471099771ADDAY181999AY221999GA1021+005109999GA2071+006009099GF107991061031004501031999MA1099701099531MD1210241+9999MW1801REMSYN088AAXX  06101 03962 41462 72504 10052 20047 39953 49977 52024 78082 8633/ 333 81717 85920;MET066EINN 061000Z 25008KT 9999 -SHRA FEW017 BKN020CB 05/05 Q0997 NOSIG;EQDQ01    003PRSWM1
0327039620999992001010611004+52690-008910SY-MT+0020EINN V0202401N004010150019N0150001N1+00571+00451099851ADDAY181999AY221999GA1021+005109999GA2021+006909999GA3071+015009999GF107991061031004501031999MA1099801099611MD1210251+9999MW1801REMSYN094AAXX  06111 03962 41465 72404 10057 20045 39961 49985 52025 78082 8633/ 333 81717 83923 85650;MET071EINN 061100Z 24007KT 9999 -SHRA FEW017 SCT023 BKN050 06/05 Q0998 NOSIG;EQDQ01    003PRSWM1
0327039620999992001010612004+52690-008910SY-MT+0020EINN V0202601N004010300019N0300001N1+00711+00531099861ADDAA106000591AY181061AY221061GA1021+006909099GA2021+013509999GF106991041031008001031021MA1099801099621MD1110171+9999MW1251REMSYN094AAXX  06121 03962 11580 62604 10071 20053 39962 49986 51017 69961 72582 84332 333 82923 83645;MET060EINN 061200Z 26008KT 9999 FEW023CB SCT045 07/05 Q0998 NOSIG;EQDQ01+000000PRSWM2Q02    003PRSWM1
0300039620999992001010613004+52690-008910SY-MT+0020EINN V0202601N00401004201CN0140001N1+00631+00471099911ADDAY181999AY221999GA1021+005409999GA2021+006909099GF106991061091004501999021MA1099901099671MD1210141+9999MW1801REMSYN088AAXX  06131 03962 41464 62604 10063 20047 39967 49991 52014 78082 869/2 333 81718 84923;MET066EINN 061300Z 26008KT 9999 -SHRA FEW018 SCT023CB 06/05 Q0999 NOSIG;EQDQ01    003PRSWM1
0347039620999992001010614004+52690-008910SY-MT+0020EINN V0202801N00501015001CN0150001N1+00681+00471099961ADDAY181999AY221999GA1021+004509999GA2021+006609099GA3071+015009999GF107991061091004501999031MA1099901099721MD1310111+9999MW1251REMSYN094AAXX  06141 03962 41465 72805 10068 20047 39972 49996 53011 72582 869/3 333 81715 84922 85650;MET075EINN 061400Z 28010KT 250V330 9999 FEW015 SCT022CB BKN050 07/05 Q0999 NOSIG;EQDQ01+000000PRSWM2Q02    003PRSWM1
0339039620999992001010615004+52690-008910SY-MT+0020EINN V0202701N004010600019N0200001N1+00661+00481100011ADDAY181031AY221031GA1021+005109999GA2021+006909099GA3021+060009999GF106991031091004501001031MA1100001099771MD1210151+9999MW1251REMSYN094AAXX  06151 03962 41470 62704 10066 20048 39977 40001 52015 72582 83903 333 81717 82923 84070;MET067EINN 061500Z 27008KT 9999 FEW017 FEW023CB SCT200 06/05 Q1000 NOSIG;EQDQ01+000000PRSWM2Q02    003PRSWM1
0251039620999992001010616004+52690-008910SY-MT+0020EINN V0202901N004012200019N0300001N1+00611+00401100081ADDGA1021+006609099GF102991011091008001001031MA1100001099841MD1210171+9999MW1001REMSYN076AAXX  06161 03962 42580 22904 10061 20040 39984 40008 52017 81903 333 81922;MET061EINN 061600Z 29007KT 250V330 9999 FEW022CB 06/04 Q1000 NOSIG;EQDQ01+000000PRSWM2
0267039620999992001010617004+52690-008910SY-MT+0020EINN V0202901N004012200019N0300001N1+00581+00341100161ADDGA1021+006909099GF199999011091008001001031MA1100101099921MD1210201+9999MW1001REMSYN076AAXX  06171 03962 42580 12904 10058 20034 39992 40016 52020 81903 333 81923;MET061EINN 061700Z 29007KT 260V010 9999 FEW023CB 06/03 Q1001 NOSIG;EQDQ01+000012SCOTCVQ02+000000PRSWM2
0317039620999992001010618004+52690-008910SY-MT+0020EINN V0202801N005012200019N0250001N1+00561+00271100261ADDAA112001091AY181061AY211061GA1021+006009099GF102991021091008001001001KA1120M+00731MA1100201100021MD1210251+9999MW1251REMSYN094AAXX  06181 03962 11575 22805 10056 20027 30002 40026 52025 60012 72581 82900 333 10073 82920;MET053EINN 061800Z 28010KT 9999 FEW020CB 06/03 Q1002 NOSIG;EQDQ01+000000PRSWM2Q02    003PRSWM1
0243039620999992001010619004+52690-008910SY-MT+0020EINN V0202701N005012200019N0250001N1+00481+00261100321ADDGA1021+006009099GF102991021091008001001001MA1100311100081MD1210241+9999MW1001REMSYN076AAXX  06191 03962 42575 22705 10048 20026 30008 40032 52024 82900 333 81920;MET053EINN 061900Z 28008KT 9999 FEW020CB 05/03 Q1003 NOSIG;EQDQ01+000000PRSWM2
0297039620999992001010620004+52690-008910SY-MT+0020EINN V0202701N004012200019N0250001N1+00471+00251100371ADDAY181999AY211999GA1021+006009099GF199999011091008001001001MA1100311100131MD1210211+9999MW1251REMSYN082AAXX  06201 03962 41575 12704 10047 20025 30013 40037 52021 72581 81900 333 81920;MET053EINN 062000Z 28006KT 9999 FEW020CB 05/03 Q1003 NOSIG;EQDQ01+000012SCOTCVQ02+000000PRSWM2Q03    003PRSWM1
0297039620999992001010621004+52690-008910SY-MT+0020EINN V0202701N005012200019N0250001N1+00551+00231100411ADDAY181031AY211031GA1021+006009099GF199999011091008001001001MA1100411100171MD1210151+9999MW1011REMSYN082AAXX  06211 03962 41575 12705 10055 20023 30017 40041 52015 70181 81900 333 81920;MET053EINN 062100Z 27010KT 9999 FEW020CB 06/02 Q1004 NOSIG;EQDQ01+000012SCOTCVQ02+000000PRSWM2Q03    003PRSWM1
0310039620999992001010622004+52690-008910SY-MT+0020EINN V0202601N004012200019N0250001N1+00531+00231100471ADDAY181999AY211999GA1021+006009099GA2021+012009999GF103991031031008001001001MA1100411100231MD1210151+9999MW1251REMSYN088AAXX  06221 03962 41575 32604 10053 20023 30023 40047 52015 72581 83300 333 81920 83640;MET060EINN 062200Z 28008KT 9999 FEW020CB SCT040 05/02 Q1004 NOSIG;EQDQ01+000000PRSWM2Q02    003PRSWM1
0272039620999992001010623004+52690-008910SY-MT+0020EINN V0202801N00401007501CN0250001N1+00521+00201100531ADDGA1021+006009099GA2021+013509999GF105991051031008001001001MA1100511100291MD1210161+9999MW1001REMSYN082AAXX  06231 03962 42575 52804 10052 20020 30029 40053 52016 85300 333 81920 84645;MET060EINN 062300Z 28006KT 9999 FEW020CB SCT045 05/02 Q1005 NOSIG;EQDQ01+000000PRSWM2
0343039620999992001010700004+52690-008910SY-MT+0020EINN V0202601N003010135019N0250001N1+00441+00191100601ADDAA106000191AY181061AY211061GA1021+006009099GA2071+013509999GF199999061031008001001001MA1100511100361MD1210191+9999MW1251REMSYN094AAXX  07001 03962 11575 62603 10044 20019 30036 40060 52019 69921 72581 86300 333 82920 85645;MET060EINN 070000Z 26005KT 9999 FEW020CB BKN045 04/02 Q1005 NOSIG;EQDQ01+000062SCOTCVQ02+000000PRSWM2Q03    003PRSWM1
0281039620999992001010701004+52690-008910SY-MT+0020EINN V0202701N005012200019N0200001N1+00481+00261100631ADDAY181999AY211999GA1021+006009099GF103991031031008001031001MA1100611100391MD1210161+9999MW1251REMSYN082AAXX  07011 03962 41570 32705 10048 20026 30039 40063 52016 72581 83330 333 82920;MET053EINN 070100Z 27009KT 9999 FEW020CB 05/03 Q1006 NOSIG;EQDQ01+000000PRSWM2Q02    003PRSWM1
0300039620999992001010702004+52690-008910SY-MT+0020EINN V0202601N00401004201CN0200001N1+00451+00251100681ADDAY181999AY211999GA1021+003609999GA2021+006009099GF105991051031004501001001MA1100611100441MD1210151+9999MW1801REMSYN088AAXX  07021 03962 41470 52604 10045 20025 30044 40068 52015 78081 85300 333 82712 84920;MET066EINN 070200Z 26008KT 9999 -SHRA FEW012 SCT020CB 05/03 Q1006 NOSIG;EQDQ01    003PRSWM1
0271039620999992001010703004+52690-008910SY-MT+0020EINN V0202601N004012200019N0200001N1+00461+00241100701ADDAY181031AY211031GA1021+006009099GF104991041031008001001001MA1100711100471MD1210111+9999MW1801REMSYN082AAXX  07031 03962 41570 42604 10046 20024 30047 40070 52011 78081 84300 333 83920;MET059EINN 070300Z 26008KT 9999 -SHRA SCT020CB 05/02 Q1007 NOSIG;EQDQ01    003PRSWM1
0281039620999992001010704004+52690-008910SY-MT+0020EINN V0202501N004012200019N0200001N1+00431+00181100691ADDAY181999AY211999GA1021+006009099GF103991021031008001031001MA1100611100451MD1010061+9999MW1251REMSYN082AAXX  07041 03962 41570 32504 10043 20018 30045 40069 50006 72581 82330 333 82920;MET053EINN 070400Z 25007KT 9999 FEW020CB 04/02 Q1006 NOSIG;EQDQ01+000000PRSWM2Q02    003PRSWM1
0281039620999992001010705004+52690-008910SY-MT+0020EINN V0202501N003012200019N0200001N1+00411+00181100721ADDAY181999AY201999GA1021+006009099GF103991021031008001031001MA1100711100481MD1210041+9999MW1251REMSYN082AAXX  07051 03962 41570 32503 10041 20018 30048 40072 52004 72580 82330 333 82920;MET053EINN 070500Z 25005KT 9999 FEW020CB 04/02 Q1007 NOSIG;EQDQ01+000000PRSWM2Q02    003PRSWM1
0413039620999992001010706004+52690-008910SY-MT+0020EINN V0202701N003010111019N0200001N1+00451+00201100771ADDAA112000391AY181061AY211061GA1021+006609099GA2071+011109999GA3071+018009999GF107991071031008001999999GJ100429IA1099IA2999-00109KA1120N+00401MA1100711100531MD1310061+9999MW1251REMSYN118AAXX  07061 03962 11570 72703 10045 20020 30053 40077 53006 69932 72581 873// 333 20040 31101 55007 83822 85637 87656;MET067EINN 070600Z 27006KT 9999 SCT022CB BKN037 BKN060 05/02 Q1007 NOSIG;EQDQ01+000000PRSWM2Q02    003PRSWM1
0310039620999992001010707004+52690-008910SY-MT+0020EINN V0202701N00301007501CN0200001N1+00421+00221100851ADDAY181999AY221999GA1021+006309099GA2021+010509999GF105991051031008001001001MA1100811100611MD1210161+9999MW1251REMSYN088AAXX  07071 03962 41570 52703 10042 20022 30061 40085 52016 72582 85300 333 82921 83635;MET060EINN 070700Z 27006KT 9999 FEW021CB SCT035 04/02 Q1008 NOSIG;EQDQ01+000000PRSWM2Q02    003PRSWM1
0243039620999992001010708004+52690-008910SY-MT+0020EINN V0202301N003012200019N0250001N1+00361+00151100881ADDGA1021+006309099GF103991031031008001001001MA1100811100641MD1210161+9999MW1001REMSYN076AAXX  07081 03962 42575 32303 10036 20015 30064 40088 52016 83300 333 82921;MET053EINN 070800Z 23006KT 9999 FEW021CB 04/02 Q1008 NOSIG;EQDQ01+000000PRSWM2
0281039620999992001010709004+52690-008910SY-MT+0020EINN V0202701N006012200019N0200001N1+00461+00071100921ADDAY181031AY211031GA1021+006309099GF102991021031008001001001MA1100911100681MD1210151+9999MW1251REMSYN082AAXX  07091 03962 41570 22706 10046 20007 30068 40092 52015 72581 82300 333 82921;MET053EINN 070900Z 27011KT 9999 FEW021CB 05/01 Q1009 NOSIG;EQDQ01+000000PRSWM2Q02    003PRSWM1
0243039620999992001010710004+52690-008910SY-MT+0020EINN V0202601N004012200019N0180001N1+00411+00211100991ADDGA1021+006009099GF102991021091008001001001MA1100911100751MD1210141+9999MW1001REMSYN076AAXX  07101 03962 42568 22604 10041 20021 30075 40099 52014 82900 333 81920;MET053EINN 071000Z 26007KT 9999 FEW020CB 04/02 Q1009 NOSIG;EQDQ01+000000PRSWM2
0289039620999992001010711004+52690-008910SY-MT+0020EINN V0202701N005012200019N0300001N1+00601+00311101021ADDAY181999AY201999GA1021+006009099GF102991011091008001001021MA1101021100781MD1210141+9999MW1251REMSYN082AAXX  07111 03962 41580 22705 10060 20031 30078 40102 52014 72580 81902 333 81920;MET061EINN 071100Z 27009KT 250V310 9999 FEW020CB 06/03 Q1010 NOSIG;EQDQ01+000000PRSWM2Q02    003PRSWM1
0335039620999992001010712004+52690-008910SY-MT+0020EINN V0202801N005012200019N0350001N1+00671+00311101041ADDAA106000191AY181061AY211061GA1021+005109999GA2021+006009099GF103991031031004501001001MA1101021100801MD1110121+9999MW1251REMSYN094AAXX  07121 03962 11481 32805 10067 20031 30080 40104 51012 69921 72581 83300 333 81717 82920;MET068EINN 071200Z 29008KT 250V320 9999 FEW017 FEW020CB 07/03 Q1010 NOSIG;EQDQ01+000000PRSWM2Q02    003PRSWM1
0272039620999992001010713004+52690-008910SY-MT+0020EINN V0202701N005012200019N0300001N1+00731+00281101041ADDGA1021+005109999GA2021+006009099GF102991021091004501001001MA1101021100801MD1010051+9999MW1001REMSYN082AAXX  07131 03962 42480 22705 10073 20028 30080 40104 50005 82900 333 81717 81920;MET060EINN 071300Z 28010KT 9999 FEW017 FEW020CB 07/03 Q1010 NOSIG;EQDQ01+000000PRSWM2
0287039620999992001010714004+52690-008910SY-MT+0020EINN V0202801N006012200019N0350001N1+00771+00301101061ADDGA1021+005409999GA2021+006009099GF199999011031004501001001MA1101021100821MD1210041+9999MW1001REMSYN082AAXX  07141 03962 42481 12806 10077 20030 30082 40106 52004 81300 333 81818 81920;MET059EINN 071400Z 28012KT 9999 FEW018 FEW020CB 08/03 Q1010NOSIG;EQDQ01+000012SCOTCVQ02+000000PRSWM2
0310039620999992001010715004+52690-008910SY-MT+0020EINN V0202801N006012200019N0300001N1+00691+00171101081ADDAY181031AY211031GA1021+005109999GA2021+006009099GF103991031091004501001001MA1101021100841MD1310041+9999MW1251REMSYN088AAXX  07151 03962 41480 32806 10069 20017 30084 40108 53004 72581 83900 333 81717 82920;MET060EINN 071500Z 28012KT 9999 FEW017 FEW020CB 07/02 Q1010 NOSIG;EQDQ01+000000PRSWM2Q02    003PRSWM1
0300039620999992001010716004+52690-008910SY-MT+0020EINN V0202901N00701004201CN0280001N1+00641+00251101161ADDAY181999AY211999GA1021+004809999GA2021+006009099GF106991061091004501999999MA1101081100921MD1310121+9999MW1801REMSYN088AAXX  07161 03962 41478 62907 10064 20025 30092 40116 53012 78081 869// 333 81716 83920;MET066EINN 071600Z 29014KT 9999 -SHRA FEW016 SCT020CB 06/03 Q1011 NOSIG;EQDQ01    003PRSWM1
0326039620999992001010717004+52690-008910SY-MT+0020EINN V0202701N005012200019N0300001N1+00511+00261101201ADDAY181999AY211999GA1021+005109999GA2021+006009099GF199999011031004501001001MA1101191100961MD1210141+9999MW1251REMSYN088AAXX  07171 03962 41480 12705 10051 20026 30096 40120 52014 72581 81300 333 81717 81920;MET060EINN 071700Z 27010KT 9999 FEW017 FEW020CB 05/03 Q1012 NOSIG;EQDQ01+000012SCOTCVQ02+000000PRSWM2Q03    003PRSWM1
0333039620999992001010718004+52690-008910SY-MT+0020EINN V0202701N006012200019N0300001N1+00531+00151101231ADDAA112000591AY181061AY211061GA1021+006009099GF199999011091008001001021KA1120M+00791MA1101191100991MD1110151+9999MW1011REMSYN094AAXX  07181 03962 11580 12706 10053 20015 30099 40123 51015 69942 70181 81902 333 10079 81920;MET053EINN 071800Z 27011KT 9999 FEW020CB 05/02 Q1012 NOSIG;EQDQ01+000012SCOTCVQ02+000000PRSWM2Q03    003PRSWM1
0259039620999992001010719004+52690-008910SY-MT+0020EINN V0202901N004012200019N0300001N1+00531+00181101301ADDGA1021+006009099GF199999011091008001001001MA1101291101061MD1210141+9999MW1001REMSYN076AAXX  07191 03962 42580 12904 10053 20018 30106 40130 52014 81900 333 81920;MET053EINN 071900Z 29008KT 9999 FEW020CB 05/02 Q1013 NOSIG;EQDQ01+000012SCOTCVQ02+000000PRSWM2
0187039620999992001010720004+52690-008910FM-12+0020EINN V0202901N006012200019N0300001N1+00571+00171101351ADDAY181999AY201999GA1011+006909099GF101991011091008001001001MA1999999101111MD1210151+9999MW1251REMSYN082AAXX  07201 03962 41580 12906 10057 20017 30111 40135 52015 72580 81900 333 81923;
0147039620999992001010720304+52690-008910FM-15+0020EINN V0202901N004612200019N0112651N1+00601+00201999999ADDGA1021+006909099GF102991999999999999999999MA1101291999999MW1001REMMET053EINN 072030Z 29009KT 9999 FEW023CB 06/02 Q1013 NOSIG;EQDQ01+000000PRSWM2
0295039620999992001010721004+52690-008910SY-MT+0020EINN V0202901N004012200019N0300001N1+00571+00201101391ADDAY181031AY201031GA1021+012009999GF199999011051012501001001MA1101291101151MD1110161+9999MW1011REMSYN082AAXX  07211 03962 41680 12904 10057 20020 30115 40139 51016 70180 81500 333 81640;MET051EINN 072100Z 29007KT 9999 FEW040 06/02 Q1013 NOSIG;EQDQ01+000012SCOTCVQ02+000000PRSWM2Q03    003PRSWM1
0249039620999992001010722004+52690-008910SY-MT+0020EINN V0202901N005012200019N0300001N1+00501+00151101441ADDGA1021+012009999GF103991021051012501031001MA1101391101201MD1210141+9999MW1001REMSYN076AAXX  07221 03962 42680 32905 10050 20015 30120 40144 52014 82530 333 82640;MET059EINN 072200Z 29008KT 260V350 9999 FEW040 05/02 Q1014 NOSIG;EQDQ01+000000PRSWM2
0257039620999992001010723004+52690-008910SY-MT+0020EINN V0202801N003012200019N0300001N1+00431+00121101461ADDGA1021+012009999GF199999011051012501001001MA1101391101221MD1110111+9999MW1001REMSYN076AAXX  07231 03962 42680 12803 10043 20012 30122 40146 51011 81500 333 81640;MET051EINN 072300Z 28004KT 9999 FEW040 04/01 Q1014 NOSIG;EQDQ01+000012SCOTCVQ02+000000PRSWM2
0310039620999992001010800004+52690-008910SY-MT+0020EINN V0202801N002012200019N0300001N1+00381+00121101491ADDAA106000791AY181061AY201061GA1021+013509999GF103991031051012501001001MA1101391101251MD1210101+9999MW1031REMSYN094AAXX  08001 03962 11680 32802 10038 20012 30125 40149 52010 69901 70380 83500 333 83645 92600;MET059EINN 080000Z 28004KT 250V330 9999 SCT045 04/01 Q1014 NOSIG;EQDQ01+000000PRSWM2Q02    003PRSWM1
0257039620999992001010801004+52690-008910SY-MT+0020EINN V0202501N002012200019N0300001N1+00351+00121101521ADDGA1011+015009059GF101991011051017501999001MA1101491101281MD1210081+9999MW1001REMSYN082AAXX  08011 03962 42780 12502 10035 20012 30128 40152 52008 81500 333 81650 92600;MET045EINN 080100Z 25004KT CAVOK 04/01 Q1015 NOSIG;EQDQ01+000000PRSWM2Q02    003SCOMCG
0251039620999992001010802004+52690-008910SY-MT+0020EINN V0202801N003012200019N0300001N1+00451+00141101551ADDGA1031+015009059GF103991031051017501999001MA1101491101311MD1210091+9999MW1001REMSYN076AAXX  08021 03962 42780 32803 10045 20014 30131 40155 52009 83500 333 83650;MET045EINN 080200Z 28006KT CAVOK 05/01 Q1015 NOSIG;EQDQ01+000000PRSWM2Q02    003SCOMCG
0270039620999992001010803004+52690-008910SY-MT+0020EINN V0202401N00301012001CN0300001N1+00351+00171101571ADDGA1021+010509999GA2021+015009999GF105991051051012501001001MA1101491101331MD1210081+9999MW1001REMSYN082AAXX  08031 03962 42680 52403 10035 20017 30133 40157 52008 85500 333 81635 84650;MET058EINN 080300Z 24005KT 9999 FEW035 SCT050 04/02 Q1015 NOSIG;EQDQ01+000000PRSWM2
0235039620999992001010804004+52690-008910SY-MT+0020EINN V0202501N003010150019N0300001N1+00321+00171101571ADDGA1071+015009059GF107991071051017501999999MA1101491101331MD1110051+9999MW1001REMSYN076AAXX  08041 03962 42780 72503 10032 20017 30133 40157 51005 875// 333 87650;MET045EINN 080400Z 25006KT CAVOK 03/02 Q1015 NOSIG;EQDQ01+000000PRSWM2
0257039620999992001010805004+52690-008910SY-MT+0020EINN V0202501N004012200019N0300001N1+00231+00101101581ADDGA1021+015009059GF103991021051017501999021MA1101491101331MD1110021+9999MW1001REMSYN082AAXX  08051 03962 42780 32504 10023 20010 30133 40158 51002 82502 333 82650 92600;MET045EINN 080500Z 25007KT CAVOK 02/01 Q1015 NOSIG;EQDQ01+000000PRSWM2Q02    003SCOMCG
0331039620999992001010806004+52690-008910SY-MT+0020EINN V0202601N003012200019N0300001N1+00351+00091101561ADDAA112000791GA1031+015009059GF103991031051017501999021GJ102589IA1099IA2999-00309KA1120N+00241MA1101491101321MD1810011+9999MW1001REMSYN106AAXX  08061 03962 12780 32603 10035 20009 30132 40156 58001 69902 83502 333 20024 31103 55043 83650 92600;MET045EINN 080600Z 26005KT CAVOK 04/01 Q1015 NOSIG;EQDQ01+000000PRSWM2Q02    003SCOMCG
0257039620999992001010807004+52690-008910SY-MT+0020EINN V0202501N003012200019N0300001N1+00321+00141101571ADDGA1021+015009059GF103991021051017501999021MA1101491101331MD1510001+9999MW1001REMSYN082AAXX  08071 03962 42780 32503 10032 20014 30133 40157 55000 82502 333 82650 92600;MET045EINN 080700Z 25006KT CAVOK 03/01 Q1015 NOSIG;EQDQ01+000000PRSWM2Q02    003SCOMCG
0257039620999992001010808004+52690-008910SY-MT+0020EINN V0209999C000012200019N0300001N1+00201+00071101631ADDGA1031+015009059GF103991031051017501999021MA1101591101381MD1310051+9999MW1001REMSYN082AAXX  08081 03962 42780 30000 10020 20007 30138 40163 53005 83502 333 83650 92600;MET045EINN 080800Z 00000KT CAVOK 02/01 Q1016 NOSIG;EQDQ01+000000PRSWM2Q02    003SCOMCG
0276039620999992001010809004+52690-008910SY-MT+0020EINN V0202301N001010750019N0300001N1+00121+00071101641ADDGA1021+006009999GA2021+015009999GF105991031081008001001021MA1101591101391MD1110071+9999MW1001REMSYN088AAXX  08091 03962 42580 52301 10012 20007 30139 40164 51007 83802 333 81820 83650 92600;MET058EINN 080900Z 23002KT 9999 FEW020 SCT050 01/01 Q1016 NOSIG;EQDQ01+000000PRSWM2
0339039620999992001010810004+52690-008910SY-MT+0020EINN V0201201N00201012001CN0250001N1+00121+00091101641ADDAY121999AY221999GA1021+006009099GA2021+009009999GA3071+012009999GF107991071031008001999021MA1101591101391MD1110061+9999MW1151REMSYN094AAXX  08101 03962 41575 71202 10012 20009 30139 40164 51006 71522 873/2 333 83920 83630 85640;MET067EINN 081000Z 12003KT 9999 SCT020CB SCT030 BKN040 01/01 Q1016 NOSIG;EQDQ01+000000PRSWM2Q02    003PRSWM1
0299039620999992001010811004+52690-008910SY-MT+0020EINN V0201201N003010750019N0300001N1+00261+00211101641ADDGA1021+006009999GA2021+012009999GA3071+075009999GF107991031081008001001021MA1101591101391MD1110011+9999MW1001REMSYN088AAXX  08111 03962 42580 71203 10026 20021 30139 40164 51001 83802 333 81820 83640 86075;MET065EINN 081100Z 12006KT 9999 FEW020 SCT040 BKN250 03/02 Q1016 NOSIG;EQDQ01+000000PRSWM2
0287039620999992001010812004+52690-008910SY-MT+0020EINN V0201301N003010360019N0250001N1+00351+00251101621ADDAA106000791GA1021+006609999GA2071+036009999GF107991021081008001031021MA1101591101381MD1810011+9999MW1001REMSYN088AAXX  08121 03962 12575 71303 10035 20025 30138 40162 58001 69901 82832 333 81822 85362;MET058EINN 081200Z 13005KT 9999 FEW022 BKN120 04/03 Q1016 NOSIG;EQDQ01+000000PRSWM2
0270039620999992001010813004+52690-008910SY-MT+0020EINN V0201201N003010360019N0200001N1+00411+00341101571ADDGA1021+006609999GA2071+036009999GF107991021081008001031021MA1101491101331MD1810061+9999MW1001REMSYN082AAXX  08131 03962 42570 71203 10041 20034 30133 40157 58006 82832 333 81822 86362;MET058EINN 081300Z 12006KT 9999 FEW022 BKN120 04/03 Q1015 NOSIG;EQDQ01+000000PRSWM2
0270039620999992001010814004+52690-008910SY-MT+0020EINN V0201101N003010360019N0250001N1+00521+00431101511ADDGA1021+006609999GA2071+036009999GF107991011081008001031021MA1101491101271MD1810121+9999MW1001REMSYN082AAXX  08141 03962 42575 71103 10052 20043 30127 40151 58012 81832 333 81822 87362;MET058EINN 081400Z 12005KT 9999 FEW022 BKN120 05/04 Q1015 NOSIG;EQDQ01+000000PRSWM2
0307039620999992001010815004+52690-008910SY-MT+0020EINN V0201101N002010390019N0250001N1+00511+00411101441ADDGA1021+006609999GA2071+039009999GA3071+075009999GF107991011081008001031021MA1101391101201MD1710181+9999MW1001REMSYN088AAXX  08151 03962 42575 71102 10051 20041 30120 40144 57018 81832 333 81822 86363 85075;MET073EINN 081500Z 11004KT 090V160 9999 FEW022 BKN130 BKN250 05/04 Q1014 NOSIG;EQDQ01+000000PRSWM2
0191039620999992001010815304+52690-008910FM-15+0020EINN V02099999999990360019N0112651N1+00501+00401999999ADDGA1021+006609999GA2021+012609999GA3071+036009999GF107991999999999999999999MA1101391999999MW1001REMMET065EINN 081530Z VRB02KT 9999 FEW022 SCT042 BKN120 05/04 Q1014 NOSIG;EQDQ01+000000PRSWM2
0299039620999992001010816004+52690-008910SY-MT+0020EINN V0201101N002010120019N0200001N1+00511+00391101431ADDGA1021+006609999GA2071+012009999GA3071+036009999GF107991051081008001031999MA1101391101191MD1610141+9999MW1001REMSYN088AAXX  08161 03962 42570 71102 10051 20039 30119 40143 56014 8583/ 333 81822 85640 85362;MET065EINN 081600Z 11004KT 9999 FEW022 BKN040 BKN120 05/04 Q1014 NOSIG;EQDQ01+000000PRSWM2
0308039620999992001010817004+52690-008910SY-MT+0020EINN V0201201N003010150019N0180001N1+00461+00361101391ADDAY121999AY221999GA1021+009609999GA2071+015009999GF107991061051012501031999MA1101291101151MD1710121+9999MW1101REMSYN088AAXX  08171 03962 41668 71203 10046 20036 30115 40139 57012 71022 8653/ 333 84632 85650;MET058EINN 081700Z 12006KT 9999 SCT032 BKN050 05/04 Q1013 NOSIG;EQDQ01+000000PRSWM2Q02    003PRSWM1
0344039620999992001010818004+52690-008910SY-MT+0020EINN V0201101N003010390019N0180001N1+00411+00341101381ADDAA112000791AY121061AY221061GA1021+012009999GA2071+039009999GF107991031061012501071001KA1120M+00611MA1101291101141MD1710061+9999MW1101REMSYN100AAXX  08181 03962 11668 71103 10041 20034 30114 40138 57006 69902 71022 83670 333 10061 83640 87463;MET058EINN 081800Z 12006KT 9999 SCT040 BKN130 04/03 Q1013 NOSIG;EQDQ01+000000PRSWM2Q02    003PRSWM1
0308039620999992001010819004+52690-008910SY-MT+0020EINN V0201101N004010360019N0180001N1+00411+00311101361ADDAY121999AY221999GA1021+012009999GA2081+036009999GF108991021061012501011001MA1101291101121MD1710071+9999MW1101REMSYN088AAXX  08191 03962 41668 81104 10041 20031 30112 40136 57007 71022 82610 333 82640 88462;MET058EINN 081900Z 11007KT 9999 FEW040 OVC120 04/03 Q1013 NOSIG;EQDQ01+000000PRSWM2Q02    003PRSWM1
0270039620999992001010820004+52690-008910SY-MT+0020EINN V0201101N003010420019N0180001N1+00401+00301101351ADDGA1021+012009999GA2081+042009999GF108991021061012501011001MA1101291101111MD1710041+9999MW1001REMSYN082AAXX  08201 03962 42668 81103 10040 20030 30111 40135 57004 82610 333 82640 88464;MET058EINN 082000Z 12006KT 9999 FEW040 OVC140 04/03 Q1013 NOSIG;EQDQ01+000000PRSWM2
0315039620999992001010821004+52690-008910SY-MT+0020EINN V0201201N00401063001CN0180001N1+00351+00301101311ADDGA1021+012009999GA2021+036009999GA3071+063009999GF199999021061012501011081MA1101291101071MD1810071+9999MW1001REMSYN088AAXX  08211 03962 42668 61204 10035 20030 30107 40131 58007 82618 333 81640 84462 85271;MET065EINN 082100Z 12007KT 9999 FEW040 SCT120 BKN210 04/03 Q1013 NOSIG;EQDQ01+000062SCOTCVQ02+000000PRSWM2
0257039620999992001010822004+52690-008910SY-MT+0020EINN V0201101N005010600019N0200001N1+00301+00251101291ADDGA1031+036009079GA2031+060009019GF105991031001999999031021MA1101191101051MD1810071+9999MW1001REMSYN082AAXX  08221 03962 42970 51105 10030 20025 30105 40129 58007 83032 333 83362 83070;MET045EINN 082200Z 11009KT CAVOK 03/03 Q1012 NOSIG;EQDQ01+000000PRSWM2
0258039620999992001010823004+52690-008910SY-MT+0020EINN V0201101N005010360019N0200001N1+00301+00251101251ADDGA1031+015009059GA2031+036009079GF105991031051017501031021MA1101191101011MD1710101+9999MW1001REMSYN082AAXX  08231 03962 42770 51105 10030 20025 30101 40125 57010 83532 333 83650 83362;MET046EINN 082300Z 11009KT CAVOK 003/03 Q1012 NOSIG;EQDQ01+000000PRSWM2
0274039620999992001010900004+52690-008910SY-MT+0020EINN V0201101N004010300019N0200001N1+00311+00231101251ADDAA106000791GA1031+015009059GA2051+030009079GF105991031051017501031001MA1101191101011MD1510061+9999MW1001REMSYN088AAXX  09001 03962 12770 51104 10031 20023 30101 40125 55006 69901 83530 333 83650 85360;MET045EINN 090000Z 11007KT CAVOK 03/02 Q1012 NOSIG;EQDQ01+000000PRSWM2
0324039620999992001010901004+52690-008910SY-MT+0020EINN V0201101N004010300019N0180001N1+00261+00181101191ADDAY121999AY221999GA1021+014109999GA2071+030009999GF199999031051012501031001MA1101081100951MD1710101+9999MW1101REMSYN088AAXX  09011 03962 41668 51104 10026 20018 30095 40119 57010 71022 83530 333 83647 85360;MET058EINN 090100Z 11008KT 9999 SCT047 BKN100 03/02 Q1011 NOSIG;EQDQ01+000052SCOTCVQ02+000000PRSWM2Q03    003PRSWM1
0308039620999992001010902004+52690-008910SY-MT+0020EINN V0201101N004010300019N0180001N1+00291+00211101141ADDAY121999AY221999GA1021+014109999GA2021+030009999GF105991021051012501031001MA1101081100901MD1810111+9999MW1101REMSYN088AAXX  09021 03962 41668 51104 10029 20021 30090 40114 58011 71022 82530 333 82647 84360;MET058EINN 090200Z 11007KT 9999 FEW047 SCT100 03/02 Q1011 NOSIG;EQDQ01+000000PRSWM2Q02    003PRSWM1
0295039620999992001010903004+52690-008910SY-MT+0020EINN V0201201N003012200019N0150001N1+00211+00181101131ADDAY111031AY211031GA1021+014109999GF199999011051012501031021MA1101081100881MD1710131+9999MW1101REMSYN082AAXX  09031 03962 41665 11203 10021 20018 30088 40113 57013 71011 81532 333 81647;MET051EINN 090300Z 12006KT 9999 FEW047 02/02 Q1011 NOSIG;EQDQ01+000012SCOTCVQ02+000000PRSWM2Q03    003PRSWM1
0295039620999992001010904004+52690-008910SY-MT+0020EINN V0201001N004012200019N0150001N1+00301+00221101061ADDAY101999AY201999GA1021+014109999GF199999011051012501031021MA1101021100821MD1710131+9999MW1101REMSYN082AAXX  09041 03962 41665 11004 10030 20022 30082 40106 57013 71000 81532 333 81647;MET051EINN 090400Z 10008KT 9999 FEW047 03/02 Q1010 NOSIG;EQDQ01+000012SCOTCVQ02+000000PRSWM2Q03    003PRSWM1
0235039620999992001010905004+52690-008910SY-MT+0020EINN V0201001N005012200019N0200001N1+00301+00221101031ADDGA1021+030009079GF102991021001999999031001MA1101021100791MD1710111+9999MW1001REMSYN076AAXX  09051 03962 42970 21005 10030 20022 30079 40103 57011 82030 333 82360;MET045EINN 090500Z 10009KT CAVOK 03/02 Q1010 NOSIG;EQDQ01+000000PRSWM2
0331039620999992001010906004+52690-008910SY-MT+0020EINN V0201001N004012200019N0200001N1+00321+00241101011ADDAA112000791GA1011+042009079GA2041+090009019GF104991011001999999031021GJ100189IA1099IA2999-00109KA1120N+00201MA1101021100771MD1710111+9999MW1001REMSYN106AAXX  09061 03962 12970 41004 10032 20024 30077 40101 57011 69902 81032 333 20020 31101 55003 81364 84080;MET045EINN 090600Z 10008KT CAVOK 03/02 Q1010 NOSIG;EQDQ01+000000PRSWM2
0235039620999992001010907004+52690-008910SY-MT+0020EINN V0201101N004010720019N0200001N1+00341+00241101001ADDGA1071+072009019GF107991001001999999001021MA1101021100761MD1610061+9999MW1001REMSYN076AAXX  09071 03962 42970 71104 10034 20024 30076 40100 56006 80002 333 87074;MET045EINN 090700Z 11007KT CAVOK 03/02 Q1010 NOSIG;EQDQ01+000000PRSWM2
0286039620999992001010908004+52690-008910SY-MT+0020EINN V0201101N005010570019N0200001N1+00271+00191101011ADDGA1021+009609999GA2071+057009999GF199999011051012501001021MA1101021100771MD1610021+9999MW1001REMSYN082AAXX  09081 03962 42670 61105 10027 20019 30077 40101 56002 81502 333 81632 86069;MET058EINN 090800Z 11009KT 9999 FEW032 BKN190 03/02 Q1010 NOSIG;EQDQ01+000062SCOTCVQ02+000000PRSWM2
0257039620999992001010909004+52690-008910SY-MT+0020EINN V0201101N005010630019N0200001N1+00341+00241101021ADDGA1011+030009079GA2071+063009019GF107991011001999999041021MA1101021100781MD1210011+9999MW1001REMSYN082AAXX  09091 03962 42970 71105 10034 20024 30078 40102 52001 81042 333 81360 87071;MET045EINN 090900Z 11009KT CAVOK 03/02 Q1010 NOSIG;EQDQ01+000000PRSWM2
0270039620999992001010910004+52690-008910SY-MT+0020EINN V0201001N004010600019N0200001N1+00361+00261101031ADDGA1021+012009999GA2071+060009999GF107991011061012501041061MA1101021100791MD1210031+9999MW1001REMSYN082AAXX  09101 03962 42670 71004 10036 20026 30079 40103 52003 81646 333 81640 87270;MET058EINN 091000Z 10007KT 9999 FEW040 BKN200 04/03 Q1010 NOSIG;EQDQ01+000000PRSWM2
0270039620999992001010911004+52690-008910SY-MT+0020EINN V0200901N004010600019N0200001N1+00361+00261101071ADDGA1021+009009999GA2071+060009999GF107991011051012501041061MA1101021100831MD1310061+9999MW1001REMSYN082AAXX  09111 03962 42670 70904 10036 20026 30083 40107 53006 81546 333 81630 87270;MET058EINN 091100Z 09006KT 9999 FEW030 BKN200 04/03 Q1010 NOSIG;EQDQ01+000000PRSWM2
0295039620999992001010912004+52690-008910SY-MT+0020EINN V0201101N002010540019N0180001N1+00421+00321101031ADDAA106000791GA1021+009009999GA2071+054009999GF107991021051012501001061MA1101021100791MD1010011+9999MW1001REMSYN088AAXX  09121 03962 12668 71102 10042 20032 30079 40103 50001 69901 82506 333 81630 87268;MET066EINN 091200Z 11004KT 060V150 9999 FEW030 BKN180 04/03 Q1010 NOSIG;EQDQ01+000000PRSWM2
0345039620999992001010913004+52690-008910SY-MT+0020EINN V0200901N004010600019N0180001N1+00531+00391101011ADDAY121999AY221999GA1021+007509999GA2021+010809999GA3071+060009999GF107991031081008001001061MA1101021100771MD1810021+9999MW1101REMSYN094AAXX  09131 03962 41568 70904 10053 20039 30077 40101 58002 71022 83806 333 81825 83636 87270;MET073EINN 091300Z 09006KT 340V120 9999 FEW025 SCT036 BKN200 05/04 Q1010 NOSIG;EQDQ01+000000PRSWM2Q02    003PRSWM1
0307039620999992001010914004+52690-008910SY-MT+0020EINN V0200801N004010450019N0200001N1+00631+00401100961ADDGA1021+006009999GA2071+045009999GA3071+060009999GF107991011081008001021061MA1100911100721MD1710111+9999MW1001REMSYN088AAXX  09141 03962 42570 70804 10063 20040 30072 40096 57011 81826 333 81820 85465 86270;MET073EINN 091400Z 08007KT 050V120 9999 FEW020 BKN150 BKN200 06/04 Q1009 NOSIG;EQDQ01+000000PRSWM2
0299039620999992001010915004+52690-008910SY-MT+0020EINN V0200901N005010450019N0250001N1+00641+00411100951ADDGA1021+006009999GA2071+045009999GA3071+060009999GF107991011081008001021011MA1100911100711MD1610081+9999MW1001REMSYN088AAXX  09151 03962 42575 70905 10064 20041 30071 40095 56008 81821 333 81820 86465 85070;MET065EINN 091500Z 09009KT 9999 FEW020 BKN150 BKN200 06/04 Q1009 NOSIG;EQDQ01+000000PRSWM2
0299039620999992001010916004+52690-008910SY-MT+0020EINN V0200501N004010600019N0200001N1+00551+00381100971ADDGA1021+012009999GA2021+030009999GA3071+060009999GF107991011051012501081011MA1100911100731MD1510041+9999MW1001REMSYN088AAXX  09161 03962 42670 70504 10055 20038 30073 40097 55004 81581 333 81640 83460 87070;MET065EINN 091600Z 05007KT 9999 FEW040 SCT100 BKN200 06/04 Q1009 NOSIG;EQDQ01+000000PRSWM2
0337039620999992001010917004+52690-008910SY-MT+0020EINN V0200601N004010450019N0150001N1+00491+00321100981ADDAY121999AY221999GA1021+001509999GA2021+030009999GA3071+045009999GF107991011061001501081011MA1100911100741MD1310021+9999MW1101REMSYN094AAXX  09171 03962 41265 70604 10049 20032 30074 40098 53002 71022 81681 333 81705 83460 87465;MET065EINN 091700Z 06008KT 9999 FEW005 SCT100 BKN150 05/03 Q1009 NOSIG;EQDQ01+000000PRSWM2Q02    003PRSWM1
0299039620999992001010918004+52690-008910SY-MT+0020EINN V0200401N004010540019N0200001N1+00421+00251101011ADDAA112000791GA1011+030009079GA2051+054009019GF105991011001999999031011KA1120M+00641MA1101021100771MD1210061+9999MW1001REMSYN100AAXX  09181 03962 12970 50404 10042 20025 30077 40101 52006 69902 81031 333 10064 81360 85068 99020;MET045EINN 091800Z 04007KT CAVOK 04/03 Q1010 NOSIG;EQDQ01+000000PRSWM2
0263039620999992001010919004+52690-008910SY-MT+0020EINN V0200201N003010600019N0200001N1+00331+00201101051ADDGA1011+030009079GA2051+060009019GF105991011001999999031011MA1101021100811MD1210081+9999MW1001REMSYN088AAXX  09191 03962 42970 50203 10033 20020 30081 40105 52008 81031 333 81360 85070 99020;MET045EINN 091900Z 02006KT CAVOK 03/02 Q1010 NOSIG;EQDQ01+000000PRSWM2
0257039620999992001010920004+52690-008910SY-MT+0020EINN V0200201N002010600019N0200001N1+00331+00201101081ADDGA1011+030009079GA2051+060009019GF105991011001999999031011MA1101021100841MD1210101+9999MW1001REMSYN082AAXX  09201 03962 42970 50202 10033 20020 30084 40108 52010 81031 333 81360 85070;MET045EINN 092000Z 02003KT CAVOK 03/02 Q1010 NOSIG;EQDQ01+000000PRSWM2
0257039620999992001010921004+52690-008910SY-MT+0020EINN V0200301N005012200019N0200001N1+00361+00211101101ADDGA1011+030009079GA2031+060009019GF103991011001999999031011MA1101081100861MD1210091+9999MW1001REMSYN082AAXX  09211 03962 42970 30305 10036 20021 30086 40110 52009 81031 333 81360 83070;MET045EINN 092100Z 03010KT CAVOK 04/02 Q1011 NOSIG;EQDQ01+000000PRSWM2
0235039620999992001010922004+52690-008910SY-MT+0020EINN V0200101N002010600019N0200001N1+00291+00131101131ADDGA1051+060009019GF105991001001999999001021MA1101081100891MD1210081+9999MW1001REMSYN076AAXX  09221 03962 42970 50102 10029 20013 30089 40113 52008 80002 333 85070;MET045EINN 092200Z 01004KT CAVOK 03/01 Q1011 NOSIG;EQDQ01+000000PRSWM2
0301039620999992001010923004+52690-008910SY-MT+0020EINN V0200101N005010600019N0070001N1+00221+00111101121ADDAY121999AY221999GA1071+060009999GF199999001001999999001021MA1101081100881MD1010041+9999MW1101REMSYN088AAXX  09231 03962 41957 50105 10022 20011 30088 40112 50004 71022 80002 333 85070 98270;MET051EINN 092300Z 01009KT 7000 BKN200 02/01 Q1011 NOSIG;EQDQ01+000052SCOTCVQ02+000000PRSWM2Q03    003PRSWM1
0216039620999992001011000004+52690-008910FM-12+0020EINN V0200101N004010600019N0035001N1+00211+00131101131ADDAA106000791AY111061AY211061GA1061+060009009GF106991001001999999001021MA1999999100891MD1110031+9999MW1101REMSYN100AAXX  10001 03962 11935 60104 10021 20013 30089 40113 51003 69901 71011 80002 333 86070 92600 98265;
0170039620999992001011000304+52690-008910FM-15+0020EINN V0200101N004110600019N0035001N1+00201+00201999999ADDGA1071+060009999GF107991999999999999999999MA1101081999999MW1101REMMET060EINN 100030Z 01008KT 3500W BR BKN200 02/02 Q1011 BECMG 6000;EQDQ01+000003PRSWM1Q02    003PRSWM1
0277039620999992001011001004+52690-008910SY-MT+0020EINN V0203601N003012200019N0030001N1+00171+00121101161ADDAY111999AY211999GA1021+060009999GF103991001001999999001021MA1101081100911MD1310021+9999MW1101REMSYN088AAXX  10011 03962 41930 33603 10017 20012 30091 40116 53002 71011 80002 333 83070 92600;MET059EINN 100100Z 36006KT 3000 BR SCT200 02/01 Q1011 BECMG 6000;EQDQ01    003PRSWM1
0277039620999992001011002004+52690-008910SY-MT+0020EINN V0200201N004012200019N0038001N1+00241+00161101171ADDAY111999AY211999GA1021+060009999GF104991001001999999001021MA1101081100921MD1210041+9999MW1101REMSYN088AAXX  10021 03962 41938 40204 10024 20016 30092 40117 52004 71011 80002 333 84070 92600;MET059EINN 100200Z 02008KT 3800 BR SCT200 02/02 Q1011 BECMG 6000;EQDQ01    003PRSWM1
0272039620999992001011003004+52690-008910SY-MT+0020EINN V0200201N004012200019N0046001N1+00211+00161101221ADDAY111031AY211031GA1021+060009999GF103991001001999999001021MA1101191100971MD1310081+9999MW1101REMSYN088AAXX  10031 03962 41946 30204 10021 20016 30097 40122 53008 71011 80002 333 83070 92600;MET054EINN 100300Z 02008KT 4600 BR SCT200 02/02 Q1012 NOSIG;EQDQ01    003PRSWM1
0272039620999992001011004004+52690-008910SY-MT+0020EINN V0200201N004012200019N0070001N1+00201+00151101221ADDAY111999AY211999GA1021+060009999GF104991001001999999001021MA1101191100971MD1210061+9999MW1101REMSYN088AAXX  10041 03962 41957 40204 10020 20015 30097 40122 52006 71011 80002 333 84070 92600;MET054EINN 100400Z 02008KT 7000 BR SCT200 07/02 Q1012 NOSIG;EQDQ01    003PRSWM1
0301039620999992001011005004+52690-008910SY-MT+0020EINN V0200101N006010600019N0070001N1+00201+00121101241ADDAY121999AY221999GA1071+060009999GF199999001001999999001021MA1101191100991MD1210071+9999MW1101REMSYN088AAXX  10051 03962 41957 50106 10020 20012 30099 40124 52007 71022 80002 333 85070 92600;MET051EINN 100500Z 01011KT 7000 BKN200 02/01 Q1012 NOSIG;EQDQ01+000052SCOTCVQ02+000000PRSWM2Q03    003PRSWM1
0359039620999992001011006004+52690-008910SY-MT+0020EINN V0200201N006010114019N0130001N1+00241+00081101291ADDAA112000791AY111061AY211061GA1071+011409999GF107991071051012501999999GJ100009IA1099IA2999-00109KA1120N+00151MA1101191101041MD1310071+9999MW1101REMSYN112AAXX  10061 03962 11663 70206 10024 20008 30104 40129 53007 69902 71011 875// 333 20015 31101 55000 87638 92600;MET051EINN 100600Z 02012KT 9999 BKN038 02/01 Q1012 NOSIG;EQDQ01+000000PRSWM2Q02    003PRSWM1
0330039620999992001011007004+52690-008910SY-MT+0020EINN V0200201N002010750019N0120001N1+00181+00071101341ADDAY121999AY221999GA1021+011409999GA2071+075009999GF199999011051012501031021MA1101291101091MD1210121+9999MW1101REMSYN094AAXX  10071 03962 41662 50202 10018 20007 30109 40134 52012 71022 81532 333 81638 85075 92600;MET058EINN 100700Z 02004KT 9999 FEW038 BKN250 02/01 Q1013 NOSIG;EQDQ01+000052SCOTCVQ02+000000PRSWM2Q03    003PRSWM1
0284039620999992001011008004+52690-008910SY-MT+0020EINN V0200401N003012200019N0160001N1+00241+00081101411ADDGA1021+009009999GA2021+075009999GF103991011051012501031021MA1101391101161MD1210171+9999MW1001REMSYN088AAXX  10081 03962 42666 30403 10024 20008 30116 40141 52017 81532 333 81630 83075 92600;MET066EINN 100800Z 04006KT 340V090 9999 FEW030 SCT250 02/01 Q1014 NOSIG;EQDQ01+000000PRSWM2
0255039620999992001011009004+52690-008910SY-MT+0020EINN V0200101N003012200019N0170001N1+00171+00041101481ADDGA1021+007509999GF102991011051008001031021MA1101391101241MD1210201+9999MW1001REMSYN082AAXX  10091 03962 42567 20103 10017 20004 30124 40148 52020 81532 333 81625 92600;MET059EINN 100900Z 01005KT 330V070 9999 FEW025 02/00 Q1014 NOSIG;EQDQ01+000000PRSWM2
0301039620999992001011010004+52690-008910SY-MT+0020EINN V0200201N003012200019N0120001N1+00131+00021101551ADDAY101999AY201999GA1021+004809999GF199999011051004501001021MA1101491101311MD1210221+9999MW1101REMSYN088AAXX  10101 03962 41462 10203 10013 20002 30131 40155 52022 71000 81502 333 81716 92600;MET051EINN 101000Z 02006KT 9999 FEW016 01/00 Q1015 NOSIG;EQDQ01+000012SCOTCVQ02+000000PRSWM2Q03    003PRSWM1
0295039620999992001011011004+52690-008910SY-MT+0020EINN V0200301N006012200019N0120001N1+00321+00141101621ADDAY101999AY201999GA1021+005409999GF199999011081004501001021MA1101591101381MD1210221+9999MW1101REMSYN082AAXX  10111 03962 41462 10306 10032 20014 30138 40162 52022 71000 81802 333 81818;MET051EINN 101100Z 03012KT 9999 FEW018 03/01 Q1016 NOSIG;EQDQ01+000012SCOTCVQ02+000000PRSWM2Q03    003PRSWM1
0274039620999992001011012004+52690-008910SY-MT+0020EINN V0200301N008012200019N0200001N1+00401+00201101661ADDAA106000791GA1021+005409999GF199999011081004501001021MA1101591101421MD1110181+9999MW1001REMSYN082AAXX  10121 03962 12470 10308 10040 20020 30142 40166 51018 69901 81802 333 81818;MET051EINN 101200Z 03015KT 9999 FEW018 04/02 Q1016 NOSIG;EQDQ01+000012SCOTCVQ02+000000PRSWM2
0241039620999992001011013004+52690-008910SY-MT+0020EINN V0200401N008012200019N0200001N1+00491+00241101651ADDGA1021+005409999GF102991021081004501001021MA1101591101411MD1010101+9999MW1001REMSYN076AAXX  10131 03962 42470 20408 10049 20024 30141 40165 50010 82802 333 81818;MET051EINN 101300Z 04016KT 9999 FEW018 05/02 Q1016 NOSIG;EQDQ01+000000PRSWM2
0272039620999992001011014004+52690-008910SY-MT+0020EINN V0200401N007010300019N0200001N1+00491+00241101691ADDGA1021+005409099GA2021+012009999GF105991041031004501051021MA1101591101451MD1210071+9999MW1001REMSYN082AAXX  10141 03962 42470 50407 10049 20024 30145 40169 52007 84352 333 82918 83640;MET060EINN 101400Z 05013KT 9999 FEW018CB SCT040 05/02 Q1016 NOSIG;EQDQ01+000000PRSWM2
0339039620999992001011015004+52690-008910SY-MT+0020EINN V0200401N007010150019N0200001N1+00501+00251101721ADDAY181031AY211031GA1021+004809999GA2021+005409099GA3071+015009999GF107991061031004501051999MA1101691101481MD1210061+9999MW1251REMSYN094AAXX  10151 03962 41470 70407 10050 20025 30148 40172 52006 72581 8635/ 333 81716 82918 85650;MET067EINN 101500Z 04013KT 9999 FEW016 FEW018CB BKN050 05/03 Q1017 NOSIG;EQDQ01+000000PRSWM2Q02    003PRSWM1
0317039620999992001011016004+52690-008910SY-MT+0020EINN V0200401N00501018001CN0200001N1+00471+00191101771ADDGA1021+005409099GA2021+012009999GA3071+018009999GF199999051031004501031021MA1101691101531MD1210121+9999MW1001REMSYN088AAXX  10161 03962 42470 60405 10047 20019 30153 40177 52012 85332 333 82918 83640 85656;MET067EINN 101600Z 04008KT 9999 FEW018CB SCT040 BKN060 05/02 Q1017 NOSIG;EQDQ01+000062SCOTCVQ02+000000PRSWM2
0308039620999992001011017004+52690-008910SY-MT+0020EINN V0200401N005012200019N0180001N1+00411+00181101841ADDAY101999AY201999GA1021+005409999GA2021+010509999GF103991031081004501001021MA1101801101601MD1310151+9999MW1101REMSYN088AAXX  10171 03962 41468 30405 10041 20018 30160 40184 53015 71000 83802 333 81818 83635;MET058EINN 101700Z 05009KT 9999 FEW018 SCT035 04/02 Q1018 NOSIG;EQDQ01+000000PRSWM2Q02    003PRSWM1
0344039620999992001011018004+52690-008910SY-MT+0020EINN V0200201N006010180019N0200001N1+00371+00141101891ADDAA112000791AY181061AY211061GA1021+006009999GA2071+018009999GF107991071081008001999999KA1120M+00561MA1101801101651MD1210171+9999MW1031REMSYN100AAXX  10181 03962 11570 70206 10037 20014 30165 40189 52017 69902 70381 878// 333 10056 81820 87656;MET058EINN 101800Z 02012KT 9999 FEW020 BKN060 04/01 Q1018 NOSIG;EQDQ01+000000PRSWM2Q02    003PRSWM1
0257039620999992001011019004+52690-008910SY-MT+0020EINN V0200301N006012200019N0200001N1+00341+00111101971ADDGA1021+006009999GF199999011051008001001001MA1101901101731MD1210201+9999MW1001REMSYN076AAXX  10191 03962 42570 10306 10034 20011 30173 40197 52020 81500 333 81620;MET051EINN 101900Z 03012KT 9999 FEW020 03/01 Q1019 NOSIG;EQDQ01+000012SCOTCVQ02+000000PRSWM2
0257039620999992001011020004+52690-008910SY-MT+0020EINN V0200201N006012200019N0250001N1+00291+00081102031ADDGA1021+006009999GF199999011051008001001001MA1102001101791MD1210191+9999MW1001REMSYN076AAXX  10201 03962 42575 10206 10029 20008 30179 40203 52019 81500 333 81620;MET051EINN 102000Z 02012KT 9999 FEW020 03/01 Q1020 NOSIG;EQDQ01+000012SCOTCVQ02+000000PRSWM2
0257039620999992001011021004+52690-008910SY-MT+0020EINN V0200301N006012200019N0250001N1+00281+00101102081ADDGA1021+009009999GF199999011051012501001001MA1102001101841MD1210191+9999MW1001REMSYN076AAXX  10211 03962 42675 10306 10028 20010 30184 40208 52019 81500 333 81630;MET051EINN 102100Z 03011KT 9999 FEW030 03/01 Q1020 NOSIG;EQDQ01+000012SCOTCVQ02+000000PRSWM2
0286039620999992001011022004+52690-008910SY-MT+0020EINN V0200201N00701015001CN0250001N1+00281+00101102121ADDGA1021+006009999GA2071+015009999GF199999051081008001001001MA1102101101881MD1210151+9999MW1001REMSYN082AAXX  10221 03962 42575 50207 10028 20010 30188 40212 52015 85800 333 81820 85656;MET058EINN 102200Z 02013KT 9999 FEW020 BKN055 03/01 Q1021 NOSIG;EQDQ01+000052SCOTCVQ02+000000PRSWM2
0286039620999992001011023004+52690-008910SY-MT+0020EINN V0200301N008010150019N0250001N1+00331+00091102161ADDGA1021+006009999GA2071+015009999GF199999061081008001001001MA1102101101921MD1210131+9999MW1001REMSYN082AAXX  10231 03962 42575 60308 10033 20009 30192 40216 52013 86800 333 81820 86650;MET058EINN 102300Z 03016KT 9999 FEW020 BKN050 03/01 Q1021 NOSIG;EQDQ01+000062SCOTCVQ02+000000PRSWM2
0303039620999992001011100004+52690-008910SY-MT+0020EINN V0200301N007010180019N0250001N1+00321+00061102201ADDAA106000791GA1021+006009999GA2071+018009999GF199999061081008001999999MA1102201101961MD1210121+9999MW1001REMSYN088AAXX  11001 03962 12575 60307 10032 20006 30196 40220 52012 69901 868// 333 81820 86656;MET058EINN 110000Z 03014KT 9999 FEW020 BKN060 03/01 Q1022 NOSIG;EQDQ01+000062SCOTCVQ02+000000PRSWM2
