0142039620999991976010100004+52683-008917SY-MT+0014EINN V0202601N00361012001CN0112001N1+00401+00301101981ADDAA106999929AA299000291AY151999GA1081+012009059GF108991081051012501999999MA1101901999999MD1210231+9999MW1601REMSYN011792// 88640MET006NOSIG?
0055039620999991976010100304+52683-008917FM-15+0014EINN V0202701N00151220001CN0112001N1+99999+99999999999ADDGA1031+010509059MA1101901999999MW1211REMMET006NOSIG?
0136039620999991976010101004+52683-008917SY-MT+0014EINN V0202201N00151012001CN0112001N1+00501+00301101971ADDAY161999GA1021+009009059GA2061+012009059GF107991071051012501999999MA1101901999999MD1110151+9999MW1211REMSYN01182630 86640MET006NOSIG?
0084039620999991976010101304+52683-008917FM-15+0014EINN V0202201N00361027001CN0112001N1+99999+99999999999ADDGA1031+009009059GA2071+027009049MA1101901999999REMMET006NOSIG?EQDQ01+000000PRSWM2
0155039620999991976010102004+52683-008917SY-MT+0014EINN V0202101N00201027001CN0112001N1+00501+00301101941ADDAY121999GA1031+012009059GA2081+027009049GF108991031051012501071999MA1101901999999MD1810031+9999MW1031REMSYN01183640 88459MET006NOSIG?EQDQ01+000000PRSWM2
0084039620999991976010102304+52683-008917FM-15+0014EINN V0202001N00251027001CN0112001N1+99999+99999999999ADDGA1021+012009059GA2081+027009049MA1101901999999REMMET006NOSIG?EQDQ01+000000PRSWM2
0155039620999991976010103004+52683-008917SY-MT+0014EINN V0202101N00361012001CN0112001N1+00401+00201101941ADDAY121999GA1051+012009059GA2081+027009049GF108991051051012501071999MA1101901999999MD1710041+9999MW1021REMSYN01185640 88459MET006NOSIG?EQDQ01+000000PRSWM2
0068039620999991976010103304+52683-008917FM-15+0014EINN V0201801N00201012001CN0112001N1+99999+99999999999ADDGA1081+012009059MA1101901999999REMMET006NOSIG?EQDQ01+000000PRSWM2
0133039620999991976010104004+52683-008917SY-MT+0014EINN V0201801N00361012001CN0112001N1+00401+00201101911ADDAY121999GA1081+012009059GF108991081051012501999999MA1101901999999MD1810061+9999MW1021REMSYN00588640MET006NOSIG?EQDQ01+000000PRSWM2
0068039620999991976010104304+52683-008917FM-15+0014EINN V0201801N00301013501CN0112001N1+99999+99999999999ADDGA1081+013509059MA1101801999999REMMET006NOSIG?EQDQ01+000000PRSWM2
0133039620999991976010105004+52683-008917SY-MT+0014EINN V0201201N00251013501CN0112001N1+00401+00301101871ADDAY121999GA1081+013509059GF108991081051012501999999MA1101801999999MD1810091+9999MW1021REMSYN00588645MET006NOSIG?EQDQ01+000000PRSWM2
0058039620999991976010105304+52683-008917FM-15+0014EINN V0201201N00361999991CY0099001N1+99999+99999999999ADDMA1101691999999REMMET012CAVOK NOSIG?EQDQ01+000000PRSWM2
0156039620999991976010106004+52683-008917SY-MT+0014EINN V0201401N00361015001CN0099001N1+00401+00301101731ADDAA199000291AY161999GA1081+015009059GF108991081051017501999999MA1101691999999MD1810211+9999MW1021REMSYN011792// 88650MET012CAVOK NOSIG?EQDQ01+000000PRSWM2
0071039620999991976010106304+52683-008917FM-15+0014EINN V0201701N00361006001CN0112001N1+99999+99999999999ADDGA1051+006009059GA2081+013509059MA1101691999999MW1601REMMET006NOSIG?
0055039620999991976010107004+52683-008917FM-15+0014EINN V0201701N00361006001CN0112001N1+00501+00301999999ADDGA1081+006009059MA1101591999999MW1601REMMET006NOSIG?
0055039620999991976010107304+52683-008917FM-15+0014EINN V0201601N00461006001CN0112001N1+99999+99999999999ADDGA1081+006009059MA1101591999999MW1611REMMET006NOSIG?
0114039620999991976010108004+52683-008917SY-MT+0014EINN V0201601N00511006001CN0112001N1+00501+00301101591ADDAY161999GA1081+006009059GF108991081051008001999999MA1101491999999MD1710281+9999MW1611REMSYN00588620MET006NOSIG?
0071039620999991976010108304+52683-008917FM-15+0014EINN V0201401N00611005101CN0112001N1+99999+99999999999ADDGA1051+005109079GA2081+009009049MA1101491999999MW1631REMMET006NOSIG?
0136039620999991976010109004+52683-008917SY-MT+0014EINN V0201301N00661007501CN0112001N1+00501+00301101431ADDAY161999GA1031+005109079GA2081+007509049GF108991031061004501021999MA1101391999999MD1810301+9999MW1611REMSYN01183717 88525MET006NOSIG?
0100039620999991976010109304+52683-008917FM-15+0014EINN V0201301N00771005401CN0112001N1+99999+99999999999ADDGA1021+003609079GA2051+005409079GA3081+009009049MA1101191999999MW1611REMMET019GRADU 3ST009 8ST015
0182039620999991976010110004+52683-008917SY-MT+0014EINN V0201401N00721005401CN0112001N1+00501+00401101161ADDAY161999GA1021+003009079GA2051+005409079GA3081+009009049GF108991061061004501021999MA1101081999999MD1710441+9999MW1611REMSYN01782712 85718 88530MET030TEMPO 3ST010     ?     7ST016?
0087039620999991976010110304+52683-008917FM-15+0014EINN V0201601N00971005401CN0112001N1+99999+99999999999ADDGA1031+003909079GA2051+005409079GA3081+009009049MA1101021999999MW1211REMMET006NOSIG?
0183039620999991976010111004+52683-008917SY-MT+0014EINN V0201701N00921005401CN0112001N1+00701+00501100931ADDAY161999GA1031+003609079GA2051+005409079GA3081+008109049GF108991051061004501021999MA1100911999999MD1710661+9999MW1601REMSYN01783712 85718 88530MET031TEMPO      ?     3ST009 8ST015?
0095039620999991976010111304+52683-008917FM-15+0014EINN V0201901N00921004501CN0040001N1+99999+99999999999ADDGA1031+003009079GA2051+004509079GA3081+007509049MA1100811999999MW1631REMMET014GRADU VIS 8KM?
0145039620999991976010112004+52683-008917FM-12+0014EINN V0201801N00881003901CN0040001N9+00801+00701100761ADDAA106006091AY161999GA1061+003909079GA2081+007509049GF108991061071004501021999MD1710661+9999MW1631REMSYN017706// 86713 88525EQDQ01  00603PRCP99
0079039620999991976010112304+52683-008917FM-15+0014EINN V0202401N00871004801CN0080001N1+99999+99999999999ADDGA1041+003609079GA2081+004809079MA1100611999999MW1611OC101381REMMET006NOSIG?
0172039620999991976010113004+52683-008917SY-MT+0014EINN V0202301N01281003001CN0040001N1+01101+01001100561ADDAY161999GA1051+003009079GA2081+004509079GF108991081071004501999999MA1100511999999MD1710671+9999MW1621REMSYN01785710 88715 98732MET036GRADU 8000 3ST010      ?     8ST015?
0085039620999991976010113304+52683-008917FM-15+0014EINN V0202401N01281003001CN0112001N1+99999+99999999999ADDGA1051+003009079GA2081+004509079MA1100411999999MW1621REMMET020TEMPO 3ST011 8ST018?
0141039620999991976010114004+52683-008917SY-MT+0014EINN V0202401N01381002701CN0035001N1+01101+01001100441ADDAY161999GA1051+002709079GA2081+003909079GF108991081071002501999999MA1100411999999MD1610481+9999MW1631REMSYN01185709 88713MET011GRADU 7000?
0106039620999991976010114304+52683-008917FM-15+0014EINN V0202401N01441004201CN0060001N1+99999+99999999999ADDGA1031+002709079GA2061+004209079GA3081+006009049MA1100311999999MW1631REMMET025TEMPO 2000 5ST006 8ST010?
0195039620999991976010115004+52683-008917SY-MT+0014EINN V0202401N01751004201CN0060001N1+01101+01001100361ADDAY161999GA1031+002709079GA2061+004209079GA3081+006009049GF108991061071002501021999MA1100311999999MD1610401+9999MW1631REMSYN03583709 86714 88520 91143 90015 91234MET025TEMPO 2000 5ST006 8ST010?
0087039620999991976010115304+52683-008917FM-15+0014EINN V0202401N01691003601CN0025001N1+99999+99999999999ADDGA1031+001809079GA2061+003609079GA3081+004809079MA1100311999999MW1631REMMET006NOSIG?
0193039620999991976010116004+52683-008917FM-12+0014EINN V0202401N017519999999N9999999N9+99999+99999999999ADDGF108991999999999999999999REMSYN155'@@98'@@@@@'@@@@'@?@@@'@@@@@'@@@@   '''''''@@91'@@@@@'@@@@'@9@@@'@@@@@'@@@@   '''''''@1! 8'@@@@@@@@'@@@@'@?@@@'@@@@@'@@@@596  03711 6732/ 10518 83707 86711
0071039620999991976010116304+52683-008917FM-15+0014EINN V0202501N01691003301CN0020001N1+99999+99999999999ADDGA1031+001809079GA2081+003309079MA1100311999999MW1591REMMET006NOSIG?
0169039620999991976010117004+52683-008917SY-MT+0014EINN V0202401N01691003601CN0040001N1+01101+01001100381ADDAY161999GA1031+002409079GA2061+003609079GA3081+005409049GF108991061071002501021999MA1100311999999MD1610061+9999MW1581REMSYN02383708 86712 88520 91143MET011TEMPO 2500?
0119039620999991976010117304+52683-008917FM-15+0014EINN V0202501N01691003001CN9999999N9+99999+99999999999ADDGA1031+002109079GA2041+003009079GA3081+004509079MA1100311999999MW1591OC102211REMMET011TEMPO 2500?EQDQ01+000002VOVAR 
0194039620999991976010118004+52683-008917SY-MT+0014EINN V0202501N01641003001CN0040001N1+01101+01101100351ADDAA199013091AY161999GA1031+001809079GA2051+003009079GA3081+003909079GF108991081071002501999999MA1100311999999MD1810011+9999MW1591OC102311REMSYN029713// 83706 85710 88713 91145MET011TEMPO 2500?
0100039620999991976010118304+52683-008917FM-15+0014EINN V0202601N01751002401CN0040001N1+99999+99999999999ADDGA1021+001809079GA2031+002409079GA3051+003909079MA1100311999999MW1581OC102261REMMET011TEMPO 2500?
0194039620999991976010119004+52683-008917SY-MT+0014EINN V0202601N01641003601CN0060001N1+01101+01001100501ADDAY151999GA1021+002409079GA2051+003609079GA3051+005409079GF107991071071002501999999MA1100411999999MD1310121+9999MW1211OC102311REMSYN02982708 85712 85718 91151 90093MET022TEMPO      ?     4000?
0126039620999991976010119304+52683-008917FM-15+0014EINN V0202601N01441003601CN0060001N1+99999+99999999999ADDGA1021+002409079GA2051+003609079GA3081+007509059MA1100511999999MW1581OC102001REMMET037TEMPO 4000       ?     4ST006 8ST010?
0208039620999991976010120004+52683-008917SY-MT+0014EINN V0202701N01231003601CN0070001N1+01101+00901100761ADDAY161999GA1011+002409079GA2061+003609079GA3081+005409079GF108991081061002501999999MA1100711999999MD1310381+9999MW1581OC101751REMSYN02981708 86712 88718 91144 90019MET036TEMPO      ?     4000 3ST005 8ST008?
0087039620999991976010120304+52683-008917FM-15+0014EINN V0202701N01021003001CN0070001N1+99999+99999999999ADDGA1021+002409079GA2051+003009079GA3081+004809079MA1100811999999MW1581REMMET006NOSIG?
0136039620999991976010121004+52683-008917SY-MT+0014EINN V0202801N00511003901CN0112001N1+01001+00801100951ADDAY151999GA1021+003009079GA2071+003909079GF107991071061004501999999MA1100911999999MD1310601+9999MW1211REMSYN01182710 87713MET006NOSIG?
0071039620999991976010121304+52683-008917FM-15+0014EINN V0202901N00661004801CN0112001N1+99999+99999999999ADDGA1021+003609079GA2081+004809079MA1101021999999MW1211REMMET006NOSIG?
0155039620999991976010122004+52683-008917SY-MT+0014EINN V0202901N00661004801CN0112001N1+00901+00701101091ADDAY121999GA1021+003609079GA2081+004809079GF108991081061004501999999MA1101021999999MD1210591+9999MW1031REMSYN01182712 88716MET006NOSIG?EQDQ01+000000PRSWM2
0084039620999991976010122304+52683-008917FM-15+0014EINN V0202901N00771004501CN0112001N1+99999+99999999999ADDGA1031+003609079GA2081+004509079MA1101081999999REMMET006NOSIG?EQDQ01+000000PRSWM2
0155039620999991976010123004+52683-008917SY-MT+0014EINN V0203001N00461004801CN0112001N1+00801+00601101191ADDAY121999GA1031+003609079GA2081+004809079GF108991081061004501999999MA1101081999999MD1210431+9999MW1021REMSYN01183712 88716MET006NOSIG?EQDQ01+000000PRSWM2
0084039620999991976010123304+52683-008917FM-15+0014EINN V0202901N00361004801CN0112001N1+99999+99999999999ADDGA1021+003609079GA2081+004809079MA1101191999999REMMET006NOSIG?EQDQ01+000000PRSWM2
0166039620999991976010200004+52683-008917SY-MT+0014EINN V0203101N00251004201CN0112001N1+00801+00501101321ADDAA106001091AY161999GA1081+004209079GF108991081061004501999999MA1101291999999MD1210371+9999MW1021REMSYN011701// 88714MET006NOSIG?EQDQ01+000000PRSWM2Q02  00103PRCP99
0084039620999991976010200304+52683-008917FM-15+0014EINN V0203001N00151003901CN0112001N1+99999+99999999999ADDGA1021+003309079GA2071+003909079MA1101291999999REMMET006NOSIG?EQDQ01+000000PRSWM2
0155039620999991976010201004+52683-008917SY-MT+0014EINN V0203001N00151004501CN0112001N1+00701+00601101381ADDAY121999GA1041+003909079GA2071+004509079GF108991081061004501999999MA1101291999999MD1110281+9999MW1021REMSYN01184713 87715MET006NOSIG?EQDQ01+000000PRSWM2
0085039620999991976010201304+52683-008917FM-15+0014EINN V0202901N00151018001CN0112001N1+99999+99999999999ADDGA1031+004509079GA2071+018009059MA1101291999999MW1211REMMET020GRADU 3ST012 8ST015?
0136039620999991976010202004+52683-008917SY-MT+0014EINN V0209991C00001004501CN0112001N1+00701+00601101271ADDAY161999GA1061+004509079GA2071+015009059GF108991081061004501999999MA1101191999999MD1010071+9999MW1211REMSYN01186715 87650MET006NOSIG?
0082039620999991976010202304+52683-008917FM-15+0014EINN V0209991C00001004501CN0112001N1+99999+99999999999ADDGA1081+004509079MA1101191999999REMMET020GRADU 4ST010 8ST015?EQDQ01+000000PRSWM2
0150039620999991976010203004+52683-008917SY-MT+0014EINN V0201601N00251003901CN0112001N1+00701+00601101241ADDAY161999GA1051+003909079GA2051+008409059GF108991081061004501999999MA1101191999999MD1810091+9999MW1601REMSYN01185713 85628MET020GRADU 4ST010 8ST015?
0118039620999991976010204004+52683-008917FM-15+0014EINN V0201401N00251003301CN0080001N1+00701+00601999999ADDGA1021+002109079GA2051+003309079GA3071+006009059MA1101081999999MW1611REMMET037TEMPO 5000       ?     5ST007 8ST010?
0141039620999991976010205004+52683-008917SY-MT+0014EINN V0201301N00361002701CN0080001N1+00701+00701101041ADDAY161999GA1031+002109079GA2081+002709079GF108991081071002501999999MA1101021999999MD1810231+9999MW1611REMSYN01183707 88709MET011TEMPO 5000?
0087039620999991976010205304+52683-008917FM-15+0014EINN V0201201N00301002101CN0050001N1+99999+99999999999ADDGA1021+001509079GA2061+002109079GA3081+002709079MA1100911999999MW1631REMMET006NOSIG?
0175039620999991976010206004+52683-008917SY-MT+0014EINN V0202001N00511002101CN0050001N1+01001+00901100921ADDAA199004091AY161999GA1021+001509079GA2061+002109079GA3081+002709079GF108991081071001501999999MA1100911999999MD1810321+9999MW1611REMSYN023704// 82705 86707 88709MET006NOSIG?
0117039620999991976010206304+52683-008917FM-15+0014EINN V0202101N00461002401CN0080001N1+99999+99999999999ADDGA1011+001509079GA2051+002409079GA3081+003009079MA1100811999999MW1611REMMET036TEMPO 5000 5ST006      ?     8ST010?
0189039620999991976010207004+52683-008917SY-MT+0014EINN V0202301N00871003901CN0112001N1+01101+01001100791ADDAY161999GA1031+002709079GA2061+003909079GA3081+007509059GF108991081071002501999999MA1100711999999MD1710381+9999MW1611REMSYN01783709U86713 88625MET037TEMPO 5000       ?     6ST005 8ST010?
0189039620999991976010208004+52683-008917SY-MT+0014EINN V0202201N01021004501CN0080001N1+01201+01001100661ADDAY161999GA1031+002709079GA2051+004509079GA3071+005709079GF108991081061002501999999MA1100611999999MD1710371+9999MW1611REMSYN01783709 85715 87719MET037TEMPO 5000       ?     5ST006 8ST010?
0182039620999991976010209004+52683-008917SY-MT+0014EINN V0202201N00871004501CN0080001N1+01101+01001100531ADDAY161999GA1021+002709079GA2061+004509079GA3081+007509049GF108991071071002501021999MA1100511999999MD1710381+9999MW1631REMSYN01782709 86715 88525MET030TEMPO 5ST006     ?     8ST010?
0111039620999991976010209304+52683-008917FM-15+0014EINN V0202201N01021005101CN0080001N1+99999+99999999999ADDGA1021+003009079GA2051+005109079GA3081+006909049MA1100411999999MW1631REMMET030TEMPO 5ST006     ?     8ST010?
0188039620999991976010210004+52683-008917SY-MT+0014EINN V0202201N01281004501CN0060001N1+01101+01001100321ADDAY161999GA1021+002709079GA2051+004509079GA3081+006609049GF108991061071002501021999MA1100311999999MD1710471+9999MW1581REMSYN01782709 85715 88522MET036TEMPO      ?     4000 5ST006 8ST010?
0126039620999991976010210304+52683-008917FM-15+0014EINN V0202201N01281004501CN0050001N1+99999+99999999999ADDGA1021+002709079GA2051+004509079GA3081+006609049MA1100101999999MW1581OC101801REMMET037TEMPO 4000       ?     5ST006 8ST010?
0160039620999991976010211004+52683-008917SY-MT+0014EINN V0202201N01281004501CN0035001N1+01101+01101100151ADDAY161999GA1041+002409079GA2081+004509079GF108991081071002501999999MA1100101999999MD1710511+9999MW1581REMSYN01184708 88715MET030TEMPO 5ST005     ?     8ST010?
0109039620999991976010211304+52683-008917FM-15+0014EINN V0202201N01381004501CN0040001N1+99999+99999999999ADDGA1041+002409079GA2081+004509079MA1100001999999MW1581OC102111REMMET036TEMPO 2000 5ST005      ?     8ST010?
0167039620999991976010212004+52683-008917FM-12+0014EINN V0202301N01541005401CN0150001N9+01201+01101099951ADDAA106007091AY151999GA1021+003009079GA2051+005409079GA3081+006609059GF108991081071004501999999MD1710581+9999MW1211REMSYN023707// 82710 85718 88622EQDQ01  00703PRCP99
0076039620999991976010212304+52683-008917FM-15+0014EINN V0202301N01801004501CN0090001N1+99999+99999999999ADDGA1041+002409079GA2081+004509079MA1099801999999MW1601REMMET011TEMPO 4000?
0088039620999991976010213004+52683-008917FM-15+0014EINN V0202301N01801003601CN0040001N1+01201+01101999999ADDGA1021+002409079GA2051+003609079GA3081+005409079MA1099701999999MW1581REMMET007NOSIG ?
0100039620999991976010213304+52683-008917FM-15+0014EINN V0202301N01691003601CN0060001N1+99999+99999999999ADDGA1021+002409079GA2051+003609079GA3081+006009059MA1099591999999MW1211REMMET019TEMPO 5ST005 8ST010
0186039620999991976010214004+52683-008917SY-MT+0014EINN V0202301N01851003601CN0112001N1+01301+01101099481ADDAY161999GA1061+003609079GA2081+006009059GF108991081071004501999999MA1099391999999MD1710661+9999MW1601OC102671REMSYN02386712 88620 91152 90014MET036TEMPO 4000 3ST005      ?     6ST010?
0092039620999991976010214304+52683-008917FM-15+0014EINN V0202301N01901006001CN0112001N1+99999+99999999999ADDGA1041+004509079GA2071+006009089MA1099291999999MW1211OC102671REMMET019TEMPO 3ST007 5ST015
0162039620999991976010215004+52683-008917SY-MT+0014EINN V0202301N02051004201CN0112001N1+01301+01001099241ADDAY161999GA1051+004209079GA2071+006609089GF107991071021004501999999MA1099191999999MD1710701+9999MW1801OC102671REMSYN02985714 87822 91156 90014 91243MET006NOSIG?
0079039620999991976010215304+52683-008917FM-15+0014EINN V0202301N01851004201CN0070001N1+99999+99999999999ADDGA1051+004209079GA2071+007209089MA1099091999999MW1801OC102521REMMET006NOSIG?
0162039620999991976010216004+52683-008917SY-MT+0014EINN V0202501N02411003901CN0050001N1+01201+00801099031ADDAY181999GA1051+003909079GA2071+006609089GF107991071021004501999999MA1098981999999MD1710711+9999MW1251OC103391REMSYN02985713 87822 91176 90065 91252MET006NOSIG?
0084039620999991976010216304+52683-008917FM-15+0014EINN V0202401N02471003901CN0040001N1+99999+99999999999ADDGA1061+003909079GA2071+006609089MA1098921999999MW1251OC103701REMMET011TEMPO 9000?
0186039620999991976010217004+52683-008917SY-MT+0014EINN V0202601N02411003601CN0040001N1+01101+00701099101ADDAY121999GA1061+003609079GA2081+006009059GF108991081061004501999999MA1099091999999MD1510381+9999MW1031OC103441REMSYN02986712 88620 91177 90016 91253MET011TEMPO 9000?EQDQ01+000000PRSWM2
0097039620999991976010217304+52683-008917FM-15+0014EINN V0202901N02411003601CN0040001N1+99999+99999999999ADDGA1061+003609079GA2081+006009059MA1099391999999OC103801REMMET011TEMPO 9000?EQDQ01+000000PRSWM2
0204039620999991976010218004+52683-008917SY-MT+0014EINN V0203001N01951006001CN0070001N1+00901+00501099821ADDAA199008091AY181999GA1021+003609079GA2061+006009059GF106991061051004501999999MA1099801999999MD1310571+9999MW1011OC103701REMSYN041708// 82712 86620 94000 91174 90067 91247MET006NOSIG?EQDQ01+000000PRSWM2
0076039620999991976010218304+52683-008917FM-15+0014EINN V0203001N01751007501CN0090001N1+99999+99999999999ADDGA1071+007509059MA1100201999999OC102771REMMET006NOSIG?EQDQ01+000000PRSWM2
0137039620999991976010219004+52683-008917FM-12+0014EINN V0203001N01701012001CN0100001N9+00901+00501100431ADDAY181999GA1031+007509089GA2041+012009059GA3011+007509099GF105991051031008001999999MD1311391+9999MW1801REMSYN02383825 84640 81925 91154
0140039620999991976010220004+52683-008917SY-MT+0014EINN V0203001N01591220001CN0112001N1+00801+00401100691ADDAY181999GA1021+007509099GF102991021031008001001001MA1100611999999MD1211581+9999MW1801OC102411REMSYN02382925 91151 90069 91234MET006NOSIG?
0063039620999991976010220304+52683-008917FM-15+0014EINN V0202901N01131220001CN0112001N1+99999+99999999999ADDGA1021+007509099MA1100811999999MW1251OC101751REMMET006NOSIG?
0105039620999991976010221004+52683-008917FM-12+0014EINN V0203001N01291220001CN0150001N9+00701+00401100931ADDAY181999GA1021+007509099GF102991021031008001001001MD1211111+9999MW1251REMSYN02382925 91144 90045 91233
0063039620999991976010221304+52683-008917FM-15+0014EINN V0203001N01131220001CN0112001N1+99999+99999999999ADDGA1021+007509099MA1101021999999MW1801OC101691REMMET006NOSIG?
0148039620999991976010222004+52683-008917SY-MT+0014EINN V0202901N01231009601CN0112001N1+00701+00401101191ADDAY181999GA1031+007509099GA2071+009609059GF107991071031008001999999MA1101081999999MD1210761+9999MW1801REMSYN02383925 87632 91136 90021MET006NOSIG?
0063039620999991976010222304+52683-008917FM-15+0014EINN V0202901N01441220001CN0112001N1+99999+99999999999ADDGA1031+007509099MA1101191999999MW1251OC102001REMMET006NOSIG?
0118039620999991976010223004+52683-008917FM-12+0014EINN V0202901N013419999999N0200001N9+00601+00201101381ADDAY181999GA1031+007509099GF107991999031008001001001MD1210681+9999MW1251REMSYN01783925 91142 90072EQDQ01+000032SCOTLC
0071039620999991976010223304+52683-008917FM-15+0014EINN V0203001N01281009901CN0112001N1+99999+99999999999ADDGA1041+007509099GA2071+009909059MA1101491999999MW1251REMMET006NOSIG?
0172039620999991976010300004+52683-008917SY-MT+0014EINN V0203201N01021005701CN0112001N1+00701+00201101391ADDAA106000591AY181999GA1051+005709099GA2081+009009059GF108991081031004501999999MA1101491999999MD1210651+9999MW1801REMSYN017795// 85919 88630MET006NOSIG?EQDQ01  00053PRCP99
0084039620999991976010300304+52683-008917FM-15+0014EINN V0202901N00971006601CN0112001N1+99999+99999999999ADDGA1021+004509079GA2031+006609099MA1101591999999REMMET006NOSIG?EQDQ01+000000PRSWM2
0109039620999991976010301004+52683-008917FM-12+0014EINN V0202901N00981220001CN0200001N9+00601+00301101681ADDAY121999GA1021+005109079GA2041+007509089GF104991041021004501999999MD1210481+9999MW1011REMSYN01182717 84825
0087039620999991976010302004+52683-008917FM-12+0014EINN V0203001N00931220001CN0200001N9+00601+00101101751ADDAY111999GA1011+006009099GF102991021031008001001001MD1210371+9999MW1011REMSYN00581920
0131039620999991976010303004+52683-008917FM-12+0014EINN V0202901N00771009001CN0150001N9+00601+00301101901ADDAY181999GA1011+002409079GA2031+005409089GA3051+009009059GF105991051081002501999999MD1210311+9999MW1801REMSYN01781708 83818 85630
0076039620999991976010303304+52683-008917FM-15+0014EINN V0203001N00821220001CN0112001N1+99999+99999999999ADDGA1021+005709089MA1101901999999OC101591REMMET006NOSIG?EQDQ01+000000PRSWM2
0136039620999991976010304004+52683-008917SY-MT+0014EINN V0203001N01081220001CN0112001N1+00601+00101101991ADDAY181999GA1011+003009079GA2031+006009089GF104991041081004501001001MA1101901999999MD1210311+9999MW1801REMSYN01181710 83820MET006NOSIG?
0143039620999991976010305004+52683-008917FM-12+0014EINN V0203001N01081006001CN0200001N9+00501+00301102101ADDAY181999GA1031+003309079GA2061+006009099GA3041+006009099GF107991071031004501999999MD1210351+9999MW1801REMSYN02983711 86920 84920 91135 90079
0104039620999991976010306004+52683-008917FM-12+0014EINN V0203201N00771220001CN0250001N9+00601+00101102281ADDAA199002091AY181999GA1021+006009099GF102991021031008001001001MD1210281+9999MW1251REMSYN011702// 82920
0069039620999991976010306304+52683-008917FM-15+0014EINN V0203101N00821220001CN0112001N1+99999+99999999999ADDGA1011+006009099MA1102201999999REMMET007NOSIG ?EQDQ01+000000PRSWM2
0134039620999991976010307004+52683-008917SY-MT+0014EINN V0203101N00661220001CN0112001N1+00601+00201102281ADDAY101999GA1011+006009099GF101991011031008001001001MA1102201999999MD1210291+9999MW1011REMSYN00581920MET007NOSIG ?EQDQ01+000000PRSWM2
0070039620999991976010307304+52683-008917FM-15+0014EINN V0203101N00611220001CN0112001N1+99999+99999999999ADDGA1011+006009099REMMET007NOSIG ?EQDQ01+030503APOA  Q02+000000PRSWM2
0141039620999991976010308004+52683-008917SY-MT+0014EINN V0203101N00771220001CN0112001N1+00501+00101102351ADDAY101999GA1021+006009099GF103991031031008001001001MA1102301999999MD1210251+9999MW1031OC101591REMSYN00582920MET006NOSIG?EQDQ01+000000PRSWM2
0084039620999991976010308304+52683-008917FM-15+0014EINN V0203201N00611015001CN0112001N1+99999+99999999999ADDGA1021+006009099GA2031+015009059MA1102301999999REMMET006NOSIG?EQDQ01+000000PRSWM2
0155039620999991976010309004+52683-008917SY-MT+0014EINN V0203101N00511015001CN0112001N1+00501+00201102441ADDAY111999GA1011+006009089GA2041+015009059GF106991041081008001031021MA1102401999999MD1210261+9999MW1031REMSYN01181820 84650MET006NOSIG?EQDQ01+000000PRSWM2
0084039620999991976010309304+52683-008917FM-15+0014EINN V0203101N00561220001CN0112001N1+99999+99999999999ADDGA1011+006009089GA2031+015009059MA1102511999999REMMET006NOSIG?EQDQ01+000000PRSWM2
0155039620999991976010310004+52683-008917SY-MT+0014EINN V0203101N00361015001CN0112001N1+00501+00201102611ADDAY121999GA1021+006009089GA2031+015009059GF106991041081008001031021MA1102611999999MD1310331+9999MW1021REMSYN01182820 83650MET006NOSIG?EQDQ01+000000PRSWM2
0084039620999991976010310304+52683-008917FM-15+0014EINN V0203201N00411012001CN0112001N1+99999+99999999999ADDGA1021+006009089GA2031+012009059MA1102611999999REMMET006NOSIG?EQDQ01+000000PRSWM2
0155039620999991976010311004+52683-008917SY-MT+0014EINN V0203101N00611030001CN0112001N1+00601+00201102691ADDAY121999GA1011+006009089GA2031+013509059GF106991041081008001031021MA1102611999999MD1210341+9999MW1021REMSYN01181820 83645MET006NOSIG?EQDQ01+000000PRSWM2
0084039620999991976010311304+52683-008917FM-15+0014EINN V0203201N00511220001CN0112001N1+99999+99999999999ADDGA1011+006009089GA2041+013509059MA1102711999999REMMET006NOSIG?EQDQ01+000000PRSWM2
0172039620999991976010312004+52683-008917SY-MT+0014EINN V0203101N00361015001CN0112001N1+00701+00101102771ADDAA199000091AY121999GA1011+006009089GA2051+015009059GF107991061081008001031021MA1102711999999MD1210321+9999MW1031REMSYN017700// 81820 85650MET006NOSIG?EQDQ01+000000PRSWM2
0084039620999991976010312304+52683-008917FM-15+0014EINN V0203301N00301015001CN0112001N1+99999+99999999999ADDGA1011+006009089GA2051+015009059MA1102711999999REMMET006NOSIG?EQDQ01+000000PRSWM2
0177039620999991976010313004+52683-008917SY-MT+0014EINN V0203301N00361075001CN0112001N1+00701+00101102761ADDAY121999GA1011+006009089GA2031+015009059GA3051+075009009GF107991041081008001031021MA1102711999999MD1010151+9999MW1011REMSYN01781820 83650 85075MET006NOSIG?EQDQ01+000000PRSWM2
0100039620999991976010313304+52683-008917FM-15+0014EINN V0203301N00251060001CN0112001N1+99999+99999999999ADDGA1011+006009089GA2031+015009059GA3061+060009059MA1102711999999REMMET006NOSIG?EQDQ01+000000PRSWM2
0177039620999991976010314004+52683-008917SY-MT+0014EINN V0203201N00251030001CN0112001N1+00701+00101102771ADDAY121999GA1011+009009059GA2031+015009059GA3061+030009049GF107991031051012501071061MA1102711999999MD1110081+9999MW1021REMSYN01781630 83650 86460MET006NOSIG?EQDQ01+000000PRSWM2
0100039620999991976010314304+52683-008917FM-15+0014EINN V0203301N00201030001CN0112001N1+99999+99999999999ADDGA1011+009009059GA2031+015009059GA3071+030009049MA1102711999999REMMET006NOSIG?EQDQ01+000000PRSWM2
0177039620999991976010315004+52683-008917SY-MT+0014EINN V0203201N00151030001CN0112001N1+00701+00101102801ADDAY121999GA1011+009009059GA2041+015009059GA3071+030009049GF107991041051012501071081MA1102711999999MD1310031+9999MW1021REMSYN01781630 84650 87460MET006NOSIG?EQDQ01+000000PRSWM2
0100039620999991976010315304+52683-008917FM-15+0014EINN V0203001N00151030001CN0112001N1+99999+99999999999ADDGA1011+009009059GA2031+015009059GA3071+030009049MA1102711999999REMMET006NOSIG?EQDQ01+000000PRSWM2
0177039620999991976010316004+52683-008917SY-MT+0014EINN V0203001N00101030001CN0112001N1+00601+00301102801ADDAY121999GA1011+009009059GA2031+015009059GA3051+030009049GF107991031051012501071081MA1102711999999MD1110041+9999MW1011REMSYN01781630 83650 85460MET006NOSIG?EQDQ01+000000PRSWM2
0058039620999991976010316304+52683-008917FM-15+0014EINN V0203001N00101999991CY0099001N1+99999+99999999999ADDMA1102811999999REMMET012CAVOK NOSIG?EQDQ01+000000PRSWM2
0161039620999991976010317004+52683-008917SY-MT+0014EINN V0203001N00101075001CN0099001N1+00501+00201102841ADDAY121999GA1021+015009059GA2031+030009039GF105991021051017501031021MA1102811999999MD1210071+9999MW1011REMSYN01182650 83360MET012CAVOK NOSIG?EQDQ01+000000PRSWM2
0058039620999991976010317304+52683-008917FM-15+0014EINN V0201901N00101999991CY0099001N1+99999+99999999999ADDMA1102811999999REMMET012CAVOK NOSIG?EQDQ01+000000PRSWM2
0190039620999991976010318004+52683-008917SY-MT+0014EINN V0201801N00101220001CN0099001N1+00501+00201102881ADDAA199999929AY111999GA1011+030009039GA2031+060009009GF103991011001999999031021MA1102811999999MD1210081+9999MW1011REMSYN029797// 81360 83070 94005 92000MET012CAVOK NOSIG?EQDQ01+000000PRSWM2
0058039620999991976010318304+52683-008917FM-15+0014EINN V0201901N00151999991CY0099001N1+99999+99999999999ADDMA1102811999999REMMET012CAVOK NOSIG?EQDQ01+000000PRSWM2
0161039620999991976010319004+52683-008917SY-MT+0014EINN V0201901N00201060001CN0099001N1+00501+00101102861ADDAY111999GA1031+030009039GA2061+060009029GF106991031001999999031061MA1102811999999MD1010061+9999MW1031REMSYN01183360 86270MET012CAVOK NOSIG?EQDQ01+000000PRSWM2
0058039620999991976010319304+52683-008917FM-15+0014EINN V0201901N00251999991CY0099001N1+99999+99999999999ADDMA1102811999999REMMET012CAVOK NOSIG?EQDQ01+000000PRSWM2
0161039620999991976010320004+52683-008917SY-MT+0014EINN V0201701N00201027001CN0099001N1+00501+00101102821ADDAY121999GA1021+015009059GA2071+027009049GF108991021051017501071999MA1102811999999MD1810021+9999MW1031REMSYN01182650 87459MET012CAVOK NOSIG?EQDQ01+000000PRSWM2
0058039620999991976010320304+52683-008917FM-15+0014EINN V0201701N00251999991CY0099001N1+99999+99999999999ADDMA1102811999999REMMET012CAVOK NOSIG?EQDQ01+000000PRSWM2
0161039620999991976010321004+52683-008917SY-MT+0014EINN V0201701N00251027001CN0099001N1+00501+00101102801ADDAY111999GA1031+021009059GA2081+027009049GF108991031051022501021999MA1102711999999MD1710081+9999MW1021REMSYN01183657 88459MET012CAVOK NOSIG?EQDQ01+000000PRSWM2
0058039620999991976010321304+52683-008917FM-15+0014EINN V0201601N00251999991CY0099001N1+99999+99999999999ADDMA1102811999999REMMET012CAVOK NOSIG?EQDQ01+000000PRSWM2
0161039620999991976010322004+52683-008917SY-MT+0014EINN V0201101N00201015001CN0099001N1+00501+00301102801ADDAY121999GA1061+015009059GA2081+024009049GF108991061051017501071999MA1102711999999MD1610061+9999MW1021REMSYN01186650 88458MET012CAVOK NOSIG?EQDQ01+000000PRSWM2
0055039620999991976010322304+52683-008917FM-15+0014EINN V0201301N00301015001CN0112001N1+99999+99999999999ADDGA1081+015009059MA1102711999999MW1601REMMET006NOSIG?
0120039620999991976010323004+52683-008917SY-MT+0014EINN V0201201N00411015001CN0099001N1+00501+00301102731ADDAY161999GA1081+015009059GF108991081051017501999999MA1102711999999MD1810091+9999MW1211REMSYN00588650MET012CAVOK NOSIG?
0071039620999991976010323304+52683-008917FM-15+0014EINN V0201201N00461007501CN0112001N1+99999+99999999999ADDGA1051+007509059GA2081+012009059MA1102611999999MW1601REMMET006NOSIG?
0165039620999991976010400004+52683-008917SY-MT+0014EINN V0201401N00411005701CN0060001N1+00501+00301102651ADDAA106999929AA299000291AY161999GA1051+005709079GA2081+007509059GF108991081061004501999999MA1102611999999MD1810151+9999MW1601REMSYN017792// 85719 88625MET007NOSIG ?
0085039620999991976010400304+52683-008917FM-15+0014EINN V0201201N00411007501CN0040001N1+99999+99999999999ADDGA1041+005409079GA2081+007509059MA1102511999999MW1611REMMET020TEMPO 3ST007 8ST012?
0183039620999991976010401004+52683-008917SY-MT+0014EINN V0201201N00411005401CN0045001N1+00501+00301102541ADDAY161999GA1021+004209079GA2051+005409079GA3081+009009049GF108991051061004501021999MA1102511999999MD1710261+9999MW1611REMSYN01782714 85718 88230MET031TEMPO      ?     3ST007 8ST012?
0071039620999991976010401304+52683-008917FM-15+0014EINN V0201101N00561007201CN0050001N1+99999+99999999999ADDGA1021+004509079GA2081+007209059MA1102401999999MW1611REMMET006NOSIG?
0143039620999991976010402004+52683-008917SY-MT+0014EINN V0201301N00661007201CN0050001N1+00501+00401102391ADDAY161999GA1021+004509079GA2081+007209079GF108991081051004501999999MA1102301999999MD1710341+9999MW1611REMSYN01182715 88624MET013GRADU 8ST012?
0078039620999991976010402304+52683-008917FM-15+0014EINN V0201301N00721007501CN0045001N1+99999+99999999999ADDGA1021+004509079GA2081+007509059MA1102301999999MW1611REMMET013GRADU 8ST012?
0183039620999991976010403004+52683-008917SY-MT+0014EINN V0201301N00671004501CN0040001N1+00601+00501102251ADDAY161999GA1031+002709079GA2051+004509079GA3081+007509059GF108991081061002501999999MA1102201999999MD1710401+9999MW1611REMSYN01783709 85715 88625MET031TEMPO      ?     5ST007 8ST012?
0093039620999991976010403304+52683-008917FM-15+0014EINN V0201401N00611002701CN0090001N1+99999+99999999999ADDGA1021+001809079GA2051+002709079GA3081+006909059MA1102101999999MW1611REMMET012TEMPO 4000M?
0162039620999991976010404004+52683-008917SY-MT+0014EINN V0201401N00611006901CN0080001N1+00701+00601102121ADDAY161999GA1031+001809079GA2081+006909059GA3081+006909059GF108991081071002501999999MA1102101999999MD1710421+9999MW1211REMSYN01783706 85710 88623MET010TEMPO4000?
0092039620999991976010404304+52683-008917FM-15+0014EINN V0201601N00611003301CN0112001N1+99999+99999999999ADDGA1031+002109079GA2061+003309079GA3081+006609059MA1102001999999MW1211REMMET011TEMPO 4000?
0137039620999991976010405004+52683-008917SY-MT+0014EINN V0201701N00771005101CN0112001N1+00801+00601102051ADDAY161999GA1031+003009079GA2081+005109079GF108991081061004501999999MA1102001999999MD1610331+9999MW1601REMSYN01183710 88717MET007NOSIG ?
0088039620999991976010405304+52683-008917FM-15+0014EINN V0201701N00561003301CN0060001N1+99999+99999999999ADDGA1021+002409079GA2051+003309079GA3081+004509079MA1102001999999MW1621REMMET007NOSIG ?
0154039620999991976010406004+52683-008917SY-MT+0014EINN V0201801N00511003301CN0050001N1+00801+00701101981ADDAA199008091AY161999GA1041+002409079GA2081+003309079GF108991081061002501999999MA1101901999999MD1710261+9999MW1631REMSYN017708// 84708 88711MET007NOSIG ?
0072039620999991976010406304+52683-008917FM-15+0014EINN V0201801N00361002701CN0050001N1+99999+99999999999ADDGA1041+002109079GA2081+002709079MA1101801999999MW1631REMMET007NOSIG ?
0159039620999991976010407004+52683-008917SY-MT+0014EINN V0202001N00511002701CN0040001N1+00901+00801101841ADDAY161999GA1031+001809079GA2051+002709079GA3081+003309079GF108991081071002501999999MA1101801999999MD1710271+9999MW1631REMSYN01783706 85709 88711MET007NOSIG ?
0088039620999991976010407304+52683-008917FM-15+0014EINN V0202301N00561002101CN0040001N1+99999+99999999999ADDGA1031+001509079GA2051+002109079GA3081+002709079MA1101801999999MW1611REMMET007NOSIG ?
0159039620999991976010408004+52683-008917SY-MT+0014EINN V0202401N00721002701CN0040001N1+00801+00801101821ADDAY161999GA1021+001809079GA2061+002709079GA3081+003309079GF108991081071002501999999MA1101801999999MD1610231+9999MW1611REMSYN01782706 86709 88711MET007NOSIG ?
0124039620999991976010408304+52683-008917FM-15+0014EINN V0202401N00721002701CN0090001N1+99999+99999999999ADDGA1021+001809079GA2041+002709079GA3081+003909079MA1101801999999MW1581REMMET043VIS 9999 SW      ?     GRADU 2ST009 6ST015?
0131039620999991976010409004+52683-008917FM-12+0014EINN V0202401N00821003001CN0060001N9+01001+00901101811ADDAY161999GA1031+002109079GA2051+003009079GA3081+005409079GF108991081071002501999999MD1610171+9999MW1581REMSYN01783707 85710 88718
0106039620999991976010409304+52683-008917FM-15+0014EINN V0202401N00721002701CN0028001N1+99999+99999999999ADDGA1031+001509079GA2051+002709079GA3081+003909079MA1101691999999MW1511REMMET025GRADU 5000 3ST009 6ST015?
0189039620999991976010410004+52683-008917SY-MT+0014EINN V0202401N00661002701CN0024001N1+00901+00901101791ADDAY161999GA1031+001509079GA2051+002709079GA3081+003609079GF108991081071001501999999MA1101691999999MD1710051+9999MW1511REMSYN01783705 85709 88712MET037GRADU 5000       ?     3ST009 8ST015?
0092039620999991976010410304+52683-008917FM-15+0014EINN V0202401N00771002401CN0035001N1+99999+99999999999ADDGA1021+001509079GA2051+002409079GA3081+003609079MA1101691999999MW1511REMMET011GRADU 9000?
0189039620999991976010411004+52683-008917SY-MT+0014EINN V0202401N00721002401CN0070001N1+01001+00901101781ADDAY151999GA1031+001509079GA2051+002409079GA3061+003609079GF108991081071001501999999MA1101801999999MD1710041+9999MW1511MW2581REMSYN01783705 85708 86712MET031GRADU      ?     2ST009 6ST015?
0085039620999991976010411304+52683-008917FM-15+0014EINN V0202501N00721001801CN0070001N1+99999+99999999999ADDGA1051+001809079GA2061+002409079MA1101691999999MW1511REMMET020GRADU 4ST008 8ST012?
0202039620999991976010412004+52683-008917SY-MT+0014EINN V0202501N00771001501CN0030001N1+01001+01001101781ADDAA106006091AY161999GA1051+001509079GA2081+002409079GF108991081071001501999999MA1101691999999MD1610031+9999MW1511REMSYN017706// 85705 88708MET036GRADU 7000 4ST008      ?     8ST012?EQDQ01  00603PRCP99
0089039620999991976010412304+52683-008917FM-15+0014EINN V0202501N00821001501CN0025001N1+99999+99999999999ADDGA1031+000909079GA2071+001509079MA1101691999999MW1511REMMET024GRADU 5000 4ST005 7ST008
0189039620999991976010413004+52683-008917SY-MT+0014EINN V0202501N00721000901CN0025001N1+01101+01001101781ADDAY151999GA1021+000609079GA2041+000909079GA3081+001509079GF108991081071000751999999MA1101691999999MD1610011+9999MW1511REMSYN01782702 84703 88705MET037GRADU 5000       ?     4ST005 7ST008?
0117039620999991976010413304+52683-008917FM-15+0014EINN V0202501N00721001201CN0030001N1+99999+99999999999ADDGA1021+000609079GA2051+001209079GA3081+001809079MA1101691999999MW1511REMMET036GRADU 5000 4ST005      ?     7ST008?
0189039620999991976010414004+52683-008917SY-MT+0014EINN V0202501N00721000901CN0028001N1+01101+01101101781ADDAY151999GA1031+000609079GA2051+000909079GA3081+001509079GF108991081071000751999999MA1101691999999MD1410001+9999MW1511REMSYN01783702 85703 88705MET037INTER 4000       ?     4ST005 7ST008?
0089039620999991976010414304+52683-008917FM-15+0014EINN V0202501N00661001201CN0026001N1+99999+99999999999ADDGA1041+000609079GA2081+001209079MA1101691999999MW1531REMMET024INTER 4000 4ST005 7ST008
0158039620999991976010415004+52683-008917SY-MT+0014EINN V0202501N00611001201CN0030001N1+01101+01101101741ADDAY151999GA1031+000609079GA2051+001209079GA3081+002109079GF108991081071000751999999MA1101691999999MD1810041+9999MW1511REMSYN01783702 85704 88707MET006NOSIG?
0087039620999991976010415304+52683-008917FM-15+0014EINN V0202501N00411001201CN0030001N1+99999+99999999999ADDGA1031+000609079GA2051+001209079GA3081+001809079MA1101691999999MW1511REMMET006NOSIG?
0131039620999991976010416004+52683-008917FM-12+0014EINN V0202501N00721000601CN0018001N9+01101+01001101771ADDAY151999GA1021+000309079GA2051+000609079GA3081+001209079GF108991081071000251999999MD1510011+9999MW1531REMSYN01782701 85702 88704
0076039620999991976010416304+52683-008917FM-15+0014EINN V0202601N00661000601CN0018001N1+99999+99999999999ADDGA1051+000609079GA2081+001209079MA1101691999999MW1531REMMET011GRADU 2500?
0189039620999991976010417004+52683-008917SY-MT+0014EINN V0202601N00661000601CN0018001N1+01001+01001101771ADDAY151999GA1021+000309079GA2061+000609079GA3081+001209079GF108991081071000251999999MA1101691999999MD1610011+9999MW1531REMSYN01782701 86702 88704MET037GRADU 2500       ?     3ST002 6ST004?
0148039620999991976010418004+52683-008917FM-12+0014EINN V0202501N00771001201CN0025001N9+01001+01001101771ADDAA199007091AY151999GA1021+000609079GA2051+001209079GA3081+001809079GF108991081071000751999999MD1210031+9999MW1511REMSYN023707// 82702 85704 88706
0117039620999991976010418304+52683-008917FM-15+0014EINN V0202501N00771001201CN0025001N1+99999+99999999999ADDGA1021+000609079GA2061+001209079GA3081+002109079MA1101691999999MW1511REMMET036TEMPO 1500 3ST001      ?     6ST002?
0195039620999991976010419004+52683-008917SY-MT+0014EINN V0202601N00771001201CN0025001N1+01001+01001101811ADDAY151999GA1021+000609079GA2041+001209079GA3081+002109079GF108991081071000751999999MA1101801999999MD1210041+9999MW1511REMSYN02382702 84704 88707 94000MET037TEMPO 1500       ?     3ST001 6ST002?
0117039620999991976010419304+52683-008917FM-15+0014EINN V0202501N00771001501CN0025001N1+99999+99999999999ADDGA1021+000609079GA2031+001509079GA3081+002709079MA1101801999999MW1511REMMET036TEMPO 1500 3ST001      ?     6ST002?
0182039620999991976010420004+52683-008917SY-MT+0014EINN V0202601N00821002401CN0030001N1+01001+01001101831ADDAY151999GA1021+001209079GA2051+002409079GA3081+004209079GF108991081071001501999999MA1101801999999MD1110061+9999MW1501REMSYN01782704 85708 88714MET030TEMPO 3ST002     ?     6ST003?
0111039620999991976010420304+52683-008917FM-15+0014EINN V0202501N00771002101CN0035001N1+99999+99999999999ADDGA1021+001209079GA2041+002109079GA3051+004509079MA1101801999999MW1201REMMET030TEMPO 3ST002     ?     6ST004?
0183039620999991976010421004+52683-008917SY-MT+0014EINN V0202601N00771002401CN0040001N1+01001+01001101821ADDAY151999GA1021+001509079GA2041+002409079GA3051+003609079GF107991071071001501999999MA1101801999999MD1210051+9999MW1201REMSYN01782705 84708 85712MET031TEMPO      ?     3ST002 6ST004?
0169039620999991976010422004+52683-008917SY-MT+0014EINN V0202601N00611002101CN0050001N1+01001+00901101861ADDAY121999GA1051+002109079GA2081+004509079GF108991081061002501999999MA1101801999999MD1310051+9999MW1101REMSYN01185707 88715MET020TEMPO 3ST003 8ST007?EQDQ01+000000PRSWM2
0098039620999991976010422304+52683-008917FM-15+0014EINN V0202601N00561012001CN0070001N1+99999+99999999999ADDGA1021+002709079GA2081+012009059MA1101801999999REMMET020TEMPO 3ST007 6ST015?EQDQ01+000000PRSWM2
0147039620999991976010423004+52683-008917SY-MT+0014EINN V0202501N00461010201CN0070001N1+01001+00901101881ADDAY121999GA1081+010209059GF108991081051012501999999MA1101801999999MD1310051+9999MW1101REMSYN00588634MET020TEMPO 3ST007 6ST015?EQDQ01+000000PRSWM2
0082039620999991976010423304+52683-008917FM-15+0014EINN V0202401N00301010201CN0112001N1+99999+99999999999ADDGA1081+010209059MA1101801999999REMMET020TEMPO 3ST010 8SC020?EQDQ01+000000PRSWM2
0161039620999991976010500004+52683-008917SY-MT+0014EINN V0202501N00411010201CN0112001N1+01001+00901101871ADDAA106000591AA299000491AY151999GA1081+010209059GF108991081051012501999999MA1101801999999MD1010051+9999MW1021REMSYN011794// 88634MET006NOSIG?EQDQ01+000000PRSWM2
0068039620999991976010500304+52683-008917FM-15+0014EINN V0202501N00411010501CN0112001N1+99999+99999999999ADDGA1081+010509059MA1101801999999REMMET006NOSIG?EQDQ01+000000PRSWM2
0133039620999991976010501004+52683-008917SY-MT+0014EINN V0202501N00511010501CN0112001N1+01001+00801101831ADDAY121999GA1081+010509059GF108991081051012501999999MA1101801999999MD1810031+9999MW1021REMSYN00588635MET006NOSIG?EQDQ01+000000PRSWM2
0068039620999991976010501304+52683-008917FM-15+0014EINN V0202601N00771010501CN0112001N1+99999+99999999999ADDGA1081+010509059MA1101801999999REMMET006NOSIG?EQDQ01+000000PRSWM2
0133039620999991976010502004+52683-008917SY-MT+0014EINN V0202501N00721010501CN0112001N1+01001+00801101821ADDAY121999GA1081+010509059GF108991081051012501999999MA1101801999999MD1710061+9999MW1021REMSYN00588635MET006NOSIG?EQDQ01+000000PRSWM2
0068039620999991976010502304+52683-008917FM-15+0014EINN V0202601N00661009001CN0112001N1+99999+99999999999ADDGA1071+009009059MA1101801999999REMMET006NOSIG?EQDQ01+000000PRSWM2
0133039620999991976010503004+52683-008917SY-MT+0014EINN V0202601N00661009001CN0112001N1+01001+00801101831ADDAY121999GA1081+009009059GF108991081051012501999999MA1101801999999MD1510041+9999MW1021REMSYN00588630MET006NOSIG?EQDQ01+000000PRSWM2
0068039620999991976010503304+52683-008917FM-15+0014EINN V0202501N00611009001CN0112001N1+99999+99999999999ADDGA1081+009009059MA1101801999999REMMET006NOSIG?EQDQ01+000000PRSWM2
0133039620999991976010504004+52683-008917SY-MT+0014EINN V0202501N00511009001CN0112001N1+01001+00801101861ADDAY121999GA1081+009009059GF108991081051012501999999MA1101801999999MD1310031+9999MW1021REMSYN00588630MET006NOSIG?EQDQ01+000000PRSWM2
0068039620999991976010504304+52683-008917FM-15+0014EINN V0202501N00611009001CN0112001N1+99999+99999999999ADDGA1081+009009059MA1101801999999REMMET006NOSIG?EQDQ01+000000PRSWM2
0133039620999991976010505004+52683-008917SY-MT+0014EINN V0202501N00611009001CN0112001N1+00901+00801101801ADDAY121999GA1081+009009059GF108991081051012501999999MA1101691999999MD1810021+9999MW1021REMSYN00588630MET006NOSIG?EQDQ01+000000PRSWM2
0068039620999991976010505304+52683-008917FM-15+0014EINN V0202401N00611009001CN0112001N1+99999+99999999999ADDGA1081+009009059MA1101691999999REMMET006NOSIG?EQDQ01+000000PRSWM2
0150039620999991976010506004+52683-008917SY-MT+0014EINN V0202301N00411009001CN0112001N1+00901+00801101801ADDAA199000491AY121999GA1081+009009059GF108991081051012501999999MA1101691999999MD1810031+9999MW1021REMSYN011794// 88630MET006NOSIG?EQDQ01+000000PRSWM2
0068039620999991976010506304+52683-008917FM-15+0014EINN V0202401N00301009001CN0112001N1+99999+99999999999ADDGA1081+009009059MA1101801999999REMMET006NOSIG?EQDQ01+000000PRSWM2
0133039620999991976010507004+52683-008917SY-MT+0014EINN V0202401N00301009001CN0112001N1+00901+00801101831ADDAY121999GA1081+009009059GF108991081051012501999999MA1101801999999MD1510031+9999MW1021REMSYN00588630MET006NOSIG?EQDQ01+000000PRSWM2
0068039620999991976010507304+52683-008917FM-15+0014EINN V0202401N00361009001CN0112001N1+99999+99999999999ADDGA1081+009009059MA1101801999999REMMET006NOSIG?EQDQ01+000000PRSWM2
0133039620999991976010508004+52683-008917SY-MT+0014EINN V0202401N00411010501CN0112001N1+00901+00701101841ADDAY121999GA1081+010509059GF108991081051012501999999MA1101801999999MD1310041+9999MW1021REMSYN00588635MET006NOSIG?EQDQ01+000000PRSWM2
0068039620999991976010508304+52683-008917FM-15+0014EINN V0202201N00361010501CN0112001N1+99999+99999999999ADDGA1081+010509059MA1101801999999REMMET006NOSIG?EQDQ01+000000PRSWM2
0133039620999991976010509004+52683-008917SY-MT+0014EINN V0202201N00301009601CN0112001N1+00901+00701101831ADDAY121999GA1081+009609059GF108991081051012501999999MA1101801999999MD1110031+9999MW1021REMSYN00588632MET006NOSIG?EQDQ01+000000PRSWM2
0068039620999991976010509304+52683-008917FM-15+0014EINN V0202201N00511010501CN0112001N1+99999+99999999999ADDGA1081+010509059MA1101801999999REMMET006NOSIG?EQDQ01+000000PRSWM2
0133039620999991976010510004+52683-008917SY-MT+0014EINN V0202101N00461010501CN0112001N1+01001+00701101811ADDAY121999GA1081+010509059GF108991081051012501999999MA1101801999999MD1810021+9999MW1021REMSYN00588635MET006NOSIG?EQDQ01+000000PRSWM2
0068039620999991976010510304+52683-008917FM-15+0014EINN V0202201N00511010501CN0112001N1+99999+99999999999ADDGA1081+010509059MA1101801999999REMMET006NOSIG?EQDQ01+000000PRSWM2
0133039620999991976010511004+52683-008917SY-MT+0014EINN V0202201N00511009601CN0112001N1+01001+00701101801ADDAY121999GA1071+009609059GF107991071051012501999999MA1101691999999MD1210041+9999MW1011REMSYN00587632MET006NOSIG?EQDQ01+000000PRSWM2
0084039620999991976010511304+52683-008917FM-15+0014EINN V0202201N00461009001CN0112001N1+99999+99999999999ADDGA1051+009009059GA2051+030009039MA1101801999999REMMET006NOSIG?EQDQ01+000000PRSWM2
0172039620999991976010512004+52683-008917SY-MT+0014EINN V0202201N00511007501CN0112001N1+01001+00701101801ADDAA199000091AY121999GA1051+007509059GA2061+030009049GF108991061051008001071999MA1101691999999MD1610031+9999MW1031REMSYN017700// 85625 86460MET006NOSIG?EQDQ01+000000PRSWM2
0158039620999991976010513004+52683-008917SY-MT+0014EINN V0202101N00361010501CN0112001N1+01001+00701101761ADDAY121999GA1031+006009059GA2031+010509059GA3071+030009049GF108991051051008001071999MA1101691999999MD1810051+9999MW1501REMSYN01783620 83635 87460MET006NOSIG?
0087039620999991976010513304+52683-008917FM-15+0014EINN V0202101N00361005401CN0112001N1+99999+99999999999ADDGA1011+002409079GA2061+005409079GA3071+007509059MA1101691999999MW1501REMMET006NOSIG?
0136039620999991976010514004+52683-008917SY-MT+0014EINN V0202101N00461004801CN0070001N1+01001+00801101711ADDAY151999GA1021+002409079GA2071+004809079GF108991081071002501999999MA1101691999999MD1710091+9999MW1501REMSYN01182708 87716MET006NOSIG?
0173039620999991976010515004+52683-008917SY-MT+0014EINN V0202101N00611003001CN0030001N1+01001+00901101711ADDAY161999GA1031+002409079GA2071+003009079GF108991081071002501999999MA1101691999999MD1710091+9999MW1591UA1M990409999REMSYN01138708 87710MET030GRADU 3ST005     ?     7ST006?
0089039620999991976010515304+52683-008917FM-15+0014EINN V0202101N00461002401CN0080001N1+99999+99999999999ADDGA1061+002409079GA2071+003909079MA1101691999999MW1611REMMET024INTER 2500 3ST005 7ST008
0182039620999991976010516004+52683-008917SY-MT+0014EINN V0202001N00301002401CN0040001N1+01001+00901101721ADDAY151999GA1031+001809079GA2041+002409079GA3071+003309079GF108991081071002501999999MA1101691999999MD1510041+9999MW1631REMSYN01783706 84708 87711MET030TEMPO 3000       ?     7ST005?
0094039620999991976010516304+52683-008917FM-15+0014EINN V0202401N00461002701CN0025001N1+99999+99999999999ADDGA1031+001809079GA2041+002709079GA3061+003309079MA1101691999999MW1591REMMET013INTER 7ST005?
0188039620999991976010517004+52683-008917SY-MT+0014EINN V0202401N00411002401CN0070001N1+01001+00901101811ADDAY161999GA1011+001809079GA2051+002409079GA3061+003609079GF108991081071002501999999MA1101801999999MD1210101+9999MW1501REMSYN02381706 85708 86712 94000MET030TEMPO 2500       ?     7ST005?
0083039620999991976010517304+52683-008917FM-15+0014EINN V0202601N00721003301CN0060001N1+99999+99999999999ADDGA1031+001509079GA2081+003309079MA1101801999999MW1511REMMET018INTER 2500 7ST005?
0201039620999991976010518004+52683-008917SY-MT+0014EINN V0202601N00721003301CN0070001N1+01101+01001101811ADDAA199003091AY161999GA1021+001809079GA2051+003309079GA3081+006009059GF108991081071002501999999MA1101801999999MD1110101+9999MW1501REMSYN023703// 82706 85711 88620MET032GRADU 3ST011     ?     6SCBPWPV?
0071039620999991976010518304+52683-008917FM-15+0014EINN V0202601N00721006001CN0112001N1+99999+99999999999ADDGA1031+003309079GA2081+006009059MA1101801999999MW1201REMMET006NOSIG?
0136039620999991976010519004+52683-008917SY-MT+0014EINN V0202601N00611006001CN0112001N1+01101+00901101851ADDAY151999GA1021+003009079GA2081+006009059GF108991081071004501999999MA1101801999999MD1210131+9999MW1201REMSYN01182710 88620MET006NOSIG?
0084039620999991976010519304+52683-008917FM-15+0014EINN V0202601N00661006601CN0112001N1+99999+99999999999ADDGA1021+003609079GA2071+006609059MA1101801999999REMMET006NOSIG?EQDQ01+000000PRSWM2
0155039620999991976010520004+52683-008917SY-MT+0014EINN V0202601N00611006601CN0112001N1+01001+00901101891ADDAY121999GA1021+003609079GA2061+006609059GF107991071051004501999999MA1101801999999MD1310081+9999MW1011REMSYN01182712 86620MET006NOSIG?EQDQ01+000000PRSWM2
0124039620999991976010520304+52683-008917FM-15+0014EINN V0202501N00461006601CN0112001N1+99999+99999999999ADDGA1021+003609079GA2071+006609059MA1101801999999REMMET046NOSIG? EICK 25011 9999 1ST008 NO         ?'8??EQDQ01+000000PRSWM2
0155039620999991976010521004+52683-008917SY-MT+0014EINN V0202501N00511007501CN0112001N1+01001+00901101911ADDAY151999GA1021+003609079GA2071+007509059GF107991071051004501999999MA1101901999999MD1210101+9999MW1021REMSYN01182712 87625MET006NOSIG?EQDQ01+000000PRSWM2
0084039620999991976010521304+52683-008917FM-15+0014EINN V0202301N00411007501CN0112001N1+99999+99999999999ADDGA1011+003609079GA2061+007509059MA1101901999999REMMET006NOSIG?EQDQ01+000000PRSWM2
0133039620999991976010522004+52683-008917SY-MT+0014EINN V0202401N00461220001CN0112001N1+00901+00901101931ADDAY111999GA1041+007509079GF104991041051008001999999MA1101901999999MD1210081+9999MW1011REMSYN00584725MET006NOSIG?EQDQ01+000000PRSWM2
0084039620999991976010522304+52683-008917FM-15+0014EINN V0202401N00411220001CN0112001N1+99999+99999999999ADDGA1011+004509079GA2031+006009059MA1101901999999REMMET006NOSIG?EQDQ01+000000PRSWM2
0155039620999991976010523004+52683-008917SY-MT+0014EINN V0202401N00411220001CN0112001N1+00901+00801101931ADDAY111999GA1011+004509079GA2031+007509059GF104991041051004501001001MA1101901999999MD1110041+9999MW1031REMSYN01181715 83625MET006NOSIG?EQDQ01+000000PRSWM2
0084039620999991976010523304+52683-008917FM-15+0014EINN V0202401N00461007501CN0112001N1+99999+99999999999ADDGA1021+005409079GA2051+007509059MA1101901999999REMMET006NOSIG?EQDQ01+000000PRSWM2
0188039620999991976010600004+52683-008917SY-MT+0014EINN V0202401N00511220001CN0112001N1+00901+00801101941ADDAA106999929AY151999GA1021+004509079GA2041+007509059GF104991041051004501001001MA1101901999999MD1110031+9999MW1021REMSYN017797// 82715 84625MET006NOSIG?EQDQ01+000000PRSWM2Q02  99993PRCP99
0068039620999991976010600304+52683-008917FM-15+0014EINN V0202401N00511220001CN0112001N1+99999+99999999999ADDGA1021+004809079MA1101901999999REMMET006NOSIG?EQDQ01+000000PRSWM2
0133039620999991976010601004+52683-008917SY-MT+0014EINN V0202201N00201220001CN0112001N1+00801+00701101951ADDAY111999GA1021+004809079GF102991021061004501001001MA1101901999999MD1210021+9999MW1011REMSYN00582716MET006NOSIG?EQDQ01+000000PRSWM2
0068039620999991976010601304+52683-008917FM-15+0014EINN V0202201N00301004501CN0112001N1+99999+99999999999ADDGA1051+004509079MA1101901999999REMMET006NOSIG?EQDQ01+000000PRSWM2
0155039620999991976010602004+52683-008917SY-MT+0014EINN V0202301N00201030001CN0112001N1+00801+00601101951ADDAY111999GA1021+004809079GA2061+030009049GF106991021061004501071999MA1101901999999MD1110021+9999MW1031REMSYN01182716 86460MET006NOSIG?EQDQ01+000000PRSWM2
0058039620999991976010602304+52683-008917FM-15+0014EINN V0202101N00251999991CY0099001N1+99999+99999999999ADDMA1101901999999REMMET012CAVOK NOSIG?EQDQ01+000000PRSWM2
0139039620999991976010603004+52683-008917SY-MT+0014EINN V0202201N00251027001CN0099001N1+00801+00601101971ADDAY111999GA1071+027009049GF107991071001999999071999MA1101901999999MD1210031+9999MW1031REMSYN00587459MET012CAVOK NOSIG?EQDQ01+000000PRSWM2
0058039620999991976010603304+52683-008917FM-15+0014EINN V0202101N00201999991CY0099001N1+99999+99999999999ADDMA1101901999999REMMET012CAVOK NOSIG?EQDQ01+000000PRSWM2
0139039620999991976010604004+52683-008917SY-MT+0014EINN V0202101N00251027001CN0099001N1+00901+00701101971ADDAY121999GA1081+027009049GF108991081001999999021999MA1101901999999MD1110021+9999MW1031REMSYN00588459MET012CAVOK NOSIG?EQDQ01+000000PRSWM2
0058039620999991976010604304+52683-008917FM-15+0014EINN V0201901N00201999991CY0099001N1+99999+99999999999ADDMA1101901999999REMMET012CAVOK NOSIG?EQDQ01+000000PRSWM2
0139039620999991976010605004+52683-008917SY-MT+0014EINN V0202001N00361027001CN0099001N1+00901+00701101931ADDAY121999GA1081+027009049GF108991081001999999021999MA1101901999999MD1810021+9999MW1021REMSYN00588459MET012CAVOK NOSIG?EQDQ01+000000PRSWM2
0058039620999991976010605304+52683-008917FM-15+0014EINN V0202201N00411999991CY0099001N1+99999+99999999999ADDMA1101901999999REMMET012CAVOK NOSIG?EQDQ01+000000PRSWM2
0156039620999991976010606004+52683-008917SY-MT+0014EINN V0202201N00511027001CN0099001N1+00901+00701101881ADDAA199999929AY111999GA1081+027009049GF108991081001999999021999MA1101801999999MD1810091+9999MW1021REMSYN011797// 88459MET012CAVOK NOSIG?EQDQ01+000000PRSWM2
0058039620999991976010606304+52683-008917FM-15+0014EINN V0202301N00611999991CY0099001N1+99999+99999999999ADDMA1101801999999REMMET012CAVOK NOSIG?EQDQ01+000000PRSWM2
0139039620999991976010607004+52683-008917SY-MT+0014EINN V0202201N00611027001CN0099001N1+00901+00701101881ADDAY121999GA1071+027009049GF107991071001999999071999MA1101801999999MD1610091+9999MW1021REMSYN00587459MET012CAVOK NOSIG?EQDQ01+000000PRSWM2
0058039620999991976010607304+52683-008917FM-15+0014EINN V0202301N00611999991CY0099001N1+99999+99999999999ADDMA1101801999999REMMET012CAVOK NOSIG?EQDQ01+000000PRSWM2
0155039620999991976010608004+52683-008917SY-MT+0014EINN V0202401N00661012001CN0112001N1+00901+00701101861ADDAY121999GA1051+012009059GA2081+027009049GF108991051051012501071999MA1101801999999MD1710071+9999MW1031REMSYN01185640 88459MET006NOSIG?EQDQ01+000000PRSWM2
0084039620999991976010608304+52683-008917FM-15+0014EINN V0202401N00721027001CN0112001N1+99999+99999999999ADDGA1041+012009059GA2081+027009049MA1101901999999REMMET006NOSIG?EQDQ01+000000PRSWM2
0155039620999991976010609004+52683-008917SY-MT+0014EINN V0202301N00771012001CN0112001N1+01001+00801101921ADDAY121999GA1051+012009059GA2081+027009049GF108991051051012501071999MA1101901999999MD1310041+9999MW1021REMSYN01185640 88459MET006NOSIG?EQDQ01+000000PRSWM2
0084039620999991976010609304+52683-008917FM-15+0014EINN V0202401N00821027001CN0112001N1+99999+99999999999ADDGA1041+013509059GA2071+027009049MA1101901999999REMMET006NOSIG?EQDQ01+000000PRSWM2
0177039620999991976010610004+52683-008917SY-MT+0014EINN V0202501N00771012001CN0112001N1+01001+00801101951ADDAY121999GA1011+006009059GA2051+012009059GA3081+027009049GF108991051051008001071999MA1101901999999MD1310071+9999MW1021REMSYN01781620 85640 88459MET006NOSIG?EQDQ01+000000PRSWM2
0100039620999991976010610304+52683-008917FM-15+0014EINN V0202401N00721027001CN0112001N1+99999+99999999999ADDGA1011+006009059GA2041+012009059GA3061+027009049MA1101901999999REMMET006NOSIG?EQDQ01+000000PRSWM2
0177039620999991976010611004+52683-008917SY-MT+0014EINN V0202401N00721012001CN0112001N1+01001+00801102031ADDAY121999GA1011+006009059GA2051+012009059GA3071+027009049GF107991051051008001071021MA1102001999999MD1210171+9999MW1011REMSYN01781620 85640 87459MET006NOSIG?EQDQ01+000000PRSWM2
0100039620999991976010611304+52683-008917FM-15+0014EINN V0202401N00721015001CN0112001N1+99999+99999999999ADDGA1011+006009059GA2051+015009059GA3071+027009049MA1102001999999REMMET006NOSIG?EQDQ01+000000PRSWM2
0194039620999991976010612004+52683-008917SY-MT+0014EINN V0202401N00721024001CN0112001N1+01001+00801102011ADDAA199000091AY121999GA1011+006009059GA2041+015009059GA3061+024009039GF107991041051008001071021MA1102001999999MD1010091+9999MW1021REMSYN023700// 81620 84650 86458MET006NOSIG?EQDQ01+000000PRSWM2
0100039620999991976010612304+52683-008917FM-15+0014EINN V0202401N00721015001CN0112001N1+99999+99999999999ADDGA1021+004509079GA2051+015009059GA3051+024009039MA1102001999999REMMET006NOSIG?EQDQ01+000000PRSWM2
0131039620999991976010613004+52683-008917FM-12+0014EINN V0202301N00721060001CN0400001N9+01001+00801101971ADDAY121999GA1011+004509079GA2031+015009059GA3051+060009009GF107991031051004501031021MD1010021+9999MW1021REMSYN01781715 83650 85070
0100039620999991976010613304+52683-008917FM-15+0014EINN V0202301N00721060001CN0112001N1+01001+00801999999ADDGA1011+004509079GA2031+015009059GA3051+060009009MA1101901999999REMMET006NOSIG?EQDQ01+000000PRSWM2
0177039620999991976010614004+52683-008917SY-MT+0014EINN V0202301N00561024001CN0112001N1+01001+00901102001ADDAY121999GA1011+003909079GA2031+006609059GA3051+024009039GF107991051051004501031021MA1101901999999MD1510041+9999MW1031REMSYN01781713 83622 85358MET006NOSIG?EQDQ01+000000PRSWM2
0131039620999991976010615004+52683-008917FM-12+0014EINN V0202501N00771007501CN0300001N9+01101+00801102011ADDAY121999GA1011+003909079GA2031+005109079GA3051+007509059GF107991061051004501001021MD1510001+9999MW1011REMSYN01781713 83717 85625
0108039620999991976010615304+52683-008917FM-15+0014EINN V0202601N00871060001CN0112001N1+99999+99999999999ADDGA1011+004509079GA2041+007209079GA3051+060009009MA1102001999999OC101381REMMET006NOSIG?EQDQ01+000000PRSWM2
0177039620999991976010616004+52683-008917SY-MT+0014EINN V0202501N00721007501CN0112001N1+01001+00701102031ADDAY121999GA1021+004509079GA2051+007509059GA3051+060009009GF107991051051004501001021MA1102001999999MD1110061+9999MW1021REMSYN01782715 85625 85070MET006NOSIG?EQDQ01+000000PRSWM2
0100039620999991976010616304+52683-008917FM-15+0014EINN V0202401N00721007501CN0112001N1+99999+99999999999ADDGA1021+005709089GA2031+007509059GA3051+060009009MA1102001999999REMMET006NOSIG?EQDQ01+000000PRSWM2
0161039620999991976010617004+52683-008917SY-MT+0014EINN V0202201N00461006001CN0112001N1+00901+00701102051ADDAY121999GA1011+005109089GA2041+006009059GF107991051081004501031021MA1102001999999MD1210051+9999MW1021REMSYN01781817 84620 94000MET006NOSIG?EQDQ01+000000PRSWM2
0084039620999991976010617304+52683-008917FM-15+0014EINN V0202301N00611007201CN0112001N1+99999+99999999999ADDGA1011+004509079GA2071+007209059MA1102001999999REMMET006NOSIG?EQDQ01+000000PRSWM2
0172039620999991976010618004+52683-008917SY-MT+0014EINN V0202301N00361006301CN0112001N1+01001+00701102021ADDAA199999929AY121999GA1021+005409079GA2061+006309059GF107991071051004501999999MA1102001999999MD1010011+9999MW1021REMSYN017797// 82718 86621MET006NOSIG?EQDQ01+000000PRSWM2
0084039620999991976010618304+52683-008917FM-15+0014EINN V0202201N00411007201CN0112001N1+99999+99999999999ADDGA1011+005409079GA2071+007209059MA1102001999999REMMET006NOSIG?EQDQ01+000000PRSWM2
0155039620999991976010619004+52683-008917SY-MT+0014EINN V0202201N00361008401CN0112001N1+00901+00701102041ADDAY121999GA1041+007209059GA2061+008409059GF107991071051008001999999MA1102001999999MD1310011+9999MW1021REMSYN01184624 86628MET006NOSIG?EQDQ01+000000PRSWM2
0068039620999991976010619304+52683-008917FM-15+0014EINN V0202201N00251007201CN0112001N1+99999+99999999999ADDGA1051+007209059MA1102001999999REMMET006NOSIG?EQDQ01+000000PRSWM2
0133039620999991976010620004+52683-008917SY-MT+0014EINN V0202301N00361007201CN0112001N1+00901+00701102051ADDAY121999GA1051+007209059GF105991051051008001999999MA1102001999999MD1510001+9999MW1011REMSYN00585624MET006NOSIG?EQDQ01+000000PRSWM2
0068039620999991976010620304+52683-008917FM-15+0014EINN V0202201N00301007501CN0112001N1+99999+99999999999ADDGA1051+007509059MA1102001999999REMMET006NOSIG?EQDQ01+000000PRSWM2
0133039620999991976010621004+52683-008917SY-MT+0014EINN V0202301N00561007501CN0112001N1+00901+00701102041ADDAY121999GA1051+007509059GF105991051051008001999999MA1102001999999MD1010021+9999MW1021REMSYN00585625MET006NOSIG?EQDQ01+000000PRSWM2
0068039620999991976010621304+52683-008917FM-15+0014EINN V0202201N00511220001CN0112001N1+99999+99999999999ADDGA1011+009009059MA1102001999999REMMET006NOSIG?EQDQ01+000000PRSWM2
0133039620999991976010622004+52683-008917SY-MT+0014EINN V0202101N00251220001CN0112001N1+00801+00701102051ADDAY111999GA1021+010509059GF102991021051012501001001MA1102001999999MD1310011+9999MW1011REMSYN00582630MET006NOSIG?EQDQ01+000000PRSWM2
0068039620999991976010622304+52683-008917FM-15+0014EINN V0202201N00561220001CN0112001N1+99999+99999999999ADDGA1021+009009059MA1102001999999REMMET006NOSIG?EQDQ01+000000PRSWM2
0133039620999991976010623004+52683-008917SY-MT+0014EINN V0202101N00511220001CN0112001N1+00901+00701102071ADDAY101999GA1021+009009059GF102991021051012501001001MA1102001999999MD1310021+9999MW1021REMSYN00582630MET006NOSIG?EQDQ01+000000PRSWM2
0068039620999991976010623304+52683-008917FM-15+0014EINN V0202301N00561220001CN0112001N1+99999+99999999999ADDGA1031+009009059MA1102001999999REMMET006NOSIG?EQDQ01+000000PRSWM2
0166039620999991976010700004+52683-008917SY-MT+0014EINN V0202101N00511009601CN0112001N1+01001+00701102071ADDAA106999929AY111999GA1061+009609059GF106991061051012501999999MA1102001999999MD1110031+9999MW1031REMSYN011797// 86632MET006NOSIG?EQDQ01+000000PRSWM2Q02  99993PRCP99
0068039620999991976010700304+52683-008917FM-15+0014EINN V0202001N00361009601CN0112001N1+99999+99999999999ADDGA1071+009609059MA1102001999999REMMET006NOSIG?EQDQ01+000000PRSWM2
0133039620999991976010701004+52683-008917SY-MT+0014EINN V0202101N00361009601CN0112001N1+01001+00701102031ADDAY121999GA1071+009609059GF107991071051012501999999MA1102001999999MD1810021+9999MW1031REMSYN00587632MET006NOSIG?EQDQ01+000000PRSWM2
0068039620999991976010701304+52683-008917FM-15+0014EINN V0202101N00411009601CN0112001N1+99999+99999999999ADDGA1061+009609059MA1101901999999REMMET006NOSIG?EQDQ01+000000PRSWM2
0133039620999991976010702004+52683-008917SY-MT+0014EINN V0202101N00411009601CN0112001N1+01001+00801102011ADDAY121999GA1071+009609059GF107991071051012501999999MA1102001999999MD1810061+9999MW1021REMSYN00587632MET006NOSIG?EQDQ01+000000PRSWM2
0084039620999991976010702304+52683-008917FM-15+0014EINN V0202101N00411009601CN0112001N1+99999+99999999999ADDGA1021+006009059GA2071+009609059MA1101901999999REMMET006NOSIG?EQDQ01+000000PRSWM2
0155039620999991976010703004+52683-008917SY-MT+0014EINN V0202001N00411009901CN0112001N1+01001+00801101961ADDAY121999GA1021+006009059GA2071+009909059GF107991071051008001999999MA1101901999999MD1710111+9999MW1021REMSYN01182620 87633MET006NOSIG?EQDQ01+000000PRSWM2
0087039620999991976010703304+52683-008917FM-15+0014EINN V0202101N00411006001CN0112001N1+99999+99999999999ADDGA1031+004209079GA2051+006009059GA3081+009609059MA1101901999999MW1501REMMET006NOSIG?
0158039620999991976010704004+52683-008917SY-MT+0014EINN V0202101N00511006001CN0112001N1+01001+00801101931ADDAY151999GA1021+004209079GA2051+006009059GA3081+009609059GF108991081051004501999999MA1101901999999MD1710101+9999MW1201REMSYN01782714 85620 88632MET006NOSIG?
0087039620999991976010704304+52683-008917FM-15+0014EINN V0202101N00511006001CN0112001N1+99999+99999999999ADDGA1021+004209079GA2041+006009059GA3081+009609059MA1101901999999MW1201REMMET006NOSIG?
0155039620999991976010705004+52683-008917SY-MT+0014EINN V0202001N00721009001CN0112001N1+01001+00801101911ADDAY121999GA1021+006009059GA2081+009009059GF108991081051008001999999MA1101901999999MD1610101+9999MW1021REMSYN01182620 88630MET006NOSIG?EQDQ01+000000PRSWM2
0068039620999991976010705304+52683-008917FM-15+0014EINN V0202001N00821009901CN0112001N1+99999+99999999999ADDGA1081+009909059MA1101801999999REMMET006NOSIG?EQDQ01+000000PRSWM2
0150039620999991976010706004+52683-008917SY-MT+0014EINN V0201901N00511009601CN0112001N1+01001+00801101891ADDAA199999929AY151999GA1081+009609059GF108991081051012501999999MA1101801999999MD1710071+9999MW1021REMSYN011797// 88632MET006NOSIG?EQDQ01+000000PRSWM2
0068039620999991976010706304+52683-008917FM-15+0014EINN V0202101N00611009601CN0112001N1+99999+99999999999ADDGA1071+009609059MA1101801999999REMMET006NOSIG?EQDQ01+000000PRSWM2
0133039620999991976010707004+52683-008917SY-MT+0014EINN V0201801N00511009901CN0112001N1+01001+00701101861ADDAY121999GA1081+009909059GF108991081051012501999999MA1101801999999MD1710071+9999MW1021REMSYN00588633MET006NOSIG?EQDQ01+000000PRSWM2
0068039620999991976010707304+52683-008917FM-15+0014EINN V0202001N00721010501CN0112001N1+99999+99999999999ADDGA1071+010509059MA1101801999999REMMET006NOSIG?EQDQ01+000000PRSWM2
0133039620999991976010708004+52683-008917SY-MT+0014EINN V0202101N00661010501CN0112001N1+01001+00601101871ADDAY121999GA1061+010509059GF106991061051012501999999MA1101801999999MD1510041+9999MW1011REMSYN00586635MET006NOSIG?EQDQ01+000000PRSWM2
0068039620999991976010708304+52683-008917FM-15+0014EINN V0202001N00611009001CN0112001N1+99999+99999999999ADDGA1061+009009059MA1101801999999REMMET006NOSIG?EQDQ01+000000PRSWM2
0133039620999991976010709004+52683-008917SY-MT+0014EINN V0201901N00511010501CN0112001N1+00901+00701101891ADDAY121999GA1061+010509059GF106991061051012501999999MA1101801999999MD1510001+9999MW1011REMSYN00586635MET006NOSIG?EQDQ01+000000PRSWM2
0068039620999991976010709304+52683-008917FM-15+0014EINN V0201601N00301010501CN0112001N1+99999+99999999999ADDGA1051+010509059MA1101801999999REMMET006NOSIG?EQDQ01+000000PRSWM2
0133039620999991976010710004+52683-008917SY-MT+0014EINN V0201701N00301006901CN0112001N1+00901+00701101861ADDAY121999GA1071+006909059GF107991071051008001999999MA1101801999999MD1010001+9999MW1031REMSYN00587623MET006NOSIG?EQDQ01+000000PRSWM2
0068039620999991976010710304+52683-008917FM-15+0014EINN V0201801N00461006901CN0112001N1+99999+99999999999ADDGA1071+006909059MA1101801999999REMMET006NOSIG?EQDQ01+000000PRSWM2
0133039620999991976010711004+52683-008917SY-MT+0014EINN V0201701N00511008101CN0112001N1+00901+00701101851ADDAY121999GA1071+008109059GF107991071051008001999999MA1101801999999MD1810021+9999MW1021REMSYN00587623MET006NOSIG?EQDQ01+000000PRSWM2
0068039620999991976010711304+52683-008917FM-15+0014EINN V0201801N00301006901CN0112001N1+99999+99999999999ADDGA1071+006909059MA1101801999999REMMET006NOSIG?EQDQ01+000000PRSWM2
0150039620999991976010712004+52683-008917SY-MT+0014EINN V0202001N00461006601CN0500001N1+01001+00701101791ADDAA199000091AY121999GA1071+006609059GF107991071051008001999999MA1101691999999MD1710101+9999MW1031REMSYN011700// 87622MET006NOSIG?EQDQ01+000000PRSWM2
0068039620999991976010712304+52683-008917FM-15+0014EINN V0201901N00301007501CN0112001N1+99999+99999999999ADDGA1071+007509059MA1101691999999REMMET006NOSIG?EQDQ01+000000PRSWM2
0155039620999991976010713004+52683-008917SY-MT+0014EINN V0202001N00251009001CN0112001N1+01001+00701101781ADDAY121999GA1031+006009059GA2051+009009059GF107991071051008001999021MA1101691999999MD1710081+9999MW1011REMSYN01183620 85630MET006NOSIG?EQDQ01+000000PRSWM2
0084039620999991976010713304+52683-008917FM-15+0014EINN V0202101N00251008101CN0112001N1+99999+99999999999ADDGA1011+006009089GA2051+008109059MA1101691999999REMMET006NOSIG?EQDQ01+000000PRSWM2
0155039620999991976010714004+52683-008917SY-MT+0014EINN V0202201N00661009001CN0112001N1+01101+00601101731ADDAY121999GA1011+006609089GA2061+009009059GF107991071081008001999021MA1101691999999MD1710121+9999MW1021REMSYN01181822 86630MET006NOSIG?EQDQ01+000000PRSWM2
0068039620999991976010714304+52683-008917FM-15+0014EINN V0202201N00561008101CN0112001N1+99999+99999999999ADDGA1071+008109059MA1101591999999REMMET006NOSIG?EQDQ01+000000PRSWM2
0133039620999991976010715004+52683-008917SY-MT+0014EINN V0202201N00921007801CN0112001N1+01001+00601101671ADDAY121999GA1061+007809059GF107991071051008001999021MA1101591999999MD1710121+9999MW1011REMSYN00586626MET006NOSIG?EQDQ01+000000PRSWM2
0068039620999991976010715304+52683-008917FM-15+0014EINN V0202201N00611007501CN0112001N1+99999+99999999999ADDGA1071+007509059MA1101591999999REMMET006NOSIG?EQDQ01+000000PRSWM2
0133039620999991976010716004+52683-008917SY-MT+0014EINN V0202101N00411006901CN0112001N1+01001+00601101661ADDAY121999GA1071+006909059GF107991071051008001999999MA1101591999999MD1610121+9999MW1031REMSYN00587623MET006NOSIG?EQDQ01+000000PRSWM2
0068039620999991976010716304+52683-008917FM-15+0014EINN V0202101N00561006901CN0112001N1+99999+99999999999ADDGA1061+006909059MA1101591999999REMMET006NOSIG?EQDQ01+000000PRSWM2
0139039620999991976010717004+52683-008917SY-MT+0014EINN V0202101N00511006301CN0112001N1+01001+00601101651ADDAY121999GA1071+006309059GF107991071051008001999999MA1101591999999MD1510081+9999MW1021REMSYN01187621 94011MET006NOSIG?EQDQ01+000000PRSWM2
0068039620999991976010717304+52683-008917FM-15+0014EINN V0202101N00411006901CN0112001N1+99999+99999999999ADDGA1071+006909059MA1101591999999REMMET006NOSIG?EQDQ01+000000PRSWM2
0150039620999991976010718004+52683-008917SY-MT+0014EINN V0202001N00511007201CN0112001N1+01001+00701101631ADDAA199000091AY121999GA1071+007209059GF107991071051008001999999MA1101591999999MD1710041+9999MW1021REMSYN011700// 87624MET006NOSIG?EQDQ01+000000PRSWM2
0084039620999991976010718304+52683-008917FM-15+0014EINN V0202101N00661009001CN0112001N1+99999+99999999999ADDGA1031+007209059GA2071+009009059MA1101591999999REMMET006NOSIG?EQDQ01+000000PRSWM2
0133039620999991976010719004+52683-008917SY-MT+0014EINN V0202001N00561008701CN0112001N1+01001+00701101621ADDAY121999GA1081+008709059GF108991081051008001999999MA1101591999999MD1710041+9999MW1031REMSYN00588629MET006NOSIG?EQDQ01+000000PRSWM2
0068039620999991976010719304+52683-008917FM-15+0014EINN V0202101N00661009001CN0112001N1+99999+99999999999ADDGA1081+009009059MA1101591999999REMMET006NOSIG?EQDQ01+000000PRSWM2
0155039620999991976010720004+52683-008917SY-MT+0014EINN V0202201N00661009001CN0112001N1+01001+00701101621ADDAY121999GA1021+006609059GA2081+009009059GF108991081051008001999999MA1101591999999MD1610031+9999MW1021REMSYN01182622 88630MET006NOSIG?EQDQ01+000000PRSWM2
0084039620999991976010720304+52683-008917FM-15+0014EINN V0202101N00411009001CN0112001N1+99999+99999999999ADDGA1031+006609059GA2081+009009059MA1101591999999REMMET006NOSIG?EQDQ01+000000PRSWM2
0133039620999991976010721004+52683-008917SY-MT+0014EINN V0202001N00611009001CN0112001N1+01001+00701101651ADDAY121999GA1081+009009059GF108991081051012501999999MA1101591999999MD1310021+9999MW1021REMSYN00588630MET006NOSIG?EQDQ01+000000PRSWM2
0084039620999991976010721304+52683-008917FM-15+0014EINN V0202101N00661009901CN0112001N1+99999+99999999999ADDGA1021+006609059GA2071+009909059MA1101591999999REMMET006NOSIG?EQDQ01+000000PRSWM2
0133039620999991976010722004+52683-008917SY-MT+0014EINN V0202001N00611011401CN0112001N1+01001+00701101641ADDAY121999GA1081+011409059GF108991081051012501999999MA1101591999999MD1010021+9999MW1021REMSYN00588638MET006NOSIG?EQDQ01+000000PRSWM2
0068039620999991976010722304+52683-008917FM-15+0014EINN V0202101N00511012001CN0112001N1+99999+99999999999ADDGA1081+012009059MA1101591999999REMMET006NOSIG?EQDQ01+000000PRSWM2
0155039620999991976010723004+52683-008917SY-MT+0014EINN V0202001N00511012001CN0112001N1+01001+00701101661ADDAY121999GA1031+006609059GA2081+012009059GF108991081051008001999999MA1101591999999MD1210041+9999MW1021REMSYN01183622 88640MET006NOSIG?EQDQ01+000000PRSWM2
0084039620999991976010723304+52683-008917FM-15+0014EINN V0202101N00511012001CN0112001N1+99999+99999999999ADDGA1031+006609079GA2081+012009059MA1101591999999REMMET006NOSIG?EQDQ01+000000PRSWM2
0210039620999991976010800004+52683-008917SY-MT+0014EINN V0202101N00511009001CN0112001N1+01001+00701101661ADDAA106999929AY121999GA1021+006609059GA2031+009009059GA3081+012009059GF108991081051008001999999MA1101591999999MD1210011+9999MW1021REMSYN023797// 82622 83630 88640MET006NOSIG?EQDQ01+000000PRSWM2Q02  99993PRCP99
0084039620999991976010800304+52683-008917FM-15+0014EINN V0202001N00461010501CN0112001N1+99999+99999999999ADDGA1031+006009059GA2081+010509059MA1101591999999REMMET006NOSIG?EQDQ01+000000PRSWM2
0165039620999991976010801004+52683-008917SY-MT+0014EINN V0202101N00561220001CN0112001N1+01001+00801101551ADDAY121999GA1021+006009059GA2081+010509059GF199999041051012501999999MA1101491999999MD1810031+9999MW1011REMSYN00584635MET006NOSIG?EQDQ01+000042SCOTCVQ02+000000PRSWM2
0084039620999991976010801304+52683-008917FM-15+0014EINN V0202101N00661010501CN0112001N1+99999+99999999999ADDGA1021+006009059GA2031+010509059MA1101491999999REMMET006NOSIG?EQDQ01+000000PRSWM2
0133039620999991976010802004+52683-008917SY-MT+0014EINN V0202201N00771005401CN0112001N1+01101+00801101631ADDAY121999GA1081+005409079GF108991081061004501999999MA1101591999999MD1510031+9999MW1021REMSYN00588718MET006NOSIG?EQDQ01+000000PRSWM2
0068039620999991976010802304+52683-008917FM-15+0014EINN V0202201N00661005101CN0112001N1+99999+99999999999ADDGA1081+005109079MA1101591999999REMMET006NOSIG?EQDQ01+000000PRSWM2
0147039620999991976010803004+52683-008917SY-MT+0014EINN V0202201N00661004801CN0112001N1+01101+00801101611ADDAY121999GA1081+004809079GF108991081061004501999999MA1101591999999MD1710051+9999MW1021REMSYN00588715MET020GRADU 4ST010 8ST015?EQDQ01+000000PRSWM2
0082039620999991976010803304+52683-008917FM-15+0014EINN V0202101N00721004501CN0112001N1+99999+99999999999ADDGA1081+004509079MA1101591999999REMMET020GRADU 4ST010 8ST015?EQDQ01+000000PRSWM2
0147039620999991976010804004+52683-008917SY-MT+0014EINN V0202201N00661004801CN0112001N1+01101+00901101631ADDAY121999GA1081+004809079GF108991081061004501999999MA1101591999999MD1210031+9999MW1021REMSYN00588716MET020GRADU 4ST010 8ST015?EQDQ01+000000PRSWM2
0082039620999991976010804304+52683-008917FM-15+0014EINN V0202201N00721004201CN0112001N1+99999+99999999999ADDGA1081+004209079MA1101591999999REMMET020GRADU 4ST010 8ST015?EQDQ01+000000PRSWM2
0147039620999991976010805004+52683-008917SY-MT+0014EINN V0202101N00671004501CN0300001N1+01101+00901101671ADDAY121999GA1081+004509079GF108991081061004501999999MA1101591999999MD1310041+9999MW1021REMSYN00588715MET020GRADU 4ST010 8ST015?EQDQ01+000000PRSWM2
0082039620999991976010805304+52683-008917FM-15+0014EINN V0202101N00611004801CN0112001N1+99999+99999999999ADDGA1081+004809079MA1101591999999REMMET020GRADU 4ST010 8ST015?EQDQ01+000000PRSWM2
0186039620999991976010806004+52683-008917SY-MT+0014EINN V0202101N00611004801CN0112001N1+01101+00901101671ADDAA199999929AY121999GA1021+003609079GA2081+004809079GF108991081061004501999999MA1101591999999MD1110061+9999MW1021REMSYN017797// 82712 88716MET020GRADU 4ST010 8ST015?EQDQ01+000000PRSWM2
0114039620999991976010806304+52683-008917FM-15+0014EINN V0202101N00511004501CN0112001N1+99999+99999999999ADDGA1021+003609079GA2051+004509079GA3071+006009059MA1101591999999REMMET020GRADU 4ST010 8ST015?EQDQ01+000000PRSWM2
0169039620999991976010807004+52683-008917SY-MT+0014EINN V0202101N00561010501CN0112001N1+01101+00801101661ADDAY121999GA1031+004509079GA2031+010509059GF105991051061004501001001MA1101591999999MD1010031+9999MW1011REMSYN01183715 83635MET020GRADU 4ST010 8ST015?EQDQ01+000000PRSWM2
0084039620999991976010807304+52683-008917FM-15+0014EINN V0202301N00611012001CN0112001N1+99999+99999999999ADDGA1021+004509079GA2051+012009059MA1101591999999REMMET006NOSIG?EQDQ01+000000PRSWM2
0177039620999991976010808004+52683-008917SY-MT+0014EINN V0202201N00721012001CN0112001N1+01101+00801101681ADDAY121999GA1021+004509079GA2041+012009059GA3051+018009059GF107991071051004501999999MA1101591999999MD1310021+9999MW1031REMSYN01782715 84640 85656MET006NOSIG?EQDQ01+000000PRSWM2
0084039620999991976010808304+52683-008917FM-15+0014EINN V0202201N00611013501CN0112001N1+99999+99999999999ADDGA1031+006009059GA2051+013509059MA1101691999999REMMET006NOSIG?EQDQ01+000000PRSWM2
0155039620999991976010809004+52683-008917SY-MT+0014EINN V0202101N00511012001CN0112001N1+01101+00801101771ADDAY121999GA1031+006009059GA2061+012009059GF107991071051008001999999MA1101691999999MD1310101+9999MW1021REMSYN01183620 86640MET006NOSIG?EQDQ01+000000PRSWM2
0100039620999991976010809304+52683-008917FM-15+0014EINN V0202101N00511013501CN0112001N1+99999+99999999999ADDGA1011+006009059GA2031+009609059GA3061+013509059MA1101691999999REMMET006NOSIG?EQDQ01+000000PRSWM2
0155039620999991976010810004+52683-008917SY-MT+0014EINN V0201901N00561010501CN0112001N1+01101+00801101781ADDAY121999GA1011+006009059GA2041+010509059GF107991061051008001031021MA1101691999999MD1110121+9999MW1021REMSYN01181620 84635MET006NOSIG?EQDQ01+000000PRSWM2
0155039620999991976010811004+52683-008917SY-MT+0014EINN V0201801N00511008401CN0112001N1+01101+00801101801ADDAY121999GA1011+006009059GA2041+008409059GF107991071051008001999021MA1101691999999MD1110111+9999MW1021REMSYN01181620 84628MET006NOSIG?EQDQ01+000000PRSWM2
0084039620999991976010811304+52683-008917FM-15+0014EINN V0201801N00411009001CN0112001N1+99999+99999999999ADDGA1021+006009059GA2061+009009059MA1101691999999REMMET006NOSIG?EQDQ01+000000PRSWM2
0172039620999991976010812004+52683-008917SY-MT+0014EINN V0202001N00661007801CN0112001N1+01201+00801101781ADDAA199000091AY121999GA1021+006009059GA2061+007809059GF107991071051008001999021MA1101691999999MD1010011+9999MW1031REMSYN017700// 82620 86626MET006NOSIG?EQDQ01+000000PRSWM2
0100039620999991976010812304+52683-008917FM-15+0014EINN V0202001N00721018001CN0112001N1+99999+99999999999ADDGA1011+006009059GA2031+007509059GA3061+018009059MA1101691999999REMMET006NOSIG?EQDQ01+000000PRSWM2
0136039620999991976010813004+52683-008917SY-MT+0014EINN V0202201N00671006001CN0400001N1+01201+00901101771ADDAY161999GA1051+006009059GA2071+012009059GF108991081051008001999999MA1101691999999MD1810011+9999MW1211REMSYN01185620 87640MET006NOSIG?
0071039620999991976010813304+52683-008917FM-15+0014EINN V0202201N00771010501CN0112001N1+99999+99999999999ADDGA1041+006009059GA2071+010509059MA1101691999999MW1211REMMET006NOSIG?
0177039620999991976010814004+52683-008917SY-MT+0014EINN V0202101N00661006901CN0112001N1+01201+00901101731ADDAY121999GA1021+005409079GA2051+006909059GA3071+012009059GF108991081051004501999999MA1101691999999MD1810071+9999MW1021REMSYN01782718 85623 87640MET006NOSIG?EQDQ01+000000PRSWM2
0096039620999991976010814104+52683-008917FM-16+0014EINN V0202101N00661006901CN0112001N1+99999+99999999999ADDGA1021+005409079GA2051+006909059GA3071+012009059REMMET017WXPO QPQQIN OSIG?EQDQ01+000000PRSWM2
0100039620999991976010814304+52683-008917FM-15+0014EINN V0202201N00921012001CN0112001N1+99999+99999999999ADDGA1011+004509079GA2031+006009059GA3071+012009059MA1101691999999REMMET006NOSIG?EQDQ01+000000PRSWM2
0177039620999991976010815004+52683-008917SY-MT+0014EINN V0202201N00921006001CN0112001N1+01201+00801101701ADDAY161999GA1011+005409079GA2061+006009059GA3071+013509059GF108991081051004501999999MA1101591999999MD1810081+9999MW1021REMSYN01781718 86620 87645MET006NOSIG?EQDQ01+000000PRSWM2
0087039620999991976010815364+52683-008917FM-16+0014EINN V0202101N00611013501CN0112001N1+99999+99999999999ADDGA1011+006009059GA2031+009009059GA3071+013509059MA1101691999999MW1211REMMET006NOSIG?
0136039620999991976010816004+52683-008917SY-MT+0014EINN V0202201N00611006001CN0112001N1+01201+00801101781ADDAY161999GA1051+006009059GA2071+012009059GF108991081051008001999999MA1101691999999MD1310011+9999MW1211REMSYN01185620 87640MET006NOSIG?
0087039620999991976010816304+52683-008917FM-15+0014EINN V0202101N00771004501CN0045001N1+99999+99999999999ADDGA1031+003009079GA2051+004509079GA3071+006009059MA1101691999999MW1601REMMET006NOSIG?
0158039620999991976010817004+52683-008917SY-MT+0014EINN V0202101N00621004201CN0080001N1+01101+01001101821ADDAY161999GA1021+003009079GA2041+004209079GA3071+006009059GF108991081061004501999999MA1101801999999MD1310091+9999MW1601REMSYN01782710 84714 87620MET006NOSIG?
0071039620999991976010817304+52683-008917FM-15+0014EINN V0202001N00561009001CN0080001N1+99999+99999999999ADDGA1031+004509079GA2081+009009059MA1101801999999MW1211REMMET006NOSIG?
0181039620999991976010818004+52683-008917SY-MT+0014EINN V0202001N00561004201CN0080001N1+01101+01001101831ADDAA199000291AY161999GA1021+003009079GA2041+004209079GA3081+007509059GF108991081061004501999999MA1101801999999MD1110131+9999MW1211REMSYN029792// 82710 84714 88625 94000MET006NOSIG?
0084039620999991976010818304+52683-008917FM-15+0014EINN V0202001N00561006601CN0080001N1+99999+99999999999ADDGA1031+004209079GA2081+006609059MA1101801999999REMMET006NOSIG?EQDQ01+000000PRSWM2
0155039620999991976010819004+52683-008917SY-MT+0014EINN V0202001N00461006001CN0080001N1+01101+01001101871ADDAY121999GA1031+004209079GA2081+006009059GF108991081061004501999999MA1101801999999MD1210091+9999MW1101REMSYN01183714 88620MET006NOSIG?EQDQ01+000000PRSWM2
0098039620999991976010819304+52683-008917FM-15+0014EINN V0202101N00511004501CN0112001N1+99999+99999999999ADDGA1051+004509079GA2081+006009059MA1101801999999REMMET020GRADU 4ST009 8ST015?EQDQ01+000000PRSWM2
0169039620999991976010820004+52683-008917SY-MT+0014EINN V0202201N00561004501CN0112001N1+01101+00901101911ADDAY121999GA1051+004509079GA2081+006009059GF108991081061004501999999MA1101901999999MD1310091+9999MW1021REMSYN01185715 88620MET020GRADU 4ST009 8ST015?EQDQ01+000000PRSWM2
0097039620999991976010820304+52683-008917FM-15+0014EINN V0202201N00611003901CN0112001N1+99999+99999999999ADDGA1061+003909079GA2081+006009059MA1101901999999REMMET019GRADU 4ST009 8STNM?EQDQ01+000000PRSWM2
0209039620999991976010821004+52683-008917SY-MT+0014EINN V0203201N00301006001CN0112001N1+01101+01001101951ADDAY121999GA1031+004209079GA2031+006009059GA3081+012009059GF108991081051004501999999MA1101901999999MD1110121+9999MW1021REMSYN03583714 83620 88640 91323 91332 90021MET020TEMPO 3ST009 8ST014?EQDQ01+000000PRSWM2
0128039620999991976010821304+52683-008917FM-15+0014EINN V0203401N00301220001CN0112001N1+99999+99999999999ADDGA1061+003309079GA2071+005409079MA1101901999999MW1501REMMET063EINN 2130 O TPDZ 3ST007 6ST011 7ST018 1019 TEMPO 3ST010 8ST013?
0163039620999991976010822004+52683-008917SY-MT+0014EINN V0203501N00301002401CN0112001N1+00801+00801101971ADDAY151999GA1021+001809079GA2051+002409079GA3081+004509079GF108991081061002501999999MA1101901999999MW1501REMSYN01187081 88715MET031GRADU      ?     2ST009 8ST014?
0100039620999991976010822304+52683-008917FM-15+0014EINN V0203601N00151002401CN0112001N1+99999+99999999999ADDGA1031+001509079GA2051+002409079GA3081+003609079MA1101901999999MW1581REMMET019GRADU 3ST009 8ST014
0182039620999991976010823004+52683-008917SY-MT+0014EINN V0203401N00151001501CN0080001N1+00801+00701101971ADDAY151999GA1021+000909079GA2051+001509079GA3081+002409079GF108991081071001501999999MA1101901999999MD1110061+9999MW1611REMSYN01782703 85705 88708MET030GRADU 3ST006     ?     8ST012?
0111039620999991976010823304+52683-008917FM-15+0014EINN V0203401N00151002401CN0080001N1+99999+99999999999ADDGA1031+000909079GA2051+002409079GA3081+003609079MA1101901999999MW1611REMMET030GRADU 3ST006     ?     8ST012?
0218039620999991976010900004+52683-008917SY-MT+0014EINN V0203401N00301001501CN0070001N1+00701+00701101991ADDAA106002091AY151999GA1021+000609079GA2051+001509079GA3081+002709079GF108991081071000751999999MA1101901999999MD1210031+9999MW1611REMSYN023702// 82702 85705 88709MET030GRADU 3ST003     ?     8ST008?EQDQ01  00203PRCP99
0100039620999991976010900304+52683-008917FM-15+0014EINN V0200101N00301001501CN0060001N1+99999+99999999999ADDGA1021+000609079GA2061+001509079GA3081+002109079MA1102001999999MW1631REMMET019GRADU 3ST003 8ST008
0158039620999991976010901004+52683-008917SY-MT+0014EINN V0200101N00151001501CN0050001N1+00701+00701102011ADDAY161999GA1031+000609079GA2061+001509079GA3081+002109079GF108991081071000751999999MA1102001999999MD1310031+9999MW1631REMSYN01783702 86705 88707MET006NOSIG?
0087039620999991976010901304+52683-008917FM-15+0014EINN V0200101N00151001501CN0050001N1+99999+99999999999ADDGA1021+000609079GA2051+001509079GA3081+002109079MA1101901999999MW1631REMMET006NOSIG?
0158039620999991976010902004+52683-008917SY-MT+0014EINN V0200101N00201001501CN0050001N1+00701+00701101971ADDAY161999GA1021+000309079GA2051+001509079GA3081+002409079GF108991081071000251999999MA1101901999999MD1010001+9999MW1211REMSYN01782701 85705 88708MET006NOSIG?
0087039620999991976010902304+52683-008917FM-15+0014EINN V0203401N00361002401CN0035001N1+99999+99999999999ADDGA1021+000909079GA2061+002409079GA3081+006009049MA1101901999999MW1641REMMET006NOSIG?
0158039620999991976010903004+52683-008917SY-MT+0014EINN V0203601N00301003001CN0035001N1+00701+00601101991ADDAY161999GA1031+001209079GA2061+003009079GA3081+006009049GF108991061071001501021999MA1101901999999MD1210011+9999MW1641REMSYN01783704 86710 88520MET006NOSIG?
0087039620999991976010903304+52683-008917FM-15+0014EINN V0203501N00361003601CN0035001N1+99999+99999999999ADDGA1031+001809079GA2071+003609079GA3081+006009049MA1101901999999MW1651REMMET006NOSIG?
0158039620999991976010904004+52683-008917SY-MT+0014EINN V0200101N00361001501CN0035001N1+00701+00601102001ADDAY161999GA1021+000609079GA2051+001509079GA3081+004209079GF108991081071000751999999MA1101901999999MD1510001+9999MW1651REMSYN01782702 85705 88714MET006NOSIG?
0087039620999991976010904304+52683-008917FM-15+0014EINN V0200101N00511001801CN0040001N1+99999+99999999999ADDGA1031+000609079GA2061+001809079GA3081+004209079MA1101901999999MW1631REMMET006NOSIG?
0158039620999991976010905004+52683-008917SY-MT+0014EINN V0200101N00411001201CN0040001N1+00601+00601102081ADDAY161999GA1021+000609079GA2041+001209079GA3081+002409079GF108991081071000751999999MA1102001999999MD1310111+9999MW1581REMSYN01782702 84704 88708MET006NOSIG?
0071039620999991976010905304+52683-008917FM-15+0014EINN V0200101N00461001801CN0035001N1+99999+99999999999ADDGA1031+000909079GA2081+001809079MA1102101999999MW1581REMMET006NOSIG?
0175039620999991976010906004+52683-008917SY-MT+0014EINN V0200101N00361002101CN0080001N1+00601+00601102151ADDAA199022091AY151999GA1021+001209079GA2051+002109079GA3081+003609079GF108991081071001501999999MA1102101999999MD1310161+9999MW1211REMSYN023722// 82704 85707 88712MET006NOSIG?
0087039620999991976010906304+52683-008917FM-15+0014EINN V0200101N00411004501CN0112001N1+99999+99999999999ADDGA1011+001209079GA2041+002109079GA3081+004509079MA1102201999999MW1211REMMET006NOSIG?
0109039620999991976010907004+52683-008917FM-12+0014EINN V0200201N00411004201CN0140001N9+00601+00601102231ADDAY121999GA1031+002109079GA2081+004209059GF108991081071002501999999MD1210231+9999MW1021REMSYN01183707 88614
0098039620999991976010907304+52683-008917FM-15+0014EINN V0200201N00411004201CN0112001N1+99999+99999999999ADDGA1021+002409079GA2081+004209079MA1102201999999REMMET020TEMPO 3ST005 8ST010?EQDQ01+000000PRSWM2
0155039620999991976010908004+52683-008917SY-MT+0014EINN V0200401N00301003601CN0112001N1+00601+00501102271ADDAY121999GA1031+002109079GA2071+003609079GF107991071061002501999999MA1102201999999MD1210191+9999MW1011REMSYN01183707 87712MET006NOSIG?EQDQ01+000000PRSWM2
0084039620999991976010908304+52683-008917FM-15+0014EINN V0200301N00151003001CN0112001N1+99999+99999999999ADDGA1031+001209079GA2071+003009079MA1102301999999REMMET006NOSIG?EQDQ01+000000PRSWM2
0155039620999991976010909004+52683-008917SY-MT+0014EINN V0200501N00151003601CN0150001N1+00601+00501102331ADDAY121999GA1031+001809079GA2071+003609079GF107991071061002501999999MA1102301999999MD1210181+9999MW1021REMSYN01183706 87712MET006NOSIG?EQDQ01+000000PRSWM2
0084039620999991976010909304+52683-008917FM-15+0014EINN V0200501N00151003001CN0112001N1+99999+99999999999ADDGA1031+001509079GA2071+003009079MA1102301999999REMMET006NOSIG?EQDQ01+000000PRSWM2
0177039620999991976010910004+52683-008917SY-MT+0014EINN V0201101N00301002401CN0112001N1+00701+00601102321ADDAY121999GA1031+001509079GA2061+002409079GA3081+003009079GF108991081061001501999999MA1102301999999MD1010091+9999MW1031REMSYN01783705 86708 88710MET006NOSIG?EQDQ01+000000PRSWM2
0177039620999991976010911004+52683-008917SY-MT+0014EINN V0201201N00201002401CN0090001N1+00701+00601102381ADDAY151999GA1031+001509079GA2081+002409079GF108991081061001501999999MA1102301999999MD1310111+9999MW1501REMSYN02383705 88708 97165 97265MET0359999 TO NE SE NW.      ?     NOSIG?
0111039620999991976010911304+52683-008917FM-15+0014EINN V0201201N00361024001CN0112001N1+99999+99999999999ADDGA1011+001509079GA2031+002409079GA3081+024009049MA1102201999999MW1201REMMET030GRADU 3ST008     ?     8ST014?
0219039620999991976010912004+52683-008917SY-MT+0014EINN V0201101N00411004501CN0080001N1+00701+00601102281ADDAA106999929AY151999GA1021+001509079GA2061+004509079GA3081+024009049GF108991061061001501021999MA1102201999999MD1810051+9999MW1601REMSYN023797// 82705 86715 88458MET031GRADU      ?     2ST008 6ST017?EQDQ01  99993PRCP99
0111039620999991976010912304+52683-008917FM-15+0014EINN V0201101N00301004501CN0080001N1+99999+99999999999ADDGA1021+001509079GA2061+004509079GA3081+024009049MA1102201999999MW1601REMMET030GRADU 2ST008     ?     6ST017?
0131039620999991976010913004+52683-008917FM-12+0014EINN V0201001N00151003601CN0040001N9+00701+00601102241ADDAY161999GA1031+001209079GA2061+003609079GA3081+006009049GF108991061061001501021999MD1810081+9999MW1611REMSYN01783704 86712 88520
0087039620999991976010913304+52683-008917FM-15+0014EINN V0201201N00561005401CN0060001N1+99999+99999999999ADDGA1011+001509079GA2031+003609079GA3051+005409079MA1102001999999MW1211REMMET006NOSIG?
0183039620999991976010914004+52683-008917SY-MT+0014EINN V0201301N00611030001CN0112001N1+00801+00801101941ADDAY161999GA1011+003009079GA2031+006009059GA3051+030009049GF107991031081004501071081MA1101901999999MD1710431+9999MW1211REMSYN01781710 83620 85460MET031TEMPO      ?     3ST008 6ST012?
0100039620999991976010914304+52683-008917FM-15+0014EINN V0203101N00361030001CN0112001N1+99999+99999999999ADDGA1011+003009079GA2031+012009059GA3051+030009049MA1101901999999REMMET006NOSIG?EQDQ01+000000PRSWM2
0177039620999991976010915004+52683-008917SY-MT+0014EINN V0202901N00251030001CN0112001N1+01001+00701102021ADDAY161999GA1011+004509079GA2031+011409059GA3051+030009049GF107991041081004501071081MA1102001999999MD1510251+9999MW1021REMSYN01781715 83638 85460MET006NOSIG?EQDQ01+000000PRSWM2
0109039620999991976010916004+52683-008917FM-12+0014EINN V0201301N00361009001CN0300001N9+01001+00801101961ADDAY121999GA1021+005409079GA2031+009009059GF107991041081004501031021MD1710271+9999MW1011REMSYN01182718 83630
0111039620999991976010916304+52683-008917FM-15+0014EINN V0201301N00301009001CN0112001N1+99999+99999999999ADDGA1011+003909079GA2041+005409079GA3051+009009059MA1101901999999MW1601REMMET030GRADU 4ST008     ?     8ST015?
0182039620999991976010917004+52683-008917SY-MT+0014EINN V0201201N00361006601CN0070001N1+00901+00801101921ADDAY161999GA1011+003909079GA2041+005409079GA3071+006609059GF108991081061004501999999MA1101901999999MD1810021+9999MW1601REMSYN01781713 84718 87622MET030GRADU 4ST008     ?     8ST015?
0180039620999991976010918004+52683-008917SY-MT+0014EINN V0201301N00361002701CN0035001N1+00901+00901101951ADDAA199002091AY161999GA1031+001809079GA2061+002709079GA3081+003909079GF108991081071002501999999MA1101901999999MD1510071+9999MW1581REMSYN023702// 83706 86709 88713MET011TEMPO 6000?
0071039620999991976010918304+52683-008917FM-15+0014EINN V0202101N00201003001CN0040001N1+99999+99999999999ADDGA1031+001809079GA2081+003009079MA1101901999999MW1581REMMET006NOSIG?
0183039620999991976010919004+52683-008917SY-MT+0014EINN V0202301N00301002701CN0060001N1+01001+00901102011ADDAY161999GA1021+000609079GA2051+002709079GA3081+004509079GF108991081071000751999999MA1102001999999MD1310051+9999MW1501REMSYN01782702 85709 88175MET031GARADU     ?     4ST005 8ST010?
0092039620999991976010919304+52683-008917FM-15+0014EINN V0202401N00461001201CN0080001N1+99999+99999999999ADDGA1021+000609079GA2061+001209079GA3081+002109079MA1102001999999MW1201REMMET011TEMPO 5000?
0195039620999991976010920004+52683-008917SY-MT+0014EINN V0202501N00411001501CN0045001N1+01001+00901102051ADDAY161999GA1021+000909079GA2051+001509079GA3081+003309079GF108991081071001501999999MA1102001999999MD1210131+9999MW1581REMSYN02382703 85705 88711 94003MET037GRADU 9999       ?     3ST010 6SC020?
0117039620999991976010920304+52683-008917FM-15+0014EINN V0202501N00411003001CN0090001N1+99999+99999999999ADDGA1011+001209079GA2041+001809079GA3081+003009079MA1102001999999MW1211REMMET036GRADU 9999 3ST010      ?     6SC020?
0189039620999991976010921004+52683-008917SY-MT+0014EINN V0202501N00411002101CN0040001N1+01001+00901102101ADDAY161999GA1021+001209079GA2061+002109079GA3081+003309079GF108991081071001501999999MA1102001999999MD1210151+9999MW1501REMSYN01782704 86707 88711MET037GRADU 9999       ?     3ST010 6SC020?
0117039620999991976010921304+52683-008917FM-15+0014EINN V0202501N00461002101CN0040001N1+99999+99999999999ADDGA1011+000609079GA2041+001209079GA3081+002109079MA1102101999999MW1501REMMET036GRADU 9999 3ST010      ?     8SC020?
0189039620999991976010922004+52683-008917SY-MT+0014EINN V0202501N00511001801CN0040001N1+01001+00901102221ADDAY151999GA1031+001209079GA2051+001809079GA3071+003009079GF108991081071001501999999MA1102201999999MD1310211+9999MW1501REMSYN01783704 85707 87710MET037GRADU 9999       ?     3ST010 8SC020?
0100039620999991976010922304+52683-008917FM-15+0014EINN V0202801N00661002401CN0112001N1+99999+99999999999ADDGA1011+001209079GA2031+001809079GA3051+002409079MA1102201999999MW1501REMMET019GRADU 3ST010 8SC020
0182039620999991976010923004+52683-008917SY-MT+0014EINN V0202801N00511003901CN0112001N1+00901+00901102311ADDAY151999GA1031+002709079GA2051+003909079GA3071+005109079GF108991081061002501999999MA1102301999999MD1210261+9999MW1201REMSYN01783709 85713 87717MET030GRADU 3ST010     ?     8SC020?
0106039620999991976010923304+52683-008917FM-15+0014EINN V0202601N00721003301CN0112001N1+99999+99999999999ADDGA1021+002409079GA2051+003309079GA3071+006009059MA1102301999999MW1201REMMET025GRADU 3ST010 8SC02     ?0
0115039620999991976011000004+52683-008917FM-12+0014EINN V0202801N00881006001CN0200001N9+00901+00901102361ADDAA106000591AA299000691AY161999GA1081+006009059GF108991081051008001999999MD1210261+9999MW1021REMSYN011796// 88620
0068039620999991976011000304+52683-008917FM-15+0014EINN V0202801N00721005701CN0112001N1+99999+99999999999ADDGA1081+005709059MA1102401999999REMMET006NOSIG?EQDQ01+000000PRSWM2
0133039620999991976011001004+52683-008917SY-MT+0014EINN V0202701N00661006901CN0112001N1+00901+00701102431ADDAY121999GA1081+006909059GF108991081051008001999999MA1102401999999MD1110211+9999MW1021REMSYN00588623MET006NOSIG?EQDQ01+000000PRSWM2
0084039620999991976011001304+52683-008917FM-15+0014EINN V0202601N00771007501CN0112001N1+99999+99999999999ADDGA1021+004809079GA2071+007509059MA1102401999999REMMET006NOSIG?EQDQ01+000000PRSWM2
0155039620999991976011002004+52683-008917SY-MT+0014EINN V0202601N00661027001CN0112001N1+00901+00701102431ADDAY121999GA1031+007509059GA2061+027009049GF108991031051008001071999MA1102401999999MD1110121+9999MW1021REMSYN01183625 86459MET006NOSIG?EQDQ01+000000PRSWM2
0084039620999991976011002304+52683-008917FM-15+0014EINN V0202501N00661027001CN0112001N1+99999+99999999999ADDGA1031+007509059GA2081+027009049MA1102401999999REMMET006NOSIG?EQDQ01+000000PRSWM2
0155039620999991976011003004+52683-008917SY-MT+0014EINN V0202501N00721024001CN0112001N1+00901+00701102451ADDAY121999GA1031+007509059GA2081+024009049GF108991031051008001071999MA1102401999999MD1110091+9999MW1021REMSYN01183625 88458MET006NOSIG?EQDQ01+000000PRSWM2
0084039620999991976011003304+52683-008917FM-15+0014EINN V0202501N00721024001CN0112001N1+99999+99999999999ADDGA1041+007509059GA2081+024009049MA1102401999999REMMET006NOSIG?EQDQ01+000000PRSWM2
0155039620999991976011004004+52683-008917SY-MT+0014EINN V0202501N00721007501CN0112001N1+00901+00701102451ADDAY121999GA1061+007509059GA2081+024009049GF108991061051008001071999MA1102401999999MD1110021+9999MW1021REMSYN01186625 88458MET006NOSIG?EQDQ01+000000PRSWM2
0071039620999991976011004304+52683-008917FM-15+0014EINN V0202501N00921006901CN0112001N1+99999+99999999999ADDGA1071+006909059GA2081+024009049MA1102401999999MW1601REMMET006NOSIG?
0182039620999991976011005004+52683-008917SY-MT+0014EINN V0202401N00921006901CN0112001N1+00901+00801102401ADDAY161999GA1031+004209079GA2051+006909059GA3071+024009049GF108991061061004501071999MA1102301999999MD1810031+9999MW1601REMSYN01783714 85623 87458MET030GRADU 3ST010     ?     7ST015?
0085039620999991976011005304+52683-008917FM-15+0014EINN V0202401N00921006001CN0112001N1+99999+99999999999ADDGA1031+004209079GA2071+006009059MA1102301999999MW1601REMMET020GRADU 3ST010 7ST015?
0167039620999991976011006004+52683-008917SY-MT+0014EINN V0202501N01181005701CN0112001N1+00901+00801102381ADDAA199002091AY161999GA1021+004209079GA2081+005709079GF108991081061004501999999MA1102301999999MD1610071+9999MW1601REMSYN017702// 82714 88719MET020GRADU 2ST007 7ST015?
0085039620999991976011006304+52683-008917FM-15+0014EINN V0202401N01281004801CN0112001N1+99999+99999999999ADDGA1031+003609079GA2071+004809079MA1102301999999MW1611REMMET020GRADU 3ST007 7ST012?
0202039620999991976011007004+52683-008917SY-MT+0014EINN V0202501N01281004201CN0112001N1+00901+00801102351ADDAY161999GA1021+003009079GA2051+004209079GA3071+005109079GF108991081071004501999999MA1102301999999MD1710101+9999MW1611OC101851REMSYN02982710 85714 87717 91136 90081MET030GRADU 3ST007     ?     7ST012?
0071039620999991976011007304+52683-008917FM-15+0014EINN V0202401N01281003601CN0112001N1+99999+99999999999ADDGA1031+002409079GA2071+003609079MA1102301999999MW1601REMMET006NOSIG?
0136039620999991976011008004+52683-008917SY-MT+0014EINN V0202501N01181003301CN0080001N1+00901+00901102371ADDAY161999GA1031+002109079GA2081+003309079GF108991081061002501999999MA1102301999999MD1510031+9999MW1601REMSYN01183707 88711MET006NOSIG?
0071039620999991976011008304+52683-008917FM-15+0014EINN V0202501N01181002701CN0025001N1+99999+99999999999ADDGA1041+001509079GA2081+002709079MA1102301999999MW1511REMMET006NOSIG?
0163039620999991976011009004+52683-008917SY-MT+0014EINN V0202401N01281002101CN0045001N1+01001+00901102381ADDAY161999GA1021+001209079GA2071+002109079GA3081+003009079GF108991081071001501999999MA1102301999999MD1510001+9999MW1511REMSYN01782704 84707 88710MET011INTER 2500?
0163039620999991976011010004+52683-008917SY-MT+0014EINN V0202601N01331002401CN0060001N1+01001+01001102441ADDAY151999GA1031+001209079GA2051+002409079GA3081+004509079GF108991081071001501999999MA1102301999999MD1310091+9999MW1511REMSYN01783704 85708 88715MET011INTER 2500?
0087039620999991976011010304+52683-008917FM-15+0014EINN V0202601N01181002401CN0050001N1+99999+99999999999ADDGA1021+001209079GA2051+002409079GA3081+003609079MA1102401999999MW1511REMMET006NOSIG?
0172039620999991976011011004+52683-008917SY-MT+0014EINN V0202501N01231002401CN0060001N1+01101+01001102381ADDAY151999GA1051+002409079GA2081+003609079GF108991081061002501999999MA1102301999999MD1010011+9999MW1201REMSYN02385708 88712 91138 90085MET030TEMPO 4ST005     ?     8ST008?
0092039620999991976011011304+52683-008917FM-15+0014EINN V0202501N01281002401CN0070001N1+99999+99999999999ADDGA1021+001809079GA2051+002409079GA3081+003309079MA1102301999999MW1201REMMET011TEMPO 4000?
