0138039620999991982010100004+52683-008917SY-MT+0020EINN V0201101N00301220001CN0040001N1+00201+00101099301ADDAA106999929AG12000AY101061GF100991001001999999001001MA1099291999999MD1210251+9999MW1101REMSYN011333   97358MET0228000 TO SW TEMPO 0400?
0081039620999991982010100304+52683-008917FM-15+0020EINN V0203401N00251220001CN0040001N1+00101+00001999999ADDAG11999GA1021+000309079MA1099291999999MW1401REMMET025VIS10KM TO SW TEMPO 0800?
0090039620999991982010101004+52683-008917FM-15+0020EINN V0201101N00301009001CN0025001N1+00101+00001999999ADDAG11999GA1051+009009059MA1099291999999MW1101REMMET03410KM TO SW TEMPO       ?     1000?
0083039620999991982010101304+52683-008917FM-15+0020EINN V0201901N00201009001CN0030001N1+00101+00001999999ADDAG11999GA1021+006009089GA2031+009009059MA1099291999999MW1251REMMET011TEMOP 1000?
0096039620999991982010102004+52683-008917FM-15+0020EINN V0201101N00301220001CN0030001N1+00101+00001999999ADDAG12999GA1011+006009089MA1099391999999MW1251REMMET040VIS10KM TO SW          ?     TEMPO 1000?
0082039620999991982010102304+52683-008917FM-15+0020EINN V0201901N00201220001CN0030001N1+00001+00001999999ADDAG12000GA1011+009009059MA1099491999999MW1101REMMET026VIS 10KM TO SW TEMPO 1000?
0138039620999991982010103004+52683-008917SY-MT+0020EINN V0201901N00201220001CN0030001N1+00001-00101099551ADDAG12002AY181031GA1011+009009059GF101991011051012501001001MA1099491999999MD1210251+9999MW1101REMSYN017333   81630 97362MET011TEMPO 1000?
0077039620999991982010104004+52683-008917FM-15+0020EINN V0201901N002019999999N0040001N1+00101+00001999999ADDAG12999MA1099591999999MW1101REMMET037VIS 10KM TO      ?     SW TEMPO 1000?
0077039620999991982010104304+52683-008917FM-15+0020EINN V0201901N00201220001CN0030001N1+00001+00001999999ADDAG12999MA1099701999999MW1401REMMET037VIS 10KM TO      ?     SW TEMPO 1000?
0087039620999991982010105004+52683-008917FM-15+0020EINN V0201001N002019999999N0030001N1+00001+00001999999ADDAG12999MA1099701999999REMMET034VIS10KM TOSW     ?     TEMPO 1000?EQDQ01+000000PRSWM2
0080039620999991982010105304+52683-008917FM-15+0020EINN V0201101N00251220001CN0030001N1+00001+00001999999ADDAG12000MA1099801999999MW1401REMMET040VIS 10KM TO SW         ?     TEMPO 1000?
0202039620999991982010106004+52683-008917SY-MT+0020EINN V0201201N00251220001CN0030001N1+00001+00001099861ADDAA199999929AG12002AY181061GF100991001001999999001001IA1149IA2999-00409KA1120N-00041MA1099801999999MD1210301+9999MW1401REMSYN023333   21004 34104 97458MET043VIS 8KM TO SE SW       ?     NW GRADU 3000?
0083039620999991982010106304+52683-008917FM-15+0020EINN V0201201N00251220001CN0030001N1+00001-00101999999ADDAG12999MA1099901999999MW1401REMMET043VIS 9KM TO SE SW       ?     NW GRADU 3000?
0097039620999991982010107304+52683-008917FM-15+0020EINN V0201301N00251220001CN0040001N1+00001-00101999999ADDAG12999GA1011+012009059MA1100001999999MW1401REMMET041VIS 10KM         ?     TO SE SW NW NOSIG?
0067039620999991982010108004+52683-008917FM-15+0020EINN V0201201N00251220001CN0090001N1+00001+00001999999ADDAG12999GA1011+012009059MA1100001999999MW1101REMMET011TEMPO 6000?
0077039620999991982010108304+52683-008917FM-15+0020EINN V0201301N00251220001CN0060001N1+00001+00001999999ADDAG12000GA1011+006009089MA1100101999999MW1401REMMET021VIS 10KM TO SE SW NW?
0146039620999991982010109004+52683-008917SY-MT+0020EINN V0201401N00251220001CN0112001N1+00101+00001100191ADDAG12000AY101031GA1011+006009089GF101991011081999999031011MA1100101999999MD1210331+9999MW1101REMSYN011333   81820MET006NOSIG?EQDQ01+000992SCOLCB
0075039620999991982010109304+52683-008917FM-15+0020EINN V0201201N00251220001CN0112001N1+00001+00001999999ADDAG12999GA1011+006009089MA1100201999999REMMET006NOSIG?EQDQ01+000000PRSWM2
0076039620999991982010110004+52683-008917FM-15+0020EINN V0201101N00251220001CN0112001N1+00101+00001999999ADDAG12999GA1011+006009089MA1100311999999REMMET007NO SIG?EQDQ01+000000PRSWM2
0076039620999991982010110304+52683-008917FM-15+0020EINN V0201201N00251220001CN0112001N1+00201+00101999999ADDAG12999GA1011+006009089MA1100311999999REMMET007NO SIG?EQDQ01+000000PRSWM2
0076039620999991982010111004+52683-008917FM-15+0020EINN V0201101N00251220001CN0112001N1+00201+00101999999ADDAG11999GA1011+006009089MA1100311999999REMMET007NO SIG?EQDQ01+000000PRSWM2
0075039620999991982010111304+52683-008917FM-15+0020EINN V0201301N00201220001CN0112001N1+00301+00101999999ADDAG12000GA1011+006009089MA1100311999999REMMET006NOSIG?EQDQ01+000000PRSWM2
0144039620999991982010112004+52683-008917SY-MT+0020EINN V0201101N00201220001CN0112001N1+00401+00201100371ADDAA106999929AG12000GA1011+006009089GF101991011081008001001021MA1100311999999MD1010181+9999REMSYN011333   81820MET007NO SIG?EQDQ01+000000PRSWM2
0092039620999991982010112304+52683-008917FM-15+0020EINN V0201101N00251220001CN0112001N1+00401+00201999999ADDAG12999GA1011+012009059GA2031+060009009MA1100311999999REMMET007NO SIG?EQDQ01+000000PRSWM2
0092039620999991982010113004+52683-008917FM-15+0020EINN V0201101N00301060001CN0112001N1+00401+00201999999ADDAG12999GA1011+012009059GA2071+060009029MA1100411999999REMMET007NO SIG?EQDQ01+000000PRSWM2
0108039620999991982010113304+52683-008917FM-15+0020EINN V0201101N00301060001CN0112001N1+00401+00201999999ADDAG12999GA1011+012009059GA2031+036009039GA3071+060009029MA1100411999999REMMET007NO SIG?EQDQ01+000000PRSWM2
0065039620999991982010114004+52683-008917FM-15+0020EINN V0201101N00301999991CY0099001N1+00401+00301999999ADDAG12999MA1100411999999REMMET012CAVOK NOSIG?EQDQ01+000000PRSWM2
0104039620999991982010114304+52683-008917FM-15+0020EINN V0201101N00301036001CN0080001N1+00401+00201999999ADDAG12000GA1021+015009059GA2081+036009049MA1100511999999MW1101REMMET0329999       ?     TO NE,NW NOSIG?
0160039620999991982010115004+52683-008917SY-MT+0020EINN V0201101N00411030001CN0080001N1+00401+00201100501ADDAG12000AY121031GA1011+013509059GA2081+030009049GF108991011051012501071999MA1100411999999MD1010131+9999MW1101REMSYN023333   81645 88460 97170MET0119999 TO NE?
0086039620999991982010115304+52683-008917FM-15+0020EINN V0201101N00411027001CN0080001N1+00401+00201999999ADDAG12999GA1021+013509059GA2081+027009049MA1100411999999MW1101REMMET01410KM TO NE,SE?
0083039620999991982010116004+52683-008917FM-15+0020EINN V0201101N00461027001CN0080001N1+00401+00201999999ADDAG11999GA1021+013509059GA2081+027009049MA1100411999999MW1101REMMET01110KM TO NE?
0078039620999991982010116304+52683-008917FM-15+0020EINN V0201101N00511027001CN0112001N1+00401+00301999999ADDAG12999GA1021+012009059GA2081+027009049MA1100411999999MW1101REMMET006NOSIG?
0078039620999991982010117004+52683-008917FM-15+0020EINN V0201201N00511027001CN0112001N1+00401+00201999999ADDAG11999GA1021+012009059GA2081+027009049MA1100311999999MW1101REMMET006NOSIG?
0078039620999991982010117304+52683-008917FM-15+0020EINN V0201101N00561027001CN0112001N1+00401+00201999999ADDAG12000GA1031+012009059GA2081+027009049MA1100311999999MW1101REMMET006NOSIG?
0201039620999991982010118004+52683-008917SY-MT+0020EINN V0201201N00561015001CN0112001N1+00401+00301100321ADDAA199999929AG10000AY121061GA1011+012009059GA2061+015009059GA3081+027009049GF108991061051012501071999KA1120M+00401MA1100311999999MD1710181+9999MW1101REMSYN029333   10040 81640 86650 88759MET006NOSIG?
0062039620999991982010118304+52683-008917FM-15+0020EINN V0201201N00561013501CN0112001N1+00401+00301999999ADDAG12999GA1081+013509059MA1100201999999MW1101REMMET006NOSIG?
0062039620999991982010119004+52683-008917FM-15+0020EINN V0201301N00721009901CN0112001N1+00501+00201999999ADDAG11999GA1081+009909059MA1100201999999MW1601REMMET006NOSIG?
0085039620999991982010119304+52683-008917FM-15+0020EINN V0201301N00771004801CN0112001N1+00501+00201999999ADDAG12999GA1051+004809079GA2081+006009059MA1100201999999MW1601REMMET013GRADU 5ST010?
0085039620999991982010120004+52683-008917FM-15+0020EINN V0201401N01021004501CN0112001N1+00601+00501999999ADDAG12999GA1051+004509079GA2081+006009059MA1100201999999MW1631REMMET013GRADU 5ST010?
0090039620999991982010120304+52683-008917FM-15+0020EINN V0201301N01021004501CN0112001N1+00601+00301999999ADDAG12002GA1051+004509079GA2081+006009059MA1100101999999MW1611REMMET018GRADU 8000 5ST010?
0170039620999991982010121004+52683-008917SY-MT+0020EINN V0201201N00921006601CN0112001N1+00601+00401100091ADDAG12002AY161031GA1031+004509079GA2081+006609059GF108991081051004501999999MA1100001999999MD1810231+9999MW1611OA149901801REMSYN023333   83715 88622 91135MET010GRADU8000?
0099039620999991982010121304+52683-008917FM-15+0020EINN V0201201N00921006001CN0112001N1+00601+00401999999ADDAG12999GA1021+004509079GA2041+006009059GA3081+010209059MA1100001999999MW1601REMMET011GRADU 8000?
0105039620999991982010122004+52683-008917FM-15+0020EINN V0201301N01021004801CN0112001N1+00601+00401999999ADDAG12999GA1031+003609079GA2051+004809079GA3081+009009059MA1100001999999MW1611REMMET017GRAD 8000 5ST010?
0106039620999991982010122304+52683-008917FM-15+0020EINN V0201401N01131005101CN0112001N1+00701+00501999999ADDAG12999GA1031+003609079GA2051+005109079GA3081+009009059MA1099901999999MW1211REMMET018GRADU 8000 5ST010?
0091039620999991982010123004+52683-008917FM-15+0020EINN V0201301N01021004801CN0112001N1+00701+00501999999ADDAG12999GA1041+003609079GA2081+004809079MA1099901999999MW1211REMMET019GRADU 8000 5DST010?
0078039620999991982010123304+52683-008917FM-15+0020EINN V0201401N01131004501CN0112001N1+00801+00601999999ADDAG12001GA1041+003609079GA2081+004509079MA1099801999999MW1211REMMET006NOSIG?
0179039620999991982010200004+52683-008917SY-MT+0020EINN V0201501N01101004501CN0250001N1+00801+00581099841ADDAA106003091AG12001AY161061GA1031+003609079GA2081+004509079GF108991081061004501999999MA1099801999999MD1710471+9999MW1021REMSYN017333   83712 88715MET006NOSIG?EQDQ01+000000PRSWM2
0091039620999991982010200304+52683-008917FM-15+0020EINN V0201601N01231003601CN0112001N1+00801+00601999999ADDAG11999GA1051+003609079GA2081+006909059MA1099801999999REMMET006NOSIG?EQDQ01+000000PRSWM2
0107039620999991982010201004+52683-008917FM-15+0020EINN V0201501N01281005401CN0112001N1+00801+00601999999ADDAG11999GA1021+003009079GA2051+005409079GA3081+006909059MA1099701999999REMMET006NOSIG?EQDQ01+000000PRSWM2
0107039620999991982010201304+52683-008917FM-15+0020EINN V0201601N00871004501CN0112001N1+00901+00701999999ADDAG11999GA1021+003009079GA2041+004509079GA3081+005409079MA1099701999999REMMET006NOSIG?EQDQ01+000000PRSWM2
0091039620999991982010202004+52683-008917FM-15+0020EINN V0201301N00821005401CN0112001N1+00901+00701999999ADDAG11999GA1041+003309079GA2081+005409079MA1099701999999REMMET006NOSIG?EQDQ01+000000PRSWM2
0091039620999991982010202304+52683-008917FM-15+0020EINN V0201201N00771005401CN0112001N1+00901+00701999999ADDAG12000GA1031+003009079GA2081+005409079MA1099701999999REMMET006NOSIG?EQDQ01+000000PRSWM2
0160039620999991982010203004+52683-008917SY-MT+0020EINN V0201401N00801004801CN0250001N1+00861+00761099711ADDAG11000GA1021+003009079GA2081+004809079GF108991081061004501999999MA1099701999999MD1710121+9999MW1001REMSYN017333   82710 88716MET006NOSIG?EQDQ01+000000PRSWM2
0091039620999991982010203304+52683-008917FM-15+0020EINN V0201301N00611004801CN0112001N1+00901+00801999999ADDAG12999GA1021+003009079GA2081+004809079MA1099701999999REMMET006NOSIG?EQDQ01+000000PRSWM2
0091039620999991982010204004+52683-008917FM-15+0020EINN V0201301N00511004801CN0112001N1+00901+00801999999ADDAG11999GA1021+003009079GA2081+004809079MA1099701999999REMMET006NOSIG?EQDQ01+000000PRSWM2
0078039620999991982010204304+52683-008917FM-15+0020EINN V0201201N00411004801CN0112001N1+00901+00801999999ADDAG12999GA1031+003009079GA2081+004809079MA1099701999999MW1601REMMET006NOSIG?
0094039620999991982010205004+52683-008917FM-15+0020EINN V0201101N00461004801CN0112001N1+00901+00801999999ADDAG12999GA1021+003009079GA2051+004809079GA3081+024009049MA1099701999999MW1601REMMET006NOSIG?
0094039620999991982010205304+52683-008917FM-15+0020EINN V0201201N00461004501CN0112001N1+00901+00801999999ADDAG12002GA1021+003009079GA2051+004509079GA3081+015009059MA1099701999999MW1611REMMET006NOSIG?
0244039620999991982010206004+52683-008917SY-MT+0020EINN V0201201N00411004501CN0112001N1+00901+00801099721ADDAA199999999AG14000AY161061GA1021+003009079GA2051+004509079GA3081+008709059GF108991081061004501999999IA1099IA2999+00309KA1120N+00401MA1099701999999MD1010011+9999MW1581REMSYN035333   20040 31003 82710 85715 88629MET006NOSIG?EQDQ01  00002PRCP99
0094039620999991982010206304+52683-008917FM-15+0020EINN V0201301N00461003601CN0112001N1+00901+00901999999ADDAG12999GA1021+003009079GA2031+003609079GA3071+006009059MA1099701999999MW1581REMMET006NOSIG?
0078039620999991982010207304+52683-008917FM-15+0020EINN V0201501N00461004801CN0112001N1+01001+00901999999ADDAG12999GA1031+003609079GA2081+004809079MA1099701999999MW1501REMMET006NOSIG?
0078039620999991982010208004+52683-008917FM-15+0020EINN V0201601N00611004801CN0112001N1+01001+00901999999ADDAG12999GA1021+003609079GA2081+004809079MA1099701999999MW1211REMMET006NOSIG?
0094039620999991982010208304+52683-008917FM-15+0020EINN V0201501N00561004801CN0112001N1+01001+00901999999ADDAG12000GA1011+003009079GA2031+003609079GA3081+004809079MA1099701999999MW1201REMMET006NOSIG?
0190039620999991982010209004+52683-008917SY-MT+0020EINN V0201301N00501004801CN0200001N1+01001+00921099721ADDAG12001AY161031GA1011+003009079GA2031+003609079GA3071+004809079GF108991081061004501999999MA1099701999999MD1510001+9999MW1021REMSYN023333   81710 83712 87716MET006NOSIG?EQDQ01+000000PRSWM2
0107039620999991982010209304+52683-008917FM-15+0020EINN V0201401N00611004801CN0112001N1+01101+01001999999ADDAG12999GA1011+003009079GA2031+003609079GA3081+004809079MA1099701999999REMMET006NOSIG?EQDQ01+000000PRSWM2
0107039620999991982010210004+52683-008917FM-15+0020EINN V0201801N00771003601CN0060001N1+01201+01101999999ADDAG12999GA1031+002409079GA2051+003609079GA3081+004509079MA1099701999999MW1621REMMET019TEMPO5ST008      ??
0118039620999991982010210304+52683-008917FM-15+0020EINN V0201701N00611003601CN0090001N1+01201+01101999999ADDAG12999GA1031+002409079GA2051+003609079GA3081+005409079MA1099701999999MW1621REMMET030TEMPO 5ST006     ?     8ST010?
0125039620999991982010211004+52683-008917FM-15+0020EINN V0201801N00611004801CN0090001N1+01201+01101999999ADDAG12999GA1021+002409079GA2051+004809079GA3081+015009049MA1099701999999MW1611REMMET037TEMPO 6000       ?     5ST006 8ST010?
0101039620999991982010211304+52683-008917FM-15+0020EINN V0201801N00561004801CN0112001N1+01101+00801999999ADDAG12002GA1021+002409079GA2051+004809079GA3081+015009049MA1099801999999MW1611REMMET013TEMPO 5ST008?
0212039620999991982010212004+52683-008917SY-MT+0020EINN V0201901N00511003601CN0030001N1+01101+01101099801ADDAA106007091AG12000AY161061GA1031+002109079GA2051+003609079GA3081+006009059GF108991081061002501999999MA1099701999999MD1210071+9999MW1581REMSYN029333   83707 85712 88620 97359MET030TEMPO 5000       ?     5ST006?
0085039620999991982010213004+52683-008917FM-15+0020EINN V0201901N00721003601CN0040001N1+01201+01101999999ADDAG12999GA1041+002109079GA2081+003609079MA1099701999999MW1581REMMET013TEMPO 5ST006?
0118039620999991982010213304+52683-008917FM-15+0020EINN V0202001N00611004501CN0112001N1+01201+01101999999ADDAG12999GA1031+002409079GA2051+004509079GA3081+007509059MA1099701999999MW1581REMMET030TEMPO 5000       ?     5ST006?
0106039620999991982010214004+52683-008917FM-15+0020EINN V0201801N00611004501CN0112001N1+01201+01101999999ADDAG12999GA1041+002709079GA2061+004509079GA3081+007509059MA1099701999999MW1581REMMET018TEMPO 5000 5ST006?
0083039620999991982010214304+52683-008917FM-15+0020EINN V0201901N00611002401CN0090001N1+01201+01101999999ADDAG12000GA1051+002409079GA2081+004509079MA1099701999999MW1581REMMET011TEMPO 5000?
0183039620999991982010215004+52683-008917SY-MT+0020EINN V0201901N00601007501CN0150001N1+01201+01111099741ADDAG12002AY161031GA1031+003009079GA2051+007509059GA3081+015009049GF108991051061004501021999MA1099701999999MD1610051+9999MW1611REMSYN023333   83710 85625 88550MET018TEMPO 5000 5ST006?
0101039620999991982010215304+52683-008917FM-15+0020EINN V0201901N00511006001CN0060001N1+01201+01101999999ADDAG12999GA1031+003009079GA2051+006009059GA3081+015009049MA1099701999999MW1631REMMET013TEMPO 5ST008?
0101039620999991982010216004+52683-008917FM-15+0020EINN V0201901N00461006001CN0080001N1+01201+01101999999ADDAG12999GA1031+003009079GA2051+006009059GA3081+015009049MA1099701999999MW1611REMMET013TEMPO 5ST008?
0108039620999991982010216304+52683-008917FM-15+0020EINN V0201901N00461006001CN0050001N1+01201+01101999999ADDAG12999GA1041+002709079GA2061+006009059GA3081+015009049MA1099801999999MW1631REMMET020TEMPO 5ST006 8ST010?
0113039620999991982010217004+52683-008917FM-15+0020EINN V0201901N00461006001CN0112001N1+01201+01101999999ADDAG12999GA1021+003009079GA2051+006009059GA3081+015009049MA1099801999999MW1611REMMET025TEMPO 5000 5ST006 8ST010?
0113039620999991982010217304+52683-008917FM-15+0020EINN V0201801N00461006601CN0090001N1+01201+01101999999ADDAG12003GA1021+003009079GA2051+006609059GA3081+012009049MA1099801999999MW1631REMMET025TEMPO 5000 5ST006 8ST010?
0246039620999991982010218004+52683-008917SY-MT+0020EINN V0201701N00461004801CN0090001N1+01101+01101099821ADDAA199014091AG12003AY161061GA1031+003609079GA2051+004809079GA3081+009009049GF108991999061004501021999GJ100009KA1120M+01241MA1099801999999MD1310071+9999MW1631REMSYN035333   10124 83712 85616 88530 94000MET018TEMPO 5000 5ST006?EQDQ01+000082SCOTLC
0106039620999991982010218304+52683-008917FM-15+0020EINN V0201501N00411004801CN0112001N1+01101+01001999999ADDAG12999GA1021+003609079GA2041+004809079GA3081+015009049MA1099701999999MW1611REMMET018TEMPO 5000 5ST006?
0090039620999991982010219004+52683-008917FM-15+0020EINN V0201601N00411013501CN0112001N1+01101+01001999999ADDAG12999GA1031+009009059GA2081+013509049MA1099701999999MW1631REMMET018TEMPO 5000 5ST006?
0083039620999991982010219304+52683-008917FM-15+0020EINN V0201401N00411012001CN0112001N1+01101+01001999999ADDAG12999GA1031+006009059GA2081+012009049MA1099701999999MW1611REMMET011TEMPO 8000?
0106039620999991982010220004+52683-008917FM-15+0020EINN V0201401N00361007201CN0112001N1+01001+01001999999ADDAG12999GA1021+004809079GA2031+007209059GA3081+012009049MA1099701999999MW1611REMMET018TEMPO 8000 3ST012?
0090039620999991982010220304+52683-008917FM-15+0020EINN V0201601N00511012001CN0112001N1+01101+01001999999ADDAG12002GA1021+006609059GA2081+012009049MA1099701999999MW1611REMMET018TEMPO 8000 3ST012?
0183039620999991982010221004+52683-008917SY-MT+0020EINN V0201601N00501006001CN0150001N1+01021+00981099711ADDAG12002AY161031GA1021+003609079GA2051+006009059GA3081+013509049GF108991051051004501021999MA1099701999999MD1710111+9999MW1611REMSYN023333   82712 85620 88545MET018TEMPO 5000 5ST012?
0102039620999991982010221304+52683-008917FM-15+0020EINN V0201601N00561013501CN0112001N1+01101+01001999999ADDAG12999GA1031+006009059GA2081+013509049MA1099591999999MW1611REMMET030TEMPO 5000       ?     5ST012?
0090039620999991982010222004+52683-008917FM-15+0020EINN V0201601N00661012001CN0112001N1+01101+01001999999ADDAG11999GA1031+009009059GA2081+012009059MA1099591999999MW1611REMMET018TEMPO 5000 5ST012?
0078039620999991982010222304+52683-008917FM-15+0020EINN V0201701N00661012001CN0112001N1+01101+01001999999ADDAG12999GA1031+009009059GA2081+012009059MA1099591999999MW1601REMMET006NOSIG?
0078039620999991982010223004+52683-008917FM-15+0020EINN V0201701N00721012001CN0112001N1+01201+01001999999ADDAG11999GA1031+009009059GA2081+012009059MA1099591999999MW1601REMMET006NOSIG?
0078039620999991982010223304+52683-008917FM-15+0020EINN V0201701N00771012001CN0112001N1+01201+01001999999ADDAG12001GA1041+004809079GA2081+012009059MA1099491999999MW1601REMMET006NOSIG?
0160039620999991982010300004+52683-008917SY-MT+0020EINN V0201701N00821012001CN0112001N1+01201+01101099551ADDAA106004091AG12002AY161061GA1031+004809079GA2081+012009059GF108991081051004501999999MA1099491999999MD1810151+9999MW1611REMSYN017333   83716 88640MET006NOSIG?
0078039620999991982010300304+52683-008917FM-15+0020EINN V0201701N00821012001CN0112001N1+01201+01001999999ADDAG11999GA1031+005409079GA2081+012009059MA1099491999999MW1211REMMET006NOSIG?
0106039620999991982010301004+52683-008917FM-15+0020EINN V0201701N00921004801CN0112001N1+01201+01001999999ADDAG11999GA1021+002409079GA2041+004809079GA3071+007209059MA1099391999999MW1601REMMET018TEMPO 5000 6ST008?
0106039620999991982010301304+52683-008917FM-15+0020EINN V0201701N00721004501CN0112001N1+01201+01001999999ADDAG11999GA1021+003009079GA2041+004509079GA3071+006009059MA1099391999999MW1211REMMET018TEMPO 5000 6ST008?
0106039620999991982010302004+52683-008917FM-15+0020EINN V0201801N00661006001CN0112001N1+01201+01001999999ADDAG12999GA1011+003009079GA2031+004509079GA3071+006009059MA1099391999999MW1211REMMET018TEMPO 5000 6ST008?
0119039620999991982010302304+52683-008917FM-15+0020EINN V0201901N00771006901CN0112001N1+01201+01001999999ADDAG11000GA1021+004509079GA2041+006909059GA3061+012009059MA1099291999999REMMET018TEMPO 6000 6ST010?EQDQ01+000000PRSWM2
0171039620999991982010303004+52683-008917SY-MT+0020EINN V0202001N00871006601CN0112001N1+01201+01001099371ADDAG12001AY161031GA1021+004509079GA2041+006609059GA3071+009009059GF108991081051004501999999MA1099291999999MD1710181+9999MW1601REMSYN023333   82715 84622 87630MET006NOSIG?
0078039620999991982010303304+52683-008917FM-15+0020EINN V0202101N00871004201CN0112001N1+01201+01001999999ADDAG11999GA1051+004209079GA2061+012009059MA1099391999999MW1501REMMET006NOSIG?
0078039620999991982010304004+52683-008917FM-15+0020EINN V0202101N00661004501CN0112001N1+01201+01101999999ADDAG12999GA1051+004509079GA2061+012009059MA1099291999999MW1211REMMET006NOSIG?
0062039620999991982010304304+52683-008917FM-15+0020EINN V0202101N00921220001CN0112001N1+01201+01001999999ADDAG11999GA1011+004509079MA1099291999999MW1201REMMET006NOSIG?
0091039620999991982010305004+52683-008917FM-15+0020EINN V0202101N00661004801CN0112001N1+01201+00901999999ADDAG12999GA1051+004809079GA2041+006909059MA1099391999999REMMET006NOSIG?EQDQ01+000000PRSWM2
0075039620999991982010305304+52683-008917FM-15+0020EINN V0201401N00461220001CN0112001N1+01101+00901999999ADDAG12000GA1011+004809079MA1099391999999REMMET006NOSIG?EQDQ01+000000PRSWM2
0190039620999991982010306004+52683-008917SY-MT+0020EINN V0201401N00411220001CN0099001N1+01101+00901099481ADDAA199005091AG12001AY161061GF100991001001999999001001IA1099IA2999+00709KA1120N+01001MA1099391999999MD1310111+9999MW1011REMSYN023333   20100 31007 90055MET012CAVOK NOSIG?EQDQ01+000000PRSWM2
0075039620999991982010306304+52683-008917FM-15+0020EINN V0201601N00561220001CN0112001N1+01201+00901999999ADDAG11999GA1011+009009059MA1099391999999REMMET006NOSIG?EQDQ01+000000PRSWM2
0075039620999991982010307004+52683-008917FM-15+0020EINN V0201901N00871220001CN0112001N1+01101+00801999999ADDAG12999GA1011+009009059MA1099391999999REMMET006NOSIG?EQDQ01+000000PRSWM2
0075039620999991982010307304+52683-008917FM-15+0020EINN V0201601N00771220001CN0112001N1+01101+00801999999ADDAG11999GA1031+007509059MA1099391999999REMMET006NOSIG?EQDQ01+000000PRSWM2
0091039620999991982010308004+52683-008917FM-15+0020EINN V0201801N00821060001CN0112001N1+01201+00801999999ADDAG12999GA1031+007509059GA2031+060009009MA1099391999999REMMET006NOSIG?EQDQ01+000000PRSWM2
0091039620999991982010308304+52683-008917FM-15+0020EINN V0201401N00511060001CN0112001N1+01001+00801999999ADDAG12000GA1041+006009059GA2031+060009009MA1099391999999REMMET006NOSIG?EQDQ01+000000PRSWM2
0108039620999991982010309004+52683-008917FM-12+0020EINN V0201201N00401060001CN0250001N9+00981+00841099451ADDAG12000GA1041+006009059GA2041+060009009GF106991041051008001001021MD1510031+9999REMSYN017333   84620 84070
0091039620999991982010309304+52683-008917FM-15+0020EINN V0201501N00721006901CN0112001N1+01001+00801999999ADDAG12999GA1011+003609079GA2051+006909059MA1099391999999REMMET006NOSIG?EQDQ01+000000PRSWM2
0091039620999991982010310004+52683-008917FM-15+0020EINN V0201301N00611007501CN0112001N1+01101+00901999999ADDAG12999GA1011+003609079GA2051+007509059MA1099391999999REMMET006NOSIG?EQDQ01+000000PRSWM2
0091039620999991982010310304+52683-008917FM-15+0020EINN V0201501N00611007501CN0112001N1+01101+00801999999ADDAG12999GA1011+003309079GA2061+007509059MA1099291999999REMMET006NOSIG?EQDQ01+000000PRSWM2
0107039620999991982010311004+52683-008917FM-15+0020EINN V0201401N00561060001CN0112001N1+01001+00801999999ADDAG11999GA1011+003309079GA2031+007509059GA3051+060009009MA1099291999999REMMET006NOSIG?EQDQ01+000000PRSWM2
0107039620999991982010311304+52683-008917FM-15+0020EINN V0201501N00511060001CN0112001N1+01001+00801999999ADDAG12000GA1011+002709079GA2031+007509059GA3051+060009009MA1099191999999REMMET006NOSIG?EQDQ01+000000PRSWM2
0176039620999991982010312004+52683-008917SY-MT+0020EINN V0201401N00561060001CN0112001N1+01101+00901099161ADDAG12000GA1011+002709079GA2031+007509059GA3051+060009009GF107991031051002501031021MA1099091999999MD1810291+9999REMSYN023333   81709 83625 85070MET006NOSIG?EQDQ01+000000PRSWM2
0094039620999991982010312304+52683-008917FM-15+0020EINN V0201301N00611027001CN0112001N1+01101+01001999999ADDAG12999GA1011+002709079GA2031+007509059GA3071+027009049MA1099091999999MW1211REMMET006NOSIG?
0099039620999991982010313004+52683-008917FM-15+0020EINN V0201301N00661005101CN0060001N1+01101+01001999999ADDAG12999GA1021+002409079GA2051+005109079GA3051+012009059MA1098981999999MW1601REMMET011TEMPO 10KM?
0099039620999991982010313304+52683-008917FM-15+0020EINN V0201301N00611004801CN0112001N1+01101+01001999999ADDAG12999GA1021+002109079GA2061+004809079GA3061+012009059MA1098921999999MW1601REMMET011TEMPO 8000?
0083039620999991982010314004+52683-008917FM-15+0020EINN V0201301N00611002701CN0112001N1+01101+01001999999ADDAG12999GA1051+002709079GA2071+004509079MA1098821999999MW1211REMMET011TEMPO 8000?
0083039620999991982010314304+52683-008917FM-15+0020EINN V0201501N00661002701CN0112001N1+01101+01001999999ADDAG12001GA1051+002709079GA2071+004509079MA1098821999999MW1211REMMET011TEMPO 8000?
0156039620999991982010315004+52683-008917SY-MT+0020EINN V0201501N00721003601CN0112001N1+01101+01001098741ADDAG12000AY161031GA1041+002409079GA2071+003609079GF108991081061002501999999MA1098711999999MD1710421+9999MW1581REMSYN017333   84708 87712MET013TEMPO 5ST007?
0078039620999991982010315304+52683-008917FM-15+0020EINN V0201501N00771002101CN0050001N1+01101+01001999999ADDAG12999GA1051+002109079GA2071+003609079MA1098611999999MW1591REMMET006NOSIG?
0094039620999991982010316004+52683-008917FM-15+0020EINN V0201401N00721002401CN0070001N1+01101+01001999999ADDAG12999GA1021+001809079GA2041+002409079GA3071+003609079MA1098611999999MW1631REMMET006NOSIG?
0106039620999991982010316304+52683-008917FM-15+0020EINN V0201401N00661003001CN0112001N1+01101+01001999999ADDAG12999GA1021+002109079GA2031+003009079GA3071+004509079MA1098611999999MW1601REMMET018TEMPO 7000 5ST007?
0106039620999991982010317304+52683-008917FM-15+0020EINN V0201701N00661007501CN0112001N1+01101+01001999999ADDAG12001GA1031+004509079GA2041+007509059GA3081+012009059MA1098511999999MW1211REMMET018TEMPO 7000 5ST010?
0205039620999991982010318004+52683-008917SY-MT+0020EINN V0201601N00661012001CN0112001N1+01001+00901098531ADDAA199004091AG12001AY161061GA1041+006009059GA2081+012009059GF108991081051008001999999GJ100009KA1120M+01121MA1098511999999MD1610211+9999MW1211REMSYN029333   10112 84620 88640 94000MET018TEMPO 7000 5ST010?
0090039620999991982010318304+52683-008917FM-15+0020EINN V0201901N00721012001CN0112001N1+01001+00901999999ADDAG12999GA1041+006009059GA2081+012009059MA1098511999999MW1601REMMET018TEMPO 7700 5ST010?
0083039620999991982010319004+52683-008917FM-15+0020EINN V0201901N00511003601CN0112001N1+01001+00901999999ADDAG12999GA1051+003609079GA2081+012009059MA1098511999999MW1601REMMET011TEMPO 7000?
0099039620999991982010319304+52683-008917FM-15+0020EINN V0202001N00461006001CN0112001N1+00901+00901999999ADDAG12999GA1041+003609079GA2051+006009059GA3081+012009059MA1098511999999MW1611REMMET011TEMPO 7000?
0099039620999991982010320004+52683-008917FM-15+0020EINN V0202101N00721003601CN0090001N1+00901+00901999999ADDAG12999GA1021+002709079GA2051+003609079GA3071+005709079MA1098611999999MW1611REMMET011TEMPO 7000?
0083039620999991982010320304+52683-008917FM-15+0020EINN V0202301N00871002401CN0030001N1+00901+00901999999ADDAG12000GA1041+001809079GA2071+002409079MA1098611999999MW1581REMMET011GRADU 8000?
0176039620999991982010321004+52683-008917SY-MT+0020EINN V0202401N00871002701CN0112001N1+00901+00901098721ADDAG12001AY161031GA1031+001509079GA2051+002709079GA3081+006009059GF108991081061001501999999MA1098711999999MD1310191+9999MW1211REMSYN023333   83705 85709 88620MET011GRADU 8000?
0094039620999991982010322004+52683-008917FM-15+0020EINN V0202401N00771007501CN0112001N1+00901+00801999999ADDAG11999GA1031+003909079GA2061+007509059GA3061+012009059MA1098821999999MW1211REMMET006NOSIG?
0107039620999991982010322304+52683-008917FM-15+0020EINN V0202301N00661007501CN0112001N1+00901+00801999999ADDAG12999GA1021+003909079GA2051+007509059GA3061+012009059MA1098821999999REMMET006NOSIG?EQDQ01+000000PRSWM2
0107039620999991982010323004+52683-008917FM-15+0020EINN V0202201N00511015001CN0112001N1+00801+00701999999ADDAG11999GA1011+003909079GA2041+007509059GA3071+015009059MA1098921999999REMMET006NOSIG?EQDQ01+000000PRSWM2
0091039620999991982010323304+52683-008917FM-15+0020EINN V0202101N00461015001CN0112001N1+00901+00701999999ADDAG11000GA1041+006009089GA2051+015009059MA1098921999999REMMET006NOSIG?EQDQ01+000000PRSWM2
0201039620999991982010400004+52683-008917SY-MT+0020EINN V0202101N00561006001CN0112001N1+00901+00801099001ADDAA106002091AG12001AY161061GA1031+003309079GA2031+006009089GA3051+013509059GF107991071081004501999999MA1098981999999MD1210281+9999MW1021REMSYN023333   83711 83820 85645MET006NOSIG?EQDQ01+000000PRSWM2
0075039620999991982010400304+52683-008917FM-15+0020EINN V0202201N00511220001CN0112001N1+00901+00901999999ADDAG11999GA1021+006009089MA1098921999999REMMET006NOSIG?EQDQ01+000000PRSWM2
0075039620999991982010401004+52683-008917FM-15+0020EINN V0202201N00461220001CN0112001N1+00901+00801999999ADDAG11999GA1021+006009089MA1098981999999REMMET006NOSIG?EQDQ01+000000PRSWM2
0091039620999991982010401304+52683-008917FM-15+0020EINN V0202101N00461009001CN0112001N1+00901+00801999999ADDAG11999GA1031+005409089GA2041+009009059MA1098981999999REMMET006NOSIG?EQDQ01+000000PRSWM2
0091039620999991982010402004+52683-008917FM-15+0020EINN V0202101N00411009001CN0112001N1+00901+00801999999ADDAG11999GA1031+006009089GA2051+009009059MA1098981999999REMMET006NOSIG?EQDQ01+000000PRSWM2
0091039620999991982010402304+52683-008917FM-15+0020EINN V0202101N00461009001CN0112001N1+00901+00801999999ADDAG12000GA1021+006009089GA2041+009009059MA1098981999999REMMET006NOSIG?EQDQ01+000000PRSWM2
0132039620999991982010403004+52683-008917SY-MT+0020EINN V0202101N00411220001CN0112001N1+00901+00801099071ADDAG12000GA1011+006009089GF102991021081008001001001MA1098981999999MD1210071+9999REMSYN011333   81820MET006NOSIG?EQDQ01+000000PRSWM2
0075039620999991982010403304+52683-008917FM-15+0020EINN V0202001N00411220001CN0112001N1+00901+00801999999ADDAG12999GA1031+005409089MA1098981999999REMMET006NOSIG?EQDQ01+000000PRSWM2
0091039620999991982010404004+52683-008917FM-15+0020EINN V0201901N00361009001CN0112001N1+00801+00801999999ADDAG12999GA1021+006009089GA2031+009009059MA1098981999999REMMET006NOSIG?EQDQ01+000000PRSWM2
0075039620999991982010404304+52683-008917FM-15+0020EINN V0202201N00611220001CN0112001N1+00901+00801999999ADDAG12999GA1021+006009089MA1098981999999REMMET006NOSIG?EQDQ01+000000PRSWM2
0075039620999991982010405004+52683-008917FM-15+0020EINN V0202201N00561220001CN0112001N1+00901+00801999999ADDAG12999GA1011+006009089MA1099091999999REMMET006NOSIG?EQDQ01+000000PRSWM2
0075039620999991982010405304+52683-008917FM-15+0020EINN V0202201N00611220001CN0112001N1+00901+00801999999ADDAG11000GA1011+006009089MA1099091999999REMMET006NOSIG?EQDQ01+000000PRSWM2
0192039620999991982010406004+52683-008917SY-MT+0020EINN V0202201N00611220001CN0112001N1+00901+00701099161ADDAA199002091AG12000GA1011+006009089GF101991011021008001001001IA1099IA2999+00409KA1120N+00791MA1099091999999MD1210091+9999MW1001REMSYN023333   20079 31004 81820MET006NOSIG?EQDQ01+000000PRSWM2
0065039620999991982010407004+52683-008917FM-15+0020EINN V0202001N00511999991CY0099001N1+00801+00601999999ADDAG11999MA1099191999999REMMET012CAVOK NOSIG?EQDQ01+000000PRSWM2
0075039620999991982010408004+52683-008917FM-15+0020EINN V0202001N00561220001CN0112001N1+00901+00701999999ADDAG11999GA1011+006009099MA1099191999999REMMET006NOSIG?EQDQ01+000000PRSWM2
0091039620999991982010408304+52683-008917FM-15+0020EINN V0201901N00511010501CN0112001N1+00801+00601999999ADDAG12000GA1021+006009099GA2051+010509059MA1099191999999REMMET006NOSIG?EQDQ01+000000PRSWM2
0177039620999991982010409004+52683-008917SY-MT+0020EINN V0201801N00511006001CN0112001N1+00901+00601099311ADDAG12002AY181031GA1021+004809079GA2051+006009099GA3061+010509059GF107991071091004501999999MA1099291999999MD1210151+9999MW1801REMSYN029333   82716 85920 86635 97180MET006NOSIG?
0079039620999991982010409304+52683-008917FM-15+0020EINN V0202001N00611006001CN0112001N1+00901+00801999999ADDAG12999GA1031+004809079GA2041+006009099GA3051+010509059MA1099291999999MW1801
0078039620999991982010410004+52683-008917FM-15+0020EINN V0202001N00301006001CN0112001N1+00801+00701999999ADDAG12999GA1021+004509079GA2051+006009099MA1099391999999MW1251REMMET006NOSIG?
0078039620999991982010410304+52683-008917FM-15+0020EINN V0202101N00511220001CN0112001N1+00901+00701999999ADDAG12999GA1011+004509079GA2041+006009099MA1099391999999MW1251REMMET006NOSIG?
0078039620999991982010411004+52683-008917FM-15+0020EINN V0202201N00561006001CN0112001N1+00901+00801999999ADDAG12999GA1011+003009079GA2051+006009099MA1099391999999MW1801REMMET006NOSIG?
0078039620999991982010411304+52683-008917FM-15+0020EINN V0202301N00721220001CN0112001N1+01001+00801999999ADDAG12002GA1011+004509079GA2021+006009099MA1099391999999MW1251REMMET006NOSIG?
0160039620999991982010412004+52683-008917SY-MT+0020EINN V0202301N00821006001CN0112001N1+00901+00801099511ADDAA106003091AG12002AY181061GA1011+003609079GA2041+006009099GF107991071031004501999999MA1099491999999MD1110201+9999MW1801REMSYN017333   81712 84920MET006NOSIG?
0078039620999991982010412304+52683-008917FM-15+0020EINN V0202301N00721220001CN0112001N1+01001+00801999999ADDAG12999GA1011+004209079GA2011+006009099MA1099491999999MW1251REMMET006NOSIG?
0078039620999991982010413004+52683-008917FM-15+0020EINN V0202301N00771220001CN0112001N1+01001+00801999999ADDAG11999GA1011+005109079GA2011+006009099MA1099491999999MW1251REMMET006NOSIG?
0091039620999991982010413304+52683-008917FM-15+0020EINN V0202401N00821220001CN0112001N1+01101+00801999999ADDAG12999GA1011+005109079GA2011+006609099MA1099491999999REMMET006NOSIG?EQDQ01+000000PRSWM2
0075039620999991982010414004+52683-008917FM-15+0020EINN V0202301N00611220001CN0112001N1+01101+00801999999ADDAG11999GA1011+006009099MA1099491999999REMMET006NOSIG?EQDQ01+000000PRSWM2
0075039620999991982010414304+52683-008917FM-15+0020EINN V0202201N00511220001CN0112001N1+01101+00801999999ADDAG12000GA1031+006009099MA1099491999999REMMET006NOSIG?EQDQ01+000000PRSWM2
0168039620999991982010415004+52683-008917SY-MT+0020EINN V0202301N00721006001CN0112001N1+01001+00801099601ADDAG12001AY181031GA1021+004509079GA2061+006009099GF106991061031004501999999MA1099591999999MD1310091+9999MW1151REMSYN017333   82715 86920MET006NOSIG?EQDQ01+000000PRSWM2
0062039620999991982010415304+52683-008917FM-15+0020EINN V0202301N00661220001CN0112001N1+00901+00701999999ADDAG12999GA1031+006009099MA1099591999999MW1801REMMET006NOSIG?
0062039620999991982010416004+52683-008917FM-15+0020EINN V0202101N00561220001CN0112001N1+00901+00701999999ADDAG11999GA1011+006009099MA1099591999999MW1251REMMET006NOSIG?
0075039620999991982010416304+52683-008917FM-15+0020EINN V0202101N00511220001CN0112001N1+00901+00701999999ADDAG12999GA1021+006009099MA1099591999999REMMET006NOSIG?EQDQ01+000000PRSWM2
0075039620999991982010417304+52683-008917FM-15+0020EINN V0202301N00611220001CN0112001N1+00801+00701999999ADDAG12000GA1011+006009099MA1099701999999REMMET006NOSIG?EQDQ01+000000PRSWM2
0198039620999991982010418004+52683-008917SY-MT+0020EINN V0202201N00611220001CN0112001N1+00801+00701099751ADDAA199003091AG10002AY181061GA1021+006009099GA2031+012009059GF104991041031008001001011KA1120M+01101MA1099701999999MD1210141+9999MW1031REMSYN023333   10110 82920 83640MET006NOSIG?EQDQ01+000000PRSWM2
0078039620999991982010418304+52683-008917FM-15+0020EINN V0202101N00511012001CN0112001N1+00901+00701999999ADDAG12999GA1021+006009099GA2051+012009059MA1099701999999MW1251REMMET006NOSIG?
0078039620999991982010419004+52683-008917FM-15+0020EINN V0202101N00511008401CN0112001N1+00901+00701999999ADDAG12999GA1031+006009089GA2061+008409059MA1099701999999MW1251REMMET006NOSIG?
0092039620999991982010419304+52683-008917FM-15+0020EINN V0202001N00461220001CN0112001N1+00801+00701999999ADDAG12999GA1011+006009089GA2031+010509059MA1099701999999REMMET007NO SIG?EQDQ01+000000PRSWM2
0092039620999991982010420004+52683-008917FM-15+0020EINN V0201901N00461013501CN0112001N1+00801+00601999999ADDAG11999GA1021+006609089GA2051+013509059MA1099801999999REMMET007NO SIG?EQDQ01+000000PRSWM2
0091039620999991982010420304+52683-008917FM-15+0020EINN V0201601N00461012001CN0112001N1+00801+00601999999ADDAG12000GA1031+006009089GA2061+012009059MA1099801999999REMMET006NOSIG?EQDQ01+000000PRSWM2
0182039620999991982010421004+52683-008917SY-MT+0020EINN V0201701N00511012001CN0112001N1+00901+00701099821ADDAG12002AY181031GA1031+006009089GA2061+012009059GF107991071081008001999999GJ101809MA1099801999999MD1110071+9999MW1031REMSYN023333   83820 86640 94030MET006NOSIG?EQDQ01+000000PRSWM2
0092039620999991982010421304+52683-008917FM-15+0020EINN V0201501N00411012001CN0112001N1+00801+00601999999ADDAG12999GA1021+006009089GA2061+012009059MA1099801999999REMMET007NO SIG?EQDQ01+000000PRSWM2
0092039620999991982010422004+52683-008917FM-15+0020EINN V0201901N00461013501CN0112001N1+00901+00801999999ADDAG11999GA1031+007509089GA2031+013509059MA1099801999999REMMET007NO SIG?EQDQ01+000000PRSWM2
0092039620999991982010422304+52683-008917FM-15+0020EINN V0201401N00461015001CN0112001N1+00801+00701999999ADDAG12999GA1021+007509089GA2051+015009059MA1099801999999REMMET007NO SIG?EQDQ01+000000PRSWM2
0092039620999991982010423004+52683-008917FM-15+0020EINN V0201601N00461015001CN0112001N1+00701+00601999999ADDAG11999GA1021+007509089GA2061+015009059MA1099801999999REMMET007NO SIG?EQDQ01+000000PRSWM2
0092039620999991982010423304+52683-008917FM-15+0020EINN V0201601N00511015001CN0112001N1+00801+00701999999ADDAG11000GA1021+007509089GA2061+015009059MA1099701999999REMMET007NO SIG?EQDQ01+000000PRSWM2
0133039620999991982010500004+52683-008917FM-12+0020EINN V0201601N00501012001CN0300001N9+00761+00671099781ADDAA106999929AG12002AY181061GA1031+006009089GA2061+012009059GF107991071081008001999999MD1710031+9999MW1021REMSYN017333   83820 86640
0078039620999991982010500304+52683-008917FM-15+0020EINN V0201701N00511006601CN0112001N1+00901+00701999999ADDAG11999GA1051+006609089GA2061+012009059MA1099701999999MW1251REMMET006NOSIG?
0078039620999991982010501004+52683-008917FM-15+0020EINN V0201701N00461006001CN0112001N1+00901+00701999999ADDAG11999GA1051+006009089GA2061+012009059MA1099701999999MW1251REMMET006NOSIG?
0079039620999991982010501304+52683-008917FM-15+0020EINN V0201801N00511006001CN0112001N1+00901+00701999999ADDAG11999GA1021+006009099GA2031+006009089GA3051+012009059MA1099591999999MW1801
0063039620999991982010502004+52683-008917FM-15+0020EINN V0201801N00461006001CN0112001N1+00801+00701999999ADDAG11999GA1051+006009089GA2061+012009059MA1099591999999MW1251
0078039620999991982010502304+52683-008917FM-15+0020EINN V0202001N00511012001CN0112001N1+00901+00801999999ADDAG12002GA1031+006009089GA2051+012009059MA1099591999999MW1251REMMET006NOSIG?
0149039620999991982010503004+52683-008917SY-MT+0020EINN V0202201N00561012001CN0112001N1+00901+00801099671ADDAG12002AY181031GA1031+006009089GA2071+012009059GF108991081081008001999999MA1099591999999MD1710101+9999MW1251REMSYN017333   83820 87640MET006NOSIG?
0078039620999991982010503304+52683-008917FM-15+0020EINN V0202201N00511012001CN0112001N1+00901+00801999999ADDAG12999GA1031+007509089GA2081+012009059MA1099591999999MW1251REMMET006NOSIG?
0078039620999991982010504004+52683-008917FM-15+0020EINN V0202401N00461012001CN0112001N1+00901+00801999999ADDAG11999GA1041+007209089GA2081+012009059MA1099591999999MW1251REMMET006NOSIG?
0098039620999991982010504304+52683-008917FM-15+0020EINN V0202401N00511004201CN0112001N1+00801+00701999999ADDAG12999GA1051+004209079GA2081+007509059MA1099591999999REMMET013GRADU 4SC020?EQDQ01+000000PRSWM2
0075039620999991982010505004+52683-008917FM-15+0020EINN V0202401N00561006001CN0112001N1+00801+00701999999ADDAG11999GA1061+006009059MA1099591999999REMMET006NOSIG?EQDQ01+000000PRSWM2
0203039620999991982010506004+52683-008917SY-MT+0020EINN V0202301N00411006001CN0112001N1+00801+00701099651ADDAA199000391AG10002AY181061GA1041+003309079GA2041+006009089GF106991061021004501999999IA1099IA2999+00509KA1120N+00691MA1099591999999MD1810021+9999MW1801REMSYN029333   20069 31005 84711 84820MET006NOSIG?
0091039620999991982010506304+52683-008917FM-15+0020EINN V0202501N00411004801CN0112001N1+00801+00701999999ADDAG12999GA1021+003309079GA2041+004809079MA1099591999999REMMET006NOSIG?EQDQ01+000000PRSWM2
0094039620999991982010507004+52683-008917FM-15+0020EINN V0202201N00411006301CN0112001N1+00801+00701999999ADDAG11999GA1011+002709079GA2041+004209079GA3051+006309089MA1099591999999MW1251REMMET006NOSIG?
0094039620999991982010508004+52683-008917FM-15+0020EINN V0202401N00411003901CN0112001N1+00801+00701999999ADDAG11999GA1031+002709079GA2031+003909079GA3041+006009099MA1099591999999MW1801REMMET006NOSIG?
0099039620999991982010508304+52683-008917FM-15+0020EINN V0202301N00411003901CN0112001N1+00801+00801999999ADDAG12002GA1031+002709079GA2041+003909079GA3031+006009099MA1099591999999MW1251REMMET011TEMPO 8000?
0190039620999991982010509004+52683-008917SY-MT+0020EINN V0202401N00411003901CN0080001N1+00801+00701099701ADDAG12002AY181031GA1031+002409079GA2051+003909079GA3021+006009099GF107991071031002501999031MA1099701999999MD1310051+9999MW1801REMSYN023333   83708 85713 82920MET025GRADU 9999 3ST010 6CU020?
0125039620999991982010509304+52683-008917FM-15+0020EINN V0202401N00411003901CN0080001N1+00801+00701999999ADDAG12999GA1031+002409079GA2041+003909079GA3021+006009099MA1099701999999MW1801REMMET03716KM TO          ?     NW GRADU 9999?
0094039620999991982010510004+52683-008917FM-15+0020EINN V0202601N00461003901CN0090001N1+00901+00801999999ADDAG11999GA1031+002409079GA2031+003909079GA3031+006009099MA1099701999999MW1801REMMET006NOSIG?
0094039620999991982010510304+52683-008917FM-15+0020EINN V0202701N00461006001CN0112001N1+00901+00801999999ADDAG12999GA1021+002409079GA2031+006009099GA3051+060009009MA1099701999999MW1251REMMET006NOSIG?
0094039620999991982010511004+52683-008917FM-15+0020EINN V0202601N00461003901CN0080001N1+00901+00801999999ADDAG12999GA1031+002409079GA2031+003909079GA3031+006009099MA1099801999999MW1251REMMET006NOSIG?
0079039620999991982010511304+52683-008917FM-15+0020EINN V0202601N00461006001CN0080001N1+00901+00801999999ADDAG12002GA1031+002409079GA2031+006009099MA1099801999999MW1801REMMET007NO SIG?
0160039620999991982010512004+52683-008917SY-MT+0020EINN V0202801N00461006001CN0090001N1+01001+00901099851ADDAA106002091AG12002AY181061GA1021+002109079GA2031+006009099GF106991061031002501999999MA1099801999999MD1210121+9999MW1251REMSYN017333   82707 83920MET006NOSIG?
0078039620999991982010512304+52683-008917FM-15+0020EINN V0203201N00721006001CN0112001N1+00901+00801999999ADDAG12999GA1021+002409079GA2031+006009099MA1099801999999MW1801REMMET006NOSIG?
0094039620999991982010513004+52683-008917FM-15+0020EINN V0203201N00661004501CN0112001N1+00801+00701999999ADDAG12999GA1021+002709079GA2031+004509079GA3051+009009059MA1099901999999MW1251REMMET006NOSIG?
0107039620999991982010513304+52683-008917FM-15+0020EINN V0203101N00661004501CN0112001N1+00801+00601999999ADDAG12999GA1021+002709079GA2041+004509079GA3051+009009059MA1099901999999REMMET006NOSIG?EQDQ01+000000PRSWM2
0095039620999991982010514004+52683-008917FM-15+0020EINN V0203101N00661003601CN0112001N1+00801+00601999999ADDAG12999GA1051+003609079GA2041+005409099GA3051+012009059MA1099901999999MW1801REMMET007NO SIG?
0079039620999991982010514304+52683-008917FM-15+0020EINN V0202901N00661004201CN0112001N1+00801+00601999999ADDAG12002GA1031+002709079GA2081+004209079MA1100001999999MW1251REMMET007NO SIG?
0150039620999991982010515004+52683-008917SY-MT+0020EINN V0202901N00721004801CN0112001N1+00801+00501100061ADDAG12002AY181031GA1021+003009079GA2071+004809079GF107991071061004501999999MA1100001999999MD1210221+9999MW1251REMSYN017333   82710 87716MET007NO SIG?
0076039620999991982010515304+52683-008917FM-15+0020EINN V0202801N00611007501CN0112001N1+00801+00501999999ADDAG12999GA1051+007509059MA1100101999999REMMET007NO SIG?EQDQ01+000000PRSWM2
0076039620999991982010516004+52683-008917FM-15+0020EINN V0202801N00561009001CN0112001N1+00801+00501999999ADDAG12999GA1051+009009059MA1100101999999REMMET007NO SIG?EQDQ01+000000PRSWM2
0079039620999991982010516304+52683-008917FM-15+0020EINN V0202601N00611007501CN0112001N1+00801+00501999999ADDAG12999GA1031+003609079GA2071+007509059MA1100201999999MW1601REMMET007NO SIG?
0079039620999991982010517004+52683-008917FM-15+0020EINN V0202601N00661006001CN0112001N1+00801+00601999999ADDAG12999GA1031+003309079GA2081+006009059MA1100201999999MW1211REMMET007NO SIG?
0078039620999991982010517304+52683-008917FM-15+0020EINN V0202901N00611007501CN0112001N1+00801+00601999999ADDAG12001GA1021+003609079GA2081+007509059MA1100311999999MW1211REMMET006NOSIG?
0198039620999991982010518004+52683-008917SY-MT+0020EINN V0202901N00561007501CN0112001N1+00801+00601100391ADDAA199002091AG12002AY181061GA1021+003609079GA2071+007509059GF107991071051004501999999KA1120M+00951MA1100311999999MD1210321+9999MW1011REMSYN023333   10095 82712 87625MET006NOSIG?EQDQ01+000000PRSWM2
0091039620999991982010518304+52683-008917FM-15+0020EINN V0203001N00511007501CN0112001N1+00801+00501999999ADDAG12999GA1021+003609079GA2081+007509059MA1100411999999REMMET006NOSIG?EQDQ01+000000PRSWM2
0091039620999991982010519004+52683-008917FM-15+0020EINN V0203001N00511006901CN0112001N1+00701+00401999999ADDAG12999GA1021+003609079GA2081+006909059MA1100511999999REMMET006NOSIG?EQDQ01+000000PRSWM2
0083039620999991982010519304+52683-008917FM-15+0020EINN V0203001N00561006901CN0112001N1+00701+00401999999ADDAG12999GA1021+003609079GA2061+006909059REMMET0130 1005 NOSIG?EQDQ01+000000PRSWM2
0075039620999991982010520004+52683-008917FM-15+0020EINN V0202901N00461007501CN0112001N1+00701+00401999999ADDAG12999GA1071+007509059MA1100511999999REMMET006NOSIG?EQDQ01+000000PRSWM2
0091039620999991982010520304+52683-008917FM-15+0020EINN V0203101N00411007501CN0112001N1+00701+00401999999ADDAG12000GA1021+004509079GA2071+007509059MA1100511999999REMMET006NOSIG?EQDQ01+000000PRSWM2
0154039620999991982010521004+52683-008917SY-MT+0020EINN V0203201N00411007501CN0112001N1+00701+00501100651ADDAG12000GA1021+004509079GA2081+007509059GF108991081051004501999999MA1100611999999MD1210251+9999REMSYN017333   82715 88625MET006NOSIG?EQDQ01+000000PRSWM2
0091039620999991982010521304+52683-008917FM-15+0020EINN V0203401N00361009001CN0112001N1+00701+00501999999ADDAG12999GA1021+004509079GA2071+009009059MA1100611999999REMMET006NOSIG?EQDQ01+000000PRSWM2
0107039620999991982010522004+52683-008917FM-15+0020EINN V0200101N00411006901CN0112001N1+00701+00501999999ADDAG12999GA1021+004509079GA2041+006909059GA3071+009009059MA1100711999999REMMET006NOSIG?EQDQ01+000000PRSWM2
0091039620999991982010522304+52683-008917FM-15+0020EINN V0200501N00871009001CN0112001N1+00501+00301999999ADDAG12999GA1021+004509079GA2071+009009059MA1100811999999REMMET006NOSIG?EQDQ01+000000PRSWM2
0091039620999991982010523004+52683-008917FM-15+0020EINN V0200601N00771009001CN0112001N1+00501+00301999999ADDAG12999GA1021+004509079GA2071+009009059MA1100811999999REMMET006NOSIG?EQDQ01+000000PRSWM2
0091039620999991982010523304+52683-008917FM-15+0020EINN V0200601N00661009001CN0112001N1+00501+00201999999ADDAG12000GA1031+003609079GA2081+009009059MA1100911999999REMMET006NOSIG?EQDQ01+000000PRSWM2
0177039620999991982010600004+52683-008917SY-MT+0020EINN V0200701N00871004501CN0112001N1+00401+00201101001ADDAG12000GA1021+003309079GA2041+004509079GA3081+009009059GF108991081061004501999999MA1100911999999MD1210351+9999REMSYN023333   82711 84715 88630MET007NOSIG ?EQDQ01+000000PRSWM2
0091039620999991982010600304+52683-008917FM-15+0020EINN V0200601N00921009001CN0112001N1+00401+00101999999ADDAG11999GA1041+004509079GA2061+009009059MA1101021999999REMMET006NOSIG?EQDQ01+000000PRSWM2
0091039620999991982010601004+52683-008917FM-15+0020EINN V0200501N00871009001CN0112001N1+00401+00101999999ADDAG11999GA1031+004509079GA2071+009009059MA1101021999999REMMET006NOSIG?EQDQ01+000000PRSWM2
0092039620999991982010601304+52683-008917FM-15+0020EINN V0200601N00871220001CN0112001N1+00401+00001999999ADDAG11999GA1011+004509079GA2031+009009059MA1101021999999REMMET007NOSIG+?EQDQ01+000000PRSWM2
0107039620999991982010602004+52683-008917FM-15+0020EINN V0200601N00821010501CN0112001N1+00301+00001999999ADDAG11999GA1021+005409079GA2031+010509059GA3051+075009009MA1101081999999REMMET006NOSIG?EQDQ01+000000PRSWM2
0091039620999991982010602304+52683-008917FM-15+0020EINN V0200601N00661005401CN0112001N1+00401+00001999999ADDAG12000GA1061+005409079GA2041+010509059MA1101081999999REMMET006NOSIG?EQDQ01+000000PRSWM2
0132039620999991982010603004+52683-008917SY-MT+0020EINN V0200601N00771005401CN0112001N1+00401+00001101261ADDAG12000GA1081+005409079GF108991081061004501999999MA1101191999999MD1210261+9999REMSYN011333   88718MET006NOSIG?EQDQ01+000000PRSWM2
0091039620999991982010603304+52683-008917FM-15+0020EINN V0200501N00721006601CN0112001N1+00401+00201999999ADDAG12999GA1081+006609059GA2081+012009059MA1101291999999REMMET006NOSIG?EQDQ01+000000PRSWM2
0075039620999991982010604004+52683-008917FM-15+0020EINN V0200601N00611006601CN0112001N1+00301+00101999999ADDAG12999GA1081+006609059MA1101291999999REMMET006NOSIG?EQDQ01+000000PRSWM2
0075039620999991982010605004+52683-008917FM-15+0020EINN V0200501N00771006601CN0112001N1+00401+00001999999ADDAG12999GA1081+006609059MA1101291999999REMMET006NOSIG?EQDQ01+000000PRSWM2
0075039620999991982010605304+52683-008917FM-15+0020EINN V0200501N00771006601CN0112001N1+00401+00001999999ADDAG12000GA1081+006609059MA1101291999999REMMET006NOSIG?EQDQ01+000000PRSWM2
0175039620999991982010606004+52683-008917SY-MT+0020EINN V0200301N00511006001CN0112001N1+00401+00101101451ADDAG12000GA1081+006009059GF108991081051008001999999IA1099IA2999+00209KA1120N+00321MA1101391999999MD1210191+9999REMSYN023333   20032 31002 88620MET006NOSIG?EQDQ01+000000PRSWM2
0091039620999991982010606304+52683-008917FM-15+0020EINN V0200501N00611009001CN0112001N1+00301+00101999999ADDAG12999GA1041+006009059GA2081+009009059MA1101391999999REMMET006NOSIG?EQDQ01+000000PRSWM2
0091039620999991982010607004+52683-008917FM-15+0020EINN V0200501N00561012001CN0112001N1+00301+00001999999ADDAG12999GA1021+006009059GA2081+012009059MA1101491999999REMMET006NOSIG?EQDQ01+000000PRSWM2
0075039620999991982010607304+52683-008917FM-15+0020EINN V0200601N00511012001CN0112001N1+00301+00001999999ADDAG12999GA1081+012009059MA1101491999999REMMET006NOSIG?EQDQ01+000000PRSWM2
0091039620999991982010608004+52683-008917FM-15+0020EINN V0200201N00461012001CN0112001N1+00301+00001999999ADDAG12999GA1011+006009089GA2081+012009059MA1101591999999REMMET006NOSIG?EQDQ01+000000PRSWM2
0176039620999991982010609004+52683-008917SY-MT+0020EINN V0200501N00411030001CN0112001N1+00201-00101101801ADDAG12000GA1011+007809089GA2041+013509059GA3081+030009049GF108991041081008001071999MA1101691999999MD1310351+9999REMSYN023333   81826 84645 88460MET006NOSIG?EQDQ01+000000PRSWM2
0107039620999991982010609304+52683-008917FM-15+0020EINN V0200601N00611030001CN0112001N1+00201-00201999999ADDAG12999GA1011+007809089GA2031+015009059GA3051+030009049MA1101801999999REMMET006NOSIG?EQDQ01+000000PRSWM2
0107039620999991982010610004+52683-008917FM-15+0020EINN V0200601N00721060001CN0112001N1+00201-00201999999ADDAG12999GA1011+007809089GA2031+030009049GA3061+060009009MA1101801999999REMMET006NOSIG?EQDQ01+000000PRSWM2
0075039620999991982010610304+52683-008917FM-15+0020EINN V0200701N00871220001CN0112001N1+00201-00201999999ADDAG12999GA1011+007809089MA1101801999999REMMET006NOSIG?EQDQ01+000000PRSWM2
0091039620999991982010611004+52683-008917FM-15+0020EINN V0200701N00721060001CN0112001N1+00201-00201999999ADDAG12999GA1011+007809089GA2061+060009009MA1101901999999REMMET006NOSIG?EQDQ01+000000PRSWM2
0092039620999991982010611304+52683-008917FM-15+0020EINN V0200901N00771060001CN0112001N1+00301-00201999999ADDAG12000GA1011+007809089GA2061+060009009MA1101901999999REMMET007NO SIG?EQDQ01+000000PRSWM2
0160039620999991982010612004+52683-008917SY-MT+0020EINN V0200801N00771060001CN0112001N1+00301-00301101981ADDAG12000GA1011+007809089GA2051+060009009GF105991011081008001031021MA1101901999999MD1110181+9999MW1001REMSYN017333   81826 85070MET006NOSIG?EQDQ01+000000PRSWM2
0091039620999991982010612304+52683-008917FM-15+0020EINN V0200901N00821060001CN0112001N1+00301-00301999999ADDAG11999GA1011+007809089GA2051+060009009MA1101901999999REMMET006NOSIG?EQDQ01+000000PRSWM2
0091039620999991982010613004+52683-008917FM-15+0020EINN V0200901N00871060001CN0112001N1+00401-00301999999ADDAG12999GA1011+007809089GA2061+060009029MA1101901999999REMMET006NOSIG?EQDQ01+000000PRSWM2
0091039620999991982010613304+52683-008917FM-15+0020EINN V0200901N00871060001CN0112001N1+00301-00301999999ADDAG11999GA1011+007809089GA2061+060009029MA1101901999999REMMET006NOSIG?EQDQ01+000000PRSWM2
0092039620999991982010614004+52683-008917FM-15+0020EINN V0200901N00721060001CN0112001N1+00301-00301999999ADDAG12999GA1011+007809089GA2061+060009029MA1102001999999REMMET007NO SIG?EQDQ01+000000PRSWM2
0092039620999991982010614304+52683-008917FM-15+0020EINN V0200901N00771060001CN0112001N1+00401-00301999999ADDAG11000GA1011+007809089GA2061+060009029MA1102001999999REMMET007NO SIG?EQDQ01+000000PRSWM2
0161039620999991982010615004+52683-008917SY-MT+0020EINN V0200801N00771060001CN0112001N1+00401-00301102051ADDAG12000GA1011+007809089GA2061+060009029GF107991011081008001031081MA1102001999999MD1310081+9999MW1001REMSYN017333   81826 86270MET007NO SIG?EQDQ01+000000PRSWM2
0092039620999991982010615304+52683-008917FM-15+0020EINN V0200801N00721060001CN0112001N1+00301-00401999999ADDAG11999GA1011+007809089GA2061+060009029MA1102101999999REMMET007NO SIG?EQDQ01+000000PRSWM2
0091039620999991982010616004+52683-008917FM-15+0020EINN V0200801N00721060001CN0112001N1+00301-00401999999ADDAG12999GA1011+007809089GA2071+060009009MA1102101999999REMMET006NOSIG?EQDQ01+000000PRSWM2
0107039620999991982010616304+52683-008917FM-15+0020EINN V0200801N00661060001CN0112001N1+00201-00401999999ADDAG11999GA1011+010509059GA2031+015009059GA3071+060009009MA1102101999999REMMET006NOSIG?EQDQ01+000000PRSWM2
0066039620999991982010617004+52683-008917FM-15+0020EINN V0200801N00661999991CY0099001N1+00201-00401999999ADDAG12999MA1102101999999REMMET013CAVOK NO SIG?EQDQ01+000000PRSWM2
0066039620999991982010617304+52683-008917FM-15+0020EINN V0200701N00611999991CY0099001N1+00201-00301999999ADDAG11000MA1102101999999REMMET013CAVOK NO SIG?EQDQ01+000000PRSWM2
0178039620999991982010618004+52683-008917SY-MT+0020EINN V0200801N00611220001CN0099001N1+00201-00401102211ADDAG11000GA1011+030009039GF101991011001999999031021GJ101989KA1120M+00361MA1102201999999MD1110151+9999MW1001REMSYN023333   10036 81360 94033MET013CAVOK NO SIG?EQDQ01+000000PRSWM2
0059039620999991982010618304+52683-008917FM-15+0020EINN V0200601N00611220001CN0099001N1+00101-00401999999ADDMA1102201999999REMMET013CAVOK NO SIG?EQDQ01+000000PRSWM2
0066039620999991982010620304+52683-008917FM-15+0020EINN V0200601N00561999991CY0099001N1+00001-00401999999ADDAG12000MA1102201999999REMMET013CAVOK NO SIG?EQDQ01+000000PRSWM2
0145039620999991982010621004+52683-008917SY-MT+0020EINN V0200501N00511220001CN0099001N1+00001-00401102341ADDAG12000GA1011+075009029GF104991001001999999001081MA1102301999999MD1310131+9999REMSYN017333   81275 94720MET013CAVOK NO SIG?EQDQ01+000000PRSWM2
0066039620999991982010621304+52683-008917FM-15+0020EINN V0200401N00411999991CY0099001N1+00001-00401999999ADDAG12999MA1102301999999REMMET013CAVOK NO SIG?EQDQ01+000000PRSWM2
0065039620999991982010622004+52683-008917FM-15+0020EINN V0200501N00461999991CY0099001N1+00101-00401999999ADDAG11999MA1102301999999REMMET012CAVOK NOSIG?EQDQ01+000000PRSWM2
0065039620999991982010622304+52683-008917FM-15+0020EINN V0200901N00511999991CY0099001N1+00101-00301999999ADDAG12999MA1102301999999REMMET012CAVOK NOSIG?EQDQ01+000000PRSWM2
0075039620999991982010623004+52683-008917FM-15+0020EINN V0200801N00561220001CN0112001N1+00101-00401999999ADDAG11999GA1031+010509059MA1102301999999REMMET006NOSIG?EQDQ01+000000PRSWM2
0075039620999991982010623304+52683-008917FM-15+0020EINN V0200801N00611220001CN0112001N1+00101-00401999999ADDAG12000GA1031+010509059MA1102301999999REMMET006NOSIG?EQDQ01+000000PRSWM2
0165039620999991982010700004+52683-008917SY-MT+0020EINN V0200901N00721220001CN0112001N1+00101-00501102401ADDAA106999929AG12000GA1021+012009059GA2041+075009009GF104991021051012501001021MA1102301999999MD1210061+9999REMSYN017333   82640 84075MET006NOSIG?EQDQ01+000000PRSWM2
0091039620999991982010700304+52683-008917FM-15+0020EINN V0201001N00771060001CN0112001N1+00101-00501999999ADDAG11999GA1011+012009059GA2071+060009029MA1102301999999REMMET006NOSIG?EQDQ01+000000PRSWM2
0091039620999991982010701004+52683-008917FM-15+0020EINN V0200901N00721060001CN0112001N1+00101-00401999999ADDAG11999GA1011+012009059GA2071+060009029MA1102301999999REMMET006NOSIG?EQDQ01+000000PRSWM2
0091039620999991982010701304+52683-008917FM-15+0020EINN V0200801N00661060001CN0112001N1+00101-00401999999ADDAG11999GA1011+012009059GA2071+060009029MA1102301999999REMMET006NOSIG?EQDQ01+000000PRSWM2
0091039620999991982010702004+52683-008917FM-15+0020EINN V0200801N00771060001CN0112001N1+00101-00401999999ADDAG11999GA1011+012009059GA2071+060009029MA1102301999999REMMET006NOSIG?EQDQ01+000000PRSWM2
0091039620999991982010702304+52683-008917FM-15+0020EINN V0200801N00721060001CN0112001N1+00101-00501999999ADDAG12000GA1011+012009059GA2071+060009029MA1102201999999REMMET006NOSIG?EQDQ01+000000PRSWM2
0154039620999991982010703004+52683-008917SY-MT+0020EINN V0200701N00721060001CN0112001N1+00101-00501102301ADDAG12000GA1011+012009059GA2071+060009029GF107991011051012501001081MA1102201999999MD1710101+9999REMSYN017333   81640 87270MET006NOSIG?EQDQ01+000000PRSWM2
0065039620999991982010703304+52683-008917FM-15+0020EINN V0200601N00511999991CY0099001N1+00101-00501999999ADDAG12999MA1102201999999REMMET012CAVOK NOSIG?EQDQ01+000000PRSWM2
0091039620999991982010704004+52683-008917FM-15+0020EINN V0200601N00561060001CN0112001N1+00101-00501999999ADDAG11999GA1011+010509059GA2071+060009029MA1102201999999REMMET006NOSIG?EQDQ01+000000PRSWM2
0091039620999991982010704304+52683-008917FM-15+0020EINN V0200601N00511008401CN0112001N1+00101-00501999999ADDAG12999GA1071+008409059GA2081+060009029MA1102201999999REMMET006NOSIG?EQDQ01+000000PRSWM2
0075039620999991982010705004+52683-008917FM-15+0020EINN V0200601N00611008401CN0112001N1+00101-00401999999ADDAG11999GA1081+008409059MA1102201999999REMMET006NOSIG?EQDQ01+000000PRSWM2
0075039620999991982010705304+52683-008917FM-15+0020EINN V0200801N00611007801CN0112001N1+00101-00401999999ADDAG12000GA1081+007809059MA1102101999999REMMET006NOSIG?EQDQ01+000000PRSWM2
0075039620999991982010706004+52683-008917FM-15+0020EINN V0200701N00661007801CN0112001N1+00101-00301999999ADDAG12000GA1071+007809059MA1102101999999REMMET006NOSIG?EQDQ01+000000PRSWM2
0075039620999991982010706304+52683-008917FM-15+0020EINN V0200801N00771007501CN0112001N1+00101-00301999999ADDAG12999GA1081+007509059MA1102101999999REMMET006NOSIG?EQDQ01+000000PRSWM2
0075039620999991982010707004+52683-008917FM-15+0020EINN V0200801N00771007501CN0112001N1+00101-00301999999ADDAG12999GA1081+007509059MA1102101999999REMMET006NOSIG?EQDQ01+000000PRSWM2
0075039620999991982010707304+52683-008917FM-15+0020EINN V0200901N00771007501CN0112001N1+00201-00301999999ADDAG12999GA1081+007509059MA1102101999999REMMET006NOSIG?EQDQ01+000000PRSWM2
0075039620999991982010708004+52683-008917FM-15+0020EINN V0200901N00871007501CN0112001N1+00201-00201999999ADDAG12999GA1081+007509059MA1102101999999REMMET006NOSIG?EQDQ01+000000PRSWM2
0154039620999991982010709004+52683-008917SY-MT+0020EINN V0200901N00821007501CN0112001N1+00201-00201102151ADDAG12000GA1071+007509059GA2061+027009039GF108991071051008001071999MA1102101999999MD1610051+9999REMSYN017333   87625 86359MET006NOSIG?EQDQ01+000000PRSWM2
0091039620999991982010709304+52683-008917FM-15+0020EINN V0201001N00871008401CN0112001N1+00201-00201999999ADDAG12999GA1071+008409059GA2061+027009039MA1102101999999REMMET006NOSIG?EQDQ01+000000PRSWM2
0091039620999991982010710004+52683-008917FM-15+0020EINN V0201101N01081008401CN0112001N1+00201-00201999999ADDAG12999GA1071+008409059GA2061+027009039MA1102101999999REMMET006NOSIG?EQDQ01+000000PRSWM2
0091039620999991982010710304+52683-008917FM-15+0020EINN V0201001N01021007501CN0112001N1+00201-00101999999ADDAG12999GA1061+007509059GA2061+027009039MA1102101999999REMMET006NOSIG?EQDQ01+000000PRSWM2
0107039620999991982010711004+52683-008917FM-15+0020EINN V0201101N01231027001CN0112001N1+00201-00101999999ADDAG12999GA1011+005709079GA2041+007509059GA3071+027009039MA1102101999999REMMET006NOSIG?EQDQ01+000000PRSWM2
0107039620999991982010711304+52683-008917FM-15+0020EINN V0201001N00971008401CN0112001N1+00201-00101999999ADDAG12000GA1011+006009059GA2061+008409059GA3071+027009049MA1102001999999REMMET006NOSIG?EQDQ01+000000PRSWM2
0182039620999991982010712004+52683-008917SY-MT+0020EINN V0201101N01021008401CN0112001N1+00201-00101102051ADDAG12000GA1011+006009059GA2061+008409059GA3081+027009049GF108991061051008001071999MA1102001999999MD1810101+9999MW1001REMSYN023333   81620 86628 88359MET006NOSIG?EQDQ01+000000PRSWM2
0107039620999991982010712304+52683-008917FM-15+0020EINN V0201101N00921008401CN0112001N1+00201-00101999999ADDAG12999GA1011+006009059GA2061+008409059GA3081+027009049MA1101901999999REMMET006NOSIG?EQDQ01+000000PRSWM2
0107039620999991982010713004+52683-008917FM-15+0020EINN V0201101N01131008401CN0112001N1+00301-00101999999ADDAG12999GA1011+006009059GA2061+008409059GA3081+027009049MA1101901999999REMMET006NOSIG?EQDQ01+000000PRSWM2
0107039620999991982010713304+52683-008917FM-15+0020EINN V0201101N01131008401CN0112001N1+00301-00101999999ADDAG12999GA1011+005709079GA2061+008409059GA3081+027009049MA1101801999999REMMET006NOSIG?EQDQ01+000000PRSWM2
0107039620999991982010714004+52683-008917FM-15+0020EINN V0201101N01181009001CN0112001N1+00301-00101999999ADDAG12999GA1011+006009059GA2051+009009059GA3081+027009049MA1101691999999REMMET006NOSIG?EQDQ01+000000PRSWM2
0107039620999991982010714304+52683-008917FM-15+0020EINN V0201101N01231027001CN0112001N1+00301-00101999999ADDAG12000GA1011+006009059GA2031+009009059GA3071+027009049MA1101691999999REMMET006NOSIG?EQDQ01+000000PRSWM2
0176039620999991982010715004+52683-008917SY-MT+0020EINN V0201001N01181010501CN0112001N1+00301-00101101691ADDAG12000GA1011+006009059GA2051+010509059GA3081+027009049GF108991051051008001071999MA1101591999999MD1710361+9999REMSYN023333   81620 85635 88459MET006NOSIG?EQDQ01+000000PRSWM2
0107039620999991982010715304+52683-008917FM-15+0020EINN V0201101N01131010501CN0112001N1+00301-00101999999ADDAG12999GA1011+006009059GA2061+010509059GA3081+027009049MA1101591999999REMMET006NOSIG?EQDQ01+000000PRSWM2
0176039620999991982010716004+52683-008917SY-MT+0020EINN V0201001N01021010501CN0112001N1+00301-00101101561ADDAG12999GA1011+006009059GA2051+010509059GA3081+027009049GF108991051051008001071999MA1101491999999MD1710391+9999REMSYN023333   81620 85635 88459MET006NOSIG?EQDQ01+000000PRSWM2
0107039620999991982010716304+52683-008917FM-15+0020EINN V0200901N01021009001CN0112001N1+00301-00101999999ADDAG12999GA1011+006009059GA2061+009009059GA3081+024009049MA1101391999999REMMET006NOSIG?EQDQ01+000000PRSWM2
0175039620999991982010717004+52683-008917SY-MT+0020EINN V0200901N00921007801CN0112001N1+00301-00101101451ADDAG12999GA1011+006009059GA2061+007809059GA3081+024009049GF108991061051008001021999MA1101391999999MD1710341+9999REMSYN023333   81620 86626 88458MET005,98&?EQDQ01+000000PRSWM2
0094039620999991982010717304+52683-008917FM-15+0020EINN V0200901N00921005401CN0112001N1+00201-00101999999ADDAG12001GA1021+004509079GA2051+005409079GA3061+009009059MA1101291999999MW1601REMMET006NOSIG?
0186039620999991982010718004+52683-008917SY-MT+0020EINN V0201001N00971006001CN0112001N1+00301+00001101331ADDAA199999929AG12001AY161061GA1041+004509079GA2081+006009059GF108991081061004501999999KA1120M+00291MA1101291999999MD1710361+9999MW1211REMSYN023333   10029 84715 88620MET013INTER 6ST010?
0078039620999991982010718304+52683-008917FM-15+0020EINN V0201001N01021003601CN0090001N1+00201+00001999999ADDAG12999GA1031+002709079GA2081+003609079MA1101081999999MW1681REMMET006NOSIG?
0163039620999991982010719004+52683-008917SY-MT+0020EINN V0201001N01131003601CN0060001N1+00201+00001101121ADDAG12999AY171011GA1041+002409079GA2081+003609079GF108991081061002501999999GJ100009MA1101081999999MD1710441+9999MW1681REMSYN023333   84708 88712 94000MET006NOSIG?
0078039620999991982010719304+52683-008917FM-15+0020EINN V0201001N01181003601CN0080001N1+00201+00101999999ADDAG12999GA1041+002409079GA2081+003609079MA1101021999999MW1611REMMET006NOSIG?
0172039620999991982010720004+52683-008917SY-MT+0020EINN V0201101N01281003601CN0090001N1+00201+00001101061ADDAG12999AJ100009199999999AY171021GA1041+002409079GA2081+003609079GF108991081061002501999999MA1101021999999MD1610391+9999MW1681REMSYN023333   84708 88712 99600MET006NOSIG?
0083039620999991982010720304+52683-008917FM-15+0020EINN V0201001N01021002701CN0035001N1+00201+00101999999ADDAG12001GA1041+001809079GA2081+002709079MA1101021999999MW1681REMMET011GRADU 6000?
0171039620999991982010721004+52683-008917SY-MT+0020EINN V0201001N00921002101CN0025001N1+00101+00001101001ADDAG12001AY171031GA1031+001509079GA2081+002109079GF108991081061001501999999MA1100911999999MD1710331+9999MW1681OA149901601REMSYN023333   83705 88707 91131MET011GRADU 6000?
0063039620999991982010721304+52683-008917FM-15+0020EINN V0201001N00921002101CN0020001N1+00101+00001999999ADDAG12999GA1041+001509079GA2081+002109079MA1100911999999MW1711
0177039620999991982010722004+52683-008917SY-MT+0020EINN V0200801N00871002101CN0020001N1+00101+00001100961ADDAG12999AJ100019199999999AY171011GA1041+001209079GA2081+002109079GF108991081061001501999999MA1100911999999MD1710161+9999MW1711REMSYN023333   84704 88707 99601MET011GRADU 4000?
0084039620999991982010722304+52683-008917FM-15+0020EINN V0200801N00871001501CN0018001N1+00101+00001999999ADDAG12999GA1041+000909079GA2081+001509079MA1100911999999MW1711REMMET012GRADU 3000+?
0172039620999991982010723004+52683-008917SY-MT+0020EINN V0200801N00871001801CN0018001N1+00101+00001100881ADDAG12999AJ100019199999999AY171021GA1041+000909079GA2081+001809079GF108991081061001501999999MA1100811999999MD1710181+9999MW1711REMSYN023333   84703 88706 99601MET006NOSIG?
0083039620999991982010723304+52683-008917FM-15+0020EINN V0200801N00821000901CN0018001N1+00101+00001999999ADDAG12001GA1051+000909079GA2081+001809079MA1100711999999MW1711REMMET011INTER 4000?
0189039620999991982010800004+52683-008917SY-MT+0020EINN V0200801N00721000901CN0018001N1+00101+00001100791ADDAA199005091AG10001AJ100039199999999AY171061GA1051+000909079GA2081+001809079GF108991081061001501999999MA1100711999999MD1710211+9999MW1711REMSYN023333   85703 88706 99603MET012INTERN 4000?
0083039620999991982010800304+52683-008917FM-15+0020EINN V0200901N00611002101CN0018001N1+00101+00001999999ADDAG11999GA1041+000909079GA2081+002109079MA1100711999999MW1711REMMET011TEMPO 5000?
0177039620999991982010801004+52683-008917SY-MT+0020EINN V0200901N00611002401CN0018001N1+00101+00001100691ADDAG12999AJ100039199999999AY171011GA1041+001209079GA2081+002409079GF108991081071001501999999MA1100611999999MD1710271+9999MW1711REMSYN023333   84704 88708 99603MET011TEMPO 5000?
0085039620999991982010801304+52683-008917FM-15+0020EINN V0200901N00661002101CN0020001N1+00101-00101999999ADDAG11999GA1051+002109079GA2081+004509079MA1100611999999MW1711REMMET013TEMPO 5ST004?
0157039620999991982010802004+52683-008917SY-MT+0020EINN V0200901N01021002101CN0020001N1+00101+00001100591ADDAG12999AJ100049199999999AY171021GA1081+002109079GF108991081071002501999999MA1100511999999MD1710291+9999MW1711REMSYN017333   88707 99604MET013TEMPO 5ST004?
0078039620999991982010802304+52683-008917FM-15+0020EINN V0200901N01081001201CN0020001N1+00101+00001999999ADDAG11001GA1051+001209079GA2081+002109079MA1100511999999MW1711REMMET006NOSIG?
0157039620999991982010803004+52683-008917SY-MT+0020EINN V0200901N00971002101CN0020001N1+00101-00101100551ADDAG12002AJ100049199999999AY171031GA1081+002109079GF108991081071002501999999MA1100511999999MD1610241+9999MW1731REMSYN017333   88707 99604MET013TEMPO 5ST004?
0062039620999991982010803304+52683-008917FM-15+0020EINN V0200901N01131001801CN0015001N1+00001+00001999999ADDAG12999GA1081+001809079MA1100511999999MW1731REMMET006NOSIG?
0179039620999991982010804004+52683-008917SY-MT+0020EINN V0200901N01021003601CN0025001N1+00001-00101100501ADDAG12999AJ100059199999999AY171011GA1051+003609079GA2081+006009059GF108991081061004501999999MA1100411999999MD1610191+9999MW1731REMSYN023333   85712 88620 99605MET013TEMPO 6ST006?
0085039620999991982010804304+52683-008917FM-15+0020EINN V0200801N00921004801CN0030001N1+00001-00101999999ADDAG12999GA1031+002709079GA2081+004809079MA1100411999999MW1711REMMET013TEMPO 6ST006?
0179039620999991982010805004+52683-008917SY-MT+0020EINN V0200701N00971004801CN0030001N1+00001-00101100431ADDAG12999AJ100059199999999AY171021GA1041+002409079GA2081+004809079GF108991081061002501999999MA1100411999999MD1710161+9999MW1711REMSYN023333   84708 88716 99605MET013TEMPO 6ST006?
0085039620999991982010805304+52683-008917FM-15+0020EINN V0200701N00921004201CN0112001N1+00001+00001999999ADDAG12001GA1031+003009079GA2081+004209079MA1100311999999MW1711REMMET013TEMPO 5ST006?
0263039620999991982010806004+52683-008917SY-MT+0020EINN V0200701N00871003901CN0112001N1+00001-00101100391ADDAA199008091AG12001AJ100039199999999AY171061GA1031+002109079GA2081+003909079GF108991081061002501999999IA1279IA2999+00009KA1120N+00001MA1100311999999MD1510161+9999MW1711REMSYN065333   20000 30000 43003 83707 88713 555   3013/ 40014 51001 6999/MET013TEMPO 5ST007?
0101039620999991982010806304+52683-008917FM-15+0020EINN V0200701N01021003601CN0112001N1+00001-00101999999ADDAG12999GA1021+002109079GA2051+003609079GA3081+004509079MA1100311999999MW1711REMMET013TEMPO 5ST007?
0178039620999991982010807004+52683-008917SY-MT+0020EINN V0200701N00971003601CN0112001N1+00101-00101100401ADDAG12999AY171011GA1031+002109079GA2051+003609079GA3081+004509079GF108991081061002501999999MA1100311999999MD1610101+9999MW1711REMSYN023333   83707 85712 88715MET013TEMPO 5ST007?
0101039620999991982010807304+52683-008917FM-15+0020EINN V0200701N01021003601CN0112001N1+00101-00101999999ADDAG12999GA1021+002409079GA2041+003609079GA3081+005109079MA1100311999999MW1221REMMET013TEMPO 5ST007?
0201039620999991982010808004+52683-008917SY-MT+0020EINN V0200601N01021003601CN0112001N1+00101-00101100421ADDAG12999AJ100039199999999AY171021GA1031+002409079GA2041+003609079GA3081+005109079GF108991081061002501999999MA1100411999999MD1510011+9999MW1221REMSYN029333   83708 84712 88717 99603MET013TEMPO 5ST007?
0114039620999991982010808304+52683-008917FM-15+0020EINN V0200601N01021003601CN0112001N1+00101-00101999999ADDAG12000GA1021+002409079GA2051+003609079GA3081+004509079MA1100411999999REMMET013TEMPO 5ST007?EQDQ01+000000PRSWM2
0106039620999991982010809004+52683-008917FM-15+0020EINN V0200701N01021003601CN0112001N1+00101-00201999999ADDAG12000GA1051+003609079GA2081+005109079MA1100311999999OC101541REMMET013TEMPO 5ST007?EQDQ01+000000PRSWM2
0119039620999991982010809304+52683-008917FM-15+0020EINN V0200601N01021004501CN0112001N1+00101-00201999999ADDAG12999GA1011+002409079GA2051+004509079GA3081+006009059MA1100411999999REMMET018TEMPO 5000 5ST007?EQDQ01+000000PRSWM2
0145039620999991982010810004+52683-008917FM-12+0020EINN V0200601N00901006001CN0300001N9+00081-00211100461ADDAG12999AJ100039199999999AY101011GA1041+004509079GA2081+006009059GF108991081051004501999999MD1310061+9999MW1021REMSYN023333   84715 88620 99603
0115039620999991982010810304+52683-008917FM-15+0020EINN V0200601N01081004501CN0112001N1+00101-00201999999ADDAG12999GA1021+003009079GA2041+004509079MA1100411999999REMMET030TEMPO 7000       ?     5ST010?EQDQ01+000000PRSWM2
0167039620999991982010811004+52683-008917FM-12+0020EINN V0200601N01001004501CN0250001N9+00101-00221100441ADDAG12999AJ100029199999999AY101021GA1021+003009079GA2041+004509079GA3081+006009059GF108991081061004501999999MD1010021+9999MW1021REMSYN029333   82710 84715 88620 99602
0248039620999991982010812004+52683-008917SY-MT+0020EINN V0200601N00921004501CN0112001N1+00101-00101100421ADDAA106000091AG12001AJ100039199999999AY171061GA1021+003009079GA2041+004509079GA3071+006009059GF108991081061004501999999MA1100411999999MD1010041+9999MW1021REMSYN029333   82710 84715 88620 99603MET030TEMPO 7000       ?     5ST010?EQDQ01+000000PRSWM2
0131039620999991982010812304+52683-008917FM-15+0020EINN V0200601N00871004501CN0112001N1+99999+99999999999ADDAG12999GA1031+003009079GA2051+004509079GA3081+006009059MA1100311999999REMMET030TEMPO 7000       ?     5ST010?EQDQ01+000000PRSWM2
0191039620999991982010813004+52683-008917SY-MT+0020EINN V0200501N00771003601CN0112001N1+00101-00101100401ADDAG12999AJ100039199999999AY101011GA1051+003609079GA2081+007509059GF108991081061004501999999MA1100311999999MD1710061+9999MW1021REMSYN023333   85712 88625 99603MET006NOSIG?EQDQ01+000000PRSWM2
0091039620999991982010813304+52683-008917FM-15+0020EINN V0200601N00871003601CN0112001N1+00101-00101999999ADDAG12999GA1051+003609079GA2081+007509059MA1100311999999REMMET006MOSIG?EQDQ01+000000PRSWM2
0191039620999991982010814004+52683-008917SY-MT+0020EINN V0200601N00971004201CN0112001N1+00201-00101100371ADDAG11999AJ100039199999999AY101021GA1051+004209079GA2081+007509059GF108991081061004501999999MA1100311999999MD1710071+9999MW1021REMSYN023333   85714 88625 99603MET006NOSIG?EQDQ01+000000PRSWM2
0091039620999991982010814304+52683-008917FM-15+0020EINN V0200601N01081004201CN0112001N1+00201-00101999999ADDAG12000GA1051+004209079GA2081+007509059MA1100311999999REMMET006NOSIG?EQDQ01+000000PRSWM2
0185039620999991982010815004+52683-008917SY-MT+0020EINN V0200601N01131004201CN0112001N1+00201-00101100371ADDAG12000AY101031GA1061+004209079GA2081+006609059GF108991081061004501999999MA1100311999999MD1610051+9999MW1021OA149901701REMSYN023333   86714 88622 91133MET006NOSIG?EQDQ01+000000PRSWM2
0091039620999991982010815304+52683-008917FM-15+0020EINN V0200701N01021004501CN0112001N1+00201-00101999999ADDAG12999GA1061+004509079GA2081+006609059MA1100311999999REMMET006NOSIG?EQDQ01+000000PRSWM2
0191039620999991982010816004+52683-008917SY-MT+0020EINN V0200601N01021004201CN0112001N1+00201-00101100391ADDAG11999AJ100039199999999AY101011GA1051+004209079GA2081+007509059GF108991081061004501999999MA1100311999999MD1510011+9999MW1021REMSYN023333   85714 88625 99603MET006NOSIG?EQDQ01+000000PRSWM2
0091039620999991982010816304+52683-008917FM-15+0020EINN V0200801N00971004201CN0112001N1+00201-00101999999ADDAG12999GA1051+004209079GA2081+007509059MA1100311999999REMMET006NOSIG?EQDQ01+000000PRSWM2
0213039620999991982010817004+52683-008917SY-MT+0020EINN V0200701N00921004201CN0112001N1+00101-00101100421ADDAG12999AJ100039199999999AY101021GA1031+003009079GA2061+004209079GA3081+006609059GF108991081061004501999999MA1100411999999MD1310051+9999MW1021REMSYN029333   83710 86714 88622 99603MET006NOSIG?EQDQ01+000000PRSWM2
0114039620999991982010817304+52683-008917FM-15+0020EINN V0200601N00921004501CN0112001N1+00101-00101999999ADDAG11000GA1021+003009079GA2031+004509079GA3051+005409079MA1100411999999REMMET013INTER 5ST010?EQDQ01+000000PRSWM2
0228039620999991982010818004+52683-008917SY-MT+0020EINN V0200701N01081005401CN0112001N1+00101-00201100451ADDAA199000091AG14000AJ100039199999999AY101061GA1041+004209079GA2071+005409079GF108991081061004501999999KA1120M+00161MA1100411999999MD1110081+9999MW1021REMSYN029333   10016 84714 87718 99603MET013INTER 5ST010?EQDQ01+000000PRSWM2
0098039620999991982010818304+52683-008917FM-15+0020EINN V0200701N01081005401CN0112001N1+00101-00201999999ADDAG11999GA1031+004209079GA2071+005409079MA1100411999999REMMET013INTER 5ST010?EQDQ01+000000PRSWM2
0198039620999991982010819004+52683-008917SY-MT+0020EINN V0200701N01081005101CN0112001N1+00101-00201100541ADDAG12999AJ100039199999999AY101011GA1041+004209079GA2081+005109079GF108991081061004501999999MA1100511999999MD1310151+9999MW1021REMSYN023333   84714 88717 99603MET013INTER 5ST010?EQDQ01+000000PRSWM2
0098039620999991982010819304+52683-008917FM-15+0020EINN V0200701N01021005401CN0112001N1+00101-00201999999ADDAG11999GA1031+004209079GA2081+005409079MA1100511999999REMMET013INTER 5ST010?EQDQ01+000000PRSWM2
0198039620999991982010820004+52683-008917SY-MT+0020EINN V0200701N01021005401CN0112001N1+00101-00201100611ADDAG12999AJ100039199999999AY101021GA1031+004209079GA2071+005409079GF108991081061004501999999MA1100611999999MD1210191+9999MW1021REMSYN023333   83714 87718 99603MET013INTER 5ST010?EQDQ01+000000PRSWM2
0117039620999991982010820304+52683-008917FM-15+0020EINN V0200701N01231005401CN0112001N1+00101-00201999999ADDAG11000GA1031+004209079GA2051+005409079GA3071+007809059MA1100611999999MW1701REMMET029INTER 5          ?     ST010?
0194039620999991982010821004+52683-008917SY-MT+0020EINN V0200801N01131005401CN0112001N1+00101-00201100641ADDAG12000AL19999939AY171031GA1021+003909079GA2041+005409079GA3081+012009059GF108991081061004501999999MA1100611999999MD1210191+9999MW1701REMSYN029333   82713 84718 88640 99594MET013INTER 5ST010?
0101039620999991982010821304+52683-008917FM-15+0020EINN V0200801N01181005401CN0080001N1+00101-00201999999ADDAG11999GA1021+003909079GA2041+005409079GA3071+012009059MA1100611999999MW1711REMMET013INTER 5ST010?
0178039620999991982010822004+52683-008917SY-MT+0020EINN V0200801N00971005401CN0080001N1+00101-00201100721ADDAG12999AL19999939AY171011GA1021+003909079GA2071+005409079GF108991081061004501999999MA1100711999999MD1210181+9999MW1701MW2711REMSYN023333   82713 87718 99594MET013INTER 5ST010?
0085039620999991982010822304+52683-008917FM-15+0020EINN V0200701N00971005401CN0080001N1+00101-00201999999ADDAG11999GA1041+003909079GA2081+005409079MA1100711999999MW1711REMMET013INTER 5ST010?
0179039620999991982010823004+52683-008917SY-MT+0020EINN V0200701N01021005101CN0080001N1+00101-00201100781ADDAG12999AJ100039199999999AY171021GA1031+003909079GA2081+005109079GF108991081061004501999999MA1100711999999MD1210171+9999MW1711REMSYN023333   83713 88717 99603MET013INTER 5ST010?
0085039620999991982010823304+52683-008917FM-15+0020EINN V0200801N01281005101CN0080001N1+00101-00201999999ADDAG11001GA1031+003909079GA2081+005109079MA1100811999999MW1711REMMET013INTER 5ST010?
0190039620999991982010900004+52683-008917SY-MT+0020EINN V0200801N01231005101CN0112001N1+00101+00001100841ADDAA106999929AG12001AJ100039199999999AY171061GA1031+003909079GA2081+005109079GF108991081061004501999999MA1100811999999MD1210201+9999MW1711REMSYN023333   83713 88717 99603MET013GRADU 5ST010?
0079039620999991982010900304+52683-008917FM-15+0020EINN V0200801N01131005401CN0112001N1+00101+00001999999ADDAG11999GA1031+003909079GA2081+005409079MA1100811999999MW1711REMMET007NO SIG?
0173039620999991982010901004+52683-008917SY-MT+0020EINN V0200801N01131005401CN0112001N1+00101-00101100901ADDAG12999AJ100039199999999AY171011GA1031+004209079GA2081+005409079GF108991081061004501999999MA1100811999999MD1210181+9999MW1711REMSYN023333   83714 88718 99603MET007NO SIG?
0079039620999991982010901304+52683-008917FM-15+0020EINN V0200801N01081005401CN0112001N1+00001-00101999999ADDAG11999GA1031+004209079GA2081+005409079MA1100911999999MW1711REMMET007NO SIG?
0173039620999991982010902004+52683-008917SY-MT+0020EINN V0200801N01131005401CN0112001N1+00001-00101100981ADDAG12999AJ100039199999999AY171021GA1031+003609079GA2081+005409079GF108991081061004501999999MA1100911999999MD1210201+9999MW1711REMSYN023333   83712 88718 99603MET007NO SIG?
0085039620999991982010902304+52683-008917FM-15+0020EINN V0200801N01131004501CN0060001N1+00001-00101999999ADDAG11001GA1031+003009079GA2081+004509079MA1101021999999MW1711REMMET013TEMPO 5ST007?
0179039620999991982010903004+52683-008917SY-MT+0020EINN V0200801N01181004501CN0090001N1+00001-00201101031ADDAG12001AJ100039199999999AY171031GA1031+003009079GA2081+004509079GF108991081061004501999999MA1101021999999MD1210191+9999MW1711REMSYN023333   83710 88715 99603MET013TEMPO 5ST007?
0083039620999991982010903304+52683-008917FM-15+0020EINN V0200801N01181003901CN0080001N1+00001-00201999999ADDAG11999GA1041+002709079GA2081+003909079MA1101021999999MW1711REMMET011TEMPO 5000?
0177039620999991982010904004+52683-008917SY-MT+0020EINN V0200701N01081003901CN0090001N1+00001-00201101091ADDAG12999AJ100039199999999AY171011GA1041+002709079GA2081+003909079GF108991081061002501999999MA1101021999999MD1210191+9999MW1711REMSYN023333   84709 88713 99603MET011TEMPO 5000?
0096039620999991982010904304+52683-008917FM-15+0020EINN V0200701N01021003901CN0080001N1+00001+99999999999ADDAG11999GA1041+002709079GA2081+003909079MA1101021999999REMMET011TEMPO 5000?EQDQ01+000000PRSWM2
0099039620999991982010905004+52683-008917FM-15+0020EINN V0200701N01131003901CN0090001N1+00001-00201999999ADDAG12999GA1031+003009079GA2051+003909079GA3081+005409079MA1101081999999MW1711REMMET011TEMPO 5000?
0083039620999991982010905304+52683-008917FM-15+0020EINN V0200701N01021005401CN0112001N1+00001-00201999999ADDAG11001GA1041+003909079GA2081+005409079MA1101081999999MW1711REMMET011TEMPO 5000?
0083039620999991982010906004+52683-008917FM-15+0020EINN V0200701N00971004801CN0112001N1+00001-00301999999ADDAG11001GA1041+003309079GA2081+004809079MA1101191999999MW1711REMMET011TEMPO 5000?
0094039620999991982010906304+52683-008917FM-15+0020EINN V0200701N01021004201CN0112001N1+00001-00301999999ADDAG11999GA1051+004209079GA2081+005409079MA1101191999999MW1711REMMET022TEMPO      ?     5000?
0145039620999991982010907004+52683-008917FM-12+0020EINN V0200701N01001004501CN0150001N9-00021-00291101331ADDAG12999AJ100049199999999AY171011GA1031+003609079GA2081+004509079GF108991081061004501999999MD1210241+9999MW1711REMSYN023333   83712 88715 99604
0083039620999991982010907304+52683-008917FM-15+0020EINN V0200701N01131004501CN0112001N1-00101-00301999999ADDAG12999GA1031+003609079GA2081+004509079MA1101291999999MW1711REMMET011TEMPO 5000?
0177039620999991982010908004+52683-008917SY-MT+0020EINN V0200701N01131005701CN0112001N1-00101-00301101401ADDAG12999AJ100049199999999AY171021GA1031+004209079GA2081+005709079GF108991081061004501999999MA1101291999999MD1210201+9999MW1221REMSYN023333   83714 88719 99604MET011TEMPO 5000?
0094039620999991982010908304+52683-008917FM-15+0020EINN V0200701N01181006001CN0112001N1-00101-00301999999ADDAG11001GA1031+004209079GA2081+006009059MA1101391999999MW1221REMMET022TEMPO      ?     5000?
0206039620999991982010909004+52683-008917SY-MT+0020EINN V0200701N01081006001CN0112001N1-00101-00301101481ADDAG12001AJ100049199999999AY171031GA1021+004209079GA2061+006009059GA3081+012009059GF108991081051004501999999MA1101391999999MD1210231+9999MW1221REMSYN029333   82716 86620 88640 99604MET018TEMPO 8000 5ST012?
0114039620999991982010909304+52683-008917FM-15+0020EINN V0200801N00971012001CN0112001N1-00101-00301999999ADDAG11999GA1031+006009059GA2071+012009059MA1101491999999REMMET029TEMPO      ?     8000 5ST012?EQDQ01+000000PRSWM2
0191039620999991982010910004+52683-008917SY-MT+0020EINN V0200701N00971012001CN0112001N1-00101-00201101551ADDAG12999AJ100049199999999AY101011GA1021+006009089GA2051+012009059GF105991051081008001001001MA1101491999999MD1210221+9999MW1021REMSYN023333   82820 85640 99604MET006NOSIG?EQDQ01+000000PRSWM2
0091039620999991982010910304+52683-008917FM-15+0020EINN V0200701N00921012001CN0112001N1-00101-00201999999ADDAG11999GA1021+006009089GA2041+012009059MA1101491999999REMMET006NOSIG?EQDQ01+000000PRSWM2
0169039620999991982010911004+52683-008917SY-MT+0020EINN V0200801N00921220001CN0112001N1-00101-00301101611ADDAG11999AJ100049199999999AY101021GA1021+006009089GF102991021081008001001001MA1101591999999MD1210211+9999MW1021REMSYN017333   82820 99604MET006NOSIG?EQDQ01+000000PRSWM2
0076039620999991982010911304+52683-008917FM-15+0020EINN V0200801N00821220001CN0112001N1-00101-00201999999ADDAG11000GA1011+006009089MA1101491999999REMMET007NO SIG?EQDQ01+000000PRSWM2
0180039620999991982010912004+52683-008917SY-MT+0020EINN V0200801N00871220001CN0112001N1-00101-00201101621ADDAA106999929AG12001AJ100049199999999AY171061GA1021+006009089GF102991021021008001001021MA1101591999999MD1210141+9999MW1021REMSYN017333   82820 99604MET006NOSIG?EQDQ01+000000PRSWM2
0075039620999991982010912304+52683-008917FM-15+0020EINN V0200701N00771220001CN0112001N1-00101-00201999999ADDAG11999GA1021+006009089MA1101591999999REMMET006NOSIG?EQDQ01+000000PRSWM2
0169039620999991982010913004+52683-008917SY-MT+0020EINN V0200701N00821220001CN0112001N1-00101-00101101611ADDAG12999AJ100049199999999AY101011GA1021+006009089GF102991021081008001001021MA1101591999999MD1010061+9999MW1021REMSYN017333   82820 99604MET006NOSIG?EQDQ01+000000PRSWM2
0075039620999991982010913304+52683-008917FM-15+0020EINN V0200801N00721220001CN0112001N1-00101-00101999999ADDAG11999GA1021+006009089MA1101591999999REMMET006NOSIG?EQDQ01+000000PRSWM2
0170039620999991982010914004+52683-008917SY-MT+0020EINN V0200801N00721220001CN0112001N1+00001-00101101611ADDAG12999AJ100049199999999AY101021GA1011+006009089GF103991011081008001031021MA1101591999999MD1010001+9999MW1021REMSYN017333   81820 99604MET007NO SIG?EQDQ01+000000PRSWM2
0076039620999991982010914304+52683-008917FM-15+0020EINN V0200801N00721220001CN0112001N1+00001-00101999999ADDAG11000GA1011+006009089MA1101591999999REMMET007NO SIG?EQDQ01+000000PRSWM2
0170039620999991982010915004+52683-008917SY-MT+0020EINN V0200701N00771220001CN0112001N1+00001-00101101601ADDAG11000AJ100049199999999AY101031GA1011+006009089GF102991011081008001001021MA1101491999999MD1710021+9999MW1021REMSYN017333   81820 99604MET007NO SIG?EQDQ01+000000PRSWM2
0092039620999991982010915304+52683-008917FM-15+0020EINN V0200701N00821220001CN0112001N1+00001-00201999999ADDAG11999GA1011+006009089GA2031+060009009MA1101591999999REMMET007NO SIG?EQDQ01+000000PRSWM2
0192039620999991982010916004+52683-008917SY-MT+0020EINN V0200801N00821220001CN0112001N1-00101-00601101611ADDAG11999AJ100049199999999AY101011GA1011+006009089GA2031+036009039GF103991011011008001031021MA1101491999999MD1510001+9999MW1021REMSYN023333   81820 83362 99604MET007NO SIG?EQDQ01+000000PRSWM2
0092039620999991982010916304+52683-008917FM-15+0020EINN V0200701N00771220001CN0112001N1-00101-00601999999ADDAG11999GA1011+006009089GA2031+036009039MA1101591999999REMMET007NO SIG?EQDQ01+000000PRSWM2
0170039620999991982010917004+52683-008917SY-MT+0020EINN V0200701N00721220001CN0112001N1-00101-00701101611ADDAG11999AJ100049199999999AY101021GA1011+006009089GF102991011011008001031001MA1101591999999MD1010001+9999MW1021REMSYN017333   81820 99604MET007NO SIG?EQDQ01+000000PRSWM2
0065039620999991982010917304+52683-008917FM-15+0020EINN V0200701N00771999991CY0099001N1-00201-00501999999ADDAG11000MA1101491999999REMMET012CAVOK NOSIG?EQDQ01+000000PRSWM2
0205039620999991982010918004+52683-008917SY-MT+0020EINN V0200701N00821220001CN0099001N1-00101-00601101621ADDAA199999929AG13000AJ100049199999999AY101061GA1031+036009039GF103991031001999999031001KA1120M-00021MA1101591999999MD1210021+9999MW1021REMSYN023333   11002 83362 99604MET012CAVOK NOSIG?EQDQ01+000000PRSWM2
0175039620999991982010919004+52683-008917SY-MT+0020EINN V0200701N00821220001CN0099001N1-00201-00601101641ADDAG11999AJ100049199999999AY101011GA1021+036009039GF102991021001999999031001MA1101591999999MD1310031+9999MW1021REMSYN017333   82362 99604MET012CAVOK NOSIG?EQDQ01+000000PRSWM2
0091039620999991982010919304+52683-008917FM-15+0020EINN V0200801N00871220001CN9999999N9+99999+99999999999ADDAG11999GA1031+010509059MA1101591999999REMMET006NOSIG?EQDQ01+000002VOVAR Q02+000000PRSWM2
0169039620999991982010920004+52683-008917SY-MT+0020EINN V0200801N00901220001CN0200001N1-00141-00591101631ADDAG12999AJ100049199999999AY101021GA1031+010509059GF104991031051012501031001MA1101591999999MD1310021+9999MW1021REMSYN017333   83635 99604MET006NOSIG?EQDQ01+000000PRSWM2
0075039620999991982010920304+52683-008917FM-15+0020EINN V0200801N00921220001CN0112001N1-00101-00501999999ADDAG11000GA1031+010509059MA1101591999999REMMET006NOSIG?EQDQ01+000000PRSWM2
0169039620999991982010921004+52683-008917SY-MT+0020EINN V0200801N00971010501CN0112001N1-00101-00601101601ADDAG12000AJ100049199999999AY101031GA1061+010509059GF106991061051012501999999MA1101491999999MD1810021+9999MW1021REMSYN017333   86635 99604MET006NOSIG?EQDQ01+000000PRSWM2
0075039620999991982010921304+52683-008917FM-15+0020EINN V0200801N00971220001CN0112001N1-00101-00501999999ADDAG11999GA1041+010509059MA1101491999999REMMET006NOSIG?EQDQ01+000000PRSWM2
0169039620999991982010922004+52683-008917SY-MT+0020EINN V0200801N01021220001CN0112001N1-00101-00501101601ADDAG12999AJ100049199999999AY101011GA1031+010509059GF104991031051012501031001MA1101491999999MD1710041+9999MW1021REMSYN017333   83635 99604MET006NOSIG?EQDQ01+000000PRSWM2
0075039620999991982010922304+52683-008917FM-15+0020EINN V0200801N00921220001CN0112001N1-00201-00401999999ADDAG11999GA1021+010509059MA1101491999999REMMET006NOSIG?EQDQ01+000000PRSWM2
0169039620999991982010923004+52683-008917SY-MT+0020EINN V0200801N00921220001CN0112001N1-00201-00401101591ADDAG12999AJ100049199999999AY101021GA1021+010509059GF102991021051012501031001MA1101491999999MD1710041+9999MW1021REMSYN017333   82635 99604MET006NOSIG?EQDQ01+000000PRSWM2
0075039620999991982010923304+52683-008917FM-15+0020EINN V0200801N00871220001CN0112001N1-00201-00401999999ADDAG11000GA1011+010509059MA1101491999999REMMET006NOSIG?EQDQ01+000000PRSWM2
0169039620999991982011000004+52683-008917SY-MT+0020EINN V0200801N00921220001CN0112001N1-00101-00501101541ADDAG11000AJ100049199999999AY101061GA1011+010509059GF101991011051012501001001MA1101491999999MD1810061+9999MW1021REMSYN017333   81635 99604MET006NOSIG?EQDQ01+000000PRSWM2
0075039620999991982011000304+52683-008917FM-15+0020EINN V0200801N00921220001CN0112001N1-00101-00801999999ADDAG11999GA1011+012009059MA1101391999999REMMET006NOSIG?EQDQ01+000000PRSWM2
0169039620999991982011001004+52683-008917SY-MT+0020EINN V0200801N00871220001CN0112001N1-00101-00801101471ADDAG11999AJ100049199999999AY101011GA1011+012009059GF102991011051012501031021MA1101391999999MD1810131+9999MW1021REMSYN017333   81640 99604MET006NOSIG?EQDQ01+000000PRSWM2
0091039620999991982011001304+52683-008917FM-15+0020EINN V0200801N00971030001CN0112001N1-00201-00801999999ADDAG11999GA1011+013509059GA2051+030009039MA1101291999999REMMET006NOSIG?EQDQ01+000000PRSWM2
0191039620999991982011002004+52683-008917SY-MT+0020EINN V0200901N00971030001CN0112001N1-00201-00801101391ADDAG11999AJ100049199999999AY101021GA1011+013509059GA2061+030009039GF106991011051012501031999MA1101291999999MD1710201+9999MW1021REMSYN023333   81645 86360 99604MET006NOSIG?EQDQ01+000000PRSWM2
0091039620999991982011002304+52683-008917FM-15+0020EINN V0200901N00921030001CN0112001N1-00201-00801999999ADDAG12000GA1011+013509059GA2061+030009039MA1101291999999REMMET006NOSIG?EQDQ01+000000PRSWM2
0191039620999991982011003004+52683-008917SY-MT+0020EINN V0200901N00971030001CN0112001N1-00201-00801101341ADDAG12000AJ100049199999999AY101031GA1011+013509059GA2051+030009039GF106991011051012501031021MA1101291999999MD1710201+9999MW1021REMSYN023333   81645 85360 99604MET006NOSIG?EQDQ01+000000PRSWM2
0092039620999991982011003304+52683-008917FM-15+0020EINN V0200901N00871030001CN0112001N1-00201-00801999999ADDAG12999GA1011+013509059GA2051+030009039MA1101291999999REMMET007NO SIG?EQDQ01+000000PRSWM2
0192039620999991982011004004+52683-008917SY-MT+0020EINN V0200901N01021030001CN0112001N1-00201-00701101301ADDAG12999AJ100049199999999AY101011GA1011+013509059GA2071+030009039GF107991011051012501031021MA1101191999999MD1610171+9999MW1021REMSYN023333   81645 87360 99604MET007NO SIG?EQDQ01+000000PRSWM2
0093039620999991982011004304+52683-008917FM-15+0020EINN V0200901N01021030001CN0112001N1-00201-00701999999ADDAG12999GA1031+013509059GA2071+030009039MA1101191999999REMMET008NO SIG+?EQDQ01+000000PRSWM2
0192039620999991982011005004+52683-008917SY-MT+0020EINN V0200901N01001013501CN0250001N1-00181-00681101211ADDAG11999AJ100049199999999AY101021GA1051+013509059GA2031+030009039GF107991051051012501031999MA1101191999999MD1810181+9999MW1021REMSYN023333   85645 83360 99604MET007NO SIG?EQDQ01+000000PRSWM2
0092039620999991982011005304+52683-008917FM-15+0020EINN V0200901N01081030001CN0112001N1-00201-00701999999ADDAG12000GA1031+013509059GA2061+030009039MA1101081999999REMMET007NO SIG?EQDQ01+000000PRSWM2
0241039620999991982011006004+52683-008917SY-MT+0020EINN V0200901N01021030001CN0112001N1-00101-00601101141ADDAG12000AJ100049199999999AY101061GA1011+013509059GA2071+030009049GF107991011051012501071999IA1269IA2999-00409KA1120N-00221MA1101081999999MD1810201+9999MW1021REMSYN041333   21022 3/104 42004 81645 87460 99604MET007NO SIG?EQDQ01+000000PRSWM2
0107039620999991982011006304+52683-008917FM-15+0020EINN V0201001N00971030001CN0112001N1-00201+99999999999ADDAG12999GA1041+013509059GA2071+030009039MA1101021999999REMMET006NOSIG?EQDQ01+025923ATOD  Q02+000000PRSWM2
0191039620999991982011007004+52683-008917SY-MT+0020EINN V0201001N00971030001CN0112001N1-00101-00601101071ADDAG12999AJ100049199999999AY101011GA1021+013509059GA2071+030009049GF107991021051012501071999MA1101021999999MD1710231+9999MW1021REMSYN023333   82645 87460 99604MET006NOSIG?EQDQ01+000000PRSWM2
0091039620999991982011007304+52683-008917FM-15+0020EINN V0201001N01231030001CN0112001N1-00101-00601999999ADDAG12999GA1041+013509059GA2071+030009049MA1101021999999REMMET006NOSIG?EQDQ01+000000PRSWM2
0191039620999991982011008004+52683-008917SY-MT+0020EINN V0201001N01181013501CN0112001N1-00101-00601101021ADDAG12999AJ100049199999999AY101021GA1041+006609059GA2081+013509059GF108991081051008001999999MA1101021999999MD1710191+9999MW1021REMSYN023333   84622 88645 99604MET006NOSIG?EQDQ01+000000PRSWM2
0107039620999991982011008304+52683-008917FM-15+0020EINN V0201001N01081007501CN0112001N1-00101-00501999999ADDAG12000GA1021+004509079GA2051+007509059GA3081+015009059MA1100911999999REMMET006NOSIG?EQDQ01+000000PRSWM2
0213039620999991982011009004+52683-008917SY-MT+0020EINN V0201001N01021015001CN0112001N1-00101-00501100991ADDAG12000AJ100049199999999AY101031GA1011+004509079GA2031+007509059GA3081+015009059GF108991081051004501999999MA1100911999999MD1610151+9999MW1021REMSYN029333   81715 83625 88650 99604MET006NOSIG?EQDQ01+000000PRSWM2
0107039620999991982011009304+52683-008917FM-15+0020EINN V0200901N01021027001CN0112001N1-00101-00501999999ADDAG12999GA1011+005409079GA2031+010509059GA3071+027009039MA1100911999999REMMET006NOSIG?EQDQ01+000000PRSWM2
0213039620999991982011010004+52683-008917SY-MT+0020EINN V0201001N00971009001CN0112001N1-00101-00501100941ADDAG12999AJ100049199999999AY101011GA1021+004509079GA2041+009009059GA3081+027009049GF108991051051004501071999MA1100911999999MD1710131+9999MW1021REMSYN029333   82715 84630 88459 99604MET006NOSIG?EQDQ01+000000PRSWM2
0107039620999991982011010304+52683-008917FM-15+0020EINN V0201001N01081027001CN0112001N1-00101-00501999999ADDAG11999GA1011+004509079GA2031+010509059GA3071+027009049MA1100911999999REMMET006NOSIG?EQDQ01+000000PRSWM2
0213039620999991982011011004+52683-008917SY-MT+0020EINN V0201001N01021027001CN0112001N1-00101-00401100881ADDAG12999AJ100049199999999AY101021GA1021+004509079GA2041+010509059GA3071+027009049GF107991041051004501071999MA1100811999999MD1710141+9999MW1021REMSYN029333   82715 83635 87459 99604MET006NOSIG?EQDQ01+000000PRSWM2
0076039620999991982011011304+52683-008917FM-15+0020EINN V0201101N01181027001CN0112001N1+00001-00301999999ADDAG11000GA1021+004509079GA2061+027009049MA1100811999999EQDQ01+000000PRSWM2
0213039620999991982011012004+52683-008917SY-MT+0020EINN V0201101N01131015001CN0112001N1+00001-00401100801ADDAG12000AJ100049199999999AY101061GA1021+004509079GA2041+015009059GA3061+027009049GF107991051051004501071999MA1100711999999MD1710191+9999MW1021REMSYN029333   82715 84650 86459 99604MET006NOSIG?EQDQ01+000000PRSWM2
0107039620999991982011012304+52683-008917FM-15+0020EINN V0201101N01131027001CN0112001N1+00001-00301999999ADDAG11999GA1011+004509079GA2031+015009059GA3071+027009049MA1100711999999REMMET006NOSIG?EQDQ01+000000PRSWM2
0213039620999991982011013004+52683-008917SY-MT+0020EINN V0201001N01021027001CN0112001N1+00001-00501100731ADDAG12999AJ100049199999999AY101011GA1011+004509079GA2031+015009059GA3051+027009039GF107991031051004501071021MA1100711999999MD1710211+9999MW1021REMSYN029333   81715 83650 85359 99604MET006NOSIG?EQDQ01+000000PRSWM2
0107039620999991982011013304+52683-008917FM-15+0020EINN V0201001N01021027001CN0112001N1+00001-00501999999ADDAG11999GA1011+004509079GA2041+015009059GA3061+027009049MA1100611999999REMMET006NOSIG?EQDQ01+000000PRSWM2
0191039620999991982011014004+52683-008917SY-MT+0020EINN V0201101N01021013501CN0112001N1+00001-00601100641ADDAG12999AJ100049199999999AY101021GA1011+004509079GA2061+013509059GF107991061051004501071999MA1100611999999MD1710241+9999MW1021REMSYN023333   81715 86645 99604MET006NOSIG?EQDQ01+000000PRSWM2
0091039620999991982011014304+52683-008917FM-15+0020EINN V0201101N01131013501CN0112001N1+00001-00501999999ADDAG12000GA1011+004509079GA2071+013509059MA1100511999999REMMET006NOSIG?EQDQ01+000000PRSWM2
0145039620999991982011015004+52683-008917FM-12+0020EINN V0201101N01001013501CN0180001N9+00011-00531100581ADDAG11000AJ100049199999999AY101031GA1011+004509079GA2071+013509059GF107991071051004501071999MD1710221+9999MW1021REMSYN023333   81715 87645 99604
0091039620999991982011015304+52683-008917FM-15+0020EINN V0201101N01081015001CN0112001N1+00001-00601999999ADDAG12999GA1011+004509079GA2051+015009059MA1100511999999REMMET006NOSIG?EQDQ01+000000PRSWM2
0191039620999991982011016004+52683-008917SY-MT+0020EINN V0201001N00921015001CN0180001N1+00001-00501100551ADDAG11999AJ100039199999999AY101011GA1011+004509079GA2051+015009059GF107991071051004501071999MA1100511999999MD1610181+9999MW1021REMSYN023333   81715 85650 99603MET006NOSIG?EQDQ01+000000PRSWM2
0091039620999991982011016304+52683-008917FM-15+0020EINN V0200901N00821015001CN0112001N1+00001-00501999999ADDAG11999GA1011+004509079GA2061+015009059MA1100511999999REMMET006NOSIG?EQDQ01+000000PRSWM2
0191039620999991982011017004+52683-008917SY-MT+0020EINN V0200901N00771015001CN0112001N1-00101-00501100551ADDAG11999AJ100029199999999AY101021GA1011+004509079GA2071+015009059GF107991071051004501071999MA1100511999999MD1610091+9999MW1021REMSYN023333   81715 87650 99602MET006NOSIG?EQDQ01+000000PRSWM2
0091039620999991982011017304+52683-008917FM-15+0020EINN V0200901N00921015001CN0112001N1-00101-00601999999ADDAG12000GA1021+006009059GA2071+015009059MA1100411999999REMMET006NOSIG?EQDQ01+000000PRSWM2
0151039620999991982011018004+52683-008917FM-12+0020EINN V0201001N00801015001CN0150001N9-00101-00541100491ADDAG11000AJ100029199999999AY101061GA1021+006009059GA2071+015009059GF107991071051008001999021MD1710091+9999MW1021REMSYN029333   1002/ 82620 87650 99602
0091039620999991982011018304+52683-008917FM-15+0020EINN V0200901N00771220001CN0112001N1-00101-00601999999ADDAG12999GA1011+006009059GA2031+015009059MA1100411999999REMMET006NOSIG?EQDQ01+000000PRSWM2
0207039620999991982011019004+52683-008917SY-MT+0020EINN V0200901N00721220001CN0112001N1-00101-00601100491ADDAG11999AJ100029199999999AY101011GA1011+006009059GA2031+015009059GF103991031051008001999001MA1100411999999MD1610061+9999MW1021REMSYN023333   81620 83650 99602MET006NOSIG?EQDQ01+000000PRSWM2Q02    003SCOMCG
0091039620999991982011019304+52683-008917FM-15+0020EINN V0200901N00771220001CN0112001N1-00101-00601999999ADDAG12999GA1011+007509059GA2041+015009059MA1100411999999REMMET006NOSIG?EQDQ01+000000PRSWM2
0207039620999991982011020004+52683-008917SY-MT+0020EINN V0200701N00661220001CN0112001N1-00101-00601100481ADDAG11999AJ100029199999999AY101021GA1011+006009059GA2041+015009059GF104991041051008001999001MA1100411999999MD1610071+9999MW1021REMSYN023333   81620 84650 99602MET006NOSIG?EQDQ01+000000PRSWM2Q02    003SCOMCG
