0177039620999991987010100004+52683-008917SY-MT+0020EINN V0201001N00771001801CN0150001N1+00651+00621100071ADDAA106007091AG10001AY161061AY251061GA1061+001809079GA2071+004509079GF108991081071002501999999MA1100001999999MD1710381+9999MW1581REMSYN017333   86706 87715MET015TEMPO VIS 9999?
0087039620999991987010100304+52683-008917FM-15+0020EINN V0201101N00721002101CN0060001N1+00701+00601999999ADDAG11999GA1061+002109079GA2081+003009079MA1100001999999MW1581REMMET015GRADU 20024/40?
0166039620999991987010101004+52683-008917SY-MT+0020EINN V0201201N00571002101CN0060001N1+00661+00621099961ADDAG12001AY161011AY251011GA1061+002109079GA2081+003009079GF108991081061002501999999MA1099901999999MD1710371+9999MW1581REMSYN017333   86707 88710MET015GRADU 20024/40?
0087039620999991987010101304+52683-008917FM-15+0020EINN V0201201N00571002101CN0060001N1+00701+00601999999ADDAG11999GA1061+002109079GA2081+003009079MA1099901999999MW1581REMMET015GRADU 20024/40?
0166039620999991987010102004+52683-008917SY-MT+0020EINN V0201201N00411001201CN0050001N1+00671+00631099871ADDAG12999AY161021AY251021GA1061+001209079GA2081+002109079GF108991081061001501999999MA1099801999999MD1710311+9999MW1581REMSYN017333   86704 88707MET015GRADU 20024/40?
0087039620999991987010102304+52683-008917FM-15+0020EINN V0201301N00511001501CN0070001N1+00701+00701999999ADDAG12003GA1061+001509079GA2081+002409079MA1099801999999MW1581REMMET015GRADU 20024/40?
0166039620999991987010103004+52683-008917SY-MT+0020EINN V0201301N00461001501CN0070001N1+00711+00641099801ADDAG12001AY161031AY251031GA1061+001509079GA2081+002109079GF108991081061001501999999MA1099701999999MD1610271+9999MW1581REMSYN017333   86705 88707MET015GRADU 20024/40?
0078039620999991987010103304+52683-008917FM-15+0020EINN V0201301N00461002701CN0112001N1+00701+00601999999ADDAG12999GA1041+001509079GA2081+002709079MA1099701999999MW1211REMMET006NOSIF?
0179039620999991987010104004+52683-008917SY-MT+0020EINN V0201401N00411002701CN0090001N1+00731+00691099751ADDAG12999AY161011AY251011GA1031+001509079GA2061+002709079GA3081+004209079GF108991081061001501999999MA1099701999999MD1610211+9999MW1581REMSYN023333   83705 86709 88714MET006NOSIG?
0099039620999991987010104304+52683-008917FM-15+0020EINN V0201501N00461002101CN0112001N1+00801+00701999999ADDAG11999GA1021+001509079GA2051+002109079GA3081+004209079MA1099591999999MW1501REMMET011TEMPO 5000?
0184039620999991987010105004+52683-008917SY-MT+0020EINN V0202001N00511003901CN0200001N1+00901+00821099641ADDAG12001AY161021AY251021GA1011+001509079GA2041+002409079GA3081+003909079GF108991081061001501999999MA1099591999999MD1710211+9999MW1211REMSYN023333   81705 84708 88713MET011TEMPO 5000?
0118039620999991987010105304+52683-008917FM-15+0020EINN V0202201N00571002401CN0090001N1+01001+00901999999ADDAG12001GA1021+001509079GA2051+002409079GA3081+003009079MA1099591999999MW1501REMMET030TEMPO 5000       ?     6ST005?
0278039620999991987010106004+52683-008917SY-MT+0020EINN V0202301N00821002101CN0090001N1+01001+00811099631ADDAA199008091AG10001AY161061AY251061GA1031+001509079GA2051+002109079GA3071+003909079GF108991081061001501999999GJ100009IA1099IA2999+00609KA1120N+00651MA1099591999999MD1610151+9999MW1501OC101491REMSYN041333   20065 31006 83705 85707 87713 94000MET029TEMPO      ?     5000 6ST005?
0097039620999991987010106304+52683-008917FM-15+0020EINN V0202401N00981005401CN0112001N1+01001+00801999999ADDAG12999GA1031+003009079GA2071+005409079MA1099701999999MW1201REMMET025TEMPO 5000 6ST005      ??
0187039620999991987010107004+52683-008917SY-MT+0020EINN V0202501N01081005401CN0150001N1+00981+00701099771ADDAG12001AY151011AY221011GA1021+003609079GA2051+005409079GA3071+009009059GF108991081061004501999999MA1099701999999MD1310031+9999MW1201OC101751REMSYN023333   82712 85718 87630MET006NOSIG?
0115039620999991987010107304+52683-008917FM-15+0020EINN V0202501N01291006001CN0112001N1+01001+00701999999ADDAG12999GA1021+003609079GA2051+006009059GA3061+012009059MA1099701999999OC102011REMMET006NOSIG?EQDQ01+000000PRSWM2
0199039620999991987010108004+52683-008917SY-MT+0020EINN V0202501N01031006601CN0200001N1+00901+00591099841ADDAG12999GA1021+004509079GA2041+006609089GA3061+012009059GF107991071081004501999999MA1099801999999MD1310191+9999MW1001OA149902011REMSYN029333   82715 84822 85640 91139MET006NOSIG?EQDQ01+000000PRSWM2
0091039620999991987010108304+52683-008917FM-15+0020EINN V0202501N00881012001CN0112001N1+00901+00401999999ADDAG12000GA1021+004509079GA2061+012009059MA1099801999999REMMET006NOSIG?EQDQ01+000000PRSWM2
0215039620999991987010109004+52683-008917SY-MT+0020EINN V0202501N00771012001CN0150001N1+00881+00401099941ADDAG12000AY151031AY221031GA1021+004509079GA2051+012009059GA3061+054009029GF107991061051004501999081MA1099901999999MD1210301+9999MW1021OA149902011REMSYN029333   82715 85640 86268 91139MET006NOSIG?EQDQ01+000000PRSWM2
0099039620999991987010109304+52683-008917FM-15+0020EINN V0202601N00881012001CN0112001N1+00901+00401999999ADDAG12999GA1021+004509079GA2061+012009059MA1099901999999OC101391REMMET006NOSIG?EQDQ01+000000PRSWM2
0177039620999991987010110004+52683-008917SY-MT+0020EINN V0202701N00931012001CN0200001N1+00811+00441099971ADDAG12999GA1021+005409079GA2071+012009059GF107991071051004501999999MA1099901999999MD1210201+9999MW1001OA149901901REMSYN023333   82718 87640 91137MET006NOSIG?EQDQ01+000000PRSWM2
0091039620999991987010110304+52683-008917FM-15+0020EINN V0202601N00981013501CN0112001N1+00901+00201999999ADDAG12999GA1031+006609089GA2041+013509059MA1100001999999REMMET006NOSIG?EQDQ01+000000PRSWM2
0160039620999991987010111004+52683-008917SY-MT+0020EINN V0202501N00871013501CN0300001N1+00871+00221100081ADDAG12999GA1011+006609089GA2041+013509059GF105991051081008001001001MA1100001999999MD1210241+9999MW1001REMSYN017333   81822 84645MET006NOSIG?EQDQ01+000000PRSWM2
0083039620999991987010111304+52683-008917FM-15+0020EINN V0202601N00821220001CN0112001N1+00901+00201999999ADDAG12000GA1011+006609089MA1100001999999OC101441REMMET006NOSIG?EQDQ01+000000PRSWM2
0205039620999991987010112004+52683-008917SY-MT+0020EINN V0202501N00771013501CN0300001N1+00891+00281100071ADDAA106999929AG10000AY151061AY221061GA1021+007209089GA2041+013509059GF105991051081008001001001MA1100001999999MD1110131+9999MW1021OA149902011REMSYN023333   82824 84645 91139MET007NOSIHG?EQDQ01+000000PRSWM2
0107039620999991987010112304+52683-008917FM-15+0020EINN V0202601N00981060001CN0112001N1+00801+00301999999ADDAG12999GA1011+005409089GA2011+006609099GA3041+060009009MA1100001999999REMMET006NOSIG?EQDQ01+000000PRSWM2
0177039620999991987010113004+52683-008917SY-MT+0020EINN V0202501N00981075001CN0250001N1+00841+00401100081ADDAG12001GA1021+006909099GA2031+075009009GF105991031031008001001021MA1100001999999MD1110111+9999MW1001OA149901801REMSYN023333   82923 83075 91135MET006NOSIG?EQDQ01+000000PRSWM2
0075039620999991987010113304+52683-008917FM-15+0020EINN V0202401N00721220001CN0112001N1+00901+00501999999ADDAG12999GA1031+006909089MA1100001999999REMMET006NOSIG?EQDQ01+000000PRSWM2
0179039620999991987010114004+52683-008917SY-MT+0020EINN V0202601N01291006001CN0150001N1+00911+00461100071ADDAG12999AY181021AY221021GA1011+002709079GA2031+004509079GA3051+006009099GF106991061031002501999999MA1100001999999MD1510011+9999MW1801REMSYN023333   81709 83715 85920MET006NOSIG?
0086039620999991987010114304+52683-008917FM-15+0020EINN V0202401N00621220001CN0112001N1+00801+00501999999ADDAG12001GA1011+003009079GA2031+006009099MA1100001999999MW1251OC101181REMMET006NOSIG?
0202039620999991987010115004+52683-008917SY-MT+0020EINN V0202701N01031004501CN0090001N1+00891+00441100091ADDAG12002AY181031AY281031GA1021+002409079GA2031+004509079GA3061+006609099GF107991071031002501999999MA1100001999999MD1310021+9999MW1801OA149902061REMSYN035333   82708 83715 86922 97470 91140MET006NOSIG?
0094039620999991987010115304+52683-008917FM-15+0020EINN V0202501N00721007201CN0112001N1+00801+00501999999ADDAG12999GA1011+002409079GA2031+004809079GA3051+007209099MA1100001999999MW1251REMMET006NOSIG?
0157039620999991987010116004+52683-008917SY-MT+0020EINN V0202501N00721220001CN0120001N1+00781+00411100131ADDAG12999AY181011AY221011GA1011+003009079GA2031+006009099GF104991041031004501001001MA1100101999999MD1310051+9999MW1251REMSYN017333   81710 83920MET006NOSIG?
0091039620999991987010116304+52683-008917FM-15+0020EINN V0202501N00671220001CN0112001N1+00801+00401999999ADDAG12999GA1011+003609079GA2041+005709089MA1100101999999REMMET006NOSIG?EQDQ01+000000PRSWM2
0179039620999991987010117004+52683-008917SY-MT+0020EINN V0202401N00671004801CN0180001N1+00751+00411100111ADDAG12999AY181021AY221021GA1021+002409079GA2031+004809079GA3051+007209099GF107991071031002501999999MA1100101999999MD1010041+9999MW1251REMSYN023333   82708 83716 85924MET006NOSIG?
0083039620999991987010117304+52683-008917FM-15+0020EINN V0202501N00621006001CN0112001N1+00701+00401999999ADDAG12001GA1021+003609079GA2031+006009099MA1100101999999MW1251REMMET011TEMPO 8000?
0217039620999991987010118004+52683-008917SY-MT+0020EINN V0202601N00931006001CN0200001N1+00671+00361100131ADDAA199002091AG10001AY181061AY281061GA1021+003609079GA2051+006009099GF105991051031004501001001KA1120M+00981MA1100101999999MD1110031+9999MW1251OA149902061OC101441REMSYN029333   10098 82712 85920 91140MET011TEMPO 8000?
0091039620999991987010118304+52683-008917FM-15+0020EINN V0202601N00881005401CN0112001N1+00601+00201999999ADDAG12999GA1031+002109079GA2061+005409099MA1100001999999MW1801OC101651REMMET011TEMPO 8000?
0179039620999991987010119004+52683-008917SY-MT+0020EINN V0202501N00821220001CN0200001N1+00701+00401100091ADDAG12001AY181011AY281011GA1011+003609079GA2031+006009099GF103991031031004501001001MA1100001999999MD1810051+9999MW1251OA149901901REMSYN023333   81712 83920 91137MET011TEMPO 8000?
0091039620999991987010119304+52683-008917FM-15+0020EINN V0202601N00881220001CN0112001N1+00601+00201999999ADDAG12999GA1011+003609079GA2031+006009099MA1100101999999MW1251OC101441REMMET011TEMPO 8000?
0179039620999991987010120004+52683-008917SY-MT+0020EINN V0202501N00721220001CN0200001N1+00661+00401100131ADDAG12001AY181021AY281021GA1011+003009079GA2031+006009099GF103991031031004501001001MA1100101999999MD1110011+9999MW1251OA149901441REMSYN023333   81710 83920 91128MET011TEMPO 8000?
0067039620999991987010120304+52683-008917FM-15+0020EINN V0202601N00721220001CN0112001N1+00701+00401999999ADDAG12001GA1021+006009099MA1100101999999MW1251REMMET011TEMPO 8000?
0157039620999991987010121004+52683-008917SY-MT+0020EINN V0202501N00571220001CN0250001N1+00681+00331100161ADDAG12001AY181031AY281031GA1021+006009099GF102991021031008001001001MA1100101999999MD1310031+9999MW1251OA149901901REMSYN017333   82920 91137MET011TEMPO 8000?
0080039620999991987010121304+52683-008917FM-15+0020EINN V0202601N00671220001CN0112001N1+00701+00401999999ADDAG12999GA1021+006009099MA1100101999999REMMET011TEMPO 8000?EQDQ01+000000PRSWM2
0149039620999991987010122004+52683-008917SY-MT+0020EINN V0202701N00621220001CN0250001N1+00681+00471100221ADDAG12999AY181011AY211011GA1011+006009099GF101991011031008001001001GJ101509MA1100201999999MD1310131+9999MW1251REMSYN017333   81920 94025MET006NOSIG?
0067039620999991987010122304+52683-008917FM-15+0020EINN V0202701N00771220001CN0112001N1+00701+00501999999ADDAG12999GA1021+006009099MA1100201999999MW1251REMMET011TEMPO 8000?
0140039620999991987010123004+52683-008917SY-MT+0020EINN V0202501N00721220001CN0300001N1+00711+00501100291ADDAG12001AY181021AY211021GA1021+006009099GF104991041031008001001001MA1100201999999MD1210161+9999MW1251REMSYN011333   82920MET011TEMPO 8000?
0080039620999991987010123304+52683-008917FM-15+0020EINN V0202801N00881220001CN0112001N1+00801+00501999999ADDAG12000GA1021+006009099MA1100311999999REMMET011TEMPO 8000?EQDQ01+000000PRSWM2
0196039620999991987010200004+52683-008917SY-MT+0020EINN V0202701N00571010501CN0200001N1+00791+00501100411ADDAA106004091AG10001AY181061AY211061GA1031+006309099GA2041+010509059GF107991071031008001999999MA1100411999999MD1310261+9999MW1251OA149901901REMSYN029333   83921 84635 91137 99720MET011TEMPO 8000?
0062039620999991987010200304+52683-008917FM-15+0020EINN V0202701N00721220001CN0112001N1+00801+00501999999ADDAG11999GA1021+006309099MA1100411999999MW1251REMMET006NOSIG?
0143039620999991987010201004+52683-008917SY-MT+0020EINN V0202801N01081220001CN0250001N1+00791+00551100471ADDAG12001AY181011AY211011GA1021+006009099GF103991031031008001001001MA1100411999999MD1210261+9999MW1251OC101651REMSYN011333   82920MET006NOSIG?
0062039620999991987010201304+52683-008917FM-15+0020EINN V0202801N00771220001CN0112001N1+00801+00501999999ADDAG11999GA1021+006009099MA1100511999999MW1251REMMET006NOSIG?
0165039620999991987010202004+52683-008917SY-MT+0020EINN V0202801N00771220001CN0250001N1+00781+00491100591ADDAG12001AY181021AY211021GA1011+006009099GA2031+012009059GF103991031031008001001001MA1100511999999MD1210311+9999MW1251OC101291REMSYN017333   81920 83640MET006NOSIG?
0075039620999991987010202304+52683-008917FM-15+0020EINN V0202801N00621220001CN0112001N1+00801+00501999999ADDAG11000GA1011+006009099MA1100611999999REMMET006NOSIG?EQDQ01+000000PRSWM2
0165039620999991987010203004+52683-008917SY-MT+0020EINN V0202801N00621006001CN0150001N1+00801+00531100721ADDAG12002AY181031AY281031GA1021+003009079GA2051+006009099GF106991061031004501999999MA1100711999999MD1210311+9999MW1801OC101441REMSYN017333   82710 85920MET006NOSIG?
0078039620999991987010203304+52683-008917FM-15+0020EINN V0202801N00621220001CN0112001N1+00801+00601999999ADDAG12999GA1011+003009079GA2031+006009099MA1100711999999MW1251REMMET006NOSIG?
0157039620999991987010204004+52683-008917SY-MT+0020EINN V0202801N00721220001CN0200001N1+00801+00481100821ADDAG12999AY181011AY211011GA1011+006009099GA2031+010209059GF103991031031008001001001MA1100811999999MD1210351+9999MW1251REMSYN017333   81920 83634MET006NOSIG?
0115039620999991987010204304+52683-008917FM-15+0020EINN V0202801N00881010201CN0112001N1+00801+00501999999ADDAG12999GA1021+006009099GA2041+010209059GA3071+012309059MA1100811999999OC101491REMMET006NOSIG?EQDQ01+000000PRSWM2
0175039620999991987010205004+52683-008917SY-MT+0020EINN V0202801N00871008401CN0200001N1+00841+00481100901ADDAG12001AY181021AY211021GA1011+003909079GA2031+006009099GA3051+008409059GF106991061031004501999999MA1100811999999MD1210311+9999MW1801OC101441REMSYN023333   81713 83920 85628
0102039620999991987010205304+52683-008917FM-15+0020EINN V0202901N00821008401CN0112001N1+00801+00501999999ADDAG11004GA1011+003609079GA2031+006009099GA3061+008409059MA1100911999999MW1801OC101441REMMET006NOSIG?
0247039620999991987010206004+52683-008917SY-MT+0020EINN V0202801N00981015001CN0250001N1+00821+00451100981ADDAA199004091AG10001AY181061AY211061GA1011+006009099GA2041+009609059GA3051+015009059GF106991061031008001999999GJ101509IA1099IA2999+00309KA1120N+00541MA1100911999999MD1210261+9999MW1251REMSYN041333   20054 31003 81920 84632 85650 94025MET006NOSIG?
0135039620999991987010207004+52683-008917SY-MT+0020EINN V0203001N00981220001CN0250001N1+00791+00351101121ADDAG12001AY181011AY211011GA1011+006009099GF102991021031008001001001MA1101081999999MD1210301+9999MW1251REMSYN011333   81920MET006NOSIG?
0075039620999991987010207304+52683-008917FM-15+0020EINN V0203001N01131220001CN0112001N1+00801+00301999999ADDAG12999GA1011+006009099MA1101081999999REMMET006NOSIG?EQDQ01+000000PRSWM2
0146039620999991987010208004+52683-008917SY-MT+0020EINN V0202901N00871220001CN0250001N1+00791+00241101281ADDAG12999GA1011+006009099GF101991011031008001001001MA1101191999999MD1310381+9999MW1001OC101441REMSYN011333   81920MET006NOSIG?EQDQ01+000000PRSWM2
0075039620999991987010208304+52683-008917FM-15+0020EINN V0203001N00621220001CN0112001N1+00801+00401999999ADDAG12000GA1021+006009099MA1101391999999REMMET006NOSIG?EQDQ01+000000PRSWM2
0176039620999991987010209004+52683-008917SY-MT+0020EINN V0203001N00671015001CN0250001N1+00811+00341101471ADDAG12001AY181031AY211031GA1021+006009099GA2031+015009059GF105991051031008001999999MA1101391999999MD1310491+9999MW1031REMSYN017333   82920 83650MET006NOSIG?EQDQ01+000000PRSWM2
0138039620999991987010210004+52683-008917SY-MT+0020EINN V0203001N00721220001CN0300001N1+00781+00411101601ADDAG12001GA1021+006009099GF103991031031008001001001MA1101491999999MD1210481+9999MW1001REMSYN011333   82920MET006NOSIG?EQDQ01+000000PRSWM2
0138039620999991987010211004+52683-008917SY-MT+0020EINN V0203001N00671220001CN0300001N1+00871+00411101731ADDAG12999GA1011+006009099GF102991021031008001001001MA1101691999999MD1210451+9999MW1001REMSYN011333   81920MET006NOSIG?EQDQ01+000000PRSWM2
0075039620999991987010211304+52683-008917FM-15+0020EINN V0203001N00721220001CN0112001N1+00901+00401999999ADDAG12000GA1011+006009089MA1101691999999REMMET006NOSIG?EQDQ01+000000PRSWM2
0165039620999991987010212004+52683-008917SY-MT+0020EINN V0203001N00671220001CN0300001N1+00901+00471101841ADDAA106999929AG10001AY181061AY211061GA1011+006009089GF101991011081008001001001MA1101801999999MD1210371+9999MW1011REMSYN011333   81820MET006NOSIG?EQDQ01+000000PRSWM2
0138039620999991987010213004+52683-008917SY-MT+0020EINN V0203001N00511220001CN0300001N1+00921+00431101911ADDAG12001GA1021+006009089GF103991031081008001001001MA1101901999999MD1210311+9999MW1001REMSYN011333   82820MET006NOSIG?EQDQ01+000000PRSWM2
0160039620999991987010214004+52683-008917SY-MT+0020EINN V0203101N00671010501CN0500001N1+00921+00471102001ADDAG12999GA1021+006009089GA2051+010509059GF106991061081008001999999MA1101901999999MD1210271+9999MW1001REMSYN017333   82820 85635MET006NOSIG?EQDQ01+000000PRSWM2
0160039620999991987010215004+52683-008917SY-MT+0020EINN V0203001N00511012001CN0500001N1+00881+00531102081ADDAG12000GA1011+006009089GA2041+012009059GF105991051081008001999999MA1102001999999MD1210241+9999MW1001REMSYN017333   81820 84640MET006NOSIG?EQDQ01+000000PRSWM2
0138039620999991987010216004+52683-008917SY-MT+0020EINN V0203101N00361220001CN0300001N1+00841+00521102191ADDAG12999GA1041+012009059GF104991041051008001001021MA1102101999999MD1210281+9999MW1001REMSYN011333   84640MET006NOSIG?EQDQ01+000000PRSWM2
0138039620999991987010217004+52683-008917SY-MT+0020EINN V0203201N00311220001CN0300001N1+00731+00481102271ADDAG12001GA1031+012009059GF103991031051012501001021MA1102201999999MD1210271+9999MW1001REMSYN011333   83640MET006NOSIG?EQDQ01+000000PRSWM2
0092039620999991987010217304+52683-008917FM-15+0020EINN V0203301N00151220001CN0112001N1+00701+00401999999ADDAG12000GA1011+006309089GA2031+060009009MA1102301999999REMMET007NOSIG+?EQDQ01+000000PRSWM2
0190039620999991987010218004+52683-008917SY-MT+0020EINN V0202901N00101011101CN0300001N1+00621+00461102371ADDAA199999929AG10000GA1011+006309089GA2061+011109059GF107991061081008001999021KA1120M+00941MA1102301999999MD1210281+9999MW1001REMSYN023333   10094 81821 86637MET006NOSIG?EQDQ01+000000PRSWM2
0091039620999991987010218304+52683-008917FM-15+0020EINN V0202901N00211012001CN0112001N1+00601+00501999999ADDAG12999GA1011+003909079GA2051+012009059MA1102401999999REMMET006NOSIG?EQDQ01+000000PRSWM2
0160039620999991987010219004+52683-008917SY-MT+0020EINN V0202701N00151220001CN0250001N1+00551+00441102471ADDAG12001GA1011+006309089GA2031+012009059GF103991031081008001001001MA1102401999999MD1210271+9999MW1001REMSYN017333   81821 83640MET006NOSIG?EQDQ01+000000PRSWM2
0091039620999991987010219304+52683-008917FM-15+0020EINN V0203001N00101003901CN0112001N1+00501+00401999999ADDAG12999GA1051+003909079GA2041+011409059MA1102511999999REMMET006NOSIG?EQDQ01+000000PRSWM2
0182039620999991987010220004+52683-008917SY-MT+0020EINN V0203601N00101005401CN0250001N1+00541+00391102581ADDAG12999GA1021+003609079GA2041+005409079GA3051+008109059GF107991071061004501999999MA1102511999999MD1210301+9999MW1001REMSYN023333   82712 84718 85627MET006NOSIG?EQDQ01+000000PRSWM2
0091039620999991987010220304+52683-008917FM-15+0020EINN V0200301N00101008701CN0112001N1+00601+00401999999ADDAG12000GA1021+005409079GA2071+008709059MA1102611999999REMMET006NOSIG?EQDQ01+000000PRSWM2
0157039620999991987010221004+52683-008917SY-MT+0020EINN V0200401N00101008101CN0160001N1+00551+00441102671ADDAG12000AY121031AY211031GA1031+005409079GA2071+008109059GF107991071051004501999999MA1102611999999MD1210301+9999MW1101REMSYN017333   83718 87627MET006NOSIG?
0078039620999991987010221304+52683-008917FM-15+0020EINN V0209991C00001012901CN0112001N1+00501+00401999999ADDAG12999GA1031+008109059GA2031+012909059MA1102711999999MW1101REMMET006NOSIG?
0152039620999991987010222004+52683-008917SY-MT+0020EINN V0200301N00101220001CN0200001N1+00501+00351102731ADDAG12999GA1031+012909059GF103991031051012501001001GJ102529MA1102711999999MD1210261+9999MW1001REMSYN017333   83643 94042MET006NOSIG?EQDQ01+000000PRSWM2
0076039620999991987010222304+52683-008917FM-15+0020EINN V0200401N00151220001CN0112001N1+00501+00301999999ADDAG12999GA1021+012909059MA1102711999999REMMET007NOSIFG?EQDQ01+000000PRSWM2
0141039620999991987010223004+52683-008917SY-MT+0020EINN V0200501N00101220001CN0090001N1+00371+00221102771ADDAG12999AY101021AY201021GA1011+012909059GF101991011051012501001001MA1102711999999MD1210191+9999MW1101REMSYN017333   81643 92000MET006NOSIG?
0065039620999991987010223304+52683-008917FM-15+0020EINN V0200501N00101999991CY0099001N1+00501+00401999999ADDAG11000MA1102711999999REMMET012CAVOK NOSIG?EQDQ01+000000PRSWM2
0155039620999991987010300004+52683-008917SY-MT+0020EINN V0209991C00001220001CN0150001N1+00301+00171102831ADDAA106999929AG10000AY111061AY211061GF100991001001999999001001MA1102811999999MD1210161+9999MW1101REMSYN011333   92000MET012CAVOK NOSIG?EQDQ01+000000PRSWM2
0065039620999991987010300304+52683-008917FM-15+0020EINN V0209991C00001999991CY0099001N1+00301+00101999999ADDAG11999MA1102811999999REMMET012CAVOK NOSIG?EQDQ01+000000PRSWM2
0144039620999991987010301004+52683-008917SY-MT+0020EINN V0209991C00001220001CN0030001N1+00161+00131102871ADDAG11001AY101011AY201011GF100991001001999999001001MA1102811999999MD1210141+9999MW1401REMSYN029333   92000 97158 97258 97358MET0138KM SE SW NE?
0051039620999991987010301304+52683-008917FM-15+0020EINN V0209991C00001220001CN0060001N1+00201+00101999999ADDAG11999MA1102811999999MW1101REMMET011TEMPO 3000?
0124039620999991987010302004+52683-008917SY-MT+0020EINN V0209991C00001220001CN0050001N1+00141+00061102911ADDAG11999AY101021AY201021GF100991001001999999001001MA1102911999999MD1210141+9999MW1101REMSYN011333   92001MET011TEMPO 3000?
0051039620999991987010302304+52683-008917FM-15+0020EINN V0200801N00051220001CN0050001N1+00101+00001999999ADDAG12000MA1102911999999MW1101REMMET011TEMPO 3000?
0124039620999991987010303004+52683-008917SY-MT+0020EINN V0201001N00101220001CN0050001N1+00151+00021102941ADDAG12000AY101031AY201031GF100991001001999999001001MA1102911999999MD1210111+9999MW1101REMSYN011333   92001MET011TEMPO 3000?
0051039620999991987010303304+52683-008917FM-15+0020EINN V0201201N00151220001CN0050001N1+00201+00101999999ADDAG12999MA1102911999999MW1101REMMET011TEMPO 3000?
0107039620999991987010304004+52683-008917SY-MT+0020EINN V0201101N00211220001CN0060001N1+00221+00141102951ADDAG12999AY101011AY201011GF100991001001999999001001MA1102911999999MD1010081+9999MW1101REMMET011TEMPO 3000?
0067039620999991987010304304+52683-008917FM-15+0020EINN V0201101N00151060001CN0060001N1+00201+00101999999ADDAG12999GA1051+060009009MA1102911999999MW1101REMMET011TEMPO 3000?
0146039620999991987010305004+52683-008917SY-MT+0020EINN V0201201N00151060001CN0060001N1+00231+00151102951ADDAG11999AY101021AY201021GA1051+060009009GF105991001001999999001021MA1102911999999MD1110041+9999MW1101REMSYN017333   85070 92000MET011TEMPO 3000?
0067039620999991987010305304+52683-008917FM-15+0020EINN V0201401N00211060001CN0080001N1+00201+00101999999ADDAG12000GA1071+060009009MA1102911999999MW1101REMMET011TEMPO 5000?
0203039620999991987010306004+52683-008917SY-MT+0020EINN V0201301N00151060001CN0060001N1+00221+00141102951ADDAA199999929AG10000AY111061AY211061GA1061+060009029GF106991001001999999001061GJ102529IA1099IA2999-00409KA1120N+00101MA1102911999999MD1110011+9999MW1101REMSYN029333   20010 31104 86270 94042MET006NOSIG?
0082039620999991987010306304+52683-008917FM-15+0020EINN V0201101N00211220001CN0070001N1+00201+00101999999ADDAG12999GA1021+006909059MA1102911999999MW1101REMMET026VIS 10KM TO SE TEMPO 9999?
0140039620999991987010307004+52683-008917SY-MT+0020EINN V0201101N00261006601CN0120001N1+00231+00131102951ADDAG12999AY111011AY211011GA1051+006609059GF105991051051008001001001MA1102911999999MD1410001+9999MW1101REMSYN011333   85622MET011TEMPO 7000?
0067039620999991987010307304+52683-008917FM-15+0020EINN V0201201N00261005401CN0112001N1+00301+00201999999ADDAG12999GA1071+005409079MA1102911999999MW1101REMMET011TEMPO 7000?
0162039620999991987010308004+52683-008917SY-MT+0020EINN V0201101N00211009001CN0120001N1+00341+00211102981ADDAG12999AY121021AY221021GA1031+005109079GA2031+009009059GF105991051051004501001001MA1102911999999MD1310031+9999MW1101REMSYN017333   83717 83630MET011TEMPO 7000?
0158039620999991987010309004+52683-008917SY-MT+0020EINN V0201101N00311027001CN0140001N1+00251+00121102961ADDAG12000AY111031AY211031GA1031+006009059GA2031+027009039GF106991031051008001031021MA1102911999999MD1010011+9999MW1101REMSYN017333   83620 83359MET007.NOSIG?
0177039620999991987010310004+52683-008917SY-MT+0020EINN V0201301N00101018001CN0120001N1+00301+00141102971ADDAG12999AY121011AY221011GA1011+009009059GA2051+018009059GF106991051051008001031999MA1102911999999MD1110021+9999MW1101REMSYN017333   81630 85656MET007NO SIG?EQDQ01+000000PRSWM2
0167039620999991987010311004+52683-008917SY-MT+0020EINN V0201301N00151030001CN0120001N1+00421+00271102961ADDAG12001AY121021AY221021GA1031+018009059GF107991031051017501031021MA1102911999999MD1610021+9999MW1101REMSYN017333   83656 83359MET013CAVOK NO SIG?EQDQ01+000000PRSWM2
0169039620999991987010312004+52683-008917SY-MT+0020EINN V0201701N00261030001CN0120001N1+00601+00411102921ADDAA106999929AG10000AY121061AY221061GA1011+004509079GA2031+018009059GF106991031051004501031021MA1102911999999MD1810041+9999MW1101REMSYN017333   81715 83656MET007NO SIG?
0066039620999991987010312304+52683-008917FM-15+0020EINN V0201801N00211999991CY0099001N1+00701+00501999999ADDAG12999MA1102811999999REMMET013CAVOK NO SIG?EQDQ01+000000PRSWM2
0158039620999991987010313004+52683-008917SY-MT+0020EINN V0201801N00311015001CN0150001N1+00681+00451102851ADDAG12001AY121011AY221011GA1021+009009059GA2061+015009059GF107991061051012501031999MA1102811999999MD1810121+9999MW1101REMSYN017333   82630 86656MET007NO SIG?
0095039620999991987010313304+52683-008917FM-15+0020EINN V0201701N00211015001CN0112001N1+00701+00501999999ADDAG12999GA1031+009009059GA2051+015009059GA3051+027009049MA1102811999999MW1101REMMET007NO SIG?
0182039620999991987010314004+52683-008917SY-MT+0020EINN V0201701N00361027001CN0250001N1+00721+00511102791ADDAG12999GA1031+009009059GA2061+027009049GA3061+060009029GF108991031051012501071061MA1102711999999MD1710171+9999MW1001REMSYN023333   83630 86459 86270MET006NOSIG?EQDQ01+000000PRSWM2
0094039620999991987010314304+52683-008917FM-15+0020EINN V0201701N00411024001CN0112001N1+00801+00501999999ADDAG12002GA1041+009009059GA2061+024009049GA3061+060009029MA1102711999999MW1601REMMET006NOSIG?
0176039620999991987010315004+52683-008917SY-MT+0020EINN V0201701N00311024001CN0300001N1+00801+00481102721ADDAG12001AY161031AY221031GA1041+009009059GA2081+024009049GF108991041051012501071999MA1102711999999MD1710191+9999MW1211REMSYN017333   84630 88458MET006NOSIG?EQDQ01+000000PRSWM2
0078039620999991987010315304+52683-008917FM-15+0020EINN V0201701N00361024001CN0112001N1+00801+00501999999ADDAG12999GA1041+009009059GA2081+024009049MA1102611999999MW1601REMMET006NOSIG?
0157039620999991987010316004+52683-008917SY-MT+0020EINN V0201701N00261024001CN0200001N1+00791+00551102671ADDAG12999AY161011AY221011GA1041+006009059GA2081+024009049GF108991041051008001071999MA1102611999999MD1710171+9999MW1601REMSYN017333   84620 88458MET006NOSIG?
0078039620999991987010316304+52683-008917FM-15+0020EINN V0201701N00311024001CN0112001N1+00801+00601999999ADDAG12999GA1041+006009059GA2081+024009049MA1102611999999MW1611REMMET006NOSIG?
0179039620999991987010317004+52683-008917SY-MT+0020EINN V0201601N00311009601CN0250001N1+00761+00561102591ADDAG12999AY161021AY221021GA1021+006009059GA2051+009609059GA3081+024009049GF108991051051008001071999MA1102511999999MD1710191+9999MW1211REMSYN023333   82620 85632 88458MET006NOSIG?
0228039620999991987010318004+52683-008917SY-MT+0020EINN V0201501N00151009001CN0300001N1+00761+00631102561ADDAA199000191AG10001AY161061AY221061GA1011+006009059GA2061+009009059GA3071+024009049GF108991061051008001071999KA1120M+00821MA1102511999999MD1710161+9999MW1021REMSYN029333   10082 81620 86630 87458MET006NOSIG?EQDQ01+000000PRSWM2
0091039620999991987010318304+52683-008917FM-15+0020EINN V0201601N00151008401CN0112001N1+00801+00601999999ADDAG12999GA1031+003009079GA2071+008409059MA1102511999999REMMET006NOSIG?EQDQ01+000000PRSWM2
0182039620999991987010319004+52683-008917SY-MT+0020EINN V0201701N00151024001CN0300001N1+00731+00601102511ADDAG12999GA1021+006009059GA2041+009009059GA3071+024009049GF108991041051008001071999MA1102511999999MD1710171+9999MW1001REMSYN023333   82620 84630 87458MET006NOSIG?EQDQ01+000000PRSWM2
0091039620999991987010319304+52683-008917FM-15+0020EINN V0209991C00001024001CN0112001N1+00701+00601999999ADDAG12999GA1041+009009059GA2071+024009049MA1102511999999REMMET006NOSIG?EQDQ01+000000PRSWM2
0160039620999991987010320004+52683-008917SY-MT+0020EINN V0201601N00211024001CN0250001N1+00741+00611102471ADDAG12001GA1041+006609059GA2071+024009049GF108991041051008001071999MA1102401999999MD1710131+9999MW1001REMSYN017333   84622 87458MET006NOSIG?EQDQ01+000000PRSWM2
0091039620999991987010320304+52683-008917FM-15+0020EINN V0201701N00211015001CN0112001N1+00801+00601999999ADDAG12000GA1031+007509059GA2071+015009059MA1102401999999REMMET006NOSIG?EQDQ01+000000PRSWM2
0160039620999991987010321004+52683-008917SY-MT+0020EINN V0201701N00101015001CN0300001N1+00821+00621102421ADDAG12000GA1041+007809059GA2071+015009059GF108991081051008001999999MA1102401999999MD1710141+9999MW1001REMSYN017333   84626 87650MET006NOSIG?EQDQ01+000000PRSWM2
0091039620999991987010321304+52683-008917FM-15+0020EINN V0201701N00261018001CN0112001N1+00801+00601999999ADDAG12999GA1031+008109059GA2081+018009059MA1102301999999REMMET006NOSIG?EQDQ01+000000PRSWM2
0158039620999991987010322004+52683-008917SY-MT+0020EINN V0202001N00361018001CN0300001N1+00841+00641102371ADDAG12999GA1081+018009059GF108991081051017501999999GJ100069MA1102301999999MD1710131+9999MW1001REMSYN017333   88656 94001MET012CAVOK NOSIG?EQDQ01+000000PRSWM2
0091039620999991987010322304+52683-008917FM-15+0020EINN V0202001N00461018001CN0112001N1+00901+00701999999ADDAG12999GA1041+006609059GA2081+018009059MA1102301999999REMMET006NOSIG?EQDQ01+000000PRSWM2
0108039620999991987010323004+52683-008917FM-12+0020EINN V0201801N00361005401CN0300001N9+00931+00651102301ADDAG12999GA1051+005409079GA2081+015009059GF108991081061004501999999MD1710161+9999REMSYN017333   85718 88650
0091039620999991987010323304+52683-008917FM-15+0020EINN V0201801N00311015001CN0112001N1+00901+00701999999ADDAG12000GA1041+005409079GA2081+015009059MA1102201999999REMMET006NOSIG?EQDQ01+000000PRSWM2
0171039620999991987010400004+52683-008917SY-MT+0020EINN V0201801N00411015001CN0300001N1+00881+00691102211ADDAA106000091AG14000GA1031+005409079GA2081+015009059GF108991081051004501999999MA1102201999999MD1810211+9999MW1001REMSYN017333   83718 88650MET006NOSIG?EQDQ01+000000PRSWM2
0174039620999991987010401004+52683-008917SY-MT+0020EINN V0201801N00361015001CN0300001N1+00931+00701102101ADDAG11001GA1021+004809079GA2081+015009059GF108991081051004501999999MA1102001999999MD1810271+9999MW1001REMSYN017333   82716 88650MET020GRADU 4ST012 7ST018?EQDQ01+000000PRSWM2
0121039620999991987010401304+52683-008917FM-15+0020EINN V0202101N00621024001CN0112001N1+01001+00801999999ADDAG11999GA1011+004809079GA2041+015009059GA3081+024009049MA1102001999999REMMET020GRADU 4ST012 8ST018?EQDQ01+000000PRSWM2
0193039620999991987010402004+52683-008917SY-MT+0020EINN V0202101N00621009001CN0250001N1+01161+00901102001ADDAG12001AY161021AY221021GA1021+004509079GA2041+009009059GA3081+024009049GF108991051051004501021999MA1101901999999MD1810301+9999MW1601REMSYN023333   82715 84630 88458MET020GRADU 5ST012 7ST018?
0108039620999991987010402304+52683-008917FM-15+0020EINN V0202101N00461009001CN0112001N1+01001+00801999999ADDAG12002GA1021+004509079GA2041+009009059GA3081+024009049MA1101901999999MW1601REMMET020GRADU 5ST012 7ST018?
0193039620999991987010403004+52683-008917SY-MT+0020EINN V0202101N00461015001CN0250001N1+01001+00811101911ADDAG12002AY161031AY221031GA1011+004509079GA2031+009009059GA3051+015009059GF108991061051004501021999MA1101901999999MD1710301+9999MW1611REMSYN023333   81715 83630 85650MET020GRADU 5ST012 7ST018?
0103039620999991987010403304+52683-008917FM-15+0020EINN V0202101N00411024001CN0112001N1+01001+00801999999ADDAG12999GA1011+004509079GA2081+024009049MA1101801999999MW1611REMMET031GRADU      ?     5ST012 7ST018?
0182039620999991987010404004+52683-008917SY-MT+0020EINN V0202101N00571024001CN0200001N1+01011+00821101781ADDAG12999AY161011AY261011GA1021+009009059GA2081+024009049GF108991021051012501021999MA1101691999999MD1710321+9999MW1611REMSYN017333   82630 88458MET031GRADU      ?     5ST012 7ST018?
0103039620999991987010404304+52683-008917FM-15+0020EINN V0202101N00621024001CN0112001N1+01001+00901999999ADDAG12999GA1021+009009059GA2081+024009049MA1101691999999MW1611REMMET031GRADU      ?     5ST012 7ST018?
0182039620999991987010405004+52683-008917SY-MT+0020EINN V0202001N00621024001CN0200001N1+01011+00821101651ADDAG12999AY161021AY261021GA1021+009009059GA2081+024009049GF108991021051012501021999MA1101591999999MD1710351+9999MW1611REMSYN017333   82630 88458MET031GRADU      ?     5ST012 7ST018?
0250039620999991987010406004+52683-008917SY-MT+0020EINN V0202101N00721024001CN0150001N1+01071+00801101541ADDAA199001091AG10002AY161061AY221061GA1011+012009059GA2081+024009049GF108991011051012501021999GJ100069IA1099IA2999+00609KA1120N+00721MA1101491999999MD1710371+9999MW1611REMSYN035333   20072 31006 81640 88458 94001MET031GRADU      ?     5ST012 7ST018?
0129039620999991987010406304+52683-008917FM-15+0020EINN V0202001N00511002401CN0112001N1+01001+00901999999ADDAG12999GA1051+002409079GA2081+024009049MA1101391999999OC101131REMMET036TEMPO 4ST0008          ?     7ST012?EQDQ01+000000PRSWM2
0162039620999991987010407004+52683-008917SY-MT+0020EINN V0202101N00671001801CN0150001N1+01021+00881101441ADDAG12999AY161011AY261011GA1051+001809079GA2071+003309079GF108991081061002501999999MA1101391999999MD1710341+9999MW1611REMSYN017333   85706 87711MET011TEMPO 7000?
0083039620999991987010407304+52683-008917FM-15+0020EINN V0202101N00671003301CN0112001N1+01001+00901999999ADDAG12999GA1041+002709079GA2081+003309079MA1101291999999MW1611REMMET011TEMPO 7000?
0140039620999991987010408004+52683-008917SY-MT+0020EINN V0202201N00671001501CN0150001N1+01031+00951101361ADDAG12999AY161021AY261021GA1081+001509079GF108991081061001501999999MA1101291999999MD1610291+9999MW1611REMSYN011333   88705MET011TEMPO 7000?
0177039620999991987010409004+52683-008917SY-MT+0020EINN V0202301N00821001801CN0070001N1+01051+00951101351ADDAG12001AY161031AY251031GA1061+001809079GA2081+003309079GF108991081061002501999999MA1101291999999MD1610191+9999MW1581REMSYN017333   86706 88711MET026GRADU 9999 4ST010 8SC020)?
0117039620999991987010409304+52683-008917FM-15+0020EINN V0202301N00771001501CN0070001N1+01001+01001999999ADDAG12999GA1061+001509079GA2081+003309079MA1101291999999MW1581OC101291REMMET037GRADU 9999       ?     4ST010 8SC020?
0188039620999991987010410004+52683-008917SY-MT+0020EINN V0202401N00621001801CN0060001N1+01041+00941101361ADDAG12999AY161011AY251011GA1061+001809079GA2081+003309079GF108991081061002501999999MA1101291999999MD1510081+9999MW1581REMSYN017333   86706 88711MET037GRADU 9999       ?     4ST010 8SC020?
0125039620999991987010410304+52683-008917FM-15+0020EINN V0202701N00571002101CN0080001N1+01001+00901999999ADDAG12999GA1021+001509079GA2061+002109079GA3081+003309079MA1101291999999MW1581REMMET037GRADU 9999       ?     4ST010 8SC020?
0179039620999991987010411004+52683-008917SY-MT+0020EINN V0202901N00621005401CN0130001N1+00951+00811101441ADDAG12999AY161021AY251021GA1041+002109079GA2051+005409079GA3071+015009059GF107991071061002501999999MA1101391999999MD1310081+9999MW1211REMSYN023333   84707 85718 87650MET006NOSIG?
0113039620999991987010411304+52683-008917FM-15+0020EINN V0202901N00511002401CN0080001N1+00901+00801999999ADDAG12001GA1051+002409079GA2071+003609079MA1101391999999MW1501REMMET04110KM TO SE       ?     GRADU 9999 3CU020?
0141039620999991987010412004+52683-008917FM-12+0020EINN V0202801N00621002401CN0120001N9+00871+00771101481ADDAA106005091AG10001AY161061AY251061GA1051+002409079GA2071+003609079GF108991081061002501999999MD1210131+9999MW1201REMSYN017333   85708 87712
0107039620999991987010412304+52683-008917FM-15+0020EINN V0202801N00571001801CN0112001N1+00801+00701999999ADDAG12999GA1051+001809079GA2061+003609079GA3061+009009059MA1101491999999MW1501REMMET019GRADU 3CU020     ??
0179039620999991987010413004+52683-008917SY-MT+0020EINN V0202701N00621015001CN0200001N1+00831+00611101501ADDAG12001AY151011AY221011GA1011+002409079GA2031+009009059GA3051+015009059GF107991071051002501999021MA1101391999999MD1110141+9999MW1201REMSYN023333   81708 83630 85650MET006NOSIG?
0107039620999991987010413304+52683-008917FM-15+0020EINN V0202701N00821015001CN0112001N1+00801+00501999999ADDAG12999GA1011+003609079GA2031+006009059GA3071+015009059MA1101491999999REMMET006NOSIG?EQDQ01+000000PRSWM2
0182039620999991987010414004+52683-008917SY-MT+0020EINN V0202701N00511015001CN0400001N1+00811+00391101531ADDAG12999GA1011+005409079GA2031+007509059GA3071+015009059GF108991081051004501999999MA1101491999999MD1210091+9999MW1001REMSYN023333   81718 83625 87650MET006NOSIG?EQDQ01+000000PRSWM2
0091039620999991987010414304+52683-008917FM-15+0020EINN V0202701N00511015001CN0112001N1+00801+00401999999ADDAG12000GA1011+006009079GA2081+015009059MA1101491999999REMMET006NOSIG?EQDQ01+000000PRSWM2
0198039620999991987010415004+52683-008917SY-MT+0020EINN V0202701N00621015001CN0300001N1+00801+00301101561ADDAG12000AY151031AY221031GA1011+006009089GA2031+009009059GA3071+015009059GF107991071081008001999999MA1101491999999MD1310081+9999MW1011REMSYN023333   81820 83630 87650MET006NOSIG?EQDQ01+000000PRSWM2
0157039620999991987010416004+52683-008917SY-MT+0020EINN V0202901N00671015001CN0300001N1+00771+00351101591ADDAG12999AY181011AY221011GA1021+006609089GA2061+015009059GF107991071081008001999999MA1101491999999MD1210091+9999MW1251REMSYN017333   82822 84650MET006NOSIG?
0078039620999991987010416304+52683-008917FM-15+0020EINN V0202901N00671015001CN0112001N1+00801+00301999999ADDAG12999GA1031+006609089GA2041+015009059MA1101591999999MW1801REMMET006NOSIG?
0135039620999991987010417004+52683-008917SY-MT+0020EINN V0202801N00621220001CN0300001N1+00701+00321101611ADDAG12999AY181021AY221021GA1021+006609089GF104991031081008001031001MA1101591999999MD1110081+9999MW1251REMSYN011333   82822MET006NOSIG?
0187039620999991987010418004+52683-008917SY-MT+0020EINN V0202601N00571007201CN0150001N1+00661+00401101641ADDAA199005091AG10002AY181061AY251061GA1021+003609079GA2051+007209099GF107991071031004501999999KA1120M+01081MA1101591999999MD1210071+9999MW1801REMSYN023333   10108 82712 85924MET006NOSIG?
0078039620999991987010418304+52683-008917FM-15+0020EINN V0202601N00511007201CN0112001N1+00701+00401999999ADDAG12999GA1021+004509079GA2041+007209099MA1101591999999MW1251REMMET006NOSIG?
0179039620999991987010419004+52683-008917SY-MT+0020EINN V0202501N00461012001CN0200001N1+00641+00351101661ADDAG12999AY181011AY221011GA1011+004509079GA2021+007509099GA3051+012009059GF107991071031004501999999MA1101591999999MD1210061+9999MW1251REMSYN023333   81715 82925 85640MET006NOSIG?
0094039620999991987010419304+52683-008917FM-15+0020EINN V0202501N00311015001CN0112001N1+00701+00401999999ADDAG12999GA1011+004509079GA2031+007509099GA3051+015009059MA1101591999999MW1251REMMET006NOSIG?
0135039620999991987010420004+52683-008917SY-MT+0020EINN V0202501N00571220001CN0200001N1+00681+00271101661ADDAG12999AY181021AY221021GA1021+007509099GF104991041031008001001001MA1101591999999MD1110041+9999MW1251REMSYN011333   82925MET006NOSIG?
0091039620999991987010420304+52683-008917FM-15+0020EINN V0202601N00621015001CN0112001N1+00701+00301999999ADDAG12000GA1031+007509089GA2051+015009059MA1101591999999REMMET006NOSIG?EQDQ01+000000PRSWM2
0176039620999991987010421004+52683-008917SY-MT+0020EINN V0202701N00671015001CN0200001N1+00721+00291101661ADDAG12001AY181031AY221031GA1031+007509089GA2031+015009059GF105991051081008001999999MA1101591999999MD1110021+9999MW1031REMSYN017333   83825 83650MET006NOSIG?EQDQ01+000000PRSWM2
0075039620999991987010421304+52683-008917FM-15+0020EINN V0202701N00671220001CN0112001N1+00701+00301999999ADDAG12999GA1011+007509089MA1101591999999REMMET006NOSIG?EQDQ01+000000PRSWM2
0171039620999991987010422004+52683-008917SY-MT+0020EINN V0202701N00621015001CN0250001N1+00721+00311101721ADDAG12999AY181011AY221011GA1021+006009099GA2061+015009059GF107991071031008001999999GJ100009MA1101691999999MD1310061+9999MW1801REMSYN023333   82920 86650 94000MET006NOSIG?
0094039620999991987010422304+52683-008917FM-15+0020EINN V0202701N00571007501CN0112001N1+00701+00401999999ADDAG12999GA1021+006009099GA2031+007509059GA3061+015009059MA1101591999999MW1801REMMET006NOSIG?
0179039620999991987010423004+52683-008917SY-MT+0020EINN V0202701N00721015001CN0250001N1+00671+00361101671ADDAG12999AY181021AY221021GA1011+006009099GA2031+009009059GA3061+015009059GF107991071031008001999999MA1101591999999MD1010011+9999MW1251REMSYN023333   81920 83630 86650MET006NOSIG?
0078039620999991987010423304+52683-008917FM-15+0020EINN V0202601N00461220001CN0112001N1+00701+00301999999ADDAG12001GA1011+006009099GA2031+015009059MA1101591999999MW1251REMMET006NOSIG?
0190039620999991987010500004+52683-008917SY-MT+0020EINN V0202501N00461007501CN0250001N1+00701+00291101631ADDAA106999929AG10002AY181061AY221061GA1021+006009099GA2031+007509059GA3061+015009059GF107991071031008001999999MA1101591999999MD1810031+9999MW1801REMSYN023333   82920 83625 86650MET006NOSIG?
0165039620999991987010501004+52683-008917SY-MT+0020EINN V0202501N00821015001CN0400001N1+00691+00391101611ADDAG12999AY181011AY221011GA1031+006009099GA2031+015009059GF106991061031008001999999MA1101591999999MD1610111+9999MW1801OC101441REMSYN017333   83920 83650MET006NOSIG?
0086039620999991987010501304+52683-008917FM-15+0020EINN V0202601N00771015001CN0112001N1+00701+00301999999ADDAG12999GA1041+006009099GA2041+015009059MA1101591999999MW1801OC101441REMMET006NOSIG?
0135039620999991987010502004+52683-008917SY-MT+0020EINN V0202601N00821220001CN0400001N1+00681+00271101641ADDAG12999AY181021AY211021GA1031+006009099GF103991031031008001001001MA1101591999999MD1510031+9999MW1251REMSYN011333   83920MET006NOSIG?
0062039620999991987010502304+52683-008917FM-15+0020EINN V0202501N00771220001CN0112001N1+00701+00401999999ADDAG12001GA1021+006009099MA1101591999999MW1251REMMET006NOSIG?
0135039620999991987010503004+52683-008917SY-MT+0020EINN V0202701N00721006001CN0400001N1+00671+00341101621ADDAG12001AY181031AY211031GA1051+006009099GF105991051031008001999999MA1101591999999MD1610011+9999MW1251REMSYN011333   85920MET006NOSIG?
0062039620999991987010503304+52683-008917FM-15+0020EINN V0202601N00771220001CN0112001N1+00701+00301999999ADDAG12999GA1041+006009099MA1101491999999MW1251REMMET006NOSIG?
0138039620999991987010504004+52683-008917SY-MT+0020EINN V0202601N00671006001CN0400001N1+00681+00351101581ADDAG12999GA1061+006009099GF106991061031008001999999MA1101491999999MD1810031+9999MW1001REMSYN011333   86920MET006NOSIG?EQDQ01+000000PRSWM2
0083039620999991987010504304+52683-008917FM-15+0020EINN V0202601N00771220001CN0112001N1+00701+00301999999ADDAG12999GA1041+006009099MA1101491999999OC101341REMMET006NOSIG?EQDQ01+000000PRSWM2
0168039620999991987010505004+52683-008917SY-MT+0020EINN V0202601N00871015001CN0400001N1+00681+00251101571ADDAG12999GA1041+006009099GA2051+015009059GF107991071031008001999999MA1101491999999MD1610071+9999MW1001OC101541REMSYN017333   84920 85650MET006NOSIG?EQDQ01+000000PRSWM2
0217039620999991987010506004+52683-008917SY-MT+0020EINN V0202601N00771006001CN0300001N1+00711+00281101551ADDAA199000191AG10001AY181061AY211061GA1051+006009089GF107991071081008001999999GJ100009IA1099IA2999+00409KA1120N+00641MA1101491999999MD1710071+9999MW1251OC101391REMSYN035333   20064 31004 85820 84640 94000MET006NOSIG?
0182039620999991987010507004+52683-008917SY-MT+0020EINN V0202701N00721006001CN0300001N1+00691+00281101561ADDAG12999GA1021+003009079GA2051+006009089GA3051+009609059GF107991071081004501999999MA1101491999999MD1510021+9999MW1001REMSYN023333   82710 85820 85632MET006NOSIG?EQDQ01+000000PRSWM2
0160039620999991987010508004+52683-008917SY-MT+0020EINN V0202801N00671010501CN0300001N1+00711+00361101581ADDAG12999GA1031+006009089GA2061+010509059GF107991071081008001999999MA1101491999999MD1310011+9999MW1001REMSYN017333   83820 86635MET006NOSIG?EQDQ01+000000PRSWM2
0160039620999991987010509004+52683-008917SY-MT+0020EINN V0202801N00671015001CN0300001N1+00751+00331101591ADDAG12000GA1031+006009089GA2051+015009059GF107991051081008001031021MA1101491999999MD1210051+9999MW1001REMSYN017333   83820 85650MET006NOSIG?EQDQ01+000000PRSWM2
0157039620999991987010510004+52683-008917SY-MT+0020EINN V0202801N00771015001CN0300001N1+00711+00431101641ADDAG12999AY181011AY211011GA1021+006009099GA2031+015009059GF105991041031008001031001MA1101591999999MD1210081+9999MW1251REMSYN017333   82920 83650MET006NOSIG?
0175039620999991987010511004+52683-008917SY-MT+0020EINN V0202801N00721006001CN0150001N1+00711+00431101651ADDAG12999AY181021AY211021GA1011+004209079GA2041+006009099GF107991061031004501031021MA1101591999999MD1110071+9999MW1801REMSYN035333   81714 84920 97182 97282 97482MET006NOSIG?
0190039620999991987010512004+52683-008917SY-MT+0020EINN V0202801N00771006601CN0250001N1+00801+00461101631ADDAA106000591AG10002AY181061AY211061GA1011+004509079GA2011+005409099GA3031+006609089GF107991071031004501031999MA1101591999999MD1010041+9999MW1801REMSYN023333   81715 81918 83822MET006NOSIG?
0157039620999991987010513004+52683-008917SY-MT+0020EINN V0202801N00771075001CN0400001N1+00801+00431101621ADDAG12001AY181011AY221011GA1021+006009089GA2041+075009009GF106991041081008001001021MA1101591999999MD1810011+9999MW1251REMSYN017333   82820 84075MET006NOSIG?
0165039620999991987010514004+52683-008917SY-MT+0020EINN V0202901N00821005401CN0200001N1+00791+00521101591ADDAG12001AY181021AY221021GA1011+004509079GA2041+005409099GF107991061031004501999021MA1101491999999MD1810051+9999MW1811OC101391REMSYN017333   81715 84918MET006NOSIG?
0157039620999991987010515004+52683-008917SY-MT+0020EINN V0202801N00671012001CN0300001N1+00761+00391101571ADDAG12001AY181031AY221031GA1021+004509079GA2041+012009059GF106991061081004501999021MA1101491999999MD1710061+9999MW1251REMSYN017333   82715 84640MET006NOSIG?
0078039620999991987010515304+52683-008917FM-15+0020EINN V0202901N00721006001CN0112001N1+00801+00401999999ADDAG12999GA1011+004509079GA2051+006009089MA1101491999999MW1251REMMET006NOSIG?
0160039620999991987010516004+52683-008917SY-MT+0020EINN V0202901N00871075001CN0300001N1+00771+00321101591ADDAG12001GA1011+004509079GA2031+006009089GF105991041081004501001021MA1101491999999MD1510031+9999MW1001REMSYN017333   81715 83820MET006NOSIG?EQDQ01+000000PRSWM2
0165039620999991987010517004+52683-008917SY-MT+0020EINN V0202901N00821006001CN0200001N1+00731+00381101631ADDAG12001AY181021AY211021GA1021+003909079GA2031+006009099GF106991061031004501999021MA1101591999999MD1310031+9999MW1801OC101491REMSYN017333   82713 83920MET006NOSIG?
0187039620999991987010518004+52683-008917SY-MT+0020EINN V0202901N00771220001CN0250001N1+00721+00341101681ADDAA199001091AG10001AY181061AY221061GA1011+006009099GA2031+006009089GF103991031031008001001001KA1120M+00821MA1101591999999MD1310101+9999MW1251REMSYN023333   10082 81920 83820MET006NOSIG?
0062039620999991987010518304+52683-008917FM-15+0020EINN V0202901N00721220001CN0112001N1+00701+00301999999ADDAG12999GA1021+006009099MA1101691999999MW1251REMMET006NOSIG?
0144039620999991987010519004+52683-008917SY-MT+0020EINN V0202901N00771220001CN0250001N1+00691+00161101761ADDAG12001AY181011AY211011GA1021+006009089GF104991031081008001001021MA1101691999999MD1310161+9999MW1251OC101341REMSYN011333   82820MET007NOSIG+?
0078039620999991987010519304+52683-008917FM-15+0020EINN V0202901N00621220001CN0112001N1+00601+00301999999ADDAG12999GA1011+004509079GA2041+006009099MA1101691999999MW1251REMMET006NOSIG?
0157039620999991987010520004+52683-008917SY-MT+0020EINN V0203101N00621220001CN0250001N1+00681+00271101821ADDAG12999AY181021AY211021GA1011+004509079GA2031+006009099GF103991031031004501001001MA1101801999999MD1210191+9999MW1251REMSYN017333   81715 83920MET006NOSIG?
0062039620999991987010520304+52683-008917FM-15+0020EINN V0202901N00511220001CN0112001N1+00701+00201999999ADDAG12001GA1011+006009099MA1101801999999MW1251REMMET006NOSIG?
0154039620999991987010521004+52683-008917SY-MT+0020EINN V0202901N00571220001CN0250001N1+00641+00171101881ADDAG12001AY181031AY211031GA1021+006009099GF103991031031008001001001MA1101801999999MD1210201+9999MW1021REMSYN011333   82920MET006NOSIG?EQDQ01+000000PRSWM2
0078039620999991987010521304+52683-008917FM-15+0020EINN V0203101N00721006001CN0112001N1+00701+00201999999ADDAG12999GA1021+003309079GA2041+006009099MA1101901999999MW1801REMMET006NOSIG?
0171039620999991987010522004+52683-008917SY-MT+0020EINN V0202901N00671220001CN0250001N1+00621+00281101911ADDAG12999AY181011AY211011GA1011+003309079GA2021+006009099GF103991031031004501001001GJ100369MA1101901999999MD1110151+9999MW1251REMSYN023333   81711 82920 94006MET006NOSIG?
0062039620999991987010522304+52683-008917FM-15+0020EINN V0202901N00361220001CN0112001N1+00601+00301999999ADDAG12999GA1011+006009099MA1101901999999MW1251REMMET006NOSIG?
0138039620999991987010523004+52683-008917SY-MT+0020EINN V0203001N00261220001CN0250001N1+00531+00231101981ADDAG12999GA1011+006009099GF101991011031008001001001MA1101901999999MD1210161+9999MW1001REMSYN011333   81920MET006NOSIG?EQDQ01+000000PRSWM2
0075039620999991987010523304+52683-008917FM-15+0020EINN V0203101N00361220001CN0112001N1+00501+00201999999ADDAG11000GA1011+006009099MA1101901999999REMMET006NOSIG?EQDQ01+000000PRSWM2
0165039620999991987010600004+52683-008917SY-MT+0020EINN V0203001N00461220001CN0250001N1+00561+00291102011ADDAA106000391AG10001AY181061AY211061GA1011+006009099GF101991011031008001001001MA1102001999999MD1210131+9999MW1031REMSYN011333   81920MET006NOSIG?EQDQ01+000000PRSWM2
0075039620999991987010600304+52683-008917FM-15+0020EINN V0202901N00211220001CN0112001N1+00601+00301999999ADDAG11999GA1011+006009089MA1102001999999REMMET006NOSIG?EQDQ01+000000PRSWM2
0138039620999991987010601004+52683-008917SY-MT+0020EINN V0202901N00211220001CN0300001N1+00501+00301102081ADDAG11001GA1011+006009059GF101991011051008001001001MA1102001999999MD1210171+9999MW1001REMSYN011333   81620MET006NOSIG?EQDQ01+000000PRSWM2
0075039620999991987010601304+52683-008917FM-15+0020EINN V0203001N00211220001CN0112001N1+00601+00301999999ADDAG11999GA1011+006009059MA1102001999999REMMET006NOSIG?EQDQ01+000000PRSWM2
0111039620999991987010602004+52683-008917SY-MT+0020EINN V0202901N00411220001CN0300001N1+00511+00261102111ADDAG11999GF100991001001999999001001MA1102101999999MD1210131+9999MW1001REMMET012CAVOK NOSIG?EQDQ01+000000PRSWM2
0065039620999991987010602304+52683-008917FM-15+0020EINN V0203001N00311999991CY0099001N1+00501+00301999999ADDAG12000MA1102101999999REMMET012CAVOK NOSIG?EQDQ01+000000PRSWM2
0111039620999991987010603004+52683-008917SY-MT+0020EINN V0203101N00151220001CN0300001N1+00451+00281102171ADDAG12000GF100991001001999999001001MA1102101999999MD1210161+9999MW1001REMMET012CAVOK NOSIG?EQDQ01+000000PRSWM2
0065039620999991987010603304+52683-008917FM-15+0020EINN V0209991C00001999991CY0099001N1+00401+00301999999ADDAG12999MA1102101999999REMMET012CAVOK NOSIG?EQDQ01+000000PRSWM2
0070039620999991987010604004+52683-008917FM-12+0020EINN V0209991C00001220001CN0300001N9+00351+00091102221ADDAG12999GF100991001001999999001001MD1210141+9999REMSYN011333   92000
0065039620999991987010604304+52683-008917FM-15+0020EINN V0202801N00101999991CY0099001N1+00301+00201999999ADDAG12999MA1102201999999REMMET012CAVOK NOSIG?EQDQ01+000000PRSWM2
0128039620999991987010605004+52683-008917SY-MT+0020EINN V0203001N00101220001CN0300001N1+00241+00141102261ADDAG12999GF100991001001999999001001MA1102201999999MD1210151+9999MW1001REMSYN011333   92000MET012CAVOK NOSIG?EQDQ01+000000PRSWM2
0075039620999991987010605304+52683-008917FM-15+0020EINN V0203001N00211220001CN0112001N1+00301+00101999999ADDAG12000GA1011+012009059MA1102201999999REMMET006NOSIG?EQDQ01+000000PRSWM2
0212039620999991987010606004+52683-008917SY-MT+0020EINN V0202901N00211220001CN0300001N1+00301+00111102331ADDAA199000391AG10000GA1021+009009059GF102991021051012501001001GJ100369IA1099IA2999-00309KA1120N+00201MA1102301999999MD1210161+9999MW1001REMSYN035333   20020 31103 82630 92000 94006MET006NOSIG?EQDQ01+000000PRSWM2
0075039620999991987010606304+52683-008917FM-15+0020EINN V0203001N00211220001CN0112001N1+00301+00101999999ADDAG12999GA1031+012009059MA1102301999999REMMET006NOSIG?EQDQ01+000000PRSWM2
0144039620999991987010607004+52683-008917SY-MT+0020EINN V0203201N00151220001CN0400001N1+00351+00121102371ADDAG12999GA1031+012009059GF103991031051012501001001MA1102301999999MD1210151+9999MW1001REMSYN017333   83640 92000MET006NOSIG?EQDQ01+000000PRSWM2
0166039620999991987010608004+52683-008917SY-MT+0020EINN V0203101N00101012001CN0400001N1+00381+00201102461ADDAG12001GA1011+007209089GA2031+010809059GF105991051081008001001001MA1102401999999MD1310201+9999MW1001REMSYN023333   81824 82636 92000MET006NOSIG?EQDQ01+000000PRSWM2
0163039620999991987010609004+52683-008917SY-MT+0020EINN V0202901N00051013501CN0300001N1+00361+00161102551ADDAG12001AY181031AY211031GA1031+006009089GA2041+013509059GF105991051081008001001001MA1102511999999MD1210221+9999MW1251REMSYN023333   83820 84645 97286MET006NOSIG?
0138039620999991987010610004+52683-008917SY-MT+0020EINN V0202701N00151220001CN0250001N1+00351+00231102611ADDAG12999GA1011+006909089GF101991011081008001041001MA1102611999999MD1210241+9999MW1001REMSYN011333   81823MET006NOSIG?EQDQ01+000000PRSWM2
0138039620999991987010611004+52683-008917SY-MT+0020EINN V0202901N00101220001CN0300001N1+00551+00341102691ADDAG12001GA1011+010509059GF101991011051012501001011MA1102611999999MD1210231+9999MW1001REMSYN011333   81635MET006NOSIG?EQDQ01+000000PRSWM2
0165039620999991987010612004+52683-008917SY-MT+0020EINN V0203101N00151220001CN0300001N1+00641+00301102711ADDAA106999929AG10001AY181061AY211061GA1011+010509059GF101991011051012501001011MA1102711999999MD1110161+9999MW1021REMSYN011333   81635MET006NOSIG?EQDQ01+000000PRSWM2
0138039620999991987010613004+52683-008917SY-MT+0020EINN V0203201N00101220001CN0300001N1+00721+00391102731ADDAG12001GA1011+010509059GF101991011051012501001011MA1102711999999MD1110121+9999MW1001REMSYN011333   81635MET006NOSIG?EQDQ01+000000PRSWM2
0138039620999991987010614004+52683-008917SY-MT+0020EINN V0203501N00151220001CN0400001N1+00751+00271102711ADDAG12999GA1011+010509059GF101991011051012501001011MA1102711999999MD1110031+9999MW1001REMSYN011333   81635MET006NOSIG?EQDQ01+000000PRSWM2
0160039620999991987010615004+52683-008917SY-MT+0020EINN V0203601N00151220001CN0400001N1+00761+00121102731ADDAG12000GA1011+006609089GA2031+075009009GF103991011081008001001021MA1102711999999MD1310031+9999MW1001REMSYN017333   81822 83075MET006NOSIG?EQDQ01+000000PRSWM2
0160039620999991987010616004+52683-008917SY-MT+0020EINN V0203301N00101075001CN0400001N1+00641+00201102791ADDAG12001GA1011+007509089GA2051+075009009GF105991011081008001001021MA1102711999999MD1310061+9999MW1001REMSYN017333   81825 85075MET006NOSIG?EQDQ01+000000PRSWM2
0160039620999991987010617004+52683-008917SY-MT+0020EINN V0203401N00101075001CN0300001N1+00531+00151102851ADDAG12999GA1011+013509059GA2041+075009009GF105991011051012501001021MA1102811999999MD1310131+9999MW1001REMSYN017333   81645 84075MET006NOSIG?EQDQ01+000000PRSWM2
0091039620999991987010617304+52683-008917FM-15+0020EINN V0209991C00001220001CN0112001N1+00401+00201999999ADDAG12000GA1011+013509059GA2041+075009009MA1102811999999REMMET006NOSIG?EQDQ01+000000PRSWM2
0180039620999991987010618004+52683-008917SY-MT+0020EINN V0203001N00101220001CN0300001N1+00391+00071102871ADDAA199999929AG10000GA1031+075009009GF103991001001999999001021KA1120M+00761MA1102811999999MD1210131+9999MW1001REMSYN023333   10076 83075 92000MET012CAVOK NOSIG?EQDQ01+000000PRSWM2
0065039620999991987010618304+52683-008917FM-15+0020EINN V0203301N00211999991CY0099001N1+00301+00101999999ADDAG12999MA1102811999999REMMET012CAVOK NOSIG?EQDQ01+000000PRSWM2
0150039620999991987010619004+52683-008917SY-MT+0020EINN V0203401N00151220001CN0300001N1+00291+00081102931ADDAG12001GA1021+075009009GF102991001001999999001021MA1102911999999MD1210141+9999MW1001REMSYN017333   82075 92000MET012CAVOK NOSIG?EQDQ01+000000PRSWM2
0065039620999991987010619304+52683-008917FM-15+0020EINN V0209991C00001999991CY0099001N1+00301+00101999999ADDAG12999MA1102911999999REMMET012CAVOK NOSIG?EQDQ01+000000PRSWM2
0150039620999991987010620004+52683-008917SY-MT+0020EINN V0200201N00051220001CN0250001N1+00241+00051102971ADDAG12999GA1021+075009009GF102991001001999999001021MA1102911999999MD1210121+9999MW1001REMSYN017333   82075 92000MET012CAVOK NOSIG?EQDQ01+000000PRSWM2
0065039620999991987010620304+52683-008917FM-15+0020EINN V0209991C00001999991CY0099001N1+00201+00001999999ADDAG12000MA1102911999999REMMET012CAVOK NOSIG?EQDQ01+000000PRSWM2
0150039620999991987010621004+52683-008917SY-MT+0020EINN V0209991C00001220001CN0150001N1+00061+00031103031ADDAG12000GA1011+075009009GF101991001001999999001021MA1103011999999MD1210161+9999MW1001REMSYN017333   81075 92000MET012CAVOK NOSIG?EQDQ01+000000PRSWM2
0065039620999991987010621304+52683-008917FM-15+0020EINN V0203101N00101999991CY0099001N1+00101+00001999999ADDAG12999MA1103011999999REMMET012CAVOK NOSIG?EQDQ01+000000PRSWM2
0158039620999991987010622004+52683-008917SY-MT+0020EINN V0203201N00101220001CN0200001N1+00141+00031103081ADDAG12999GA1011+075009009GF101991001001999999001021GJ103189MA1103011999999MD1210151+9999MW1001REMSYN017333   81075 94053MET012CAVOK NOSIG?EQDQ01+000000PRSWM2
0065039620999991987010622304+52683-008917FM-15+0020EINN V0203301N00151999991CY0099001N1+00201+00101999999ADDAG12999MA1103011999999REMMET012CAVOK NOSIG?EQDQ01+000000PRSWM2
0128039620999991987010623004+52683-008917SY-MT+0020EINN V0203501N00101220001CN0200001N1+00081-00031103121ADDAG12001GF100991001001999999001001MA1103121999999MD1210151+9999MW1001REMSYN011333   92000MET012CAVOK NOSIG?EQDQ01+000000PRSWM2
0065039620999991987010623304+52683-008917FM-15+0020EINN V0201101N00051999991CY0099001N1+00101+00001999999ADDAG12000MA1103121999999REMMET012CAVOK NOSIG?EQDQ01+000000PRSWM2
0103039620999991987010700004+52683-008917FM-12+0020EINN V0200301N00101220001CN0200001N9+00141+00001103171ADDAA106999929AG10000GA1021+075009009GF102991001001999999001021MD1210141+9999REMSYN017333   82075 92000
0065039620999991987010700304+52683-008917FM-15+0020EINN V0203501N00101999991CY0099001N1+00001-00101999999ADDAG11999MA1103121999999REMMET012CAVOK NOSIG?EQDQ01+000000PRSWM2
0150039620999991987010701004+52683-008917SY-MT+0020EINN V0203601N00101220001CN0150001N1+00001-00091103181ADDAG11999GA1011+027009039GF102991011001999999031021MA1103121999999MD1110101+9999MW1001REMSYN017333   81359 92000MET012CAVOK NOSIG?EQDQ01+000000PRSWM2
0065039620999991987010701304+52683-008917FM-15+0020EINN V0200201N00101999991CY0099001N1+00001-00101999999ADDAG11999MA1103121999999REMMET012CAVOK NOSIG?EQDQ01+000000PRSWM2
0128039620999991987010702004+52683-008917SY-MT+0020EINN V0200101N00151220001CN0150001N1-00051-00141103181ADDAG11999GF100991001001999999001001MA1103121999999MD1110061+9999MW1001REMSYN011333   92000MET012CAVOK NOSIG?EQDQ01+000000PRSWM2
0065039620999991987010702304+52683-008917FM-15+0020EINN V0200301N00051999991CY0099001N1+00001-00201999999ADDAG12000MA1103121999999REMMET012CAVOK NOSIG?EQDQ01+000000PRSWM2
0128039620999991987010703004+52683-008917SY-MT+0020EINN V0200301N00051220001CN0200001N1-00101-00221103191ADDAG12000GF100991001001999999001001MA1103121999999MD1110021+9999MW1001REMSYN011333   92000MET012CAVOK NOSIG?EQDQ01+000000PRSWM2
0065039620999991987010703304+52683-008917FM-15+0020EINN V0209991C00001999991CY0099001N1-00101-00301999999ADDAG11999MA1103181999999REMMET012CAVOK NOSIG?EQDQ01+000000PRSWM2
0128039620999991987010704004+52683-008917SY-MT+0020EINN V0209991C00001220001CN0200001N1-00141-00231103201ADDAG12999GF100991001001999999001001MA1103121999999MD1010021+9999MW1001REMSYN011333   92011MET012CAVOK NOSIG?EQDQ01+000000PRSWM2
0065039620999991987010704304+52683-008917FM-15+0020EINN V0209991C00001999991CY0099001N1-00201-00301999999ADDAG11999MA1103121999999REMMET012CAVOK NOSIG?EQDQ01+000000PRSWM2
0151039620999991987010705004+52683-008917SY-MT+0020EINN V0203301N00051220001CN0080001N1-00161-00251103211ADDAG12999AY101021AY201021GF100991001001999999001001MA1103181999999MD1210031+9999MW1401REMSYN023333   92012 97170 97470MET026VIS 10KM TO NE N NW NOSIG?
0128039620999991987010705304+52683-008917FM-15+0020EINN V0209991C00001220001CN0006001N1-00201-00301999999ADDAG12000GA1011+000309079MA1103181999999MW1461REMMET053VIS 10KM  TO SE S SW         ?     GRADU 0400 5ST001?EQDQ01+000472PRSWM2
0257039620999991987010706004+52683-008917SY-MT+0020EINN V0209991C00001220001CN0003001N1-00191-00281103211ADDAA199999929AG10000AY141061AY201061GA1011+000309079GF101991011061000251001001GJ103189IA1149IA2999-00809KA1120N-00251MA1103181999999MD1010021+9999MW1461REMSYN041333   21025 34108 81701 92012 90455 94053MET013GRADU 5ST001?EQDQ01+000472PRSWM1Q02+000472PRSWM2
0169039620999991987010707004+52683-008917SY-MT+0020EINN V0209991C00001220001CN0050001N1-00251-00351103231ADDAG12999AY141011AY201011GA1011+000309079GF101991011061000251001001MD1210031+9999MW1281REMSYN023333   81701 92012 90556MET02410032 TEMPO 0400 3ST001?EQDQ01+000000PRSWM2
0152039620999991987010708004+52683-008917SY-MT+0020EINN V0200901N00101220001CN0002001N1-00251-00291103241ADDAG12999AY141021AY201021GA1031+000309079GF103991031061000251001001MA1103181999999MD1210031+9999MW1461REMSYN023333   83701 92012 90482MET011TEMPO 1200?
0146039620999991987010709004+52683-008917SY-MT+0020EINN V0200601N00101220001CN0002001N1-00401-00451103281ADDAG12000AY141031AY201031GA1021+000309079GF102991021061000251001001MA1103181999999MD1210061+9999MW1441REMSYN017333   82701 92012MET011GRADU 3000?
0139039620999991987010710004+52683-008917SY-MT+0020EINN V0209991C00001220001CN0001001N1-00291-00331103291ADDAG12999AY141011AY201011GA1021+000309079GF102991021061000251001001MA1103181999999MD1210051+9999MW1461REMSYN011333   82701MET010TEND 0700?
0052039620999991987010710304+52683-008917FM-15+0020EINN V0209991C00001220001CN0030001N1-00201-00201999999ADDAG12999MA1103181999999MW1101REMMET012GRADU CAVOK?
0130039620999991987010711004+52683-008917SY-MT+0020EINN V0200601N00101220001CN0030001N1-00081-00241103271ADDAG12999AY141021AY201021GF100991001001999999001001MA1103181999999MD1010021+9999MW1101MW2281REMSYN017333   97258 97358MET0058 V ?
0138039620999991987010712004+52683-008917SY-MT+0020EINN V0201001N00511220001CN0150001N1+00121-00241103201ADDAA106999929AG10000AY101061AY201061GF100991001001999999001001MA1103121999999MD1810071+9999MW1101REMMET012CAVOK NOSIG?EQDQ01+000000PRSWM2
0072039620999991987010713004+52683-008917FM-12+0020EINN V0201201N00361220001CN0150001N9+00281-00101103181ADDAG12001AY101011AY201011GF100991001001999999001001MD1610101+9999MW1101
0177039620999991987010714004+52683-008917SY-MT+0020EINN V0201001N00361220001CN0180001N1+00351+00001103121ADDAG12001AY101021AY201021GA1011+015009059GF101991011051017501999001MA1103121999999MD1710141+9999MW1101REMSYN011333   81650MET013CAVOK NO SIG?EQDQ01+000000PRSWM2Q02    003SCOMCG
0161039620999991987010715004+52683-008917SY-MT+0020EINN V0201001N00361015001CN0180001N1+00311-00111103071ADDAG12000AY111031AY211031GA1061+015009059GF106991061051017501999999MA1103011999999MD1810131+9999MW1101REMSYN011333   86650MET013CAVOK NO SIG?EQDQ01+000000PRSWM2
0161039620999991987010716004+52683-008917SY-MT+0020EINN V0201101N00361015001CN0180001N1+00311-00051103051ADDAG12999AY121011AY221011GA1071+015009059GF107991071051017501999999MA1103011999999MD1610131+9999MW1101REMSYN011333   87650MET013CAVOK NO SIG?EQDQ01+000000PRSWM2
0135039620999991987010717004+52683-008917SY-MT+0020EINN V0201101N00361220001CN0120001N1+00281-00051103011ADDAG12001AY111021AY211021GA1031+012609059GF104991031051012501001021MA1102911999999MD1710111+9999MW1101REMSYN011333   83642MET006NOSIG?
0078039620999991987010717304+52683-008917FM-15+0020EINN V0201101N00411015001CN0112001N1+00301-00101999999ADDAG12000GA1031+011409059GA2051+015009059MA1102911999999MW1101REMMET006NOSIG?
0165039620999991987010718004+52683-008917SY-MT+0020EINN V0201101N00461220001CN0150001N1+00261+00091102961ADDAA199999929AG10000AY111061AY211061GA1041+012009059GF104991041051012501001001KA1120M+00361MA1102911999999MD1710111+9999MW1101REMSYN017333   10036 84640MET006NOSIG?
0075039620999991987010718304+52683-008917FM-15+0020EINN V0201101N00461220001CN0112001N1+00201+00001999999ADDAG12999GA1021+012009059MA1102911999999REMMET006NOSIG?EQDQ01+000000PRSWM2
0154039620999991987010719004+52683-008917SY-MT+0020EINN V0201101N00411220001CN0150001N1+00221+00001102941ADDAG12001AY101011AY201011GA1031+010809059GF103991031051012501001001MA1102911999999MD1710111+9999MW1101REMSYN011333   83636MET006NOSIG?EQDQ01+000000PRSWM2
0062039620999991987010719304+52683-008917FM-15+0020EINN V0201101N00511220001CN0112001N1+00201+00001999999ADDAG12999GA1021+012009059MA1102911999999MW1101REMMET006NOSIG?
0141039620999991987010720004+52683-008917SY-MT+0020EINN V0201101N00411220001CN0150001N1+00191-00011102891ADDAG12001AY101021AY201021GA1021+012009059GF102991021051012501001001MA1102811999999MD1710121+9999MW1101REMSYN017333   82640 92000MET006NOSIG?
0062039620999991987010720304+52683-008917FM-15+0020EINN V0201101N00511220001CN0112001N1+00201+00001999999ADDAG12000GA1041+011409059MA1102811999999MW1101REMMET006NOSIG?
0135039620999991987010721004+52683-008917SY-MT+0020EINN V0201201N00361010801CN0150001N1+00191-00061102871ADDAG12000AY111031AY211031GA1061+010809059GF106991061051012501999999MA1102811999999MD1610091+9999MW1101REMSYN011333   86636MET006NOSIG?
0062039620999991987010721304+52683-008917FM-15+0020EINN V0201101N00411010501CN0112001N1+00201+00001999999ADDAG12999GA1061+010509059MA1102811999999MW1101REMMET006NOSIG?
0168039620999991987010722004+52683-008917SY-MT+0020EINN V0201101N00361010501CN0150001N1+00251-00021102821ADDAG12001AY121011AY221011GA1071+010509059GF107991071051012501999999GJ101809MA1102811999999MD1710121+9999MW1101REMSYN017333   87635 94030MET006NOSIG?EQDQ01+000000PRSWM2
0075039620999991987010722304+52683-008917FM-15+0020EINN V0201201N00461011401CN0112001N1+00301+00001999999ADDAG12999GA1071+011409059MA1102711999999REMMET006NOSIG?EQDQ01+000000PRSWM2
0138039620999991987010723004+52683-008917SY-MT+0020EINN V0201101N00411012001CN0250001N1+00291+00051102781ADDAG12999GA1071+012009059GF107991071051012501999999MA1102711999999MD1710111+9999MW1001REMSYN011333   87640MET006NOSIG?EQDQ01+000000PRSWM2
0091039620999991987010723304+52683-008917FM-15+0020EINN V0201201N00461012301CN0112001N1+00301+00001999999ADDAG11000GA1031+010509059GA2071+012309059MA1102711999999REMMET006NOSIG?EQDQ01+000000PRSWM2
0171039620999991987010800004+52683-008917SY-MT+0020EINN V0201101N00461012601CN0250001N1+00301-00111102761ADDAA106999929AG10000GA1021+010509059GA2071+012609059GF107991071051012501999999MA1102711999999MD1710111+9999MW1001REMSYN017333   82635 87642MET006NOSIG?EQDQ01+000000PRSWM2
0091039620999991987010800304+52683-008917FM-15+0020EINN V0201201N00461012301CN0112001N1+00401+00001999999ADDAG11999GA1031+010509059GA2071+012309059MA1102711999999REMMET006NOSIG?EQDQ01+000000PRSWM2
0138039620999991987010801004+52683-008917SY-MT+0020EINN V0201401N00411011701CN0250001N1+00451-00031102691ADDAG11999GA1071+011709059GF107991071051012501999999MA1102611999999MD1810131+9999MW1001REMSYN011333   87639MET006NOSIG?EQDQ01+000000PRSWM2
0075039620999991987010801304+52683-008917FM-15+0020EINN V0201401N00621012001CN0112001N1+00501+00001999999ADDAG11999GA1071+012009059MA1102611999999REMMET006NOSIG?EQDQ01+000000PRSWM2
0160039620999991987010802004+52683-008917SY-MT+0020EINN V0201301N00511012001CN0300001N1+00501+00001102641ADDAG11001GA1011+009009059GA2071+012009059GF107991071051012501999999MA1102611999999MD1710141+9999MW1001REMSYN017333   81630 87640MET006NOSIG?EQDQ01+000000PRSWM2
0075039620999991987010802304+52683-008917FM-15+0020EINN V0201301N00511011701CN0112001N1+00501+00001999999ADDAG11000GA1071+011709059MA1102611999999REMMET006NOSIG?EQDQ01+000000PRSWM2
0160039620999991987010803004+52683-008917SY-MT+0020EINN V0201201N00461012001CN0300001N1+00451+00001102591ADDAG12000GA1031+009909059GA2071+012009059GF107991071051012501999999MA1102511999999MD1710171+9999MW1001REMSYN017333   83633 87640MET006NOSIG?EQDQ01+000000PRSWM2
0091039620999991987010803304+52683-008917FM-15+0020EINN V0201201N00571015001CN0112001N1+00401+00001999999ADDAG11999GA1031+009909059GA2061+015009059MA1102511999999REMMET006NOSIG?EQDQ01+000000PRSWM2
0156039620999991987010804004+52683-008917SY-MT+0020EINN V0201201N00461030001CN0300001N1+00421-00011102501ADDAG12001GA1031+015009059GF108991031051017501071061MA1102401999999MD1710191+9999MW1001REMSYN023333   83650 85460 87270MET012CAVOK NOSIG?EQDQ01+000000PRSWM2
0091039620999991987010804304+52683-008917FM-15+0020EINN V0201301N00461012001CN0112001N1+00401+00001999999ADDAG12999GA1051+012009059GA2081+027009049MA1102401999999REMMET006NOSIG?EQDQ01+000000PRSWM2
0160039620999991987010805004+52683-008917SY-MT+0020EINN V0201201N00461013801CN0300001N1+00431+00041102431ADDAG12001GA1051+013809059GA2081+027009049GF108991051051012501071999MA1102401999999MD1710211+9999MW1001REMSYN017333   85646 88459MET006NOSIG?EQDQ01+000000PRSWM2
0228039620999991987010806004+52683-008917SY-MT+0020EINN V0201301N00511027001CN0300001N1+00411+00071102321ADDAA199999929AG10000GA1031+013509059GA2061+027009049GF107991031051012501071999GJ101809IA1099IA2999-00109KA1120N+00181MA1102301999999MD1710271+9999MW1001REMSYN035333   20018 31101 83645 86459 94030MET006NOSIG?EQDQ01+000000PRSWM2
0160039620999991987010807004+52683-008917SY-MT+0020EINN V0201101N00361012001CN0300001N1+00441+00101102251ADDAG12001GA1051+012009059GA2061+027009049GF107991051051012501071999MA1102201999999MD1710251+9999MW1001REMSYN017333   85640 86459MET006NOSIG?EQDQ01+000000PRSWM2
0160039620999991987010808004+52683-008917SY-MT+0020EINN V0201401N00821027001CN0300001N1+00511+00041102171ADDAG12999GA1021+011109059GA2041+027009039GF107991021051012501071021MA1102101999999MD1710261+9999MW1001REMSYN017333   82637 84359MET006NOSIG?EQDQ01+000000PRSWM2
0160039620999991987010809004+52683-008917SY-MT+0020EINN V0201501N00571011101CN0250001N1+00541+00051102161ADDAG12000GA1051+011109059GA2071+060009029GF107991051051012501031061MA1102101999999MD1710161+9999MW1001REMSYN017333   85637 87270MET006NOSIG?EQDQ01+000000PRSWM2
0091039620999991987010809304+52683-008917FM-15+0020EINN V0201501N00621010801CN0112001N1+00501+00101999999ADDAG12999GA1051+010809059GA2071+060009029MA1102101999999REMMET006NOSIG?EQDQ01+000000PRSWM2
0108039620999991987010810004+52683-008917FM-12+0020EINN V0201401N00621010801CN0300001N9+00571+00111102101ADDAG12999GA1051+010809059GA2031+027009039GF107991051051012501031021MD1710151+9999REMSYN017333   85636 83359
0138039620999991987010811004+52683-008917SY-MT+0020EINN V0201301N00511010801CN0240001N1+00601+00091102081ADDAG12001GA1071+010809059GF107991071051012501999999MA1102001999999MD1710091+9999MW1001REMSYN011333   87636MET006NOSIG?EQDQ01+000000PRSWM2
0193039620999991987010812004+52683-008917SY-MT+0020EINN V0201401N00621010501CN0300001N1+00621+00051101981ADDAA106000091AG14000GA1011+005409079GA2071+010509059GA3051+027009039GF108991071051004501071999MA1101901999999MD1710181+9999MW1001REMSYN023333   81718 87635 85359MET006NOSIG?EQDQ01+000000PRSWM2
0201039620999991987010813004+52683-008917SY-MT+0020EINN V0201401N00821010801CN0300001N1+00631+00101101851ADDAG12999GA1011+005409079GA2051+010809059GA3071+027009049GF108991061051004501071999MA1101801999999MD1810251+9999MW1001REMSYN023333   81718 86635 87359MET025GRADU 8000 8SC020      ??EQDQ01+000000PRSWM2
0172039620999991987010814004+52683-008917SY-MT+0020EINN V0201401N00871027001CN0300001N1+00631+00071101691ADDAG12999GA1041+011409059GA2081+027009049GF108991041051012501071999MA1101591999999MD1710391+9999MW1001REMSYN017333   84638 88459MET018GRADU 8000 8SC020?EQDQ01+000000PRSWM2
0172039620999991987010815004+52683-008917SY-MT+0020EINN V0201401N00821024001CN0250001N1+00621+00051101581ADDAG12000GA1031+012009059GA2081+024009049GF108991031051012501071999MA1101491999999MD1710401+9999MW1001REMSYN017333   83640 88458MET018GRADU 8000 8SC020?EQDQ01+000000PRSWM2
0201039620999991987010816004+52683-008917SY-MT+0020EINN V0201301N00871018001CN0200001N1+00591+00051101471ADDAG12001GA1021+012009059GA2051+018009059GA3081+024009049GF108991061051012501071999MA1101391999999MD1710381+9999MW1001REMSYN023333   82640 85656 88458MET025GRADU 8000 8SC020      ??EQDQ01+000000PRSWM2
0126039620999991987010816304+52683-008917FM-15+0020EINN V0201301N00931018001CN0112001N1+00601+00101999999ADDAG12999GA1031+012009059GA2041+018009059GA3081+024009049MA1101291999999REMMET025GRADU 8000 8SC020      ??EQDQ01+000000PRSWM2
0201039620999991987010817004+52683-008917SY-MT+0020EINN V0201301N00871018001CN0180001N1+00581+00071101361ADDAG12999GA1021+010809059GA2051+018009059GA3081+024009049GF108991061051012501071999MA1101291999999MD1710331+9999MW1001REMSYN023333   82636 85656 88458MET025GRADU 8000 8SC020      ??EQDQ01+000000PRSWM2
0224039620999991987010818004+52683-008917SY-MT+0020EINN V0201401N00821009001CN0160001N1+00591+00111101311ADDAA106000091AG14000GA1021+007209059GA2051+009009059GA3081+024009049GF108991061051008001071999KA1120M+00641MA1101291999999MD1710271+9999MW1001REMSYN029333   10064 82624 85630 88458MET018GRADU 8000 8SC020?EQDQ01+000000PRSWM2
0111039620999991987010818304+52683-008917FM-15+0020EINN V0201401N00771006001CN0112001N1+00601+00201999999ADDAG12999GA1051+006009059GA2081+009009059MA1101191999999OC101341REMMET018TEMPO 8000 5ST015?EQDQ01+000000PRSWM2
0191039620999991987010819004+52683-008917SY-MT+0020EINN V0201301N00821005401CN0120001N1+00531+00231101221ADDAG12001AY161011AY221011GA1021+003609079GA2051+005409079GA3081+009009059GF108991081061004501999999MA1101191999999MD1710251+9999MW1601REMSYN023333   82712 85718 88630MET018TEMPO 8000 5ST010?
0106039620999991987010819304+52683-008917FM-15+0020EINN V0201401N00931007501CN0112001N1+00501+00201999999ADDAG12999GA1021+004209079GA2061+007509059GA3081+024009049MA1101081999999MW1211REMMET018TEMPO 8000 5ST010?
0199039620999991987010820004+52683-008917SY-MT+0020EINN V0201401N01031024001CN0160001N1+00481+00201101091ADDAG12999AY161021AY221021GA1011+004209079GA2031+007509059GA3081+024009049GF108991031051004501071999MA1101021999999MD1710271+9999MW1211OC101601REMSYN023333   81714 83625 88458MET018TEMPO 8000 5ST010?
0127039620999991987010820304+52683-008917FM-15+0020EINN V0201401N00821009001CN0112001N1+00501+00201999999ADDAG12000GA1011+004209079GA2041+006009059GA3071+009009059MA1101021999999OC101391REMMET018TEMPO 8000 5ST010?EQDQ01+000000PRSWM2
0210039620999991987010821004+52683-008917SY-MT+0020EINN V0201401N01031005401CN0160001N1+00511+00181101001ADDAG12001AY161031AY221031GA1031+004209079GA2061+005409079GA3081+009009059GF108991081061004501999999MA1100911999999MD1710311+9999MW1021REMSYN023333   83714 86718 88630MET018TEMPO 8000 5ST010?EQDQ01+000000PRSWM2
0114039620999991987010821304+52683-008917FM-15+0020EINN V0201401N00981005101CN0112001N1+00501+00201999999ADDAG12999GA1021+004209079GA2051+005109079GA3081+007509059MA1100911999999MW1601OC101491REMMET018TEMPO 8000 5ST010?
0194039620999991987010822004+52683-008917SY-MT+0020EINN V0201401N01031004801CN0200001N1+00511+00211100881ADDAG12001AY161011AY221011GA1061+004809079GA2081+012009059GF108991081061004501999999GJ100009MA1100811999999MD1710341+9999MW1211REMSYN023333   86716 88630 94000MET029TEMPO      ?     8000 5ST010?
0101039620999991987010822304+52683-008917FM-15+0020EINN V0201301N00771005401CN0112001N1+00501+00301999999ADDAG12999GA1061+005409079GA2081+009009059MA1100811999999MW1211REMMET029TEMPO      ?     8000 5ST010?
0180039620999991987010823004+52683-008917SY-MT+0020EINN V0201301N00671005101CN0200001N1+00511+00261100831ADDAG12001AY161021AY221021GA1031+004209079GA2081+005109079GF108991081061004501999999MA1100811999999MD1610261+9999MW1601REMSYN017333   83714 88717MET029TEMPO      ?     8000 5ST010?
0101039620999991987010823304+52683-008917FM-15+0020EINN V0201401N00671004801CN0112001N1+00501+00301999999ADDAG12003GA1061+004809079GA2081+009009059MA1100711999999MW1211REMMET029TEMPO      ?     8000 5ST010?
0175039620999991987010900004+52683-008917SY-MT+0020EINN V0201401N00671004801CN0200001N1+00561+00371100751ADDAA106999929AG10001AY161061AY221061GA1061+004809079GA2081+007509059GF108991081061004501999999MA1100711999999MD1710251+9999MW1601REMSYN017333   86716 88625MET013TEMPO 5ST012?
0106039620999991987010900304+52683-008917FM-15+0020EINN V0201301N00721004501CN0112001N1+00601+00401999999ADDAG11999GA1011+003009079GA2061+004509079GA3071+007509059MA1100611999999MW1601REMMET018TEMPO 8000 6ST010?
0169039620999991987010901004+52683-008917SY-MT+0020EINN V0201301N00721004201CN0250001N1+00571+00361100651ADDAG12001AY161011AY221011GA1061+004209079GA2071+007509059GF108991081061004501999999MA1100611999999MD1710231+9999MW1211REMSYN017333   86714 87625MET018TEMPO 8000 6ST010?
0067039620999991987010901304+52683-008917FM-15+0020EINN V0201301N00621003001CN0112001N1+00601+00401999999ADDAG11999GA1081+003009079MA1100611999999MW1211REMMET011TEMPO 8000?
0193039620999991987010902004+52683-008917SY-MT+0020EINN V0201301N00511003301CN0160001N1+00581+00441100561ADDAG12001AY161021AY221021GA1021+002709079GA2061+003309079GA3071+006609059GF108991081061002501999999MA1100511999999MD1710271+9999MW1211REMSYN023333   82709 86711 87622MET020GRADU 3ST012 6SC020?
0121039620999991987010902304+52683-008917FM-15+0020EINN V0201301N00511003601CN0112001N1+00601+00501999999ADDAG12000GA1031+002709079GA2051+003609079GA3071+009009059MA1100511999999REMMET020GRADU 3ST012 7SC020?EQDQ01+000000PRSWM2
0193039620999991987010903004+52683-008917SY-MT+0020EINN V0201301N00361003601CN0200001N1+00621+00481100511ADDAG12001AY161031AY221031GA1021+002709079GA2051+003609079GA3071+008109059GF108991081061002501999999MA1100511999999MD1710241+9999MW1211REMSYN023333   82709 85712 87627MET020GRADU 3ST012 6SC020?
0134039620999991987010903304+52683-008917FM-15+0020EINN V0201401N00311004201CN0050001N1+00601+00501999999ADDAG12999GA1021+002709079GA2051+004209079GA3081+007509059MA1100411999999MW1601REMMET046VIS 9999         ?     TO NW NE SE GRADU 9999?
0210039620999991987010904004+52683-008917SY-MT+0020EINN V0201501N00261002401CN0070001N1+00631+00561100471ADDAG12999AY161011AY251011GA1021+001509079GA2041+002409079GA3081+003309079GF108991081071001501999999MA1100411999999MD1710181+9999MW1501REMSYN023333   82705 84708 88711MET037GRADU 9999       ?     3ST012 6SC020?
0119039620999991987010904304+52683-008917FM-15+0020EINN V0201801N00211004201CN0112001N1+00701+00601999999ADDAG12999GA1011+002109079GA2041+003009079GA3081+004209079MA1100411999999MW1601REMMET031GRADU      ?     3ST012 7SC020?
0152039620999991987010905004+52683-008917FM-12+0020EINN V0202001N00211003001CN0250001N9+00671+00601100451ADDAG12999AY161021AY251021GA1011+002109079GA2051+003009079GA3081+007509059GF108991081061002501999999MD1610111+9999MW1211REMSYN023333   81707 85710 88625
0078039620999991987010905304+52683-008917FM-15+0020EINN V0202001N00261010501CN0112001N1+00701+00501999999ADDAG12003GA1011+003009079GA2051+010509059MA1100411999999MW1211REMMET006NOSIG?
0230039620999991987010906004+52683-008917SY-MT+0020EINN V0202301N00311220001CN0250001N1+00641+00551100451ADDAA199000591AG10001AY161061AY251061GA1011+003009079GA2031+010509059GF103991031051004501001001GJ100009IA1099IA2999+00309KA1120N+00461MA1100411999999MD1510061+9999MW1211REMSYN035333   20046 31003 81710 83635 94000MET011TEMPO 8000?
0162039620999991987010907004+52683-008917SY-MT+0020EINN V0202301N00311220001CN0300001N1+00611+00501100451ADDAG12001AY181011AY211011GA1011+004509079GA2031+006009089GF103991031081004501001001MA1100411999999MD1510021+9999MW1801REMSYN017333   81715 83820MET011TEMPO 8000?
0083039620999991987010907304+52683-008917FM-15+0020EINN V0202301N00361006001CN0112001N1+00601+00501999999ADDAG12999GA1021+004509079GA2041+006009089MA1100411999999MW1801REMMET011TEMPO 8000?
0165039620999991987010908004+52683-008917SY-MT+0020EINN V0202301N00411006001CN0300001N1+00551+00461100481ADDAG12001AY181021AY211021GA1011+004509079GA2041+006009089GF105991051081004501001001MA1100411999999MD1310031+9999MW1801REMSYN017333   81715 84820MET014N  TEMPO 8000?
0078039620999991987010908304+52683-008917FM-15+0020EINN V0202301N00411220001CN0112001N1+00601+00501999999ADDAG12001GA1011+006009089GA2031+010509059MA1100411999999MW1251REMMET006NOSIG?
0135039620999991987010909004+52683-008917SY-MT+0020EINN V0202101N00461220001CN0300001N1+00561+00451100511ADDAG12001AY181031AY211031GA1021+006009099GF103991031031008001001001MA1100511999999MD1310061+9999MW1251REMSYN011333   82920MET006NOSIG?
0157039620999991987010910004+52683-008917SY-MT+0020EINN V0202401N00311006001CN0300001N1+00611+00451100551ADDAG12001AY181011AY211011GA1021+004509079GA2031+006009099GF107991071031004501999999MA1100511999999MD1210101+9999MW1801REMSYN017333   82715 83920MET006NOSIG?
0078039620999991987010910304+52683-008917FM-15+0020EINN V0202301N00511006001CN0112001N1+00601+00501999999ADDAG12999GA1031+004509079GA2041+006009099MA1100511999999MW1801REMMET006NOSIG?
0157039620999991987010911004+52683-008917SY-MT+0020EINN V0202301N00571006601CN0300001N1+00631+00471100571ADDAG12001AY181021AY221021GA1021+004209079GA2031+006609099GF105991051031004501999999MA1100511999999MD1210091+9999MW1251REMSYN017333   82714 83922MET006NOSIG?
0078039620999991987010911304+52683-008917FM-15+0020EINN V0202401N00411220001CN0112001N1+00701+00501999999ADDAG12001GA1011+004209079GA2031+006609099MA1100511999999MW1251REMMET006NOSIG?
0168039620999991987010912004+52683-008917SY-MT+0020EINN V0202601N00461006601CN0300001N1+00701+00571100581ADDAA106001091AG10002AY181061AY211061GA1021+004209079GA2041+006609099GF106991061031004501999999MA1100511999999MD1110071+9999MW1801REMSYN017333   82714 84922MET006NOSIG?
0130039620999991987010913004+52683-008917FM-12+0020EINN V0202501N00261006601CN0300001N9+00681+00471100561ADDAG12999AY181011AY221011GA1021+004209079GA2031+006609099GF105991051031004501001021MD1010011+9999MW1251REMSYN017333   82714 83922
0157039620999991987010914004+52683-008917SY-MT+0020EINN V0202701N00461006001CN0200001N1+00711+00501100551ADDAG12001AY181021AY221021GA1021+003609079GA2041+006009099GF105991051031004501999999MA1100511999999MD1810021+9999MW1251REMSYN017333   82712 84920MET006NOSIG?
0157039620999991987010915004+52683-008917SY-MT+0020EINN V0202701N00411006601CN0300001N1+00721+00541100531ADDAG12002AY181031AY221031GA1021+004809079GA2041+006609099GF106991061091004501999999MA1100511999999MD1710051+9999MW1801REMSYN017333   82716 84922MET006NOSIG?
0078039620999991987010915304+52683-008917FM-15+0020EINN V0202601N00361006601CN0112001N1+00601+00501999999ADDAG12999GA1031+004209079GA2051+006609099MA1100511999999MW1251REMMET006NOSIG?
0157039620999991987010916004+52683-008917SY-MT+0020EINN V0202801N00571006601CN0150001N1+00621+00461100561ADDAG12001AY181011AY221011GA1031+004209079GA2051+006609099GF107991071091004501999999MA1100511999999MD1510001+9999MW1801REMSYN017333   83714 85922MET006NOSIG?
0179039620999991987010917004+52683-008917SY-MT+0020EINN V0202901N00461006601CN0200001N1+00591+00381100581ADDAG12001AY181021AY221021GA1011+001509079GA2031+003009079GA3071+006609099GF107991071091001501999999MA1100511999999MD1310031+9999MW1811REMSYN023333   81705 83710 87922MET006NOSIG?
0094039620999991987010917304+52683-008917FM-15+0020EINN V0202901N00261003601CN0112001N1+00601+00501999999ADDAG12004GA1021+002109079GA2031+003609079GA3051+006009099MA1100511999999MW1801REMMET006NOSIG?
0209039620999991987010918004+52683-008917SY-MT+0020EINN V0202701N00411004201CN0200001N1+00571+00411100611ADDAA199004091AG10003AY181061AY221061GA1021+002709079GA2031+004209079GA3051+007209099GF107991071091002501999999KA1120M+00791MA1100611999999MD1210081+9999MW1811REMSYN029333   10079 82709 83714 85924MET006NOSIG?
0078039620999991987010918304+52683-008917FM-15+0020EINN V0202901N00261006901CN0112001N1+00601+00501999999ADDAG12999GA1021+003909079GA2051+006909099MA1100611999999MW1801REMMET006NOSIG?
0179039620999991987010919004+52683-008917SY-MT+0020EINN V0202801N00361006901CN0200001N1+00571+00461100631ADDAG12001AY181011AY221011GA1021+004209079GA2031+006909099GA3051+012009059GF107991071031004501999999MA1100611999999MD1110071+9999MW1251REMSYN023333   82714 83923 85640MET006NOSIG?
0078039620999991987010919304+52683-008917FM-15+0020EINN V0202801N00261006601CN0112001N1+00501+00401999999ADDAG12999GA1031+003909079GA2051+006609099MA1100611999999MW1801REMMET006NOSIG?
0179039620999991987010920004+52683-008917SY-MT+0020EINN V0202601N00151010501CN0200001N1+00531+00461100641ADDAG12001AY181021AY221021GA1011+004209079GA2031+006609099GA3051+010509059GF107991071031004501999999MA1100611999999MD1110061+9999MW1801REMSYN023333   81714 83922 85635MET006NOSIG?
0078039620999991987010920304+52683-008917FM-15+0020EINN V0202501N00261010501CN0112001N1+00501+00401999999ADDAG12001GA1031+006009099GA2041+010509059MA1100611999999MW1251REMMET006NOSIG?
0157039620999991987010921004+52683-008917SY-MT+0020EINN V0202501N00261012601CN0300001N1+00451+00331100681ADDAG12001AY181031AY221031GA1021+006909099GA2061+012609059GF107991071031008001999999MA1100611999999MD1310071+9999MW1251REMSYN017333   82923 86642MET006NOSIG?
0092039620999991987010921304+52683-008917FM-15+0020EINN V0202601N00211012901CN0112001N1+00501+00401999999ADDAG12999GA1021+006909089GA2051+012909059MA1100611999999REMMET007NOXSIG?EQDQ01+000000PRSWM2
0160039620999991987010922004+52683-008917SY-MT+0020EINN V0202301N00261013501CN0300001N1+00491+00341100721ADDAG12999GA1011+006909089GA2051+013509059GF105991051081008001999999MA1100711999999MD1310091+9999MW1001REMSYN017333   81823 85645MET006NOSIG?EQDQ01+000000PRSWM2
0075039620999991987010922304+52683-008917FM-15+0020EINN V0202401N00261220001CN0112001N1+00401+00301999999ADDAG12999GA1021+006909089MA1100711999999REMMET006NOSIG?EQDQ01+000000PRSWM2
0174039620999991987010923004+52683-008917SY-MT+0020EINN V0202501N00261013501CN0300001N1+00421+00301100731ADDAG12001GA1021+006909089GA2031+013509059GF105991051081008001999999GJ100309MA1100711999999MD1110091+9999MW1001REMSYN023333   82823 83645 94005MET006NOSIG?EQDQ01+000000PRSWM2
0075039620999991987010923304+52683-008917FM-15+0020EINN V0202301N00311220001CN0112001N1+00401+00301999999ADDAG12000GA1011+006909089MA1100711999999REMMET006NOSIG?EQDQ01+000000PRSWM2
0165039620999991987011000004+52683-008917SY-MT+0020EINN V0202401N00311220001CN0400001N1+00391+00271100751ADDAA106000591AG10001AY181061AY211061GA1011+006909089GF101991011021008001001001MA1100711999999MD1210071+9999MW1011REMSYN011333   81823MET006NOSIG?EQDQ01+000000PRSWM2
0076039620999991987011000304+52683-008917FM-15+0020EINN V0202501N00261220001CN0112001N1+00401+00201999999ADDAG11999GA1011+006909089MA1100711999999REMMET007NO SIG?EQDQ01+000000PRSWM2
0139039620999991987011001004+52683-008917SY-MT+0020EINN V0202501N00211220001CN0400001N1+00371+00221100761ADDAG11999GA1011+006909089GF101991011021008001001001MA1100711999999MD1210041+9999MW1001REMSYN011333   81823MET007NO SIG?EQDQ01+000000PRSWM2
0076039620999991987011001304+52683-008917FM-15+0020EINN V0202501N00151220001CN0112001N1+00301+00201999999ADDAG11999GA1011+006909089MA1100711999999REMMET007NO SIG?EQDQ01+000000PRSWM2
0145039620999991987011002004+52683-008917SY-MT+0020EINN V0202601N00211220001CN0400001N1+00331+00231100771ADDAG11001GA1011+009009059GF101991011051012501001001MA1100711999999MD1210041+9999MW1001REMSYN017333   81630 92000MET007NO SIG?EQDQ01+000000PRSWM2
0090039620999991987011002304+52683-008917FM-15+0020EINN V0202601N00211220001CN0112001N1+00401+00301999999ADDAG12000GA1011+009009059MA1100711999999REMMET021TEMPO 2ST012 4CB018 ?EQDQ01+000000PRSWM2
0174039620999991987011003004+52683-008917SY-MT+0020EINN V0202501N00261220001CN0400001N1+00411+00311100791ADDAG12000GA1011+005409089GA2031+009009059GF103991031081004501001001MA1100711999999MD1210041+9999MW1001REMSYN017333   81818 83630MET020TEMPO 2ST012 4CB018?EQDQ01+000000PRSWM2
0078039620999991987011003304+52683-008917FM-15+0020EINN V0202401N00261012001CN0112001N1+00501+00301999999ADDAG12999GA1031+006009099GA2051+012009059MA1100711999999MW1801REMMET006NOSIG?
0157039620999991987011004004+52683-008917SY-MT+0020EINN V0202401N00311012001CN0300001N1+00471+00321100741ADDAG12999AY181011AY221011GA1021+006009099GA2051+012009059GF106991061031008001999999MA1100711999999MD1810021+9999MW1251REMSYN017333   82920 85640MET006NOSIG?
0094039620999991987011004304+52683-008917FM-15+0020EINN V0202301N00211005401CN0112001N1+00501+00401999999ADDAG12999GA1021+003009079GA2041+005409099GA3051+008709059MA1100711999999MW1251REMMET006NOSIG?
0157039620999991987011005004+52683-008917SY-MT+0020EINN V0201701N00151006601CN0300001N1+00531+00411100741ADDAG12001AY181021AY221021GA1021+003909079GA2041+006609099GF105991051031004501001001MA1100711999999MD1810031+9999MW1251REMSYN017333   82713 84922MET006NOSIG?
0112039620999991987011005304+52683-008917FM-15+0020EINN V0201301N00151004501CN0112001N1+00501+00401999999ADDAG12000GA1031+003009079GA2051+004509079GA3061+007509059MA1100711999999REMMET011TEMPO 8000?EQDQ01+000000PRSWM2
0252039620999991987011006004+52683-008917SY-MT+0020EINN V0201101N00101003301CN0120001N1+00451+00351100761ADDAA199000591AG10001AY181061AY221061GA1041+002409079GA2051+003309079GA3071+004209079GF108991081061002501999999GJ100309IA1099IA2999-00109KA1120N+00301MA1100711999999MD1510031+9999MW1501REMSYN041333   20030 31101 84708 85711 87714 94005MET011TEMPO 8000?
0221039620999991987011007004+52683-008917SY-MT+0020EINN V0201001N00411002401CN0090001N1+00431+00331100831ADDAG12001AY151011AY221011GA1051+002409079GA2081+003609079GF108991081061002501999999MA1100811999999MD1310091+9999MW1201REMSYN035333   85708 88712 97170 97270 97470MET052VIS 9999 TO      ?     NW NE SE GRADU 4ST010 6ST015?
0102039620999991987011007304+52683-008917FM-15+0020EINN V0200901N00411003601CN0112001N1+00401+00301999999ADDAG12999GA1041+002109079GA2081+003609079MA1100811999999MW1201REMMET030GRADU 4ST012     ?     6ST017?
0206039620999991987011008004+52683-008917SY-MT+0020EINN V0200901N00411002701CN0200001N1+00431+00311100951ADDAG12001GA1031+002109079GA2051+002709079GA3081+003609079GF108991081061002501999999MA1100911999999MD1310211+9999MW1001REMSYN023333   83707 85710 88712MET030GRADU 4ST012     ?     6ST017?EQDQ01+000000PRSWM2
0105039620999991987011008304+52683-008917FM-15+0020EINN V0200801N00361003901CN0112001N1+00401+00301999999ADDAG12000GA1021+002709079GA2061+003909079MA1100911999999REMMET020GRADU 3ST015 5SC020?EQDQ01+000000PRSWM2
0190039620999991987011009004+52683-008917SY-MT+0020EINN V0200901N00361004501CN0200001N1+00441+00341101051ADDAG12000AY151031AY221031GA1021+002709079GA2071+004509079GF107991071061002501999999MA1101021999999MD1210291+9999MW1021REMSYN017333   82709 87715MET020GRADU 3ST015 5SC020?EQDQ01+000000PRSWM2
0107039620999991987011009304+52683-008917FM-15+0020EINN V0200801N00361006601CN0112001N1+00501+00301999999ADDAG12999GA1011+002709079GA2031+004509079GA3071+006609059MA1101081999999REMMET006NOSIG?EQDQ01+000000PRSWM2
0182039620999991987011010004+52683-008917SY-MT+0020EINN V0201001N00361009001CN0250001N1+00481+00381101121ADDAG12001GA1011+001509079GA2041+006909059GA3061+009009059GF107991071051002501999999MA1101081999999MD1210291+9999MW1001REMSYN023333   81705 84623 86630MET006NOSIG?EQDQ01+000000PRSWM2
0107039620999991987011010304+52683-008917FM-15+0020EINN V0201001N00411009001CN0112001N1+00501+00401999999ADDAG12999GA1011+002709079GA2031+006009059GA3051+009009059MA1101081999999REMMET006NOSIG?EQDQ01+000000PRSWM2
0160039620999991987011011004+52683-008917SY-MT+0020EINN V0201001N00311007201CN0250001N1+00551+00461101191ADDAG12001GA1011+002409079GA2041+007209059GF105991051051002501999999MA1101081999999MD1210241+9999MW1001REMSYN017333   81708 84624MET006NOSIG?EQDQ01+000000PRSWM2
0091039620999991987011011304+52683-008917FM-15+0020EINN V0200901N00361003301CN0112001N1+00601+00501999999ADDAG12000GA1021+002109079GA2041+003309079MA1101191999999REMMET006NOSIG?EQDQ01+000000PRSWM2
0210039620999991987011012004+52683-008917SY-MT+0020EINN V0200901N00311003901CN0250001N1+00641+00451101251ADDAA106999929AG12000AY151061AY221061GA1021+002409079GA2031+003909079GA3061+006909059GF107991071061002501999999MA1101191999999MD1210201+9999MW1031REMSYN023333   82708 83713 86623MET007NO SIG?EQDQ01+000000PRSWM2
0094039620999991987011012304+52683-008917FM-15+0020EINN V0201001N00411003601CN0112001N1+00601+00401999999ADDAG12999GA1021+002109079GA2031+003609079GA3061+006309059MA1101191999999MW1101REMMET006NOSIG?
0179039620999991987011013004+52683-008917SY-MT+0020EINN V0200901N00311003601CN0200001N1+00631+00471101281ADDAG12999AY121011AY221011GA1021+002709079GA2031+003609079GA3051+005709079GF107991071061002501999999MA1101191999999MD1110161+9999MW1101REMSYN023333   82709 83712 85719MET006NOSIG?
0182039620999991987011014004+52683-008917SY-MT+0020EINN V0201001N00311005401CN0250001N1+00661+00451101331ADDAG12001GA1021+003609079GA2041+005409079GA3061+007509059GF108991081061004501999999MA1101291999999MD1210141+9999MW1001REMSYN023333   82712 84718 86625MET006NOSIG?EQDQ01+000000PRSWM2
0091039620999991987011014304+52683-008917FM-15+0020EINN V0200701N00211007501CN0112001N1+00701+00501999999ADDAG12000GA1031+003609079GA2071+007509059MA1101291999999REMMET006NOSIG?EQDQ01+000000PRSWM2
0160039620999991987011015004+52683-008917SY-MT+0020EINN V0200901N00211006601CN0250001N1+00671+00461101391ADDAG12000GA1031+004509079GA2071+006609059GF108991081051004501999999MA1101291999999MD1210141+9999MW1001REMSYN017333   83715 87622MET006NOSIG?EQDQ01+000000PRSWM2
0091039620999991987011015304+52683-008917FM-15+0020EINN V0200901N00311007501CN0112001N1+00701+00401999999ADDAG12999GA1031+004509079GA2071+007509059MA1101391999999REMMET006NOSIG?EQDQ01+000000PRSWM2
0160039620999991987011016004+52683-008917SY-MT+0020EINN V0200801N00261007501CN0250001N1+00651+00371101471ADDAG12001GA1021+004509079GA2071+007509059GF107991071051004501999999MA1101391999999MD1210191+9999MW1001REMSYN017333   82715 87625MET006NOSIG?EQDQ01+000000PRSWM2
0091039620999991987011016304+52683-008917FM-15+0020EINN V0200801N00361009001CN0112001N1+00601+00301999999ADDAG12999GA1021+005409079GA2071+009009059MA1101391999999REMMET006NOSIG?EQDQ01+000000PRSWM2
0160039620999991987011017004+52683-008917SY-MT+0020EINN V0200901N00361009001CN0250001N1+00641+00301101511ADDAG12001GA1021+006009059GA2071+009009059GF107991071051008001999999MA1101491999999MD1210181+9999MW1001REMSYN017333   82620 87630MET006NOSIG?EQDQ01+000000PRSWM2
0091039620999991987011017304+52683-008917FM-15+0020EINN V0200801N00311009001CN0112001N1+00601+00301999999ADDAG12000GA1021+006009059GA2071+009009059MA1101491999999REMMET006NOSIG?EQDQ01+000000PRSWM2
0190039620999991987011018004+52683-008917SY-MT+0020EINN V0200801N00311009301CN0250001N1+00631+00201101561ADDAA199999929AG10000GA1021+006009059GA2081+009309059GF108991081051008001999999KA1120M+00681MA1101491999999MD1210181+9999MW1001REMSYN023333   10068 82620 88631MET006NOSIG?EQDQ01+000000PRSWM2
0075039620999991987011018304+52683-008917FM-15+0020EINN V0200901N00211009301CN0112001N1+00601+00301999999ADDAG12999GA1081+009309059MA1101491999999REMMET006NOSIG?EQDQ01+000000PRSWM2
0138039620999991987011019004+52683-008917SY-MT+0020EINN V0200901N00151009301CN0250001N1+00601+00261101641ADDAG12001GA1081+009309059GF108991081051012501999999MA1101591999999MD1210171+9999MW1001REMSYN011333   88631MET006NOSIG?EQDQ01+000000PRSWM2
0075039620999991987011019304+52683-008917FM-15+0020EINN V0200901N00311009301CN0112001N1+00601+00201999999ADDAG12999GA1081+009309059MA1101591999999REMMET006NOSIG?EQDQ01+000000PRSWM2
0160039620999991987011020004+52683-008917SY-MT+0020EINN V0201301N00211011101CN0250001N1+00571+00171101721ADDAG12999GA1031+009309059GA2081+011109059GF108991081051012501999999MA1101691999999MD1210211+9999MW1001REMSYN017333   83631 88637MET006NOSIG?EQDQ01+000000PRSWM2
0075039620999991987011020304+52683-008917FM-15+0020EINN V0201301N00311011101CN0112001N1+00501+00201999999ADDAG12000GA1081+011109059MA1101691999999REMMET006NOSIG?EQDQ01+000000PRSWM2
0138039620999991987011021004+52683-008917SY-MT+0020EINN V0200801N00261011101CN0140001N1+00481+00281101741ADDAG12000GA1081+011109059GF108991081051012501999999MA1101691999999MD1210171+9999MW1001REMSYN011333   88637MET006NOSIG?EQDQ01+000000PRSWM2
0062039620999991987011021304+52683-008917FM-15+0020EINN V0200901N00311012001CN0112001N1+00501+00301999999ADDAG12999GA1081+012009059MA1101691999999MW1101REMMET006NOSIG?
0171039620999991987011022004+52683-008917SY-MT+0020EINN V0200901N00311015001CN0120001N1+00471+00251101821ADDAG12999AY161011AY221011GA1021+009009059GA2071+015009059GF107991071051012501999999GJ100369MA1101801999999MD1210181+9999MW1601REMSYN023333   82630 87650 94006MET006NOSIG?
0094039620999991987011022304+52683-008917FM-15+0020EINN V0200901N00311010801CN0112001N1+00501+00301999999ADDAG12999GA1021+005109079GA2031+010809059GA3071+015009059MA1101801999999MW1601REMMET006NOSIG?
0157039620999991987011023004+52683-008917SY-MT+0020EINN V0200901N00361015001CN0120001N1+00471+00301101871ADDAG12999AY161021AY221021GA1021+006609059GA2071+015009059GF107991071051008001999999MA1101801999999MD1110151+9999MW1211REMSYN017333   82622 87650MET006NOSIG?
0099039620999991987011023304+52683-008917FM-15+0020EINN V0200901N00361015001CN0112001N1+00501+00301999999ADDAG11003GA1011+006609059GA2051+015009059GA3071+024009049MA1101901999999MW1211REMMET011TEMPO 7000?
0201039620999991987011100004+52683-008917SY-MT+0020EINN V0201001N00311015001CN0090001N1+00481+00361101911ADDAA106999929AG10001AY161061AY221061GA1031+007209059GA2041+015009059GA3071+024009049GF107991071051008001999999MA1101901999999MD1210171+9999MW1021MW2101REMSYN023333   83624 84650 87458MET011TEMPO 7000?
0099039620999991987011100304+52683-008917FM-15+0020EINN V0200901N00511015001CN0090001N1+00501+00301999999ADDAG11999GA1021+008409059GA2041+015009059GA3071+024009049MA1101901999999MW1101REMMET011TEMPO 7000?
0184039620999991987011101004+52683-008917SY-MT+0020EINN V0200901N00411015001CN0090001N1+00471+00301101941ADDAG11001AY121011AY221011GA1031+010509059GA2051+015009059GA3071+024009049GF107991061051012501071999MA1101901999999MD1210121+9999MW1101REMSYN023333   83635 85650 87458MET011TEMPO 7000?
0083039620999991987011101304+52683-008917FM-15+0020EINN V0200901N00511015001CN0090001N1+00501+00301999999ADDAG12999GA1041+007209059GA2071+015009059MA1101901999999MW1101REMMET011TEMPO 7000?
0162039620999991987011102004+52683-008917SY-MT+0020EINN V0201001N00671015001CN0090001N1+00481+00281101951ADDAG11001AY121021AY221021GA1041+007209059GA2071+015009059GF108991081051008001999999MA1101901999999MD1110081+9999MW1101REMSYN017333   84624 87650MET011TEMPO 7000?
0099039620999991987011102304+52683-008917FM-15+0020EINN V0201001N00571007501CN0090001N1+00501+00301999999ADDAG12000GA1041+005109079GA2041+007509059GA3071+015009059MA1101901999999MW1101REMMET011TEMPO 7000?
0192039620999991987011103004+52683-008917SY-MT+0020EINN V0201201N00511006601CN0090001N1+00501+00251101981ADDAG11000AY121031AY221031GA1021+005109079GA2051+006609059GA3071+015009059GF108991081051004501999999MA1101901999999MD1210071+9999MW1101REMSYN023333   82717 85622 87650MET019TEMPO 5ST012     ??
0101039620999991987011103304+52683-008917FM-15+0020EINN V0201201N00511008101CN0090001N1+00501+00201999999ADDAG12999GA1021+005109079GA2051+008109059GA3081+015009059MA1102001999999MW1101REMMET013TEMPO 5ST012?
0186039620999991987011104004+52683-008917SY-MT+0020EINN V0201001N00571005401CN0090001N1+00431+00251102031ADDAG12999AY161011AY221011GA1021+003609079GA2051+005409079GA3081+015009059GF108991081061004501999999MA1102001999999MD1310091+9999MW1601REMSYN023333   82712 85718 88650MET013TEMPO 5ST012?
