0151039620999991997010100004+52700-008917SY-MT+0020EINN V0200301N00361220001CN0250001N1+00011-00141102781ADDAA106999929AG13000GA1021+009009999GF103991031051012501001001MA1102711102531MD1110051+9999REMSYN017 333 83630 92600;MET008NEW NOSIEQDQ01+000000PRSWM2
0156039620999991997010101004+52700-008917SY-MT+0020EINN V0200401N00411220001CN0250001N1+00001-00311102801ADDAG11999GA1021+006009999GF199999011081008001001001MA1102711102551MD1210031+9999REMSYN017 333 81820 92600;MET008NEW NOSIEQDQ01+000012SCOTCVQ02+000000PRSWM2
0146039620999991997010102004+52700-008917SY-MT+0020EINN V0200301N00361220001CN0250001N1-00021-00291102831ADDAG11999GA1021+006009999GF103991031081008001001001MA1102711102581MD1310051+9999REMSYN023 333 81820 83640 92600;MET008NEW NOSIEQDQ01+000000PRSWM2
0156039620999991997010103004+52700-008917SY-MT+0020EINN V0200501N00261220001CN0250001N1-00041-00081102841ADDAG11000GA1021+006009999GA2021+012009999GF102991021051012501001001MA1102811102591MD1210061+9999REMSYN017 333 82640 92600;MET008NEW NOSIEQDQ01+000000PRSWM2
0140039620999991997010104004+52700-008917SY-MT+0020EINN V0200501N00261220001CN0250001N1-00061-00211102851ADDAG11999GA1021+012009999GF102991021051012501001001MA1102811102601MD1210051+9999REMSYN017 333 82640 92600;MET008NEW NOSIEQDQ01+000000PRSWM2
0156039620999991997010105004+52700-008917SY-MT+0020EINN V0200401N00311220001CN0250001N1-00061-00241102841ADDAG11999GA1021+012009999GF199999011051012501001001MA1102811102591MD1010011+9999REMSYN017 333 81640 92600;MET008NEW NOSIEQDQ01+000012SCOTCVQ02+000000PRSWM2
0235039620999991997010106004+52700-008917SY-MT+0020EINN V0200401N00311220001CN0250001N1-00111-00201102861ADDAA106000091AA299999929AG13000GA1021+012009999GF199999011051012501001001GJ103849IA1149IA2999-00309KA1120N-00111MA1102811102611MD1210021+9999REMSYN035 333 21011 34103 55064 81640 92601;MET008NEW NOSIEQDQ01+000012SCOTCVQ02+000000PRSWM2
0156039620999991997010107004+52700-008917SY-MT+0020EINN V0200401N00311220001CN0250001N1-00101-00251102901ADDAG11999GA1021+012009999GF199999011051012501001001MA1102811102651MD1310051+9999REMSYN017 333 81650 92601;MET008NEW NOSIEQDQ01+000012SCOTCVQ02+000000PRSWM2
0181039620999991997010108004+52700-008917SY-MT+0020EINN V0200501N00361220001CN0250001N1-00101-00251102871ADDAG11999GA1021+012009999GF199999011051012501001001MA1102811102631MD1010041+9999REMSYN017 333 81640 92601;MET017NEW M01M02 Q1028;EQDQ01+000012SCOTCVQ02+999990APOA  Q03+000000PRSWM2
0156039620999991997010109004+52700-008917SY-MT+0020EINN V0200501N00261220001CN0250001N1-00101-00251102941ADDAG11000GA1021+005409999GF199999011051004501001001MA1102911102691MD1210081+9999REMSYN017 333 81718 92601;MET008NEW NOSIEQDQ01+000012SCOTCVQ02+000000PRSWM2
0156039620999991997010110004+52700-008917SY-MT+0020EINN V0200501N00311220001CN0250001N1-00091-00271102941ADDAG11999GA1021+005409999GF199999011051008001001001MA1102911102691MD1310041+9999REMSYN017 333 81622 92601;MET008NEW NOSIEQDQ01+000012SCOTCVQ02+000000PRSWM2
0156039620999991997010111004+52700-008917SY-MT+0020EINN V0200401N00411220001CN0250001N1+00031-00271102941ADDAG11999GA1021+006609999GF199999011051008001001001MA1102911102691MD1110061+9999REMSYN017 333 81622 92601;MET008NEW NOSIEQDQ01+000012SCOTCVQ02+000000PRSWM2
0161039620999991997010112004+52700-008917SY-MT+0020EINN V0200301N00311220001CN0250001N1+00121-00081102941ADDAA106999929AG13000GA1021+007209999GF199999011051008001001001MA1102911102691MD1410001+9999REMSYN011 333 81624;MET008NEW NOSIEQDQ01+000012SCOTCVQ02+000000PRSWM2
0150039620999991997010113004+52700-008917SY-MT+0020EINN V0200401N00311220001CN0250001N1+00181-00291102901ADDAG11999GA1021+007209999GF199999011081008001001001MA1102911102651MD1810041+9999REMSYN011 333 81824;MET008NEW NOSIEQDQ01+000012SCOTCVQ02+000000PRSWM2
0150039620999991997010114004+52700-008917SY-MT+0020EINN V0200501N00361220001CN0200001N1+00241-00331102891ADDAG11999GA1021+005409999GF199999011081004501001001MA1102811102641MD1810051+9999REMSYN011 333 81818;MET008NEW NOSIEQDQ01+000012SCOTCVQ02+000000PRSWM2
0150039620999991997010115004+52700-008917SY-MT+0020EINN V0200401N00361220001CN0250001N1+00191-00351102891ADDAG11000GA1021+005409999GF199999011041008001001001MA1102811102641MD1610051+9999REMSYN011 333 81623;MET008NEW NOSIEQDQ01+000012SCOTCVQ02+000000PRSWM2
0150039620999991997010116004+52700-008917SY-MT+0020EINN V0200301N00311220001CN0250001N1+00161-00291102901ADDAG11999GA1021+006909999GF199999011041008001031001MA1102811102651MD1410001+9999REMSYN011 333 81623;MET008NEW NOSIEQDQ01+000012SCOTCVQ02+000000PRSWM2
0134039620999991997010117004+52700-008917SY-MT+0020EINN V0200301N00261220001CN0200001N1+00131-00261102941ADDAG11999GA1021+009009999GF103991031051012501001001MA1102911102691MD1310051+9999REMSYN011 333 83635;MET008NEW NOSIEQDQ01+000000PRSWM2
0175039620999991997010118004+52700-008917SY-MT+0020EINN V0200301N00101012001CN0200001N1+00071-00131102931ADDAA106000091AA299999929AG13000GA1071+012009999GF107991071051012501999999KA1120M+00251MA1102911102691MD1110051+9999REMSYN017 333 10025 87645;MET008NEW NOSIEQDQ01+000000PRSWM2
0134039620999991997010119004+52700-008917SY-MT+0020EINN V0202901N00051013501CN0300001N1+00091-00231102961ADDAG11999GA1071+013509999GF107991071051017501999999MA1102911102711MD1210061+9999REMSYN011 333 87656;MET008NEW NOSIEQDQ01+000000PRSWM2
0126039620999991997010120004+52700-008917SY-MT+0020EINN V0200301N001010150019N0300001N1+00111-00281103001ADDAG11999GF108991081051017501999999MA1102911102751MD1310061+9999REMSYN011 333 88656;MET016NEW CAVOK NOSIG;EQDQ01+000000PRSWM2
0126039620999991997010121004+52700-008917SY-MT+0020EINN V0200401N001510150019N0300001N1+00101-00191102991ADDAG11000GF108991081051017501999999MA1102911102741MD1010051+9999REMSYN011 333 88656;MET016NEW CAVOK NOSIG;EQDQ01+000000PRSWM2
0140039620999991997010122004+52700-008917SY-MT+0020EINN V0200601N00051015001CN0300001N1+00071-00191103021ADDAG11999GA1081+015009999GF108991081051012501999999MA1102911102771MD1210061+9999REMSYN017 333 81635 88650;MET008NEW NOSIEQDQ01+000000PRSWM2
0126039620999991997010123004+52700-008917SY-MT+0020EINN V0200101N002110150019N0300001N1+00041-00231102981ADDAG11999GF108991081051017501999999MA1103011102731MD1710021+9999REMSYN011 333 88656;MET016NEW CAVOK NOSIG;EQDQ01+000000PRSWM2
0145039620999991997010200004+52700-008917SY-MT+0020EINN V0203501N00151014401CN0300001N1+00061-00341102981ADDAA106000091AG11000GA1081+014409999GF108991081051012501999999MA1102911102731MD1810011+9999REMSYN011 333 88647;MET008NEW NOSIEQDQ01+000000PRSWM2
0134039620999991997010201004+52700-008917SY-MT+0020EINN V0203301N00211014101CN0300001N1-00011-00251102921ADDAG11999GA1071+014109999GF107991071051012501999999MA1102911102671MD1710101+9999REMSYN011 333 87647;MET008NEW NOSIEQDQ01+000000PRSWM2
0140039620999991997010202004+52700-008917SY-MT+0020EINN V0203401N00151014101CN0300001N1-00061-00281102861ADDAG11999GA1071+014109999GF107991071051012501999999MA1102811102611MD1810121+9999REMSYN017 333 87647 92600;MET008NEW NOSIEQDQ01+000000PRSWM2
0140039620999991997010203004+52700-008917SY-MT+0020EINN V0203201N00151014101CN0300001N1-00111-00261102811ADDAG11000GA1071+014109999GF107991071051012501999999MA1102811102561MD1710171+9999REMSYN017 333 87647 92600;MET008NEW NOSIEQDQ01+000000PRSWM2
0162039620999991997010204004+52700-008917SY-MT+0020EINN V0203301N00211014101CN0300001N1-00161-00351102741ADDAG11999GA1071+014109999GA2071+075009999GF107991061051012501999021MA1102711102491MD1710181+9999REMSYN023 333 86647 86075 92600;MET008NEW NOSIEQDQ01+000000PRSWM2
0140039620999991997010205004+52700-008917SY-MT+0020EINN V0203401N00211014101CN0300001N1-00111-00261102691ADDAG11999GA1071+014109999GF107991071051012501999999MA1102611102441MD1710171+9999REMSYN017 333 87648 92600;MET008NEW NOSIEQDQ01+000000PRSWM2
0251039620999991997010206004+52700-008917SY-MT+0020EINN V0203301N00151015001CN0250001N1-00121-00361102631ADDAA106000091AA299999929AG13000GA1021+010509999GA2071+015009999GF199999031051012501031999GJ103609IA1149IA2999-00409KA1120N-00201MA1102611102381MD1710181+9999REMSYN035 333 21020 34104 55060 83640 85360;MET008NEW NOSIEQDQ01+000062SCOTCVQ02+000000PRSWM2
0156039620999991997010207004+52700-008917SY-MT+0020EINN V0209991C00001030001CN0250001N1-00101-00331102591ADDAG11999GA1021+012009999GA2071+030009999GF107991051051012501031999MA1102611102341MD1710151+9999REMSYN017 333 85636 85360;MET008NEW NOSIEQDQ01+000000PRSWM2
0156039620999991997010208004+52700-008917SY-MT+0020EINN V0202501N00051009001CN0250001N1-00071-00291102521ADDAG11999GA1071+009009999GA2071+018009999GF108991081051008001999999MA1102511102271MD1710171+9999REMSYN017 333 85628 86656;MET008NEW NOSIEQDQ01+000000PRSWM2
0207039620999991997010209004+52700-008917SY-MT+0020EINN V0209991C00001007501CN0250001N1-00041-00131102451ADDAG12001AJ199993999999999AY171031AY261031GA1071+007509999GA2071+018009999GF108991081051008001999999IA1259MA1102401102201MD1710181+9999MW1231REMSYN023 333 41997 85625 87656;MET008NEW NOSIEQDQ01+000000PRSWM2
0207039620999991997010210004+52700-008917SY-MT+0020EINN V0202301N00051002101CN0030001N1+00111-00281102361ADDAG12999AJ199993999999999AY171011AY221011GA1021+007509999GA2021+015009999GF108991081061002501999999IA1269MA1102301102111MD1710231+9999MW1701REMSYN023 333 42997 85706 88650;MET008NEW NOSIEQDQ01+000000PRSWM2
0209039620999991997010211004+52700-008917SY-MT+0020EINN V0202101N00051000601CN0012001N1+00061-00141102301ADDAG12999AJ100019199999999AY171021AY271021GA1071+000609999GA2081+002109999GF108991081061000751999999IA1279MA1102201102051MD1710221+9999MW1711REMSYN023 333 43001 85702 88707;MET029NEW TEMPO 5000 BKN005 OVC008;
0206039620999991997010212004+52700-008917SY-MT+0020EINN V0201601N00101000301CN0013001N1+00071-00131102231ADDAA106003091AG12001AJ100029199999999AY171061AY261061GA1071+000309999GA2081+001509999GF108991081061000251999999IA1279MA1102201101981MD1710221+9999MW1711REMSYN023 333 43002 85701 88705;MET015NEW TEMPO 3000;
0200039620999991997010213004+52700-008917SY-MT+0020EINN V0201501N00101001201CN0016001N1+00071-00101102151ADDAG12999AJ100029199999999AY171011AY271011GA1071+001209999GA2081+003009999GF108991081061001501999999IA1279MA1102101101901MD1710211+9999MW1711REMSYN023 333 43002 85704 88710;MET020NEW BECMG 5000 BKN00
0209039620999991997010214004+52700-008917SY-MT+0020EINN V0201301N00151000901CN0020001N1+00091-00081102101ADDAG12999AJ100029199999999AY171021AY271021GA1071+000909999GA2081+003009999GF108991081061002501999999IA1279MA1102101101851MD1710201+9999MW1711REMSYN023 333 43002 86703 88710;MET029NEW BECMG 5000 BKN006 OVC015;
0215039620999991997010215004+52700-008917SY-MT+0020EINN V0201201N00151000901CN0040001N1+00091-00021102101ADDAG12001AJ100029199999999AY171031AY221031GA1071+000909999GA2081+003609999GF108991081061002501999999IA1279MA1102001101851MD1610131+9999MW1221MW2711REMSYN023 333 43002 84703 88712;MET029NEW BECMG 5000 BKN006 OVC015;
0213039620999991997010216004+52700-008917SY-MT+0020EINN V0201101N00151001201CN0040001N1+00071-00011102111ADDAG12999AJ100029199999999AY121011AY221011GA1071+001209999GA2081+003609999GF199999071061001501999999IA1279MA1102101101861MD1510041+9999MW1101REMSYN029 333 43002 82704 83712 87716;MET008NEW NOSIEQDQ01+000072SCOTCV
0209039620999991997010217004+52700-008917SY-MT+0020EINN V0201001N00151004501CN0020001N1+00061-00021102131ADDAG12999AJ100029199999999AY121021AY221021GA1021+001209999GA2081+004509999GF108991081061001501999999IA1279MA1102101101881MD1210031+9999MW1101REMSYN023 333 43002 82704 88715;MET029NEW TEMPO 1500 SCT003 BKN005;
0250039620999991997010218004+52700-008917SY-MT+0020EINN V0201001N00101005401CN0050001N1+00061-00041102121ADDAA106000091AA299005091AG12001AJ100029199999999AY171061AY221061GA1021+001209999GA2081+005409999GF108991081051001501999999IA1279KA1120M+00121MA1102101101871MD1010021+9999MW1101REMSYN029 333 10012 43002 82705 87622;MET029NEW TEMPO 1500 SCT003 BKN005;
0157039620999991997010218304+52700-008917FM-15+0020EINN V0203501N001010096019N0045001N1+00101-00101102041ADDAG12999GA1021+001809999GA2021+006609999GA3071+009609999GF107991999999999999999999MA1102001101801MW1101REMMET008NEW NOSIEQDQ01+999990APOSP Q02+999990APOSLP
0199039620999991997010219004+52700-008917FM-12+0020EINN V0200301N00051013501CN0045001N1+00061-00041102131ADDAG10999AJ100029199999999AY121011AY221011GA1011+003609079GA2041+013509059GF108991081051004501999999IA1279MA1102071101881MD1210021+9999MW1101REMSYN029 333 43002 81712 84645 87633;EQDQ01+999990APOA  
0188039620999991997010220004+52700-008917SY-MT+0020EINN V0200101N00051006001CN0045001N1+00071-00041102161ADDAG12999AJ100029199999999AY121021AY221021GA1021+001509999GA2071+006009999GF108991081061001501999999IA1279MA1102101101911MD1310031+9999MW1101REMSYN023 333 43002 84705 87715;MET008NEW NOSI
0188039620999991997010221004+52700-008917SY-MT+0020EINN V0200301N00051001201CN0030001N1+00071-00011102151ADDAG12000AJ100029199999999AY121031AY221031GA1071+001209999GA2071+003609999GF108991081061001501999999IA1279MA1102101101911MD1210041+9999MW1101REMSYN023 333 43002 85703 87711;MET008NEW NOSI
0207039620999991997010222004+52700-008917SY-MT+0020EINN V0200101N00051000901CN0030001N1+00071-00011102151ADDAG12999AJ100029199999999AY121011AY221011GA1071+000909999GA2081+003009999GF199999071061001501999999IA1279MA1102101101901MD1010021+9999MW1101REMSYN023 333 43002 85703 85710;MET008NEW NOSIEQDQ01+000072SCOTCV
0184039620999991997010223004+52700-008917SY-MT+0020EINN V0200301N00211001201CN0040001N1+00021-00011102141ADDAG12999AJ100029199999999AY111021AY211021GA1021+000909999GF108991081061001501999999IA1279MA1102101101891MD1710021+9999MW1101MW2121REMSYN017 333 43002 88703;MET020NEW BECMG 0400 BKN00
0184039620999991997010300004+52700-008917SY-MT+0020EINN V0200701N00151000901CN0040001N1+00011-00141102151ADDAA106000091AG11000AJ100029199999999AY111061AY211061GA1081+000909999GF108991081061001501999999IA1279MA1102101101901MD1510011+9999MW1101REMSYN017 333 43002 88703;MET015NEW TEMPO 3000;
0188039620999991997010301004+52700-008917SY-MT+0020EINN V0209991C00001000901CN0018001N1-00061-00151102121ADDAG11999AJ100029199999999AY121011AY221011GA1071+000909999GA2071+001509999GF108991081061001501999999IA1279MA1102101101871MD1810031+9999MW1101REMSYN023 333 43002 86703 87705;MET008NEW NOSI
0188039620999991997010302004+52700-008917SY-MT+0020EINN V0200601N00151000901CN0040001N1-00061-00181102071ADDAG11999AJ100029199999999AY121021AY221021GA1071+000909999GA2071+001509999GF108991081061001501999999IA1279MA1102001101821MD1810071+9999MW1101REMSYN023 333 43002 86703 87705;MET008NEW NOSI
0166039620999991997010303004+52700-008917SY-MT+0020EINN V0200601N00151000901CN0030001N1-00071-00191102071ADDAG11000AJ100029199999999AY121031AY221031GA1081+000909999GF108991081061001501999999IA1279MA1102001101821MD1610081+9999MW1101REMSYN017 333 43002 88703;MET008NEW NOSI
0178039620999991997010304004+52700-008917SY-MT+0020EINN V0200601N00101000601CN0006001N1-00141-00211102011ADDAG11999AJ100029199999999AY141011AY221011GA1081+000609999GF108991081061000751999999IA1279MA1102001101761MD1710111+9999MW1101MW2461REMSYN023 333 43002 88702 90202;MET008NEW NOSI
0177039620999991997010305004+52700-008917FM-12+0020EINN V0200601N00151000601CN0012001N1-00191-00321102001ADDAG11999AJ100029199999999AY141021AY221021GA1081+000609079GF108991081061000751999999IA1279MA1101931101751MD1710071+9999MW1281REMSYN023 333 43002 88702 90102;EQDQ01+999990APOA  
0262039620999991997010306004+52700-008917SY-MT+0020EINN V0200601N00151000301CN0018001N1-00211-00301101961ADDAA106000091AA299999929AG13000AJ100029199999999AY141061AY221061GA1071+000309999GA2081+000909999GF108991081061000751999999GJ100009IA1279IA2999-00209KA1120N-00221MA1101901101711MD1710111+9999MW1101REMSYN035 333 21022 3/102 43002 55000 88706;MET015NEW TEMPO 0600;
0188039620999991997010307004+52700-008917SY-MT+0020EINN V0200601N00151000601CN0015001N1-00191-00281101951ADDAG11999AJ100029199999999AY121011AY221011GA1071+000609999GA2081+001209999GF108991081061000751999999IA1279MA1101901101701MD1610061+9999MW1101REMSYN023 333 43002 86702 88704;MET008NEW NOSI
0172039620999991997010308004+52700-008917SY-MT+0020EINN V0200601N00151000601CN0012001N1-00161-00281101931ADDAG11999AJ100029199999999AY121021AY221021GA1081+000609999GF108991081061000251999999IA1279MA1101901101681MD1710071+9999MW1101REMSYN023 333 43002 85701 88703;MET008NEW NOSI
0159039620999991997010308304+52700-008917FM-15+0020EINN V0200501N00211000301CN0012001N1-00101-00201101941ADDAG10999ED199U15009GA1071+000309999GA2081+000909999GF108991999999999999999999MA1101901101701MW1101REMMET015NEW TEMPO 0500;EQDQ01+999990APOSP Q02+999990APOSLP
0166039620999991997010309004+52700-008917SY-MT+0020EINN V0200501N00151000901CN0020001N1-00111-00241101911ADDAG11000AY121031AY221031GA1071+000909999GA2081+002109999GF108991081061001501999999MA1101901101661MD1710051+9999MW1101REMSYN017 333 85703 88707;MET015NEW BECMG 5000;
0217039620999991997010310004+52700-008917SY-MT+0020EINN V0200301N00151002101CN0025001N1-00031-00151101911ADDAG11999AJ100029199999999AY121011AY221011GA1021+000909999GA2071+002109999GA3071+012009999GF107991071061001501999999IA1279MA1101901101661MD1610041+9999MW1101REMSYN029 333 43002 81704 86706 87630;MET015NEW BECMG 5000;
0199039620999991997010311004+52700-008917FM-12+0020EINN V0200301N00151003901CN0035001N1+00081-00201101911ADDAG11999AJ100029199999999AY121021AY221021GA1031+001809079GA2041+003909079GF107991071061002501999999IA1279MA1101861101661MD1610021+9999MW1101REMSYN029 333 43002 83706 84713 85635;EQDQ01+999990APOA  
0228039620999991997010312004+52700-008917SY-MT+0020EINN V0200201N00211220001CN0050001N1+00131-00101101881ADDAA106000091AG10000AJ100019199999999AY121061AY221061GA1021+004809999GA2071+009009999GF199999021061004501031999IA1269MA1101801101631MD1810031+9999MW1101REMSYN017 333 42001 81712;MET008NEW NOSIEQDQ01+000022SCOTCVQ02+000000PRSWM2
0223039620999991997010313004+52700-008917SY-MT+0020EINN V0200301N00211009001CN0080001N1+00161-00121101851ADDAG11999AJ100019199999999AY121011AY221011GA1021+004809999GA2071+009009999GF199999061051004501999999IA1269MA1101801101601MD1810061+9999MW1101REMSYN023 333 42001 81716 86630;MET008NEW NOSIEQDQ01+000062SCOTCVQ02+000000PRSWM2
0156039620999991997010314004+52700-008917SY-MT+0020EINN V0200301N00151220001CN0080001N1+00071-00071101821ADDAG11999AY121021AY221021GA1021+009009999GF103991031051012501001001MA1101801101571MD1710091+9999MW1101REMSYN011 333 83635;MET008NEW NOSIEQDQ01+000000PRSWM2
0172039620999991997010315004+52700-008917SY-MT+0020EINN V0200301N00051220001CN0080001N1+00161-00291101801ADDAG11000AY111031AY211031GA1021+010509999GF199999011051012501001001MA1101691101551MD1710081+9999MW1051REMSYN011 333 81635;MET008NEW NOSIEQDQ01+000012SCOTCVQ02+000000PRSWM2
0201039620999991997010316004+52700-008917SY-MT+0020EINN V0200101N00151220001CN0100001N1+00081-00211101811ADDAG11999AJ100019199999999AY101011AY201011GA1021+010509999GF199999011051017501001001IA1269MA1101801101561MD1510041+9999MW1051REMSYN017 333 42001 81650;MET008NEW NOSIEQDQ01+000012SCOTCVQ02+000000PRSWM2
0177039620999991997010317004+52700-008917SY-MT+0020EINN V0200101N00151220001CN0100001N1+00011-00081101821ADDAG11999AJ100019199999999AY101021AY201021GF101991011051017501001001IA1269MA1101801101571MD1410001+9999MW1101REMSYN017 333 42001 81650;MET016NEW CAVOK NOSIG;EQDQ01+000000PRSWM2
0240039620999991997010318004+52700-008917SY-MT+0020EINN V0200201N00051220001CN0080001N1-00121-00161101821ADDAA106000091AA299999929AG13000AJ100019199999999AY111061AY211061GA1011+013509059GF101991011051012501001001IA1269KA1120M+00171MA1101801101571MD1010021+9999MW1101REMSYN029 333 10017 42001 81645 92600;MET016NEW CAVOK NOSIG;EQDQ01+000000PRSWM2
0207039620999991997010319004+52700-008917SY-MT+0020EINN V0200201N00101220001CN0080001N1-00241-00431101821ADDAG11999AJ100019199999999AY111011AY211011GA1021+013509999GF199999011051012501001001IA1269MA1101801101571MD1210011+9999MW1101REMSYN023 333 42001 81645 92611;MET008NEW NOSIEQDQ01+000012SCOTCVQ02+000000PRSWM2
0207039620999991997010320004+52700-008917SY-MT+0020EINN V0203001N00051220001CN0080001N1-00281-00481101831ADDAG11999AJ100019199999999AY101021AY201021GA1021+013509999GF199999011051012501001001IA1269MA1101801101581MD1210011+9999MW1101REMSYN023 333 42001 81645 92611;MET008NEW NOSIEQDQ01+000012SCOTCVQ02+000000PRSWM2
0197039620999991997010321004+52700-008917SY-MT+0020EINN V0203601N00101013501CN0050001N1-00221-00351101811ADDAG12001AJ100019199999999AY171031AY211031GA1071+013509999GF107991071051012501999999IA1269MA1101801101561MD1710011+9999MW1701REMSYN029 333 42001 84638 87650 92611;MET008NEW NOSIEQDQ01+000000PRSWM2
0219039620999991997010322004+52700-008917SY-MT+0020EINN V0203501N00211015001CN0060001N1-00191-00351101791ADDAG12999AJ100019199999999AY171011AY221011GA1021+011409999GA2071+015009999GF108991081051012501999999IA1269MA1101691101541MD1810031+9999MW1701REMSYN023 333 42001 84635 87650;MET020NEW TEMPO BKN010 BKNEQDQ01+000000PRSWM2
0203039620999991997010323004+52700-008917SY-MT+0020EINN V0203401N00151010501CN0070001N1-00181-00301101811ADDAG12999AJ100019199999999AY171021AY221021GA1071+010509999GF107991071061004501999999IA1269MA1101691101561MD1510021+9999MW1221REMSYN023 333 42001 85711 86630;MET020NEW TEMPO BKN010 BKNEQDQ01+000000PRSWM2
0244039620999991997010400004+52700-008917SY-MT+0020EINN V0203501N00211002101CN0060001N1-00201-00331101801ADDAA106999929AG12001AJ100019199999999AY171061AY211061GA1021+002409999GF107991071061002501999999IA1269MA1101731101551MD1710011+9999MW1221MW2711REMSYN023 333 42001 85708 86713;MET044NEW SBKN012 BKN030 M02/M03 Q1017 BECMG BKN02EQDQ01+999990APOA  
0144039620999991997010401004+52700-008917SY-MT+0020EINN V0203501N00211220001CN0050001N1-00231-00391101751ADDAG12999AJ100019199999999AY111011AY211011GF100991001001999999001001IA1269MA1101691101501MD1810041+9999MW1101REMSYN011 333 42001;MET008NEW NOSI
0194039620999991997010402004+52700-008917SY-MT+0020EINN V0200201N00101220001CN0050001N1-00181-00361101761ADDAG12999AJ100019199999999AY111021AY211021GA1071+002109999GF199999041061002501001001IA1269MA1101691101511MD1610051+9999MW1101REMSYN017 333 42001 84708;MET017NEW BECMG BKN020;EQDQ01+000042SCOTCV
0194039620999991997010403004+52700-008917SY-MT+0020EINN V0203501N00211220001CN0050001N1-00241-00331101751ADDAG12000AJ100019199999999AY111031AY211031GA1021+003009999GF199999011051012501001001IA1269MA1101691101501MD1610051+9999MW1101REMSYN017 333 42001 81630;MET017NEW TEMPO BKN010;EQDQ01+000012SCOTCV
0191039620999991997010404004+52700-008917SY-MT+0020EINN V0203501N00101220001CN0007001N1-00321-00421101751ADDAG12999AJ100019199999999AY101011AY201011GA1021+012009999GF103991031051012501001001IA1269MA1101691101501MD1410001+9999MW1101MW2481REMSYN029 333 42001 83640 98112 98312;MET015NEW TEMPO 1500;
0157039620999991997010405004+52700-008917SY-MT+0020EINN V0203401N000510003019N0004001N1-00381-00501101751ADDAG12999AJ100019199999999AY141021AY241021GF106991061061000251999999IA1269MA1101691101501MD1610011+9999MW1481REMSYN017 333 42001 86701;MET015NEW TEMPO 0400;
0137039620999991997010405304+52700-008917FM-15+0020EINN V0203201N002110003019N0004001N1-00401-00501101741ADDAG10999GA1071+000309999GF107991999999999999999999MA1101691101501MW1481REMMET020NEW TEMPO 1200 SCT00EQDQ01+999990APOSP Q02+999990APOSLP
0258039620999991997010406004+52700-008917SY-MT+0020EINN V0201701N00051220001CN0020001N1-00371-00481101731ADDAA106000091AA299999929AG10000AJ100019199999999AY141061AY211061GA1021+000309999GF102991021061000251001001GJ102049IA1269IA2999-00609KA1120N-00371MA1101691101481MD1810021+9999MW1101MW2281REMSYN041 333 21037 3/106 42001 55034 82701 90102;MET015NEW BECMG 3000;
0207039620999991997010407004+52700-008917SY-MT+0020EINN V0200301N00151220001CN0080001N1-00381-00501101731ADDAG12999AJ100019199999999AY101011AY201011GA1021+002409999GF199999011061004501001001IA1269MA1101691101481MD1610021+9999MW1101REMSYN023 333 42001 81710 92600;MET008NEW NOSIEQDQ01+000012SCOTCVQ02+000000PRSWM2
0207039620999991997010408004+52700-008917SY-MT+0020EINN V0203601N00151220001CN0080001N1-00341-00521101751ADDAG12999AJ100019199999999AY101021AY201021GA1021+003009999GF199999011051008001001001IA1269MA1101691101501MD1510001+9999MW1101REMSYN023 333 42001 81620 92600;MET008NEW NOSIEQDQ01+000012SCOTCVQ02+000000PRSWM2
0207039620999991997010409004+52700-008917SY-MT+0020EINN V0200601N00101220001CN0080001N1-00351-00461101781ADDAG11000AJ100019199999999AY101031AY201031GA1021+006009999GF199999011061004501001001IA1269MA1101691101531MD1310051+9999MW1101REMSYN023 333 42001 81715 92600;MET008NEW NOSIEQDQ01+000012SCOTCVQ02+000000PRSWM2
0197039620999991997010410004+52700-008917SY-MT+0020EINN V0202601N00101002101CN0060001N1-00331-00441101811ADDAG11999AJ100019199999999AY111011AY211011GA1021+002409999GF106991061051002501999999IA1269MA1101691101561MD1310081+9999MW1101REMSYN029 333 42001 83709 85620 92600;MET008NEW NOSIEQDQ01+000000PRSWM2
0219039620999991997010411004+52700-008917SY-MT+0020EINN V0203001N00101002701CN0060001N1-00241-00401101841ADDAG11999AJ100019199999999AY121021AY221021GA1071+002709999GA2071+006009999GF107991071061002501999999IA1269MA1101801101591MD1210091+9999MW1101REMSYN035 333 42001 83709 85712 86620 92600;MET008NEW NOSIEQDQ01+000000PRSWM2
0284039620999991997010412004+52700-008917SY-MT+0020EINN V0203201N00051004201CN0060001N1-00101-00261101811ADDAA106999929AG13000AJ100019199999999AY101061AY201061GA1021+003609999GF107991071051004501999999IA1269MA1101761101561MD1010031+9999MW1101REMSYN029 333 42001 83712 86625 92600;MET068NEW BKN-01/MGPE QJ S BWXLIPP M 041200Z 35010KT 9999-019 01/M02-Q1 14EQDQ01+999990APOA  Q02+000000PRSWM2
0207039620999991997010413004+52700-008917SY-MT+0020EINN V0200501N00151007501CN0080001N1+00031-00291101791ADDAG11999AJ100019199999999AY101011AY201011GA1021+003909999GA2071+007509999GF107991061051004501999999IA1269MA1101691101541MD1810021+9999MW1101REMSYN023 333 42001 82713 86625;MET008NEW NOSIEQDQ01+000000PRSWM2
0223039620999991997010414004+52700-008917SY-MT+0020EINN V0200501N00151007501CN0090001N1+00121-00301101781ADDAG11999AJ100019199999999AY121021AY221021GA1021+004509999GA2071+007509999GF199999061051004501999999IA1269MA1101691101531MD1610061+9999MW1101REMSYN023 333 42001 81716 85625;MET008NEW NOSIEQDQ01+000062SCOTCVQ02+000000PRSWM2
0207039620999991997010415004+52700-008917SY-MT+0020EINN V0200301N00151009601CN0100001N1+00141-00121101791ADDAG11000AJ100019199999999AY121031AY221031GA1021+004809999GA2071+009609999GF107991061051004501999021IA1269MA1101691101541MD1510021+9999MW1101REMSYN023 333 42001 82718 85630;MET008NEW NOSIEQDQ01+000000PRSWM2
0229039620999991997010416004+52700-008917SY-MT+0020EINN V0200101N00101015001CN0100001N1+00091-00111101801ADDAG11999AJ100019199999999AY121011AY221011GA1021+005409999GA2021+009009999GA3071+015009999GF107991071051004501999999IA1269MA1101691101551MD1310011+9999MW1101REMSYN029 333 42001 81718 84635 87645;MET008NEW NOSIEQDQ01+000000PRSWM2
0207039620999991997010417004+52700-008917SY-MT+0020EINN V0200301N00101013501CN0100001N1+00121-00111101821ADDAG11999AJ100019199999999AY121021AY221021GA1021+006009999GA2071+013509999GF107991071051008001999999IA1269MA1101801101571MD1210041+9999MW1101REMSYN023 333 42001 81622 86645;MET008NEW NOSIEQDQ01+000000PRSWM2
0248039620999991997010418004+52700-008917SY-MT+0020EINN V0200301N00151015001CN0080001N1+00101-00131101821ADDAA106000091AA299999929AG13000AJ100019199999999AY121061AY221061GA1021+007509999GA2071+015009999GF108991081051008001999999IA1269KA1120M+00141MA1101801101571MD1210031+9999MW1101REMSYN029 333 10014 42001 83625 87650;MET008NEW NOSIEQDQ01+000000PRSWM2
0207039620999991997010419004+52700-008917SY-MT+0020EINN V0200401N00261015001CN0080001N1+00151-00111101821ADDAG11999AJ100019199999999AY121011AY221011GA1021+007509999GA2071+015009999GF108991081051008001999999IA1269MA1101801101571MD1110021+9999MW1101REMSYN023 333 42001 83625 88650;MET008NEW NOSIEQDQ01+000000PRSWM2
0207039620999991997010420004+52700-008917SY-MT+0020EINN V0200401N00261015001CN0080001N1+00141-00121101861ADDAG11999AJ100019199999999AY121021AY221021GA1021+007509999GA2081+015009999GF108991081051008001999999IA1269MA1101801101611MD1210041+9999MW1101REMSYN023 333 42001 84625 88650;MET008NEW NOSIEQDQ01+000000PRSWM2
0178039620999991997010421004+52700-008917SY-MT+0020EINN V0200301N00211014401CN0080001N1+00111-00121101861ADDAG11000AY121031AY221031GA1021+007509999GA2081+014409999GF108991081051008001999999MA1101801101611MD1210041+9999MW1101REMSYN017 333 82625 88647;MET008NEW NOSIEQDQ01+000000PRSWM2
0178039620999991997010422004+52700-008917SY-MT+0020EINN V0200301N00151014101CN0080001N1+00091-00111101891ADDAG11999AY121011AY221011GA1021+007509999GA2081+014109999GF108991081051012501999999MA1101801101641MD1210071+9999MW1101REMSYN017 333 82630 87646;MET008NEW NOSIEQDQ01+000000PRSWM2
0178039620999991997010423004+52700-008917SY-MT+0020EINN V0200201N00101013801CN0110001N1+00081-00121101891ADDAG11999AY121021AY221021GA1021+009009999GA2071+013809999GF108991081051012501999999MA1101801101641MD1210031+9999MW1101REMSYN017 333 82630 87646;MET008NEW NOSIEQDQ01+000000PRSWM2
0218039620999991997010500004+52700-008917SY-MT+0020EINN V0200201N00211013501CN0120001N1+00081-00151101891ADDAA106000091AG10000AJ199993999999999AY121061AY221061GA1021+009009999GA2071+013509999GF108991081051012501999999IA1269MA1101801101641MD1110031+9999MW1101REMSYN023 333 42997 82630 87645;MET008NEW NOSIEQDQ01+000000PRSWM2
0140039620999991997010501004+52700-008917SY-MT+0020EINN V0200201N00151011401CN0200001N1+00091-00171101891ADDAG11999GA1071+011409999GF108991081051012501999999MA1101801101641MD1410001+9999REMSYN017 333 84638 87650;MET008NEW NOSIEQDQ01+000000PRSWM2
0140039620999991997010502004+52700-008917SY-MT+0020EINN V0200401N00151013501CN0200001N1+00091-00201101901ADDAG11999GA1071+013509999GF108991081051012501999999MA1101801101651MD1210011+9999REMSYN017 333 86638 88650;MET008NEW NOSIEQDQ01+000000PRSWM2
0156039620999991997010503004+52700-008917SY-MT+0020EINN V0200401N00211015001CN0250001N1+00111-00211101891ADDAG11000GA1021+011409999GA2081+015009999GF108991081051012501999999MA1101801101641MD1410001+9999REMSYN017 333 82635 88642;MET008NEW NOSIEQDQ01+000000PRSWM2
0163039620999991997010504004+52700-008917SY-MT+0020EINN V0200301N00261013501CN0250001N1+00101-00191101871ADDAG11999AJ199993999999999GA1081+013509999GF108991081051012501999999IA1269MA1101801101621MD1710021+9999REMSYN017 333 42997 88645;MET008NEW NOSIEQDQ01+000000PRSWM2
0150039620999991997010505004+52700-008917SY-MT+0020EINN V0200301N00211012901CN0250001N1+00091-00201101871ADDAG11999GA1081+012909999GF199999071051012501999999MA1101801101621MD1610031+9999REMSYN011 333 87643;MET008NEW NOSIEQDQ01+000072SCOTCVQ02+000000PRSWM2
0213039620999991997010506004+52700-008917SY-MT+0020EINN V0200401N00151012901CN0250001N1+00091-00051101881ADDAA106000091AG11000AJ199993999999999GA1071+012909999GF107991071051012501999999GJ100009IA1269KA1120N+00061MA1101801101631MD1510011+9999REMSYN035 333 20006 31/00 42997 55000 87643;MET008NEW NOSIEQDQ01+000000PRSWM2
0134039620999991997010507004+52700-008917SY-MT+0020EINN V0200301N00211012901CN0250001N1+00091-00271101871ADDAG11999GA1071+012909999GF107991071051012501999999MA1101801101621MD1010001+9999REMSYN011 333 87643;MET008NEW NOSIEQDQ01+000000PRSWM2
0134039620999991997010508004+52700-008917SY-MT+0020EINN V0200201N00261012601CN0250001N1+00101-00261101891ADDAG11999GA1071+012609999GF107991071051012501999999MA1101801101641MD1310021+9999REMSYN011 333 87643;MET008NEW NOSIEQDQ01+000000PRSWM2
0140039620999991997010509004+52700-008917SY-MT+0020EINN V0200201N00211012901CN0250001N1+00111-00031101931ADDAG11000GA1071+012909999GF108991081051012501999999MA1101801101681MD1310051+9999REMSYN017 333 85642 87650;MET008NEW NOSIEQDQ01+000000PRSWM2
0179039620999991997010510004+52700-008917SY-MT+0020EINN V0200301N00211012601CN0250001N1+00111-00091101951ADDAG11999AJ199993999999999GA1081+012609999GF199999071051012501999999IA1269MA1101901101701MD1210081+9999REMSYN017 333 42997 87648;MET008NEW NOSIEQDQ01+000072SCOTCVQ02+000000PRSWM2
0177039620999991997010511004+52700-008917SY-MT+0020EINN V0200301N002610120019N0250001N1+00161-00031101981ADDAG11999AJ199993999999999GA1021+010509059GF108991081051012501999999IA1269MA1101901101731MD1210091+9999REMSYN023 333 42997 82635 88650;MET016NEW CAVOK NOSIG;EQDQ01+000000PRSWM2
0196039620999991997010512004+52700-008917SY-MT+0020EINN V0200401N00211015001CN0250001N1+00181-00131101961ADDAA106000091AG11000AJ199993999999999GA1021+012009999GA2081+015009999GF108991081051012501999999IA1269MA1101901101711MD1010031+9999REMSYN023 333 42997 83640 88656;MET008NEW NOSIEQDQ01+000000PRSWM2
0185039620999991997010513004+52700-008917SY-MT+0020EINN V0200501N00151018001CN0250001N1+00201-00141101941ADDAG11999AJ199993999999999GA1021+010509999GA2081+018009999GF108991081051012501999999IA1269MA1101901101691MD1810011+9999REMSYN023 333 42997 81630 88656;MET008NEW NOSIEQDQ01+000000PRSWM2
0163039620999991997010514004+52700-008917SY-MT+0020EINN V0200401N00151013501CN0200001N1+00231-00141101911ADDAG11999AJ199993999999999GA1071+013509999GF107991071051012501999999IA1269MA1101901101661MD1710071+9999REMSYN017 333 42997 87645;MET008NEW NOSIEQDQ01+000000PRSWM2
0163039620999991997010515004+52700-008917SY-MT+0020EINN V0200801N00211013501CN0200001N1+00241-00161101951ADDAG11000AJ199993999999999GA1071+013509999GF107991071051012501999999IA1269MA1101901101701MD1510011+9999REMSYN017 333 42997 87645;MET008NEW NOSIEQDQ01+000000PRSWM2
0163039620999991997010516004+52700-008917SY-MT+0020EINN V0200601N00151013501CN0200001N1+00201-00181101971ADDAG11999AJ199993999999999GA1071+013509999GF107991071051012501999999IA1269MA1101901101721MD1310031+9999REMSYN017 333 42997 87645;MET008NEW NOSIEQDQ01+000000PRSWM2
0179039620999991997010517004+52700-008917SY-MT+0020EINN V0200601N00151220001CN0200001N1+00161-00291102011ADDAG11999AJ199993999999999GA1071+013509999GF199999031051012501001001IA1269MA1101901101761MD1210101+9999REMSYN017 333 42997 83645;MET008NEW NOSIEQDQ01+000032SCOTCVQ02+000000PRSWM2
0180039620999991997010518004+52700-008917SY-MT+0020EINN V0200701N00211012601CN0200001N1+00201-00411102031ADDAA106000091AG11000GA1071+012609999GF199999061051012501999999KA1120M+00281MA1102001101781MD1210081+9999REMSYN017 333 10028 86642;MET008NEW NOSIEQDQ01+000062SCOTCVQ02+000000PRSWM2
0179039620999991997010519004+52700-008917SY-MT+0020EINN V0200601N00151012601CN0200001N1+00191-00391102041ADDAG11999AJ199993999999999GA1071+012609999GF199999061051012501999999IA1269MA1102001101791MD1210071+9999REMSYN017 333 42997 86642;MET008NEW NOSIEQDQ01+000062SCOTCVQ02+000000PRSWM2
0163039620999991997010520004+52700-008917SY-MT+0020EINN V0200201N00101012601CN0200001N1+00161-00321102071ADDAG11999AJ199993999999999GA1071+012609999GF107991071051012501999999IA1269MA1102001101821MD1210061+9999REMSYN017 333 42997 87642;MET008NEW NOSIEQDQ01+000000PRSWM2
0163039620999991997010521004+52700-008917SY-MT+0020EINN V0200201N00151012601CN0200001N1+00151-00201102081ADDAG11000AJ199993999999999GA1071+012609999GF107991071051012501999999IA1269MA1102001101831MD1210051+9999REMSYN017 333 42997 87642;MET008NEW NOSIEQDQ01+000000PRSWM2
0163039620999991997010522004+52700-008917SY-MT+0020EINN V0200401N00151012601CN0200001N1+00151-00171102091ADDAG11999AJ199993999999999GA1071+012609999GF107991071051012501999999IA1269MA1102001101841MD1110051+9999REMSYN017 333 42997 87642;MET008NEW NOSIEQDQ01+000000PRSWM2
0163039620999991997010523004+52700-008917SY-MT+0020EINN V0200301N00211012601CN0200001N1+00171-00211102111ADDAG11999AJ199993999999999GA1071+012609999GF107991071051012501999999IA1269MA1102101101861MD1110041+9999REMSYN017 333 42997 87642;MET008NEW NOSIEQDQ01+000000PRSWM2
0174039620999991997010600004+52700-008917SY-MT+0020EINN V0200301N00211012601CN0200001N1+00151-00231102131ADDAA106000091AG11000AJ199993999999999GA1071+012609999GF107991071051012501999999IA1269MA1102101101881MD1210051+9999REMSYN017 333 42997 87642;MET008NEW NOSIEQDQ01+000000PRSWM2
0134039620999991997010601004+52700-008917SY-MT+0020EINN V0200301N00151012301CN0250001N1+00141-00251102151ADDAG11999GA1071+012309999GF107991071051012501999999MA1102101101901MD1210061+9999REMSYN011 333 87640;MET008NEW NOSIEQDQ01+000000PRSWM2
0134039620999991997010602004+52700-008917SY-MT+0020EINN V0200301N00151012301CN0250001N1+00121-00201102141ADDAG11999GA1071+012309999GF107991071051012501999999MA1102101101891MD1010031+9999REMSYN011 333 87641;MET008NEW NOSIEQDQ01+000000PRSWM2
0163039620999991997010603004+52700-008917SY-MT+0020EINN V0200301N00151012001CN0250001N1+00131-00261102131ADDAG11000AJ199993999999999GA1071+012009999GF108991081051012501999999IA1269MA1102101101881MD1010001+9999REMSYN017 333 42997 88639;MET008NEW NOSIEQDQ01+000000PRSWM2
0179039620999991997010604004+52700-008917SY-MT+0020EINN V0200301N00211011701CN0250001N1+00131-00221102111ADDAG11999AJ199993999999999GA1081+011709999GF199999071051012501999999IA1269MA1102101101861MD1710041+9999REMSYN017 333 42997 87638;MET008NEW NOSIEQDQ01+000072SCOTCVQ02+000000PRSWM2
0134039620999991997010605004+52700-008917SY-MT+0020EINN V0200401N00151011701CN0250001N1+00151-00201102121ADDAG11999GA1071+011709999GF108991081051012501999999MA1102101101871MD1610021+9999REMSYN011 333 88637;MET008NEW NOSIEQDQ01+000000PRSWM2
0225039620999991997010606004+52700-008917SY-MT+0020EINN V0200301N00211011401CN0250001N1+00201-00211102111ADDAA106000091AG11000AJ199993999999999GA1081+011409999GF108991081051012501999999GJ100009IA1269IA2999+00009KA1120N+00111MA1102001101861MD1610021+9999REMSYN035 333 20011 3/000 42997 55000 88638;MET008NEW NOSIEQDQ01+000000PRSWM2
0163039620999991997010607004+52700-008917SY-MT+0020EINN V0200501N00101011401CN0250001N1+00191-00221102131ADDAG11999AJ199993999999999GA1081+011409999GF108991081051012501999999IA1269MA1102101101881MD1310021+9999REMSYN017 333 42997 88638;MET008NEW NOSIEQDQ01+000000PRSWM2
0163039620999991997010608004+52700-008917SY-MT+0020EINN V0200501N00101011401CN0250001N1+00221-00221102141ADDAG11999AJ199993999999999GA1081+011409999GF108991081051012501999999IA1269MA1102101101891MD1210021+9999REMSYN017 333 42997 88638;MET008NEW NOSIEQDQ01+000000PRSWM2
0163039620999991997010609004+52700-008917SY-MT+0020EINN V0200601N00151011401CN0200001N1+00191-00151102211ADDAG11000AJ199993999999999GA1081+011409999GF108991081051012501999999IA1269MA1102101101961MD1310101+9999REMSYN017 333 42997 88638;MET008NEW NOSIEQDQ01+000000PRSWM2
0163039620999991997010610004+52700-008917SY-MT+0020EINN V0200501N00151010801CN0200001N1+00221-00161102231ADDAG11999AJ199993999999999GA1081+010809999GF108991081051012501999999IA1269MA1102201101981MD1210101+9999REMSYN017 333 42997 88638;MET008NEW NOSIEQDQ01+000000PRSWM2
0134039620999991997010611004+52700-008917SY-MT+0020EINN V0200501N00151012001CN0200001N1+00231-00111102271ADDAG11999GA1081+012009999GF108991081051012501999999MA1102201102021MD1210131+9999REMSYN011 333 88640;MET008NEW NOSIEQDQ01+000000PRSWM2
0180039620999991997010612004+52700-008917SY-MT+0020EINN V0200501N00151012001CN0250001N1+00251-00121102221ADDAA106000091AG11000AJ199993999999999GA1081+012009999GF108991081051012501999999IA1269MA1102201101981MD1010021+9999REMSYN023 333 42997 82635 88650;MET008NEW NOSIEQDQ01+000000PRSWM2
0156039620999991997010613004+52700-008917SY-MT+0020EINN V0200301N00151015001CN0250001N1+00271-00031102211ADDAG11999GA1021+010509999GA2081+015009999GF108991081051012501999999MA1102201101971MD1810011+9999REMSYN017 333 82635 88650;MET008NEW NOSIEQDQ01+000000PRSWM2
0185039620999991997010614004+52700-008917SY-MT+0020EINN V0200501N00151015001CN0250001N1+00291-00071102191ADDAG11999AJ199993999999999GA1021+010509999GA2081+015009999GF108991081051012501999999IA1269MA1102101101951MD1710071+9999REMSYN023 333 42997 82635 88650;MET008NEW NOSIEQDQ01+000000PRSWM2
0185039620999991997010615004+52700-008917SY-MT+0020EINN V0200501N00101015001CN0200001N1+00301-00031102191ADDAG11000AJ199993999999999GA1021+010509999GA2081+015009999GF108991081051012501999999IA1269MA1102101101951MD1610031+9999REMSYN023 333 42997 82635 88650;MET008NEW NOSIEQDQ01+000000PRSWM2
0156039620999991997010616004+52700-008917SY-MT+0020EINN V0200801N00051015001CN0150001N1+00301+00031102191ADDAG11999GA1021+010509999GA2081+015009999GF108991081051012501999999MA1102201101951MD1610021+9999REMSYN017 333 83635 88650;MET008NEW NOSIEQDQ01+000000PRSWM2
0185039620999991997010617004+52700-008917SY-MT+0020EINN V0200701N00101015001CN0080001N1+00281-00021102221ADDAG11999AJ199993999999999GA1021+010509999GA2081+015009999GF108991081051012501999999IA1269MA1102201101981MD1310031+9999REMSYN023 333 42997 86634 88650;MET008NEW NOSIEQDQ01+000000PRSWM2
0215039620999991997010618004+52700-008917SY-MT+0020EINN V0200701N00101010201CN0150001N1+00301-00181102231ADDAA106000091AG11000AJ199993999999999GA1071+010209999GA2081+015009999GF108991081051012501999999IA1269KA1120M+00371MA1102201101991MD1010041+9999REMSYN029 333 10037 42997 85835 86650;MET008NEW NOSIEQDQ01+000000PRSWM2
0185039620999991997010619004+52700-008917SY-MT+0020EINN V0200801N00101010501CN0150001N1+00291-00131102241ADDAG11999AJ199993999999999GA1071+010509999GA2081+015009999GF108991081051012501999999IA1269MA1102201102001MD1010051+9999REMSYN023 333 42997 85636 86650;MET008NEW NOSIEQDQ01+000000PRSWM2
0156039620999991997010620004+52700-008917SY-MT+0020EINN V0200601N00101010801CN0150001N1+00281-00111102241ADDAG11999GA1071+010809999GA2081+015009999GF108991081051012501999999MA1102201102001MD1110021+9999REMSYN017 333 85636 88650;MET008NEW NOSIEQDQ01+000000PRSWM2
0185039620999991997010621004+52700-008917SY-MT+0020EINN V0201001N00151010501CN0150001N1+00311-00211102261ADDAG11000AJ199993999999999GA1071+010509999GA2081+015009999GF108991081051012501999999IA1269MA1102201102021MD1210031+9999REMSYN023 333 42997 86635 88650;MET008NEW NOSIEQDQ01+000000PRSWM2
0185039620999991997010622004+52700-008917SY-MT+0020EINN V0200901N00101010201CN0150001N1+00271-00191102241ADDAG11999AJ199993999999999GA1071+010209999GA2081+015009999GF108991081051012501999999IA1269MA1102201102001MD1010001+9999REMSYN023 333 42997 87635 88650;MET008NEW NOSIEQDQ01+000000PRSWM2
0163039620999991997010623004+52700-008917SY-MT+0020EINN V0200501N00151010201CN0200001N1+00271-00191102221ADDAG11999AJ199993999999999GA1081+010209999GF108991081051012501999999IA1269MA1102201101981MD1810021+9999REMSYN017 333 42997 88634;MET008NEW NOSIEQDQ01+000000PRSWM2
0174039620999991997010700004+52700-008917SY-MT+0020EINN V0200601N00101010201CN0200001N1+00291-00261102211ADDAA106000091AG11000AJ199993999999999GA1071+010209999GF108991081051012501999999IA1259MA1102201101971MD1710051+9999REMSYN017 333 41997 88633;MET008NEW NOSIEQDQ01+000000PRSWM2
0163039620999991997010701004+52700-008917SY-MT+0020EINN V0200601N00151009901CN0200001N1+00271-00131102181ADDAG11999AJ199993999999999GA1081+009909999GF108991081051012501999999IA1259MA1102101101941MD1710061+9999REMSYN017 333 41997 88633;MET008NEW NOSIEQDQ01+000000PRSWM2
0163039620999991997010702004+52700-008917SY-MT+0020EINN V0200501N00151009901CN0150001N1+00241-00101102161ADDAG11999AJ199993999999999GA1081+009909999GF108991081051012501999999IA1259MA1102101101911MD1710071+9999REMSYN017 333 41997 88633;MET008NEW NOSIEQDQ01+000000PRSWM2
0163039620999991997010703004+52700-008917SY-MT+0020EINN V0200701N00151010201CN0150001N1+00321-00221102131ADDAG11000AJ199993999999999GA1081+010209999GF108991081051012501999999IA1259MA1102101101891MD1710081+9999REMSYN017 333 41997 88635;MET008NEW NOSIEQDQ01+000000PRSWM2
0163039620999991997010704004+52700-008917SY-MT+0020EINN V0200701N00151009901CN0150001N1+00311-00171102101ADDAG11999AJ199993999999999GA1081+009909999GF108991081051012501999999IA1259MA1102101101861MD1710081+9999REMSYN017 333 41997 88632;MET008NEW NOSIEQDQ01+000000PRSWM2
0185039620999991997010705004+52700-008917SY-MT+0020EINN V0200901N00151009301CN0140001N1+00321-00131102071ADDAG11999AJ199993999999999AY121021AY221021GA1081+009309999GF108991081051012501999999IA1259MA1102001101831MD1710081+9999MW1101REMSYN017 333 41997 88632;MET008NEW NOSIEQDQ01+000000PRSWM2
0247039620999991997010706004+52700-008917SY-MT+0020EINN V0201001N00151009601CN0140001N1+00301-00121102051ADDAA106000091AG11000AJ199993999999999AY121061AY221061GA1081+009609999GF108991081051012501999999GJ100009IA1259IA2999+00209KA1120N+00241MA1102001101811MD1710081+9999MW1101REMSYN035 333 20024 3/002 41997 55000 88631;MET008NEW NOSIEQDQ01+000000PRSWM2
0185039620999991997010707004+52700-008917SY-MT+0020EINN V0200801N00151009901CN0120001N1+00291-00131102011ADDAG11999AJ199992999999999AY121011AY221011GA1081+009909999GF108991081051012501999999IA1259MA1102001101771MD1710091+9999MW1101REMSYN017 333 41998 88633;MET008NEW NOSIEQDQ01+000000PRSWM2
0185039620999991997010708004+52700-008917SY-MT+0020EINN V0200901N00151009601CN0120001N1+00301-00121101991ADDAG11999AJ199992999999999AY121021AY221021GA1081+009609999GF108991081051012501999999IA1259MA1101901101751MD1710081+9999MW1101REMSYN017 333 41998 88630;MET008NEW NOSIEQDQ01+000000PRSWM2
0185039620999991997010709004+52700-008917SY-MT+0020EINN V0200601N00101009001CN0080001N1+00291-00131102011ADDAG11000AJ199992999999999AY121031AY221031GA1081+009009999GF108991081051012501999999IA1259MA1102001101771MD1510041+9999MW1101REMSYN017 333 41998 88630;MET008NEW NOSIEQDQ01+000000PRSWM2
0178039620999991997010710004+52700-008917SY-MT+0020EINN V0200701N00101009001CN0080001N1+00301-00121102001ADDAG11999AY121011AY221011GA1071+009009999GA2081+010809999GF108991081051012501999999MA1102001101761MD1510011+9999MW1101REMSYN017 333 86830 88636;MET008NEW NOSIEQDQ01+000000PRSWM2
0207039620999991997010711004+52700-008917SY-MT+0020EINN V0200901N00211009001CN0060001N1+00341-00081101991ADDAG11999AJ199992999999999AY121021AY221021GA1071+009009999GA2081+012009999GF108991081051012501999999IA1259MA1102001101751MD1010001+9999MW1101REMSYN023 333 41998 85630 88640;MET008NEW NOSIEQDQ01+000000PRSWM2
0218039620999991997010712004+52700-008917SY-MT+0020EINN V0200801N00261009901CN0060001N1+00351-00121101901ADDAA106000091AG11000AJ199992999999999AY121061AY221061GA1071+009909999GA2081+013509999GF108991081051012501999999IA1259MA1101901101661MD1810111+9999MW1101REMSYN023 333 41998 83635 88545;MET008NEW NOSIEQDQ01+000000PRSWM2
0207039620999991997010713004+52700-008917SY-MT+0020EINN V0200901N00261013501CN0060001N1+00331-00111101841ADDAG11999AJ199992999999999AY121011AY221011GA1021+010509999GA2081+013509999GF108991081051012501999999IA1259MA1101801101601MD1810161+9999MW1101REMSYN023 333 41998 83635 87650;MET008NEW NOSIEQDQ01+000000PRSWM2
0178039620999991997010714004+52700-008917SY-MT+0020EINN V0200801N00261015001CN0070001N1+00321-00131101771ADDAG11999AY121021AY221021GA1021+010509999GA2071+015009999GF108991081051012501999999MA1101691101531MD1710221+9999MW1101REMSYN017 333 82635 88650;MET008NEW NOSIEQDQ01+000000PRSWM2
0194039620999991997010715004+52700-008917SY-MT+0020EINN V0200901N00261015001CN0070001N1+00301-00151101731ADDAG11000AY121031AY221031GA1021+010509999GA2081+015009999GF199999071051012501999999MA1101691101491MD1710171+9999MW1101REMSYN017 333 82635 87650;MET008NEW NOSIEQDQ01+000072SCOTCVQ02+000000PRSWM2
0194039620999991997010716004+52700-008917SY-MT+0020EINN V0200901N00211015001CN0070001N1+00281-00081101731ADDAG11999AY121011AY221011GA1021+010509999GA2071+015009999GF199999061051012501999999MA1101691101491MD1610111+9999MW1101REMSYN017 333 82635 86650;MET008NEW NOSIEQDQ01+000062SCOTCVQ02+000000PRSWM2
0178039620999991997010717004+52700-008917SY-MT+0020EINN V0201001N00261015001CN0060001N1+00281-00141101721ADDAG11999AY121021AY221021GA1021+010509999GA2071+015009999GF108991081051012501999999MA1101691101481MD1610051+9999MW1101REMSYN017 333 85633 87650;MET008NEW NOSIEQDQ01+000000PRSWM2
0180039620999991997010718004+52700-008917SY-MT+0020EINN V0200901N00261009901CN0080001N1+00241-00331101711ADDAA106000091AG11000GA1071+009909999GA2071+015009999GF107991071051012501999999KA1120M+00351MA1101691101471MD1710021+9999REMSYN017 333 10035 87632;MET008NEW NOSIEQDQ01+000000PRSWM2
0134039620999991997010719004+52700-008917SY-MT+0020EINN V0200801N00261008701CN0120001N1+00191-00321101711ADDAG11999GA1071+008709999GF107991071051012501999999MA1101691101471MD1610021+9999REMSYN011 333 87630;MET008NEW NOSIEQDQ01+000000PRSWM2
0134039620999991997010720004+52700-008917SY-MT+0020EINN V0200801N00311008401CN0120001N1+00141-00381101671ADDAG11999GA1071+008409999GF107991071051008001999999MA1101591101421MD1710061+9999REMSYN011 333 87628;MET008NEW NOSIEQDQ01+000000PRSWM2
0134039620999991997010721004+52700-008917SY-MT+0020EINN V0200801N00311008101CN0180001N1+00091-00441101631ADDAG11000GA1071+008109999GF107991071051008001999999MA1101591101381MD1710091+9999REMSYN011 333 87627;MET008NEW NOSIEQDQ01+000000PRSWM2
0134039620999991997010722004+52700-008917SY-MT+0020EINN V0201001N00261008101CN0150001N1+00101-00361101611ADDAG11999GA1071+008109999GF107991071051008001999999MA1101591101361MD1710111+9999REMSYN011 333 87626;MET008NEW NOSIEQDQ01+000000PRSWM2
0134039620999991997010723004+52700-008917SY-MT+0020EINN V0201001N00261007501CN0150001N1+00101-00361101611ADDAG11999GA1071+007509999GF107991071051008001999999MA1101591101361MD1610061+9999REMSYN011 333 87625;MET008NEW NOSIEQDQ01+000000PRSWM2
0145039620999991997010800004+52700-008917SY-MT+0020EINN V0201101N00211007201CN0200001N1+00071-00401101621ADDAA106000091AG11000GA1071+007209999GF107991071051008001999999MA1101591101371MD1510011+9999REMSYN011 333 87624;MET008NEW NOSIEQDQ01+000000PRSWM2
0134039620999991997010801004+52700-008917SY-MT+0020EINN V0201101N00261007801CN0200001N1+00051-00381101571ADDAG11999GA1071+007809999GF107991071051008001999999MA1101491101321MD1810041+9999REMSYN011 333 87626;MET008NEW NOSIEQDQ01+000000PRSWM2
0151039620999991997010802004+52700-008917SY-MT+0020EINN V0200801N00151008101CN0200001N1+00031-00371101511ADDAG11999GA1081+008109999GF108991081051008001999999MA1101491101261MD1810101+9999REMSYN017 333 82621 88625;MET019NEW 04 Q1015 NOSIG;EQDQ01+000000PRSWM2
0156039620999991997010803004+52700-008917SY-MT+0020EINN V0200801N00151008401CN0200001N1+00021-00461101421ADDAG11000GA1021+006609999GA2081+008409999GF108991081051008001999999MA1101391101171MD1810201+9999REMSYN017 333 82622 88628;MET008NEW NOSIEQDQ01+000000PRSWM2
0134039620999991997010804004+52700-008917SY-MT+0020EINN V0200701N00261009001CN0200001N1+00031-00441101311ADDAG11999GA1081+009009999GF108991081051008001999999MA1101291101061MD1810261+9999REMSYN011 333 88629;MET008NEW NOSIEQDQ01+000000PRSWM2
0134039620999991997010805004+52700-008917SY-MT+0020EINN V0200801N00211008401CN0200001N1+00061-00411101271ADDAG11999GA1081+008409999GF108991081051008001999999MA1101291101021MD1610241+9999REMSYN011 333 88626;MET008NEW NOSIEQDQ01+000000PRSWM2
0202039620999991997010806004+52700-008917SY-MT+0020EINN V0201001N00261008101CN0200001N1+00101-00541101231ADDAA106000091AG11000GA1081+008109999GF108991081051008001999999GJ100009IA1099IA2999+00009KA1120N+00011MA1101191100981MD1710191+9999REMSYN029 333 20001 31100 55000 88628;MET008NEW NOSIEQDQ01+000000PRSWM2
0134039620999991997010807004+52700-008917SY-MT+0020EINN V0201001N00261008701CN0200001N1+00081-00501101201ADDAG11999GA1081+008709999GF108991081051008001999999MA1101191100951MD1610111+9999REMSYN011 333 88627;MET008NEW NOSIEQDQ01+000000PRSWM2
0134039620999991997010808004+52700-008917SY-MT+0020EINN V0200801N00261008101CN0200001N1+00061-00441101171ADDAG11999GA1081+008109999GF108991081051008001999999MA1101081100921MD1710101+9999REMSYN011 333 88626;MET008NEW NOSIEQDQ01+000000PRSWM2
0134039620999991997010809004+52700-008917SY-MT+0020EINN V0201001N00311006901CN0200001N1+00031-00641101191ADDAG11000GA1081+006909999GF108991081051008001999999MA1101081100941MD1510041+9999REMSYN011 333 88626;MET008NEW NOSIEQDQ01+000000PRSWM2
0150039620999991997010810004+52700-008917SY-MT+0020EINN V0201101N00261007801CN0200001N1-00041-00611101181ADDAG11999GA1081+007809999GF199999071051008001999999MA1101081100931MD1810021+9999REMSYN011 333 87626;MET008NEW NOSIEQDQ01+000072SCOTCVQ02+000000PRSWM2
0134039620999991997010811004+52700-008917SY-MT+0020EINN V0201101N00261007801CN0200001N1+00041-00511101181ADDAG11999GA1071+007809999GF107991071051008001999999MA1101081100931MD1310011+9999REMSYN011 333 87628;MET008NEW NOSIEQDQ01+000000PRSWM2
0100039620999991997010811304+52700-008917FM-16+0020EINN V0201101N003110072019N0112651N1+99999+99999999999ADDAG10999GA1071+007209999GF107991999999999999999999REMMET020NEW 00-M03 Q1011 NOSEQDQ01+000000PRSWM2
0167039620999991997010812004+52700-008917SY-MT+0020EINN V0201101N00211008401CN0150001N1+00041-00071101131ADDAA106000091AG14000GA1021+007209999GA2071+008409999GF107991071051008001999999MA1101081100881MD1810061+9999REMSYN017 333 83624 87628;MET008NEW NOSIEQDQ01+000000PRSWM2
0172039620999991997010813004+52700-008917SY-MT+0020EINN V0201101N00211008401CN0120001N1+00051-00351101111ADDAG11999AY121011AY221011GA1021+007209999GA2071+008409999GF107991071051008001999999MA1101081100861MD1810071+9999MW1101REMSYN011 333 87628;MET008NEW NOSIEQDQ01+000000PRSWM2
0172039620999991997010814004+52700-008917SY-MT+0020EINN V0201001N00211007801CN0120001N1+00021-00351101061ADDAG11999AY121021AY221021GA1021+006009999GA2071+007809999GF107991071051008001999999MA1101021100811MD1710121+9999MW1101REMSYN011 333 87625;MET008NEW NOSIEQDQ01+000000PRSWM2
0156039620999991997010815004+52700-008917SY-MT+0020EINN V0201001N00151006901CN0120001N1+00041-00391101011ADDAG11000AY121031AY221031GA1071+006909999GF107991071051008001999999MA1101021100761MD1710121+9999MW1101REMSYN011 333 87623;MET008NEW NOSIEQDQ01+000000PRSWM2
0178039620999991997010816004+52700-008917SY-MT+0020EINN V0200801N00211012001CN0080001N1+00031-00371100971ADDAG11999AY121011AY221011GA1021+006909999GA2071+012009999GF107991071051008001999999MA1100911100721MD1710141+9999MW1101REMSYN017 333 82623 86640;MET008NEW NOSIEQDQ01+000000PRSWM2
0178039620999991997010817004+52700-008917SY-MT+0020EINN V0200901N00151009001CN0070001N1+00051-00381100961ADDAG11999AY121021AY221021GA1021+006009999GA2071+009009999GF107991071051008001999999MA1100911100711MD1610101+9999MW1101REMSYN017 333 84621 86632;MET008NEW NOSIEQDQ01+000000PRSWM2
0208039620999991997010818004+52700-008917SY-MT+0020EINN V0201001N00211006001CN0070001N1+00051-00231100961ADDAA106000091AG11000AY121061AY221061GA1071+006009999GA2071+010509999GF108991081061004501999999KA1120M+00081MA1100911100711MD1610051+9999MW1101REMSYN023 333 10008 86718 87635;MET008NEW NOSIEQDQ01+000000PRSWM2
0178039620999991997010819004+52700-008917SY-MT+0020EINN V0200901N00151005401CN0070001N1+00051-00231100961ADDAG11999AY121011AY221011GA1071+005409999GA2071+010509999GF108991081061004501999999MA1100911100711MD1610011+9999MW1101REMSYN017 333 86718 87635;MET008NEW NOSIEQDQ01+000000PRSWM2
0178039620999991997010820004+52700-008917SY-MT+0020EINN V0200901N00151005401CN0070001N1+00041-00281100951ADDAG11999AY121021AY221021GA1071+005409999GA2071+010509999GF108991081061004501999999MA1100911100701MD1810011+9999MW1101REMSYN017 333 87718 87635;MET008NEW NOSIEQDQ01+000000PRSWM2
0156039620999991997010821004+52700-008917SY-MT+0020EINN V0201001N00211005101CN0070001N1+00051-00161100961ADDAG11000AY121031AY221031GA1081+005109999GF108991081061004501999999MA1100911100711MD1510001+9999MW1101REMSYN011 333 88718;MET008NEW NOSIEQDQ01+000000PRSWM2
0156039620999991997010822004+52700-008917SY-MT+0020EINN V0200801N00211005401CN0070001N1+00061-00151100971ADDAG11999AY121011AY221011GA1081+005409999GF108991081061004501999999MA1100911100721MD1310011+9999MW1101REMSYN011 333 88718;MET008NEW NOSIEQDQ01+000000PRSWM2
0156039620999991997010823004+52700-008917SY-MT+0020EINN V0200901N00211006001CN0080001N1+00081-00181100971ADDAG11999AY121021AY221021GA1081+006009999GF108991081051008001999999MA1100911100721MD1110021+9999MW1101REMSYN011 333 88620;MET008NEW NOSIEQDQ01+000000PRSWM2
0167039620999991997010900004+52700-008917SY-MT+0020EINN V0200701N00151006601CN0120001N1+00071-00161101011ADDAA106000091AG11000AY121061AY221061GA1081+006609999GF108991081051008001999999MA1100911100761MD1310051+9999MW1101REMSYN011 333 88622;MET008NEW NOSIEQDQ01+000000PRSWM2
0172039620999991997010901004+52700-008917SY-MT+0020EINN V0200401N00101009601CN0140001N1+00031-00181101001ADDAG11999AY121011AY221011GA1021+006609999GA2071+009609999GF108991081051012501999999MA1100911100751MD1010031+9999MW1101REMSYN011 333 88632;MET008NEW NOSIEQDQ01+000000PRSWM2
0156039620999991997010902004+52700-008917SY-MT+0020EINN V0200601N00211009601CN0140001N1+00061-00141101001ADDAG11999AY121021AY221021GA1081+009609999GF108991081051012501999999MA1100911100751MD1010031+9999MW1101REMSYN011 333 88630;MET008NEW NOSIEQDQ01+000000PRSWM2
0156039620999991997010903004+52700-008917SY-MT+0020EINN V0200301N00211009001CN0140001N1+00081-00111101011ADDAG11000AY121031AY221031GA1081+009009999GF108991081051012501999999MA1100911100761MD1510001+9999MW1101REMSYN011 333 88630;MET008NEW NOSIEQDQ01+000000PRSWM2
0156039620999991997010904004+52700-008917SY-MT+0020EINN V0200501N00151009001CN0120001N1+00051-00051100991ADDAG11999AY121011AY221011GA1081+009009999GF108991081051012501999999MA1100911100741MD1810011+9999MW1101REMSYN011 333 88630;MET008NEW NOSIEQDQ01+000000PRSWM2
0156039620999991997010905004+52700-008917SY-MT+0020EINN V0200401N00211008701CN0120001N1+00081-00061100991ADDAG11999AY121021AY221021GA1081+008709999GF108991081051008001999999MA1100911100741MD1710011+9999MW1101REMSYN011 333 88629;MET008NEW NOSIEQDQ01+000000PRSWM2
0202039620999991997010906004+52700-008917SY-MT+0020EINN V0200501N00151007801CN0180001N1+00111-00061101021ADDAA106000091AG11000GA1081+007809999GF108991081051008001999999GJ100009IA1099IA2999+00009KA1120N+00031MA1101021100771MD1310011+9999REMSYN029 333 20003 31100 55000 88625;MET008NEW NOSIEQDQ01+000000PRSWM2
0134039620999991997010907004+52700-008917SY-MT+0020EINN V0200401N00151007501CN0180001N1+00121-00271101071ADDAG11999GA1081+007509999GF108991081051008001999999MA1101021100821MD1310081+9999REMSYN011 333 88625;MET008NEW NOSIEQDQ01+000000PRSWM2
0134039620999991997010908004+52700-008917SY-MT+0020EINN V0200601N00101007501CN0180001N1+00161-00291101131ADDAG11999GA1081+007509999GF108991081051008001999999MA1101081100881MD1310141+9999REMSYN011 333 88626;MET008NEW NOSIEQDQ01+000000PRSWM2
0156039620999991997010909004+52700-008917SY-MT+0020EINN V0200601N00101008101CN0120001N1+00201-00341101231ADDAG11000AY121031AY221031GA1081+008109999GF108991081051008001999999MA1101081100981MD1310211+9999MW1051REMSYN011 333 88628;MET008NEW NOSIEQDQ01+000000PRSWM2
0156039620999991997010910004+52700-008917SY-MT+0020EINN V0200601N00101008401CN0120001N1+00181-00201101231ADDAG11999AY121011AY221011GA1081+008409999GF108991081051012501999999MA1101191100981MD1110161+9999MW1051REMSYN011 333 88630;MET008NEW NOSIEQDQ01+000000PRSWM2
0178039620999991997010911004+52700-008917SY-MT+0020EINN V0200601N00101009001CN0090001N1+00221-00151101231ADDAG11999AY121021AY221021GA1071+009009999GA2081+015009999GF108991081051012501999999MA1101191100981MD1110101+9999MW1051REMSYN017 333 86630 88650;MET008NEW NOSIEQDQ01+000000PRSWM2
0189039620999991997010912004+52700-008917SY-MT+0020EINN V0200401N00051009601CN0100001N1+00291-00131101251ADDAA106000091AG11000AY121061AY221061GA1071+009609999GA2071+015009999GF108991081051012501999999MA1101191101011MD1310031+9999MW1051REMSYN017 333 87630 87650;MET008NEW NOSIEQDQ01+000000PRSWM2
0178039620999991997010913004+52700-008917SY-MT+0020EINN V0203101N00101008401CN0100001N1+00261-00011101311ADDAG11999AY121011AY221011GA1071+008409999GA2071+015009999GF108991081051008001999999MA1101191101071MD1310091+9999MW1101REMSYN017 333 86628 87650;MET008NEW NOSIEQDQ01+000000PRSWM2
0178039620999991997010914004+52700-008917SY-MT+0020EINN V0200601N00101008401CN0100001N1+00291-00071101251ADDAG11999AY121021AY221021GA1071+008409999GA2071+015009999GF108991081051008001999999MA1101191101011MD1010031+9999MW1101REMSYN017 333 85628 87650;MET008NEW NOSIEQDQ01+000000PRSWM2
0178039620999991997010915004+52700-008917SY-MT+0020EINN V0200601N00101015001CN0100001N1+00351-00091101231ADDAG11000AY121031AY221031GA1021+008409999GA2071+015009999GF108991081051008001999999MA1101191100991MD1610021+9999MW1101REMSYN017 333 84628 87650;MET008NEW NOSIEQDQ01+000000PRSWM2
0178039620999991997010916004+52700-008917SY-MT+0020EINN V0200501N00051015001CN0100001N1+00331-00021101271ADDAG11999AY121011AY221011GA1021+009009999GA2071+015009999GF108991081051008001999999MA1101191101031MD1510041+9999MW1101REMSYN017 333 85630 87650;MET008NEW NOSIEQDQ01+000000PRSWM2
0178039620999991997010917004+52700-008917SY-MT+0020EINN V0201201N00051009001CN0060001N1+00311-00021101361ADDAG11999AY121021AY221021GA1071+009009999GA2071+015009999GF108991081051012501999999MA1101191101121MD1310111+9999MW1101REMSYN017 333 85630 87650;MET008NEW NOSIEQDQ01+000000PRSWM2
0208039620999991997010918004+52700-008917SY-MT+0020EINN V0200801N00101012001CN0050001N1+00291-00011101321ADDAA106000091AG11000AY121061AY221061GA1021+009009999GA2071+012009999GF107991071051012501999999KA1120M+00361MA1101291101081MD1010091+9999MW1101REMSYN023 333 10036 83630 86639;MET008NEW NOSIEQDQ01+000000PRSWM2
0153039620999991997010919004+52700-008917SY-MT+0020EINN V0200801N00101011701CN0050001N1+00261-00011101331ADDAG11999AY121011AY221011GA1021+007509999GA2071+011709999GF107991071051012501999999MA1101291101091MD1110061+9999MW1101REMSYN011 333 87639;MET008NEW NOSI
0159039620999991997010920004+52700-008917SY-MT+0020EINN V0200901N00151015001CN0050001N1+00261-00011101291ADDAG11999AY121021AY221021GA1021+009009999GA2071+015009999GF107991071051012501999999MA1101291101051MD1710071+9999MW1101REMSYN017 333 82630 86650;MET008NEW NOSI
0159039620999991997010921004+52700-008917SY-MT+0020EINN V0201101N00101015001CN0040001N1+00241+00051101401ADDAG11000AY121031AY221031GA1021+009009999GA2071+015009999GF107991071051012501999999MA1101291101151MD1310071+9999MW1101REMSYN017 333 82630 86650;MET008NEW NOSI
0153039620999991997010922004+52700-008917SY-MT+0020EINN V0201101N00151015001CN0040001N1+00231+00011101361ADDAG11999AY121011AY221011GA1021+009009999GA2071+015009999GF107991071051012501999999MA1101291101111MD1010021+9999MW1101REMSYN011 333 87642;MET008NEW NOSI
0137039620999991997010923004+52700-008917SY-MT+0020EINN V0201001N00151012001CN0040001N1+00261+00021101371ADDAG11999AY121021AY221021GA1071+012009999GF107991071051012501999999MA1101291101121MD1010071+9999MW1101REMSYN011 333 87640;MET008NEW NOSI
0148039620999991997011000004+52700-008917SY-MT+0020EINN V0201201N00151012001CN0040001N1+00241+00051101371ADDAA106000091AG11000AY121061AY221061GA1071+012009999GF107991071051012501999999MA1101291101121MD1810031+9999MW1101REMSYN011 333 87640;MET008NEW NOSI
0156039620999991997011001004+52700-008917SY-MT+0020EINN V0201101N00261012601CN0040001N1+00271+00031101351ADDAG11999AY121011AY221011GA1071+012609999GF107991071051012501999999MA1101291101111MD1010001+9999MW1101REMSYN011 333 87642;MET008NEW NOSIEQDQ01+000000PRSWM2
0156039620999991997011002004+52700-008917SY-MT+0020EINN V0201101N00261012601CN0045001N1+00251+00041101321ADDAG11999AY121021AY221021GA1071+012609999GF199999051051012501001001MA1101291101081MD1810041+9999MW1101REMSYN011 333 85642;MET008NEW NOSIEQDQ01+000052SCOTCV
0156039620999991997011003004+52700-008917SY-MT+0020EINN V0201101N00261013501CN0045001N1+00221+00031101331ADDAG11000AY121031AY221031GA1071+013509999GF199999061051012501999999MA1101291101081MD1710041+9999MW1101REMSYN011 333 86645;MET008NEW NOSIEQDQ01+000062SCOTCV
0156039620999991997011004004+52700-008917SY-MT+0020EINN V0201201N00261013501CN0050001N1+00241+00021101281ADDAG11999AY121011AY221011GA1071+013509999GF199999061051012501999999MA1101191101031MD1810081+9999MW1101REMSYN011 333 86645;MET008NEW NOSIEQDQ01+000062SCOTCV
0156039620999991997011005004+52700-008917SY-MT+0020EINN V0201201N00211013501CN0060001N1+00291-00011101191ADDAG11999AY121021AY221021GA1071+013509999GF107991071051012501999999MA1101191100951MD1810131+9999MW1101REMSYN011 333 87638;MET008NEW NOSIEQDQ01+000000PRSWM2
0224039620999991997011006004+52700-008917SY-MT+0020EINN V0201201N00311011101CN0100001N1+00321+00051101051ADDAA106000091AG11000AY121061AY221061GA1071+011109999GF108991081051012501999999GJ100009IA1019IA2999+00109KA1120N+00211MA1101081100811MD1810271+9999MW1101REMSYN029 333 20021 30001 55000 88637;MET008NEW NOSIEQDQ01+000000PRSWM2
0134039620999991997011007004+52700-008917SY-MT+0020EINN V0201401N00311011101CN0150001N1+00461-00021101141ADDAG11999GA1081+011109999GF108991081051012501999999MA1101081100901MD1510131+9999REMSYN011 333 88630;MET008NEW NOSIEQDQ01+000000PRSWM2
0156039620999991997011008004+52700-008917SY-MT+0020EINN V0201401N00411007501CN0150001N1+00471+00081101141ADDAG11999GA1071+007509999GA2081+010509999GF108991081051008001999999MA1101081100901MD1510051+9999REMSYN017 333 85625 88635;MET008NEW NOSIEQDQ01+000000PRSWM2
0149039620999991997011009004+52700-008917SY-MT+0020EINN V0201401N00411007501CN0080001N1+00441+00131101151ADDAG12001AY161031AY221031GA1081+007509999GF108991081051008001999999MA1101081100911MD1110101+9999MW1601MW2611REMSYN017 333 84625 88635;MET008NEW NOSI
0165039620999991997011010004+52700-008917SY-MT+0020EINN V0201401N00361009001CN0060001N1+00401+00171101111ADDAG12999AY161011AY261011GA1021+006009999GA2081+009009999GF108991081051008001999999MA1101081100871MD1810031+9999MW1601MW2611REMSYN017 333 84620 87635;MET008NEW NOSI
0165039620999991997011011004+52700-008917SY-MT+0020EINN V0201301N00361010501CN0060001N1+00391+00211101081ADDAG12999AY161021AY261021GA1021+006009999GA2071+010509999GF108991081051004501999999MA1101081100841MD1810061+9999MW1611REMSYN023 333 82714 84620 87635;MET008NEW NOSI
0204039620999991997011012004+52700-008917SY-MT+0020EINN V0201301N00361006001CN0050001N1+00381+00281101021ADDAA106003091AG12001AY161061AY261061GA1021+002409999GA2021+004509999GA3071+006009999GF108991081061002501999999MA1101021100781MD1710131+9999MW1611REMSYN023 333 82708 84715 87620;MET020NEW TEMPO SCT007 BKN
0212039620999991997011013004+52700-008917SY-MT+0020EINN V0201401N00411006001CN0080001N1+00521+00321100921ADDAG12999AY161011AY221011GA1021+003009999GA2021+004509999GA3071+006009999GF108991081061004501999999MA1100911100681MD1810191+9999MW1211REMSYN023 333 83710 84715 87625;MET020NEW TEMPO SCT007 BKNEQDQ01+000000PRSWM2
0196039620999991997011014004+52700-008917SY-MT+0020EINN V0201501N00411003601CN0120001N1+00641+00401100861ADDAG12999AY121021AY221021GA1071+003609999GA2071+006009999GF108991081061002501999999MA1100811100621MD1710221+9999MW1101REMSYN023 333 82709 85712 87620;MET020NEW TEMPO SCT007 BKNEQDQ01+000000PRSWM2
0200039620999991997011015004+52700-008917SY-MT+0020EINN V0201501N00361003301CN0180001N1+00701+00471100841ADDAG12001AY161031AY221031GA1021+002409999GA2071+003309999GA3071+006009999GF108991081061002501999999MA1100811100601MD1610181+9999MW1211REMSYN023 333 82709 86713 87620;MET008NEW NOSIEQDQ01+000000PRSWM2
0178039620999991997011016004+52700-008917SY-MT+0020EINN V0201501N00311003901CN0250001N1+00741+00511100901ADDAG12999GA1021+002709999GA2071+003909999GA3071+006009999GF108991081061002501999999MA1100811100661MD1510021+9999REMSYN023 333 82709 86713 87620;MET008NEW NOSIEQDQ01+000000PRSWM2
0178039620999991997011017004+52700-008917SY-MT+0020EINN V0201401N00211003601CN0250001N1+00761+00561100901ADDAG12999GA1021+002709999GA2071+003609999GA3071+010509999GF108991081061002501999999MA1100911100661MD1110041+9999REMSYN023 333 82708 87711 87640;MET008NEW NOSIEQDQ01+000000PRSWM2
0208039620999991997011018004+52700-008917SY-MT+0020EINN V0201201N00261003301CN0250001N1+00761+00611100981ADDAA106003091AG12001AY161061AY221061GA1071+003309999GA2071+010509999GF108991081061004501999999KA1120M+00761MA1100911100741MD1310141+9999MW1021REMSYN023 333 10076 86710 87635;MET008NEW NOSIEQDQ01+000000PRSWM2
0150039620999991997011019004+52700-008917SY-MT+0020EINN V0201301N00261003001CN0250001N1+00731+00571101011ADDAG12999GA1071+003009999GA2071+007509999GF108991081061004501999999MA1101021100771MD1210111+9999REMSYN011 333 88710;MET008NEW NOSIEQDQ01+000000PRSWM2
0134039620999991997011020004+52700-008917SY-MT+0020EINN V0201201N00261002401CN0200001N1+00741+00631101011ADDAG12999GA1081+002409999GF108991081061002501999999MA1101021100771MD1110111+9999REMSYN011 333 88708;MET008NEW NOSIEQDQ01+000000PRSWM2
0134039620999991997011021004+52700-008917SY-MT+0020EINN V0201201N00151001801CN0150001N1+00751+00661101021ADDAG11000GA1081+001809999GF108991081061002501999999MA1101021100781MD1110041+9999REMSYN011 333 88706;MET008NEW NOSIEQDQ01+000000PRSWM2
0156039620999991997011022004+52700-008917SY-MT+0020EINN V0201301N00151001501CN0050001N1+00761+00651101071ADDAG12999AY161011AY221011GA1081+001509999GF108991081061001501999999MA1101021100831MD1310061+9999MW1211REMSYN011 333 88705;MET008NEW NOSIEQDQ01+000000PRSWM2
0143039620999991997011023004+52700-008917SY-MT+0020EINN V0201401N00151001501CN0050001N1+00721+00611101081ADDAG12999AY161021AY221021GA1081+001509999GF108991081061001501999999MA1101021100841MD1110071+9999MW1211MW2611REMSYN011 333 88705;MET008NEW NOSI
0176039620999991997011100004+52700-008917SY-MT+0020EINN V0201201N00211002101CN0050001N1+00711+00641101081ADDAA106999929AG12001AY161061AY221061GA1071+002109999GA2071+018009999GF108991081051002501999999MA1101021100841MD1110061+9999MW1601MW2611REMSYN017 333 82707 88656;MET008NEW NOSI
0188039620999991997011101004+52700-008917SY-MT+0020EINN V0201201N00211018001CN0090001N1+00721+00651101091ADDAG12999AY161011AY221011GA1021+003009999GA2081+018009999GF108991081051002501999999MA1101021100851MD1210021+9999MW1211REMSYN017 333 82708 88656;MET018NEW TEMPO BKN005 ;EQDQ01+000000PRSWM2
0186039620999991997011102004+52700-008917SY-MT+0020EINN V0201201N00211001801CN0030001N1+00751+00681101071ADDAG12999AY161021AY251021GA1071+001809999GA2071+003609999GF108991081061000251999999MA1101081100831MD1710011+9999MW1501MW2511MW3611REMSYN023 333 83701 85705 86640;MET017NEW TEMPO BKN010;
0205039620999991997011103004+52700-008917SY-MT+0020EINN V0201301N00211010501CN0080001N1+00781+00711101101ADDAG12001AY161031AY251031GA1021+003009999GA2071+010509999GF108991081061002501999999MA1101021100861MD1210021+9999MW1201REMSYN023 333 82706 85711 87635;MET029NEW TEMPO 5000 SCT005 BKN010;EQDQ01+000000PRSWM2
0208039620999991997011104004+52700-008917SY-MT+0020EINN V0201301N00151002701CN0120001N1+00811+00721101101ADDAG12999AY121011AY221011GA1021+001809999GA2071+002709999GA3071+010509999GF108991081061002501999999MA1101081100861MD1210011+9999MW1101REMSYN023 333 83707 84712 87635;MET016NEW TEMPO 5000 ;EQDQ01+000000PRSWM2
0199039620999991997011105004+52700-008917SY-MT+0020EINN V0201401N00211007201CN0150001N1+00921+00841101101ADDAG12999AY121021AY221021GA1021+003609999GA2071+007209999GF108991081051004501999999MA1101081100861MD1110031+9999MW1101REMSYN017 333 83712 87623;MET029NEW TEMPO 5000 SCT005 BKN010;EQDQ01+000000PRSWM2
0300039620999991997011106004+52700-008917SY-MT+0020EINN V0201301N00211015001CN0150001N1+00841+00771101101ADDAA106000091AA299000591AG12001AY161061AY251061GA1021+003609999GA2021+006909999GA3081+015009999GF108991081061001501999999GJ100009IA1099IA2999+00609KA1120N+00701MA1101081100861MD1410001+9999MW1101REMSYN041 333 20070 31006 55000 82705 83712 85622;MET029NEW TEMPO 5000 SCT005 BKN010;EQDQ01+000000PRSWM2
0202039620999991997011107004+52700-008917SY-MT+0020EINN V0201301N00211006601CN0200001N1+00841+00771101141ADDAG12999AY161011AY221011GA1021+002109999GA2021+004509999GA3071+006609999GF108991081061002501999999MA1101081100901MD1310041+9999MW1211MW2611REMSYN017 333 82707 88718;MET029NEW TEMPO 5000 SCT005 BKN010;
0187039620999991997011108004+52700-008917SY-MT+0020EINN V0201701N00211006001CN0250001N1+01021+00881101191ADDAG12999GA1021+002109999GA2021+004509999GA3071+006009999GF108991081061002501999999MA1101081100951MD1310091+9999REMSYN023 333 81707 84715 87620;MET017NEW TEMPO BKN007;EQDQ01+000000PRSWM2
0209039620999991997011109004+52700-008917SY-MT+0020EINN V0201601N00211004201CN0250001N1+01061+00941101211ADDAG12001AY161031AY221031GA1021+002109999GA2071+004209999GA3071+006009999GF108991081061002501999999MA1101191100971MD1210111+9999MW1021REMSYN023 333 81708 87714 87625;MET017NEW TEMPO BKN007;EQDQ01+000000PRSWM2
0181039620999991997011110004+52700-008917SY-MT+0020EINN V0201701N00311005101CN0300001N1+01131+00931101251ADDAG12999GA1021+002409999GA2071+005109999GA3071+006609999GF107991071051004501999999MA1101191101011MD1210111+9999REMSYN017 333 82710 87620;MET017NEW TEMPO BKN007;EQDQ01+000000PRSWM2
0162039620999991997011111004+52700-008917SY-MT+0020EINN V0201601N00211006601CN0300001N1+01131+00951101271ADDAG12999GA1021+003009999GA2071+006609999GF108991081051002501999999MA1101191101031MD1210081+9999REMSYN023 333 82709 86622 87650;MET008NEW NOSIEQDQ01+000000PRSWM2
0198039620999991997011112004+52700-008917SY-MT+0020EINN V0201901N00311006601CN0250001N1+01221+01051101291ADDAA106000391AG10001AY161061AY221061GA1021+003609999GA2071+006609999GA3071+015009999GF108991081051004501999999MA1101291101051MD1210081+9999MW1601MW2611REMSYN023 333 82712 85622 87650;MET008NEW NOSI
0200039620999991997011113004+52700-008917SY-MT+0020EINN V0201901N00261004801CN0250001N1+01291+01061101281ADDAG12999AY161011AY221011GA1021+003009999GA2071+004809999GA3071+006609999GF108991081061004501999999MA1101291101051MD1110041+9999MW1211REMSYN023 333 82712 85717 87625;MET008NEW NOSIEQDQ01+000000PRSWM2
0178039620999991997011114004+52700-008917SY-MT+0020EINN V0202101N00311004801CN0250001N1+01321+01051101291ADDAG11999GA1021+003609999GA2071+004809999GA3071+007509999GF108991081061004501999999MA1101291101061MD1210031+9999REMSYN023 333 82712 85716 87625;MET008NEW NOSIEQDQ01+000000PRSWM2
0200039620999991997011115004+52700-008917SY-MT+0020EINN V0202101N00261004801CN0250001N1+01301+01011101321ADDAG12001AY161031AY221031GA1021+003609999GA2071+004809999GA3071+009009999GF108991081061004501999999MA1101291101091MD1210041+9999MW1021REMSYN023 333 82712 85716 87630;MET008NEW NOSIEQDQ01+000000PRSWM2
0178039620999991997011116004+52700-008917SY-MT+0020EINN V0202001N00261005401CN0250001N1+01241+00981101341ADDAG11999GA1021+003609999GA2071+005409999GA3071+009009999GF108991081061004501999999MA1101291101111MD1210061+9999REMSYN023 333 82712 85718 87630;MET008NEW NOSIEQDQ01+000000PRSWM2
0178039620999991997011117004+52700-008917SY-MT+0020EINN V0202001N00311005401CN0250001N1+01201+00941101361ADDAG11999GA1021+003609999GA2071+005409999GA3071+009009999GF108991081061004501999999MA1101291101131MD1210071+9999REMSYN023 333 82712 85718 87630;MET008NEW NOSIEQDQ01+000000PRSWM2
0241039620999991997011118004+52700-008917SY-MT+0020EINN V0201901N00101006001CN0250001N1+01141+00871101411ADDAA106000091AA299000391AG11001AY161061AY221061GA1021+003609999GA2071+006009999GA3071+009009999GF108991081051004501999999KA1120M+01321MA1101291101171MD1210081+9999MW1021REMSYN029 333 10132 81714 83621 87630;MET008NEW NOSIEQDQ01+000000PRSWM2
0165039620999991997011119004+52700-008917SY-MT+0020EINN V0201901N00211006601CN0250001N1+01161+00861101441ADDAG12999AY151011AY221011GA1071+006609999GA2071+009009999GF108991081051008001999999MA1101391101201MD1210091+9999MW1201MW2511REMSYN017 333 84622 87637;MET008NEW NOSI
0166039620999991997011120004+52700-008917SY-MT+0020EINN V0201501N00211220001CN0250001N1+01111+00731101371ADDAG11999GA1021+006609999GA2081+012609999GF199999021051012501001011MA1101291101131MD1010001+9999REMSYN011 333 82640;MET008NEW NOSIEQDQ01+000042SCOTCVQ02+000000PRSWM2
0178039620999991997011121004+52700-008917SY-MT+0020EINN V0201701N00411012001CN0250001N1+01041+00761101381ADDAG12000AY151031AY211031GA1021+012009999GA2021+075009999GF107991071051012501999999MA1101291101141MD1610031+9999MW1031REMSYN017 333 81635 87650;MET008NEW NOSIEQDQ01+000000PRSWM2
0156039620999991997011122004+52700-008917SY-MT+0020EINN V0201501N00261015001CN0250001N1+01011+00801101421ADDAG11999GA1021+010509999GA2071+015009999GF107991071051012501999999MA1101391101181MD1510021+9999REMSYN017 333 82635 87650;MET008NEW NOSIEQDQ01+000000PRSWM2
0172039620999991997011123004+52700-008917SY-MT+0020EINN V0201401N00211220001CN0250001N1+01001+00811101401ADDAG11999GA1021+010509999GA2071+015009999GF199999041051012501999999MA1101291101161MD1010031+9999REMSYN017 333 81635 84650;MET008NEW NOSIEQDQ01+000042SCOTCVQ02+000000PRSWM2
0195039620999991997011200004+52700-008917SY-MT+0020EINN V0201701N00411004201CN0250001N1+01051+00891101391ADDAA106999929AG11000AY151061AY211061GA1021+005709999GA2021+013509999GF107991071051004501999999MA1101391101151MD1310011+9999MW1031REMSYN023 333 82719 83635 86650;MET008NEW NOSIEQDQ01+000000PRSWM2
0162039620999991997011201004+52700-008917SY-MT+0020EINN V0202001N00261012001CN0250001N1+01131+00931101421ADDAG11999GA1021+003009999GA2071+012009999GF108991081051004501999999MA1101391101181MD1510001+9999REMSYN023 333 83718 83622 87640;MET008NEW NOSIEQDQ01+000000PRSWM2
0172039620999991997011202004+52700-008917SY-MT+0020EINN V0201901N00361006601CN0250001N1+01171+00911101411ADDAG11999GA1021+005409999GA2071+006609999GA3071+012009999GF108991081051004501999999MA1101391101171MD1310011+9999REMSYN017 333 85630 87640;MET008NEW NOSIEQDQ01+000000PRSWM2
0156039620999991997011203004+52700-008917SY-MT+0020EINN V0201901N00211006001CN0250001N1+01181+00951101421ADDAG11000GA1071+006009999GA2071+012009999GF108991081051008001999999MA1101391101181MD1110031+9999REMSYN017 333 85628 87645;MET008NEW NOSIEQDQ01+000000PRSWM2
0178039620999991997011204004+52700-008917SY-MT+0020EINN V0202001N00211008401CN0250001N1+01161+00951101421ADDAG11999GA1021+005109999GA2071+008409999GA3071+013509999GF108991081051008001999999MA1101391101181MD1510001+9999REMSYN023 333 83717 85624 87645;MET008NEW NOSIEQDQ01+000000PRSWM2
0188039620999991997011205004+52700-008917SY-MT+0020EINN V0202001N00261007201CN0250001N1+01161+00931101381ADDAG11999GA1021+005109999GA2071+007209999GA3071+013509999GF199999061051004501999999MA1101391101141MD1810031+9999REMSYN017 333 82715 85625;MET008NEW NOSIEQDQ01+000062SCOTCVQ02+000000PRSWM2
0251039620999991997011206004+52700-008917SY-MT+0020EINN V0202001N00261007501CN0250001N1+01101+00901101391ADDAA106000091AA299999929AG13000GA1021+004509999GA2071+007509999GF199999051051008001001001GJ100009IA1099IA2999+00909KA1120N+00971MA1101291101151MD1710031+9999REMSYN035 333 20097 31009 55000 83620 83640;MET008NEW NOSIEQDQ01+000052SCOTCVQ02+000000PRSWM2
0156039620999991997011207004+52700-008917SY-MT+0020EINN V0201901N00261007501CN0250001N1+01091+00851101431ADDAG11999GA1021+006009999GA2021+012009999GF106991061051008001999999MA1101391101191MD1310011+9999REMSYN017 333 83620 85640;MET008NEW NOSIEQDQ01+000000PRSWM2
0172039620999991997011208004+52700-008917SY-MT+0020EINN V0201801N00211012001CN0250001N1+01051+00811101461ADDAG11999GA1021+006009999GA2071+012009999GF199999061051008001999999MA1101391101221MD1310081+9999REMSYN017 333 83620 85640;MET008NEW NOSIEQDQ01+000062SCOTCVQ02+000000PRSWM2
0156039620999991997011209004+52700-008917SY-MT+0020EINN V0201701N00311013501CN0250001N1+01131+00911101491ADDAG11000GA1021+006009999GA2071+013509999GF107991071051008001999999MA1101391101251MD1210101+9999REMSYN017 333 83625 86650;MET008NEW NOSIEQDQ01+000000PRSWM2
0156039620999991997011210004+52700-008917SY-MT+0020EINN V0201901N00411015001CN0300001N1+01161+00821101541ADDAG11999GA1021+007509999GA2071+015009999GF107991061051017501999021MA1101491101301MD1210111+9999REMSYN017 333 86650 84075;MET008NEW NOSIEQDQ01+000000PRSWM2
0156039620999991997011211004+52700-008917SY-MT+0020EINN V0201901N00361015001CN0400001N1+01191+00871101571ADDAG11999GA1021+010509999GA2071+015009999GF107991071051012501999999MA1101491101331MD1210111+9999REMSYN017 333 83635 87650;MET008NEW NOSIEQDQ01+000000PRSWM2
0167039620999991997011212004+52700-008917SY-MT+0020EINN V0201901N00361015001CN0400001N1+01231+00871101561ADDAA106000091AG11000GA1021+010509999GA2071+015009999GF107991071051012501999999MA1101491101321MD1110071+9999REMSYN017 333 83640 87650;MET008NEW NOSIEQDQ01+000000PRSWM2
0172039620999991997011213004+52700-008917SY-MT+0020EINN V0202001N00411015001CN0350001N1+01281+00871101501ADDAG11999GA1021+012009999GA2071+015009999GF199999061051012501999021MA1101491101271MD1810031+9999REMSYN017 333 81640 86650;MET008NEW NOSIEQDQ01+000062SCOTCVQ02+000000PRSWM2
0156039620999991997011214004+52700-008917SY-MT+0020EINN V0202001N00461015001CN0350001N1+01281+00871101521ADDAG11999GA1021+010509999GA2071+015009999GF107991071051012501999021MA1101391101291MD1510041+9999REMSYN017 333 83635 85650;MET008NEW NOSIEQDQ01+000000PRSWM2
0156039620999991997011215004+52700-008917SY-MT+0020EINN V0202001N00311015001CN0350001N1+01271+00851101491ADDAG11000GA1021+010509999GA2071+015009999GF107991071051012501999999MA1101391101261MD1710061+9999REMSYN017 333 83635 86650;MET008NEW NOSIEQDQ01+000000PRSWM2
0156039620999991997011216004+52700-008917SY-MT+0020EINN V0201901N00311015001CN0300001N1+01271+00871101471ADDAG11999GA1021+009009999GA2071+015009999GF107991071051008001999999MA1101391101241MD1810031+9999REMSYN017 333 84627 86650;MET008NEW NOSIEQDQ01+000000PRSWM2
0150039620999991997011217004+52700-008917SY-MT+0020EINN V0201701N00211008401CN0300001N1+01201+00811101451ADDAG11999GA1071+008409999GA2071+015009999GF107991071051008001999999MA1101391101211MD1710081+9999REMSYN011 333 87627;MET008NEW NOSIEQDQ01+000000PRSWM2
0186039620999991997011218004+52700-008917SY-MT+0020EINN V0201501N00411009601CN0300001N1+01211+00891101451ADDAA106000091AG11000GA1021+005409999GA2071+009609999GF107991071051004501999999KA1120M+01301MA1101391101211MD1610051+9999REMSYN023 333 10130 82718 86632;MET008NEW NOSIEQDQ01+000000PRSWM2
0156039620999991997011219004+52700-008917SY-MT+0020EINN V0201701N00461009601CN0300001N1+01101+00811101471ADDAG11999GA1021+005409999GA2071+009609999GF107991071051004501999999MA1101391101231MD1510011+9999REMSYN017 333 82718 86632;MET008NEW NOSIEQDQ01+000000PRSWM2
0178039620999991997011220004+52700-008917SY-MT+0020EINN V0201601N00361009601CN0300001N1+01061+00791101421ADDAG11999GA1021+003909999GA2021+005109999GA3071+009609999GF107991071061004501999999MA1101391101181MD1810031+9999REMSYN023 333 82713 84717 87632;MET008NEW NOSIEQDQ01+000000PRSWM2
0178039620999991997011221004+52700-008917SY-MT+0020EINN V0202101N00151009601CN0300001N1+01061+00841101391ADDAG11000GA1021+003909999GA2021+005109999GA3071+009609999GF107991071061004501999999MA1101391101151MD1810061+9999REMSYN023 333 82713 84717 87632;MET008NEW NOSIEQDQ01+000000PRSWM2
0172039620999991997011222004+52700-008917SY-MT+0020EINN V0201901N00461005401CN0400001N1+01081+00841101331ADDAG11999GA1021+003909999GA2071+005409999GA3071+009609999GF107991071061004501999999MA1101291101091MD1810141+9999REMSYN017 333 86712 86620;MET008NEW NOSIEQDQ01+000000PRSWM2
0172039620999991997011223004+52700-008917SY-MT+0020EINN V0201901N00411003901CN0400001N1+01071+00831101321ADDAG11999GA1071+003909999GA2071+006009999GF199999051061004501999999MA1101291101081MD1610101+9999REMSYN017 333 84715 84620;MET008NEW NOSIEQDQ01+000052SCOTCVQ02+000000PRSWM2
0167039620999991997011300004+52700-008917SY-MT+0020EINN V0201601N00151006001CN0400001N1+01101+00861101371ADDAA106000091AG14000GA1021+004509999GA2081+006009999GF108991081061004501999999MA1101291101131MD1510021+9999REMSYN017 333 84715 88620;MET008NEW NOSIEQDQ01+000000PRSWM2
0156039620999991997011301004+52700-008917SY-MT+0020EINN V0201601N00211004801CN0400001N1+01121+00851101401ADDAG11999GA1071+004809999GA2081+006609999GF108991081051004501999999MA1101291101161MD1310071+9999REMSYN017 333 84715 88620;MET008NEW NOSIEQDQ01+000000PRSWM2
0156039620999991997011302004+52700-008917SY-MT+0020EINN V0201601N00151004501CN0400001N1+01131+00891101361ADDAG11999GA1071+004509999GA2071+006609999GF107991071061004501999999MA1101291101121MD1010041+9999REMSYN017 333 86715 85622;MET008NEW NOSIEQDQ01+000000PRSWM2
0178039620999991997011303004+52700-008917SY-MT+0020EINN V0201501N00151006001CN0400001N1+01141+00941101361ADDAG12001AY161031AY221031GA1021+004509999GA2071+006009999GF107991071051004501999999MA1101291101121MD1810011+9999MW1601REMSYN017 333 83715 86622;MET008NEW NOSIEQDQ01+000000PRSWM2
0172039620999991997011304004+52700-008917SY-MT+0020EINN V0201901N00261008101CN0400001N1+01221+00941101341ADDAG12999AY161011AY221011GA1021+006009999GA2071+008109999GF107991071051008001999999MA1101291101101MD1710061+9999MW1211REMSYN011 333 87624;MET008NEW NOSIEQDQ01+000000PRSWM2
0140039620999991997011305004+52700-008917SY-MT+0020EINN V0201601N00151007501CN0300001N1+01201+00901101331ADDAG11999GA1021+007509999GF107991071051008001999999MA1101291101091MD1610031+9999REMSYN017 333 83625 87640;MET008NEW NOSIEQDQ01+000000PRSWM2
0257039620999991997011306004+52700-008917SY-MT+0020EINN V0201701N00151012001CN0300001N1+01181+00881101301ADDAA106000091AA299999929AG11001AY161061AY221061GA1021+007509999GA2071+012009999GF107991071051008001999999GJ100069IA1099IA2999+00909KA1120N+01021MA1101291101061MD1710061+9999MW1011REMSYN035 333 20102 31009 55001 83625 87640;MET008NEW NOSIEQDQ01+000000PRSWM2
0156039620999991997011307004+52700-008917SY-MT+0020EINN V0201901N00311012001CN0300001N1+01131+00891101361ADDAG11999GA1021+007509999GA2071+012009999GF108991081061004501999999MA1101291101121MD1310021+9999REMSYN017 333 85718 87640;MET008NEW NOSIEQDQ01+000000PRSWM2
0162039620999991997011308004+52700-008917SY-MT+0020EINN V0201901N00311005101CN0300001N1+01091+00871101381ADDAG11999GA1071+005109999GA2071+012009999GF107991071061004501999999MA1101291101141MD1310051+9999REMSYN023 333 83715 86718 87640;MET008NEW NOSIEQDQ01+000000PRSWM2
0178039620999991997011309004+52700-008917SY-MT+0020EINN V0201801N00261005401CN0150001N1+01131+00891101451ADDAG11000GA1021+004509999GA2071+005409999GA3071+012009999GF108991081061004501999999MA1101391101211MD1210151+9999REMSYN023 333 85715 83718 85640;MET008NEW NOSIEQDQ01+000000PRSWM2
0178039620999991997011310004+52700-008917SY-MT+0020EINN V0201701N00151004501CN0250001N1+01081+00881101501ADDAG11999GA1021+002709999GA2071+004509999GA3071+007509999GF108991081061002501999999MA1101391101261MD1210141+9999REMSYN023 333 82709 85715 87625;MET008NEW NOSIEQDQ01+000000PRSWM2
0178039620999991997011311004+52700-008917SY-MT+0020EINN V0201601N00101004501CN0250001N1+01081+00881101541ADDAG11999GA1021+002709999GA2071+004509999GA3071+007509999GF108991081061002501999999MA1101491101301MD1210161+9999REMSYN023 333 82709 85715 87625;MET008NEW NOSIEQDQ01+000000PRSWM2
0189039620999991997011312004+52700-008917SY-MT+0020EINN V0201601N00151005101CN0250001N1+01101+00901101581ADDAA106000091AG11000GA1021+003309999GA2071+005109999GA3071+007509999GF108991081061004501999999MA1101491101341MD1210131+9999REMSYN023 333 82711 85717 87625;MET008NEW NOSIEQDQ01+000000PRSWM2
0178039620999991997011313004+52700-008917SY-MT+0020EINN V0201401N00101005401CN0250001N1+01131+00931101551ADDAG11999GA1021+003309999GA2071+005409999GA3071+009609999GF108991081061004501999999MA1101491101311MD1010051+9999REMSYN023 333 82710 85718 87632;MET008NEW NOSIEQDQ01+000000PRSWM2
0178039620999991997011314004+52700-008917SY-MT+0020EINN V0201701N00151007201CN0300001N1+01211+00951101511ADDAG11999GA1071+007209999GA2021+012009999GA3071+090009999GF108991071051008001999071MA1101491101271MD1810031+9999REMSYN023 333 83622 85635 88270;MET008NEW NOSIEQDQ01+000000PRSWM2
0162039620999991997011315004+52700-008917SY-MT+0020EINN V0201801N00211006301CN0300001N1+01201+00971101501ADDAG11000GA1071+006309999GA2081+042009999GF108991081061004501999999MA1101491101261MD1610081+9999REMSYN023 333 81710 83718 87626;MET008NEW NOSIEQDQ01+000000PRSWM2
0178039620999991997011316004+52700-008917SY-MT+0020EINN V0201701N00261009001CN0300001N1+01141+00961101501ADDAG11999GA1021+003009999GA2021+005409999GA3071+009009999GF107991071051004501999999MA1101491101261MD1610051+9999REMSYN023 333 81711 83622 86632;MET008NEW NOSIEQDQ01+000000PRSWM2
0140039620999991997011317004+52700-008917SY-MT+0020EINN V0201601N00261009001CN0200001N1+01081+00941101521ADDAG11999GA1071+009009999GF107991071051008001999999MA1101491101281MD1210011+9999REMSYN017 333 86622 84638;MET008NEW NOSIEQDQ01+000000PRSWM2
0164039620999991997011318004+52700-008917SY-MT+0020EINN V0201601N00361012001CN0400001N1+01081+00901101541ADDAA106000091AG11000GA1071+012009999GF107991071051012501999999KA1120M+01241MA1101491101301MD1310041+9999REMSYN017 333 10124 87644;MET008NEW NOSIEQDQ01+000000PRSWM2
0134039620999991997011319004+52700-008917SY-MT+0020EINN V0201601N00311013201CN0400001N1+01051+00891101551ADDAG11999GA1071+013209999GF107991071051012501999999MA1101491101311MD1210051+9999REMSYN011 333 87642;MET008NEW NOSIEQDQ01+000000PRSWM2
0134039620999991997011320004+52700-008917SY-MT+0020EINN V0201401N00211220001CN0300001N1+00961+00821101541ADDAG11999GA1021+013209999GF103991031051012501001001MA1101491101301MD1110021+9999REMSYN011 333 83644;MET008NEW NOSIEQDQ01+000000PRSWM2
0140039620999991997011321004+52700-008917SY-MT+0020EINN V0201601N00211012001CN0300001N1+00941+00801101551ADDAG11000GA1021+012009999GF107991071051012501999999MA1101491101311MD1110011+9999REMSYN017 333 83640 86656;MET008NEW NOSIEQDQ01+000000PRSWM2
0162039620999991997011322004+52700-008917SY-MT+0020EINN V0201601N00361018001CN0250001N1+00961+00771101541ADDAG11999GA1021+013509999GA2071+018009999GF107991071051004501999999MA1101491101301MD1710011+9999REMSYN023 333 82714 83645 86656;MET008NEW NOSIEQDQ01+000000PRSWM2
0178039620999991997011323004+52700-008917SY-MT+0020EINN V0201501N00311010501CN0300001N1+00961+00771101491ADDAG11999GA1021+003909999GA2071+010509999GA3071+018009999GF108991081051004501999999MA1101491101251MD1810051+9999REMSYN023 333 83712 86630 87650;MET008NEW NOSIEQDQ01+000000PRSWM2
0189039620999991997011400004+52700-008917SY-MT+0020EINN V0201501N00211009001CN0300001N1+00961+00791101461ADDAA106999929AG13000GA1021+004509999GA2071+009009999GA3071+015009999GF107991071051004501999999MA1101391101221MD1710091+9999REMSYN023 333 83715 86630 87650;MET008NEW NOSIEQDQ01+000000PRSWM2
0156039620999991997011401004+52700-008917SY-MT+0020EINN V0201601N00361003901CN0300001N1+01051+00781101411ADDAG11999GA1071+003909999GA2071+009009999GF108991081061004501999999MA1101391101171MD1710131+9999REMSYN017 333 85713 86630;MET008NEW NOSIEQDQ01+000000PRSWM2
0172039620999991997011402004+52700-008917SY-MT+0020EINN V0201601N00361015001CN0300001N1+01021+00771101371ADDAG11999GA1021+003609999GA2021+009009999GA3071+015009999GF108991081061004501999999MA1101291101131MD1710121+9999REMSYN017 333 85712 86630;MET008NEW NOSIEQDQ01+000000PRSWM2
0156039620999991997011403004+52700-008917SY-MT+0020EINN V0201601N00311003601CN0300001N1+00991+00761101381ADDAG11000GA1071+003609999GA2071+009009999GF107991071061004501999999MA1101291101141MD1510081+9999REMSYN017 333 86712 86630;MET008NEW NOSIEQDQ01+000000PRSWM2
0156039620999991997011404004+52700-008917SY-MT+0020EINN V0201601N00311003601CN0300001N1+00961+00751101361ADDAG11999GA1071+003609999GA2071+009009999GF107991071061004501999999MA1101291101121MD1710051+9999REMSYN017 333 86712 86630;MET008NEW NOSIEQDQ01+000000PRSWM2
0156039620999991997011405004+52700-008917SY-MT+0020EINN V0201501N00311003601CN0300001N1+00951+00761101371ADDAG11999GA1071+003609999GA2071+009009999GF107991071061004501999999MA1101291101131MD1510001+9999REMSYN017 333 86711 86630;MET008NEW NOSIEQDQ01+000000PRSWM2
0213039620999991997011406004+52700-008917SY-MT+0020EINN V0201501N00361003301CN0300001N1+00931+00761101331ADDAA106000091AA299999929AG13000GA1071+003309999GF107991071061004501999999GJ100009IA1099IA2999+00809KA1120N+00901MA1101291101091MD1710051+9999REMSYN029 333 20090 31008 55000 86711;MET008NEW NOSIEQDQ01+000000PRSWM2
0166039620999991997011407004+52700-008917SY-MT+0020EINN V0201601N00261003001CN0300001N1+00941+00751101331ADDAG11999GA1071+003009999GA2071+009009999GF199999061061004501999999MA1101291101091MD1610031+9999REMSYN011 333 86711;MET008NEW NOSIEQDQ01+000062SCOTCVQ02+000000PRSWM2
0156039620999991997011408004+52700-008917SY-MT+0020EINN V0201501N00311003301CN0300001N1+00921+00781101341ADDAG11999GA1071+003309999GA2071+015009999GF107991071061004501999999MA1101291101101MD1510031+9999REMSYN017 333 87711 85650;MET008NEW NOSIEQDQ01+000000PRSWM2
0178039620999991997011409004+52700-008917SY-MT+0020EINN V0201601N00211003601CN0300001N1+00911+00631101431ADDAG11000GA1021+002409999GA2071+003609999GA3071+012009999GF107991071051002501999999MA1101291101191MD1210101+9999REMSYN023 333 81708 83712 86635;MET008NEW NOSIEQDQ01+000000PRSWM2
0178039620999991997011410004+52700-008917SY-MT+0020EINN V0201701N00311010501CN0400001N1+01001+00751101411ADDAG11999GA1021+002409999GA2021+003609999GA3071+010509999GF107991051061004501999021MA1101391101171MD1010081+9999REMSYN023 333 83712 85640 85075;MET008NEW NOSIEQDQ01+000000PRSWM2
0162039620999991997011411004+52700-008917SY-MT+0020EINN V0201601N00311004201CN0400001N1+01051+00781101461ADDAG11999GA1021+002709999GA2021+012009999GF107991061061004501999021MA1101391101221MD1210121+9999REMSYN023 333 83712 83620 85645;MET008NEW NOSIEQDQ01+000000PRSWM2
0167039620999991997011412004+52700-008917SY-MT+0020EINN V0201601N00211007501CN0400001N1+01121+00831101441ADDAA106000091AG11000GA1021+004509999GA2021+006009999GF107991071051008001999999MA1101391101201MD1210011+9999REMSYN017 333 85620 84656;MET008NEW NOSIEQDQ01+000000PRSWM2
0156039620999991997011413004+52700-008917SY-MT+0020EINN V0201701N00211075001CN0400001N1+01291+00901101381ADDAG11999GA1021+003309999GA2021+010509999GF105991041061004501001021MA1101391101141MD1810031+9999REMSYN017 333 82715 83645;MET008NEW NOSIEQDQ01+000000PRSWM2
0156039620999991997011414004+52700-008917SY-MT+0020EINN V0201601N00211075001CN0400001N1+01261+00881101321ADDAG11999GA1021+006009999GA2071+075009999GF107991021081008001001021MA1101291101081MD1710141+9999REMSYN017 333 81820 86075;MET008NEW NOSIEQDQ01+000000PRSWM2
0156039620999991997011415004+52700-008917SY-MT+0020EINN V0201601N00211075001CN0400001N1+01191+00911101371ADDAG11000GA1021+006009999GA2071+075009999GF107991051051008001001021MA1101291101131MD1510071+9999REMSYN017 333 84620 87075;MET008NEW NOSIEQDQ01+000000PRSWM2
0172039620999991997011416004+52700-008917SY-MT+0020EINN V0201601N00101015001CN0300001N1+01191+00891101401ADDAG11999GA1021+006009999GA2071+015009999GA3071+075009999GF107991071051008001999999MA1101291101161MD1110021+9999REMSYN017 333 84623 87650;MET008NEW NOSIEQDQ01+000000PRSWM2
0178039620999991997011417004+52700-008917SY-MT+0020EINN V0201701N00101075001CN0300001N1+01101+00881101461ADDAG11999GA1021+006909999GA2021+015009999GA3071+075009999GF107991071051008001999021MA1101391101221MD1210141+9999REMSYN023 333 85620 83650 85070;MET008NEW NOSIEQDQ01+000000PRSWM2
0192039620999991997011418004+52700-008917SY-MT+0020EINN V0201601N00211005701CN0300001N1+01041+00851101501ADDAA106000091AG11000GA1071+005709999GA2071+015009999GF107991071051004501999999KA1120M+01301MA1101491101261MD1210131+9999REMSYN029 333 10130 82719 85623 85650;MET008NEW NOSIEQDQ01+000000PRSWM2
0151039620999991997011418304+52700-008917FM-15+0020EINN V0201501N00311006601CN0112651N1+01001+00901101531ADDAG11999GA1071+006609999GA2071+015009999GF107991999999999999999999MA1101491101301REMMET008NEW NOSIEQDQ01+999990APOSP Q02+999990APOSLPQ03+000000PRSWM2
0156039620999991997011420004+52700-008917SY-MT+0020EINN V0201601N00211006001CN0300001N1+01001+00831101601ADDAG11999GA1071+006009999GA2071+013509999GF107991071051008001999999MA1101591101361MD1210141+9999REMSYN017 333 86620 85645;MET008NEW NOSIEQDQ01+000000PRSWM2
0178039620999991997011421004+52700-008917SY-MT+0020EINN V0201601N00151006001CN0300001N1+00991+00851101621ADDAG11000GA1021+004509999GA2071+006009999GA3071+010809999GF107991071051004501999999MA1101591101381MD1210121+9999REMSYN023 333 83714 84624 85640;MET008NEW NOSIEQDQ01+000000PRSWM2
0178039620999991997011422004+52700-008917SY-MT+0020EINN V0201501N00151009001CN0300001N1+00921+00801101621ADDAG11999GA1021+004509999GA2071+009009999GA3071+015009999GF107991071051004501999999MA1101591101381MD1110071+9999REMSYN023 333 82715 85630 87650;MET008NEW NOSIEQDQ01+000000PRSWM2
0172039620999991997011423004+52700-008917SY-MT+0020EINN V0201301N00101009001CN0300001N1+00901+00821101661ADDAG11999GA1021+004509999GA2071+009009999GA3071+015009999GF107991071051004501999999MA1101591101421MD1310061+9999REMSYN017 333 83715 86630;MET008NEW NOSIEQDQ01+000000PRSWM2
0199039620999991997011500004+52700-008917SY-MT+0020EINN V0201201N00211009001CN0250001N1+00831+00781101651ADDAA106999929AG13000GA1021+004509999GA2071+009009999GF199999051051004501001001MA1101591101401MD1010031+9999REMSYN017 333 82715 85630;MET008NEW NOSIEQDQ01+000052SCOTCVQ02+999990APOSP Q03+000000PRSWM2
0156039620999991997011501004+52700-008917SY-MT+0020EINN V0201201N00211220001CN0200001N1+00761+00671101641ADDAG11999GA1021+004509999GA2021+009009999GF103991031051004501001001MA1101591101401MD1010021+9999REMSYN017 333 81715 83630;MET008NEW NOSIEQDQ01+000000PRSWM2
0151039620999991997011502004+52700-008917FM-15+0020EINN V0201401N00151002401CN0112651N1+00901+00801101641ADDAG11999GA1071+002409999GA2071+004509999GF107991999999999999999999MA1101591101401REMMET008NEW NOSIEQDQ01+999990APOSP Q02+999990APOSLPQ03+000000PRSWM2
0156039620999991997011502004+52700-008917SY-MT+0020EINN V0201401N00101002401CN0150001N1+00881+00761101611ADDAG11999GA1071+002409999GA2021+009009999GF108991081061002501999999MA1101591101371MD1710051+9999REMSYN017 333 86708 85715;MET008NEW NOSIEQDQ01+000000PRSWM2
0126039620999991997011503004+52700-008917FM-12+0020EINN V0201501N00211002401CN0200001N1+00931+00851101621ADDAG12000GA1061+002409079GF108991081061002501999999MA1101561101381MD1510031+9999REMSYN017 333 86708 86714;EQDQ01+999990APOA  
0156039620999991997011503004+52700-008917SY-MT+0020EINN V0201501N00211002401CN0200001N1+00931+00851101621ADDAG11000GA1071+002409999GA2071+004209999GF108991081061002501999999MA1101591101381MD1510031+9999REMSYN017 333 86708 86714;MET008NEW NOSIEQDQ01+000000PRSWM2
0151039620999991997011504004+52700-008917FM-15+0020EINN V0201601N00461002401CN0112651N1+01001+00801101631ADDAG11999GA1071+002409999GA2071+004209999GF107991999999999999999999MA1101591101401REMMET008NEW NOSIEQDQ01+999990APOSP Q02+999990APOSLPQ03+000000PRSWM2
0156039620999991997011505004+52700-008917SY-MT+0020EINN V0201501N00311002401CN0200001N1+00931+00741101551ADDAG11999GA1071+002409999GA2071+004209999GF108991081061002501999999MA1101491101311MD1810061+9999REMSYN017 333 86709 87714;MET008NEW NOSIEQDQ01+000000PRSWM2
0162039620999991997011505304+52700-008917FM-15+0020EINN V0201501N00411002701CN0112651N1+00901+00701101541ADDAA106000091AG12000GA1071+002709999GA2071+004209999GF107991999999999999999999MA1101491101301REMMET008NEW NOSIEQDQ01+999990APOSP Q02+999990APOSLPQ03+000000PRSWM2
0235039620999991997011506004+52700-008917SY-MT+0020EINN V0201501N00311002701CN0200001N1+00911+00771101541ADDAA106000091AA299999929AG13000GA1071+002709999GA2071+004209999GF108991081061002501999999GJ101629IA1099IA2999+00609KA1120N+00731MA1101491101301MD1710081+9999REMSYN035 333 20073 31006 55027 86708 87714;MET008NEW NOSIEQDQ01+000000PRSWM2
0156039620999991997011507004+52700-008917SY-MT+0020EINN V0201601N00361002401CN0200001N1+00881+00691101551ADDAG11999GA1071+002409999GA2071+004209999GF108991081061002501999999MA1101491101311MD1510051+9999REMSYN017 333 86708 87714;MET008NEW NOSIEQDQ01+000000PRSWM2
0156039620999991997011508004+52700-008917SY-MT+0020EINN V0201701N00311002401CN0200001N1+00861+00691101591ADDAG11999GA1071+002409999GA2071+003609999GF108991081061002501999999MA1101491101351MD1310041+9999REMSYN017 333 86708 87712;MET008NEW NOSIEQDQ01+000000PRSWM2
0156039620999991997011509004+52700-008917SY-MT+0020EINN V0201601N00361002401CN0300001N1+00871+00611101621ADDAG11000GA1071+002409999GA2071+003309999GF108991081061002501999999MA1101591101381MD1310081+9999REMSYN017 333 84709 87713;MET008NEW NOSIEQDQ01+000000PRSWM2
0156039620999991997011510004+52700-008917SY-MT+0020EINN V0201601N00261004801CN0300001N1+00851+00571101651ADDAG11999GA1071+004809999GA2071+009009999GF107991071061004501999999MA1101591101411MD1210101+9999REMSYN017 333 85716 87630;MET008NEW NOSIEQDQ01+000000PRSWM2
0162039620999991997011511004+52700-008917SY-MT+0020EINN V0201701N00411005701CN0450001N1+00841+00451101651ADDAG11999GA1071+005709999GA2071+009009999GF107991071081004501999999MA1101591101411MD1110061+9999REMSYN023 333 82716 84821 85635;MET008NEW NOSIEQDQ01+000000PRSWM2
0189039620999991997011512004+52700-008917SY-MT+0020EINN V0201601N00211006901CN0450001N1+00871+00541101601ADDAA106000091AG11000GA1021+005409999GA2071+006909999GA3071+010509999GF107991071081004501999999MA1101591101361MD1810021+9999REMSYN023 333 81716 84820 85635;MET008NEW NOSIEQDQ01+000000PRSWM2
0151039620999991997011512304+52700-008917FM-15+0020EINN V0201601N005710105019N0112651N1+01001+00501101531ADDAG11999GA1021+005709999GA2071+010509999GF107991999999999999999999MA1101491101301REMMET008NEW NOSIEQDQ01+999990APOSP Q02+999990APOSLPQ03+000000PRSWM2
