0198039620999991991010100004+52700-008917SY-MT+0020EINN V0201701N00571075001CN0300001N1+00301+00031100931ADDAA106000391AG10001AY181061AY271061GA1011+006009099GA2031+060009009GF105991011031008001001021MA1100911999999MD1810161+9999MW1031REMSYN029333   81920 83070 96485 92600MET005NOSIGEQDQ01+000000PRSWM2
0091039620999991991010100304+52700-008917FM-15+0020EINN V0201901N00511060001CN0112001N1+00301+00001999999ADDAG11999GA1011+010509059GA2051+060009009MA1100911999999REMMET006NOSIG+EQDQ01+000000PRSWM2
0181039620999991991010101004+52700-008917SY-MT+0020EINN V0201901N00571060001CN0300001N1+00261+00051100971ADDAG11999GA1011+010509059GA2031+027009039GA3061+060009009GF106991011051012501031021MA1100911999999MD1510121+9999MW1001REMSYN023333   81635 83359 86070MET005NOSIGEQDQ01+000000PRSWM2
0090039620999991991010101304+52700-008917FM-15+0020EINN V0201601N00461027001CN0112001N1+00301+00101999999ADDAG11999GA1021+010509059GA2061+027009049MA1100911999999REMMET005NOSIGEQDQ01+000000PRSWM2
0108039620999991991010102004+52700-008917FM-12+0020EINN V0201601N00621060001CN0300001N9+00351+00031100841ADDAG12999GA1021+010509059GA2051+060009009GF106991021051012501031021MD1810231+9999REMSYN017333   82635 85070
0153039620999991991010103004+52700-008917SY-MT+0020EINN V0201601N00671060001CN0300001N1+00401+00111100751ADDAG12000GA1011+010509059GA2051+060009009GF105991011051012501031021MA1100711999999MD1810181+9999REMSYN017333   81635 85070MET005NOSIGEQDQ01+000000PRSWM2
0090039620999991991010103304+52700-008917FM-15+0020EINN V0201601N00721060001CN0112001N1+00401+00201999999ADDAG12999GA1021+010509059GA2061+060009009MA1100611999999REMMET005NOSIGEQDQ01+000000PRSWM2
0175039620999991991010104004+52700-008917SY-MT+0020EINN V0201601N00771027001CN0300001N1+00531+00231100561ADDAG12999GA1021+010509059GA2051+027009049GA3061+060009009GF107991021051012501071021MA1100511999999MD1810411+9999REMSYN023333   82635 85459 86070MET005NOSIGEQDQ01+000000PRSWM2
0077039620999991991010104304+52700-008917FM-15+0020EINN V0201701N00821027001CN0112001N1+00601+00301999999ADDAG12999GA1041+009009059GA2071+027009049MA1100511999999MW1601REMMET005NOSIG
0156039620999991991010105004+52700-008917SY-MT+0020EINN V0201701N00821024001CN0200001N1+00631+00391100441ADDAG12999AY161021AY221021GA1031+010509059GA2081+024009049GF108991031051012501021999MA1100411999999MD1710401+9999MW1601REMSYN017333   83635 88458MET005NOSIG
0077039620999991991010105304+52700-008917FM-15+0020EINN V0201601N00721018001CN0112001N1+00701+00401999999ADDAG12007GA1021+010509059GA2081+018009049MA1100311999999MW1611REMMET005NOSIG
0224039620999991991010106004+52700-008917SY-MT+0020EINN V0201701N00821018001CN0200001N1+00701+00541100261ADDAA199001091AG19002AY161061AY221061GA1021+010509059GA2081+018009049GF108991021051012501021999GJ100609IA1099IA2999-00209KA1120N+00221MA1100201999999MD1710491+9999MW1611REMSYN035333   20022 31102 55010 82635 88556MET005NOSIG
0078039620999991991010106304+52700-008917FM-15+0020EINN V0201701N00671018001CN0112001N1+00701+00601999999ADDAG12999GA1021+010809059GA2081+018009049MA1100101999999MW1611REMMET006NOSIG+
0156039620999991991010107004+52700-008917SY-MT+0020EINN V0201801N00671008401CN0200001N1+00741+00581100121ADDAG12999AY161011AY261011GA1051+008409059GA2081+018009049GF108991051051008001021999MA1100101999999MD1710441+9999MW1611REMSYN017333   85628 88556MET005NOSIG
0130039620999991991010108004+52700-008917FM-12+0020EINN V0201801N00871024001CN0250001N9+00851+00641099911ADDAG12999AY161021AY221021GA1021+008409059GA2071+024009049GF108991021051008001021999MD1710531+9999MW1601REMSYN017333   82628 87458
0093039620999991991010108304+52700-008917FM-15+0020EINN V0201801N00931027001CN0112001N1+00901+00701999999ADDAG12002GA1011+004509079GA2031+008409059GA3071+027009049MA1099801999999MW1601REMMET005NOSIG
0212039620999991991010109004+52700-008917SY-MT+0020EINN V0201801N00871015001CN0400001N1+00901+00691099691ADDAG12001AY161031AY221031GA1021+003609079GA2051+015009059GA3071+027009049GF107991061051004501071999MA1099591999999MD1710561+9999MW1211REMSYN023333   82712 85650 87459MET039GRADU      ?     23025/45KT 8000 7ST008
0127039620999991991010109304+52700-008917FM-15+0020EINN V0201701N00981027001CN0112001N1+00901+00801999999ADDAG12999GA1011+003009079GA2031+004509079GA3071+027009049MA1099591999999MW1501REMMET039GRADU      ?     23025/45KT 8000 7ST008
0201039620999991991010110004+52700-008917SY-MT+0020EINN V0201801N00931006301CN0250001N1+00961+00791099531ADDAG12999AY161011AY251011GA1021+003009079GA2041+006309059GA3081+024009049GF108991061061004501071999MA1099491999999MD1710581+9999MW1601REMSYN023333   82710 84621 88458MET028GRADU 23025/45KT 8000 5ST008
0114039620999991991010110304+52700-008917FM-15+0020EINN V0201901N00981006301CN0112001N1+01001+00801999999ADDAG12999GA1021+003009079GA2041+006309059GA3081+024009049MA1099391999999MW1611REMMET026TEMPO MAX 40KT 8000 5ST010
0199039620999991991010111004+52700-008917SY-MT+0020EINN V0201901N00981024001CN0200001N1+01041+00871099321ADDAG12999AY161021AY261021GA1021+003309079GA2041+006309059GA3081+024009049GF108991041061004501071999MA1099291999999MD1710581+9999MW1611REMSYN023333   82711 84621 88458MET026TEMPO MAX 45KT 8000 5ST010
0114039620999991991010111304+52700-008917FM-15+0020EINN V0201901N01131006001CN0112001N1+01101+00901999999ADDAG12007GA1021+003309079GA2041+006009059GA3081+024009049MA1099091999999MW1611REMMET026TEMPO MAX45KTS 8000 5ST010
0205039620999991991010112004+52700-008917SY-MT+0020EINN V0201801N01131024001CN0150001N1+01071+00911099031ADDAA106001091AG10002AY161061AY251061GA1021+003309079GA2041+007209059GA3081+024009049GF108991041061004501071999MA1098981999999MD1710661+9999MW1611REMSYN023333   82711 84624 88458MET021TEMPO MAX 42KT 5ST010
0109039620999991991010112304+52700-008917FM-15+0020EINN V0201801N01181006601CN0080001N1+01101+00901999999ADDAG12999GA1031+003009079GA2051+006609059GA3081+024009049MA1098921999999MW1611REMMET021TEMPO MAX 42KT 5ST010
0202039620999991991010113004+52700-008917SY-MT+0020EINN V0201801N01181006001CN0080001N1+01061+00941098731ADDAG12999AY161011AY261011GA1031+002109079GA2051+006009059GA3081+024009049GF108991051061002501071999MA1098711999999MD1710801+9999MW1611OA149901801REMSYN029333   83707 85620 88458 91135MET012TEMPO 5ST010
0100039620999991991010113304+52700-008917FM-15+0020EINN V0201901N01181004801CN0112001N1+01101+01001999999ADDAG12999GA1031+002109079GA2051+004809079GA3071+007509059MA1098611999999MW1611REMMET012TEMPO 5ST010
0187039620999991991010114004+52700-008917SY-MT+0020EINN V0202001N01181004801CN0080001N1+01111+00991098581ADDAG12999AY161021AY261021GA1021+002109079GA2041+004809079GA3071+009009059GF108991081061002501999999MD1710741+9999MW1611OA149901801REMSYN029333   82707 84716 87630 91135MET012TEMPO 5ST010
0108039620999991991010114304+52700-008917FM-15+0020EINN V0202201N01131004201CN0080001N1+01101+01001999999ADDAG12007GA1031+002109079GA2051+004209079GA3071+005709079MA1098511999999MW1611REMMET020TEMPO      ?     5ST
0207039620999991991010115004+52700-008917SY-MT+0020EINN V0202201N01181004801CN0200001N1+01101+01021098511ADDAG12002AY161031AY261031GA1021+002409079GA2051+004809079GA3071+007809059GF108991081061002501999999MA1098511999999MD1710521+9999MW1611OA149901801REMSYN029333   82708 85716 87626 91135MET017GRADU 8000 6ST010
0113039620999991991010115304+52700-008917FM-15+0020EINN V0202301N01081003301CN0060001N1+01101+01101999999ADDAG12999GA1031+002109079GA2041+003309079GA3071+004809079MA1098511999999MW1581OC101601REMMET017TEMPO 3000 6ST005
0190039620999991991010116004+52700-008917SY-MT+0020EINN V0202301N00981004201CN0120001N1+01081+01041098491ADDAG12999AY161011AY251011GA1021+002409079GA2051+004209079GA3071+005709079GF108991081061002501999999MA1098411999999MD1610241+9999MW1581REMSYN023333   82708 85714 87719MET017TEMPO 3000 6ST005
0105039620999991991010116304+52700-008917FM-15+0020EINN V0202301N01081003901CN0112001N1+01201+01101999999ADDAG12999GA1031+002109079GA2041+003909079GA3071+005109079MA1098411999999MW1581REMMET017TEMPO 3000 6ST005
0176039620999991991010117004+52700-008917SY-MT+0020EINN V0202301N01031003301CN0200001N1+01101+01021098441ADDAG12999AY161021AY251021GA1051+003309079GA2071+004809079GF108991081061004501999999MA1098411999999MD1710141+9999MW1601OC101541REMSYN017333   85711 87716MET017TEMPO 6000 6ST008
0089039620999991991010117304+52700-008917FM-15+0020EINN V0202301N01031002401CN0112001N1+01101+01101999999ADDAG12002GA1051+002409079GA2081+004509079MA1098411999999MW1601REMMET017TEMPO 5000 6ST005
0231039620999991991010118004+52700-008917SY-MT+0020EINN V0202301N01031002401CN0050001N1+01161+01071098411ADDAA199012091AG10004AY161061AY251061GA1041+001509079GA2061+002409079GA3081+004209079GF108991081061001501999999KA1120M+01181MA1098411999999MD1510101+9999MW1631REMSYN029333   10118 84705 86708 88714MET028TEMPO      ?     3000 6ST005
0125039620999991991010118304+52700-008917FM-15+0020EINN V0202401N01491002701CN0090001N1+01201+01001999999ADDAG12999GA1031+001509079GA2051+002709079GA3081+004209079MA1098411999999MW1581OC102161REMMET029TEMPO      ?     3000& 6ST005
0197039620999991991010119004+52700-008917SY-MT+0020EINN V0202401N01641007501CN0300001N1+01221+01011098431ADDAG12999AY161011AY251011GA1021+004509079GA2061+007509059GF107991071051004501999999MA1098411999999MD1510061+9999MW1211OA149902211REMSYN023333   82715 86625 91143MET029TEMPO 7000       ?     5ST010
0077039620999991991010119304+52700-008917FM-15+0020EINN V0202401N01491007201CN0112001N1+01201+01001999999ADDAG12999GA1021+005109079GA2071+007209059MA1098411999999MW1211REMMET005NOSIG
0194039620999991991010120004+52700-008917SY-MT+0020EINN V0202401N01291006901CN0200001N1+01221+00961098411ADDAG12999AY161021AY221021GA1031+005109079GA2081+006909059GF108991081051004501999999MA1098411999999MD1710031+9999MW1601OA149902061OC101901REMSYN023333   83717 88623 91140MET018TEMPO 5ST010     ?
0116039620999991991010120304+52700-008917FM-15+0020EINN V0202401N01491005101CN0112001N1+01201+00901999999ADDAG12007GA1021+003009079GA2051+005109079GA3081+010509059MA1098411999999MW1621OC102421REMMET020GRADU      ?     3CU
0191039620999991991010121004+52700-008917SY-MT+0020EINN V0202401N01491010801CN0250001N1+01121+00831098431ADDAG12001AY161031AY251031GA1011+004509079GA2061+010809059GF106991061081004501999999MA1098411999999MD1010021+9999MW1211OA140102421REMSYN029333   81715 86636 90710 91147MET017TEMPO 8000 5CB018
0080039620999991991010121304+52700-008917FM-15+0020EINN V0202501N01701006001CN0112001N1+01101+00801999999ADDAG12999GA1051+006009099MA1098411999999MW1251REMMET024TEMPO 8000 5CB020      ?
0203039620999991991010122004+52700-008917SY-MT+0020EINN V0202501N01391006001CN0110001N1+01121+00721098551ADDAG12999AY181011AY221011GA1031+002409079GA2051+006009099GF106991061031002501999999MA1098511999999MD1310121+9999MW1801OA149902371OA259901801OC102161REMSYN029333   83708 85920 91146 91235MET010TEMPO 8000
0080039620999991991010122304+52700-008917FM-15+0020EINN V0202501N01291006001CN0112001N1+01101+00701999999ADDAG12999GA1021+003609079GA2041+006009099MA1098611999999MW1251REMMET008TEMPO 80
0186039620999991991010123004+52700-008917SY-MT+0020EINN V0202401N01341006001CN0150001N1+00971+00651098661ADDAG12999AY181021AY281021GA1021+003609079GA2041+006009099GF105991051031004501001001MA1098611999999MD1310251+9999MW1251OA149902321OC101851REMSYN023333   82712 84920 91145MET010TEMPO 8000
0080039620999991991010123304+52700-008917FM-15+0020EINN V0202401N01291006001CN0112001N1+01001+00501999999ADDAG12001GA1021+003609079GA2041+006009099MA1098711999999MW1251REMMET008TEMPO 80
0199039620999991991010200004+52700-008917SY-MT+0020EINN V0202501N01491220001CN0200001N1+00961+00421098751ADDAA106001091AG10001AY181061AY211061GA1021+006009089GF102991021021008001001001MA1098711999999MD1210321+9999MW1011OA140102011REMSYN023333   82820 90710 91139MET017TEMPO 8000 5CB020EQDQ01+000000PRSWM2
0094039620999991991010200304+52700-008917FM-15+0020EINN V0202501N01241220001CN0112001N1+00901+00301999999ADDAG11999GA1021+006009089MA1098821999999OC101961REMMET017TEMPO 8000 5CB018EQDQ01+000000PRSWM2
0160039620999991991010201004+52700-008917SY-MT+0020EINN V0202501N01031220001CN0200001N1+00881+00401098851ADDAG11999GA1011+006009089GF101991011021008001001001MA1098821999999MD1210301+9999OA149902161REMSYN017333   81820 91142MET017TEMPO 8000 5CB018EQDQ01+000000PRSWM2
0109039620999991991010201304+52700-008917FM-15+0020EINN V0202501N01031015001CN0112001N1+00901+00401999999ADDAG11999GA1021+006009089GA2031+015009059MA1098921999999REMMET024TEMPO 8000 5CB018      ?EQDQ01+000000PRSWM2
0168039620999991991010202004+52700-008917SY-MT+0020EINN V0202401N01231013501CN0200001N1+00871+00411098911ADDAG12999AY181021AY211021GA1021+006009089GA2051+013509059GF105991051081008001001001MA1098921999999MD1210251+9999MW1251REMSYN017333   82820 85645MET017TEMPO 8000 5CB018
0117039620999991991010202304+52700-008917FM-15+0020EINN V0202501N01031013501CN0112001N1+00901+00401999999ADDAG12000GA1031+006009089GA2051+013509059MA1098921999999OC101701REMMET024TEMPO 8000 5CB018      ?EQDQ01+000000PRSWM2
0194039620999991991010203004+52700-008917SY-MT+0020EINN V0202401N01031013501CN0200001N1+00801+00511098971ADDAG12001AY181031AY211031GA1031+006009089GA2051+013509059GF106991061081008001999999MA1098921999999MD1210221+9999MW1031REMSYN017333   83820 85645MET024TEMPO 8000 5CB018      ?EQDQ01+000000PRSWM2
0089039620999991991010203304+52700-008917FM-15+0020EINN V0202501N01081013501CN0112001N1+00801+00401999999ADDAG12999GA1021+006009089GA2051+013509059MA1098921999999MW1251REMMET017TEMPO 8000 5CB018
0168039620999991991010204004+52700-008917SY-MT+0020EINN V0202501N01031013501CN0200001N1+00811+00341099041ADDAG12999AY181011AY221011GA1021+006009089GA2051+013509059GF105991051081008001001001MA1098981999999MD1210191+9999MW1251REMSYN017333   82820 85645MET017TEMPO 8000 5CB018
0086039620999991991010204304+52700-008917FM-15+0020EINN V0202501N00981220001CN0112001N1+00801+00201999999ADDAG12999GA1021+006009089MA1098981999999REMMET017TEMPO 8000 5CB018EQDQ01+000000PRSWM2
0151039620999991991010205004+52700-008917SY-MT+0020EINN V0202501N01081220001CN0200001N1+00791+00271099041ADDAG12999GA1011+006009089GF101991011081008001001001MA1098981999999MD1110131+9999OC101651REMSYN011333   81820MET017TEMPO 8000 5CB018EQDQ01+000000PRSWM2
0086039620999991991010205304+52700-008917FM-15+0020EINN V0202501N00931220001CN0112001N1+00801+00301999999ADDAG12000GA1011+006009089MA1098981999999REMMET017TEMPO 8000 5CB018EQDQ01+000000PRSWM2
0221039620999991991010206004+52700-008917SY-MT+0020EINN V0202301N00821220001CN0200001N1+00761+00281099031ADDAA199001091AG10001AY181061AY211061GA1011+006009089GF102991021081008001001001GJ100009IA1099IA2999+00509KA1120N+00741MD1010061+9999MW1031REMSYN029333   20074 31005 55000 81820MET020990TEMPO 8000 5CB018EQDQ01+000000PRSWM2
0089039620999991991010206304+52700-008917FM-15+0020EINN V0202201N00721013501CN0112001N1+00701+00401999999ADDAG12999GA1031+006009089GA2051+013509059MA1098981999999MW1801REMMET017TEMPO 8000 5CB018
0156039620999991991010207004+52700-008917SY-MT+0020EINN V0202201N00511015001CN0200001N1+00741+00341098961ADDAG12999AY181011AY211011GA1021+006009089GA2071+015009059GF107991071081008001999999MA1098921999999MD1810091+9999MW1251REMSYN017333   82820 87650MET005NOSIG
0077039620999991991010207304+52700-008917FM-15+0020EINN V0202001N00671015001CN0112001N1+00801+00401999999ADDAG12999GA1021+006009089GA2071+015009059MA1098921999999MW1251REMMET005NOSIG
0156039620999991991010208004+52700-008917SY-MT+0020EINN V0201801N00621015001CN0200001N1+00741+00391098841ADDAG12999AY181021AY221021GA1031+006009089GA2071+015009059GF108991081081008001999999MA1098821999999MD1810211+9999MW1801REMSYN017333   83820 87650MET005NOSIG
0093039620999991991010208304+52700-008917FM-15+0020EINN V0202001N01131006901CN0112001N1+00801+00401999999ADDAG12002GA1031+005109079GA2041+006909059GA3071+015009059MA1098821999999MW1601REMMET005NOSIG
0181039620999991991010209004+52700-008917SY-MT+0020EINN V0202301N01031015001CN0200001N1+00881+00531098911ADDAG12001AY181031AY261031GA1031+005109079GA2061+015009059GF107991071051004501999999MA1098921999999MD1510121+9999MW1211OA149901901OC101601REMSYN023333   83717 86650 91137MET005NOSIG
0077039620999991991010209304+52700-008917FM-15+0020EINN V0202301N00821015001CN0112001N1+00801+00501999999ADDAG12999GA1031+005109079GA2061+015009059MA1098921999999MW1211REMMET005NOSIG
0178039620999991991010210004+52700-008917SY-MT+0020EINN V0202401N00981010501CN0200001N1+00871+00561098971ADDAG12999AY181011AY221011GA1011+004509079GA2031+006009089GA3051+010509059GF106991061081004501999999MA1098921999999MD1310021+9999MW1251REMSYN023333   81715 83820 85635MET005NOSIG
0085039620999991991010210304+52700-008917FM-15+0020EINN V0202601N01341012001CN0112001N1+00901+00501999999ADDAG12999GA1041+006009089GA2041+012009059MA1098981999999MW1251OC102011REMMET005NOSIG
0192039620999991991010211004+52700-008917SY-MT+0020EINN V0202701N01031220001CN0300001N1+00811+00311099161ADDAG12999AY181021AY211021GA1021+006309089GA2031+015009059GF103991031081008001999001MA1099091999999MD1310331+9999MW1251OA149902011REMSYN023333   82821 83650 91139MET005NOSIGEQDQ01    003SCOMCG
0090039620999991991010211304+52700-008917FM-15+0020EINN V0202401N00981015001CN0112001N1+00701+00201999999ADDAG12000GA1031+006309089GA2031+015009059MA1099191999999REMMET005NOSIGEQDQ01+000000PRSWM2
0186039620999991991010212004+52700-008917SY-MT+0020EINN V0202501N00871220001CN0300001N1+00721+00261099241ADDAA106000191AG10001AY181061AY211061GA1021+006309089GA2031+015009059GF104991041081008001999001MA1099191999999MD1210331+9999MW1251REMSYN017333   82821 83650MET005NOSIGEQDQ01    003SCOMCG
0090039620999991991010212304+52700-008917FM-15+0020EINN V0202501N00881015001CN0112001N1+00701+00201999999ADDAG12999GA1021+006009089GA2041+015009059MA1099191999999REMMET005NOSIGEQDQ01+000000PRSWM2
0153039620999991991010213004+52700-008917SY-MT+0020EINN V0202501N00771015001CN0300001N1+00741+00231099271ADDAG12999GA1031+006009089GA2051+015009059GF107991071081008001999999MA1099191999999MD1110291+9999REMSYN017333   83820 85650MET005NOSIGEQDQ01+000000PRSWM2
0090039620999991991010213304+52700-008917FM-15+0020EINN V0202501N00671015001CN0112001N1+00801+00301999999ADDAG12999GA1021+006009089GA2061+015009059MA1099191999999REMMET005NOSIGEQDQ01+000000PRSWM2
0186039620999991991010214004+52700-008917SY-MT+0020EINN V0202601N00981006001CN0200001N1+00731+00141099321ADDAG12999AY181021AY221021GA1021+004509079GA2031+006009089GA3051+015009059GF107991071081004501999999MA1099291999999MD1210151+9999MW1801OC101541REMSYN023333   82715 83820 85650MET005NOSIG
0078039620999991991010214304+52700-008917FM-15+0020EINN V0202501N009319999999N0112001N1+00701+00101999999ADDAG12001GA1021+006009089GA2071+220009059MA1099291999999MW1251REMMET006NOSIG+
0176039620999991991010215004+52700-008917SY-MT+0020EINN V0202401N00931015001CN0200001N1+00681+00161099351ADDAG12001AY181031AY221031GA1021+006009089GA2071+015009059GF107991071081004501999999MA1099291999999MD1210101+9999MW1021REMSYN017333   82820 87650MET006NOSIG+EQDQ01+000000PRSWM2
0090039620999991991010215304+52700-008917FM-15+0020EINN V0202301N00821015001CN0112001N1+00601+00301999999ADDAG12999GA1021+006009089GA2031+015009059MA1099291999999REMMET005NOSIGEQDQ01+000000PRSWM2
0169039620999991991010216004+52700-008917SY-MT+0020EINN V0202301N00621015001CN0200001N1+00601+00201099371ADDAG12999GA1031+006009089GA2031+015009059GF105991051081008001999001MA1099291999999MD1210101+9999REMSYN017333   83820 84650MET005NOSIGEQDQ01+000000PRSWM2Q02    003SCOMCG
0076039620999991991010216304+52700-008917FM-15+0020EINN V0202501N00821015001CN0112001N1+00601+00201999999ADDAG12999GA1031+006009089GA2051+015009059MA1099391999999EQDQ01+000000PRSWM2
0156039620999991991010217004+52700-008917SY-MT+0020EINN V0202401N00671015001CN0200001N1+00591+00191099471ADDAG12999AY181021AY221021GA1041+006009089GA2031+015009059GF106991061081008001999999MA1099391999999MD1210151+9999MW1801REMSYN017333   84820 83650MET005NOSIG
0061039620999991991010217304+52700-008917FM-15+0020EINN V0202401N00671220001CN0112001N1+00601+00201999999ADDAG12001GA1011+006009089MA1099391999999MW1251REMMET005NOSIG
0208039620999991991010218004+52700-008917SY-MT+0020EINN V0202401N00721015001CN0200001N1+00501+00171099551ADDAA199000191AG10001AY181061AY211061GA1011+002109079GA2041+006009099GA3061+015009059GF107991071031002501999999KA1120M+01161MA1099491999999MD1310201+9999MW1871REMSYN029333   10116 81707 84920 86650MET005NOSIG
0061039620999991991010218304+52700-008917FM-15+0020EINN V0202401N00511220001CN0112001N1+00401+00101999999ADDAG12999GA1011+006009099MA1099491999999MW1271REMMET005NOSIG
0108039620999991991010219004+52700-008917FM-12+0020EINN V0202401N00981220001CN0200001N9+00511+00131099551ADDAG12999AY181011AY211011GA1021+006009099GF103991031031008001001001MD1210181+9999MW1271REMSYN011333   82920
0134039620999991991010220004+52700-008917SY-MT+0020EINN V0202301N00931220001CN0300001N1+00481+00131099571ADDAG12999AY181021AY211021GA1021+006009099GF102991021031008001001001MA1099491999999MD1210101+9999MW1251REMSYN011333   82920MET005NISIG
0061039620999991991010220444+52700-008917FM-15+0020EINN V0202201N00881220001CN0112001N1+00401+00001999999ADDAG12001GA1021+006009099MA1099491999999MW1251REMMET005NOSIG
0197039620999991991010221004+52700-008917SY-MT+0020EINN V0202201N00821220001CN0300001N1+00441+00081099561ADDAG12001AY181031AY211031GA1011+006009099GA2031+015009059GF104991041031008001999001MA1099491999999MD1110011+9999MW1031REMSYN023333   81920 83650 96487MET005NOSIGEQDQ01+000000PRSWM2Q02    003SCOMCG
0061039620999991991010221304+52700-008917FM-15+0020EINN V0202301N00671220001CN0112001N1+00501+00201999999ADDAG12999GA1011+006009099MA1099591999999MW1251REMMET005NOSIG
0134039620999991991010222004+52700-008917SY-MT+0020EINN V0202201N00721220001CN0300001N1+00481+00151099621ADDAG12999AY181011AY211011GA1021+006009099GF104991041031008001001001MA1099591999999MD1310071+9999MW1251REMSYN011333   82920MET005NOSIG
0061039620999991991010222304+52700-008917FM-15+0020EINN V0202301N00621220001CN0112001N1+00401+00101999999ADDAG12999GA1031+006009099MA1099591999999MW1251REMMET005NOSIG
0134039620999991991010223004+52700-008917SY-MT+0020EINN V0202101N00721220001CN0300001N1+00401+00111099611ADDAG12999AY181021AY211021GA1021+006009099GF104991041031008001001001MA1099591999999MD1110041+9999MW1251REMSYN011333   82920MET005NOSIG
0061039620999991991010223304+52700-008917FM-15+0020EINN V0202601N00721220001CN0112001N1+00301+00201999999ADDAG12002GA1021+006009099MA1099591999999MW1271REMMET005NOSIG
0119039620999991991010300004+52700-008917FM-12+0020EINN V0202401N00571220001CN0300001N9+00331+00141099681ADDAA106000391AG10001AY181061AY211061GA1021+006009099GF102991021031008001001001MD1310121+9999MW1271REMSYN011333   82920
0061039620999991991010300304+52700-008917FM-15+0020EINN V0202001N00461220001CN0112001N1+00301+00101999999ADDAG11999GA1021+006009099MA1099591999999MW1251REMMET005NOSIG
0136039620999991991010301004+52700-008917FM-12+0020EINN V0202401N00571005401CN0150001N9+00351+00091099731ADDAG12999AY181011AY211011GA1031+003609079GA2061+005409099GF107991071031004501999999MD1310111+9999MW1881REMSYN023333   83712 86918 96488
0066039620999991991010301304+52700-008917FM-15+0020EINN V0202501N00821220001CN0112001N1+00301+00101999999ADDAG11999GA1031+005409099MA1099701999999MW1271REMMET010INTER 7000
0165039620999991991010302004+52700-008917SY-MT+0020EINN V0202601N00871004801CN0120001N1+00251+00011099791ADDAG12999AY181021AY221021GA1031+002409079GA2061+004809099GF107991071031002501999999MA1099701999999MD1210181+9999MW1811REMSYN023333   83708 86916 96488MET008INTER 70
0066039620999991991010302304+52700-008917FM-15+0020EINN V0202301N00771220001CN0112001N1+00401+00101999999ADDAG11001GA1021+005409099MA1099701999999MW1251REMMET010INTER 7000
0145039620999991991010303004+52700-008917SY-MT+0020EINN V0202301N00871220001CN0300001N1+00431+00091099731ADDAG12001AY181031AY211031GA1031+005409099GF103991031031004501001001MA1099701999999MD1010051+9999MW1251REMSYN017333   83918 96488MET010INTER 7000
0066039620999991991010303304+52700-008917FM-15+0020EINN V0202601N00931220001CN0112001N1+00401+00001999999ADDAG12999GA1031+006009099MA1099701999999MW1251REMMET010INTER 7000
0139039620999991991010304004+52700-008917SY-MT+0020EINN V0202401N00721220001CN0300001N1+00481-00021099761ADDAG12999AY181011AY211011GA1011+006009099GF101991011031008001001001MA1099701999999MD1310031+9999MW1251REMSYN011333   81920MET010INTER 7000
0079039620999991991010304304+52700-008917FM-15+0020EINN V0202201N00671220001CN0112001N1+00401+00001999999ADDAG12999GA1011+006009099MA1099701999999REMMET010INTER 7000EQDQ01+000000PRSWM2
0136039620999991991010305004+52700-008917SY-MT+0020EINN V0202101N00571220001CN0300001N1+00341-00131099711ADDAG12999GA1011+006009099GF101991011031008001001001MA1099701999999MD1710081+9999REMSYN011333   81920MET010INTER 7000EQDQ01+000000PRSWM2
0079039620999991991010305304+52700-008917FM-15+0020EINN V0202001N00671220001CN0112001N1+00301-00101999999ADDAG12000GA1011+006009099MA1099591999999REMMET010INTER 7000EQDQ01+000000PRSWM2
0252039620999991991010306004+52700-008917SY-MT+0020EINN V0201801N00571220001CN0300001N1+00301-00061099641ADDAA199002091AG10001AY181061AY211061GA1011+006009099GF102991011031008001001021GJ100429IA1099IA2999-00109KA1120N+00241MA1099591999999MD1810091+9999MW1031REMSYN035333   20024 31101 55007 81920 96487MET030INTER 5000 3ST010 6CB017     ?EQDQ01+000000PRSWM2
0109039620999991991010306304+52700-008917FM-15+0020EINN V0201701N00621060001CN0112001N1+00301+00001999999ADDAG12999GA1011+006009099GA2061+060009029MA1099591999999REMMET024INTER 5000 3ST010 6CB017EQDQ01+000000PRSWM2
0168039620999991991010307004+52700-008917SY-MT+0020EINN V0201901N00771005401CN0200001N1+00351+00001099631ADDAG12999AY181011AY211011GA1021+003609079GA2061+005409099GF106991061031004501999999MA1099591999999MD1610131+9999MW1801REMSYN017333   82712 86918MET017INTER 5000 4ST010
0089039620999991991010307304+52700-008917FM-15+0020EINN V0202101N00771005401CN0112001N1+00401+00201999999ADDAG12999GA1031+003609079GA2051+005409099MA1099491999999MW1801REMMET017INTER 5000 4ST010
0168039620999991991010308004+52700-008917SY-MT+0020EINN V0201901N00671005401CN0150001N1+00331+00171099541ADDAG12999AY181021AY281021GA1031+003609079GA2061+005409099GF107991071031004501999999MA1099491999999MD1710171+9999MW1801REMSYN017333   83712 86918MET017INTER 5000 4ST010
0108039620999991991010308304+52700-008917FM-15+0020EINN V0202101N00571003001CN0060001N1+00301+00201999999ADDAG12004GA1021+001209079GA2041+003009079GA3061+005409099MA1099491999999MW1801REMMET020TEMPO      ?     999
0168039620999991991010309004+52700-008917SY-MT+0020EINN V0202101N00461005401CN0250001N1+00301+00141099511ADDAG12001AY181031AY211031GA1031+003009079GA2031+005409099GF106991061031004501999999MA1099491999999MD1710131+9999MW1251REMSYN017333   83710 83918MET017INTER 7000 5CB018
0089039620999991991010309304+52700-008917FM-15+0020EINN V0201701N00361005401CN0112001N1+00301+00201999999ADDAG12999GA1021+003609079GA2031+005409099MA1099391999999MW1251REMMET017INTER 7000 5CB018
0190039620999991991010310004+52700-008917SY-MT+0020EINN V0202301N00771005401CN0100001N1+00351+00201099531ADDAG12999AY181011AY221011GA1021+003609079GA2031+005409099GA3031+012009059GF106991061031004501999999MA1099491999999MD1510101+9999MW1801REMSYN023333   82712 83918 83640MET017TEMPO 7000 5CB012
0089039620999991991010310304+52700-008917FM-15+0020EINN V0202301N00771220001CN0112001N1+00401+00201999999ADDAG12999GA1011+003309079GA2021+005409099MA1099491999999MW1251REMMET017TEMPO 7000 5CB012
0168039620999991991010311004+52700-008917SY-MT+0020EINN V0202201N00621004201CN0200001N1+00431+00231099511ADDAG12999AY181021AY211021GA1011+003309079GA2031+005409099GF106991051031004501999021MA1099491999999MD1710031+9999MW1251REMSYN017333   81711 83918MET017TEMPO 7000 5CB012
0179039620999991991010312004+52700-008917SY-MT+0020EINN V0202401N00671220001CN0200001N1+00581+00261099501ADDAA106002091AG10001AY181061AY211061GA1011+003309079GA2011+005409099GF102991021031004501001001MA1099391999999MD1510011+9999MW1251REMSYN017333   81711 81918MET017TEMPO 7000 5CB012
0092039620999991991010312304+52700-008917FM-15+0020EINN V0202301N00771005401CN0112001N1+00601+00201999999ADDAG12999GA1021+003309079GA2031+005409099MA1099391999999MW1911REMMET020TEMPO 7000 5CB012 TS
0196039620999991991010313004+52700-008917SY-MT+0020EINN V0202501N00671060001CN0200001N1+00451+00141099481ADDAG12999AY191011AY281011GA1011+003009079GA2031+003609099GA3031+060009009GF105991041031004501001021MA1099391999999MD1710051+9999MW1291REMSYN029333   81710 83918 90008 90008MET017TEMPO 7000 5CB012
0080039620999991991010313304+52700-008917FM-15+0020EINN V0202101N00771220001CN0112001N1+00401+00101999999ADDAG12999GA1021+005409099MA1099391999999MW1251REMMET024TEMPO 7000 5CB012      ?
0177039620999991991010314004+52700-008917SY-MT+0020EINN V0202201N00871220001CN0400001N1+00531+00181099451ADDAG12999GA1011+005409099GA2011+005409089GF102991021031004501001021MA1099391999999MD1710061+9999REMSYN017333   81918 81818MET029TEMPO 7000       ?     5CB012EQDQ01+000000PRSWM2
0086039620999991991010314304+52700-008917FM-15+0020EINN V0202301N00931005401CN0112001N1+00601+00001999999ADDAG12000GA1051+005409099MA1099391999999REMMET017TEMPO 7000 5CB012EQDQ01+000000PRSWM2
0221039620999991991010315004+52700-008917SY-MT+0020EINN V0202501N00931002701CN0070001N1+00301+00031099481ADDAG12005AY191031AY281031GA1051+002709079GA2071+004209099GF107991071091002501999999MA1099391999999MD1810021+9999MW1801OA140101851REMSYN047333   85709 87914 96487 98765 98865 90710 91136MET029GRADU 9999       ?     2CB018
0100039620999991991010315304+52700-008917FM-15+0020EINN V0202301N00771005401CN0112001N1+00301+00001999999ADDAG12999GA1021+002709079GA2051+005409099MA1099391999999MW1271REMMET028TEMPO      ?     7000 5CB012
0196039620999991991010316004+52700-008917SY-MT+0020EINN V0202401N01131004501CN0060001N1+00311-00021099471ADDAG12999AY181011AY221011GA1021+002109079GA2041+004509099GF105991051091002501001031MA1099391999999MD1610011+9999MW1831OA149901801REMSYN041333   82707 84915 91135 98680 98780 98880MET010GRADU 9999
0100039620999991991010316304+52700-008917FM-15+0020EINN V0202101N00411220001CN0112001N1+00301+00001999999ADDAG12999GA1011+003009079GA2021+005409099MA1099391999999MW1261REMMET028TEMPO      ?     7000 5CB012
0158039620999991991010317004+52700-008917SY-MT+0020EINN V0202001N00571220001CN0300001N1+00301+00001099471ADDAG12999AY181021AY271021GA1021+005409099GF102991021031004501001001MA1099391999999MD1110021+9999MW1261REMSYN011333   82918MET029TEMPO 7000       ?     5CB012
0086039620999991991010317304+52700-008917FM-15+0020EINN V0202101N00771005401CN0112001N1+00301+00001999999ADDAG12000GA1051+005409099MA1099391999999REMMET017TEMPO 7000 5CB012EQDQ01+000000PRSWM2
0195039620999991991010318004+52700-008917SY-MT+0020EINN V0202101N00721220001CN0250001N1+00271-00061099461ADDAA199003091AG10002AY191061AY271061GA1041+005409099GF104991041031004501001001KA1120M+00621MA1099391999999MD1510021+9999MW1031REMSYN017333   10062 84918MET017TEMPO 7000 5CB012EQDQ01+000000PRSWM2
0086039620999991991010318304+52700-008917FM-15+0020EINN V0202001N00621220001CN0112001N1+00301-00101999999ADDAG12999GA1041+005409099MA1099391999999REMMET017TEMPO 7000 5CB012EQDQ01+000000PRSWM2
0143039620999991991010319004+52700-008917SY-MT+0020EINN V0202001N00771005401CN0300001N1+00271-00061099411ADDAG12999GA1051+005409099GF105991051031004501001001MA1099391999999MD1610061+9999REMSYN011333   85918MET017TEMPO 7000 5CB012EQDQ01+000000PRSWM2
0086039620999991991010319304+52700-008917FM-15+0020EINN V0202101N00981220001CN0112001N1+00301-00101999999ADDAG12999GA1041+005409099MA1099291999999REMMET017TEMPO 7000 5CB012EQDQ01+000000PRSWM2
0151039620999991991010320004+52700-008917SY-MT+0020EINN V0202001N00721220001CN0300001N1+00281-00021099371ADDAG12999GA1021+005409099GF102991021031004501001001MA1099291999999MD1710101+9999MW1001REMSYN011333   82918MET019TEMPO 7000 5CB012 ?EQDQ01+000000PRSWM2
0077039620999991991010320304+52700-008917FM-15+0020EINN V0202101N00771004801CN0112001N1+00301-00101999999ADDAG12004GA1021+002409079GA2051+004809099MA1099291999999MW1801REMMET005NOSIG
0156039620999991991010321004+52700-008917SY-MT+0020EINN V0202001N00771005401CN0250001N1+00311+00011099361ADDAG12002AY181031AY211031GA1021+003609079GA2061+005409099GF107991071031004501999999MA1099291999999MD1610101+9999MW1801REMSYN017333   82712 86918MET005NOSIG
0078039620999991991010321304+52700-008917FM-15+0020EINN V0202101N01081220001CN0112001N1+00301-00101999999ADDAG12999GA1011+003609079GA2031+005409099MA1099291999999MW1251REMMET006NOSIG+
0130039620999991991010322004+52700-008917FM-12+0020EINN V0201801N00821220001CN0250001N9+00341-00041099331ADDAG12999AY181011AY211011GA1011+003609079GA2021+005409099GF102991021031004501001001MD1710081+9999MW1251REMSYN017333   81712 82918
0090039620999991991010322304+52700-008917FM-15+0020EINN V0201701N00721220001CN0112001N1+00301+00001999999ADDAG12999GA1011+003609079GA2021+005409099MA1099191999999REMMET005NOSIGEQDQ01+000000PRSWM2
0153039620999991991010323004+52700-008917SY-MT+0020EINN V0201701N00771220001CN0250001N1+00341-00051099261ADDAG12999GA1011+003609079GA2031+006009099GF103991031031004501001001MA1099191999999MD1710111+9999REMSYN017333   81712 83920MET005NOSIGEQDQ01+000000PRSWM2
0186039620999991991010400004+52700-008917FM-12+0020EINN V0202301N01391003601CN0180001N9+00351+00231099281ADDAA106001091AG10002AY181061AY211061GA1021+002409079GA2031+003609079GA3071+005409099GF107991071031002501999999MD1510081+9999MW1801OA140102421REMSYN035333   82708 83712 87918 90710 91147
0088039620999991991010400304+52700-008917FM-15+0020EINN V0202101N00981220001CN0112001N1+00301+00101999999ADDAG11999GA1011+003609079GA2041+005409099MA1099191999999MW1251OC101541REMMET008TEMPO 60
0159039620999991991010401004+52700-008917SY-MT+0020EINN V0202001N00671006001CN0150001N1+00311+00211099301ADDAG12999AY181011AY221011GA1021+003609079GA2051+006009099GF106991061091004501999999MA1099191999999MD1510031+9999MW1801REMSYN017333   82712 85920MET008TEMPO 60
0080039620999991991010401304+52700-008917FM-15+0020EINN V0202701N00671006001CN0112001N1+00401+00301999999ADDAG11999GA1021+003009079GA2051+006009099MA1099291999999MW1801REMMET008TEMPO 70
0165039620999991991010402004+52700-008917SY-MT+0020EINN V0202201N00671006001CN0200001N1+00441+00241099351ADDAG12999AY181021AY221021GA1021+003009079GA2041+006009099GF107991071091004501999999MA1099291999999MD1210091+9999MW1271REMSYN023333   82710 84920 96487MET008TEMPO 70
0080039620999991991010402304+52700-008917FM-15+0020EINN V0202401N00771006001CN0112001N1+00501+00301999999ADDAG11002GA1021+003009079GA2041+006009099MA1099391999999MW1271REMMET008TEMPO 70
0165039620999991991010403004+52700-008917SY-MT+0020EINN V0202401N00771006001CN0200001N1+00541+00241099491ADDAG12001AY181031AY221031GA1021+003009079GA2041+006009099GF107991071091004501999999MA1099391999999MD1310211+9999MW1271REMSYN023333   82710 84920 96487MET008TEMPO 70
0080039620999991991010403304+52700-008917FM-15+0020EINN V0202501N00881006001CN0112001N1+00601+00301999999ADDAG12999GA1021+003609079GA2041+006009099MA1099391999999MW1251REMMET008TEMPO 70
0159039620999991991010404004+52700-008917SY-MT+0020EINN V0202501N00981006001CN0200001N1+00591+00191099541ADDAG12999AY181011AY221011GA1021+003609079GA2041+006009099GF107991071091004501999999MA1099491999999MD1210241+9999MW1251REMSYN017333   82712 84920MET008TEMPO 70
0080039620999991991010404304+52700-008917FM-15+0020EINN V0202601N00981006001CN0112001N1+00601+00101999999ADDAG12999GA1021+003609079GA2041+006009099MA1099491999999MW1251REMMET008TEMPO 70
0193039620999991991010405004+52700-008917SY-MT+0020EINN V0202601N00981006001CN0200001N1+00591+00161099641ADDAG12999AY181021AY221021GA1021+003609079GA2031+006009099GA3051+060009009GF107991041031004501001021MA1099591999999MD1210291+9999MW1251REMSYN023333   82712 83920 85070MET020TEMPO      ?     700
0090039620999991991010405304+52700-008917FM-15+0020EINN V0202601N01131006001CN0112001N1+00601+00201999999ADDAG12004GA1021+003609079GA2051+006009099MA1099591999999MW1801OC101751REMMET010TEMPO 7000
0236039620999991991010406004+52700-008917SY-MT+0020EINN V0202601N00771220001CN0200001N1+00571+00141099711ADDAA199003091AG10001AY181061AY211061GA1031+006009099GF103991031031008001001021GJ101449IA1099IA2999-00109KA1120N+00231MA1099701999999MD1110221+9999MW1271OA140101801REMSYN047333   20023 31101 55024 83920 96487 90710 91135MET010TEMPO 7000
0066039620999991991010406304+52700-008917FM-15+0020EINN V0202501N00931220001CN0112001N1+00601+00101999999ADDAG12999GA1031+006009099MA1099701999999MW1251REMMET010TEMPO 7000
0139039620999991991010407004+52700-008917SY-MT+0020EINN V0202501N00771220001CN0300001N1+00521+00171099811ADDAG12999AY181011AY211011GA1031+006009099GF103991031031008001001001MA1099801999999MD1210271+9999MW1251REMSYN011333   83920MET010TEMPO 7000
0080039620999991991010407304+52700-008917FM-15+0020EINN V0202501N00671010501CN0112001N1+00501+00201999999ADDAG12999GA1021+006009099GA2041+010509059MA1099801999999MW1251REMMET008TEMPO 70
0165039620999991991010408004+52700-008917SY-MT+0020EINN V0202501N00621006001CN0300001N1+00481+00151099881ADDAG12999AY181021AY211021GA1021+003909079GA2051+006009099GF105991051091004501001001MA1099801999999MD1210241+9999MW1271REMSYN023333   82713 85920 96487MET008TEMPO 70
0080039620999991991010408304+52700-008917FM-15+0020EINN V0202401N00771006001CN0112001N1+00501+00101999999ADDAG12004GA1021+003609079GA2061+006009099MA1099901999999MW1801REMMET008TEMPO 70
0185039620999991991010409004+52700-008917SY-MT+0020EINN V0202501N00721005401CN0070001N1+00501+00031100021ADDAG12002AY181031AY211031GA1021+003009079GA2051+005409099GF107991071031004501999999MA1100001999999MD1310311+9999MW1801REMSYN041333   82710 85918 96487 98170 98770 98870MET010TEMPO 9999
0090039620999991991010409304+52700-008917FM-15+0020EINN V0202501N01031005101CN0112001N1+00401+00101999999ADDAG12999GA1021+003009079GA2061+005109099MA1100001999999MW1801OC101601REMMET010TEMPO 7000
0200039620999991991010410004+52700-008917SY-MT+0020EINN V0202601N00931015001CN0150001N1+00521-00071100141ADDAG12999AY181011AY221011GA1011+003009079GA2041+005409099GA3061+015009059GF107991071091004501999999MA1100101999999MD1210331+9999MW1251OA149901851REMSYN029333   81710 84918 86650 91136MET010TEMPO 7000
0098039620999991991010410304+52700-008917FM-15+0020EINN V0202601N00571060001CN0112001N1+00601+00001999999ADDAG12999GA1011+003009079GA2021+005409099GA3041+060009009MA1100101999999MW1251REMMET010TEMPO 7000
0183039620999991991010411004+52700-008917SY-MT+0020EINN V0202501N01081015001CN0150001N1+00571-00041100221ADDAG12999AY181021AY221021GA1011+003009079GA2031+005409099GA3051+015009059GF107991071091004501999031MA1100201999999MD1210341+9999MW1801REMSYN023333   81710 83918 85650MET010TEMPO 7000
0200039620999991991010412004+52700-008917SY-MT+0020EINN V0202401N00721015001CN0150001N1+00621+00191100291ADDAA106001091AG10002AY181061AY221061GA1011+003009079GA2031+005409099GA3051+015009059GF107991061091004501999031MA1100201999999MD1210271+9999MW1801REMSYN029333   81710 83918 85650 96487MET010TEMPO 7000
0080039620999991991010412304+52700-008917FM-15+0020EINN V0202501N00821220001CN0112001N1+00501+00001999999ADDAG12999GA1011+003009079GA2031+005409099MA1100201999999MW1251REMMET008TEMPO 70
0159039620999991991010413004+52700-008917SY-MT+0020EINN V0202401N00871220001CN0150001N1+00521+00021100341ADDAG12999AY181011AY221011GA1011+003009079GA2021+005409099GF104991031091004501001031MA1100311999999MD1210201+9999MW1251REMSYN017333   81710 82918MET008TEMPO 70
0090039620999991991010413304+52700-008917FM-15+0020EINN V0202301N01181220001CN0112001N1+00501+00101999999ADDAG12999GA1011+003009079GA2041+005409099MA1100311999999MW1801OC101701REMMET010TEMPO 7000
0165039620999991991010414004+52700-008917SY-MT+0020EINN V0202601N00931220001CN0200001N1+00511+00071100411ADDAG12999AY181021AY211021GA1011+003009079GA2021+005409099GF103991031031004501001001MA1100411999999MD1210191+9999MW1271REMSYN023333   81710 82918 96487MET008TEMPO 70
0093039620999991991010414304+52700-008917FM-15+0020EINN V0202501N00931220001CN0112001N1+00601+00201999999ADDAG12000GA1011+003009079GA2021+005409099MA1100411999999REMMET008TEMPO 70EQDQ01+000000PRSWM2
0190039620999991991010415004+52700-008917SY-MT+0020EINN V0202401N00871005401CN0180001N1+00471+00111100491ADDAG12002AY181031AY211031GA1011+002709079GA2041+005409099GF105991051031002501999999MA1100411999999MD1210201+9999MW1801OA140101751REMSYN035333   81709 84918 96487 90710 91134MET010TEMPO 7000
0093039620999991991010415304+52700-008917FM-15+0020EINN V0202401N00621220001CN0112001N1+00401+00101999999ADDAG12999GA1011+003009079GA2011+005409099MA1100411999999REMMET008TEMPO 70EQDQ01+000000PRSWM2
0159039620999991991010416004+52700-008917SY-MT+0020EINN V0202301N00361220001CN0250001N1+00431+00141100481ADDAG12999AY181011AY211011GA1011+002709079GA2031+005409099GF103991031031002501001001MA1100411999999MD1510141+9999MW1251REMSYN017333   81709 83918MET008TEMPO 70
0080039620999991991010416304+52700-008917FM-15+0020EINN V0202401N00361220001CN0112001N1+00501+00101999999ADDAG11999GA1011+002709079GA2011+005409099MA1100511999999MW1251REMMET008TEMPO 70
0156039620999991991010417004+52700-008917SY-MT+0020EINN V0202201N00511220001CN0250001N1+00431+00071100491ADDAG12999AY181021AY201021GA1011+002709079GA2011+005409099GF101991011031002501001021MA1100411999999MD1110081+9999MW1251REMSYN017333   81709 81918MET005NOSIG
0090039620999991991010417304+52700-008917FM-15+0020EINN V0202001N00461220001CN0112001N1+00401+00001999999ADDAG12000GA1011+005409089GA2031+075009009MA1100311999999REMMET005NOSIGEQDQ01+000000PRSWM2
0217039620999991991010418004+52700-008917SY-MT+0020EINN V0201901N00461075001CN0250001N1+00371+00111100381ADDAA199002091AG10001AY181061AY211061GA1031+018009059GF107991031051017501999021KA1120M+00641MA1100311999999MD1810111+9999MW1031REMSYN029333   10064 83656 86075 96487MET011CAVOK NOSIGEQDQ01+000000PRSWM2Q02    003SCOMCG
0065039620999991991010418304+52700-008917FM-15+0020EINN V0201801N00411999991CY0099001N1+00401+00001999999ADDAG12999MA1100311999999REMMET012CAVOK NOSIG+EQDQ01+000000PRSWM2
0137039620999991991010419004+52700-008917SY-MT+0020EINN V0201601N00571075001CN0250001N1+00371-00011100271ADDAG12999GA1061+075009009GF106991001001999999001021MA1100201999999MD1810211+9999REMSYN011333   86075MET011CAVOK NOSIGEQDQ01+000000PRSWM2
0064039620999991991010419304+52700-008917FM-15+0020EINN V0201601N00621999991CY0099001N1+00401+00001999999ADDAG12999MA1100101999999REMMET011CAVOK NOSIGEQDQ01+000000PRSWM2
0137039620999991991010420004+52700-008917SY-MT+0020EINN V0201601N00671075001CN0300001N1+00491+00111100041ADDAG12999GA1051+075009009GF105991001001999999001021MA1100001999999MD1710451+9999REMSYN011333   85075MET011CAVOK NOSIGEQDQ01+000000PRSWM2
0064039620999991991010420304+52700-008917FM-15+0020EINN V0201501N00771999991CY0099001N1+00501+00101999999ADDAG12000MA1099901999999REMMET011CAVOK NOSIGEQDQ01+000000PRSWM2
0178039620999991991010421004+52700-008917SY-MT+0020EINN V0201501N00771075001CN0300001N1+00501+00221099811ADDAG12000GA1021+010809059GA2041+075009009GF105991021051012501001021MA1099801999999MD1710571+9999MW1001REMSYN017333   82636 84075MET024GRADU 8000 5ST010      ?EQDQ01+000000PRSWM2
0109039620999991991010421304+52700-008917FM-15+0020EINN V0201401N00821075001CN0112001N1+00601+00401999999ADDAG12999GA1021+010809059GA2061+075009009MA1099591999999REMMET024GRADU 8000 5ST010      ?EQDQ01+000000PRSWM2
0201039620999991991010422004+52700-008917SY-MT+0020EINN V0201501N00931018001CN0300001N1+00631+00421099471ADDAG12999AY161011AY221011GA1031+010209059GA2041+018009059GA3081+045009049GF108991051051012501021999MA1099391999999MD1710801+9999MW1601REMSYN023333   83634 84656 88465MET028GRADU      ?     8000 5ST010
0116039620999991991010422304+52700-008917FM-15+0020EINN V0201601N00981015001CN0112001N1+00801+00601999999ADDAG12999GA1021+009909059GA2061+015009059GA3081+036009049MA1099191999999MW1601REMMET028GRADU      ?     8000 5ST010
0201039620999991991010423004+52700-008917SY-MT+0020EINN V0201601N01131010801CN0200001N1+00781+00631099091ADDAG12999AY161021AY261021GA1021+007509059GA2061+010809059GA3081+030009049GF108991061051008001021999MA1098981999999MD1710941+9999MW1631REMSYN023333   82625 86636 88460MET028GRADU      ?     8000 5ST010
0116039620999991991010423304+52700-008917FM-15+0020EINN V0201701N01241009001CN0112001N1+00801+00701999999ADDAG12019GA1021+006009059GA2061+009009059GA3081+024009049MA1098921999999MW1631REMMET028GRADU      ?     8000 5ST010
0235039620999991991010500004+52700-008917SY-MT+0020EINN V0201801N01181007501CN0180001N1+00841+00641098741ADDAA106002091AG10004AY161061AY221061GA1021+004509079GA2061+007509059GA3081+024009049GF108991071051004501071999MA1098711999999MD1711061+9999MW1631OA140101851REMSYN035333   82715 86625 88458 90710 91136MET028GRADU      ?     8000 5ST010
0116039620999991991010500304+52700-008917FM-15+0020EINN V0201901N01441007501CN0112001N1+00901+00601999999ADDAG11999GA1031+002709079GA2051+007509059GA3081+018009049MA1098511999999MW1611REMMET028GRADU      ?     8000 5ST010
0210039620999991991010501004+52700-008917SY-MT+0020EINN V0201901N01231005101CN0070001N1+00891+00661098471ADDAG12999AY161011AY261011GA1031+002109079GA2061+005109079GA3081+018009049GF108991061061002501021999MA1098411999999MD1610991+9999MW1631OA149902061REMSYN029333   83707 86717 88556 91140MET020GRADU      ?     999
0119039620999991991010501304+52700-008917FM-15+0020EINN V0202301N01081007501CN0112001N1+00701+00301999999ADDAG11999GA1021+003009079GA2031+007509059GA3071+030009049MA1098511999999MW1211REMMET031TEMPO MAX 45K          ?     TS
0173039620999991991010502004+52700-008917SY-MT+0020EINN V0202401N01131220001CN0300001N1+00701+00321098481ADDAG12999AY161021AY211021GA1011+006009099GF101991011031008001001001MA1098411999999MD1610611+9999MW1211OA149902321REMSYN029333   81920 91610 99702 91145MET015TEMPO MAX 45KTS
0108039620999991991010502304+52700-008917FM-15+0020EINN V0202301N01131220001CN0112001N1+00701+00301999999ADDAG12001GA1011+006009099GA2031+012009059MA1098411999999MW1251OC101851REMMET028TEMPO MAX        ?     45KTS
0182039620999991991010503004+52700-008917SY-MT+0020EINN V0202401N01441220001CN0250001N1+00611+00211098491ADDAG12001AY161031AY211031GA1011+006009099GF102991021031008001001001MA1098411999999MD1610251+9999MW1251OA140103091OC102011REMSYN029333   81920 90710 91160 91334MET016TEMPO 26035/60KT
0080039620999991991010503304+52700-008917FM-15+0020EINN V0202301N01341220001CN0112001N1+00501+00001999999ADDAG12999GA1011+006009099MA1098411999999MW1251OC101961REMMET016TEMPO 26035/60KT
0185039620999991991010504004+52700-008917SY-MT+0020EINN V0202301N01491220001CN0300001N1+00591-00011098441ADDAG12999AY181011AY211011GA1011+006009099GF101991011031008001001001MA1098411999999MD1810031+9999MW1251OA149903191OA259901751OC102421REMSYN023333   81920 91162 91234MET014TEMPO 26035/60
0108039620999991991010504304+52700-008917FM-15+0020EINN V0202301N01491005701CN0112001N1+00601+00201999999ADDAG12999GA1021+003009079GA2051+005709099MA1098411999999MW1871OC102471REMMET028TEMPO MAX        ?     60KTS
0224039620999991991010505004+52700-008917SY-MT+0020EINN V0202301N01291005401CN0120001N1+00431+00201098441ADDAG12999AY181021AY211021GA1021+003009079GA2051+005409099GF107991071091004501999999MA1098411999999MD1710041+9999MW1801OA149902571OA259901851OC101961REMSYN035333   82710 85918 96487 91150 91236MET025TEMPO MAX        ?     60
0105039620999991991010505304+52700-008917FM-15+0020EINN V0202401N01491005401CN0112001N1+00501+00101999999ADDAG12001GA1021+002409079GA2061+005409099MA1098311999999MW1871OC102161REMMET025TEMPO MAX        ?     60
0227039620999991991010506004+52700-008917FM-12+0020EINN V0202301N01541006001CN0200001N9+00551+00061098331ADDAA199006091AG10001AY181061AY261061GA1021+003609079GA2041+006009099GF105991051091004501001001GJ101089IA1099IA2999+00009KA1120N+00301MD1810161+9999MW1271OA140102371REMSYN053333   20030 31100 55018 82712 84920 96487 90710 91146
0224039620999991991010507004+52700-008917SY-MT+0020EINN V0202301N01591220001CN0200001N1+00581-00031098281ADDAG12999AY181011AY211011GA1011+003609079GA2031+006009099GF104991041091004501001001MA1098211999999MD1810161+9999MW1271OA149902571OA259901751OC102161REMSYN035333   81712 83920 96487 91150 91234MET025TEMPO MAX        ?     60
0100039620999991991010507304+52700-008917FM-15+0020EINN V0202301N01801006001CN0112001N1+00601+00001999999ADDAG12999GA1021+003609079GA2051+006009099MA1098211999999MW1251OC102521REMMET020TEMPO 24040KT MAX 60
0226039620999991991010508004+52700-008917SY-MT+0020EINN V0202401N01801006001CN0150001N1+00611-00021098231ADDAG12999AY181021AY211021GA1021+003609079GA2041+006009099GF105991051091004501001001MA1098211999999MD1710211+9999MW1271OA149902881OA259901961OC102371REMSYN035333   82712 84920 96487 91156 91238MET027TEMPO 24040/     ?     60KT
0101039620999991991010508304+52700-008917FM-15+0020EINN V0202301N01901005401CN0080001N1+00601+00001999999ADDAG12001GA1021+002409079GA2061+005409099MA1098211999999MW1871OC102991REMMET021TEMPO 9999 23025/50KT
0226039620999991991010509004+52700-008917SY-MT+0020EINN V0202301N01701005401CN0080001N1+00601+00031098191ADDAG12002AY181031AY221031GA1021+003609079GA2051+005409099GF107991071091004501999999MA1098101999999MD1710141+9999MW1801OA140103551OA250102211OC102321REMSYN041333   82712 85918 96487 90710 91169 91243MET021TEMPO 24040/60KT 9999
0090039620999991991010509304+52700-008917FM-15+0020EINN V0202401N02161005401CN0060001N1+00601+00101999999ADDAG12999GA1031+002709079GA2061+005409099MA1098211999999MW1831OC102831REMMET010TEMPO 9999
0207039620999991991010510004+52700-008917SY-MT+0020EINN V0202401N02421004801CN0060001N1+00591+00111098181ADDAG12999AY181011AY271011GA1041+002409079GA2071+004809099GF107991071091002501999999MA1098101999999MD1710101+9999MW1801OA140103711OA250102471REMSYN041333   84708 87916 96485 90710 91172 91248MET010TEMPO 9999
0106039620999991991010510304+52700-008917FM-15+0020EINN V0202401N02111003601CN0070001N1+00601+00001999999ADDAG12999GA1021+002409079GA2051+003609079GA3071+005409099MA1098101999999MW1801OC103041REMMET010GRADU 9999
0245039620999991991010511004+52700-008917SY-MT+0020EINN V0202401N02211003601CN0060001N1+00431+00171098271ADDAG12999AY181021AY221021GA1031+001509079GA2051+003609079GA3071+004809099GF108991081091001501999999MA1098211999999MD1310041+9999MW1801OA149903551OA259902321OC102991REMSYN041333   83705 85712 87916 96487 91169 91245MET024GRADU 9999 4ST010 6CB018
0134039620999991991010511304+52700-008917FM-15+0020EINN V0202401N02061024001CN0080001N1+00501+00101999999ADDAG12002GA1011+001509079GA2031+004809099GA3071+024009049MA1098211999999MW1271OC102881REMMET038VIS        ?     9999 TO SW TEMPO 9999
0258039620999991991010512004+52700-008917SY-MT+0020EINN V0202401N02111003601CN0080001N1+00551+00181098191ADDAA106002091AG10002AY181061AY271061GA1021+002109079GA2031+003609079GA3071+005409099GF107991071091002501999999MA1098101999999MD1010001+9999MW1801OA140103141OA250102421OC102991REMSYN047333   82707 83712 87918 96487 90710 91161 91247MET020TEMPO      ?     999
0106039620999991991010512304+52700-008917FM-15+0020EINN V0202501N02161003001CN0080001N1+00501+00101999999ADDAG12999GA1021+001809079GA2041+003009079GA3071+005409099MA1098211999999MW1271OC102991REMMET010TEMPO 9999
0237039620999991991010513004+52700-008917SY-MT+0020EINN V0202501N02111003901CN0070001N1+00651+00001098191ADDAG12999AY181011AY221011GA1021+002709079GA2031+003909079GA3071+005409099GF107991071091002501999999MA1098101999999MD1010011+9999MW1271OA140103711OA250102521OC102881REMSYN047333   82709 83713 87918 96487 90710 91172 91249MET010TEMPO 9999
0116039620999991991010513304+52700-008917FM-15+0020EINN V0202501N02211005401CN0080001N1+00501+00001999999ADDAG12999GA1021+002409079GA2041+005409099GA3051+015009059MA1098211999999MW1801OC103351REMMET020TEMPO      ?     999
0247039620999991991010514004+52700-008917SY-MT+0020EINN V0202501N02061015001CN0060001N1+00661-00011098231ADDAG12999AY181021AY221021GA1011+003009079GA2011+005409099GA3051+015009059GA4081+024009049GF108991061031004501021999MA1098211999999MD1710041+9999MW1251OA149903351OA259902321OC102991REMSYN041333   81710 81918 85650 88458 91165 91245MET010TEMPO 9999
0106039620999991991010514304+52700-008917FM-15+0020EINN V0202501N02111024001CN0060001N1+00701-00101999999ADDAG12001GA1011+004509079GA2041+013509059GA3081+024009049MA1098211999999MW1251OC103141REMMET010TEMPO 9999
0198039620999991991010515004+52700-008917FM-12+0020EINN V0202501N02211024001CN0060001N9+00671-00031098331ADDAG12001AY181031AY221031GA1011+005409099GA2041+013509059GA3081+024009049GF108991041031004501021999MD1310141+9999MW1251OA140103351OA250102321REMSYN047333   81918 84645 88458 96487 90710 91165 91245
0122039620999991991010515304+52700-008917FM-15+0020EINN V0202501N02111013501CN0060001N1+00601+00001999999ADDAG12999GA1011+002709079GA2021+005409099GA3051+013509059GA4081+024009049MA1098311999999MW1251OC103291REMMET010TEMPO 9999
0186039620999991991010516004+52700-008917FM-12+0020EINN V0202501N02161013501CN0060001N9+00621-00061098421ADDAG12999AY181011AY221011GA1011+005409099GA2051+013509059GA3081+024009049GF108991061031004501021999MD1210231+9999MW1251OA149903291OA259902261REMSYN035333   81918 85645 88458 91164 91244
0186039620999991991010517004+52700-008917FM-12+0020EINN V0202501N02061013501CN0060001N9+00611-00021098521ADDAG12999AY181021AY221021GA1021+005409099GA2051+013509059GA3081+024009049GF108991061031004501021999MD1210291+9999MW1251OA149903291OA259902321REMSYN035333   82918 85645 88458 91164 91245
0234039620999991991010518004+52700-008917SY-MT+0020EINN V0202601N02111015001CN0100001N1+00641-00071098631ADDAA199002091AG10001AY181061AY221061GA1021+005409099GA2031+015009059GF107991051031004501061999KA1120M+00691MA1098611999999MD1210301+9999MW1251OA140103501OA250102421OC103141REMSYN041333   10069 82918 83650 90710 91168 91247MET005NOSIG
0085039620999991991010518304+52700-008917FM-15+0020EINN V0202601N01961027001CN0112001N1+00701-00101999999ADDAG12999GA1021+005409099GA2041+027009039MA1098611999999MW1251OC102991REMMET005NOSIG
0190039620999991991010519004+52700-008917SY-MT+0020EINN V0202601N02061030001CN0100001N1+00651-00061098721ADDAG12999AY181011AY221011GA1011+003309079GA2041+005409099GF107991041031004501061999MA1098711999999MD1210301+9999MW1801OA149903501OA259902061REMSYN029333   81711 84918 91168 91240MET005NOSIG
0101039620999991991010519304+52700-008917FM-15+0020EINN V0202601N02061018001CN0112001N1+00701-00101999999ADDAG12999GA1011+003309079GA2021+005409099GA3031+018009059MA1098711999999MW1251OC103091REMMET005NOSIG
0201039620999991991010520004+52700-008917SY-MT+0020EINN V0202601N02111005401CN0080001N1+00641-00071098851ADDAG12999AY181021AY221021GA1011+003309079GA2041+005409099GF107991071031004501061999MA1098821999999MD1210331+9999MW1871OA149903091OA259902261REMSYN035333   81711 84918 91160 91244 96487MET010TEMPO 9999
0090039620999991991010520304+52700-008917FM-15+0020EINN V0202601N02061220001CN0080001N1+00601+00101999999ADDAG12004GA1011+003309079GA2041+005409099MA1098921999999MW1801OC103091REMMET010TEMPO 9999
0216039620999991991010521004+52700-008917SY-MT+0020EINN V0202601N01901004201CN0100001N1+00671-00071099061ADDAG12001AY181031AY221031GA1021+003909079GA2021+006009099GF107991071031004501999999MA1098981999999MD1210421+9999MW1271OA140103141OA250102161OC102831REMSYN047333   82713 82920 83656 96487 90710 91161 91242MET005NOSIG
0085039620999991991010521304+52700-008917FM-15+0020EINN V0202701N01961006001CN0112001N1+00701-00101999999ADDAG12999GA1021+003009079GA2051+006009099MA1099091999999MW1251OC102991REMMET005NOSIG
0198039620999991991010522004+52700-008917SY-MT+0020EINN V0202601N01751006001CN0150001N1+00681-00121099231ADDAG12999AY181011AY221011GA1021+002109079GA2051+006009099GF105991051031002501001001MA1099191999999MD1210501+9999MW1251OA149902731OA259901961OC102421REMSYN029333   82707 85920 91153 91238MET005NOSIG
0114039620999991991010522304+52700-008917FM-15+0020EINN V0202601N01651018001CN0112001N1+00701-00101999999ADDAG12999GA1011+003009079GA2031+006009089GA3071+018009059MA1099191999999OC102681REMMET005NOSIGEQDQ01+000000PRSWM2
0195039620999991991010523004+52700-008917SY-MT+0020EINN V0202601N01641015001CN0150001N1+00631-00051099361ADDAG12999GA1031+006009089GA2071+015009059GF107991071081008001999999MA1099291999999MD1210501+9999OA149902731OA259901801OC102271REMSYN029333   83820 87650 91153 91235MET005NOSIGEQDQ01+000000PRSWM2
0098039620999991991010523304+52700-008917FM-15+0020EINN V0202601N01701018001CN0112001N1+00701-00201999999ADDAG12000GA1031+006009059GA2071+018009059MA1099391999999OC102471REMMET005NOSIGEQDQ01+000000PRSWM2
0240039620999991991010600004+52700-008917SY-MT+0020EINN V0202701N01641015001CN0250001N1+00681-00221099521ADDAA106000191AG10001AY181061AY221061GA1041+006009059GA2071+015009059GF108991081051008001999999MA1099491999999MD1210461+9999MW1031OA140102631OA250101801OC102321REMSYN041333   84620 87650 96487 90710 91151 91235MET005NOSIGEQDQ01+000000PRSWM2
0101039620999991991010600304+52700-008917FM-15+0020EINN V0202801N01491006001CN0112001N1+00601-00201999999ADDAG11999GA1021+004509079GA2031+006009089GA3061+015009059MA1099591999999MW1801OC102271REMMET005NOSIG
0181039620999991991010601004+52700-008917SY-MT+0020EINN V0202701N01231220001CN0250001N1+00581-00331099681ADDAG12999AY181011AY221011GA1021+006009089GA2031+015009059GF104991041081008001031001MA1099591999999MD1210451+9999MW1251OA149902261OC101961REMSYN023333   82820 83650 91144MET005NOSIG
0069039620999991991010601304+52700-008917FM-15+0020EINN V0202701N01291220001CN0112001N1+00501-00201999999ADDAG11999GA1031+006009099MA1099701999999MW1251OC102061REMMET005NOSIG
0200039620999991991010602004+52700-008917SY-MT+0020EINN V0202901N01341015001CN0250001N1+00501-00191099821ADDAG12999AY181021AY221021GA1031+006009099GA2031+015009059GF105991051031008001999001MA1099801999999MD1210461+9999MW1251OA149902681OC101901REMSYN023333   83920 84650 91152MET005NOSIGEQDQ01    003SCOMCG
0085039620999991991010602304+52700-008917FM-15+0020EINN V0202601N01341009001CN0112001N1+00401-00201999999ADDAG12001GA1031+006009099GA2031+009009059MA1099801999999MW1251OC102271REMMET005NOSIG
0157039620999991991010603004+52700-008917SY-MT+0020EINN V0202601N00871220001CN0250001N1+00381-00051099841ADDAG12001AY181031AY211031GA1021+006009099GF102991021031008001001001MA1099801999999MD1210321+9999MW1251OA140102321REMSYN023333   82920 90710 91145MET005NOSIG
0074039620999991991010603304+52700-008917FM-15+0020EINN V0202601N00881220001CN0112001N1+00401-00101999999ADDAG12999GA1021+006009099MA1099801999999REMMET005NOSIGEQDQ01+000000PRSWM2
0148039620999991991010604004+52700-008917SY-MT+0020EINN V0202701N00931220001CN0250001N1+00441-00101099881ADDAG12999GA1021+006009099GF102991021031008001001001MA1099801999999MD1110201+9999OA149901601REMSYN017333   82920 91131MET005NOSIGEQDQ01+000000PRSWM2
0134039620999991991010604134+52700-008917FM-16+0020EINN V0202701N01031220001CN0112001N1+99999+99999999999ADDAG11999GA1031+006009089OC101651REMMET072GRADU 0507 24015KT GRADU 1013      ?     TEMPO 0410 80RASH 2ST012 4CB020EQDQ01+000000PRSWM2
0074039620999991991010604304+52700-008917FM-15+0020EINN V0202601N00461220001CN0112001N1+00401+00001999999ADDAG12999GA1021+006009099MA1099801999999REMMET005NOSIGEQDQ01+000000PRSWM2
0131039620999991991010605004+52700-008917SY-MT+0020EINN V0202601N00361220001CN0300001N1+00391-00011099911ADDAG12999GA1011+006009099GF101991011031008001001001MA1099901999999MD1210091+9999REMSYN011333   81920MET005NOSIGEQDQ01+000000PRSWM2
0074039620999991991010605304+52700-008917FM-15+0020EINN V0202601N00511220001CN0112001N1+00401+00001999999ADDAG12000GA1011+006009089MA1099801999999REMMET005NOSIGEQDQ01+000000PRSWM2
0227039620999991991010606004+52700-008917SY-MT+0020EINN V0202601N00461220001CN0300001N1+00411-00141099881ADDAA199000391AG10001AY181061AY211061GA1011+006009089GF101991011081008001001001GJ100009IA1099IA2999-00109KA1120N+00341MA1099801999999MD1010041+9999MW1021REMSYN035333   20034 31101 55000 81820 92600MET005NOSIGEQDQ01+000000PRSWM2
0074039620999991991010606304+52700-008917FM-15+0020EINN V0203001N00211220001CN0112001N1+00301-00101999999ADDAG12999GA1011+006009089MA1099801999999REMMET005NOSIGEQDQ01+000000PRSWM2
0137039620999991991010607004+52700-008917SY-MT+0020EINN V0202601N00571220001CN0300001N1+00391-00161099861ADDAG12999GA1011+006009089GF102991021081008001001001MA1099801999999MD1810021+9999REMSYN017333   81820 92600MET005NOSIGEQDQ01+000000PRSWM2
0064039620999991991010607304+52700-008917FM-15+0020EINN V0202501N00361999991CY0099001N1+00401-00201999999ADDAG12999MA1099801999999REMMET011CAVOK NOSIGEQDQ01+000000PRSWM2
0169039620999991991010608004+52700-008917SY-MT+0020EINN V0202501N00571220001CN0500001N1+00451-00191099841ADDAG12999GA1011+006009089GA2031+015009059GF103991031081008001999001MA1099801999999MD1710071+9999REMSYN017333   81820 83650MET005NOSIGEQDQ01+000000PRSWM2Q02    003SCOMCG
0090039620999991991010608304+52700-008917FM-15+0020EINN V0202501N00511220001CN0112001N1+00401-00101999999ADDAG12000GA1011+006909089GA2031+015009059MA1099801999999REMMET005NOSIGEQDQ01+000000PRSWM2
0169039620999991991010609004+52700-008917SY-MT+0020EINN V0202501N00411220001CN0300001N1+00401-00091099851ADDAG12000GA1011+006909089GA2031+015009059GF103991031081008001999021MA1099801999999MD1510031+9999REMSYN017333   81823 83650MET005NOSIGEQDQ01+000000PRSWM2Q02    003SCOMCG
0090039620999991991010609304+52700-008917FM-15+0020EINN V0202001N00461015001CN0112001N1+00401-00101999999ADDAG12999GA1011+006909089GA2051+015009059MA1099801999999REMMET005NOSIGEQDQ01+000000PRSWM2
0153039620999991991010610004+52700-008917SY-MT+0020EINN V0201901N00411220001CN0300001N1+00321-00071099841ADDAG12999GA1011+006909089GA2031+015009059GF104991031081008001031021MA1099801999999MD1810021+9999REMSYN017333   81823 83650MET005NOSIGEQDQ01+000000PRSWM2
0090039620999991991010610304+52700-008917FM-15+0020EINN V0202101N00361220001CN0112001N1+00401+00001999999ADDAG12999GA1011+006909089GA2031+015009059MA1099801999999REMMET005NOSIGEQDQ01+000000PRSWM2
0169039620999991991010611004+52700-008917SY-MT+0020EINN V0202101N00461075001CN0300001N1+00431+00011099841ADDAG12999GA1011+006909089GA2041+015009059GF105991041081008001999021MA1099801999999MD1010001+9999REMSYN017333   81823 84650MET005NOSIGEQDQ01+000000PRSWM2Q02    003SCOMCG
0090039620999991991010611304+52700-008917FM-15+0020EINN V0202101N00511220001CN0112001N1+00501+00001999999ADDAG12000GA1011+006909099GA2031+015009059MA1099801999999REMMET005NOSIGEQDQ01+000000PRSWM2
0164039620999991991010612004+52700-008917SY-MT+0020EINN V0202301N00411220001CN0300001N1+00471+00021099791ADDAA106999929AG10000GA1011+006009099GA2031+015009059GF104991041031008001031021MA1099701999999MD1810061+9999REMSYN017333   81920 83650MET005NOSIGEQDQ01+000000PRSWM2
0090039620999991991010612304+52700-008917FM-15+0020EINN V0202501N00511220001CN0112001N1+00601+00001999999ADDAG12999GA1011+006909099GA2031+015009059MA1099701999999REMMET005NOSIGEQDQ01+000000PRSWM2
0153039620999991991010613004+52700-008917SY-MT+0020EINN V0202501N00511220001CN0300001N1+00671+00061099741ADDAG12999GA1011+006909089GA2031+015009059GF104991031081008001031021MA1099701999999MD1810101+9999REMSYN017333   81823 83650MET005NOSIGEQDQ01+000000PRSWM2
0090039620999991991010613304+52700-008917FM-15+0020EINN V0202301N00411015001CN0112001N1+00601+00101999999ADDAG12999GA1011+007509089GA2061+015009059MA1099701999999REMMET005NOSIGEQDQ01+000000PRSWM2
0191039620999991991010614004+52700-008917SY-MT+0020EINN V0202201N00411060001CN0400001N1+00631+00101099721ADDAG12999GA1011+007509089GA2031+015009059GA3051+060009009GF106991031081008001999021MA1099701999999MD1710121+9999REMSYN023333   81825 83650 85070MET005NOSIGEQDQ01+000000PRSWM2Q02    003SCOMCG
0106039620999991991010614304+52700-008917FM-15+0020EINN V0202301N00411060001CN0112001N1+00601+00101999999ADDAG12000GA1011+006009059GA2031+015009059GA3061+060009009MA1099591999999REMMET005NOSIGEQDQ01+000000PRSWM2
0175039620999991991010615004+52700-008917SY-MT+0020EINN V0202101N00311030001CN0400001N1+00551+00181099681ADDAG12000GA1011+008709059GA2031+015009059GA3071+030009049GF107991031051008001071999MA1099591999999MD1710111+9999REMSYN023333   81629 83650 87460MET005NOSIGEQDQ01+000000PRSWM2
0106039620999991991010615304+52700-008917FM-15+0020EINN V0202001N00101030001CN0112001N1+00501+00201999999ADDAG12999GA1011+006009059GA2031+015009059GA3071+030009049MA1099591999999REMMET005NOSIGEQDQ01+000000PRSWM2
0175039620999991991010616004+52700-008917SY-MT+0020EINN V0200401N00211024001CN0400001N1+00521+00191099641ADDAG12999GA1011+006009059GA2031+015009059GA3081+024009049GF108991031051008001071999MA1099591999999MD1710101+9999REMSYN023333   81620 83650 88458MET005NOSIGEQDQ01+000000PRSWM2
0106039620999991991010616304+52700-008917FM-15+0020EINN V0200501N00261015001CN0112001N1+00501+00101999999ADDAG12999GA1031+009309059GA2031+015009059GA3081+024009049MA1099491999999REMMET005NOSIGEQDQ01+000000PRSWM2
0178039620999991991010617004+52700-008917SY-MT+0020EINN V0200501N00261006001CN0300001N1+00431+00121099581ADDAG12999AY161021AY221021GA1021+003909079GA2051+006009059GA3081+015009059GF108991081051004501999999MA1099491999999MD1710141+9999MW1601REMSYN023333   82713 85620 88650MET005NOSIG
0098039620999991991010617304+52700-008917FM-15+0020EINN V0200601N00151003301CN0112001N1+00401+00201999999ADDAG12003GA1021+002109079GA2041+003309079GA3061+006009059MA1099491999999MW1581REMMET010TEMPO 6000
0223039620999991991010618004+52700-008917SY-MT+0020EINN V0201501N00051004201CN0200001N1+00411+00261099491ADDAA199000191AG10001AY161061AY221061GA1021+002409079GA2061+004209079GA3061+006009059GF108991081061002501999999KA1120M+00691MA1099391999999MD1710191+9999MW1601REMSYN029333   10069 82708 86714 86620MET020TEMPO      ?     600
0098039620999991991010618304+52700-008917FM-15+0020EINN V0201401N00261007501CN0112001N1+00401+00201999999ADDAG12999GA1041+003309079GA2051+007509059GA3081+015009059MA1099391999999MW1211REMMET010TEMPO 6000
0183039620999991991010619004+52700-008917SY-MT+0020EINN V0201201N00311015001CN0300001N1+00391+00211099381ADDAG12999AY161011AY221011GA1011+003609079GA2041+007509059GA3051+015009059GF106991061051004501999999MA1099291999999MD1710261+9999MW1211REMSYN023333   81712 84625 85650MET010TEMPO 6000
0098039620999991991010619304+52700-008917FM-15+0020EINN V0201101N00311009001CN0112001N1+00401+00201999999ADDAG12999GA1011+003609079GA2051+009009059GA3061+015009059MA1099291999999MW1601REMMET010TEMPO 6000
0152039620999991991010620004+52700-008917FM-12+0020EINN V0201101N00411007501CN0130001N9+00361+00211099281ADDAG12999AY161021AY221021GA1021+003009079GA2051+007509059GA3081+015009059GF108991081051004501999999MD1710301+9999MW1601REMSYN023333   82710 85625 88650
0098039620999991991010620304+52700-008917FM-15+0020EINN V0201201N00361007501CN0090001N1+00401+00201999999ADDAG12007GA1011+003009079GA2041+004809079GA3061+007509059MA1099191999999MW1611REMMET010TEMPO 6000
0183039620999991991010621004+52700-008917SY-MT+0020EINN V0201301N00461007501CN0090001N1+00381+00261099161ADDAG12002AY161031AY221031GA1011+003009079GA2031+004809079GA3061+007509059GF108991081051004501999999MA1099091999999MD1710331+9999MW1611REMSYN023333   81710 83710 86625MET010TEMPO 6000
0098039620999991991010621304+52700-008917FM-15+0020EINN V0201301N00511015001CN0112001N1+00401+00301999999ADDAG12999GA1011+003009079GA2041+007509059GA3081+015009059MA1098981999999MW1211REMMET010TEMPO 6000
0183039620999991991010622004+52700-008917SY-MT+0020EINN V0201201N00461006001CN0130001N1+00401+00281099011ADDAG12999AY161011AY221011GA1011+003009079GA2061+006009059GA3071+010809059GF108991081051004501999999MA1098981999999MD1710371+9999MW1601REMSYN023333   81710 86620 87636MET010TEMPO 6000
0098039620999991991010622304+52700-008917FM-15+0020EINN V0201501N00361006001CN0112001N1+00401+00301999999ADDAG12999GA1011+002409079GA2041+003009079GA3071+006009059MA1098921999999MW1621REMMET010TEMPO 6000
0183039620999991991010623004+52700-008917SY-MT+0020EINN V0201701N00461003301CN0120001N1+00441+00321098931ADDAG12059AY161021AY261021GA1021+002109079GA2051+003309079GA3071+006009059GF108991081071002501999999MA1098921999999MD1710351+9999MW1611REMSYN023333   82707 85711 87620MET010TEMPO 6000
0098039620999991991010623304+52700-008917FM-15+0020EINN V0201801N00621007201CN0112001N1+00401+00301999999ADDAG12007GA1021+003309079GA2051+007209059GA3071+010809059MA1098821999999MW1611REMMET010TEMPO 6000
0167039620999991991010700004+52700-008917SY-MT+0020EINN V0202001N00721220001CN0250001N1+00411+00211098851ADDAA106003091AG10001AY161061AY221061GA1011+003309079GA2031+009009059GF104991041051004501001001MA1098821999999MD1610311+9999MW1211REMSYN017333   81711 83630MET005NOSIG
0085039620999991991010700304+52700-008917FM-15+0020EINN V0202101N01081027001CN0112001N1+00401+00101999999ADDAG11999GA1021+009009059GA2061+027009049MA1098821999999MW1211OC101701REMMET005NOSIG
0173039620999991991010701004+52700-008917SY-MT+0020EINN V0202401N00871030001CN0200001N1+00381-00051098841ADDAG12999AY181011AY261011GA1011+003009079GA2031+005409099GF106991041031004501071999MA1098821999999MD1610171+9999MW1251OA149902211REMSYN023333   81710 83918 91143MET005NOSIG
0061039620999991991010701304+52700-008917FM-15+0020EINN V0202101N00571220001CN0112001N1+00401+00001999999ADDAG11999GA1021+005409099MA1098711999999MW1251REMMET005NOSIG
0151039620999991991010702004+52700-008917SY-MT+0020EINN V0202401N01131220001CN0300001N1+00431-00121098801ADDAG12999AY181021AY211021GA1031+005409099GF103991031091004501001001MA1098711999999MD1710131+9999MW1251OA149902421REMSYN017333   83918 91147MET005NOSIG
0069039620999991991010702304+52700-008917FM-15+0020EINN V0202501N01291220001CN0112001N1+00401-00301999999ADDAG11001GA1021+005409099MA1098711999999MW1251OC101851REMMET005NOSIG
0181039620999991991010703004+52700-008917SY-MT+0020EINN V0202501N01081220001CN0300001N1+00481-00301098811ADDAG12001AY181031AY261031GA1011+003909079GA2011+005409099GF101991011031004501001001MA1098821999999MD1610041+9999MW1251OA149902321OC101601REMSYN023333   81713 81918 91145MET005NOSIG
0085039620999991991010703304+52700-008917FM-15+0020EINN V0202301N01241220001CN0112001N1+00301+00001999999ADDAG12999GA1011+003009079GA2021+004509099MA1098711999999MW1271OC101901REMMET005NOSIG
0181039620999991991010704004+52700-008917SY-MT+0020EINN V0202201N01231012001CN0150001N1+00321-00011098881ADDAG12999AY181011AY211011GA1031+005409099GA2031+012009059GF105991051091004501001001MA1098821999999MD1310041+9999MW1271OA149902111OC101801REMSYN023333   83918 83640 91141MET005NOSIG
0187039620999991991010705004+52700-008917SY-MT+0020EINN V0202301N01031005401CN0150001N1+00191-00031098861ADDAG12999AY181021AY211021GA1021+002709079GA2041+005409099GF105991051031002501001001MA1098821999999MD1010061+9999MW1271OA149902571OC101961REMSYN029333   82709 84918 91150 96487MET005NOSIG
0069039620999991991010705304+52700-008917FM-15+0020EINN V0202501N01441220001CN0112001N1+00301-00101999999ADDAG12002GA1031+005409099MA1098921999999MW1271OC102271REMMET005NOSIG
0233039620999991991010706004+52700-008917SY-MT+0020EINN V0202601N01181220001CN0200001N1+00341-00171098901ADDAA199006091AG10001AY181061AY281061GA1031+005409099GF103991031031004501001001GJ101329IA1099IA2999+00009KA1120N+00311MA1098821999999MD1010091+9999MW1271OA149902211OC101801REMSYN041333   20031 31100 55022 83918 91143 96487MET005NOSIG
0082039620999991991010706304+52700-008917FM-15+0020EINN V0202501N01241220001CN0112001N1+00501-00401999999ADDAG12999GA1021+005409099MA1098921999999OC101801REMMET005NOSIGEQDQ01+000000PRSWM2
0162039620999991991010707004+52700-008917SY-MT+0020EINN V0202501N01541220001CN0200001N1+00471-00451098961ADDAG12999GA1021+005409099GF102991021031004501001001MA1098921999999MD1310081+9999MW1001OA149902061OC101541REMSYN017333   82918 91140MET005NOSIGEQDQ01+000000PRSWM2
0082039620999991991010707304+52700-008917FM-15+0020EINN V0202401N01031220001CN0112001N1+00501-00101999999ADDAG12999GA1021+006009099MA1098921999999OC101541REMMET005NOSIGEQDQ01+000000PRSWM2
0103039620999991991010708004+52700-008917FM-12+0020EINN V0202401N01131220001CN0200001N9+00461-00111098981ADDAG12999GA1021+006009099GF102991021031008001001001MD1210131+9999OA149901901REMSYN017333   82920 91137
0106039620999991991010708304+52700-008917FM-15+0020EINN V0202401N01081006001CN0112001N1+00501-00101999999ADDAG12000GA1021+003609079GA2041+006009099GA3041+015009059MA1098981999999REMMET005NOSIGEQDQ01+000000PRSWM2
0178039620999991991010709004+52700-008917SY-MT+0020EINN V0202201N01031006001CN0200001N1+00481-00151099101ADDAG12002AY181031AY211031GA1021+003009079GA2041+006009099GA3041+015009059GF107991071031004501999999MA1099091999999MD1210201+9999MW1801REMSYN023333   82710 84920 84650MET005NOSIG
0093039620999991991010709304+52700-008917FM-15+0020EINN V0202301N00931006001CN0112001N1+00401+00001999999ADDAG12999GA1021+003609079GA2041+006009099GA3041+015009059MA1098981999999MW1251REMMET005NOSIG
0152039620999991991010710004+52700-008917FM-12+0020EINN V0202301N00871027001CN0200001N9+00391-00071099131ADDAG12999AY181011AY221011GA1011+003009079GA2031+006609099GA3051+027009049GF107991041031004501071999MD1210171+9999MW1801REMSYN023333   81710 83922 85459
0132039620999991991010710304+52700-008917FM-15+0020EINN V0202601N00571006601CN0090001N1+00401-00101999999ADDAG12999GA1031+003309079GA2031+006609099GA3061+024009049MA1099091999999MW1831REMMET044VIS        ?     10KM NE SE TEMPO 6000 4ST00
0212039620999991991010711004+52700-008917SY-MT+0020EINN V0202101N00571015001CN0250001N1+00281-00021099121ADDAG12999AY181021AY221021GA1021+003609079GA2021+006609099GA3041+015009059GA4051+024009049GF107991061031004501071999MA1099091999999MD1010131+9999MW1261REMSYN029333   82712 82922 84650 85458MET017TEMPO 6000 4ST008
0105039620999991991010711304+52700-008917FM-15+0020EINN V0201901N00721024001CN0112001N1+00301+00001999999ADDAG12000GA1011+003309079GA2021+006609099GA3061+024009049MA1099091999999MW1261REMMET017TEMPO 6000 4ST008
0208039620999991991010712004+52700-008917SY-MT+0020EINN V0202101N00671018001CN0400001N1+00311+00041099141ADDAA106000391AG10001AY181061AY271061GA1011+003609079GA2011+006609099GA3061+018009059GF107991071031004501999999MA1099091999999MD1210041+9999MW1021REMSYN023333   81712 81922 86656MET005NOSIGEQDQ01+000000PRSWM2
0176039620999991991010713004+52700-008917SY-MT+0020EINN V0202101N00621075001CN0450001N1+00331+00031099141ADDAG12999GA1011+006009089GA2011+006609099GA3031+024009039GF106991021091008001031031MA1099091999999MD1210011+9999REMSYN023333   81820 81922 83358MET006NOSIG+EQDQ01+000000PRSWM2
0077039620999991991010713304+52700-008917FM-15+0020EINN V0202301N00621220001CN0112001N1+00401+00001999999ADDAG12999GA1021+006009099GA2031+024009039MA1099091999999MW1271REMMET005NOSIG
0162039620999991991010714004+52700-008917SY-MT+0020EINN V0202301N00621030001CN0300001N1+00391+00051099181ADDAG12999AY181021AY221021GA1011+003909079GA2031+006009099GF106991041091004501061031MA1099091999999MD1210061+9999MW1271REMSYN023333   81713 83920 96487MET005NOSIG
0090039620999991991010714304+52700-008917FM-15+0020EINN V0202301N00671220001CN0112001N1+00401+00001999999ADDAG12000GA1011+005409099GA2031+027009039MA1099091999999REMMET005NOSIGEQDQ01+000000PRSWM2
0181039620999991991010715004+52700-008917SY-MT+0020EINN V0202201N00671220001CN0350001N1+00401+00031099231ADDAG12001AY181031AY211031GA1011+005709099GA2031+030009039GF104991021031004501031011MA1099191999999MD1310091+9999MW1011REMSYN023333   81919 83360 96487MET005NOSIGEQDQ01+000000PRSWM2
0090039620999991991010715304+52700-008917FM-15+0020EINN V0202301N00671220001CN0112001N1+00401+00101999999ADDAG12999GA1011+004809079GA2011+006009099MA1099191999999REMMET005NOSIGEQDQ01+000000PRSWM2
0159039620999991991010716004+52700-008917SY-MT+0020EINN V0202201N00721220001CN0300001N1+00351+00031099311ADDAG12999GA1011+004509079GA2021+006009099GF103991021091004501061001MA1099291999999MD1310171+9999MW1001REMSYN017333   81715 82920MET005NOSIGEQDQ01+000000PRSWM2
0077039620999991991010716304+52700-008917FM-15+0020EINN V0202201N00671220001CN0112001N1+00301+00001999999ADDAG12999GA1011+004509079GA2041+005409099MA1099291999999MW1871REMMET005NOSIG
0184039620999991991010717004+52700-008917SY-MT+0020EINN V0202201N00411009901CN0300001N1+00261-00051099371ADDAG12999AY181021AY211021GA1011+004809079GA2021+006009099GA3031+009909059GF105991051091004501061031MA1099291999999MD1210191+9999MW1271REMSYN029333   81716 82920 83633 96487MET005NOSIG
0062039620999991991010717304+52700-008917FM-15+0020EINN V0201801N00361220001CN0112001N1+00201-00101999999ADDAG12002GA1031+005409099MA1099291999999MW1271REMMET006NOSIG0
0074039620999991991010718004+52700-008917FM-15+0020EINN V0202001N00621220001CN0112001N1+00201+00001999999ADDAG11000GA1021+005409099MA1099291999999REMMET005NOSIGEQDQ01+000000PRSWM2
0074039620999991991010718304+52700-008917FM-15+0020EINN V0202201N00461220001CN0112001N1+00201+00001999999ADDAG12999GA1021+005409099MA1099291999999REMMET005NOSIGEQDQ01+000000PRSWM2
0131039620999991991010719004+52700-008917SY-MT+0020EINN V0201901N00151220001CN0300001N1+00181+00021099401ADDAG12999GA1031+005409099GF103991031091004501001031MA1099291999999MD1210091+9999REMSYN011333   83918MET005NOSIGEQDQ01+000000PRSWM2
0090039620999991991010719304+52700-008917FM-15+0020EINN V0202101N00931005401CN0025001N1+00101+00001999999ADDAG12999GA1031+001209079GA2081+005409099MA1099291999999MW1851OC101491REMMET010GRADU 9999
0168039620999991991010720004+52700-008917SY-MT+0020EINN V0202201N00571005401CN0250001N1+00201+00101099351ADDAG12999AY181021AY211021GA1021+003609079GA2051+005409099GF105991051091004501001001MA1099291999999MD1810011+9999MW1271REMSYN029333   82712 85918 96487 96485MET005NOSIG
0061039620999991991010720304+52700-008917FM-15+0020EINN V0202201N00571005401CN0112001N1+00201+00001999999ADDAG12000GA1061+005409099MA1099291999999MW1261REMMET005NOSIG
0165039620999991991010721004+52700-008917SY-MT+0020EINN V0202301N00621220001CN0250001N1+00271+00111099371ADDAG12001AY181031AY211031GA1031+005409099GF103991031091004501001001MA1099291999999MD1010011+9999MW1011REMSYN023333   83918 96485 96487MET005NOSIGEQDQ01+000000PRSWM2
0085039620999991991010721304+52700-008917FM-15+0020EINN V0202501N00721009601CN0112001N1+00301+00101999999ADDAG12999GA1031+005409099GA2031+009609059MA1099391999999MW1251OC101341REMMET005NOSIG
0156039620999991991010722004+52700-008917SY-MT+0020EINN V0202301N00461009001CN0250001N1+00261+00051099421ADDAG12999AY181011AY211011GA1021+005409099GA2061+009009059GF107991071031004501999999MA1099391999999MD1310021+9999MW1251REMSYN017333   82918 86630MET005NOSIG
0089039620999991991010722304+52700-008917FM-15+0020EINN V0202301N00461004501CN0040001N1+00201+00001999999ADDAG12999GA1041+001509079GA2081+004509099MA1099391999999MW1831REMMET017GRADU 9999 3CB018
0184039620999991991010723004+52700-008917SY-MT+0020EINN V0202101N00571005401CN0300001N1+00181+00081099421ADDAG12999AY181021AY221021GA1021+003309079GA2031+005409099GA3051+009009059GF106991061031004501999999MA1099391999999MD1010061+9999MW1261REMSYN029333   82711 83918 85630 96485MET005NOSIG
0077039620999991991010723304+52700-008917FM-15+0020EINN V0202101N00621220001CN0112001N1+00201+00101999999ADDAG12000GA1011+003009079GA2041+006009099MA1099391999999MW1261REMMET005NOSIG
0157039620999991991010800004+52700-008917SY-MT+0020EINN V0202001N00461220001CN0300001N1+00201+00041099411ADDAA106003091AG10001AY181061AY211061GA1011+006009099GF102991021031008001001001MA1099391999999MD1010041+9999MW1261REMSYN023333   81920 96485 96487MET005NOSIG
0061039620999991991010800304+52700-008917FM-15+0020EINN V0202301N00721220001CN0112001N1+00201+00001999999ADDAG11999GA1021+006009099MA1099391999999MW1261REMMET005NOSIG
0162039620999991991010801004+52700-008917SY-MT+0020EINN V0202101N00411220001CN0300001N1+00181+00081099431ADDAG12053AY181011AY211011GA1011+003309079GA2021+005409099GF102991021031004501001001MA1099391999999MD1310011+9999MW1261REMSYN023333   81711 82918 96485MET005NOSIG
0090039620999991991010801304+52700-008917FM-15+0020EINN V0202001N00411220001CN0112001N1+00101+00001999999ADDAG11999GA1011+003309079GA2011+005409099MA1099291999999REMMET005NOSIGEQDQ01+000000PRSWM2
0131039620999991991010802004+52700-008917SY-MT+0020EINN V0201701N00361220001CN0300001N1+00121+00011099391ADDAG11999GA1011+005409099GF101991011031004501001001MA1099291999999MD1810031+9999REMSYN011333   81918MET005NOSIGEQDQ01+000000PRSWM2
0077039620999991991010802304+52700-008917FM-15+0020EINN V0202001N00411220001CN0112001N1+00201+00001999999ADDAG12000GA1011+002709079GA2021+005409099MA1099291999999MW1261REMMET005NOSIG
0184039620999991991010803004+52700-008917SY-MT+0020EINN V0202001N00461009001CN0250001N1+00141+00001099391ADDAG12001AY181031AY211031GA1011+002709079GA2031+005409099GA3051+009009059GF105991051031002501999999MA1099291999999MD1610021+9999MW1831REMSYN029333   81709 83918 85630 96485MET005NOSIG
0085039620999991991010803304+52700-008917FM-15+0020EINN V0202201N00671220001CN0112001N1+00201+00001999999ADDAG12999GA1011+002709079GA2021+005409099MA1099291999999MW1261OC101181REMMET005NOSIG
0184039620999991991010804004+52700-008917SY-MT+0020EINN V0202501N00311004501CN0300001N1+00171+00041099421ADDAG12999AY181011AY211011GA1021+002709079GA2031+004509079GA3051+006009099GF106991061031002501999999MA1099391999999MD1510011+9999MW1261REMSYN029333   82709 83715 85920 96485MET005NOSIG
0090039620999991991010804304+52700-008917FM-15+0020EINN V0202101N00151220001CN0112001N1+00201+00001999999ADDAG11999GA1011+002709079GA2021+005409099MA1099291999999REMMET005NOSIGEQDQ01+000000PRSWM2
0159039620999991991010805004+52700-008917SY-MT+0020EINN V0201701N00261220001CN0300001N1+00101+00021099381ADDAG12999GA1011+007509059GA2031+075009009GF104991011051008001001011MA1099291999999MD1810011+9999REMSYN023333   81625 83075 92600MET005NOSIGEQDQ01+000000PRSWM2
0246039620999991991010806004+52700-008917SY-MT+0020EINN V0202201N00571075001CN0300001N1+00231+00071099231ADDAA199004091AG10001AY181061AY271061GA1011+003309079GA2021+005409099GA3041+075009009GF106991031031004501001021GJ100189IA1149IA2999-00409KA1120N+00081MA1099191999999MD1810161+9999MW1261REMSYN041333   20008 34104 55003 81711 82918 84075MET005NOSIG
0077039620999991991010806304+52700-008917FM-15+0020EINN V0201601N00261075001CN0112001N1+00201+00001999999ADDAG12999GA1011+005409099GA2061+075009009MA1099191999999MW1261REMMET005NOSIG
0130039620999991991010807004+52700-008917FM-12+0020EINN V0201101N00411024001CN0300001N9+00101-00011099191ADDAG12999GA1021+009009059GA2041+024009049GA3061+075009029GF107991021051012501071061MD1810231+9999REMSYN023333   82630 84458 86275
0090039620999991991010807304+52700-008917FM-15+0020EINN V0201101N00571024001CN0112001N1+00101+00001999999ADDAG12999GA1011+007209059GA2071+024009049MA1099091999999REMMET005NOSIGEQDQ01+000000PRSWM2
0143039620999991991010808004+52700-008917SY-MT+0020EINN V0201101N00411030001CN0300001N1+00091-00081099081ADDAG12999GA1021+015009059GF108991021051017501071999MA1098981999999MD1710301+9999REMSYN017333   82650 87458MET011CAVOK NOSIGEQDQ01+000000PRSWM2
0090039620999991991010808304+52700-008917FM-15+0020EINN V0201101N00511018001CN0112001N1+00101+00001999999ADDAG12000GA1031+010509059GA2081+018009059MA1098921999999REMMET005NOSIGEQDQ01+000000PRSWM2
0153039620999991991010809004+52700-008917SY-MT+0020EINN V0201301N00311015001CN0300001N1+00121+00011098941ADDAG12000GA1011+009009059GA2081+015009059GF108991081051012501999999MA1098921999999MD1710291+9999REMSYN017333   81630 88650MET005NOSIGEQDQ01+000000PRSWM2
0077039620999991991010809304+52700-008917FM-15+0020EINN V0201201N00621015001CN0112001N1+00101+00101999999ADDAG12999GA1031+005109079GA2081+015009059MA1098821999999MW1601REMMET005NOSIG
0178039620999991991010810004+52700-008917SY-MT+0020EINN V0201201N00411006001CN0160001N1+00141+00081098821ADDAG12999AY161011AY221011GA1021+003009079GA2031+006009059GA3081+015009059GF108991081061004501999999MA1098821999999MD1710371+9999MW1601REMSYN023333   82710 83620 88650MET005NOSIG
0105039620999991991010810304+52700-008917FM-15+0020EINN V0200801N00361006001CN0112001N1+00201+00101999999ADDAG12999GA1031+002709079GA2041+006009059GA3081+015009059MA1098611999999MW1681REMMET017TEMPO 8000 5ST007
0196039620999991991010811004+52700-008917SY-MT+0020EINN V0200701N00361004201CN0070001N1+00151+00101098531ADDAG12015AY171021AY261021GA1041+002109079GA2051+004209079GA3061+006009059GF108991081061002501999999MA1098511999999MD1710551+9999MW1711REMSYN029333   84707 85714 86620 96485MET017TEMPO 5000 5ST005
0108039620999991991010811304+52700-008917FM-15+0020EINN V0200601N00261003001CN0020001N1+00101+00101999999ADDAG12003GA1041+001809079GA2061+003009079GA3071+004209079MA1098411999999MW1711REMMET020TEMPO      ?     600
0210039620999991991010812004+52700-008917SY-MT+0020EINN V0200101N00311002701CN0025001N1+00101-00041098341ADDAA106002091AG10001AY171061AY261061GA1031+001509079GA2051+002709079GA3071+004209079GF108991081061001501999999MA1098311999999MD1710601+9999MW1711REMSYN029333   83705 85709 87714 96485MET020TEMPO      ?     400
0082039620999991991010812304+52700-008917FM-15+0020EINN V0200101N00461001201CN0030001N1+00101+00001999999ADDAG12999GA1051+001209079GA2071+002409079MA1098211999999MW1711REMMET010TEMPO 4000
0162039620999991991010813004+52700-008917SY-MT+0020EINN V0203601N00411001201CN0015001N1+00101-00041098201ADDAG12015AY171011AY271011GA1051+001209079GA2071+002409079GF108991081061001501999999MA1098101999999MD1710621+9999MW1711REMSYN023333   85704 87708 96485MET005NOSIG
0077039620999991991010813304+52700-008917FM-15+0020EINN V0203401N00571003001CN0040001N1+00101+00001999999ADDAG12999GA1031+001209079GA2071+003009079MA1098101999999MW1711REMMET005NOSIG
0219039620999991991010814004+52700-008917SY-MT+0020EINN V0203401N00461002401CN0050001N1+00101-00041098201ADDAG12999AJ199993999999999AY171021AY271021GA1021+001209079GA2031+002409079GA3071+003609079GF108991081061001501999999IA1259MA1098101999999MD1510331+9999MW1711REMSYN041333   41997 82704 83708 87712 98560 98765MET005NOSIG
0093039620999991991010814304+52700-008917FM-15+0020EINN V0203401N00411002401CN0030001N1+00101+00001999999ADDAG12003GA1031+001809079GA2051+002409079GA3071+003609079MA1098211999999MW1711REMMET005NOSIG
0225039620999991991010815004+52700-008917SY-MT+0020EINN V0203201N00411002401CN0080001N1+00111+00031098301ADDAG12001AJ199993999999999AY171031AY271031GA1031+001509079GA2041+002409079GA3061+004509079GF108991081061001501999999IA1259MA1098211999999MD1510041+9999MW1711REMSYN047333   41997 83705 84708 86715 98568 98768 98363MET005NOSIG
0093039620999991991010815304+52700-008917FM-15+0020EINN V0202901N00461004501CN0112001N1+00201+00101999999ADDAG12999GA1021+001809079GA2041+004509079GA3081+015009059MA1098311999999MW1221REMMET005NOSIG
0207039620999991991010816004+52700-008917SY-MT+0020EINN V0203001N00311015001CN0150001N1+00161+00061098431ADDAG12999AJ199993999999999AY171011AY221011GA1011+001809079GA2031+004509079GA3071+015009059GF108991081051002501999999IA1259MA1098411999999MD1310231+9999MW1221REMSYN029333   41997 81706 83715 87650MET005NOSIG
0106039620999991991010816304+52700-008917FM-15+0020EINN V0203001N00311015001CN0112001N1+00201+00101999999ADDAG12999GA1011+001809079GA2031+009009059GA3081+015009059MA1098411999999REMMET005NOSIGEQDQ01+000000PRSWM2
0199039620999991991010817004+52700-008917FM-12+0020EINN V0202601N00411005101CN0080001N9+00181+00101098551ADDAG12043AJ199993999999999AY161021AY221021GA1021+001809079GA2031+005109079GA3061+006609059GF108991081051002501999999IA1259MD1210351+9999MW1211REMSYN047333   41997 82706 83717 86622 98165 98765 98370
0093039620999991991010817304+52700-008917FM-15+0020EINN V0202401N00571003301CN0112001N1+00201+00101999999ADDAG12002GA1021+001809079GA2051+003309079GA3071+006609059MA1098611999999MW1601REMMET005NOSIG
0215039620999991991010818004+52700-008917SY-MT+0020EINN V0202201N00461220001CN0250001N1+00161+00051098611ADDAA199008091AG19001AJ199993999999999AY171061AY261061GA1021+002409079GA2031+006009059GF104991041051002501001001IA1259KA1120M+00261MA1098611999999MD1110311+9999MW1211REMSYN029333   10026 41997 82708 83620MET005NOSIG
0077039620999991991010818304+52700-008917FM-15+0020EINN V0202501N00261220001CN0112001N1+99999+99999999999ADDAG12999GA1011+003309079GA2031+009909059MA1098611999999MW1211REMMET005NOSIG
0185039620999991991010819004+52700-008917SY-MT+0020EINN V0202701N00411006301CN0200001N1+00151+00051098761ADDAG12047AJ199992999999999AY181011AY211011GA1031+002709079GA2061+006309099GF107991071091002501999999IA1259MA1098711999999MD1210331+9999MW1871REMSYN023333   41998 83709 86921MET005NOSIG
0093039620999991991010819304+52700-008917FM-15+0020EINN V0202401N00211006001CN0112001N1+00201+00101999999ADDAG12999GA1011+005409079GA2011+006009099GA3031+006009059MA1098711999999MW1271REMMET005NOSIG
0184039620999991991010820004+52700-008917SY-MT+0020EINN V0202701N00361003001CN0260001N1+00191+00061098861ADDAG12033AY181021AY221021GA1021+002409079GA2031+003009079GA3061+005409099GF107991071091002501999999MA1098821999999MD1210311+9999MW1801REMSYN029333   82708 83710 86918 96487MET005NOSIG
0105039620999991991010820304+52700-008917FM-15+0020EINN V0202701N00261003001CN0080001N1+00101+00001999999ADDAG12001GA1021+002109079GA2041+003009079GA3061+006009099MA1098921999999MW1831REMMET017GRADU 9999 3CU020
0213039620999991991010821004+52700-008917SY-MT+0020EINN V0202001N00151220001CN0350001N1+00111+00001098971ADDAG12001AJ199992999999999AY181031AY211031GA1011+003609079GA2011+006009099GA3031+009009059GF103991031091004501061001IA1259MA1098921999999MD1210361+9999MW1261REMSYN035333   41998 81712 81920 83630 96487MET005NOSIG
0077039620999991991010821304+52700-008917FM-15+0020EINN V0201701N00311220001CN0112001N1+00101+00101999999ADDAG12999GA1011+003009079GA2021+006009099MA1098981999999MW1261REMMET005NOSIG
0182039620999991991010822004+52700-008917SY-MT+0020EINN V0201701N00311220001CN0300001N1+00121+00011099011ADDAG12999AJ199992999999999GA1011+003609079GA2011+006009099GF101991011031004501001001IA1259MA1098981999999MD1010251+9999REMSYN023333   41998 81712 81920MET005NOSIGEQDQ01+000000PRSWM2
0090039620999991991010822304+52700-008917FM-15+0020EINN V0202001N00411010501CN0112001N1+00201+00001999999ADDAG12999GA1021+006009099GA2061+010509059MA1098981999999REMMET005NOSIGEQDQ01+000000PRSWM2
0182039620999991991010823004+52700-008917SY-MT+0020EINN V0201801N00211220001CN0300001N1+00151+00021099001ADDAG12999AJ199992999999999GA1011+006009099GA2031+010509059GF103991031031008001001001IA1259MA1098921999999MD1010141+9999REMSYN023333   41998 81920 83635MET005NOSIGEQDQ01+000000PRSWM2
0091039620999991991010823304+52700-008917FM-15+0020EINN V0201301N00361220001CN0112001N1+00101+00001999999ADDAG12000GA1011+006009099GA2031+060009009MA1098921999999REMMET006NOSIFGEQDQ01+000000PRSWM2
0243039620999991991010900004+52700-008917SY-MT+0020EINN V0201301N00361045001CN0300001N1+00151+00021098941ADDAA106002091AG10001AJ199992999999999AY181061AY211061GA1011+006009089GA2031+012009059GA3081+045009049GF108991031081008001021999IA1259MA1098921999999MD1810031+9999MW1031REMSYN035333   41998 81820 83640 88465 96487MET005NOSIGEQDQ01+000000PRSWM2
0109039620999991991010900304+52700-008917FM-15+0020EINN V0201301N00461045001CN0112001N1+00101+00001999999ADDAG11999GA1021+012009059GA2081+045009049MA1098821999999REMMET024GRADU 7000 6ST010      ?EQDQ01+000000PRSWM2
0155039620999991991010901004+52700-008917SY-MT+0020EINN V0201301N00571045001CN0300001N1+00121-00021098831ADDAG11999GA1081+045009049GF108991081001999999021999MA1098821999999MD1810181+9999REMSYN017333   88465 92600MET023CAVOK GRADU 7000 6ST010EQDQ01+000000PRSWM2
0076039620999991991010901304+52700-008917FM-15+0020EINN V0201201N00511999991CY0099001N1+00101+00001999999ADDAG11999MA1098711999999REMMET023CAVOK GRADU 7000 5ST010EQDQ01+000000PRSWM2
0161039620999991991010902004+52700-008917SY-MT+0020EINN V0201401N00821001501CN0060001N1+00131-00011098641ADDAG12013AY171021AY221021GA1061+001509079GA2081+004509079GF108991081061001501999999MA1098611999999MD1810361+9999MW1701REMSYN017333   86705 88715MET010TEMPO 3000
0080039620999991991010902304+52700-008917FM-15+0020EINN V0201301N00931000901CN0112001N1+00101+00001999999ADDAG12000GA1061+000909079GA2081+002709079MA1098511999999MW1221REMMET008TEMPO 30
0222039620999991991010903004+52700-008917SY-MT+0020EINN V0202001N00621001201CN0070001N1+00111+00001098761ADDAG12001AJ199993999999999AY171031AY221031GA1061+001209079GA2081+002709079GF108991081061001501999999IA1279MA1098711999999MD1510181+9999MW1701REMSYN029333   43997 86704 88709 96485MET036GRADU 10KM       ?     2ST010 4CU020
0086039620999991991010903304+52700-008917FM-15+0020EINN V0201201N00261220001CN0112001N1+00101+00001999999ADDAG12999GA1041+000909079MA1098511999999MW1221REMMET030GRADU 2ST010 4CU020          ?
0218039620999991991010904004+52700-008917SY-MT+0020EINN V0201301N00311006001CN0200001N1+00091-00021098571ADDAG12045AJ199993999999999AY171011AY211011GA1031+003009079GA2051+006009059GF106991061061004501999999IA1269MA1098511999999MD1710261+9999MW1221REMSYN029333   42997 83710 85620 96485MET032TEMPO 7000       ?     5ST008 95
0117039620999991991010904304+52700-008917FM-15+0020EINN V0201401N00361007501CN0112001N1+00201+00001999999ADDAG12999GA1041+003609079GA2051+007509059MA1098511999999REMMET032TEMPO  7000 5ST008     ?     95TEQDQ01+000000PRSWM2
0153039620999991991010905004+52700-008917SY-MT+0020EINN V0202301N00871220001CN0250001N1+00301-00031098551ADDAG12999GA1011+003609079GA2031+005409089GF103991031081004501001001MA1098511999999MD1610081+9999REMSYN017333   81712 83818MET005NOSIGEQDQ01+000000PRSWM2
0090039620999991991010905304+52700-008917FM-15+0020EINN V0202101N00671220001CN0112001N1+00301+00001999999ADDAG12000GA1011+003609079GA2031+006009089MA1098411999999REMMET005NOSIGEQDQ01+000000PRSWM2
0244039620999991991010906004+52700-008917SY-MT+0020EINN V0202001N00721220001CN0300001N1+00261+00021098511ADDAA199008091AG10001AJ199993999999999AY171061AY211061GA1011+003609079GF102991021081004501001001GJ100009IA1269IA2999-00209KA1120N+00041MA1098511999999MD1710241+9999MW1011REMSYN035333   20004 34102 42997 55000 81712MET005NOSIGEQDQ01+000000PRSWM2
0090039620999991991010906304+52700-008917FM-15+0020EINN V0202301N00671220001CN0112001N1+00301+00001999999ADDAG12999GA1011+003609079GA2031+006009089MA1098511999999REMMET005NOSIGEQDQ01+000000PRSWM2
0160039620999991991010907004+52700-008917SY-MT+0020EINN V0202101N00671220001CN0300001N1+00281+00011098631ADDAG12999AJ199993999999999GA1011+003609079GF101991011081004501001001IA1269MA1098611999999MD1310071+9999REMSYN017333   42997 81712MET005NOSIGEQDQ01+000000PRSWM2
0113039620999991991010907304+52700-008917FM-15+0020EINN V0202201N00671006001CN0112001N1+00301+00001999999ADDAG12999GA1011+002409079GA2031+003609079GA3051+006009089MA1098711999999MW1801OC101291REMMET017TEMPO 7000 6ST010
0197039620999991991010908004+52700-008917SY-MT+0020EINN V0202101N00461220001CN0300001N1+00271+00031098671ADDAG12999AJ199993999999999AY181021AY211021GA1011+002709079GA2011+005409099GF102991021031002501001001IA1269MA1098611999999MD1310121+9999MW1251REMSYN023333   42997 81709 81918MET017TEMPO 7000 6ST010
0109039620999991991010908304+52700-008917FM-15+0020EINN V0202101N00621220001CN0112001N1+00301-00101999999ADDAG12000GA1011+003009079GA2011+006009099MA1098711999999REMMET024TEMPO 7000 6ST010      ?EQDQ01+000000PRSWM2
0244039620999991991010909004+52700-008917SY-MT+0020EINN V0202101N00621003301CN0200001N1+00351-00061098711ADDAG12001AJ199993999999999AY181031AY211031GA1021+002109079GA2041+003309079GA3071+006009099GF107991071031002501999999IA1269MA1098711999999MD1210201+9999MW1031REMSYN023333   42997 82707 84711MET029TEMPO 7000       ?     6ST010EQDQ01+000000PRSWM2
0089039620999991991010909304+52700-008917FM-15+0020EINN V0202501N00621220001CN0112001N1+00101+00001999999ADDAG12999GA1011+002409079GA2021+006009099MA1098821999999MW1261REMMET017TEMPO 7000 6ST010
0248039620999991991010910004+52700-008917SY-MT+0020EINN V0202001N00411060001CN0250001N1+00151+00071098791ADDAG12999AJ199993999999999AY181011AY271011GA1011+002409079GA2011+006009099GA3041+060009009GF106991031031002501001021IA1269MA1098711999999MD1210151+9999MW1231MW2261OA149901851REMSYN041333   42997 81708 81920 84070 91136 96485MET017TEMPO 7000 6ST010
0118039620999991991010910304+52700-008917FM-15+0020EINN V0201701N00511015001CN0112001N1+00201+00101999999ADDAG12999GA1011+002109079GA2011+006009099GA3051+015009059MA1098821999999REMMET017TEMPO 7000 6ST010EQDQ01+000000PRSWM2
0187039620999991991010911004+52700-008917SY-MT+0020EINN V0201601N00461027001CN0250001N1+00201+00071098791ADDAG12999GA1011+002409079GA2041+012009059GA3061+027009049GF108991041081002501071999MA1098711999999MD1110111+9999REMSYN023333   81708 83640 86459MET017TEMPO 7000 6ST010EQDQ01+000000PRSWM2
0116039620999991991010911304+52700-008917FM-15+0020EINN V0201701N00511027001CN0112001N1+00301+00101999999ADDAG12001GA1011+004509079GA2031+012009059GA3081+027009049MA1098711999999MW1251REMMET028TEMPO      ?     7000 6ST010
0207039620999991991010912004+52700-008917SY-MT+0020EINN V0201201N00411027001CN0250001N1+00301+00141098691ADDAA106000591AG19001AY181061AY271061GA1011+003609079GA2031+012009059GA3081+027009049GF108991031051004501021999MA1098611999999MD1810021+9999MW1251REMSYN029333   81712 83640 88459 96485MET017TEMPO 7000 6ST010
0118039620999991991010912304+52700-008917FM-15+0020EINN V0201501N00621024001CN0112001N1+00401+00201999999ADDAG12999GA1011+003609079GA2031+012009059GA3081+024009049MA1098611999999REMMET017TEMPO 7000 6ST010EQDQ01+000000PRSWM2
0216039620999991991010913004+52700-008917SY-MT+0020EINN V0201601N00511024001CN0300001N1+00411+00151098551ADDAG12999AJ199993999999999GA1011+003609079GA2041+012009059GA3081+024009049GF108991041051004501021999IA1269MA1098511999999MD1810231+9999REMSYN029333   42997 81712 84640 88458MET017TEMPO 7000 6ST010EQDQ01+000000PRSWM2
0130039620999991991010913304+52700-008917FM-15+0020EINN V0201901N00881024001CN0112001N1+00501+00101999999ADDAG12999GA1011+004509079GA2041+012009059GA3081+024009049MA1098511999999REMMET029TEMPO 7000       ?     6ST010EQDQ01+000000PRSWM2
0228039620999991991010914004+52700-008917SY-MT+0020EINN V0202001N00721024001CN0300001N1+00441+00051098451ADDAG12999AJ199993999999999GA1011+004509079GA2031+007509059GA3081+024009049GF108991061051004501071999IA1259MA1098411999999MD1710331+9999REMSYN029333   41997 81715 83625 88458MET029TEMPO 7000       ?     6ST010EQDQ01+000000PRSWM2
0116039620999991991010915004+52700-008917FM-15+0020EINN V0201701N00571024001CN0112001N1+00301+00101999999ADDAG12002GA1011+004509079GA2031+007509059GA3081+024009049MA1098311999999MW1601REMMET028TEMPO      ?     7000 6ST010
0116039620999991991010915304+52700-008917FM-15+0020EINN V0201401N00461024001CN0112001N1+00301+00101999999ADDAG12999GA1011+003009079GA2031+009009059GA3071+024009049MA1098211999999MW1611REMMET028TEMPO      ?     7000 6ST010
0201039620999991991010916004+52700-008917SY-MT+0020EINN V0201201N00361008101CN0250001N1+00251+00121098151ADDAG12999AY161011AY221011GA1011+002409079GA2051+008109059GA3061+015009059GF107991071051002501071999MA1098101999999MD1710401+9999MW1211REMSYN023333   81708 85627 86650MET028TEMPO      ?     7000 6ST010
0116039620999991991010916304+52700-008917FM-15+0020EINN V0201301N00411006901CN0112001N1+00201+00101999999ADDAG12999GA1011+002409079GA2051+006909059GA3071+015009059MA1098101999999MW1601REMMET028TEMPO      ?     7000 6ST010
0205039620999991991010917004+52700-008917SY-MT+0020EINN V0201201N00361005401CN0100001N1+00171+00071098121ADDAG12999AY161021AY261021GA1011+001509079GA2031+003609079GA3071+005409079GF108991081061001501999999MA1098101999999MD1510341+9999MW1611REMSYN023333   81705 83712 87718MET032TEMPO      ?     5000 5ST007 7ST
0108039620999991991010917304+52700-008917FM-15+0020EINN V0201701N00211002101CN0030001N1+00101+00001999999ADDAG12006GA1031+001209079GA2051+002109079GA3071+003009079MA1098101999999MW1681REMMET020TEMPO      ?     800
0251039620999991991010918004+52700-008917SY-MT+0020EINN V0201901N00151003001CN0040001N1+00081-00031098181ADDAA199002091AG10001AL10600191AY171061AY261061GA1021+001809079GA2051+003009079GA3071+004509079GF108991081071002501999999KA1120M+00511MA1098101999999MD1510141+9999MW1701MW2711REMSYN041333   10051 82706 85710 87715 90710 93101MET020TEMPO      ?     800
0077039620999991991010918304+52700-008917FM-15+0020EINN V0201401N00101004501CN0090001N1+00101+00001999999ADDAG12999GA1021+002409079GA2031+004509079MA1098001999999MW1681REMMET005NOSIG
