0104039620999991978010100004+52683-008917FM-12+0014EINN V0202701N00311009001CN0300001N9+00801+00501102421ADDAA199000091AY121999GA1081+009009059GF108991081051012501999999MD1810071+9999MW1021REMSYN011700// 88630
0068039620999991978010100304+52683-008917FM-15+0014EINN V0202701N00301009001CN0112001N1+00801+00501999999ADDGA1081+009009059MA1102301999999REMMET006NOSIG?EQDQ01+000000PRSWM2
0133039620999991978010101004+52683-008917SY-MT+0014EINN V0202701N00411009001CN0112001N1+00801+00401102361ADDAY121999GA1081+009009059GF108991081051012501999999MA1102301999999MD1810111+9999MW1021REMSYN00588630MET006NOSIG?EQDQ01+000000PRSWM2
0133039620999991978010102004+52683-008917SY-MT+0014EINN V0202701N00411009001CN0112001N1+00801+00401102351ADDAY121999GA1081+009009059GF108991081051012501999999MA1102301999999MD1610111+9999MW1021REMSYN00588630MET006NOSIG?EQDQ01+000000PRSWM2
0121039620999991978010102304+52683-008917FM-15+0014EINN V0202601N00301009001CN0112001N1+00801+00501999999ADDGA1081+009009059MA1102301999999REMMET059NOSIG? 113       ?     8ST002 05/05 1017 GRADU 3000 5ST006?EQDQ01+000000PRSWM2
0133039620999991978010103004+52683-008917SY-MT+0014EINN V0202701N00461009001CN0112001N1+00801+00401102311ADDAY121999GA1081+009009059GF108991081051012501999999MA1102301999999MD1710111+9999MW1021REMSYN00588630MET006NOSIG?EQDQ01+000000PRSWM2
0068039620999991978010103304+52683-008917FM-15+0014EINN V0202701N00461009001CN0112001N1+00801+00401999999ADDGA1081+009009059MA1102301999999REMMET006NOSIG?EQDQ01+000000PRSWM2
0133039620999991978010104004+52683-008917SY-MT+0014EINN V0202701N00511009001CN0112001N1+00801+00401102301ADDAY121999GA1081+009009059GF108991081051012501999999MA1102201999999MD1710061+9999MW1021REMSYN00588630MET006NOSIG?EQDQ01+000000PRSWM2
0084039620999991978010104304+52683-008917FM-15+0014EINN V0202701N00661009001CN0112001N1+00801+00501999999ADDGA1021+006909059GA2081+009009059MA1102201999999REMMET006NOSIG?EQDQ01+000000PRSWM2
0133039620999991978010105004+52683-008917SY-MT+0014EINN V0202601N00461009001CN0112001N1+00801+00401102241ADDAY121999GA1081+009009059GF108991081051012501999999MA1102201999999MD1710111+9999MW1021REMSYN00588630MET006NOSIG?EQDQ01+000000PRSWM2
0068039620999991978010105304+52683-008917FM-15+0014EINN V0202701N00511009001CN0112001N1+00801+00401999999ADDGA1081+009009059MA1102101999999REMMET006NOSIG?EQDQ01+000000PRSWM2
0204039620999991978010106004+52683-008917SY-MT+0014EINN V0202501N00511009001CN0112001N1+00801+00501102141ADDAA199999929AJ100009199999999AY121999GA1061+009009059GF106991061051012501999999IA1089IA2999+00509KA1999N+00801MA1102101999999MD1710171+9999MW1011REMSYN01720510 79708 86630MET006NOSIG?EQDQ01+000000PRSWM2
0068039620999991978010106304+52683-008917FM-15+0014EINN V0202401N00611220001CN0112001N1+00701+00501999999ADDGA1031+009009059MA1102101999999REMMET006NOSIG?EQDQ01+000000PRSWM2
0133039620999991978010107004+52683-008917SY-MT+0014EINN V0202401N00461220001CN0112001N1+00701+00501102161ADDAY111999GA1031+012009059GF103991031051012501001001MA1102101999999MD1610151+9999MW1011REMSYN00583640MET006NOSIG?EQDQ01+000000PRSWM2
0068039620999991978010107304+52683-008917FM-15+0014EINN V0202301N00411220001CN0112001N1+00701+00501999999ADDGA1021+012009059MA1102101999999REMMET006NOSIG?EQDQ01+000000PRSWM2
0133039620999991978010108004+52683-008917SY-MT+0014EINN V0202201N00411220001CN0112001N1+00701+00401102191ADDAY101999GA1031+012009059GF103991031051012501001001MA1102101999999MD1510061+9999MW1021REMSYN00583640MET006NOSIG?EQDQ01+000000PRSWM2
0068039620999991978010108304+52683-008917FM-15+0014EINN V0202101N00411220001CN0112001N1+00601+00401999999ADDGA1031+012009059MA1102201999999REMMET006NOSIG?EQDQ01+000000PRSWM2
0133039620999991978010109004+52683-008917SY-MT+0014EINN V0202201N00411220001CN0112001N1+00601+00301102221ADDAY111999GA1031+012009059GF103991031051012501001001MA1102201999999MD1210071+9999MW1021REMSYN00583640MET006NOSIG?EQDQ01+000000PRSWM2
0068039620999991978010109304+52683-008917FM-15+0014EINN V0202101N00411220001CN0112001N1+00601+00301999999ADDGA1031+012009059MA1102201999999REMMET006NOSIG?EQDQ01+000000PRSWM2
0133039620999991978010110004+52683-008917SY-MT+0014EINN V0202101N00301012001CN0112001N1+00601+00301102221ADDAY111999GA1061+012009059GF106991061051012501999999MA1102201999999MD1110061+9999MW1031REMSYN00586640MET006NOSIG?EQDQ01+000000PRSWM2
0068039620999991978010110304+52683-008917FM-15+0014EINN V0202101N00301012001CN0112001N1+00701+00401999999ADDGA1051+012009059MA1102201999999REMMET006NOSIG?EQDQ01+000000PRSWM2
0155039620999991978010111004+52683-008917SY-MT+0014EINN V0202201N00301010501CN0112001N1+00801+00401102181ADDAY121999GA1011+007509089GA2061+010509059GF106991061081008001999999MA1102101999999MD1010001+9999MW1021REMSYN01181825 86635MET006NOSIG?EQDQ01+000000PRSWM2
0084039620999991978010111304+52683-008917FM-15+0014EINN V0202201N00251010501CN0112001N1+00801+00501999999ADDGA1011+007509089GA2051+010509059MA1102101999999REMMET006NOSIG?EQDQ01+000000PRSWM2
0166039620999991978010112004+52683-008917SY-MT+0014EINN V0202401N00301010501CN0112001N1+00801+00501102141ADDAA106999929AY121999GA1021+007509089GA2071+010509059GF107991071081008001999999MA1102101999999MD1810071+9999MW1801REMSYN01182825 87635MET006NOSIG?EQDQ01  99993PRCP99
0071039620999991978010112304+52683-008917FM-15+0014EINN V0202501N00361010501CN0112001N1+00801+00601999999ADDGA1021+007509089GA2071+010509059MA1102101999999MW1251REMMET006NOSIG?
0136039620999991978010113004+52683-008917SY-MT+0014EINN V0202501N00361010501CN0112001N1+00801+00601102091ADDAY181999GA1031+007509089GA2071+010509059GF107991071081008001999999MA1102001999999MD1710121+9999MW1251REMSYN01183825 87635MET006NOSIG?
0084039620999991978010113304+52683-008917FM-15+0014EINN V0202401N00301010501CN0112001N1+00801+00601999999ADDGA1021+007509089GA2071+010509059MA1102001999999REMMET006NOSIG?EQDQ01+000000PRSWM2
0071039620999991978010114004+52683-008917FM-15+0014EINN V0202401N00361012001CN0112001N1+00801+00501999999ADDGA1011+007509089GA2061+012009059MA1102001999999MW1251REMMET006NOSIG?
0084039620999991978010114304+52683-008917FM-15+0014EINN V0202401N00461012001CN0112001N1+00801+00501999999ADDGA1011+006609059GA2071+012009059MA1101901999999REMMET006NOSIG?EQDQ01+000000PRSWM2
0155039620999991978010115004+52683-008917SY-MT+0014EINN V0202301N00361012001CN0112001N1+00801+00501101991ADDAY181999GA1011+006609059GA2071+012009059GF107991071051008001999999MA1101901999999MD1610151+9999MW1031REMSYN01181622 87640MET006NOSIG?EQDQ01+000000PRSWM2
0084039620999991978010115304+52683-008917FM-15+0014EINN V0202301N00411012001CN0112001N1+00801+00501999999ADDGA1011+006609059GA2071+012009059MA1101901999999REMMET006NOSIG?EQDQ01+000000PRSWM2
0155039620999991978010116004+52683-008917SY-MT+0014EINN V0202301N00561012001CN0112001N1+00801+00501101981ADDAY121999GA1011+006609059GA2071+012009059GF107991071051008001999999MA1101901999999MD1610111+9999MW1021REMSYN01181622 87640MET006NOSIG?EQDQ01+000000PRSWM2
0084039620999991978010116304+52683-008917FM-15+0014EINN V0202201N00361012001CN0112001N1+00801+00501999999ADDGA1011+006609059GA2071+012009059MA1101901999999REMMET006NOSIG?EQDQ01+000000PRSWM2
0169039620999991978010117004+52683-008917SY-MT+0014EINN V0202201N00411012001CN0112001N1+00801+00401101971ADDAY121999GA1011+006009059GA2071+012009059GF107991071051008001999999MA1101901999999MD1710041+9999MW1021REMSYN01181620 87640MET020GRADU 3ST010 8SC020?EQDQ01+000000PRSWM2
0103039620999991978010117304+52683-008917FM-15+0014EINN V0202301N00461013501CN0112001N1+00801+00401999999ADDGA1011+006009059GA2071+013509059MA1101901999999REMMET025GRADU 3ST010 8SC020 ?113?EQDQ01+000000PRSWM2
0185039620999991978010118004+52683-008917SY-MT+0014EINN V0202301N00461013501CN0112001N1+00701+00501101951ADDAA199999929AY181999GA1031+006009059GA2071+013509059GF107991071051008001999999KA1999M+00901MA1101901999999MD1710041+9999MW1601REMSYN01779709 83620 87645MET025GRADU 3ST010 8SC020 ?113?
0084039620999991978010118304+52683-008917FM-15+0014EINN V0202001N00361010501CN0112001N1+00701+00501999999ADDGA1031+006009059GA2071+010509059MA1101901999999MW1211REMMET019GRADU 3ST010 8SC020
0154039620999991978010119004+52683-008917SY-MT+0014EINN V0202101N00361015001CN0112001N1+00701+00501101931ADDAY161999GA1031+009009059GA2081+015009059GF108991081051012501999999MA1101901999999MD1710051+9999MW1211REMSYN01183630 88650MET024GRADU 3ST010 8SC020 ?113
0082039620999991978010119304+52683-008917FM-15+0014EINN V0202201N00411220001CN0112001N1+00601+00501999999ADDGA1011+009009059MA1101901999999REMMET020GRADU 3ST010 8SC020?EQDQ01+000000PRSWM2
0175039620999991978010120004+52683-008917SY-MT+0014EINN V0202201N00561015001CN0112001N1+00701+00501101961ADDAY111999GA1011+009009059GA2061+015009059GF106991061051012501999999MA1101901999999MD1510021+9999MW1011REMSYN01781630 86650 94010MET020GRADU 3ST010 8SC020?EQDQ01+000000PRSWM2
0082039620999991978010120304+52683-008917FM-15+0014EINN V0202201N00511013501CN0112001N1+00701+00501999999ADDGA1081+013509059MA1101901999999REMMET020GRADU 3ST010 8SC020?EQDQ01+000000PRSWM2
0147039620999991978010121004+52683-008917SY-MT+0014EINN V0202301N00461013501CN0112001N1+00701+00501101941ADDAY121999GA1081+013509059GF108991081051012501999999MA1101901999999MD1810021+9999MW1031REMSYN00588645MET020GRADU 3ST010 8SC020?EQDQ01+000000PRSWM2
0082039620999991978010121304+52683-008917FM-15+0014EINN V0202301N00661013501CN0112001N1+00701+00501999999ADDGA1081+013509059MA1101801999999REMMET020GRADU 3ST010 8SC020?EQDQ01+000000PRSWM2
0169039620999991978010122004+52683-008917SY-MT+0014EINN V0202201N00511010501CN0112001N1+00701+00501101881ADDAY121999GA1031+006009059GA2081+010509059GF108991081051008001999999MA1101801999999MD1810061+9999MW1021REMSYN01183620 88635MET020GRADU 3ST010 8SC020?EQDQ01+000000PRSWM2
0100039620999991978010122304+52683-008917FM-15+0014EINN V0202201N00411007501CN0112001N1+00701+00501999999ADDGA1021+006009059GA2031+007509059GA3061+010509059MA1101801999999REMMET006NOSIG?EQDQ01+000000PRSWM2
0114039620999991978010123004+52683-008917SY-MT+0014EINN V0202401N00661220001CN0112001N1+00701+00501101811ADDAY181999GA1031+006009089GF103991031021008001001001MA1101801999999MD1810151+9999MW1801REMSYN00583820MET006NOSIG?
0083039620999991978010123304+52683-008917FM-15+0014EINN V0202501N00771003601CN0080001N1+00801+00601999999ADDGA1051+003609079GA2081+006609059MA1101691999999MW1581REMMET018GRADU 4CU020 ?113?
0142039620999991978010200004+52683-008917SY-MT+0014EINN V0203001N00411007501CN0112001N1+00701+00601101841ADDAA106999929AA299000191AY181999GA1081+007509059GF108991081051008001999999MA1101801999999MD1510101+9999MW1211REMSYN01188625 791//MET006NOSIG?
0071039620999991978010200304+52683-008917FM-15+0014EINN V0203301N00661008401CN0112001N1+00701+00601999999ADDGA1031+003009079GA2081+008409059MA1101801999999MW1211REMMET006NOSIG?
0155039620999991978010201004+52683-008917SY-MT+0014EINN V0203101N00301012001CN0112001N1+00701+00501101891ADDAY121999GA1021+004509079GA2081+012009059GF108991081051008001999999MA1101801999999MD1310011+9999MW1021REMSYN01182715 88640MET006NOSIG?EQDQ01+000000PRSWM2
0084039620999991978010201304+52683-008917FM-15+0014EINN V0202601N00301012001CN0112001N1+00701+00501999999ADDGA1021+004509079GA2081+012009059MA1101801999999REMMET006NOSIG?EQDQ01+000000PRSWM2
0139039620999991978010202004+52683-008917SY-MT+0014EINN V0203101N00311012001CN0200001N1+00701+00501101891ADDAY121999GA1051+012009059GF108991081051008001999999MA1101801999999MD1310011+9999MW1021REMSYN01182715 88640MET006NOSIG?EQDQ01+000000PRSWM2
0068039620999991978010202304+52683-008917FM-15+0014EINN V0202901N00361012001CN0112001N1+00601+00501999999ADDGA1081+012009059MA1101901999999REMMET006NOSIG?EQDQ01+000000PRSWM2
0136039620999991978010203004+52683-008917SY-MT+0014EINN V0203101N00361030001CN0112001N1+00601+00401101941ADDAY161999GA1031+012009059GA2051+030009039GF105991031051012501031999MA1101901999999MD1210101+9999MW1211REMSYN01183640 85360MET006NOSIG?
0071039620999991978010203304+52683-008917FM-15+0014EINN V0203001N00411012001CN0112001N1+00601+00501999999ADDGA1051+012009059GA2051+030009039MA1101901999999MW1211REMMET006NOSIG?
0155039620999991978010204004+52683-008917SY-MT+0014EINN V0203201N00511012001CN0112001N1+00601+00301101921ADDAY121999GA1051+012009059GA2061+024009039GF108991051051012501031999MA1102001999999MD1210131+9999MW1031REMSYN01185640 86358MET006NOSIG?EQDQ01+000000PRSWM2
0068039620999991978010204304+52683-008917FM-15+0014EINN V0203001N00511220001CN0112001N1+00601+00401999999ADDGA1011+006009089MA1102001999999REMMET006NOSIG?EQDQ01+000000PRSWM2
0181039620999991978010205004+52683-008917SY-MT+0014EINN V0203101N00411220001CN0112001N1+00501+00201102041ADDAY111999GA1011+012009059GA2061+024009039GF199999011051012501999001MA1102101999999MD1110151+9999MW1011REMSYN00581640MET006NOSIG?EQDQ01+000012SCOTCVQ02+000002SCOMCGQ03+000000PRSWM2
0068039620999991978010205304+52683-008917FM-15+0014EINN V0203101N00361220001CN0112001N1+00401+00201999999ADDGA1011+012009059MA1102001999999REMMET006NOSIG?EQDQ01+000000PRSWM2
0226039620999991978010206004+52683-008917SY-MT+0014EINN V0203101N00411012601CN0112001N1+00501+00101102041ADDAA199000291AJ100009199999999AY161999GA1011+009009059GA2061+012609059GF106991061051012501999999IA1089IA2999-00109KA1999N+00401MA1102001999999MD1110101+9999MW1031REMSYN02325110 79204 81630 86642MET006NOSIG?EQDQ01+000000PRSWM2
0068039620999991978010206304+52683-008917FM-15+0014EINN V0203101N00411220001CN0112001N1+00301+00101999999ADDGA1021+012009059MA1102001999999REMMET006NOSIG?EQDQ01+000000PRSWM2
0133039620999991978010207004+52683-008917SY-MT+0014EINN V0203001N00411220001CN0112001N1+00301+00001102091ADDAY111999GA1021+012009059GF102991021051012501001001MA1102001999999MD1310071+9999MW1011REMSYN00582640MET006NOSIG?EQDQ01+000000PRSWM2
0068039620999991978010207304+52683-008917FM-15+0014EINN V0203001N00411220001CN0112001N1+00301+00101999999ADDGA1011+012009059MA1102101999999REMMET006NOSIG?EQDQ01+000000PRSWM2
0147039620999991978010208004+52683-008917SY-MT+0014EINN V0202801N00411220001CN0112001N1+00201+00101102131ADDAY101999GA1011+009009059GF102991021051012501001001MA1102101999999MD1310091+9999MW1021WG199010999999REMSYN00581630MET006NOSIG?EQDQ01+000000PRSWM2
0068039620999991978010208304+52683-008917FM-15+0014EINN V0202801N00361220001CN0112001N1+00301+00101999999ADDGA1011+007509059MA1102101999999REMMET006NOSIG?EQDQ01+000000PRSWM2
0133039620999991978010209004+52683-008917SY-MT+0014EINN V0203001N00411220001CN0112001N1+00301+00001102191ADDAY111999GA1011+007209089GF104991021081008001001021MA1102101999999MD1210151+9999MW1031REMSYN00581824MET006NOSIG?EQDQ01+000000PRSWM2
0068039620999991978010209304+52683-008917FM-15+0014EINN V0202701N00301220001CN0112001N1+00301+00001999999ADDGA1021+007809089MA1102201999999REMMET006NOSIG?EQDQ01+000000PRSWM2
0159039620999991978010210004+52683-008917SY-MT+0014EINN V0202901N00511220001CN0112001N1+00401+00001102261ADDAY111999GA1011+007509089GA2031+012909059GF104991041081008001001021MA1102201999999MD1310171+9999MW1031REMSYN01181825 83643MET010NOSIG? 113EQDQ01+000000PRSWM2
0084039620999991978010210304+52683-008917FM-15+0014EINN V0202801N00251220001CN0112001N1+00401+00101999999ADDGA1011+007509089GA2031+013509059MA1102201999999REMMET006NOSIG?EQDQ01+000000PRSWM2
0133039620999991978010211004+52683-008917SY-MT+0014EINN V0202801N00361220001CN0112001N1+00601+00201102311ADDAY111999GA1011+007509089GF102991021081008001001001MA1102301999999MD1210181+9999MW1011REMSYN00581825MET006NOSIG?EQDQ01+000000PRSWM2
0084039620999991978010211304+52683-008917FM-15+0014EINN V0202701N00411220001CN0112001N1+00701+00101999999ADDGA1011+007509089GA2041+013509059MA1102201999999REMMET006NOSIG?EQDQ01+000000PRSWM2
0188039620999991978010212004+52683-008917SY-MT+0014EINN V0202601N00361220001CN0112001N1+00701+00101102291ADDAA106999929AY111999GA1011+007509089GA2041+013509059GF104991041081008001001001MA1102201999999MD1010101+9999MW1031REMSYN017797// 81825 84645MET006NOSIG?EQDQ01+000000PRSWM2Q02  99993PRCP99
0084039620999991978010212304+52683-008917FM-15+0014EINN V0202701N00511220001CN0112001N1+00701+00101999999ADDGA1011+008109089GA2031+013509059MA1102201999999REMMET006NOSIG?EQDQ01+000000PRSWM2
0133039620999991978010213004+52683-008917SY-MT+0014EINN V0202601N00611220001CN0112001N1+00801+00101102241ADDAY111999GA1011+008109089GF102991021081008001001001MA1102201999999MD1810021+9999MW1011REMSYN00581827MET006NOSIG?EQDQ01+000000PRSWM2
0084039620999991978010213304+52683-008917FM-15+0014EINN V0202601N00721220001CN0112001N1+00801+00201999999ADDGA1011+009009059GA2031+013509059MA1102101999999REMMET006NOSIG?EQDQ01+000000PRSWM2
0133039620999991978010214004+52683-008917SY-MT+0014EINN V0202501N00921220001CN0112001N1+00901+00201102171ADDAY101999GA1021+010509059GF103991021051012501041001MA1102101999999MD1710131+9999MW1031REMSYN00582635MET006NOSIG?EQDQ01+000000PRSWM2
0068039620999991978010214304+52683-008917FM-15+0014EINN V0202401N00771220001CN0112001N1+00801+00201999999ADDGA1011+010509059MA1102101999999REMMET006NOSIG?EQDQ01+000000PRSWM2
0133039620999991978010215004+52683-008917SY-MT+0014EINN V0202501N00821220001CN0112001N1+00701+00101102171ADDAY111999GA1021+010509059GF103991021051012501041021MA1102101999999MD1710121+9999MW1031REMSYN00582635MET006NOSIG?EQDQ01+000000PRSWM2
0084039620999991978010215304+52683-008917FM-15+0014EINN V0202301N00661010501CN0112001N1+00701+00201999999ADDGA1061+010509059GA2031+060009029MA1102101999999REMMET006NOSIG?EQDQ01+000000PRSWM2
0155039620999991978010216004+52683-008917SY-MT+0014EINN V0202401N00661030001CN0112001N1+00701+00101102151ADDAY111999GA1011+010509059GA2041+060009029GF105991011051012501031051MA1102101999999MD1710091+9999MW1331REMSYN01181635 84270MET006NOSIG?EQDQ01+000000PRSWM2
0068039620999991978010216304+52683-008917FM-15+0014EINN V0202301N00921220001CN0112001N1+00601+00101999999ADDGA1021+010509059MA1102001999999REMMET006NOSIG?EQDQ01+000000PRSWM2
0155039620999991978010217004+52683-008917SY-MT+0014EINN V0202401N00771220001CN0112001N1+00601+00201102091ADDAY121999GA1011+010509059GA2031+060009009GF104991011051012501031021MA1102001999999MD1710091+9999MW1011REMSYN01181635 83070MET006NOSIG?EQDQ01+000000PRSWM2
0100039620999991978010217304+52683-008917FM-15+0014EINN V0202401N00871075001CN0112001N1+00601+00201999999ADDGA1011+010509059GA2031+027009039GA3051+075009009MA1102001999999REMMET006NOSIG?EQDQ01+000000PRSWM2
0207039620999991978010218004+52683-008917SY-MT+0014EINN V0202501N00971075001CN0112001N1+00701+00301102031ADDAA199999929AY111999GA1011+010509059GA2031+027009039GA3051+075009009GF106991011051012501031021KA1999M+00901MA1102001999999MD1810141+9999MW1031REMSYN02379709 81635 83359 85075MET006NOSIG?EQDQ01+000000PRSWM2
0058039620999991978010218304+52683-008917FM-15+0014EINN V0202501N01081999991CY0099001N1+00701+00301999999ADDMA1102001999999REMMET012CAVOK NOSIG?EQDQ01+000000PRSWM2
0167039620999991978010219004+52683-008917SY-MT+0014EINN V0202601N01231075001CN0099001N1+00801+00301101921ADDAY121999GA1021+027009039GA2071+075009029GF107991021001999999031061MA1101901999999MD1710221+9999MW1031REMSYN01782359 87275 94036MET012CAVOK NOSIG?EQDQ01+000000PRSWM2
0058039620999991978010219304+52683-008917FM-15+0014EINN V0202601N01281999991CY0099001N1+00801+00301999999ADDMA1101801999999REMMET012CAVOK NOSIG?EQDQ01+000000PRSWM2
0192039620999991978010220004+52683-008917SY-MT+0014EINN V0202601N01181012001CN0112001N1+00801+00401101911ADDAY121999GA1051+012009059GA2071+027009049GF108991051051012501071999MA1101901999999MD1510171+9999MW1031OA199901951REMSYN02385640 87459 91138 90094MET020GRADU 4ST012 8SC020?EQDQ01+000000PRSWM2
0103039620999991978010220304+52683-008917FM-15+0014EINN V0202601N01281009001CN0112001N1+00901+00401999999ADDGA1061+009009059GA2081+027009049MA1101801999999MW1601OC101801REMMET030GRADU 4ST012     ?     8SC020?
0205039620999991978010221004+52683-008917SY-MT+0014EINN V0202601N01541006901CN0112001N1+00801+00501101851ADDAY161999GA1011+004509079GA2051+006909059GA3071+010509059GF108991081051004501999999MA1101801999999MD1710171+9999MW1601OA199902101REMSYN02981715 85623 87635 91141 90095MET030GRADU 4ST012     ?     8SC020?
0120039620999991978010221304+52683-008917FM-15+0014EINN V0202601N01331006001CN0112001N1+00801+00601999999ADDGA1021+004509079GA2061+006009059GA3061+010509059MA1101801999999MW1601OC101851REMMET031GRADU      ?     4ST012 8SC020?
0214039620999991978010222004+52683-008917SY-MT+0014EINN V0202601N01281005701CN0112001N1+00801+00601101801ADDAY161999GA1021+004509079GA2061+005709079GA3061+009009059GF108991081061004501999999MA1101691999999MD1810121+9999MW1611OA199902151OC102051REMSYN02982715 86719 86630 91142 90021MET031GRADU      ?     4ST012 8SC020?
0111039620999991978010222304+52683-008917FM-15+0014EINN V0202601N01491005701CN0112001N1+00901+00401999999ADDGA1031+004509079GA2051+005709079GA3061+009009059MA1101691999999MW1601REMMET030TEMPO 4ST008     ?     8ST012?
0183039620999991978010223004+52683-008917SY-MT+0014EINN V0202601N01331006001CN0112001N1+00901+00701101751ADDAY161999GA1021+003909079GA2041+006009059GF107991071051004501999999MA1101691999999MD1710161+9999MW1211OA199902051REMSYN02382713 84620 91140 90022MET030TEMPO 4ST008     ?     8ST012?
0095039620999991978010223304+52683-008917FM-15+0014EINN V0202601N01491006001CN0112001N1+00901+00701999999ADDGA1021+004509079GA2051+006009059GA3061+013509059MA1101691999999MW1601OC102001REMMET006NOSIG?
0209039620999991978010300004+52683-008917SY-MT+0014EINN V0202601N01381006001CN0112001N1+00901+00701101701ADDAA106999929AA299000291AY161999GA1011+004509079GA2051+006009059GA3061+008409059GF108991081051004501999999MA1101591999999MD1710151+9999MW1601OA199902201REMSYN035792// 81715 85620 86628 91143 90045MET006NOSIG?
0095039620999991978010300304+52683-008917FM-15+0014EINN V0202601N01441007501CN0112001N1+00901+00701999999ADDGA1031+004209079GA2041+007509059GA3061+015009059MA1101491999999MW1211OC101951REMMET006NOSIG?
0195039620999991978010301004+52683-008917SY-MT+0014EINN V0202601N01491006901CN0112001N1+00901+00701101591ADDAY161999GA1031+004809079GA2061+006909059GA3081+015009059GF108991081051004501999999MA1101491999999MD1610211+9999MW1211OA199902051OC102051REMSYN03583716 86623 88650 91140 90001 91232MET006NOSIG?
0108039620999991978010301304+52683-008917FM-15+0014EINN V0202601N01541006001CN0112001N1+01001+00701999999ADDGA1021+004809079GA2051+006009059GA3081+009009059MA1101491999999OC102311REMMET006NOSIG?EQDQ01+000000PRSWM2
0187039620999991978010302004+52683-008917SY-MT+0014EINN V0202601N01691006601CN0112001N1+00901+00701101561ADDAY161999GA1021+005109079GA2031+006609059GA3081+009609059GF108991081051004501999999MA1101491999999MD1610191+9999MW1601OA199902411REMSYN03582717 83622 88632 91147 90076 91234MET006NOGIG?
0095039620999991978010302304+52683-008917FM-15+0014EINN V0202601N01641006601CN0112001N1+00901+00701999999ADDGA1021+005109079GA2041+006609059GA3081+008409059MA1101491999999MW1601OC102361REMMET006NOSIG?
0138039620999991978010303004+52683-008917FM-12+0014EINN V0202601N01541005101CN0150001N9+00901+00701101471ADDAY161999GA1051+005109079GA2081+006309059GF108991081061004501999999MD1710231+9999MW1211OA199902361REMSYN02985717 88621 91146 90052 91232
0071039620999991978010303304+52683-008917FM-15+0014EINN V0202601N01691006001CN0112001N1+01001+00701999999ADDGA1051+006009059GA2081+012009059MA1101391999999MW1601REMMET006NOSIG?
0203039620999991978010304004+52683-008917SY-MT+0014EINN V0202601N01691005101CN0112001N1+00901+00701101401ADDAY161999GA1051+005109079GA2081+010509059GF108991081061004501999999MA1101291999999MD1710191+9999MW1621OA199902461OC102211REMSYN02985717 88635 91148 90078 91233MET036TEMPO 7000 4ST010      ?     8ST015?
0111039620999991978010304304+52683-008917FM-15+0014EINN V0203001N01231006001CN0040001N1+00901+00701999999ADDGA1031+005109079GA2051+006009059GA3081+009009049MA1101391999999MW1651OC101751REMMET022GRADU      ?     9999?
0187039620999991978010305004+52683-008917SY-MT+0014EINN V0202801N01231006001CN0080001N1+00901+00701101441ADDAY161999GA1041+004809079GA2051+006009059GA3081+009009049GF108991061061004501021999MA1101391999999MD1510121+9999MW1631OA199902511REMSYN03584716 85620 88530 91149 90029 91235MET006NOSIG?
0079039620999991978010305304+52683-008917FM-15+0014EINN V0202001N01541220001CN0112001N1+00901+00601999999ADDGA1011+006009089GA2031+012009059MA1101391999999MW1801OC102261REMMET006NOSIG?
0244039620999991978010306004+52683-008917SY-MT+0014EINN V0202901N01281009001CN0080001N1+00801+00501101541ADDAA199008091AJ100009199999999AY161999GA1031+006009099GA2061+009009059GF107991071031008001999999IA1089IA2999+00509KA1999N+00701MA1101491999999MD1310071+9999MW1801OA199902511OC101801REMSYN04120510 70807 83920 86630 91149 90030 91235MET006NOSIG?
0063039620999991978010306304+52683-008917FM-15+0014EINN V0203001N01801220001CN0112001N1+00801+00401999999ADDGA1031+006009099MA1101491999999MW1251OC102311REMMET006NOSIG?
0195039620999991978010307004+52683-008917SY-MT+0014EINN V0203101N01281006001CN0112001N1+00801+00401101651ADDAY181999GA1051+006009099GA2051+013509059GA3031+006009099GF108991081031008001999999MA1101591999999MD1210251+9999MW1801OA199902361OC102051REMSYN03585920 85645 83920 91146 90031 91234MET006NOSIG?
0055039620999991978010307304+52683-008917FM-15+0014EINN V0203001N01441009001CN0112001N1+00701+00301999999ADDGA1051+009009099MA1101691999999MW1801REMMET006NOSIG?
0181039620999991978010308004+52683-008917SY-MT+0014EINN V0202901N01231006901CN0112001N1+00701+00401101741ADDAY181999GA1051+006909099GA2051+010509059GA3031+006909099GF107991071031008001999999MA1101691999999MD1210291+9999MW1801OA199902311REMSYN02985923 85635 83923 91145 90007MET006NOSIG?
0181039620999991978010309004+52683-008917SY-MT+0014EINN V0203001N01281015001CN0112001N1+00701+00101101891ADDAY181999GA1011+004509079GA2031+006909089GA3061+015009059GF107991071081004501999999MA1101801999999MD1210341+9999MW1251OA199901891REMSYN02981715 83823 86650 91137 90058MET006NOSIG?
0100039620999991978010309304+52683-008917FM-15+0014EINN V0203001N01021015001CN0112001N1+00701+00001999999ADDGA1011+004509079GA2031+006909089GA3061+015009059MA1101901999999REMMET006NOSIG?EQDQ01+000000PRSWM2
0159039620999991978010310004+52683-008917SY-MT+0014EINN V0202901N01081004201CN0112001N1+00701+00001101961ADDAY181999GA1011+004509079GA2031+006909099GF106991051091004501999031MA1101901999999MD1210301+9999MW1251OA199901841REMSYN02381715 83923 91136 90034MET006NOSIG?
0071039620999991978010310304+52683-008917FM-15+0014EINN V0203001N00971220001CN0112001N1+00601+00201999999ADDGA1011+004509079GA2031+006909099MA1102001999999MW1251REMMET006NOSIG?
0216039620999991978010311004+52683-008917SY-MT+0014EINN V0203201N012419999999N0080001N1+00701+00101102111ADDAY181999ED199U00009GA1011+004509079GA2041+006909099GF106991041091004501999031MA1102101999999MD1310371+9999MW1801OA199901951REMSYN04781715 84923 94712 97280 97380 97480 91138 90011MET028VIS 9999 SE % SW % MW NOSIG?
0071039620999991978010311304+52683-008917FM-15+0014EINN V0203101N00721220001CN0112001N1+00601+00101999999ADDGA1011+004509079GA2031+006909099MA1102101999999MW1251REMMET006NOSIG?
0172039620999991978010312004+52683-008917SY-MT+0014EINN V0203101N009219999999N0112001N1+00701+00101102121ADDAA106000391AY181999GA1011+004509079GA2031+006909099GF105991031031004501999031MA1102101999999MD1110231+9999MW1251REMSYN017793// 81715 83923MET006NOSIG?EQDQ01  00033PRCP99
0079039620999991978010312304+52683-008917FM-15+0014EINN V0203101N01081220001CN0112001N1+00901+00201999999ADDGA1011+004509079GA2041+006909099MA1102101999999MW1801OC101641REMMET006NOSIG?
0136039620999991978010313004+52683-008917SY-MT+0014EINN V0203101N00921013501CN0112001N1+00701+00101102171ADDAY181999GA1031+006009099GA2041+013509059GF106991051031008001999031MA1102101999999MD1210211+9999MW1251REMSYN01183920 84645MET006NOSIG?
0071039620999991978010313304+52683-008917FM-15+0014EINN V0203001N00771220001CN0112001N1+00701+00201999999ADDGA1011+004509079GA2031+006909099MA1102101999999MW1251REMMET006NOSIG?
0155039620999991978010314004+52683-008917SY-MT+0014EINN V0203001N00921007501CN0112001N1+00801+00201102231ADDAY121999GA1041+006909099GA2031+006909099GF106991051031008001999031MA1102201999999MD1310121+9999MW1021REMSYN01184923 83923MET006NOSIG?EQDQ01+000000PRSWM2
0084039620999991978010314304+52683-008917FM-15+0014EINN V0203201N00661220001CN0112001N1+00701+00301999999ADDGA1011+006909099GA2031+009009059MA1102201999999REMMET006NOSIG?EQDQ01+000000PRSWM2
0169039620999991978010315004+52683-008917SY-MT+0014EINN V0203101N00721009001CN0112001N1+00801+00201102251ADDAY181999GA1011+006009099GA2041+009009059GF106991051031008001031031MA1102201999999MD1110131+9999MW1021WG199370999999REMSYN01181920 84630MET006NOSIG?EQDQ01+000000PRSWM2
0100039620999991978010315304+52683-008917FM-15+0014EINN V0202901N00721013501CN0112001N1+00701+00301999999ADDGA1011+004809079GA2051+013509059GA3061+027009049MA1102201999999REMMET006NOSIG?EQDQ01+000000PRSWM2
0155039620999991978010316004+52683-008917SY-MT+0014EINN V0203001N00721013501CN0112001N1+00701+00301102301ADDAY121999GA1021+009009059GA2041+013509059GF107991051051012501031021MA1102201999999MD1210131+9999MW1031REMSYN01182630 84645MET006NOSIG?EQDQ01+000000PRSWM2
0084039620999991978010316304+52683-008917FM-15+0014EINN V0203001N00461013501CN0112001N1+00701+00301999999ADDGA1061+013509059GA2041+027009039MA1102301999999REMMET006NOSIG?EQDQ01+000000PRSWM2
0136039620999991978010317004+52683-008917SY-MT+0014EINN V0203001N00461013501CN0112001N1+00701+00401102361ADDAY161999GA1071+013509059GA2061+027009049GF108991071051012501071999MA1102301999999MD1310131+9999MW1601REMSYN01187645 86459MET006NOSIG?
0071039620999991978010317304+52683-008917FM-15+0014EINN V0203001N00251008401CN0112001N1+00601+00501999999ADDGA1061+008409059GA2071+027009049MA1102301999999MW1601REMMET006NOSIG?
0172039620999991978010318004+52683-008917SY-MT+0014EINN V0203001N00201007501CN0112001N1+00601+00501102361ADDAA199000491AY181999GA1051+007509059GA2081+013509059GF108991081051008001999999KA1999M+00801MA1102301999999MD1110111+9999MW1611REMSYN02379408 85625 88645 94014MET006NOSIG?
0071039620999991978010318304+52683-008917FM-15+0014EINN V0202501N00151007501CN0112001N1+00601+00501999999ADDGA1021+005109079GA2081+007509059MA1102301999999MW1611REMMET006NOSIG?
0160039620999991978010319004+52683-008917SY-MT+0014EINN V0202301N00201005701CN0112001N1+00601+00501102341ADDAY161999GA1021+004509079GA2081+005709079GF108991081061004501999999MA1102301999999MD1010041+9999MW1611REMSYN01182715 88719MET030GRADU 4ST012     ?     8SC030?
0092039620999991978010319304+52683-008917FM-15+0014EINN V0202201N00201003901CN0050001N1+00601+00601999999ADDGA1021+002409079GA2051+003909079GA3081+005409079MA1102301999999MW1611REMMET011TEMPO 9000?
0141039620999991978010320004+52683-008917SY-MT+0014EINN V0201901N00251004501CN0060001N1+00601+00601102321ADDAY161999GA1021+002409079GA2081+004509079GF108991081061002501999999MA1102301999999MD1010041+9999MW1581REMSYN01182708 88715MET011GRADU 9000?
0101039620999991978010320304+52683-008917FM-15+0014EINN V0201901N00251003001CN0050001N1+00601+00601999999ADDGA1031+001209079GA2081+003009079MA1102201999999MW1581REMMET036TEMPO 9000 4ST010      ?     8SC020?
0166039620999991978010321004+52683-008917SY-MT+0014EINN V0202501N00411007501CN0112001N1+00701+00701102291ADDAY151999GA1031+003009079GA2081+007509059GF108991081051004501999999MA1102201999999MD1710071+9999MW1611REMSYN01183710 88625MET036TEMPO 5000 4ST004      ?     8ST010?
0118039620999991978010321304+52683-008917FM-15+0014EINN V0202701N00721004801CN0112001N1+00901+00801999999ADDGA1021+003009079GA2041+004809079GA3081+009009059MA1102201999999MW1611REMMET037TEMPO 5000       ?     3ST004 8ST010?
0155039620999991978010322004+52683-008917SY-MT+0014EINN V0202701N00721003601CN0070001N1+00901+00801102231ADDAY161999GA1031+002709079GA2081+003609079GF108991081061002501999999MA1102201999999MD1710101+9999MW1611REMSYN01183709 88712MET025TEMPO 3ST004 8ST009 ?113?
0117039620999991978010322304+52683-008917FM-15+0014EINN V0202701N00821003601CN0112001N1+00901+00801999999ADDGA1021+002709079GA2051+003609079GA3081+010509059MA1102201999999MW1211REMMET036TEMPO      ?     6000 4ST004 6ST009?
0167039620999991978010323004+52683-008917SY-MT+0014EINN V0202701N00871004801CN0112001N1+00901+00801102201ADDAY161999GA1031+003309079GA2081+004809079GF108991081061004501999999MA1102101999999MD1710111+9999MW1211REMSYN01183711 88716MET037TEMPO 6000       ?     4ST007 8ST015?
0118039620999991978010323304+52683-008917FM-15+0014EINN V0202701N00971012001CN0112001N1+00901+00801999999ADDGA1011+003609079GA2031+004809079GA3081+012009059MA1102201999999MW1601REMMET037TEMPO 7000       ?     4ST007 6ST012?
0225039620999991978010400004+52683-008917SY-MT+0014EINN V0202701N00921004501CN0112001N1+00901+00801102221ADDAA106003091AY151999GA1021+003309079GA2051+004509079GA3081+012009059GF108991081061004501999999MA1102201999999MD1510061+9999MW1601REMSYN023703// 82711 85715 88640MET037TEMPO 6000       ?     4ST007 6ST011?EQDQ01  00303PRCP99
0118039620999991978010400304+52683-008917FM-15+0014EINN V0202801N00871004501CN0090001N1+00901+00801999999ADDGA1031+003309079GA2061+004509079GA3081+012009059MA1102201999999MW1611REMMET037TEMPO 5000       ?     4ST007 6ST011?
0189039620999991978010401004+52683-008917SY-MT+0014EINN V0202701N00771005701CN0090001N1+00901+00801102221ADDAY161999GA1031+003009079GA2031+005709079GA3081+012009049GF108991051071004501021999MA1102201999999MD1810011+9999MW1611REMSYN01783710 83719 88540MET037TEMPO 5000       ?     4ST007 6ST011?
0111039620999991978010401304+52683-008917FM-15+0014EINN V0202601N00771004201CN0060001N1+00901+00901999999ADDGA1021+003009079GA2051+004209079GA3081+005709079MA1102101999999MW1611REMMET030TEMPO 4ST007     ?     6ST010?
0172039620999991978010402004+52683-008917SY-MT+0014EINN V0202801N00921003601CN0070001N1+01001+00901102171ADDAY161999GA1041+002109079GA2051+003609079GA3061+005109079GF108991081071002501999999MA1102101999999MD1810031+9999MW1611WG199010999999REMSYN01784707 85712 86717MET006NOSIG?
0111039620999991978010402304+52683-008917FM-15+0014EINN V0202801N00921002701CN0060001N1+01001+00901999999ADDGA1021+001809079GA2061+002709079GA3071+003609079MA1102101999999MW1631REMMET030GRADU 3ST012     ?     7ST018?
0166039620999991978010403004+52683-008917SY-MT+0014EINN V0202801N01021002101CN0050001N1+01001+00901102221ADDAY161999GA1051+002109079GA2071+003309079GF108991081071002501999999MA1102201999999MD1510001+9999MW1631REMSYN01185707 87711MET036GRADU 99999 3ST012     ?     7ST018?
0118039620999991978010403304+52683-008917FM-15+0014EINN V0202801N00971003301CN0050001N1+01001+00901999999ADDGA1031+002109079GA2051+003309079GA3071+005709079MA1102201999999MW1581REMMET037GRADU 9999       ?     3ST012 7ST018?
0189039620999991978010404004+52683-008917SY-MT+0014EINN V0202901N01081002101CN0040001N1+01001+00901102201ADDAY161999GA1031+001509079GA2041+002109079GA3071+002709079GF108991081071001501999999MA1102101999999MD1710021+9999MW1531REMSYN01783705 84707 87709MET037GRADU 9999       ?     3ST012 7ST018?
0118039620999991978010404304+52683-008917FM-15+0014EINN V0202901N01021002401CN0035001N1+01001+00901999999ADDGA1021+001509079GA2041+002409079GA3061+003309079MA1102201999999MW1531REMMET037GRADU 9999       ?     3ST012 7ST018?
0189039620999991978010405004+52683-008917SY-MT+0014EINN V0202901N00921002101CN0030001N1+01001+00901102241ADDAY161999GA1021+001209079GA2041+002109079GA3071+002709079GF108991081071001501999999MA1102201999999MD1310071+9999MW1531REMSYN01782704 84707 87709MET037GRADU 6000       ?     4ST007 6ST012?
0118039620999991978010405304+52683-008917FM-15+0014EINN V0202901N00921001801CN0030001N1+01001+00901999999ADDGA1021+001209079GA2051+001809079GA3071+002709079MA1102201999999MW1511REMMET037GRADU 6000       ?     4ST007 6ST012?
0260039620999991978010406004+52683-008917SY-MT+0014EINN V0202901N01181001801CN0030001N1+01001+00901102241ADDAA199006091AJ100009199999999AY161999GA1031+001209079GA2061+001809079GA3071+002709079GF108991081071001501999999IA1089IA2999+00509KA1999N+00601MA1102201999999MD1110021+9999MW1511REMSYN02920510 70606 83704 86706 87709MET037GRADU 6000       ?     4ST007 6ST012?
0118039620999991978010406304+52683-008917FM-15+0014EINN V0202901N01181001801CN0030001N1+01001+00901999999ADDGA1031+001209079GA2061+001809079GA3071+002709079MA1102201999999MW1511REMMET037GRADU 6000       ?     4ST007 6ST012?
0189039620999991978010407004+52683-008917SY-MT+0014EINN V0202901N01021001801CN0030001N1+01001+00901102301ADDAY151999GA1031+001209079GA2061+001809079GA3071+002709079GF108991081071001501999999MA1102201999999MD1310101+9999MW1511REMSYN01783704 86706 87709MET037GRADU 6000       ?     4ST007 6ST012?
0118039620999991978010407304+52683-008917FM-15+0014EINN V0203001N01021001801CN0030001N1+01001+00901999999ADDGA1021+001209079GA2031+001809079GA3061+003009079MA1102201999999MW1511REMMET037GRADU  9999      ?     3ST010 7ST015?
0131039620999991978010408004+52683-008917FM-12+0014EINN V0203001N01031002701CN0030001N9+01001+00901102361ADDAY151999GA1031+001809079GA2061+002709079GA3071+003609079GF108991081071002501999999MD1210121+9999MW1511REMSYN01783706 86709 87712
0118039620999991978010408304+52683-008917FM-15+0014EINN V0203001N00821003001CN0040001N1+01001+00901999999ADDGA1021+002109079GA2051+003009079GA3071+004209079MA1102401999999MW1511REMMET037GRADU 9999       ?     3ST010 7ST015?
0145039620999991978010409004+52683-008917FM-12+0014EINN V0202901N00881002701CN0030001N9+01001+01001102461ADDAY151999GA1021+001809079GA2051+002709079GA3071+003609079GF108991081071002501999999MD1210221+9999MW1511WG199090899999REMSYN01782706 85709 87712
0102039620999991978010409304+52683-008917FM-15+0014EINN V0203001N00921003001CN0060001N1+01001+01001999999ADDGA1051+003009079GA2051+004509079MA1102401999999MW1201REMMET037GRADU 9999       ?     3ST012 7ST018?
0189039620999991978010410004+52683-008917SY-MT+0014EINN V0203001N00821003301CN0040001N1+01001+01001102551ADDAY151999GA1031+001809079GA2041+003309079GA3061+005109079GF108991081071002501999999MA1102511999999MD1210251+9999MW1501REMSYN01783706 84711 86717MET037GRADU 9999       ?     3ST012 7ST018?
0118039620999991978010410304+52683-008917FM-15+0014EINN V0202901N00771003001CN0040001N1+01001+01001999999ADDGA1031+001809079GA2041+003009079GA3061+004509079MA1102511999999MW1501REMMET037GRADU 9999       ?     3ST012 7ST018?
0158039620999991978010411004+52683-008917SY-MT+0014EINN V0202901N00821003001CN0050001N1+01101+01001102611ADDAY151999GA1021+001809079GA2051+003009079GA3061+004509079GF107991071071002501999999MA1102611999999MD1210251+9999MW1511REMSYN01782706 85710 86715MET006NOSIG?
0093039620999991978010411304+52683-008917FM-15+0014EINN V0202901N00611002701CN0060001N1+01101+01001999999ADDGA1021+001809079GA2041+002709079GA3061+003909079MA1102611999999MW1501REMMET012NOISIG ?113?
0183039620999991978010412004+52683-008917SY-MT+0014EINN V0202901N00771002101CN0070001N1+01001+01001102631ADDAA106999929AA299000291AY151999GA1061+002109079GA2071+003309079GF108991081071002501999999MA1102611999999MD1110171+9999MW1501REMSYN017792// 86707 87711MET025GRADU 3ST007 8ST012 ?113?
0071039620999991978010412304+52683-008917FM-15+0014EINN V0202901N00821003001CN0080001N1+01001+00901999999ADDGA1021+002409079GA2071+003009079MA1102611999999MW1201REMMET006NOSIG?
0136039620999991978010413004+52683-008917SY-MT+0014EINN V0202901N00611003601CN0070001N1+01001+00901102671ADDAY151999GA1031+002709079GA2071+003609079GF107991071071002501999999MA1102611999999MD1210121+9999MW1501REMSYN01183709 87712MET006NOSIG?
0101039620999991978010413304+52683-008917FM-15+0014EINN V0202901N00611003601CN0080001N1+01001+00901999999ADDGA1031+002709079GA2071+003609079MA1102611999999MW1501REMMET036GRADU 9999 3ST012      ?     7SC020?
0158039620999991978010414004+52683-008917SY-MT+0014EINN V0202901N00671002701CN0070001N1+01001+00901102741ADDAY151999GA1021+002109079GA2051+002709079GA3071+004209079GF108991081071002501999999MA1102711999999MD1210131+9999MW1501REMSYN01782707 85709 87714MET006NOSIG?
0117039620999991978010414304+52683-008917FM-15+0014EINN V0202901N00661004201CN0112001N1+01001+00901999999ADDGA1021+002409079GA2051+004209079GA3071+006009059MA1102711999999MW1201REMMET036GRADU      ?     6000 3ST006 8ST012?
0158039620999991978010415004+52683-008917SY-MT+0014EINN V0202901N00661005401CN0112001N1+01001+00901102761ADDAY151999GA1011+002709079GA2031+004209079GA3051+005409079GF107991071061002501999999MA1102711999999MD1110131+9999MW1201REMSYN01781709 83714 85718MET006NOSIG?
0123039620999991978010415304+52683-008917FM-15+0014EINN V0203001N00871002701CN0040001N1+01001+00901999999ADDGA1021+001809079GA2031+002709079GA3051+004209079MA1102711999999MW1581REMMET0429999 TO SW NW          ?     AND NE NOSIG?
0158039620999991978010416004+52683-008917SY-MT+0014EINN V0202901N00511010501CN0112001N1+01001+00901102821ADDAY151999GA1011+002409079GA2031+004509079GA3051+010509059GF107991071051002501999999MA1102811999999MD1210151+9999MW1211REMSYN01781708 83715 85635MET006NOSIG?
0071039620999991978010416304+52683-008917FM-15+0014EINN V0202801N00461010501CN0112001N1+01001+00801999999ADDGA1021+004809079GA2051+010509059MA1102811999999MW1211REMMET006NOSIG?
0183039620999991978010417004+52683-008917SY-MT+0014EINN V0202701N00561010801CN0112001N1+00901+00801102851ADDAY121999GA1011+004809079GA2031+007509059GA3061+010809059GF107991071051004501999999MA1102811999999MD1210111+9999MW1031REMSYN02381716 83625 86636 94000MET006NOSIG?EQDQ01+000000PRSWM2
0084039620999991978010417304+52683-008917FM-15+0014EINN V0202701N00411010201CN0112001N1+00901+00701999999ADDGA1031+006009059GA2061+010209059MA1102911999999REMMET006NOSIG?EQDQ01+000000PRSWM2
0185039620999991978010418004+52683-008917SY-MT+0014EINN V0202801N00411012001CN0112001N1+00901+00801102941ADDAA199000391AY161999GA1031+006009059GA2081+012009059GF108991081051008001999999KA1999M+01101MA1102911999999MD1210181+9999MW1031REMSYN01779311 83620 88640MET006NOSIG?EQDQ01+000000PRSWM2
0084039620999991978010418304+52683-008917FM-15+0014EINN V0202701N00411012001CN0112001N1+00901+00801999999ADDGA1031+006009059GA2081+012009059MA1102911999999REMMET006NOSIG?EQDQ01+000000PRSWM2
0133039620999991978010419004+52683-008917SY-MT+0014EINN V0202801N00411012001CN0112001N1+00901+00801102991ADDAY121999GA1081+012009059GF108991081051012501999999MA1102911999999MD1210171+9999MW1021REMSYN00588640MET006NOSIG?EQDQ01+000000PRSWM2
0068039620999991978010419304+52683-008917FM-15+0014EINN V0202701N00461010201CN0112001N1+00901+00701999999ADDGA1081+010209059MA1103011999999REMMET006NOSIG?EQDQ01+000000PRSWM2
0133039620999991978010420004+52683-008917SY-MT+0014EINN V0202701N00411012001CN0112001N1+00901+00701103031ADDAY121999GA1081+012009059GF108991081051012501999999MA1103011999999MD1210181+9999MW1021REMSYN00588640MET006NOSIG?EQDQ01+000000PRSWM2
0068039620999991978010420304+52683-008917FM-15+0014EINN V0202601N00411010801CN0112001N1+00801+00701999999ADDGA1081+010809059MA1103011999999REMMET006NOSIG?EQDQ01+000000PRSWM2
0133039620999991978010421004+52683-008917SY-MT+0014EINN V0202501N00411012001CN0112001N1+00901+00701103051ADDAY121999GA1081+012009059GF108991081051012501999999MA1103011999999MD1110111+9999MW1021REMSYN00588640MET006NOSIG?EQDQ01+000000PRSWM2
0068039620999991978010421304+52683-008917FM-15+0014EINN V0202601N00361012001CN0112001N1+00801+00701999999ADDGA1081+012009059MA1103011999999REMMET006NOSIG?EQDQ01+000000PRSWM2
0133039620999991978010422004+52683-008917SY-MT+0014EINN V0202701N00361012001CN0112001N1+00901+00701103131ADDAY121999GA1081+012009059GF108991081051012501999999MA1103121999999MD1310141+9999MW1021REMSYN00588640MET006NOSIG?EQDQ01+000000PRSWM2
0071039620999991978010422304+52683-008917FM-15+0014EINN V0202401N00361012001CN0112001N1+00801+00701999999ADDGA1031+007509059GA2081+012009059MA1103121999999MW1501REMMET006NOSIG?
0136039620999991978010423004+52683-008917SY-MT+0014EINN V0202401N00411012001CN0112001N1+00801+00701103151ADDAY151999GA1021+007509059GA2081+012009059GF108991081051012501999999MA1103121999999MD1110121+9999MW1201REMSYN01182625 88640MET006NOSIG?
0071039620999991978010423304+52683-008917FM-15+0014EINN V0202501N00411012001CN0112001N1+00801+00701999999ADDGA1021+007509059GA2081+012009059MA1103121999999MW1201REMMET006NOSIG?
0150039620999991978010500004+52683-008917SY-MT+0014EINN V0202501N00411012001CN0112001N1+00801+00701103131ADDAA106999929AY151999GA1061+012009059GF106991061051012501999999MA1103121999999MD1010081+9999MW1601REMSYN011797// 86640MET006NOSIG?EQDQ01  99993PRCP99
0055039620999991978010500304+52683-008917FM-15+0014EINN V0202501N00611010501CN0112001N1+00901+00801999999ADDGA1081+010509059MA1103011999999MW1211REMMET006NOSIG?
0136039620999991978010501004+52683-008917SY-MT+0014EINN V0202501N00561008401CN0112001N1+00901+00701103081ADDAY161999GA1031+004509079GA2081+008409059GF108991081051004501999999MA1103011999999MD1810051+9999MW1211REMSYN01183715 88628MET006NOSIG?
0157039620999991978010501304+52683-008917FM-15+0014EINN V0202501N00461009001CN0112001N1+00801+00801999999ADDGA1021+004509079GA2051+009009059MA1103011999999REMMET079NOSIG? 113       ?     METAR FCBB 0130 00??0 9999 6N       ?     EXWQ QPQE NSG?EQDQ01+000000PRSWM2
0155039620999991978010502004+52683-008917SY-MT+0014EINN V0202401N00461009001CN0112001N1+00801+00701103091ADDAY121999GA1031+006009059GA2051+009009059GF105991051051008001999999MA1103011999999MD1510061+9999MW1011REMSYN01183620 85630MET006NOSIG?EQDQ01+000000PRSWM2
0113039620999991978010502304+52683-008917FM-15+0014EINN V0202501N00661004201CN0112001N1+00901+00801999999ADDGA1031+002709079GA2051+004209079GA3081+006009059MA1103011999999REMMET019GRADU 3ST012 6SC020EQDQ01+000000PRSWM2
0207039620999991978010503004+52683-008917SY-MT+0014EINN V0202401N00511006001CN0112001N1+00801+00701103091ADDAY161999GA1021+003609079GA2051+006009059GA3081+010509059GF108991081051004501999999MA1103011999999MD1610041+9999MW1031REMSYN01782712 85620 88635MET036TEMPO 7000 4ST008      ?     6ST012?EQDQ01+000000PRSWM2
0102039620999991978010503304+52683-008917FM-15+0014EINN V0202401N00461012001CN0112001N1+00801+00701999999ADDGA1041+007509059GA2071+012009059MA1103011999999REMMET024TEMPO 7000 4ST008 6ST012EQDQ01+000000PRSWM2
0207039620999991978010504004+52683-008917SY-MT+0014EINN V0202501N00461007501CN0112001N1+00801+00701103091ADDAY121999GA1031+004509079GA2041+007509059GA3061+012009059GF107991071051004501999999MA1103011999999MD1110011+9999MW1011REMSYN01783715 84625 86640MET036TEMPO 7000 4ST008      ?     6ST012?EQDQ01+000000PRSWM2
0130039620999991978010504304+52683-008917FM-15+0014EINN V0202501N00561012001CN0112001N1+00801+00701999999ADDGA1011+004509079GA2041+007509059GA3061+012009059MA1103011999999REMMET036TEMPO 7000 4ST008      ?     6ST012?EQDQ01+000000PRSWM2
0185039620999991978010505004+52683-008917SY-MT+0014EINN V0202501N00561010501CN0112001N1+00801+00701103091ADDAY121999GA1031+006009059GA2071+010509059GF107991071051008001999999MA1103011999999MD1410001+9999MW1021REMSYN01183620 87635MET036TEMPO 4000 4.ST008     ?     8ST012?EQDQ01+000000PRSWM2
0087039620999991978010505304+52683-008917FM-15+0014EINN V0202401N00661010501CN0112001N1+00801+00701999999ADDGA1071+010509059MA1103011999999REMMET025TEMPO 7000 4ST008 8ST012?EQDQ01+000000PRSWM2
0266039620999991978010506004+52683-008917SY-MT+0014EINN V0202401N00511009901CN0112001N1+00801+00701103061ADDAA199999929AJ100009199999999AY161999GA1031+002709079GA2071+009909059GF107991999051002501999999IA1089IA2999+00609KA1999N+00801MA1103011999999MD1810031+9999MW1031REMSYN02320610 79708 83709 87633MET030TEMPO 6000 4ST008 8ST015 ?113?EQDQ01+000082SCOTLCQ02+000000PRSWM2
0102039620999991978010506304+52683-008917FM-15+0014EINN V0202401N00511009901CN0112001N1+00801+00701999999ADDGA1031+003009079GA2031+009909059MA1103011999999REMMET024TEMPO 6000 4ST008 8ST015EQDQ01+000000PRSWM2
0166039620999991978010507004+52683-008917SY-MT+0014EINN V0202301N00411002701CN0060001N1+00801+00701103061ADDAY151999GA1051+002709079GA2071+003609079GF108991081071002501999999MA1103011999999MD1610031+9999MW1501REMSYN01185708 87712MET036GRADU 9000 3ST012      ?     6SC020?
0111039620999991978010507304+52683-008917FM-15+0014EINN V0202401N00411003301CN0112001N1+00801+00701999999ADDGA1031+002709079GA2061+003309079GA3071+004209079MA1103011999999MW1201REMMET030GRADU 3ST011     ?     6SC020?
0182039620999991978010508004+52683-008917SY-MT+0014EINN V0202301N00361004201CN0112001N1+00801+00701103061ADDAY151999GA1021+002709079GA2031+004209079GA3061+008409059GF108991081071002501999999MA1103011999999MD1610031+9999MW1201MW2501REMSYN01185709 87712MET030GRADU 3ST011     ?     6SC020?
0100039620999991978010508304+52683-008917FM-15+0014EINN V0202201N00411008401CN0112001N1+00801+00701999999ADDGA1011+002709079GA2031+004209079GA3071+008409059MA1103011999999REMMET006NOSIG?EQDQ01+000000PRSWM2
0177039620999991978010509004+52683-008917SY-MT+0014EINN V0202301N00461009001CN0112001N1+00801+00701103081ADDAY151999GA1011+002709079GA2041+005109079GA3071+009009059GF108991081051002501999999MA1103011999999MD1310021+9999MW1021REMSYN01781709 84717 87630MET006NOSIG?EQDQ01+000000PRSWM2
0084039620999991978010509304+52683-008917FM-15+0014EINN V0202001N00411009001CN0112001N1+00901+00701999999ADDGA1041+006609059GA2071+009009059MA1103011999999REMMET006NOSIG?EQDQ01+000000PRSWM2
0155039620999991978010510004+52683-008917SY-MT+0014EINN V0202301N00461008401CN0112001N1+00901+00701103091ADDAY121999GA1031+007509059GA2071+008409059GF107991071051008001999999MA1103011999999MD1310031+9999MW1011REMSYN01183625 87628MET006NOSIG?EQDQ01+000000PRSWM2
0068039620999991978010510304+52683-008917FM-15+0014EINN V0202101N00301007501CN0112001N1+00901+00701999999ADDGA1071+007509059MA1103011999999REMMET006NOSIG?EQDQ01+000000PRSWM2
0147039620999991978010511004+52683-008917SY-MT+0014EINN V0202201N00361007501CN0112001N1+00901+00701103071ADDAY121999GA1011+006609059GA2071+007509059GF107991071051008001999999MA1103011999999MW1021REMSYN01707001 81622 87625MET006NOSIG?EQDQ01+000000PRSWM2
0068039620999991978010511304+52683-008917FM-15+0014EINN V0202301N00411006901CN0112001N1+00901+00701999999ADDGA1071+006909059MA1103011999999REMMET006NOSIG?EQDQ01+000000PRSWM2
0188039620999991978010512004+52683-008917SY-MT+0014EINN V0202301N00361006901CN0112001N1+00901+00701103031ADDAA106999929AY151999GA1011+006009089GA2071+006909059GF107991071081008001999999MA1103011999999MD1810051+9999MW1021REMSYN017797// 81820 87623MET006NOSIG?EQDQ01+000000PRSWM2Q02  99993PRCP99
0100039620999991978010512304+52683-008917FM-15+0014EINN V0202401N00611009001CN0112001N1+01001+00601999999ADDGA1011+006009089GA2041+007509059GA3051+009009059MA1103011999999REMMET006NOSIG?EQDQ01+000000PRSWM2
0177039620999991978010513004+52683-008917SY-MT+0014EINN V0202401N00511006901CN0112001N1+01001+00601102971ADDAY121999GA1021+006009089GA2031+006909059GA3051+009009059GF107991071081008001999999MA1102911999999MD1810121+9999MW1011REMSYN01782820 83623 85630MET006NOSIG?EQDQ01+000000PRSWM2
0084039620999991978010513304+52683-008917FM-15+0014EINN V0202301N00611008101CN0112001N1+01001+00601999999ADDGA1021+006609089GA2031+008109059MA1102911999999REMMET006NOSIG?EQDQ01+000000PRSWM2
0154039620999991978010514004+52683-008917SY-MT+0014EINN V0202501N00661060001CN0112001N1+00901+00601102921ADDAY121999GA1041+008409059GA2041+060009009GF105991041051008001001021MA1102911999999MD1710151+9999MW1011REMSYN01184628 84070MET005NSOG?EQDQ01+000000PRSWM2
0100039620999991978010514304+52683-008917FM-15+0014EINN V0202501N00561009001CN0112001N1+00901+00601999999ADDGA1021+006609089GA2041+009009059GA3051+060009009MA1102811999999REMMET006NOSIG?EQDQ01+000000PRSWM2
0155039620999991978010515004+52683-008917SY-MT+0014EINN V0202501N00661009001CN0112001N1+00901+00701102891ADDAY121999GA1031+007209089GA2041+009009059GF106991051081008001001021MA1102811999999MD1710141+9999MW1031REMSYN01183824 84630MET006NOSIG?EQDQ01+000000PRSWM2
0084039620999991978010515304+52683-008917FM-15+0014EINN V0202601N00561060001CN0112001N1+00901+00601999999ADDGA1041+006009089GA2031+060009009MA1102811999999REMMET006NOSIG?EQDQ01+000000PRSWM2
0155039620999991978010516004+52683-008917SY-MT+0014EINN V0202501N00661060001CN0112001N1+00901+00601102901ADDAY121999GA1021+007209089GA2041+060009009GF105991031081008001001021MA1102811999999MD1710071+9999MW1011REMSYN01182824 84070MET006NOSIG?EQDQ01+000000PRSWM2
0084039620999991978010516304+52683-008917FM-15+0014EINN V0202401N00511060001CN0112001N1+00801+00601999999ADDGA1031+007509089GA2031+060009009MA1102911999999REMMET006NOSIG?EQDQ01+000000PRSWM2
0155039620999991978010517004+52683-008917SY-MT+0014EINN V0202001N00201060001CN0112001N1+00801+00601102941ADDAY121999GA1031+006609089GA2041+060009009GF105991031081008001001021MA1102911999999MD1310021+9999MW1031REMSYN01183822 84070MET006NOSIG?EQDQ01+000000PRSWM2
0084039620999991978010517304+52683-008917FM-15+0014EINN V0202301N00301060001CN0112001N1+00801+00501999999ADDGA1031+006309089GA2031+060009009MA1102911999999REMMET006NOSIG?EQDQ01+000000PRSWM2
0172039620999991978010518004+52683-008917SY-MT+0014EINN V0202201N00361060001CN0112001N1+00701+00501102971ADDAA199999929AY181999GA1031+006009089GA2031+060009009GF106991041081008001001021KA1999M+01001MA1102911999999MD1310071+9999MW1251REMSYN02379710 83820 83070 94003MET006NOSIG?
0071039620999991978010518304+52683-008917FM-15+0014EINN V0202201N00361060001CN0112001N1+00701+00301999999ADDGA1031+006009059GA2031+060009009MA1102911999999MW1251REMMET006NOSIG?
0155039620999991978010519004+52683-008917SY-MT+0014EINN V0202001N00301010501CN0112001N1+00701+00501102971ADDAY121999GA1041+006009059GA2041+010509059GF107991071051008001999999MA1102911999999MD1110061+9999MW1031REMSYN01184620 84635MET006NOSIG?EQDQ01+000000PRSWM2
0084039620999991978010519304+52683-008917FM-15+0014EINN V0201901N00301009001CN0112001N1+00701+00501999999ADDGA1041+006009059GA2051+009009059MA1102911999999REMMET006NOSIG?EQDQ01+000000PRSWM2
0133039620999991978010520004+52683-008917SY-MT+0014EINN V0201901N00301007201CN0112001N1+00701+00501102971ADDAY121999GA1071+007209059GF107991071051008001999999MA1102911999999MD1210021+9999MW1031REMSYN00597624MET006NOSIG?EQDQ01+000000PRSWM2
0068039620999991978010520304+52683-008917FM-15+0014EINN V0201701N00251007201CN0112001N1+00701+00501999999ADDGA1071+007209059MA1102911999999REMMET006NOSIG?EQDQ01+000000PRSWM2
0155039620999991978010521004+52683-008917SY-MT+0014EINN V0201901N00301007801CN0112001N1+00701+00501102961ADDAY121999GA1021+006009059GA2081+007809059GF108991081051008001999999MA1102911999999MD1810011+9999MW1031REMSYN01182620 88626MET006NOSIG?EQDQ01+000000PRSWM2
0084039620999991978010521304+52683-008917FM-15+0014EINN V0201801N00411007801CN0112001N1+00701+00501999999ADDGA1021+006009059GA2081+007809059MA1102811999999REMMET006NOSIG?EQDQ01+000000PRSWM2
0133039620999991978010522004+52683-008917SY-MT+0014EINN V0201801N00461008101CN0112001N1+00701+00501102911ADDAY121999GA1081+008109059GF108991081051008001999999MA1102911999999MD1810061+9999MW1021REMSYN00588627MET006NOSIG?EQDQ01+000000PRSWM2
0068039620999991978010522304+52683-008917FM-15+0014EINN V0201701N00411008101CN0112001N1+00701+00501999999ADDGA1081+008109059MA1102811999999REMMET006NOSIG?EQDQ01+000000PRSWM2
0155039620999991978010523004+52683-008917SY-MT+0014EINN V0201701N00411012001CN0112001N1+00701+00501102861ADDAY121999GA1031+008109059GA2051+012009059GF106991061051008001999999MA1102811999999MD1810111+9999MW1011REMSYN01183627 85640MET006NOSIG?EQDQ01+000000PRSWM2
0084039620999991978010523304+52683-008917FM-15+0014EINN V0201701N00411012001CN0112001N1+00701+00501999999ADDGA1021+008109059GA2041+012009059MA1102811999999REMMET006NOSIG?EQDQ01+000000PRSWM2
0171039620999991978010600004+52683-008917SY-MT+0014EINN V0201701N00461012001CN0112001N1+00701+00501102831ADDAA199000091AY121999GA1031+008109059GA2051+012009059GF107991071051008001999999MA1102811999999MD1710131+9999MW1031REMSYN017700// 83627 85640MET005NSIG?EQDQ01+000000PRSWM2
0068039620999991978010600304+52683-008917FM-15+0014EINN V0201801N00511220001CN0112001N1+00701+00501999999ADDGA1011+008109059MA1102711999999REMMET006NOSIG?EQDQ01+000000PRSWM2
0133039620999991978010601004+52683-008917SY-MT+0014EINN V0201701N00411220001CN0112001N1+00701+00501102791ADDAY111999GA1021+008109059GF102991021051008001001001MA1102711999999MD1710121+9999MW1011REMSYN00582627MET006NOSIG?EQDQ01+000000PRSWM2
0068039620999991978010601304+52683-008917FM-15+0014EINN V0201601N00361220001CN0112001N1+00701+00501999999ADDGA1011+008109059MA1102711999999REMMET006NOSIG?EQDQ01+000000PRSWM2
0133039620999991978010602004+52683-008917SY-MT+0014EINN V0201501N00301220001CN0112001N1+00701+00501102751ADDAY101999GA1021+006609059GF102991021051008001001001MA1102711999999MD1710111+9999MW1021REMSYN00582622MET006NOSIG?EQDQ01+000000PRSWM2
0068039620999991978010602304+52683-008917FM-15+0014EINN V0201501N00251220001CN0112001N1+00701+00501999999ADDGA1021+006609059MA1102711999999REMMET006NOSIG?EQDQ01+000000PRSWM2
0133039620999991978010603004+52683-008917SY-MT+0014EINN V0201801N00461220001CN0112001N1+00701+00501102741ADDAY111999GA1011+006609059GF101991011051008001001001MA1102711999999MD1610091+9999MW1011REMSYN00581622MET006NOSIG?EQDQ01+000000PRSWM2
0068039620999991978010603304+52683-008917FM-15+0014EINN V0201801N00301220001CN0112001N1+00701+00501999999ADDGA1021+006909059MA1102711999999REMMET006NOSIG?EQDQ01+000000PRSWM2
0133039620999991978010604004+52683-008917SY-MT+0014EINN V0201801N00361007501CN0112001N1+00701+00501102691ADDAY111999GA1051+007509059GF105991051051008001999999MA1102611999999MD1710101+9999MW1031REMSYN00585625MET006NOSIG?EQDQ01+000000PRSWM2
0068039620999991978010604304+52683-008917FM-15+0014EINN V0201601N00411007801CN0112001N1+00801+00501999999ADDGA1071+007809059MA1102611999999REMMET006NOSIG?EQDQ01+000000PRSWM2
0133039620999991978010605004+52683-008917SY-MT+0014EINN V0201701N00611220001CN0112001N1+00801+00501102601ADDAY111999GA1041+007809059GF104991041051008001001001MA1102511999999MD1810141+9999MW1011REMSYN00584626MET006NOSIG?EQDQ01+000000PRSWM2
0068039620999991978010605304+52683-008917FM-15+0014EINN V0201601N00561006901CN0112001N1+00801+00501999999ADDGA1061+006909059MA1102511999999REMMET006NOSIG?EQDQ01+000000PRSWM2
0204039620999991978010606004+52683-008917SY-MT+0014EINN V0201601N00561006901CN0112001N1+00801+00501102551ADDAA199999929AJ100009199999999AY111999GA1071+006909059GF107991071051008001999999IA1089IA2999+00309KA1999N+00601MA1102511999999MD1710181+9999MW1031REMSYN01720310 79706 87623MET006NOSIG?EQDQ01+000000PRSWM2
0068039620999991978010606304+52683-008917FM-15+0014EINN V0201801N00561007801CN0112001N1+00801+00501999999ADDGA1061+007809059MA1102511999999REMMET006NOSIG?EQDQ01+000000PRSWM2
0133039620999991978010607004+52683-008917SY-MT+0014EINN V0201801N00461008101CN0112001N1+00801+00501102511ADDAY121999GA1071+008109059GF107991071051008001999999MA1102511999999MD1710171+9999MW1021REMSYN00587627MET006NOSIG?EQDQ01+000000PRSWM2
0084039620999991978010607304+52683-008917FM-15+0014EINN V0201801N00301008101CN0112001N1+00801+00501999999ADDGA1011+006009059GA2071+008109059MA1102511999999REMMET006NOSIG?EQDQ01+000000PRSWM2
0155039620999991978010608004+52683-008917SY-MT+0014EINN V0201901N00461007801CN0112001N1+00801+00501102521ADDAY121999GA1021+006009059GA2071+007809059GF107991071051008001999999MA1102511999999MD1510081+9999MW1021REMSYN01182620 87626MET006NOSIG?EQDQ01+000000PRSWM2
0084039620999991978010608304+52683-008917FM-15+0014EINN V0201701N00511007801CN0112001N1+00801+00501999999ADDGA1021+006009059GA2061+007809059MA1102511999999REMMET006NOSIG?EQDQ01+000000PRSWM2
0169039620999991978010609004+52683-008917SY-MT+0014EINN V0201601N00411009001CN0112001N1+00801+00501102501ADDAY121999GA1021+006009059GA2061+009009059GF107991071051008001999999MA1102401999999MD1710051+9999MW1021WG199370999999REMSYN01182620 86630MET006NOSIG?EQDQ01+000000PRSWM2
0164039620999991978010609304+52683-008917FM-15+0014EINN V0201701N00411009001CN0112001N1+00801+00501999999ADDGA1011+006609059GA2061+009009059MA1102401999999REMMET086NOSIG? 113       ?     METAR FCPP 09?0 18004 9999 2 CU 013 8 SC 033 27/23 1015 NOSIG ?EQDQ01+000000PRSWM2
0155039620999991978010610004+52683-008917SY-MT+0014EINN V0201801N00611009001CN0112001N1+00801+00501102451ADDAY121999GA1011+006009059GA2071+009009059GF107991071051008001999999MA1102401999999MD1710061+9999MW1021REMSYN01181820 87630MET006NOSIG?EQDQ01+000000PRSWM2
0084039620999991978010610304+52683-008917FM-15+0014EINN V0201701N00461009001CN0112001N1+00901+00701999999ADDGA1041+008409059GA2061+009009059MA1102401999999REMMET006NOSIG?EQDQ01+000000PRSWM2
0155039620999991978010611004+52683-008917SY-MT+0014EINN V0201801N00461010501CN0112001N1+00901+00601102491ADDAY121999GA1021+008409089GA2061+010509059GF107991061051008001001011MA1102401999999MD1510031+9999MW1021REMSYN01182628 86635MET006NOSIG?EQDQ01+000000PRSWM2
0068039620999991978010611304+52683-008917FM-15+0014EINN V0201901N00461010501CN0112001N1+00901+00801999999ADDGA1071+010509059MA1102401999999REMMET006NOSIG?EQDQ01+000000PRSWM2
0139039620999991978010612004+52683-008917SY-MT+0014EINN V0202001N00721010501CN0112001N1+01001+00801102431ADDAA199000091AY121999GA1071+010509059GF107991071051012501999999MD1710071+9999MW1021REMSYN011700// 87635MET01010- NOSIG?EQDQ01+000000PRSWM2
0068039620999991978010612304+52683-008917FM-15+0014EINN V0201901N00461010501CN0112001N1+01001+00601999999ADDGA1061+010509059MA1102301999999REMMET006NOSIG?EQDQ01+000000PRSWM2
0133039620999991978010613004+52683-008917SY-MT+0014EINN V0201901N00771010501CN0112001N1+01101+00601102361ADDAY121999GA1071+010509059GF107991071051012501999999MA1102301999999MD1710091+9999MW1021REMSYN00587635MET006NOSIG?EQDQ01+000000PRSWM2
0068039620999991978010613304+52683-008917FM-15+0014EINN V0202001N00771010501CN0112001N1+01101+00601999999ADDGA1071+010509059MA1102301999999REMMET006NOSIG?EQDQ01+000000PRSWM2
0169039620999991978010614004+52683-008917SY-MT+0014EINN V0202001N00361009001CN0112001N1+01101+00701102341ADDAY121999GA1011+004809079GA2071+009009059GF107991071051004501999999MA1102301999999MD1510151+9999MW1031WG199090699999REMSYN01181716 87630MET006NOSIG?EQDQ01+000000PRSWM2
0084039620999991978010614304+52683-008917FM-15+0014EINN V0202001N00411007801CN0112001N1+01101+00701999999ADDGA1011+005409079GA2071+007809059MA1102301999999REMMET006NOSIG?EQDQ01+000000PRSWM2
0155039620999991978010615004+52683-008917SY-MT+0014EINN V0202001N00411009001CN0112001N1+01001+00701102311ADDAY121999GA1011+005409079GA2071+009009059GF107991071051004501999999MA1102301999999MD1710121+9999MW1031REMSYN01181718 87630MET006NOSIG?EQDQ01+000000PRSWM2
0084039620999991978010615304+52683-008917FM-15+0014EINN V0201701N00411010501CN0112001N1+01001+00701999999ADDGA1031+007509059GA2071+010509059MA1102201999999REMMET006NOSIG?EQDQ01+000000PRSWM2
0155039620999991978010616004+52683-008917SY-MT+0014EINN V0201701N00511010501CN0112001N1+01001+00701102281ADDAY121999GA1031+006909059GA2061+010509059GF107991071051008001999999MA1102201999999MD1610081+9999MW1011REMSYN01183623 86635MET006NOSIG?EQDQ01+000000PRSWM2
0084039620999991978010616304+52683-008917FM-15+0014EINN V0201801N00821011401CN0112001N1+01001+00701999999ADDGA1041+007209059GA2061+011409059MA1102201999999REMMET006NOSIG?EQDQ01+000000PRSWM2
0133039620999991978010617004+52683-008917SY-MT+0014EINN V0201901N00561009001CN0112001N1+01001+00601102261ADDAY121999GA1071+009009059GF107991071051012501999999MA1102201999999MD1710081+9999MW1011REMSYN00587630MET006NOSIG?EQDQ01+000000PRSWM2
0068039620999991978010617304+52683-008917FM-15+0014EINN V0201701N00561009901CN0112001N1+00901+00601999999ADDGA1061+009909059MA1102201999999REMMET006NOSIG?EQDQ01+000000PRSWM2
0170039620999991978010618004+52683-008917SY-MT+0014EINN V0201801N00561009001CN0112001N1+00901+00601102221ADDAA199999929AY121999GA1071+009009059GF107991071051012501999999KA1999M+01101MD1710091+9999MW1031REMSYN01779711 87630 94001MET006NOSIG?EQDQ01+029593APOA  Q02+000000PRSWM2
0068039620999991978010618304+52683-008917FM-15+0014EINN V0201801N00561008401CN0112001N1+00901+00601999999ADDGA1081+008409059MA1102201999999REMMET006NOSIG?EQDQ01+000000PRSWM2
0133039620999991978010619004+52683-008917SY-MT+0014EINN V0201701N00511009001CN0112001N1+00901+00601102211ADDAY121999GA1081+009009059GF108991081051012501999999MA1102201999999MD1710071+9999MW1031REMSYN00588630MET006NOSIG?EQDQ01+000000PRSWM2
0068039620999991978010619304+52683-008917FM-15+0014EINN V0201701N00461009001CN0112001N1+00901+00601999999ADDGA1081+009009059MA1102101999999REMMET006NOSIG?EQDQ01+000000PRSWM2
0133039620999991978010620004+52683-008917SY-MT+0014EINN V0201501N00411009001CN0112001N1+00901+00601102151ADDAY121999GA1081+009009059GF108991081051012501999999MA1102101999999MD1810111+9999MW1021REMSYN00588630MET006NOSIG?EQDQ01+000000PRSWM2
0068039620999991978010620304+52683-008917FM-15+0014EINN V0201701N00721009001CN0112001N1+00901+00701999999ADDGA1071+009009059MA1102001999999REMMET006NOSIG?EQDQ01+000000PRSWM2
0147039620999991978010621004+52683-008917SY-MT+0014EINN V0201701N00661009901CN0112001N1+00901+00701102101ADDAY121999GA1081+009909059GF108991081051012501999999MA1102001999999MD1810121+9999MW1021WG199030999999REMSYN00588633MET006NOSIG?EQDQ01+000000PRSWM2
0068039620999991978010621304+52683-008917FM-15+0014EINN V0201801N00611009901CN0112001N1+00901+00701999999ADDGA1081+009909059MA1102001999999REMMET006NOSIG?EQDQ01+000000PRSWM2
0155039620999991978010622004+52683-008917SY-MT+0014EINN V0201801N00561012001CN0112001N1+00901+00701102121ADDAY121999GA1021+009009059GA2081+012009059GF108991081051012501999999MA1102101999999MD1510091+9999MW1021REMSYN01182630 88640MET006NOSIG?EQDQ01+000000PRSWM2
0068039620999991978010622304+52683-008917FM-15+0014EINN V0201701N00611012001CN0112001N1+00901+00701999999ADDGA1071+012009059MA1102001999999REMMET006NOSIG?EQDQ01+000000PRSWM2
0133039620999991978010623004+52683-008917SY-MT+0014EINN V0201701N00561012001CN0112001N1+00901+00701102101ADDAY121999GA1071+012009059GF107991071051012501999999MA1102001999999MD1610051+9999MW1011REMSYN00587640MET006NOSIG?EQDQ01+000000PRSWM2
0068039620999991978010623304+52683-008917FM-15+0014EINN V0201801N00561012001CN0112001N1+00901+00701999999ADDGA1081+012009059MA1102001999999REMMET006NOSIG?EQDQ01+000000PRSWM2
0150039620999991978010700004+52683-008917SY-MT+0014EINN V0201601N00411012001CN0112001N1+00901+00801102041ADDAA199000091AY121999GA1081+012009059GF108991081051012501999999MA1102001999999MD1810061+9999MW1031REMSYN011700// 88640MET006NOSIG?EQDQ01+000000PRSWM2
0068039620999991978010700304+52683-008917FM-15+0014EINN V0201701N00411012001CN0112001N1+00901+00801999999ADDGA1081+012009059MA1102001999999REMMET006NOSIG?EQDQ01+000000PRSWM2
0133039620999991978010701004+52683-008917SY-MT+0014EINN V0201701N00361012001CN0112001N1+00901+00801102011ADDAY121999GA1071+012009059GF107991071051012501999999MA1102001999999MD1710111+9999MW1011REMSYN00587640MET006NOSIG?EQDQ01+000000PRSWM2
0068039620999991978010701304+52683-008917FM-15+0014EINN V0201701N00411012001CN0112001N1+00901+00801999999ADDGA1071+012009059MA1101901999999REMMET006NOSIG?EQDQ01+000000PRSWM2
0133039620999991978010702004+52683-008917SY-MT+0014EINN V0201601N00411013501CN0112001N1+00901+00801101991ADDAY121999GA1081+013509059GF108991081051012501999999MA1101901999999MD1610111+9999MW1031REMSYN00588645MET006NOSIG?EQDQ01+000000PRSWM2
0068039620999991978010702304+52683-008917FM-15+0014EINN V0201701N00411013501CN0112001N1+00901+00801999999ADDGA1081+013509059MA1101901999999REMMET006NOSIG?EQDQ01+000000PRSWM2
0133039620999991978010703004+52683-008917SY-MT+0014EINN V0201801N00361013501CN0112001N1+00901+00801102001ADDAY121999GA1081+013509059GF108991081051012501999999MA1101901999999MD1510041+9999MW1021REMSYN00588645MET006NOSIG?EQDQ01+000000PRSWM2
0068039620999991978010703304+52683-008917FM-15+0014EINN V0201901N00411013501CN0112001N1+00901+00801999999ADDGA1081+013509059MA1101901999999REMMET006NOSIG?EQDQ01+000000PRSWM2
0133039620999991978010704004+52683-008917SY-MT+0014EINN V0201901N00411012001CN0112001N1+00901+00801102001ADDAY121999GA1081+012009059GF108991081051012501999999MA1101901999999MD1510011+9999MW1021REMSYN00588640MET006NOSIG?EQDQ01+000000PRSWM2
0068039620999991978010704304+52683-008917FM-15+0014EINN V0201901N00361012001CN0112001N1+00901+00801999999ADDGA1071+012009059MA1101901999999REMMET006NOSIG?EQDQ01+000000PRSWM2
0155039620999991978010705004+52683-008917SY-MT+0014EINN V0201901N00361012001CN0112001N1+00901+00801101981ADDAY121999GA1061+012009059GA2041+015009059GF107991071051012501999999MA1101901999999MD1810011+9999MW1011REMSYN01186640 84650MET006NOSIG?EQDQ01+000000PRSWM2
0068039620999991978010705304+52683-008917FM-15+0014EINN V0202101N00411012001CN0112001N1+00901+00801999999ADDGA1071+012009059MA1101901999999REMMET006NOSIG?EQDQ01+000000PRSWM2
0204039620999991978010706004+52683-008917SY-MT+0014EINN V0202301N00361012001CN0112001N1+00901+00701102011ADDAA199000091AJ100009199999999AY121999GA1071+012009059GF107991071051012501999999IA1089IA2999+00609KA1999N+00901MA1102001999999MD1310011+9999MW1021REMSYN01720610 70009 87640MET006NOSIG?EQDQ01+000000PRSWM2
0071039620999991978010706304+52683-008917FM-15+0014EINN V0202401N00361007501CN0112001N1+00901+00601999999ADDGA1031+004509079GA2081+007509059MA1102001999999MW1501REMMET006NOSIG?
0166039620999991978010707004+52683-008917SY-MT+0014EINN V0202901N00251002701CN0112001N1+00901+00701102061ADDAY151999GA1051+002709079GA2081+007509059GF108991081061002501999999MA1102001999999MD1310061+9999MW1501REMSYN01185709 88625MET036GRADU 5000 5ST007      ?     8ST012?
0071039620999991978010707304+52683-008917FM-15+0014EINN V0203401N00201005401CN0112001N1+00801+00701999999ADDGA1041+002709079GA2081+005409079MA1102001999999MW1501REMMET006NOSIG?
0136039620999991978010708004+52683-008917SY-MT+0014EINN V0203401N00151007501CN0112001N1+00801+00701102111ADDAY151999GA1021+002709079GA2081+007509059GF108991081051002501999999MA1102101999999MD1210131+9999MW1201REMSYN01182709 88625MET006NOSIG?
0071039620999991978010708304+52683-008917FM-15+0014EINN V0203401N00101010501CN0112001N1+00801+00701999999ADDGA1021+003009079GA2081+010509059MA1102101999999MW1201REMMET006NOSIG?
0155039620999991978010709004+52683-008917SY-MT+0014EINN V0202801N00151010501CN0112001N1+00801+00701102261ADDAY151999GA1011+002409079GA2081+010509059GF108991081051002501999999MA1102201999999MD1310251+9999MW1021REMSYN01181708 88635MET006NOSIG?EQDQ01+000000PRSWM2
0100039620999991978010709304+52683-008917FM-15+0014EINN V0202801N00151010501CN0112001N1+00801+00701999999ADDGA1011+002409079GA2041+005109079GA3051+010509059MA1102301999999REMMET006NOSIG?EQDQ01+000000PRSWM2
0158039620999991978010710004+52683-008917SY-MT+0014EINN V0202701N00151009001CN0112001N1+00801+00701102331ADDAY151999GA1011+002409079GA2041+004209079GA3051+009009059GF107991071071002501999999MA1102301999999MD1210271+9999MW1501REMSYN01781708 84714 85630MET006NOSIG?
0055039620999991978010710304+52683-008917FM-15+0014EINN V0202601N00151220001CN0112001N1+00701+00701999999ADDGA1011+002409079MA1102301999999MW1201REMMET006NOSIG?
0114039620999991978010711004+52683-008917SY-MT+0014EINN V0202601N00151220001CN0112001N1+00901+00801102421ADDAY151999GA1011+002409079GF102991011081002501001021MA1102401999999MD1210311+9999MW1201REMSYN00581708MET006NOSIG?
0068039620999991978010711304+52683-008917FM-15+0014EINN V0202501N00201220001CN0112001N1+00901+00701999999ADDGA1011+002709079MA1102401999999REMMET006NOSIG?EQDQ01+000000PRSWM2
0166039620999991978010712004+52683-008917SY-MT+0014EINN V0202501N00301220001CN0112001N1+00901+00701102431ADDAA106999929AY151999GA1011+004509089GF101991011081004501001021MA1102401999999MD1210171+9999MW1011REMSYN011797// 81815MET006NOSIG?EQDQ01+000000PRSWM2Q02  99993PRCP99
0068039620999991978010712304+52683-008917FM-15+0014EINN V0202401N00251220001CN0112001N1+00901+00701999999ADDGA1011+004509089MA1102401999999REMMET006NOSIG?EQDQ01+000000PRSWM2
0133039620999991978010713004+52683-008917SY-MT+0014EINN V0202401N00251220001CN0112001N1+00901+00701102441ADDAY101999GA1021+005409089GF102991021081004501041001MA1102401999999MD1210111+9999MW1031REMSYN00582818MET006NOSIG?EQDQ01+000000PRSWM2
0068039620999991978010713304+52683-008917FM-15+0014EINN V0202401N00251220001CN0112001N1+00901+00701999999ADDGA1041+006609089MA1102401999999REMMET006NOSIG?EQDQ01+000000PRSWM2
0133039620999991978010714004+52683-008917SY-MT+0014EINN V0202501N00251007501CN0112001N1+00901+00701102451ADDAY111999GA1051+007509089GF105991051021008001001021MA1102401999999MD1210031+9999MW1031REMSYN00585825MET006NOSIG?EQDQ01+000000PRSWM2
0068039620999991978010714304+52683-008917FM-15+0014EINN V0202801N00251220001CN0112001N1+00901+00501999999ADDGA1031+008109089MA1102401999999REMMET006NOSIG?EQDQ01+000000PRSWM2
0133039620999991978010715004+52683-008917SY-MT+0014EINN V0202801N00251220001CN0112001N1+01001+00601102481ADDAY111999GA1011+008109089GF102991011021008001001021MA1102401999999MD1210051+9999MW1011REMSYN00581827MET006NOSIG?EQDQ01+000000PRSWM2
0068039620999991978010715304+52683-008917FM-15+0014EINN V0202801N00251220001CN0112001N1+01001+00501999999ADDGA1011+008409089MA1102401999999REMMET006NOSIG?EQDQ01+000000PRSWM2
0133039620999991978010716004+52683-008917SY-MT+0014EINN V0202501N00251220001CN0112001N1+00901+00601102501ADDAY101999GA1011+007509089GF101991011081008001001021MA1102401999999MD1210061+9999MW1011REMSYN00581825MET006NOSIG?EQDQ01+000000PRSWM2
0068039620999991978010716304+52683-008917FM-15+0014EINN V0202501N00251220001CN0112001N1+00701+00601999999ADDGA1011+007509089MA1102511999999REMMET006NOSIG?EQDQ01+000000PRSWM2
0133039620999991978010717004+52683-008917SY-MT+0014EINN V0202401N00251220001CN0112001N1+00601+00501102561ADDAY101999GA1011+007509089GF101991011081008001001021MA1102511999999MD1210101+9999MW1021REMSYN00581825MET006NOSIG?EQDQ01+000000PRSWM2
0068039620999991978010717304+52683-008917FM-15+0014EINN V0202101N00101220001CN0112001N1+00501+00501999999ADDGA1011+012009059MA1102511999999REMMET006NOSIG?EQDQ01+000000PRSWM2
0183039620999991978010718004+52683-008917SY-MT+0014EINN V0202101N00101220001CN0099001N1+00601+00501102591ADDAA199999929AY111999GA1011+075009009GF101991001001999999001011KA1999M+01001MA1102511999999MD1210101+9999MW1011WG199010999999REMSYN01179710 81075MET012CAVOK NOSIG?EQDQ01+000000PRSWM2
0058039620999991978010718304+52683-008917FM-15+0014EINN V0202201N00101999991CY0099001N1+00501+00401999999ADDMA1102611999999REMMET012CAVOK NOSIG?EQDQ01+000000PRSWM2
0123039620999991978010719004+52683-008917SY-MT+0014EINN V0202101N00201220001CN0099001N1+00501+00401102621ADDAY101999GF100991001001999999001001MA1102611999999MD1210111+9999MW1011REMSYN00594048MET012CAVOK NOSIG?EQDQ01+000000PRSWM2
0058039620999991978010719304+52683-008917FM-15+0014EINN V0202101N00151999991CY0099001N1+00501+00401999999ADDMA1102611999999REMMET012CAVOK NOSIG?EQDQ01+000000PRSWM2
0112039620999991978010720004+52683-008917SY-MT+0014EINN V0202001N00151220001CN0099001N1+00501+00401102651ADDAY101999GF100991001001999999001001MA1102611999999MD1210091+9999MW1021REMMET012CAVOK NOSIG?EQDQ01+000000PRSWM2
0058039620999991978010720304+52683-008917FM-15+0014EINN V0202301N00101999991CY0099001N1+00401+00301999999ADDMA1102611999999REMMET012CAVOK NOSIG?EQDQ01+000000PRSWM2
0123039620999991978010721004+52683-008917SY-MT+0014EINN V0201901N00101220001CN0099001N1+00401+00301102691ADDAY101999GF100991001001999999001001MA1102611999999MD1210101+9999MW1021REMSYN00592000MET012CAVOK NOSIG?EQDQ01+000000PRSWM2
0058039620999991978010721304+52683-008917FM-15+0014EINN V0201901N00101999991CY0099001N1+00301+00301999999ADDMA1102611999999REMMET012CAVOK NOSIG?EQDQ01+000000PRSWM2
0123039620999991978010722004+52683-008917SY-MT+0014EINN V0201901N00101220001CN0099001N1+00301+00201102691ADDAY101999GF100991001001999999001001MA1102611999999MD1110071+9999MW1021REMSYN00592000MET012CAVOK NOSIG?EQDQ01+000000PRSWM2
0058039620999991978010722304+52683-008917FM-15+0014EINN V0201501N00151999991CY0099001N1+00301+00201999999ADDMA1102711999999REMMET012CAVOK NOSIG?EQDQ01+000000PRSWM2
0120039620999991978010723004+52683-008917SY-MT+0014EINN V0201401N00201220001CN0112001N1+00301+00201102691ADDAY101999GA1011+000309079GF101991011061000251001001MA1102611999999MD1010041+9999MW1101REMSYN01181701 92000MET006NOSIG?
0055039620999991978010723304+52683-008917FM-15+0014EINN V0201201N00251220001CN0080001N1+00201+00201999999ADDGA1011+000309079MA1102611999999MW1101REMMET006NOSIG?
0101039620999991978010800004+52683-008917FM-12+0014EINN V0201101N00211220001CN0080001N9+00201+00201102671ADDAA106999929AY101999GF100991001001999999001001MD1810021+9999MW1101REMSYN005797//EQDQ01  99993PRCP99
0039039620999991978010800304+52683-008917FM-15+0014EINN V0201101N00151220001CN0080001N1+00201+00101999999ADDMA1102611999999MW1101REMMET006NOSIG?
0087039620999991978010801004+52683-008917SY-MT+0014EINN V0201301N00251220001CN0080001N1+00201+00101102641ADDAY101999GF100991001001999999001001MA1102611999999MD1810051+9999MW1101REMMET006NOSIG?
0058039620999991978010801304+52683-008917FM-15+0014EINN V0201301N00201999991CY0099001N1+00201+00101999999ADDMA1102611999999REMMET012CAVOK NOSIG?EQDQ01+000000PRSWM2
0112039620999991978010802004+52683-008917SY-MT+0014EINN V0201201N00151220001CN0099001N1+00201+00101102621ADDAY101999GF100991001001999999001001MA1102611999999MD1810071+9999MW1101REMMET012CAVOK NOSIG?EQDQ01+000000PRSWM2
0058039620999991978010802304+52683-008917FM-15+0014EINN V0201301N00151999991CY0099001N1+00201+00101999999ADDMA1102611999999REMMET012CAVOK NOSIG?EQDQ01+000000PRSWM2
0123039620999991978010803004+52683-008917SY-MT+0014EINN V0201201N00101220001CN0099001N1+00201+00101102601ADDAY101999GF100991001001999999001001MA1102511999999MD1710071+9999MW1101REMSYN00592000MET012CAVOK NOSIG?EQDQ01+000000PRSWM2
0058039620999991978010803304+52683-008917FM-15+0014EINN V0201201N00201999991CY0099001N1+00201+00101999999ADDMA1102511999999REMMET012CAVOK NOSIG?EQDQ01+000000PRSWM2
0123039620999991978010804004+52683-008917SY-MT+0014EINN V0201101N00201220001CN0099001N1+00201+00101102531ADDAY101999GF100991001001999999001001MA1102511999999MD1810111+9999MW1021REMSYN00592000MET012CAVOK NOSIG?EQDQ01+000000PRSWM2
0058039620999991978010804304+52683-008917FM-15+0014EINN V0201301N00151999991CY0099001N1+00201+00101999999ADDMA1102511999999REMMET012CAVOK NOSIG?EQDQ01+000000PRSWM2
0123039620999991978010805004+52683-008917SY-MT+0014EINN V0201301N00151220001CN0099001N1+00201+00101102511ADDAY101999GF100991001001999999001001MA1102511999999MD1710111+9999MW1021REMSYN00592000MET012CAVOK NOSIG?EQDQ01+000000PRSWM2
0058039620999991978010805304+52683-008917FM-15+0014EINN V0201401N00201999991CY0099001N1+00201+00101999999ADDMA1102401999999REMMET012CAVOK NOSIG?EQDQ01+000000PRSWM2
0194039620999991978010806004+52683-008917SY-MT+0014EINN V0201301N00201220001CN0099001N1+00201+00101102471ADDAA199999929AJ100009199999999AY101999GF100991001001999999001001IA1009IA2999-00409KA1999N+00201MA1102401999999MD1710131+9999MW1021REMSYN01725400 79702 92001MET012CAVOK NOSIG?EQDQ01+000000PRSWM2
0058039620999991978010806304+52683-008917FM-15+0014EINN V0201301N00301999991CY0099001N1+00201+00101999999ADDMA1102401999999REMMET012CAVOK NOSIG?EQDQ01+000000PRSWM2
0123039620999991978010807004+52683-008917SY-MT+0014EINN V0201301N00301220001CN0099001N1+00201+00101102431ADDAY101999GF100991001001999999001001MA1102401999999MD1710101+9999MW1021REMSYN00592001MET012CAVOK NOSIG?EQDQ01+000000PRSWM2
0058039620999991978010807304+52683-008917FM-15+0014EINN V0200801N00201999991CY0099001N1+00301+00101999999ADDMA1102401999999REMMET012CAVOK NOSIG?EQDQ01+000000PRSWM2
0153039620999991978010808004+52683-008917SY-MT+0014EINN V0201701N00411220001CN0112001N1+00301+00201102411ADDAY101999GA1011+006009059GF101991011051008001001001MA1102401999999MD1710101+9999MW1031WG199990099999REMSYN01181620 92001MET006NOSIG?EQDQ01+000000PRSWM2
0068039620999991978010808304+52683-008917FM-15+0014EINN V0201801N00661220001CN0112001N1+00401+00201999999ADDGA1011+006009059MA1102301999999REMMET006NOSIG?EQDQ01+000000PRSWM2
0139039620999991978010809004+52683-008917SY-MT+0014EINN V0201801N00611220001CN0112001N1+00301+00201102371ADDAY101999GA1021+009009059GF102991021051012501001001MA1102301999999MD1710101+9999MW1031REMSYN01182630 92000MET006NOSIG?EQDQ01+000000PRSWM2
0068039620999991978010809304+52683-008917FM-15+0014EINN V0201801N00611220001CN0112001N1+00401+00201999999ADDGA1041+011109059MA1102301999999REMMET006NOSIG?EQDQ01+000000PRSWM2
0133039620999991978010810004+52683-008917SY-MT+0014EINN V0201701N00611012001CN0112001N1+00401+00201102361ADDAY111999GA1061+012009059GF106991061051012501999999MA1102301999999MD1710071+9999MW1031REMSYN00586640MET006NOSIG?EQDQ01+000000PRSWM2
0068039620999991978010810304+52683-008917FM-15+0014EINN V0201701N00611012001CN0112001N1+00401+00201999999ADDGA1061+012009059MA1102301999999REMMET006NOSIG?EQDQ01+000000PRSWM2
0133039620999991978010811004+52683-008917SY-MT+0014EINN V0201701N00461012001CN0112001N1+00501+00301102341ADDAY121999GA1071+012009059GF107991071051012501999999MA1102301999999MD1710071+9999MW1031REMSYN00587640MET006NOSIG?EQDQ01+000000PRSWM2
0072039620999991978010811304+52683-008917FM-15+0014EINN V0201801N00561012001CN0112001N1+00501+00301999999ADDGA1071+012009059MA1102301999999REMMET010123 NOSIG?EQDQ01+000000PRSWM2
0166039620999991978010812004+52683-008917SY-MT+0014EINN V0201701N00511013501CN0112001N1+00601+00401102251ADDAA106999929AY111999GA1071+013509059GF107991071051012501999999MA1102201999999MD1710121+9999MW1021REMSYN011797// 87645MET006NOSIG?EQDQ01+000000PRSWM2Q02  99993PRCP99
0068039620999991978010812304+52683-008917FM-15+0014EINN V0201801N00611012001CN0112001N1+00601+00401999999ADDGA1071+012009059MA1102201999999REMMET006NOSIG?EQDQ01+000000PRSWM2
0133039620999991978010813004+52683-008917SY-MT+0014EINN V0201701N00561010501CN0112001N1+00701+00501102131ADDAY121999GA1071+010509059GF107991071051012501999999MA1102101999999MD1710231+9999MW1031REMSYN00587635MET006NOSIG?EQDQ01+000000PRSWM2
0068039620999991978010813304+52683-008917FM-15+0014EINN V0201701N00511008401CN0112001N1+00701+00501999999ADDGA1071+008409059MA1102001999999REMMET006NOSIG?EQDQ01+000000PRSWM2
0155039620999991978010814004+52683-008917SY-MT+0014EINN V0201501N00461009001CN0112001N1+00701+00501102061ADDAY121999GA1021+006309059GA2061+009009059GF107991071051008001999021MA1102001999999MD1710281+9999MW1011REMSYN01182621 86630MET006NOSIG?EQDQ01+000000PRSWM2
0084039620999991978010814304+52683-008917FM-15+0014EINN V0201701N00251010501CN0112001N1+00701+00601999999ADDGA1021+006009059GA2061+010509059MA1102001999999REMMET006NOSIG?EQDQ01+000000PRSWM2
0155039620999991978010815004+52683-008917SY-MT+0014EINN V0201901N00511010501CN0112001N1+00801+00601101991ADDAY121999GA1021+006609059GA2061+010509059GF107991071051008001999999MA1101901999999MD1710251+9999MW1011REMSYN01182622 86635MET006NOSIG?EQDQ01+000000PRSWM2
0084039620999991978010815304+52683-008917FM-15+0014EINN V0201901N00361012001CN0112001N1+00901+00501999999ADDGA1021+006609059GA2061+012009059MA1101901999999REMMET006NOSIG?EQDQ01+000000PRSWM2
0155039620999991978010816004+52683-008917SY-MT+0014EINN V0201701N00301012001CN0112001N1+00901+00501101951ADDAY121999GA1011+006609059GA2051+012009059GF106991061051008001999999MA1101901999999MD1710171+9999MW1011REMSYN01181622 85640MET006NOSIG?EQDQ01+000000PRSWM2
0068039620999991978010816304+52683-008917FM-15+0014EINN V0202001N00361015001CN0112001N1+00901+00401999999ADDGA1071+015009059MA1101901999999REMMET006NOSIG?EQDQ01+000000PRSWM2
0155039620999991978010817004+52683-008917SY-MT+0014EINN V0202101N00611012001CN0112001N1+00901+00301101911ADDAY121999GA1011+007509059GA2071+012009059GF107991071051008001999999MA1101901999999MD1710141+9999MW1031REMSYN01181625 87640MET006NOSIG?EQDQ01+000000PRSWM2
0084039620999991978010817304+52683-008917FM-15+0014EINN V0202201N00611012001CN0112001N1+00901+00301999999ADDGA1011+007509059GA2061+012009059MA1101801999999REMMET006NOSIG?EQDQ01+000000PRSWM2
0191039620999991978010818004+52683-008917SY-MT+0014EINN V0202001N00561010801CN0112001N1+00901+00301101841ADDAA199999929AY121999GA1011+007509059GA2061+010809059GF107991071051008001999999KA1999M+00901MA1101801999999MD1710151+9999MW1011REMSYN02379709 81625 86636 94007MET006NOSIG?EQDQ01+000000PRSWM2
0068039620999991978010818304+52683-008917FM-15+0014EINN V0201801N00721012001CN0112001N1+00901+00301999999ADDGA1081+012009059MA1101691999999REMMET006NOSIG?EQDQ01+000000PRSWM2
0133039620999991978010819004+52683-008917SY-MT+0014EINN V0202001N00511010801CN0112001N1+00801+00301101771ADDAY121999GA1061+010809059GF106991061051012501999999MA1101691999999MD1810181+9999MW1011REMSYN00586636MET006NOSIG?EQDQ01+000000PRSWM2
0068039620999991978010819304+52683-008917FM-15+0014EINN V0201901N00411010801CN0112001N1+00801+00301999999ADDGA1061+010809059MA1101691999999REMMET006NOSIG?EQDQ01+000000PRSWM2
0138039620999991978010820004+52683-008917SY-MT+0014EINN V0201901N00411010501CN0112001N1+00801+00401101701ADDAY121999GA1081+010509059GF108991081051012501999999MA1101591999999MD1710211+9999MW1031REMSYN00588635MET011GRADU 7000?EQDQ01+000000PRSWM2
0073039620999991978010820304+52683-008917FM-15+0014EINN V0201801N00461009601CN0112001N1+00801+00301999999ADDGA1081+009609059MA1101591999999REMMET011GRADU 7000?EQDQ01+000000PRSWM2
0141039620999991978010821004+52683-008917SY-MT+0014EINN V0201801N00361009601CN0112001N1+00801+00401101651ADDAY161999GA1021+006009059GA2081+009609059GF108991081051008001999999MA1101591999999MD1710191+9999MW1601REMSYN01182620 88632MET011GRADU 7000?
0076039620999991978010821304+52683-008917FM-15+0014EINN V0202001N00661009601CN0112001N1+00801+00501999999ADDGA1021+006009059GA2081+009609059MA1101491999999MW1601REMMET011GRADU 7000?
0141039620999991978010822004+52683-008917SY-MT+0014EINN V0202001N00661009601CN0112001N1+00801+00501101561ADDAY161999GA1011+006009059GA2081+009609059GF108991081051008001999999MA1101491999999MD1710211+9999MW1211REMSYN01181620 88632MET011GRADU 7000?
0076039620999991978010822304+52683-008917FM-15+0014EINN V0201901N00921009601CN0112001N1+00801+00501999999ADDGA1011+006009059GA2081+009609059MA1101491999999MW1601REMMET011GRADU 7000?
0119039620999991978010823004+52683-008917SY-MT+0014EINN V0202001N00661007501CN0112001N1+00801+00601101511ADDAY161999GA1081+007509059GF108991081051008001999999MA1101491999999MD1710191+9999MW1601REMSYN00588625MET011TEMPO 7000?
0076039620999991978010823304+52683-008917FM-15+0014EINN V0202001N00511003901CN0112001N1+00801+00601999999ADDGA1051+003909079GA2081+006909059MA1101391999999MW1611REMMET011TEMPO 7000?
0199039620999991978010900004+52683-008917SY-MT+0014EINN V0202001N00661009001CN0112001N1+00801+00601101441ADDAA106003091AY161999GA1021+003909079GA2041+009009059GA3081+015009059GF108991081051004501999999MA1101391999999MD1710211+9999MW1211REMSYN023703// 82713 84630 88650MET011TEMPO 7000?EQDQ01  00303PRCP99
0087039620999991978010900304+52683-008917FM-15+0014EINN V0202101N00661003601CN0112001N1+00801+00701999999ADDGA1021+002709079GA2041+003609079GA3061+006009059MA1101391999999MW1601REMMET006NOSIG?
0158039620999991978010901004+52683-008917SY-MT+0014EINN V0202401N00611015001CN0112001N1+00801+00601101401ADDAY161999GA1011+003009079GA2031+004509079GA3071+015009059GF108991081051004501999999MA1101291999999MD1710161+9999MW1601REMSYN01781710 83715 87650MET006NOSIG?
0087039620999991978010901304+52683-008917FM-15+0014EINN V0202301N00561015001CN0112001N1+00701+00601999999ADDGA1011+003609079GA2031+006009059GA3071+015009059MA1101291999999MW1211REMMET006NOSIG?
0136039620999991978010902004+52683-008917SY-MT+0014EINN V0202101N00411015001CN0112001N1+00701+00501101371ADDAY161999GA1021+006009059GA2061+015009059GF106991061051008001999999MA1101291999999MD1710121+9999MW1211REMSYN01182620 86650MET006NOSIG?
0084039620999991978010902304+52683-008917FM-15+0014EINN V0202001N00411220001CN0112001N1+00701+00501999999ADDGA1011+006009059GA2031+015009059MA1101291999999REMMET006NOSIG?EQDQ01+000000PRSWM2
0136039620999991978010903004+52683-008917SY-MT+0014EINN V0202401N00921015001CN0112001N1+00701+00601101371ADDAY161999GA1031+006009089GA2031+015009059GF105991051081008001999999MA1101291999999MD1610081+9999MW1801REMSYN01183820 83650MET006NOSIG?
0071039620999991978010903304+52683-008917FM-15+0014EINN V0202601N00611015001CN0112001N1+00701+00601999999ADDGA1021+006009089GA2031+015009059MA1101291999999MW1251REMMET006NOSIG?
0136039620999991978010904004+52683-008917SY-MT+0014EINN V0202601N00821015001CN0112001N1+00701+00501101381ADDAY181999GA1041+006009089GA2031+015009059GF106991061081008001999999MA1101291999999MD1510031+9999MW1801REMSYN01184820 83650MET006NOSIG?
0071039620999991978010904304+52683-008917FM-15+0014EINN V0202601N00661015001CN0112001N1+00701+00301999999ADDGA1021+003009089GA2031+015009059MA1101291999999MW1251REMMET006NOSIG?
0114039620999991978010905004+52683-008917SY-MT+0014EINN V0202601N00561220001CN0112001N1+00601+00401101361ADDAY181999GA1021+006009089GF103991031081008001001001MA1101291999999MD1810011+9999MW1251REMSYN00582820MET006NOSIG?
0071039620999991978010905304+52683-008917FM-15+0014EINN V0202901N00871220001CN0112001N1+00501+00301999999ADDGA1021+006009089GA2011+006009099MA1101291999999MW1251REMMET006NOSIG?
0230039620999991978010906004+52683-008917SY-MT+0014EINN V0202701N00661220001CN0112001N1+00501+00301101401ADDAA199004091AJ100009199999999AY161999GA1031+006009089GA2011+006009099GF103991031031008001001001IA1089IA2999+00309KA1999N+00501MA1101291999999MD1310031+9999MW1251OA199901841REMSYN03520310 70405 83820 81920 91136 90030MET006NOSIG?
0071039620999991978010906304+52683-008917FM-15+0014EINN V0202701N00771006001CN0070001N1+00501+00301999999ADDGA1071+006009089GA2031+006009099MA1101391999999MW1801REMMET006NOSIG?
0071039620999991978010907304+52683-008917FM-15+0014EINN V0202701N00721010501CN0112001N1+00501+00201999999ADDGA1021+006009089GA2031+010509059MA1101391999999MW1251REMMET006NOSIG?
0155039620999991978010908004+52683-008917SY-MT+0014EINN V0202701N00461006001CN0112001N1+00501+00201101461ADDAY121999GA1051+006009089GA2021+006009099GF105991051031008001999999MA1101391999999MD1210101+9999MW1011REMSYN01185820 82920MET006NOSIG?EQDQ01+000000PRSWM2
0055039620999991978010908304+52683-008917FM-15+0014EINN V0203201N00561006001CN0112001N1+00401+00201999999ADDGA1071+006009099MA1101491999999MW1801REMMET006NOSIG?
0155039620999991978010909004+52683-008917SY-MT+0014EINN V0202701N00411006001CN0112001N1+00401+00201101571ADDAY181999GA1041+006009089GA2011+006009099GF105991051031008001999999MA1101491999999MD1310171+9999MW1021REMSYN01184820 81920MET006NOSIG?EQDQ01+000000PRSWM2
0131039620999991978010910004+52683-008917FM-12+0014EINN V0202601N00621010501CN0400001N9+00401+00101101651ADDAY181999GA1031+006609089GA2031+010509059GA3011+006609099GF105991051091008001999999MD1210241+9999MW1251REMSYN01783822 83635 81922
0055039620999991978010910304+52683-008917FM-15+0014EINN V0202601N00461220001CN0112001N1+00401+00101999999ADDGA1011+006609099MA1101591999999MW1251REMMET006NOSIG?
0133039620999991978010911004+52683-008917SY-MT+0014EINN V0202501N00511220001CN0112001N1+00501+00201101721ADDAY111999GA1011+006609089GF102991021081008001001001MA1101691999999MD1210261+9999MW1011REMSYN00581822MET006NOSIG?EQDQ01+000000PRSWM2
0068039620999991978010911304+52683-008917FM-15+0014EINN V0202601N00511220001CN0112001N1+00601+00301999999ADDGA1021+006609089MA1101691999999REMMET006NOSIG?EQDQ01+000000PRSWM2
0161039620999991978010912004+52683-008917SY-MT+0014EINN V0202401N00511220001CN0112001N1+00601+00301101701ADDAA106000591AA299000691AY181999GA1011+006609089GF102991021081008001001001MA1101591999999MD1010231+9999MW1011REMSYN011796// 81822MET006NOSIG?EQDQ01+000000PRSWM2
0068039620999991978010912304+52683-008917FM-15+0014EINN V0202401N00511220001CN0112001N1+00701+00201999999ADDGA1011+006609089MA1101591999999REMMET006NOSIG?EQDQ01+000000PRSWM2
0133039620999991978010913004+52683-008917SY-MT+0014EINN V0202401N00721220001CN0112001N1+00701+00101101601ADDAY101999GA1011+006609099GF102991021031008001001001MA1101491999999MD1810051+9999MW1021REMSYN00581922MET006NOSIG?EQDQ01+000000PRSWM2
0068039620999991978010913304+52683-008917FM-15+0014EINN V0202501N00771220001CN0112001N1+00701+00201999999ADDGA1021+006609099MA1101491999999REMMET006NOSIG?EQDQ01+000000PRSWM2
0084039620999991978010914004+52683-008917FM-15+0014EINN V0202501N00871220001CN0112001N1+00701+00201999999ADDGA1011+005409089GA2011+006609099MA1101491999999REMMET006NOSIG?EQDQ01+000000PRSWM2
0084039620999991978010914304+52683-008917FM-15+0014EINN V0202801N01281005401CN0040001N1+00601+00101999999ADDGA1021+004509079GA2061+005409099MA1101491999999MW1871OC101901REMMET011GRADU 9999?
0200039620999991978010915004+52683-008917SY-MT+0014EINN V0202301N00871006001CN0112001N1+00301+00101101521ADDAY181999GA1011+002109079GA2031+003309079GA3051+006009099GF107991071031002501999999HL10009MA1101491999999MD1610181+9999MW1271OA199901891REMSYN04181707 83711 85920 91137 90089 99720 98043MET006NOSIG?
0087039620999991978010915304+52683-008917FM-15+0014EINN V0202101N00771006001CN0112001N1+00301+00201999999ADDGA1011+002409079GA2031+003309079GA3061+006009099MA1101391999999MW1801REMMET006NOSIG?
0087039620999991978010916004+52683-008917FM-15+0014EINN V0202401N00821006001CN0112001N1+00301+00201999999ADDGA1011+002109079GA2031+003609079GA3021+006009099MA1101391999999MW1251REMMET006NOSIG?
0071039620999991978010916304+52683-008917FM-15+0014EINN V0202401N00661220001CN0112001N1+00301+00201999999ADDGA1011+002409079GA2011+006009099MA1101391999999MW1251REMMET006NOSIG?
0136039620999991978010917004+52683-008917SY-MT+0014EINN V0202601N00921006001CN0112001N1+00301+00201101451ADDAY181999GA1011+002409079GA2061+006009099GF107991071031002501999999MA1101391999999MD1810061+9999MW1801REMSYN01181708 86920MET006NOSIG?
0071039620999991978010917304+52683-008917FM-15+0014EINN V0202601N00361220001CN0112001N1+00401+00201999999ADDGA1011+003009079GA2041+006009099MA1101391999999MW1251REMMET006NOSIG?
0219039620999991978010918004+52683-008917SY-MT+0014EINN V0202801N00511005401CN0040001N1+00401+00101101491ADDAA199003091AY181999GA1031+002409079GA2071+005409099GF108991071031002501999999KA1999M+00701MA1101391999999MD1510031+9999MW1871REMSYN03570307 83708 87918 97160 97260 97360MET0419999 TO NE SE SW       ?     TEMPO MAX35?
0071039620999991978010918304+52683-008917FM-15+0014EINN V0202701N01021010501CN0112001N1+00401+00201999999ADDGA1041+006009099GA2031+010509059MA1101391999999MW1271REMMET006NOSIG?
0167039620999991978010919004+52683-008917SY-MT+0014EINN V0202701N01081012001CN0112001N1+00301+00101101521ADDAY181999GA1041+006009099GA2031+012009059GF106991061031008001999999MA1101491999999MD1310031+9999MW1251OA199901841OC101851REMSYN02384920 83650 91136 90093MET006NOSIG?
0055039620999991978010919304+52683-008917FM-15+0014EINN V0202801N01181006001CN0112001N1+00301+00101999999ADDGA1051+006009099MA1101491999999MW1801REMMET006NOSIG?
0159039620999991978010920004+52683-008917SY-MT+0014EINN V0202601N00921015001CN0112001N1+00301+00001101501ADDAY181999GA1041+006009099GA2031+015009059GF105991051031008001999999MA1101391999999MD1010051+9999MW1251OA199901891REMSYN02384920 83650 91137 90094MET006NOSIG?
0061039620999991978010920304+52683-008917FM-15+0014EINN V0202701N00721220001CN0112001N1+00301+00001999999ADDGA1031+006009099MA1101391999999MW1251REMMET012TEMPO MAX35?
0126039620999991978010921004+52683-008917SY-MT+0014EINN V0202401N00921220001CN0112001N1+00301+00101101561ADDAY181999GA1031+006009099GF103991031051008001001001MA1101491999999MD1310071+9999MW1251REMSYN01183920 94033MET012TEMPO MAX35?
0074039620999991978010921304+52683-008917FM-15+0014EINN V0202701N00661006001CN0112001N1+00301+00001999999ADDGA1051+006009099MA1101491999999REMMET012TEMPO MAX35?EQDQ01+000000PRSWM2
0120039620999991978010922004+52683-008917SY-MT+0014EINN V0202801N00461220001CN0112001N1+00201+00101101541ADDAY191999GA1041+006009099GF104991041031008001001001MA1101491999999MD1210021+9999MW1291REMSYN00584920MET012TEMPO MAX35?
0061039620999991978010922304+52683-008917FM-15+0014EINN V0202601N00921220001CN0112001N1+00301+00001999999ADDGA1031+006009099MA1101491999999MW1291REMMET012TEMPO MAX35?
0155039620999991978010923004+52683-008917SY-MT+0014EINN V0202501N00611060001CN0112001N1+00301+00001101541ADDAY121999GA1031+006009099GA2041+060009009GF105991031031008001001021MA1101491999999MD1010041+9999MW1031REMSYN01183920 84070MET006NOSIG?EQDQ01+000000PRSWM2
0063039620999991978010923304+52683-008917FM-15+0014EINN V0202601N00821006001CN0112001N1+00301+00001999999ADDGA1051+006009099MA1101491999999MW1801OC101331REMMET006NOSIG?
0180039620999991978011000004+52683-008917SY-MT+0014EINN V0202601N01131060001CN0112001N1+00401+00101101511ADDAA106002091AY191999GA1041+006009099GA2041+060009009GF105991041031008001001021MA1101491999999MD1710051+9999MW1801OC101641REMSYN017702// 84920 84070MET006NOSIG?EQDQ01  00203PRCP99
0103039620999991978011000304+52683-008917FM-15+0014EINN V0202701N01181004801CN0080001N1+00301+00001999999ADDGA1031+002109079GA2081+004809099MA1101491999999MW1801OC101691REMMET030GRADU 9999       ?     5CU018?
0114039620999991978011001004+52683-008917SY-MT+0014EINN V0202601N00771220001CN0112001N1+00301+00101101481ADDAY181999GA1031+006009099GF103991031031008001001001MA1101391999999MD1810061+9999MW1251REMSYN00583920MET006NOSIG?
0082039620999991978011001304+52683-008917FM-15+0014EINN V0202601N00871005101CN0080001N1+00401+00001999999ADDGA1031+002409079GA2081+005109099MA1101391999999MW1801REMMET017GRADU 9999 6CU015
0153039620999991978011002004+52683-008917SY-MT+0014EINN V0202701N00771005101CN0080001N1+00301+00101101481ADDAY181999GA1031+002409079GA2081+005109099GF108991081031002501999999MA1101391999999MD1510061+9999MW1801REMSYN01183708 88917MET023GRADU 9999 8CU015 ?113?
0071039620999991978011002304+52683-008917FM-15+0014EINN V0202701N00971005401CN0112001N1+00301+00101999999ADDGA1021+002109079GA2051+005409099MA1101391999999MW1271REMMET006NOSIG?
0150039620999991978011003004+52683-008917SY-MT+0014EINN V0202701N00971005401CN0112001N1+00301+00201101411ADDAY181999GA1021+002409079GA2051+005409099GF106991061031002501999999MA1101391999999MD1710101+9999MW1801WG199010699999REMSYN01182708 85918MET006NOSIG?
0055039620999991978011003304+52683-008917FM-15+0014EINN V0202701N00871220001CN0112001N1+00401+00101999999ADDGA1031+006009099MA1101291999999MW1271REMMET006NOSIG?
0136039620999991978011004004+52683-008917SY-MT+0014EINN V0202501N00871012001CN0112001N1+00401+00201101321ADDAY181999GA1031+006009099GA2031+012009059GF105991051031008001999999MA1101291999999MD1710161+9999MW1271REMSYN01183920 83640MET006NOSIG?
0189039620999991978011005004+52683-008917SY-MT+0014EINN V0202701N01021005401CN0112001N1+00501+00201101291ADDAY181999GA1021+002109079GA2051+005409099GA3051+008109059GF108991081031002501999999MA1101191999999MD1710191+9999MW1271OA199901841OC101541REMSYN02982707 85918 85627 91136 90029MET006NOSIG?
0087039620999991978011005304+52683-008917FM-15+0014EINN V0202701N01081005401CN0112001N1+00401+00201999999ADDGA1021+002109079GA2041+005409099GA3051+009009059MA1101191999999MW1271REMMET006NOSIG?
0230039620999991978011006004+52683-008917SY-MT+0014EINN V0202801N00721005401CN0150001N1+00401+00301101271ADDAA199006091AJ100009199999999AY181999GA1021+002109079GA2051+005409099GF107991071031002501999999IA1089IA2999+00009KA1999N+00201MA1101191999999MD1610141+9999MW1251OA199902261REMSYN03525010 70602 82707 85918 91144 90005MET006NOSIG?
0071039620999991978011006304+52683-008917FM-15+0014EINN V0202601N00871005401CN0112001N1+00501+00301999999ADDGA1011+002709079GA2051+005409099MA1101191999999MW1251REMMET006NOSIG?
0158039620999991978011007004+52683-008917SY-MT+0014EINN V0202701N00971015001CN0112001N1+00401+00201101221ADDAY181999GA1011+002709079GA2041+006009099GA3051+015009059GF107991071031002501031999MA1101191999999MD1710101+9999MW1251REMSYN01781709 84920 85650MET006NOSIG?
0100039620999991978011007304+52683-008917FM-15+0014EINN V0202601N00921015001CN0112001N1+00501+00201999999ADDGA1011+002709079GA2041+006009099GA3051+015009059MA1101081999999REMMET006NOSIG?EQDQ01+000000PRSWM2
0158039620999991978011008004+52683-008917SY-MT+0014EINN V0202601N00771006001CN0112001N1+00501+00301101141ADDAY181999GA1021+002709079GA2041+006009099GA3051+009009059GF107991071031002501999999MA1101081999999MD1810151+9999MW1801REMSYN01782709 84920 85630MET006NOSIG?
0087039620999991978011008304+52683-008917FM-15+0014EINN V0202601N00771009001CN0112001N1+00401+00301999999ADDGA1011+002709079GA2031+006009099GA3051+009009059MA1101081999999MW1251REMMET006NOSIG?
0181039620999991978011009004+52683-008917SY-MT+0014EINN V0202501N00971006001CN0112001N1+00501+00301101071ADDAY181999GA1021+002709079GA2031+006009099GA3071+060009029GF107991051031002501001061MA1101021999999MD1710201+9999MW1801OA199902101REMSYN02982709 83920 87270 91141 90008MET006NOSIG?
