0155039620999991983010100004+52683-008917FM-12+0020EINN V0201801N00571004501CN0120001N9+00831+00721101361ADDAA106002091AG10003AY161061GA1031+003009079GA2051+004509079GA3071+007509059GF108991081061004501999999MD1710311+9999MW1631REMSYN023333   83710 85715 87625
0106039620999991983010100304+52683-008917FM-15+0020EINN V0201901N00611004501CN0112001N1+00901+00801999999ADDAG11999GA1021+003009079GA2051+004509079GA3081+007509059MA1101291999999MW1611REMMET018TEMPO 5000 6ST007?
0183039620999991983010101004+52683-008917SY-MT+0020EINN V0202001N00671004501CN0100001N1+00911+00791101291ADDAG12999AY161011GA1031+003009079GA2051+004509079GA3081+018009049GF108991061061004501021999MA1101191999999MD1710281+9999MW1631REMSYN023333   83710 85715 88556MET018TEMPOM5000 6ST007?
0090039620999991983010101304+52683-008917FM-15+0020EINN V0202001N00661005401CN0112001N1+00901+00801999999ADDAG11999GA1021+003009079GA2051+005409079MA1101191999999MW1631REMMET018TEMPO 5000 6ST007?
0167039620999991983010102004+52683-008917SY-MT+0020EINN V0202001N00721005401CN0120001N1+00931+00811101151ADDAG12999AY161021GA1021+003009079GA2051+005409079GF108991061061004501021999MA1101081999999MD1710311+9999MW1611REMSYN023333   82710 85718 88550MET018TEMPO 5000 6ST007?
0094039620999991983010102304+52683-008917FM-15+0020EINN V0202001N00721006001CN0112001N1+01001+00901999999ADDAG12001GA1021+003009079GA2051+006009059GA3071+012009059MA1101081999999MW1211REMMET006NOSIG?
0149039620999991983010103004+52683-008917SY-MT+0020EINN V0202001N00721006001CN0112001N1+01001+00901101101ADDAG12001AY161031GA1031+003609079GA2081+006009059GF108991081051004501999999MA1101021999999MD1710261+9999MW1211REMSYN017333   83712 88620MET006NOSIG?
0078039620999991983010103304+52683-008917FM-15+0020EINN V0202101N00611003301CN0060001N1+01001+00901999999ADDAG12999GA1021+001809079GA2081+003309079MA1101021999999MW1581REMMET006NOSIG?
0149039620999991983010104004+52683-008917SY-MT+0020EINN V0202101N00721003301CN0060001N1+00991+00931101041ADDAG12999AY161011GA1021+001809079GA2081+003309079GF108991081061002501999999MA1101021999999MD1710251+9999MW1581REMSYN017333   82706 88711MET006NOSIG?
0067039620999991983010104304+52683-008917FM-15+0020EINN V0202101N00611003301CN0112001N1+01001+01001999999ADDAG12999GA1081+003309079MA1100911999999MW1211REMMET011TEMPO 5000?
0168039620999991983010105004+52683-008917SY-MT+0020EINN V0202201N00721003301CN0060001N1+01021+00961100961ADDAG12999AY161021GA1051+003309079GA2081+006609059GF108991081061004501999999MA1100911999999MD1710191+9999MW1501REMSYN017333   85711 88622MET025TEMPO 5000 5ST007 8ST012?
0086039620999991983010105304+52683-008917FM-15+0020EINN V0202301N00771003301CN0050001N1+01001+00901999999ADDAG12000GA1021+001809079GA2081+003309079MA1100911999999MW1581REMMET014TEMPO  7ST006?
0243039620999991983010106004+52683-008917SY-MT+0020EINN V0202601N00771006601CN0150001N1+00991+00891101021ADDAA199010091AG10003AY161061GA1041+003309079GA2051+006609059GA3081+012009059GF108991081051004501999999IA1099IA2999+00609KA1120N+00651MA1101021999999MD1510081+9999MW1631REMSYN053333   20065 31006 84711 85622 88640 91323 91326 90080MET006NOSIG?
0094039620999991983010106304+52683-008917FM-15+0020EINN V0202601N00661012001CN0112001N1+00901+00801999999ADDAG12999GA1031+004509079GA2051+012009059GA3081+024009049MA1101021999999MW1211REMMET006NOSIG?
0171039620999991983010107004+52683-008917SY-MT+0020EINN V0202601N00821013501CN0112001N1+00901+00701101051ADDAG12999AY161011GA1031+003609079GA2061+013509059GA3081+024009049GF108991061061004501021999MA1101021999999MD1310011+9999MW1601REMSYN023333   83712 86645 88458MET006NOSIG?
0078039620999991983010107304+52683-008917FM-15+0020EINN V0202601N00661018001CN0090001N1+00901+00701999999ADDAG12999GA1031+012009059GA2081+018009049MA1101021999999MW1601REMMET006NOSIG?
0166039620999991983010108004+52683-008917SY-MT+0020EINN V0202601N00621024001CN0150001N1+00791+00661101161ADDAG12999AY161021GA1041+011109059GA2081+024009049GF108991041051012501071999MA1101081999999MD1310201+9999MW1211OA149901341REMSYN023333   84637 88458 91126MET006NOSIG?
0094039620999991983010108304+52683-008917FM-15+0020EINN V0202801N00661024001CN0112001N1+00801+00601999999ADDAG12001GA1011+006009089GA2031+012009059GA3051+024009049MA1101191999999MW1211REMMET006NOSIG?
0168039620999991983010109004+52683-008917SY-MT+0020EINN V0202701N00621013501CN0300001N1+00741+00531101301ADDAG12001AY161031GA1021+006009089GA2041+013509059GF107991061081008001031999MA1101191999999MD1210271+9999MW1011REMSYN017333   82820 84645MET006NOSIG?EQDQ01+000000PRSWM2
0075039620999991983010109304+52683-008917FM-15+0020EINN V0202801N00461013501CN0112001N1+00801+00501999999ADDAG12999GA1061+013509059MA1101291999999REMMET006NOSIG?EQDQ01+000000PRSWM2
0168039620999991983010110004+52683-008917SY-MT+0020EINN V0202701N00461030001CN0300001N1+00721+00391101381ADDAG12999AY101011GA1011+006609089GA2041+013509059GF105991041081008001031999MA1101291999999MD1210321+9999MW1021REMSYN017333   81822 84645MET006NOSIG?EQDQ01+000000PRSWM2
0091039620999991983010110304+52683-008917FM-15+0020EINN V0202601N00461220001CN0112001N1+00701+00301999999ADDAG12999GA1011+006609089GA2031+060009009MA1101391999999REMMET006NOSIG?EQDQ01+000000PRSWM2
0168039620999991983010111004+52683-008917SY-MT+0020EINN V0202701N00771220001CN0112001N1+00801+00301101441ADDAG12999AY101021GA1011+006609089GA2031+013509059GF103991031081008001001021MA1101391999999MD1210281+9999MW1021REMSYN017333   81822 83645MET006NOSIG?EQDQ01+000000PRSWM2
0091039620999991983010111304+52683-008917FM-15+0020EINN V0202601N00411220001CN0112001N1+00701+00101999999ADDAG12000GA1011+006609089GA2031+013509059MA1101391999999REMMET006NOSIG?EQDQ01+000000PRSWM2
0179039620999991983010112004+52683-008917SY-MT+0020EINN V0202601N00461220001CN0112001N1+00701+00201101511ADDAA106000591AG10001AY161061GA1011+006609089GA2031+054009009GF103991011081004501001021MA1101491999999MD1210211+9999MW1021REMSYN017333   81822 83068MET006NOSIG?EQDQ01+000000PRSWM2
0075039620999991983010112304+52683-008917FM-15+0020EINN V0202601N00411220001CN0112001N1+00701+00201999999ADDAG12999GA1011+006609089MA1101491999999REMMET006NOSIG?EQDQ01+000000PRSWM2
0146039620999991983010113004+52683-008917SY-MT+0020EINN V0202501N00411220001CN0112001N1+00701+00101101531ADDAG12999AY101011GA1011+013509059GF101991011051008001001021MA1101491999999MD1010151+9999MW1021REMSYN011333   81645MET006NOSIG?EQDQ01+000000PRSWM2
0075039620999991983010113304+52683-008917FM-15+0020EINN V0202501N00361220001CN0112001N1+00701+00101999999ADDAG12999GA1011+013509059MA1101491999999REMMET006NOSIG?EQDQ01+000000PRSWM2
0146039620999991983010114004+52683-008917SY-MT+0020EINN V0202401N00361220001CN0400001N1+00751+00241101531ADDAG12999AY101021GA1011+013509059GF101991011051008001031021MA1101491999999MD1110091+9999MW1021REMSYN011333   81645MET006NOSIG?EQDQ01+000000PRSWM2
0091039620999991983010114304+52683-008917FM-15+0020EINN V0202301N00461220001CN0112001N1+00701+00201999999ADDAG12000GA1011+006609089GA2031+013509059MA1101491999999REMMET006NOSIG?EQDQ01+000000PRSWM2
0149039620999991983010115004+52683-008917SY-MT+0020EINN V0202501N00721013501CN0400001N1+00711+00271101551ADDAG12002AY111031GA1011+006609089GA2061+013509059GF107991071081008001999999MA1101491999999MD1110041+9999MW1801REMSYN017333   81822 86645MET006NOSIG?
0062039620999991983010115304+52683-008917FM-15+0020EINN V0202501N01081006001CN0112001N1+00701+00301999999ADDAG12999GA1051+006009099MA1101491999999MW1801REMMET006NOSIG?
0166039620999991983010116004+52683-008917SY-MT+0020EINN V0202601N00721013501CN0112001N1+00601+00301101631ADDAG12999AY181011GA1031+006009099GA2041+013509059GF106991061031008001999999MA1101591999999MD1310101+9999MW1801OA149901491REMSYN023333   83920 84645 91129MET006NOSIG?
0127039620999991983010117004+52683-008917SY-MT+0020EINN V0202401N00511220001CN0300001N1+00581+00371101681ADDAG12999AY181021GA1031+006009099GF103991031031008001001001MA1101591999999MD1310141+9999MW1251REMSYN011333   83920MET006NOSIG?
0063039620999991983010117304+52683-008917FM-15+0020EINN V0202601N00771220001CN0112001N1+00601+00301999999ADDAG12002GA1021+006009099MA1101691999999MW1251REMMET007NO SIG?
0189039620999991983010118004+52683-008917SY-MT+0020EINN V0202601N00661220001CN0112001N1+00601+00301101751ADDAA199000591AG12002AY181061GA1011+006009099GF101991011031008001001001GJ100969KA1120M+00991MA1101691999999MD1210201+9999MW1251OA149901441REMSYN029333   10099 81920 91128 94016MET007NO SIG?
0076039620999991983010118304+52683-008917FM-15+0020EINN V0202801N00721220001CN0112001N1+00601+00101999999ADDAG12999GA1011+006009099MA1101691999999REMMET007NO SIG?EQDQ01+000000PRSWM2
0147039620999991983010119004+52683-008917SY-MT+0020EINN V0202801N00671220001CN0300001N1+00521+00051101811ADDAG11999AY101011GA1011+006009099GF101991011031008001001001MA1101801999999MD1210181+9999MW1021REMSYN011333   81920MET007NO SIG?EQDQ01+000000PRSWM2
0075039620999991983010119304+52683-008917FM-15+0020EINN V0202601N00461220001CN0112001N1+00501+00001999999ADDAG12999GA1011+006009099MA1101801999999REMMET006NOSIG?EQDQ01+000000PRSWM2
0146039620999991983010120004+52683-008917SY-MT+0020EINN V0202601N00411220001CN0112001N1+00501+00001101851ADDAG12999AY101021GA1011+006009099GF103991031031008001001001MA1101801999999MD1210171+9999MW1021REMSYN011333   81920MET006NOSIG?EQDQ01+000000PRSWM2
0076039620999991983010120304+52683-008917FM-15+0020EINN V0202401N00411220001CN0112001N1+00501+00101999999ADDAG12000GA1021+012009059MA1101801999999REMMET007NO SIG?EQDQ01+000000PRSWM2
0147039620999991983010121004+52683-008917SY-MT+0020EINN V0201801N00511220001CN0300001N1+00451+00091101851ADDAG12000AY101031GA1011+012009059GF101991011051008001001001MA1101801999999MD1110101+9999MW1021REMSYN011333   81640MET007NO SIG?EQDQ01+000000PRSWM2
0076039620999991983010121304+52683-008917FM-15+0020EINN V0201801N00511220001CN0112001N1+00401+00001999999ADDAG12999GA1011+012009059MA1101801999999REMMET007NO SIG?EQDQ01+000000PRSWM2
0149039620999991983010122004+52683-008917SY-MT+0020EINN V0202001N00461013501CN0300001N1+00461+00071101841ADDAG12999AY181011GA1011+006009099GA2041+013509059GF105991051031008001001001MA1101801999999MD1110031+9999MW1801REMSYN017333   81920 84645MET006NOSIG?
0078039620999991983010122304+52683-008917FM-15+0020EINN V0202001N00511013501CN0112001N1+00501+00101999999ADDAG12999GA1011+006009089GA2051+013509059MA1101801999999MW1251REMMET006NOSIG?
0149039620999991983010123004+52683-008917SY-MT+0020EINN V0202301N00411013501CN0250001N1+00461+00151101861ADDAG12999AY181021GA1021+006009099GA2051+013509059GF107991071031008001999999MA1101801999999MD1210011+9999MW1801REMSYN017333   82920 85645MET006NOSIG?
0138039620999991983010200004+52683-008917SY-MT+0020EINN V0202401N00511220001CN0112001N1+00601+00501101851ADDAA106000591AG10002AY181061GA1011+006009099GF103991031031008001001001MA1101801999999MD1410001+9999MW1251REMSYN011333   81920MET006NOSIG?
0078039620999991983010200304+52683-008917FM-15+0020EINN V0202401N00611012001CN0112001N1+00601+00501999999ADDAG11999GA1021+006009099GA2051+012009059MA1101801999999MW1801REMMET006NOSIG?
0149039620999991983010201004+52683-008917SY-MT+0020EINN V0202401N00511012001CN0112001N1+00601+00501101891ADDAG12999AY181011GA1021+006009099GA2051+012009059GF106991061031008001999999MA1101801999999MD1210051+9999MW1251REMSYN017333   82920 85640MET006NOSIG?
0062039620999991983010201304+52683-008917FM-15+0020EINN V0202601N00461220001CN0112001N1+00601+00401999999ADDAG11999GA1011+006009099MA1101901999999MW1251REMMET006NOSIG?
0149039620999991983010202004+52683-008917SY-MT+0020EINN V0202701N00771006001CN0120001N1+00601+00331101991ADDAG12999AY181021GA1031+005109079GA2061+006009099GF108991081031004501999999MA1101901999999MD1310131+9999MW1801REMSYN017333   83717 86920MET006NOSIG?
0094039620999991983010202304+52683-008917FM-15+0020EINN V0202601N00721006001CN0112001N1+00601+00401999999ADDAG12002GA1021+005109079GA2041+006009099GA3051+012009059MA1102001999999MW1801REMMET006NOSIG?
0166039620999991983010203004+52683-008917SY-MT+0020EINN V0202501N00361220001CN0250001N1+00551+00361102061ADDAG12002AY181031GA1011+006009099GA2041+012009059GF104991041031008001001001MA1102001999999MD1310211+9999MW1251OA149901031REMSYN023333   81920 84640 91120MET006NOSIG?
0091039620999991983010203304+52683-008917FM-15+0020EINN V0202501N00411220001CN0112001N1+00501+00401999999ADDAG11999GA1011+006009099GA2031+012009059MA1102001999999REMMET006NOSIG?EQDQ01+000000PRSWM2
0146039620999991983010204004+52683-008917SY-MT+0020EINN V0202501N00511220001CN0300001N1+00541+00291102101ADDAG12999AY101011GA1021+006909089GF103991031081008001031001MA1102001999999MD1210211+9999MW1021REMSYN011333   82823MET006NOSIG?EQDQ01+000000PRSWM2
0078039620999991983010204304+52683-008917FM-15+0020EINN V0202801N00511006601CN0112001N1+00601+00401999999ADDAG12999GA1051+006609089GA2031+010509059MA1102101999999MW1801REMMET006NOSIG?
0149039620999991983010205004+52683-008917SY-MT+0020EINN V0202601N00311010501CN0250001N1+00511+00391102111ADDAG12999AY181021GA1041+006909089GA2031+010509059GF106991061081008001999999MA1102101999999MD1010121+9999MW1251REMSYN017333   84823 83635MET006NOSIG?
0078039620999991983010205304+52683-008917FM-15+0020EINN V0202201N00301012001CN0112001N1+00501+00401999999ADDAG12002GA1031+007509089GA2031+012009059MA1102101999999MW1251REMMET006NOSIG?
0200039620999991983010206004+52683-008917SY-MT+0020EINN V0202201N00301220001CN0112001N1+00401+00301102121ADDAA199001091AG10002AY181061GA1011+007509089GF102991021081008001031001IA1099IA2999+00109KA1120N+00341MA1102101999999MD1110061+9999MW1011REMSYN023333   20034 31001 81825MET006NOSIG?EQDQ01+000000PRSWM2
0075039620999991983010206304+52683-008917FM-15+0020EINN V0202101N00361220001CN0112001N1+00401+00301999999ADDAG12999GA1011+006609089MA1102101999999REMMET006NOSIG?EQDQ01+000000PRSWM2
0127039620999991983010207004+52683-008917SY-MT+0020EINN V0202101N00461220001CN0300001N1+00461+00311102131ADDAG12999AY181011GA1011+006609089GF102991011081008001001021MA1102101999999MD1210031+9999MW1251REMSYN011333   81822MET006NOSIG?
0075039620999991983010207304+52683-008917FM-15+0020EINN V0202001N00361220001CN0112001N1+00501+00301999999ADDAG12999GA1011+006609089MA1102101999999REMMET006NOSIG?EQDQ01+000000PRSWM2
0146039620999991983010208004+52683-008917SY-MT+0020EINN V0202001N00361220001CN0300001N1+00471+00321102161ADDAG12999AY101021GA1011+006609089GF103991011081008001031021MA1102101999999MD1210051+9999MW1021REMSYN011333   81822MET006NOSIG?EQDQ01+000000PRSWM2
0091039620999991983010208304+52683-008917FM-15+0020EINN V0201801N00301220001CN0112001N1+00501+00301999999ADDAG12000GA1011+006609089GA2031+075009009MA1102101999999REMMET006NISIG?EQDQ01+000000PRSWM2
0168039620999991983010209004+52683-008917SY-MT+0020EINN V0201901N00361075001CN0400001N1+00441+00321102191ADDAG12002AY181031GA1011+006009089GA2031+075009009GF105991021081008001031021MA1102101999999MD1210071+9999MW1031REMSYN017333   81820 83075MET006NOSIG?EQDQ01+000000PRSWM2
0091039620999991983010209304+52683-008917FM-15+0020EINN V0201901N00411060001CN0112001N1+00401+00201999999ADDAG12999GA1011+009009059GA2071+060009029MA1102101999999REMMET006NOSIG?EQDQ01+000000PRSWM2
0190039620999991983010210004+52683-008917SY-MT+0020EINN V0201701N00461027001CN0600001N1+00501+00301102171ADDAG12999AY101011GA1011+009009059GA2041+015009059GA3051+027009039GF107991041051012501031081MA1102101999999MD1010041+9999MW1021REMSYN023333   81630 84650 85359MET006NOSIG?EQDQ01+000000PRSWM2
0091039620999991983010210304+52683-008917FM-15+0020EINN V0201801N00461027001CN0112001N1+00501+00301999999ADDAG12999GA1041+012009059GA2061+027009049MA1102101999999REMMET006NOSIG?EQDQ01+000000PRSWM2
0168039620999991983010211004+52683-008917SY-MT+0020EINN V0201801N00511027001CN0500001N1+00591+00351102101ADDAG12999AY101021GA1031+012009059GA2071+027009049GF108991031051012501071999MA1102001999999MD1810061+9999MW1021REMSYN017333   83640 87359MET006NOSIG?EQDQ01+000000PRSWM2
0107039620999991983010211304+52683-008917FM-15+0020EINN V0201701N00461027001CN0112001N1+00601+00401999999ADDAG12000GA1021+012009059GA2051+027009039GA3071+060009029MA1102001999999REMMET006NOSIG?EQDQ01+000000PRSWM2
0179039620999991983010212004+52683-008917SY-MT+0020EINN V0201701N00461027001CN0112001N1+00701+00401102011ADDAA106999929AG12002AY181061GA1041+012009059GA2071+027009049GF108991041051012501071999MA1102001999999MD1710181+9999MW1021REMSYN017333   84640 87359MET006NOSIG?EQDQ01+000000PRSWM2
0091039620999991983010212304+52683-008917FM-15+0020EINN V0201601N00511027001CN0112001N1+00701+00401999999ADDAG12999GA1041+012009059GA2071+027009049MA1101901999999REMMET006NOSIG?EQDQ01+000000PRSWM2
0168039620999991983010213004+52683-008917SY-MT+0020EINN V0201501N00561027001CN0112001N1+00701+00401101851ADDAG12999AY101011GA1041+012009059GA2071+027009049GF108991041051012501071999MA1101801999999MD1710321+9999MW1021REMSYN017333   84640 87359MET006NOSIG?EQDQ01+000000PRSWM2
0091039620999991983010213304+52683-008917FM-15+0020EINN V0201501N00561027001CN0112001N1+00701+00401999999ADDAG12999GA1031+013509059GA2071+027009049MA1101691999999REMMET006NOSIG?EQDQ01+000000PRSWM2
0171039620999991983010214004+52683-008917SY-MT+0020EINN V0201601N00621027001CN0300001N1+00701+00491101621ADDAG12999AY161021GA1011+006009059GA2031+013509059GA3081+027009049GF108991031051008001021999MA1101591999999MD1710481+9999MW1601REMSYN023333   81620 83645 88459MET006NOSIG?
0094039620999991983010214304+52683-008917FM-15+0020EINN V0201601N00821024001CN0112001N1+00701+00601999999ADDAG12001GA1011+006009059GA2031+009009059GA3081+024009049MA1101391999999MW1601REMMET006NOSIG?
0202039620999991983010215004+52683-008917SY-MT+0020EINN V0201601N00821007201CN0112001N1+00801+00601101371ADDAG12002AY161031GA1021+004809079GA2051+007209059GA3081+024009049GF108991061051004501021999MA1101291999999MD1710631+9999MW1611OA149901341REMSYN029333   82716 85624 88458 91126MET020GRADU 3ST010 8SC020?
0116039620999991983010215304+52683-008917FM-15+0020EINN V0201701N00921015001CN0112001N1+00801+00601999999ADDAG12999GA1011+004809079GA2031+007209059GA3051+015009059MA1101191999999MW1611OC101441REMMET020GRADU 3ST010 8SC020?
0202039620999991983010216004+52683-008917SY-MT+0020EINN V0201701N01031015001CN0300001N1+00801+00581101181ADDAG12999AY161011GA1011+003609079GA2031+007209059GA3051+015009059GF108991061051004501021999MA1101081999999MD1710661+9999MW1601OA149901651REMSYN029333   81712 83624 85650 91132MET020GRADU 3ST010 8SC020?
0108039620999991983010216304+52683-008917FM-15+0020EINN V0201701N01381015001CN0112001N1+00801+00501999999ADDAG12999GA1011+003609079GA2031+007209059GA3061+015009059MA1101021999999MW1601REMMET020GRADU 3ST010 8SC020?
0202039620999991983010217004+52683-008917SY-MT+0020EINN V0201701N01391013501CN0300001N1+00801+00511100921ADDAG12999AY161021GA1011+003609079GA2031+007209059GA3061+013509059GF108991071051004501021999MA1100911999999MD1710691+9999MW1211OA149901901REMSYN029333   81712 83624 86645 91137MET020GRADU 3ST010 8SC020?
0106039620999991983010217304+52683-008917FM-15+0020EINN V0201701N01331013501CN0112001N1+00801+00601999999ADDAG12001GA1011+003609079GA2031+006009059GA3061+013509059MA1100811999999MW1601REMMET018TEMPO 8000 5ST010?
0230039620999991983010218004+52683-008917SY-MT+0020EINN V0201701N01131005401CN0250001N1+00811+00681100711ADDAA199000591AG10002AY161061GA1021+003609079GA2041+005409059GA3061+009009059GF108991071051004501021999KA1120M+00811MA1100711999999MD1710661+9999MW1611OA149901961REMSYN035333   10081 82712 84618 86630 91138MET018TEMPO 8000 5ST010?
0114039620999991983010218304+52683-008917FM-15+0020EINN V0201701N01131007501CN0112001N1+00901+00801999999ADDAG12999GA1041+004509079GA2041+007509059GA3081+024009049MA1100511999999MW1611OC101641REMMET018TEMPO 8000 5ST010?
0200039620999991983010219004+52683-008917SY-MT+0020EINN V0201701N01021007501CN0112001N1+00901+00801100441ADDAG12999AY161011GA1021+004209079GA2041+007509059GA3081+024009049GF108991051051004501021999MA1100411999999MD1710741+9999MW1611OA149901651REMSYN029333   82714 84625 88458 91132MET018TEMPO 8000 5ST012?
0106039620999991983010219304+52683-008917FM-15+0020EINN V0201801N00921007501CN0112001N1+01001+00901999999ADDAG12999GA1021+003609079GA2051+007509059GA3081+024009049MA1100311999999MW1611REMMET018TEMPO 8000 5ST012?
0214039620999991983010220004+52683-008917SY-MT+0020EINN V0201901N00971006601CN0112001N1+01001+00901100271ADDAG12999AY161021GA1021+003609079GA2051+006609059GA3081+024009049GF108991061051004501021999GJ100009MA1100201999999MD1710651+9999MW1611OA149901491REMSYN035333   82712 85622 88458 91129 94000MET018TEMPO 8000 5ST012?
0114039620999991983010220304+52683-008917FM-15+0020EINN V0202301N01081006001CN0112001N1+01101+01001999999ADDAG12002GA1021+003609079GA2051+006009059GA3081+024009049MA1100201999999MW1611OC101851REMMET018TEMPO 8000 5ST012?
0188039620999991983010221004+52683-008917SY-MT+0020EINN V0202201N01181006601CN0150001N1+01131+01051100221ADDAG12003AY161031GA1021+003609079GA2051+006609059GA3081+024009049GF108991061051004501021999MA1100201999999MD1710491+9999MW1631OA149901851REMSYN029333   82712 85622 88458 91136MET006NOSIG?
0102039620999991983010221304+52683-008917FM-15+0020EINN V0202201N01021006601CN0112001N1+01201+01101999999ADDAG12999GA1021+004209079GA2051+006609059GA3081+024009049MA1100101999999MW1611OC101541REMMET006NOSIG?
0171039620999991983010222004+52683-008917SY-MT+0020EINN V0202301N01181006601CN0150001N1+01121+01061100181ADDAG12999AY161011GA1021+004209079GA2051+006609059GA3081+024009049GF108991061051004501021999MA1100101999999MD1610261+9999MW1611REMSYN023333   82714 85622 88458MET006NOSIG?
0102039620999991983010222304+52683-008917FM-15+0020EINN V0202301N01381015001CN0112001N1+01201+01101999999ADDAG12999GA1011+004209079GA2041+006609059GA3051+015009059MA1100101999999MW1211OC101901REMMET006NOSIG?
0176039620999991983010223004+52683-008917SY-MT+0020EINN V0202301N01641015001CN0200001N1+01231+01121999999ADDAG12999AY161021GA1011+004209079GA2041+006609059GA3051+015009059GF107991071051004501999999MW1211OA149902371OA259901751REMSYN035333   81714 84622 85650 91146 91234MET006NOSIG?
0092039620999991983010223304+52683-008917FM-15+0020EINN V0202401N01381006601CN0112001N1+01201+01101999999ADDAG12000GA1011+004209079GA2051+006609059GA3061+012009059REMMET006NOSIG?EQDQ01+000000PRSWM2
0199039620999991983010300004+52683-008917SY-MT+0020EINN V0202401N01291012001CN0200001N1+01181+01051100171ADDAA106006091AG10001AY161061GA1011+003609079GA2041+006609059GA3071+012009059GF108991081061004501999999MA1100101999999MD1510051+9999MW1601OA149902111REMSYN029333   81712 84622 87640 91141MET006NOSIG?
0086039620999991983010300304+52683-008917FM-15+0020EINN V0202401N01281009001CN0112001N1+01201+01001999999ADDAG11999GA1031+006009059GA2051+009009059MA1100101999999MW1601OC101951REMMET006NOSIG?
0166039620999991983010301004+52683-008917SY-MT+0020EINN V0202401N01031220001CN0250001N1+01111+00931100221ADDAG12999AY161011GA1011+006009059GA2031+009009059GF103991031051008001001001MA1100201999999MD1310041+9999MW1211OA149901961REMSYN023333   81620 83630 91138MET006NOSIG?
0094039620999991983010301304+52683-008917FM-15+0020EINN V0202401N01231060001CN0112001N1+01101+00801999999ADDAG11999GA1011+006009059GA2031+009009059GA3051+060009029MA1100101999999MW1211REMMET006NOSIG?
0199039620999991983010302004+52683-008917SY-MT+0020EINN V0202301N01131060001CN0250001N1+01101+00831100201ADDAG12999AY101021GA1011+006009059GA2031+009009059GA3061+060009029GF107991031051008001001061MA1100101999999MW1021OA149901901REMSYN035333   81620 83630 86270 91137 94720MET006NOSIG?EQDQ01+000000PRSWM2
0091039620999991983010302304+52683-008917FM-15+0020EINN V0202401N01181060001CN0112001N1+01101+00801999999ADDAG12000GA1021+009009059GA2071+060009029MA1100201999999REMMET006NOSIG?EQDQ01+000000PRSWM2
0185039620999991983010303004+52683-008917SY-MT+0020EINN V0202501N01291060001CN0250001N1+01161+00681100271ADDAG12001AY161031GA1011+009009059GA2081+060009029GF108991011051012501001071MA1100201999999MD1310101+9999MW1031OA149902011REMSYN023333   81630 88270 91139MET006NOSIG?EQDQ01+000000PRSWM2
0099039620999991983010303304+52683-008917FM-15+0020EINN V0202501N01131060001CN0112001N1+01201+00701999999ADDAG12999GA1031+007509059GA2081+060009029MA1100201999999OC102001REMMET006NOSIG?EQDQ01+000000PRSWM2
0193039620999991983010304004+52683-008917SY-MT+0020EINN V0202501N00971045001CN0112001N1+01101+00601100321ADDAG12999AY101011GA1031+007509059GA2081+045009049GF108991031051008001011999MA1100311999999MD1310101+9999MW1021OA149902011OC101541REMSYN023333   83625 88465 91139MET006NOSIG?EQDQ01+000000PRSWM2
0091039620999991983010304304+52683-008917FM-15+0020EINN V0202401N00871045001CN0112001N1+01101+00701999999ADDAG12999GA1021+007509059GA2081+045009049MA1100311999999REMMET006NOSIG?EQDQ01+000000PRSWM2
0207039620999991983010305004+52683-008917SY-MT+0020EINN V0202301N00671045001CN0200001N1+01071+00601100311ADDAG12999AY101021GA1021+007509059GA2041+045009049GA3081+060009029GF108991041051008001011071MA1100311999999MD1010111+9999MW1021OA149901541REMSYN029333   82625 84465 88270 91130MET006NOSIG?EQDQ01+000000PRSWM2
0107039620999991983010305304+52683-008917FM-15+0020EINN V0202301N00871060001CN0112001N1+01101+00701999999ADDAG12000GA1021+007509059GA2031+045009049GA3081+060009029MA1100201999999REMMET006NOSIG?EQDQ01+000000PRSWM2
0222039620999991983010306004+52683-008917SY-MT+0020EINN V0202401N00931060001CN0200001N1+01081+00811100241ADDAA199006091AG10001AY161061GA1021+007509059GA2081+060009029GF108991021051008001011071IA1099IA2999+00709KA1120N+00791MA1100201999999MD1810031+9999MW1021REMSYN029333   20079 31007 82625 88270MET006NOSIG?EQDQ01+000000PRSWM2
0107039620999991983010306304+52683-008917FM-15+0020EINN V0202401N00721012001CN0112001N1+01101+00801999999ADDAG12999GA1021+007509059GA2031+012009059GA3081+060009029MA1100201999999REMMET006NOSIG?EQDQ01+000000PRSWM2
0172039620999991983010307004+52683-008917SY-MT+0020EINN V0202401N00721012001CN0120001N1+01061+00931100251ADDAG12999AY161011GA1021+005409079GA2031+012009059GA3081+036009049GF108991041061004501021999MA1100201999999MD1510071+9999MW1601REMSYN023333   82718 83640 88462MET007NOSIGV?
0166039620999991983010308004+52683-008917SY-MT+0020EINN V0202201N00571010501CN0200001N1+01001+00941100251ADDAG12999AY161021GA1031+006009059GA2081+010509059GF108991081051008001999999MA1100201999999MD1610061+9999MW1211OA149901291REMSYN023333   83620 88635 91125MET006NOSIG?
0207039620999991983010309004+52683-008917SY-MT+0020EINN V0202501N00721009001CN0250001N1+01061+00861100271ADDAG12001AY161031GA1021+004509079GA2051+009009059GA3081+024009049GF108991061051004501071999MA1100201999999MD1310031+9999MW1021OA149901341REMSYN029333   82715 85630 88458 91126MET006NOSIG?EQDQ01+000000PRSWM2
0107039620999991983010309304+52683-008917FM-15+0020EINN V0202601N00561009001CN0112001N1+01001+00901999999ADDAG12999GA1031+005109079GA2051+009009059GA3081+027009049MA1100311999999REMMET006NOSIG?EQDQ01+000000PRSWM2
0190039620999991983010310004+52683-008917SY-MT+0020EINN V0202401N00571009001CN0250001N1+00981+00811100341ADDAG12999AY101011GA1031+005109079GA2041+009009059GA3061+027009049GF107991061051004501071999MA1100311999999MD1310091+9999MW1021REMSYN023333   83717 84630 86459MET006NOSIG?EQDQ01+000000PRSWM2
0168039620999991983010311004+52683-008917SY-MT+0020EINN V0202401N00671048001CN0250001N1+01011+00691100361ADDAG12999AY101021GA1011+006609089GA2041+048009029GF105991021081008001041081MA1100311999999MD1210111+9999MW1021REMSYN017333   81822 84266MET006NOSIG?EQDQ01+000000PRSWM2
0094039620999991983010311304+52683-008917FM-15+0020EINN V0202401N00561048001CN0112001N1+01001+00801999999ADDAG12002GA1011+006609089GA2031+010509059GA3051+048009029MA1100311999999MW1801REMMET006NOSIG?
0182039620999991983010312004+52683-008917SY-MT+0020EINN V0202401N00671048001CN0250001N1+01061+00841100331ADDAA106000391AG10002AY181061GA1011+005109079GA2031+010509059GA3061+048009009GF107991041081004501001021MA1100311999999MD1010061+9999MW1251REMSYN023333   81717 83635 86066MET006NOSIG?
0109039620999991983010312304+52683-008917FM-15+0020EINN V0202301N00661009001CN0090001N1+01101+00901999999ADDAG12999GA1011+005109079GA2061+009009059GA3071+024009049MA1100311999999MW1501REMMET0219999 TO  NE SE NOSIG?
0161039620999991983010313004+52683-008917SY-MT+0020EINN V0202401N00771009001CN0112001N1+01101+01001100311ADDAG12999AY151011GA1021+004209079GA2051+009009059GA3081+024009049GF108991051051004501021999MD1810031+9999MW1201OA149901291REMSYN029333   82714 85630 88458 91125
0102039620999991983010313304+52683-008917FM-15+0020EINN V0202401N00771007501CN0112001N1+01101+00901999999ADDAG12999GA1031+004209079GA2051+007509059GA3081+024009049MA1100201999999MW1501OC101331REMMET006NOSIG?
0206039620999991983010314004+52683-008917SY-MT+0020EINN V0202501N00721007501CN0150001N1+01091+00871100291ADDAG12999AY151021GA1031+002409079GA2051+007509059GA3081+024009049GF108991061051002501021999MA1100201999999MD1710071+9999MW1201OA149901341REMSYN029333   83708 85625 88458 91126MET024TEMPO MAX35 8000 5CB018?
0133039620999991983010314304+52683-008917FM-15+0020EINN V0202501N00921024001CN0112001N1+01101+00801999999ADDAG12000GA1011+003609079GA2021+006009099GA3061+024009049MA1100311999999OC101441REMMET024TEMPO MAX35 8000 5CB018?EQDQ01+000000PRSWM2
0220039620999991983010315004+52683-008917SY-MT+0020EINN V0202401N01131027001CN0180001N1+01051+00721100311ADDAG12000AY151031GA1011+004209079GA2011+006009099GA3051+027009049GF106991031031004501071999MA1100311999999MD1510021+9999MW1011OA149901701REMSYN029333   81714 81920 85459 91133MET019TEMPO MAX35 5CB018?EQDQ01+000000PRSWM2
0091039620999991983010315304+52683-008917FM-15+0020EINN V0202501N00821220001CN0112001N1+01001+00701999999ADDAG12999GA1011+006009099GA2031+027009049MA1100311999999REMMET006NOSIG?EQDQ01+000000PRSWM2
0168039620999991983010316004+52683-008917SY-MT+0020EINN V0202301N00721220001CN0150001N1+00961+00661100371ADDAG12999AY101011GA1011+006009099GA2031+009009059GF104991031031008001031021MA1100311999999MD1310061+9999MW1021REMSYN017333   81920 83630MET006NOSIG?EQDQ01+000000PRSWM2
0146039620999991983010317004+52683-008917SY-MT+0020EINN V0202301N00461220001CN0150001N1+00891+00631100391ADDAG12999AY101021GA1031+009009059GF103991031051012501031021MA1100311999999MD1210101+9999MW1021REMSYN011333   83630MET006NOSIG?EQDQ01+000000PRSWM2
0218039620999991983010318004+52683-008917SY-MT+0020EINN V0202201N00921009001CN0112001N1+01001+00701100401ADDAA199000391AG12002AY181061GA1021+006009089GA2051+009009059GF106991061081008001999999GJ100069KA1120M+01101MA1100311999999MD1110091+9999MW1801OA149901441OC101441REMSYN035333   10110 82820 85630 94001 91128MET006NOSIG?
0078039620999991983010318304+52683-008917FM-15+0020EINN V0202501N00611009001CN0112001N1+00901+00801999999ADDAG12999GA1031+006009089GA2061+009009059MA1100411999999MW1801REMMET006NOSIG?
0166039620999991983010319004+52683-008917SY-MT+0020EINN V0202401N00361006001CN0112001N1+00801+00701100391ADDAG12999AY181011GA1051+006009089GA2061+008409059GF108991081081008001999999MA1100311999999MD1010021+9999MW1801OA149901081REMSYN023333   85820 86628 91121MET006NOSIG?
0078039620999991983010319304+52683-008917FM-15+0020EINN V0202101N00361008401CN0112001N1+00801+00801999999ADDAG12999GA1031+006009089GA2071+008409059MA1100311999999MW1251REMMET006NOSIG?
0149039620999991983010320004+52683-008917SY-MT+0020EINN V0202001N00511220001CN0300001N1+00871+00701100331ADDAG12999AY181021GA1011+006009089GA2031+008409059GF103991031081008001001001MA1100311999999MD1810061+9999MW1251REMSYN017333   81820 83628MET006NOSIG?
0091039620999991983010320304+52683-008917FM-15+0020EINN V0202101N00461008401CN0112001N1+00901+00601999999ADDAG12000GA1021+006009089GA2031+008409059MA1100201999999REMMET006NOSIG?EQDQ01+000000PRSWM2
0149039620999991983010321004+52683-008917SY-MT+0020EINN V0202001N00461012001CN0112001N1+00901+00701100241ADDAG12002AY181031GA1031+006609089GA2061+012009059GF107991071081008001999999MA1100201999999MD1810161+9999MW1251REMSYN017333   83822 86640MET006NOSIG?
0078039620999991983010321304+52683-008917FM-15+0020EINN V0202001N00461220001CN0112001N1+00901+00701999999ADDAG12999GA1011+006609089GA2031+012009059MA1100001999999MW1251REMMET006NOSIG?
0149039620999991983010322004+52683-008917SY-MT+0020EINN V0202001N00511220001CN0112001N1+00901+00701100071ADDAG12999AY181011GA1011+006009089GA2031+012009059GF103991031081008001001001MA1100001999999MD1810321+9999MW1251REMSYN017333   81820 83640MET006NOSIG?
0180039620999991983010323004+52683-008917SY-MT+0020EINN V0202101N00461015001CN0200001N1+00851+00641099961ADDAG12999AY161021GA1031+007509059GA2071+015009059GF107991071051008001999999MA1099901999999MD1710371+9999MW1601REMSYN017333   83625 87650MET037GRADU 8000       ?     3ST012 6SC020?
0109039620999991983010323304+52683-008917FM-15+0020EINN V0201901N00301010501CN0112001N1+00901+00701999999ADDAG12001GA1031+006009059GA2071+010509059MA1099901999999MW1211REMMET037GRADU 8000       ?     3ST012 6SC020?
0160039620999991983010400004+52683-008917SY-MT+0020EINN V0202301N00411009001CN0112001N1+00801+00701099891ADDAA106002091AG11002AY161061GA1031+004509079GA2081+009009059GF108991031061004501021999MA1099801999999MD1710351+9999MW1621REMSYN017333   83715 88530MET006NOSIG?
0079039620999991983010400304+52683-008917FM-15+0020EINN V0202301N00461009001CN0112001N1+00801+00701999999ADDAG11999GA1031+003609079GA2081+009009049MA1099801999999MW1621REMMET007NO SIG?
0156039620999991983010401004+52683-008917SY-MT+0020EINN V0202301N00621009001CN0120001N1+00761+00721099901ADDAG12999AY161011GA1031+003609079GA2081+009009049GF108991031061004501021999MA1099801999999MD1510171+9999MW1611MW2631REMSYN017333   83712 88530MET007NO SIG?
0079039620999991983010401304+52683-008917FM-15+0020EINN V0202401N00511009001CN0112001N1+00701+00701999999ADDAG11999GA1031+004509079GA2081+009009059MA1099801999999MW1611REMMET007NO SIG?
0172039620999991983010402004+52683-008917SY-MT+0020EINN V0202501N00511004801CN0120001N1+00751+00681099871ADDAG12999AY161021GA1031+003009079GA2061+004809079GA3081+006009059GF108991081061004501999999MA1099801999999MD1610091+9999MW1611REMSYN023333   83710 86716 88620MET007NO SIG?
0079039620999991983010402304+52683-008917FM-15+0020EINN V0202801N00661006001CN0112001N1+00801+00601999999ADDAG12001GA1031+003609079GA2051+006009059MA1099901999999MW1211REMMET007NO SIG?
0167039620999991983010403004+52683-008917SY-MT+0020EINN V0202801N00981006001CN0150001N1+00801+00621100051ADDAG12002AY181031GA1031+003609079GA2061+006009099GF106991061031004501999999MA1100001999999MD1310161+9999MW1801OA149901801REMSYN023333   83712 86920 91135MET007NO SIG?
0070039620999991983010403304+52683-008917FM-15+0020EINN V0202801N01021220001CN0112001N1+00801+00501999999ADDAG12999GA1031+006009099MA1100101999999MW1251OC101591REMMET006NOSIG?
0144039620999991983010404004+52683-008917SY-MT+0020EINN V0202801N01031220001CN0250001N1+00701+00451100331ADDAG12999AY181011GA1031+006009099GF103991031031008001001001MA1100311999999MD1210401+9999MW1251OA149901601REMSYN017333   83920 91131MET006NOSIG?
0070039620999991983010404304+52683-008917FM-15+0020EINN V0203001N01021220001CN0112001N1+00701+00501999999ADDAG12999GA1041+006009099MA1100411999999MW1251OC101641REMMET006NOSIG?
0144039620999991983010405004+52683-008917SY-MT+0020EINN V0202701N00771220001CN0300001N1+00641+00381100561ADDAG12999AY181021GA1041+006009099GF104991041031008001001001MA1100511999999MD1210701+9999MW1251OA149901651REMSYN017333   84920 91132MET006NOSIG?
0075039620999991983010405304+52683-008917FM-15+0020EINN V0202701N00511220001CN0112001N1+00601+00401999999ADDAG12000GA1041+006009099MA1100611999999REMMET006NOSIG?EQDQ01+000000PRSWM2
0228039620999991983010406004+52683-008917SY-MT+0020EINN V0202701N00821220001CN0112001N1+00701+00401100741ADDAA199008091AG10002AY181061GA1021+004509079GA2031+006009099GF104991041031004501001001IA1099IA2999-00409KA1120N+00601MA1100711999999MD1210681+9999MW1251OA149901391OC101381REMSYN035333   20060 31104 82715 83920 91127MET006NOSIG?
0078039620999991983010406304+52683-008917FM-15+0020EINN V0202701N00771006001CN0112001N1+00701+00201999999ADDAG12999GA1011+004509079GA2051+006009099MA1100811999999MW1801REMMET006NOSIG?
0185039620999991983010407004+52683-008917SY-MT+0020EINN V0202701N00621018001CN0250001N1+00641+00281100881ADDAG12999AY181011GA1031+006009099GA2041+018009059GF106991061031008001999001MA1100811999999MD1210551+9999MW1251OA149901241REMSYN023333   83920 84656 91124MET006NOSIG?EQDQ01    003SCOMCG
0062039620999991983010407304+52683-008917FM-15+0020EINN V0202701N00611220001CN0112001N1+00601+00301999999ADDAG12999GA1021+006009099MA1100911999999MW1251REMMET006NOSIG?
0146039620999991983010408004+52683-008917SY-MT+0020EINN V0202501N00461220001CN0250001N1+00551+00261100991ADDAG12999AY101021GA1021+006009099GF102991021031008001001001MA1100911999999MD1210431+9999MW1021REMSYN011333   82920MET006NOSIG?EQDQ01+000000PRSWM2
0142039620999991983010409004+52683-008917SY-MT+0020EINN V0202701N00411060001CN0112001N1+00501+00401101031ADDAG12002AY181031GA1011+004509079GA2011+006009099GA3051+060009009GF106991011031004501001021MA1101021999999MD1010291+9999MW1251REMMET006NOSIG?
0107039620999991983010409304+52683-008917FM-15+0020EINN V0202601N00301220001CN0112001N1+00501+00401999999ADDAG11999GA1011+004509079GA2011+006009099GA3031+060009009MA1101081999999REMMET006NOSIG?EQDQ01+000000PRSWM2
0168039620999991983010410004+52683-008917SY-MT+0020EINN V0202501N00251060001CN0112001N1+00501+00301101171ADDAG12999AY101011GA1021+006009089GA2061+060009009GF106991021021008001031021MA1101081999999MD1210291+9999MW1021REMSYN017333   82820 86070MET006NOSIG?EQDQ01+000000PRSWM2
0168039620999991983010411004+52683-008917SY-MT+0020EINN V0201701N00361060001CN0250001N1+00571+00331101251ADDAG12999AY101021GA1011+006009089GA2051+060009009GF105991011021008001031021MA1101191999999MD1210261+9999MW1021REMSYN017333   81820 85070MET006NOSIG?EQDQ01+000000PRSWM2
0091039620999991983010411304+52683-008917FM-15+0020EINN V0202101N00361060001CN0112001N1+00601+00401999999ADDAG12000GA1031+005109079GA2061+060009029MA1101191999999REMMET006NOSIG?EQDQ01+000000PRSWM2
0201039620999991983010412004+52683-008917SY-MT+0020EINN V0202201N00411060001CN0250001N1+00711+00331101261ADDAA106000591AG10002AY181061GA1011+006009089GA2031+024009039GA3061+060009009GF107991011021008001031021MA1101191999999MD1210231+9999MW1031REMSYN023333   81820 83358 86070MET006NOSIG?EQDQ01+000000PRSWM2
0107039620999991983010412304+52683-008917FM-15+0020EINN V0202201N00411060001CN0112001N1+00701+00301999999ADDAG12999GA1011+006009059GA2031+024009039GA3061+060009029MA1101191999999REMMET006NOSIG?EQDQ01+000000PRSWM2
0190039620999991983010413004+52683-008917SY-MT+0020EINN V0202101N00461060001CN0300001N1+00731+00381101191ADDAG12999AY101011GA1011+006009059GA2041+024009039GA3071+060009029GF108991011051008001031061MA1101081999999MD1010021+9999MW1021REMSYN023333   81620 84358 87270MET006NOSIG?EQDQ01+000000PRSWM2
0107039620999991983010413304+52683-008917FM-15+0020EINN V0202001N00511060001CN0112001N1+00801+00401999999ADDAG12999GA1011+006009059GA2031+024009039GA3071+060009029MA1101081999999REMMET006NOSIG?EQDQ01+000000PRSWM2
0168039620999991983010414004+52683-008917SY-MT+0020EINN V0202001N00461042001CN0300001N1+00761+00391101091ADDAG12999AY101021GA1011+006009059GA2081+042009049GF108991011051008001071999MA1101021999999MD1810151+9999MW1021REMSYN017333   81620 88464MET006NOSIG?EQDQ01+000000PRSWM2
0065039620999991983010414304+52683-008917FM-15+0020EINN V0201901N00461999991CY0099001N1+00801+00401999999ADDAG12000MA1101021999999REMMET012CAVOK NOSIG?EQDQ01+000000PRSWM2
0168039620999991983010415004+52683-008917SY-MT+0020EINN V0201901N00461036001CN0300001N1+00761+00521100971ADDAG12000AY101031GA1021+010509059GA2081+036009049GF108991021051008001071999MA1100911999999MD1710281+9999MW1021REMSYN017333   82635 88462MET006NOSIG?EQDQ01+000000PRSWM2
0091039620999991983010415304+52683-008917FM-15+0020EINN V0202001N00561033001CN0112001N1+00801+00501999999ADDAG12999GA1021+012009059GA2081+033009049MA1100911999999REMMET006NOSIG?EQDQ01+000000PRSWM2
0168039620999991983010416004+52683-008917SY-MT+0020EINN V0201901N00571033001CN0400001N1+00761+00521100871ADDAG12999AY101011GA1011+005109089GA2081+033009049GF108991021081004501021999MA1100811999999MD1710311+9999MW1021REMSYN017333   81817 88461MET006NOSIG?EQDQ01+000000PRSWM2
0091039620999991983010416304+52683-008917FM-15+0020EINN V0201701N00561030001CN0112001N1+00801+00501999999ADDAG12999GA1011+006609059GA2081+030009049MA1100811999999REMMET006NOSIG?EQDQ01+000000PRSWM2
0168039620999991983010417004+52683-008917SY-MT+0020EINN V0201801N00611027001CN0112001N1+00801+00501100751ADDAG12999AY101021GA1031+012009059GA2081+027009049GF108991031051012501021999MA1100711999999MD1710341+9999MW1021REMSYN017333   83640 88459MET006NOSIG?EQDQ01+000000PRSWM2
0078039620999991983010417304+52683-008917FM-15+0020EINN V0201801N00821027001CN0112001N1+00801+00601999999ADDAG11001GA1031+012009059GA2081+027009049MA1100611999999MW1601REMMET006NOSIG?
0215039620999991983010418004+52683-008917SY-MT+0020EINN V0201701N00661012001CN0112001N1+00801+00601100621ADDAA199000591AG12001AY161061GA1021+009009059GA2031+012009059GA3081+027009049GF108991041051012501021999GJ100009KA1120M+00801MA1100611999999MD1710351+9999MW1601REMSYN035333   10080 82630 83640 88459 94000MET006NOSIG?
0094039620999991983010418304+52683-008917FM-15+0020EINN V0201701N00721024001CN0112001N1+00801+00601999999ADDAG12999GA1011+009009059GA2031+012009059GA3081+024009049MA1100411999999MW1611REMMET006NOSIG?
0171039620999991983010419004+52683-008917SY-MT+0020EINN V0201701N00771009601CN0250001N1+00801+00671100401ADDAG12999AY161011GA1021+007809059GA2031+009609059GA3081+024009049GF108991041051008001021999MA1100311999999MD1710471+9999MW1611REMSYN023333   82626 83632 88458MET006NOSIG?
0118039620999991983010419304+52683-008917FM-15+0020EINN V0201601N00821012001CN0112001N1+00801+00701999999ADDAG12999GA1011+004509079GA2041+007509059GA3081+012009059MA1100201999999MW1611REMMET030TEMPO 6000       ?     5ST008?
0178039620999991983010420004+52683-008917SY-MT+0020EINN V0201501N00571007501CN0150001N1+00801+00751100111ADDAG12999AY161021GA1021+004509079GA2041+007509059GF108991081051004501999999MA1100101999999MD1710641+9999MW1611REMSYN023333   82715 84625 88640MET029TEMPO      ?     6000 5ST008?
0094039620999991983010420304+52683-008917FM-15+0020EINN V0201601N00821007501CN0112001N1+00801+00701999999ADDAG12002GA1031+003609079GA2041+007509059GA3081+012009059MA1099901999999MW1611REMMET006NOSIG?
0171039620999991983010421004+52683-008917SY-MT+0020EINN V0201701N00871006001CN0150001N1+00861+00741099891ADDAG12002AY161031GA1031+003909079GA2051+006009059GA3081+012009059GF108991081051004501999999MA1099801999999MD1710731+9999MW1611REMSYN023333   83713 85620 88640MET006NOSIG?
0094039620999991983010421304+52683-008917FM-15+0020EINN V0201701N00871006001CN0112001N1+00901+00801999999ADDAG12999GA1021+004209079GA2041+006009059GA3081+010509059MA1099701999999MW1611REMMET006NOSIG?
0171039620999991983010422004+52683-008917SY-MT+0020EINN V0201801N00931006001CN0110001N1+00911+00851099711ADDAG12999AY161011GA1021+004509079GA2051+006009059GA3081+008409059GF108991081051004501999999MA1099701999999MD1710681+9999MW1611REMSYN023333   82715 85620 88630MET006NOSIG?
0112039620999991983010422304+52683-008917FM-15+0020EINN V0202001N00611004501CN0080001N1+01001+00901999999ADDAG12999GA1021+003009079GA2051+004509079GA3081+006009059MA1099591999999MW1581REMMET024TEMPO 5ST010     ?     ?
0173039620999991983010423004+52683-008917SY-MT+0020EINN V0202301N00931004201CN0200001N1+01121+01081099691ADDAG12999AY161021GA1021+003009079GA2081+004209079GF108991081061004501999999MA1099591999999MD1610411+9999MW1601REMSYN017333   82710 88714MET030TEMPO 8000 5ST010      ?     ?
0102039620999991983010423304+52683-008917FM-15+0020EINN V0202401N01281004201CN0112001N1+01201+01101999999ADDAG12001GA1031+003009079GA2081+004209079MA1099591999999MW1211REMMET030TEMPO 8000 5ST010      ?     ?
0209039620999991983010500004+52683-008917SY-MT+0020EINN V0202501N01381004201CN0112001N1+01201+01101099711ADDAA106004091AG11001AY161061GA1031+003009079GA2081+004209079GF108991081061004501999999MA1099701999999MD1610171+9999MW1211OA149902111OC102111REMSYN023333   83710 88714 91141MET030TEMPO 8000       ?     5ST010?
0117039620999991983010500304+52683-008917FM-15+0020EINN V0202501N01231005401CN0112001N1+01201+01101999999ADDAG11999GA1031+003609079GA2081+005409079MA1099701999999MW1211OC101951REMMET037TEMPO 8000       ?     5ST010 8ST015?
0193039620999991983010501004+52683-008917SY-MT+0020EINN V0202501N01231220001CN0200001N1+01101+00961099841ADDAG11999AY101011GA1011+005409079GF103991031051004501001001MA1099801999999MD1310121+9999MW1021OA149902011REMSYN017333   81718 91139MET036TEMPO 8000 5ST010 8ST015     ?     ?EQDQ01+000000PRSWM2
0118039620999991983010501304+52683-008917FM-15+0020EINN V0202601N01381009001CN0112001N1+01101+00901999999ADDAG11999GA1041+004509079GA2051+009009059MA1099901999999OC102051REMMET025TEMPO 8000 5ST010 8ST015?EQDQ01+000000PRSWM2
0215039620999991983010502004+52683-008917SY-MT+0020EINN V0202601N01231009001CN0150001N1+01051+00891100061ADDAG11999AY101021GA1041+003609079GA2051+009009059GF107991071061004501999999MA1100001999999MD1310361+9999MW1021OA149902061REMSYN023333   84712 85630 91140MET036TEMPO 8000 5ST010      ?     8ST015?EQDQ01+000000PRSWM2
0121039620999991983010502304+52683-008917FM-15+0020EINN V0202601N00871015001CN0112001N1+01001+00901999999ADDAG12000GA1021+005409079GA2051+015009059MA1100101999999REMMET036TEMPO 8000 5ST010 8ST015     ?     ?EQDQ01+000000PRSWM2
0215039620999991983010503004+52683-008917SY-MT+0020EINN V0202601N00661015001CN0112001N1+00901+00801100151ADDAG12000AY101031GA1021+006009059GA2061+015009059GF107991071051008001999999MA1100101999999MD1110431+9999MW1021OA149901701REMSYN023333   82628 86650 91133MET036TEMPO 8000 5ST010 8ST015     ?     ?EQDQ01+000000PRSWM2
0092039620999991983010503304+52683-008917FM-15+0020EINN V0202501N00511015001CN0112001N1+00901+00701999999ADDAG12999GA1031+006009059GA2051+015009059MA1100201999999REMMET007NO SIG?EQDQ01+000000PRSWM2
0169039620999991983010504004+52683-008917SY-MT+0020EINN V0202501N00361015001CN0250001N1+00901+00821100251ADDAG12999AY101011GA1021+006009059GA2061+015009059GF106991061051008001999999MA1100201999999MD1110411+9999MW1021REMSYN017333   82620 86650MET007NO SIG?EQDQ01+000000PRSWM2
0092039620999991983010504304+52683-008917FM-15+0020EINN V0201501N00251012001CN0112001N1+00901+00801999999ADDAG12999GA1031+006009059GA2071+012009059MA1100201999999REMMET007NO SIG?EQDQ01+000000PRSWM2
0191039620999991983010505004+52683-008917SY-MT+0020EINN V0201901N00311002401CN0120001N1+00811+00771100161ADDAG12999AY151021GA1031+001509079GA2061+002409079GA3081+003609079GF108991081061001501999999MA1100101999999MD1010101+9999MW1501REMSYN023333   83705 86708 88712MET026TEMPO 8000 5ST010 8ST015 ?
0113039620999991983010505304+52683-008917FM-15+0020EINN V0201601N00201002401CN0112001N1+00901+00901999999ADDAG12000GA1031+001509079GA2071+002409079GA3081+003609079MA1100101999999MW1511REMMET025GRADU 8000 5ST010 8ST015?
0204039620999991983010506004+52683-008917SY-MT+0020EINN V0201901N00511002701CN0150001N1+01031+00971100081ADDAA199004091AG10000AY151061GA1051+002709079GA2081+003609079GF108991081061002501999999IA1099IA2999+00709KA1120N+00851MA1100001999999MD1810071+9999MW1201REMSYN029333   20085 31007 85709 88712MET007NO SIG?
0078039620999991983010506304+52683-008917FM-15+0020EINN V0201901N00561003301CN0112001N1+01101+01101999999ADDAG12999GA1041+002409079GA2081+003309079MA1100001999999MW1201REMMET006NOSIG?
0149039620999991983010507004+52683-008917SY-MT+0020EINN V0202001N00671003301CN0150001N1+01201+01091100001ADDAG12999AY161011GA1041+002409079GA2081+003309079GF108991081061002501999999MA1099901999999MD1710251+9999MW1601REMSYN017333   84708 88711MET006NOSIG?
0090039620999991983010507304+52683-008917FM-15+0020EINN V0202001N00511003301CN0090001N1+01101+01101999999ADDAG12999GA1041+002409079GA2081+003309079MA1099901999999MW1611REMMET018GRADU 8000 5ST008?
0168039620999991983010508004+52683-008917SY-MT+0020EINN V0202101N00571003001CN0080001N1+01161+01121099961ADDAG12999AY161021GA1041+002109079GA2081+003009079GF108991081061002501999999MA1099901999999MD1710201+9999MW1631REMSYN017333   84707 88710MET025GRADU 9999 5ST008 8ST012?
0078039620999991983010508304+52683-008917FM-15+0020EINN V0202201N00871002701CN0080001N1+01201+01101999999ADDAG11000GA1041+001809079GA2081+002709079MA1099801999999MW1581REMMET006NOSIG?
0194039620999991983010509004+52683-008917SY-MT+0020EINN V0202201N01031003601CN0200001N1+01251+01121099841ADDAG12001AY161031GA1031+002709079GA2051+003609079GA3081+004809079GF108991081061002501999999MA1099801999999MD1710231+9999MW1201MW2211OA149901651REMSYN029333   83709 85712 88716 91132MET006NOSIG?
0094039620999991983010509304+52683-008917FM-15+0020EINN V0202301N01231003901CN0112001N1+01201+01101999999ADDAG12999GA1031+003309079GA2051+003909079GA3081+005409079MA1099801999999MW1501REMMET006NOSIG?
0209039620999991983010510004+52683-008917SY-MT+0020EINN V0202301N01391007501CN0300001N1+00791+00451099821ADDAG12999AY101011GA1041+003909079GA2081+007509059GF108991081061004501999999MA1099801999999MD1710181+9999MW1021OA149902161REMSYN023333   84713 88625 91142MET030TEMPO 8000 5ST008      ?     ?EQDQ01+000000PRSWM2
0123039620999991983010510304+52683-008917FM-15+0020EINN V0202301N01281004801CN0112001N1+01301+00901999999ADDAG12999GA1051+004809079GA2081+007809059MA1099701999999OC102001REMMET030TEMPO 8000 5ST010      ?     ?EQDQ01+000000PRSWM2
0209039620999991983010511004+52683-008917SY-MT+0020EINN V0202301N01391004801CN0300001N1+01311+00941099771ADDAG12999AY101021GA1051+004809079GA2071+008109059GF107991071061004501999999MA1099701999999MD1610181+9999MW1021OA149902161REMSYN023333   85716 87627 91142MET030TEMPO 8000 5ST010      ?     ?EQDQ01+000000PRSWM2
0104039620999991983010511304+52683-008917FM-15+0020EINN V0202301N01281004801CN0112001N1+01301+00701999999ADDAG12000GA1051+004809079GA2071+008109059MA1099701999999OC101951REMMET011TEMPO 8000?EQDQ01+000000PRSWM2
0201039620999991983010512004+52683-008917SY-MT+0020EINN V0202301N01231005401CN0112001N1+01301+01101099671ADDAA106003091AG12001AY161061GA1051+005409079GA2081+009009059GF108991081061004501999999MA1099591999999MD1810171+9999MW1031OA149902061REMSYN023333   85718 88630 91140MET011TEMPO 8000?EQDQ01+000000PRSWM2
0217039620999991983010513004+52683-008917SY-MT+0020EINN V0202301N01381005101CN0112001N1+01301+01101099641ADDAG11999AY101011GA1051+005109079GA2081+009009059GF108991081061004501999999MA1099591999999MD1610171+9999MW1021OA149902111OC102111REMSYN023333   85717 88630 91141MET030TEMPO 8000 5ST012      ?     ?EQDQ01+000000PRSWM2
0193039620999991983010514004+52683-008917SY-MT+0020EINN V0202201N01541005101CN0112001N1+01401+01001099531ADDAG12999AY101021GA1051+005109079GA2081+009009059GF108991081061004501999999MA1099491999999MD1710241+9999MW1021OA149902321OC102211REMSYN023333   85717 88630 91145MET006NOSIG?EQDQ01+000000PRSWM2
0099039620999991983010514304+52683-008917FM-15+0020EINN V0202301N01641005101CN0112001N1+01301+01101999999ADDAG12000GA1061+005109079GA2081+009009059MA1099491999999OC102311REMMET006NOSIG?EQDQ01+000000PRSWM2
0191039620999991983010515004+52683-008917SY-MT+0020EINN V0202301N01691005101CN0112001N1+01301+01101099481ADDAG12001AY161031GA1061+005109079GA2081+009009059GF108991081061004501999999MA1099391999999MD1710191+9999MW1601OA149902321OA259901751OC102261REMSYN029333   86717 88630 91145 91234MET006NOSIG?
0198039620999991983010516004+52683-008917SY-MT+0020EINN V0202301N01381004501CN0080001N1+01201+01101099501ADDAG12999AY161011GA1061+004509079GA2081+009009059GF108991081061004501999999MA1099491999999MD1510141+9999MW1511OA149902261OA259901701OC102051REMSYN029333   86715 88630 91144 91233MET013TEMPO 5ST008?
0224039620999991983010517004+52683-008917SY-MT+0020EINN V0202301N01281004201CN0080001N1+01301+99999099491ADDAG12999AY151021GA1021+002709079GA2061+004209079GA3081+009009059GF108991081061004501999999MD1510041+9999MW1511OA149901961OC101801REMSYN029333   82709 86714 88630 91138MET0301  994     ?     TEMPO 6ST008?EQDQ01+027423ATOD  
0102039620999991983010517304+52683-008917FM-15+0020EINN V0202301N01281006601CN0112001N1+01301+01101999999ADDAG12000GA1011+003309079GA2031+005109079GA3071+006609059MA1099491999999MW1501OC101801REMMET006NOSIG?
0233039620999991983010518004+52683-008917SY-MT+0020EINN V0202501N01381006601CN0112001N1+01201+01101099591ADDAA199003091AG12000AY161061GA1031+004209079GA2051+006609059GA3071+012009059GF108991081051004501999999KA1120M+01361MA1099491999999MD1310111+9999MW1511OA149902111OC102111REMSYN035333   10136 83714 85622 87640 91141MET013TEMPO 5ST008?
0101039620999991983010518304+52683-008917FM-15+0020EINN V0202301N00921015001CN0112001N1+01101+01001999999ADDAG12999GA1011+004209079GA2031+006609059GA3081+015009059MA1099591999999MW1601REMMET013TEMPO 5ST008?
0187039620999991983010519004+52683-008917SY-MT+0020EINN V0202301N00971015001CN0112001N1+01101+01001099651ADDAG12999AY161011GA1041+004509079GA2081+015009059GF108991081051004501999999GJ100009MA1099591999999MD1310151+9999MW1511OA149901851REMSYN029333   84715 88650 94000 91136MET013TEMPO 5ST008?
0085039620999991983010519304+52683-008917FM-15+0020EINN V0202201N00771015001CN0112001N1+01001+01001999999ADDAG12999GA1031+004209079GA2081+015009059MA1099591999999MW1211REMMET013TEMPO 5ST008?
0173039620999991983010520004+52683-008917SY-MT+0020EINN V0202301N00971006001CN0112001N1+01001+00901099691ADDAG12999AY151021GA1061+006009059GA2071+012009059GF108991081051008001999999MA1099591999999MD1210201+9999MW1201OA149901491REMSYN023333   86620 87640 91129MET013TEMPO 5ST008?
0101039620999991983010520304+52683-008917FM-15+0020EINN V0202301N00871006001CN0112001N1+01101+00901999999ADDAG12001GA1021+004509079GA2051+006009059GA3081+012009059MA1099591999999MW1601REMMET013TEMPO 5ST008?
0156039620999991983010521004+52683-008917SY-MT+0020EINN V0202301N01231006601CN0112001N1+01001+00901099701ADDAG12000AY161031GA1021+004509079GA2071+006609059GF108991081051004501999999MA1099701999999MD1110111+9999MW1581REMSYN017333   82715 87622MET013TEMPO 5ST008?
0101039620999991983010521304+52683-008917FM-15+0020EINN V0202401N00921006601CN0112001N1+00901+00901999999ADDAG12999GA1021+004509079GA2041+006609059GA3081+024009049MA1099701999999MW1581REMMET013TEMPO 5ST008?
0188039620999991983010522004+52683-008917SY-MT+0020EINN V0202501N00721006601CN0112001N1+00901+00801099771ADDAG12999AY161011GA1021+004509079GA2041+006609059GA3081+024009049GF108991051051004501021999MA1099701999999MD1210111+9999MW1211OA149901601REMSYN029333   82715 84622 88458 91131MET006NOSIG?
0102039620999991983010522304+52683-008917FM-15+0020EINN V0202701N00871005701CN0112001N1+00801+00801999999ADDAG12999GA1021+003609079GA2031+005709079GA3051+012009059MA1099801999999MW1611REMMET014TEMPO 5ST015 ?
0188039620999991983010523004+52683-008917SY-MT+0020EINN V0202601N00611004501CN0112001N1+00701+00701099871ADDAG12999AY161021GA1021+002709079GA2051+004509079GA3061+007509059GF108991081061002501999999MA1099801999999MD1210161+9999MW1611OA149901131REMSYN029333   82709 84715 86625 91122MET006NOSIG?
0094039620999991983010523304+52683-008917FM-15+0020EINN V0202501N00561006601CN0112001N1+00701+00701999999ADDAG12002GA1031+004509079GA2041+006609059GA3061+021009049MA1099801999999MW1611REMMET006NOSIG?
0182039620999991983010600004+52683-008917SY-MT+0020EINN V0202601N00511005401CN0112001N1+00701+00601099921ADDAA106002091AG10002AY161061GA1031+003309079GA2041+005409079GA3061+007509059GF108991071051004501021999MA1099901999999MD1210201+9999MW1611REMSYN023333   83711 84718 86625MET006NOSIG?
0112039620999991983010600304+52683-008917FM-15+0020EINN V0202501N00561010501CN0112001N1+00701+00601999999ADDAG11999GA1031+004509079GA2051+010509059GA3081+018009049MA1099901999999MW1611REMMET024GRADU 5CB018     ?     ?
0178039620999991983010601004+52683-008917SY-MT+0020EINN V0202501N00661010501CN0112001N1+00701+00601099931ADDAG12999AY161011GA1021+004509079GA2041+010509059GA3081+018009049GF108991051051004501021999MA1099901999999MD1010151+9999MW1611REMSYN023333   82715 84635 88556MET013GRADU 5CB018?
0101039620999991983010601304+52683-008917FM-15+0020EINN V0202601N00661007501CN0112001N1+00701+00601999999ADDAG12999GA1021+003609079GA2051+007509059GA3081+018009049MA1099901999999MW1611REMMET013GRADU 5CB018?
0178039620999991983010602004+52683-008917SY-MT+0020EINN V0202701N00821006001CN0112001N1+00601+00501099981ADDAG12999AY161021GA1021+003609079GA2061+006009059GA3081+015009059GF108991051051004501999999MA1099901999999MD1110111+9999MW1611REMSYN023333   82712 86620 88650MET013GRADU 5CB018?
0078039620999991983010602304+52683-008917FM-15+0020EINN V0202701N00661005401CN0112001N1+00601+00501999999ADDAG12002GA1021+003609079GA2081+005409079MA1100001999999MW1611REMMET006NOSIG?
0149039620999991983010603004+52683-008917SY-MT+0020EINN V0202601N00721004501CN0112001N1+00601+00501100021ADDAG12002AY161031GA1021+003309079GA2081+004509079GF108991081061004501999999MA1100001999999MD1110101+9999MW1611REMSYN017333   82711 88715MET006NOSIG?
0086039620999991983010603304+52683-008917FM-15+0020EINN V0202601N00821004501CN0112001N1+00601+00401999999ADDAG12999GA1021+003309079GA2081+004509079MA1100001999999MW1611OC101441REMMET006NOSIG?
0166039620999991983010604004+52683-008917SY-MT+0020EINN V0202701N00611004501CN0112001N1+00501+00401100091ADDAG12999AY161011GA1021+003309079GA2081+004509079GF108991081061004501999999MA1100001999999MD1210161+9999MW1611OA149901541REMSYN023333   82711 88715 91130MET006NOSIG?
0078039620999991983010604304+52683-008917FM-15+0020EINN V0202501N00871004501CN0112001N1+00601+00301999999ADDAG12999GA1021+003009079GA2081+004509079MA1100001999999MW1611REMMET006NOSIG?
0174039620999991983010605004+52683-008917SY-MT+0020EINN V0202701N01021004501CN0112001N1+00501+00301100141ADDAG12999AY161021GA1021+003009079GA2081+004509079GF108991081061004501999999MA1100101999999MD1210161+9999MW1611OA149901651OC101541REMSYN023333   82710 88715 91132MET006NOSIG?
0078039620999991983010605304+52683-008917FM-15+0020EINN V0202401N00821004501CN0112001N1+00601+00401999999ADDAG12002GA1021+003009079GA2081+004509079MA1100101999999MW1611REMMET006NOSIG?
0154039620999991983010606004+52683-008917SY-MT+0020EINN V0202601N00821004501CN0112001N1+00601+00301100211ADDAA199006091AG10002AY161061GA1021+003009079GA2081+004509079GF108991081061004501999999MA1100201999999MD1210191+9999MW1611OC101491REMSYN003333MET006NOSIG?
0221039620999991983010607004+52683-008917SY-MT+0020EINN V0202901N00871007501CN0112001N1+00501+00201100381ADDAG12999AY161011GA1021+003909079GA2031+007509059GA3081+024009049GF108991041051004501071999MA1100311999999MD1310291+9999MW1601OA149901701OC101381REMSYN029333   82713 83625 88458 91133MET031GRADU      ?     3CU020 5SC030?
0192039620999991983010608004+52683-008917SY-MT+0020EINN V0202701N00771009001CN0112001N1+00401+00201100451ADDAG12999AY161021GA1031+004509079GA2081+009009059GF108991081051004501999999MA1100411999999MD1210311+9999MW1581OA149901341OC101331REMSYN023333   83715 88630 91126MET024TEMPO 5CB018     ?     ?
0078039620999991983010608304+52683-008917FM-15+0020EINN V0202501N00721005401CN0112001N1+00501+00101999999ADDAG12001GA1051+005409099GA2051+015009059MA1100411999999MW1871REMMET006NOSIG?
0144039620999991983010609004+52683-008917SY-MT+0020EINN V0202501N00721220001CN0112001N1+00501-00101100521ADDAG12002AY181031GA1021+005409099GF103991031031004501001021MA1100511999999MD1110311+9999MW1271OA149901491REMSYN017333   82918 91129MET006NOSIG?
0144039620999991983010610004+52683-008917SY-MT+0020EINN V0202601N00661005401CN0112001N1+00501+00201100631ADDAG12999AY181011GA1051+005409099GF105991051091004501001011MA1100611999999MD1210251+9999MW1271OA149901291REMSYN017333   85918 91125MET006NOSIG?
0163039620999991983010611004+52683-008917SY-MT+0020EINN V0202501N00871220001CN0112001N1+00501+00001100741ADDAG12999AY181021GA1011+005409099GF102991021031004501001001MA1100711999999MD1210291+9999MW1271OA149901441REMSYN017333   81918 91128MET006NOSIG?EQDQ01+000000PRSWM2
0083039620999991983010611304+52683-008917FM-15+0020EINN V0202601N00821220001CN0112001N1+00601-00101999999ADDAG12000GA1011+006009099MA1100711999999OC101381REMMET006NOSIG?EQDQ01+000000PRSWM2
0182039620999991983010612004+52683-008917SY-MT+0020EINN V0202501N00921220001CN0112001N1+00601-00101100811ADDAA106000391AG10002AY181061GA1011+006009099GF102991021091008001001001MA1100811999999MD1210291+9999MW1021OA149901701OC101691REMSYN017333   81920 91133MET006NOSIG?EQDQ01+000000PRSWM2
0184039620999991983010613004+52683-008917SY-MT+0020EINN V0202601N00771006001CN0112001N1+00401+00201100871ADDAG12999AY181011GA1021+003609099GA2041+006009099GF105991051091004501999999MA1100811999999MD1210241+9999MW1251OA149902371REMSYN041333   82912 84920 91146 97283 97383 97483MET006NOSIG?
0199039620999991983010614004+52683-008917SY-MT+0020EINN V0202601N00771006001CN0112001N1+00401+00201100931ADDAG12999AY181021GA1021+004209079GA2031+006009099GA3051+054009009GF107991051031004501999031MA1100911999999MD1310191+9999MW1271OA149901901REMSYN035333   82714 83920 85068 91137 99720MET011TEMPO 8000?
0177039620999991983010615004+52683-008917SY-MT+0020EINN V0202501N01021006001CN0112001N1+00401+00101100931ADDAG12002AY181031GA1021+004509079GA2031+006009099GF105991041031004501001031MA1100911999999MD1110121+9999MW1251OA149901541REMSYN029333   82715 83920 91130 99720MET011TEMPO 8000?
0083039620999991983010615304+52683-008917FM-15+0020EINN V0202401N00971220001CN0112001N1+00401+00201999999ADDAG12999GA1011+004509079GA2021+006009099MA1100911999999MW1251REMMET011TEMPO 8000?
0166039620999991983010616004+52683-008917SY-MT+0020EINN V0202401N01021006001CN0112001N1+00401+00201100981ADDAG12999AY181011GA1031+004509079GA2041+006009099GF106991061031004501999031MA1100911999999MD1310111+9999MW1871REMSYN029333   83715 84920 97180 99720MET011TEMPO 8000?
0177039620999991983010617004+52683-008917SY-MT+0020EINN V0202401N00821006001CN0112001N1+00401+00201101051ADDAG12999AY181021GA1021+004509079GA2051+006009099GF106991061031004501999031MA1101021999999MD1310121+9999MW1271OA149901491REMSYN029333   82715 85920 99720 91129MET011TEMPO 8000?
0091039620999991983010617304+52683-008917FM-15+0020EINN V0202301N00721006601CN0112001N1+00401+00201999999ADDAG12000GA1021+004809079GA2041+006609099MA1101021999999REMMET006NOSIG?EQDQ01+000000PRSWM2
0214039620999991983010618004+52683-008917SY-MT+0020EINN V0202601N00611006001CN0112001N1+00301+00201101161ADDAA199004091AG10001AY181061GA1031+003909079GA2071+006009099GF107991071031004501999999KA1120M+00601MA1101081999999MD1210231+9999MW1871OA149901131OC101131REMSYN035333   10060 83713 87920 99720 91122MET010TEMPO8000?
0083039620999991983010618304+52683-008917FM-15+0020EINN V0202601N00461220001CN0112001N1+00301+00101999999ADDAG12999GA1011+003909079GA2031+006009099MA1101081999999MW1271REMMET011TEMPO 8000?
0199039620999991983010619004+52683-008917SY-MT+0020EINN V0202601N00921006001CN0112001N1+00401+00101101211ADDAG12999AY181011GA1031+004209079GA2061+006009099GF107991071031004501999999GJ101509MA1101191999999MD1210231+9999MW1871OA149901961OC101441REMSYN035333   83714 86920 94025 91138 99720MET011TEMPO 8000?
0078039620999991983010619304+52683-008917FM-15+0020EINN V0202601N00461006601CN0112001N1+00301+00101999999ADDAG12999GA1021+004509079GA2051+006609099MA1101191999999MW1271REMMET006NOSIG?
0172039620999991983010620004+52683-008917SY-MT+0020EINN V0202501N00661220001CN0112001N1+00301+00101101281ADDAG12999AY181021GA1011+005109079GA2031+006609099GF103991031031004501001001MA1101191999999MD1210231+9999MW1271OA149901701REMSYN029333   81717 83922 99720 91133MET006NOSIG?
0091039620999991983010620304+52683-008917FM-15+0020EINN V0202601N00871006001CN0112001N1+00401+00101999999ADDAG12001GA1021+003909079GA2071+006009099MA1101291999999MW1871OC101901REMMET011TEMPO 8000?
0172039620999991983010621004+52683-008917SY-MT+0020EINN V0202401N01021006601CN0112001N1+00401+00201101341ADDAG12002AY181031GA1021+004509079GA2041+006609099GF106991061031004501999999MA1101291999999MD1210181+9999MW1271OA149901901REMSYN029333   82715 84922 99720 91137MET006NOSIG?
0091039620999991983010621304+52683-008917FM-15+0020EINN V0202501N00871220001CN0112001N1+00401+00201999999ADDAG12999GA1011+004509079GA2041+006609099MA1101291999999REMMET006NOSIG?EQDQ01+000000PRSWM2
0166039620999991983010622004+52683-008917SY-MT+0020EINN V0202501N00821006001CN0112001N1+00501+00201101451ADDAG12999AY181011GA1031+003909079GA2051+006009099GF107991071031004501999999MA1101391999999MD1210241+9999MW1801OA149901601REMSYN023333   83713 85920 91131MET006NOSIG?
0078039620999991983010622304+52683-008917FM-15+0020EINN V0202501N00661220001CN0112001N1+00401+00201999999ADDAG12999GA1011+003909079GA2031+006009099MA1101391999999MW1251REMMET006NOSIG?
0172039620999991983010623004+52683-008917SY-MT+0020EINN V0202701N00921006001CN0112001N1+00401+00101101481ADDAG12999AY181021GA1021+003909079GA2041+006009099GF105991051031004501001001MA1101391999999MD1210201+9999MW1871OA149901851REMSYN029333   82713 84920 91136 99720MET006NOSIG?
0062039620999991983010623304+52683-008917FM-15+0020EINN V0202501N00721220001CN0112001N1+00401+00001999999ADDAG12002GA1031+006009099MA1101491999999MW1271REMMET006NOSIG?
0075039620999991983010700004+52683-008917FM-12+0020EINN V0202601N00621220001CN0150001N9+00421+00021101521ADDAA106002091AG10002AY181061GF103991031031008001001001MD1210181+9999MW1271
0091039620999991983010700304+52683-008917FM-15+0020EINN V0202301N00721015001CN0112001N1+00501+00201999999ADDAG11999GA1021+006009099GA2071+015009059MA1101491999999REMMET006NOSIG?EQDQ01+000000PRSWM2
0196039620999991983010701004+52683-008917SY-MT+0020EINN V0202601N00721012001CN0112001N1+00401+00201101601ADDAG12999AY181011GA1041+006009099GA2051+012009059GF107991071031008001999999MA1101491999999MD1310151+9999MW1271OA149902161REMSYN029333   84920 85640 91142 99720MET030TEMPO 5000 6CB015      ?     ?
0102039620999991983010701304+52683-008917FM-15+0020EINN V0202601N00771015001CN0112001N1+00501+00201999999ADDAG12999GA1031+006009099GA2051+015009059MA1101491999999MW1271REMMET030TEMPO 5000 6CB015      ?     ?
0156039620999991983010702004+52683-008917SY-MT+0020EINN V0202401N01131220001CN0112001N1+00501+00301101581ADDAG12999AY181021GA1031+006009099GF103991031031008001001001MA1101491999999MD1010101+9999MW1251OA149901751REMSYN017333   83920 91134MET018TEMPO 5000 6CB015?
0074039620999991983010702304+52683-008917FM-15+0020EINN V0202401N01021006001CN0112001N1+00501+00301999999ADDAG12002GA1071+006009099MA1101491999999MW1801REMMET018TEMPO 5000 6CB015?
0162039620999991983010703004+52683-008917SY-MT+0020EINN V0202601N00721006001CN0112001N1+00501+00301101611ADDAG12002AY181031GA1071+006009099GF107991071031008001999999MA1101591999999MD1310091+9999MW1801OA149901491REMSYN023333   87920 91129 99720MET018TEMPO 5000 6CB015?
0078039620999991983010703304+52683-008917FM-15+0020EINN V0202201N00561006601CN0112001N1+00401+00301999999ADDAG11999GA1021+003609079GA2081+006609099MA1101591999999MW1871REMMET006NOSIG?
0127039620999991983010704004+52683-008917SY-MT+0020EINN V0202901N00461220001CN0112001N1+00301+00201101651ADDAG12999AY181011GA1011+006009099GF102991011031008001001021MA1101591999999MD1310051+9999MW1271REMSYN011333   81920MET006NOSIG?
0062039620999991983010704304+52683-008917FM-15+0020EINN V0202301N00511220001CN0112001N1+00301+00201999999ADDAG12999GA1011+006009099MA1101591999999MW1271REMMET006NOSIG?
0161039620999991983010705004+52683-008917SY-MT+0020EINN V0202301N00461006601CN0112001N1+00401+00201101671ADDAG12999AY181021GA1021+004509079GA2081+006609099GF108991081091004501999999MA1101591999999MD1210091+9999MW1801REMSYN029333   82715 88922 91329 91321MET006NOSIG?
0078039620999991983010705304+52683-008917FM-15+0020EINN V0202601N00661015001CN0112001N1+00501+00301999999ADDAG12002GA1031+006009099GA2041+015009059MA1101591999999MW1251REMMET006NOSIG?
0226039620999991983010706004+52683-008917SY-MT+0020EINN V0202401N00561015001CN0112001N1+00601+00401101681ADDAA199007091AG10002AY181061GA1031+006009099GA2041+015009059GF107991071031008001999999IA1119IA2999+00009KA1120N+00241MA1101591999999MD1210071+9999MW1271OA149901491REMSYN041333   20024 32000 83920 84650 91129 99720MET006NOSIG?
0168039620999991983010707004+52683-008917SY-MT+0020EINN V0202401N00921015001CN0112001N1+00601+00301101691ADDAG12999AY101011GA1031+006009099GA2041+015009059GF106991061031008001999999MA1101591999999MD1210041+9999MW1021REMSYN017333   83920 84650MET006NOSIG?EQDQ01+000000PRSWM2
0091039620999991983010707304+52683-008917FM-15+0020EINN V0202401N01021015001CN0112001N1+00601+00301999999ADDAG12999GA1031+006009099GA2051+015009059MA1101691999999REMMET006NOSIG?EQDQ01+000000PRSWM2
0168039620999991983010708004+52683-008917SY-MT+0020EINN V0202501N00971015001CN0112001N1+00601+00301101751ADDAG12999AY101021GA1021+006009099GA2051+015009059GF106991061031008001999999MA1101691999999MD1310081+9999MW1021REMSYN017333   82920 85650MET006NOSIG?EQDQ01+000000PRSWM2
0078039620999991983010708304+52683-008917FM-15+0020EINN V0202501N00821005401CN0112001N1+00501+00301999999ADDAG12002GA1051+005409099GA2031+015009059MA1101801999999MW1801REMMET006NOSIG?
0166039620999991983010709004+52683-008917SY-MT+0020EINN V0202801N00251005401CN0112001N1+00601+00501101841ADDAG12002AY181031GA1021+003009079GA2051+005409099GF107991071031004501999999MA1101801999999MD1310161+9999MW1801OA149902011REMSYN023333   82710 85918 91139MET006NOSIG?
0078039620999991983010709304+52683-008917FM-15+0020EINN V0202701N00511220001CN0112001N1+00601+00401999999ADDAG12999GA1011+002409079GA2031+005409099MA1101801999999MW1251REMMET006NOSIG?
0190039620999991983010710004+52683-008917SY-MT+0020EINN V0202501N00771220001CN0112001N1+00701+00301101841ADDAG12999AY181011GA1011+003009079GA2021+005409099GA3031+015009059GF104991041031004501999001MA1101801999999MD1210151+9999MW1251REMSYN023333   81710 82918 83650MET006NOSIG?EQDQ01    003SCOMCG
0107039620999991983010710304+52683-008917FM-15+0020EINN V0202401N00821015001CN0112001N1+00701+00401999999ADDAG12999GA1011+003009079GA2031+005409099GA3041+015009059MA1101801999999REMMET006NOSIG?EQDQ01+000000PRSWM2
0193039620999991983010711004+52683-008917SY-MT+0020EINN V0202201N00511003901CN0112001N1+00601+00401101801ADDAG12999AY181021GA1021+002709079GA2041+003909099GA3051+015009059GF107991071031002501999999MA1101691999999MD1010051+9999MW1801REMSYN029333   82709 84913 85650 97284MET022TEMP       ?     8000?
0218039620999991983010712004+52683-008917SY-MT+0020EINN V0202401N00621060001CN0250001N1+00521+00471101831ADDAA106004091AG10002AY181061GA1011+002709079GA2021+005409099GA3041+060009009GF106991031031002501071021MA1101801999999MD1510011+9999MW1251OA149902111REMSYN029333   81709 82918 84070 91141MET025TEMPO 8000 3ST006 6CB012?
0120039620999991983010712304+52683-008917FM-15+0020EINN V0202401N00661004501CN0090001N1+00601+00601999999ADDAG12999GA1021+002409079GA2031+004509099GA3051+024009049MA1101691999999MW1951REMMET032TEMPO 6000 96TSGR 3ST006 6CB012?
0213039620999991983010713004+52683-008917FM-15+0020EINN V0202901N00871004201CN0112001N1+00501+00401101851ADDAG12999AY191011GA1021+002409079GA2031+004209099GA3031+010509059GF107991061091002501999031MA1101801999999MD1310011+9999MW1291OA149901441REMSYN047333   82708 83914 83635 90862 99720 91128 91324MET013TEMPO 96TSGR?
0210039620999991983010714004+52683-008917SY-MT+0020EINN V0202701N00511005401CN0112001N1+00601+00501101841ADDAG12999AY181021GA1031+003909079GA2031+005409099GA3051+036009049GF107991061031004501071999MA1101801999999MD1110041+9999MW1251OA149901131REMSYN029333   83713 83918 85462 91122MET028TEMPO 6000 TS 3ST006 6CB012?
0110039620999991983010715004+52683-008917SY-MT+0020EINN V0202601N00661220001CN0112001N1+00501+00401101891ADDAG12002AY191031GA1011+005409099GF102991011031004501061001MA1101801999999MD1310061+9999MW1271REMMET006NOSIG?
0070039620999991983010715304+52683-008917FM-15+0020EINN V0202601N00721220001CN0112001N1+00601+00401999999ADDAG12999GA1021+005409099MA1101801999999MW1251OC101281REMMET006NOSIG?
0163039620999991983010716004+52683-008917SY-MT+0020EINN V0202601N00661220001CN0112001N1+00601+00301101901ADDAG12999AY101011GA1021+005409099GF103991021091004501071001MA1101801999999MD1110051+9999MW1021OA149901291REMSYN017333   82918 91125MET006NOSIG?EQDQ01+000000PRSWM2
0146039620999991983010717004+52683-008917SY-MT+0020EINN V0202501N00611220001CN0112001N1+00601+00401101931ADDAG12999AY101021GA1021+005409099GF102991021031004501031001MA1101901999999MD1210091+9999MW1021REMSYN011333   82918MET006NOSIG?EQDQ01+000000PRSWM2
0062039620999991983010717304+52683-008917FM-15+0020EINN V0202501N00611006001CN0112001N1+00601+00501999999ADDAG12002GA1071+006009099MA1101901999999MW1801REMMET006NOSIG?
0192039620999991983010718004+52683-008917SY-MT+0020EINN V0202701N00661006001CN0112001N1+00601+00401102041ADDAA199010091AG10002AY191061GA1071+006009099GF107991071031008001999999KA1120M+00681MA1102001999999MD1310151+9999MW1801OA149901851REMSYN041333   10068 87920 99720 99238 99239 91136MET006NOSIG?
0062039620999991983010718304+52683-008917FM-15+0020EINN V0202601N00561006001CN0112001N1+00501+00401999999ADDAG12999GA1061+006009099MA1102101999999MW1251REMMET006NOSIG?
0146039620999991983010719004+52683-008917SY-MT+0020EINN V0202401N00301006001CN0112001N1+00501+00401102161ADDAG12999AY181011GA1071+006009099GF107991071031008001999999GJ100129MA1102101999999MD1210261+9999MW1801REMSYN017333   87920 94002MET011TEMPO 8000?
0062039620999991983010719304+52683-008917FM-15+0020EINN V0202601N00411006001CN0112001N1+00501+00401999999ADDAG12999GA1071+006009099MA1102101999999MW1251REMMET006NOSIG?
0150039620999991983010720004+52683-008917SY-MT+0020EINN V0203001N00661005401CN0112001N1+00301+00301102291ADDAG12999AY181021GA1071+005409099GF107991071031004501999999MA1102201999999MD1210361+9999MW1801OA149901441REMSYN023333   87918 91128 99720MET006NOSIG?
0062039620999991983010720304+52683-008917FM-15+0020EINN V0202701N00361006001CN0112001N1+00401+00301999999ADDAG12002GA1061+006009099MA1102301999999MW1271REMMET006NOSIG?
0133039620999991983010721004+52683-008917SY-MT+0020EINN V0202901N00461005401CN0112001N1+00501+00301102401ADDAG12002AY181031GA1081+005409099GF108991081031004501999999MA1102301999999MD1210361+9999MW1801REMSYN017333   88918 99720MET006NOSIG?
0062039620999991983010721304+52683-008917FM-15+0020EINN V0202701N00411220001CN0112001N1+00401+00301999999ADDAG12999GA1031+006009099MA1102401999999MW1251REMMET006NOSIG?
0127039620999991983010722004+52683-008917SY-MT+0020EINN V0202401N00411220001CN0112001N1+00401+00301102471ADDAG12999AY181011GA1031+006009099GF103991031031008001001001MA1102401999999MD1210311+9999MW1251REMSYN011333   83920MET006NOSIG?
0075039620999991983010722304+52683-008917FM-15+0020EINN V0202601N00411220001CN0112001N1+00501+00301999999ADDAG12999GA1011+006009099MA1102511999999REMMET006NOSIG?EQDQ01+000000PRSWM2
0127039620999991983010723004+52683-008917SY-MT+0020EINN V0202701N00411006001CN0112001N1+00501+00301102571ADDAG12999AY181021GA1051+006009099GF105991051031008001001001MA1102511999999MD1210281+9999MW1801REMSYN011333   85920MET006NOSIG?
0062039620999991983010723304+52683-008917FM-15+0020EINN V0202901N00461220001CN0112001N1+00501+00201999999ADDAG12002GA1011+006009099MA1102611999999MW1251REMMET006NOSIG?
0163039620999991983010800004+52683-008917SY-MT+0020EINN V0202801N00561220001CN0112001N1+00501+00301102661ADDAA106003091AG10002AY181061GA1011+006009099GF101991011031008001001001MA1102611999999MD1210261+9999MW1251REMSYN017333   81920 99720MET006NOSIG?EQDQ01+000000PRSWM2
0075039620999991983010800304+52683-008917FM-15+0020EINN V0202801N00461220001CN0112001N1+00501+00001999999ADDAG11999GA1011+006009099MA1102611999999REMMET006NOSIG?EQDQ01+000000PRSWM2
0146039620999991983010801004+52683-008917SY-MT+0020EINN V0202801N00461220001CN0112001N1+00401+00301102781ADDAG11999AY101011GA1011+006009099GF101991011031008001001001MA1102711999999MD1210311+9999MW1021REMSYN011333   81920MET006NOSIG?EQDQ01+000000PRSWM2
0062039620999991983010801304+52683-008917FM-15+0020EINN V0203001N00461220001CN0112001N1+00501+00301999999ADDAG11999GA1031+006009099MA1102811999999MW1251REMMET006NOXIG?
0146039620999991983010802004+52683-008917SY-MT+0020EINN V0202901N00411220001CN0112001N1+00401+00301102851ADDAG12999AY181021GA1021+006009099GF102991021031008001001001MA1102811999999MD1110281+9999MW1251REMSYN011333   82920MET006NOSIG?EQDQ01+000000PRSWM2
0075039620999991983010802304+52683-008917FM-15+0020EINN V0202801N00461220001CN0112001N1+00401+00301999999ADDAG12000GA1011+006009099MA1102811999999REMMET006NOSIG?EQDQ01+000000PRSWM2
0146039620999991983010803004+52683-008917SY-MT+0020EINN V0202901N00411220001CN0112001N1+00301+00201102911ADDAG12002AY181031GA1011+006009099GF101991011031008001001001MA1102911999999MD1110251+9999MW1011REMSYN011333   81920MET006NOSIG?EQDQ01+000000PRSWM2
0075039620999991983010803304+52683-008917FM-15+0020EINN V0202501N00361220001CN0112001N1+00401+00201999999ADDAG12999GA1011+012009059MA1102911999999REMMET006NOSIG?EQDQ01+000000PRSWM2
0146039620999991983010804004+52683-008917SY-MT+0020EINN V0202501N00201220001CN0112001N1+00401+00301102951ADDAG11999AY101011GA1021+012009059GF102991021051012501001001MA1102911999999MD1210171+9999MW1021REMSYN011333   82640MET006NOSIG?EQDQ01+000000PRSWM2
0091039620999991983010804304+52683-008917FM-15+0020EINN V0202001N00201220001CN0112001N1+00401+00301999999ADDAG12999GA1011+012009059GA2041+024009039MA1102911999999REMMET006NOSIG?EQDQ01+000000PRSWM2
0168039620999991983010805004+52683-008917SY-MT+0020EINN V0202001N00201220001CN0112001N1+00401+00201103001ADDAG11999AY101021GA1011+012009059GA2031+024009039GF103991011051012501031001MA1102911999999MD1210151+9999MW1021REMSYN017333   81640 83358MET006NOSIG?EQDQ01+000000PRSWM2
0078039620999991983010805304+52683-008917FM-15+0020EINN V0202101N00361012001CN0112001N1+00501+00301999999ADDAG12002GA1021+006009089GA2041+012009059MA1103011999999MW1251REMMET006NOSIG?
0181039620999991983010806004+52683-008917SY-MT+0020EINN V0202101N00361220001CN0112001N1+00401+00301103061ADDAA199003091AG10002AY181061GA1011+006009089GF101991011081008001001001IA1099IA2999+00009KA1120N+00291MA1103011999999MD1210151+9999MW1251REMSYN023333   20029 31100 81820MET006NOSIG?
0062039620999991983010806304+52683-008917FM-15+0020EINN V0202101N00361220001CN0112001N1+00401+00301999999ADDAG12999GA1011+006009089MA1103011999999MW1251REMMET006NOSIG?
0146039620999991983010807004+52683-008917SY-MT+0020EINN V0202101N00361220001CN0112001N1+00401+00201103081ADDAG12999AY181011GA1011+006009089GF101991011021008001001001MA1103011999999MD1110131+9999MW1251REMSYN011333   81820MET006NOSIG?EQDQ01+000000PRSWM2
0075039620999991983010807304+52683-008917FM-15+0020EINN V0202101N00411220001CN0112001N1+00401+00201999999ADDAG12999GA1011+006009089MA1103011999999REMMET006NOSIG?EQDQ01+000000PRSWM2
0184039620999991983010808004+52683-008917SY-MT+0020EINN V0202101N00411220001CN0112001N1+00401+00201103051ADDAG12999AY101021GA1011+006009089GA2031+015009059GF103991031081008001999001MA1103011999999MD1010051+9999MW1021REMSYN017333   81820 83650MET006NOSIG?EQDQ01+000000PRSWM2Q02    003SCOMCG
0107039620999991983010808304+52683-008917FM-15+0020EINN V0201901N00511030001CN0112001N1+00501+00201999999ADDAG12000GA1011+006009089GA2031+013509059GA3051+030009049MA1103011999999REMMET006NOSIG?EQDQ01+000000PRSWM2
0190039620999991983010809004+52683-008917SY-MT+0020EINN V0201901N00511013501CN0112001N1+00501+00301103041ADDAG12002AY181031GA1021+006009089GA2031+013509059GA3051+075009029GF107991041081008001031061MA1103011999999MD1810021+9999MW1031REMSYN023333   82820 83645 85275MET006NOSIG?EQDQ01+000000PRSWM2
0190039620999991983010810004+52683-008917SY-MT+0020EINN V0201901N00511030001CN0112001N1+00501+00301103001ADDAG12999AY101011GA1011+006009089GA2031+013509059GA3071+030009049GF107991021081008001071001MA1102911999999MD1810081+9999MW1021REMSYN023333   81820 83645 87460MET006NOSIG?EQDQ01+000000PRSWM2
0190039620999991983010811004+52683-008917SY-MT+0020EINN V0201701N00511030001CN0112001N1+00601+00401102971ADDAG12999AY101021GA1011+006009089GA2031+013509059GA3051+030009049GF108991031081008001071061MA1102911999999MD1810081+9999MW1021REMSYN023333   81820 83645 85460MET006NOSIG?EQDQ01+000000PRSWM2
0107039620999991983010811304+52683-008917FM-15+0020EINN V0201701N00611060001CN0112001N1+00701+00401999999ADDAG12000GA1011+005109079GA2041+030009049GA3081+060009029MA1102911999999REMMET006NOSIG?EQDQ01+000000PRSWM2
0201039620999991983010812004+52683-008917SY-MT+0020EINN V0201801N00561060001CN0112001N1+00701+00501102941ADDAA106999929AG12002AY181061GA1011+005109079GA2041+030009049GA3081+060009029GF108991011051004501071071MA1102911999999MD1710101+9999MW1021REMSYN023333   81717 84460 88270MET006NOSIG?EQDQ01+000000PRSWM2
0190039620999991983010813004+52683-008917SY-MT+0020EINN V0201701N00511030001CN0112001N1+00801+00501102811ADDAG11999AY101011GA1031+006009059GA2031+030009049GA3081+060009029GF108991031051008001071071MA1102811999999MD1710181+9999MW1021REMSYN023333   83620 83460 88270MET006NOSIG?EQDQ01+000000PRSWM2
0107039620999991983010813304+52683-008917FM-15+0020EINN V0202001N00661060001CN0112001N1+00801+00701999999ADDAG12999GA1011+006009059GA2031+030009049GA3081+060009029MA1102611999999REMMET006NOSIG?EQDQ01+000000PRSWM2
0190039620999991983010814004+52683-008917SY-MT+0020EINN V0202001N00561015001CN0112001N1+00901+00501102641ADDAG12999AY101021GA1021+009009059GA2061+015009059GA3081+036009049GF108991071051012501071999MA1102611999999MD1810321+9999MW1021REMSYN023333   82630 86650 88462MET006NOSIG?EQDQ01+000000PRSWM2
0171039620999991983010815004+52683-008917SY-MT+0020EINN V0202001N00661010501CN0112001N1+00901+00701102561ADDAG12000AY151031GA1011+002709079GA2061+010509059GA3061+027009049GF107991061051002501071999MA1102511999999MD1710371+9999MW1201REMSYN023333   81709 86635 86459MET006NOSIG?
0094039620999991983010815304+52683-008917FM-15+0020EINN V0202101N00921010501CN0112001N1+00901+00601999999ADDAG12999GA1011+005409079GA2051+010509059GA3051+075009009MA1102511999999MW1201REMMET006NOSIG?
0204039620999991983010816004+52683-008917SY-MT+0020EINN V0202101N00921009001CN0112001N1+00901+00601102441ADDAG12999AY101011GA1011+004209079GA2061+009009059GF107991071051004501999021MA1102401999999MD1710371+9999MW1021OA149901491REMSYN023333   81715 86630 91129MET025GRADU 5000 4ST006 8ST010?EQDQ01+000000PRSWM2
0166039620999991983010817004+52683-008917SY-MT+0020EINN V0202101N00721009001CN0112001N1+00901+00701102381ADDAG12999AY151021GA1031+003609079GA2051+009009059GF107991061061004501999021MA1102301999999MD1710261+9999MW1201OA149901341REMSYN023333   83712 85630 91126MET006NOSIG?
0091039620999991983010817304+52683-008917FM-15+0020EINN V0202001N00771012001CN0112001N1+00901+00701999999ADDAG12000GA1041+004509079GA2041+012009059MA1102201999999REMMET006NOSIG?EQDQ01+000000PRSWM2
0215039620999991983010818004+52683-008917SY-MT+0020EINN V0202101N00921012001CN0112001N1+00901+00601102291ADDAA199000191AG10000AY151061GA1021+005409089GA2051+012009059GF106991061081004501999999KA1120M+00931MA1102201999999MD1710271+9999MW1011OA149901601REMSYN029333   10093 82818 85640 91131MET006NOSIG?EQDQ01+000000PRSWM2
0091039620999991983010818304+52683-008917FM-15+0020EINN V0202101N00921012001CN0112001N1+00901+00601999999ADDAG12999GA1031+004509079GA2051+012009059MA1102101999999REMMET006NOSIG?EQDQ01+000000PRSWM2
0207039620999991983010819004+52683-008917SY-MT+0020EINN V0202201N01021015001CN0112001N1+00901+00601102161ADDAG12999AY101011GA1021+005409079GA2061+015009059GF107991071051004501999999GJ100009MA1102101999999MD1710281+9999MW1021OA149901651OC101541REMSYN029333   82718 86650 91132 94000MET006NOSIG?EQDQ01+000000PRSWM2
0118039620999991983010819304+52683-008917FM-15+0020EINN V0202301N01231006601CN0112001N1+00901+00601999999ADDAG12999GA1021+005409079GA2061+006609059GA3081+012009059MA1102101999999MW1601REMMET030TEMPO 8000       ?     5ST008?
0219039620999991983010820004+52683-008917SY-MT+0020EINN V0202301N01281007801CN0112001N1+00901+00701102151ADDAG12999AY161021GA1021+004509079GA2041+007809059GA3081+015009059GF108991051051004501021999MA1102101999999MD1610231+9999MW1611OA149901851OC101801REMSYN029333   82715 84626 88550 91136MET029TEMPO      ?     8000 5ST010?
0110039620999991983010820304+52683-008917FM-15+0020EINN V0202301N01331007501CN0112001N1+00901+00801999999ADDAG12002GA1051+007509059GA2081+012009049MA1102101999999MW1611OC101851REMMET030TEMPO 8000       ?     5ST010?
0190039620999991983010821004+52683-008917SY-MT+0020EINN V0202301N01341007801CN0200001N1+00941+00801102101ADDAG12002AY161031GA1051+007809059GA2081+012009049GF108991051051004501021999MA1102001999999MD1610191+9999MW1611OA149902061REMSYN023333   85626 88540 91140MET030TEMPO 8000       ?     5ST010?
0091039620999991983010821304+52683-008917FM-15+0020EINN V0202301N01441007501CN0112001N1+01001+00801999999ADDAG12999GA1061+007509059GA2071+024009049MA1102001999999MW1211OC101951REMMET011TEMPO 8000?
0191039620999991983010822004+52683-008917SY-MT+0020EINN V0202401N01381007501CN0112001N1+01001+00801102051ADDAG12999AY161011GA1031+005409079GA2051+007509059GF106991061051004501999999MA1102001999999MD1810111+9999MW1601OA149902111OA259901541OC102051REMSYN029333   83718 85625 91141 91230MET006NOSIG?
0106039620999991983010822304+52683-008917FM-15+0020EINN V0202501N01021004501CN0060001N1+01001+00801999999ADDAG12999GA1061+004509079GA2081+007509059MA1102001999999MW1601OC101691REMMET026GRADU 10         ?     KM?
0193039620999991983010823004+52683-008917SY-MT+0020EINN V0202601N01081003001CN0090001N1+01001+00901102111ADDAG12999AY161021GA1031+002409079GA2061+003009079GA3081+005409079GF108991081071002501999999MA1102101999999MD1510041+9999MW1611OA149901901REMSYN029333   83708 86710 88718 91137MET011TEMPO 6000?
0070039620999991983010823304+52683-008917FM-15+0020EINN V0202601N01181220001CN0112001N1+01001+00901999999ADDAG12001GA1011+005409079MA1102101999999MW1211OC101751REMMET006NOSIG?
0177039620999991983010900004+52683-008917SY-MT+0020EINN V0202601N00971006601CN0080001N1+01001+00901102201ADDAA106002091AG10002AY161061GA1021+005409079GA2061+006609089GF107991071081004501999999MA1102101999999MD1310101+9999MW1801OA149902061REMSYN023333   82718 86822 91140MET006NOSIG?
0062039620999991983010900304+52683-008917FM-15+0020EINN V0202601N00921220001CN0112001N1+01001+00801999999ADDAG11999GA1021+006009089MA1102201999999MW1251REMMET006NOSIG?
0158039620999991983010901004+52683-008917SY-MT+0020EINN V0202601N00821220001CN0112001N1+00901+00701102251ADDAG12999AY181011GA1021+006009099GF103991031031008001001001MA1102201999999MD1210201+9999MW1251MW2801OA149901651OC101381REMSYN017333   82920 91132MET006NOSIG?
0075039620999991983010901304+52683-008917FM-15+0020EINN V0202601N00771220001CN0112001N1+00901+00601999999ADDAG11999GA1021+006009089MA1102201999999REMMET006NOSIG?EQDQ01+000000PRSWM2
0163039620999991983010902004+52683-008917SY-MT+0020EINN V0202701N00661220001CN0112001N1+00901+00601102351ADDAG11999AY101021GA1021+006009089GF102991021081008001001001MA1102301999999MD1210241+9999MW1021OA149901241REMSYN017333   82820 91124MET006NOSIG?EQDQ01+000000PRSWM2
0075039620999991983010902304+52683-008917FM-15+0020EINN V0202601N00661220001CN0112001N1+00801+00501999999ADDAG12000GA1021+006009089MA1102301999999REMMET006NOSIG?EQDQ01+000000PRSWM2
0201039620999991983010903004+52683-008917SY-MT+0020EINN V0202701N00661015001CN0112001N1+00801+00501102431ADDAG12002AY181031GA1021+006009089GA2051+015009059GF105991051081008001999001MA1102401999999MD1210231+9999MW1031OA149901181REMSYN023333   82820 85650 91123MET006NOSIG?EQDQ01+000000PRSWM2Q02    003SCOMCG
0091039620999991983010903304+52683-008917FM-15+0020EINN V0202601N00251015001CN0112001N1+00801+00501999999ADDAG11999GA1021+006009089GA2061+015009059MA1102401999999REMMET006NOSIG?EQDQ01+000000PRSWM2
0168039620999991983010904004+52683-008917SY-MT+0020EINN V0202301N00251015001CN0112001N1+00801+00501102471ADDAG11999AY101011GA1011+006009089GA2061+015009059GF107991071081008001999999MA1102401999999MD1110221+9999MW1021REMSYN017333   81820 86650MET006NOSIG?EQDQ01+000000PRSWM2
0091039620999991983010904304+52683-008917FM-15+0020EINN V0202701N00461015001CN0112001N1+00801+00501999999ADDAG11999GA1021+006009089GA2061+015009059MA1102401999999REMMET006NOSIG?EQDQ01+000000PRSWM2
0168039620999991983010905004+52683-008917SY-MT+0020EINN V0202401N00411015001CN0112001N1+00801+00601102471ADDAG11999AY101021GA1021+006009089GA2081+015009059GF108991081081008001999999MA1102401999999MD1110121+9999MW1021REMSYN017333   82820 88650MET006NOSIG?EQDQ01+000000PRSWM2
0075039620999991983010905304+52683-008917FM-15+0020EINN V0202701N00661015001CN0112001N1+99999+99999999999ADDAG12000GA1081+015009059MA1102401999999REMMET006NOSIG?EQDQ01+000000PRSWM2
0222039620999991983010906004+52683-008917SY-MT+0020EINN V0202701N00611027001CN0112001N1+00801+00301102541ADDAA199002091AG10002AY181061GA1031+015009059GA2081+027009049GF108991031051017501011999IA1099IA2999+00509KA1120N+00781MA1102511999999MD1310121+9999MW1021REMSYN029333   20078 31005 83650 88459MET006NOSIG?EQDQ01+000000PRSWM2
0092039620999991983010906304+52683-008917FM-15+0020EINN V0202901N00411220001CN0112001N1+00701+00301999999ADDAG12999GA1011+012009059GA2031+024009039MA1102511999999REMMET007NOSIG??EQDQ01+000000PRSWM2
0168039620999991983010907004+52683-008917SY-MT+0020EINN V0202701N00151220001CN0112001N1+00701+00301102581ADDAG12999AY101011GA1011+012009059GA2031+024009039GF103991011051012501031001MA1102511999999MD1210101+9999MW1021REMSYN017333   81640 83358MET006NOSIG?EQDQ01+000000PRSWM2
0078039620999991983010907304+52683-008917FM-15+0020EINN V0202701N00561012001CN0112001N1+00701+00301999999ADDAG12999GA1021+006009089GA2051+012009059MA1102611999999MW1801REMMET006NOSIG?
0149039620999991983010908004+52683-008917SY-MT+0020EINN V0202501N00461030001CN0112001N1+00701+00401102651ADDAG12999AY181021GA1011+006009089GA2031+012009059GF105991031081008001031001MA1102611999999MD1210171+9999MW1251REMSYN017333   81820 83640MET006NOSIG?
0078039620999991983010908304+52683-008917FM-15+0020EINN V0202701N00511012001CN0112001N1+00701+00501999999ADDAG12002GA1021+006009089GA2061+012009059MA1102711999999MW1251REMMET006NOSIG?
0168039620999991983010909004+52683-008917SY-MT+0020EINN V0202501N00411030001CN0112001N1+00701+00501102721ADDAG12002AY181031GA1011+006009089GA2031+012009059GF105991041081008001031001MA1102711999999MD1210161+9999MW1021REMSYN017333   81820 83640MET006NOSIG?EQDQ01+000000PRSWM2
0147039620999991983010910004+52683-008917SY-MT+0020EINN V0202401N00411220001CN0112001N1+00701+00401102811ADDAG12999AY101011GA1011+006009089GF102991021081008001001001MA1102811999999MD1210231+9999MW1021REMSYN011333   81820MET007NO SIG?EQDQ01+000000PRSWM2
0147039620999991983010911004+52683-008917SY-MT+0020EINN V0202601N00461220001CN0112001N1+00801+00401102881ADDAG12999AY101021GA1021+006009089GF102991021081008001001001MA1102811999999MD1210241+9999MW1021REMSYN011333   82820MET007NO SIG?EQDQ01+000000PRSWM2
0075039620999991983010911304+52683-008917FM-15+0020EINN V0202501N00461220001CN0112001N1+00801+00401999999ADDAG12000GA1011+006009089MA1102811999999REMMET006NOSIG?EQDQ01+000000PRSWM2
0158039620999991983010912004+52683-008917SY-MT+0020EINN V0202501N00511220001CN0112001N1+00901+00501102831ADDAA106999929AG10002AY181061GA1021+006009089GF103991031081008001001001MA1102811999999MD1010121+9999MW1031REMSYN011333   82820MET007NO SIG?EQDQ01+000000PRSWM2
0076039620999991983010912304+52683-008917FM-15+0020EINN V0202601N00511220001CN0112001N1+00901+00401999999ADDAG12999GA1021+006009089MA1102811999999REMMET007NO SIG?EQDQ01+000000PRSWM2
0130039620999991983010913004+52683-008917SY-MT+0020EINN V0202801N00611220001CN0112001N1+00901+00501102911ADDAG12999AY101011GA1021+006009089GF102991021081008001001001MA1102911999999MD1210111+9999MW1021REMMET007NO SIG?EQDQ01+000000PRSWM2
0076039620999991983010913304+52683-008917FM-15+0020EINN V0202701N00511220001CN0112001N1+00901+00501999999ADDAG12999GA1021+006009089MA1102911999999REMMET007NO SIG?EQDQ01+000000PRSWM2
0168039620999991983010914004+52683-008917SY-MT+0020EINN V0202601N00611220001CN0112001N1+01001+00501102851ADDAG12999AY101021GA1011+006009089GA2031+060009009GF104991021081008001001021MA1102811999999MD1810031+9999MW1021REMSYN017333   81820 83070MET006NOSIG?EQDQ01+000000PRSWM2
0091039620999991983010914304+52683-008917FM-15+0020EINN V0202601N00561220001CN0112001N1+00901+00401999999ADDAG12000GA1011+006009089GA2031+060009009MA1102811999999REMMET006NOSIG?EQDQ01+000000PRSWM2
0168039620999991983010915004+52683-008917SY-MT+0020EINN V0202401N00461220001CN0112001N1+00901+00501102891ADDAG12000AY101031GA1011+006009089GA2031+060009009GF103991011081008001001021MA1102811999999MD1310061+9999MW1021REMSYN017333   81820 83070MET006NOSIG?EQDQ01+000000PRSWM2
0091039620999991983010915304+52683-008917FM-15+0020EINN V0202401N00461220001CN0112001N1+00801+00501999999ADDAG12999GA1011+006009089GA2021+060009009MA1102911999999REMMET006NOSIG?EQDQ01+000000PRSWM2
0162039620999991983010916004+52683-008917SY-MT+0020EINN V0202401N00301220001CN0112001N1+00801+00601102931ADDAG12999AY101011GA1031+006009089GF104991999081008001001001MA1102911999999MD1310021+9999MW1021REMSYN011333   83820MET006NOSIG?EQDQ01+000032SCOTLCQ02+000000PRSWM2
0075039620999991983010916304+52683-008917FM-15+0020EINN V0202201N00361220001CN0112001N1+00701+00501999999ADDAG12999GA1011+006009089MA1102911999999REMMET006NOSIG?EQDQ01+000000PRSWM2
0168039620999991983010917004+52683-008917SY-MT+0020EINN V0202001N00301220001CN0112001N1+00701+00501102941ADDAG12999AY101021GA1011+006009089GA2031+009009059GF104991031081008001001021MA1102911999999MD1310081+9999MW1021REMSYN017333   81820 83630MET006NOSIG?EQDQ01+000000PRSWM2
0091039620999991983010917304+52683-008917FM-15+0020EINN V0202001N00301220001CN0112001N1+00601+00501999999ADDAG12000GA1011+006009089GA2031+009009059MA1102911999999REMMET006NOSIG?EQDQ01+000000PRSWM2
0198039620999991983010918004+52683-008917SY-MT+0020EINN V0202001N00461009001CN0112001N1+00701+00401102931ADDAA199999929AG10000AY101061GA1011+006009089GA2051+009009059GF106991051081008001999021KA1120M+01001MA1102911999999MD1010031+9999MW1021REMSYN023333   10100 81820 85630MET006NOSIG?EQDQ01+000000PRSWM2
0075039620999991983010918304+52683-008917FM-15+0020EINN V0202001N00361220001CN0112001N1+00601+00401999999ADDAG12999GA1011+009009059MA1102911999999REMMET006NOSIG?EQDQ01+000000PRSWM2
0160039620999991983010919004+52683-008917SY-MT+0020EINN V0201901N00361220001CN0112001N1+00601+00401102971ADDAG12999AY101011GA1011+009009059GF101991011051012501001021GJ102889MA1102911999999MD1310031+9999MW1021REMSYN017333   81630 94048MET006NOSIG?EQDQ01+000000PRSWM2
0075039620999991983010919304+52683-008917FM-15+0020EINN V0201801N00411220001CN0112001N1+00501+00401999999ADDAG12999GA1011+009009059MA1102911999999REMMET006NOSIG?EQDQ01+000000PRSWM2
0146039620999991983010920004+52683-008917SY-MT+0020EINN V0201801N00361009001CN0112001N1+00501+00301102931ADDAG12999AY101021GA1051+009009059GF105991051051012501001021MA1102911999999MD1510011+9999MW1021REMSYN011333   85630MET006NOSIG?EQDQ01+000000PRSWM2
0075039620999991983010920304+52683-008917FM-15+0020EINN V0201701N00411010501CN0112001N1+00601+00301999999ADDAG12000GA1071+010509059MA1102811999999REMMET006NOSIG?EQDQ01+000000PRSWM2
0146039620999991983010921004+52683-008917SY-MT+0020EINN V0201701N00461012001CN0112001N1+00601+00401102871ADDAG12000AY101031GA1061+012009059GF106991061051012501999999MA1102811999999MD1810061+9999MW1021REMSYN011333   86640MET006NOSIG?EQDQ01+000000PRSWM2
0075039620999991983010921304+52683-008917FM-15+0020EINN V0201701N00461010501CN0112001N1+00601+00401999999ADDAG12999GA1071+010509059MA1102811999999REMMET006NOSIG?EQDQ01+000000PRSWM2
0146039620999991983010922004+52683-008917SY-MT+0020EINN V0201701N00511010501CN0112001N1+00601+00401102821ADDAG12999AY101011GA1071+010509059GF107991071051012501999999MA1102811999999MD1710151+9999MW1021REMSYN011333   87635MET006NOSIG?EQDQ01+000000PRSWM2
0062039620999991983010922304+52683-008917FM-15+0020EINN V0201601N00411010501CN0112001N1+00701+00401999999ADDAG12999GA1081+010509059MA1102711999999MW1201REMMET006NOSIG?
0127039620999991983010923004+52683-008917SY-MT+0020EINN V0201801N00301007501CN0112001N1+00701+00501102741ADDAG12999AY151021GA1081+007509059GF108991081051008001999999MA1102711999999MD1710191+9999MW1201REMSYN011333   88625MET006NOSIG?
0111039620999991983011000004+52683-008917FM-12+0020EINN V0201601N00411007501CN0250001N9+00761+00631102651ADDAA106999929AG10000AY151061GA1081+007509059GF108991081051008001999999MD1710211+9999MW1021REMSYN011333   88625
0085039620999991983011000304+52683-008917FM-15+0020EINN V0201601N00411007501CN0112001N1+00801+00701999999ADDAG11999GA1031+004509079GA2081+007509059MA1102611999999MW1501REMMET013TEMPO 5ST010?
0156039620999991983011001004+52683-008917SY-MT+0020EINN V0201801N00361004501CN0112001N1+00801+00701102591ADDAG12999AY151011GA1051+004509079GA2081+007509059GF108991081061004501999999MA1102511999999MD1710221+9999MW1201REMSYN017333   85715 88625MET013TEMPO 5ST010?
0078039620999991983011001304+52683-008917FM-15+0020EINN V0201901N00411003301CN0112001N1+00901+00801999999ADDAG11999GA1051+003309079GA2081+006009059MA1102511999999MW1581REMMET006NOSIG?
0149039620999991983011002004+52683-008917SY-MT+0020EINN V0202101N00461003301CN0090001N1+00901+00901102541ADDAG12999AY161021GA1051+003309079GA2081+004509079GF108991081061004501999999MA1102511999999MD1710191+9999MW1511REMSYN017333   85711 88715MET006NOSIG?
0078039620999991983011002304+52683-008917FM-15+0020EINN V0202301N00611003901CN0112001N1+01001+01001999999ADDAG12000GA1051+003909079GA2081+006009059MA1102511999999MW1511REMMET006NOSIG?
0149039620999991983011003004+52683-008917SY-MT+0020EINN V0202201N00611003901CN0112001N1+01001+01001102521ADDAG12000AY161031GA1061+003909079GA2081+006009059GF108991081061004501999999MA1102511999999MD1710131+9999MW1581REMSYN017333   86713 88620MET006NOSIG?
0078039620999991983011003304+52683-008917FM-15+0020EINN V0202301N00661004201CN0112001N1+01001+01001999999ADDAG12999GA1021+002409079GA2081+004209079MA1102511999999MW1581REMMET006NOSIG?
0149039620999991983011004004+52683-008917SY-MT+0020EINN V0202301N00661004501CN0112001N1+01001+01001102491ADDAG12999AY161011GA1051+004509079GA2081+009009059GF108991081061004501999999MA1102401999999MD1710101+9999MW1211REMSYN017333   85715 88630MET006NOSIG?
0086039620999991983011004304+52683-008917FM-15+0020EINN V0202401N00921005401CN0112001N1+01101+00901999999ADDAG12999GA1051+005409079GA2081+009009059MA1102401999999MW1211OC101441REMMET006NOSIG?
0166039620999991983011005004+52683-008917SY-MT+0020EINN V0202401N00821005401CN0112001N1+01101+00901102491ADDAG12999AY161021GA1061+005409079GA2071+009009059GF108991081061004501999999MA1102401999999MD1610051+9999MW1601OA149901441REMSYN023333   86718 87630 91128MET006NOSIG?
0203039620999991983011006004+52683-008917SY-MT+0020EINN V0202401N00771009001CN0112001N1+01101+00901102491ADDAA199002091AG10001AY161061GA1041+005409079GA2071+009009059GF107991071061004501999999IA1099IA2999+00209KA1120N+00551MA1102401999999MD1610031+9999MW1211REMSYN029333   20055 31002 84718 87630MET006NOSIG?
0091039620999991983011006304+52683-008917FM-15+0020EINN V0202401N00821005401CN0112001N1+01001+00901999999ADDAG12999GA1061+005409079GA2081+009009059MA1102511999999REMMET006NOSIG?EQDQ01+000000PRSWM2
0168039620999991983011007004+52683-008917SY-MT+0020EINN V0202301N00771005401CN0112001N1+01001+00901102501ADDAG12999AY101011GA1051+005409079GA2071+007509059GF108991081061004501999999MA1102401999999MD1210011+9999MW1021REMSYN017333   85718 87625MET006NOSIG?EQDQ01+000000PRSWM2
0122039620999991983011008004+52683-008917FM-12+0020EINN V0202501N00981005401CN0200001N9+01031+00861102511ADDAG12999AY101021GA1051+005409079GA2061+007509059GF107991071061004501999999MD1210021+9999MW1021REMSYN017333   85718 86625
0091039620999991983011008304+52683-008917FM-15+0020EINN V0202501N00971005401CN0112001N1+01001+00801999999ADDAG12000GA1061+005409079GA2071+007509059MA1102511999999REMMET006NOSIG?EQDQ01+000000PRSWM2
0193039620999991983011009004+52683-008917SY-MT+0020EINN V0202301N01081005401CN0112001N1+01001+00901102511ADDAG12000AY101031GA1051+005409079GA2051+007509059GF107991071061004501999999MA1102511999999MD1110021+9999MW1021OA149901601OC101591REMSYN023333   85718 85625 91131MET006NOSIG?EQDQ01+000000PRSWM2
0185039620999991983011010004+52683-008917SY-MT+0020EINN V0202101N00661009001CN0112001N1+01001+00801102541ADDAG12999AY101011GA1031+005109079GA2061+009009059GF107991071051004501999999MA1102511999999MD1210041+9999MW1021OA149901751REMSYN023333   83717 86630 91134MET006NOSIG?EQDQ01+000000PRSWM2
