0183039620999991998010100004+52700-008917SY-MT+0020EINN V0201401N00151220001CN0250001N1+00301+00111100221ADDAA106002091AG12001AY181061AY211061GA1021+006609099GF199999011081008001001001MA1100201099981MD1810051+9999MW1011REMSYN011 333 81820;MET008NEW NOSIEQDQ01+000012SCOTCVQ02+000000PRSWM2
0140039620999991998010101004+52700-008917SY-MT+0020EINN V0201701N00311220001CN0300001N1+00381+00121100181ADDAG12999GA1021+006009999GF103991031081008001001001MA1100101099941MD1710191+9999REMSYN017 333 81820 83640;MET008NEW NOSIEQDQ01+000000PRSWM2
0156039620999991998010102004+52700-008917SY-MT+0020EINN V0201701N00261220001CN0300001N1+00471+00161100121ADDAG12999GA1021+006009999GA2021+012009999GF103991031081008001001001MA1100101099881MD1710191+9999REMSYN017 333 81820 83640;MET008NEW NOSIEQDQ01+000000PRSWM2
0172039620999991998010103004+52700-008917SY-MT+0020EINN V0201601N00261012001CN0300001N1+00551+00261100071ADDAG12000GA1021+005409999GA2071+012009999GF199999061051004501999999MA1100001099831MD1710151+9999REMSYN017 333 81718 86640;MET008NEW NOSIEQDQ01+000062SCOTCVQ02+000000PRSWM2
0151039620999991998010103304+52700-008917FM-15+0020EINN V0201301N004610120019N0112651N1+00501+00301099951ADDAG12999GA1021+005409999GA2071+012009999GF107991999999999999999999MA1099901099711REMMET008NEW NOSIEQDQ01+999990APOSP Q02+999990APOSLPQ03+000000PRSWM2
0156039620999991998010105004+52700-008917SY-MT+0020EINN V0201701N00361012601CN0300001N1+00701+00401099731ADDAG12999GA1021+005409999GA2071+012609999GF108991031051012501071999MA1099701099491MD1810391+9999REMSYN017 333 83640 87458;MET008NEW NOSIEQDQ01+000000PRSWM2
0235039620999991998010106004+52700-008917SY-MT+0020EINN V0201701N00511024001CN0300001N1+00741+00461099501ADDAA106000091AA299002091AG12000GA1021+012009999GA2071+024009999GF108991031051012501021999GJ102229IA1099IA2999+00109KA1120N+00271MA1099491099261MD1810571+9999REMSYN035 333 20027 31001 55037 83640 88458;MET008NEW NOSIEQDQ01+000000PRSWM2
0194039620999991998010107004+52700-008917SY-MT+0020EINN V0201701N00511018001CN0200001N1+00851+00521099291ADDAG12999AY161011AY221011GA1021+010509999GA2081+018009999GF108991081051008001999999MA1099291099061MD1710602+9999MW1601REMSYN017 333 84625 88650;MET008NEW NOSIEQDQ01+000602APC3  Q02+000000PRSWM2
0179039620999991998010108004+52700-008917SY-MT+0020EINN V0201701N00621015001CN0150001N1+00861+00551099001ADDAG12999AY161021AY261021GA1021+006609999GA2081+015009999GF108991081051004501999999MA1099091098771MD1710721+9999MW1611OC101751REMSYN029 333 82714 83625 88650 91117;MET008NEW NOSI
0185039620999991998010109004+52700-008917SY-MT+0020EINN V0201701N00621004501CN0150001N1+00931+00701098681ADDAG12001AY161031AY221031GA1071+004509999GA2081+010509999GF108991081061004501999999MA1098821098451MD1710811+9999MW1611OC101751REMSYN035 333 83712 86718 88625 90710 91117;MET008NEW NOSI
0165039620999991998010109304+52700-008917FM-15+0020EINN V0201701N013410210019N0112651N1+01001+00701098561ADDAG12999GA1021+003309999GA2021+005109999GA3081+021009999GF108991999999999999999999MA1098511098321MW1611OC101901REMMET008NEW NOSIEQDQ01+999990APOSP Q02+999990APOSLP
0187039620999991998010111004+52700-008917SY-MT+0020EINN V0201701N00671024001CN0110001N1+01011+00841098021ADDAG12999AY161021AY261021GA1021+002409999GA2021+006009999GA3081+024009999GF108991051051002501071999MA1098101097791MD1710981+9999MW1631REMSYN029 333 82709 84620 87458 91120;MET008NEW NOSI
0210039620999991998010112004+52700-008917SY-MT+0020EINN V0201701N00571024001CN0050001N1+01101+00961097721ADDAA106003091AG12001AY161061AY251061GA1021+002409999GA2021+004509999GA3071+024009999GF108991081071002501999999MA1097801097491MD1710961+9999MW1581MW2611REMSYN035 333 83707 83711 86620 90710 91119;MET008NEW NOSI
0206039620999991998010113004+52700-008917SY-MT+0020EINN V0202101N00671006001CN0060001N1+01141+01001097581ADDAG12999AY161011AY251011GA1021+002109999GA2021+003309999GA3071+006009999GF108991081071001501999999MA1097491097351MD1510782+9999MW1631REMSYN029 333 83705 85710 87620 91122;MET008NEW NOSIEQDQ01+000782APC3  
0241039620999991998010114004+52700-008917SY-MT+0020EINN V0202401N00571015001CN0080001N1+01021+00771097611ADDAG12999AY161021AY261021GA1021+003009999GA2021+006009999GA3081+015009999GF108991081061002501999999MA1097601097381MD1510411+9999MW1611OA149901131OC101651REMSYN041 333 82708 85715 87650 91122 98162 98362;MET031NEW RERA BECMG SCT010 BKN018CB;
0269039620999991998010115004+52700-008917SY-MT+0020EINN V0202501N00621015001CN0070001N1+01101+00661097641ADDAG12001AY161031AY251031GA1021+002409999GA2021+004509999GA3071+015009999GF107991071061002501999999MA1097491097411MD1510081+9999MW1211OA140101031REMSYN047 333 82708 86715 85635 90710 91120 98162 98362;MET042NEW TEMPO 24020G38KT 5000 SCT010 BKN016CB;EQDQ01+000000PRSWM2
0233039620999991998010116004+52700-008917SY-MT+0020EINN V0202601N00621004501CN0080001N1+00991+00561097711ADDAG12999AY181011AY221011GA1021+002409999GA2071+004509099GA3071+009009999GF199999061091002501999999MA1097601097481MD1310131+9999MW1251MW2801OC101801REMSYN035 333 81708 81915 85630 98165 98365;MET015NEW TEMPO 5000;EQDQ01+000062SCOTCV
0250039620999991998010117004+52700-008917SY-MT+0020EINN V0202501N00721004501CN0080001N1+00861+00401097771ADDAG12999AY181021AY221021GA1021+002409999GA2071+004509099GA3071+009009999GF107991071031002501999999MA1097701097541MD1210161+9999MW1801OA149901291OC102471REMSYN047 333 82708 85915 85630 91125 98365 98565 98765;MET015NEW TEMPO 5000;EQDQ01+000000PRSWM2
0258039620999991998010118004+52700-008917SY-MT+0020EINN V0202401N00511220001CN0200001N1+00931+00601097801ADDAA106999999AA299010091AG12001AY181061AY211061GA1021+003009999GA2071+005409099GF199999031031004501001001KA1120M+01151MA1097701097571MD1110161+9999MW1251REMSYN023 333 10115 81710 83918;MET015NEW TEMPO 5000;EQDQ01+000032SCOTCVQ02+000000PRSWM2Q03  00002PRCP06
0215039620999991998010119004+52700-008917SY-MT+0020EINN V0202401N00511220001CN0200001N1+00801+00361097881ADDAG12999AY181011AY211011GA1021+002709999GA2071+005409099GF199999031031004501001001MA1097801097651MD1110171+9999MW1251OC102061REMSYN023 333 81710 83918 91121;MET015NEW TEMPO 5000;EQDQ01+000032SCOTCVQ02+000000PRSWM2
0215039620999991998010120004+52700-008917SY-MT+0020EINN V0202401N00461005401CN0200001N1+00821+00501097901ADDAG12999AY181021AY211021GA1021+002709999GA2071+005409099GF199999051031002501001001MA1097901097671MD1210131+9999MW1251OC101391REMSYN023 333 82709 85918 91118;MET015NEW TEMPO 5000;EQDQ01+000052SCOTCVQ02+000000PRSWM2
0213039620999991998010121004+52700-008917SY-MT+0020EINN V0202601N00261220001CN0200001N1+00751+00461097951ADDAG12001AY181031AY211031GA1021+002409999GA2071+005409099GF199999031031002501001001MA1097901097721MD1010151+9999MW1251REMSYN029 333 81709 83918 90710 91123;MET015NEW TEMPO 5000;EQDQ01+000032SCOTCVQ02+000000PRSWM2
0158039620999991998010121304+52700-008917FM-15+0020EINN V0202201N00571220001CN0112651N1+00701+00401097951ADDAG12999GA1021+002709999GA2021+005409099GF102991999999999999999999MA1097901097711REMMET015NEW TEMPO 5000;EQDQ01+999990APOSP Q02+999990APOSLPQ03+000000PRSWM2
0156039620999991998010123004+52700-008917SY-MT+0020EINN V0202101N00311220001CN0200001N1+00711+00381097751ADDAG12999GA1021+005409999GA2021+009609999GF104991041081008001001001MA1097801097521MD1810151+9999REMSYN017 333 81820 84640;MET008NEW NOSIEQDQ01+000000PRSWM2
0189039620999991998010200004+52700-008917SY-MT+0020EINN V0202001N00361012001CN0250001N1+00721+00391097641ADDAA106001091AG12001AY181061AY211061GA1021+006009999GA2021+015009999GF105991051081008001999999MA1097701097411MD1810311+9999MW1031REMSYN017 333 81820 85635;MET008NEW NOSIEQDQ01+000000PRSWM2
0178039620999991998010201004+52700-008917SY-MT+0020EINN V0201801N00211007501CN0250001N1+00681+00471097521ADDAG12999AY181011AY221011GA1021+006009099GA2021+015009999GF105991051031008001999999MA1097491097291MD1710331+9999MW1251REMSYN017 333 83920 83650;MET008NEW NOSIEQDQ01+000000PRSWM2
0172039620999991998010202004+52700-008917SY-MT+0020EINN V0201901N00311004201CN0120001N1+00701+00521097461ADDAG12999AY181021AY221021GA1021+006009099GA2021+015009999GF106991061031004501999999MA1097391097231MD1510291+9999MW1801REMSYN011 333 86918;MET008NEW NOSIEQDQ01+000000PRSWM2
0143039620999991998010203004+52700-008917SY-MT+0020EINN V0201701N00151005101CN0300001N1+00661+00551097461ADDAG12001AY181031AY221031GA1071+005109099GF107991071031004501999999MA1097391097231MD1610181+9999MW1251MW2801REMSYN011 333 87918;MET008NEW NOSI
0143039620999991998010204004+52700-008917SY-MT+0020EINN V0202601N00211005401CN0200001N1+00691+00511097541ADDAG12999AY181011AY221011GA1071+005409099GF107991071031004501999999MA1097491097311MD1310021+9999MW1251MW2801REMSYN011 333 87918;MET008NEW NOSI
0162039620999991998010205004+52700-008917SY-MT+0020EINN V0202601N00261005401CN0250001N1+00681+00381097641ADDAG12999AY181021AY221021GA1071+005409999GF107991071031004501999999MA1097491097411MD1310181+9999MW1251REMSYN017 333 84918 87632;MET008NEW NOSIEQDQ01+000000PRSWM2
0273039620999991998010206004+52700-008917SY-MT+0020EINN V0202601N00261009601CN0250001N1+00651+00341097771ADDAA106000091AA299006091AG12001AY181061AY221061GA1021+005409099GA2071+009609999GF199999051031004501999999GJ100009IA1099IA2999+00309KA1120N+00651MA1097701097541MD1210311+9999MW1011REMSYN035 333 20065 31003 55000 82918 84632;MET008NEW NOSIEQDQ01+000052SCOTCVQ02+000000PRSWM2
0156039620999991998010207004+52700-008917SY-MT+0020EINN V0202501N00311004201CN0250001N1+00711+00361097931ADDAG12999GA1021+005409099GA2021+009609999GF105991051031004501999999MA1097801097701MD1210391+9999REMSYN017 333 82918 83632;MET008NEW NOSIEQDQ01+000000PRSWM2
0208039620999991998010208004+52700-008917SY-MT+0020EINN V0202601N00361006001CN0120001N1+00671+00361098101ADDAG12999AY181021AY221021GA1021+001809999GA2021+003609999GA3071+006009099GF199999051031002501999999MA1098001097871MD1210461+9999MW1801OC102011REMSYN023 333 82709 85918 91120;MET008NEW NOSIEQDQ01+000052SCOTCV
0190039620999991998010209004+52700-008917SY-MT+0020EINN V0202501N00411220001CN0120001N1+00791+00371098191ADDAG12001AY181031AY211031GA1021+002709999GA2021+005409099GF102991021031002501001001MA1098101097961MD1210421+9999MW1251REMSYN029 333 81709 82918 90710 91120;MET008NEW NOSIEQDQ01+000000PRSWM2
0192039620999991998010210004+52700-008917SY-MT+0020EINN V0202501N00411002101CN0200001N1+00791+00371098391ADDAG12999AY181011AY211011GA1021+002709999GA2021+005409099GF105991051031002501001001MA1098311098161MD1210461+9999MW1251OC101541REMSYN023 333 82709 84918 91119;MET008NEW NOSIEQDQ01+000000PRSWM2
0172039620999991998010211004+52700-008917SY-MT+0020EINN V0202401N00411005401CN0200001N1+00881+00381098511ADDAG12999GA1021+002709999GA2071+005409099GF199999051031002501001001MA1098411098281MD1110411+9999REMSYN017 333 82709 85918;MET008NEW NOSIEQDQ01+000052SCOTCVQ02+000000PRSWM2
0203039620999991998010212004+52700-008917SY-MT+0020EINN V0202501N00361220001CN0200001N1+00811+00421098581ADDAA106001091AG12001AY181061AY211061GA1021+002109999GA2071+005409099GF199999031091002501001001MA1098611098351MD1010391+9999MW1251MW2801OC101541REMSYN017 333 81709 83918;MET008NEW NOSIEQDQ01+000032SCOTCV
0170039620999991998010213004+52700-008917FM-12+0020EINN V0202501N00461220001CN0200001N1+00851+00391098681ADDAG12999AY181011AY211011GA1011+003009079GA2031+005409099GF103991031091004501001001MA1098651098451MD1110291+9999MW1251REMSYN023 333 81710 83918 91125;EQDQ01+999990APOA  
0148039620999991998010214004+52700-008917FM-12+0020EINN V0202601N00511006001CN0200001N1+00951+00461098781ADDAG12999GA1011+004509079GA2051+006009099GF106991061091004501999999MA1098751098551MD1210271+9999REMSYN023 333 81715 85920 91118;EQDQ01+999990APOA  
0198039620999991998010215004+52700-008917SY-MT+0020EINN V0202601N00571004501CN0150001N1+00751+00431098861ADDAG12001AY181031AY211031GA1021+002409999GA2071+004509099GF107991071091002501999999MA1098821098631MD1210281+9999MW1251OC101751REMSYN029 333 82708 85915 90710 91121;MET008NEW NOSIEQDQ01+000000PRSWM2
0178039620999991998010216004+52700-008917SY-MT+0020EINN V0202501N00261024001CN0150001N1+00861+00431098931ADDAG12999GA1021+003009999GA2021+006009099GA3021+024009999GF105991021091004501031021MA1098921098701MD1210251+9999REMSYN023 333 81710 81920 83358;MET008NEW NOSIEQDQ01+000000PRSWM2
0222039620999991998010217004+52700-008917SY-MT+0020EINN V0202401N00461024001CN0180001N1+00811+00311098951ADDAG12999AY181021AY221021GA1021+003009999GA2021+006009099GA3021+024009999GA4071+060009999GF107991031091004501071021MA1098921098721MD1110171+9999MW1251REMSYN029 333 81710 82920 84458 85070;MET008NEW NOSIEQDQ01+000000PRSWM2
0257039620999991998010218004+52700-008917SY-MT+0020EINN V0202401N00261024001CN0180001N1+00751+00381099011ADDAA106999999AA299002091AG12001AY181061AY211061GA1021+003009999GA2021+006009099GA3071+024009999GF107991041091004501071021KA1120M+00951MA1098981098781MD1210151+9999MW1801REMSYN029 333 10095 81710 83920 86458;MET008NEW NOSIEQDQ01+000000PRSWM2Q02  00002PRCP06
0200039620999991998010219004+52700-008917SY-MT+0020EINN V0201701N00211024001CN0150001N1+00751+00481098911ADDAG12999AY181011AY221011GA1021+002409999GA2021+006009099GA3071+024009999GF107991051091002501071999MA1098921098681MD1810021+9999MW1801REMSYN023 333 82708 83920 87458;MET008NEW NOSIEQDQ01+000000PRSWM2
0187039620999991998010220004+52700-008917SY-MT+0020EINN V0201701N00361009001CN0150001N1+00731+00521098761ADDAG12999AY181021AY261021GA1021+002409999GA2021+005409999GA3071+009009999GF108991061051002501071999MA1098921098531MD1810191+9999MW1601MW2611REMSYN023 333 82708 84630 85650;MET008NEW NOSI
0181039620999991998010221004+52700-008917SY-MT+0020EINN V0201501N00361024001CN0080001N1+00731+00571098521ADDAG12001AY181031AY261031GA1021+003009999GA2021+015009999GA3071+024009999GF108991071051002501071999MA1098611098291MD1710491+9999MW1611REMSYN023 333 82708 84630 86650;MET008NEW NOSI
0190039620999991998010222004+52700-008917SY-MT+0020EINN V0201401N00411024001CN0120001N1+00781+00631098151ADDAG12999AY161011AY261011GA1021+002409999GA2021+007509999GA3081+024009999GF108991061061002501021999MA1098311097921MD1710761+9999MW1611REMSYN023 333 82708 85713 88458;MET017NEW BECMG BKN010;
0199039620999991998010223004+52700-008917SY-MT+0020EINN V0201701N00571003001CN0080001N1+00961+00751097841ADDAG12999AY161021AY251021GA1021+001809999GA2071+003009999GA3071+010209999GF108991081061002501999999MA1097901097611MD1710921+9999MW1581MW2611REMSYN023 333 82706 85710 86625;MET020NEW TEMPO 5000 BKN00
0216039620999991998010300004+52700-008917SY-MT+0020EINN V0201701N00311003001CN0200001N1+01011+00951097691ADDAA106002091AG12001AY181061AY261061GA1021+001809999GA2071+003009999GA3071+004809999GF108991051061002501021999MA1097801097461MD1710831+9999MW1211MW2511MW3611REMSYN023 333 81706 83710 88458;MET020NEW TEMPO 5000 BKN00
0175039620999991998010300304+52700-008917FM-15+0020EINN V0202201N01081006301CN0112651N1+01201+00901097641ADDAG12999GA1021+003009999GA2071+006309999GA3071+012009999GF107991999999999999999999MA1097601097411OC101751REMMET008NEW NOSIEQDQ01+999990APOSP Q02+999990APOSLPQ03+000000PRSWM2
0246039620999991998010302004+52700-008917SY-MT+0020EINN V0202401N00621009601CN0220001N1+01151+00671097581ADDAG12999AY181021AY221021GA1021+004509999GA2021+006609999GA3071+009609999GF108991081081004501999999MA1097531097351MD1510261+9999MW1251OC102011REMSYN029 333 81716 83822 87633 91124;MET008NEW NOSIEQDQ01+029383APOA  Q02+999990APOA  Q03+000000PRSWM2
0212039620999991998010303004+52700-008917SY-MT+0020EINN V0202401N00621010501CN0200001N1+00991+00631097541ADDAG12001AY181031AY221031GA1021+004509999GA2021+006909999GA3071+010509999GF108991081081004501999999MA1097491097311MD1710151+9999MW1801REMSYN035 333 81711 85820 87630 90710 91121;MET008NEW NOSIEQDQ01+000000PRSWM2
0214039620999991998010304004+52700-008917SY-MT+0020EINN V0202401N00511010501CN0250001N1+00941+00571097551ADDAG12999AY181011AY221011GA1021+004509999GA2021+006909999GA3071+010509999GF107991071081004501999999MA1097491097321MD1510021+9999MW1251OC101801REMSYN029 333 81716 83823 86635 91121;MET008NEW NOSIEQDQ01+000000PRSWM2
0189039620999991998010305004+52700-008917SY-MT+0020EINN V0202501N00571005701CN0150001N1+00741+00441097531ADDAG12999AY181021AY221021GA1021+003609999GA2071+005709999GA3071+010809999GF107991071091004501999999MA1097491097301MD1710051+9999MW1801MW2811OC102061REMSYN017 333 87917 91140;MET008NEW NOSI
0257039620999991998010306004+52700-008917SY-MT+0020EINN V0202501N00571005101CN0200001N1+00631+00451097591ADDAA106999999AA299007091AG12001AY181061AY221061GA1071+005109099GF107991071091004501999999GJ101269IA1099IA2999+00409KA1120N+00641MA1097491097361MD1310051+9999MW1801REMSYN035 333 20064 31004 55021 87917 91126;MET008NEW NOSIEQDQ01+000000PRSWM2Q02  00002PRCP06
0157039620999991998010307004+52700-008917SY-MT+0020EINN V0202701N00621005101CN0250001N1+00521+00221097681ADDAG12999AY181011AY221011GA1071+005109099GF107991071091004501999999MA1097701097451MD1210131+9999MW1251MW2811OC102311REMSYN017 333 87917 91126;MET008NEW NOSI
0157039620999991998010308004+52700-008917SY-MT+0020EINN V0202601N00721004801CN0300001N1+00661-00081097741ADDAG12999AY181021AY221021GA1071+004809099GF107991071091004501999999MA1097701097511MD1210211+9999MW1251MW2811OC102621REMSYN017 333 87916 91130;MET008NEW NOSI
0182039620999991998010309004+52700-008917SY-MT+0020EINN V0202601N00621005101CN0200001N1+00461+00181098001ADDAG12001AY181031AY221031GA1071+005109099GF107991071031004501999999MA1098001097771MD1310411+9999MW1271OC101701REMSYN029 333 87917 96487 90710 91130;MET008NEW NOSIEQDQ01+000000PRSWM2
0203039620999991998010310004+52700-008917SY-MT+0020EINN V0202601N00771005401CN0120001N1+00491+00051098111ADDAG12999AY191011AY281011GA1021+002409999GA2071+005409099GF107991071091002501999999MA1098101097881MD1210431+9999MW1801MW2931OA149901441OC102211REMSYN029 333 82708 86918 91128 96080;MET015NEW RETS NOSIG;
0199039620999991998010311004+52700-008917SY-MT+0020EINN V0202601N00721005401CN0200001N1+00621+00031098251ADDAG12999AY181021AY221021GA1021+002409999GA2071+005409099GF107991071031002501999999MA1098211098021MD1210511+9999MW1271OC102161REMSYN023 333 81708 86918 91128;MET015NEW TEMPO 5000;EQDQ01+000000PRSWM2
0238039620999991998010312004+52700-008917SY-MT+0020EINN V0202501N00821005401CN0080001N1+00621-00131098341ADDAA106004091AG12001AY181061AY221061GA1021+002409999GA2071+005409099GF107991071091002501999999MA1098311098111MD1210341+9999MW1271OA140101341OC102211REMSYN035 333 82708 86918 90710 91126 91221;MET020NEW TEMPO 5000 REGS;EQDQ01+000000PRSWM2
0186039620999991998010313004+52700-008917SY-MT+0020EINN V0202501N01081005401CN0080001N1+00411+00071098511ADDAG12999AY181011AY221011GA1021+002409999GA2071+005409099GF107991071091002501999999MA1098411098281MD1210401+9999MW1801MW2871OC102061REMSYN023 333 83708 87918 91128;MET015NEW TEMPO 5000;
0244039620999991998010314004+52700-008917SY-MT+0020EINN V0202601N01181005401CN0150001N1+00531+00041098691ADDAG12999AY181021AY281021GA1021+002409999GA2071+005409099GF107991071031002501999999MA1098511098451MD1210431+9999MW1871OA149901541OA259901181OC102161REMSYN041 333 82707 83710 87918 91130 91223 96487;MET020NEW REGS TEMPO 5000;EQDQ01+000000PRSWM2
0244039620999991998010315004+52700-008917SY-MT+0020EINN V0202601N00821005401CN0180001N1+00611-00121098781ADDAG12001AY181031AY221031GA1021+003009999GA2071+005409099GF107991071031004501999999MA1098611098541MD1210431+9999MW1271OA140101391OA250100981OC102061REMSYN041 333 82710 86918 90710 91127 91219 96487;MET020NEW REGS TEMPO 5000;EQDQ01+000000PRSWM2
0233039620999991998010316004+52700-008917SY-MT+0020EINN V0202601N00771005401CN0250001N1+00481-00051098961ADDAG12999AY181011AY221011GA1021+002109999GA2071+005409099GF199999051091002501001001MA1098821098721MD1210441+9999MW1271MW2801MW3871OA149901291OC102161REMSYN029 333 82709 85918 91125 96487;MET020NEW REGS TEMPO 5000;EQDQ01+000052SCOTCV
0191039620999991998010317004+52700-008917SY-MT+0020EINN V0202601N00571002101CN0200001N1+00591-00071099081ADDAG12999AY181021AY221021GA1021+003009999GA2021+005409099GF107991071031002501999999MA1098981098841MD1210391+9999MW1801REMSYN023 333 83709 86918 91117;MET015NEW TEMPO 5000;EQDQ01+000000PRSWM2
0185039620999991998010319004+52700-008917SY-MT+0020EINN V0202301N00461004201CN0120001N1+00521+00051099171ADDAG12999AY121041AY221041GA1021+003009999GA2021+005409099GF106991061031004501999999MA1099091098931MD1110211+9999MW1801REMSYN017 333 81710 86918;MET015NEW TEMPO 5000;EQDQ01+000000PRSWM2
0185039620999991998010320004+52700-008917SY-MT+0020EINN V0202201N00361005401CN0120001N1+00431+00141099201ADDAG12999AY181051AY221051GA1071+005409099GF199999061031002501999999MA1099091098961MD1210121+9999MW1801REMSYN017 333 82708 86918;MET015NEW TEMPO 5000;EQDQ01+000062SCOTCVQ02+000000PRSWM2
0211039620999991998010321004+52700-008917SY-MT+0020EINN V0202301N00571220001CN0200001N1+00471+00141099201ADDAG12002AY181031AY221031GA1021+002409999GA2071+005409099GF199999041031002501001001MA1099191098961MD1110091+9999MW1801MW2811OC101751REMSYN029 333 81708 84918 90710 91118;MET015NEW TEMPO 5000;EQDQ01+000042SCOTCV
0197039620999991998010322004+52700-008917SY-MT+0020EINN V0202301N00461220001CN0200001N1+00421+00161099281ADDAG12999AY181999AY221999GA1021+002409999GA2071+005409099GF199999031031002501001001MA1099191099041MD1210111+9999MW1251MW2801REMSYN023 333 81708 83918 91118;MET015NEW TEMPO 5000;EQDQ01+000032SCOTCV
0147039620999991998010323004+52700-008917SY-MT+0020EINN V0202201N00511004201CN0200001N1+00481+00181099301ADDAG12999GA1021+005409099GF105991051031004501001001MA1099191099061MD1110101+9999REMSYN017 333 82918 85635;MET015NEW TEMPO 5000;EQDQ01+000000PRSWM2
0240039620999991998010400004+52700-008917SY-MT+0020EINN V0202501N00571220001CN0200001N1+00531+00181099351ADDAA106003091AG12001AY181061AY211061GA1021+002409999GA2021+005409099GA3071+010509999GF199999031031002501001001MA1099291099111MD1210151+9999MW1271REMSYN029 333 81708 82918 83635 96487;MET015NEW TEMPO 5000;EQDQ01+000032SCOTCVQ02+000000PRSWM2
0163039620999991998010401004+52700-008917SY-MT+0020EINN V0202301N00361220001CN0200001N1+00561+00161099251ADDAG12999GA1021+003009999GA2021+005409099GF103991031031004501001001MA1099291099011MD1810031+9999REMSYN017 333 81710 83918;MET015NEW TEMPO 5000;EQDQ01+000000PRSWM2
0174039620999991998010404004+52700-008917SY-MT+0020EINN V0200901N00261015001CN0200001N1+00431+00201098501ADDAG12999GA1021+009009999GA2081+015009999GF108991081051008001999999MA1098711098271MD1810741+9999REMSYN023 333 82620 84630 88650;MET020NEW BECMG 5000 BKN01EQDQ01+000000PRSWM2
0202039620999991998010405004+52700-008917SY-MT+0020EINN V0201201N00411015001CN0160001N1+00451+00281098111ADDAG12999AY161051AY221051GA1021+006009999GA2081+015009999GF108991081051004501999999MA1098311097881MD1711002+9999MW1611MW2621REMSYN023 333 83715 83625 88650;MET020NEW BECMG 5000 BKN01EQDQ01+001002APC3  
0226039620999991998010407004+52700-008917SY-MT+0020EINN V0200701N00361006001CN0250001N1+00481+00281097061ADDAG12999AY161999AY221999GA1021+003009999GA2021+004509999GA3071+006009999GF199999061061004501999999MA1097191096831MD1711441+9999MW1211MW2611OC101651REMSYN023 333 81710 83715 85620;MET020NEW TEMPO 5000 BKN01EQDQ01+000062SCOTCV
0199039620999991998010408004+52700-008917SY-MT+0020EINN V0200501N00261003601CN0250001N1+00451+00251096811ADDAG12999AY161999AY221999GA1021+001509999GA2071+003609999GA3071+006609999GF107991071051004501999999MA1096881096581MD1711301+9999MW1211MW2611REMSYN023 333 82715 84620 87632;MET020NEW TEMPO 5000 BKN01
0228039620999991998010409004+52700-008917SY-MT+0020EINN V0203501N00311012001CN0200001N1+00441+00291096771ADDAG12001AY161031AY221031GA1021+003009999GA2021+006009999GA3071+012009999GF108991081051004501999999MA1096721096541MD1510722+9999MW1211REMSYN023 333 81710 85621 87645;MET020NEW TEMPO 5000 BKN01EQDQ01+000722APC3  Q02+000000PRSWM2
0212039620999991998010410004+52700-008917SY-MT+0020EINN V0203401N00511006301CN0200001N1+00361+00211096981ADDAG12999AY161011AY221011GA1021+003009999GA2071+006309999GA3071+009009999GF107991071061002501999021MA1096821096751MD1510081+9999MW1601REMSYN023 333 83707 84712 86640;MET020NEW TEMPO 5000 BKN01EQDQ01+000000PRSWM2
0228039620999991998010411004+52700-008917SY-MT+0020EINN V0203201N00671002701CN0080001N1+00251+00041097461ADDAG12999AY171021AY261021GA1021+001809999GA2071+002709999GA3071+003609999GF108991081061001501999999MA1097091097231MD1310651+9999MW1611MW2681REMSYN029 333 83705 86709 87712 91120;MET043NEW TEMPO 32035G55KT 3000 RA SCT005 OVC010;
0242039620999991998010412004+52700-008917SY-MT+0020EINN V0203101N00621003001CN0120001N1+00351+00151097951ADDAA106002091AG12001AY171061AY261061GA1021+001809999GA2071+003009999GA3071+004209999GF108991081061002501999999MA1097701097721MD1311181+9999MW1611MW2681OC101951REMSYN035 333 82706 85709 87714 90710 91122;MET032NEW TEMPO 32035G55KT 3000 BKN006
0217039620999991998010413004+52700-008917SY-MT+0020EINN V0203001N00461002701CN0140001N1+00331+00121098221ADDAG12999AY171011AY261011GA1021+001809999GA2071+002709999GA3071+004209999GF108991041061002501021999MA1098101097991MD1211241+9999MW1611MW2711REMSYN029 333 82707 84710 88556 91117;MET032NEW TEMPO 32035K55KT 3000 BKN006
0199039620999991998010414004+52700-008917SY-MT+0020EINN V0202801N00411018001CN0180001N1+00411+00181098361ADDAG12999AY161021AY221021GA1021+002109999GA2081+018009999GF108991999061002501021999MA1098211098131MD1210901+9999MW1601MW2611REMSYN023 333 82707 84716 88458;MET017NEW TEMPO BKN010;EQDQ01+000082SCOTLC
0187039620999991998010415004+52700-008917SY-MT+0020EINN V0202601N00211005401CN0150001N1+00411+00261098461ADDAG12001AY181031AY271031GA1021+002109999GA2071+005409999GA3071+015009999GF107991061081002501021999MA1098411098231MD1210511+9999MW1251MW2801REMSYN023 333 81707 84818 85650;MET008NEW NOSI
0214039620999991998010416004+52700-008917SY-MT+0020EINN V0202501N00211015001CN0250001N1+00431+00201098621ADDAG12999AY181011AY221011GA1021+002409999GA2021+006009999GA3071+015009999GF107991061081004501999021MA1098511098391MD1210401+9999MW1251OC101341REMSYN029 333 81710 84820 85650 91117;MET008NEW NOSIEQDQ01+000000PRSWM2
0200039620999991998010417004+52700-008917SY-MT+0020EINN V0202801N00261060001CN0250001N1+00491+00161098751ADDAG12999AY181021AY221021GA1021+005409099GA2071+060009999GF199999041091004501001021MA1098611098511MD1210381+9999MW1251REMSYN023 333 81710 84918 85070;MET008NEW NOSIEQDQ01+000062SCOTCVQ02+000000PRSWM2
0219039620999991998010418004+52700-008917SY-MT+0020EINN V0202501N00261220001CN0200001N1+00491+00021098861ADDAA106000091AA299006091AG12001AY181061AY271061GA1021+003009999GA2021+005409099GF102991021031004501001001KA1120M+00581MA1098821098621MD1210391+9999MW1011REMSYN023 333 10058 81710 81918;MET008NEW NOSIEQDQ01+000000PRSWM2
0222039620999991998010419004+52700-008917SY-MT+0020EINN V0202601N00311012001CN0200001N1+00471+00111098931ADDAG12999AY181011AY221011GA1021+003009999GA2021+005409099GA3071+012009999GF199999051031002501001001MA1098821098691MD1110301+9999MW1271REMSYN029 333 81708 83918 85640 96487;MET008NEW NOSIEQDQ01+000052SCOTCVQ02+000000PRSWM2
0189039620999991998010420004+52700-008917SY-MT+0020EINN V0202601N00411005401CN0120001N1+00531+00151099031ADDAG12999AY181021AY221021GA1021+002409999GA2071+005409099GA3071+012009999GF107991071031002501999999MA1098921098791MD1210281+9999MW1801OC101591REMSYN023 333 83708 85918 85640;MET008NEW NOSI
0167039620999991998010420304+52700-008917FM-15+0020EINN V0202501N004610120019N0112651N1+00501+00201099041ADDAG12000GA1021+002409999GA2021+005409099GA3071+012009999GF107991999999999999999999MA1098981098801REMMET008NEW NOSIEQDQ01+999990APOSP Q02+999990APOSLPQ03+000000PRSWM2
0135039620999991998010421304+52700-008917FM-15+0020EINN V0202301N00871220001CN0112651N1+00501+00101099141ADDAG12999GA1021+005409099GF102991999999999999999999MA1099091098901REMMET008NEW NOSIEQDQ01+999990APOSP Q02+999990APOSLPQ03+000000PRSWM2
0184039620999991998010423004+52700-008917SY-MT+0020EINN V0202801N00261002101CN0080001N1+00481+00181099281ADDAG12999AY181021AY211021GA1021+005409099GA2021+024009999GF108991081031002501999999MA1099191099041MD1210251+9999MW1801REMSYN023 333 82709 87916 96487;MET008NEW NOSIEQDQ01+000000PRSWM2
0203039620999991998010500004+52700-008917SY-MT+0020EINN V0202101N00311004201CN0300001N1+00501+00221099281ADDAA106002091AG10001AY181061AY211061GA1021+004809099GA2021+008409999GF105991051031004501001001MA1099191099041MD1110181+9999MW1251OC101541REMSYN023 333 81916 84628 96487;MET008NEW NOSIEQDQ01+000000PRSWM2
0134039620999991998010502004+52700-008917SY-MT+0020EINN V0201901N00211220001CN0250001N1+00381+00151099171ADDAG12999GA1021+009009999GF102991011051012501021001MA1099091098931MD1710111+9999REMSYN011 333 81630;MET008NEW NOSIEQDQ01+000000PRSWM2
0150039620999991998010503004+52700-008917SY-MT+0020EINN V0201701N00211220001CN0250001N1+00371+00191099081ADDAG12000GA1021+009009999GF199999011051012501001001MA1099091098841MD1710201+9999REMSYN011 333 81630;MET008NEW NOSIEQDQ01+000012SCOTCVQ02+000000PRSWM2
0166039620999991998010504004+52700-008917SY-MT+0020EINN V0201401N00101220001CN0250001N1+00281+00151098921ADDAG12999GA1021+009009999GA2071+015009999GF199999021051012501001001MA1098981098681MD1710331+9999REMSYN011 333 81630;MET008NEW NOSIEQDQ01+000022SCOTCVQ02+000000PRSWM2
0156039620999991998010505004+52700-008917SY-MT+0020EINN V0200801N00101015001CN0250001N1+00271+00081098811ADDAG12999GA1021+009009999GA2071+015009999GF107991071051012501999999MA1098821098571MD1710361+9999REMSYN017 333 83630 86650;MET008NEW NOSIEQDQ01+000000PRSWM2
0263039620999991998010506004+52700-008917SY-MT+0020EINN V0200801N00151012001CN0250001N1+00351+00121098701ADDAA106999999AA299002091AG10001AY111061AY211061GA1021+007509999GA2081+012009999GF108991081051008001999999GJ100009IA1099IA2999-00109KA1120N+00251MA1098711098471MD1710371+9999MW1601MW2611REMSYN035 333 20025 31101 55000 84625 88640;MET008NEW NOSIEQDQ01  00002PRCP06
0159039620999991998010507004+52700-008917SY-MT+0020EINN V0201001N00211010501CN0200001N1+00381+00181098621ADDAG12999AY161011AY261011GA1021+004509999GA2081+010509999GF108991081061004501999999MA1098611098391MD1710291+9999MW1611REMSYN017 333 82710 88630;MET008NEW NOSI
0159039620999991998010508004+52700-008917SY-MT+0020EINN V0200301N00101009001CN0250001N1+00361+00161098581ADDAG12999AY161021AY261021GA1021+004509999GA2081+009009999GF108991081051004501999999MA1098511098351MD1510221+9999MW1611REMSYN017 333 83715 88630;MET008NEW NOSI
0231039620999991998010509004+52700-008917SY-MT+0020EINN V0203401N00211024001CN0250001N1+00301+00111098691ADDAG12001AY161031AY261031GA1021+006009999GA2021+009009999GA3081+024009999GF199999061051008001071999MA1098651098461MD1510011+9999MW1211MW2611REMSYN023 333 83620 85650 87458;MET017NEW Q098 6 NOSIG;EQDQ01+000072SCOTCVQ02+999990APOA  
0178039620999991998010510004+52700-008917SY-MT+0020EINN V0203401N00261015001CN0250001N1+00271+00081098891ADDAG12999GA1021+006009999GA2071+015009999GA3071+030009999GF107991051051008001031999MA1098821098651MD1310261+9999REMSYN023 333 82620 85650 87358;MET008NEW NOSIEQDQ01+000000PRSWM2
0178039620999991998010511004+52700-008917SY-MT+0020EINN V0203201N00211027001CN0250001N1+00291+00081099091ADDAG12999GA1021+005409999GA2021+015009999GA3071+027009999GF107991031081004501031999MA1098921098851MD1210501+9999REMSYN023 333 81818 83650 86359;MET008NEW NOSIEQDQ01+000000PRSWM2
0227039620999991998010512004+52700-008917SY-MT+0020EINN V0203201N00151027001CN0300001N1+00391+00161099291ADDAA106002091AG12001AY161061AY221061GA1021+005409099GA2021+015009999GA3071+027009999GF199999031081004501031021MA1099191099051MD1210591+9999MW1011REMSYN023 333 81818 83650 85359;MET008NEW NOSIEQDQ01+000062SCOTCVQ02+000000PRSWM2
0156039620999991998010513004+52700-008917SY-MT+0020EINN V0203201N00151030001CN0300001N1+00561+00161099461ADDAG12999GA1021+005409999GA2021+015009999GF106991021081004501031021MA1099291099221MD1210571+9999REMSYN017 333 81818 83359;MET008NEW NOSIEQDQ01+000000PRSWM2
0156039620999991998010514004+52700-008917SY-MT+0020EINN V0203301N00261220001CN0300001N1+00711+00221099621ADDAG12999GA1021+005409099GA2021+060009999GF104991011031004501031021MA1099491099381MD1210531+9999REMSYN017 333 81918 83070;MET008NEW NOSIEQDQ01+000000PRSWM2
0156039620999991998010515004+52700-008917SY-MT+0020EINN V0202901N00151075001CN0400001N1+00651+00291099801ADDAG12000GA1021+005409099GA2021+060009999GF105991021031004501001021MA1099701099561MD1210511+9999REMSYN017 333 81918 84070;MET008NEW NOSIEQDQ01+000000PRSWM2
0156039620999991998010516004+52700-008917SY-MT+0020EINN V0203001N00261220001CN0200001N1+00531+00041099921ADDAG12999GA1021+005409099GA2021+060009999GF104991021031004501001021MA1099801099681MD1210461+9999REMSYN017 333 82918 83070;MET008NEW NOSIEQDQ01+000000PRSWM2
0134039620999991998010517004+52700-008917SY-MT+0020EINN V0202901N00151220001CN0300001N1+00441+00081100081ADDAG12999GA1021+005409099GF103991021091004501001021MA1100001099841MD1210461+9999REMSYN011 333 82918;MET008NEW NOSIEQDQ01+000000PRSWM2
0134039620999991998010519004+52700-008917SY-MT+0020EINN V0202501N00101220001CN0200001N1+00391+00051100301ADDAG11999GA1021+005409099GF103991031081004501001001MA1100201100061MD1210381+9999REMSYN011 333 82818;MET008NEW NOSIEQDQ01+000000PRSWM2
0150039620999991998010520004+52700-008917SY-MT+0020EINN V0202201N00211220001CN0200001N1+00351+00091100331ADDAG11999GA1021+006009999GF199999011021008001001001MA1100311100091MD1210251+9999REMSYN011 333 81820;MET008NEW NOSIEQDQ01+000012SCOTCVQ02+000000PRSWM2
0187039620999991998010521004+52700-008917SY-MT+0020EINN V0202801N00311220001CN0200001N1+00401+00141100441ADDAG11000GA1011+007509059GF103991011051008001001021MA1100411100201MD1210241+9999OC101181REMSYN017 333 81625 83070;MET031NEW 9 FEW020 04/01 Q1004 NOSIG;EQDQ01+999990APOA  Q02+000000PRSWM2
0172039620999991998010522004+52700-008917SY-MT+0020EINN V0202401N00101220001CN0300001N1+00351+00151100501ADDAG12999AY181011AY201011GA1021+006009999GF102991001001999999001011MA1100411100261MD1210201+9999MW1251REMSYN011 333 82070;MET008NEW NOSIEQDQ01+000992SCOLCBQ02+000000PRSWM2
0150039620999991998010523004+52700-008917SY-MT+0020EINN V0201601N00101220001CN0300001N1+00251+00071100511ADDAG11999GA1021+010509999GF199999011051012501001001MA1100511100271MD1110181+9999REMSYN011 333 81635;MET008NEW NOSIEQDQ01+000012SCOTCVQ02+000000PRSWM2
0189039620999991998010600004+52700-008917SY-MT+0020EINN V0201201N00151220001CN0300001N1+00211+00021100471ADDAA106999929AG11001AY181061AY201061GA1021+010509999GF199999011051012501001001MA1100411100231MD1010031+9999MW1021REMSYN017 333 81640 92600;MET008NEW NOSIEQDQ01+000012SCOTCVQ02+000000PRSWM2
0126039620999991998010601004+52700-008917SY-MT+0020EINN V0201201N00211220001CN0250001N1+00101-00041100431ADDAG11999GF100991001001999999001001MA1100411100191MD1810071+9999REMSYN011 333 92600;MET016NEW CAVOK NOSIG;EQDQ01+000000PRSWM2
0126039620999991998010602004+52700-008917SY-MT+0020EINN V0201301N00211220001CN0250001N1+00131-00041100341ADDAG11999GF100991001001999999001001MA1100311100101MD1710171+9999REMSYN011 333 92600;MET016NEW CAVOK NOSIG;EQDQ01+000000PRSWM2
0162039620999991998010604004+52700-008917SY-MT+0020EINN V0201201N00261024001CN0250001N1+00221+00061100051ADDAG11999GA1021+012009999GA2071+024009999GF108991051051004501071999MA1100101099811MD1710381+9999REMSYN023 333 82715 84640 88458;MET008NEW NOSIEQDQ01+000000PRSWM2
0200039620999991998010605004+52700-008917SY-MT+0020EINN V0201201N00261024001CN0200001N1+00381+00181099901ADDAG12999AY161051AY221051GA1021+004509999GA2021+009009999GA3081+024009999GF108991081051004501999999MA1099901099661MD1710441+9999MW1601REMSYN023 333 81710 83630 88650;MET008NEW NOSIEQDQ01+000000PRSWM2
0295039620999991998010606004+52700-008917SY-MT+0020EINN V0201201N00311015001CN0200001N1+00441+00341099661ADDAA106999999AA299001091AG12001AY161061AY211061GA1021+003009999GA2021+009009999GA3081+015009999GF108991081051004501999999GJ101389IA1099IA2999-00209KA1120N+00101MA1099701099421MD1710582+9999MW1611REMSYN041 333 20010 31102 55023 81710 83627 88650;MET008NEW NOSIEQDQ01+000582APC3  Q02  00002PRCP06
0181039620999991998010607004+52700-008917SY-MT+0020EINN V0201201N00361015001CN0200001N1+00581+00391099461ADDAG12999AY161011AY261011GA1021+003009999GA2021+008109999GA3081+015009999GF108991081051004501999999MA1099491099221MD1710591+9999MW1611REMSYN023 333 83715 85626 88650;MET008NEW NOSI
0200039620999991998010608004+52700-008917SY-MT+0020EINN V0201501N00511007201CN0200001N1+00691+00511099291ADDAG12999AY161021AY261021GA1021+003909999GA2071+007209999GA3081+015009999GF108991081051004501999999MA1099191099051MD1710611+9999MW1611REMSYN023 333 84713 85624 88650;MET027NEW WS ON APCH RWY24 NOSIG;
0234039620999991998010609004+52700-008917SY-MT+0020EINN V0202001N00411004501CN0080001N1+00801+00691099301ADDAG12001AY161031AY261031GA1021+003009999GA2071+004509999GA3071+007509999GF107991071051001501999999MA1099191099061MD1510361+9999MW1611OA140101131REMSYN047 333 81705 83712 87650 90710 91122 98575 98775;MET026NEW WS RWY24 TEMPO BKN010;
0210039620999991998010610004+52700-008917SY-MT+0020EINN V0202201N00311015001CN0200001N1+00851+00571099361ADDAG12999AY161011AY221011GA1021+003009999GA2021+009009999GA3071+015009999GF199999051081004501001001MA1099291099131MD1510091+9999MW1211REMSYN017 333 81715 83820;MET008NEW NOSIEQDQ01+000052SCOTCVQ02+000000PRSWM2
0178039620999991998010611004+52700-008917SY-MT+0020EINN V0202101N00411012001CN0200001N1+00911+00511099421ADDAG12999AY181021AY221021GA1021+005409999GA2021+013509999GF105991051081008001001001MA1099291099191MD1310141+9999MW1251REMSYN017 333 81820 85645;MET008NEW NOSIEQDQ01+000000PRSWM2
0173039620999991998010612004+52700-008917SY-MT+0020EINN V0202001N00311012001CN0200001N1+00981+00591099421ADDAA106002091AG12001AY181061AY261061GA1021+006009999GF105991051081008001001001MA1099391099191MD1110131+9999MW1021REMSYN017 333 81820 85645;MET008NEW NOSIEQDQ01+000000PRSWM2
0135039620999991998010613004+52700-008917FM-15+0020EINN V0202101N00821220001CN0112651N1+01001+00401099341ADDAG12999GA1021+006009999GF102991999999999999999999MA1099291099101REMMET008NEW NOSIEQDQ01+999990APOSP Q02+999990APOSLPQ03+000000PRSWM2
0150039620999991998010614004+52700-008917SY-MT+0020EINN V0202001N00311220001CN0300001N1+01031+00441099371ADDAG12999GA1021+006009999GF199999011081008001001021MA1099291099141MD1810051+9999REMSYN011 333 81820;MET008NEW NOSIEQDQ01+000012SCOTCVQ02+000000PRSWM2
0197039620999991998010616004+52700-008917SY-MT+0020EINN V0202401N00571005401CN0050001N1+00691+00441099411ADDAG12999AY181041AY211041GA1021+002409999GA2071+005409099GF107991071091002501999999MA1099391099181MD1310021+9999MW1171MW2811MW3951OC101851REMSYN023 333 82708 87918 91119;MET020NEW BECMG 9999 SCT01
0179039620999991998010617004+52700-008917SY-MT+0020EINN V0201801N00261220001CN0300001N1+00541+00291099291ADDAG12999AY191051AY281051GA1021+003009999GA2021+005409099GF103991031091004501001021MA1099291099061MD1810081+9999MW1291REMSYN011 333 82918;MET015NEW RETS NOSIG;EQDQ01+000000PRSWM2
0229039620999991998010618004+52700-008917SY-MT+0020EINN V0201401N00211220001CN0300001N1+00581+00341099281ADDAA106000091AA299004091AG12002AY191061AY281061GA1021+005409099GA2071+018009999GF199999021031004501001001KA1120M+01031MA1099291099041MD1710081+9999MW1011REMSYN017 333 10103 81918;MET008NEW NOSIEQDQ01+000022SCOTCVQ02+000000PRSWM2
0178039620999991998010619004+52700-008917SY-MT+0020EINN V0201901N00311004201CN0200001N1+00631+00291099251ADDAG12999AY181011AY211011GA1021+005409099GA2021+060009999GF107991071031004501999999MA1099191099011MD1710171+9999MW1801REMSYN017 333 83918 85640;MET008NEW NOSIEQDQ01+000000PRSWM2
0178039620999991998010620004+52700-008917SY-MT+0020EINN V0202001N00361030001CN0300001N1+00601+00261099211ADDAG12999AY181021AY221021GA1021+005409099GA2021+045009999GF106991011031004501031021MA1099191098971MD1710091+9999MW1251REMSYN017 333 81918 83358;MET008NEW NOSIEQDQ01+000000PRSWM2
0172039620999991998010621004+52700-008917SY-MT+0020EINN V0201701N00411220001CN0300001N1+00591+00271099191ADDAG12001AY181031AY211031GA1021+009009999GF199999011051012501001001MA1099091098951MD1710091+9999MW1011REMSYN011 333 81640;MET008NEW NOSIEQDQ01+000012SCOTCVQ02+000000PRSWM2
0162039620999991998010622004+52700-008917SY-MT+0020EINN V0201801N00311220001CN0300001N1+00561+00371099221ADDAG12999AY181011AY211011GA1021+012009999GF104991041031004501001001MA1099091098981MD1510031+9999MW1801REMSYN017 333 82918 83640;MET008NEW NOSIEQDQ01+000000PRSWM2
0178039620999991998010623004+52700-008917SY-MT+0020EINN V0201901N00261004201CN0300001N1+00581+00371099201ADDAG12999AY181021AY221021GA1021+005409099GA2021+012609999GF105991051031004501999999MA1099091098961MD1710011+9999MW1251REMSYN017 333 82918 84642;MET008NEW NOSIEQDQ01+000000PRSWM2
0217039620999991998010700004+52700-008917SY-MT+0020EINN V0202001N00361012001CN0300001N1+00621+00331099181ADDAA106000191AG12001AY181061AY211061GA1021+002709999GA2021+005409099GA3071+012009999GF199999051031002501999999MA1099191098941MD1810011+9999MW1251MW2801REMSYN023 333 81709 83918 85640;MET008NEW NOSIEQDQ01+000052SCOTCV
0135039620999991998010700304+52700-008917FM-15+0020EINN V0201801N00721220001CN0112651N1+00601+00201099141ADDAG12999GA1021+005409099GF102991999999999999999999MA1099091098901REMMET008NEW NOSIEQDQ01+999990APOSP Q02+999990APOSLPQ03+000000PRSWM2
0178039620999991998010702004+52700-008917SY-MT+0020EINN V0202101N00261004201CN0300001N1+00571+00231099161ADDAG12999AY181021AY211021GA1021+005409099GA2021+010809999GF105991051031004501001001MA1099091098921MD1610041+9999MW1251REMSYN017 333 83918 83635;MET008NEW NOSIEQDQ01+000000PRSWM2
0180039620999991998010703004+52700-008917SY-MT+0020EINN V0201901N00261220001CN0300001N1+00461+00291099171ADDAG12001AY181031AY211031GA1021+005409099GA2021+010509999GF102991021031004501001001MA1099091098931MD1610011+9999MW1251OC101441REMSYN011 333 82918;MET008NEW NOSIEQDQ01+000000PRSWM2
0159039620999991998010704004+52700-008917SY-MT+0020EINN V0202101N00411004201CN0200001N1+00431+00171099181ADDAG12999AY181011AY211011GA1021+005409099GA2021+010509999GF105991051031004501001001MA1099191098941MD1010021+9999MW1801REMSYN017 333 83918 83635;MET008NEW NOSI
0172039620999991998010705004+52700-008917SY-MT+0020EINN V0201601N00211220001CN0200001N1+00381+00151099181ADDAG12999AY181021AY211021GA1021+005409099GA2021+010509999GF104991041031008001001001MA1099091098941MD1210021+9999MW1251REMSYN011 333 83920;MET008NEW NOSIEQDQ01+000000PRSWM2
0235039620999991998010706004+52700-008917SY-MT+0020EINN V0200401N00101007501CN0200001N1+00461+00211099231ADDAA106000091AA299000591AG12001AY181061AY211061GA1021+006009099GF106991061031008001999999GJ102169IA1099IA2999+00209KA1120N+00351MA1099091098991MD1210061+9999MW1031REMSYN029 333 20035 31002 55036 84920;MET008NEW NOSIEQDQ01+000000PRSWM2
0134039620999991998010707004+52700-008917SY-MT+0020EINN V0201901N00311220001CN0200001N1+00421+00161099211ADDAG12999GA1021+006009099GF102991021031008001001001MA1099191098971MD1210031+9999REMSYN011 333 82920;MET008NEW NOSIEQDQ01+000000PRSWM2
0134039620999991998010708004+52700-008917SY-MT+0020EINN V0202101N00261220001CN0200001N1+00461+00041099281ADDAG12999GA1021+006009099GF103991031031008001001021MA1099191099041MD1210101+9999REMSYN011 333 82920;MET008NEW NOSIEQDQ01+000000PRSWM2
0140039620999991998010709004+52700-008917SY-MT+0020EINN V0201901N00311220001CN0300001N1+00361+00071099311ADDAG12000GA1021+006009099GF103991031031004501001021MA1099191099071MD1310081+9999REMSYN017 333 81712 83918;MET008NEW NOSIEQDQ01+000000PRSWM2
0191039620999991998010710004+52700-008917SY-MT+0020EINN V0202301N00511005401CN0080001N1+00481+00181099441ADDAG12999AY181011AY211011GA1021+002709999GA2071+005409099GF107991071091002501999999MA1099391099201MD1310231+9999MW1801OC101591REMSYN041 333 84709 87918 96487 98170 98370 98770;MET008NEW NOSI
0165039620999991998010711004+52700-008917SY-MT+0020EINN V0202101N00411004201CN0090001N1+00311+00181099511ADDAG12999AY181021AY221021GA1071+004209999GA2071+005409099GF107991071091002501999999MA1099391099271MD1210231+9999MW1801REMSYN023 333 83708 87916 96487;MET008NEW NOSI
0195039620999991998010712004+52700-008917SY-MT+0020EINN V0201801N00311030001CN0300001N1+00401+00251099441ADDAA106003091AG12001AY181061AY211061GA1021+004809099GA2021+024009999GF107991041091004501071999MA1099391099201MD1010131+9999MW1251REMSYN023 333 82916 87458 96487;MET008NEW NOSIEQDQ01+000000PRSWM2
0194039620999991998010713004+52700-008917SY-MT+0020EINN V0201901N00311024001CN0300001N1+00471+00251099421ADDAG12999AY181011AY221011GA1021+004809099GA2071+024009999GF199999041091004501071999MA1099391099181MD1810021+9999MW1251REMSYN017 333 81710 84916;MET008NEW NOSIEQDQ01+000062SCOTCVQ02+000000PRSWM2
0167039620999991998010714004+52700-008917SY-MT+0020EINN V0202301N00511004201CN0250001N1+00531+00091099401ADDAG12999AY181021AY281021GA1021+005409099GA2021+024009999GF107991061031004501031999MA1099291099161MD1610111+9999MW1801OC101441REMSYN017 333 82712 85918;MET008NEW NOSI
0170039620999991998010715004+52700-008917SY-MT+0020EINN V0202301N00511220001CN0300001N1+00561+00131099421ADDAG12001AY181031AY221031GA1021+005409099GF104991031031004501031001MA1099291099181MD1510021+9999MW1251OC101341REMSYN017 333 83918 83359;MET008NEW NOSIEQDQ01+000000PRSWM2
0156039620999991998010716004+52700-008917SY-MT+0020EINN V0202201N00311007501CN0300001N1+00491+00161099491ADDAG12999GA1021+005409099GA2021+018009999GF107991071031008001999999MA1099391099251MD1310071+9999REMSYN017 333 81920 86656;MET008NEW NOSIEQDQ01+000000PRSWM2
0162039620999991998010717004+52700-008917SY-MT+0020EINN V0202101N00461015001CN0200001N1+00521+00021099541ADDAG12999GA1021+006009999GA2071+015009999GF107991051081008001001021MA1099491099301MD1310141+9999REMSYN023 333 81820 85650 85070;MET008NEW NOSIEQDQ01+000000PRSWM2
0241039620999991998010718004+52700-008917SY-MT+0020EINN V0202101N00411015001CN0250001N1+00381+00091099611ADDAA106000091AA299003091AG12001AY181061AY211061GA1021+005409999GA2021+009609999GA3071+015009999GF107991071081004501001021KA1120M+00591MA1099591099371MD1210191+9999MW1021REMSYN029 333 10059 82818 83632 86650;MET008NEW NOSIEQDQ01+000000PRSWM2
0200039620999991998010719004+52700-008917SY-MT+0020EINN V0202101N00411015001CN0250001N1+00411+00091099691ADDAG12999AY181011AY221011GA1021+005409999GA2021+009609999GA3071+015009999GF107991071081002501999999MA1099591099451MD1210201+9999MW1801REMSYN023 333 82709 85818 87637;MET008NEW NOSIEQDQ01+000000PRSWM2
0189039620999991998010720004+52700-008917SY-MT+0020EINN V0202001N00411009601CN0150001N1+00341+00101099751ADDAG12999AY181021AY281021GA1021+002709999GA2021+005409999GA3071+009609999GF107991071081002501999999MA1099701099511MD1210211+9999MW1801OC101341REMSYN023 333 82709 83818 86632;MET008NEW NOSI
0181039620999991998010721004+52700-008917SY-MT+0020EINN V0202501N00311009601CN0180001N1+00381+00231099851ADDAG12001AY181031AY221031GA1021+002709999GA2021+005409999GA3071+009609999GF108991081081002501999999MA1099701099611MD1210241+9999MW1801REMSYN023 333 82709 85818 87632;MET008NEW NOSI
0178039620999991998010722004+52700-008917SY-MT+0020EINN V0202401N00311005401CN0200001N1+00551+00061099901ADDAG12999AY181011AY221011GA1021+003009999GA2071+005409099GF108991081091002501999999MA1099801099661MD1210211+9999MW1871REMSYN017 333 83709 88915;MET008NEW NOSIEQDQ01+000000PRSWM2
0223039620999991998010800004+52700-008917SY-MT+0020EINN V0201901N00151009001CN0200001N1+00431+00201100101ADDAA106001091AG12002AY191061AY281061GA1021+003009999GA2021+005409099GA3071+009009999GF199999061091004501999999MA1100001099861MD1210251+9999MW1251MW2801REMSYN029 333 81710 82918 85630 96487;MET008NEW NOSIEQDQ01+000062SCOTCV
0162039620999991998010801004+52700-008917SY-MT+0020EINN V0201701N00261004201CN0200001N1+00491+00111100081ADDAG12999GA1021+005409099GA2021+009009999GF107991071031004501999999MA1100001099841MD1010181+9999REMSYN023 333 81918 84630 85650;MET008NEW NOSIEQDQ01+000000PRSWM2
0178039620999991998010802004+52700-008917SY-MT+0020EINN V0201601N00311015001CN0200001N1+00561+00221100021ADDAG12999GA1021+006009999GA2021+009009999GA3071+015009999GF107991051081008001071999MA1100001099781MD1010001+9999REMSYN023 333 81820 84650 86459;MET008NEW NOSIEQDQ01+000000PRSWM2
0200039620999991998010803004+52700-008917SY-MT+0020EINN V0201601N00311027001CN0200001N1+00641+00401099911ADDAG12001AY161031AY221031GA1021+006009999GA2021+015009999GA3071+027009999GF107991041081008001071999MA1099901099671MD1810191+9999MW1611REMSYN023 333 81820 84650 87459;MET008NEW NOSIEQDQ01+000000PRSWM2
0200039620999991998010804004+52700-008917SY-MT+0020EINN V0201401N00211027001CN0200001N1+00631+00421099821ADDAG12999AY161011AY221011GA1021+007509999GA2021+015009999GA3071+027009999GF108991041051008001021999MA1099801099581MD1710261+9999MW1601REMSYN023 333 81625 84650 87459;MET008NEW NOSIEQDQ01+000000PRSWM2
0181039620999991998010805004+52700-008917SY-MT+0020EINN V0201501N00211024001CN0150001N1+00641+00501099631ADDAG12999AY161021AY261021GA1021+006009999GA2021+015009999GA3071+024009999GF108991081051004501999999MA1099701099401MD1810381+9999MW1631REMSYN023 333 82715 85620 88650;MET008NEW NOSI
0279039620999991998010806004+52700-008917SY-MT+0020EINN V0200701N00151006001CN0040001N1+00651+00581099421ADDAA106999999AA299009091AG12004AY161061AY221061GA1021+004509999GA2071+006009999GA3081+015009999GF108991081061002501999999GJ100129IA1129IA2999+00109KA1120N+00311MA1099391099181MD1810491+9999MW1651REMSYN041 333 20031 33001 55002 83706 86714 88620;MET008NEW NOSIEQDQ01  00002PRCP06
0205039620999991998010807004+52700-008917SY-MT+0020EINN V0200301N00051002701CN0150001N1+00681+00591099361ADDAA124672092AG12999AY161011AY261011GA1021+001209999GA2071+002709999GA3081+004209999GF199999061061002501999999MA1099291099121MD1510461+9999MW1611MW2651REMSYN011 333 76715;MET008NEW NOSIEQDQ01+000062SCOTCV
0210039620999991998010808004+52700-008917SY-MT+0020EINN V0203301N00151002101CN0300001N1+00551+00441099671ADDAG12999AY161021AY221021GA1021+001509999GA2071+002109999GA3071+004209999GF199999051061002501001021MA1099491099431MD1310031+9999MW1211REMSYN017 333 82709 85715;MET008NEW NOSIEQDQ01+000062SCOTCVQ02+000000PRSWM2
0200039620999991998010809004+52700-008917SY-MT+0020EINN V0203101N00101004201CN0300001N1+00521+00421099861ADDAG12001AY161031AY221031GA1021+002409999GA2071+004209999GA3071+005709999GF107991071061002501999999MA1099701099621MD1310441+9999MW1031REMSYN023 333 81708 85714 86650;MET008NEW NOSIEQDQ01+000000PRSWM2
0167039620999991998010809304+52700-008917FM-15+0020EINN V0202301N00211009001CN0112651N1+00501+00401099951ADDAG12999GA1021+004209999GA2071+009009999GA3071+015009999GF107991999999999999999999MA1099901099711REMMET008NEW NOSIEQDQ01+999990APOSP Q02+999990APOSLPQ03+000000PRSWM2
0178039620999991998010811004+52700-008917SY-MT+0020EINN V0201701N00151015001CN0250001N1+00591+00481100131ADDAG12999GA1021+003009999GA2021+004809999GA3071+015009999GF107991071051004501999999MA1100101099891MD1110461+9999REMSYN023 333 82715 85630 86650;MET008NEW NOSIEQDQ01+000000PRSWM2
0181039620999991998010813004+52700-008917SY-MT+0020EINN V0201701N00151003901CN0090001N1+00761+00611100111ADDAG12999AY161041AY261041GA1021+002109999GA2071+003909999GA3071+006609999GF108991081061002501999999MA1100101099871MD1010061+9999MW1611REMSYN023 333 83707 85710 87714;MET008NEW NOSI
0159039620999991998010814004+52700-008917SY-MT+0020EINN V0201401N00151006001CN0200001N1+00741+00611100021ADDAG12999AY161051AY261051GA1021+003009999GA2081+006009999GF108991041061004501021999MA1100001099781MD1810111+9999MW1611REMSYN017 333 84710 88522;MET008NEW NOSI
0165039620999991998010815004+52700-008917SY-MT+0020EINN V0201401N00261003001CN0070001N1+00801+00711099891ADDAG12001AY161031AY261031GA1071+003009999GA2081+006609999GF108991071061002501021999MA1099901099651MD1810241+9999MW1611REMSYN023 333 83707 86710 88517;MET008NEW NOSI
0181039620999991998010816004+52700-008917SY-MT+0020EINN V0202001N00411003601CN0090001N1+01031+00951099891ADDAG12999AY161011AY261011GA1021+002109999GA2071+003609999GA3081+006609999GF108991071061002501021999MA1099801099651MD1610221+9999MW1611REMSYN023 333 83709 85715 88525;MET008NEW NOSI
0181039620999991998010817004+52700-008917SY-MT+0020EINN V0202101N00461003601CN0070001N1+01111+00951099941ADDAG12999AY161021AY261021GA1021+002109999GA2071+003609999GA3081+006009999GF108991051061002501021999MA1099901099701MD1510081+9999MW1611REMSYN023 333 83707 84712 88520;MET008NEW NOSI
0241039620999991998010818004+52700-008917SY-MT+0020EINN V0202101N00511003301CN0080001N1+01141+00961100031ADDAA106999999AA299010091AG12001AY161061AY261061GA1021+002409999GA2071+003309999GA3071+007809999GF108991081061002501999999KA1120M+01141MA1099901099791MD1310141+9999MW1611REMSYN029 333 10114 83707 85710 87626;MET008NEW NOSIEQDQ01  00002PRCP06
0209039620999991998010819004+52700-008917SY-MT+0020EINN V0202001N00411004501CN0180001N1+01131+00931100091ADDAG12999AY161011AY221011GA1021+003009999GA2071+004509999GA3071+006609999GF108991081061004501999999MA1100001099851MD1210201+9999MW1211REMSYN023 333 83712 86718 87625;MET017NEW TEMPO BKN020;EQDQ01+000000PRSWM2
0187039620999991998010820004+52700-008917SY-MT+0020EINN V0201901N00411005401CN0140001N1+01131+00951100181ADDAG12999AY161021AY221021GA1021+002709999GA2071+005409999GA3071+007209999GF108991081061002501999999MA1100101099941MD1210241+9999MW1601MW2611REMSYN023 333 83709 86716 87623;MET008NEW NOSI
0203039620999991998010821004+52700-008917SY-MT+0020EINN V0201901N00461004201CN0180001N1+01171+00981100211ADDAG12001AY161031AY221031GA1021+002709999GA2071+004209999GA3071+006009999GF108991081061004501999999MA1100101099971MD1210181+9999MW1211REMSYN017 333 85714 87620;MET017NEW TEMPO BKN020;EQDQ01+000000PRSWM2
0165039620999991998010822004+52700-008917SY-MT+0020EINN V0202001N00461004501CN0180001N1+01191+00961100261ADDAG12999AY161011AY221011GA1071+004509999GA2071+008109999GF108991081051004501999999MA1100201100021MD1210171+9999MW1211MW2611REMSYN017 333 83715 87626;MET008NEW NOSI
0197039620999991998010900004+52700-008917SY-MT+0020EINN V0202001N00511007201CN0200001N1+01221+00941100431ADDAA106000191AG12001AY161061AY221061GA1021+004509999GA2071+007209999GF108991081051004501999999MA1100311100191MD1210221+9999MW1021OC101541REMSYN017 333 83715 87623;MET008NEW NOSIEQDQ01+000000PRSWM2
0156039620999991998010901004+52700-008917SY-MT+0020EINN V0202001N00461006901CN0200001N1+01201+00861100471ADDAG12999GA1021+004509999GA2071+006909999GF108991081051004501999999MA1100411100231MD1210211+9999REMSYN017 333 83715 87623;MET008NEW NOSIEQDQ01+000000PRSWM2
0178039620999991998010902004+52700-008917SY-MT+0020EINN V0202001N00511008101CN0200001N1+01201+00861100431ADDAG12999GA1021+004509999GA2071+008109999GA3071+015009999GF108991081051004501999999MA1100411100191MD1010091+9999REMSYN023 333 82715 86627 87650;MET008NEW NOSIEQDQ01+000000PRSWM2
0156039620999991998010903004+52700-008917SY-MT+0020EINN V0202001N00461007501CN0200001N1+01261+00731100471ADDAG12000GA1071+007509999GA2071+015009999GF108991081051008001999999MA1100411100241MD1310051+9999REMSYN017 333 85625 87650;MET008NEW NOSIEQDQ01+000000PRSWM2
0156039620999991998010904004+52700-008917SY-MT+0020EINN V0202001N00511007501CN0200001N1+01251+00891100491ADDAG12999GA1071+007509999GA2071+015009999GF107991071051008001999999MA1100411100261MD1310031+9999REMSYN017 333 84625 86650;MET008NEW NOSIEQDQ01+000000PRSWM2
0167039620999991998010905004+52700-008917SY-MT+0020EINN V0202001N00511015001CN0200001N1+01271+00871100491ADDAG12999GA1021+008409999GA2071+015009999GF107991071051008001999999MA1100411100261MD1110071+9999REMSYN017 333 84625 87640;MET019NEW WS RWY24 NOSIG;EQDQ01+000000PRSWM2
0246039620999991998010906004+52700-008917SY-MT+0020EINN V0202101N00511010501CN0200001N1+01341+00881100541ADDAA106000091AA299000191AG13000GA1021+007509999GA2071+010509999GF108991081051004501999999GJ100009IA1099IA2999+01009KA1120N+01091MA1100511100311MD1310071+9999REMSYN035 333 20109 31010 55000 84625 87635;MET019NEW WS RWY24 NOSIG;EQDQ01+000000PRSWM2
0167039620999991998010907004+52700-008917SY-MT+0020EINN V0202101N00511010501CN0200001N1+01311+00791100621ADDAG11999GA1021+007509999GA2071+010509999GF108991081051004501999999MA1100511100391MD1210131+9999REMSYN017 333 84625 87635;MET019NEW WS RWY24 NOSIG;EQDQ01+000000PRSWM2
0162039620999991998010908004+52700-008917SY-MT+0020EINN V0202101N00511010501CN0200001N1+01301+00801100661ADDAG11999GA1021+007509999GA2071+010509999GF107991051051008001031999MA1100611100431MD1210171+9999REMSYN023 333 82625 85635 85359;MET008NEW NOSIEQDQ01+000000PRSWM2
0178039620999991998010909004+52700-008917SY-MT+0020EINN V0202001N00511010501CN0200001N1+01301+00911100741ADDAG11000GA1021+007509999GA2071+010509999GA3071+027009999GF107991051051008001031999MA1100711100511MD1210201+9999REMSYN023 333 82625 85635 85359;MET008NEW NOSIEQDQ01+000000PRSWM2
0167039620999991998010909304+52700-008917FM-15+0020EINN V0202001N00981010501CN0112651N1+01301+00901100761ADDAG11999GA1021+007509999GA2071+010509999GA3071+027009999GF107991999999999999999999MA1100711100521REMMET008NEW NOSIEQDQ01+999990APOSP Q02+999990APOSLPQ03+000000PRSWM2
0156039620999991998010911004+52700-008917SY-MT+0020EINN V0201901N00461009001CN0250001N1+01341+00951100851ADDAG11999GA1071+009009999GA2021+027009999GF107991051051012501031021MA1100711100621MD1210191+9999REMSYN017 333 85630 84359;MET008NEW NOSIEQDQ01+000000PRSWM2
0205039620999991998010912004+52700-008917SY-MT+0020EINN V0201801N00511007501CN0250001N1+01351+01051100851ADDAA106999929AG11001AY161061AY221061GA1071+007509999GA2021+060009999GF199999051051008001031021MA1100811100621MD1110111+9999MW1211REMSYN017 333 85622 83070;MET008NEW NOSIEQDQ01+000062SCOTCVQ02+000000PRSWM2
0156039620999991998010913004+52700-008917SY-MT+0020EINN V0201801N00411006601CN0250001N1+01351+01011100811ADDAG11999GA1071+006609999GA2071+009009999GF107991071051008001999999MA1100811100581MD1010051+9999REMSYN017 333 85622 85630;MET008NEW NOSIEQDQ01+000000PRSWM2
0184039620999991998010914004+52700-008917SY-MT+0020EINN V0201901N00511006601CN0080001N1+01291+01081100791ADDAG12999AY161021AY221021GA1021+005109999GA2071+006609999GF108991081061002501999999MA1100711100561MD1810061+9999MW1601REMSYN023 333 83707 85715 87622;MET008NEW NOSIEQDQ01+000000PRSWM2
0196039620999991998010915004+52700-008917SY-MT+0020EINN V0201901N00411004501CN0090001N1+01251+01081100761ADDAG12001AY161031AY251031GA1021+002109999GA2071+004509999GA3071+006609999GF108991081061002501999999MA1100711100531MD1710091+9999MW1501MW2511REMSYN023 333 83707 85715 87622;MET017NEW TEMPO BKN007;
0196039620999991998010916004+52700-008917SY-MT+0020EINN V0201801N00411004501CN0090001N1+01251+01021100741ADDAG12999AY151011AY221011GA1021+002409999GA2071+004509999GA3071+006609999GF107991071061002501999999MA1100711100511MD1710071+9999MW1201MW2511REMSYN023 333 82708 85717 87625;MET017NEW TEMPO BKN007;
0196039620999991998010917004+52700-008917SY-MT+0020EINN V0201901N00511005101CN0090001N1+01241+01031100741ADDAG12999AY161021AY221021GA1021+002409999GA2071+005109999GA3071+007509999GF107991071061002501999999MA1100711100501MD1710061+9999MW1601MW2611REMSYN023 333 82708 85717 87625;MET017NEW TEMPO BKN007;
0256039620999991998010918004+52700-008917SY-MT+0020EINN V0201901N00621005101CN0200001N1+01271+01081100721ADDAA106999999AA299999929AG10001AY161061AY251061GA1021+002409999GA2071+005109999GA3071+009009999GF107991071051002501999999KA1120M+01391MA1100711100491MD1510041+9999MW1501MW2511REMSYN029 333 10139 81708 85620 87630;MET017NEW TEMPO BKN012;EQDQ01  00002PRCP06
0215039620999991998010919004+52700-008917SY-MT+0020EINN V0201801N00671006301CN0250001N1+01251+01001100711ADDAG12999AY151011AY221011GA1021+003909999GA2021+005109999GA3071+006309999GF199999051051004501001001MA1100711100481MD1710031+9999MW1201MW2511REMSYN023 333 81715 85620 91119;MET017NEW TEMPO BKN012;EQDQ01+000052SCOTCV
0165039620999991998010920004+52700-008917SY-MT+0020EINN V0201701N00621006601CN0250001N1+01291+01041100731ADDAG12999GA1021+004209999GA2071+006609999GF108991081051004501999999MA1100711100501MD1510001+9999REMSYN017 333 83714 87622;MET017NEW TEMPO BKN010;EQDQ01+000000PRSWM2
0204039620999991998010921004+52700-008917SY-MT+0020EINN V0201701N00461008401CN0250001N1+01311+01041100771ADDAG12000AY151031AY221031GA1021+004509999GA2021+006309999GA3071+008409999GF108991081051008001999999MA1100711100541MD1310051+9999MW1201MW2511OC101441REMSYN023 333 81621 85635 87650;MET017NEW TEMPO BKN010;
0156039620999991998010922004+52700-008917SY-MT+0020EINN V0201901N00461009001CN0250001N1+01311+01041100791ADDAG12999GA1021+006009999GA2081+009009999GF108991081061004501999999MA1100711100561MD1210081+9999REMSYN017 333 85718 88630;MET008NEW NOSIEQDQ01+000000PRSWM2
0187039620999991998010923004+52700-008917SY-MT+0020EINN V0201901N00361006601CN0250001N1+01291+01081100821ADDAG12999GA1021+004509999GA2071+006609999GA3081+009009999GF108991081061004501999999MA1100811100591MD1210091+9999REMSYN023 333 84715 85620 88630;MET017NEW TEMPO BKN010;EQDQ01+000000PRSWM2
0220039620999991998011000004+52700-008917SY-MT+0020EINN V0201901N00361012001CN0250001N1+01321+01091100791ADDAA106999929AG10000AY151061AY221061GA1021+004509999GA2021+006009999GA3071+012009999GF107991071051004501999999MA1100711100561MD1010021+9999MW1011REMSYN023 333 82715 83620 87640;MET017NEW TEMPO BKN010;EQDQ01+000000PRSWM2
0181039620999991998011001004+52700-008917SY-MT+0020EINN V0202001N00411012001CN0250001N1+01311+01121100821ADDAG12999GA1021+005409999GA2021+007509999GA3071+012009999GF108991081051004501999999MA1100811100591MD1110031+9999REMSYN017 333 83717 87623;MET017NEW TEMPO BKN010;EQDQ01+000000PRSWM2
0187039620999991998011002004+52700-008917SY-MT+0020EINN V0201701N00311006601CN0200001N1+01331+01121100801ADDAG12999AY161021AY251021GA1021+003009999GA2021+005109999GA3071+006609999GF107991071051004501999999MA1100711100571MD1610021+9999MW1511MW2601REMSYN023 333 82717 85622 87640;MET008NEW NOSI
0194039620999991998011003004+52700-008917SY-MT+0020EINN V0201801N00461006601CN0250001N1+01291+01081100801ADDAG12001AY161031AY251031GA1021+005109999GA2071+006609999GA3071+012009999GF108991081051004501999999MA1100711100571MD1010011+9999MW1211REMSYN017 333 84717 87622;MET008NEW NOSIEQDQ01+000000PRSWM2
0208039620999991998011005004+52700-008917SY-MT+0020EINN V0201701N00411004201CN0200001N1+01241+01031100771ADDAG12999AY161021AY221021GA1021+003909999GF108991081061004501999999MA1100711100531MD1810041+9999MW1211REMSYN023 333 83712 85718 86645;MET032NEW SXT018 BKN045 13/11 Q1007 NOEQDQ01+999990APOA  Q02+000000PRSWM2
0269039620999991998011006004+52700-008917SY-MT+0020EINN V0201701N00411003601CN0150001N1+01251+01101100751ADDAA106999999AA299999929AG12001AY161061AY221061GA1071+003609999GA2071+005409999GF108991081061004501999999GJ100009IA1099IA2999+01109KA1120N+01201MA1100711100521MD1710051+9999MW1601MW2611REMSYN041 333 20120 31011 55000 84712 85718 87650;MET008NEW NOSIEQDQ01  00002PRCP06
0187039620999991998011007004+52700-008917SY-MT+0020EINN V0201501N00361015001CN0200001N1+01201+01051100681ADDAG12999AY161011AY221011GA1021+003609999GA2021+005409999GA3071+015009999GF108991081051004501999999MA1100711100441MD1810111+9999MW1211MW2611REMSYN023 333 81712 84718 87650;MET008NEW NOSI
0172039620999991998011008004+52700-008917SY-MT+0020EINN V0201701N00411015001CN0200001N1+01281+01031100711ADDAG12999GA1021+003609999GA2021+005409999GA3071+015009999GF107991071051004501999021MA1100711100481MD1510051+9999REMSYN017 333 83715 86650;MET008NEW NOSIEQDQ01+000000PRSWM2
0184039620999991998011009004+52700-008917SY-MT+0020EINN V0201801N00361015001CN0150001N1+01291+01061100731ADDAG12001AY161031AY221031GA1021+005409999GA2071+015009999GF107991051051004501071021MA1100711100501MD1510021+9999MW1021REMSYN023 333 82716 85650 85459;MET008NEW NOSIEQDQ01+000000PRSWM2
0194039620999991998011010004+52700-008917SY-MT+0020EINN V0201801N00511027001CN0130001N1+01301+01031100671ADDAG12999AY121011AY221011GA1021+004809999GA2021+015009999GA3071+027009999GF107991041051004501031021MA1100711100441MD1010001+9999MW1101REMSYN017 333 83715 83362;MET008NEW NOSIEQDQ01+000000PRSWM2
0178039620999991998011011004+52700-008917SY-MT+0020EINN V0201701N00571036001CN0160001N1+01331+01021100711ADDAG12999GA1021+004809999GA2021+013509999GA3071+036009999GF107991061051004501031999MA1100611100481MD1510001+9999REMSYN023 333 83716 84650 85362;MET008NEW NOSIEQDQ01+000000PRSWM2
0211039620999991998011012004+52700-008917SY-MT+0020EINN V0201701N00511036001CN0200001N1+01361+01061100701ADDAA106000191AG12001AY161061AY221061GA1021+004809999GA2021+009009999GA3071+036009999GF107991041081004501031021MA1100711100471MD1710031+9999MW1031REMSYN023 333 81716 83630 86070;MET008NEW NOSIEQDQ01+000000PRSWM2
0178039620999991998011013004+52700-008917SY-MT+0020EINN V0201801N00571060001CN0220001N1+01411+01051100671ADDAG12999GA1021+004809999GA2021+010509999GA3071+060009999GF107991051081004501031021MA1100611100441MD1010001+9999REMSYN023 333 82716 83640 85070;MET008NEW NOSIEQDQ01+000000PRSWM2
0178039620999991998011014004+52700-008917SY-MT+0020EINN V0201901N00571027001CN0200001N1+01431+01011100661ADDAG12999GA1021+004809999GA2021+012009999GA3071+027009999GF107991031051008001071021MA1100611100431MD1710051+9999REMSYN023 333 81620 85459 87075;MET008NEW NOSIEQDQ01+000000PRSWM2
0178039620999991998011015004+52700-008917SY-MT+0020EINN V0201701N00411027001CN0250001N1+01401+00951100631ADDAG12000GA1021+012009999GA2071+027009999GA3071+075009999GF107991011051012501071021MA1100611100401MD1710071+9999REMSYN023 333 81640 84459 87075;MET008NEW NOSIEQDQ01+000000PRSWM2
0200039620999991998011016004+52700-008917SY-MT+0020EINN V0201601N00411075001CN0250001N1+01391+00861100591ADDAG12999AY161011AY221011GA1021+012009999GA2021+027009999GA3071+075009999GF107991041051012501071021MA1100511100361MD1610081+9999MW1601REMSYN023 333 84645 86459 86075;MET008NEW NOSIEQDQ01+000000PRSWM2
0200039620999991998011017004+52700-008917SY-MT+0020EINN V0201601N00411027001CN0250001N1+01341+00821100591ADDAG12999AY161021AY221021GA1021+013509999GA2071+027009999GA3071+075009999GF107991031051012501071021MA1100611100361MD1710071+9999MW1211REMSYN023 333 83645 85459 86075;MET008NEW NOSIEQDQ01+000000PRSWM2
0219039620999991998011018004+52700-008917SY-MT+0020EINN V0201701N00311027001CN0250001N1+01321+00861100601ADDAA106000091AA299000191AG10001AY161061AY221061GA1021+013509999GA2071+027009999GF107991041051012501071021KA1120M+01461MA1100611100371MD1610031+9999MW1011REMSYN023 333 10146 84645 85459;MET008NEW NOSIEQDQ01+000000PRSWM2
0156039620999991998011019004+52700-008917SY-MT+0020EINN V0201501N00311027001CN0250001N1+01231+00871100531ADDAG12999GA1021+013509999GA2071+027009999GF107991011051012501051999MA1100511100291MD1810071+9999REMSYN017 333 81645 87359;MET008NEW NOSIEQDQ01+000000PRSWM2
0201039620999991998011020004+52700-008917SY-MT+0020EINN V0201501N004112200019N0250001N1+01201+00831100461ADDAG12999GA1031+024009039GF107991031001999999031011MA1100411100221MD1810141+9999REMSYN017 333 83358 86075;MET053NEW 4KT 110V170 9999 SCT090 BKN250 12/08 Q1004 NOSIG;EQDQ01+999990APOA  Q02+000000PRSWM2
0148039620999991998011021004+52700-008917SY-MT+0020EINN V0201601N005112200019N0200001N1+01261+00791100451ADDAG12000GA1031+024009039GF105991031001999999031011MA1100411100221MD1610151+9999REMSYN017 333 83358 83075;MET016NEW CAVOK NOSIG;EQDQ01+000000PRSWM2
0126039620999991998011023004+52700-008917SY-MT+0020EINN V0201601N00361220001CN0250001N1+01161+00861100381ADDAG12999GF101991011001999999031011MA1100411100141MD1710081+9999REMSYN011 333 81358;MET016NEW CAVOK NOSIG;EQDQ01+000000PRSWM2
0137039620999991998011100004+52700-008917SY-MT+0020EINN V0201501N004610300019N0250001N1+01151+00851100271ADDAA106000091AG14000GF106991061001999999071999MA1100201100031MD1710191+9999REMSYN011 333 86458;MET016NEW CAVOK NOSIG;EQDQ01+000000PRSWM2
0172039620999991998011101004+52700-008917SY-MT+0020EINN V0201001N00101024001CN0250001N1+01161+00901100261ADDAG12999GA1021+013509999GA2071+024009999GF199999011051012501071999MA1100201100021MD1710201+9999REMSYN017 333 81645 86458;MET008NEW NOSIEQDQ01+000062SCOTCVQ02+000000PRSWM2
0156039620999991998011102004+52700-008917SY-MT+0020EINN V0201501N00361220001CN0250001N1+01261+00881100081ADDAG12999GA1021+013509999GA2021+024009999GF104991011051012501031001MA1100101099841MD1710301+9999REMSYN017 333 81645 84358;MET008NEW NOSIEQDQ01+000000PRSWM2
0196039620999991998011103004+52700-008917SY-MT+0020EINN V0201501N00511060001CN0200001N1+01241+00901099991ADDAG11000GA1021+013509999GA2021+024009999GA3071+060009999GF107991031001999999031061MA1100001099761MD1710271+9999OC101651REMSYN017 333 83358 86070;MET008NEW NOSIEQDQ01+000992SCOLCBQ02+000000PRSWM2
0200039620999991998011104004+52700-008917SY-MT+0020EINN V0201501N005110240019N0200001N1+01311+00901099921ADDAG11999GA1021+009009059GA2051+024009049GA3061+060009009GF107991021051012501071021MA1099901099691MD1710331+9999OC101591REMSYN029 333 82630 85458 86070 91118;MET016NEW CAVOK NOSIG;EQDQ01+000000PRSWM2
0192039620999991998011105004+52700-008917SY-MT+0020EINN V0201601N00571024001CN0200001N1+01291+00961099821ADDAG12999AY161021AY221021GA1021+008409999GA2071+024009999GF108991051051008001071999MA1099801099591MD1710251+9999MW1601OC101591REMSYN023 333 85628 88458 91118;MET008NEW NOSIEQDQ01+000000PRSWM2
0299039620999991998011106004+52700-008917SY-MT+0020EINN V0201601N00571024001CN0200001N1+01261+01031099751ADDAA106999999AA299999929AG12001AY161061AY221061GA1021+004509999GA2081+024009999GA3071+220009999GF108991061051004501071999GJ100069IA1099IA2999+00909KA1120N+01121MA1099701099521MD1710241+9999MW1601MW2611OC101801REMSYN047 333 20112 31009 55001 82715 85625 88458 91118;MET008NEW NOSIEQDQ01  00002PRCP06
0193039620999991998011107004+52700-008917SY-MT+0020EINN V0201601N00571024001CN0200001N1+01251+00941099691ADDAG12999AY161011AY221011GA1021+004509999GA2021+009009999GA3081+024009999GF108991051051004501071999MA1099701099461MD1710231+9999MW1211MW2611REMSYN029 333 82716 84630 88458 91117;MET008NEW NOSI
0178039620999991998011108004+52700-008917SY-MT+0020EINN V0201601N00621024001CN0200001N1+01271+00961099671ADDAG12999GA1021+006009999GA2021+010509999GA3081+024009999GF108991051051004501071999MA1099591099441MD1610151+9999REMSYN023 333 82716 83630 88458;MET008NEW NOSIEQDQ01+000000PRSWM2
0200039620999991998011109004+52700-008917SY-MT+0020EINN V0201801N00671024001CN0200001N1+01321+00991099691ADDAG12001AY161031AY221031GA1021+005409999GA2021+009009999GA3071+024009999GF107991051051004501071061MA1099591099461MD1610061+9999MW1011REMSYN023 333 83716 83635 85358;MET008NEW NOSIEQDQ01+000000PRSWM2
0170039620999991998011110004+52700-008917SY-MT+0020EINN V0201901N00511030001CN0200001N1+01181+00771099871ADDAG12999GA1021+005409999GA2021+015009999GF107991031051004501021021MA1099801099631MD1310171+9999OC101651REMSYN023 333 81718 86459 91117;MET008NEW NOSIEQDQ01+000000PRSWM2
0195039620999991998011112004+52700-008917SY-MT+0020EINN V0202001N00311075001CN0250001N1+01121+00771100071ADDAA106999929AG12001AY161061AY221061GA1021+007509999GA2071+075009999GF107991051051008001021021MA1100001099831MD1210371+9999MW1021REMSYN023 333 85625 85459 87075;MET008NEW NOSIEQDQ01+000000PRSWM2
0178039620999991998011113004+52700-008917SY-MT+0020EINN V0202001N00361007501CN0250001N1+01131+00711100101ADDAG12999GA1071+007509999GA2071+027009999GA3071+075009999GF107991011051008001021021MA1100001099861MD1210231+9999REMSYN023 333 81625 85459 87075;MET008NEW NOSIEQDQ01+000000PRSWM2
0178039620999991998011115004+52700-008917SY-MT+0020EINN V0202001N00361060001CN0250001N1+01141+00721100121ADDAG12000GA1021+006009999GA2021+009009999GA3071+060009999GF107991021081008001071021MA1100101099891MD1210061+9999REMSYN023 333 81820 83360 85070;MET008NEW NOSIEQDQ01+000000PRSWM2
0172039620999991998011116004+52700-008917SY-MT+0020EINN V0202101N00151220001CN0250001N1+01061+00731100181ADDAG12999GA1021+006009999GA2071+060009999GF199999011081008001031021MA1100101099941MD1310081+9999REMSYN017 333 81820 84070;MET008NEW NOSIEQDQ01+000042SCOTCVQ02+000000PRSWM2
0151039620999991998011116304+52700-008917FM-15+0020EINN V0201901N00311220001CN0112651N1+01001+00701100251ADDAG12999GA1021+006009999GA2021+060009999GF104991999999999999999999MA1100201100011REMMET008NEW NOSIEQDQ01+999990APOSP Q02+999990APOSLPQ03+000000PRSWM2
0191039620999991998011118004+52700-008917SY-MT+0020EINN V0201701N00211220001CN0250001N1+00911+00601100281ADDAA106000091AA299999929AG12000GA1021+006009999GF199999011081008001001001KA1120M+01321MA1100201100041MD1210151+9999REMSYN017 333 10132 81820;MET008NEW NOSIEQDQ01+000012SCOTCVQ02+000000PRSWM2
0150039620999991998011119004+52700-008917SY-MT+0020EINN V0201601N00211220001CN0250001N1+00881+00531100321ADDAG12999GA1021+006009999GF199999011081008001001001MA1100201100081MD1210141+9999REMSYN011 333 81820;MET008NEW NOSIEQDQ01+000012SCOTCVQ02+000000PRSWM2
0150039620999991998011120004+52700-008917SY-MT+0020EINN V0201701N00151220001CN0250001N1+00821+00481100331ADDAG12999GA1021+009009999GF199999011051012501001001MA1100311100091MD1110101+9999REMSYN011 333 81630;MET008NEW NOSIEQDQ01+000012SCOTCVQ02+000000PRSWM2
0150039620999991998011121004+52700-008917SY-MT+0020EINN V0201601N00261220001CN0250001N1+00821+00551100331ADDAG11000GA1021+009009999GF199999011051012501001001MA1100311100091MD1010051+9999REMSYN011 333 81630;MET008NEW NOSIEQDQ01+000012SCOTCVQ02+000000PRSWM2
0150039620999991998011122004+52700-008917SY-MT+0020EINN V0201601N00311220001CN0250001N1+00811+00541100311ADDAG11999GA1021+009009999GF199999011051012501001001MA1100311100071MD1810011+9999REMSYN011 333 81630;MET008NEW NOSIEQDQ01+000012SCOTCVQ02+000000PRSWM2
0150039620999991998011123004+52700-008917SY-MT+0020EINN V0201501N00311220001CN0250001N1+00811+00571100311ADDAG11999GA1021+009009999GF199999011051012501001001MA1100311100071MD1610021+9999REMSYN011 333 81630;MET008NEW NOSIEQDQ01+000012SCOTCVQ02+000000PRSWM2
0145039620999991998011200004+52700-008917SY-MT+0020EINN V0201501N00411220001CN0250001N1+00891+00631100291ADDAA106999929AG13000GA1021+005409999GF102991021051004501001001MA1100201100051MD1810041+9999REMSYN011 333 81718;MET008NEW NOSIEQDQ01+000000PRSWM2
0134039620999991998011201004+52700-008917SY-MT+0020EINN V0201601N00461220001CN0250001N1+00891+00631100171ADDAG11999GA1021+009009999GF103991031051012501001001MA1100201099931MD1810141+9999REMSYN011 333 83630;MET008NEW NOSIEQDQ01+000000PRSWM2
0150039620999991998011202004+52700-008917SY-MT+0020EINN V0201601N00361006601CN0250001N1+00961+00621100101ADDAG11999GA1071+006609999GF199999061051008001999999MA1100001099861MD1710211+9999REMSYN011 333 86622;MET008NEW NOSIEQDQ01+000062SCOTCVQ02+000000PRSWM2
0150039620999991998011203004+52700-008917SY-MT+0020EINN V0201601N00361007501CN0250001N1+01021+00681100031ADDAG11000GA1021+007509999GA2021+024009999GF107991071051008001999999MA1100001099791MD1710261+9999REMSYN011 333 87624;MET008NEW NOSIEQDQ01+000000PRSWM2
0140039620999991998011204004+52700-008917SY-MT+0020EINN V0201601N00461007201CN0250001N1+01091+00671099951ADDAG11999GA1071+007209999GF107991071061004501999999MA1099901099711MD1710221+9999REMSYN017 333 84717 87624;MET008NEW NOSIEQDQ01+000000PRSWM2
0187039620999991998011205004+52700-008917SY-MT+0020EINN V0201701N00511027001CN0120001N1+01051+00811099901ADDAG12999AY151021AY221021GA1021+005109999GA2021+007209999GA3081+027009999GF108991051051004501071999MA1099901099661MD1710201+9999MW1501MW2511REMSYN023 333 82715 84625 88458;MET008NEW NOSI
0295039620999991998011206004+52700-008917SY-MT+0020EINN V0201801N00361009001CN0200001N1+01021+00741099881ADDAA106999999AA299000191AG12000AY151061AY221061GA1021+004509999GA2071+009009999GA3071+024009999GF107991041051004501071999GJ100549IA1099IA2999+00509KA1120N+00781MA1099801099641MD1610151+9999MW1201REMSYN041 333 20078 31005 55009 82715 84630 87458;MET008NEW NOSIEQDQ01+000000PRSWM2Q02  00002PRCP06
0156039620999991998011207004+52700-008917SY-MT+0020EINN V0202001N00511024001CN0200001N1+01001+00571099931ADDAG12999GA1021+009009999GA2071+024009999GF107991031051012501031999MA1099801099691MD1510021+9999REMSYN017 333 83630 85359;MET008NEW NOSIEQDQ01+000000PRSWM2
0156039620999991998011208004+52700-008917SY-MT+0020EINN V0202101N00361027001CN0200001N1+00941+00501100031ADDAG12999GA1021+009009999GA2071+027009999GF107991031051008001031999MA1099901099791MD1310131+9999REMSYN017 333 83625 85359;MET008NEW NOSIEQDQ01+000000PRSWM2
0194039620999991998011209004+52700-008917SY-MT+0020EINN V0202001N00311024001CN0200001N1+00861+00501100141ADDAG12000GA1021+006009999GA2021+009009999GA3071+024009999GF199999031081008001031999MA1100001099901MD1210261+9999REMSYN023 333 81820 83630 85358;MET008NEW NOSIEQDQ01+000062SCOTCVQ02+000000PRSWM2
0132039620999991998011209304+52700-008917FM-15+0020EINN V0201701N005110027019N0112651N1+99999+99999999999ADDAG10999GA1071+002709999GA2021+006009999GA3021+009009999GF107991999999999999999999REMMET020NEW P 09/05 Q1001 NOEQDQ01+000000PRSWM2
0178039620999991998011210004+52700-008917SY-MT+0020EINN V0202101N00361075001CN0300001N1+00891+00441100221ADDAG12999GA1021+006009999GA2021+013509999GA3071+075009999GF107991041051008001031021MA1100201099981MD1210291+9999REMSYN023 333 81620 83645 86075;MET008NEW NOSIEQDQ01+000000PRSWM2
0183039620999991998011212004+52700-008917SY-MT+0020EINN V0202001N00311075001CN0300001N1+00971+00501100321ADDAA106000091AG14000GA1021+009009999GA2071+075009999GF199999011051012501071021MA1100201100081MD1210181+9999REMSYN017 333 81630 86075;MET008NEW NOSIEQDQ01+000062SCOTCVQ02+000000PRSWM2
0156039620999991998011213004+52700-008917SY-MT+0020EINN V0201901N00211075001CN0300001N1+01021+00561100311ADDAG12999GA1021+009009999GA2071+075009999GF107991011081008001071021MA1100311100071MD1010091+9999REMSYN017 333 81820 86075;MET008NEW NOSIEQDQ01+000000PRSWM2
0178039620999991998011214004+52700-008917SY-MT+0020EINN V0201901N00151024001CN0300001N1+00951+00511100331ADDAG12999GA1021+004509999GA2021+012009999GA3071+024009999GF107991041081004501031999MA1100311100091MD1210061+9999REMSYN023 333 81818 84640 86358;MET008NEW NOSIEQDQ01+000000PRSWM2
0178039620999991998011215004+52700-008917SY-MT+0020EINN V0201701N00101024001CN0300001N1+00921+00491100341ADDAG11000GA1021+005409999GA2021+012009999GA3071+024009999GF107991031081004501031999MA1100311100101MD1310021+9999REMSYN023 333 81818 83640 87358;MET008NEW NOSIEQDQ01+000000PRSWM2
0133039620999991998011216004+52700-008917FM-16+0020EINN V0201601N00261013501CN0112651N1+99999+99999999999ADDAG11999GA1071+013509999GA2071+024009999GF107991999999999999999999MW1041REMMET050NEW #85/05 Q1003 CVKH EICK NJQVBV03KT 5999FEW018 ;
0178039620999991998011217004+52700-008917SY-MT+0020EINN V0201601N00151024001CN0300001N1+00841+00551100371ADDAG11999GA1021+006009999GA2021+012009999GA3071+024009999GF107991051081008001071999MA1100311100131MD1210041+9999REMSYN023 333 82820 85635 87458;MET008NEW NOSIEQDQ01+000000PRSWM2
0186039620999991998011218004+52700-008917SY-MT+0020EINN V0201401N00101024001CN0250001N1+00861+00531100371ADDAA106000091AG11000GA1021+010509999GA2071+024009999GF107991031051012501071999KA1120M+01061MA1100311100131MD1210031+9999REMSYN023 333 10106 83635 87458;MET008NEW NOSIEQDQ01+000000PRSWM2
0162039620999991998011219004+52700-008917SY-MT+0020EINN V0201601N00151024001CN0250001N1+00771+00531100361ADDAG11999GA1021+010509999GA2071+024009999GF107991021051012501071081MA1100311100121MD1210011+9999REMSYN023 333 82635 85458 85270;MET008NEW NOSIEQDQ01+000000PRSWM2
0184039620999991998011221004+52700-008917SY-MT+0020EINN V0201301N00101060001CN0250001N1+00701+00521100371ADDAG11000GA1021+010509999GA2021+024009999GA3071+060009999GF107991011051012501071061MA1100311100131MD1410001+9999REMSYN029 333 81635 83458 86270 99020;MET008NEW NOSIEQDQ01+000000PRSWM2
0178039620999991998011222004+52700-008917SY-MT+0020EINN V0201301N00101060001CN0250001N1+00681+00521100351ADDAG11999GA1021+010509999GA2021+024009999GA3081+060009999GF108991011051012501031081MA1100311100111MD1810011+9999REMSYN023 333 81635 83358 88270;MET008NEW NOSIEQDQ01+000000PRSWM2
0194039620999991998011223004+52700-008917SY-MT+0020EINN V0201201N00051060001CN0200001N1+00671+00521100301ADDAG11999GA1021+010509999GA2021+024009999GA3081+060009999GF199999011051012501031081MA1100311100061MD1810061+9999REMSYN023 333 81635 85358 87270;MET008NEW NOSIEQDQ01+000072SCOTCVQ02+000000PRSWM2
0189039620999991998011300004+52700-008917SY-MT+0020EINN V0200901N00051024001CN0150001N1+00661+00531100281ADDAA106999929AG13000GA1021+010509999GA2071+024009999GA3071+060009999GF108991011051012501031081MA1100201100041MD1710091+9999REMSYN023 333 81635 86358 87270;MET008NEW NOSIEQDQ01+000000PRSWM2
0200039620999991998011301004+52700-008917SY-MT+0020EINN V0200201N00051024001CN0120001N1+00651+00541100251ADDAG11999AY121011AY221011GA1021+010509999GA2071+024009999GA3071+060009999GF108991011051012501031081MA1100201100011MD1710101+9999MW1101REMSYN023 333 81635 86358 87270;MET008NEW NOSIEQDQ01+000000PRSWM2
0178039620999991998011302004+52700-008917SY-MT+0020EINN V0200201N00051024001CN0120001N1+00611+00501100221ADDAG11999AY121021AY221021GA1021+010509999GA2071+024009999GF108991021051012501071999MA1100201099981MD1710081+9999MW1101REMSYN017 333 82635 87458;MET008NEW NOSIEQDQ01+000000PRSWM2
0151039620999991998011302304+52700-008917FM-15+0020EINN V0200501N001010240019N0112651N1+00601+00501100151ADDAG11000GA1021+012009999GA2071+024009999GF107991999999999999999999MA1100101099911REMMET008NEW NOSIEQDQ01+999990APOSP Q02+999990APOSLPQ03+000000PRSWM2
0141039620999991998011304004+52700-008917FM-15+0020EINN V0203401N001510240019N0112651N1+00601+00501100151ADDAG11999GA1021+012009999GA2081+024009999GF108991999999999999999999MA1100101099911MW1611REMMET008NEW NOSIEQDQ01+999990APOSP Q02+999990APOSLP
0141039620999991998011304304+52700-008917FM-15+0020EINN V0200101N001510240019N0112651N1+00601+00501100151ADDAG11999GA1021+012009999GA2081+024009999GF108991999999999999999999MA1100101099911MW1611REMMET008NEW NOSIEQDQ01+999990APOSP Q02+999990APOSLP
0159039620999991998011308004+52700-008917SY-MT+0020EINN V0203501N00151015001CN0080001N1+00611+00501100041ADDAG12999AY161999AY261999GA1021+006009999GA2081+015009999GF108991081051008001999999MA1100001099801MD1610061+9999MW1611REMSYN017 333 85620 88640;MET008NEW NOSI
0181039620999991998011309004+52700-008917SY-MT+0020EINN V0203401N00151007501CN0090001N1+00611+00521100051ADDAG12001AY161031AY261031GA1021+002709999GA2021+004209999GA3081+007509999GF108991081061002501999999MA1100001099811MD1610021+9999MW1611REMSYN023 333 81709 84714 88625;MET008NEW NOSI
0181039620999991998011310004+52700-008917SY-MT+0020EINN V0203401N00151009001CN0140001N1+00641+00501100081ADDAG12999AY161011AY261011GA1021+003609999GA2071+009009999GA3081+024009999GF108991061051004501071999MA1100001099841MD1310041+9999MW1611REMSYN023 333 82712 85630 88458;MET008NEW NOSI
0181039620999991998011311004+52700-008917SY-MT+0020EINN V0203501N00211009001CN0110001N1+00641+00531100081ADDAG12999AY161021AY261021GA1021+003609999GA2071+009009999GA3081+024009999GF108991061051004501071999MA1100001099841MD1210041+9999MW1611REMSYN023 333 82712 85630 88458;MET008NEW NOSI
0192039620999991998011312004+52700-008917SY-MT+0020EINN V0203401N00151007501CN0080001N1+00671+00561100071ADDAA106003091AG12001AY161061AY261061GA1021+003609999GA2071+007509999GA3081+024009999GF108991081061002501999999MA1100001099831MD1210021+9999MW1611REMSYN023 333 83709 85718 88650;MET008NEW NOSI
0200039620999991998011313004+52700-008917SY-MT+0020EINN V0203401N00211006001CN0120001N1+00691+00561100031ADDAG12999AY161011AY261011GA1021+002709999GA2071+006009999GA3081+015009999GF108991081051002501999999MA1100001099791MD1810051+9999MW1611REMSYN023 333 82709 85620 88650;MET008NEW NOSIEQDQ01+000000PRSWM2
0181039620999991998011314004+52700-008917SY-MT+0020EINN V0203401N00151018001CN0150001N1+00731+00571099991ADDAG12999AY161021AY261021GA1021+002709999GA2021+006009999GA3071+018009999GF108991081051002501999999MA1099901099751MD1710091+9999MW1611REMSYN023 333 81709 83620 88656;MET008NEW NOSI
0206039620999991998011315004+52700-008917SY-MT+0020EINN V0203401N00101018001CN0200001N1+00751+00621099991ADDAG12001AY161031AY221031GA1021+002709999GA2021+009009999GA3081+018009999GF108991081051999999999999MA1099901099751MD1610081+9999MW1601MW2611REMSYN023 333 81709 84630 88656;MET008NEW NOSIEQDQ01+000992SCOLCB
0200039620999991998011316004+52700-008917SY-MT+0020EINN V0203301N00211018001CN0200001N1+00781+00511100001ADDAG12999AY161011AY221011GA1021+006009999GA2071+018009999GA3081+027009999GF108991061081008001021999MA1099901099761MD1510031+9999MW1211REMSYN023 333 81820 86656 88459;MET008NEW NOSIEQDQ01+000000PRSWM2
0178039620999991998011317004+52700-008917SY-MT+0020EINN V0203301N00211027001CN0200001N1+00761+00491100041ADDAG12999GA1021+006009999GA2021+018009999GA3071+027009999GF107991041081008001021999MA1100001099801MD1310051+9999REMSYN023 333 81820 83656 87459;MET008NEW NOSIEQDQ01+000000PRSWM2
0178039620999991998011319004+52700-008917SY-MT+0020EINN V0203201N00261030001CN0200001N1+00751+00381100131ADDAG12999GA1021+006009999GA2021+018009999GA3071+030009999GF107991031081008001071999MA1100101099891MD1210131+9999REMSYN023 333 81820 83656 87460;MET008NEW NOSIEQDQ01+000000PRSWM2
0194039620999991998011320004+52700-008917SY-MT+0020EINN V0203201N00211030001CN0200001N1+00721+00391100161ADDAG12999GA1021+006009999GA2021+018009999GA3071+030009999GF199999031081008001071999MA1100101099921MD1110121+9999REMSYN023 333 81820 83656 86460;MET008NEW NOSIEQDQ01+000062SCOTCVQ02+000000PRSWM2
0178039620999991998011321004+52700-008917SY-MT+0020EINN V0203001N00261030001CN0200001N1+00761+00391100191ADDAG12000GA1021+009009999GA2021+018009999GA3071+030009999GF107991031051012501031021MA1100101099951MD1210101+9999REMSYN023 333 81630 83656 85360;MET008NEW NOSIEQDQ01+000000PRSWM2
0194039620999991998011322004+52700-008917SY-MT+0020EINN V0203201N00261030001CN0250001N1+00721+00341100241ADDAG12999GA1021+009009999GA2071+030009999GA3071+060009999GF199999011051012501031021MA1100201100001MD1210111+9999REMSYN023 333 81640 83360 85070;MET008NEW NOSIEQDQ01+000052SCOTCVQ02+000000PRSWM2
0178039620999991998011323004+52700-008917SY-MT+0020EINN V0203201N00211075001CN0250001N1+00701+00321100311ADDAG12999AY181021AY211021GA1021+007509999GA2021+024009999GF105991021081008001031021MA1100201100071MD1210151+9999MW1251REMSYN017 333 81822 83360;MET008NEW NOSIEQDQ01+000000PRSWM2
0183039620999991998011400004+52700-008917SY-MT+0020EINN V0203101N00211220001CN0300001N1+00671+00231100381ADDAA106999929AG12001AY181061AY211061GA1021+006609999GA2021+030009999GF102991011021008001031001MA1100311100141MD1210191+9999MW1011REMSYN011 333 81822;MET008NEW NOSIEQDQ01+000000PRSWM2
0159039620999991998011401004+52700-008917SY-MT+0020EINN V0203101N00211220001CN0250001N1+00611+00131100441ADDAG12999AY181011AY211011GA1021+004209999GA2021+006309999GF103991021081008001031001MA1100411100201MD1210201+9999MW1251MW2801REMSYN011 333 82821;MET008NEW NOSI
0178039620999991998011402004+52700-008917SY-MT+0020EINN V0202901N00151220001CN0300001N1+00591+00161100471ADDAG12999AY181021AY211021GA1021+004509999GA2071+006009099GF199999031031008001031001MA1100411100231MD1010161+9999MW1251MW2801REMSYN011 333 82920;MET008NEW NOSIEQDQ01+000032SCOTCV
0172039620999991998011403004+52700-008917SY-MT+0020EINN V0202501N00051220001CN0300001N1+00501+00201100491ADDAG12001AY181031AY211031GA1021+006009099GF199999011031008001001001MA1100411100251MD1210111+9999MW1011REMSYN011 333 81920;MET008NEW NOSIEQDQ01+000012SCOTCVQ02+000000PRSWM2
0150039620999991998011404004+52700-008917SY-MT+0020EINN V0202801N00311220001CN0300001N1+00591+00141100541ADDAG12999GA1021+006009099GF199999011031008001001001MA1100411100301MD1210101+9999REMSYN011 333 81920;MET008NEW NOSIEQDQ01+000012SCOTCVQ02+000000PRSWM2
0162039620999991998011405004+52700-008917SY-MT+0020EINN V0202801N00261007501CN0250001N1+00621+00051100611ADDAG12999AY181021AY211021GA1021+006009099GF105991051031008001001001MA1100511100371MD1310141+9999MW1251REMSYN017 333 83920 83640;MET008NEW NOSIEQDQ01+000000PRSWM2
0162039620999991998011405304+52700-008917FM-15+0020EINN V0202901N00211220001CN0112651N1+00601+00201100671ADDAA106000091AG12000GA1021+004509999GA2021+005409099GF102991999999999999999999MA1100611100421REMMET008NEW NOSIEQDQ01+999990APOSP Q02+999990APOSLPQ03+000000PRSWM2
0178039620999991998011407004+52700-008917SY-MT+0020EINN V0202801N00261004201CN0200001N1+00551+00121100711ADDAG12999AY181041AY211041GA1021+003609999GA2021+005409099GF106991061031004501999999MA1100611100471MD1210171+9999MW1801REMSYN017 333 81710 86918;MET008NEW NOSIEQDQ01+000000PRSWM2
0178039620999991998011408004+52700-008917SY-MT+0020EINN V0202501N00261220001CN0200001N1+00531+00121100761ADDAG12999AY181051AY211051GA1021+003009999GA2021+005409099GF103991031031004501001001MA1100711100521MD1210151+9999MW1251REMSYN017 333 81710 82918;MET008NEW NOSIEQDQ01+000000PRSWM2
0194039620999991998011409004+52700-008917SY-MT+0020EINN V0202701N00261220001CN0300001N1+00551+00181100821ADDAG12001AY181031AY211031GA1021+003609999GA2021+005409099GF199999011091004501031001MA1100711100581MD1210141+9999MW1011REMSYN017 333 81712 81918;MET008NEW NOSIEQDQ01+000012SCOTCVQ02+000000PRSWM2
0178039620999991998011410004+52700-008917SY-MT+0020EINN V0202601N00361220001CN0300001N1+00561+00071100871ADDAG12999AY181011AY201011GA1021+003609999GA2021+005409099GF103991031091004501001021MA1100811100631MD1210161+9999MW1801REMSYN017 333 81709 83918;MET008NEW NOSIEQDQ01+000000PRSWM2
0172039620999991998011411004+52700-008917SY-MT+0020EINN V0202401N00461220001CN0300001N1+00701+00271100911ADDAG12999AY181021AY201021GA1021+002709999GA2021+005409099GF103991021091004501001021MA1100811100671MD1210151+9999MW1251REMSYN011 333 82918;MET008NEW NOSIEQDQ01+000000PRSWM2
0167039620999991998011412004+52700-008917SY-MT+0020EINN V0202401N00211220001CN0300001N1+00801+00331100901ADDAA106000191AG12001AY181061AY211061GA1021+005409099GF103991021031004501001021MA1100911100661MD1010081+9999MW1021REMSYN011 333 81918;MET008NEW NOSIEQDQ01+000000PRSWM2
0156039620999991998011413004+52700-008917SY-MT+0020EINN V0202101N00211220001CN0300001N1+00801+00361100891ADDAG12999GA1021+005409099GA2021+060009999GF103991011081004501031051MA1100911100651MD1010021+9999REMSYN017 333 81818 83270;MET008NEW NOSIEQDQ01+000000PRSWM2
0156039620999991998011415004+52700-008917SY-MT+0020EINN V0202001N00211075001CN0300001N1+00781+00361100751ADDAG12000GA1021+006009999GA2021+060009999GF106991011081008001031061MA1100811100511MD1810151+9999REMSYN017 333 81820 85270;MET008NEW NOSIEQDQ01+000000PRSWM2
0162039620999991998011416004+52700-008917SY-MT+0020EINN V0201701N00211060001CN0300001N1+00731+00301100681ADDAG12999GA1021+007509999GA2071+060009999GF107991011051012501031061MA1100711100441MD1710211+9999REMSYN023 333 81630 83359 86270;MET008NEW NOSIEQDQ01+000000PRSWM2
0178039620999991998011417004+52700-008917SY-MT+0020EINN V0201601N00211054001CN0250001N1+00701+00371100571ADDAG12999GA1021+009009999GA2021+024009999GA3071+054009999GF108991021051012501071071MA1100611100331MD1710261+9999REMSYN023 333 82630 85458 88268;MET008NEW NOSIEQDQ01+000000PRSWM2
0247039620999991998011418004+52700-008917SY-MT+0020EINN V0201401N00211024001CN0200001N1+00691+00461100421ADDAA106999999AA299000391AG12001AY161061AY221061GA1021+005409999GA2021+009009999GA3071+024009999GF108991031051004501071999KA1120M+00861MA1100411100181MD1710331+9999MW1601MW2611REMSYN029 333 10086 81718 83630 87458;MET008NEW NOSIEQDQ01  00002PRCP06
0181039620999991998011419004+52700-008917SY-MT+0020EINN V0201401N00311024001CN0150001N1+00701+00521100251ADDAG12999AY161011AY261011GA1021+005409999GA2021+010509999GA3071+024009999GF108991041051004501071999MA1100311100011MD1710431+9999MW1611REMSYN023 333 81718 83625 87458;MET008NEW NOSI
0196039620999991998011420004+52700-008917SY-MT+0020EINN V0201401N00311015001CN0200001N1+00741+00581100061ADDAG12999AY161021AY221021GA1021+002409999GA2021+005409999GA3071+015009999GF107991041051004501071999MA1100101099821MD1710511+9999MW1601MW2631REMSYN023 333 81710 84650 87458;MET017NEW BECMG BKN012;
0187039620999991998011421004+52700-008917SY-MT+0020EINN V0201501N00311015001CN0250001N1+00801+00691099911ADDAG12001AY161031AY221031GA1021+003009999GA2021+006609999GA3071+015009999GF108991081061002501999999MA1099901099671MD1710511+9999MW1601MW2611REMSYN023 333 83708 85713 85621;MET008NEW NOSI
0187039620999991998011422004+52700-008917SY-MT+0020EINN V0201801N00361003901CN0250001N1+00871+00741099831ADDAG12999AY161011AY261011GA1021+002409999GA2071+003909999GA3071+006609999GF108991081061002501999999MA1099801099591MD1610421+9999MW1601MW2611REMSYN023 333 83708 85714 87620;MET008NEW NOSI
0200039620999991998011423004+52700-008917SY-MT+0020EINN V0202401N00261006001CN0250001N1+00921+00751099871ADDAG12999AY161021AY221021GA1021+004209999GA2071+006009999GA3071+012009999GF108991081051004501999999MA1099801099631MD1510191+9999MW1211REMSYN023 333 82715 84622 87630;MET008NEW NOSIEQDQ01+000000PRSWM2
0211039620999991998011500004+52700-008917SY-MT+0020EINN V0202201N00211013501CN0200001N1+00891+00711099881ADDAA106004091AG12001AY161061AY221061GA1021+004509999GA2021+007509999GA3071+013509999GF107991071051004501999999MA1099801099641MD1510031+9999MW1011REMSYN023 333 82715 85625 86645;MET008NEW NOSIEQDQ01+000000PRSWM2
0187039620999991998011501004+52700-008917SY-MT+0020EINN V0202601N00361007501CN0130001N1+00781+00601099961ADDAG12999AY181011AY221011GA1021+002709999GA2021+004509999GA3071+007509999GF108991081081004501999999MA1099801099721MD1310131+9999MW1611MW2801REMSYN023 333 83710 83818 87622;MET008NEW NOSI
0200039620999991998011502004+52700-008917SY-MT+0020EINN V0202301N00151006301CN0200001N1+00751+00631100001ADDAG12999AY181021AY221021GA1021+002709999GA2021+005409999GA3071+006309999GF199999061081004501999999MA1099901099761MD1210131+9999MW1251MW2801REMSYN017 333 82715 85820;MET008NEW NOSIEQDQ01+000062SCOTCV
0178039620999991998011503004+52700-008917SY-MT+0020EINN V0202501N00311009001CN0300001N1+00681+00431100021ADDAG12001AY181031AY221031GA1021+004809999GA2021+006009999GF107991071081004501999999MA1099901099781MD1110141+9999MW1801REMSYN017 333 81712 85818;MET008NEW NOSIEQDQ01+000000PRSWM2
0200039620999991998011504004+52700-008917SY-MT+0020EINN V0202401N00311006001CN0250001N1+00691+00441100041ADDAG12999AY181011AY221011GA1021+003309999GA2071+006009099GA3071+009009999GF199999061031004501999999MA1100001099801MD1210081+9999MW1251MW2801REMSYN017 333 81715 85920;MET008NEW NOSIEQDQ01+000062SCOTCV
0192039620999991998011505004+52700-008917SY-MT+0020EINN V0202501N00261220001CN0250001N1+00671+00311100061ADDAG12999AY181021AY221021GA1021+004809999GA2021+007209099GF104991031031004501001031MA1100001099821MD1210061+9999MW1251OC101341REMSYN023 333 81715 83920 91119;MET008NEW NOSIEQDQ01+000000PRSWM2
0235039620999991998011506004+52700-008917SY-MT+0020EINN V0202401N00361220001CN0250001N1+00681+00381100021ADDAA106000091AA299007091AG10001AY181061AY211061GA1021+006009099GF103991031031008001001031GJ102709IA1099IA2999+00409KA1120N+00651MA1100001099781MD1010001+9999MW1011REMSYN029 333 20065 31004 55045 82920;MET008NEW NOSIEQDQ01+000000PRSWM2
0134039620999991998011507004+52700-008917SY-MT+0020EINN V0202301N00361220001CN0250001N1+00671+00391100041ADDAG12999GA1021+006009099GF103991021031008001001031MA1100001099801MD1410001+9999REMSYN011 333 81920;MET008NEW NOSIEQDQ01+000000PRSWM2
0176039620999991998011508004+52700-008917SY-MT+0020EINN V0202201N00311220001CN0250001N1+00641+00331100041ADDAG12999GA1021+006009099GF102991021031008001001031MA1100001099801MD1710021+9999REMSYN053 22206 10064 20033 39980 40004 57002 82303 333 82920;MET008NEW NOSIEQDQ01+000000PRSWM2
0165039620999991998011509004+52700-008917SY-MT+0020EINN V0202001N00261220001CN0250001N1+00571+00301100061ADDAG12001AY181031AY211031GA1021+003609999GA2021+006009099GF104991041091004501001031MA1100001099821MD1210041+9999MW1251MW2801REMSYN017 333 81712 83918;MET008NEW NOSI
0198039620999991998011510004+52700-008917SY-MT+0020EINN V0202301N00361220001CN0200001N1+00591+00301100111ADDAG12999AY181011AY221011GA1021+003009999GA2071+005409099GF199999041031004501001031MA1100101099871MD1110071+9999MW1251MW2801OC101851REMSYN023 333 81712 84918 91119;MET008NEW NOSIEQDQ01+000042SCOTCV
0140039620999991998011511004+52700-008917SY-MT+0020EINN V0202001N00311004201CN0200001N1+00551+00341100111ADDAG12999GA1021+005409099GF105991051031004501001031MA1100101099871MD1110071+9999REMSYN017 333 82712 83918;MET008NEW NOSIEQDQ01+000000PRSWM2
0173039620999991998011512004+52700-008917SY-MT+0020EINN V0202201N00361220001CN0300001N1+00801+00331100031ADDAA106001091AG12001AY181061AY211061GA1021+005409999GF104991011091008001001031MA1100001099791MD1810031+9999MW1011REMSYN017 333 81920 84070;MET008NEW NOSIEQDQ01+000000PRSWM2
0184039620999991998011513004+52700-008917SY-MT+0020EINN V0202201N00411220001CN0150001N1+00651+00421100021ADDAG12999AY181011AY221011GA1021+003009999GA2071+005409099GF199999041091004501001001MA1100001099781MD1710091+9999MW1251MW2801REMSYN017 333 81710 83920;MET008NEW NOSIEQDQ01+000042SCOTCV
0178039620999991998011515004+52700-008917SY-MT+0020EINN V0202301N00511220001CN0300001N1+00871+00461099891ADDAG12001AY181031AY211031GA1021+002709999GA2021+006009099GF103991031091002501001001MA1099801099651MD1810141+9999MW1011REMSYN017 333 81709 83920;MET008NEW NOSIEQDQ01+000000PRSWM2
0200039620999991998011516004+52700-008917SY-MT+0020EINN V0202401N00511005401CN0200001N1+00901+00371099871ADDAG12999AY181011AY211011GA1021+002409999GA2071+005409099GF199999051091002501001001MA1099801099631MD1710151+9999MW1251REMSYN023 333 82708 85918 91121;MET008NEW NOSIEQDQ01+000052SCOTCVQ02+000000PRSWM2
0156039620999991998011517004+52700-008917SY-MT+0020EINN V0202301N00511002101CN0250001N1+00781+00341099871ADDAG12999GA1021+002409999GA2021+005409099GF105991051091002501001001MA1099801099631MD1510071+9999REMSYN017 333 82708 85918;MET008NEW NOSIEQDQ01+000000PRSWM2
0241039620999991998011518004+52700-008917SY-MT+0020EINN V0202401N00511012001CN0070001N1+00761+00471099891ADDAA106999999AA299003091AG12001AY181061AY211061GA1021+004209999GA2021+005409099GA3021+012009999GF107991071091002501999999KA1120M+00911MA1099801099651MD1510001+9999MW1801REMSYN029 333 10091 83706 84918 85640;MET008NEW NOSIEQDQ01  00002PRCP06
0216039620999991998011519004+52700-008917SY-MT+0020EINN V0202401N00411012001CN0200001N1+00741+00531099891ADDAG12999AY181011AY221011GA1021+002409999GA2021+005409099GA3071+012009999GF199999061091002501999999MA1099801099651MD1110021+9999MW1801REMSYN023 333 81708 82918 85645;MET008NEW NOSIEQDQ01+000062SCOTCVQ02+000000PRSWM2
0221039620999991998011520004+52700-008917SY-MT+0020EINN V0202501N00261015001CN0250001N1+00781+00491099911ADDAG12999AY181021AY221021GA1021+002409999GA2021+005409099GA3071+015009999GF199999031091004501001001MA1099801099671MD1210041+9999MW1251REMSYN017 333 81918 83650;MET019NEW TEMPO BKN018CB;EQDQ01+000052SCOTCVQ02+000000PRSWM2
0180039620999991998011521004+52700-008917SY-MT+0020EINN V0202501N00261002101CN0200001N1+00751+00551099961ADDAG12001AY181031AY221031GA1021+005409099GF107991071091002501999999MA1099901099721MD1210071+9999MW1801REMSYN023 333 82706 84920 85650;MET020NEW TEMPO BKN018CB ;EQDQ01+000000PRSWM2
0167039620999991998011522004+52700-008917SY-MT+0020EINN V0202601N00361220001CN0250001N1+00741+00491100011ADDAG12999AY181011AY211011GA1021+006009099GF102991021091008001001001MA1099901099771MD1210121+9999MW1251REMSYN011 333 82920;MET019NEW TEMPO BKN018CB;EQDQ01+000000PRSWM2
0211039620999991998011523004+52700-008917SY-MT+0020EINN V0203001N00101009601CN0120001N1+00771+00531100131ADDAG12999AY181021AY211021GA1021+006009099GA2071+009609999GA3071+015009999GF107991071031004501999999MA1100001099891MD1210221+9999MW1801REMSYN023 333 81710 85920 85630;MET019NEW TEMPO BKN018CB;EQDQ01+000000PRSWM2
0192039620999991998011600004+52700-008917SY-MT+0020EINN V0202901N00261015001CN0200001N1+00741+00461100241ADDAA106000591AG12001AY181061AY211061GA1021+003009999GA2021+006009099GA3071+015009999GF107991071031008001999999MA1100101100001MD1210281+9999MW1251MW2801REMSYN017 333 81920 85650;MET008NEW NOSI
0168039620999991998011600304+52700-008917FM-16+0020EINN V0203001N007210057019N0112651N1+99999+99999999999ADDAA106999999AG10000GA1021+002109999GA2021+003909999GA3071+005709099GF107991999999999999999999MA1100201100011MW1801REMMET008NEW NOSIEQDQ01+999990APOSP Q02  00002PRCP06
0181039620999991998011601004+52700-008917SY-MT+0020EINN V0202701N00211008101CN0250001N1+00681+00501100341ADDAG12999AY181011AY221011GA1021+003009999GA2021+005709099GA3071+008109999GF107991071031004501999999MA1100311100101MD1210331+9999MW1801REMSYN023 333 81710 83919 85627;MET008NEW NOSI
0184039620999991998011602004+52700-008917SY-MT+0020EINN V0203101N00151005701CN0200001N1+00691+00531100441ADDAG12999AY181021AY221021GA1021+003609999GA2071+005709099GF107991071031004501999999MA1100311100201MD1210311+9999MW1801REMSYN023 333 82714 85917 86630;MET008NEW NOSIEQDQ01+000000PRSWM2
