0228039620999991984010100004+52683-008917SY-MT+0020EINN V0202401N01591002701CN0060001N1+01111+00841101251ADDAA106999929AG10000AY181061GA1031+001509079GA2061+002709079GA3071+004809079GF108991081061001501999999MA1101191999999MD1710221+9999MW1501OA149902471OA259901751REMSYN035333   83705 86709 87716 91148 91234MET018TEMPO 5000 5ST006?
0109039620999991984010100304+52683-008917FM-15+0020EINN V0202401N01331002701CN0060001N1+01001+00901999999ADDAG11999GA1031+001809079GA2061+002709079GA3081+005109079MA1101191999999MW1581OC101951REMMET013TEMPO 6ST006?
0173039620999991984010101004+52683-008917SY-MT+0020EINN V0202401N01341003001CN0035001N1+01011+00931101201ADDAG12999AY161011GA1041+001509079GA2081+003009079GF108991081061001501999999MA1101081999999MD1610201+9999MW1581OA149902061REMSYN023333   84705 88710 91140MET013TEMPO 6ST006?
0107039620999991984010101304+52683-008917FM-15+0020EINN V0202501N01331002401CN0030001N1+01001+01001999999ADDAG11999GA1031+001509079GA2061+002409079GA3081+003909079MA1101081999999MW1591REMMET019TEMPO6ST006      ??
0174039620999991984010102004+52683-008917SY-MT+0020EINN V0202401N01341002101CN0030001N1+01021+00961101131ADDAG12999AY161021GA1051+002109079GA2081+003609079GF108991081061002501999999MA1101081999999MD1810161+9999MW1591OA149901961REMSYN023333   85707 88712 91138MET014TEMPO 6 ST006?
0099039620999991984010102304+52683-008917FM-15+0020EINN V0202501N01181002401CN0030001N1+01001+01001999999ADDAG11000GA1051+002409079GA2081+003609079MA1101021999999MW1581OC101851REMMET019TEMPO6ST006      ??
0189039620999991984010103004+52683-008917SY-MT+0020EINN V0202501N01341002701CN0070001N1+01031+01011101101ADDAG12002AY161031GA1061+002709079GA2081+003909079GF108991081061002501999999MA1101021999999MD1610151+9999MW1611OA149901851REMSYN023333   86709 88713 91136MET029TEMPO      ?     3000 5ST005?
0109039620999991984010103304+52683-008917FM-15+0020EINN V0202501N01181002101CN0040001N1+01101+01001999999ADDAG11999GA1061+002109079GA2081+003609079MA1101021999999MW1631OC101901REMMET029TEMPO      ?     3000 5ST005?
0197039620999991984010104004+52683-008917SY-MT+0020EINN V0202601N00971001801CN0060001N1+01101+01001101061ADDAG12999AY161011GA1061+001809079GA2081+003009079GF108991081061002501999999MA1101021999999MD1710141+9999MW1631OA149901901OC101541REMSYN023333   86706 88710 91137MET029TEMPO      ?     3000 5ST005?
0107039620999991984010104304+52683-008917FM-15+0020EINN V0202601N01131004501CN0070001N1+01101+01001999999ADDAG11999GA1031+002409079GA2051+004509079GA3081+024009049MA1101021999999MW1611REMMET019TEMPO6ST008      ??
0201039620999991984010105004+52683-008917SY-MT+0020EINN V0202601N01021003901CN0060001N1+01001+00901101031ADDAG12999AY161021GA1031+002109079GA2051+003909079GA3081+018009049GF108991051061002501021999MA1101021999999MD1710101+9999MW1631OA149901601REMSYN029333   83707 85713 88556 91131MET019TEMPO6ST008      ??
0101039620999991984010105304+52683-008917FM-15+0020EINN V0202701N00921003001CN0060001N1+01001+01001999999ADDAG12002GA1031+001809079GA2061+003009079GA3081+018009049MA1101021999999MW1611REMMET013TEMPO 5ST006?
0249039620999991984010106004+52683-008917SY-MT+0020EINN V0202701N00721002401CN0080001N1+00991+00931101001ADDAA199006091AG10003AY161061GA1021+001809079GA2041+002409079GA3051+004509079GF108991061061002501021999IA1099IA2999+00909KA1120N+00981MA1100911999999MD1710101+9999MW1631OA149901291REMSYN041333   20098 31009 82706 84708 85715 91125MET013TEMPO 5ST006?
0099039620999991984010106304+52683-008917FM-15+0020EINN V0202601N00661002401CN0112001N1+01001+00901999999ADDAG12999GA1051+002409079GA2051+003909079GA3081+018009049MA1100911999999MW1631REMMET011TEMPO 6000?
0176039620999991984010107004+52683-008917SY-MT+0020EINN V0202401N00621002701CN0100001N1+00981+00921100951ADDAG12999AY161011GA1051+002709079GA2051+007509059GA3081+015009049GF108991071061002501021999MA1100911999999MD1710111+9999MW1611REMSYN023333   85709 85625 88550MET011TEMPO 6000?
0083039620999991984010107304+52683-008917FM-15+0020EINN V0202601N00511001801CN0060001N1+01001+00901999999ADDAG12999GA1061+001809079GA2071+003009079MA1100911999999MW1611REMMET011GRADU 9999?
0188039620999991984010108004+52683-008917SY-MT+0020EINN V0202801N00981002401CN0090001N1+00961+00901100951ADDAG12999AY161021GA1021+001809079GA2041+002409079GA3071+003609079GF108991081061002501999999MA1100911999999MD1510081+9999MW1591OA149901541REMSYN029333   82706 84708 87712 91130MET006NOSIG?
0102039620999991984010108304+52683-008917FM-15+0020EINN V0202801N00921004501CN0112001N1+00901+00801999999ADDAG12002GA1031+002709079GA2041+004509079GA3081+015009049MA1100911999999MW1611OC101441REMMET006NOSIG?
0200039620999991984010109004+52683-008917SY-MT+0020EINN V0202801N00931003001CN0060001N1+00871+00791101001ADDAG12002AY161031GA1031+002409079GA2051+003009079GA3071+003909079GF108991081061002501999999MA1100911999999MD1510001+9999MW1621OA149901441REMSYN029333   83708 85710 87713 91128MET018GRADU 9999 5ST015?
0101039620999991984010109304+52683-008917FM-15+0020EINN V0202601N00661002701CN0112001N1+00901+00801999999ADDAG12999GA1021+001809079GA2041+002709079GA3051+004509079MA1100911999999MW1601REMMET013GRADU 5ST015?
0210039620999991984010110004+52683-008917SY-MT+0020EINN V0202501N00561002701CN0112001N1+00901+00801100971ADDAG12999AY161011GA1021+001809079GA2041+002709079GA3051+009009059GF107991061061002501071999MA1100911999999MD1010021+9999MW1601OA149901241REMSYN029333   82706 84709 85630 91124MET028G          ?     ADU 5SC030?
0101039620999991984010110304+52683-008917FM-15+0020EINN V0202501N00721009001CN0112001N1+00901+00801999999ADDAG12999GA1011+001809079GA2031+003009079GA3051+009009059MA1100911999999MW1211REMMET013GRADU 5SC030?
0144039620999991984010111004+52683-008917FM-12+0020EINN V0202501N00871015001CN0200001N9+00901+00801100981ADDAG12999AY161021GA1011+001809079GA2031+003309079GA3051+015009059GF107991051051002501071999MD1110031+9999MW1211REMSYN023333   81706 83711 85650
0107039620999991984010111304+52683-008917FM-15+0020EINN V0202401N00821015001CN0112001N1+00901+00801999999ADDAG12000GA1041+004509079GA2051+015009059GA3071+030009049MA1100911999999REMMET006NOSIG?EQDQ01+000000PRSWM2
0155039620999991984010112004+52683-008917FM-12+0020EINN V0202601N00821005101CN0200001N9+00951+00741100941ADDAA106004091AG10001AY161061GA1021+003609079GA2041+005109079GA3051+009009059GF108991071061004501071999MD1710061+9999MW1601REMSYN023333   82712 84717 85630
0094039620999991984010112304+52683-008917FM-15+0020EINN V0202701N00661030001CN0112001N1+00901+00701999999ADDAG12999GA1011+003609079GA2041+015009059GA3071+030009049MA1100911999999MW1211REMMET006NOSIG?
0171039620999991984010113004+52683-008917SY-MT+0020EINN V0202601N00721009001CN0112001N1+00901+00701100941ADDAG12999AY161011GA1021+004809079GA2031+009009059GA3081+024009049GF108991041051004501071999MA1100911999999MD1610031+9999MW1601REMSYN023333   82716 83630 88458MET006NOSIG?
0094039620999991984010113304+52683-008917FM-15+0020EINN V0202601N00921024001CN0112001N1+00801+00601999999ADDAG12999GA1011+004809079GA2031+006609059GA3081+024009049MA1100911999999MW1211REMMET006NOSIG?
0166039620999991984010114004+52683-008917SY-MT+0020EINN V0202701N01031024001CN0200001N1+00861+00581100921ADDAG12999AY161021GA1031+006009059GA2071+024009049GF107991031051008001021999MA1100911999999MD1710061+9999MW1211OA149901651REMSYN023333   83620 87458 91132MET006NOSIG?
0107039620999991984010114304+52683-008917FM-15+0020EINN V0202701N00871024001CN0112001N1+00801+00601999999ADDAG12000GA1011+006009059GA2031+012009059GA3071+024009049MA1100911999999REMMET006NOSIG?EQDQ01+000000PRSWM2
0185039620999991984010115004+52683-008917SY-MT+0020EINN V0202601N00771024001CN0200001N1+00801+00581100941ADDAG12001AY161031GA1031+005409079GA2061+024009049GF107991041021004501071999MA1100911999999MD1510001+9999MW1021OA149901291REMSYN023333   83718 86458 91125MET006NOSIG?EQDQ01+000000PRSWM2
0078039620999991984010115304+52683-008917FM-15+0020EINN V0202701N00821220001CN0112001N1+00801+00601999999ADDAG12999GA1011+006009089GA2031+012009059MA1100911999999MW1251REMMET006NOSIG?
0149039620999991984010116004+52683-008917SY-MT+0020EINN V0202701N00921030001CN0112001N1+00801+00501100991ADDAG12999AY181011GA1011+006009089GA2031+012009059GF105991031081008001071999MA1100911999999MD1310051+9999MW1251REMSYN017333   81820 83640MET006NOSIG?
0078039620999991984010116304+52683-008917FM-15+0020EINN V0202701N00971006001CN0112001N1+00701+00301999999ADDAG12999GA1021+003909079GA2031+006009089MA1101021999999MW1801REMMET006NOSIG?
0167039620999991984010117004+52683-008917SY-MT+0020EINN V0202701N00871012001CN0112001N1+00701+00401101091ADDAG12999AY181021GA1031+006009089GA2031+012009059GF105991051081008001001001MA1101021999999MD1310161+9999MW1801OA149901601REMSYN023333   83820 83640 91131MET007NOSIG+?
0062039620999991984010117304+52683-008917FM-15+0020EINN V0202801N00771220001CN0112001N1+00601+00501999999ADDAG12002GA1011+006009099MA1101021999999MW1251REMMET006NOSIG?
0217039620999991984010118004+52683-008917SY-MT+0020EINN V0202801N00821009601CN0112001N1+00701+00501101101ADDAA199004091AG12002AY181061GA1021+006009099GA2031+009609059GF105991051031008001001001GJ100009KA1120M+00961MA1101021999999MD1210151+9999MW1251OA149902061REMSYN035333   10096 82920 83632 91140 94000MET013INTER MAX 40?
0062039620999991984010118304+52683-008917FM-15+0020EINN V0202701N00871220001CN0112001N1+00701+00401999999ADDAG12999GA1011+006009099MA1101081999999MW1251REMMET006NOSIG?
0127039620999991984010119004+52683-008917SY-MT+0020EINN V0202601N00721220001CN0300001N1+00671+00441101141ADDAG12999AY181011GA1021+006009099GF102991021031008001001001MA1101081999999MD1210141+9999MW1251REMSYN011333   82920MET006NOSIG?
0078039620999991984010119304+52683-008917FM-15+0020EINN V0202701N00821220001CN0112001N1+00701+00401999999ADDAG12999GA1011+004509079GA2021+006009099MA1101081999999MW1251REMMET006NOSIG?
0166039620999991984010120004+52683-008917SY-MT+0020EINN V0202701N01031006001CN0250001N1+00631+00321101201ADDAG12999AY181021GA1021+004809079GA2031+006009099GF105991051031004501001001MA1101081999999MD1210111+9999MW1801OA149901851REMSYN023333   82716 83920 91136MET006NOSIG?
0078039620999991984010120304+52683-008917FM-15+0020EINN V0202701N00921006001CN0112001N1+00601+00401999999ADDAG12002GA1021+004509079GA2031+006009099MA1101191999999MW1251REMMET006NOSIG?
0144039620999991984010121004+52683-008917SY-MT+0020EINN V0202701N00621220001CN0300001N1+00611+00421101251ADDAG12002AY181031GA1021+006009099GF102991021031008001001001MA1101191999999MD1310151+9999MW1251OA149902011REMSYN017333   82920 91139MET006NOSIG?
0062039620999991984010121304+52683-008917FM-15+0020EINN V0202701N00821220001CN0112001N1+00601+00401999999ADDAG12999GA1011+006009099MA1101191999999MW1251REMMET006NOSIG?
0146039620999991984010122004+52683-008917SY-MT+0020EINN V0202801N00821220001CN0300001N1+00661+00351101351ADDAG12999AY101011GA1011+006009099GF101991011031008001001001MA1101291999999MD1210211+9999MW1021REMSYN011333   81300MET006NOSIG?EQDQ01+000000PRSWM2
0075039620999991984010122304+52683-008917FM-15+0020EINN V0202601N00511220001CN0112001N1+00701+00301999999ADDAG12999GA1011+006009099MA1101291999999REMMET006NOSIG?EQDQ01+000000PRSWM2
0152039620999991984010123004+52683-008917SY-MT+0020EINN V0202801N00661220001CN0112001N1+00601+00401101351ADDAG12999AY181021GA1031+006009099GF103991031031008001001001MA1101291999999MD1110151+9999MW1251OA149901341OC101331REMSYN017333   83920 91126MET006NOSIG?
0078039620999991984010123304+52683-008917FM-15+0020EINN V0202601N00411220001CN0112001N1+00601+00401999999ADDAG12002GA1011+006009099GA2031+013509059MA1101291999999MW1251REMMET006NOSIG?
0138039620999991984010200004+52683-008917SY-MT+0020EINN V0202601N00411220001CN0112001N1+00601+00401101391ADDAA106000591AG11002AY181061GA1021+006009099GF102991021031008001001001MA1101291999999MD1110141+9999MW1251REMSYN011333   82920MET006NOSIG?
0062039620999991984010200304+52683-008917FM-15+0020EINN V0202501N00461220001CN0112001N1+00601+00401999999ADDAG11999GA1011+006009099MA1101291999999MW1251REMMET006NOSIG?
0168039620999991984010201004+52683-008917SY-MT+0020EINN V0202601N00561220001CN0112001N1+00601+00201101361ADDAG11999AY101011GA1011+006009099GA2031+012909059GF103991031031008001001001MA1101291999999MD1010011+9999MW1021REMSYN017333   81920 83643MET006NOSIG?EQDQ01+000000PRSWM2
0075039620999991984010201304+52683-008917FM-15+0020EINN V0202601N00511220001CN0112001N1+00601+00201999999ADDAG11999GA1011+006009099MA1101291999999REMMET006NOSIG?EQDQ01+000000PRSWM2
0146039620999991984010202004+52683-008917SY-MT+0020EINN V0202701N00561220001CN0112001N1+00601+00201101311ADDAG11999AY101021GA1011+006009099GF101991011031008001001001MA1101291999999MD1810041+9999MW1021REMSYN011333   81920MET006NOSIG?EQDQ01+000000PRSWM2
0075039620999991984010202304+52683-008917FM-15+0020EINN V0202401N00561220001CN0112001N1+00601+00201999999ADDAG11000GA1011+006009099MA1101191999999REMMET006NOSIG?EQDQ01+000000PRSWM2
0146039620999991984010203004+52683-008917SY-MT+0020EINN V0202101N00361220001CN0300001N1+00611+00321101281ADDAG11000AY101031GA1011+006009099GF101991011031008001001001MA1101191999999MD1710111+9999MW1021REMSYN011333   81920MET006NOSIG?EQDQ01+000000PRSWM2
0075039620999991984010203304+52683-008917FM-15+0020EINN V0202201N00461220001CN0112001N1+00601+00301999999ADDAG11999GA1011+006009099MA1101191999999REMMET006NOSIG?EQDQ01+000000PRSWM2
0168039620999991984010204004+52683-008917SY-MT+0020EINN V0202201N00661012001CN0112001N1+00601+00301101181ADDAG11999AY101011GA1011+006009089GA2061+012009059GF107991071081008001999999MA1101081999999MD1810181+9999MW1021REMSYN017333   81820 86640MET006NOSIG?EQDQ01+000000PRSWM2
0091039620999991984010204304+52683-008917FM-15+0020EINN V0202001N00611220001CN0112001N1+00601+00301999999ADDAG11999GA1011+006009059GA2031+010509059MA1101021999999REMMET006NOSIG?EQDQ01+000000PRSWM2
0190039620999991984010205004+52683-008917SY-MT+0020EINN V0201901N00511012001CN0300001N1+00591+00271101021ADDAG12999AY101021GA1011+006009059GA2051+012009059GA3051+060009029GF107991051051008001001061MA1101021999999MD1810291+9999MW1021REMSYN023333   81620 85640 85270MET006NOSIG?EQDQ01+000000PRSWM2
0244039620999991984010206004+52683-008917SY-MT+0020EINN V0201801N00621030001CN0300001N1+00631+00271100861ADDAA199000591AG13000AY101061GA1011+006009059GA2031+012009059GA3051+030009049GF108991031051008001071071IA1099IA2999+00309KA1120N+00511MA1100811999999MD1710421+9999MW1021REMSYN035333   20051 31003 81620 83640 85460MET006NOSIG?EQDQ01+000000PRSWM2
0107039620999991984010206304+52683-008917FM-15+0020EINN V0201601N00661030001CN0112001N1+00601+00301999999ADDAG12999GA1011+006009059GA2031+012009059GA3051+030009049MA1100711999999REMMET006NOSIG?EQDQ01+000000PRSWM2
0190039620999991984010207004+52683-008917SY-MT+0020EINN V0201701N00611030001CN0112001N1+00601+00301100681ADDAG12999AY101011GA1011+006009059GA2031+012009059GA3051+030009049GF108991031051008001071071MA1100611999999MD1710501+9999MW1021REMSYN023333   81620 83640 85460MET006NOSIG?EQDQ01+000000PRSWM2
0190039620999991984010208004+52683-008917SY-MT+0020EINN V0201701N00721030001CN0112001N1+00601+00401100381ADDAG12999AY101021GA1031+012009059GA2051+030009049GA3081+060009029GF108991031051012501071071MA1100311999999MD1810641+9999MW1021REMSYN023333   83640 85460 88270MET006NOSIG?EQDQ01+000000PRSWM2
0183039620999991984010209004+52683-008917SY-MT+0020EINN V0201801N00871007501CN0200001N1+00671+00511100131ADDAG12001AY161031GA1011+005409079GA2051+007509059GA3081+030009049GF108991051051004501071999MA1100101999999MD1710731+9999MW1601REMSYN023333   81718 85625 88460MET018GRADU 8000 5ST012?
0086039620999991984010209304+52683-008917FM-15+0020EINN V0201801N00821007501CN0080001N1+00701+00601999999ADDAG12999GA1011+005409079GA2051+007509059GA3081+024009049MW1611REMMET013GRADU 5ST012?
0180039620999991984010210004+52683-008917SY-MT+0020EINN V0201601N00771018001CN0120001N1+00701+00591099751ADDAG12999AY161011GA1021+005409079GA2081+018009049GF108991031071004501021999MA1099701999999MD1710931+9999MW1631REMSYN017333   82718 88556MET037GRADU 8000       ?     5ST012 8SC020?
0085039620999991984010210304+52683-008917FM-15+0020EINN V0201601N01081018001CN0080001N1+00801+00701999999ADDAG12999GA1021+005409079GA2081+018009049MA1099391999999MW1631REMMET013GRADU 5ST012?
0185039620999991984010211004+52683-008917SY-MT+0020EINN V0201701N01231018001CN0080001N1+00841+00731099281ADDAG12999AY161021GA1011+002709079GA2031+005409079GA3081+018009049GF108991051071002501021999MA1099191999999MD1711081+9999MW1631REMSYN023333   81709 83718 88556MET020GRADU 5ST008 8ST015?
0118039620999991984010211304+52683-008917FM-15+0020EINN V0202001N01021004501CN0080001N1+00901+00801999999ADDAG12003GA1011+002709079GA2061+004509079GA3081+015009049MA1099091999999MW1631REMMET030GRADU 5ST008     ?     8ST015?
0238039620999991984010212004+52683-008917SY-MT+0020EINN V0202201N01751004801CN0080001N1+01101+01001098971ADDAA106007091AG12002AY161061GA1031+002709079GA2051+004809079GA3071+012009049GF108991061071002501021999MA1098921999999MD1711141+9999MW1611OA149902471OA259901801OC102471REMSYN035333   83709 85716 88540 91235 91148MET020GRADU 5ST008 8ST012?
0121039620999991984010212304+52683-008917FM-15+0020EINN V0202301N01851004801CN0112001N1+01101+01001999999ADDAG12999GA1031+002109079GA2041+004809079GA3071+005709079MA1098821999999MW1611OC102471REMMET025GRADU 8000 5ST008 8ST012?
0224039620999991984010213004+52683-008917SY-MT+0020EINN V0202301N01951003601CN0100001N1+01141+01041098791ADDAG12999AY161011GA1021+001809079GA2041+003609079GA3071+005409079GF108991081071002501999999MA1098711999999MD1710941+9999MW1611OA149902781OA259902061REMSYN035333   82706 84712 87718 91240 91154MET025TEMPO 8000 5ST008 8ST015?
0116039620999991984010213304+52683-008917FM-15+0020EINN V0202501N01801002401CN0030001N1+01101+01001999999ADDAG12999GA1031+001509079GA2051+002409079GA3071+003909079MA1098711999999MW1651OC103031REMMET020GRADU 8000 28030/48?
0269039620999991984010214004+52683-008917SY-MT+0020EINN V0202501N01801002701CN0080001N1+01201+01101098661ADDAG12999AY161021GA1021+001809079GA2061+002709079GA3081+018009049GF108991071071002501021999MA1098611999999MD1710621+9999MW1611OA149903041OC102571REMSYN035333   82706 86709 88556 91159 97170MET054TWEMPO 4000      ?     MOD TURB WITH WS ONAPPRCHRNW24?EQDQ01+000000PRSWM2
0131039620999991984010214304+52683-008917FM-15+0020EINN V0202401N01591005101CN0112001N1+01101+01001999999ADDAG10001GA1051+005109079GA2031+010509059GA3081+024009049MA1098511999999MW1211OC102161REMMET035MOD TURB WITHPOS WS ON APCH RNY 24?
0282039620999991984010215004+52683-008917SY-MT+0020EINN V0202401N01851005401CN0112001N1+01201+00901098541ADDAG12001AY161031GA1011+003609079GA2051+005409079GA3081+024009049GF108991071071004501021999MA1098511999999MD1610431+9999MW1601OA149902991OA259999999REMSYN047333   81712 85718 88458 91158 91234 97170 97470MET036TEMPO 5000 5ST008      ?     8ST012?EQDQ01+000000PRSWM2Q02  01752WGOSPD
0102039620999991984010215304+52683-008917FM-15+0020EINN V0202701N01641003301CN0080001N1+00901+00801999999ADDAG12999GA1031+002409079GA2041+003309079GA3051+005409079MA1098711999999MW1601OC102571REMMET006NOSIG?
0183039620999991984010216004+52683-008917SY-MT+0020EINN V0202501N01341030001CN0120001N1+00901+00621098721ADDAG12999AY161011GA1021+003309079GA2051+030009049GF107991021071004501071021MA1098711999999MD1510071+9999MW1211OA149903241OA259902211REMSYN029333   82711 85460 91163 91243MET006NOSIG?
0132039620999991984010216304+52683-008917FM-15+0020EINN V0202701N01801220001CN0112001N1+00901+00601999999ADDAG12999GA1011+002409079GA2021+005409099MA1098711999999MW1251OC102521REMMET052NOSIG      ?     WS WITH MOD TURB ON APCH TO RNY 24?
0220039620999991984010217004+52683-008917SY-MT+0020EINN V0202701N01751004201CN0112001N1+00801+00401098761ADDAG12999AY181021GA1011+003009079GA2021+005409099GF105991051031004501001021MA1098711999999MD1310101+9999MW1251OA149902781OC102771REMSYN023333   81710 82918 91154MET052NOSIG      ?     WS WITH MOD TURB ON APCH TO RNY 24?
0139039620999991984010217304+52683-008917FM-15+0020EINN V0202701N01231014101CN0112001N1+00701+00401999999ADDAG12002GA1011+003009079GA2041+005409099GA3051+014109059MA1098821999999MW1251REMMET051NOSIG      ?     WS WITH MOD TURB ON APCH TO RW 24?
0257039620999991984010218004+52683-008917SY-MT+0020EINN V0202701N01541006001CN0150001N1+00561+00351098891ADDAA199015091AG10002AY181061GA1011+003609079GA2061+006009099GF108991071031004501999031KA1120M+01221MA1098821999999MD1210341+9999MW1801OA149902881OA259902211REMSYN035333   10122 81712 86920 91156 91243MET050NOSIG      ?     WS WITH MOD TURB ON APCH TO RW24?
0180039620999991984010219004+52683-008917SY-MT+0020EINN V0202901N01541004501CN0112001N1+00601+00201098881ADDAG12999AY181011GA1021+001509079GA2071+004509099GF107991071091001501999999MA1098821999999MD1210151+9999MW1871OA149902571OC102571REMSYN029333   82705 87915 99720 91150MET006NOSIG?
0070039620999991984010219304+52683-008917FM-15+0020EINN V0202601N01381006001CN0112001N1+00501+00201999999ADDAG12999GA1051+006009099MA1098921999999MW1271OC101951REMMET006NOSIG?
0186039620999991984010220004+52683-008917SY-MT+0020EINN V0202801N01381006601CN0112001N1+00401+00101099021ADDAG12999AY181021GA1011+004809079GA2061+006609099GF107991071091004501999999GJ100009MA1098981999999MD1210251+9999MW1801OA149902781REMSYN035333   81715 86922 99720 91154 94000MET006NOSIG?
0086039620999991984010220304+52683-008917FM-15+0020EINN V0202701N01231006001CN0112001N1+00401+00101999999ADDAG12002GA1051+006009099GA2031+060009009MA1098981999999MW1801OC101751REMMET006NOSIG?
0169039620999991984010221004+52683-008917SY-MT+0020EINN V0202801N02161006001CN0112001N1+00501-00201099051ADDAG12002AY181031GA1051+006009099GF106991051091008001001031MA1098981999999MD1310161+9999MW1251OA149902931OA259902161OC102931REMSYN023333   85920 91157 91242MET006NOSIG?
0078039620999991984010221304+52683-008917FM-15+0020EINN V0202701N01591220001CN0112001N1+00401-00301999999ADDAG12999GA1011+002409079GA2041+006009099MA1098981999999MW1251REMMET006NOSIG?
0180039620999991984010222004+52683-008917SY-MT+0020EINN V0202701N01441220001CN0150001N1+00301-00121099131ADDAG12999AY181011GA1031+006009099GF103991031091008001001001MA1099091999999MD1210251+9999MW1251OA149902931OA259901751REMSYN023333   83920 91157 91234MET006NOSIG?EQDQ01+000000PRSWM2
0086039620999991984010222304+52683-008917FM-15+0020EINN V0202701N01691004501CN0112001N1+00101+00001999999ADDAG12999GA1031+001509079GA2071+004509099MA1099091999999MW1871OC102521REMMET006NOSIG?
0168039620999991984010223004+52683-008917SY-MT+0020EINN V0202601N01641006001CN0200001N1+00211-00171099191ADDAG12999AY181021GA1071+006009099GF107991071091008001999999MA1099091999999MD1210171+9999MW1271OA149903091OA259901801REMSYN029333   87920 91160 91235 99720MET007NOSIHG?
0062039620999991984010223304+52683-008917FM-15+0020EINN V0202701N01381006001CN0112001N1+00301-00301999999ADDAG12002GA1071+006009099MA1099091999999MW1271REMMET006NOSIG?
0138039620999991984010300004+52683-008917SY-MT+0020EINN V0202701N01541006001CN0250001N1+00231-00111099241ADDAA106002091AG10002AY181061GA1051+006009099GF105991051031008001001001MA1099191999999MD1210191+9999MW1271REMSYN011333   85920MET006NOSIG?
0094039620999991984010300304+52683-008917FM-15+0020EINN V0202601N00921003601CN0112001N1+00201+00101999999ADDAG11999GA1031+001509079GA2051+003609099MA1099191999999MW1871OC101441REMMET014TEMOPO 5ST004?
0203039620999991984010301004+52683-008917SY-MT+0020EINN V0202601N01541003601CN0112001N1+00401-00101099221ADDAG12999AY181011GA1021+002109079GA2061+003609099GF107991071031002501999999MA1099191999999MD1010091+9999MW1871MW2891OA149902261OA259901701OC102261REMSYN029333   82707 86913 91144 91233MET012TEMPO 6000 ?
0075039620999991984010301304+52683-008917FM-15+0020EINN V0202701N01801220001CN0112001N1+00301-00101999999ADDAG11999GA1041+006009099MA1099191999999MW1271OC102571REMMET011TEMPO 6000?
0188039620999991984010302004+52683-008917SY-MT+0020EINN V0202601N01641004501CN0200001N1+00281+00041099261ADDAG12999AY181021GA1031+001809079GA2061+004509099GF107991071031002501999999MA1099191999999MD1310071+9999MW1801OA149902881OA259902161REMSYN029333   83706 86915 91156 91242MET011TEMPO 6000?
0097039620999991984010302304+52683-008917FM-15+0020EINN V0202501N01441003301CN0112001N1+00201+00201999999ADDAG12002GA1031+001809079GA2061+003309099MA1099191999999MW1801OC101951REMMET017TEMPO MAX50 6000?
0188039620999991984010303004+52683-008917SY-MT+0020EINN V0202501N01541006601CN0200001N1+00351+00031099161ADDAG12002AY181031GA1021+001809079GA2051+006609099GF106991061031002501999999MA1099091999999MD1810081+9999MW1251OA149902261OA259901601REMSYN029333   82706 85922 91144 91231MET011TEMPO 6000?
0075039620999991984010303304+52683-008917FM-15+0020EINN V0202601N01541220001CN0112001N1+00501+00001999999ADDAG12999GA1041+006009099MA1098981999999MW1251OC102471REMMET011TEMPO 6000?
0174039620999991984010304004+52683-008917SY-MT+0020EINN V0202501N01591007501CN0112001N1+00501+00001098991ADDAG12999AY181011GA1031+006009099GF105991051031008001999999MA1098921999999MD1810231+9999MW1251OA149902471OA259901701OC102211REMSYN023333   84920 91148 91233MET011TEMPO 6000?
0091039620999991984010304304+52683-008917FM-15+0020EINN V0202601N01641005401CN0112001N1+00301+00201999999ADDAG12999GA1021+003009079GA2041+005409099MA1098921999999MW1271OC102671REMMET011TEMPO 6000?
0200039620999991984010305004+52683-008917SY-MT+0020EINN V0202501N01131005401CN0200001N1+00381+00091098851ADDAG12999AY181021GA1021+003009079GA2051+005409099GF106991061031004501999999MA1098821999999MD1710411+9999MW1801OA149903191OA259901851REMSYN041333   82710 85918 99720 98362 91162 91236MET011TEMPO 6000?
0083039620999991984010305304+52683-008917FM-15+0020EINN V0202401N01231006001CN0112001N1+00401+00101999999ADDAG12002GA1021+003009079GA2051+006009099MA1098611999999MW1801REMMET011TEMPO 6000?
0264039620999991984010306004+52683-008917SY-MT+0020EINN V0202901N00511004501CN0070001N1+00281+00181098571ADDAA199003091AG10001AJ100009199999999AL19900091AY181061GA1021+002409079GA2061+004509099GF107991071031002501999999IA1099IA2999+00009KA1120N+00011MA1098511999999MD1710591+9999MW1831OA149902061REMSYN047333   20001 31100 82708 86915 91140 99500 99600MET011GRADU 9999?
0083039620999991984010306304+52683-008917FM-15+0020EINN V0203201N00921004501CN0030001N1+00201+00101999999ADDAG12999GA1021+002409079GA2061+004509099MA1098981999999MW1931REMMET011GRADU 8000?
0162039620999991984010307004+52683-008917SY-MT+0020EINN V0203201N01031220001CN0250001N1+00341-00171099121ADDAG12999AY191011GA1031+004509099GF103991031031004501001001MA1099091999999MD1310131+9999MW1291OA149902211REMSYN035333   83915 91143 99279 91329 91333MET006NOSIG?
0133039620999991984010308004+52683-008917SY-MT+0020EINN V0203001N01031004501CN0250001N1+00451-00151099321ADDAG12999AY181021GA1051+004509099GF105991051031004501001001MA1099291999999MD1310471+9999MW1271REMSYN017333   85915 99720MET006NOSIG?
0078039620999991984010308304+52683-008917FM-15+0020EINN V0202901N01131004501CN0112001N1+00501-00201999999ADDAG12002GA1021+002109079GA2051+004509099MA1099391999999MW1271REMMET006NOSIG?
0172039620999991984010309004+52683-008917SY-MT+0020EINN V0203001N01131004501CN0200001N1+00531-00121099471ADDAG12002AY191031GA1031+002409079GA2061+004509099GF107991071031002501999999MA1099391999999MD1110901+9999MW1801OA149901961REMSYN029333   83708 86915 91138 99720MET006NOSIG?
0086039620999991984010309304+52683-008917FM-15+0020EINN V0203101N01751003901CN0112001N1+00401+00001999999ADDAG12999GA1041+002109079GA2071+003909099MA1099591999999MW1871OC102361REMMET006NOSIG?
0172039620999991984010310004+52683-008917SY-MT+0020EINN V0203101N00871004501CN0112001N1+00401+00101099731ADDAG12999AY181011GA1021+003309079GA2041+004509099GF105991051031004501001001MA1099701999999MD1210611+9999MW1271OA149902421REMSYN029333   82711 84915 91147 99720MET006NOSIG?
0094039620999991984010310304+52683-008917FM-15+0020EINN V0203301N01331004501CN0112001N1+00401+00101999999ADDAG12999GA1031+003009079GA2041+004509099GA3051+006909059MA1099901999999MW1801REMMET006NOSIG?
0188039620999991984010311004+52683-008917SY-MT+0020EINN V0203401N00771024001CN0250001N1+00341+00011100031ADDAG12999AY181021GA1011+003009079GA2021+004509099GA3051+024009039GF106991041091004501031001MA1100001999999MD1210711+9999MW1251OA149902371REMSYN029333   81710 82915 85358 91146MET006NOSIG?
0183039620999991984010312004+52683-008917SY-MT+0020EINN V0203101N01701004501CN0150001N1+00281+00071100211ADDAA106003091AG10002AY191061GA1021+003009079GA2071+004509099GF108991081031004501999999MA1100201999999MD1210741+9999MW1901OA149903291REMSYN029333   82710 87915 91164 99720MET006NOSIG?
0227039620999991984010313004+52683-008917SY-MT+0020EINN V0203101N01701003001CN0180001N1+00181+00081100271ADDAG12999AL19900091AY171011GA1031+001509079GA2041+003009079GA3061+004509099GF107991071031001501999999MA1100201999999MD1010541+9999MW1691OA149903241REMSYN035333   83705 84710 86915 99500 91163MET029GRADU 2ST010 5CB015 TEMPO TS?
0140039620999991984010313304+52683-008917FM-15+0020EINN V0202901N00971220001CN0112001N1+00301+00101999999ADDAG12999GA1011+003009079GA2041+004509099MA1100311999999MW1261REMMET068INTER 8000       ?     WS OBS BTN 300FT AND 200FT ON APCH TO RWY 24?
0200039620999991984010314004+52683-008917SY-MT+0020EINN V0203201N01641004501CN0060001N1+00301+00201100471ADDAG12999AY181021GA1031+002109079GA2071+004509099GF107991071031002501999999MA1100411999999MD1210431+9999MW1871OA149902521OC102521REMSYN035333   83707 87915 91149 98125 99720MET020INTER 33030/55 8000?
0102039620999991984010314304+52683-008917FM-15+0020EINN V0203101N01381004501CN0112001N1+00201+00001999999ADDAG12002GA1021+002409079GA2061+004509099MA1100411999999MW1801OC102521REMMET022TEMPO 8000 5ST010  TS?
0202039620999991984010315004+52683-008917SY-MT+0020EINN V0202901N00871004801CN0112001N1+00301+00101100491ADDAG12003AY191031GA1021+003609079GA2051+004809099GF106991061091002501999031MA1100411999999MD1110271+9999MW1131MW2271OA149902521REMSYN029333   82712 85916 91149 99720MET030TEMPO 33030/55 8000 5ST010 TS?
0110039620999991984010315304+52683-008917FM-15+0020EINN V0203101N01021004501CN0112001N1+00201+00101999999ADDAG12999GA1021+003609079GA2071+004509099MA1100611999999MW1271OC101541REMMET030TEMPO 33030/55 8000 5ST010 TS?
0196039620999991984010316004+52683-008917SY-MT+0020EINN V0203001N01291004501CN0150001N1+00311+00071100641ADDAG12999AY191011GA1021+002709079GA2061+004509099GF106991061031002501999999MA1100611999999MD1210361+9999MW1931OA149902731REMSYN029333   82709 86915 91153 99720MET030TEMPO 33030/55 8000 5ST010 TS?
0110039620999991984010316304+52683-008917FM-15+0020EINN V0203101N01081004501CN0112001N1+00401+00001999999ADDAG12999GA1021+003609079GA2051+004509099MA1100611999999MW1271OC101851REMMET030TEMPO 33030/55 8000 5ST010 TS?
0214039620999991984010317004+52683-008917SY-MT+0020EINN V0203101N01801220001CN0112001N1+00401-00101100661ADDAG12999AY181021GA1011+003609079GA2031+004809099GF103991031091004501001031MA1100611999999MD1210191+9999MW1271OA149902631OC102621REMSYN029333   81712 83916 91151 99720MET021TEMPO 8000 5ST010 TS?EQDQ01+000000PRSWM2
0083039620999991984010317304+52683-008917FM-15+0020EINN V0203101N01441220001CN0112001N1+00501+00001999999ADDAG12000GA1021+004809099MA1100611999999OC102001REMMET006NOSIG?EQDQ01+000000PRSWM2
0197039620999991984010318004+52683-008917SY-MT+0020EINN V0203101N01641220001CN0112001N1+00601-00201100711ADDAA199008091AG12002AY191061GA1031+005409099GF104991031091004501001031KA1120M+00591MA1100711999999MD1210221+9999MW1251OA149902681OA259901801REMSYN035333   10059 83918 91152 91235 99720MET006NOSIG?
0083039620999991984010318304+52683-008917FM-15+0020EINN V0203201N01081220001CN0112001N1+00601-00201999999ADDAG12999GA1021+005409099MA1100711999999OC101951REMMET006NOSIG?EQDQ01+000000PRSWM2
0163039620999991984010319004+52683-008917SY-MT+0020EINN V0203301N01541220001CN0200001N1+00571-00171100901ADDAG12999AY101011GA1021+005409099GF104991021091004501001031MA1100811999999MD1210261+9999MW1021OA149902371REMSYN017333   82928 91146MET006NOSIG?EQDQ01+000000PRSWM2
0075039620999991984010319304+52683-008917FM-15+0020EINN V0203201N01181220001CN0112001N1+00501+00001999999ADDAG12999GA1031+005409099MA1100911999999REMMET006NOSIG?EQDQ01+000000PRSWM2
0150039620999991984010320004+52683-008917SY-MT+0020EINN V0203201N01131075001CN0112001N1+00601-00101101031ADDAG12999AY181021GA1031+005409099GF105991041091004501001031MA1101021999999MD1210371+9999MW1271OA149901801REMSYN023333   83918 99720 91135MET006NOSIG?
0070039620999991984010320304+52683-008917FM-15+0020EINN V0203201N01131220001CN0112001N1+00401+00001999999ADDAG12001GA1041+004809099MA1101081999999MW1871OC101641REMMET006NOSIG?
0180039620999991984010321004+52683-008917SY-MT+0020EINN V0203201N00871220001CN0112001N1+00401+00001101161ADDAG12002AY181031GA1011+002409079GA2021+004809099GF104991031091002501001031MA1101081999999MD1210451+9999MW1271OA149901851OC101381REMSYN029333   81708 82916 99720 91136MET006NOSIG?
0070039620999991984010321304+52683-008917FM-15+0020EINN V0203201N01181220001CN0112001N1+00501-00301999999ADDAG12999GA1021+004809099MA1101191999999MW1271OC101751REMMET006NOSIG?
0158039620999991984010322004+52683-008917SY-MT+0020EINN V0203201N01081075001CN0112001N1+00501-00201101281ADDAG12999AY181011GA1031+004809099GF105991041091004501001031MA1101191999999MD1210381+9999MW1271OA149901851OC101591REMSYN023333   83916 91136 99720MET006NOSIG?
0070039620999991984010322304+52683-008917FM-15+0020EINN V0203201N01331220001CN0112001N1+00601-00101999999ADDAG12999GA1021+004809099MA1101291999999MW1801OC101851REMMET006NOSIG?
0144039620999991984010323004+52683-008917SY-MT+0020EINN V0203201N01331220001CN0112001N1+00601-00101101411ADDAG12999AY181021GA1021+004809099GF104991031091004501001031MA1101391999999MD1210381+9999MW1251OA149901851REMSYN017333   82916 91136MET006NOSIG?
0086039620999991984010323304+52683-008917FM-15+0020EINN V0203301N01021220001CN0112001N1+00401+00101999999ADDAG12002GA1011+002709079GA2031+004809099MA1101491999999MW1271OC101541REMMET006NOSIG?
0183039620999991984010400004+52683-008917SY-MT+0020EINN V0203201N01181220001CN0112001N1+00401+00001101571ADDAA106000391AG12002AY181061GA1011+002709079GA2031+005109099GF104991041091002501001001MA1101491999999MD1210411+9999MW1271OA149902371REMSYN029333   81709 83917 99720 91146MET006NOSIG?
0062039620999991984010400304+52683-008917FM-15+0020EINN V0203201N01021220001CN0112001N1+00401+00101999999ADDAG11999GA1011+005109099MA1101591999999MW1271REMMET006NOSIG?
0163039620999991984010401004+52683-008917SY-MT+0020EINN V0203201N00821220001CN0112001N1+00401+00101101701ADDAG11999AY101011GA1011+006009099GF101991011031008001001001MA1101591999999MD1210421+9999MW1021OA149901601REMSYN017333   81920 91131MET006NOSIG?EQDQ01+000000PRSWM2
0075039620999991984010401304+52683-008917FM-15+0020EINN V0203301N00821220001CN0112001N1+00401+00101999999ADDAG11999GA1011+006009099MA1101691999999REMMET006NOSIG?EQDQ01+000000PRSWM2
0146039620999991984010402004+52683-008917SY-MT+0020EINN V0203201N00971220001CN0112001N1+00501+00001101831ADDAG12999AY101021GA1011+006009099GF101991011031008001001001MA1101801999999MD1210421+9999MW1021REMSYN011333   81920MET006NOSIG?EQDQ01+000000PRSWM2
0075039620999991984010402304+52683-008917FM-15+0020EINN V0203201N01021220001CN0112001N1+00501+00101999999ADDAG11000GA1011+006009099MA1101801999999REMMET006NOSIG?EQDQ01+000000PRSWM2
0163039620999991984010403004+52683-008917SY-MT+0020EINN V0203201N00611220001CN0112001N1+00401+00001101991ADDAG11000AY101031GA1011+006009099GF101991011031008001001001MA1101901999999MD1210421+9999MW1021OA149901341REMSYN017333   81920 91126MET006NOSIG?EQDQ01+000000PRSWM2
0075039620999991984010403304+52683-008917FM-15+0020EINN V0203301N00921220001CN0112001N1+00501-00101999999ADDAG12999GA1011+006009099MA1102001999999REMMET006NOSIG?EQDQ01+000000PRSWM2
0147039620999991984010404004+52683-008917SY-MT+0020EINN V0203301N00661220001CN0099001N1+00401-00101102121ADDAG12999AY101011GF100991001001999999001001MA1102101999999MD1210421+9999MW1021OA149901341REMSYN011333   91126MET012CAVOK NOSIG?EQDQ01+000000PRSWM2
0065039620999991984010404304+52683-008917FM-15+0020EINN V0203201N00661999991CY0099001N1+00401+00001999999ADDAG12999MA1102101999999REMMET012CAVOK NOSIG?EQDQ01+000000PRSWM2
0119039620999991984010405004+52683-008917SY-MT+0020EINN V0203301N00661220001CN0099001N1+00401-00101102191ADDAG12999AY101021GF100991001001999999001001MA1102101999999MD1210361+9999MW1021REMMET012CAVOK NOSIG?EQDQ01+000000PRSWM2
0065039620999991984010405304+52683-008917FM-15+0020EINN V0203201N00411999991CY0099001N1+00401+00101999999ADDAG12000MA1102201999999REMMET012CAVOK NOSIG?EQDQ01+000000PRSWM2
0184039620999991984010406004+52683-008917SY-MT+0020EINN V0203001N00301220001CN0099001N1+00401+00101102321ADDAA199000391AG12000AY101061GF100991001001999999001001IA1099IA2999+00009KA1120N+00331MA1102301999999MD1210331+9999MW1021REMSYN017333   20033 31000MET012CAVOK NOSIG?EQDQ01+000000PRSWM2
0127039620999991984010406304+52683-008917FM-15+0020EINN V0203201N00561999991CY0099001N1+00401+00001999999ADDAG12999MA1102301999999REMMET074CAVOK WS OBS AND WIND DOWN TO 100 FT     ?     32025 ON APCH RWY 06 NOSIG?EQDQ01+000000PRSWM2
0181039620999991984010407004+52683-008917SY-MT+0020EINN V0203101N00661220001CN0099001N1+00401+00101102411ADDAG12999AY101011GF100991001001999999001001MA1102401999999MD1210291+9999MW1021REMMET074CAVOK WS OBS AND WIND DOWN TO      ?     100FT 32025 ON APCH RWY 06 NOSIG?EQDQ01+000000PRSWM2
0065039620999991984010407304+52683-008917FM-15+0020EINN V0203301N00251999991CY0099001N1+00401+00101999999ADDAG12999MA1102401999999REMMET012CAVOK NOSIG?EQDQ01+000000PRSWM2
0127039620999991984010408004+52683-008917SY-MT+0020EINN V0203101N00251220001CN0112001N1+00401+00101102471ADDAG12999AY181021GA1021+007509089GF102991021081008001001001MA1102401999999MD1210281+9999MW1251REMSYN011333   82825MET006NOSIG?
0168039620999991984010409004+52683-008917SY-MT+0020EINN V0203101N00511220001CN0112001N1+00401+00201102571ADDAG12002AY181031GA1011+007509089GA2031+012009059GF104991031081008001001021MA1102511999999MD1210251+9999MW1031REMSYN017333   81825 83640MET006NOSIG?EQDQ01+000000PRSWM2
0075039620999991984010409304+52683-008917FM-15+0020EINN V0203101N00511220001CN0112001N1+00401+00201999999ADDAG12999GA1011+007509089MA1102511999999REMMET006NOSIG?EQDQ01+000000PRSWM2
0168039620999991984010410004+52683-008917SY-MT+0020EINN V0203001N00361075001CN0112001N1+00501+00101102601ADDAG12999AY101011GA1011+007509089GA2031+075009009GF105991021081008001001021MA1102511999999MD1110191+9999MW1021REMSYN017333   81825 83075MET006NOSIG?EQDQ01+000000PRSWM2
0091039620999991984010410304+52683-008917FM-15+0020EINN V0203101N00561220001CN0112001N1+00501+00201999999ADDAG12999GA1011+007509089GA2031+075009009MA1102611999999REMMET006NOSIG?EQDQ01+000000PRSWM2
0168039620999991984010411004+52683-008917SY-MT+0020EINN V0202901N00211220001CN0400001N1+00571+00171102661ADDAG12999AY101021GA1021+012009059GA2031+075009009GF103991021051012501001021MA1102611999999MD1210191+9999MW1021REMSYN017333   82640 83075MET006NOSIG?EQDQ01+000000PRSWM2
0091039620999991984010411304+52683-008917FM-15+0020EINN V0202301N00301220001CN0112001N1+00601+00301999999ADDAG12000GA1011+006009089GA2031+013509059MA1102611999999REMMET006NOSIG?EQDQ01+000000PRSWM2
0157039620999991984010412004+52683-008917SY-MT+0020EINN V0202201N00311013501CN0400001N1+00571+00281102631ADDAA106999929AG10002AY181061GA1051+013509059GF106991051051012501001021MA1102611999999MD1010061+9999MW1031REMSYN011333   85645MET006NOSIG?EQDQ01+000000PRSWM2
0075039620999991984010412304+52683-008917FM-15+0020EINN V0202401N00301013501CN0112001N1+00501+00201999999ADDAG12999GA1071+013509059MA1102611999999REMMET006NOSIG?EQDQ01+000000PRSWM2
0146039620999991984010413004+52683-008917SY-MT+0020EINN V0202501N00311013501CN0500001N1+00601+00231102621ADDAG12999AY101011GA1071+013509059GF107991071051012501999999MA1102611999999MD1010021+9999MW1021REMSYN011333   87645MET006NOSIG?EQDQ01+000000PRSWM2
0168039620999991984010414004+52683-008917SY-MT+0020EINN V0202301N00251030001CN0112001N1+00701+00301102551ADDAG12999AY101021GA1011+006009089GA2031+013509059GF105991031081008001031011MA1102511999999MD1810111+9999MW1021REMSYN017333   81820 83645MET006NOSIG?EQDQ01+000000PRSWM2
0190039620999991984010415004+52683-008917SY-MT+0020EINN V0202501N00211030001CN0300001N1+00701+00351102511ADDAG12000AY101031GA1011+006009089GA2031+015009059GA3071+030009039GF107991031081008001051011MA1102511999999MD1810121+9999MW1021REMSYN023333   81820 83650 87360MET006NOSIG?EQDQ01+000000PRSWM2
0107039620999991984010415304+52683-008917FM-15+0020EINN V0202501N00361015001CN0112001N1+00701+00401999999ADDAG12999GA1011+006009089GA2031+009009059GA3051+015009059MA1102401999999REMMET006NOSIG?EQDQ01+000000PRSWM2
0168039620999991984010416004+52683-008917SY-MT+0020EINN V0202401N00201030001CN0112001N1+00601+00401102451ADDAG12999AY101011GA1021+009009059GA2081+030009049GF108991021051012501021999MA1102401999999MD1810171+9999MW1021REMSYN017333   82630 88460MET006NOSIG?EQDQ01+000000PRSWM2
0171039620999991984010417004+52683-008917SY-MT+0020EINN V0202301N00311030001CN0250001N1+00591+00401102451ADDAG12999AY161021GA1011+009009059GA2031+015009059GA3081+030009049GF108991031051012501021999MA1102401999999MD1510101+9999MW1211REMSYN023333   81630 83650 88460MET006NOSIG?
0094039620999991984010417304+52683-008917FM-15+0020EINN V0202101N00411015001CN0112001N1+00601+00401999999ADDAG12001GA1031+008409059GA2031+015009059GA3081+027009049MA1102401999999MW1211REMMET006NOSIG?
0220039620999991984010418004+52683-008917SY-MT+0020EINN V0202101N00361009001CN0112001N1+00601+00401102391ADDAA199999929AG12001AY161061GA1021+003609079GA2041+009009059GA3081+027009049GF108991051051004501071999KA1120M+00711MA1102301999999MD1710121+9999MW1021REMSYN029333   10071 82712 84630 88459MET006NOSIG?EQDQ01+000000PRSWM2
0107039620999991984010418304+52683-008917FM-15+0020EINN V0201901N00411015001CN0112001N1+00501+00401999999ADDAG12999GA1031+007509059GA2051+015009059GA3071+027009049MA1102301999999REMMET006NOSIG?EQDQ01+000000PRSWM2
0171039620999991984010419004+52683-008917SY-MT+0020EINN V0202001N00511006001CN0250001N1+00531+00361102281ADDAG12999AY161011GA1021+003009079GA2051+006009059GA3081+009909059GF108991081061004501999999MA1102201999999MD1710171+9999MW1601REMSYN023333   82710 85620 88633MET006NOSIG?
0163039620999991984010420004+52683-008917SY-MT+0020EINN V0201801N00411027001CN0112001N1+00601+00401102261ADDAG12999AY161021GA1031+009009059GA2081+027009049GF108991031051012501071999GJ100549MA1102201999999MD1610191+9999MW1211REMSYN023333   83630 88459 94009MET006NOSIG?
0091039620999991984010420304+52683-008917FM-15+0020EINN V0201801N00511027001CN0112001N1+00601+00401999999ADDAG12000GA1031+012009059GA2081+027009049MA1102101999999REMMET006NOSIG?EQDQ01+000000PRSWM2
0189039620999991984010421004+52683-008917SY-MT+0020EINN V0201901N00461027001CN0099001N1+00601+00441102141ADDAG12001AY161031GA1031+010509059GA2081+027009049GF108991031051012501071999MD1710251+9999MW1021REMSYN017333   83635 88459MET042CAVOK 9999 3SC035 8AS090 06/04 1021 NOSIG?EQDQ01+000000PRSWM2
0107039620999991984010421304+52683-008917FM-15+0020EINN V0201901N00561012001CN0112001N1+00601+00501999999ADDAG12999GA1021+008109059GA2041+012009059GA3081+027009049MA1102001999999REMMET006NOSIG?EQDQ01+000000PRSWM2
0168039620999991984010422004+52683-008917SY-MT+0020EINN V0202001N00661008401CN0112001N1+00601+00501101991ADDAG12999AY101011GA1021+002409079GA2031+008409059GF105991041051002501031001MA1101901999999MD1710291+9999MW1021REMSYN017333   82708 83628MET006NOSIG?EQDQ01+000000PRSWM2
0091039620999991984010422304+52683-008917FM-15+0020EINN V0201901N00411024001CN0112001N1+00601+00401999999ADDAG12999GA1011+002409079GA2061+024009049MA1101901999999REMMET006NOSIG?EQDQ01+000000PRSWM2
0190039620999991984010423004+52683-008917SY-MT+0020EINN V0202101N00561030001CN0112001N1+00601+00501101861ADDAG12999AY101021GA1011+004209079GA2041+008409059GA3051+030009049GF107991051051004501071061MA1101801999999MD1710401+9999MW1021REMSYN023333   81714 84628 85460MET006NOSIG?EQDQ01+000000PRSWM2
0107039620999991984010423304+52683-008917FM-15+0020EINN V0202101N00611006001CN0112001N1+00801+00601999999ADDAG12000GA1011+003609079GA2051+006009059GA3071+030009049MA1101691999999REMMET006NOSIG?EQDQ01+000000PRSWM2
0186039620999991984010500004+52683-008917SY-MT+0020EINN V0202201N00771005101CN0300001N1+00781+00581101731ADDAA106999929AG10001AY161061GA1061+005109079GA2071+030009049GF108991061061004501071999MA1101691999999MD1710401+9999MW1031REMSYN017333   86717 87460MET013TEMPO 5ST012?EQDQ01+000000PRSWM2
0090039620999991984010500304+52683-008917FM-15+0020EINN V0202001N00721004201CN0112001N1+00801+00701999999ADDAG11999GA1021+002709079GA2071+004209079MA1101591999999MW1201REMMET018GRADU 8000 5ST012?
0176039620999991984010501004+52683-008917SY-MT+0020EINN V0202001N00671002701CN0100001N1+00771+00661101571ADDAG12999AY151011GA1021+001809079GA2051+002709079GA3071+003909079GF108991081061002501999999MA1101491999999MD1710411+9999MW1581REMSYN023333   82706 85709 87713MET011GRADU 8000?
0094039620999991984010501304+52683-008917FM-15+0020EINN V0202101N00661003901CN0060001N1+00801+00801999999ADDAG11999GA1031+002109079GA2071+003909079GA3081+015009049MA1101391999999MW1581REMMET006NOSIG?
0149039620999991984010502004+52683-008917SY-MT+0020EINN V0202101N00721002701CN0050001N1+00801+00801101431ADDAG12999AY161021GA1041+001809079GA2081+002709079GF108991081071002501999999MA1101391999999MD1710421+9999MW1631REMSYN017333   84706 88709MET006NOSIG?
0078039620999991984010502304+52683-008917FM-15+0020EINN V0202101N00661003001CN0050001N1+00801+00801999999ADDAG12002GA1031+001509079GA2081+003009079MA1101291999999MW1611REMMET006NOSIG?
0176039620999991984010503004+52683-008917SY-MT+0020EINN V0202201N00621002101CN0040001N1+00861+00841101311ADDAG12000AY161031GA1031+001209079GA2051+002109079GA3081+003309079GF108991081071001501999999MA1101291999999MD1710421+9999MW1591REMSYN023333   83704 85707 88711MET011GRADU 8000?
0083039620999991984010503304+52683-008917FM-15+0020EINN V0202501N00661002701CN0050001N1+00901+00901999999ADDAG12999GA1041+001509079GA2081+002709079MA1101191999999MW1581REMMET011GRADU 8000?
0168039620999991984010504004+52683-008917SY-MT+0020EINN V0202501N00721001201CN0050001N1+00921+00901101271ADDAG12999AY161011GA1051+001209079GA2081+002109079GF108991081061001501999999MA1101191999999MD1610301+9999MW1581REMSYN017333   85704 88707MET025GRADU 99995SC020       ??
0123039620999991984010504304+52683-008917FM-15+0020EINN V0202601N00661002401CN0060001N1+01001+00901999999ADDAG12999GA1031+001509079GA2081+002409079MA1101191999999MW1511REMMET051VIS 10KM TO      ?     SW AND NW GRADU 9999 6SC020?
0156039620999991984010505004+52683-008917SY-MT+0020EINN V0202901N00821003001CN0160001N1+01011+00991101281ADDAG12999AY161021GA1031+002109079GA2051+003009079GF106991061061002501999999MA1101191999999MD1510151+9999MW1211REMSYN017333   83707 85710MET013GRADU 6SC020?
0078039620999991984010505304+52683-008917FM-15+0020EINN V0203201N00821007501CN0112001N1+00901+00801999999ADDAG12001GA1021+002709079GA2061+007509059MA1101291999999MW1211REMMET006NOSIG?
0220039620999991984010506004+52683-008917SY-MT+0020EINN V0203101N00561007501CN0112001N1+00901+00701101451ADDAA199004091AG11000AY161061GA1021+003609079GA2071+007509059GF107991071051004501999999IA1099IA2999+00409KA1120N+00531MA1101391999999MD1310141+9999MW1501OA149901541REMSYN035333   20053 31004 82712 86625 91130MET006NOSIG?
0107039620999991984010506304+52683-008917FM-15+0020EINN V0203101N00511010801CN0112001N1+00801+00701999999ADDAG12999GA1021+007509059GA2041+010809059GA3071+018009059MA1101491999999REMMET006NOSIG?EQDQ01+000000PRSWM2
0168039620999991984010507004+52683-008917SY-MT+0020EINN V0203301N00671010501CN0300001N1+00821+00501101601ADDAG12999AY151011GA1061+010509059GA2071+015009059GF108991081051012501999999MA1101491999999MD1310331+9999MW1201REMSYN017333   86635 87650MET006NOSIG?EQDQ01+000000PRSWM2
0168039620999991984010508004+52683-008917SY-MT+0020EINN V0203101N00311012301CN0300001N1+00771+00501101701ADDAG12999AY101021GA1031+009609059GA2071+012309059GF107991071051012501999999MA1101591999999MD1210421+9999MW1021REMSYN017333   83632 87641MET006NOSIG?EQDQ01+000000PRSWM2
0190039620999991984010509004+52683-008917SY-MT+0020EINN V0203201N00261009001CN0200001N1+00761+00391101771ADDAG12000AY151031GA1011+004809079GA2051+009009059GA3071+015009059GF108991081051004501999999MA1101691999999MD1210321+9999MW1031REMSYN023333   81716 85630 87650MET006NOSIG?EQDQ01+000000PRSWM2
0091039620999991984010509304+52683-008917FM-15+0020EINN V0203101N00301015001CN0112001N1+00801+00401999999ADDAG12999GA1021+009009059GA2071+015009059MA1101691999999REMMET006NOSIG?EQDQ01+000000PRSWM2
0168039620999991984010510004+52683-008917SY-MT+0020EINN V0202901N00301015001CN0112001N1+00801+00401101871ADDAG12999AY101011GA1031+009009059GA2071+015009059GF107991071051008001999999MA1101801999999MD1210271+9999MW1021REMSYN017333   83630 87650MET006NOSIG?EQDQ01+000000PRSWM2
0190039620999991984010511004+52683-008917SY-MT+0020EINN V0202901N00361015001CN0250001N1+00791+00371101951ADDAG12999AY101021GA1011+004809079GA2031+009009059GA3071+015009059GF107991071051004501999999MA1101901999999MD1210251+9999MW1021REMSYN023333   81716 83630 87650MET006NOSIG?EQDQ01+000000PRSWM2
0179039620999991984010512004+52683-008917SY-MT+0020EINN V0203101N00561015001CN0112001N1+00801+00401101931ADDAA106999929AG12000AY151061GA1031+009009059GA2071+015009059GF107991071051012501999999MA1101901999999MD1010161+9999MW1011REMSYN017333   83630 87650MET006NOSIG?EQDQ01+000000PRSWM2
0168039620999991984010513004+52683-008917SY-MT+0020EINN V0203101N00461015001CN0112001N1+00901+00401101971ADDAG12999AY101011GA1031+009009059GA2061+015009059GF107991071051012501999999MA1101901999999MD1210101+9999MW1021REMSYN017333   83630 86650MET006NOSIG?EQDQ01+000000PRSWM2
0168039620999991984010514004+52683-008917SY-MT+0020EINN V0203001N00561015001CN0112001N1+00901+00501101991ADDAG12999AY101021GA1041+009009059GA2061+015009059GF107991071051012501999999MA1101901999999MD1310041+9999MW1021REMSYN017333   84630 86650MET006NOSIG?EQDQ01+000000PRSWM2
0091039620999991984010514304+52683-008917FM-15+0020EINN V0203001N00561015001CN0112001N1+00901+00301999999ADDAG12000GA1041+008109059GA2071+015009059MA1102001999999REMMET006NOSIG?EQDQ01+000000PRSWM2
0168039620999991984010515004+52683-008917SY-MT+0020EINN V0202901N00511015001CN0250001N1+00861+00451102021ADDAG12000AY101031GA1041+008109059GA2071+015009059GF107991071051008001999999MA1102001999999MD1210091+9999MW1021REMSYN017333   84627 87650MET006NOSIG?EQDQ01+000000PRSWM2
0091039620999991984010515304+52683-008917FM-15+0020EINN V0202901N00611015001CN0112001N1+00801+00401999999ADDAG12999GA1041+008409059GA2071+015009059MA1102001999999REMMET006NOSIG?EQDQ01+000000PRSWM2
0168039620999991984010516004+52683-008917SY-MT+0020EINN V0202901N00511015001CN0112001N1+00801+00501102081ADDAG12999AY101011GA1041+009009059GA2071+015009059GF107991071051012501999999MA1102001999999MD1210111+9999MW1021REMSYN017333   84630 87650MET006NOSIG?EQDQ01+000000PRSWM2
0146039620999991984010517004+52683-008917SY-MT+0020EINN V0202901N00301012001CN0112001N1+00801+00501102111ADDAG12999AY101021GA1081+012009059GF108991081051012501999999MA1102101999999MD1210121+9999MW1021REMSYN011333   88640MET006NOSIG?EQDQ01+000000PRSWM2
0091039620999991984010517304+52683-008917FM-15+0020EINN V0202801N00511012001CN0112001N1+00801+00501999999ADDAG12000GA1031+009909059GA2081+012009059MA1102101999999REMMET006NOSIG?EQDQ01+000000PRSWM2
0201039620999991984010518004+52683-008917SY-MT+0020EINN V0202401N00571012001CN0250001N1+00761+00521102111ADDAA199999929AG10000AY151061GA1011+003009079GA2031+009009059GA3081+012009059GF108991081051004501999999KA1120M+00881MA1102101999999MD1010091+9999MW1501REMSYN029333   10088 81710 83630 88640MET006NOSIG?
0078039620999991984010518304+52683-008917FM-15+0020EINN V0202801N00561012601CN0112001N1+00801+00501999999ADDAG12999GA1031+007509059GA2081+012609059MA1102101999999MW1201REMMET006NOSIG?
0163039620999991984010519004+52683-008917SY-MT+0020EINN V0202901N00571012001CN0250001N1+00761+00521102101ADDAG12999AY151011GA1021+009009059GA2081+012009059GF108991081051012501999999GJ100009MA1102001999999MD1010021+9999MW1201REMSYN023333   82630 88640 94000MET006NOSIG?
0091039620999991984010519304+52683-008917FM-15+0020EINN V0202601N00411012001CN0112001N1+00701+00501999999ADDAG12999GA1021+009009059GA2081+012009059MA1102101999999REMMET006NOSIG?EQDQ01+000000PRSWM2
0168039620999991984010520004+52683-008917SY-MT+0020EINN V0202601N00511018001CN0250001N1+00741+00441102151ADDAG12999AY101021GA1041+012009059GA2081+018009059GF108991081051012501999999MA1102101999999MD1210031+9999MW1021REMSYN017333   84640 88656MET006NOSIG?EQDQ01+000000PRSWM2
0091039620999991984010520304+52683-008917FM-15+0020EINN V0202701N00561012001CN0112001N1+00801+00501999999ADDAG12000GA1031+010509059GA2081+012009059MA1102101999999REMMET006NOSIG?EQDQ01+000000PRSWM2
0171039620999991984010521004+52683-008917SY-MT+0020EINN V0202701N00571012001CN0200001N1+00761+00471102121ADDAG12000AY151031GA1011+002109079GA2031+009009059GA3081+012009059GF108991081051002501999999MA1102101999999MD1010011+9999MW1501REMSYN023333   81707 83630 88640MET006NOSIG?
0078039620999991984010521304+52683-008917FM-15+0020EINN V0202501N00411012001CN0112001N1+00801+00501999999ADDAG12999GA1031+010509059GA2081+012009059MA1102001999999MW1201REMMET006NOSIG?
0146039620999991984010522004+52683-008917SY-MT+0020EINN V0202601N00511010501CN0112001N1+00801+00401102111ADDAG12999AY101011GA1081+010509059GF108991081051012501999999MA1102101999999MD1010011+9999MW1021REMSYN011333   88635MET006NOSIG?EQDQ01+000000PRSWM2
0075039620999991984010522304+52683-008917FM-15+0020EINN V0202501N00411010501CN0112001N1+00801+00301999999ADDAG12999GA1081+010509059MA1102001999999REMMET006NOSIG?EQDQ01+000000PRSWM2
0168039620999991984010523004+52683-008917SY-MT+0020EINN V0202501N00411009601CN0112001N1+00701+00601102101ADDAG12999AY101021GA1051+009609059GA2081+018009059GF108991081051012501999999MA1102001999999MD1710041+9999MW1021REMSYN017333   85632 88656MET006NOSIG?EQDQ01+000000PRSWM2
0078039620999991984010523304+52683-008917FM-15+0020EINN V0202501N00361008401CN0112001N1+00701+00501999999ADDAG12000GA1021+002109079GA2081+008409059MA1102001999999MW1201REMMET006NOSIG?
0138039620999991984010600004+52683-008917SY-MT+0020EINN V0202501N00361010801CN0300001N1+00731+00551102041ADDAA106999929AG10000AY151061GA1081+010809059GF108991081051012501999999MA1102001999999MD1810091+9999MW1201REMSYN011333   88636MET006NOSIG?
0091039620999991984010600304+52683-008917FM-15+0020EINN V0202501N00361010501CN0112001N1+00801+00501999999ADDAG11999GA1041+006609059GA2081+010509059MA1102001999999REMMET006NOSIG?EQDQ01+000000PRSWM2
0149039620999991984010601004+52683-008917SY-MT+0020EINN V0202401N00511010501CN0112001N1+00701+00601102051ADDAG12999AY151011GA1041+006309059GA2071+010509059GF108991081051008001999999MA1102001999999MD1610071+9999MW1201REMSYN017333   84621 87635MET006NOSIG?
0078039620999991984010601304+52683-008917FM-15+0020EINN V0202401N00411011701CN0112001N1+00701+00601999999ADDAG11999GA1031+007509059GA2071+011709059MA1101901999999MW1201REMMET006NOSIG?
0127039620999991984010602004+52683-008917SY-MT+0020EINN V0202501N00301006601CN0112001N1+00701+00601101931ADDAG12999AY151021GA1081+006609059GF108991081051008001999999MA1101901999999MD1810181+9999MW1501REMSYN011333   88622MET006NOSIG?
0078039620999991984010602304+52683-008917FM-15+0020EINN V0202401N00361006001CN0112001N1+00701+00601999999ADDAG11000GA1061+006009059GA2071+012009059MA1101901999999MW1201REMMET006NOSIG?
0156039620999991984010603004+52683-008917SY-MT+0020EINN V0202301N00361006001CN0060001N1+00701+00601101911ADDAG12000AY151031GA1061+006009059GA2071+010509059GF108991081051008001999999MA1101901999999MD1710131+9999MW1501REMSYN017333   86620 87635MET013TEMPO 6ST005?
0113039620999991984010603304+52683-008917FM-15+0020EINN V0202201N00461003301CN0070001N1+00701+00601999999ADDAG12999GA1011+001209079GA2041+001809079GA3061+003309079MA1101801999999MW1511REMMET025GRADU 9999 3ST012 8SC020?
0183039620999991984010604004+52683-008917SY-MT+0020EINN V0202201N00361005701CN0112001N1+00601+00601101811ADDAG12999AY151011GA1011+001809079GA2031+003009079GA3051+005709079GF108991081061002501999999MA1101801999999MD1710241+9999MW1501REMSYN023333   81706 83710 85719MET018TEMPO 8000 6ST005?
0106039620999991984010604304+52683-008917FM-15+0020EINN V0202001N00301008401CN0112001N1+00601+00601999999ADDAG12999GA1011+002409079GA2031+003609079GA3051+008409059MA1101691999999MW1201REMMET018GRADU 8000 6ST005?
0183039620999991984010605004+52683-008917SY-MT+0020EINN V0202001N00251003001CN0090001N1+00601+00601101751ADDAG12999AY151021GA1011+001209079GA2031+002109079GA3051+003009079GF108991081071001501999999MA1101691999999MD1710181+9999MW1501REMSYN023333   81704 83707 85710MET018TEMPO 6000 6ST005?
0106039620999991984010605304+52683-008917FM-15+0020EINN V0202001N00411006601CN0112001N1+00601+00601999999ADDAG12000GA1011+001809079GA2031+003909079GA3051+006609059MA1101691999999MW1201REMMET018TEMPO 6000 6ST005?
0244039620999991984010606004+52683-008917SY-MT+0020EINN V0202001N00361008401CN0112001N1+00701+00601101681ADDAA199000391AG12000AY151061GA1011+002409079GA2031+004209079GA3051+008409059GF108991081051002501999999IA1099IA2999+00609KA1120N+00641MA1101591999999MD1710231+9999MW1201REMSYN035333   20064 31006 81708 83714 85628MET025TEMPO 8000 5ST008 7ST012?
0113039620999991984010606304+52683-008917FM-15+0020EINN V0202001N00411004501CN0112001N1+00701+00601999999ADDAG12999GA1021+002709079GA2041+004509079GA3071+007509059MA1101591999999MW1201REMMET025TEMPO 8000 5ST008 7ST015?
0190039620999991984010607004+52683-008917SY-MT+0020EINN V0201901N00361006001CN0112001N1+00701+00601101591ADDAG12999AY151011GA1021+001509079GA2051+006009059GA3071+012009059GF108991081051001501999999MA1101901999999MD1710221+9999MW1201REMSYN023333   82705 85620 87640MET025TEMPO 8000 5ST008 8ST012?
0138039620999991984010607304+52683-008917FM-15+0020EINN V0202001N00411007501CN0112001N1+00701+00601999999ADDAG12999GA1021+002409079GA2051+007509059GA3071+012009059MA1101492999999REMMET037TEMPO 8000       ?     5ST008 8ST012?EQDQ01+000000PRSWM2
0221039620999991984010608004+52683-008917SY-MT+0020EINN V0202001N00301009001CN0112001N1+00701+00601101531ADDAG12999AY101021GA1011+002409079GA2051+009009059GA3071+015009059GF107991071051002501999999MA1101491999999MD1710221+9999MW1021REMSYN023333   81708 85630 87650MET037TEMPO 8000       ?     5ST008 8ST012?EQDQ01+000000PRSWM2
0138039620999991984010608304+52683-008917FM-15+0020EINN V0202001N00301006001CN0112001N1+00701+00601999999ADDAG12000GA1021+003309079GA2051+006009059GA3071+015009059MA1101491999999REMMET037TEMPO 8000       ?     5ST008 8ST012?EQDQ01+000000PRSWM2
0201039620999991984010609004+52683-008917SY-MT+0020EINN V0201901N00311004501CN0150001N1+00701+00631101511ADDAG12000AY151031GA1021+003009079GA2051+004509079GA3071+009009059GF108991081051004501999999MA1101491999999MD1610171+9999MW1201REMSYN023333   82710 85715 88630MET036TEMPO      ?     8000 5ST008 8ST012?
0190039620999991984010610004+52683-008917SY-MT+0020EINN V0201901N00201006601CN0112001N1+00701+00601101461ADDAG12999AY161011GA1031+004509079GA2031+006609059GA3071+012009059GF108991081051004501999999MA1101391999999MD1710131+9999MW1601REMSYN023333   83715 83622 87640MET025TEMPO 8000 5ST008 8ST012?
0113039620999991984010610304+52683-008917FM-15+0020EINN V0201801N00201006601CN0112001N1+00701+00601999999ADDAG12999GA1031+004509079GA2031+006609059GA3051+012009059MA1101391999999MW1611REMMET025TEMPO 8000 5ST008 8ST012?
0183039620999991984010611004+52683-008917SY-MT+0020EINN V0201501N00101012001CN0112001N1+00701+00701101431ADDAG12999AY161021GA1011+002409079GA2031+003309079GA3071+012009059GF108991081051002501999999MA1101391999999MD1710101+9999MW1611REMSYN023333   81708 83711 87640MET018TEMPO 8000 8ST012?
0187039620999991984010612004+52683-008917SY-MT+0020EINN V0201501N00201002401CN0050001N1+00801+00701101311ADDAA106000391AG12000AY161061GA1011+001809079GA2061+002409079GA3071+003009079GF108991081061002501999999MA1101291999999MD1810191+9999MW1511REMSYN023333   81706 86708 87710MET011GRADU 8000?
0083039620999991984010612304+52683-008917FM-15+0020EINN V0201601N00201002401CN0050001N1+00801+00801999999ADDAG12999GA1031+001509079GA2071+002409079MA1101191999999MW1511REMMET011TEMPO 8000?
0178039620999991984010613004+52683-008917SY-MT+0020EINN V0201701N00201003301CN0070001N1+00801+00801101191ADDAG12999AY151011GA1011+001209079GA2031+001509079GA3071+003309079GF108991081061001501999999MA1101081999999MD1810261+9999MW1201REMSYN023333   81704 83705 87711MET013TEMPO 5ST008?
0116039620999991984010613304+52683-008917FM-15+0020EINN V0201601N00201012001CN0050001N1+00801+00801999999ADDAG12999GA1011+001209079GA2031+002409079GA3071+012009059MA1101081999999MW1201REMMET02810KM SW TEMPO 5ST008 7ST012?
0178039620999991984010614004+52683-008917SY-MT+0020EINN V0201701N00201060001CN0080001N1+00901+00801101061ADDAG12999AY151021GA1011+001209079GA2031+003909079GA3071+060009029GF108991051061001501001081MA1101021999999MD1710361+9999MW1501REMSYN023333   81704 83713 87270MET013TEMPO 5ST008?
0099039620999991984010614304+52683-008917FM-15+0020EINN V0201701N00301002401CN0050001N1+00901+00801999999ADDAG12000GA1011+001209079GA2051+002409079GA3061+060009029MA1100911999999MW1501REMMET011TEMPO 8000?
0178039620999991984010615004+52683-008917SY-MT+0020EINN V0201701N00201003601CN0070001N1+00901+00901100961ADDAG12000AY151031GA1031+001209079GA2051+003609079GA3081+045009049GF108991061061001501071999MA1100911999999MD1710351+9999MW1501REMSYN023333   83704 85712 88465MET013TEMPO 5ST008?
0097039620999991984010615304+52683-008917FM-15+0020EINN V0201601N00201001201CN0040001N1+00901+00901999999ADDAG12999GA1051+001209079GA2081+003609079MA1100911999999MW1501REMMET025GRADU 5000 5ST008 8ST012?
0171039620999991984010616004+52683-008917SY-MT+0020EINN V0201601N00201001201CN0022001N1+00901+00901100871ADDAG12999AY151011GA1031+000609079GA2051+001209079GA3081+002709079GF108991081061000751999999MA1100811999999MD1710321+9999MW1531REMSYN023333   83702 85704 88709MET006NOSIG?
0094039620999991984010616304+52683-008917FM-15+0020EINN V0201401N00151000901CN0020001N1+00901+00901999999ADDAG12999GA1021+000309079GA2051+000909079GA3081+002409079MA1100811999999MW1531REMMET006NOSIG?
0171039620999991984010617004+52683-008917SY-MT+0020EINN V0201601N00151000901CN0020001N1+00851+00811100831ADDAG12999AY151021GA1021+000309079GA2051+000909079GA3081+002109079GF108991081061000251999999MA1100811999999MD1610231+9999MW1511REMSYN023333   82701 85703 88707MET006NOSIG?
0099039620999991984010617304+52683-008917FM-15+0020EINN V0201601N00101000901CN0015001N1+00901+00801999999ADDAG12000GA1011+000309079GA2051+000909079GA3081+001509079MA1100711999999MW1531REMMET011TEMPO 3000?
0261039620999991984010618004+52683-008917SY-MT+0020EINN V0202201N00101000601CN0007001N1+00871+00851100801ADDAA199001091AG10000AY151061GA1011+000309079GA2051+000609079GA3081+000909079GF108991081071000751999999GJ100009KA1120M+00891MA1100711999999MD1610161+9999MW1461REMSYN041333   10089 82701 85702 88703 94000 90492MET011GRADU 1500?EQDQ01+000472PRSWM1Q02+000472PRSWM2
0106039620999991984010618304+52683-008917FM-15+0020EINN V0202501N00251000901CN0050001N1+00901+00901999999ADDAG12999GA1021+000309079GA2031+000909079GA3081+001509079MA1100711999999MW1281REMMET018TEMPO 3000 6ST003?
0197039620999991984010619004+52683-008917SY-MT+0020EINN V0202501N00561001201CN0112001N1+00901+00901100741ADDAG12999AY151011GA1021+000609079GA2051+001209079GA3081+001809079GF108991081061000751999999MA1100711999999MD1810131+9999MW1281REMSYN029333   82702 85704 88706 90543MET007NO SIG?EQDQ01+000000PRSWM2
0095039620999991984010619304+52683-008917FM-15+0020EINN V0202501N00561001201CN0030001N1+00901+00901999999ADDAG12999GA1021+000609079GA2051+001209079GA3081+001809079MA1100711999999MW1501REMMET007NO SIG?
0176039620999991984010620004+52683-008917SY-MT+0020EINN V0202701N00571001501CN0030001N1+00951+00931100721ADDAG12999AY151021GA1021+000909079GA2041+001509079GA3081+002109079GF108991081071001501999999MA1100711999999MD1510111+9999MW1501REMSYN023333   82703 84705 88707MET011TEMPO 8000?
0099039620999991984010620304+52683-008917FM-15+0020EINN V0202801N00511001501CN0080001N1+00901+00901999999ADDAG12000GA1031+000909079GA2041+001509079GA3081+002109079MA1100711999999MW1201REMMET011TEMPO 3000?
0171039620999991984010621004+52683-008917SY-MT+0020EINN V0202701N00661001501CN0060001N1+00901+00901100721ADDAG12000AY151031GA1031+000909079GA2041+001509079GA3081+002109079GF108991081061001501999999MA1100711999999MD1510081+9999MW1201REMSYN023333   83703 84705 88707MET006NOSIG?
0099039620999991984010621304+52683-008917FM-15+0020EINN V0202701N00661001201CN0020001N1+00901+00901999999ADDAG12999GA1031+000609079GA2041+001209079GA3081+001509079MA1100711999999MW1501REMMET011GRADU 6000?
0176039620999991984010622004+52683-008917SY-MT+0020EINN V0202801N00411001201CN0035001N1+00891+00851100791ADDAG12999AY161011GA1031+000609079GA2061+001209079GA3081+001809079GF108991081061000751999999MA1100711999999MD1310051+9999MW1581REMSYN023333   83702 86704 88706MET011TEMPO 8000?
0099039620999991984010622304+52683-008917FM-15+0020EINN V0202801N00461001201CN0090001N1+00901+00701999999ADDAG12999GA1021+000609079GA2051+001209079GA3081+002109079MA1100711999999MW1581REMMET011TEMPO 5000?
0209039620999991984010623004+52683-008917SY-MT+0020EINN V0203101N00661006001CN0112001N1+00901+00801100831ADDAG12999AY161021GA1031+004509079GA2061+006009059GA3081+010509059GF108991081061004501999999MA1100811999999MD1310111+9999MW1211OA149901901OC101281REMSYN029333   83715 86620 88635 91137MET019TEMPO 8000 5ST007 ?
0074039620999991984010623304+52683-008917FM-15+0020EINN V0203101N00821220001CN0112001N1+00901+00701999999ADDAG12001GA1031+005409089MA1100811999999MW1211REMMET018TEMPO 8000 4ST010?
0157039620999991984010700004+52683-008917SY-MT+0020EINN V0203101N00621220001CN0250001N1+00861+00741100891ADDAA106000591AG10001AY161061GA1021+005409089GF102991021021004501001001MA1100811999999MD1310171+9999MW1011REMSYN011333   82818MET006NOSIG?EQDQ01+000000PRSWM2
0086039620999991984010700304+52683-008917FM-15+0020EINN V0203101N00611005401CN0112001N1+00801+00601999999ADDAG11999GA1021+003609079GA2031+005409089MA1100911999999MW1801OC101281REMMET006NOSIG?
0188039620999991984010701004+52683-008917SY-MT+0020EINN V0203101N00561006301CN0112001N1+00801+00601100951ADDAG12999AY181011GA1021+004509079GA2031+006309089GA3051+011709059GF107991071081004501999999MA1100911999999MD1210161+9999MW1251OA149901291REMSYN029333   82715 83821 85639 91125MET006NOSIG?
0075039620999991984010701304+52683-008917FM-15+0020EINN V0203101N00921220001CN0112001N1+00801+00501999999ADDAG11999GA1021+005409089MA1100911999999REMMET006NOSIG?EQDQ01+000000PRSWM2
0163039620999991984010702004+52683-008917SY-MT+0020EINN V0203101N00771220001CN0112001N1+00701+00601101011ADDAG12999AY101021GA1011+006009089GF101991011021008001001001MA1101021999999MD1210171+9999MW1021OA149901291REMSYN017333   81820 91125MET006NOSIG?EQDQ01+000000PRSWM2
0075039620999991984010702304+52683-008917FM-15+0020EINN V0203001N00921220001CN0112001N1+00701+00301999999ADDAG12000GA1011+006009089MA1101021999999REMMET006NOSIG?EQDQ01+000000PRSWM2
0168039620999991984010703004+52683-008917SY-MT+0020EINN V0203001N00721012001CN0112001N1+00701+00201101061ADDAG12002AY181031GA1021+006009089GA2051+012009059GF106991061081008001999999MA1101021999999MD1210161+9999MW1031REMSYN017333   82820 85640MET006NOSIG?EQDQ01+000000PRSWM2
0091039620999991984010703304+52683-008917FM-15+0020EINN V0203001N00661220001CN0112001N1+00701+00201999999ADDAG12999GA1011+006009089GA2031+010509059MA1101021999999REMMET006NOSIG?EQDQ01+000000PRSWM2
0188039620999991984010704004+52683-008917SY-MT+0020EINN V0203001N00771010501CN0300001N1+00701+00271101071ADDAG12999AY181011GA1011+003009079GA2031+005409089GA3051+010509059GF105991051081004501999999MA1101021999999MD1110111+9999MW1251OA149901391REMSYN029333   81710 83818 85635 91127MET006NOSIG?
0091039620999991984010704304+52683-008917FM-15+0020EINN V0203001N00771012001CN0112001N1+00701+00201999999ADDAG12999GA1021+005409089GA2031+012009059MA1101021999999REMMET006NOSIG?EQDQ01+000000PRSWM2
0215039620999991984010705004+52683-008917SY-MT+0020EINN V0203101N01081010501CN0112001N1+00701+00101101111ADDAG12999AY101021GA1021+005409089GA2031+010509059GA3051+013509059GF106991061081004501999999MA1101081999999MD1210101+9999MW1021OA149901651OC101641REMSYN029333   82818 83635 85645 91132MET006NOSIG?EQDQ01+000000PRSWM2
0102039620999991984010705304+52683-008917FM-15+0020EINN V0203101N01021012001CN0112001N1+00701+00101999999ADDAG12002GA1011+002409079GA2031+005109089GA3061+012009059MA1101081999999MW1251OC101751REMMET006NOSIG?
0242039620999991984010706004+52683-008917SY-MT+0020EINN V0203001N00971013501CN0112001N1+00701+00201101131ADDAA199000591AG12002AY181061GA1011+002409079GA2031+005109089GA3051+013509059GF106991061081002501999999IA1099IA2999+00309KA1120N+00621MA1101081999999MD1110071+9999MW1251OA149901751REMSYN041333   20062 31003 81708 83817 85645 91134MET006NOSIG?
0144039620999991984010707004+52683-008917SY-MT+0020EINN V0202901N00771220001CN0112001N1+00601+00201101141ADDAG12999AY181011GA1021+006009089GF102991021021008001001001MA1101081999999MD1210071+9999MW1251OA149901801REMSYN017333   82820 91135MET006NOSIG?
0094039620999991984010707304+52683-008917FM-15+0020EINN V0202901N00921018001CN0112001N1+00701+00001999999ADDAG12999GA1011+006009089GA2031+010509059GA3061+018009059MA1101081999999MW1251REMMET006NOSIG?
0185039620999991984010708004+52683-008917SY-MT+0020EINN V0203001N01281018001CN0112001N1+00601+00001101151ADDAG12999AY181021GA1021+006009089GA2041+018009059GF105991051081008001999001MA1101081999999MD1210041+9999MW1251OA149901961REMSYN023333   82820 84656 91138MET006NOSIG?EQDQ01    003SCOMCG
0078039620999991984010708304+52683-008917FM-15+0020EINN V0202901N00721220001CN0112001N1+00601+00201999999ADDAG12002GA1011+006009089GA2041+013509059MA1101081999999MW1251REMMET006NOSIG?
0166039620999991984010709004+52683-008917SY-MT+0020EINN V0203001N00661220001CN0112001N1+00501+00201101201ADDAG12002AY181031GA1011+004509079GA2021+006009099GF102991021031004501001001MA1101081999999MD1310071+9999MW1251OA149901541REMSYN023333   81715 82920 91130MET006NOSIG?
0086039620999991984010709304+52683-008917FM-15+0020EINN V0202901N01281006001CN0112001N1+00601+00201999999ADDAG12999GA1021+004509079GA2051+006009099MA1101191999999MW1251OC101951REMMET006NOSIG?
0166039620999991984010710004+52683-008917SY-MT+0020EINN V0202901N00661220001CN0112001N1+00501+00301101251ADDAG12999AY181011GA1021+006009099GA2031+010509059GF104991041031008001001021MA1101191999999MD1310111+9999MW1251OA149901961REMSYN023333   82920 83635 91138MET006NOSIG?
0091039620999991984010710304+52683-008917FM-15+0020EINN V0202901N01131011101CN0112001N1+00601+00201999999ADDAG12999GA1031+006009099GA2041+011109059MA1101191999999REMMET006NOSIG?EQDQ01+000000PRSWM2
0149039620999991984010711004+52683-008917SY-MT+0020EINN V0203001N01231011101CN0250001N1+00621+00141101321ADDAG12999AY181021GA1031+006009099GA2041+011109059GF105991051031008001001001MA1101291999999MD1210171+9999MW1801REMSYN017333   83920 84637MET006NOSIG?
0062039620999991984010711304+52683-008917FM-15+0020EINN V0203001N00661220001CN0112001N1+00701+00201999999ADDAG12002GA1021+006009099MA1101291999999MW1251REMMET006NOSIG?
0179039620999991984010712004+52683-008917SY-MT+0020EINN V0203001N01131012001CN0300001N1+00721+00181101331ADDAA106000391AG10002AY181061GA1021+006909089GA2041+012009059GF105991051081008001001001MA1101291999999MD1110131+9999MW1021REMSYN017333   82823 84640MET006NOSIG?EQDQ01+000000PRSWM2
0150039620999991984010713004+52683-008917SY-MT+0020EINN V0203201N01021220001CN0112001N1+00601+00301101331ADDAG12999AY181011GA1021+006009099GF102991021031008001001001MA1101291999999MD1110081+9999MW1251OA149901961REMSYN023333   82920 91138 98432MET006NOSIG?
0144039620999991984010714004+52683-008917SY-MT+0020EINN V0203101N00771220001CN0112001N1+00601+00301101341ADDAG12999AY181021GA1021+006009099GF103991031031008001001001MA1101291999999MD1110021+9999MW1251OA149901601REMSYN017333   82920 91131MET006NOSIG?
0062039620999991984010714304+52683-008917FM-15+0020EINN V0203101N00661220001CN0112001N1+00701+00301999999ADDAG12002GA1011+006009099MA1101291999999MW1251REMMET006NOSIG?
0127039620999991984010715004+52683-008917SY-MT+0020EINN V0203101N00771220001CN0112001N1+00701+00201101341ADDAG12002AY181031GA1021+006009099GF103991031031008001001001MA1101291999999MD1210011+9999MW1251REMSYN011333   82920MET006NOSIG?
0146039620999991984010716004+52683-008917SY-MT+0020EINN V0203101N00721220001CN0250001N1+00641+00171101401ADDAG12999AY101011GA1021+006009099GF102991021031008001001001MA1101291999999MD1310071+9999MW1021REMSYN011333   82920MET006NOSIG?EQDQ01+000000PRSWM2
0078039620999991984010716304+52683-008917FM-15+0020EINN V0203201N00921012001CN0112001N1+00601+00201999999ADDAG12999GA1041+006009099GA2031+012009059MA1101391999999MW1801REMMET006NOSIG?
0144039620999991984010717004+52683-008917SY-MT+0020EINN V0203101N00821007501CN0250001N1+00501+00151101471ADDAG12999AY181021GA1041+006009099GF105991051031008001999999MA1101391999999MD1310131+9999MW1251OA149901901REMSYN017333   84920 91137MET006NOSIG?
0062039620999991984010717304+52683-008917FM-15+0020EINN V0203001N00611220001CN0112001N1+00501+00301999999ADDAG12002GA1021+006009099MA1101491999999MW1251REMMET006NOSIG?
0193039620999991984010718004+52683-008917SY-MT+0020EINN V0203001N00561220001CN0112001N1+00501+00201101511ADDAA199001091AG11002AY181061GA1021+006009099GF103991031091008001001001KA1120M+00761MA1101491999999MD1110171+9999MW1011OA149901291REMSYN023333   10076 82920 91125MET006NOSIG?EQDQ01+000000PRSWM2
0086039620999991984010718304+52683-008917FM-15+0020EINN V0203001N01021010501CN0112001N1+00501+00301999999ADDAG12999GA1031+006009099GA2031+010509059MA1101491999999MW1251OC101591REMMET006NOSIG?
0188039620999991984010719004+52683-008917SY-MT+0020EINN V0202901N01281005401CN0112001N1+00501+00301101571ADDAG12999AY181011GA1031+002409079GA2071+005409099GF107991071091002501999999GJ101389MA1101491999999MD1210171+9999MW1801OA149902111OC102111REMSYN029333   83708 87918 91141 94023MET006NOSIG?
0062039620999991984010719304+52683-008917FM-15+0020EINN V0203001N00611220001CN0112001N1+00501+00201999999ADDAG12999GA1021+006009099MA1101491999999MW1251REMMET006NOSIG?
0144039620999991984010720004+52683-008917SY-MT+0020EINN V0203001N00671220001CN0300001N1+00471+00251101581ADDAG12999AY181021GA1011+006009099GF101991011091008001001001MA1101491999999MD1110111+9999MW1251OA149901601REMSYN017333   81920 91131MET006NOSIG?
0075039620999991984010720304+52683-008917FM-15+0020EINN V0203101N00461220001CN0112001N1+00501+00201999999ADDAG12000GA1011+006009099MA1101591999999REMMET006NOSIG?EQDQ01+000000PRSWM2
0146039620999991984010721004+52683-008917SY-MT+0020EINN V0203101N00411220001CN0112001N1+00501+00201101651ADDAG12002AY181031GA1011+006009099GF101991011031008001001001MA1101591999999MD1210141+9999MW1021REMSYN011333   81920MET006NOSIG?EQDQ01+000000PRSWM2
0075039620999991984010721304+52683-008917FM-15+0020EINN V0202901N00411220001CN0112001N1+00401+00201999999ADDAG12999GA1011+006009099MA1101591999999REMMET006NOSIG?EQDQ01+000000PRSWM2
0168039620999991984010722004+52683-008917SY-MT+0020EINN V0202901N00771012001CN0300001N1+00451+00171101711ADDAG12999AY101011GA1011+006009089GA2051+012009059GF106991061081008001999999MA1101691999999MD1210141+9999MW1021REMSYN017333   81820 85640MET006NOSIG?EQDQ01+000000PRSWM2
0091039620999991984010722304+52683-008917FM-15+0020EINN V0203101N00561220001CN0112001N1+00501+00301999999ADDAG12999GA1011+006009089GA2031+012009059MA1101691999999REMMET006NOSIG?EQDQ01+000000PRSWM2
0146039620999991984010723004+52683-008917SY-MT+0020EINN V0203101N00511220001CN0112001N1+00501+00201101741ADDAG12999AY101021GA1021+006009089GF102991021081008001001001MA1101691999999MD1210161+9999MW1021REMSYN011333   81820MET006NOSIG?EQDQ01+000000PRSWM2
0075039620999991984010723304+52683-008917FM-15+0020EINN V0203001N00511220001CN0112001N1+00401+00201999999ADDAG12000GA1011+006009089MA1101691999999REMMET006NOSIG?EQDQ01+000000PRSWM2
0111039620999991984010800004+52683-008917FM-12+0020EINN V0203001N00411220001CN0300001N9+00471+00191101781ADDAA106001091AG10002AY181061GA1011+006009089GF101991011081008001001001MD1210131+9999MW1011REMSYN011333   81820
0075039620999991984010800304+52683-008917FM-15+0020EINN V0203101N00361220001CN0112001N1+00401+00101999999ADDAG11999GA1011+006009089MA1101801999999REMMET006NOSIG?EQDQ01+000000PRSWM2
0146039620999991984010801004+52683-008917SY-MT+0020EINN V0203001N00411220001CN0112001N1+00501+00201101891ADDAG11999AY101011GA1011+006009089GF101991011021008001001001MA1101801999999MD1210181+9999MW1021REMSYN011333   81820MET006NOSIG?EQDQ01+000000PRSWM2
0075039620999991984010801304+52683-008917FM-15+0020EINN V0203201N00721220001CN0112001N1+00501+00201999999ADDAG11999GA1011+006009089MA1101901999999REMMET006NOSIG?EQDQ01+000000PRSWM2
0119039620999991984010802004+52683-008917SY-MT+0020EINN V0203201N00461220001CN0300001N1+00441+00131101981ADDAG11999AY101021GF100991001001999999001001MA1101901999999MD1210241+9999MW1021REMMET012CAVOK NOSIG?EQDQ01+000000PRSWM2
0065039620999991984010802304+52683-008917FM-15+0020EINN V0202801N00361999991CY0099001N1+00401+00101999999ADDAG11000MA1102001999999REMMET012CAVOK NOSIG?EQDQ01+000000PRSWM2
0119039620999991984010803004+52683-008917SY-MT+0020EINN V0203101N00571220001CN0300001N1+00351+00121102011ADDAG11000AY101031GF100991001001999999001001MA1102001999999MD1110231+9999MW1021REMMET012CAVOK NOSIG?EQDQ01+000000PRSWM2
0065039620999991984010803304+52683-008917FM-15+0020EINN V0203101N00461999991CY0099001N1+00401+00101999999ADDAG11999MA1102001999999REMMET012CAVOK NOSIG?EQDQ01+000000PRSWM2
0119039620999991984010804004+52683-008917SY-MT+0020EINN V0203101N00411220001CN0300001N1+00341+00131102061ADDAG12999AY101011GF100991001001999999001001MA1102001999999MD1210171+9999MW1021REMMET012CAVOK NOSIG?EQDQ01+000000PRSWM2
0065039620999991984010804304+52683-008917FM-15+0020EINN V0202901N00361999991CY0099001N1+00301+00101999999ADDAG12999MA1102001999999REMMET012CAVOK NOSIG?EQDQ01+000000PRSWM2
0146039620999991984010805004+52683-008917SY-MT+0020EINN V0202901N00411220001CN0300001N1+00331+00121102121ADDAG12999AY101021GA1011+006009089GF101991011081008001001001MA1102101999999MD1210141+9999MW1021REMSYN011333   81820MET006NOSIG?EQDQ01+000000PRSWM2
0075039620999991984010805304+52683-008917FM-15+0020EINN V0203201N00201220001CN0112001N1+00301+00101999999ADDAG12000GA1011+006009089MA1102101999999REMMET006NOSIG?EQDQ01+000000PRSWM2
0200039620999991984010806004+52683-008917SY-MT+0020EINN V0203001N00251220001CN0112001N1+00301+00101102201ADDAA199001091AG12000AY101061GA1011+006009089GF101991011081008001001001IA1099IA2999-00109KA1120N+00291MA1102101999999MD1210191+9999MW1021REMSYN023333   20029 31101 81820MET006NOSIG?EQDQ01+000000PRSWM2
0075039620999991984010806304+52683-008917FM-15+0020EINN V0203001N00361220001CN0112001N1+00301+00101999999ADDAG12999GA1011+006009089MA1102201999999REMMET006NOSIG?EQDQ01+000000PRSWM2
0146039620999991984010807004+52683-008917SY-MT+0020EINN V0202801N00361220001CN0300001N1+00291+00081102241ADDAG12999AY101011GA1011+006009089GF101991011021008001001001MA1102201999999MD1210181+9999MW1021REMSYN011333   81820MET006NOSIG?EQDQ01+000000PRSWM2
0075039620999991984010807304+52683-008917FM-15+0020EINN V0203001N00361220001CN0112001N1+00301+00101999999ADDAG12999GA1011+006009089MA1102301999999REMMET006NOSIG?EQDQ01+000000PRSWM2
0152039620999991984010808004+52683-008917SY-MT+0020EINN V0203401N00101220001CN0112001N1+00301+00201102341ADDAG12999AY101021GA1011+006009089GF101991011081008001001001MA1102301999999MD1210221+9999MW1021REMSYN017333   81820 92000MET006NOSIG?EQDQ01+000000PRSWM2
0075039620999991984010808304+52683-008917FM-15+0020EINN V0202901N00461220001CN0112001N1+00301+00101999999ADDAG12000GA1011+005409089MA1102301999999REMMET006NOSIG?EQDQ01+000000PRSWM2
0152039620999991984010809004+52683-008917SY-MT+0020EINN V0203101N00251220001CN0112001N1+00401+00101102401ADDAG12000AY101031GA1011+005409089GF101991011081004501001001MA1102301999999MD1210201+9999MW1021REMSYN017333   81818 92000MET006NOSIG?EQDQ01+000000PRSWM2
0075039620999991984010809304+52683-008917FM-15+0020EINN V0203201N00561220001CN0112001N1+00401+00101999999ADDAG12999GA1011+005409089MA1102401999999REMMET006NOSIG?EQDQ01+000000PRSWM2
0146039620999991984010810004+52683-008917SY-MT+0020EINN V0203201N00511220001CN0300001N1+00471+00141102471ADDAG12999AY101011GA1011+006009089GF101991011081008001001001MA1102401999999MD1210231+9999MW1021REMSYN011333   81820MET006NOSIG?EQDQ01+000000PRSWM2
0075039620999991984010810304+52683-008917FM-15+0020EINN V0203201N00721220001CN0112001N1+00501+00101999999ADDAG12999GA1011+006009089MA1102401999999REMMET006NOSIG?EQDQ01+000000PRSWM2
0146039620999991984010811004+52683-008917SY-MT+0020EINN V0203201N00771220001CN0300001N1+00601+00151102541ADDAG12999AY101021GA1011+006009089GF101991011081008001001001MA1102511999999MD1210201+9999MW1021REMSYN011333   81820MET006NOSIG?EQDQ01+000000PRSWM2
0075039620999991984010811304+52683-008917FM-15+0020EINN V0203301N00721220001CN0112001N1+00601+00101999999ADDAG12000GA1011+006009089MA1102511999999REMMET006NOSIG?EQDQ01+000000PRSWM2
0157039620999991984010812004+52683-008917SY-MT+0020EINN V0203401N00721220001CN0112001N1+00701+00201102551ADDAA106999929AG12000AY101061GA1011+006009089GF101991011081008001001001MA1102511999999MD1210151+9999MW1021REMSYN011333   81820MET006NOSIG?EQDQ01+000000PRSWM2
0075039620999991984010812304+52683-008917FM-15+0020EINN V0203401N00771220001CN0112001N1+00701+00101999999ADDAG12999GA1011+006009089MA1102511999999REMMET006NOSIG?EQDQ01+000000PRSWM2
0146039620999991984010813004+52683-008917SY-MT+0020EINN V0203501N00721220001CN0112001N1+00701+00101102521ADDAG12999AY101011GA1011+006009089GF101991011081008001001001MA1102511999999MD1010051+9999MW1021REMSYN011333   81820MET006NOSIG?EQDQ01+000000PRSWM2
0075039620999991984010813304+52683-008917FM-15+0020EINN V0203401N00661220001CN0112001N1+00701+00201999999ADDAG12999GA1011+006009089MA1102511999999REMMET006NOSIG?EQDQ01+000000PRSWM2
0146039620999991984010814004+52683-008917SY-MT+0020EINN V0203201N00561220001CN0112001N1+00701+00101102561ADDAG12999AY101021GA1011+006009089GF101991011081008001001001MA1102511999999MD1310021+9999MW1021REMSYN011333   81820MET006NOSIG?EQDQ01+000000PRSWM2
0075039620999991984010814304+52683-008917FM-15+0020EINN V0203301N00561220001CN0112001N1+00701+00201999999ADDAG12000GA1011+006009089MA1102511999999REMMET006NOSIG?EQDQ01+000000PRSWM2
0146039620999991984010815004+52683-008917SY-MT+0020EINN V0203401N00611220001CN0112001N1+00701+00101102561ADDAG12000AY101031GA1011+006009089GF101991011081008001001001MA1102511999999MD1110011+9999MW1021REMSYN011333   81820MET006NOSIG?EQDQ01+000000PRSWM2
0075039620999991984010815304+52683-008917FM-15+0020EINN V0203201N00461220001CN0112001N1+00701+00201999999ADDAG12999GA1011+006009089MA1102511999999REMMET006NOSIG?EQDQ01+000000PRSWM2
0146039620999991984010816004+52683-008917SY-MT+0020EINN V0203201N00361220001CN0112001N1+00601+00201102631ADDAG12999AY101011GA1011+006009089GF101991011081008001001001MA1102611999999MD1310111+9999MW1021REMSYN011333   81820MET006NOSIG?EQDQ01+000000PRSWM2
0091039620999991984010816304+52683-008917FM-15+0020EINN V0202801N00361220001CN0112001N1+00601+00201999999ADDAG12999GA1011+006009089GA2031+012009059MA1102611999999REMMET006NOSIG?EQDQ01+000000PRSWM2
0146039620999991984010817004+52683-008917SY-MT+0020EINN V0203201N00611220001CN0112001N1+00601+00101102641ADDAG12999AY101021GA1011+006009089GF102991021081008001001001MA1102611999999MD1110081+9999MW1021REMSYN011333   81820MET006NOSIG?EQDQ01+000000PRSWM2
0075039620999991984010817304+52683-008917FM-15+0020EINN V0203101N00251220001CN0112001N1+00501+00201999999ADDAG12000GA1011+006009089MA1102611999999REMMET006NOSIG?EQDQ01+000000PRSWM2
0176039620999991984010818004+52683-008917SY-MT+0020EINN V0203201N00301220001CN0112001N1+00401+00201102691ADDAA199999929AG12000AY101061GA1011+006009089GF101991011081008001001001KA1120M+00741MA1102611999999MD1210131+9999MW1021REMSYN017333   10074 81820MET006NOSIG?EQDQ01+000000PRSWM2
0075039620999991984010818304+52683-008917FM-15+0020EINN V0203101N00201220001CN0112001N1+00301+00201999999ADDAG12999GA1011+012009059MA1102711999999REMMET006NOSIG?EQDQ01+000000PRSWM2
0146039620999991984010819004+52683-008917SY-MT+0020EINN V0203201N00261220001CN0300001N1+00321+00131102731ADDAG12999AY101011GA1011+012009059GF101991011051012501001001MA1102711999999MD1210101+9999MW1021REMSYN011333   81640MET006NOSIG?EQDQ01+000000PRSWM2
0075039620999991984010819304+52683-008917FM-15+0020EINN V0203501N00201220001CN0112001N1+00301+00101999999ADDAG12999GA1011+012009059MA1102711999999REMMET006NOSIG?EQDQ01+000000PRSWM2
0146039620999991984010820004+52683-008917SY-MT+0020EINN V0203501N00201220001CN0112001N1+00301+00101102741ADDAG12999AY101021GA1011+012009059GF101991011051012501001001MA1102711999999MD1010101+9999MW1021REMSYN011333   81640MET006NOSIG?EQDQ01+000000PRSWM2
0075039620999991984010820304+52683-008917FM-15+0020EINN V0203401N00201220001CN0112001N1+00201+00001999999ADDAG12000GA1011+012009059MA1102711999999REMMET006NOSIG?EQDQ01+000000PRSWM2
0160039620999991984010821004+52683-008917SY-MT+0020EINN V0200201N00201220001CN0112001N1+00201+00101102701ADDAG12000AY101031GA1011+012009059GF101991011051012501001001GJ103369MA1102611999999MD1010011+9999MW1021REMSYN017333   81650 94056MET006NOSIG?EQDQ01+000000PRSWM2
0075039620999991984010821304+52683-008917FM-15+0020EINN V0209991C00001220001CN0112001N1+00201+00101999999ADDAG12999GA1011+012009059MA1102611999999REMMET006NOSIG?EQDQ01+000000PRSWM2
0146039620999991984010822004+52683-008917SY-MT+0020EINN V0209991C00001220001CN0112001N1+00101+00001102681ADDAG12999AY101011GA1021+012009059GF102991021051012501001001MA1102611999999MD1810051+9999MW1021REMSYN011333   82640MET006NOSIG?EQDQ01+000000PRSWM2
0075039620999991984010822304+52683-008917FM-15+0020EINN V0201701N00101220001CN0112001N1+00101+00001999999ADDAG12999GA1021+012009059MA1102611999999REMMET006NOSIG?EQDQ01+000000PRSWM2
0146039620999991984010823004+52683-008917SY-MT+0020EINN V0201901N00101220001CN0150001N1+00101+00041102651ADDAG12999AY101021GA1021+012009059GF102991021051012501001001MA1102611999999MD1710091+9999MW1021REMSYN011333   82640MET006NOSIG?EQDQ01+000000PRSWM2
0075039620999991984010823304+52683-008917FM-15+0020EINN V0201701N00101220001CN0112001N1+00101+00001999999ADDAG12000GA1021+012009059MA1102611999999REMMET006NOSIG?EQDQ01+000000PRSWM2
0163039620999991984010900004+52683-008917SY-MT+0020EINN V0201401N00151220001CN0200001N1+00141+00081102591ADDAA106999929AG13000AY101061GA1011+012009059GF101991011051012501001001MA1102511999999MD1710111+9999MW1021REMSYN017333   81640 92011MET006NOSIG?EQDQ01+000000PRSWM2
0075039620999991984010900304+52683-008917FM-15+0020EINN V0201701N00151220001CN0112001N1+00101+00101999999ADDAG11999GA1011+012009059MA1102511999999REMMET006NOSIG?EQDQ01+000000PRSWM2
0146039620999991984010901004+52683-008917SY-MT+0020EINN V0202001N00051220001CN0200001N1+00151+00051102571ADDAG11999AY101011GA1031+014409059GF103991031051012501001001MA1102511999999MD1710111+9999MW1021REMSYN011333   83648MET006NOSIG?EQDQ01+000000PRSWM2
0075039620999991984010901304+52683-008917FM-15+0020EINN V0201501N00101220001CN0112001N1+00201+00101999999ADDAG11999GA1041+013509059MA1102511999999REMMET006NOSIG?EQDQ01+000000PRSWM2
0146039620999991984010902004+52683-008917SY-MT+0020EINN V0201501N00101220001CN0112001N1+00101+00101102521ADDAG11999AY101021GA1031+013509059GF103991031051012501001001MA1102511999999MD1710131+9999MW1021REMSYN011333   83645MET006NOSIG?EQDQ01+000000PRSWM2
0075039620999991984010902304+52683-008917FM-15+0020EINN V0201801N00101012901CN0112001N1+00101+00101999999ADDAG11000GA1071+012909059MA1102511999999REMMET006NOSIG?EQDQ01+000000PRSWM2
0146039620999991984010903004+52683-008917SY-MT+0020EINN V0201701N00151012601CN0200001N1+00151+00021102481ADDAG12000AY101031GA1071+012609059GF107991071051012501999999MA1102401999999MD1710111+9999MW1021REMSYN011333   87642MET006NOSIG?EQDQ01+000000PRSWM2
0075039620999991984010903304+52683-008917FM-15+0020EINN V0201401N00151012601CN0112001N1+00201+00001999999ADDAG11999GA1081+012609059MA1102401999999REMMET006NOSIG?EQDQ01+000000PRSWM2
0146039620999991984010904004+52683-008917SY-MT+0020EINN V0201201N00361012901CN0112001N1+00201+00001102451ADDAG12999AY101011GA1081+012909059GF108991081051012501999999MA1102401999999MD1710121+9999MW1021REMSYN011333   88643MET006NOSIG?EQDQ01+000000PRSWM2
0075039620999991984010904304+52683-008917FM-15+0020EINN V0201301N00301013201CN0112001N1+00201+00001999999ADDAG11999GA1081+013209059MA1102301999999REMMET006NOSIG?EQDQ01+000000PRSWM2
0146039620999991984010905004+52683-008917SY-MT+0020EINN V0201701N00101012901CN0112001N1+00201+00101102351ADDAG12999AY101021GA1081+012909059GF108991081051012501999999MA1102301999999MD1710171+9999MW1021REMSYN011333   88643MET006NOSIG?EQDQ01+000000PRSWM2
0075039620999991984010905304+52683-008917FM-15+0020EINN V0209991C00001012901CN0112001N1+00301+00101999999ADDAG12000GA1081+012909059MA1102301999999REMMET006NOSIG?EQDQ01+000000PRSWM2
0200039620999991984010906004+52683-008917SY-MT+0020EINN V0201401N00151011401CN0200001N1+00291+00161102341ADDAA199999929AG10000AY101061GA1081+011409059GF108991081051012501999999IA1099IA2999-00509KA1120N+00031MA1102301999999MD1710141+9999MW1021REMSYN023333   20003 31105 88638MET006NOSIG?EQDQ01+000000PRSWM2
0075039620999991984010906304+52683-008917FM-15+0020EINN V0201801N00251011101CN0112001N1+00301+00101999999ADDAG12999GA1081+011109059MA1102301999999REMMET006NOSIG?EQDQ01+000000PRSWM2
0168039620999991984010907004+52683-008917SY-MT+0020EINN V0201801N00411013801CN0112001N1+00401+00201102281ADDAG11999AY101011GA1041+010809059GA2081+013809059GF108991081051012501999999MA1102201999999MD1710171+9999MW1021REMSYN017333   84636 88646MET006NOSIG?EQDQ01+000000PRSWM2
0091039620999991984010907304+52683-008917FM-15+0020EINN V0201801N00561013501CN0112001N1+00501+00201999999ADDAG12999GA1051+013509059GA2081+027009049MA1102101999999REMMET006NOSIG?EQDQ01+000000PRSWM2
0168039620999991984010908004+52683-008917SY-MT+0020EINN V0201701N00411011401CN0112001N1+00501+00201102251ADDAG12999AY101021GA1051+011409059GA2081+027009049GF108991041051012501071999MA1102201999999MD1510101+9999MW1021REMSYN017333   85638 88459MET006NOSIG?EQDQ01+000000PRSWM2
0091039620999991984010908304+52683-008917FM-15+0020EINN V0201701N00561030001CN0112001N1+00501+00201999999ADDAG12000GA1041+013509059GA2081+030009049MA1102101999999REMMET006NOSIG?EQDQ01+000000PRSWM2
0168039620999991984010909004+52683-008917SY-MT+0020EINN V0201701N00571030001CN0400001N1+00501+00221102211ADDAG12000AY101031GA1041+012609059GA2081+030009049GF108991041051012501071999MA1102201999999MD1710131+9999MW1021REMSYN017333   84642 88460MET006NOSIG?EQDQ01+000000PRSWM2
0091039620999991984010909304+52683-008917FM-15+0020EINN V0201701N00661030001CN0112001N1+00501+00301999999ADDAG12999GA1041+012009059GA2081+030009049MA1102201999999REMMET006NOSIG?EQDQ01+000000PRSWM2
0168039620999991984010910004+52683-008917SY-MT+0020EINN V0201801N00571009001CN0400001N1+00551+00341102171ADDAG12999AY101011GA1051+009009059GA2071+030009049GF107991051051012501071999MA1102101999999MD1710111+9999MW1021REMSYN017333   85630 87460MET006NOSIG?EQDQ01+000000PRSWM2
0091039620999991984010910304+52683-008917FM-15+0020EINN V0201701N00461008101CN0112001N1+00601+00301999999ADDAG12999GA1051+008109059GA2081+024009049MA1102101999999REMMET006NOSIG?EQDQ01+000000PRSWM2
0190039620999991984010911004+52683-008917SY-MT+0020EINN V0201701N00511007201CN0112001N1+00601+00301102161ADDAG11999AY101021GA1051+007209059GA2071+030009049GA3071+060009029GF107991051051008001071061MA1102101999999MD1610091+9999MW1021REMSYN023333   85624 87460 87270MET006NOSIG?EQDQ01+000000PRSWM2
0107039620999991984010911304+52683-008917FM-15+0020EINN V0201801N00511024001CN0112001N1+00601+00401999999ADDAG12000GA1021+009009059GA2041+024009049GA3051+060009009MA1102101999999REMMET006NOSIG?EQDQ01+000000PRSWM2
0201039620999991984010912004+52683-008917SY-MT+0020EINN V0201801N00411024001CN0112001N1+00701+00501102091ADDAA106000091AG11000AY101061GA1041+007809059GA2041+024009049GA3051+060009009GF107991041051008001071021MA1102001999999MD1810121+9999MW1021REMSYN023333   84626 84458 85070MET006NOSIG?EQDQ01+000000PRSWM2
0107039620999991984010912304+52683-008917FM-15+0020EINN V0202001N00511024001CN0112001N1+00801+00601999999ADDAG12999GA1011+004809079GA2031+007209059GA3071+024009049MA1102001999999REMMET006NOSIG?EQDQ01+000000PRSWM2
0190039620999991984010913004+52683-008917SY-MT+0020EINN V0202101N00511006001CN0112001N1+00901+00701102011ADDAG11999AY101011GA1021+004809079GA2041+006009059GA3071+024009049GF108991051051004501071999MA1102001999999MD1810151+9999MW1021REMSYN023333   82716 84620 87458MET006NOSIG?EQDQ01+000000PRSWM2
0107039620999991984010913304+52683-008917FM-15+0020EINN V0202001N00611006601CN0112001N1+00901+00701999999ADDAG12999GA1021+004809079GA2041+006609059GA3081+024009049MA1101901999999REMMET006NOSIG?EQDQ01+000000PRSWM2
0078039620999991984010914004+52683-008917FM-15+0020EINN V0202101N00721006601CN0112001N1+00901+00701999999ADDAG11999GA1031+004509079GA2071+006609059MA1101901999999MW1601REMMET006NOSIG?
0107039620999991984010914304+52683-008917FM-15+0020EINN V0202201N00461004801CN0112001N1+00901+00701999999ADDAG12000GA1021+003009079GA2071+004809079MA1101901999999MW1501REMMET035NO EE      ?     GRADU 8000 5ST010?
0173039620999991984010915004+52683-008917SY-MT+0020EINN V0202401N00511004201CN0300001N1+00951+00741101911ADDAG12000AY161031GA1031+002709079GA2071+004209079GF108991081061004501999999MA1101901999999MD1710171+9999MW1501REMSYN017333   83709 87714MET030TEMPO 8000       ?     6ST008?
0102039620999991984010915304+52683-008917FM-15+0020EINN V0202301N00511003901CN0112001N1+01001+00801999999ADDAG12999GA1031+002709079GA2071+003909079MA1101901999999MW1501REMMET030TEMPO 8000       ?     6ST008?
0173039620999991984010916004+52683-008917SY-MT+0020EINN V0202201N00411003301CN0112001N1+01001+00901101941ADDAG12999AY151011GA1031+002409079GA2071+003309079GF108991081061002501999999MA1101901999999MD1610071+9999MW1201REMSYN017333   83708 87711MET030TEMPO 8000       ?     6ST008?
0083039620999991984010916304+52683-008917FM-15+0020EINN V0202201N00461002401CN0112001N1+01001+00901999999ADDAG12999GA1051+002409079GA2071+003309079MA1101901999999MW1501REMMET011TEMPO 8000?
0154039620999991984010917004+52683-008917SY-MT+0020EINN V0202501N00301001801CN0112001N1+01001+00901101971ADDAG12999AY151021GA1051+001809079GA2071+003009079GF108991081061002501999999MA1101901999999MD1310031+9999MW1501REMSYN017333   85706 87710MET011TEMPO 8000?
0083039620999991984010917304+52683-008917FM-15+0020EINN V0202401N00511001501CN0112001N1+01001+00901999999ADDAG12000GA1061+001509079GA2081+002709079MA1101901999999MW1511REMMET011TEMPO 8000?
0184039620999991984010918004+52683-008917SY-MT+0020EINN V0202301N00301001201CN0112001N1+01001+00901101991ADDAA199999929AG12000AY161061GA1061+001209079GA2081+002109079GF108991081061001501999999KA1120M+00981MA1101901999999MD1210081+9999MW1501REMSYN023333   10098 86704 88707MET011TEMPO 8000?
0078039620999991984010918304+52683-008917FM-15+0020EINN V0202401N00361001201CN0050001N1+00901+00901999999ADDAG12999GA1061+001209079GA2081+002109079MA1102001999999MW1501REMMET006NOSIG?
0163039620999991984010919004+52683-008917SY-MT+0020EINN V0202801N00361001201CN0030001N1+00901+00801102021ADDAG12999AY151011GA1061+001209079GA2081+001809079GF108991081061001501999999GJ100069MA1102001999999MD1210081+9999MW1511REMSYN023333   86704 88706 94001MET006NOSIG?
0094039620999991984010919304+52683-008917FM-15+0020EINN V0202501N00201001801CN0112001N1+00801+00801999999ADDAG12999GA1031+001209079GA2051+001809079GA3061+005409079MA1101901999999MW1201REMMET006NOSIG?
0201039620999991984010920004+52683-008917SY-MT+0020EINN V0202501N00101000901CN0040001N1+00831+00761102031ADDAG12999AY151021GA1061+000909079GA2081+001809079GF108991081061001501999999MA1102001999999MD1110061+9999MW1201REMSYN035333   86703 88706 97175 97275 97475MET04010KM TO NW       ?     SE NE TEMPO 3000?
0097039620999991984010920304+52683-008917FM-15+0020EINN V0202601N00301000301CN0006001N1+00801+00801999999ADDAG12000GA1081+000309079MA1102001999999MW1461REMMET0411500M TO NE GRADU      ?     2000 6ST003?
0178039620999991984010921004+52683-008917SY-MT+0020EINN V0202201N00261000901CN0006001N1+00791+00751102081ADDAG12000AY151031GA1061+000909079GA2081+001509079GF108991081061001501999999MA1102001999999MD1210091+9999MW1461REMSYN023333   86703 88705 90470MET029TEMPO      ?     1500 8ST002?
0097039620999991984010921304+52683-008917FM-15+0020EINN V0202501N00251000601CN0004001N1+00801+00801999999ADDAG12999GA1051+000609079GA2081+001209079MA1102001999999MW1501REMMET025TEMPO 15008ST002       ??
0161039620999991984010922004+52683-008917SY-MT+0020EINN V0202401N00251000301CN0005001N1+00801+00801102091ADDAG12999AY151011GA1051+000309079GA2081+000909079GF108991081061000251999999MA1102001999999MD1210071+9999MW1461REMSYN029333   85701 88703 90471 99744MET006NOSIG?
0105039620999991984010922304+52683-008917FM-15+0020EINN V0202101N00201000901CN0015001N1+00801+00801999999ADDAG12999GA1021+000309079GA2051+000909079GA3081+001509079MA1102001999999MW1281REMMET017GRADU 300 8ST001?
0188039620999991984010923004+52683-008917SY-MT+0020EINN V0202101N00411001801CN0112001N1+00801+00801102011ADDAG12999AY151021GA1011+000309079GA2031+000909079GA3081+001809079GF108991081061000251999999MA1102001999999MD1810021+9999MW1281MW2511REMSYN029333   81701 83803 88706 90547MET011TEMPO 1200?
0106039620999991984010923304+52683-008917FM-15+0020EINN V0202401N00411002101CN0112001N1+00801+00801999999ADDAG12000GA1011+000609079GA2041+001209079GA3081+002109079MA1102001999999MW1201REMMET018TEMPO 2000 6ST004?
0172039620999991984011000004+52683-008917SY-MT+0020EINN V0202401N00411002101CN0200001N1+00821+00781102001ADDAA106999929AG10000AY151061GA1031+001209079GA2081+002109079GF108991081061001501999999MA1101901999999MD1610081+9999MW1201REMSYN017333   83704 88707MET018TEMPO 2500 8ST003?
0103039620999991984011000304+52683-008917FM-15+0020EINN V0202501N00201001801CN0112001N1+00801+00801999999ADDAG11999GA1061+001809079GA2071+002709079MA1101901999999REMMET018TEMPO 2500 8ST003?EQDQ01+000000PRSWM2
0158039620999991984011001004+52683-008917SY-MT+0020EINN V0202001N00261001501CN0200001N1+00781+00741101971ADDAG11999AY101011GA1081+001509079GF108991081061001501999999MA1101901999999MD1710121+9999MW1021REMSYN011333   88705MET018TEMPO 2500 8ST003?EQDQ01+000000PRSWM2
0089039620999991984011001304+52683-008917FM-15+0020EINN V0202201N00151220001CN0112001N1+00701+00701999999ADDAG11999GA1031+001509079MA1101901999999REMMET020GRADU 4ST004 8ST007?EQDQ01+000000PRSWM2
0160039620999991984011002004+52683-008917SY-MT+0020EINN V0201901N00201220001CN0112001N1+00701+00701101911ADDAG11999AY101021GA1031+001809079GF103991031061002501001001MA1101901999999MD1810111+9999MW1021REMSYN011333   83706MET020GRADU 4ST004 8ST007?EQDQ01+000000PRSWM2
0082039620999991984011002304+52683-008917FM-15+0020EINN V0201701N00151002101CN0112001N1+00701+00701999999ADDAG12000GA1071+002109079MA1101901999999REMMET013TEMPO 8ST003?EQDQ01+000000PRSWM2
0146039620999991984011003004+52683-008917SY-MT+0020EINN V0201601N00101220001CN0300001N1+00701+00631101911ADDAG12000AY101031GA1031+002109079GF103991031061002501001001MA1101901999999MD1610101+9999MW1021REMSYN011333   83707MET006NOSIG?EQDQ01+000000PRSWM2
0075039620999991984011003304+52683-008917FM-15+0020EINN V0201601N00101220001CN0112001N1+00601+00601999999ADDAG12999GA1021+002109079MA1101801999999REMMET006NOSIG?EQDQ01+000000PRSWM2
0146039620999991984011004004+52683-008917SY-MT+0020EINN V0201701N00151220001CN0300001N1+00641+00571101821ADDAG12999AY101011GA1011+002409079GF101991011061002501001001MA1101801999999MD1710161+9999MW1021REMSYN011333   81708MET006NOSIG?EQDQ01+000000PRSWM2
0065039620999991984011004304+52683-008917FM-15+0020EINN V0201701N00201999991CY0099001N1+00601+00601999999ADDAG12999MA1101691999999REMMET012CAVOK NOSIG?EQDQ01+000000PRSWM2
0152039620999991984011005004+52683-008917SY-MT+0020EINN V0201601N00261018001CN0300001N1+00651+00581101721ADDAG12999AY101021GA1071+018009059GF107991071051017501999999MA1101691999999MD1710191+9999MW1021REMSYN011333   87656MET012CAVOK NOSIG?EQDQ01+000000PRSWM2
