0291039620999992000010100004+52700-008920SY-MT+0020EINN V0201701N001012200019N0120001N1+00391+00371102151ADDAA106000791AY111061AY211061GA1021+007509999GF199999011051008001001001MA1102101101911MD1210161+9999MW1101REMSYN094AAXX  01001 03962 11562 11701 10039 20037 30191 40215 52016 69901 71011 81500 333 81625 92600;MET056EINN 010000Z 17002KT 9999 FEW025 04/04 Q1021 BECMG 5000;EQDQ01    003PRSWM1
0268039620999992000010101004+52700-008920SY-MT+0020EINN V0201501N001012200019N0120001N1+00311+00291102211ADDAY101999AY201999GA1021+007509999GF199999011051008001001001MA1102201101971MD1210121+9999MW1101REMSYN082AAXX  01011 03962 41562 11501 10031 20029 30197 40221 52012 71000 81500 333 81625;MET056EINN 010100Z 15001KT 9999 FEW025 03/03 Q1022 TEMPO 5000;EQDQ01    003PRSWM1
0275039620999992000010102004+52700-008920SY-MT+0020EINN V0201201N001012200019N0120001N1+00261+00231102261ADDAY101999AY201999ED199U04009GF100991001001999999001001MA1102201102021MD1210141+9999MW1111REMSYN076AAXX  01021 03962 41562 01201 10026 20023 30202 40226 52014 71100 333 92600;MET074EINN 010200Z 12002KT 9999 R24/0400N R06/P1500N SKC 03/03 Q1022 TEMPO 5000;EQDQ01    003PRSWM1
0238039620999992000010103004+52700-008920SY-MT+0020EINN V0201501N002012200019N0120001N1+00301+00271102321ADDAY101031AY201031GF100991001001999999001001MA1999999102081MD1210171+9999MW1101REMSYN076AAXX  01031 03962 41962 01502 10030 20027 30208 40232 52017 71000 333 92600;MET048EINN 010300Z ///// CAVOK 03/03 Q1023 BECMG 1200;EQDQ01    003PRSWM1
0162039620999992000010103304+52700-008920FM-15+0020EINN V0201601N001012200019N0112651N1+00301+00301999999ADDGF100991999999999999999999MA1102301999999MW1121REMMET084EINN 010330Z 16002KT 9999 R24/0350V0600U R06/P1500N MIFG SKC 03/03 Q1023 BECMG 1200;EQDQ01    003PRSWM1
0240039620999992000010104004+52700-008920SY-MT+0020EINN V0201201N001012200019N0120001N1+00271+00241102321ADDAY101999AY201999GF100991001001999999001001MA1102301102081MD1110111+9999MW1111REMSYN076AAXX  01041 03962 41962 01201 10027 20024 30208 40232 51011 71100 333 92600;MET050EINN 010400Z 12002KT CAVOK 03/03 Q1023 BECMG 1200;EQDQ01    003PRSWM1
0243039620999992000010105004+52700-008920SY-MT+0020EINN V0201201N002012200019N0090001N1+00221+00191102361ADDAY101999AY201999GF100991001001999999001001MA1102301102121MD1210101+9999MW1101REMSYN076AAXX  01051 03962 41959 01202 10022 20019 30212 40236 52010 71000 333 92600;MET053EINN 010500Z 12004KT 9000 SKC 02/02 Q1023 BECMG 1200;EQDQ01    003PRSWM1
0317039620999992000010106004+52700-008920SY-MT+0020EINN V0201201N003012200019N0090001N1+00201+00171102341ADDAA112000791AY101061AY201061GF100991001001999999001001GJ100069IA1099IA2999-00309KA1120N+00201MA1102301102101MD1010021+9999MW1101REMSYN100AAXX  01061 03962 11959 01203 10020 20017 30210 40234 50002 69902 71000 333 20020 31103 55001 92600;MET053EINN 010600Z 12005KT 9000 SKC 02/02 Q1023 BECMG 1200;EQDQ01    003PRSWM1
0240039620999992000010107004+52700-008920SY-MT+0020EINN V0201301N004012200019N0120001N1+00141+00111102371ADDAY101999AY201999GF100991001001999999001001MA1102301102131MD1310051+9999MW1101REMSYN076AAXX  01071 03962 41962 01304 10014 20011 30213 40237 53005 71000 333 92600;MET050EINN 010700Z 13007KT CAVOK 01/01 Q1023 BECMG 1200;EQDQ01    003PRSWM1
0235039620999992000010108004+52700-008920SY-MT+0020EINN V0201301N004012200019N0120001N1+00101+00071102361ADDAY101999AY201999GF100991001001999999001001MA1102301102121MD1010001+9999MW1101REMSYN076AAXX  01081 03962 41962 01304 10010 20007 30212 40236 50000 71000 333 92600;MET045EINN 010800Z 13007KT CAVOK 01/01 Q1023 NOSIG;EQDQ01    003PRSWM1
0241039620999992000010109004+52700-008920SY-MT+0020EINN V0201201N002012200019N0150001N1+00141+00091102391ADDGA1011+015009059GF101991011051017501999001MA1102301102151MD1310051+9999MW1001REMSYN082AAXX  01091 03962 42765 11202 10014 20009 30215 40239 53005 81500 333 81650 92600;MET045EINN 010900Z 12004KT CAVOK 01/01 Q1023 NOSIG;EQDQ01    003SCOMCG
0228039620999992000010110004+52700-008920SY-MT+0020EINN V0201501N002012200019N0200001N1+00281+00231102411ADDGA1021+009009999GF199999011051012501001001MA1102401102171MD1310041+9999MW1001REMSYN082AAXX  01101 03962 42670 11502 10028 20023 30217 40241 53004 81500 333 81630 92600;MET051EINN 011000Z 15003KT 9999 FEW030 03/02 Q1024 NOSIG;
0222039620999992000010111004+52700-008920SY-MT+0020EINN V0201701N003012200019N0200001N1+00461+00361102391ADDGA1021+009009999GF199999011051012501001001MA1102301102151MD1010031+9999MW1001REMSYN076AAXX  01111 03962 42670 11703 10046 20036 30215 40239 50003 81500 333 81630;MET051EINN 011100Z 17006KT 9999 FEW030 05/04 Q1023 NOSIG;
0239039620999992000010112004+52700-008920SY-MT+0020EINN V0201701N004012200019N0200001N1+00661+00481102351ADDAA106000791GA1021+009009999GF199999011051012501001011MA1102301102111MD1810041+9999MW1001REMSYN082AAXX  01121 03962 12670 11704 10066 20048 30211 40235 58004 69901 81501 333 81630;MET051EINN 011200Z 17008KT 9999 FEW030 07/05 Q1023 NOSIG;
0222039620999992000010113004+52700-008920SY-MT+0020EINN V0201701N004012200019N0200001N1+00811+00571102291ADDGA1021+009009999GF199999011051012501001011MA1102201102051MD1710121+9999MW1001REMSYN076AAXX  01131 03962 42670 11704 10081 20057 30205 40229 57012 81501 333 81630;MET051EINN 011300Z 17008KT 9999 FEW030 08/06 Q1022 NOSIG;
0222039620999992000010114004+52700-008920SY-MT+0020EINN V0201801N004012200019N0200001N1+00851+00561102241ADDGA1021+009009999GF199999011051012501001011MA1102201102001MD1710151+9999MW1001REMSYN076AAXX  01141 03962 42670 11804 10085 20056 30200 40224 57015 81501 333 81630;MET051EINN 011400Z 18007KT 9999 FEW030 09/06 Q1022 NOSIG;
0251039620999992000010115004+52700-008920SY-MT+0020EINN V0201701N004012200019N0200001N1+00751+00521102231ADDGA1021+007509999GA2021+009009999GF103991031081008001001011MA1102201101991MD1610121+9999MW1001REMSYN082AAXX  01151 03962 42570 31704 10075 20052 30199 40223 56012 83801 333 81825 83630;MET058EINN 011500Z 17008KT 9999 FEW025 SCT030 08/05 Q1022 NOSIG;
0251039620999992000010116004+52700-008920SY-MT+0020EINN V0201601N004010099019N0160001N1+00691+00531102241ADDGA1021+007809999GA2071+009909999GF199999051081008001001011MA1102201102001MD1510051+9999MW1001REMSYN082AAXX  01161 03962 42566 51604 10069 20053 30200 40224 55005 85801 333 81826 85633;MET058EINN 011600Z 16008KT 9999 FEW026 BKN033 07/05 Q1022 NOSIG;
0251039620999992000010117004+52700-008920SY-MT+0020EINN V0201501N005010114019N0180001N1+00711+00551102201ADDGA1021+007809999GA2071+011409999GF108991081081008001999999MA1102201101961MD1810041+9999MW1001REMSYN082AAXX  01171 03962 42568 81505 10071 20055 30196 40220 58004 888// 333 81826 87638;MET058EINN 011700Z 15009KT 9999 FEW026 BKN038 07/06 Q1022 NOSIG;
0286039620999992000010118004+52700-008920SY-MT+0020EINN V0201701N004010111019N0250001N1+00761+00541102171ADDAA112000791GA1021+006009999GA2071+011109999GF108991081081008001999999KA1999M+00871MA1102101101931MD1710061+9999MW1001REMSYN093AAXX  01181 03962 12575 81704 10076 20054 30193 40217 57006 69902 888// 333 1008781820 87637;MET058EINN 011800Z 17008KT 9999 FEW020 BKN037 08/05 Q1021 NOSIG;
0331039620999992000010119004+52700-008920SY-MT+0020EINN V0201601N004010075019N0200001N1+00721+00561102151ADDAY151999AY221999GA1021+006009999GA2071+007509999GA3071+009609999GF108991081051008001999999MA1102101101911MD1710091+9999MW1501MW2511REMSYN094AAXX  01191 03962 41570 81604 10072 20056 30191 40215 57009 75052 885// 333 81620 85625 87632;MET069EINN 011900Z 16008KT 9999 -DZ FEW020 BKN025 BKN032 07/06 Q1021 NOSIG;EQDQ01    003PRSWM1
0292039620999992000010120004+52700-008920SY-MT+0020EINN V0201701N003010072019N0250001N1+00741+00611102151ADDAY151999AY221999GA1071+007209999GA2071+010509999GF108991081051008001999999MA1102101101911MD1710051+9999MW1201REMSYN088AAXX  01201 03962 41575 81703 10074 20061 30191 40215 57005 72052 885// 333 85624 87635;MET058EINN 012000Z 17006KT 9999 BKN024 BKN035 07/06 Q1021 NOSIG;EQDQ01    003PRSWM1
0321039620999992000010121004+52700-008920SY-MT+0020EINN V0201701N003010105019N0250001N1+00731+00601102201ADDAY151031AY221031GA1021+005409999GA2071+010509999GA3071+015009999GF108991081051004501999999MA1102201101961MD1310031+9999MW1201REMSYN094AAXX  01211 03962 41475 81703 10073 20060 30196 40220 53003 72052 885// 333 83718 86635 87650;MET065EINN 012100Z 17005KT 9999 SCT018 BKN035 BKN050 07/06 Q1022 NOSIG;EQDQ01    003PRSWM1
0251039620999992000010122004+52700-008920SY-MT+0020EINN V0201901N004012200019N0250001N1+00731+00641102161ADDGA1021+004509999GA2021+015009999GF103991031051004501001001MA1102101101921MD1210011+9999MW1001REMSYN082AAXX  01221 03962 42475 31904 10073 20064 30192 40216 52001 83500 333 81715 83650;MET058EINN 012200Z 19007KT 9999 FEW015 SCT050 07/06 Q1021 NOSIG;
0222039620999992000010123004+52700-008920SY-MT+0020EINN V0201801N003012200019N0250001N1+00681+00591102201ADDGA1021+012009999GF103991031051012501001001MA1102201101961MD1210051+9999MW1001REMSYN076AAXX  01231 03962 42675 31803 10068 20059 30196 40220 52005 83500 333 83640;MET051EINN 012300Z 18002KT 9999 SCT040 07/06 Q1022 NOSIG;
0325039620999992000010200004+52700-008920SY-MT+0020EINN V0201701N002010090019N0250001N1+00701+00611102191ADDAA106000791AY151061AY211061GA1021+004509999GA2071+009009999GF107991071051004501999999MA1102101101951MD1710011+9999MW1031REMSYN094AAXX  02001 03962 11475 71702 10070 20061 30195 40219 57001 69901 70351 875// 333 82715 86630;MET058EINN 020000Z 17004KT 9999 FEW015 BKN030 07/06 Q1021 NOSIG;EQDQ01+000000PRSWM2Q02    003PRSWM1
0241039620999992000010201004+52700-008920SY-MT+0020EINN V0201901N003010078019N0250001N1+00741+00611102191ADDGA1081+007809999GF108991081051008001999999MA1102101101951MD1110031+9999MW1001REMSYN076AAXX  02011 03962 42575 81903 10074 20061 30195 40219 51003 885// 333 88626;MET051EINN 020100Z 19005KT 9999 OVC026 07/06 Q1021 NOSIG;EQDQ01+000000PRSWM2
0278039620999992000010202004+52700-008920SY-MT+0020EINN V0202001N003010063019N0250001N1+00751+00621102161ADDGA1071+006309999GA2081+015009999GF108991081051008001999999MA1102101101921MD1810041+9999MW1001REMSYN082AAXX  02021 03962 42575 82003 10075 20062 30192 40216 58004 885// 333 86621 88650;MET066EINN 020200Z 20006KT 170V240 9999 BKN021 OVC050 08/06 Q1021 NOSIG;EQDQ01+000000PRSWM2
0270039620999992000010203004+52700-008920SY-MT+0020EINN V0202101N003010048019N0250001N1+00791+00641102181ADDGA1071+004809999GA2081+006609999GF108991081061004501999999MA1102101101941MD1510011+9999MW1001REMSYN082AAXX  02031 03962 42475 82103 10079 20064 30194 40218 55001 886// 333 85716 88622;MET058EINN 020300Z 21006KT 9999 BKN016 OVC022 08/06 Q1021 NOSIG;EQDQ01+000000PRSWM2
0226039620999992000010203304+52700-008920FM-15+0020EINN V0203001N002110054019N0050001N1+00801+00701999999ADDGA1021+001809999GA2021+003009999GA3071+005409999GF107991999999999999999999MA1102101999999MW1511REMMET084EINN 020430Z 30004KT 220V360 5000 -DZ FEW006 SCT010 BKN018 08/07 Q1021 TEMPO BKN008;EQDQ01+000003PRSWM1Q02    003PRSWM1
0193039620999992000010204004+52700-008920FM-12+0020EINN V0201901N00301002101CN0150001N1+00801+00651102151ADDAY121011AY221011GA1031+002409079GF108991081061002501999999MA1999999101911MD1710041+9999MW1501REMSYN088AAXX  02041 03962 41365 81903 10080 20065 30191 40215 57004 75022 886// 333 83708 88711;
0337039620999992000010205004+52700-008920SY-MT+0020EINN V0209999C00001003601CN0060001N1+00801+00711102181ADDAY151999AY221999GA1021+002109999GA2071+003609999GA3071+010509999GF108991081061002501999999MA1102101101941MD1310021+9999MW1201REMSYN094AAXX  02051 03962 41356 80000 10080 20071 30194 40218 53002 72052 886// 333 82707 85715 87635;MET065EINN 020500Z 00000KT 6000 FEW007 BKN012 BKN035 08/07 Q1021 NOSIG;EQDQ01+000000PRSWM2Q02    003PRSWM1
0387039620999992000010206004+52700-008920SY-MT+0020EINN V0201501N002010024019N0150001N1+00791+00681102211ADDAA112000191AY151061AY221061GA1071+002409999GA2071+003609999GF108991081061002501999999GJ102949IA1099IA2999+00309KA1120N+00701MA1102201101971MD1310031+9999MW1021REMSYN112AAXX  02061 03962 11365 81502 10079 20068 30197 40221 53003 69912 70252 886// 333 20070 31003 55049 85708 87712;MET063EINN 020600Z 15004KT 9999 BKN008 BKN012 08/07 Q1022 TEMPO 5000;EQDQ01+000000PRSWM2Q02    003PRSWM1
0333039620999992000010207004+52700-008920SY-MT+0020EINN V0201101N001010021019N0050001N1+00771+00711102201ADDAY161999AY251999GA1021+001209999GA2071+002109999GA3071+003009999GF108991081061001501999999MA1102201101961MD1010051+9999MW1581MW2611REMSYN094AAXX  02071 03962 41250 81101 10077 20071 30196 40220 50005 75865 886// 333 82704 85707 87710;MET071EINN 020700Z 11002KT 5000 -RADZ FEW004 BKN007 BKN010 08/07 Q1022 NOSIG;EQDQ01    003PRSWM1
0333039620999992000010208004+52700-008920SY-MT+0020EINN V0201301N003010021019N0040001N1+00751+00691102181ADDAY161999AY251999GA1021+001209999GA2071+002109999GA3071+003009999GF108991081061001501999999MA1102101101941MD1010001+9999MW1581MW2611REMSYN094AAXX  02081 03962 41240 81303 10075 20069 30194 40218 50000 75865 886// 333 83704 85707 87710;MET071EINN 020800Z 13006KT 4000 -RADZ SCT004 BKN007 BKN010 08/07 Q1021 NOSIG;EQDQ01    003PRSWM1
0191039620999992000010208304+52700-008920FM-15+0020EINN V0201701N003110150019N0112651N1+00801+00701999999ADDGA1021+001809999GA2021+004509999GA3071+015009999GF107991999999999999999999MA1102101999999MW1001REMMET065EINN 020930Z 17006KT 9999 FEW006 SCT015 BKN050 08/07 Q1021 NOSIG;EQDQ01+000000PRSWM2
0215039620999992000010209004+52700-008920FM-12+0020EINN V0201501N002010030019N0120001N1+00801+00691102181ADDAY161031AY251031GA1021+001809079GA2051+003009079GF108991081061002501999999MA1999999101941MD1610031+9999MW1211REMSYN094AAXX  02091 03962 41362 81502 10080 20069 30194 40218 56003 72165 886// 333 82706 85710 87717;
0333039620999992000010210004+52700-008920SY-MT+0020EINN V0201501N004012200019N0060001N1+00791+00731102031ADDAY111999AY211999GA1021+000909999GA2021+075009999GF103991011061001501001021MA1102001101791MD1710171+9999MW1101REMSYN106AAXX  02101 03962 41256 31504 10079 20073 30179 40203 57017 71011 81602 333 81703 83075 98262 98475 98662;MET065EINN 021000Z 15007KT 6000 FEW003 SCT250 08/07 Q1020 TEMPO BKN010;EQDQ01+000000PRSWM2Q02    003PRSWM1
0285039620999992000010211004+52700-008920SY-MT+0020EINN V0201401N003010750019N0200001N1+00881+00781101991ADDGA1021+003009999GA2021+009009999GF105991031051004501001021MA1101901101751MD1710191+9999MW1001REMSYN082AAXX  02111 03962 42470 51403 10088 20078 30175 40199 57019 83502 333 81710 83630;MET073EINN 021100Z 14005KT 110V170 9999 FEW010 SCT030 09/08 Q1019 TEMPO BKN010;EQDQ01+000000PRSWM2
0354039620999992000010212004+52700-008920SY-MT+0020EINN V0201701N007010750019N0300001N1+00981+00791101901ADDAA106001091AY161061AY251061GA1021+002409999GA2021+009009999GA3071+075009999GF107991061051002501999021MA1101901101661MD1710281+9999MW1031REMSYN100AAXX  02121 03962 11380 71707 10098 20079 30166 40190 57028 60011 70365 865/2 333 81708 83630 86075;MET065EINN 021200Z 17013KT 9999 FEW008 SCT030 BKN250 10/08 Q1019 NOSIG;EQDQ01+000000PRSWM2Q02    003PRSWM1
0187039620999992000010213004+52700-008920FM-12+0020EINN V0201701N007010090019N0300001N1+00951+00761101751ADDGA1011+003609079GA2071+009009069GF107991071051004501999021MA1999999101511MD1710281+9999REMSYN088AAXX  02131 03962 42480 71707 10095 20076 30151 40175 57028 875/2 333 81712 87630 86075;
0187039620999992000010214004+52700-008920FM-12+0020EINN V0201601N006010075019N0300001N1+00951+00701101581ADDGA1031+003609079GA2061+007509069GF108991081051004501999999MA1999999101341MD1810411+9999REMSYN088AAXX  02141 03962 42480 81606 10095 20070 30134 40158 58041 885// 333 83712 86625 86650;
0299039620999992000010215004+52700-008920SY-MT+0020EINN V0201801N007010075019N0300001N1+00941+00591101441ADDGA1021+004509999GA2071+007509999GA3081+024009999GF108991081051004501999999MA1101291101201MD1710461+9999MW1001REMSYN088AAXX  02151 03962 42480 81807 10094 20059 30120 40144 57046 885// 333 81715 87628 86650;MET065EINN 021600Z 17012KT 9999 FEW015 BKN025 OVC080 09/06 Q1013 NOSIG;EQDQ01+000000PRSWM2
0299039620999992000010216004+52700-008920SY-MT+0020EINN V0201701N006010075019N0300001N1+00911+00631101321ADDGA1021+004509999GA2071+007509999GA3081+024009999GF108991071051004501071999MA1101291101081MD1710431+9999MW1001REMSYN088AAXX  02161 03962 42480 81706 10091 20063 30108 40132 57043 8757/ 333 82715 87625 88458;MET065EINN 021600Z 17012KT 9999 FEW015 BKN025 OVC080 09/06 Q1013 NOSIG;EQDQ01+000000PRSWM2
0299039620999992000010217004+52700-008920SY-MT+0020EINN V0201801N007010069019N0300001N1+00921+00691101171ADDGA1021+004509999GA2071+006909999GA3081+015009999GF108991081051004501999999MA1101081100931MD1710411+9999MW1001REMSYN088AAXX  02171 03962 42480 81807 10092 20069 30093 40117 57041 885// 333 82715 86623 88650;MET065EINN 021700Z 18014KT 9999 FEW015 BKN023 OVC050 09/07 Q1011 NOSIG;EQDQ01+000000PRSWM2
0335039620999992000010218004+52700-008920SY-MT+0020EINN V0201701N006010069019N0200001N1+00921+00781101051ADDAA112001091GA1021+004509999GA2071+006909999GA3071+015009999GF108991081051004501999999KA1120M+01001MA1101021100811MD1710391+9999MW1001REMSYN100AAXX  02181 03962 12470 81706 10092 20078 30081 40105 57039 60012 885// 333 10100 82715 85623 87650;MET065EINN 021800Z 17012KT 9999 FEW015 BKN023 BKN050 09/08 Q1010 NOSIG;EQDQ01+000000PRSWM2
0352039620999992000010219004+52700-008920SY-MT+0020EINN V0201601N007010069019N0200001N1+00931+00811100951ADDAY161999AY221999GA1021+003909999GA2071+006909999GA3071+015009999GF107991071051004501999999MA1100911100711MD1710371+9999MW1211REMSYN094AAXX  02191 03962 41470 71607 10093 20081 30071 40095 57037 72162 875// 333 83713 85623 86650;MET080EINN 021900Z 16014KT 140V200 9999 SCT013 BKN023 BKN050 09/08 Q1009 TEMPO BKN007;EQDQ01+000000PRSWM2Q02    003PRSWM1
0306039620999992000010220004+52700-008920SY-MT+0020EINN V0202001N008010075019N0250001N1+00981+00701100871ADDGA1021+003909999GA2071+007509999GA3071+015009999GF108991081051004501999999MA1100811100631MD1710301+9999MW1001REMSYN088AAXX  02201 03962 42475 82008 10098 20070 30063 40087 57030 885// 333 81713 85625 87650;MET072EINN 022000Z 20016KT 9999 FEW013 BKN025 BKN050 10/07 Q1008 TEMPO BKN007;EQDQ01+000000PRSWM2
0338039620999992000010221004+52700-008920SY-MT+0020EINN V0202001N007010075019N0150001N1+01051+00741100831ADDAY161031AY221031GA1021+003909999GA2071+007509999GA3071+015009999GF108991081051004501999999MA1100811100591MD1610221+9999MW1601MW2611REMSYN094AAXX  02211 03962 41465 82007 10105 20074 30059 40083 56022 76062 885// 333 82713 86625 87650;MET076EINN 022100Z 20014KT 9999 -RA FEW013 BKN025 BKN050 11/07 Q1008 TEMPO BKN007;EQDQ01    003PRSWM1
0340039620999992000010222004+52700-008920SY-MT+0020EINN V0202001N007010048019N0120001N1+01001+00881100821ADDAY161999AY251999GA1021+002109999GA2071+004809999GA3071+007509999GF108991081061002501999999MA1100811100581MD1710131+9999MW1581MW2611REMSYN094AAXX  02221 03962 41362 82007 10100 20088 30058 40082 57013 75865 886// 333 83707 85716 87625;MET078EINN 022200Z 20014KT 9999 -RADZ SCT007 BKN016 BKN025 10/09 Q1008 TEMPO BKN007;EQDQ01    003PRSWM1
0354039620999992000010223004+52700-008920SY-MT+0020EINN V0202601N008010150019N0150001N1+00941+00621101071ADDAY161999AY251999GA1021+004809999GA2021+007509999GA3071+015009999GF107991071051004501999999MA1101021100831MD1310201+9999MW1211OC101341REMSYN100AAXX  02231 03962 41465 72608 10094 20062 30083 40107 53020 72165 875// 333 81716 83625 87650 91118;MET068EINN 022300Z 26016G26KT 9999 FEW016 SCT025 BKN050 09/06 Q1010 NOSIG;EQDQ01+000000PRSWM2Q02    003PRSWM1
0325039620999992000010300004+52700-008920SY-MT+0020EINN V0202601N007012200019N0150001N1+00901+00551101151ADDAA106001091AY161061AY251061GA1021+004809999GA2021+015009999GF104991041051004501001001MA1101081100911MD1210321+9999MW1011REMSYN094AAXX  03001 03962 11465 42607 10090 20055 30091 40115 52032 69991 70165 84500 333 81716 84650;MET058EINN 030000Z 26014KT 9999 FEW016 SCT050 09/06 Q1011 NOSIG;EQDQ01+000000PRSWM2Q02    003PRSWM1
0257039620999992000010301004+52700-008920SY-MT+0020EINN V0202401N005012200019N0160001N1+00861+00501101251ADDGA1021+007509999GF199999011051008001001001MA1101191101011MD1210431+9999MW1001REMSYN076AAXX  03011 03962 42566 12405 10086 20050 30101 40125 52043 81500 333 81625;MET051EINN 030100Z 24009KT 9999 FEW025 09/05 Q1012 NOSIG;EQDQ01+000012SCOTCVQ02+000000PRSWM2
0239039620999992000010302004+52700-008920SY-MT+0020EINN V0202201N005012200019N0160001N1+00801+00531101291ADDGA1021+007809999GF103991031051008001001001MA1101191101051MD1210221+9999MW1001REMSYN076AAXX  03021 03962 42566 32205 10080 20053 30105 40129 52022 83500 333 83626;MET049EINN 030200Z 22009 9999 SCT026 08/05 Q1012 NOSIG;EQDQ01+000000PRSWM2
0295039620999992000010303004+52700-008920SY-MT+0020EINN V0202101N003012200019N0140001N1+00721+00441101361ADDAY111031AY211031GA1021+008409999GF199999011051008001001001MA1101291101121MD1210211+9999MW1101REMSYN082AAXX  03031 03962 41564 12103 10072 20044 30112 40136 52021 71011 81500 333 81628;MET051EINN 030300Z 21006KT 9999 FEW028 07/07 Q1013 NOSIG;EQDQ01+000012SCOTCVQ02+000000PRSWM2Q03    003PRSWM1
0241039620999992000010304004+52700-008920SY-MT+0020EINN V0202101N004012200019N0150001N1+00681+00421101381ADDGA1021+008109999GF102991021051008001001001MA1101291101141MD1210131+9999MW1001REMSYN076AAXX  03041 03962 42565 22104 10068 20042 30114 40138 52013 82500 333 82627;MET051EINN 030400Z 21008KT 9999 FEW027 07/04 Q1013 NOSIG;EQDQ01+000000PRSWM2
0257039620999992000010305004+52700-008920SY-MT+0020EINN V0202301N006012200019N0160001N1+00731+00411101411ADDGA1021+009009999GF199999011051012501001001MA1101391101171MD1210121+9999MW1001REMSYN076AAXX  03051 03962 42666 12306 10073 20041 30117 40141 52012 81500 333 81630;MET051EINN 030500Z 23011KT 9999 FEW030 07/04 Q1014 NOSIG;EQDQ01+000012SCOTCVQ02+000000PRSWM2
0372039620999992000010306004+52700-008920SY-MT+0020EINN V0202301N00501012001CN0160001N1+00751+00431101441ADDAA112001091AY181061AY211061GA1021+006009999GA2021+009909999GF107991071081008001999999GJ100969IA1099IA2999+00409KA1120N+00681MA1101391101201MD1210081+9999MW1801REMSYN112AAXX  03061 03962 11566 72305 10075 20043 30120 40144 52008 69992 78081 878// 333 20068 31004 55016 84820 84633;MET064EINN 030600Z 23010KT 9999 -SHRA SCT020 SCT033 08/04 Q1014 NOSIG;EQDQ01    003PRSWM1
0337039620999992000010307004+52700-008920SY-MT+0020EINN V0202301N00501015001CN0160001N1+00721+00561101471ADDAY181999AY221999GA1021+005109999GA2021+008409999GA3071+015009999GF107991071081004501999999MA1101391101231MD1210091+9999MW1251REMSYN094AAXX  03071 03962 41466 72305 10072 20056 30123 40147 52009 72582 878// 333 82817 83628 86650;MET065EINN 030700Z 23009KT 9999 FEW017 SCT028 BKN050 07/06 Q1014 NOSIG;EQDQ01+000000PRSWM2Q02    003PRSWM1
0308039620999992000010308004+52700-008920SY-MT+0020EINN V0202301N004010150019N0200001N1+00701+00571101511ADDAY181999AY221999GA1021+005109999GA2071+015009999GF107991071081004501999999MA1101491101271MD1210101+9999MW1251REMSYN088AAXX  03081 03962 41470 72304 10070 20057 30127 40151 52010 72582 878// 333 82817 86650;MET058EINN 030800Z 23008KT 9999 FEW017 BKN050 07/06 Q1015 NOSIG;EQDQ01+000000PRSWM2Q02    003PRSWM1
0337039620999992000010309004+52700-008920SY-MT+0020EINN V0202201N005010750019N0200001N1+00711+00551101541ADDAY181031AY221031GA1021+004509999GA2021+008109999GA3071+075009999GF107991041051004501001021MA1101491101301MD1210101+9999MW1021REMSYN094AAXX  03091 03962 41470 72205 10071 20055 30130 40154 52010 70282 84502 333 81715 83627 86075;MET065EINN 030900Z 22009KT 9999 FEW015 SCT027 BKN250 07/06 Q1015 NOSIG;EQDQ01+000000PRSWM2Q02    003PRSWM1
0299039620999992000010310004+52700-008920SY-MT+0020EINN V0202201N003010600019N0200001N1+00661+00571101581ADDGA1021+004509999GA2021+009009999GA3071+060009999GF108991041051004501001021MA1101491101341MD1210111+9999MW1001REMSYN088AAXX  03101 03962 42470 82203 10066 20057 30134 40158 52011 84502 333 81715 84630 87070;MET065EINN 031000Z 22006KT 9999 FEW015 SCT030 BKN200 07/06 Q1015 NOSIG;EQDQ01+000000PRSWM2
0299039620999992000010311004+52700-008920SY-MT+0020EINN V0202101N004010600019N0200001N1+00691+00531101601ADDGA1021+004509999GA2021+009009999GA3081+060009999GF108991041051004501031071MA1101591101361MD1210091+9999MW1001REMSYN088AAXX  03111 03962 42470 82104 10069 20053 30136 40160 52009 84537 333 81715 84630 88270;MET065EINN 031100Z 21007KT 9999 FEW015 SCT030 OVC200 07/05 Q1016 NOSIG;EQDQ01+000000PRSWM2
0354039620999992000010312004+52700-008920SY-MT+0020EINN V0202201N003010600019N0180001N1+00731+00551101581ADDAA106000391AY181061AY221061GA1021+004509999GA2021+009009999GA3081+060009999GF108991041051004501031071MA1101491101341MD1110041+9999MW1021REMSYN100AAXX  03121 03962 11468 82203 10073 20055 30134 40158 51004 69931 70282 84537 333 81715 84630 88270;MET065EINN 031200Z 22006KT 9999 FEW015 SCT030 OVC200 07/06 Q1015 NOSIG;EQDQ01+000000PRSWM2Q02    003PRSWM1
0299039620999992000010313004+52700-008920SY-MT+0020EINN V0202101N004010600019N0180001N1+00751+00551101561ADDGA1021+004509999GA2021+009009999GA3071+060009999GF107991041051004501031081MA1101491101321MD1810021+9999MW1001REMSYN088AAXX  03131 03962 42468 72104 10075 20055 30132 40156 58002 84538 333 81715 84630 87270;MET065EINN 031300Z 21008KT 9999 FEW015 SCT030 BKN200 08/06 Q1015 NOSIG;EQDQ01+000000PRSWM2
0278039620999992000010314004+52700-008920SY-MT+0020EINN V0202301N004012200019N0180001N1+00861+00601101531ADDGA1021+006009999GA2021+060009999GF104991021081008001031021MA1101491101291MD1710071+9999MW1001REMSYN082AAXX  03141 03962 42568 42304 10086 20060 30129 40153 57007 82832 333 82820 83070;MET066EINN 031400Z 23007KT 200V270 9999 FEW020 SCT200 09/06 Q1015 NOSIG;EQDQ01+000000PRSWM2
0308039620999992000010315004+52700-008920SY-MT+0020EINN V0202401N002012200019N0250001N1+00841+00521101491ADDAY181031AY211031GA1021+006009999GA2021+060009999GF104991011081008001031021MA1101391101251MD1710091+9999MW1031REMSYN088AAXX  03151 03962 41575 42402 10084 20052 30125 40149 57009 70381 81832 333 81820 84070;MET058EINN 031500Z 24004KT 9999 FEW020 SCT200 08/05 Q1014 NOSIG;EQDQ01+000000PRSWM2Q02    003PRSWM1
0241039620999992000010316004+52700-008920SY-MT+0020EINN V0201501N002012200019N0250001N1+00751+00551101441ADDGA1021+006009999GF104991031081008001001021MA1101391101201MD1710121+9999MW1001REMSYN076AAXX  03161 03962 42575 41502 10075 20055 30120 40144 57012 83802 333 83820;MET051EINN 031600Z 15004KT 9999 SCT020 08/06 Q1014 NOSIG;EQDQ01+000000PRSWM2
0241039620999992000010317004+52700-008920SY-MT+0020EINN V0201601N003012200019N0250001N1+00601+00441101441ADDGA1021+006009999GF103991021081008001001021MA1101391101201MD1610091+9999MW1001REMSYN076AAXX  03171 03962 42575 31603 10060 20044 30120 40144 56009 82802 333 81820;MET051EINN 031700Z 16005KT 9999 FEW020 06/04 Q1014 NOSIG;EQDQ01+000000PRSWM2
0331039620999992000010318004+52700-008920SY-MT+0020EINN V0201701N003012200019N0250001N1+00541+00421101401ADDAA112000391AY181061AY211061GA1021+006009999GF199999011081008001001001KA1120M+00881MA1101391101161MD1710091+9999MW1011REMSYN094AAXX  03181 03962 11575 11703 10054 20042 30116 40140 57009 69932 70181 81800 333 10088 81820;MET051EINN 031800Z 17006KT 9999 FEW020 05/04 Q1014 NOSIG;EQDQ01+000012SCOTCVQ02+000000PRSWM2Q03    003PRSWM1
0145039620999992000010318304+52700-008920FM-15+0020EINN V0201801N004112200019N0112651N1+00501+00401999999ADDGA1021+010509999GF102991999999999999999999MA1101391999999MW1001REMMET051EINN 031930Z 18008KT 9999 FEW035 05/04 Q1014 NOSIG;EQDQ01+000000PRSWM2
0159039620999992000010319004+52700-008920FM-12+0020EINN V0201801N005012200019N0250001N1+00521+00451101411ADDGA1011+010509059GF101991011051012501001001MA1999999101171MD1710031+9999REMSYN076AAXX  03191 03962 42675 11805 10052 20045 30117 40141 57003 81500 333 81635;
0257039620999992000010320004+52700-008920SY-MT+0020EINN V0201701N003012200019N0250001N1+00441+00391101391ADDGA1021+010509999GF199999011051012501001001MA1101291101151MD1710051+9999MW1001REMSYN076AAXX  03201 03962 42675 11703 10044 20039 30115 40139 57005 81500 333 81635;MET051EINN 032000Z 17006KT 9999 FEW035 04/04 Q1013 NOSIG;EQDQ01+000012SCOTCVQ02+000000PRSWM2
0257039620999992000010321004+52700-008920SY-MT+0020EINN V0201201N002012200019N0250001N1+00381+00281101351ADDGA1021+010509999GF199999011051012501001001MA1101291101111MD1710051+9999MW1001REMSYN076AAXX  03211 03962 42675 11202 10038 20028 30111 40135 57005 81500 333 81635;MET051EINN 032100Z 12004KT 9999 FEW035 04/03 Q1013 NOSIG;EQDQ01+000012SCOTCVQ02+000000PRSWM2
0241039620999992000010322004+52700-008920SY-MT+0020EINN V0201601N004012200019N0250001N1+00451+00251101251ADDGA1021+010509999GF102991021051012501001001MA1101191101011MD1710161+9999MW1001REMSYN076AAXX  03221 03962 42675 21604 10045 20025 30101 40125 57016 82500 333 82635;MET051EINN 032200Z 16008KT 9999 FEW035 05/03 Q1012 NOSIG;EQDQ01+000000PRSWM2
0270039620999992000010323004+52700-008920SY-MT+0020EINN V0201701N006010750019N0250001N1+00581+00391101161ADDGA1021+010509999GA2021+015009999GF105991031051012501001021MA1101081100921MD1710231+9999MW1001REMSYN082AAXX  03231 03962 42675 51706 10058 20039 30092 40116 57023 83502 333 82635 83650;MET058EINN 032300Z 17012KT 9999 FEW035 SCT050 06/04 Q1011 NOSIG;EQDQ01+000000PRSWM2
0316039620999992000010400004+52700-008920SY-MT+0020EINN V0201601N006010150019N0250001N1+00631+00441101081ADDAA106000791GA1021+010209999GA2071+015009999GA3071+060009999GF107991061051012501999021MA1101021100841MD1710271+9999MW1001REMSYN094AAXX  04001 03962 12675 71606 10063 20044 30084 40108 57027 69901 865/2 333 83636 85650 85070;MET065EINN 040000Z 16011KT 9999 SCT034 BKN050 BKN200 06/04 Q1010 NOSIG;EQDQ01+000000PRSWM2
0299039620999992000010401004+52700-008920SY-MT+0020EINN V0201601N007010150019N0300001N1+00671+00461100951ADDGA1021+009009999GA2071+015009999GA3071+036009999GF108991071051012501071999MA1100911100711MD1710301+9999MW1001REMSYN088AAXX  04011 03962 42680 81607 10067 20046 30071 40095 57030 8757/ 333 83630 84650 87362;MET065EINN 040100Z 16014KT 9999 SCT030 BKN050 BKN120 07/05 Q1009 NOSIG;EQDQ01+000000PRSWM2
0315039620999992000010402004+52700-008920SY-MT+0020EINN V0201601N004010360019N0300001N1+00681+00501100841ADDGA1021+010509999GA2021+018009999GA3071+036009999GF199999041051012501071999MA1100811100601MD1710321+9999MW1001REMSYN088AAXX  04021 03962 42680 61604 10068 20050 30060 40084 57032 8457/ 333 82635 83656 85362;MET065EINN 040200Z 16008KT 9999 FEW035 SCT060 BKN120 07/05 Q1008 NOSIG;EQDQ01+000062SCOTCVQ02+000000PRSWM2
0331039620999992000010403004+52700-008920SY-MT+0020EINN V0201701N006010135019N0200001N1+00701+00521100711ADDAY161031AY221031GA1021+009009999GA2071+013509999GA3071+036009999GF108991061051012501071999MA1100711100471MD1710371+9999MW1601MW2611REMSYN094AAXX  04031 03962 41670 81706 10070 20052 30047 40071 57037 76062 8657/ 333 82630 85645 87462;MET069EINN 040300Z 17012KT 9999 -RA FEW030 BKN045 BKN120 07/05 Q1007 NOSIG;EQDQ01    003PRSWM1
0353039620999992000010404004+52700-008920SY-MT+0020EINN V0201701N005010360019N0250001N1+00701+00571100561ADDAY161999AY221999GA1021+004509999GA2021+007509999GA3071+036009999GF199999031051004501071999MA1100511100321MD1710391+9999MW1211REMSYN094AAXX  04041 03962 41475 61705 10070 20057 30032 40056 57039 72162 8357/ 333 81715 83625 85462;MET065EINN 040400Z 17010KT 9999 FEW015 SCT025 BKN120 07/06 Q1005 NOSIG;EQDQ01+000062SCOTCVQ02+000000PRSWM2Q03    003PRSWM1
0337039620999992000010405004+52700-008920SY-MT+0020EINN V0201901N00501015001CN0200001N1+00721+00541100451ADDAY161999AY221999GA1021+004509999GA2021+007509999GA3071+015009999GF107991071051004501999999MA1100411100211MD1710391+9999MW1211REMSYN094AAXX  04051 03962 41470 71905 10072 20054 30021 40045 57039 72162 875// 333 81715 84625 87650;MET065EINN 040500Z 19010KT 9999 FEW015 SCT025 BKN050 07/05 Q1004 NOSIG;EQDQ01+000000PRSWM2Q02    003PRSWM1
0229039620999992000010406004+52700-008920FM-15+0020EINN V0202301N008210135019N0060001N1+00701+00501999999ADDGA1021+001509999GA2021+004809999GA3071+013509999GF107991999999999999999999MA1100311999999MW1631OC101391REMMET079EINN 040600Z 23016G27KT 170V290 6000 RA FEW005 SCT016 BKN045 07/05 Q1003 NOSIG;EQDQ01+000003PRSWM1Q02    003PRSWM1
0332039620999992000010407004+52700-008920SY-MT+0020EINN V0202301N009010045019N0090001N1+00551+00391100351ADDAY161999AY261999GA1021+001809999GA2071+004509999GA3081+012009999GF108991051061002501021999MA1100311100111MD1710211+9999MW1631REMSYN094AAXX  04071 03962 41359 82309 10055 20039 30011 40035 57021 76366 8562/ 333 81706 85715 88540;MET076EINN 040700Z 23017KT 180V270 9000 RA FEW006 BKN015 OVC040 06/04 Q1003 NOSIG;EQDQ01    003PRSWM1
0337039620999992000010408004+52700-008920SY-MT+0020EINN V0202601N007010105019N0160001N1+00541+00301100501ADDAY161999AY221999GA1021+002409999GA2021+003909999GA3071+010509999GF107991071061002501999999MA1100411100261MD1310051+9999MW1211REMSYN094AAXX  04081 03962 41366 72607 10054 20030 30026 40050 53005 72162 876// 333 82708 84713 86635;MET065EINN 040800Z 26013KT 9999 FEW008 SCT013 BKN035 05/03 Q1004 NOSIG;EQDQ01+000000PRSWM2Q02    003PRSWM1
0308039620999992000010409004+52700-008920SY-MT+0020EINN V0202601N007012200019N0180001N1+00591+00191100611ADDAY181031AY211031GA1021+006009999GA2021+015009999GF103991031081008001001001MA1100611100371MD1310211+9999MW1251REMSYN088AAXX  04091 03962 41568 32607 10059 20019 30037 40061 53021 72581 83800 333 81820 83650;MET058EINN 040900Z 26013KT 9999 FEW020 SCT050 06/02 Q1006 NOSIG;EQDQ01+000000PRSWM2Q02    003PRSWM1
0297039620999992000010410004+52700-008920SY-MT+0020EINN V0202601N006012200019N0250001N1+00501+00171100701ADDAY181999AY211999GA1021+006009099GF199999011091008001001001MA1100611100461MD1210351+9999MW1251REMSYN082AAXX  04101 03962 41575 12606 10050 20017 30046 40070 52035 72581 81900 333 81920;MET053EINN 041000Z 26012KT 9999 FEW020CB 05/02 Q1006 NOSIG;EQDQ01+000012SCOTCVQ02+000000PRSWM2Q03    003PRSWM1
0317039620999992000010411004+52700-008920SY-MT+0020EINN V0202601N008010060019N0200001N1+00521+00141100851ADDAY181999AY211999GA1021+003009999GA2071+006009099GF107991071031004501999999MA1100811100611MD1210351+9999MW1801OC101591REMSYN094AAXX  04111 03962 41470 72608 10052 20014 30061 40085 52035 78081 873// 333 83710 86920 91118;MET069EINN 041100Z 26016G31KT 9999 -SHRA SCT010 BKN020CB 05/01 Q1008 NOSIG;EQDQ01    003PRSWM1
0384039620999992000010412004+52700-008920SY-MT+0020EINN V0202601N007010060019N0040001N1+00551+00231100951ADDAA106004191AY181061AY261061GA1021+003009999GA2071+006009099GF107991071031004501999999MA1100911100711MD1210341+9999MW1801MW2871OA140100881OC101751REMSYN130AAXX  04121 03962 11440 72607 10055 20023 30071 40095 52034 60041 78786 873// 333 84710 87920 98487 90710 91117 98262 98462 98662;MET072EINN 041200Z 26013G34KT 4000N -SHRAGS SCT010 BKN020CB 06/02 Q1009 NOSIG;EQDQ01    003PRSWM1
0297039620999992000010413004+52700-008920SY-MT+0020EINN V0202501N007012200019N0250001N1+00591+00171100941ADDAY181999AY211999GA1021+006009099GF199999011091008001001001MA1100911100701MD1210241+9999MW1251REMSYN082AAXX  04131 03962 41575 12507 10059 20017 30070 40094 52024 72581 81900 333 81920;MET053EINN 041300Z 25014KT 9999 FEW020CB 06/02 Q1009 NOSIG;EQDQ01+000012SCOTCVQ02+000000PRSWM2Q03    003PRSWM1
0288039620999992000010414004+52700-008920SY-MT+0020EINN V0202601N006012200019N0300001N1+00671+00231100971ADDGA1021+003009999GA2021+006009099GF199999011091004501001001MA1100911100731MD1210121+9999MW1001REMSYN082AAXX  04141 03962 42480 12606 10067 20023 30073 40097 52012 81900 333 81710 81920;MET060EINN 041400Z 26012KT 9999 FEW010 FEW020CB 07/02 Q1009 NOSIG;EQDQ01+000012SCOTCVQ02+000000PRSWM2
0316039620999992000010415004+52700-008920SY-MT+0020EINN V0202301N00701002101CN0250001N1+00591+00171100981ADDAY181031AY211031GA1021+002409999GA2021+005409099GF105991051091002501001001MA1100911100741MD1210031+9999MW1031REMSYN094AAXX  04151 03962 41375 52307 10059 20017 30074 40098 52003 70381 85900 333 82708 84918 96487;MET060EINN 041500Z 23013KT 9999 FEW008 SCT018CB 06/02 Q1009 NOSIG;EQDQ01+000000PRSWM2Q02    003PRSWM1
0316039620999992000010416004+52700-008920SY-MT+0020EINN V0202201N004012200019N0250001N1+00461+00261101031ADDAY181999AY211999GA1021+003009999GA2021+006009099GF102991011091004501001021MA1101021100791MD1210091+9999MW1271REMSYN094AAXX  04161 03962 41475 22204 10046 20026 30079 40103 52009 72781 81902 333 81710 81920 91118;MET060EINN 041600Z 22007KT 9999 FEW010 FEW020CB 05/03 Q1010 NOSIG;EQDQ01+000000PRSWM2Q02    003PRSWM1
0272039620999992000010417004+52700-008920SY-MT+0020EINN V0202301N003010750019N0250001N1+00481+00211101051ADDGA1021+005409099GA2021+012009999GF106991041091004501001021MA1101021100811MD1210081+9999MW1001REMSYN082AAXX  04171 03962 42475 62303 10048 20021 30081 40105 52008 84902 333 81918 83640;MET060EINN 041700Z 23006KT 9999 FEW018CB SCT040 05/02 Q1010 NOSIG;EQDQ01+000000PRSWM2
0333039620999992000010418004+52700-008920SY-MT+0020EINN V0202101N006012200019N0250001N1+00431+00121101071ADDAA112005191AY181061AY211061GA1021+005409099GF199999011031004501001021KA1120M+00731MA1101021100831MD1210091+9999MW1011REMSYN094AAXX  04181 03962 11475 12106 10043 20012 30083 40107 52009 60052 70181 81302 333 10073 81918;MET053EINN 041800Z 21011KT 9999 FEW018CB 04/01 Q1010 NOSIG;EQDQ01+000012SCOTCVQ02+000000PRSWM2Q03    003PRSWM1
0243039620999992000010419004+52700-008920SY-MT+0020EINN V0202001N005012200019N0250001N1+00381+00151101061ADDGA1021+005409099GF102991011031004501001021MA1101021100821MD1110031+9999MW1001REMSYN076AAXX  04191 03962 42475 22005 10038 20015 30082 40106 51003 81302 333 81918;MET053EINN 041900Z 20010KT 9999 FEW018CB 04/02 Q1010 NOSIG;EQDQ01+000000PRSWM2
0241039620999992000010420004+52700-008920SY-MT+0020EINN V0201901N005012200019N0250001N1+00401+00201101041ADDGA1021+005409999GF103991021081004501001021MA1101021100801MD1810011+9999MW1001REMSYN076AAXX  04201 03962 42475 31905 10040 20020 30080 40104 58001 82802 333 81818;MET051EINN 042000Z 19010KT 9999 FEW018 04/02 Q1010 NOSIG;EQDQ01+000000PRSWM2
0270039620999992000010421004+52700-008920SY-MT+0020EINN V0201701N006012200019N0250001N1+00401+00171100961ADDGA1021+006009999GA2021+060009999GF103991011051008001001021MA1100911100721MD1710111+9999MW1001REMSYN082AAXX  04211 03962 42575 31706 10040 20017 30072 40096 57011 81502 333 81620 83070;MET058EINN 042100Z 17012KT 9999 FEW020 SCT200 04/02 Q1009 NOSIG;EQDQ01+000000PRSWM2
0299039620999992000010422004+52700-008920SY-MT+0020EINN V0201601N007010150019N0250001N1+00391+00211100881ADDGA1021+006009999GA2071+015009999GA3071+060009999GF107991051051008001001021MA1100811100641MD1710181+9999MW1001REMSYN088AAXX  04221 03962 42575 71607 10039 20021 30064 40088 57018 85502 333 81620 85650 86070;MET065EINN 042200Z 16013KT 9999 FEW020 BKN050 BKN200 04/02 Q1008 NOSIG;EQDQ01+000000PRSWM2
0299039620999992000010423004+52700-008920SY-MT+0020EINN V0201601N005010150019N0250001N1+00501+00231100801ADDGA1021+007509999GA2071+015009999GA3071+060009999GF107991061051008001999021MA1100811100561MD1710241+9999MW1001REMSYN088AAXX  04231 03962 42575 71605 10050 20023 30056 40080 57024 865/2 333 82625 86650 87070;MET065EINN 042300Z 16010KT 9999 FEW025 BKN050 BKN200 05/02 Q1008 NOSIG;EQDQ01+000000PRSWM2
0316039620999992000010500004+52700-008920SY-MT+0020EINN V0201601N006010150019N0250001N1+00581+00341100651ADDAA106000791GA1021+009009999GA2071+015009999GA3071+060009999GF107991061051012501999021MA1100611100411MD1710311+9999MW1001REMSYN094AAXX  05001 03962 12675 71606 10058 20034 30041 40065 57031 69901 865/2 333 83630 86650 87070;MET065EINN 050000Z 16012KT 9999 SCT030 BKN050 BKN200 06/03 Q1006 NOSIG;EQDQ01+000000PRSWM2
0299039620999992000010501004+52700-008920SY-MT+0020EINN V0201601N00601015001CN0250001N1+00661+00431100441ADDGA1021+004809999GA2021+010509999GA3071+015009999GF108991061051004501071999MA1100411100201MD1810441+9999MW1001REMSYN088AAXX  05011 03962 42475 81606 10066 20043 30020 40044 58044 8657/ 333 81716 84635 86650;MET065EINN 050100Z 16011KT 9999 FEW016 SCT035 BKN050 07/04 Q1004 NOSIG;EQDQ01+000000PRSWM2
0299039620999992000010502004+52700-008920SY-MT+0020EINN V0201701N009010120019N0250001N1+00791+00501100331ADDGA1021+007509999GA2071+012009999GA3071+036009999GF107991051051008001071999MA1100311100091MD1710471+9999MW1001REMSYN088AAXX  05021 03962 42575 71709 10079 20050 30009 40033 57047 8557/ 333 81625 85640 87362;MET065EINN 050200Z 17018KT 9999 FEW025 BKN040 BKN120 08/05 Q1003 NOSIG;EQDQ01+000000PRSWM2
0331039620999992000010503004+52700-008920SY-MT+0020EINN V0201601N009010126019N0200001N1+00841+00571100161ADDAY161031AY221031GA1021+005409999GA2071+012609999GA3071+036009999GF108991061051004501071999MA1100101099921MD1710491+9999MW1601MW2611REMSYN094AAXX  05031 03962 41470 81609 10084 20057 39992 40016 57049 76062 8657/ 333 81718 86642 87362;MET069EINN 050300Z 16017KT 9999 -RA FEW018 BKN042 BKN120 08/06 Q1001 NOSIG;EQDQ01    003PRSWM1
0332039620999992000010504004+52700-008920SY-MT+0020EINN V0201601N008010051019N0100001N1+00871+00651100011ADDAY161999AY221999GA1021+003009999GA2071+005109999GA3071+010509999GF108991081061004501999999MA1100001099771MD1710431+9999MW1601MW2611REMSYN094AAXX  05041 03962 41460 81608 10087 20065 39977 40001 57043 76062 886// 333 83710 85717 87635;MET070EINN 050400Z 160166KT 9999 -RA SCT010 BKN017 BKN035 09/07 Q1000 NOSIG;EQDQ01    003PRSWM1
0325039620999992000010505004+52700-008920SY-MT+0020EINN V0201901N008010045019N0045001N1+00871+00761099901ADDAY161999AY261999GA1021+002109999GA2071+004509999GA3081+015009999GF108991061061002501021999MA1099801099661MD1710431+9999MW1611REMSYN094AAXX  05051 03962 41345 81908 10087 20076 39966 49990 57043 76166 8662/ 333 82707 85715 88550;MET069EINN 050500Z 19015KT 4500 -RA FEW007 BKN015 OVC050 09/08 Q0998 NOSIG;EQDQ01    003PRSWM1
0423039620999992000010506004+52700-008920SY-MT+0020EINN V0201901N010010120019N0160001N1+00981+00731099811ADDAA112000891AY161061AY221061GA1021+002709999GA2021+004509999GA3071+012009999GF108991081051002501999999GJ102169IA1099IA2999+00109KA1120N+00391MA1099801099571MD1710351+9999MW1211REMSYN130AAXX  05061 03962 11366 81910 10098 20073 39957 49981 57035 69982 72162 885// 333 20039 31001 55036 81709 83715 87640 90710 91119;MET065EINN 050600Z 19019KT 9999 FEW009 SCT015 BKN040 10/07 Q0998 NOSIG;EQDQ01+000000PRSWM2Q02    003PRSWM1
0337039620999992000010507004+52700-008920SY-MT+0020EINN V0202001N009010078019N0150001N1+01001+00731099751ADDAY151999AY221999GA1021+002409999GA2021+004509999GA3071+007809999GF108991081051002501999999MA1099701099511MD1710261+9999MW1201REMSYN094AAXX  05071 03962 41365 82009 10100 20073 39951 49975 57026 72052 885// 333 81708 83715 87626;MET065EINN 050700Z 20018KT 9999 FEW008 SCT015 BKN026 10/07 Q0997 NOSIG;EQDQ01+000000PRSWM2Q02    003PRSWM1
0331039620999992000010508004+52700-008920SY-MT+0020EINN V0201801N009010150019N0130001N1+01001+00751099671ADDAY151999AY221999GA1021+003609999GA2021+007809999GA3071+015009999GF108991081051004501999999MA1099591099431MD1710231+9999MW1501MW2511REMSYN094AAXX  05081 03962 41463 81809 10100 20075 39943 49967 57023 75052 885// 333 81712 83626 87650;MET069EINN 050800Z 18018KT 9999 -DZ FEW012 SCT026 BKN050 10/08 Q0996 NOSIG;EQDQ01    003PRSWM1
0360039620999992000010509004+52700-008920SY-MT+0020EINN V0201901N012010600019N0150001N1+01021+00721099601ADDAY151031AY221031GA1021+004509999GA2021+007809999GA3071+060009999GF107991041051004501071021MA1099591099371MD1710201+9999MW1201OC101701REMSYN106AAXX  05091 03962 41465 71912 10102 20072 39937 49960 57020 72052 84572 333 81715 84626 87070 90710 91117;MET068EINN 050900Z 19023G33KT 9999 FEW015 SCT026 BKN200 10/07 Q0996 NOSIG;EQDQ01+000000PRSWM2Q02    003PRSWM1
0337039620999992000010510004+52700-008920SY-MT+0020EINN V0201801N011010081019N0150001N1+01021+00731099551ADDAY151999AY221999GA1021+002409999GA2021+004509999GA3071+008109999GF108991081051002501999999MA1099491099321MD1710191+9999MW1501MW2511REMSYN100AAXX  05101 03962 41365 81811 10102 20073 39932 49955 57019 75052 885// 333 81708 83715 87627 91118;MET069EINN 051000Z 18021KT 9999 -DZ FEW008 SCT015 BKN027 10/07 Q0995 NOSIG;EQDQ01    003PRSWM1
0343039620999992000010511004+52700-008920SY-MT+0020EINN V0201901N012010081019N0150001N1+01071+00691099441ADDAY151999AY221999GA1021+004509999GA2071+008109999GA3071+015009999GF108991081051004501999999MA1099391099211MD1710221+9999MW1201REMSYN100AAXX  05111 03962 41465 81912 10107 20069 39921 49944 57022 72052 885// 333 81715 86627 87650 91118;MET065EINN 051100Z 19023KT 9999 FEW015 BKN027 BKN050 11/07 Q0994 NOSIG;EQDQ01+000000PRSWM2Q02    003PRSWM1
0360039620999992000010512004+52700-008920SY-MT+0020EINN V0201801N011010081019N0080001N1+01021+00771099311ADDAA106000191AY161061AY251061GA1021+004509999GA2071+008109999GA3071+015009999GF108991081051004501999999MA1099291099081MD1710291+9999MW1601MW2611REMSYN112AAXX  05121 03962 11458 81811 10102 20077 39908 49931 57029 69911 76065 885// 333 82715 86627 87650 90710 91119;MET069EINN 051200Z 18021KT 8000 -RA FEW015 BKN027 BKN050 10/08 Q0993 NOSIG;EQDQ01    003PRSWM1
0218039620999992000010513004+52700-008920FM-15+0020EINN V0201801N012310078019N0112651N1+01001+00801999999ADDGA1021+004509999GA2071+007809999GA3081+015009999GF108991999999999999999999MA1099091999999MW1611REMMET076EINN 051300Z 18024KT 9999 -RA FEW015 BKN026 OVC050 10/08 Q0991 TEMPO BKN012;EQDQ01+000003PRSWM1Q02    003PRSWM1
0344039620999992000010514004+52700-008920SY-MT+0020EINN V0201801N01101027001CN0120001N1+01031+00891099031ADDAY161999AY221999GA1021+002709999GA2021+006009999GA3071+027009999GF108991051051002501071999MA1098981098801MD1610411+9999MW1601MW2611REMSYN100AAXX  05141 03962 41362 81811 10103 20089 39880 49903 56041 76062 8557/ 333 82709 84620 88459 91119;MET076EINN 051400Z 18021KT 9999 -RA FEW009 SCT020 BKN090 10/09 Q0990 TEMPO BKN012;EQDQ01    003PRSWM1
0360039620999992000010515004+52700-008920SY-MT+0020EINN V0202001N009010270019N0200001N1+01041+00661098991ADDAY161031AY221031GA1021+003309999GA2071+027009999GA3071+090009999GF107991031081004501071021MA1098921098761MD1610321+9999MW1211OC101491REMSYN106AAXX  05151 03962 41470 72009 10104 20066 39876 49899 56032 72162 83872 333 82711 85459 87080 90710 91119;MET068EINN 051500Z 20019G29KT 9999 FEW011 BKN090 BKN300 10/07 Q0989 NOSIG;EQDQ01+000000PRSWM2Q02    003PRSWM1
0327039620999992000010516004+52700-008920SY-MT+0020EINN V0201901N010010240019N0160001N1+00941+00641098961ADDAY121999AY221999GA1021+003609999GA2021+006909999GA3071+024009999GF107991041081004501031999MA1098921098731MD1610181+9999MW1801REMSYN094AAXX  05161 03962 41466 71910 10094 20064 39873 49896 56018 78022 8483/ 333 82712 83823 86458;MET071EINN 051600Z 19020KT 9999 -SHRA FEW012 SCT023 BKN080 09/06 Q0989 NOSIG;EQDQ01    003PRSWM1
0337039620999992000010517004+52700-008920SY-MT+0020EINN V0202001N009010600019N0140001N1+00851+00541098941ADDAY181999AY221999GA1021+003309999GA2021+006909999GA3071+060009999GF107991041081004501031021MA1098921098711MD1610091+9999MW1251REMSYN094AAXX  05171 03962 41464 72009 10085 20054 39871 49894 56009 72582 84832 333 82711 83823 86070;MET065EINN 051700Z 20019KT 9999 FEW011 SCT023 BKN200 09/05 Q0989 NOSIG;EQDQ01+000000PRSWM2Q02    003PRSWM1
0327039620999992000010518004+52700-008920SY-MT+0020EINN V0202001N01001075001CN0200001N1+00911+00461098911ADDAA112001091AY181061AY261061GA1021+006009089GF105991031081008001001021KA1120M+01101MA1999999098681MD1710081+9999MW1011REMSYN100AAXX  05181 03962 11570 52010 10091 20046 39868 49891 57008 60012 70186 83802 333 10110 82820 84070;MET057EINN 51800Z 20020KT 9999 FEW020 SCT200 09/05 Q0989 NOSIG;EQDQ01+000000PRSWM2Q02    003PRSWM1
0287039620999992000010519004+52700-008920SY-MT+0020EINN V0202101N011012200019N0200001N1+00911+00411098961ADDGA1021+006009999GA2021+060009999GF104991031081008001001021MA1098921098731MD1510001+9999MW1001OC101591REMSYN088AAXX  05191 03962 42570 42111 10091 20041 39873 49896 55000 83802 333 83820 83070 91118;MET061EINN 051900Z 21021G31KT 9999 SCT020 SCT200 09/04 Q0989 NOSIG;EQDQ01+000000PRSWM2
0291039620999992000010521004+52700-008920SY-MT+0020EINN V0202101N010012200019N0200001N1+00851+00421099161ADDAY181031AY211031GA1021+006009999GF103991031081008001001001MA1099091098931MD1210251+9999MW1011REMSYN094AAXX  05211 03962 41570 32110 10085 20042 39893 49916 52025 70181 83800 333 83820 90710 91117;MET051EINN 052100Z 21019KT 9999 SCT020 09/04 Q0991 NOSIG;EQDQ01+000000PRSWM2Q02    003PRSWM1
0252039620999992000010522004+52700-008920SY-MT+0020EINN V0202101N009012200019N0250001N1+00841+00401099241ADDGA1021+006009999GF102991021081008001001001MA1099191099011MD1210281+9999MW1001OC101441REMSYN076AAXX  05221 03962 42575 22109 10084 20040 39901 49924 52028 82800 333 81820;MET054EINN 052200Z 21018G28KT 9999 FEW020 08/04 Q0992 NOSIG;EQDQ01+000000PRSWM2
0310039620999992000010601004+52700-008920SY-MT+0020EINN V0202401N006012200019N0250001N1+00771+00661099661ADDAY181999AY211999GA1021+004509999GA2021+006009099GF104991041031004501001001MA1099591099431MD1210421+9999MW1251REMSYN088AAXX  06011 03962 41475 42406 10077 20066 39943 49966 52042 72581 84300 333 81715 83920;MET060EINN 060100Z 24012KT 9999 FEW015 SCT020CB 08/07 Q0996 NOSIG;EQDQ01+000000PRSWM2Q02    003PRSWM1
0310039620999992000010602004+52700-008920SY-MT+0020EINN V0202501N006012200019N0250001N1+00771+00571099811ADDAY181999AY211999GA1021+005409099GA2021+006009999GF103991031031004501001001MA1099801099571MD1210441+9999MW1251REMSYN088AAXX  06021 03962 41475 32506 10077 20057 39957 49981 52044 72581 83300 333 81918 83820;MET060EINN 060200Z 25012KT 9999 FEW018CB SCT020 08/06 Q0998 NOSIG;EQDQ01+000000PRSWM2Q02    003PRSWM1
0308039620999992000010603004+52700-008920SY-MT+0020EINN V0202501N006012200019N0250001N1+00781+00561099971ADDAY181031AY211031GA1021+006009999GA2021+008409999GF104991041081008001001001MA1099901099731MD1210451+9999MW1251REMSYN088AAXX  06031 03962 41575 42506 10078 20056 39973 49997 52045 72581 84800 333 82820 83628;MET058EINN 060300Z 25011KT 9999 FEW020 SCT028 08/06 Q0999 NOSIG;EQDQ01+000000PRSWM2Q02    003PRSWM1
0279039620999992000010604004+52700-008920SY-MT+0020EINN V0202601N005012200019N0200001N1+00751+00451100131ADDAY181999AY211999GA1021+006009999GF104991041081008001001001MA1100101099891MD1210461+9999MW1251REMSYN082AAXX  06041 03962 41570 42605 10075 20045 39989 40013 52046 72581 84800 333 83820;MET051EINN 060400Z 26010KT 9999 SCT020 08/05 Q1001 NOSIG;EQDQ01+000000PRSWM2Q02    003PRSWM1
0297039620999992000010605004+52700-008920SY-MT+0020EINN V0202701N006012200019N0250001N1+00731+00381100291ADDAY181999AY211999GA1021+006009099GF199999011031008001001001MA1100201100051MD1210481+9999MW1251REMSYN082AAXX  06051 03962 41575 12706 10073 20038 30005 40029 52048 72581 81300 333 81920;MET053EINN 060500Z 27012KT 9999 FEW020CB 07/04 Q1002 NOSIG;EQDQ01+000012SCOTCVQ02+000000PRSWM2Q03    003PRSWM1
0345039620999992000010606004+52700-008920SY-MT+0020EINN V0203001N005012200019N0250001N1+00691+00511100471ADDAA112000591AY181061AY211061GA1021+005409099GF104991041031004501001001GJ100249IA1099IA2999+00409KA1120N+00681MA1100411100231MD1210501+9999MW1801REMSYN106AAXX  06061 03962 11475 43005 10069 20051 30023 40047 52050 69942 78081 84300 333 20068 31004 55004 83918;MET059EINN 060600Z 30009KT 9999 -SHRA SCT018CB 07/05 Q1004 NOSIG;EQDQ01    003PRSWM1
0288039620999992000010607004+52700-008920SY-MT+0020EINN V0202901N002010084019N0250001N1+00631+00471100721ADDGA1021+005409099GA2071+008409999GF199999061031004501999999MA1100711100481MD1210591+9999MW1001REMSYN082AAXX  06071 03962 42475 62902 10063 20047 30048 40072 52059 863// 333 83918 85628;MET060EINN 060700Z 29004KT 9999 SCT018CB BKN028 06/05 Q1007 NOSIG;EQDQ01+000062SCOTCVQ02+000000PRSWM2
0241039620999992000010608004+52700-008920SY-MT+0020EINN V0202601N002012200019N0300001N1+00571+00431100841ADDGA1021+005409999GF102991021081004501001001MA1100811100601MD1210551+9999MW1001REMSYN076AAXX  06081 03962 42480 22602 10057 20043 30060 40084 52055 82800 333 81818;MET051EINN 060800Z 26004KT 9999 FEW018 06/04 Q1008 NOSIG;EQDQ01+000000PRSWM2
0257039620999992000010609004+52700-008920SY-MT+0020EINN V0202601N003012200019N0300001N1+00501+00381101001ADDGA1021+005409999GF199999011081004501001011MA1101021100761MD1210531+9999MW1001REMSYN076AAXX  06091 03962 42480 12603 10050 20038 30076 40100 52053 81801 333 81818;MET051EINN 060900Z 26006KT 9999 FEW018 05/04 Q1010 NOSIG;EQDQ01+000012SCOTCVQ02+000000PRSWM2
0270039620999992000010610004+52700-008920SY-MT+0020EINN V0202301N002012200019N0200001N1+00541+00421101171ADDGA1021+005409999GA2021+010509999GF104991041081004501001021MA1101081100931MD1210451+9999MW1001REMSYN082AAXX  06101 03962 42470 42302 10054 20042 30093 40117 52045 84802 333 82818 83635;MET058EINN 061000Z 23004KT 9999 FEW018 SCT035 05/04 Q1011 NOSIG;EQDQ01+000000PRSWM2
0286039620999992000010611004+52700-008920SY-MT+0020EINN V0202301N003010600019N0250001N1+00571+00481101291ADDGA1021+006009999GA2071+060009999GF199999011081008001001021MA1101191101051MD1210451+9999MW1001REMSYN082AAXX  06111 03962 42575 52303 10057 20048 30105 40129 52045 81802 333 81820 85070;MET058EINN 061100Z 23005KT 9999 FEW020 BKN200 06/05 Q1012 NOSIG;EQDQ01+000052SCOTCVQ02+000000PRSWM2
0281039620999992000010612004+52700-008920SY-MT+0020EINN V0202101N003010600019N0250001N1+00751+00551101321ADDAA106000021GA1021+006009999GA2071+060009999GF107991011081008001001021MA1101291101081MD1210321+9999MW1001REMSYN082AAXX  06121 03962 32575 72103 10075 20055 30108 40132 52032 81802 333 81820 87070;MET058EINN 061200Z 21006KT 9999 FEW020 BKN200 08/06 Q1013 NOSIG;EQDQ01+000000PRSWM2
0276039620999992000010613004+52700-008920SY-MT+0020EINN V0202201N003010600019N0250001N1+00781+00531101341ADDGA1021+006009999GA2071+060009999GF107991031081008001001081MA1101291101101MD1110171+9999MW1001REMSYN088AAXX  06131 03962 42575 72203 10078 20053 30110 40134 51017 83808 333 81820 83640 87270;MET058EINN 061300Z 22006KT 9999 FEW020 BKN200 08/05 Q1013 NOSIG;EQDQ01+000000PRSWM2
0299039620999992000010614004+52700-008920SY-MT+0020EINN V0202301N004010600019N0250001N1+00781+00511101381ADDGA1021+006009999GA2021+012009999GA3071+060009999GF108991031051008001001021MA1101291101141MD1210091+9999MW1001REMSYN088AAXX  06141 03962 42575 82304 10078 20051 30114 40138 52009 83502 333 81620 83640 87070;MET065EINN 061400Z 23007KT 9999 FEW020 SCT040 BKN200 08/05 Q1013 NOSIG;EQDQ01+000000PRSWM2
0299039620999992000010615004+52700-008920SY-MT+0020EINN V0202301N005010360019N0250001N1+00781+00461101341ADDGA1021+006009999GA2021+012009999GA3071+036009999GF108991031051008001071021MA1101291101101MD1010021+9999MW1001REMSYN088AAXX  06151 03962 42575 82305 10078 20046 30110 40134 50002 83572 333 81620 83640 86362;MET065EINN 061500Z 23009KT 9999 FEW020 SCT040 BKN120 08/05 Q1013 NOSIG;EQDQ01+000000PRSWM2
0286039620999992000010616004+52700-008920SY-MT+0020EINN V0201901N003010600019N0250001N1+00721+00471101341ADDGA1021+006009999GA2071+060009999GF199999011051008001031021MA1101291101101MD1010001+9999MW1001REMSYN082AAXX  06161 03962 42575 61903 10072 20047 30110 40134 50000 81532 333 81620 86070;MET058EINN 061600Z 19006KT 9999 FEW020 BKN200 07/05 Q1013 NOSIG;EQDQ01+000062SCOTCVQ02+000000PRSWM2
0270039620999992000010617004+52700-008920SY-MT+0020EINN V0201801N005012200019N0250001N1+00651+00471101381ADDGA1021+006009999GA2021+060009999GF104991011051008001001021MA1101291101141MD1510001+9999MW1001REMSYN082AAXX  06171 03962 42575 41805 10065 20047 30114 40138 55000 81502 333 81620 84070;MET058EINN 061700Z 18009KT 9999 FEW020 SCT200 07/05 Q1013 NOSIG;EQDQ01+000000PRSWM2
0167039620999992000010618004+52700-008920FM-15+0020EINN V0201701N005712200019N0112651N1+00701+00401999999ADDGA1021+010509999GA2021+060009999GF104991999999999999999999MA1101191999999MW1001REMMET057EINN 061800Z 17011KT 9999 SCT035 SCT200 07/04Q1012 NOSIG;EQDQ01+000000PRSWM2
0185039620999992000010619004+52700-008920FM-16+0020EINN V0201701N005110150019N0112651N1+99999+99999999999ADDGA1021+010509999GA2071+015009999GA3071+036009999GF107991999999999999999999MA1101191999999MW1001REMMET059EINN 061900Z 17010KT 9999 SCT035 BKN050 BKN120 Q1012 NOSIG;EQDQ01+000000PRSWM2
0299039620999992000010620004+52700-008920SY-MT+0020EINN V0201701N006010150019N0200001N1+00721+00391101191ADDGA1021+010209999GA2071+015009999GA3071+030009999GF107991061051012501071999MA1101081100951MD1710191+9999MW1001REMSYN088AAXX  06201 03962 42670 71706 10072 20039 30095 40119 57019 8657/ 333 83634 85650 86462;MET065EINN 062000Z 17012KT 9999 SCT034 BKN050 BKN100 07/04 Q1011 NOSIG;EQDQ01+000000PRSWM2
0145039620999992000010620304+52700-008920FM-15+0020EINN V0202001N005712200019N0112651N1+99999+99999999999ADDGA1021+010509999GF102991999999999999999999MW1001REMMET066EINN 062130Z 20011KT 9999 FEW035 BKJN050 OVC080 08/06 Q1011 NOSIG;EQDQ01+000000PRSWM2
0187039620999992000010621004+52700-008920FM-12+0020EINN V0202001N005010150019N0200001N1+00721+00491101221ADDGA1031+010509069GA2061+015009069GF108991071051012501071999MA1999999100981MD1510061+9999REMSYN088AAXX  06211 03962 42670 82005 10072 20049 30098 40122 55006 8757/ 333 83635 86650 88460;
0270039620999992000010622004+52700-008920SY-MT+0020EINN V0202001N006010105019N0200001N1+00841+00551101161ADDGA1071+010509999GA2081+024009999GF108991051051012501071999MA1101081100921MD1810091+9999MW1001REMSYN082AAXX  06221 03962 42670 82006 10084 20055 30092 40116 58009 8557/ 333 85635 88458;MET058EINN 062200Z 20012KT 9999 BKN035 OVC080 08/06 Q1011 NOSIG;EQDQ01+000000PRSWM2
0270039620999992000010623004+52700-008920SY-MT+0020EINN V0202001N006010075019N0200001N1+00881+00571101161ADDGA1071+007509999GA2071+015009999GF108991081051008001999999MA1101081100921MD1610031+9999MW1001REMSYN082AAXX  06231 03962 42570 82006 10088 20057 30092 40116 56003 885// 333 85625 87650;MET058EINN 062300Z 20012KT 9999 BKN025 BKN050 09/06 Q1011 NOSIG;EQDQ01+000000PRSWM2
0168039620999992000010623304+52700-008920FM-15+0020EINN V0202101N006710066019N0112651N1+00901+00601999999ADDGA1071+006609999GA2071+015009999GF107991999999999999999999MA1101021999999MW1001REMMET058EINN 070030Z 21013KT 9999 BKN022 BKN050 09/06 Q1010 NOSIG;EQDQ01+000000PRSWM2
0195039620999992000010700004+52700-008920FM-12+0020EINN V0202001N006010072019N0200001N1+00901+00571101081ADDAA106000091GA1051+007209069GF108991081051008001999999MA1999999100841MD1810141+9999REMSYN082AAXX  07001 03962 32570 82006 10090 20057 30084 40108 58014 885// 333 85624 87650;EQDQ01  00002PRCP06
0241039620999992000010701004+52700-008920SY-MT+0020EINN V0202101N008010066019N0200001N1+00921+00591101041ADDGA1081+006609999GF108991081051008001999999MA1101021100801MD1810121+9999MW1001REMSYN076AAXX  07011 03962 42570 82108 10092 20059 30080 40104 58012 885// 333 88622;MET051EINN 070100Z 21010KT 9999 OVC022 09/06 Q1010 NOSIG;EQDQ01+000000PRSWM2
0252039620999992000010702004+52700-008920SY-MT+0020EINN V0202201N010010054019N0250001N1+00941+00621100971ADDGA1081+005409999GF108991081061004501999999MA1100911100731MD1710191+9999MW1001OC101591REMSYN076AAXX  07021 03962 42475 82210 10094 20062 30073 40097 57019 886// 333 88718;MET054EINN 070200Z 22019G31KT 9999 OVC018 09/06 Q1009 NOSIG;EQDQ01+000000PRSWM2
0278039620999992000010703004+52700-008920SY-MT+0020EINN V0202101N008010060019N0250001N1+00951+00631100881ADDGA1071+006009999GA2081+007509999GF108991081051008001999999MA1100811100641MD1710201+9999MW1001REMSYN082AAXX  07031 03962 42575 82108 10095 20063 30064 40088 57020 885// 333 87620 88625;MET066EINN 070300Z 21016KT 190V250 9999 BKN020 OVC025 10/06 Q1008 NOSIG;EQDQ01+000000PRSWM2
0270039620999992000010704004+52700-008920SY-MT+0020EINN V0202001N008010060019N0250001N1+00971+00691100781ADDGA1071+006009999GA2071+012009999GF108991081051008001999999MA1100711100541MD1710261+9999MW1001REMSYN082AAXX  07041 03962 42575 82008 10097 20069 30054 40078 57026 885// 333 85620 87640;MET058EINN 070400Z 20015KT 9999 BKN020 BKN040 10/07 Q1007 NOSIG;EQDQ01+000000PRSWM2
0241039620999992000010705004+52700-008920SY-MT+0020EINN V0202101N009010060019N0250001N1+00991+00691100721ADDGA1081+006009999GF108991081051008001999999MA1100711100481MD1710251+9999MW1001REMSYN076AAXX  07051 03962 42575 82109 10099 20069 30048 40072 57025 885// 333 88620;MET051EINN 070500Z 21017KT 9999 OVC020 10/07 Q1007 NOSIG;EQDQ01+000000PRSWM2
0354039620999992000010706004+52700-008920SY-MT+0020EINN V0202001N008010066019N0250001N1+00971+00691100641ADDAA106000091GA1021+005109999GA2081+006609999GF108991081051004501999999GJ100549IA1099IA2999+00509KA1120N+00651MA1100611100401MD1710241+9999MW1001REMSYN100AAXX  07061 03962 32475 82008 10097 20069 30040 40064 57024 885// 333 20065 31005 55009 83717 88622;MET058EINN 070600Z 20015KT 9999 SCT017 OVC022 10/07 Q1006 NOSIG;EQDQ01+000000PRSWM2Q02  00002PRCP06
0302039620999992000010707004+52700-008920SY-MT+0020EINN V0202001N011010060019N0250001N1+00981+00711100561ADDAY161011AY221011GA1021+003609999GA2081+006009999GF108991081051004501999999MA1100511100321MD1710221+9999MW1601MW2611REMSYN088AAXX  07071 03962 41475 82011 10098 20071 30032 40056 57022 76062 885// 333 83712 88620;MET062EINN 070700Z 20022KT 9999 -RA SCT012 OVC020 10/07 Q1005 NOSIG;EQDQ01    003PRSWM1
0354039620999992000010708004+52700-008920SY-MT+0020EINN V0201901N013010060019N0200001N1+00961+00751100401ADDAY161999AY221999GA1021+003609999GA2071+006009999GA3081+015009999GF108991081051004501999999MA1100311100161MD1710321+9999MW1211OC101951REMSYN100AAXX  07081 03962 41470 81913 10096 20075 30016 40040 57032 72162 885// 333 83712 86620 88650 91120;MET068EINN 070800Z 19026G38KT 9999 SCT012 BKN020 OVC050 10/08 Q1003 NOSIG;EQDQ01+000000PRSWM2Q02    003PRSWM1
0179039620999992000010708304+52700-008920FM-15+0020EINN V0202001N008710066019N0112651N1+01001+00801999999ADDGA1021+004509999GA2071+006609999GF107991999999999999999999MA1100311999999MW1001OC101441REMMET061EINN 070930Z 20017G28KT 9999 SCT015 BKN022 10/08 Q1003 NOSIG;EQDQ01+000000PRSWM2
0193039620999992000010709004+52700-008920FM-12+0020EINN V0202001N01001004201CN0250001N1+01001+00791100391ADDAY161031AY221031GA1011+004509079GF107991071051004501999011MA1999999100151MD1610251+9999MW1011REMSYN088AAXX  07091 03962 41475 72010 10100 20079 30015 40039 56025 70162 875/1 333 81715 87622;
0299039620999992000010710004+52700-008920SY-MT+0020EINN V0202001N009010063019N0250001N1+01061+00811100351ADDGA1021+003909999GA2071+006309999GA3071+015009999GF107991071051004501999999MA1100311100111MD1710211+9999MW1001REMSYN088AAXX  07101 03962 42475 72009 10106 20081 30011 40035 57021 875// 333 83713 86621 86650;MET065EINN 071000Z 20018KT 9999 SCT013 BKN021 BKN050 11/08 Q1003 NOSIG;EQDQ01+000000PRSWM2
0302039620999992000010711004+52700-008920SY-MT+0020EINN V0202001N010010030019N0250001N1+01091+00851100291ADDAY121999AY221999GA1071+003009999GA2071+006609999GF108991081061004501999999MA1100201100051MD1710111+9999MW1511MW2601REMSYN088AAXX  07111 03962 41475 82010 10109 20085 30005 40029 57011 76022 886// 333 85710 87622;MET062EINN 071100Z 20020KT 9999 -DZ BKN010 BKN022 11/09 Q1002 NOSIG;EQDQ01    003PRSWM1
0319039620999992000010712004+52700-008920SY-MT+0020EINN V0201901N012010066019N0200001N1+01111+00871100111ADDAA106000791AY161061AY221061GA1021+003309999GA2071+006609999GF108991081051004501999999MA1100101099871MD1810281+9999MW1511MW2601REMSYN094AAXX  07121 03962 11470 81912 10111 20087 39987 40011 58028 69901 76062 885// 333 84711 87622;MET062EINN 071200Z 19024KT 9999 -DZ SCT011 BKN022 11/09 Q1001 NOSIG;EQDQ01    003PRSWM1
0195039620999992000010712304+52700-008920FM-16+0020EINN V0202001N011310033019N0112651N1+99999+99999999999ADDGA1021+002409999GA2071+003309999GA3071+006609999GF107991999999999999999999MA1100001999999MW1001MW2511REMMET063EINN 071230Z 20022KT 9999 -DZ FEW008 BKN011 BKN022 Q1000 NOSIG;EQDQ01+000003PRSWM1
0343039620999992000010713004+52700-008920SY-MT+0020EINN V0202001N011010033019N0200001N1+01091+00931099971ADDAY161999AY221999GA1021+002409999GA2071+003309999GA3081+006609999GF108991081061002501999999MA1099901099731MD1710381+9999MW1601REMSYN100AAXX  07131 03962 41370 82011 10109 20093 39973 49997 57038 76062 886// 333 81708 85711 88622 91117;MET065EINN 071300Z 20021KT 9999 FEW008 BKN011 OVC022 11/09 Q0999 NOSIG;EQDQ01+000000PRSWM2Q02    003PRSWM1
0188039620999992000010713304+52700-008920FM-15+0020EINN V0202501N007210021019N0040001N1+00901+00801999999ADDGA1071+002109999GA2071+003309999GF107991999999999999999999MA1100001999999MW1511REMMET062EINN 071430Z 25014KT 4000 -DZ BKN007 BKN011 09/08 Q1000 NOSIG;EQDQ01+000003PRSWM1Q02    003PRSWM1
0237039620999992000010714004+52700-008920FM-12+0020EINN V0202601N010010030019N0045001N1+00961+00861100021ADDAY161999AY251999GA1041+001809079GA2051+003009079GA3071+004509079GF108991081061002501999999MA1999999099781MD1510271+9999MW1511REMSYN100AAXX  07141 03962 41345 82610 10096 20086 39978 40002 55027 75165 886// 333 84706 85710 87715 91119;
0331039620999992000010715004+52700-008920SY-MT+0020EINN V0202401N007010240019N0150001N1+00871+00791100061ADDAY161031AY251031GA1021+002109999GA2021+003609999GA3081+024009999GF108991031061002501021999MA1100001099821MD1510051+9999MW1501MW2511REMSYN094AAXX  07151 03962 41365 82407 10087 20079 39982 40006 55005 75065 8362/ 333 81706 83712 88458;MET069EINN 071500Z 24013KT 9999 -DZ FEW007 SCT012 OVC080 09/08 Q1000 NOSIG;EQDQ01    003PRSWM1
0191039620999992000010715304+52700-008920FM-15+0020EINN V0202301N008210135019N0112651N1+00901+00601999999ADDGA1021+003009999GA2071+013509999GA3071+027009999GF107991999999999999999999MA1100101999999MW1001REMMET065EINN 071630Z 23016KT 9999 FEW010 BKN045 BKN090 09/06 Q1001 NOSIG;EQDQ01+000000PRSWM2
0215039620999992000010716004+52700-008920FM-12+0020EINN V0202301N01001030001CN0180001N1+00911+00561100081ADDAY151011AY221011GA1011+003309079GA2031+007509069GF107991031051004501021999MA1999999099841MD1210111+9999MW1501REMSYN094AAXX  07161 03962 41468 72310 10091 20056 39984 40008 52011 75052 8352/ 333 81711 83625 87459;
0191039620999992000010716304+52700-008920FM-15+0020EINN V0202601N009310270019N0112651N1+00901+00401999999ADDGA1021+003909999GA2021+013509999GA3071+027009999GF107991999999999999999999MA1100201999999MW1001REMMET065EINN 071730Z 26018KT 9999 SCT013 SCT045 BKN090 09/04 Q1002 NOSIG;EQDQ01+000000PRSWM2
0215039620999992000010717004+52700-008920FM-12+0020EINN V0202301N007010135019N0150001N1+00851+00541100161ADDAY151999AY221999GA1031+003609079GA2041+013509069GF107991051081004501021999MA1999999099921MD1210141+9999MW1201REMSYN094AAXX  07171 03962 41465 72307 10085 20054 39992 40016 52014 72052 8582/ 333 83712 84645 85459;
0384039620999992000010718004+52700-008920SY-MT+0020EINN V0202601N00901027001CN0180001N1+00801+00381100261ADDAA112002091AY161061AY251061GA1021+003909999GA2021+013509999GA3071+027009999GF107991051081004501021999KA1120M+01111MA1100201100021MD1210201+9999MW1021OC101491REMSYN106AAXX  07181 03962 11468 72609 10080 20038 30002 40026 52020 60022 70265 8582/ 333 10111 82713 84645 85459;MET068EINN 071800Z 26017G29KT 9999 FEW013 SCT045 BKN090 08/04 Q1002 NOSIG;EQDQ01+000000PRSWM2Q02    003PRSWM1
0299039620999992000010719004+52700-008920SY-MT+0020EINN V0202501N009010270019N0180001N1+00641+00251100361ADDGA1021+003909999GA2021+013509999GA3071+027009999GF107991041051004501021999MA1100311100121MD1210281+9999MW1001REMSYN088AAXX  07191 03962 42468 72509 10064 20025 30012 40036 52028 8452/ 333 82713 83645 86459;MET065EINN 071900Z 25018KT 9999 FEW013 SCT045 BKN090 06/03 Q1003 NOSIG;EQDQ01+000000PRSWM2
0308039620999992000010720004+52700-008920SY-MT+0020EINN V0202301N007010300019N0250001N1+00651+00321100401ADDAY181999AY221999GA1021+005709999GA2021+013509999GF105991041081004501021999MA1100311100161MD1210241+9999MW1251REMSYN088AAXX  07201 03962 41475 52307 10065 20032 30016 40040 52024 72582 8482/ 333 81819 84645;MET058EINN 072000Z 23014KT 9999 FEW019 SCT045 07/03 Q1003 NOSIG;EQDQ01+000000PRSWM2Q02    003PRSWM1
0242039620999992000010721004+52700-008920SY-MT+0020EINN V0202501N008012200019N0250001N1+00701-00061100511ADDGA1021+012609999GF103991031051012501001001MA1100511100271MD1210251+9999MW1001REMSYN076AAXX  07211 03962 42675 32508 10070 21006 30027 40051 52025 83500 333 83642;MET052EINN 072100Z 25016KT 9999 SCT042 07/M01 Q1005 NOSIG;EQDQ01+000000PRSWM2
0285039620999992000010722004+52700-008920SY-MT+0020EINN V0202501N010012200019N0250001N1+00671+00091100601ADDAY181999AY211999GA1021+006009999GF103991031081008001001001MA1100511100361MD1210241+9999MW1251REMSYN088AAXX  07221 03962 41575 32510 10067 20009 30036 40060 52024 72581 83800 333 82820 91119;MET051EINN 072200Z 25020KT 9999 FEW020 07/01 Q1005 NOSIG;EQDQ01+000000PRSWM2Q02    003PRSWM1
0295039620999992000010723004+52700-008920SY-MT+0020EINN V0202501N007012200019N0250001N1+00561+00191100671ADDAY181999AY211999GA1021+006009999GF199999011021008001001001MA1100611100431MD1210271+9999MW1251REMSYN082AAXX  07231 03962 41575 12507 10056 20019 30043 40067 52027 72581 81200 333 81820;MET051EINN 072300Z 25014KT 9999 FEW020 06/02 Q1006 NOSIG;EQDQ01+000012SCOTCVQ02+000000PRSWM2Q03    003PRSWM1
0354039620999992000010800004+52700-008920SY-MT+0020EINN V0202401N00901012001CN0250001N1+00561+00131100701ADDAA106000591AY181061AY211061GA1021+003909999GA2021+006009999GA3071+012009999GF107991071081004501999999MA1100611100461MD1210191+9999MW1801REMSYN100AAXX  08001 03962 11475 72409 10056 20013 30046 40070 52019 69941 78081 878// 333 82713 84820 85640;MET065EINN 080000Z 24018KT 9999 FEW013 SCT020 BKN040 06/01 Q1006 NOSIG;EQDQ01+000000PRSWM2Q02    003PRSWM1
0298039620999992000010801004+52700-008920SY-MT+0020EINN V0202401N006012200019N0250001N1+00591+00171100751ADDAY181999AY211999GA1021+003909999GA2021+012009999GF103991031081004501001001MA1100711100511MD1210151+9999MW1801REMSYN088AAXX  08011 03962 41475 32406 10059 20017 30051 40075 52015 78081 83800 333 81713 83640;MET064EINN 080100Z 24012KT 9999 -SHRA FEW013 SCT040 06/02 Q1007 NOSIG;EQDQ01    003PRSWM1
0308039620999992000010802004+52700-008920SY-MT+0020EINN V0202401N007012200019N0250001N1+00581+00211100761ADDAY181999AY211999GA1021+003909999GA2021+012009999GF103991031081004501001001MA1100711100521MD1210091+9999MW1251REMSYN088AAXX  08021 03962 41475 32407 10058 20021 30052 40076 52009 72581 83800 333 81713 83640;MET058EINN 080200Z 24014KT 9999 FEW013 SCT040 06/02 Q1007 NOSIG;EQDQ01+000000PRSWM2Q02    003PRSWM1
0327039620999992000010803004+52700-008920SY-MT+0020EINN V0202401N007010150019N0200001N1+00601+00121100821ADDAY181031AY221031GA1021+003909999GA2021+006609999GA3071+015009999GF107991071051004501999999MA1100811100581MD1210121+9999MW1801REMSYN094AAXX  08031 03962 41470 72407 10060 20012 30058 40082 52012 78082 875// 333 81713 83822 86650;MET071EINN 080300Z 24013KT 9999 -SHRA FEW013 SCT022 BKN050 06/01 Q1008 NOSIG;EQDQ01    003PRSWM1
0308039620999992000010804004+52700-008920SY-MT+0020EINN V0202301N008012200019N0200001N1+00601+00151100831ADDAY181999AY211999GA1021+006609999GA2021+015009999GF103991031081008001001001MA1100811100591MD1210081+9999MW1251REMSYN088AAXX  08041 03962 41570 32308 10060 20015 30059 40083 52008 72581 83800 333 81822 83650;MET058EINN 080400Z 23015KT 9999 FEW022 SCT050 06/02 Q1008 NOSIG;EQDQ01+000000PRSWM2Q02    003PRSWM1
0145039620999992000010805004+52700-008920FM-15+0020EINN V0202401N007212200019N0112651N1+00601+00101999999ADDGA1021+006009999GF102991999999999999999999MA1100911999999MW1001REMMET051EINN 080500Z 24014KT 9999 FEW020 06/01 Q1009 NOSIG;EQDQ01+000000PRSWM2
0369039620999992000010806004+52700-008920SY-MT+0020EINN V0202401N006012200019N0250001N1+00581+00211100971ADDAA112000591AY181061AY211061GA1021+006009999GF199999011081008001001001GJ100009IA1099IA2999+00209KA1120N+00491MA1100911100731MD1210151+9999MW1251REMSYN106AAXX  08061 03962 11575 12406 10058 20021 30073 40097 52015 69942 72581 81800 333 20049 31002 55000 81820;MET051EINN 080600Z 24012KT 9999 FEW020 06/02 Q1009 NOSIG;EQDQ01+000012SCOTCVQ02+000000PRSWM2Q03    003PRSWM1
0279039620999992000010807004+52700-008920SY-MT+0020EINN V0202501N008012200019N0250001N1+00541+00191101051ADDAY181999AY211999GA1021+006009999GF102991021081008001001001MA1101021100811MD1210221+9999MW1251REMSYN082AAXX  08071 03962 41575 22508 10054 20019 30081 40105 52022 72581 82800 333 81820;MET051EINN 080700Z 25016KT 9999 FEW020 05/02 Q1010 NOSIG;EQDQ01+000000PRSWM2Q02    003PRSWM1
0297039620999992000010808004+52700-008920SY-MT+0020EINN V0202401N006012200019N0200001N1+00541+00191101101ADDAY181999AY211999GA1021+006009099GF199999011091008001001001MA1101081100861MD1210191+9999MW1251REMSYN082AAXX  08081 03962 41570 12406 10054 20019 30086 40110 52019 72581 81900 333 81920;MET053EINN 080800Z 24012KT 9999 FEW020CB 05/02 Q1011 NOSIG;EQDQ01+000012SCOTCVQ02+000000PRSWM2Q03    003PRSWM1
0223039620999992000010808304+52700-008920FM-15+0020EINN V0202401N008710060019N0080001N1+00501+00101999999ADDGA1021+003609999GA2071+006009099GA3071+010509999GF107991999999999999999999MA1101081999999MW1801REMMET081EINN 080830Z 24017KT 210V280 8000 -SHRA FEW012 BKN020CB BKN035 05/01 Q1011 NOSIG;EQDQ01+000003PRSWM1Q02    003PRSWM1
0339039620999992000010809004+52700-008920SY-MT+0020EINN V0202501N005012200019N0200001N1+00501+00201101211ADDAY181031AY211031GA1021+003609999GA2021+006009099GA3021+009009999GF104991041091004501001001MA1101191100971MD1210241+9999MW1251REMSYN094AAXX  08091 03962 41470 42505 10050 20020 30097 40121 52024 72581 84900 333 81712 81920 83630;MET067EINN 080900Z 25010KT 9999 FEW012 FEW020CB SCT030 05/02 Q1012 NOSIG;EQDQ01+000000PRSWM2Q02    003PRSWM1
0319039620999992000010810004+52700-008920SY-MT+0020EINN V0202501N008010060019N0150001N1+00491+00161101301ADDAY181999AY211999GA1021+003609999GA2071+006009099GF107991071091004501999999MA1101291101061MD1210251+9999MW1801OC101391REMSYN088AAXX  08101 03962 41465 72508 10049 20016 30106 40130 52025 78081 879// 333 81712 86920;MET077EINN 081000Z 25016G27KT 210V280 9999 -SHRA FEW012 BKN020CB 05/02 Q1013 NOSIG;EQDQ01    003PRSWM1
0310039620999992000010811004+52700-008920SY-MT+0020EINN V0202501N006012200019N0200001N1+00531+00181101371ADDAY181999AY211999GA1021+003609999GA2021+005409099GF104991041091004501001001MA1101291101131MD1210271+9999MW1251REMSYN088AAXX  08111 03962 41470 42506 10053 20018 30113 40137 52027 72581 84900 333 81712 84918;MET060EINN 081100Z 25012KT 9999 FEW012 SCT018CB 05/02 Q1013 NOSIG;EQDQ01+000000PRSWM2Q02    003PRSWM1
0343039620999992000010812004+52700-008920SY-MT+0020EINN V0202701N006010054019N0250001N1+00541+00161101411ADDAA106000891AY181061AY211061GA1021+003609999GA2071+005409099GF199999051091004501001001MA1101391101171MD1210201+9999MW1251REMSYN094AAXX  08121 03962 11475 52706 10054 20016 30117 40141 52020 69981 72581 85900 333 81712 85918;MET060EINN 081200Z 27011KT 9999 FEW012 BKN018CB 05/02 Q1014 NOSIG;EQDQ01+000052SCOTCVQ02+000000PRSWM2Q03    003PRSWM1
0272039620999992000010813004+52700-008920SY-MT+0020EINN V0202501N00401004201CN0150001N1+00761+00231101441ADDGA1021+005409099GF105991051091004501001001MA1101391101201MD1210141+9999MW1161REMSYN076AAXX  08131 03962 42465 52504 10076 20023 30120 40144 52014 85900 333 84918;MET066EINN 081300Z 25008KT 210V280 9999 VCSH SCT018CB 08/02 Q1014 NOSIG;EQDQ01+000003PRSWM1Q02    003PRSWM1
0281039620999992000010814004+52700-008920SY-MT+0020EINN V0202501N005012200019N0250001N1+00521+00201101481ADDAY181999AY221999GA1021+005409099GF103991031091004501001001MA1101391101241MD1210111+9999MW1251REMSYN082AAXX  08141 03962 41475 32505 10052 20020 30124 40148 52011 72582 83900 333 82918;MET053EINN 081400Z 25009KT 9999 FEW018CB 05/02 Q1014 NOSIG;EQDQ01+000000PRSWM2Q02    003PRSWM1
0281039620999992000010815004+52700-008920SY-MT+0020EINN V0202701N005012200019N0250001N1+00601+00231101541ADDAY181031AY211031GA1021+005409099GF102991021091004501001001MA1101491101301MD1210131+9999MW1011REMSYN082AAXX  08151 03962 41475 22705 10060 20023 30130 40154 52013 70181 82900 333 81918;MET053EINN 081500Z 27009KT 9999 FEW018CB 06/02 Q1015 NOSIG;EQDQ01+000000PRSWM2Q02    003PRSWM1
0281039620999992000010816004+52700-008920SY-MT+0020EINN V0202501N004012200019N0250001N1+00421+00191101621ADDAY181999AY211999GA1021+005409099GF102991021091004501001001MA1101591101381MD1210181+9999MW1251REMSYN082AAXX  08161 03962 41475 22504 10042 20019 30138 40162 52018 72581 82900 333 81918;MET053EINN 081600Z 25007KT 9999 FEW018CB 04/02 Q1016 NOSIG;EQDQ01+000000PRSWM2Q02    003PRSWM1
0297039620999992000010817004+52700-008920SY-MT+0020EINN V0202501N005012200019N0250001N1+00391+00161101741ADDAY181999AY211999GA1021+005109099GF199999011091004501001021MA1101691101501MD1210261+9999MW1251REMSYN082AAXX  08171 03962 41475 12505 10039 20016 30150 40174 52026 72581 81902 333 81917;MET053EINN 081700Z 25010KT 9999 FEW017CB 04/02 Q1017 NOSIG;EQDQ01+000012SCOTCVQ02+000000PRSWM2Q03    003PRSWM1
0325039620999992000010818004+52700-008920SY-MT+0020EINN V0202901N003012200019N0250001N1+00431+00171101831ADDAA112001091AY181061AY211061GA1021+005109099GF102991021091004501001001KA1120M+00781MA1101801101591MD1210291+9999MW1251REMSYN094AAXX  08181 03962 11475 22903 10043 20017 30159 40183 52029 60012 72581 82900 333 10078 82917;MET061EINN 081800Z 29006KT 270V330 9999 SCT017CB 04/02 Q1018 NOSIG;EQDQ01+000000PRSWM2Q02    003PRSWM1
0289039620999992000010819004+52700-008920SY-MT+0020EINN V0202601N003012200019N0250001N1+00311+00101101881ADDAY181999AY211999GA1021+005109099GF103991031091004501001001MA1101801101641MD1210261+9999MW1251REMSYN082AAXX  08191 03962 41475 32603 10031 20010 30164 40188 52026 72581 83900 333 83917;MET061EINN 081900Z 26006KT 200V290 9999 SCT017CB 03/01 Q1018 NOSIG;EQDQ01+000000PRSWM2Q02    003PRSWM1
0308039620999992000010820004+52700-008920SY-MT+0020EINN V0202501N006010048019N0120001N1+00401+00141101991ADDAY181999AY211999GA1071+004809099GA2071+006609999GF107991071031004501999999MA1101901101751MD1210251+9999MW1801REMSYN088AAXX  08201 03962 41462 72506 10040 20014 30175 40199 52025 78081 873// 333 85916 86622;MET074EINN 082000Z 25011KT 210V290 9999 -SHRA BKN016CB BKN022 04/01 Q1019 NOSIG;EQDQ01    003PRSWM1
0297039620999992000010821004+52700-008920SY-MT+0020EINN V0202501N003012200019N0250001N1+00401+00141101991ADDAY181031AY211031GA1021+004809099GF199999011031004501001001MA1101901101751MD1110161+9999MW1251REMSYN082AAXX  08211 03962 41475 12503 10040 20014 30175 40199 51016 72581 81300 333 81916;MET053EINN 082100Z 25005KT 9999 FEW016CB 04/01 Q1019 NOSIG;EQDQ01+000012SCOTCVQ02+000000PRSWM2Q03    003PRSWM1
0281039620999992000010822004+52700-008920SY-MT+0020EINN V0202501N004012200019N0250001N1+00361+00211102051ADDAY181999AY211999GA1021+005109099GF103991031031004501001001MA1102001101811MD1210171+9999MW1251REMSYN082AAXX  08221 03962 41475 32504 10036 20021 30181 40205 52017 72581 83300 333 82917;MET053EINN 082200Z 24006KT 9999 FEW017CB 04/02 Q1020 NOSIG;EQDQ01+000000PRSWM2Q02    003PRSWM1
0243039620999992000010823004+52700-008920SY-MT+0020EINN V0202501N003012200019N0250001N1+00421+00221102071ADDGA1021+005109099GF102991021031004501001001MA1102001101831MD1310081+9999MW1001REMSYN076AAXX  08231 03962 42475 22503 10042 20022 30183 40207 53008 82300 333 82917;MET053EINN 082300Z 25006KT 9999 FEW017CB 04/02 Q1020 NOSIG;EQDQ01+000000PRSWM2
0317039620999992000010900004+52700-008920SY-MT+0020EINN V0202601N004012200019N0250001N1+00401+00201102131ADDAA106002091AY181061AY211061GA1021+002709999GA2021+005709099GF103991031031002501001001MA1102101101891MD1210141+9999MW1801REMSYN094AAXX  09001 03962 11375 32604 10040 20020 30189 40213 52014 60021 78081 83300 333 81709 83919;MET066EINN 090000Z 26007KT 9999 -SHRA FEW009 SCT019CB 04/02 Q1021 NOSIG;EQDQ01    003PRSWM1
0281039620999992000010901004+52700-008920SY-MT+0020EINN V0202601N004012200019N0250001N1+00391+00191102191ADDAY181999AY201999GA1021+005409099GF102991021031004501001001MA1102101101951MD1210141+9999MW1251REMSYN082AAXX  09011 03962 41475 22604 10039 20019 30195 40219 52014 72580 82300 333 82918;MET053EINN 090100Z 26008KT 9999 FEW018CB 04/02 Q1021 NOSIG;EQDQ01+000000PRSWM2Q02    003PRSWM1
0169039620999992000010901304+52700-008920FM-15+0020EINN V0202901N005112200019N0112651N1+00401+00201999999ADDGA1021+003009999GA2021+005409099GF104991999999999999999999MA1102201999999MW1001REMMET059EINN 090130Z 29010KT 9999 FEW010 SCT018CB04/02 Q1022 NOSIG;EQDQ01+000000PRSWM2
0310039620999992000010902004+52700-008920SY-MT+0020EINN V0203001N003012200019N0250001N1+00411+00181102271ADDAY181999AY201999GA1021+003009999GA2021+005409099GF103991031031004501001001MA1102201102031MD1210201+9999MW1251REMSYN088AAXX  09021 03962 41475 33003 10041 20018 30203 40227 52020 72580 83300 333 81710 83918;MET060EINN 090200Z 30006KT 9999 FEW010 SCT018CB 04/02 Q1022 NOSIG;EQDQ01+000000PRSWM2Q02    003PRSWM1
0281039620999992000010903004+52700-008920SY-MT+0020EINN V0202601N003012200019N0250001N1+00401+00121102321ADDAY181031AY201031GA1021+005409099GF102991021031004501001001MA1102301102081MD1210191+9999MW1011REMSYN082AAXX  09031 03962 41475 22603 10040 20012 30208 40232 52019 70180 82300 333 82918;MET053EINN 090300Z 26006KT 9999 FEW018CB 04/01 Q1023 NOSIG;EQDQ01+000000PRSWM2Q02    003PRSWM1
0281039620999992000010904004+52700-008920SY-MT+0020EINN V0202301N001012200019N0250001N1+00241+00191102421ADDAY181999AY201999GA1021+005409099GF102991021031004501001001MA1102401102181MD1210231+9999MW1251REMSYN082AAXX  09041 03962 41475 22301 10024 20019 30218 40242 52023 72580 82300 333 82918;MET053EINN 090400Z 23001KT 9999 FEW018CB 02/02 Q1024 NOSIG;EQDQ01+000000PRSWM2Q02    003PRSWM1
0310039620999992000010905004+52700-008920SY-MT+0020EINN V0203501N001012200019N0250001N1+00261+00161102451ADDAY181999AY211999GA1021+003009999GA2021+005409099GF102991021031004501001001MA1102401102211MD1210181+9999MW1251REMSYN088AAXX  09051 03962 41475 23501 10026 20016 30221 40245 52018 72581 82300 333 81710 82918;MET060EINN 090500Z 35002KT 9999 FEW010 FEW018CB 03/02 Q1024 NOSIG;EQDQ01+000000PRSWM2Q02    003PRSWM1
0243039620999992000010907004+52700-008920SY-MT+0020EINN V0202101N002012200019N0250001N1+00271+00221102571ADDGA1021+005409099GF102991021031004501001001MA1102511102331MD1210151+9999MW1001REMSYN076AAXX  09071 03962 42475 22102 10027 20022 30233 40257 52015 82300 333 81918;MET053EINN 090700Z 21003KT 9999 FEW018CB 03/02 Q1025 NOSIG;EQDQ01+000000PRSWM2
0329039620999992000010908004+52700-008920SY-MT+0020EINN V0209999C000010135019N0200001N1+00351+00271102691ADDAY181999AY211999GA1021+002409999GA2021+005409099GA3071+013509999GF107991071031002501999999MA1102611102451MD1210241+9999MW1801REMSYN094AAXX  09081 03962 41370 70000 10035 20027 30245 40269 52024 78081 873// 333 81708 83918 85645;MET073EINN 090800Z 00000KT 9999 -SHRA FEW008 SCT018CB BKN045 04/03 Q1026 NOSIG;EQDQ01    003PRSWM1
0297039620999992000010909004+52700-008920SY-MT+0020EINN V0201801N003012200019N0300001N1+00241+00161102751ADDAY181031AY211031GA1021+005409099GF199999011091004501001001MA1102711102501MD1210221+9999MW1251REMSYN082AAXX  09091 03962 41480 11803 10024 20016 30250 40275 52022 72581 81900 333 81918;MET053EINN 090900Z 18005KT 9999 FEW018CB 02/02 Q1027 NOSIG;EQDQ01+000012SCOTCVQ02+000000PRSWM2Q03    003PRSWM1
0297039620999992000010910004+52700-008920SY-MT+0020EINN V0202101N003012200019N0400001N1+00301+00201102791ADDAY181999AY211999GA1021+005409099GF199999011091004501001001MA1102711102541MD1210211+9999MW1251REMSYN082AAXX  09101 03962 41482 12103 10030 20020 30254 40279 52021 72581 81900 333 81918;MET053EINN 091000Z 21005KT 9999 FEW018CB 03/02 Q1027 NOSIG;EQDQ01+000012SCOTCVQ02+000000PRSWM2Q03    003PRSWM1
0265039620999992000010911004+52700-008920SY-MT+0020EINN V0201901N002012200019N0400001N1+00451+00301102841ADDGA1021+005409999GF199999011021004501001001MA1102811102591MD1210141+9999MW1001REMSYN076AAXX  09111 03962 42482 11902 10045 20030 30259 40284 52014 81200 333 81818;MET059EINN 091100Z 19003KT 160V220 9999 FEW018 05/03 Q1028 NOSIG;EQDQ01+000012SCOTCVQ02+000000PRSWM2
0304039620999992000010912004+52700-008920SY-MT+0020EINN V0202301N002012200019N0350001N1+00651+00441102861ADDAA106000891AY181061AY211061GA1021+005409999GF102991021081004501001001MA1102811102611MD1210111+9999MW1031REMSYN088AAXX  09121 03962 11481 22302 10065 20044 30261 40286 52011 69981 70381 82800 333 81818;MET059EINN 091200Z 23004KT 160V260 9999 FEW018 07/04 Q1028 NOSIG;EQDQ01+000000PRSWM2Q02    003PRSWM1
0270039620999992000010913004+52700-008920SY-MT+0020EINN V0202401N00401220001CN0300001N1+00781+00511102861ADDGA1021+005409999GA2021+075009999GF105991021021004501001011MA1102811102621MD1110081+9999MW1001REMSYN082AAXX  09131 03962 42480 52404 10078 20051 30262 40286 51008 82201 333 82818 84075;MET058EINN 091300Z 24007KT 9999 FEW018 SCT250 08/05 Q1028 NOSIG;EQDQ01+000000PRSWM2
0286039620999992000010914004+52700-008920SY-MT+0020EINN V0202301N004010600019N0350001N1+00751+00481102851ADDGA1021+006009999GA2071+060009999GF199999011081008001031021MA1102811102611MD1010021+9999MW1001REMSYN082AAXX  09141 03962 42581 62304 10075 20048 30261 40285 50002 81832 333 81820 85070;MET058EINN 091400Z 23008KT 9999 FEW020 BKN200 08/05 Q1028 NOSIG;EQDQ01+000062SCOTCVQ02+000000PRSWM2
0241039620999992000010915004+52700-008920SY-MT+0020EINN V0202301N003012200019N0350001N1+00801+00431102901ADDGA1021+006009999GF103991011081008001001021MA1102911102661MD1310051+9999MW1001REMSYN076AAXX  09151 03962 42581 32303 10080 20043 30266 40290 53005 81802 333 81820;MET051EINN 091500Z 23006KT 9999 FEW020 08/04 Q1029 NOSIG;EQDQ01+000000PRSWM2
0241039620999992000010916004+52700-008920SY-MT+0020EINN V0201901N002012200019N0300001N1+00591+00401102911ADDGA1021+006009999GF103991021081008001001021MA1102911102661MD1310041+9999MW1001REMSYN076AAXX  09161 03962 42580 31902 10059 20040 30266 40291 53004 82802 333 82820;MET051EINN 091600Z 19004KT 9999 FEW020 06/04 Q1029 NOSIG;EQDQ01+000000PRSWM2
0270039620999992000010917004+52700-008920SY-MT+0020EINN V0201901N004012200019N0300001N1+00551+00381102921ADDGA1021+006009999GA2021+060009999GF104991021081008001001021MA1102911102671MD1110061+9999MW1001REMSYN082AAXX  09171 03962 42580 41904 10055 20038 30267 40292 51006 82802 333 81820 83070;MET058EINN 091700Z 19007KT 9999 FEW020 SCT200 06/04 Q1029 NOSIG;EQDQ01+000000PRSWM2
0277039620999992000010918004+52700-008920SY-MT+0020EINN V0201901N003012200019N0300001N1+00491+00341102951ADDAA112000891GA1021+007509999GF103991031051008001001021KA1120M+00801MA1102911102701MD1310041+9999MW1001REMSYN088AAXX  09181 03962 12580 31903 10049 20034 30270 40295 53004 69982 83502 333 10080 82625;MET051EINN 091800Z 19006KT 9999 FEW025 05/03 Q1029 NOSIG;EQDQ01+000000PRSWM2
0241039620999992000010919004+52700-008920SY-MT+0020EINN V0201801N004012200019N0300001N1+00451+00331102941ADDGA1021+007509999GF102991021051008001001021MA1102911102691MD1010031+9999MW1001REMSYN076AAXX  09191 03962 42580 21804 10045 20033 30269 40294 50003 82502 333 82625;MET051EINN 091900Z 18008KT 9999 FEW025 05/03 Q1029 NOSIG;EQDQ01+000000PRSWM2
0241039620999992000010920004+52700-008920SY-MT+0020EINN V0201701N004012200019N0300001N1+00471+00301102931ADDGA1021+007509999GF102991021051008001001001MA1102911102681MD1010011+9999MW1001REMSYN076AAXX  09201 03962 42580 21704 10047 20030 30268 40293 50001 82500 333 82625;MET051EINN 092000Z 17007KT 9999 FEW025 05/03 Q1029 NOSIG;EQDQ01+000000PRSWM2
0241039620999992000010921004+52700-008920SY-MT+0020EINN V0201601N003012200019N0300001N1+00421+00271102931ADDGA1021+007509999GF102991021051008001001001MA1102911102681MD1610021+9999MW1001REMSYN076AAXX  09211 03962 42580 21603 10042 20027 30268 40293 56002 82500 333 82625;MET051EINN 092100Z 16006KT 9999 FEW025 04/03 Q1029 NOSIG;EQDQ01+000000PRSWM2
0286039620999992000010922004+52700-008920SY-MT+0020EINN V0201801N005010135019N0300001N1+00491+00321102891ADDGA1021+007509999GA2071+013509999GF199999061051008001999999MA1102811102641MD1810051+9999MW1001REMSYN082AAXX  09221 03962 42580 61805 10049 20032 30264 40289 58005 865// 333 81625 86645;MET058EINN 092200Z 18009KT 9999 FEW025 BKN045 05/03 Q1028 NOSIG;EQDQ01+000062SCOTCVQ02+000000PRSWM2
0241039620999992000010923004+52700-008920SY-MT+0020EINN V0201701N005012200019N0300001N1+00511+00321102841ADDGA1021+009009999GF102991021051012501001001MA1102811102591MD1810091+9999MW1001REMSYN076AAXX  09231 03962 42680 21705 10051 20032 30259 40284 58009 82500 333 81630;MET051EINN 092300Z 17010KT 9999 FEW030 05/03 Q1028 NOSIG;EQDQ01+000000PRSWM2
0274039620999992000011000004+52700-008920SY-MT+0020EINN V0201601N006012200019N0300001N1+00541+00371102751ADDAA106000791GA1021+010509999GF199999011051012501001001MA1102711102501MD1710181+9999MW1001REMSYN082AAXX  10001 03962 12680 11606 10054 20037 30250 40275 57018 69901 81500 333 81635;MET051EINN 100000Z 16012KT 9999 FEW035 05/04 Q1027 NOSIG;EQDQ01+000012SCOTCVQ02+000000PRSWM2
0241039620999992000011001004+52700-008920SY-MT+0020EINN V0201601N005012200019N0300001N1+00531+00391102671ADDGA1021+012009999GF102991021051012501001001MA1102611102431MD1710211+9999MW1001REMSYN076AAXX  10011 03962 42680 21605 10053 20039 30243 40267 57021 82500 333 82640;MET051EINN 100100Z 16010KT 9999 FEW040 05/04 Q1026 NOSIG;EQDQ01+000000PRSWM2
0241039620999992000011002004+52700-008920SY-MT+0020EINN V0201701N007012200019N0300001N1+00601+00441102631ADDGA1021+012009999GF103991031051012501001001MA1102611102391MD1710201+9999MW1001REMSYN076AAXX  10021 03962 42680 31707 10060 20044 30239 40263 57020 83500 333 83640;MET051EINN 100200Z 17014KT 9999 SCT040 06/04 Q1026 NOSIG;EQDQ01+000000PRSWM2
0286039620999992000011003004+52700-008920SY-MT+0020EINN V0201701N007010240019N0300001N1+00661+00481102601ADDGA1021+012009999GA2071+024009999GF199999031051012501071999MA1102611102361MD1710141+9999MW1001REMSYN082AAXX  10031 03962 42680 61707 10066 20048 30236 40260 57014 8357/ 333 83640 85458;MET058EINN 100300Z 17013KT 9999 SCT040 BKN080 07/05 Q1026 NOSIG;EQDQ01+000062SCOTCVQ02+000000PRSWM2
0331039620999992000011004004+52700-008920SY-MT+0020EINN V0201601N006010120019N0150001N1+00661+00501102571ADDAY161999AY221999GA1021+003609999GA2071+012009999GA3071+024009999GF108991061051004501071999MA1102511102331MD1610101+9999MW1601MW2611REMSYN094AAXX  10041 03962 41465 81606 10066 20050 30233 40257 56010 76062 8657/ 333 83712 85640 87458;MET069EINN 100400Z 16011KT 9999 -RA SCT012 BKN040 BKN080 07/05 Q1025 NOSIG;EQDQ01    003PRSWM1
0337039620999992000011005004+52700-008920SY-MT+0020EINN V0201801N006010099019N0300001N1+00771+00551102491ADDAY161999AY221999GA1021+004509999GA2071+009909999GA3081+024009999GF108991061051004501071999MA1102401102251MD1810141+9999MW1211REMSYN094AAXX  10051 03962 41480 81806 10077 20055 30225 40249 58014 72162 8657/ 333 81715 86633 88458;MET065EINN 100500Z 18011KT 9999 FEW015 BKN033 OVC080 08/06 Q1024 NOSIG;EQDQ01+000000PRSWM2Q02    003PRSWM1
0411039620999992000011006004+52700-008920SY-MT+0020EINN V0201901N006010087019N0300001N1+00801+00581102481ADDAA112000791AY161061AY221061GA1021+004509999GA2071+008709999GA3081+024009999GF108991071051004501071999GJ103189IA1099IA2999+00009KA1120N+00391MA1102401102241MD1710121+9999MW1021REMSYN118AAXX  10061 03962 11480 81906 10080 20058 30224 40248 57012 69902 70262 8757/ 333 20039 31000 55053 83715 87629 88458;MET065EINN 100600Z 19012KT 9999 SCT015 BKN029 OVC080 08/06 Q1024 NOSIG;EQDQ01+000000PRSWM2Q02    003PRSWM1
0299039620999992000011007004+52700-008920SY-MT+0020EINN V0201701N005010060019N0300001N1+00821+00601102461ADDGA1021+004509999GA2071+006009999GA3081+009009999GF108991081051004501999999MA1102401102221MD1710111+9999MW1001REMSYN088AAXX  10071 03962 42480 81705 10082 20060 30222 40246 57011 885// 333 82715 85620 88630;MET065EINN 100700Z 17009KT 9999 FEW015 BKN020 OVC030 08/06 Q1024 NOSIG;EQDQ01+000000PRSWM2
0299039620999992000011008004+52700-008920SY-MT+0020EINN V0202001N00601010501CN0300001N1+00871+00611102441ADDGA1021+004509999GA2021+006009999GA3071+010509999GF107991071051004501999999MA1102401102201MD1610051+9999MW1001REMSYN088AAXX  10081 03962 42480 72006 10087 20061 30220 40244 56005 875// 333 82715 83620 87635;MET065EINN 100800Z 20012KT 9999 FEW015 SCT020 BKN035 09/06 Q1024 NOSIG;EQDQ01+000000PRSWM2
0299039620999992000011009004+52700-008920SY-MT+0020EINN V0202001N00601009601CN0250001N1+00901+00691102451ADDGA1021+004509999GA2021+006909999GA3081+009609999GF108991081051004501999999MA1102401102211MD1510031+9999MW1001REMSYN088AAXX  10091 03962 42475 82006 10090 20069 30221 40245 55003 885// 333 82715 83623 88632;MET065EINN 100900Z 20014KT 9999 FEW015 SCT023 OVC032 09/07 Q1024 NOSIG;EQDQ01+000000PRSWM2
0343039620999992000011010004+52700-008920SY-MT+0020EINN V0202101N00701007501CN0060001N1+00901+00771102451ADDAY161999AY251999GA1021+002409999GA2021+004509999GA3071+007509999GF108991081061002501999999MA1102401102211MD1510011+9999MW1501MW2511REMSYN094AAXX  10101 03962 41356 82107 10090 20077 30221 40245 55001 75065 886// 333 82708 83715 87625;MET081EINN 101000Z 21013KT 6000 -DZ FEW008 SCT015 BKN025 09/08 Q1024 TEMPO 5000 BKN007;EQDQ01    003PRSWM1
0345039620999992000011011004+52700-008920SY-MT+0020EINN V0202001N00701006001CN0060001N1+00891+00831102471ADDAY161999AY251999GA1021+002109999GA2021+003909999GA3071+006009999GF108991081061002501999999MA1102401102231MD1210031+9999MW1581MW2611REMSYN094AAXX  10111 03962 41356 82007 10089 20083 30223 40247 52003 75865 886// 333 82707 84713 87620;MET083EINN 101100Z 20013KT 6000 -RADZ FEW007 SCT013 BKN020 09/08 Q1024 TEMPO 5000 BKN007;EQDQ01    003PRSWM1
0357039620999992000011012004+52700-008920SY-MT+0020EINN V0202101N007010036019N0045001N1+00911+00831102451ADDAA106000391AY161061AY251061GA1021+002109999GA2071+003609999GA3071+005709999GF108991081061002501999999MA1102401102211MD1010001+9999MW1581MW2611REMSYN100AAXX  10121 03962 11345 82107 10091 20083 30221 40245 50000 69931 75865 886// 333 83707 85712 87719;MET078EINN 101200Z 21013KT 4500 -RADZ SCT007 BKN012 BKN019 09/08 Q1024 TEMPO BKN006;EQDQ01    003PRSWM1
0346039620999992000011013004+52700-008920SY-MT+0020EINN V0202101N006010030019N0035001N1+00921+00901102401ADDAY161999AY251999GA1021+002109999GA2071+003009999GA3071+004209999GF108991081061002501999999MA1102401102161MD1810051+9999MW1511MW2581MW3611REMSYN094AAXX  10131 03962 41335 82106 10092 20090 30216 40240 58005 75865 886// 333 83707 85710 87714;MET078EINN 101300Z 21012KT 3500 -RADZ SCT007 BKN010 BKN014 09/09 Q1024 TEMPO BKN006;EQDQ01    003PRSWM1
0200039620999992000011013304+52700-008920FM-15+0020EINN V0202101N004610033019N0070001N1+01001+00901999999ADDGA1021+002109999GA2071+003309999GF107991999999999999999999MA1102301999999MW1511REMMET074EINN 101430Z 21009KT 7000 -DZ SCT007 BKN011 10/09 Q1023 TEMPO 4000 BKN006;EQDQ01+000003PRSWM1Q02    003PRSWM1
0193039620999992000011014004+52700-008920FM-12+0020EINN V0202101N006010021019N0040001N1+00941+00921102361ADDAY161999AY251999GA1061+002109079GF108991081061002501999999MA1999999102121MD1710111+9999MW1581REMSYN088AAXX  10141 03962 41340 82106 10094 20092 30212 40236 57011 75865 886// 333 86707 87711;
0316039620999992000011015004+52700-008920SY-MT+0020EINN V0202101N004010036019N0050001N1+00971+00911102371ADDAY161031AY251031GA1021+002409999GA2071+003609999GF108991081061002501999999MA1102301102131MD1610081+9999MW1511REMSYN088AAXX  10151 03962 41350 82104 10097 20091 30213 40237 56008 75165 886// 333 83708 87712;MET082EINN 101500Z 21007KT 190V250 5000 -DZ SCT008 BKN012 10/09 Q1023 TEMPO 3000 BKN006;EQDQ01    003PRSWM1
0338039620999992000011016004+52700-008920SY-MT+0020EINN V0202501N002010039019N0060001N1+00901+00841102431ADDAY151999AY251999GA1021+002109999GA2071+003909999GA3081+007509999GF108991081061002501999999MA1102401102191MD1310031+9999MW1531REMSYN100AAXX  10161 03962 41356 82502 10090 20084 30219 40243 53003 75355 886// 333 82707 86713 88625 98770;MET076EINN 101600Z 25004KT 220V320 6000 DZ FEW007 BKN013 OVC025 09/08 Q1024 NOSIG;EQDQ01    003PRSWM1
0337039620999992000011017004+52700-008920SY-MT+0020EINN V0202301N003010075019N0180001N1+00841+00781102491ADDAY151999AY221999GA1021+004209999GA2071+007509999GA3071+018009999GF107991071061004501999999MA1102401102251MD1310131+9999MW1201REMSYN094AAXX  10171 03962 41468 72303 10084 20078 30225 40249 53013 72052 876// 333 84714 86625 87656;MET065EINN 101700Z 23006KT 9999 SCT014 BKN025 BKN060 08/08 Q1024 NOSIG;EQDQ01+000000PRSWM2Q02    003PRSWM1
0373039620999992000011018004+52700-008920SY-MT+0020EINN V0202401N00201006601CN0200001N1+00801+00761102551ADDAA112003091AY161061AY251061GA1021+003009999GA2021+004209999GA3071+006609999GF107991071061004501999999KA1120M+00991MA1102511102311MD1210181+9999MW1011REMSYN106AAXX  10181 03962 11470 72402 10080 20076 30231 40255 52018 60032 70165 876// 333 10099 81710 84714 86622;MET065EINN 101800Z 24004KT 9999 FEW010 SCT014 BKN022 08/07 Q1025 NOSIG;EQDQ01+000000PRSWM2Q02    003PRSWM1
0270039620999992000011019004+52700-008920SY-MT+0020EINN V0201901N002010060019N0200001N1+00691+00621102591ADDGA1021+003909999GA2071+006009999GF106991061051004501999999MA1102511102351MD1210161+9999MW1001REMSYN082AAXX  10191 03962 42470 61902 10069 20062 30235 40259 52016 865// 333 81713 86620;MET058EINN 101900Z 19004KT 9999 FEW013 BKN020 07/06 Q1025 NOSIG;EQDQ01+000000PRSWM2
0241039620999992000011020004+52700-008920SY-MT+0020EINN V0201501N001012200019N0200001N1+00641+00571102611ADDGA1021+002709999GF103991031061002501001001MA1102611102371MD1210121+9999MW1001REMSYN076AAXX  10201 03962 42370 31501 10064 20057 30237 40261 52012 83600 333 81709;MET051EINN 102000Z 15001KT 9999 FEW009 06/06 Q1026 NOSIG;EQDQ01+000000PRSWM2
0333039620999992000011021004+52700-008920SY-MT+0020EINN V0209999C000012200019N0120001N1+00581+00541102641ADDAY111031AY211031ED199U07509GA1021+002709999GF199999011061002501001001MA1102611102401MD1210091+9999MW1111MW2121REMSYN082AAXX  10211 03962 41362 10000 10058 20054 30240 40264 52009 71111 81600 333 81709;MET088EINN 102100Z 00000KT 9999 R24/0750U R06/P1500 MIFG FEW009 06/05 Q1026 BECMG 3000 SCT002;EQDQ01+000012SCOTCVQ02    003PRSWM1
0327039620999992000011022004+52700-008920SY-MT+0020EINN V0209999C000012200019N0120001N1+00551+00531102651ADDAY101999AY201999ED199U15009GA1021+003309999GF199999011061004501001001MA1102611102411MD1210061+9999MW1111MW2121REMSYN082AAXX  10221 03962 41462 10000 10055 20053 30241 40265 52006 71100 81600 333 81711;MET082EINN 102200Z 00000KT 9999 R24/1500U R06/P1500 MIFG FEW011 Q1026 BECMG 3000 SCT002;EQDQ01+000012SCOTCVQ02    003PRSWM1
0203039620999992000011022304+52700-008920FM-15+0020EINN V0201501N000512200019N0112651N1+00601+00601999999ADDGA1021+003009999GF102991999999999999999999MA1102611999999MW1121REMMET093EINN 102230Z 15001KT 9999 R24/1000V1500U R06/P1500 MIFG FEW010 06/06 Q1026 BECMG 3000 SCT002;EQDQ01+000003PRSWM1Q02    003PRSWM1
0187039620999992000011022304+52700-008920FM-16+0020EINN V0201501N000512200019N0112651N1+99999+99999999999ADDGA1021+003009999GF102991999999999999999999MA1102611999999MW1001MW2121REMMET087EINN 102230Z 15001KT 9999 R24/1000V1500U R06/P1500 MIFG FEW010 Q1026 BECMG 3000 SCT002;EQDQ01+000003PRSWM1
0333039620999992000011023004+52700-008920SY-MT+0020EINN V0201001N001012200019N0100001N1+00561+00541102661ADDAY101999AY201999ED199U03509GA1021+001809999GF199999011061002501001001MA1102611102421MD1110051+9999MW1111MW2121REMSYN082AAXX  10231 03962 41360 11001 10056 20054 30242 40266 51005 71100 81600 333 81706;MET088EINN 102300Z 10001KT 9999 R24/0350D R06/P1500 MIFG FEW006 06/05 Q1026 BECMG 3000 SCT002;EQDQ01+000012SCOTCVQ02    003PRSWM1
0214039620999992000011023304+52700-008920FM-15+0020EINN V0200801N000512200019N0112651N1+00501+00501999999ADDED199U02759GA1021+001809999GF102991999999999999999999MA1102611999999MW1121REMMET093EINN 102330Z 08001KT 9999 R24/0275D R06/0800V1500U MIFG FEW006 05/05 Q1026 BECMG 3000 SCT002;EQDQ01+000003PRSWM1Q02    003PRSWM1
0387039620999992000011100004+52700-008920SY-MT+0020EINN V0201901N002012200019N0070001N1+00691+00601999999ADDAA106000191AY161061AY261061ED199U11009GA1011+001809069GF108991081061002501001001MA1102611999999MD1710091+9999MW1111MW2121MW3611REMSYN094AAXX  12021 03962 41357 81902 10069 20060 30159 40183 57009 76166 886// 333 82707 83710 87715;MET081EINN 110000Z 12002KT 9999 R24/1100U R06/1500U MIFG 05/05 Q1026 BECMG 3000 SCT002;EQDQ01+101833APOSLPQ02 101593APOSP Q03 101833APOSLPQ04    003PRSWM1
0324039620999992000011101004+52700-008920SY-MT+0020EINN V0201301N003012200019N0025001N1+00471+00451102651ADDAY101999AY201999ED199U07509GA1021+001809999GF102991021061002501001001MA1102611102401MD1810011+9999MW1111MW2121REMSYN088AAXX  11011 03962 41325 21303 10047 20045 30240 40265 58001 71100 82600 333 81706 98560;MET089EINN 110100Z 13005KT 2500N R06/0750U R24/0450D MIFG FEW006 05/05 Q1026 TEMPO 0800 BKN001;EQDQ01    003PRSWM1
0194039620999992000011101304+52700-008920FM-16+0020EINN V0201401N002112200019N0030001N1+99999+99999999999ADDED199U15009GA1021+001809999GF102991999999999999999999MA1102611999999MW1001MW2121REMMET083EINN 110130Z 14004KT 3000N R06/P1500 R24/0650D MIFG FEW006 Q1026 TEMPO 0800 BKN001;EQDQ01+000003PRSWM1
