0172039620999991977010100004+52683-008917SY-MT+0014EINN V0200101N00461012001CN0112001N1+00201-00101099031ADDAA106001091AY171999GA1021+004509079GA2081+012009059GF108991081051004501999999MA1098981999999MD1710051+9999MW1231REMSYN017701// 82715 88640MET006NOSIG?EQDQ01  00103PRCP99
0071039620999991977010100304+52683-008917FM-15+0014EINN V0200101N00361012001CN0112001N1+00201+00001999999ADDGA1021+004509079GA2081+012009059MA1098981999999MW1211REMMET006NOSIG?
0133039620999991977010101004+52683-008917SY-MT+0014EINN V0203601N00201012001CN0112001N1+00201-00101099101ADDAY121999GA1081+012009059GF108991081051012501999999MA1099091999999MD1310081+9999MW1021REMSYN00588640MET006NOSIG?EQDQ01+000000PRSWM2
0068039620999991977010101304+52683-008917FM-15+0014EINN V0200101N00301012001CN0112001N1+00201-00101999999ADDGA1081+012009059MA1099091999999REMMET006NOSIG?EQDQ01+000000PRSWM2
0133039620999991977010102004+52683-008917SY-MT+0014EINN V0203601N00361013501CN0112001N1+00201-00101099141ADDAY121999GA1081+013509059GF108991081051012501999999MA1099091999999MD1310111+9999MW1021REMSYN00588645MET006NOSIG?EQDQ01+000000PRSWM2
0068039620999991977010102304+52683-008917FM-15+0014EINN V0203601N00361013501CN0112001N1+00201-00101999999ADDGA1081+013509059MA1099091999999REMMET006NOSIG?EQDQ01+000000PRSWM2
0133039620999991977010103004+52683-008917SY-MT+0014EINN V0200101N00301013501CN0112001N1+00101-00101099201ADDAY121999GA1081+013509059GF108991081051012501999999MA1099191999999MD1210171+9999MW1021REMSYN00588645MET006NOSIG?EQDQ01+000000PRSWM2
0068039620999991977010103304+52683-008917FM-15+0014EINN V0200201N00361013501CN0112001N1+00201-00101999999ADDGA1081+013509059MA1099191999999REMMET006NOSIG?EQDQ01+000000PRSWM2
0133039620999991977010104004+52683-008917SY-MT+0014EINN V0203601N00361013501CN0112001N1+00201-00101099241ADDAY121999GA1081+013509059GF108991081051012501999999MA1099191999999MD1210141+9999MW1021REMSYN00588645MET006NOSIG?EQDQ01+000000PRSWM2
0068039620999991977010104304+52683-008917FM-15+0014EINN V0200301N00461013501CN0112001N1+00201-00101999999ADDGA1081+013509059MA1099191999999REMMET006NOSIG?EQDQ01+000000PRSWM2
0171039620999991977010105004+52683-008917SY-MT+0014EINN V0200101N00511015001CN0099001N1+00201-00101099251ADDAY121999GA1081+015009059GF108991999021008001999021MA1099191999999MD1110111+9999MW1021REMSYN00588650MET012CAVOK NOSIG?EQDQ01+000092SCOTLCQ02+000000PRSWM2Q03    003SCOMCG
0058039620999991977010105304+52683-008917FM-15+0014EINN V0200101N00561999991CY0099001N1+00201-00101999999ADDMA1099191999999REMMET012CAVOK NOSIG?EQDQ01+000000PRSWM2
0178039620999991977010106004+52683-008917SY-MT+0014EINN V0200101N00611015001CN0099001N1+00201-00101099321ADDAA199001091AY121999GA1051+015009059GA2061+027009039GF108991051051017501031999MA1099291999999MD1210101+9999MW1021REMSYN017701// 85650 86359MET012CAVOK NOSIG?EQDQ01+000000PRSWM2
0058039620999991977010106304+52683-008917FM-15+0014EINN V0203501N00661999991CY0099001N1+00101+00001999999ADDMA1099291999999REMMET012CAVOK NOSIG?EQDQ01+000000PRSWM2
0161039620999991977010107004+52683-008917SY-MT+0014EINN V0203601N00611015001CN0099001N1+00101+00001099411ADDAY121999GA1051+015009059GA2061+027009039GF108991051051017501031999MA1099391999999MD1210151+9999MW1021REMSYN01185650 86359MET012CAVOK NOSIG?EQDQ01+000000PRSWM2
0058039620999991977010107304+52683-008917FM-15+0014EINN V0203601N00661999991CY0099001N1+00201+00001999999ADDMA1099391999999REMMET012CAVOK NOSIG?EQDQ01+000000PRSWM2
0177039620999991977010108004+52683-008917SY-MT+0014EINN V0203601N00611027001CN0112001N1+00201+00001099551ADDAY121999GA1011+012009059GA2041+015009059GA3061+027009039GF107991041051012501031999MA1099491999999MD1210281+9999MW1011REMSYN01781640 84650 86359MET006NOSIG?EQDQ01+000000PRSWM2
0100039620999991977010108304+52683-008917FM-15+0014EINN V0203601N00561027001CN0112001N1+00101+00001999999ADDGA1011+003009079GA2031+015009059GA3081+027009049MA1099591999999REMMET006NOSIG?EQDQ01+000000PRSWM2
0178039620999991977010109004+52683-008917FM-12+0014EINN V0203601N00621027001CN0300001N9+00101+00001099721ADDAJ100009199999999AY121999GA1011+012009059GA2041+015009059GA3051+027009039GF107991041051012501031021IA1139IA2999-00109MD1210421+9999MW1011REMSYN02925130 81640 84650 85359 92001
0100039620999991977010109304+52683-008917FM-15+0014EINN V0203601N00611027001CN0112001N1+00101+00001999999ADDGA1011+012009059GA2041+015009059GA3051+027009039MA1099701999999REMMET006NOSIG?EQDQ01+000000PRSWM2
0133039620999991977010110004+52683-008917SY-MT+0014EINN V0203501N00561220001CN0112001N1+00101-00101099861ADDAY111999GA1011+006009089GF102991011081008001031021MA1099801999999MD1210461+9999MW1011REMSYN00581820MET006NOSIG?EQDQ01+000000PRSWM2
0068039620999991977010110304+52683-008917FM-15+0014EINN V0203501N00561220001CN0112001N1+00101-00101999999ADDGA1011+006009089MA1099801999999REMMET006NOSIG?EQDQ01+000000PRSWM2
0133039620999991977010111004+52683-008917SY-MT+0014EINN V0203501N00611220001CN0112001N1+00201-00101099951ADDAY101999GA1011+006909089GF102991011081008001031021MA1099901999999MD1210361+9999MW1021REMSYN00581823MET006NOSIG?EQDQ01+000000PRSWM2
0068039620999991977010111304+52683-008917FM-15+0014EINN V0203601N00661220001CN0112001N1+00301+00001999999ADDGA1011+006909089MA1100001999999REMMET006NOSIG?EQDQ01+000000PRSWM2
0145039620999991977010112004+52683-008917SY-MT+0014EINN V0203601N00721030001CN0112001N1+00301-00101099581ADDAY121999GA1011+007509089GF107991041051012501031999MA1100001999999MD1210331+9999MW1011REMSYN01781640 8465% 86359MET006NOSIG?EQDQ01+000000PRSWM2
0068039620999991977010112304+52683-008917FM-15+0014EINN V0200101N00611220001CN0112001N1+00301-00101999999ADDGA1011+005109089MA1100101999999REMMET006NOSIG?EQDQ01+000000PRSWM2
0133039620999991977010113004+52683-008917SY-MT+0014EINN V0203601N00721220001CN0112001N1+00401-00101100181ADDAY101999GA1011+005409089GF101991011021004501031011MA1100101999999MD1210321+9999MW1021REMSYN00581818MET006NOSIG?EQDQ01+000000PRSWM2
0068039620999991977010113304+52683-008917FM-15+0014EINN V0200101N00661220001CN0112001N1+00401-00101999999ADDGA1011+005409089MA1100201999999REMMET006NOSIG?EQDQ01+000000PRSWM2
0133039620999991977010114004+52683-008917SY-MT+0014EINN V0200101N00721220001CN0112001N1+00401-00101100291ADDAY101999GA1011+005409089GF101991011081008001031011MA1100201999999MD1210341+9999MW1011REMSYN00581818MET006NOSIG?EQDQ01+000000PRSWM2
0068039620999991977010114304+52683-008917FM-15+0014EINN V0200101N00661220001CN0112001N1+00401-00101999999ADDGA1011+005409089MA1100311999999REMMET006NOSIG?EQDQ01+000000PRSWM2
0133039620999991977010115004+52683-008917SY-MT+0014EINN V0200101N00661220001CN0112001N1+00401-00101100431ADDAY101999GA1011+005409089GF101991011081008001031001MA1100411999999MD1210331+9999MW1021REMSYN00581818MET006NOSIG?EQDQ01+000000PRSWM2
0068039620999991977010115304+52683-008917FM-15+0014EINN V0203601N00461220001CN0112001N1+00401-00101999999ADDGA1011+005409089MA1100411999999REMMET006NOSIG?EQDQ01+000000PRSWM2
0133039620999991977010116004+52683-008917SY-MT+0014EINN V0200101N00511220001CN0112001N1+00301-00101100561ADDAY101999GA1011+005409089GF101991011081004501001001MA1100511999999MD1210381+9999MW1021REMSYN00581818MET006NOSIG?EQDQ01+000000PRSWM2
0068039620999991977010116304+52683-008917FM-15+0014EINN V0203501N00411220001CN0112001N1+00201-00101999999ADDGA1011+005409089MA1100611999999REMMET006NOSIG?EQDQ01+000000PRSWM2
0133039620999991977010117004+52683-008917SY-MT+0014EINN V0203501N00411220001CN0112001N1+00201-00101100681ADDAY101999GA1011+005409089GF101991011081004501001001MA1100611999999MD1210391+9999MW1021REMSYN00581818MET006NOSIG?EQDQ01+000000PRSWM2
0068039620999991977010117304+52683-008917FM-15+0014EINN V0203601N00251220001CN0112001N1+00101-00101999999ADDGA1011+006009089MA1100711999999REMMET006NOSIG?EQDQ01+000000PRSWM2
0156039620999991977010118004+52683-008917SY-MT+0014EINN V0203401N00201220001CN0112001N1+00201-00101100831ADDAA199999929AY101999GA1011+006009089GF101991011081008001001001MA1100811999999MD1210401+9999MW1021REMSYN017797// 81820 92000MET006NOSIG?EQDQ01+000000PRSWM2
0068039620999991977010118304+52683-008917FM-15+0014EINN V0203601N00301220001CN0112001N1+00101-00101999999ADDGA1011+006009089MA1100911999999REMMET006NOSIG?EQDQ01+000000PRSWM2
0145039620999991977010119004+52683-008917SY-MT+0014EINN V0200301N00301220001CN0112001N1+00101-00101101001ADDAY101999GA1011+006009089GF101991011081008001001001MA1100911999999MD1210441+9999MW1021REMSYN01781820 92000 94058MET006NOSIG?EQDQ01+000000PRSWM2
0058039620999991977010119304+52683-008917FM-15+0014EINN V0200101N00201999991CY0099001N1+00101-00101999999ADDMA1101021999999REMMET012CAVOK NOSIG?EQDQ01+000000PRSWM2
0112039620999991977010120004+52683-008917FM-12+0014EINN V0203401N00151220001CN0300001N9+00001-00201101151ADDAY101999GA1011+015009059GF101991011051017501999001MD1210471+9999MW1021REMSYN01181650 92000EQDQ01    003SCOMCG
0058039620999991977010120014+52683-008917FM-15+0014EINN V0203401N00151999991CY0099001N1+00001-00201999999ADDMA1101081999999REMMET012CAVOK NOSIG?EQDQ01+000000PRSWM2
0058039620999991977010120304+52683-008917FM-15+0014EINN V0203501N00411999991CY0099001N1+00001-00201999999ADDMA1101081999999REMMET012CAVOK NOSIG?EQDQ01+000000PRSWM2
0161039620999991977010121004+52683-008917SY-MT+0014EINN V0203401N00361220001CN0099001N1+00001+00001101261ADDAY101999GA1011+015009059GF101991011051017501999001MA1101191999999MD1210431+9999MW1021REMSYN01181650 92000MET012CAVOK NOSIG?EQDQ01+000000PRSWM2Q02    003SCOMCG
0058039620999991977010121304+52683-008917FM-15+0014EINN V0203401N00251999991CY0099001N1+00001-00201999999ADDMA1101291999999REMMET012CAVOK NOSIG?EQDQ01+000000PRSWM2
0123039620999991977010122004+52683-008917SY-MT+0014EINN V0203401N00461220001CN0099001N1-00101-00101101391ADDAY101999GF100991001001999999001001MA1101291999999MD1210391+9999MW1011REMSYN00592000MET012CAVOK NOSIG?EQDQ01+000000PRSWM2
0058039620999991977010122304+52683-008917FM-15+0014EINN V0203401N00251999991CY0099001N1-00101-00201999999ADDMA1101391999999REMMET012CAVOK NOSIG?EQDQ01+000000PRSWM2
0123039620999991977010123004+52683-008917SY-MT+0014EINN V0203401N00411220001CN0099001N1-00101-00301101511ADDAY101999GF100991001001999999001001MA1101491999999MD1210361+9999MW1021REMSYN00592000MET012CAVOK NOSIG?EQDQ01+000000PRSWM2
0058039620999991977010123304+52683-008917FM-15+0014EINN V0203501N00411999991CY0099001N1-00101-00201999999ADDMA1101491999999REMMET012CAVOK NOSIG?EQDQ01+000000PRSWM2
0156039620999991977010200004+52683-008917SY-MT+0014EINN V0203301N00411220001CN0099001N1-00101-00201101471ADDAA106999929AY101999GF100991001001999999001001MA1101391999999MD1210381+9999MW1021REMSYN011797// 92011MET012CAVOK NOSIG?EQDQ01+000000PRSWM2Q02  99993PRCP99
0058039620999991977010200304+52683-008917FM-15+0014EINN V0203501N00251999991CY0099001N1-00101-00201999999ADDMA1101691999999REMMET012CAVOK NOSIG?EQDQ01+000000PRSWM2
0161039620999991977010201004+52683-008917SY-MT+0014EINN V0200501N00101220001CN0099001N1-00101-00301101781ADDAY101999GA1011+015009059GF101991011051017501999001MA1101691999999MD1210391+9999MW1031REMSYN01181650 92011MET012CAVOK NOSIG?EQDQ01+000000PRSWM2Q02    003SCOMCG
0058039620999991977010201304+52683-008917FM-15+0014EINN V0200501N00101999991CY0099001N1-00201-00301999999ADDMA1101801999999REMMET012CAVOK NOSIG?EQDQ01+000000PRSWM2
0161039620999991977010202004+52683-008917SY-MT+0014EINN V0209991C00001220001CN0099001N1-00101-00301101901ADDAY101999GA1011+015009059GF101991011051017501999001MA1101801999999MD1210391+9999MW1011REMSYN01181650 92011MET012CAVOK NOSIG?EQDQ01+000000PRSWM2Q02    003SCOMCG
0058039620999991977010202304+52683-008917FM-15+0014EINN V0209991C00001999991CY0099001N1-00201-00301999999ADDMA1101901999999REMMET012CAVOK NOSIG?EQDQ01+000000PRSWM2
0123039620999991977010203004+52683-008917SY-MT+0014EINN V0209991C00001220001CN0099001N1-00201-00301102021ADDAY101999GF100991001001999999001001MA1102001999999MD1210381+9999MW1011REMSYN00592011MET012CAVOK NOSIG?EQDQ01+000000PRSWM2
0058039620999991977010203304+52683-008917FM-15+0014EINN V0209991C00001999991CY0099001N1-00301-00301999999ADDMA1102001999999REMMET012CAVOK NOSIG?EQDQ01+000000PRSWM2
0161039620999991977010204004+52683-008917SY-MT+0014EINN V0209991C00001220001CN0099001N1-00201-00401102081ADDAY101999GA1011+015009059GF101991011051017501999001MA1102001999999MD1210301+9999MW1031REMSYN01181650 92011MET012CAVOK NOSIG?EQDQ01+000000PRSWM2Q02    003SCOMCG
0058039620999991977010204304+52683-008917FM-15+0014EINN V0203301N00101999991CY0099001N1-00201-00401999999ADDMA1102101999999REMMET012CAVOK NOSIG?EQDQ01+000000PRSWM2
0123039620999991977010205004+52683-008917SY-MT+0014EINN V0209991C00001220001CN0099001N1-00201-00401102151ADDAY101999GF100991001001999999001001MA1102101999999MD1210251+9999MW1011REMSYN00592011MET012CAVOK NOSIG?EQDQ01+000000PRSWM2
0058039620999991977010205304+52683-008917FM-15+0014EINN V0209991C00001999991CY0099001N1-00301-00301999999ADDMA1102101999999REMMET012CAVOK NOSIG?EQDQ01+000000PRSWM2
0140039620999991977010206004+52683-008917SY-MT+0014EINN V0209991C00001220001CN0099001N1-00301-00401102221ADDAA199999929AY101999GF100991001001999999001001MA1102201999999MD1210201+9999MW1021REMSYN011797// 92011MET012CAVOK NOSIG?EQDQ01+000000PRSWM2
0123039620999991977010207004+52683-008917SY-MT+0014EINN V0209991C00001220001CN0099001N1-00301-00401102381ADDAY101999GF100991001001999999001001MA1102301999999MD1210291+9999MW1021REMSYN00592011MET012CAVOK NOSIG?EQDQ01+000000PRSWM2
0058039620999991977010207304+52683-008917FM-15+0014EINN V0209991C00001999991CY0099001N1-00301-00401999999ADDMA1102401999999REMMET012CAVOK NOSIG?EQDQ01+000000PRSWM2
0161039620999991977010208004+52683-008917SY-MT+0014EINN V0209991C00001220001CN0099001N1-00301-00501102451ADDAY101999GA1011+015009059GF101991011051017501999001MA1102401999999MD1210291+9999MW1031REMSYN01181650 92011MET012CAVOK NOSIG?EQDQ01+000000PRSWM2Q02    003SCOMCG
0058039620999991977010208304+52683-008917FM-15+0014EINN V0202501N00101999991CY0099001N1-00301-00401999999ADDMA1102401999999REMMET012CAVOK NOSIG?EQDQ01+000000PRSWM2
0161039620999991977010209004+52683-008917SY-MT+0014EINN V0202701N00301220001CN0099001N1-00301-00401102541ADDAY101999GA1011+015009059GF101991011051017501999001MA1102511999999MD1210311+9999MW1021REMSYN01181650 92011MET012CAVOK NOSIG?EQDQ01+000000PRSWM2Q02    003SCOMCG
0058039620999991977010209304+52683-008917FM-15+0014EINN V0202601N00361999991CY0099001N1-00201-00301999999ADDMA1102511999999REMMET012CAVOK NOSIG?EQDQ01+000000PRSWM2
0139039620999991977010210004+52683-008917SY-MT+0014EINN V0202701N00461220001CN0112001N1-00101-00201102651ADDAY101999GA1011+006009089GF101991011081008001001001MA1102611999999MD1210281+9999MW1021REMSYN01181820 92011MET006NOSIG?EQDQ01+000000PRSWM2
0068039620999991977010210304+52683-008917FM-15+0014EINN V0202701N00301220001CN0112001N1+00101-00301999999ADDGA1011+006009089MA1102611999999REMMET006NOSIG?EQDQ01+000000PRSWM2
0139039620999991977010211004+52683-008917SY-MT+0014EINN V0202701N00251220001CN0112001N1+00101-00301102701ADDAY101999GA1011+006009089GF101991011081008001001001MA1102711999999MD1110271+9999MW1021REMSYN01181820 92011MET006NOSIG?EQDQ01+000000PRSWM2
0068039620999991977010211304+52683-008917FM-15+0014EINN V0202701N00461220001CN0112001N1+00201-00401999999ADDGA1011+006609089MA1102711999999REMMET006NOSIG?EQDQ01+000000PRSWM2
0172039620999991977010212004+52683-008917SY-MT+0014EINN V0202701N00411220001CN0112001N1+00301+00001102711ADDAA106999929AY101999GA1011+006909089GF101991011081008001001001MA1102711999999MD1110181+9999MW1021REMSYN017797// 81823 92000MET006NOSIG?EQDQ01+000000PRSWM2Q02  99993PRCP99
0068039620999991977010212304+52683-008917FM-15+0014EINN V0202701N00461220001CN0112001N1+00301+00001999999ADDGA1011+006909089MA1102711999999REMMET006NOSIG?EQDQ01+000000PRSWM2
0139039620999991977010213004+52683-008917SY-MT+0014EINN V0202701N00411220001CN0112001N1+00401+00001102761ADDAY101999GA1011+007209089GF101991011081008001001001MA1102711999999MD1210111+9999MW1011REMSYN01181824 92000MET006NOSIG?EQDQ01+000000PRSWM2
0068039620999991977010213304+52683-008917FM-15+0014EINN V0202701N00461220001CN0112001N1+00401+00001999999ADDGA1011+007509089MA1102711999999REMMET006NOSIG?EQDQ01+000000PRSWM2
0133039620999991977010214004+52683-008917SY-MT+0014EINN V0202601N00411220001CN0112001N1+00501+00101102811ADDAY101999GA1011+007509059GF102991021051008001001001MA1102811999999MD1310101+9999MW1031REMSYN00581625MET006NOSIG?EQDQ01+000000PRSWM2
0068039620999991977010214304+52683-008917FM-15+0014EINN V0202601N00301220001CN0112001N1+00501+00101999999ADDGA1011+007509059MA1102811999999REMMET006NOSIG?EQDQ01+000000PRSWM2
0133039620999991977010215004+52683-008917SY-MT+0014EINN V0202601N00301220001CN0112001N1+00501+00101102861ADDAY101999GA1011+007509059GF102991021051008001001021MA1102811999999MD1210151+9999MW1021REMSYN00581625MET006NOSIG?EQDQ01+000000PRSWM2
0133039620999991977010216004+52683-008917SY-MT+0014EINN V0202501N00361220001CN0112001N1+00401+00101102931ADDAY101999GA1011+007509059GF101991011051008001001021MA1102911999999MD1310171+9999MW1011REMSYN00581625MET006NOSIG?EQDQ01+000000PRSWM2
0068039620999991977010216304+52683-008917FM-15+0014EINN V0202501N00301220001CN0112001N1+00301+00101999999ADDGA1011+007509059MA1102911999999REMMET006NOSIG?EQDQ01+000000PRSWM2
0133039620999991977010217004+52683-008917SY-MT+0014EINN V0202401N00201220001CN0112001N1+00201+00101102971ADDAY101999GA1011+007509059GF101991011051008001001021MA1102911999999MD1210161+9999MW1011REMSYN00581625MET006NOSIG?EQDQ01+000000PRSWM2
0068039620999991977010217304+52683-008917FM-15+0014EINN V0202501N00201220001CN0112001N1+00001+00001999999ADDGA1011+007509059MA1103011999999REMMET006NOSIG?EQDQ01+000000PRSWM2
0162039620999991977010218004+52683-008917SY-MT+0014EINN V0202501N00151220001CN0112001N1+00001-00101103061ADDAA199999929AY101999GA1011+012009059GF101991011051012501001001MA1103011999999MD1210201+9999MW1011REMSYN023797// 81640 92000 94052MET006NOSIG?EQDQ01+000000PRSWM2
0068039620999991977010218304+52683-008917FM-15+0014EINN V0202601N00301220001CN0112001N1-00101-00201999999ADDGA1011+012009059MA1103011999999REMMET006NOSIG?EQDQ01+000000PRSWM2
0123039620999991977010219004+52683-008917SY-MT+0014EINN V0202501N00251220001CN0099001N1-00101-00201103151ADDAY101999GF100991001001999999001001MA1103121999999MD1210221+9999MW1011REMSYN00592001MET012CAVOK NOSIG?EQDQ01+000000PRSWM2
0058039620999991977010219304+52683-008917FM-15+0014EINN V0202301N00251999991CY0099001N1+00001-00101999999ADDMA1103121999999REMMET012CAVOK NOSIG?EQDQ01+000000PRSWM2
0161039620999991977010220004+52683-008917SY-MT+0014EINN V0202301N00151220001CN0099001N1+00001-00101103211ADDAY101999GA1011+015009059GF101991011051017501999021MA1103181999999MD1210241+9999MW1031REMSYN01181650 92001MET012CAVOK NOSIG?EQDQ01+000000PRSWM2Q02    003SCOMCG
0161039620999991977010221004+52683-008917SY-MT+0014EINN V0200901N00151220001CN0099001N1-00101-00301103211ADDAY101999GA1011+015009059GF101991011051017501999021MA1103181999999MD1110151+9999MW1031REMSYN01181650 92001MET012CAVOK NOSIG?EQDQ01+000000PRSWM2Q02    003SCOMCG
0044039620999991977010221304+52683-008917FM-15+0014EINN V0201001N00151999991CY0099001N1-00101-00201999999REMMET016CAVOK 1032NOSIG?EQDQ01+000000PRSWM2
0145039620999991977010222004+52683-008917SY-MT+0014EINN V0201201N00201220001CN0099001N1-00101-00201103261ADDAY101999GA1011+060009009GF101991001001999999001021MA1103181999999MD1210111+9999MW1011REMSYN01181070 92011MET012CAVOK NOSIG?EQDQ01+000000PRSWM2
0087039620999991977010222304+52683-008917FM-15+0014EINN V0201101N00301220001CN0050001N1-00201-00201999999ADDGA1011+060009009MA1103181999999MW1401REMMET038VIS 10KM TO S SW W     ?     NW NOSIG?
0098039620999991977010223004+52683-008917SY-MT+0014EINN V0201201N00301220001CN0080001N1-00201-00201103291ADDAY101999GF100991001001999999001001MA1103181999999MD1210081+9999MW1101REMSYN00592011MET006NOSIG?
0039039620999991977010223304+52683-008917FM-15+0014EINN V0201301N00251220001CN0080001N1-00201-00301999999ADDMA1103291999999MW1101REMMET006NOSIG?
0129039620999991977010300004+52683-008917FM-12+0014EINN V0201301N00211220001CN0150001N9-00201-00301103331ADDAA106999929AY101999GA1011+060009009GF101991001001999999001011MD1210121+9999MW1031REMSYN017797// 81070 92011EQDQ01  99993PRCP99
0058039620999991977010300304+52683-008917FM-15+0014EINN V0201301N00151999991CY0099001N1-00201-00301999999ADDMA1103291999999REMMET012CAVOK NOSIG?EQDQ01+000000PRSWM2
0145039620999991977010301004+52683-008917SY-MT+0014EINN V0201301N00251220001CN0099001N1-00101-00301103331ADDAY101999GA1011+060009009GF101991001001999999001011MA1103291999999MD1110071+9999MW1021REMSYN01181070 92011MET012CAVOK NOSIG?EQDQ01+000000PRSWM2
0055039620999991977010301304+52683-008917FM-15+0014EINN V0201301N00301220001CN0080001N1-00201-00201999999ADDGA1011+060009009MA1103291999999MW1101REMMET006NOSIG?
0167039620999991977010302004+52683-008917SY-MT+0014EINN V0201301N00301075001CN0112001N1-00201-00301103351ADDAY111999GA1011+012009059GA2051+075009029GF105991011051012501001061MA1103291999999MD1210061+9999MW1031REMSYN02381640 85275 92011 94720MET006NOSIG?EQDQ01+000000PRSWM2
0058039620999991977010302304+52683-008917FM-15+0014EINN V0201401N00251999991CY0099001N1-00101-00301999999ADDMA1103291999999REMMET012CAVOK NOSIG?EQDQ01+000000PRSWM2
0151039620999991977010303004+52683-008917SY-MT+0014EINN V0201401N00301075001CN0099001N1-00201-00301103381ADDAY111999GA1051+075009029GF105991001001999999001061MA1103291999999MD1310051+9999MW1101REMSYN01785275 92011 94720MET012CAVOK NOSIG?EQDQ01+000000PRSWM2
0071039620999991977010303304+52683-008917FM-15+0014EINN V0201401N00251060001CN0112001N1-00101-00201999999ADDGA1021+012009059GA2061+060009029MA1103391999999MW1101REMMET006NOSIG?
0161039620999991977010304004+52683-008917SY-MT+0014EINN V0201501N00251075001CN0112001N1-00101-00301103391ADDAY121999GA1021+012009059GA2061+075009029GF106991021051012501001061MA1103291999999MD1210061+9999MW1031REMSYN01782640 86275 92011MET006NOSIG?EQDQ01+000000PRSWM2
0084039620999991977010304304+52683-008917FM-15+0014EINN V0201201N00251075001CN0112001N1-00101-00301999999ADDGA1021+012009059GA2051+075009029MA1103291999999REMMET006NOSIG?EQDQ01+000000PRSWM2
0161039620999991977010305004+52683-008917SY-MT+0014EINN V0201201N00361075001CN0112001N1-00201-00301103341ADDAY121999GA1021+012009059GA2071+075009029GF107991021051012501001061MA1103291999999MD1810011+9999MW1031REMSYN01782640 87275 92011MET006NOSIG?EQDQ01+000000PRSWM2
0058039620999991977010305304+52683-008917FM-15+0014EINN V0201301N00461999991CY0099001N1-00201-00401999999ADDMA1103291999999REMMET012CAVOK NOSIG?EQDQ01+000000PRSWM2
0162039620999991977010306004+52683-008917SY-MT+0014EINN V0201301N00461075001CN0099001N1-00101-00301103321ADDAA199999929AY111999GA1071+075009029GF107991001001999999001061MA1103291999999MD1810061+9999MW1021REMSYN017797// 87275 92011MET012CAVOK NOSIG?EQDQ01+000000PRSWM2
0145039620999991977010307004+52683-008917SY-MT+0014EINN V0201501N00361075001CN0099001N1+00001-00401103311ADDAY121999GA1081+075009029GF108991001001999999001071MA1103291999999MD1610081+9999MW1031REMSYN01188275 92011MET012CAVOK NOSIG?EQDQ01+000000PRSWM2
0058039620999991977010307304+52683-008917FM-15+0014EINN V0201501N00411999991CY0099001N1+00001-00301999999ADDMA1103291999999REMMET012CAVOK NOSIG?EQDQ01+000000PRSWM2
0145039620999991977010308004+52683-008917SY-MT+0014EINN V0201601N00511075001CN0099001N1+00101-00301103391ADDAY121999GA1081+075009029GF108991001001999999001071MA1103291999999MD1310051+9999MW1021REMSYN01188275 92011MET012CAVOK NOSIG?EQDQ01+000000PRSWM2
0100039620999991977010308304+52683-008917FM-15+0014EINN V0201701N00611075001CN0112001N1+00201-00401999999ADDGA1011+003009079GA2031+024009039GA3061+075009029MA1103391999999REMMET006NOSIG?EQDQ01+000000PRSWM2
0167039620999991977010309004+52683-008917SY-MT+0014EINN V0201601N00561030001CN0099001N1+00201-00301103431ADDAY121999GA1031+015009059GA2081+030009049GF108991031051017501071999MA1103391999999MD1310111+9999MW1021REMSYN01783650 88560 92011MET012CAVOK NOSIG?EQDQ01+000000PRSWM2
0058039620999991977010309304+52683-008917FM-15+0014EINN V0201601N00461999991CY0099001N1+00101-00301999999ADDMA1103391999999REMMET012CAVOK NOSIG?EQDQ01+000000PRSWM2
0161039620999991977010310004+52683-008917SY-MT+0014EINN V0201601N00561030001CN0112001N1+00101-00201103451ADDAY121999GA1031+013509059GA2071+030009049GF107991031051012501071999MA1103391999999MD1110141+9999MW1011REMSYN01783645 87460 92000MET006NOSIG?EQDQ01+000000PRSWM2
0100039620999991977010310304+52683-008917FM-15+0014EINN V0201601N00611030001CN0112001N1+00101-00201999999ADDGA1011+005409079GA2031+015009059GA3071+030009049MA1103391999999REMMET006NOSIG?EQDQ01+000000PRSWM2
0177039620999991977010311004+52683-008917SY-MT+0014EINN V0201501N00511060001CN0112001N1+00201-00201103381ADDAY121999GA1011+012009059GA2031+030009049GA3071+060009029GF107991011051012501071061MA1103291999999MD1810011+9999MW1021REMSYN01781640 83460 87270MET006NOSIG?EQDQ01+000000PRSWM2
0100039620999991977010311304+52683-008917FM-15+0014EINN V0201601N00611030001CN0112001N1+00301-00101999999ADDGA1011+012009059GA2051+030009039GA3071+060009029MA1103291999999REMMET006NOSIG?EQDQ01+000000PRSWM2
0210039620999991977010312004+52683-008917SY-MT+0014EINN V0201501N00561030001CN0112001N1+00301+00001103301ADDAA106999929AY121999GA1011+006009059GA2031+015009059GA3081+030009049GF108991041051008001071999MA1103181999999MD1810131+9999MW1031REMSYN023797// 81620 83650 88460MET006NOSIG?EQDQ01+000000PRSWM2Q02  99993PRCP99
0100039620999991977010312304+52683-008917FM-15+0014EINN V0201601N00611030001CN0112001N1+00301+00001999999ADDGA1011+006009059GA2031+015009059GA3081+030009049MA1103181999999REMMET006NOSIG?EQDQ01+000000PRSWM2
0177039620999991977010313004+52683-008917SY-MT+0014EINN V0201501N00571030001CN0650001N1+00301+00001103251ADDAY121999GA1011+006009059GA2031+015009059GA3081+030009049GF108991031051008001071999MA1103181999999MD1710201+9999MW1021REMSYN01781620 83650 88460MET006NOSIG?EQDQ01+000000PRSWM2
0084039620999991977010313304+52683-008917FM-15+0014EINN V0201501N00561030001CN0112001N1+00401+00001999999ADDGA1041+015009059GA2071+030009039MA1103121999999REMMET006NOSIG?EQDQ01+000000PRSWM2
0161039620999991977010314004+52683-008917SY-MT+0014EINN V0201501N00461030001CN0099001N1+00401+00101103191ADDAY121999GA1041+015009059GA2071+030009049GF108991041051017501071999MA1103121999999MD1710191+9999MW1021REMSYN01184650 87460MET012CAVOK NOSIG?EQDQ01+000000PRSWM2
0058039620999991977010314304+52683-008917FM-15+0014EINN V0201501N00511999991CY0099001N1+00401+00101999999ADDMA1103121999999REMMET012CAVOK NOSIG?EQDQ01+000000PRSWM2
0161039620999991977010315004+52683-008917SY-MT+0014EINN V0201401N00561030001CN0099001N1+00401+00101103181ADDAY121999GA1041+015009059GA2071+030009049GF107991041051017501071999MA1103121999999MD1610121+9999MW1011REMSYN01184650 87460MET012CAVOK NOSIG?EQDQ01+000000PRSWM2
0058039620999991977010315304+52683-008917FM-15+0014EINN V0201601N00511999991CY0099001N1+00401+00101999999ADDMA1103121999999REMMET012CAVOK NOSIG?EQDQ01+000000PRSWM2
0161039620999991977010316004+52683-008917SY-MT+0014EINN V0201501N00511030001CN0099001N1+00501+00101103171ADDAY121999GA1041+015009059GA2071+030009049GF108991041051017501071999MA1103121999999MD1510081+9999MW1031REMSYN01184650 87460MET012CAVOK NOSIG?EQDQ01+000000PRSWM2
0058039620999991977010316304+52683-008917FM-15+0014EINN V0201401N00461999991CY0099001N1+00401+00101999999ADDMA1103121999999REMMET012CAVOK NOSIG?EQDQ01+000000PRSWM2
0136039620999991977010317004+52683-008917SY-MT+0014EINN V0201401N00461012001CN0112001N1+00401+00201103181ADDAY161999GA1061+012009059GA2081+027009049GF108991061051012501071999MA1103121999999MD1510011+9999MW1601REMSYN01186640 88459MET006NOSIG?
0087039620999991977010317304+52683-008917FM-15+0014EINN V0201501N00611013501CN0112001N1+00401+00401999999ADDGA1031+007509059GA2051+013509059GA3081+027009049MA1103121999999MW1601REMMET006NOSIG?
0181039620999991977010318004+52683-008917SY-MT+0014EINN V0201501N00561004501CN0080001N1+00401+00201103171ADDAA199000691AY161999GA1021+002409079GA2041+004509079GA3071+009009059GF108991081061002501999999MA1103121999999MD1610011+9999MW1611REMSYN029796// 82708 84715 87630 94001MET006NOSIG?
0087039620999991977010318304+52683-008917FM-15+0014EINN V0201501N00661004501CN0070001N1+00401+00301999999ADDGA1021+002409079GA2041+004509079GA3071+010509059MA1103121999999MW1611REMMET006NOSIG?
0158039620999991977010319004+52683-008917SY-MT+0014EINN V0201501N00611015001CN0112001N1+00401+00301103131ADDAY161999GA1011+003009079GA2041+007509059GA3071+015009059GF108991081061004501999999MA1103121999999MD1810041+9999MW1611REMSYN01781710 84715 87630MET006NOSIG?
0085039620999991977010319304+52683-008917FM-15+0014EINN V0201501N00511012001CN0112001N1+00401+00201999999ADDGA1031+007509059GA2081+012009059MA1103011999999MW1611REMMET020TEMPO 3ST012 8SC020?
0136039620999991977010320004+52683-008917SY-MT+0014EINN V0201501N00611012001CN0112001N1+00501+00301103101ADDAY161999GA1031+007509059GA2081+012009059GF108991081051008001999999MA1103011999999MD1810081+9999MW1601REMSYN01183625 88640MET006NOSIG?
0071039620999991977010320304+52683-008917FM-15+0014EINN V0201501N00611015001CN0112001N1+00501+00301999999ADDGA1031+007509059GA2081+015009059MA1103011999999MW1601REMMET006NOSIG?
0182039620999991977010321004+52683-008917SY-MT+0014EINN V0201601N00561012001CN0112001N1+00501+00301103061ADDAY161999GA1011+003609079GA2031+007509059GA3081+012009059GF108991081051004501999999MA1103011999999MD1710111+9999MW1611REMSYN01781712 83625 88640MET030TEMPO 3ST008     ?     6ST015?
0111039620999991977010321304+52683-008917FM-15+0014EINN V0201601N00561012001CN0112001N1+00501+00401999999ADDGA1011+003609079GA2031+007509059GA3081+012009059MA1103011999999MW1611REMMET030TEMPO 3ST008     ?     6ST015?
0150039620999991977010322004+52683-008917SY-MT+0014EINN V0201701N00611012001CN0112001N1+00601+00401102981ADDAY161999GA1011+003609079GA2081+012009059GF108991081051004501999999MA1102911999999MD1810151+9999MW1611REMSYN01181712 88640MET020TEMPO 3ST008 6ST015?
0071039620999991977010322304+52683-008917FM-15+0014EINN V0201601N00611012001CN0112001N1+00601+00401999999ADDGA1021+007509059GA2081+012009059MA1102911999999MW1611REMMET006NOSIG?
0087039620999991977010323004+52683-008917FM-15+0014EINN V0201701N00561012001CN0112001N1+00601+00401999999ADDGA1011+004509079GA2041+006609059GA3081+012009059MA1102911999999MW1611REMMET006NOSIG?
0087039620999991977010323304+52683-008917FM-15+0014EINN V0201701N00661006601CN0112001N1+00601+00401999999ADDGA1021+004509079GA2031+006609059GA3081+012009059MA1102911999999MW1611REMMET006NOSIG?
0218039620999991977010400004+52683-008917SY-MT+0014EINN V0201701N00511012001CN0112001N1+00601+00401102901ADDAA106003091AY161999GA1011+004509079GA2041+006609059GA3081+012009059GF108991081051004501999999MA1102911999999MD1710161+9999MW1611REMSYN023703// 81715 84622 88640MET030TEMPO 3ST008     ?     6ST015?EQDQ01  00303PRCP99
0071039620999991977010400304+52683-008917FM-15+0014EINN V0201701N00611013501CN0112001N1+00601+00401999999ADDGA1031+005409079GA2081+013509059MA1102811999999MW1611REMMET006NOSIG?
0136039620999991977010401004+52683-008917SY-MT+0014EINN V0201801N00721013501CN0112001N1+00701+00401102841ADDAY161999GA1031+005409079GA2081+013509059GF108991081051004501999999MA1102811999999MD1710141+9999MW1611REMSYN01183718 88645MET006NOSIG?
0087039620999991977010401304+52683-008917FM-15+0014EINN V0201801N00721009001CN0112001N1+00701+00501999999ADDGA1021+005409079GA2041+009009059GA3081+013509059MA1102711999999MW1611REMMET006NOSIG?
0158039620999991977010402004+52683-008917SY-MT+0014EINN V0201801N00721013501CN0112001N1+00701+00501102781ADDAY161999GA1011+004509079GA2031+006609059GA3081+013509059GF108991081051004501999999MA1102711999999MD1710171+9999MW1611REMSYN01781715 83633 88645MET006NOSIG?
0087039620999991977010402304+52683-008917FM-15+0014EINN V0201801N00821006601CN0112001N1+00701+00501999999ADDGA1021+003909079GA2041+006609059GA3081+012009059MA1102711999999MW1611REMMET006NOSIG?
0136039620999991977010403004+52683-008917SY-MT+0014EINN V0201801N00871012001CN0112001N1+00701+00501102711ADDAY161999GA1031+006009059GA2081+012009059GF108991081051008001999999MA1102711999999MD1710191+9999MW1611REMSYN01183620 88640MET006NOSIG?
0087039620999991977010403304+52683-008917FM-15+0014EINN V0201801N00921006001CN0060001N1+00701+00501999999ADDGA1031+003009079GA2051+006009059GA3081+012009059MA1102611999999MW1611REMMET006NOSIG?
0158039620999991977010404004+52683-008917SY-MT+0014EINN V0201801N00821006001CN0060001N1+00701+00501102681ADDAY161999GA1031+003609079GA2051+006009059GA3081+012009059GF108991081051004501999999MA1102611999999MD1710161+9999MW1631REMSYN01783712 85620 88640MET006NOSIG?
0087039620999991977010404304+52683-008917FM-15+0014EINN V0201801N00821006001CN0090001N1+00701+00501999999ADDGA1031+003609079GA2051+006009059GA3081+010509059MA1102611999999MW1611REMMET006NOSIG?
0136039620999991977010405004+52683-008917SY-MT+0014EINN V0201801N00771009001CN0090001N1+00701+00501102601ADDAY161999GA1041+003609079GA2081+009009059GF108991081061004501999999MA1102511999999MD1710181+9999MW1611REMSYN01184712 88630MET006NOSIG?
0085039620999991977010405304+52683-008917FM-15+0014EINN V0201801N00771007501CN0050001N1+00701+00601999999ADDGA1041+003309079GA2081+007509059MA1102511999999MW1631REMMET020TEMPO 4ST008 6ST012?
0175039620999991977010406004+52683-008917SY-MT+0014EINN V0201701N00771003301CN0112001N1+00701+00601102581ADDAA199009091AY161999GA1031+001509079GA2051+003309079GA3081+007509059GF108991081061001501999999MA1102511999999MD1710131+9999MW1611REMSYN023709// 83705 85711 88625MET006NOSIG?
0071039620999991977010406304+52683-008917FM-15+0014EINN V0201801N00771009001CN0112001N1+00701+00601999999ADDGA1021+003309079GA2081+009009059MA1102511999999MW1611REMMET006NOSIG?
0178039620999991977010407004+52683-008917SY-MT+0014EINN V0202101N01081001201CN0070001N1+00701+00601102571ADDAY161999GA1031+000609079GA2081+001209079GA3081+009009049GF108991041071004501021999MA1102511999999MD1610111+9999MW1611OC101691REMSYN01782712 83715 88530MET018TEMPO 5000 8ST002?
0071039620999991977010407304+52683-008917FM-15+0014EINN V0201701N00611009001CN0112001N1+00701+00601999999ADDGA1021+003609079GA2081+009009049MA1102511999999MW1611REMMET006NOSIG?
0131039620999991977010408004+52683-008917FM-12+0014EINN V0201901N00621009001CN0120001N9+00801+00701102571ADDAY161999GA1011+002709079GA2031+004209079GA3081+009009049GF108991041071002501021999MD1610021+9999MW1611REMSYN01781709 83714 88530
0087039620999991977010408304+52683-008917FM-15+0014EINN V0201901N00611009001CN0112001N1+00801+00701999999ADDGA1011+003609079GA2031+004509079GA3081+009009049MA1102511999999MW1611REMMET006NOSIG?
0176039620999991977010409004+52683-008917SY-MT+0014EINN V0201701N00561009001CN0112001N1+00801+00701102591ADDAY161999GA1011+002709079GA2031+004509079GA3081+009009059GF108991081051002501999999MA1102511999999MD1310021+9999MW1211REMSYN03581709 83715 88630 97280 97380 97480MET006NOSIG?
0087039620999991977010409304+52683-008917FM-15+0014EINN V0201801N00461008101CN0112001N1+00801+00701999999ADDGA1011+002709079GA2031+004509079GA3081+008109059MA1102511999999MW1501REMMET006NOSIG?
0158039620999991977010410004+52683-008917SY-MT+0014EINN V0201801N00511004201CN0112001N1+00801+00701102581ADDAY161999GA1021+002709079GA2031+004209079GA3081+006009059GF108991081051002501999999MA1102511999999MD1010021+9999MW1201REMSYN01782709 83714 88620MET006NOSIG?
0087039620999991977010410304+52683-008917FM-15+0014EINN V0201801N00611003901CN0112001N1+00901+00701999999ADDGA1021+002709079GA2031+003909079GA3081+006609059MA1102511999999MW1501REMMET006NOSIG?
0158039620999991977010411004+52683-008917SY-MT+0014EINN V0201701N00561007201CN0112001N1+00901+00701102571ADDAY151999GA1011+002709079GA2031+004209079GA3071+007209059GF108991081051002501999999MA1102511999999MD1010001+9999MW1501REMSYN01781709 83714 87624MET006NOSIG?
0087039620999991977010411304+52683-008917FM-15+0014EINN V0201701N00511007501CN0112001N1+00801+00701999999ADDGA1011+002709079GA2031+004209079GA3071+007509059MA1102511999999MW1201REMMET006NOSIG?
0194039620999991977010412004+52683-008917SY-MT+0014EINN V0201701N00461007201CN0112001N1+00901+00701102561ADDAA106003091AY161999GA1011+002709079GA2031+004209079GA3061+007209059GF107991071051002501999999MA1102511999999MD1710031+9999MW1201REMSYN023703// 81709 83714 86624MET006NOSIG?EQDQ01  00303PRCP99
0087039620999991977010412304+52683-008917FM-15+0014EINN V0201901N00561004801CN0112001N1+01001+00801999999ADDGA1021+003309079GA2041+004809079GA3081+006609059MA1102511999999MW1501REMMET006NOSIG?
0158039620999991977010413004+52683-008917SY-MT+0014EINN V0201701N00461004501CN0112001N1+01001+00801102501ADDAY151999GA1021+003309079GA2031+004509079GA3081+006909059GF108991081051004501999999MA1102401999999MD1810081+9999MW1201REMSYN01782711 83715 88623MET006NOSIG?
0084039620999991977010413304+52683-008917FM-15+0014EINN V0201801N00301004501CN0112001N1+01001+00701999999ADDGA1031+003309079GA2081+004509079MA1102511999999MW1201REMMET019TEMPO 4ST008 8ST015
0155039620999991977010414004+52683-008917SY-MT+0014EINN V0201801N00301004501CN0112001N1+01001+00801102511ADDAY121999GA1031+003309079GA2081+004509079GF108991081061004501999999MA1102511999999MD1510061+9999MW1021REMSYN01183711 88715MET006NOSIG?EQDQ01+000000PRSWM2
0084039620999991977010414304+52683-008917FM-15+0014EINN V0202001N00201004501CN0112001N1+01001+00901999999ADDGA1031+003009079GA2081+004509079MA1102511999999REMMET006NOSIG?EQDQ01+000000PRSWM2
0155039620999991977010415004+52683-008917SY-MT+0014EINN V0202101N00201004201CN0112001N1+01001+00801102541ADDAY151999GA1031+002109079GA2081+004209079GF108991081061002501999999MA1102511999999MD1510021+9999MW1021REMSYN01183707 87714MET006NOSIG?EQDQ01+000000PRSWM2
0084039620999991977010415304+52683-008917FM-15+0014EINN V0202201N00151003901CN0112001N1+01001+00901999999ADDGA1031+002109079GA2071+003909079MA1102511999999REMMET006NOSIG?EQDQ01+000000PRSWM2
0155039620999991977010416004+52683-008917SY-MT+0014EINN V0202201N00151003301CN0112001N1+01001+00901102571ADDAY121999GA1031+002109079GA2071+003309079GF108991081061002501999999MA1102511999999MD1310071+9999MW1021REMSYN01183707 87711MET006NOSIG?EQDQ01+000000PRSWM2
0084039620999991977010416304+52683-008917FM-15+0014EINN V0202101N00201003301CN0112001N1+01001+00901999999ADDGA1021+002109079GA2071+003309079MA1102511999999REMMET006NOSIG?EQDQ01+000000PRSWM2
0183039620999991977010417004+52683-008917SY-MT+0014EINN V0202001N00361003001CN0112001N1+01001+00801102551ADDAY121999GA1021+002409079GA2041+003009079GA3081+004509079GF108991081061002501999999MA1102511999999MD1010041+9999MW1021REMSYN02382708 84710 88715 94000MET006NOSIG?EQDQ01+000000PRSWM2
0084039620999991977010417304+52683-008917FM-15+0014EINN V0202001N00411003301CN0112001N1+01001+00801999999ADDGA1051+003309079GA2041+005109079MA1102511999999REMMET006NOSIG?EQDQ01+000000PRSWM2
0202039620999991977010418004+52683-008917SY-MT+0014EINN V0202101N00301003301CN0112001N1+01001+00901102571ADDAA199003091AY151999GA1051+003309079GA2051+005109079GF107991999061004501999999MA1102511999999MD1310031+9999MW1011REMSYN017703// 85711 85717MET020TEMPO 3ST006 8ST012?EQDQ01+000082SCOTLCQ02+000000PRSWM2
0085039620999991977010418304+52683-008917FM-15+0014EINN V0202401N00661004501CN0112001N1+00901+00901999999ADDGA1031+002709079GA2081+004509079MA1102511999999MW1501REMMET020TEMPO 3ST006 8ST012?
0136039620999991977010419004+52683-008917SY-MT+0014EINN V0202401N00461002701CN0112001N1+00901+00901102631ADDAY151999GA1051+002709079GA2081+004509079GF108991081061002501999999MA1102611999999MD1310061+9999MW1201REMSYN01185709 88715MET006NOSIG?
0071039620999991977010419304+52683-008917FM-15+0014EINN V0202101N00361002701CN0112001N1+00901+00801999999ADDGA1051+002709079GA2081+004509079MA1102611999999MW1501REMMET006NOSIG?
0158039620999991977010420004+52683-008917SY-MT+0014EINN V0202101N00461004501CN0112001N1+01001+00901102621ADDAY151999GA1021+002709079GA2051+004509079GA3081+007809059GF108991081061002501999999MA1102611999999MD1110071+9999MW1201REMSYN01782709 85715 88626MET006NOSIG?
0084039620999991977010420304+52683-008917FM-15+0014EINN V0202101N00461008401CN0112001N1+01001+00901999999ADDGA1031+003609079GA2071+008409059MA1102611999999MW1201REMMET019TEMPO 3ST006 8ST008
0169039620999991977010421004+52683-008917SY-MT+0014EINN V0202001N00301012901CN0112001N1+01001+00901102591ADDAY151999GA1031+003609079GA2071+012909059GF108991071051004501999999MA1102511999999MD1010021+9999MW1011REMSYN01183712 87643MET020TEMPO 3ST006 8ST008?EQDQ01+000000PRSWM2
0084039620999991977010421304+52683-008917FM-15+0014EINN V0202101N00511012901CN0112001N1+01101+01001999999ADDGA1031+003609079GA2071+012909059MA1102511999999REMMET006NOSIG?EQDQ01+000000PRSWM2
0155039620999991977010422004+52683-008917SY-MT+0014EINN V0202101N00461003901CN0112001N1+01001+00901102571ADDAY121999GA1061+003909079GA2081+012909059GF108991081061004501999999MA1102511999999MD1710061+9999MW1031REMSYN01186713 88643MET006NOSIG?EQDQ01+000000PRSWM2
0098039620999991977010422304+52683-008917FM-15+0014EINN V0202101N00461003601CN0112001N1+01001+00901999999ADDGA1051+003609079GA2081+006009059MA1102511999999REMMET020TEMPO 2ST006 8ST010?EQDQ01+000000PRSWM2
0169039620999991977010423004+52683-008917SY-MT+0014EINN V0202101N00411003901CN0112001N1+01001+00901102551ADDAY121999GA1061+003909079GA2081+006009059GF108991081061004501999999MA1102511999999MD1710071+9999MW1021REMSYN01186713 88620MET020TEMPO 2ST006 8ST010?EQDQ01+000000PRSWM2
0084039620999991977010423304+52683-008917FM-15+0014EINN V0202101N00461003901CN0112001N1+01101+00901999999ADDGA1061+003909079GA2081+006009059MA1102511999999REMMET006NOSIG?EQDQ01+000000PRSWM2
0186039620999991977010500004+52683-008917SY-MT+0014EINN V0202201N00561003601CN0112001N1+01001+00901102571ADDAA106999929AY151999GA1061+003609079GA2081+006009059GF108991081061004501999999MA1102511999999MD1510021+9999MW1501REMSYN017797// 86712 88620MET020TEMPO 2ST006 8ST018?EQDQ01  99993PRCP99
0062039620999991977010500304+52683-008917FM-15+0014EINN V0202101N00611006601CN0112001N1+01101+00801999999ADDGA1081+006609059MA1102511999999MW1201REMMET013TEMPO 7ST012?
0136039620999991977010501004+52683-008917SY-MT+0014EINN V0202101N00461004501CN0112001N1+01001+00801102571ADDAY151999GA1051+004509079GA2081+006609059GF108991081061004501999999MA1102511999999MD1510001+9999MW1201REMSYN01185715 88622MET006NOSIG?
0084039620999991977010501304+52683-008917FM-15+0014EINN V0202001N00511003301CN0112001N1+01001+00801999999ADDGA1061+003309079GA2071+004509079MA1102511999999REMMET006NOSIG?EQDQ01+000000PRSWM2
0177039620999991977010502004+52683-008917SY-MT+0014EINN V0202201N00611004201CN0112001N1+01001+00901102561ADDAY121999GA1021+003309079GA2071+004209079GA3071+006609059GF108991081061004501999999MA1102511999999MD1010011+9999MW1021REMSYN01782711 87714 87622MET006NOSIG?EQDQ01+000000PRSWM2
0100039620999991977010502304+52683-008917FM-15+0014EINN V0202101N00511004501CN0112001N1+01001+00801999999ADDGA1031+003609079GA2071+004509079GA3081+006609059MA1102511999999REMMET006NOSIG?EQDQ01+000000PRSWM2
0155039620999991977010503004+52683-008917SY-MT+0014EINN V0202001N00721009001CN0112001N1+01101+00901102521ADDAY151999GA1041+004509079GA2081+009009059GF108991081051004501999999MA1102511999999MD1810051+9999MW1021REMSYN01184715 88630MET006NOSIG?EQDQ01+000000PRSWM2
0087039620999991977010503304+52683-008917FM-15+0014EINN V0202101N00461004501CN0112001N1+01001+00801999999ADDGA1031+003609079GA2061+004509079GA3081+006009059MA1102511999999MW1501REMMET006NOSIG?
0158039620999991977010504004+52683-008917SY-MT+0014EINN V0202101N00561004501CN0112001N1+01001+00901102471ADDAY151999GA1031+003609079GA2061+004509079GA3071+005409079GF108991081061004501999999MA1102401999999MD1710101+9999MW1201REMSYN01783712 86715 87718MET006NOSIG?
0071039620999991977010504304+52683-008917FM-15+0014EINN V0202101N00511006001CN0112001N1+01001+00801999999ADDGA1031+004209079GA2081+006009059MA1102401999999MW1201REMMET006NOSIG?
0136039620999991977010505004+52683-008917SY-MT+0014EINN V0202101N00661004201CN0112001N1+01001+00801102451ADDAY151999GA1061+004209079GA2061+005109079GF108991081061004501999999MA1102401999999MD1710111+9999MW1501REMSYN01186714 86717MET006NOSIG?
0071039620999991977010505304+52683-008917FM-15+0014EINN V0202001N00511003001CN0112001N1+01001+00801999999ADDGA1051+003009079GA2071+004209079MA1102401999999MW1501REMMET006NOSIG?
0153039620999991977010506004+52683-008917SY-MT+0014EINN V0202201N00721003601CN0090001N1+01001+00901102451ADDAA199000191AY151999GA1031+002409079GA2081+003609079GF108991081061002501999999MA1102401999999MD1610071+9999MW1501REMSYN017791// 83708 88712MET006NOSIG?
0076039620999991977010506304+52683-008917FM-15+0014EINN V0202301N00611003301CN0040001N1+01001+00901999999ADDGA1021+002709079GA2081+003309079MA1102401999999MW1511REMMET011GRADU 8000?
0141039620999991977010507004+52683-008917SY-MT+0014EINN V0202301N00661002701CN0030001N1+01001+00901102521ADDAY151999GA1021+001809079GA2081+002709079GF108991081071002501999999MA1102511999999MD1310051+9999MW1531REMSYN01182706 88709MET011GRADU 8000?
0076039620999991977010507304+52683-008917FM-15+0014EINN V0202401N00771002101CN0050001N1+00901+00901999999ADDGA1021+001209079GA2081+002109079MA1102511999999MW1511REMMET011GRADU 10KM?
0165039620999991977010508004+52683-008917SY-MT+0014EINN V0202601N00721001801CN0112001N1+00901+00901102591ADDAY151999GA1021+001209079GA2041+001809079GA3071+002409079GF108991081071001501999999MA1102511999999MD1310141+9999MW1201REMSYN01782704 84706 87708MET013GRADU 6ST010?
0093039620999991977010508304+52683-008917FM-15+0014EINN V0202601N00661002401CN0080001N1+01001+00901999999ADDGA1031+001809079GA2051+002409079GA3061+003609079MA1102611999999MW1201REMMET012GRADU 6ST010
0165039620999991977010509004+52683-008917SY-MT+0014EINN V0202501N00661002101CN0080001N1+01001+00901102671ADDAY151999GA1041+001209079GA2051+002109079GA3081+006009059GF108991081071001501999999MA1102611999999MD1210221+9999MW1101REMSYN01784704 85707 88620MET013GRADU 6ST009?
0100039620999991977010509304+52683-008917FM-15+0014EINN V0202501N00611002701CN0112001N1+01001+00901999999ADDGA1021+001809079GA2061+002709079GA3081+006009059MA1102611999999REMMET006NOSIG?EQDQ01+000000PRSWM2
0182039620999991977010510004+52683-008917SY-MT+0014EINN V0202601N00511004501CN0090001N1+00901+00801102731ADDAY121999GA1011+001809079GA2031+003009079GA3051+004509079GF107991061061002501999021MA1102711999999MD1210211+9999MW1101REMSYN01781706 83710 85715MET030GRADU 1ST010     ?     5ST015?
0087039620999991977010510304+52683-008917FM-15+0014EINN V0202701N00561004501CN0090001N1+01001+00901999999ADDGA1021+003009079GA2041+004509079GA3051+060009009MA1102711999999MW1101REMMET006NOSIG?
0136039620999991977010511004+52683-008917SY-MT+0014EINN V0202601N00561075001CN0080001N1+01001+00901102771ADDAY121999GA1011+003009079GA2031+004509079GF105991031061004501001021MA1102711999999MD1210181+9999MW1101REMSYN01181710 83715MET006NOSIG?
0094039620999991977010511304+52683-008917FM-15+0014EINN V0203001N00771004501CN0060001N1+01001+00901999999ADDGA1011+002409079GA2031+003309079GA3051+004509079MA1102711999999MW1501REMMET013GRADU 5ST015?
0212039620999991977010512004+52683-008917SY-MT+0014EINN V0203001N00461007501CN0112001N1+01001+00801102831ADDAA106001091AY151999GA1021+004509079GA2051+007509059GA3051+060009009GF107991061051004501999021MA1102811999999MD1210161+9999MW1201REMSYN041701// 82715 85625 85070 91326 91329 90036MET006NOSIG?EQDQ01  00103PRCP99
0123039620999991977010512304+52683-008917FM-15+0014EINN V0203201N00661015001CN0080001N1+01001+00801999999ADDGA1011+003309079GA2031+004509079GA3051+015009059MA1102811999999MW1501REMMET04210KM TO          ?     NW NE AND SE NOSIG?
0136039620999991977010513004+52683-008917SY-MT+0014EINN V0203301N00661007501CN0112001N1+01001+00601102901ADDAY151999GA1021+003909079GA2071+007509059GF107991071051004501999999MA1102811999999MD1210171+9999MW1201REMSYN01182713 87625MET006NOSIG?
0071039620999991977010513304+52683-008917FM-15+0014EINN V0203201N00771012001CN0112001N1+01001+00601999999ADDGA1021+006009059GA2071+012009059MA1102911999999MW1201REMMET006NOSIG?
0155039620999991977010514004+52683-008917SY-MT+0014EINN V0203201N00771012001CN0112001N1+00901+00501102951ADDAY121999GA1021+006009059GA2071+012009059GF107991071051008001999999MA1102911999999MD1210181+9999MW1021REMSYN01182620 87640MET006NOSIG?EQDQ01+000000PRSWM2
0084039620999991977010514304+52683-008917FM-15+0014EINN V0203301N00661013501CN0112001N1+00901+00401999999ADDGA1011+006009089GA2061+013509059MA1102911999999REMMET006NOSIG?EQDQ01+000000PRSWM2
0084039620999991977010515004+52683-008917FM-15+0014EINN V0203301N00611220001CN0112001N1+00901+00501999999ADDGA1011+006009089GA2031+013509059MA1103011999999REMMET006NOSIG?EQDQ01+000000PRSWM2
0084039620999991977010515304+52683-008917FM-15+0014EINN V0203201N00461220001CN0112001N1+00801+00401999999ADDGA1011+006009089GA2041+013509059MA1103011999999REMMET006NOSIG?EQDQ01+000000PRSWM2
0155039620999991977010516004+52683-008917SY-MT+0014EINN V0203301N00361220001CN0112001N1+00801+00401103121ADDAY121999GA1011+006009089GA2041+060009009GF104991021081008001001021MA1103121999999MD1210221+9999MW1011REMSYN01181820 84070MET006NOSIG?EQDQ01+000000PRSWM2
0084039620999991977010516304+52683-008917FM-15+0014EINN V0203201N00301060001CN0112001N1+00701+00301999999ADDGA1021+012009059GA2051+060009009MA1103121999999REMMET006NOSIG?EQDQ01+000000PRSWM2
0155039620999991977010517004+52683-008917SY-MT+0014EINN V0203101N00301060001CN0112001N1+00501+00401103201ADDAY121999GA1011+012009059GA2051+060009009GF105991011051012501001021MA1103121999999MD1210241+9999MW1031REMSYN01182640 85070MET006NOSIG?EQDQ01+000000PRSWM2
0178039620999991977010518004+52683-008917SY-MT+0014EINN V0203201N00301060001CN0112001N1+00501+00201103291ADDAA199001091AY151999GA1011+012009059GA2051+060009009GF105991011051012501001021MA1103181999999MD1210241+9999MW1021REMSYN023701// 81640 85070 94002MET006NOSIG?EQDQ01+000000PRSWM2
0084039620999991977010518304+52683-008917FM-15+0014EINN V0203301N00251060001CN0112001N1+00501+00301999999ADDGA1011+012009059GA2051+060009009MA1103291999999REMMET006NOSIG?EQDQ01+000000PRSWM2
0155039620999991977010519004+52683-008917SY-MT+0014EINN V0203301N00361220001CN0112001N1+00401+00201103361ADDAY111999GA1011+012009059GA2041+075009009GF104991011051012501001021MA1103291999999MD1210231+9999MW1011REMSYN01181640 84075MET006NOSIG?EQDQ01+000000PRSWM2
0084039620999991977010519304+52683-008917FM-15+0014EINN V0203301N00301220001CN0112001N1+00401+00201999999ADDGA1011+012009059GA2031+075009009MA1103291999999REMMET006NOSIG?EQDQ01+000000PRSWM2
0155039620999991977010520004+52683-008917SY-MT+0014EINN V0203201N00301220001CN0112001N1+00301+00201103431ADDAY101999GA1011+012009059GA2031+075009009GF103991011051012501001021MA1103391999999MD1210231+9999MW1011REMSYN01181640 83075MET006NOSIG?EQDQ01+000000PRSWM2
0068039620999991977010520304+52683-008917FM-15+0014EINN V0203401N00361220001CN0112001N1+00301+00101999999ADDGA1011+007509089MA1103391999999REMMET006NOSIG?EQDQ01+000000PRSWM2
0139039620999991977010521004+52683-008917SY-MT+0014EINN V0203401N00201220001CN0112001N1+00301+00101103441ADDAY101999GA1011+007509089GF101991011081008001001011MA1103391999999MD1110151+9999MW1011REMSYN01181825 92000MET006NOSIG?EQDQ01+000000PRSWM2
0084039620999991977010521304+52683-008917FM-15+0014EINN V0200601N00151220001CN0112001N1+00201+00101999999ADDGA1011+007509089GA2031+075009009MA1103391999999REMMET006NOSIG?EQDQ01+000000PRSWM2
0161039620999991977010522004+52683-008917SY-MT+0014EINN V0200201N00151075001CN0112001N1+00201+00101103461ADDAY111999GA1011+013509059GA2041+075009009GF105991011051012501001021MA1103391999999MD1110101+9999MW1031REMSYN01781645 84075 92000MET006NOSIG?EQDQ01+000000PRSWM2
0059039620999991977010522304+52683-008917FM-15+0014EINN V0200101N00101999991CY0099001N1+00101+00101999999ADDMA1103391999999REMMET013CAVOK NODSIG?EQDQ01+000000PRSWM2
0151039620999991977010523004+52683-008917SY-MT+0014EINN V0209991C00001075001CN0099001N1+00101+00001103521ADDAY121999GA1051+075009029GF105991001001999999001081MA1103491999999MD1310091+9999MW1021REMSYN01785275 92001 94720MET012CAVOK NOSIG?EQDQ01+000000PRSWM2
0058039620999991977010523304+52683-008917FM-15+0014EINN V0209991C00001999991CY0099001N1+00101-00101999999ADDMA1103491999999REMMET012CAVOK NOSIG?EQDQ01+000000PRSWM2
0200039620999991977010600004+52683-008917SY-MT+0014EINN V0209991C00001075001CN0099001N1+00101+00101103541ADDAA106999929AY121999GA1031+036009039GA2041+075009029GF107991031001999999071081MA1103491999999MD1110101+9999MW1031REMSYN023797// 83362 84275 92001MET012CAVOK NOSIG?EQDQ01+000000PRSWM2Q02  99993PRCP99
0058039620999991977010600304+52683-008917FM-15+0014EINN V0209991C00001999991CY0099001N1+00101+00001999999ADDMA1103491999999REMMET012CAVOK NOSIG?EQDQ01+000000PRSWM2
0145039620999991977010601004+52683-008917SY-MT+0014EINN V0209991C00001030001CN0099001N1+00001+00001103551ADDAY121999GA1071+030009039GF107991071001999999071999MA1103491999999MD1110091+9999MW1101REMSYN01187360 92000MET012CAVOK NOSIG?EQDQ01+000000PRSWM2
0167039620999991977010602004+52683-008917SY-MT+0014EINN V0209991C00001220001CN0140001N1+00001+00001103571ADDAY111999GA1021+030009039GA2031+075009009GF103991021001999999031021MA1103491999999MD1210051+9999MW1101REMSYN01782360 83075 92001MET012CAVOK NOSIG?EQDQ01+000000PRSWM2
0071039620999991977010602304+52683-008917FM-15+0014EINN V0209991C00001220001CN0112001N1+00001+00001999999ADDGA1011+012009059GA2041+030009039MA1103491999999MW1101REMMET006NOSIG?
0120039620999991977010603004+52683-008917SY-MT+0014EINN V0209991C00001220001CN0112001N1+00001+00001103601ADDAY111999GA1011+012009059GF103991011051012501031001MA1103491999999MD1310061+9999MW1101REMSYN01181640 92011MET006NOSIG?
0055039620999991977010603304+52683-008917FM-15+0014EINN V0209991C00001220001CN0080001N1+00001+00001999999ADDGA1021+030009039MA1103491999999MW1101REMMET006NOSIG?
0179039620999991977010604004+52683-008917SY-MT+0014EINN V0209991C00001220001CN0006001N1+00001-00101103611ADDAY141999GA1011+027009039GF101991011001999999031021MA1103591999999MD1210061+9999MW1461REMSYN02981359 90478 97256 97356 92011MET0476000 TO SW AND SE GRADU      ?     0400 5ST004?
0097039620999991977010604304+52683-008917FM-15+0014EINN V0209991C00001220001CN0008001N1-00101-00101999999ADDGA1011+010809059MA1103591999999MW1461REMMET0481200 TO NE 6000 TO SW        ?     AND SE NOSIG?
0198039620999991977010605004+52683-008917SY-MT+0014EINN V0209991C00001075001CN0008001N1-00101-00101103581ADDAY141999GA1011+010809059GA2031+027009039GF105991011051012501031021MA1103491999999MD1010011+9999MW1421REMSYN02981636 83359 97256 97356 92011MET0506000 TO SE AND         ?     SW TEMPO 1500 4ST005?
0095039620999991977010605304+52683-008917FM-15+0014EINN V0209991C00001010801CN0060001N1-00201-00201999999ADDGA1051+010809059GA2031+027009039MA1103491999999MW1111REMMET030TEMPO 1000       ?     4ST005?
0158039620999991977010606004+52683-008917SY-MT+0014EINN V0200701N00201027001CN0060001N1+00001-00101103621ADDAA199999929AY141999GA1041+010809059GA2031+027009039GF106991041051012501031999MA1103591999999MD1310021+9999MW1111REMSYN017797// 84636 83359MET011TEMPO 0800?
0055039620999991977010606304+52683-008917FM-15+0014EINN V0201101N00151010801CN0060001N1+00101+00001999999ADDGA1061+010809059MA1103591999999MW1101REMMET006NOSIG?
0136039620999991977010607004+52683-008917SY-MT+0014EINN V0201101N00101010801CN0070001N1+00101+00001103671ADDAY121999GA1011+006009089GA2061+010809059GF106991061081008001999999MA1103591999999MD1310061+9999MW1801REMSYN01181820 86636MET006NOSIG?
0071039620999991977010607304+52683-008917FM-15+0014EINN V0200701N00101009001CN0080001N1+00101+00001999999ADDGA1021+006009089GA2051+009009059MA1103591999999MW1801REMMET006NOSIG?
0136039620999991977010608004+52683-008917SY-MT+0014EINN V0201201N00101012001CN0080001N1+00201+00101103731ADDAY181999GA1011+006009089GA2031+009009059GF105991051081008001999999MA1103691999999MD1310151+9999MW1251REMSYN01181820 83630MET006NOSIG?
0084039620999991977010608304+52683-008917FM-15+0014EINN V0201201N00101220001CN0112001N1+00201+00101999999ADDGA1011+006009089GA2041+009009059MA1103691999999REMMET006NOSIG?EQDQ01+000000PRSWM2
0186039620999991977010609004+52683-008917SY-MT+0014EINN V0201201N00101009001CN0070001N1+00101+00101103781ADDAY121999GA1011+006009089GA2041+009009059GF107991071081008001999999MA1103691999999MD1210161+9999MW1101REMSYN02981820 84630 97265 97365 97465MET03815KM TO SE SW AND      ?     NW NOSIG?
0084039620999991977010609304+52683-008917FM-15+0014EINN V0201201N00101220001CN0112001N1+00101+00101999999ADDGA1011+006009089GA2041+009009059MA1103691999999REMMET006NOSIG?EQDQ01+000000PRSWM2
0154039620999991977010610004+52683-008917SY-MT+0014EINN V0209991C00001010501CN0112001N1+00101+00101103831ADDAY121999GA1011+006009089GA2051+010509059GF107991071081008001999999MA1103791999999MD1210151+9999MW1401REMSYN02981820 85635 97170 97370 97470MET006NOSIG?
0071039620999991977010610304+52683-008917FM-15+0014EINN V0209991C00001012001CN0112001N1+00201+00101999999ADDGA1021+006009089GA2051+012009059MA1103791999999MW1801REMMET006NOSIG?
0148039620999991977010611004+52683-008917SY-MT+0014EINN V0201301N00101013501CN0112001N1+00201+00101103831ADDAY181999GA1021+006009089GA2041+013509059GF105991051081008001999999MA1103791999999MD1110091+9999MW1251REMSYN02382820 84645 97270 97370MET006NOSIG?
0100039620999991977010611304+52683-008917FM-15+0014EINN V0201201N00101013501CN0080001N1+00301+00201999999ADDGA1021+006009089GA2031+013509059MA1103791999999MW1401REMMET0359999 TO NW SW          ?     NOSIG?
0205039620999991977010612004+52683-008917SY-MT+0014EINN V0209991C00001220001CN0080001N1+00301+00201103831ADDAA106999929AA299000191AY181999GA1011+006009089GA2031+013509059GF103991031081008001001001MA1103791999999MD1110051+9999MW1401REMSYN029791// 81820 83645 97370 97470MET0359999 TO NW SW          ?     NOSIG?
0102039620999991977010612304+52683-008917FM-15+0014EINN V0209991C00001220001CN0070001N1+00501+00201999999ADDGA1011+006009089GA2031+013509059MA1103791999999MW1401REMMET037VIS 10KM TO NW         ?     E NOSIG?
0142039620999991977010613004+52683-008917SY-MT+0014EINN V0201301N00051012001CN0112001N1+00501+00301103791ADDAY111999GA1011+006009089GA2071+012009059GF107991071081008001999999MA1103691999999MD1810031+9999MW1101REMSYN01781820 87640 97470MET006NOSIG?
0122039620999991977010613304+52683-008917FM-15+0014EINN V0209991C00001013501CN0090001N1+00601+00401999999ADDGA1011+006009089GA2041+009909059GA3061+013509059MA1103691999999MW1401REMMET04110KM TO          ?     E% S AND W. NOSIG?
0177039620999991977010614004+52683-008917SY-MT+0014EINN V0202501N00101013501CN0112001N1+00501+00401103791ADDAY111999GA1011+006009089GA2041+007509059GA3051+013509059GF107991071081008001999999MA1103691999999MD1810031+9999MW1101REMSYN01781820 87640 97470MET006NOSIG?EQDQ01+000000PRSWM2
0152039620999991977010615004+52683-008917SY-MT+0014EINN V0209991C00001012001CN0400001N1+00601+00501103831ADDAY111999GA1021+007809089GA2071+012009059GA3051+013509059GF107991071081008001999999MA1103791999999MD1510001+9999MW1801REMSYN01182826 87640MET006NOSIG?
0071039620999991977010615304+52683-008917FM-15+0014EINN V0209991C00001012001CN0112001N1+00601+00501999999ADDGA1011+007809089GA2071+012009059MA1103791999999MW1251REMMET006NOSIG?
0136039620999991977010616004+52683-008917SY-MT+0014EINN V0209991C00001220001CN0112001N1+00601+00501103861ADDAY181999GA1011+007809089GA2031+012009059GF103991031081008001001001MA1103791999999MD1310071+9999MW1251REMSYN01181826 83640MET006NOSIG?
0071039620999991977010616304+52683-008917FM-15+0014EINN V0209991C00001220001CN0112001N1+00501+00501999999ADDGA1011+007809089GA2041+012009059MA1103891999999MW1111REMMET006NOSIG?
0193039620999991977010617004+52683-008917SY-MT+0014EINN V0202601N00101012001CN0080001N1+00401+00401103831ADDAY111999GA1011+007809089GA2051+012009059GF106991051051008001031999MA1103791999999MD1010051+9999MW1401REMSYN03581626 85640 97280 97380 97480 94019MET039VIS 9999 SE      ?     SW AND NW NOSIG?
0100039620999991977010617304+52683-008917FM-15+0014EINN V0202701N00151220001CN0080001N1+00301+00301999999ADDGA1011+007809059GA2031+012009059MA1103891999999MW1401REMMET0359999 TO SE SW NW       ?     NOSIG?
0149039620999991977010618004+52683-008917SY-MT+0014EINN V0202701N00251220001CN0112001N1+00301+00201103971ADDAA199000191AY181999GA1011+009009059GF103991021051012501031001MA1103891999999MD1210141+9999MW1401REMSYN029791// 81630 97180 97380 97480MET006NOSIG?
0055039620999991977010618304+52683-008917FM-15+0014EINN V0202801N00201220001CN0112001N1+00201+00101999999ADDGA1011+007509059MA1104001999999MW1401REMMET006NOSIG?
0154039620999991977010619004+52683-008917SY-MT+0014EINN V0202901N00201220001CN0112001N1+00201+00101104031ADDAY101999GA1011+007509059GA2031+012009059GF103991031051008001031001MA1104001999999MD1210171+9999MW1401REMSYN02981625 83640 97180 97380 97480MET006NOSIG?
0071039620999991977010619304+52683-008917FM-15+0014EINN V0202901N00151220001CN0112001N1+00301+00101999999ADDGA1011+007509059GA2031+012009059MA1104001999999MW1401REMMET006NOSIG?
0160039620999991977010620004+52683-008917SY-MT+0014EINN V0202901N00101220001CN0112001N1+00301+00201104061ADDAY101999GA1021+012009059GA2041+075009029GF104991021051012501001051MA1104001999999MD1210131+9999MW1401REMSYN03582640 84275 94720 97180 97380 97480MET006NOSIG?
0071039620999991977010620304+52683-008917FM-15+0014EINN V0202901N00101220001CN0112001N1+00201+00101999999ADDGA1011+009009059GA2031+013509059MA1104101999999MW1401REMMET006NOSIG?
0120039620999991977010621004+52683-008917SY-MT+0014EINN V0202901N00101010501CN0112001N1+00201+00101104101ADDAY111999GA1071+010509059GF107991071051012501999999MA1104001999999MD1110131+9999MW1101REMSYN01187635 92000MET006NOSIG?
0055039620999991977010621304+52683-008917FM-15+0014EINN V0202501N00151220001CN0112001N1+00301+00201999999ADDGA1031+010509059MA1104001999999MW1101REMMET006NOSIG?
0166039620999991977010622004+52683-008917SY-MT+0014EINN V0202601N00201060001CN0112001N1+00201+00101104121ADDAY121999GA1031+010209059GA2031+060009009GF105991031051012501001021MA1104101999999MD1110081+9999MW1011REMSYN01783634 83070 92000MET011TEMPO 5000?EQDQ01+000000PRSWM2
0068039620999991977010622304+52683-008917FM-15+0014EINN V0203101N00201008401CN0112001N1+00201+00201999999ADDGA1071+008409059MA1104101999999REMMET006NOSIG?EQDQ01+000000PRSWM2
0161039620999991977010623004+52683-008917SY-MT+0014EINN V0203001N00151009001CN0112001N1+00301+00201104131ADDAY121999GA1021+006009059GA2061+009009059GF107991071051008001999999MA1104101999999MD1310071+9999MW1031REMSYN01782620 86630 92000MET006NOSIG?EQDQ01+000000PRSWM2
0089039620999991977010623304+52683-008917FM-15+0014EINN V0202601N00201220001CN0112001N1+00301+00201999999ADDGA1011+006009059GA2031+009009059MA1104101999999REMMET011TEMPO 5000?EQDQ01+000000PRSWM2
0194039620999991977010700004+52683-008917SY-MT+0014EINN V0202601N00301220001CN0112001N1+00301+00201104161ADDAA106999929AY111999GA1021+009009059GA2031+060009009GF104991021051012501001021MA1104101999999MD1310061+9999MW1011REMSYN023797// 82630 83070 92000MET006NOSIG?EQDQ01+000000PRSWM2Q02  99993PRCP99
0071039620999991977010700304+52683-008917FM-15+0014EINN V0202601N00101009901CN0112001N1+00301+00201999999ADDGA1011+006009059GA2061+009909059MA1104101999999MW1101REMMET006NOSIG?
0153039620999991977010701004+52683-008917SY-MT+0014EINN V0203001N00101009001CN0080001N1+00301+00301104191ADDAY151999GA1031+003909079GA2051+009009059GF107991071051004501999999MA1104101999999MD1210081+9999MW1501REMSYN01783713 85630 92000MET017GRADU 9999 NOSIG?
0071039620999991977010701304+52683-008917FM-15+0014EINN V0202901N00101009001CN0112001N1+00301+00201999999ADDGA1021+003909079GA2051+009009059MA1104101999999MW1201REMMET006NOSIG?
0136039620999991977010702004+52683-008917SY-MT+0014EINN V0202601N00151009001CN0112001N1+00301+00201104241ADDAY151999GA1011+003909079GA2051+009009059GF106991061051004501999999MA1104201999999MD1210111+9999MW1201REMSYN01181713 85630MET006NOSIG?
0071039620999991977010702304+52683-008917FM-15+0014EINN V0202501N00201009001CN0112001N1+00401+00301999999ADDGA1011+003909079GA2061+009009059MA1104201999999MW1101REMMET006NOSIG?
0136039620999991977010703004+52683-008917SY-MT+0014EINN V0202601N00251009601CN0112001N1+00401+00301104271ADDAY151999GA1011+003909079GA2061+009609059GF107991071051004501999999MA1104201999999MD1210111+9999MW1101REMSYN01181713 86632MET006NOSIG?
0071039620999991977010703304+52683-008917FM-15+0014EINN V0202601N00201009601CN0112001N1+00401+00401999999ADDGA1011+004209079GA2061+009609059MA1104201999999MW1101REMMET006NOSIG?
0114039620999991977010704004+52683-008917SY-MT+0014EINN V0202601N00361009601CN0112001N1+00401+00401104291ADDAY121999GA1071+009609059GF107991071051012501999999MA1104201999999MD1110101+9999MW1101REMSYN00587632MET006NOSIG?
0071039620999991977010704304+52683-008917FM-15+0014EINN V0202901N00411060001CN0112001N1+00401+00401999999ADDGA1041+009609059GA2031+060009009MA1104201999999MW1101REMMET006NOSIG?
0155039620999991977010705004+52683-008917SY-MT+0014EINN V0203501N00301060001CN0112001N1+00401+00301104281ADDAY121999GA1041+009609059GA2031+060009009GF106991041051012501001021MA1104201999999MD1010041+9999MW1011REMSYN01184632 83070MET006NOSIG?EQDQ01+000000PRSWM2
0068039620999991977010705304+52683-008917FM-15+0014EINN V0202701N00301009601CN0112001N1+00401+00301999999ADDGA1051+009609059MA1104201999999REMMET006NOSIG?EQDQ01+000000PRSWM2
0150039620999991977010706004+52683-008917SY-MT+0014EINN V0202701N00251009601CN0112001N1+00401+00301104271ADDAA199999929AY151999GA1071+009609059GF107991071051012501999999MA1104201999999MD1010001+9999MW1031REMSYN011797// 87630MET006NOSIG?EQDQ01+000000PRSWM2
0068039620999991977010706304+52683-008917FM-15+0014EINN V0202501N00301009001CN0112001N1+00501+00401999999ADDGA1071+009009059MA1104201999999REMMET006NOSIG?EQDQ01+000000PRSWM2
0133039620999991977010707004+52683-008917SY-MT+0014EINN V0202501N00251009001CN0112001N1+00501+00401104291ADDAY121999GA1071+009009059GF107991071051012501999999MA1104201999999MD1510001+9999MW1021REMSYN00587630MET006NOSIG?EQDQ01+000000PRSWM2
0068039620999991977010707304+52683-008917FM-15+0014EINN V0202501N00251009001CN0112001N1+00501+00401999999ADDGA1071+009009059MA1104301999999REMMET006NOSIG?EQDQ01+000000PRSWM2
0155039620999991977010708004+52683-008917SY-MT+0014EINN V0202701N00201009601CN0112001N1+00501+00401104351ADDAY121999GA1021+006009059GA2061+009609059GF107991071051008001999999MA1104301999999MD1310071+9999MW1021REMSYN01182620 86632MET006NOSIG?EQDQ01+000000PRSWM2
0084039620999991977010708304+52683-008917FM-15+0014EINN V0203101N00201009001CN0112001N1+00501+00401999999ADDGA1021+006009059GA2061+009009059MA1104301999999REMMET006NOSIG?EQDQ01+000000PRSWM2
0196039620999991977010709004+52683-008917SY-MT+0014EINN V0203101N00201009001CN0112001N1+00601+00401104421ADDAJ100009199999999AY121999GA1011+006009059GA2071+009009059GF107991071051008001999999IA1089IA2999-00309MA1104401999999MD1310151+9999MW1031REMSYN01725310 81620 87630MET006NOSIG?EQDQ01+000000PRSWM2
0084039620999991977010709304+52683-008917FM-15+0014EINN V0203201N00251009001CN0112001N1+00601+00401999999ADDGA1011+006009059GA2071+009009059MA1104401999999REMMET006NOSIG?EQDQ01+000000PRSWM2
0133039620999991977010710004+52683-008917SY-MT+0014EINN V0203101N00251009001CN0112001N1+00601+00301104461ADDAY121999GA1071+009009059GF107991071051012501999999MA1104401999999MD1210171+9999MW1021REMSYN00587630MET006NOSIG?EQDQ01+000000PRSWM2
0133039620999991977010711004+52683-008917SY-MT+0014EINN V0203201N00251009001CN0112001N1+00701+00401104471ADDAY121999GA1071+009009059GF107991071051012501999999MA1104401999999MD1110121+9999MW1021REMSYN00587630MET006NOSIG?EQDQ01+000000PRSWM2
0068039620999991977010711304+52683-008917FM-15+0014EINN V0203101N00201009001CN0112001N1+00701+00401999999ADDGA1071+009009059MA1104401999999REMMET006NOSIG?EQDQ01+000000PRSWM2
0123039620999991977010712004+52683-008917FM-12+0014EINN V0203001N00261009001CN0400001N9+00701+00301104481ADDAA106999929AY121999GA1071+009009059GF107991071051012501999999MD1110061+9999MW1021REMSYN011797// 87630EQDQ01  99993PRCP99
0068039620999991977010712304+52683-008917FM-15+0014EINN V0203101N00301009001CN0112001N1+00801+00301999999ADDGA1071+009009059MA1104401999999REMMET006NOSIG?EQDQ01+000000PRSWM2
0133039620999991977010713004+52683-008917SY-MT+0014EINN V0203001N00201009001CN0112001N1+00801+00301104471ADDAY121999GA1071+009009059GF107991071051012501999999MA1104401999999MD1010011+9999MW1021REMSYN00587630MET006NOSIG?EQDQ01+000000PRSWM2
0068039620999991977010713304+52683-008917FM-15+0014EINN V0203101N00361009001CN0112001N1+00801+00201999999ADDGA1081+009009059MA1104401999999REMMET006NOSIG?EQDQ01+000000PRSWM2
0149039620999991977010714004+52683-008917SY-MT+0014EINN V0203101N00301009001CN0112001N1+00801+00301104461ADDAY121999GA1081+009009059GF199999071051012501999999MA1104401999999MD1810011+9999MW1021REMSYN00587630MET006NOSIG?EQDQ01+000072SCOTCVQ02+000000PRSWM2
0068039620999991977010714304+52683-008917FM-15+0014EINN V0203101N00361009001CN0112001N1+00801+00201999999ADDGA1071+009009059MA1104401999999REMMET006NOSIG?EQDQ01+000000PRSWM2
0133039620999991977010715004+52683-008917SY-MT+0014EINN V0203101N00301009001CN0112001N1+00801+00301104481ADDAY121999GA1071+009009059GF107991071051012501999999MA1104401999999MD1410001+9999MW1021REMSYN00587630MET006NOSIG?EQDQ01+000000PRSWM2
0068039620999991977010715304+52683-008917FM-15+0014EINN V0203201N00361009001CN0112001N1+00701+00301999999ADDGA1071+009009059MA1104401999999REMMET006NOSIG?EQDQ01+000000PRSWM2
0133039620999991977010716004+52683-008917SY-MT+0014EINN V0203101N00361009001CN0112001N1+00701+00201104521ADDAY121999GA1071+009009059GF107991071051012501999999MA1104501999999MD1310051+9999MW1021REMSYN00587630MET006NOSIG?EQDQ01+000000PRSWM2
0068039620999991977010716304+52683-008917FM-15+0014EINN V0203301N00361009001CN0112001N1+00701+00201999999ADDGA1071+009009059MA1104501999999REMMET006NOSIG?EQDQ01+000000PRSWM2
0133039620999991977010717004+52683-008917SY-MT+0014EINN V0203201N00251009001CN0112001N1+00701+00301104551ADDAY121999GA1071+009009059GF107991071051012501999999MA1104501999999MD1310091+9999MW1021REMSYN00587630MET006NOSIG?EQDQ01+000000PRSWM2
0068039620999991977010717304+52683-008917FM-15+0014EINN V0203301N00251007801CN0112001N1+00701+00301999999ADDGA1081+007809059MA1104501999999REMMET006NOSIG?EQDQ01+000000PRSWM2
0156039620999991977010718004+52683-008917SY-MT+0014EINN V0203401N00101008101CN0112001N1+00701+00301104591ADDAA199999929AY121999GA1081+008109059GF108991081051008001999999MA1104501999999MD1210111+9999MW1031REMSYN017797// 88627 94000MET006NOSIG?EQDQ01+000000PRSWM2
0068039620999991977010718304+52683-008917FM-15+0014EINN V0203301N00201008101CN0112001N1+00601+00301999999ADDGA1081+008109059MA1104611999999REMMET006NOSIG?EQDQ01+000000PRSWM2
0133039620999991977010719004+52683-008917SY-MT+0014EINN V0203301N00201008101CN0112001N1+00601+00301104611ADDAY121999GA1081+008109059GF108991081051008001999999MA1104611999999MD1210091+9999MW1021REMSYN00588627MET006NOSIG?EQDQ01+000000PRSWM2
0068039620999991977010719304+52683-008917FM-15+0014EINN V0203301N00151008101CN0112001N1+00601+00301999999ADDGA1081+008109059MA1104611999999REMMET006NOSIG?EQDQ01+000000PRSWM2
0133039620999991977010720004+52683-008917SY-MT+0014EINN V0203201N00151008101CN0112001N1+00701+00201104611ADDAY121999GA1081+008109059GF108991081051008001999999MA1104611999999MD1110061+9999MW1021REMSYN00588627MET006NOSIG?EQDQ01+000000PRSWM2
0068039620999991977010720304+52683-008917FM-15+0014EINN V0203301N00201008101CN0112001N1+00601+00201999999ADDGA1081+008109059MA1104611999999REMMET006NOSIG?EQDQ01+000000PRSWM2
0133039620999991977010721004+52683-008917SY-MT+0014EINN V0203201N00151008101CN0112001N1+00601+00301104611ADDAY121999GA1081+008109059GF108991081051008001999999MA1104611999999MD1110021+9999MW1021REMSYN00588627MET006NOSIG?EQDQ01+000000PRSWM2
0068039620999991977010721304+52683-008917FM-15+0014EINN V0209991C00001008101CN0112001N1+00601+00201999999ADDGA1081+008109059MA1104611999999REMMET006NOSIG?EQDQ01+000000PRSWM2
0133039620999991977010722004+52683-008917SY-MT+0014EINN V0203301N00101008101CN0112001N1+00601+00201104601ADDAY121999GA1081+008109059GF108991081051008001999999MA1104501999999MD1810011+9999MW1021REMSYN00588627MET006NOSIG?EQDQ01+000000PRSWM2
0068039620999991977010722304+52683-008917FM-15+0014EINN V0209991C00001008101CN0112001N1+00601+00201999999ADDGA1081+008109059MA1104501999999REMMET006NOSIG?EQDQ01+000000PRSWM2
0133039620999991977010723004+52683-008917SY-MT+0014EINN V0209991C00001008101CN0112001N1+00601+00301104551ADDAY121999GA1081+008109059GF108991081051008001999999MA1104501999999MD1810061+9999MW1021REMSYN00588627MET006NOSIG?EQDQ01+000000PRSWM2
0068039620999991977010723304+52683-008917FM-15+0014EINN V0203101N00101008101CN0112001N1+00601+00301999999ADDGA1081+008109059MA1104501999999REMMET006NOSIG?EQDQ01+000000PRSWM2
0150039620999991977010800004+52683-008917SY-MT+0014EINN V0203201N00201007801CN0112001N1+00601+00301104531ADDAA199000091AY121999GA1081+007809059GF108991081051008001999999MA1104501999999MD1810081+9999MW1021REMSYN011700// 88626MET006NOSIG?EQDQ01+000000PRSWM2
0068039620999991977010800304+52683-008917FM-15+0014EINN V0203101N00361007501CN0112001N1+00601+00101999999ADDGA1081+007509059MA1104501999999REMMET006NOSIG?EQDQ01+000000PRSWM2
0133039620999991977010801004+52683-008917SY-MT+0014EINN V0203201N00201007501CN0112001N1+00601+00301104551ADDAY121999GA1081+007509059GF108991081051008001999999MA1104501999999MD1510051+9999MW1021REMSYN00588625MET006NOSIG?EQDQ01+000000PRSWM2
0068039620999991977010801304+52683-008917FM-15+0014EINN V0203101N00201007501CN0112001N1+00501+00301999999ADDGA1081+007509059MA1104501999999REMMET006NOSIG?EQDQ01+000000PRSWM2
0133039620999991977010802004+52683-008917SY-MT+0014EINN V0203101N00201007501CN0112001N1+00501+00301104561ADDAY121999GA1081+007509059GF108991081051008001999999MA1104501999999MD1310011+9999MW1021REMSYN00588625MET006NOSIG?EQDQ01+000000PRSWM2
0068039620999991977010802304+52683-008917FM-15+0014EINN V0203101N00151007501CN0112001N1+00501+00301999999ADDGA1081+007509059MA1104501999999REMMET006NOSIG?EQDQ01+000000PRSWM2
0133039620999991977010803004+52683-008917SY-MT+0014EINN V0203101N00151007501CN0112001N1+00501+00301104521ADDAY121999GA1081+007509059GF108991081051008001999999MA1104501999999MD1810011+9999MW1021REMSYN00588625MET006NOSIG?EQDQ01+000000PRSWM2
0068039620999991977010803304+52683-008917FM-15+0014EINN V0203101N00101007501CN0112001N1+00501+00301999999ADDGA1081+007509059MA1104401999999REMMET006NOSIG?EQDQ01+000000PRSWM2
0133039620999991977010804004+52683-008917SY-MT+0014EINN V0203101N00101007501CN0112001N1+00501+00301104451ADDAY121999GA1081+007509059GF108991081051008001999999MA1104401999999MD1810101+9999MW1021REMSYN00588625MET006NOSIG?EQDQ01+000000PRSWM2
0068039620999991977010804304+52683-008917FM-15+0014EINN V0203101N00101007501CN0112001N1+00501+00301999999ADDGA1081+007509059MA1104401999999REMMET006NOSIG?EQDQ01+000000PRSWM2
0133039620999991977010805004+52683-008917SY-MT+0014EINN V0203001N00151009001CN0112001N1+00501+00301104401ADDAY121999GA1081+009009059GF108991081051012501999999MA1104301999999MD1710161+9999MW1021REMSYN00588630MET006NOSIG?EQDQ01+000000PRSWM2
0068039620999991977010805304+52683-008917FM-15+0014EINN V0202901N00301009001CN0112001N1+00501+00301999999ADDGA1081+009009059MA1104301999999REMMET006NOSIG?EQDQ01+000000PRSWM2
0153039620999991977010806004+52683-008917SY-MT+0014EINN V0203101N00251008401CN0112001N1+00501+00401104331ADDAA199999929AY151999GA1041+005709079GA2081+008409059GF108991081061004501999999MA1104301999999MD1710191+9999MW1501REMSYN017797// 84719 88628MET006NOSIG?
0071039620999991977010806304+52683-008917FM-15+0014EINN V0203001N00201008401CN0112001N1+00501+00401999999ADDGA1021+005709079GA2081+008409059MA1104301999999MW1201REMMET006NOSIG?
0136039620999991977010807004+52683-008917SY-MT+0014EINN V0202501N00301008401CN0112001N1+00501+00401104291ADDAY151999GA1021+005409079GA2081+008409059GF108991081051004501999999MA1104201999999MD1710161+9999MW1201REMSYN01182718 88628MET006NOSIG?
0055039620999991977010807304+52683-008917FM-15+0014EINN V0202501N00251009001CN0112001N1+00501+00401999999ADDGA1071+009009059MA1104201999999MW1201REMMET006NOSIG?
0114039620999991977010808004+52683-008917SY-MT+0014EINN V0202901N00201008101CN0112001N1+00501+00401104291ADDAY151999GA1081+008109059GF108991081051008001999999MA1104201999999MD1610111+9999MW1501REMSYN00588627MET006NOSIG?
0142039620999991977010808304+52683-008917FM-15+0014EINN V0202701N00201007501CN0060001N1+00501+00401999999ADDGA1011+002709079GA2031+004509079GA3081+007509059MA1104201999999MW1501REMMET061VIS 10KM         ?     TO SE SW NW. GRADU 9999 3ST018 7SC025?
0215039620999991977010809004+52683-008917SY-MT+0014EINN V0202701N00301006901CN0060001N1+00501+00401104261ADDAY151999GA1011+002709079GA2031+003609079GA3071+006909059GF107991071061002501999999MA1104201999999MD1710071+9999MW1201REMSYN02981709 83712 87623 97182 97482MET0519999 NW          ?     AND NE. GRADU 3ST018 6SC030?
0111039620999991977010809304+52683-008917FM-15+0014EINN V0202801N00251009001CN0112001N1+00501+00401999999ADDGA1011+002409079GA2031+004209079GA3061+009009059MA1104201999999MW1201REMMET030GRADU 3ST018     ?     7SC030?
0142039620999991977010810004+52683-008917SY-MT+0014EINN V0202701N00251009001CN0112001N1+00501+00401104241ADDAY121999GA1011+001809079GA2051+009009059GF107991061051002501071999MA1104201999999MD1710051+9999MW1031MW2201REMSYN01181706 85630MET006NOSIG?
0087039620999991977010810304+52683-008917FM-15+0014EINN V0202901N00611008101CN0112001N1+00601+00401999999ADDGA1011+001809079GA2031+005409079GA3061+008109059MA1104201999999MW1501REMMET006NOSIG?
0136039620999991977010811004+52683-008917SY-MT+0014EINN V0202501N00361012001CN0112001N1+00601+00501104181ADDAY151999GA1011+003609079GA2041+012009059GF107991061051004501041021MA1104101999999MD1710111+9999MW1201REMSYN01181712 84640MET006NOSIG?
0071039620999991977010811304+52683-008917FM-15+0014EINN V0202601N00461220001CN0112001N1+00601+00501999999ADDGA1011+003609079GA2031+010509059MA1104101999999MW1201REMMET006NOSIG?
0188039620999991977010812004+52683-008917SY-MT+0014EINN V0202601N00461009001CN0112001N1+00701+00501104161ADDAA106999929AY151999GA1021+006009089GA2071+009009059GF107991071081008001999021MA1104101999999MD1710101+9999MW1021REMSYN017797// 82820 87630MET006NOSIG?EQDQ01+000000PRSWM2Q02  99993PRCP99
0084039620999991977010812304+52683-008917FM-15+0014EINN V0202601N00361010501CN0112001N1+00701+00501999999ADDGA1031+006009089GA2071+010509059MA1104001999999REMMET006NOSIG?EQDQ01+000000PRSWM2
0155039620999991977010813004+52683-008917SY-MT+0014EINN V0202701N00461010501CN0112001N1+00701+00501104051ADDAY121999GA1011+005409079GA2071+010509059GF107991071051004501999999MA1104001999999MD1710191+9999MW1031REMSYN01181718 87635MET006NOSIG?EQDQ01+000000PRSWM2
0084039620999991977010813304+52683-008917FM-15+0014EINN V0202801N00561010501CN0112001N1+99999+99999999999ADDGA1021+005409079GA2061+010509059MA1103891999999REMMET006NOSIG?EQDQ01+000000PRSWM2
0155039620999991977010814004+52683-008917SY-MT+0014EINN V0202701N00461008401CN0112001N1+00701+00501103931ADDAY121999GA1011+005409079GA2051+008409059GF107991071051004501999999MA1103891999999MD1810251+9999MW1011REMSYN01181718 85628MET006NOSIG?EQDQ01+000000PRSWM2
0136039620999991977010815004+52683-008917SY-MT+0014EINN V0202701N00611009001CN0112001N1+00701+00401103851ADDAY151999GA1031+005409079GA2061+009009059GF107991071051004501999999MA1103791999999MD1710311+9999MW1501REMSYN01183718 86630MET006NOSIG?
0087039620999991977010815304+52683-008917FM-15+0014EINN V0202701N00511012001CN0112001N1+00701+00401999999ADDGA1011+003009079GA2041+007509059GA3051+012009059MA1103791999999MW1201REMMET006NOSIG?
0136039620999991977010816004+52683-008917SY-MT+0014EINN V0202801N00561010501CN0112001N1+00701+00401103781ADDAY151999GA1011+003909079GA2071+010509059GF107991071051004501999999MA1103691999999MD1710271+9999MW1201REMSYN01181713 87635MET006NOSIG?
0084039620999991977010816304+52683-008917FM-15+0014EINN V0202801N00661008401CN0112001N1+00601+00501999999ADDGA1011+003909079GA2061+008409059MA1103691999999REMMET006NOSIG?EQDQ01+000000PRSWM2
0177039620999991977010817004+52683-008917SY-MT+0014EINN V0202601N00411008401CN0300001N1+00601+00501103711ADDAY121999GA1011+003009079GA2051+008409059GA3061+012009059GF107991071051004501999999MA1103691999999MD1710221+9999MW1031REMSYN01781710 85628 86640MET006NOSIG?EQDQ01+000000PRSWM2
0084039620999991977010817304+52683-008917FM-15+0014EINN V0202501N00361011401CN0112001N1+00601+00401999999ADDGA1021+008409059GA2081+011409059MA1103591999999REMMET006NOSIG?EQDQ01+000000PRSWM2
0181039620999991977010818004+52683-008917SY-MT+0014EINN V0202401N00361006601CN0112001N1+00601+00501103651ADDAA199999929AY151999GA1021+005109079GA2051+006609059GA3081+009009059GF108991081051004501999999MA1103591999999MD1710201+9999MW1501REMSYN029797// 82717 85622 88630 94002MET006NOSIG?
0087039620999991977010818304+52683-008917FM-15+0014EINN V0202401N00411006001CN0112001N1+00601+00501999999ADDGA1021+004509079GA2051+006009059GA3081+009009059MA1103491999999MW1201REMMET006NOSIG?
0136039620999991977010819004+52683-008917SY-MT+0014EINN V0202201N00361006001CN0112001N1+00601+00501103571ADDAY151999GA1021+004509079GA2081+006009059GF108991081051004501999999MA1103491999999MD1710211+9999MW1201REMSYN01182715 88620MET006NOSIG?
0084039620999991977010819304+52683-008917FM-15+0014EINN V0202601N00561006601CN0112001N1+00701+00501999999ADDGA1031+004809079GA2081+006609059MA1103491999999REMMET006NOSIG?EQDQ01+000000PRSWM2
0155039620999991977010820004+52683-008917SY-MT+0014EINN V0202601N00561006601CN0112001N1+00701+00501103491ADDAY121999GA1031+004809079GA2081+006609059GF108991081051004501999999MA1103391999999MD1710221+9999MW1021REMSYN01183716 88622MET006NOSIG?EQDQ01+000000PRSWM2
0130039620999991977010820304+52683-008917FM-15+0014EINN V0202501N00461004801CN0112001N1+00701+00601999999ADDGA1021+003009079GA2041+004809079GA3071+006609059MA1103391999999REMMET036TEMPO 8000 4ST006      ?     8ST012?EQDQ01+000000PRSWM2
0189039620999991977010821004+52683-008917SY-MT+0014EINN V0202701N00871007201CN0080001N1+00701+00601103371ADDAY151999GA1011+000909079GA2031+003009079GA3051+007209059GF108991081051001501999999MA1103291999999MD1710181+9999MW1501REMSYN01781703 83710 85624MET037TEMPO 3000       ?     4ST006 7ST010?
0118039620999991977010821304+52683-008917FM-15+0014EINN V0202701N00611006601CN0060001N1+00701+00601999999ADDGA1011+000909079GA2031+002109079GA3081+006609059MA1103291999999MW1501REMMET037TEMPO 3000       ?     4ST006 7ST010?
0158039620999991977010822004+52683-008917SY-MT+0014EINN V0202701N00661001801CN0035001N1+00701+00701103301ADDAY151999GA1011+000909079GA2051+001809079GA3071+003609079GF108991081071001501999999MA1103181999999MD1710271+9999MW1511REMSYN01781703 85706 87712MET006NOSIG?
0087039620999991977010822304+52683-008917FM-15+0014EINN V0202601N00611001801CN0035001N1+00701+00701999999ADDGA1021+000909079GA2051+001809079GA3081+003609079MA1103181999999MW1511REMMET006NOSIG?
0158039620999991977010823004+52683-008917SY-MT+0014EINN V0202601N00721001801CN0035001N1+00701+00701103161ADDAY151999GA1021+000909079GA2051+001809079GA3081+003609079GF108991081071001501999999MA1103121999999MD1710331+9999MW1511REMSYN01782703 85706 88712MET006NOSIG?
0087039620999991977010823304+52683-008917FM-15+0014EINN V0202701N00771001801CN0050001N1+00801+00701999999ADDGA1021+001209079GA2061+001809079GA3081+003609079MA1103011999999MW1511REMMET006NOSIG?
0186039620999991977010900004+52683-008917SY-MT+0014EINN V0202701N00871001501CN0060001N1+00801+00701103031ADDAA106999929AA299000191AY151999GA1031+000909079GA2061+001509079GA3081+002409079GF108991081071001501999999MA1103011999999MD1710341+9999MW1511REMSYN023791// 83703 86705 88708MET006NOSIG?
0055039620999991977010900304+52683-008917FM-15+0014EINN V0202801N00821001501CN0050001N1+00801+00701999999ADDGA1051+001509079MA1102911999999MW1611REMMET006NOSIG?
0182039620999991977010901004+52683-008917SY-MT+0014EINN V0202701N00821002401CN0040001N1+00801+00801102931ADDAY161999GA1021+001509079GA2061+002409079GA3081+003009079GF108991081071001501999999MA1102911999999MD1710361+9999MW1511REMSYN01782705 86708 88710MET030TEMPO 3ST003     ?     7ST006?
0085039620999991977010901304+52683-008917FM-15+0014EINN V0202801N00771003901CN0060001N1+00901+00801999999ADDGA1031+002709079GA2071+003909079MA1102811999999MW1511REMMET020TEMPO 3ST003 8ST009?
0150039620999991977010902004+52683-008917SY-MT+0014EINN V0202801N00921003901CN0060001N1+00901+00801102801ADDAY151999GA1021+002709079GA2081+003909079GF108991081061002501999999MA1102711999999MD1710351+9999MW1511REMSYN01182709 88713MET020TEMPO 3ST003 8ST009?
0087039620999991977010902304+52683-008917FM-15+0014EINN V0202701N00971002401CN0050001N1+00901+00801999999ADDGA1021+001509079GA2061+002409079GA3081+003309079MA1102611999999MW1511REMMET006NOSIG?
0158039620999991977010903004+52683-008917SY-MT+0014EINN V0202801N00971003301CN0040001N1+00901+00801102661ADDAY161999GA1031+002109079GA2051+003309079GA3081+004209079GF108991081071002501999999MA1102611999999MD1710361+9999MW1511REMSYN01783707 85711 88714MET006NOSIG?
0118039620999991977010903304+52683-008917FM-15+0014EINN V0203001N01021003301CN0112001N1+00901+00801999999ADDGA1021+002409079GA2061+003309079GA3071+009009059MA1102511999999MW1201REMMET037TEMPO 5000       ?     3ST005 8ST011?
0138039620999991977010904004+52683-008917SY-MT+0014EINN V0202901N01021003901CN0112001N1+00901+00801102551ADDAY151999GA1041+003009079GA2051+003909079GF107991071061004501999999MA1102511999999MD1710381+9999MW1201REMSYN01184710 85713MET008NOSIG?!?
0087039620999991977010904304+52683-008917FM-15+0014EINN V0202901N00921003301CN0112001N1+00901+00801999999ADDGA1031+002409079GA2041+003309079GA3081+004509079MA1102401999999MW1601REMMET006NOSIG?
0182039620999991977010905004+52683-008917SY-MT+0014EINN V0203101N00821005101CN0112001N1+00801+00701102251ADDAY151999GA1011+002409079GA2031+003309079GA3081+005109079GF108991081071002501999999MA1102401999999MD1710381+9999MW1211REMSYN01781708 83711 88717MET030TEMPO 3ST005     ?     8ST012?
0088039620999991977010905304+52683-008917FM-15+0014EINN V0203001N00721005101CN0112001N1+00801+00701999999ADDGA1021+002709079GA2041+005109079GA3081+008409059MA1102301999999MW1601REMMET007NOSIG+?
0175039620999991977010906004+52683-008917SY-MT+0014EINN V0202901N00611006001CN0112001N1+00801+00701102281ADDAA199002091AY151999GA1021+003909079GA2031+006009059GA3071+012609059GF107991071051004501999999MA1102201999999MD1710381+9999MW1211REMSYN023702// 82713 83620 87642MET006NOSIG?
0087039620999991977010906304+52683-008917FM-15+0014EINN V0202901N00661006001CN0112001N1+00801+00701999999ADDGA1021+003609079GA2031+006009059GA3071+012009059MA1102001999999MW1581REMMET006NOSIG?
0158039620999991977010907004+52683-008917SY-MT+0014EINN V0202901N00821005701CN0112001N1+00801+00601102161ADDAY151999GA1021+003609079GA2031+005709079GA3071+012009059GF107991071051004501999999MA1102101999999MD1710391+9999MW1211REMSYN01782712 83719 87640MET006NOSIG?
0071039620999991977010907304+52683-008917FM-15+0014EINN V0203101N00771220001CN0112001N1+00801+00601999999ADDGA1011+003609079GA2031+006009059MA1102101999999MW1211REMMET006NOSIG?
0133039620999991977010908004+52683-008917SY-MT+0014EINN V0203001N00771220001CN0112001N1+00701+00401102121ADDAY111999GA1011+003609079GF102991021061004501001001MA1102001999999MD1610311+9999MW1011REMSYN00581712MET006NOSIG?EQDQ01+000000PRSWM2
0084039620999991977010908304+52683-008917FM-15+0014EINN V0202901N00561220001CN0112001N1+00601+00301999999ADDGA1011+004209079GA2041+007509059MA1102001999999REMMET006NOSIG?EQDQ01+000000PRSWM2
0133039620999991977010909004+52683-008917SY-MT+0014EINN V0202901N00511220001CN0112001N1+00601+00301102011ADDAY161999GA1011+004209079GF101991011051004501001001MA1102001999999MD1710281+9999MW1011REMSYN00581714MET006NOSIG?EQDQ01+000000PRSWM2
0068039620999991977010909304+52683-008917FM-15+0014EINN V0202901N00561220001CN0112001N1+00601+00401999999ADDGA1011+005109089MA1101901999999REMMET006NOSIG?EQDQ01+000000PRSWM2
0133039620999991977010910004+52683-008917SY-MT+0014EINN V0202901N00821220001CN0112001N1+00701+00201101881ADDAY111999GA1041+006009089GF104991041081008001001001MA1101801999999MD1810291+9999MW1031REMSYN00584820MET006NOSIG?EQDQ01+000000PRSWM2
0079039620999991977010910304+52683-008917FM-15+0014EINN V0202901N00871012001CN0112001N1+00701+00301999999ADDGA1031+006009089GA2031+012009059MA1101801999999MW1251OC101381REMMET006NOSIG?
0114039620999991977010911004+52683-008917SY-MT+0014EINN V0202901N00721220001CN0112001N1+00701+00201101761ADDAY181999GA1021+006009089GF102991021081008001001001MA1101691999999MD1710361+9999MW1251REMSYN00582820MET006NOSIG?
0071039620999991977010911304+52683-008917FM-15+0014EINN V0203001N01021006001CN0112001N1+00601+00201999999ADDGA1051+006009099GA2031+006009099MA1101591999999MW1831REMMET006NOSIG?
0213039620999991977010912004+52683-008917SY-MT+0014EINN V0203001N01021006001CN0112001N1+00601+00401101561ADDAA106999929AA299000191AJ100009199999999AY161999GA1051+006009099GA2031+006009099GF106991061091008001999999MA1101491999999MD1810451+9999MW1831OC101541REMSYN041791// 85920 83920 97180 97280 97380 99600MET006NOSIG?
0071039620999991977010912304+52683-008917FM-15+0014EINN V0202801N00921220001CN0112001N1+00601+00201999999ADDGA1031+006009099GA2021+006009099MA1101391999999MW1261REMMET006NOSIG?
0205039620999991977010913004+52683-008917SY-MT+0014EINN V0203001N01331006001CN0112001N1+00501+00301101371ADDAJ100009199999999AY181999GA1011+004509079GA2061+006009099GA3031+006009099GF107991071091004501999999MA1101291999999MD1710511+9999MW1831REMSYN04781715 86920 83920 97180 97280 91102 90012 99600MET006NOSIG?
0095039620999991977010913304+52683-008917FM-15+0014EINN V0203001N01021220001CN0112001N1+00601+00201999999ADDGA1011+004509079GA2041+006009099GA3021+006009099MA1101191999999MW1831OC101541REMMET006NOSIG?
0126039620999991977010914004+52683-008917SY-MT+0014EINN V0203101N00771030001CN0112001N1+00601+00201101201ADDAY181999GA1031+006009099GF105991041091008001031001MA1101081999999MD1710561+9999MW1261REMSYN01783920 91138 90013MET006NOSIG?
0079039620999991977010914304+52683-008917FM-15+0014EINN V0203101N00971006001CN0112001N1+00401+00201999999ADDGA1011+004209079GA2051+006009099MA1101081999999MW1831OC101591REMMET006NOSIG?
0126039620999991977010915004+52683-008917SY-MT+0014EINN V0203101N00771220001CN0112001N1+00501+00201101141ADDAY181999GA1031+006009099GF103991031091008001001001MA1101081999999MD1710421+9999MW1261REMSYN01783920 91137 90029MET006NOSIG?
0071039620999991977010915284+52683-008917FM-15+0014EINN V0203201N00611013501CN0112001N1+00501+00201999999ADDGA1031+006009099GA2031+013509059MA1101021999999MW1261REMMET006NOSIG?
0133039620999991977010916004+52683-008917SY-MT+0014EINN V0203001N00511220001CN0112001N1+00501+00201101041ADDAY111999GA1011+006009099GF101991011031008001001001MA1101021999999MD1710331+9999MW1011REMSYN00581920MET006NOSIG?EQDQ01+000000PRSWM2
0068039620999991977010916304+52683-008917FM-15+0014EINN V0203101N00661220001CN0112001N1+00401+00101999999ADDGA1031+009009099MA1100911999999REMMET006NOSIG?EQDQ01+000000PRSWM2
0156039620999991977010917004+52683-008917SY-MT+0014EINN V0203101N01231006001CN0112001N1+00401+00101100951ADDAY181999GA1011+004509079GA2061+006009099GF106991061031004501999999MA1100911999999MD1710251+9999MW1801OC101851REMSYN02381715 86920 91136 90017MET006NOSIG?
0071039620999991977010917304+52683-008917FM-15+0014EINN V0202901N00461005401CN0112001N1+00301+00101999999ADDGA1051+005409089GA2021+005409099MA1100811999999MW1251REMMET006NOSIG?
0160039620999991977010918004+52683-008917SY-MT+0014EINN V0203101N00871005101CN0112001N1+00401+00201100821ADDAA199001091AJ100009199999999AY181999GA1061+005109099GF106991061031004501999999MA1100811999999MD1710321+9999MW1801REMSYN023701// 86917 99600 94020MET006NOSIG?
0063039620999991977010918304+52683-008917FM-15+0014EINN V0203001N00871005101CN0112001N1+00301+00101999999ADDGA1071+005109099MA1100611999999MW1801OC101851REMMET006NOSIG?
0156039620999991977010919004+52683-008917SY-MT+0014EINN V0203101N01331060001CN0112001N1+00501+00201100581ADDAY181999GA1031+005109099GA2041+060009009GF106991031031004501001031MA1100511999999MD1710461+9999MW1801OC101851REMSYN02383917 84070 91139 90093MET006NOSIG?
0055039620999991977010919304+52683-008917FM-15+0014EINN V0203101N01181220001CN0112001N1+00401+00201999999ADDGA1031+006009099MA1100511999999MW1251REMMET006NOSIG?
0156039620999991977010920004+52683-008917SY-MT+0014EINN V0203101N01181220001CN0112001N1+00401+00201100491ADDAY181999GA1021+006009099GA2041+060009009GF104991021031008001001021MA1100411999999MD1710461+9999MW1251OC101801REMSYN02382920 84070 91135 90020MET006NOSIG?
0084039620999991977010920304+52683-008917FM-15+0014EINN V0203101N01131220001CN0112001N1+00401+00101999999ADDGA1011+006009089GA2031+060009009MA1100411999999REMMET006NOSIG?EQDQ01+000000PRSWM2
0155039620999991977010921004+52683-008917SY-MT+0014EINN V0203201N01021220001CN0112001N1+00401+00101100391ADDAY181999GA1011+006009089GA2031+060009009GF103991011021008001001021MA1100311999999MD1710431+9999MW1011REMSYN01181820 83070MET006NOSIG?EQDQ01+000000PRSWM2
0068039620999991977010921304+52683-008917FM-15+0014EINN V0203201N00821220001CN0112001N1+00301+00101999999ADDGA1011+006009089MA1100311999999REMMET006NOSIG?EQDQ01+000000PRSWM2
0155039620999991977010922004+52683-008917SY-MT+0014EINN V0203101N00721220001CN0112001N1+00401+00101100351ADDAY101999GA1011+006009089GA2031+060009009GF104991011021008001001021MA1100311999999MD1710231+9999MW1031REMSYN01181820 83070MET006NOSIG?EQDQ01+000000PRSWM2
0068039620999991977010922304+52683-008917FM-15+0014EINN V0203301N00871220001CN0112001N1+00401+00101999999ADDGA1021+006009089MA1100311999999REMMET006NOSIG?EQDQ01+000000PRSWM2
0133039620999991977010923004+52683-008917SY-MT+0014EINN V0203301N00771220001CN0112001N1+00301+00001100331ADDAY101999GA1021+006009089GF103991021021008001001021MA1100311999999MD1710161+9999MW1011REMSYN00582820MET006NOSIG?EQDQ01+000000PRSWM2
0084039620999991977010923304+52683-008917FM-15+0014EINN V0203601N00771009001CN0112001N1+00401+00001999999ADDGA1021+006009089GA2031+009009059MA1100311999999REMMET006NOSIG?EQDQ01+000000PRSWM2
0183039620999991977011000004+52683-008917SY-MT+0014EINN V0203601N00721010501CN0112001N1+00301+00101100371ADDAA106999929AA299000191AY181999GA1041+006009089GA2041+010509059GF107991071081008001999999MA1100311999999MD1510021+9999MW1031REMSYN017791// 84820 84635MET006NOSIG?EQDQ01+000000PRSWM2
0155039620999991977011001004+52683-008917SY-MT+0014EINN V0200101N00871220001CN0112001N1+00201+00001100421ADDAY111999GA1011+007509089GA2031+012009059GF103991031081008001001001MA1100411999999MD1310071+9999MW1011REMSYN01181825 83640MET006NOSIG?EQDQ01+000000PRSWM2
0068039620999991977011001304+52683-008917FM-15+0014EINN V0203601N00511220001CN0112001N1+00201+00001999999ADDGA1011+007509089MA1100411999999REMMET006NOSIG?EQDQ01+000000PRSWM2
0133039620999991977011002004+52683-008917SY-MT+0014EINN V0200101N00561220001CN0112001N1+00201+00001100441ADDAY101999GA1011+007509089GF101991011021008001031001MA1100411999999MD1110111+9999MW1011REMSYN00581825MET006NOSIG?EQDQ01+000000PRSWM2
0068039620999991977011002304+52683-008917FM-15+0014EINN V0203601N00361220001CN0112001N1+00201-00101999999ADDGA1011+007509089MA1100411999999REMMET006NOSIG?EQDQ01+000000PRSWM2
0139039620999991977011003004+52683-008917SY-MT+0014EINN V0203301N00361220001CN0112001N1+00201+00001100471ADDAY111999GA1011+007509089GF101991011021008001001001MA1100411999999MD1210101+9999MW1011REMSYN01181825 92000MET006NOSIG?EQDQ01+000000PRSWM2
0058039620999991977011003304+52683-008917FM-15+0014EINN V0202701N00251999991CY0099001N1+00001-00101999999ADDMA1100411999999REMMET012CAVOK NOSIG?EQDQ01+000000PRSWM2
0139039620999991977011004004+52683-008917SY-MT+0014EINN V0203101N00301220001CN0112001N1+00001+00001100461ADDAY101999GA1021+007509089GF102991021021008001001001MA1100411999999MD1010041+9999MW1031REMSYN01182825 92001MET006NOSIG?EQDQ01+000000PRSWM2
0084039620999991977011004304+52683-008917FM-15+0014EINN V0203401N00411010501CN0112001N1+00101+00001999999ADDGA1021+007509089GA2051+010509059MA1100411999999REMMET006NOSIG?EQDQ01+000000PRSWM2
0136039620999991977011005004+52683-008917SY-MT+0014EINN V0203501N00821012001CN0112001N1+00201+00001100421ADDAY181999GA1041+006609089GA2061+012009059GF107991071081008001999999MA1100411999999MD1810021+9999MW1801REMSYN01184822 86640MET006NOSIG?
0087039620999991977011005304+52683-008917FM-15+0014EINN V0203401N00721012001CN0112001N1+00301+00101999999ADDGA1021+006009089GA2041+012009059GA3061+027009049MA1100311999999MW1801REMMET006NOSIG?
0153039620999991977011006004+52683-008917SY-MT+0014EINN V0203401N00721027001CN0112001N1+00301+00101100371ADDAA199999929AY181999GA1041+009009059GA2071+027009049GF108991041051012501071999MA1100311999999MD1710101+9999MW1601REMSYN017797// 84630 87459MET006NOSIG?
0071039620999991977011006304+52683-008917FM-15+0014EINN V0203501N00771008101CN0112001N1+00301+00201999999ADDGA1051+008109059GA2061+027009049MA1100311999999MW1601REMMET006NOSIG?
0136039620999991977011007004+52683-008917SY-MT+0014EINN V0203501N00771027001CN0112001N1+00301+00101100371ADDAY161999GA1021+009009059GA2041+027009049GF105991021051012501071001MA1100311999999MD1610091+9999MW1211REMSYN01182630 84459MET006NOSIG?
0071039620999991977011007304+52683-008917FM-15+0014EINN V0203501N00721027001CN0112001N1+00301+00101999999ADDGA1041+009009059GA2051+027009039MA1100311999999MW1211REMMET006NOSIG?
0155039620999991977011008004+52683-008917SY-MT+0014EINN V0203601N00821027001CN0112001N1+00301+00101100391ADDAY121999GA1041+009009059GA2051+027009049GF106991041051012501071999MA1100311999999MD1510031+9999MW1031REMSYN01184630 85459MET006NOSIG?EQDQ01+000000PRSWM2
0100039620999991977011008304+52683-008917FM-15+0014EINN V0203501N00771027001CN0112001N1+00301+00101999999ADDGA1011+007509089GA2041+010509059GA3051+027009049MA1100411999999REMMET006NOSIG?EQDQ01+000000PRSWM2
0177039620999991977011009004+52683-008917SY-MT+0014EINN V0203501N00871027001CN0112001N1+00401+00001100421ADDAY161999GA1011+004509079GA2031+009009059GA3051+027009049GF106991041081004501071021MA1100411999999MD1310051+9999MW1031REMSYN01781715 83630 85459MET006NOSIG?EQDQ01+000000PRSWM2
0100039620999991977011009304+52683-008917FM-15+0014EINN V0203601N00871075001CN0112001N1+00301+00001999999ADDGA1011+004509079GA2031+009009059GA3061+075009009MA1100411999999REMMET006NOSIG?EQDQ01+000000PRSWM2
0155039620999991977011010004+52683-008917SY-MT+0014EINN V0203601N00921060001CN0112001N1+00301+00001100421ADDAY121999GA1011+004509079GA2061+060009009GF106991021081004501071021MA1100411999999MD1110051+9999MW1021REMSYN01181715 86070MET006NOSIG?EQDQ01+000000PRSWM2
0084039620999991977011010304+52683-008917FM-15+0014EINN V0203601N00871060001CN0112001N1+00401+00001999999ADDGA1011+006009089GA2051+060009009MA1100411999999REMMET006NOSIG?EQDQ01+000000PRSWM2
0155039620999991977011011004+52683-008917SY-MT+0014EINN V0203601N00771060001CN0112001N1+00401+00001100451ADDAY121999GA1011+006009089GA2051+060009009GF105991011081008001031021MA1100411999999MD1210061+9999MW1011REMSYN01181820 85070MET006NOSIG?EQDQ01+000000PRSWM2
0068039620999991977011011304+52683-008917FM-15+0014EINN V0203501N00721220001CN0112001N1+00401+00001999999ADDGA1011+006009089MA1100411999999REMMET006NOSIG?EQDQ01+000000PRSWM2
0188039620999991977011012004+52683-008917SY-MT+0014EINN V0203501N00771220001CN0112001N1+00401+00001100411ADDAA106999929AY161999GA1011+006009089GA2031+060009009GF103991011081008001001021MA1100411999999MD1810011+9999MW1011REMSYN017797// 81820 83070MET006NOSIG?EQDQ01+000000PRSWM2Q02  99993PRCP99
0068039620999991977011012304+52683-008917FM-15+0014EINN V0203601N00661220001CN0112001N1+00501+00001999999ADDGA1021+006609089MA1100311999999REMMET006NOSIG?EQDQ01+000000PRSWM2
0133039620999991977011013004+52683-008917SY-MT+0014EINN V0203601N00561007201CN0112001N1+00501+00001100391ADDAY111999GA1051+007209089GF105991051021008001001011MA1100311999999MD1810031+9999MW1031REMSYN00585824MET006NOSIG?EQDQ01+000000PRSWM2
0068039620999991977011013304+52683-008917FM-15+0014EINN V0200101N00561007201CN0112001N1+00501+00101999999ADDGA1051+007209089MA1100311999999REMMET006NOSIG?EQDQ01+000000PRSWM2
0133039620999991977011014004+52683-008917SY-MT+0014EINN V0200101N00721220001CN0112001N1+00501+00001100281ADDAY101999GA1031+007209089GF103991031021008001001011MA1100201999999MD1810171+9999MW1011REMSYN00583824MET006NOSIG?EQDQ01+000000PRSWM2
