0205039620999991996010100004+52700-008917SY-MT+0020EINN V0201101N00621013501CN0080001N1+00701+00631098851ADDAA106000191AG12001AY181061AY211061GA1021+005409999GA2071+013509999GF199999061081004501999999MA1098821999999MD1810021+9999MW1101REMSYN017 333 83818 86645;MET008NEW NOSIEQDQ01+000062SCOTCVQ02+000000PRSWM2
0168039620999991996010101004+52700-008917SY-MT+0020EINN V0201201N00461013501CN0080001N1+00751+00661098831ADDAG12999AY121011AY221011GA1071+013509999GF107991071081004501999999MA1098821999999MD1810031+9999MW1101REMSYN023 333 81712 83818 86645;MET008NEW NOSIEQDQ01+000000PRSWM2
0181039620999991996010102004+52700-008917SY-MT+0020EINN V0201201N00511013501CN0050001N1+00771+00681098821ADDAG12999AY181021AY221021GA1021+002409999GA2021+005409999GA3071+013509999GF107991071081002501999999MA1098821999999MD1710041+9999MW1801REMSYN023 333 82706 85818 86645;MET008NEW NOSI
0200039620999991996010103004+52700-008917SY-MT+0020EINN V0201301N00411005401CN0150001N1+00881+00801098841ADDAG12001AY181031AY221031GA1021+001509999GA2071+005409999GA3071+013509999GF199999051031002501001001MA1098821999999MD1510001+9999MW1251MW2801REMSYN017 333 81706 84918;MET008NEW NOSIEQDQ01+000052SCOTCV
0156039620999991996010104004+52700-008917SY-MT+0020EINN V0201501N00361220001CN0200001N1+00801+00711098851ADDAG12999GA1021+005409099GA2021+013509999GF104991041031004501001001MA1098821999999MD1310021+9999REMSYN017 333 82918 83645;MET008NEW NOSIEQDQ01+000000PRSWM2
0118039620999991996010105004+52700-008917SY-MT+0020EINN V0201401N00461220001CN0250001N1+00781+00691098891ADDAG12999GF101991011031004501001001MA1098821999999MD1310071+9999REMSYN011 333 81918;MET008NEW NOSIEQDQ01+000000PRSWM2
0240039620999991996010106004+52700-008917SY-MT+0020EINN V0201401N00261220001CN0250001N1+00701+00631098941ADDAA199001091AG12001AY181061AY211061GA1021+005409099GF199999011081004501001001GJ100129IA1099IA2999+00409KA1120N+00621MA1098921999999MD1210101+9999MW1021REMSYN029 333 20062 31004 55002 81918;MET008NEW NOSIEQDQ01+000012SCOTCVQ02+000000PRSWM2
0134039620999991996010107004+52700-008917SY-MT+0020EINN V0201301N00311220001CN0250001N1+00711+00621099021ADDAG12999GA1021+005409099GF103991031031004501001001MA1098921999999MD1210171+9999REMSYN011 333 81918;MET008NEW NOSIEQDQ01+000000PRSWM2
0156039620999991996010108004+52700-008917SY-MT+0020EINN V0201501N00311013501CN0250001N1+00771+00681099081ADDAG12999GA1021+005409099GA2071+013509999GF107991071081004501999999MA1098981999999MD1210181+9999REMSYN017 333 82818 86640;MET008NEW NOSIEQDQ01+000000PRSWM2
0156039620999991996010109004+52700-008917SY-MT+0020EINN V0201501N00311012001CN0250001N1+00761+00671099141ADDAG12000GA1021+005409999GA2071+012009999GF107991071051004501999999MA1099091999999MD1210191+9999REMSYN017 333 81710 87640;MET008NEW NOSIEQDQ01+000000PRSWM2
0165039620999991996010110004+52700-008917SY-MT+0020EINN V0209991C00001004201CN0200001N1+00821+00711099201ADDAG12999GA1021+000609999GA2021+003609999GF107991071051004501999999MD1210181+9999REMSYN023 333 81712 83620 87635;MET026NEW 040 08/07 Q0991 NOSIG;EQDQ01+000000PRSWM2
0172039620999991996010111004+52700-008917SY-MT+0020EINN V0201701N00211015001CN0200001N1+00931+00791099271ADDAG12999GA1021+005409999GA2021+010509999GA3071+015009999GF107991021051008001001021MA1099191999999MD1210201+9999REMSYN017 333 81620 86070;MET008NEW NOSIEQDQ01+000000PRSWM2
0167039620999991996010112004+52700-008917SY-MT+0020EINN V0201601N00211060001CN0200001N1+00911+00771099341ADDAA106000091AG11000GA1021+005409999GA2071+060009999GF107991011051004501001021MA1099291999999MD1210211+9999REMSYN017 333 81710 86070;MET008NEW NOSIEQDQ01+000000PRSWM2
0172039620999991996010113004+52700-008917SY-MT+0020EINN V0201601N00151060001CN0250001N1+01201+00861099361ADDAG11999GA1021+004509999GA2071+060009999GF199999011081004501001021MA1099291999999MD1110161+9999REMSYN017 333 81818 86070;MET008NEW NOSIEQDQ01+000062SCOTCVQ02+000000PRSWM2
0172039620999991996010114004+52700-008917SY-MT+0020EINN V0209991C00001060001CN0250001N1+01191+00851099421ADDAG11999GA1021+005409999GA2071+060009999GF199999011081008001001021MA1099391999999MD1210151+9999REMSYN017 333 81820 86070;MET008NEW NOSIEQDQ01+000062SCOTCVQ02+000000PRSWM2
0149039620999991996010115004+52700-008917SY-MT+0020EINN V0209991C000010750019N0250001N1+01071+00871099471ADDAG11000GA1011+006009089GF107991011081008001001021MD1210131+9999REMSYN017 333 81820 86075;MET032NEW FEW 02 BKN240 12/09 Q0994 NOEQDQ01+000000PRSWM2
0156039620999991996010116004+52700-008917SY-MT+0020EINN V0201201N00101060001CN0150001N1+00871+00811099541ADDAG11999GA1021+006009999GA2071+060009999GF107991011081008001001021MA1099491999999MD1210181+9999REMSYN017 333 81820 86075;MET008NEW NOSIEQDQ01+000000PRSWM2
0165039620999991996010117004+52700-008917SY-MT+0020EINN V0201101N00101075001CN0120001N1+00811+00741099601ADDAG11999AY121021AY221021GA1021+000309999GA2071+075009999GF107991041061000751001021MA1099491999999MD1210181+9999MW1111MW2121REMSYN017 333 83702 86075;MET008NEW NOSI
0224039620999991996010118004+52700-008917SY-MT+0020EINN V0209991C00001075001CN0005001N1+00691+00621099701ADDAA199999929AG13000AY141061AY221061ED199U03759GA1021+000609999GA2071+075009999GF107991011061000251001021KA1120M+01201MA1099591999999MD1210221+9999MW1121MW2461REMSYN029 333 10120 81701 86075 90003;MET020NEW BECMG 0500 BKN00
0182039620999991996010119004+52700-008917SY-MT+0020EINN V0209991C00001075001CN0003001N1+00651+00611099771ADDAG11999AY141011AY241011ED199U00509GA1021+000309999GA2071+075009999GF107991041061000251001021MA1099701999999MD1210221+9999MW1441MW2461REMSYN023 333 84701 86075 98607;MET008NEW NOSI
0176039620999991996010120004+52700-008917SY-MT+0020EINN V0209991C00001000301CN0002001N1+00581+00511099841ADDAG11999AY141021AY241021ED199U03509GA1071+000309999GA2071+075009999GF107991051061000251001021MA1099801999999MD1210231+9999MW1441MW2461REMSYN017 333 85701 86075;MET008NEW NOSI
0186039620999991996010121004+52700-008917SY-MT+0020EINN V0209991C00001000301CN0002001N1+00501+00501099881ADDAG11000AY141031AY241031ED199U00509GA1071+000309999GA2021+001809999GA3071+075009999GF107991051061000251001021MA1099801999999MD1210181+9999MW1441REMSYN017 333 85701 86075;MET008NEW NOSI
0195039620999991996010122004+52700-008917SY-MT+0020EINN V0209991C00001006001CN0003001N1+00481+00461099941ADDAG11999AY141011AY241011ED199U03009GA1021+000309999GA2071+006009999GF199999031061000251001011MA1099801999999MD1210171+9999MW1421MW2441REMSYN017 333 83701 85075;MET008NEW NOSIEQDQ01+000062SCOTCV
0154039620999991996010123004+52700-008917SY-MT+0020EINN V0209991C00001000301CN0002001N1+00491+00471100001ADDAG11999AY141021AY241021ED199U03759GA1071+000309999GF109991091999999999999999MA1099901999999MD1210161+9999MW1441MW2471REMSYN011 333 89/01;MET008NEW NOSI
0159039620999991996010200004+52700-008917SY-MT+0020EINN V0209991C00001000151CN0002001N1+00521+00451100061ADDAA106999929AG13000AY141061AY241061ED199U04009GA1091+000159999GF109991091999999999999999MA1100001999999MD1210181+9999MW1451REMSYN011 333 89/01;MET008NEW NOSI
0148039620999991996010201004+52700-008917SY-MT+0020EINN V0209991C00001000151CN0002001N1+00551+00481100111ADDAG11999AY141011AY241011ED199U06009GA1091+000159999GF109991091999999999999999MA1100001999999MD1210171+9999MW1451REMSYN011 333 89/01;MET008NEW NOSI
0148039620999991996010202004+52700-008917SY-MT+0020EINN V0209991C00001000151CN0002001N1+00561+00521100151ADDAG11999AY141021AY241021ED199U04009GA1091+000159999GF109991091999999999999999MA1100101999999MD1210151+9999MW1451REMSYN011 333 89/01;MET008NEW NOSI
0154039620999991996010203004+52700-008917SY-MT+0020EINN V0201201N00151000151CN0001001N1+00521+00471100211ADDAG11000AY141031AY241031ED199U03259GA1091+000159999GF109991091999999999999999MA1100101999999MD1210151+9999MW1451MW2471REMSYN011 333 89/01;MET008NEW NOSI
0148039620999991996010204004+52700-008917SY-MT+0020EINN V0201201N00211000151CN0001001N1+00561+00491100271ADDAG11999AY141011AY241011ED199U03759GA1091+000159999GF109991091999999999999999MA1100201999999MD1210161+9999MW1451REMSYN011 333 89/01;MET008NEW NOSI
0075039620999991996010205004+52700-008917FM-15+0020EINN V0201301N00261000151CN0001001N1+00501+00501999999ADDAG11999ED199U05509GA1091+000159999MA1100311999999MW1451REMMET008NEW NOSI
0218039620999991996010206004+52700-008917SY-MT+0020EINN V0201201N00311000301CN0005001N1+00401+00351100451ADDAA199999929AG13000AY141061AY241061GA1021+000609999GF106991061061000251999999GJ101569IA1099IA2999+00109KA1120N+00371MA1100311999999MD1210241+9999MW1421MW2441REMSYN029 333 20037 31001 55026 85701;MET015NEW TEMPO 1500;
0175039620999991996010207004+52700-008917SY-MT+0020EINN V0201101N00261000301CN0012001N1+00411+00361100511ADDAG11999AY141011AY221011GA1071+000309999GF199999061061012501999999MA1100411999999MD1210241+9999MW1281MW2441REMSYN017 333 84701 90102;MET015NEW TEMPO 1500;EQDQ01+000062SCOTCV
0197039620999991996010208004+52700-008917SY-MT+0020EINN V0201101N00411220001CN0020001N1+00411+00341100551ADDAG11999AY141021AY221021ED199U07009GA1021+000309999GF199999011061000751001001MA1100511999999MD1210211+9999MW1281MW2441REMSYN023 333 81702 90102 98558;MET020NEW BECMG 3000 BKN01EQDQ01+000012SCOTCV
0140039620999991996010209004+52700-008917SY-MT+0020EINN V0201201N00261220001CN0060001N1+00401+00351100671ADDAG11000AY101031AY201031GF101991011051001501001001MA1100611999999MD1210221+9999MW1401REMSYN011 333 81704;MET008NEW NOSIEQDQ01+000000PRSWM2
0167039620999991996010210004+52700-008917SY-MT+0020EINN V0200701N00151075001CN0004001N1+00471+00371100731ADDAG11999AY141011AY211011ED199U09009GA1021+000909999GF106991021081000751001021MA1100711999999MD1210221+9999MW1441MW2461REMSYN017 333 81702 85070;MET015NEW BECMG 9999;
0055039620999991996010210304+52700-008917FM-15+0020EINN V0201001N00261999999CN0040001N1+00501+00401999999ADDAG10999MA1100711999999MW1401REMMET015NEW BECMG 9999;
0241039620999991996010211004+52700-008917SY-MT+0020EINN V0201301N00461060001CN0070001N1+00691+00581100731ADDAG11999AY141021AY221021GA1021+003009999GA2021+018009999GA3071+060009999GF199999031081004501001021MA1100711999999MD1110181+9999MW1281REMSYN041 333 81710 83656 85070 90107 98565 98365;MET015NEW BECMG 9999;EQDQ01+000062SCOTCVQ02+000000PRSWM2
0205039620999991996010212004+52700-008917SY-MT+0020EINN V0201401N00571060001CN0200001N1+00861+00781100811ADDAA106999929AG13000AY141061AY211061GA1021+003609999GA2071+060009999GF199999031051004501001021MA1100711999999MD1210141+9999MW1021REMSYN017 333 81714 85070;MET008NEW NOSIEQDQ01+000062SCOTCVQ02+000000PRSWM2
0093039620999991996010212304+52700-008917FM-15+0020EINN V0201401N00461060001CN0112651N1+00901+00801999999ADDAG11999GA1021+004509999GA2071+060009999MA1100811999999REMMET008NEW NOSIEQDQ01+000000PRSWM2
0093039620999991996010213004+52700-008917FM-15+0020EINN V0201401N00511060001CN0112651N1+01001+00801999999ADDAG11999GA1021+004809999GA2071+060009999MA1100711999999REMMET008NEW NOSIEQDQ01+000000PRSWM2
0172039620999991996010214004+52700-008917SY-MT+0020EINN V0201401N00261060001CN0200001N1+01011+00821100771ADDAG11999GA1021+004509999GA2071+060009999GF199999021061004501001021MA1100711999999MD1210041+9999REMSYN017 333 81715 85070;MET008NEW NOSIEQDQ01+000062SCOTCVQ02+000000PRSWM2
0172039620999991996010215004+52700-008917SY-MT+0020EINN V0201501N00821060001CN0200001N1+01041+00811100731ADDAG11000GA1021+004509999GA2071+060009999GF199999011051004501001021MA1100711999999MD1710081+9999REMSYN017 333 81715 85070;MET008NEW NOSIEQDQ01+000062SCOTCVQ02+000000PRSWM2
0172039620999991996010216004+52700-008917SY-MT+0020EINN V0201401N00621060001CN0200001N1+00981+00791100771ADDAG11999GA1021+004509999GA2071+060009999GF199999021051004501001021MA1100711999999MD1510001+9999REMSYN017 333 81715 85070;MET008NEW NOSIEQDQ01+000062SCOTCVQ02+000000PRSWM2
0178039620999991996010217004+52700-008917SY-MT+0020EINN V0201401N00931060001CN0200001N1+01031+00841100771ADDAG11999GA1021+004509999GA2071+060009999GF199999031051004501001021MA1100711999999MD1510001+9999REMSYN023 333 81715 83650 85070;MET008NEW NOSIEQDQ01+000062SCOTCVQ02+000000PRSWM2
0202039620999991996010218004+52700-008917SY-MT+0020EINN V0201401N00821015001CN0200001N1+01031+00841100771ADDAA199999929AG13000GA1021+004509999GA2071+015009999GF199999061051012501999021KA1120M+01071MA1100711999999MD1210041+9999REMSYN023 333 10107 86632 83070;MET008NEW NOSIEQDQ01+000062SCOTCVQ02+000000PRSWM2
0162039620999991996010219004+52700-008917SY-MT+0020EINN V0201401N00621009601CN0200001N1+01051+00891100761ADDAG11999GA1021+006009999GA2071+009609999GF107991071061004501999999MA1100711999999MD1810011+9999REMSYN023 333 84712 85718 87632;MET008NEW NOSIEQDQ01+000000PRSWM2
0215039620999991996010220004+52700-008917SY-MT+0020EINN V0201401N00771003601CN0200001N1+01091+00931100741ADDAG12999AY151021AY221021GA1021+002409999GA2071+003609999GA3071+009609999GF199999061061002501999999MA1100711999999MD1810031+9999MW1201MW2511REMSYN023 333 81709 84711 85626;MET017NEW TEMPO BKN008;EQDQ01+000062SCOTCV
0209039620999991996010221004+52700-008917SY-MT+0020EINN V0201501N00511004501CN0200001N1+01131+00911100741ADDAG12000AY151031AY221031GA1021+003009999GA2071+004509999GA3071+007809999GF107991071061004501999999MA1100711999999MD1710031+9999MW1031REMSYN023 333 82710 85715 86630;MET017NEW TEMPO BKN008;EQDQ01+000000PRSWM2
0187039620999991996010222004+52700-008917SY-MT+0020EINN V0201601N00981004501CN0250001N1+01161+00841100681ADDAG12999GA1021+003009999GA2071+004509999GA3071+009009999GF107991071061004501999999MA1100711999999MD1710081+9999REMSYN023 333 82710 85716 85645;MET017NEW TEMPO BKN008;EQDQ01+000000PRSWM2
0217039620999991996010223004+52700-008917SY-MT+0020EINN V0201601N01131004801CN0250001N1+01171+00831100671ADDAG12999AY151021AY221021GA1021+003009999GA2071+004809999GA3071+013509999GF107991071061004501999999MA1100611999999MD1810071+9999MW1501OC101441REMSYN023 333 82710 85716 87642;MET017NEW TEMPO BKN008;EQDQ01+000000PRSWM2
0219039620999991996010300004+52700-008917SY-MT+0020EINN V0201601N01231004801CN0250001N1+01161+00841100661ADDAA106999929AG12000AY151061AY221061GA1021+003009999GA2071+004809999GA3071+012009999GF107991071061004501999999MA1100611999999MD1710081+9999MW1201MW2511REMSYN035 333 82710 85716 87635 90710 91134;MET017NEW TEMPO BKN008;
0165039620999991996010301004+52700-008917SY-MT+0020EINN V0201601N01131013501CN0200001N1+01161+00771100631ADDAG12999GA1021+004509999GA2071+013509999GF107991071051004501999999MA1100611999999MD1710051+9999REMSYN017 333 83715 86645;MET017NEW TEMPO BKN006;EQDQ01+000000PRSWM2
0156039620999991996010302004+52700-008917SY-MT+0020EINN V0201601N00821013501CN0200001N1+01141+00791100601ADDAG12999GA1021+004509999GA2071+013509999GF107991071051004501999999MA1100611999999MD1710071+9999REMSYN017 333 83715 86645;MET008NEW NOSIEQDQ01+000000PRSWM2
0162039620999991996010303004+52700-008917SY-MT+0020EINN V0201501N00771013501CN0200001N1+01141+00761100601ADDAG12000GA1021+004509999GA2071+013509999GF107991071051004501999999MA1100511999999MD1610061+9999REMSYN023 333 82715 83630 85645;MET008NEW NOSIEQDQ01+000000PRSWM2
0156039620999991996010304004+52700-008917SY-MT+0020EINN V0201501N00871009001CN0200001N1+01121+00791100551ADDAG12999GA1021+006309999GA2071+009009999GF107991071051008001999999MA1100511999999MD1710081+9999REMSYN017 333 83621 87630;MET008NEW NOSIEQDQ01+000000PRSWM2
0156039620999991996010305004+52700-008917SY-MT+0020EINN V0201501N00671006001CN0200001N1+01141+00831100491ADDAG12999GA1071+006009999GA2071+009009999GF108991081051008001999999MA1100511999999MD1810111+9999REMSYN017 333 85620 87630;MET008NEW NOSIEQDQ01+000000PRSWM2
0224039620999991996010306004+52700-008917SY-MT+0020EINN V0201601N01131004501CN0200001N1+01151+00871100421ADDAA199999929AG12000GA1071+004509999GA2071+008409999GF108991081061004501999999GJ100129IA1099IA2999+00809KA1120N+01011MA1100411999999MD1710181+9999REMSYN035 333 20101 31008 55002 85714 87625;MET008NEW NOSIEQDQ01+000000PRSWM2
0178039620999991996010307004+52700-008917SY-MT+0020EINN V0201501N01131004201CN0200001N1+01161+00901100381ADDAG12999AY161011AY221011GA1071+004209999GA2071+006609999GF108991081061004501999999MA1100311999999MD1710171+9999MW1601REMSYN017 333 85714 87620;MET008NEW NOSIEQDQ01+000000PRSWM2
0171039620999991996010308004+52700-008917SY-MT+0020EINN V0201501N01031004201CN0200001N1+01191+00851100391ADDAG12999AY161021AY221021GA1071+004209999GA2071+006009999GF108991081061004501999999MA1100311999999MD1510101+9999MW1211MW2611REMSYN023 333 85718 87625 91135;MET008NEW NOSI
0192039620999991996010309004+52700-008917SY-MT+0020EINN V0201501N00981005401CN0150001N1+01101+00901100351ADDAG12001AY161031AY221031GA1071+005409999GA2071+007509999GF108991081061004501999999MA1100311999999MD1810071+9999MW1601OC101651REMSYN023 333 82710 85718 87625;MET008NEW NOSIEQDQ01+000000PRSWM2
0195039620999991996010310004+52700-008917SY-MT+0020EINN V0201501N01031005401CN0150001N1+01111+00891100321ADDAG12999AY161011AY221011GA1021+003009999GA2071+005409999GA3071+007509999GF107991071061004501999999MA1100311999999MD1810061+9999MW1211MW2611OC101491REMSYN023 333 84713 86718 86630;MET008NEW NOSI
0195039620999991996010311004+52700-008917SY-MT+0020EINN V0201601N01131005401CN0200001N1+01221+00901100351ADDAG12999AY161021AY221021GA1021+004509999GA2071+005409999GA3071+007509999GF107991071051004501999999MA1100311999999MD1510041+9999MW1211MW2611OC101901REMSYN023 333 84715 86620 91137;MET008NEW NOSI
0207039620999991996010312004+52700-008917SY-MT+0020EINN V0201601N00821004501CN0130001N1+01181+00971100381ADDAA106001091AG12001AY161061AY251061GA1021+002409999GA2071+004509999GA3071+006009999GF107991071061004501999999MA1100311999999MD1310031+9999MW1211MW2511MW3611REMSYN017 333 84712 87716;MET017NEW TEMPO BKN008;
0193039620999991996010313004+52700-008917SY-MT+0020EINN V0201601N00931004801CN0060001N1+01211+00981100321ADDAG12999AY151011AY221011GA1021+003909999GA2081+004809999GF108991081061004501999999MA1100311999999MD1010001+9999MW1501REMSYN023 333 83710 86714 88718;MET017NEW TEMPO BKN008;EQDQ01+000000PRSWM2
0175039620999991996010314004+52700-008917SY-MT+0020EINN V0201601N00871004801CN0150001N1+01171+01001100301ADDAG12999AY151021AY221021GA1021+003009999GA2081+004809999GF108991081061002501999999MA1100201999999MD1510051+9999MW1501MW2511REMSYN017 333 83708 87713;MET018NEW TEMPO BKN008 ;
0180039620999991996010315004+52700-008917SY-MT+0020EINN V0201501N00871003001CN0090001N1+01161+00931100181ADDAG12000AY151031AY221031GA1071+003009999GA2071+004209999GF108991081061002501999999MA1100201999999MD1710201+9999MW1501MW2511REMSYN023 333 82707 86710 87714;MET017NEW TEMPO BKN008;
0196039620999991996010316004+52700-008917SY-MT+0020EINN V0201401N00931003301CN0150001N1+01091+00891100101ADDAG12999AY151011AY221011GA1021+002109999GA2071+003309999GA3071+005109999GF108991081061002501999999MA1100101999999MD1710221+9999MW1501MW2511REMSYN023 333 83708 86711 86717;MET017NEW TEMPO BKN008;
0203039620999991996010317004+52700-008917SY-MT+0020EINN V0201401N00721002701CN0070001N1+01091+00951100051ADDAG12999AY161021AY251021GA1021+002109999GA2071+002709999GA3071+004209999GF108991081071001501999999MA1100001999999MD1710251+9999MW1581REMSYN017 333 84705 87710;MET017NEW TEMPO BKN008;EQDQ01+000000PRSWM2
0217039620999991996010318004+52700-008917SY-MT+0020EINN V0201601N00931006001CN0200001N1+01161+00971100051ADDAA199002091AG10001AY161061AY251061GA1021+003009999GA2071+006009999GA3081+012009999GF108991081051004501999999KA1120M+01221MA1100001999999MD1610131+9999MW1601MW2611REMSYN029 333 10122 83710 85620 88640;MET008NEW NOSI
0200039620999991996010319004+52700-008917SY-MT+0020EINN V0201501N00931015001CN0200001N1+01151+00941100011ADDAG12999AY161011AY221011GA1021+003609999GA2021+009009999GA3071+015009999GF107991071051004501999999MA1100001999999MD1710091+9999MW1211REMSYN023 333 81712 84630 86650;MET008NEW NOSIEQDQ01+000000PRSWM2
0200039620999991996010320004+52700-008917SY-MT+0020EINN V0201501N00981007501CN0200001N1+01201+00991099981ADDAG12999AY161021AY221021GA1021+003609999GA2071+007509999GA3071+015009999GF108991081061004501999999MA1099901999999MD1810071+9999MW1211REMSYN023 333 82712 85717 86630;MET008NEW NOSIEQDQ01+000000PRSWM2
0200039620999991996010321004+52700-008917SY-MT+0020EINN V0201501N01031006001CN0200001N1+01261+01011099941ADDAG12001AY161031AY221031GA1021+003009999GA2071+006009999GA3071+015009999GF108991081061004501999999MA1099901999999MD1710111+9999MW1211REMSYN023 333 82712 85717 87630;MET008NEW NOSIEQDQ01+000000PRSWM2
0200039620999991996010322004+52700-008917SY-MT+0020EINN V0201501N00931006001CN0180001N1+01241+01011099961ADDAG12999AY161011AY221011GA1021+003909999GA2071+006009999GA3071+010509999GF108991081051004501999999MA1099901999999MD1510051+9999MW1601REMSYN023 333 83714 86620 87635;MET008NEW NOSIEQDQ01+000000PRSWM2
0181039620999991996010323004+52700-008917SY-MT+0020EINN V0201501N00821004201CN0100001N1+01201+01031099931ADDAG12999AY161021AY261021GA1021+003309999GA2071+004209999GA3071+006609999GF108991081061004501999999MA1099901999999MD1710051+9999MW1611REMSYN023 333 82711 86714 87622;MET008NEW NOSI
0192039620999991996010400004+52700-008917SY-MT+0020EINN V0201501N00821003601CN0120001N1+01161+01031099911ADDAA106002091AG12001AY161061AY221061GA1021+002409999GA2071+003609999GA3071+006609999GF108991081061004501999999MA1099901999999MD1810031+9999MW1611REMSYN023 333 82712 84715 87623;MET008NEW NOSI
0096039620999991996010400304+52700-008917FM-15+0020EINN V0201601N00721008401CN0112651N1+01201+01001999999ADDAG12999GA1021+003909999GA2021+004509999GA3071+008409999MA1099801999999MW1611REMMET008NEW NOSI
0199039620999991996010402004+52700-008917SY-MT+0020EINN V0202501N00101002701CN0080001N1+00991+00891099861ADDAG12999AY161021AY251021GA1021+001809999GA2071+002709999GA3071+004209999GF108991081061002501999999MA1099801999999MD1710071+9999MW1581MW2611REMSYN023 333 82706 85711 87717;MET020NEW TEMPO 5000 BKN00
0199039620999991996010403004+52700-008917SY-MT+0020EINN V0209991C00001003001CN0100001N1+00991+00891099861ADDAG12001AY161031AY251031GA1021+001809999GA2071+003009999GA3071+006009999GF108991081061001501999999MA1099801999999MD1710051+9999MW1511MW2611REMSYN023 333 82705 86710 87716;MET020NEW TEMPO 5000 BKN00
0193039620999991996010404004+52700-008917SY-MT+0020EINN V0209991C00001001201CN0070001N1+00961+00861099811ADDAG12999AY161011AY251011GA1021+000309999GA2071+001209999GA3071+003009999GF108991081061001501999999MA1099801999999MD1710091+9999MW1501MW2511MW3611REMSYN023 333 81703 85711 87635;MET008NEW NOSI
0212039620999991996010405004+52700-008917SY-MT+0020EINN V0209991C00001003001CN0080001N1+00871+00791099761ADDAG12999AY121021AY221021GA1021+000909999GA2071+003009999GA3071+009009999GF107991071051001501999999MA1099701999999MD1710091+9999MW1111REMSYN023 333 82703 85710 87630;MET020NEW TEMPO 5000 BKN00EQDQ01+000000PRSWM2
0267039620999991996010406004+52700-008917SY-MT+0020EINN V0202901N00051060001CN0004001N1+00671+00581099801ADDAA199005091AG12001AY161061AY251061ED199U07009GA1021+000609999GA2021+009009999GA3071+060009999GF107991051061000251001021GJ100009IA1099IA2999+00109KA1120N+00671MA1099701999999MD1510061+9999MW1121MW2461REMSYN035 333 20067 31001 55000 85701 86070;MET015NEW TEMPO 1200;
0170039620999991996010407004+52700-008917SY-MT+0020EINN V0209991C00001000301CN0002001N1+00661+00591099801ADDAG12999AY141011AY241011ED199U06509GA1071+000309999GA2071+060009999GF109991091999999999999999MA1099701999999MD1610011+9999MW1441MW2471REMSYN011 333 89/01;MET008NEW NOSI
0143039620999991996010408004+52700-008917SY-MT+0020EINN V0209991C00001000151CN0004001N1+00661+00571099791ADDAG12999AY141021AY241021GA1091+000159999GF109991091999999999999999MA1099701999999MD1010021+9999MW1431MW2441REMSYN011 333 89/01;MET008NEW NOSI
0154039620999991996010409004+52700-008917SY-MT+0020EINN V0209991C00001000151CN0003001N1+00671+00631099781ADDAG12000AY141031AY241031ED199U05009GA1091+000159999GF109991091999999999999999MA1099701999999MD1810021+9999MW1441MW2471REMSYN011 333 89/01;MET008NEW NOSI
0176039620999991996010410004+52700-008917SY-MT+0020EINN V0209991C00001060001CN0004001N1+00621+00601099771ADDAG12999AY141011AY241011ED199U04509GA1021+000309999GA2071+060009999GF107991031061000251001021MA1099701999999MD1710031+9999MW1421MW2441REMSYN017 333 83701 87070;MET008NEW NOSI
0176039620999991996010411004+52700-008917SY-MT+0020EINN V0201101N00051000301CN0003001N1+00671+00601099731ADDAG12999AY141021AY241021ED199U04509GA1071+000309999GA2071+000909999GF108991081061000251999999MA1099701999999MD1710061+9999MW1441MW2461REMSYN017 333 85701 86703;MET008NEW NOSI
0178039620999991996010412004+52700-008917SY-MT+0020EINN V0201101N00051000301CN0002001N1+00751+00661099621ADDAA106999929AG13000AY141061AY241061ED199U04009GA1081+000309999GF108991081061000251999999MA1099591999999MD1710151+9999MW1441MW2461REMSYN017 333 86701 86703;MET015NEW BECMG 0800;
0155039620999991996010413004+52700-008917SY-MT+0020EINN V0201201N00101000301CN0002001N1+00801+00711099531ADDAG11999AY141011AY241011ED199U05009GA1081+000309999GF108991081061000251999999MA1099491999999MD1710231+9999MW1441REMSYN011 333 88701;MET015NEW BECMG 0800;
0150039620999991996010414004+52700-008917SY-MT+0020EINN V0201301N00151000301CN0001001N1+00781+00711099431ADDAG11999AY141021AY241021GA1081+000309999GF109991091999999999999999MA1099391999999MD1710291+9999MW1441MW2471REMSYN011 333 89/01;MET015NEW BECMG 0800;
0155039620999991996010415004+52700-008917SY-MT+0020EINN V0209991C00001000151CN0001001N1+00791+00751099391ADDAG11000AY141031AY241031ED199U05509GA1091+000159999GF109991091999999999999999MA1099391999999MD1710231+9999MW1451REMSYN011 333 89/01;MET015NEW BECMG 0800;
0175039620999991996010416004+52700-008917SY-MT+0020EINN V0201401N00051000301CN0001001N1+00791+00751099321ADDAG11999AY141011AY241011ED199U05009GA1071+000309999GF109991091999999999999999MA1099291999999MD1610211+9999MW1441MW2451REMSYN011 333 89/01;MET029NEW BECMG 1200 SCT001 BKN002;
0189039620999991996010417004+52700-008917SY-MT+0020EINN V0201101N00311000151CN0001001N1+00781+00711099271ADDAG11999AY141021AY241021ED199U03009GA1091+000159999GF109991091061000251999999MA1099191999999MD1610161+9999MW1421MW2451REMSYN011 333 87701;MET008NEW NOSIEQDQ01+000072SCOTCVQ02+000072SCOTLC
0157039620999991996010418004+52700-008917FM-12+0020EINN V0201401N00261000301CN0003001N1+00741+00701099311ADDAA199999929AG13000AY141061AY241061GA1081+000309079GF108991081061000251999999KA1120M+00801MD1510081+9999MW1421REMSYN017 333 10080 88701;EQDQ01+000432PRSWM1
0224039620999991996010418004+52700-008917SY-MT+0020EINN V0201401N00261000301CN0003001N1+00741+00701099311ADDAA199999929AG13000AY141061AY241061ED199U15009GA1071+000309999GF108991081061000251999999KA1120M+00801MA1099291999999MD1510081+9999MW1421MW2441REMSYN017 333 10080 88701;MET029NEW BECMG 2000 SCT002 BKN005;EQDQ01+000432PRSWM1
0239039620999991996010419004+52700-008917SY-MT+0020EINN V0201201N00311002701CN0006001N1+00721+00651099191ADDAG11999AY141011AY241011GA1021+001509999GA2071+002709999GF199999051061000251001001MA1099191999999MD1710131+9999MW1461REMSYN041 333 83701 83709 98558 98758 90108 90002;MET029NEW TEMPO 0400 BKN001 BKN002;EQDQ01+000052SCOTCVQ02+000000PRSWM2
0196039620999991996010420004+52700-008917SY-MT+0020EINN V0201001N00361002101CN0080001N1+00641+00581099111ADDAG11999AY141021AY221021GA1021+001209999GA2021+003609999GF105991051061002501001001MA1099091999999MD1810161+9999MW1281REMSYN023 333 82707 84716 90108;MET020NEW TEMPO 0500 BKN00EQDQ01+000000PRSWM2
0206039620999991996010421004+52700-008917SY-MT+0020EINN V0201101N00411004801CN0120001N1+00671+00601099041ADDAG11000AY141031AY221031GA1021+002109999GA2071+004809999GF199999051061002501001001MA1098981999999MD1610271+9999MW1101REMSYN017 333 82708 85718;MET020NEW TEMPO 2000 BKN00EQDQ01+000052SCOTCVQ02+000000PRSWM2
0194039620999991996010422004+52700-008917SY-MT+0020EINN V0201201N00571006301CN0130001N1+00721+00631098951ADDAG11999AY121011AY221011GA1021+003009999GA2071+006309999GF199999051051004501001001MA1098921999999MD1710251+9999MW1101REMSYN017 333 81713 85622;MET008NEW NOSIEQDQ01+000052SCOTCVQ02+000000PRSWM2
0172039620999991996010423004+52700-008917SY-MT+0020EINN V0201301N00721006001CN0200001N1+00821+00621098821ADDAG11999GA1021+004509999GA2071+006009999GF199999051051004501001001MA1098921999999MD1710291+9999REMSYN017 333 81716 85621;MET008NEW NOSIEQDQ01+000052SCOTCVQ02+000000PRSWM2
0189039620999991996010500004+52700-008917SY-MT+0020EINN V0201201N00671004201CN0200001N1+00811+00631098741ADDAA106999929AG13000AY141061AY221061GA1021+004809999GA2021+006609999GF106991061051004501999999MA1098711999999MD1710301+9999MW1031REMSYN017 333 81716 86620;MET008NEW NOSIEQDQ01+000000PRSWM2
0093039620999991996010500304+52700-008917FM-15+0020EINN V0201101N00621007501CN0112651N1+00901+00701999999ADDAG11999GA1021+005109999GA2071+007509999MA1098611999999REMMET008NEW NOSIEQDQ01+000000PRSWM2
0184039620999991996010502004+52700-008917SY-MT+0020EINN V0201301N00931005101CN0250001N1+01001+00771098451ADDAG12999AY161021AY221021GA1071+005109999GA2071+007509999GF107991071061004501999999MA1098511999999MD1710371+9999MW1601REMSYN023 333 82710 84715 87620;MET008NEW NOSIEQDQ01+000000PRSWM2
0189039620999991996010503004+52700-008917SY-MT+0020EINN V0201401N00981004201CN0200001N1+01031+00861098351ADDAG12001AY161031AY261031GA1021+002709999GA2071+004209999GA3071+005709999GF108991081061002501999999MA1098411999999MD1710391+9999MW1611OC101491REMSYN023 333 82709 85714 87622;MET008NEW NOSI
0187039620999991996010504004+52700-008917SY-MT+0020EINN V0201501N00721004201CN0200001N1+00951+00761098331ADDAG12999AY161011AY221011GA1021+002709999GA2071+004209999GA3071+006609999GF107991071061002501999999MA1098311999999MD1710251+9999MW1211MW2611REMSYN023 333 82709 85714 87622;MET008NEW NOSI
0172039620999991996010505004+52700-008917SY-MT+0020EINN V0201401N00511010501CN0250001N1+00881+00761098331ADDAG12999GA1021+003309999GA2021+004209999GA3071+010509999GF107991071061004501999999MA1098311999999MD1610121+9999REMSYN017 333 84715 87625;MET008NEW NOSIEQDQ01+000000PRSWM2
0252039620999991996010506004+52700-008917SY-MT+0020EINN V0201401N00461010501CN0250001N1+00891+00701098341ADDAA199001091AG12001AY161061AY221061GA1021+006009999GA2071+010509999GF107991071061004501999999GJ100009IA1099IA2999+00409KA1120N+00621MA1098311999999MD1510011+9999MW1021REMSYN041 333 20062 31004 55000 82712 84620 87635;MET008NEW NOSIEQDQ01+000000PRSWM2
0187039620999991996010507004+52700-008917SY-MT+0020EINN V0201701N00461006001CN0250001N1+00881+00601098381ADDAG12999AY161011AY221011GA1021+003009999GA2071+006009999GA3071+018009999GF107991071051004501999999MA1098311999999MD1310051+9999MW1601MW2611REMSYN023 333 82712 83635 87650;MET008NEW NOSI
0178039620999991996010508004+52700-008917SY-MT+0020EINN V0201501N00461015001CN0250001N1+00781+00601098441ADDAG12999AY161021AY221021GA1021+004509999GA2071+015009999GF107991071051004501999999MA1098411999999MD1210111+9999MW1211REMSYN017 333 82715 87650;MET008NEW NOSIEQDQ01+000000PRSWM2
0200039620999991996010509004+52700-008917SY-MT+0020EINN V0201501N00511060001CN0250001N1+00751+00621098471ADDAG12001AY161031AY221031GA1021+005409999GA2021+010509999GA3071+060009999GF107991051081004501031081MA1098411999999MD1210131+9999MW1021REMSYN023 333 81818 85645 87270;MET008NEW NOSIEQDQ01+000000PRSWM2
0194039620999991996010510004+52700-008917SY-MT+0020EINN V0201701N00311060001CN0250001N1+00741+00611098551ADDAG12999GA1021+006009999GA2021+013509999GA3071+060009999GF199999031081004501001021MA1098511999999MD1210171+9999REMSYN023 333 81712 83656 85075;MET008NEW NOSIEQDQ01+000062SCOTCVQ02+000000PRSWM2
0200039620999991996010511004+52700-008917SY-MT+0020EINN V0201601N00411075001CN0250001N1+00811+00611098611ADDAG12999AY181021AY221021GA1021+003609999GA2021+018009999GA3071+075009999GF107991051081004501001021MA1098511999999MD1210171+9999MW1801REMSYN023 333 81712 83825 85070;MET008NEW NOSIEQDQ01+000000PRSWM2
0198039620999991996010512004+52700-008917SY-MT+0020EINN V0201801N00411018001CN0300001N1+00851+00591098661ADDAA106000191AG12001AY181061AY261061GA1021+003609999GA2021+007509999GA3071+018009999GF107991071081008001999021MA1098611999999MD1210191+9999MW1251MW2801REMSYN023 333 83825 86650 85070;MET008NEW NOSI
0206039620999991996010513004+52700-008917SY-MT+0020EINN V0201701N00461015001CN0300001N1+00931+00581098671ADDAG12999AY181011AY221011GA1021+007509999GA2071+015009999GA3071+060009999GF199999041081004501001021MA1098611999999MD1110121+9999MW1251MW2801REMSYN023 333 81712 83825 85070;MET008NEW NOSIEQDQ01+000062SCOTCV
0181039620999991996010514004+52700-008917SY-MT+0020EINN V0201901N00311015001CN0250001N1+00891+00581098701ADDAG12999AY181021AY221021GA1021+003609999GA2021+007509999GA3071+015009999GF107991061031004501999021MA1098711999999MD1210091+9999MW1801REMSYN023 333 81716 83921 85650;MET008NEW NOSI
0194039620999991996010515004+52700-008917SY-MT+0020EINN V0201501N00361060001CN0350001N1+00981+00641098701ADDAG12001AY181031AY221031GA1021+004809999GA2021+006009099GA3021+060009999GF105991021091008001061021MA1098711999999MD1210041+9999MW1251REMSYN017 333 81920 83070;MET008NEW NOSIEQDQ01+000000PRSWM2
0150039620999991996010516004+52700-008917SY-MT+0020EINN V0201401N00361220001CN0350001N1+00961+00681098721ADDAG12999GA1021+006309099GA2021+015009999GF102991011091008001061011MA1098711999999MD1210051+9999REMSYN011 333 81922;MET008NEW NOSIEQDQ01+000000PRSWM2
0150039620999991996010517004+52700-008917SY-MT+0020EINN V0201401N00361220001CN0300001N1+00731+00601098761ADDAG12999GA1021+006909099GF199999011091008001061001MA1098711999999MD1310061+9999REMSYN011 333 81923;MET008NEW NOSIEQDQ01+000012SCOTCVQ02+000000PRSWM2
0202039620999991996010518004+52700-008917SY-MT+0020EINN V0201501N00411220001CN0300001N1+00671+00511098761ADDAA199000591AG12001AY181061AY221061GA1021+006909099GF199999011091008001001001KA1120M+01001MA1098711999999MD1010051+9999MW1021REMSYN017 333 10100 81923;MET008NEW NOSIEQDQ01+000012SCOTCVQ02+000000PRSWM2
0150039620999991996010519004+52700-008917SY-MT+0020EINN V0201101N00461220001CN0250001N1+00611+00521098761ADDAG12999GA1021+006909099GF199999011031008001001001MA1098711999999MD1010031+9999REMSYN011 333 81923;MET008NEW NOSIEQDQ01+000012SCOTCVQ02+000000PRSWM2
0172039620999991996010520004+52700-008917SY-MT+0020EINN V0201101N00571220001CN0150001N1+00611+00521098681ADDAG12999GA1021+004809999GA2021+006909099GF199999011031004501001001MA1098711999999MD1810081+9999REMSYN017 333 81716 81923;MET008NEW NOSIEQDQ01+000012SCOTCVQ02+000000PRSWM2
0172039620999991996010521004+52700-008917SY-MT+0020EINN V0201201N00461220001CN0200001N1+00561+00471098641ADDAG12000GA1021+004809999GA2021+006909099GF199999011031004501001001MA1098611999999MD1810111+9999REMSYN017 333 81715 81923;MET008NEW NOSIEQDQ01+000012SCOTCVQ02+000000PRSWM2
0140039620999991996010522004+52700-008917SY-MT+0020EINN V0201201N00511220001CN0200001N1+00631+00491098581ADDAG12999GA1021+006909999GF104991011051012501001021MA1098611999999MD1710171+9999REMSYN017 333 81635 84070;MET008NEW NOSIEQDQ01+000000PRSWM2
0093039620999991996010522304+52700-008917FM-15+0020EINN V0201201N00621060001CN0112651N1+00701+00501999999ADDAG12999GA1021+010509999GA2071+060009999MA1098511999999REMMET008NEW NOSIEQDQ01+000000PRSWM2
0172039620999991996010523004+52700-008917SY-MT+0020EINN V0201101N00671220001CN0200001N1+00691+00531098451ADDAG12999GA1021+010509999GA2071+060009999GF199999011051012501001021MA1098511999999MD1710231+9999REMSYN017 333 81635 84070;MET008NEW NOSIEQDQ01+000042SCOTCVQ02+000000PRSWM2
0179039620999991996010600004+52700-008917SY-MT+0020EINN V0201201N00821075001CN0200001N1+00791+00611098331ADDAA106999929AG11000AY121061AY211061GA1021+060009999GF106991041051002501001021MA1098411999999MD1710311+9999MW1601REMSYN023 333 81709 84625 85070;MET008NEW NOSIEQDQ01+000000PRSWM2
0187039620999991996010601004+52700-008917SY-MT+0020EINN V0201201N00871005401CN0200001N1+00841+00641098181ADDAG12999AY161011AY221011GA1021+002709999GA2071+005409999GA3071+007509999GF107991071061002501999999MA1098211999999MD1710401+9999MW1211MW2611REMSYN023 333 81709 85718 86625;MET008NEW NOSI
0178039620999991996010602004+52700-008917SY-MT+0020EINN V0201301N01031005401CN0200001N1+00921+00681098031ADDAG11999GA1021+002709999GA2071+005409999GA3071+007509999GF107991071051002501999999MA1098101999999MD1710421+9999REMSYN023 333 81709 83714 87621;MET008NEW NOSIEQDQ01+000000PRSWM2
0208039620999991996010603004+52700-008917SY-MT+0020EINN V0201201N01231006301CN0080001N1+00931+00761097871ADDAG12001AY161031AY251031GA1021+002709999GA2021+004209999GA3071+006309999GF108991081061002501999999MA1097901999999MD1710461+9999MW1581OC101491REMSYN023 333 82706 85710 87715;MET008NEW NOSIEQDQ01+000000PRSWM2
0199039620999991996010604004+52700-008917SY-MT+0020EINN V0201301N01131004501CN0150001N1+01001+00751097671ADDAG12999AY161011AY251011GA1021+002409999GA2071+004509999GA3071+009009999GF108991081061002501999999MA1097601999999MD1710511+9999MW1501MW2511REMSYN023 333 81708 85715 87630;MET020NEW TEMPO 5000 BKN00
0211039620999991996010605004+52700-008917SY-MT+0020EINN V0201401N01291004501CN0200001N1+01001+00771097531ADDAG12999AY161021AY251021GA1021+002409999GA2071+004509999GA3071+008109999GF108991081051004501999999MA1097491999999MD1710501+9999MW1511MW2601MW3611REMSYN029 333 82712 85620 88650 91139;MET020NEW TEMPO 5000 BKN00
0275039620999991996010606004+52700-008917SY-MT+0020EINN V0201401N01341006001CN0150001N1+00961+00771097431ADDAA199002091AG12001AY161061AY251061GA1021+003609999GA2071+006009999GA3081+015009999GF108991081051004501999999GJ101329IA1099IA2999+00309KA1120N+00531MA1097391999999MD1710441+9999MW1611OC102311REMSYN047 333 20053 31003 55022 82712 85620 88650 91145;MET020NEW TEMPO 5000 BKN00
0213039620999991996010607004+52700-008917SY-MT+0020EINN V0201301N01591005401CN0200001N1+00971+00691097271ADDAG12999AY161011AY221011GA1021+002409999GA2071+005409999GA3081+015009999GF108991081051004501999999MA1097291999999MD1710401+9999MW1211MW2631OC102211REMSYN029 333 83710 85620 88650 91147;MET020NEW TEMPO 5000 BKN00
0213039620999991996010608004+52700-008917SY-MT+0020EINN V0201301N01751005401CN0150001N1+00991+00711097201ADDAG12999AY161021AY221021GA1021+002409999GA2071+005409999GA3071+009009999GF108991081061002501999999MA1097191999999MD1710331+9999MW1211MW2611OC102471REMSYN029 333 83709 85715 87622 91149;MET020NEW TEMPO 5000 BKN00
0230039620999991996010609004+52700-008917SY-MT+0020EINN V0201301N01591004501CN0080001N1+00961+00751097121ADDAG12001AY161031AY251031GA1021+002709999GA2071+004509999GA3071+006609999GF108991081061002501999999MA1097091999999MD1710311+9999MW1581MW2611OA149902471OC102161REMSYN035 333 83707 85712 87622 91148 98165;MET020NEW TEMPO 5000 BKN00
0213039620999991996010610004+52700-008917SY-MT+0020EINN V0201301N01491003601CN0060001N1+00941+00771097081ADDAG12999AY161011AY251011GA1021+002109999GA2071+003609999GA3071+006009999GF108991081071002501999999MA1097091999999MD1710191+9999MW1611MW2631OC102211REMSYN029 333 83707 86710 88620 91146;MET020NEW TEMPO 5000 BKN00
0077039620999991996010610304+52700-008917FM-16+0020EINN V0201201N01391999999CN0112651N1+99999+99999999999ADDAG10999MW1631OC101951REMMET044NEW FEW 008 BKN014 OVC020 09/08 Q0970 NOSIG;
0195039620999991996010611004+52700-008917SY-MT+0020EINN V0201301N01391004501CN0120001N1+00951+00761097071ADDAG12999AY161021AY261021GA1021+002709999GA2071+004509999GA3081+007509999GF108991081071002501999999MA1096991999999MD1610131+9999MW1631OC102161REMSYN029 333 82709 85715 88625 91142;MET008NEW NOSI
0219039620999991996010612004+52700-008917SY-MT+0020EINN V0201201N01341005101CN0120001N1+00951+00781096981ADDAA106006091AG12001AY161061AY251061GA1021+002709999GA2071+005109999GA3071+009009999GF108991081071002501999999MA1096881999999MD1710141+9999MW1611OC102111REMSYN035 333 82709 86717 98630 90710 91141;MET015NEW RERA NOSIG;
0189039620999991996010613004+52700-008917SY-MT+0020EINN V0201201N01181003901CN0150001N1+01021+00851096811ADDAG12999AY161011AY221011GA1021+002409999GA2071+003909999GA3081+005409999GF108991081071002501999999MA1096881999999MD1810271+9999MW1211MW2611OC101751REMSYN017 333 83709 88713;MET008NEW NOSI
0201039620999991996010614004+52700-008917SY-MT+0020EINN V0201201N01231005401CN0200001N1+01061+00861096711ADDAG12999AY161021AY221021GA1021+003009999GA2071+005409999GA3081+007509999GF108991081071002501999999MA1096721999999MD1710361+9999MW1211MW2611OC101801REMSYN029 333 83709 87715 88625 91137;MET008NEW NOSI
0220039620999991996010615004+52700-008917SY-MT+0020EINN V0201201N01031005101CN0120001N1+01091+00911096591ADDAG12001AY161031AY221031GA1021+002709999GA2071+005109999GA3081+007509999GF108991081061002501999999MA1096611999999MD1710391+9999MW1601OC101701REMSYN035 333 83707 86715 87625 90710 91137;MET008NEW NOSIEQDQ01+000000PRSWM2
0214039620999991996010616004+52700-008917SY-MT+0020EINN V0201201N01131005401CN0200001N1+01061+00791096511ADDAG12999AY181011AY261011GA1021+003009999GA2071+005409999GA3071+009009999GF107991071081004501999999MA1096511999999MD1710301+9999MW1251OC101901REMSYN029 333 82707 84818 85640 91137;MET008NEW NOSIEQDQ01+000000PRSWM2
0200039620999991996010617004+52700-008917SY-MT+0020EINN V0201201N01081006001CN0200001N1+01101+00831096431ADDAG12999AY181021AY221021GA1021+003009999GA2071+006009999GA3071+012009999GF107991071081004501999999MA1096411999999MD1710281+9999MW1801REMSYN023 333 82710 86820 85640;MET008NEW NOSIEQDQ01+000000PRSWM2
0238039620999991996010618004+52700-008917SY-MT+0020EINN V0201201N01031006001CN0200001N1+01111+00821096331ADDAA199008091AG12001AY181061AY261061GA1021+003009999GA2071+006009999GA3071+012009999GF107991071081004501999999KA1120M+01111MA1096311999999MD1710261+9999MW1251OC101651REMSYN029 333 10111 81710 85820 85640;MET008NEW NOSIEQDQ01+000000PRSWM2
0187039620999991996010619004+52700-008917SY-MT+0020EINN V0201301N01231006001CN0080001N1+01101+00921096241ADDAG12999AY181011AY221011GA1021+002409999GA2071+006009999GA3071+012009999GF107991071081002501999999MA1096211999999MD1710271+9999MW1801MW2811REMSYN023 333 82707 86818 91135;MET008NEW NOSI
0179039620999991996010620004+52700-008917SY-MT+0020EINN V0201201N01181005401CN0120001N1+01081+00881096141ADDAG12999AY181021AY221021GA1021+002109999GA2071+005409999GF107991071081004501999999MA1096211999999MD1710291+9999MW1801OC101441REMSYN029 333 81710 85818 85650 91134;MET008NEW NOSI
0201039620999991996010621004+52700-008917SY-MT+0020EINN V0201201N01031005401CN0150001N1+01121+00921096141ADDAG12001AY181031AY221031GA1021+002409999GA2071+005409999GA3071+015009999GF107991071081002501999999MA1096111999999MD1610191+9999MW1801OC101751REMSYN035 333 82708 85818 85650 90710 91137;MET008NEW NOSI
0193039620999991996010622004+52700-008917SY-MT+0020EINN V0201201N00931004201CN0050001N1+01111+00951096101ADDAG12999AY181011AY221011GA1021+002109999GA2071+004209999GA3071+006009999GF108991081021001501999999MA1096111999999MD1710141+9999MW1801REMSYN035 333 83705 86715 87820 98160 98360;MET008NEW NOSI
0181039620999991996010623004+52700-008917SY-MT+0020EINN V0201301N00931015001CN0080001N1+01111+00951096051ADDAG12999AY181021AY221021GA1021+002709999GA2021+006009999GA3081+015009999GF108991081081002501999999MA1096001999999MD1710091+9999MW1801REMSYN023 333 83707 83715 85820;MET008NEW NOSI
0192039620999991996010700004+52700-008917SY-MT+0020EINN V0201201N00871006001CN0200001N1+01121+00961096031ADDAA106005091AG12001AY181061AY221061GA1021+002109999GA2071+006009999GA3081+015009999GF108991081081004501999999MA1096001999999MD1710111+9999MW1801REMSYN023 333 82715 86820 88650;MET008NEW NOSI
0187039620999991996010701004+52700-008917SY-MT+0020EINN V0201301N00461006001CN0150001N1+01081+00941096031ADDAG12999AY181011AY221011GA1021+004509999GA2071+006009999GA3081+015009999GF108991081081004501999999MA1096001999999MD1610071+9999MW1611MW2801REMSYN023 333 83715 86820 88650;MET008NEW NOSI
0194039620999991996010702004+52700-008917SY-MT+0020EINN V0201401N00571015001CN0250001N1+01031+00911096091ADDAG12999AY181021AY211021GA1021+006909999GA2071+015009999GF199999051081008001001001MA1096001999999MD1310041+9999MW1251REMSYN017 333 83823 85650;MET008NEW NOSIEQDQ01+000052SCOTCVQ02+000000PRSWM2
0184039620999991996010703004+52700-008917SY-MT+0020EINN V0201801N00571015001CN0250001N1+01081+00921096221ADDAG12001AY181031AY221031GA1021+006909999GA2071+015009999GF199999061081008001999999MA1096111999999MD1310191+9999MW1251MW2801REMSYN017 333 83820 85650;MET008NEW NOSIEQDQ01+000062SCOTCV
0172039620999991996010704004+52700-008917SY-MT+0020EINN V0202101N00871015001CN0250001N1+01081+00811096351ADDAG12999GA1021+005409999GA2071+015009999GF199999061081004501999999MA1096211999999MD1310321+9999REMSYN017 333 83818 85650;MET008NEW NOSIEQDQ01+000062SCOTCVQ02+000000PRSWM2
0188039620999991996010705004+52700-008917SY-MT+0020EINN V0202201N00821005401CN0250001N1+01031+00711096561ADDAG12999GA1021+003009999GA2071+005409999GA3071+015009999GF199999061081004501999999MA1096411999999MD1210461+9999REMSYN017 333 82710 85818;MET008NEW NOSIEQDQ01+000062SCOTCVQ02+000000PRSWM2
0254039620999991996010706004+52700-008917SY-MT+0020EINN V0202301N00931005401CN0200001N1+00981+00641096731ADDAA199006091AG12001AY181061AY221061GA1021+003009999GA2071+005409999GF107991071081002501999999GJ100009IA1099IA2999+00809KA1120N+00931MA1096611999999MD1210501+9999MW1801OC101391REMSYN035 333 20093 31008 55000 82709 87818;MET008NEW NOSIEQDQ01+000000PRSWM2
0208039620999991996010707004+52700-008917SY-MT+0020EINN V0202201N00771009601CN0200001N1+00911+00681096911ADDAG12999AY181011AY221011GA1021+003009999GA2021+005409999GA3071+009609999GF107991071081002501999999MA1096821999999MD1210551+9999MW1801OC101231REMSYN023 333 82709 85818 87632;MET008NEW NOSIEQDQ01+000000PRSWM2
0181039620999991996010708004+52700-008917SY-MT+0020EINN V0202201N00931005401CN0200001N1+00911+00631097141ADDAG12999AY181021AY221021GA1021+002709999GA2071+005409999GA3071+009609999GF107991071081002501999999MA1096881999999MD1210581+9999MW1801REMSYN023 333 82709 85818 87632;MET008NEW NOSI
0195039620999991996010709004+52700-008917SY-MT+0020EINN V0202201N00931005401CN0150001N1+00921+00521097271ADDAG12001AY181031AY221031GA1021+002709999GA2071+005409999GA3071+009609999GF107991071081002501999999MA1097091999999MD1210541+9999MW1611MW2801OC101441REMSYN023 333 82709 84818 86630;MET008NEW NOSI
0178039620999991996010710004+52700-008917SY-MT+0020EINN V0202201N00821005401CN0150001N1+00921+00421097451ADDAG12999GA1021+002709999GA2071+005409999GA3071+010509999GF107991071061002501999999MA1097291999999MD1210551+9999REMSYN023 333 82709 83718 85635;MET008NEW NOSIEQDQ01+000000PRSWM2
0162039620999991996010711004+52700-008917SY-MT+0020EINN V0202201N00871030001CN0200001N1+00971+00431097691ADDAG12999GA1021+002709999GA2021+005409999GF107991041081004501031999MA1097491999999MD1210561+9999REMSYN023 333 81710 84823 85650;MET008NEW NOSIEQDQ01+000000PRSWM2
0205039620999991996010712004+52700-008917SY-MT+0020EINN V0202301N01031060001CN0250001N1+01031+00401097861ADDAA106000191AG12001AY181061AY221061GA1021+003009999GA2021+027009999GA3071+060009999GF107991011081004501001021MA1097701999999MD1210601+9999MW1021REMSYN017 333 81710 87070;MET008NEW NOSIEQDQ01+000000PRSWM2
0192039620999991996010713004+52700-008917SY-MT+0020EINN V0202301N00821060001CN0200001N1+00941+00421098041ADDAG12999AY181011AY221011GA1021+003009999GA2071+060009999GF107991071091004501999999MA1097901999999MD1210591+9999MW1801OC101441REMSYN023 333 81710 81918 87820;MET008NEW NOSIEQDQ01+000000PRSWM2
0194039620999991996010714004+52700-008917SY-MT+0020EINN V0202201N00821220001CN0200001N1+01021+00431098121ADDAG12999AY181021AY211021GA1021+004509999GA2021+005409099GF199999011071004501001011MA1098001999999MD1210431+9999MW1251REMSYN017 333 81715 81918;MET008NEW NOSIEQDQ01+000012SCOTCVQ02+000000PRSWM2
0188039620999991996010715004+52700-008917SY-MT+0020EINN V0202201N00721220001CN0250001N1+01051+00371098251ADDAG12001AY181031AY211031GA1021+004509999GA2021+006009099GF199999011021004501001011MA1098101999999MD1210391+9999MW1011REMSYN011 333 81715;MET008NEW NOSIEQDQ01+000012SCOTCVQ02+000000PRSWM2
0150039620999991996010716004+52700-008917SY-MT+0020EINN V0202201N00671220001CN0250001N1+00971+00401098401ADDAG12999GA1021+004509999GF199999011021008001001011MA1098311999999MD1210361+9999REMSYN011 333 81820;MET008NEW NOSIEQDQ01+000012SCOTCVQ02+000000PRSWM2
0166039620999991996010717004+52700-008917SY-MT+0020EINN V0202001N00461220001CN0250001N1+00841+00451098511ADDAG12999GA1021+004509999GA2021+006009099GF199999011091008001001011MA1098411999999MD1210391+9999REMSYN011 333 81920;MET008NEW NOSIEQDQ01+000012SCOTCVQ02+000000PRSWM2
0202039620999991996010718004+52700-008917SY-MT+0020EINN V0201901N00511220001CN0250001N1+00851+00471098591ADDAA199000191AG12001AY181061AY211061GA1021+006009099GF199999011031008001001001KA1120M+01061MA1098511999999MD1210341+9999MW1021REMSYN017 333 10106 81920;MET008NEW NOSIEQDQ01+000012SCOTCVQ02+000000PRSWM2
0150039620999991996010719004+52700-008917SY-MT+0020EINN V0201001N00361220001CN0250001N1+00801+00521098681ADDAG12999GA1021+006609999GF199999011081008001001001MA1098611999999MD1210281+9999REMSYN011 333 81822;MET008NEW NOSIEQDQ01+000012SCOTCVQ02+000000PRSWM2
0156039620999991996010720004+52700-008917SY-MT+0020EINN V0201601N00311220001CN0250001N1+00821+00431098731ADDAG12999GA1021+006609999GA2021+012009999GF103991031081008001001001MA1098711999999MD1110221+9999REMSYN017 333 81822 83640;MET008NEW NOSIEQDQ01+000000PRSWM2
0150039620999991996010721004+52700-008917SY-MT+0020EINN V0201801N00411220001CN0250001N1+00761+00441098801ADDAG12000GA1021+012009999GF199999011051012501001001MA1098821999999MD1210211+9999REMSYN011 333 81640;MET008NEW NOSIEQDQ01+000012SCOTCVQ02+000000PRSWM2
0109039620999991996010722004+52700-008917SY-MT+0020EINN V0201501N00411220001CN0250001N1+00691+00461098841ADDAG12999GF100991001001999999001001MA1098821999999MD1210151+9999REMMET016NEW CAVOK NOSIG;EQDQ01+000000PRSWM2
0109039620999991996010723004+52700-008917SY-MT+0020EINN V0201401N00461220001CN0250001N1+00631+00471098831ADDAG12999GF100991001001999999001001MA1098821999999MD1110091+9999REMMET016NEW CAVOK NOSIG;EQDQ01+000000PRSWM2
0137039620999991996010800004+52700-008917SY-MT+0020EINN V0201401N00461220001CN0250001N1+00641+00501098791ADDAA106999929AG13000GF101991011051017501001001MA1098711999999MD1810021+9999REMSYN011 333 81650;MET016NEW CAVOK NOSIG;EQDQ01+000000PRSWM2
0126039620999991996010801004+52700-008917SY-MT+0020EINN V0201201N00511220001CN0250001N1+00701+00541098781ADDAG11999GF101991011051012501031001MA1098821999999MD1710061+9999REMSYN011 333 81636;MET016NEW CAVOK NOSIG;EQDQ01+000000PRSWM2
0156039620999991996010802004+52700-008917SY-MT+0020EINN V0201201N00571220001CN0250001N1+00801+00601098671ADDAG11999GA1021+010809999GA2021+075009999GF104991011051012501001021MA1098711999999MD1810161+9999REMSYN017 333 81636 84075;MET008NEW NOSIEQDQ01+000000PRSWM2
0178039620999991996010803004+52700-008917SY-MT+0020EINN V0201201N00621060001CN0250001N1+00891+00661098491ADDAG11000GA1021+006609999GA2021+011409999GA3071+060009999GF107991051051008001001061MA1098611999999MD1810291+9999REMSYN023 333 82622 84636 86270;MET008NEW NOSIEQDQ01+000000PRSWM2
0178039620999991996010804004+52700-008917SY-MT+0020EINN V0201201N00821010501CN0260001N1+00971+00741098331ADDAG11999GA1021+005409999GA2071+010509999GA3071+060009999GF108991061051004501999061MA1098311999999MD1710441+9999REMSYN023 333 82716 85625 87270;MET008NEW NOSIEQDQ01+000000PRSWM2
0200039620999991996010805004+52700-008917SY-MT+0020EINN V0201201N00931010201CN0200001N1+01031+00801098081ADDAG12999AY161021AY221021GA1021+005109999GA2071+010209999GA3071+036009999GF108991081061004501999999MA1098101999999MD1710581+9999MW1601REMSYN023 333 81710 85716 88630;MET008NEW NOSIEQDQ01+000000PRSWM2
0256039620999991996010806004+52700-008917SY-MT+0020EINN V0201301N01181004801CN0150001N1+01061+00881097921ADDAA199000191AG12001AY161061AY221061GA1021+003009999GA2071+004809999GA3081+009009999GF108991081061002501999999GJ102229IA1099IA2999+00409KA1120N+00631MA1097901999999MD1710571+9999MW1611REMSYN041 333 20063 31004 55037 83709 86714 88625;MET015NEW BECMG 8000;
0201039620999991996010807004+52700-008917SY-MT+0020EINN V0201401N01131003601CN0150001N1+01071+00911097791ADDAG12999AY161011AY261011GA1021+002709999GA2071+003609999GA3081+006009999GF108991081061002501999999MA1097801999999MD1710541+9999MW1611OC101701REMSYN023 333 83709 86714 88620;MET020NEW BECMG 8000 BKN01
0188039620999991996010808004+52700-008917SY-MT+0020EINN V0201301N01031003001CN0120001N1+01091+00951097591ADDAG12999AY161021AY261021GA1021+002109999GA2071+003009999GA3081+005409999GF108991081061002501999999MA1097701999999MD1810491+9999MW1611REMSYN023 333 83708 86714 88718;MET015NEW TEMPO 4000;
0188039620999991996010809004+52700-008917SY-MT+0020EINN V0201501N01131003601CN0090001N1+01211+01021097471ADDAG12001AY161031AY261031GA1021+002709999GA2071+003609999GA3081+005409999GF108991081061002501999999MA1097391999999MD1710451+9999MW1611REMSYN023 333 82709 85712 88718;MET015NEW TEMPO 4000;
0188039620999991996010810004+52700-008917SY-MT+0020EINN V0201501N01081004201CN0070001N1+01201+01031097391ADDAG12999AY161011AY261011GA1021+002709999GA2071+004209999GA3081+004809999GF108991081061002501999999MA1097291999999MD1710401+9999MW1611REMSYN023 333 82709 85714 87620;MET015NEW TEMPO 4000;
0200039620999991996010811004+52700-008917SY-MT+0020EINN V0201601N00931004201CN0120001N1+01291+01021097411ADDAG12999AY161021AY221021GA1021+002409999GA2071+004209999GA3071+007509999GF108991081061002501999999MA1097291999999MD1510171+9999MW1601REMSYN023 333 83708 85713 87718;MET008NEW NOSIEQDQ01+000000PRSWM2
0221039620999991996010812004+52700-008917SY-MT+0020EINN V0201701N01131220001CN0180001N1+01341+00991097401ADDAA106005091AG12001AY161061AY221061GA1021+003009999GA2021+005409999GA3071+012009999GF199999031031004501001021MA1097391999999MD1510061+9999MW1211REMSYN017 333 81710 82920;MET008NEW NOSIEQDQ01+000042SCOTCVQ02+000000PRSWM2
0184039620999991996010813004+52700-008917SY-MT+0020EINN V0201701N01031006001CN0200001N1+01241+00821097421ADDAG12999AY181011AY221011GA1021+003009999GA2071+006009099GF199999051031004501999021MA1097391999999MD1110031+9999MW1251MW2801REMSYN017 333 81710 84920;MET008NEW NOSIEQDQ01+000062SCOTCV
0168039620999991996010814004+52700-008917SY-MT+0020EINN V0201601N00871006001CN0200001N1+01151+00781097431ADDAG12999GA1021+003009999GA2071+006009099GF107991051031004501001081MA1097291999999MD1210011+9999REMSYN029 333 81715 81925 85650 87270;MET008NEW NOSIEQDQ01+000000PRSWM2
0187039620999991996010815004+52700-008917SY-MT+0020EINN V0201501N00821054001CN0050001N1+01101+00881097411ADDAG12001AY181031AY221031GA1021+004509999GA2021+007509099GA3071+054009999GF108991061031002501071999MA1097291999999MD1510001+9999MW1801MW2811REMSYN023 333 82708 85918 85458;MET008NEW NOSI
0195039620999991996010816004+52700-008917SY-MT+0020EINN V0201601N00671024001CN0250001N1+00961+00681097401ADDAG12999AY181011AY221011GA1021+002409999GA2021+005409099GA3071+024009999GF107991031091004501031021MA1097391999999MD1710021+9999MW1251MW2801REMSYN023 333 81712 82920 85070;MET016NEW RERA NOSIKU;
0178039620999991996010817004+52700-008917SY-MT+0020EINN V0201701N00871220001CN0250001N1+00981+00621097471ADDAG12999AY181021AY211021GA1021+003609999GA2021+006609099GF103991021091004501001021MA1097391999999MD1310041+9999MW1251REMSYN017 333 81712 81922;MET008NEW NOSIEQDQ01+000000PRSWM2
0186039620999991996010818004+52700-008917SY-MT+0020EINN V0201501N00771220001CN0250001N1+00951+00631097491ADDAA199008091AG12001AY181061AY211061GA1021+005409099GF102991021091004501001001KA1120M+01341MA1097391999999MD1310081+9999MW1011REMSYN017 333 10134 82918;MET008NEW NOSIEQDQ01+000000PRSWM2
0134039620999991996010819004+52700-008917SY-MT+0020EINN V0201601N00671220001CN0250001N1+00991+00631097571ADDAG12999GA1021+005409099GF103991031091004501001001MA1097491999999MD1210171+9999REMSYN011 333 81918;MET008NEW NOSIEQDQ01+000000PRSWM2
0178039620999991996010820004+52700-008917SY-MT+0020EINN V0201601N00821030001CN0250001N1+01051+00581097561ADDAG12999GA1021+005409099GA2021+009009999GA3071+030009999GF107991051031004501031999MA1097491999999MD1010091+9999REMSYN023 333 83918 83630 85360;MET008NEW NOSIEQDQ01+000000PRSWM2
0199039620999991996010821004+52700-008917SY-MT+0020EINN V0201601N01031004501CN0180001N1+01051+00601097531ADDAG12004AY181031AY211031GA1021+002409999GA2081+004509099GF199999071091004501999999MA1097601999999MD1010041+9999MW1651MW2801REMSYN023 333 83710 83918 86630;MET017NEW TEMPO BKN010;EQDQ01+000072SCOTCV
0205039620999991996010822004+52700-008917SY-MT+0020EINN V0201601N01341004501CN0200001N1+00871+00561097551ADDAG12999AY181011AY221011GA1021+003009999GA2071+004509099GF107991071031004501999999MA1097491999999MD1610021+9999MW1251MW2821OA149902471OC102211REMSYN029 333 83710 85918 91148 91234;MET017NEW TEMPO BKN010;
0207039620999991996010823004+52700-008917SY-MT+0020EINN V0201701N01031220001CN0250001N1+00901+00551097641ADDAG12999AY181021AY211021GA1021+002709999GA2071+005409099GF199999031031004501001001MA1097601999999MD1310081+9999MW1251MW2801OC101951REMSYN023 333 82710 83918 91138;MET017NEW TEMPO BKN010;EQDQ01+000032SCOTCV
0192039620999991996010900004+52700-008917SY-MT+0020EINN V0201801N00511220001CN0250001N1+00881+00571097751ADDAA106005091AG12001AY181061AY211061GA1021+002709999GA2021+005409099GF102991021031004501001001MA1097701999999MD1310221+9999MW1011REMSYN011 333 82918;MET017NEW TEMPO BKN010;EQDQ01+000000PRSWM2
0181039620999991996010901004+52700-008917SY-MT+0020EINN V0201501N00361220001CN0300001N1+00881+00531097831ADDAG12999GA1021+004809999GA2021+006009099GF199999011031004501001001MA1097701999999MD1210281+9999REMSYN017 333 81716 81920;MET017NEW TEMPO BKN010;EQDQ01+000012SCOTCVQ02+000000PRSWM2
0140039620999991996010902004+52700-008917SY-MT+0020EINN V0201201N00211220001CN0300001N1+00781+00561097861ADDAG12999GA1021+006009099GF103991031031008001001001MA1097801999999MD1110221+9999REMSYN017 333 81920 83650;MET008NEW NOSIEQDQ01+000000PRSWM2
0156039620999991996010903004+52700-008917SY-MT+0020EINN V0201601N00461220001CN0260001N1+00801+00561097871ADDAG12000GA1021+006009099GA2021+009009999GF103991031031008001001001MA1097801999999MD1110121+9999REMSYN017 333 81920 83630;MET008NEW NOSIEQDQ01+000000PRSWM2
0156039620999991996010904004+52700-008917SY-MT+0020EINN V0201601N00671220001CN0260001N1+00921+00641097861ADDAG12999GA1021+006009099GA2021+010509999GF104991041031004501001001MA1097801999999MD1010031+9999REMSYN017 333 81919 84635;MET008NEW NOSIEQDQ01+000000PRSWM2
0156039620999991996010905004+52700-008917SY-MT+0020EINN V0201401N00721004201CN0260001N1+00901+00621097871ADDAG12999GA1021+005709099GA2021+010509999GF105991051031004501001001MA1097801999999MD1210011+9999REMSYN017 333 81919 83650;MET008NEW NOSIEQDQ01+000000PRSWM2
0246039620999991996010906004+52700-008917SY-MT+0020EINN V0201501N00821015001CN0300001N1+00881+00481097861ADDAA199005091AG12000GA1021+005709099GA2021+009009999GA3071+015009999GF107991071031004501999999GJ100249IA1099IA2999+00309KA1120N+00761MA1097801999999MD1710011+9999REMSYN041 333 20076 31003 55004 81919 83630 85650;MET008NEW NOSIEQDQ01+000000PRSWM2
0162039620999991996010907004+52700-008917SY-MT+0020EINN V0201501N00771015001CN0300001N1+00791+00471097871ADDAG12999GA1021+005709099GA2071+015009999GF107991071031004501999999MA1097801999999MD1210011+9999REMSYN023 333 81919 83630 86650;MET008NEW NOSIEQDQ01+000000PRSWM2
0166039620999991996010908004+52700-008917SY-MT+0020EINN V0201501N00621220001CN0300001N1+00751+00531097961ADDAG12999GA1021+005709099GA2071+015009999GF199999031081004501001001MA1097901999999MD1310091+9999REMSYN011 333 81816;MET008NEW NOSIEQDQ01+000032SCOTCVQ02+000000PRSWM2
0140039620999991996010909004+52700-008917SY-MT+0020EINN V0201501N00571220001CN0350001N1+00761+00561098031ADDAG11000GA1021+004809999GF102991021031004501001001MA1097901999999MD1310171+9999REMSYN017 333 81816 81918;MET008NEW NOSIEQDQ01+000000PRSWM2
0172039620999991996010910004+52700-008917SY-MT+0020EINN V0201501N00621220001CN0350001N1+00751+00571098021ADDAG11999GA1021+003609999GA2021+005409099GF104991999081008001001001MA1098001999999MD1010151+9999REMSYN017 333 81820 83070;MET008NEW NOSIEQDQ01+000022SCOTLCQ02+000000PRSWM2
0134039620999991996010911004+52700-008917SY-MT+0020EINN V0201601N00621220001CN0350001N1+00931+00601098151ADDAG11999GA1021+006009999GF102991021081008001001021MA1098101999999MD1310191+9999REMSYN011 333 81820;MET008NEW NOSIEQDQ01+000000PRSWM2
0161039620999991996010912004+52700-008917SY-MT+0020EINN V0201501N00571220001CN0350001N1+01001+00661098191ADDAA106000091AG11000GA1021+006009099GF199999011031008001001021MA1098101999999MD1310161+9999REMSYN011 333 81920;MET008NEW NOSIEQDQ01+000012SCOTCVQ02+000000PRSWM2
0134039620999991996010913004+52700-008917SY-MT+0020EINN V0201701N00461220001CN0350001N1+01131+00611098221ADDAG11999GA1021+006009099GF103991021031008001001021MA1098211999999MD1210201+9999REMSYN011 333 81920;MET008NEW NOSIEQDQ01+000000PRSWM2
0178039620999991996010914004+52700-008917SY-MT+0020EINN V0201901N00671004201CN0200001N1+01021+00931098291ADDAG12999AY181021AY211021GA1021+006009099GA2021+010509999GF106991061031004501999999MA1098211999999MD1210141+9999MW1801REMSYN017 333 82710 86918;MET008NEW NOSIEQDQ01+000000PRSWM2
0178039620999991996010915004+52700-008917SY-MT+0020EINN V0202101N00511005401CN0300001N1+00901+00551098401ADDAG12001AY181031AY221031GA1021+003609999GA2071+005409099GF107991071091004501999999MA1098311999999MD1310211+9999MW1251REMSYN017 333 82712 86918;MET008NEW NOSIEQDQ01+000000PRSWM2
0165039620999991996010916004+52700-008917SY-MT+0020EINN V0202101N00311005401CN0300001N1+00881+00621098531ADDAG12999AY181011AY221011GA1021+003609999GA2071+005409099GF107991071031004501999999MA1098411999999MD1310311+9999MW1251MW2801REMSYN017 333 83714 83918;MET008NEW NOSI
0178039620999991996010917004+52700-008917SY-MT+0020EINN V0202601N00411004201CN0250001N1+00771+00501098701ADDAG12999AY181021AY221021GA1021+004209999GA2021+005409099GF107991071031004501999999MA1098611999999MD1210411+9999MW1251REMSYN017 333 82714 85918;MET008NEW NOSIEQDQ01+000000PRSWM2
0200039620999991996010918004+52700-008917SY-MT+0020EINN V0202101N00261004201CN0200001N1+00721+00611098821ADDAA199001091AG12001AY181061AY281061GA1021+004509999GF107991071031004501999999KA1120M+01141MD1210411+9999MW1251MW2801REMSYN029 333 10114 82712 83918 85650;MET038NEW SCR020CB BKN050 08/06 Q0987 NOSIG;
0156039620999991996010919004+52700-008917SY-MT+0020EINN V0202101N00051015001CN0200001N1+00701+00571098911ADDAG12999GA1021+005409099GA2071+015009999GF107991071031004501999999MA1098821999999MD1210371+9999REMSYN017 333 82918 87650;MET008NEW NOSIEQDQ01+000000PRSWM2
0187039620999991996010920004+52700-008917SY-MT+0020EINN V0202301N00211015001CN0120001N1+00721+00541099031ADDAG12999AY181021AY221021GA1021+002409999GA2021+005409099GA3071+015009999GF107991071031002501999999MA1098981999999MD1210321+9999MW1801MW2811REMSYN023 333 83708 84918 85656;MET008NEW NOSI
0084039620999991996010920304+52700-008917FM-16+0020EINN V0209991C00001220001CN0112651N1+99999+99999999999ADDAG10999GA1021+005409099REMMET030NEW BKN 060 07/06 Q0990 NOSIG;EQDQ01+000000PRSWM2
0114039620999991996010921004+52700-008917FM-12+0020EINN V0209991C00001004201CN0200001N1+00641+00531099121ADDAG12001AY181031AY281031GA1031+005409099GF107991071031004501999999MD1210301+9999MW1251REMSYN017 333 83918 86656;
0150039620999991996010922004+52700-008917SY-MT+0020EINN V0209991C00001220001CN0200001N1+00621+00481099201ADDAG12999GA1021+005409099GA2021+018009999GF103991031031004501999999MA1099091999999MD1210291+9999REMSYN011 333 81918;MET008NEW NOSIEQDQ01+000000PRSWM2
0156039620999991996010923004+52700-008917SY-MT+0020EINN V0201101N00051220001CN0200001N1+00561+00471099291ADDAG12999GA1021+005409099GA2021+012009999GF104991041031002501001001MA1099191999999MD1210261+9999REMSYN017 333 81709 83918;MET008NEW NOSIEQDQ01+000000PRSWM2
0195039620999991996011000004+52700-008917SY-MT+0020EINN V0201701N00101220001CN0200001N1+00561+00421099371ADDAA106001091AG12001AY181061AY281061GA1021+005409099GA2021+010509999GF104991041031002501001001MA1099291999999MD1210251+9999MW1021REMSYN023 333 81709 81918 84635;MET008NEW NOSIEQDQ01+000000PRSWM2
0156039620999991996011001004+52700-008917SY-MT+0020EINN V0201901N00051015001CN0200001N1+00521+00401099431ADDAG12999GA1021+005409099GA2071+015009999GF107991071031004501999999MA1099291999999MD1210231+9999REMSYN017 333 81918 87650;MET008NEW NOSIEQDQ01+000000PRSWM2
0156039620999991996011002004+52700-008917SY-MT+0020EINN V0202201N00211015001CN0200001N1+00601+00411099501ADDAG12999GA1021+005409099GA2071+015009999GF107991071051012501999999MA1099391999999MD1210211+9999REMSYN017 333 82630 87650;MET008NEW NOSIEQDQ01+000000PRSWM2
0156039620999991996011003004+52700-008917SY-MT+0020EINN V0202001N00211015001CN0200001N1+00601+00391099591ADDAG12000GA1021+009009999GA2071+015009999GF107991071051012501999999MA1099491999999MD1210221+9999REMSYN017 333 82630 86650;MET008NEW NOSIEQDQ01+000000PRSWM2
0200039620999991996011004004+52700-008917SY-MT+0020EINN V0201701N00101015001CN0200001N1+00571+00431099621ADDAG12999AY181011AY221011GA1021+005409099GA2021+009009999GA3071+015009999GF107991071031004501999999MA1099591999999MD1210191+9999MW1251REMSYN023 333 81918 83630 87650;MET008NEW NOSIEQDQ01+000000PRSWM2
0156039620999991996011005004+52700-008917SY-MT+0020EINN V0201601N00211220001CN0200001N1+00501+00381099711ADDAG12999GA1021+005409099GA2021+015009999GF104991041031004501001001MA1099591999999MD1210211+9999REMSYN017 333 81918 84645;MET008NEW NOSIEQDQ01+000000PRSWM2
0230039620999991996011006004+52700-008917SY-MT+0020EINN V0201601N00101009001CN0250001N1+00431+00331099811ADDAA199001091AG11001AY181061AY211061GA1021+005409999GF105991051081004501001001GJ101509IA1099IA2999-00109KA1120N+00421MA1099701999999MD1310221+9999MW1031REMSYN035 333 20042 31101 55025 81818 85640;MET008NEW NOSIEQDQ01+000000PRSWM2
0150039620999991996011007004+52700-008917SY-MT+0020EINN V0201601N00211220001CN0300001N1+00411+00261099931ADDAG11999GA1021+005409999GF199999011081004501001001MA1099801999999MD1210311+9999REMSYN011 333 81818;MET008NEW NOSIEQDQ01+000012SCOTCVQ02+000000PRSWM2
0134039620999991996011008004+52700-008917SY-MT+0020EINN V0201401N00101220001CN0250001N1+00381+00231100001ADDAG11999GA1021+005409999GF102991021081004501001001MA1099901999999MD1210291+9999REMSYN011 333 81818;MET008NEW NOSIEQDQ01+000000PRSWM2
0146039620999991996011009004+52700-008917SY-MT+0020EINN V0201201N00151220001CN0300001N1+00351+00231100081ADDAG11000GA1021+005409999GF103991031081004501001001MA1100001999999MD1210271+9999REMSYN023 333 81818 83640 92600;MET008NEW NOSIEQDQ01+000000PRSWM2
0150039620999991996011010004+52700-008917SY-MT+0020EINN V0201201N00311220001CN0200001N1+00371+00221100101ADDAG11999GA1021+006009999GF199999011051012501001001MA1100001999999MD1110171+9999REMSYN011 333 81630;MET008NEW NOSIEQDQ01+000012SCOTCVQ02+000000PRSWM2
0150039620999991996011011004+52700-008917SY-MT+0020EINN V0201201N00361220001CN0200001N1+00491+00271100131ADDAG11999GA1021+009009999GF199999011051017501001001MA1100101999999MD1210131+9999REMSYN011 333 81650;MET008NEW NOSIEQDQ01+000012SCOTCVQ02+000000PRSWM2
0137039620999991996011012004+52700-008917SY-MT+0020EINN V0201201N00211220001CN0200001N1+00711+00331100141ADDAA106999929AG13000GF101991011051017501001001MA1100101999999MD1010061+9999REMSYN011 333 81650;MET016NEW CAVOK NOSIG;EQDQ01+000000PRSWM2
0109039620999991996011013004+52700-008917SY-MT+0020EINN V0201101N00411220001CN0300001N1+00791+00471100091ADDAG11999GF100991001001999999001001MA1100101999999MD1810011+9999REMMET016NEW CAVOK NOSIG;EQDQ01+000000PRSWM2
0109039620999991996011014004+52700-008917SY-MT+0020EINN V0201301N00361220001CN0300001N1+00921+00471100081ADDAG11999GF100991001001999999001001MA1100001999999MD1510051+9999REMMET016NEW CAVOK NOSIG;EQDQ01+000000PRSWM2
0126039620999991996011015004+52700-008917SY-MT+0020EINN V0201201N00261220001CN0250001N1+00951+00511100051ADDAG11000GF101991001001999999001021MA1100001999999MD1710091+9999REMSYN011 333 81070;MET016NEW CAVOK NOSIG;EQDQ01+000000PRSWM2
0150039620999991996011016004+52700-008917SY-MT+0020EINN V0201301N00261220001CN0300001N1+00681+00351099991ADDAG11999GA1021+005709999GF199999011021004501021021MA1099901999999MD1710101+9999REMSYN011 333 81819;MET008NEW NOSIEQDQ01+000012SCOTCVQ02+000000PRSWM2
0150039620999991996011017004+52700-008917SY-MT+0020EINN V0201101N00311220001CN0250001N1+00521+00271099931ADDAG11999GA1021+005709999GF199999011051012501001021MA1099901999999MD1710151+9999REMSYN011 333 81630;MET008NEW NOSIEQDQ01+000012SCOTCVQ02+000000PRSWM2
0178039620999991996011018004+52700-008917SY-MT+0020EINN V0201101N004110750019N0200001N1+00521+00321099901ADDAA199999929AG13000GA1011+030009039GF105991011001999999031021KA1120M+00921MA1099901999999MD1710151+9999REMSYN023 333 10092 81360 85070;MET016NEW CAVOK NOSIG;EQDQ01+000000PRSWM2
0178039620999991996011019004+52700-008917SY-MT+0020EINN V0201101N00511060001CN0120001N1+00501+00331099801ADDAG11999AY121011AY221011GA1021+006609999GA2071+060009999GF107991021051008001001021MA1099801999999MD1810191+9999MW1101REMSYN017 333 82622 86070;MET008NEW NOSIEQDQ01+000000PRSWM2
0148039620999991996011020004+52700-008917SY-MT+0020EINN V0201001N00571220001CN0150001N1+00541+00371099651ADDAG11999AY111021AY211021GF102991001001999999001011MA1099701999999MD1810281+9999MW1101REMSYN011 333 82070;MET016NEW CAVOK NOSIG;EQDQ01+000000PRSWM2
0126039620999991996011021004+52700-008917SY-MT+0020EINN V0201101N00621220001CN0200001N1+00541+00371099511ADDAG11000GF101991001001999999001011MA1099491999999MD1710391+9999REMSYN011 333 81070;MET016NEW CAVOK NOSIG;EQDQ01+000000PRSWM2
0165039620999991996011022004+52700-008917SY-MT+0020EINN V0201101N00621007501CN0200001N1+00611+00421099371ADDAG12999AY151011AY221011GA1021+005409999GA2021+012009999GF106991061051008001999999MA1099391999999MD1710431+9999MW1201MW2511REMSYN017 333 84621 84640;MET008NEW NOSI
0200039620999991996011023004+52700-008917SY-MT+0020EINN V0201101N00511012001CN0200001N1+00651+00441099201ADDAG12999AY161021AY221021GA1021+003609999GA2021+006009999GA3071+012009999GF199999041051004501001021MA1099191999999MD1710441+9999MW1211MW2611REMSYN017 333 81712 83640;MET008NEW NOSIEQDQ01+000052SCOTCV
0205039620999991996011100004+52700-008917SY-MT+0020EINN V0201001N00621060001CN0200001N1+00621+00481099021ADDAA106000191AG12001AY161061AY251061GA1021+005409999GA2071+060009999GF199999031061004501001021MA1099091999999MD1710491+9999MW1031REMSYN017 333 82718 85070;MET008NEW NOSIEQDQ01+000062SCOTCVQ02+000000PRSWM2
0156039620999991996011101004+52700-008917SY-MT+0020EINN V0201001N00511220001CN0200001N1+00641+00481098771ADDAG12999GA1021+009009999GA2021+060009999GF104991021051012501001021MA1098821999999MD1710601+9999REMSYN017 333 82640 83070;MET008NEW NOSIEQDQ01+000000PRSWM2
0156039620999991996011102004+52700-008917SY-MT+0020EINN V0201001N00821220001CN0200001N1+00641+00481098501ADDAG12999GA1021+009009999GA2021+060009999GF105991031051008001001061MA1098611999999MD1710701+9999REMSYN017 333 83622 84070;MET008NEW NOSIEQDQ01+000000PRSWM2
0178039620999991996011103004+52700-008917SY-MT+0020EINN V0201201N00981024001CN0200001N1+00791+00451098251ADDAG12000GA1021+006009999GA2071+024009999GA3071+054009999GF108991031051008001071061MA1098211999999MD1710761+9999REMSYN023 333 83620 85458 86268;MET008NEW NOSIEQDQ01+000000PRSWM2
0184039620999991996011104004+52700-008917SY-MT+0020EINN V0201201N01231024001CN0200001N1+00851+00421098001ADDAG12999GA1021+006009999GA2071+024009999GA3071+054009999GF108991031051012501071061MA1098101999999MD1710761+9999REMSYN029 333 83630 85458 87268 91134;MET008NEW NOSIEQDQ01+000000PRSWM2
0195039620999991996011105004+52700-008917SY-MT+0020EINN V0201301N01441009001CN0250001N1+00851+00421097781ADDAG12999AY161021AY221021GA1021+004509999GA2071+009009999GA3071+024009999GF108991081051008001999999MA1097901999999MD1710721+9999MW1211MW2611OC101901REMSYN023 333 85623 87630 91142;MET008NEW NOSI
0296039620999991996011106004+52700-008917SY-MT+0020EINN V0201101N01031006601CN0250001N1+00801+00461097511ADDAA199000191AG12001AY161061AY221061GA1021+004509999GA2071+006609999GA3071+009009999GF107991071051004501999999GJ103789IA1099IA2999+00209KA1120N+00491MA1097601999999MD1710741+9999MW1601MW2611OC101851REMSYN053 333 20049 31002 55063 81715 83620 87650 90710 91136;MET029NEW BECMG 4000 BKN008 OVC014;
0222039620999991996011107004+52700-008917SY-MT+0020EINN V0201101N01641006001CN0200001N1+00731+00451097191ADDAG12999AY161011AY221011GA1021+002409999GA2071+006009999GA3071+015009999GF108991081051002501999999MA1097291999999MD1710811+9999MW1211MW2611OC102011REMSYN029 333 81708 86620 87650 91149;MET029NEW BECMG 4000 BKN008 OVC014;
0239039620999991996011108004+52700-008917SY-MT+0020EINN V0201101N01641006001CN0200001N1+00731+00451096971ADDAG12999AY161021AY221021GA1021+004509999GA2071+006009999GA3071+015009999GF108991081051004501999999MA1097091999999MD1710811+9999MW1601MW2611OA149902521OC102111REMSYN035 333 82715 86620 87628 91149 91235;MET029NEW BECMG 4000 BKN008 OVC014;
0207039620999991996011109004+52700-008917SY-MT+0020EINN V0201101N01341006001CN0060001N1+00781+00601096901ADDAG12001AY161031AY251031GA1021+003309999GA2071+006009999GA3071+009009999GF108991081061001501999999MA1096821999999MD1510611+9999MW1581MW2611OC102061REMSYN035 333 83705 85710 87715 90710 91145;MET008NEW NOSI
0211039620999991996011110004+52700-008917SY-MT+0020EINN V0201101N00871003301CN0150001N1+00871+00731096911ADDAG12999AY161011AY251011GA1021+001809999GA2071+003309999GA3071+004509999GF107991071061002501999999MA1096821999999MD1610281+9999MW1211MW2511MW3611REMSYN029 333 82708 84715 86625 91134;MET020NEW BECMG 9999 BKN02
0178039620999991996011111004+52700-008917SY-MT+0020EINN V0201601N00931010501CN0200001N1+01101+00681096941ADDAG12999GA1021+003609999GA2021+005409999GA3071+010509999GF107991071081004501999999MA1096881999999MD1510031+9999REMSYN023 333 82712 83818 85635;MET008NEW NOSIEQDQ01+000000PRSWM2
0179039620999991996011112004+52700-008917SY-MT+0020EINN V0201601N00931004201CN0200001N1+01121+00651097021ADDAA106001091AG12001AY161061AY251061GA1021+006609999GF107991071051004501999999MA1096991999999MD1310121+9999MW1201REMSYN023 333 82715 84622 85650;MET008NEW NOSIEQDQ01+000000PRSWM2
0178039620999991996011113004+52700-008917SY-MT+0020EINN V0201601N00981013501CN0200001N1+01101+00611097031ADDAG12999GA1021+005409999GA2071+013509999GF199999061081004501999021MA1096991999999MD1110121+9999REMSYN023 333 81715 83818 85650;MET008NEW NOSIEQDQ01+000062SCOTCVQ02+000000PRSWM2
0200039620999991996011114004+52700-008917SY-MT+0020EINN V0201701N00931012001CN0200001N1+01021+00661097071ADDAG12999AY181021AY221021GA1021+005409999GA2021+009009999GA3071+012009999GF107991071081004501999999MA1096991999999MD1210131+9999MW1801REMSYN023 333 81712 84818 86640;MET008NEW NOSIEQDQ01+000000PRSWM2
0181039620999991996011115004+52700-008917SY-MT+0020EINN V0201301N00461006001CN0300001N1+00851+00621097091ADDAG12001AY181031AY221031GA1021+003609999GA2071+006009999GA3071+015009999GF107991071031004501999999MA1096991999999MD1210071+9999MW1251MW2801REMSYN017 333 81712 85920;MET008NEW NOSI
0210039620999991996011116004+52700-008917SY-MT+0020EINN V0201401N00721015001CN0200001N1+00941+00681097081ADDAG12999AY181011AY221011GA1021+003609999GA2021+006009099GA3071+015009999GF199999041091008001001031MA1096991999999MD1010051+9999MW1801REMSYN017 333 82920 85070;MET008NEW NOSIEQDQ01+000062SCOTCVQ02+000000PRSWM2
0162039620999991996011117004+52700-008917SY-MT+0020EINN V0201401N00621075001CN0200001N1+00871+00661097111ADDAG12999AY181021AY221021GA1021+006009099GF105991041031008001001021MA1096991999999MD1210041+9999MW1251REMSYN017 333 82920 83640;MET008NEW NOSIEQDQ01+000000PRSWM2
0192039620999991996011118004+52700-008917SY-MT+0020EINN V0201401N00461220001CN0250001N1+00871+00681097141ADDAA199001091AG12001AY181061AY211061GA1021+006009099GF104991041031008001001001KA1120M+01131MA1097091999999MD1310051+9999MW1011REMSYN023 333 10113 81920 83645;MET008NEW NOSIEQDQ01+000000PRSWM2
0134039620999991996011119004+52700-008917SY-MT+0020EINN V0201301N00621220001CN0250001N1+00831+00651097151ADDAG12999GA1021+006009099GF103991031031008001001001MA1097091999999MD1110071+9999REMSYN011 333 81920;MET008NEW NOSIEQDQ01+000000PRSWM2
0156039620999991996011120004+52700-008917SY-MT+0020EINN V0201401N00511009001CN0250001N1+00871+00661097191ADDAG12999GA1021+006009099GA2021+012009999GF105991051081004501001001MA1097091999999MD1210081+9999REMSYN017 333 81823 84646;MET008NEW NOSIEQDQ01+000000PRSWM2
0156039620999991996011121004+52700-008917SY-MT+0020EINN V0201301N00461004201CN0250001N1+00831+00651097211ADDAG12000GA1021+006609999GA2021+013509999GF105991051031004501001001MA1097191999999MD1210071+9999REMSYN017 333 82917 83822;MET008NEW NOSIEQDQ01+000000PRSWM2
0134039620999991996011122004+52700-008917SY-MT+0020EINN V0201301N00621220001CN0250001N1+00801+00601097231ADDAG12999GA1021+005409099GF103991031031004501001001MA1097191999999MD1210081+9999REMSYN011 333 81918;MET008NEW NOSIEQDQ01+000000PRSWM2
0156039620999991996011123004+52700-008917SY-MT+0020EINN V0201201N00511012001CN0250001N1+00751+00621097221ADDAG12999GA1021+006009999GA2021+012009999GF105991051081008001001001MA1097191999999MD1010031+9999REMSYN017 333 81820 84640;MET008NEW NOSIEQDQ01+000000PRSWM2
0161039620999991996011200004+52700-008917SY-MT+0020EINN V0201301N00511220001CN0200001N1+00781+00651097261ADDAA106000091AG14000GA1021+006009999GF199999011081008001001001MA1097191999999MD1310051+9999REMSYN011 333 81820;MET008NEW NOSIEQDQ01+000012SCOTCVQ02+000000PRSWM2
0150039620999991996011201004+52700-008917SY-MT+0020EINN V0201201N00411220001CN0250001N1+00701+00591097281ADDAG12999GA1021+006009999GF199999011051012501001001MA1097191999999MD1310051+9999REMSYN011 333 81640;MET008NEW NOSIEQDQ01+000012SCOTCVQ02+000000PRSWM2
0146039620999991996011202004+52700-008917SY-MT+0020EINN V0201401N00411220001CN0250001N1+00701+00591097301ADDAG12999GA1021+012009999GF103991011051012501001051MA1097191999999MD1210081+9999REMSYN023 333 81640 83270 99020;MET008NEW NOSIEQDQ01+000000PRSWM2
0162039620999991996011203004+52700-008917SY-MT+0020EINN V0201101N00411220001CN0250001N1+00681+00571097331ADDAG11000GA1021+012009999GA2021+060009999GF105991011051012501001061MA1097291999999MD1210071+9999REMSYN023 333 81640 85270 99020;MET008NEW NOSIEQDQ01+000000PRSWM2
0156039620999991996011204004+52700-008917SY-MT+0020EINN V0201101N00411060001CN0250001N1+00701+00591097351ADDAG11999GA1021+012009999GA2071+060009999GF108991011051012501001071MA1097291999999MD1310071+9999REMSYN017 333 81640 88270;MET008NEW NOSIEQDQ01+000000PRSWM2
0172039620999991996011205004+52700-008917SY-MT+0020EINN V0201401N00411054001CN0250001N1+00801+00671097341ADDAG11999GA1021+012009999GA2081+054009999GF199999021051012501001081MA1097291999999MD1110041+9999REMSYN017 333 82640 87268;MET008NEW NOSIEQDQ01+000072SCOTCVQ02+000000PRSWM2
0240039620999991996011206004+52700-008917SY-MT+0020EINN V0201301N00511054001CN0250001N1+00861+00741097351ADDAA199999929AG13000GA1021+012009999GA2071+054009999GF199999021051012501001081GJ100669IA1099IA2999+00409KA1120N+00651MA1097291999999MD1210021+9999REMSYN035 333 20065 31004 55011 82640 86268;MET008NEW NOSIEQDQ01+000062SCOTCVQ02+000000PRSWM2
0187039620999991996011207004+52700-008917SY-MT+0020EINN V0201401N00671024001CN0200001N1+00891+00721097361ADDAG12999AY161011AY221011GA1021+012009999GA2071+024009999GA3071+054009999GF108991021051008001071061MA1097291999999MD1210011+9999MW1601MW2611REMSYN023 333 82620 85458 87268;MET008NEW NOSI
0187039620999991996011208004+52700-008917SY-MT+0020EINN V0201401N00721024001CN0200001N1+00911+00741097411ADDAG12999AY161021AY221021GA1021+006009999GA2071+024009999GA3071+054009999GF108991031051012501071081MA1097291999999MD1310071+9999MW1601MW2611REMSYN023 333 83640 85458 87268;MET008NEW NOSI
0181039620999991996011209004+52700-008917SY-MT+0020EINN V0201401N00621012001CN0140001N1+00901+00731097451ADDAG12001AY161031AY221031GA1021+004509999GA2071+012009999GA3071+024009999GF108991061051004501071999MA1097391999999MD1310101+9999MW1611REMSYN023 333 82715 85645 87458;MET008NEW NOSI
0181039620999991996011210004+52700-008917SY-MT+0020EINN V0201401N00721024001CN0160001N1+00891+00751097461ADDAG12999AY161041AY261041GA1021+004509999GA2021+010509999GA3071+024009999GF108991051051004501021999MA1097391999999MD1210101+9999MW1611REMSYN023 333 82712 83632 88458;MET008NEW NOSI
0187039620999991996011211004+52700-008917SY-MT+0020EINN V0201301N00621024001CN0150001N1+00921+00781097471ADDAG12999AY161021AY261021GA1021+004209999GA2021+018009999GA3071+024009999GF107991061051004501071999MA1097391999999MD1110061+9999MW1611REMSYN029 333 81714 85650 98580 98780;MET008NEW NOSI
0211039620999991996011212004+52700-008917SY-MT+0020EINN V0201401N00621015001CN0300001N1+00971+00781097471ADDAA106002091AG12001AY161061AY221061GA1021+004209999GA2071+015009999GA3071+024009999GF107991061051004501071999MA1097391999999MD1110021+9999MW1211REMSYN023 333 82714 85650 87458;MET008NEW NOSIEQDQ01+000000PRSWM2
0171039620999991996011213004+52700-008917SY-MT+0020EINN V0201201N00621024001CN0250001N1+00991+00801097451ADDAG12999AY161011AY221011GA1021+003909999GA2071+024009999GF107991061051004501021999MA1097391999999MD1810011+9999MW1601MW2611REMSYN023 333 82711 85650 87458;MET008NEW NOSI
0187039620999991996011214004+52700-008917SY-MT+0020EINN V0201101N00411005401CN0200001N1+01001+00861097471ADDAG12999AY161021AY261021GA1021+003009999GA2071+005409999GA3081+018009999GF108991051061004501021999MA1097391999999MD1510001+9999MW1601MW2611REMSYN023 333 82710 83718 87458;MET008NEW NOSI
0187039620999991996011215004+52700-008917SY-MT+0020EINN V0200901N00151015001CN0200001N1+01001+00861097551ADDAG12001AY161031AY221031GA1021+003009999GA2021+004809999GA3071+015009999GF107991061061004501021999MA1097491999999MD1310081+9999MW1601MW2611REMSYN023 333 82710 83716 85650;MET008NEW NOSI
0187039620999991996011216004+52700-008917SY-MT+0020EINN V0202901N00211015001CN0050001N1+01051+00891097721ADDAG12999AY161011AY221011GA1021+003009999GA2021+004809999GA3071+015009999GF107991071061002501999999MA1097601999999MD1310271+9999MW1601MW2611REMSYN023 333 83706 83710 85718;MET008NEW NOSI
0109039620999991996011217004+52700-008917FM-15+0020EINN V0202801N00411010501CN0112651N1+01001+00901999999ADDAG11999GA1021+003009999GA2021+005409999GA3071+010509999MA1097901999999REMMET008NEW NOSIEQDQ01+000000PRSWM2
0200039620999991996011217004+52700-008917SY-MT+0020EINN V0202801N00411009001CN0200001N1+00981+00861097911ADDAG12999AY161021AY221021GA1021+003009999GA2021+006009999GA3071+009009999GF107991071081004501999999MA1097801999999MD1310441+9999MW1211REMSYN023 333 81710 83818 85635;MET008NEW NOSIEQDQ01+000000PRSWM2
0246039620999991996011218004+52700-008917SY-MT+0020EINN V0202901N00511007201CN0200001N1+00971+00801098131ADDAA199003091AG10001AY181061AY261061GA1021+003309999GA2021+005109999GA3071+007209999GF107991071061004501999999KA1120M+01051MA1098101999999MD1210582+9999MW1251REMSYN029 333 10105 83711 84717 86624;MET008NEW NOSIEQDQ01+000582APC3  Q02+000000PRSWM2
0133039620999991996011219004+52700-008917FM-12+0020EINN V0202901N00511006001CN0200001N1+00931+00761098301ADDAG12999GA1031+003909079GA2041+006009059GF107991071051004501999999MD1210582+9999REMSYN023 333 83713 84620 86640;EQDQ01+000582APC3  
0178039620999991996011220004+52700-008917SY-MT+0020EINN V0202801N00671010501CN0250001N1+00941+00731098451ADDAG11999GA1021+003909999GA2021+004809999GA3071+010509999GF107991071061004501999999MA1098411999999MD1210541+9999REMSYN023 333 83713 84716 86635;MET008NEW NOSIEQDQ01+000000PRSWM2
0194039620999991996011221004+52700-008917SY-MT+0020EINN V0202701N00571012001CN0250001N1+00911+00721098631ADDAG11000GA1021+003909999GA2021+006909999GA3071+012009999GF199999061061004501999999MA1098611999999MD1210501+9999REMSYN023 333 83713 84623 86640;MET008NEW NOSIEQDQ01+000062SCOTCVQ02+000000PRSWM2
0140039620999991996011222004+52700-008917SY-MT+0020EINN V0202601N00511220001CN0250001N1+00901+00731098751ADDAG12999GA1021+006009999GF104991041051004501001001MA1098611999999MD1210451+9999REMSYN017 333 82713 83623;MET008NEW NOSIEQDQ01+000000PRSWM2
0156039620999991996011223004+52700-008917SY-MT+0020EINN V0202601N00511015001CN0250001N1+00961+00751098861ADDAG12999GA1021+003909999GA2071+015009999GF107991071051004501999999MA1098821999999MD1210411+9999REMSYN017 333 81714 87650;MET008NEW NOSIEQDQ01+000000PRSWM2
0183039620999991996011300004+52700-008917SY-MT+0020EINN V0202501N00571015001CN0250001N1+00951+00701098981ADDAA106000091AG14000GA1021+003309999GA2021+006309999GA3071+015009999GF107991071051008001999999MA1098921999999MD1210351+9999REMSYN017 333 81621 87650;MET008NEW NOSIEQDQ01+000000PRSWM2
0188039620999991996011301004+52700-008917SY-MT+0020EINN V0202501N00621015001CN0250001N1+00941+00711099071ADDAG12999GA1021+003009999GA2021+006309999GA3071+015009999GF199999061051004501999999MA1098981999999MD1210321+9999REMSYN017 333 82711 85650;MET008NEW NOSIEQDQ01+000062SCOTCVQ02+000000PRSWM2
0187039620999991996011302004+52700-008917SY-MT+0020EINN V0202501N00821015001CN0200001N1+00851+00711099181ADDAG12999AY161021AY221021GA1021+003309999GA2021+006309999GA3071+015009999GF107991071051004501999999MA1099091999999MD1210321+9999MW1601MW2611REMSYN023 333 82711 83621 87650;MET008NEW NOSI
0210039620999991996011303004+52700-008917SY-MT+0020EINN V0202401N00411015001CN0250001N1+00821+00671099251ADDAG12001AY161031AY251031GA1021+003309999GA2021+006309999GA3071+015009999GF199999051051004501001001MA1099191999999MD1210271+9999MW1601REMSYN017 333 81711 83630;MET008NEW NOSIEQDQ01+000052SCOTCVQ02+000000PRSWM2
0162039620999991996011304004+52700-008917SY-MT+0020EINN V0202301N00571220001CN0250001N1+00751+00511099281ADDAG12999AY161011AY251011GA1021+003309999GF104991041051004501001001MA1099191999999MD1210211+9999MW1211REMSYN017 333 81711 83621;MET008NEW NOSIEQDQ01+000000PRSWM2
0156039620999991996011305004+52700-008917SY-MT+0020EINN V0202001N00361075001CN0250001N1+00701+00491099371ADDAG12999GA1021+003909999GA2021+006609999GF105991031051004501001021MA1099291999999MD1210181+9999REMSYN017 333 81715 83625;MET008NEW NOSIEQDQ01+000000PRSWM2
0246039620999991996011306004+52700-008917SY-MT+0020EINN V0201801N00311220001CN0250001N1+00611+00401099431ADDAA199001091AG12001AY161061AY211061GA1021+004509999GA2021+009009999GF103991021051012501001021GJ100069IA1099IA2999+00309KA1120N+00611MA1099291999999MD1210171+9999MW1011REMSYN035 333 20061 31003 55001 82630 83070;MET008NEW NOSIEQDQ01+000000PRSWM2
0156039620999991996011307004+52700-008917SY-MT+0020EINN V0201401N00311030001CN0250001N1+00621+00381099421ADDAG12999GA1021+009009999GA2021+060009999GF106991031051012501031021MA1099391999999MD1110131+9999REMSYN017 333 83640 83070;MET008NEW NOSIEQDQ01+000000PRSWM2
0156039620999991996011308004+52700-008917SY-MT+0020EINN V0201401N00311012001CN0250001N1+00581+00311099411ADDAG12999GA1021+012009999GA2021+060009999GF107991051051012501031021MA1099391999999MD1010041+9999REMSYN017 333 85640 83070;MET008NEW NOSIEQDQ01+000000PRSWM2
0150039620999991996011309004+52700-008917SY-MT+0020EINN V0201501N00511011101CN0300001N1+00641+00431099431ADDAG12000GA1071+011109999GA2021+060009999GF107991071051012501999999MA1099391999999MD1510001+9999REMSYN011 333 87737;MET008NEW NOSIEQDQ01+000000PRSWM2
0199039620999991996011310004+52700-008917SY-MT+0020EINN V0201401N00571006601CN0100001N1+00721+00491099411ADDAG12999AY161011AY221011GA1021+004509999GA2071+006609999GA3081+012009999GF108991051051004501021999MA1099391999999MD1710011+9999MW1601MW2611REMSYN023 333 82713 84622 88550;MET020NEW BECMG SCT010 BKN
0199039620999991996011311004+52700-008917SY-MT+0020EINN V0201201N00621024001CN0250001N1+00781+00601099331ADDAG12999AY161021AY221021GA1021+003909999GA2021+009009999GA3081+024009999GF108991061061004501021999MA1099291999999MD1810071+9999MW1211MW2611REMSYN023 333 83710 85717 88458;MET020NEW BECMG SCT010 BKN
0218039620999991996011312004+52700-008917SY-MT+0020EINN V0201201N00771024001CN0400001N1+00941+00711099181ADDAA106001091AG12001AY161061AY211061GA1021+004209999GA2021+005409999GA3081+024009999GF108991071051004501021999MA1099191999999MD1810241+9999MW1021REMSYN023 333 83713 86623 88458;MET015NEW TEMPO 8000;EQDQ01+000000PRSWM2
0201039620999991996011313004+52700-008917SY-MT+0020EINN V0201401N00931004801CN0250001N1+01001+00771099061ADDAG12999AY161011AY221011GA1021+003609999GA2071+004809999GA3081+024009999GF108991081061004501999999MA1099091999999MD1710341+9999MW1501REMSYN017 333 82711 87715;MET015NEW TEMPO 8000;EQDQ01+000000PRSWM2
0208039620999991996011314004+52700-008917SY-MT+0020EINN V0201401N00931003301CN0200001N1+01031+00821099011ADDAG12999AY161021AY251021GA1071+003309999GA2021+005409999GA3081+015009999GF108991081061004501999999MA1098981999999MD1710321+9999MW1511MW2601OC101801REMSYN029 333 83712 85715 87650 91135;MET015NEW TEMPO 8000;
0187039620999991996011315004+52700-008917SY-MT+0020EINN V0201501N00871004501CN0150001N1+01051+00911098991ADDAG12001AY161031AY261031GA1021+003609999GA2071+004509999GA3071+007509999GF108991081061004501999999MA1098981999999MD1610191+9999MW1601MW2611REMSYN023 333 82710 85715 87625;MET008NEW NOSI
0207039620999991996011316004+52700-008917SY-MT+0020EINN V0201501N00871004501CN0200001N1+01111+00931098981ADDAG12999AY161011AY221011GA1021+003609999GA2071+004509999GA3081+024009999GF108991051061004501021999MA1098921999999MD1710081+9999MW1211REMSYN023 333 82712 85635 88458;MET015NEW TEMPO 8000;EQDQ01+000000PRSWM2
0216039620999991996011317004+52700-008917SY-MT+0020EINN V0201601N00571006001CN0100001N1+01121+00961099071ADDAG12999AY161021AY221021GA1021+003609999GA2071+006009999GA3081+024009999GF199999071061002501999999MA1098981999999MD1310061+9999MW1601REMSYN023 333 82708 85712 87620;MET008NEW NOSIEQDQ01+000072SCOTCVQ02+000000PRSWM2
0230039620999991996011318004+52700-008917SY-MT+0020EINN V0201601N00621010501CN0250001N1+01121+00901099171ADDAA199001091AG12001AY161061AY251061GA1021+003909999GA2021+006009999GA3071+010509999GF107991071051004501999999KA1120M+01131MA1099091999999MD1310181+9999MW1211REMSYN029 333 10113 82713 83620 86640;MET008NEW NOSIEQDQ01+000000PRSWM2
0172039620999991996011319004+52700-008917SY-MT+0020EINN V0201601N00671012001CN0300001N1+01091+00821099241ADDAG12999GA1021+004509999GA2021+007509999GA3071+012009999GF107991071051004501999999MA1099091999999MD1210261+9999REMSYN017 333 81715 86645;MET008NEW NOSIEQDQ01+000000PRSWM2
0156039620999991996011320004+52700-008917SY-MT+0020EINN V0201501N00461013501CN0300001N1+01021+00831099311ADDAG12999GA1021+004809999GA2071+013509999GF107991071051008001999999MA1099191999999MD1210241+9999REMSYN017 333 81622 86645;MET008NEW NOSIEQDQ01+000000PRSWM2
0172039620999991996011321004+52700-008917SY-MT+0020EINN V0201201N00411015001CN0300001N1+01011+00871099361ADDAG12000GA1021+006009999GA2071+015009999GF199999061051008001999999MA1099291999999MD1210191+9999REMSYN017 333 81620 85650;MET008NEW NOSIEQDQ01+000062SCOTCVQ02+000000PRSWM2
0156039620999991996011322004+52700-008917SY-MT+0020EINN V0201201N00411007501CN0300001N1+00961+00841099421ADDAG12999GA1021+007509999GA2021+015009999GF106991061051008001999999MA1099291999999MD1210181+9999REMSYN017 333 81625 86650;MET008NEW NOSIEQDQ01+000000PRSWM2
0178039620999991996011323004+52700-008917SY-MT+0020EINN V0201101N00361009001CN0250001N1+01011+00891099481ADDAG12999GA1021+004509999GA2071+009009999GA3071+015009999GF108991081051004501999999MA1099391999999MD1210171+9999REMSYN023 333 83715 85630 87650;MET008NEW NOSIEQDQ01+000000PRSWM2
0173039620999991996011400004+52700-008917SY-MT+0020EINN V0201201N00411015001CN0200001N1+00981+00881099481ADDAA106000091AG14000GA1021+006009999GA2071+015009999GF108991081051004501999999MA1099391999999MD1110121+9999REMSYN023 333 82714 84620 87650;MET008NEW NOSIEQDQ01+000000PRSWM2
0172039620999991996011401004+52700-008917SY-MT+0020EINN V0201101N00461015001CN0200001N1+00971+00851099551ADDAG12999GA1021+006009999GA2071+015009999GF199999051051008001999999MA1099491999999MD1210131+9999REMSYN017 333 81620 85650;MET008NEW NOSIEQDQ01+000052SCOTCVQ02+000000PRSWM2
0162039620999991996011402004+52700-008917SY-MT+0020EINN V0201001N00411015001CN0200001N1+01041+00871099541ADDAG12999GA1021+006009999GA2071+015009999GF107991071051004501999999MA1099491999999MD1110061+9999REMSYN023 333 83716 84624 86650;MET008NEW NOSIEQDQ01+000000PRSWM2
0178039620999991996011403004+52700-008917SY-MT+0020EINN V0201201N00461015001CN0200001N1+01021+00881099541ADDAG11000GA1021+004809999GA2021+007209999GA3071+015009999GF107991071051004501999999MA1099491999999MD1110061+9999REMSYN023 333 82716 84624 87650;MET008NEW NOSIEQDQ01+000000PRSWM2
0200039620999991996011404004+52700-008917SY-MT+0020EINN V0201101N00361015001CN0200001N1+01021+00901099541ADDAG12999AY151011AY221011GA1021+003609999GA2021+007209999GA3071+015009999GF108991081051004501999999MA1099491999999MD1310041+9999MW1501REMSYN023 333 83710 84620 87650;MET008NEW NOSIEQDQ01+000000PRSWM2
0200039620999991996011405004+52700-008917SY-MT+0020EINN V0201201N00461015001CN0250001N1+01041+00961099641ADDAG12999AY151021AY221021GA1021+002109999GA2021+003609999GA3071+015009999GF107991071051002501999999MA1099591999999MD1210101+9999MW1201REMSYN023 333 81707 84624 86650;MET008NEW NOSIEQDQ01+000000PRSWM2
0249039620999991996011406004+52700-008917SY-MT+0020EINN V0201101N00311006601CN0250001N1+01051+00951099671ADDAA199999929AG12001AY161061AY251061GA1021+002109999GA2071+006609999GA3071+015009999GF108991081051004501999999GJ100009IA1099IA2999+00709KA1120N+00921MA1099591999999MD1210131+9999MW1511MW2601REMSYN035 333 20092 31007 55000 81712 87650;MET008NEW NOSI
0200039620999991996011407004+52700-008917SY-MT+0020EINN V0201101N00411015001CN0150001N1+01061+00961099721ADDAG12999AY161011AY251011GA1021+002709999GA2021+003909999GA3071+015009999GF108991081061002501999999MA1099591999999MD1210131+9999MW1501REMSYN023 333 81708 85712 85650;MET008NEW NOSIEQDQ01+000000PRSWM2
0187039620999991996011408004+52700-008917SY-MT+0020EINN V0201301N00571006301CN0200001N1+01081+01001099791ADDAG12999AY161021AY221021GA1021+002409999GA2021+003609999GA3071+006309999GF108991081051002501999999MA1099701999999MD1210141+9999MW1601MW2611REMSYN023 333 81708 85621 85650;MET008NEW NOSI
0181039620999991996011409004+52700-008917SY-MT+0020EINN V0201201N00571005701CN0120001N1+01071+00971099851ADDAG12001AY161031AY251031GA1021+003609999GA2071+005709999GA3071+015009999GF108991081051002501999999MA1099801999999MD1210171+9999MW1611MW2621REMSYN017 333 81709 88650;MET008NEW NOSI
0187039620999991996011410004+52700-008917SY-MT+0020EINN V0201401N00511015001CN0200001N1+01091+00951099921ADDAG12999AY161011AY221011GA1021+002709999GA2021+007509999GA3081+015009999GF108991081061004501999999MA1099801999999MD1210201+9999MW1601MW2611REMSYN023 333 82710 83625 88650;MET008NEW NOSI
0181039620999991996011411004+52700-008917SY-MT+0020EINN V0201201N00511005401CN0040001N1+01081+00981100001ADDAG12999AY161021AY261021GA1021+001809999GA2071+005409999GA3081+015009999GF108991081061002501999999MA1099901999999MD1210221+9999MW1611REMSYN023 333 85707 88622 98456;MET008NEW NOSI
0186039620999991996011412004+52700-008917SY-MT+0020EINN V0201301N00461003901CN0090001N1+01111+01031100001ADDAA106006091AG12001AY161061AY251061GA1021+002109999GA2071+003909999GA3081+007509999GF108991081061002501999999MA1100001999999MD1110151+9999MW1611REMSYN017 333 84707 88713;MET008NEW NOSI
0178039620999991996011413004+52700-008917SY-MT+0020EINN V0201401N00511003601CN0040001N1+01121+01021100031ADDAG12999AY161011AY221011GA1071+003609999GA2081+006609999GF108991081061002501999999MA1100001999999MD1210111+9999MW1601REMSYN017 333 85707 88711;MET008NEW NOSIEQDQ01+000000PRSWM2
0187039620999991996011414004+52700-008917SY-MT+0020EINN V0201301N00311003301CN0120001N1+01111+01011100081ADDAG12999AY161021AY261021GA1021+002109999GA2071+003309999GA3081+009009999GF108991081061002501999999MA1100001999999MD1310071+9999MW1601MW2611REMSYN023 333 83708 85714 88620;MET008NEW NOSI
0159039620999991996011415004+52700-008917SY-MT+0020EINN V0201201N00461003601CN0100001N1+01101+01001100091ADDAG12001AY161031AY261031GA1021+002709999GA2071+003609999GF108991081061002501999999MA1100001999999MD1110091+9999MW1611REMSYN017 333 83708 88716;MET008NEW NOSI
0187039620999991996011416004+52700-008917SY-MT+0020EINN V0201201N00461004501CN0080001N1+01101+01001100161ADDAG12999AY161011AY261011GA1021+001809999GA2071+004509999GA3071+006009999GF108991081061002501999999MA1100101999999MD1210121+9999MW1611MW2621REMSYN023 333 83707 85711 88620;MET008NEW NOSI
0193039620999991996011417004+52700-008917SY-MT+0020EINN V0201101N00671003601CN0080001N1+01091+00991100191ADDAG12999AY161021AY221021GA1021+002409999GA2071+003609999GA3081+005409999GF108991081061001501999999MA1100101999999MD1210111+9999MW1511MW2601MW3631REMSYN023 333 85705 85709 88718;MET008NEW NOSI
0217039620999991996011418004+52700-008917SY-MT+0020EINN V0201401N00721003901CN0250001N1+01101+00921100301ADDAA199009091AG12001AY161061AY221061GA1021+002409999GA2071+003909999GA3081+010509999GF108991081061002501999999KA1120M+01131MA1100201999999MD1210211+9999MW1601MW2611REMSYN029 333 10113 82708 84713 88635;MET008NEW NOSI
0200039620999991996011419004+52700-008917SY-MT+0020EINN V0201401N00721007201CN0300001N1+01081+00861100401ADDAG12999AY161011AY221011GA1021+004509999GA2081+007209999GF199999071051004501999999MA1100311999999MD1210241+9999MW1211REMSYN023 333 83708 84625 87645;MET008NEW NOSIEQDQ01+000072SCOTCVQ02+000000PRSWM2
0172039620999991996011420004+52700-008917SY-MT+0020EINN V0201401N00821013501CN0300001N1+01021+00791100461ADDAG12999GA1021+005409999GA2071+013509999GF199999051051004501001001MA1100411999999MD1210271+9999REMSYN017 333 82718 85633;MET008NEW NOSIEQDQ01+000052SCOTCVQ02+000000PRSWM2
0194039620999991996011421004+52700-008917SY-MT+0020EINN V0201401N00931220001CN0300001N1+01011+00801100551ADDAG12001AY161031AY211031GA1021+005409999GA2071+009009999GF199999041051004501001001MA1100511999999MD1210251+9999MW1011REMSYN017 333 81715 84635;MET008NEW NOSIEQDQ01+000042SCOTCVQ02+000000PRSWM2
0162039620999991996011422004+52700-008917SY-MT+0020EINN V0201501N00821009901CN0300001N1+00991+00741100671ADDAG12999GA1021+005109999GA2071+009909999GF108991081051004501999999MA1100611999999MD1210271+9999REMSYN023 333 81717 83633 87656;MET008NEW NOSIEQDQ01+000000PRSWM2
0183039620999991996011423004+52700-008917SY-MT+0020EINN V0201701N00931018001CN0300001N1+01021+00681100771ADDAG12999AY161021AY221021GA1021+003609999GA2021+010509999GA3081+018009999GF108991081051012501999999MD1210311+9999MW1211MW2611REMSYN017 333 85638 88656;MET025NEW WS RWY24 Q1007 NOSIG;
0205039620999991996011500004+52700-008917SY-MT+0020EINN V0201901N00721018001CN0300001N1+00951+00701100901ADDAA106999929AG12001AY161061AY211061GA1021+012009999GA2081+018009999GF199999071051012501999999MA1100811999999MD1210351+9999MW1011REMSYN017 333 83640 87656;MET008NEW NOSIEQDQ01+000072SCOTCVQ02+000000PRSWM2
0156039620999991996011501004+52700-008917SY-MT+0020EINN V0201601N00511018001CN0250001N1+00951+00611101011ADDAG12999GA1021+012009999GA2071+018009999GF107991071061012501999999MA1100911999999MD1210341+9999REMSYN017 333 83640 87656;MET008NEW NOSIEQDQ01+000000PRSWM2
0156039620999991996011502004+52700-008917SY-MT+0020EINN V0201601N00311018001CN0250001N1+00931+00651101101ADDAG12999GA1021+012009999GA2071+018009999GF107991071051012501999999MA1101021999999MD1210331+9999REMSYN017 333 83625 86650;MET008NEW NOSIEQDQ01+000000PRSWM2
0156039620999991996011503004+52700-008917SY-MT+0020EINN V0201501N00311015001CN0250001N1+00891+00681101221ADDAG12000GA1021+009009999GA2071+015009999GF107991071051012501999999MA1101081999999MD1210321+9999REMSYN017 333 83630 87650;MET008NEW NOSIEQDQ01+000000PRSWM2
0162039620999991996011504004+52700-008917SY-MT+0020EINN V0201701N00311015001CN0250001N1+00891+00681101331ADDAG12999GA1021+007509999GA2071+015009999GF107991071051012501999999MA1101191999999MD1210321+9999REMSYN023 333 81718 83625 86650;MET008NEW NOSIEQDQ01+000000PRSWM2
0178039620999991996011505004+52700-008917SY-MT+0020EINN V0201401N00261015001CN0250001N1+00861+00721101411ADDAG12999GA1021+005409999GA2021+007509999GA3071+015009999GF107991071051004501999999MA1101291999999MD1210311+9999REMSYN023 333 83718 84624 86650;MET008NEW NOSIEQDQ01+000000PRSWM2
0246039620999991996011506004+52700-008917SY-MT+0020EINN V0201501N00151007201CN0250001N1+00871+00731101471ADDAA199999929AG12000GA1021+004509999GA2071+007209999GA3071+015009999GF107991071051004501999999GJ100009IA1099IA2999+00609KA1120N+00821MA1101391999999MD1210251+9999REMSYN041 333 20082 31006 55000 82715 85624 86650;MET008NEW NOSIEQDQ01+000000PRSWM2
0178039620999991996011507004+52700-008917SY-MT+0020EINN V0201701N00211007201CN0250001N1+00861+00691101591ADDAG12999GA1021+003909999GA2071+007209999GA3071+015009999GF107991071051004501999999MA1101491999999MD1210261+9999REMSYN023 333 83713 85624 86650;MET008NEW NOSIEQDQ01+000000PRSWM2
