0167039620999991995010100004+52700-008917SY-MT+0020EINN V0203001N00051220001CN0300001N1+00021-00041101591ADDAA106999929AG13000GA1021+006609999GF199999011081008001001001MA1101491999999MD1210221+9999REMSYN017 333 81822 92600;MET008NEW NOSIEQDQ01+000012SCOTCVQ02+000000PRSWM2
0156039620999991995010101004+52700-008917SY-MT+0020EINN V0202701N00101220001CN0300001N1+00051-00031101631ADDAG12999GA1021+007509999GF199999011051012501001001MA1101591999999MD1210181+9999REMSYN017 333 81640 92601;MET008NEW NOSIEQDQ01+000012SCOTCVQ02+000000PRSWM2
0156039620999991995010102004+52700-008917SY-MT+0020EINN V0209991C00001220001CN0300001N1+00031-00031101691ADDAG11999GA1021+012009999GF199999011051012501001001MA1101591999999MD1210181+9999REMSYN017 333 81640 92611;MET008NEW NOSIEQDQ01+000012SCOTCVQ02+000000PRSWM2
0069039620999991995010102304+52700-008917FM-15+0020EINN V0202701N00101999991CY0099001N1+00101+00001999999ADDAG12000MA1101691999999REMMET016NEW CAVOK NOSIG;EQDQ01+000000PRSWM2
0164039620999991995010103004+52700-008917SY-MT+0020EINN V0209991C00001220001CN0300001N1+00131-00041101761ADDAG11000GA1011+015009059GF101991011051017501999001MA1101691999999MD1210171+9999REMSYN017 333 81650 92611;MET016NEW CAVOK NOSIG;EQDQ01+000000PRSWM2Q02    003SCOMCG
0148039620999991995010104004+52700-008917SY-MT+0020EINN V0209991C000010180019N0300001N1+00201+00071101811ADDAG11999GA1071+018009059GF107991071051017501999999MA1101801999999MD1210181+9999REMSYN017 333 87656 92611;MET016NEW CAVOK NOSIG;EQDQ01+000000PRSWM2
0164039620999991995010105004+52700-008917SY-MT+0020EINN V0203001N00261220001CN0300001N1+00201+00011101841ADDAG11999GA1011+018009059GF101991011051017501999001MA1101801999999MD1210151+9999REMSYN017 333 81656 92611;MET016NEW CAVOK NOSIG;EQDQ01+000000PRSWM2Q02    003SCOMCG
0232039620999991995010106004+52700-008917SY-MT+0020EINN V0203101N00311220001CN0300001N1+00201+00071101881ADDAA199999929AG13000GA1011+018009059GF101991011051017501999001GJ103849IA1149IA2999-00709KA1120N+00001MA1101801999999MD1210121+9999REMSYN035 333 20000 34107 55064 81656 92611;MET016NEW CAVOK NOSIG;EQDQ01+000000PRSWM2Q02    003SCOMCG
0164039620999991995010107004+52700-008917SY-MT+0020EINN V0202801N00311220001CN0300001N1+00261+00051101921ADDAG11999GA1011+018009059GF101991011051017501999001MA1101901999999MD1210111+9999REMSYN017 333 81656 92611;MET016NEW CAVOK NOSIG;EQDQ01+000000PRSWM2Q02    003SCOMCG
0164039620999991995010108004+52700-008917SY-MT+0020EINN V0203001N00311220001CN0300001N1+00251+00091101991ADDAG11999GA1011+018009059GF101991011051017501999001MA1101901999999MD1210151+9999REMSYN017 333 81656 92611;MET016NEW CAVOK NOSIG;EQDQ01+000000PRSWM2Q02    003SCOMCG
0156039620999991995010109004+52700-008917SY-MT+0020EINN V0203101N00361220001CN0400001N1+00331+00031102051ADDAG11000GA1021+006009999GF199999011081008001001001MA1102001999999MD1210181+9999REMSYN017 333 81820 92611;MET008NEW NOSIEQDQ01+000012SCOTCVQ02+000000PRSWM2
0156039620999991995010110004+52700-008917SY-MT+0020EINN V0202701N00311220001CN0400001N1+00321+00081102111ADDAG11999GA1021+006009999GF199999011081008001001021MA1102101999999MD1210201+9999REMSYN017 333 81820 92611;MET008NEW NOSIEQDQ01+000012SCOTCVQ02+000000PRSWM2
0156039620999991995010111004+52700-008917SY-MT+0020EINN V0202901N00361220001CN0400001N1+00501+00061102161ADDAG11999GA1021+006009999GF199999011081008001001021MA1102101999999MD1210181+9999REMSYN017 333 81820 92611;MET008NEW NOSIEQDQ01+000012SCOTCVQ02+000000PRSWM2
0189039620999991995010112004+52700-008917SY-MT+0020EINN V0202901N00411012001CN0400001N1+00651+00151102171ADDAA106999929AG11001AY181061AY211061GA1021+006009999GA2021+060009999GF106991051081008001001021MA1102101999999MD1110121+9999MW1801REMSYN017 333 82820 85647;MET008NEW NOSIEQDQ01+000000PRSWM2
0156039620999991995010113004+52700-008917SY-MT+0020EINN V0203001N00671220001CN0400001N1+00731+00251102171ADDAG12999AY181011AY211011GA1021+006009999GF102991021081008001001021MA1102101999999MD1110061+9999MW1251REMSYN011 333 82820;MET008NEW NOSIEQDQ01+000000PRSWM2
0156039620999991995010114004+52700-008917SY-MT+0020EINN V0203101N00461220001CN0400001N1+00701+00321102191ADDAG12999AY181021AY211021GA1021+006009999GF102991021081008001001021MA1102101999999MD1210031+9999MW1251REMSYN011 333 81920;MET008NEW NOSIEQDQ01+000000PRSWM2
0134039620999991995010115004+52700-008917SY-MT+0020EINN V0203101N00511220001CN0400001N1+00651+00291102221ADDAG12000GA1021+006009099GF102991021031008001001021MA1102201999999MD1210051+9999REMSYN011 333 81920;MET008NEW NOSIEQDQ01+000000PRSWM2
0156039620999991995010116004+52700-008917SY-MT+0020EINN V0203201N00621220001CN0400001N1+00641+00351102271ADDAG12999AY181011AY201011GA1021+006009099GF103991031031008001001021MA1102201999999MD1210101+9999MW1251REMSYN011 333 82920;MET008NEW NOSIEQDQ01+000000PRSWM2
0148039620999991995010117004+52700-008917SY-MT+0020EINN V0203101N00511220001CN0300001N1+00571+00331102301ADDAG12999AY181021AY201021GA1021+006009099GF102991021031008001001021MD1210111+9999MW1251REMSYN011 333 81920;MET015NEW Q1823 ,98<;EQDQ01+000000PRSWM2
0186039620999991995010118004+52700-008917SY-MT+0020EINN V0203201N00361220001CN0250001N1+00551+00311102391ADDAA199000391AG12001AY181061AY211061GA1021+006309099GF104991031031008001031001KA1120M+00801MA1102301999999MD1210171+9999MW1251REMSYN017 333 10080 82920;MET008NEW NOSIEQDQ01+000000PRSWM2
0156039620999991995010119004+52700-008917SY-MT+0020EINN V0203201N00211220001CN0300001N1+00441+00261102481ADDAG12999GA1021+006009099GA2021+010509999GF103991031081008001001001MA1102401999999MD1310211+9999REMSYN017 333 81823 83634;MET008NEW NOSIEQDQ01+000000PRSWM2
0192039620999991995010120004+52700-008917SY-MT+0020EINN V0203301N00311220001CN0300001N1+00451+00251102531ADDAG12999GA1021+006909999GA2021+009909999GF103991031081008001001001MA1102511999999MD1210231+9999REMSYN053 33306 10045 20025 40253 52023 83800 333 81823 83640;MET008NEW NOSIEQDQ01+000000PRSWM2
0166039620999991995010121004+52700-008917SY-MT+0020EINN V0203301N00261220001CN0300001N1+00451+00231102591ADDAG12000GA1021+006909999GA2071+011409999GF199999021051012501001001MA1102511999999MD1210201+9999REMSYN011 333 82630;MET008NEW NOSIEQDQ01+000022SCOTCVQ02+000000PRSWM2
0156039620999991995010122004+52700-008917SY-MT+0020EINN V0203101N00051220001CN0300001N1+00281+00121102641ADDAG12999GA1021+010509999GF199999011051012501001001MA1102611999999MD1210161+9999REMSYN017 333 81635 92600;MET008NEW NOSIEQDQ01+000012SCOTCVQ02+000000PRSWM2
0156039620999991995010123004+52700-008917SY-MT+0020EINN V0202601N00051220001CN0300001N1+00251+00121102721ADDAG12999GA1021+010509999GF199999011051012501001001MA1102611999999MD1210191+9999REMSYN017 333 81635 92600;MET008NEW NOSIEQDQ01+000012SCOTCVQ02+000000PRSWM2
0151039620999991995010200004+52700-008917SY-MT+0020EINN V0202701N00101015001CN0300001N1+00241+00111102761ADDAA106999929AG12000GA1021+010509999GF105991051051017501001001MA1102711999999MD1210171+9999REMSYN017 333 85650 92600;MET008NEW NOSIEQDQ01+000000PRSWM2
0172039620999991995010201004+52700-008917SY-MT+0020EINN V0202501N00101018001CN0300001N1+00311+00151102791ADDAG12999GA1021+012609999GA2071+018009999GF199999051051012501001001MA1102711999999MD1110141+9999REMSYN017 333 81642 85656;MET008NEW NOSIEQDQ01+000052SCOTCVQ02+000000PRSWM2
0164039620999991995010202004+52700-008917SY-MT+0020EINN V0203201N00101220001CN0300001N1+00221+00031102851ADDAG12999GA1031+018009059GF103991031051017501999001MA1102811999999MD1210121+9999REMSYN017 333 83656 92600;MET016NEW CAVOK NOSIG;EQDQ01+000000PRSWM2Q02    003SCOMCG
0164039620999991995010203004+52700-008917SY-MT+0020EINN V0202901N00211220001CN0300001N1+00231+00101102901ADDAG11000GA1021+018009059GF102991021051017501999001MA1102811999999MD1210131+9999REMSYN017 333 82656 92600;MET016NEW CAVOK NOSIG;EQDQ01+000000PRSWM2Q02    003SCOMCG
0186039620999991995010204004+52700-008917SY-MT+0020EINN V0202901N00211220001CN0300001N1+00181-00011102901ADDAG11999GA1011+012609059GA2041+018009059GF104991041051012501999001MA1102811999999MD1110111+9999REMSYN023 333 81642 84656 92600;MET016NEW CAVOK NOSIG;EQDQ01+000000PRSWM2Q02    003SCOMCG
0156039620999991995010205004+52700-008917SY-MT+0020EINN V0203201N00211220001CN0300001N1+00211+00081102911ADDAG11999GA1021+012609999GA2021+018009999GF102991021051012501001001MA1102911999999MD1210061+9999REMSYN017 333 82645 92600;MET008NEW NOSIEQDQ01+000000PRSWM2
0224039620999991995010206004+52700-008917SY-MT+0020EINN V0200101N00101220001CN0300001N1+00111-00061102931ADDAA199999929AG13000GA1021+013509999GF199999011051012501001001GJ102949IA1099IA2999-00709KA1120N+00091MA1102911999999MD1210031+9999REMSYN035 333 20009 31107 55049 81645 92601;MET008NEW NOSIEQDQ01+000012SCOTCVQ02+000000PRSWM2
0140039620999991995010207004+52700-008917SY-MT+0020EINN V0200901N00211220001CN0300001N1+00031-00121102981ADDAG11999GA1021+013509999GF102991021051012501001001MA1102911999999MD1210081+9999REMSYN017 333 82645 92601;MET008NEW NOSIEQDQ01+000000PRSWM2
0156039620999991995010208004+52700-008917SY-MT+0020EINN V0200601N00101220001CN0300001N1-00071-00191103011ADDAG11999GA1021+013509999GF199999011051012501001001MA1102911999999MD1210101+9999REMSYN017 333 81645 92611;MET008NEW NOSIEQDQ01+000012SCOTCVQ02+000000PRSWM2
0164039620999991995010209004+52700-008917SY-MT+0020EINN V0209991C00001220001CN0450001N1-00101-00251103061ADDAG11000GA1011+018009059GF101991011051017501999001MA1103011999999MD1210131+9999REMSYN017 333 81656 92611;MET016NEW CAVOK NOSIG;EQDQ01+000000PRSWM2Q02    003SCOMCG
0164039620999991995010210004+52700-008917SY-MT+0020EINN V0200801N00101220001CN0500001N1+00001-00111103131ADDAG11999GA1011+018009059GF101991011051017501999001MA1103121999999MD1210151+9999REMSYN017 333 81656 92611;MET016NEW CAVOK NOSIG;EQDQ01+000000PRSWM2Q02    003SCOMCG
0164039620999991995010211004+52700-008917SY-MT+0020EINN V0201101N00101220001CN0500001N1+00271+00061103181ADDAG11999GA1011+018009059GF101991011051017501999001MA1102911999999MD1210171+9999REMSYN017 333 81656 92600;MET016NEW CAVOK NOSIG;EQDQ01+000000PRSWM2Q02    003SCOMCG
0175039620999991995010212004+52700-008917SY-MT+0020EINN V0201101N00311220001CN0500001N1+00301+00061103171ADDAA106999929AG13000GA1011+018009059GF101991011051017501999001MA1103121999999MD1010111+9999REMSYN017 333 81656 92600;MET016NEW CAVOK NOSIG;EQDQ01+000000PRSWM2Q02    003SCOMCG
0126039620999991995010213004+52700-008917SY-MT+0020EINN V0201101N00211220001CN0300001N1+00391+00131103141ADDAG11999GF102991011051017501001021MA1103121999999MD1010011+9999REMSYN011 333 81656;MET016NEW CAVOK NOSIG;EQDQ01+000000PRSWM2
0126039620999991995010214004+52700-008917SY-MT+0020EINN V0201201N00311220001CN0300001N1+00461+00131103081ADDAG11999GF102991011051017501001021MA1103121999999MD1710091+9999REMSYN011 333 81656;MET016NEW CAVOK NOSIG;EQDQ01+000000PRSWM2
0126039620999991995010215004+52700-008917SY-MT+0020EINN V0201201N00411220001CN0300001N1+00451+00171103061ADDAG11000GF104991001001999999001021MA1103011999999MD1710101+9999REMSYN011 333 84075;MET016NEW CAVOK NOSIG;EQDQ01+000000PRSWM2
0164039620999991995010216004+52700-008917SY-MT+0020EINN V0201201N003110750019N0200001N1+00361+00131103051ADDAG11999GA1011+015009059GF105991011051017501999021MA1103011999999MD1510081+9999REMSYN017 333 81650 85070;MET016NEW CAVOK NOSIG;EQDQ01+000000PRSWM2Q02    003SCOMCG
0170039620999991995010217004+52700-008917SY-MT+0020EINN V0201101N003610102019N0090001N1+00321+00131103011ADDAG11999AY121021AY221021GA1061+010209059GF107991061051012501999021MA1103011999999MD1710071+9999MW1101REMSYN017 333 86634 84070;MET016NEW CAVOK NOSIG;EQDQ01+000000PRSWM2
0186039620999991995010218004+52700-008917SY-MT+0020EINN V0201201N00461009901CN0120001N1+00301+00111103001ADDAA199999929AG13000AY111061AY211061GA1071+009909999GF107991071051012501999999KA1120M+00471MA1102911999999MD1710071+9999MW1101REMSYN017 333 10047 87632;MET008NEW NOSIEQDQ01+000000PRSWM2
0156039620999991995010219004+52700-008917SY-MT+0020EINN V0201201N00511220001CN0180001N1+00251+00061102961ADDAG11999GA1071+010209999GF199999031051012501001021MA1102911999999MD1710101+9999REMSYN017 333 83635 83070;MET008NEW NOSIEQDQ01+000042SCOTCVQ02+000000PRSWM2
0134039620999991995010220004+52700-008917SY-MT+0020EINN V0201201N00571011101CN0180001N1+00251-00021102951ADDAG11999GA1071+011109999GF107991071051012501999999MA1102911999999MD1710071+9999REMSYN011 333 87637;MET008NEW NOSIEQDQ01+000000PRSWM2
0134039620999991995010221004+52700-008917SY-MT+0020EINN V0201301N00511011401CN0180001N1+00241-00041102911ADDAG11000GA1071+011409999GF107991071051012501999999MA1102911999999MD1710091+9999REMSYN011 333 87636;MET008NEW NOSIEQDQ01+000000PRSWM2
0134039620999991995010222004+52700-008917SY-MT+0020EINN V0201201N00511010801CN0180001N1+00271-00031102811ADDAG11999GA1071+010809999GF107991071051012501999999MA1102811999999MD1710151+9999REMSYN011 333 87636;MET008NEW NOSIEQDQ01+000000PRSWM2
0134039620999991995010223004+52700-008917SY-MT+0020EINN V0201201N00511010801CN0180001N1+00291-00011102721ADDAG11999GA1071+010809999GF107991071051012501999999MA1102711999999MD1710221+9999REMSYN011 333 87636;MET008NEW NOSIEQDQ01+000000PRSWM2
0167039620999991995010300004+52700-008917SY-MT+0020EINN V0201001N00621010801CN0180001N1+00221-00031102651ADDAA106999929AG13000GA1071+010809999GA2071+015009999GF107991071051012501999999MA1102611999999MD1710261+9999REMSYN017 333 83636 87650;MET008NEW NOSIEQDQ01+000000PRSWM2
0186039620999991995010301004+52700-008917SY-MT+0020EINN V0201201N00571075001CN0180001N1+00211-00071102571ADDAG11999GA1031+015009059GA2061+075009029GF107991031051017501999081MA1102511999999MD1710241+9999REMSYN023 333 83650 86275 92600;MET016NEW CAVOK NOSIG;EQDQ01+000000PRSWM2Q02    003SCOMCG
0150039620999991995010302004+52700-008917SY-MT+0020EINN V0201201N00771220001CN0180001N1+00281-00021102481ADDAG11999GA1071+011409999GF199999021051012501001021MA1102511999999MD1710241+9999REMSYN011 333 82638;MET008NEW NOSIEQDQ01+000032SCOTCVQ02+000000PRSWM2
0150039620999991995010303004+52700-008917SY-MT+0020EINN V0201301N00671011101CN0200001N1+00411+00091102421ADDAG11000GA1071+011109999GF199999051051012501001001MA1102401999999MD1710221+9999REMSYN011 333 85637;MET008NEW NOSIEQDQ01+000052SCOTCVQ02+000000PRSWM2
0134039620999991995010304004+52700-008917SY-MT+0020EINN V0201301N00671009901CN0200001N1+00481+00131102311ADDAG11999GA1071+009909999GF107991071051012501999999MA1102301999999MD1710251+9999REMSYN011 333 87632;MET008NEW NOSIEQDQ01+000000PRSWM2
0134039620999991995010305004+52700-008917SY-MT+0020EINN V0201401N00621009001CN0200001N1+00521+00351102211ADDAG11999GA1071+009009999GF107991071051008001999999MA1102201999999MD1710271+9999REMSYN011 333 87628;MET008NEW NOSIEQDQ01+000000PRSWM2
0224039620999991995010306004+52700-008917SY-MT+0020EINN V0201401N00771012001CN0200001N1+00601+00231102081ADDAA199999929AG13000GA1021+008109999GA2071+012009999GF107991071051008001999999GJ103369IA1099IA2999+00009KA1120N+00191MA1102101999999MD1710341+9999REMSYN035 333 20019 31100 55056 83627 86640;MET008NEW NOSIEQDQ01+000000PRSWM2
0162039620999991995010307004+52700-008917SY-MT+0020EINN V0201501N00931012001CN0200001N1+00671+00311101971ADDAG11999GA1021+007809999GA2071+012009999GF107991051051008001071999MA1102001999999MD1710341+9999REMSYN023 333 83625 84640 86460;MET008NEW NOSIEQDQ01+000000PRSWM2
0178039620999991995010308004+52700-008917SY-MT+0020EINN V0201401N01031030001CN0200001N1+00691+00341101891ADDAG11999GA1021+007509999GA2021+012009999GA3071+030009999GF107991031051008001071999MA1101901999999MD1710321+9999REMSYN023 333 81625 83640 86460;MET008NEW NOSIEQDQ01+000000PRSWM2
0178039620999991995010309004+52700-008917SY-MT+0020EINN V0201401N00871030001CN0300001N1+00691+00441101811ADDAG11000GA1021+005409999GA2021+012009999GA3071+030009999GF107991031051004501071999MA1101801999999MD1710271+9999REMSYN023 333 81718 83640 86460;MET008NEW NOSIEQDQ01+000000PRSWM2
0187039620999991995010310004+52700-008917SY-MT+0020EINN V0201401N00981030001CN0300001N1+00751+00461101711ADDAG12999AY161011AY221011GA1021+004809999GA2021+007509999GA3071+030009999GF107991051051004501071999MA1101691999999MD1710261+9999MW1601MW2611REMSYN023 333 81717 83625 87460;MET008NEW NOSI
0214039620999991995010311004+52700-008917SY-MT+0020EINN V0201401N01181030001CN0300001N1+00801+00511101611ADDAG12999AY161021AY221021GA1021+005109999GA2021+007809999GA3071+030009999GF107991061051004501071999MA1101591999999MD1710281+9999MW1601OC101701REMSYN029 333 81717 85630 87459 91134;MET008NEW NOSIEQDQ01+000000PRSWM2
0210039620999991995010312004+52700-008917SY-MT+0020EINN V0201401N01441007501CN0250001N1+00821+00531101401ADDAA106999929AG12001AY161061AY221061GA1021+004509999GA2071+007509999GA3071+027009999GF107991061051004501071999MA1101491999999MD1810411+9999MW1601MW2611REMSYN035 333 82716 85626 87459 90710 91141;MET008NEW NOSI
0201039620999991995010313004+52700-008917SY-MT+0020EINN V0201601N01341007501CN0250001N1+00881+00621101341ADDAG12999AY161011AY221011GA1021+005109999GA2071+007509999GA3071+027009999GF107991061051004501071999MA1101291999999MD1510371+9999MW1211MW2611OC101851REMSYN029 333 83716 86625 87459 91142;MET008NEW NOSI
0196039620999991995010314004+52700-008917SY-MT+0020EINN V0202101N00771004501CN0250001N1+00851+00661101451ADDAG12999AY161021AY221021GA1021+003609999GA2071+004509999GA3071+015009999GF107991071051004501999999MA1101391999999MD1510161+9999MW1211MW2611REMSYN023 333 82712 84620 86650;MET017NEW TEMPO BKN010;
0200039620999991995010315004+52700-008917SY-MT+0020EINN V0202301N00621015001CN0250001N1+00851+00661101531ADDAG12001AY181031AY261031GA1021+003009999GA2021+006009999GA3071+015009999GF107991071081004501999999MA1101391999999MD1310131+9999MW1251REMSYN023 333 82710 84820 85650;MET008NEW NOSIEQDQ01+000000PRSWM2
0150039620999991995010316004+52700-008917SY-MT+0020EINN V0202001N00411220001CN0250001N1+00821+00551101571ADDAG12999GA1021+006009999GA2021+015009999GF102991021081008001001021MA1101491999999MD1210231+9999REMSYN011 333 81820;MET008NEW NOSIEQDQ01+000000PRSWM2
0134039620999991995010317004+52700-008917SY-MT+0020EINN V0201701N00361220001CN0250001N1+00741+00561101631ADDAG12999GA1021+007509999GF104991041081008001001001MA1101591999999MD1210181+9999REMSYN011 333 83825;MET008NEW NOSIEQDQ01+000000PRSWM2
0202039620999991995010318004+52700-008917SY-MT+0020EINN V0201601N00311220001CN0250001N1+00601+00491101641ADDAA199999929AG12001AY181061AY261061GA1021+006009999GF199999011081008001001001KA1120M+00941MA1101591999999MD1110111+9999MW1011REMSYN017 333 10094 81820;MET008NEW NOSIEQDQ01+000012SCOTCVQ02+000000PRSWM2
0150039620999991995010319004+52700-008917SY-MT+0020EINN V0201701N00411220001CN0250001N1+00601+00391101641ADDAG12999GA1021+006009999GF199999011081008001001001MA1101591999999MD1110071+9999REMSYN011 333 81820;MET008NEW NOSIEQDQ01+000012SCOTCVQ02+000000PRSWM2
0134039620999991995010320004+52700-008917SY-MT+0020EINN V0201501N00311220001CN0250001N1+00561+00371101621ADDAG12999GA1021+006009999GF102991021081008001001001MA1101591999999MD1810011+9999REMSYN011 333 81820;MET008NEW NOSIEQDQ01+000000PRSWM2
0109039620999991995010320304+52700-008917FM-15+0020EINN V0201501N00361015001CN0112651N1+00501+00401999999ADDAG12000GA1021+006009999GA2071+015009999GA3071+024009999MA1101591999999REMMET008NEW NOSIEQDQ01+000000PRSWM2
0156039620999991995010322004+52700-008917SY-MT+0020EINN V0201201N00311015001CN0250001N1+00541+00421101551ADDAG12999GA1021+006009999GA2071+015009999GF108991071081008001021999MA1101491999999MD1710091+9999REMSYN017 333 81820 87650;MET008NEW NOSIEQDQ01+000000PRSWM2
0156039620999991995010323004+52700-008917SY-MT+0020EINN V0201201N00411015001CN0250001N1+00511+00411101461ADDAG12999GA1021+006009999GA2071+015009999GF108991071081008001021999MA1101491999999MD1710161+9999REMSYN017 333 81820 87650;MET008NEW NOSIEQDQ01+000000PRSWM2
0167039620999991995010400004+52700-008917SY-MT+0020EINN V0201201N00411015001CN0250001N1+00611+00501101381ADDAA106999929AG13000GA1021+006009999GA2071+015009999GF108991071081008001021999MA1101391999999MD1710201+9999REMSYN017 333 81820 86650;MET008NEW NOSIEQDQ01+000000PRSWM2
0212039620999991995010401004+52700-008917SY-MT+0020EINN V0201201N00411009001CN0150001N1+00661+00481101331ADDAG12999AY161011AY221011GA1021+004509999GA2071+009009999GA3071+015009999GF108991081051004501999999MA1101291999999MD1710221+9999MW1601REMSYN023 333 82715 85630 88650;MET020NEW BECMG 5000 < (,0EQDQ01+000000PRSWM2
0199039620999991995010402004+52700-008917SY-MT+0020EINN V0201401N00511009001CN0090001N1+00701+00471101271ADDAG12999AY161021AY261021GA1021+004509999GA2071+009009999GA3081+015009999GF108991081051004501999999MA1101291999999MD1710191+9999MW1611MW2631REMSYN023 333 83712 85625 88650;MET020NEW BECMG 5000 BKN01
0199039620999991995010403004+52700-008917SY-MT+0020EINN V0201101N00571006001CN0150001N1+00631+00521101201ADDAG12002AY161031AY221031GA1021+002409999GA2071+006009999GA3081+015009999GF108991081051002501999999MA1101191999999MD1710181+9999MW1611MW2631REMSYN023 333 82708 86620 88650;MET020NEW BECMG 5000 BKN01
0199039620999991995010404004+52700-008917SY-MT+0020EINN V0201101N00571006001CN0200001N1+00671+00511101121ADDAG12999AY161011AY221011GA1021+002409999GA2071+006009999GA3081+015009999GF108991081061004501999999MA1101081999999MD1710211+9999MW1601MW2611REMSYN023 333 82710 85718 88650;MET020NEW TEMPO 5000 BKN01
0212039620999991995010405004+52700-008917SY-MT+0020EINN V0201101N00511004201CN0200001N1+00681+00551101081ADDAG12999AY161021AY221021GA1021+003009999GA2071+004209999GA3081+015009999GF108991081061004501999999MA1101081999999MD1710191+9999MW1211REMSYN023 333 82710 85714 88650;MET020NEW TEMPO 5000 BKN01EQDQ01+000000PRSWM2
0258039620999991995010406004+52700-008917SY-MT+0020EINN V0201101N00571004201CN0200001N1+00701+00591101081ADDAA199004091AG12001AY161061AY221061GA1071+004209999GA2071+006609999GF108991081051004501999999GJ100549IA1099IA2999+00209KA1120N+00491MA1101021999999MD1610121+9999MW1021REMSYN035 333 20049 31002 55009 84713 88622;MET020NEW TEMPO 5000 BKN01EQDQ01+000000PRSWM2
0190039620999991995010407004+52700-008917SY-MT+0020EINN V0201201N00361003901CN0200001N1+00661+00571101101ADDAG12999GA1021+003009999GA2071+003909999GA3071+006009999GF108991081051004501999999MA1101021999999MD1510021+9999REMSYN023 333 83713 85620 87630;MET020NEW TEMPO 5000 BKN01EQDQ01+000000PRSWM2
0194039620999991995010408004+52700-008917SY-MT+0020EINN V0201401N00151003301CN0120001N1+00681+00591101141ADDAG12999AY151021AY221021GA1021+001809999GA2071+003309999GA3071+005409999GF108991081061002501999999MA1101081999999MD1310061+9999MW1501MW2511REMSYN023 333 82706 86710 87716;MET015NEW TEMPO 5000;
0212039620999991995010409004+52700-008917SY-MT+0020EINN V0201501N00051004501CN0200001N1+00661+00621101221ADDAG12000AY151031AY221031GA1021+002709999GA2071+004509999GA3071+006609999GF107991071061002501999999MA1101081999999MD1310141+9999MW1201REMSYN023 333 81709 84715 87620;MET020NEW TEMPO 5000 BKN01EQDQ01+000000PRSWM2
0178039620999991995010410004+52700-008917SY-MT+0020EINN V0201601N00101004501CN0300001N1+00711+00641101261ADDAG12999GA1021+002709999GA2071+004509999GA3071+010509999GF107991071061002501999999MA1101191999999MD1210161+9999REMSYN023 333 83707 85710 87620;MET008NEW NOSIEQDQ01+000000PRSWM2
0212039620999991995010411004+52700-008917SY-MT+0020EINN V0202001N00311002701CN0200001N1+00771+00701101271ADDAG12999AY151021AY221021GA1021+001809999GA2071+002709999GA3071+006009999GF108991081061002501999999MA1101191999999MD1110131+9999MW1201REMSYN023 333 84706 86710 87715;MET020NEW BECMG SCT010 BKNEQDQ01+000000PRSWM2
0223039620999991995010412004+52700-008917SY-MT+0020EINN V0202101N00211003601CN0300001N1+00851+00771101281ADDAA106999929AG12000AY151061AY221061GA1021+001809999GA2071+003609999GA3071+006009999GF107991071061002501999999MA1101191999999MD1110061+9999MW1201REMSYN023 333 81706 85713 85621;MET020NEW BECMG SCT010 BKNEQDQ01+000000PRSWM2
0178039620999991995010413004+52700-008917SY-MT+0020EINN V0202001N00211006001CN0350001N1+00951+00761101231ADDAG12999GA1021+003009999GA2021+004509999GA3071+006009999GF107991071051002501999999MA1101191999999MD1810031+9999REMSYN023 333 87108 85620 86650;MET008NEW NOSIEQDQ01+000000PRSWM2
0210039620999991995010414004+52700-008917SY-MT+0020EINN V0201701N00311009301CN0180001N1+00891+00751101201ADDAG12999AY161021AY221021GA1021+003909999GA2021+006609999GA3071+009309999GF108991081051002501999999MA1101191999999MD1810071+9999MW1601REMSYN023 333 81709 83717 86625;MET018NEW TEMPO BKN010 ;EQDQ01+000000PRSWM2
0196039620999991995010415004+52700-008917SY-MT+0020EINN V0201601N00361004801CN0070001N1+00901+00761101161ADDAG12001AY161031AY251031GA1021+002709999GA2071+004809999GA3071+007509999GF108991081061002501999999MA1101191999999MD1710121+9999MW1581MW2611REMSYN023 333 82707 85711 87719;MET017NEW TEMPO BKN010;
0199039620999991995010416004+52700-008917SY-MT+0020EINN V0201501N00311002701CN0040001N1+00871+00771101161ADDAG12999AY161011AY251011GA1021+001809999GA2071+002709999GA3071+004509999GF108991081061002501999999MA1101081999999MD1610071+9999MW1581MW2611REMSYN023 333 82706 85709 87714;MET020NEW TEMPO 4000 BKN00
0190039620999991995010417004+52700-008917SY-MT+0020EINN V0201301N00261002701CN0030001N1+00871+00791101181ADDAG12999AY161021AY251021GA1021+001809999GA2071+002709999GA3071+003309999GF108991081061002501999999MA1101081999999MD1510021+9999MW1511REMSYN023 333 82706 85709 87711;MET017NEW TEMPO BKN006;
0195039620999991995010418004+52700-008917SY-MT+0020EINN V0201301N00261002101CN0050001N1+00951+00911101141ADDAA199001091AG12001AY161061AY251061GA1021+001209999GA2071+002109999GF108991081061001501999999KA1120M+00971MA1101081999999MD1710021+9999MW1501MW2511REMSYN023 333 10097 83704 87708;MET008NEW NOSI
0177039620999991995010419004+52700-008917SY-MT+0020EINN V0201901N00411002101CN0025001N1+00991+00951101161ADDAG12999AY151011AY221011GA1021+001209999GA2071+002109999GF108991081061001501999999MA1101081999999MD1410001+9999MW1511MW2521REMSYN017 333 82703 87706;MET020NEW TEMPO 3000 BKN00
0169039620999991995010420004+52700-008917SY-MT+0020EINN V0201801N00361001801CN0035001N1+00991+00971101151ADDAG12999AY151021AY251021GA1021+000909999GA2071+001809999GF108991081061001501999999MA1101081999999MD1610031+9999MW1511REMSYN017 333 83703 87705;MET018NEW TEMPO BKN003 ;
0177039620999991995010421004+52700-008917SY-MT+0020EINN V0201701N00461001801CN0120001N1+01051+01011101101ADDAG12000AY151031AY221031GA1021+001209999GA2071+001809999GF108991081061001501999999MA1101081999999MD1810041+9999MW1501MW2511REMSYN017 333 83704 88709;MET020NEW TEMPO 3000 BKN00
0190039620999991995010422004+52700-008917SY-MT+0020EINN V0201701N00461002701CN0200001N1+01111+00911101031ADDAG12999AY151011AY221011GA1021+001209999GA2081+002709999GF108991081061001501999999MA1101021999999MD1810131+9999MW1201REMSYN017 333 83704 88710;MET020NEW TEMPO 3000 BKN00EQDQ01+000000PRSWM2
0168039620999991995010423004+52700-008917SY-MT+0020EINN V0201701N00311003901CN0300001N1+01051+00991100981ADDAG12999GA1021+001209999GA2081+003909999GF108991081061001501999999MA1100911999999MD1710171+9999REMSYN017 333 83704 88713;MET020NEW TEMPO 3000 BKN00EQDQ01+000000PRSWM2
0221039620999991995010500004+52700-008917SY-MT+0020EINN V0202101N00511006001CN0300001N1+01131+01031100951ADDAA106000591AG12000AY151061AY221061GA1021+001209999GA2021+003009999GA3081+006009999GF108991081061001501999999MA1100911999999MD1710151+9999MW1021REMSYN023 333 82704 83713 88630;MET018NEW TEMPO BKN005 ;EQDQ01+000000PRSWM2
0196039620999991995010501004+52700-008917SY-MT+0020EINN V0202001N00511003001CN0200001N1+01131+01031100901ADDAG12999AY151011AY221011GA1021+001509999GA2071+003009999GA3071+006309999GF108991081061002501999999MA1100911999999MD1710131+9999MW1201MW2511REMSYN023 333 82707 85716 87620;MET017NEW TEMPO BKN005;
0196039620999991995010502004+52700-008917SY-MT+0020EINN V0201901N00571003001CN0150001N1+01111+01011100761ADDAG12999AY151021AY221021GA1021+001509999GA2071+003009999GA3071+004809999GF108991081061002501999999MA1100811999999MD1810221+9999MW1201MW2511REMSYN023 333 82706 86711 87716;MET017NEW TEMPO BKN005;
0196039620999991995010503004+52700-008917SY-MT+0020EINN V0202001N00571003001CN0090001N1+01101+01001100731ADDAG12000AY151031AY221031GA1021+002109999GA2071+003009999GA3071+004509999GF108991081061002501999999MA1100711999999MD1710221+9999MW1501MW2511REMSYN023 333 83706 85709 87715;MET017NEW TEMPO BKN005;
0212039620999991995010504004+52700-008917SY-MT+0020EINN V0202101N00721012001CN0250001N1+01151+01001100641ADDAG12999AY151011AY221011GA1021+002109999GA2021+003609999GA3071+012009999GF107991071061002501999999MA1100611999999MD1710261+9999MW1201REMSYN023 333 81708 85715 86640;MET020NEW TEMPO 5000 BKN00EQDQ01+000000PRSWM2
0216039620999991995010505004+52700-008917SY-MT+0020EINN V0202301N00511004201CN0080001N1+00851+00681100701ADDAG12999AY161021AY261021GA1021+001509999GA2071+004209999GA3071+007509999GF108991081051002501999999MA1100611999999MD1510061+9999MW1611MW2631OC101231REMSYN023 333 82707 85625 88650;MET029NEW BECMG 9999 SCT015 BKN020;
0255039620999991995010506004+52700-008917SY-MT+0020EINN V0202301N00571015001CN0200001N1+00901+00731100691ADDAA199003091AG12001AY161061AY251061GA1021+003009999GA2021+007509999GA3081+015009999GF108991081051004501999999GJ100009IA1099IA2999+00809KA1120N+00821MA1100611999999MD1810041+9999MW1211MW2611REMSYN041 333 20082 31008 55000 82710 84625 88656;MET008NEW NOSI
0172039620999991995010507004+52700-008917SY-MT+0020EINN V0202401N00931220001CN0200001N1+00911+00631100741ADDAG12999GA1021+007509999GA2071+015009999GF199999041051008001001001MA1100711999999MD1210101+9999REMSYN017 333 82625 83650;MET008NEW NOSIEQDQ01+000042SCOTCVQ02+000000PRSWM2
0150039620999991995010508004+52700-008917SY-MT+0020EINN V0202301N00571012001CN0200001N1+00841+00551100761ADDAG12999GA1021+007509999GA2021+015009999GF105991051051012501001001MA1100711999999MD1310061+9999REMSYN011 333 85635;MET008NEW NOSIEQDQ01+000000PRSWM2
0156039620999991995010509004+52700-008917SY-MT+0020EINN V0202301N00671220001CN0200001N1+00831+00561100781ADDAG12001AY181031AY211031GA1021+009609999GF103991031081008001001001MA1100711999999MD1210091+9999MW1251REMSYN011 333 82820;MET008NEW NOSIEQDQ01+000000PRSWM2
0134039620999991995010510004+52700-008917SY-MT+0020EINN V0202301N00671220001CN0200001N1+00821+00501100831ADDAG12999GA1021+006009999GF102991021081008001001001MA1100811999999MD1210091+9999REMSYN011 333 81820;MET008NEW NOSIEQDQ01+000000PRSWM2
0154039620999991995010511004+52700-008917SY-MT+0020EINN V0202301N00571012001CN0200001N1+00891+00561100851ADDAG12999AY181021AY211021GA1021+006009999GF107991071081008001999999MD1110091+9999MW1801REMSYN017 333 85820 86650;MET015NEW Q108 .098<;EQDQ01+000000PRSWM2
0182039620999991995010512004+52700-008917SY-MT+0020EINN V0202401N00771005401CN0200001N1+00801+00581100851ADDAA106002091AG12001AY181061AY211061GA1021+003009999GA2071+005409099GF107991071031004501999999MA1100811999999MD1010071+9999MW1251MW2801REMSYN023 333 81710 82918 86650;MET008NEW NOSI
0190039620999991995010513004+52700-008917SY-MT+0020EINN V0202401N01181004201CN0200001N1+00811+00421100821ADDAG12999AY181011AY221011GA1021+004509999GA2021+005409099GF107991071031004501999999MA1100811999999MD1810011+9999MW1801REMSYN029 333 81710 84918 87650 91134;MET008NEW NOSIEQDQ01+000000PRSWM2
0172039620999991995010514004+52700-008917SY-MT+0020EINN V0202401N00821220001CN0300001N1+00901+00451100811ADDAG12999AY181021AY211021GA1021+003009999GA2021+005409099GF103991031021008001001001MA1100811999999MD1710041+9999MW1251REMSYN011 333 83820;MET008NEW NOSIEQDQ01+000000PRSWM2
0162039620999991995010515004+52700-008917SY-MT+0020EINN V0202501N00771006001CN0250001N1+00821+00501100831ADDAG12001AY181031AY211031GA1071+006009999GF199999061021008001999999MA1100811999999MD1610021+9999MW1251MW2801REMSYN011 333 86820;MET008NEW NOSIEQDQ01+000062SCOTCV
0171039620999991995010516004+52700-008917SY-MT+0020EINN V0202601N00621007501CN0300001N1+00691+00311100871ADDAG12999AY181011AY221011GA1021+006009099GA2021+006009999GF105991051031008001999999MA1100811999999MD1310051+9999MW1251MW2801REMSYN023 333 82920 83820 91134;MET008NEW NOSI
0178039620999991995010517004+52700-008917SY-MT+0020EINN V0202601N00571007501CN0300001N1+00631+00391100941ADDAG12999AY181021AY221021GA1021+006009099GA2021+006009999GF107991071031008001999999MA1100911999999MD1310131+9999MW1251REMSYN017 333 83920 84820;MET008NEW NOSIEQDQ01+000000PRSWM2
0167039620999991995010518004+52700-008917SY-MT+0020EINN V0202401N00621220001CN0300001N1+00681+00471100971ADDAA199003091AG12001AY181061AY211061GA1021+005409099GF103991031031004501001021KA1120M+00911MA1100911999999MD1210141+9999MW1801REMSYN017 333 10091 83918;MET008NEW NOSI
0074039620999991995010518304+52700-008917FM-15+0020EINN V0202501N00461220001CN0112651N1+99999+99999999999ADDAG12999GA1021+005409099REMMET020NEW 0404 Q1009 NOSIGEQDQ01+000000PRSWM2
0134039620999991995010520004+52700-008917SY-MT+0020EINN V0202501N00511220001CN0300001N1+00671+00391101101ADDAG12999GA1021+005409099GF102991021031004501001001MA1101021999999MD1210161+9999REMSYN011 333 82918;MET008NEW NOSIEQDQ01+000000PRSWM2
0162039620999991995010521004+52700-008917SY-MT+0020EINN V0202801N00461002101CN0080001N1+00651+00391101191ADDAG12001AY181031AY211031GA1021+005409999GF106991061031002501999999MA1101081999999MD1210221+9999MW1801REMSYN017 333 82707 86918;MET008NEW NOSIEQDQ01+000000PRSWM2
0156039620999991995010522004+52700-008917SY-MT+0020EINN V0202701N00621220001CN0300001N1+00641+00401101251ADDAG12999AY181011AY211011GA1021+005409099GF104991041031008001001001MA1101191999999MD1210211+9999MW1251REMSYN011 333 83920;MET008NEW NOSIEQDQ01+000000PRSWM2
0174039620999991995010523004+52700-008917SY-MT+0020EINN V0203101N00821002101CN0070001N1+00601+00361101381ADDAG12999AY181021AY211021GA1021+006009099GF107991071031002501999999MA1101291999999MD1210281+9999MW1811REMSYN029 333 82707 83712 86918 91134;MET008NEW NOSIEQDQ01+000000PRSWM2
0173039620999991995010600004+52700-008917SY-MT+0020EINN V0202801N00571004201CN0250001N1+00611+00371101441ADDAA106002091AG12001AY181061AY211061GA1021+005709099GF105991051031004501001001MA1101291999999MD1210251+9999MW1251REMSYN017 333 83919 83626;MET008NEW NOSIEQDQ01+000000PRSWM2
0156039620999991995010601004+52700-008917SY-MT+0020EINN V0202801N00621220001CN0250001N1+00561+00321101591ADDAG12999AY181011AY211011GA1021+005709099GF102991021031004501001001MA1101391999999MD1210341+9999MW1251REMSYN011 333 82919;MET008NEW NOSIEQDQ01+000000PRSWM2
0202039620999991995010602004+52700-008917SY-MT+0020EINN V0202801N00261220001CN0250001N1+00651+00341101701ADDAG12999AY181021AY211021GA1021+001809999GA2021+003609999GA3071+005409099GF199999021031004501001001MA1101591999999MD1210321+9999MW1251MW2611OC101231REMSYN011 333 82919;MET008NEW NOSIEQDQ01+000022SCOTCV
0186039620999991995010603004+52700-008917SY-MT+0020EINN V0202801N00101220001CN0250001N1+00561+00351101821ADDAG12001AY181031AY211031GA1021+002709999GA2021+005709099GF102991021031002501001001MA1101691999999MD1210381+9999MW1251OC101651REMSYN017 333 81709 82919;MET008NEW NOSIEQDQ01+000000PRSWM2
0156039620999991995010604004+52700-008917SY-MT+0020EINN V0202901N00361220001CN0250001N1+00601+00281101951ADDAG12999GA1021+002709999GA2021+005709099GF102991021031002501001001MA1101801999999MD1210361+9999REMSYN017 333 81709 82919;MET008NEW NOSIEQDQ01+000000PRSWM2
0150039620999991995010605004+52700-008917SY-MT+0020EINN V0203001N00411220001CN0250001N1+00601+00281102101ADDAG12999GA1021+002709999GA2021+005709099GF102991021031008001001001MA1102001999999MD1210401+9999REMSYN011 333 81920;MET008NEW NOSIEQDQ01+000000PRSWM2
0224039620999991995010606004+52700-008917SY-MT+0020EINN V0202801N00571220001CN0250001N1+00621+00251102191ADDAA199002091AG12001AY181061AY211061GA1021+006009099GF103991011031008001001021GJ100609IA1099IA2999+00009KA1120N+00501MA1102101999999MD1210371+9999MW1031REMSYN029 333 20050 31100 55010 81920;MET008NEW NOSIEQDQ01+000000PRSWM2
0159039620999991995010607004+52700-008917SY-MT+0020EINN V0202801N00511220001CN0200001N1+00581+00221102311ADDAG12999AY181011AY201011GA1021+006009999GA2021+009009999GF102991021031008001001001MA1102201999999MD1210361+9999MW1251MW2801REMSYN011 333 81920;MET008NEW NOSI
0162039620999991995010608004+52700-008917SY-MT+0020EINN V0203301N00511220001CN0200001N1+00571+00281102441ADDAG12999AY181021AY211021GA1021+006009099GF104991041031008001001001MA1102301999999MD1210341+9999MW1251REMSYN017 333 82920 83640;MET008NEW NOSIEQDQ01+000000PRSWM2
0156039620999991995010609004+52700-008917SY-MT+0020EINN V0202901N00151220001CN0200001N1+00511+00261102561ADDAG12001AY181031AY211031GA1021+006009099GF103991021031008001031001MA1102401999999MD1210371+9999MW1251REMSYN011 333 82920;MET008NEW NOSIEQDQ01+000000PRSWM2
0134039620999991995010610004+52700-008917SY-MT+0020EINN V0202301N00211220001CN0250001N1+00541+00291102621ADDAG12999GA1021+006009999GF102991021081008001001001MA1102611999999MD1210311+9999REMSYN011 333 81820;MET008NEW NOSIEQDQ01+000000PRSWM2
0134039620999991995010611004+52700-008917SY-MT+0020EINN V0202301N00211220001CN0250001N1+00671+00341102701ADDAG12999GA1021+006009999GF103991031081008001001001MA1102711999999MD1210261+9999REMSYN011 333 81820;MET008NEW NOSIEQDQ01+000000PRSWM2
0176039620999991995010612004+52700-008917SY-MT+0020EINN V0202401N00261012001CN0250001N1+00741+00491102771ADDAA106000191AG12001AY181061AY211061GA1021+003609999GA2021+006009099GF106991061081008001999999MA1102711999999MD1110201+9999MW1251MW2801REMSYN017 333 83820 85650;MET008NEW NOSI
0178039620999991995010613004+52700-008917SY-MT+0020EINN V0202601N00311012001CN0250001N1+00761+00491102821ADDAG12999AY181011AY221011GA1021+006009999GA2021+015009999GF106991061081008001999999MA1102811999999MD1210201+9999MW1251REMSYN017 333 83820 85650;MET008NEW NOSIEQDQ01+000000PRSWM2
0184039620999991995010614004+52700-008917SY-MT+0020EINN V0202501N00461015001CN0300001N1+00771+00481102801ADDAG12999AY181021AY221021GA1021+006009999GA2071+015009999GF199999051031004501001021MA1102811999999MD1010101+9999MW1251MW2801REMSYN017 333 82919 84650;MET008NEW NOSIEQDQ01+000062SCOTCV
0194039620999991995010615004+52700-008917SY-MT+0020EINN V0202601N00411015001CN0250001N1+00801+00561102851ADDAG12001AY181031AY221031GA1021+004809999GA2021+006009099GA3071+015009999GF107991061031004501031999MA1102811999999MD1210091+9999MW1801REMSYN017 333 81715 84920;MET008NEW NOSIEQDQ01+000000PRSWM2
0184039620999991995010616004+52700-008917SY-MT+0020EINN V0202401N00261013501CN0300001N1+00771+00531102931ADDAG12999AY181011AY221011GA1021+005709999GA2071+013509999GF107991041081008001071999MA1102811999999MD1310111+9999MW1251REMSYN023 333 81820 84645 87460;MET008NEW NOSIEQDQ01+000000PRSWM2
0200039620999991995010617004+52700-008917SY-MT+0020EINN V0202101N00261015001CN0300001N1+00661+00531102961ADDAG12999AY181021AY221021GA1021+003009999GA2071+015009999GA3071+030009999GF107991041081004501071999MA1102911999999MD1110151+9999MW1251REMSYN023 333 81818 84650 86459;MET008NEW NOSIEQDQ01+000000PRSWM2
0208039620999991995010618004+52700-008917SY-MT+0020EINN V0201801N00311027001CN0300001N1+00651+00521102971ADDAA199000591AG10001AY181061AY221061GA1021+006009999GA2071+027009999GF107991031081008001071999KA1120M+00881MA1102911999999MD1210111+9999MW1021REMSYN023 333 10088 81820 86459;MET008NEW NOSIEQDQ01+000000PRSWM2
0093039620999991995010619004+52700-008917FM-15+0020EINN V0201701N00261027001CN0112651N1+00601+00501999999ADDAG12999GA1021+009009999GA2071+027009999MA1102911999999REMMET008NEW NOSIEQDQ01+000000PRSWM2
0156039620999991995010620004+52700-008917SY-MT+0020EINN V0201901N00311027001CN0250001N1+00651+00491102971ADDAG12999GA1021+009009999GA2071+027009999GF107991011051012501071999MA1102911999999MD1210011+9999REMSYN017 333 81630 86459;MET008NEW NOSIEQDQ01+000000PRSWM2
0156039620999991995010621004+52700-008917SY-MT+0020EINN V0201701N00411027001CN0250001N1+00711+00481102981ADDAG12000GA1021+009009999GA2071+027009999GF107991011051012501071999MA1102911999999MD1210011+9999REMSYN017 333 81630 87459;MET008NEW NOSIEQDQ01+000000PRSWM2
0178039620999991995010622004+52700-008917SY-MT+0020EINN V0201801N00361027001CN0250001N1+00731+00521102931ADDAG12999AY181011AY221011GA1021+006009999GA2071+027009999GF107991021021008001071999MA1102911999999MD1810051+9999MW1251REMSYN017 333 82820 87459;MET008NEW NOSIEQDQ01+000000PRSWM2
0156039620999991995010623004+52700-008917SY-MT+0020EINN V0201601N00361024001CN0200001N1+00771+00531102891ADDAG12999GA1021+012009999GA2081+024009999GF108991021051012501071999MA1102811999999MD1810071+9999REMSYN017 333 82640 88458;MET008NEW NOSIEQDQ01+000000PRSWM2
0211039620999991995010700004+52700-008917SY-MT+0020EINN V0201701N00461009901CN0200001N1+00771+00591102861ADDAA106999929AG12001AY161061AY221061GA1021+006609999GA2071+009909999GA3081+024009999GF108991061051008001071999MA1102811999999MD1710111+9999MW1021REMSYN023 333 84622 85633 88458;MET008NEW NOSIEQDQ01+000000PRSWM2
0156039620999991995010701004+52700-008917SY-MT+0020EINN V0201501N00361006001CN0250001N1+00821+00621102871ADDAG12999GA1021+005109999GA2071+006009999GF108991081051004501999999MA1102811999999MD1510051+9999REMSYN017 333 82717 87620;MET008NEW NOSIEQDQ01+000000PRSWM2
0187039620999991995010702004+52700-008917SY-MT+0020EINN V0201701N00311006001CN0090001N1+00901+00731102841ADDAG12999AY151021AY221021GA1021+002109999GA2021+004209999GA3081+006009999GF108991081061002501999999MA1102811999999MD1710051+9999MW1501MW2511REMSYN023 333 82707 85714 88620;MET008NEW NOSI
0187039620999991995010703004+52700-008917SY-MT+0020EINN V0201601N00261004201CN0090001N1+00931+00831102851ADDAG12000AY151031AY221031GA1021+002109999GA2071+004209999GA3081+006009999GF108991081061002501999999MA1102811999999MD1510011+9999MW1501MW2511REMSYN023 333 82707 85714 88620;MET008NEW NOSI
0187039620999991995010704004+52700-008917SY-MT+0020EINN V0202001N00411002701CN0180001N1+00971+00891102841ADDAG12999AY151011AY221011GA1021+001809999GA2071+002709999GA3071+004209999GF108991081061002501999999MA1102811999999MD1710031+9999MW1201MW2531REMSYN023 333 82709 85714 87620;MET008NEW NOSI
0194039620999991995010705004+52700-008917SY-MT+0020EINN V0202201N00571004201CN0150001N1+00991+00891102831ADDAG12999AY151021AY221021GA1021+002709999GA2071+004209999GA3071+006609999GF108991081061002501999999MA1102811999999MD1710011+9999MW1501REMSYN017 333 85708 88713;MET008NEW NOSIEQDQ01+000000PRSWM2
0233039620999991995010706004+52700-008917SY-MT+0020EINN V0202201N00511003601CN0120001N1+01031+00931102841ADDAA199000191AG12000AY151061AY221061GA1021+002109999GA2081+003609999GF108991081061001501999999GJ100849IA1099IA2999+00409KA1120N+00611MA1102811999999MD1710011+9999MW1501MW2511REMSYN035 333 20061 31004 55014 85705 88712;MET008NEW NOSI
0172039620999991995010707004+52700-008917SY-MT+0020EINN V0202201N00461003001CN0200001N1+01051+00931102861ADDAG12999AY151011AY221011GA1021+001809999GA2081+003009999GF108991081061002501999999MA1102811999999MD1210021+9999MW1201REMSYN011 333 88707;MET008NEW NOSIEQDQ01+000000PRSWM2
0172039620999991995010708004+52700-008917SY-MT+0020EINN V0202201N00461007501CN0200001N1+01081+00961102901ADDAG12999GA1021+002109999GA2021+004209999GA3081+007509999GF108991081061002501999999MA1102811999999MD1310071+9999REMSYN017 333 84706 88710;MET008NEW NOSIEQDQ01+000000PRSWM2
0168039620999991995010709004+52700-008917SY-MT+0020EINN V0202201N00411002401CN0400001N1+01051+00991102961ADDAG12000AY151031AY221031GA1081+002409999GF108991081061002501999999MA1102911999999MD1310121+9999MW1021REMSYN023 333 84707 85711 88620;MET008NEW NOSIEQDQ01+000000PRSWM2
0178039620999991995010710004+52700-008917SY-MT+0020EINN V0202201N00361002701CN0150001N1+01081+01041103011ADDAG12999GA1071+002709999GA2081+004509999GF199999071061002501999999MA1102911999999MD1310151+9999REMSYN023 333 83708 86715 87625;MET008NEW NOSIEQDQ01+000072SCOTCVQ02+000000PRSWM2
0178039620999991995010711004+52700-008917SY-MT+0020EINN V0202101N00261003901CN0200001N1+01081+01021103031ADDAG12999GA1021+002409999GA2071+003909999GA3071+005409999GF107991071061002501999999MA1103011999999MD1110131+9999REMSYN023 333 82709 86713 87622;MET008NEW NOSIEQDQ01+000000PRSWM2
0211039620999991995010712004+52700-008917SY-MT+0020EINN V0202301N00511003901CN0200001N1+01161+01051102971ADDAA106000191AG12000AY151061AY221061GA1021+002709999GA2071+003909999GA3071+007509999GF107991071061002501999999MA1103011999999MD1010011+9999MW1021REMSYN023 333 82709 85715 87625;MET008NEW NOSIEQDQ01+000000PRSWM2
0172039620999991995010713004+52700-008917SY-MT+0020EINN V0202301N00361003901CN0200001N1+01141+01021102971ADDAG12999GA1021+002709999GA2071+003909999GA3071+007509999GF107991071051004501999999MA1102911999999MD1610041+9999REMSYN017 333 83713 86629;MET008NEW NOSIEQDQ01+000000PRSWM2
0156039620999991995010714004+52700-008917SY-MT+0020EINN V0202301N00571008701CN0300001N1+01191+00961102951ADDAG12999GA1021+003909999GA2071+008709999GF107991071051004501999999MA1102911999999MD1710081+9999REMSYN017 333 82713 87625;MET008NEW NOSIEQDQ01+000000PRSWM2
0200039620999991995010715004+52700-008917SY-MT+0020EINN V0202401N00771006001CN0260001N1+01201+00991102951ADDAG12001AY161031AY221031GA1021+004509999GA2071+006009999GA3071+007509999GF108991081061004501999999MA1102911999999MD1710021+9999MW1601REMSYN023 333 82710 85715 87622;MET008NEW NOSIEQDQ01+000000PRSWM2
0196039620999991995010716004+52700-008917SY-MT+0020EINN V0202201N00461004501CN0180001N1+01131+01011102981ADDAG12999AY161011AY251011GA1021+003309999GA2071+004509999GA3071+006009999GF107991071061002501999999MA1102911999999MD1310011+9999MW1501MW2511REMSYN023 333 82708 85712 87716;MET017NEW TEMPO BKN010;
0212039620999991995010717004+52700-008917SY-MT+0020EINN V0202301N00411003901CN0200001N1+01111+00991102991ADDAG12999AY151021AY221021GA1021+002409999GA2071+003909999GA3071+004509999GF108991081061004501999999MA1102911999999MD1210041+9999MW1201REMSYN023 333 82712 85715 87621;MET020NEW TEMPO 5000 BKN00EQDQ01+000000PRSWM2
0220039620999991995010718004+52700-008917SY-MT+0020EINN V0202301N00671003601CN0200001N1+01151+01001102971ADDAA199000191AG12001AY161061AY251061GA1071+003609999GA2071+005409999GF108991081061004501999999KA1120M+01261MA1102911999999MD1210021+9999MW1021REMSYN023 333 10126 84712 86716;MET020NEW TEMPO 5000 BKN00EQDQ01+000000PRSWM2
0172039620999991995010719004+52700-008917SY-MT+0020EINN V0202301N00621002701CN0200001N1+01151+01021102961ADDAG12999AY151011AY221011GA1071+002709999GA2071+003609999GF108991081061002501999999MA1102911999999MD1710021+9999MW1201MW2511REMSYN017 333 82709 87712;MET015NEW TEMPO 5000;
0177039620999991995010720004+52700-008917SY-MT+0020EINN V0202301N00621003001CN0150001N1+01101+01001102931ADDAG12999AY151021AY221021GA1021+002109999GA2071+003009999GF108991081061002501999999MA1102911999999MD1710061+9999MW1511MW2601REMSYN017 333 85707 86713;MET020NEW TEMPO 5000 BKN00
0190039620999991995010721004+52700-008917SY-MT+0020EINN V0202301N00621003901CN0080001N1+01161+01051102941ADDAG12001AY161031AY251031GA1021+002109999GA2071+003909999GF108991081061002501999999MA1102911999999MD1710031+9999MW1211REMSYN017 333 83707 87710;MET020NEW TEMPO 5000 BKN00EQDQ01+000000PRSWM2
0192039620999991995010722004+52700-008917SY-MT+0020EINN V0202301N00511001501CN0040001N1+01101+01041102931ADDAG12999AY161011AY251011GA1071+001509999GA2071+002709999GF108991081061001501999999MA1102911999999MD1710031+9999MW1511MW2581REMSYN023 333 85705 86708 87710;MET029NEW BECMG 8000 SCT007 BKN012;
0192039620999991995010723004+52700-008917SY-MT+0020EINN V0202601N00571002401CN0045001N1+01091+01051102931ADDAG12999AY161021AY251021GA1021+001509999GA2071+002409999GF108991081061001501999999MA1102911999999MD1010001+9999MW1511MW2581MW3611REMSYN017 333 83703 88706;MET029NEW BECMG 8000 SCT007 BKN012;
0203039620999991995010800004+52700-008917SY-MT+0020EINN V0203201N00411001501CN0080001N1+00881+00841102981ADDAA106003091AG12001AY161061AY251061GA1071+001509999GA2071+002409999GF108991081061001501999999MA1102911999999MD1310041+9999MW1511MW2611REMSYN023 333 82705 83708 87620;MET029NEW BECMG 8000 SCT007 BKN012;
0177039620999991995010801004+52700-008917SY-MT+0020EINN V0203201N00311001501CN0090001N1+00871+00811103041ADDAG12999AY161011AY251011GA1071+001509999GA2081+003009999GF108991081061001501999999MA1103011999999MD1310111+9999MW1511MW2581REMSYN017 333 85705 88709;MET020NEW BECMG SCT010 BKN
0171039620999991995010802004+52700-008917SY-MT+0020EINN V0203201N00101002101CN0090001N1+00851+00791103081ADDAG12999AY161021AY261021GA1071+002109999GA2081+003609999GF108991081061002501999999MA1103011999999MD1210151+9999MW1611REMSYN017 333 85706 88712;MET020NEW BECMG SCT010 BKN
0177039620999991995010803004+52700-008917SY-MT+0020EINN V0202801N00101004801CN0200001N1+00821+00781103121ADDAG12001AY161031AY221031GA1021+001809999GA2081+004809999GF108991081061002501999999MA1103011999999MD1210141+9999MW1211MW2611REMSYN017 333 85709 88716;MET020NEW BECMG SCT010 BKN
0195039620999991995010804004+52700-008917SY-MT+0020EINN V0209991C00001015001CN0300001N1+00771+00731103121ADDAG12999AY161011AY221011GA1021+002709999GA2081+015009999GF108991081051002501999999MA1103121999999MD1110081+9999MW1211REMSYN017 333 83709 88637;MET025NEW BECMG SCT010 BKN020 ;EQDQ01+000000PRSWM2
0172039620999991995010805004+52700-008917SY-MT+0020EINN V0203301N00211011401CN0250001N1+00791+00681103161ADDAG12999GA1021+002709999GA2081+011409999GF199999071051004501999999MA1103121999999MD1210081+9999REMSYN017 333 81710 86638;MET008NEW NOSIEQDQ01+000072SCOTCVQ02+000000PRSWM2
0256039620999991995010806004+52700-008917SY-MT+0020EINN V0203301N00211220001CN0150001N1+00661+00561103211ADDAA199004091AG12001AY161061AY251061GA1021+003009999GA2071+011409999GF199999021051012501001001GJ100069IA1099IA2999+00209KA1120N+00661MA1103181999999MD1210091+9999MW1011REMSYN029 333 20066 31002 55001 82635;MET008NEW NOSIEQDQ01+000022SCOTCVQ02+000000PRSWM2
0157039620999991995010807004+52700-008917SY-MT+0020EINN V0203101N00151220001CN0150001N1+00611+00451103281ADDAG12999GA1021+010509999GF199999011051012501001001MA1103181999999MD1210161+9999REMSYN011 333 81635;MET015NEW BECMG 5000;EQDQ01+000012SCOTCVQ02+000000PRSWM2
0147039620999991995010808004+52700-008917SY-MT+0020EINN V0202801N00101012001CN0200001N1+00541+00421103311ADDAG12999GA1021+010509999GF106991061051012501999999MA1103181999999MD1210151+9999REMSYN017 333 81635 85656;MET015NEW BECMG 5000;EQDQ01+000000PRSWM2
0150039620999991995010809004+52700-008917SY-MT+0020EINN V0203101N00051075001CN0180001N1+00551+00441103381ADDAG12000GA1021+010509999GA2021+018009999GF105991041051008001001021MA1103291999999MD1210171+9999REMSYN011 333 82628;MET008NEW NOSIEQDQ01+000000PRSWM2
0183039620999991995010810004+52700-008917SY-MT+0020EINN V0203201N00151006001CN0100001N1+00691+00561103431ADDAG12999AY181011AY221011GA1021+003609999GA2071+006009999GF107991071081004501999999MA1103391999999MD1210141+9999MW1251MW2801REMSYN035 333 82712 83818 86640 98480 98580;MET008NEW NOSI
0156039620999991995010811004+52700-008917SY-MT+0020EINN V0203101N00311220001CN0250001N1+00731+00521103481ADDAG12999AY181021AY211021GA1021+003609999GF102991021081004501001001MA1103391999999MD1210161+9999MW1251REMSYN011 333 81712;MET008NEW NOSIEQDQ01+000000PRSWM2
0173039620999991995010812004+52700-008917SY-MT+0020EINN V0202701N00411220001CN0400001N1+00841+00521103401ADDAA106001091AG12001AY181061AY211061GA1021+006009999GF104991021081008001001021MA1103391999999MD1010021+9999MW1251REMSYN017 333 81820 84070;MET008NEW NOSIEQDQ01+000000PRSWM2
0172039620999991995010813004+52700-008917SY-MT+0020EINN V0202801N00571060001CN0400001N1+00831+00441103421ADDAG12999GA1021+006009999GA2071+060009999GF199999021081008001031021MA1103391999999MD1510001+9999REMSYN017 333 81820 85070;MET008NEW NOSIEQDQ01+000062SCOTCVQ02+000000PRSWM2
0140039620999991995010814004+52700-008917SY-MT+0020EINN V0202801N00721012001CN0400001N1+00851+00421103381ADDAG12999GA1021+006009999GF107991061081008001999021MA1103291999999MD1710091+9999REMSYN017 333 84820 84640;MET008NEW NOSIEQDQ01+000000PRSWM2
0178039620999991995010815004+52700-008917SY-MT+0020EINN V0202701N00671012001CN0250001N1+00821+00531103391ADDAG12001AY181031AY221031GA1021+006009999GA2021+012009999GF107991071081008001999021MA1103291999999MD1510011+9999MW1801REMSYN017 333 85820 83640;MET008NEW NOSIEQDQ01+000000PRSWM2
0165039620999991995010816004+52700-008917SY-MT+0020EINN V0202601N00511012001CN0300001N1+00801+00561103391ADDAG12999AY181011AY221011GA1021+006009999GA2021+012009999GF107991071081008001999999MA1103291999999MD1610031+9999MW1251MW2801REMSYN017 333 82822 86645;MET008NEW NOSI
0171039620999991995010817004+52700-008917SY-MT+0020EINN V0202601N00411220001CN0300001N1+00771+00551103391ADDAG12999GA1021+006609089GF104991041081008001001001MD1110011+9999REMSYN017 333 82822 83645;MET054NEW 1630Z -621(5 9999 BKN022 SCT045 08/05 Q1034 NOSIG;EQDQ01+000000PRSWM2
0208039620999991995010818004+52700-008917SY-MT+0020EINN V0202501N00361009001CN0300001N1+00801+00561103381ADDAA199001091AG12001AY181061AY221061GA1021+006609999GA2021+013509999GF105991051081004501001001KA1120M+00911MA1103291999999MD1610011+9999MW1801REMSYN023 333 10091 82710 83822;MET008NEW NOSIEQDQ01+000000PRSWM2
0178039620999991995010819004+52700-008917SY-MT+0020EINN V0202801N00621220001CN0300001N1+00821+00581103501ADDAG12999AY181011AY211011GA1021+006609999GA2021+013509999GF103991031081008001001001MA1103391999999MD1210111+9999MW1251REMSYN017 333 82822 83645;MET008NEW NOSIEQDQ01+000000PRSWM2
0156039620999991995010820004+52700-008917SY-MT+0020EINN V0202801N00411220001CN0300001N1+00781+00601103451ADDAG12999GA1021+006609999GA2021+013509999GF103991031081008001001001MA1103391999999MD1010061+9999REMSYN017 333 82822 83635;MET008NEW NOSIEQDQ01+000000PRSWM2
0178039620999991995010821004+52700-008917SY-MT+0020EINN V0202601N00461220001CN0300001N1+00751+00571103421ADDAG12001AY181031AY201031GA1021+006609999GA2021+010509999GF103991031081008001001001MA1103391999999MD1010041+9999MW1021REMSYN017 333 81822 83635;MET008NEW NOSIEQDQ01+000000PRSWM2
0172039620999991995010822004+52700-008917SY-MT+0020EINN V0202401N00461220001CN0300001N1+00751+00571103411ADDAG11999GA1021+006009999GA2071+010509999GF199999041081008001001001MA1103391999999MD1710091+9999REMSYN017 333 81820 84635;MET008NEW NOSIEQDQ01+000042SCOTCVQ02+000000PRSWM2
0166039620999991995010823004+52700-008917SY-MT+0020EINN V0202601N00411012001CN0300001N1+00791+00591103411ADDAG11999GA1021+006009999GA2071+012009999GF199999051051012501001001MA1103391999999MD1710041+9999REMSYN011 333 85640;MET008NEW NOSIEQDQ01+000052SCOTCVQ02+000000PRSWM2
0167039620999991995010900004+52700-008917SY-MT+0020EINN V0202401N00461220001CN0300001N1+00791+00591103351ADDAA106001091AG11001AY181061AY211061GA1021+012009999GF103991031051012501001001MA1103291999999MD1810071+9999MW1011REMSYN011 333 83640;MET008NEW NOSIEQDQ01+000000PRSWM2
0150039620999991995010901004+52700-008917SY-MT+0020EINN V0202601N00461220001CN0300001N1+00801+00561103371ADDAG11999GA1021+012009999GA2021+036009999GF103991021051012501031001MA1103291999999MD1510041+9999REMSYN011 333 82645;MET008NEW NOSIEQDQ01+000000PRSWM2
0140039620999991995010902004+52700-008917SY-MT+0020EINN V0202501N00511220001CN0300001N1+00831+00611103301ADDAG11999GA1021+006909999GF104991041081008001031001MA1103291999999MD1710111+9999REMSYN017 333 83823 83648;MET008NEW NOSIEQDQ01+000000PRSWM2
0178039620999991995010903004+52700-008917SY-MT+0020EINN V0202601N00671012001CN0250001N1+00811+00591103251ADDAG12001AY181031AY211031GA1021+006909999GA2021+010509999GF105991051081008001001001MA1103181999999MD1810101+9999MW1251REMSYN017 333 82823 84635;MET008NEW NOSIEQDQ01+000000PRSWM2
0140039620999991995010904004+52700-008917SY-MT+0020EINN V0202601N00671012001CN0300001N1+00841+00621103151ADDAG11999GA1021+010509999GF106991061081008001999999MA1103181999999MD1710221+9999REMSYN017 333 81823 85632;MET008NEW NOSIEQDQ01+000000PRSWM2
0156039620999991995010905004+52700-008917SY-MT+0020EINN V0202601N00721010501CN0250001N1+00891+00631103151ADDAG11999GA1021+007509999GA2071+010509999GF107991071081008001999999MA1103121999999MD1610151+9999REMSYN017 333 83820 85630;MET008NEW NOSIEQDQ01+000000PRSWM2
0252039620999991995010906004+52700-008917SY-MT+0020EINN V0202501N00821015001CN0200001N1+00901+00621103091ADDAA199999929AG11001AY181061AY211061GA1021+006009999GA2071+015009999GF107991071081008001999999GJ101629IA1099IA2999+00309KA1120N+00701MA1103011999999MD1710161+9999MW1021REMSYN041 333 20070 31003 55027 82820 85630 87650;MET008NEW NOSIEQDQ01+000000PRSWM2
0178039620999991995010907004+52700-008917SY-MT+0020EINN V0202501N00821015001CN0200001N1+00921+00641103061ADDAG11999GA1021+006009999GA2021+009009999GA3071+015009999GF107991071051008001999999MA1103011999999MD1810091+9999REMSYN023 333 83820 83630 87650;MET008NEW NOSIEQDQ01+000000PRSWM2
0194039620999991995010908004+52700-008917SY-MT+0020EINN V0202501N00931015001CN0200001N1+00941+00681103011ADDAG11999GA1021+006009999GA2021+009009999GA3071+015009999GF199999061081008001999999MA1102911999999MD1710141+9999REMSYN023 333 83820 83630 85650;MET008NEW NOSIEQDQ01+000062SCOTCVQ02+000000PRSWM2
0172039620999991995010909004+52700-008917SY-MT+0020EINN V0202601N00821015001CN0200001N1+00951+00671102991ADDAG11000GA1021+006009999GA2021+009009999GA3071+015009999GF107991071081008001999999MA1103011999999MD1710101+9999REMSYN017 333 84820 86630;MET008NEW NOSIEQDQ01+000000PRSWM2
0184039620999991995010910004+52700-008917SY-MT+0020EINN V0202501N01181006001CN0200001N1+01001+00721102921ADDAG12999AY181011AY221011GA1071+006009999GA2071+009009999GF107991071081004501999999MA1102911999999MD1710141+9999MW1801REMSYN023 333 82716 85822 86650;MET008NEW NOSIEQDQ01+000000PRSWM2
0186039620999991995010911004+52700-008917SY-MT+0020EINN V0202601N01131036001CN0180001N1+01021+00721102941ADDAG12999AY181021AY221021GA1021+005409999GA2071+036009999GF107991061051004501031999MA1102911999999MD1510071+9999MW1251OC101591REMSYN017 333 85718 86362;MET008NEW NOSIEQDQ01+000000PRSWM2
0209039620999991995010912004+52700-008917SY-MT+0020EINN V0202501N01031005401CN0180001N1+01051+00741102861ADDAA106999929AG12001AY181061AY221061GA1071+005409999GA2071+036009999GF107991061051004501031999MA1102911999999MD1710131+9999MW1021OC101651REMSYN029 333 85718 85362 90710 91134;MET008NEW NOSIEQDQ01+000000PRSWM2
0192039620999991995010913004+52700-008917SY-MT+0020EINN V0202601N01131007501CN0180001N1+01061+00731102801ADDAG12999GA1021+005409999GA2071+007509999GA3071+036009999GF107991061051004501031021MA1102811999999MD1810121+9999OC101751REMSYN029 333 84718 85625 86070 91134;MET008NEW NOSIEQDQ01+000000PRSWM2
0170039620999991995010914004+52700-008917SY-MT+0020EINN V0202601N01131005401CN0140001N1+01051+00721102771ADDAG12999GA1071+005409999GA2071+007509999GF108991081051004501999999MA1102811999999MD1710171+9999OC101801REMSYN023 333 84718 87624 91135;MET008NEW NOSIEQDQ01+000000PRSWM2
0178039620999991995010915004+52700-008917SY-MT+0020EINN V0202601N01031006901CN0120001N1+01021+00771102771ADDAG12000AY151031AY221031GA1021+005409999GA2071+006909999GF108991081051004501999999MA1102711999999MD1610091+9999MW1501REMSYN017 333 84718 87622;MET008NEW NOSIEQDQ01+000000PRSWM2
0178039620999991995010916004+52700-008917SY-MT+0020EINN V0202701N01081006601CN0100001N1+01031+00731102741ADDAG12999AY151011AY221011GA1021+005409999GA2071+006609999GF108991081051004501999999MA1102711999999MD1710061+9999MW1201REMSYN017 333 84718 87622;MET008NEW NOSIEQDQ01+000000PRSWM2
0183039620999991995010917004+52700-008917SY-MT+0020EINN V0202801N01031005101CN0090001N1+01011+00781102751ADDAG12999AY151021AY221021GA1021+002709999GA2071+005109999GF108991081061002501999999MA1102711999999MD1610021+9999MW1201MW2511REMSYN023 333 83708 85716 87624;MET020NEW TEMPO 5000 BKN00
0250039620999991995010918004+52700-008917SY-MT+0020EINN V0202701N00981005101CN0150001N1+01011+00801102751ADDAA199999929AG10000AY151061AY221061GA1021+002409999GA2071+005109999GA3071+009309999GF108991081061002501999999KA1120M+01091MA1102711999999MD1510021+9999MW1201OC101491REMSYN029 333 10109 82708 85717 87631;MET020NEW TEMPO 5000 BKN00EQDQ01+000000PRSWM2
0190039620999991995010919004+52700-008917SY-MT+0020EINN V0202701N01031005401CN0150001N1+01041+00761102751ADDAG12999GA1021+003609999GA2071+005409999GA3071+008709999GF107991071051004501999999MA1102711999999MD1110011+9999REMSYN023 333 82715 85621 87635;MET020NEW TEMPO 5000 BKN00EQDQ01+000000PRSWM2
0218039620999991995010920004+52700-008917SY-MT+0020EINN V0202701N01131004801CN0120001N1+01031+00781102721ADDAG12999AY151021AY221021GA1021+003609999GA2071+004809999GA3071+007209999GF108991081061002501999999MA1102711999999MD1810031+9999MW1501REMSYN029 333 83706 86710 88718 91135;MET020NEW TEMPO 5000 BKN00EQDQ01+000000PRSWM2
0232039620999991995010921004+52700-008917SY-MT+0020EINN V0202701N01131004501CN0150001N1+01031+00801102731ADDAG12000AY151031AY221031GA1021+003009999GA2071+004509999GA3071+007209999GF107991071061004501999999MA1102711999999MD1510021+9999MW1201OC101701REMSYN035 333 82710 85715 87625 90710 91135;MET020NEW TEMPO 5000 BKN00EQDQ01+000000PRSWM2
0116039620999991995010921304+52700-008917FM-15+0020EINN V0202701N01081004501CN0112651N1+01001+00801999999ADDAG12999GA1021+003009999GA2071+004509999GA3071+007209999MA1102711999999MW1511OC101651REMMET020NEW TEMPO 5000 BKN00
0108039620999991995010922304+52700-008917FM-15+0020EINN V0202801N01081003001CN0060001N1+01001+00801999999ADDAG12999GA1021+001509999GA2071+003009999GA3071+006609999MA1102711999999MW1511REMMET020NEW TEMPO 5000 BKN00
0243039620999991995011000004+52700-008917SY-MT+0020EINN V0202801N01081003901CN0080001N1+01001+00831102741ADDAA106000191AG12000AY151061AY221061GA1021+002409999GA2071+003909999GA3071+006609999GF108991081061002501999999MA1102711999999MD1010011+9999MW1501OC101651REMSYN035 333 82707 84713 87622 90710 91134;MET020NEW TEMPO 5000 BKN00EQDQ01+000000PRSWM2
0093039620999991995011000304+52700-008917FM-15+0020EINN V0202801N01131220001CN0112651N1+01001+00701999999ADDAG12999GA1021+004809999GA2021+012009999MA1102711999999REMMET008NEW NOSIEQDQ01+000000PRSWM2
0117039620999991995011001304+52700-008917FM-15+0020EINN V0202801N01231009601CN0112651N1+01001+00801999999ADDAG12999GA1021+003309999GA2021+005109999GA3071+009609999MA1102611999999OC101851REMMET008NEW NOSIEQDQ01+000000PRSWM2
0187039620999991995011003004+52700-008917SY-MT+0020EINN V0202701N00821007801CN0120001N1+01001+00801102681ADDAG12001AY161031AY251031GA1021+003009999GA2021+004509999GA3071+007809999GF107991071061004501999999MA1102611999999MD1510061+9999MW1211MW2611REMSYN023 333 83713 85716 86625;MET008NEW NOSI
0124039620999991995011004004+52700-008917FM-16+0020EINN V0202801N00871003301CN9999999N9+99999+99999999999ADDAG12999GA1021+001809999GA2071+003309999GA3071+005109999MW1511REMMET032NEW 70UIGQ102 53.09 5000 BKN007;EQDQ01+000002VOVAR 
0105039620999991995011004304+52700-008917FM-15+0020EINN V0202601N00931004201CN0112651N1+01001+00801999999ADDAG12999GA1021+002409999GA2071+004209999MA1102611999999REMMET020NEW TEMPO 5000 BKN00EQDQ01+000000PRSWM2
0233039620999991995011006004+52700-008917SY-MT+0020EINN V0202701N00721004801CN0200001N1+01011+00801102541ADDAA199000191AG11001AY161061AY221061GA1021+003909999GA2081+004809999GF108991081061004501999999GJ100009IA1099IA2999+00809KA1120N+00971MA1102511999999MD1710141+9999MW1201MW2511REMSYN035 333 20097 31008 55000 83713 88718;MET008NEW NOSI
0172039620999991995011007004+52700-008917SY-MT+0020EINN V0202601N00721220001CN0250001N1+00971+00721102471ADDAG11999GA1021+003909999GA2071+012009999GF199999041051004501001001MA1102511999999MD1810161+9999REMSYN017 333 81715 84640;MET008NEW NOSIEQDQ01+000042SCOTCVQ02+000000PRSWM2
0200039620999991995011008004+52700-008917SY-MT+0020EINN V0202501N00981015001CN0160001N1+00971+00741102371ADDAG12999AY161021AY211021GA1021+004509999GA2021+006009999GA3071+015009999GF108991081061002501999999MA1102401999999MD1710251+9999MW1601REMSYN023 333 81708 84712 87620;MET008NEW NOSIEQDQ01+000000PRSWM2
0181039620999991995011009004+52700-008917SY-MT+0020EINN V0202501N00981001501CN0018001N1+00951+00911102291ADDAG12001AY161031AY211031GA1021+000909999GA2071+001509999GA3081+003009999GF108991081061001501999999MA1102301999999MD1710251+9999MW1511MW2531REMSYN017 333 84703 88705;MET008NEW NOSI
0193039620999991995011010004+52700-008917SY-MT+0020EINN V0202601N00981002101CN0020001N1+01051+00991102291ADDAG12999AY151011AY251011GA1021+001209999GA2071+002109999GA3081+004509999GF108991081061001501999999MA1102301999999MD1610181+9999MW1511REMSYN023 333 84704 86707 87712;MET020NEW REDZ TEMPO BKN00
0198039620999991995011011004+52700-008917SY-MT+0020EINN V0202701N01081002101CN0050001N1+01101+01021102261ADDAG12999AY151021AY251021GA1021+001209999GA2071+002109999GA3071+003609999GF108991081061001501999999MA1102201999999MD1710111+9999MW1511OC101651REMSYN023 333 83704 86707 87712;MET017NEW TEMPO BKN004;
0215039620999991995011012004+52700-008917SY-MT+0020EINN V0202701N01131001801CN0050001N1+01101+01021102211ADDAA106001091AG12001AY161061AY251061GA1021+001209999GA2081+001809999GF108991081061001501999999MA1102201999999MD1710081+9999MW1511OC101751REMSYN035 333 84705 86708 87712 90710 91135;MET027NEW REDZ TEMPO 2000 BKN004;
0201039620999991995011013004+52700-008917SY-MT+0020EINN V0202701N01081002401CN0030001N1+01111+01031102131ADDAG12999AY151011AY251011GA1021+001509999GA2071+002409999GA3071+003609999GF108991081061001501999999MA1102101999999MD1710161+9999MW1511OC101701REMSYN023 333 84705 86708 87712;MET020NEW TEMPO 2000 BKN00
0201039620999991995011014004+52700-008917SY-MT+0020EINN V0202601N01031002401CN0080001N1+01121+01001102061ADDAG12999AY151021AY251021GA1021+001509999GA2071+002409999GA3071+003609999GF108991081061001501999999MA1102101999999MD1710201+9999MW1511OC101651REMSYN023 333 83705 87709 88715;MET020NEW TEMPO 2000 BKN00
0220039620999991995011015004+52700-008917SY-MT+0020EINN V0202601N01081002701CN0090001N1+01141+00961101961ADDAG12000AY151031AY251031GA1021+001509999GA2071+002709999GA3081+004509999GF108991081061002501999999MA1102001999999MD1710251+9999MW1201OC101701REMSYN023 333 82706 86709 88712;MET020NEW TEMPO 2000 BKN00EQDQ01+000000PRSWM2
0226039620999991995011016004+52700-008917SY-MT+0020EINN V0202601N01231003001CN0090001N1+01161+00991101911ADDAG12999AY121011AY221011GA1021+002409999GA2071+003009999GA3081+004509999GF108991081061002501999999MA1101801999999MD1510221+9999MW1101OC101951REMSYN029 333 82707 86709 88715 91139;MET020NEW TEMPO 3000 BKN00EQDQ01+000000PRSWM2
0220039620999991995011017004+52700-008917SY-MT+0020EINN V0202601N01341002701CN0090001N1+01171+00981101881ADDAG12999AY121021AY221021GA1021+002109999GA2071+002709999GA3081+004509999GF108991081061002501999999MA1101901999999MD1610181+9999MW1101OC101951REMSYN023 333 86709 88715 91140;MET020NEW TEMPO 3000 BKN00EQDQ01+000000PRSWM2
0221039620999991995011018004+52700-008917SY-MT+0020EINN V0202701N01441002401CN0080001N1+01161+01031101831ADDAA199001091AG12000AY151061AY251061GA1071+002409999GA2071+003609999GF108991081061002501999999KA1120M+01181MA1101801999999MD1710131+9999MW1501MW2511OC101901REMSYN029 333 10118 85708 87712 91142;MET020NEW TEMPO 3000 BKN00
0185039620999991995011019004+52700-008917SY-MT+0020EINN V0202801N01341002101CN0040001N1+01131+01051101831ADDAG12999AY151011AY251011GA1071+002109999GA2071+003609999GF108991081061001501999999MA1101801999999MD1610081+9999MW1511OC102061REMSYN023 333 85705 87708 91140;MET020NEW TEMPO 3000 BKN00
0187039620999991995011020004+52700-008917SY-MT+0020EINN V0202801N01231002401CN0050001N1+01151+01061101821ADDAG12999AY151021AY251021GA1021+001509999GA2071+002409999GA3071+004809999GF108991081061002501999999MA1101801999999MD1610061+9999MW1511MW2531REMSYN023 333 82705 85708 87716;MET008NEW NOSI
0193039620999991995011021004+52700-008917SY-MT+0020EINN V0202901N00821002401CN0090001N1+01141+01081101861ADDAG12002AY161031AY251031GA1021+001509999GA2071+002409999GA3071+003609999GF108991081061002501999999MA1101801999999MD1310031+9999MW1511MW2581MW3631REMSYN023 333 83706 85708 88714;MET008NEW NOSI
0167039620999991995011022004+52700-008917SY-MT+0020EINN V0202901N00771002401CN0040001N1+01121+01021101901ADDAG12999AY161011AY251011GA1021+001809999GA2071+002409999GF108991081061001501999999MA1101801999999MD1210071+9999MW1511OC101391REMSYN017 333 84705 87708;MET008NEW NOSI
0159039620999991995011023004+52700-008917SY-MT+0020EINN V0202901N00621001801CN0050001N1+01101+01021101921ADDAG12999AY151021AY251021GA1071+001809999GA2071+002409999GF108991081061001501999999MA1101901999999MD1210101+9999MW1511REMSYN017 333 85705 86708;MET008NEW NOSI
0170039620999991995011100004+52700-008917SY-MT+0020EINN V0202901N00571001501CN0060001N1+01081+01041101941ADDAA106002091AG12001AY161061AY251061GA1071+001509999GA2071+002409999GF108991081061002501999999MA1101901999999MD1210081+9999MW1511REMSYN017 333 84705 86709;MET008NEW NOSI
0178039620999991995011101004+52700-008917SY-MT+0020EINN V0203001N00721003001CN0090001N1+01071+00991101941ADDAG12999AY151011AY221011GA1021+002109999GA2071+003009999GF108991081061002501999999MA1101901999999MD1110041+9999MW1201REMSYN017 333 83708 87711;MET008NEW NOSIEQDQ01+000000PRSWM2
0171039620999991995011102004+52700-008917SY-MT+0020EINN V0203001N00721003001CN0110001N1+01041+00941101971ADDAG12999AY151021AY221021GA1021+002109999GA2071+003009999GF108991081061002501999999MA1101901999999MD1210051+9999MW1201MW2511REMSYN023 333 83708 85712 87630;MET008NEW NOSI
0187039620999991995011103004+52700-008917SY-MT+0020EINN V0203001N00671003601CN0120001N1+01021+00961102051ADDAG12001AY161031AY251031GA1021+002409999GA2071+003609999GA3071+009009999GF107991071061002501999999MA1101901999999MD1310111+9999MW1211MW2611REMSYN023 333 82708 85713 86630;MET008NEW NOSI
0187039620999991995011104004+52700-008917SY-MT+0020EINN V0203001N00621003301CN0120001N1+00981+00921102081ADDAG12999AY161011AY221011GA1021+002109999GA2071+003309999GA3071+009009999GF107991071061002501999999MA1102001999999MD1210141+9999MW1211MW2611REMSYN023 333 82708 85713 86630;MET008NEW NOSI
0210039620999991995011105004+52700-008917SY-MT+0020EINN V0203101N00571220001CN0200001N1+00981+00861102101ADDAG12999AY151021AY211021GA1021+003009999GA2071+004509999GA3071+009009999GF199999031051004501001001MA1102001999999MD1110131+9999MW1201REMSYN017 333 81710 83625;MET008NEW NOSIEQDQ01+000032SCOTCVQ02+000000PRSWM2
0252039620999991995011106004+52700-008917SY-MT+0020EINN V0203101N00411004201CN0250001N1+00941+00821102161ADDAA199002091AG12001AY161061AY251061GA1021+003009999GA2021+009009999GF105991051051004501001001GJ100009IA1099IA2999+00709KA1120N+00941MA1102101999999MD1110111+9999MW1031REMSYN041 333 20094 31007 55000 82710 83718 85630;MET008NEW NOSIEQDQ01+000000PRSWM2
0156039620999991995011107004+52700-008917SY-MT+0020EINN V0202901N00411006601CN0250001N1+00941+00841102211ADDAG12999GA1021+003609999GA2071+006609999GF107991071051004501999999MA1102101999999MD1210131+9999REMSYN017 333 83713 87628;MET008NEW NOSIEQDQ01+000000PRSWM2
0187039620999991995011108004+52700-008917SY-MT+0020EINN V0200201N00361003001CN0090001N1+00881+00841102241ADDAG12999AY161021AY251021GA1021+002109999GA2071+003009999GA3071+004509999GF108991081061001501999999MA1102201999999MD1210141+9999MW1511MW2591REMSYN023 333 83704 85706 87710;MET008NEW NOSI
0220039620999991995011109004+52700-008917SY-MT+0020EINN V0200301N00261001801CN0070001N1+00771+00701102341ADDAG12002AY161031AY251031GA1021+001209999GA2071+001809999GA3071+003309999GF108991081061002501999999MA1102301999999MD1210181+9999MW1511MW2631REMSYN035 333 82706 86710 87718 98170 98270;MET029NEW BECMG 9999 SCT007 BKN012;
0227039620999991995011110004+52700-008917SY-MT+0020EINN V0200201N00101003001CN0120001N1+00771+00701102431ADDAG12999AY151011AY221011GA1021+001509999GA2071+003009999GA3071+006009999GF199999061051002501999999MA1102401999999MD1210221+9999MW1201MW2511REMSYN023 333 81706 83710 85622;MET029NEW BECMG 9999 SCT007 BKN012;EQDQ01+000062SCOTCV
0181039620999991995011111004+52700-008917SY-MT+0020EINN V0200101N00051006601CN0250001N1+00801+00711102501ADDAG12999GA1021+002709999GA2071+006609999GF199999051081002501999999MA1102401999999MD1210261+9999REMSYN017 333 81709 85625;MET017NEW BECMG SCT020;EQDQ01+000052SCOTCVQ02+000000PRSWM2
0198039620999991995011112004+52700-008917SY-MT+0020EINN V0200501N00261015001CN0300001N1+00831+00591102571ADDAA106002091AG12001AY181061AY261061GA1021+003609999GA2021+005409999GA3071+015009999GF107991071081004501999999MA1102511999999MD1210231+9999MW1251MW2801REMSYN023 333 81712 83818 85647;MET008NEW NOSI
0165039620999991995011113004+52700-008917SY-MT+0020EINN V0200301N00151012601CN0300001N1+00801+00531102591ADDAG12999GA1021+004209999GA2071+012609999GF107991071081004501999999MA1102511999999MD1210161+9999REMSYN017 333 82817 86642;MET017NEW BECNG SCT020;EQDQ01+000000PRSWM2
0156039620999991995011114004+52700-008917SY-MT+0020EINN V0200401N00261012601CN0450001N1+00811+00521102651ADDAG12999GA1021+005109999GA2071+012609999GF107991071081008001999999MA1102611999999MD1210151+9999REMSYN017 333 82820 86650;MET008NEW NOSIEQDQ01+000000PRSWM2
0172039620999991995011115004+52700-008917SY-MT+0020EINN V0200401N00311021001CN0450001N1+00801+00431102701ADDAG12000GA1021+005409999GA2071+021009999GF199999061081004501999999MA1102711999999MD1210131+9999REMSYN017 333 82818 85657;MET008NEW NOSIEQDQ01+000062SCOTCVQ02+000000PRSWM2
0134039620999991995011116004+52700-008917SY-MT+0020EINN V0203501N00261220001CN0450001N1+00701+00451102801ADDAG12999GA1021+005409999GF104991031081004501031001MA1102711999999MD1210211+9999REMSYN011 333 82818;MET008NEW NOSIEQDQ01+000000PRSWM2
0134039620999991995011117004+52700-008917SY-MT+0020EINN V0203401N00311220001CN0450001N1+00591+00351102931ADDAG12999GA1021+005409999GF102991021081004501001001MA1102811999999MD1210271+9999REMSYN011 333 81818;MET008NEW NOSIEQDQ01+000000PRSWM2
0180039620999991995011118004+52700-008917SY-MT+0020EINN V0203601N00361220001CN0450001N1+00511+00231103051ADDAA199002091AG13000GA1021+005409999GF199999011051017501001011KA1120M+00961MA1102911999999MD1210341+9999REMSYN017 333 10096 81650;MET008NEW NOSIEQDQ01+000012SCOTCVQ02+000000PRSWM2
0126039620999991995011119004+52700-008917SY-MT+0020EINN V0203501N00261220001CN0450001N1+00371+00171103131ADDAG11999GF101991011051017501001001MA1103121999999MD1210321+9999REMSYN011 333 81650;MET016NEW CAVOK NOSIG;EQDQ01+000000PRSWM2
0126039620999991995011120004+52700-008917SY-MT+0020EINN V0203501N00361220001CN0450001N1+00311+00121103231ADDAG11999GF103991001001999999001011MA1103181999999MD1210301+9999REMSYN011 333 83080;MET016NEW CAVOK NOSIG;EQDQ01+000000PRSWM2
0150039620999991995011121004+52700-008917SY-MT+0020EINN V0200201N00051012001CN0450001N1+00341+00181103321ADDAG11000GA1071+012009999GF199999061051012501999999MA1103291999999MD1210271+9999REMSYN011 333 86640;MET008NEW NOSIEQDQ01+000062SCOTCVQ02+000000PRSWM2
0170039620999991995011122004+52700-008917SY-MT+0020EINN V0203301N00051220001CN0300001N1+00211+00081103371ADDAG11999GA1021+013509999GF103991031051012501001001MA1103291999999MD1210241+9999REMSYN047 33301 10021 20008 40337 52024 83500 333 83645;MET008NEW NOSIEQDQ01+000000PRSWM2
0140039620999991995011123004+52700-008917SY-MT+0020EINN V0203201N00051075001CN0200001N1+00161+00061103461ADDAG11999GA1021+013509999GF105991041051012501001021MA1103391999999MD1210231+9999REMSYN017 333 84645 92601;MET008NEW NOSIEQDQ01+000000PRSWM2
0151039620999991995011200004+52700-008917SY-MT+0020EINN V0209991C00001012001CN0200001N1+00171+00041103531ADDAA106999929AG13000GA1021+013509999GF106991061051012501999999MA1103391999999MD1210211+9999REMSYN017 333 86645 92601;MET008NEW NOSIEQDQ01+000000PRSWM2
0156039620999991995011201004+52700-008917SY-MT+0020EINN V0209991C00001012901CN0200001N1+00121-00021103581ADDAG11999GA1071+012909999GF199999051051012501001001MA1103491999999MD1210211+9999REMSYN017 333 85643 92601;MET008NEW NOSIEQDQ01+000052SCOTCVQ02+000000PRSWM2
0156039620999991995011202004+52700-008917SY-MT+0020EINN V0202901N00051220001CN0200001N1+00051-00061103611ADDAG11999GA1021+012909999GF199999011051012501001001MA1103491999999MD1210151+9999REMSYN017 333 81643 92601;MET008NEW NOSIEQDQ01+000012SCOTCVQ02+000000PRSWM2
0156039620999991995011203004+52700-008917SY-MT+0020EINN V0200501N00051220001CN0200001N1+00081-00031103641ADDAG11000GA1021+012909999GF199999011051012501001001MA1103591999999MD1210111+9999REMSYN017 333 81643 92611;MET008NEW NOSIEQDQ01+000012SCOTCVQ02+000000PRSWM2
0156039620999991995011204004+52700-008917SY-MT+0020EINN V0200301N00211220001CN0200001N1+00001-00151103711ADDAG11999GA1021+012909999GF199999011051012501001001MA1103591999999MD1210131+9999REMSYN017 333 81645 92611;MET008NEW NOSIEQDQ01+000012SCOTCVQ02+000000PRSWM2
0164039620999991995011205004+52700-008917SY-MT+0020EINN V0203501N00101220001CN0200001N1+00091-00081103741ADDAG11999GA1011+015009059GF101991011051017501999001MA1103691999999MD1210131+9999REMSYN017 333 81650 92611;MET016NEW CAVOK NOSIG;EQDQ01+000000PRSWM2Q02    003SCOMCG
0194039620999991995011206004+52700-008917SY-MT+0020EINN V0209991C00001220001CN0200001N1-00031-00121103761ADDAA106999929AG13000GF100991001001999999001001GJ100069IA1149IA2999-00709KA1120N-00031MA1103691999999MD1010121+9999REMSYN029 333 21003 34107 55001 92611;MET016NEW CAVOK NOSIG;EQDQ01+000000PRSWM2
0126039620999991995011207004+52700-008917SY-MT+0020EINN V0209991C00001220001CN0200001N1-00061-00151103821ADDAG11999GF100991001001999999001001MA1103691999999MD1310111+9999REMSYN011 333 92611;MET016NEW CAVOK NOSIG;EQDQ01+000000PRSWM2
0164039620999991995011208004+52700-008917SY-MT+0020EINN V0209991C00001220001CN0400001N1-00101-00161103871ADDAG11999GA1011+018009059GF102991011051017501999021MA1103791999999MD1210131+9999REMSYN017 333 81656 92611;MET016NEW CAVOK NOSIG;EQDQ01+000000PRSWM2Q02    003SCOMCG
0164039620999991995011209004+52700-008917SY-MT+0020EINN V0200901N00051220001CN0400001N1+00001-00041103981ADDAG11000GA1031+018009059GF103991031051017501999021MA1103891999999MD1310221+9999REMSYN017 333 83656 92611;MET016NEW CAVOK NOSIG;EQDQ01+000000PRSWM2Q02    003SCOMCG
0148039620999991995011210004+52700-008917SY-MT+0020EINN V0201101N002110300019N0200001N1+00091-00051103991ADDAG11999GA1031+018009059GF105991031051017501031021MA1103891999999MD1210171+9999REMSYN017 333 83656 83070;MET016NEW CAVOK NOSIG;EQDQ01+000000PRSWM2
0161039620999991995011211004+52700-008917FM-12+0020EINN V0201101N00151018001CN0200001N1+00161+00001104011ADDAG12999GA1051+018009059GA2031+030009039GF107991051051017501031999MA1999999103761MD1210141+9999REMSYN055 333 85656 83360 555 3060 40376 50010 6999 81005 N6248;
0159039620999991995011212004+52700-008917SY-MT+0020EINN V0201401N00311030001CN0200001N1+00211+00161103951ADDAA106999929AG10000GA1031+018009059GF107991031051017501031021MA1103891999999MD1810031+9999REMSYN017 333 83656 83360;MET016NEW CAVOK NOSIG;EQDQ01+000000PRSWM2
0148039620999991995011213004+52700-008917SY-MT+0020EINN V0201201N002110750019N0200001N1+00401+00141103921ADDAG12999GA1021+018009059GF105991021051017501031021MA1103891999999MD1810071+9999REMSYN017 333 82656 84070;MET016NEW CAVOK NOSIG;EQDQ01+000000PRSWM2
0148039620999991995011214004+52700-008917SY-MT+0020EINN V0201401N001510300019N0200001N1+00501+00221103921ADDAG12999GA1011+018009059GF107991011051017501031021MA1103791999999MD1610091+9999REMSYN017 333 81656 86070;MET016NEW CAVOK NOSIG;EQDQ01+000000PRSWM2
0069039620999991995011215004+52700-008917FM-15+0020EINN V0201901N00211999991CY0099001N1+00601+00201999999ADDAG12000MA1103791999999REMMET016NEW CAVOK NOSIG;EQDQ01+000000PRSWM2
0069039620999991995011216004+52700-008917FM-15+0020EINN V0202001N00311999991CY0099001N1+00501+00101999999ADDAG12999MA1103791999999REMMET016NEW CAVOK NOSIG;EQDQ01+000000PRSWM2
0069039620999991995011217004+52700-008917FM-15+0020EINN V0201901N00261999991CY0099001N1+00401+00101999999ADDAG12999MA1103791999999REMMET016NEW CAVOK NOSIG;EQDQ01+000000PRSWM2
0156039620999991995011218004+52700-008917SY-MT+0020EINN V0201601N002610120019N0300001N1+00401+00141103891ADDAA199999929AG12000GF106991051051012501031021KA1120M+00601MA1103791999999MD1510011+9999REMSYN017 333 10060 84632;MET016NEW CAVOK NOSIG;EQDQ01+000000PRSWM2
0156039620999991995011219004+52700-008917SY-MT+0020EINN V0201601N00211009601CN0250001N1+00401+00111103881ADDAG12999GA1021+006309999GA2071+009609999GF107991071051008001999999MA1103791999999MD1010021+9999REMSYN017 333 83621 85632;MET008NEW NOSIEQDQ01+000000PRSWM2
0156039620999991995011220004+52700-008917SY-MT+0020EINN V0201701N00151009601CN0250001N1+00401+00111103861ADDAG12999GA1021+006309999GA2071+009609999GF107991071051004501999999MA1103791999999MD1810011+9999REMSYN017 333 84717 86625;MET008NEW NOSIEQDQ01+000000PRSWM2
0178039620999991995011221004+52700-008917SY-MT+0020EINN V0201401N00361007501CN0200001N1+00401+00201103831ADDAG11000AY121031AY221031GA1021+005109999GA2071+007509999GF107991071051004501999999MA1103791999999MD1710061+9999MW1101REMSYN017 333 84717 86625;MET008NEW NOSIEQDQ01+000000PRSWM2
0156039620999991995011222004+52700-008917SY-MT+0020EINN V0201401N00311006601CN0200001N1+00431+00231103801ADDAG11999GA1021+004209999GA2071+006609999GF107991071051004501999999MA1103791999999MD1710081+9999REMSYN017 333 82714 86622;MET008NEW NOSIEQDQ01+000000PRSWM2
0156039620999991995011223004+52700-008917SY-MT+0020EINN V0201301N00211006001CN0200001N1+00471+00271103771ADDAG11999GA1021+003009999GA2071+006009999GF107991071051004501999999MA1103691999999MD1710091+9999REMSYN017 333 83710 86620;MET008NEW NOSIEQDQ01+000000PRSWM2
0167039620999991995011300004+52700-008917SY-MT+0020EINN V0201301N00361006001CN0200001N1+00491+00321103771ADDAA106999929AG13000GA1021+003009999GA2071+006009999GF107991071061004501999999MA1103691999999MD1610061+9999REMSYN017 333 83710 86718;MET008NEW NOSIEQDQ01+000000PRSWM2
0156039620999991995011301004+52700-008917SY-MT+0020EINN V0201201N00261004501CN0200001N1+00481+00361103761ADDAG11999GA1021+003009999GA2071+004509999GF107991071061004501999999MA1103691999999MD1710041+9999REMSYN017 333 82710 87714;MET008NEW NOSIEQDQ01+000000PRSWM2
0156039620999991995011302004+52700-008917SY-MT+0020EINN V0201201N00311005101CN0200001N1+00511+00391103721ADDAG11999GA1021+004209999GA2071+005109999GF108991081061004501999999MA1103691999999MD1810051+9999REMSYN017 333 83713 87716;MET008NEW NOSIEQDQ01+000000PRSWM2
0156039620999991995011303004+52700-008917SY-MT+0020EINN V0201301N00311003601CN0200001N1+00551+00441103701ADDAG11000GA1021+002409999GA2071+003609999GF108991081061002501999999MA1103691999999MD1810071+9999REMSYN017 333 82708 88710;MET008NEW NOSIEQDQ01+000000PRSWM2
0171039620999991995011304004+52700-008917SY-MT+0020EINN V0201301N00261002701CN0150001N1+00601+00491103651ADDAG12999AY151011AY221011GA1021+002109999GA2081+002709999GF108991081061002501999999MA1103591999999MD1710111+9999MW1201MW2511REMSYN011 333 88707;MET020NEW TEMPO 5000 BKN00
0146039620999991995011305004+52700-008917SY-MT+0020EINN V0201401N00261002101CN0150001N1+00601+00491103601ADDAG11999GA1081+002109999GF108991081061002501999999MA1103591999999MD1710121+9999REMSYN011 333 88708;MET020NEW TEMPO 5000 BKN00EQDQ01+000000PRSWM2
0236039620999991995011306004+52700-008917SY-MT+0020EINN V0201301N00211002401CN0200001N1+00641+00551103561ADDAA199999929AG11000AY151061AY221061GA1081+002409999GF108991081061002501999999GJ101269IA1099IA2999+00209KA1120N+00361MA1103491999999MD1710141+9999MW1021REMSYN029 333 20036 31002 55021 88709;MET020NEW TEMPO 5000 BKN00EQDQ01+000000PRSWM2
0152039620999991995011307004+52700-008917SY-MT+0020EINN V0201401N00211002701CN0200001N1+00711+00621103551ADDAG11999GA1081+002709999GF108991081061004501999999MA1103491999999MD1710101+9999REMSYN017 333 85710 88718;MET020NEW TEMPO 5000 BKN00EQDQ01+000000PRSWM2
0168039620999991995011308004+52700-008917SY-MT+0020EINN V0201001N00151003001CN0200001N1+00721+00651103551ADDAG11999GA1071+003009999GA2071+004809999GF107991071061004501999999MA1103491999999MD1610051+9999REMSYN017 333 85711 86716;MET020NEW TEMPO 5000 BKN00EQDQ01+000000PRSWM2
0202039620999991995011309004+52700-008917SY-MT+0020EINN V0201801N00101003601CN0060001N1+00781+00691103561ADDAG12000AY151031AY221031GA1021+002709999GA2071+003609999GF108991081061002501999999MA1103491999999MD1310011+9999MW1501REMSYN029 333 85707 87711 98475 98575;MET020NEW TEMPO 5000 BKN00EQDQ01+000000PRSWM2
0166039620999991995011310004+52700-008917SY-MT+0020EINN V0202301N00311001501CN0020001N1+00881+00841103571ADDAG12999AY151011AY251011GA1071+001509999GA2071+002709999GF108991081061000751999999MA1103491999999MD1210031+9999MW1511REMSYN017 333 83702 87703;MET015NEW TEMPO 3000;
0187039620999991995011311004+52700-008917SY-MT+0020EINN V0202301N00261001801CN0090001N1+00921+00861103541ADDAG12999AY151021AY251021GA1021+001209999GA2071+001809999GF108991081061001501999999MA1103491999999MD1010001+9999MW1511REMSYN035 333 82704 85706 87709 98375 98575;MET018NEW TEMPO BKN003 ;
0223039620999991995011312004+52700-008917SY-MT+0020EINN V0202401N00311003601CN0250001N1+00951+00891103491ADDAA106999929AG12000AY151061AY221061GA1021+001809999GA2071+003609999GA3071+005109999GF107991071061002501999999MA1103491999999MD1810071+9999MW1201REMSYN023 333 82709 85714 87717;MET020NEW TEMPO 5000 BKN00EQDQ01+000000PRSWM2
0190039620999991995011313004+52700-008917SY-MT+0020EINN V0202201N00261004201CN0250001N1+01021+00901103381ADDAG12999GA1021+002709999GA2071+004209999GA3071+005409999GF107991071051002501999999MA1103391999999MD1710191+9999REMSYN023 333 81709 83716 86625;MET020NEW TEMPO 5000 BKN00EQDQ01+000000PRSWM2
0190039620999991995011314004+52700-008917SY-MT+0020EINN V0202101N00361007501CN0300001N1+01061+00861103281ADDAG12999GA1021+002709999GA2021+004809999GA3071+007509999GF107991071051004501999999MA1103291999999MD1710261+9999REMSYN023 333 82715 84625 87640;MET020NEW TEMPO 5000 BKN00EQDQ01+000000PRSWM2
0178039620999991995011315004+52700-008917SY-MT+0020EINN V0202301N00361012001CN0300001N1+01031+00801103191ADDAG12000GA1021+004509999GA2021+007509999GA3071+012009999GF107991071051004501999999MA1103181999999MD1710301+9999REMSYN023 333 82715 84625 87645;MET008NEW NOSIEQDQ01+000000PRSWM2
0178039620999991995011316004+52700-008917SY-MT+0020EINN V0202101N00461013501CN0300001N1+01051+00811103131ADDAG12999GA1021+004509999GA2021+007509999GA3071+013509999GF107991071051004501999999MA1103121999999MD1710251+9999REMSYN023 333 82715 84625 87645;MET008NEW NOSIEQDQ01+000000PRSWM2
0178039620999991995011317004+52700-008917SY-MT+0020EINN V0202001N00361013501CN0300001N1+01041+00831103101ADDAG12999GA1021+004509999GA2021+007509999GA3071+013509999GF107991071051004501999999MA1103121999999MD1610181+9999REMSYN023 333 83715 85625 87645;MET008NEW NOSIEQDQ01+000000PRSWM2
0186039620999991995011318004+52700-008917SY-MT+0020EINN V0202001N00411004501CN0300001N1+01001+00831103061ADDAA199999929AG12000GA1071+004509999GA2071+015009999GF107991071061004501999999KA1120M+01081MA1103011999999MD1710131+9999REMSYN023 333 10108 85715 87650;MET008NEW NOSIEQDQ01+000000PRSWM2
0156039620999991995011319004+52700-008917SY-MT+0020EINN V0202001N00511006901CN0300001N1+00971+00761103001ADDAG12999GA1071+006909999GA2071+015009999GF107991071051008001999999MA1103011999999MD1710131+9999REMSYN017 333 85623 87650;MET008NEW NOSIEQDQ01+000000PRSWM2
0156039620999991995011320004+52700-008917SY-MT+0020EINN V0202101N00411006901CN0300001N1+00951+00741102911ADDAG12999GA1071+006909999GA2071+015009999GF107991071051008001999999MA1102911999999MD1710191+9999REMSYN017 333 86623 87650;MET008NEW NOSIEQDQ01+000000PRSWM2
0156039620999991995011321004+52700-008917SY-MT+0020EINN V0201901N00621009601CN0300001N1+00961+00661102851ADDAG11000GA1071+009609999GA2071+015009999GF107991071051012501999999MA1102811999999MD1710211+9999REMSYN017 333 85632 87650;MET008NEW NOSIEQDQ01+000000PRSWM2
0156039620999991995011322004+52700-008917SY-MT+0020EINN V0201701N00621011101CN0400001N1+00951+00611102751ADDAG11999GA1071+011109999GA2071+015009999GF108991081051012501999999MA1102811999999MD1710251+9999REMSYN017 333 86630 87650;MET008NEW NOSIEQDQ01+000000PRSWM2
0184039620999991995011323004+52700-008917SY-MT+0020EINN V0201801N00511007501CN0180001N1+00911+00681102661ADDAG12999AY161021AY251021GA1071+007509999GA2081+015009999GF108991081061002501999999MA1102711999999MD1710251+9999MW1501REMSYN023 333 83708 85715 88622;MET008NEW NOSIEQDQ01+000000PRSWM2
0204039620999991995011400004+52700-008917SY-MT+0020EINN V0201701N00511004501CN0300001N1+00851+00771102571ADDAA106999929AG11001AY161061AY251061GA1021+003009999GA2071+004509999GA3081+007509999GF108991081051004501999999MA1102611999999MD1710281+9999MW1201MW2511REMSYN017 333 84715 87625;MET020NEW BECMG SCT015 BKN
0195039620999991995011401004+52700-008917SY-MT+0020EINN V0201901N00511006001CN0300001N1+00921+00781102421ADDAG11999GA1021+004809999GA2071+006009999GA3071+012009999GF107991071051004501999999MA1102401999999MD1810331+9999REMSYN023 333 82716 85620 86640;MET025NEW TEMPO BKN 006 OVC010;EQDQ01+000000PRSWM2
0190039620999991995011402004+52700-008917SY-MT+0020EINN V0201901N00461007801CN0300001N1+00971+00741102351ADDAG11999GA1021+004809999GA2071+007809999GA3071+010209999GF107991071051004501999999MA1102401999999MD1710311+9999REMSYN023 333 81716 85626 87640;MET020NEW TEMPO SCT006 OVCEQDQ01+000000PRSWM2
0199039620999991995011403004+52700-008917SY-MT+0020EINN V0202001N00621009601CN0250001N1+00941+00841102301ADDAG12000AY151031AY221031GA1021+004809999GA2071+009609999GA3071+015009999GF108991081061004501999999MA1102301999999MD1610271+9999MW1501MW2511REMSYN023 333 82711 85715 87622;MET020NEW TEMPO BKN006 OVC
0222039620999991995011404004+52700-008917SY-MT+0020EINN V0202101N00821006001CN0300001N1+01021+00941102191ADDAG12999AY151011AY221011GA1021+003609999GA2071+006009999GA3071+009909999GF199999051051004501001001MA1102201999999MD1710231+9999MW1201REMSYN017 333 81716 85638;MET020NEW TEMPO BKN006 OVCEQDQ01+000052SCOTCVQ02+000000PRSWM2
0200039620999991995011405004+52700-008917SY-MT+0020EINN V0202001N00571009001CN0300001N1+01001+00721102171ADDAG12999AY151021AY221021GA1021+004509999GA2071+009009999GA3071+013509999GF107991071051004501999999MA1102101999999MD1710181+9999MW1201REMSYN023 333 82715 85630 87645;MET008NEW NOSIEQDQ01+000000PRSWM2
0262039620999991995011406004+52700-008917SY-MT+0020EINN V0202101N00721009001CN0300001N1+01021+00701102081ADDAA199000191AG12000AY151061AY221061GA1021+004509999GA2071+009009999GA3071+012009999GF107991071051012501999999GJ100009IA1099IA2999+00709KA1120N+00851MA1102101999999MD1710221+9999MW1011REMSYN035 333 20085 31007 55000 83630 87640;MET008NEW NOSIEQDQ01+000000PRSWM2
0140039620999991995011407004+52700-008917SY-MT+0020EINN V0202301N00821007501CN0300001N1+01071+00741102041ADDAG12999GA1021+012009999GF105991051051008001001001MA1102001999999MD1610151+9999REMSYN017 333 82625 85640;MET008NEW NOSIEQDQ01+000000PRSWM2
0172039620999991995011408004+52700-008917SY-MT+0020EINN V0202101N00571012601CN0300001N1+01021+00721102021ADDAG12999GA1021+007509999GA2071+012609999GF199999051051008001001001MA1102001999999MD1710151+9999REMSYN017 333 81625 85642;MET008NEW NOSIEQDQ01+000052SCOTCVQ02+000000PRSWM2
0212039620999991995011409004+52700-008917SY-MT+0020EINN V0202201N00721003601CN0060001N1+01011+00781102061ADDAG12000AY151031AY221031GA1021+002109999GA2071+003609999GA3071+012009999GF107991071061002501999999MA1102001999999MD1510021+9999MW1501REMSYN023 333 83706 87708 99010;MET020NEW TEMPO 5000 BKN00EQDQ01+000000PRSWM2
0192039620999991995011410004+52700-008917SY-MT+0020EINN V0202101N00771001501CN0070001N1+00991+00891102041ADDAG12999AY161011AY251011GA1071+001509999GA2081+003009999GF108991081061001501999999MA1102001999999MD1010001+9999MW1601MW2611REMSYN023 333 83705 85712 87718;MET029NEW BECMG 9999 SCT007 BKN012;
0205039620999991995011411004+52700-008917SY-MT+0020EINN V0202801N00621003601CN0050001N1+00981+00921102121ADDAG12999AY161021AY251021GA1021+001509999GA2071+003609999GA3071+005409999GF108991081061001501999999MA1102001999999MD1310101+9999MW1511MW2581MW3611REMSYN023 333 83704 85710 87715;MET020NEW BECMG SCT020 BKN
0188039620999991995011412004+52700-008917SY-MT+0020EINN V0203001N00511001801CN0030001N1+00861+00821102171ADDAA106003091AG12001AY161061AY251061GA1071+001809999GA2081+003309999GF108991081061001501999999MA1102101999999MD1310111+9999MW1511MW2581REMSYN017 333 85705 87710;MET020NEW BECMG SCT020 BKN
0183039620999991995011413004+52700-008917SY-MT+0020EINN V0203001N00411001501CN0050001N1+00851+00831102191ADDAG12999AY161011AY251011GA1071+001509999GA2071+003009999GF108991081061001501999999MA1102201999999MD1110151+9999MW1511MW2581MW3611REMSYN017 333 85705 87710;MET020NEW BECMG SCT020 BKN
0224039620999991995011414004+52700-008917SY-MT+0020EINN V0203001N00311004501CN0060001N1+00821+00711102211ADDAG12999AY161021AY251021GA1021+002409999GA2071+004509999GA3071+006009999GF108991051051002501021999MA1102101999999MD1210091+9999MW1211REMSYN035 333 82709 84620 87458 98180 98780;MET020NEW BECMG SCT020 BKNEQDQ01+000000PRSWM2
0202039620999991995011415004+52700-008917SY-MT+0020EINN V0202901N00261030001CN0120001N1+00811+00631102261ADDAG12001AY161031AY251031GA1021+003309999GA2071+030009999GF107991041081004501021999MA1102201999999MD1210091+9999MW1151REMSYN041 333 81817 83626 87458 98370 98181 98781;MET008NEW NOSIEQDQ01+000000PRSWM2
0174039620999991995011416004+52700-008917SY-MT+0020EINN V0202901N00261024001CN0200001N1+00781+00581102321ADDAG12999GA1021+005109999GA2071+024009999GF107991041051004501071999MA1102301999999MD1210131+9999REMSYN035 333 81717 84635 87458 98181 98781;MET008NEW NOSIEQDQ01+000000PRSWM2
0172039620999991995011417004+52700-008917SY-MT+0020EINN V0202901N00151018001CN0300001N1+00711+00601102361ADDAG12999GA1021+005109999GA2021+007509999GA3071+018009999GF107991071051004501999999MA1102301999999MD1210151+9999REMSYN017 333 81717 84625;MET008NEW NOSIEQDQ01+000000PRSWM2
0214039620999991995011418004+52700-008917SY-MT+0020EINN V0202901N00151009001CN0300001N1+00671+00511102421ADDAA199003091AG12001AY161061AY251061GA1021+005109999GA2021+007509999GF106991061081004501999999KA1120M+01021MA1102301999999MD1210161+9999MW1011REMSYN029 333 10102 81717 84825 85642;MET008NEW NOSIEQDQ01+000000PRSWM2
0188039620999991995011419004+52700-008917SY-MT+0020EINN V0202801N00211012601CN0300001N1+00631+00491102441ADDAG12999GA1021+005409999GA2021+010209999GA3071+012609999GF199999061081004501999999MA1102401999999MD1210121+9999REMSYN017 333 82818 85635;MET008NEW NOSIEQDQ01+000062SCOTCVQ02+000000PRSWM2
0156039620999991995011420004+52700-008917SY-MT+0020EINN V0202601N00101007501CN0300001N1+00501+00381102431ADDAG12999GA1021+005409999GA2021+010509999GF105991051051008001999999MA1102401999999MD1010071+9999REMSYN017 333 82625 84645;MET008NEW NOSIEQDQ01+000000PRSWM2
0172039620999991995011421004+52700-008917SY-MT+0020EINN V0201801N00211012601CN0250001N1+00561+00471102421ADDAG12000GA1021+007509999GA2071+012609999GF199999051051008001999999MA1102401999999MD1010001+9999REMSYN017 333 82625 85641;MET008NEW NOSIEQDQ01+000052SCOTCVQ02+000000PRSWM2
0166039620999991995011422004+52700-008917SY-MT+0020EINN V0201801N00151220001CN0250001N1+00511+00441102381ADDAG12999GA1021+007509999GA2071+012309999GF199999041051012501001001MA1102301999999MD1810061+9999REMSYN011 333 84640;MET008NEW NOSIEQDQ01+000042SCOTCVQ02+000000PRSWM2
0134039620999991995011423004+52700-008917SY-MT+0020EINN V0201301N00211012001CN0250001N1+00441+00371102351ADDAG12999GA1021+012009999GF106991061051012501999999MA1102301999999MD1810081+9999REMSYN011 333 86635;MET008NEW NOSIEQDQ01+000000PRSWM2
0184039620999991995011500004+52700-008917SY-MT+0020EINN V0201201N00261000301CN0025001N1+00411+00361102291ADDAA106999929AG13000AY121061AY221061ED199U05009GA1021+000309999GA2021+010509999GF105991051061000251001001MD1710131+9999MW1101MW2411REMSYN017 333 85601 92600;MET020NEW 0404 Q1023 NOSIG
0162039620999991995011501004+52700-008917SY-MT+0020EINN V0201201N00311000301CN0050001N1+00421+00351102201ADDAG11999AY121011AY221011GA1071+000309999GF199999061051000251999999MA1102201999999MD1810181+9999MW1101REMSYN017 333 82701 86634;MET008NEW NOSIEQDQ01+000062SCOTCV
0188039620999991995011502004+52700-008917SY-MT+0020EINN V0201201N00411009001CN0070001N1+00461+00441102081ADDAG12999AY151021AY221021GA1021+000909999GA2021+005109999GA3071+009009999GF108991081051004501999999MA1102101999999MD1710271+9999MW1201MW2511REMSYN017 333 82716 87630;MET015NEW BECMG 8000;
0187039620999991995011503004+52700-008917SY-MT+0020EINN V0201201N00411006001CN0090001N1+00501+00451101991ADDAG12000AY151031AY221031GA1021+004509999GA2071+006009999GA3071+009009999GF108991081051002501999999MA1102001999999MD1710301+9999MW1201MW2511REMSYN023 333 81709 85620 87630;MET008NEW NOSI
0200039620999991995011504004+52700-008917SY-MT+0020EINN V0201401N00411009001CN0090001N1+00651+00581101861ADDAG12999AY121011AY221011GA1021+004509999GA2021+006009999GA3071+009009999GF108991081051004501999999MA1101901999999MD1710341+9999MW1101REMSYN023 333 81715 84628 87650;MET008NEW NOSIEQDQ01+000000PRSWM2
0178039620999991995011505004+52700-008917SY-MT+0020EINN V0201501N00571015001CN0180001N1+00781+00691101731ADDAG12999GA1021+001809999GA2021+009009999GA3071+015009999GF107991071051004501999999MA1101801999999MD1710351+9999REMSYN023 333 82712 84635 86656;MET008NEW NOSIEQDQ01+000000PRSWM2
0268039620999991995011506004+52700-008917SY-MT+0020EINN V0201601N00571009001CN0120001N1+00891+00791101641ADDAA199999929AG12000AY151061AY221061GA1021+004509999GA2071+009009999GA3071+018009999GF108991999999002501999999GJ100009IA1099IA2999-00209KA1120N+00271MA1101591999999MD1710351+9999MW1501REMSYN041 333 20027 31102 55000 83709 84718 86656;MET008NEW NOSIEQDQ01+000000PRSWM2
0200039620999991995011507004+52700-008917SY-MT+0020EINN V0201601N00621008401CN0180001N1+01001+00861101581ADDAG12999AY151011AY221011GA1021+004509999GA2071+008409999GA3071+018009999GF107991071051004501999999MA1101591999999MD1710281+9999MW1201REMSYN023 333 82715 85622 86656;MET008NEW NOSIEQDQ01+000000PRSWM2
0162039620999991995011508004+52700-008917SY-MT+0020EINN V0201701N00511005401CN0250001N1+01071+00891101511ADDAG12999GA1071+005409999GA2071+018009999GF107991071051004501999999MA1101491999999MD1710221+9999REMSYN023 333 83716 83630 86656;MET008NEW NOSIEQDQ01+000000PRSWM2
0194039620999991995011509004+52700-008917SY-MT+0020EINN V0202001N00771005401CN0400001N1+01101+00901101501ADDAG12000AY151031AY221031GA1071+005409999GA2021+008409999GA3071+027009999GF107991071061004501071999MA1101491999999MD1710141+9999MW1021REMSYN017 333 86718 84628;MET008NEW NOSIEQDQ01+000000PRSWM2
0172039620999991995011510004+52700-008917SY-MT+0020EINN V0202001N00931005401CN0400001N1+01131+00841101421ADDAG12999GA1021+003309999GA2071+005409999GA3071+008409999GF107991051051008001999021MA1101391999999MD1710161+9999REMSYN017 333 84620 85075;MET008NEW NOSIEQDQ01+000000PRSWM2
0162039620999991995011511004+52700-008917SY-MT+0020EINN V0202001N00981007501CN0400001N1+01141+00851101421ADDAG12999GA1021+006009999GA2021+012009999GF107991061051008001999021MA1101391999999MD1610091+9999REMSYN023 333 83620 84645 85075;MET008NEW NOSIEQDQ01+000000PRSWM2
0211039620999991995011512004+52700-008917SY-MT+0020EINN V0201801N00931075001CN0400001N1+01171+00891101331ADDAA106999929AG11000AY151061AY221061GA1021+006009999GA2021+012009999GA3071+075009999GF107991061051008001999031MA1101391999999MD1710171+9999MW1021REMSYN023 333 85622 83645 85075;MET008NEW NOSIEQDQ01+000000PRSWM2
0156039620999991995011513004+52700-008917SY-MT+0020EINN V0201801N00821006601CN0400001N1+01141+00871101251ADDAG11999GA1071+006609999GA2071+015009999GF108991081061004501999999MA1101291999999MD1810171+9999REMSYN017 333 86717 88645;MET008NEW NOSIEQDQ01+000000PRSWM2
0156039620999991995011514004+52700-008917SY-MT+0020EINN V0201701N00771005401CN0400001N1+01161+00861101081ADDAG11999GA1071+005409999GA2081+012009999GF108991051051008001071999MA1101081999999MD1710341+9999REMSYN017 333 85620 88458;MET008NEW NOSIEQDQ01+000000PRSWM2
0178039620999991995011515004+52700-008917SY-MT+0020EINN V0201701N00981015001CN0400001N1+01141+00871100951ADDAG11000GA1021+005409999GA2071+015009999GA3071+060009999GF107991051051004501001021MA1101021999999MD1710381+9999REMSYN023 333 82715 84650 85070;MET008NEW NOSIEQDQ01+000000PRSWM2
0172039620999991995011516004+52700-008917SY-MT+0020EINN V0201801N00871060001CN0300001N1+01091+00891100871ADDAG11999GA1021+005409999GA2021+015009999GA3071+060009999GF107991051061004501001081MA1100911999999MD1710381+9999REMSYN017 333 84716 86270;MET008NEW NOSIEQDQ01+000000PRSWM2
0214039620999991995011517004+52700-008917SY-MT+0020EINN V0201701N00871004501CN0080001N1+01071+00851100791ADDAG12999AY151021AY221021GA1071+004509999GA2021+007509999GA3071+060009999GF108991081061002501999999MA1100811999999MD1710291+9999MW1501MW2511REMSYN041 333 82707 85713 87625 98175 98375 98775;MET017NEW TEMPO BKN010;
