0178039620999991981010100004+52683-008917SY-MT+0014EINN V0203001N00771220001CN0112001N1+00601+00101102801ADDAA106000591AA299000691AY181999GA1011+006009089GF101991011021008001001001MA1102711999999MD1210221+9999MW1011OA199902051REMSYN017796// 11820 91140MET006NOSIG?EQDQ01+000000PRSWM2
0055039620999991981010100304+52683-008917FM-15+0014EINN V0203001N00871220001CN0112001N1+00601+00301999999ADDGA1021+006009089MA1102811999999MW1251REMMET006NOSIG?
0055039620999991981010101004+52683-008917FM-15+0014EINN V0203001N00871220001CN0112001N1+00601+00301999999ADDGA1021+006009089MA1102911999999MW1251REMMET006NOSIG?
0068039620999991981010101304+52683-008917FM-15+0014EINN V0203001N00771220001CN0112001N1+00601+00101999999ADDGA1011+006009089MA1102911999999REMMET006NOSIG?EQDQ01+000000PRSWM2
0133039620999991981010102004+52683-008917SY-MT+0014EINN V0203001N00921220001CN0112001N1+00601+00201102951ADDAY101999GA1021+006009089GF102991021021008001001001MA1102911999999MD1110221+9999MW1021REMSYN00582820MET006NOSIG?EQDQ01+000000PRSWM2
0068039620999991981010102304+52683-008917FM-15+0014EINN V0202901N00771220001CN0112001N1+00601+00101999999ADDGA1011+006009089MA1102911999999REMMET006NOSIG?EQDQ01+000000PRSWM2
0133039620999991981010103004+52683-008917SY-MT+0014EINN V0202901N00771220001CN0112001N1+00601+00101103031ADDAY181999GA1011+006009089GF101991011021008001001001MA1103011999999MD1210231+9999MW1011REMSYN00581820MET006NOSIG?EQDQ01+000000PRSWM2
0068039620999991981010103304+52683-008917FM-15+0014EINN V0203001N00821220001CN0112001N1+00601+00101999999ADDGA1011+006009089MA1103011999999REMMET006NOSIG?EQDQ01+000000PRSWM2
0171039620999991981010104004+52683-008917SY-MT+0014EINN V0202901N00661015001CN0112001N1+00701+00101103071ADDAY111999GA1021+006009089GA2041+015009059GF105991051081008001999001MA1103011999999MD1210151+9999MW1031REMSYN01182820 84650MET006NOSIG?EQDQ01+000000PRSWM2Q02    003SCOMCG
0084039620999991981010104304+52683-008917FM-15+0014EINN V0203001N00771015001CN0112001N1+00701+00201999999ADDGA1021+006009089GA2061+015009059MA1103011999999REMMET006NOSIG?EQDQ01+000000PRSWM2
0171039620999991981010105004+52683-008917SY-MT+0014EINN V0202901N00821015001CN0112001N1+00701+00001103141ADDAY121999GA1021+006009089GA2051+015009059GF106991061081008001999001MA1103121999999MD1210191+9999MW1031REMSYN01182820 85650MET006NOSIG?EQDQ01+000000PRSWM2Q02    003SCOMCG
0084039620999991981010105304+52683-008917FM-15+0014EINN V0203001N00921013501CN0112001N1+00701+00001999999ADDGA1021+006909089GA2051+013509059MA1103121999999REMMET006NOSIG?EQDQ01+000000PRSWM2
0242039620999991981010106004+52683-008917SY-MT+0014EINN V0202901N00771015001CN0112001N1+00701+00101103211ADDAA199001091AJ100009199999999AY181999GA1011+006909089GA2061+015009059GF106991061081008001999001IA1089IA2999+00209KA1999N+00601MA1103181999999MD1210181+9999MW1021REMSYN02320210 70106 81823 86650MET006NOSIG?EQDQ01+000000PRSWM2Q02    003SCOMCG
0084039620999991981010106304+52683-008917FM-15+0014EINN V0202901N00661011401CN0112001N1+00701+00101999999ADDGA1011+006909089GA2071+011409059MA1103181999999REMMET006NOSIG?EQDQ01+000000PRSWM2
0133039620999991981010107004+52683-008917SY-MT+0014EINN V0202801N00461012001CN0112001N1+00701+00201103261ADDAY121999GA1071+012009059GF107991071051012501999999MA1103181999999MD1210191+9999MW1031REMSYN00587640MET006NOSIG?EQDQ01+000000PRSWM2
0068039620999991981010107304+52683-008917FM-15+0014EINN V0202901N00721013501CN0112001N1+00701+00201999999ADDGA1071+013509059MA1103181999999REMMET006NOSIG?EQDQ01+000000PRSWM2
0133039620999991981010108004+52683-008917SY-MT+0014EINN V0202801N00721013501CN0112001N1+00601+00201103311ADDAY121999GA1051+013509059GF105991051051012501001001MA1103291999999MD1210171+9999MW1011REMSYN00585645MET006NOSIG?EQDQ01+000000PRSWM2
0071039620999991981010108304+52683-008917FM-15+0014EINN V0202801N00461013501CN0112001N1+00601+00301999999ADDGA1011+007509089GA2051+013509059MA1103291999999MW1801REMMET006NOSIG?
0136039620999991981010109004+52683-008917SY-MT+0014EINN V0202801N00461013501CN0112001N1+00601+00301103391ADDAY181999GA1011+007509089GA2051+013509059GF105991051081008001001001MA1103291999999MD1210181+9999MW1251REMSYN01181825 85645MET006NOSIG?
0071039620999991981010109304+52683-008917FM-15+0014EINN V0202801N00611220001CN0112001N1+00601+00201999999ADDGA1011+007509089GA2031+013509059MA1103291999999MW1251REMMET006NOSIG?
0133039620999991981010110004+52683-008917SY-MT+0014EINN V0202701N00561220001CN0112001N1+00601+00301103391ADDAY111999GA1011+005409089GF103991031081004501001021MA1103291999999MD1210131+9999MW1011REMSYN00581818MET006NOSIG?EQDQ01+000000PRSWM2
0071039620999991981010110304+52683-008917FM-15+0014EINN V0202601N00461010501CN0112001N1+00701+00301999999ADDGA1041+006009089GA2031+010509059MA1103391999999MW1801REMMET006NOSIG?
0114039620999991981010111004+52683-008917SY-MT+0014EINN V0202601N00461220001CN0112001N1+00701+00401103481ADDAY181999GA1021+006009089GF103991031081008001001021MA1103391999999MD1210171+9999MW1251REMSYN00582820MET006NOSIG?
0055039620999991981010111304+52683-008917FM-15+0014EINN V0202701N00561220001CN0112001N1+00701+00501999999ADDGA1021+006009089MA1103391999999MW1251REMMET006NOSIG?
0183039620999991981010112004+52683-008917SY-MT+0014EINN V0202701N00511220001CN0112001N1+00801+00501103471ADDAA106999929AY181999GA1011+006009089GF103991011081008001001021MA1103181999999MD1210091+9999MW1021OA199901071REMSYN017797// 81820 91121MET006NOSIG?EQDQ01+000000PRSWM2Q02  99993PRCP99
0084039620999991981010112304+52683-008917FM-15+0014EINN V0202701N00411010501CN0112001N1+00901+00601999999ADDGA1011+006009089GA2061+010509059MA1103391999999REMMET006NOSIG?EQDQ01+000000PRSWM2
0155039620999991981010113004+52683-008917SY-MT+0014EINN V0202601N00611010501CN0112001N1+00801+00501103401ADDAY111999GA1011+006609089GA2061+010509059GF107991071081008001999999MA1103291999999MD1010021+9999MW1031REMSYN01181822 86635MET006NOSIG?EQDQ01+000000PRSWM2
0084039620999991981010113304+52683-008917FM-15+0014EINN V0202601N00511010501CN0112001N1+00901+00601999999ADDGA1031+006609089GA2031+010509059MA1103291999999REMMET006NOSIG?EQDQ01+000000PRSWM2
0136039620999991981010114004+52683-008917SY-MT+0014EINN V0202801N00661010501CN0112001N1+00801+00601103361ADDAY181999GA1021+005409089GA2031+010509059GF105991041081004501001021MA1103291999999MD1710111+9999MW1251REMSYN01182818 83635MET006NOSIG?
0071039620999991981010114304+52683-008917FM-15+0014EINN V0202601N00721012001CN0112001N1+00901+00501999999ADDGA1021+006009089GA2041+012009059MA1103291999999MW1251REMMET006NOSIG?
0136039620999991981010115004+52683-008917SY-MT+0014EINN V0202601N00511010501CN0112001N1+00801+00601103321ADDAY181999GA1041+005409089GA2051+010509059GF107991071081004501999999MA1103291999999MD1710151+9999MW1801REMSYN01184818 85635MET006NOSIG?
0087039620999991981010115304+52683-008917FM-15+0014EINN V0202701N00771010501CN0112001N1+00801+00601999999ADDGA1011+003609079GA2031+005409089GA3051+010509059MA1103181999999MW1801REMMET006NOSIG?
0136039620999991981010116004+52683-008917SY-MT+0014EINN V0202601N00611010501CN0112001N1+00801+00601103261ADDAY181999GA1021+005409089GA2061+010509059GF107991071081004501999999MA1103181999999MD1710141+9999MW1251REMSYN01182818 86635MET006NOSIG?
0071039620999991981010116304+52683-008917FM-15+0014EINN V0202501N00611010501CN0112001N1+00801+00601999999ADDGA1021+005409089GA2051+010509059MA1103181999999MW1251REMMET006NOSIG?
0136039620999991981010117004+52683-008917SY-MT+0014EINN V0202501N00561010501CN0112001N1+00801+00601103191ADDAY181999GA1041+005409089GA2061+010509059GF107991071081004501999999MA1103121999999MD1710171+9999MW1801REMSYN01184818 86635MET006NOSIG?
0071039620999991981010117304+52683-008917FM-15+0014EINN V0202401N00561010501CN0112001N1+00801+00701999999ADDGA1031+005409079GA2051+010509059MA1103121999999MW1251REMMET006NOSIG?
0166039620999991981010118004+52683-008917SY-MT+0014EINN V0202401N00611012001CN0112001N1+00801+00601103111ADDAA199999929AY181999GA1041+006009089GA2061+012009059GF107991071081008001999999KA1999M+00901MA1103121999999MD1710211+9999MW1251REMSYN01779709 84820 86640MET006NOSIG?
0084039620999991981010118304+52683-008917FM-15+0014EINN V0202401N00611012001CN0112001N1+00801+00601999999ADDGA1031+006009089GA2071+012009059MA1103011999999REMMET006NOSIG?EQDQ01+000000PRSWM2
0142039620999991981010119004+52683-008917FM-15+0014EINN V0202501N01281012001CN0112001N1+00801+00601103051ADDAY181999GA1041+006009089GA2061+012009059GF107991071081008001999999MA1103121999999MD1710211+9999MW1251REMSYN01784820 86640 94017MET006NOSIG?
0100039620999991981010119304+52683-008917FM-15+0014EINN V0202501N00721027001CN0112001N1+00901+00601999999ADDGA1011+006009089GA2031+012009059GA3071+027009049MA1103011999999REMMET006NOSIG?EQDQ01+000000PRSWM2
0175039620999991981010120004+52683-008917SY-MT+0014EINN V0202601N00721004801CN0112001N1+00801+00701103061ADDAY161999GA1011+002709079GA2061+004809079GA3081+007509059GF108991081061002501999999MA1103011999999MD1510131+9999MW1601OA199901331REMSYN02381709 86716 88625 91126MET006NOSIG?
0087039620999991981010120304+52683-008917FM-15+0014EINN V0202501N00771007501CN0112001N1+00901+00601999999ADDGA1021+004809079GA2041+007509059GA3081+015009059MA1103011999999MW1211REMMET006NOSIG?
0136039620999991981010121004+52683-008917SY-MT+0014EINN V0202501N00661015001CN0112001N1+00901+00701103011ADDAY181999GA1021+006009059GA2081+015009059GF108991081051008001999999MA1103011999999MD1710101+9999MW1211REMSYN01182620 88650MET006NOSIG?
0100039620999991981010121304+52683-008917FM-15+0014EINN V0202501N00771010501CN0112001N1+00901+00601999999ADDGA1021+006009059GA2061+010509059GA3081+015009059MA1102911999999REMMET006NOSIG?EQDQ01+000000PRSWM2
0177039620999991981010122004+52683-008917SY-MT+0014EINN V0202401N00611010501CN0112001N1+00901+00701102961ADDAY121999GA1011+006009059GA2041+007509059GA3071+010509059GF108991081051008001999999MA1102911999999MD1810091+9999MW1021REMSYN01781620 84625 87635MET006NOSIG?EQDQ01+000000PRSWM2
0087039620999991981010122304+52683-008917FM-15+0014EINN V0202501N00661006001CN0112001N1+00901+00701999999ADDGA1021+004509079GA2051+006009059GA3071+009009059MA1102911999999MW1211REMMET006NOSIG?
0177039620999991981010123004+52683-008917SY-MT+0014EINN V0202501N00821005401CN0112001N1+00901+00701102891ADDAY161999GA1041+003309079GA2041+005409079GA3071+007509059GF108991081061004501999999MA1102811999999MD1710171+9999MW1501REMSYN01784711 84718 87625MET025TEMPO 8000 3ST007 8ST011?
0117039620999991981010123304+52683-008917FM-15+0014EINN V0202401N00821004801CN0112001N1+00901+00701999999ADDGA1021+003309079GA2061+004809079GA3071+006009059MA1102711999999MW1201REMMET036TEMPO      ?     8000 3ST007 8ST011?
0231039620999991981010200004+52683-008917SY-MT+0014EINN V0202501N00771004501CN0080001N1+00901+00801102791ADDAA106999999AA299000191AY181999GA1041+002709079GA2071+004509079GF108991081061002501999999MA1102711999999MD1710221+9999MW1501OA199901481REMSYN023791// 84709 87715 91129MET037TEMPO 5000       ?     4ST005 8ST010?EQDQ01  00002PRCP06
0102039620999991981010200304+52683-008917FM-15+0014EINN V0202601N00721220001CN0080001N1+00901+00701999999ADDGA1011+002709079GA2041+004509079MA1102711999999MW1201REMMET037TEMPO 5000       ?     4ST005 8ST010?
0155039620999991981010201004+52683-008917SY-MT+0014EINN V0202501N00721003901CN0080001N1+00901+00701102751ADDAY151999GA1021+002709079GA2061+003909079GF108991081061002501999999MA1102711999999MD1710211+9999MW1501REMSYN01182709 86713MET025TEMPO 5000 4ST005 8ST010?
0090039620999991981010201304+52683-008917FM-15+0014EINN V0202601N00921005401CN0080001N1+00901+00701999999ADDGA1031+003609079GA2071+005409079MA1102711999999MW1501REMMET025TEMPO 5000 4ST005 8ST010?
0184039620999991981010202004+52683-008917SY-MT+0014EINN V0202501N00611005401CN0112001N1+00901+00601102701ADDAY151999GA1021+003609079GA2071+005409079GF108991081061004501999999MA1102711999999MD1710191+9999MW1201OA199901331REMSYN01782712 87718 91126MET037TEMPO 5000       ?     4ST005 8ST010?
0113039620999991981010202304+52683-008917FM-15+0014EINN V0202501N00771005401CN0112001N1+00901+00701999999ADDGA1021+003609079GA2071+005409079MA1102611999999MW1201REMMET048TEMPO 5000 4ST00       ?5          ?     8ST010?
0184039620999991981010203004+52683-008917SY-MT+0014EINN V0202501N00611005401CN0112001N1+00901+00701102671ADDAY151999GA1021+003609079GA2071+005409079GF108991081061004501999999MA1102611999999MD1710121+9999MW1501OA199901281REMSYN01782712 87718 91125MET037TEMPO 5000       ?     4ST005 8ST010?
0102039620999991981010203304+52683-008917FM-15+0014EINN V0202601N00661005701CN0112001N1+00901+00801999999ADDGA1031+003609079GA2071+005709079MA1102611999999MW1201REMMET037TEMPO 5000       ?     4ST005 8ST010?
0173039620999991981010204004+52683-008917SY-MT+0014EINN V0202501N00661003601CN0060001N1+00901+00701102591ADDAY151999GA1031+002109079GA2071+003609079GF108991081061002501999999MA1102511999999MD1710161+9999MW1501REMSYN01783707 87712 97360MET037VIS 9999 TO      ?     SW GRADU 8000?
0076039620999991981010204304+52683-008917FM-15+0014EINN V0202501N00821005701CN0112001N1+00901+00701999999ADDGA1031+003609079GA2071+005709079MA1102511999999MW1201REMMET011TEMPO 7000?
0180039620999991981010205004+52683-008917SY-MT+0014EINN V0202501N00721005401CN0112001N1+00901+00701102521ADDAY151999GA1021+003609079GA2051+005409079GA3061+006909059GF108991081061004501999999MA1102511999999MD1810181+9999MW1501OA199901231REMSYN02382712 85718 86623 91124MET011TEMPO 7000?
0076039620999991981010205304+52683-008917FM-15+0014EINN V0202501N00721004501CN0112001N1+00901+00701999999ADDGA1021+003609079GA2071+004509079MA1102401999999MW1501REMMET011TEMPO 7000?
0229039620999991981010206004+52683-008917SY-MT+0014EINN V0202601N00771007201CN0112001N1+00901+00801102441ADDAA199000291AJ100009199999999AY151999GA1021+004509079GA2071+007209059GF108991081051004501999999IA1089IA2999+00509KA1999N+00801MA1102401999999MD1710231+9999MW1501OA199901381REMSYN02920510 79208 82715 87624 91127MET011TEMPO 7000?
0092039620999991981010206304+52683-008917FM-15+0014EINN V0202601N00661004501CN0112001N1+00901+00701999999ADDGA1031+003909079GA2071+004509079GA3081+006009059MA1102301999999MW1501REMMET011TEMPO 7000?
0158039620999991981010207004+52683-008917SY-MT+0014EINN V0202601N00771004501CN0090001N1+00901+00701102371ADDAY151999GA1021+003309079GA2061+004509079GA3081+005409079GF108991081071004501999999MA1102301999999MD1710221+9999MW1511REMSYN01782711 86715 88718MET006NOSIG?
0092039620999991981010207304+52683-008917FM-15+0014EINN V0202601N00821004501CN0112001N1+00901+00701999999ADDGA1031+003309079GA2051+004509079GA3071+005409079MA1102301999999MW1511REMMET011TEMPO 7000?
0188039620999991981010208004+52683-008917SY-MT+0014EINN V0202601N00821005101CN0090001N1+00901+00701102321ADDAY151999GA1031+003909079GA2061+005109079GA3081+006009059GF108991081071002501999999MA1102301999999MD1610201+9999MW1511OA199901331REMSYN02383712 86717 88620 91126MET019TEMPO 7000       ??
0105039620999991981010208304+52683-008917FM-15+0014EINN V0202501N00721003001CN0025001N1+00901+00801999999ADDGA1031+002409079GA2051+003009079GA3081+004509079MA1102301999999REMMET011GRADU 6000?EQDQ01+000000PRSWM2
0158039620999991981010209004+52683-008917SY-MT+0014EINN V0202501N00721002701CN0025001N1+00901+00801102291ADDAY151999GA1031+001809079GA2051+002709079GA3071+003609079GF108991081071002501999999MA1102201999999MD1610151+9999MW1511REMSYN01783706 85709 87712MET006NOSIG?
0117039620999991981010209304+52683-008917FM-15+0014EINN V0202601N00871003001CN0112001N1+00901+00801999999ADDGA1021+002109079GA2051+003009079GA3071+004509079MA1102201999999MW1511REMMET036INTER      ?     7000 5ST007 8ST010?
0184039620999991981010210004+52683-008917SY-MT+0014EINN V0202501N00771003301CN0090001N1+00901+00701102231ADDAY151999GA1061+003309079GA2061+008409059GF107991071071004501999999MA1102201999999MD1710141+9999MW1511OA199901431REMSYN01786711 86628 91128MET037TEMPO 3000       ?     5ST006 8ST010?
0102039620999991981010210304+52683-008917FM-15+0014EINN V0202501N00721003601CN0112001N1+00901+00801999999ADDGA1061+003609079GA2061+008409059MA1102101999999MW1201REMMET037TEMPO 3000       ?     5ST006 8ST010?
0167039620999991981010211004+52683-008917SY-MT+0014EINN V0202501N00871003301CN0112001N1+00901+00801102171ADDAY151999GA1061+003309079GA2081+008409059GF108991081061004501999999MA1102101999999MD1710151+9999MW1201REMSYN01186711 88628MET037TEMPO 3000       ?     5ST006 8ST010?
0084039620999991981010211304+52683-008917FM-15+0014EINN V0202401N00771003901CN0112001N1+01001+00801999999ADDGA1061+003909079GA2081+006909059MA1102201999999REMMET006NOSIG?EQDQ01+000000PRSWM2
0172039620999991981010212004+52683-008917SY-MT+0014EINN V0202501N01021004501CN0112001N1+01001+00801102051ADDAA106001091AY151999GA1031+003309079GA2071+004509079GF108991081061004501999999MA1102001999999MD1710241+9999MW1501REMSYN017701// 83711 87715MET006NOSIG?EQDQ01  00103PRCP99
0087039620999991981010212304+52683-008917FM-15+0014EINN V0202501N00871004501CN0112001N1+01001+00801999999ADDGA1021+003309079GA2061+004509079GA3061+007509059MA1101901999999MW1201REMMET006NOSIG?
0153039620999991981010213004+52683-008917SY-MT+0014EINN V0202401N00871003601CN0112001N1+01001+00801101911ADDAY151999GA1051+003609079GA2051+006009059GF107991071061004501021999MA1101901999999MD1710321+9999MW1201OA199901591REMSYN01785712 85620 91131MET006NOSIG?
0084039620999991981010213304+52683-008917FM-15+0014EINN V0202501N01021003901CN0112001N1+01101+00801999999ADDGA1051+003909079GA2051+006009059MA1101801999999REMMET006NOSIG?EQDQ01+000000PRSWM2
0155039620999991981010214004+52683-008917SY-MT+0014EINN V0202401N01021005101CN0112001N1+01101+00601101821ADDAY121999GA1031+004509079GA2081+005109079GF108991081061004501999999MA1101801999999MD1710351+9999MW1031REMSYN01183715 88717MET006NOSIG?EQDQ01+000000PRSWM2
0091039620999991981010214304+52683-008917FM-15+0014EINN V0202501N00871004501CN0112001N1+01001+00801999999ADDGA1061+004509079GA2081+005409079MA1101691999999REMMET013GRADU 5ST010?EQDQ01+000000PRSWM2
0155039620999991981010215004+52683-008917SY-MT+0014EINN V0202501N00921004201CN0112001N1+01001+00801101711ADDAY151999GA1061+004209079GA2081+005409079GF108991081061004501999999MA1101691999999MD1710341+9999MW1021REMSYN01186714 88718MET006NOSIG?EQDQ01+000000PRSWM2
0068039620999991981010215304+52683-008917FM-15+0014EINN V0202501N00921003901CN0112001N1+01001+00801999999ADDGA1081+003909079MA1101591999999REMMET006NOSIG?EQDQ01+000000PRSWM2
0144039620999991981010216004+52683-008917SY-MT+0014EINN V0202501N00871003601CN0070001N1+01001+00801101641ADDAY151999GA1081+003609079GF108991081061004501999999MA1101591999999MD1710271+9999MW1501REMSYN00588712MET036TEMPO 3000 5ST005 8ST010     ?     ?
0082039620999991981010216304+52683-008917FM-15+0014EINN V0202501N00921003301CN0035001N1+01001+00801999999ADDGA1081+003309079MA1101491999999MW1501OC101441REMMET025TEMPO 5ST0058ST010     ??
0164039620999991981010217004+52683-008917SY-MT+0014EINN V0202501N00971002701CN0030001N1+01001+00901101361ADDAY151999GA1021+002109079GA2051+002709079GA3081+003309079GF108991081061002501999999MA1101491999999MD1710261+9999MW1501MW2511REMSYN01782707 85709 88711MET006NOSIG?
0071039620999991981010217304+52683-008917FM-15+0014EINN V0202501N00971002401CN0030001N1+01001+00901999999ADDGA1031+001509079GA2081+002409079MA1101491999999MW1511REMMET006NOSIG?
0228039620999991981010218004+52683-008917SY-MT+0014EINN V0202501N01021002701CN0060001N1+01001+00901101461ADDAA199002091AY151999GA1031+001809079GA2081+002709079GF108991081071002501999999KA1999M+01101MA1101391999999MD1810251+9999MW1511OA199901531OC101541REMSYN02970211 83706 88709 91130 94001MET037TEMPO 3000       ?     5ST005 8ST009?
0095039620999991981010218304+52683-008917FM-15+0014EINN V0202501N01021001801CN0030001N1+01001+00901999999ADDGA1031+001209079GA2051+001809079GA3081+003009079MA1101391999999MW1581OC101541REMMET006NOSIG?
0158039620999991981010219004+52683-008917SY-MT+0014EINN V0202501N00511002101CN0030001N1+01001+00901101371ADDAY161999GA1021+001209079GA2051+002109079GA3081+003309079GF108991081071001501999999MA1101291999999MD1710271+9999MW1581REMSYN01782704 85707 88711MET006NOSIG?
0107039620999991981010219304+52683-008917FM-15+0014EINN V0202501N01131001801CN0030001N1+01001+01001999999ADDGA1021+001209079GA2051+001809079GA3081+002709079MA1101291999999MW1581OC101641REMMET018TEMPO 9000 5ST012?
0158039620999991981010220004+52683-008917SY-MT+0014EINN V0202501N01281001801CN0030001N1+01001+01001101271ADDAY161999GA1021+001209079GA2051+001809079GA3081+002709079GF108991081071001501999999MA1101191999999MD1710291+9999MW1581REMSYN01782704 85706 88709MET006NOSIG?
0087039620999991981010220304+52683-008917FM-15+0014EINN V0202501N01231001801CN0030001N1+01001+01001999999ADDGA1021+001209079GA2051+001809079GA3081+002409079MA1101191999999MW1581REMMET006NOSIG?
0183039620999991981010221004+52683-008917SY-MT+0014EINN V0202501N01021001801CN0030001N1+01101+01001101251ADDAY161999GA1021+001209079GA2061+001809079GA3081+003009079GF108991081071001501999999MA1101191999999MD1610211+9999MW1581OA199901531OC101541REMSYN02382704 86706 88710 91130MET006NOSIG?
0095039620999991981010221304+52683-008917FM-15+0014EINN V0202501N01131002101CN0030001N1+01101+01001999999ADDGA1021+001209079GA2051+002109079GA3081+003009079MA1101191999999MW1581OC101641REMMET006NOSIG?
0191039620999991981010222004+52683-008917SY-MT+0014EINN V0202601N01231001201CN0030001N1+01101+01001101171ADDAY161999GA1051+001209079GA2081+002109079GF108991081071001501999999MA1101081999999MD1710201+9999MW1581OA199902101OC101751REMSYN01685704 88707 9114MET037GRADU 9999       ?     3ST010 6SC025?
0098039620999991981010222304+52683-008917FM-15+0014EINN V0202501N01181002101CN0030001N1+01101+01001999999ADDGA1041+000909079GA2081+002109079MA1101081999999MW1581OC101751REMMET025GRADU 9999 3ST010 6SC025?
0183039620999991981010223004+52683-008917SY-MT+0014EINN V0202501N01181001201CN0030001N1+01101+01001101091ADDAY161999GA1061+001209079GA2081+002409079GF108991081071001501999999MA1101021999999MD1810181+9999MW1581OA199901741REMSYN01786704 88708 91134MET036GRADU      ?     9999 3ST010 6SC025?
0094039620999991981010223304+52683-008917FM-15+0014EINN V0202501N01181001201CN0030001N1+01101+01001999999ADDGA1081+001209079MA1101021999999MW1581OC101751REMMET037GRADU 9999       ?     3ST010 6SC025?
0228039620999991981010300004+52683-008917SY-MT+0014EINN V0202501N01181001201CN0030001N1+01101+01001101021ADDAA106003091AY161999GA1061+001209079GA2081+002109079GF108991081071001501999999MA1101021999999MD1710231+9999MW1581OA199901691OC101691REMSYN023703// 86704 88707 91133MET037GRADU 9999       ?     3ST010 6SC025?EQDQ01  00303PRCP99
0071039620999991981010300304+52683-008917FM-15+0014EINN V0202501N01181002401CN0050001N1+01101+01001999999ADDGA1041+001509079GA2081+002409079MA1100911999999MW1581REMMET006NOSIG?
0158039620999991981010301004+52683-008917SY-MT+0014EINN V0202501N01231002401CN0070001N1+01101+01001100931ADDAY161999GA1031+001509079GA2061+002409079GA3081+003609079GF108991081071001501999999MA1100911999999MD1710241+9999MW1511REMSYN01783705 86708 88712MET006NOSIG?
0079039620999991981010301304+52683-008917FM-15+0014EINN V0202501N01281002701CN0112001N1+01101+01001999999ADDGA1031+001809079GA2081+002709079MA1100811999999MW1211OC102001REMMET006NOSIG?
0183039620999991981010302004+52683-008917SY-MT+0014EINN V0202601N01331003601CN0112001N1+01101+01001100901ADDAY161999GA1021+002109079GA2061+003609079GA3081+012009059GF108991081061002501999999MA1100811999999MD1610191+9999MW1581OA199902001OC101951REMSYN02382707 86712 88640 91139MET006NOSIG?
0087039620999991981010302304+52683-008917FM-15+0014EINN V0202501N01281003901CN0112001N1+01101+01001999999ADDGA1021+002409079GA2061+003909079GA3081+010509059MA1100811999999MW1211REMMET006NOSIG?
0175039620999991981010303004+52683-008917SY-MT+0014EINN V0202501N01281005101CN0112001N1+01101+00901100861ADDAY151999GA1031+002709079GA2071+005109079GA3081+010509059GF108991081061002501999999MA1100811999999MD1610161+9999MW1211OA199901951REMSYN02383709 87717 88635 91138MET006NOSIG?
0087039620999991981010303304+52683-008917FM-15+0014EINN V0202701N01281004801CN0112001N1+01101+00901999999ADDGA1031+002709079GA2061+004809079GA3081+010509059MA1100811999999MW1581REMMET006NOSIG?
0161039620999991981010304004+52683-008917SY-MT+0014EINN V0202701N01441012001CN0112001N1+01001+00701100871ADDAY151999GA1031+003609079GA2081+012009059GF108991081051004501999999MA1100811999999MD1510061+9999MW1211OA199902201OC102211REMSYN01783712 88640 91143MET006NOSIG?
0071039620999991981010304304+52683-008917FM-15+0014EINN V0202801N01181220001CN0112001N1+01001+00601999999ADDGA1011+003609079GA2031+012009059MA1100811999999MW1211REMMET006NOSIG?
0172039620999991981010305004+52683-008917SY-MT+0014EINN V0202601N01131220001CN0112001N1+00901+00601100911ADDAY111999GA1011+003609079GA2031+012009059GF103991031051004501001001MA1100911999999MD1310011+9999MW1011OA199902151REMSYN01781712 83640 91142MET006NOSIG?EQDQ01+000000PRSWM2
0068039620999991981010305304+52683-008917FM-15+0014EINN V0202701N01021220001CN0112001N1+00901+00501999999ADDGA1021+012009059MA1100911999999REMMET006NOSIG?EQDQ01+000000PRSWM2
0204039620999991981010306004+52683-008917SY-MT+0014EINN V0202801N01021220001CN0112001N1+00901+00501100941ADDAA199003091AY161999GA1031+012009059GF103991031051012501001001IA1089IA2999+00609KA1999N+00901MA1100911999999MD1310091+9999MW1021OA199901691REMSYN02320610 70309 83640 91133MET006NOSIG?EQDQ01+000000PRSWM2
0079039620999991981010306304+52683-008917FM-15+0014EINN V0202901N01181007501CN0112001N1+00901+00501999999ADDGA1031+003609079GA2071+007509059MA1100911999999MW1601OC101691REMMET006NOSIG?
0131039620999991981010307004+52683-008917SY-MT+0014EINN V0202901N01021220001CN0112001N1+00801+00601101011ADDAY161999GA1011+005409079GF101991011051004501001001MA1101021999999MD1210141+9999MW1211OA199901741REMSYN01181718 91134MET006NOSIG?
0055039620999991981010307304+52683-008917FM-15+0014EINN V0202801N01021220001CN0112001N1+00801+00401999999ADDGA1011+005409079MA1101021999999MW1211REMMET006NOSIG?
0150039620999991981010308004+52683-008917SY-MT+0014EINN V0202801N00921220001CN0112001N1+00801+00401101051ADDAY101999GA1011+006009089GF102991021081008001001001MA1101021999999MD1210141+9999MW1031OA199901591REMSYN01181820 91131MET006NOSIG?EQDQ01+000000PRSWM2
0068039620999991981010308304+52683-008917FM-15+0014EINN V0202801N00921220001CN0112001N1+00801+00401999999ADDGA1021+006009089MA1101021999999REMMET006NOSIG?EQDQ01+000000PRSWM2
0133039620999991981010309004+52683-008917SY-MT+0014EINN V0202801N01021220001CN0112001N1+00801+00301101121ADDAY161999GA1021+006009089GF102991021081008001001021MA1101081999999MD1210171+9999MW1031REMSYN00582820MET006NOSIG?EQDQ01+000000PRSWM2
0068039620999991981010309304+52683-008917FM-15+0014EINN V0202801N01131220001CN0112001N1+00801+00301999999ADDGA1031+006009089MA1101081999999REMMET006NOSIG?EQDQ01+000000PRSWM2
0172039620999991981010310004+52683-008917SY-MT+0014EINN V0202801N00871060001CN0112001N1+00801+00301101181ADDAY111999GA1011+006009089GA2041+060009009GF106991031081008001001021MA1101081999999MD1210171+9999MW1031OA199901481REMSYN01781820 84070 91129MET006NOSIG?EQDQ01+000000PRSWM2
0084039620999991981010310304+52683-008917FM-15+0014EINN V0202701N00921036001CN0112001N1+00901+00301999999ADDGA1011+006009089GA2071+036009049MA1101081999999REMMET006NOSIG?EQDQ01+000000PRSWM2
0155039620999991981010311004+52683-008917SY-MT+0014EINN V0202801N00871036001CN0112001N1+00901+00301101181ADDAY121999GA1011+006609059GA2071+036009049GF107991011051008001021999MA1101081999999MD1210131+9999MW1031REMSYN01181622 87462MET006NOSIG?EQDQ01+000000PRSWM2
0084039620999991981010311304+52683-008917FM-15+0014EINN V0202801N00771036001CN0112001N1+00901+00301999999ADDGA1011+006609059GA2071+036009049MA1101081999999REMMET006NOSIG?EQDQ01+000000PRSWM2
0227039620999991981010312004+52683-008917SY-MT+0014EINN V0202801N00721075001CN0112001N1+00901+00501101171ADDAA106999929AY161999GA1011+006009089GA2041+036009039GA3061+075009029GF107991021081008001071081MA1101081999999MD1010051+9999MW1021OA199901231REMSYN029797// 81820 84362 86275 91124MET006NOSIG?EQDQ01+000000PRSWM2Q02  99993PRCP99
0100039620999991981010312304+52683-008917FM-15+0014EINN V0202801N00821075001CN0112001N1+00901+00401999999ADDGA1021+006009089GA2031+036009039GA3061+075009029MA1101081999999REMMET006NOSIG?EQDQ01+000000PRSWM2
0155039620999991981010313004+52683-008917SY-MT+0014EINN V0202901N00821075001CN0112001N1+00901+00501101131ADDAY121999GA1021+006609089GA2071+075009029GF107991031081008001071061MA1101081999999MD1710051+9999MW1021REMSYN01182822 87275MET006NOSIG?EQDQ01+000000PRSWM2
0100039620999991981010313304+52683-008917FM-15+0014EINN V0202801N00661036001CN0112001N1+00901+00501999999ADDGA1011+006009089GA2041+008409059GA3061+036009049MA1101081999999REMMET006NOSIG?EQDQ01+000000PRSWM2
0177039620999991981010314004+52683-008917SY-MT+0014EINN V0202701N00771007501CN0112001N1+00801+00501101141ADDAY121999GA1011+006609089GA2051+007509059GA3071+030009049GF107991051081008001071999MA1101081999999MD1510041+9999MW1021REMSYN01781820 84625 87460MET006NOSIG?EQDQ01+000000PRSWM2
0087039620999991981010314304+52683-008917FM-15+0014EINN V0202701N00821006301CN0112001N1+00701+00601999999ADDGA1031+003909079GA2051+006309059GA3071+030009049MA1101081999999MW1211REMMET006NOSIG?
0175039620999991981010315004+52683-008917SY-MT+0014EINN V0202701N00721012001CN0112001N1+00801+00601101111ADDAY161999GA1031+004509079GA2041+012009059GA3071+030009049GF107991051051004501071999MA1101081999999MD1710051+9999MW1211OA199901381REMSYN02383715 84640 87460 91127MET006NOSIG?
0100039620999991981010315304+52683-008917FM-15+0014EINN V0202601N00611012001CN0112001N1+00801+00601999999ADDGA1021+004509079GA2051+012009059GA3071+030009049MA1101081999999REMMET006NOSIG?EQDQ01+000000PRSWM2
0177039620999991981010316004+52683-008917SY-MT+0014EINN V0202701N00611009001CN0112001N1+00701+00601101151ADDAY121999GA1021+004509079GA2051+009009059GA3071+027009049GF107991051051004501071999MA1101081999999MD1310011+9999MW1021REMSYN01782715 85630 87459MET006NOSIG?EQDQ01+000000PRSWM2
0100039620999991981010316304+52683-008917FM-15+0014EINN V0202601N00411010501CN0112001N1+00701+00601999999ADDGA1021+004509079GA2051+010509059GA3051+060009009MA1101081999999REMMET006NOSIG?EQDQ01+000000PRSWM2
0177039620999991981010317004+52683-008917SY-MT+0014EINN V0202601N00361006001CN0112001N1+00701+00601101121ADDAY121999GA1021+004209079GA2031+006009089GA3051+009009059GF107991071081004501999021MA1101081999999MD1810031+9999MW1801REMSYN01782714 83820 85630MET006NOSIG?EQDQ01+000000PRSWM2
0087039620999991981010317304+52683-008917FM-15+0014EINN V0202501N00251009001CN0112001N1+00701+00601999999ADDGA1011+004509079GA2031+006009089GA3051+009009059MA1101081999999MW1251REMMET006NOSIG?
0188039620999991981010318004+52683-008917SY-MT+0014EINN V0202501N00301010501CN0112001N1+00701+00601101101ADDAA199000491AY161999GA1021+006009089GA2031+010509059GA3051+027009049GF107991061081004501071999KA1999M+00901MA1101021999999MD1810021+9999MW1251REMSYN02379409 81715 83820 85635MET006NOSIG?
0100039620999991981010318304+52683-008917FM-15+0014EINN V0202601N00301010501CN0112001N1+00701+00601999999ADDGA1021+006009089GA2031+010509059GA3051+027009049MA1101021999999REMMET006NOSIG?EQDQ01+000000PRSWM2
0177039620999991981010319004+52683-008917SY-MT+0014EINN V0202701N00251027001CN0112001N1+00701+00601101071ADDAY121999GA1011+006009089GA2031+010509059GA3051+027009049GF108991031081008001071061MA1101021999999MD1710081+9999MW1031REMSYN01781820 83635 85459MET006NOSIG?EQDQ01+000000PRSWM2
0100039620999991981010319304+52683-008917FM-15+0014EINN V0202401N00301027001CN0112001N1+00701+00601999999ADDGA1011+006009089GA2031+010509059GA3071+027009049MA1101021999999REMMET006NOSIG?EQDQ01+000000PRSWM2
0203039620999991981010320004+52683-008917SY-MT+0014EINN V0203301N00251007501CN0112001N1+00701+00601101091ADDAY161999GA1031+004509079GA2051+007509059GA3061+010509059GF108991081051004501999999MA1101021999999MD1510031+9999MW1601REMSYN04183715 85625 86635 94003 91324 91332 90094MET027TEMPO 6ST        ?     010?
0100039620999991981010320304+52683-008917FM-15+0014EINN V0202501N00201006601CN0080001N1+00601+00501999999ADDGA1031+004509079GA2051+006609059GA3071+010509059MA1101021999999MW1581REMMET019TEMPO6ST012      ??
0206039620999991981010321004+52683-008917SY-MT+0014EINN V0202101N00201007201CN0112001N1+00601+00501101091ADDAY151999GA1021+004509079GA2051+007209059GA3081+012009059GF108991081051004501999999MA1101021999999MD1610011+9999MW1211REMSYN03582715 85624 88640 91332 91324 90045MET036TEMPO 5ST        ?012        ?     ?
0105039620999991981010321304+52683-008917FM-15+0014EINN V0202501N00201009001CN0112001N1+00601+00501999999ADDGA1021+005409079GA2051+009009059GA3081+024009049MA1101081999999MW1601REMMET024TEMPO      ?     6ST012?
0184039620999991981010322004+52683-008917SY-MT+0014EINN V0202501N00151024001CN0112001N1+00601+00501101121ADDAY161999GA1011+005409079GA2031+009009059GA3081+024009049GF108991031051004501071999MA1101081999999MD1210051+9999MW1211REMSYN01781718 83630 88458MET013TEMPO 5ST012?EQDQ01+000000PRSWM2
0100039620999991981010322304+52683-008917FM-15+0014EINN V0202901N00151012001CN0112001N1+00601+00501999999ADDGA1011+005409079GA2061+012009059GA3081+024009049MA1101081999999MW1601REMMET019TEMPO5ST012      ??
0127039620999991981010323004+52683-008917SY-MT+0014EINN V0202901N00151012001CN0112001N1+00601+00501101211ADDAY161999GA1081+012009059GF108991081051012501999999MA1101191999999MD1310121+9999MW1201MW2211REMSYN00588640MET013TEMPO 5ST012?
0062039620999991981010323304+52683-008917FM-15+0014EINN V0203301N00101012001CN0112001N1+00601+00501999999ADDGA1081+012009059MA1101191999999MW1211REMMET013TEMPO 5ST012?
0168039620999991981010400004+52683-008917SY-MT+0014EINN V0203301N00101012001CN0112001N1+00601+00401101251ADDAA106000591AA299000491AY161999GA1081+012009059GF108991081051012501999999MA1101191999999MD1210161+9999MW1021REMSYN011794// 88640MET013TEMPO 5ST012?EQDQ01+000000PRSWM2
0068039620999991981010400304+52683-008917FM-15+0014EINN V0203201N00101012001CN0112001N1+00501+00301999999ADDGA1071+012009059MA1101191999999REMMET006NOSIG?EQDQ01+000000PRSWM2
0133039620999991981010401004+52683-008917SY-MT+0014EINN V0203201N00101012001CN0112001N1+00501+00301101301ADDAY121999GA1071+012009059GF107991071051012501999999MA1101191999999MD1210181+9999MW1011REMSYN00587640MET006NOSIG?EQDQ01+000000PRSWM2
0068039620999991981010401304+52683-008917FM-15+0014EINN V0203201N00101220001CN0112001N1+00401+00201999999ADDGA1031+012009059MA1101291999999REMMET006NOSIG?EQDQ01+000000PRSWM2
0133039620999991981010402004+52683-008917SY-MT+0014EINN V0203101N00151220001CN0112001N1+00301+00201101441ADDAY111999GA1021+012009059GF102991021051012501001001MA1101391999999MD1310231+9999MW1011REMSYN00582640MET006NOSIG?EQDQ01+000000PRSWM2
0068039620999991981010402304+52683-008917FM-15+0014EINN V0203201N00201220001CN0112001N1+00301+00101999999ADDGA1021+012009059MA1101391999999REMMET006NOSIG?EQDQ01+000000PRSWM2
0133039620999991981010403004+52683-008917SY-MT+0014EINN V0203201N00151220001CN0250001N1+00401+00201101521ADDAY111999GA1011+012009059GF101991011051012501001001MA1101491999999MD1210271+9999MW1011REMSYN00581640MET006NOSIG?EQDQ01+000000PRSWM2
0058039620999991981010403304+52683-008917FM-15+0014EINN V0203001N00251999991CY0099001N1+00401+00201999999ADDMA1101491999999REMMET012CAVOK NOSIG?EQDQ01+000000PRSWM2
0123039620999991981010404004+52683-008917SY-MT+0014EINN V0202901N00251220001CN0099001N1+00301+00101101581ADDAY101999GF100991001001999999001001MA1101491999999MD1110281+9999MW1011REMSYN00592000MET012CAVOK NOSIG?EQDQ01+000000PRSWM2
0068039620999991981010404304+52683-008917FM-15+0014EINN V0202801N00301220001CN0112001N1+00401+00101999999ADDGA1011+012009059MA1101591999999REMMET006NOSIG?EQDQ01+000000PRSWM2
0112039620999991981010405004+52683-008917SY-MT+0014EINN V0202601N00301220001CN0099001N1+00501+00201101611ADDAY101999GF100991001001999999001001MA1101591999999MD1110171+9999MW1021REMMET012CAVOK NOSIG?EQDQ01+000000PRSWM2
0071039620999991981010405304+52683-008917FM-15+0014EINN V0202901N00871006901CN0112001N1+00501+00201999999ADDGA1051+006909099GA2051+012009059MA1101591999999MW1801REMMET006NOSIG?
0185039620999991981010406004+52683-008917SY-MT+0014EINN V0202901N00461220001CN0112001N1+00501+00301101671ADDAA199000691AJ100009199999999AY181999GA1021+006909089GF103991031081008001001001IA1089IA2999-00109KA1999N+00301MA1101591999999MD1210151+9999MW1251REMSYN01725110 79603 82823MET006NOSIG?
0055039620999991981010406304+52683-008917FM-15+0014EINN V0203001N00721220001CN0112001N1+00601+00301999999ADDGA1021+006609089MA1101591999999MW1251REMMET006NOSIG?
0133039620999991981010407004+52683-008917SY-MT+0014EINN V0203201N00721220001CN0112001N1+00601+00301101771ADDAY101999GA1021+006609089GF103991031081008001001001MA1101691999999MD1210191+9999MW1021REMSYN00582822MET006NOSIG?EQDQ01+000000PRSWM2
0084039620999991981010407304+52683-008917FM-15+0014EINN V0203201N00661010501CN0112001N1+00601+00201999999ADDGA1031+006609089GA2031+010509059MA1101801999999REMMET006NOSIG?EQDQ01+000000PRSWM2
0155039620999991981010408004+52683-008917SY-MT+0014EINN V0203101N00661220001CN0112001N1+00501+00201101861ADDAY111999GA1011+006609089GA2031+010509059GF103991031081008001001001MA1101801999999MD1210251+9999MW1031REMSYN01181822 83635MET006NOSIG?EQDQ01+000000PRSWM2
0068039620999991981010408304+52683-008917FM-15+0014EINN V0203201N00511220001CN0112001N1+00501+00001999999ADDGA1011+006609089MA1101901999999REMMET006NOSIG?EQDQ01+000000PRSWM2
0155039620999991981010409004+52683-008917SY-MT+0014EINN V0203101N00461060001CN0112001N1+00401+00101101971ADDAY111999GA1021+006609089GA2031+060009009GF105991031081008001001021MA1101901999999MD1210301+9999MW1031REMSYN01182822 83270MET006NOSIG?EQDQ01+000000PRSWM2
0084039620999991981010409304+52683-008917FM-15+0014EINN V0203101N00661220001CN0112001N1+00501+00101999999ADDGA1011+006609089GA2041+060009009MA1102001999999REMMET006NOSIG?EQDQ01+000000PRSWM2
0177039620999991981010410004+52683-008917SY-MT+0014EINN V0203101N00661060001CN0112001N1+00401+00201102071ADDAY121999GA1011+006609089GA2031+010509059GA3061+060009009GF106991031081008001001021MA1102001999999MD1210301+9999MW1031REMSYN01781822 83635 86070MET006NOSIG?EQDQ01+000000PRSWM2
0100039620999991981010410304+52683-008917FM-15+0014EINN V0203401N00301060001CN0112001N1+00501+00201999999ADDGA1011+006609089GA2041+009009059GA3051+060009009MA1102101999999REMMET006NOSIG?EQDQ01+000000PRSWM2
0155039620999991981010411004+52683-008917SY-MT+0014EINN V0203201N00411009001CN0112001N1+00501+00201102201ADDAY121999GA1011+006609089GA2061+009009059GF107991061081008001999021MA1102101999999MD1210341+9999MW1031REMSYN01181822 86630MET006NOSIG?EQDQ01+000000PRSWM2
0084039620999991981010411304+52683-008917FM-15+0014EINN V0203201N00201220001CN0112001N1+00501+00201999999ADDGA1011+006609089GA2031+010509059MA1102201999999REMMET006NOSIG?EQDQ01+000000PRSWM2
0188039620999991981010412004+52683-008917SY-MT+0014EINN V0203101N00301220001CN0112001N1+00601+00201102241ADDAA106000091AY111999GA1011+006609089GA2041+010509059GF104991041081008001001021MA1102201999999MD1110271+9999MW1011REMSYN017700// 81822 84635MET006NOSIG?EQDQ01+000000PRSWM2Q02  00003PRCP99
0084039620999991981010412304+52683-008917FM-15+0014EINN V0203101N00411010501CN0112001N1+00601+00201999999ADDGA1011+006609089GA2061+010509059MA1102201999999REMMET006NOSIG?EQDQ01+000000PRSWM2
0155039620999991981010413004+52683-008917SY-MT+0014EINN V0203201N00511220001CN0112001N1+00601+00101102261ADDAY121999GA1011+006609089GA2041+010509059GF104991041081008001001021MA1102201999999MD1110191+9999MW1021REMSYN01181822 84635MET006NOSIG?EQDQ01+000000PRSWM2
0088039620999991981010413304+52683-008917FM-15+0014EINN V0203101N00461220001CN0112001N1+00601+00001999999ADDGA1011+004509079GA2041+012009059MA1102201999999REMMET0107188-,98&?EQDQ01+000000PRSWM2
0155039620999991981010414004+52683-008917SY-MT+0014EINN V0203001N00411220001CN0112001N1+00601+00101102321ADDAY121999GA1011+006609089GA2031+013509059GF104991031081008001001021MA1102301999999MD1210121+9999MW1021REMSYN01181822 83635MET006NOSIG?EQDQ01+000000PRSWM2
0084039620999991981010414304+52683-008917FM-15+0014EINN V0203001N00251220001CN0112001N1+00601+00101999999ADDGA1011+006609089GA2031+075009009MA1102301999999REMMET006NOSIG?EQDQ01+000000PRSWM2
0177039620999991981010415004+52683-008917SY-MT+0014EINN V0203001N00251036001CN0112001N1+00501+00101102381ADDAY121999GA1011+009009059GA2031+015009059GA3061+036009049GF107991031051012501071999MA1102301999999MD1210141+9999MW1031REMSYN01781630 83650 86362MET006NOSIG?EQDQ01+000000PRSWM2
0155039620999991981010416004+52683-008917SY-MT+0014EINN V0202901N00201036001CN0112001N1+00501+00201102401ADDAY121999GA1031+012009059GA2061+036009049GF107991031051012501071999MA1102301999999MD1110151+9999MW1021REMSYN01183640 86362MET006NOSIG?EQDQ01+000000PRSWM2
0084039620999991981010416304+52683-008917FM-15+0014EINN V0202801N00151036001CN0112001N1+00501+00201999999ADDGA1031+012009059GA2071+036009049MA1102401999999REMMET006NOSIG?EQDQ01+000000PRSWM2
0155039620999991981010417004+52683-008917SY-MT+0014EINN V0203001N00251036001CN0112001N1+00501+00201102461ADDAY121999GA1031+015009059GA2071+036009049GF108991031051017501071999MA1102401999999MD1210141+9999MW1031REMSYN01183650 87362MET006NOSIG?EQDQ01+000000PRSWM2
0058039620999991981010417304+52683-008917FM-15+0014EINN V0203001N00151999991CY0099001N1+00501+00201999999ADDMA1102401999999REMMET012CAVOK NOSIG?EQDQ01+000000PRSWM2
0175039620999991981010418004+52683-008917SY-MT+0014EINN V0203001N00101030001CN0099001N1+00501+00201102511ADDAA199999929AY121999GA1031+036009039GF105991031051017501031001KA1999M+00601MA1102511999999MD1210131+9999MW1011REMSYN01779706 83650 83362MET012CAVOK NOSIG?EQDQ01+000000PRSWM2
0058039620999991981010418304+52683-008917FM-15+0014EINN V0203001N00101999991CY0099001N1+00401+00101999999ADDMA1102511999999REMMET012CAVOK NOSIG?EQDQ01+000000PRSWM2
0139039620999991981010419004+52683-008917SY-MT+0014EINN V0203001N00051015001CN0099001N1+00301+00101102571ADDAY111999GA1071+015009059GF107991071051017501999999MA1102511999999MD1210161+9999MW1031REMSYN00587650MET012CAVOK NOSIG?EQDQ01+000000PRSWM2
0058039620999991981010419304+52683-008917FM-15+0014EINN V0209991C00001999991CY0099001N1+00301+00101999999ADDMA1102511999999REMMET012CAVOK NOSIG?EQDQ01+000000PRSWM2
0139039620999991981010420004+52683-008917SY-MT+0014EINN V0209991C00001015001CN0099001N1+00301+00201102621ADDAY121999GA1081+015009059GF108991081051017501999999MA1102611999999MD1210161+9999MW1031REMSYN00588650MET012CAVOK NOSIG?EQDQ01+000000PRSWM2
0058039620999991981010420304+52683-008917FM-15+0014EINN V0209991C00001999991CY0099001N1+00401+00201999999ADDMA1102611999999REMMET012CAVOK NOSIG?EQDQ01+000000PRSWM2
0139039620999991981010421004+52683-008917SY-MT+0014EINN V0209991C00001015001CN0099001N1+00401+00201102621ADDAY111999GA1081+015009059GF108991081051017501999999MA1102611999999MD1110111+9999MW1021REMSYN00588650MET012CAVOK NOSIG?EQDQ01+000000PRSWM2
0058039620999991981010421304+52683-008917FM-15+0014EINN V0209991C00001999991CY0099001N1+00401+00201999999ADDMA1102611999999REMMET012CAVOK NOSIG?EQDQ01+000000PRSWM2
0139039620999991981010422004+52683-008917SY-MT+0014EINN V0209991C00001012001CN0112001N1+00401+00201102661ADDAY121999GA1081+012009059GF108991081051012501999999MA1102611999999MD1110091+9999MW1021REMSYN01188640 94023MET006NOSIG?EQDQ01+000000PRSWM2
0068039620999991981010422304+52683-008917FM-15+0014EINN V0209991C00001012001CN0112001N1+00401+00201999999ADDGA1081+012009059MA1102611999999REMMET006NOSIG?EQDQ01+000000PRSWM2
0133039620999991981010423004+52683-008917SY-MT+0014EINN V0209991C00001013501CN0112001N1+00401+00201102681ADDAY121999GA1081+013509059GF108991081051012501999999MA1102611999999MD1310061+9999MW1021REMSYN00588645MET006NOSIG?EQDQ01+000000PRSWM2
0058039620999991981010423304+52683-008917FM-15+0014EINN V0209991C00001999991CY0099001N1+00301+00201999999ADDMA1102611999999REMMET012CAVOK NOSIG?EQDQ01+000000PRSWM2
0166039620999991981010500004+52683-008917SY-MT+0014EINN V0209991C00001012001CN0112001N1+00301+00201102701ADDAA106999929AY121999GA1061+012009059GF106991061051012501999999MA1102711999999MD1210081+9999MW1011REMSYN011797// 86640MET006NOSIG?EQDQ01+000000PRSWM2Q02  99993PRCP99
0068039620999991981010500304+52683-008917FM-15+0014EINN V0209991C00001012001CN0112001N1+00301+00101999999ADDGA1061+012009059MA1102611999999REMMET006NOSIG?EQDQ01+000000PRSWM2
0187039620999991981010501004+52683-008917SY-MT+0014EINN V0201101N00201075001CN0099001N1+00301+00101102561ADDAY121999GA1061+075009009GA2061+075009009GF107991999011000251001011MA1102611999999MD1610101+9999MW1031REMSYN00586075MET012CAVOK NOSIG?EQDQ01+000002SCOTLCQ02+000502APC3  Q03+000000PRSWM2
0058039620999991981010501304+52683-008917FM-15+0014EINN V0201101N00251999991CY0099001N1+00301+00101999999ADDMA1102611999999REMMET012CAVOK NOSIG?EQDQ01+000000PRSWM2
0139039620999991981010502004+52683-008917SY-MT+0014EINN V0201101N00251024001CN0099001N1+00301+00101102421ADDAY121999GA1061+024009039GF106991061001999999031999MA1102611999999MD1610011+9999MW1011REMSYN00586358MET012CAVOK NOSIG?EQDQ01+000000PRSWM2
0058039620999991981010502304+52683-008917FM-15+0014EINN V0201101N00361999991CY0099001N1+00301+00101999999ADDMA1102511999999REMMET012CAVOK NOSIG?EQDQ01+000000PRSWM2
0139039620999991981010503004+52683-008917SY-MT+0014EINN V0201101N00301015001CN0099001N1+00301+00101102611ADDAY121999GA1071+015009059GF107991071051017501999999MA1102611999999MD1810091+9999MW1031REMSYN00587650MET012CAVOK NOSIG?EQDQ01+000000PRSWM2
0071039620999991981010503304+52683-008917FM-15+0014EINN V0201101N00411015001CN0112001N1+00301+00101999999ADDGA1021+010509059GA2071+015009059MA1102611999999MW1601REMMET006NOSIG?
0136039620999991981010504004+52683-008917SY-MT+0014EINN V0201101N00361015001CN0112001N1+00301+00101102611ADDAY161999GA1021+010509059GA2071+015009059GF108991081051012501999999MA1102611999999MD1610061+9999MW1601REMSYN01182635 87650MET006NOSIG?
0071039620999991981010504304+52683-008917FM-15+0014EINN V0201101N00361015001CN0112001N1+00301+00101999999ADDGA1021+010509059GA2071+015009059MA1102511999999MW1601REMMET006NOSIG?
0136039620999991981010505004+52683-008917SY-MT+0014EINN V0201201N00511015001CN0112001N1+00301+00101102551ADDAY161999GA1021+010509059GA2071+015009059GF108991081051012501999999MA1102511999999MD1710121+9999MW1601REMSYN01182635 87650MET006NOSIG?
0071039620999991981010505304+52683-008917FM-15+0014EINN V0201201N00411015001CN0112001N1+00301+00101999999ADDGA1021+010509059GA2071+015009059MA1102511999999MW1601REMMET006NOSIG?
0265039620999991981010506004+52683-008917SY-MT+0014EINN V0201201N00411004501CN0090001N1+00301+00201102541ADDAA199999929AJ100009199999999AY161999GA1021+003009079GA2041+004509079GA3081+010509059GF108991081061004501999999IA1089IA2999-00209KA1999N+00201MA1102511999999MD1610071+9999MW1581REMSYN02925210 79702 82710 84715 88635MET042INTER 3ST00      ?8          ?     8SC020?
0087039620999991981010506304+52683-008917FM-15+0014EINN V0201201N00461001501CN0060001N1+00301+00301999999ADDGA1021+000909079GA2041+001509079GA3071+004509079MA1102511999999MW1581REMMET006GRADU?
0165039620999991981010507004+52683-008917SY-MT+0014EINN V0201201N00461002401CN0060001N1+00301+00301102541ADDAY161999GA1021+001209079GA2031+002409079GA3071+005109079GF108991081061001501999999MA1102511999999MD1610071+9999MW1581REMSYN01782704 83708 87717MET013GRADU 6ST008?
0100039620999991981010507304+52683-008917FM-15+0014EINN V0201201N00461002101CN0050001N1+00301+00301999999ADDGA1031+000909079GA2041+002109079GA3051+003009079MA1102511999999MW1581REMMET019GRADU6ST008      ??
0183039620999991981010508004+52683-008917SY-MT+0014EINN V0201101N00511001201CN0060001N1+00301+00301102601ADDAY161999GA1031+000609079GA2051+001209079GA3081+002709079GF108991081061000751999999MA1102511999999MD1310051+9999MW1511REMSYN01783702 85704 88709MET031GRADU      ?     4ST005 8ST010?
0101039620999991981010508304+52683-008917FM-15+0014EINN V0201101N00461001201CN0030001N1+00301+00301999999ADDGA1041+000609079GA2071+001209079MA1102611999999MW1581REMMET036GRADU 6000 4ST005      ?     8ST010?
0176039620999991981010509004+52683-008917SY-MT+0014EINN V0201101N00611001201CN0027001N1+00301+00301102631ADDAY161999GA1041+000609079GA2061+001209079GA3081+002109079GF108991081061000751999999MA1102611999999MD1310091+9999MW1581REMSYN01184702 88704MET030GRADU 6000 8ST005      ?     ?
0123039620999991981010509304+52683-008917FM-15+0014EINN V0201101N00511001201CN0050001N1+00301+00201999999ADDGA1041+000609079GA2061+001209079GA3081+002109079MA1102611999999MW1581REMMET042GRADU 4ST00      ?5          ?     8ST010?
0194039620999991981010510004+52683-008917SY-MT+0014EINN V0201101N00361001201CN0050001N1+00301+00201102641ADDAY151999GA1021+000609079GA2051+001209079GA3061+002109079GF107991071061000751999999MA1102611999999MD1110101+9999MW1211REMSYN01782702 85704 86707MET042GRADU 4ST        ?006        ?     8ST010?
0101039620999991981010510304+52683-008917FM-15+0014EINN V0201301N00251001501CN0040001N1+00401+00301999999ADDGA1031+000909079GA2071+001509079MA1102611999999MW1501REMMET036GRADU 8000 4ST006      ?     8ST010?
0164039620999991981010511004+52683-008917SY-MT+0014EINN V0201301N00201001501CN0050001N1+00401+00301102671ADDAY151999GA1031+000909079GA2071+001509079GF108991081061001501999999MA1102611999999MD1310071+9999MW1201REMSYN01183703 87705MET0349999 TOSW GRADU        ?     9999?
0071039620999991981010511304+52683-008917FM-15+0014EINN V0201501N00251001801CN0112001N1+00501+00401999999ADDGA1031+000909079GA2071+001809079MA1102611999999MW1201REMMET006NOSIG?
0237039620999991981010512004+52683-008917SY-MT+0014EINN V0201501N00251001501CN0050001N1+00601+00501102631ADDAA106000091AA299000291AY161999GA1031+000609079GA2061+001509079GA3071+002409079GF108991081061000751999999MA1102611999999MD1010001+9999MW1101REMSYN029792// 83702 86705 87708 97362MET0519999 TO          ?     SW TEMPO 9000 3ST004 8ST008?
0136039620999991981010512304+52683-008917FM-15+0014EINN V0201701N00301001501CN0060001N1+00601+00501999999ADDGA1021+000909079GA2051+001509079GA3071+002109079MA1102511999999MW1101REMMET0559999 TO SW       ?     AND SE GRADU 9000 3ST004 8ST008?
0251039620999991981010513004+52683-008917SY-MT+0014EINN V0201801N00251001501CN0070001N1+00601+00501999999ADDAY121999GA1021+000909079GA2051+001509079GA3071+002109079GF108991999051008001001021MA1102611999999MD1710031+9999MW1101REMSYN02385705 87707 97262 97362MET0589999 TO          ?     SW AND SE GRADU 9000 3ST004 8ST008?EQDQ01+000002SCOTLCQ02+098623APOSLP
0100039620999991981010513304+52683-008917FM-15+0014EINN V0202001N00201002101CN0112001N1+00701+00501999999ADDGA1021+001509079GA2061+002109079GA3071+003009079MA1102611999999MW1101REMMET019GRADU8ST010      ??
0166039620999991981010514004+52683-008917SY-MT+0014EINN V0202901N00201000601CN0040001N1+00701+00601102591ADDAY151999GA1051+000609079GA2081+001509079GF108991081061000751999999MA1102611999999MD1310021+9999MW1501REMSYN01185702 88705MET036GRADU 5000 5ST008      ?     8ST015?
0095039620999991981010514304+52683-008917FM-15+0014EINN V0202901N00361002101CN0070001N1+00701+00701999999ADDGA1051+002109079GA2081+002709079MA1102711999999MW1501REMMET030GRADU 5ST008     ?     8ST012?
0160039620999991981010515004+52683-008917SY-MT+0014EINN V0202901N00611001201CN0112001N1+00701+00601102711ADDAY151999GA1061+001209079GA2081+002109079GF108991081061001501999999MA1102711999999MD1310081+9999MW1501REMSYN01186704 88707MET030TEMPO 3ST005     ?     8ST010?
0071039620999991981010515304+52683-008917FM-15+0014EINN V0202801N00251003601CN0112001N1+00701+00501999999ADDGA1041+001509079GA2081+003609079MA1102711999999MW1201REMMET006NOSIG?
0136039620999991981010516004+52683-008917SY-MT+0014EINN V0202901N00301002401CN0112001N1+00701+00501102761ADDAY151999GA1051+002409079GA2071+003909079GF107991071061002501999999MA1102711999999MD1210141+9999MW1201REMSYN01185708 87713MET006NOSIG?
0084039620999991981010516304+52683-008917FM-15+0014EINN V0202801N00411002701CN0112001N1+00701+00601999999ADDGA1051+002709079GA2051+004209079MA1102711999999REMMET006NOSIG?EQDQ01+000000PRSWM2
0133039620999991981010517004+52683-008917SY-MT+0014EINN V0202801N00561220001CN0112001N1+00801+00601102711ADDAY111999GA1021+003009079GF103991031021004501031001MA1102711999999MD1010021+9999MW1011REMSYN00582710MET006NOSIG?EQDQ01+000000PRSWM2
0084039620999991981010517304+52683-008917FM-15+0014EINN V0203001N00461005401CN0112001N1+00801+00601999999ADDGA1021+003609079GA2041+005409079MA1102711999999REMMET006NOSIG?EQDQ01+000000PRSWM2
0163039620999991981010518004+52683-008917SY-MT+0014EINN V0203001N00301220001CN0112001N1+00801+00601102761ADDAA199000291AY151999GA1011+003609079GF101991011061004501001001KA1999M+00801MA1102711999999MD1210061+9999MW1011REMSYN01179208 81712MET006NOSIG?EQDQ01+000000PRSWM2
0068039620999991981010518304+52683-008917FM-15+0014EINN V0202901N00511220001CN0112001N1+00701+00501999999ADDGA1011+003609079MA1102711999999REMMET006NOSIG?EQDQ01+000000PRSWM2
0139039620999991981010519004+52683-008917SY-MT+0014EINN V0202801N00511220001CN0112001N1+00701+00501102781ADDAY101999GA1011+003609079GF101991011061004501001001MA1102711999999MD1310021+9999MW1021REMSYN01181712 94000MET006NOSIG?EQDQ01+000000PRSWM2
0058039620999991981010519304+52683-008917FM-15+0014EINN V0202801N00611999991CY0099001N1+00701+00501999999ADDMA1102711999999REMMET012CAVOK NOSIG?EQDQ01+000000PRSWM2
0112039620999991981010520004+52683-008917SY-MT+0014EINN V0202801N00561220001CN0099001N1+00701+00501102811ADDAY101999GF100991001001999999001001MA1102811999999MD1210101+9999MW1011REMMET012CAVOK NOSIG?EQDQ01+000000PRSWM2
0058039620999991981010520304+52683-008917FM-15+0014EINN V0202701N00511999991CY0099001N1+00701+00501999999ADDMA1102811999999REMMET012CAVOK NOSIG?EQDQ01+000000PRSWM2
0112039620999991981010521004+52683-008917SY-MT+0014EINN V0202701N00361220001CN0099001N1+00701+00601102871ADDAY101999GF100991001001999999001001MA1102811999999MD1210101+9999MW1101REMMET012CAVOK NOSIG?EQDQ01+000000PRSWM2
0058039620999991981010521304+52683-008917FM-15+0014EINN V0202601N00461999991CY0099001N1+00701+00601999999ADDMA1102811999999REMMET012CAVOK NOSIG?EQDQ01+000000PRSWM2
0139039620999991981010522004+52683-008917SY-MT+0014EINN V0202701N00611220001CN0099001N1+00701+00601102841ADDAY101999GA1021+030009039GF102991021001999999031001MA1102811999999MD1010061+9999MW1101REMSYN00582360MET012CAVOK NOSIG?EQDQ01+000000PRSWM2
0058039620999991981010522304+52683-008917FM-15+0014EINN V0202701N00611999991CY0099001N1+00701+00601999999ADDMA1102811999999REMMET012CAVOK NOSIG?EQDQ01+000000PRSWM2
0139039620999991981010523004+52683-008917SY-MT+0014EINN V0202701N00561220001CN0099001N1+00701+00601102841ADDAY101999GA1031+030009039GF103991031001999999031001MA1102811999999MD1110031+9999MW1101REMSYN00583360MET012CAVOK NOSIG?EQDQ01+000000PRSWM2
0058039620999991981010523304+52683-008917FM-15+0014EINN V0202701N00561999991CY0099001N1+00701+00601999999ADDMA1102811999999REMMET012CAVOK NOSIG?EQDQ01+000000PRSWM2
0172039620999991981010600004+52683-008917SY-MT+0014EINN V0202801N00611220001CN0099001N1+00701+00601102821ADDAA106999929AY101999GA1041+030009039GF104991041001999999031001MA1102811999999MD1710051+9999MW1101REMSYN011797// 84360MET012CAVOK NOSIG?EQDQ01+000000PRSWM2Q02  99993PRCP99
0058039620999991981010600304+52683-008917FM-15+0014EINN V0202801N00661999991CY0099001N1+00801+00601999999ADDMA1102711999999REMMET012CAVOK NOSIG?EQDQ01+000000PRSWM2
0139039620999991981010601004+52683-008917SY-MT+0014EINN V0202801N00611220001CN0099001N1+00801+00601102811ADDAY101999GA1031+030009039GF103991031001999999031001MA1102811999999MD1710021+9999MW1101REMSYN00583360MET012CAVOK NOSIG?EQDQ01+000000PRSWM2
0058039620999991981010601304+52683-008917FM-15+0014EINN V0202801N00611999991CY0099001N1+00801+00601999999ADDMA1102811999999REMMET012CAVOK NOSIG?EQDQ01+000000PRSWM2
0155039620999991981010602004+52683-008917SY-MT+0014EINN V0202801N00611027001CN0112001N1+00801+00601102811ADDAY111999GA1041+006609059GA2041+027009039GF106991041051008001031999MA1102811999999MD1610021+9999MW1101REMSYN01184622 84359MET006NOSIG?EQDQ01+000000PRSWM2
0068039620999991981010602304+52683-008917FM-15+0014EINN V0202901N00721006601CN0112001N1+00801+00601999999ADDGA1071+006609059MA1102811999999REMMET006NOSIG?EQDQ01+000000PRSWM2
0133039620999991981010603004+52683-008917SY-MT+0014EINN V0202901N00611007201CN0112001N1+00801+00601102851ADDAY111999GA1081+007209059GF108991081051008001999999MA1102811999999MD1310041+9999MW1101REMSYN00588624MET006NOSIG?EQDQ01+000000PRSWM2
0068039620999991981010603304+52683-008917FM-15+0014EINN V0202901N00661007201CN0112001N1+00901+00601999999ADDGA1061+007209059MA1102811999999REMMET006NOSIG?EQDQ01+000000PRSWM2
0133039620999991981010604004+52683-008917SY-MT+0014EINN V0202901N00611007201CN0112001N1+00801+00601102811ADDAY121999GA1071+007209059GF107991071051008001999999MA1102811999999MD1010001+9999MW1101REMSYN00587624MET006NOSIG?EQDQ01+000000PRSWM2
0068039620999991981010604304+52683-008917FM-15+0014EINN V0202801N00611007201CN0112001N1+00801+00601999999ADDGA1061+007209059MA1102711999999REMMET006NOSIG?EQDQ01+000000PRSWM2
0133039620999991981010605004+52683-008917SY-MT+0014EINN V0202901N00661007201CN0112001N1+00801+00601102801ADDAY121999GA1071+007209059GF107991071051008001999999MA1102711999999MD1810011+9999MW1021REMSYN00587624MET006NOSIG?EQDQ01+000000PRSWM2
0068039620999991981010605304+52683-008917FM-15+0014EINN V0202801N00661007201CN0112001N1+00801+00601999999ADDGA1081+007209059MA1102711999999REMMET006NOSIG?EQDQ01+000000PRSWM2
0204039620999991981010606004+52683-008917SY-MT+0014EINN V0202801N00661007801CN0112001N1+00901+00601102791ADDAA199999929AJ100009199999999AY111999GA1081+007809059GF108991081051008001999999IA1089IA2999+00309KA1999N+00601MA1102711999999MD1610061+9999MW1031REMSYN01720310 79706 88626MET006NOSIG?EQDQ01+000000PRSWM2
0068039620999991981010606304+52683-008917FM-15+0014EINN V0202801N00611008401CN0112001N1+00801+00501999999ADDGA1081+008409059MA1102711999999REMMET006NOSIG?EQDQ01+000000PRSWM2
0133039620999991981010607004+52683-008917SY-MT+0014EINN V0202901N00411009001CN0112001N1+00801+00601102771ADDAY121999GA1081+009009059GF108991081051012501999999MA1102711999999MD1710041+9999MW1021REMSYN00588630MET006NOSIG?EQDQ01+000000PRSWM2
0068039620999991981010607304+52683-008917FM-15+0014EINN V0202801N00561009001CN0112001N1+00801+00601999999ADDGA1081+009009059MA1102711999999REMMET006NOSIG?EQDQ01+000000PRSWM2
0133039620999991981010608004+52683-008917SY-MT+0014EINN V0202801N00771009001CN0112001N1+00901+00501102771ADDAY121999GA1081+009009059GF108991081051012501999999MA1102711999999MD1610031+9999MW1021REMSYN00588630MET006NOSIG?EQDQ01+000000PRSWM2
0068039620999991981010608304+52683-008917FM-15+0014EINN V0202801N00611009001CN0112001N1+00901+00501999999ADDGA1081+009009059MA1102711999999REMMET006NOSIG?EQDQ01+000000PRSWM2
0133039620999991981010609004+52683-008917SY-MT+0014EINN V0202801N00611007801CN0112001N1+00901+00501102811ADDAY121999GA1071+007809059GF107991071051008001999999MA1102811999999MD1310021+9999MW1011REMSYN00587626MET006NOSIG?EQDQ01+000000PRSWM2
0068039620999991981010609304+52683-008917FM-15+0014EINN V0202801N00661008401CN0112001N1+00901+00401999999ADDGA1071+008409059MA1102811999999REMMET006NOSIG?EQDQ01+000000PRSWM2
0133039620999991981010610004+52683-008917SY-MT+0014EINN V0202901N00721008401CN0112001N1+00901+00501102881ADDAY121999GA1071+008409059GF107991071051008001999999MA1102811999999MD1310111+9999MW1031REMSYN00587628MET006NOSIG?EQDQ01+000000PRSWM2
0068039620999991981010610304+52683-008917FM-15+0014EINN V0202901N00511008401CN0112001N1+00901+00501999999ADDGA1081+008409059MA1102911999999REMMET006NOSIG?EQDQ01+000000PRSWM2
0133039620999991981010611004+52683-008917SY-MT+0014EINN V0202901N00661008401CN0112001N1+00901+00501102901ADDAY121999GA1071+008409059GF107991071051008001999999MA1102811999999MD1110131+9999MW1011REMSYN00587628MET006NOSIG?EQDQ01+000000PRSWM2
0084039620999991981010611304+52683-008917FM-15+0014EINN V0202901N00661008401CN0112001N1+00901+00501999999ADDGA1021+006909059GA2071+008409059MA1102911999999REMMET006NOSIG?EQDQ01+000000PRSWM2
0188039620999991981010612004+52683-008917SY-MT+0014EINN V0202901N00771008401CN0112001N1+00901+00501102921ADDAA106999929AY121999GA1021+006909059GA2061+008409059GF107991071051008001999999MA1102911999999MD1110111+9999MW1021REMSYN017797// 82623 86628MET006NOSIG?EQDQ01+000000PRSWM2Q02  99993PRCP99
0094039620999991981010612304+52683-008917FM-15+0014EINN V0202901N00771008401CN0112001N1+01001+00501999999ADDGA1021+006909059GA2031+008409059MA1102911999999OC101331REMMET008NOSIGPV?EQDQ01+000000PRSWM2
0126039620999991981010613004+52683-008917FM-12+0014EINN V0202901N00771008401CN0200001N9+01001+00501102941ADDAY121999GA1021+006909059GA2031+008409059GF105991051051008001999999MD1210061+9999MW1011OA199901331REMSYN01782623 836)8 91126
0084039620999991981010613304+52683-008917FM-15+0014EINN V0203101N00721008401CN0112001N1+01001+00501999999ADDGA1021+006909059GA2041+008409059MA1102911999999REMMET006NOSIG?EQDQ01+000000PRSWM2
0133039620999991981010614004+52683-008917SY-MT+0014EINN V0203101N00771220001CN0112001N1+01001+00501102931ADDAY111999GA1021+006909059GF103991031051008001001021MA1102911999999MD1010031+9999MW1011REMSYN00582623MET006NOSIG?EQDQ01+000000PRSWM2
0084039620999991981010614304+52683-008917FM-15+0014EINN V0202901N00771220001CN0112001N1+01001+00501999999ADDGA1021+006909059GA2031+060009009MA1102911999999REMMET006NOSIG?EQDQ01+000000PRSWM2
0155039620999991981010615004+52683-008917SY-MT+0014EINN V0202901N00301060001CN0112001N1+00901+00501103001ADDAY111999GA1021+006909059GA2031+060009009GF105991031051008001001021MA1102911999999MD1310081+9999MW1031REMSYN01182623 83070MET006NOSIG?EQDQ01+000000PRSWM2
0084039620999991981010615304+52683-008917FM-15+0014EINN V0203001N00361008401CN0112001N1+00901+00501999999ADDGA1021+006909059GA2031+008409059MA1103011999999REMMET006NOSIG?EQDQ01+000000PRSWM2
0155039620999991981010616004+52683-008917SY-MT+0014EINN V0202901N00411009001CN0112001N1+01001+00701103041ADDAY121999GA1031+006909059GA2061+009009059GF107991071051008001999021MA1103011999999MD1210101+9999MW1031REMSYN01183623 86630MET006NOSIG?EQDQ01+000000PRSWM2
0084039620999991981010616304+52683-008917FM-15+0014EINN V0202801N00561009001CN0112001N1+00901+00501999999ADDGA1031+006909059GA2061+009009059MA1103011999999REMMET006NOSIG?EQDQ01+000000PRSWM2
0155039620999991981010617004+52683-008917SY-MT+0014EINN V0202901N00361009001CN0112001N1+00801+00501103081ADDAY121999GA1031+006909059GA2031+009009059GF107991051051008001001021MA1103011999999MD1310151+9999MW1011REMSYN01183623 83630MET006NOSIG?EQDQ01+000000PRSWM2
0084039620999991981010617304+52683-008917FM-15+0014EINN V0202801N00511008401CN0112001N1+00801+00501999999ADDGA1031+006609059GA2051+008409059MA1103011999999REMMET006NOSIG?EQDQ01+000000PRSWM2
0185039620999991981010618004+52683-008917SY-MT+0014EINN V0202901N00511008401CN0112001N1+00801+00501103121ADDAA199999929AY111999GA1031+006009059GA2051+008409059GF106991061051008001001021KA1999M+01001MA1103121999999MD1210121+9999MW1011REMSYN01779710 83620 85628MET006NOSIG?EQDQ01+000000PRSWM2
0084039620999991981010618304+52683-008917FM-15+0014EINN V0202901N00301008401CN0112001N1+00801+00501999999ADDGA1021+006009059GA2061+008409059MA1103121999999REMMET006NOSIG?EQDQ01+000000PRSWM2
0161039620999991981010619004+52683-008917SY-MT+0014EINN V0202901N00301008101CN0112001N1+00801+00501103181ADDAY121999GA1011+006009059GA2061+008109059GF106991061051008001999999MA1103121999999MD1210141+9999MW1021REMSYN01781620 86627 94008MET006NOSIG?EQDQ01+000000PRSWM2
0068039620999991981010619304+52683-008917FM-15+0014EINN V0202601N00201008101CN0112001N1+00801+00501999999ADDGA1071+008109059MA1103181999999REMMET006NOSIG?EQDQ01+000000PRSWM2
0155039620999991981010620004+52683-008917SY-MT+0014EINN V0202701N00301006601CN0112001N1+00701+00601103251ADDAY121999GA1051+006609059GA2071+008409059GF108991081051008001999999MA1103181999999MD1310161+9999MW1031REMSYN01185622 87628MET006NOSIG?EQDQ01+000000PRSWM2
0068039620999991981010620304+52683-008917FM-15+0014EINN V0202701N00151007201CN0112001N1+00701+00601999999ADDGA1081+007209059MA1103181999999REMMET006NOSIG?EQDQ01+000000PRSWM2
0133039620999991981010621004+52683-008917SY-MT+0014EINN V0202501N00151007501CN0112001N1+00701+00601103311ADDAY121999GA1081+007509059GF108991081051008001999999MA1103291999999MD1210181+9999MW1021REMSYN00588625MET006NOSIG?EQDQ01+000000PRSWM2
0068039620999991981010621304+52683-008917FM-15+0014EINN V0202601N00151007501CN0112001N1+00701+00601999999ADDGA1081+007509059MA1103291999999REMMET006NOSIG?EQDQ01+000000PRSWM2
0133039620999991981010622004+52683-008917SY-MT+0014EINN V0209991C00001007501CN0112001N1+00701+00601103351ADDAY121999GA1081+007509059GF108991081051008001999999MA1103291999999MD1210161+9999MW1021REMSYN00588625MET006NOSIG?EQDQ01+000000PRSWM2
0068039620999991981010622304+52683-008917FM-15+0014EINN V0202601N00201006901CN0112001N1+00701+00601999999ADDGA1081+006909059MA1103291999999REMMET006NOSIG?EQDQ01+000000PRSWM2
0133039620999991981010623004+52683-008917SY-MT+0014EINN V0202601N00151006901CN0112001N1+00701+00601103411ADDAY121999GA1081+006909059GF108991081051008001999999MA1103391999999MD1210161+9999MW1021REMSYN00588623MET006NOSIG?EQDQ01+000000PRSWM2
0068039620999991981010623304+52683-008917FM-15+0014EINN V0202701N00151006901CN0112001N1+00701+00601999999ADDGA1081+006909059MA1103391999999REMMET006NOSIG?EQDQ01+000000PRSWM2
0166039620999991981010700004+52683-008917SY-MT+0014EINN V0202701N00151007201CN0112001N1+00701+00601103441ADDAA106999929AY121999GA1081+007209059GF108991081051008001999999MA1103391999999MD1210131+9999MW1021REMSYN011797// 88624MET006NOSIG?EQDQ01+000000PRSWM2Q02  99993PRCP99
0068039620999991981010700304+52683-008917FM-15+0014EINN V0202401N00151007501CN0112001N1+00801+00601999999ADDGA1081+007509059MA1103391999999REMMET006NOSIG?EQDQ01+000000PRSWM2
0149039620999991981010701004+52683-008917SY-MT+0014EINN V0202401N00151007501CN0112001N1+00701+00601103441ADDAY121999GA1081+007509059GF199999071051008001999999MA1103391999999MD1110091+9999MW1011REMSYN00587625MET006NOSIG?EQDQ01+000072SCOTCVQ02+000000PRSWM2
0068039620999991981010701304+52683-008917FM-15+0014EINN V0202601N00151007501CN0112001N1+00701+00601999999ADDGA1081+007509059MA1103391999999REMMET006NOSIG?EQDQ01+000000PRSWM2
0133039620999991981010702004+52683-008917SY-MT+0014EINN V0202501N00151007501CN0112001N1+00701+00601103471ADDAY121999GA1081+007509059GF108991081051008001999999MA1103391999999MD1210061+9999MW1031REMSYN00588625MET006NOSIG?EQDQ01+000000PRSWM2
0133039620999991981010703004+52683-008917SY-MT+0014EINN V0202501N00101006901CN0112001N1+00701+00601103481ADDAY121999GA1081+006909059GF108991081051008001999999MA1103391999999MD1310041+9999MW1021REMSYN00588623MET006NOSIG?EQDQ01+000000PRSWM2
0068039620999991981010703304+52683-008917FM-15+0014EINN V0202601N00101006301CN0112001N1+00701+00701999999ADDGA1051+006309059MA1103391999999REMMET006NOSIG?EQDQ01+000000PRSWM2
0133039620999991981010704004+52683-008917SY-MT+0014EINN V0202301N00151006601CN0112001N1+00701+00601103511ADDAY121999GA1071+006609059GF107991071051008001999999MA1103491999999MD1210071+9999MW1011REMSYN00587622MET006NOSIG?EQDQ01+000000PRSWM2
0068039620999991981010704304+52683-008917FM-15+0014EINN V0202201N00101006601CN0112001N1+00701+00701999999ADDGA1071+006609059MA1103491999999REMMET006NOSIG?EQDQ01+000000PRSWM2
0133039620999991981010705004+52683-008917SY-MT+0014EINN V0202201N00101006601CN0112001N1+00701+00701103521ADDAY121999GA1071+006609059GF107991071051008001999999MA1103491999999MD1210051+9999MW1031REMSYN00587622MET006NOSIG?EQDQ01+000000PRSWM2
0068039620999991981010705304+52683-008917FM-15+0014EINN V0202501N00101006601CN0112001N1+00701+00701999999ADDGA1071+006609059MA1103491999999REMMET006NOSIG?EQDQ01+000000PRSWM2
0204039620999991981010706004+52683-008917SY-MT+0014EINN V0202301N00101006601CN0112001N1+00801+00701103511ADDAA199999929AJ100009199999999AY121999GA1071+006609059GF107991071051008001999999IA1089IA2999+00309KA1999N+00701MA1103491999999MD1110041+9999MW1021REMSYN01720310 79707 87622MET006NOSIG?EQDQ01+000000PRSWM2
0084039620999991981010706304+52683-008917FM-15+0014EINN V0202401N00101005101CN0112001N1+00801+00701999999ADDGA1051+005109079GA2071+006609059MA1103491999999REMMET006NOSIG?EQDQ01+000000PRSWM2
0133039620999991981010707004+52683-008917SY-MT+0014EINN V0202401N00151005401CN0112001N1+00801+00701103531ADDAY121999GA1081+005409079GF108991081061004501999999MA1103491999999MD1310031+9999MW1031REMSYN00588718MET006NOSIG?EQDQ01+000000PRSWM2
0087039620999991981010707304+52683-008917FM-15+0014EINN V0202401N00151005401CN0112001N1+00701+00701999999ADDGA1081+005409079MA1103491999999REMMET025TEMPO 8000 3ST005 8ST012?EQDQ01+000000PRSWM2
0186039620999991981010708004+52683-008917SY-MT+0014EINN V0201901N00101003901CN0112001N1+00801+00701103561ADDAY121999GA1061+003909079GA2081+005409079GF108991081061004501999999MA1103491999999MD1310051+9999MW1021REMSYN01186713 88718MET037TEMPO 8000       ?     3ST005 8ST012?EQDQ01+000000PRSWM2
0105039620999991981010708304+52683-008917FM-15+0014EINN V0201901N00101003901CN0112001N1+00801+00701999999ADDGA1011+001509079GA2061+003909079GA3071+004809079MA1103491999999REMMET011TEMPO 8000?EQDQ01+000000PRSWM2
0169039620999991981010709004+52683-008917SY-MT+0014EINN V0201901N00101003601CN0112001N1+00701+00701103371ADDAY121999GA1061+003609079GA2081+004809079GA3081+004809079GF108991081061002501999999MA1103591999999MD1210101+9999MW1101REMSYN02381706 86712 88716 97366MET011TEMPOI8000?
0116039620999991981010709304+52683-008917FM-15+0014EINN V0201901N00101003601CN0080001N1+00801+00701999999ADDGA1011+001809079GA2031+002709079GA3071+003609079MA1103591999999MW1501REMMET035VIS 9999         ?     TO SW NOSIG?
0194039620999991981010710004+52683-008917SY-MT+0014EINN V0201901N00101003601CN0112001N1+00801+00701103661ADDAY151999GA1011+001809079GA2031+002709079GA3071+003609079GF108991081061002501999999MA1103591999999MD1210131+9999MW1201REMSYN01781706 83709 87712MET042GRADU 3ST        ?010        ?     8SC020?
0071039620999991981010710304+52683-008917FM-15+0014EINN V0201901N00151006001CN0112001N1+00801+00701999999ADDGA1031+002709079GA2061+006009059MA1103591999999MW1201REMMET006NOSIG?
0136039620999991981010711004+52683-008917SY-MT+0014EINN V0201901N00101002701CN0080001N1+00901+00701103721ADDAY121999GA1051+002709079GA2081+006009059GF108991081061002501999999MA1103691999999MD1210161+9999MW1101REMSYN01185709 88620MET006NOSIG?
0123039620999991981010711304+52683-008917FM-15+0014EINN V0209991C00001001201CN0060001N1+00901+00801999999ADDGA1021+000609079GA2051+001209079GA3061+002709079MA1103691999999MW1501REMMET042GRADU 3ST01      ?0          ?     8SC020?
0167039620999991981010712004+52683-008917FM-12+0014EINN V0201901N00101001501CN0080001N9+00901+00801103701ADDAA106999929AY151999GA1021+000909079GA2051+001509079GA3071+002709079GF108991081061001501999999MD1010091+9999MW1501REMSYN023797// 82703 85705 87709EQDQ01  99993PRCP99
0123039620999991981010712074+52683-008917FM-15+0014EINN V0201901N00101001501CN0080001N1+00901+00801999999ADDGA1021+000909079GA2051+001509079GA3071+002709079MA1103591999999MW1501REMMET042GRADU 3ST01      ?0          ?     8SC020?
0145039620999991981010712304+52683-008917FM-15+0014EINN V0201801N00101003901CN0080001N1+00901+00901999999ADDGA1011+001209079GA2041+001809079GA3051+003909079MA1103591999999MW1201REMMET064VIS 9999         ?TO         ?     S AND SW GRADU 3ST010 8SC020?
0127039620999991981010713004+52683-008917FM-12+0014EINN V0201901N00101006001CN0080001N9+01001+00901103661ADDAY151999GA1041+001809079GA2061+006009059GF108991081061002501999999MD1010001+9999MW1501REMSYN02984706 86712 86620 97365 97465
0167039620999991981010714004+52683-008917SY-MT+0014EINN V0202401N00151002401CN0112001N1+01001+00901103631ADDAY151999GA1051+002409079GA2071+006009059GF108991081061002501999999MA1103591999999MD1710091+9999MW1201REMSYN01185708 87620MET037TEMPO 5000       ?     4ST004 8ST008?
0138039620999991981010714304+52683-008917FM-15+0014EINN V0202401N00301002401CN0050001N1+01001+00901999999ADDGA1031+000909079GA2061+002409079GA3071+006009059MA1103591999999MW1501REMMET057VIS 9999         ?     TO SW SE GRADU 9999 3ST010 8SC020?
0188039620999991981010715004+52683-008917SY-MT+0014EINN V0202501N00251006001CN0112001N1+01001+00901103591ADDAY151999GA1011+001809079GA2041+002709079GA3071+006009059GF108991081061002501999999MA1103491999999MD1710111+9999MW1201REMSYN01781706 84709 87620MET036TEMPO      ?     5000 4ST004 8ST008?
0102039620999991981010715304+52683-008917FM-15+0014EINN V0202601N00201006001CN0112001N1+01001+00901999999ADDGA1041+002709079GA2071+006009059MA1103491999999MW1201REMMET037TEMPO 5000       ?     4ST004 8ST008?
0114039620999991981010716004+52683-008917FM-15+0014EINN V0202401N00151006001CN0112001N1+01001+00901999999ADDGA1031+002709079GA2081+006009059MA1103591999999REMMET036TEMPO 5000 4ST004      ?     8ST008?EQDQ01+000000PRSWM2
0102039620999991981010716304+52683-008917FM-15+0014EINN V0202601N00201002401CN0112001N1+01001+00901999999ADDGA1061+002409079GA2081+006009059MA1103591999999MW1201REMMET037TEMPO 5000       ?     4ST004 8ST008?
0114039620999991981010717004+52683-008917FM-15+0014EINN V0202601N00251002401CN0112001N1+01001+00901999999ADDGA1071+002409079GA2071+006009059MA1103591999999REMMET036TEMPO 5000 4ST004      ?     8ST008?EQDQ01+000000PRSWM2
0125039620999991981010717304+52683-008917FM-15+0014EINN V0202301N00201001801CN0090001N1+00601+00501999999ADDGA1041+000909079GA2051+001809079GA3081+003609079MA1103591999999REMMET031TEMPO      ?     4ST008 8ST015?EQDQ01+000000PRSWM2
0254039620999991981010718004+52683-008917SY-MT+0014EINN V0202401N00151002101CN0090001N1+00901+00901103691ADDAA199999929AY151999GA1031+000909079GA2051+002109079GA3081+003309079GF108991081061001501999999KA1999M+99999MA1103591999999MD1210101+9999MW1021REMSYN02979707 83703 85707 88711 94000MET031TEMPO      ?     3ST007 8ST015?EQDQ01+000000PRSWM2Q02 +00702ATMX  
0114039620999991981010718304+52683-008917FM-15+0014EINN V0202101N00201001201CN0090001N1+00901+00901999999ADDGA1021+000609079GA2051+001209079GA3081+002109079MA1103591999999REMMET020GRADU 5ST007 8ST015?EQDQ01+000000PRSWM2
0200039620999991981010719004+52683-008917SY-MT+0014EINN V0202301N00151001201CN0009001N1+00901+00801103701ADDAY121999GA1041+000609079GA2061+001209079GF108991081061000751999999MA1103591999999MD1210081+9999MW1461REMSYN03584702 86704 97156 97356 97456 90419MET0466000 NE SW       ?     NW GRADU 5ST007 8ST015?
0096039620999991981010719304+52683-008917FM-15+0014EINN V0202301N00151000601CN0005001N1+00901+00801999999ADDGA1081+000609079MA1103591999999MW1461REMMET0472000M TO SE SW NE      ?     TEMPO 4000 6ST007?
0126039620999991981010720004+52683-008917SY-MT+0014EINN V0202201N00101000301CN0006001N1+00901+00801103661ADDAY141999GA1081+000309079GF108991081061000751999999MA1103591999999MD1010021+9999MW1461REMSYN00588701MET018TEMPO 3000 6ST004?
0067039620999991981010720304+52683-008917FM-15+0014EINN V0202201N00101000301CN0004001N1+00901+00801999999ADDGA1081+000309079MA1103591999999MW1461REMMET018TEMPO 2000 6ST003?
0126039620999991981010721004+52683-008917SY-MT+0014EINN V0202101N00101000301CN0003001N1+00801+00801103651ADDAY141999GA1091+000309999GF109991091999999999999999MA1103591999999MD1810041+9999MW1471REMSYN00589/01MET018TEMPO 1200 7ST003?
0067039620999991981010721304+52683-008917FM-15+0014EINN V0202101N00101000301CN0003001N1+00901+00801999999ADDGA1091+000309999MA1103591999999MW1471REMMET018TEMPO 1200 6ST003?
0126039620999991981010722004+52683-008917SY-MT+0014EINN V0202101N00051000301CN0003001N1+00801+00801103631ADDAY141999GA1091+000309999GF109991091999999999999999MA1103591999999MD1710071+9999MW1451REMSYN00589/01MET018TEMPO 1200 6ST003?
0067039620999991981010722304+52683-008917FM-15+0014EINN V0201301N00101000301CN0002001N1+00801+00801999999ADDGA1091+000309999MA1103591999999MW1471REMMET018TEMPO 1200 6ST003?
0146039620999991981010723004+52683-008917SY-MT+0014EINN V0201201N00051000301CN0002001N1+00801+00801103611ADDAY141999GA1091+000309999GF109991091999999999999999MA1103591999999MD1710051+9999MW1471REMSYN01189/01 97358MET0328000 SW TEMPO 3000     ?6ST003 ?
0053039620999991981010723304+52683-008917FM-15+0014EINN V0201201N00101220001CN0020001N1+00801+00801999999ADDGA1031+000309079MW1101REMMET0198000 SW 1035 NOSIG?
0152039620999991981010800004+52683-008917SY-MT+0014EINN V0201201N00151220001CN0050001N1+00801+00801103571ADDAA106999929AY141999GF100991001001999999001001MA1103491999999MD1710081+9999MW1101MW2281REMSYN011797// 90548MET018GRADU 2000 5ST003?EQDQ01  99993PRCP99
0051039620999991981010800304+52683-008917FM-15+0014EINN V0201201N00101220001CN0080001N1+00801+00801999999ADDMA1103491999999MW1101REMMET018GRADU 8000 5ST003?
0126039620999991981010801004+52683-008917SY-MT+0014EINN V0201201N00101220001CN0080001N1+00701+00701103561ADDAY101999GA1011+000909079GF101991011061001501001001MA1103491999999MD1710081+9999MW1101REMSYN00581703MET018GRADU 2000 5ST003?
0055039620999991981010801304+52683-008917FM-15+0014EINN V0201801N00151220001CN0080001N1+00701+00701999999ADDGA1011+000909079MA1103491999999MW1101REMMET006NOSIG?
0128039620999991981010802004+52683-008917SY-MT+0014EINN V0201701N00101220001CN0080001N1+00701+00701999999ADDAY101999GA1011+000909079GF101991011061001501001001MA1103491999999MD1610061+9999MW1101REMSYN00581703MET020GRADU 3ST003 6ST012?
0069039620999991981010802304+52683-008917FM-15+0014EINN V0201901N00101220001CN0080001N1+00701+00701999999ADDGA1011+000909079MA1103491999999MW1101REMMET020GRADU 3ST003 6ST012?
0114039620999991981010803004+52683-008917SY-MT+0014EINN V0201901N00101220001CN0080001N1+00701+00701103541ADDAY101999GA1011+000909079GF101991011061001501001001MA1103491999999MD1710041+9999MW1101REMSYN00581703MET006NOSIG?
0073039620999991981010803304+52683-008917FM-15+0014EINN V0201701N00101006001CN0112001N1+00701+00701999999ADDGA1061+006009059MA1103491999999REMMET011GRADU 8000?EQDQ01+000000PRSWM2
0133039620999991981010804004+52683-008917SY-MT+0014EINN V0201301N00151220001CN0112001N1+00701+00701103491ADDAY111999GA1021+005409059GF102991021051004501001001MA1103391999999MD1810071+9999MW1031REMSYN00582618MET006NOSIG?EQDQ01+000000PRSWM2
0109039620999991981010804304+52683-008917FM-15+0014EINN V0201301N00151005701CN0112001N1+00701+00701999999ADDGA1021+003609079GA2071+005709059MA1103391999999REMMET031GRADU 8000 2ST0036ST012      ??EQDQ01+000000PRSWM2
0133039620999991981010805004+52683-008917SY-MT+0014EINN V0201401N00101220001CN0112001N1+00701+00701103401ADDAY111999GA1011+005709059GF101991011051004501001001MA1103291999999MD1810161+9999MW1011REMSYN00581619MET006NOSIG?EQDQ01+000000PRSWM2
0118039620999991981010805304+52683-008917FM-15+0014EINN V0201701N00201005401CN0112001N1+00801+00701999999ADDGA1021+003609079GA2031+005409079GA3071+009909059MA1103291999999MW1501REMMET037GRADU 8000       ?     2ST003 6ST012?
0238039620999991981010806004+52683-008917SY-MT+0014EINN V0201901N00251009001CN0090001N1+00801+00701103101ADDAA199999929AJ100009199999999AY151999GA1031+004509079GA2081+009009059GF108991081051004501999999IA1089IA2999+00309KA1999N+00701MA1103291999999MD1710191+9999MW1501REMSYN02320310 79707 83715 88630MET037TEMPO 8000       ?     3ST005 8ST012?
0147039620999991981010807004+52683-008917SY-MT+0014EINN V0201901N00461005401CN0112001N1+00901+00901103291ADDAY151999GA1021+002709079GA2071+005409079GF108991081061002501999999MA1103181999999MD1710191+9999MW1501REMSYN01783709 87713 88640MET011TEMPO 8000?
0071039620999991981010807304+52683-008917FM-15+0014EINN V0202101N00561005401CN0112001N1+01001+00901999999ADDGA1021+002709079GA2071+005409079MA1103181999999MW1501REMMET006NOSIG?
0141039620999991981010808004+52683-008917SY-MT+0014EINN V0202101N00511004501CN0112001N1+01001+00901103311ADDAY151999GA1021+002709079GA2071+004509079GF107991071061002501999999MA1103291999999MD1510081+9999MW1511REMSYN01182709 87715MET011TEMPO 8000?
0076039620999991981010808304+52683-008917FM-15+0014EINN V0202201N00511003901CN0112001N1+01001+00801999999ADDGA1021+002409079GA2071+003909079MA1103291999999MW1201REMMET011TEMPO 8000?
0164039620999991981010809004+52683-008917SY-MT+0014EINN V0202101N00561003901CN0112001N1+01001+00801103331ADDAY151999GA1021+002409079GA2061+003909079GA3061+006009059GF107991071061002501999999MA1103291999999MD1510081+9999MW1201REMSYN02382708 86713 86620 97282MET006NOSIG?
0087039620999991981010809304+52683-008917FM-15+0014EINN V0202101N00611003901CN0112001N1+01001+00801999999ADDGA1021+002409079GA2041+003909079GA3051+009009059MA1103291999999MW1201REMMET006NOSIG?
0201039620999991981010810004+52683-008917SY-MT+0014EINN V0202101N00461004501CN0112001N1+01001+00901103341ADDAY151999GA1021+002709079GA2051+004509079GA3061+007509059GF107991071061002501999999MA1103291999999MD1110051+9999MW1501REMSYN0298)709 85715 86625 97284 97384MET037TEMPO 8000       ?     3ST005 8ST012?
0130039620999991981010810304+52683-008917FM-15+0014EINN V0202101N00561005101CN0112001N1+01001+00801999999ADDGA1021+003009079GA2051+005109079GA3061+009009059MA1103291999999MW1201REMMET049TEMPO 800        ?0          ?     3ST005 8ST012?
0158039620999991981010811004+52683-008917SY-MT+0014EINN V0202101N00661004201CN0112001N1+01001+00801103381ADDAY151999GA1011+003009079GA2051+004209079GA3051+012009059GF107991071061004501999999MA1103291999999MD1210071+9999MW1201REMSYN01781710 85714 85640MET006NOSIG?
0085039620999991981010811304+52683-008917FM-15+0014EINN V0202101N00661220001CN0112001N1+01001+00801999999ADDGA1011+003609079GA2041+012009059MA1103291999999REMMET007NO SIG?EQDQ01+000000PRSWM2
0206039620999991981010812004+52683-008917SY-MT+0014EINN V0202201N00771005401CN0112001N1+01001+00801103321ADDAA106000091AA299000191AY151999GA1011+003609079GA2051+005409079GA3051+012009059GF107991071061004501999999MA1103291999999MD1810011+9999MW1021REMSYN023791// 81712 85718 85640MET007NO SIG?EQDQ01+000000PRSWM2
0101039620999991981010812304+52683-008917FM-15+0014EINN V0202301N00561005401CN0112001N1+01001+00801999999ADDGA1011+003609079GA2051+005409079GA3051+012009059MA1103181999999REMMET007NO SIG?EQDQ01+000000PRSWM2
0178039620999991981010813004+52683-008917SY-MT+0014EINN V0202401N00721007501CN0112001N1+01001+00801103231ADDAY121999GA1011+003609079GA2031+005409079GA3051+007509059GF107991071051004501999999MA1103181999999MD1810111+9999MW1021REMSYN01781712 83718 85625MET007NO SIG?EQDQ01+000000PRSWM2
0085039620999991981010813304+52683-008917FM-15+0014EINN V0202201N00511007501CN0112001N1+01001+00701999999ADDGA1041+004509079GA2051+007509059MA1103181999999REMMET007NO SIG?EQDQ01+000000PRSWM2
0155039620999991981010814004+52683-008917SY-MT+0014EINN V0202001N00461007501CN0112001N1+01001+00701103191ADDAY121999GA1031+004509079GA2071+007509059GF107991071051004501999999MA1103121999999MD1710191+9999MW1021REMSYN01183715 87625MET006NOSIG?EQDQ01+000000PRSWM2
0109039620999991981010815004+52683-008917FM-12+0014EINN V0202401N00621007501CN0400001N9+01001+00701103171ADDAY121999GA1031+004509079GA2071+007509059GF107991071051004501999999MD1710151+9999MW1021REMSYN01183715 87625
0084039620999991981010815304+52683-008917FM-15+0014EINN V0202101N00461007501CN0112001N1+00901+00601999999ADDGA1021+004509079GA2071+007509059MA1103121999999REMMET006NOSIG?EQDQ01+000000PRSWM2
0155039620999991981010816004+52683-008917SY-MT+0014EINN V0202301N00721007501CN0112001N1+00901+00601103141ADDAY121999GA1021+004509079GA2071+007509059GF107991071051004501999999MA1103121999999MD1710091+9999MW1021REMSYN01182715 87625MET006NOSIG?EQDQ01+000000PRSWM2
0084039620999991981010816304+52683-008917FM-15+0014EINN V0202201N00511007501CN0112001N1+00901+00601999999ADDGA1021+004509079GA2071+007509059MA1103121999999REMMET006NOSIG?EQDQ01+000000PRSWM2
0155039620999991981010817004+52683-008917SY-MT+0014EINN V0202101N00511009001CN0300001N1+00901+00601103111ADDAY121999GA1021+004509079GA2071+009009059GF107991071051004501999999MA1103121999999MD1710081+9999MW1021REMSYN01182715 87630MET006NOSIG?EQDQ01+000000PRSWM2
0084039620999991981010817304+52683-008917FM-15+0014EINN V0202001N00511008401CN0112001N1+00901+00601999999ADDGA1031+003909079GA2071+008409059MA1103011999999REMMET006NOSIG?EQDQ01+000000PRSWM2
0191039620999991981010818004+52683-008917SY-MT+0014EINN V0202101N00511010501CN0112001N1+00901+00601103061ADDAA199000191AY121999GA1031+006009059GA2071+010509059GF107991071051008001999999KA1999M+01001MA1103011999999MD1810111+9999MW1021REMSYN02379110 83620 87635 94002MET006NOSIG?EQDQ01+000000PRSWM2
0084039620999991981010818304+52683-008917FM-15+0014EINN V0202201N00511006601CN0112001N1+00901+00601999999ADDGA1051+006609059GA2071+010509059MA1103011999999REMMET006NOSIG?EQDQ01+000000PRSWM2
0071039620999991981010819004+52683-008917FM-15+0014EINN V0202301N00661010501CN0112001N1+00901+00701999999ADDGA1031+006609079GA2071+010509059MA1103011999999MW1211REMMET006NOSIG?
0068039620999991981010819304+52683-008917FM-15+0014EINN V0202201N00461220001CN0112001N1+00901+00601999999ADDGA1031+006609059MA1102911999999REMMET006NOSIG?EQDQ01+000000PRSWM2
0133039620999991981010820004+52683-008917SY-MT+0014EINN V0202301N00561010501CN0112001N1+00901+00601999999ADDAY161999GA1081+010509059GF108991081051012501999999MA1102911999999MD1710121+9999MW1601REMSYN00588635MET006NOSIG?EQDQ01+102003APOSLP
0055039620999991981010820304+52683-008917FM-15+0014EINN V0202101N00611010501CN0112001N1+00901+00601999999ADDGA1061+010509059MA1102911999999MW1211REMMET006NOSIG?
0114039620999991981010821004+52683-008917SY-MT+0014EINN V0202101N00561010501CN0112001N1+00901+00701102941ADDAY161999GA1071+010509059GF107991071051012501999999MA1102911999999MD1810121+9999MW1211REMSYN00587635MET006NOSIG?
0068039620999991981010821304+52683-008917FM-15+0014EINN V0201901N00411220001CN0112001N1+00801+00601999999ADDGA1041+010809059MA1102911999999REMMET006NOSIG?EQDQ01+000000PRSWM2
0133039620999991981010822004+52683-008917SY-MT+0014EINN V0201701N00251012001CN0112001N1+00801+00701102921ADDAY121999GA1061+012009059GF106991061051012501999999MA1102911999999MD1710111+9999MW1011REMSYN00586640MET006NOSIG?EQDQ01+000000PRSWM2
0068039620999991981010822304+52683-008917FM-15+0014EINN V0202001N00301012001CN0112001N1+00901+00701999999ADDGA1061+012009059MA1102811999999REMMET006NOSIG?EQDQ01+000000PRSWM2
0114039620999991981010823004+52683-008917SY-MT+0014EINN V0202201N00201005701CN0112001N1+00901+00701102901ADDAY151999GA1081+005709079GF108991081061004501999999MA1102811999999MD1610091+9999MW1501REMSYN00588719MET006NOSIG?
0055039620999991981010823304+52683-008917FM-15+0014EINN V0202401N00461005701CN0112001N1+00901+00701999999ADDGA1081+005709079MA1102811999999MW1201REMMET006NOSIG?
0123039620999991981010900004+52683-008917FM-12+0014EINN V0202401N00621005701CN0300001N9+00801+00701102851ADDAA106999929AY151999GA1081+005709079GF108991081061004501999999MD1710091+9999MW1201REMSYN011797// 88719EQDQ01  99993PRCP99
0084039620999991981010900304+52683-008917FM-15+0014EINN V0202301N00511012001CN0112001N1+00801+00701999999ADDGA1021+005709079GA2071+012009059MA1102811999999REMMET006NOSIG?EQDQ01+000000PRSWM2
0169039620999991981010901004+52683-008917SY-MT+0014EINN V0202301N00571012001CN0300001N1+00901+00801102801ADDAY121999GA1021+005709079GA2071+012009059GF107991071051004501999999MA1102711999999MD1810121+9999MW1011REMSYN01182719 87640MET020GRADU 4ST010 8ST019?EQDQ01+000000PRSWM2
0098039620999991981010901304+52683-008917FM-15+0014EINN V0202301N00561012001CN0112001N1+00901+00701999999ADDGA1011+005709079GA2071+012009059MA1102711999999REMMET020GRADU 4ST010 8ST019?EQDQ01+000000PRSWM2
0147039620999991981010902004+52683-008917SY-MT+0014EINN V0202401N00411012001CN0112001N1+00901+00701102751ADDAY121999GA1081+012009059GF108991081051012501999999MA1102711999999MD1710151+9999MW1031REMSYN00588640MET020GRADU 4ST010 8ST019?EQDQ01+000000PRSWM2
0082039620999991981010902304+52683-008917FM-15+0014EINN V0202401N00561013501CN0112001N1+00901+00601999999ADDGA1081+013509059MA1102611999999REMMET020GRADU 4ST010 8ST019?EQDQ01+000000PRSWM2
0147039620999991981010903004+52683-008917SY-MT+0014EINN V0202401N00561013501CN0112001N1+00901+00701102691ADDAY121999GA1081+013509059GF108991081051012501999999MA1102611999999MD1710161+9999MW1021REMSYN00588645MET020GRADU 5ST008 8SC020?EQDQ01+000000PRSWM2
0101039620999991981010903304+52683-008917FM-15+0014EINN V0202401N00561004501CN0112001N1+00901+00701999999ADDGA1051+004509079GA2081+008409059MA1102611999999MW1581REMMET036TEMPO 7000 5ST008      ?     8ST015?
0188039620999991981010904004+52683-008917SY-MT+0014EINN V0202401N00611003601CN0060001N1+00901+00701102681ADDAY161999GA1021+002409079GA2051+003609079GA3081+004509079GF108991081061002501999999MA1102611999999MD1610121+9999MW1581REMSYN01782708 85712 88715MET036TEMPO 5ST00      ?8          ?     ?
0092039620999991981010904304+52683-008917FM-15+0014EINN V0203301N00411003601CN0030001N1+00901+00701999999ADDGA1021+002409079GA2051+003609079GA3081+004509079MA1102711999999MW1631REMMET011GRADU 8000?
0154039620999991981010905004+52683-008917SY-MT+0014EINN V0203301N00411008401CN0080001N1+00801+00701102721ADDAY161999GA1031+004509079GA2081+008409059GF108991081051004501999999MA1102711999999MD1510031+9999MW1611REMSYN02983715 88628 91324 91333 90004MET006NOSIG?
0071039620999991981010905304+52683-008917FM-15+0014EINN V0203301N00461009901CN0080001N1+00801+00601999999ADDGA1031+004509079GA2081+009909059MA1102711999999MW1611REMMET006NOSIG?
0207039620999991981010906004+52683-008917SY-MT+0014EINN V0203301N00411007801CN0080001N1+00701+00601102801ADDAA199003091AJ100009199999999AY161999GA1021+004509079GA2081+007809059GF108991081051004501999999IA1089IA2999+00509KA1999N+00701MA1102711999999MD1310111+9999MW1611REMSYN02320510 70307 82715 88626MET006NOSIG?
0087039620999991981010906304+52683-008917FM-15+0014EINN V0203001N00251012001CN0112001N1+00701+00501999999ADDGA1011+004509079GA2041+007809059GA3081+012009059MA1102711999999MW1211REMMET006NOSIG?
0136039620999991981010907004+52683-008917SY-MT+0014EINN V0202901N00361007801CN0112001N1+00701+00501102811ADDAY161999GA1011+004509079GA2081+007809059GF108991081051004501999999MA1102811999999MD1110121+9999MW1501REMSYN01181715 88626MET006NOSIG?
0071039620999991981010907304+52683-008917FM-15+0014EINN V0203001N00461013501CN0112001N1+00701+00501999999ADDGA1031+007809059GA2081+013509059MA1102811999999MW1211REMMET006NOSIG?
0155039620999991981010908004+52683-008917SY-MT+0014EINN V0203101N00361018001CN0112001N1+00701+00401102851ADDAY151999GA1031+013509059GA2041+018009059GF106991061051012501999001MA1102811999999MD1210121+9999MW1201REMSYN01183645 84656MET006NOSIG?EQDQ01    003SCOMCG
0100039620999991981010908304+52683-008917FM-15+0014EINN V0203101N00301075001CN0112001N1+00601+00301999999ADDGA1011+013509059GA2041+024009039GA3051+075009029MA1102811999999REMMET006NOSIG?EQDQ01+000000PRSWM2
0177039620999991981010909004+52683-008917SY-MT+0014EINN V0203001N00301075001CN0112001N1+00601+00401102911ADDAY161999GA1021+007809059GA2031+024009039GA3051+075009029GF107991031051008001031081MA1102911999999MD1210101+9999MW1151REMSYN01782626 83358 85275MET006NOSIG?EQDQ01+000000PRSWM2
0084039620999991981010909304+52683-008917FM-15+0014EINN V0203001N00251013501CN0112001N1+00601+00401999999ADDGA1011+007809059GA2051+013509059MA1102911999999REMMET006NOSIG?EQDQ01+000000PRSWM2
0156039620999991981010910004+52683-008917SY-MT+0014EINN V0202801N00251013501CN0112001N1+00601+00401102951ADDAY121999GA1051+013509059GA2051+024009049GF107991051051012501071999MA1102911999999MD1210141+9999MW1021REMSYN01185645 85458MET007NO SIG?EQDQ01+000000PRSWM2
0059039620999991981010910304+52683-008917FM-15+0014EINN V0202801N00361999991CY0099001N1+00601+00301999999ADDMA1102911999999REMMET013CAVOK NO SIG?EQDQ01+000000PRSWM2
0085039620999991981010911004+52683-008917FM-15+0014EINN V0202801N00361220001CN0112001N1+00601+00201999999ADDGA1011+007509089GA2031+015009059MA1102911999999REMMET007NO SIG?EQDQ01+000000PRSWM2
0085039620999991981010911304+52683-008917FM-15+0014EINN V0203001N00511220001CN0112001N1+00701+00301999999ADDGA1011+007509089GA2031+015009059MA1102911999999REMMET007NO SIG?EQDQ01+000000PRSWM2
0184039620999991981010912004+52683-008917SY-MT+0014EINN V0203001N01021075001CN0112001N1+00701+00401102951ADDAA106999999AA299000291AY161999GA1031+006009099GA2031+075009009GF105991031031008001001021MA1102911999999MD1110041+9999MW1801REMSYN017792// 83920 83075MET007NO SIG?EQDQ01  00002PRCP06
0072039620999991981010912304+52683-008917FM-15+0014EINN V0203101N00411220001CN0112001N1+00601+00201999999ADDGA1011+007509089GA2031+015009059MA1102911999999MW1251REMMET007NO SIG?
0156039620999991981010913004+52683-008917SY-MT+0014EINN V0203201N00561220001CN0112001N1+00701+00201102931ADDAY181999GA1011+007509089GA2031+015009059GF103991031081008001999021MA1102911999999MD1810021+9999MW1251REMSYN01181825 83650MET007NO SIG?EQDQ01    003SCOMCG
0069039620999991981010913304+52683-008917FM-15+0014EINN V0203001N00511220001CN0112001N1+00701+00201999999ADDGA1011+007509089MA1102911999999REMMET007NO SIG?EQDQ01+000000PRSWM2
0134039620999991981010914004+52683-008917SY-MT+0014EINN V0203001N00511220001CN0112001N1+00701+00201102891ADDAY111999GA1011+006009099GF102991021091008001001001MA1102811999999MD1810061+9999MW1011REMSYN00581920MET007NO SIG?EQDQ01+000000PRSWM2
0072039620999991981010914304+52683-008917FM-15+0014EINN V0203001N00661006001CN0112001N1+00701+00201999999ADDGA1041+006009089GA2011+006009099MA1102811999999MW1251REMMET007NO SIG?
0137039620999991981010915004+52683-008917SY-MT+0014EINN V0203101N00361220001CN0112001N1+00701+00201102881ADDAY181999GA1031+006009089GA2011+006009099GF103991031031008001001001MA1102811999999MD1610071+9999MW1251REMSYN01183820 81920MET007NO SIG?
0080039620999991981010915304+52683-008917FM-15+0014EINN V0203101N01021220001CN0112001N1+00701+00101999999ADDGA1011+004509079GA2041+006009099MA1102811999999MW1801OC101541REMMET007NO SIG?
0132039620999991981010916004+52683-008917SY-MT+0014EINN V0203001N00461220001CN0112001N1+00601+00201102901ADDAY181999GA1021+006009099GF103991031031008001001001MA1102811999999MD1510031+9999MW1251OA199901531REMSYN01182920 91130MET007NO SIG?
0056039620999991981010916304+52683-008917FM-15+0014EINN V0202901N00251220001CN0112001N1+00501+00201999999ADDGA1021+006009099MA1102811999999MW1251REMMET007NO SIG?
0134039620999991981010917004+52683-008917SY-MT+0014EINN V0203001N00511220001CN0112001N1+00501+00201102901ADDAY101999GA1021+006009089GF103991031081008001001001MA1102811999999MD1310011+9999MW1021REMSYN00582820MET007NO SIG?EQDQ01+000000PRSWM2
0087039620999991981010917304+52683-008917FM-15+0014EINN V0203101N00661015001CN0112001N1+00501+00201999999ADDGA1031+006009089GA2011+006009099GA3041+015009059MA1102911999999MW1251REMMET006NOSIG?
0191039620999991981010918004+52683-008917SY-MT+0014EINN V0203101N00511220001CN0112001N1+00501+00201102931ADDAA199000291AY181999GA1011+006009099GA2031+015009059GF103991031031008001999001KA1999M+00801MA1102911999999MD1210051+9999MW1251REMSYN02379208 81920 83650 94028MET006NOSIG?EQDQ01    003SCOMCG
0087039620999991981010918304+52683-008917FM-15+0014EINN V0203301N00411006001CN0112001N1+00501+00201999999ADDGA1051+006009089GA2021+006009099GA3031+015009059MA1102911999999MW1801REMMET006NOSIG?
0158039620999991981010919004+52683-008917SY-MT+0014EINN V0203101N00411015001CN0112001N1+00501+00201102951ADDAY181999GA1011+006009099GA2031+010509059GA3051+015009059GF106991061031008001999999MA1102911999999MD1310051+9999MW1251REMSYN01781920 83635 85650MET006NOSIG?
0071039620999991981010919304+52683-008917FM-15+0014EINN V0203101N00301015001CN0112001N1+00401+00201999999ADDGA1021+006609089GA2051+015009059MA1102911999999MW1251REMMET006NOSIG?
0177039620999991981010920004+52683-008917SY-MT+0014EINN V0203301N00361009901CN0112001N1+00401+00201102991ADDAY121999GA1021+006609089GA2041+009909059GA3051+015009059GF107991071081008001999999MA1102911999999MD1210091+9999MW1031REMSYN01782822 84633 85650MET006NOSIG?EQDQ01+000000PRSWM2
0055039620999991981010920304+52683-008917FM-15+0014EINN V0203101N00301220001CN0112001N1+00401+00201999999ADDGA1011+006609089MA1103011999999MW1251REMMET006NOSIG?
0131039620999991981010921004+52683-008917SY-MT+0014EINN V0203201N00411220001CN0112001N1+00301+00101103021ADDAY181999GA1011+006609089GF101991011081008001001001MA1103011999999MD1210091+9999MW1251OA199901231REMSYN01181822 91124MET006NOSIG?
0084039620999991981010921304+52683-008917FM-15+0014EINN V0203401N00511010501CN0112001N1+00301+00101999999ADDGA1041+006009089GA2051+010509059MA1103011999999REMMET006NOSIG?EQDQ01+000000PRSWM2
0133039620999991981010922004+52683-008917SY-MT+0014EINN V0203401N00301220001CN0112001N1+00301+00101103081ADDAY111999GA1021+006009089GF103991031081008001001001MA1103011999999MD1210131+9999MW1031REMSYN00582820MET006NOSIG?EQDQ01+000000PRSWM2
0068039620999991981010922304+52683-008917FM-15+0014EINN V0203301N00461220001CN0112001N1+00301+00201999999ADDGA1011+007509089MA1103011999999REMMET006NOSIG?EQDQ01+000000PRSWM2
0114039620999991981010923004+52683-008917SY-MT+0014EINN V0203401N00411220001CN0112001N1+00301+00101103141ADDAY181999GA1021+006009089GF103991031081008001001001MA1103121999999MD1210151+9999MW1251REMSYN00582820MET006NOSIG?
0068039620999991981010923304+52683-008917FM-15+0014EINN V0203201N00411220001CN0112001N1+00201+00001999999ADDGA1011+007509089MA1103121999999REMMET006NOSIG?EQDQ01+000000PRSWM2
0150039620999991981011000004+52683-008917SY-MT+0014EINN V0203301N00511220001CN0112001N1+00301+00001103181ADDAA106000391AY181999GA1011+006909089GF102991021081008001001001MA1103121999999MD1210161+9999MW1251REMSYN011793// 81823MET006NOSIG?EQDQ01  00033PRCP99
0052039620999991981011000304+52683-008917FM-15+0014EINN V0203401N00511220001CN0112001N1+00301+00001999999ADDMA1103181999999REMMET006NOSIG?EQDQ01+000000PRSWM2
0133039620999991981011001004+52683-008917SY-MT+0014EINN V0203301N00721220001CN0112001N1+00301+00001103261ADDAY101999GA1011+006009089GF101991011081008001001001MA1103181999999MD1210181+9999MW1011REMSYN00581820MET006NOSIG?EQDQ01+000000PRSWM2
0068039620999991981011001304+52683-008917FM-15+0014EINN V0203401N00661220001CN0112001N1+00301+00101999999ADDGA1011+006009089MA1103181999999REMMET006NOSIG?EQDQ01+000000PRSWM2
0133039620999991981011002004+52683-008917SY-MT+0014EINN V0203401N00461220001CN0112001N1+00201+00001103341ADDAY101999GA1011+006009059GF101991011051008001001001MA1103291999999MD1210201+9999MW1011REMSYN00581620MET006NOSIG?EQDQ01+000000PRSWM2
0068039620999991981011002304+52683-008917FM-15+0014EINN V0203301N00411220001CN0112001N1+00201+00001999999ADDGA1011+006009089MA1103291999999REMMET006NOSIG?EQDQ01+000000PRSWM2
0133039620999991981011003004+52683-008917SY-MT+0014EINN V0203301N00511220001CN0112001N1+00201+00001103431ADDAY101999GA1011+006009059GF101991011051008001001001MA1103391999999MD1210151+9999MW1021REMSYN00581620MET006NOSIG?EQDQ01+000000PRSWM2
0059039620999991981011003304+52683-008917FM-15+0014EINN V0203401N00611999991CY0099001N1+00301+00001999999ADDMA1103391999999REMMET013CAVOK NO SIG?EQDQ01+000000PRSWM2
0135039620999991981011004004+52683-008917SY-MT+0014EINN V0203401N00561220001CN0099001N1+00201+00001103541ADDAY101999GF100991001001999999001001MA1103491999999MD1210281+9999MW1011OA199901021REMSYN00591120MET013CAVOK NO SIG?EQDQ01+000000PRSWM2
0059039620999991981011004304+52683-008917FM-15+0014EINN V0203301N00611999991CY0099001N1+00201-00101999999ADDMA1103491999999REMMET013CAVOK NO SIG?EQDQ01+000000PRSWM2
0113039620999991981011005004+52683-008917SY-MT+0014EINN V0203501N00561220001CN0099001N1+00201-00101103611ADDAY101999GF100991001001999999001001MA1103591999999MD1210271+9999MW1021REMMET013CAVOK NO SIG?EQDQ01+000000PRSWM2
0059039620999991981011005304+52683-008917FM-15+0014EINN V0203401N00511999991CY0099001N1+00201-00101999999ADDMA1103591999999REMMET013CAVOK NO SIG?EQDQ01+000000PRSWM2
0268039620999991981011006004+52683-008917SY-MT+0014EINN V0203401N00461220001CN0099001N1+00201-00101103691ADDAA199000391AJ100009199999999AY101999GA1051+012009059GF199999999999999999001001IA1089IA2999-00109KA1999N+00101MA1103591999999MD1210261+9999MW1021REMSYN01125110 79301MET012CAVOK NOSIG?EQDQ01+000002SCOTCVQ02+000002SCOTLCQ03+000002SCOLCGQ04+000992SCOLCBQ05+000000PRSWM2
0068039620999991981011006304+52683-008917FM-15+0014EINN V0203301N00511012001CN0112001N1+00201-00101999999ADDGA1051+012009059MA1103691999999REMMET006NOSIG?EQDQ01+000000PRSWM2
0149039620999991981011007004+52683-008917SY-MT+0014EINN V0203301N00511220001CN0112001N1+00201-00101103781ADDAY111999GA1051+012009059GF199999021051012501001001MA1103691999999MD1210231+9999MW1031REMSYN00582640MET006NOSIG?EQDQ01+000022SCOTCVQ02+000000PRSWM2
0068039620999991981011007304+52683-008917FM-15+0014EINN V0203401N00511220001CN0112001N1+00201+00001999999ADDGA1021+012009059MA1103691999999REMMET006NOSIG?EQDQ01+000000PRSWM2
