0170039620999991989010100004+52700-008917SY-MT+0020EINN V0201301N00461220001CN0090001N1+00911+00791103481ADDAA106999929AG19000AY111061AY211061GA1021+015009059GF102991021051017501999001MA1103391999999MD1810011+9999MW1101REMSYN011333   82650MET011TEMPO 7000?EQDQ01    003SCOMCG
0067039620999991989010100304+52700-008917FM-15+0020EINN V0201401N00461220001CN0112001N1+00901+00801999999ADDAG11999GA1011+009609059MA1103391999999MW1101REMMET011TEMPO 7000?
0140039620999991989010101004+52700-008917SY-MT+0020EINN V0201401N00361220001CN0150001N1+00891+00791103481ADDAG11021AY101011AY201011GA1011+009009059GF102991021051012501001001MA1103391999999MD1610021+9999MW1101REMSYN011333   81630MET011TEMPO 7000?
0067039620999991989010101304+52700-008917FM-15+0020EINN V0201401N00411220001CN0112001N1+00901+00801999999ADDAG11999GA1031+007509059MA1103391999999MW1101REMMET011TEMPO 7000?
0140039620999991989010102004+52700-008917SY-MT+0020EINN V0201501N00411220001CN0150001N1+00941+00801103461ADDAG11021AY101021AY201021GA1021+007209059GF103991031051008001001001MA1103391999999MD1710041+9999MW1101REMSYN011333   82624MET011TEMPO 7000?
0083039620999991989010102304+52700-008917FM-15+0020EINN V0201401N00411008401CN0112001N1+01001+00801999999ADDAG12000GA1041+006909059GA2061+008409059MA1103391999999MW1101REMMET011TEMPO 7000?
0162039620999991989010103004+52700-008917SY-MT+0020EINN V0201501N00461008401CN0150001N1+00941+00801103441ADDAG11000AY111031AY211031GA1021+006909059GA2051+008409059GF106991061051008001001001MA1103391999999MD1810041+9999MW1101REMSYN017333   82623 85628MET011TEMPO 7000?
0083039620999991989010103304+52700-008917FM-15+0020EINN V0201501N00511008101CN0112001N1+01001+00801999999ADDAG12999GA1021+006909059GA2071+008109059MA1103391999999MW1101REMMET011TEMPO 7000?
0140039620999991989010104004+52700-008917SY-MT+0020EINN V0201401N00411008101CN0150001N1+00921+00781103441ADDAG12999AY121011AY221011GA1071+008109059GF107991071051008001999999MA1103391999999MD1610041+9999MW1101REMSYN011333   87627MET011TEMPO 7000?
0067039620999991989010104304+52700-008917FM-15+0020EINN V0201501N00461008101CN0112001N1+00901+00801999999ADDAG12999GA1071+008109059MA1103391999999MW1101REMMET011TEMPO 7000?
0139039620999991989010105004+52700-008917SY-MT+0020EINN V0201601N00511220001CN0150001N1+00881+00761103411ADDAG12999AY111021AY211021GA1031+008109059GF103991031051008001001001MA1103391999999MD1710051+9999MW1101REMSYN011333   83627MET010TEMPO7000?
0067039620999991989010105304+52700-008917FM-15+0020EINN V0201401N00311220001CN0112001N1+00801+00701999999ADDAG12000GA1031+008109059MA1103391999999MW1101REMMET011TEMPO 7000?
0208039620999991989010106004+52700-008917SY-MT+0020EINN V0201401N00261009901CN0150001N1+00851+00751103441ADDAA199999929AG10000AY111061AY211061GA1061+009909059GF106991061051012501999999GJ100189IA1099IA2999+00409KA1120N+00831MA1103391999999MD1410001+9999MW1101REMSYN029333   20083 31004 86633 94003MET011TEMPO 7000?
0066039620999991989010106304+52700-008917FM-15+0020EINN V0201401N00361009901CN0112001N1+00901+00801999999ADDAG12999GA1071+009909059MA1103391999999MW1101REMMET010TEMPO7000?
0140039620999991989010107004+52700-008917SY-MT+0020EINN V0201401N00361009601CN0150001N1+00881+00781103411ADDAG12999AY121011AY221011GA1061+009609059GF106991061051012501999999MA1103391999999MD1810031+9999MW1101REMSYN011333   86632MET011TEMPO 7000?
0067039620999991989010107304+52700-008917FM-15+0020EINN V0201501N00411220001CN0112001N1+00901+00701999999ADDAG12999GA1031+009609059MA1103391999999MW1101REMMET011TEMPO 7000?
0118039620999991989010108004+52700-008917SY-MT+0020EINN V0201501N00411220001CN0150001N1+00851+00751103411ADDAG12021GA1021+009609059GF103991021051012501001021MA1103391999999MD1410001+9999REMSYN011333   82632MET011TEMPO 7000?
0083039620999991989010108304+52700-008917FM-15+0020EINN V0201501N00411220001CN0090001N1+00801+00701999999ADDAG12000GA1021+010809059GA2031+060009009MA1103391999999MW1101REMMET011TEMPO 7000?
0161039620999991989010109004+52700-008917SY-MT+0020EINN V0201501N00411060001CN0060001N1+00811+00701103431ADDAG12000AY111031AY211031GA1021+010809059GA2031+060009009GF105991021051012501001031MA1103391999999MD1510011+9999MW1101REMSYN017333   82636 83070MET010GRADU9999?
0082039620999991989010109304+52700-008917FM-15+0020EINN V0201501N00361220001CN0060001N1+00801+00701999999ADDAG11999GA1011+010809059GA2011+060009009MA1103391999999MW1101REMMET010GRADU9999?
0162039620999991989010110004+52700-008917SY-MT+0020EINN V0201501N00411060001CN0070001N1+00831+00721103431ADDAG12999AY121011AY221011GA1011+030009039GA2071+060009009GF107991011001999999031021MA1103391999999MD1110021+9999MW1101REMSYN017333   81360 87070MET011GRADU 9999?
0083039620999991989010110304+52700-008917FM-15+0020EINN V0201401N00361060001CN0070001N1+00901+00701999999ADDAG12999GA1021+030009039GA2061+060009009MA1103391999999MW1101REMMET011GRADU 9999?
0162039620999991989010111004+52700-008917SY-MT+0020EINN V0201501N00361060001CN0080001N1+00941+00731103451ADDAG12999AY121021AY221021GA1041+030009039GA2061+060009009GF107991041001999999031021MA1103391999999MD1210041+9999MW1101REMSYN017333   84360 86070MET011GRADU 9999?
0065039620999991989010111304+52700-008917FM-15+0020EINN V0201701N00511999991CY0099001N1+01001+00701999999ADDAG12000MA1103391999999REMMET012CAVOK NOSIG?EQDQ01+000000PRSWM2
0149039620999991989010112004+52700-008917SY-MT+0020EINN V0201701N00571018001CN0200001N1+01011+00551103421ADDAA106999929AG10000GA1071+018009059GF107991071051017501999999MA1103391999999MD1810011+9999REMSYN011333   87656MET012CAVOK NOSIG?EQDQ01+000000PRSWM2
0065039620999991989010112304+52700-008917FM-15+0020EINN V0201801N00571999991CY0099001N1+01001+00501999999ADDAG12999MA1103391999999REMMET012CAVOK NOSIG?EQDQ01+000000PRSWM2
0154039620999991989010113004+52700-008917SY-MT+0020EINN V0201801N00621018001CN0200001N1+01001+00611103391ADDAG12999GA1011+004809079GA2081+018009059GF108991081051004501999999MA1103291999999MD1810041+9999REMSYN017333   81716 88656MET006NOSIG?EQDQ01+000000PRSWM2
0154039620999991989010114004+52700-008917SY-MT+0020EINN V0201701N00571018001CN0200001N1+01001+00641103311ADDAG12999GA1011+006009059GA2081+018009059GF108991081051008001999999MA1103291999999MD1810141+9999REMSYN017333   81620 88656MET006NOSIG?EQDQ01+000000PRSWM2
0154039620999991989010115004+52700-008917SY-MT+0020EINN V0201701N00571018001CN0200001N1+00991+00671103281ADDAG12000GA1011+004509079GA2081+018009059GF108991081051008001999999MA1103181999999MD1710141+9999REMSYN017333   81715 88656MET006NOSIG?EQDQ01+000000PRSWM2
0154039620999991989010116004+52700-008917SY-MT+0020EINN V0201701N00511018001CN0200001N1+00951+00631103281ADDAG12999GA1011+007509059GA2071+018009059GF107991071051008001999999MA1103181999999MD1610111+9999REMSYN017333   81625 87656MET006NOSIG?EQDQ01+000000PRSWM2
0091039620999991989010116304+52700-008917FM-15+0020EINN V0201801N00571018001CN0112001N1+00901+00601999999ADDAG12999GA1011+009009059GA2071+018009059MA1103181999999REMMET006NOSIG?EQDQ01+000000PRSWM2
0154039620999991989010117004+52700-008917SY-MT+0020EINN V0201701N00511018001CN0200001N1+00891+00581103291ADDAG12999GA1021+012009059GA2081+018009059GF108991081051012501999999MA1103181999999MD1510021+9999REMSYN017333   82640 88656MET006NOSIG?EQDQ01+000000PRSWM2
0091039620999991989010117304+52700-008917FM-15+0020EINN V0201601N00511018001CN0112001N1+00901+00601999999ADDAG12000GA1021+012009059GA2081+018009059MA1103181999999REMMET006NOSIG?EQDQ01+000000PRSWM2
0184039620999991989010118004+52700-008917SY-MT+0020EINN V0201701N00461018001CN0200001N1+00851+00361103271ADDAA199999929AG19000GA1021+012009059GA2081+018009059GF108991081051012501999999KA1120M+01021MA1103181999999MD1810011+9999REMSYN023333   10102 82640 88656MET006NOSIG?EQDQ01+000000PRSWM2
0138039620999991989010119004+52700-008917SY-MT+0020EINN V0201501N00571015001CN0200001N1+00811+00311103271ADDAG12999GA1081+015009059GF108991081051017501999999MA1103181999999MD1610011+9999REMSYN011333   88650MET012CAVOK NOSIG?EQDQ01+000000PRSWM2
0065039620999991989010119304+52700-008917FM-15+0020EINN V0201401N00461999991CY0099001N1+00801+00301999999ADDAG12999MA1103181999999REMMET012CAVOK NOSIG?EQDQ01+000000PRSWM2
0138039620999991989010120004+52700-008917SY-MT+0020EINN V0201401N00461015001CN0200001N1+00771+00291103211ADDAG12999GA1081+015009059GF108991081051017501999999MA1103181999999MD1810081+9999REMSYN011333   88650MET012CAVOK NOSIG?EQDQ01+000000PRSWM2
0065039620999991989010120304+52700-008917FM-15+0020EINN V0201701N00621999991CY0099001N1+00801+00301999999ADDAG12000MA1103181999999REMMET012CAVOK NOSIG?EQDQ01+000000PRSWM2
0138039620999991989010121004+52700-008917SY-MT+0020EINN V0201601N00621015001CN0200001N1+00781+00341103211ADDAG11000GA1081+015009059GF108991081051017501999999MA1103181999999MD1610061+9999REMSYN011333   88650MET012CAVOK NOSIG?EQDQ01+000000PRSWM2
0065039620999991989010121304+52700-008917FM-15+0020EINN V0201601N00671999991CY0099001N1+00801+00401999999ADDAG12999MA1103181999999REMMET012CAVOK NOSIG?EQDQ01+000000PRSWM2
0152039620999991989010122004+52700-008917SY-MT+0020EINN V0201501N00511015001CN0200001N1+00781+00361103211ADDAG11999GA1081+015009059GF108991081051017501999999GJ100009MA1103181999999MD1610061+9999REMSYN017333   88650 94000MET012CAVOK NOSIG?EQDQ01+000000PRSWM2
0065039620999991989010122304+52700-008917FM-15+0020EINN V0201401N00461999991CY0099001N1+00801+00401999999ADDAG12999MA1103181999999REMMET012CAVOK NOSIG?EQDQ01+000000PRSWM2
0138039620999991989010123004+52700-008917SY-MT+0020EINN V0200901N00311015001CN0200001N1+00771+00401103211ADDAG11999GA1081+015009059GF108991081051017501999999MA1103181999999MD1410001+9999REMSYN011333   88650MET012CAVOK NOSIG?EQDQ01+000000PRSWM2
0065039620999991989010123304+52700-008917FM-15+0020EINN V0201601N00461999991CY0099001N1+00801+00401999999ADDAG12000MA1103121999999REMMET012CAVOK NOSIG?EQDQ01+000000PRSWM2
0149039620999991989010200004+52700-008917SY-MT+0020EINN V0201401N00411015001CN0200001N1+00771+00501103181ADDAA106000091AG14000GA1081+015009059GF108991081051017501999999MA1103121999999MD1810031+9999REMSYN011333   88650MET012CAVOK NOSIG?EQDQ01+000000PRSWM2
0065039620999991989010200304+52700-008917FM-15+0020EINN V0201201N00311999991CY0099001N1+00801+00501999999ADDAG11999MA1103121999999REMMET012CAVOK NOSIG?EQDQ01+000000PRSWM2
0138039620999991989010201004+52700-008917SY-MT+0020EINN V0201501N00461015001CN0200001N1+00781+00491103151ADDAG11999GA1061+015009059GF106991061051017501999999MA1103121999999MD1810061+9999REMSYN011333   86650MET012CAVOK NOSIG?EQDQ01+000000PRSWM2
0065039620999991989010201304+52700-008917FM-15+0020EINN V0201101N00311999991CY0099001N1+00801+00501999999ADDAG11999MA1103121999999REMMET012CAVOK NOSIG?EQDQ01+000000PRSWM2
0138039620999991989010202004+52700-008917SY-MT+0020EINN V0201201N00511015001CN0200001N1+00761+00491103121ADDAG11999GA1071+015009059GF107991071051017501999999MA1103121999999MD1610091+9999REMSYN011333   87650MET012CAVOK NOSIG?EQDQ01+000000PRSWM2
0075039620999991989010202304+52700-008917FM-15+0020EINN V0201301N00361013201CN0112001N1+00801+00501999999ADDAG12000GA1071+013209059MA1103121999999REMMET006NOSIG?EQDQ01+000000PRSWM2
0132039620999991989010203004+52700-008917SY-MT+0020EINN V0201201N00461013201CN0200001N1+00741+00531103111ADDAG12000GA1071+013209059GF107991071051012501999999MA1103121999999MD1710081+9999REMSYN011333   87644MET006NOSIG?EQDQ01+000000PRSWM2
0065039620999991989010203304+52700-008917FM-15+0020EINN V0201301N00461999991CY0099001N1+00801+00501999999ADDAG12999MA1103011999999REMMET012CAVOK NOSIG?EQDQ01+000000PRSWM2
0144039620999991989010204004+52700-008917SY-MT+0020EINN V0201401N00461030001CN0200001N1+00781+00561103041ADDAG12057GA1021+015009059GF107991021051017501071999MA1103011999999MD1710111+9999REMSYN017333   82650 86359MET012CAVOK NOSIG?EQDQ01+000000PRSWM2
0065039620999991989010204304+52700-008917FM-15+0020EINN V0201401N00461999991CY0099001N1+00801+00601999999ADDAG12999MA1103011999999REMMET012CAVOK NOSIG?EQDQ01+000000PRSWM2
0154039620999991989010205004+52700-008917SY-MT+0020EINN V0201501N00461027001CN0200001N1+00821+00601103021ADDAG12999GA1011+009009059GA2071+027009039GF107991011051012501071999MA1103011999999MD1610101+9999REMSYN017333   81630 87359MET006NOSIG?EQDQ01+000000PRSWM2
0227039620999991989010206004+52700-008917SY-MT+0020EINN V0201601N00311003601CN0200001N1+00881+00671103041ADDAA199999929AG10000GA1061+003609079GA2061+015009059GF108991081061004501999999GJ100009IA1099IA2999+00509KA1120N+00721MA1103011999999MD1510061+9999REMSYN035333   20072 31005 86712 86650 94000MET011TEMPO 7000?EQDQ01+000000PRSWM2
0114039620999991989010206304+52700-008917FM-15+0020EINN V0201501N00361004801CN0112001N1+00901+00701999999ADDAG12999GA1041+003609079GA2051+004809079GA3071+015009059MA1103011999999REMMET013TEMPO 5ST012?EQDQ01+000000PRSWM2
0159039620999991989010207004+52700-008917SY-MT+0020EINN V0201501N00461003901CN0160001N1+00861+00671103041ADDAG12999GA1051+003909079GA2061+012009059GF108991081061004501999999MA1103011999999MD1510001+9999REMSYN017333   85713 86640MET011TEMPO 7000?EQDQ01+000000PRSWM2
0162039620999991989010208004+52700-008917SY-MT+0020EINN V0201301N00261003901CN0120001N1+00861+00671103071ADDAG12999AY121021AY221021GA1061+003909079GA2071+012009059GF108991081061004501999999MA1103011999999MD1210051+9999MW1101REMSYN017333   86713 87640MET011TEMPO 7000?
0130039620999991989010209004+52700-008917FM-12+0020EINN V0201201N00411012001CN0070001N9+00831+00651103101ADDAG12000AY121031AY221031GA1041+005109079GA2071+012009059GF108991081061004501999999MD1310061+9999MW1101REMSYN017333   84717 87640
0157039620999991989010210004+52700-008917SY-MT+0020EINN V0201201N00361015001CN0090001N1+00851+00661103101ADDAG12999AY121011AY221011GA1021+006009059GA2071+015009059GF107991071051008001999999MA1103121999999MD1110061+9999MW1101REMSYN017333   82620 87650MET006NOSIG?
0157039620999991989010211004+52700-008917SY-MT+0020EINN V0201301N00571015001CN0090001N1+00901+00591103101ADDAG12999AY121021AY221021GA1031+004809079GA2071+015009059GF107991071051004501999999MA1103121999999MD1110031+9999MW1101REMSYN017333   83716 87650MET006NOSIG?
0168039620999991989010212004+52700-008917SY-MT+0020EINN V0201501N00621018001CN0090001N1+00921+00571103011ADDAA106000091AG14000AY121061AY221061GA1031+005109079GA2071+018009059GF107991071051004501999999MA1103011999999MD1810091+9999MW1101REMSYN017333   83717 87656MET006NOSIG?
0157039620999991989010213004+52700-008917SY-MT+0020EINN V0201601N00671018001CN0090001N1+00901+00571102901ADDAG12011AY121011AY221011GA1011+005109079GA2061+018009059GF107991071051004501999999MA1102911999999MD1810201+9999MW1101REMSYN017333   81717 86656MET006NOSIG?
0135039620999991989010214004+52700-008917SY-MT+0020EINN V0201601N00871018001CN0090001N1+00901+00551102831ADDAG12999AY121021AY221021GA1071+018009059GF107991071051017501999999MA1102811999999MD1710271+9999MW1101REMSYN011333   87656MET006NOSIG?
0135039620999991989010215004+52700-008917SY-MT+0020EINN V0201501N00771015001CN0080001N1+00871+00511102791ADDAG12000AY121031AY221031GA1081+015009059GF108991081051017501999999MA1102711999999MD1710221+9999MW1101REMSYN011333   88650MET006NOSIG?
0157039620999991989010216004+52700-008917SY-MT+0020EINN V0201501N00571015001CN0080001N1+00851+00521102791ADDAG12011AY121011AY221011GA1031+010509059GA2081+015009059GF108991081051012501999999MA1102711999999MD1610111+9999MW1101REMSYN017333   83635 88650MET006NOSIG?
0157039620999991989010217004+52700-008917SY-MT+0020EINN V0201501N00621015001CN0080001N1+00831+00491102761ADDAG12999AY121021AY221021GA1031+010509059GA2081+015009059GF108991081051012501999999MA1102711999999MD1710071+9999MW1101REMSYN017333   83635 88650MET006NOSIG?
0187039620999991989010218004+52700-008917SY-MT+0020EINN V0201501N00571015001CN0120001N1+00811+00441102721ADDAA106000091AG14000AY121061AY221061GA1031+010509059GA2081+015009059GF108991081051012501999999KA1120M+00951MA1102711999999MD1810071+9999MW1101REMSYN023333   10095 83635 88650MET006NOSIG?
0078039620999991989010218304+52700-008917FM-15+0020EINN V0201401N00571015001CN0112001N1+00801+00401999999ADDAG12999GA1031+010509059GA2081+015009059MA1102711999999MW1101REMMET006NOSIG?
0157039620999991989010219004+52700-008917SY-MT+0020EINN V0201401N00621018001CN0120001N1+00801+00431102661ADDAG12999AY121011AY221011GA1031+012009059GA2081+018009059GF108991081051012501999999MA1102611999999MD1810131+9999MW1101REMSYN017333   83640 88656MET006NOSIG?
0078039620999991989010219304+52700-008917FM-15+0020EINN V0201501N00671018001CN0112001N1+00801+00501999999ADDAG12999GA1031+012009059GA2081+018009059MA1102611999999MW1101REMMET006NOSIG?
0157039620999991989010220004+52700-008917SY-MT+0020EINN V0201501N00571015001CN0120001N1+00791+00471102621ADDAG12999AY121021AY221021GA1031+008409059GA2081+015009059GF108991081051008001999999MA1102611999999MD1710141+9999MW1101REMSYN017333   83628 88650MET006NOSIG?
0119039620999991989010220304+52700-008917FM-15+0020EINN V0201501N00671009001CN0060001N1+00801+00501999999ADDAG12001GA1021+003609079GA2031+009009059GA3081+015009059MA1102511999999MW1501REMMET031TEMPO      ?     3ST010 6ST012?
0186039620999991989010221004+52700-008917SY-MT+0020EINN V0201501N00621006001CN0050001N1+00761+00561102561ADDAG12001AY161031AY251031GA1031+002109079GA2051+006009059GA3081+015009059GF108991081051002501999999MA1102511999999MD1710161+9999MW1581REMSYN023333   83707 85620 88650MET013TEMPO 7ST012?
0091039620999991989010221304+52700-008917FM-15+0020EINN V0201401N00771015001CN0112001N1+00801+00501999999ADDAG12999GA1031+004509079GA2081+015009059MA1102511999999MW1211REMMET019TEMPO 7ST012     ??
0183039620999991989010222004+52700-008917SY-MT+0020EINN V0201501N00721015001CN0150001N1+00761+00471102491ADDAG12999AY161011AY251011GA1041+006009059GA2081+015009059GF108991081051008001999999GJ100069MA1102401999999MD1710171+9999MW1211REMSYN023333   84620 88650 94001MET018TEMPO 7000 5ST012?
0103039620999991989010222304+52700-008917FM-15+0020EINN V0201601N00771015001CN0112001N1+00801+00501999999ADDAG12999GA1031+006009059GA2081+015009059MA1102401999999REMMET018TEMPO 7000 5ST012?EQDQ01+000000PRSWM2
0166039620999991989010223004+52700-008917SY-MT+0020EINN V0201501N00671015001CN0150001N1+00801+00531102431ADDAG11999GA1031+006009059GA2081+015009059GF108991081051008001999999MA1102401999999MD1710191+9999REMSYN017333   83620 88650MET018TEMPO 7000 5ST012?EQDQ01+000000PRSWM2
0103039620999991989010223304+52700-008917FM-15+0020EINN V0201501N00771013501CN0112001N1+00801+00501999999ADDAG12000GA1031+006009059GA2081+013509059MA1102301999999REMMET018TEMPO 7000 5ST012?EQDQ01+000000PRSWM2
0203039620999991989010300004+52700-008917SY-MT+0020EINN V0201501N00821220001CN0150001N1+00781+00461102341ADDAA106000191AG10001AY161061AY251061GA1011+006009059GA2031+015009059GF103991031051008001999001MA1102301999999MD1710221+9999MW1011REMSYN017333   81620 83650MET006NOSIG?EQDQ01+000000PRSWM2Q02    003SCOMCG
0075039620999991989010300304+52700-008917FM-15+0020EINN V0201501N00671220001CN0112001N1+00701+00501999999ADDAG11999GA1011+006009059MA1102201999999REMMET006NOSIG?EQDQ01+000000PRSWM2
0192039620999991989010301004+52700-008917SY-MT+0020EINN V0201501N00721075001CN0150001N1+00711+00461102211ADDAG11999GA1011+009009059GA2031+015009059GA3061+075009009GF107991031051012501999021MA1102201999999MD1710281+9999REMSYN023333   81630 83650 86075MET006NOSIG?EQDQ01+000000PRSWM2Q02    003SCOMCG
0192039620999991989010302004+52700-008917SY-MT+0020EINN V0201301N00511075001CN0150001N1+00741+00511102141ADDAG12999GA1011+009009059GA2041+015009059GA3061+075009009GF107991041051012501999021MA1102101999999MD1710291+9999REMSYN023333   81630 84650 86075MET006NOSIG?EQDQ01+000000PRSWM2Q02    003SCOMCG
0107039620999991989010302304+52700-008917FM-15+0020EINN V0201401N00461015001CN0112001N1+00801+00601999999ADDAG12000GA1011+009009059GA2051+015009059GA3061+075009009MA1102101999999REMMET006NOSIG?EQDQ01+000000PRSWM2
0176039620999991989010303004+52700-008917SY-MT+0020EINN V0201401N00671015001CN0150001N1+00831+00511102061ADDAG11000GA1011+009009059GA2051+015009059GA3051+030009039GF108991051051012501071999MA1102001999999MD1710281+9999REMSYN023333   81630 85640 85360MET006NOSIG?EQDQ01+000000PRSWM2
0107039620999991989010303304+52700-008917FM-15+0020EINN V0201501N00721012001CN0112001N1+00901+00501999999ADDAG12999GA1011+009009059GA2061+012009059GA3081+030009049MA1102001999999REMMET006NOSIG?EQDQ01+000000PRSWM2
0176039620999991989010304004+52700-008917SY-MT+0020EINN V0201401N00411012001CN0150001N1+00871+00541102001ADDAG12999GA1031+009009059GA2061+012009059GA3081+030009049GF108991061051012501071999MA1102001999999MD1610211+9999REMSYN023333   83630 86640 88460MET006NOSIG?EQDQ01+000000PRSWM2
0107039620999991989010304304+52700-008917FM-15+0020EINN V0201201N00311012001CN0112001N1+00901+00601999999ADDAG12999GA1031+009009059GA2061+012009059GA3081+030009049MA1101901999999REMMET006NOSIG?EQDQ01+000000PRSWM2
0176039620999991989010305004+52700-008917SY-MT+0020EINN V0201601N00671012001CN0150001N1+00921+00541101911ADDAG12999GA1031+009009059GA2071+012009059GA3081+030009049GF108991071051012501071999MA1101901999999MD1710231+9999REMSYN023333   83630 87640 88460MET006NOSIG?EQDQ01+000000PRSWM2
0222039620999991989010306004+52700-008917SY-MT+0020EINN V0201701N00931011401CN0150001N1+00941+00471101851ADDAA199000191AG10000GA1031+008409059GA2071+011409059GF107991071051008001999999GJ100069IA1099IA2999+00409KA1120N+00691MA1101801999999MD1710211+9999REMSYN035333   20069 31004 83628 87638 94001MET006NOSIG?EQDQ01+000000PRSWM2
0154039620999991989010307004+52700-008917SY-MT+0020EINN V0201601N00771007501CN0160001N1+00951+00561101801ADDAG12999GA1061+007509059GA2071+012009059GF108991081051008001999999MA1101801999999MD1710201+9999REMSYN017333   86625 87640MET006NOSIG?EQDQ01+000000PRSWM2
0098039620999991989010307304+52700-008917FM-15+0020EINN V0201601N00771009001CN0112001N1+01001+00601999999ADDAG12999GA1061+009009059GA2061+015009059MA1101691999999REMMET013GRADU 5ST015?EQDQ01+000000PRSWM2
0161039620999991989010308004+52700-008917SY-MT+0020EINN V0201601N00871009001CN0160001N1+01001+00571101701ADDAG12999GA1051+009009059GA2051+015009059GF107991071051012501999999MA1101691999999MD1710211+9999REMSYN017333   85630 85650MET013GRADU 5ST015?EQDQ01+000000PRSWM2
0189039620999991989010309004+52700-008917SY-MT+0020EINN V0201701N00771007801CN0160001N1+01001+00571101721ADDAG12000GA1021+004509079GA2061+007809059GA3051+015009059GF107991071051004501999999MA1101691999999MD1510131+9999REMSYN023333   82715 86626 85650MET019GRADU 5ST015     ??EQDQ01+000000PRSWM2
0167039620999991989010310004+52700-008917SY-MT+0020EINN V0201701N01081007201CN0160001N1+01031+00671101621ADDAG12999GA1051+007209059GA2051+060009009GF107991071051008001999021MA1101591999999MD1710181+9999REMSYN023333   85624 85650 85070MET013GRADU 5ST015?EQDQ01+000000PRSWM2
0189039620999991989010311004+52700-008917SY-MT+0020EINN V0201701N01231018001CN0140001N1+01061+00731101501ADDAG12999GA1031+006009059GA2061+018009059GA3071+030009049GF108991071051008001071999MA1101491999999MD1810201+9999REMSYN023333   83620 86656 87460MET019GRADU 5ST015     ??EQDQ01+000000PRSWM2
0180039620999991989010312004+52700-008917SY-MT+0020EINN V0201701N00931027001CN0130001N1+01051+00761101471ADDAA106999929AG10001AY161061AY221061GA1041+004509079GA2081+027009049GF108991051061004501021999MA1101391999999MD1610251+9999MW1601REMSYN017333   84715 88459MET018TEMPO 7000 5ST010?
0169039620999991989010313004+52700-008917SY-MT+0020EINN V0201801N00511004501CN0160001N1+01091+00761101401ADDAG12043AY161011AY221011GA1061+004509079GA2081+027009049GF108991061061004501021999MA1101391999999MD1710221+9999MW1211REMSYN017333   86715 88459MET018GRADU 7000 5ST007?
0199039620999991989010314004+52700-008917SY-MT+0020EINN V0201801N00981005701CN0200001N1+01121+00771101291ADDAG12999GA1031+004509079GA2051+005709079GA3081+027009049GF108991061061004501021999MA1101191999999MD1810211+9999REMSYN023333   83715 85719 88459MET029GRADU      ?     7000 5ST007?EQDQ01+000000PRSWM2
0191039620999991989010315004+52700-008917SY-MT+0020EINN V0201601N00931006601CN0140001N1+01061+00861101201ADDAG12001AY161031AY221031GA1021+004509079GA2041+006609059GA3061+015009059GF108991071051004501021999MA1101191999999MD1810271+9999MW1601REMSYN023333   82715 84622 86650MET018TEMPO 7000 5ST007?
0191039620999991989010316004+52700-008917SY-MT+0020EINN V0201701N00821005401CN0120001N1+01091+00871101121ADDAG12999AY161011AY221011GA1021+003009079GA2041+005409079GA3051+007809059GF107991071061004501999999MA1101081999999MD1710281+9999MW1211REMSYN023333   82710 84718 85626MET018TEMPO 7000 5ST007?
0191039620999991989010317004+52700-008917SY-MT+0020EINN V0201701N00721003001CN0140001N1+01111+00911101051ADDAG12999AY161021AY251021GA1021+001509079GA2041+003009079GA3051+005109079GF108991081061001501999999MA1101021999999MD1710241+9999MW1581REMSYN023333   82705 84710 85717MET018TEMPO 7000 5ST007?
0187039620999991989010318004+52700-008917SY-MT+0020EINN V0201801N00621007501CN0200001N1+01101+00941101001ADDAA199002091AG10001AY161061AY251061GA1031+003009079GA2041+007509059GF106991061061004501999999KA1120M+01131MA1101021999999MD1710201+9999MW1211REMSYN023333   10113 83710 84625MET006NOSIG?
0154039620999991989010319004+52700-008917SY-MT+0020EINN V0201801N00621220001CN0300001N1+01031+00751100961ADDAG12999GA1011+003609079GA2021+006609099GF102991021031004501001001MA1100911999999MD1710161+9999REMSYN017333   81712 82922MET006NOSIG?EQDQ01+000000PRSWM2
0174039620999991989010320004+52700-008917SY-MT+0020EINN V0202101N00571006001CN0200001N1+00851+00681100991ADDAG12999AY181021AY211021GA1021+003609079GA2041+006009099GF107991071031004501999999MA1100911999999MD1710061+9999MW1251REMSYN017333   82712 84920MET023TEMPO 5000 95TS 5ST007?
0181039620999991989010321004+52700-008917SY-MT+0020EINN V0201801N00461015001CN0250001N1+00871+00681100951ADDAG12001AY181031AY221031GA1021+006609089GA2071+015009059GF108991081081008001999999MA1100911999999MD1710051+9999MW1251REMSYN017333   82822 87650MET030TEMPO 5000       ?     6ST008?
0090039620999991989010321304+52700-008917FM-15+0020EINN V0201901N00571015001CN0112001N1+00801+00701999999ADDAG12999GA1021+007509059GA2081+015009059MA1100911999999MW1251REMMET018TEMPO 5000 6ST008?
0205039620999991989010322004+52700-008917SY-MT+0020EINN V0201901N00621015001CN0250001N1+00881+00601100971ADDAG12999AY181011AY221011GA1011+004209079GA2031+007509089GA3071+015009059GF108991081081004501999999GJ100009MA1100911999999MD1310011+9999MW1801REMSYN029333   81714 83825 87650 94000MET018TEMPO 7000 5ST008?
0111039620999991989010322304+52700-008917FM-15+0020EINN V0202101N00721014101CN0112001N1+00801+00401999999ADDAG12999GA1021+005709089GA2031+014109059MA1100911999999OC101291REMMET018TEMPO 7000 5ST008?EQDQ01+000000PRSWM2
0188039620999991989010323004+52700-008917SY-MT+0020EINN V0202201N00511220001CN0300001N1+00751+00461100981ADDAG12999AY181021AY221021GA1021+005709089GA2031+014109059GF104991041081004501999999MA1100911999999MD1510011+9999MW1251REMSYN017333   82819 83647MET018TEMPO 7000 5ST008?EQDQ01+000000PRSWM2
0199039620999991989010400004+52700-008917SY-MT+0020EINN V0202001N00671015001CN0300001N1+00821+00431100971ADDAA106002091AG10001AY181061AY211061GA1021+006009089GA2071+015009059GF107991071081008001999999MA1100911999999MD1010021+9999MW1031REMSYN017333   82820 87650MET018TEMPO 7000 5ST010?EQDQ01+000000PRSWM2
0103039620999991989010400304+52700-008917FM-15+0020EINN V0201901N00671220001CN0112001N1+00801+00401999999ADDAG11999GA1011+006009089GA2031+015009059MA1100911999999REMMET018TEMPO 7000 5ST010?EQDQ01+000000PRSWM2
0182039620999991989010401004+52700-008917SY-MT+0020EINN V0202001N00621015001CN0300001N1+00771+00431100981ADDAG11999GA1021+006009089GA2041+015009059GF105991051081008001999001MA1100911999999MD1310011+9999REMSYN017333   82820 84650MET018TEMPO 7000 5ST010?EQDQ01+000000PRSWM2Q02    003SCOMCG
0103039620999991989010401304+52700-008917FM-15+0020EINN V0202001N00771220001CN0112001N1+00801+00501999999ADDAG11999GA1011+006009089GA2031+015009059MA1100911999999REMMET018TEMPO 7000 5ST010?EQDQ01+000000PRSWM2
0177039620999991989010402004+52700-008917SY-MT+0020EINN V0202101N01131015001CN0200001N1+00821+00531101001ADDAG12999AY181021AY211021GA1021+006009099GA2061+015009059GF107991071031008001999999MA1101021999999MD1310021+9999MW1801OC101701REMSYN017333   82920 86650MET018TEMPO 7000 5ST010?
0090039620999991989010402304+52700-008917FM-15+0020EINN V0202201N00771220001CN0112001N1+00801+00501999999ADDAG12001GA1011+006009099GA2031+015009059MA1101021999999MW1251REMMET018TEMPO 7000 5ST010?
0169039620999991989010403004+52700-008917SY-MT+0020EINN V0202301N00821015001CN0200001N1+00811+00441101111ADDAG12002AY181031AY221031GA1041+006009099GA2041+015009059GF107991071031008001999999MA1101081999999MD1310141+9999MW1801REMSYN017333   84920 85650MET018TEMPO 7000 5ST010?
0081039620999991989010403304+52700-008917FM-15+0020EINN V0202301N00931220001CN0112001N1+00801+00401999999ADDAG12999GA1011+006009099MA1101081999999MW1251REMMET025TEMPO 7000 5ST010      ??
0125039620999991989010404004+52700-008917FM-12+0020EINN V0202101N00771220001CN0300001N9+00731+00431101161ADDAG12999AY181011AY211011GA1011+006009099GF101991011031008001001001MD1210181+9999MW1251OA149901851REMSYN017333   81920 91136
0186039620999991989010405004+52700-008917SY-MT+0020EINN V0202201N00871013501CN0300001N1+00661+00331101221ADDAG12999AY181021AY211021GA1011+006009099GA2051+013509059GF105991051031008001001001MA1101191999999MD1210221+9999MW1251OA149902111REMSYN023333   81920 85645 91141MET018TEMPO 7000 5ST010?
0287039620999991989010406004+52700-008917SY-MT+0020EINN V0202301N00871006001CN0200001N1+00681+00401101291ADDAA199003091AG19002AY181061AY211061GA1031+003909079GA2041+006009099GA3061+015009059GF107991071031004501999999GJ100009IA1119IA2999+00409KA1120N+00621MA1101191999999MD1210181+9999MW1801OA149902111REMSYN047333   20062 32004 83713 84918 86650 91141 94000MET029TEMPO      ?     8000 5ST012?
0169039620999991989010407004+52700-008917SY-MT+0020EINN V0202801N00571015001CN0300001N1+00621+00301101571ADDAG12999AY181011AY221011GA1021+006009099GA2051+015009059GF106991061031008001999999MA1101491999999MD1310411+9999MW1251REMSYN017333   82920 85650MET018TEMPO 8000 5ST012?
0169039620999991989010408004+52700-008917SY-MT+0020EINN V0202601N00621220001CN0300001N1+00631+00291101701ADDAG12999AY181021AY221021GA1011+003909079GA2041+006009099GF104991041031004501001001MA1101691999999MD1210481+9999MW1251REMSYN017333   81713 84920MET018TEMPO 8000 5ST012?
0166039620999991989010409004+52700-008917SY-MT+0020EINN V0202601N00671220001CN0300001N1+00711+00081101821ADDAG12001AY181031AY211031GA1031+006009099GF103991031091008001001001MA1101801999999MD1110531+9999MW1011REMSYN011333   83920MET018TEMPO 8000 5ST012?EQDQ01+000000PRSWM2
0180039620999991989010410004+52700-008917SY-MT+0020EINN V0202501N00871006001CN0300001N1+00701+00151101951ADDAG12051AY181011AY211011GA1021+003909079GA2031+006009099GF106991041031004501999031MA1101901999999MD1110381+9999MW1251REMSYN017333   82713 83920MET029TEMPO      ?     8000 5ST012?
0176039620999991989010411004+52700-008917SY-MT+0020EINN V0202301N01031005401CN0300001N1+00551+00281102101ADDAG12999AY181021AY221021GA1021+003009079GA2051+005409099GF107991071031004501999031MA1102101999999MD1210401+9999MW1271OC101651REMSYN023333   82710 85918 99720MET011TEMPO 8000?
0216039620999991989010412004+52700-008917SY-MT+0020EINN V0202501N00771220001CN0300001N1+00681+00191102131ADDAA106000591AG12001AY181061AY211061GA1011+003609079GA2021+006009099GA3031+054009009GF104991031031004501001031MA1102101999999MD1210311+9999MW1011REMSYN029333   81712 82920 83068 99720MET007NOSIG ?EQDQ01+000000PRSWM2
0158039620999991989010413004+52700-008917SY-MT+0020EINN V0202501N00621005401CN0300001N1+00731+00301102141ADDAG12999AY181011AY221011GA1031+003309079GA2051+005409099GF107991061031004501999031MA1102101999999MD1110191+9999MW1801REMSYN017333   83711 85918MET007NOSIG ?
0198039620999991989010414004+52700-008917SY-MT+0020EINN V0202401N00771004501CN0200001N1+00741+00361102161ADDAG12031AY181021AY221021GA1021+002709079GA2031+004509079GA3061+005709099GF107991071031002501999999MA1102101999999MD1210061+9999MW1251REMSYN023333   82709 83715 86919MET006NOSIG?EQDQ01+000000PRSWM2
0157039620999991989010415004+52700-008917SY-MT+0020EINN V0202601N00621220001CN0250001N1+00511+00181102251ADDAG12001AY181031AY221031GA1011+003909079GA2041+005409099GF104991041031004501999999MA1102201999999MD1210121+9999MW1251REMSYN017333   81713 84918MET006NOSIG?
0210039620999991989010416004+52700-008917SY-MT+0020EINN V0202601N01031005701CN0250001N1+00591+00161102331ADDAG12999AY181011AY221011GA1011+002409079GA2031+004209079GA3051+005709099GF106991061031002501999999MA1102301999999MD1210191+9999MW1271OA149901801OC101601REMSYN035333   81708 83714 85919 99720 91135MET006NOSIG?
0078039620999991989010416304+52700-008917FM-15+0020EINN V0202701N00771220001CN0112001N1+00601+00101999999ADDAG12999GA1011+003309079GA2021+005409099MA1102301999999MW1271REMMET006NOSIG?
0108039620999991989010417004+52700-008917FM-12+0020EINN V0202601N00571220001CN0200001N9+00551+00151102391ADDAG12999GA1011+003609079GA2021+005709099GF102991021031004501001001MD1210231+9999REMSYN017333   81712 82919
0223039620999991989010418004+52700-008917SY-MT+0020EINN V0202701N00821220001CN0250001N1+00621+00081102501ADDAA199001091AG19002AY181061AY211061GA1011+004509079GA2011+006009099GF101991011091004501001001KA1120M+00821MA1102511999999MD1210251+9999MW1801OA149901801REMSYN029333   10082 81715 81920 91135MET006NOSIG?EQDQ01+000000PRSWM2
0136039620999991989010419004+52700-008917FM-12+0020EINN V0202701N00511220001CN0250001N9+00501+00221102641ADDAG12999AY181011AY211011GA1011+004509079GA2021+006009099GF103991031091004501001001MD1210311+9999MW1271REMSYN023333   81715 82920 99720
0108039620999991989010420004+52700-008917FM-12+0020EINN V0202701N00411220001CN0250001N9+00531+00151102711ADDAG12999GA1011+004509079GA2011+006009099GF102991021031004501001001MD1210321+9999REMSYN017333   81715 81920
0094039620999991989010420304+52700-008917FM-15+0020EINN V0202701N00621015001CN0112001N1+00501+00201999999ADDAG12001GA1011+004509079GA2021+006009099GA3051+015009059MA1102711999999MW1251REMMET006NOSIG?
0157039620999991989010421004+52700-008917SY-MT+0020EINN V0202701N00461015001CN0250001N1+00561+00241102771ADDAG12001AY181031AY211031GA1021+006009099GA2071+015009059GF107991071031008001999999MA1102711999999MD1210261+9999MW1251REMSYN017333   82920 87650MET006NOSIG?
0078039620999991989010421304+52700-008917FM-15+0020EINN V0202701N00411220001CN0112001N1+00501+00201999999ADDAG12999GA1011+006009099GA2041+015009059MA1102711999999MW1251REMMET006NOSIG?
0168039620999991989010422004+52700-008917SY-MT+0020EINN V0202801N00311012001CN0250001N1+00491+00211102821ADDAG12999GA1011+006009099GA2051+012009059GF105991051031008001999999GJ100909MA1102811999999MD1210171+9999REMSYN023333   81920 85640 94015MET006NOSIG?EQDQ01+000000PRSWM2
0075039620999991989010422304+52700-008917FM-15+0020EINN V0202601N00311220001CN0112001N1+00401+00101999999ADDAG12999GA1011+006009089MA1102811999999REMMET006NOSIG?EQDQ01+000000PRSWM2
0154039620999991989010423004+52700-008917SY-MT+0020EINN V0202601N00361220001CN0250001N1+00381+00091102841ADDAG12999GA1011+006009089GA2031+060009009GF104991031081008001001021MA1102811999999MD1210121+9999REMSYN017333   81820 83070MET006NOSIG?EQDQ01+000000PRSWM2
0091039620999991989010423304+52700-008917FM-15+0020EINN V0202501N00411036001CN0112001N1+00501+00201999999ADDAG12000GA1031+010509059GA2071+036009049MA1102811999999REMMET006NOSIG?EQDQ01+000000PRSWM2
0171039620999991989010500004+52700-008917SY-MT+0020EINN V0202501N00311036001CN0250001N1+00561+00221102821ADDAA106002091AG19001GA1031+010509059GA2081+036009049GF108991031051012501021999MA1102811999999MD1010051+9999REMSYN023333   83635 88462 99720MET006NOSIG?EQDQ01+000000PRSWM2
0091039620999991989010500304+52700-008917FM-15+0020EINN V0201901N00101030001CN0112001N1+00501+00301999999ADDAG11999GA1031+010509059GA2081+030009049MA1102811999999REMMET006NOSIG?EQDQ01+000000PRSWM2
0108039620999991989010501004+52700-008917FM-12+0020EINN V0202301N00261027001CN0250001N9+00541+00321102821ADDAG12999GA1031+010509059GA2081+027009049GF108991031051012501071999MD1010001+9999REMSYN017333   83635 88459
0154039620999991989010502004+52700-008917SY-MT+0020EINN V0202001N00361027001CN0250001N1+00561+00291102771ADDAG11999GA1031+010509059GA2081+027009049GF108991031051012501071999MA1102711999999MD1810061+9999REMSYN017333   83635 88459MET006NOSIG?EQDQ01+000000PRSWM2
0157039620999991989010503004+52700-008917SY-MT+0020EINN V0201901N00361007501CN0200001N1+00551+00311102751ADDAG12001AY161031AY221031GA1051+007509059GA2081+027009049GF108991051051008001071999MA1102711999999MD1810071+9999MW1601REMSYN017333   85625 88458MET006NOSIG?
0094039620999991989010503304+52700-008917FM-15+0020EINN V0201901N00311010501CN0112001N1+00601+00401999999ADDAG12999GA1021+007509059GA2031+010509059GA3081+024009049MA1102611999999MW1611REMMET006NOSIG?
0152039620999991989010504004+52700-008917FM-12+0020EINN V0201801N00411024001CN0250001N9+00611+00421102631ADDAG12999AY161011AY261011GA1011+007509059GA2031+010509059GA3081+024009049GF108991031051008001071999MD1810181+9999MW1611REMSYN023333   81625 83635 88458
0157039620999991989010505004+52700-008917SY-MT+0020EINN V0201801N00511018001CN0250001N1+00641+00481102511ADDAG12999AY161021AY261021GA1021+009009059GA2081+018009049GF108991021051012501021999MA1102511999999MD1710261+9999MW1611REMSYN017333   82630 88556MET006NOSIG?
0237039620999991989010506004+52700-008917SY-MT+0020EINN V0201701N00511015001CN0200001N1+00671+00541102391ADDAA199003091AG10002AY161061AY221061GA1021+009009059GA2081+015009049GF108991021051012501021999GJ100909IA1099IA2999-00109KA1120N+00341MA1102301999999MD1710351+9999MW1611REMSYN035333   20034 31101 82630 88550 94015MET018TEMPO 8000 5ST008?
0169039620999991989010507004+52700-008917SY-MT+0020EINN V0201701N00571015001CN0200001N1+00741+00611102231ADDAG12999AY161011AY261011GA1031+008109059GA2081+015009049GF108991031051008001021999MA1102201999999MD1810401+9999MW1611REMSYN017333   83627 88558MET018TEMPO 8000 5ST008?
0169039620999991989010508004+52700-008917SY-MT+0020EINN V0201701N00511015001CN0200001N1+00781+00671102071ADDAG12033AY161021AY221021GA1031+006609059GA2081+015009049GF108991031051008001021999MA1102001999999MD1710441+9999MW1601REMSYN017333   83622 88550MET018TEMPO 8000 5ST008?
0202039620999991989010509004+52700-008917SY-MT+0020EINN V0201801N00461007501CN0150001N1+00861+00761101931ADDAG12002AY161031AY261031GA1021+003009079GA2061+007509059GA3081+015009049GF108991061051004501021999MA1101901999999MD1710461+9999MW1611REMSYN023333   82710 86625 88550MET029TEMPO      ?     8000 5ST008?
0199039620999991989010510004+52700-008917SY-MT+0020EINN V0202001N00621015001CN0080001N1+00991+00851101781ADDAG12999AY161011AY261011GA1031+003009079GA2081+015009049GF108991031061004501021999MA1101691999999MD1710451+9999MW1631REMSYN023333   83710 88550 97265MET042VIS 10KM TO SE         ?     TEMPO 6ST008?
0186039620999991989010511004+52700-008917SY-MT+0020EINN V0201901N00621003301CN0040001N1+01031+00911101621ADDAG12059AY161021AY251021GA1031+002409079GA2041+003309079GA3081+015009049GF108991051061002501021999MA1101591999999MD1710451+9999MW1591REMSYN023333   83708 84711 88550MET013TEMPO 7ST008?
0219039620999991989010512004+52700-008917SY-MT+0020EINN V0202301N00981003601CN0060001N1+01161+01071101471ADDAA106010091AG10004AY161061AY251061GA1021+001809079GA2051+003609079GA3081+010509049GF108991061071002501021999MA1101391999999MD1710461+9999MW1631REMSYN023333   82706 85712 88535MET035VIS 9000 TO SW GRADU 2ST012 5CU020?
0186039620999991989010513004+52700-008917SY-MT+0020EINN V0202501N01131002701CN0140001N1+01191+01101101371ADDAG12999AY161011AY251011GA1021+002109079GA2051+002709079GA3071+009009059GF108991081061002501999999MA1101291999999MD1610411+9999MW1211REMSYN023333   82707 85709 87630MET013GRADU 3CU020?
0179039620999991989010514004+52700-008917SY-MT+0020EINN V0202601N01131004201CN0090001N1+01231+01121101291ADDAG12041AY151021AY221021GA1031+002409079GA2041+004209079GA3051+009009059GF107991071071002501999999MA1101191999999MD1710331+9999MW1201REMSYN023333   83708 84714 85630MET006NOSIG?
0206039620999991989010515004+52700-008917SY-MT+0020EINN V0202501N00931002401CN0070001N1+01211+01041101241ADDAG12001AY161031AY251031GA1031+001509079GA2051+002409079GA3071+004209079GF108991081071001501999999MA1101191999999MD1610231+9999MW1601OC101441REMSYN023333   83705 85708 87714MET025GRADU 9999 3ST008 7ST017?
0201039620999991989010516004+52700-008917SY-MT+0020EINN V0202501N01031004201CN0070001N1+01191+01021101201ADDAG12057AY161011AY221011GA1031+002109079GA2031+004209079GA3051+024009039GF107991051071002501031021MA1101191999999MD1610171+9999MW1211OA149901851REMSYN029333   83707 83714 85358 91136MET011GRADU 9999?
0162039620999991989010517004+52700-008917SY-MT+0020EINN V0202501N00981009001CN0070001N1+01171+00941101151ADDAG12999AY121021AY221021GA1041+003009079GA2041+009009059GF107991071071004501999999MA1101081999999MD1710141+9999MW1101REMSYN017333   84710 84630MET011GRADU 9999?
0226039620999991989010518004+52700-008917SY-MT+0020EINN V0202601N00821012001CN0250001N1+01041+00721101071ADDAA199012091AG10001AY161061AY221061GA1011+003009079GA2041+006009089GA3051+012009059GF107991071081004501999999KA1120M+01251MA1101021999999MD1710171+9999MW1211OA149901851REMSYN035333   10125 81710 84820 85640 91136MET006NOSIG?
0086039620999991989010518304+52700-008917FM-15+0020EINN V0202501N00931015001CN0112001N1+01001+00701999999ADDAG12999GA1031+006009089GA2061+015009059MA1101021999999MW1211OC101651REMMET006NOSIG?
0162039620999991989010519004+52700-008917SY-MT+0020EINN V0202501N00871006001CN0250001N1+00951+00741101021ADDAG12999AY181011AY221011GA1021+002109079GA2061+006009099GF107991071031002501999999MA1101021999999MD1710181+9999MW1251REMSYN017333   82707 86920MET011TEMPO 7000?
0100039620999991989010519304+52700-008917FM-15+0020EINN V0202501N00821015001CN0112001N1+01001+00701999999ADDAG12999GA1011+004509079GA2031+006009099GA3051+015009059MA1100911999999MW1251REMMET012TEMPPO 7000?
0140039620999991989010520004+52700-008917SY-MT+0020EINN V0202501N00871220001CN0300001N1+00951+00671100941ADDAG12999AY181021AY211021GA1041+006009099GF104991041031008001001001MA1100911999999MD1710211+9999MW1251REMSYN011333   84920MET011TEMPO 7000?
0162039620999991989010521004+52700-008917SY-MT+0020EINN V0202601N00721009901CN0200001N1+00971+00691100891ADDAG12001AY181031AY221031GA1041+006009099GA2061+009909059GF107991071031008001999999MA1100811999999MD1710181+9999MW1251REMSYN017333   84920 86633MET011TEMPO 7000?
0083039620999991989010521304+52700-008917FM-15+0020EINN V0202601N00671009001CN0112001N1+00901+00601999999ADDAG12999GA1031+005409099GA2051+009009059MA1100911999999MW1251REMMET011TEMPO 7000?
0168039620999991989010522004+52700-008917SY-MT+0020EINN V0202701N00931010501CN0300001N1+00911+00581100951ADDAG12999GA1031+006909099GA2031+010509059GF105991051031008001001001GJ100009MA1100911999999MD1510071+9999REMSYN023333   83923 83635 94000MET006NOSIG?EQDQ01+000000PRSWM2
0078039620999991989010522304+52700-008917FM-15+0020EINN V0202901N01031010501CN0112001N1+00901+00601999999ADDAG12999GA1041+006309099GA2061+010509059MA1100911999999MW1801REMMET006NOSIG?
0198039620999991989010523004+52700-008917SY-MT+0020EINN V0203101N00511006001CN0120001N1+00711+00581101011ADDAG12999AY181021AY221021GA1031+003609079GA2041+006009099GA3061+010509059GF108991081031002501999999MA1101021999999MD1310071+9999MW1811REMSYN023333   83712 84920 86635MET006NOSIG?EQDQ01+000000PRSWM2
0102039620999991989010523304+52700-008917FM-15+0020EINN V0203001N00511018001CN0112001N1+00801+00601999999ADDAG12001GA1011+003609079GA2031+006009099GA3061+018009059MA1101021999999MW1251OC101131REMMET006NOSIG?
0190039620999991989010600004+52700-008917SY-MT+0020EINN V0203001N00621009001CN0250001N1+00821+00581101051ADDAA106003091AG10001AY181061AY221061GA1031+006009099GA2051+009009059GA3071+018009059GF107991071031008001999999MA1101021999999MD1210161+9999MW1251REMSYN023333   83920 85630 87656MET006NOSIG?
0094039620999991989010600304+52700-008917FM-15+0020EINN V0203001N00671012001CN0112001N1+00801+00501999999ADDAG11999GA1021+005409099GA2051+012009059GA3071+018009059MA1101021999999MW1251REMMET006NOSIG?
0179039620999991989010601004+52700-008917SY-MT+0020EINN V0203001N00361018001CN0300001N1+00781+00561101121ADDAG12999AY181011AY221011GA1011+005409099GA2031+012009059GA3071+018009059GF108991081031004501999999MA1101081999999MD1210171+9999MW1251REMSYN023333   81918 83640 87656MET006NOSIG?
0092039620999991989010601304+52700-008917FM-15+0020EINN V0203001N00411220001CN0112001N1+00801+00601999999ADDAG11999GA1011+005409099GA2041+015009059MA1101081999999REMMET007NOSIG ?EQDQ01+000000PRSWM2
0155039620999991989010602004+52700-008917SY-MT+0020EINN V0202901N00411015001CN0300001N1+00761+00561101211ADDAG12999GA1011+005409099GA2051+015009059GF105991051031004501999999MA1101191999999MD1210201+9999REMSYN017333   81918 85650MET007NOSIG ?EQDQ01+000000PRSWM2
0092039620999991989010602304+52700-008917FM-15+0020EINN V0203001N00461220001CN0112001N1+00801+00601999999ADDAG12000GA1011+005409099GA2031+015009059MA1101191999999REMMET007NOSIG ?EQDQ01+000000PRSWM2
0193039620999991989010603004+52700-008917SY-MT+0020EINN V0203001N00571220001CN0300001N1+00851+00601101341ADDAG12001AY181031AY211031GA1011+006009099GA2031+015009059GF103991031031008001999001MA1101291999999MD1210291+9999MW1011REMSYN017333   81920 83650MET007NOSIG ?EQDQ01+000000PRSWM2Q02    003SCOMCG
0170039620999991989010604004+52700-008917SY-MT+0020EINN V0203101N00721220001CN0300001N1+00901+00641101461ADDAG12999GA1011+006009099GA2031+015009059GF103991031031008001999001MA1101391999999MD1210341+9999REMSYN017333   81920 83650MET006NOSIG?EQDQ01+000000PRSWM2Q02    003SCOMCG
0132039620999991989010605004+52700-008917SY-MT+0020EINN V0203201N00721220001CN0300001N1+00881+00621101551ADDAG12999GA1011+006009099GF101991011031008001001001MA1101491999999MD1210341+9999REMSYN011333   81920MET006NOSIG?EQDQ01+000000PRSWM2
0244039620999991989010606004+52700-008917SY-MT+0020EINN V0203001N00571010801CN0300001N1+00881+00621101681ADDAA199004091AG19001AY181061AY211061GA1011+006009089GA2071+010809059GF107991071081008001999999GJ100009IA1099IA2999+00409KA1120N+00671MA1101591999999MD1210341+9999MW1031REMSYN035333   20067 31004 81820 87636 94000MET006NOSIG?EQDQ01+000000PRSWM2
0132039620999991989010607004+52700-008917SY-MT+0020EINN V0203001N00511009901CN0300001N1+00841+00621101821ADDAG12999GA1071+009909059GF107991071051012501999999MA1101801999999MD1210361+9999REMSYN011333   87633MET006NOSIG?EQDQ01+000000PRSWM2
0132039620999991989010608004+52700-008917SY-MT+0020EINN V0203101N00461009901CN0300001N1+00921+00611101981ADDAG12999GA1071+009909059GF107991071051012501999999MA1101901999999MD1210431+9999REMSYN011333   87633MET006NOSIG?EQDQ01+000000PRSWM2
0132039620999991989010609004+52700-008917SY-MT+0020EINN V0203101N00511009601CN0200001N1+00951+00561102101ADDAG12000GA1071+009609059GF107991071051012501999999MA1102101999999MD1210421+9999REMSYN011333   87632MET006NOSIG?EQDQ01+000000PRSWM2
0132039620999991989010610004+52700-008917SY-MT+0020EINN V0203001N00571008701CN0200001N1+00951+00581102161ADDAG12999GA1071+008709059GF107991071051008001999999MA1102101999999MD1210341+9999REMSYN011333   87629MET006NOSIG?EQDQ01+000000PRSWM2
0108039620999991989010611004+52700-008917FM-12+0020EINN V0202901N00411007801CN0250001N9+00981+00641102291ADDAG12999GA1041+006609059GA2071+007809059GF107991071051008001999999MD1210311+9999REMSYN017333   84622 87626
0165039620999991989010612004+52700-008917SY-MT+0020EINN V0203001N00571015001CN0250001N1+01001+00661102401ADDAA106000091AG14000GA1041+007509059GA2071+015009059GF107991071051008001999999MA1102401999999MD1210301+9999REMSYN017333   84625 87650MET006NOSIG?EQDQ01+000000PRSWM2
0169039620999991989010613004+52700-008917SY-MT+0020EINN V0203101N00621220001CN0150001N1+00991+00711102461ADDAG12999AY151011AY221011GA1021+004509079GA2031+007509059GF104991041051004501999999MA1102401999999MD1210301+9999MW1201REMSYN029333   82715 83625 97170 97370MET006NOSIG?
0161039620999991989010614004+52700-008917SY-MT+0020EINN V0203001N00621008401CN0250001N1+01011+00731102491ADDAG12999GA1021+004809079GA2061+008409059GF107991071051004501999999MA1102401999999MD1210201+9999MW1001REMSYN017333   82716 86628MET007NOSIG ?EQDQ01+000000PRSWM2
0141039620999991989010615004+52700-008917SY-MT+0020EINN V0203001N00571004201CN0250001N1+00961+00711102561ADDAG12000AY151031AY221031GA1021+002409079GF107991071051004501999999MA1102511999999MD1210161+9999MW1501REMSYN017333   82708 87625MET006NOSIG?
0199039620999991989010616004+52700-008917SY-MT+0020EINN V0203101N00461003901CN0120001N1+00931+00761102611ADDAG12037AY151011AY221011GA1011+002109079GA2051+003909079GA3061+007209059GF107991071061002501999999MA1102611999999MD1210151+9999MW1501REMSYN029333   81707 85713 86624 97470MET020GRADU 2ST015 6SC025?
0158039620999991989010617004+52700-008917SY-MT+0020EINN V0203001N00311006601CN0200001N1+00911+00741102661ADDAG12999AY151021AY221021GA1031+004809079GA2071+006609059GF108991081051004501999999MA1102401999999MD1210171+9999MW1201REMSYN017333   83716 87622MET007NOSIG ?
0206039620999991989010618004+52700-008917SY-MT+0020EINN V0203101N00361004201CN0200001N1+00921+00691102751ADDAA199999929AG19000AY151061AY221061GA1051+004209079GA2071+006009059GF108991081061004501999999KA1120M+01011MA1102711999999MD1210191+9999MW1021REMSYN023333   10101 85714 87620MET006NOSIG?EQDQ01+000000PRSWM2
0154039620999991989010619004+52700-008917SY-MT+0020EINN V0203001N00261003901CN0200001N1+00901+00641102791ADDAG12999GA1061+003909079GA2071+006009059GF108991081061004501999999MA1102711999999MD1210181+9999REMSYN017333   86713 87620MET006NOSIG?EQDQ01+000000PRSWM2
0154039620999991989010620004+52700-008917SY-MT+0020EINN V0202901N00411003601CN0200001N1+00901+00671102821ADDAG12999GA1061+003609079GA2071+006009059GF108991081061004501999999MA1102811999999MD1210161+9999REMSYN017333   86712 87620MET006NOSIG?EQDQ01+000000PRSWM2
0176039620999991989010621004+52700-008917SY-MT+0020EINN V0203001N00461003901CN0200001N1+00901+00621102891ADDAG12000GA1021+003009079GA2061+003909079GA3071+006009059GF108991081061004501999999MA1102811999999MD1210141+9999REMSYN023333   82710 86713 87620MET006NOSIG?EQDQ01+000000PRSWM2
0168039620999991989010622004+52700-008917SY-MT+0020EINN V0202701N00311007501CN0200001N1+00871+00641102901ADDAG12999GA1021+005409079GA2031+007509059GF105991051051004501001001GJ100189MA1102911999999MD1110111+9999REMSYN023333   82718 83625 94003MET006NOSIG?EQDQ01+000000PRSWM2
0091039620999991989010622304+52700-008917FM-15+0020EINN V0202701N00261007501CN0112001N1+00901+00601999999ADDAG12999GA1031+004809079GA2031+007509059MA1102911999999REMMET006NOSIG?EQDQ01+000000PRSWM2
0132039620999991989010623004+52700-008917SY-MT+0020EINN V0202801N00261004201CN0300001N1+00831+00631102931ADDAG12999GA1051+004209079GF105991051061004501001001MA1102911999999MD1210111+9999REMSYN011333   85714MET006NOSIG?EQDQ01+000000PRSWM2
0192039620999991989010700004+52700-008917SY-MT+0020EINN V0202901N00361001801CN0300001N1+00881+00761102941ADDAA106999929AG13000GA1021+001209079GA2051+001809079GA3051+003009079GF107991071061001501999999MA1102911999999MD1210051+9999REMSYN023333   82704 85706 85710MET011TEMPO 5000?EQDQ01+000000PRSWM2
0107039620999991989010700304+52700-008917FM-15+0020EINN V0202801N00311001801CN0112001N1+00901+00801999999ADDAG11999GA1061+001809079GA2061+003309079MA1102911999999REMMET022TEMPO      ?     5000?EQDQ01+000000PRSWM2
0188039620999991989010701004+52700-008917SY-MT+0020EINN V0202801N00511001501CN0300001N1+00881+00781102931ADDAG11999GA1021+000909079GA2051+001509079GA3051+002709079GF107991071061001501999999MA1102911999999MD1110031+9999REMSYN023333   82703 85705 85709MET018TEMPO 3000 6ST003?EQDQ01+000000PRSWM2
0096039620999991989010701304+52700-008917FM-15+0020EINN V0202501N00261000901CN0112001N1+00901+00801999999ADDAG11999GA1061+000909079GA2061+001809079MA1102911999999REMMET011TEMPO 3000?EQDQ01+000000PRSWM2
0177039620999991989010702004+52700-008917SY-MT+0020EINN V0202101N00151000901CN0120001N1+00851+00751102901ADDAG11999GA1061+000909079GA2061+001809079GF108991081061001501999999MA1102911999999MD1810031+9999REMSYN035333   86703 86706 97180 97280 97480MET011TEMPO 3000?EQDQ01+000000PRSWM2
0125039620999991989010702304+52700-008917FM-15+0020EINN V0202601N00361004801CN0070001N1+00901+00801999999ADDAG11000GA1041+000909079GA2061+004809079MA1102911999999MW1101REMMET053VIS 10KM         ?     TO NE,SE,NW TEMPO 3000 6ST003?
0188039620999991989010703004+52700-008917SY-MT+0020EINN V0202701N00311002101CN0250001N1+00871+00791102901ADDAG11000GA1021+000909079GA2051+002109079GA3061+004809079GF107991071061001501999999MA1102911999999MD1610041+9999REMSYN023333   82703 85707 86716MET018TEMPO 5000 6ST003?EQDQ01+000000PRSWM2
0070039620999991989010703304+52700-008917FM-15+0020EINN V0202101N00211001501CN0080001N1+00901+00801999999ADDAG12999GA1031+000909079GA2071+001509079MW1101REMMET0131029(.  ,2 3?
0170039620999991989010704004+52700-008917SY-MT+0020EINN V0202301N00211000901CN0060001N1+00871+00811102901ADDAG11999AY121011AY221011GA1051+000909079GA2071+001509079GF108991081061001501999999MA1102911999999MD1610031+9999MW1101REMSYN017333   85703 87705MET019TEMPO  3000 6ST003?
0100039620999991989010704304+52700-008917FM-15+0020EINN V0202401N00211000901CN0025001N1+00901+00801999999ADDAG12999GA1031+000609079GA2071+000909079MA1102911999999MW1101REMMET0288KM NW     ?     TEMPO 1500?
0168039620999991989010705004+52700-008917SY-MT+0020EINN V0202301N00151001201CN0009001N1+00891+00831102881ADDAG11999AY121021AY221021GA1031+000309079GA2071+001209079GF108991081061000751999999MA1102811999999MD1810021+9999MW1461REMSYN023333   83701 87704 90405MET011TEMPO 3000?
0243039620999991989010706004+52700-008917SY-MT+0020EINN V0202401N00261000901CN0006001N1+00931+00871102861ADDAA199999929AG19000AY141061AY221061GA1031+000309079GA2081+000909079GF108991081061000251999999GJ100189IA1099IA2999+00509KA1120N+00791MA1102811999999MD1810041+9999MW1501REMSYN041333   20079 31005 83701 88703 99744 94003MET018TEMPO 1500 5ST001?
0182039620999991989010707004+52700-008917SY-MT+0020EINN V0202501N00311000901CN0007001N1+00951+00911102861ADDAG12999AY151011AY241011GA1031+000309079GA2081+000909079GF108991081061000251999999MA1102811999999MD1610041+9999MW1511REMSYN023333   83701 88703 99744MET025TEMPO 1500 5ST001      ??
0198039620999991989010708004+52700-008917SY-MT+0020EINN V0202501N00311001201CN0008001N1+00961+00941102851ADDAG12999AY151021AY241021GA1031+000609079GA2081+001209079GF108991081061000751999999MA1102811999999MD1710031+9999MW1511REMSYN023333   83702 88704 97111MET0411100M TO NE      ?     TEMPO 1500 5ST001?
0188039620999991989010709004+52700-008917SY-MT+0020EINN V0202701N00411001501CN0015001N1+01031+00971102861ADDAG12000AY151031AY241031GA1031+000909079GA2061+001509079GF108991081061001501999999MA1102811999999MD1410001+9999MW1201MW2281REMSYN023333   83703 86705 90558MET025TEMPO 0800 5ST001      ??
0148039620999991989010710004+52700-008917SY-MT+0020EINN V0202701N00311000901CN0032001N1+01061+00981102921ADDAG12999AY121011AY221011GA1081+000909079GF108991081061001501999999MA1102911999999MD1310061+9999MW1101REMSYN011333   88703MET019TEMPO 1200 5 ST001?
0169039620999991989010711004+52700-008917SY-MT+0020EINN V0202701N00361000901CN0035001N1+01071+01011102921ADDAG12039AY151021AY221021GA1061+000909079GA2071+001509079GF108991081061001501999999MA1102911999999MD1110071+9999MW1501REMSYN017333   86703 87705MET018TEMPO 1200 5ST001?
0182039620999991989010712004+52700-008917SY-MT+0020EINN V0202701N00311000901CN0020001N1+01101+01041102871ADDAA106999929AG10000AY151061AY241061GA1061+000909079GA2071+001509079GF108991081061001501999999MA1102811999999MD1010011+9999MW1511REMSYN017333   86703 87705MET020TEMPO 4ST001 7ST003?
0172039620999991989010713004+52700-008917SY-MT+0020EINN V0202601N00361001501CN0030001N1+01101+01041102841ADDAG12999AY151011AY251011GA1041+000909079GA2071+001509079GF108991081061001501999999MA1102811999999MD1810081+9999MW1511REMSYN017333   84703 87705MET021TEMPO 4ST001 7ST 003?
0212039620999991989010714004+52700-008917SY-MT+0020EINN V0202701N00461001801CN0080001N1+01091+01011102771ADDAG12999AY151021AY221021GA1021+001209079GA2041+001809079GA3051+002709079GF107991071061001501999999MA1102711999999MD1710151+9999MW1201REMSYN029333   82704 84706 85709 97265MET033VIS 10KM TO SE TEMPO 3000 5ST003?
0207039620999991989010715004+52700-008917SY-MT+0020EINN V0202401N00261002401CN0060001N1+01031+00971102731ADDAG12000AY151031AY221031GA1031+001809079GA2051+002409079GA3061+005409079GF107991071061002501999999MA1102711999999MD1710141+9999MW1101REMSYN029333   83706 85708 86718 97359MET028VIS 9000 TO SW TEMPO 5ST003?
0207039620999991989010716004+52700-008917SY-MT+0020EINN V0202501N00261001501CN0045001N1+01001+00961102721ADDAG12999AY151011AY221011GA1021+000609079GA2041+001509079GA3061+003609079GF108991081061000751999999MA1102711999999MD1610121+9999MW1501REMSYN029333   82702 84705 86712 97358MET028VIS 8000 TO SW TEMPO 5ST003?
0207039620999991989010717004+52700-008917SY-MT+0020EINN V0202401N00261003001CN0050001N1+00991+00951102731ADDAG12999AY151021AY251021GA1031+001809079GA2051+003009079GA3071+003909079GF108991081061002501999999MA1102711999999MD1510041+9999MW1511REMSYN029333   83706 85710 87713 97358MET028VIS 8000 TO SW TEMPO 5ST003?
0246039620999991989010718004+52700-008917SY-MT+0020EINN V0202301N00311003001CN0050001N1+01021+00961102721ADDAA199999929AG10000AY151061AY221061GA1011+000909079GA2041+001509079GA3071+003009079GF108991081061001501999999KA1120M+01101MA1102711999999MD1710011+9999MW1511REMSYN041333   10110 81703 84705 87710 97258 97358MET031VIS 8KMSE SW TEMPO 2000 5ST003?
0191039620999991989010719004+52700-008917SY-MT+0020EINN V0202401N00211001201CN0040001N1+01001+00941102701ADDAG12999AY151011AY251011GA1021+000309079GA2041+001209079GA3081+001809079GF108991081061000251999999MA1102711999999MD1810021+9999MW1511REMSYN023333   82701 84704 88706MET018TEMPO 2000 5ST003?
0106039620999991989010719304+52700-008917FM-15+0020EINN V0202401N00261001801CN0080001N1+01001+00901999999ADDAG12999GA1021+000609079GA2041+001809079GA3071+005109079MA1102711999999MW1201REMMET018TEMPO 2000 5ST003?
0169039620999991989010720004+52700-008917SY-MT+0020EINN V0202401N00311005101CN0090001N1+00991+00931102701ADDAG12041AY151021AY221021GA1031+001809079GA2081+005109079GF108991081061001501999999MA1102711999999MD1710031+9999MW1201REMSYN017333   83706 88717MET018TEMPO 2000 5ST003?
0090039620999991989010720304+52700-008917FM-15+0020EINN V0202501N00261005101CN0112001N1+01001+00901999999ADDAG12001GA1031+002109079GA2081+005109079MA1102611999999MW1501REMMET018TEMPO 2000 5ST003?
0130039620999991989010721004+52700-008917FM-12+0020EINN V0202401N00311005101CN0120001N9+01001+00941102661ADDAG12000AY151031AY221031GA1031+002109079GA2081+005109079GF108991081061001501999999MD1710061+9999MW1501REMSYN017333   83707 88717
0109039620999991989010721304+52700-008917FM-15+0020EINN V0202301N00261004501CN0112001N1+01001+00901999999ADDAG12999GA1031+002109079GA2081+004509079MA1102611999999MW1501REMMET037TEMPO 5000       ?     3ST005 6ST009?
0212039620999991989010722004+52700-008917SY-MT+0020EINN V0202401N00261003001CN0150001N1+01011+00951102641ADDAG12999AY151011AY251011GA1041+001809079GA2041+003009079GA3081+004509079GF108991081061002501999999GJ100009MA1102611999999MD1810061+9999MW1511REMSYN029333   84706 84710 88715 94000MET025TEMPO 5000 3ST005 6ST009?
0113039620999991989010722304+52700-008917FM-15+0020EINN V0202401N00261003001CN0112001N1+01001+00901999999ADDAG12999GA1021+001809079GA2031+003009079GA3081+004509079MA1102511999999MW1201REMMET025TEMPO 5000 3ST005 6ST009?
0198039620999991989010723004+52700-008917SY-MT+0020EINN V0202301N00311004501CN0130001N1+01011+00951102551ADDAG12999AY151021AY221021GA1011+001809079GA2031+003009079GA3081+004509079GF108991081061002501999999MA1102511999999MD1810151+9999MW1201REMSYN023333   81706 83710 88715MET025TEMPO 5000 3ST005 6ST009?
0110039620999991989010723304+52700-008917FM-15+0020EINN V0202301N00411003901CN0112001N1+01001+01001999999ADDAG12000GA1021+002409079GA2081+003909079MA1102511999999REMMET025TEMPO 5000 3ST005 6ST009?EQDQ01+000000PRSWM2
0206039620999991989010800004+52700-008917SY-MT+0020EINN V0202401N00261004501CN0200001N1+01011+00951102491ADDAA106999929AG10000AY151061AY221061GA1021+003009079GA2081+004509079GF108991081061004501999999MA1102401999999MD1810171+9999MW1021REMSYN017333   82710 88715MET025TEMPO 5000 3ST005 6ST009?EQDQ01+000000PRSWM2
0101039620999991989010800304+52700-008917FM-15+0020EINN V0202401N00311004801CN0112001N1+01001+01001999999ADDAG11999GA1021+003009079GA2081+004809079MA1102511999999MW1501REMMET029TEMPO      ?     5000 5ST006?
0180039620999991989010801004+52700-008917SY-MT+0020EINN V0202401N00311003901CN0120001N1+01011+00971102511ADDAG12039AY151011AY221011GA1031+001809079GA2081+003909079GF108991081061002501999999MA1102511999999MD1510131+9999MW1501REMSYN017333   83706 88713MET029TEMPO      ?     5000 5ST006?
0106039620999991989010801304+52700-008917FM-15+0020EINN V0202401N00361002401CN0080001N1+01001+01001999999ADDAG11999GA1031+001509079GA2031+002409079GA3081+003909079MA1102511999999MW1511REMMET018TEMPO 5000 5ST006?
0162039620999991989010802004+52700-008917SY-MT+0020EINN V0202201N00361002401CN0100001N1+00991+00951102451ADDAG12999AY151021AY251021GA1031+001509079GA2071+002409079GF108991081061001501999999MA1102401999999MD1810101+9999MW1511REMSYN017333   83705 87708MET011TEMPO 5000?
0083039620999991989010802304+52700-008917FM-15+0020EINN V0202401N00361002401CN0112001N1+01001+01001999999ADDAG11001GA1021+001809079GA2071+002409079MA1102401999999MW1501REMMET011TEMPO 5000?
0162039620999991989010803004+52700-008917SY-MT+0020EINN V0202301N00411002101CN0200001N1+01011+00951102411ADDAG12000AY151031AY221031GA1051+002109079GA2071+002709079GF108991081061002501999999MA1102401999999MD1810081+9999MW1501REMSYN017333   85707 87709MET011TEMPO 5000?
0090039620999991989010803304+52700-008917FM-15+0020EINN V0202201N00411003001CN0112001N1+01001+01001999999ADDAG12999GA1041+002109079GA2071+003009079MA1102301999999MW1501REMMET018TEMPO 5000 5ST006?
0186039620999991989010804004+52700-008917SY-MT+0020EINN V0202201N00461003601CN0250001N1+00981+00941102351ADDAG12999AY151011AY221011GA1021+002409079GA2031+003609079GA3071+006909059GF108991081051002501999999MA1102301999999MD1710161+9999MW1201REMSYN023333   82708 83712 87623MET013GRADU 5ST010?
0183039620999991989010805004+52700-008917SY-MT+0020EINN V0202001N00411006001CN0300001N1+01021+00961102291ADDAG12999GA1021+003009079GA2051+006009059GA3071+008109059GF108991081051004501999999MA1102201999999MD1710161+9999REMSYN023333   82710 85620 87627MET013GRADU 5ST010?EQDQ01+000000PRSWM2
0273039620999991989010806004+52700-008917SY-MT+0020EINN V0202001N00411006001CN0300001N1+01051+00891102221ADDAA199000191AG10000AY151061AY221061GA1021+004809079GA2051+006009059GA3071+007509059GF108991081051004501999999GJ100009IA1099IA2999+00909KA1120N+00951MA1102201999999MD1710191+9999MW1021REMSYN041333   20095 31009 82716 85620 87625 94000MET013TEMPO 5ST010?EQDQ01+000000PRSWM2
0161039620999991989010807004+52700-008917SY-MT+0020EINN V0201901N00311005701CN0300001N1+01001+00881102191ADDAG12999GA1021+003309079GA2081+005709079GF108991081061004501999999MA1102101999999MD1610161+9999REMSYN017333   82711 88719MET013TEMPO 5ST010?EQDQ01+000000PRSWM2
0161039620999991989010808004+52700-008917SY-MT+0020EINN V0201901N00311005401CN0300001N1+01001+00831102161ADDAG12999GA1021+004209079GA2081+005409079GF108991081061004501999999MA1102101999999MD1710131+9999REMSYN017333   82714 88718MET013TEMPO 5ST010?EQDQ01+000000PRSWM2
0189039620999991989010809004+52700-008917SY-MT+0020EINN V0201701N00411004801CN0300001N1+01011+00841102151ADDAG12000GA1031+004209079GA2051+004809079GA3071+005409079GF108991081061004501999999MA1102101999999MD1710071+9999REMSYN023333   83714 85716 87718MET019TEMPO 5ST010     ??EQDQ01+000000PRSWM2
0161039620999991989010810004+52700-008917SY-MT+0020EINN V0201801N00461005401CN0250001N1+01041+00851102121ADDAG12999GA1031+004209079GA2071+005409079GF107991071061004501999999MA1102101999999MD1710071+9999REMSYN017333   83714 87718MET013TEMPO 5ST010?EQDQ01+000000PRSWM2
0161039620999991989010811004+52700-008917SY-MT+0020EINN V0201801N00411006001CN0300001N1+01091+00851102061ADDAG12999GA1021+004509079GA2071+006009059GF107991071051004501999999MA1102001999999MD1810101+9999REMSYN017333   82715 87620MET013TEMPO 5ST010?EQDQ01+000000PRSWM2
0165039620999991989010812004+52700-008917SY-MT+0020EINN V0201901N00261006001CN0250001N1+01101+00901102011ADDAA106000091AG14000GA1031+005409079GA2071+006009059GF107991071051004501999999MA1102001999999MD1710141+9999REMSYN017333   83718 87620MET006NOSIG?EQDQ01+000000PRSWM2
0091039620999991989010812304+52700-008917FM-15+0020EINN V0201901N00311006001CN0112001N1+01101+00901999999ADDAG12999GA1041+005109079GA2071+006009059MA1101901999999REMMET006NOSIG?EQDQ01+000000PRSWM2
0154039620999991989010813004+52700-008917SY-MT+0020EINN V0201901N00261006601CN0400001N1+01101+00921101921ADDAG12053GA1041+005409079GA2071+006609059GF108991081061004501999999MA1101901999999MD1710201+9999REMSYN017333   84718 87622MET006NOSIG?EQDQ01+000000PRSWM2
0132039620999991989010814004+52700-008917SY-MT+0020EINN V0201801N00311005401CN0400001N1+01111+00931101841ADDAG12999GA1081+005409079GF108991081061004501999999MA1101801999999MD1710221+9999REMSYN011333   88718MET006NOSIG?EQDQ01+000000PRSWM2
0161039620999991989010815004+52700-008917SY-MT+0020EINN V0201801N00311007801CN0500001N1+01121+00901101741ADDAG12000GA1031+006009059GA2051+007809059GF106991061051008001999999MA1101691999999MD1710271+9999REMSYN017333   83620 85626MET013TEMPO 5ST015?EQDQ01+000000PRSWM2
0139039620999991989010816004+52700-008917SY-MT+0020EINN V0201801N00361005401CN0500001N1+01111+00871101671ADDAG12999GA1071+005409079GF107991071061004501999999MA1101591999999MD1710251+9999REMSYN011333   87718MET013TEMPO 5ST010?EQDQ01+000000PRSWM2
0161039620999991989010817004+52700-008917SY-MT+0020EINN V0201801N00361006001CN0500001N1+01071+00831101581ADDAG12999GA1051+006009059GA2061+015009059GF107991071051008001999999MA1101491999999MD1710261+9999REMSYN017333   85620 86650MET013TEMPO 5ST010?EQDQ01+000000PRSWM2
0191039620999991989010818004+52700-008917SY-MT+0020EINN V0201801N00461015001CN0500001N1+01031+00801101531ADDAA199999929AG10000GA1021+005409079GA2071+015009059GF107991071051004501999999KA1120M+01131MA1101491999999MD1710211+9999REMSYN023333   10113 82718 87650MET013TEMPO 5ST012?EQDQ01+000000PRSWM2
0161039620999991989010819004+52700-008917SY-MT+0020EINN V0201701N00361015001CN0500001N1+01081+00811101471ADDAG12999GA1031+006309059GA2071+015009059GF107991071051008001999999MA1101391999999MD1710201+9999REMSYN017333   83621 87650MET013TEMPO 5ST012?EQDQ01+000000PRSWM2
0098039620999991989010819304+52700-008917FM-15+0020EINN V0201801N00261005401CN0112001N1+01101+00901999999ADDAG12999GA1051+005409079GA2071+015009059MA1101391999999REMMET013TEMPO 5ST012?EQDQ01+000000PRSWM2
0161039620999991989010820004+52700-008917SY-MT+0020EINN V0201901N00261015001CN0400001N1+01061+00861101401ADDAG12999GA1031+005709079GA2081+015009059GF108991081051004501999999MA1101391999999MD1710181+9999REMSYN017333   83719 88650MET013TEMPO 5ST012?EQDQ01+000000PRSWM2
0189039620999991989010821004+52700-008917SY-MT+0020EINN V0201901N00411008101CN0400001N1+01061+00841101331ADDAG12000GA1021+005409079GA2051+008109059GA3081+015009059GF108991081051004501999999MA1101291999999MD1710201+9999REMSYN023333   82718 85627 88650MET019TEMPO 5ST018     ??EQDQ01+000000PRSWM2
0101039620999991989010821304+52700-008917FM-15+0020EINN V0201801N00511008101CN0112001N1+01101+00901999999ADDAG12999GA1031+005409079GA2051+008109059GA3081+015009059MA1101191999999MW1601REMMET013TEMPO 5ST012?
0200039620999991989010822004+52700-008917SY-MT+0020EINN V0201801N00461006601CN0300001N1+01101+00901101241ADDAG12999AY161011AY221011GA1021+005409079GA2061+006609059GA3081+015009059GF108991081051004501999999GJ100009MA1101191999999MD1710231+9999MW1601REMSYN029333   82718 86622 88650 94000MET013TEMPO 5ST012?
0101039620999991989010822304+52700-008917FM-15+0020EINN V0201701N00411006001CN0112001N1+01101+00901999999ADDAG12999GA1021+004509079GA2061+006009059GA3081+015009059MA1101191999999MW1211REMMET013TEMPO 5ST012?
0164039620999991989010823004+52700-008917SY-MT+0020EINN V0201601N00311005401CN0300001N1+01111+00911101171ADDAG12999AY161021AY221021GA1021+004209079GA2081+005409079GF108991081061004501999999MA1101081999999MD1710231+9999MW1601REMSYN017333   82714 88718MET013TEMPO 5ST012?
0101039620999991989010823304+52700-008917FM-15+0020EINN V0201901N00411006601CN0112001N1+01101+00901999999ADDAG12003GA1011+003609079GA2051+006609059GA3081+015009059MA1101081999999MW1211REMMET013TEMPO 5ST012?
0197039620999991989010900004+52700-008917SY-MT+0020EINN V0202001N00461007501CN0300001N1+01101+00901101091ADDAA106000191AG10001AY161061AY221061GA1021+003609079GA2061+007509059GA3081+015009059GF108991081051004501999999MA1101021999999MD1710241+9999MW1601REMSYN023333   82712 86625 88650MET013TEMPO 5ST012?
0106039620999991989010900304+52700-008917FM-15+0020EINN V0201901N00571008401CN0112001N1+01101+00901999999ADDAG11999GA1021+003609079GA2061+008409059GA3081+015009059MA1101021999999MW1601REMMET018TEMPO 7000 5ST012?
0191039620999991989010901004+52700-008917SY-MT+0020EINN V0202001N00621006601CN0200001N1+01091+00911101031ADDAG12999AY161011AY261011GA1021+003009079GA2061+006609059GA3081+015009059GF108991081051004501999999MA1101021999999MD1710211+9999MW1581REMSYN023333   82710 86622 88650MET018TEMPO 7000 5ST012?
0093039620999991989010901304+52700-008917FM-15+0020EINN V0202201N00821001501CN0080001N1+01101+00901999999ADDAG11999GA1051+001509079GA2081+003309079MA1101021999999MW1581REMMET021TEMPO MAX 30KTS 5000?
0224039620999991989010902004+52700-008917SY-MT+0020EINN V0202501N00511002101CN0080001N1+00951+00831101031ADDAG12999AY161021AY251021GA1031+001509079GA2061+002109079GA3081+004509079GF108991081061001501999999MA1101021999999MD1510141+9999MW1581REMSYN041333   83705 86707 88715 91320 91324 90051MET033GRADU 27015KT 9999 4ST012 5CU020?
0078039620999991989010902304+52700-008917FM-15+0020EINN V0202401N00511001801CN0112001N1+00901+00801999999ADDAG12007GA1051+001809079GA2081+002709079MA1101021999999MW1611REMMET006NOSIG?
0188039620999991989010903004+52700-008917SY-MT+0020EINN V0202501N00621007501CN0150001N1+00921+00801101051ADDAG12002AY161031AY251031GA1031+003009079GA2051+007509059GA3081+015009059GF108991081051004501999999MA1101021999999MD1510041+9999MW1611REMSYN023333   83710 85625 88650MET015GRADU 29015KTS?
0187039620999991989010904004+52700-008917SY-MT+0020EINN V0202501N00571015001CN0150001N1+00841+00711101031ADDAG12999AY161011AY261011GA1011+003009079GA2031+006909059GA3081+015009059GF108991081051004501999999MA1101021999999MD1410001+9999MW1611REMSYN023333   81710 83623 88650MET014GRADU 29015KT?
0179039620999991989010905004+52700-008917SY-MT+0020EINN V0202601N00411015001CN0250001N1+00841+00731101071ADDAG12999AY161021AY261021GA1011+004509079GA2031+010509059GA3081+015009059GF108991081051004501999999MA1101021999999MD1310041+9999MW1211REMSYN023333   81715 83635 88650MET006NOSIG?
0244039620999991989010906004+52700-008917SY-MT+0020EINN V0202601N00261030001CN0300001N1+00831+00651101091ADDAA199002091AG19001AY161061AY251061GA1031+007509059GA2081+030009049GF108991031051008001021999GJ100009IA1099IA2999+00709KA1120N+00821MA1101021999999MD1310041+9999MW1021REMSYN035333   20082 31007 83625 88460 94000MET006NOSIG?EQDQ01+000000PRSWM2
0179039620999991989010907004+52700-008917SY-MT+0020EINN V0202601N00261027001CN0300001N1+00781+00621101121ADDAG12041AY151011AY221011GA1021+006609059GA2041+015009059GA3071+027009049GF108991041051008001021999MA1101081999999MD1210091+9999MW1201REMSYN023333   82622 84650 87459MET006NOSIG?
0176039620999991989010908004+52700-008917SY-MT+0020EINN V0202601N00311013501CN0300001N1+00711+00531101161ADDAG12999GA1021+006009059GA2051+013509059GA3061+018009059GF107991071051008001999999MA1101081999999MD1210091+9999REMSYN023333   82620 85645 86656MET006NOSIG?EQDQ01+000000PRSWM2
0130039620999991989010909004+52700-008917FM-12+0020EINN V0202601N00311014101CN0300001N9+00681+00501101231ADDAG12000AY151031AY221031GA1021+005409089GA2051+014109059GF106991061081004501999999MD1210141+9999MW1011REMSYN017333   82818 85647
0154039620999991989010910004+52700-008917SY-MT+0020EINN V0202701N00261015001CN0400001N1+00701+00491101271ADDAG12999GA1021+006009089GA2051+015009059GF106991051081008001999021MA1101191999999MD1210151+9999REMSYN017333   82820 85650MET006NOSIG?EQDQ01+000000PRSWM2
0154039620999991989010911004+52700-008917SY-MT+0020EINN V0202601N00261018001CN0400001N1+00741+00491101291ADDAG12999GA1011+006009089GA2051+018009059GF106991051081008001999021MA1101191999999MD1110131+9999REMSYN017333   81820 85656MET006NOSIG?EQDQ01+000000PRSWM2
0187039620999991989010912004+52700-008917SY-MT+0020EINN V0203001N00311027001CN0450001N1+00781+00511101301ADDAA106999929AG10000AY151061AY221061GA1011+006609089GA2051+027009039GF107991011021008001031021MA1101291999999MD1110071+9999MW1031REMSYN017333   81822 85359MET006NOSIG?EQDQ01+000000PRSWM2
0108039620999991989010913004+52700-008917FM-12+0020EINN V0202101N00051030001CN0600001N9+00801+00431101261ADDAG12999GA1011+006609089GA2061+030009039GF107991011081008001031021MD1810011+9999REMSYN017333   81822 86360
0154039620999991989010914004+52700-008917SY-MT+0020EINN V0202201N00211030001CN0500001N1+00811+00391101241ADDAG12999GA1011+006609089GA2051+030009039GF106991011021008001031021MA1101191999999MD1810051+9999REMSYN017333   81822 85360MET006NOSIG?EQDQ01+000000PRSWM2
0191039620999991989010915004+52700-008917SY-MT+0020EINN V0202501N00571012001CN0400001N1+00731+00281101261ADDAG12002AY181031AY221031GA1021+006009099GA2031+012009059GA3051+030009039GF107991021031008001031021MA1101191999999MD1510041+9999MW1801REMSYN023333   82920 83640 85360MET018TEMPO 8000 5ST012?
0179039620999991989010916004+52700-008917SY-MT+0020EINN V0202401N00261012001CN0500001N1+00651+00341101311ADDAG12999AY181011AY221011GA1021+006009099GA2031+012009059GA3061+060009009GF107991051031008001001021MA1101291999999MD1310051+9999MW1801REMSYN023333   82920 83640 86070MET006NOSIG?
0158039620999991989010917004+52700-008917SY-MT+0020EINN V0202901N00361012001CN0400001N1+00591+00381101391ADDAG12051AY181021AY221021GA1021+005409099GA2041+012009059GF107991051031004501001021MA1101291999999MD1310151+9999MW1251REMSYN017333   82918 84640MET007NOSIG ?
0187039620999991989010918004+52700-008917SY-MT+0020EINN V0203401N00361005401CN0250001N1+00491+00241101451ADDAA199999929AG10002AY181061AY221061GA1021+003609079GA2051+005409099GF108991081031004501999999KA1120M+00881MA1101391999999MD1210191+9999MW1801REMSYN023333   10088 82712 85918MET006NOSIG?
0135039620999991989010919004+52700-008917SY-MT+0020EINN V0200601N00051015001CN0250001N1+00441+00291101471ADDAG12051GA1021+006009099GA2051+015009059GF107991071031008001999999MA1101391999999MD1110161+9999REMSYN017333   82920 85650MET006NOSIG?
0176039620999991989010920004+52700-008917SY-MT+0020EINN V0202501N00211015001CN0250001N1+00431+00251101541ADDAG12999GA1011+006009099GA2041+015009059GF105991051031008001999001MA1101491999999MD1210151+9999MW1001REMSYN017333   81920 84650MET006NOSIG?EQDQ01+000000PRSWM2Q02    003SCOMCG
0091039620999991989010920304+52700-008917FM-15+0020EINN V0202501N00211220001CN0112001N1+00401+00201999999ADDAG12000GA1011+006009099GA2041+015009059MA1101491999999REMMET006NOSIG?EQDQ01+000000PRSWM2
0154039620999991989010921004+52700-008917SY-MT+0020EINN V0202301N00411220001CN0250001N1+00461+00211101601ADDAG12001AY181031AY211031GA1011+006009089GF103991031081008001001001MA1101591999999MD1210151+9999MW1011REMSYN011333   81820MET006NOSIG?EQDQ01+000000PRSWM2
0091039620999991989010921304+52700-008917FM-15+0020EINN V0202501N00261018001CN0112001N1+00401+00201999999ADDAG12999GA1011+006009089GA2061+018009059MA1101591999999REMMET006NOSIG?EQDQ01+000000PRSWM2
0168039620999991989010922004+52700-008917SY-MT+0020EINN V0202601N00311024001CN0250001N1+00441+00241101681ADDAG12999GA1011+006009089GA2051+024009049GF106991031081008001021999GJ100369MA1101591999999MD1210211+9999REMSYN023333   81820 85458 94006MET006NOSIG?EQDQ01+000000PRSWM2
0075039620999991989010922304+52700-008917FM-15+0020EINN V0202601N00311220001CN0112001N1+00401+00201999999ADDAG12999GA1011+006009089MA1101691999999REMMET006NOSIG?EQDQ01+000000PRSWM2
0132039620999991989010923004+52700-008917SY-MT+0020EINN V0202501N00261220001CN0250001N1+00331+00141101711ADDAG12999GA1011+006009089GF101991011081008001001001MA1101691999999MD1210171+9999REMSYN011333   81820MET006NOSIG?EQDQ01+000000PRSWM2
0165039620999991989011000004+52700-008917SY-MT+0020EINN V0202501N00311220001CN0250001N1+00361+00211101781ADDAA106000191AG10001AY181061AY211061GA1011+006009089GF101991011081008001001001MA1101691999999MD1210181+9999MW1021REMSYN011333   81820MET006NOSIG?EQDQ01+000000PRSWM2
0075039620999991989011000304+52700-008917FM-15+0020EINN V0202401N00361220001CN0112001N1+00401+00201999999ADDAG11999GA1011+006009089MA1101691999999REMMET006NOSIG?EQDQ01+000000PRSWM2
0132039620999991989011001004+52700-008917SY-MT+0020EINN V0202601N00461220001CN0250001N1+00351+00151101811ADDAG11999GA1011+006009089GF101991011021008001001001MA1101801999999MD1210131+9999REMSYN011333   81820MET006NOSIG?EQDQ01+000000PRSWM2
0075039620999991989011001304+52700-008917FM-15+0020EINN V0202501N00411220001CN0112001N1+00401+00201999999ADDAG11999GA1011+006009089MA1101801999999REMMET006NOSIG?EQDQ01+000000PRSWM2
0133039620999991989011002004+52700-008917SY-MT+0020EINN V0202501N00361220001CN0250001N1+00381+00181101851ADDAG11999GA1011+006009089GF101991011021008001001001MA1101801999999MD1210141+9999REMSYN011333   81820MET007NOASIG?EQDQ01+000000PRSWM2
0135039620999991989011003004+52700-008917SY-MT+0020EINN V0202901N00411220001CN0200001N1+00341+00131101941ADDAG12002AY181031AY201031GA1041+006009089GF104991041021008001001001MA1101901999999MD1310161+9999MW1801REMSYN011333   84820MET006NOSIG?
0062039620999991989011003304+52700-008917FM-15+0020EINN V0202401N00211220001CN0112001N1+00401+00201999999ADDAG12999GA1031+007509089MA1101901999999MW1251REMMET006NOSIG?
0135039620999991989011004004+52700-008917SY-MT+0020EINN V0202001N00261220001CN0300001N1+00281+00091101971ADDAG12999AY181011AY211011GA1021+007509089GF102991021021008001001001MA1101901999999MD1210161+9999MW1251REMSYN011333   82825MET006NOSIG?
0132039620999991989011005004+52700-008917SY-MT+0020EINN V0202001N00211220001CN0300001N1+00311+00101102011ADDAG12999GA1011+007509089GF101991011021008001001001MA1102001999999MD1210161+9999REMSYN011333   81825MET006NOSIG?EQDQ01+000000PRSWM2
0222039620999991989011006004+52700-008917SY-MT+0020EINN V0202401N00151220001CN0300001N1+00301+00071102041ADDAA199000391AG10001AY181061AY211061GA1021+007509089GF102991021021008001001001GJ100369IA1099IA2999-00109KA1120N+00251MA1102001999999MD1110101+9999MW1031REMSYN029333   20025 31101 82825 94006MET006NOSIG?EQDQ01+000000PRSWM2
0138039620999991989011007004+52700-008917SY-MT+0020EINN V0202501N00411220001CN0300001N1+00331+00091102101ADDAG12999GA1011+006609089GF101991011021008001001001MA1102101999999MD1210131+9999REMSYN017333   81822 92000MET006NOSIG?EQDQ01+000000PRSWM2
0138039620999991989011008004+52700-008917SY-MT+0020EINN V0203001N00261220001CN0750001N1+00391+00191102181ADDAG12999GA1011+006609089GF101991011021008001001011MA1102101999999MD1210171+9999REMSYN017333   81822 92000MET006NOSIG?EQDQ01+000000PRSWM2
0138039620999991989011009004+52700-008917SY-MT+0020EINN V0202501N00151220001CN0600001N1+00301+00111102281ADDAG12000GA1011+006609099GF102991021031008001001001MA1102201999999MD1310241+9999REMSYN017333   81922 92000MET006NOSIG?EQDQ01+000000PRSWM2
0132039620999991989011010004+52700-008917SY-MT+0020EINN V0202401N00361220001CN0600001N1+00461+00181102311ADDAG12999GA1011+006609099GF101991011031008001001001MA1102301999999MD1110211+9999REMSYN011333   81922MET006NOSIG?EQDQ01+000000PRSWM2
0132039620999991989011011004+52700-008917SY-MT+0020EINN V0202101N00361220001CN0500001N1+00531+00201102331ADDAG12999GA1011+007509089GF101991011081008001001001MA1102301999999MD1110151+9999REMSYN011333   81825MET006NOSIG?EQDQ01+000000PRSWM2
0143039620999991989011012004+52700-008917SY-MT+0020EINN V0202301N00571220001CN0500001N1+00701+00211102311ADDAA106999929AG10000GA1011+007509089GF101991011081008001001001MA1102301999999MD1010031+9999REMSYN011333   81825MET006NOSIG?EQDQ01+000000PRSWM2
0132039620999991989011013004+52700-008917SY-MT+0020EINN V0202301N00571220001CN0500001N1+00771+00371102251ADDAG11999GA1011+007509089GF101991011081008001001001MA1102201999999MD1810061+9999REMSYN011333   81825MET006NOSIG?EQDQ01+000000PRSWM2
0086039620999991989011014004+52700-008917FM-12+0020EINN V0202201N00461220001CN0500001N9+00781+00391102211ADDAG12999GA1011+007509089GF101991011081008001001001MD1810121+9999REMSYN011333   81825
0132039620999991989011015004+52700-008917SY-MT+0020EINN V0202201N00621220001CN0500001N1+00801+00141102231ADDAG11000GA1011+006009089GF101991011081008001001001MA1102201999999MD1510081+9999REMSYN011333   81820MET006NOSIG?EQDQ01+000000PRSWM2
0132039620999991989011016004+52700-008917SY-MT+0020EINN V0202101N00361220001CN0500001N1+00711+00111102271ADDAG12999GA1011+009009059GF101991011051012501001001MA1102201999999MD1310021+9999REMSYN011333   81630MET006NOSIG?EQDQ01+000000PRSWM2
0132039620999991989011017004+52700-008917SY-MT+0020EINN V0202001N00511220001CN0450001N1+00611+00041102231ADDAG12999GA1011+009009059GF101991011051012501001021MA1102201999999MD1010021+9999REMSYN011333   81630MET006NOSIG?EQDQ01+000000PRSWM2
0163039620999991989011018004+52700-008917SY-MT+0020EINN V0201701N00511220001CN0400001N1+00521+00141102171ADDAA199999929AG10000GA1011+009009059GF101991011051012501001021KA1120M+00821MA1102101999999MD1810061+9999REMSYN017333   10082 81630MET007NOSIG ?EQDQ01+000000PRSWM2
0133039620999991989011019004+52700-008917SY-MT+0020EINN V0201801N00571220001CN0400001N1+00461+00151102101ADDAG12999GA1011+011409059GF102991011051012501001021MA1102101999999MD1710171+9999REMSYN011333   81638MET007NOSIG ?EQDQ01+000000PRSWM2
0091039620999991989011019304+52700-008917FM-15+0020EINN V0201901N00621220001CN0112001N1+00501+00101999999ADDAG12999GA1011+011409059GA2031+060009009MA1102001999999REMMET006NOSIG?EQDQ01+000000PRSWM2
0154039620999991989011020004+52700-008917SY-MT+0020EINN V0201801N00571060001CN0400001N1+00481+00131102071ADDAG12999GA1011+012009059GA2041+060009009GF105991011051012501001021MA1102001999999MD1710161+9999REMSYN017333   81640 84070MET006NOSIG?EQDQ01+000000PRSWM2
0155039620999991989011021004+52700-008917SY-MT+0020EINN V0201601N00571060001CN0300001N1+00481+00131102061ADDAG12000GA1011+012009059GA2051+060009009GF105991011051012501001021MA1102001999999MD1510111+9999REMSYN017333   81640 85070MET007NOSIG ?EQDQ01+000000PRSWM2
0092039620999991989011021304+52700-008917FM-15+0020EINN V0201701N00571060001CN0112001N1+00501+00101999999ADDAG12999GA1021+012009059GA2041+060009009MA1101901999999REMMET007NOSIG ?EQDQ01+000000PRSWM2
0175039620999991989011022004+52700-008917SY-MT+0020EINN V0201701N00571075001CN0300001N1+00491+00141101921ADDAG12999GA1021+015009059GF106991021051017501999021GJ104269MA1101901999999MD1710181+9999REMSYN023333   82650 85070 94071MET013CAVOK NOSIG ?EQDQ01+000000PRSWM2Q02    003SCOMCG
0066039620999991989011022304+52700-008917FM-15+0020EINN V0201701N00621999991CY0099001N1+00601+00201999999ADDAG12999MA1101801999999REMMET013CAVOK NOSIG ?EQDQ01+000000PRSWM2
0155039620999991989011023004+52700-008917SY-MT+0020EINN V0201501N00511220001CN0300001N1+00541+00161101821ADDAG12999GA1021+015009059GF103991021051017501999021MA1101801999999MD1710251+9999REMSYN011333   82650MET013CAVOK NOSIG ?EQDQ01+000000PRSWM2Q02    003SCOMCG
0092039620999991989011023304+52700-008917FM-15+0020EINN V0201701N00671060001CN0112001N1+00501+00201999999ADDAG12000GA1031+012009059GA2041+060009009MA1101691999999REMMET007NOSIG ?EQDQ01+000000PRSWM2
0166039620999991989011100004+52700-008917SY-MT+0020EINN V0201801N00411075001CN0300001N1+00501+00171101731ADDAA106999929AG13000GA1021+012009059GA2041+075009009GF105991021051012501001021MA1101691999999MD1710331+9999REMSYN017333   82640 84075MET007NOSIG ?EQDQ01+000000PRSWM2
0091039620999991989011100304+52700-008917FM-15+0020EINN V0201901N00571075001CN0112001N1+00601+00401999999ADDAG11999GA1031+012009059GA2051+075009009MA1101591999999REMMET006NOSIG?EQDQ01+000000PRSWM2
0154039620999991989011101004+52700-008917SY-MT+0020EINN V0202001N00671075001CN0300001N1+00631+00271101571ADDAG11999GA1031+010509059GA2051+075009009GF106991031051012501001021MA1101491999999MD1710351+9999REMSYN017333   83635 85075MET006NOSIG?EQDQ01+000000PRSWM2
0091039620999991989011101304+52700-008917FM-15+0020EINN V0202001N00671011101CN0112001N1+00701+00301999999ADDAG11999GA1051+011109059GA2061+075009009MA1101491999999REMMET006NOSIG?EQDQ01+000000PRSWM2
0176039620999991989011102004+52700-008917SY-MT+0020EINN V0202001N00721027001CN0300001N1+00711+00331101471ADDAG11999GA1041+010509059GA2051+027009039GA3061+075009009GF107991041051012501071021MA1101391999999MD1710351+9999REMSYN023333   84635 85359 86075MET006NOSIG?EQDQ01+000000PRSWM2
0091039620999991989011102304+52700-008917FM-15+0020EINN V0202001N00721011101CN0112001N1+00701+00401999999ADDAG12000GA1051+011109059GA2061+027009039MA1101291999999REMMET006NOSIG?EQDQ01+000000PRSWM2
0154039620999991989011103004+52700-008917SY-MT+0020EINN V0202101N00211027001CN0300001N1+00731+00171101351ADDAG11000GA1041+011109059GA2071+027009049GF108991041051012501071999MA1101291999999MD1710381+9999REMSYN017333   84637 87459MET006NOSIG?EQDQ01+000000PRSWM2
0154039620999991989011104004+52700-008917SY-MT+0020EINN V0202101N00771009601CN0400001N1+00791+00221101201ADDAG12999GA1051+009609059GA2081+027009049GF108991051051012501071999MA1101191999999MD1710371+9999REMSYN017333   85632 88459MET006NOSIG?EQDQ01+000000PRSWM2
0154039620999991989011105004+52700-008917SY-MT+0020EINN V0202301N01181027001CN0400001N1+00821+00431101041ADDAG12999GA1031+010509059GA2081+027009049GF108991031051012501021999MA1101021999999MD1810431+9999REMSYN017333   83635 88459MET006NOSIG?EQDQ01+000000PRSWM2
0222039620999991989011106004+52700-008917SY-MT+0020EINN V0202101N00981027001CN0300001N1+00821+00301100941ADDAA199999929AG10000GA1031+010209059GA2081+027009049GF108991031051012501021999GJ104269IA1099IA2999+00109KA1120N+00431MA1100911999999MD1710411+9999REMSYN035333   20043 31001 83634 88459 94071MET006NOSIG?EQDQ01+000000PRSWM2
0162039620999991989011107004+52700-008917SY-MT+0020EINN V0202101N00931008401CN0300001N1+00831+00391100851ADDAG12999GA1051+008409059GA2081+024009049GF108991051051008001071999MA1100811999999MD1710351+9999OC101441REMSYN017333   85628 88458MET006NOSIG?EQDQ01+000000PRSWM2
0115039620999991989011108004+52700-008917FM-15+0020EINN V0201901N01031012001CN0112001N1+00901+00401999999ADDAG12999GA1031+007509059GA2041+012009059GA3081+024009049MA1100711999999OC101651REMMET006NOSIG?EQDQ01+000000PRSWM2
0223039620999991989011109004+52700-008917SY-MT+0020EINN V0201901N00981024001CN0250001N1+00871+00491100641ADDAG12001AY161031AY221031GA1021+002409079GA2041+007509059GA3081+024009049GF108991041061002501071999MA1100611999999MD1710301+9999MW1601OA149901851OC101601REMSYN029333   82708 84625 88458 91136MET025GRADU 7000 4ST008 7ST012?
0227039620999991989011110004+52700-008917SY-MT+0020EINN V0201901N01081009001CN0180001N1+00891+00541100531ADDAG12999AY161011AY221011GA1021+003609079GA2051+009009059GA3081+024009049GF108991061051004501071999MA1100511999999MD1710321+9999MW1601OA149901801REMSYN029333   82712 85630 88458 91135MET037GRADU 7000       ?     4ST008 7ST012?
0210039620999991989011111004+52700-008917SY-MT+0020EINN V0201901N00981007501CN0110001N1+00851+00641100511ADDAG12999AY161021AY261021GA1021+003009079GA2051+007509059GA3081+024009049GF108991061051004501071999MA1100511999999MD1610231+9999MW1611REMSYN023333   82710 85625 88458MET037GRADU 7000       ?     4ST008 7ST012?
0238039620999991989011112004+52700-008917SY-MT+0020EINN V0201901N01081007501CN0140001N1+00911+00651100361ADDAA199901092AG10002AY161061AY221061GA1021+003009079GA2051+007509059GA3081+024009049GF108991061051004501071999MA1100311999999MD1710281+9999MW1611OA149901801REMSYN072333   82710 85625 88458 91135     = 43  354763  WHT   = 05  999924  0000
0210039620999991989011113004+52700-008917SY-MT+0020EINN V0201801N01031007501CN0140001N1+00921+00691100211ADDAG12999AY161011AY261011GA1021+003609079GA2041+007509059GA3081+024009049GF108991051051004501071999MA1100201999999MD1810321+9999MW1611REMSYN023333   82712 84625 88458MET037GRADU 7000       ?     4ST008 7ST012?
0225039620999991989011114004+52700-008917SY-MT+0020EINN V0201901N00821006601CN0140001N1+00961+00731100131ADDAG12999AY161021AY261021GA1031+002709079GA2061+006609059GA3071+015009059GF108991081051002501999999MA1100101999999MD1710381+9999MW1611OC101341REMSYN023333   83709 86622 87650MET025GRADU 7000 4ST008 7ST012?EQDQ01+000000PRSWM2
0170039620999991989011115004+52700-008917SY-MT+0020EINN V0202201N00511004501CN0040001N1+00841+00691100121ADDAG12004AY161031AY261031GA1041+002409079GA2081+004509079GF108991081061002501999999MA1100101999999MD1610241+9999MW1631REMSYN017333   84708 88715MET019TEMPO 5ST007     ??
0162039620999991989011116004+52700-008917SY-MT+0020EINN V0202301N00411015001CN0040001N1+00811+00721100061ADDAG12051AY161011AY261011GA1031+004509079GA2081+015009059GF108991081051004501999999MA1100001999999MD1710151+9999MW1631REMSYN017333   83715 88650MET011TEMPO 2000?
0101039620999991989011116304+52700-008917FM-15+0020EINN V0202301N00311007501CN0060001N1+00801+00701999999ADDAG12999GA1031+003909079GA2031+007509059GA3071+015009059MA1100001999999MW1631REMMET013TEMPO 5ST007?
0186039620999991989011117004+52700-008917SY-MT+0020EINN V0201901N00261006301CN0060001N1+00791+00701100031ADDAG12999AY161021AY261021GA1031+002109079GA2051+006309059GA3071+015009059GF108991081051002501999999MA1100001999999MD1810101+9999MW1611REMSYN023333   83707 85621 87650MET013TEMPO 5ST007?
0232039620999991989011118004+52700-008917SY-MT+0020EINN V0201801N00511015001CN0120001N1+00801+00691099971ADDAA199016091AG19004AY161061AY261061GA1021+002109079GA2041+006009059GA3081+015009049GF108991041051002501021999KA1120M+00961MA1099901999999MD1710151+9999MW1631REMSYN029333   10096 82707 84620 88550MET029TEMPO      ?     7000 5ST007?
0101039620999991989011119304+52700-008917FM-15+0020EINN V0203001N00361004501CN0112001N1+00701+00601999999ADDAG12999GA1021+002409079GA2031+004509079GA3061+007509059MA1100001999999MW1581REMMET013GRADU 4SC020?
0197039620999991989011120004+52700-008917SY-MT+0020EINN V0202901N00261007501CN0300001N1+00671+00561100111ADDAG12999AY161021AY251021GA1021+004509079GA2031+007509059GA3061+015009059GF107991071051004501999999MA1100101999999MD1310081+9999MW1211REMSYN041333   82715 83625 86650 91322 91329 90044MET006NOSIG?
0094039620999991989011120304+52700-008917FM-15+0020EINN V0202601N00261008401CN0112001N1+00601+00501999999ADDAG12003GA1021+004509079GA2031+008409059GA3061+015009059MA1100101999999MW1211REMMET006NOSIG?
0199039620999991989011121004+52700-008917SY-MT+0020EINN V0202401N00261008401CN0250001N1+00661+00551100131ADDAG12001AY161031AY251031GA1031+004509079GA2041+008409059GA3081+015009059GF108991081051004501999999MA1100101999999MD1310161+9999MW1031REMSYN023333   83715 84628 88650MET007NOSIG+?EQDQ01+000000PRSWM2
0193039620999991989011122004+52700-008917SY-MT+0020EINN V0201901N00261007501CN0250001N1+00681+00591100161ADDAG12999AY161011AY221011GA1031+003309079GA2041+007509059GA3061+015009059GF107991071051004501999999GJ100009MA1100101999999MD1110191+9999MW1601REMSYN029333   83711 84625 86650 94000MET006NOSIG?
0062039620999991989011122304+52700-008917FM-15+0020EINN V0201901N00311220001CN0112001N1+00701+00601999999ADDAG12999GA1011+007509059MA1100101999999MW1211REMMET006NOSIG?
0135039620999991989011123004+52700-008917SY-MT+0020EINN V0201801N00311220001CN0300001N1+00651+00561100211ADDAG12999AY161021AY211021GA1011+007509059GF101991011051008001001001MA1100201999999MD1210101+9999MW1211REMSYN011333   81625MET006NOSIG?
0083039620999991989011123304+52700-008917FM-15+0020EINN V0202301N00511005401CN0080001N1+00701+00501999999ADDAG12011GA1031+003609079GA2061+005409099MA1100201999999MW1811REMMET011GRADU 9999?
0168039620999991989011200004+52700-008917SY-MT+0020EINN V0201901N00461009001CN0300001N1+00631+00441100241ADDAA106003091AG10001AY161061AY251061GA1031+006009099GA2041+009009059GF107991071031008001999999MA1100201999999MD1010111+9999MW1251REMSYN017333   83920 84630MET006NOSIG?
0063039620999991989011200304+52700-008917FM-15+0020EINN V0202001N00571220001CN0112001N1+00601+00401999999ADDAG11999GA1011+006609099MA1100201999999MW1251REMMET007NOSIG ?
0136039620999991989011201004+52700-008917SY-MT+0020EINN V0202001N00511220001CN0300001N1+00601+00411100261ADDAG12999AY181011AY211011GA1021+006609089GF103991031081008001001001MA1100201999999MD1210101+9999MW1251REMSYN011333   82822MET007NOSIG ?
0076039620999991989011201304+52700-008917FM-15+0020EINN V0202101N00461220001CN0112001N1+00601+00301999999ADDAG11999GA1021+006309089MA1100201999999REMMET007NOSIG ?EQDQ01+000000PRSWM2
0133039620999991989011202004+52700-008917SY-MT+0020EINN V0202101N00511220001CN0300001N1+00551+00311100291ADDAG11999GA1011+006609089GF101991011021008001001001MA1100201999999MD1210081+9999REMSYN011333   81822MET007NOSIG ?EQDQ01+000000PRSWM2
0076039620999991989011202304+52700-008917FM-15+0020EINN V0202101N00461220001CN0112001N1+00501+00301999999ADDAG12000GA1011+006609089MA1100311999999REMMET007NOSIG ?EQDQ01+000000PRSWM2
0155039620999991989011203004+52700-008917SY-MT+0020EINN V0202301N00511220001CN0300001N1+00511+00291100351ADDAG12001AY181031AY211031GA1011+006609089GF102991021081008001001001MA1100311999999MD1210121+9999MW1031REMSYN011333   81822MET007NOSIG ?EQDQ01+000000PRSWM2
0136039620999991989011204004+52700-008917SY-MT+0020EINN V0202401N00511220001CN0250001N1+00591+00321100391ADDAG12999AY181011AY211011GA1021+006609089GF102991021021008001001001MA1100311999999MD1210131+9999MW1251REMSYN011333   82822MET007NOSIG+?
0091039620999991989011204304+52700-008917FM-15+0020EINN V0202401N00571012001CN0112001N1+00601+00301999999ADDAG12999GA1021+006609089GA2031+012009059MA1100411999999REMMET006NOSIG?EQDQ01+000000PRSWM2
0157039620999991989011205004+52700-008917SY-MT+0020EINN V0202401N00571011401CN0300001N1+00561+00291100451ADDAG12999AY181021AY211021GA1031+006609089GA2041+011409059GF105991051081008001001001MA1100411999999MD1210161+9999MW1801REMSYN017333   83822 84638MET006NOSIG?
0225039620999991989011206004+52700-008917SY-MT+0020EINN V0202701N00571012001CN0300001N1+00611+00101100561ADDAA199003091AG19001AY181061AY211061GA1011+006609089GA2051+012009059GF105991051081008001001001GJ100009IA1099IA2999+00109KA1120N+00501MA1100511999999MD1310201+9999MW1251REMSYN035333   20050 31001 81822 85640 94000MET006NOSIG?
0157039620999991989011207004+52700-008917SY-MT+0020EINN V0202701N00671015001CN0250001N1+00511+00161100661ADDAG12051AY181011AY221011GA1021+006009089GA2061+015009059GF106991061081008001999999MA1100611999999MD1210271+9999MW1801REMSYN017333   82820 86650MET006NOSIG?
0135039620999991989011208004+52700-008917SY-MT+0020EINN V0202501N00511220001CN0250001N1+00521-00041100741ADDAG12999AY181021AY211021GA1021+006009099GF102991021091008001001001MA1100711999999MD1210291+9999MW1251REMSYN011333   82920MET006NOSIG?
0135039620999991989011209004+52700-008917SY-MT+0020EINN V0202701N00461220001CN0300001N1+00511+00011100871ADDAG12001AY181031AY211031GA1021+006009099GF103991031091008001001001MA1100811999999MD1210311+9999MW1251REMSYN011333   82920MET006NOSIG?
0132039620999991989011210004+52700-008917SY-MT+0020EINN V0202301N00461220001CN0400001N1+00621+00141100961ADDAG12999GA1011+006009099GF102991021091008001001001MA1100911999999MD1210301+9999REMSYN011333   81920MET006NOSIG?EQDQ01+000000PRSWM2
0075039620999991989011211004+52700-008917FM-15+0020EINN V0202301N00411220001CN0112001N1+00701+00201999999ADDAG12999GA1021+006009099MA1101021999999REMMET006NOSIG?EQDQ01+000000PRSWM2
0176039620999991989011212004+52700-008917SY-MT+0020EINN V0202601N00671006001CN0200001N1+00761+00231101161ADDAA106000191AG19002GA1021+003609079GA2051+006009099GA3031+075009009GF107991061091004501999031MA1101081999999MD1210291+9999OC101181REMSYN023333   82712 85920 83070MET006NOSIG?
0135039620999991989011213004+52700-008917SY-MT+0020EINN V0202001N00571220001CN0300001N1+00571+00231101211ADDAG12051AY181011AY211011GA1021+006009099GF103991021031008001001031MA1101191999999MD1210251+9999MW1251REMSYN011333   82920MET006NOSIG?
0141039620999991989011214004+52700-008917SY-MT+0020EINN V0202001N00721007501CN0250001N1+00541+00291101261ADDAG12999AY181021AY211021GA1031+006009099GF105991051031008001001001MA1101191999999MD1210201+9999MW1251REMSYN017333   83920 81820MET006NOSIG?
0135039620999991989011215004+52700-008917SY-MT+0020EINN V0202501N00671220001CN0250001N1+00641+00221101321ADDAG12001AY181031AY211031GA1031+006009099GF103991031091008001001001MA1101291999999MD1210161+9999MW1251REMSYN011333   83920MET006NOSIG?
0175039620999991989011216004+52700-008917SY-MT+0020EINN V0202901N00461220001CN0250001N1+00441+00181101491ADDAG12053AY181011AY211011GA1011+002709079GA2031+006009099GF103991031091002501001001MA1101391999999MD1310281+9999MW1271REMSYN035333   81709 83920 98433 90090 99720MET006NOSIG?
0136039620999991989011217004+52700-008917SY-MT+0020EINN V0202501N00411220001CN0400001N1+00511+00211101571ADDAG12999AY181021AY211021GA1031+006009099GF103991031091008001001001MA1101491999999MD1210311+9999MW1251REMSYN011333   83920MET007NOSIG+?
0092039620999991989011217304+52700-008917FM-15+0020EINN V0203001N00151220001CN0090001N1+00501+00301999999ADDAG12004GA1011+002109079GA2041+005409099MA1101591999999MW1801REMMET0209999 TO SE SW NOSIG?
0193039620999991989011218004+52700-008917SY-MT+0020EINN V0201801N00261220001CN0250001N1+00421+00221101651ADDAA199001091AG10001AY181061AY211061GA1011+002409079GA2021+005409099GF102991021031002501001001KA1120M+00811MA1101591999999MD1210331+9999MW1251REMSYN029333   10081 81708 82918 99720MET006NOSIG?
0132039620999991989011219004+52700-008917SY-MT+0020EINN V0202001N00311220001CN0250001N1+00341+00131101761ADDAG12999GA1011+005409099GF101991011031004501001001MA1101691999999MD1210271+9999REMSYN011333   81918MET006NOSIG?EQDQ01+000000PRSWM2
0075039620999991989011219304+52700-008917FM-15+0020EINN V0202001N00361220001CN0112001N1+00401+00101999999ADDAG12999GA1011+005409089MA1101801999999REMMET006NOSIG?EQDQ01+000000PRSWM2
0132039620999991989011220004+52700-008917SY-MT+0020EINN V0201801N00311220001CN0300001N1+00371+00111101821ADDAG12999GA1011+005409089GF101991011021004501001001MA1101801999999MD1210251+9999REMSYN011333   81818MET006NOSIG?EQDQ01+000000PRSWM2
0154039620999991989011221004+52700-008917SY-MT+0020EINN V0202001N00411015001CN0300001N1+00401+00141101911ADDAG12000GA1011+005409089GA2041+015009059GF105991051081004501999999MA1101901999999MD1210261+9999REMSYN017333   81818 84650MET006NOSIG?EQDQ01+000000PRSWM2
0152039620999991989011222004+52700-008917SY-MT+0020EINN V0201801N00511220001CN0300001N1+00431+00171101941ADDAG12999GA1021+075009009GF102991001001999999001011GJ102109MA1101901999999MD1110181+9999REMSYN017333   82075 94035MET012CAVOK NOSIG?EQDQ01+000000PRSWM2
0065039620999991989011222304+52700-008917FM-15+0020EINN V0201601N00461999991CY0099001N1+00401+00101999999ADDAG12999MA1101901999999REMMET012CAVOK NOSIG?EQDQ01+000000PRSWM2
0160039620999991989011223004+52700-008917SY-MT+0020EINN V0201701N00411075001CN0300001N1+00401+00111101941ADDAG12999GA1021+015009059GF105991021051017501999051MA1101901999999MD1110121+9999REMSYN017333   82650 84275MET012CAVOK NOSIG?EQDQ01+000000PRSWM2Q02    003SCOMCG
0065039620999991989011223304+52700-008917FM-15+0020EINN V0201501N00461999991CY0099001N1+00401+00201999999ADDAG12000MA1101801999999REMMET012CAVOK NOSIG?EQDQ01+000000PRSWM2
0149039620999991989011300004+52700-008917SY-MT+0020EINN V0201601N00461075001CN0300001N1+00381+00121101851ADDAA106000091AG14000GA1051+075009029GF105991001001999999001061MA1101801999999MD1810061+9999REMSYN011333   85275MET012CAVOK NOSIG?EQDQ01+000000PRSWM2
0065039620999991989011300304+52700-008917FM-15+0020EINN V0201401N00511999991CY0099001N1+00401+00101999999ADDAG11999MA1101691999999REMMET012CAVOK NOSIG?EQDQ01+000000PRSWM2
0160039620999991989011301004+52700-008917SY-MT+0020EINN V0201401N00571220001CN0300001N1+00391+00071101781ADDAG11999GA1011+015009059GF103991011051017501999021MA1101691999999MD1810161+9999REMSYN017333   81650 83070MET012CAVOK NOSIG?EQDQ01+000000PRSWM2Q02    003SCOMCG
