0209039620999991990010100004+52700-008917SY-MT+0020EINN V0201701N00311009001CN0250001N1+00781+00691100571ADDAA106003091AG10001AY161061AY221061GA1021+005409079GA2031+009009059GA3071+013509059GF107991071051004501999999MA1100511999999MD1310111+9999MW1011REMSYN023333   82718 83630 87645MET006NOSIG?EQDQ01+000000PRSWM2
0107039620999991990010100304+52700-008917FM-15+0020EINN V0201701N00211015001CN0112001N1+00801+00701999999ADDAG11999GA1011+005409079GA2031+009009059GA3061+015009059MA1100511999999REMMET006NOSIG?EQDQ01+000000PRSWM2
0177039620999991990010101004+52700-008917SY-MT+0020EINN V0201601N00261015001CN0300001N1+00761+00671100581ADDAG11999GA1011+005409079GA2031+009009059GA3061+015009059GF106991061051004501999999MA1100511999999MD1110121+9999REMSYN023333   81718 83630 86650MET007NOSIG+?EQDQ01+000000PRSWM2
0110039620999991990010101304+52700-008917FM-15+0020EINN V0201601N00311015001CN0112001N1+00701+00601999999ADDAG11999GA1011+005409079GA2051+015009059MA1100511999999REMMET025NC050 08/07 1005 NOSIG+ ?EQDQ01+000000PRSWM2
0160039620999991990010102004+52700-008917SY-MT+0020EINN V0201501N00211015001CN0300001N1+00721+00631100611ADDAG11999GA1011+005409079GA2061+015009059GF106991061051004501999999MA1100611999999MD1210101+9999MW1001REMSYN017333   81718 86650MET006NOSIG?EQDQ01+000000PRSWM2
0091039620999991990010102304+52700-008917FM-15+0020EINN V0201601N00361018001CN0112001N1+00701+00601999999ADDAG11000GA1011+005409079GA2051+018009059MA1100511999999REMMET006NOSIG?EQDQ01+000000PRSWM2
0182039620999991990010103004+52700-008917SY-MT+0020EINN V0201701N00361018001CN0300001N1+00681+00521100641ADDAG12000GA1011+006009089GA2031+009009059GA3051+018009059GF106991061081008001999999MA1100611999999MD1210071+9999MW1001REMSYN023333   81820 83630 85656MET006NOSIG?EQDQ01+000000PRSWM2
0091039620999991990010103304+52700-008917FM-15+0020EINN V0201701N00261220001CN0112001N1+00701+00501999999ADDAG12999GA1011+006009089GA2031+018009059MA1100611999999REMMET006NOSIG?EQDQ01+000000PRSWM2
0170039620999991990010104004+52700-008917SY-MT+0020EINN V0201401N00261018001CN0300001N1+00631+00491100641ADDAG12999GA1011+006009089GA2041+018009059GF105991051081008001999001MA1100611999999MD1110061+9999REMSYN017333   81820 84656MET006NOSIG?EQDQ01+000000PRSWM2Q02    003SCOMCG
0091039620999991990010104304+52700-008917FM-15+0020EINN V0201701N00261220001CN0112001N1+00601+00501999999ADDAG12999GA1011+006009089GA2031+018009059MA1100611999999REMMET006NOSIG?EQDQ01+000000PRSWM2
0170039620999991990010105004+52700-008917SY-MT+0020EINN V0201601N00261220001CN0300001N1+00621+00461100681ADDAG12999GA1011+006009089GA2031+018009059GF103991031081008001999001MA1100611999999MD1210081+9999REMSYN017333   81820 83656MET006NOSIG?EQDQ01+000000PRSWM2Q02    003SCOMCG
0075039620999991990010105304+52700-008917FM-15+0020EINN V0201601N00311220001CN0112001N1+00601+00401999999ADDAG12000GA1011+006009089MA1100711999999REMMET006NOSIG?EQDQ01+000000PRSWM2
0206039620999991990010106004+52700-008917SY-MT+0020EINN V0201501N00261220001CN0300001N1+00571+00431100701ADDAA199003091AG10000GA1011+006009089GF101991011021008001001001GJ100189IA1099IA2999+00309KA1120N+00571MA1100611999999MD1210061+9999MW1001REMSYN029333   20057 31003 55003 81820MET006NOSIG?EQDQ01+000000PRSWM2
0075039620999991990010106304+52700-008917FM-15+0020EINN V0201501N00361220001CN0112001N1+00601+00401999999ADDAG12999GA1011+006009089MA1100711999999REMMET006NOSIG?EQDQ01+000000PRSWM2
0138039620999991990010107004+52700-008917SY-MT+0020EINN V0201401N00261220001CN0300001N1+00541+00441100761ADDAG12999GA1011+006009089GF101991011021008001001001MA1100711999999MD1210121+9999MW1001REMSYN011333   81820MET006NOSIG?EQDQ01+000000PRSWM2
0075039620999991990010107304+52700-008917FM-15+0020EINN V0201501N00211220001CN0112001N1+00501+00401999999ADDAG12999GA1011+006009089MA1100711999999REMMET006NOSIG?EQDQ01+000000PRSWM2
0160039620999991990010108004+52700-008917SY-MT+0020EINN V0201501N00261220001CN0300001N1+00491+00371100801ADDAG12999GA1021+015009059GF102991021051017501999001MA1100811999999MD1310111+9999MW1001REMSYN011333   82650MET012CAVOK NOSIG?EQDQ01+000000PRSWM2Q02    003SCOMCG
0091039620999991990010108304+52700-008917FM-15+0020EINN V0201501N00261220001CN0112001N1+00601+00401999999ADDAG12000GA1011+006009099GA2031+018009059MA1100811999999REMMET006NOSIG?EQDQ01+000000PRSWM2
0176039620999991990010109004+52700-008917SY-MT+0020EINN V0201801N00261220001CN0400001N1+00551+00361100851ADDAG12000GA1011+006009089GA2041+018009059GF104991041081008001999001MA1100811999999MD1210151+9999MW1001REMSYN017333   81820 84656MET006NOSIG?EQDQ01+000000PRSWM2Q02    003SCOMCG
0092039620999991990010109304+52700-008917FM-15+0020EINN V0203501N00151220001CN0112001N1+00501+00401999999ADDAG12999GA1011+006009089GA2041+015009059MA1100811999999REMMET007NOASIG?EQDQ01+000000PRSWM2
0160039620999991990010110004+52700-008917SY-MT+0020EINN V0201401N00261024001CN0400001N1+00541+00371100881ADDAG12999GA1011+006009099GA2051+024009049GF106991021091008001071999MA1100811999999MD1210121+9999MW1001REMSYN017333   81920 85458MET006NOSIG?EQDQ01+000000PRSWM2
0091039620999991990010110304+52700-008917FM-15+0020EINN V0201601N00311220001CN0112001N1+00501+00401999999ADDAG12999GA1011+006009099GA2031+024009049MA1100811999999REMMET006NOSIG?EQDQ01+000000PRSWM2
0154039620999991990010111004+52700-008917SY-MT+0020EINN V0201701N00261060001CN0500001N1+00641+00381100911ADDAG12999GA1011+006009099GA2041+060009009GF105991011091008001071021MA1100911999999MD1210111+9999REMSYN017333   81920 84070MET006NOSIG?EQDQ01+000000PRSWM2
0091039620999991990010111304+52700-008917FM-15+0020EINN V0201701N00151220001CN0112001N1+00701+00401999999ADDAG12000GA1011+006009099GA2031+060009009MA1100911999999REMMET006NOSIG?EQDQ01+000000PRSWM2
0149039620999991990010112004+52700-008917SY-MT+0020EINN V0201801N00411220001CN0500001N1+00751+00411100911ADDAA106999929AG10000GA1011+006009099GF103991011091008001021021MA1100911999999MD1010061+9999MW1001REMSYN011333   81920MET006NOSIG?EQDQ01+000000PRSWM2
0075039620999991990010112304+52700-008917FM-15+0020EINN V0201801N00361220001CN0112001N1+00801+00401999999ADDAG12999GA1011+006009099MA1100911999999REMMET006NOSIG?EQDQ01+000000PRSWM2
0132039620999991990010113004+52700-008917SY-MT+0020EINN V0201801N00411220001CN0500001N1+00841+00401100941ADDAG12999GA1011+006009099GF102991011091008001021031MA1100911999999MD1210061+9999REMSYN011333   81920MET006NOSIG?EQDQ01+000000PRSWM2
0075039620999991990010113304+52700-008917FM-15+0020EINN V0201901N00361220001CN0112001N1+00901+00501999999ADDAG12999GA1021+006009099MA1100911999999REMMET006NOSIG?EQDQ01+000000PRSWM2
0091039620999991990010114004+52700-008917FM-15+0020EINN V0202101N00361220001CN0112001N1+00801+00501999999ADDAG12999GA1011+003009079GA2031+006009099MA1100911999999REMMET006NOSIG?EQDQ01+000000PRSWM2
0092039620999991990010114304+52700-008917FM-15+0020EINN V0201801N00361220001CN0112001N1+00701+00401999999ADDAG12000GA1011+003009079GA2031+006009099MA1100911999999REMMET007NODSIG?EQDQ01+000000PRSWM2
0182039620999991990010115004+52700-008917SY-MT+0020EINN V0201701N00361012601CN0400001N1+00751+00411100941ADDAG12000GA1011+003609079GA2021+006009099GA3041+012609059GF105991051031004501999999MA1100911999999MD1010031+9999MW1001REMSYN023333   81712 82920 84642MET006NOSIG?EQDQ01+000000PRSWM2
0091039620999991990010115304+52700-008917FM-15+0020EINN V0201701N00511220001CN0112001N1+00701+00201999999ADDAG12999GA1011+003609079GA2021+006009099MA1100911999999REMMET006NOSIG?EQDQ01+000000PRSWM2
0154039620999991990010116004+52700-008917SY-MT+0020EINN V0201601N00461220001CN0400001N1+00711+00221100931ADDAG12999GA1011+004509079GA2011+006009099GF101991011031004501001021MA1100911999999MD1810011+9999REMSYN017333   81715 81920MET006NOSIG?EQDQ01+000000PRSWM2
0075039620999991990010116304+52700-008917FM-15+0020EINN V0201701N00411220001CN0112001N1+00601+00201999999ADDAG12999GA1011+005409099MA1100911999999REMMET006NOSIG?EQDQ01+000000PRSWM2
0138039620999991990010117004+52700-008917SY-MT+0020EINN V0201501N00361220001CN0300001N1+00561+00271100961ADDAG12999GA1011+006009059GF101991011041008001001001MA1100911999999MD1310011+9999MW1001REMSYN011333   81620MET006NOSIG?EQDQ01+000000PRSWM2
0075039620999991990010117304+52700-008917FM-15+0020EINN V0201401N00311220001CN0112001N1+00501+00301999999ADDAG12000GA1011+009009059MA1100911999999REMMET006NOSIG?EQDQ01+000000PRSWM2
0168039620999991990010118004+52700-008917SY-MT+0020EINN V0201201N00311220001CN0250001N1+00451+00301100971ADDAA199999929AG10000GA1011+009009059GF101991011051012501001021KA1120M+00921MA1100911999999MD1310031+9999MW1001REMSYN017333   10092 81630MET006NOSIG?EQDQ01+000000PRSWM2
0065039620999991990010118304+52700-008917FM-15+0020EINN V0201401N00411999991CY0099001N1+00401+00301999999ADDAG12999MA1100911999999REMMET012CAVOK NOSIG?EQDQ01+000000PRSWM2
0111039620999991990010119004+52700-008917SY-MT+0020EINN V0201201N00361220001CN0180001N1+00421+00241100961ADDAG12999GF100991001001999999001001MA1100911999999MD1010031+9999MW1001REMMET012CAVOK NOSIG?EQDQ01+000000PRSWM2
0065039620999991990010119304+52700-008917FM-15+0020EINN V0201101N00361999991CY0099001N1+00501+00301999999ADDAG12999MA1100911999999REMMET012CAVOK NOSIG?EQDQ01+000000PRSWM2
0105039620999991990010120004+52700-008917SY-MT+0020EINN V0201201N00411220001CN0180001N1+00481+00311100901ADDAG12999GF100991001001999999001001MA1100911999999MD1810061+9999REMMET012CAVOK NOSIG?EQDQ01+000000PRSWM2
0108039620999991990010121004+52700-008917FM-12+0020EINN V0201201N00571060001CN0160001N9+00461+00311100881ADDAG12000GA1011+009009059GA2051+060009029GF105991011051012501001061MD1710091+9999REMSYN017333   81630 85270
0144039620999991990010122004+52700-008917SY-MT+0020EINN V0201101N00621220001CN0160001N1+00481+00331100821ADDAG12999GA1041+060009009GF104991001001999999001021MA1100811999999MD1710141+9999MW1001REMSYN011333   84070MET012CAVOK NOSIG?EQDQ01+000000PRSWM2
0144039620999991990010123004+52700-008917SY-MT+0020EINN V0201101N00671060001CN0160001N1+00561+00371100721ADDAG12999GA1071+060009029GF107991001001999999001061MA1100711999999MD1610181+9999MW1001REMSYN011333   87270MET012CAVOK NOSIG?EQDQ01+000000PRSWM2
0065039620999991990010123304+52700-008917FM-15+0020EINN V0201101N00721999991CY0099001N1+00701+00401999999ADDAG12000MA1100611999999REMMET012CAVOK NOSIG?EQDQ01+000000PRSWM2
0155039620999991990010200004+52700-008917SY-MT+0020EINN V0201101N00671060001CN0400001N1+00671+00441100571ADDAA106999929AG10000GA1071+060009029GF107991001001999999001061MA1100511999999MD1710311+9999MW1001REMSYN011333   87270MET012CAVOK NOSIG?EQDQ01+000000PRSWM2
0179039620999991990010201004+52700-008917SY-MT+0020EINN V0201201N00931060001CN0400001N1+00801+00411100401ADDAG11999GA1021+012009059GA2071+060009029GF107991021051012501001061MA1100411999999MD1710421+9999MW1001REMSYN017333   82640 87270MET025TEMPO 5000 5ST008 6CB015?EQDQ01+000000PRSWM2
0097039620999991990010201304+52700-008917FM-15+0020EINN V0201201N00931005401CN0112001N1+00801+00601999999ADDAG11999GA1031+002409079GA2071+005409099MA1100311999999MW1801REMMET025TEMPO 5000 5ST008 6CB015?
0186039620999991990010202004+52700-008917SY-MT+0020EINN V0201501N01231005401CN0080001N1+00831+00631100281ADDAG12999AY181021AY221021GA1031+002409079GA2071+005409099GF108991081031002501999999MA1100201999999MD1710441+9999MW1811OA149902261REMSYN023333   83708 87918 91144MET018TEMPO 5000 5ST008?
0094039620999991990010202304+52700-008917FM-15+0020EINN V0201501N00721004501CN0112001N1+00601+00501999999ADDAG12007GA1021+002409079GA2041+004509079GA3081+009009059MA1100201999999MW1611REMMET006NOSIG?
0130039620999991990010203004+52700-008917SY-MT+0020EINN V0201401N00511012001CN0300001N1+00621+00481100261ADDAG12002AY181031AY261031GA1021+004509079GA2081+012009059GF108991081051004501999999MA1100201999999MD1510311+9999MW1611OA140101851
0108039620999991990010204004+52700-008917FM-12+0020EINN V0201501N00671220001CN0300001N9+00601+00461100271ADDAG12999AY161011AY211011GA1011+006009059GF101991011051008001001001MD1610131+9999MW1211REMSYN011333   81620
0108039620999991990010205004+52700-008917FM-12+0020EINN V0201601N00721012001CN0250001N9+00671+00461100281ADDAG12999AY181021AY211021GA1041+006009089GF105991051081008001001001MD1510001+9999MW1801REMSYN011333   84820
0062039620999991990010205304+52700-008917FM-15+0020EINN V0201701N00671220001CN0112001N1+00701+00301999999ADDAG12001GA1011+006009089MA1100201999999MW1251REMMET006NOSIG?
0203039620999991990010206004+52700-008917SY-MT+0020EINN V0201701N00621220001CN0300001N1+00611+00321100311ADDAA199007091AG19001AY181061AY261061GA1011+006009089GF101991011021008001001001GJ102229IA1099IA2999+00109KA1120N+00421MA1100311999999MD1210051+9999MW1251REMSYN029333   20042 31001 55037 81820MET006NOSIG?
0075039620999991990010206304+52700-008917FM-15+0020EINN V0201701N00511220001CN0112001N1+00601+00301999999ADDAG12999GA1011+006009089MA1100311999999REMMET006NOSIG?EQDQ01+000000PRSWM2
0138039620999991990010207004+52700-008917SY-MT+0020EINN V0201701N00571220001CN0300001N1+00641+00301100411ADDAG12999GA1011+006009089GF101991011021008001001001MA1100411999999MD1310141+9999MW1001REMSYN011333   81820MET006NOSIG?EQDQ01+000000PRSWM2
0075039620999991990010207304+52700-008917FM-15+0020EINN V0201701N00511220001CN0112001N1+00601+00301999999ADDAG12999GA1011+006009089MA1100411999999REMMET006NOSIG?EQDQ01+000000PRSWM2
0086039620999991990010208004+52700-008917FM-12+0020EINN V0201601N00511220001CN0300001N9+00591+00321100501ADDAG12999GA1011+006009089GF101991011081008001001001MD1310221+9999REMSYN011333   81820
0075039620999991990010208304+52700-008917FM-15+0020EINN V0201501N00461220001CN0112001N1+00601+00301999999ADDAG12000GA1011+006009099MA1100511999999REMMET006NOSIG?EQDQ01+000000PRSWM2
0138039620999991990010209004+52700-008917SY-MT+0020EINN V0201501N00361220001CN0300001N1+00571+00281100571ADDAG12000GA1011+006009099GF102991021091008001001031MA1100511999999MD1210261+9999MW1001REMSYN011333   81920MET006NOSIG?EQDQ01+000000PRSWM2
0075039620999991990010209304+52700-008917FM-15+0020EINN V0201601N00511220001CN0112001N1+00501+00301999999ADDAG12999GA1011+006009099MA1100611999999REMMET006NOSIG?EQDQ01+000000PRSWM2
0132039620999991990010210004+52700-008917SY-MT+0020EINN V0201601N00511220001CN0400001N1+00561+00271100651ADDAG12999GA1011+006009099GF101991011031008001001021MA1100611999999MD1210241+9999REMSYN011333   81920MET006NOSIG?EQDQ01+000000PRSWM2
0075039620999991990010210304+52700-008917FM-15+0020EINN V0201401N00361220001CN0112001N1+00601+00301999999ADDAG12999GA1011+006009099MA1100611999999REMMET006NOSIG?EQDQ01+000000PRSWM2
0086039620999991990010211004+52700-008917FM-12+0020EINN V0201601N00571220001CN0400001N9+00701+00291100711ADDAG12999GA1011+006009099GF101991011031008001001021MD1210211+9999REMSYN011333   81920
0075039620999991990010211304+52700-008917FM-15+0020EINN V0201501N00511220001CN0112001N1+00701+00401999999ADDAG12000GA1011+006009099MA1100711999999REMMET006NOSIG?EQDQ01+000000PRSWM2
0171039620999991990010212004+52700-008917SY-MT+0020EINN V0201401N00411220001CN0400001N1+00661+00431100721ADDAA106000091AG14000GA1011+006009099GA2031+075009009GF103991011031008001001021MA1100711999999MD1210151+9999MW1001REMSYN017333   81920 83075MET006NOSIG?EQDQ01+000000PRSWM2
0091039620999991990010212304+52700-008917FM-15+0020EINN V0201401N00411075001CN0112001N1+00701+00401999999ADDAG12999GA1021+006009099GA2041+075009009MA1100611999999REMMET006NOSIG?EQDQ01+000000PRSWM2
0160039620999991990010213004+52700-008917SY-MT+0020EINN V0201401N00411220001CN0300001N1+00751+00411100691ADDAG12999GA1021+006009099GA2041+075009009GF104991041031008001001021MA1100611999999MD1010041+9999MW1001REMSYN017333   82920 84075MET006NOSIG?EQDQ01+000000PRSWM2
0091039620999991990010213304+52700-008917FM-15+0020EINN V0201401N00461060001CN0112001N1+00801+00401999999ADDAG12999GA1011+006009099GA2051+060009029MA1100611999999REMMET006NOSIG?EQDQ01+000000PRSWM2
0160039620999991990010214004+52700-008917SY-MT+0020EINN V0201501N00511060001CN0300001N1+00791+00401100651ADDAG12999GA1011+006009099GA2051+060009029GF106991011031008001001061MA1100611999999MD1810051+9999MW1001REMSYN017333   81920 85270MET006NOSIG?EQDQ01+000000PRSWM2
0091039620999991990010214304+52700-008917FM-15+0020EINN V0201601N00571060001CN0112001N1+00801+00401999999ADDAG12000GA1011+006009099GA2071+060009029MA1100611999999REMMET006NOSIG?EQDQ01+000000PRSWM2
0160039620999991990010215004+52700-008917SY-MT+0020EINN V0201501N00511060001CN0300001N1+00781+00461100691ADDAG12000GA1011+006009099GA2071+060009029GF107991011031008001001061MA1100611999999MD1510031+9999MW1001REMSYN017333   81920 87270MET006NOSIG?EQDQ01+000000PRSWM2
0091039620999991990010215304+52700-008917FM-15+0020EINN V0201301N00411060001CN0112001N1+00801+00501999999ADDAG12999GA1011+006009099GA2071+060009029MA1100611999999REMMET006NOSIG?EQDQ01+000000PRSWM2
0176039620999991990010216004+52700-008917SY-MT+0020EINN V0201201N00571009001CN0300001N1+00771+00531100711ADDAG12999GA1011+006009089GA2051+009009059GA3071+060009029GF107991051081008001999061MA1100711999999MD1310021+9999REMSYN023333   81820 84630 87270MET006NOSIG?EQDQ01+000000PRSWM2
0107039620999991990010216304+52700-008917FM-15+0020EINN V0201201N00511060001CN0112001N1+00801+00501999999ADDAG12999GA1011+006009089GA2031+009009059GA3071+060009029MA1100711999999REMMET006NOSIG?EQDQ01+000000PRSWM2
0192039620999991990010217004+52700-008917SY-MT+0020EINN V0201401N00461060001CN0300001N1+00731+00451100751ADDAG12999GA1011+006009089GA2031+015009059GA3081+060009029GF108991031081008001999071MA1100711999999MD1210091+9999REMSYN023333   81820 83650 88270MET006NOSIG?EQDQ01+000000PRSWM2Q02    003SCOMCG
0179039620999991990010218004+52700-008917FM-12+0020EINN V0201501N00361060001CN0300001N9+00671+00391100731ADDAA199999929AG10000GA1011+006009089GA2031+015009059GA3071+060009029GF107991031081008001999081KA1120M+00801MD1010041+9999REMSYN029333   10080 81820 83650 87270EQDQ01    003SCOMCG
0107039620999991990010218304+52700-008917FM-15+0020EINN V0201301N00311060001CN0112001N1+00701+00401999999ADDAG12999GA1011+006009089GA2031+015009059GA3071+060009029MA1100711999999REMMET006NOSIG?EQDQ01+000000PRSWM2
0192039620999991990010219004+52700-008917SY-MT+0020EINN V0201101N00311060001CN0300001N1+00671+00441100771ADDAG12999GA1011+006009089GA2031+015009059GA3071+060009029GF107991031081008001999081MA1100711999999MD1210061+9999REMSYN023333   81820 83650 87270MET006NOSIG?EQDQ01+000000PRSWM2Q02    003SCOMCG
0107039620999991990010219304+52700-008917FM-15+0020EINN V0201301N00411060001CN0112001N1+00601+00401999999ADDAG12999GA1011+009009059GA2031+015009059GA3071+060009029MA1100711999999REMMET006NOSIG?EQDQ01+000000PRSWM2
0198039620999991990010220004+52700-008917SY-MT+0020EINN V0201401N00461060001CN0300001N1+00661+00451100761ADDAG12999GA1011+009009059GA2031+015009059GA3071+060009029GF107991031051012501999081MA1100711999999MD1310011+9999MW1001REMSYN023333   81630 83650 87270MET006NOSIG?EQDQ01+000000PRSWM2Q02    003SCOMCG
0198039620999991990010221004+52700-008917SY-MT+0020EINN V0201301N00411060001CN0250001N1+00641+00431100791ADDAG12000GA1011+009009059GA2031+015009059GA3071+060009029GF107991031051012501999081MA1100711999999MD1210061+9999MW1001REMSYN023333   81630 83650 87270MET006NOSIG?EQDQ01+000000PRSWM2Q02    003SCOMCG
0107039620999991990010221304+52700-008917FM-15+0020EINN V0201401N00511060001CN0112001N1+00701+00401999999ADDAG12999GA1011+009009059GA2031+015009059GA3071+060009029MA1100811999999REMMET006NOSIG?EQDQ01+000000PRSWM2
0160039620999991990010222004+52700-008917SY-MT+0020EINN V0201301N00411015001CN0300001N1+00681+00451100831ADDAG12999GA1051+015009059GF107991051051017501999081MA1100811999999MD1310061+9999REMSYN017333   85650 87270MET012CAVOK NOSIG?EQDQ01+000000PRSWM2Q02    003SCOMCG
0094039620999991990010222304+52700-008917FM-15+0020EINN V0201501N00311009001CN0112001N1+00701+00501999999ADDAG12999GA1011+003009079GA2051+009009059GA3071+015009059MA1100811999999MW1211REMMET006NOSIG?
0179039620999991990010223004+52700-008917SY-MT+0020EINN V0201301N00361009001CN0300001N1+00691+00511100841ADDAG12999AY161021AY221021GA1011+004509079GA2051+009009059GA3081+015009059GF108991081051004501999999MA1100811999999MD1210081+9999MW1211REMSYN023333   81715 85630 88650MET006NOSIG?
0094039620999991990010223304+52700-008917FM-15+0020EINN V0201401N00361008101CN0112001N1+00701+00501999999ADDAG12002GA1021+001809079GA2051+008109059GA3081+015009059MA1100811999999MW1601REMMET006NOSIG?
0168039620999991990010300004+52700-008917SY-MT+0020EINN V0201201N00311009001CN0300001N1+00651+00541100831ADDAA106001091AG10001AY161061AY211061GA1051+009009059GA2081+015009059GF108991081051012501999999MA1100811999999MD1010041+9999MW1211REMSYN017333   85630 88650MET006NOSIG?
0092039620999991990010300304+52700-008917FM-15+0020EINN V0201301N00311009001CN0112001N1+00601+00501999999ADDAG11999GA1051+009009059GA2071+015009059MA1100811999999REMMET007NOSIG+?EQDQ01+000000PRSWM2
0160039620999991990010301004+52700-008917SY-MT+0020EINN V0201401N00211015001CN0300001N1+00621+00461100851ADDAG11999GA1041+009009059GA2071+015009059GF108991081051012501999999MA1100811999999MD1310021+9999MW1001REMSYN017333   84630 87650MET006NOSIG?EQDQ01+000000PRSWM2
0091039620999991990010301304+52700-008917FM-15+0020EINN V0201501N00211015001CN0112001N1+00601+00501999999ADDAG11999GA1031+009009059GA2051+015009059MA1100811999999REMMET006NOSIG?EQDQ01+000000PRSWM2
0138039620999991990010302004+52700-008917SY-MT+0020EINN V0201101N00411009001CN0300001N1+00591+00431100891ADDAG12999GA1051+009009059GF105991051051012501999999MA1100811999999MD1310051+9999MW1001REMSYN011333   85630MET006NOSIG?EQDQ01+000000PRSWM2
0091039620999991990010302304+52700-008917FM-15+0020EINN V0201101N00411018001CN0112001N1+00601+00401999999ADDAG12000GA1031+009009059GA2061+018009059MA1100811999999REMMET006NOSIG?EQDQ01+000000PRSWM2
0160039620999991990010303004+52700-008917SY-MT+0020EINN V0201301N00311018001CN0300001N1+00571+00431100891ADDAG12000GA1031+010509059GA2051+018009059GF106991061051012501999999MA1100811999999MD1110061+9999MW1001REMSYN017333   83635 85656MET006NOSIG?EQDQ01+000000PRSWM2
0091039620999991990010303304+52700-008917FM-15+0020EINN V0201001N00311009001CN0112001N1+00501+00401999999ADDAG12999GA1051+009009059GA2051+018009059MA1100811999999REMMET006NOSIG?EQDQ01+000000PRSWM2
0108039620999991990010304004+52700-008917FM-12+0020EINN V0200801N00311018001CN0300001N9+00531+00381100871ADDAG12999GA1031+010509059GA2061+018009059GF107991071051012501999999MD1010021+9999REMSYN017333   83635 86656
0083039620999991990010304304+52700-008917FM-15+0020EINN V0201201N00261018001CN0112001N1+00501+99999999999ADDAG12999GA1041+010509059GA2071+018009059REMMET013041008 NOSIG?EQDQ01+000000PRSWM2
0160039620999991990010305004+52700-008917SY-MT+0020EINN V0201101N00261018001CN0300001N1+00551+00411100901ADDAG12999GA1031+010509059GA2071+018009059GF107991071051012501999999MA1100911999999MD1310011+9999MW1001REMSYN017333   83635 87656MET006NOSIG?EQDQ01+000000PRSWM2
0091039620999991990010305304+52700-008917FM-15+0020EINN V0201201N00261018001CN0112001N1+00601+00401999999ADDAG12000GA1031+010509059GA2071+018009059MA1100911999999REMMET006NOSIG?EQDQ01+000000PRSWM2
0244039620999991990010306004+52700-008917SY-MT+0020EINN V0202901N00101018001CN0300001N1+00501+00381100941ADDAA199001091AG10000GA1021+009009059GA2041+018009059GA3081+030009049GF108991051051012501071999GJ101029IA1099IA2999+00209KA1120N+00461MA1100911999999MD1310041+9999REMSYN041333   20046 31002 55017 82630 84656 88460MET006NOSIG?EQDQ01+000000PRSWM2
0107039620999991990010306304+52700-008917FM-15+0020EINN V0200601N00151018001CN0112001N1+00501+00401999999ADDAG12999GA1021+010509059GA2041+018009059GA3081+030009049MA1100911999999REMMET006NOSIG?EQDQ01+000000PRSWM2
0182039620999991990010307004+52700-008917SY-MT+0020EINN V0201101N00211018001CN0300001N1+00501+00381100951ADDAG12999GA1021+010509059GA2041+018009059GA3081+030009049GF108991051051012501071999MA1100911999999MD1210081+9999MW1001REMSYN023333   82635 84656 88460MET006NOSIG?EQDQ01+000000PRSWM2
0107039620999991990010307304+52700-008917FM-15+0020EINN V0201301N00261018001CN0112001N1+00501+00401999999ADDAG12999GA1021+010509059GA2041+018009059GA3081+030009049MA1100911999999REMMET006NOSIG?EQDQ01+000000PRSWM2
0182039620999991990010308004+52700-008917SY-MT+0020EINN V0201001N00211018001CN0300001N1+00521+00401100991ADDAG12999GA1021+010509059GA2041+018009059GA3081+030009049GF108991051051012501071999MA1100911999999MD1210091+9999MW1001REMSYN023333   82635 84656 88460MET006NOSIG?EQDQ01+000000PRSWM2
0107039620999991990010308304+52700-008917FM-15+0020EINN V0201301N00151018001CN0112001N1+00501+00401999999ADDAG12000GA1021+010509059GA2041+018009059GA3071+030009049MA1101021999999REMMET006NOSIG?EQDQ01+000000PRSWM2
0182039620999991990010309004+52700-008917SY-MT+0020EINN V0201201N00151018001CN0300001N1+00501+00431101041ADDAG12000GA1021+010509059GA2041+018009059GA3071+030009049GF107991051051012501071999MA1101021999999MD1210111+9999MW1001REMSYN023333   82635 84656 87460MET006NOSIG?EQDQ01+000000PRSWM2
0107039620999991990010309304+52700-008917FM-15+0020EINN V0201101N00151018001CN0112001N1+00501+00401999999ADDAG12999GA1021+010509059GA2051+018009059GA3071+030009049MA1101021999999REMMET006NOSIG?EQDQ01+000000PRSWM2
0179039620999991990010310004+52700-008917SY-MT+0020EINN V0201201N00151018001CN0400001N1+00521+00421101051ADDAG12999AY161011AY221011GA1021+010509059GA2061+018009059GA3061+030009049GF107991061051012501071999MA1101021999999MD1010101+9999MW1601REMSYN023333   82635 86656 86460MET006NOSIG?
0107039620999991990010310304+52700-008917FM-15+0020EINN V0201401N00101018001CN0112001N1+00501+00401999999ADDAG12999GA1011+010509059GA2051+018009059GA3061+030009049MA1101021999999REMMET006NOSIG?EQDQ01+000000PRSWM2
0179039620999991990010311004+52700-008917SY-MT+0020EINN V0201201N00101018001CN0400001N1+00541+00421101051ADDAG12999AY161021AY221021GA1011+010509059GA2051+018009059GA3051+030009049GF107991051051012501071999MA1101021999999MD1110061+9999MW1211REMSYN023333   81635 85656 85460MET006NOSIG?
0099039620999991990010311304+52700-008917FM-15+0020EINN V0201301N00311018001CN0112001N1+99999+99999999999ADDAG12000GA1021+009009059GA2071+018009059MA1101021999999REMMET014RJCT00  000000EQDQ01+000000PRSWM2
0187039620999991990010312004+52700-008917SY-MT+0020EINN V0201401N00211018001CN0400001N1+00591+00401101031ADDAA106000391AG10001AY161061AY221061GA1021+009009059GA2071+018009059GF107991071051012501999021MA1101021999999MD1810011+9999MW1021REMSYN017333   82630 87656MET006NOSIG?EQDQ01+000000PRSWM2
0160039620999991990010313004+52700-008917SY-MT+0020EINN V0209991C00001018001CN0300001N1+00591+00481101051ADDAG12999GA1021+002109079GA2071+018009059GF107991071051002501999999MA1101021999999MD1010001+9999MW1001REMSYN017333   82707 87656MET006NOSIG?EQDQ01+000000PRSWM2
0091039620999991990010313304+52700-008917FM-15+0020EINN V0200801N00101015001CN0112001N1+00601+00501999999ADDAG12999GA1011+003009079GA2071+015009059MA1101021999999REMMET006NOSIG?EQDQ01+000000PRSWM2
0176039620999991990010314004+52700-008917SY-MT+0020EINN V0200701N00151015001CN0150001N1+00621+00481101001ADDAG12999GA1021+006009059GA2051+015009059GF105991051051008001999021MA1101021999999MD1710051+9999MW1001REMSYN017333   82620 85650MET006NOSIG?EQDQ01+000000PRSWM2Q02    003SCOMCG
0114039620999991990010314304+52700-008917FM-15+0020EINN V0201301N00051015001CN0112001N1+00601+00501999999ADDAG12000GA1011+003009079GA2041+005109079GA3061+015009059MA1101021999999REMMET013TEMPO 6ST015?EQDQ01+000000PRSWM2
0191039620999991990010315004+52700-008917SY-MT+0020EINN V0201301N00051005101CN0100001N1+00661+00531101001ADDAG12000AY121031AY221031GA1021+002109079GA2051+005109079GA3051+015009059GF107991071061002501999999MA1101021999999MD1610031+9999MW1101REMSYN023333   82707 85717 85650MET018TEMPO 8000 6ST012?
0109039620999991990010315304+52700-008917FM-15+0020EINN V0201001N00101002401CN0040001N1+00701+00501999999ADDAG12999GA1031+001509079GA2051+002409079GA3051+007509059MA1100911999999MW1101REMMET021VIS 10KM SW W  NOSIG?
0197039620999991990010316004+52700-008917SY-MT+0020EINN V0201201N00261001501CN0030001N1+00681+00571101011ADDAG12999AY121011AY221011GA1031+000609079GA2051+001509079GA3051+004209079GF107991071061001501999999MA1101021999999MD1510041+9999MW1101REMSYN029333   83702 85705 85714 98562MET018GRADU 7000 6ST008?
0179039620999991990010317004+52700-008917SY-MT+0020EINN V0203001N00051001201CN0025001N1+00671+00601101081ADDAG12999AY121021AY221021GA1021+000609079GA2051+001209079GA3071+003309079GF108991081061000751999999MA1101021999999MD1310081+9999MW1101REMSYN023333   82702 85704 87711MET006NOSIG?
0094039620999991990010317304+52700-008917FM-15+0020EINN V0209991C00001002701CN0030001N1+00701+00601999999ADDAG12000GA1021+000909079GA2051+002709079GA3071+007509059MA1101081999999MW1101REMMET006NOSIG?
0238039620999991990010318004+52700-008917SY-MT+0020EINN V0209991C00001002701CN0035001N1+00681+00591101151ADDAA199000391AG10000AY121061AY221061GA1011+001509079GA2051+002709079GA3071+007509059GF108991081061002501999999KA1120M+00681MA1101081999999MD1310151+9999MW1101REMSYN035333   10068 81705 85709 87625 98557MET029VIS 7KM SW       ?     NOSIG?
0117039620999991990010318304+52700-008917FM-15+0020EINN V0209991C00001003301CN0040001N1+00701+00601999999ADDAG12999GA1011+001509079GA2051+003309079GA3061+007509059MA1101081999999MW1101REMMET029VIS 8KM SW       ?     NOSIG?
0208039620999991990010319004+52700-008917SY-MT+0020EINN V0201101N00151004201CN0040001N1+00681+00601101161ADDAG12999AY121011AY221011GA1021+002109079GA2061+004209079GA3061+007509059GF108991081061002501999999MA1101081999999MD1110151+9999MW1101REMSYN029333   82707 86714 86625 98558MET029VIS 8KM SW       ?     NOSIG?
0117039620999991990010319304+52700-008917FM-15+0020EINN V0201201N00311015001CN0030001N1+00701+00601999999ADDAG12999GA1011+002109079GA2041+004209079GA3071+015009059MA1101081999999MW1101REMMET029VIS 8KM SW       ?     NOSIG?
0157039620999991990010320004+52700-008917SY-MT+0020EINN V0201201N00311013501CN0030001N1+00671+00581101181ADDAG12021AY121021AY221021GA1031+004509079GA2051+013509059GF106991061051004501999999MA1101081999999MD1110101+9999MW1101REMSYN017333   83715 85645MET006NOSIG?
0078039620999991990010320304+52700-008917FM-15+0020EINN V0201401N00311013501CN0030001N1+00701+00601999999ADDAG12000GA1031+004509079GA2061+013509059MA1101081999999MW1101REMMET006NOSIG?
0195039620999991990010321004+52700-008917SY-MT+0020EINN V0201401N00261013501CN0060001N1+00681+00611101181ADDAG12000AY121031AY221031GA1011+004509079GA2031+009009059GA3061+013509059GF107991071051004501999999MA1101081999999MD1110031+9999MW1101REMSYN023333   81715 83630 86645MET022TEMPO      ?     1200?
0140039620999991990010322004+52700-008917SY-MT+0020EINN V0201701N00211220001CN0080001N1+00621+00551101251ADDAG12999AY121011AY211011GA1041+010209059GF104991041051012501001001MA1101191999999MD1310091+9999MW1101REMSYN011333   84634MET011TEMPO 1200?
0083039620999991990010322304+52700-008917FM-15+0020EINN V0201101N00211010201CN0080001N1+00601+00501999999ADDAG12999GA1021+004809079GA2031+010209059MA1101191999999MW1101REMMET011TEMPO 1200?
0162039620999991990010323004+52700-008917SY-MT+0020EINN V0201501N00361010501CN0080001N1+00651+00541101271ADDAG12999AY121021AY211021GA1031+005409079GA2041+010509059GF105991051051004501001001MA1101191999999MD1310091+9999MW1101REMSYN017333   83718 84635MET011TEMPO 1200?
0192039620999991990010400004+52700-008917SY-MT+0020EINN V0201201N00311015001CN0080001N1+00571+00481101281ADDAA106999929AG10000AY121061AY211061GA1031+006009059GA2041+015009059GF105991051051008001999001MA1101191999999MD1110101+9999MW1101REMSYN017333   83620 84650MET011TEMPO 1200?EQDQ01    003SCOMCG
0067039620999991990010400304+52700-008917FM-15+0020EINN V0201201N00461220001CN0050001N1+00501+00401999999ADDAG11999GA1031+012009059MA1101191999999MW1101REMMET011TEMPO 1500?
0140039620999991990010401004+52700-008917SY-MT+0020EINN V0201301N00411220001CN0050001N1+00481+00411101261ADDAG11999AY111011AY211011GA1031+012009059GF103991031051012501001001MA1101191999999MD1010011+9999MW1101REMSYN011333   83640MET011TEMPO 1500?
0083039620999991990010401304+52700-008917FM-15+0020EINN V0201201N00411060001CN0050001N1+00501+00401999999ADDAG11999GA1021+012009059GA2041+060009009MA1101191999999MW1101REMMET011TEMPO 1500?
0140039620999991990010402004+52700-008917SY-MT+0020EINN V0201201N00361220001CN0050001N1+00471+00371101261ADDAG12999AY111021AY211021GA1041+060009009GF104991001001999999001021MA1101191999999MD1610011+9999MW1101REMSYN011333   84070MET011TEMPO 1500?
0067039620999991990010402304+52700-008917FM-15+0020EINN V0201001N00361060001CN0040001N1+00501+00401999999ADDAG11000GA1051+060009009MA1101191999999MW1101REMMET011TEMPO 1500?
0140039620999991990010403004+52700-008917SY-MT+0020EINN V0201201N00361060001CN0035001N1+00521+00451101271ADDAG11000AY111031AY211031GA1051+060009009GF105991001001999999001021MA1101191999999MD1710011+9999MW1101REMSYN011333   85070MET011TEMPO 1500?
0083039620999991990010403304+52700-008917FM-15+0020EINN V0201201N00311060001CN0035001N1+00501+00401999999ADDAG11999GA1021+009009059GA2061+060009009MA1101191999999MW1101REMMET011TEMPO 1500?
0184039620999991990010404004+52700-008917SY-MT+0020EINN V0201201N00361009001CN0035001N1+00481+00381101201ADDAG11999AY121011AY221011GA1031+002109079GA2031+009009059GA3071+030009049GF108991051061002501071999MA1101191999999MD1810061+9999MW1101REMSYN023333   83707 83630 87460MET011TEMPO 1500?
0083039620999991990010404304+52700-008917FM-15+0020EINN V0201201N00361030001CN0040001N1+00501+00401999999ADDAG11999GA1021+002709079GA2071+030009049MA1101081999999MW1101REMMET011TEMPO 1500?
0184039620999991990010405004+52700-008917SY-MT+0020EINN V0201201N00361006001CN0040001N1+00501+00431101171ADDAG11999AY121021AY221021GA1021+003009079GA2031+006009059GA3081+027009049GF108991041061004501071999MA1101081999999MD1710091+9999MW1101REMSYN023333   82710 83620 88460MET011TEMPO 1500?
0094039620999991990010405304+52700-008917FM-15+0020EINN V0201301N00311006001CN0050001N1+00501+00401999999ADDAG12000GA1021+003309079GA2031+006009059GA3081+027009049MA1101081999999MW1101REMMET006NOSIG?
0225039620999991990010406004+52700-008917SY-MT+0020EINN V0201201N00411027001CN0050001N1+00531+00461101121ADDAA199999929AG10000AY111061AY211061GA1031+004509079GA2081+027009049GF108991041061004501071999GJ100069IA1099IA2999+00009KA1120N+00461MA1101081999999MD1710151+9999MW1101REMSYN035333   20046 31000 55001 83715 88459MET006NOSIG?
0078039620999991990010406304+52700-008917FM-15+0020EINN V0201301N00461027001CN0060001N1+00501+00501999999ADDAG12999GA1031+004509079GA2081+027009049MA1101081999999MW1101REMMET006NOSIG?
0157039620999991990010407004+52700-008917SY-MT+0020EINN V0201201N00511027001CN0060001N1+00611+00521101131ADDAG12999AY121011AY221011GA1031+004509079GA2081+027009049GF108991031061004501071999MA1101081999999MD1610071+9999MW1101REMSYN017333   83715 88459MET006NOSIG?
0078039620999991990010407304+52700-008917FM-15+0020EINN V0201401N00511027001CN0070001N1+00801+00701999999ADDAG12999GA1031+004509079GA2081+027009049MA1101081999999MW1101REMMET006NOSIG?
0157039620999991990010408004+52700-008917SY-MT+0020EINN V0201301N00461027001CN0120001N1+00771+00681101161ADDAG12999AY121021AY221021GA1021+004509079GA2071+027009039GF107991021061004501071999MA1101081999999MD1510011+9999MW1101REMSYN017333   82715 87359MET006NOSIG?
0107039620999991990010408304+52700-008917FM-15+0020EINN V0201501N00461027001CN0112001N1+00801+00701999999ADDAG12000GA1021+004509079GA2051+027009039GA3071+060009029MA1101081999999REMMET006NOSIG?EQDQ01+000000PRSWM2
0179039620999991990010409004+52700-008917SY-MT+0020EINN V0201501N00361060001CN0140001N1+00751+00661101191ADDAG12000AY121031AY221031GA1011+004509079GA2041+027009039GA3051+060009009GF107991011061004501031061MA1101081999999MD1210071+9999MW1101REMSYN023333   81715 84359 85070MET006NOSIG?
0107039620999991990010409304+52700-008917FM-15+0020EINN V0201601N00511060001CN0112001N1+00801+00701999999ADDAG12999GA1011+004509079GA2041+027009039GA3061+060009029MA1101191999999REMMET006NOSIG?EQDQ01+000000PRSWM2
0198039620999991990010410004+52700-008917SY-MT+0020EINN V0201501N00461060001CN0250001N1+00841+00691101221ADDAG12999GA1011+007509059GA2041+018009059GA3081+060009029GF108991041051008001999071MA1101191999999MD1210091+9999MW1001REMSYN023333   81625 84656 88270MET006NOSIG?EQDQ01+000000PRSWM2Q02    003SCOMCG
0107039620999991990010410304+52700-008917FM-15+0020EINN V0201501N00461018001CN0112001N1+00901+00701999999ADDAG12999GA1021+012009059GA2051+018009059GA3081+036009049MA1101191999999REMMET006NOSIG?EQDQ01+000000PRSWM2
0170039620999991990010411004+52700-008917SY-MT+0020EINN V0201601N00411018001CN0300001N1+00911+00721101221ADDAG12999GA1021+012009059GA2051+018009059GA3081+036009049GF108991051051012501021999MA1101191999999MD1110061+9999REMSYN017333   82640 88656MET006NOSIG?EQDQ01+000000PRSWM2
0107039620999991990010411304+52700-008917FM-15+0020EINN V0201601N00671012001CN0112001N1+01001+00701999999ADDAG12000GA1021+005409079GA2031+012009059GA3061+018009059MA1101191999999REMMET006NOSIG?EQDQ01+000000PRSWM2
0187039620999991990010412004+52700-008917SY-MT+0020EINN V0201701N00671018001CN0400001N1+01021+00741101201ADDAA106999929AG10000GA1021+006009059GA2041+018009059GA3081+036009049GF108991051051008001021999MA1101191999999MD1010011+9999REMSYN023333   82620 84656 88462MET006NOSIG?EQDQ01+000000PRSWM2
0107039620999991990010412304+52700-008917FM-15+0020EINN V0201701N00571036001CN0112001N1+01101+00701999999ADDAG12999GA1011+006009059GA2031+018009059GA3081+036009049MA1101081999999REMMET006NOSIG?EQDQ01+000000PRSWM2
0176039620999991990010413004+52700-008917SY-MT+0020EINN V0201701N00511018001CN0400001N1+01061+00751101161ADDAG12999GA1021+006009059GA2031+018009059GA3081+036009049GF108991041051008001021999MA1101081999999MD1810061+9999REMSYN023333   82620 83656 88462MET006NOSIG?EQDQ01+000000PRSWM2
0191039620999991990010414004+52700-008917SY-MT+0020EINN V0201701N00671018001CN0200001N1+01061+00771101121ADDAG12999AY161021AY221021GA1021+005409079GA2061+018009059GA3081+036009049GF108991061051004501071999MA1101081999999MD1810101+9999MW1601REMSYN023333   82718 86656 88462MET018GRADU 8000 5ST010?
0107039620999991990010414304+52700-008917FM-15+0020EINN V0201801N00461015001CN0112001N1+01001+00801999999ADDAG12002GA1011+003609079GA2031+005409079GA3061+015009059MA1101081999999MW1601REMMET019GRADU 8000 5ST010??
0197039620999991990010415004+52700-008917SY-MT+0020EINN V0201601N00461015001CN0200001N1+01051+00741101121ADDAG12001AY161031AY221031GA1011+003609079GA2031+005409079GA3061+015009059GF108991061051004501071999MA1101081999999MD1510081+9999MW1601MW2611REMSYN023333   81712 83718 86650MET018GRADU 8000 5ST010?
0106039620999991990010415304+52700-008917FM-15+0020EINN V0201601N00261013501CN0112001N1+01001+00701999999ADDAG12999GA1011+003609079GA2031+005409079GA3071+013509059MA1101081999999MW1611REMMET018GRADU 8000 5ST010?
0191039620999991990010416004+52700-008917SY-MT+0020EINN V0201701N00411015001CN0200001N1+01021+00721101101ADDAG12999AY161011AY221011GA1011+004509079GA2031+006009059GA3061+015009059GF108991061051004501071999MA1101081999999MD1710061+9999MW1211REMSYN023333   81715 83620 86650MET018GRADU 8000 5ST010?
0106039620999991990010416304+52700-008917FM-15+0020EINN V0201801N00621015001CN0112001N1+01001+00701999999ADDAG12999GA1011+004509079GA2031+006909059GA3061+015009059MA1101081999999MW1211REMMET018GRADU 8000 5ST010?
0191039620999991990010417004+52700-008917SY-MT+0020EINN V0201801N00671015001CN0200001N1+01041+00701101101ADDAG12999AY161021AY221021GA1011+003909079GA2031+006009059GA3061+015009059GF108991061051004501071999MA1101081999999MD1610021+9999MW1601REMSYN023333   81713 83620 86650MET018GRADU 8000 5ST010?
0106039620999991990010417304+52700-008917FM-15+0020EINN V0201801N00721012001CN0112001N1+01001+00701999999ADDAG12002GA1011+003909079GA2031+006009059GA3061+012009059MA1101081999999MW1601REMMET018GRADU 8000 5ST010?
0232039620999991990010418004+52700-008917SY-MT+0020EINN V0201801N00771010501CN0200001N1+01031+00801101161ADDAA199001091AG10001AY161061AY221061GA1011+003909079GA2031+006009059GA3061+010509059GF108991081051004501999999KA1120M+01091MA1101081999999MD1310041+9999MW1601REMSYN029333   10109 81713 83620 86635MET029GRADU      ?     8000 5ST010?
0117039620999991990010418304+52700-008917FM-15+0020EINN V0201801N00621010501CN0112001N1+01001+00801999999ADDAG12999GA1011+003909079GA2041+006009059GA3061+010509059MA1101081999999MW1601REMMET029GRADU      ?     8000 5ST010?
0202039620999991990010419004+52700-008917SY-MT+0020EINN V0201801N00511006001CN0200001N1+00981+00771101181ADDAG12999AY161011AY261011GA1021+004509079GA2041+006009059GA3071+010509059GF108991081051004501999999MA1101081999999MD1210081+9999MW1601REMSYN023333   82715 84620 87635MET029GRADU      ?     8000 5ST010?
0117039620999991990010419304+52700-008917FM-15+0020EINN V0201801N00461006001CN0112001N1+01001+00801999999ADDAG12999GA1021+004509079GA2051+006009059GA3071+010509059MA1101191999999MW1601REMMET029GRADU      ?     8000 5ST010?
0191039620999991990010420004+52700-008917SY-MT+0020EINN V0201901N00311004201CN0150001N1+00921+00801101241ADDAG12999AY161021AY251021GA1021+002409079GA2051+004209079GA3061+006009059GF108991081061002501999999MA1101191999999MD1210141+9999MW1581REMSYN023333   82708 85714 86620MET018GRADU 8000 5ST010?
0102039620999991990010420304+52700-008917FM-15+0020EINN V0201901N00311004201CN0112001N1+00901+00801999999ADDAG12003GA1011+002409079GA2051+004209079MA1101191999999MW1211REMMET030GRADU 3CU020     ?     4SC030?
0181039620999991990010421004+52700-008917SY-MT+0020EINN V0202201N00211004501CN0250001N1+00891+00791101291ADDAG12001AY161031AY251031GA1011+002409079GA2041+004509079GF105991051061002501001001MA1101191999999MD1210131+9999MW1211REMSYN017333   81708 84715MET030GRADU 3CU020     ?     4SC030?
0116039620999991990010421304+52700-008917FM-15+0020EINN V0202001N00151004201CN0112001N1+00801+00701999999ADDAG12999GA1011+002409079GA2061+004209079MA1101291999999REMMET031GRADU 3CU020 4SC030          ??EQDQ01+000000PRSWM2
0133039620999991990010422004+52700-008917SY-MT+0020EINN V0202301N00261220001CN0250001N1+00781+00671101381ADDAG12999GA1011+004509079GF102991021061004501001001MA1101291999999MD1310201+9999REMSYN011333   81715MET007NOSIG+?EQDQ01+000000PRSWM2
0065039620999991990010422304+52700-008917FM-15+0020EINN V0202001N00261999991CY0099001N1+00801+00601999999ADDAG12999MA1101391999999REMMET012CAVOK NOSIG?EQDQ01+000000PRSWM2
0105039620999991990010423004+52700-008917SY-MT+0020EINN V0201401N00261220001CN0200001N1+00751+00621101401ADDAG12999GF100991001001999999001001MA1101391999999MD1110161+9999REMMET012CAVOK NOSIG?EQDQ01+000000PRSWM2
0065039620999991990010423304+52700-008917FM-15+0020EINN V0201601N00261999991CY0099001N1+00801+00601999999ADDAG12000MA1101391999999REMMET012CAVOK NOSIG?EQDQ01+000000PRSWM2
0138039620999991990010500004+52700-008917SY-MT+0020EINN V0201401N00261220001CN0200001N1+00681+00591101431ADDAA106000191AG10001AY161061AY251061GF100991001001999999001001MA1101391999999MD1110141+9999MW1021REMMET012CAVOK NOSIG?EQDQ01+000000PRSWM2
0065039620999991990010500304+52700-008917FM-15+0020EINN V0201501N00211999991CY0099001N1+00601+00601999999ADDAG11999MA1101391999999REMMET012CAVOK NOSIG?EQDQ01+000000PRSWM2
0111039620999991990010501004+52700-008917SY-MT+0020EINN V0201701N00211220001CN0200001N1+00591+00521101461ADDAG11999GF100991001001999999001001MA1101391999999MD1210081+9999MW1001REMMET012CAVOK NOSIG?EQDQ01+000000PRSWM2
0065039620999991990010501304+52700-008917FM-15+0020EINN V0201001N00211999991CY0099001N1+00601+00501999999ADDAG11999MA1101391999999REMMET012CAVOK NOSIG?EQDQ01+000000PRSWM2
0127039620999991990010502004+52700-008917SY-MT+0020EINN V0201101N00311220001CN0120001N1+00521+00451101451ADDAG11021AY101021AY201021GF100991001001999999001001MA1101391999999MD1010051+9999MW1101REMMET012CAVOK NOSIG?EQDQ01+000000PRSWM2
0046039620999991990010502304+52700-008917FM-15+0020EINN V0201101N00261220001CN0080001N1+00501+00401999999ADDAG12000MA1101391999999MW1101REMMET006NOSIG?
0072039620999991990010503004+52700-008917FM-12+0020EINN V0201101N00211220001CN0080001N9+00491+00421101471ADDAG11000AY101031AY201031GF100991001001999999001001MD1310041+9999MW1101
0051039620999991990010503304+52700-008917FM-15+0020EINN V0201101N00311220001CN0080001N1+00401+00401999999ADDAG12999MA1101391999999MW1101REMMET011GRADU 4000?
0132039620999991990010504004+52700-008917SY-MT+0020EINN V0201101N00151220001CN0120001N1+00421+00371101471ADDAG11999AY101011AY201011GF100991001001999999001001MA1101391999999MD1110011+9999MW1101REMMET017CAVOK GRADU 4000?EQDQ01+000000PRSWM2
0071039620999991990010504304+52700-008917FM-15+0020EINN V0201201N00311999991CY0099001N1+00401+00301999999ADDAG12999MA1101391999999REMMET018CAVOK NGRADU 4000?EQDQ01+000000PRSWM2
0159039620999991990010505004+52700-008917SY-MT+0020EINN V0201201N00361220001CN0120001N1+00401+00331101441ADDAG11999AY101021AY201021GA1011+000609079GF101991011061000751001001MA1101391999999MD1810011+9999MW1101REMSYN011333   81702MET011TEMPO 4000?EQDQ01+000000PRSWM2
0081039620999991990010505304+52700-008917FM-15+0020EINN V0201201N00311220001CN0112001N1+00401+00301999999ADDAG12000GA1011+000609079MA1101391999999REMMET012NTEMPO 4000?EQDQ01+000000PRSWM2
0208039620999991990010506004+52700-008917SY-MT+0020EINN V0201101N00311220001CN0090001N1+00361+00311101421ADDAA199000191AG10000AY101061AY201061GA1021+000309079GF102991021061000251001001GJ100009IA1099IA2999+00009KA1120N+00341MA1101391999999MD1810051+9999MW1101REMSYN029333   20034 31100 55000 82701MET011TEMPO 4000?
0093039620999991990010506304+52700-008917FM-15+0020EINN V0201201N00361220001CN0030001N1+00301+00301999999ADDAG12999GA1011+000309079MA1101391999999MW1401REMMET0377000 SE SW       ?     NW TEMPO 1500?
0178039620999991990010507004+52700-008917SY-MT+0020EINN V0201201N00361220001CN0025001N1+00321+00291101421ADDAG11999AY101011AY201011GA1031+000609079GF103991031061000751001001MA1101391999999MD1610051+9999MW1401REMSYN023333   83702 98550 98757MET0375000 SW 7000     ?     NW TEMPO 1500?
0062039620999991990010507304+52700-008917FM-15+0020EINN V0201601N00211000151CN0003001N1+00401+00301999999ADDAG12999GA1091+000159999MA1101391999999MW1471REMMET006NOSIG?
0141039620999991990010508004+52700-008917SY-MT+0020EINN V0201501N00411000301CN0004001N1+00381+00331101421ADDAG12999AY141021AY201021GA1091+000309999GF109991091999999999999999MA1101391999999MD1610021+9999MW1471REMSYN017333   89/01 90010MET006NOSIG?
0062039620999991990010508304+52700-008917FM-15+0020EINN V0201401N00261000301CN0005001N1+00501+00401999999ADDAG12000GA1091+000309999MA1101391999999MW1431REMMET006NOSIG?
0135039620999991990010509004+52700-008917SY-MT+0020EINN V0201401N00361000301CN0004001N1+00521+00471101401ADDAG12000AY141031AY201031GA1091+000309999GF109991091999999999999999MA1101391999999MD1710021+9999MW1451REMSYN011333   89/01MET006NOSIG?
0093039620999991990010509304+52700-008917FM-15+0020EINN V0201401N00311000301CN0008001N1+00601+00601999999ADDAG12999GA1091+000309999MA1101391999999MW1431REMMET037GRADU 5000       ?     3ST004 7ST006?
0136039620999991990010510004+52700-008917FM-12+0020EINN V0201501N00571000601CN0035001N9+00611+00591101361ADDAG12999AY141011AY221011GA1051+000609079GA2071+001209079GF108991081061000751999999MD1810061+9999MW1281REMSYN023333   85702 87704 90105
0097039620999991990010510304+52700-008917FM-15+0020EINN V0201601N00721000901CN0060001N1+00601+00601999999ADDAG12999GA1051+000909079GA2071+001509079MA1101291999999MW1101REMMET025GRADU99999 4ST005 6ST010?
0202039620999991990010511004+52700-008917SY-MT+0020EINN V0201501N00571002101CN0070001N1+00651+00581101301ADDAG12999AY121021AY221021GA1041+001209079GA2061+002109079GF107991071061001501999999MA1101291999999MD1810121+9999MW1101REMSYN017333   84704 86706MET051VIS 10KM         ?     SW GRADU 9999 4ST005 6ST010?
0091039620999991990010511304+52700-008917FM-15+0020EINN V0201401N00571002101CN0112001N1+00701+00601999999ADDAG12000GA1031+001209079GA2061+002109079MA1101191999999MW1101REMMET019GRADU 3CU020     ??
0181039620999991990010512004+52700-008917SY-MT+0020EINN V0201401N00511002401CN0150001N1+00631+00561101211ADDAA106999929AG10000AY141061AY221061GA1041+001509079GA2061+002409079GF107991071061001501999999MA1101191999999MD1710191+9999MW1101REMSYN017333   84705 86708MET019GRADU 3CU020     ??
0091039620999991990010512304+52700-008917FM-15+0020EINN V0201201N00461003301CN0112001N1+00701+00601999999ADDAG12999GA1021+001509079GA2061+003309079MA1101081999999MW1101REMMET019GRADU 2CU020     ??
0157039620999991990010513004+52700-008917SY-MT+0020EINN V0201101N00411001501CN0100001N1+00691+00621101061ADDAG12999AY121011AY221011GA1051+001509079GA2061+003309079GF107991071061001501999999MA1101021999999MD1710301+9999MW1101REMSYN017333   85705 86711MET006NOSIG?
0078039620999991990010513304+52700-008917FM-15+0020EINN V0201201N00511002101CN0112001N1+00701+00601999999ADDAG12999GA1061+002109079GA2051+003009079MA1100911999999MW1101REMMET006NOSIG?
0162039620999991990010514004+52700-008917SY-MT+0020EINN V0201101N00411001801CN0050001N1+00681+00611100931ADDAG12999AY151021AY221021GA1051+001809079GA2071+002709079GF108991081061002501999999MA1100911999999MD1710371+9999MW1501REMSYN017333   85706 87709MET011GRADU 8000?
0124039620999991990010514304+52700-008917FM-15+0020EINN V0201001N00461015001CN0112001N1+00801+00701999999ADDAG12001GA1021+002709079GA2041+015009059GA3061+027009049MA1100811999999MW1201REMMET036TEMPO      ?     8000 4ST005 8ST010?
0078039620999991990010514554+52700-008917FM-15+0020EINN V0201601N00311220001CN0112001N1+01001+00801999999ADDAG12003GA1011+002709079GA2031+012009059MA1100811999999MW1211REMMET006NOSIG?
0130039620999991990010515004+52700-008917FM-12+0020EINN V0201601N00311030001CN0150001N9+00961+00841100851ADDAG12001AY161031AY251031GA1011+002709079GA2031+012009059GF106991041051002501071999MD1610361+9999MW1211REMSYN017333   81709 83640
0078039620999991990010515304+52700-008917FM-15+0020EINN V0201701N00671220001CN0112001N1+01001+00801999999ADDAG12999GA1011+003009079GA2031+012009059MA1100711999999MW1211REMMET006NOSIG?
0160039620999991990010516004+52700-008917SY-MT+0020EINN V0201601N00771220001CN0200001N1+00981+00811100741ADDAG12999GA1011+003009079GA2031+012009059GF103991031051004501001001MA1100711999999MD1710321+9999MW1001REMSYN017333   81710 83640MET006NOSIG?EQDQ01+000000PRSWM2
0091039620999991990010516304+52700-008917FM-15+0020EINN V0201701N00621220001CN0112001N1+01001+00801999999ADDAG12999GA1011+003009079GA2041+007509059MA1100711999999REMMET006NOSIG?EQDQ01+000000PRSWM2
0155039620999991990010517004+52700-008917SY-MT+0020EINN V0201601N00621007501CN0200001N1+00961+00821100781ADDAG12999GA1021+003909079GA2041+007509059GF105991051051004501001001MA1100711999999MD1610151+9999REMSYN017333   82713 84625MET007NOSIG+?EQDQ01+000000PRSWM2
0091039620999991990010517304+52700-008917FM-15+0020EINN V0200901N00261007501CN0112001N1+00901+00801999999ADDAG12000GA1021+003609079GA2041+007509059MA1100811999999REMMET006NOSIG?EQDQ01+000000PRSWM2
0184039620999991990010518004+52700-008917SY-MT+0020EINN V0201401N00211220001CN0200001N1+00891+00791100821ADDAA199999929AG10001AY161061AY251061GA1011+004509079GF101991011021004501001001KA1120M+01041MA1100811999999MD1510031+9999MW1011REMSYN017333   10104 81715MET006NOSIG?EQDQ01+000000PRSWM2
0091039620999991990010518304+52700-008917FM-15+0020EINN V0201101N00151010501CN0112001N1+00901+00801999999ADDAG12999GA1011+006009089GA2071+010509059MA1100811999999REMMET006NOSIG?EQDQ01+000000PRSWM2
0138039620999991990010519004+52700-008917SY-MT+0020EINN V0201901N00261010501CN0250001N1+00931+00721100841ADDAG12999GA1051+010509059GF105991051051012501999999MA1100811999999MD1010101+9999MW1001REMSYN011333   85635MET006NOSIG?EQDQ01+000000PRSWM2
0075039620999991990010519304+52700-008917FM-15+0020EINN V0201901N00411010501CN0112001N1+01001+00701999999ADDAG12999GA1071+010509059MA1100811999999REMMET006NOSIG?EQDQ01+000000PRSWM2
0154039620999991990010520004+52700-008917SY-MT+0020EINN V0201801N00461015001CN0250001N1+00991+00711100881ADDAG12999GA1041+010509059GA2071+015009059GF107991071051012501999999MA1100811999999MD1210101+9999REMSYN017333   84635 87650MET006NOSIG?EQDQ01+000000PRSWM2
0075039620999991990010520304+52700-008917FM-15+0020EINN V0201601N00311220001CN0112001N1+00901+00701999999ADDAG12000GA1041+010509059MA1100811999999REMMET006NOSIG?EQDQ01+000000PRSWM2
0157039620999991990010521004+52700-008917SY-MT+0020EINN V0201701N00411010501CN0250001N1+00841+00661100871ADDAG12001AY121031AY221031GA1021+007509089GA2041+010509059GF105991051081008001999999MA1100811999999MD1110051+9999MW1801REMSYN017333   82825 84635MET006NOSIG?
0094039620999991990010521304+52700-008917FM-15+0020EINN V0201801N00511010501CN0112001N1+00901+00701999999ADDAG12999GA1021+007509089GA2031+010509059GA3071+015009059MA1100911999999MW1251REMMET006NOSIG?
0179039620999991990010522004+52700-008917SY-MT+0020EINN V0201901N00511010501CN0250001N1+00961+00751100941ADDAG12999AY181011AY221011GA1021+006009089GA2041+010509059GA3071+015009059GF107991071081008001999999MA1100911999999MD1210101+9999MW1251REMSYN023333   82820 84635 87650MET006NOSIG?
0107039620999991990010522304+52700-008917FM-15+0020EINN V0201801N00411015001CN0112001N1+00901+00801999999ADDAG12999GA1011+006009089GA2041+010509059GA3071+015009059MA1100911999999REMMET006NOSIG?EQDQ01+000000PRSWM2
0182039620999991990010523004+52700-008917SY-MT+0020EINN V0201901N00411015001CN0250001N1+00941+00731100941ADDAG12999GA1011+006009089GA2031+010509059GA3071+015009059GF107991071081008001999999MA1100911999999MD1110061+9999MW1001REMSYN023333   81820 83635 87650MET006NOSIG?EQDQ01+000000PRSWM2
0091039620999991990010523304+52700-008917FM-15+0020EINN V0201901N00361015001CN0112001N1+00901+00701999999ADDAG12000GA1021+010509059GA2071+015009059MA1100911999999REMMET006NOSIG?EQDQ01+000000PRSWM2
0187039620999991990010600004+52700-008917SY-MT+0020EINN V0202201N00361015001CN0250001N1+00881+00691100971ADDAA106999929AG10001AY181061AY211061GA1021+010509059GA2071+015009059GF107991071051012501999999MA1100911999999MD1210101+9999MW1021REMSYN017333   82635 87650MET006NOSIG?EQDQ01+000000PRSWM2
0091039620999991990010600304+52700-008917FM-15+0020EINN V0201801N00361015001CN0112001N1+00901+00701999999ADDAG11999GA1021+010509059GA2071+015009059MA1100911999999REMMET006NOSIG?EQDQ01+000000PRSWM2
0160039620999991990010601004+52700-008917SY-MT+0020EINN V0201801N00361015001CN0250001N1+00851+00641100981ADDAG11999GA1021+010509059GA2081+015009059GF108991081051012501999999MA1100911999999MD1210041+9999MW1001REMSYN017333   82635 88650MET006NOSIG?EQDQ01+000000PRSWM2
0091039620999991990010601304+52700-008917FM-15+0020EINN V0202101N00461018001CN0112001N1+00901+00601999999ADDAG11999GA1031+012609059GA2081+018009059MA1101021999999MW1601REMMET019TEMPO 7ST012     ??
0167039620999991990010602004+52700-008917SY-MT+0020EINN V0202101N00411018001CN0250001N1+00861+00551101011ADDAG11999GA1021+012009059GA2081+018009059GF108991081051012501999999MA1101021999999MD1210071+9999MW1001REMSYN017333   82640 88656MET013TEMPO 7ST012?EQDQ01+000000PRSWM2
0176039620999991990010603004+52700-008917SY-MT+0020EINN V0202101N00311018001CN0250001N1+00841+00551101051ADDAG12001AY161031AY221031GA1021+012009059GA2081+018009059GF108991081051012501999999MA1101021999999MD1310081+9999MW1021REMSYN017333   82640 88656MET006NOSIG?EQDQ01+000000PRSWM2
0091039620999991990010603304+52700-008917FM-15+0020EINN V0201901N00361018001CN0112001N1+00801+00601999999ADDAG11999GA1021+012009059GA2081+018009059MA1101021999999REMMET006NOSIG?EQDQ01+000000PRSWM2
0157039620999991990010604004+52700-008917SY-MT+0020EINN V0202501N00361018001CN0150001N1+00761+00561101121ADDAG12999AY161011AY221011GA1041+009009059GA2081+018009059GF108991081051012501999999MA1101081999999MD1210141+9999MW1601REMSYN017333   84630 88656MET006NOSIG?
0078039620999991990010604304+52700-008917FM-15+0020EINN V0202201N00361018001CN0112001N1+00701+00601999999ADDAG12999GA1041+008409059GA2081+018009059MA1101081999999MW1211REMMET006NOSIG?
0157039620999991990010605004+52700-008917SY-MT+0020EINN V0201901N00311018001CN0300001N1+00741+00531101141ADDAG12999AY161021AY221021GA1021+006009059GA2081+018009059GF108991081051008001999999MA1101081999999MD1210131+9999MW1211REMSYN017333   82620 88656MET006NOSIG?
0244039620999991990010606004+52700-008917SY-MT+0020EINN V0202201N00311018001CN0300001N1+00671+00491101201ADDAA199000191AG19001AY161061AY221061GA1031+006909059GA2081+018009059GF108991081051008001999999GJ100189IA1099IA2999+00509KA1120N+00671MA1101191999999MD1210151+9999MW1021REMSYN035333   20067 31005 55003 83623 88656MET006NOSIG?EQDQ01+000000PRSWM2
0107039620999991990010606304+52700-008917FM-15+0020EINN V0202301N00261018001CN0112001N1+00601+00501999999ADDAG12999GA1021+012009059GA2041+018009059GA3071+030009049MA1101191999999REMMET006NOSIG?EQDQ01+000000PRSWM2
0176039620999991990010607004+52700-008917SY-MT+0020EINN V0202201N00211030001CN0200001N1+00571+00471101271ADDAG12999GA1011+006909059GA2041+018009059GA3061+030009049GF107991051051008001071999MA1101191999999MD1210151+9999REMSYN023333   81623 84656 86460MET006NOSIG?EQDQ01+000000PRSWM2
0065039620999991990010607304+52700-008917FM-15+0020EINN V0202401N00261999991CY0099001N1+00601+00401999999ADDAG12999MA1101291999999REMMET012CAVOK NOSIG?EQDQ01+000000PRSWM2
0132039620999991990010608004+52700-008917SY-MT+0020EINN V0202501N00211220001CN0300001N1+00531+00381101371ADDAG12999GA1011+010509059GF103991011051012501071011MA1101291999999MD1210231+9999REMSYN011333   81635MET006NOSIG?EQDQ01+000000PRSWM2
0075039620999991990010608304+52700-008917FM-15+0020EINN V0202101N00211220001CN0112001N1+00501+00301999999ADDAG12000GA1011+007509059MA1101391999999REMMET006NOSIG?EQDQ01+000000PRSWM2
0138039620999991990010609004+52700-008917SY-MT+0020EINN V0202101N00261220001CN0350001N1+00431+00311101441ADDAG12000GA1011+005109079GF103991011061004501071001MA1101391999999MD1210241+9999MW1001REMSYN011333   81717MET006NOSIG?EQDQ01+000000PRSWM2
0075039620999991990010609304+52700-008917FM-15+0020EINN V0202201N00211220001CN0112001N1+00401+00301999999ADDAG12999GA1011+006609089MA1101491999999REMMET006NOSIG?EQDQ01+000000PRSWM2
0138039620999991990010610004+52700-008917SY-MT+0020EINN V0202101N00151220001CN0400001N1+00401+00221101551ADDAG12999GA1011+006609089GF101991011081008001071001MA1101491999999MD1210281+9999MW1001REMSYN011333   81822MET006NOSIG?EQDQ01+000000PRSWM2
0075039620999991990010610304+52700-008917FM-15+0020EINN V0202001N00101220001CN0112001N1+00501+00301999999ADDAG12999GA1011+006609089MA1101491999999REMMET006NOSIG?EQDQ01+000000PRSWM2
0132039620999991990010611004+52700-008917SY-MT+0020EINN V0201201N00151220001CN0400001N1+00601+00231101621ADDAG12999GA1011+006609089GF102991011081008001071001MA1101591999999MD1210251+9999REMSYN011333   81822MET006NOSIG?EQDQ01+000000PRSWM2
0091039620999991990010611304+52700-008917FM-15+0020EINN V0202101N00151220001CN0112001N1+00801+00401999999ADDAG12000GA1011+006009089GA2031+010509059MA1101591999999REMMET006NOSIG?EQDQ01+000000PRSWM2
0149039620999991990010612004+52700-008917SY-MT+0020EINN V0202301N00211220001CN0400001N1+00781+00361101651ADDAA106000091AG14000GA1011+006609089GF103991021081008001071001MA1101591999999MD1110211+9999MW1001REMSYN011333   81822MET006NOSIG?EQDQ01+000000PRSWM2
0091039620999991990010612304+52700-008917FM-15+0020EINN V0202401N00211010501CN0112001N1+00901+00301999999ADDAG12999GA1021+006609089GA2031+010509059MA1101591999999REMMET006NOSIG?EQDQ01+000000PRSWM2
0086039620999991990010613004+52700-008917FM-12+0020EINN V0202301N00311220001CN0400001N9+00881+00271101681ADDAG12999GA1011+006609089GF103991021081008001031001MD1210131+9999REMSYN011333   81822
0075039620999991990010613304+52700-008917FM-15+0020EINN V0202301N00311220001CN0112001N1+00901+00401999999ADDAG12999GA1011+006009099MA1101591999999REMMET006NOSIG?EQDQ01+000000PRSWM2
0132039620999991990010614004+52700-008917SY-MT+0020EINN V0202201N00361220001CN0400001N1+00871+00361101671ADDAG12999GA1011+006009099GF101991011091008001031001MA1101591999999MD1010051+9999REMSYN011333   81920MET006NOSIG?EQDQ01+000000PRSWM2
0075039620999991990010614304+52700-008917FM-15+0020EINN V0202301N00361220001CN0112001N1+00901+00301999999ADDAG12000GA1011+006009099MA1101591999999REMMET006NOSIG?EQDQ01+000000PRSWM2
0132039620999991990010615004+52700-008917SY-MT+0020EINN V0202201N00361220001CN0400001N1+00881+00301101701ADDAG12000GA1011+006009099GF101991011091008001001001MA1101691999999MD1210051+9999REMSYN011333   81920MET006NOSIG?EQDQ01+000000PRSWM2
0075039620999991990010615304+52700-008917FM-15+0020EINN V0202201N00261220001CN0112001N1+00801+00401999999ADDAG12999GA1011+006009099MA1101691999999REMMET006NOSIG?EQDQ01+000000PRSWM2
0132039620999991990010616004+52700-008917SY-MT+0020EINN V0202201N00311220001CN0400001N1+00761+00341101761ADDAG12999GA1011+006009099GF102991021091008001001001MA1101691999999MD1210081+9999REMSYN011333   81920MET006NOSIG?EQDQ01+000000PRSWM2
0075039620999991990010616304+52700-008917FM-15+0020EINN V0202001N00361220001CN0112001N1+00701+00301999999ADDAG12999GA1011+006009099MA1101691999999REMMET006NOSIG?EQDQ01+000000PRSWM2
0138039620999991990010617004+52700-008917SY-MT+0020EINN V0201901N00361220001CN0400001N1+00631+00241101801ADDAG12999GA1011+006009099GF101991011091008001001001MA1101801999999MD1210131+9999MW1001REMSYN011333   81920MET006NOSIG?EQDQ01+000000PRSWM2
0075039620999991990010617304+52700-008917FM-15+0020EINN V0202001N00411220001CN0112001N1+00601+00201999999ADDAG12000GA1011+007509099MA1101801999999REMMET006NOSIG?EQDQ01+000000PRSWM2
0162039620999991990010618004+52700-008917SY-MT+0020EINN V0201901N00361220001CN0300001N1+00591+00251101831ADDAA106000091AG14000GA1011+007509089GF101991011021008001001001KA1120M+00961MA1101801999999MD1210131+9999REMSYN017333   10096 81825MET006NOSIG?EQDQ01+000000PRSWM2
0075039620999991990010618304+52700-008917FM-15+0020EINN V0201801N00361220001CN0112001N1+00501+00201999999ADDAG12999GA1011+007509089MA1101801999999REMMET006NOSIG?EQDQ01+000000PRSWM2
0132039620999991990010619004+52700-008917SY-MT+0020EINN V0201801N00411220001CN0300001N1+00501+00171101881ADDAG12999GA1011+007509089GF101991011021008001001001MA1101801999999MD1210121+9999REMSYN011333   81825MET006NOSIG?EQDQ01+000000PRSWM2
0075039620999991990010619304+52700-008917FM-15+0020EINN V0201801N00411220001CN0112001N1+00501+00101999999ADDAG12999GA1011+012009059MA1101801999999REMMET006NOSIG?EQDQ01+000000PRSWM2
0138039620999991990010620004+52700-008917SY-MT+0020EINN V0201801N00461220001CN0300001N1+00461+00131101891ADDAG12999GA1011+012009059GF101991011051012501001001MA1101801999999MD1110091+9999MW1001REMSYN011333   81640MET006NOSIG?EQDQ01+000000PRSWM2
0065039620999991990010620304+52700-008917FM-15+0020EINN V0201901N00461999991CY0099001N1+00401+00101999999ADDAG12000MA1101901999999REMMET012CAVOK NOSIG?EQDQ01+000000PRSWM2
0111039620999991990010621004+52700-008917SY-MT+0020EINN V0201801N00571220001CN0300001N1+00401+00171101911ADDAG12000GF100991001001999999001001MA1101901999999MD1210081+9999MW1001REMMET012CAVOK NOSIG?EQDQ01+000000PRSWM2
0065039620999991990010621304+52700-008917FM-15+0020EINN V0201801N00511999991CY0099001N1+00401+00101999999ADDAG12999MA1101801999999REMMET012CAVOK NOSIG?EQDQ01+000000PRSWM2
0105039620999991990010622004+52700-008917SY-MT+0020EINN V0201801N00511220001CN0400001N1+00411+00121101921ADDAG12999GF100991001001999999001001MA1101901999999MD1110041+9999REMMET012CAVOK NOSIG?EQDQ01+000000PRSWM2
0065039620999991990010622304+52700-008917FM-15+0020EINN V0201701N00411999991CY0099001N1+00401+00101999999ADDAG12999MA1101901999999REMMET012CAVOK NOSIG?EQDQ01+000000PRSWM2
0166039620999991990010623004+52700-008917SY-MT+0020EINN V0201701N00511220001CN0300001N1+00431+00121101911ADDAG12999GA1011+015009059GF104991011051017501999021MA1101901999999MD1110021+9999MW1001REMSYN017333   81650 83075MET012CAVOK NOSIG?EQDQ01+000000PRSWM2Q02    003SCOMCG
0065039620999991990010623304+52700-008917FM-15+0020EINN V0201701N00511999991CY0099001N1+00401+00101999999ADDAG12000MA1101801999999REMMET012CAVOK NOSIG?EQDQ01+000000PRSWM2
0171039620999991990010700004+52700-008917SY-MT+0020EINN V0201701N00571220001CN0300001N1+00461+00181101871ADDAA106000091AG14000GA1011+015009059GF101991011051017501999001MA1101801999999MD1810041+9999MW1001REMSYN011333   81650MET012CAVOK NOSIG?EQDQ01+000000PRSWM2Q02    003SCOMCG
0065039620999991990010700304+52700-008917FM-15+0020EINN V0201701N00571999991CY0099001N1+00501+00101999999ADDAG11999MA1101801999999REMMET012CAVOK NOSIG?EQDQ01+000000PRSWM2
0160039620999991990010701004+52700-008917SY-MT+0020EINN V0201601N00571220001CN0300001N1+00521+00171101811ADDAG11999GA1031+015009059GF103991031051017501999001MA1101801999999MD1710111+9999MW1001REMSYN011333   83650MET012CAVOK NOSIG?EQDQ01+000000PRSWM2Q02    003SCOMCG
0075039620999991990010701304+52700-008917FM-15+0020EINN V0201601N00511220001CN0112001N1+00501+00201999999ADDAG11999GA1031+012009059MA1101691999999REMMET006NOSIG?EQDQ01+000000PRSWM2
0132039620999991990010702004+52700-008917SY-MT+0020EINN V0201601N00411012001CN0300001N1+00481+00201101771ADDAG12999GA1051+012009059GF105991051051012501001001MA1101691999999MD1710141+9999REMSYN011333   85640MET006NOSIG?EQDQ01+000000PRSWM2
0065039620999991990010702304+52700-008917FM-15+0020EINN V0201601N00461999991CY0099001N1+00601+00201999999ADDAG11000MA1101691999999REMMET012CAVOK NOSIG?EQDQ01+000000PRSWM2
0160039620999991990010703004+52700-008917SY-MT+0020EINN V0201401N00511015001CN0300001N1+00601+00331101731ADDAG11000GA1021+006009059GA2071+015009059GF107991071051008001999999MA1101691999999MD1710141+9999MW1001REMSYN017333   82620 87650MET006NOSIG?EQDQ01+000000PRSWM2
0091039620999991990010703304+52700-008917FM-15+0020EINN V0201801N00621013501CN0112001N1+00701+00201999999ADDAG12999GA1021+006009059GA2081+013509059MA1101591999999REMMET006NOSIG?EQDQ01+000000PRSWM2
0164039620999991990010704004+52700-008917SY-MT+0020EINN V0201701N00411010501CN0250001N1+00721+00291101681ADDAG12999AY161011AY221011GA1031+006009059GA2081+010509059GF108991081051008001999999MA1101591999999MD1710131+9999MW1601REMSYN017333   83620 88635MET013GRADU 8SC020?
0094039620999991990010704304+52700-008917FM-15+0020EINN V0201801N00671010501CN0112001N1+00801+00401999999ADDAG12999GA1031+006009059GA2051+010509059GA3081+010509059MA1101591999999MW1601REMMET006NOSIG?
0170039620999991990010705004+52700-008917SY-MT+0020EINN V0201801N00721015001CN0200001N1+00811+00441101601ADDAG12999AY161021AY221021GA1031+010509059GA2081+015009059GF108991081051012501999999MA1101591999999MD1710171+9999MW1601REMSYN017333   83635 88650MET019GRADU 8SC020     ??
0091039620999991990010705304+52700-008917FM-15+0020EINN V0201801N00771015001CN0112001N1+00801+00501999999ADDAG12007GA1031+010209059GA2081+015009059MA1101491999999MW1611REMMET019GRADU 8SC020     ??
0238039620999991990010706004+52700-008917SY-MT+0020EINN V0201801N00771009301CN0150001N1+00801+00651101551ADDAA199000391AG10002AY161061AY261061GA1051+009309059GA2081+015009059GF108991081051012501999999GJ103789IA1099IA2999+00109KA1120N+00371MA1101491999999MD1610181+9999MW1611REMSYN035333   20037 31001 55063 85631 88650MET019GRADU 8SC020     ??
0091039620999991990010706304+52700-008917FM-15+0020EINN V0201701N00771008701CN0112001N1+00801+00601999999ADDAG12999GA1051+008709059GA2081+015009059MA1101491999999MW1611REMMET019GRADU 8SC020     ??
0209039620999991990010707004+52700-008917SY-MT+0020EINN V0201801N00771008401CN0120001N1+00851+00721101571ADDAG12999AY161011AY261011GA1041+003009079GA2041+008409059GA3081+015009059GF108991081061004501999999MA1101491999999MD1510111+9999MW1611REMSYN023333   84710 84628 88650MET036TEMPO      ?     4000 5ST006 7ST011?
0124039620999991990010707304+52700-008917FM-15+0020EINN V0201801N00621004801CN0112001N1+00901+00701999999ADDAG12999GA1051+004809079GA2051+008409059GA3081+015009059MA1101491999999MW1611REMMET036TEMPO      ?     4000 5ST006 7ST011?
0209039620999991990010708004+52700-008917SY-MT+0020EINN V0201801N00511008401CN0120001N1+00911+00791101631ADDAG12999AY161021AY261021GA1041+003609079GA2041+008409059GA3081+015009059GF108991081061004501999999MA1101591999999MD1310031+9999MW1611REMSYN023333   84712 84628 88650MET036TEMPO      ?     4000 5ST006 8ST011?
0124039620999991990010708304+52700-008917FM-15+0020EINN V0201801N00511007501CN0112001N1+01001+00801999999ADDAG12003GA1031+004509079GA2041+007509059GA3081+018009059MA1101591999999MW1211REMMET036TEMPO      ?     4000 5ST006 8ST011?
0202039620999991990010709004+52700-008917SY-MT+0020EINN V0201901N00411007501CN0400001N1+00951+00851101701ADDAG12001AY161031AY221031GA1021+004509079GA2051+007509059GA3081+018009059GF108991081051004501999999MA1101691999999MD1310151+9999MW1601REMSYN023333   82715 85625 88656MET029TEMPO      ?     7000 7ST012?
0102039620999991990010709304+52700-008917FM-15+0020EINN V0201901N00361024001CN0112001N1+01001+00901999999ADDAG12999GA1041+006909059GA2081+024009049MA1101691999999MW1211REMMET030TEMPO 7000       ?     7ST012?
0163039620999991990010712004+52700-008917FM-12+0020EINN V0202101N00361027001CN0300001N9+01021+00881101821ADDAA106002091AG19001AY161061AY221061GA1011+003609079GA2041+006009059GA3061+027009049GF107991041051004501021999MD1110121+9999MW1011REMSYN023333   81712 84620 86459
0117039620999991990010712304+52700-008917FM-15+0020EINN V0202001N00361006001CN0112001N1+01001+00801999999ADDAG12999GA1021+003609079GA2061+006009059GA3061+027009049MA1101691999999MW1601REMMET029TEMPO      ?     7000 5ST008?
0202039620999991990010713004+52700-008917SY-MT+0020EINN V0202201N00261005401CN0150001N1+00971+00831101781ADDAG12999AY161011AY221011GA1031+003009079GA2051+005409079GA3071+027009049GF108991061061004501021999MA1101691999999MD1010031+9999MW1601REMSYN023333   83710 85718 87459MET029TEMPO      ?     7000 5ST008?
0101039620999991990010713304+52700-008917FM-15+0020EINN V0202001N00361003001CN0070001N1+01001+00901999999ADDAG12999GA1021+001809079GA2061+003009079GA3071+005409079MA1101691999999MW1611REMMET013TEMPO 5ST006?
0217039620999991990010714004+52700-008917SY-MT+0020EINN V0202301N00261001801CN0060001N1+00951+00871101801ADDAG12999AY161021AY261021GA1031+001209079GA2051+001809079GA3071+003009079GF108991081061001501999999MA1101801999999MD1810011+9999MW1631REMSYN023333   83704 85706 87710MET025TEMPO 9000 5ST008 7ST012?EQDQ01+000000PRSWM2
0101039620999991990010714304+52700-008917FM-15+0020EINN V0202801N00361003301CN0080001N1+00901+00801999999ADDAG12007GA1021+002109079GA2051+003309079GA3071+006009059MA1101801999999MW1611REMMET013TEMPO 6ST007?
0191039620999991990010715004+52700-008917SY-MT+0020EINN V0202701N00211015001CN0100001N1+00931+00851101871ADDAG12002AY161031AY261031GA1011+003009079GA2031+005109079GA3071+015009059GF108991081051004501999999MA1101801999999MD1310051+9999MW1611REMSYN023333   81710 83717 87650MET018TEMPO 8000 5ST010?
0106039620999991990010715304+52700-008917FM-15+0020EINN V0202701N00311013501CN0112001N1+00901+00801999999ADDAG12999GA1021+004509079GA2031+013509059GA3071+027009049MA1101901999999MW1611REMMET018TEMPO 8000 5ST010?
0179039620999991990010716004+52700-008917SY-MT+0020EINN V0202601N00311027001CN0120001N1+00861+00781102001ADDAG12999AY161011AY221011GA1011+004509079GA2031+009009059GA3071+027009049GF107991031051004501071999MA1102001999999MD1210221+9999MW1211REMSYN023333   81715 83630 87459MET006NOSIG?
0094039620999991990010716304+52700-008917FM-15+0020EINN V0202501N00361030001CN0112001N1+00801+00701999999ADDAG12999GA1011+006009059GA2031+015009059GA3051+030009049MA1102001999999MW1211REMMET006NOSIG?
0176039620999991990010717004+52700-008917SY-MT+0020EINN V0202601N00311075001CN0100001N1+00771+00701102111ADDAG12999GA1011+006009059GA2031+015009059GA3051+075009009GF106991031051008001031021MA1102101999999MD1210311+9999REMSYN023333   81620 83650 85075MET006NOSIG?EQDQ01+000000PRSWM2
0078039620999991990010717304+52700-008917FM-15+0020EINN V0202601N00311220001CN0112001N1+00701+00701999999ADDAG12000GA1011+006009059GA2031+015009059MA1102101999999MW1101REMMET006NOSIG?
0244039620999991990010718004+52700-008917SY-MT+0020EINN V0202501N00311060001CN0160001N1+00701+00611102211ADDAA199007091AG10001AY161061AY221061GA1011+006009059GA2031+018009059GA3051+060009009GF106991031051008001999021KA1120M+01051MA1102201999999MD1210341+9999MW1021REMSYN029333   10105 81620 83656 85070MET006NOSIG?EQDQ01+000000PRSWM2Q02    003SCOMCG
0107039620999991990010718304+52700-008917FM-15+0020EINN V0202301N00261015001CN0112001N1+00601+00601999999ADDAG12999GA1021+010509059GA2031+015009059GA3051+060009009MA1102201999999REMMET006NOSIG?EQDQ01+000000PRSWM2
0160039620999991990010719004+52700-008917SY-MT+0020EINN V0202201N00311060001CN0160001N1+00651+00561102311ADDAG12999GA1031+012009059GA2041+060009009GF105991031051012501001021MA1102301999999MD1210311+9999MW1001REMSYN017333   83640 84070MET006NOSIG?EQDQ01+000000PRSWM2
0091039620999991990010719304+52700-008917FM-15+0020EINN V0202401N00261220001CN0112001N1+00601+00501999999ADDAG12999GA1011+012009059GA2031+060009009MA1102301999999REMMET006NOSIG?EQDQ01+000000PRSWM2
0160039620999991990010720004+52700-008917SY-MT+0020EINN V0202501N00311220001CN0160001N1+00581+00491102421ADDAG12999GA1011+012009059GA2031+060009009GF103991011051012501001021MA1102401999999MD1210311+9999MW1001REMSYN017333   81640 83070MET006NOSIG?EQDQ01+000000PRSWM2
0091039620999991990010720304+52700-008917FM-15+0020EINN V0202401N00261220001CN0112001N1+00601+00501999999ADDAG12000GA1011+012009059GA2031+060009009MA1102511999999REMMET006NOSIG?EQDQ01+000000PRSWM2
0160039620999991990010721004+52700-008917SY-MT+0020EINN V0202601N00311220001CN0200001N1+00521+00421102591ADDAG12000GA1011+012009059GA2031+060009009GF103991011051012501001021MA1102511999999MD1210381+9999MW1001REMSYN017333   81640 83070MET006NOSIG?EQDQ01+000000PRSWM2
0091039620999991990010721304+52700-008917FM-15+0020EINN V0202401N00211220001CN0112001N1+00501+00401999999ADDAG12999GA1011+006009089GA2031+012009059MA1102611999999REMMET006NOSIG?EQDQ01+000000PRSWM2
0160039620999991990010722004+52700-008917SY-MT+0020EINN V0202601N00261220001CN0250001N1+00521+00421102701ADDAG12999GA1021+006009089GA2031+012009059GF103991031081008001001021MA1102711999999MD1210391+9999MW1001REMSYN017333   82820 83640MET006NOSIG?EQDQ01+000000PRSWM2
0075039620999991990010722304+52700-008917FM-15+0020EINN V0202401N00211220001CN0112001N1+00501+00401999999ADDAG12999GA1011+006009089MA1102711999999REMMET006NOSIG?EQDQ01+000000PRSWM2
0138039620999991990010723004+52700-008917SY-MT+0020EINN V0202301N00211220001CN0250001N1+00411+00311102751ADDAG12999GA1011+006009089GF101991011021008001001001MA1102711999999MD1210321+9999MW1001REMSYN011333   81820MET006NOSIG?EQDQ01+000000PRSWM2
0075039620999991990010723304+52700-008917FM-15+0020EINN V0202301N00261220001CN0112001N1+00401+00301999999ADDAG12000GA1011+006009089MA1102811999999REMMET006NOSIG?EQDQ01+000000PRSWM2
0155039620999991990010800004+52700-008917SY-MT+0020EINN V0202301N00151220001CN0250001N1+00381+00311102811ADDAA106999929AG10000GA1011+006009089GF101991011081008001001001MA1102811999999MD1210211+9999MW1001REMSYN017333   81820 92600MET006NOSIG?EQDQ01+000000PRSWM2
0075039620999991990010800304+52700-008917FM-15+0020EINN V0201601N00101220001CN0112001N1+00401+00301999999ADDAG11999GA1011+006009089MA1102811999999REMMET006NOSIG?EQDQ01+000000PRSWM2
0170039620999991990010801004+52700-008917SY-MT+0020EINN V0200701N00051220001CN0200001N1+00341+00261102911ADDAG11999GA1011+006009089GA2041+015009059GF104991041081008001999001MA1102911999999MD1210201+9999REMSYN017333   81820 84650MET006NOSIG?EQDQ01+000000PRSWM2Q02    003SCOMCG
0091039620999991990010801304+52700-008917FM-15+0020EINN V0201601N00051015001CN0112001N1+00301+00201999999ADDAG11999GA1011+006009089GA2061+015009059MA1102911999999REMMET006NOSIG?EQDQ01+000000PRSWM2
0176039620999991990010802004+52700-008917SY-MT+0020EINN V0201501N00101220001CN0200001N1+00321+00241102941ADDAG11999GA1011+006009089GA2041+015009059GF104991041081008001999001MA1102911999999MD1210201+9999MW1001REMSYN017333   81820 84650MET006NOSIG?EQDQ01+000000PRSWM2Q02    003SCOMCG
0075039620999991990010802304+52700-008917FM-15+0020EINN V0201301N00211220001CN0112001N1+00401+00301999999ADDAG11000GA1011+006009089MA1102911999999REMMET006NOSIG?EQDQ01+000000PRSWM2
0138039620999991990010803004+52700-008917SY-MT+0020EINN V0201101N00211220001CN0160001N1+00351+00281102911ADDAG12000GA1011+006009089GF101991011081008001001001MA1102911999999MD1010101+9999MW1001REMSYN011333   81820MET006NOSIG?EQDQ01+000000PRSWM2
0075039620999991990010803304+52700-008917FM-15+0020EINN V0201301N00261220001CN0112001N1+00301+00201999999ADDAG11999GA1011+012009059MA1102811999999REMMET006NOSIG?EQDQ01+000000PRSWM2
0135039620999991990010804004+52700-008917SY-MT+0020EINN V0201101N00261220001CN0120001N1+00311+00231102881ADDAG11999AY101011AY201011GA1011+012009059GF101991011051012501001001MA1102811999999MD1810031+9999MW1101REMSYN011333   81640MET006NOSIG?
0062039620999991990010804304+52700-008917FM-15+0020EINN V0201101N00261220001CN0112001N1+00301+00201999999ADDAG12999GA1011+012009059MA1102811999999MW1101REMMET006NOSIG?
0135039620999991990010805004+52700-008917SY-MT+0020EINN V0201101N00261220001CN0150001N1+00261+00181102901ADDAG12999AY101021AY201021GA1011+012009059GF101991011051012501001001MA1102811999999MD1510051+9999MW1101REMSYN011333   81640MET006NOSIG?
0062039620999991990010805304+52700-008917FM-15+0020EINN V0201201N00261220001CN0112001N1+00201+00201999999ADDAG12000GA1011+012009059MA1102811999999MW1101REMMET006NOSIG?
0209039620999991990010806004+52700-008917SY-MT+0020EINN V0201101N00261220001CN0150001N1+00211+00161102901ADDAA199999929AG10000AY111061AY201061GA1011+012009059GF101991011051012501001001GJ100009IA1099IA2999-00209KA1120N+00201MA1102811999999MD1510011+9999MW1101REMSYN035333   20020 31102 55000 81640 92600MET006NOSIG?
0105039620999991990010807004+52700-008917SY-MT+0020EINN V0201401N00311220001CN0200001N1+00251+00171102891ADDAG12999GF100991001001999999001001MA1102811999999MD1010011+9999REMMET012CAVOK NOSIG?EQDQ01+000000PRSWM2
0105039620999991990010808004+52700-008917SY-MT+0020EINN V0201501N00361220001CN0250001N1+00251+00171102891ADDAG12999GF100991001001999999001001MA1102811999999MD1810011+9999REMMET012CAVOK NOSIG?EQDQ01+000000PRSWM2
0065039620999991990010808304+52700-008917FM-15+0020EINN V0201401N00411999991CY0099001N1+00201+00201999999ADDAG12000MA1102811999999REMMET012CAVOK NOSIG?EQDQ01+000000PRSWM2
0166039620999991990010809004+52700-008917SY-MT+0020EINN V0201401N00511220001CN0250001N1+00261+00181102871ADDAG12000GA1011+003009079GA2031+060009009GF103991011061004501001021MA1102811999999MD1710031+9999MW1001REMSYN023333   81710 83070 92600MET006NOSIG?EQDQ01+000000PRSWM2
0103039620999991990010809304+52700-008917FM-15+0020EINN V0201401N00461220001CN0080001N1+00301+00201999999ADDAG12999GA1011+003009079GA2031+060009009MA1102811999999MW1101REMMET031VIS 10KM  SE SW NW  GRADU 10KM?
0148039620999991990010810004+52700-008917FM-12+0020EINN V0201601N00621060001CN0060001N9+00371+00301102831ADDAG12999AY111011AY211011GA1011+003009079GA2051+060009009GF105991011061004501001021MD1810061+9999MW1401REMSYN035333   81710 85070 98362 98562 98762
0078039620999991990010810304+52700-008917FM-15+0020EINN V0201501N00511060001CN0112001N1+00501+00401999999ADDAG12999GA1011+003609079GA2051+060009009MA1102711999999MW1101REMMET006NOSIG?
0157039620999991990010811004+52700-008917SY-MT+0020EINN V0201501N00671060001CN0150001N1+00601+00491102791ADDAG12999AY121021AY221021GA1011+003609079GA2051+060009009GF105991011061004501001021MA1102711999999MD1710101+9999MW1101REMSYN017333   81712 85070MET006NOSIG?
0107039620999991990010811304+52700-008917FM-15+0020EINN V0201601N00671060001CN0112001N1+00601+00501999999ADDAG12000GA1011+003609079GA2031+036009039GA3051+060009009MA1102711999999REMMET006NOSIG?EQDQ01+000000PRSWM2
0171039620999991990010812004+52700-008917SY-MT+0020EINN V0201401N00511060001CN0180001N1+00721+00561102691ADDAA106999929AG10000GA1011+004509079GA2061+060009009GF106991011061004501031021MA1102611999999MD1710171+9999MW1001REMSYN017333   81715 86070MET006NOSIG?EQDQ01+000000PRSWM2
0091039620999991990010812304+52700-008917FM-15+0020EINN V0201801N01081060001CN0112001N1+00901+00501999999ADDAG12999GA1031+012009059GA2061+060009009MA1102611999999REMMET006NOSIG?EQDQ01+000000PRSWM2
0182039620999991990010813004+52700-008917SY-MT+0020EINN V0201701N00721027001CN0200001N1+00891+00561102611ADDAG12999GA1031+012009059GA2041+027009049GA3071+060009029GF107991031051012501071061MA1102611999999MD1710211+9999MW1001REMSYN023333   83640 84459 87270MET006NOSIG?EQDQ01+000000PRSWM2
0107039620999991990010813304+52700-008917FM-15+0020EINN V0201801N00721012001CN0112001N1+00901+00701999999ADDAG12999GA1021+006009059GA2031+012009059GA3061+027009049MA1102511999999REMMET006NOSIG?EQDQ01+000000PRSWM2
0182039620999991990010814004+52700-008917SY-MT+0020EINN V0201801N00821027001CN0200001N1+00971+00721102501ADDAG12999GA1011+006009059GA2031+012009059GA3051+027009049GF106991031051008001071021MA1102511999999MD1710281+9999MW1001REMSYN023333   81620 83640 85459MET006NOSIG?EQDQ01+000000PRSWM2
0094039620999991990010814304+52700-008917FM-15+0020EINN V0201801N00771012001CN0112001N1+01001+00801999999ADDAG12001GA1031+005409079GA2051+012009059GA3071+027009049MA1102401999999MW1501REMMET006NOSIG?
0157039620999991990010815004+52700-008917SY-MT+0020EINN V0201701N00621012001CN0200001N1+01001+00791102471ADDAG12000AY151031AY221031GA1031+006009059GA2031+012009059GF106991051051008001031011MA1102401999999MD1610221+9999MW1201REMSYN017333   83620 83640MET006NOSIG?
0078039620999991990010815304+52700-008917FM-15+0020EINN V0201801N00621008401CN0112001N1+01101+00801999999ADDAG12999GA1021+004509079GA2031+008409059MA1102401999999MW1201REMMET006NOSIG?
0160039620999991990010816004+52700-008917SY-MT+0020EINN V0201901N00461006001CN0200001N1+01131+00821102491ADDAG12999GA1031+004809079GA2031+006009059GF107991061061004501031021MA1102401999999MD1510121+9999MW1001REMSYN017333   83716 83620MET006NOSIG?EQDQ01+000000PRSWM2
0091039620999991990010816304+52700-008917FM-15+0020EINN V0202101N00511008401CN0112001N1+01101+00801999999ADDAG12999GA1021+004809079GA2051+008409059MA1102401999999REMMET006NOSIG?EQDQ01+000000PRSWM2
0160039620999991990010817004+52700-008917SY-MT+0020EINN V0201901N00511012001CN0250001N1+01071+00691102411ADDAG12999GA1021+008409059GA2051+012009059GF107991071051008001031021MA1102401999999MD1710091+9999MW1001REMSYN017333   82628 85640MET006NOSIG?EQDQ01+000000PRSWM2
0091039620999991990010817304+52700-008917FM-15+0020EINN V0202001N00671010501CN0112001N1+01001+00701999999ADDAG12000GA1051+010509059GA2031+027009039MA1102401999999REMMET006NOSIG?EQDQ01+000000PRSWM2
0212039620999991990010818004+52700-008917SY-MT+0020EINN V0202001N00671027001CN0250001N1+01041+00681102381ADDAA199999929AG10000GA1041+010509059GA2031+027009039GA3061+060009029GF107991041051012501031081KA1120M+01151MA1102301999999MD1810091+9999MW1001REMSYN029333   10115 84635 83359 86270MET006NOSIG?EQDQ01+000000PRSWM2
0198039620999991990010819004+52700-008917SY-MT+0020EINN V0202201N00821009001CN0250001N1+01051+00811102441ADDAG12999AY161011AY251011GA1021+006009059GA2041+009009059GA3071+060009029GF108991051051008001071061MA1102401999999MD1510051+9999MW1581REMSYN023333   82620 84630 87270MET025TEMPO 8000 4ST010 7SC020?
0113039620999991990010819304+52700-008917FM-15+0020EINN V0202101N00511006001CN0112001N1+01001+00901999999ADDAG12999GA1021+003009079GA2031+006009059GA3061+009009059MA1102401999999MW1581REMMET025TEMPO 8000 4ST010 7SC020?
0179039620999991990010820004+52700-008917SY-MT+0020EINN V0202101N00671006001CN0150001N1+01021+00881102461ADDAG12999AY161021AY251021GA1021+003009079GA2031+006009059GA3081+024009049GF108991051051004501071999MA1102401999999MD1310051+9999MW1601REMSYN023333   82710 83620 88458MET006NOSIG?
0094039620999991990010820304+52700-008917FM-15+0020EINN V0202101N00571004501CN0112001N1+01001+00901999999ADDAG12003GA1021+003009079GA2041+004509079GA3081+024009049MA1102401999999MW1211REMMET006NOSIG?
0186039620999991990010821004+52700-008917SY-MT+0020EINN V0202501N00311003901CN0200001N1+01001+00881102541ADDAG12001AY161031AY251031GA1021+002409079GA2051+003909079GA3081+009009059GF108991081061002501999999MA1102511999999MD1210161+9999MW1211REMSYN023333   82708 85713 88630MET013NOSIG+     ??
0078039620999991990010821304+52700-008917FM-15+0020EINN V0202401N00461009001CN0112001N1+01001+00801999999ADDAG12999GA1021+003609079GA2041+009009059MA1102511999999MW1211REMMET006NOSIG?
0166039620999991990010822004+52700-008917SY-MT+0020EINN V0202301N00461220001CN0250001N1+00901+00761102591ADDAG11999GA1011+005409079GA2041+060009009GF104991031051004501001021MA1102511999999MD1210151+9999MW1001REMSYN023333   81718 84070 99020MET006NOSIG?EQDQ01+000000PRSWM2
0092039620999991990010822304+52700-008917FM-15+0020EINN V0202201N00511060001CN0112001N1+01001+00801999999ADDAG12999GA1021+006609089GA2041+060009009MA1102611999999REMMET007NOSIG+?EQDQ01+000000PRSWM2
0160039620999991990010823004+52700-008917SY-MT+0020EINN V0202001N00461009001CN0250001N1+00961+00751102671ADDAG11999GA1021+006609089GA2051+009009059GF107991071081008001999999MA1102611999999MD1210211+9999MW1001REMSYN017333   82822 85630MET006NOSIG?EQDQ01+000000PRSWM2
0091039620999991990010823304+52700-008917FM-15+0020EINN V0201801N00461009001CN0112001N1+01001+00701999999ADDAG12000GA1041+006609089GA2051+009009059MA1102611999999REMMET006NOSIG?EQDQ01+000000PRSWM2
0209039620999991990010900004+52700-008917SY-MT+0020EINN V0202201N00261009001CN0200001N1+00961+00711102721ADDAA106000391AG10001AY161061AY251061GA1021+006609089GA2031+009009059GA3051+015009059GF107991071081008001999999MA1102711999999MD1210181+9999MW1031REMSYN023333   82822 83630 85650MET006NOSIG?EQDQ01+000000PRSWM2
0091039620999991990010900304+52700-008917FM-15+0020EINN V0202401N00511220001CN0112001N1+00901+00601999999ADDAG11999GA1011+006609089GA2041+012009059MA1102711999999REMMET006NOSIG?EQDQ01+000000PRSWM2
0138039620999991990010901004+52700-008917SY-MT+0020EINN V0202401N00511220001CN0200001N1+00891+00581102761ADDAG11999GA1011+006609089GF102991021081008001001001MA1102711999999MD1210171+9999MW1001REMSYN011333   81822MET006NOSIG?EQDQ01+000000PRSWM2
0075039620999991990010901304+52700-008917FM-15+0020EINN V0202401N00461220001CN0112001N1+00901+00601999999ADDAG11999GA1031+009009059MA1102811999999REMMET006NOSIG?EQDQ01+000000PRSWM2
0138039620999991990010902004+52700-008917SY-MT+0020EINN V0202501N00361220001CN0200001N1+00771+00571102841ADDAG11999GA1011+009009059GF101991011051012501001001MA1102811999999MD1210171+9999MW1001REMSYN011333   81630MET006NOSIG?EQDQ01+000000PRSWM2
0075039620999991990010902304+52700-008917FM-15+0020EINN V0202401N00411220001CN0112001N1+00801+00601999999ADDAG11000GA1011+009009059MA1102811999999REMMET006NOSIG?EQDQ01+000000PRSWM2
0138039620999991990010903004+52700-008917SY-MT+0020EINN V0202401N00411220001CN0200001N1+00761+00561102891ADDAG12000GA1021+009009059GF102991021051012501001001MA1102811999999MD1210171+9999MW1001REMSYN011333   82630MET006NOSIG?EQDQ01+000000PRSWM2
0075039620999991990010903304+52700-008917FM-15+0020EINN V0202301N00261220001CN0112001N1+00701+00501999999ADDAG12999GA1031+009009059MA1102911999999REMMET006NOSIG?EQDQ01+000000PRSWM2
0138039620999991990010904004+52700-008917SY-MT+0020EINN V0202201N00311009001CN0200001N1+00711+00481102931ADDAG12999GA1071+009009059GF107991071051012501999999MA1102911999999MD1210161+9999MW1001REMSYN011333   87630MET006NOSIG?EQDQ01+000000PRSWM2
0062039620999991990010904304+52700-008917FM-15+0020EINN V0202301N00411220001CN0112001N1+00801+00501999999ADDAG12999GA1011+003609089MA1102911999999MW1251REMMET006NOSIG?
0135039620999991990010905004+52700-008917SY-MT+0020EINN V0202501N00511220001CN0200001N1+00761+00491102981ADDAG12999AY181021AY211021GA1011+006009089GF101991011021008001001001MA1102911999999MD1210141+9999MW1251REMSYN011333   81820MET006NOSIG?
0065039620999991990010905304+52700-008917FM-15+0020EINN V0202301N00311999991CY0099001N1+00701+00501999999ADDAG12000MA1102911999999REMMET012CAVOK NOSIG?EQDQ01+000000PRSWM2
0228039620999991990010906004+52700-008917SY-MT+0020EINN V0202001N00211220001CN0200001N1+00631+00441103041ADDAA199000391AG10001AY181061AY211061GA1011+060009009GF101991001001999999001021GJ100609IA1099IA2999+00109KA1120N+00621MA1103011999999MD1210141+9999MW1021REMSYN029333   20062 31001 55010 81070MET012CAVOK NOSIG?EQDQ01+000000PRSWM2
0065039620999991990010906304+52700-008917FM-15+0020EINN V0202401N00311999991CY0099001N1+00601+00401999999ADDAG12999MA1103011999999REMMET012CAVOK NOSIG?EQDQ01+000000PRSWM2
0160039620999991990010907004+52700-008917SY-MT+0020EINN V0201901N00311220001CN0200001N1+00561+00401103071ADDAG12999GA1011+015009059GF101991011051017501999001MA1103011999999MD1210141+9999MW1001REMSYN011333   81650MET012CAVOK NOSIG?EQDQ01+000000PRSWM2Q02    003SCOMCG
0160039620999991990010908004+52700-008917SY-MT+0020EINN V0201801N00211220001CN0200001N1+00511+00361103111ADDAG12999GA1011+015009059GF101991011051017501999001MA1103121999999MD1210121+9999MW1001REMSYN011333   81650MET012CAVOK NOSIG?EQDQ01+000000PRSWM2Q02    003SCOMCG
0065039620999991990010908304+52700-008917FM-15+0020EINN V0201501N00311999991CY0099001N1+00501+00301999999ADDAG12000MA1103121999999REMMET012CAVOK NOSIG?EQDQ01+000000PRSWM2
0160039620999991990010909004+52700-008917SY-MT+0020EINN V0201801N00311220001CN0200001N1+00501+00331103121ADDAG12000GA1011+015009059GF101991011051017501999011MA1103121999999MD1210091+9999MW1001REMSYN011333   81650MET012CAVOK NOSIG?EQDQ01+000000PRSWM2Q02    003SCOMCG
0065039620999991990010909304+52700-008917FM-15+0020EINN V0201801N00311999991CY0099001N1+00501+00301999999ADDAG12999MA1103121999999REMMET012CAVOK NOSIG?EQDQ01+000000PRSWM2
0160039620999991990010910004+52700-008917SY-MT+0020EINN V0201901N00311220001CN0200001N1+00511+00341103161ADDAG12999GA1011+006609089GA2031+060009009GF103991011081008001031021MA1103121999999MD1210091+9999MW1001REMSYN017333   81822 83070MET006NOSIG?EQDQ01+000000PRSWM2
0091039620999991990010910304+52700-008917FM-15+0020EINN V0201801N00261220001CN0112001N1+00601+00401999999ADDAG12999GA1011+006009089GA2031+030009039MA1103121999999REMMET006NOSIG?EQDQ01+000000PRSWM2
0154039620999991990010911004+52700-008917SY-MT+0020EINN V0201801N00261220001CN0200001N1+00641+00431103211ADDAG12999GA1011+006009089GA2041+030009039GF104991011081008001031021MA1103181999999MD1210101+9999REMSYN017333   81820 84360MET006NOSIG?EQDQ01+000000PRSWM2
0091039620999991990010911304+52700-008917FM-15+0020EINN V0201801N00151220001CN0112001N1+00701+00501999999ADDAG12000GA1011+005109079GA2041+011109059MA1103121999999REMMET006NOSIG?EQDQ01+000000PRSWM2
0171039620999991990010912004+52700-008917SY-MT+0020EINN V0201901N00361030001CN0200001N1+00891+00541103151ADDAA106000091AG14000GA1011+006009059GA2031+012009059GF105991031051008001031999MA1103121999999MD1010031+9999MW1001REMSYN017333   81620 83640MET006NOSIG?EQDQ01+000000PRSWM2
0091039620999991990010912304+52700-008917FM-15+0020EINN V0201901N00261015001CN0112001N1+00901+00501999999ADDAG12999GA1011+006009059GA2051+015009059MA1103121999999REMMET006NOSIG?EQDQ01+000000PRSWM2
0176039620999991990010913004+52700-008917SY-MT+0020EINN V0201901N00311015001CN0200001N1+00911+00531103071ADDAG12999GA1011+006009059GA2051+015009059GA3051+030009039GF107991051051008001031999MA1103011999999MD1810081+9999REMSYN023333   81620 85650 85360MET006NOSIG?EQDQ01+000000PRSWM2
0091039620999991990010913304+52700-008917FM-15+0020EINN V0201701N00311015001CN0112001N1+00901+00501999999ADDAG12999GA1011+006009059GA2051+015009059MA1103011999999REMMET006NOSIG?EQDQ01+000000PRSWM2
0160039620999991990010914004+52700-008917SY-MT+0020EINN V0201701N00361030001CN0200001N1+00911+00511102941ADDAG12999GA1011+006009059GA2031+012009059GF105991031051008001031021MA1102911999999MD1710261+9999MW1001REMSYN017333   81620 83640MET006NOSIG?EQDQ01+000000PRSWM2
0108039620999991990010915004+52700-008917FM-12+0020EINN V0201701N00411013501CN0200001N9+00921+00521102901ADDAG12000GA1011+006009059GA2061+013509059GF107991061051008001031999MD1710251+9999REMSYN017333   81620 86645
0091039620999991990010915304+52700-008917FM-15+0020EINN V0201601N00461013501CN0112001N1+00901+00501999999ADDAG12999GA1011+006009059GA2071+013509059MA1102811999999REMMET006NOSIG?EQDQ01+000000PRSWM2
0160039620999991990010916004+52700-008917SY-MT+0020EINN V0201701N00461013501CN0180001N1+00861+00551102811ADDAG12999GA1011+006009059GA2071+013509059GF107991071051008001999999MA1102811999999MD1710261+9999MW1001REMSYN017333   81620 87645MET006NOSIG?EQDQ01+000000PRSWM2
0078039620999991990010916304+52700-008917FM-15+0020EINN V0201601N00461012601CN0112001N1+00801+00601999999ADDAG12999GA1011+006009059GA2051+012609059MA1102711999999MW1101REMMET006NOSIG?
0179039620999991990010917004+52700-008917SY-MT+0020EINN V0201601N00511018001CN0160001N1+00821+00581102721ADDAG12999AY121021AY221021GA1011+006009059GA2031+012009059GA3071+018009059GF107991071051008001999999MA1102711999999MD1710221+9999MW1101REMSYN023333   81620 83640 87656MET006NOSIG?
0091039620999991990010917304+52700-008917FM-15+0020EINN V0201601N00511018001CN0112001N1+00901+00601999999ADDAG12000GA1031+012009059GA2071+018009059MA1102611999999REMMET006NOSIG?EQDQ01+000000PRSWM2
0184039620999991990010918004+52700-008917SY-MT+0020EINN V0201701N00671018001CN0200001N1+00851+00641102631ADDAA106000091AG14000GA1021+012009059GA2061+018009059GF107991071051012501999999KA1120M+00951MA1102611999999MD1710271+9999REMSYN023333   10095 82640 86656MET006NOSIG?EQDQ01+000000PRSWM2
0075039620999991990010918304+52700-008917FM-15+0020EINN V0201501N00571018001CN0112001N1+00901+00701999999ADDAG12999GA1071+018009059MA1102511999999REMMET006NOSIG?EQDQ01+000000PRSWM2
0144039620999991990010919004+52700-008917SY-MT+0020EINN V0201501N00571030001CN0200001N1+00801+00621102531ADDAG12999GA1011+018009059GF107991011051017501071999MA1102511999999MD1710281+9999REMSYN017333   81656 87460MET012CAVOK NOSIG?EQDQ01+000000PRSWM2
0065039620999991990010919304+52700-008917FM-15+0020EINN V0209999999999999991CY0099001N1+00801+00601999999ADDAG12999MA1102401999999REMMET012CAVOK NOSIG?EQDQ01+000000PRSWM2
0144039620999991990010920004+52700-008917SY-MT+0020EINN V0201501N00621030001CN0200001N1+00861+00671102421ADDAG12999GA1011+015009059GF108991011051017501021999MA1102401999999MD1710301+9999REMSYN017333   81650 88458MET012CAVOK NOSIG?EQDQ01+000000PRSWM2
0065039620999991990010920304+52700-008917FM-15+0020EINN V0201501N00721999991CY0099001N1+00901+00701999999ADDAG12000MA1102301999999REMMET012CAVOK NOSIG?EQDQ01+000000PRSWM2
0167039620999991990010921004+52700-008917SY-MT+0020EINN V0201501N00671005401CN0200001N1+00931+00651102321ADDAG12000GA1051+005409079GA2081+015009059GF108991081061004501999999MA1102301999999MD1710311+9999MW1001REMSYN017333   85718 88650MET013GRADU 5ST010?EQDQ01+000000PRSWM2
0114039620999991990010921304+52700-008917FM-15+0020EINN V0201501N00621006601CN0112001N1+01001+00601999999ADDAG12999GA1021+005109079GA2031+006609059GA3071+024009049MA1102201999999REMMET013GRADU 5ST010?EQDQ01+000000PRSWM2
0189039620999991990010922004+52700-008917SY-MT+0020EINN V0201701N00461006601CN0200001N1+01011+00691102181ADDAG12999GA1031+005109079GA2041+006609059GA3071+024009049GF107991051061004501071999MA1102101999999MD1710351+9999REMSYN023333   83717 84622 87458MET019GRADU 5ST010     ??EQDQ01+000000PRSWM2
0120039620999991990010922304+52700-008917FM-15+0020EINN V0201701N00621012001CN0112001N1+01101+00801999999ADDAG12999GA1021+005109079GA2031+012009059GA3071+024009049MA1102101999999REMMET019GRADU 5ST010     ??EQDQ01+000000PRSWM2
0189039620999991990010923004+52700-008917SY-MT+0020EINN V0201901N00771012001CN0200001N1+01141+00811102031ADDAG12999GA1021+005109079GA2031+012009059GA3071+024009049GF107991031061004501071999MA1102001999999MD1710391+9999REMSYN023333   82717 83640 87458MET019GRADU 5ST010     ??EQDQ01+000000PRSWM2
0202039620999991990011000004+52700-008917SY-MT+0020EINN V0201901N00771004201CN0160001N1+01101+00901101981ADDAA106999929AG10001AY161061AY251061GA1021+002109079GA2041+004209079GA3081+024009049GF108991051061002501071999MA1101901999999MD1610341+9999MW1581REMSYN023333   82707 84714 88458MET018TEMPO 5000 5ST007?
0106039620999991990011000304+52700-008917FM-15+0020EINN V0201901N00721004501CN0112001N1+01101+00901999999ADDAG11999GA1021+001809079GA2031+004509079GA3081+018009049MA1101901999999MW1581REMMET018TEMPO 5000 6ST007?
0183039620999991990011001004+52700-008917SY-MT+0020EINN V0202001N00671001801CN0040001N1+01091+00951101951ADDAG12999AY161011AY251011GA1021+001209079GA2041+001809079GA3081+003009079GF108991081071001501999999MD1510231+9999MW1581REMSYN023333   82704 84706 88710MET025TEMPO 8000 4ST010 7SC020?
0117039620999991990011001304+52700-008917FM-15+0020EINN V0202201N00671004501CN0080001N1+01101+00901999999ADDAG11999GA1021+001509079GA2051+004509079GA3081+005409079MA1101901999999MW1581REMMET029TEMPO      ?     5000 6ST007?
0191039620999991990011002004+52700-008917SY-MT+0020EINN V0202001N00721015001CN0200001N1+01101+00831101881ADDAG12999AY161021AY251021GA1011+001509079GA2031+009909059GA3071+015009059GF108991081051001501999999MA1101801999999MD1710151+9999MW1211REMSYN023333   81705 83633 87650MET018TEMPO 5000 6ST007?
0106039620999991990011002304+52700-008917FM-15+0020EINN V0202001N00881007501CN0112001N1+01101+00801999999ADDAG12001GA1021+004509079GA2041+007509059GA3071+015009059MA1101801999999MW1501REMMET018TEMPO 5000 6ST007?
0191039620999991990011003004+52700-008917SY-MT+0020EINN V0202001N00771006001CN0200001N1+01101+00811101821ADDAG12001AY161031AY251031GA1021+004509079GA2031+006009059GA3071+015009059GF108991081051004501999999MA1101801999999MD1710161+9999MW1601REMSYN023333   82715 83620 87650MET018TEMPO 5000 6ST007?
0106039620999991990011003304+52700-008917FM-15+0020EINN V0202001N00931009001CN0112001N1+01101+00801999999ADDAG12999GA1021+002109079GA2051+009009059GA3071+015009059MA1101691999999MW1601REMMET018TEMPO 5000 6ST007?
0191039620999991990011004004+52700-008917SY-MT+0020EINN V0202101N00821006001CN0200001N1+01081+00791101731ADDAG12999AY161011AY221011GA1011+004509079GA2051+006009059GA3071+015009059GF108991081051004501999999MA1101691999999MD1710221+9999MW1211REMSYN023333   81715 85620 87650MET018TEMPO 5000 6ST007?
0094039620999991990011004304+52700-008917FM-15+0020EINN V0202201N00981006001CN0112001N1+01101+00801999999ADDAG12999GA1011+003009079GA2051+006009059GA3071+015009059MA1101691999999MW1501REMMET006NOSIG?
0179039620999991990011005004+52700-008917SY-MT+0020EINN V0202201N00821004501CN0200001N1+01081+00811101711ADDAG12999AY161021AY251021GA1021+002109079GA2041+004509079GA3061+006009059GF108991081061002501999999MA1101691999999MD1610171+9999MW1211REMSYN023333   82707 84715 86620MET006NOSIG?
0254039620999991990011006004+52700-008917SY-MT+0020EINN V0202201N00671003001CN0160001N1+01041+00871101761ADDAA199001091AG19001AY161061AY251061GA1031+002109079GA2051+003009079GA3081+005409079GF108991081061002501999999GJ100909IA1099IA2999+00609KA1120N+00861MA1101691999999MD1510061+9999MW1501REMSYN041333   20086 31006 55015 83707 85710 88718MET013GRADU 4CU020?
0101039620999991990011006304+52700-008917FM-15+0020EINN V0202201N00721003601CN0112001N1+01101+00901999999ADDAG12999GA1021+002109079GA2061+003609079GA3081+006009059MA1101691999999MW1201REMMET013GRADU 4CU020?
0152039620999991990011007004+52700-008917FM-12+0020EINN V0202301N00621002701CN0200001N9+01021+00881101841ADDAG12999AY151011AY221011GA1031+002109079GA2051+002709079GA3081+004509079GF108991081061002501999999MD1310111+9999MW1501REMSYN023333   83707 85709 88715
0119039620999991990011007304+52700-008917FM-15+0020EINN V0202301N00411002401CN0112001N1+01001+00901999999ADDAG12999GA1021+001809079GA2061+002409079GA3081+004509079MA1101801999999MW1501REMMET031GRADU      ?     3ST010 6CU020?
0170039620999991990011008004+52700-008917SY-MT+0020EINN V0202501N00361001201CN0080001N1+01001+00901101871ADDAG12999AY161021AY251021GA1051+001209079GA2081+002409079GF108991081071001501999999MA1101801999999MD1210161+9999MW1591REMSYN017333   85704 88708MET019GRADU 6ST010     ??
0094039620999991990011008304+52700-008917FM-15+0020EINN V0202301N00461002701CN0112001N1+01001+00901999999ADDAG12003GA1021+001509079GA2051+002709079GA3081+007509059MA1101801999999MW1211REMMET006NOSIG?
0179039620999991990011009004+52700-008917SY-MT+0020EINN V0202401N00461003601CN0200001N1+01001+00881101851ADDAG12001AY161031AY251031GA1021+002409079GA2041+003609079GA3071+007509059GF107991071061002501999999MA1101801999999MD1010091+9999MW1211REMSYN023333   82708 84712 87625MET006NOSIG?
0107039620999991990011009304+52700-008917FM-15+0020EINN V0202301N00461004501CN0112001N1+01001+00901999999ADDAG12999GA1021+003009079GA2041+004509079GA3061+009009059MA1101801999999REMMET006NOSIG?EQDQ01+000000PRSWM2
