0203039620999991999010100004+52700-008920SY-MT+0020EINN V0201401N007010090019N0300001N1+00531+00231098821ADDAA199000791AG11999AY161061AY251061GA1021+004509999GA2081+009009999GF108991081051004501999999MA1098821098581MD1410001+9999MW1511MW2601REMSYN023 333 83715 84626 88640;MET010NEW NOSIG;EQDQ01    003PRSWM1
0212039620999991999010101004+52700-008920SY-MT+0020EINN V0201501N006010120019N0250001N1+00611+00401098811ADDAG12999AY161999AY221999GA1021+004509999GA2021+007509999GA3081+012009999GF108991081051008001999999MA1098711098571MD1710011+9999MW1601REMSYN017 333 85625 88635;MET010NEW NOSIG;EQDQ01+000000PRSWM2Q02    003PRSWM1
0202039620999991999010102004+52700-008920SY-MT+0020EINN V0201601N009010084019N0250001N1+00601+00331098751ADDAG12999AY161999AY261999GA1021+005409999GA2071+008409999GA3081+012009999GF108991081061004501999999MA1098711098511MD1810071+9999MW1611REMSYN023 333 82712 85718 88628;MET010NEW NOSIG;EQDQ01    003PRSWM1
0218039620999991999010103004+52700-008920SY-MT+0020EINN V0201501N007010084019N0300001N1+00571+00411098721ADDAG12999AY161031AY221031GA1021+005409999GA2071+008409999GF199999061051004501999999MA1098711098491MD1710091+9999MW1211REMSYN023 333 81715 83620 85635;MET010NEW NOSIG;EQDQ01+000062SCOTCVQ02+000000PRSWM2Q03    003PRSWM1
0180039620999991999010104004+52700-008920SY-MT+0020EINN V0201501N005010105019N0300001N1+00611+00421098751ADDAG12999GA1021+004509999GA2021+006009999GA3071+010509999GF107991071051008001999999MA1098711098511MD1510061+9999MW1001REMSYN017 333 84620 87635;MET010NEW NOSIG;EQDQ01+000000PRSWM2
0164039620999991999010105004+52700-008920SY-MT+0020EINN V0201701N005010105019N0300001N1+00661+00481098751ADDAG12999GA1021+006009999GA2071+010509999GF107991071051008001999999MA1098711098511MD1510001+9999MW1001REMSYN017 333 83620 86635;MET010NEW NOSIG;EQDQ01+000000PRSWM2
0270039620999991999010106004+52700-008920SY-MT+0020EINN V0201901N008010135019N0080001N1+00671+00511098791ADDAA199001091AG12999AY181061AY261061GA1021+006009999GA2071+013509999GF108991081031004501999999GJ103069IA1099IA2999+00109KA1120N+00401MA1098711098551MD1310061+9999MW1801REMSYN041 333 20040 31001 55051 83715 86918 87645;MET010NEW NOSIG;EQDQ01+000000PRSWM2Q02    003PRSWM1
0208039620999991999010107004+52700-008920SY-MT+0020EINN V0201701N008010054019N0250001N1+00701+00541098781ADDAG12999AY181999AY221999GA1021+003609999GA2071+005409099GA3071+013509999GF108991081031004501999999MA1098711098541MD1210031+9999MW1251MW2801REMSYN023 333 84715 83918 87645;MET010NEW NOSIG;EQDQ01    003PRSWM1
0202039620999991999010108004+52700-008920SY-MT+0020EINN V0202001N009010105019N0250001N1+00721+00471098821ADDAG12999GA1021+004509999GA2021+005409099GA3071+010509999GA4071+015009999GF107991071031004501999999MA1098711098581MD1210071+9999MW1001REMSYN023 333 81918 83635 87650;MET010NEW NOSIG;EQDQ01+000000PRSWM2
0218039620999991999010109004+52700-008920SY-MT+0020EINN V0201901N008010105019N0250001N1+00701+00471098881ADDAG12999AY181031AY221031GA1021+002409999GA2021+005409099GA3071+010509999GF107991071031002501999999MA1098821098641MD1210091+9999MW1801REMSYN023 333 81708 83918 85635;MET010NEW NOSIG;EQDQ01+000000PRSWM2Q02    003PRSWM1
0228039620999991999010110004+52700-008920SY-MT+0020EINN V0201601N007010105019N0250001N1+00681+00501098911ADDAG12999AY181999AY221999GA1021+003009999GA2021+005409099GA3071+010509999GF199999051031004501001001MA1098921098681MD1210141+9999MW1251REMSYN017 333 81710 83918;MET010NEW NOSIG;EQDQ01+000052SCOTCVQ02+000000PRSWM2Q03    003PRSWM1
0164039620999991999010111004+52700-008920SY-MT+0020EINN V0201701N007012200019N0250001N1+00801+00461098921ADDAG12999GA1021+005409099GA2021+015009999GF103991031031004501001001MA1098921098691MD1210111+9999MW1001REMSYN017 333 81918 83650;MET010NEW NOSIG;EQDQ01+000000PRSWM2
0207039620999991999010112004+52700-008920SY-MT+0020EINN V0201801N008010120019N0250001N1+00841+00521098871ADDAA199001091AG11999AY181061AY211061GA1021+006009999GA2021+060009999GF106991051081008001001021MA1098821098641MD1010001+9999MW1031REMSYN017 333 81820 85645;MET010NEW NOSIG;EQDQ01+000000PRSWM2Q02    003PRSWM1
0186039620999991999010113004+52700-008920SY-MT+0020EINN V0201901N007010600019N0250001N1+00901+00571098801ADDAG11999GA1021+006009999GA2021+013509999GA3071+060009999GF107991041081008001031021MA1098821098571MD1810111+9999MW1001REMSYN023 333 81820 83645 85070;MET010NEW NOSIG;EQDQ01+000000PRSWM2
0186039620999991999010114004+52700-008920SY-MT+0020EINN V0201901N006010600019N0250001N1+00901+00571098761ADDAG11999GA1021+006009999GA2021+013509999GA3071+060009999GF107991041081004501071999MA1098711098531MD1710161+9999MW1001REMSYN023 333 81715 84640 86460;MET010NEW NOSIG;EQDQ01+000000PRSWM2
0186039620999991999010115004+52700-008920SY-MT+0020EINN V0201901N006010300019N0250001N1+00881+00551098711ADDAG11999GA1021+006009999GA2021+012009999GA3071+030009999GF108991051081008001071999MA1098711098481MD1710161+9999MW1001REMSYN023 333 81820 85640 87460;MET010NEW NOSIG;EQDQ01+000000PRSWM2
0218039620999991999010116004+52700-008920SY-MT+0020EINN V0202001N010010270019N0120001N1+00841+00431098631ADDAG12999AY181999AY261999GA1021+006009999GA2021+012009999GA3081+027009999GF108991061051004501021999MA1098611098401MD1710171+9999MW1621REMSYN023 333 81710 84627 88459;MET010NEW NOSIG;EQDQ01+000000PRSWM2Q02    003PRSWM1
0228039620999991999010117004+52700-008920SY-MT+0020EINN V0201701N007010240019N0200001N1+00741+00491098461ADDAG12999AY161999AY221999GA1021+002709999GA2021+007509999GA3081+024009999GF108991041051004501021999MA1098511098231MD1810301+9999MW1211MW2631OC101491REMSYN023 333 81710 83622 88459;MET022NEW TEMPO 5000 BKN007;EQDQ01    003PRSWM1
0250039620999991999010118004+52700-008920SY-MT+0020EINN V0201601N010010240019N0200001N1+00791+00521098241ADDAA199002091AG12999AY181061AY261061GA1021+003009999GA2021+006609999GA3081+024009999GF108991061051004501021999KA1120M+00951MA1098311098011MD1710471+9999MW1601MW2611REMSYN029 333 10095 82710 84622 88458;MET022NEW TEMPO 5000 BKN007;EQDQ01    003PRSWM1
0198039620999991999010119004+52700-008920SY-MT+0020EINN V0201601N011010051019N0150001N1+00791+00571097961ADDAG12999AY161999AY261999GA1021+003009999GA2081+005109999GF108991081061004501999999MA1098101097731MD1810671+9999MW1611REMSYN023 333 82710 83715 87620;MET022NEW TEMPO 5000 BKN007;EQDQ01    003PRSWM1
0234039620999991999010120004+52700-008920SY-MT+0020EINN V0201601N011010150019N0120001N1+00771+00571097711ADDAG12999AY161999AY221999GA1021+003609999GA2021+006009999GA3081+015009999GF108991081051004501999999MA1097701097481MD1710751+9999MW1501MW2611OC102061REMSYN029 333 83712 86621 87650 91121;MET022NEW TEMPO 5000 BKN007;EQDQ01    003PRSWM1
0220039620999991999010121004+52700-008920SY-MT+0020EINN V0202301N010010057019N0250001N1+00911+00431097711ADDAG12999AY161031AY251031GA1021+002109999GA2021+003309999GA3071+005709999GF107991071061004501999999MA1097601097481MD1610531+9999MW1211MW2611REMSYN023 333 86713 85630 91603;MET022NEW TEMPO 5000 BKN007;EQDQ01    003PRSWM1
0180039620999991999010122004+52700-008920SY-MT+0020EINN V0202101N007010090019N0090001N1+00861+00401097731ADDAG12999GA1021+003909999GA2071+009009999GF199999061051004501999999MA1097701097501MD1510231+9999MW1001REMSYN017 333 83710 86530;MET010NEW NOSIG;EQDQ01+000062SCOTCVQ02+000000PRSWM2
0232039620999991999010123004+52700-008920SY-MT+0020EINN V0202001N005012200019N0120001N1+00701+00421097791ADDAG12999AY181999AY211999GA1021+001509999GA2071+002709999GA3071+004509999GF199999031081002501001001MA1097801097561MD1310081+9999MW1251MW2801OC101751REMSYN023 333 81709 83817 91119;MET010NEW NOSIG;EQDQ01+000032SCOTCVQ02    003PRSWM1
0219039620999991999010200004+52700-008920SY-MT+0020EINN V0202401N008012200019N0150001N1+00751+00381097841ADDAA199002091AG12999AY181061AY211061GA1021+002709999GA2021+005409099GF103991031031002501001001MA1097801097611MD1210131+9999MW1801REMSYN029 333 81709 83917 90710 91117;MET010NEW NOSIG;EQDQ01+000000PRSWM2Q02    003PRSWM1
0242039620999991999010201004+52700-008920SY-MT+0020EINN V0202301N010010120019N0200001N1+00671+00361097841ADDAG12999AY181999AY211999GA1021+003009999GA2021+005409099GA3071+012009999GF199999051031004501001001MA1097801097611MD1110111+9999MW1801OC101541REMSYN023 333 81710 84918 91120;MET010NEW NOSIG;EQDQ01+000052SCOTCVQ02+000000PRSWM2Q03    003PRSWM1
0216039620999991999010202004+52700-008920SY-MT+0020EINN V0202301N013012200019N0200001N1+00761+00341097821ADDAG12999AY181999AY221999GA1021+003009999GA2071+005409099GF199999041031004501001001MA1097801097591MD1010031+9999MW1251MW2801OC101951REMSYN023 333 81710 84918 91120;MET010NEW NOSIG;EQDQ01+000042SCOTCVQ02    003PRSWM1
0210039620999991999010203004+52700-008920SY-MT+0020EINN V0202501N013010054019N0200001N1+00691+00341097861ADDAG12999AY181031AY211031GA1021+003009999GA2071+005409099GF107991071031004501999999MA1097801097631MD1210021+9999MW1251OC102111REMSYN023 333 82710 86918 91122;MET010NEW NOSIG;EQDQ01+000000PRSWM2Q02    003PRSWM1
0226039620999991999010204004+52700-008920SY-MT+0020EINN V0202501N013010054019N0150001N1+00801+00331097921ADDAG12999AY181999AY221999GA1021+003009999GA2071+005409099GF199999061031004501999999MA1097801097691MD1310081+9999MW1801OC101801REMSYN023 333 82710 85918 91122;MET010NEW NOSIG;EQDQ01+000062SCOTCVQ02+000000PRSWM2Q03    003PRSWM1
0210039620999991999010205004+52700-008920SY-MT+0020EINN V0202601N012010054019N0090001N1+00661+00301097981ADDAG12999AY181999AY221999GA1021+003009999GA2071+005409999GF107991071031002501999999MA1097901097751MD1210161+9999MW1801OC101901REMSYN023 333 83708 86918 91125;MET010NEW NOSIG;EQDQ01+000000PRSWM2Q02    003PRSWM1
0284039620999991999010206004+52700-008920SY-MT+0020EINN V0202701N014010054019N0090001N1+00651+00321098061ADDAA199006191AG12999AY181061AY281061GA1021+003009999GA2071+005409099GF107991071031002501999999GJ100129IA1099IA2999+00409KA1120N+00611MA1098001097831MD1210201+9999MW1801OC101951REMSYN047 333 20061 31004 55002 83708 86918 90710 91123;MET010NEW NOSIG;EQDQ01+000000PRSWM2Q02    003PRSWM1
0210039620999991999010207004+52700-008920SY-MT+0020EINN V0202601N01001004201CN0150001N1+00741+00201098191ADDAG12999AY181999AY221999GA1021+003009999GA2021+005409099GF106991061031004501999999MA1098101097961MD1210271+9999MW1251OC101851REMSYN023 333 82710 85918 91121;MET010NEW NOSIG;EQDQ01+000000PRSWM2Q02    003PRSWM1
0186039620999991999010208004+52700-008920SY-MT+0020EINN V0202501N011010054019N0200001N1+00741+00201098261ADDAG12999GA1021+003009999GA2071+005409099GF199999051031004501001001MA1098211098031MD1110281+9999MW1001REMSYN023 333 82712 85918 91123;MET010NEW NOSIG;EQDQ01+000052SCOTCVQ02+000000PRSWM2
0216039620999991999010209004+52700-008920SY-MT+0020EINN V0202401N014010054019N0150001N1+00601+00201098391ADDAG12999AY181031AY221031GA1021+002409999GA2071+005409099GF199999061031004501999999MA1098311098161MD1210331+9999MW1801OC102011REMSYN029 333 83709 85918 90710 91123;MET010NEW NOSIG;EQDQ01+000062SCOTCVQ02    003PRSWM1
0200039620999991999010210004+52700-008920SY-MT+0020EINN V0202701N008010054019N0200001N1+00561+00271098501ADDAG12999AY181999AY221999GA1021+002409999GA2071+005409099GF107991071031004501999999MA1098411098271MD1210311+9999MW1251MW2801OC101701REMSYN023 333 84712 87918 91119;MET010NEW NOSIG;EQDQ01    003PRSWM1
0200039620999991999010211004+52700-008920SY-MT+0020EINN V0202501N009010060019N0120001N1+00681+00251098541ADDAG12999AY181999AY221999GA1021+004509999GA2071+006009099GF107991071031004501999999MA1098511098311MD1110281+9999MW1251MW2801OC101851REMSYN023 333 83716 87920 91119;MET010NEW NOSIG;EQDQ01    003PRSWM1
0207039620999991999010212004+52700-008920SY-MT+0020EINN V0202401N010012200019N0200001N1+00711+00251098571ADDAA199001091AG12999AY181061AY211061GA1021+005109999GA2021+006009099GF103991031031004501001001MA1098511098341MD1110181+9999MW1011REMSYN017 333 81717 83921;MET010NEW NOSIG;EQDQ01+000000PRSWM2Q02    003PRSWM1
0224039620999991999010213004+52700-008920SY-MT+0020EINN V0202501N014010060019N0100001N1+00541+00131098701ADDAG12999AY191999AY281999GA1021+004509999GA2071+006009099GF107991071091004501999999MA1098611098471MD1310201+9999MW1801OA149999999REMSYN029 333 85714 87918 91121 96487;MET015NEW RETS NOSIG;EQDQ01  01082WGOSPDQ02    003PRSWM1
0186039620999991999010214004+52700-008920SY-MT+0020EINN V0202601N010010051019N0180001N1+00631+00321098761ADDAG12999AY181999AY221999GA1021+003309999GA2071+005109099GF107991071091004501999999MA1098711098521MD1210211+9999MW1801REMSYN023 333 83710 86918 86630;MET010NEW NOSIG;EQDQ01    003PRSWM1
0224039620999991999010215004+52700-008920SY-MT+0020EINN V0202601N010010051019N0200001N1+00661+00241098821ADDAG12999AY181031AY291031GA1021+002409999GA2071+005109999GA3071+006609999GF107991071091004501999999MA1098821098581MD1210241+9999MW1251REMSYN029 333 82712 85919 85630 96487;MET010NEW NOSIG;EQDQ01+000000PRSWM2Q02    003PRSWM1
0208039620999991999010216004+52700-008920SY-MT+0020EINN V0202601N010010051019N0150001N1+00681+00331098941ADDAG12999AY181999AY221999GA1021+002409999GA2071+005109099GA3071+009009999GF107991071091004501999999MA1098921098701MD1310231+9999MW1801REMSYN029 333 81710 85916 85630 91120;MET010NEW NOSIG;EQDQ01    003PRSWM1
0226039620999991999010217004+52700-008920SY-MT+0020EINN V0202601N008010090019N0150001N1+00711+00361099081ADDAG12999AY181999AY221999GA1021+004209999GA2021+005409099GA3071+009009999GF107991071091004501999999MA1098921098841MD1310321+9999MW1801OC101591REMSYN023 333 82711 84920 86635;MET010NEW NOSIG;EQDQ01+000000PRSWM2Q02    003PRSWM1
0226039620999991999010218004+52700-008920SY-MT+0020EINN V0202601N009012200019N0180001N1+00691+00231099191ADDAA199005191AG12999AY181061AY211061GA1021+002709999GA2021+005409099GF102991021031002501001001KA1120M+00821MA1099091098951MD1210371+9999MW1251REMSYN023 333 10082 81709 82918;MET010NEW NOSIG;EQDQ01+000000PRSWM2Q02    003PRSWM1
0174039620999991999010219004+52700-008920SY-MT+0020EINN V0202601N009012200019N0180001N1+00691+00171099281ADDAG12999GA1021+002709999GA2021+005409099GF199999011031004501001001MA1099191099041MD1210341+9999MW1001REMSYN011 333 81918;MET010NEW NOSIG;EQDQ01+000012SCOTCVQ02+000000PRSWM2
0218039620999991999010220004+52700-008920SY-MT+0020EINN V0202701N010010105019N0180001N1+00611+00341099371ADDAG12999AY181999AY211999GA1021+002709999GA2021+005409099GA3071+010509999GF107991071031002501999999MA1099291099131MD1210291+9999MW1801REMSYN023 333 81709 84918 87635;MET010NEW NOSIG;EQDQ01+000000PRSWM2Q02    003PRSWM1
0224039620999991999010221004+52700-008920SY-MT+0020EINN V0202401N006010105019N0180001N1+00701+00211099351ADDAG12999AY181031AY211031GA1021+002709999GA2021+005409099GA3071+010509999GF199999061031002501999999MA1099291099111MD1010161+9999MW1251MW2801REMSYN023 333 81709 83918 85642;MET010NEW NOSIG;EQDQ01+000062SCOTCVQ02    003PRSWM1
0186039620999991999010222004+52700-008920SY-MT+0020EINN V0202401N006010120019N0200001N1+00601+00281099281ADDAG12999GA1021+003009999GA2021+005109999GA3071+012009999GF107991071051004501999999MA1099191099041MD1010001+9999MW1001REMSYN023 333 81710 83717 87640;MET010NEW NOSIG;EQDQ01+000000PRSWM2
0180039620999991999010223004+52700-008920SY-MT+0020EINN V0201901N003010120019N0200001N1+00581+00261099201ADDAG12999GA1021+003309999GA2021+005409999GA3071+012009999GF108991081051004501999999MA1099191098961MD1810171+9999MW1001REMSYN017 333 81715 88645;MET010NEW NOSIG;EQDQ01+000000PRSWM2
0197039620999991999010300004+52700-008920SY-MT+0020EINN V0202101N004010135019N0150001N1+00621+00251099091ADDAA199000191AG12999AY181061AY261061GA1021+004209999GA2081+013509999GF108991081051004501999999MA1099091098851MD1710261+9999MW1601MW2611REMSYN017 333 81714 88640;MET010NEW NOSIG;EQDQ01    003PRSWM1
0202039620999991999010301004+52700-008920SY-MT+0020EINN V0201401N004010120019N0070001N1+00501+00381098851ADDAG12999AY161999AY261999GA1021+002109999GA2021+004209999GA3081+012009999GF108991081051002501999999MA1098921098611MD1710431+9999MW1611REMSYN023 333 81707 83714 88645;MET010NEW NOSIG;EQDQ01    003PRSWM1
0202039620999991999010302004+52700-008920SY-MT+0020EINN V0200701N004010135019N0050001N1+00461+00341098621ADDAG12999AY161999AY261999GA1021+002109999GA2021+005109999GA3081+013509999GF108991081061002501999999MA1098711098391MD1710571+9999MW1611REMSYN023 333 82707 84714 86719;MET010NEW NOSIG;EQDQ01    003PRSWM1
0208039620999991999010303004+52700-008920SY-MT+0020EINN V0200201N006010042019N0050001N1+00431+00311098651ADDAG12999AY161031AY261031GA1021+002109999GA2071+004209999GA3081+005709999GF108991081061001501999999MA1098511098421MD1510431+9999MW1611MW2631REMSYN023 333 84705 86713 88718;MET010NEW NOSIG;EQDQ01    003PRSWM1
0208039620999991999010304004+52700-008920SY-MT+0020EINN V0203401N006010039019N0070001N1+00311+00261098941ADDAG12999AY161999AY261999GA1021+001809999GA2071+003909999GA3081+005409999GF108991081061001501999999MA1098711098701MD1310091+9999MW1611MW2631REMSYN023 333 82705 84713 86718;MET010NEW NOSIG;EQDQ01    003PRSWM1
0218039620999991999010305004+52700-008920SY-MT+0020EINN V0203101N005010135019N0200001N1+00441+00341099151ADDAG12999AY161999AY261999GA1021+001509999GA2021+004509999GA3071+013509999GF199999061051004501999999MA1098981098921MD1210531+9999MW1611REMSYN023 333 82710 83715 85645;MET010NEW NOSIG;EQDQ01+000062SCOTCVQ02    003PRSWM1
0305039620999991999010306004+52700-008920SY-MT+0020EINN V0203001N001012200019N0200001N1+00491+00371099311ADDAA199010991AG12999AY161061AY211061GA1021+003609999GA2071+006009999GF199999031051004501001001GJ100369IA1099IA2999+00209KA1120N+00301MA1099271099081MD1210661+9999MW1211REMSYN035 333 20030 31002 55006 81712 83620;MET019NEW (3 Q0992 NOSIG;EQDQ01+000032SCOTCVQ02+999990APOA  Q03+000000PRSWM2Q04    003PRSWM1
0202039620999991999010307004+52700-008920SY-MT+0020EINN V0202601N007010060019N0090001N1+00541+00341099551ADDAG12999AY181999AY211999GA1021+002709999GA2021+003609999GA3071+006009999GF107991071081002501999999MA1099491099321MD1210621+9999MW1801REMSYN023 333 82709 83712 85820;MET010NEW NOSIG;EQDQ01    003PRSWM1
0196039620999991999010308004+52700-008920SY-MT+0020EINN V0202601N00701004201CN0200001N1+00561+00351099751ADDAG12999AY181999AY211999GA1021+003609999GA2021+006009999GF105991051031004501001001MA1099591099521MD1210601+9999MW1251REMSYN017 333 82712 85918;MET010NEW NOSIG;EQDQ01+000000PRSWM2Q02    003PRSWM1
0142039620999991999010310004+52700-008920SY-MT+0020EINN V0202501N004012200019N0300001N1+00571+00231099921ADDAG12999GA1021+005409999GF102991021081004501031021MA1099901099681MD1110361+9999MW1001REMSYN011 333 81818;MET010NEW NOSIG;EQDQ01+000000PRSWM2
0170039620999991999010311004+52700-008920SY-MT+0020EINN V0202201N004010600019N0300001N1+00611+00291099971ADDAG12999GA1021+005409999GA2071+060009999GF107991031081004501031021MA1099901099731MD1210211+9999MW1001REMSYN023 333 81818 83650 87070;MET010NEW NOSIG;EQDQ01+000000PRSWM2
0229039620999991999010312004+52700-008920SY-MT+0020EINN V0202101N004010600019N0300001N1+00671+00361099981ADDAA199000891AG12999AY181061AY211061GA1021+009009999GA2021+015009999GA3071+060009999GF107991041051008001071021MA1100001099751MD1110101+9999MW1031REMSYN023 333 82625 83650 87070;MET010NEW NOSIG;EQDQ01+000000PRSWM2Q02    003PRSWM1
0186039620999991999010313004+52700-008920SY-MT+0020EINN V0201601N004010600019N0300001N1+00671+00391099901ADDAG12999GA1021+007509999GA2021+015009999GA3071+060009999GF108991051051008001071021MA1099901099661MD1810021+9999MW1001REMSYN023 333 82625 84650 85460;MET010NEW NOSIG;EQDQ01+000000PRSWM2
0197039620999991999010314004+52700-008920SY-MT+0020EINN V0201301N003010042019N0250001N1+00671+00391099781ADDAG12999AY161999AY221999GA1071+004209999GA2081+006009999GF108991081061004501999999MA1099801099541MD1810191+9999MW1601REMSYN017 333 84710 87714;MET011NEW NODSIG;EQDQ01+000000PRSWM2Q02    003PRSWM1
0208039620999991999010315004+52700-008920SY-MT+0020EINN V0201501N006010069019N0200001N1+00631+00441099621ADDAG12999AY161031AY221031GA1021+003309999GA2021+005109999GA3081+006909999GF108991021051008001021999MA1099701099381MD1810371+9999MW1611REMSYN017 333 82620 88556;MET022NEW TEMPO 6000 BKN010;EQDQ01    003PRSWM1
0210039620999991999010316004+52700-008920SY-MT+0020EINN V0201501N008010045019N0250001N1+00641+00501099391ADDAG12999AY161999AY251999GA1071+004509999GA2081+018009999GF108991061051004501021999MA1099391099151MD1710511+9999MW1501MW2511MW3611REMSYN023 333 82712 86650 88459;MET022NEW TEMPO 6000 BKN010;EQDQ01    003PRSWM1
0204039620999991999010317004+52700-008920SY-MT+0020EINN V0201501N011010048019N0200001N1+00671+00561099141ADDAG12999AY161999AY251999GA1021+002409999GA2071+004809999GF108991081061002501999999MA1099191098901MD1710641+9999MW1501MW2611REMSYN023 333 83708 86714 88630;MET022NEW TEMPO 6000 BKN010;EQDQ01    003PRSWM1
0280039620999991999010318004+52700-008920SY-MT+0020EINN V0201601N012010042019N0250001N1+00781+00601098901ADDAA199002091AG12999AY161061AY251061GA1021+002409999GA2071+004209999GA3081+009009999GF108991081061004501999999KA1120M+00781MA1098921098671MD1710711+9999MW1501OC101951REMSYN041 333 10078 83711 86714 88645 90710 91120;MET022NEW TEMPO 6000 BKN010;EQDQ01+000000PRSWM2Q02    003PRSWM1
0220039620999991999010319004+52700-008920SY-MT+0020EINN V0201601N010010039019N0120001N1+00861+00741098771ADDAG12999AY161999AY251999GA1021+002709999GA2071+003909999GA3081+011409999GF108991041061002501021999MA1098821098541MD1710611+9999MW1511MW2611REMSYN023 333 81709 83715 88550;MET022NEW TEMPO 6000 BKN010;EQDQ01    003PRSWM1
0203039620999991999010319304+52700-008920FM-15+0020EINN V0201801N007710051019N0112651N1+00901+00801098761ADDAG12999GA1021+002409999GA2071+005109999GA3071+007209999GF107991999999999999999999MA1098711098521MW1611REMMET022NEW TEMPO 6000 BKN010;EQDQ01+999990APOSP Q02+999990APOSLPQ03+000003PRSWM1Q04    003PRSWM1
0236039620999991999010321004+52700-008920SY-MT+0020EINN V0202401N010010054019N0250001N1+01141+00851098761ADDAG12999AY161031AY251031GA1021+001809999GA2071+005409999GA3081+015009999GF199999071051004501999999MA1098711098531MD1510141+9999MW1211MW2611REMSYN023 333 81711 83718 86650;MET022NEW TEMPO 6000 BKN010;EQDQ01+000072SCOTCVQ02    003PRSWM1
0240039620999991999010322004+52700-008920SY-MT+0020EINN V0202401N009012200019N0200001N1+01031+00641098801ADDAG12999AY161999AY211999GA1021+003309999GA2021+005409999GA3071+013509999GF199999041061004501001001MA1098711098571MD1310031+9999MW1211REMSYN017 333 81711 83718;MET022NEW TEMPO 6000 BKN010;EQDQ01+000042SCOTCVQ02+000000PRSWM2Q03    003PRSWM1
0203039620999991999010323004+52700-008920FM-15+0020EINN V0202401N007210111019N0112651N1+01001+00701098871ADDAG12999GA1021+002709999GA2021+005409999GA3071+011109999GF107991999999999999999999MA1098821098631MW1801REMMET022NEW TEMPO 6000 BKN010;EQDQ01+999990APOSP Q02+999990APOSLPQ03+000003PRSWM1Q04    003PRSWM1
0265039620999991999010400004+52700-008920SY-MT+0020EINN V0202301N008010114019N0250001N1+00981+00561098871ADDAA199001091AG12999AY181061AY261061GA1021+002409999GA2021+005109999GA3071+011409999GF199999061081002501999999MA1098821098641MD1210111+9999MW1251OC101701REMSYN023 333 81708 83818 85638;MET022NEW TEMPO 6000 BKN010;EQDQ01+000062SCOTCVQ02+000000PRSWM2Q03    003PRSWM1
0171039620999991999010400304+52700-008920FM-15+0020EINN V0202301N009310600019N0112651N1+00901+00601098971ADDAG12999GA1021+005409999GA2071+060009999GF107991999999999999999999MA1098921098731MW1001REMMET022NEW TEMPO 6000 BKN010;EQDQ01+999990APOSP Q02+999990APOSLPQ03+000000PRSWM2
0171039620999991999010401304+52700-008920FM-15+0020EINN V0202301N008712200019N0112651N1+00901+00401098971ADDAG12999GA1021+005409999GA2021+060009999GF104991999999999999999999MA1098921098731MW1001REMMET022NEW TEMPO 6000 BKN010;EQDQ01+999990APOSP Q02+999990APOSLPQ03+000000PRSWM2
0155039620999991999010403004+52700-008920FM-15+0020EINN V0202301N009812200019N0112651N1+00801+00401098971ADDAG11999GA1021+006009999GF102991999999999999999999MA1098921098731MW1001REMMET022NEW TEMPO 6000 BKN010;EQDQ01+999990APOSP Q02+999990APOSLPQ03+000000PRSWM2
0179039620999991999010404004+52700-008920FM-15+0020EINN V0202301N009810150019N0112651N1+00901+00301099031ADDAG12999GA1021+006009999GA2071+015009999GF107991999999999999999999MA1098981098791MW1001OC101491REMMET022NEW TEMPO 6000 BKN010;EQDQ01+999990APOSP Q02+999990APOSLPQ03+000000PRSWM2
0171039620999991999010404304+52700-008920FM-15+0020EINN V0202301N010310150019N0112651N1+00901+00301099031ADDAG12999GA1021+006009999GA2071+015009999GF107991999999999999999999MA1098981098791MW1001REMMET022NEW TEMPO 6000 BKN010;EQDQ01+999990APOSP Q02+999990APOSLPQ03+000000PRSWM2
0320039620999991999010406004+52700-008920SY-MT+0020EINN V0202401N011012200019N0250001N1+00851+00231099141ADDAA199001091AG12999AY181061AY211061GA1021+006009999GA2071+015009999GF199999031081008001001001GJ100369IA1099IA2999+00509KA1120N+00781MA1099101098911MD1210151+9999MW1011OC101591REMSYN035 333 20078 31005 55006 81820 83650;MET010NEW NOSIG;EQDQ01+000032SCOTCVQ02+100103APOA  Q03+999990APOA  Q04+000000PRSWM2Q05    003PRSWM1
0143039620999991999010406304+52700-008920FM-15+0020EINN V0202301N009312200019N0112651N1+00801+00201099141ADDAG12999GA1021+006009999GF102991999999999999999999MA1099091098901MW1001REMMET010NEW NOSIG;EQDQ01+999990APOSP Q02+999990APOSLPQ03+000000PRSWM2
0115039620999991999010407304+52700-008920FM-15+0020EINN V0202401N010319999999Y0099001N1+00801+00201099341ADDAG12999MA1099291099101MW1001OC101541REMMET016NEW CAVOK NOSIG;EQDQ01+999990APOSP Q02+999990APOSLPQ03+000000PRSWM2
0182039620999991999010409004+52700-008920SY-MT+0020EINN V0202501N012010042019N0250001N1+00871-00011099581ADDAG11999GA1021+006009999GA2021+060009999GF107991061051004501999021MA1099391099351MD1210441+9999MW1001REMSYN035 333 81716 83630 85650 90710 91118;MET010NEW NOSIG;EQDQ01+000000PRSWM2
0183039620999991999010409304+52700-008920FM-15+0020EINN V0202501N010310150019N0112651N1+00901+00101099641ADDAG11999GA1021+004509999GA2021+009009999GA3071+015009999GF107991999999999999999999MA1099591099401MW1001OC101541REMMET010NEW NOSIG;EQDQ01+999990APOSP Q02+999990APOSLPQ03+000000PRSWM2
0194039620999991999010410004+52700-008920SY-MT+0020EINN V0202501N011010150019N0180001N1+00861+00031099761ADDAG11999GA1021+004509999GA2021+009009999GA3071+015009999GF107991071051004501001021MA1099591099521MD1210481+9999MW1001OC101541REMSYN023 333 81710 83622 86650;MET010NEW NOSIG;EQDQ01+000000PRSWM2
0161039620999991999010411004+52700-008920SY-MT+0020EINN V0202501N010010150019N0200001N1+00851+00181099871ADDAG11999GA1021+003009999GA2021+006609999GA3071+015009999GF107991071051008001999999MA1099821099631MD1210481+9999MW1001REMSYN017 333 83622 87650;MET010NEW NOSIG;
0331039620999991999010412004+52700-008920SY-MT+0020EINN V0202401N011012200019N0250001N1+00851+00231099951ADDAA199001091AG11999AY181061AY211061GA1021+006909999GA2071+015009999GF199999031081008001001001GJ100369IA1099IA2999+00509MA1099901099711MD1210151+9999MW1011REMSYN035 333 0078/ 31005 55006 81820 89/90;MET010NEW NOSIG;EQDQ01+000032SCOTCVQ02+098913APOSP Q03+099143APOSLPQ04+999990APOSP Q05+999990APOSLPQ06+000000PRSWM2Q07    003PRSWM1
0159039620999991999010412304+52700-008920FM-15+0020EINN V0202601N009810150019N0112651N1+00901+00101100051ADDAG12999GA1021+006609999GA2071+015009999GF107991999999999999999999MA1100001099811MW1001REMMET010NEW NOSIG;EQDQ01+999990APOSP Q02+999990APOSLPQ03+000000PRSWM2
0175039620999991999010413304+52700-008920FM-15+0020EINN V0202401N005710150019N0112651N1+00801+00401100151ADDAG12999GA1021+005409999GA2021+009009999GA3071+015009999GF107991999999999999999999MA1100101099911MW1001REMMET010NEW NOSIG;EQDQ01+999990APOSP Q02+999990APOSLPQ03+000000PRSWM2
0159039620999991999010414304+52700-008920FM-15+0020EINN V0202301N003610600019N0112651N1+00901+00301100151ADDAG12999GA1021+003009999GA2071+060009999GF107991999999999999999999MA1100101099911MW1001REMMET010NEW NOSIG;EQDQ01+999990APOSP Q02+999990APOSLPQ03+000000PRSWM2
0164039620999991999010415004+52700-008920SY-MT+0020EINN V0202301N004010600019N0200001N1+00851+00341100211ADDAG11999GA1021+003009999GA2071+060009999GF107991031081008001031021MA1100101099971MD1110231+9999MW1001REMSYN017 333 83820 87070;MET010NEW NOSIG;EQDQ01+000000PRSWM2
0161039620999991999010416004+52700-008920SY-MT+0020EINN V0202201N003010600019N0200001N1+00761+00341100231ADDAG12999GA1021+006009999GA2021+030009999GA3071+060009999GF107991071081008001999999MA1100181099991MD1110121+9999MW1001REMSYN017 333 81821 87650;MET010NEW NOSIG;
0164039620999991999010417004+52700-008920SY-MT+0020EINN V0201901N003010150019N0180001N1+00681+00351100281ADDAG12999GA1021+009009999GA2071+015009999GF107991071051012501999999MA1100201100041MD1310071+9999MW1001REMSYN017 333 81630 87650;MET010NEW NOSIG;EQDQ01+000000PRSWM2
0210039620999991999010418004+52700-008920SY-MT+0020EINN V0201701N003010150019N0160001N1+00681+00351100261ADDAA199000091AG14999GA1021+009009999GA2071+015009999GF107991071051012501999999KA1120M+00911MA1100311100021MD1010051+9999MW1001REMSYN023 333 10091 81635 87650;MET010NEW NOSIG;EQDQ01+000000PRSWM2Q02  00002PRCP99
0164039620999991999010419004+52700-008920SY-MT+0020EINN V0201001N003010150019N0200001N1+00661+00421100201ADDAG12999GA1021+009009999GA2071+015009999GF107991071051012501999999MA1100201099961MD1810031+9999MW1001REMSYN017 333 81630 87650;MET010NEW NOSIG;EQDQ01+000000PRSWM2
0196039620999991999010420004+52700-008920SY-MT+0020EINN V0201201N003010150019N0150001N1+00651+00421100201ADDAG12999AY161999AY221999GA1021+010509999GA2071+015009999GF108991081051008001999999MA1100201099961MD1710081+9999MW1601REMSYN017 333 82625 87650;MET010NEW NOSIG;EQDQ01+000000PRSWM2Q02    003PRSWM1
0186039620999991999010421004+52700-008920SY-MT+0020EINN V0201001N003010150019N0080001N1+00661+00531100171ADDAG12999AY161031AY261031GA1021+006609999GA2071+015009999GF108991081051002501999999MA1100201099931MD1710091+9999MW1611REMSYN023 333 81708 83628 88650;MET010NEW NOSIG;EQDQ01    003PRSWM1
0191039620999991999010421304+52700-008920FM-15+0020EINN V0201001N004110150019N0080001N1+00701+00501100051ADDAG12999GA1021+002409999GA2021+008409999GA3081+015009999GF108991999999999999999999MA1100001099811MW1611REMMET010NEW NOSIG;EQDQ01+999990APOSP Q02+999990APOSLPQ03+000003PRSWM1Q04    003PRSWM1
0219039620999991999010423004+52700-008920SY-MT+0020EINN V0200801N004010024019N0030001N1+00621+00531099911ADDAG12999AY161999AY251999GA1021+001809999GA2071+002409999GA3071+006009999GF108991081061001501999999MA1099901099671MD1710291+9999MW1511MW2581MW3611REMSYN023 333 84705 86708 87712;MET015NEW TEMPO 8000;EQDQ01    003PRSWM1
0230039620999991999010500004+52700-008920SY-MT+0020EINN V0200701N004010024019N0030001N1+00611+00571099681ADDAA199004191AG12999AY161061AY251061GA1021+001509999GA2071+002409999GA3071+003609999GF108991081061001501999999MA1099701099441MD1710491+9999MW1511MW2581MW3611REMSYN023 333 85704 86706 87709;MET015NEW TEMPO 6000;EQDQ01    003PRSWM1
0197039620999991999010501004+52700-008920SY-MT+0020EINN V0201001N004010012019N0030001N1+00661+00571099571ADDAG12999AY161999AY251999GA1071+001209999GA2071+002409999GF108991081061001501999999MA1099591099331MD1710441+9999MW1511MW2581MW3611REMSYN017 333 85703 87708;MET015NEW TEMPO 5000;EQDQ01    003PRSWM1
0220039620999991999010502004+52700-008920SY-MT+0020EINN V0201201N004010015019N0080001N1+00711+00641099451ADDAG12999AY161999AY251999GA1021+000909999GA2071+001509999GA3071+003009999GF108991081061001501999999MA1099391099211MD1710461+9999MW1511MW2581REMSYN023 333 83703 85708 86714;MET022NEW TEMPO 5000 BKN006;EQDQ01    003PRSWM1
0220039620999991999010503004+52700-008920SY-MT+0020EINN V0209999C000010024019N0150001N1+00791+00701099431ADDAG12999AY161031AY251031GA1021+001509999GA2071+002409999GA3071+005409999GF108991081061001501999999MA1099391099201MD1610241+9999MW1201MW2511REMSYN023 333 82703 85708 87715;MET022NEW TEMPO 5000 BKN006;EQDQ01    003PRSWM1
0215039620999991999010504004+52700-008920SY-MT+0020EINN V0201601N004010024019N0200001N1+00821+00711099341ADDAG12999AY151999AY221999GA1021+000909999GA2071+002409999GA3071+004509999GF108991081061001501999999MA1099391099111MD1710221+9999MW1201MW2511REMSYN023 333 82705 84715 86622;MET017NEW TEMPO BKN006;EQDQ01    003PRSWM1
0215039620999991999010505004+52700-008920SY-MT+0020EINN V0200101N002010030019N0120001N1+00691+00601099391ADDAG12999AY161999AY221999GA1021+000909999GA2071+003009999GA3071+004509999GF108991041061001501021999MA1099291099151MD1510061+9999MW1601MW2611REMSYN023 333 82705 84712 88556;MET017NEW TEMPO BKN006;EQDQ01    003PRSWM1
0277039620999991999010506004+52700-008920SY-MT+0020EINN V0200201N001010180019N0120001N1+00691+00621099421ADDAA199007191AG12999AY161061AY251061GA1021+001509999GA2021+003609999GA3081+018009999GF108991061061001501021999GJ100069IA1129IA2999+00509KA1120N+00591MA1099391099181MD1510021+9999MW1611REMSYN041 333 20059 33005 55001 83703 84710 88556;MET017NEW TEMPO BKN006;EQDQ01    003PRSWM1
0225039620999991999010507004+52700-008920SY-MT+0020EINN V0201601N003010066019N0150001N1+00871+00811099391ADDAG12999AY161999AY221999GA1021+000909999GA2021+003009999GA3071+006609999GF108991081061001501999999MA1099391099161MD1010051+9999MW1211REMSYN023 333 83703 84710 86640;MET017NEW TEMPO BKN006;EQDQ01+000000PRSWM2Q02    003PRSWM1
0202039620999991999010508004+52700-008920SY-MT+0020EINN V0202601N001010030019N0200001N1+00841+00711099481ADDAG12999GA1021+000909999GA2071+003009999GA3071+012009999GF108991081061001501999999MA1099391099251MD1310101+9999MW1001REMSYN023 333 82703 85710 86640;MET026NEW WS RWY24 TEMPO BKN006;EQDQ01+000000PRSWM2
0225039620999991999010509004+52700-008920SY-MT+0020EINN V0201701N003010120019N0250001N1+01041+00851099481ADDAG12999AY161031AY221031GA1021+002109999GA2071+012009999GA3081+027009999GF108991061051002501021999MA1099391099251MD1110071+9999MW1021REMSYN023 333 81708 86640 88459;MET017NEW TEMPO BKN010;EQDQ01+000000PRSWM2Q02    003PRSWM1
0182039620999991999010509304+52700-008920FM-15+0020EINN V0201801N006210135019N0112651N1+01001+00801099541ADDAG12999GA1021+003009999GA2071+013509999GA3081+027009999GF108991999999999999999999MA1099491099301MW1001REMMET017NEW TEMPO BKN010;EQDQ01+999990APOSP Q02+999990APOSLPQ03+000000PRSWM2
0175039620999991999010510304+52700-008920FM-15+0020EINN V0201901N007210150019N0112651N1+01001+00801099541ADDAG12999GA1021+003609999GA2071+015009999GA3071+030009999GF107991999999999999999999MA1099491099301MW1001REMMET010NEW NOSIG;EQDQ01+999990APOSP Q02+999990APOSLPQ03+000000PRSWM2
0229039620999991999010512004+52700-008920SY-MT+0020EINN V0201901N006010360019N0600001N1+01071+00761099601ADDAA199000591AG12999AY161061AY221061GA1021+003909999GA2021+015009999GA3071+036009999GF107991061081004501031071MA1099491099371MD1110121+9999MW1021REMSYN023 333 81713 85645 87360;MET010NEW NOSIG;EQDQ01+000000PRSWM2Q02    003PRSWM1
0177039620999991999010513004+52700-008920FM-15+0020EINN V0201901N005110300019N0112651N1+01101+00801099641ADDAG12999GA1021+004509999GA2021+013509999GA3071+030009999GF107991999999999999999999MA1099591099401MW1001REMMET012NEW 6 NOSIG;EQDQ01+999990APOSP Q02+999990APOSLPQ03+000000PRSWM2
0175039620999991999010513304+52700-008920FM-15+0020EINN V0201901N008710300019N0112651N1+01101+00701099641ADDAG12999GA1021+004809999GA2071+030009999GA3071+060009999GF107991999999999999999999MA1099591099401MW1001REMMET010NEW NOSIG;EQDQ01+999990APOSP Q02+999990APOSLPQ03+000000PRSWM2
0180039620999991999010515004+52700-008920SY-MT+0020EINN V0202001N008010300019N0400001N1+01071+00621099661ADDAG12999GA1021+005109999GA2021+015009999GA3071+030009999GF107991011081004501041999MA1099591099431MD1210061+9999MW1001REMSYN017 333 81817 87360;MET010NEW NOSIG;EQDQ01+000000PRSWM2
0186039620999991999010516004+52700-008920SY-MT+0020EINN V0202201N007010300019N0400001N1+01031+00601099771ADDAG12999GA1021+005109999GA2021+015009999GA3071+030009999GF107991041081004501071999MA1099701099531MD1310101+9999MW1001REMSYN023 333 81817 83650 87360;MET010NEW NOSIG;EQDQ01+000000PRSWM2
0186039620999991999010517004+52700-008920SY-MT+0020EINN V0202101N007010069019N0350001N1+00911+00581099821ADDAG12999GA1021+005109999GA2071+006909999GA3071+030009999GF107991061051004501071999MA1099801099581MD1210201+9999MW1001REMSYN023 333 81716 86622 86360;MET010NEW NOSIG;EQDQ01+000000PRSWM2
0242039620999991999010518004+52700-008920SY-MT+0020EINN V0202401N007010042019N0200001N1+00881+00691099921ADDAA199000591AG11999AY151061AY221061GA1021+003009999GA2071+004209999GA3071+015009999GF108991081061004501999999KA1120M+01111MA1099801099681MD1210251+9999MW1201REMSYN023 333 10111 85711 86620;MET010NEW NOSIG;EQDQ01+000000PRSWM2Q02    003PRSWM1
0186039620999991999010519004+52700-008920SY-MT+0020EINN V0202401N005010030019N0200001N1+00801+00691100011ADDAG11999GA1021+001809999GA2071+003009999GA3071+006009999GF108991081061002501999999MA1099901099771MD1210241+9999MW1001REMSYN023 333 82707 85711 86620;MET010NEW NOSIG;EQDQ01+000000PRSWM2
0218039620999991999010520004+52700-008920SY-MT+0020EINN V0202601N006010033019N0120001N1+00761+00721100101ADDAG12999AY151999AY221999GA1021+002109999GA2071+003309999GA3071+007509999GF108991081061002501999999MA1100001099861MD1210281+9999MW1201REMSYN023 333 83707 85711 86625;MET010NEW NOSIG;EQDQ01+000000PRSWM2Q02    003PRSWM1
0218039620999991999010521004+52700-008920SY-MT+0020EINN V0202701N005010033019N0200001N1+00761+00581100241ADDAG12999AY151031AY221031GA1021+002109999GA2071+003309999GA3071+009009999GF108991081051004501999999MA1100101100001MD1210321+9999MW1021REMSYN023 333 82710 85620 86650;MET010NEW NOSIG;EQDQ01+000000PRSWM2Q02    003PRSWM1
0186039620999991999010522004+52700-008920SY-MT+0020EINN V0202901N004010066019N0250001N1+00761+00541100251ADDAG12999GA1021+003009999GA2071+006609999GA3071+015009999GF108991081051004501999999MA1100201100011MD1210241+9999MW1001REMSYN023 333 81710 84622 87650;MET010NEW NOSIG;EQDQ01+000000PRSWM2
0180039620999991999010523004+52700-008920SY-MT+0020EINN V0202901N004010150019N0250001N1+00741+00491100341ADDAG12999GA1021+004509999GA2021+006609999GA3071+015009999GF108991081051008001999999MA1100311100101MD1210241+9999MW1001REMSYN017 333 82622 87650;MET010NEW NOSIG;EQDQ01+000000PRSWM2
0200039620999991999010600004+52700-008920SY-MT+0020EINN V0202801N002010150019N0250001N1+00711+00551100351ADDAA199000791AY151061AY221061GA1021+007509999GA2071+015009999GF108991081051008001999999MA1100311100111MD1010111+9999MW1021REMSYN017 333 83625 87650;MET010NEW NOSIG;EQDQ01+000000PRSWM2Q02    003PRSWM1
0164039620999991999010601004+52700-008920SY-MT+0020EINN V0202601N002010150019N0250001N1+00691+00531100401ADDAG12999GA1021+007509999GA2071+015009999GF108991081051008001999999MA1100411100161MD1110151+9999MW1001REMSYN017 333 83625 87650;MET010NEW NOSIG;EQDQ01+000000PRSWM2
0164039620999991999010602004+52700-008920SY-MT+0020EINN V0202801N002010150019N0250001N1+00681+00551100431ADDAG12999GA1021+007509999GA2071+015009999GF108991081051008001999999MA1100411100191MD1110091+9999MW1001REMSYN017 333 83625 87650;MET010NEW NOSIG;EQDQ01+000000PRSWM2
0164039620999991999010603004+52700-008920SY-MT+0020EINN V0202601N002010150019N0250001N1+00661+00551100461ADDAG12999GA1021+009009999GA2071+015009999GF108991081051008001999999MA1100411100221MD1210111+9999MW1001REMSYN017 333 83625 87650;MET010NEW NOSIG;EQDQ01+000000PRSWM2
0180039620999991999010604004+52700-008920SY-MT+0020EINN V0202401N002010150019N0250001N1+00641+00531100461ADDAG12999GA1021+007209999GA2021+009009999GA3071+015009999GF107991071051008001999999MA1100411100221MD1110061+9999MW1001REMSYN017 333 83625 85650;MET010NEW NOSIG;EQDQ01+000000PRSWM2
0164039620999991999010605004+52700-008920SY-MT+0020EINN V0202401N001010150019N0250001N1+00651+00541100471ADDAG12999GA1021+007509999GA2071+015009999GF107991071051008001999999MA1100411100231MD1210041+9999MW1001REMSYN017 333 83628 86650;MET010NEW NOSIG;EQDQ01+000000PRSWM2
0232039620999991999010606004+52700-008920SY-MT+0020EINN V0202301N002010150019N0250001N1+00631+00541100491ADDAA199000791AG13999GA1021+007509999GA2071+015009999GF107991071051008001999999GJ100009IA1099IA2999+00409KA1120N+00621MA1100411100251MD1210031+9999MW1001REMSYN035 333 20062 31004 55000 83625 86650;MET010NEW NOSIG;EQDQ01+000000PRSWM2
0164039620999991999010607004+52700-008920SY-MT+0020EINN V0202301N004010150019N0250001N1+00631+00491100541ADDAG11999GA1021+007509999GA2071+015009999GF107991071051008001999999MA1100511100301MD1310081+9999MW1001REMSYN017 333 83625 86650;MET010NEW NOSIG;EQDQ01+000000PRSWM2
0159039620999991999010607304+52700-008920FM-15+0020EINN V0202301N002110150019N0112651N1+00701+00501100561ADDAG11999GA1021+007509999GA2071+015009999GF107991999999999999999999MA1100511100321MW1001REMMET010NEW NOSIG;EQDQ01+999990APOSP Q02+999990APOSLPQ03+000000PRSWM2
0186039620999991999010609004+52700-008920SY-MT+0020EINN V0202101N002010150019N0250001N1+00601+00461100641ADDAG11999GA1021+006009999GA2021+009009999GA3071+015009999GF107991071051008001999999MA1100611100411MD1210161+9999MW1001REMSYN023 333 82620 83630 86650;MET010NEW NOSIG;EQDQ01+000000PRSWM2
0186039620999991999010610004+52700-008920SY-MT+0020EINN V0202901N003010150019N0250001N1+00641+00481100681ADDAG11999GA1021+006009999GA2021+009009999GA3071+015009999GF107991051051004501071999MA1100611100441MD1210141+9999MW1001REMSYN023 333 82711 83717 85625;MET010NEW NOSIG;EQDQ01+000000PRSWM2
0218039620999991999010611004+52700-008920SY-MT+0020EINN V0202401N003010090019N0200001N1+00681+00521100701ADDAG12999AY151999AY221999GA1021+002109999GA2021+005409999GA3071+009009999GF107991041081004501031021MA1100711100461MD1010101+9999MW1201REMSYN023 333 82711 83640 85458;MET010NEW NOSIG;EQDQ01+000000PRSWM2Q02    003PRSWM1
0239039620999991999010612004+52700-008920SY-MT+0020EINN V0202501N004010600019N0250001N1+00761+00631100711ADDAA199000791AG11999AY151061AY221061GA1021+002109999GA2021+003309999GA3071+060009999GF199999021081004501031021MA1100711100471MD1010061+9999MW1011REMSYN017 333 81710 83070;MET010NEW NOSIG;EQDQ01+000052SCOTCVQ02+000000PRSWM2Q03    003PRSWM1
0164039620999991999010613004+52700-008920SY-MT+0020EINN V0202401N004012200019N0250001N1+00871+00631100691ADDAG12999GA1021+003009999GA2021+060009999GF103991011081004501001021MA1100711100451MD1010011+9999MW1001REMSYN017 333 81818 83070;MET010NEW NOSIG;EQDQ01+000000PRSWM2
0196039620999991999010614004+52700-008920SY-MT+0020EINN V0202401N00401075001CN0300001N1+00901+00711100671ADDAG12999AY111999AY211999GA1021+006009999GA2021+060009999GF106991041031004501001021MA1100611100431MD1810031+9999MW1801REMSYN017 333 83919 83070;MET010NEW NOSIG;EQDQ01+000000PRSWM2Q02    003PRSWM1
0196039620999991999010615004+52700-008920SY-MT+0020EINN V0202501N003012200019N0300001N1+00871+00701100671ADDAG12999AY181031AY211031GA1021+004209999GA2021+005409099GF104991031031004501001021MA1100611100431MD1610041+9999MW1251REMSYN017 333 81715 82918;MET010NEW NOSIG;EQDQ01+000000PRSWM2Q02    003PRSWM1
0164039620999991999010616004+52700-008920SY-MT+0020EINN V0202601N003012200019N0300001N1+00851+00641100671ADDAG12999GA1021+004209999GA2021+005409099GF103991031031004501001021MA1100611100431MD1610021+9999MW1001REMSYN017 333 81715 83920;MET010NEW NOSIG;EQDQ01+000000PRSWM2
0164039620999991999010617004+52700-008920SY-MT+0020EINN V0202501N003012200019N0250001N1+00741+00581100691ADDAG12999GA1021+004809999GA2021+005709099GF103991021091004501001021MA1100611100451MD1310021+9999MW1001REMSYN017 333 81715 82918;MET010NEW NOSIG;EQDQ01+000000PRSWM2
0236039620999991999010618004+52700-008920SY-MT+0020EINN V0202501N004012200019N0250001N1+00671+00541100741ADDAA199000791AG12999AY181061AY211061GA1021+004809999GA2021+005709099GF199999011091004501001001KA1120M+00961MA1100711100501MD1210071+9999MW1011REMSYN017 333 10096 81918;MET010NEW NOSIG;EQDQ01+000012SCOTCVQ02+000000PRSWM2Q03    003PRSWM1
0158039620999991999010619004+52700-008920SY-MT+0020EINN V0202301N003012200019N0250001N1+00601+00491100771ADDAG12999GA1021+005409099GF199999011031004501001001MA1100711100531MD1210101+9999MW1001REMSYN011 333 81918;MET010NEW NOSIG;EQDQ01+000012SCOTCVQ02+000000PRSWM2
0158039620999991999010620004+52700-008920SY-MT+0020EINN V0202501N002012200019N0250001N1+00581+00471100771ADDAG12999GA1021+006909999GF199999011051008001001001MA1100711100531MD1010081+9999MW1001REMSYN011 333 81623;MET010NEW NOSIG;EQDQ01+000012SCOTCVQ02+000000PRSWM2
0184039620999991999010621004+52700-008920SY-MT+0020EINN V0202201N003012200019N0250001N1+00601+00491100761ADDAG12999GA1021+006009999GF102991021061004501001001MA1100711100521MD1010021+9999MW1001REMSYN053 22203 10060 20049 30052 40076 50002 82600 333 82717;MET010NEW NOSIG;EQDQ01+000000PRSWM2
0142039620999991999010622004+52700-008920SY-MT+0020EINN V0202201N004012200019N0250001N1+00581+00471100781ADDAG12999GA1021+005109999GF103991031051008001001001MA1100711100541MD1210011+9999MW1001REMSYN011 333 83620;MET010NEW NOSIG;EQDQ01+000000PRSWM2
0142039620999991999010623004+52700-008920SY-MT+0020EINN V0202101N004012200019N0250001N1+00581+00471100751ADDAG12999GA1021+006009999GF102991021051008001001001MA1100711100511MD1710021+9999MW1001REMSYN011 333 82620;MET010NEW NOSIG;EQDQ01+000000PRSWM2
0207039620999991999010700004+52700-008920SY-MT+0020EINN V0202101N003010060019N0250001N1+00561+00421100761ADDAA199000791AG11999AY181061AY211061GA1071+006009999GF199999051081008001001001MA1100711100521MD1410001+9999MW1251REMSYN017 333 83820 83640;MET010NEW NOSIG;EQDQ01+000052SCOTCVQ02+000000PRSWM2Q03    003PRSWM1
0142039620999991999010701004+52700-008920SY-MT+0020EINN V0202001N004012200019N0250001N1+00501+00381100711ADDAG11999GA1021+006309999GF102991021051008001001001MA1100711100471MD1710071+9999MW1001REMSYN011 333 82620;MET010NEW NOSIG;EQDQ01+000000PRSWM2
0158039620999991999010702004+52700-008920SY-MT+0020EINN V0201901N003010600019N0250001N1+00511+00391100681ADDAG11999GA1021+006009999GA2071+060009999GF107991001001999999001021MA1100711100441MD1710071+9999MW1001REMSYN011 333 87070;MET010NEW NOSIG;EQDQ01+000000PRSWM2
0154039620999991999010703004+52700-008920SY-MT+0020EINN V0201401N00201030001CN0250001N1+00581+00441100601ADDAG11999GA1031+003009079GF107991031061004501071999MA1100611100371MD1710151+9999MW1001REMSYN017 333 83710 87459;MET016NEW CAVOK NOSIG;EQDQ01+000000PRSWM2
0180039620999991999010704004+52700-008920SY-MT+0020EINN V0201901N004010240019N0250001N1+00591+00431100501ADDAG11999GA1021+003009999GA2021+010509999GA3071+024009999GF108991011051012501011999MA1100511100261MD1710211+9999MW1001REMSYN017 333 81630 88458;MET010NEW NOSIG;EQDQ01+000000PRSWM2
0132039620999991999010705004+52700-008920SY-MT+0020EINN V0201801N00401007501CN0250001N1+00641+00481100401ADDAG11999GF108991081001008001021999MA1100411100161MD1710281+9999MW1001REMSYN011 333 88458;MET016NEW CAVOK NOSIG;EQDQ01+000000PRSWM2
0254039620999991999010706004+52700-008920SY-MT+0020EINN V0201701N00501030001CN0250001N1+00681+00501100281ADDAA199000791AG11999AY161061AY221061GA1031+009009069GF108991031051012501021999GJ101569IA1099IA2999+00109KA1120N+00481MA1100311100041MD1710331+9999MW1601REMSYN035 333 20048 31001 55026 83630 88458;MET016NEW CAVOK NOSIG;EQDQ01+000000PRSWM2Q02    003PRSWM1
0186039620999991999010707004+52700-008920SY-MT+0020EINN V0201601N005010240019N0250001N1+00681+00551100171ADDAG12999AY161999AY261999GA1021+009009999GA2081+024009999GF108991051051008001021999MA1100201099931MD1710331+9999MW1611REMSYN023 333 83622 84650 88458;MET010NEW NOSIG;EQDQ01    003PRSWM1
0202039620999991999010708004+52700-008920SY-MT+0020EINN V0201601N005010240019N0250001N1+00691+00581100021ADDAG12999AY161999AY261999GA1021+007509999GA2021+015009999GA3081+024009999GF108991051051008001021999MA1100001099781MD1710381+9999MW1611REMSYN023 333 83625 83650 88458;MET010NEW NOSIG;EQDQ01    003PRSWM1
0208039620999991999010709004+52700-008920SY-MT+0020EINN V0201901N005010240019N0080001N1+00721+00591099901ADDAG12999AY161031AY251031GA1021+006009999GA2021+015009999GA3081+024009999GF108991081051004501999999MA1099901099661MD1710381+9999MW1581MW2611REMSYN023 333 82710 85620 87630;MET010NEW MOSIG;EQDQ01    003PRSWM1
0208039620999991999010710004+52700-008920SY-MT+0020EINN V0202601N004010240019N0250001N1+00741+00611099921ADDAG12999AY161999AY251999GA1021+003609999GA2021+009009999GA3071+024009999GF107991071091004501071999MA1099901099681MD1510251+9999MW1211MW2611REMSYN023 333 82712 83918 85635;MET010NEW NOSIG;EQDQ01    003PRSWM1
0186039620999991999010711004+52700-008920SY-MT+0020EINN V0202801N006010105019N0250001N1+00811+00541099991ADDAG12999GA1021+005409099GA2071+010509999GA3071+015009999GF107991071091004501999999MA1099901099751MD1510031+9999MW1001REMSYN023 333 81712 83918 87650;MET010NEW NOSIG;EQDQ01+000000PRSWM2
0224039620999991999010712004+52700-008920SY-MT+0020EINN V0202501N005010054019N0070001N1+00801+00531100051ADDAA199002091AY181061AY261061GA1021+003609999GA2071+005409099GA3071+015009999GF107991071031004501999999MA1100001099811MD1210151+9999MW1801REMSYN041 333 81712 86918 86650 98175 98375 98765;MET010NEW NOSIG;EQDQ01    003PRSWM1
0208039620999991999010713004+52700-008920SY-MT+0020EINN V0202601N006010054019N0250001N1+00671+00541100051ADDAG12999AY181999AY221999GA1021+003009999GA2071+005409099GA3071+015009999GF107991071091004501999999MA1100001099811MD1210131+9999MW1251MW2801REMSYN023 333 81710 82918 87650;MET010NEW NOSIG;EQDQ01    003PRSWM1
0224039620999991999010714004+52700-008920SY-MT+0020EINN V0202501N006012200019N0250001N1+00751+00431100081ADDAG12999AY181999AY211999GA1021+003009999GA2021+005409099GA3071+015009999GF199999031031004501001001MA1100001099841MD1210091+9999MW1251MW2801REMSYN023 333 81710 81918 83650;MET010NEW NOSIG;EQDQ01+000032SCOTCVQ02    003PRSWM1
0184039620999991999010714304+52700-008920FM-15+0020EINN V0202801N006210150019N0112651N1+00601+00401100151ADDGA1021+002409999GA2021+005409099GA3071+015009999GF107991999999999999999999MA1100101099911MW1801REMMET010NEW NOSIG;EQDQ01+999990APOSP Q02+999990APOSLPQ03+000003PRSWM1Q04    003PRSWM1
0218039620999991999010715004+52700-008920SY-MT+0020EINN V0202501N004012200019N0300001N1+00611+00371100131ADDAG12999AY181031AY211031GA1021+003009999GA2021+005409099GA3021+015009999GF103991031031004501001001MA1099901099901MD1210091+9999MW1251REMSYN023 333 81710 81918 83650;MET010NEW NOSIG;EQDQ01+000000PRSWM2Q02    003PRSWM1
0174039620999991999010716004+52700-008920SY-MT+0020EINN V0202501N004012200019N0400001N1+00611+00321100191ADDAG12999AY181999AY211999GA1021+005409099GF104991041081004501001001MA1100101099951MD1210141+9999MW1801REMSYN011 333 83818;MET010NEW NOSIG;EQDQ01+000000PRSWM2Q02    003PRSWM1
0190039620999991999010717004+52700-008920SY-MT+0020EINN V0202701N005012200019N0300001N1+00591+00271100221ADDAG12999AY181999AY211999GA1021+006009099GF199999011091008001001001MA1100101099981MD1210141+9999MW1251REMSYN011 333 81920;MET010NEW NOSIG;EQDQ01+000012SCOTCVQ02+000000PRSWM2Q03    003PRSWM1
0226039620999991999010718004+52700-008920SY-MT+0020EINN V0202501N00501004201CN0150001N1+00541+00191100251ADDAA199005191AG12999AY181061AY211061GA1021+004509999GA2021+005409099GF106991061091004501999999KA1120M+00841MA1100201100011MD1210111+9999MW1801REMSYN023 333 10084 82712 84918;MET010NEW NOSIG;EQDQ01+000000PRSWM2Q02    003PRSWM1
0190039620999991999010719004+52700-008920SY-MT+0020EINN V0202601N006012200019N0250001N1+00561+00101100261ADDAG12999AY181999AY211999GA1021+003609999GA2021+005409099GF102991021091008001001001MA1100201100021MD1110071+9999MW1251REMSYN011 333 82920;MET010NEW NOSIG;EQDQ01+000000PRSWM2Q02    003PRSWM1
0142039620999991999010720004+52700-008920SY-MT+0020EINN V0202401N004012200019N0250001N1+00531+00201100281ADDAG12999GA1021+006009099GF103991031091008001001001MA1100201100041MD1210061+9999MW1001REMSYN011 333 82920;MET010NEW NOSIG;EQDQ01+000000PRSWM2
0190039620999991999010721004+52700-008920SY-MT+0020EINN V0202201N003012200019N0250001N1+00501+00281100271ADDAG12999AY181031AY211031GA1021+006009099GA2021+010509999GF103991031091008001001001MA1100311100031MD1010021+9999MW1251REMSYN011 333 81920;MET010NEW NOSIG;EQDQ01+000000PRSWM2Q02    003PRSWM1
0174039620999991999010722004+52700-008920SY-MT+0020EINN V0202401N006012200019N0250001N1+00561+00241100261ADDAG12999GA1021+006009099GA2021+010509999GF199999011031008001001001MA1100201100021MD1010001+9999MW1001REMSYN011 333 81920;MET010NEW NOSIG;EQDQ01+000012SCOTCVQ02+000000PRSWM2
0158039620999991999010723004+52700-008920SY-MT+0020EINN V0202201N005012200019N0250001N1+00471+00191100231ADDAG12999GA1021+006009099GF199999011051012501001001MA1100201099991MD1810051+9999MW1001REMSYN011 333 81635;MET010NEW NOSIG;EQDQ01+000012SCOTCVQ02+000000PRSWM2
0221039620999991999010800004+52700-008920SY-MT+0020EINN V0202401N005010054019N0250001N1+00541+00191100231ADDAA199000891AG12999AY181061AY211061GA1021+003009999GA2071+005409099GF199999051031004501001001MA1100101099991MD1510041+9999MW1251MW2801OC101701REMSYN017 333 82710 83918;MET010NEW NOSIG;EQDQ01+000052SCOTCVQ02    003PRSWM1
0164039620999991999010801004+52700-008920SY-MT+0020EINN V0202201N00601012001CN0250001N1+00521+00221100091ADDAG12999GA1021+003309999GA2021+006009099GF106991061081008001999999MA1100101099851MD1710171+9999MW1001REMSYN017 333 82821 85650;MET010NEW NOSIG;EQDQ01+000000PRSWM2
0202039620999991999010802004+52700-008920SY-MT+0020EINN V0202301N008010150019N0070001N1+00551+00311099991ADDAG12999AY181999AY221999GA1021+004209999GA2021+005409999GA3071+015009999GF107991071031002501999999MA1100001099751MD1810241+9999MW1801REMSYN023 333 82706 84710 87918;MET010NEW NOSIG;EQDQ01    003PRSWM1
0210039620999991999010803004+52700-008920SY-MT+0020EINN V0202101N010010057019N0045001N1+00561+00401099761ADDAG12999AY181031AY221031GA1021+001509999GA2021+003609999GA3071+005709099GF107991071031002501999999MA1099801099521MD1710471+9999MW1801OC101341REMSYN023 333 81707 83711 87918;MET010NEW NOSIG;EQDQ01    003PRSWM1
0218039620999991999010804004+52700-008920SY-MT+0020EINN V0202701N010010039019N0042001N1+00731+00571099671ADDAG12999AY181999AY221999GA1021+001509999GA2071+003909999GA3071+005409099GF107991071031002501999999MA1099591099431MD1710421+9999MW1801REMSYN023 333 81707 84710 87917;MET010NEW NOSIG;EQDQ01+000000PRSWM2Q02    003PRSWM1
0202039620999991999010805004+52700-008920SY-MT+0020EINN V0202901N006012200019N0150001N1+00721+00511099811ADDAG12999AY181999AY221999GA1021+003009999GA2071+005109099GF199999041031004501001001MA1099701099571MD1510181+9999MW1251MW2801REMSYN017 333 81710 83917;MET010NEW NOSIG;EQDQ01+000042SCOTCVQ02    003PRSWM1
0258039620999991999010806004+52700-008920SY-MT+0020EINN V0202901N007012200019N0250001N1+00741+00411099911ADDAA199007191AG12999AY181061AY211061GA1021+005109099GA2021+010509999GF102991021031004501001001GJ100729IA1099IA2999+00209KA1120N+00451MA1099801099671MD1310151+9999MW1011REMSYN029 333 20045 31002 55012 81917;MET010NEW NOSIG;EQDQ01+000000PRSWM2Q02    003PRSWM1
0188039620999991999010807004+52700-008920SY-MT+0020EINN V0203301N006010051019N0150001N1+00741+00511100021ADDAG12999AY181999AY211999GA1021+003009999GA2071+005109099GF107991071031004501999999MA1099901099781MD1210351+9999MW1801OC101231REMSYN017 333 82710 87917;MET010NEW NOSIG;EQDQ01    003PRSWM1
0207039620999991999010808004+52700-008920SY-MT+0020EINN V0203001N006010051019N0120001N1+00741+00561100061ADDAG12999AY181999AY221999GA1021+003009999GA2071+005109099GF107991071031002501999999MA1100001099821MD1210251+9999MW1801REMSYN023 333 82707 83712 87920;MET015NEW BECMG 9999;EQDQ01+000000PRSWM2Q02    003PRSWM1
0230039620999991999010809004+52700-008920SY-MT+0020EINN V0203001N006010060019N0070001N1+00721+00561100121ADDAG12999AY181031AY211031GA1021+002109999GA2021+004209999GA3071+006009099GF199999051031004501001001MA1100001099881MD1210211+9999MW1251MW2801REMSYN029 333 82713 85918 98170 98770;MET010NEW NOSIG;EQDQ01+000052SCOTCVQ02    003PRSWM1
0159039620999991999010810004+52700-008920FM-15+0020EINN V0203501N005712200019N0112651N1+00601+00501100251ADDAG12999GA1021+003009999GA2021+005409099GF102991999999999999999999MA1100201100011MW1001REMMET010NEW NOSIG;EQDQ01+999990APOSP Q02+999990APOSLPQ03+000000PRSWM2
0170039620999991999010811004+52700-008920SY-MT+0020EINN V0203501N00501004201CN0200001N1+00601+00491100451ADDAG12999GA1021+003609999GA2021+005409099GF106991061031004501999999MA1100311100211MD1210391+9999MW1001REMSYN023 333 82712 81918 84622;MET010NEW NOSIG;EQDQ01+000000PRSWM2
0207039620999991999010812004+52700-008920SY-MT+0020EINN V0203401N007010060019N0250001N1+00501+00251100571ADDAA199002091AG12999AY181061AY211061GA1021+004209999GA2071+006009999GF107991071061004501999999MA1100511100331MD1210451+9999MW1031REMSYN017 333 83712 87716;MET010NEW NOSIG;EQDQ01+000000PRSWM2Q02    003PRSWM1
0164039620999991999010813004+52700-008920SY-MT+0020EINN V0203501N002010060019N0250001N1+00501+00301100691ADDAG12999GA1021+004509999GA2071+006009999GF108991081051004501999999MA1100611100451MD1210431+9999MW1001REMSYN017 333 83715 87620;MET010NEW NOSIG;EQDQ01+000000PRSWM2
0164039620999991999010814004+52700-008920SY-MT+0020EINN V0203501N003010060019N0250001N1+00531+00251100751ADDAG12999GA1021+004509999GA2071+006009999GF107991071051008001999999MA1100711100511MD1110301+9999MW1001REMSYN017 333 83715 87620;MET010NEW NOSIG;EQDQ01+000000PRSWM2
0164039620999991999010815004+52700-008920SY-MT+0020EINN V0203301N001010066019N0250001N1+00591+00271100801ADDAG12999GA1021+004509999GA2071+006609999GF107991071051008001999999MA1100711100561MD1210231+9999MW1001REMSYN017 333 83715 87622;MET010NEW NOSIG;EQDQ01+000000PRSWM2
0164039620999991999010816004+52700-008920SY-MT+0020EINN V0200201N001010060019N0250001N1+00561+00351100891ADDAG12999GA1021+004509999GA2071+006009999GF107991071051008001999999MA1100811100651MD1310201+9999MW1001REMSYN017 333 82715 87620;MET010NEW NOSIG;EQDQ01+000000PRSWM2
0170039620999991999010817004+52700-008920SY-MT+0020EINN V0200101N002010060019N0250001N1+00561+00351100961ADDAG12999GA1021+004509999GA2071+006009999GF107991071051008001999999MA1100911100731MD1210221+9999MW1001REMSYN023 333 81715 85620 85650;MET010NEW NOSIG;EQDQ01+000000PRSWM2
0210039620999991999010818004+52700-008920SY-MT+0020EINN V0203401N001012200019N0250001N1+00441+00261101051ADDAA199002091AG13999GA1021+004509999GA2071+006009999GF199999031051008001001001KA1120M+00731MA1101021100811MD1210251+9999MW1001REMSYN023 333 10073 83620 92600;MET010NEW NOSIG;EQDQ01+000032SCOTCVQ02+000000PRSWM2
0148039620999991999010819004+52700-008920SY-MT+0020EINN V0203001N001012200019N0250001N1+00321+00191101121ADDAG11999GA1021+006009999GF102991021051008001001001MA1101021100881MD1210231+9999MW1001REMSYN017 333 82620 92600;MET010NEW NOSIG;EQDQ01+000000PRSWM2
0154039620999991999010820004+52700-008920SY-MT+0020EINN V0203201N00101007501CN0250001N1+00311+00211101201ADDAG11999GA1021+006009999GF105991051051008001001001MA1101081100961MD1210231+9999MW1001REMSYN023 333 83620 83630 92600;MET010NEW NOSIG;EQDQ01+000000PRSWM2
0180039620999991999010821004+52700-008920SY-MT+0020EINN V0202901N002012200019N0200001N1+00401+00351101261ADDAG11999GA1021+006009999GA2071+010509999GF199999031051008001001001MA1101191101021MD1110211+9999MW1001REMSYN017 333 81620 83635;MET010NEW NOSIG;EQDQ01+000032SCOTCVQ02+000000PRSWM2
0170039620999991999010822004+52700-008920SY-MT+0020EINN V0203201N004012200019N0250001N1+00421+00321101341ADDAG11999GF101991011051008001001001MA1101291101101MD1210221+9999MW1001REMSYN011 333 81620;MET038NEW 5KT 9999 FEW020 04/03 Q1013 NOSIG;EQDQ01+999990APOA  Q02+000000PRSWM2
0158039620999991999010823004+52700-008920SY-MT+0020EINN V0203301N003012200019N0250001N1+00381+00311101421ADDAG11999GA1071+010509999GF199999021051012501001001MA1101291101181MD1210221+9999MW1001REMSYN011 333 82635;MET010NEW NOSIG;EQDQ01+000022SCOTCVQ02+000000PRSWM2
0169039620999991999010900004+52700-008920SY-MT+0020EINN V0203301N004012200019N0250001N1+00361+00211101511ADDAA199000791AG13999GA1021+010509999GF199999011051012501001001MA1101391101271MD1210251+9999MW1001REMSYN011 333 81635;MET010NEW NOSIG;EQDQ01+000012SCOTCVQ02+000000PRSWM2
0158039620999991999010901004+52700-008920SY-MT+0020EINN V0203301N004012200019N0250001N1+00261+00181101581ADDAG11999GA1021+010509999GF199999011051012501001001MA1101491101341MD1210241+9999MW1001REMSYN011 333 81645;MET010NEW NOSIG;EQDQ01+000012SCOTCVQ02+000000PRSWM2
0158039620999991999010902004+52700-008920SY-MT+0020EINN V0203301N004012200019N0250001N1+00231+00151101641ADDAG11999GA1021+013509999GA2021+030009999GF102991011051012501031001MA1101591101391MD1210211+9999MW1001REMSYN011 333 81645;MET010NEW NOSIG;EQDQ01+000000PRSWM2
0170039620999991999010903004+52700-008920SY-MT+0020EINN V0203301N004012200019N0250001N1+00251+00121101711ADDAG11999GA1021+013509999GA2021+030009999GF104991011051012501031001MA1101591101461MD1210191+9999MW1001REMSYN023 333 81645 84360 92600;MET010NEW NOSIG;EQDQ01+000000PRSWM2
0170039620999991999010904004+52700-008920SY-MT+0020EINN V0203401N004012200019N0250001N1+00241+00111101781ADDAG11999GA1021+012009999GA2021+030009999GF103991011051012501031001MA1101691101531MD1210191+9999MW1001REMSYN023 333 81640 83360 92600;MET010NEW NOSIG;EQDQ01+000000PRSWM2
0158039620999991999010905004+52700-008920SY-MT+0020EINN V0203501N003012200019N0250001N1+00131+00021101851ADDAG11999GA1021+012009999GF199999001001999999001001MA1101801101601MD1210211+9999MW1001REMSYN011 333 92600;MET010NEW NOSIG;EQDQ01+000002SCOTCVQ02+000000PRSWM2
0200039620999991999010906004+52700-008920SY-MT+0020EINN V0200101N002012200019N0250001N1+00051-00011101911ADDAA199000791AG13999GF100991001001999999001001GJ100309IA1099IA2999-00309KA1120N+00051MA1101801101661MD1210201+9999MW1001REMSYN029 333 20005 31103 55005 92601;MET016NEW CAVOK NOSIG;EQDQ01+000000PRSWM2
0107039620999991999010906304+52700-008920FM-15+0020EINN V0203501N001019999999Y0099001N1+00101+00001101961ADDAG11999MA1101901101711MW1001REMMET016NEW CAVOK NOSIG;EQDQ01+999990APOSP Q02+999990APOSLPQ03+000000PRSWM2
0164039620999991999010908004+52700-008920SY-MT+0020EINN V0203401N004012200019N0500001N1+00101+00071102041ADDAG11999GA1021+009009999GF199999011051017501001001MA1102001101791MD1210191+9999MW1001REMSYN017 333 81650 92601;MET010NEW NOSIG;EQDQ01+000012SCOTCVQ02+000000PRSWM2
0164039620999991999010909004+52700-008920SY-MT+0020EINN V0203201N002012200019N0500001N1+00041-00051102121ADDAG11999GA1021+006009999GF199999011081008001041001MA1102001101871MD1210211+9999MW1001REMSYN017 333 81820 92601;MET010NEW NOSIG;EQDQ01+000012SCOTCVQ02+000000PRSWM2
0186039620999991999010910004+52700-008920SY-MT+0020EINN V0203501N001012200019N0400001N1+00101+00041102181ADDAG11999GA1021+006009099GA2021+024009999GF199999011031008001031001MA1102101101931MD1210211+9999MW1001REMSYN023 333 81920 83358 92600;MET010NEW NOSIG;EQDQ01+000012SCOTCVQ02+000000PRSWM2
0142039620999991999010911004+52700-008920SY-MT+0020EINN V0203501N003012200019N0400001N1+00331+00201102211ADDAG11999GA1021+006009099GF102991011031008001031001MA1102101101971MD1210181+9999MW1001REMSYN011 333 81920;MET010NEW NOSIG;EQDQ01+000000PRSWM2
0136039620999991999010912004+52700-008920SY-MT+0020EINN V0203401N003012200019N0400001N1+00421+00201102201ADDAA199000791AG13999GA1021+005409999GF102991021081004501031001MA1102201101961MD1010091+9999MW1001REMMET010NEW NOSIG;EQDQ01+000000PRSWM2
0158039620999991999010913004+52700-008920SY-MT+0020EINN V0203301N002012200019N0400001N1+00511+00261102181ADDAG11999GA1021+005409999GF199999011081004501031021MA1102101101941MD1110011+9999MW1001REMSYN011 333 81818;MET010NEW NOSIG;EQDQ01+000012SCOTCVQ02+000000PRSWM2
0158039620999991999010914004+52700-008920SY-MT+0020EINN V0203401N003012200019N0400001N1+00651+00341102171ADDAG11999GA1021+006009999GF102991999081008001001001MA1102101101931MD1710041+9999MW1001REMSYN011 333 81820;MET010NEW NOSIG;EQDQ01+000012SCOTLCQ02+000000PRSWM2
0142039620999991999010915004+52700-008920SY-MT+0020EINN V0203401N003012200019N0400001N1+00651+00291102131ADDAG11999GA1021+006009999GF102991021081008001001001MA1102101101891MD1710071+9999MW1001REMSYN011 333 81820;MET010NEW NOSIG;EQDQ01+000000PRSWM2
0158039620999991999010916004+52700-008920SY-MT+0020EINN V0203401N002012200019N0400001N1+00641+00251102131ADDAG11999GA1021+006009999GF199999011081008001001001MA1102101101891MD1610051+9999MW1001REMSYN011 333 81820;MET010NEW NOSIG;EQDQ01+000012SCOTCVQ02+000000PRSWM2
0158039620999991999010917004+52700-008920SY-MT+0020EINN V0203501N002012200019N0250001N1+00441+00131102121ADDAG11999GA1021+006009999GF199999011081008001001001MA1102101101881MD1610051+9999MW1001REMSYN011 333 81820;MET010NEW NOSIG;EQDQ01+000012SCOTCVQ02+000000PRSWM2
0194039620999991999010918004+52700-008920SY-MT+0020EINN V0203301N004012200019N0200001N1+00341+00131102151ADDAA199000791AG13999GA1021+006009999GF199999011081008001001001KA1120M+00651MA1102101101911MD1310021+9999MW1001REMSYN023 333 10065 81820 92600;MET010NEW NOSIG;EQDQ01+000012SCOTCVQ02+000000PRSWM2
0164039620999991999010919004+52700-008920SY-MT+0020EINN V0203401N003012200019N0200001N1+00301+00031102141ADDAG11999GA1021+006009999GF199999011081008001001001MA1102101101901MD1010011+9999MW1001REMSYN017 333 81820 92600;MET010NEW NOSIG;EQDQ01+000012SCOTCVQ02+000000PRSWM2
0164039620999991999010920004+52700-008920SY-MT+0020EINN V0203301N004012200019N0200001N1+00221-00031102141ADDAG11999GA1021+012009999GF199999011051012501001001MA1102101101901MD1010021+9999MW1001REMSYN017 333 81640 92600;MET010NEW NOSIG;EQDQ01+000012SCOTCVQ02+000000PRSWM2
0164039620999991999010921004+52700-008920SY-MT+0020EINN V0200201N001012200019N0200001N1+00181+00051102161ADDAG11999GA1021+012009999GF199999011051012501001001MA1102101101921MD1310011+9999MW1001REMSYN017 333 81640 92600;MET010NEW NOSIG;EQDQ01+000012SCOTCVQ02+000000PRSWM2
0164039620999991999010922004+52700-008920SY-MT+0020EINN V0200201N002012200019N0150001N1+00051-00061102131ADDAG11999GA1021+012009999GF199999011051012501001001MA1102101101881MD1810021+9999MW1001REMSYN017 333 81640 92610;MET010NEW NOSIG;EQDQ01+000012SCOTCVQ02+000000PRSWM2
0164039620999991999010923004+52700-008920SY-MT+0020EINN V0201201N001012200019N0150001N1-00031-00141102101ADDAG11999GA1021+012009999GF199999011051012501001001MA1102101101861MD1810041+9999MW1001REMSYN017 333 81640 92611;MET010NEW NOSIG;EQDQ01+000012SCOTCVQ02+000000PRSWM2
0208039620999991999011100004+52700-008920SY-MT+0020EINN V0209999C000010003019N0002001N1-00181-00241102351ADDAA199000791AG13999AY141061AY241061ED199U03259GA1071+000309999GA2081+000909999GF108991081061000751999999MA1102301102101MD1210111+9999MW1481REMSYN023 333 85701 88703 92611;MET010NEW NOSIG;EQDQ01    003PRSWM1
0179039620999991999011100304+52700-008920FM-15+0020EINN V0209999C000010003019N0002001N1-00201-00301102171ADDED199U03759GA1071+000309999GA2081+000909999GF108991999999999999999999MA1102101101911MW1481REMMET010NEW NOSIG;EQDQ01+999990APOSP Q02+999990APOSLPQ03+000003PRSWM1Q04    003PRSWM1
0186039620999991999011101004+52700-008920FM-15+0020EINN V0203601N001010003019N9999999N1-00201-00301102371ADDAG11999ED199U00459GA1071+000309999GA2081+000909999GF108991999999999999999999MA1102301102111MW1481REMMET010NEW NOSIG;EQDQ01+999990APOSP Q02+999990APOSLPQ03+000003PRSWM1Q04    003PRSWM1
0179039620999991999011101304+52700-008920FM-15+0020EINN V0203601N000510003019N0002001N1-00301-00301102371ADDED199U05509GA1071+000309999GA2081+000909999GF108991999999999999999999MA1102301102111MW1481REMMET010NEW NOSIG;EQDQ01+999990APOSP Q02+999990APOSLPQ03+000003PRSWM1Q04    003PRSWM1
0232039620999991999011102004+52700-008920SY-MT+0020EINN V0203501N001010003019N0002001N1-00331-00401102391ADDAG11999AY141999AY241999ED199U05009GA1071+000309999GA2081+000909999GF108991081061000751999999MA1102331102141MD1010081+9999MW1421MW2481REMSYN023 333 86701 88703 92611;MET023NEW M03M04 Q1023 NOSIG;EQDQ01+999990APOA  Q02    003PRSWM1
0179039620999991999011102304+52700-008920FM-15+0020EINN V0209999C000010003019N0002501N1-00301-00401102471ADDED199U05009GA1071+000309999GA2081+000909999GF108991999999999999999999MA1102401102211MW1481REMMET010NEW NOSIG;EQDQ01+999990APOSP Q02+999990APOSLPQ03+000003PRSWM1Q04    003PRSWM1
0203039620999991999011103004+52700-008920SY-MT+0020EINN V0209999C000010003019N0002001N1-00311-00411102391ADDAG11999AY141031AY241031ED199U05009GA1071+000309999GA2081+000609999GF108991081061000751999999MA1102301102141MD1010041+9999MW1441MW2481REMSYN023 333 86701 88702 92612;MET010NEW NOSIG;EQDQ01    003PRSWM1
0179039620999991999011103304+52700-008920FM-15+0020EINN V0203501N000510003019N0002501N1-00301-00401102371ADDED199U05009GA1071+000309999GA2081+000609999GF108991999999999999999999MA1102301102111MW1481REMMET010NEW NOSIG;EQDQ01+999990APOSP Q02+999990APOSLPQ03+000003PRSWM1Q04    003PRSWM1
0203039620999991999011104004+52700-008920SY-MT+0020EINN V0200901N001010003019N0002001N1-00341-00411102391ADDAG11999AY141999AY241999ED199U04509GA1071+000309999GA2081+000609999GF108991081061000751999999MA1102301102141MD1610011+9999MW1441MW2481REMSYN023 333 86701 88702 92612;MET010NEW NOSIG;EQDQ01    003PRSWM1
0203039620999991999011105004+52700-008920SY-MT+0020EINN V0203401N001010003019N0002001N1-00301-00401102371ADDAG11999AY141999AY241999ED199U03259GA1071+000309999GA2081+000609999GF108991081061000751999999MA1102301102121MD1810021+9999MW1461MW2481REMSYN023 333 86701 88702 92612;MET010NEW NOSIG;EQDQ01    003PRSWM1
0238039620999991999011106004+52700-008920SY-MT+0020EINN V0201301N001010003019N0002001N1-00261-00361102391ADDAA199000791AG13999AY141061AY241061GA1081+000309999GF108991081061000251999999GJ100009IA1149IA2999-00309KA1120N-00341MA1102301102141MD1510001+9999MW1461MW2481REMSYN035 333 21034 34103 55000 88701 92612;MET010NEW NOSIG;EQDQ01    003PRSWM1
0181039620999991999011107004+52700-008920SY-MT+0020EINN V0209999C000010003019N0002001N1-00211-00301102401ADDAG11999AY141999AY241999ED199U03259GA1081+000309999GF108991081061000251999999MA1102401102151MD1010011+9999MW1461MW2481REMSYN017 333 88701 92612;MET010NEW NOSIG;EQDQ01    003PRSWM1
0175039620999991999011108004+52700-008920SY-MT+0020EINN V0201401N002010003019N0003001N1-00241-00331102381ADDAG11999AY141999AY241999ED199U04509GA1081+000309999GF108991081061000251999999MA1102301102131MD1010011+9999MW1421MW2481REMSYN011 333 88701;MET010NEW NOSIG;EQDQ01    003PRSWM1
0181039620999991999011109004+52700-008920SY-MT+0020EINN V0201601N002010003019N0003001N1-00301-00401102401ADDAG11999AY141031AY241031ED199U03759GA1081+000309999GF108991081061000251999999MA1102301102151MD1210011+9999MW1441MW2481REMSYN017 333 88701 92612;MET010NEW NOSIG;EQDQ01    003PRSWM1
0191039620999991999011110004+52700-008920SY-MT+0020EINN V0201401N001010003019N0002001N1-00301-00371102421ADDAG11999AY141999AY241999ED199U03009GA1081+000309999GF108991081061000251999999MA1102301102171MD1310021+9999MW1461MW2481REMSYN011 333 88701;MET010NEW NOSIG;EQDQ01+000472PRSWM1Q02    003PRSWM1
0187039620999991999011111004+52700-008920SY-MT+0020EINN V0201201N002010003019N0002001N1-00291-00391102411ADDAG11999AY141999AY241999ED199U02759GA1081+000309999GF108991081061000251999999MA1102401102161MD1010031+9999MW1441MW2481REMSYN023 333 85701 88703 92612;MET010NEW NOSIG;EQDQ01    003PRSWM1
0179039620999991999011111304+52700-008920FM-15+0020EINN V0201301N001510003019N0002001N1-00301-00401102371ADDED199U02509GA1071+000309999GA2081+000909999GF108991999999999999999999MA1102301102111MW1481REMMET010NEW NOSIG;EQDQ01+999990APOSP Q02+999990APOSLPQ03+000003PRSWM1Q04    003PRSWM1
0214039620999991999011112004+52700-008920SY-MT+0020EINN V0201401N002010003019N0002001N1-00251-00321102331ADDAA199000791AG13999AY141061AY241061ED199U02509GA1071+000309999GA2081+000909999GF108991081061000251999999MA1102301102081MD1810071+9999MW1441MW2481REMSYN023 333 85701 88703 92600;MET010NEW NOSIG;EQDQ01    003PRSWM1
0164039620999991999011113004+52700-008920SY-MT+0020EINN V0209999C000010001519N0002001N1-00241-00301102261ADDAG11999AY141999AY241999GA1091+000159999GF109991091999999999999999MA1102201102011MD1810161+9999MW1441MW2491REMSYN011 333 89/01;MET010NEW NOSIG;EQDQ01    003PRSWM1
0169039620999991999011114004+52700-008920SY-MT+0020EINN V0209999C000010001519N0002001N1-00211-00271102111ADDAG11999AY141999AY241999ED199U02009GA1091+000159999GF109991091999999999999999MA1102101101861MD1710301+9999MW1491REMSYN011 333 89/02;MET010NEW NOSIG;EQDQ01    003PRSWM1
0169039620999991999011115004+52700-008920SY-MT+0020EINN V0209999C00001000151CN0002001N1-00181-00271101991ADDAG11999AY141031AY241031ED199U04009GA1091+000159999GF109991091999999999999999MA1101901101741MD1710341+9999MW1491REMSYN011 333 89/01;MET010NEW NOSIG;EQDQ01    003PRSWM1
0169039620999991999011116004+52700-008920SY-MT+0020EINN V0209999C000010001519N0002001N1-00131-00211101891ADDAG11999AY141999AY241999ED199U03009GA1091+000159999GF109991091999999999999999MA1101801101641MD1710371+9999MW1491REMSYN011 333 89/01;MET010NEW NOSIG;EQDQ01    003PRSWM1
0184039620999991999011116304+52700-008920FM-15+0020EINN V0209999C000010009019N0004001N1-00101-00201101861ADDED199U04509GA1021+000309999GA2071+000909999GF107991999999999999999999MA1101801101611MW1441REMMET015NEW BECMG 0800;EQDQ01+999990APOSP Q02+999990APOSLPQ03+000003PRSWM1Q04    003PRSWM1
0225039620999991999011117004+52700-008920SY-MT+0020EINN V0209999C000010600019N0025001N1-00071-00161101831ADDAG11999AY141999AY221999GA1021+000609999GA2021+030009999GA3071+060009999GF107991011061000751031021MA1101801101581MD1710281+9999MW1101MW2281REMSYN035 333 81702 83360 85070 90104 92600;MET015NEW BECMG 5000;EQDQ01    003PRSWM1
0248039620999991999011118004+52700-008920SY-MT+0020EINN V0209999C000010600019N0060001N1-00021-00131101731ADDAA199000791AG13999AY121061AY221061GA1021+003009999GA2021+027009999GA3071+060009999GF107991011051004501031081KA1120M+00001MA1101691101481MD1710261+9999MW1101REMSYN029 333 10000 81710 83359 87270;MET010NEW NOSIG;EQDQ01+000000PRSWM2Q02    003PRSWM1
0218039620999991999011119004+52700-008920SY-MT+0020EINN V0201301N004010300019N0100001N1+00031-00061101571ADDAG11999AY121999AY221999GA1021+003009999GA2071+030009999GA3071+060009999GF107991011051004501031021MA1101591101321MD1810321+9999MW1101REMSYN023 333 81710 85360 87270;MET010NEW NOSIG;EQDQ01+000000PRSWM2Q02    003PRSWM1
0170039620999991999011120004+52700-008920SY-MT+0020EINN V0201401N005010300019N0200001N1+00131+00051101401ADDAG11999GA1021+012009999GA2071+030009999GF108991041051008001071999MA1101391101151MD1710431+9999MW1001REMSYN023 333 81620 83640 87460;MET010NEW NOSIG;EQDQ01+000000PRSWM2
0208039620999991999011121004+52700-008920SY-MT+0020EINN V0201701N006010105019N0200001N1+00291+00161101221ADDAG12999AY161031AY221031GA1021+006009999GA2071+010509999GA3071+027009999GF108991061051008001021999MA1101191100981MD1710501+9999MW1601MW2611REMSYN023 333 82620 85630 87459;MET010NEW NOSIG;EQDQ01    003PRSWM1
0196039620999991999011122004+52700-008920SY-MT+0020EINN V0201701N007010090019N0200001N1+00371+00221101051ADDAG12999AY161999AY221999GA1021+006009999GA2071+009009999GA3071+027009999GF108991051051008001071999MA1100911100811MD1710511+9999MW1601MW2611REMSYN011 333 88458;MET010NEW NOSIG;EQDQ01    003PRSWM1
0202039620999991999011123004+52700-008920SY-MT+0020EINN V0201701N006010075019N0200001N1+00411+00311100861ADDAG12999AY161999AY261999GA1021+005409999GA2071+007509999GA3081+024009999GF108991061061004501021999MA1100911100621MD1710531+9999MW1611REMSYN023 333 84718 85625 88458;MET010NEW NOSIG;EQDQ01    003PRSWM1
0213039620999991999011200004+52700-008920SY-MT+0020EINN V0201701N005010060019N0150001N1+00471+00371100681ADDAA199001091AG12999AY161061AY261061GA1021+004509999GA2071+006009999GA3071+015009999GF108991081051004501999999MA1100711100441MD1710541+9999MW1611REMSYN023 333 83715 85620 87630;MET010NEW NOSIG;EQDQ01    003PRSWM1
0175039620999991999011200304+52700-008920FM-15+0020EINN V0202001N006710045019N0112651N1+00501+00401100571ADDAG12999GA1071+004509999GA2071+006009999GF107991999999999999999999MA1100511100321MW1611REMMET010NEW NOSIG;EQDQ01+999990APOSP Q02+999990APOSLPQ03+000003PRSWM1Q04    003PRSWM1
0202039620999991999011202004+52700-008920SY-MT+0020EINN V0202101N007010054019N0150001N1+00591+00451100281ADDAG12999AY161999AY261999GA1021+004509999GA2071+005409999GA3071+006609999GF108991081061004501999999MA1100311100041MD1710581+9999MW1611REMSYN023 333 82710 86715 87620;MET010NEW NOSIG;EQDQ01    003PRSWM1
0214039620999991999011203004+52700-008920SY-MT+0020EINN V0202201N008010033019N0050001N1+00711+00601100141ADDAG12999AY161031AY251031GA1071+003309999GA2071+004209999GF108991081061002501999999MA1100201099901MD1710542+9999MW1511MW2581REMSYN017 333 85707 87710;MET022NEW TEMPO 5000 BKN007;EQDQ01+000542APC3  Q02    003PRSWM1
0148039620999991999011204004+52700-008920FM-12+0020EINN V0202601N006010015019N0040001N1+00821+00781100101ADDAG12999AY161999AY251999GA1061+001509079GF108991081061001501999999MA1100051099861MD1510391+9999MW1581REMSYN017 333 86705 87710;EQDQ01+999990APOA  
0196039620999991999011205004+52700-008920SY-MT+0020EINN V0202701N005010150019N0250001N1+00791+00661100051ADDAG12999AY161999AY251999GA1021+009009999GA2081+015009999GF108991081051012501999999MA1100001099811MD1710231+9999MW1211REMSYN017 333 82630 88650;MET010NEW NOSIG;EQDQ01+000000PRSWM2Q02    003PRSWM1
0279039620999991999011206004+52700-008920SY-MT+0020EINN V0203001N006010108019N0250001N1+00781+00581100111ADDAA199005191AY161061AY251061GA1021+003609999GA2021+006609999GA3081+010809999GF108991081051004501999999GJ100009IA1099IA2999-00109KA1120N-00021MA1100101099871MD1510031+9999MW1211REMSYN041 333 21002 31101 55000 81712 83622 88636;MET010NEW NOSIG;EQDQ01+000000PRSWM2Q02    003PRSWM1
0218039620999991999011207004+52700-008920SY-MT+0020EINN V0203101N004010096019N0300001N1+00721+00471100161ADDAG12999AY161999AY221999GA1021+003009999GA2021+006009999GA3081+009609999GF199999061051008001999999MA1100101099921MD1310061+9999MW1211MW2611REMSYN017 333 83622 85637;MET010NEW NOSIG;EQDQ01+000062SCOTCVQ02    003PRSWM1
0218039620999991999011208004+52700-008920SY-MT+0020EINN V0202801N005010111019N0250001N1+00681+00471100211ADDAG12999AY181999AY221999GA1021+006609999GA2071+011109999GF199999061081004501999999MA1100101099971MD1210161+9999MW1251REMSYN023 333 81710 83818 85630;MET010NEW NOSIG;EQDQ01+000062SCOTCVQ02+000000PRSWM2Q03    003PRSWM1
0190039620999991999011209004+52700-008920SY-MT+0020EINN V0203001N004012200019N0200001N1+00641+00401100301ADDAG12999AY181031AY261031GA1021+003009999GA2021+004809999GF103991031081004501001001MA1100201100061MD1210191+9999MW1251REMSYN011 333 83816;MET010NEW NOSIG;EQDQ01+000000PRSWM2Q02    003PRSWM1
0196039620999991999011210004+52700-008920SY-MT+0020EINN V0203201N007010090019N0200001N1+00641+00451100381ADDAG12999AY181999AY221999GA1021+003009999GA2021+009009999GF106991061081004501999999MA1100311100141MD1210221+9999MW1251REMSYN017 333 81710 83818;MET010NEW NOSIG;EQDQ01+000000PRSWM2Q02    003PRSWM1
0164039620999991999011211004+52700-008920SY-MT+0020EINN V0202901N00601009001CN0200001N1+00761+00341100401ADDAG12999GA1021+005409999GA2021+012009999GF106991061081004501999999MA1100311100161MD1110191+9999MW1001REMSYN017 333 82818 85640;MET010NEW NOSIG;EQDQ01+000000PRSWM2
0207039620999991999011212004+52700-008920SY-MT+0020EINN V0203001N00601009001CN0200001N1+00781+00341100411ADDAA199000191AG12999AY181061AY261061GA1021+005409999GA2021+012009999GF106991061081004501999999MA1100411100171MD1110111+9999MW1021REMSYN017 333 83818 85645;MET010NEW NOSIG;EQDQ01+000000PRSWM2Q02    003PRSWM1
0228039620999991999011213004+52700-008920SY-MT+0020EINN V0203201N005010135019N0200001N1+00761+00281100441ADDAG12999AY181999AY221999GA1021+003009999GA2021+005409999GA3071+013509999GF199999061081004501999999MA1100411100201MD1210061+9999MW1251REMSYN017 333 83818 85645;MET010NEW NOSIG;EQDQ01+000062SCOTCVQ02+000000PRSWM2Q03    003PRSWM1
0180039620999991999011214004+52700-008920SY-MT+0020EINN V0203001N007010135019N0300001N1+00821+00271100481ADDAG12999GA1021+005409999GA2071+013509999GF199999061081004501999999MA1100411100241MD1210081+9999MW1001REMSYN017 333 82818 86645;MET010NEW NOSIG;EQDQ01+000062SCOTCVQ02+000000PRSWM2
0196039620999991999011215004+52700-008920SY-MT+0020EINN V0203001N007012200019N0300001N1+00781+00231100561ADDAG12999AY181031AY221031GA1021+005409999GA2021+013509999GF104991041081004501001001MA1100511100321MD1210151+9999MW1251REMSYN017 333 81818 84645;MET010NEW NOSIG;EQDQ01+000000PRSWM2Q02    003PRSWM1
0196039620999991999011216004+52700-008920SY-MT+0020EINN V0203001N00701009001CN0300001N1+00711+00361100631ADDAG12999AY181999AY221999GA1021+005409999GA2021+013509999GF106991061081004501999999MA1100511100391MD1210191+9999MW1251REMSYN017 333 82818 85645;MET010NEW NOSIG;EQDQ01+000000PRSWM2Q02    003PRSWM1
0180039620999991999011217004+52700-008920SY-MT+0020EINN V0203201N00801009001CN0300001N1+00701+00321100721ADDAG12999AY181999AY211999GA1021+005409999GF105991051081004501999999MA1100611100481MD1210241+9999MW1251REMSYN017 333 83818 85645;MET010NEW NOSIG;EQDQ01+000000PRSWM2Q02    003PRSWM1
0226039620999991999011218004+52700-008920SY-MT+0020EINN V0203201N005012200019N0200001N1+00621+00281100821ADDAA199000591AG12999AY181061AY211061GA1021+005409999GA2021+013509999GF103991031081004501001001KA1120M+00841MA1100711100581MD1210261+9999MW1011REMSYN023 333 10084 81818 83645;MET010NEW NOSIG;EQDQ01+000000PRSWM2Q02    003PRSWM1
0142039620999991999011218304+52700-008920FM-16+0020EINN V0202901N009312200019N0112651N1+99999+99999999999ADDGA1021+005409999GA2021+013509999GF104991999999999999999999MA1100811100621MW1001MW2801REMMET010NEW NOSIG;EQDQ01+999990APOSP Q02+000003PRSWM1
0186039620999991999011219004+52700-008920SY-MT+0020EINN V0203101N00701009001CN0200001N1+00671+00251100901ADDAG12999AY181999AY211999GA1021+005409999GA2021+013509999GF105991051081004501001001MA1100811100661MD1210271+9999MW1251MW2801REMSYN017 333 82818 84645;MET010NEW NOSIG;EQDQ01    003PRSWM1
0196039620999991999011220004+52700-008920SY-MT+0020EINN V0203101N00401009001CN0200001N1+00611+00291100981ADDAG12999AY181999AY221999GA1021+005409999GA2021+013509999GF105991051081004501001001MA1100911100741MD1210261+9999MW1251REMSYN017 333 82818 84645;MET010NEW NOSIG;EQDQ01+000000PRSWM2Q02    003PRSWM1
0196039620999991999011221004+52700-008920SY-MT+0020EINN V0202901N003012200019N0200001N1+00531+00231101041ADDAG12999AY181031AY211031GA1021+005409999GA2021+013509999GF103991031081004501001001MA1101021100801MD1210221+9999MW1011REMSYN017 333 81818 83645;MET010NEW NOSIG;EQDQ01+000000PRSWM2Q02    003PRSWM1
0164039620999991999011222004+52700-008920SY-MT+0020EINN V0203001N00601075001CN0200001N1+00621+00141101111ADDAG12999GA1021+013509999GA2021+060009999GF106991031051012501001021MA1101021100871MD1210211+9999MW1001REMSYN017 333 83635 84070;MET010NEW NOSIG;EQDQ01+000000PRSWM2
0180039620999991999011223004+52700-008920SY-MT+0020EINN V0202801N00401009001CN0100001N1+00531+00281101171ADDAG12999AY181999AY211999GA1021+006009999GF108991081081004501999999MA1101081100931MD1210191+9999MW1801REMSYN017 333 55820 87630;MET010NEW NOSIG;EQDQ01+000000PRSWM2Q02    003PRSWM1
0213039620999991999011300004+52700-008920SY-MT+0020EINN V0202301N00201012001CN0200001N1+00571+00251101221ADDAA199000391AG12999AY181061AY211061GA1021+006009999GA2021+009009999GF107991071081008001999999MA1101081100981MD1210181+9999MW1251REMSYN023 333 81820 83640 86656;MET010NEW NOSIG;EQDQ01+000000PRSWM2Q02    003PRSWM1
0196039620999991999011301004+52700-008920SY-MT+0020EINN V0202701N004012200019N0200001N1+00621+00251101181ADDAG12999GA1021+006009999GA2021+010509999GA3071+024009999GF199999031081008001001001MA1101191100941MD1010071+9999MW1001REMSYN017 333 81820 83650;MET010NEW NOSIG;EQDQ01+000032SCOTCVQ02+000000PRSWM2
0202039620999991999011302004+52700-008920SY-MT+0020EINN V0202401N00401012001CN0150001N1+00561+00291101211ADDAG12999AY181999AY211999GA1021+006009999GA2021+015009999GF107991071081008001999999MA1101191100971MD1110041+9999MW1801REMSYN023 333 83820 84630 85458;MET010NEW NOSIG;EQDQ01+000000PRSWM2Q02    003PRSWM1
0196039620999991999011303004+52700-008920SY-MT+0020EINN V0202501N004010120019N0200001N1+00531+00411101141ADDAG12999AY181031AY211031GA1021+006009999GA2021+012009999GF107991071081008001999999MA1101081100901MD1810081+9999MW1251REMSYN017 333 82820 86640;MET010NEW NOSIG;EQDQ01+000000PRSWM2Q02    003PRSWM1
0196039620999991999011304004+52700-008920SY-MT+0020EINN V0202101N004010120019N0200001N1+00521+00401101081ADDAG12999AY181999AY221999GA1021+006009999GA2021+012009999GF107991071081008001999999MA1101081100841MD1810101+9999MW1251REMSYN017 333 83820 85640;MET010NEW NOSIG;EQDQ01+000000PRSWM2Q02    003PRSWM1
0164039620999991999011305004+52700-008920SY-MT+0020EINN V0202101N005010120019N0200001N1+00581+00391100911ADDAG12999GA1021+006009999GA2071+012009999GF108991081081008001999999MA1101021100671MD1810301+9999MW1001REMSYN017 333 82820 87635;MET010NEW NOSIG;EQDQ01+000000PRSWM2
0264039620999991999011306004+52700-008920SY-MT+0020EINN V0202101N006010084019N0200001N1+00621+00411100731ADDAA199000591AG12999AY181061AY211061GA1021+004809999GA2081+008409999GF108991081051004501999999GJ100789IA1099IA2999+00109KA1120N+00461MA1100811100491MD1810411+9999MW1031REMSYN035 333 20046 31001 55013 83716 88625;MET010NEW NOSIG;EQDQ01+000000PRSWM2Q02    003PRSWM1
0208039620999991999011307004+52700-008920SY-MT+0020EINN V0202001N006010030019N0150001N1+00651+00541100541ADDAG12999AY161999AY221999GA1021+002409999GA2071+003009999GA3071+004809999GF108991081061002501999999MA1100611100301MD1710541+9999MW1601MW2611REMSYN023 333 82709 86715 88620;MET010NEW NOSIG;EQDQ01    003PRSWM1
0208039620999991999011308004+52700-008920SY-MT+0020EINN V0202401N009010027019N0050001N1+00781+00741100441ADDAG12999AY161999AY261999GA1021+001509999GA2071+002709999GA3081+003309999GF108991081061001501999999MA1100411100211MD1610461+9999MW1611MW2631REMSYN023 333 82705 85707 88711;MET010NEW NOSIG;EQDQ01    003PRSWM1
0221039620999991999011309004+52700-008920SY-MT+0020EINN V0202501N007010021019N0040001N1+00921+00881100341ADDAG12999AY161031AY261031GA1021+001509999GA2071+002109999GA3081+003009999GF108991081061001501999999MA1100311100101MD1610391+9999MW1611MW2631REMSYN029 333 85705 88709 90710 91117;MET017NEW TEMPO BKN005;EQDQ01    003PRSWM1
0206039620999991999011310004+52700-008920SY-MT+0020EINN V0202601N012010015019N0060001N1+01011+00971100371ADDAG12999AY161999AY251999GA1071+001509999GA2081+002709999GF108991081061002501999999MA1100311100131MD1510171+9999MW1511MW2581MW3611OC101751REMSYN023 333 83706 85710 87712;MET010NEW NOSIG;EQDQ01    003PRSWM1
0229039620999991999011311004+52700-008920SY-MT+0020EINN V0202701N01201004201CN0120001N1+01061+00921100381ADDAG12999AY161999AY251999GA1021+002409999GF107991071061004501999999MA1100331100141MD1610071+9999MW1211REMSYN023 333 82710 84715 87650;MET037NEW SCVT015 BKN050 10/09 Q1003 NOSIG;EQDQ01+999990APOA  Q02+000000PRSWM2Q03    003PRSWM1
0229039620999991999011312004+52700-008920SY-MT+0020EINN V0202701N011010600019N0120001N1+01101+00811100381ADDAA199005191AG12999AY161061AY251061GA1021+003009999GA2021+004509999GA3071+060009999GF107991051081004501001021MA1100311100141MD1110041+9999MW1021REMSYN023 333 8272/ 83640 85070;MET010NEW NOSIG;EQDQ01+000000PRSWM2Q02    003PRSWM1
0218039620999991999011313004+52700-008920SY-MT+0020EINN V0202701N010010600019N0120001N1+01101+00721100411ADDAG12999AY181999AY221999GA1021+003009999GA2021+005409999GA3071+060009999GF199999051081004501001001MA1100311100171MD1210041+9999MW1251MW2801REMSYN017 333 82818 83635;MET010NEW NOSIG;EQDQ01+000052SCOTCVQ02    003PRSWM1
0212039620999991999011314004+52700-008920SY-MT+0020EINN V0202901N008010105019N0150001N1+01021+00561100491ADDAG12999AY181999AY221999GA1021+005409999GA2071+010509999GF199999051081004501001001MA1100411100251MD1310111+9999MW1251REMSYN017 333 83818 84635;MET010NEW NOSIG;EQDQ01+000052SCOTCVQ02+000000PRSWM2Q03    003PRSWM1
0204039620999991999011315004+52700-008920SY-MT+0020EINN V0202801N00901009001CN0120001N1+01001+00441100531ADDAG12999AY181031AY221031GA1021+005409999GA2021+010509999GF107991071081004501999999MA1100511100291MD1210151+9999MW1801OC101341REMSYN017 333 84818 85635;MET010NEW NOSIG;EQDQ01+000000PRSWM2Q02    003PRSWM1
0212039620999991999011316004+52700-008920SY-MT+0020EINN V0202801N007010105019N0150001N1+00901+00451100571ADDAG12999AY181999AY221999GA1021+005409999GA2071+010509999GF199999051081004501001001MA1100511100331MD1210161+9999MW1251REMSYN017 333 83818 84635;MET010NEW NOSIG;EQDQ01+000052SCOTCVQ02+000000PRSWM2Q03    003PRSWM1
0196039620999991999011317004+52700-008920SY-MT+0020EINN V0202901N007010105019N0150001N1+00851+00361100631ADDAG12999AY181999AY221999GA1021+005409999GA2071+010509999GF107991071081004501999999MA1100511100391MD1210141+9999MW1251REMSYN017 333 84818 85635;MET010NEW NOSIG;EQDQ01+000000PRSWM2Q02    003PRSWM1
0226039620999991999011318004+52700-008920SY-MT+0020EINN V0202701N007010054019N0150001N1+00791+00531100641ADDAA199005191AG12999AY181061AY221061GA1071+005409999GF107991071081004501999999KA1120M+01121MA1100591100401MD1210111+9999MW1251MW2801REMSYN023 333 10112 82818 83635;MET020NEW 035 08/04 Q1006;EQDQ01+999990APOA  Q02    003PRSWM1
0186039620999991999011319004+52700-008920SY-MT+0020EINN V0202801N00701009001CN0150001N1+00831+00151100661ADDAG12999AY111999AY211999GA1021+005409999GF108991081081004501999999MA1100611100421MD1210091+9999MW1801REMSYN023 333 83818 87650 91117;MET010NEW NOSIG;EQDQ01+000000PRSWM2Q02    003PRSWM1
0196039620999991999011320004+52700-008920SY-MT+0020EINN V0202801N00701012001CN0150001N1+00771+00261100691ADDAG12999AY181999AY211999GA1021+005409999GA2021+015009999GF108991081081008001999999MA1100611100451MD1210061+9999MW1251REMSYN017 333 83820 87650;MET010NEW NOSIG;EQDQ01+000000PRSWM2Q02    003PRSWM1
0208039620999991999011321004+52700-008920SY-MT+0020EINN V0202801N010010150019N0100001N1+00771+00211100721ADDAG12999AY181031AY211031GA1021+006009999GA2071+015009999GF108991081081008001999999MA1100611100481MD1210081+9999MW1801REMSYN029 333 83820 87650 90710 91118;MET010NEW NOSIG;EQDQ01+000000PRSWM2Q02    003PRSWM1
0224039620999991999011322004+52700-008920SY-MT+0020EINN V0202801N010010054019N0200001N1+00591+00351100771ADDAG12999AY181999AY221999GA1021+003609999GA2071+005409999GA3071+012009999GF199999051081008001001001MA1100711100531MD1210111+9999MW1251MW2801REMSYN023 333 82820 85640 91120;MET010NEW NOSIG;EQDQ01+000052SCOTCVQ02    003PRSWM1
0190039620999991999011323004+52700-008920SY-MT+0020EINN V0202901N008012200019N0200001N1+00561+00271100861ADDAG12999AY181999AY211999GA1021+006009999GA2021+012009999GF103991031081008001001001MA1100811100621MD1310171+9999MW1251REMSYN011 333 82820;MET010NEW NOSIG;EQDQ01+000000PRSWM2Q02    003PRSWM1
0186039620999991999011400004+52700-008920SY-MT+0020EINN V0202801N009012200019N0200001N1+00571+00281100901ADDAA199001091AG12999AY181061AY211061GA1021+006009999GA2021+012009999GF102991021081008001001001MA1100811100661MD1210181+9999MW1251REMSYN011 333 81820;MET011NEW NOASIG;EQDQ01    003PRSWM1
0123039620999991999011401004+52700-008920SY-MT+0020EINN V0202801N007012200019N0200001N1+00551+00341100891ADDAG12999GA1021+005409099GF103991031031004501001001MA1100811100651MD1110121+9999MW1001REMSYN011 333 83918;MET010NEW NOSIG;
0158039620999991999011402004+52700-008920SY-MT+0020EINN V0202901N007012200019N0200001N1+00511+00041100921ADDAG12999AY181999AY201999GA1021+005409099GF102991021031004501001001MA1100911100681MD1310061+9999MW1251REMSYN011 333 82918;MET010NEW NOSIG;EQDQ01    003PRSWM1
0158039620999991999011403004+52700-008920SY-MT+0020EINN V0202601N00601004201CN0200001N1+00561+00191100961ADDAG12999AY181031AY211031GA1021+005409099GF105991051031004501001001MA1100911100721MD1310061+9999MW1251REMSYN011 333 85918;MET010NEW NOSIG;EQDQ01    003PRSWM1
0123039620999991999011404004+52700-008920SY-MT+0020EINN V0202501N00601004201CN0200001N1+00561+00241100911ADDAG12999GA1021+005409099GF106991061031004501999999MA1100911100671MD1010021+9999MW1001REMSYN011 333 86918;MET010NEW NOSIG;
0145039620999991999011405004+52700-008920SY-MT+0020EINN V0202501N003010105019N0200001N1+00491+00131100931ADDAG12999GA1021+005409099GA2071+010509999GF199999061031008001999999MA1100911100691MD1210011+9999MW1001REMSYN017 333 82920 85635;MET010NEW NOSIG;
0256039620999991999011406004+52700-008920SY-MT+0020EINN V0202601N002010054019N0200001N1+00501+00281100901ADDAA199001091AG12999AY181061AY211061GA1021+003609999GA2071+005409099GF199999051031008001001001GJ100729IA1099IA2999+00109KA1120N+00451MA1100911100661MD1710061+9999MW1251MW2801OC101231REMSYN029 333 20045 31001 55012 83920;MET010NEW NOSIG;EQDQ01    003PRSWM1
0145039620999991999011407004+52700-008920SY-MT+0020EINN V0202401N00401007501CN0200001N1+00581+00311100841ADDAG12999GA1021+006009099GA2021+010509999GF107991071031008001999999MA1100811100601MD1810071+9999MW1001REMSYN017 333 83920 84735;MET010NEW NOSIG;
0186039620999991999011408004+52700-008920SY-MT+0020EINN V0202401N008010054019N0200001N1+00641+00381100771ADDAG12999AY181999AY221999GA1021+003609999GA2071+005409099GF107991051031004501001021MA1100811100531MD1710161+9999MW1251MW2801REMSYN017 333 81712 83920;MET010NEW NOSIG;EQDQ01    003PRSWM1
0196039620999991999011409004+52700-008920SY-MT+0020EINN V0202401N008010105019N0250001N1+00701+00401100691ADDAG12999AY181031AY211031GA1021+003609999GA2021+006009099GA3071+010509999GF199999051031008001001021MA1100711100451MD1710211+9999MW1011REMSYN017 333 82920 83635;MET010NEW NOSIG;EQDQ01    003PRSWM1
0180039620999991999011410004+52700-008920SY-MT+0020EINN V0202301N008010051019N0130001N1+00751+00411100531ADDAG12999AY121999AY221999GA1071+005109999GA2071+009009999GF107991071061004501999999MA1100511100291MD1710311+9999MW1151REMSYN017 333 86717 87630;MET010NEW NOSIG;EQDQ01    003PRSWM1
0198039620999991999011411004+52700-008920SY-MT+0020EINN V0202401N013010051019N0150001N1+00861+00501100481ADDAG12999AY161999AY251999GA1021+003909999GA2071+005109999GF108991081061004501999999MA1100411100241MD1710291+9999MW1501MW2511MW3611REMSYN023 333 85714 88622 91119;MET010NEW NOSIG;EQDQ01    003PRSWM1
0215039620999991999011412004+52700-008920SY-MT+0020EINN V0202501N014010036019N0130001N1+00931+00531100411ADDAA199001091AG12999AY181061AY261061GA1071+003609999GA2081+005109999GF199999061061004501071999MA1100411100171MD1710281+9999MW1211MW2611REMSYN035 333 83713 84624 87460 90710 91123;MET010NEW NOSIG;EQDQ01    003PRSWM1
0124039620999991999011412304+52700-008920FM-15+0020EINN V0202501N012910300019N0112651N1+00901+00601100361ADDAG12999GA1021+005109999GA2071+030009999GA3071+075009999GF107991999999999999999999MA1100311100121MW1001REMMET010NEW NOSIG;
0133039620999991999011413304+52700-008920FM-15+0020EINN V0202601N012310600019N0112651N1+01001+00601100361ADDAG12999GA1021+003609999GA2021+005409099GA3071+060009999GF107991999999999999999999MA1100311100121MW1001OC102061REMMET011NEW NOSIFG;
0214039620999991999011415004+52700-008920SY-MT+0020EINN V0202601N013010240019N0150001N1+00861+00451100381ADDAG12999AY181031AY261031GA1021+003009999GA2021+004509999GA3081+024009999GF108991061081004501071999MA1100311100141MD1510031+9999MW1251MW2801REMSYN029 333 82712 83818 88458 91123;MET010NEW NOSIG;EQDQ01    003PRSWM1
0151039620999991999011415304+52700-008920FM-15+0020EINN V0202601N011310240019N0112651N1+00901+00501100361ADDAG12999GA1021+003609999GA2021+005409999GA3081+024009999GF108991999999999999999999MA1100311100121MW1801OC101701REMMET010NEW NOSIG;EQDQ01    003PRSWM1
0151039620999991999011416304+52700-008920FM-15+0020EINN V0202801N012310150019N0112651N1+00901+00501100461ADDAG12999GA1021+002709999GA2021+005409999GA3071+015009999GF107991999999999999999999MA1100411100221MW1801OC101851REMMET010NEW NOSIG;EQDQ01    003PRSWM1
0232039620999991999011418004+52700-008920SY-MT+0020EINN V0202701N009010600019N0200001N1+00831+00391100461ADDAA199003091AG12999AY181061AY261061GA1021+003009999GA2021+005409999GA3071+060009999GF107991071081004501001021KA1120M+00991MA1100411100221MD1010081+9999MW1021REMSYN029 333 10099 81710 83818 85650;MET010NEW NOSIG;EQDQ01    003PRSWM1
0202039620999991999011419004+52700-008920SY-MT+0020EINN V0202601N007010150019N0200001N1+00841+00481100521ADDAG12999AY151999AY221999GA1021+003009999GA2021+005409999GA3071+015009999GF108991081051004501999999MA1100511100281MD1210101+9999MW1501REMSYN023 333 81710 84620 87647;MET010NEW NOSIG;EQDQ01    003PRSWM1
0180039620999991999011420004+52700-008920SY-MT+0020EINN V0202501N006012200019N0200001N1+00841+00481100441ADDAG12999AY151999AY211999GA1021+005409999GA2071+014109999GF199999041051004501001001MA1100411100201MD1810051+9999MW1201REMSYN017 333 81618 83647;MET010NEW NOSIG;EQDQ01    003PRSWM1
0180039620999991999011421004+52700-008920SY-MT+0020EINN V0202101N004010135019N0200001N1+00811+00571100421ADDAG12999AY151031AY211031GA1021+005409999GA2071+013509999GF107991071051008001999999MA1100411100181MD1810041+9999MW1031REMSYN017 333 83621 86647;MET010NEW NOSIG;EQDQ01    003PRSWM1
0145039620999991999011422004+52700-008920SY-MT+0020EINN V0201901N006010057019N0250001N1+00831+00631100331ADDAG12999GA1071+005709999GA2071+013509999GF108991081061004501999999MA1100311100091MD1710191+9999MW1001REMSYN017 333 85717 87645;MET010NEW NOSIG;
0151039620999991999011423004+52700-008920SY-MT+0020EINN V0202201N006010054019N0250001N1+00901+00691100251ADDAG12999GA1071+005409999GA2071+010509999GF108991081061004501999999MA1100311100011MD1710191+9999MW1001REMSYN023 333 85718 83625 87635;MET010NEW NOSIG;
0223039620999991999011500004+52700-008920SY-MT+0020EINN V0202301N007010084019N0250001N1+00951+00581100151ADDAA199000791AG12999AY151061AY211061GA1021+005409999GA2071+008409999GA3071+010809999GF108991081051004501999999MA1100101099911MD1710271+9999MW1021REMSYN017 333 83718 87645;MET010NEW NOSIG;EQDQ01+000000PRSWM2Q02    003PRSWM1
0164039620999991999011501004+52700-008920SY-MT+0020EINN V0202201N008010135019N0250001N1+00941+00571100001ADDAG12999GA1021+005409999GA2071+013509999GF108991081051004501999999MA1100001099761MD1710331+9999MW1001REMSYN017 333 83718 87645;MET010NEW NOSIG;EQDQ01+000000PRSWM2
0164039620999991999011502004+52700-008920SY-MT+0020EINN V0202201N009010135019N0250001N1+00941+00501099871ADDAG12999GA1021+006009999GA2071+013509999GF108991081051008001999999MA1099901099631MD1710381+9999MW1001REMSYN017 333 84625 87645;MET010NEW NOSIG;EQDQ01+000000PRSWM2
0164039620999991999011503004+52700-008920SY-MT+0020EINN V0202001N008010135019N0250001N1+00951+00581099701ADDAG12999GA1021+007509999GA2071+013509999GF108991081051008001999999MA1099701099461MD1710451+9999MW1001REMSYN017 333 84625 87645;MET010NEW NOSIG;EQDQ01+000000PRSWM2
0164039620999991999011504004+52700-008920SY-MT+0020EINN V0202001N008010135019N0250001N1+00941+00591099511ADDAG12999GA1021+007509999GA2071+013509999GF108991081051008001999999MA1099491099281MD1710481+9999MW1001REMSYN017 333 85625 87645;MET010NEW NOSIG;EQDQ01+000000PRSWM2
0208039620999991999011505004+52700-008920SY-MT+0020EINN V0202001N011010075019N0090001N1+00911+00701099211ADDAG12999AY161999AY221999GA1021+005409999GA2071+007509999GA3071+013509999GF108991081051004501999999MA1099291098981MD1810651+9999MW1601MW2611REMSYN023 333 83715 86621 88640;MET010NEW NOSIG;EQDQ01    003PRSWM1
0285039620999991999011506004+52700-008920SY-MT+0020EINN V0201901N009010054019N0090001N1+00871+00731098921ADDAA199002091AG12999AY161061AY221061GA1021+003609999GA2071+005409999GA3081+009009999GF108991081061004501999999GJ100009IA1099IA2999+00609KA1120N+00791MA1098981098691MD1810771+9999MW1611OC101341REMSYN041 333 20079 31006 55000 83712 86718 88630;MET017NEW BECMG BKN010;EQDQ01    003PRSWM1
0170039620999991999011507004+52700-008920FM-12+0020EINN V0202101N010010027019N0060001N1+00961+00821098751ADDAG12999AY161999AY261999GA1021+002109079GA2061+002709079GF108991081061002501999999MA1098711098521MD1710761+9999MW1631REMSYN023 333 82707 86709 88715;EQDQ01+999990APOA  
0207039620999991999011508004+52700-008920SY-MT+0020EINN V0202301N011010039019N0150001N1+01151+00961098601ADDAG12999AY161999AY261999GA1021+002709999GA2071+003909999GA3081+005109999GF108991081061004501999999MA1098611098371MD1710611+9999MW1611REMSYN023 333 83712 86718 88630;MET015NEW RERA NOSIG;EQDQ01    003PRSWM1
0228039620999991999011509004+52700-008920SY-MT+0020EINN V0202301N012010063019N0200001N1+01191+00931098541ADDAG12999AY161031AY221031GA1021+004509999GA2081+006309999GF108991081061002501999999MA1098511098311MD1610381+9999MW1211OC101751REMSYN029 333 83709 88718 90710 91120;MET022NEW TEMPO 5000 BKN010;EQDQ01+000000PRSWM2Q02    003PRSWM1
0218039620999991999011510004+52700-008920SY-MT+0020EINN V0202401N014010048019N0200001N1+01221+00901098551ADDAG12999AY161999AY221999GA1021+002709999GA2071+004809999GA3071+009609999GF107991071061002501999999MA1098511098321MD1510201+9999MW1601REMSYN023 333 83709 85716 86632;MET010NEW NOSIG;EQDQ01+000000PRSWM2Q02    003PRSWM1
0192039620999991999011511004+52700-008920FM-12+0020EINN V0202301N011010054019N0150001N1+01191+00801098451ADDAG12999AY161999AY221999GA1031+002709079GA2051+005409079GA3071+010509069GF107991071061002501999999MA1098411098221MD1710151+9999MW1601REMSYN029 333 83709 85718 87635 91119;EQDQ01+999990APOA  
