0123039620999991979010100004+52683-008917SY-MT+0014EINN V0200201N00201220001CN0099001N1-00501-00701101791ADDAY101999GF100991001001999999001001MA1101801999999MD1210291+9999MW1021REMSYN00592012MET012CAVOK NOSIG?EQDQ01+000000PRSWM2
0058039620999991979010100304+52683-008917FM-15+0014EINN V0200201N00201999991CY0099001N1-00501-00701999999ADDMA1101901999999REMMET012CAVOK NOSIG?EQDQ01+000000PRSWM2
0123039620999991979010101004+52683-008917SY-MT+0014EINN V0200301N00201220001CN0099001N1-00501-00701101961ADDAY101999GF100991001001999999001001MA1101901999999MD1210251+9999MW1021REMSYN00592012MET012CAVOK NOSIG?EQDQ01+000000PRSWM2
0058039620999991979010101304+52683-008917FM-15+0014EINN V0200201N00251999991CY0099001N1-00501-00701999999ADDMA1101901999999REMMET012CAVOK NOSIG?EQDQ01+000000PRSWM2
0058039620999991979010102004+52683-008917FM-15+0014EINN V0200201N00251999991CY0099001N1-00601-00701999999ADDMA1102001999999REMMET012CAVOK NOSIG?EQDQ01+000000PRSWM2
0058039620999991979010102304+52683-008917FM-15+0014EINN V0200301N00201999991CY0099001N1-00601-00801999999ADDMA1102001999999REMMET012CAVOK NOSIG?EQDQ01+000000PRSWM2
0123039620999991979010103004+52683-008917SY-MT+0014EINN V0200201N00261220001CN0300001N1-00601-00701102041ADDAY101999GF100991001001999999001001MA1102101999999MD1210251+9999MW1021REMSYN00592012MET012CAVOK NOSIG?EQDQ01+000000PRSWM2
0058039620999991979010103304+52683-008917FM-15+0014EINN V0200301N00251999991CY0099001N1-00501-00701999999ADDMA1102101999999REMMET012CAVOK NOSIG?EQDQ01+000000PRSWM2
0123039620999991979010104004+52683-008917SY-MT+0014EINN V0200201N00261220001CN0300001N1-00601-00701102041ADDAY101999GF100991001001999999001001MA1102101999999MD1210251+9999MW1021REMSYN00592012MET012CAVOK NOSIG?EQDQ01+000000PRSWM2
0058039620999991979010104304+52683-008917FM-15+0014EINN V0200301N00201999991CY0099001N1-00601-00701999999ADDMA1102201999999REMMET012CAVOK NOSIG?EQDQ01+000000PRSWM2
0123039620999991979010105004+52683-008917SY-MT+0014EINN V0200301N00261220001CN0300001N1-00501-00601102191ADDAY101999GF100991001001999999001001MA1102201999999MD1210231+9999MW1021REMSYN00592012MET012CAVOK NOSIG?EQDQ01+000000PRSWM2
0142039620999991979010106004+52683-008917FM-12+0014EINN V0200301N00101220001CN0300001N9-00601-00701102311ADDAA199999929AJ100009199999999AY101999GF100991001001999999001001IA1139IA2999-01109KA1999N-00601MD1210171+9999MW1021REMSYN01726130 79756 92012
0058039620999991979010106304+52683-008917FM-15+0014EINN V0200301N00101999991CY0099001N1-00601-00801999999ADDMA1102301999999REMMET012CAVOK NOSIG?EQDQ01+000000PRSWM2
0058039620999991979010107004+52683-008917FM-15+0014EINN V0200201N00101999991CY0099001N1-00701-00801999999ADDMA1102301999999REMMET012CAVOK NOSIG?EQDQ01+000000PRSWM2
0058039620999991979010107304+52683-008917FM-15+0014EINN V0200201N00101999991CY0099001N1-00701-00901999999ADDMA1102301999999REMMET012CAVOK NOSIG?EQDQ01+000000PRSWM2
0058039620999991979010108004+52683-008917FM-15+0014EINN V0209991C00001999991CY0099001N1-00601-00801999999ADDMA1102401999999REMMET012CAVOK NOSIG?EQDQ01+000000PRSWM2
0068039620999991979010108304+52683-008917FM-15+0014EINN V0209991C00001220001CN0112001N1-00701-00801999999ADDGA1011+003009079MA1102401999999REMMET006NOSIG?EQDQ01+000000PRSWM2
0139039620999991979010109004+52683-008917SY-MT+0014EINN V0209991C00001220001CN0112001N1-00701-00801102491ADDAY101999GA1011+003009079GF101991011061004501001021MA1102401999999MD1210181+9999MW1031REMSYN01181710 92012MET006NOSIG?EQDQ01+000000PRSWM2
0068039620999991979010110304+52683-008917FM-15+0014EINN V0209991C00001220001CN0112001N1-00401-00501999999ADDGA1011+004509079MA1102511999999REMMET006NOSIG?EQDQ01+000000PRSWM2
0139039620999991979010111004+52683-008917SY-MT+0014EINN V0201501N00101220001CN0112001N1-00301-00501102421ADDAY101999GA1011+006009059GF101991011051017501001001MA1102511999999MD1210171+9999MW1031REMSYN01181650 92012MET006NOSIG?EQDQ01+000000PRSWM2
0068039620999991979010111304+52683-008917FM-15+0014EINN V0209991C00001220001CN0112001N1-00201-00501999999ADDGA1011+006009059MA1102511999999REMMET006NOSIG?EQDQ01+000000PRSWM2
0139039620999991979010112004+52683-008917SY-MT+0014EINN V0201501N00101220001CN0500001N1-00301-00501102601ADDAY101999GA1011+006009059GF101991011051008001001021MA1102511999999MD1210181+9999MW1021REMSYN01181620 92012MET006NOSIG?EQDQ01+000000PRSWM2
0068039620999991979010112304+52683-008917FM-15+0014EINN V0201501N00151220001CN0112001N1-00201-00401999999ADDGA1011+006009059MA1102511999999REMMET006NOSIG?EQDQ01+000000PRSWM2
0068039620999991979010113004+52683-008917FM-15+0014EINN V0201201N00151220001CN0112001N1-00201-00601999999ADDGA1011+006009059MA1102511999999REMMET006NOSIG?EQDQ01+000000PRSWM2
0073039620999991979010113304+52683-008917FM-15+0014EINN V0201301N00151220001CN0112001N1-00101-00601999999ADDGA1011+006009059MA1102511999999REMMET011-025 NOSIG?EQDQ01+000000PRSWM2
0139039620999991979010114004+52683-008917SY-MT+0014EINN V0201201N00151220001CN0300001N1-00201-00601102591ADDAY101999GA1011+003609079GF101991011051008001001021MA1102511999999MD1110041+9999MW1011REMSYN01181620 92000MET006NOSIG?EQDQ01+000000PRSWM2
0068039620999991979010114304+52683-008917FM-15+0014EINN V0201601N00101220001CN0112001N1+00001-00501999999ADDGA1011+003009079MA1102611999999REMMET006NOSIG?EQDQ01+000000PRSWM2
0144039620999991979010115004+52683-008917SY-MT+0014EINN V0201401N00101220001CN0099001N1-00101-00401102591ADDAY101999GF100991001001999999001001MA1102511999999MD1810011+9999MW1011WG199010599999REMSYN01292000 531999MET012CAVOK NOSIG?EQDQ01+000000PRSWM2
0058039620999991979010115304+52683-008917FM-15+0014EINN V0201201N00101999991CY0099001N1-00101-00501999999ADDMA1102611999999REMMET012CAVOK NOSIG?EQDQ01+000000PRSWM2
0145039620999991979010116004+52683-008917SY-MT+0014EINN V0201201N00301220001CN0099001N1-00101-00601102601ADDAY101999GA1011+003609079GF101991011061004501001001MA1102611999999MD1110011+9999MW1021REMSYN01181712 92000MET012CAVOK NOSIG?EQDQ01+000000PRSWM2
0069039620999991979010116304+52683-008917FM-15+0014EINN V0201201N00101220001CN0080001N1-00201-00501999999ADDGA1011+075009009MA1102611999999MW1101REMMET0209999 TO NW SW NOSIG?
0058039620999991979010117004+52683-008917FM-15+0014EINN V0201001N00101999991CY0099001N1-00201-00501999999ADDMA1102611999999REMMET012CAVOK NOSIG?EQDQ01+000000PRSWM2
0058039620999991979010117304+52683-008917FM-15+0014EINN V0201001N00101999991CY0099001N1-00301-00601999999ADDMA1102611999999REMMET012CAVOK NOSIG?EQDQ01+000000PRSWM2
0145039620999991979010118004+52683-008917SY-MT+0014EINN V0201301N00101220001CN0099001N1-00201-00501102621ADDAY101999GA1011+060009009GF101991001001999999001021MA1102611999999MD1310021+9999MW1031REMSYN01181070 92011MET012CAVOK NOSIG?EQDQ01+000000PRSWM2
0058039620999991979010118304+52683-008917FM-15+0014EINN V0201301N00101999991CY0099001N1-00201-00501999999ADDMA1102611999999REMMET012CAVOK NOSIG?EQDQ01+000000PRSWM2
0055039620999991979010119004+52683-008917FM-15+0014EINN V0201201N00101220001CN0090001N1-00301-00501999999ADDGA1011+027009039MA1102611999999MW1101REMMET006NOSIG?
0055039620999991979010119304+52683-008917FM-15+0014EINN V0201101N00101220001CN0090001N1-00301-00501999999ADDGA1011+027009039MA1102611999999MW1101REMMET006NOSIG?
0120039620999991979010120004+52683-008917SY-MT+0014EINN V0201301N00151220001CN0080001N1-00201-00501102691ADDAY101999GA1011+027009039GF101991011001999999041001MA1102611999999MD1210071+9999MW1101REMSYN01181359 92011MET006NOSIG?
0055039620999991979010120304+52683-008917FM-15+0014EINN V0201401N00201220001CN0090001N1-00301-00601999999ADDGA1011+027009039MA1102611999999MW1101REMMET006NOSIG?
0120039620999991979010121004+52683-008917SY-MT+0014EINN V0201501N00151220001CN0090001N1-00301-00501102701ADDAY101999GA1011+027009039GF101991011001999999041021MA1102611999999MD1110041+9999MW1101REMSYN01181359 92011MET006NOSIG?
0055039620999991979010121304+52683-008917FM-15+0014EINN V0201701N00151220001CN0090001N1-00301-00601999999ADDGA1011+075009009MA1102711999999MW1101REMMET006NOSIG?
0104039620999991979010122004+52683-008917SY-MT+0014EINN V0201701N00101220001CN0090001N1-00301-00601102691ADDAY101999GF101991011001999999041021MA1102711999999MD1110071+9999MW1101REMSYN01181359 92011MET006NOSIG?
0039039620999991979010122304+52683-008917FM-15+0014EINN V0209991C00001220001CN0112001N1-00401-00601999999ADDMA1102711999999MW1101REMMET006NOSIG?
0039039620999991979010123004+52683-008917FM-15+0014EINN V0209991C00001220001CN0090001N1-00501-00701999999ADDMA1102711999999MW1101REMMET006NOSIG?
0039039620999991979010123304+52683-008917FM-15+0014EINN V0209991C00001220001CN0080001N1-00401-00601999999ADDMA1102711999999MW1101REMMET006NOSIG?
0098039620999991979010200004+52683-008917SY-MT+0014EINN V0209991C00001220001CN0090001N1-00501-00701102741ADDAY101999GF100991001001999999001001MA1102711999999MD1110041+9999MW1101REMSYN00592012MET006NOSIG?
0098039620999991979010201004+52683-008917SY-MT+0014EINN V0201301N00201220001CN0070001N1-00501-00601102751ADDAY101999GF100991001001999999001001MA1102711999999MD1210011+9999MW1101REMSYN00592012MET006NOSIG?
0039039620999991979010201304+52683-008917FM-15+0014EINN V0201201N00151220001CN0070001N1-00501-00601999999ADDMA1102711999999MW1101REMMET006NOSIG?
0039039620999991979010202004+52683-008917FM-15+0014EINN V0201201N00151220001CN0070001N1-00401-00601999999ADDMA1102711999999MW1101REMMET006NOSIG?
0039039620999991979010202304+52683-008917FM-15+0014EINN V0201201N00201220001CN0080001N1-00401-00601999999ADDMA1102711999999MW1101REMMET006NOSIG?
0098039620999991979010203004+52683-008917SY-MT+0014EINN V0201201N00201220001CN0090001N1-00401-00601102761ADDAY101999GF100991001001999999001001MA1102711999999MD1210021+9999MW1101REMSYN00592012MET006NOSIG?
0039039620999991979010203304+52683-008917FM-15+0014EINN V0201201N00201220001CN0090001N1-00401-00601999999ADDMA1102711999999MW1101REMMET006NOSIG?
0039039620999991979010204004+52683-008917FM-15+0014EINN V0201301N00151220001CN0090001N1-00401-00601999999ADDMA1102711999999MW1101REMMET006NOSIG?
0039039620999991979010204304+52683-008917FM-15+0014EINN V0201301N00151220001CN0090001N1-00401-00601999999ADDMA1102711999999MW1101REMMET006NOSIG?
0098039620999991979010205004+52683-008917SY-MT+0014EINN V0201301N00151220001CN0090001N1-00401-00601102741ADDAY101999GF100991001001999999001001MA1102711999999MD1110031+9999MW1101REMSYN00592012MET006NOSIG?
0058039620999991979010205304+52683-008917FM-15+0014EINN V0201301N00101999991CY0099001N1-00501-00701999999ADDMA1102711999999REMMET012CAVOK NOSIG?EQDQ01+000000PRSWM2
0194039620999991979010206004+52683-008917SY-MT+0014EINN V0201201N00101220001CN0099001N1-00501-00601102791ADDAA199999929AJ100009199999999AY101999GF100991001001999999001001IA1139IA2999-01009KA1999N-00601MA1102711999999MD1310011+9999MW1101REMSYN01726030 79756 92012MET012CAVOK NOSIG?EQDQ01+000000PRSWM2
0058039620999991979010206304+52683-008917FM-15+0014EINN V0201301N00151999991CY0099001N1-00501-00601999999ADDMA1102711999999REMMET012CAVOK NOSIG?EQDQ01+000000PRSWM2
0058039620999991979010207004+52683-008917FM-15+0014EINN V0201301N00151999991CY0099001N1-00401-00501999999ADDMA1102711999999REMMET012CAVOK NOSIG?EQDQ01+000000PRSWM2
0058039620999991979010207304+52683-008917FM-15+0014EINN V0201201N00151999991CY0099001N1-00301-00501999999ADDMA1102711999999REMMET012CAVOK NOSIG?EQDQ01+000000PRSWM2
0197039620999991979010208004+52683-008917SY-MT+0014EINN V0201301N00151220001CN0100001N1-00401-00501102781ADDAY101999GA1011+012009059GF199999999999999999001001MA1102711999999MD1010001+9999MW1101REMSYN00592012MET006NOSIG?EQDQ01+000002SCOTCVQ02+000002SCOTLCQ03+000002SCOLCGQ04+000992SCOLCBQ05+000000PRSWM2
0068039620999991979010208304+52683-008917FM-15+0014EINN V0201301N00151220001CN0112001N1-00401-00501999999ADDGA1011+012009059MA1102711999999REMMET006NOSIG?EQDQ01+000000PRSWM2
0139039620999991979010209004+52683-008917SY-MT+0014EINN V0201401N00201220001CN0112001N1-00301-00501102761ADDAY101999GA1011+012009059GF101991011051012501001001MA1102711999999MD1010001+9999MW1031REMSYN01181640 92012MET006NOSIG?EQDQ01+000000PRSWM2
0068039620999991979010209304+52683-008917FM-15+0014EINN V0201301N00201220001CN0112001N1-00301-00401999999ADDGA1011+012009059MA1102711999999REMMET006NOSIG?EQDQ01+000000PRSWM2
0068039620999991979010210004+52683-008917FM-15+0014EINN V0201401N00101220001CN0112001N1-00201-00401999999ADDGA1011+006009059MA1102711999999REMMET006NOSIG?EQDQ01+000000PRSWM2
0068039620999991979010210304+52683-008917FM-15+0014EINN V0201201N00101220001CN0112001N1-00201-00401999999ADDGA1011+006009059MA1102811999999REMMET006NOSIG?EQDQ01+000000PRSWM2
0139039620999991979010211004+52683-008917SY-MT+0014EINN V0201201N00101220001CN0112001N1+00001-00201102801ADDAY101999GA1011+006009059GF101991011051008001001001MA1102711999999MD1310031+9999MW1021REMSYN01181620 92012MET006NOSIG?EQDQ01+000000PRSWM2
0068039620999991979010211304+52683-008917FM-15+0014EINN V0201201N00151220001CN0112001N1+00001-00201999999ADDGA1011+009009059MA1102711999999REMMET006NOSIG?EQDQ01+000000PRSWM2
0157039620999991979010212004+52683-008917SY-MT+0014EINN V0201201N00201220001CN0112001N1+00001-00101102721ADDAY101999GA1011+009009059GF101991011051012501001001MA1102711999999MD1810051+9999MW1021REMSYN02997//  81630 92000 97182 97282MET006NOSIG?EQDQ01+000000PRSWM2
0068039620999991979010212304+52683-008917FM-15+0014EINN V0201201N00201220001CN0112001N1+00101-00101999999ADDGA1011+006009089MA1102611999999REMMET006NOSIG?EQDQ01+000000PRSWM2
0145039620999991979010213004+52683-008917SY-MT+0014EINN V0201201N00201220001CN0112001N1+00201-00101102641ADDAY101999GA1011+006009089GF101991011081008001001001MA1102611999999MD1810161+9999MW1021REMSYN01781820 92000 97280MET006NOSIG?EQDQ01+000000PRSWM2
0068039620999991979010214004+52683-008917FM-15+0014EINN V0201301N00201220001CN0112001N1+00301-00401999999ADDGA1011+009009089MA1102511999999REMMET006NOSIG?EQDQ01+000000PRSWM2
0068039620999991979010214304+52683-008917FM-15+0014EINN V0201301N00251220001CN0112001N1+00301-00301999999ADDGA1011+009009089MA1102511999999REMMET006NOSIG?EQDQ01+000000PRSWM2
0131039620999991979010215004+52683-008917SY-MT+0014EINN V0201201N00251220001CN0112001N1+00301-00201102581ADDAY101999GF101991011011012501001001MA1102401999999MD1710201+9999MW1021WG199010599999REMSYN00581830MET006NOSIG?EQDQ01+000000PRSWM2
0058039620999991979010215304+52683-008917FM-15+0014EINN V0201401N00251999991CY0099001N1+00301-00201999999ADDMA1102401999999REMMET012CAVOK NOSIG?EQDQ01+000000PRSWM2
0133039620999991979010216004+52683-008917SY-MT+0014EINN V0201301N00251220001CN0112001N1+00301-00101102461ADDAY101999GA1011+012009059GF101991011051012501001001MA1102401999999MD1710181+9999MW1031REMSYN00581640MET006NOSIG?EQDQ01+000000PRSWM2
0068039620999991979010216304+52683-008917FM-15+0014EINN V0201201N00251220001CN0112001N1+00201-00101999999ADDGA1011+012009059MA1102401999999REMMET006NOSIG?EQDQ01+000000PRSWM2
0139039620999991979010217004+52683-008917SY-MT+0014EINN V0201101N00251220001CN0112001N1+00201-00101102441ADDAY101999GA1011+012009059GF101991011051012501001001MA1102401999999MD1710141+9999MW1021REMSYN01181640 92000MET006NOSIG?EQDQ01+000000PRSWM2
0068039620999991979010217304+52683-008917FM-15+0014EINN V0201201N00251220001CN0112001N1+00101-00201999999ADDGA1011+012009059MA1102301999999REMMET006NOSIG?EQDQ01+000000PRSWM2
0150039620999991979010218004+52683-008917SY-MT+0014EINN V0201201N00301220001CN0112001N1+00101-00101102371ADDAA199999929AY101999GA1011+012009059GF101991011051012501001001KA1999M+00401MA1102301999999MD1710131+9999MW1101REMSYN01779704 81640 92000MET006NOSIG?
0055039620999991979010218304+52683-008917FM-15+0014EINN V0201301N00411220001CN0112001N1+00101-00101999999ADDGA1011+012009059MA1102301999999MW1101REMMET006NOSIG?
0055039620999991979010219004+52683-008917FM-15+0014EINN V0201301N00411220001CN0112001N1+00101-00201999999ADDGA1011+012009059MA1102301999999MW1101REMMET006NOSIG?
0055039620999991979010219304+52683-008917FM-15+0014EINN V0201201N00461220001CN0080001N1+00101-00101999999ADDGA1011+012009059MA1102201999999MW1101REMMET006NOSIG?
0126039620999991979010220004+52683-008917SY-MT+0014EINN V0201201N00561220001CN0112001N1+00101-00101102311ADDAY101999GA1011+012009059GF101991011051012501001001MA1102201999999MD1710151+9999MW1101REMSYN01781640 94068 92000MET006NOSIG?
0058039620999991979010220304+52683-008917FM-15+0014EINN V0201301N00461999991CY0099001N1+00101-00101999999ADDMA1102101999999REMMET012CAVOK NOSIG?EQDQ01+000000PRSWM2
0145039620999991979010221004+52683-008917SY-MT+0014EINN V0201301N00411220001CN0099001N1+00101-00101102241ADDAY101999GA1011+012009059GF101991011051012501001001MA1102101999999MD1710201+9999MW1101REMSYN01181640 92000MET012CAVOK NOSIG?EQDQ01+000000PRSWM2
0058039620999991979010221304+52683-008917FM-15+0014EINN V0201301N00361999991CY0099001N1+00101-00101999999ADDMA1102101999999REMMET012CAVOK NOSIG?EQDQ01+000000PRSWM2
0175039620999991979010222004+52683-008917SY-MT+0014EINN V0201201N00461220001CN0099001N1+00001-00101102091ADDAY101999GA1011+015009059GF101991011051017501999011MA1102001999999MD1710221+9999MW1101WG199990299999REMSYN01181650 92001MET012CAVOK NOSIG?EQDQ01+000000PRSWM2Q02    003SCOMCG
0058039620999991979010222304+52683-008917FM-15+0014EINN V0201201N00411999991CY0099001N1+00001-00101999999ADDMA1102001999999REMMET012CAVOK NOSIG?EQDQ01+000000PRSWM2
0058039620999991979010223004+52683-008917FM-15+0014EINN V0201201N00511999991CY0099001N1+00101-00101999999ADDMA1101901999999REMMET012CAVOK NOSIG?EQDQ01+000000PRSWM2
0055039620999991979010223304+52683-008917FM-15+0014EINN V0201201N00561220001CN0112001N1+00201-00101999999ADDGA1011+010509059MA1101901999999MW1101REMMET006NOSIG?
0187039620999991979010300004+52683-008917SY-MT+0014EINN V0201201N00511220001CN0120001N1+00101-00101101991ADDAY101999GA1011+010509059GF101991999999999999001011MA1101801999999MD1710251+9999MW1101REMSYN01181075 92001MET006NOSIG?EQDQ01+000002SCOTLCQ02+000002SCOLCGQ03+000992SCOLCBQ04+000000PRSWM2
0055039620999991979010300304+52683-008917FM-15+0014EINN V0201201N00611220001CN0112001N1+00201+00001999999ADDGA1011+010509059MA1101691999999MW1101REMMET006NOSIG?
0055039620999991979010301004+52683-008917FM-15+0014EINN V0201201N00611220001CN0112001N1+00201+00001999999ADDGA1011+010509059MA1101691999999MW1101REMMET006NOSIG?
0055039620999991979010301304+52683-008917FM-15+0014EINN V0201101N00611220001CN0112001N1+00201+00101999999ADDGA1011+010509059MA1101591999999MW1101REMMET006NOSIG?
0120039620999991979010302004+52683-008917SY-MT+0014EINN V0201101N00661220001CN0112001N1+00201+00101101731ADDAY101999GA1011+010509059GF102991011051012501001011MA1101491999999MD1810361+9999MW1101REMSYN01181635 92000MET006NOSIG?
0055039620999991979010302304+52683-008917FM-15+0014EINN V0201101N00661220001CN0112001N1+00301+00101999999ADDGA1011+010509059MA1101491999999MW1101REMMET006NOSIG?
0120039620999991979010303004+52683-008917SY-MT+0014EINN V0201101N00671220001CN0120001N1+00201+00101101571ADDAY101999GA1011+010509059GF102991011051012501001011MA1101391999999MD1810421+9999MW1101REMSYN01181635 92000MET006NOSIG?
0055039620999991979010303304+52683-008917FM-15+0014EINN V0201301N00611220001CN0112001N1+00401+00201999999ADDGA1011+010509059MA1101291999999MW1101REMMET006NOSIG?
0120039620999991979010304004+52683-008917SY-MT+0014EINN V0201401N00721220001CN0112001N1+00501+00301101341ADDAY101999GA1011+010509059GF102991011051012501001011MA1101291999999MD1610391+9999MW1101REMSYN01181635 92000MET006NOSIG?
0071039620999991979010304304+52683-008917FM-15+0014EINN V0201301N00561220001CN0112001N1+00401+00301999999ADDGA1011+010509059GA2041+024009039MA1101191999999MW1101REMMET006NOSIG?
0161039620999991979010305004+52683-008917SY-MT+0014EINN V0201501N00771015001CN0112001N1+00601+00301101221ADDAY111999GA1011+010509059GA2071+015009059GF107991071051012501999999MA1101191999999MD1710351+9999MW1031REMSYN01781635 87650 92000MET006NOSIG?EQDQ01+000000PRSWM2
0058039620999991979010305304+52683-008917FM-15+0014EINN V0201401N00721999991CY0099001N1+00601+00301999999ADDMA1101081999999REMMET012CAVOK NOSIG?EQDQ01+000000PRSWM2
0242039620999991979010306004+52683-008917SY-MT+0014EINN V0201301N00721220001CN0112001N1+00501+00201101131ADDAA199999929AJ100009199999999AY111999GA1021+010509059GA2031+018009059GF104991041051012501999001IA1089IA2999-00209KA1999N+00001MA1101081999999MD1710321+9999MW1011REMSYN02325210 79700 82635 83656MET006NOSIG?EQDQ01+000000PRSWM2Q02    003SCOMCG
0084039620999991979010306304+52683-008917FM-15+0014EINN V0201401N00611018001CN0112001N1+00501+00201999999ADDGA1031+007509059GA2041+018009059MA1101021999999REMMET006NOSIG?EQDQ01+000000PRSWM2
0084039620999991979010307004+52683-008917FM-15+0014EINN V0201501N00561018001CN0112001N1+00501+00201999999ADDGA1031+007509059GA2051+018009059MA1101021999999REMMET006NOSIG?EQDQ01+000000PRSWM2
0100039620999991979010307304+52683-008917FM-15+0014EINN V0201501N00771018001CN0112001N1+00601+00201999999ADDGA1021+009009059GA2031+018009059GA3051+030009039MA1100911999999REMMET006NOSIG?EQDQ01+000000PRSWM2
0155039620999991979010308004+52683-008917SY-MT+0014EINN V0201501N00571012001CN0200001N1+00501+00201101031ADDAY121999GA1071+012009059GF199999061051008001999999MA1100911999999MD1710311+9999MW1031REMSYN01183625 85656MET006NOSIG?EQDQ01+000062SCOTCVQ02+000000PRSWM2
0084039620999991979010308304+52683-008917FM-15+0014EINN V0201401N00771012001CN0112001N1+00601+00201999999ADDGA1051+012009059GA2041+030009039MA1100811999999REMMET006NOSIG?EQDQ01+000000PRSWM2
0155039620999991979010309004+52683-008917SY-MT+0014EINN V0201401N00821012001CN0112001N1+00601+00101100871ADDAY121999GA1051+012009059GA2031+030009049GF107991051051012501021021MA1100811999999MD1610261+9999MW1031REMSYN01185640 83460MET006NOSIG?EQDQ01+000000PRSWM2
0084039620999991979010309304+52683-008917FM-15+0014EINN V0201401N00871012001CN0112001N1+00601+00101999999ADDGA1051+012009059GA2031+030009039MA1100711999999REMMET006NOSIG?EQDQ01+000000PRSWM2
0084039620999991979010310004+52683-008917FM-15+0014EINN V0201401N00821030001CN0112001N1+00601+00101999999ADDGA1031+010509059GA2051+030009049MA1100711999999REMMET006NOSIG?EQDQ01+000000PRSWM2
0084039620999991979010310304+52683-008917FM-15+0014EINN V0201401N00661030001CN0112001N1+00601+00101999999ADDGA1031+010509059GA2061+030009049MA1100711999999REMMET006NOSIG?EQDQ01+000000PRSWM2
0187039620999991979010311004+52683-008917SY-MT+0014EINN V0201401N00821045001CN0300001N1+00601+00101100761ADDAY121999GA1011+005109079GA2031+010509059GA3081+045009049GF199999031051012501021021MA1100611999999MD1710271+9999MW1031REMSYN01183635 85460MET006NOSIG?EQDQ01+000072SCOTCVQ02+000000PRSWM2
0100039620999991979010311304+52683-008917FM-15+0014EINN V0201501N00821045001CN0112001N1+00601+00101999999ADDGA1011+004809079GA2031+009009059GA3081+045009049MA1100611999999REMMET006NOSIG?EQDQ01+000000PRSWM2
0183039620999991979010312004+52683-008917SY-MT+0014EINN V0201401N00821045001CN0112001N1+00601+00101100611ADDAA106000091AA299999929AY121999GA1011+005109079GA2081+045009049GF108991021051004501011999MA1100611999999MD1710261+9999MW1021REMSYN017797// 81717 88465MET006NOSIG?EQDQ01+000000PRSWM2
0100039620999991979010312304+52683-008917FM-15+0014EINN V0201501N00921042001CN0112001N1+00601+00101999999ADDGA1011+005109079GA2031+009009059GA3071+042009049MA1100511999999REMMET006NOSIG?EQDQ01+000000PRSWM2
0084039620999991979010313004+52683-008917FM-15+0014EINN V0201401N00771042001CN0112001N1+00601+00101999999ADDGA1021+010509059GA2081+042009049MA1100511999999REMMET006NOSIG?EQDQ01+000000PRSWM2
0100039620999991979010313304+52683-008917FM-15+0014EINN V0201301N00661039001CN0112001N1+00601+00001999999ADDGA1011+010509059GA2061+039009049GA3081+075009029MA1100411999999REMMET006NOSIG?EQDQ01+000000PRSWM2
0185039620999991979010314004+52683-008917SY-MT+0014EINN V0201201N00721036001CN0112001N1+00601-00101100511ADDAY121999GA1021+012009059GA2041+036009049GA3071+060009029GF108991021051012501011081MA1100411999999MD1710251+9999MW1021WG199990099999REMSYN01182635 88464MET006NOSIG?EQDQ01+000000PRSWM2
0100039620999991979010314304+52683-008917FM-15+0014EINN V0201401N00771036001CN0112001N1+00601-00201999999ADDGA1031+012009059GA2051+036009049GA3071+060009029MA1100311999999REMMET006NOSIG?EQDQ01+000000PRSWM2
0171039620999991979010315004+52683-008917SY-MT+0014EINN V0201401N00771030001CN0250001N1+00601+00101100511ADDAY121999GA1031+012009059GA2051+030009049GA3071+060009029GF108991021051012501011999MA1100311999999MD1710251+9999MW1021REMSYN01182635 88464MET006NOSIG?EQDQ01+000000PRSWM2
0084039620999991979010315304+52683-008917FM-15+0014EINN V0201301N00661030001CN0112001N1+00601-00201999999ADDGA1031+012009059GA2081+030009049MA1100311999999REMMET006NOSIG?EQDQ01+000000PRSWM2
0084039620999991979010316004+52683-008917FM-15+0014EINN V0201301N00821030001CN0112001N1+00501-00101999999ADDGA1031+012009059GA2081+030009049MA1100311999999REMMET006NOSIG?EQDQ01+000000PRSWM2
0084039620999991979010316304+52683-008917FM-15+0014EINN V0201301N00661030001CN0112001N1+00501-00101999999ADDGA1031+012009059GA2081+030009049MA1100311999999REMMET006NOSIG?EQDQ01+000000PRSWM2
0155039620999991979010317004+52683-008917SY-MT+0014EINN V0201301N00821030001CN0200001N1+00501-00101100341ADDAY121999GA1031+012009059GA2081+030009049GF108991031051012501071999MA1100311999999MD1610171+9999MW1021REMSYN01183640 88460MET006NOSIG?EQDQ01+000000PRSWM2
0084039620999991979010317304+52683-008917FM-15+0014EINN V0201201N00611030001CN0112001N1+00501-00101999999ADDGA1031+012009059GA2071+030009049MA1100511999999REMMET006NOSIG?EQDQ01+000000PRSWM2
0185039620999991979010318004+52683-008917SY-MT+0014EINN V0201201N00511030001CN0112001N1+00401-00101100371ADDAA199999929AY121999GA1031+012009059GA2071+030009049GF108991031051012501071999KA1999M+00701MA1100311999999MD1510011+9999MW1021REMSYN01779707 83640 87460MET006NOSIG?EQDQ01+000000PRSWM2
0084039620999991979010318304+52683-008917FM-15+0014EINN V0201201N00411030001CN0112001N1+00401-00101999999ADDGA1031+012009059GA2081+030009049MA1100311999999REMMET006NOSIG?EQDQ01+000000PRSWM2
0084039620999991979010319004+52683-008917FM-15+0014EINN V0201101N00361030001CN0112001N1+00401+00001999999ADDGA1031+012009059GA2081+030009049MA1100311999999REMMET006NOSIG?EQDQ01+000000PRSWM2
0084039620999991979010319304+52683-008917FM-15+0014EINN V0201201N00511030001CN0112001N1+00401+00001999999ADDGA1031+012009059GA2081+030009049MA1100311999999REMMET006NOSIG?EQDQ01+000000PRSWM2
0175039620999991979010320004+52683-008917SY-MT+0014EINN V0201101N00361030001CN0200001N1+00401+00001100401ADDAY121999GA1031+012009059GA2081+030009049GF108991031051012501071999MA1100311999999MD1110061+9999MW1021WG199060099999REMSYN01783640 87460 94000MET006NOSIG?EQDQ01+000000PRSWM2
0084039620999991979010320304+52683-008917FM-15+0014EINN V0201201N00511030001CN0112001N1+00401+00001999999ADDGA1031+013509059GA2081+030009049MA1100311999999REMMET006NOSIG?EQDQ01+000000PRSWM2
0169039620999991979010321004+52683-008917SY-MT+0014EINN V0201301N00611030001CN0112001N1+00401+00001100361ADDAY121999GA1031+013509059GA2081+030009049GF108991031051012501071999MA1100311999999MD1010021+9999MW1021WG199010999999REMSYN01183640 88460MET006NOSIG?EQDQ01+000000PRSWM2
0100039620999991979010321304+52683-008917FM-15+0014EINN V0201301N00821013501CN0112001N1+00501-00101999999ADDGA1031+006909059GA2041+013509059GA3081+030009049MA1100311999999REMMET006NOSIG?EQDQ01+000000PRSWM2
0161039620999991979010322004+52683-008917SY-MT+0014EINN V0201201N00611030001CN0099001N1+00401+00101100371ADDAY121999GA1011+015009059GA2081+030009049GF108991011051017501071999MA1100311999999MD1510031+9999MW1021REMSYN01181650 88460MET012CAVOK NOSIG?EQDQ01+000000PRSWM2
0071039620999991979010322304+52683-008917FM-15+0014EINN V0201001N00561030001CN0112001N1+00401+00101999999ADDGA1021+015009059GA2081+030009049MA1100311999999MW1601REMMET006NOSIG?
0142039620999991979010323004+52683-008917SY-MT+0014EINN V0201201N00621030001CN0200001N1+00401+00101100371ADDAY121999GA1021+015009059GA2081+030009049GF108991011051017501071999MA1100411999999MD1510031+9999MW1021MW2211REMSYN01181650 88460MET006NOSIG?
0071039620999991979010323304+52683-008917FM-15+0014EINN V0201001N00361030001CN0112001N1+00401+00101999999ADDGA1021+015009059GA2081+030009049MA1100311999999MW1211REMMET006NOSIG?
0161039620999991979010400004+52683-008917SY-MT+0014EINN V0200701N00251015001CN0099001N1+00401+00001100371ADDAY161999GA1051+015009059GA2081+030009049GF108991051051017501071999MA1100311999999MD1010031+9999MW1021REMSYN01185650 88460MET012CAVOK NOSIG?EQDQ01+000000PRSWM2
0058039620999991979010400304+52683-008917FM-15+0014EINN V0200701N00361999991CY0099001N1+00301+00001999999ADDMA1100311999999REMMET012CAVOK NOSIG?EQDQ01+000000PRSWM2
0058039620999991979010401004+52683-008917FM-15+0014EINN V0200701N00411999991CY0099001N1+00301+00201999999ADDMA1100311999999REMMET012CAVOK NOSIG?EQDQ01+000000PRSWM2
0058039620999991979010401304+52683-008917FM-15+0014EINN V0200701N00361999991CY0099001N1+00301+00001999999ADDMA1100411999999REMMET012CAVOK NOSIG?EQDQ01+000000PRSWM2
0101039620999991979010402004+52683-008917FM-12+0014EINN V0200701N00411015001CN0250001N9+00301+00001100391ADDAY121999GA1081+015009059GF108991081051017501999999MD1210021+9999MW1021WG199990299999REMSYN00588650
0058039620999991979010402304+52683-008917FM-15+0014EINN V0200601N00301999991CY0099001N1+00301+00001999999ADDMA1100411999999REMMET012CAVOK NOSIG?EQDQ01+000000PRSWM2
0139039620999991979010403004+52683-008917SY-MT+0014EINN V0200701N00361015001CN0099001N1+00301-00101100411ADDAY121999GA1081+015009059GF108991081051017501999999MA1100411999999MD1510001+9999MW1021REMSYN00588650MET012CAVOK NOSIG?EQDQ01+000000PRSWM2
0058039620999991979010403304+52683-008917FM-15+0014EINN V0200501N00301999991CY0099001N1+00301-00101999999ADDMA1100411999999REMMET012CAVOK NOSIG?EQDQ01+000000PRSWM2
0058039620999991979010404004+52683-008917FM-15+0014EINN V0200701N00411999991CY0099001N1+00301-00101999999ADDMA1100411999999REMMET012CAVOK NOSIG?EQDQ01+000000PRSWM2
0058039620999991979010404304+52683-008917FM-15+0014EINN V0200701N00251999991CY0099001N1+00201-00101999999ADDMA1100511999999REMMET012CAVOK NOSIG?EQDQ01+000000PRSWM2
0123039620999991979010405004+52683-008917SY-MT+0014EINN V0200701N00411015001CN0250001N1+00301-00101100501ADDAY121999GF105991051051017501999999MA1100511999999MD1310111+9999MW1011REMSYN00585656MET012CAVOK NOSIG?EQDQ01+000000PRSWM2
0058039620999991979010405304+52683-008917FM-15+0014EINN V0200301N00251999991CY0099001N1+00101-00101999999ADDMA1100511999999REMMET012CAVOK NOSIG?EQDQ01+000000PRSWM2
0123039620999991979010406004+52683-008917SY-MT+0014EINN V0200201N00261015001CN0250001N1+00201-00101100531ADDAY121999GF105991051051017501999999MA1100511999999MD1210121+9999MW1021REMSYN00585656MET012CAVOK NOSIG?EQDQ01+000000PRSWM2
0058039620999991979010406304+52683-008917FM-15+0014EINN V0200201N00251999991CY0099001N1+00201-00101999999ADDMA1100611999999REMMET012CAVOK NOSIG?EQDQ01+000000PRSWM2
0139039620999991979010407004+52683-008917SY-MT+0014EINN V0200101N00301018001CN0099001N1+00201-00201100661ADDAY121999GA1081+018009059GF108991081051017501999999MA1100611999999MD1210161+9999MW1021REMSYN00588656MET012CAVOK NOSIG?EQDQ01+000000PRSWM2
0058039620999991979010407304+52683-008917FM-15+0014EINN V0203601N00251999991CY0099001N1+00101-00101999999ADDMA1100611999999REMMET012CAVOK NOSIG?EQDQ01+000000PRSWM2
0058039620999991979010408004+52683-008917FM-15+0014EINN V0203501N00461999991CY0099001N1+00101-00201999999ADDMA1100711999999REMMET012CAVOK NOSIG?EQDQ01+000000PRSWM2
0058039620999991979010408304+52683-008917FM-15+0014EINN V0203601N00361999991CY0099001N1+00101-00201999999ADDMA1100811999999REMMET012CAVOK NOSIG?EQDQ01+000000PRSWM2
0139039620999991979010409004+52683-008917SY-MT+0014EINN V0203601N00301018001CN0099001N1+00101-00201100751ADDAY121999GA1071+018009059GF107991071051017501999999MA1100811999999MD1210221+9999MW1011REMSYN00587656MET012CAVOK NOSIG?EQDQ01+000000PRSWM2
0058039620999991979010409304+52683-008917FM-15+0014EINN V0203401N00201999991CY0099001N1+00101-00201999999ADDMA1100911999999REMMET012CAVOK NOSIG?EQDQ01+000000PRSWM2
0058039620999991979010410004+52683-008917FM-15+0014EINN V0200101N00361999991CY0099001N1+00101-00301999999ADDMA1100911999999REMMET012CAVOK NOSIG?EQDQ01+000000PRSWM2
0058039620999991979010410304+52683-008917FM-15+0014EINN V0200101N00361999991CY0099001N1+00101-00301999999ADDMA1101021999999REMMET012CAVOK NOSIG?EQDQ01+000000PRSWM2
0161039620999991979010411004+52683-008917SY-MT+0014EINN V0200201N00411030001CN0099001N1+00201-00301101001ADDAY121999GA1041+015009059GA2051+030009039GF107991041051017501031999MA1101021999999MD1210361+9999MW1011REMSYN01184650 85360MET012CAVOK NOSIG?EQDQ01+000000PRSWM2
0058039620999991979010411304+52683-008917FM-15+0014EINN V0200101N00461999991CY0099001N1+00101-00201999999ADDMA1101081999999REMMET012CAVOK NOSIG?EQDQ01+000000PRSWM2
0167039620999991979010412004+52683-008917SY-MT+0014EINN V0200101N00361075001CN0099001N1+00201-00201101151ADDAA106000091AA299999929AY121999GA1021+015009059GF105991021051017501031021MA1101081999999MD1210261+9999MW1011REMSYN011797// 82650MET012CAVOK NOSIG?EQDQ01+000000PRSWM2
0058039620999991979010412304+52683-008917FM-15+0014EINN V0200101N00511999991CY0099001N1+00301-00201999999ADDMA1101081999999REMMET012CAVOK NOSIG?EQDQ01+000000PRSWM2
0058039620999991979010413004+52683-008917FM-15+0014EINN V0200101N00511999991CY0099001N1+00301-00101999999ADDMA1101191999999REMMET012CAVOK NOSIG?EQDQ01+000000PRSWM2
0058039620999991979010413304+52683-008917FM-15+0014EINN V0200101N00411999991CY0099001N1+00401+00001999999ADDMA1101191999999REMMET012CAVOK NOSIG?EQDQ01+000000PRSWM2
0161039620999991979010414004+52683-008917SY-MT+0014EINN V0203601N00361030001CN0099001N1+00301+00001101211ADDAY121999GA1011+018009059GA2041+075009009GF106991011051017501031021MA1101191999999MD1210211+9999MW1031REMSYN01181656 84075MET012CAVOK NOSIG?EQDQ01+000000PRSWM2
0058039620999991979010414304+52683-008917FM-15+0014EINN V0203601N00251999991CY0099001N1+00301+00001999999ADDMA1101291999999REMMET012CAVOK NOSIG?EQDQ01+000000PRSWM2
0183039620999991979010415004+52683-008917SY-MT+0014EINN V0200101N00301075001CN0099001N1+00301+00001101281ADDAY121999GA1011+018009059GA2031+036009039GA3051+075009009GF106991011051017501031021MA1101291999999MD1210191+9999MW1031REMSYN01781656 83362 85075MET012CAVOK NOSIG?EQDQ01+000000PRSWM2
0058039620999991979010415304+52683-008917FM-15+0014EINN V0200101N00301999991CY0099001N1+00301+00001999999ADDMA1101291999999REMMET012CAVOK NOSIG?EQDQ01+000000PRSWM2
0058039620999991979010416004+52683-008917FM-15+0014EINN V0200101N00361999991CY0099001N1+00201-00201999999ADDMA1101391999999REMMET012CAVOK NOSIG?EQDQ01+000000PRSWM2
0058039620999991979010416304+52683-008917FM-15+0014EINN V0200101N00251999991CY0099001N1+00201-00101999999ADDMA1101391999999REMMET012CAVOK NOSIG?EQDQ01+000000PRSWM2
0143039620999991979010417004+52683-008917SY-MT+0014EINN V0200101N00361220001CN0150001N1+00201-00101101421ADDAY121999GF104991011051017501031021MA1101491999999MD1210211+9999MW1011WG199190999999REMSYN01181656 84075MET012CAVOK NOSIG?EQDQ01+000000PRSWM2
0058039620999991979010417304+52683-008917FM-15+0014EINN V0203601N00301999991CY0099001N1+00101-00101999999ADDMA1101491999999REMMET012CAVOK NOSIG?EQDQ01+000000PRSWM2
0123039620999991979010418004+52683-008917SY-MT+0014EINN V0203501N00311220001CN0150001N1+00101-00101101521ADDAY111999GF101991011051017501001021MA1101591999999MD1210241+9999MW1011REMSYN00581656MET012CAVOK NOSIG?EQDQ01+000000PRSWM2
0058039620999991979010418304+52683-008917FM-15+0014EINN V0200101N00201999991CY0099001N1+00001-00101999999ADDMA1101591999999REMMET012CAVOK NOSIG?EQDQ01+000000PRSWM2
0058039620999991979010419004+52683-008917FM-15+0014EINN V0200201N00151999991CY0099001N1+00001-00201999999ADDMA1101591999999REMMET012CAVOK NOSIG?EQDQ01+000000PRSWM2
0058039620999991979010419304+52683-008917FM-15+0014EINN V0200201N00201999991CY0099001N1+00001-00201999999ADDMA1101691999999REMMET012CAVOK NOSIG?EQDQ01+000000PRSWM2
0129039620999991979010420004+52683-008917SY-MT+0014EINN V0200201N00151220001CN0150001N1+00001-00201101681ADDAY101999GF101991011051017501001021MA1101801999999MD1110261+9999MW1021REMSYN01181656 92000MET012CAVOK NOSIG?EQDQ01+000000PRSWM2
0058039620999991979010420304+52683-008917FM-15+0014EINN V0203601N00251999991CY0099001N1-00101-00201999999ADDMA1101801999999REMMET012CAVOK NOSIG?EQDQ01+000000PRSWM2
0183039620999991979010421004+52683-008917SY-MT+0014EINN V0200101N00411220001CN0099001N1-00201-00301101891ADDAY101999GF100991001001999999001001MA1101801999999MD1310251+9999MW1011REMSYN00592001MET072CAVOK NOSIG? 0113      ?     METAR HSSS 2100 3-?3 : 9( 22/04 1014 NOSIG?EQDQ01+000000PRSWM2
0058039620999991979010421304+52683-008917FM-15+0014EINN V0200101N00411999991CY0099001N1-00101-00301999999ADDMA1101901999999REMMET012CAVOK NOSIG?EQDQ01+000000PRSWM2
0058039620999991979010422004+52683-008917FM-15+0014EINN V0203501N00361999991CY0099001N1-00101-00301999999ADDMA1101901999999REMMET012CAVOK NOSIG?EQDQ01+000000PRSWM2
0058039620999991979010422304+52683-008917FM-15+0014EINN V0203501N00361999991CY0099001N1-00101-00301999999ADDMA1102001999999REMMET012CAVOK NOSIG?EQDQ01+000000PRSWM2
0123039620999991979010423004+52683-008917SY-MT+0014EINN V0203501N00361220001CN0099001N1-00101-00301102001ADDAY101999GF100991001001999999001001MA1102001999999MD1210321+9999MW1021REMSYN00592001MET012CAVOK NOSIG?EQDQ01+000000PRSWM2
0058039620999991979010423304+52683-008917FM-15+0014EINN V0203601N00301999991CY0099001N1-00101-00301999999ADDMA1102101999999REMMET012CAVOK NOSIG?EQDQ01+000000PRSWM2
0151039620999991979010500004+52683-008917SY-MT+0014EINN V0203401N00301220001CN0099001N1-00101-00301102161ADDAA106000091AA299999929AY101999GF100991001001999999001001MA1102101999999MD1210271+9999MW1021REMSYN011797// 92011MET012CAVOK NOSIG?EQDQ01+000000PRSWM2
0059039620999991979010500304+52683-008917FM-15+0014EINN V0203501N00411999991CY0099001N1-00101-00301999999ADDMA1102201999999REMMET013CAVOK NOSIG??EQDQ01+000000PRSWM2
0123039620999991979010501004+52683-008917SY-MT+0014EINN V0203601N00411220001CN0099001N1-00101-00301102251ADDAY101999GF100991001001999999001001MA1102201999999MD1210251+9999MW1101REMSYN00592011MET012CAVOK NOSIG?EQDQ01+000000PRSWM2
0058039620999991979010501304+52683-008917FM-15+0014EINN V0203601N00461999991CY0099001N1-00101-00301999999ADDMA1102201999999REMMET012CAVOK NOSIG?EQDQ01+000000PRSWM2
0058039620999991979010502004+52683-008917FM-15+0014EINN V0203601N00461999991CY0099001N1-00101-00301999999ADDMA1102201999999REMMET012CAVOK NOSIG?EQDQ01+000000PRSWM2
0058039620999991979010502304+52683-008917FM-15+0014EINN V0200101N00361999991CY0099001N1-00101-00301999999ADDMA1102301999999REMMET012CAVOK NOSIG?EQDQ01+000000PRSWM2
0098039620999991979010503004+52683-008917SY-MT+0014EINN V0200301N00461220001CN0090001N1-00101-00301102381ADDAY101999GF100991001001999999001001MA1102301999999MD1210221+9999MW1101REMSYN00592011MET006NOSIG?
0039039620999991979010503304+52683-008917FM-15+0014EINN V0200201N00411220001CN0090001N1-00101-00301999999ADDMA1102401999999MW1101REMMET006NOSIG?
0117039620999991979010504004+52683-008917SY-MT+0014EINN V0200101N00301220001CN0090001N1-00201-00301102451ADDAY101999GF100991001001999999001001MA1102401999999MD1210201+9999MW1101REMSYN00592011MET006NOSIG?EQDQ01+000000PRSWM2
0039039620999991979010504304+52683-008917FM-15+0014EINN V0203601N00151220001CN0080001N1-00201-00401999999ADDMA1102401999999MW1101REMMET006NOSIG?
0098039620999991979010505004+52683-008917SY-MT+0014EINN V0203401N00201220001CN0090001N1-00201-00301102501ADDAY101999GF100991001001999999001001MA1102401999999MD1210221+9999MW1101REMSYN00592012MET006NOSIG?
0039039620999991979010505304+52683-008917FM-15+0014EINN V0203501N00361220001CN0090001N1-00301-00301999999ADDMA1102511999999MW1101REMMET006NOSIG?
0169039620999991979010506004+52683-008917SY-MT+0014EINN V0200101N00301220001CN0090001N1-00301-00401102581ADDAA199999929AJ100009199999999AY101999GF100991001001999999001001IA1139IA2999-00809KA1999N-00301MA1102511999999MD1210191+9999MW1101REMSYN01725830 79753 92012MET006NOSIG?
0039039620999991979010506304+52683-008917FM-15+0014EINN V0200101N00251220001CN0090001N1-00301-00401999999ADDMA1102611999999MW1101REMMET006NOSIG?
0098039620999991979010507004+52683-008917SY-MT+0014EINN V0200201N00251220001CN0090001N1-00301-00401102601ADDAY101999GF100991001001999999001001MA1102511999999MD1010141+9999MW1101REMSYN00592012MET006NOSIG?
0039039620999991979010507304+52683-008917FM-15+0014EINN V0203601N00151220001CN0090001N1-00301-00401999999ADDMA1102511999999MW1101REMMET006NOSIG?
0161039620999991979010508004+52683-008917SY-MT+0014EINN V0209991C00001090001CN0099001N1-00301-00401102631ADDAY111999GA1021+036009039GA2051+090009009GF106991021001999999031021MA1102611999999MD1210121+9999MW1031REMSYN01182362 85080MET012CAVOK NOSIG?EQDQ01+000000PRSWM2
0058039620999991979010508304+52683-008917FM-15+0014EINN V0203501N00151999991CY0099001N1-00301-00401999999ADDMA1102611999999REMMET012CAVOK NOSIG?EQDQ01+000000PRSWM2
0147039620999991979010509004+52683-008917SY-MT+0014EINN V0209991C00001090001CN0060001N1-00301-00401102631ADDAY111999GA1011+036009039GA2051+090009009GF106991021001999999031021MA1102611999999MD1210121+9999MW1101REMSYN01782362 85080 92012MET011GRADU 9999?
0060039620999991979010509304+52683-008917FM-15+0014EINN V0203401N00151220001CN0050001N1-00401-00501999999ADDGA1011+036009039MA1102711999999MW1101REMMET011GRADU 9999?
0058039620999991979010510004+52683-008917FM-15+0014EINN V0203501N00201999991CY0099001N1-00301-00501999999ADDMA1102711999999REMMET012CAVOK NOSIG?EQDQ01+000000PRSWM2
0058039620999991979010510304+52683-008917FM-15+0014EINN V0203601N00201999991CY0099001N1-00201-00201999999ADDMA1102711999999REMMET012CAVOK NOSIG?EQDQ01+000000PRSWM2
0167039620999991979010511004+52683-008917SY-MT+0014EINN V0203601N00151075001CN0099001N1-00101-00201102721ADDAY111999GA1021+036009039GA2051+075009009GF106991021001999999031021MA1102711999999MD1310121+9999MW1101REMSYN01782362 85075 92012MET012CAVOK NOSIG?EQDQ01+000000PRSWM2
0055039620999991979010511304+52683-008917FM-15+0014EINN V0203501N00151220001CN0080001N1-00101-00301999999ADDGA1031+075009009MA1102711999999MW1101REMMET006NOSIG?
0167039620999991979010512004+52683-008917SY-MT+0014EINN V0203601N00151075001CN0099001N1+00101-00401102721ADDAA106000091AA299999929AY111999GA1051+075009009GF105991001001999999001021MA1102711999999MD1010081+9999MW1101REMSYN011797// 85075MET012CAVOK NOSIG?EQDQ01+000000PRSWM2
0058039620999991979010512304+52683-008917FM-15+0014EINN V0203601N00101999991CY0099001N1+00101-00301999999ADDMA1102611999999REMMET012CAVOK NOSIG?EQDQ01+000000PRSWM2
0071039620999991979010513004+52683-008917FM-15+0014EINN V0209991C00001075001CN0080001N1+00101-00301999999ADDGA1011+001209079GA2051+075009009MA1102611999999MW1101REMMET006NOSIG?
0071039620999991979010513304+52683-008917FM-15+0014EINN V0209991C00001075001CN0080001N1+00201-00301999999ADDGA1011+001209079GA2051+075009009MA1102611999999MW1101REMMET006NOSIG?
0155039620999991979010514004+52683-008917SY-MT+0014EINN V0209991C00001075001CN0080001N1+00101-00201102651ADDAY121999GA1071+075009029GA2051+075009009GF199999011061001501001021MA1102611999999MD1810061+9999MW1101REMSYN01181704 85075MET006NOSIG?EQDQ01+000052SCOTCV
0071039620999991979010514304+52683-008917FM-15+0014EINN V0209991C00001042001CN0070001N1+00101-00201999999ADDGA1011+030009039GA2071+042009049MA1102511999999MW1101REMMET006NOSIG?
0187039620999991979010515004+52683-008917SY-MT+0014EINN V0209991C00001042001CN0070001N1+00101-00201102631ADDAY121999GA1031+030009039GA2081+042009049GF199999999001999999999061MA1102511999999MD1610121+9999MW1101REMSYN01187275 94720MET006NOSIG?EQDQ01+000072SCOTCVQ02+000002SCOTLCQ03+000002SCOMCG
0071039620999991979010515304+52683-008917FM-15+0014EINN V0209991C00001036001CN0070001N1+00101-00201999999ADDGA1021+030009039GA2081+036009049MA1102511999999MW1101REMMET006NOSIG?
0055039620999991979010516004+52683-008917FM-15+0014EINN V0209991C00001030001CN0070001N1+00101-00201999999ADDGA1081+030009049MA1102511999999MW1101REMMET006NOSIG?
0087039620999991979010516304+52683-008917FM-15+0014EINN V0209991C00001030001CN0070001N1+00101-00201999999ADDGA1021+024009039GA2041+030009039GA3071+060009029MA1102511999999MW1101REMMET006NOSIG?
0165039620999991979010517004+52683-008917SY-MT+0014EINN V0209991C00001027001CN0060001N1+00101-00201102591ADDAY121999GA1041+013509059GA2071+027009049GF108991081999999999021999MA1102511999999MD1610061+9999MW1101REMSYN00588460MET006NOSIG?EQDQ01+000002SCOLCGQ02+000992SCOLCB
0071039620999991979010517304+52683-008917FM-15+0014EINN V0209991C00001015001CN0050001N1+00101-00201999999ADDGA1051+015009059GA2081+027009049MA1102511999999MW1101REMMET006NOSIG?
0178039620999991979010518004+52683-008917SY-MT+0014EINN V0209991C00001015001CN0060001N1+00101-00201102591ADDAA199999929AY121999GA1061+015009059GA2081+027009049GF108991061051017501071999KA1999M+00201MA1102511999999MD1510001+9999MW1101REMSYN02979702 86650 88459 92000 94026MET006NOSIG?
0071039620999991979010518304+52683-008917FM-15+0014EINN V0201701N00101015001CN0060001N1+00101-00201999999ADDGA1061+015009059GA2081+027009049MA1102511999999MW1101REMMET006NOSIG?
0142039620999991979010519004+52683-008917SY-MT+0014EINN V0201601N00101015001CN0060001N1+00101-00201102571ADDAY121999GA1061+015009059GA2071+027009049GF107991061051017501071999MA1102511999999MD1710021+9999MW1101REMSYN01786650 87459 92000MET006NOSIG?
0071039620999991979010519304+52683-008917FM-15+0014EINN V0201401N00151015001CN0060001N1+00101-00201999999ADDGA1051+015009059GA2071+027009049MA1102511999999MW1101REMMET006NOSIG?
0055039620999991979010520004+52683-008917FM-15+0014EINN V0201501N00201018001CN0060001N1+00101-00201999999ADDGA1071+018009059MA1102511999999MW1101REMMET006NOSIG?
0055039620999991979010520304+52683-008917FM-15+0014EINN V0201401N00101018001CN0070001N1+00101-00201999999ADDGA1071+018009059MA1102511999999MW1101REMMET006NOSIG?
0136039620999991979010521004+52683-008917SY-MT+0014EINN V0201501N00211015001CN0060001N1+00101-00201102531ADDAY121999GA1061+015009059GA2061+027009049GF107991071051017501999999MA1102511999999MD1810041+9999MW1101REMSYN01187656 92000MET006NOSIG?
0058039620999991979010521304+52683-008917FM-15+0014EINN V0201701N00151999991CY0099001N1+00101-00201999999ADDMA1102401999999REMMET012CAVOK NOSIG?EQDQ01+000000PRSWM2
0139039620999991979010522004+52683-008917SY-MT+0014EINN V0201601N00151008101CN0112001N1+00201-00301102491ADDAY121999GA1081+008109059GF108991081051008001999999MA1102401999999MD1710081+9999MW1031REMSYN01188627 92000MET006NOSIG?EQDQ01+000000PRSWM2
0055039620999991979010522304+52683-008917FM-15+0014EINN V0201901N00151007501CN0112001N1+00201+00101999999ADDGA1081+007509059MA1102401999999MW1501REMMET006NOSIG?
0114039620999991979010523004+52683-008917SY-MT+0014EINN V0201901N00201006301CN0112001N1+00301-00401102471ADDAY151999GA1081+006309059GF108991081051008001999999MA1102401999999MD1710061+9999MW1201REMSYN00588621MET006NOSIG?
0055039620999991979010523304+52683-008917FM-15+0014EINN V0202101N00301005701CN0112001N1+00301-00301999999ADDGA1081+005709079MA1102401999999MW1201REMMET006NOSIG?
0151039620999991979010600004+52683-008917FM-12+0014EINN V0202001N00361005401CN0200001N9+00301-00301102421ADDAA106000091AA299999929AY191999GA1061+005409079GA2081+009009059GF108991081061004501999999MD1710101+9999MW1021WG199990299999REMSYN017797// 86718 88630
0084039620999991979010600304+52683-008917FM-15+0014EINN V0201901N00301004201CN0112001N1+00301-00201999999ADDGA1061+004209079GA2081+009009059MA1102301999999REMMET006NOSIG?EQDQ01+000000PRSWM2
0155039620999991979010601004+52683-008917SY-MT+0014EINN V0202001N00301004201CN0112001N1+00301-00201102361ADDAY121999GA1061+004209079GA2081+009009059GF108991081061004501999999MA1102301999999MD1710161+9999MW1021REMSYN01184614 88630MET006NOSIG?EQDQ01+000000PRSWM2
0084039620999991979010601304+52683-008917FM-15+0014EINN V0201901N00251004201CN0112001N1+00401-00201999999ADDGA1061+004209079GA2081+009009059MA1102301999999REMMET006NOSIG?EQDQ01+000000PRSWM2
0068039620999991979010602004+52683-008917FM-15+0014EINN V0201501N00251004201CN0112001N1+00401-00101999999ADDGA1081+004209079MA1102301999999REMMET006NOSIG?EQDQ01+000000PRSWM2
0084039620999991979010602304+52683-008917FM-15+0014EINN V0201501N00251004201CN0112001N1+00301-00101999999ADDGA1061+004209079GA2081+007509059MA1102301999999REMMET006NOSIG?EQDQ01+000000PRSWM2
0149039620999991979010603004+52683-008917SY-MT+0014EINN V0201501N00261004501CN0200001N1+00401-00101102341ADDAY121999GA1061+004509079GA2081+007509059GF108991081061004501999999MA1102301999999MD1710131+9999MW1021REMSYN00588714MET006NOSIG?EQDQ01+000000PRSWM2
0068039620999991979010603304+52683-008917FM-15+0014EINN V0202201N00361004501CN0112001N1+00401+00201999999ADDGA1081+004509079MA1102301999999REMMET006NOSIG?EQDQ01+000000PRSWM2
0082039620999991979010604004+52683-008917FM-15+0014EINN V0202201N00301004501CN0112001N1+00501+00301999999ADDGA1031+003309079GA2081+004509079MA1102301999999MW1501REMMET017GRADU 8000 6ST007
0081039620999991979010604304+52683-008917FM-15+0014EINN V0202201N00361004501CN0112001N1+00501+00401999999ADDGA1041+002409079GA2081+004509079MA1102201999999MW1501REMMET016GRADU 80006ST007
0255039620999991979010605004+52683-008917SY-MT+0014EINN V0202201N00301003001CN0112001N1+00501+00501102311ADDAY151999GA1031+001209079GA2071+003009079GF108991081061004501999999MA1102201999999MD1710051+9999MW1211MW2501REMSYN01183711 88715MET119INTER 5000 5ST004      ?     7ST007? 0113      ?     METAR GOOO 0500 35008,8000 1CHKC          ?     APAXQT QPPO NOSIG?
0076039620999991979010605304+52683-008917FM-15+0014EINN V0202101N00251001201CN0112001N1+00501+00501999999ADDGA1061+001209079GA2071+002109079MA1102201999999MW1211REMMET011INTER 5000?
0240039620999991979010606004+52683-008917SY-MT+0014EINN V0202101N00251002101CN0112001N1+00501+00501102301ADDAA199000591AJ100009199999999AY161999GA1041+001209079GA2071+002109079GF108991081061001501999999IA1089IA2999-00109KA1999N+00001MA1102201999999MD1610031+9999MW1021REMSYN02325110 79500 84704 87707MET020GRADU 3ST007 5ST010?EQDQ01+000000PRSWM2
0091039620999991979010606304+52683-008917FM-15+0014EINN V0202201N00251220001CN0112001N1+00501+00401999999ADDGA1011+001509079GA2031+002409079MA1102201999999REMMET013GRADU 4ST015?EQDQ01+000000PRSWM2
0169039620999991979010607004+52683-008917SY-MT+0014EINN V0202201N00251001201CN0112001N1+00401+00401102301ADDAY121999GA1021+000609079GA2041+001209079GF106991061061000751999999MA1102201999999MD1510011+9999MW1011REMSYN01182702 84704MET020GRADU 2ST008 5ST012?EQDQ01+000000PRSWM2
0124039620999991979010607304+52683-008917FM-15+0014EINN V0202401N00251001501CN0112001N1+00401+00401999999ADDGA1021+000909079GA2041+001509079GA3051+010509059MA1102301999999REMMET030GRADU 2ST005     ?     5ST012?EQDQ01+000000PRSWM2
0215039620999991979010608004+52683-008917SY-MT+0014EINN V0202401N00251000601CN0008001N1+00401+00401102331ADDAY141999GA1021+000309079GA2051+000609079GA3051+010509059GF107991071061000251999999MA1102301999999MD1310051+9999MW1461WG199010299999REMSYN02982701 85702 85635 97360 97460MET037GRADU 9999       ?     2ST004 5ST008?
0122039620999991979010608304+52683-008917FM-15+0014EINN V0202401N00101010501CN0004001N1+00401+00401999999ADDGA1011+000309079GA2031+000609079GA3051+010509059MA1102301999999MW1461REMMET0412500 TO NW       ?     GRADU 3000 6ST003?
0217039620999991979010609004+52683-008917SY-MT+0014EINN V0202401N00101030001CN0009001N1+00401+00401102371ADDAY141999GA1011+000609079GA2031+010509059GA3071+030009039GF107991031051000751071999MA1102301999999MD1310071+9999MW1421REMSYN03581702 83635 87360 97262 97362 97462MET04710KM TO SW SE          ?     AND NW GRADU 10KM?
0124039620999991979010609304+52683-008917FM-15+0014EINN V0202301N00251030001CN0030001N1+00501+00401999999ADDGA1011+001209079GA2031+010509059GA3071+030009039MA1102301999999MW1101REMMET04310KM TO          ?     SE SW NW GRADU 9999?
0123039620999991979010610304+52683-008917FM-15+0014EINN V0202201N00201030001CN0080001N1+00601+00601999999ADDGA1011+001509079GA2041+010509059GA3071+030009049MA1102401999999MW1101REMMET04210KMS TO         ?     SE SW AND NW NOSIG?
0182039620999991979010611004+52683-008917SY-MT+0014EINN V0202201N00201030001CN0112001N1+00601+00601102421ADDAY141999GA1011+002109079GA2041+010509059GA3071+030009049GF107991041051001501071999MA1102401999999MD1210121+9999MW1101MW2281REMSYN03581704 83635 87360 97265 97365 97465MET006NOSIG?
0087039620999991979010611304+52683-008917FM-15+0014EINN V0202301N00201030001CN0112001N1+00601+00601999999ADDGA1011+002409079GA2041+012009059GA3071+030009049MA1102401999999MW1101REMMET006NOSIG?
0158039620999991979010612004+52683-008917SY-MT+0014EINN V0202201N00211030001CN0120001N1+00601+00601102451ADDAY121999GA1011+003009079GA2041+012009059GA3071+030009049GF107991041051002501071999MA1102401999999MD1210121+9999MW1101REMSYN01781707 84635 87460MET006NOSIG?
0087039620999991979010612304+52683-008917FM-15+0014EINN V0202401N00361009001CN0112001N1+00701+00601999999ADDGA1021+003009079GA2051+009009059GA3081+030009049MA1102301999999MW1601REMMET006NOSIG?
0131039620999991979010613004+52683-008917FM-12+0014EINN V0202401N00361007501CN0150001N9+00701+00601102341ADDAY161999GA1021+003609079GA2051+007509059GA3081+030009049GF108991061051004501071999MD1810081+9999MW1601REMSYN01782712 85625 88460
0087039620999991979010613304+52683-008917FM-15+0014EINN V0202301N00361003601CN0080001N1+00701+00701999999ADDGA1021+002409079GA2051+003609079GA3071+007509059MA1102301999999MW1581REMMET006NOSIG?
0175039620999991979010614004+52683-008917SY-MT+0014EINN V0202301N00301002401CN0070001N1+00801+00701102341ADDAY161999GA1061+002409079GA2081+003309079GA3081+030009049GF108991061051004501071999MA1102201999999MD1810081+9999MW1501MW2601REMSYN01782712 85625 88460MET017TEMPO 9000 6SC020
0081039620999991979010614304+52683-008917FM-15+0014EINN V0202301N00411001801CN0070001N1+00801+00701999999ADDGA1051+001809079GA2081+002709079MA1102201999999MW1511REMMET016TEMPO 90005ST012
0166039620999991979010615004+52683-008917SY-MT+0014EINN V0202201N00361001801CN0035001N1+00801+00801102241ADDAY161999GA1031+001209079GA2081+001809079GF108991081071001501999999MA1102201999999MD1710151+9999MW1511REMSYN01183704 88706MET036TEMPO 9000 4ST010      ?     8SC020?
0060039620999991979010615304+52683-008917FM-15+0014EINN V0202201N00411001801CN0112001N1+00801+00801999999ADDGA1081+001809079MA1102201999999MW1581REMMET011TEMPO 8000?
0076039620999991979010616004+52683-008917FM-15+0014EINN V0202101N00361001801CN0112001N1+00801+00801999999ADDGA1061+001809079GA2081+002709079MA1102201999999MW1581REMMET011TEMPO 6000?
0076039620999991979010616304+52683-008917FM-15+0014EINN V0201901N00301001801CN0112001N1+00801+00801999999ADDGA1061+001809079GA2081+002709079MA1102201999999MW1511REMMET011TEMPO 6000?
0148039620999991979010617004+52683-008917SY-MT+0014EINN V0201901N00301001801CN0035001N1+00801+00801102231ADDAY161999GA1081+001809079GA2081+002709079GF108991081071002501999999MA1102201999999MD1610101+9999MW1581REMSYN01186706 88709MET018TEMPO 9000 6SC020?
0081039620999991979010617304+52683-008917FM-15+0014EINN V0201901N00251002401CN0050001N1+00801+00701999999ADDGA1031+001509079GA2081+002409079MA1102201999999MW1581REMMET016TEMPO 90007SC020
0161039620999991979010618004+52683-008917FM-12+0014EINN V0202001N00261002401CN0090001N9+00801+00801102211ADDAA199000591AY161999GA1031+001509079GA2061+002409079GA3081+004509079GF108991081061001501999999KA1999M+00901MD1610031+9999MW1581REMSYN02379509 83705 86708 88715
0131039620999991979010620004+52683-008917FM-12+0014EINN V0202201N00311007501CN0200001N9+00801+00801102211ADDAY151999GA1011+002709079GA2031+003609079GA3081+007509059GF108991081051002501999999MD1610021+9999MW1211REMSYN01781709 83712 88625
0109039620999991979010621004+52683-008917FM-12+0014EINN V0202201N00261003901CN0400001N9+00801+00701102201ADDAY151999GA1061+003909079GA2071+007509059GF107991071061004501999999MD1710031+9999MW1211REMSYN01186713 87625
0143039620999991979010623004+52683-008917FM-12+0014EINN V0202501N00511003601CN0008001N9+00701+00701102171ADDAY141999GA1021+000909079GA2031+003609079GA3061+013509059GF107991071061001501999999MD1810051+9999MW1461REMSYN02982703 83712 86645 97120 97220
0145039620999991979010700004+52683-008917FM-12+0014EINN V0202401N00571003001CN0110001N9+00801+00801102131ADDAA106001091AY141999GA1031+002109079GA2071+003009079GF108991081071002501999999MD1710081+9999MW1601REMSYN017701// 83707 87710EQDQ01  00103PRCP99
0109039620999991979010701004+52683-008917FM-12+0014EINN V0202401N00571003001CN0030001N9+00901+00801102131ADDAY161999GA1031+002109079GA2071+003009079GF108991081071002501999999MD1610031+9999MW1581REMSYN01183707 87710
0131039620999991979010703004+52683-008917FM-12+0014EINN V0202401N00511002701CN0028001N9+00801+00801102091ADDAY161999GA1031+001809079GA2051+002709079GA3071+003309079GF108991081071002501999999MD1810061+9999MW1581REMSYN01783706 85709 87711
0131039620999991979010704004+52683-008917FM-12+0014EINN V0202501N00671001501CN0120001N9+00901+00901102031ADDAY151999GA1031+000909079GA2041+001509079GA3081+002409079GF108991081071001501999999MD1710101+9999MW1201REMSYN01783703 84705 88708
0109039620999991979010705004+52683-008917FM-12+0014EINN V0202501N00621002401CN0120001N9+00801+00801102001ADDAY161999GA1031+001509079GA2081+002409079GF108991081071001501999999MD1710091+9999MW1581REMSYN01183705 88708
0202039620999991979010706004+52683-008917FM-12+0014EINN V0202401N00621002101CN0045001N9+00901+00801102011ADDAA199003091AJ100009199999999AY161999GA1021+001209079GA2051+002109079GA3081+003009079GF108991081071001501999999IA1089IA2999+00609KA1999N+00601MD1510071+9999MW1511REMSYN02920610 70306 82704 85707 88710
0109039620999991979010708004+52683-008917FM-12+0014EINN V0202501N00571002401CN0050001N9+00901+00801102011ADDAY161999GA1031+001509079GA2081+002409079GF108991081071001501999999MD1610021+9999MW1581REMSYN01183705 88708
0109039620999991979010709004+52683-008917FM-12+0014EINN V0202801N00571002101CN0040001N9+00901+00901102121ADDAY161999GA1031+001209079GA2081+002109079GF108991081071001501999999MD1310111+9999MW1581REMSYN01183704 88707
0145039620999991979010711004+52683-008917FM-12+0014EINN V0203001N00411004801CN0150001N9+00901+00801102171ADDAY151999GA1031+003309079GA2061+004809079GA3081+007509059GF108991081061004501999999MD1310161+9999MW1211WG199010199999REMSYN01783711 86716 88625
0145039620999991979010712004+52683-008917FM-12+0014EINN V0203001N00411004801CN0150001N9+00901+00801102171ADDAY151999GA1031+003309079GA2061+004809079GA3081+007509059GF108991081061004501999999MD1310161+9999MW1211WG199010199999REMSYN01783711 86716 88625
0110039620999991979010712304+52683-008917FM-15+0014EINN V0202301N00301003601CN0050001N1+00701+00601999999ADDGA1031+002709079GA2051+003609079GA3081+004509079MA1102201999999MW1501REMMET029GRADU      ?     9999 6CU015?
0111039620999991979010713004+52683-008917FM-15+0014EINN V0202401N00301002701CN0050001N1+00701+00601999999ADDGA1021+001809079GA2051+002709079GA3081+004509079MA1102201999999MW1501REMMET030GRADU 9999       ?     6CU015?
0087039620999991979010713304+52683-008917FM-15+0014EINN V0202801N00301012001CN0112001N1+00801+00701999999ADDGA1031+003009079GA2051+012009059GA3081+027009049MA1102201999999MW1201REMMET006NOSIG?
0164039620999991979010714004+52683-008917SY-MT+0014EINN V0202701N00251003001CN0112001N1+00801+00701102241ADDAY151999GA1021+001809079GA2041+003009079GA3081+009009059GF108991081061002501999999MA1102101999999MD1110071+9999MW1201MW2501REMSYN01782706 85709 88715MET006NOSIG?
0071039620999991979010714304+52683-008917FM-15+0014EINN V0202801N00461005401CN0112001N1+00701+00601999999ADDGA1051+005409079GA2071+009009059MA1102201999999MW1601REMMET006NOSIG?
0164039620999991979010715004+52683-008917SY-MT+0014EINN V0202901N00301011101CN0112001N1+00801+00601102201ADDAY151999GA1041+005409079GA2071+011109059GA3081+009009059GF108991081061002501999999MA1102201999999MD1810011+9999MW1201MW2211REMSYN01782706 84710 88630MET006NOSIG?
0071039620999991979010715304+52683-008917FM-15+0014EINN V0202601N00251010501CN0112001N1+00701+00601999999ADDGA1021+005409079GA2071+010509059MA1102101999999MW1211REMMET006NOSIG?
0133039620999991979010716004+52683-008917SY-MT+0014EINN V0202901N00301012001CN0112001N1+00701+00601102251ADDAY121999GA1071+012009059GF107991071051012501999999MA1102201999999MD1510001+9999MW1011REMSYN00587640MET006NOSIG?EQDQ01+000000PRSWM2
0068039620999991979010716304+52683-008917FM-15+0014EINN V0202901N00251012001CN0112001N1+00701+00501999999ADDGA1051+012009059MA1102201999999REMMET006NOSIG?EQDQ01+000000PRSWM2
0068039620999991979010717004+52683-008917FM-15+0014EINN V0202901N00251012001CN0112001N1+00501+00401999999ADDGA1051+012009059MA1102201999999REMMET006NOSIG?EQDQ01+000000PRSWM2
0084039620999991979010717304+52683-008917FM-15+0014EINN V0202601N00251220001CN0112001N1+00501+00401999999ADDGA1011+007509059GA2041+012009059MA1102201999999REMMET006NOSIG?EQDQ01+000000PRSWM2
0163039620999991979010718004+52683-008917SY-MT+0014EINN V0202601N00201012001CN0112001N1+00401+00301102251ADDAY111999GA1011+007509059GA2031+012009059GF105991051051012501999999MA1102201999999MD1110041+9999MW1011WG199010199999REMSYN00585640MET006NOSIG?EQDQ01+000000PRSWM2
0087039620999991979010718304+52683-008917FM-15+0014EINN V0202801N00361012001CN0112001N1+00501+00301999999ADDGA1011+004509079GA2041+007509059GA3051+012009059MA1102201999999MW1801REMMET006NOSIG?
0158039620999991979010719004+52683-008917SY-MT+0014EINN V0202401N00301012001CN0112001N1+00501+00401102301ADDAY181999GA1011+004509079GA2031+007509059GA3061+012009059GF107991071051004501999999MA1102201999999MD1310051+9999MW1251REMSYN01781715 83625 86640MET006NOSIG?
0087039620999991979010719304+52683-008917FM-15+0014EINN V0202101N00301010501CN0112001N1+00501+00301999999ADDGA1011+004509079GA2031+007509059GA3051+010509059MA1102201999999MW1251REMMET006NOSIG?
0084039620999991979010720004+52683-008917FM-15+0014EINN V0202101N00251012001CN0112001N1+00501+00301999999ADDGA1031+007509059GA2051+012009059MA1102201999999REMMET006NOSIG?EQDQ01+000000PRSWM2
0084039620999991979010720304+52683-008917FM-15+0014EINN V0202201N00251012001CN0112001N1+00501+00301999999ADDGA1031+007509059GA2071+012009059MA1102201999999REMMET006NOSIG?EQDQ01+000000PRSWM2
0155039620999991979010721004+52683-008917SY-MT+0014EINN V0202101N00261012001CN0200001N1+00501+00301102271ADDAY121999GA1021+007509059GA2071+012009059GF107991071051008001999999MA1102201999999MD1010021+9999MW1011REMSYN01183625 85640MET006NOSIG?EQDQ01+000000PRSWM2
0084039620999991979010721304+52683-008917FM-15+0014EINN V0202101N00251015001CN0112001N1+00501+00301999999ADDGA1021+007509059GA2071+015009059MA1102201999999REMMET006NOSIG?EQDQ01+000000PRSWM2
0155039620999991979010722004+52683-008917SY-MT+0014EINN V0202201N00251012001CN0112001N1+00501+00301102201ADDAY121999GA1021+007509059GA2071+012009059GF107991071051008001999999MA1102101999999MD1710101+9999MW1011REMSYN01182625 87640MET006NOSIG?EQDQ01+000000PRSWM2
0071039620999991979010722304+52683-008917FM-15+0014EINN V0202601N00511012001CN0112001N1+00501+00401999999ADDGA1031+007509089GA2071+012009059MA1102201999999MW1251REMMET006NOSIG?
0136039620999991979010723004+52683-008917SY-MT+0014EINN V0202301N00301012001CN0112001N1+00501+00401102191ADDAY181999GA1031+007509089GA2081+012009059GF108991081081008001999999MA1102101999999MD1710081+9999MW1251REMSYN01183825 88640MET006NOSIG?
0084039620999991979010723304+52683-008917FM-15+0014EINN V0202101N00301012001CN0112001N1+00501+00301999999ADDGA1011+007509089GA2061+012009059MA1102101999999REMMET006NOSIG?EQDQ01+000000PRSWM2
0188039620999991979010800004+52683-008917SY-MT+0014EINN V0202101N00301012001CN0112001N1+00501+00301102141ADDAA106000391AY181999GA1031+007509089GA2061+012009059GF108991081081008001999999MA1102101999999MD1710111+9999MW1021REMSYN017793// 83825 86640MET006NOSIG?EQDQ01+000000PRSWM2Q02  00033PRCP99
0084039620999991979010800304+52683-008917FM-15+0014EINN V0202201N00361012001CN0112001N1+00501+00301999999ADDGA1021+007509089GA2071+012009059MA1102101999999REMMET006NOSIG?EQDQ01+000000PRSWM2
0169039620999991979010801004+52683-008917SY-MT+0014EINN V0202201N00301012001CN0112001N1+00501+00301102111ADDAY121999GA1021+007509089GA2051+012009059GF106991061081008001999999MA1102101999999MD1810091+9999MW1011WG199030399999REMSYN01182825 85640MET006NOSIG?EQDQ01+000000PRSWM2
0071039620999991979010801304+52683-008917FM-15+0014EINN V0202301N00361012001CN0112001N1+00501+00401999999ADDGA1031+007509089GA2071+012009059MA1102001999999MW1801REMMET006NOSIG?
0156039620999991979010802004+52683-008917SY-MT+0014EINN V0202101N00251012001CN0112001N1+00501+00301102111ADDAY121999GA1011+007509089GA2031+012009059GF106991061081008001999999MA1102001999999MD1810091+9999MW1011MW2251WG199030399999REMSYN01182825 85640MET006NOSIG?
0084039620999991979010802304+52683-008917FM-15+0014EINN V0202001N00251220001CN0112001N1+00501+00301999999ADDGA1011+007509089GA2031+012009059MA1102001999999REMMET006NOSIG?EQDQ01+000000PRSWM2
0155039620999991979010803004+52683-008917SY-MT+0014EINN V0202101N00301220001CN0112001N1+00501+00301102011ADDAY181999GA1011+007509089GA2031+012009059GF103991031081008001001001MA1102001999999MD1810131+9999MW1021REMSYN01181825 83640MET006NOSIG?EQDQ01+000000PRSWM2
0068039620999991979010803304+52683-008917FM-15+0014EINN V0201901N00301220001CN0112001N1+00501+00201999999ADDGA1031+012009059MA1101901999999REMMET006NOSIG?EQDQ01+000000PRSWM2
0068039620999991979010804004+52683-008917FM-15+0014EINN V0202001N00251220001CN0112001N1+00501+00201999999ADDGA1021+012009059MA1101901999999REMMET006NOSIG?EQDQ01+000000PRSWM2
0068039620999991979010804304+52683-008917FM-15+0014EINN V0202001N00301220001CN0112001N1+00501+00201999999ADDGA1011+012009059MA1101901999999REMMET006NOSIG?EQDQ01+000000PRSWM2
0181039620999991979010805004+52683-008917SY-MT+0014EINN V0201901N00361220001CN0112001N1+00501+00201101951ADDAY101999GA1011+012009059GA2031+027009039GF199999021081012501999001MA1101801999999MD1710161+9999MW1011REMSYN00582640MET006NOSIG?EQDQ01+000022SCOTCVQ02+000002SCOMCGQ03+000000PRSWM2
0084039620999991979010805304+52683-008917FM-15+0014EINN V0202001N00411027001CN0112001N1+00501+00101999999ADDGA1031+009009059GA2041+027009039MA1101801999999REMMET006NOSIG?EQDQ01+000000PRSWM2
0248039620999991979010806004+52683-008917SY-MT+0014EINN V0202001N00251015001CN0112001N1+00501+00201101851ADDAA199000391AJ100009199999999AY181999GA1021+009009059GA2041+015009059GA3051+027009049GF107991051051012501071999IA1089IA2999-00109KA1999N+00401MA1101801999999MD1610161+9999MW1031REMSYN02925110 79304 82630 84650 85459MET006NOSIG?EQDQ01+000000PRSWM2
0087039620999991979010806304+52683-008917FM-15+0014EINN V0202101N00411015001CN0112001N1+00401+00301999999ADDGA1021+009009059GA2041+015009059GA3061+027009049MA1101801999999MW1601REMMET006NOSIG?
0158039620999991979010807004+52683-008917SY-MT+0014EINN V0201801N00361013501CN0112001N1+00401+00301101791ADDAY161999GA1021+006009059GA2051+013509059GA3051+027009049GF107991061051008001071999MA1101691999999MD1710161+9999MW1601REMSYN01782620 85645 85459MET006NOSIG?
0071039620999991979010807304+52683-008917FM-15+0014EINN V0201901N00361013501CN0112001N1+00401+00301999999ADDGA1021+006009089GA2041+013509059MA1101691999999MW1211REMMET006NOSIG?
0158039620999991979010808004+52683-008917SY-MT+0014EINN V0202001N00361006301CN0112001N1+00401+00201101751ADDAY161999GA1021+005409079GA2041+006309089GA3051+010509059GF107991061081004501031999MA1101691999999MD1710131+9999MW1211REMSYN01782718 84821 85635MET006NOSIG?
0241039620999991979010809004+52683-008917SY-MT+0014EINN V0202401N00301006001CN0112001N1+00501+00301101801ADDAY181999GA1031+004809079GA2051+006009059GA3061+021009049GF108991061021004501021999MA1101691999999MD1510051+9999MW1621REMSYN01783716 85620 86557MET089TEMPO 8000?---         ?8:( 2      ?     3009 9999 60RA 3ST015 7SC035 06/04 GRADU 6ST010?
0092039620999991979010809304+52683-008917FM-15+0014EINN V0202801N00301006001CN0112001N1+00501+00401999999ADDGA1021+004809079GA2051+006009059GA3061+018009049MA1101691999999MW1601REMMET011TEMPO 8000?
0158039620999991979010810004+52683-008917SY-MT+0014EINN V0202801N00301006001CN0112001N1+00501+00401101791ADDAY161999GA1011+002409079GA2031+004509079GA3051+006009059GF107991071081002501999999MA1101691999999MD1010001+9999MW1611REMSYN01781708 83715 85620MET006NOSIG?
0087039620999991979010810304+52683-008917FM-15+0014EINN V0202301N00151060001CN0112001N1+00501+00401999999ADDGA1011+004509079GA2041+009009059GA3051+060009009MA1101691999999MW1211REMMET006NOSIG?
0158039620999991979010811004+52683-008917SY-MT+0014EINN V0201901N00251030001CN0112001N1+00601+00401101781ADDAY161999GA1011+004509079GA2031+007509059GA3051+030009039GF107991031081004501051021MA1101691999999MD1010031+9999MW1211REMSYN01781715 83625 85630MET006NOSIG?
0087039620999991979010811304+52683-008917FM-15+0014EINN V0202201N00361005101CN0112001N1+00601+00401999999ADDGA1021+003609079GA2031+005109089GA3061+009009059MA1101691999999MW1251REMMET006NOSIG?
0194039620999991979010812004+52683-008917SY-MT+0014EINN V0202201N00301009001CN0112001N1+00601+00401101751ADDAA106003091AY161999GA1011+003309079GA2031+004509079GA3051+009009059GF107991071081004501999999MA1101691999999MD1810051+9999MW1251REMSYN023703// 81711 83715 85630MET006NOSIG?EQDQ01  00303PRCP99
0087039620999991979010812304+52683-008917FM-15+0014EINN V0202501N00461009001CN0112001N1+00601+00401999999ADDGA1011+003309079GA2031+004509079GA3051+009009059MA1101691999999MW1251REMMET006NOSIG?
0087039620999991979010813004+52683-008917FM-15+0014EINN V0203101N00411060001CN0112001N1+00601+00401999999ADDGA1011+003609079GA2031+009009059GA3051+060009009MA1101691999999MW1251REMMET006NOSIG?
0100039620999991979010813304+52683-008917FM-15+0014EINN V0202901N00411060001CN0112001N1+00601+00401999999ADDGA1011+003609079GA2031+005109089GA3051+060009009MA1101591999999REMMET006NOSIG?EQDQ01+000000PRSWM2
0175039620999991979010814004+52683-008917SY-MT+0014EINN V0203101N00411060001CN0300001N1+00601+00401101721ADDAY181999GA1031+006009099GA2051+060009009GF107991041081004501001021MA1101591999999MD1810071+9999MW1251WG199350099999REMSYN01781712 83630 85070MET006NOSIG?EQDQ01+000000PRSWM2
0087039620999991979010814304+52683-008917FM-15+0014EINN V0202901N00411012001CN0112001N1+00601+00401999999ADDGA1031+006009099GA2041+012009059GA3051+060009009MA1101591999999MW1801REMMET006NOSIG?
0136039620999991979010815004+52683-008917SY-MT+0014EINN V0202801N00361075001CN0400001N1+00601+00301101661ADDAY181999GA1031+006009099GA2041+012009059GF107991041031008001001021MA1101591999999MD1710121+9999MW1251REMSYN01183920 85070MET006NOSIG?
0071039620999991979010815304+52683-008917FM-15+0014EINN V0203101N00771012001CN0112001N1+00501+00201999999ADDGA1041+006009099GA2031+012009059MA1101591999999MW1801REMMET006NOSIG?
0136039620999991979010816004+52683-008917SY-MT+0014EINN V0202801N00301006001CN0112001N1+00401+00201101711ADDAY181999GA1051+006009099GA2031+012009059GF107991071091008001999999MA1101691999999MD1510011+9999MW1801REMSYN01185920 83640MET006NOSIG?
0055039620999991979010816304+52683-008917FM-15+0014EINN V0202501N00301220001CN0112001N1+00301+00101999999ADDGA1031+006009099MA1101591999999MW1251REMMET006NOSIG?
0142039620999991979010817004+52683-008917SY-MT+0014EINN V0202801N00511006001CN0112001N1+00301+00001101711ADDAY181999GA1051+006009099GA2031+012009059GF107991071091008001999999MA1101591999999MD1510011+9999MW1251MW2801REMSYN01185920 83640MET006NOSIG?
0071039620999991979010817304+52683-008917FM-15+0014EINN V0202401N00301012001CN0112001N1+00301+00101999999ADDGA1021+006009099GA2031+012009059MA1101591999999MW1251REMMET006NOSIG?
0185039620999991979010818004+52683-008917SY-MT+0014EINN V0201901N00251012001CN0112001N1+00201+00101101671ADDAA199004091AY181999GA1031+006009099GA2051+012009059GF106991061091008001999999KA1999M+00701MA1101591999999MD1010021+9999MW1031REMSYN01770407 83920 85640MET006NOSIG?EQDQ01+000000PRSWM2
0084039620999991979010818304+52683-008917FM-15+0014EINN V0202101N00301012001CN0112001N1+00301+00001999999ADDGA1021+006009099GA2051+012009059MA1101591999999REMMET006NOSIG?EQDQ01+000000PRSWM2
0155039620999991979010819004+52683-008917SY-MT+0014EINN V0202801N00361012001CN0112001N1+00301+00101101661ADDAY181999GA1041+005709099GA2051+012009059GF106991061091004501999999HL10009MA1101591999999MD1810051+9999MW1271REMSYN02384919 85640 94008 99720MET006NOSIG?
0055039620999991979010819304+52683-008917FM-15+0014EINN V0202401N00251220001CN0112001N1+00201+00101999999ADDGA1011+005709099MA1101591999999MW1271REMMET006NOSIG?
0155039620999991979010820004+52683-008917SY-MT+0014EINN V0202401N00461220001CN0112001N1+00301+00001101641ADDAY111999GA1011+005709099GA2031+013509059GF104991041091004501001001MA1101591999999MD1710051+9999MW1011REMSYN01181919 83645MET006NOSIG?EQDQ01+000000PRSWM2
0071039620999991979010821004+52683-008917FM-15+0014EINN V0202001N00301220001CN0112001N1+00301+00001999999ADDGA1011+006009099GA2031+012009059MA1101591999999MW1251REMMET006NOSIG?
0084039620999991979010821304+52683-008917FM-15+0014EINN V0202201N00361220001CN0112001N1+00201-00101999999ADDGA1011+006009099GA2041+012009059MA1101591999999REMMET006NOSIG?EQDQ01+000000PRSWM2
0136039620999991979010822004+52683-008917SY-MT+0014EINN V0202601N00411009001CN0112001N1+00301+00001101641ADDAY181999GA1031+006009099GA2061+009009059GF108991081031008001999999MA1101591999999MD1510021+9999MW1801REMSYN01183920 86630MET006NOSIG?
0087039620999991979010822304+52683-008917FM-15+0014EINN V0202801N00361013501CN0112001N1+00301+00001999999ADDGA1011+006009099GA2041+009009059GA3051+013509059MA1101591999999MW1251REMMET006NOSIG?
0136039620999991979010823004+52683-008917SY-MT+0014EINN V0202401N00561220001CN0112001N1+00301+00001101621ADDAY181999GA1011+006009099GA2031+012009059GF104991041031008001001001MA1101591999999MD1710021+9999MW1251REMSYN01181920 83640MET006NOSIG?
0084039620999991979010823304+52683-008917FM-15+0014EINN V0202501N00361220001CN0112001N1+00301+00001999999ADDGA1011+006009099GA2041+012009059MA1101491999999REMMET006NOSIG?EQDQ01+000000PRSWM2
0201039620999991979010900004+52683-008917SY-MT+0014EINN V0202001N00411220001CN0112001N1+00201+00101101561ADDAA106000391AY181999GA1011+006009099GA2031+012009059GF103991031031008001001001HL10009MA1101491999999MD1710071+9999MW1011REMSYN023793// 81920 83640 99720MET006NOSIG?EQDQ01+000000PRSWM2Q02  00033PRCP99
0133039620999991979010901004+52683-008917SY-MT+0014EINN V0202401N00661220001CN0112001N1+00301+00101101521ADDAY111999GA1011+006609099GF102991021031008001001001MA1101491999999MD1710121+9999MW1011REMSYN00581922MET006NOSIG?EQDQ01+000000PRSWM2
0068039620999991979010901304+52683-008917FM-15+0014EINN V0202501N00561220001CN0112001N1+00301+00101999999ADDGA1011+006609099MA1101391999999REMMET006NOSIG?EQDQ01+000000PRSWM2
0133039620999991979010902004+52683-008917SY-MT+0014EINN V0202601N00411220001CN0112001N1+00201+00001101471ADDAY181999GA1031+005409099GF103991031091004501001001HL10009MA1101391999999MD1710151+9999MW1271REMSYN01783918 99720 98321MET006NOSIG?
0055039620999991979010902304+52683-008917FM-15+0014EINN V0202601N00461220001CN0112001N1+00201+00001999999ADDGA1021+005409099MA1101391999999MW1271REMMET006NOSIG?
0132039620999991979010903004+52683-008917SY-MT+0014EINN V0203001N00721005401CN0080001N1+00301-00101101491ADDAY181999GA1081+005409099GF108991081091004501999999HL10009MA1101391999999MD1510071+9999MW1881REMSYN01188918 99720MET011GRADU 9999?
0071039620999991979010903304+52683-008917FM-15+0014EINN V0202701N00661006001CN0112001N1+00201+00001999999ADDGA1031+003609079GA2051+006009099MA1101391999999MW1801REMMET006NOSIG?
0127039620999991979010904004+52683-008917SY-MT+0014EINN V0202501N00461220001CN0112001N1+00201+00001101451ADDAY181999GA1021+006009099GF102991021091008001001001HL10009MA1101391999999MD1710071+9999MW1271REMSYN01182920 99720MET006NOSIG?
0055039620999991979010904304+52683-008917FM-15+0014EINN V0202201N00411220001CN0112001N1+00201+00001999999ADDGA1011+006009099MA1101391999999MW1251REMMET006NOSIG?
0149039620999991979010905004+52683-008917SY-MT+0014EINN V0202201N00411006001CN0112001N1+00201+00101101421ADDAY181999GA1051+006009099GA2031+012009059GF106991061031008001999999HL10009MA1101391999999MD1810051+9999MW1871REMSYN01785920 83640 99720MET006NOSIG?
0055039620999991979010905304+52683-008917FM-15+0014EINN V0202401N00611220001CN0112001N1+00201+00001999999ADDGA1021+006009099MA1101291999999MW1271REMMET006NOSIG?
0204039620999991979010906004+52683-008917SY-MT+0014EINN V0202501N00661220001CN0112001N1+00201+00001101361ADDAA199002091AJ100009199999999AY181999GA1011+006009099GF101991011091008001001001HL10009IA1139IA2999-00109KA1999N+00101MA1101291999999MD1810131+9999MW1271REMSYN02925130 70201 81920 99720 92000MET006NOSIG?
0055039620999991979010906304+52683-008917FM-15+0014EINN V0202501N00561220001CN0112001N1+00201+00101999999ADDGA1011+006009099MA1101291999999MW1271REMMET006NOSIG?
0155039620999991979010907004+52683-008917SY-MT+0014EINN V0202801N00661012001CN0112001N1+00201+00001101371ADDAY181999GA1031+006009099GA2051+012009059GF107991071031008001999999HL10009MA1101291999999MD1510081+9999MW1271REMSYN02383920 85640 99720 92000MET006NOSIG?
0072039620999991979010907304+52683-008917FM-15+0014EINN V0202501N00561012001CN0112001N1+00201+00001999999ADDGA1031+006009099GA2051+012009059MA1101291999999MW1271REMMET007NOSIG ?
0155039620999991979010908004+52683-008917SY-MT+0014EINN V0202501N00411012001CN0112001N1+00101+00101101351ADDAY181999GA1031+006009099GA2031+012009059GF105991051031008001999999HL10009MA1101291999999MD1710071+9999MW1271REMSYN02383920 83640 99720 92000MET006NOSIG?
0071039620999991979010908304+52683-008917FM-15+0014EINN V0201901N00361220001CN0112001N1+00101+00001999999ADDGA1011+002109079GA2041+006009099MA1101291999999MW1271REMMET006NOSIG?
0179039620999991979010909004+52683-008917SY-MT+0014EINN V0202001N00461005401CN0112001N1+00101+00001101351ADDAY181999GA1011+000909079GA2051+005409099GF107991071031001501999999HL10009MA1101291999999MD1610011+9999MW1031REMSYN02381703 85918 99720 92000MET011TEMPO 8000?EQDQ01+000000PRSWM2
0076039620999991979010909304+52683-008917FM-15+0014EINN V0202401N00301005401CN0112001N1+99999+99999999999ADDGA1021+003009079GA2051+005409099MA1101291999999MW1271REMMET011INTER 8000?
0149039620999991979010910004+52683-008917SY-MT+0014EINN V0202401N00361220001CN0112001N1+00201+00001101331ADDAY181999GA1011+003009079GA2041+005409099GF104991041091004501999021HL10009MA1101291999999MD1710041+9999MW1271REMSYN01781710 84918 99720MET006NOSIG?
0089039620999991979010910304+52683-008917FM-15+0014EINN V0202201N00511220001CN0112001N1+00201+00101999999ADDGA1011+003009079GA2031+005409099MA1101291999999REMMET011INTER 8000?EQDQ01+000000PRSWM2
0169039620999991979010911004+52683-008917SY-MT+0014EINN V0202101N00411220001CN0112001N1+00201+00101101301ADDAY111999GA1011+003009079GA2031+005409099GF103991031031004501999021MA1101291999999MD1710051+9999MW1011WG199030099999REMSYN01181710 83918MET006NOSIG?EQDQ01+000000PRSWM2
0068039620999991979010911304+52683-008917FM-15+0014EINN V0202301N00461220001CN0112001N1+00301+00001999999ADDGA1021+005409099MA1101191999999REMMET006NOSIG?EQDQ01+000000PRSWM2
0266039620999991979010912004+52683-008917SY-MT+0014EINN V0202501N01131005401CN0090001N1+00401+00101101261ADDAA106001091AJ100009199999999AY181999GA1031+003309079GA2061+005409099GA3031+005409099GF107991071091004501999999HL10009MA1101191999999MD1710091+9999MW1831REMSYN041701// 83711 86918 83918 99720 99600 97280MET0369999 TO SE       ?     GRADU 4CU025?EQDQ01  00103PRCP99
0071039620999991979010912304+52683-008917FM-15+0014EINN V0202201N00661220001CN0112001N1+00301+00101999999ADDGA1011+003009079GA2041+005409099MA1101191999999MW1231REMMET006NOSIG?
0204039620999991979010913004+52683-008917SY-MT+0014EINN V0202401N00411005401CN0112001N1+00201+00101101161ADDAJ100009199999999AL10600091AY181999GA1031+002409079GA2061+005409099GA3041+005409099GF107991071091002501999999MA1101081999999MD1710171+9999MW1831REMSYN02983708 86918 84918 99500 99600MET013GRADU 5CU018?
0071039620999991979010913304+52683-008917FM-15+0014EINN V0202001N00511005401CN0112001N1+00301+00101999999ADDGA1021+002709079GA2031+005409099MA1101021999999MW1801REMMET006NOSIG?
0177039620999991979010914004+52683-008917SY-MT+0014EINN V0202101N00361005401CN0112001N1+00201+00101101021ADDAJ100009199999999AY181999GA1021+002409079GA2051+005409099GF107991061091002501999021MA1101021999999MD1710281+9999MW1831REMSYN03582708 85918 99600 97180 97280 97380MET006NOSIG?
0200039620999991979010915004+52683-008917SY-MT+0014EINN V0202301N00361060001CN0112001N1+00301+00201101021ADDAJ100009199999999AY181999GA1011+002709079GA2041+006009099GA3051+060009029GF107991061091002501999021MA1100811999999MD1710281+9999MW1801MW2831REMSYN03682708 85918 99600 97180 97280 973800MET006NOSIG?
0071039620999991979010915304+52683-008917FM-15+0014EINN V0202101N00411036001CN0112001N1+00301+00101999999ADDGA1041+006009099GA2061+036009049MA1100711999999MW1801REMMET006NOSIG?
0087039620999991979010916004+52683-008917FM-15+0014EINN V0202001N00611005401CN0112001N1+00301+00101999999ADDGA1021+003609079GA2041+005409099GA3071+036009049MA1100611999999MW1801REMMET006NOSIG?
0087039620999991979010916304+52683-008917FM-15+0014EINN V0202401N00871005401CN0112001N1+00301+00101999999ADDGA1031+003609079GA2061+005409099GA3041+005409099MA1100611999999MW1801REMMET006NOSIG?
0158039620999991979010917004+52683-008917SY-MT+0014EINN V0202001N00511005401CN0112001N1+00301+00101100661ADDAY181999GA1021+003009079GA2071+005409099GA3041+005409099GF108991051031004501071999MA1100411999999MD1710501+9999MW1801REMSYN01782712 84918 87462MET006NOSIG?
0087039620999991979010917304+52683-008917FM-15+0014EINN V0201901N00661005401CN0112001N1+00301+00201999999ADDGA1021+003009079GA2071+005409089GA3031+005409099MA1100311999999MW1801REMMET006NOSIG?
0194039620999991979010918004+52683-008917SY-MT+0014EINN V0201901N00611005401CN0112001N1+00301+00201100231ADDAA199003091AY181999GA1021+003009079GA2071+005409089GA3031+005409099GF108991081031004501999999KA1999M+00501MA1100201999999MD1710621+9999MW1801REMSYN02970305 82710 87818 83918 94008MET006NOSIG?
0087039620999991979010918304+52683-008917FM-15+0014EINN V0201601N00611004501CN0112001N1+00301+00101999999ADDGA1021+003009079GA2051+004509079GA3081+007509049MA1100001999999MW1631REMMET006NOSIG?
0158039620999991979010919004+52683-008917SY-MT+0014EINN V0201601N00611004501CN0112001N1+00301+00201099871ADDAY181999GA1031+003009079GA2051+004509079GA3081+007509049GF108991061061004501021999MA1099801999999MD1810791+9999MW1631REMSYN01783710 85715 88525MET006NOSIG?
0087039620999991979010919304+52683-008917FM-15+0014EINN V0201601N00771003601CN0112001N1+00301+00101999999ADDGA1031+002409079GA2031+003609079GA3081+004509049MA1099591999999MW1681REMMET006NOSIG?
0136039620999991979010920004+52683-008917SY-MT+0014EINN V0201701N00721003601CN0090001N1+00301+00101099501ADDAY161999GA1041+002409079GA2081+003609079GF108991081061002501999999MA1099391999999MD1810991+9999MW1681REMSYN01184708 88712MET006NOSIG?
0156039620999991979010921004+52683-008917FM-12+0014EINN V0201501N00721003301CN0090001N9+00301+00201098981ADDAY171999GA1031+002409079GA2051+003309079GA3081+004809079GF108991081061002501999999MD1711251+9999MW1681REMSYN02383708 85711 88716 99124EQDQ01+000992APC3  
0071039620999991979010921304+52683-008917FM-15+0014EINN V0200601N00361003601CN0080001N1+00401+00401999999ADDGA1041+002409079GA2081+003609079MA1098981999999MW1651REMMET006NOSIG?
0161039620999991979010922004+52683-008917FM-12+0014EINN V0202001N00311005101CN0200001N9+00501+00401098831ADDAY161999GA1031+003609079GA2061+005109079GA3081+009009059GF108991081061004501999999MD1610991+9999MW1611REMSYN04783712 86717 88630 91318 91306 91306 90046 99103
0111039620999991979010922304+52683-008917FM-15+0014EINN V0202701N00721009001CN0112001N1+00701+00501999999ADDGA1031+004509079GA2061+009009059GA3081+027009049MA1098821999999MW1611REMMET030GRADU 3ST005     ?     8ST010?
0182039620999991979010923004+52683-008917SY-MT+0014EINN V0202701N00921009001CN0112001N1+00701+00401098841ADDAY161999GA1031+004809079GA2051+009009059GA3081+027009049GF108991061061004501071999MA1098821999999MD1610651+9999MW1211REMSYN01783716 85630 88459MET030TEMPO 3ST010     ?     6CU015?
0098039620999991979010923304+52683-008917FM-15+0014EINN V0203001N01231012001CN0112001N1+00601+00401999999ADDGA1021+005409079GA2051+012009059MA1098921999999REMMET020INTER 2ST010 6CU018?EQDQ01+000000PRSWM2
0202039620999991979011000004+52683-008917SY-MT+0014EINN V0203101N01331009001CN0112001N1+00401+00201099091ADDAA106011091AY181999GA1041+004509079GA2061+009009059GF107991071051004501999999MA1098981999999MD1310111+9999MW1011REMSYN017711// 84715 86630MET020INTER 2ST010 5CB018?EQDQ01+000000PRSWM2Q02  01103PRCP99
0100039620999991979011000304+52683-008917FM-15+0014EINN V0203001N00821006601CN0112001N1+00301+00101999999ADDGA1011+004509079GA2031+006609089GA3011+006609099MA1099091999999REMMET006NOSIG?EQDQ01+000000PRSWM2
0173039620999991979011001004+52683-008917SY-MT+0014EINN V0203101N00561004501CN0112001N1+00301+00201099131ADDAY121999GA1051+004509079GA2051+007509059GF107991071061004501999999MA1099091999999MD1110301+9999MW1021REMSYN01185715 85625MET024TEMPO 8000 3ST010 5ST018EQDQ01+000000PRSWM2
0101039620999991979011001304+52683-008917FM-15+0014EINN V0203001N00561220001CN0112001N1+00301+00201999999ADDGA1011+004509079GA2031+006609089MA1099091999999REMMET023TEMPO 8000 3ST0105CB018EQDQ01+000000PRSWM2
0152039620999991979011002004+52683-008917SY-MT+0014EINN V0203301N00361220001CN0112001N1+00301+00201099101ADDAY111999GA1021+004509079GF103991031021004501001001MA1099091999999MD1010261+9999MW1011REMSYN00582715MET025TEMPO 8000 3ST010 5CB018?EQDQ01+000000PRSWM2
0068039620999991979011002304+52683-008917FM-15+0014EINN V0203501N00251220001CN0112001N1+00201+00101999999ADDGA1011+004509079MA1098981999999REMMET006NOSIG?EQDQ01+000000PRSWM2
0155039620999991979011003004+52683-008917SY-MT+0014EINN V0203501N00201220001CN0112001N1+00201+00101099061ADDAY111999GA1011+004509079GA2031+006909089GF103991031081004501001001MA1098981999999MD1810031+9999MW1031REMSYN01181715 83823MET006NOSIG?EQDQ01+000000PRSWM2
0084039620999991979011003304+52683-008917FM-15+0014EINN V0203101N00151018001CN0112001N1+00201+00101999999ADDGA1021+006609089GA2061+018009059MA1098981999999REMMET006NOSIG?EQDQ01+000000PRSWM2
0171039620999991979011004004+52683-008917SY-MT+0014EINN V0203101N00151018001CN0112001N1+00201+00101098921ADDAY111999GA1011+006609089GA2041+018009059GF105991051081008001999001MA1098921999999MD1810211+9999MW1031REMSYN01181822 84656MET006NOSIG?EQDQ01+000000PRSWM2Q02    003SCOMCG
0084039620999991979011004304+52683-008917FM-15+0014EINN V0201801N00151018001CN0112001N1+00301+00201999999ADDGA1021+006609089GA2081+018009059MA1098821999999REMMET006NOSIG?EQDQ01+000000PRSWM2
0158039620999991979011005004+52683-008917SY-MT+0014EINN V0201801N00301010501CN0112001N1+00301+00101098771ADDAY121999GA1021+006609089GA2041+010509059GA3061+018009059GF107991071081008001999999MA1098711999999MD1710331+9999MW1801REMSYN01782822 84635 86656MET006NOSIG?
0087039620999991979011005304+52683-008917FM-15+0014EINN V0202301N00611005401CN0112001N1+00301+00101999999ADDGA1021+003009079GA2051+005409099GA3061+010509059MA1098711999999MW1801REMMET006NOSIG?
0213039620999991979011006004+52683-008917SY-MT+0014EINN V0202201N00821004801CN0060001N1+00301+00201098621ADDAA199013091AJ100009199999999AY171999GA1031+003009079GA2071+004809099GF108991081031004501999999IA1089IA2999-00309KA1999N+00101MA1098611999999MD1710441+9999MW1831REMSYN02925310 71301 83710 87916 99600MET006NOSIG?
0087039620999991979011006304+52683-008917FM-15+0014EINN V0202901N00821005101CN0112001N1+00401+00201999999ADDGA1021+002109079GA2041+005109099GA3051+007509059MA1098611999999MW1261REMMET006NOSIG?
0181039620999991979011007004+52683-008917SY-MT+0014EINN V0203101N00411005101CN0112001N1+00301+00201098631ADDAJ100009199999999AY181999GA1021+002709079GA2041+005109099GA3051+007509059GF107991071031002501999999MA1098611999999MD1610291+9999MW1261REMSYN02382709 84917 85625 99600MET006NOSIG?
0087039620999991979011007304+52683-008917FM-15+0014EINN V0202801N00301004801CN0070001N1+00301+00201999999ADDGA1021+002709079GA2041+004809099GA3061+007509059MA1098611999999MW1801REMMET006NOSIG?
0220039620999991979011008004+52683-008917SY-MT+0014EINN V0203301N01331004801CN0025001N1+00101+00001098701ADDAJ100009199999999AY171999GA1031+002109079GA2071+004809099GF108991081031002501999999MA1098711999999MD1510071+9999MW1841OA199901841OC101851REMSYN02983707 87916 99600 91136 90008MET036GRADU      ?     8000 3ST010 5CB018?
0118039620999991979011008304+52683-008917FM-15+0014EINN V0202901N00771003601CN0050001N1+00101+00001999999ADDGA1031+002409079GA2031+003609079GA3071+004809099MA1098711999999MW1831REMMET037GRADU 8000       ?     3ST010 5CB018?
0212039620999991979011009004+52683-008917SY-MT+0014EINN V0203201N00821003001CN0040001N1+00201+00101098711ADDAJ100009199999999AY171999GA1021+001509079GA2041+003009079GA3071+004809099GF108991081031001501999999MA1098711999999MD1110091+9999MW1831REMSYN02382705 84710 87916 99600MET037GRADU 8000       ?     3ST010 5CB018?
0087039620999991979011009304+52683-008917FM-15+0014EINN V0202701N00661009001CN0112001N1+00201+00001999999ADDGA1011+002709079GA2031+005409099GA3051+009009059MA1098611999999MW1261REMMET006NOSIG?
0184039620999991979011010004+52683-008917SY-MT+0014EINN V0202901N00771005401CN0112001N1+00201+00101098641ADDAJ100009199999999AY181999GA1011+004209079GA2051+005409099GF106991051091004501999031HL10009MA1098611999999MD1010011+9999MW1271REMSYN03581714 85918 99600 99720 97380 97480MET006NOSIG?
0071039620999991979011010304+52683-008917FM-15+0014EINN V0202901N00661220001CN0112001N1+00301-00101999999ADDGA1011+003609079GA2041+005409099MA1098611999999MW1271REMMET006NOSIG?
0122039620999991979011011004+52683-008917FM-12+0014EINN V0203201N00621006001CN0300001N9+00301+00001098671ADDAY181999GA1011+004209079GA2061+006009099GF106991061091004501999031HL10009MD1510031+9999MW1271REMSYN01781714 86920 99720
0079039620999991979011011304+52683-008917FM-15+0014EINN V0203101N01021006001CN0112001N1+00401+00101999999ADDGA1031+004209079GA2061+006009099MA1098611999999MW1871OC101951REMMET006NOSIG?
0159039620999991979011012004+52683-008917FM-12+0014EINN V0203201N00821220001CN0300001N9+00501+00001098701ADDAA106004091AY181999GA1031+005409099GF103991031091004501001031HL10009MD1510011+9999MW1271OA199901951REMSYN029704// 83918 99720 91138 90026EQDQ01  00403PRCP99
0055039620999991979011012304+52683-008917FM-15+0014EINN V0203101N00921220001CN0112001N1+00501-00101999999ADDGA1021+005409099MA1098711999999MW1271REMMET006NOSIG?
0084039620999991979011013004+52683-008917FM-15+0014EINN V0203101N00921005401CN0112001N1+00501-00101999999ADDGA1011+004509079GA2051+005409099MA1098711999999REMMET006NOSIG?EQDQ01+000000PRSWM2
0071039620999991979011013304+52683-008917FM-15+0014EINN V0203001N01131005401CN0112001N1+00501+00001999999ADDGA1021+004509079GA2051+005409099MA1098711999999MW1801REMMET006NOSIG?
0183039620999991979011014004+52683-008917SY-MT+0014EINN V0203001N01021005401CN0080001N1+00201+00001098721ADDAY111999GA1031+004209079GA2061+005409099GF107991051091004501999031HL10009MA1098821999999MD1210081+9999MW1031MW2831OA199902361REMSYN01181715 85918MET0299999 NE NW       ?     NOSIG?
0063039620999991979011014304+52683-008917FM-15+0014EINN V0203101N01131220001CN0112001N1+00401+00001999999ADDGA1011+005409099MA1098821999999MW1271OC102001REMMET006NOSIG?
0190039620999991979011015004+52683-008917SY-MT+0014EINN V0203001N01031005401CN0080001N1+00201+00001098811ADDAY181999GA1021+003009079GA2051+005409099GF107991071091004501999999HL10009MA1098821999999MD1010141+9999MW1831OA199902361REMSYN04783714 86918 98042 91146 90088 99720 97180 97480MET006NOSIG?
0090039620999991979011015304+52683-008917FM-15+0014EINN V0203201N01231003001CN0040001N1+00201+00001999999ADDGA1031+001809079GA2071+003009079MA1098921999999MW1841OC101751REMMET017GRADU 9999 5CU020
0166039620999991979011016004+52683-008917SY-MT+0014EINN V0203001N00771220001CN0112001N1+00201+00001098901ADDAJ100009199999999AY181999GA1021+005109099GF102991021091004501001001MA1098921999999MD1210181+9999MW1231OA199902511REMSYN02982917 91149 90015 91235 99600MET006NOSIG?
0079039620999991979011016304+52683-008917FM-15+0014EINN V0203301N01541005101CN0112001N1+00301+00001999999ADDGA1031+003609079GA2061+005109099MA1098981999999MW1801OC102311REMMET006NOSIG?
0137039620999991979011017004+52683-008917SY-MT+0014EINN V0203101N00771220001CN0112001N1+00301+00001099001ADDAY181999GA1021+005409099GF102991021091004501001001MA1098981999999MD1210191+9999MW1251OA199902311REMSYN01782918 91145 90066MET006NOSIG?
0055039620999991979011017304+52683-008917FM-15+0014EINN V0203101N00721220001CN0112001N1+00301+00001999999ADDGA1021+005409099MA1098981999999MW1251REMMET006NOSIG?
0180039620999991979011018004+52683-008917SY-MT+0014EINN V0202901N01021005401CN0112001N1+00301+00001099041ADDAA199006091AJ100009199999999AY181999GA1051+005409099GF105991051091004501999999HL10009KA1999M+00601MA1098981999999MD1210161+9999MW1271REMSYN02370606 85918 99600 99720MET006NOSIG?
0055039620999991979011018304+52683-008917FM-15+0014EINN V0202901N01021220001CN0112001N1+00301+00001999999ADDGA1041+005409099MA1098981999999MW1271REMMET006NOSIG?
0156039620999991979011019004+52683-008917SY-MT+0014EINN V0202901N00971005401CN0112001N1+00401+00001099031ADDAY181999GA1051+005409099GF105991051091004501999999HL10009MA1098981999999MD1010131+9999MW1271OA199901891REMSYN02985918 91137 90018 99720 94016MET006NOSIG?
0055039620999991979011019304+52683-008917FM-15+0014EINN V0203101N00821005401CN0112001N1+00301+00001999999ADDGA1051+005409099MA1098981999999MW1271REMMET006NOSIG?
0173039620999991979011020004+52683-008917SY-MT+0014EINN V0203001N01131220001CN0112001N1+00401-00101099111ADDAJ100009199999999AY181999GA1021+005409099GF102991021091004501001001HL10009MA1099091999999MD1310111+9999MW1271OA199901841REMSYN02982918 91136 90044 99600 99720MET006NOSIG?
0068039620999991979011020304+52683-008917FM-15+0014EINN V0203001N00871220001CN0112001N1+00401-00101999999ADDGA1041+005409099MA1099091999999REMMET006NOSIG?EQDQ01+000000PRSWM2
0150039620999991979011021004+52683-008917SY-MT+0014EINN V0203101N00921005401CN0112001N1+00501-00101099181ADDAJ100009199999999AY181999GA1051+005409099GF105991051091004501999999HL10009MA1099091999999MD1310141+9999MW1871REMSYN01785918 99720 99600MET006NOSIG?
0055039620999991979011021304+52683-008917FM-15+0014EINN V0203001N00921220001CN0112001N1+00401-00101999999ADDGA1031+005409099MA1099091999999MW1271REMMET006NOSIG?
0158039620999991979011022004+52683-008917SY-MT+0014EINN V0203201N01541005401CN0090001N1+00401+00101099281ADDAY181999GA1061+005409099GF106991061091004501999999HL10009MA1099191999999MD1310251+9999MW1871OA199902361OC102361REMSYN02386918 99720 91146 90022MET006NOSIG?
0071039620999991979011022304+52683-008917FM-15+0014EINN V0203001N00721220001CN0112001N1+00301+00001999999ADDGA1021+006009099GA2031+024009039MA1099191999999MW1271REMMET006NOSIG?
0149039620999991979011023004+52683-008917SY-MT+0014EINN V0203101N01181024001CN0112001N1+00401-00101099231ADDAY181999GA1031+006009099GA2031+024009039GF106991031031008001061031HL10009MA1099191999999MD1010121+9999MW1271REMSYN01783920 83358 99720MET006NOSIG?
0055039620999991979011023304+52683-008917FM-15+0014EINN V0203101N01131220001CN0112001N1+00401-00101999999ADDGA1021+006009099MA1099191999999MW1271REMMET006NOSIG?
0179039620999991979011100004+52683-008917SY-MT+0014EINN V0203101N00921220001CN0112001N1+00401-00101099251ADDAA106002091AY181999GA1021+006009099GF102991021031008001001001HL10009MA1099191999999MD1110071+9999MW1011REMSYN017702// 82920 99720MET006NOSIG?EQDQ01+000000PRSWM2Q02  00203PRCP99
0071039620999991979011100304+52683-008917FM-15+0014EINN V0203201N01281220001CN0112001N1+00301+00001999999ADDGA1011+003609079GA2031+005409099MA1099191999999MW1251REMMET006NOSIG?
0137039620999991979011101004+52683-008917SY-MT+0014EINN V0203001N00971220001CN0112001N1+00401-00101099301ADDAY181999GA1021+005409099GF102991021031004501001001MA1099291999999MD1310021+9999MW1251OA199902261REMSYN01782918 91144 90025MET006NOSIG?
0071039620999991979011101304+52683-008917FM-15+0014EINN V0203101N01231220001CN0112001N1+00301+00101999999ADDGA1011+003609079GA2041+005409099MA1099291999999MW1801REMMET006NOSIG?
0159039620999991979011102004+52683-008917SY-MT+0014EINN V0203101N01021010501CN0112001N1+00301+00101099351ADDAY181999GA1031+005409099GA2031+010509059GF105991051031004501999999MA1099291999999MD1110121+9999MW1801OA199901891REMSYN02383918 83635 91137 90026MET006NOSIG?
0079039620999991979011102304+52683-008917FM-15+0014EINN V0203301N01181010501CN0112001N1+00301+00001999999ADDGA1041+005409099GA2031+010509059MA1099391999999MW1801OC101751REMMET006NOSIG?
0159039620999991979011103004+52683-008917SY-MT+0014EINN V0203301N01131060001CN0112001N1+00301+00001099431ADDAY181999GA1031+005409099GA2041+060009009GF106991031031004501001021MA1099391999999MD1210181+9999MW1801OA199902051REMSYN02383918 84070 91140 90077MET006NOSIG?
0071039620999991979011103304+52683-008917FM-15+0014EINN V0203101N01181010501CN0112001N1+00401+00001999999ADDGA1031+005409099GA2031+010509059MA1099391999999MW1801REMMET006NOSIG?
0114039620999991979011104004+52683-008917SY-MT+0014EINN V0203101N00771220001CN0112001N1+00401+00001099531ADDAY181999GA1021+005409099GF102991021031004501001001MA1099491999999MD1210231+9999MW1251REMSYN00582918MET006NOSIG?
0071039620999991979011104304+52683-008917FM-15+0014EINN V0203201N00611005401CN0112001N1+00301+00101999999ADDGA1011+003609079GA2051+005409099MA1099591999999MW1801REMMET006NOSIG?
0136039620999991979011105004+52683-008917SY-MT+0014EINN V0203101N00411012001CN0112001N1+00301+00101099621ADDAY181999GA1031+005409099GA2031+012009059GF105991051031004501999999MA1099591999999MD1210271+9999MW1251REMSYN01183918 83640MET006NOSIG?
0055039620999991979011105304+52683-008917FM-15+0014EINN V0203201N00461220001CN0112001N1+00301+00101999999ADDGA1031+005409099MA1099591999999MW1251REMMET006NOSIG?
0185039620999991979011106004+52683-008917SY-MT+0014EINN V0203101N00611220001CN0112001N1+00301+00101099661ADDAA199003091AJ100009199999999AY181999GA1021+005409099GF103991031031004501001001IA1089IA2999+00009KA1999N+00101MA1099591999999MD1110231+9999MW1251REMSYN01725010 70301 82918MET006NOSIG?
0055039620999991979011106304+52683-008917FM-15+0014EINN V0203001N00561220001CN0112001N1+00301+00001999999ADDGA1021+005409099MA1099591999999MW1251REMMET006NOSIG?
0136039620999991979011107004+52683-008917SY-MT+0014EINN V0203001N00411220001CN0112001N1+00301+00101099681ADDAY181999GA1021+005409099GA2031+012009059GF103991031031004501001001MA1099591999999MD1110151+9999MW1251REMSYN01182918 83640MET006NOSIG?
0071039620999991979011107304+52683-008917FM-15+0014EINN V0203101N00611006001CN0112001N1+00301+00101999999ADDGA1031+003909079GA2061+006009099MA1099701999999MW1801REMMET006NOSIG?
0114039620999991979011108004+52683-008917SY-MT+0014EINN V0203001N00611220001CN0112001N1+00301+00101099731ADDAY181999GA1031+006009099GF103991031031008001001001MA1099701999999MD1210111+9999MW1251REMSYN00583920MET006NOSIG?
0071039620999991979011108304+52683-008917FM-15+0014EINN V0202801N00361012001CN0112001N1+00301+00101999999ADDGA1031+005409099GA2051+012009059MA1099701999999MW1251REMMET006NOSIG?
0155039620999991979011109004+52683-008917SY-MT+0014EINN V0203201N00411013501CN0112001N1+00301+00101099851ADDAY181999GA1031+006009099GA2031+013509059GF105991051031008001001001MA1099801999999MD1310191+9999MW1031REMSYN01183920 83645MET006NOSIG?EQDQ01+000000PRSWM2
0084039620999991979011109304+52683-008917FM-15+0014EINN V0203101N00611013501CN0112001N1+00301+00101999999ADDGA1031+006009099GA2031+013509059MA1099801999999REMMET006NOSIG?EQDQ01+000000PRSWM2
0155039620999991979011110004+52683-008917SY-MT+0014EINN V0203201N00771007501CN0112001N1+00401+00101099931ADDAY121999GA1011+004509079GA2031+006009099GF105991051091008001031999MA1099901999999MD1210241+9999MW1031REMSYN01181715 83920MET006NOSIG?EQDQ01+000000PRSWM2
0084039620999991979011110304+52683-008917FM-15+0014EINN V0202901N00361220001CN0112001N1+00401+00101999999ADDGA1011+004509079GA2031+006009099MA1099901999999REMMET006NOSIG?EQDQ01+000000PRSWM2
0136039620999991979011111004+52683-008917SY-MT+0014EINN V0203101N01081006001CN0112001N1+00401+00201100041ADDAY181999GA1021+003309079GA2051+006009099GF107991071091008001999999MA1100001999999MD1210301+9999MW1801REMSYN01182711 85920MET006NOSIG?
0202039620999991979011112004+52683-008917SY-MT+0014EINN V0203001N00411013501CN0112001N1+00401+00101100061ADDAA106999999AA299000291AY181999GA1021+006009099GA2031+013509059GF105991051091008001999999MA1100001999999MD1110201+9999MW1251REMSYN036792// 82920 83645 97182 97282 &97482MET006NOSIG?EQDQ01  00002PRCP06
