0232039620999991994010100004+52700-008917SY-MT+0020EINN V0203001N00621060001CN0250001N1+00411+00261101091ADDAA106001091AG12001AY181061AY211061GA1021+005409099GA2021+015009999GA3071+060009999GF199999041031008001001021MA1101021999999MD1210291+9999MW1801REMSYN016 333 82920 83650MET020NEW TEMPO 5000 BKN01EQDQ01+000062SCOTCVQ02+000000PRSWM2
0205039620999991994010101004+52700-008917SY-MT+0020EINN V0202401N00151015001CN0250001N1+00341+00151101131ADDAG12999AY181011AY221011GA1021+006009099GA2071+015009999GF199999051031008001999999MA1101081999999MD1210271+9999MW1251REMSYN016 333 82910 84650MET020NEW TEMPO 5000 BKN01EQDQ01+000052SCOTCVQ02+000000PRSWM2
0183039620999991994010102004+52700-008917SY-MT+0020EINN V0202201N00311220001CN0300001N1+00301+00141101151ADDAG12999GA1021+006009099GA2071+015009999GF199999041031008001001001MA1101081999999MD1110221+9999REMSYN016 333 81920 83650MET020NEW TEMPO 5000 BKN01EQDQ01+000042SCOTCVQ02+000000PRSWM2
0199039620999991994010103004+52700-008917SY-MT+0020EINN V0202001N00511220001CN0250001N1+00301+00171101191ADDAG12001AY181031AY211031GA1021+003609999GA2071+005409099GF199999041031004501001001MA1101081999999MD1210101+9999MW1251REMSYN010 333 83918MET020NEW TEMPO 5000 BKN01EQDQ01+000042SCOTCVQ02+000000PRSWM2
0173039620999991994010104004+52700-008917SY-MT+0020EINN V0202001N00311220001CN0300001N1+00241+00081101261ADDAG12999AY181011AY211011GA1071+005409099GF199999011031004501001021MA1101191999999MD1210121+9999MW1251MW2801REMSYN010 333 81918MET020NEW TEMPO 5000 BKN01EQDQ01+000022SCOTCV
0151039620999991994010105004+52700-008917SY-MT+0020EINN V0201801N00211220001CN0300001N1+00171+00011101201ADDAG12999GA1021+005409099GF104991011031004501031021MA1101191999999MD1010041+9999REMSYN016 333 81918 84075MET020NEW TEMPO 5000 BKN01EQDQ01+000000PRSWM2
0229039620999991994010106004+52700-008917SY-MT+0020EINN V0202101N00311009001CN0300001N1+00271+00081101181ADDAA199001091AG12001AY181061AY211061GA1021+005409999GF107991071081004501999999GJ100849IA1099IA2999-00109KA1120N+00161MA1101081999999MD1810011+9999MW1031REMSYN034 333 20016 31101 55014 81820 86656MET008NEW NOSIEQDQ01+000000PRSWM2
0155039620999991994010107004+52700-008917SY-MT+0020EINN V0201801N00411018001CN0300001N1+00271+00081101111ADDAG12999GA1021+006009999GA2071+018009999GF107991021081008001001081MA1101081999999MD1710141+9999REMSYN016 333 81820 86275MET008NEW NOSIEQDQ01+000000PRSWM2
0161039620999991994010108004+52700-008917SY-MT+0020EINN V0201701N00461075001CN0300001N1+00331+00031101021ADDAG12999GA1021+006009999GA2071+075009999GF107991011051012501071061MA1101021999999MD1710171+9999REMSYN022 333 81630 84460 87275MET008NEW NOSIEQDQ01+000000PRSWM2
0155039620999991994010109004+52700-008917SY-MT+0020EINN V0201501N00511027001CN0400001N1+00331+00091100991ADDAG12000GA1021+007509999GA2071+027009999GF108991011051012501071999MA1101021999999MD1710191+9999REMSYN016 333 81640 88459MET008NEW NOSIEQDQ01+000000PRSWM2
0161039620999991994010110004+52700-008917SY-MT+0020EINN V0201501N00461027001CN0400001N1+00331+00091100911ADDAG12999GA1021+012009999GA2081+027009999GF108991041061002501021999MA1100911999999MD1710201+9999REMSYN022 333 83708 84640 88459MET008NEW NOSIEQDQ01+000000PRSWM2
0164039620999991994010111004+52700-008917SY-MT+0020EINN V0201401N00621010201CN0300001N1+00391+00161100791ADDAG12999AY161021AY221021GA1071+010209999GA2081+024009999GF108991031051012501021999MA1100811999999MD1810231+9999MW1601MW2611REMSYN016 333 83634 88556MET008NEW NOSI
0199039620999991994010112004+52700-008917SY-MT+0020EINN V0201301N00621012001CN0080001N1+00421+00301100601ADDAA106000591AG12002AY161061AY261061GA1021+002709999GA2021+003609999GA3081+012009999GF108991061061002501021999MA1100611999999MD1810391+9999MW1611REMSYN022 333 85707 84710 88550MET016NEW TEMPO BKN007
0192039620999991994010113004+52700-008917SY-MT+0020EINN V0201301N00821015001CN0400001N1+00461+00311100331ADDAG12999AY161011AY221011GA1021+002409999GA2021+003609999GA3081+015009999GF108991081051002501999999MA1100411999999MD1710581+9999MW1211MW2611REMSYN022 333 83708 85620 88650MET014NEW TEMPO 5000
0161039620999991994010114004+52700-008917SY-MT+0020EINN V0201401N01081003901CN0400001N1+00571+00411100031ADDAG12999GA1071+003909999GA2081+013509999GF108991081061004501999999MA1100101999999MD1710761+9999REMSYN016 333 86713 87645MET014NEW TEMPO 5000EQDQ01+000000PRSWM2
0151039620999991994010115004+52700-008917SY-MT+0020EINN V0201401N01081003901CN0400001N1+00661+00501099791ADDAG12001AY161031AY221031GA1081+003909999GF108991081061004501999999MD1710811+9999MW1021REMSYN010 333 88713MET019NEW Q999 TEMPO 5000EQDQ01+000000PRSWM2
0175039620999991994010116004+52700-008917SY-MT+0020EINN V0201301N01031003601CN0150001N1+00661+00551099561ADDAG12999AY161011AY221011GA1021+003009999GA2081+003609999GF108991081061004501999999MD1710771+9999MW1601MW2611OC101701REMSYN016 333 83710 88714MET026NEW Q996 TEMPO 5000 BKN008
0167039620999991994010117004+52700-008917SY-MT+0020EINN V0201401N00981003601CN0080001N1+00731+00601099331ADDAG12999AY161021AY261021GA1021+002409999GA2081+003609999GF108991081061004501999999MD1710701+9999MW1611MW2631REMSYN016 333 83710 88715MET026NEW Q994 TEMPO 5000 BKN008
0249039620999991994010118004+52700-008917SY-MT+0020EINN V0201401N01031003301CN0180001N1+00791+00661099001ADDAA199005091AG12001AY161061AY221061GA1021+002409999GA2071+003309999GA3081+004509999GF108991081061002501999999KA1120M+00791MA1099091999999MD1710781+9999MW1601REMSYN028 333 10079 82708 84712 88620MET028NEW RERA TEMPO SCT005 BKN008EQDQ01+000000PRSWM2
0192039620999991994010119004+52700-008917SY-MT+0020EINN V0201601N00671005101CN0150001N1+00851+00751098841ADDAG12999AY161011AY261011GA1021+002109999GA2021+003009999GA3081+005109999GF108991081061002501999999MA1098821999999MD1710711+9999MW1611REMSYN022 333 82706 85708 88718MET020NEW TEMPO SCT005 BKN
0192039620999991994010120004+52700-008917SY-MT+0020EINN V0202501N00671006601CN0180001N1+00981+00881098861ADDAG12999AY161021AY221021GA1021+001509999GA2021+002709999GA3071+006609999GF108991081061001501999999MA1098821999999MD1510461+9999MW1601MW2611REMSYN016 333 86704 88708MET020NEW BECMG SCT010 BKN
0176039620999991994010121004+52700-008917SY-MT+0020EINN V0202601N00671001201CN0060001N1+00951+00871098931ADDAG12001AY161031AY251031GA1071+001209999GA2081+002109999GF108991081061001501999999MA1098821999999MD1510071+9999MW1501MW2511REMSYN016 333 86705 88709MET020NEW BECMG SCT010 BKN
0177039620999991994010122004+52700-008917SY-MT+0020EINN V0202501N00721002101CN0150001N1+00861+00761098961ADDAG12999AY151011AY221011GA1021+002409999GA2021+009009999GF108991081061002501999999MA1098921999999MD1310121+9999MW1201REMSYN016 333 86707 86634MET008NEW NOSIEQDQ01+000000PRSWM2
0105039620999991994010122204+52700-008917FM-15+0020EINN V0202501N00721002701CN0112651N1+00801+00701999999ADDAG11999GA1071+002709999GA2071+003609999MA1098921999999REMMET020NEW BECMG SCT010 BKNEQDQ01+000000PRSWM2
0173039620999991994010123004+52700-008917SY-MT+0020EINN V0202501N00621002701CN0200001N1+00841+00711098971ADDAG12999GA1071+002709999GA2071+003609999GF107991071061002501999999MA1098921999999MD1110111+9999REMSYN022 333 83709 84712 87620MET020NEW BECMG SCT010 BKNEQDQ01+000000PRSWM2
0200039620999991994010200004+52700-008917SY-MT+0020EINN V0202401N00621012601CN0060001N1+00851+00771098991ADDAA106001091AG12001AY161061AY251061GA1021+003609999GA2071+012609999GF108991081051002501999999MA1098981999999MD1210061+9999MW1581REMSYN016 333 83707 87622MET020NEW TEMPO BKN005 OVCEQDQ01+000000PRSWM2
0193039620999991994010201004+52700-008917SY-MT+0020EINN V0202601N00771220001CN0200001N1+00791+00551099051ADDAG12999AY161011AY251011GA1021+003009999GA2071+006909999GF199999031081004501001001MA1098981999999MD1210091+9999MW1211REMSYN016 333 81820 83635MET008NEW NOSIEQDQ01+000032SCOTCVQ02+000000PRSWM2
0093039620999991994010201204+52700-008917FM-15+0020EINN V0202501N00671220001CN0112651N1+00801+00501999999ADDAG11999GA1021+006009999GA2021+010509999MA1098981999999REMMET008NEW NOSIEQDQ01+000000PRSWM2
0165039620999991994010202004+52700-008917SY-MT+0020EINN V0202501N00671220001CN0200001N1+00751+00461099091ADDAG12999GA1021+006009999GA2021+010509999GF199999011081008001001001MA1098981999999MD1210121+9999REMSYN010 333 81820MET008NEW NOSIEQDQ01+000012SCOTCVQ02+000000PRSWM2
0155039620999991994010203004+52700-008917SY-MT+0020EINN V0202401N00621220001CN0200001N1+00651+00441099151ADDAG12001AY161031AY251031GA1021+006009999GF103991031081008001001001MA1099091999999MD1210151+9999MW1031REMSYN010 333 82820MET008NEW NOSIEQDQ01+000000PRSWM2
0155039620999991994010204004+52700-008917SY-MT+0020EINN V0202501N00671220001CN0200001N1+00711+00381099211ADDAG12999AY181011AY201011GA1021+006009999GF103991031081008001001001MA1099091999999MD1210151+9999MW1251REMSYN010 333 82820MET008NEW NOSIEQDQ01+000000PRSWM2
0139039620999991994010205004+52700-008917SY-MT+0020EINN V0202401N00721220001CN0200001N1+00691+00461099231ADDAG12999GA1021+006009999GF103991031081008001001001MA1099191999999MD1110131+9999REMSYN016 333 81820 83640MET008NEW NOSIEQDQ01+000000PRSWM2
0239039620999991994010206004+52700-008917SY-MT+0020EINN V0202301N00671220001CN0200001N1+00691+00441099251ADDAA199002091AG12001AY161061AY251061GA1021+006009999GF199999011081008001001001GJ100009IA1099IA2999+00409KA1120N+00631MA1099191999999MD1110101+9999MW1011REMSYN028 333 20063 31004 55000 81820MET008NEW NOSIEQDQ01+000012SCOTCVQ02+000000PRSWM2
0187039620999991994010207004+52700-008917SY-MT+0020EINN V0202301N00721015001CN0200001N1+00661+00331099281ADDAG12999AY181011AY211011GA1021+006009999GA2071+015009999GF199999041031004501001021MA1099191999999MD1210071+9999MW1251REMSYN010 333 82918MET008NEW NOSIEQDQ01+000052SCOTCVQ02+000000PRSWM2
0185039620999991994010208004+52700-008917SY-MT+0020EINN V0202201N00621220001CN0200001N1+00621+00381099321ADDAG12999GA1021+005409099GA2021+060009999GF102991021081008001001001MA1099291999999MD1210091+9999REMSYN046 22212 10062 20038 49932 52009 82800 333 81820MET008NEW NOSIEQDQ01+000000PRSWM2
0155039620999991994010209004+52700-008917SY-MT+0020EINN V0202301N00621220001CN0200001N1+00721+00471099361ADDAG12001AY181031AY211031GA1021+006009999GF102991021081004501001001MA1099291999999MD1210111+9999MW1021REMSYN010 333 81820MET008NEW NOSIEQDQ01+000000PRSWM2
0171039620999991994010210004+52700-008917SY-MT+0020EINN V0202301N00671220001CN0150001N1+00761+00491099421ADDAG12999GA1021+004809999GA2021+006009099GF199999011091004501001011MA1099391999999MD1210151+9999REMSYN016 333 81716 81920MET008NEW NOSIEQDQ01+000012SCOTCVQ02+000000PRSWM2
0197039620999991994010211004+52700-008917SY-MT+0020EINN V0202301N00721220001CN0180001N1+00801+00511099471ADDAG12999AY181021AY211021GA1021+003609999GA2071+005709099GF199999031091004501001011MA1099391999999MD1210161+9999MW1251MW2801OC101391REMSYN016 333 81715 82919MET014NEW TEMPO 5000EQDQ01+000032SCOTCV
0206039620999991994010212004+52700-008917SY-MT+0020EINN V0202601N00671004201CN0120001N1+00871+00541099471ADDAA106000591AG12001AY181061AY211061GA1021+004509999GA2021+005709099GF107991071091004501999999MA1099391999999MD1110121+9999MW1801REMSYN022 333 81710 85919 99010MET020NEW TEMPO 5000 BKN01EQDQ01+000000PRSWM2
0129039620999991994010213004+52700-008917FM-12+0020EINN V0202401N00721220001CN0200001N9+00871+00461099471ADDAG12999AY181011AY211011GA1011+003609079GA2011+006009099GF101991011031004501001001MD1110051+9999MW1251REMSYN016 333 81712 81920
0165039620999991994010214004+52700-008917SY-MT+0020EINN V0202401N01031220001CN0220001N1+00891+00341099451ADDAG12999GA1021+004509999GA2021+006009099GF199999011031008001001001MA1099391999999MD1810021+9999REMSYN010 333 81920MET008NEW NOSIEQDQ01+000012SCOTCVQ02+000000PRSWM2
0171039620999991994010215004+52700-008917SY-MT+0020EINN V0202301N00771220001CN0220001N1+00901+00451099491ADDAG12001AY181031AY211031GA1021+006009999GF199999011031008001001001MA1099391999999MD1310021+9999MW1011REMSYN010 333 81920MET008NEW NOSIEQDQ01+000012SCOTCVQ02+000000PRSWM2
0171039620999991994010216004+52700-008917SY-MT+0020EINN V0202301N00621220001CN0200001N1+00801+00461099541ADDAG12999AY111011AY211011GA1021+006009099GF103991999031008001001001MA1099491999999MD1310071+9999MW1801REMSYN010 333 83920MET008NEW NOSIEQDQ01+000052SCOTLCQ02+000000PRSWM2
0171039620999991994010217004+52700-008917SY-MT+0020EINN V0202301N00621220001CN0180001N1+00751+00431099561ADDAG12999AY181021AY211021GA1021+006009099GF199999011031008001001001MA1099491999999MD1210111+9999MW1251REMSYN010 333 81920MET008NEW NOSIEQDQ01+000012SCOTCVQ02+000000PRSWM2
0201039620999991994010218004+52700-008917SY-MT+0020EINN V0202101N00361220001CN0200001N1+00641+00331099591ADDAA199000591AG12001AY181061AY211061GA1021+006009099GF199999011031008001001001KA1120M+00941MA1099491999999MD1210091+9999MW1021REMSYN016 333 10094 81920MET008NEW NOSIEQDQ01+000012SCOTCVQ02+000000PRSWM2
0149039620999991994010219004+52700-008917SY-MT+0020EINN V0202001N00511220001CN0200001N1+00641+00331099611ADDAG12999GA1021+006009099GF199999011031008001001001MA1099591999999MD1210061+9999REMSYN010 333 81920MET008NEW NOSIEQDQ01+000012SCOTCVQ02+000000PRSWM2
0139039620999991994010220004+52700-008917SY-MT+0020EINN V0202001N00411006001CN0200001N1+00631+00291099631ADDAG12999GA1071+006009099GF107991071031008001999999MA1099591999999MD1210061+9999REMSYN016 333 82920 86634MET008NEW NOSIEQDQ01+000000PRSWM2
0093039620999991994010220304+52700-008917FM-15+0020EINN V0202001N00511010201CN0112651N1+00601+00301999999ADDAG12000GA1021+006009099GA2071+010209999MA1099491999999REMMET008NEW NOSIEQDQ01+000000PRSWM2
0155039620999991994010222004+52700-008917SY-MT+0020EINN V0202101N00411007501CN0300001N1+00621+00351099581ADDAG12999GA1021+006009099GA2021+018009999GF105991051031008001999999MA1099491999999MD1710021+9999REMSYN016 333 81920 84630MET008NEW NOSIEQDQ01+000000PRSWM2
0149039620999991994010223004+52700-008917SY-MT+0020EINN V0201501N00511220001CN0300001N1+00471+00301099531ADDAG12999GA1021+009009999GF199999011051012501001001MA1099491999999MD1710101+9999REMSYN010 333 81630MET008NEW NOSIEQDQ01+000012SCOTCVQ02+000000PRSWM2
0151039620999991994010300004+52700-008917SY-MT+0020EINN V0201601N00511220001CN0300001N1+00551+00311099441ADDAA106999929AG12000GA1011+027009039GF101991011001999999031001MA1099391999999MD1810121+9999REMSYN010 333 81359MET015NEW CAVOK NOSIGEQDQ01+000000PRSWM2
0140039620999991994010301004+52700-008917SY-MT+0020EINN V0201601N00461018001CN0300001N1+00541+00261099341ADDAG12999GA1051+018009049GF105991051001017501071001MA1099291999999MD1710251+9999REMSYN010 333 85456MET015NEW CAVOK NOSIGEQDQ01+000000PRSWM2
0080039620999991994010301304+52700-008917FM-15+0020EINN V0201701N00361011101CN0112651N1+00601+00301999999ADDAG12999GA1021+003009999GA2071+011109999MA1099291999999MW1801REMMET008NEW NOSI
0183039620999991994010302004+52700-008917SY-MT+0020EINN V0201501N00411010201CN0250001N1+00591+00381099231ADDAG12999AY181021AY221021GA1021+003909999GA2071+010209999GF107991061051004501071999MA1099191999999MD1710301+9999MW1251REMSYN022 333 81713 86634 84457MET008NEW NOSIEQDQ01+000000PRSWM2
0158039620999991994010303004+52700-008917SY-MT+0020EINN V0201301N00571009901CN0150001N1+00561+00421099101ADDAG12002AY181031AY221031GA1021+003909999GA2071+009909999GF107991071051004501999999MA1098981999999MD1710351+9999MW1801REMSYN016 333 82713 86633MET008NEW NOSI
0180039620999991994010304004+52700-008917SY-MT+0020EINN V0201601N00261010501CN0120001N1+00581+00471098931ADDAG12999AY181011AY221011GA1021+003609999GA2021+007509099GA3071+010509999GF108991081031004501999999MA1098981999999MD1710411+9999MW1801REMSYN022 333 82710 85922 84637MET008NEW NOSI
0186039620999991994010305004+52700-008917SY-MT+0020EINN V0202801N00151006001CN0080001N1+00531+00381098781ADDAG12999AY181021AY261021GA1021+003009999GA2071+006009099GA3021+011109999GF108991081061002501999999MA1098821999999MD1710451+9999MW1601MW2801REMSYN022 333 83708 84715 86620MET008NEW NOSI
0104039620999991994010305304+52700-008917FM-15+0020EINN V0203001N00151004501CN0112651N1+00501+00401999999ADDAG12001GA1021+002409999GA2071+004509999GA3071+006009999MA1098611999999MW1611REMMET016NEW TEMPO BKN010
0194039620999991994010307004+52700-008917SY-MT+0020EINN V0202301N00151006001CN0200001N1+00431+00331098521ADDAG12999AY161041AY221041GA1021+002409999GA2021+004509999GA3071+006009999GF108991081051004501999999MA1098511999999MD1710411+9999MW1211MW2611REMSYN022 333 82715 83625 87645MET016NEW TEMPO BKN010
0155039620999991994010308004+52700-008917SY-MT+0020EINN V0202601N00211013501CN0200001N1+00401+00281098481ADDAG12999GA1021+007509999GA2071+013509999GF107991071051004501999999MA1098511999999MD1610301+9999REMSYN016 333 82625 86645MET008NEW NOSIEQDQ01+000000PRSWM2
0177039620999991994010309004+52700-008917SY-MT+0020EINN V0202401N00261013501CN0250001N1+00391+00271098471ADDAG12001AY161031AY221031GA1021+007509999GA2071+013509999GF107991071051008001999999MA1098411999999MD1610191+9999MW1021REMSYN016 333 82625 86645MET008NEW NOSIEQDQ01+000000PRSWM2
0171039620999991994010310004+52700-008917SY-MT+0020EINN V0202401N00151220001CN0400001N1+00451+00301098431ADDAG12999GA1021+005409999GA2071+013509999GF199999031081004501001001MA1098411999999MD1810081+9999REMSYN016 333 81818 83630MET008NEW NOSIEQDQ01+000032SCOTCVQ02+000000PRSWM2
0155039620999991994010311004+52700-008917SY-MT+0020EINN V0202401N00361220001CN0400001N1+00531+00361098461ADDAG12999GA1021+003609999GA2021+060009999GF104991021081004501001021MA1098411999999MD1510011+9999REMSYN016 333 81712 83070MET008NEW NOSIEQDQ01+000000PRSWM2
0182039620999991994010312004+52700-008917SY-MT+0020EINN V0202301N00411220001CN0400001N1+00601+00411098451ADDAA106001091AG12001AY161061AY211061GA1021+003609999GA2021+060009999GF102991011081004501001021MA1098411999999MD1510011+9999MW1011REMSYN010 333 81818MET008NEW NOSIEQDQ01+000000PRSWM2
0148039620999991994010313004+52700-008917SY-MT+0020EINN V0202201N00211220001CN0400001N1+00561+00421098441ADDAG12999AY181011AY211011GA1021+005409099GF104991041031004501001001MA1098411999999MD1010011+9999MW1251MW2801REMSYN016 333 81715 84920MET008NEW NOSI
0133039620999991994010314004+52700-008917SY-MT+0020EINN V0202101N00361220001CN0400001N1+00631+00341098391ADDAG12999GA1021+005409099GF103991021031004501001021MA1098411999999MD1710071+9999REMSYN010 333 82918MET008NEW NOSIEQDQ01+000000PRSWM2
0155039620999991994010315004+52700-008917SY-MT+0020EINN V0202201N00571004201CN0400001N1+00661+00271098381ADDAG12001AY181031AY221031GA1021+005409099GF105991051031004501001021MA1098311999999MD1710071+9999MW1801REMSYN010 333 84918MET008NEW NOSIEQDQ01+000000PRSWM2
0205039620999991994010316004+52700-008917SY-MT+0020EINN V0202301N00511004201CN0250001N1+00521+00221098411ADDAG12999AY181011AY221011GA1021+005409099GA2021+010509999GF107991071031004501999999MA1098311999999MD1510031+9999MW1801REMSYN022 333 82711 85918 85635MET030NEW TEMPO 5000 SCT010 BKN018CBEQDQ01+000000PRSWM2
0192039620999991994010317004+52700-008917SY-MT+0020EINN V0201901N00361006901CN0090001N1+00471+00271098391ADDAG12999AY181021AY281021GA1021+003609999GA2071+006909099GA3071+011109999GF107991071031002501999999MA1098411999999MD1010001+9999MW1801REMSYN022 333 82709 85920 86637MET020NEW 83 Q0984 TEMPO 5
0200039620999991994010318004+52700-008917SY-MT+0020EINN V0201701N00211004201CN0250001N1+00481+00311098371ADDAA199003091AG12002AY181061AY211061GA1021+005409099GA2021+009009999GF106991061031004501999999KA1120M+00711MA1098311999999MD1710011+9999MW1251MW2801REMSYN022 333 10071 83820 83635MET014NEW TEMPO 5000
0183039620999991994010319004+52700-008917SY-MT+0020EINN V0201801N00411004201CN0300001N1+00461+00291098361ADDAG12999AY181011AY221011GA1021+005409099GA2021+010509999GF106991061031004501999999MA1098311999999MD1710051+9999MW1251REMSYN016 333 82918 84630MET014NEW TEMPO 5000EQDQ01+000000PRSWM2
0142039620999991994010320004+52700-008917SY-MT+0020EINN V0202601N00151005401CN0200001N1+00451+00301098411ADDAG12999AY181021AY221021GA1071+005409099GF107991071031004501999999MA1098311999999MD1310021+9999MW1801REMSYN010 333 86918MET014NEW TEMPO 5000
0219039620999991994010321004+52700-008917SY-MT+0020EINN V0201701N00211015001CN0250001N1+00481+00311098371ADDAA199003091AG12002AY181031AY211031GA1021+003609999GA2081+015009999GF199999061031004501999999KA1120M+00711MA1098411999999MD1710011+9999MW1251MW2611REMSYN022 333 10071 83820 83635MET014NEW TEMPO 5000EQDQ01+000062SCOTCV
0180039620999991994010322004+52700-008917SY-MT+0020EINN V0202001N00311015001CN0300001N1+00381+00281098431ADDAG12999AY161011AY221011GA1021+003309999GA2021+008109999GA3081+015009999GF108991081051012501999999MA1098411999999MD1110071+9999MW1211MW2631REMSYN016 333 84632 88656MET008NEW NOSI
0133039620999991994010323004+52700-008917SY-MT+0020EINN V0202001N00361220001CN0300001N1+00321+00221098451ADDAG12999GA1021+009009999GF102991021051012501001001MA1098411999999MD1110041+9999REMSYN010 333 82630MET008NEW NOSIEQDQ01+000000PRSWM2
0077039620999991994010323204+52700-008917FM-15+0020EINN V0202101N00311220001CN0112651N1+00301+00201999999ADDAG11999GA1021+009009999MA1098411999999REMMET008NEW NOSIEQDQ01+000000PRSWM2
0077039620999991994010323304+52700-008917FM-15+0020EINN V0202101N00311220001CN0112651N1+00301+00201999999ADDAG12000GA1021+009009999MA1098411999999REMMET008NEW NOSIEQDQ01+000000PRSWM2
0140039620999991994010401004+52700-008917SY-MT+0020EINN V0202501N00311220001CN0300001N1+00371+00221098511ADDAG12999GA1021+006009099GF199999011091008001001001MD1210071+9999REMSYN010 333 81920MET014NEW Q984 NOSIGEQDQ01+000012SCOTCVQ02+000000PRSWM2
0124039620999991994010402004+52700-008917SY-MT+0020EINN V0202501N00261220001CN0300001N1+00401+00281098551ADDAG12999GA1021+006009099GF102991021031008001001001MD1210091+9999REMSYN010 333 81920MET014NEW Q985 NOSIGEQDQ01+000000PRSWM2
0124039620999991994010403004+52700-008917SY-MT+0020EINN V0202301N00211220001CN0300001N1+00271+00191098571ADDAG12000GA1021+006009099GF102991021081008001001001MD1210101+9999REMSYN010 333 81820MET014NEW Q985 NOSIGEQDQ01+000000PRSWM2
0130039620999991994010404004+52700-008917SY-MT+0020EINN V0201401N00151220001CN0300001N1+00291+00161098541ADDAG12999GA1021+006009999GF103991011021008001001021MD1010041+9999REMSYN016 333 81820 83070MET014NEW Q985 NOSIGEQDQ01+000000PRSWM2
0168039620999991994010405004+52700-008917SY-MT+0020EINN V0201201N00211060001CN0200001N1+00241+00161098531ADDAG12999AY161021AY211021GA1021+006009999GA2071+060009999GF107991071021008001001021MD1810021+9999MW1601REMSYN016 333 84820 87070MET014NEW Q985 NOSIGEQDQ01+000000PRSWM2
0243039620999991994010406004+52700-008917SY-MT+0020EINN V0201001N00051004201CN0200001N1+00301+00171098551ADDAA199005091AG12002AY181061AY221061GA1021+003609999GA2021+006009099GF108991081031004501999999GJ100849IA1099IA2999-00309KA1120N+00201MA1098511999999MD1510021+9999MW1801REMSYN034 333 20020 31103 55014 82710 85920MET025NEW TEMPO SCT010 BKN018CB
0183039620999991994010407004+52700-008917SY-MT+0020EINN V0201001N00261004201CN0200001N1+00291+00241098551ADDAG12999AY181011AY221011GA1021+003009999GA2021+006009099GF106991061031004501999999MA1098511999999MD1110011+9999MW1801REMSYN022 333 83710 82918 83635MET008NEW NOSIEQDQ01+000000PRSWM2
0193039620999991994010408004+52700-008917SY-MT+0020EINN V0201301N00311220001CN0300001N1+00261+00131098631ADDAG12999AY181021AY221021GA1021+003609999GA2021+006009099GA3021+013509999GF104991041041004501001001MA1098611999999MD1210111+9999MW1251REMSYN016 333 81712 84640MET008NEW NOSIEQDQ01+000000PRSWM2
0180039620999991994010409004+52700-008917SY-MT+0020EINN V0201501N00151010201CN0150001N1+00291+00191098741ADDAG12002AY181031AY221031GA1021+003609999GA2021+004509999GA3071+010209999GF107991071031002501999999MA1098611999999MD1210181+9999MW1251MW2611REMSYN016 333 82708 85921MET008NEW NOSI
0155039620999991994010410004+52700-008917SY-MT+0020EINN V0202901N00361220001CN0200001N1+00421+00241098881ADDAG12999GA1021+003009999GA2021+005409099GF102991021031002501001001MA1098821999999MD1210321+9999REMSYN016 333 81709 81920MET008NEW NOSIEQDQ01+000000PRSWM2
0171039620999991994010411004+52700-008917SY-MT+0020EINN V0202801N00461220001CN0300001N1+00611+00371098991ADDAG12999GA1021+002709999GA2021+006009099GF199999011031004501001001MA1098921999999MD1210351+9999REMSYN016 333 81710 81920MET008NEW NOSIEQDQ01+000012SCOTCVQ02+000000PRSWM2
0182039620999991994010412004+52700-008917SY-MT+0020EINN V0202801N00261220001CN0300001N1+00711+00361099031ADDAA106001091AG12001AY181061AY211061GA1021+006609999GF199999011081004501001001MA1098981999999MD1110291+9999MW1021REMSYN010 333 81818MET008NEW NOSIEQDQ01+000012SCOTCVQ02+000000PRSWM2
0177039620999991994010413004+52700-008917SY-MT+0020EINN V0202601N00461220001CN0250001N1+00791+00471099021ADDAG12999AY181011AY201011GA1021+003609999GA2021+005409099GF102991021031004501001001MA1098981999999MD1110151+9999MW1251REMSYN016 333 81710 82918MET008NEW NOSIEQDQ01+000000PRSWM2
0183039620999991994010414004+52700-008917SY-MT+0020EINN V0202401N00361220001CN0300001N1+00811+00471099011ADDAG12999AY181021AY211021GA1021+003009999GA2071+005409099GF199999021031008001001001MA1098981999999MD1010031+9999MW1251MW2801REMSYN016 333 81920 81820MET008NEW NOSIEQDQ01+000022SCOTCV
0177039620999991994010415004+52700-008917SY-MT+0020EINN V0202501N00571220001CN0400001N1+00861+00501098981ADDAG12001AY181031AY211031GA1021+006009099GA2021+006009999GF104991041091008001001001MA1098921999999MD1710041+9999MW1031REMSYN016 333 83920 81820MET008NEW NOSIEQDQ01+000000PRSWM2
0177039620999991994010416004+52700-008917SY-MT+0020EINN V0202501N00461075001CN0400001N1+00671+00411098951ADDAG12999AY181011AY211011GA1021+006009099GA2021+006009999GF105991041091008001001021MA1098921999999MD1810081+9999MW1801REMSYN016 333 84920 83075MET008NEW NOSIEQDQ01+000000PRSWM2
0193039620999991994010417004+52700-008917SY-MT+0020EINN V0202101N00361075001CN0300001N1+00601+00391098881ADDAG12999AY181021AY221021GA1021+006009999GA2071+075009999GF199999011021008001001061MA1098921999999MD1710141+9999MW1251REMSYN016 333 81820 86270MET008NEW NOSIEQDQ01+000062SCOTCVQ02+000000PRSWM2
0194039620999991994010418004+52700-008917SY-MT+0020EINN V0201801N00361006001CN0300001N1+00591+00431098771ADDAA199002091AG12002AY181061AY211061GA1021+003609999GA2071+006009999GF108991081081008001999999KA1120M+00911MA1098821999999MD1810221+9999MW1251MW2801REMSYN022 333 10091 85820 87640MET008NEW NOSI
0155039620999991994010419004+52700-008917SY-MT+0020EINN V0201601N00461011401CN0300001N1+00621+00411098621ADDAG12999GA1021+006009999GA2081+011409999GF108991081081008001999999MA1098611999999MD1710321+9999REMSYN016 333 82820 88638MET008NEW NOSIEQDQ01+000000PRSWM2
0186039620999991994010420004+52700-008917SY-MT+0020EINN V0201601N00461004501CN0120001N1+00611+00371098491ADDAG12999AY161021AY221021GA1021+003609999GA2071+004509999GA3081+009009999GF108991081061004501999999MA1098511999999MD1810381+9999MW1601MW2611REMSYN022 333 83710 86715 88630MET008NEW NOSI
0174039620999991994010421004+52700-008917SY-MT+0020EINN V0201301N00721003601CN0150001N1+00511+00361098291ADDAG12002AY161031AY221031GA1021+002409999GA2071+003609999GA3081+006009999GF108991081061002501999999MA1098311999999MD1710471+9999MW1611REMSYN016 333 85707 88710MET008NEW NOSI
0186039620999991994010422004+52700-008917SY-MT+0020EINN V0201301N00671003001CN0120001N1+00501+00351098051ADDAG12999AY161011AY221011GA1021+002409999GA2071+003009999GA3081+004509999GF108991081061002501999999MA1098101999999MD1810571+9999MW1601MW2611REMSYN022 333 82707 86711 88715MET008NEW NOSI
0198039620999991994010423004+52700-008917SY-MT+0020EINN V0201701N00571002701CN0050001N1+00581+00441097941ADDAG12999AY161021AY251021GA1021+001509999GA2071+002709999GA3081+003909999GF108991081061001501999999MA1097901999999MD1710551+9999MW1581MW2611REMSYN022 333 83704 86708 88713MET020NEW BECMG BKN010 BKN
0215039620999991994010500004+52700-008917SY-MT+0020EINN V0202201N00511002401CN0070001N1+00691+00561097841ADDAA106003091AG12002AY161061AY251061GA1021+001209999GA2071+002409999GA3081+003609999GF108991081061001501999999MA1097801999999MD1610451+9999MW1511MW2581MW3611REMSYN022 333 82704 85708 87715MET020NEW BECMG 9999 BKN01
0194039620999991994010501004+52700-008917SY-MT+0020EINN V0202401N00721015001CN0200001N1+00761+00341097711ADDAG12999AY161011AY251011GA1021+002409999GA2021+004509999GA3071+015009999GF108991081051004501999999MA1097801999999MD1710341+9999MW1211MW2511MW3611REMSYN016 333 83715 87656MET016NEW BECMG BKN018
0183039620999991994010502004+52700-008917SY-MT+0020EINN V0202301N00721018001CN0120001N1+00711+00531097641ADDAG12999AY161021AY251021GA1021+005409999GA2081+018009999GF108991081061002501999999MA1097601999999MD1710301+9999MW1581REMSYN022 333 83708 84716 88625MET008NEW NOSIEQDQ01+000000PRSWM2
0193039620999991994010503004+52700-008917SY-MT+0020EINN V0202501N00981004501CN0200001N1+00751+00531097601ADDAG12001AY161031AY251031GA1021+002409999GA2071+004509999GA3071+009009999GF108991081061004501999999MA1097601999999MD1710241+9999MW1211REMSYN016 333 85714 87625MET008NEW NOSIEQDQ01+000000PRSWM2
0204039620999991994010504004+52700-008917SY-MT+0020EINN V0202501N01131003601CN0120001N1+00741+00461097541ADDAG12999AY161011AY251011GA1021+002409999GA2071+003609999GA3071+005409999GF108991081061002501999999MA1097491999999MD1710171+9999MW1211MW2511MW3611REMSYN028 333 83708 85713 87625 81134MET014NEW TEMPO 7000
0178039620999991994010505004+52700-008917SY-MT+0020EINN V0202501N01081004201CN0120001N1+00701+00521097491ADDAG12999AY161021AY251021GA1021+002109999GA2081+004209999GF108991081061002501999999MA1097491999999MD1710151+9999MW1211MW2511MW3611OC101651REMSYN016 333 83709 87714MET008NEW NOSI
0255039620999991994010506004+52700-008917SY-MT+0020EINN V0202601N01291005701CN0120001N1+00651+00421097481ADDAA199004091AG12001AY161061AY251061GA1021+003009999GA2071+005709999GF108991081051004501999999GJ102589IA1099IA2999+00409KA1120N+00471MD1610121+9999MW1211OC101541REMSYN040 333 20047 31004 55043 82710 85620 86650MET019NEW Q974 TEMPO 7000EQDQ01+000000PRSWM2
0237039620999991994010507004+52700-008917SY-MT+0020EINN V0202701N01391003001CN0150001N1+00561+00291097551ADDAG12999AY161011AY251011GA1021+001809999GA2071+003009999GA3071+004509999GF107991071051004501999999MA1097391999999MD1310011+9999MW1211MW2511MW3631OA149902321OC102211REMSYN028 333 82712 83620 85640 91145MET028NEW BECMG 9999 SCT010 BKN020
0117039620999991994010507204+52700-008917FM-15+0020EINN V0202701N01081015001CN0112651N1+00601+00201999999ADDAG11999GA1021+004509999GA2021+007509999GA3071+015009999MA1097491999999OC101951REMMET008NEW NOSIEQDQ01+000000PRSWM2
0224039620999991994010508004+52700-008917SY-MT+0020EINN V0202701N01291015001CN0150001N1+00541+00101097611ADDAG12999AY161021AY221021GA1021+004509999GA2021+007509999GA3071+015009999GF107991071081004501999999MA1097491999999MD1310121+9999MW1211OA149902161OC101951REMSYN028 333 82712 83820 85650 91142MET008NEW NOSIEQDQ01+000000PRSWM2
0211039620999991994010509004+52700-008917SY-MT+0020EINN V0202701N01081006001CN0120001N1+00541+00051097681ADDAG12002AY181031AY261031GA1021+002409999GA2071+006009099GA3071+015009999GF107991071031004501999999MA1097601999999MD1210201+9999MW1251MW2801OA149902061OC101951REMSYN022 333 82710 84920 91140MET014NEW BECMG 9999
0200039620999991994010510004+52700-008917SY-MT+0020EINN V0202801N00981004201CN0200001N1+00511-00021097741ADDAG12999AY181011AY221011GA1021+003009999GA2021+006009099GF107991071031004501999999MA1097701999999MD1210191+9999MW1251OA149901851REMSYN028 333 82714 85920 86650 91136MET008NEW NOSIEQDQ01+000000PRSWM2
0217039620999991994010511004+52700-008917SY-MT+0020EINN V0202601N00931018001CN0200001N1+00571-00101097761ADDAG12999AY181021AY221021GA1021+004209999GA2021+006009099GA3071+018009999GF199999051031004501001011MA1097701999999MD1210151+9999MW1251OC101651REMSYN016 333 81713 83922MET008NEW NOSIEQDQ01+000052SCOTCVQ02+000000PRSWM2
0188039620999991994010512004+52700-008917SY-MT+0020EINN V0202601N00871030001CN0300001N1+00561-00221097751ADDAA106001091AG12001AY181061AY261061GA1021+003909999GA2021+006609099GF106991031031008001031999MA1097701999999MD1110071+9999MW1031REMSYN016 333 81922 84358MET008NEW NOSIEQDQ01+000000PRSWM2
0155039620999991994010513004+52700-008917SY-MT+0020EINN V0202601N00981220001CN0350001N1+00611-00151097731ADDAG12999GA1021+009009999GA2021+075009999GF104991011011008001001021MA1097701999999MD1810011+9999REMSYN016 333 81823 83075MET008NEW NOSIEQDQ01+000000PRSWM2
0139039620999991994010514004+52700-008917SY-MT+0020EINN V0202501N00871075001CN0450001N1+00571-00201097691ADDAG12999GA1021+006909999GF105991031081008001001021MA1097701999999MD1810071+9999REMSYN016 333 83823 83075MET008NEW NOSIEQDQ01+000000PRSWM2
0149039620999991994010515004+52700-008917SY-MT+0020EINN V0202601N00821220001CN0450001N1+00561-00451097641ADDAG12000GA1021+006909999GF199999011081008001001011MA1097601999999MD1810111+9999REMSYN010 333 81823MET008NEW NOSIEQDQ01+000012SCOTCVQ02+000000PRSWM2
0077039620999991994010515294+52700-008917FM-16+0020EINN V0202501N00621220001CN0112651N1+00501-00401999999ADDAG11000GA1021+007209999MA1097601999999REMMET008NEW NOSIEQDQ01+000000PRSWM2
0149039620999991994010516004+52700-008917SY-MT+0020EINN V0202601N00671220001CN0500001N1+00441-00341097631ADDAG12999GA1021+007209999GF199999011081008001031001MA1097601999999MD1610101+9999REMSYN010 333 81824MET008NEW NOSIEQDQ01+000012SCOTCVQ02+000000PRSWM2
0149039620999991994010517004+52700-008917SY-MT+0020EINN V0202601N00461220001CN0400001N1+00291-00331097601ADDAG12999GA1021+007509999GF199999011081008001031001MA1097601999999MD1710091+9999REMSYN010 333 81825MET008NEW NOSIEQDQ01+000012SCOTCVQ02+000000PRSWM2
0179039620999991994010518004+52700-008917SY-MT+0020EINN V0202601N00261220001CN0400001N1+00201-00341097601ADDAA199001091AG12000GA1021+007509999GF199999011051012501001021KA1120M+00681MA1097601999999MD1710051+9999REMSYN016 333 10068 81630MET008NEW NOSIEQDQ01+000012SCOTCVQ02+000000PRSWM2
0149039620999991994010519004+52700-008917SY-MT+0020EINN V0202201N00261220001CN0300001N1+00071-00231097561ADDAG12999GA1021+009009999GF199999011051012501001001MA1097491999999MD1710081+9999REMSYN010 333 81630MET008NEW NOSIEQDQ01+000012SCOTCVQ02+000000PRSWM2
0124039620999991994010520004+52700-008917SY-MT+0020EINN V0202001N00101220001CN0300001N1+00021-00291097561ADDAG12999GF100991001001999999001001MA1097491999999MD1710051+9999REMSYN010 333 92600MET015NEW CAVOK NOSIGEQDQ01+000000PRSWM2
0124039620999991994010521004+52700-008917SY-MT+0020EINN V0201501N00151220001CN0300001N1+00011-00331097581ADDAG11000GF100991001001999999001001MA1097491999999MD1710021+9999REMSYN010 333 92610MET015NEW CAVOK NOSIGEQDQ01+000000PRSWM2
0124039620999991994010522004+52700-008917SY-MT+0020EINN V0201301N00211220001CN0200001N1+00001-00371097591ADDAG11999GF100991001001999999001001MA1097491999999MD1310031+9999REMSYN010 333 92611MET015NEW CAVOK NOSIGEQDQ01+000000PRSWM2
0124039620999991994010523004+52700-008917SY-MT+0020EINN V0201301N00151220001CN0180001N1-00041-00321097601ADDAG11999GF100991001001999999001001MA1097491999999MD1210041+9999REMSYN010 333 92611MET015NEW CAVOK NOSIGEQDQ01+000000PRSWM2
0157039620999991994010600004+52700-008917SY-MT+0020EINN V0201401N00311220001CN0070001N1-00021-00261097641ADDAA106999929AG13000AY101061AY201061GF100991001001999999001001MA1097601999999MD1310061+9999MW1101REMSYN010 333 92611MET015NEW CAVOK NOSIGEQDQ01+000000PRSWM2
0177039620999991994010601004+52700-008917SY-MT+0020EINN V0201301N00261220001CN0070001N1-00021-00261097671ADDAG11999AY101011AY201011GA1021+012009999GF199999011051012501001001MA1097601999999MD1210081+9999MW1101REMSYN016 333 81640 92611MET008NEW NOSIEQDQ01+000012SCOTCVQ02+000000PRSWM2
0177039620999991994010602004+52700-008917SY-MT+0020EINN V0209991C00001220001CN0070001N1-00011-00251097721ADDAG11999AY101021AY201021GA1021+012009999GF199999011051012501001001MA1097601999999MD1210121+9999MW1101REMSYN016 333 81640 92611MET008NEW NOSIEQDQ01+000012SCOTCVQ02+000000PRSWM2
0177039620999991994010603004+52700-008917SY-MT+0020EINN V0203401N00151220001CN0090001N1-00121-00301097811ADDAG11000AY101031AY201031GA1021+012009999GF199999011051012501001001MA1097701999999MD1210171+9999MW1101REMSYN016 333 81640 92611MET008NEW NOSIEQDQ01+000012SCOTCVQ02+000000PRSWM2
0155039620999991994010604004+52700-008917SY-MT+0020EINN V0200101N00151220001CN0200001N1-00161-00391097911ADDAG11999GA1021+012009999GF199999011051012501001001MA1097801999999MD1210241+9999REMSYN016 333 81640 92611MET008NEW NOSIEQDQ01+000012SCOTCVQ02+000000PRSWM2
0155039620999991994010605004+52700-008917SY-MT+0020EINN V0203301N00101220001CN0250001N1-00181-00391097931ADDAG11999GA1021+012009999GF199999011051012501001001MA1097901999999MD1210211+9999REMSYN016 333 81640 92611MET008NEW NOSIEQDQ01+000012SCOTCVQ02+000000PRSWM2
0223039620999991994010606004+52700-008917SY-MT+0020EINN V0200501N00051220001CN0250001N1-00271-00371098011ADDAA199999929AG13000GA1021+012009999GF199999011051012501001001GJ101989IA1149IA2999-00909KA1120N-00271MA1097901999999MD1210201+9999REMSYN034 333 21027 34109 55033 81640 92611MET008NEW NOSIEQDQ01+000012SCOTCVQ02+000000PRSWM2
0124039620999991994010607004+52700-008917SY-MT+0020EINN V0209991C00001220001CN0250001N1-00361-00471098081ADDAG11999GF100991001001999999001001MA1098001999999MD1210171+9999REMSYN010 333 92611MET015NEW CAVOK NOSIGEQDQ01+000000PRSWM2
0068039620999991994010607304+52700-008917FM-15+0020EINN V0209991C00001999991CY0099001N1-00301-00401999999ADDAG11999MA1098101999999REMMET015NEW CAVOK NOSIGEQDQ01+000000PRSWM2
0184039620999991994010609004+52700-008917SY-MT+0020EINN V0209991C00001015001CN0250001N1-00231-00391098211ADDAG11000GA1051+015009059GA2031+060009009GF106991051051017501999021MA1098101999999MD1210201+9999REMSYN022 333 85650 83070 92611MET015NEW CAVOK NOSIGEQDQ01+000000PRSWM2Q02    003SCOMCG
0168039620999991994010610004+52700-008917SY-MT+0020EINN V0202801N00211015001CN0300001N1+00021-00291098261ADDAG11999GA1011+005409079GA2051+015009059GF106991051051004501031001MA1098211999999MD1110181+9999REMSYN022 333 81718 85650 92611MET015NEW CAVOK NOSIGEQDQ01+000000PRSWM2
0171039620999991994010611004+52700-008917SY-MT+0020EINN V0202501N00361015001CN0300001N1+00181-00521098261ADDAG11999GA1021+005409999GA2071+015009999GF199999031051004501031021MA1098211999999MD1010121+9999REMSYN016 333 82718 83650MET008NEW NOSIEQDQ01+000052SCOTCVQ02+000000PRSWM2
0156039620999991994010612004+52700-008917SY-MT+0020EINN V0202801N00051004201CN0400001N1+00361+00071098251ADDAA106999929AG13000GA1021+015009999GF107991061051004501031999MA1098211999999MD1110051+9999REMSYN022 333 81718 83630 85650MET008NEW NOSIEQDQ01+000000PRSWM2
0093039620999991994010612304+52700-008917FM-15+0020EINN V0202501N00151220001CN0112651N1+00401+00101999999ADDAG11999GA1021+005409999GA2021+009009999MA1098211999999REMMET008NEW NOSIEQDQ01+000000PRSWM2
0161039620999991994010614004+52700-008917SY-MT+0020EINN V0200701N00101009001CN0300001N1+00521+00271098271ADDAG11999GA1021+005409999GA2071+009009999GF107991071081004501999999MA1098211999999MD1310021+9999REMSYN022 333 82712 83819 86650MET008NEW NOSIEQDQ01+000000PRSWM2
0186039620999991994010615004+52700-008917SY-MT+0020EINN V0203501N00411005401CN0200001N1+00451+00201098361ADDAG12000AY151031AY221031GA1021+003309999GA2071+005409999GA3071+009009999GF107991071061004501999999MA1098311999999MD1310111+9999MW1501MW2511REMSYN022 333 81710 84717 87640MET008NEW NOSI
0187039620999991994010616004+52700-008917SY-MT+0020EINN V0203501N00361012001CN0200001N1+00391+00191098501ADDAG11999GA1021+003009999GA2021+006009999GA3071+012009999GF199999041061004501001021MA1098411999999MD1310261+9999REMSYN016 333 82710 83628MET008NEW NOSIEQDQ01+000052SCOTCVQ02+000000PRSWM2
0149039620999991994010617004+52700-008917SY-MT+0020EINN V0203401N00461220001CN0200001N1+00241+00021098671ADDAG11999GA1021+003009999GF199999011061004501001021MA1098511999999MD1310391+9999REMSYN010 333 81710MET008NEW NOSIEQDQ01+000012SCOTCVQ02+000000PRSWM2
0207039620999991994010618004+52700-008917SY-MT+0020EINN V0203101N00511220001CN0200001N1+00211+00081098791ADDAA199999929AG11000AY151061AY211061GA1021+004509999GF199999011081004501001001KA1120M+00591MA1098711999999MD1210421+9999MW1031REMSYN022 333 10059 81818 92600MET008NEW NOSIEQDQ01+000012SCOTCVQ02+000000PRSWM2
0121039620999991994010619004+52700-008917SY-MT+0020EINN V0203101N00411009001CN0200001N9+00211+00021098891ADDAG12999GA1021+005409999GA2021+010509999GF105991051081004501999999MD1210381+9999REMSYN016 333 83818 83635MET008NEW NOSI
0171039620999991994010620004+52700-008917SY-MT+0020EINN V0203201N00361220001CN0200001N1+00331+00061098971ADDAG11999GA1021+006009999GA2071+010509999GF199999031081008001001001MA1098921999999MD1210301+9999REMSYN016 333 81820 83635MET008NEW NOSIEQDQ01+000032SCOTCVQ02+000000PRSWM2
0149039620999991994010621004+52700-008917SY-MT+0020EINN V0203201N00361220001CN0200001N1+00371+00081099061ADDAG12000GA1021+006009999GF199999011051012501001001MA1098981999999MD1210271+9999REMSYN010 333 81635MET008NEW NOSIEQDQ01+000012SCOTCVQ02+000000PRSWM2
0133039620999991994010622004+52700-008917SY-MT+0020EINN V0203001N00261012001CN0250001N1+00421+00131099141ADDAG11999GA1021+009609999GF107991071051012501999999MA1098981999999MD1210251+9999REMSYN010 333 86630MET008NEW NOSIEQDQ01+000000PRSWM2
0155039620999991994010623004+52700-008917SY-MT+0020EINN V0203201N00211008101CN0250001N1+00471+00141099211ADDAG12999GA1071+008109999GA2071+010509999GF107991071051008001999999MA1099091999999MD1210241+9999REMSYN016 333 86626 86636MET008NEW NOSIEQDQ01+000000PRSWM2
0150039620999991994010700004+52700-008917SY-MT+0020EINN V0203201N00461009001CN0250001N1+00511+00131099281ADDAA106999929AG13000GA1071+009009999GF107991071051008001999999MA1099191999999MD1210221+9999REMSYN016 333 85628 85636MET008NEW NOSIEQDQ01+000000PRSWM2
0093039620999991994010700204+52700-008917FM-15+0020EINN V0203301N00571015001CN0112651N1+00501+00101999999ADDAG11000GA1021+010509999GA2071+015009999MA1099191999999REMMET008NEW NOSIEQDQ01+000000PRSWM2
0161039620999991994010701004+52700-008917SY-MT+0020EINN V0203301N00571015001CN0200001N1+00511+00251099351ADDAG12999GA1021+010509999GA2071+015009999GF108991081051004501999999MA1099191999999MD1210211+9999REMSYN022 333 82710 84620 87635MET008NEW NOSIEQDQ01+000000PRSWM2
0155039620999991994010702004+52700-008917SY-MT+0020EINN V0203301N00571006601CN0200001N1+00521+00251099441ADDAG12999GA1071+006609999GA2071+010509999GF107991071051008001999999MA1099291999999MD1210231+9999REMSYN016 333 85622 87635MET008NEW NOSIEQDQ01+000000PRSWM2
0177039620999991994010703004+52700-008917SY-MT+0020EINN V0203201N00461012001CN0200001N1+00521+00271099531ADDAG12001AY181031AY221031GA1021+006609999GA2071+012009999GF107991071051008001999999MA1099391999999MD1210251+9999MW1021REMSYN016 333 84620 87635MET008NEW NOSIEQDQ01+000000PRSWM2
0155039620999991994010704004+52700-008917SY-MT+0020EINN V0203201N00411012001CN0200001N1+00511+00311099601ADDAG12999GA1021+006009999GA2021+010509999GF107991071081008001999999MA1099491999999MD1210251+9999REMSYN016 333 82820 86640MET008NEW NOSIEQDQ01+000000PRSWM2
0155039620999991994010705004+52700-008917SY-MT+0020EINN V0203301N00571012001CN0250001N1+00491+00271099711ADDAG11999GA1021+006009999GA2071+012009999GF107991071051008001999999MA1099591999999MD1210271+9999REMSYN016 333 83629 87640MET008NEW NOSIEQDQ01+000000PRSWM2
0251039620999991994010706004+52700-008917SY-MT+0020EINN V0203301N00461012001CN0250001N1+00471+00251099801ADDAA199999929AG11002AY181061AY221061GA1021+006309999GA2071+012009999GF199999061081008001999999GJ100189IA1099IA2999-00109KA1120N+00161MA1099701999999MD1210271+9999MW1251MW2801REMSYN034 333 20016 31101 55003 83821 85637MET008NEW NOSIEQDQ01+000062SCOTCV
0171039620999991994010707004+52700-008917SY-MT+0020EINN V0203401N00571011101CN0250001N1+00481+00231099911ADDAG11999GA1021+006309999GA2071+011109999GF199999061081008001999999MA1099801999999MD1210311+9999REMSYN016 333 83821 85635MET008NEW NOSIEQDQ01+000062SCOTCVQ02+000000PRSWM2
0149039620999991994010708004+52700-008917SY-MT+0020EINN V0203301N00411220001CN0250001N1+00391+00191099831ADDAG11999GA1021+006309999GF199999011081008001001001MA1099701999999MD1010121+9999REMSYN010 333 81822MET008NEW NOSIEQDQ01+000012SCOTCVQ02+000000PRSWM2
0130039620999991994010709004+52700-008917SY-MT+0020EINN V0203401N00461220001CN0250001N1+00371+00191099921ADDAG11000GA1021+007509999GF103991011051008001001021MD1210121+9999REMSYN016 333 81825 83070MET014NEW Q998 NOSIGEQDQ01+000000PRSWM2
0155039620999991994010710004+52700-008917SY-MT+0020EINN V0202801N00261030001CN0300001N1+00331+00141100121ADDAG11999GA1021+005409999GA2021+060009999GF107991011051008001041081MA1100001999999MD1210211+9999REMSYN016 333 81620 87275MET008NEW NOSIEQDQ01+000000PRSWM2
0155039620999991994010711004+52700-008917SY-MT+0020EINN V0203001N00261075001CN0300001N1+00411+00211100191ADDAG11999GA1021+006009999GA2071+075009999GF107991011081008001001081MA1100101999999MD1210361+9999REMSYN016 333 81820 86275MET008NEW NOSIEQDQ01+000000PRSWM2
0182039620999991994010712004+52700-008917SY-MT+0020EINN V0202801N00101075001CN0300001N1+00561+00321100211ADDAA106000091AG11000GA1021+007509999GA2071+075009999GF199999011051008001001081MA1100101999999MD1210291+9999REMSYN016 333 81622 85275MET008NEW NOSIEQDQ01+000062SCOTCVQ02+000000PRSWM2
0155039620999991994010713004+52700-008917SY-MT+0020EINN V0202301N00051075001CN0300001N1+00611+00321100221ADDAG11999GA1021+006009999GA2071+075009999GF107991051051008001001081MA1100201999999MD1210101+9999REMSYN016 333 85624 85275MET008NEW NOSIEQDQ01+000000PRSWM2
0161039620999991994010714004+52700-008917SY-MT+0020EINN V0202501N00051075001CN0300001N1+00601+00391100181ADDAG11999GA1021+007809999GA2071+075009999GF107991011051008001051061MA1100201999999MD1810011+9999REMSYN022 333 81626 83358 87275MET008NEW NOSIEQDQ01+000000PRSWM2
0162039620999991994010715004+52700-008917SY-MT+0020EINN V0202801N00101060001CN0200001N1+00611+00371100161ADDAG11000GA1021+030009039GA2071+060009029GF107991021001999999041061MA1100101999999MD1810051+9999REMSYN016 333 82360 87270MET015NEW CAVOK NOSIGEQDQ01+000000PRSWM2
0162039620999991994010716004+52700-008917SY-MT+0020EINN V0202001N00051060001CN0200001N1+00481+00361100161ADDAG11999GA1011+030009039GA2081+060009029GF108991011001999999041071MA1100101999999MD1610061+9999REMSYN016 333 81360 88270MET015NEW CAVOK NOSIGEQDQ01+000000PRSWM2
0184039620999991994010717004+52700-008917SY-MT+0020EINN V0201501N00051060001CN0150001N1+00421+00301100181ADDAG11999AY121021AY221021GA1011+030009039GA2071+060009029GF107991011001999999031081MA1100101999999MD1410001+9999MW1101REMSYN016 333 81360 87270MET015NEW CAVOK NOSIGEQDQ01+000000PRSWM2
0212039620999991994010718004+52700-008917SY-MT+0020EINN V0201201N00211060001CN0030001N1+00311+00211100201ADDAA199999929AG13000AY121061AY221061GA1021+030009999GA2071+060009999GF107991011051012501031081KA1120M+00651MA1100201999999MD1210041+9999MW1041MW2101REMSYN040 333 10065 81640 86270 92600 98358 98558MET008NEW NOSI
0206039620999991994010719004+52700-008917SY-MT+0020EINN V0201301N00211060001CN0025001N1+00251+00171100201ADDAG11999AY121011AY221011ED199U14009GA1021+012009999GA2071+060009999GF199999011051012501031021MA1100201999999MD1110041+9999MW1041REMSYN034 333 81640 85070 92600 98356 98656MET008NEW NOSIEQDQ01+000052SCOTCV
0183039620999991994010720004+52700-008917SY-MT+0020EINN V0201201N00361220001CN0050001N1+00181+00101100181ADDAG11999AY111021AY211021GA1021+030009999GA2021+060009999GF103991011001999999031021MA1100101999999MD1010001+9999MW1101REMSYN022 333 81360 83070 92600MET008NEW NOSIEQDQ01+000000PRSWM2
0164039620999991994010721004+52700-008917SY-MT+0020EINN V0201201N00311220001CN0030001N1+00101+00021100191ADDAG11000AY111031AY211031GA1021+030009999GA2021+060009999GF103991011001999999031021MA1100101999999MD1510011+9999MW1101REMSYN022 333 81360 83070 92600MET008NEW NOSI
0161039620999991994010722004+52700-008917SY-MT+0020EINN V0201201N00361220001CN0040001N1+00061-00051100121ADDAG11999AY101011AY201011GA1021+030009999GF103991999001999999031001MA1100101999999MD1810081+9999MW1101REMSYN016 333 83360 92600MET008NEW NOSIEQDQ01+000012SCOTLC
0183039620999991994010723004+52700-008917SY-MT+0020EINN V0201201N00361220001CN0060001N1+00101-00011100131ADDAG11999AY101021AY201021GA1021+030009999GF199999011001999999031001MA1100101999999MD1610051+9999MW1101REMSYN022 333 81360 98560 92600MET008NEW NOSIEQDQ01+000012SCOTCVQ02+000000PRSWM2
0178039620999991994010800004+52700-008917SY-MT+0020EINN V0201201N00311075001CN0090001N1+00141+00031100111ADDAA106999929AG13000AY111061AY211061GA1021+030009999GF106991021001999999031021MA1100101999999MD1610081+9999MW1101REMSYN022 333 82360 85070 92600MET008NEW NOSIEQDQ01+000000PRSWM2
0199039620999991994010801004+52700-008917SY-MT+0020EINN V0201201N00411060001CN0080001N1+00171+00041100001ADDAG11999AY121011AY221011GA1021+003009999GA2071+060009999GF107991031001999999031021MA1100001999999MD1810121+9999MW1101REMSYN022 333 83360 87070 92600MET008NEW NOSIEQDQ01+000992SCOLCBQ02+000000PRSWM2
0177039620999991994010802004+52700-008917SY-MT+0020EINN V0201101N00621060001CN0090001N1+00231+00101099921ADDAG11999AY121021AY221021GA1021+027009999GA2071+060009999GF107991031001999999031021MA1099901999999MD1810211+9999MW1101REMSYN016 333 83359 87070MET008NEW NOSIEQDQ01+000000PRSWM2
0070039620999991994010802304+52700-008917FM-16+0020EINN V0201201N00411220001CN0112651N1+99999+99999999999ADDAG11999REMMET032SCT 032 BKN200 03/01 Q0999 NOSIGEQDQ01+000000PRSWM2
0177039620999991994010803004+52700-008917SY-MT+0020EINN V0201101N00461008401CN0120001N1+00281+00151099891ADDAG11000AY121031AY221031GA1071+008409999GA2071+030009999GF107991051051008001071999MA1099801999999MD1610221+9999MW1101REMSYN016 333 85628 87460MET008NEW NOSIEQDQ01+000000PRSWM2
0161039620999991994010804004+52700-008917SY-MT+0020EINN V0201101N00621030001CN0200001N1+00321+00191099761ADDAG11999GA1021+009009999GA2071+030009999GF107991061051008001071999MA1099801999999MD1710241+9999REMSYN022 333 83625 85650 87460MET008NEW NOSIEQDQ01+000000PRSWM2
0193039620999991994010805004+52700-008917SY-MT+0020EINN V0201201N00361015001CN0200001N1+00531+00331099691ADDAG12999AY161021AY221021GA1021+006009999GA2071+015009999GA3071+030009999GF108991061051008001021999MA1099701999999MD1710231+9999MW1601REMSYN016 333 86622 88556MET008NEW NOSIEQDQ01+000000PRSWM2
0238039620999991994010806004+52700-008917SY-MT+0020EINN V0201401N00571006001CN0200001N1+00601+00461099631ADDAA199001091AG12002AY161061AY261061GA1071+006009999GA2081+018009999GF108991061061004501021999GJ100669IA1099IA2999-00309KA1120N+00051MA1099591999999MD1710261+9999MW1611MW2631REMSYN040 333 20005 31103 55011 83710 85620 88556MET008NEW NOSI
0186039620999991994010807004+52700-008917SY-MT+0020EINN V0201301N00671015001CN0150001N1+00621+00551099571ADDAG12999AY161011AY261011GA1021+002109999GA2021+006009999GA3081+015009999GF108991051061002501021999MA1099491999999MD1710191+9999MW1611MW2631REMSYN022 333 83709 84716 88550MET008NEW NOSI
0100039620999991994010808004+52700-008917FM-15+0020EINN V0201201N00621220001CN0112651N1+99999+99999999999ADDAG12999GA1021+003009999MW1611REMMET040NEW OVC045 07/06 Q0995 RERA TEMPO BKN010EQDQ01+028923ATOT  
0171039620999991994010809004+52700-008917SY-MT+0020EINN V0201201N00511003301CN0400001N9+00671+00561099471ADDAG12001AY161031AY221031GA1071+003309999GA2071+004209999GA3081+012009999GF108991081061004501999999MD1710161+9999MW1211REMSYN022 333 85713 85716 88640MET014NEW RERA NOSIG
0204039620999991994010810004+52700-008917SY-MT+0020EINN V0201201N00361003901CN0300001N1+00711+00581099441ADDAA124671092AG12999AY161011AY221011GA1021+002709999GA2071+003909999GA3081+012009999GF108991081061002501999999MA1099391999999MD1710131+9999MW1211REMSYN016 333 76713 88640MET008NEW NOSIEQDQ01+000000PRSWM2
0186039620999991994010811004+52700-008917SY-MT+0020EINN V0201601N00211003301CN0070001N1+00701+00591099441ADDAG12999AY161021AY251021GA1021+002409999GA2071+003309999GA3071+006009999GF108991081061002501999999MA1099391999999MD1610071+9999MW1581MW2611REMSYN022 333 84706 86712 87620MET008NEW NOSI
0210039620999991994010812004+52700-008917SY-MT+0020EINN V0202601N00361003601CN0150001N1+00741+00651099401ADDAA106006091AG12001AY161061AY251061GA1021+002109999GA2071+003609999GA3071+006009999GF107991041061002501071021MA1099391999999MD1710071+9999MW1211REMSYN022 333 81706 83640 87270MET008NEW NOSIEQDQ01+000000PRSWM2
0171039620999991994010813004+52700-008917SY-MT+0020EINN V0202701N00411027001CN0300001N1+00741+00581099411ADDAG12999GA1021+002109999GA2071+027009999GA3071+060009999GF107991021051004501071999MA1099391999999MD1510031+9999REMSYN016 333 81710 87459MET008NEW NOSIEQDQ01+000000PRSWM2
0177039620999991994010814004+52700-008917SY-MT+0020EINN V0202701N00361060001CN0200001N1+00791+00611099411ADDAG12999GA1021+005409999GA2021+015009999GA3071+060009999GF107991021061004501071081MA1099291999999MD1610021+9999REMSYN022 333 82713 86459 86270MET008NEW NOSIEQDQ01+000000PRSWM2
0187039620999991994010815004+52700-008917SY-MT+0020EINN V0202601N00261090001CN0200001N1+00801+00601099431ADDAG12000GA1021+003909999GA2021+027009999GA3071+090009999GF199999021011004501031021MA1099391999999MD1310041+9999REMSYN016 333 82816 85080MET008NEW NOSIEQDQ01+000062SCOTCVQ02+000000PRSWM2
0155039620999991994010816004+52700-008917SY-MT+0020EINN V0202301N00261030001CN0200001N1+00661+00551099481ADDAG12999GA1021+004809999GA2021+090009999GF106991011081004501071011MA1099391999999MD1310071+9999REMSYN016 333 81816 84080MET008NEW NOSIEQDQ01+000000PRSWM2
0171039620999991994010817004+52700-008917SY-MT+0020EINN V0202401N00361090001CN0200001N1+00581+00391099531ADDAG12999GA1021+004809999GA2071+090009999GF199999011011004501071011MA1099391999999MD1210111+9999REMSYN016 333 81816 85080MET008NEW NOSIEQDQ01+000062SCOTCVQ02+000000PRSWM2
0185039620999991994010818004+52700-008917SY-MT+0020EINN V0202301N00211075001CN0250001N1+00481+00331099581ADDAA199006091AG10000GA1021+004809999GA2021+027009999GF105991011011004501071021KA1120M+00881MA1099491999999MD1210141+9999REMSYN022 333 10088 81816 83459MET008NEW NOSIEQDQ01+000000PRSWM2
0155039620999991994010819004+52700-008917SY-MT+0020EINN V0201901N00261030001CN0150001N1+00381+00231099581ADDAG12999GA1021+004509999GA2021+024009999GF106991011011004501071021MA1099491999999MD1110101+9999REMSYN016 333 81815 84458MET008NEW NOSIEQDQ01+000000PRSWM2
0155039620999991994010820004+52700-008917SY-MT+0020EINN V0201601N00261220001CN0200001N1+00331+00171099561ADDAG12999GA1021+024009999GA2021+075009999GF103991021001999999071021MA1099491999999MD1010031+9999REMSYN016 333 82458 83075MET008NEW NOSIEQDQ01+000000PRSWM2
0139039620999991994010821004+52700-008917SY-MT+0020EINN V0201101N00261220001CN0150001N1+00291+00161099541ADDAG11000GA1021+024009999GF102991021001999999071001MA1099491999999MD1810041+9999REMSYN016 333 82458 92600MET008NEW NOSIEQDQ01+000000PRSWM2
0146039620999991994010822004+52700-008917SY-MT+0020EINN V0201101N00461220001CN0150001N1+00241+00141099451ADDAG11999GA1011+024009039GF101991011001999999031001MA1099391999999MD1810131+9999REMSYN016 333 81358 92600MET015NEW CAVOK NOSIGEQDQ01+000000PRSWM2
0146039620999991994010823004+52700-008917SY-MT+0020EINN V0201301N00461014401CN0150001N1+00241+00141099461ADDAG11999GA1051+014409059GF106991051051012501031001MA1099391999999MD1510101+9999REMSYN016 333 85648 92600MET015NEW CAVOK NOSIGEQDQ01+000000PRSWM2
0144039620999991994010900004+52700-008917SY-MT+0020EINN V0201201N00261013501CN0150001N1+00431+00311099461ADDAA106999929AG13000GA1071+013509999GF108991081051012501999999MA1099391999999MD1510081+9999REMSYN010 333 88645MET008NEW NOSIEQDQ01+000000PRSWM2
0145039620999991994010901004+52700-008917SY-MT+0020EINN V0201201N00571012001CN0200001N1+00491+00321099341ADDAG11999GA1071+012009999GF108991051051008001071999MA1099291999999MD1810111+9999REMSYN022 333 82623 85640 88458MET008NEW NOSIEQDQ01+000000PRSWM2
0177039620999991994010902004+52700-008917SY-MT+0020EINN V0201201N00671014101CN0200001N1+00611+00471099121ADDAG11999GA1021+006909999GA2071+014109999GA3081+024009999GF108991081051004501999999MA1099191999999MD1810341+9999REMSYN022 333 82714 84622 88634MET008NEW NOSIEQDQ01+000000PRSWM2
0177039620999991994010903004+52700-008917SY-MT+0020EINN V0201301N00571006601CN0200001N1+00691+00561099061ADDAG11000GA1021+002709999GA2071+006609999GA3081+013809999GF108991081051004501999999MA1098981999999MD1610401+9999REMSYN022 333 81710 84620 88630MET008NEW NOSIEQDQ01+000000PRSWM2
0177039620999991994010904004+52700-008917SY-MT+0020EINN V0201401N00671007501CN0200001N1+00781+00601098951ADDAG11999GA1021+003009999GA2071+007509999GA3081+012009999GF108991081051004501999999MA1098921999999MD1710381+9999REMSYN022 333 83712 86625 88645MET008NEW NOSIEQDQ01+000000PRSWM2
0193039620999991994010905004+52700-008917SY-MT+0020EINN V0201401N00871013501CN0200001N1+00831+00631098741ADDAG12999AY161021AY221021GA1021+004509999GA2021+009009999GA3081+013509999GF108991081051008001999999MA1098821999999MD1810371+9999MW1211REMSYN016 333 84620 88645MET008NEW NOSIEQDQ01+000000PRSWM2
0245039620999991994010906004+52700-008917SY-MT+0020EINN V0201501N00931015001CN0200001N1+00871+00661098551ADDAA199999929AG12001AY161061AY221061GA1021+006009999GA2071+015009999GF108991081051008001999999GJ100249IA1099IA2999-00309KA1120N+00151MA1098611999999MD1710521+9999MW1021REMSYN034 333 20015 31103 55004 83620 88650MET008NEW NOSIEQDQ01+000000PRSWM2
0200039620999991994010907004+52700-008917SY-MT+0020EINN V0201501N01181015001CN0200001N1+00901+00711098391ADDAG12999AY161011AY221011GA1021+005409999GA2081+015009999GF108991081061004501999999MA1098411999999MD1710561+9999MW1211OA149901751REMSYN028 333 82712 85718 88635 91134MET008NEW NOSIEQDQ01+000000PRSWM2
0181039620999991994010908004+52700-008917SY-MT+0020EINN V0201401N01291004501CN0150001N1+00911+00731098221ADDAG12999AY161021AY261021GA1071+004509999GA2071+007509999GF108991081061004501999999MA1098311999999MD1710521+9999MW1611OA149901701REMSYN028 333 83715 85622 87650 91133MET008NEW NOSI
0192039620999991994010909004+52700-008917SY-MT+0020EINN V0201401N01131005401CN0090001N1+00941+00771098061ADDAG12002AY161031AY261031GA1021+003009999GA2071+005409999GA3071+015009999GF108991081061002501999999MA1098101999999MD1710471+9999MW1611REMSYN022 333 82709 85715 88635MET020NEW TEMPO 7000 BKN00
0209039620999991994010910004+52700-008917SY-MT+0020EINN V0201401N01181004501CN0090001N1+00941+00751097931ADDAG12999AY161011AY261011GA1021+002409999GA2071+004509999GA3081+007509999GF108991081061004501999999MA1098001999999MD1710461+9999MW1611OA149901801REMSYN028 333 82710 85715 87624 91135MET020NEW TEMPO 7000 BKN00
0116039620999991994010910204+52700-008917FM-15+0020EINN V0201501N01291006001CN0090001N1+01001+00801999999ADDAG11999GA1021+003009999GA2021+004509999GA3071+006009999MA1097801999999MW1611OC101901REMMET020NEW TEMPO 7000 BKN00
0217039620999991994010911004+52700-008917SY-MT+0020EINN V0201501N01341006001CN0080001N1+00991+00781097801ADDAG12999AY161021AY261021GA1021+003009999GA2021+004509999GA3071+006009999GF108991081061002501999999MA1097801999999MD1710421+9999MW1611OA149902061OC101901REMSYN028 333 82708 85714 87620 91140MET020NEW TEMPO 7000 BKN00
0234039620999991994010912004+52700-008917SY-MT+0020EINN V0201501N01541004501CN0080001N1+01021+00811097531ADDAA106004091AG12002AY161061AY261061GA1021+002709999GA2071+004509999GA3071+006009999GF108991081061002501999999MA1097601999999MD1810531+9999MW1611OA149902371OC101951REMSYN034 333 82708 85715 87620 90010 91146MET020NEW TEMPO 7000 BKN00
0217039620999991994010913004+52700-008917SY-MT+0020EINN V0201401N01391004501CN0120001N1+01011+00821097341ADDAG12999AY161011AY261011GA1021+002409999GA2071+004509999GA3071+006009999GF108991081061002501999999MA1097391999999MD1710591+9999MW1611OA149902471OC102111REMSYN028 333 82708 83715 87620 91148MET020NEW TEMPO 7000 BKN00
0202039620999991994010914004+52700-008917SY-MT+0020EINN V0201501N01341001801CN0060001N9+00981+00811097211ADDAG12999AY161021AY261021GA1021+001509999GA2071+001809999GA3081+003009999GF108991081061001501999999MD1710591+9999MW1631OA149902061REMSYN028 333 83705 85708 88710 91140MET028NEW BECMG 9999 SCT010 BKN020
0172039620999991994010915004+52700-008917SY-MT+0020EINN V0201601N00981006001CN0250001N1+00951+00721097181ADDAG12002AY161031AY261031GA1021+002409999GA2071+006009999GF108991081051004501999999MA1097191999999MD1610351+9999MW1611REMSYN022 333 83710 87620 88640MET016NEW BECMG BKN020
0109039620999991994010915204+52700-008917FM-15+0020EINN V0201701N00671006001CN0112651N1+00901+00701999999ADDAG11000GA1021+003909999GA2071+006009999GA3081+015009999MA1097091999999REMMET008NEW NOSIEQDQ01+000000PRSWM2
0215039620999991994010916004+52700-008917SY-MT+0020EINN V0201701N00871006001CN0250001N1+00921+00611097181ADDAG12999AY161011AY221011GA1021+003909999GA2071+006009999GA3081+015009999GF199999071051004501999999MA1097091999999MD1610161+9999MW1211REMSYN022 333 83715 83620 85650MET008NEW NOSIEQDQ01+000072SCOTCVQ02+000000PRSWM2
0177039620999991994010917004+52700-008917SY-MT+0020EINN V0201601N00721015001CN0200001N1+00871+00561097161ADDAG12999GA1021+004509999GA2021+006009999GA3071+015009999GF107991071051004501999999MA1097091999999MD1710051+9999REMSYN022 333 83718 83625 87650MET008NEW NOSIEQDQ01+000000PRSWM2
0185039620999991994010918004+52700-008917SY-MT+0020EINN V0201701N00931004201CN0200001N1+00801+00561097231ADDAA199008091AG12002AY181061AY261061GA1021+003009999GA2021+006009099GF105991051031004501001001KA1120M+01041MD1310051+9999MW1251MW2801REMSYN022 333 10104 81710 83920MET014NEW Q971 NOSIG
0155039620999991994010919004+52700-008917SY-MT+0020EINN V0201901N00821004201CN0200001N1+00701+00421097301ADDAG12999GA1021+004509999GA2021+006009099GF105991051031004501001001MA1097291999999MD1310121+9999REMSYN016 333 81715 83920MET008NEW NOSIEQDQ01+000000PRSWM2
0163039620999991994010920004+52700-008917SY-MT+0020EINN V0201901N00511004201CN0200001N1+00601+00331097451ADDAG12999GA1021+004509999GA2021+006009099GF107991071031004501999999MA1097291999999MD1210291+9999OC101341REMSYN016 333 81712 85921MET008NEW NOSIEQDQ01+000000PRSWM2
0158039620999991994010921004+52700-008917SY-MT+0020EINN V0202001N00461006601CN0120001N1+00581+00391097611ADDAG12002AY181031AY211031GA1021+003609999GA2071+006609099GF107991071031002501999999MA1097491999999MD1210381+9999MW1801REMSYN016 333 83708 86918MET008NEW NOSI
0177039620999991994010922004+52700-008917SY-MT+0020EINN V0201601N00461004201CN0200001N1+00521+00321097681ADDAG12999AY181011AY221011GA1021+003609999GA2021+005409099GF105991051031004501001001MA1097601999999MD1210381+9999MW1251REMSYN016 333 81712 82918MET008NEW NOSIEQDQ01+000000PRSWM2
0133039620999991994010923004+52700-008917SY-MT+0020EINN V0201601N00461220001CN0250001N1+00531+00181097761ADDAG12999GA1021+005409099GF103991031031004501001001MA1097701999999MD1210311+9999REMSYN010 333 82918MET008NEW NOSIEQDQ01+000000PRSWM2
0166039620999991994011000004+52700-008917SY-MT+0020EINN V0201501N00511220001CN0250001N1+00551+00281097871ADDAA106000591AG12001AY181061AY211061GA1021+005409099GF102991021031004501001001MA1097801999999MD1210261+9999MW1011REMSYN010 333 81918MET008NEW NOSIEQDQ01+000000PRSWM2
0133039620999991994011001004+52700-008917SY-MT+0020EINN V0201401N00621220001CN0250001N1+00511+00291097911ADDAG12999GA1021+005409099GF102991021081008001001001MA1097901999999MD1210231+9999REMSYN010 333 81820MET008NEW NOSIEQDQ01+000000PRSWM2
0061039620999991994011001304+52700-008917FM-16+0020EINN V0201401N004619999999N0112651N1+99999+99999999999ADDAG11999MA1097901999999REMMET008NEW NOSIEQDQ01+000000PRSWM2
0133039620999991994011002004+52700-008917SY-MT+0020EINN V0201401N00621220001CN0250001N1+00511+00261097961ADDAG12999GA1021+006009999GF102991021081008001001001MA1097901999999MD1210201+9999REMSYN010 333 81820MET008NEW NOSIEQDQ01+000000PRSWM2
0077039620999991994011002304+52700-008917FM-15+0020EINN V0201501N00721220001CN0112651N1+00601+00301999999ADDAG11000GA1021+006009999MA1097901999999REMMET008NEW NOSIEQDQ01+000000PRSWM2
0133039620999991994011004004+52700-008917SY-MT+0020EINN V0201501N00771220001CN0250001N1+00591+00321097971ADDAG11999GA1021+006009999GF102991021081008001001001MA1097901999999MD1110061+9999REMSYN010 333 81820MET008NEW NOSIEQDQ01+000000PRSWM2
0133039620999991994011005004+52700-008917SY-MT+0020EINN V0201601N00771220001CN0250001N1+00631+00291098001ADDAG12999GA1021+006009999GF102991021081008001001001MA1098001999999MD1310041+9999REMSYN010 333 81820MET008NEW NOSIEQDQ01+000000PRSWM2
0201039620999991994011006004+52700-008917SY-MT+0020EINN V0201601N00721220001CN0250001N1+00641+00221098081ADDAA199000591AG11000GA1021+006009999GF102991021081008001001001GJ100009IA1099IA2999+00109KA1120N+00461MA1098001999999MD1310131+9999REMSYN028 333 20046 31001 55000 81820MET008NEW NOSIEQDQ01+000000PRSWM2
0149039620999991994011007004+52700-008917SY-MT+0020EINN V0201501N00621220001CN0250001N1+00561+00291098141ADDAG12999GA1021+006009999GF199999011081008001001001MA1098101999999MD1210171+9999REMSYN010 333 81820MET008NEW NOSIEQDQ01+000012SCOTCVQ02+000000PRSWM2
0139039620999991994011008004+52700-008917SY-MT+0020EINN V0201401N00621220001CN0250001N1+00531+00311098201ADDAG12999GA1021+006009999GF104991041081008001001001MA1098101999999MD1210201+9999REMSYN016 333 82820 83650MET008NEW NOSIEQDQ01+000000PRSWM2
0155039620999991994011009004+52700-008917SY-MT+0020EINN V0201601N00721220001CN0300001N1+00551+00281098311ADDAG11000GA1021+006009999GA2021+015009999GF104991031051008001001021MA1098211999999MD1210231+9999REMSYN016 333 81625 83650MET008NEW NOSIEQDQ01+000000PRSWM2
0139039620999991994011010004+52700-008917SY-MT+0020EINN V0201501N00571220001CN0300001N1+00561+00321098411ADDAG11999GA1021+009009999GF104991011081008001001021MA1098311999999MD1210271+9999REMSYN016 333 81825 83070MET008NEW NOSIEQDQ01+000000PRSWM2
0139039620999991994011011004+52700-008917SY-MT+0020EINN V0201501N00721220001CN0300001N1+00691+00411098451ADDAG11999GA1021+007509999GF103991011051008001001021MA1098411999999MD1210251+9999REMSYN016 333 81635 83075MET008NEW NOSIEQDQ01+000000PRSWM2
0077039620999991994011011204+52700-008917FM-15+0020EINN V0201501N00621220001CN0112651N1+00801+00501999999ADDAG11999GA1021+010509999MA1098411999999REMMET008NEW NOSIEQDQ01+000000PRSWM2
0144039620999991994011012004+52700-008917SY-MT+0020EINN V0201601N00621220001CN0250001N1+00821+00481098471ADDAA106000091AG11000GA1021+010509999GF103991011051012501001021MA1098411999999MD1210161+9999REMSYN010 333 81635MET008NEW NOSIEQDQ01+000000PRSWM2
0149039620999991994011013004+52700-008917SY-MT+0020EINN V0201601N00621220001CN0250001N1+00901+00571098471ADDAG11999GA1021+010509999GF199999011051012501001001MA1098411999999MD1010061+9999REMSYN010 333 81630MET008NEW NOSIEQDQ01+000012SCOTCVQ02+000000PRSWM2
0133039620999991994011014004+52700-008917SY-MT+0020EINN V0201601N00721220001CN0300001N1+00901+00501098501ADDAG11999GA1021+007509999GF103991021051008001001021MA1098411999999MD1210041+9999REMSYN010 333 81622MET008NEW NOSIEQDQ01+000000PRSWM2
0133039620999991994011015004+52700-008917SY-MT+0020EINN V0201701N00671220001CN0300001N1+00941+00521098571ADDAG11000GA1021+006609999GF103991021051008001001021MA1098511999999MD1210091+9999REMSYN010 333 81622MET008NEW NOSIEQDQ01+000000PRSWM2
0133039620999991994011016004+52700-008917SY-MT+0020EINN V0201701N00461220001CN0300001N1+00851+00491098651ADDAG11999GA1021+006609999GF103991021051008001001021MA1098511999999MD1210171+9999REMSYN010 333 81822MET008NEW NOSIEQDQ01+000000PRSWM2
0177039620999991994011017004+52700-008917SY-MT+0020EINN V0201601N00411015001CN0200001N1+00751+00511098751ADDAG12999AY111021AY211021GA1021+007509999GA2071+015009999GF107991071081008001999999MA1098611999999MD1210251+9999MW1801REMSYN016 333 85824 83650MET008NEW NOSIEQDQ01+000000PRSWM2
0207039620999991994011018004+52700-008917SY-MT+0020EINN V0201801N00511012001CN0200001N1+00751+00551098821ADDAA199999929AG12001AY181061AY221061GA1021+006009999GA2021+009009999GF107991071081008001999999KA1120M+00941MA1098711999999MD1210261+9999MW1251REMSYN022 333 10094 83820 85630MET008NEW NOSIEQDQ01+000000PRSWM2
0155039620999991994011019004+52700-008917SY-MT+0020EINN V0201901N00311012001CN0200001N1+00741+00561098921ADDAG12999GA1021+006009999GA2071+012009999GF107991071081008001999999MA1098821999999MD1210271+9999REMSYN016 333 82820 87635MET008NEW NOSIEQDQ01+000000PRSWM2
0171039620999991994011020004+52700-008917SY-MT+0020EINN V0202001N00361012001CN0200001N1+00721+00541099011ADDAG12999GA1021+006009999GA2071+012009999GF199999061051008001999999MA1098921999999MD1210261+9999REMSYN016 333 83625 85640MET008NEW NOSIEQDQ01+000062SCOTCVQ02+000000PRSWM2
0193039620999991994011021004+52700-008917SY-MT+0020EINN V0202101N00411012001CN0200001N1+00701+00471099091ADDAG12001AY181031AY221031GA1021+006009999GA2071+012009999GF199999061081008001999999MA1098981999999MD1210261+9999MW1251REMSYN016 333 83820 85640MET008NEW NOSIEQDQ01+000062SCOTCVQ02+000000PRSWM2
0187039620999991994011022004+52700-008917SY-MT+0020EINN V0202101N00361220001CN0200001N1+00681+00471099151ADDAG12999AY181011AY211011GA1021+006009999GA2071+010509999GF199999041081008001001001MA1099091999999MD1210231+9999MW1251REMSYN010 333 83820MET008NEW NOSIEQDQ01+000042SCOTCVQ02+000000PRSWM2
0164039620999991994011023004+52700-008917SY-MT+0020EINN V0201901N00311012001CN0200001N1+00601+00411099191ADDAG12999AY181021AY221021GA1021+006009999GA2021+012009999GF106991061081008001999999MA1099091999999MD1110181+9999MW1251MW2801REMSYN016 333 83820 84640MET008NEW NOSI
0166039620999991994011100004+52700-008917SY-MT+0020EINN V0202001N00361220001CN0200001N1+00521+00351099231ADDAA106000191AG12001AY181061AY211061GA1021+006009999GF102991021081008001001001MA1099191999999MD1210141+9999MW1011REMSYN010 333 81820MET008NEW NOSIEQDQ01+000000PRSWM2
0149039620999991994011101004+52700-008917SY-MT+0020EINN V0201901N00411220001CN0250001N1+00511+00361099241ADDAG12999GA1021+006009999GF199999011051012501001001MA1099191999999MD1010091+9999REMSYN010 333 81640MET008NEW NOSIEQDQ01+000012SCOTCVQ02+000000PRSWM2
0161039620999991994011102004+52700-008917SY-MT+0020EINN V0201701N00411012001CN0250001N1+00581+00291099241ADDAG12999GA1021+006009999GA2071+012009999GF108991081081008001999999MA1099191999999MD1110051+9999REMSYN022 333 81820 83635 87650MET008NEW NOSIEQDQ01+000000PRSWM2
0171039620999991994011103004+52700-008917SY-MT+0020EINN V0201601N00571015001CN0250001N1+00511+00311099191ADDAG12000GA1021+006009999GA2071+015009999GF199999051081008001001001MA1099191999999MD1810041+9999REMSYN016 333 81820 85650MET008NEW NOSIEQDQ01+000052SCOTCVQ02+000000PRSWM2
0155039620999991994011104004+52700-008917SY-MT+0020EINN V0201401N00511015001CN0250001N1+00511+00311099071ADDAG12999GA1021+006009999GA2071+015009999GF107991071051012501999999MA1099091999999MD1810171+9999REMSYN016 333 82635 86650MET008NEW NOSIEQDQ01+000000PRSWM2
0155039620999991994011105004+52700-008917SY-MT+0020EINN V0201401N00621015001CN0250001N1+00601+00331098951ADDAG12999GA1021+010509999GA2071+015009999GF108991081051012501999999MA1098981999999MD1710291+9999REMSYN016 333 82635 87650MET008NEW NOSIEQDQ01+000000PRSWM2
0232039620999991994011106004+52700-008917SY-MT+0020EINN V0201501N00821010501CN0250001N1+00671+00361098881ADDAA199000191AG12002AY161061AY211061GA1071+010509999GA2081+015009999GF108991081051012501999999GJ102949IA1099IA2999+00209KA1120N+00471MA1098921999999MD1710311+9999MW1601MW2611REMSYN034 333 20047 31002 55049 85630 88650MET008NEW NOSI
0164039620999991994011107004+52700-008917SY-MT+0020EINN V0201701N00931009001CN0250001N1+00701+00451098821ADDAG12999AY161011AY221011GA1021+006009999GA2081+009009999GF108991081051008001999999MA1098921999999MD1710251+9999MW1211MW2611REMSYN016 333 83620 88650MET008NEW NOSI
0193039620999991994011108004+52700-008917SY-MT+0020EINN V0201701N00361009001CN0250001N1+00641+00301098821ADDAG12999GA1021+005409999GA2071+009009999GA3081+015009999GF199999071051004501999999MA1098821999999MD1510131+9999REMSYN022 333 82715 85625 87640MET008NEW NOSIEQDQ01+000072SCOTCVQ02+000000PRSWM2
0177039620999991994011109004+52700-008917SY-MT+0020EINN V0202001N00411220001CN0300001N1+00561+00351098851ADDAG12001AY161031AY211031GA1021+004509999GA2021+007509999GF104991041051004501001001MA1098821999999MD1510021+9999MW1011REMSYN016 333 82715 84635MET008NEW NOSIEQDQ01+000000PRSWM2
0079039620999991994011109304+52700-008917FM-16+0020EINN V0202101N00461220001CN0112651N1+99999+99999999999ADDAG11000GA1021+006009999REMMET025NEW BIUTIWVCKGQ0988 NOSIGEQDQ01+000000PRSWM2
0177039620999991994011110004+52700-008917SY-MT+0020EINN V0202201N00621010501CN0300001N1+00671+00251098931ADDAG11999GA1021+006009999GA2071+010509999GF199999061031004501999999MA1098821999999MD1310111+9999REMSYN022 333 81712 82920 84650MET008NEW NOSIEQDQ01+000062SCOTCVQ02+000000PRSWM2
0155039620999991994011111004+52700-008917SY-MT+0020EINN V0202001N00411007501CN0400001N1+00701+00351098981ADDAG11999GA1021+006009099GA2021+015009999GF105991051091008001001001MA1098921999999MD1210161+9999REMSYN016 333 81920 84650MET008NEW NOSIEQDQ01+000000PRSWM2
0188039620999991994011112004+52700-008917SY-MT+0020EINN V0202101N00621015001CN0500001N1+00751+00351098981ADDAA106001091AG11001AY161061AY221061GA1021+006009099GA2071+015009999GF107991061031008001999031MA1098921999999MD1110131+9999MW1031REMSYN016 333 82920 84650MET008NEW NOSIEQDQ01+000000PRSWM2
0171039620999991994011113004+52700-008917SY-MT+0020EINN V0202301N00671015001CN0400001N1+00781+00311098951ADDAG11999GA1021+006009099GA2071+015009999GA3071+030009999GF107991061031008001071999MA1098921999999MD1010031+9999REMSYN016 333 82920 84650MET008NEW NOSIEQDQ01+000000PRSWM2
0155039620999991994011114004+52700-008917SY-MT+0020EINN V0202201N00771030001CN0400001N1+00791+00321098971ADDAG11999GA1021+006009099GA2021+015009999GF105991031031008001071021MA1098921999999MD1510001+9999REMSYN016 333 82920 83460MET008NEW NOSIEQDQ01+000000PRSWM2
0107039620999991994011115004+52700-008917FM-12+0020EINN V0202201N00721004201CN0200001N9+00741+00341099091ADDAG12000AY121031AY221031GA1041+005409099GF106991061031004501999021MD1310101+9999MW1801REMSYN010 333 84918
0252039620999991994011116004+52700-008917SY-MT+0020EINN V0202201N00671220001CN0200001N1+00521+00351099171ADDAG12999AY181011AY211011GA1021+003609999GA2071+005409099GF199999021091004501001021MA1099091999999MD1310211+9999MW1271MW2801MW3871OA149902061REMSYN064 22213 10052 20035 49917 53021 72781 82902 333 82918 91140 96487MET012NEW TEMPO TSEQDQ01+000022SCOTCV
0149039620999991994011117004+52700-008917SY-MT+0020EINN V0202201N00411220001CN0400001N1+00501+00331099241ADDAG11999GA1021+005409099GF199999011031004501001021MA1099191999999MD1210261+9999REMSYN010 333 81918MET008NEW NOSIEQDQ01+000012SCOTCVQ02+000000PRSWM2
0197039620999991994011118004+52700-008917SY-MT+0020EINN V0202101N00571220001CN0300001N1+00581+00291099301ADDAA199002091AG12001AY181061AY211061GA1021+005409099GF103991031031004501001021KA1120M+00781MA1099191999999MD1210211+9999MW1031REMSYN028 333 10078 82918 83640 96487MET008NEW NOSIEQDQ01+000000PRSWM2
0155039620999991994011119004+52700-008917SY-MT+0020EINN V0202001N00411004201CN0300001N1+00591+00251099301ADDAG12999GA1021+005409099GA2021+012009999GF105991051031004501001021MA1099291999999MD1110131+9999REMSYN016 333 82918 85645MET008NEW NOSIEQDQ01+000000PRSWM2
0193039620999991994011120004+52700-008917SY-MT+0020EINN V0201801N00361013501CN0300001N1+00521+00301099381ADDAG12999AY181021AY221021GA1021+005409099GA2071+013509999GF199999051031004501999999MA1099291999999MD1210141+9999MW1801REMSYN016 333 82918 85645MET008NEW NOSIEQDQ01+000052SCOTCVQ02+000000PRSWM2
0193039620999991994011121004+52700-008917SY-MT+0020EINN V0201701N00511013501CN0300001N1+00591+00251099301ADDAG12001AY181031AY211031GA1021+005409099GA2071+013509999GF199999051031004501999999MA1099291999999MD1010001+9999MW1251REMSYN016 333 82918 85645MET008NEW NOSIEQDQ01+000052SCOTCVQ02+000000PRSWM2
0155039620999991994011122004+52700-008917SY-MT+0020EINN V0201901N00461013501CN0300001N1+00561+00291099341ADDAG12999GA1021+005409099GA2071+013509999GF107991071081008001999999MA1099291999999MD1310041+9999REMSYN016 333 82820 86645MET008NEW NOSIEQDQ01+000000PRSWM2
0177039620999991994011123004+52700-008917SY-MT+0020EINN V0201901N00621013501CN0300001N1+00641+00331099301ADDAG12999AY181021AY221021GA1021+006009999GA2071+013509999GF107991071081008001999999MA1099291999999MD1810081+9999MW1801REMSYN016 333 83820 86645MET008NEW NOSIEQDQ01+000000PRSWM2
0188039620999991994011200004+52700-008917SY-MT+0020EINN V0201501N00411013501CN0300001N1+00621+00411099181ADDAA106000191AG12001AY181061AY221061GA1021+006009999GA2071+013509999GF107991071081008001999999MA1099191999999MD1810121+9999MW1251REMSYN016 333 83820 86645MET008NEW NOSIEQDQ01+000000PRSWM2
0206039620999991994011201004+52700-008917SY-MT+0020EINN V0201201N00621003001CN0120001N1+00581+00441098841ADDAG12999AY161011AY221011GA1021+001809999GA2071+003009999GA3081+006009999GF108991081061002501999999MA1098981999999MD1810461+9999MW1611MW2621REMSYN022 333 83706 86710 88620MET028NEW TEMPO 6000 BKN006 OVC010
0194039620999991994011202004+52700-008917SY-MT+0020EINN V0201301N00821003001CN0120001N1+00691+00561098471ADDAG12999AY161021AY261021GA1021+002109999GA2071+003009999GA3081+006009999GF108991081061002501999999MA1098611999999MD1810821+9999MW1631REMSYN016 333 85706 88710MET028NEW TEMPO 6000 BKN006 OVC010
0223039620999991994011203004+52700-008917SY-MT+0020EINN V0201601N01131003601CN0120001N1+00871+00681098171ADDAG12001AY161031AY261031GA1021+002109999GA2071+003609999GA3081+006009999GF108991081061002501999999MA1098311999999MD1711001+9999MW1601REMSYN022 333 83707 86710 88715MET032NEW RERA TEMPO 6000 BKN006 OVC01EQDQ01+000000PRSWM2
0183039620999991994011204004+52700-008917SY-MT+0020EINN V0201801N00821004201CN0200001N1+01001+00881097991ADDAG12999AY161011AY221011GA1021+002409999GA2021+007509999GF105991051051004501001001MA1098101999999MD1710881+9999MW1211REMSYN022 333 81718 83623 85642MET008NEW NOSIEQDQ01+000000PRSWM2
0204039620999991994011205004+52700-008917SY-MT+0020EINN V0202301N01901012601CN0200001N1+01061+00611098051ADDAG12999GA1021+005409999GA2021+008409999GA3071+012609999GF199999051051004501999999MA1097901999999MD1710421+9999OA149902521REMSYN022 333 81715 83625 91149MET008NEW NOSIEQDQ01+000052SCOTCVQ02+000000PRSWM2
0259039620999991994011206004+52700-008917SY-MT+0020EINN V0202401N01291220001CN0250001N1+00811+00541098321ADDAA199003091AG12000GA1021+003909999GA2021+010509999GF103991031051004501001001GJ101089IA1099IA2999+02609KA1120N+00521MA1098211999999MD1310151+9999OA149901851OC102111REMSYN040 333 20052 31026 55018 81713 83627 91136MET019NEW NOSIG WS ONAPCHEQDQ01+000000PRSWM2
0184039620999991994011207004+52700-008917SY-MT+0020EINN V0202401N00931220001CN0250001N1+00801+00511098421ADDAG12999GA1021+003909999GA2021+009009999GF103991031051004501001001MA1098411999999MD1210431+9999OA149902211REMSYN022 333 82712 83630 91143MET020NEW NOSIG WS ON APCHEQDQ01+000000PRSWM2
0185039620999991994011208004+52700-008917SY-MT+0020EINN V0202301N00981004201CN0300001N1+00821+00481098491ADDAG12999AY111021AY211021GA1021+004509999GA2021+010509999GF106991061051004501999999MA1098411999999MD1210441+9999MW1601OC101441REMSYN016 333 82712 85650MET008NEW NOSIEQDQ01+000000PRSWM2
0096039620999991994011208204+52700-008917FM-15+0020EINN V0202601N01131003901CN0080001N1+00801+00501999999ADDAG11999GA1021+002409999GA2071+003909999GA3071+007509999MA1098511999999MW1611REMMET008NEW NOSI
0186039620999991994011209004+52700-008917SY-MT+0020EINN V0202701N00821003901CN0080001N1+00601+00391098581ADDAG12002AY161031AY221031GA1021+002409999GA2071+003909999GA3071+007509999GF108991081051002501999999MA1098511999999MD1210261+9999MW1601MW2611REMSYN022 333 82708 84610 86622MET008NEW NOSI
0205039620999991994011210004+52700-008917SY-MT+0020EINN V0202301N00671003601CN0150001N1+00661+00481098591ADDAG12999AY161011AY221011GA1021+002409999GA2071+003609999GA3081+006009999GF199999041081004501071999MA1098511999999MD1210171+9999MW1211MW2611REMSYN022 333 81710 84635 86458MET008NEW NOSIEQDQ01+000072SCOTCV
0193039620999991994011211004+52700-008917SY-MT+0020EINN V0202001N00411024001CN0200001N1+00681+00471098541ADDAG12999AY181021AY221021GA1021+003609999GA2021+010509999GA3071+024009999GF107991031021004501071999MA1098511999999MD1010051+9999MW1251REMSYN016 333 83715 87558MET008NEW NOSIEQDQ01+000000PRSWM2
0162039620999991994011212004+52700-008917FM-12+0020EINN V0202101N00461024001CN0250001N9+00821+00601098481ADDAA106003091AG10001AY181061AY221061GA1011+004509079GA2041+015009059GA3051+024009049GF107991041081004501071999MD1810101+9999MW1021REMSYN022 333 81715 84650 85458
0180039620999991994011213004+52700-008917SY-MT+0020EINN V0202101N00621015001CN0200001N1+00881+00601098431ADDAG12999AY181011AY221011GA1021+003609999GA2021+006009999GA3071+015009999GF107991051031004501001031MA1098411999999MD1710161+9999MW1251MW2801REMSYN016 333 81712 83920MET008NEW NOSI
0199039620999991994011214004+52700-008917SY-MT+0020EINN V0202301N01031024001CN0200001N1+00911+00361098401ADDAG12999AY181021AY221021GA1021+004509999GA2021+006009099GA3071+024009999GF108991031031004501071999MA1098411999999MD1710141+9999MW1801REMSYN022 333 81715 83918 87459MET008NEW NOSIEQDQ01+000000PRSWM2
0205039620999991994011215004+52700-008917SY-MT+0020EINN V0202001N00821005401CN0120001N1+00601+00361098441ADDAG12002AY181031AY221031GA1021+003009999GA2071+005409099GF107991071031004501999999MA1098511999999MD1510041+9999MW1801OA149901961REMSYN034 333 82710 85918 85645 90010 91138MET026NEW TEMPO 4000 TSGS BKN010
0109039620999991994011215204+52700-008917FM-15+0020EINN V0201801N00721013501CN0112651N1+00601+00401999999ADDAG11000GA1021+003009999GA2021+005409099GA3071+013509999MA1098311999999REMMET008NEW NOSIEQDQ01+000000PRSWM2
0199039620999991994011216004+52700-008917SY-MT+0020EINN V0202101N00771013501CN0200001N1+00661+00431098411ADDAG12999AY181011AY221011GA1021+003009999GA2021+005409099GA3071+013509999GF107991071031004501999999MA1098311999999MD1810021+9999MW1251REMSYN022 333 82710 83918 85545MET008NEW NOSIEQDQ01+000000PRSWM2
0155039620999991994011217004+52700-008917SY-MT+0020EINN V0202101N00931004201CN0200001N1+00661+00431098381ADDAG12999GA1021+003009999GA2021+005409099GF106991061031004501999999MA1098311999999MD1810021+9999REMSYN016 333 82710 83918MET008NEW NOSIEQDQ01+000000PRSWM2
0200039620999991994011218004+52700-008917SY-MT+0020EINN V0202401N00721001201CN0200001N1+00621+00381098471ADDAA199008091AG12002AY181061AY221061GA1021+005409099GA2021+013509999GF107991071091001501999999KA1120M+00851MA1098411999999MD1310031+9999MW1801MW2881REMSYN028 333 10085 84705 87918 96487MET008NEW NOSI
0149039620999991994011219004+52700-008917SY-MT+0020EINN V0202301N00871006001CN0300001N1+00731+00431098501ADDAG12999GA1071+006009099GF199999061091008001999999MA1098411999999MD1310091+9999REMSYN010 333 86920MET008NEW NOSIEQDQ01+000062SCOTCVQ02+000000PRSWM2
0155039620999991994011220004+52700-008917SY-MT+0020EINN V0202401N00871015001CN0300001N1+00771+00571098571ADDAG12999GA1021+006009099GA2071+015009999GF108991081031008001999999MA1098511999999MD1210191+9999REMSYN016 333 82920 87650MET008NEW NOSIEQDQ01+000000PRSWM2
0170039620999991994011221004+52700-008917SY-MT+0020EINN V0202301N00931007501CN0300001N1+00661+00591098701ADDAG12000GA1021+006009099GF107991071031008001999999MA1098611999999MD1310231+9999OA140101801OC101491REMSYN028 333 83920 87650 90710 91135MET008NEW NOSIEQDQ01+000000PRSWM2
0188039620999991994011222004+52700-008917SY-MT+0020EINN V0202201N00671013501CN0300001N1+00621+00431098751ADDAG12999GA1021+005709099GA2071+013509999GF199999061031004501999999MA1098711999999MD1210241+9999REMSYN022 333 81712 82919 85645MET019NEW TEMPO BKN 018CBEQDQ01+000062SCOTCVQ02+000000PRSWM2
0218039620999991994011223004+52700-008917SY-MT+0020EINN V0202401N00871005101CN0150001N1+00541+00291098831ADDAG12999AY161021AY221021GA1021+002409999GA2071+005109099GA3071+009009999GF199999051031002501999999MD1210251+9999MW1871OC101291REMSYN016 333 82707 85915MET024NEW RA 06/04 Q0987 NOSIGEQDQ01+000052SCOTCVQ02+000000PRSWM2
0117039620999991994011223204+52700-008917FM-15+0020EINN V0202301N00771015001CN0112651N1+00501+00301999999ADDAG11999GA1021+003609999GA2021+006009099GA3071+015009999MA1098821999999OC101341REMMET008NEW NOSIEQDQ01+000000PRSWM2
0218039620999991994011300004+52700-008917SY-MT+0020EINN V0202401N01031015001CN0200001N1+00791+00371098931ADDAA106004091AG12001AY181061AY221061GA1021+003609999GA2021+006009099GA3071+015009999GF107991071031002501999999MA1098821999999MD1210221+9999MW1801OC101341REMSYN022 333 81708 83916 85625MET008NEW NOSIEQDQ01+000000PRSWM2
0178039620999991994011301004+52700-008917SY-MT+0020EINN V0202201N00931220001CN0300001N1+00801+00381099011ADDAG12999AY181011AY211011GA1021+004809099GF104991041031004501001001MA1098921999999MD1210261+9999MW1271OA149901751REMSYN022 333 83918 91134 96487MET008NEW NOSIEQDQ01+000000PRSWM2
0180039620999991994011302004+52700-008917SY-MT+0020EINN V0202301N01231004201CN0150001N1+00771+00401099081ADDAG12999AY181021AY211021GA1021+005409099GF107991071031004501999999MA1098981999999MD1210261+9999MW1801OA149901961OC101801REMSYN016 333 86916 91138MET008NEW NOSIEQDQ01+000000PRSWM2
0208039620999991994011303004+52700-008917SY-MT+0020EINN V0202401N01081220001CN0250001N1+00771+00401099161ADDAG12002AY181031AY221031GA1021+002709999GA2071+004809099GF199999041031004501001001MA1099091999999MD1210241+9999MW1251MW2801OA149901961OC101851REMSYN022 333 81710 84918 91138MET008NEW NOSIEQDQ01+000042SCOTCV
0172039620999991994011304004+52700-008917SY-MT+0020EINN V0202401N01131004201CN0200001N1+00771+00401099231ADDAG12999AY181011AY211011GA1021+005409099GF106991061031004501999999MA1099091999999MD1210231+9999MW1801OA149902211REMSYN016 333 86916 91143MET008NEW NOSIEQDQ01+000000PRSWM2
0186039620999991994011305004+52700-008917SY-MT+0020EINN V0202401N01231220001CN0200001N1+00751+00411099291ADDAG12999AY181021AY211021GA1021+004809099GF103991031031004501001001MA1099191999999MD1010211+9999MW1271OA149902321OC101951REMSYN022 333 83916 91145 96487MET008NEW NOSIEQDQ01+000000PRSWM2
0270039620999991994011306004+52700-008917SY-MT+0020EINN V0202401N01341004801CN0200001N1+00831+00291099321ADDAA199007091AG12001AY181061AY281061GA1071+004809099GF199999051031004501001001GJ100129IA1099IA2999+00309KA1120N+00511MA1099291999999MD1210161+9999MW1251OA149902011OC101901REMSYN040 333 20051 31003 55002 85916 91139 96487MET008NEW NOSIEQDQ01+000052SCOTCVQ02+000000PRSWM2
0178039620999991994011307004+52700-008917SY-MT+0020EINN V0202401N01751004201CN0200001N1+00731+00331099451ADDAG12999AY181011AY221011GA1021+004809099GF106991061031004501999999MA1099291999999MD1210211+9999MW1801OA149902681REMSYN022 333 82710 86916 91152MET008NEW NOSIEQDQ01+000000PRSWM2
0188039620999991994011308004+52700-008917SY-MT+0020EINN V0202401N01341004801CN0200001N1+00751+00411099471ADDAG12999AY181021AY221021GA1071+004809099GF199999051031004501999999MA1099391999999MD1210181+9999MW1251OA149902011REMSYN016 333 85916 91139MET008NEW NOSIEQDQ01+000052SCOTCVQ02+000000PRSWM2
0202039620999991994011309004+52700-008917SY-MT+0020EINN V0202301N01131220001CN0200001N1+00801+00251099511ADDAG12001AY181031AY211031GA1021+002409999GA2021+004809099GF102991021031004501001001MA1099391999999MD1210191+9999MW1251OA140101901OC101701REMSYN022 333 82916 90710 91137MET008NEW NOSIEQDQ01+000000PRSWM2
0178039620999991994011310004+52700-008917SY-MT+0020EINN V0202301N00931002101CN0150001N1+00751+00381099601ADDAG12999AY181011AY211011GA1021+004809099GF106991061031002501999999MA1099491999999MD1210161+9999MW1801OA149901961REMSYN022 333 82707 85915 91138MET008NEW NOSIEQDQ01+000000PRSWM2
0194039620999991994011311004+52700-008917SY-MT+0020EINN V0202301N01341220001CN0250001N1+00871+00171099601ADDAG12999AY181021AY211021GA1021+002709999GA2021+005409099GF103991031031002501001001MA1099591999999MD1110131+9999MW1251OA149901851REMSYN022 333 81709 83918 91136MET008NEW NOSIEQDQ01+000000PRSWM2
0211039620999991994011312004+52700-008917SY-MT+0020EINN V0202401N01541220001CN0200001N1+00831+00271099661ADDAA106000591AG12002AY181061AY211061GA1021+003909999GA2071+005409099GF199999031031004501001001MA1099591999999MD1210151+9999MW1251MW2801OA149902261REMSYN022 333 81710 83918 91144MET008NEW NOSIEQDQ01+000032SCOTCV
0172039620999991994011313004+52700-008917SY-MT+0020EINN V0202401N01391004201CN0250001N1+00801+00301099721ADDAG12999GA1021+003009999GA2021+005409099GF105991051031004501999999MA1099701999999MD1310121+9999OA149902261REMSYN022 333 82710 83918 91144MET008NEW NOSIEQDQ01+000000PRSWM2
0242039620999991994011314004+52700-008917SY-MT+0020EINN V0202401N03191012001CN0150001N1+00851+00391099771ADDAG12999GA1021+003009999GA2021+004509099GA3071+012009999GF199999041031004501001021MA1099701999999MD1210161+9999OA149999999REMSYN028 333 81710 82918 83630 91145MET008NEW NOSIEQDQ01+002162WGOSPDQ02+000052SCOTCVQ03+000000PRSWM2Q04  02322WGOSPD
0228039620999991994011315004+52700-008917SY-MT+0020EINN V0202501N01341075001CN0150001N1+00841+00431099841ADDAG12002AY181031AY221031GA1021+002709999GA2021+004209099GA3071+075009999GF199999061031002501999999MA1099701999999MD1210171+9999MW1251MW2801OA140102421REMSYN034 333 81708 83915 84630 90710 91147MET008NEW NOSIEQDQ01+000062SCOTCV
0194039620999991994011316004+52700-008917SY-MT+0020EINN V0202501N01341004201CN0150001N1+00831+00421099921ADDAG12999AY181011AY221011GA1021+003009999GA2021+004809099GF105991051031004501999999MA1099801999999MD1210191+9999MW1251OA149901961REMSYN022 333 81710 83920 91138MET008NEW NOSIEQDQ01+000000PRSWM2
0181039620999991994011317004+52700-008917SY-MT+0020EINN V0202401N01131220001CN0150001N1+00881+00271100011ADDAG12999AY181021AY221021GA1021+002109999GA2021+004509099GF104991041031002501001001MA1099901999999MD1210241+9999MW1251MW2611OA149901801REMSYN022 333 81709 83916 91135MET008NEW NOSI
0196039620999991994011318004+52700-008917SY-MT+0020EINN V0202401N00981004201CN0200001N1+00751+00481100121ADDAA199000591AG12002AY181061AY211061GA1021+003009999GA2021+005109099GF106991061031004501999999KA1120M+00881MA1100001999999MD1210281+9999MW1801OC101541REMSYN022 333 10088 81715 84922MET008NEW NOSI
0177039620999991994011319004+52700-008917SY-MT+0020EINN V0202401N00871004201CN0250001N1+00741+00441100181ADDAG12999AY181011AY221011GA1021+004809999GA2021+006909099GF105991051031004501001001MA1100101999999MD1210261+9999MW1251REMSYN016 333 81715 83923MET008NEW NOSIEQDQ01+000000PRSWM2
0177039620999991994011320004+52700-008917SY-MT+0020EINN V0202401N00771004201CN0220001N1+00701+00371100251ADDAG12999AY181021AY221021GA1021+004809999GA2021+007209099GF107991071031004501999999MA1100201999999MD1210241+9999MW1801REMSYN016 333 82710 84917MET008NEW NOSIEQDQ01+000000PRSWM2
0080039620999991994011320294+52700-008917FM-16+0020EINN V0202401N00981220001CN0112651N1+00701+00401999999ADDAG11999GA1021+002109999GA2021+005109099MA1100201999999MW1801REMMET008NEW NOSI
0170039620999991994011321004+52700-008917SY-MT+0020EINN V0202401N00821004201CN0200001N1+00691+00361100301ADDAG12002AY181031AY221031GA1021+002109999GA2021+005109099GF107991071031004501999999MA1100201999999MD1210181+9999MW1251MW2801REMSYN022 333 81711 83920 85632MET008NEW NOSI
0158039620999991994011322004+52700-008917SY-MT+0020EINN V0202301N00871002101CN0150001N1+00661+00431100371ADDAG12999AY181011AY221011GA1021+003609999GA2021+006009099GF107991071091002501999999MA1100311999999MD1210191+9999MW1801REMSYN016 333 82708 86918MET008NEW NOSI
0183039620999991994011323004+52700-008917SY-MT+0020EINN V0202401N00821005401CN0200001N1+00641+00401100381ADDAG12999AY181021AY221021GA1021+002409999GA2071+005409099GF199999051031004501001001MA1100311999999MD1110131+9999MW1251MW2801REMSYN016 333 81710 83920MET008NEW NOSIEQDQ01+000052SCOTCV
0169039620999991994011400004+52700-008917SY-MT+0020EINN V0202501N00821005401CN0150001N1+00671+00441100431ADDAA106002091AG12002AY181061AY221061GA1021+002409999GA2071+005409099GF107991071091002501999999MA1100311999999MD1210131+9999MW1801REMSYN016 333 82708 86918MET008NEW NOSI
0183039620999991994011401004+52700-008917SY-MT+0020EINN V0202401N00671005401CN0200001N1+00601+00411100461ADDAG12999AY181011AY221011GA1021+002409999GA2071+005409099GF199999051091004501999999MA1100411999999MD1110091+9999MW1251MW2801REMSYN016 333 81710 84918MET008NEW NOSIEQDQ01+000052SCOTCV
0175039620999991994011402004+52700-008917SY-MT+0020EINN V0202501N00981005401CN0120001N1+00651+00421100471ADDAG12999AY181021AY221021GA1021+002409999GA2071+005409099GF107991071091002501999999MA1100411999999MD1110091+9999MW1801OA149901751REMSYN022 333 82708 86918 91134MET008NEW NOSI
0220039620999991994011403004+52700-008917SY-MT+0020EINN V0202401N00721005401CN0120001N1+00631+00371100491ADDAG12003AY181031AY221031GA1021+002409999GA2071+005409099GF199999061091004501999999MA1100411999999MD1210061+9999MW1801MW2811OA140101801REMSYN034 333 81710 84918 96487 90710 91135MET016NEW SHRAGS NOSIGEQDQ01+000062SCOTCV
0093039620999991994011403304+52700-008917FM-15+0020EINN V0202401N00871220001CN0112651N1+00601+00401999999ADDAG12999GA1021+003009999GA2021+005409099MA1100511999999REMMET008NEW NOSIEQDQ01+000000PRSWM2
0177039620999991994011405004+52700-008917SY-MT+0020EINN V0202501N00931004201CN0120001N1+00651+00421100561ADDAG12999AY181021AY221021GA1021+003009999GA2021+005409099GF107991071091004501999999MA1100511999999MD1210091+9999MW1801REMSYN016 333 82710 86918MET008NEW NOSIEQDQ01+000000PRSWM2
0088039620999991994011405304+52700-008917FM-15+0020EINN V0202501N00871005401CN0112651N1+00701+00401999999ADDAG12001GA1021+003009999GA2071+005409099MA1100511999999MW1801OC101651REMMET008NEW NOSI
0093039620999991994011406304+52700-008917FM-15+0020EINN V0202501N00981220001CN0112651N1+00701+00401999999ADDAG12999GA1021+003009999GA2021+005409099MA1100511999999REMMET008NEW NOSIEQDQ01+000000PRSWM2
0183039620999991994011408004+52700-008917SY-MT+0020EINN V0202401N00511004201CN0250001N1+00641+00401100711ADDAG12999AY181021AY221021GA1021+005409099GA2021+009009999GF107991071031004501999999MA1100711999999MD1210151+9999MW1271REMSYN022 333 83918 84630 96487MET008NEW NOSIEQDQ01+000000PRSWM2
0064039620999991994011409004+52700-008917FM-15+0020EINN V0202601N00721004801CN0112651N1+00601+00401999999ADDAG12001GA1071+004809099MA1100711999999MW1801REMMET008NEW NOSI
0155039620999991994011410004+52700-008917SY-MT+0020EINN V0202501N00621220001CN0150001N1+00661+00431100851ADDAG12999AY181011AY221011GA1021+004809099GF104991041091008001001001MA1100811999999MD1210221+9999MW1251REMSYN010 333 84920MET008NEW NOSIEQDQ01+000000PRSWM2
0155039620999991994011411004+52700-008917SY-MT+0020EINN V0202501N00621006001CN0200001N1+00711+00431100931ADDAG12999GA1071+006009099GF199999051091008001999999MA1100811999999MD1210221+9999REMSYN016 333 83920 83640MET008NEW NOSIEQDQ01+000052SCOTCVQ02+000000PRSWM2
0194039620999991994011412004+52700-008917SY-MT+0020EINN V0202401N00671007501CN0400001N1+00711+00431100991ADDAA106007091AG12001AY181061AY211061GA1021+006009099GA2021+012009999GF105991051091008001999999MA1100911999999MD1110231+9999MW1021REMSYN022 333 84920 96487 90710MET008NEW NOSIEQDQ01+000000PRSWM2
0171039620999991994011413004+52700-008917SY-MT+0020EINN V0202501N00871006001CN0400001N1+00711+00501101021ADDAG12999AY181011AY221011GA1071+006009099GF199999051091008001999999MA1101021999999MD1110171+9999MW1251REMSYN010 333 85920MET008NEW NOSIEQDQ01+000052SCOTCVQ02+000000PRSWM2
0177039620999991994011414004+52700-008917SY-MT+0020EINN V0202501N00771220001CN0300001N1+00731+00501101001ADDAG12999AY181021AY211021GA1071+006009099GF199999031091004501001001MA1101021999999MD1110071+9999MW1251REMSYN016 333 81710 83920MET008NEW NOSIEQDQ01+000032SCOTCVQ02+000000PRSWM2
0093039620999991994011414304+52700-008917FM-15+0020EINN V0202601N00621220001CN0112651N1+00701+00501999999ADDAG12000GA1021+003009999GA2021+006009099MA1101021999999REMMET008NEW NOSIEQDQ01+000000PRSWM2
0155039620999991994011416004+52700-008917SY-MT+0020EINN V0202501N00621075001CN0300001N1+00731+00301101021ADDAG12999GA1021+006009999GA2021+060009999GF105991031081008001001021MA1101021999999MD1410001+9999REMSYN016 333 81820 84070MET008NEW NOSIEQDQ01+000000PRSWM2
0193039620999991994011417004+52700-008917SY-MT+0020EINN V0202101N00361060001CN0250001N1+00651+00321101031ADDAG12999AY181051AY221051GA1021+006009999GA2071+060009999GF199999031081008001001061MA1101021999999MD1210031+9999MW1251REMSYN016 333 82820 85268MET008NEW NOSIEQDQ01+000062SCOTCVQ02+000000PRSWM2
0213039620999991994011418004+52700-008917SY-MT+0020EINN V0201901N00261054001CN0250001N1+00551+00311101001ADDAA199007091AG12001AY181061AY211061GA1021+006009999GA2071+054009999GF107991011021008001071061KA1120M+00751MA1101021999999MD1810011+9999MW1031REMSYN028 333 10075 81820 83458 87268MET008NEW NOSIEQDQ01+000000PRSWM2
0171039620999991994011419004+52700-008917SY-MT+0020EINN V0201501N00211024001CN0200001N1+00531+00311100951ADDAG12999GA1021+010509999GA2071+024009999GA3081+054009999GF108991021051012501071999MA1100911999999MD1810071+9999REMSYN016 333 82634 87458MET008NEW NOSIEQDQ01+000000PRSWM2
0155039620999991994011420004+52700-008917SY-MT+0020EINN V0201101N00311018001CN0200001N1+00481+00311100931ADDAG12999GA1021+009009999GA2081+018009999GF108991081051012501999999MA1100911999999MD1710101+9999REMSYN016 333 83645 88656MET008NEW NOSIEQDQ01+000000PRSWM2
0177039620999991994011421004+52700-008917SY-MT+0020EINN V0201101N00311018001CN0200001N1+00471+00251100881ADDAG12000GA1021+004509999GA2021+012009999GA3081+018009999GF108991081051004501999999MA1100911999999MD1710121+9999REMSYN022 333 81715 83640 88656MET008NEW NOSIEQDQ01+000000PRSWM2
0209039620999991994011422004+52700-008917SY-MT+0020EINN V0201201N00361012001CN0120001N1+00501+00251100811ADDAG12999AY161011AY221011GA1021+004509999GA2071+012009999GA3081+018009999GF108991081051004501999999MA1100811999999MD1810141+9999MW1601REMSYN022 333 82715 84620 88656MET018NEW BECMG BKN 1000EQDQ01+000000PRSWM2
0188039620999991994011423004+52700-008917SY-MT+0020EINN V0201001N00411009001CN0120001N1+00511+00291100751ADDAG12999AY161021AY261021GA1021+004509999GA2071+009009999GA3081+018009999GF108991081051004501999999MA1100711999999MD1710181+9999MW1611REMSYN022 333 82712 85620 88656MET016NEW BECMG BKN010
0104039620999991994011423304+52700-008917FM-15+0020EINN V0200901N00411006001CN0112651N1+00501+00301999999ADDAG12001GA1021+003609999GA2071+006009999GA3081+015009999MA1100611999999MW1611REMMET016NEW BECMG BKN010
0175039620999991994011500004+52700-008917FM-12+0020EINN V0200701N00361006001CN0120001N9+00551+00441100641ADDAA106002091AG10001AY161061AY261061GA1021+003609079GA2051+006009059GA3081+024009049GF108991051051004501071999MD1710231+9999REMSYN022 333 82712 85620 88458EQDQ01+000662PRSWM1
0104039620999991994011500304+52700-008917FM-15+0020EINN V0200701N00411006001CN0112651N1+00501+00401999999ADDAG12999GA1021+003609999GA2071+006009999GA3071+015009999MA1100611999999MW1611REMMET016NEW BECMG BKN010
0188039620999991994011502004+52700-008917SY-MT+0020EINN V0200501N00621006001CN0150001N1+00511+00361100481ADDAG12999AY161021AY261021GA1021+003609999GA2071+006009999GA3071+015009999GF108991081051004501999999MA1100511999999MD1710271+9999MW1611REMSYN022 333 82712 85620 87645MET016NEW BECMG BKN010
0188039620999991994011503004+52700-008917SY-MT+0020EINN V0200401N00721006001CN0150001N1+00481+00331100401ADDAG12002AY161031AY261031GA1021+003609999GA2071+006009999GA3071+013509999GF108991081051004501999999MA1100411999999MD1710251+9999MW1611REMSYN022 333 82712 84620 87645MET016NEW BECMG BKN010
0188039620999991994011504004+52700-008917SY-MT+0020EINN V0200401N00871013501CN0150001N1+00441+00261100351ADDAG12999AY161011AY261011GA1021+003609999GA2021+006009999GA3071+013509999GF108991081051004501999999MA1100311999999MD1710221+9999MW1611REMSYN022 333 82712 84620 87645MET016NEW BECMG BKN010
0093039620999991994011504304+52700-008917FM-15+0020EINN V0200401N00821006001CN0112651N1+00401+00301999999ADDAG12999GA1021+003609999GA2071+006009999GA3071+013509999MW1611REMMET020NEW )51003 BECMG BKN
0256039620999991994011506004+52700-008917SY-MT+0020EINN V0200301N00821006001CN0150001N1+00461+00291100351ADDAA199010091AG12002AY161061AY261061GA1021+003609999GA2071+006009999GA3071+013509999GF108991081051004501999999GJ100609IA1099IA2999+00209KA1120N+00421MA1100311999999MD1510051+9999MW1611REMSYN040 333 20042 31002 55010 82712 86625 87650MET016NEW BECMG BKN010
0188039620999991994011507004+52700-008917SY-MT+0020EINN V0200301N00821007501CN0100001N1+00421+00241100381ADDAG12999AY161011AY261011GA1021+003609999GA2071+007509999GA3071+015009999GF108991081061002501999999MA1100311999999MD1310031+9999MW1611REMSYN022 333 82706 85712 86625MET016NEW BECMG BKN010
0188039620999991994011508004+52700-008917SY-MT+0020EINN V0200201N00721003301CN0120001N1+00431+00281100461ADDAG12999AY161021AY261021GA1021+001809999GA2071+003309999GA3071+007509999GF108991081061002501999999MA1100411999999MD1310121+9999MW1611REMSYN022 333 81706 84710 87650MET016NEW TEMPO BKN009
