0189039620999991985010100004+52683-008917SY-MT+0020EINN V0200901N00151004801CN0090001N1+00601+00491103371ADDAA106000391AG10000AY151061GA1021+002709079GA2061+004809079GF108991081061002501999999MA1103291999999MD1010001+9999MW1101REMSYN023333   82709 86716 88625MET029TEMPO      ?     6000 5ST008?
0094039620999991985010100304+52683-008917FM-15+0020EINN V0201401N00151003301CN0070001N1+00601+00501999999ADDAG11999GA1041+002109079GA2051+003309079GA3081+004809079MA1103291999999MW1501REMMET006NOSIG?
0171039620999991985010101004+52683-008917SY-MT+0020EINN V0201701N00211002101CN0050001N1+00581+00511103301ADDAG12001AY151011GA1021+001509079GA2051+002109079GA3081+004809079GF108991081061000751999999MA1103181999999MD1810091+9999MW1501REMSYN023333   82705 85707 88716MET006NOSIG?
0099039620999991985010101304+52683-008917FM-15+0020EINN V0201701N00261001801CN0112001N1+00601+00501999999ADDAG11999GA1031+000609079GA2041+001809079GA3081+006009059MA1103181999999MW1201REMMET011TEMPO 5000?
0154039620999991985010102004+52683-008917SY-MT+0020EINN V0201901N00211006001CN0080001N1+00561+00491103221ADDAG12999AY151021GA1031+003009079GA2081+006009059GF108991081051004501999999MA1103181999999MD1810171+9999MW1501REMSYN017333   83710 88620MET011TEMPO 5000?
0083039620999991985010102304+52683-008917FM-15+0020EINN V0201201N00151004501CN0090001N1+00601+00501999999ADDAG11000GA1041+001209079GA2081+004509079MA1103181999999MW1501REMMET011TEMPO 5000?
0154039620999991985010103004+52683-008917SY-MT+0020EINN V0200901N00211005101CN0120001N1+00581+00511103211ADDAG12000AY151031GA1031+000609079GA2081+005109079GF108991081061000751999999MA1103181999999MD1610161+9999MW1201REMSYN017333   83702 88717MET011TEMPO 5000?
0083039620999991985010103304+52683-008917FM-15+0020EINN V0201201N00051004801CN0112001N1+00601+00501999999ADDAG11999GA1031+001209079GA2081+004809079MA1103121999999MW1101REMMET011TEMPO 5000?
0190039620999991985010104004+52683-008917SY-MT+0020EINN V0201401N00101015001CN0300001N1+00561+00451103141ADDAG11999AY101011GA1011+001209079GA2041+004809079GA3081+015009059GF108991081051001501999999MA1103121999999MD1710161+9999MW1021REMSYN023333   81704 84716 88650MET006NOSIG?EQDQ01+000000PRSWM2
0107039620999991985010104304+52683-008917FM-15+0020EINN V0201001N00101006001CN0112001N1+00601+00501999999ADDAG12999GA1021+002409079GA2041+006009059GA3071+015009059MA1103121999999REMMET006NOSIG?EQDQ01+000000PRSWM2
0183039620999991985010105004+52683-008917SY-MT+0020EINN V0201001N00101006001CN0300001N1+00551+00461103111ADDAG12999AY151021GA1021+002409079GA2051+006009059GA3081+015009059GF108991081051002501999999MA1103121999999MD1710111+9999MW1501REMSYN023333   82708 85620 88650MET018TEMPO 7000 5ST008?
0085039620999991985010105304+52683-008917FM-15+0020EINN V0200601N00101220001CN0112001N1+00501+00501999999ADDAG12000GA1011+002409079GA2041+015009059MA1103011999999MW1201REMMET013TEMPO 5ST008?
0256039620999991985010106004+52683-008917SY-MT+0020EINN V0200301N00101060001CN0300001N1+00511+00411103071ADDAA199000591AG10000AY151061GA1011+001509079GA2031+015009059GA3051+060009009GF106991031051001501999021IA1099IA2999+00309KA1120N+00511MA1103011999999MD1710141+9999MW1111REMSYN035333   20051 31003 81705 83650 85070MET018TEMPO 5000 5ST005?EQDQ01    003SCOMCG
0106039620999991985010106304+52683-008917FM-15+0020EINN V0200701N00151009001CN0112001N1+00401+00401999999ADDAG12999GA1021+000909079GA2031+009009059GA3051+060009009MA1103011999999MW1111REMMET018TEMPO 5000 5ST003?
0161039620999991985010107004+52683-008917SY-MT+0020EINN V0200901N00151009001CN0100001N1+00461+00361103051ADDAG11001AY121011GA1061+009009059GA2041+015009059GF108991081051012501999999MA1103011999999MD1710091+9999MW1101REMSYN017333   86630 84650MET018TEMPO 7000 4ST006?
0114039620999991985010107304+52683-008917FM-15+0020EINN V0200701N00211009001CN0112001N1+00401+00401999999ADDAG12999GA1061+009009059GA2041+015009059MA1103011999999REMMET029TEMPO      ?     7000 4ST006?EQDQ01+000000PRSWM2
0168039620999991985010108004+52683-008917SY-MT+0020EINN V0200801N00151009601CN0200001N1+00451+00351103071ADDAG12999AY101021GA1071+009609059GA2031+018009059GF107991071051012501999999MA1103011999999MD1510041+9999MW1021REMSYN017333   87632 83656MET006NOSIG?EQDQ01+000000PRSWM2
0075039620999991985010108304+52683-008917FM-15+0020EINN V0200801N00101009001CN0112001N1+00401+00401999999ADDAG12000GA1071+009009059MA1103011999999REMMET006NOSIG?EQDQ01+000000PRSWM2
0158039620999991985010109004+52683-008917SY-MT+0020EINN V0200701N00151008401CN0200001N1+00461+00311103061ADDAG11000AY101031GA1071+008409059GF107991071051008001999999MA1103011999999MD1710011+9999MW1021REMSYN023333   87628 97186 97286MET006NOSIG?EQDQ01+000000PRSWM2
0075039620999991985010109304+52683-008917FM-15+0020EINN V0200701N00211008401CN0112001N1+00501+00301999999ADDAG12999GA1071+008409059MA1103011999999REMMET006NOSIG?EQDQ01+000000PRSWM2
0168039620999991985010110004+52683-008917SY-MT+0020EINN V0200401N00211008401CN0500001N1+00481+00261103071ADDAG11001AY101011GA1071+008409059GA2081+030009049GF108991071051008001071999MA1103011999999MD1210021+9999MW1021REMSYN017333   87628 88460MET006NOSIG?EQDQ01+000000PRSWM2
0091039620999991985010110304+52683-008917FM-15+0020EINN V0200601N00151008701CN0112001N1+00501+00201999999ADDAG12999GA1061+008709059GA2051+030009049MA1103011999999REMMET006NOSIG?EQDQ01+000000PRSWM2
0168039620999991985010111004+52683-008917SY-MT+0020EINN V0200901N00101009001CN0500001N1+00491+00191103061ADDAG12999AY101021GA1051+009009059GA2071+027009049GF107991051051012501071999MA1103011999999MD1710011+9999MW1021REMSYN017333   85630 87459MET006NOSIG?EQDQ01+000000PRSWM2
0107039620999991985010111304+52683-008917FM-15+0020EINN V0200501N00101027001CN0112001N1+00501+00201999999ADDAG12000GA1021+009009059GA2041+027009049GA3061+060009009MA1103011999999REMMET006NOSIG?EQDQ01+000000PRSWM2
0179039620999991985010112004+52683-008917SY-MT+0020EINN V0200801N00101027001CN0500001N1+00521+00171103011ADDAA106000091AG14000AY101061GA1021+010509059GA2061+027009049GF107991021051012501071021MA1103011999999MD1810051+9999MW1021REMSYN017333   82635 86459MET006NOSIG?EQDQ01+000000PRSWM2
0091039620999991985010112304+52683-008917FM-15+0020EINN V0200801N00151024001CN0112001N1+00501+00201999999ADDAG12999GA1021+012009059GA2051+024009049MA1102911999999REMMET006NOSIG?EQDQ01+000000PRSWM2
0174039620999991985010113004+52683-008917SY-MT+0020EINN V0200801N00151075001CN0400001N1+00551+00261102941ADDAG12999AY101011GA1031+015009059GF107991031051017501999021MA1102911999999MD1810131+9999MW1021REMSYN017333   83650 86075MET012CAVOK NOSIG?EQDQ01+000000PRSWM2Q02    003SCOMCG
0158039620999991985010114004+52683-008917SY-MT+0020EINN V0200701N00211030001CN0500001N1+00601+00261102881ADDAG12001AY101021GA1021+015009059GF107991021051017501031021MA1102811999999MD1710181+9999MW1021REMSYN017333   82650 87075MET012CAVOK NOSIG?EQDQ01+000000PRSWM2
0065039620999991985010114304+52683-008917FM-15+0020EINN V0200501N00261999991CY0099001N1+00601+00201999999ADDAG12000MA1102811999999REMMET012CAVOK NOSIG?EQDQ01+000000PRSWM2
0158039620999991985010115004+52683-008917SY-MT+0020EINN V0200601N00261030001CN0400001N1+00511+00161102841ADDAG12000AY101031GA1011+015009059GF106991011051017501031021MA1102811999999MD1710171+9999MW1021REMSYN017333   81650 86075MET012CAVOK NOSIG?EQDQ01+000000PRSWM2
0065039620999991985010115304+52683-008917FM-15+0020EINN V0200501N00151999991CY0099001N1+00401+00201999999ADDAG12999MA1102811999999REMMET012CAVOK NOSIG?EQDQ01+000000PRSWM2
0197039620999991985010116004+52683-008917SY-MT+0020EINN V0200601N00101075001CN0040001N1+00411+00151102811ADDAG12999AY121011GA1011+015009059GA2051+075009009GF105991011051017501031021MA1102811999999MD1610131+9999MW1401REMSYN035333   81650 85075 97262 97370 97470MET036VIS GEN. 10      ?     KM GRADU9999?
0112039620999991985010116304+52683-008917FM-15+0020EINN V0200601N00151075001CN0050001N1+00401+00101999999ADDAG12999GA1011+015009059GA2051+075009009MA1102711999999MW1401REMMET040VIS GEN. 10KM          ?     GRADU 9999?
0220039620999991985010117004+52683-008917SY-MT+0020EINN V0200701N00211220001CN0030001N1+00321+00071102801ADDAG12999AY121021GA1011+015009059GA2041+075009009GF104991011051017501999021MA1102711999999MD1610081+9999MW1401REMSYN035333   81650 84075 97260 97365 97465MET040VIS GEN. 10KM          ?     GRADU 9999?EQDQ01    003SCOMCG
0119039620999991985010117304+52683-008917FM-15+0020EINN V0201001N00051220001CN0050001N1+00301+00101999999ADDAG12000GA1011+015009059GA2031+075009009MA1102711999999MW1401REMMET047VIS 10KM TO      ?     SE SW AND NW GRADU 9999?
0204039620999991985010118004+52683-008917SY-MT+0020EINN V0209991C00001220001CN0150001N1+00261+00021102781ADDAA199999929AG10000AY101061GA1011+015009059GF103991011051017501999021KA1120M+00611MA1102711999999MD1610061+9999MW1021REMSYN023333   10061 81650 92000MET012CAVOK NOSIG?EQDQ01+000000PRSWM2Q02    003SCOMCG
0065039620999991985010118304+52683-008917FM-15+0020EINN V0200901N00101999991CY0099001N1+00101+00001999999ADDAG12999MA1102711999999REMMET012CAVOK NOSIG?EQDQ01+000000PRSWM2
0137039620999991985010119004+52683-008917FM-12+0020EINN V0200501N00151220001CN0080001N9+00171-00021102771ADDAG12999AY101011GA1011+015009059GF102991011051017501999021MD1510041+9999MW1101REMSYN029333   81650 92000 97362 97462EQDQ01    003SCOMCG
0102039620999991985010119304+52683-008917FM-15+0020EINN V0200301N00101220001CN0080001N1+00101-00101999999ADDAG12999GA1011+015009059MA1102711999999MW1101REMMET046VIS 10KM TO SW AND NW        ?     GRADU 4000?
0157039620999991985010120004+52683-008917SY-MT+0020EINN V0200801N00211220001CN0100001N1+00131-00101102741ADDAG12001AY101021GA1011+015009059GF101991011051017501999001MA1102711999999MD1710061+9999MW1101REMSYN017333   81650 92011MET011GRADU 4000?EQDQ01    003SCOMCG
0102039620999991985010120304+52683-008917FM-15+0020EINN V0200701N00261220001CN0090001N1+00201-00101999999ADDAG12000GA1011+060009009MA1102711999999MW1101REMMET046VIS 10KM TO SE SW NW         ?     GRADU 4000?
0185039620999991985010121004+52683-008917SY-MT+0020EINN V0200601N00211220001CN0060001N1+00131-00071102711ADDAG12000AY101031GA1031+060009009GF103991001001999999001021MA1102711999999MD1810071+9999MW1101REMSYN029333   83070 92011 97258 97362MET046VIS 8KM TO SE 10KM TO SW     ?     GRADU 3000?
0067039620999991985010121304+52683-008917FM-15+0020EINN V0201301N00101220001CN0080001N1+00001-00101999999ADDAG12999GA1041+060009009MA1102711999999MW1101REMMET011GRADU 4000?
0138039620999991985010122004+52683-008917SY-MT+0020EINN V0201101N00101220001CN0080001N1+00011-00141102711ADDAG12001AY101011GA1041+060009009GF104991001001999999001021MA1102711999999MD1610061+9999MW1101REMSYN017333   84070 92011MET011GRADU 4000?
0067039620999991985010122304+52683-008917FM-15+0020EINN V0201101N00151220001CN0060001N1+00001-00201999999ADDAG12999GA1031+060009009MA1102611999999MW1101REMMET011GRADU 3000?
0106039620999991985010123004+52683-008917FM-12+0020EINN V0201401N00261220001CN0060001N9+00051-00121102691ADDAG12999AY101021GA1011+060009009GF101991001001999999001021MD1710051+9999MW1101REMSYN017333   81070 92011
0067039620999991985010123304+52683-008917FM-15+0020EINN V0201101N00211220001CN0060001N1+00101-00101999999ADDAG12000GA1011+060009009MA1102611999999MW1101REMMET011GRADU 3000?
0149039620999991985010200004+52683-008917SY-MT+0020EINN V0201001N00211220001CN0080001N1+00091-00111102641ADDAA106999929AG13000AY101061GA1011+060009009GF101991001001999999001021MA1102611999999MD1810071+9999MW1101REMSYN017333   81070 92011MET011GRADU 3000?
0068039620999991985010200304+52683-008917FM-15+0020EINN V0200901N00211220001CN0080001N1+00101+00001999999ADDAG11999GA1011+060009009MA1102611999999MW1101REMMET012GRADU C3000?
0141039620999991985010201004+52683-008917SY-MT+0020EINN V0200901N00151220001CN0120001N1+00051-00091102621ADDAG11001AY101011GF100991001001999999001001MA1102611999999MD1710091+9999MW1101REMSYN011333   92011MET017CAVOK GRADU 3000?EQDQ01+000000PRSWM2
0070039620999991985010201304+52683-008917FM-15+0020EINN V0201101N00151999991CY0099001N1+00101+00001999999ADDAG11999MA1102511999999REMMET017CAVOK GRADU 3000?EQDQ01+000000PRSWM2
0163039620999991985010202004+52683-008917SY-MT+0020EINN V0201001N00261220001CN0140001N1+00081-00061102561ADDAG11999AY101021GA1031+075009009GF103991001001999999001021MA1102511999999MD1710131+9999MW1101REMSYN017333   83075 92011MET017CAVOK GRADU 3000?EQDQ01+000000PRSWM2
0070039620999991985010202304+52683-008917FM-15+0020EINN V0200901N00261999991CY0099001N1+00001+00001999999ADDAG12000MA1102511999999REMMET017CAVOK GRADU 3000?EQDQ01+000000PRSWM2
0163039620999991985010203004+52683-008917SY-MT+0020EINN V0200701N00211220001CN0150001N1+00001-00061102521ADDAG12000AY101031GA1021+075009009GF102991001001999999001021MA1102511999999MD1710121+9999MW1101REMSYN017333   82075 92011MET017CAVOK TEMPO 8000?EQDQ01+000000PRSWM2
0070039620999991985010203304+52683-008917FM-15+0020EINN V0200901N00261999991CY0099001N1+00101+00001999999ADDAG12999MA1102401999999REMMET017CAVOK TEMPO 8000?EQDQ01+000000PRSWM2
0163039620999991985010204004+52683-008917SY-MT+0020EINN V0201001N00211220001CN0120001N1+00081-00031102481ADDAG11001AY101011GA1011+027009039GF101991011001999999031021MA1102401999999MD1710141+9999MW1101REMSYN017333   81359 92011MET017CAVOK TEMPO 8000?EQDQ01+000000PRSWM2
0070039620999991985010204304+52683-008917FM-15+0020EINN V0200901N00211999991CY0099001N1+00101+00001999999ADDAG11999MA1102401999999REMMET017CAVOK TEMPO 8000?EQDQ01+000000PRSWM2
0169039620999991985010205004+52683-008917SY-MT+0020EINN V0201001N00211075001CN0120001N1+00051-00011102411ADDAG11999AY111021GA1011+030009039GF105991011001999999031021MA1102401999999MD1710151+9999MW1101REMSYN023333   81360 85075 92011MET017CAVOK TEMPO 8000?EQDQ01+000000PRSWM2
0070039620999991985010205304+52683-008917FM-15+0020EINN V0201001N00311999991CY0099001N1+00101+00001999999ADDAG12000MA1102301999999REMMET017CAVOK TEMPO 8000?EQDQ01+000000PRSWM2
0223039620999991985010206004+52683-008917SY-MT+0020EINN V0201101N00261220001CN0120001N1+00011-00021102351ADDAA199999929AG13000AY111061GA1011+030009039GF105991011001999999031061IA1129IA2999-00509KA1120N-00051MA1102301999999MD1710171+9999MW1101REMSYN035333   21005 33105 81360 85275 92011MET017CAVOK TEMPO 8000?EQDQ01+000000PRSWM2
0070039620999991985010206304+52683-008917FM-15+0020EINN V0201201N00261999991CY0099001N1+00001-00101999999ADDAG12999MA1102301999999REMMET017CAVOK TEMPO 8000?EQDQ01+000000PRSWM2
0211039620999991985010207004+52683-008917SY-MT+0020EINN V0201301N00361220001CN0150001N1-00011-00101102331ADDAG11999AY111011GA1031+001509079GF103991999999999999001021MA1102301999999MD1710151+9999MW1101REMSYN017333   83705 92011MET017CAVOK TEMPO 8000?EQDQ01+000002SCOTLCQ02+000002SCOLCGQ03+000992SCOLCBQ04+000000PRSWM2
0065039620999991985010207304+52683-008917FM-15+0020EINN V0201301N00411999991CY0099001N1+00001-00101999999ADDAG12999MA1102301999999REMMET012CAVOK NOSIG?EQDQ01+000000PRSWM2
0164039620999991985010208004+52683-008917SY-MT+0020EINN V0201201N00411220001CN0200001N1-00061-00121102351ADDAG12001AY101021GA1011+030009039GF105991011001999999031061MA1102301999999MD1510061+9999MW1021REMSYN023333   81360 85275 92011MET012CAVOK NOSIG?EQDQ01+000000PRSWM2
0078039620999991985010208304+52683-008917FM-15+0020EINN V0201301N00361075001CN0080001N1-00101-00201999999ADDAG12000GA1031+030009039GA2041+075009009MA1102301999999MW1101REMMET006NOSIG?
0167039620999991985010209004+52683-008917SY-MT+0020EINN V0201301N00361075001CN0080001N1-00041-00151102331ADDAG12000AY111031GA1031+030009039GA2041+075009009GF106991031001999999031021MA1102301999999MD1710021+9999MW1101REMSYN035333   83360 84075 97170 97270 92011MET006NOSIG?
0078039620999991985010209304+52683-008917FM-15+0020EINN V0201401N00261075001CN0080001N1+00001-00101999999ADDAG12999GA1031+030009039GA2041+075009009MA1102301999999MW1101REMMET006NOSIG?
0176039620999991985010210004+52683-008917SY-MT+0020EINN V0201201N00311075001CN0100001N1-00021-00201102321ADDAG12001AY121011GA1011+030009039GF106991011001999999031021MA1102301999999MD1810011+9999MW1101REMSYN035333   81360 86075 97170 97270 92000MET012CAVOK NOSIG?EQDQ01+000000PRSWM2
0065039620999991985010210304+52683-008917FM-15+0020EINN V0201301N00211999991CY0099001N1+00001-00201999999ADDAG12999MA1102301999999REMMET012CAVOK NOSIG?EQDQ01+000000PRSWM2
0182039620999991985010211004+52683-008917SY-MT+0020EINN V0201401N00151220001CN0100001N1+00001-00151102321ADDAG12001AY121021GA1021+030009039GF106991021001999999031061MA1102301999999MD1610031+9999MW1101REMSYN041333   82360 86275 97170 97270 92000 94720MET012CAVOK NOSIG?EQDQ01+000000PRSWM2
0065039620999991985010211304+52683-008917FM-15+0020EINN V0201401N00101999991CY0099001N1+00001-00101999999ADDAG12000MA1102201999999REMMET012CAVOK NOSIG?EQDQ01+000000PRSWM2
0181039620999991985010212004+52683-008917SY-MT+0020EINN V0201301N00261220001CN0100001N1+00081-00091102271ADDAA106999929AG10000AY111061GA1021+030009039GF105991021001999999031081MA1102201999999MD1810061+9999MW1101REMSYN029333   82360 84275 97165 92000MET012CAVOK NOSIG?EQDQ01+000000PRSWM2
0101039620999991985010212304+52683-008917FM-15+0020EINN V0201301N00211075001CN0090001N1+00101+00001999999ADDAG12999GA1021+030009039GA2051+075009029MA1102201999999MW1101REMMET02910KM TO NE       ?     NOSIG?
0178039620999991985010213004+52683-008917SY-MT+0020EINN V0201301N00361075001CN0080001N1+00191+00031102201ADDAG12999AY121011GA1021+030009039GA2051+075009029GF105991021001999999031081MA1102101999999MD1810121+9999MW1101REMSYN023333   82360 85275 97164MET02910KM TO NE       ?     NOSIG?
0101039620999991985010213304+52683-008917FM-15+0020EINN V0201301N00361075001CN0080001N1+00201+00001999999ADDAG12999GA1021+030009039GA2061+075009029MA1102101999999MW1101REMMET02910KM TO NE       ?     NOSIG?
0171039620999991985010214004+52683-008917SY-MT+0020EINN V0201401N00261075001CN0070001N1+00271+00061102151ADDAG12001AY121021GA1021+030009039GA2061+075009029GF107991021001999999031081MA1102101999999MD1710171+9999MW1101REMSYN023333   82360 86275 97164MET02210KM TO NE GRADU 9999?
0094039620999991985010214304+52683-008917FM-15+0020EINN V0201301N00411075001CN0070001N1+00301+00101999999ADDAG12000GA1021+030009039GA2051+075009029MA1102101999999MW1101REMMET02210KM TO NE GRADU 9999?
0183039620999991985010215004+52683-008917SY-MT+0020EINN V0201201N00311075001CN0070001N1+00301+00061102111ADDAG12000AY121031GA1021+030009039GA2061+075009029GF107991021001999999031081MA1102101999999MD1710161+9999MW1101REMSYN023333   82360 86275 97164MET03410KM TO N+NE     ?     GRADU 9999?
0101039620999991985010215304+52683-008917FM-15+0020EINN V0201401N00211075001CN0070001N1+00301+00101999999ADDAG12999GA1021+030009039GA2061+075009029MA1102101999999MW1101REMMET02910KM TO NE       ?     NOSIG?
0160039620999991985010216004+52683-008917SY-MT+0020EINN V0201401N00151075001CN0090001N1+00261+00071102111ADDAG12001AY121011GA1021+030009039GA2071+075009029GF107991021001999999031081MA1102101999999MD1610091+9999MW1101REMSYN023333   82360 87275 94720MET011GRADU 7000?
0094039620999991985010216304+52683-008917FM-15+0020EINN V0201301N00261075001CN0090001N1+00201+00101999999ADDAG12999GA1021+030009039GA2071+075009029MA1102001999999MW1101REMMET02210KM TO NE GRADU 7000?
0178039620999991985010217004+52683-008917SY-MT+0020EINN V0201201N00311075001CN0070001N1+00231+00101102081ADDAG11001AY121021GA1011+030009039GA2061+075009029GF106991011001999999031081MA1102001999999MD1710071+9999MW1101REMSYN023333   81360 86275 97164MET02910KM TO NE       ?     NOSIG?
0078039620999991985010217304+52683-008917FM-15+0020EINN V0201301N00211075001CN0070001N1+00201+00101999999ADDAG12000GA1011+030009039GA2051+075009029MA1102001999999MW1101REMMET006NOSIG?
0185039620999991985010218004+52683-008917SY-MT+0020EINN V0201201N00261075001CN0070001N1+00211+00051102071ADDAA199999929AG13000AY121061GA1011+030009039GA2061+075009029GF106991011001999999031081KA1120M+00301MA1102001999999MD1710041+9999MW1101REMSYN029333   10030 81360 86275 94720MET006NOSIG?
0078039620999991985010218304+52683-008917FM-15+0020EINN V0201301N00261075001CN0070001N1+00201+00001999999ADDAG12999GA1011+030009039GA2071+075009029MA1102001999999MW1101REMMET006NOSIG?
0155039620999991985010219004+52683-008917SY-MT+0020EINN V0201301N00211075001CN0070001N1+00171+00041102081ADDAG12999AY121011GA1011+030009039GA2071+075009029GF107991011001999999031081MA1102001999999MD1510031+9999MW1101REMSYN023333   81360 87275 94720MET006NOSIG?
0078039620999991985010219304+52683-008917FM-15+0020EINN V0201301N00211075001CN0070001N1+00201+00001999999ADDAG12999GA1011+030009039GA2061+075009029MA1102001999999MW1101REMMET006NOSIG?
0127039620999991985010220004+52683-008917SY-MT+0020EINN V0201301N00261075001CN0070001N1+00151-00041102081ADDAG12999AY121021GA1051+075009029GF105991001001999999001081MA1102001999999MD1510001+9999MW1101REMSYN011333   85275MET006NOSIG?
0062039620999991985010220304+52683-008917FM-15+0020EINN V0201401N00211075001CN0070001N1+00101-00101999999ADDAG12000GA1061+075009029MA1102001999999MW1101REMMET006NOSIG?
0139039620999991985010221004+52683-008917SY-MT+0020EINN V0201301N00261075001CN0070001N1+00071-00101102061ADDAG12000AY121031GA1061+075009029GF106991001001999999001081MA1102001999999MD1810011+9999MW1101REMSYN023333   86275 94720 92000MET006NOSIG?
0062039620999991985010221304+52683-008917FM-15+0020EINN V0201301N00311075001CN0070001N1+00101-00101999999ADDAG12999GA1061+075009029MA1102001999999MW1101REMMET006NOSIG?
0147039620999991985010222004+52683-008917SY-MT+0020EINN V0201301N00311220001CN0070001N1+00071-00101102051ADDAG12999AY111011GA1041+075009009GF104991001001999999001021GJ100669MA1102001999999MD1710031+9999MW1101REMSYN023333   84075 94011 92000MET006NOSIG?
0062039620999991985010222304+52683-008917FM-15+0020EINN V0201301N00311220001CN0070001N1+00101-00101999999ADDAG12999GA1041+075009009MA1102001999999MW1101REMMET006NOSIG?
0133039620999991985010223004+52683-008917SY-MT+0020EINN V0201201N00361220001CN0070001N1+00071-00131102061ADDAG12001AY101021GA1041+075009009GF104991001001999999001021MA1102001999999MD1610021+9999MW1101REMSYN017333   84075 92000MET006NOSIG?
0078039620999991985010223304+52683-008917FM-15+0020EINN V0201101N00411220001CN0070001N1+00101-00101999999ADDAG12000GA1021+036009039GA2031+075009009MA1102001999999MW1101REMMET006NOSIG?
0166039620999991985010300004+52683-008917SY-MT+0020EINN V0201101N00411075001CN0090001N1+00131+00021102061ADDAA106999929AG10000AY111061GA1021+036009039GA2041+075009009GF105991021001999999031021MA1102001999999MD1410001+9999MW1101REMSYN023333   82362 85075 92000MET006NOSIG?
0078039620999991985010300304+52683-008917FM-15+0020EINN V0201401N00101075001CN0080001N1+00201+00001999999ADDAG11999GA1031+036009039GA2041+075009009MA1102001999999MW1101REMMET006NOSIG?
0155039620999991985010301004+52683-008917SY-MT+0020EINN V0201201N00151075001CN0080001N1+00091-00021102061ADDAG11001AY121011GA1021+036009039GA2041+075009009GF105991021001999999031021MA1102001999999MD1210011+9999MW1101REMSYN023333   82362 84075 92011MET006NOSIG?
0078039620999991985010301304+52683-008917FM-15+0020EINN V0201401N00211220001CN0090001N1+00101-00101999999ADDAG11999GA1011+036009039GA2031+075009009MA1102001999999MW1101REMMET006NOSIG?
0155039620999991985010302004+52683-008917SY-MT+0020EINN V0201301N00151075001CN0090001N1+00121-00051102061ADDAG11001AY111021GA1011+036009039GA2041+075009009GF105991011001999999031021MA1102001999999MD1410001+9999MW1101REMSYN023333   81362 84075 92011MET006NOSIG?
0071039620999991985010302304+52683-008917FM-15+0020EINN V0201201N00151220001CN0090001N1+00101+00001999999ADDAG12000GA1011+036009039MA1102001999999MW1101REMMET015NOSIG?95??NNNN?
0163039620999991985010303004+52683-008917SY-MT+0020EINN V0209991C00001220001CN0100001N1+00191-00091102061ADDAG11000AY111031GA1031+075009009GF103991001001999999001021MA1102001999999MD1410001+9999MW1101REMSYN017333   83075 92011MET017CAVOK TEMPO 8000?EQDQ01+000000PRSWM2
0070039620999991985010303304+52683-008917FM-15+0020EINN V0209991C00001999991CY0099001N1+00101+00001999999ADDAG12999MA1102001999999REMMET017CAVOK TEMPO 8000?EQDQ01+000000PRSWM2
0157039620999991985010304004+52683-008917SY-MT+0020EINN V0209991C00001220001CN0120001N1+00001-00151102041ADDAG11999AY101011GA1011+075009009GF101991001001999999001021MA1102001999999MD1810021+9999MW1101REMSYN011333   81075MET017CAVOK TEMPO 8000?EQDQ01+000000PRSWM2
0070039620999991985010304304+52683-008917FM-15+0020EINN V0209991C00001999991CY0099001N1+00001-00101999999ADDAG12999MA1102001999999REMMET017CAVOK TEMPO 8000?EQDQ01+000000PRSWM2
0163039620999991985010305004+52683-008917SY-MT+0020EINN V0209991C00001220001CN0120001N1-00021-00131102011ADDAG12001AY101021GA1011+075009009GF101991001001999999001021MA1102001999999MD1810051+9999MW1101REMSYN017333   81075 92011MET017CAVOK TEMPO 8000?EQDQ01+000000PRSWM2
0070039620999991985010305304+52683-008917FM-15+0020EINN V0209991C00001999991CY0099001N1-00101-00201999999ADDAG12000MA1102001999999REMMET017CAVOK TEMPO 8000?EQDQ01+000000PRSWM2
0217039620999991985010306004+52683-008917SY-MT+0020EINN V0201201N00151220001CN0120001N1-00071-00161102031ADDAA199999929AG10000AY111061GA1011+075009009GF101991001001999999001021IA1149IA2999-00609KA1120N-00091MA1102001999999MD1510031+9999MW1101REMSYN029333   21009 34106 81075 92011MET017CAVOK TEMPO 8000?EQDQ01+000000PRSWM2
0070039620999991985010306304+52683-008917FM-15+0020EINN V0200701N00051999991CY0099001N1-00101-00201999999ADDAG12999MA1102001999999REMMET017CAVOK TEMPO 8000?EQDQ01+000000PRSWM2
0163039620999991985010307004+52683-008917SY-MT+0020EINN V0209991C00001220001CN0150001N1-00131-00131102041ADDAG12999AY101011GA1011+075009009GF101991001001999999001021MA1102001999999MD1510001+9999MW1101REMSYN017333   81075 92011MET017CAVOK TEMPO 8000?EQDQ01+000000PRSWM2
0070039620999991985010307304+52683-008917FM-15+0020EINN V0209991C00001999991CY0099001N1-00201-00201999999ADDAG12999MA1102001999999REMMET017CAVOK TEMPO 8000?EQDQ01+000000PRSWM2
0136039620999991985010308004+52683-008917SY-MT+0020EINN V0209991C00001220001CN0260001N1-00251-00251102081ADDAG11001AY101021GF100991001001999999001001MA1102001999999MD1210071+9999MW1021REMSYN011333   92011MET012CAVOK NOSIG?EQDQ01+000000PRSWM2
0118039620999991985010309004+52683-008917FM-12+0020EINN V0203001N00051220001CN0090001N9-00261-00401102101ADDAG11000AY101031GA1011+030009039GF101991011001999999031001MD1210071+9999MW1101REMSYN029333   81360 97182 97282 92011
0100039620999991985010310004+52683-008917FM-12+0020EINN V0209991C00001220001CN0250001N9-00221-00281102141ADDAG11999AY101011GA1011+015009059GF101991011051017501031001MD1210101+9999MW1021REMSYN011333   81650
0065039620999991985010310304+52683-008917FM-15+0020EINN V0209991C00001999991CY0099001N1-00201-00201999999ADDAG12999MA1102101999999REMMET012CAVOK NOSIG?EQDQ01+000000PRSWM2
0131039620999991985010311004+52683-008917FM-12+0020EINN V0209991C00001220001CN0160001N9-00081-00211102161ADDAG11999AY101021GA1011+015009059GF101991011051017501999001MD1210081+9999MW1021REMSYN023333   81650 92000 97175EQDQ01    003SCOMCG
0203039620999991985010312004+52683-008917SY-MT+0020EINN V0209991C00001220001CN0100001N1+00041-00231102151ADDAA106999929AG10000AY101061GA1011+015009059GF101991011051017501999001MA1102101999999MD1010051+9999MW1101REMSYN035333   81650 92000 97170 97270 97470MET012CAVOK NOSIG?EQDQ01+000000PRSWM2Q02    003SCOMCG
0062039620999991985010312304+52683-008917FM-15+0020EINN V0209991C00001220001CN0112001N1+00101-00101999999ADDAG12999GA1011+001809079MA1102101999999MW1101REMMET006NOSIG?
0133039620999991985010313004+52683-008917SY-MT+0020EINN V0200801N00101220001CN0100001N1+00151-00331102111ADDAG11001AY101011GA1011+012009059GF101991011051012501001001MA1102101999999MD1810031+9999MW1051REMSYN017333   81640 97180MET006NOSIG?
0062039620999991985010313304+52683-008917FM-15+0020EINN V0201001N00211220001CN0112001N1+00301-00601999999ADDAG12999GA1011+012009059MA1102001999999MW1051REMMET006NOSIG?
0122039620999991985010314004+52683-008917SY-MT+0020EINN V0201201N00261220001CN0090001N1+00321-00681102071ADDAG12999AY101021GF100991001001999999001001MA1102001999999MD1810091+9999MW1051REMSYN011333   97180MET01710KM TO NE NOSIG?
0122039620999991985010315004+52683-008917SY-MT+0020EINN V0201201N00211220001CN0090001N1+00421-00041102061ADDAG12000AY101031GF100991001001999999001001MA1102001999999MD1610091+9999MW1051REMSYN011333   97180MET01710KM TO NE NOSIG?
0057039620999991985010315304+52683-008917FM-15+0020EINN V0209991C00001220001CN0090001N1+00401+00201999999ADDAG12999MA1102001999999MW1051REMMET01710KM TO NE NOSIG?
0121039620999991985010316004+52683-008917SY-MT+0020EINN V0209991C00001220001CN0090001N1+00351+00061102061ADDAG12999AY101011GF100991001001999999001001MA1102001999999MD1610051+9999MW1051REMSYN011333   97170MET01610KM TONE NOSIG?
0065039620999991985010316304+52683-008917FM-15+0020EINN V0209991C00001999991CY0099001N1+00201+00101999999ADDAG12999MA1102001999999REMMET012CAVOK NOSIG?EQDQ01+000000PRSWM2
0142039620999991985010317004+52683-008917SY-MT+0020EINN V0200601N00101220001CN0100001N1+00141-00031102091ADDAG12001AY101021GF100991001001999999001001MA1102001999999MD1310021+9999MW1101REMSYN017333   97170 92000MET012CAVOK NOSIG?EQDQ01+000000PRSWM2
0065039620999991985010317304+52683-008917FM-15+0020EINN V0200601N00261999991CY0099001N1+00001-00201999999ADDAG12000MA1102001999999REMMET012CAVOK NOSIG?EQDQ01+000000PRSWM2
0158039620999991985010318004+52683-008917SY-MT+0020EINN V0200601N00211220001CN0060001N1+00061-00241102071ADDAA199999929AG10000AY101061GF100991001001999999001001KA1120M+00431MA1102001999999MD1010011+9999MW1101REMSYN023333   10043 92000 97360MET01710KM TO SW NOSIG?
0047039620999991985010318304+52683-008917FM-15+0020EINN V0200601N00211220001CN0080001N1+00001-00201999999ADDAG12999MA1102001999999MW1101REMMET007NO SIG?
0141039620999991985010319004+52683-008917SY-MT+0020EINN V0200601N00151220001CN0100001N1+00001-00241102071ADDAG11001AY101011GF100991001001999999001001MA1102001999999MD1110011+9999MW1101REMSYN011333   92011MET017CAVOK GRADU 6000?EQDQ01+000000PRSWM2
0070039620999991985010319304+52683-008917FM-15+0020EINN V0209991C00001999991CY0099001N1-00201-00301999999ADDAG12999MA1102001999999REMMET017CAVOK GRADU 6000?EQDQ01+000000PRSWM2
0136039620999991985010320004+52683-008917SY-MT+0020EINN V0203001N00151220001CN0120001N1-00141-00291102051ADDAG11999AY101021GF100991001001999999001001MA1102001999999MD1710041+9999MW1101REMSYN011333   92011MET012CAVOK NOSIG?EQDQ01+000000PRSWM2
0065039620999991985010320304+52683-008917FM-15+0020EINN V0203401N00151999991CY0099001N1-00101-00301999999ADDAG11000MA1102001999999REMMET012CAVOK NOSIG?EQDQ01+000000PRSWM2
0136039620999991985010321004+52683-008917SY-MT+0020EINN V0203301N00151220001CN0120001N1-00131-00271102051ADDAG12000AY101031GF100991001001999999001001MA1102001999999MD1610021+9999MW1101REMSYN011333   92011MET012CAVOK NOSIG?EQDQ01+000000PRSWM2
0065039620999991985010321304+52683-008917FM-15+0020EINN V0200201N00211999991CY0099001N1-00201-00401999999ADDAG12001MA1102001999999REMMET012CAVOK NOSIG?EQDQ01+000000PRSWM2
0137039620999991985010322004+52683-008917SY-MT+0020EINN V0200201N00211220001CN0120001N1-00161-00321102071ADDAG12001AY101011GF100991001001999999001001MA1102001999999MD1510001+9999MW1101REMSYN011333   92011MET013CAVOK NO SIG?EQDQ01+000000PRSWM2
0066039620999991985010322304+52683-008917FM-15+0020EINN V0203501N00101999991CY0099001N1-00201-00401999999ADDAG11001MA1102001999999REMMET013CAVOK NO SIG?EQDQ01+000000PRSWM2
0137039620999991985010323004+52683-008917SY-MT+0020EINN V0200101N00051220001CN0120001N1-00211-00401102071ADDAG12001AY101021GF100991001001999999001001MA1102001999999MD1210021+9999MW1101REMSYN011333   92012MET013CAVOK NO SIG?EQDQ01+000000PRSWM2
0066039620999991985010323304+52683-008917FM-15+0020EINN V0200201N00151999991CY0099001N1-00201-00401999999ADDAG12000MA1102001999999REMMET013CAVOK NO SIG?EQDQ01+000000PRSWM2
0147039620999991985010400004+52683-008917SY-MT+0020EINN V0200101N00211220001CN0120001N1-00251-00391102061ADDAA106999929AG13000AY101061GF100991001001999999001001MA1102001999999MD1010011+9999MW1101REMSYN011333   92012MET012CAVOK NOSIG?EQDQ01+000000PRSWM2
0046039620999991985010400304+52683-008917FM-15+0020EINN V0202401N00051220001CN0090001N1-00301-00401999999ADDAG11999MA1102001999999MW1101REMMET006NOSIG?
0111039620999991985010401004+52683-008917SY-MT+0020EINN V0209991C00001220001CN0090001N1-00301-00401102031ADDAG11001AY101011GF100991001001999999001001MA1102001999999MD1810051+9999MW1101REMSYN011333   92012MET006NOSIG?
0046039620999991985010401304+52683-008917FM-15+0020EINN V0203501N00151220001CN0090001N1-00201-00301999999ADDAG11999MA1102001999999MW1101REMMET006NOSIG?
0136039620999991985010402004+52683-008917SY-MT+0020EINN V0203601N00101220001CN0110001N1-00271-00411102011ADDAG11001AY101021GF100991001001999999001001MA1101901999999MD1710071+9999MW1101REMSYN011333   92012MET012CAVOK NOSIG?EQDQ01+000000PRSWM2
0065039620999991985010402304+52683-008917FM-15+0020EINN V0203301N00151999991CY0099001N1-00301-00401999999ADDAG12000MA1101901999999REMMET012CAVOK NOSIG?EQDQ01+000000PRSWM2
0158039620999991985010403004+52683-008917SY-MT+0020EINN V0203401N00151220001CN0110001N1-00361-00471101991ADDAG11000AY101031GA1011+060009009GF101991001001999999001021MA1101901999999MD1610081+9999MW1101REMSYN017333   81070 92012MET012CAVOK NOSIG?EQDQ01+000000PRSWM2
0065039620999991985010403304+52683-008917FM-15+0020EINN V0200401N00151999991CY0099001N1-00301-00401999999ADDAG12999MA1101901999999REMMET012CAVOK NOSIG?EQDQ01+000000PRSWM2
0133039620999991985010404004+52683-008917SY-MT+0020EINN V0203501N00261012001CN0110001N1-00311-00391101951ADDAG11999AY111011GA1061+012009059GF106991061051012501999999MA1101901999999MD1710081+9999MW1101REMSYN017333   86640 92012MET006NOSIG?
0062039620999991985010404304+52683-008917FM-15+0020EINN V0200301N00151220001CN0112001N1-00201-00301999999ADDAG12999GA1031+012009059MA1101901999999MW1101REMMET006NOSIG?
0136039620999991985010405004+52683-008917SY-MT+0020EINN V0200601N00211220001CN0120001N1-00211-00301101891ADDAG11001AY111021GF100991001001999999001001MA1101801999999MD1810121+9999MW1101REMSYN011333   92012MET012CAVOK NOSIG?EQDQ01+000000PRSWM2
0046039620999991985010405304+52683-008917FM-15+0020EINN V0200601N00151220001CN0090001N1-00301-00401999999ADDAG12000MA1101801999999MW1101REMMET006NOSIG?
0165039620999991985010406004+52683-008917SY-MT+0020EINN V0209991C00001220001CN0090001N1-00241-00331101881ADDAA199999929AG10000AY111061GF100991001001999999001001IA1149IA2999-00809KA1120N-00401MA1101801999999MD1610111+9999MW1101REMSYN023333   21040 34108 92012MET006NOSIG?
0046039620999991985010406304+52683-008917FM-15+0020EINN V0209991C00001220001CN0090001N1-00301-00401999999ADDAG11999MA1101801999999MW1101REMMET006NOSIG?
0111039620999991985010407004+52683-008917SY-MT+0020EINN V0209991C00001220001CN0090001N1-00371-00451101871ADDAG11999AY101011GF100991001001999999001001MA1101801999999MD1710081+9999MW1101REMSYN011333   92012MET006NOSIG?
0152039620999991985010408004+52683-008917SY-MT+0020EINN V0203601N00101220001CN0090001N1-00371-00451101871ADDAG12999AY101021GA1011+015009059GF101991011051017501999001MA1101801999999MD1610021+9999MW1101REMSYN017333   81650 92012MET006NOSIG?EQDQ01    003SCOMCG
0147039620999991985010409004+52683-008917SY-MT+0020EINN V0200401N00101220001CN0070001N1-00321-00361101891ADDAG12000AY101031GA1011+000309079GF101991011061000251001001MA1101801999999MD1310011+9999MW1101REMSYN023333   81701 92012 97365MET01410KM SE NOSIG?
0152039620999991985010410004+52683-008917SY-MT+0020EINN V0209991C00001220001CN0070001N1-00301-00361101881ADDAG12001AY101011GA1011+015009059GF101991011051017501999001MA1101801999999MD1010011+9999MW1101REMSYN017333   81650 92012MET006NOSIG?EQDQ01    003SCOMCG
0077039620999991985010410304+52683-008917FM-15+0020EINN V0209991C00001220001CN0070001N1-00101-00301999999ADDAG12999GA1011+015009059MA1101801999999MW1101REMMET021VIS 10KM TO SE NOSIG?
0172039620999991985010411004+52683-008917SY-MT+0020EINN V0202401N00101220001CN0070001N1+00021-00301101881ADDAG12999AY101021GA1011+015009059GF101991011051017501999001MA1101801999999MD1110021+9999MW1101REMSYN023333   81650 97365 92000MET020VIS 10KM TOSE NOSIG?EQDQ01    003SCOMCG
0091039620999991985010411304+52683-008917FM-15+0020EINN V0202301N00101220001CN0070001N1+00101-00401999999ADDAG12000GA1011+015009059MA1101801999999MW1101REMMET03510KM NE AND SE         ?     NOSIG?
0175039620999991985010412004+52683-008917SY-MT+0020EINN V0202301N00101220001CN0070001N1+00171-00351101841ADDAA106999929AG13000AY101061GA1011+015009059GF101991011051017501999001MA1101801999999MD1810041+9999MW1101REMSYN029333   81650 97165 97265 92000MET006NOSIG?EQDQ01    003SCOMCG
0084039620999991985010412304+52683-008917FM-15+0020EINN V0202201N00101220001CN0070001N1+00201-00401999999ADDAG12999GA1011+015009059MA1101801999999MW1101REMMET028VIS 10KM TO NE AND SE NOSIG?
0174039620999991985010413004+52683-008917SY-MT+0020EINN V0209991C00001220001CN0120001N1+00301-00081101771ADDAG11001AY101011GA1011+015009059GF101991011051017501999001MA1101801999999MD1810101+9999MW1101REMSYN017333   81650 92000MET012CAVOK NOSIG?EQDQ01+000000PRSWM2Q02    003SCOMCG
0065039620999991985010413304+52683-008917FM-15+0020EINN V0201201N00051999991CY0099001N1+00401-00101999999ADDAG12999MA1101691999999REMMET012CAVOK NOSIG?EQDQ01+000000PRSWM2
0164039620999991985010414004+52683-008917SY-MT+0020EINN V0200401N00101220001CN0090001N1+00401+00061101731ADDAG12001AY101021GA1011+015009059GF101991011051017501999001MA1101691999999MD1810151+9999MW1101REMSYN017333   81650 97170MET01810KM  TO NE NOSIG?EQDQ01    003SCOMCG
0065039620999991985010414304+52683-008917FM-15+0020EINN V0209991C00001999991CY0099001N1+00401+00101999999ADDAG12000MA1101691999999REMMET012CAVOK NOSIG?EQDQ01+000000PRSWM2
0174039620999991985010415004+52683-008917SY-MT+0020EINN V0200501N00151220001CN0140001N1+00451+00091101701ADDAG12000AY101031GA1011+015009059GF101991011051017501999001MA1101591999999MD1710141+9999MW1101REMSYN017333   81650 97175MET012CAVOK NOSIG?EQDQ01+000000PRSWM2Q02    003SCOMCG
0065039620999991985010415304+52683-008917FM-15+0020EINN V0200701N00361999991CY0099001N1+00401+00001999999ADDAG12999MA1101591999999REMMET012CAVOK NOSIG?EQDQ01+000000PRSWM2
0168039620999991985010416004+52683-008917SY-MT+0020EINN V0200701N00311220001CN0200001N1+00341+00101101691ADDAG12999AY101011GA1011+015009059GF101991011051017501999001MA1101591999999MD1610081+9999MW1021REMSYN011333   81650MET012CAVOK NOSIG?EQDQ01+000000PRSWM2Q02    003SCOMCG
0168039620999991985010417004+52683-008917SY-MT+0020EINN V0200701N00511220001CN0160001N1+00271+00031101671ADDAG12999AY101021GA1011+015009059GF101991011051017501999001MA1101591999999MD1710061+9999MW1021REMSYN011333   81650MET012CAVOK NOSIG?EQDQ01+000000PRSWM2Q02    003SCOMCG
0065039620999991985010417304+52683-008917FM-15+0020EINN V0200601N00411999991CY0099001N1+00201+00001999999ADDAG12000MA1101591999999REMMET012CAVOK NOSIG?EQDQ01+000000PRSWM2
0166039620999991985010418004+52683-008917SY-MT+0020EINN V0200601N00361220001CN0150001N1+00221+00001101671ADDAA199999929AG10000AY101061GF100991001001999999001001KA1120M+00451MA1101591999999MD1610031+9999MW1021REMSYN017333   10045 92000MET012CAVOK NOSIG?EQDQ01+000000PRSWM2
0065039620999991985010418304+52683-008917FM-15+0020EINN V0200801N00311999991CY0099001N1+00201+00001999999ADDAG12999MA1101591999999REMMET012CAVOK NOSIG?EQDQ01+000000PRSWM2
0136039620999991985010419004+52683-008917SY-MT+0020EINN V0200701N00461220001CN0150001N1+00161+00001101701ADDAG12001AY101011GF100991001001999999001001MA1101591999999MD1310011+9999MW1021REMSYN011333   92000MET012CAVOK NOSIG?EQDQ01+000000PRSWM2
0065039620999991985010419304+52683-008917FM-15+0020EINN V0200601N00151999991CY0099001N1+00201+00101999999ADDAG12999MA1101691999999REMMET012CAVOK NOSIG?EQDQ01+000000PRSWM2
0152039620999991985010420004+52683-008917SY-MT+0020EINN V0200501N00261220001CN0150001N1+00131+00021101721ADDAG12999AY101021GA1011+009009059GF101991011051012501001001MA1101691999999MD1110051+9999MW1021REMSYN017333   81630 92000MET006NOSIG?EQDQ01+000000PRSWM2
0065039620999991985010420304+52683-008917FM-15+0020EINN V0200401N00311999991CY0099001N1+00101+00001999999ADDAG12000MA1101691999999REMMET012CAVOK NOSIG?EQDQ01+000000PRSWM2
0136039620999991985010421004+52683-008917SY-MT+0020EINN V0200401N00211220001CN0150001N1+00061-00081101741ADDAG12000AY101031GF100991001001999999001001MA1101691999999MD1210071+9999MW1021REMSYN011333   92001MET012CAVOK NOSIG?EQDQ01+000000PRSWM2
0065039620999991985010421304+52683-008917FM-15+0020EINN V0200401N00101999991CY0099001N1+00001-00101999999ADDAG12999MA1101691999999REMMET012CAVOK NOSIG?EQDQ01+000000PRSWM2
0150039620999991985010422004+52683-008917SY-MT+0020EINN V0200601N00311220001CN0150001N1+00051-00121101721ADDAG12999AY101011GF100991001001999999001001GJ104029MA1101691999999MD1010021+9999MW1021REMSYN017333   92001 94067MET012CAVOK NOSIG?EQDQ01+000000PRSWM2
0065039620999991985010422304+52683-008917FM-15+0020EINN V0200601N00511999991CY0099001N1+00201+00001999999ADDAG12001MA1101691999999REMMET012CAVOK NOSIG?EQDQ01+000000PRSWM2
0152039620999991985010423004+52683-008917SY-MT+0020EINN V0200701N00411220001CN0150001N1+00201-00051101731ADDAG12999AY101021GA1021+009609059GF102991021051012501001001MA1101691999999MD1310021+9999MW1021REMSYN017333   82632 92001MET006NOSIG?EQDQ01+000000PRSWM2
0075039620999991985010423304+52683-008917FM-15+0020EINN V0200601N00261220001CN0112001N1+00201+00001999999ADDAG12000GA1011+009609059MA1101691999999REMMET006NOSIG?EQDQ01+000000PRSWM2
0147039620999991985010500004+52683-008917SY-MT+0020EINN V0200501N00151220001CN0150001N1+00221-00061101751ADDAA106999929AG13000AY101061GF100991001001999999001001MA1101691999999MD1310011+9999MW1021REMSYN011333   92001MET012CAVOK NOSIG?EQDQ01+000000PRSWM2
0070039620999991985010500304+52683-008917FM-15+0020EINN V0203501N00151999991CY0099001N1+00201-00101999999ADDAG11999MA1101691999999REMMET017CAVOK GRADU 7000?EQDQ01+000000PRSWM2
0141039620999991985010501004+52683-008917SY-MT+0020EINN V0200401N00211220001CN0150001N1+00041-00071101761ADDAG11001AY101011GF100991001001999999001001MA1101691999999MD1210041+9999MW1101REMSYN011333   92001MET017CAVOK GRADU 7000?EQDQ01+000000PRSWM2
0080039620999991985010501194+52683-008917FM-15+0020EINN V0200201N00261013501CN0112001N1+00001+00001999999ADDAG11999GA1071+013509059MA1101691999999REMMET011TEMPO 7000?EQDQ01+000000PRSWM2
0070039620999991985010501304+52683-008917FM-15+0020EINN V0200701N00311999991CY0099001N1+00101-00101999999ADDAG11999MA1101691999999REMMET017CAVOK GRADU 7000?EQDQ01+000000PRSWM2
0141039620999991985010502004+52683-008917SY-MT+0020EINN V0200601N00311220001CN0150001N1+00041-00141101771ADDAG11999AY101021GF100991001001999999001001MA1101691999999MD1210031+9999MW1101REMSYN011333   92001MET017CAVOK GRADU 7000?EQDQ01+000000PRSWM2
0141039620999991985010503004+52683-008917SY-MT+0020EINN V0203301N00211220001CN0150001N1+00001-00211101781ADDAG11000AY101031GF100991001001999999001001MA1101691999999MD1210031+9999MW1101REMSYN011333   92001MET017CAVOK TEMPO 7000?EQDQ01+000000PRSWM2
0070039620999991985010503304+52683-008917FM-15+0020EINN V0200101N00211999991CY0099001N1-00101-00201999999ADDAG12999MA1101691999999REMMET017CAVOK TEMPO 7000?EQDQ01+000000PRSWM2
0141039620999991985010504004+52683-008917SY-MT+0020EINN V0200301N00311220001CN0200001N1-00021-00131101761ADDAG11999AY101011GF100991001001999999001001MA1101691999999MD1010001+9999MW1021REMSYN011333   92011MET017CAVOK TEMPO 7000?EQDQ01+000000PRSWM2
0080039620999991985010504304+52683-008917FM-15+0020EINN V0203201N00101220001CN0112001N1+00001-00101999999ADDAG11999GA1041+011409059MA1101691999999REMMET011TEMPO 7000?EQDQ01+000000PRSWM2
0186039620999991985010505004+52683-008917SY-MT+0020EINN V0200101N00211012001CN0200001N1-00031-00061101731ADDAG11999AY101021GA1071+012009059GF107991071051012501999999MA1101691999999MD1810041+9999MW1021REMSYN017333   87640 92011MET040TEMPO 70000 EEE TEMPO        ?     7000?EQDQ01+000000PRSWM2
0080039620999991985010505304+52683-008917FM-15+0020EINN V0203601N00211012001CN0112001N1+00001+00001999999ADDAG12000GA1071+012009059MA1101691999999REMMET011TEMPO 7000?EQDQ01+000000PRSWM2
0211039620999991985010506004+52683-008917SY-MT+0020EINN V0203501N00261220001CN0180001N1+00051-00121101731ADDAA199999929AG13000AY101061GA1011+012009059GF101991011051012501001001IA1149IA2999-00409KA1120N-00131MA1101691999999MD1610051+9999MW1021REMSYN029333   21013 34104 81640 92011MET011TEMPO 7000?EQDQ01+000000PRSWM2
0080039620999991985010506304+52683-008917FM-15+0020EINN V0200201N00261013501CN0112001N1+00001+00001999999ADDAG12999GA1071+013509059MA1101691999999REMMET011TEMPO 7000?EQDQ01+000000PRSWM2
0154039620999991985010507004+52683-008917SY-MT+0020EINN V0200301N00151021001CN0120001N1+00061-00141101721ADDAG11001AY111011GA1021+012009059GA2051+021009059GF107991061051012501999999MA1101691999999MD1810041+9999MW1101REMSYN017333   82640 85657MET011TEMPO 7000?
0070039620999991985010507304+52683-008917FM-15+0020EINN V0200401N00211999991CY0099001N1+00101-00201999999ADDAG12999MA1101691999999REMMET017CAVOK TEMPO 7000?EQDQ01+000000PRSWM2
0138039620999991985010508004+52683-008917SY-MT+0020EINN V0200701N00151013501CN0120001N1+00101-00221101751ADDAG11001AY121021GA1061+013509059GF106991061051012501999999MA1101691999999MD1310021+9999MW1101REMSYN017333   86645 92001MET011TEMPO 7000?
0068039620999991985010508304+52683-008917FM-15+0020EINN V0200301N00311220001CN0112001N1+00301+00001999999ADDAG12000GA1011+006009059MA1101691999999MW1101REMMET012TEMPO 70000?
0133039620999991985010509004+52683-008917SY-MT+0020EINN V0200801N00101220001CN0120001N1+00141-00031101791ADDAG11000AY111031GA1011+007509059GF101991011051008001001001MA1101691999999MD1310061+9999MW1101REMSYN017333   81625 92001MET006NOSIG?
0062039620999991985010509304+52683-008917FM-15+0020EINN V0200701N00671220001CN0112001N1+00201+00001999999ADDAG12999GA1011+007509059MA1101691999999MW1101REMMET006NOSIG?
0174039620999991985010510004+52683-008917SY-MT+0020EINN V0200701N00671220001CN0200001N1+00211+00051101811ADDAG11999AY101011GA1011+015009059GF101991011051017501999001MA1101801999999MD1210091+9999MW1021REMSYN017333   81650 92000MET012CAVOK NOSIG?EQDQ01+000000PRSWM2Q02    003SCOMCG
0091039620999991985010510304+52683-008917FM-15+0020EINN V0200701N00671220001CN0112001N1+00301+00001999999ADDAG12999GA1011+006009089GA2031+015009059MA1101801999999REMMET006NOSIG?EQDQ01+000000PRSWM2
0174039620999991985010511004+52683-008917SY-MT+0020EINN V0201001N00571220001CN0200001N1+00351+00031101861ADDAG11999AY101021GA1011+015009059GF101991011051017501999001MA1101801999999MD1210111+9999MW1021REMSYN017333   81650 92000MET012CAVOK NOSIG?EQDQ01+000000PRSWM2Q02    003SCOMCG
0065039620999991985010511304+52683-008917FM-15+0020EINN V0201001N00721999991CY0099001N1+00401+00001999999ADDAG12000MA1101901999999REMMET012CAVOK NOSIG?EQDQ01+000000PRSWM2
0163039620999991985010512004+52683-008917SY-MT+0020EINN V0201001N00721015001CN0200001N1+00471-00131101901ADDAA106999929AG10000AY101061GA1061+015009059GF106991061051017501999999MA1101801999999MD1210111+9999MW1021REMSYN011333   86650MET012CAVOK NOSIG?EQDQ01+000000PRSWM2
0152039620999991985010513004+52683-008917SY-MT+0020EINN V0201201N00721220001CN0220001N1+00471-00171101931ADDAG12001AY101011GA1011+015009059GF101991011051017501031001MA1101901999999MD1210121+9999MW1021REMSYN011333   81650MET012CAVOK NOSIG?EQDQ01+000000PRSWM2
0065039620999991985010513304+52683-008917FM-15+0020EINN V0201201N00771999991CY0099001N1+00501-00201999999ADDAG12999MA1101901999999REMMET012CAVOK NOSIG?EQDQ01+000000PRSWM2
0152039620999991985010514004+52683-008917SY-MT+0020EINN V0201101N00721220001CN0250001N1+00441-00241101961ADDAG11999AY101021GA1031+015009059GF103991031051017501031001MA1101901999999MD1210101+9999MW1021REMSYN011333   83650MET012CAVOK NOSIG?EQDQ01+000000PRSWM2
0065039620999991985010514304+52683-008917FM-15+0020EINN V0201101N00671999991CY0099001N1+00501-00201999999ADDAG11000MA1101901999999REMMET012CAVOK NOSIG?EQDQ01+000000PRSWM2
0184039620999991985010515004+52683-008917SY-MT+0020EINN V0201001N00571015001CN0300001N1+00441-00271102011ADDAG11000AY101031GA1011+006009089GA2051+015009059GF105991051081008001999001MA1102001999999MD1210111+9999MW1021REMSYN017333   81820 85650MET006NOSIG?EQDQ01+000000PRSWM2Q02    003SCOMCG
0091039620999991985010515304+52683-008917FM-15+0020EINN V0200901N00411015001CN0112001N1+00401+99999999999ADDAG12999GA1011+006009089GA2051+015009059MA1102001999999REMMET006NOSIG?EQDQ01+000000PRSWM2
0184039620999991985010516004+52683-008917SY-MT+0020EINN V0201001N00511015001CN0300001N1+00351-00251102081ADDAG11999AY101011GA1011+006009089GA2051+015009059GF105991051081008001999001MA1102001999999MD1210151+9999MW1021REMSYN017333   81820 85650MET006NOSIG?EQDQ01+000000PRSWM2Q02    003SCOMCG
0065039620999991985010516304+52683-008917FM-15+0020EINN V0200801N00411999991CY0099001N1+00301-00201999999ADDAG12999MA1102001999999REMMET012CAVOK NOSIG?EQDQ01+000000PRSWM2
0168039620999991985010517004+52683-008917SY-MT+0020EINN V0201001N00361220001CN0250001N1+00281-00281102141ADDAG12999AY101021GA1041+015009059GF104991041051017501999001MA1102101999999MD1210181+9999MW1021REMSYN011333   84650MET012CAVOK NOSIG?EQDQ01+000000PRSWM2Q02    003SCOMCG
0065039620999991985010517304+52683-008917FM-15+0020EINN V0200901N00211999991CY0099001N1+00201-00201999999ADDAG12000MA1102101999999REMMET012CAVOK NOSIG?EQDQ01+000000PRSWM2
0198039620999991985010518004+52683-008917SY-MT+0020EINN V0201001N00211220001CN0250001N1+00121-00301102191ADDAA199999929AG13000AY101061GA1011+015009059GF101991011051017501999001KA1120M+00481MA1102101999999MD1210181+9999MW1021REMSYN017333   10048 81650MET012CAVOK NOSIG?EQDQ01+000000PRSWM2Q02    003SCOMCG
0065039620999991985010518304+52683-008917FM-15+0020EINN V0201001N00411999991CY0099001N1+00201-00301999999ADDAG12999MA1102201999999REMMET012CAVOK NOSIG?EQDQ01+000000PRSWM2
0158039620999991985010519004+52683-008917SY-MT+0020EINN V0200501N00261220001CN0250001N1+00071-00401102281ADDAG12001AY101011GA1011+015009059GF101991011051017501041001MA1102201999999MD1210201+9999MW1021REMSYN017333   81650 92000MET012CAVOK NOSIG?EQDQ01+000000PRSWM2
0065039620999991985010519304+52683-008917FM-15+0020EINN V0200701N00311999991CY0099001N1+00001-00401999999ADDAG12999MA1102301999999REMMET012CAVOK NOSIG?EQDQ01+000000PRSWM2
0119039620999991985010520004+52683-008917SY-MT+0020EINN V0200701N00211220001CN0250001N1-00021-00431102361ADDAG12999AY101021GF100991001001999999001001MA1102301999999MD1210221+9999MW1021REMMET012CAVOK NOSIG?EQDQ01+000000PRSWM2
0065039620999991985010520304+52683-008917FM-15+0020EINN V0201001N00261999991CY0099001N1+00001-00501999999ADDAG12000MA1102301999999REMMET012CAVOK NOSIG?EQDQ01+000000PRSWM2
0119039620999991985010521004+52683-008917SY-MT+0020EINN V0201001N00361220001CN0250001N1+00041-00431102381ADDAG12000AY101031GF100991001001999999001001MA1102301999999MD1210191+9999MW1021REMMET012CAVOK NOSIG?EQDQ01+000000PRSWM2
0065039620999991985010521304+52683-008917FM-15+0020EINN V0200901N00311999991CY0099001N1+00001-00401999999ADDAG12999MA1102301999999REMMET012CAVOK NOSIG?EQDQ01+000000PRSWM2
0136039620999991985010522004+52683-008917SY-MT+0020EINN V0203601N00151220001CN0250001N1-00231-00361102401ADDAG11001AY101011GF100991001001999999001001MA1102301999999MD1210121+9999MW1021REMSYN011333   92011MET012CAVOK NOSIG?EQDQ01+000000PRSWM2
0065039620999991985010522304+52683-008917FM-15+0020EINN V0200201N00211999991CY0099001N1-00201-00401999999ADDAG12999MA1102401999999REMMET012CAVOK NOSIG?EQDQ01+000000PRSWM2
0136039620999991985010523004+52683-008917SY-MT+0020EINN V0200301N00261220001CN0250001N1-00191-00451102421ADDAG12999AY101021GF100991001001999999001001MA1102401999999MD1110071+9999MW1021REMSYN011333   92011MET012CAVOK NOSIG?EQDQ01+000000PRSWM2
0065039620999991985010523304+52683-008917FM-15+0020EINN V0200401N00151999991CY0099001N1-00101-00401999999ADDAG12000MA1102401999999REMMET012CAVOK NOSIG?EQDQ01+000000PRSWM2
0185039620999991985010600004+52683-008917SY-MT+0020EINN V0203401N00101220001CN0200001N1-00211-00341102471ADDAA106999929AG13000AY101061GA1021+015009059GF102991021051017501999001MA1102401999999MD1210091+9999MW1021REMSYN017333   82650 92011MET012CAVOK NOSIG?EQDQ01+000000PRSWM2Q02    003SCOMCG
0065039620999991985010600304+52683-008917FM-15+0020EINN V0200301N00151999991CY0099001N1-00201-00201999999ADDAG11999MA1102401999999REMMET012CAVOK NOSIG?EQDQ01+000000PRSWM2
0125039620999991985010601004+52683-008917FM-12+0020EINN V0200201N00101220001CN0160001N9-00171-00251102461ADDAG11999AY101011GA1011+015009059GF101991011051017501999001MD1110061+9999MW1021REMSYN017333   81650 92011EQDQ01    003SCOMCG
0065039620999991985010601304+52683-008917FM-15+0020EINN V0203501N00211999991CY0099001N1-00201-00401999999ADDAG11999MA1102401999999REMMET012CAVOK NOSIG?EQDQ01+000000PRSWM2
0179039620999991985010602004+52683-008917SY-MT+0020EINN V0203601N00151220001CN0120001N1-00241-00371102451ADDAG11999AY101021GA1011+015009059GF101991011051017501999001MA1102401999999MD1010021+9999MW1101REMSYN017333   81650 92011MET017CAVOK GRADU 8000?EQDQ01+000000PRSWM2Q02    003SCOMCG
0070039620999991985010602304+52683-008917FM-15+0020EINN V0203501N00211999991CY0099001N1-00201-00301999999ADDAG12000MA1102401999999REMMET017CAVOK GRADU 8000?EQDQ01+000000PRSWM2
0136039620999991985010603004+52683-008917SY-MT+0020EINN V0203601N00311220001CN0160001N1-00261-00431102461ADDAG11000AY101031GF100991001001999999001001MA1102401999999MD1510011+9999MW1101REMSYN011333   92011MET012CAVOK NOSIG?EQDQ01+000000PRSWM2
0065039620999991985010603304+52683-008917FM-15+0020EINN V0203501N00411999991CY0099001N1-00301-00401999999ADDAG12999MA1102401999999REMMET012CAVOK NOSIG?EQDQ01+000000PRSWM2
0136039620999991985010604004+52683-008917SY-MT+0020EINN V0203501N00261220001CN0150001N1-00281-00381102461ADDAG11999AY101011GF100991001001999999001001MA1102401999999MD1710011+9999MW1101REMSYN011333   92011MET012CAVOK NOSIG?EQDQ01+000000PRSWM2
0065039620999991985010604304+52683-008917FM-15+0020EINN V0203501N00361999991CY0099001N1-00301-00401999999ADDAG12999MA1102401999999REMMET012CAVOK NOSIG?EQDQ01+000000PRSWM2
0136039620999991985010605004+52683-008917SY-MT+0020EINN V0203601N00311220001CN0130001N1-00291-00431102451ADDAG12999AY101021GF100991001001999999001001MA1102401999999MD1810011+9999MW1101REMSYN011333   92011MET012CAVOK NOSIG?EQDQ01+000000PRSWM2
0065039620999991985010605304+52683-008917FM-15+0020EINN V0203601N00311999991CY0099001N1-00301-00401999999ADDAG12000MA1102401999999REMMET012CAVOK NOSIG?EQDQ01+000000PRSWM2
0212039620999991985010606004+52683-008917SY-MT+0020EINN V0203601N00311220001CN0130001N1-00261-00401102421ADDAA199999929AG10000AY101061GA1011+060009009GF101991001001999999001021IA1149IA2999-00709KA1120N-00351MA1102401999999MD1710051+9999MW1101REMSYN029333   21035 34107 81070 92011MET012CAVOK NOSIG?EQDQ01+000000PRSWM2
0065039620999991985010606304+52683-008917FM-15+0020EINN V0203501N00151999991CY0099001N1-00301-00401999999ADDAG12999MA1102401999999REMMET012CAVOK NOSIG?EQDQ01+000000PRSWM2
0145039620999991985010607004+52683-008917SY-MT+0020EINN V0203501N00211220001CN0150001N1-00261-00401102421ADDAG12999AY101011GA1011+060009009GF101991001001999999001021MA1102401999999MD1610041+9999MW1101MW2331REMSYN017333   81070 92011MET012CAVOK NOSIG?
0065039620999991985010607304+52683-008917FM-15+0020EINN V0203501N00211999991CY0099001N1-00201-00401999999ADDAG12999MA1102401999999REMMET012CAVOK NOSIG?EQDQ01+000000PRSWM2
0164039620999991985010608004+52683-008917SY-MT+0020EINN V0203601N00211030001CN0150001N1-00251-00381102431ADDAG11001AY111021GA1021+015009059GF107991021051017501031999MA1102401999999MD1510011+9999MW1101REMSYN023333   82650 86358 92011MET012CAVOK NOSIG?EQDQ01+000000PRSWM2
0065039620999991985010608304+52683-008917FM-15+0020EINN V0202501N00101999991CY0099001N1-00201-00401999999ADDAG12000MA1102301999999REMMET012CAVOK NOSIG?EQDQ01+000000PRSWM2
0158039620999991985010609004+52683-008917SY-MT+0020EINN V0200301N00101015001CN0150001N1-00131-00301102401ADDAG11000AY111031GA1071+015009059GF107991071051017501999999MA1102301999999MD1810011+9999MW1101REMSYN017333   87650 92011MET012CAVOK NOSIG?EQDQ01+000000PRSWM2
0078039620999991985010609304+52683-008917FM-15+0020EINN V0203001N00101014401CN0112001N1-00101-00101999999ADDAG12999GA1011+009009059GA2071+014409059MA1102301999999MW1101REMMET006NOSIG?
0171039620999991985010610004+52683-008917SY-MT+0020EINN V0203101N00101014101CN0200001N1-00051-00201102361ADDAG11001AY121011GA1011+005409079GA2031+010509059GA3061+014109059GF107991071051004501999999MA1102301999999MD1810051+9999MW1101REMSYN023333   81718 83635 86647MET006NOSIG?
0094039620999991985010610304+52683-008917FM-15+0020EINN V0202901N00051011101CN0112001N1+00001-00101999999ADDAG12999GA1021+005709079GA2041+011109059GA3061+014109059MA1102301999999MW1701REMMET006NOSIG?
0177039620999991985010611004+52683-008917SY-MT+0020EINN V0202701N00261011101CN0200001N1+00071+00011102321ADDAG12999AY171021GA1031+006009059GA2051+011109059GA3071+015009059GF107991071051008001999999MA1102301999999MD1710111+9999MW1221REMSYN029333   83620 85637 87650 92200MET006NOSIG?
0078039620999991985010611304+52683-008917FM-15+0020EINN V0200401N00101005701CN0112001N1+00201+00201999999ADDAG12001GA1051+005709079GA2051+010509059MA1102301999999MW1221REMMET006NOSIG?
0182039620999991985010612004+52683-008917SY-MT+0020EINN V0203101N00261012001CN0180001N1+00211+00021102271ADDAA106999929AG10002AY181061GA1011+005409079GA2031+006609059GA3061+012009059GF107991071081004501999999MA1102201999999MD1710131+9999MW1801REMSYN023333   81718 83822 86640MET006NOSIG?
0078039620999991985010612304+52683-008917FM-15+0020EINN V0203201N00261010501CN0112001N1+00301+00001999999ADDAG12999GA1021+006009089GA2041+010509059MA1102201999999MW1251REMMET006NOSIG?
0171039620999991985010613004+52683-008917SY-MT+0020EINN V0203201N00411010501CN0180001N1+00301+00061102231ADDAG12001AY181011GA1011+005709079GA2031+007509089GA3061+010509059GF107991071081004501999999MA1102201999999MD1710131+9999MW1251REMSYN023333   81719 83825 86635MET006NOSIG?
0091039620999991985010613304+52683-008917FM-15+0020EINN V0203301N00361010501CN0112001N1+00401+00101999999ADDAG12999GA1021+006009089GA2071+010509059MA1102201999999REMMET006NOSIG?EQDQ01+000000PRSWM2
0186039620999991985010614004+52683-008917SY-MT+0020EINN V0203401N00211010501CN0110001N1+00401+00201102191ADDAG11001AY121021GA1011+006009089GA2061+010509059GF106991061081008001999999MA1102101999999MD1710131+9999MW1101REMSYN035333   81820 86635 97275 97375 97475MET006NOSIG?EQDQ01+000000PRSWM2
0091039620999991985010614304+52683-008917FM-15+0020EINN V0200201N00101220001CN0112001N1+00401+00201999999ADDAG12000GA1011+006009089GA2041+009009059MA1102101999999REMMET006NOSIG?EQDQ01+000000PRSWM2
0146039620999991985010615004+52683-008917SY-MT+0020EINN V0200701N00101220001CN0250001N1+00441+00211102191ADDAG12002AY181031GA1031+008709059GF103991031051008001001001MA1102101999999MD1610081+9999MW1011REMSYN011333   83629MET006NOSIG?EQDQ01+000000PRSWM2
0075039620999991985010615304+52683-008917FM-15+0020EINN V0203601N00101220001CN0112001N1+00401+00201999999ADDAG12999GA1011+004809079MA1102101999999REMMET006NOSIG?EQDQ01+000000PRSWM2
0146039620999991985010616004+52683-008917SY-MT+0020EINN V0200101N00151220001CN0200001N1+00421+00191102201ADDAG12999AY101011GA1011+004809089GF101991011081004501001001MA1102101999999MD1610031+9999MW1021REMSYN011333   81816MET006NOSIG?EQDQ01+000000PRSWM2
0146039620999991985010617004+52683-008917SY-MT+0020EINN V0200101N00101220001CN0200001N1+00351+00171102201ADDAG12001AY101021GA1011+007809059GF101991011051008001001001MA1102101999999MD1210011+9999MW1021REMSYN011333   81626MET006NOSIG?EQDQ01+000000PRSWM2
0075039620999991985010617304+52683-008917FM-15+0020EINN V0200301N00101220001CN0112001N1+00301+00101999999ADDAG12000GA1011+007809059MA1102101999999REMMET006NOSIG?EQDQ01+000000PRSWM2
0176039620999991985010618004+52683-008917SY-MT+0020EINN V0200201N00211220001CN0200001N1+00251+00121102211ADDAA106999929AG10002AY181061GA1011+009009059GF101991011051012501001001KA1120M+00451MA1102201999999MD1210031+9999MW1021REMSYN017333   10045 81630MET006NOSIG?EQDQ01+000000PRSWM2
0075039620999991985010618304+52683-008917FM-15+0020EINN V0203501N00261220001CN0112001N1+00201+00101999999ADDAG12999GA1011+009009059MA1102201999999REMMET006NOSIG?EQDQ01+000000PRSWM2
0152039620999991985010619004+52683-008917SY-MT+0020EINN V0203501N00311220001CN0300001N1+00131+00051102231ADDAG12999AY101011GA1011+009009059GF101991011051012501001001MA1102201999999MD1210031+9999MW1021REMSYN017333   81630 92000MET006NOSIG?EQDQ01+000000PRSWM2
0152039620999991985010620004+52683-008917SY-MT+0020EINN V0203501N00311220001CN0200001N1+00011-00071102241ADDAG12001AY101021GA1011+009009059GF101991011051012501001001MA1102201999999MD1210041+9999MW1021REMSYN017333   81630 92000MET006NOSIG?EQDQ01+000000PRSWM2
0075039620999991985010620304+52683-008917FM-15+0020EINN V0200201N00151220001CN0112001N1+00001-00101999999ADDAG12000GA1011+009009059MA1102201999999REMMET006NOSIG?EQDQ01+000000PRSWM2
0152039620999991985010621004+52683-008917SY-MT+0020EINN V0200101N00211220001CN0250001N1+00091+00031102281ADDAG12000AY101031GA1011+009009059GF101991011051012501001001MA1102201999999MD1210061+9999MW1021REMSYN017333   81630 92011MET006NOSIG?EQDQ01+000000PRSWM2
0075039620999991985010621304+52683-008917FM-15+0020EINN V0203401N00361220001CN0112001N1+00101+00001999999ADDAG12999GA1011+009009059MA1102201999999REMMET006NOSIG?EQDQ01+000000PRSWM2
0150039620999991985010622004+52683-008917SY-MT+0020EINN V0203601N00361220001CN0250001N1+00071-00011102241ADDAG12001AY101011GF100991001001999999001001GJ100489MA1102201999999MD1010011+9999MW1021REMSYN017333   92011 94008MET012CAVOK NOSIG?EQDQ01+000000PRSWM2
0065039620999991985010622304+52683-008917FM-15+0020EINN V0209991C00001999991CY0099001N1+00001-00101999999ADDAG12999MA1102201999999REMMET012CAVOK NOSIG?EQDQ01+000000PRSWM2
0136039620999991985010623004+52683-008917SY-MT+0020EINN V0203301N00261220001CN0200001N1-00071-00161102271ADDAG12999AY101021GF100991001001999999001001MA1102201999999MD1210031+9999MW1021REMSYN011333   92011MET012CAVOK NOSIG?EQDQ01+000000PRSWM2
0065039620999991985010623304+52683-008917FM-15+0020EINN V0203201N00211999991CY0099001N1-00101-00101999999ADDAG12000MA1102201999999REMMET012CAVOK NOSIG?EQDQ01+000000PRSWM2
0095039620999991985010700004+52683-008917FM-12+0020EINN V0203301N00311220001CN0200001N9-00101-00191102271ADDAA106999929AG13000AY101061GF100991001001999999001001MD1810011+9999MW1021REMSYN011333   92011
0081039620999991985010700304+52683-008917FM-15+0020EINN V0203501N00361220001CN0060001N1-00101-00201999999ADDAG11999MA1102201999999MW1101REMMET041VIS 10KM TO NE SE AND SW     ?     NOSIG?
0169039620999991985010701004+52683-008917SY-MT+0020EINN V0203401N00211220001CN0060001N1-00061-00151102271ADDAG11001AY101011GF100991001001999999001001MA1102201999999MD1110031+9999MW1101REMSYN029333   92011 97165 97265 97365MET046VIS 10KM TO NE SE AND SW     ?     TEMPO 3000?
0086039620999991985010701304+52683-008917FM-15+0020EINN V0203301N00311220001CN0060001N1-00101-00201999999ADDAG11999MA1102201999999MW1101REMMET046VIS 10KM TO NE SE AND SW     ?     TEMPO 3000?
0169039620999991985010702004+52683-008917SY-MT+0020EINN V0203401N00261220001CN0080001N1-00121-00211102251ADDAG11999AY101021GF100991001001999999001001MA1102201999999MD1810021+9999MW1101REMSYN029333   92011 97165 97265 97365MET046VIS 10KM TO NE SE AND SW     ?     TEMPO 3000?
0086039620999991985010702304+52683-008917FM-15+0020EINN V0203401N00261220001CN0080001N1-00101-00201999999ADDAG11000MA1102201999999MW1101REMMET046VIS 10KM TO NE SE AND SW     ?     TEMPO 3000?
0169039620999991985010703004+52683-008917SY-MT+0020EINN V0203501N00311220001CN0080001N1-00131-00211102241ADDAG11000AY101031GF100991001001999999001001MA1102201999999MD1710031+9999MW1101REMSYN029333   92011 97165 97265 97365MET046VIS 10KM TO NE SE AND SW     ?     TEMPO 3000?
0095039620999991985010703304+52683-008917FM-15+0020EINN V0203201N00311999991CY0099001N1+99999+99999999999ADDAG12999MA1102201999999REMMET042CAVOK TEMPO 7000?       7@@@@@*@@@@@@@@@%+EQDQ01+000000PRSWM2
0141039620999991985010704004+52683-008917SY-MT+0020EINN V0203201N00311220001CN0150001N1-00071-00191102201ADDAG11999AY101011GF100991001001999999001001MA1102101999999MD1810071+9999MW1021REMSYN011333   92011MET017CAVOK TEMPO 7000?EQDQ01+000000PRSWM2
0070039620999991985010704304+52683-008917FM-15+0020EINN V0203301N00311999991CY0099001N1+00001-00201999999ADDAG12999MA1102101999999REMMET017CAVOK TEMPO 7000?EQDQ01+000000PRSWM2
0157039620999991985010705004+52683-008917SY-MT+0020EINN V0203601N00211220001CN0150001N1-00061-00151102171ADDAG11999AY101021GA1021+012009059GF102991021061012501001001MA1102101999999MD1810051+9999MW1021REMSYN017333   82640 92011MET011TEMPO 7000?EQDQ01+000000PRSWM2
0080039620999991985010705304+52683-008917FM-15+0020EINN V0203501N00151220001CN0112001N1-00101-00201999999ADDAG12000GA1031+012009059MA1102101999999REMMET011TEMPO 7000?EQDQ01+000000PRSWM2
0207039620999991985010706004+52683-008917SY-MT+0020EINN V0200201N00101220001CN0150001N1-00081-00181102161ADDAA199999929AG13000AY101061GA1011+012009059GF101991011051012501001001IA1149IA2999-00609KA1120N-00151MA1102101999999MD1510081+9999MW1021REMSYN029333   21015 34106 81640 92012MET007NO SIG?EQDQ01+000000PRSWM2
0075039620999991985010706304+52683-008917FM-15+0020EINN V0203501N00211220001CN0112001N1-00101-00101999999ADDAG12999GA1011+009609059MA1102101999999REMMET006NOSIG?EQDQ01+000000PRSWM2
0152039620999991985010707004+52683-008917SY-MT+0020EINN V0203201N00261009001CN0200001N1-00011-00041102151ADDAG12001AY101011GA1071+009009059GF107991071051012501999999MA1102101999999MD1710051+9999MW1021REMSYN017333   87630 92012MET006NISIG?EQDQ01+000000PRSWM2
0152039620999991985010708004+52683-008917SY-MT+0020EINN V0203401N00261220001CN0200001N1-00011-00041102191ADDAG12001AY101021GA1021+013509059GF103991021051012501001021MA1102101999999MD1310021+9999MW1021REMSYN017333   82645 92012MET006NOSIG?EQDQ01+000000PRSWM2
0152039620999991985010709004+52683-008917SY-MT+0020EINN V0203501N00411220001CN0400001N1+00011-00181102201ADDAG12000AY101031GA1011+007509059GF101991011051008001001021MA1102101999999MD1310041+9999MW1021REMSYN017333   81625 92011MET006NOSIG?EQDQ01+000000PRSWM2
0106039620999991985010710004+52683-008917FM-12+0020EINN V0209991C00001220001CN0250001N9+00051-00281102221ADDAG12999AY101011GA1011+006009089GF101991011081008001001001MD1210071+9999MW1021REMSYN017333   81820 92011
0152039620999991985010711004+52683-008917SY-MT+0020EINN V0203601N00151220001CN0250001N1+00101-00041102191ADDAG12001AY101021GA1011+006009089GF101991011021008001001001MA1102101999999MD1010001+9999MW1021REMSYN017333   81820 92000MET006NOSIG?EQDQ01+000000PRSWM2
0062039620999991985010711304+52683-008917FM-15+0020EINN V0203501N00151220001CN0112001N1+00101+00001999999ADDAG12000GA1011+006009089MA1102101999999MW1101REMMET006NOSIG?
0157039620999991985010712004+52683-008917SY-MT+0020EINN V0203401N00151220001CN0200001N1+00151+00051102191ADDAA106000191AG10000AY101061GA1011+005409079GF101991011061004501001001MA1102101999999MD1610011+9999MW1021REMSYN011333   81718MET006NOSIG?EQDQ01+000000PRSWM2
0139039620999991985010713004+52683-008917SY-MT+0020EINN V0203301N00101220001CN0120001N1+00361+00161102181ADDAG12001AY101011GA1011+006009089GF101991011021008001001001MA1102101999999MD1710041+9999MW1101REMSYN023333   81820 97180 97480MET006NOSIG?
0062039620999991985010713304+52683-008917FM-15+0020EINN V0201701N00151220001CN0112001N1+00401+00101999999ADDAG12999GA1011+002709079MA1102101999999MW1101REMMET006NOSIG?
0127039620999991985010714004+52683-008917SY-MT+0020EINN V0202101N00051220001CN0090001N1+00391+00131102181ADDAG12999AY101021GA1011+002709079GF102991021071002501001001MA1102101999999MD1610011+9999MW1101REMSYN011333   81709MET006NOSIG?
0078039620999991985010714304+52683-008917FM-15+0020EINN V0202001N00101220001CN0090001N1+00401+00201999999ADDAG12000GA1011+002709079GA2031+004209079MA1102101999999MW1101REMMET006NOSIG?
0127039620999991985010715004+52683-008917SY-MT+0020EINN V0203001N00051220001CN0090001N1+00441+00131102191ADDAG11000AY101031GA1011+002709079GF102991021051002501001001MA1102101999999MD1510001+9999MW1101REMSYN011333   81709MET006NOSIG?
0149039620999991985010716004+52683-008917SY-MT+0020EINN V0202001N00101220001CN0090001N1+00331+00171102211ADDAG12999AY101011GA1011+002709079GA2031+005409079GF103991031061002501001021MA1102201999999MD1310031+9999MW1101REMSYN017333   81709 83718MET006NOSIG?
0127039620999991985010717004+52683-008917SY-MT+0020EINN V0202201N00101220001CN0080001N1+00161+00031102191ADDAG12999AY101021GA1011+002709079GF102991021051002501031001MA1102101999999MD1010011+9999MW1101REMSYN011333   81709MET006NOSIG?
0062039620999991985010717304+52683-008917FM-15+0020EINN V0201801N00151220001CN0040001N1+00001-00101999999ADDAG12000GA1011+000309079MA1102201999999MW1101REMMET006NOSIG?
0193039620999991985010718004+52683-008917SY-MT+0020EINN V0202001N00151220001CN0003001N1+00001-00061102221ADDAA199999929AG10000AY141061GA1041+021009039GF104991041001999999031001KA1120M+00451MA1102201999999MD1310031+9999MW1461REMSYN029333   10045 84357 92000 90467MET011TEMPO 2000?EQDQ01+000992SCOLCB
0074039620999991985010718304+52683-008917FM-15+0020EINN V0201801N00151021001CN0006001N1+00001-00101999999ADDAG12999GA1061+021009039MA1102201999999MW1461REMMET018TEMPO 2000 4ST005?
0176039620999991985010719004+52683-008917SY-MT+0020EINN V0201401N00101220001CN0006001N1-00051-00111102241ADDAG12999AY141011GA1021+021009039GF102991021001999999031001MA1102201999999MD1310031+9999MW1421REMSYN017333   82357 92000MET030TEMPO 2000       ?     4ST005?EQDQ01+000992SCOLCB
0085039620999991985010719304+52683-008917FM-15+0020EINN V0201601N00101220001CN0004001N1-00101-00101999999ADDAG12999GA1031+021009039MA1102201999999MW1461REMMET029TEMPO      ?     2000 4ST005?
0176039620999991985010720004+52683-008917SY-MT+0020EINN V0201701N00051220001CN0005001N1-00091-00121102261ADDAG12999AY141021GA1041+021009039GF104991041001999999031001MA1102201999999MD1210071+9999MW1461REMSYN017333   84357 92011MET030TEMPO 2000       ?     4ST005?EQDQ01+000992SCOLCB
0067039620999991985010720304+52683-008917FM-15+0020EINN V0209991C00001000301CN0004001N1-00101-00101999999ADDAG12000GA1091+000309999MA1102201999999MW1471REMMET011TEMPO 1000?
0157039620999991985010721004+52683-008917SY-MT+0020EINN V0209991C00001021001CN0006001N1-00101-00101102231ADDAG11000AY141031GA1061+021009039GF106991061001999999031999MA1102201999999MD1010011+9999MW1421REMSYN017333   86357 92011MET011TEMPO 1000?EQDQ01+000992SCOLCB
0067039620999991985010721304+52683-008917FM-15+0020EINN V0200901N00101015001CN0005001N1-00101-00101999999ADDAG12999GA1071+015009059MA1102201999999MW1421REMMET011TEMPO 0800?
0147039620999991985010722004+52683-008917SY-MT+0020EINN V0201201N00261220001CN0008001N1-00101-00101102141ADDAG12999AY141011GA1041+012009059GF104991041051012501001001GJ103849MA1102101999999MD1810091+9999MW1421REMSYN023333   84640 92011 94064MET006NOSIG?
0067039620999991985010722304+52683-008917FM-15+0020EINN V0201201N00261220001CN0003001N1-00101-00101999999ADDAG12999GA1031+012009059MA1102201999999MW1461REMMET011TEMPO 0800?
0132039620999991985010723004+52683-008917SY-MT+0020EINN V0201601N00101220001CN0003001N1-00141-00191102201ADDAG12001AY141021GA1021+012009059GF102991021051012501001001MA1102101999999MD1610061+9999MW1461REMSYN011333   82640MET011TEMPO 0800?
0051039620999991985010723304+52683-008917FM-15+0020EINN V0209991C00001220001CN0002001N1-00101-00101999999ADDAG12000MA1102201999999MW1461REMMET011TEMPO 0600?
0144039620999991985010800004+52683-008917SY-MT+0020EINN V0200401N00101220001CN0002001N1-00181-00241102231ADDAA106999929AG10000AY141061GA1021+012009059GF102991021051012501001001MA1102201999999MD1510001+9999MW1461REMSYN017333   82640 92001MET006NOSIG?
0067039620999991985010800304+52683-008917FM-15+0020EINN V0201001N00101220001CN0002001N1-00201-00201999999ADDAG11999GA1021+012009059MA1102201999999MW1441REMMET011INTER 0600?
0139039620999991985010801004+52683-008917SY-MT+0020EINN V0201201N00151220001CN0002001N1-00211-00301102241ADDAG11001AY141011GA1031+012009059GF103991031051012501001001MA1102201999999MD1110091+9999MW1441REMSYN017333   83640 92011MET012INTER 0600 ?
0067039620999991985010801304+52683-008917FM-15+0020EINN V0201401N00101000601CN0002001N1-00201-00301999999ADDAG11999GA1091+000609999MA1102201999999MW1451REMMET011INTER 0600?
0138039620999991985010802004+52683-008917SY-MT+0020EINN V0201501N00101000601CN0002001N1-00271-00341102271ADDAG12999AY141021GA1091+000609999GF109991091999999999999999MA1102201999999MD1210061+9999MW1451REMSYN017333   89/02 92011MET011INTER 0600?
0067039620999991985010802304+52683-008917FM-15+0020EINN V0209991C00001000601CN0002001N1-00301-00301999999ADDAG11000GA1091+000609999MA1102201999999MW1451REMMET011INTER 0600?
0138039620999991985010803004+52683-008917SY-MT+0020EINN V0209991C00001000601CN0002001N1-00281-00321102231ADDAG12000AY141031GA1091+000609999GF109991091999999999999999MA1102201999999MD1810011+9999MW1451REMSYN017333   89/02 92011MET011INTER 0600?
0111039620999991985010804004+52683-008917SY-MT+0020EINN V0200501N00051220001CN0002001N1-00321-00361102221ADDAG12001AY141011GF100991001001999999001001MA1102201999999MD1810031+9999MW1441REMSYN011333   92011MET006NOSIG?
0111039620999991985010805004+52683-008917SY-MT+0020EINN V0201401N00101220001CN0001001N1-00231-00421102191ADDAG12999AY141021GF100991001001999999001001MA1102101999999MD1710071+9999MW1461REMSYN011333   92011MET006NOSIG?
0093039620999991985010805304+52683-008917FM-15+0020EINN V0201601N00101220001CN0003001N1-00301-00401999999ADDAG12000GA1041+009009059MA1102101999999MW1421REMMET037VIS 0500 TO      ?     NW TEMPO 0200?
0188039620999991985010806004+52683-008917FM-12+0020EINN V0201601N00151009001CN0015001N9-00231-00291102171ADDAA199999929AG10000AY141061GA1021+000609079GA2051+009009059GF106991061051000751999999IA1149IA2999-00309KA1120N-00311MD1710051+9999MW1281REMSYN041333   21031 34103 82702 85630 92011 90580
0083039620999991985010806304+52683-008917FM-15+0020EINN V0201501N00151009001CN0020001N1-00201-00301999999ADDAG12999GA1021+000609079GA2051+009009059MA1102101999999MW1101REMMET011TEMPO 0200?
0160039620999991985010807004+52683-008917SY-MT+0020EINN V0209991C00001006001CN0060001N1-00201-00291102181ADDAG12999AY121011GA1021+000609079GA2061+006009059GF106991061051000751999999MA1102101999999MD1510031+9999MW1101REMSYN023333   82702 86620 92011MET011TEMPO 0800?
0083039620999991985010807304+52683-008917FM-15+0020EINN V0200501N00051006001CN0040001N1-00201-00301999999ADDAG12999GA1021+000609079GA2071+006009089MA1102101999999MW1801REMMET011TEMPO 1500?
0182039620999991985010808004+52683-008917SY-MT+0020EINN V0200901N00151002101CN0025001N1-00131-00241102201ADDAG12001AY181021GA1021+000609079GA2031+002109079GA3051+006009089GF107991071021000751999999MA1102101999999MD1310011+9999MW1251REMSYN029333   82702 83707 85820 92000MET011TEMPO 5000?
0109039620999991985010808304+52683-008917FM-15+0020EINN V0201001N00101002101CN0040001N1+00001-00101999999ADDAG12002GA1021+000909079GA2031+002109079GA3051+005109099MA1102201999999MW1801REMMET021NO         ?     SIG?
0190039620999991985010809004+52683-008917SY-MT+0020EINN V0201401N00051005401CN0040001N1+00001-00031102231ADDAG12002AY181031GA1021+001809079GA2031+005409099GA3051+009009059GF107991071031002501999999MA1102201999999MD1210061+9999MW1101MW2271REMSYN035333   82706 83918 85630 92000 99720MET007NO SIG?
0095039620999991985010809304+52683-008917FM-15+0020EINN V0201501N00101005401CN0050001N1+00001-00101999999ADDAG12999GA1031+001809079GA2021+005409099GA3061+007509059MA1102201999999MW1101REMMET007NO SIG?
0209039620999991985010810004+52683-008917SY-MT+0020EINN V0201301N00101010501CN0080001N1+00071-00101102251ADDAG12001AY181011GA1011+001809079GA2031+006009089GA3051+010509059GF107991071081002501999999MA1102201999999MD1210071+9999MW1251REMSYN035333   81706 83820 85635 92000 97362MET03210KM TO          ?     SW NOSIG?
0196039620999991985010811004+52683-008917SY-MT+0020EINN V0201401N00101220001CN0050001N1+00181-00291102231ADDAG12001AY111021GA1011+002409079GA2031+012009059GF103991031081002501001001MA1102201999999MD1010031+9999MW1101REMSYN029333   81708 83640 97464 97364MET04110KM TO NW       ?     AND SW GRADU 9999?
0114039620999991985010811304+52683-008917FM-15+0020EINN V0209991C00001009001CN0050001N1+00201-00201999999ADDAG12000GA1011+002709079GA2011+005409099GA3031+009009059MA1102101999999MW1101REMMET026VIS 10KM NW SW GRADU 9999?
0198039620999991985010812004+52683-008917SY-MT+0020EINN V0202401N00101220001CN0060001N1+00271+00221102171ADDAA106002091AG10002AY181061GA1011+006009089GA2031+012009059GF103991031081008001001001MA1102101999999MD1810061+9999MW1101REMSYN035333   81820 83640 97365 97465 99720MET026VIS 10KM NW SW GRADU 9999?
0149039620999991985010813004+52683-008917SY-MT+0020EINN V0203001N00151004801CN0080001N1+00421+00311102151ADDAG12999AY181011GA1051+004809089GA2051+012009059GF107991071081004501999999MA1102101999999MD1710101+9999MW1801REMSYN017333   85816 85640MET006NOSIG?
0078039620999991985010813304+52683-008917FM-15+0020EINN V0202401N00101220001CN0080001N1+00401+00301999999ADDAG12999GA1011+006009089GA2031+012009059MA1102101999999MW1251REMMET006NOSIG?
0173039620999991985010814004+52683-008917SY-MT+0020EINN V0202401N00211009001CN0080001N1+00581+00441102091ADDAG12999AY181021GA1011+003009079GA2031+012009059GF105991051081004501001001MA1102001999999MD1710141+9999MW1101MW2251REMSYN035333   81710 83640 97266 97366 97466MET006NOSIG?
0146039620999991985010815004+52683-008917SY-MT+0020EINN V0202501N00101220001CN0140001N1+00561+00471102091ADDAG12002AY181031GA1011+005409089GF101991011081004501001001MA1102001999999MD1610081+9999MW1011REMSYN011333   81818MET006NOSIG?EQDQ01+000000PRSWM2
0075039620999991985010815304+52683-008917FM-15+0020EINN V0202501N00151220001CN0112001N1+00601+00401999999ADDAG12999GA1011+006009089MA1102001999999REMMET006NOSIG?EQDQ01+000000PRSWM2
0146039620999991985010816004+52683-008917SY-MT+0020EINN V0202501N00151220001CN0140001N1+00511+00361102091ADDAG12999AY101011GA1011+006009089GF102991021081008001001001MA1102001999999MD1610061+9999MW1021REMSYN011333   81820MET006NOSIG?EQDQ01+000000PRSWM2
0186039620999991985010817004+52683-008917SY-MT+0020EINN V0202901N00211220001CN0060001N1+00331+00251102101ADDAG12999AY101021GA1011+005409089GF103991031081004501001001MA1102001999999MD1110011+9999MW1401REMSYN035333   81818 83635 97264 97364 97464MET04114KM TO SE SW AND NW         ?     NOSIG?
0096039620999991985010817304+52683-008917FM-15+0020EINN V0203001N00211220001CN0060001N1+00301+00201999999ADDAG11000GA1011+005409089MA1102101999999MW1401REMMET0409999 TO SE SW NEQQ     ?     TEMPO 3000?
0209039620999991985010818004+52683-008917SY-MT+0020EINN V0202901N00051220001CN0080001N1+00321+00191102111ADDAA199002091AG10002AY181061GA1011+005409089GF101991011081004501001001KA1120M+00651MA1102101999999MD1310021+9999MW1401REMSYN035333   10065 81818 97266 97366 97466MET0409999 TO SE SW NE       ?     TEMPO 3000?
0112039620999991985010818304+52683-008917FM-15+0020EINN V0203001N00051220001CN0090001N1+00201+00101999999ADDAG12999GA1011+005709089GA2031+010509059MA1102101999999MW1401REMMET0409999 TO SE SW NW       ?     TEMPO 3000?
0161039620999991985010819004+52683-008917SY-MT+0020EINN V0202701N00101220001CN0090001N1+00161+00111102111ADDAG12999AY101011GA1021+009009059GF102991021051012501001001MA1102101999999MD1110021+9999MW1401REMSYN011333   82630MET0409999 TO SE SW NW       ?     TEMPO 3000?
0067039620999991985010819304+52683-008917FM-15+0020EINN V0200601N00101220001CN0112001N1+00101+00101999999ADDAG12999GA1011+007509059MA1102001999999MW1111REMMET011TEMPO 3000?
0132039620999991985010820004+52683-008917SY-MT+0020EINN V0209991C00001220001CN0160001N1+00121+00041102111ADDAG12999AY101021GA1021+007509059GF102991021051008001001001MA1102101999999MD1110011+9999MW1111REMSYN011333   82625MET011TEMPO 3000?
0167039620999991985010821004+52683-008917SY-MT+0020EINN V0200901N00051220001CN0002001N1+00061+00031102121ADDAG12000AY141031GA1021+003009079GA2031+007509059GF103991031051000751001001MA1102101999999MD1310011+9999MW1461REMSYN035333   82710 83625 97406 90470 92000MET006NOSIG?
0091039620999991985010821304+52683-008917FM-15+0020EINN V0201201N00051007501CN0003001N1+00101+00001999999ADDAG12001GA1021+000309079GA2031+007509059MA1102101999999MW1441REMMET0190600 TO NW   NOSIG?
0148039620999991985010822004+52683-008917SY-MT+0020EINN V0201101N00051220001CN0003001N1+00071+00011102111ADDAG12001AY141011GA1031+012009059GF103991031051012501001001GJ102349MA1102101999999MD1410001+9999MW1421REMSYN017333   83640 94039MET013TEMPO 4ST004?
0069039620999991985010822304+52683-008917FM-15+0020EINN V0200901N00101220001CN0002001N1+00001+00001999999ADDAG12999GA1031+013509059MA1102001999999MW1461REMMET013TEMPO 4ST004?
0133039620999991985010823004+52683-008917SY-MT+0020EINN V0200701N00051000301CN0002001N1+00001+00001102081ADDAG12001AY141021GA1091+000309999GF109991091999999999999999MA1102001999999MD1810031+9999MW1471REMSYN017333   89/01 92000MET006NOSIG?
0062039620999991985010823304+52683-008917FM-15+0020EINN V0201601N00051000301CN0002001N1+00001-00101999999ADDAG12000GA1091+000309999MA1102001999999MW1451REMMET006NOSIG?
0144039620999991985010900004+52683-008917SY-MT+0020EINN V0201001N00051000301CN0002001N1-00021-00051102061ADDAA106999929AG13000AY141061GA1091+000309999GF109991091999999999999999MA1102001999999MD1810061+9999MW1451REMSYN017333   89/01 92000MET006NOSIG?
0062039620999991985010900304+52683-008917FM-15+0020EINN V0200801N00101220001CN0002001N1-00101-00101999999ADDAG11999GA1031+012009059MA1102001999999MW1441REMMET006NOSIG?
0133039620999991985010901004+52683-008917SY-MT+0020EINN V0200801N00101000301CN0001001N1-00081-00111102051ADDAG11001AY141011GA1091+000309999GF109991091999999999999999MA1102001999999MD1610061+9999MW1471REMSYN017333   89/01 92010MET006NOSIG?
0062039620999991985010901304+52683-008917FM-15+0020EINN V0200901N00101000301CN0001001N1-00101-00101999999ADDAG11999GA1091+000309999MA1102001999999MW1471REMMET006NOSIG?
0133039620999991985010902004+52683-008917SY-MT+0020EINN V0200901N00051000301CN0001001N1-00121-00121102041ADDAG11001AY141021GA1091+000309999GF109991091999999999999999MA1102001999999MD1710041+9999MW1451REMSYN017333   89/01 92011MET006NOSIG?
0062039620999991985010902304+52683-008917FM-15+0020EINN V0209991C00001000301CN0001001N1-00101-00101999999ADDAG11000GA1091+000309999MA1102001999999MW1451REMMET006NOSIG?
0130039620999991985010903004+52683-008917SY-MT+0020EINN V0200301N00051220001CN0001001N1-00191-00221102021ADDAG12000AY141031GF100991001001999999001001MA1102001999999MD1710041+9999MW1441REMSYN011333   92011MET006NOSIG?EQDQ01+000000PRSWM2
0059039620999991985010903304+52683-008917FM-15+0020EINN V0200401N00051220001CN0001001N1-00201-00201999999ADDAG12999MA1102001999999REMMET006NOSIG?EQDQ01+000000PRSWM2
0111039620999991985010904004+52683-008917SY-MT+0020EINN V0200601N00151220001CN0001001N1-00221-00251102021ADDAG12999AY141011GF100991001001999999001001MA1102001999999MD1610031+9999MW1441REMSYN011333   92011MET006NOSIG?
0046039620999991985010904304+52683-008917FM-15+0020EINN V0200801N00151220001CN0001001N1-00201-00201999999ADDAG12999MA1102001999999MW1441REMMET006NOSIG?
0133039620999991985010905004+52683-008917SY-MT+0020EINN V0200501N00051000301CN0001001N1-00131-00151102021ADDAG12001AY141021GA1091+000309999GF109991091999999999999999MA1102001999999MD1610021+9999MW1451REMSYN017333   89/01 92011MET006NOSIG?
0062039620999991985010905304+52683-008917FM-15+0020EINN V0209991C00001000301CN0001001N1-00101-00101999999ADDAG12000GA1091+000309999MA1101901999999MW1451REMMET006NOSIG?
0187039620999991985010906004+52683-008917SY-MT+0020EINN V0200801N00101000301CN0002001N1-00101-00111101991ADDAA199999929AG10000AY141061GA1091+000309999GF109991091999999999999999IA1149IA2999-00509KA1120N-00241MA1101901999999MD1810031+9999MW1431REMSYN029333   21024 34105 89/01 92011MET006NOSIG?
0133039620999991985010907004+52683-008917SY-MT+0020EINN V0209991C00001000301CN0002001N1-00101-00141101991ADDAG12001AY141011GA1091+000309999GF109991091999999999999999MA1101901999999MD1610031+9999MW1451REMSYN017333   89/01 92011MET006NOSIG?
0062039620999991985010907304+52683-008917FM-15+0020EINN V0209991C00001000301CN0002001N1-00101-00201999999ADDAG12999GA1091+000309999MA1102001999999MW1451REMMET006NOSIG?
0133039620999991985010908004+52683-008917SY-MT+0020EINN V0209991C00001000301CN0002001N1-00151-00201102041ADDAG12999AY141021GA1091+000309999GF109991091999999999999999MA1102001999999MD1310021+9999MW1451REMSYN017333   89/01 92011MET006NOSIG?
0133039620999991985010909004+52683-008917SY-MT+0020EINN V0209991C00001000301CN0001001N1-00181-00211102071ADDAG12000AY141031GA1091+000309999GF109991091999999999999999MA1102001999999MD1310091+9999MW1471REMSYN017333   89/01 92011MET006NOSIG?
0065039620999991985010909304+52683-008917FM-15+0020EINN V0209991C00001220001CN0001001N1-00201-00201999999ADDAG12999MA1102001999999MW1461REMMET006NOSIG?EQDQ01+000472PRSWM2
0138039620999991985010910004+52683-008917SY-MT+0020EINN V0201101N00151220001CN0001001N1-00101-00141102091ADDAG12999AY141011GA1031+000309079GF103991031061000251001001MA1102001999999MD1110101+9999MW1421REMSYN017333   83701 92011MET011GRADU 1200?
0138039620999991985010911004+52683-008917SY-MT+0020EINN V0201601N00051220001CN0001001N1-00081-00141102121ADDAG12999AY141021GA1031+000309079GF103991031061000251001001MA1102101999999MD1110081+9999MW1441REMSYN017333   83701 92011MET011GRADU 0800?
0149039620999991985010912004+52683-008917SY-MT+0020EINN V0200901N00051220001CN0001001N1-00061-00071102131ADDAA106000391AG10000AY141061GA1041+000309079GF104991041061000251001001MA1102101999999MD1210051+9999MW1441REMSYN017333   84701 92011MET011GRADU 0800?
0046039620999991985010912304+52683-008917FM-15+0020EINN V0209991C00001220001CN0001001N1-00101-00101999999ADDAG12999MA1102101999999MW1441REMMET006NOSIG?
0133039620999991985010913004+52683-008917SY-MT+0020EINN V0209991C00001220001CN0001001N1-00041-00041102141ADDAG12001AY141011GA1021+009009059GF102991021051012501001001MA1102101999999MD1210051+9999MW1421REMSYN017333   82630 92000MET006NOSIG?
0094039620999991985010914004+52683-008917SY-MT+0020EINN V0200301N00051220001CN0001001N1+00001-00061102141ADDAG12001AY141021GF100991001001999999001001MA1102101999999MD1110021+9999MW1441REMMET006NOSIG?
0132039620999991985010915004+52683-008917SY-MT+0020EINN V0201301N00051220001CN0001001N1+00041+00041102181ADDAG12000AY141031GA1011+060009009GF101991001001999999001011MA1102101999999MD1210051+9999MW1441REMSYN011333   81070MET011TEMPO 0800?
0127039620999991985010916004+52683-008917SY-MT+0020EINN V0209991C00001220001CN0008001N1+00021+00021102201ADDAG12001AY141011GA1011+009009059GF101991011051012501001021MA1102101999999MD1210061+9999MW1421REMSYN011333   81630MET006NOSIG?
0173039620999991985010917004+52683-008917SY-MT+0020EINN V0202201N00051220001CN0011001N1-00011-00011102241ADDAG12001AY141021GA1011+009009059GF102991011051012501001021MA1102201999999MD1210101+9999MW1401REMSYN029333   81630 97340 97440 90541MET0344000 NW SW       ?     GRADU 0800?
0069039620999991985010917304+52683-008917FM-15+0020EINN V0200701N00151220001CN0002001N1-00101-00101999999ADDAG12000GA1021+009009059MA1102201999999MW1461REMMET013GRADU 9//001?
0189039620999991985010918004+52683-008917SY-MT+0020EINN V0201001N00051220001CN0002001N1-00101-00101102291ADDAA199000391AG10000AY141061GA1021+012009059GF102991021051012501001001KA1120M+00111MA1102201999999MD1310111+9999MW1461REMSYN023333   10011 82640 92000MET013GRADU 9//001?EQDQ01+000000PRSWM2
0053039620999991985010918304+52683-008917FM-15+0020EINN V0200801N00101220001CN0002001N1-00101-00101999999ADDAG12999MA1102201999999MW1441REMMET013GRADU 9//001?
0118039620999991985010919004+52683-008917SY-MT+0020EINN V0200901N00101220001CN0003001N1-00171-00171102321ADDAG11001AY141011GF100991001001999999001001MA1102301999999MD1210121+9999MW1421REMSYN011333   92011MET013GRADU 9//001?
0053039620999991985010919304+52683-008917FM-15+0020EINN V0200801N00051220001CN0002001N1-00201-00201999999ADDAG12999MA1102301999999MW1461REMMET013GRADU 9//001?
0130039620999991985010920004+52683-008917SY-MT+0020EINN V0200901N00051220001CN0004001N1-00191-00191102361ADDAG11001AY141021GF100991001001999999001001MA1102301999999MD1210121+9999MW1421REMSYN011333   92011MET025GRADU 02009//001       ??
0065039620999991985010920304+52683-008917FM-15+0020EINN V0201001N00051220001CN0003001N1-00201-00201999999ADDAG12000MA1102301999999MW1461REMMET025GRADU 02009//001       ??
0118039620999991985010921004+52683-008917SY-MT+0020EINN V0201201N00051220001CN0002001N1-00231-00231102371ADDAG12000AY141031GF100991001001999999001001MA1102301999999MD1110081+9999MW1461REMSYN011333   92011MET013GRADU 9//001?
0053039620999991985010921304+52683-008917FM-15+0020EINN V0201101N00051220001CN0002001N1-00201-00201999999ADDAG12999MA1102301999999MW1461REMMET013GRADU 9//001?
0154039620999991985010922004+52683-008917SY-MT+0020EINN V0200701N00051220001CN0002001N1-00281-00321102381ADDAG12999AY141011GA1031+024009039GF103991031001999999031001GJ100069MA1102301999999MD1110051+9999MW1441REMSYN023333   83358 92011 94001MET013GRADU 9//001?
0105039620999991985010922304+52683-008917FM-15+0020EINN V0201201N00051015001CN0008001N1-00201-00301999999ADDAG12999GA1051+015009059MA1102301999999MW1421REMMET049GRADU 0200 9//001      ?     MAX VIS 3000M TO SW?
0173039620999991985010923004+52683-008917SY-MT+0020EINN V0200701N00051015001CN0020001N1-00181-00211102381ADDAG11999AY141021GA1011+009009059GA2051+015009059GF106991061051012501999999MA1102301999999MD1110021+9999MW1101REMSYN029333   81630 85650 90597 92011MET018GRADU 0200 9//001?
0090039620999991985010923304+52683-008917FM-15+0020EINN V0201201N00051015001CN0020001N1-00201-00201999999ADDAG12000GA1021+009009059GA2061+015009059MA1102301999999MW1101REMMET018GRADU 0200 9//001?
0166039620999991985011000004+52683-008917SY-MT+0020EINN V0200801N00101015001CN0020001N1-00101-00141102381ADDAA106999929AG13000AY141061GA1021+009009059GA2061+015009059GF107991071051012501999999MA1102301999999MD1210011+9999MW1101REMSYN023333   82630 86650 92011MET006NOSIG?
0085039620999991985011000304+52683-008917FM-15+0020EINN V0209991C00001012001CN0035001N1+00001-00101999999ADDAG11999GA1061+012009059MA1102301999999MW1101REMMET02910KM TO SW       ?     NOSIG?
0162039620999991985011001004+52683-008917SY-MT+0020EINN V0209991C00001012001CN0040001N1-00031-00091102411ADDAG11001AY121011GA1061+012009059GF106991061051012501999999MA1102401999999MD1210041+9999MW1101REMSYN023333   86640 92010 97362MET02910KM TO SW       ?     NOSIG?
0078039620999991985011001304+52683-008917FM-15+0020EINN V0209991C00001012001CN0040001N1+00001-00101999999ADDAG11999GA1071+012009059MA1102401999999MW1101REMMET02210KM TO SW GRADU 1000?
0155039620999991985011002004+52683-008917SY-MT+0020EINN V0209991C00001013501CN0040001N1-00031-00091102441ADDAG11999AY121021GA1071+013509059GF107991071051012501999999MA1102401999999MD1310061+9999MW1101REMSYN023333   87645 92000 97360MET02210KM TO SW GRADU 1000?
0090039620999991985011002304+52683-008917FM-15+0020EINN V0200601N00051015001CN0035001N1+00001-00101999999ADDAG12000GA1071+015009059MA1102401999999MW1101REMMET03410KM TO SW GRADU       ?     1000?
0167039620999991985011003004+52683-008917SY-MT+0020EINN V0209991C00001015001CN0035001N1+00021-00041102481ADDAG11000AY121031GA1071+015009059GF107991071051017501999999MA1102401999999MD1210101+9999MW1101REMSYN023333   87650 92000 97359MET0349KM TO SW INTER        ?     1000?
0067039620999991985011003304+52683-008917FM-15+0020EINN V0200701N00051015001CN0014001N1+00101-00101999999ADDAG11999GA1071+015009059MA1102401999999MW1101REMMET011INTER 1000?
0138039620999991985011004004+52683-008917SY-MT+0020EINN V0201201N00051015001CN0014001N1+00011-00021102501ADDAG12001AY121011GA1071+015009059GF107991071051017501999999MA1102401999999MD1210091+9999MW1101REMSYN017333   87650 92000MET011INTER 1000?
0067039620999991985011004304+52683-008917FM-15+0020EINN V0200901N00051015001CN0016001N1+00001+00001999999ADDAG12999GA1071+015009059MA1102511999999MW1101REMMET011INTER 1000?
0138039620999991985011005004+52683-008917SY-MT+0020EINN V0209991C00001015001CN0025001N1+00031-00031102501ADDAG11999AY121021GA1071+015009059GF107991071051017501999999MA1102401999999MD1110061+9999MW1101REMSYN017333   87650 92000MET011INTER 1000?
0097039620999991985011005304+52683-008917FM-15+0020EINN V0209991C00001015001CN0020001N1+00001+00001999999ADDAG12000GA1071+015009059MA1102401999999MW1111REMMET0419KM TO SW INTER        ?     0800 5ST004?
0221039620999991985011006004+52683-008917SY-MT+0020EINN V0203601N00101015001CN0050001N1+00081+00001102511ADDAA199001091AG10000AY121061GA1071+015009059GF107991071051017501999999IA1149IA2999-00509KA1120N-00261MA1102511999999MD1210031+9999MW1111REMSYN035333   21026 34105 87650 92000 97359MET0349KM TO SW GRADU        ?     2000?
0067039620999991985011006304+52683-008917FM-15+0020EINN V0209991C00001015001CN0070001N1+00001+00001999999ADDAG12999GA1071+015009059MA1102511999999MW1111REMMET011GRADU 2000?
0138039620999991985011007004+52683-008917SY-MT+0020EINN V0203201N00151015001CN0070001N1+00091+00011102541ADDAG12001AY121011GA1071+015009059GF107991071051017501999999MA1102511999999MD1210041+9999MW1111REMSYN017333   87650 92000MET011GRADU 2000?
0067039620999991985011007304+52683-008917FM-15+0020EINN V0200101N00101015001CN0070001N1+00101+00001999999ADDAG12999GA1061+015009059MA1102511999999MW1101REMMET011INTER 1500?
0160039620999991985011008004+52683-008917SY-MT+0020EINN V0200201N00151018001CN0120001N1+00101-00011102591ADDAG12001AY121021GA1021+012009059GA2061+018009059GF107991071051012501999999MA1102511999999MD1310091+9999MW1101REMSYN023333   82640 86656 92000MET011INTER 2000?
0083039620999991985011008304+52683-008917FM-15+0020EINN V0200301N00101018001CN0112001N1+00101+00001999999ADDAG12000GA1011+012009059GA2061+018009059MA1102611999999MW1101REMMET011INTER 2000?
0160039620999991985011009004+52683-008917SY-MT+0020EINN V0203601N00151018001CN0100001N1+00061-00021102651ADDAG12000AY121031GA1011+012009059GA2061+018009059GF106991061051012501999999MA1102611999999MD1310151+9999MW1101REMSYN023333   81640 86656 92000MET011INTER 5000?
0099039620999991985011009304+52683-008917FM-15+0020EINN V0203601N00261220001CN0040001N1+00001+00001999999ADDAG12999GA1011+012009059GA2041+018009059MA1102611999999MW1401REMMET027VIS 10KM TO SE,SWNW  NOSIG?
0138039620999991985011010004+52683-008917SY-MT+0020EINN V0203601N00211220001CN0040001N1+00031+00001102711ADDAG12001AY111011GA1031+012009059GF103991031051012501001001MA1102711999999MD1210171+9999MW1101REMSYN017333   83640 92000MET011GRADU 8000?
0132039620999991985011011004+52683-008917SY-MT+0020EINN V0203601N00101220001CN0030001N1+00071-00011102761ADDAG12001AY101021GA1011+012009059GF101991011051012501001001MA1102711999999MD1210171+9999MW1101REMSYN011333   81640MET011GRADU 8000?
0051039620999991985011011304+52683-008917FM-15+0020EINN V0200201N00101220001CN0030001N1+00101+00001999999ADDAG12000MA1102711999999MW1101REMMET011GRADU 8000?
0143039620999991985011012004+52683-008917SY-MT+0020EINN V0209991C00001220001CN0030001N1+00181+00101102781ADDAA106999929AG10000AY111061GA1021+000309079GF102991021061000251001001MA1102711999999MD1210121+9999MW1101REMSYN011333   82701MET011GRADU 8000?
0067039620999991985011012304+52683-008917FM-15+0020EINN V0200201N00101220001CN0035001N1+00201+00101999999ADDAG12999GA1011+000609079MA1102711999999MW1101REMMET011GRADU 8000?
0132039620999991985011013004+52683-008917SY-MT+0020EINN V0209991C00001220001CN0035001N1+00361+00131102781ADDAG12001AY101011GA1011+000609079GF101991011061000751001001MA1102711999999MD1110071+9999MW1101REMSYN011333   81702MET011GRADU 8000?
0051039620999991985011013304+52683-008917FM-15+0020EINN V0209991C00001220001CN0035001N1+00401+00201999999ADDAG12999MA1102711999999MW1101REMMET011GRADU 8000?
0132039620999991985011014004+52683-008917SY-MT+0020EINN V0202001N00051220001CN0035001N1+00401+00201102771ADDAG11001AY101021GA1011+006009059GF101991011051008001001001MA1102711999999MD1110011+9999MW1101REMSYN011333   81620MET011GRADU 8000?
0067039620999991985011014304+52683-008917FM-15+0020EINN V0202901N00051220001CN0035001N1+00401+00201999999ADDAG12000GA1011+006009059MA1102711999999MW1101REMMET011GRADU 8000?
0100039620999991985011015004+52683-008917FM-12+0020EINN V0203001N00051220001CN0035001N9+00401+00251102791ADDAG12000AY101031GA1011+012009059GF101991011051012501001001MD1310011+9999MW1101REMSYN011333   81640
0062039620999991985011015304+52683-008917FM-15+0020EINN V0202901N00051220001CN0040001N1+99999+99999999999ADDAG12999GA1011+012009059MA1102811999999MW1101REMMET006NOSIG?
0127039620999991985011016004+52683-008917SY-MT+0020EINN V0209991C00001220001CN0040001N1+00341+00261102821ADDAG12001AY101011GA1011+012009059GF101991011051012501001001MA1102811999999MD1310041+9999MW1101REMSYN011333   81640MET006NOSIG?
0138039620999991985011017004+52683-008917SY-MT+0020EINN V0203501N00101220001CN0040001N1+00231+00231102851ADDAG12999AY101021GA1011+001809079GF101991011061001501001001MA1102811999999MD1210081+9999MW1111REMSYN017333   81706 92000MET011GRADU 2000?
0177039620999991985011018004+52683-008917SY-MT+0020EINN V0200701N00151220001CN0040001N1+00071-00071102871ADDAA199999929AG10000AY101061GF100991001001999999001001KA1120M+00451MA1102811999999MD1210081+9999MW1101REMSYN029333   10045 92000 97359 97459MET030VIS 9KM TO SW W NW GRADU 1500?
0083039620999991985011018304+52683-008917FM-15+0020EINN V0200701N00101220001CN0003001N1+00001-00101999999ADDAG12999GA1041+000609079MA1102811999999MW1461REMMET027VIS 2000M TO SW W NW NOSIG?
0151039620999991985011019004+52683-008917SY-MT+0020EINN V0201301N00051000301CN0003001N1+00011-00091102911ADDAG12001AY141011GA1051+000309079GF105991051061000251999999MA1102911999999MD1210091+9999MW1461REMSYN023333   85701 90468 92011MET018TEMPO 5000 5SC040?
0068039620999991985011019304+52683-008917FM-15+0020EINN V0201301N00151220001CN0009001N1+00001-00101999999ADDAG12999MA1102911999999MW1411REMMET028VIS1500 SE SW NW GRADU 0200?
0133039620999991985011020004+52683-008917SY-MT+0020EINN V0201101N00151000601CN0002001N1-00071-00161102931ADDAG12001AY141021GA1091+000609999GF109991091999999999999999MA1102911999999MD1210081+9999MW1471REMSYN017333   89/02 92011MET006NOSIG?
0062039620999991985011020304+52683-008917FM-15+0020EINN V0200601N00101000301CN0002001N1-00101-00101999999ADDAG12000GA1091+000309999MA1102911999999MW1451REMMET006NOSIG?
0133039620999991985011021004+52683-008917SY-MT+0020EINN V0200101N00101000301CN0002001N1-00171-00201102961ADDAG12000AY141031GA1091+000309999GF109991091999999999999999MA1102911999999MD1210091+9999MW1451REMSYN017333   89/01 92012MET006NOSIG?
0062039620999991985011021304+52683-008917FM-15+0020EINN V0200401N00101000301CN0001001N1-00301-00301999999ADDAG12999GA1091+000309999MA1102911999999MW1471REMMET006NOSIG?
0151039620999991985011022004+52683-008917SY-MT+0020EINN V0200501N00051220001CN0002001N1-00291-00361102991ADDAG11001AY141011GF100991001001999999001001GJ103669MA1102911999999MD1210071+9999MW1441REMSYN017333   94061 92012MET013GRADU 9//001?EQDQ01+000000PRSWM2
0057039620999991985011022304+52683-008917FM-15+0020EINN V0200401N00051220001CN0003001N1-00301-00401999999ADDAG12999MA1102911999999MW1421REMMET017GRADU0200 9//001?
0123039620999991985011023004+52683-008917SY-MT+0020EINN V0209991C00001220001CN0003001N1-00341-00411102991ADDAG11001AY141021GF100991001001999999001001MA1102911999999MD1110051+9999MW1421REMSYN011333   92012MET018GRADU 0200 9//001?
0072039620999991985011023304+52683-008917FM-15+0020EINN V0209991C00001220001CN0002001N1-00301-00401999999ADDAG12000MA1102911999999MW1421REMMET013GRADU 9//001?EQDQ01+000432PRSWM2
0164039620999991985011100004+52683-008917SY-MT+0020EINN V0201001N00101220001CN0002001N1-00361-00411103001ADDAA106999929AG13000AY141061GF100991001001999999001001MA1102911999999MD1210031+9999MW1421REMSYN011333   92012MET013GRADU 9//001?EQDQ01+000000PRSWM2Q02+000432PRSWM1
0072039620999991985011100304+52683-008917FM-15+0020EINN V0209991C00001220001CN0001001N1-00301-00401999999ADDAG11999MA1102911999999MW1461REMMET013GRADU 9//001?EQDQ01+000472PRSWM2
0127039620999991985011101004+52683-008917SY-MT+0020EINN V0209991C00001000301CN0001001N1-00351-00391103031ADDAG11999AY141011GA1091+000309999GF109991091999999999999999MA1103011999999MD1310041+9999MW1471REMSYN011333   89/01MET006NOSIG?
0062039620999991985011101304+52683-008917FM-15+0020EINN V0209991C00001000301CN0001001N1+00301-00401999999ADDAG11999GA1091+000309999MA1102911999999MW1451REMMET006NOSIG?
