0199039620999991988010100004+52700-008917SY-MT+0020EINN V0202201N00511005101CN0200001N1+00851+00641099901ADDAA106001091AG10001AY181061AY221061GA1051+005109079GA2081+013509059GF108991081061004501999999MA1099801999999MD1810151+9999MW1251REMSYN017333   85717 88645MET037GRADU 8000       ?     4ST012 8SC020?
0101039620999991988010100304+52700-008917FM-15+0020EINN V0202401N00511003301CN0060001N1+00901+00701999999ADDAG11999GA1031+002109079GA2061+003309079GA3071+004209079MA1099901999999MW1601REMMET013TEMPO 6ST007?
0191039620999991988010101004+52700-008917SY-MT+0020EINN V0202001N00361003001CN0080001N1+00831+00701099851ADDAG12001AY161011AY251011GA1031+002409079GA2061+003009079GA3071+004209079GF108991081061002501999999MA1099801999999MD1710191+9999MW1581REMSYN023333   83708 86710 87714MET018TEMPO 4000 5ST006?
0090039620999991988010101304+52700-008917FM-15+0020EINN V0202101N00511003901CN0090001N1+00901+00701999999ADDAG11999GA1031+003009079GA2071+003909079MA1099801999999MW1581REMMET018TEMPO 4000 5ST006?
0191039620999991988010102004+52700-008917SY-MT+0020EINN V0202001N00461003301CN0080001N1+00851+00681099801ADDAG12999AY161021AY251021GA1031+002109079GA2051+003309079GA3071+004209079GF108991081061002501999999MA1099701999999MD1710161+9999MW1511REMSYN023333   83707 85711 87714MET018TEMPO 4000 5ST006?
0094039620999991988010102304+52700-008917FM-15+0020EINN V0202001N00461004201CN0112001N1+00801+00701999999ADDAG12001GA1021+002409079GA2051+004209079GA3071+015009059MA1099701999999MW1511REMMET006NOSIG?
0179039620999991988010103004+52700-008917SY-MT+0020EINN V0201901N00411007501CN0120001N1+00851+00751099641ADDAG12001AY161031AY251031GA1031+003009079GA2041+007509059GA3071+015009059GF108991081051004501999999MA1099591999999MD1810251+9999MW1511REMSYN023333   83710 84625 87650MET006NOSIG?
0094039620999991988010103304+52700-008917FM-15+0020EINN V0201901N00411009001CN0112001N1+00901+00801999999ADDAG12999GA1011+002109079GA2031+006009059GA3081+009009059MA1099491999999MW1201REMMET006NOSIG?
0152039620999991988010104004+52700-008917FM-12+0020EINN V0201701N00361004501CN0300001N9+00911+00771099531ADDAG12999AY151011AY221011GA1021+003909079GA2051+004509079GA3081+007509059GF108991081061004501999999MD1810311+9999MW1501REMSYN023333   82713 85715 88625
0188039620999991988010105004+52700-008917SY-MT+0020EINN V0202001N00511001201CN0050001N1+00971+00851099421ADDAG12001AY151021AY251021GA1061+001209079GA2081+002109079GF108991081071001501999999MA1099391999999MD1710371+9999MW1531REMSYN017333   86704 88707MET037TRMPO 8000       ?     3ST008 8ST012?
0109039620999991988010105304+52700-008917FM-15+0020EINN V0202301N00571000901CN0030001N1+01001+01001999999ADDAG12002GA1061+000909079GA2081+001509079MA1099291999999MW1531REMMET037TEMPO 8000       ?     3ST008 8ST012?
0248039620999991988010106004+52700-008917SY-MT+0020EINN V0202401N00771000901CN0030001N1+01111+01031099391ADDAA199004091AG10001AY161061AY251061GA1051+000909079GA2081+001509079GF108991081071001501999999IA1099IA2999+00509KA1120N+00761MA1099291999999MD1510251+9999MW1531REMSYN035333   20076 31005 85703 88705 94///MET037TEMPO 7000       ?     4ST008 8ST012?
0079039620999991988010106304+52700-008917FM-15+0020EINN V0202401N00771000901CN0025001N1+01101+01101999999ADDAG12999GA1051+000909079GA2081+001509079MA1099291999999MW1531REMMET007NO SIG?
0162039620999991988010107004+52700-008917SY-MT+0020EINN V0202501N00771001201CN0090001N1+01121+01041099381ADDAG12999AY151011AY261011GA1051+001209079GA2081+001809079GF108991081061001501999999MA1099291999999MD1510151+9999MW1611REMSYN017333   85704 88706MET011TEMPO 3000?
0110039620999991988010107304+52700-008917FM-15+0020EINN V0202401N00621002401CN0112001N1+01101+01101999999ADDAG12999GA1031+001509079GA2061+002409079GA3081+003609079MA1099291999999MW1611REMMET022GRADU      ?     7000?
0162039620999991988010108004+52700-008917SY-MT+0020EINN V0202401N00771003001CN0150001N1+01131+01051099381ADDAG12999AY161021AY261021GA1031+002109079GA2081+003009079GF108991081061002501999999MA1099291999999MD1510041+9999MW1611REMSYN017333   83707 88710MET011GRADU 7000?
0113039620999991988010108304+52700-008917FM-15+0020EINN V0202401N00671003001CN0080001N1+01201+01101999999ADDAG12007GA1031+002409079GA2061+003009079GA3081+004209079MA1099291999999MW1611REMMET025TEMPO 3000 5ST004 8ST008?
0197039620999991988010109004+52700-008917SY-MT+0020EINN V0202401N00571002701CN0050001N1+01131+01071099381ADDAG12002AY161031AY261031GA1031+002109079GA2051+002709079GA3081+003609079GF108991081071002501999999MA1099291999999MD1610011+9999MW1611MW2631REMSYN023333   83707 85709 88712MET018TEMPO 3000 5ST004?
0097039620999991988010109304+52700-008917FM-15+0020EINN V0202401N00571001501CN0025001N1+01101+01101999999ADDAG12999GA1051+001509079GA2081+002409079MA1099291999999MW1581REMMET025TEMPO 7000 4ST008 8ST012?
0198039620999991988010110004+52700-008917SY-MT+0020EINN V0202401N00621002101CN0028001N1+01131+01091099351ADDAG12999AY161011AY251011GA1031+001509079GA2061+002109079GA3071+003009079GF108991081071001501999999MA1099291999999MD1710031+9999MW1591REMSYN023333   83705 86707 87710MET025TEMPO 7000 4ST008 8ST012?
0097039620999991988010110304+52700-008917FM-15+0020EINN V0202401N00621002401CN0028001N1+01101+01101999999ADDAG12999GA1041+001509079GA2081+002409079MA1099291999999MW1591REMMET025TEMPO 7000 4ST008 8ST012?
0179039620999991988010111004+52700-008917SY-MT+0020EINN V0202401N00621002101CN0028001N1+01151+01111099311ADDAG12999AY161021AY251021GA1031+001509079GA2051+002109079GA3081+002709079GF108991081071001501999999MA1099291999999MD1710071+9999MW1591REMSYN023333   83705 85707 88709MET006NOSIG?
0190039620999991988010112004+52700-008917SY-MT+0020EINN V0202401N01081002101CN0030001N1+01191+01121099251ADDAA106010091AG10004AY161061AY251061GA1031+001509079GA2051+002109079GA3081+003009079GF108991081071001501999999MA1099191999999MD1710121+9999MW1631REMSYN023333   83705 85707 88710MET006NOSIG?
0090039620999991988010112304+52700-008917FM-15+0020EINN V0202401N01031002401CN0112001N1+01201+01101999999ADDAG12999GA1051+002409079GA2071+003609079MA1099191999999MW1611REMMET018TEMPO 5000 6ST010?
0169039620999991988010113004+52700-008917SY-MT+0020EINN V0202401N00931001501CN0024001N1+01181+01111099171ADDAG12001AY161011AY251011GA1051+001509079GA2081+002109079GF108991081071001501999999MA1099091999999MD1710181+9999MW1591REMSYN017333   85705 88707MET018TEMPO 5000 6ST010?
0078039620999991988010113304+52700-008917FM-15+0020EINN V0202301N00931002701CN0040001N1+01201+01101999999ADDAG12999GA1031+001809079GA2081+002709079MA1098981999999MW1581REMMET006NOSIG?
0209039620999991988010114004+52700-008917SY-MT+0020EINN V0202401N00981002701CN0030001N1+01261+01151099081ADDAG12001AY161021AY251021GA1021+001509079GA2051+002709079GA3071+003609079GF108991081071001501999999MA1098981999999MD1710231+9999MW1581REMSYN023333   82705 85709 87712MET036GRADU      ?     8000 3ST010 6ST015?
0110039620999991988010114304+52700-008917FM-15+0020EINN V0202401N01081002401CN0026001N1+01201+01101999999ADDAG12014GA1031+001509079GA2071+002409079MA1098981999999MW1591REMMET038GRADU 8000       ?     3ST010 6ST015+?
0201039620999991988010115004+52700-008917SY-MT+0020EINN V0202401N01181003001CN0120001N1+01201+01161099071ADDAG12001AY161031AY251031GA1021+002109079GA2051+003009079GA3071+004209079GF108991081071002501999999MA1098981999999MD1610181+9999MW1211OA149901801REMSYN029333   82707 85710 87714 91135MET011TEMPO 6000?
0249039620999991988010116004+52700-008917SY-MT+0020EINN V0202401N01181004501CN0070001N1+01221+01111099031ADDAG12001AY161011AY221011GA1031+003009079GA2051+004509079GA3071+009009059GF108991081061004501999999MA1098981999999MD1710141+9999MW1211OA149901901REMSYN041333   83710 85715 87630 91137 97165 97265MET04710KM TO NE SE          ?     TEMPO 4000 6ST008?
0125039620999991988010116304+52700-008917FM-15+0020EINN V0202401N01081004201CN0112001N1+01201+01101999999ADDAG12999GA1031+003009079GA2051+004209079GA3081+006009059MA1098981999999MW1211OC101601REMMET029TEMPO      ?     4000 6ST008?
0203039620999991988010117004+52700-008917SY-MT+0020EINN V0202301N01081005401CN0200001N1+01261+01091099011ADDAG12001AY161021AY251021GA1031+003609079GA2041+005409079GA3061+009009079GF107991071061004501999999MA1098981999999MD1710071+9999MW1211REMSYN023333   83712 84718 86630MET030TEMPO 4000       ?     6ST008?
0110039620999991988010117304+52700-008917FM-15+0020EINN V0202301N00881008101CN0112001N1+01201+01101999999ADDAG12001GA1031+003309079GA2071+008109059MA1098921999999MW1201OC101651REMMET030TEMPO 6000       ?     5ST008?
0249039620999991988010118004+52700-008917SY-MT+0020EINN V0202301N01031004801CN0120001N1+01261+01031098941ADDAA199014091AG10001AY161061AY251061GA1031+002409079GA2051+004809079GA3071+007809059GF108991081071002501999999KA1120M+01301MA1098921999999MD1710131+9999MW1501OA149901801REMSYN035333   10130 83708 85716 87626 91135MET029TEMPO      ?     6000 5ST008?
0132039620999991988010118304+52700-008917FM-15+0020EINN V0202601N00881002401CN0050001N1+01101+00901999999ADDAG12999GA1021+001509079GA2051+002409079GA3061+003009079MA1098981999999MW1581OC101441REMMET036TEMPO      ?     9999 5ST012 7SC020?
0198039620999991988010119004+52700-008917SY-MT+0020EINN V0202301N00821003001CN0070001N1+01001+00861099021ADDAG12999AY161011AY251011GA1031+001809079GA2051+003009079GA3071+004209079GF108991081071002501999999MA1098981999999MD1610011+9999MW1581REMSYN023333   83706 85710 87714MET025TEMPO 9999 5ST012 7SC020?
0108039620999991988010119304+52700-008917FM-15+0020EINN V0202301N00821015001CN0112001N1+01001+00801999999ADDAG12999GA1011+003009079GA2031+005409079GA3081+015009059MA1098981999999MW1211REMMET020TEMPO 8000 5ST010+ ?
0202039620999991988010120004+52700-008917SY-MT+0020EINN V0202301N00931018001CN0200001N1+01011+00781098961ADDAG12999AY161021AY251021GA1011+003009079GA2031+005409079GA3071+018009059GF107991071051004501999999MA1098921999999MD1710051+9999MW1211REMSYN023333   81710 83718 87656MET029TEMPO      ?     8000 5ST010?
0110039620999991988010120304+52700-008917FM-15+0020EINN V0202401N00771018001CN0112001N1+01001+00701999999ADDAG12000GA1021+004509079GA2071+018009059MA1098921999999REMMET025TEMPO 8000 5ST010      ??EQDQ01+000000PRSWM2
0173039620999991988010121004+52700-008917SY-MT+0020EINN V0202401N00771018001CN0300001N1+01001+00661098931ADDAG12001AY161031AY251031GA1011+004509079GA2071+018009059GF107991071051004501999999MD1710011+9999MW1021REMSYN017333   81715 87656MET018TEMPO 8000 5ST010?EQDQ01+000000PRSWM2
0110039620999991988010121304+52700-008917FM-15+0020EINN V0202301N00721018001CN0112001N1+01001+00701999999ADDAG12999GA1011+004509079GA2071+018009059MA1098821999999REMMET025TEMPO 8000 5ST010      ??EQDQ01+000000PRSWM2
0203039620999991988010122004+52700-008917SY-MT+0020EINN V0202201N00671030001CN0300001N1+00981+00681098851ADDAG12999GA1011+006009059GA2041+018009059GA3071+030009039GF107991041051008001031999GJ100009MA1098821999999MD1710171+9999MW1001REMSYN029333   81620 84656 87360 94000MET013GRADU 5ST015?EQDQ01+000000PRSWM2
0114039620999991988010122304+52700-008917FM-15+0020EINN V0202201N00571018001CN0112001N1+01001+00701999999ADDAG12999GA1011+006009059GA2061+018009059GA3071+030009039MA1098821999999REMMET013GRADU 5ST015?EQDQ01+000000PRSWM2
0170039620999991988010123004+52700-008917SY-MT+0020EINN V0202201N00621015001CN0250001N1+01021+00701098791ADDAG12999AY161021AY221021GA1021+006009059GA2071+015009059GF108991081051008001999999MA1098711999999MD1710171+9999MW1601REMSYN017333   82620 87650MET019GRADU 5ST015     ??
0101039620999991988010123304+52700-008917FM-15+0020EINN V0202201N00881009001CN0112001N1+01001+00801999999ADDAG12002GA1021+003009079GA2031+009009059GA3071+015009059MA1098711999999MW1601REMMET013GRADU 5ST010?
0202039620999991988010200004+52700-008917SY-MT+0020EINN V0202201N00821015001CN0200001N1+01041+00811098661ADDAA106002091AG10001AY161061AY251061GA1011+003009079GA2031+009009059GA3051+015009059GF108991061051004501071999MA1098611999999MD1710271+9999MW1211REMSYN023333   81710 83630 85650MET018TEMPO 8000 5ST010?
0106039620999991988010200304+52700-008917FM-15+0020EINN V0202201N00621015001CN0112001N1+01101+00801999999ADDAG11999GA1011+002109079GA2031+009009059GA3061+015009059MA1098511999999MW1601REMMET018TEMPO 8000 5ST010?
0191039620999991988010201004+52700-008917SY-MT+0020EINN V0202201N00771027001CN0150001N1+01051+00831098521ADDAG12999AY161011AY221011GA1011+002109079GA2031+009009059GA3081+027009049GF108991051051002501071999MA1098511999999MD1810331+9999MW1601REMSYN023333   81707 83630 88459MET018TEMPO 8000 5ST010?
0099039620999991988010201304+52700-008917FM-15+0020EINN V0202301N00981015001CN0080001N1+01001+00701999999ADDAG11999GA1011+001509079GA2031+003009079GA3071+015009059MA1098511999999MW1611REMMET011GRADU 9999?
0179039620999991988010202004+52700-008917SY-MT+0020EINN V0202101N00821009001CN0200001N1+00991+00711098331ADDAG12001AY161021AY221021GA1021+004509079GA2031+009009059GA3071+015009059GF108991081051004501999999MA1098311999999MD1710461+9999MW1211REMSYN023333   82715 83630 87650MET006NOSIG?
0103039620999991988010202304+52700-008917FM-15+0020EINN V0202201N00821015001CN0112001N1+01001+00701999999ADDAG12002GA1011+004509079GA2031+009009059GA3071+015009059MA1098211999999MW1601REMMET015TEMPO 8000 5ST?
0191039620999991988010203004+52700-008917SY-MT+0020EINN V0202301N00771015001CN0150001N1+01021+00771098221ADDAG12001AY161031AY221031GA1011+003009079GA2051+015009059GA3081+027009049GF108991051051004501071999MA1098211999999MD1710441+9999MW1601REMSYN023333   81710 85650 88459MET018TEMPO 8000 5ST010?
0113039620999991988010203304+52700-008917FM-15+0020EINN V0202201N00671024001CN0112001N1+01001+00801999999ADDAG11999GA1011+003009079GA2031+009009059GA3081+024009049MA1098101999999MW1601REMMET025TEMPO 7000 4ST007 8ST010?
0198039620999991988010204004+52700-008917SY-MT+0020EINN V0202301N00771024001CN0150001N1+00961+00751098101ADDAG12001AY161011AY261011GA1011+003009079GA2041+006609059GA3081+024009049GF108991061051004501071999MA1098101999999MD1710421+9999MW1611REMSYN023333   81710 84622 88458MET025TEMPO 7000 4ST007 8ST010?
0094039620999991988010204304+52700-008917FM-15+0020EINN V0202401N00881006001CN0112001N1+00801+00601999999ADDAG12999GA1021+003309079GA2031+006009059GA3081+024009049MA1098001999999MW1631REMMET006NOSIG?
0187039620999991988010205004+52700-008917SY-MT+0020EINN V0202301N00821007501CN0120001N1+00831+00591098021ADDAG12001AY161021AY261021GA1021+002709079GA2031+007509059GA3081+015009059GF108991081051002501999999MA1098001999999MD1710311+9999MW1611OC101391REMSYN023333   82709 83625 88650MET006NOSIG?
0094039620999991988010205304+52700-008917FM-15+0020EINN V0202301N01031007501CN0112001N1+00801+00501999999ADDAG12007GA1021+002709079GA2031+007509059GA3081+015009059MA1097901999999MW1611REMMET006NOSIG?
0255039620999991988010206004+52700-008917SY-MT+0020EINN V0202301N01031009001CN0250001N1+00791+00401097961ADDAA199006091AG10002AY161061AY221061GA1021+002709079GA2031+009009059GA3081+015009059GF108991081051002501999999GJ100009IA1099IA2999+00609KA1120N+00761MA1097901999999MD1610261+9999MW1611OC101601REMSYN041333   20076 31006 82709 83630 88650 94000MET006NOSIG?
0094039620999991988010206304+52700-008917FM-15+0020EINN V0202301N01131009001CN0112001N1+00801+00401999999ADDAG12999GA1021+006009089GA2031+009009059GA3061+015009059MA1097801999999MW1801REMMET006NOSIG?
0157039620999991988010207004+52700-008917SY-MT+0020EINN V0202201N00721220001CN0300001N1+00701+00421097841ADDAG12001AY181011AY261011GA1011+006009089GA2031+010509059GF104991041081008001001001MA1097801999999MD1810261+9999MW1251REMSYN017333   81820 83635MET006NOSIG?
0062039620999991988010207304+52700-008917FM-15+0020EINN V0202301N00771220001CN0112001N1+00701+00401999999ADDAG12999GA1011+006009099MA1097801999999MW1251REMMET006NOSIG?
0145039620999991988010208004+52700-008917SY-MT+0020EINN V0202201N00721005701CN0200001N1+00721+00441097771ADDAG12999AY181021AY211021GA1061+005709099GF106991061091004501999999MA1097701999999MD1710251+9999MW1801REMSYN011333   86919MET016TEMPO 7000 95TS?
0086039620999991988010208304+52700-008917FM-15+0020EINN V0202301N00981005701CN0112001N1+00601+00401999999ADDAG12004GA1031+004509079GA2061+005709099MA1097801999999MW1801OC101541REMMET006NOSIG?
0194039620999991988010209004+52700-008917SY-MT+0020EINN V0202301N00871004201CN0250001N1+00691+00391097811ADDAG12001AY181031AY261031GA1011+004509079GA2031+006009099GF106991061091004501999999MA1097801999999MD1710151+9999MW1251OA149901801OC101391REMSYN035333   81715 83920 91135 98331 90033MET006NOSIG?
0078039620999991988010209304+52700-008917FM-15+0020EINN V0202301N01031010501CN0112001N1+00701+00401999999ADDAG12999GA1021+006009099GA2031+010509059MA1097801999999MW1251REMMET006NOSIG?
0146039620999991988010210004+52700-008917SY-MT+0020EINN V0202301N00931220001CN0250001N1+00731+00331097761ADDAG12001GA1031+006009099GF103991031091008001001021MA1097701999999MD1710081+9999MW1001OC101541REMSYN011333   83920MET006NOSIG?EQDQ01+000000PRSWM2
0091039620999991988010210304+52700-008917FM-15+0020EINN V0202401N01391004501CN0030001N1+00601+00301999999ADDAG12999GA1031+001509079GA2071+004509099MA1097801999999MW1871OC102111REMMET011GRADU 9999?
0182039620999991988010211004+52700-008917SY-MT+0020EINN V0202301N00931220001CN0250001N1+00731+00331097761ADDAG12001GA1031+006009099GA2061+006009099GF199999031091008001001021MA1097801999999MD1710081+9999MW1801REMSYN011333   83920MET018TEMPO 7000 4ST008?EQDQ01+000032SCOTCVQ02+000003PRSWM1
0074039620999991988010211304+52700-008917FM-15+0020EINN V0202301N00881220001CN0112001N1+00701+00401999999ADDAG12001GA1021+005409099MA1097701999999MW1251REMMET018TEMPO 7000 6CB018?
0236039620999991988010212004+52700-008917SY-MT+0020EINN V0202301N00771220001CN0080001N1+00751+00431097731ADDAA106004091AG10002AY181061AY221061GA1011+003009079GA2041+006009099GF104991041091004501001021MA1097701999999MD1810081+9999MW1801OA149902111REMSYN041333   81710 84920 99720 91141 97165 97265MET0399999 TONE SE  TEMPO 5000 5ST008 6CB017?
0097039620999991988010212304+52700-008917FM-15+0020EINN V0202301N00931220001CN0112001N1+00701+00401999999ADDAG12999GA1011+003009079GA2041+006009099MA1097601999999MW1251REMMET025TEMPO 5000 5ST008 6CB017?
0201039620999991988010213004+52700-008917SY-MT+0020EINN V0202301N00931005401CN0150001N1+00781+00491097571ADDAG12999AY181011AY221011GA1031+002709079GA2071+005409099GF107991071091002501999999MA1097491999999MD1810191+9999MW1801OA149901901OC101441REMSYN023333   83709 87918 91137MET025TEMPO 5000 5ST008 6CB017?
0097039620999991988010213304+52700-008917FM-15+0020EINN V0202301N01031006001CN0112001N1+00701+00501999999ADDAG12999GA1021+002409079GA2041+006009099MA1097491999999MW1251REMMET025TEMPO 5000 6ST008 6CB017?
0170039620999991988010214004+52700-008917SY-MT+0020EINN V0202301N01081006001CN0060001N1+00791+00501097501ADDAG12001AY181021AY281021GA1031+002109079GA2061+006009099GF107991071031002501999999MA1097491999999MD1710341+9999MW1801OC101601REMSYN017333   83707 86918MET011GRADU 9999?
0097039620999991988010214304+52700-008917FM-15+0020EINN V0202401N00821005401CN0112001N1+00801+00501999999ADDAG12001GA1021+003009079GA2031+005409099MA1097391999999MW1251REMMET025TEMPO 5000 5ST008 6CB017?
0201039620999991988010215004+52700-008917SY-MT+0020EINN V0202301N01181006001CN0120001N1+00851+00491097371ADDAG12002AY181031AY281031GA1021+003009079GA2041+006009099GF107991071031002501999999MA1097291999999MD1710361+9999MW1801OA149901961OC102111REMSYN023333   82710 84920 91138MET025TEMPO 5000 5ST008 6CB017?
0097039620999991988010215304+52700-008917FM-15+0020EINN V0202301N01241006001CN0112001N1+00801+00401999999ADDAG12999GA1021+003009079GA2041+006009099MA1097291999999MW1801REMMET025TEMPO 5000 5ST008 6CB017?
0182039620999991988010216004+52700-008917SY-MT+0020EINN V0202401N01231006001CN0080001N1+00851+00491097241ADDAG12999AY181011AY281011GA1031+003009079GA2051+006009099GF107991071031004501999999MA1097191999999MD1710331+9999MW1801OA149902681OC101751REMSYN023333   83710 85920 91152MET006NOSIG?
0127039620999991988010216304+52700-008917FM-15+0020EINN V0202501N01541005401CN0080001N1+00701+00601999999ADDAG12999GA1021+002709079GA2041+005409099MA1097191999999MW1801OC102211REMMET047VIS 10KM TO NE AND SE TEMPO 5000 5ST008 6CB017?
0201039620999991988010217004+52700-008917SY-MT+0020EINN V0202401N01491005401CN0120001N1+00811+00471097161ADDAG12999AY181021AY281021GA1031+002709079GA2051+005409099GF107991071031004501999999MA1097091999999MD1710341+9999MW1251OA149902471OC102271REMSYN023333   83709 85918 91148MET025TEMPO 5000 5ST008 6CB017?
0091039620999991988010217304+52700-008917FM-15+0020EINN V0202601N01491005101CN0112001N1+00801+00501999999ADDAG12004GA1031+003009079GA2061+005109099MA1097191999999MW1801OC102421REMMET011TEMPO 5000?
0288039620999991988010218004+52700-008917SY-MT+0020EINN V0202601N01641005401CN0080001N1+00761+00631097391ADDAA199009091AG10002AY181061AY221061GA1021+003009079GA2051+005409099GF107991071031004501999999KA1120M+00901MA1097291999999MD1310021+9999MW1801OA149902681OA259901751OC102271REMSYN047333   10090 82710 85918 91152 91234 97170 97270MET053VIS 10KM         ?     TO NE SE NW TEMPO 5000 5ST008?
0110039620999991988010218304+52700-008917FM-15+0020EINN V0202701N01341005401CN0112001N1+00801+00401999999ADDAG12999GA1011+003009079GA2051+005409099MA1097391999999MW1251OC101851REMMET030TEMPO 5000       ?     5ST008?
0223039620999991988010219004+52700-008917SY-MT+0020EINN V0202601N01391220001CN0200001N1+00771+00451097561ADDAG12999AY181011AY211011GA1011+003009079GA2041+005409099GF104991041031004501001001MA1097491999999MD1310321+9999MW1251OA149902521OA259901651OC101961REMSYN029333   81710 84918 91149 91232MET030TEMPO 5000       ?     5ST008?
0098039620999991988010219304+52700-008917FM-15+0020EINN V0202601N01181005401CN0112001N1+00801+00501999999ADDAG12999GA1021+003009079GA2061+005409099MA1097601999999MW1801OC102161REMMET018TEMPO 5000 5ST008?
0198039620999991988010220004+52700-008917SY-MT+0020EINN V0202501N01031220001CN0200001N1+00721+00421097671ADDAG12001AY181021AY211021GA1011+003009079GA2031+006009099GF103991031091004501001001MA1097601999999MD1110511+9999MW1251OA149902161REMSYN023333   81710 83920 91142MET030TEMPO 5000       ?     5ST008?
0109039620999991988010220304+52700-008917FM-15+0020EINN V0202601N01181220001CN0112001N1+00801+00401999999ADDAG12001GA1011+003009079GA2041+005409099MA1097601999999MW1251OC101701REMMET029TEMPO      ?     5000 5ST008?
0223039620999991988010221004+52700-008917SY-MT+0020EINN V0202601N01231220001CN0200001N1+00801+00461097711ADDAG12003AY181031AY211031GA1011+002409079GA2041+005409099GF104991041031002501001001MA1097701999999MD1110321+9999MW1811OA149902521OA259901651OC101801REMSYN029333   81708 84918 91149 91232MET030TEMPO 5000       ?     5ST008?
0090039620999991988010221304+52700-008917FM-15+0020EINN V0202501N01131005401CN0112001N1+00801+00401999999ADDAG12999GA1021+002409079GA2051+005409099MA1097701999999MW1801REMMET018TEMPO 5000 5ST008?
0212039620999991988010222004+52700-008917SY-MT+0020EINN V0202601N01291004201CN0200001N1+00741+00441097781ADDAG12999AY181011AY211011GA1011+003009079GA2031+006009099GF105991051091004501999999GJ100789MA1097701999999MD1210221+9999MW1251OA149901901REMSYN029333   81710 83920 94013 91137MET030TEMPO 5000       ?     5ST008?
0110039620999991988010222304+52700-008917FM-15+0020EINN V0202601N01291220001CN0112001N1+00801+00401999999ADDAG12999GA1011+003609079GA2041+006009099MA1097701999999MW1251OC101901REMMET030TEMPO 5000       ?     5ST008?
0177039620999991988010223004+52700-008917SY-MT+0020EINN V0202601N01341006001CN0200001N1+00801+00461097801ADDAG12999AY181021AY221021GA1011+003609079GA2041+006009099GF106991061031004501999999MA1097801999999MD1210131+9999MW1251OC101851REMSYN017333   81712 84920MET018TEMPO 5000 5ST008?
0110039620999991988010223304+52700-008917FM-15+0020EINN V0202601N01291005401CN0112001N1+00801+00501999999ADDAG12004GA1021+003009079GA2061+005409099MA1097801999999MW1801OC101801REMMET030TEMPO 5000       ?     5ST008?
0222039620999991988010300004+52700-008917SY-MT+0020EINN V0202601N01491006001CN0200001N1+00821+00401097871ADDAA106002091AG10001AY181061AY211061GA1011+003009079GA2041+006009099GF105991051091004501999999MA1097801999999MD1210161+9999MW1251OA149902521OA259901651OC102211REMSYN029333   81710 84920 91149 91232MET018TEMPO 5000 5ST008?
0098039620999991988010300304+52700-008917FM-15+0020EINN V0202601N01341005401CN0112001N1+00801+00401999999ADDAG11999GA1021+003009079GA2051+005409099MA1097901999999MW1801OC102061REMMET018TEMPO 5000 5ST008?
0225039620999991988010301004+52700-008917SY-MT+0020EINN V0202601N01751012001CN0200001N1+00771+00351097921ADDAG12001AY181011AY221011GA1011+003009079GA2031+005409099GA3051+012009059GF106991061091004501999999MA1097901999999MD1210141+9999MW1251OA149902421OA259901801REMSYN035333   81710 83918 85640 91147 91235MET018TEMPO 5000 5ST008?
0114039620999991988010301304+52700-008917FM-15+0020EINN V0202601N01491005401CN0112001N1+00701+00401999999ADDAG11999GA1021+003009079GA2041+005409099GA3051+015009059MA1097901999999MW1801OC102061REMMET018TEMPO 5000 5ST008?
0233039620999991988010302004+52700-008917SY-MT+0020EINN V0202601N01291005401CN0200001N1+00671+00441098001ADDAG12001AY181021AY221021GA1021+003009079GA2051+005409099GA3071+015009059GF107991071091004501999999MA1098001999999MD1210201+9999MW1801OA149902111OA259901601OC101801REMSYN035333   82710 85918 87650 91141 91231MET018TEMPO 5000 5ST008?
0114039620999991988010302304+52700-008917FM-15+0020EINN V0202601N01291005401CN0112001N1+00701+00501999999ADDAG12004GA1021+003009079GA2041+005409099GA3061+015009059MA1098001999999MW1801OC101801REMMET018TEMPO 5000 5ST008?
0233039620999991988010303004+52700-008917SY-MT+0020EINN V0202601N01391005401CN0200001N1+00711+00431098071ADDAG12002AY181031AY221031GA1021+002409079GA2041+005409099GA3061+008409059GF108991081031002501999999MA1098001999999MD1210201+9999MW1801OA149902421OA259901801OC101961REMSYN035333   82708 84918 86628 91147 91235MET018TEMPO 5000 5ST008?
0114039620999991988010303304+52700-008917FM-15+0020EINN V0202801N01241003901CN0112001N1+00701+00501999999ADDAG12999GA1021+002409079GA2031+003909079GA3061+005409099MA1098101999999MW1801OC101901REMMET018TEMPO 5000 5ST008?
0226039620999991988010304004+52700-008917SY-MT+0020EINN V0202701N01231012001CN0100001N1+00661+00431098161ADDAG12001AY181011AY221011GA1011+002409079GA2031+005409099GA3071+012009059GF108991081031002501999999MA1098101999999MD1210241+9999MW1801OA149901901REMSYN047333   81708 83918 87640 91137 97170 97270 97470MET018TEMPO 5000 5ST008?
0106039620999991988010304304+52700-008917FM-15+0020EINN V0202601N00981007201CN0112001N1+00701+00501999999ADDAG12999GA1011+003009079GA2031+005409099GA3071+007209059MA1098101999999MW1251REMMET018TEMPO 5000 5ST008?
0186039620999991988010305004+52700-008917SY-MT+0020EINN V0202701N00931005401CN0200001N1+00741+00511098191ADDAG12001AY181021AY221021GA1011+003009079GA2041+005409099GF108991081031004501999999MA1098101999999MD1210191+9999MW1801OA149901801REMSYN023333   81710 84918 91135MET018TEMPO 5000 5ST008?
0098039620999991988010305304+52700-008917FM-15+0020EINN V0202701N01181005401CN0112001N1+00701+00501999999ADDAG12004GA1021+002109079GA2051+005409099MA1098211999999MW1801OC101701REMMET018TEMPO 5000 5ST008?
0271039620999991988010306004+52700-008917SY-MT+0020EINN V0202701N01181005401CN0200001N1+00691+00441098281ADDAA199008091AG10002AY181061AY221061GA1011+001809079GA2041+005409099GF107991071031001501999999GJ100789IA1119IA2999+00409KA1120N+00621MA1098211999999MD1210211+9999MW1801OA149902421OA259901801REMSYN047333   20062 32004 81706 84918 91147 91235 94013MET018TEMPO 5000 5ST008?
0102039620999991988010306304+52700-008917FM-15+0020EINN V0202801N01181220001CN0112001N1+00801+00501999999ADDAG12999GA1011+003009079GA2041+005409099MA1098311999999MW1251REMMET030TEMPO 5000       ?     5ST008?
0169039620999991988010307004+52700-008917SY-MT+0020EINN V0202701N01081005401CN0100001N1+00781+00561098431ADDAG12001AY181011AY221011GA1011+001509079GA2061+005409099GF107991071031001501999999MA1098411999999MD1310271+9999MW1801REMSYN017333   81705 86918MET018TEMPO 5000 5ST008?
0169039620999991988010308004+52700-008917SY-MT+0020EINN V0202701N00931005401CN0150001N1+00791+00551098531ADDAG12999AY181021AY221021GA1021+002409079GA2051+005409099GF107991071031002501999999MA1098511999999MD1210341+9999MW1251REMSYN017333   82708 85918MET018TEMPO 5000 5ST008?
0106039620999991988010308304+52700-008917FM-15+0020EINN V0202701N00981004201CN0112001N1+00801+00601999999ADDAG12004GA1031+002409079GA2041+004209079GA3051+005409099MA1098511999999MW1801REMMET018TEMPO 5000 5ST008?
0169039620999991988010309004+52700-008917SY-MT+0020EINN V0202801N00931005401CN0150001N1+00851+00591098671ADDAG12001AY181031AY221031GA1011+003009079GA2051+005409099GF107991061091004501001031MA1098611999999MD1210391+9999MW1251REMSYN017333   81710 85918MET018TEMPO 7000 5ST008?
0102039620999991988010309304+52700-008917FM-15+0020EINN V0202801N01181005401CN0112001N1+00801+00601999999ADDAG12999GA1031+002409079GA2051+005409099MA1098821999999MW1801REMMET030TEMPO 7000       ?     5ST008?
0162039620999991988010310004+52700-008917SY-MT+0020EINN V0202901N00871005401CN0200001N1+00771+00531098871ADDAG12999AY181011AY221011GA1021+002409079GA2051+005409099GF107991071091002501061999MA1098821999999MD1310441+9999MW1251REMSYN017333   82708 85918MET011INTER 7000?
0083039620999991988010310304+52700-008917FM-15+0020EINN V0203001N00881005401CN0112001N1+00701+00501999999ADDAG12999GA1021+002409079GA2041+005409099MA1098921999999MW1251REMMET011INTER 7000?
0203039620999991988010311004+52700-008917SY-MT+0020EINN V0202901N01081005401CN0200001N1+00801+00561099031ADDAG12001AY181021AY221021GA1021+003009079GA2041+005409099GA3051+009009059GF107991071091004501999999MA1098981999999MD1210501+9999MW1251OC101651REMSYN023333   82710 84918 85630MET022INTER      ?     7000?
0219039620999991988010312004+52700-008917SY-MT+0020EINN V0202701N00981006601CN0200001N1+00841+00451099151ADDAA106001091AG10001AY181061AY221061GA1031+004509079GA2041+006609099GA3031+024009039GF107991051031004501061999MA1099091999999MD1210481+9999MW1251REMSYN017333   83715 84922MET022TEMPO      ?     7000?EQDQ01+000000PRSWM2
0091039620999991988010312304+52700-008917FM-15+0020EINN V0202801N00881220001CN0112001N1+00901+00401999999ADDAG12999GA1011+004509079GA2031+006009099MA1099091999999MW1251OC101391REMMET011INTER 7000?
0173039620999991988010313004+52700-008917SY-MT+0020EINN V0202801N01081009001CN0200001N1+00941+00501099221ADDAG12999GA1011+004509079GA2031+006009089GF105991051081004501999999MA1099191999999MD1110351+9999MW1001OC101601REMSYN017333   81715 83820MET011INTER 7000?EQDQ01+000000PRSWM2
0091039620999991988010313304+52700-008917FM-15+0020EINN V0202901N01541005401CN0112001N1+00801+00301999999ADDAG12999GA1031+002409079GA2061+005409099MA1099191999999MW1801OC102321REMMET011INTER 7000?
0165039620999991988010314004+52700-008917SY-MT+0020EINN V0202701N01081220001CN0250001N1+00851+00391099251ADDAG12001AY181021AY211021GA1041+006009099GF104991041031008001001001MA1099191999999MD1110221+9999MW1251OA149902261OC101651REMSYN017333   84920 91144MET011INTER 7000?
0075039620999991988010314304+52700-008917FM-15+0020EINN V0202701N01181220001CN0112001N1+00801+00301999999ADDAG12004GA1041+006009099MA1099191999999MW1801OC101701REMMET011INTER 7000?
0157039620999991988010315004+52700-008917SY-MT+0020EINN V0202701N00871220001CN0250001N1+00761+00361099261ADDAG12001AY181031AY211031GA1031+006009099GF103991031091008001001001MA1099191999999MD1110111+9999MW1251OA149902261REMSYN017333   83920 91144MET011INTER 7000?
0067039620999991988010315304+52700-008917FM-15+0020EINN V0202601N00981220001CN0112001N1+00701+00301999999ADDAG12999GA1031+006009099MA1099191999999MW1251REMMET011INTER 7000?
0170039620999991988010316004+52700-008917SY-MT+0020EINN V0202601N00821006001CN0300001N1+00661+00221099301ADDAG12001AY191011AY281011GA1051+006009099GF106991051091008001999031MA1099291999999MD1210081+9999MW1921OA149901801REMSYN023333   85920 83070 91135MET018TEMPO 6000 6CB015?
0081039620999991988010316304+52700-008917FM-15+0020EINN V0202601N00571005401CN0112001N1+00501+00301999999ADDAG12999GA1051+005409099MA1099291999999MW1291REMMET025TEMPO 6000 6CB018      ??
0179039620999991988010317004+52700-008917SY-MT+0020EINN V0202601N00571013501CN0300001N1+00571+00251099261ADDAG12999AY181021AY211021GA1011+006009099GA2031+006009089GA3031+013509059GF105991051091008001999031MA1099191999999MD1010011+9999MW1251REMSYN023333   81920 83820 83645MET006NOSIG?
0078039620999991988010317304+52700-008917FM-15+0020EINN V0202601N00461220001CN0112001N1+00601+00301999999ADDAG12001GA1011+004509079GA2021+006009099MA1099191999999MW1251REMMET006NOSIG?
0245039620999991988010318004+52700-008917SY-MT+0020EINN V0202801N00411010501CN0250001N1+00641+00331099221ADDAA199002091AG10002AY191061AY281061GA1011+004509079GA2031+006009099GA3061+010509059GF107991071031004501999999KA1120M+00941MA1099191999999MD1810051+9999MW1031OA149902261REMSYN035333   10094 81715 83920 86635 91144MET006NOSIG?EQDQ01+000000PRSWM2
0107039620999991988010318304+52700-008917FM-15+0020EINN V0202201N00311075001CN0112001N1+00601+00301999999ADDAG12999GA1021+010509059GA2031+030009039GA3071+075009029MA1099091999999REMMET006NOSIG?EQDQ01+000000PRSWM2
0150039620999991988010319004+52700-008917SY-MT+0020EINN V0202101N00461015001CN0250001N1+00571+00231099071ADDAG12999GA1061+015009059GF107991061051017501999061MA1098981999999MD1810241+9999MW1001REMSYN017333   86650 87275MET012CAVOK NOSIG?EQDQ01+000000PRSWM2
0131039620999991988010319304+52700-008917FM-15+0020EINN V0202101N00411009901CN0112001N1+00601+00201999999ADDAG12999GA1021+006009099GA2031+009909059GA3071+060009029MA1098981999999REMMET030GRADU 8000       ?     5ST012?EQDQ01+000000PRSWM2
0206039620999991988010320004+52700-008917SY-MT+0020EINN V0201601N00511060001CN0250001N1+00591+00191098991ADDAG12999GA1011+006009099GA2041+010509059GA3071+060009029GF107991051031008001001071MA1098921999999MD1710281+9999MW1001REMSYN023333   81920 84635 87270MET030GRADU 8000       ?     5ST012?EQDQ01+000000PRSWM2
0119039620999991988010320304+52700-008917FM-15+0020EINN V0202201N00411024001CN0112001N1+00601+00101999999ADDAG12000GA1011+006009099GA2031+010509059GA3071+024009049MA1098821999999REMMET018GRADU 8000 5ST012?EQDQ01+000000PRSWM2
0169039620999991988010321004+52700-008917SY-MT+0020EINN V0201701N00411015001CN0250001N1+00581+00261098811ADDAG12001AY161031AY221031GA1031+009009059GA2071+015009059GF108991081051012501999999MA1098821999999MD1710411+9999MW1601REMSYN017333   83630 87650MET018GRADU 8000 5ST012?
0090039620999991988010321304+52700-008917FM-15+0020EINN V0201501N00411015001CN0112001N1+00601+00301999999ADDAG12999GA1031+009009059GA2071+015009059MA1098711999999MW1601REMMET018GRADU 8000 5ST012?
0195039620999991988010322004+52700-008917SY-MT+0020EINN V0201501N00511015001CN0200001N1+00581+00261098621ADDAG12999AY161011AY261011GA1031+009009059GA2081+015009059GF108991081051012501999999GJ100909MA1098611999999MD1710441+9999MW1611REMSYN023333   83630 88650 94015MET030GRADU 8000       ?     5ST012?
0090039620999991988010322304+52700-008917FM-15+0020EINN V0201401N00411015001CN0112001N1+00501+00201999999ADDAG12999GA1021+003609079GA2081+015009049MA1098511999999MW1611REMMET018GRADU 8000 5ST010?
0169039620999991988010323004+52700-008917SY-MT+0020EINN V0201101N00261015001CN0100001N1+00481+00331098431ADDAG12999AY161021AY261021GA1031+004209079GA2081+015009049GF108991031061004501021999MA1098411999999MD1710551+9999MW1631REMSYN017333   83714 88550MET018GRADU 8000 5ST010?
0090039620999991988010323304+52700-008917FM-15+0020EINN V0201201N00461003601CN0112001N1+00501+00401999999ADDAG12007GA1061+003609079GA2081+010509049MA1098311999999MW1611REMMET018GRADU 8000 5ST010?
0214039620999991988010400004+52700-008917SY-MT+0020EINN V0201201N00721012001CN0200001N1+00481+00361098251ADDAA106002091AG10001AY161061AY221061GA1011+003609079GA2041+005109079GA3061+012009059GF107991071061004501999999MA1098211999999MD1710551+9999MW1211REMSYN023333   81712 85717 86640MET030TEMPO 8000       ?     5ST010?
0118039620999991988010400304+52700-008917FM-15+0020EINN V0201601N00671004501CN0112001N1+00501+00401999999ADDAG11999GA1031+003009079GA2031+004509079GA3071+009009059MA1098101999999MW1601REMMET030TEMPO 8000       ?     5ST010?
0203039620999991988010401004+52700-008917SY-MT+0020EINN V0201701N00671004501CN0120001N1+00581+00391098081ADDAG12999AY161011AY221011GA1031+003009079GA2031+004509079GA3071+009009059GF108991081061004501999999MA1098001999999MD1710541+9999MW1601REMSYN023333   83710 83715 87630MET030TEMPO 8000       ?     5ST010?
0094039620999991988010401304+52700-008917FM-15+0020EINN V0202601N01081009001CN0112001N1+00801+00401999999ADDAG11999GA1011+003609079GA2031+006009089GA3061+009009059MA1098001999999MW1211REMMET006NOSIG?
0165039620999991988010402004+52700-008917SY-MT+0020EINN V0202501N01081009001CN0200001N1+00731+00251098031ADDAG12001AY161021AY221021GA1011+003609079GA2031+007509089GF106991061081004501999999MA1098001999999MD1610401+9999MW1211OC101601REMSYN017333   81712 83825MET006NOSIG?
0075039620999991988010402304+52700-008917FM-15+0020EINN V0202501N00981220001CN0112001N1+00801+00401999999ADDAG12000GA1011+004509079MA1098001999999REMMET006NOSIG?EQDQ01+000000PRSWM2
0193039620999991988010403004+52700-008917SY-MT+0020EINN V0202501N01081220001CN0200001N1+00801+00301098041ADDAG12001AY161031AY211031GA1011+004509079GA2031+007509089GF104991041081004501001001MA1098001999999MD1610211+9999MW1011OA149901801REMSYN023333   81715 83825 91135MET006NOSIG?EQDQ01+000000PRSWM2
0086039620999991988010403304+52700-008917FM-15+0020EINN V0202401N01241220001CN0112001N1+00801+00401999999ADDAG12999GA1011+003909079GA2041+006009089MA1098001999999MW1801OC101851REMMET006NOSIG?
0177039620999991988010404004+52700-008917SY-MT+0020EINN V0202501N01081007501CN0200001N1+00771+00401098031ADDAG12001AY181011AY221011GA1021+006009099GF105991051031008001999999MA1098001999999MD1610051+9999MW1251OA149901851REMSYN023333   82920 82820 91136MET025TEMPO 8000 4ST012 6CB018?
0081039620999991988010404304+52700-008917FM-15+0020EINN V0202501N01081220001CN0112001N1+00801+00301999999ADDAG12999GA1031+006009099MA1098001999999MW1251REMMET025TEMPO 8000 4ST012 6CB018?
0198039620999991988010405004+52700-008917SY-MT+0020EINN V0202401N01081015001CN0200001N1+00791+00421098011ADDAG12999AY181021AY221021GA1011+003609079GA2031+006009099GA3051+015009059GF107991071031004501999999MA1098001999999MD1810021+9999MW1251REMSYN023333   81712 83920 85650MET025TEMPO 8000 4ST012 6CB018?
0113039620999991988010405304+52700-008917FM-15+0020EINN V0202401N01081008401CN0112001N1+00701+00401999999ADDAG12001GA1021+006009099GA2031+008409059GA3051+060009009MA1098001999999MW1251REMMET025TEMPO 8000 4ST012 6CB018?
0291039620999991988010406004+52700-008917SY-MT+0020EINN V0202301N00871009601CN0200001N1+00691+00361098021ADDAA199004091AG10001AY181061AY261061GA1011+003609079GA2031+006009099GA3051+009609059GF107991071031004501999999GJ100909IA1099IA2999+00109KA1120N+00401MA1098001999999MD1510021+9999MW1251OA149902061OC101441REMSYN047333   20040 31001 81712 83920 85632 91140 94015MET025TEMPO 8000 4ST012 6CB018?
0105039620999991988010406304+52700-008917FM-15+0020EINN V0202301N00981006001CN0112001N1+00701+00401999999ADDAG12999GA1031+003009079GA2051+006009099MA1097901999999MW1801OC101651REMMET025TEMPO 8000 4ST012 6CB018?
0193039620999991988010407004+52700-008917SY-MT+0020EINN V0202501N01031006001CN0200001N1+00681+00541098001ADDAG12001AY181011AY281011GA1021+003609079GA2031+006009099GF106991061031004501999999MA1098001999999MD1810031+9999MW1801OA149902161REMSYN023333   82712 83920 91142MET025TEMPO 8000 4ST010 6CB018?
0201039620999991988010408004+52700-008917SY-MT+0020EINN V0202301N01131006001CN0120001N1+00681+00351097911ADDAG12001AY181021AY281021GA1031+003009079GA2051+006009099GF107991071031004501999999MA1097901999999MD1810101+9999MW1801OA149902161OC101651REMSYN023333   83710 85920 91142MET025TEMPO 8000 4ST010 6CB018?
0193039620999991988010409004+52700-008917SY-MT+0020EINN V0202301N00871006001CN0140001N1+00691+00411097841ADDAG12002AY181031AY281031GA1031+003009079GA2051+006009099GF107991071031004501999999MA1097801999999MD1710181+9999MW1801OA149902161REMSYN023333   83710 85920 91142MET025TEMPO 8000 4ST010 5CB018?
0215039620999991988010410004+52700-008917SY-MT+0020EINN V0202301N01131003301CN0050001N1+00721+00441097801ADDAG12001AY181011AY221011GA1021+001809079GA2041+003309079GA3061+005409099GF107991071031002501999999MA1097801999999MD1710201+9999MW1801OA149901851REMSYN029333   82706 84711 86918 91136MET025GARDU 9999 2ST011 5CB020?
0207039620999991988010411004+52700-008917SY-MT+0020EINN V0202401N01081006301CN0090001N1+00741+00511097761ADDAG12001AY181021AY221021GA1011+001809079GA2031+003309079GA3061+006309099GF107991071031002501999999MA1097701999999MD1610151+9999MW1801OA149901851REMSYN035333   81706 83711 86921 91136 97470MET011TEMPO 5000?
0196039620999991988010412004+52700-008917SY-MT+0020EINN V0203101N00571006301CN0200001N1+00661+00501097971ADDAA106007091AG10001AY181061AY221061GA1011+002709079GA2041+006309099GF107991071091002501999999MA1097901999999MD1310131+9999MW1271OA149902161REMSYN029333   81709 84921 91142 99720MET011TEMPO 5000?
0091039620999991988010412304+52700-008917FM-15+0020EINN V0202701N00881220001CN0112001N1+00701+00401999999ADDAG12999GA1011+003309079GA2041+006009099MA1098211999999MW1251OC101391REMMET011TEMPO 5000?
0130039620999991988010413004+52700-008917FM-12+0020EINN V0202801N00871006001CN0400001N9+00731+00451098361ADDAG12999AY181011AY221011GA1011+004209079GA2041+006009099GF106991061091004501001001MD1310561+9999MW1251REMSYN017333   81714 84920
0160039620999991988010414004+52700-008917SY-MT+0020EINN V0202801N00931220001CN0300001N1+00741+00361098611ADDAG12999GA1011+005409089GA2031+007509059GF104991041081004501001001MA1098611999999MD1210851+9999MW1001REMSYN017333   81818 83625MET006NOSIG?EQDQ01+000000PRSWM2
0091039620999991988010414304+52700-008917FM-15+0020EINN V0202901N00671220001CN0112001N1+00801+00301999999ADDAG12000GA1011+005709089GA2031+007809059MA1098711999999REMMET006NOSIG?EQDQ01+000000PRSWM2
0176039620999991988010415004+52700-008917SY-MT+0020EINN V0202901N00771220001CN0400001N1+00711+00281098761ADDAG12001AY181031AY211031GA1011+005709089GA2031+007809059GF104991041081004501001001MA1098711999999MD1210791+9999MW1011REMSYN017333   81819 83626MET006NOSIG?EQDQ01+000000PRSWM2
0138039620999991988010416004+52700-008917SY-MT+0020EINN V0203001N00461220001CN0300001N1+00571+00281098961ADDAG12001GA1011+006009089GF101991011081008001001001MA1098921999999MD1210601+9999MW1001REMSYN011333   81820MET006NOSIG?EQDQ01+000000PRSWM2
0138039620999991988010417004+52700-008917SY-MT+0020EINN V0203401N00261220001CN0300001N1+00491+00211099061ADDAG12999GA1011+006009089GF101991011081008001001001MA1098981999999MD1210451+9999MW1001REMSYN011333   81820MET006NOSIG?EQDQ01+000000PRSWM2
0214039620999991988010418004+52700-008917SY-MT+0020EINN V0201601N00261220001CN0300001N1+00461+00241099081ADDAA199007091AG10001AY181061AY201061GA1011+006009099GF101991011091008001001001KA1120M+00811MA1098981999999MD1110321+9999MW1021REMSYN017333   10081 81920MET036TEMPO      ?     800 0 ST012 5CB018?EQDQ01+000000PRSWM2
0094039620999991988010418304+52700-008917FM-15+0020EINN V0201601N00211220001CN0112001N1+00401+00201999999ADDAG12999GA1011+006009099MA1098981999999REMMET025TEMPO 8000 3ST012 5CB020?EQDQ01+000000PRSWM2
0176039620999991988010419004+52700-008917SY-MT+0020EINN V0201701N00361010501CN0200001N1+00461+00261099101ADDAG12001AY181011AY211011GA1031+006009099GA2041+010509059GF107991071091008001999999MA1099091999999MD1110141+9999MW1801REMSYN017333   83920 84635MET025TEMPO 8000 3ST012 5CB018?
0097039620999991988010419304+52700-008917FM-15+0020EINN V0201501N00361010501CN0112001N1+00501+00301999999ADDAG12999GA1031+006909099GA2031+010509059MA1099091999999MW1251REMMET025TEMPO 8000 3ST012 5CB018?
0170039620999991988010420004+52700-008917SY-MT+0020EINN V0201801N00411006301CN0200001N1+00491+00291099111ADDAG12999AY181021AY221021GA1021+002409079GA2051+006309099GF107991071091002501999999MA1099091999999MD1110051+9999MW1801OC101031REMSYN017333   82708 85921MET011TEMPO 8000?
0081039620999991988010420304+52700-008917FM-15+0020EINN V0201701N00361220001CN0112001N1+00501+00301999999ADDAG12001GA1011+006309099MA1098981999999MW1251REMMET025TEMPO 8000 3ST012 5CB018?
0181039620999991988010421004+52700-008917SY-MT+0020EINN V0202001N00511006001CN0200001N1+00531+00311099101ADDAG12002AY181031AY221031GA1021+002709079GA2061+006009099GF107991071091002501999999MA1099091999999MD1010021+9999MW1801REMSYN017333   82709 86920MET011TEMPO 8000?EQDQ01+000000PRSWM2
0097039620999991988010421304+52700-008917FM-15+0020EINN V0202001N00411011401CN0112001N1+00601+00301999999ADDAG12999GA1031+005409099GA2051+011409059MA1099091999999MW1251REMMET025TEMPO 8000 3ST012 5CB018?
0168039620999991988010422004+52700-008917SY-MT+0020EINN V0201901N00211220001CN0300001N1+00521+00321099051ADDAG12999AY181011AY211011GA1011+006009099GF103991031031008001001001GJ101389MA1098981999999MD1810051+9999MW1251REMSYN017333   81920 94023MET025TEMPO 8000 3ST012 5CB018?
0100039620999991988010422304+52700-008917FM-15+0020EINN V0201501N00361220001CN0112001N1+00501+00301999999ADDAG12999GA1011+006009099MA1098981999999REMMET031TEMPO 8000 3ST012 5CB018     ??EQDQ01+000000PRSWM2
0146039620999991988010423004+52700-008917SY-MT+0020EINN V0201601N00461220001CN0300001N1+00441+00261099011ADDAG12999GA1011+006009099GF102991021091008001001001MA1098981999999MD1810101+9999MW1001REMSYN011333   81920MET014TEMPO  5CB018?EQDQ01+000000PRSWM2
0082039620999991988010423304+52700-008917FM-15+0020EINN V0201501N00411220001CN0112001N1+00401+00201999999ADDAG11000GA1011+006009099MA1098921999999REMMET013TEMPO 5CB018?EQDQ01+000000PRSWM2
0119039620999991988010500004+52700-008917FM-12+0020EINN V0201501N00461220001CN0300001N9+00391+00241098931ADDAA106000591AG10001AY181061AY211061GA1011+006009099GF101991011091008001001001MD1810171+9999MW1011REMSYN011333   81920
0082039620999991988010500304+52700-008917FM-15+0020EINN V0201601N00671220001CN0112001N1+00401+00201999999ADDAG11999GA1011+006009099MA1098921999999REMMET013TEMPO 5CB018?EQDQ01+000000PRSWM2
0183039620999991988010501004+52700-008917SY-MT+0020EINN V0201601N00621220001CN0300001N1+00431+00121098891ADDAG11001GA1011+006009099GA2031+015009059GF103991031031008001999001MA1098821999999MD1710161+9999MW1001REMSYN017333   81920 83650MET013TEMPO 5CB018?EQDQ01+000000PRSWM2Q02    003SCOMCG
0098039620999991988010501304+52700-008917FM-15+0020EINN V0201701N00511015001CN0112001N1+00501+00101999999ADDAG11999GA1011+006009099GA2051+015009059MA1098821999999REMMET013TEMPO 5CB018?EQDQ01+000000PRSWM2
0189039620999991988010502004+52700-008917SY-MT+0020EINN V0201901N00771015001CN0200001N1+00531+00121098851ADDAG12001AY181021AY211021GA1031+006009099GA2031+015009059GF105991051031008001999001MA1098821999999MD1710171+9999MW1251REMSYN017333   83920 83650MET019TEMPO 5CB018     ??EQDQ01    003SCOMCG
0091039620999991988010502304+52700-008917FM-15+0020EINN V0201901N00621015001CN0112001N1+00601+00201999999ADDAG11001GA1011+006009099GA2051+015009059MA1098821999999MW1251REMMET019TEMPO 5CB018     ??
0161039620999991988010503004+52700-008917SY-MT+0020EINN V0202001N00511220001CN0300001N1+00601+00311098921ADDAG12001AY181031AY211031GA1021+006009099GF103991031031008001001001MA1098921999999MD1510021+9999MW1011REMSYN011333   82920MET013TEMPO 5CB018?EQDQ01+000000PRSWM2
0069039620999991988010503304+52700-008917FM-15+0020EINN V0202301N00671220001CN0112001N1+00701+00401999999ADDAG12999GA1031+006609099MA1098921999999MW1251REMMET013TEMPO 5CB018?
0135039620999991988010504004+52700-008917SY-MT+0020EINN V0202101N00571220001CN0300001N1+00581+00311098931ADDAG12999AY181011AY211011GA1011+006609099GF102991021031008001001001MA1098921999999MD1310031+9999MW1251REMSYN011333   81922MET006NOSIG?
0091039620999991988010504304+52700-008917FM-15+0020EINN V0202301N00361220001CN0112001N1+00601+00301999999ADDAG12999GA1011+006609099GA2041+010509059MA1098921999999REMMET006NOSIG?EQDQ01+000000PRSWM2
0160039620999991988010505004+52700-008917SY-MT+0020EINN V0202401N00261012001CN0300001N1+00581+00341098931ADDAG12999GA1021+006009089GA2041+012009059GF105991051081008001001001MA1098921999999MD1110081+9999MW1001REMSYN017333   82820 84640MET006NOSIG?EQDQ01+000000PRSWM2
0114039620999991988010505304+52700-008917FM-15+0020EINN V0202301N00261004501CN0112001N1+00601+00401999999ADDAG12000GA1021+002409079GA2041+004509079GA3051+007509059MA1098921999999REMMET013TEMPO 4ST010?EQDQ01+000000PRSWM2
0225039620999991988010506004+52700-008917SY-MT+0020EINN V0202101N00311003601CN0300001N1+00611+00371098951ADDAA199000591AG10001AY181061AY251061GA1051+003609079GA2051+007509059GF107991071061004501999999GJ101389IA1099IA2999-00209KA1120N+00351MA1098921999999MD1210031+9999MW1201REMSYN035333   20035 31102 85712 85625 94023MET006NOSIG?
0145039620999991988010507004+52700-008917SY-MT+0020EINN V0202101N00261220001CN0300001N1+00511+00311098911ADDAG12999GA1011+003309079GF101991011061004501001001MA1098921999999MD1810021+9999MW1001REMSYN011333   81711MET013TEMPO 4ST011?EQDQ01+000000PRSWM2
0167039620999991988010508004+52700-008917SY-MT+0020EINN V0201901N00311220001CN0300001N1+00481+00281098991ADDAG12001GA1011+003909079GA2031+030009039GF103991011061004501031001MA1098921999999MD1310061+9999MW1001REMSYN017333   81713 83360MET013TEMPO 4ST011?EQDQ01+000000PRSWM2
0098039620999991988010508304+52700-008917FM-15+0020EINN V0202001N00211060001CN0112001N1+00501+00301999999ADDAG12000GA1011+003909079GA2051+060009009MA1098981999999REMMET013TEMPO 4ST011?EQDQ01+000000PRSWM2
0167039620999991988010509004+52700-008917SY-MT+0020EINN V0202101N00151060001CN0500001N1+00441+00291098981ADDAG12000GA1011+004509079GA2051+060009009GF106991011081004501031021MA1098921999999MD1010031+9999MW1001REMSYN017333   81715 85070MET013TEMPO 4ST011?EQDQ01+000000PRSWM2
0130039620999991988010510004+52700-008917FM-12+0020EINN V0200501N00211030001CN0400001N9+00311+00181098991ADDAG12999GA1011+004509079GA2061+030009049GA3051+060009009GF107991011051004501021021MD1210081+9999REMSYN023333   81715 86460 85070
0205039620999991988010511004+52700-008917SY-MT+0020EINN V0200401N00151030001CN0100001N1+00401+00301098951ADDAG12001GA1011+000609079GA2031+012009059GA3071+030009049GF107991031051000751021021MA1098921999999MD1810041+9999MW1001REMSYN041333   81702 83640 87460 97175 97275 97375MET011TEMPO 1500?EQDQ01+000000PRSWM2
0217039620999991988010512004+52700-008917SY-MT+0020EINN V0201101N00261030001CN0120001N1+00441+00321098931ADDAA106000091AG14000GA1011+002109079GA2031+009009059GA3071+030009049GF108991061051002501021999MA1098921999999MD1710051+9999MW1001REMSYN035333   81707 83630 87460 97175 97375MET018TEMPO 8000 5ST015?EQDQ01+000000PRSWM2
0239039620999991988010513004+52700-008917SY-MT+0020EINN V0201801N00151015001CN0080001N1+00481+00311098951ADDAG12001AY121011AY221011GA1011+002109079GA2051+015009059GA3081+024009049GF108991051051002501021999MA1098921999999MD1510041+9999MW1101REMSYN041333   81707 85650 88458 97168 97262 97362MET048VIS        ?     9999 TO  NE SE SW TEMPO 5ST015?
0227039620999991988010514004+52700-008917SY-MT+0020EINN V0201901N00361003601CN0060001N1+00461+00341098911ADDAG12001AY161021AY221021GA1021+002109079GA2041+003609079GA3071+006009059GF108991081061002501999999MA1098921999999MD1710041+9999MW1601REMSYN029333   82707 84712 87620 97262MET04810KM       ?     TO SE GRADU 9999 2ST012 3CU020?
0186039620999991988010515004+52700-008917SY-MT+0020EINN V0201101N00411004501CN0120001N1+00491+00341098821ADDAG12001AY161031AY221031GA1021+002409079GA2051+004509079GA3051+012009059GF107991071061002501999021MA1098821999999MD1710101+9999MW1601REMSYN023333   82708 85715 85640MET013GRADU 5SC020?
0186039620999991988010516004+52700-008917SY-MT+0020EINN V0201001N00511007501CN0160001N1+00431+00311098781ADDAG12001AY151011AY221011GA1011+002409079GA2031+003609079GA3051+007509059GF107991071061002501999999MA1098711999999MD1610171+9999MW1211REMSYN023333   81708 83712 85625MET013GRADU 5SC020?
0130039620999991988010517004+52700-008917FM-12+0020EINN V0201001N00571006001CN0160001N9+00401+00251098761ADDAG12999GA1021+003009079GA2041+006009059GA3051+012009059GF107991071051004501999999MD1610151+9999REMSYN023333   82710 84620 85640
0206039620999991988010518004+52700-008917SY-MT+0020EINN V0200401N00151009001CN0160001N1+00351+00151098681ADDAA199001091AG10001AY161061AY221061GA1011+004509079GA2031+012009059GF105991051081004501001001KA1120M+00611MA1098611999999MD1710141+9999MW1011REMSYN023333   10061 81715 83640MET006NOSIG?EQDQ01+000000PRSWM2
0091039620999991988010518304+52700-008917FM-15+0020EINN V0200501N00101220001CN0112001N1+00301+00101999999ADDAG12999GA1011+006009089GA2031+012009059MA1098611999999REMMET006NOSIG?EQDQ01+000000PRSWM2
0160039620999991988010519004+52700-008917SY-MT+0020EINN V0200401N00151013501CN0200001N1+00311+00121098661ADDAG12001GA1021+005109079GA2031+013509059GF105991051081004501999999MA1098611999999MD1710111+9999MW1001REMSYN017333   82717 83645MET006NOSIG?EQDQ01+000000PRSWM2
0091039620999991988010519304+52700-008917FM-15+0020EINN V0200101N00151015001CN0112001N1+00301+00101999999ADDAG12999GA1021+006009089GA2041+015009059MA1098611999999REMMET006NOSIG?EQDQ01+000000PRSWM2
0198039620999991988010520004+52700-008917SY-MT+0020EINN V0200101N00211060001CN0200001N1+00221+00061098591ADDAG12001GA1011+006009089GA2031+015009059GA3051+060009009GF105991031081008001999021MA1098511999999MD1710161+9999MW1001REMSYN023333   81820 83650 85070MET006NOSIG?EQDQ01+000000PRSWM2Q02    003SCOMCG
0107039620999991988010520304+52700-008917FM-15+0020EINN V0200301N00151060001CN0112001N1+00201+00001999999ADDAG12000GA1011+006009089GA2031+015009059GA3051+060009009MA1098511999999REMMET006NOSIG?EQDQ01+000000PRSWM2
0204039620999991988010521004+52700-008917SY-MT+0020EINN V0200101N00311060001CN0200001N1+00161+00061098511ADDAG12000GA1011+006009089GA2041+015009059GA3071+060009029GF107991041081008001999061MA1098511999999MD1810171+9999MW1001REMSYN029333   81820 84650 87270 92000MET006NOSIG?EQDQ01+000000PRSWM2Q02    003SCOMCG
0107039620999991988010521304+52700-008917FM-15+0020EINN V0200201N00311060001CN0112001N1+00201+00101999999ADDAG12999GA1011+006009059GA2031+015009059GA3081+060009029MA1098411999999REMMET006NOSIG?EQDQ01+000000PRSWM2
0218039620999991988010522004+52700-008917SY-MT+0020EINN V0200201N00411060001CN0200001N1+00221+00121098471ADDAG12999GA1031+001809079GA2031+015009059GA3081+060009029GF108991041061002501999071GJ100069MA1098411999999MD1610201+9999MW1001REMSYN035333   83706 83650 88270 92000 94001MET006NOSIG?EQDQ01+000000PRSWM2Q02    003SCOMCG
0107039620999991988010522304+52700-008917FM-15+0020EINN V0200301N00571015001CN0112001N1+00301+00101999999ADDAG12999GA1031+002409079GA2031+015009059GA3081+060009029MA1098411999999REMMET006NOSIG?EQDQ01+000000PRSWM2
0167039620999991988010523004+52700-008917SY-MT+0020EINN V0200101N00361002401CN0200001N1+00291+00161098361ADDAG12001GA1051+002409079GA2081+015009059GF108991081061002501999999MA1098311999999MD1710231+9999MW1001REMSYN017333   85708 88650MET013GRADU 3CU020?EQDQ01+000000PRSWM2
0098039620999991988010523304+52700-008917FM-15+0020EINN V0200101N00511002701CN0112001N1+00301+00201999999ADDAG11000GA1051+002709079GA2081+015009059MA1098311999999REMMET013GRADU 3CU020?EQDQ01+000000PRSWM2
0178039620999991988010600004+52700-008917SY-MT+0020EINN V0200101N00461002401CN0200001N1+00371+00221098361ADDAA106999929AG10000GA1051+002409079GA2081+015009059GF108991081061002501999999MA1098311999999MD1510151+9999MW1001REMSYN017333   85708 88650MET013GRADU 3CU020?EQDQ01+000000PRSWM2
0098039620999991988010600304+52700-008917FM-15+0020EINN V0200201N00511002401CN0112001N1+00401+00201999999ADDAG11999GA1071+002409079GA2081+015009059MA1098311999999REMMET013GRADU 3CU020?EQDQ01+000000PRSWM2
0195039620999991988010601004+52700-008917SY-MT+0020EINN V0203501N00511007501CN0200001N1+00371+00191098351ADDAG11001GA1031+003009079GA2031+007509059GA3071+015009059GF107991071051004501999999MA1098311999999MD1610111+9999MW1001REMSYN023333   83710 83625 87650MET019TEMPO 5ST008     ??EQDQ01+000000PRSWM2
0098039620999991988010601304+52700-008917FM-15+0020EINN V0203501N00671009001CN0112001N1+00301+00101999999ADDAG11999GA1031+002109079GA2081+009009059MA1098311999999REMMET013TEMPO 5ST008?EQDQ01+000000PRSWM2
0108039620999991988010602004+52700-008917FM-12+0020EINN V0203401N00621009601CN0180001N9+00261+00101098371ADDAG12999GA1021+002409079GA2071+009609059GF107991071051002501999999MD1310011+9999REMSYN017333   82708 87632
0136039620999991988010602304+52700-008917FM-15+0020EINN V0203301N00771024001CN0112001N1+99999+00101999999ADDAG12000GA1011+003009079GA2031+010509059GA3071+024009049MA1098311999999REMMET019TEMPO 5ST010     ??EQDQ01+029423ATOT  Q02+000000PRSWM2
0166039620999991988010603004+52700-008917SY-MT+0020EINN V0203401N00771075001CN0250001N1+00251+00011098421ADDAG12000GA1021+009009059GA2081+075009029GF108991021051012501001071MA1098411999999MD1310061+9999MW1001REMSYN023333   82630 88275 94720MET006NOSIG?EQDQ01+000000PRSWM2
0091039620999991988010603304+52700-008917FM-15+0020EINN V0203301N00461075001CN0112001N1+00301+00001999999ADDAG12999GA1021+003609079GA2081+075009029MA1098411999999REMMET006NOSIG?EQDQ01+000000PRSWM2
0166039620999991988010604004+52700-008917SY-MT+0020EINN V0203301N00621075001CN0300001N1+00261+00021098541ADDAG12999GA1021+003609079GA2081+075009029GF108991021061004501001071MA1098511999999MD1310191+9999MW1001REMSYN023333   82712 88275 94722MET006NOSIG?EQDQ01+000000PRSWM2
0091039620999991988010604304+52700-008917FM-15+0020EINN V0203301N00621075001CN0112001N1+00301+00001999999ADDAG12999GA1011+004209079GA2081+075009029MA1098511999999REMMET006NOSIG?EQDQ01+000000PRSWM2
0150039620999991988010605004+52700-008917SY-MT+0020EINN V0203301N00671060001CN0300001N1+00311+00041098611ADDAG12001GA1081+060009029GF108991001001999999001071MA1098611999999MD1210241+9999MW1001REMSYN017333   88270 94722MET012CAVOK NOSIG?EQDQ01+000000PRSWM2
0210039620999991988010606004+52700-008917SY-MT+0020EINN V0203301N00511060001CN0300001N1+00361+00131098761ADDAA199999929AG10000GA1081+060009029GF108991001001999999001071IA1099IA2999-00109KA1120N+00141MA1098711999999MD1210331+9999MW1001REMSYN035333   20014 31101 88270 94722 94001MET012CAVOK NOSIG?EQDQ01+000000PRSWM2
0065039620999991988010606304+52700-008917FM-15+0020EINN V0203201N00721999991CY0099001N1+00401+00101999999ADDAG12999MA1098821999999REMMET012CAVOK NOSIG?EQDQ01+000000PRSWM2
0156039620999991988010607004+52700-008917SY-MT+0020EINN V0203201N00511075001CN0300001N1+00401+00141098881ADDAG12001GA1011+030009039GF107991011001999999031071MA1098821999999MD1210341+9999MW1001REMSYN023333   81360 87270 94721MET012CAVOK NOSIG?EQDQ01+000000PRSWM2
0160039620999991988010608004+52700-008917SY-MT+0020EINN V0203101N00461060001CN0300001N1+00421+00101099031ADDAG12999GA1011+006009089GA2051+060009029GF105991011021008001001061MA1098981999999MD1210411+9999MW1001REMSYN017333   81820 85270MET006NOSIG?EQDQ01+000000PRSWM2
0160039620999991988010609004+52700-008917SY-MT+0020EINN V0202901N00311220001CN0300001N1+00391+00051099171ADDAG12000GA1011+006009089GA2031+060009009GF104991021081008001001021MA1099091999999MD1210411+9999MW1001REMSYN017333   81820 83070MET006NOSIG?EQDQ01+000000PRSWM2
0161039620999991988010610004+52700-008917SY-MT+0020EINN V0202801N00361220001CN0400001N1+00431+00091099291ADDAG12999GA1011+006009089GA2031+012009059GF104991031081008001001021MA1099191999999MD1210401+9999MW1001REMSYN017333   81820 83640MET007NO SIG?EQDQ01+000000PRSWM2
0161039620999991988010611004+52700-008917SY-MT+0020EINN V0202901N00311012001CN0400001N1+00611+00271099411ADDAG12999GA1021+006009089GA2031+012009059GF105991051081008001001021MA1099391999999MD1210381+9999MW1001REMSYN017333   82820 83640MET007NO SIG?EQDQ01+000000PRSWM2
0188039620999991988010612004+52700-008917SY-MT+0020EINN V0203101N00461012001CN0300001N1+00751+00411099491ADDAA106999929AG10001AY181061AY211061GA1031+007209089GA2031+012009059GF105991051081008001001001MA1099391999999MD1210331+9999MW1251REMSYN017333   83824 83640MET007NO SIG?EQDQ01+000000PRSWM2
0158039620999991988010613004+52700-008917SY-MT+0020EINN V0203101N00671006001CN0300001N1+00781+00411099561ADDAG12001AY181011AY211011GA1021+002409079GA2041+006009099GF105991051031002501001001MA1099491999999MD1210281+9999MW1801REMSYN017333   82708 84920MET007NO SIG?
0135039620999991988010614004+52700-008917SY-MT+0020EINN V0203101N00311220001CN0400001N1+00601+00361099761ADDAG12999AY181021AY221021GA1011+006009099GF101991011031008001001021MA1099701999999MD1210351+9999MW1251REMSYN011333   81920MET006NOSIG?
0154039620999991988010615004+52700-008917SY-MT+0020EINN V0203001N00621220001CN0400001N1+00701+00271099941ADDAG12001AY181031AY211031GA1021+006009089GF102991021081008001001021MA1099901999999MD1210441+9999MW1031REMSYN011333   82820MET006NOSIG?EQDQ01+000000PRSWM2
0138039620999991988010616004+52700-008917SY-MT+0020EINN V0203101N00571220001CN0300001N1+00551+00261100111ADDAG12001GA1021+006009099GF103991021091008001001021MA1100101999999MD1210541+9999MW1001REMSYN011333   82920MET006NOSIG?EQDQ01+000000PRSWM2
0157039620999991988010617004+52700-008917SY-MT+0020EINN V0203201N00721006001CN0250001N1+00551+00181100301ADDAG12001AY181021AY211021GA1021+004209079GA2061+006009099GF107991071031004501999999MA1100311999999MD1210551+9999MW1801REMSYN017333   82714 86920MET006NOSIG?
0078039620999991988010617304+52700-008917FM-15+0020EINN V0203201N00571006601CN0112001N1+00501+00201999999ADDAG12004GA1021+004509079GA2041+006609099MA1100411999999MW1801REMMET006NOSIG?
0209039620999991988010618004+52700-008917SY-MT+0020EINN V0203301N00621006001CN0200001N1+00541+00211100511ADDAA199000191AG10002AY181061AY211061GA1031+004509079GA2031+006009099GA3041+006009089GF107991071031004501999999KA1120M+00861MA1100511999999MD1210571+9999MW1801REMSYN029333   10086 83715 83920 84820MET006NOSIG?
0078039620999991988010618304+52700-008917FM-15+0020EINN V0203201N00621006601CN0112001N1+00501+00301999999ADDAG12001GA1021+004509079GA2041+006609099MA1100611999999MW1801REMMET006NOSIG?
0157039620999991988010619004+52700-008917SY-MT+0020EINN V0203101N00511220001CN0300001N1+00461+00261100661ADDAG12001AY181011AY211011GA1011+004509079GA2031+006609099GF103991031031004501001001MA1100611999999MD1210551+9999MW1251REMSYN017333   81715 83922MET006NOSIG?
0075039620999991988010619304+52700-008917FM-15+0020EINN V0203201N00571220001CN0112001N1+00501+00101999999ADDAG12999GA1011+006609099MA1100711999999REMMET006NOSIG?EQDQ01+000000PRSWM2
0138039620999991988010620004+52700-008917SY-MT+0020EINN V0203201N00461220001CN0300001N1+00411+00121100811ADDAG12999GA1011+006609099GF102991021031008001001001MA1100811999999MD1210501+9999MW1001REMSYN011333   81922MET006NOSIG?EQDQ01+000000PRSWM2
0075039620999991988010620304+52700-008917FM-15+0020EINN V0203101N00361220001CN0112001N1+00401+00201999999ADDAG12000GA1011+006609099MA1100811999999REMMET006NOSIG?EQDQ01+000000PRSWM2
0160039620999991988010621004+52700-008917SY-MT+0020EINN V0202801N00311220001CN0300001N1+00341+00131100931ADDAG12001AY181031AY211031GA1011+006609089GF101991011081008001001001MA1100911999999MD1210421+9999MW1011REMSYN017333   81822 92000MET006NOSIG?EQDQ01+000000PRSWM2
0091039620999991988010621304+52700-008917FM-15+0020EINN V0202801N00361220001CN0112001N1+00301+00101999999ADDAG12999GA1011+006609089GA2031+018009059MA1100911999999REMMET006NOSIG?EQDQ01+000000PRSWM2
0158039620999991988010622004+52700-008917SY-MT+0020EINN V0203101N00511220001CN0300001N1+00341-00071101051ADDAG12999GA1011+006609089GF101991011081008001001001GJ101449MA1101021999999MD1210391+9999MW1001REMSYN023333   81822 92000 94024MET006NOSIG?EQDQ01+000000PRSWM2
0075039620999991988010622304+52700-008917FM-15+0020EINN V0203101N00461220001CN0112001N1+00401+00001999999ADDAG12999GA1011+006609089MA1101081999999REMMET006NOSIG?EQDQ01+000000PRSWM2
0138039620999991988010623004+52700-008917SY-MT+0020EINN V0203301N00411220001CN0300001N1+00351-00031101151ADDAG12001GA1011+006609089GF102991021081008001001001MA1101081999999MD1210341+9999MW1001REMSYN011333   81822MET006NOSIG?EQDQ01+000000PRSWM2
0075039620999991988010623304+52700-008917FM-15+0020EINN V0203101N00361220001CN0112001N1+00201+00001999999ADDAG12000GA1011+007509089MA1101191999999REMMET006NOSIG?EQDQ01+000000PRSWM2
0203039620999991988010700004+52700-008917SY-MT+0020EINN V0203201N00311220001CN0300001N1+00251-00081101271ADDAA106000591AG10001AY181061AY201061GA1011+007509089GA2041+015009059GF104991041081008001999001MA1101191999999MD1210331+9999MW1031REMSYN017333   81825 84650MET006NOSIG?EQDQ01+000000PRSWM2Q02    003SCOMCG
0075039620999991988010700304+52700-008917FM-15+0020EINN V0203101N00211220001CN0112001N1+00301-00101999999ADDAG11999GA1021+009009059MA1101291999999REMMET006NOSIG?EQDQ01+000000PRSWM2
0138039620999991988010701004+52700-008917SY-MT+0020EINN V0202901N00461220001CN0300001N1+00201-00081101411ADDAG11001GA1021+009609059GF102991021051012501001001MA1101391999999MD1210351+9999MW1001REMSYN011333   82632MET006NOSIG?EQDQ01+000000PRSWM2
0075039620999991988010701304+52700-008917FM-15+0020EINN V0203001N00361220001CN0112001N1+00301-00201999999ADDAG12999GA1021+010509059MA1101391999999REMMET006NOSIG?EQDQ01+000000PRSWM2
0138039620999991988010702004+52700-008917SY-MT+0020EINN V0203001N00461220001CN0400001N1+00311-00081101471ADDAG12001GA1031+009009059GF103991031051012501001001MA1101391999999MD1210321+9999MW1001REMSYN011333   83630MET006NOSIG?EQDQ01+000000PRSWM2
0075039620999991988010702304+52700-008917FM-15+0020EINN V0203001N00411220001CN0112001N1+00301+00001999999ADDAG12000GA1011+009009059MA1101491999999REMMET006NOSIG?EQDQ01+000000PRSWM2
0144039620999991988010703004+52700-008917SY-MT+0020EINN V0203101N00361220001CN0400001N1+00261-00071101571ADDAG11000GA1011+009009059GF101991011051012501001001MA1101491999999MD1210311+9999MW1001REMSYN017333   81630 92001MET006NOSIG?EQDQ01+000000PRSWM2
0075039620999991988010703304+52700-008917FM-15+0020EINN V0200701N00211220001CN0112001N1+00201+00001999999ADDAG12999GA1011+009009059MA1101491999999REMMET006NOSIG?EQDQ01+000000PRSWM2
0128039620999991988010704004+52700-008917SY-MT+0020EINN V0202901N00361220001CN0400001N1+00131-00131101601ADDAG11001GF100991001001999999001001MA1101491999999MD1210191+9999MW1001REMSYN011333   92001MET012CAVOK NOSIG?EQDQ01+000000PRSWM2
0075039620999991988010704304+52700-008917FM-15+0020EINN V0203001N00261220001CN0112001N1+00101-00101999999ADDAG12999GA1011+009009059MA1101591999999REMMET006NOSIG?EQDQ01+000000PRSWM2
0144039620999991988010705004+52700-008917SY-MT+0020EINN V0203101N00101220001CN0400001N1+00121-00111101701ADDAG11999GA1021+012009059GF102991021051012501001001MA1101591999999MD1210221+9999MW1001REMSYN017333   82640 92011MET006NOSIG?EQDQ01+000000PRSWM2
0075039620999991988010705304+52700-008917FM-15+0020EINN V0203101N00101220001CN0112001N1+00101-00101999999ADDAG12000GA1041+012009059MA1101691999999REMMET006NOSIG?EQDQ01+000000PRSWM2
0212039620999991988010706004+52700-008917SY-MT+0020EINN V0209991C00001220001CN0400001N1+00091-00111101751ADDAA199000591AG10000GA1021+012009059GF102991021051012501001001GJ101449IA1019IA2999-00409KA1120N+00061MA1101691999999MD1210171+9999MW1001REMSYN035333   20006 30104 82640 92011 94024MET006NOSIG?EQDQ01+000000PRSWM2
0144039620999991988010707004+52700-008917SY-MT+0020EINN V0200701N00051220001CN0400001N1+00021-00191101811ADDAG12999GA1011+012009059GF101991011051012501001011MA1101801999999MD1210211+9999MW1001REMSYN017333   81640 92011MET006NOSIG?EQDQ01+000000PRSWM2
0144039620999991988010708004+52700-008917SY-MT+0020EINN V0201001N00101220001CN0600001N1+00041-00141101871ADDAG12999GA1021+012009059GF103991021051012501001011MA1101801999999MD1210171+9999MW1001REMSYN017333   82640 92011MET006NOSIG?EQDQ01+000000PRSWM2
0144039620999991988010709004+52700-008917SY-MT+0020EINN V0201201N00211220001CN0600001N1+00051-00121101891ADDAG12000GA1021+012009059GF104991021051012501031011MA1101801999999MD1110141+9999MW1001REMSYN017333   82640 92000MET006NOSIG?EQDQ01+000000PRSWM2
0166039620999991988010710004+52700-008917SY-MT+0020EINN V0201201N00311220001CN0600001N1+00051-00121101921ADDAG12001GA1011+007509089GA2031+075009009GF103991011021008001001021MA1101901999999MD1210111+9999MW1001REMSYN023333   81825 83075 92000MET006NOSIG?EQDQ01+000000PRSWM2
0166039620999991988010711004+52700-008917SY-MT+0020EINN V0201201N00411075001CN0500001N1+00201-00051101951ADDAG12999GA1011+007509089GA2051+075009009GF105991011011008001001021MA1101901999999MD1210081+9999MW1001REMSYN023333   81825 85075 92000MET006NOSIG?EQDQ01+000000PRSWM2
0161039620999991988010712004+52700-008917SY-MT+0020EINN V0201301N00411075001CN0500001N1+00221+00001101921ADDAA106999929AG10000GA1021+024009039GF107991021001999999031021MA1101901999999MD1010031+9999MW1001REMSYN017333   82358 86075MET012CAVOK NOSIG?EQDQ01+000000PRSWM2
0150039620999991988010713004+52700-008917SY-MT+0020EINN V0201301N00411024001CN0300001N1+00331+00121101851ADDAG12999GA1061+024009049GF107991061001999999071021MA1101801999999MD1810061+9999MW1001REMSYN017333   86458 86075MET012CAVOK NOSIG?EQDQ01+000000PRSWM2
0150039620999991988010714004+52700-008917SY-MT+0020EINN V0201401N00511030001CN0250001N1+00421+00161101721ADDAG12001GA1041+018009059GF107991041051017501031051MA1101691999999MD1710221+9999MW1001REMSYN017333   84656 85270MET012CAVOK NOSIG?EQDQ01+000000PRSWM2
0065039620999991988010714304+52700-008917FM-15+0020EINN V0201401N00511999991CY0099001N1+00501+00101999999ADDAG12000MA1101591999999REMMET012CAVOK NOSIG?EQDQ01+000000PRSWM2
0066039620999991988010715004+52700-008917FM-15+0020EINN V0201301N00571999991CY0099001N1+00501+00101999999ADDAG12000MA1101591999999REMMET013CAVOK BNOSIG?EQDQ01+000000PRSWM2
0065039620999991988010715304+52700-008917FM-15+0020EINN V0201401N00571999991CY0099001N1+00501+00101999999ADDAG12999MA1101591999999REMMET012CAVOK NOSIG?EQDQ01+000000PRSWM2
0065039620999991988010716004+52700-008917FM-15+0020EINN V0201301N00571999991CY0099001N1+00501+00101999999ADDAG12001MA1101591999999REMMET012CAVOK NOSIG?EQDQ01+000000PRSWM2
0212039620999991988010718004+52700-008917SY-MT+0020EINN V0201201N00571009001CN0300001N1+00611+00291101451ADDAA199999929AG10000GA1031+006609059GA2051+009009059GA3071+024009049GF108991051051008001071999KA1120M+00611MA1101391999999MD1710201+9999MW1001REMSYN029333   10061 83622 85630 87458MET006NOSIG?EQDQ01+000000PRSWM2
0198039620999991988010719004+52700-008917SY-MT+0020EINN V0201501N00621006901CN0200001N1+00731+00451101381ADDAG12999AY161011AY221011GA1041+004509079GA2061+006909059GA3081+024009049GF108991061061004501071999MA1101291999999MD1710221+9999MW1601REMSYN023333   84715 86623 88458MET025GRADU 8000 3ST012 8SC020?
0109039620999991988010719304+52700-008917FM-15+0020EINN V0201401N00771006001CN0112001N1+00801+00501999999ADDAG12999GA1041+004209079GA2081+006009059MA1101291999999MW1211REMMET037TEMPO 8000       ?     5ST006 8ST010?
0194039620999991988010720004+52700-008917SY-MT+0020EINN V0201401N00721002701CN0250001N1+00801+00581101251ADDAG12999AY161021AY221021GA1051+002709079GA2081+003609079GF108991081061002501999999MA1101191999999MD1810231+9999MW1211REMSYN017333   85709 88712MET043TEMPO 8000       ?     5ST006 9 EEE 8ST010?
0110039620999991988010720304+52700-008917FM-15+0020EINN V0201401N00621003901CN0112001N1+00801+00601999999ADDAG12000GA1031+002409079GA2071+003909079MA1101081999999REMMET025TEMPO 8000 5ST006 8ST010?EQDQ01+000000PRSWM2
0207039620999991988010721004+52700-008917SY-MT+0020EINN V0201401N00671003901CN0250001N1+00861+00691101171ADDAG12001AY161031AY221031GA1031+003009079GA2071+003909079GF108991081061004501999999MA1101081999999MD1710281+9999MW1021REMSYN017333   83710 87713MET037TEMPO 8000       ?     5ST006 8ST010?EQDQ01+000000PRSWM2
0126039620999991988010721304+52700-008917FM-15+0020EINN V0201501N00721003601CN0112001N1+00901+00701999999ADDAG12999GA1021+003009079GA2051+003609079GA3071+004809079MA1101021999999REMMET025TEMPO 8000 5ST006 8ST010?EQDQ01+000000PRSWM2
0179039620999991988010722004+52700-008917SY-MT+0020EINN V0201601N00671003601CN0250001N1+00931+00741101041ADDAG12001GA1051+003609079GA2081+004809079GF108991081061004501999999MA1101021999999MD1710341+9999MW1001REMSYN017333   85712 88716MET025TEMPO 8000 5ST006 8ST010?EQDQ01+000000PRSWM2
0109039620999991988010722304+52700-008917FM-15+0020EINN V0201501N00671003301CN0112001N1+00901+00801999999ADDAG12999GA1051+003309079GA2081+004509079MA1101021999999MW1601REMMET037TEMPO 8000       ?     5ST006 8ST010?
0130039620999991988010723004+52700-008917FM-12+0020EINN V0201501N00671003301CN0200001N9+00921+00781100911ADDAG12999AY161021AY221021GA1051+003309079GA2081+004509079GF108991081061004501999999MD1710341+9999MW1601REMSYN017333   85711 88715
0097039620999991988010723304+52700-008917FM-15+0020EINN V0201601N00821004201CN0112001N1+00901+00801999999ADDAG11007GA1031+003009079GA2081+004209079MA1100811999999MW1611REMMET025TEMPO 8000 5ST006 8ST010?
0209039620999991988010800004+52700-008917SY-MT+0020EINN V0201601N00821003001CN0120001N1+00951+00831100871ADDAA106002091AG10004AY161061AY221061GA1031+002109079GA2051+003009079GA3081+004809079GF108991081061002501999999MA1100811999999MD1710301+9999MW1631REMSYN023333   83707 85710 88716MET025TEMPO 8000 5ST006 8ST010?
0106039620999991988010800304+52700-008917FM-15+0020EINN V0201401N00571003001CN0112001N1+00901+00901999999ADDAG11999GA1021+002109079GA2041+003009079GA3061+004509079MA1100811999999MW1631REMMET018TEMPO 8000 5ST006?
0191039620999991988010801004+52700-008917SY-MT+0020EINN V0201301N00461002701CN0120001N1+00941+00861100811ADDAG12999AY161011AY261011GA1031+001809079GA2041+002709079GA3071+004509079GF108991081071002501999999MA1100811999999MD1710231+9999MW1611REMSYN023333   83706 84709 87715MET018TEMPO 8000 5ST006?
0106039620999991988010801304+52700-008917FM-15+0020EINN V0201301N00411002701CN0112001N1+00901+00901999999ADDAG11999GA1021+002109079GA2051+002709079GA3081+003909079MA1100711999999MW1601REMMET018TEMPO 8000 5ST006?
0160039620999991988010802004+52700-008917SY-MT+0020EINN V0201201N00361002101CN0250001N1+00941+00881100731ADDAG12999AY161021AY261021GA1051+002109079GA2081+003009079GF108991081071002501999999MA1100711999999MD1710181+9999MW1601REMSYN017333   85707 88710MET009MPO 8000?
0106039620999991988010802304+52700-008917FM-15+0020EINN V0201301N00361003001CN0112001N1+01001+00901999999ADDAG12003GA1031+002109079GA2051+003009079GA3081+004509079MA1100611999999MW1211REMMET018TEMPO 6000 5ST006?
0191039620999991988010803004+52700-008917SY-MT+0020EINN V0201301N00311002701CN0250001N1+00981+00901100681ADDAG12001AY161031AY221031GA1021+002109079GA2041+002709079GA3071+004809079GF108991081061002501999999MA1100611999999MD1710191+9999MW1211REMSYN023333   82707 84709 87716MET018TEMPO 8000 5ST007?
0103039620999991988010803304+52700-008917FM-15+0020EINN V0201601N00211003901CN0112001N1+01001+00901999999ADDAG12999GA1061+003909079GA2081+005409079MA1100611999999REMMET018TEMPO 8000 5ST007?EQDQ01+000000PRSWM2
0162039620999991988010804004+52700-008917SY-MT+0020EINN V0201801N00211002101CN0120001N1+00981+00901100681ADDAG12001AY151011AY221011GA1051+002109079GA2081+003909079GF108991081061002501999999MA1100611999999MD1610131+9999MW1501REMSYN017333   85707 88713MET011TEMPO 8000?
0140039620999991988010805004+52700-008917SY-MT+0020EINN V0201901N00151002101CN0200001N1+00981+00921100681ADDAG12999AY151021AY221021GA1081+002109079GF108991081061002501999999MA1100611999999MD1610051+9999MW1201REMSYN011333   88707MET011TEMPO 8000?
0227039620999991988010806004+52700-008917SY-MT+0020EINN V0202001N00151000901CN0200001N1+00981+00921100691ADDAA199004091AG10001AY161061AY251061GA1081+000909079GF108991081061001501999999GJ101269IA1099IA2999+00409KA1120N+00611MA1100611999999MD1210011+9999MW1021REMSYN029333   20061 31004 88703 94021MET011TEMPO 8000?EQDQ01+000000PRSWM2
0198039620999991988010807004+52700-008917SY-MT+0020EINN V0201901N00261000601CN0022001N1+00971+00891100721ADDAG12001AY151011AY221011GA1021+000309079GA2061+000609079GA3071+000909079GF108991081061000251999999MA1100711999999MD1310041+9999MW1501REMSYN023333   82701 86702 87703MET025TEMPO 8000 5ST003 8ST006?
0191039620999991988010808004+52700-008917SY-MT+0020EINN V0202001N00211001201CN0300001N1+00961+00881100721ADDAG12001AY151021AY221021GA1021+000909079GA2041+001209079GA3071+001809079GF108991081061001501999999MA1100711999999MD1110041+9999MW1201REMSYN023333   82703 84704 87706MET018TEMPO 5000 6ST003?
0210039620999991988010809004+52700-008917SY-MT+0020EINN V0201801N00211003601CN0300001N1+00911+00871100761ADDAG12000AY151031AY221031GA1021+002409079GA2041+003609079GA3061+005409079GF107991071061002501999999MA1100711999999MD1210071+9999MW1011REMSYN023333   82708 84712 86718MET018TEMPO 8000 5ST008?EQDQ01+000000PRSWM2
0182039620999991988010810004+52700-008917SY-MT+0020EINN V0201801N00211036001CN0300001N1+00961+00841100751ADDAG12001GA1011+002709079GA2031+015009059GA3071+036009049GF107991041051002501071999MA1100711999999MD1010031+9999MW1001REMSYN023333   81709 83650 87462MET006NOSUG?EQDQ01+000000PRSWM2
0182039620999991988010811004+52700-008917SY-MT+0020EINN V0201901N00211036001CN0300001N1+01021+00941100831ADDAG12001GA1011+002409079GA2031+003609079GA3051+036009049GF107991051051002501071021MA1100811999999MD1210111+9999MW1001REMSYN023333   81708 83712 85462MET006NOSIG?EQDQ01+000000PRSWM2
0091039620999991988010811304+52700-008917FM-15+0020EINN V0201601N00311024001CN0112001N1+01101+00901999999ADDAG12000GA1011+002409079GA2051+024009049MA1100711999999REMMET006NOSIG?EQDQ01+000000PRSWM2
0163039620999991988010812004+52700-008917FM-12+0020EINN V0201601N00311075001CN0400001N9+01081+00961100721ADDAA106999929AG10000AY151061AY221061GA1011+003009079GA2031+030009039GA3051+075009029GF107991031051004501031061MD1810041+9999MW1021REMSYN023333   81710 83360 85275
0182039620999991988010813004+52700-008917SY-MT+0020EINN V0201601N00461060001CN0500001N1+01171+00961100671ADDAG12999GA1011+003009079GA2031+005409079GA3071+060009029GF107991041051004501071061MA1100611999999MD1610081+9999MW1001REMSYN023333   81710 83718 87270MET006NOSIG?EQDQ01+000000PRSWM2
0187039620999991988010814004+52700-008917SY-MT+0020EINN V0201701N00411005401CN0400001N1+01201+00971100661ADDAG12001GA1011+004509079GA2051+005409079GA3081+006009059GF108991081061004501999999MA1100611999999MD1610171+9999MW1001REMSYN023333   81715 85718 88620MET011GRADU 8000?EQDQ01+000000PRSWM2
0270039620999991988010815004+52700-008917SY-MT+0020EINN V0201501N00261004501CN0080001N1+01171+00981100621ADDAG12000AY121031AY221031GA1021+003009079GA2041+004509079GA3081+005409079GF108991081061004501999999MA1100611999999MD1710101+9999MW1151REMSYN041333   82710 84715 88718 97182 97282 97370MET060VIS 9999         ?     TO NE SE SW TEMPO 4000 4ST006 8ST012?EQDQ01+000000PRSWM2
0233039620999991988010816004+52700-008917SY-MT+0020EINN V0202001N00461003001CN0080001N1+01181+01071100651ADDAG12001AY161011AY251011GA1021+002109079GA2051+003009079GA3081+004209079GF108991081071002501999999MA1100611999999MD1510021+9999MW1501MW2511REMSYN035333   82707 85710 88714 97465 97370MET042VIS        ?     9999 TO NW SW TEMPO 4000?
0195039620999991988010817004+52700-008917SY-MT+0020EINN V0202001N00311003301CN0150001N1+01171+01081100651ADDAG12001AY151021AY221021GA1021+002409079GA2061+003309079GA3081+004209079GF108991081071002501999999MA1100611999999MD1510011+9999MW1501REMSYN023333   82708 86711 88714MET022TEMPO      ?     7000?
0221039620999991988010818004+52700-008917SY-MT+0020EINN V0201601N00461004501CN0200001N1+01191+01101100621ADDAA199000191AG10001AY161061AY251061GA1021+003009079GA2051+004509079GA3071+005409079GF108991081061004501999999KA1120M+01211MA1100611999999MD1010001+9999MW1211REMSYN029333   10121 82710 85715 87718MET018TEMPO 7000 5ST010?
0099039620999991988010818304+52700-008917FM-15+0020EINN V0201501N00361003301CN0112001N1+01101+01101999999ADDAG12999GA1021+002409079GA2041+003309079GA3071+004809079MA1100511999999MW1601REMMET011TEMPO 7000?
0191039620999991988010819004+52700-008917SY-MT+0020EINN V0201601N00461006601CN0300001N1+01171+01061100561ADDAG12999AY161011AY221011GA1011+002409079GA2031+004209079GA3081+006609059GF108991081051002501999999MA1100511999999MD1810091+9999MW1211REMSYN023333   81708 83714 88622MET018TEMPO 7000 5ST010?
0106039620999991988010819304+52700-008917FM-15+0020EINN V0201701N00411003901CN0112001N1+01101+01101999999ADDAG12999GA1021+002409079GA2041+003909079GA3071+005109079MA1100511999999MW1501REMMET018TEMPO 7000 5ST010?
0191039620999991988010820004+52700-008917SY-MT+0020EINN V0201601N00411004501CN0300001N1+01131+01031100551ADDAG12999AY151021AY211021GA1011+002409079GA2031+003309079GA3051+004509079GF108991081061002501999999MA1100511999999MD1710101+9999MW1201REMSYN023333   81708 83711 85715MET018TEMPO 7000 5ST010?
0106039620999991988010820304+52700-008917FM-15+0020EINN V0201701N00411005401CN0112001N1+01201+01101999999ADDAG12001GA1011+002409079GA2031+003909079GA3071+005409079MA1100511999999MW1201REMMET018TEMPO 7000 5ST010?
0210039620999991988010821004+52700-008917SY-MT+0020EINN V0201901N00571009301CN0300001N1+01201+01051100531ADDAG12001AY161031AY251031GA1011+003309079GA2041+004809079GA3081+009309059GF108991081051004501999999MA1100511999999MD1710091+9999MW1021REMSYN023333   81711 84716 88631MET018TEMPO 7000 5ST010?EQDQ01+000000PRSWM2
0131039620999991988010821304+52700-008917FM-15+0020EINN V0201701N00411007201CN0112001N1+01201+01001999999ADDAG12999GA1011+002409079GA2031+003909079GA3081+007209059MA1100411999999REMMET030TEMPO 7000       ?     5ST010?EQDQ01+000000PRSWM2
0215039620999991988010822004+52700-008917SY-MT+0020EINN V0201701N00411004501CN0300001N1+01151+01021100441ADDAG12001GA1011+003009079GA2051+004509079GA3081+007209059GF108991081061004501999999GJ100249MA1100411999999MD1810121+9999MW1001REMSYN029333   81710 85715 88624 94004MET025TEMPO 7000 5ST010      ??EQDQ01+000000PRSWM2
0126039620999991988010822304+52700-008917FM-15+0020EINN V0201701N00461004501CN0112001N1+01201+01001999999ADDAG12999GA1021+003309079GA2041+004509079GA3071+006609059MA1100411999999REMMET025TEMPO 7000 5ST010      ??EQDQ01+000000PRSWM2
0203039620999991988010823004+52700-008917SY-MT+0020EINN V0201701N00461004801CN0250001N1+01211+01041100381ADDAG12999AY161021AY221021GA1021+003309079GA2051+004809079GA3081+007509059GF108991081061004501999999MA1100311999999MD1710171+9999MW1601REMSYN023333   82711 85716 88625MET030TEMPO 7000       ?     5ST010?
0118039620999991988010823304+52700-008917FM-15+0020EINN V0201801N00771006001CN0112001N1+01201+01001999999ADDAG12002GA1021+003609079GA2051+006009059GA3081+015009059MA1100311999999MW1601REMMET030TEMPO 7000       ?     5ST010?
0214039620999991988010900004+52700-008917SY-MT+0020EINN V0201801N00871006601CN0300001N1+01261+01031100271ADDAA106999929AG10001AY161061AY251061GA1011+003609079GA2051+006609059GA3081+015009059GF108991081051004501999999MA1100201999999MD1710251+9999MW1211REMSYN023333   81712 85622 88650MET030TEMPO 7000       ?     5ST010?
0106039620999991988010900304+52700-008917FM-15+0020EINN V0201701N00931006001CN0112001N1+01301+01001999999ADDAG11999GA1011+003609079GA2051+006009059GA3061+007809059MA1100201999999MW1601REMMET018TEMPO 7000 5ST010?
0191039620999991988010901004+52700-008917SY-MT+0020EINN V0201801N00821007201CN0300001N1+01261+01031100231ADDAG12999AY161011AY221011GA1011+003609079GA2051+007209059GA3081+015009059GF108991081051004501999999MA1100201999999MD1710211+9999MW1211REMSYN023333   81712 85624 88650MET018TEMPO 7000 5ST010?
0090039620999991988010901304+52700-008917FM-15+0020EINN V0201701N00931006901CN0112001N1+01301+01001999999ADDAG11999GA1051+006909059GA2071+009909059MA1100101999999MW1211REMMET018TEMPO 7000 5ST010?
0180039620999991988010902004+52700-008917SY-MT+0020EINN V0201701N00871006001CN0300001N1+01281+00991100171ADDAG12999GA1051+006009059GA2071+009909059GF108991081051008001999999MA1100101999999MD1710211+9999MW1001OC101391REMSYN017333   85620 87633MET018TEMPO 7000 5ST010?EQDQ01+000000PRSWM2
0103039620999991988010902304+52700-008917FM-15+0020EINN V0201801N00881010501CN0112001N1+01301+01001999999ADDAG12000GA1031+006009059GA2061+010509059MA1100101999999REMMET018TEMPO 7000 5ST010?EQDQ01+000000PRSWM2
0177039620999991988010903004+52700-008917SY-MT+0020EINN V0201801N00871006601CN0300001N1+01261+00971100081ADDAG12001AY161031AY221031GA1051+006609059GA2071+010509059GF108991081051008001999999MA1100001999999MD1710191+9999MW1601OC101491REMSYN017333   85622 87635MET018TEMPO 7000 5ST010?
0210039620999991988010904004+52700-008917SY-MT+0020EINN V0201901N00771013501CN0250001N1+01241+01011100041ADDAG12999AY161011AY221011GA1031+006009059GA2041+013509059GA3071+024009049GF108991061051008001071999MA1100001999999MD1710191+9999MW1601REMSYN023333   83620 84645 87458MET018TEMPO 7000 5ST010?EQDQ01+000000PRSWM2
0106039620999991988010904304+52700-008917FM-15+0020EINN V0201901N00721003001CN0112001N1+01201+01101999999ADDAG12999GA1021+002109079GA2031+003009079GA3051+012009059MA1100001999999MW1601REMMET018TEMPO 7000 5ST010?
0191039620999991988010905004+52700-008917SY-MT+0020EINN V0202001N00671015001CN0120001N1+01181+01051100011ADDAG12001AY161021AY261021GA1011+002109079GA2031+003909079GA3081+015009049GF108991031061002501021999MA1100001999999MD1710161+9999MW1631REMSYN023333   81707 83713 88550MET018TEMPO 7000 6ST008?
0117039620999991988010905304+52700-008917FM-15+0020EINN V0202101N00461002701CN0112001N1+01201+01101999999ADDAG12019GA1021+001809079GA2031+002709079GA3051+004509079MA1100001999999MW1631REMMET029TEMPO      ?     7000 6ST008?
0247039620999991988010906004+52700-008917SY-MT+0020EINN V0202101N00461007201CN0200001N1+01181+01071100051ADDAA199004091AG10002AY161061AY221061GA1011+002409079GA2031+004509079GA3051+007209059GF108991071061002501021999GJ100249IA1099IA2999+01009KA1120N+01091MA1100001999999MD1510041+9999MW1611REMSYN041333   20109 31010 81708 83715 85624 94004MET006NOSIG?
0179039620999991988010907004+52700-008917SY-MT+0020EINN V0202201N00621024001CN0200001N1+01101+00861100071ADDAG12999AY161011AY221011GA1031+005109079GA2041+011109059GA3081+024009049GF108991041061004501021999MA1100001999999MD1310031+9999MW1211REMSYN023333   83717 84637 88458MET006NOSIG?
0179039620999991988010908004+52700-008917SY-MT+0020EINN V0202101N00721011101CN0200001N1+00961+00651100101ADDAG12001AY161021AY221021GA1031+004509079GA2031+011109059GA3081+024009049GF108991051061004501021999MA1100101999999MD1210101+9999MW1211REMSYN023333   83715 83637 88458MET006NOSIG?
0176039620999991988010909004+52700-008917SY-MT+0020EINN V0202001N00621015001CN0250001N1+00981+00681100181ADDAG12001AY161031AY221031GA1021+006009089GA2051+015009059GF107991071081008001999999MA1100101999999MD1310131+9999MW1011REMSYN017333   82820 85650MET006NOSIG?EQDQ01+000000PRSWM2
0091039620999991988010909304+52700-008917FM-15+0020EINN V0202101N00821015001CN0112001N1+01001+00601999999ADDAG12999GA1021+006009089GA2041+015009059MA1100101999999REMMET006NOSIG?EQDQ01+000000PRSWM2
0198039620999991988010910004+52700-008917SY-MT+0020EINN V0202101N00771015001CN0300001N1+00991+00651100231ADDAG12999GA1021+006009089GA2051+015009059GA3061+075009029GF107991051081008001999081MA1100201999999MD1210161+9999MW1001REMSYN023333   82820 85650 86275MET006NOSIG?EQDQ01+000000PRSWM2Q02    003SCOMCG
0176039620999991988010911004+52700-008917SY-MT+0020EINN V0202101N00771220001CN0400001N1+01001+00571100281ADDAG12001AY181021AY211021GA1011+006909089GA2031+015009059GF103991031081008001999021MA1100201999999MD1210171+9999MW1251REMSYN017333   81823 83650MET006NOSIG?EQDQ01    003SCOMCG
0233039620999991988010912004+52700-008917SY-MT+0020EINN V0202201N00771006901CN0250001N1+00731+00431100391ADDAA106001091AG10002AY181061AY261061GA1021+004209079GA2051+006909099GF105991051031004501001021MA1100311999999MD1310211+9999MW1801OA149902111REMSYN029333   82714 85923 91141 98343MET048INTER MAX 48KT         ?     6000 4ST010 6CB018?
0104039620999991988010912304+52700-008917FM-15+0020EINN V0202301N00981220001CN0112001N1+00901+00401999999ADDAG12999GA1011+006909099MA1100311999999MW1251REMMET048INTER MAX 48KT         ?     6000 4ST010 6CB018?
0177039620999991988010913004+52700-008917SY-MT+0020EINN V0202001N00721220001CN0400001N1+00951+00481100411ADDAG12999AY181011AY211011GA1021+006909099GF102991021091008001001021MA1100411999999MD1110181+9999MW1251REMSYN011333   82923MET048INTER MAX 48KT         ?     6000 4ST010 6CB018?
0198039620999991988010914004+52700-008917SY-MT+0020EINN V0202501N00931015001CN0300001N1+00841+00401100441ADDAG12001GA1011+006009099GA2011+006009089GA3041+015009059GF105991051091008001999001MA1100411999999MD1210161+9999MW1001REMSYN023333   81920 81820 84650MET006NOSIG?EQDQ01+000000PRSWM2Q02    003SCOMCG
0105039620999991988010914304+52700-008917FM-15+0020EINN V0202301N00571015001CN0112001N1+00801+00401999999ADDAG12004GA1021+006009099GA2031+015009059MA1100411999999MW1801REMMET033TEMPO MAX        ?     48KT 6000?
0203039620999991988010915004+52700-008917SY-MT+0020EINN V0202201N01131220001CN0250001N1+00891+00391100451ADDAG12002AY181031AY211031GA1021+006009099GF103991031091008001001021MA1100411999999MD1210061+9999MW1801REMSYN017333   82920 94710MET068TEMPO MAX 48KT         ?     6000 ACFT RPTS WS ON APCH R24 AT 250FT?
0132039620999991988010915304+52700-008917FM-15+0020EINN V0202201N01131220001CN0112001N1+01001+00301999999ADDAG12999GA1011+006009099MA1100411999999MW1251OC101801REMMET068TEMPO MAX 48KT         ?     6000 ACFT RPTS WS ON APCH R24 AT 250FT?
0152039620999991988010916004+52700-008917SY-MT+0020EINN V0202301N00871220001CN0200001N1+00941+00171100531ADDAG12001AY181011AY201011GA1011+006009099GF101991011091008001001011MA1100511999999MD1210121+9999MW1251OA149901801REMSYN017333   81920 91135MET006NOSIG?
0083039620999991988010916304+52700-008917FM-15+0020EINN V0202301N00931220001CN0112001N1+00901+00201999999ADDAG12999GA1011+006009099MA1100511999999OC101601REMMET006NOSIG?EQDQ01+000000PRSWM2
0086039620999991988010917004+52700-008917FM-12+0020EINN V0202401N00981220001CN0200001N9+00831+00151100651ADDAG12001GA1021+006009099GF102991021091008001001001MD1310211+9999REMSYN011333   82920
0083039620999991988010917304+52700-008917FM-15+0020EINN V0202301N01131006001CN0112001N1+00801+00301999999ADDAG12006GA1021+003009079GA2051+006009099MA1100711999999MW1911REMMET011TEMPO 95TS?
0217039620999991988010918004+52700-008917SY-MT+0020EINN V0202501N01031220001CN0200001N1+00711+00221100761ADDAA199002091AG10004AY191061AY281061GA1011+003009079GA2031+006009099GF103991031031004501001001KA1120M+01031MA1100711999999MD1210311+9999MW1291OA149901651OC101541REMSYN029333   10103 81710 83920 91132MET011TEMPO 95TS?
0080039620999991988010918304+52700-008917FM-15+0020EINN V0202301N00821220001CN0112001N1+00701+00301999999ADDAG12001GA1011+006009099MA1100711999999REMMET011TEMPO 95TS?EQDQ01+000000PRSWM2
0162039620999991988010919004+52700-008917SY-MT+0020EINN V0202501N01081006001CN0080001N1+00641+00301100881ADDAG12001AY181011AY281011GA1031+002409079GA2051+006009099GF107991071031002501999999MA1100811999999MD1210351+9999MW1801REMSYN017333   83708 85920MET011GRADU 9999?
0078039620999991988010919304+52700-008917FM-15+0020EINN V0202201N00771220001CN0112001N1+00601+00301999999ADDAG12999GA1011+002709079GA2031+006009099MA1100811999999MW1251REMMET006NOSIG?
0157039620999991988010920004+52700-008917SY-MT+0020EINN V0202201N00871220001CN0250001N1+00641+00281100911ADDAG12999AY181021AY211021GA1011+003009079GA2011+006609099GF103991031031004501001001MA1100911999999MD1210261+9999MW1251REMSYN017333   81710 81922MET006NOSIG?
0078039620999991988010920304+52700-008917FM-15+0020EINN V0202301N00881006001CN0112001N1+00601+00301999999ADDAG12004GA1021+003009079GA2051+006009099MA1100911999999MW1801REMMET006NOSIG?
0157039620999991988010921004+52700-008917SY-MT+0020EINN V0202301N00821006001CN0150001N1+00651+00291100991ADDAG12002AY181031AY281031GA1031+003609079GA2041+006009099GF107991071031004501999999MA1100911999999MD1210231+9999MW1801REMSYN017333   83712 84920MET006NOSIG?
0078039620999991988010921304+52700-008917FM-15+0020EINN V0202101N00571220001CN0112001N1+00601+00301999999ADDAG12999GA1011+003609079GA2021+006009099MA1101021999999MW1251REMMET006NOSIG?
0171039620999991988010922004+52700-008917SY-MT+0020EINN V0202101N00511220001CN0250001N1+00581+00291101111ADDAG12999AY181011AY211011GA1011+003009079GA2011+006009099GF102991021031004501001001GJ101569MA1101081999999MD1310231+9999MW1251REMSYN023333   81710 81920 94026MET006NOSIG?
0078039620999991988010922304+52700-008917FM-15+0020EINN V0202301N00821006001CN0112001N1+00701+00301999999ADDAG12999GA1021+003009079GA2041+006009099MA1101081999999MW1801REMMET006NOSIG?
0157039620999991988010923004+52700-008917SY-MT+0020EINN V0202001N00621220001CN0250001N1+00561+00221101171ADDAG12001AY181021AY211021GA1011+003009079GA2011+006609099GF101991011031004501001001MA1101081999999MD1210261+9999MW1251REMSYN017333   81710 81922MET006NOSIG?
0075039620999991988010923304+52700-008917FM-15+0020EINN V0201901N00461220001CN0112001N1+00601+00201999999ADDAG12000GA1011+006609099MA1101191999999REMMET006NOSIG?EQDQ01+000000PRSWM2
0146039620999991988011000004+52700-008917SY-MT+0020EINN V0202001N00461075001CN0300001N1+00561+00071101241ADDAA106000391AG10002AY181061AY211061GA1041+006609099GF105991041031008001001021MA1101191999999MD1210251+9999MW1801REMSYN011333   84922MET006NOSIG?
0062039620999991988011000304+52700-008917FM-15+0020EINN V0201801N00361220001CN0112001N1+00501+00101999999ADDAG11999GA1021+006609089MA1101191999999MW1251REMMET006NOSIG?
0138039620999991988011001004+52700-008917SY-MT+0020EINN V0201801N00311220001CN0300001N1+00541+00101101281ADDAG11001GA1021+006609089GF103991031081008001001001MA1101191999999MD1210171+9999MW1001REMSYN011333   82822MET006NOSIG?EQDQ01+000000PRSWM2
0075039620999991988011001304+52700-008917FM-15+0020EINN V0202001N00261220001CN0112001N1+00501+00201999999ADDAG11999GA1011+006609089MA1101291999999REMMET006NOSIG?EQDQ01+000000PRSWM2
0182039620999991988011002004+52700-008917SY-MT+0020EINN V0202101N00411010501CN0300001N1+00551+00181101331ADDAG11001GA1021+006609089GA2031+010509059GA3051+015009059GF107991071081008001999999MA1101291999999MD1210161+9999MW1001REMSYN023333   82822 83635 85650MET006NOSIG?EQDQ01+000000PRSWM2
0107039620999991988011002304+52700-008917FM-15+0020EINN V0202201N00671015001CN0112001N1+00601+00101999999ADDAG12000GA1011+006609089GA2031+010509059GA3051+015009059MA1101291999999REMMET006NOSIG?EQDQ01+000000PRSWM2
0108039620999991988011003004+52700-008917FM-12+0020EINN V0202101N00621220001CN0300001N9+00591+00221101341ADDAG12000GA1011+006609089GA2031+010509059GF104991041081008001001001MD1210101+9999REMSYN017333   81822 83635
0091039620999991988011003304+52700-008917FM-15+0020EINN V0202001N00671220001CN0112001N1+00601+00201999999ADDAG12999GA1011+006609089GA2041+010509059MA1101291999999REMMET006NOSIG?EQDQ01+000000PRSWM2
0091039620999991988011003424+52700-008917FM-15+0020EINN V0202001N00671220001CN0112001N1+00601+00201999999ADDAG12999GA1011+006609089GA2041+010509059MA1101291999999REMMET006NOSIG?EQDQ01+000000PRSWM2
0160039620999991988011004004+52700-008917SY-MT+0020EINN V0202001N00621024001CN0300001N1+00591+00191101361ADDAG12001GA1011+006609089GA2071+024009049GF107991011021008001071999MA1101291999999MD1210081+9999MW1001REMSYN017333   81822 87458MET006NOSIG?EQDQ01+000000PRSWM2
0136039620999991988011005004+52700-008917SY-MT+0020EINN V0202001N00571006001CN0150001N1+00531+00311101421ADDAG12999AY181021AY221021GA1061+006009099GF107991071031008001999999MA1101391999999MD1210091+9999MW1801REMSYN011333   86920MET007NIOSIG?
0062039620999991988011005304+52700-008917FM-15+0020EINN V0201901N00511220001CN0112001N1+00501+00301999999ADDAG12001GA1041+006009099MA1101291999999MW1251REMMET006NOSIG?
0225039620999991988011006004+52700-008917SY-MT+0020EINN V0201701N00411220001CN0300001N1+00471+00281101361ADDAA199000591AG10001AY181061AY211061GA1011+006009089GA2031+009009059GF103991031081008001001001GJ101569IA1099IA2999+00009KA1120N+00451MA1101291999999MD1010021+9999MW1251REMSYN035333   20045 31000 81820 83630 94026MET006NOSIG?
0075039620999991988011006304+52700-008917FM-15+0020EINN V0201801N00511220001CN0112001N1+00501+00201999999ADDAG12999GA1011+006009099MA1101291999999REMMET006NOSIG?EQDQ01+000000PRSWM2
0138039620999991988011007004+52700-008917SY-MT+0020EINN V0201801N00571006001CN0300001N1+00491+00211101331ADDAG12001GA1051+006009099GF105991051031008001001001MA1101291999999MD1810031+9999MW1001REMSYN011333   85920MET006NOSIG?EQDQ01+000000PRSWM2
0138039620999991988011008004+52700-008917SY-MT+0020EINN V0201801N00671220001CN0300001N1+00541+00211101361ADDAG12999GA1031+006009099GF103991031031008001001021MA1101291999999MD1510061+9999MW1001REMSYN011333   83920MET006NOSIG?EQDQ01+000000PRSWM2
0135039620999991988011009004+52700-008917SY-MT+0020EINN V0201901N00721220001CN0300001N1+00501+00221101311ADDAG12001AY181031AY211031GA1021+006009099GF102991021091008001001021MA1101291999999MD1710051+9999MW1251REMSYN011333   82920MET006NOSIG?
0179039620999991988011010004+52700-008917SY-MT+0020EINN V0202201N00821006001CN0200001N1+00511+00261101371ADDAG12999AY181011AY211011GA1021+004509079GA2041+006009099GA3051+015009059GF107991071031004501999999MA1101291999999MD1310041+9999MW1801REMSYN023333   82715 84920 85650MET006NOSIG?
0179039620999991988011011004+52700-008917SY-MT+0020EINN V0202001N00721060001CN0400001N1+00551+00281101351ADDAG12999AY181021AY221021GA1011+004209079GA2021+006009099GA3051+060009009GF107991041031004501999021MA1101291999999MD1810011+9999MW1251REMSYN023333   81714 82920 85070MET006NOSIG?
0190039620999991988011012004+52700-008917SY-MT+0020EINN V0202101N00571060001CN0300001N1+00561+00291101341ADDAA106001091AG10001AY181061AY211061GA1011+004209079GA2031+006009099GA3061+060009009GF107991041031004501999021MA1101291999999MD1010031+9999MW1251REMSYN023333   81714 83920 86070MET006NOSIG?
0223039620999991988011013004+52700-008917SY-MT+0020EINN V0202501N00771005401CN0070001N1+00421+00161101381ADDAG12999AY181011AY221011GA1031+003009079GA2061+005409099GF107991071031004501999999MA1101291999999MD1310011+9999MW1801OA149901291REMSYN041333   83710 86918 91125 99720 98422 97470MET03710KM NW          ?     SE GRADU 9999?
0162039620999991988011014004+52700-008917SY-MT+0020EINN V0202001N00411220001CN0400001N1+00521+00221101291ADDAG12999AY181021AY211021GA1011+003609079GA2031+005409099GF103991031031004501001001MA1101191999999MD1810061+9999MW1251REMSYN017333   81712 83918MET011TEMPO 7000?
0083039620999991988011014304+52700-008917FM-15+0020EINN V0202601N00361005401CN0112001N1+00501+00201999999ADDAG12001GA1021+003609079GA2051+005409099MA1101291999999MW1251REMMET011TEMPO 7000?
0162039620999991988011015004+52700-008917SY-MT+0020EINN V0202601N00871005401CN0400001N1+00551+00181101321ADDAG12001AY181031AY211031GA1021+003609079GA2051+005409099GF105991051031004501001001MA1101291999999MD1510021+9999MW1251REMSYN017333   82712 85918MET011TEMPO 7000?
0165039620999991988011016004+52700-008917SY-MT+0020EINN V0202401N00411005401CN0300001N1+00491+00111101371ADDAG12999GA1021+003609079GA2051+005409099GF105991051031004501001001MA1101291999999MD1510011+9999MW1001REMSYN017333   82712 85918MET011TEMPO 7000?EQDQ01+000000PRSWM2
0187039620999991988011017004+52700-008917SY-MT+0020EINN V0202401N00411005401CN0300001N1+00451+00121101421ADDAG12001AY121021AY221021GA1021+003609079GA2051+005409099GF105991051091004501001001MA1101391999999MD1310131+9999MW1131REMSYN023333   82712 85918 99279MET011TEMPO 7000?EQDQ01+000000PRSWM2
0081039620999991988011017304+52700-008917FM-15+0020EINN V0202601N00621005401CN0112001N1+00501+00101999999ADDAG12004GA1021+003609079GA2061+005409099MA1101391999999MW1801REMMET009TEMPO TS?
0185039620999991988011018004+52700-008917FM-12+0020EINN V0202601N00571220001CN0300001N9+00471-00211101481ADDAA199003091AG10001AY181061AY211061GA1071+003609079GA2031+006009099GF199999031091004501001001KA1120M+00661MD1210161+9999MW1251REMSYN029333   10066 87712 83920 99720EQDQ01+000032SCOTCV
0105039620999991988011018304+52700-008917FM-15+0020EINN V0202501N00721005401CN0112001N1+00501-00101999999ADDAG12999GA1021+003009079GA2061+005409099MA1101491999999MW1801REMMET033TEMPO MAX        ?     34KT 8000?
0140039620999991988011019004+52700-008917SY-MT+0020EINN V0202401N00821220001CN0300001N1+00461+00041101511ADDAG12999AY181011AY211011GA1031+006009099GF103991031091008001001001MA1101491999999MD1210141+9999MW1251REMSYN011333   83920MET011TEMPO 8000?
0091039620999991988011019304+52700-008917FM-15+0020EINN V0203001N00411005401CN0112001N1+00301+00001999999ADDAG12999GA1031+003609079GA2051+005409099MA1101491999999MW1801OC101131REMMET011TEMPO 8000?
