0087039620999991980010100004+52683-008917FM-15+0014EINN V0201201N00411006001CN0050001N1+00101-00101999999ADDGA1031+003009079GA2061+006009059GA3081+024009049MA1101081999999MW1681REMMET006NOSIG?
0087039620999991980010100304+52683-008917FM-15+0014EINN V0201101N00361006601CN0060001N1+00101-00101999999ADDGA1021+003009079GA2061+006609059GA3081+024009049MA1101081999999MW1711REMMET006NOSIG?
0164039620999991980010101004+52683-008917SY-MT+0014EINN V0201001N00361015001CN0112001N1+00201-00101101111ADDAL10600091AY171999GA1031+006009059GA2081+015009049GF108991031061008001021999MA1101081999999MD1710161+9999MW1681REMSYN02483620 88550 99597 99697/MET011TEMPO 6000?
0076039620999991980010101304+52683-008917FM-15+0014EINN V0201101N00461015001CN0112001N1+00201-00101999999ADDGA1031+006009059GA2081+015009049MA1101021999999MW1701REMMET011TEMPO 6000?
0180039620999991980010102004+52683-008917SY-MT+0014EINN V0201101N00361015001CN0112001N1+00201-00101101041ADDAJ100009199999999AL10600091AY171999GA1031+006009059GA2081+015009049GF108991031051008001021999MA1101021999999MD1710181+9999MW1681REMSYN02383620 88550 99597 99697MET011TEMPO 6000?
0071039620999991980010102304+52683-008917FM-15+0014EINN V0200901N00301015001CN0112001N1+00201+00001999999ADDGA1031+006009059GA2081+015009049MA1101021999999MW1681REMMET006NOSIG?
0175039620999991980010103004+52683-008917SY-MT+0014EINN V0200801N00301015001CN0112001N1+00201-00101101071ADDAJ100009199999999AL10600091AY171999GA1031+006009059GA2081+015009049GF108991031051008001021999MA1101021999999MD1510121+9999MW1681REMSYN02383620 88550 99500 99697MET006NOSIG?
0112039620999991980010103304+52683-008917FM-15+0014EINN V0200901N00361005101CN0090001N1+00201+00001999999ADDGA1031+003609079GA2061+005109079GA3081+009009049MA1101021999999MW1581REMMET031TEMPO      ?     3ST010 6ST015?
0205039620999991980010104004+52683-008917SY-MT+0014EINN V0200901N00461006001CN0080001N1+00201+00101101001ADDAJ100009199999999AL10600091AY171999GA1031+003609079GA2081+006009049GF108991031061004501021999MA1100911999999MD1710111+9999MW1581REMSYN02383712 88520 99500 99600MET036TEMPO 3ST010 8ST015          ?     ?
0101039620999991980010104304+52683-008917FM-15+0014EINN V0200801N00411006301CN0112001N1+00201+00101999999ADDGA1031+003609079GA2081+006309059MA1101021999999MW1601REMMET036TEMPO 6000 3ST010      ?     8ST015?
0136039620999991980010105004+52683-008917SY-MT+0014EINN V0200701N00361009001CN0112001N1+00201+00101101051ADDAY151999GA1031+003609079GA2081+009009059GF108991031061004501021999MA1101021999999MD1310011+9999MW1601REMSYN01183712 88525MET006NOSIG?
0071039620999991980010105304+52683-008917FM-15+0014EINN V0200601N00461009001CN0112001N1+00201+00101999999ADDGA1031+003609079GA2081+009009059MA1101021999999MW1601REMMET006NOSIG?
0234039620999991980010106004+52683-008917SY-MT+0014EINN V0200701N00461004801CN0112001N1+00201+00101101091ADDAA199003091AJ100009199999999AY171999GA1021+002409079GA2041+004809079GA3081+009009059GF108991081061002501999999IA1089IA2999+00009KA1999N+00101MA1101021999999MD1310021+9999MW1611REMSYN02920010 70301 82708 84716 88630MET011TEMPO 6000?
0092039620999991980010106304+52683-008917FM-15+0014EINN V0200701N00411010501CN0112001N1+00201+00101999999ADDGA1031+002409079GA2081+010509059GA3081+010509059MA1101081999999MW1611REMMET011TEMPO 6000?
0163039620999991980010107004+52683-008917SY-MT+0014EINN V0200701N00461012001CN0112001N1+00201+00101101161ADDAY161999GA1011+001509079GA2031+002409079GA3081+012009059GF108991081061001501999999MA1101081999999MD1210161+9999MW1581REMSYN01781705 83708 88640MET011TEMPO 6000?
0092039620999991980010107304+52683-008917FM-15+0014EINN V0200701N00461002701CN0090001N1+00101+00101999999ADDGA1021+001809079GA2041+002709079GA3081+009009059MA1101081999999MW1681REMMET011TEMPO 6000?
0174039620999991980010108004+52683-008917SY-MT+0014EINN V0200701N00411003001CN0080001N1+00101+00001101211ADDAL10600091AY171999GA1021+001809079GA2051+003009079GA3081+007509059GF108991081061002501999999MA1101191999999MD1210161+9999MW1681REMSYN02382706 85710 88625 99500MET006NOSIG?
0112039620999991980010108304+52683-008917FM-15+0014EINN V0200901N00461003001CN0112001N1+00201+00101999999ADDGA1021+001809079GA2051+003009079GA3081+007509059MA1101191999999MW1681REMMET031GRADU      ?     3ST010 7ST015?
0228039620999991980010109004+52683-008917SY-MT+0014EINN V0200901N00511003001CN0112001N1+00201+00101101291ADDAJ100009199999999AL10600091AY171999GA1021+001809079GA2061+003009079GA3081+007509059GF108991081061002501999999MA1101191999999MD1210201+9999MW1681REMSYN02982706 84710 88625 99500 99600MET037TEMPO 6000       ?     3ST010 8ST015?
0092039620999991980010109304+52683-008917FM-15+0014EINN V0200901N00411003301CN0112001N1+00201+00101999999ADDGA1021+001809079GA2051+003309079GA3081+006009059MA1101291999999MW1611REMMET011TEMPO 6000?
0181039620999991980010110004+52683-008917SY-MT+0014EINN V0200901N00361003601CN0112001N1+00201+00101101331ADDAJ100009199999999AY171999GA1011+002409079GA2051+003609079GA3081+007509059GF108991081061002501999999MA1101291999999MD1210171+9999MW1611REMSYN02381708 85712 88625 99600MET006NOSIG?
0087039620999991980010110304+52683-008917FM-15+0014EINN V0200801N00301003601CN0112001N1+00201+00101999999ADDGA1021+002409079GA2051+003609079GA3081+007509059MA1101391999999MW1611REMMET006NOSIG?
0158039620999991980010111004+52683-008917SY-MT+0014EINN V0200801N00301003601CN0112001N1+00201+00101101451ADDAY161999GA1011+002409079GA2051+003609079GA3081+007509059GF108991081061002501999999MA1101391999999MD1310241+9999MW1611REMSYN01781708 85712 88625MET006NOSIG?
0087039620999991980010111304+52683-008917FM-15+0014EINN V0200801N00361007501CN0112001N1+00301+00101999999ADDGA1011+002709079GA2031+004209079GA3051+007509059MA1101491999999MW1611REMMET006NOSIG?
0217039620999991980010112004+52683-008917SY-MT+0014EINN V0200701N00251009001CN0112001N1+00301+00101101561ADDAA106003091AJ100009199999999AY171999GA1011+002709079GA2031+003909079GA3071+009009059GF108991081061002501999999MA1101491999999MD1210271+9999MW1601REMSYN029703// 81709 83713 87630 99600MET006NOSIG?EQDQ01  00303PRCP99
0158039620999991980010113004+52683-008917SY-MT+0014EINN V0200501N00101007501CN0112001N1+00301+00101101591ADDAY161999GA1021+003609079GA2051+007509059GA3061+012009059GF107991071051004501999999MA1101491999999MD1110261+9999MW1211REMSYN01782712 85625 86640MET006NOSIG?
0100039620999991980010113304+52683-008917FM-15+0014EINN V0200601N00251012001CN0112001N1+00401+00201999999ADDGA1011+002409079GA2031+007509059GA3051+012009059MA1101591999999REMMET006NOSIG?EQDQ01+000000PRSWM2
0177039620999991980010114004+52683-008917SY-MT+0014EINN V0200401N00251013501CN0112001N1+00401+00201101671ADDAY121999GA1011+002709079GA2031+007509059GA3061+013509059GF107991071051002501999999MA1101591999999MD1210221+9999MW1011REMSYN01781709 83625 86645MET006NOSIG?EQDQ01+000000PRSWM2
0084039620999991980010114304+52683-008917FM-15+0014EINN V0200401N00301013501CN0112001N1+00401+00201999999ADDGA1011+002709079GA2061+013509059MA1101591999999REMMET006NOSIG?EQDQ01+000000PRSWM2
0155039620999991980010115004+52683-008917SY-MT+0014EINN V0200401N00301220001CN0112001N1+00201+00001101731ADDAY161999GA1011+007509059GA2031+013509059GF103991031051008001001001MA1101691999999MD1310171+9999MW1011REMSYN01181625 83645MET006NOSIG?EQDQ01+000000PRSWM2
0068039620999991980010115304+52683-008917FM-15+0014EINN V0200501N00251220001CN0112001N1+00101+00001999999ADDGA1011+013509059MA1101691999999REMMET006NOSIG?EQDQ01+000000PRSWM2
0133039620999991980010116004+52683-008917SY-MT+0014EINN V0200501N00151220001CN0112001N1+00101+00001101771ADDAY101999GA1011+013509059GF101991011051012501001011MA1101691999999MD1110181+9999MW1011REMSYN00581645MET006NOSIG?EQDQ01+000000PRSWM2
0068039620999991980010116304+52683-008917FM-15+0014EINN V0200401N00101220001CN0112001N1+00101+00001999999ADDGA1011+013509059MA1101801999999REMMET006NOSIG?EQDQ01+000000PRSWM2
0133039620999991980010117004+52683-008917SY-MT+0014EINN V0200401N00101220001CN0112001N1+00101+00001101901ADDAY101999GA1011+013509059GF101991011051012501001001MA1101801999999MD1210231+9999MW1021REMSYN00581645MET006NOSIG?EQDQ01+000000PRSWM2
0068039620999991980010117304+52683-008917FM-15+0014EINN V0209991C00001220001CN0112001N1+00001-00101999999ADDGA1011+013509059MA1101901999999REMMET006NOSIG?EQDQ01+000000PRSWM2
0175039620999991980010118004+52683-008917SY-MT+0014EINN V0209991C00001220001CN0112001N1+00001-00101101991ADDAA199003091AY161999GA1011+013509059GF101991011051012501001001KA1999M+00301MA1101901999999MD1210261+9999MW1021REMSYN02370303 81645 94003 92000MET006NOSIG?EQDQ01+000000PRSWM2
0068039620999991980010118304+52683-008917FM-15+0014EINN V0209991C00001220001CN0112001N1+00001-00201999999ADDGA1011+013509059MA1102001999999REMMET006NOSIG?EQDQ01+000000PRSWM2
0145039620999991980010119004+52683-008917SY-MT+0014EINN V0209991C00001220001CN0112001N1+00001-00201102061ADDAY101999GA1011+000309079GF101991011061000251001001MA1102001999999MD1210291+9999MW1021REMSYN01781701 92001 51023MET006NOSIG?EQDQ01+000000PRSWM2
0068039620999991980010119304+52683-008917FM-15+0014EINN V0200401N00101220001CN0112001N1-00101-00201999999ADDGA1011+013509059MA1102101999999REMMET006NOSIG?EQDQ01+000000PRSWM2
0139039620999991980010120004+52683-008917SY-MT+0014EINN V0200401N00101220001CN0112001N1-00101-00201102161ADDAY101999GA1021+013509059GF102991021051012501001001MA1102101999999MD1210261+9999MW1031REMSYN01182645 92001MET006NOSIG?EQDQ01+000000PRSWM2
0058039620999991980010120304+52683-008917FM-15+0014EINN V0209991C00001999991CY0099001N1-00101-00201999999ADDMA1102101999999REMMET012CAVOK NOSIG?EQDQ01+000000PRSWM2
0175039620999991980010121004+52683-008917SY-MT+0014EINN V0209991C00001220001CN0060001N1-00101-00201102241ADDAY101999GA1021+075009009GF102991001001999999001021MA1102201999999MD1210251+9999MW1021REMSYN02982075 92001 97170 97270 97370MET024VIS 10KM NE SE SW NOSIG?EQDQ01+000000PRSWM2
0094039620999991980010121304+52683-008917FM-15+0014EINN V0209991C00001220001CN0060001N1-00201-00201999999ADDGA1021+075009009MA1102201999999MW1101REMMET045VIS 10KM NE SW SE NOSIG? 0         ?     113?
0109039620999991980010122004+52683-008917SY-MT+0014EINN V0209991C00001220001CN0060001N1-00201-00301102331ADDAY101999GF102991001001999999001021MA1102301999999MD1210271+9999MW1101REMSYN01182075 92011MET011GRADU 9999?
0039039620999991980010122304+52683-008917FM-15+0014EINN V0209991C00001220001CN0060001N1-00201-00301999999ADDMA1102301999999MW1101REMMET006NOSIG?
0120039620999991980010123004+52683-008917SY-MT+0014EINN V0209991C00001220001CN0060001N1-00201-00301102381ADDAY101999GA1021+075009009GF102991001001999999001021MA1102301999999MD1210221+9999MW1101REMSYN01182075 92011MET006NOSIG?
0055039620999991980010123304+52683-008917FM-15+0014EINN V0209991C00001220001CN0060001N1-00201-00301999999ADDGA1021+075009009MA1102301999999MW1101REMMET006NOSIG?
0162039620999991980010200004+52683-008917SY-MT+0014EINN V0209991C00001075001CN0060001N1-00301-00301102441ADDAA106999929AY111999GA1061+075009029GF106991001001999999001061MA1102401999999MD1210191+9999MW1101REMSYN023797// 86075 92011 94720MET006NOSIG?EQDQ01  99993PRCP99
0058039620999991980010200304+52683-008917FM-15+0014EINN V0209991C00001999991CY0099001N1-00301-00301999999ADDMA1102401999999REMMET012CAVOK NOSIG?EQDQ01+000000PRSWM2
0166039620999991980010201004+52683-008917SY-MT+0014EINN V0200901N00101220001CN0112001N1-00201-00301102401ADDAY111999GA1011+012009059GA2031+060009029GF199999011051012501001021MA1102301999999MD1010061+9999MW1101REMSYN01781640 83270 92011MET011TEMPO 6000?EQDQ01+000022SCOTCV
0076039620999991980010201304+52683-008917FM-15+0014EINN V0201101N00251220001CN0112001N1-00101-00301999999ADDGA1021+001509079GA2031+060009009MA1102301999999MW1101REMMET011GRADU 6000?
0120039620999991980010202004+52683-008917SY-MT+0014EINN V0201401N00101220001CN0112001N1-00101-00301102411ADDAY101999GA1011+001809079GF101991011061002501001021MA1102401999999MD1310031+9999MW1101REMSYN01181706 92011MET006NOSIG?
0060039620999991980010202304+52683-008917FM-15+0014EINN V0209991C00001220001CN0090001N1-00101-00301999999ADDGA1011+060009009MA1102401999999MW1101REMMET011GRADU 6000?
0120039620999991980010203004+52683-008917SY-MT+0014EINN V0201201N00201220001CN0112001N1-00201-00201102431ADDAY111999GA1011+060009009GF101991001001999999001021MA1102401999999MD1510001+9999MW1101REMSYN01181070 92011MET006NOSIG?
0055039620999991980010203304+52683-008917FM-15+0014EINN V0201201N00151220001CN0112001N1-00201-00301999999ADDGA1011+015009059MA1102401999999MW1101REMMET006NOSIG?
0139039620999991980010204004+52683-008917SY-MT+0014EINN V0201501N00151220001CN0112001N1-00101-00301102481ADDAY111999GA1031+012009059GF104991031051012501001021MA1102401999999MD1310091+9999MW1031REMSYN01183640 92011MET006NOSIG?EQDQ01+000000PRSWM2
0068039620999991980010204304+52683-008917FM-15+0014EINN V0201301N00201220001CN0112001N1-00201-00201999999ADDGA1011+012009059MA1102401999999REMMET006NOSIG?EQDQ01+000000PRSWM2
0145039620999991980010205004+52683-008917SY-MT+0014EINN V0201201N00301220001CN0099001N1-00201-00301102431ADDAY111999GA1021+075009019GF102991001001999999001021MA1102401999999MD1010021+9999MW1011REMSYN01182175 92011MET012CAVOK NOSIG?EQDQ01+000000PRSWM2
0058039620999991980010205304+52683-008917FM-15+0014EINN V0201201N00411999991CY0099001N1-00201-00201999999ADDMA1102401999999REMMET012CAVOK NOSIG?EQDQ01+000000PRSWM2
0169039620999991980010206004+52683-008917SY-MT+0014EINN V0201201N00251220001CN0112001N1-00201-00301102391ADDAA199999929AY111999GA1011+012009059GF102991011051012501001021KA1999N-00301MA1102301999999MD1810041+9999MW1021REMSYN01779753 81640 92011MET006NOSIG?EQDQ01+000000PRSWM2
0084039620999991980010206304+52683-008917FM-15+0014EINN V0201201N00461220001CN0112001N1-00301-00501999999ADDGA1011+012009059GA2031+075009009MA1102001999999REMMET006NOSIG?EQDQ01+000000PRSWM2
0161039620999991980010207004+52683-008917SY-MT+0014EINN V0201201N00361220001CN0112001N1-00201-00301102351ADDAY101999GA1011+012009059GA2031+075009009GF103991011051012501001021MA1102301999999MD1710131+9999MW1031REMSYN01781640 83075 92011MET006NOSIG?EQDQ01+000000PRSWM2
0084039620999991980010207304+52683-008917FM-15+0014EINN V0201301N00251220001CN0112001N1-00201-00301999999ADDGA1021+012009059GA2031+075009009MA1102301999999REMMET006NOSIG?EQDQ01+000000PRSWM2
0161039620999991980010208004+52683-008917SY-MT+0014EINN V0201301N00251220001CN0112001N1-00101-00301102361ADDAY101999GA1021+012009059GA2031+075009009GF104991021051012501001021MA1102301999999MD1510071+9999MW1031REMSYN01782640 83075 92012MET006NOSIG?EQDQ01+000000PRSWM2
0084039620999991980010208304+52683-008917FM-15+0014EINN V0201401N00201220001CN0112001N1-00101-00301999999ADDGA1011+012009059GA2031+075009009MA1102301999999REMMET006NOSIG?EQDQ01+000000PRSWM2
0161039620999991980010209004+52683-008917SY-MT+0014EINN V0201301N00201075001CN0112001N1-00101-00301102371ADDAY111999GA1031+013509059GA2041+075009009GF105991031051012501001021MA1102301999999MD1510021+9999MW1031REMSYN01783645 84075 92012MET006NOSIG?EQDQ01+000000PRSWM2
0100039620999991980010209304+52683-008917FM-15+0014EINN V0201201N00251015001CN0112001N1-00101-00201999999ADDGA1011+006009089GA2051+015009059GA3051+075009009MA1102301999999REMMET006NOSIG?EQDQ01+000000PRSWM2
0199039620999991980010210004+52683-008917SY-MT+0014EINN V0201201N00301027001CN0099001N1-00101-00201102331ADDAY121999GA1031+015009059GA2051+027009049GF107991031999999999071021MA1102301999999MD1810021+9999MW1031REMSYN01783650 85459 92011MET012CAVOK NOSIG?EQDQ01+000002SCOLCGQ02+000992SCOLCBQ03+000000PRSWM2
0084039620999991980010210304+52683-008917FM-15+0014EINN V0201301N00461027001CN0112001N1+00001-00201999999ADDGA1031+015009059GA2051+027009039MA1102201999999REMMET006NOSIG?EQDQ01+000000PRSWM2
0175039620999991980010211004+52683-008917SY-MT+0014EINN V0201201N00411027001CN0099001N1+00001-00201102261ADDAY121999GA1021+015009059GA2061+027009049GF107991021051017501071021MA1102201999999MD1810101+9999MW1021WG199130699999REMSYN01182650 86459MET012CAVOK NOSIG?EQDQ01+000000PRSWM2
0058039620999991980010211304+52683-008917FM-15+0014EINN V0201201N00411999991CY0099001N1+00101-00201999999ADDMA1102201999999REMMET012CAVOK NOSIG?EQDQ01+000000PRSWM2
0200039620999991980010212004+52683-008917SY-MT+0014EINN V0201201N00301060001CN0099001N1+00201+00001102221ADDAA106999929AY111999GA1021+015009059GA2051+060009029GF107991021051017501071061MA1102201999999MD1710151+9999MW1031REMSYN023797// 82650 85459 85270MET012CAVOK NOSIG?EQDQ01+000000PRSWM2Q02  99993PRCP99
0058039620999991980010212304+52683-008917FM-15+0014EINN V0201401N00361999991CY0099001N1+00301+00101999999ADDMA1102101999999REMMET012CAVOK NOSIG?EQDQ01+000000PRSWM2
0161039620999991980010213004+52683-008917SY-MT+0014EINN V0201501N00611027001CN0099001N1+00401+00101102121ADDAY121999GA1031+015009059GA2081+027009049GF108991031051017501071999MA1102101999999MD1710211+9999MW1031REMSYN01183650 88459MET012CAVOK NOSIG?EQDQ01+000000PRSWM2
0084039620999991980010213304+52683-008917FM-15+0014EINN V0201501N00661012001CN0112001N1+00501+00101999999ADDGA1051+012009059GA2081+024009049MA1102001999999REMMET006NOSIG?EQDQ01+000000PRSWM2
0155039620999991980010214004+52683-008917SY-MT+0014EINN V0201601N00561010501CN0112001N1+00501+00201102061ADDAY121999GA1051+010509059GA2051+015009059GF107991071051012501999999MA1102001999999MD1710201+9999MW1011REMSYN01185635 85650MET006NOSIG?EQDQ01+000000PRSWM2
0068039620999991980010214304+52683-008917FM-15+0014EINN V0201601N00721012001CN0112001N1+00501+00301999999ADDGA1051+012009059MA1101901999999REMMET006NOSIG?EQDQ01+000000PRSWM2
0177039620999991980010215004+52683-008917SY-MT+0014EINN V0201601N00871015001CN0112001N1+00501+00301101951ADDAY121999GA1031+012009059GA2051+015009059GA3071+027009039GF108991051051012501071999MA1101901999999MD1710271+9999MW1031REMSYN01783640 85650 87459MET006NOSIG?EQDQ01+000000PRSWM2
0100039620999991980010215304+52683-008917FM-15+0014EINN V0201501N00771009001CN0112001N1+00501+00301999999ADDGA1021+004509079GA2031+009009059GA3061+018009059MA1101901999999REMMET006NOSIG?EQDQ01+000000PRSWM2
0177039620999991980010216004+52683-008917SY-MT+0014EINN V0201601N00661006001CN0112001N1+00501+00401101931ADDAY121999GA1031+004509079GA2051+006009059GA3061+009009059GF108991081051004501999999MA1101901999999MD1710191+9999MW1021REMSYN01783715 85620 86630MET006NOSIG?EQDQ01+000000PRSWM2
0087039620999991980010216304+52683-008917FM-15+0014EINN V0201501N00661004501CN0112001N1+00501+00401999999ADDGA1021+002709079GA2051+004509079GA3071+006009059MA1101801999999MW1601REMMET006NOSIG?
0158039620999991980010217004+52683-008917SY-MT+0014EINN V0201501N00721002701CN0090001N1+00601+00501101821ADDAY161999GA1021+002109079GA2041+002709079GA3081+004509079GF108991081061002501999999MA1101801999999MD1710241+9999MW1601REMSYN01782707 84709 88715MET006NOSIG?
0087039620999991980010217304+52683-008917FM-15+0014EINN V0201601N00871003601CN0080001N1+00601+00501999999ADDGA1021+002109079GA2041+003609079GA3081+012009059MA1101691999999MW1611REMMET006NOSIG?
0188039620999991980010218004+52683-008917SY-MT+0014EINN V0201501N00871004501CN0112001N1+00601+00501101741ADDAA199001091AY161999GA1031+002109079GA2041+004509079GA3081+012009059GF108991081061002501999999KA1999M+00601MA1101691999999MD1810211+9999MW1611REMSYN02370106 83707 84715 88640MET006NOSIG?
0087039620999991980010218304+52683-008917FM-15+0014EINN V0201601N00821012001CN0112001N1+00601+00601999999ADDGA1011+001509079GA2031+002409079GA3081+012009059MA1101691999999MW1631REMMET006NOSIG?
0142039620999991980010219004+52683-008917SY-MT+0014EINN V0201501N00771012001CN0112001N1+00601+00601101661ADDAY161999GA1031+002409079GA2081+012009059GF108991081071002501999999MA1101591999999MD1710271+9999MW1611REMSYN01783708 83715 88640MET006NOSIG?
0087039620999991980010219304+52683-008917FM-15+0014EINN V0201501N00721004201CN0112001N1+00701+00601999999ADDGA1021+002109079GA2051+004209079GA3081+012009059MA1101591999999MW1581REMMET006NOSIG?
0164039620999991980010220004+52683-008917SY-MT+0014EINN V0201501N00661004201CN0112001N1+00701+00601101571ADDAY151999GA1031+002109079GA2041+004209079GA3081+012009059GF108991081061002501999999MA1101491999999MD1710251+9999MW1611REMSYN02383707 84714 88640 94001MET006NOSIG?
0087039620999991980010220304+52683-008917FM-15+0014EINN V0201601N00721004501CN0112001N1+00701+00601999999ADDGA1021+002409079GA2031+004509079GA3081+008409059MA1101491999999MW1611REMMET006NOSIG?
0158039620999991980010221004+52683-008917SY-MT+0014EINN V0201601N00661004501CN0112001N1+00801+00701101501ADDAY161999GA1021+002409079GA2031+004509079GA3081+007809059GF108991081071002501999999MA1101391999999MD1710241+9999MW1581REMSYN01782708 83715 88626MET006NOSIG?
0087039620999991980010221304+52683-008917FM-15+0014EINN V0201701N00611008401CN0112001N1+00801+00801999999ADDGA1021+004509079GA2041+008409059GA3081+013509059MA1101391999999MW1211REMMET006NOSIG?
0158039620999991980010222004+52683-008917SY-MT+0014EINN V0201801N00661007501CN0112001N1+00901+00801101441ADDAY151999GA1021+004509079GA2061+007509059GA3081+013509059GF108991081051004501999999MA1101391999999MD1710211+9999MW1601REMSYN01782715 86625 88645MET006NOSIG?
0071039620999991980010222304+52683-008917FM-15+0014EINN V0201701N00611008101CN0112001N1+00901+00801999999ADDGA1021+004509079GA2081+008109059MA1101391999999MW1601REMMET006NOSIG?
0142039620999991980010223004+52683-008917SY-MT+0014EINN V0201801N00511007501CN0112001N1+00901+00801101421ADDAY161999GA1021+004509079GA2081+007509059GF108991081051004501999999MA1101391999999MD1610141+9999MW1601MW2611REMSYN01182715 88625MET006NOSIG?
0071039620999991980010223304+52683-008917FM-15+0014EINN V0201801N00301006601CN0112001N1+00901+00801999999ADDGA1031+005409079GA2081+006609059MA1101291999999MW1611REMMET006NOSIG?
0172039620999991980010300004+52683-008917SY-MT+0014EINN V0201801N00411006901CN0112001N1+00901+00801101351ADDAA106004091AY151999GA1031+005109079GA2081+006909059GF108991081051004501999999MA1101291999999MD1710141+9999MW1611REMSYN017704// 83717 88623MET006NOSIG?EQDQ01  00403PRCP99
0111039620999991980010300304+52683-008917FM-15+0014EINN V0201701N00511007501CN0112001N1+00901+00801999999ADDGA1021+002409079GA2041+007509059GA3081+018009049MA1101291999999MW1611REMMET030TEMPO 7000       ?     5ST007?
0159039620999991980010301004+52683-008917SY-MT+0014EINN V0201701N00561012001CN0112001N1+00901+00801101271ADDAY161999GA1031+005109079GA2081+012009059GF108991081051004501999999MA1101191999999MD1710171+9999MW1611REMSYN01183717 88640MET029TEMPO      ?     7000 5ST007?
0090039620999991980010301304+52683-008917FM-15+0014EINN V0201601N00411013501CN0112001N1+00901+00801999999ADDGA1031+005109079GA2081+013509059MA1101191999999MW1611REMMET025TEMPO 70005ST007       ??
0148039620999991980010302004+52683-008917SY-MT+0014EINN V0201601N00411013501CN0112001N1+00901+00801101201ADDAY161999GA1031+005109079GA2081+013509059GF108991081051004501999999MA1101191999999MD1710221+9999MW1611REMSYN01183717 88640MET018TEMPO 7000 5ST007?
0090039620999991980010302304+52683-008917FM-15+0014EINN V0201601N00361012001CN0112001N1+00901+00801999999ADDGA1031+005109079GA2081+012009059MA1101081999999MW1601REMMET025TEMPO 70005ST007       ??
0182039620999991980010303004+52683-008917SY-MT+0014EINN V0201701N00511012001CN0112001N1+00901+00801101131ADDAY161999GA1031+005409079GA2061+012009059GA3071+024009049GF108991061051004501071999MA1101081999999MD1710221+9999MW1601REMSYN01783718 86640 87458MET030TEMPO 7000       ?     5ST007?
0111039620999991980010303304+52683-008917FM-15+0014EINN V0201601N00411012001CN0112001N1+00901+00801999999ADDGA1021+005409079GA2051+012009059GA3081+024009049MA1101021999999MW1601REMMET030TEMPO 7000       ?     5ST007?
0131039620999991980010304004+52683-008917FM-12+0014EINN V0201601N00411012001CN0200001N9+00901+00801101021ADDAY161999GA1031+004809079GA2061+012009059GA3081+024009049GF108991061051004501021999MD1710251+9999MW1601REMSYN01783716 86640 88458
0111039620999991980010304304+52683-008917FM-15+0014EINN V0201601N00411013501CN0112001N1+00901+00801999999ADDGA1031+004809079GA2061+013509059GA3081+024009049MA1100911999999MW1611REMMET030TEMPO 7000       ?     5ST007?
0170039620999991980010305004+52683-008917SY-MT+0014EINN V0201601N00411012001CN0112001N1+00901+00801100921ADDAY161999GA1021+004809079GA2071+012009059GA3081+024009049GF108991071051004501021999MA1100911999999MD1710281+9999MW1611REMSYN01782716 87640 88458MET018TEMPO 7000 5ST007?
0111039620999991980010305304+52683-008917FM-15+0014EINN V0201701N00361006601CN0090001N1+00901+00801999999ADDGA1021+004509079GA2051+006609059GA3081+012009059MA1100811999999MW1581REMMET030TEMPO 7000       ?     5ST007?
0253039620999991980010306004+52683-008917SY-MT+0014EINN V0201701N00361012001CN0112001N1+00901+00901100851ADDAA199006091AJ100009199999999AY151999GA1011+004809079GA2031+006609059GA3081+012009059GF108991081051004501999999IA1089IA2999+00509KA1999N+00601MA1100811999999MD1710281+9999MW1611REMSYN02920510 70606 81716 83622 88640MET030TEMPO 7000       ?     5ST007?
0095039620999991980010306304+52683-008917FM-15+0014EINN V0201801N00361005101CN0112001N1+00901+00901999999ADDGA1061+005109079GA2071+007209059MA1100811999999MW1611REMMET030TEMPO 7000       ?     5ST007?
0159039620999991980010307004+52683-008917SY-MT+0014EINN V0201901N00361003901CN0112001N1+01001+00901100781ADDAY161999GA1061+003909079GA2071+004809079GF108991081061004501999999MA1100711999999MD1710241+9999MW1211REMSYN01186713 87716MET029TEMPO      ?     7000 5ST007?
0090039620999991980010307304+52683-008917FM-15+0014EINN V0202001N00461003601CN0112001N1+01001+00901999999ADDGA1061+003609079GA2071+004809079MA1100711999999MW1211REMMET025TEMPO 70005ST007       ??
0167039620999991980010308004+52683-008917SY-MT+0014EINN V0201901N00461003901CN0112001N1+01001+01001100711ADDAY121999GA1041+002709079GA2071+003909079GF108991081061002501999999MA1100711999999MD1710211+9999MW1021REMSYN01184709 87713MET018TEMPO 7000 5ST007?EQDQ01+000000PRSWM2
0119039620999991980010308304+52683-008917FM-15+0014EINN V0201901N00461003901CN0112001N1+01001+01001999999ADDGA1021+002709079GA2041+003909079GA3051+005409079MA1100611999999REMMET025TEMPO 70005ST007       ??EQDQ01+000000PRSWM2
0196039620999991980010309004+52683-008917SY-MT+0014EINN V0201901N00461003901CN0112001N1+01101+01001100661ADDAY161999GA1021+002709079GA2051+003909079GA3071+005109079GF108991081061002501999999MA1100611999999MD1710191+9999MW1581WG199370999999REMSYN01782709 85713 87717MET030TEMPO 7000       ?     5ST007?
0110039620999991980010309304+52683-008917FM-15+0014EINN V0201901N00461003601CN0112001N1+01101+01001999999ADDGA1021+002709079GA2051+003609079GA3071+005109079MA1100611999999MW1601REMMET029TEMPO      ?     7000 5ST007?
0158039620999991980010310004+52683-008917SY-MT+0014EINN V0202001N00511003601CN0112001N1+01101+01001100611ADDAY161999GA1021+002409079GA2051+003609079GA3081+006009059GF108991081061002501999999MA1100611999999MD1710141+9999MW1581REMSYN01783708 85712 87718MET006NOSIG?
0087039620999991980010310304+52683-008917FM-15+0014EINN V0201901N00361003601CN0112001N1+00601+00601999999ADDGA1021+002409079GA2051+003609079GA3081+006009059MA1100511999999MW1611REMMET006NOSIG?
0164039620999991980010311004+52683-008917SY-MT+0014EINN V0202001N00361004201CN0112001N1+01101+01001100561ADDAY161999GA1021+002409079GA2051+004209079GA3071+006009059GF107991071061002501999999MA1100511999999MD1710151+9999MW1201MW2211REMSYN01782708 85714 87620MET006NOSIG?
0087039620999991980010311304+52683-008917FM-15+0014EINN V0202101N00461003301CN0112001N1+01101+01001999999ADDGA1021+002709079GA2041+003309079GA3061+006009059MA1100511999999MW1211REMMET006NOSIG?
0194039620999991980010312004+52683-008917SY-MT+0014EINN V0202001N00461003601CN0112001N1+01101+01001100461ADDAA106002091AY161999GA1011+002709079GA2051+003609079GA3071+005409079GF108991081061002501999999MA1100411999999MD1710201+9999MW1581REMSYN023702// 81709 85712 87718MET006NOSIG?EQDQ01  00203PRCP99
0087039620999991980010312304+52683-008917FM-15+0014EINN V0201801N00361003901CN0112001N1+01101+01001999999ADDGA1011+002709079GA2051+003909079GA3061+005409079MA1100311999999MW1601REMMET006NOSIG?
0172039620999991980010313004+52683-008917SY-MT+0014EINN V0202001N00461005401CN0112001N1+01201+01101100291ADDAY151999GA1011+002709079GA2031+003609079GA3051+005409079GF108991061061002501071999MA1100201999999MD1710321+9999MW1601WG199990299999REMSYN01781709 83712 85718MET006NOSIG?
0087039620999991980010313304+52683-008917FM-15+0014EINN V0202001N00511007501CN0112001N1+01201+01101999999ADDGA1011+003609079GA2041+004809079GA3061+007509059MA1100201999999MW1211REMMET006NOSIG?
0172039620999991980010314004+52683-008917SY-MT+0014EINN V0202001N00561005101CN0112001N1+01201+01101100181ADDAY161999GA1021+003609079GA2051+005109079GA3071+007509059GF108991081061004501999999MA1100101999999MD1710381+9999MW1211WG199370999999REMSYN01782712 85717 87625MET006NOSIG?
0101039620999991980010314304+52683-008917FM-15+0014EINN V0202001N00611004501CN0112001N1+01201+01101999999ADDGA1021+003609079GA2051+004509079GA3071+007509059REMMET006NOSIG?EQDQ01+029853APOA  Q02+000000PRSWM2
0177039620999991980010315004+52683-008917SY-MT+0014EINN V0202001N00561004801CN0112001N1+01201+01001100071ADDAY161999GA1011+003609079GA2061+004809079GA3071+007509059GF108991081061004501999999MA1100001999999MD1710391+9999MW1021REMSYN01782712 86716 87625MET006NOSIG?EQDQ01+000000PRSWM2
0100039620999991980010315304+52683-008917FM-15+0014EINN V0202001N00561005101CN0112001N1+01201+01001999999ADDGA1021+003609079GA2061+005109079GA3071+007509059MA1100001999999REMMET006NOSIG?EQDQ01+000000PRSWM2
0155039620999991980010316004+52683-008917SY-MT+0014EINN V0202001N00611005101CN0112001N1+01201+01001099971ADDAY121999GA1031+003609079GA2071+005109079GF108991081061004501999999MA1099901999999MD1710321+9999MW1021REMSYN01183712 87717MET006NOSIG?EQDQ01+000000PRSWM2
0111039620999991980010316304+52683-008917FM-15+0014EINN V0202001N00771004501CN0112001N1+01201+01001999999ADDGA1031+002709079GA2051+004509079GA3061+006009059MA1099901999999MW1601REMMET030TEMPO 8000       ?     5ST008?
0189039620999991980010317004+52683-008917SY-MT+0014EINN V0202001N00561004501CN0090001N1+01201+01001099901ADDAY161999GA1031+002709079GA2061+004509079GA3081+006009059GF108991081061002501999999MA1099801999999MD1710281+9999MW1581REMSYN01783709 86715 88620MET037TEMPO 6000       ?     5ST008 8ST015?
0117039620999991980010317304+52683-008917FM-15+0014EINN V0201901N00611004201CN0070001N1+01101+01001999999ADDGA1021+002709079GA2051+004209079GA3081+005409079MA1099801999999MW1581REMMET036TEMPO      ?     6000 5ST008 8ST015?
0194039620999991980010318004+52683-008917SY-MT+0014EINN V0201901N00611003001CN0060001N1+01101+01101099821ADDAA199004091AY161999GA1021+002409079GA2051+003009079GA3081+003909079GF108991081071002501999999KA1999M+01201MA1099801999999MD1710251+9999MW1591REMSYN02970412 82708 85710 88713 94000MET006NOSIG?
0087039620999991980010318304+52683-008917FM-15+0014EINN V0202701N00721003001CN0060001N1+01101+01101999999ADDGA1041+002109079GA2061+003009079GA3081+004209079MA1099701999999MW1631REMMET006NOSIG?
0176039620999991980010319004+52683-008917SY-MT+0014EINN V0202701N00611003601CN0060001N1+00901+00901099901ADDAY161999GA1031+002109079GA2031+003609079GA3081+006609059GF108991081071002501999999MA1099801999999MD1510071+9999MW1581REMSYN03583707 83712 88622 91319 91328 90068MET006NOSIG?
0087039620999991980010319304+52683-008917FM-15+0014EINN V0202701N00561003601CN0050001N1+00901+00801999999ADDGA1021+002109079GA2041+003609079GA3061+006609059MA1099901999999MW1581REMMET006NOSIG?
0158039620999991980010320004+52683-008917SY-MT+0014EINN V0202701N00511015001CN0070001N1+00901+00801099971ADDAY161999GA1011+002109079GA2031+003609079GA3081+015009059GF108991081051002501999999MA1099901999999MD1310071+9999MW1581REMSYN01781707 83712 88650MET006NOSIG?
0071039620999991980010320304+52683-008917FM-15+0014EINN V0202701N00561013501CN0112001N1+00901+00901999999ADDGA1031+003609079GA2081+013509059MA1099901999999MW1581REMMET006NOSIG?
0172039620999991980010321004+52683-008917SY-MT+0014EINN V0202601N00411012001CN0112001N1+00801+00701099971ADDAY151999GA1011+003609079GA2031+007509059GA3081+012009059GF108991081051004501999999MA1099901999999MD1110151+9999MW1611WG199370999999REMSYN01781712 83625 88640MET006NOSIG?
0087039620999991980010321304+52683-008917FM-15+0014EINN V0202701N00561012001CN0112001N1+00801+00701999999ADDGA1011+003609079GA2031+006609059GA3061+012009059MA1100001999999MW1211REMMET006NOSIG?
0158039620999991980010322004+52683-008917SY-MT+0014EINN V0202701N00461012001CN0200001N1+00801+00701100021ADDAY161999GA1031+006009059GA2061+012009059GA3061+027009039GF108991061051008001031999MA1100001999999MD1310121+9999MW1211REMSYN01783620 86640 86359MET006NOSIG?
0084039620999991980010322304+52683-008917FM-15+0014EINN V0202601N00561012001CN0112001N1+00801+00601999999ADDGA1031+006009059GA2061+012009059MA1100001999999REMMET006NOSIG?EQDQ01+000000PRSWM2
0155039620999991980010323004+52683-008917SY-MT+0014EINN V0202701N00561012001CN0112001N1+00801+00601100091ADDAY121999GA1031+006009089GA2051+012009059GF105991051081008001031999MA1100001999999MD1310121+9999MW1011REMSYN01183820 85640MET006NOSIG?EQDQ01+000000PRSWM2
0100039620999991980010323304+52683-008917FM-15+0014EINN V0202701N00611027001CN0112001N1+00801+00501999999ADDGA1011+006009089GA2031+012009059GA3061+027009049MA1100101999999REMMET006NOSIG?EQDQ01+000000PRSWM2
0210039620999991980010400004+52683-008917SY-MT+0014EINN V0202701N00361012001CN0112001N1+00701+00401100171ADDAA106004091AY161999GA1021+006009089GA2051+012009059GA3061+027009049GF107991051081008001071999MA1100101999999MD1210191+9999MW1031REMSYN023704// 82820 85640 86459MET006NOSIG?EQDQ01+000000PRSWM2Q02  00403PRCP99
0100039620999991980010400304+52683-008917FM-15+0014EINN V0202701N00661012001CN0112001N1+00701+00301999999ADDGA1021+006009089GA2031+012009059GA3051+027009049MA1100101999999REMMET006NOSIG?EQDQ01+000000PRSWM2
0177039620999991980010401004+52683-008917SY-MT+0014EINN V0202701N00611027001CN0112001N1+00701+00201100181ADDAY121999GA1011+006009089GA2031+012009059GA3051+027009049GF106991031081008001071081MA1100101999999MD1110151+9999MW1011REMSYN01781820 83640 85459MET006NOSIG?EQDQ01+000000PRSWM2
0084039620999991980010401304+52683-008917FM-15+0014EINN V0202501N00461220001CN0112001N1+00701+00301999999ADDGA1011+006009089GA2031+012009059MA1100101999999REMMET006NOSIG?EQDQ01+000000PRSWM2
0169039620999991980010402004+52683-008917SY-MT+0014EINN V0202501N00461220001CN0112001N1+00601+00301100201ADDAY111999GA1011+006009089GA2031+012009059GF103991031081008001001001MA1100101999999MD1110101+9999MW1011WG199370999999REMSYN01181820 83640MET006NOSIG?EQDQ01+000000PRSWM2
0055039620999991980010402304+52683-008917FM-15+0014EINN V0202701N00611220001CN0112001N1+00601+00301999999ADDGA1011+006009089MA1100101999999MW1251REMMET006NOSIG?
0136039620999991980010403004+52683-008917SY-MT+0014EINN V0202501N00821012001CN0112001N1+00601+00401100201ADDAY181999GA1031+006009089GA2031+012009059GF105991051081008001001001MA1100101999999MD1110031+9999MW1251REMSYN01183820 83640MET006NOSIG?
0071039620999991980010403304+52683-008917FM-15+0014EINN V0202601N00561012001CN0112001N1+00601+00301999999ADDGA1021+006009089GA2031+012009059MA1100201999999MW1251REMMET006NOSIG?
0131039620999991980010404004+52683-008917SY-MT+0014EINN V0202601N00511220001CN0300001N1+00601+00301100211ADDAY181999GA1011+006009089GF102991021081008001001001MA1100201999999MD1210031+9999MW1251OA199901231REMSYN01181820 91124MET006NOSIG?
0055039620999991980010404304+52683-008917FM-15+0014EINN V0202401N00361220001CN0112001N1+00601+00401999999ADDGA1031+006009089MA1100201999999MW1251REMMET006NOSIG?
0133039620999991980010405004+52683-008917SY-MT+0014EINN V0202101N00301220001CN0112001N1+00501+00301100211ADDAY101999GA1011+006609089GF102991021081008001001001MA1100201999999MD1110011+9999MW1021REMSYN00581822MET006NOSIG?EQDQ01+000000PRSWM2
0071039620999991980010405304+52683-008917FM-15+0014EINN V0202401N00821012001CN0112001N1+00601+00301999999ADDGA1021+006609089GA2031+012009059MA1100101999999MW1251REMMET006NOSIG?
0207039620999991980010406004+52683-008917SY-MT+0014EINN V0202501N00661012001CN0112001N1+00601+00401100181ADDAA199004091AJ100009199999999AY181999GA1041+006609089GA2031+012009059GF106991061081008001999999IA1089IA2999+00309KA1999N+00501MA1100101999999MD1810021+9999MW1801REMSYN02320310 70405 84822 83640MET006NOSIG?
0131039620999991980010407004+52683-008917SY-MT+0014EINN V0202501N00511220001CN0112001N1+00601+00201100161ADDAY181999GA1021+006609099GF102991021031008001001001MA1100101999999MD1810051+9999MW1251OA199901121REMSYN01182922 91122MET006NOSIG?
0055039620999991980010407304+52683-008917FM-15+0014EINN V0202201N00511220001CN0112001N1+00501+00301999999ADDGA1021+006609099MA1100101999999MW1251REMMET006NOSIG?
0136039620999991980010408004+52683-008917SY-MT+0014EINN V0202301N00661012001CN0112001N1+00501+00301100161ADDAY181999GA1031+006609099GA2031+012009059GF105991051031008001001001MA1100101999999MD1610051+9999MW1251REMSYN01183922 83640MET006NOSIG?
0055039620999991980010408304+52683-008917FM-15+0014EINN V0202101N00411220001CN0112001N1+00501+00201999999ADDGA1021+006609099MA1100101999999MW1251REMMET006NOSIG?
0131039620999991980010409004+52683-008917SY-MT+0014EINN V0202501N00461220001CN0112001N1+00501+00301100161ADDAY181999GA1031+006609099GF103991031031008001001001MA1100101999999MD1610021+9999MW1801OA199901121REMSYN01183922 91122MET006NOSIG?
0155039620999991980010410004+52683-008917SY-MT+0014EINN V0202101N00461220001CN0112001N1+00601+00401100141ADDAY181999GA1031+006609089GA2011+006609099GF103991031031008001001001MA1100101999999MD1810021+9999MW1251REMSYN01183822 81922MET006NOSIG?EQDQ01+000000PRSWM2
0084039620999991980010410304+52683-008917FM-15+0014EINN V0202101N00721220001CN0112001N1+00701+00401999999ADDGA1031+006009099GA2021+006009099MA1100101999999REMMET006NOSIG?EQDQ01+000000PRSWM2
0177039620999991980010411004+52683-008917SY-MT+0014EINN V0202101N00661006001CN0112001N1+00601+00301100141ADDAY111999GA1051+006009089GA2021+006009099GA3031+012009059GF107991071031008001999999MA1100101999999MD1710021+9999MW1031REMSYN01785820 83640 82920MET006NOSIG?EQDQ01+000000PRSWM2
0084039620999991980010411304+52683-008917FM-15+0014EINN V0202301N00871012001CN0112001N1+00601+00301999999ADDGA1031+006609099GA2051+012009059MA1100101999999REMMET006NOSIG?EQDQ01+000000PRSWM2
0150039620999991980010412004+52683-008917SY-MT+0014EINN V0202401N00661220001CN0112001N1+00601+00301100101ADDAA106001091AY181999GF104991041091008001001031MA1100001999999MD1810061+9999MW1011REMSYN011701// 82922MET006NOSIG?EQDQ01+000000PRSWM2Q02  00103PRCP99
0079039620999991980010412304+52683-008917FM-15+0014EINN V0202301N00971006001CN0112001N1+00701+00301999999ADDGA1051+006009099GA2031+012009059MA1100001999999MW1801OC101491REMMET006NOSIG?
0131039620999991980010413004+52683-008917SY-MT+0014EINN V0202201N00661220001CN0112001N1+00701+00301100041ADDAY181999GA1031+006609099GF103991031091008001001001MA1100001999999MD1810101+9999MW1251OA199901481REMSYN01183922 91129MET006NOSIG?
0055039620999991980010413304+52683-008917FM-15+0014EINN V0202301N00611006001CN0112001N1+00701+00401999999ADDGA1051+006009099MA1100001999999MW1251REMMET006NOSIG?
0136039620999991980010414004+52683-008917SY-MT+0014EINN V0202301N00661006601CN0112001N1+00701+00301100011ADDAY181999GA1021+004509079GA2061+006609099GF107991071031004501999999MA1100001999999MD1710131+9999MW1801REMSYN01182715 86922MET006NOSIG?
0071039620999991980010414304+52683-008917FM-15+0014EINN V0202701N00251006001CN0112001N1+00701+00401999999ADDGA1021+005109079GA2031+006009099MA1099901999999MW1251REMMET006NOSIG?
0136039620999991980010415004+52683-008917SY-MT+0014EINN V0202501N00511006601CN0112001N1+00701+00501099961ADDAY181999GA1021+004509079GA2051+006609099GF105991051091004501001021MA1099901999999MD1710141+9999MW1801REMSYN01182715 84922MET006NOSIG?
0071039620999991980010415304+52683-008917FM-15+0014EINN V0202301N00611006601CN0112001N1+00701+00401999999ADDGA1021+004509079GA2051+006609099MA1099901999999MW1801REMMET006NOSIG?
0152039620999991980010416004+52683-008917SY-MT+0014EINN V0202301N00771006601CN0112001N1+00701+00401099941ADDAY181999GA1021+004509079GA2021+004509079GA3051+006609099GF106991061091004501001001MA1099901999999MD1710101+9999MW1801REMSYN01182715 85922MET006NOSIG?
0071039620999991980010416304+52683-008917FM-15+0014EINN V0202601N00871006601CN0112001N1+00601+00401999999ADDGA1021+004509079GA2051+006609099MA1099901999999MW1801REMMET006NOSIG?
0087039620999991980010417004+52683-008917FM-12+0014EINN V0202501N00411220001CN0250001N9+00601+00401099971ADDAY181999GA1031+006609099GF103991031091008001001001MD1510041+9999MW1251REMSYN00583922
0071039620999991980010417304+52683-008917FM-15+0014EINN V0202401N00511075001CN0112001N1+00601+00401999999ADDGA1021+006609099GA2041+075009009MA1099901999999MW1251REMMET006NOSIG?
0185039620999991980010418004+52683-008917SY-MT+0014EINN V0202301N00611075001CN0112001N1+00601+00401100011ADDAA199003091AY181999GA1021+006609099GA2041+075009009GF105991021091008001001021KA1999M+00801MA1100001999999MD1310051+9999MW1031REMSYN01770308 82922 84075MET006NOSIG?EQDQ01+000000PRSWM2
0084039620999991980010418304+52683-008917FM-15+0014EINN V0202401N00511075001CN0112001N1+00601+00401999999ADDGA1031+006609099GA2041+075009009MA1100001999999REMMET006NOSIG?EQDQ01+000000PRSWM2
0142039620999991980010419004+52683-008917SY-MT+0014EINN V0202501N00511006601CN0112001N1+00601+00401100031ADDAY181999GA1051+006609099GA2041+060009009GF107991051091008001999031MA1100001999999MD1210091+9999MW1251REMSYN01785922 84070 94025MET006NOSIG?
0071039620999991980010419304+52683-008917FM-15+0014EINN V0202401N00411060001CN0112001N1+00601+00401999999ADDGA1041+006609099GA2051+060009009MA1100001999999MW1251REMMET006NOSIG?
0150039620999991980010420004+52683-008917SY-MT+0014EINN V0202601N00411006601CN0112001N1+00601+00401100061ADDAY181999GA1051+006609099GA2041+060009009GF107991051091008001999031MA1100001999999MD1210091+9999MW1801WG199370999999REMSYN01185922 84070MET006NOSIG?
0071039620999991980010420304+52683-008917FM-15+0014EINN V0202801N00411060001CN0112001N1+00601+00501999999ADDGA1031+006609099GA2041+060009009MA1100001999999MW1251REMMET006NOSIG?
0136039620999991980010421004+52683-008917SY-MT+0014EINN V0202801N00301012001CN0112001N1+00601+00501100131ADDAY181999GA1021+006609099GA2031+012009059GF105991041091008001001031MA1100101999999MD1310121+9999MW1251REMSYN01182922 83640MET006NOSIG?
0071039620999991980010421304+52683-008917FM-15+0014EINN V0202901N00721012001CN0112001N1+00701+00401999999ADDGA1021+006609099GA2031+012009059MA1100101999999MW1251REMMET006NOSIG?
0133039620999991980010422004+52683-008917SY-MT+0014EINN V0202801N00511220001CN0112001N1+00701+00401100231ADDAY111999GA1021+006609099GF104991031091008001001031MA1100201999999MD1210201+9999MW1011REMSYN00582922MET006NOSIG?EQDQ01+000000PRSWM2
0084039620999991980010422304+52683-008917FM-15+0014EINN V0202901N00561075001CN0112001N1+00701+00401999999ADDGA1021+006609099GA2051+075009009MA1100201999999REMMET006NOSIG?EQDQ01+000000PRSWM2
0147039620999991980010423004+52683-008917SY-MT+0014EINN V0203001N00561075001CN0112001N1+00701+00401100311ADDAY181999GA1021+006609099GA2041+075009009GF106991031091008001001031MA1100311999999MD1210251+9999MW1251OA199901691REMSYN01182922 91133MET006NOSIG?
0071039620999991980010423304+52683-008917FM-15+0014EINN V0203001N00561075001CN0112001N1+00701+00401999999ADDGA1021+006609099GA2051+075009009MA1100311999999MW1251REMMET006NOSIG?
0205039620999991980010500004+52683-008917SY-MT+0014EINN V0203001N00921075001CN0112001N1+00701+00401100391ADDAA106002091AY181999GA1041+006609099GA2031+075009009GF107991051091008001001031MA1100311999999MD1210261+9999MW1801OA199901691REMSYN023702// 84922 83075 91133MET006NOSIG?EQDQ01+000000PRSWM2Q02  00203PRCP99
0055039620999991980010500304+52683-008917FM-15+0014EINN V0203001N00721220001CN0112001N1+00701+00301999999ADDGA1031+006609099MA1100411999999MW1801REMMET006NOSIG?
0114039620999991980010501004+52683-008917SY-MT+0014EINN V0203001N00721220001CN0112001N1+00701+00401100481ADDAY181999GA1021+006609089GF103991031081008001001001MA1100411999999MD1210251+9999MW1251REMSYN00582822MET006NOSIG?
0055039620999991980010501304+52683-008917FM-15+0014EINN V0203001N00821220001CN0112001N1+00801+00401999999ADDGA1011+006609089MA1100411999999MW1251REMMET006NOSIG?
0133039620999991980010502004+52683-008917SY-MT+0014EINN V0203001N00921220001CN0112001N1+00801+00401100531ADDAY101999GA1011+006609089GF101991011081008001001001MA1100511999999MD1210231+9999MW1011REMSYN00581822MET006NOSIG?EQDQ01+000000PRSWM2
0063039620999991980010502304+52683-008917FM-15+0014EINN V0203101N00771220001CN0112001N1+00701+00301999999ADDGA1021+006609089MA1100511999999MW1801OC101441REMMET006NOSIG?
0131039620999991980010503004+52683-008917SY-MT+0014EINN V0203001N00821220001CN0112001N1+00701+00401100621ADDAY181999GA1041+006609089GF104991041021008001001001MA1100611999999MD1210231+9999MW1251OA199901431REMSYN01184822 91128MET006NOSIG?
0172039620999991980010504004+52683-008917SY-MT+0014EINN V0203001N00771220001CN0112001N1+00801+00401100661ADDAY121999GA1021+006609089GA2031+010509059GF104991041081008001001001MA1100611999999MD1210191+9999MW1021OA199901381REMSYN01782822 83635 91127MET006NOSIG?EQDQ01+000000PRSWM2
0055039620999991980010504304+52683-008917FM-15+0014EINN V0203001N00661220001CN0112001N1+00701+00501999999ADDGA1031+006609089MA1100711999999MW1251REMMET006NOSIG?
0153039620999991980010505004+52683-008917SY-MT+0014EINN V0203101N00561012001CN0112001N1+00701+00501100751ADDAY181999GA1031+006609099GA2051+012009059GF106991061031008001999999MA1100711999999MD1210211+9999MW1251OA199901231REMSYN01783922 85640 91124MET006NOSIG?
0055039620999991980010505304+52683-008917FM-15+0014EINN V0203001N00871220001CN0112001N1+00701+00501999999ADDGA1031+006609099MA1100711999999MW1251REMMET006NOSIG?
0202039620999991980010506004+52683-008917SY-MT+0014EINN V0203001N00871220001CN0112001N1+00701+00401100821ADDAA199002091AJ100009199999999AY181999GA1021+006609099GF102991021031008001001021IA1089IA2999+00409KA1999N+00601MA1100811999999MD1210191+9999MW1251OA199901691REMSYN02320410 70206 82922 91133MET006NOSIG?
0068039620999991980010506304+52683-008917FM-15+0014EINN V0203001N00771220001CN0112001N1+00701+00301999999ADDGA1011+006609099MA1100811999999REMMET006NOSIG?EQDQ01+000000PRSWM2
0150039620999991980010507004+52683-008917SY-MT+0014EINN V0202901N00661220001CN0112001N1+00701+00301100851ADDAY101999GA1021+006609099GF102991021031008001001001MA1100811999999MD1110181+9999MW1011OA199901741REMSYN01182922 91134MET006NOSIG?EQDQ01+000000PRSWM2
0071039620999991980010507304+52683-008917FM-15+0014EINN V0203001N00771012001CN0112001N1+00701+00301999999ADDGA1031+006609099GA2031+012009059MA1100811999999MW1251REMMET006NOSIG?
0131039620999991980010508004+52683-008917SY-MT+0014EINN V0202901N00821220001CN0112001N1+00701+00301100901ADDAY181999GA1031+006609099GF103991031031008001001001MA1100911999999MD1210161+9999MW1251OA199901331REMSYN01183922 91126MET006NOSIG?
0068039620999991980010508304+52683-008917FM-15+0014EINN V0203001N00721220001CN0112001N1+00701+00301999999ADDGA1031+006609099MA1100911999999REMMET006NOSIG?EQDQ01+000000PRSWM2
0145039620999991980010509004+52683-008917SY-MT+0014EINN V0203001N00721220001CN0112001N1+00701+00401100981ADDAY181999GA1021+006609099GF104991031031008001001021MA1100911999999MD1310171+9999MW1251OA199901691WG199010999999REMSYN01182922 91133MET006NOSIG?
0055039620999991980010509304+52683-008917FM-15+0014EINN V0203001N00611220001CN0112001N1+00701+00401999999ADDGA1021+006609099MA1101021999999MW1251REMMET006NOSIG?
0153039620999991980010510004+52683-008917SY-MT+0014EINN V0202901N00511007501CN0112001N1+00701+00401101091ADDAY181999GA1031+006009089GA2011+006009099GF105991051031008001001001MA1101021999999MD1310241+9999MW1251OA199901281REMSYN01783820 81920 91125MET006NOSIG?
0071039620999991980010510304+52683-008917FM-15+0014EINN V0202901N00611015001CN0112001N1+00801+00501999999ADDGA1021+006009099GA2031+015009059MA1101081999999MW1251REMMET006NOSIG?
0153039620999991980010511004+52683-008917SY-MT+0014EINN V0202901N00661012001CN0112001N1+00801+00601101131ADDAY181999GA1021+006009089GA2031+012009059GF106991051081008001001021MA1101081999999MD1110231+9999MW1251OA199901231REMSYN01782820 83640 91124MET006NOSIG?
0087039620999991980010511304+52683-008917FM-15+0014EINN V0202901N00871006001CN0112001N1+00801+00601999999ADDGA1021+004209079GA2041+006009089GA3051+009009059MA1101081999999MW1251REMMET006NOSIG?
0214039620999991980010512004+52683-008917SY-MT+0014EINN V0202901N01021006601CN0112001N1+00801+00601101191ADDAA106999999AA299000191AY181999GA1051+006609089GA2021+006609099GF107991071031008001999999MA1101081999999MD1210221+9999MW1801OA199901531OC101541REMSYN029791// 85822 82922 91130 97175MET006NOSIG?EQDQ01  00002PRCP06
0071039620999991980010512304+52683-008917FM-15+0014EINN V0202901N00871006601CN0112001N1+00801+00501999999ADDGA1051+006609089GA2021+006609099MA1101081999999MW1801REMMET006NOSIG?
0150039620999991980010513004+52683-008917SY-MT+0014EINN V0202901N00661006601CN0112001N1+00801+00601101201ADDAY181999GA1051+006609089GF107991061081008001001021MA1101081999999MD1110121+9999MW1251OA199901331REMSYN01185822 91126MET006NOSIG?EQDQ01+000000PRSWM2
0071039620999991980010513304+52683-008917FM-15+0014EINN V0202901N01021005701CN0112001N1+00901+00601999999ADDGA1051+005709089GA2021+005709099MA1101081999999MW1251REMMET006NOSIG?
0153039620999991980010514004+52683-008917SY-MT+0014EINN V0202901N00821220001CN0112001N1+00901+00501101201ADDAY181999GA1031+006009089GA2031+013509059GF104991041081008001001021MA1101081999999MD1110071+9999MW1251OA199901591REMSYN01783820 83645 91131MET006NOSIG?
0087039620999991980010514304+52683-008917FM-15+0014EINN V0202901N00661005101CN0112001N1+00901+00601999999ADDGA1051+005109089GA2021+005109099GA3051+013509059MA1101191999999MW1251REMMET006NOSIG?
0153039620999991980010515004+52683-008917SY-MT+0014EINN V0203001N00771060001CN0112001N1+00801+00601101251ADDAY181999GA1041+005109089GA2041+060009009GF106991051081004501001021MA1101191999999MD1310061+9999MW1251OA199901431REMSYN01784817 84070 91128MET006NOSIG?
0071039620999991980010515304+52683-008917FM-15+0014EINN V0202901N00921220001CN0112001N1+00801+00601999999ADDGA1021+006009089GA2031+060009009MA1101191999999MW1251REMMET006NOSIG?
0136039620999991980010516004+52683-008917SY-MT+0014EINN V0202901N00821013501CN0112001N1+00801+00601101271ADDAY181999GA1031+005109099GA2031+013509059GF106991051091004501001021MA1101191999999MD1310071+9999MW1251REMSYN01183917 83645MET006NOSIG?
0055039620999991980010516304+52683-008917FM-15+0014EINN V0202901N00561220001CN0112001N1+00701+00601999999ADDGA1031+006009089MA1101291999999MW1801REMMET006NOSIG?
0131039620999991980010517004+52683-008917SY-MT+0014EINN V0202901N00771220001CN0112001N1+00701+00601101341ADDAY181999GA1031+005109099GF104991041091004501001021MA1101291999999MD1210131+9999MW1801OA199901231REMSYN0113917  91124MET006NOSIG?
0071039620999991980010517304+52683-008917FM-15+0014EINN V0202901N00661013501CN0112001N1+00701+00601999999ADDGA1021+006009099GA2041+013509059MA1101291999999MW1251REMMET006NOSIG?
0172039620999991980010518004+52683-008917SY-MT+0014EINN V0202901N00721013501CN0112001N1+00701+00601101391ADDAA199002091AY181999GA1031+006009099GA2031+013509059GF105991051091008001001031KA1999M+00901MA1101291999999MD1210131+9999MW1801REMSYN02370209 83920 83645 94008MET006NOSIG?
0071039620999991980010518304+52683-008917FM-15+0014EINN V0202801N00411013501CN0112001N1+00701+00501999999ADDGA1031+006009099GA2041+013509059MA1101391999999MW1251REMMET006NOSIG?
0158039620999991980010519004+52683-008917SY-MT+0014EINN V0202801N00361006601CN0112001N1+00701+00501101441ADDAY181999GA1021+005409079GA2041+006609099GA3051+013509059GF107991071031004501999999MA1101391999999MD1210161+9999MW1251REMSYN01782718 84922 85645MET006NOSIG?
0084039620999991980010519304+52683-008917FM-15+0014EINN V0202901N00301220001CN0112001N1+00701+00601999999ADDGA1011+005409079GA2041+007509099MA1101391999999REMMET006NOSIG?EQDQ01+000000PRSWM2
0155039620999991980010520004+52683-008917SY-MT+0014EINN V0202801N00361013501CN0112001N1+00701+00501101461ADDAY121999GA1041+007509099GA2041+013509059GF107991071031008001999999MA1101391999999MD1110121+9999MW1011REMSYN01184925 84645MET006NOSIG?EQDQ01+000000PRSWM2
0084039620999991980010520304+52683-008917FM-15+0014EINN V0203301N00251007501CN0112001N1+00701+00501999999ADDGA1051+007509099GA2051+013509059MA1101391999999REMMET006NOSIG?EQDQ01+000000PRSWM2
0161039620999991980010521004+52683-008917SY-MT+0014EINN V0202801N00301007501CN0112001N1+00701+00601101491ADDAY181999GA1051+007509099GA2051+013509059GF107991071031008001999999MA1101391999999MD1110101+9999MW1031REMSYN01785825 85645 82925MET006NOSIG?EQDQ01+000000PRSWM2
0087039620999991980010521304+52683-008917FM-15+0014EINN V0202901N00301007501CN0112001N1+00701+00501999999ADDGA1021+004509079GA2051+007509099GA3051+013509059MA1101491999999MW1251REMMET006NOSIG?
0158039620999991980010522004+52683-008917SY-MT+0014EINN V0202901N00871007501CN0112001N1+00701+00601101531ADDAY181999GA1021+003909079GA2051+007509089GA3051+013509059GF107991071081004501999999MA1101491999999MD1210091+9999MW1251REMSYN01782713 85825 85645MET006NOSIG?
0087039620999991980010522304+52683-008917FM-15+0014EINN V0203101N00461007501CN0112001N1+00701+00501999999ADDGA1021+004509079GA2061+007509089GA3051+013509059MA1101491999999MW1251REMMET006NOSIG?
0158039620999991980010523004+52683-008917SY-MT+0014EINN V0202901N00361012001CN0112001N1+00701+00601101531ADDAY181999GA1011+004509079GA2041+007509089GA3061+012009059GF107991071081004501999999MA1101491999999MD1110071+9999MW1801REMSYN01781715 84825 86640MET006NOSIG?
0087039620999991980010523304+52683-008917FM-15+0014EINN V0202901N00201007501CN0112001N1+00601+00501999999ADDGA1021+004509079GA2061+007509089GA3061+012009059MA1101491999999MW1801REMMET006NOSIG?
0172039620999991980010600004+52683-008917SY-MT+0014EINN V0202901N00301007501CN0112001N1+00701+00501101551ADDAA106999929AY181999GA1051+007509089GA2051+012009059GF107991071081008001999999MA1101491999999MD1110061+9999MW1251REMSYN017797// 85825 85640MET006NOSIG?EQDQ01  99993PRCP99
0071039620999991980010600304+52683-008917FM-15+0014EINN V0202701N00361010801CN0112001N1+00701+00401999999ADDGA1021+007509089GA2061+010809059MA1101491999999MW1251REMMET006NOSIG?
0155039620999991980010601004+52683-008917SY-MT+0014EINN V0202501N00301009601CN0112001N1+00701+00401101521ADDAY121999GA1021+007509089GA2061+009609059GF107991071081008001999999MA1101491999999MD1810011+9999MW1021REMSYN01182825 86632MET006NOSOG?EQDQ01+000000PRSWM2
0084039620999991980010601304+52683-008917FM-15+0014EINN V0202901N00411009601CN0112001N1+00701+00201999999ADDGA1011+007509089GA2071+009609059MA1101491999999REMMET006NOSIG?EQDQ01+000000PRSWM2
0155039620999991980010602004+52683-008917SY-MT+0014EINN V0203001N00301009601CN0112001N1+00701+00301101521ADDAY121999GA1011+007509089GA2071+009609059GF107991071081008001999999MA1101491999999MD1610011+9999MW1031REMSYN01181825 87632MET006NOSIG?EQDQ01+000000PRSWM2
0068039620999991980010602304+52683-008917FM-15+0014EINN V0202701N00301009601CN0112001N1+00701+00301999999ADDGA1081+009609059MA1101491999999REMMET006NOSIG?EQDQ01+000000PRSWM2
0133039620999991980010603004+52683-008917SY-MT+0014EINN V0202901N00301009601CN0112001N1+00701+00401101541ADDAY121999GA1081+009609059GF108991081051012501999999MA1101491999999MD1510011+9999MW1031REMSYN00588632MET006NOSIG?EQDQ01+000000PRSWM2
0068039620999991980010603304+52683-008917FM-15+0014EINN V0202901N00251009601CN0112001N1+00701+00401999999ADDGA1081+009609059MA1101491999999REMMET006NOSIG?EQDQ01+000000PRSWM2
0133039620999991980010604004+52683-008917SY-MT+0014EINN V0202801N00301009601CN0112001N1+00701+00401101531ADDAY121999GA1081+009609059GF108991081051012501999999MA1101491999999MD1010011+9999MW1021REMSYN00588632MET006NOSIG?EQDQ01+000000PRSWM2
0133039620999991980010605004+52683-008917SY-MT+0014EINN V0203101N00361009601CN0112001N1+00601+00401101541ADDAY121999GA1081+009609059GF108991081051012501999999MA1101491999999MD1210021+9999MW1021REMSYN00588632MET006NOSIG?EQDQ01+000000PRSWM2
0068039620999991980010605304+52683-008917FM-15+0014EINN V0202901N00251010501CN0112001N1+00701+00401999999ADDGA1081+010509059MA1101491999999REMMET006NOSIG?EQDQ01+000000PRSWM2
0204039620999991980010606004+52683-008917SY-MT+0014EINN V0202801N00251010501CN0112001N1+00601+00401101551ADDAA199999929AJ100009199999999AY121999GA1081+010509059GF108991081051012501999999IA1089IA2999+00509KA1999N+00601MA1101491999999MD1310011+9999MW1021REMSYN01720510 79706 88635MET006NOSIG?EQDQ01+000000PRSWM2
0068039620999991980010606304+52683-008917FM-15+0014EINN V0203101N00251010501CN0112001N1+00601+00401999999ADDGA1081+010509059MA1101491999999REMMET006NOSIG?EQDQ01+000000PRSWM2
0133039620999991980010607004+52683-008917SY-MT+0014EINN V0203001N00201010501CN0112001N1+00601+00401101551ADDAY121999GA1071+010509059GF107991071051012501999999MA1101491999999MD1010021+9999MW1011REMSYN00587635MET006NOSIG?EQDQ01+000000PRSWM2
0068039620999991980010607304+52683-008917FM-15+0014EINN V0203001N00151010501CN0112001N1+00601+00401999999ADDGA1081+010509059MA1101491999999REMMET006NOSIG?EQDQ01+000000PRSWM2
0087039620999991980010608004+52683-008917FM-12+0014EINN V0209991C00001010501CN0300001N9+00601+00401101581ADDAY121999GA1061+010509059GF108991081051012501999999MD1310041+9999MW1031REMSYN00586635
0068039620999991980010608304+52683-008917FM-15+0014EINN V0209991C00001010501CN0112001N1+00601+00401999999ADDGA1071+010509059MA1101491999999REMMET006NOSIG?EQDQ01+000000PRSWM2
0133039620999991980010609004+52683-008917SY-MT+0014EINN V0209991C00001010501CN0112001N1+00601+00401101601ADDAY121999GA1071+010509059GF107991071051012501999999MA1101491999999MD1310051+9999MW1011REMSYN00587635MET006NOSIG?EQDQ01+000000PRSWM2
0068039620999991980010609304+52683-008917FM-15+0014EINN V0209991C00001010501CN0112001N1+00501+00501999999ADDGA1071+010509059MA1101491999999REMMET006NOSIG?EQDQ01+000000PRSWM2
0133039620999991980010610004+52683-008917SY-MT+0014EINN V0209991C00001010501CN0112001N1+00601+00401101621ADDAY121999GA1071+010509059GF107991071051012501999999MA1101591999999MD1210071+9999MW1021REMSYN00587635MET006NOSIG?EQDQ01+000000PRSWM2
0068039620999991980010610304+52683-008917FM-15+0014EINN V0209991C00001010501CN0112001N1+00601+00501999999ADDGA1071+010509059MA1101591999999REMMET006NOSIG?EQDQ01+000000PRSWM2
0133039620999991980010611004+52683-008917SY-MT+0014EINN V0209991C00001010501CN0112001N1+00601+00501101651ADDAY121999GA1071+010509059GF107991071051012501999999MA1101591999999MD1210071+9999MW1021REMSYN00587635MET006NOSIG?EQDQ01+000000PRSWM2
0084039620999991980010611304+52683-008917FM-15+0014EINN V0209991C00001010501CN0112001N1+00601+00501999999ADDGA1061+010509059GA2031+075009009MA1101591999999REMMET006NOSIG?EQDQ01+000000PRSWM2
0188039620999991980010612004+52683-008917SY-MT+0014EINN V0209991C00001010501CN0112001N1+00701+00501101671ADDAA106000091AY121999GA1071+010509059GA2031+075009009GF107991071051012501999999MA1101591999999MD1210071+9999MW1021REMSYN017700// 87635 83075MET006NOSIG?EQDQ01+000000PRSWM2Q02  00003PRCP99
0084039620999991980010612304+52683-008917FM-15+0014EINN V0202301N00101010501CN0112001N1+00701+00501999999ADDGA1011+005409079GA2071+010509059MA1101591999999REMMET006NOSIG?EQDQ01+000000PRSWM2
0155039620999991980010613004+52683-008917SY-MT+0014EINN V0202401N00151009601CN0112001N1+00701+00501101651ADDAY121999GA1011+005409079GA2071+009609059GF107991071051004501999999MA1101591999999MD1010031+9999MW1021REMSYN01181718 87632MET006NOSIG?EQDQ01+000000PRSWM2
0155039620999991980010614004+52683-008917SY-MT+0014EINN V0202801N00101075001CN0112001N1+00801+00501101591ADDAY121999GA1031+009009059GA2051+075009029GF107991031051012501031081MA1101491999999MD1810051+9999MW1011REMSYN01183630 85275MET006NOSIG?EQDQ01+000000PRSWM2
0100039620999991980010614304+52683-008917FM-15+0014EINN V0202801N00101075001CN0112001N1+00801+00601999999ADDGA1011+006009089GA2031+010509059GA3051+075009009MA1101491999999REMMET006NOSIG?EQDQ01+000000PRSWM2
0155039620999991980010615004+52683-008917SY-MT+0014EINN V0202801N00101030001CN0112001N1+00801+00501101601ADDAY121999GA1011+006609089GA2031+012009059GF106991031081008001031021MA1101491999999MD1610061+9999MW1011REMSYN01181820 83640MET006NOSIG?EQDQ01+000000PRSWM2
0084039620999991980010615304+52683-008917FM-15+0014EINN V0209991C00001010501CN0112001N1+00801+00501999999ADDGA1011+006009089GA2051+010509059MA1101591999999REMMET006NOSIG?EQDQ01+000000PRSWM2
0155039620999991980010616004+52683-008917SY-MT+0014EINN V0209991C00001009001CN0112001N1+00701+00401101611ADDAY121999GA1011+006009089GA2051+009009059GF107991061081008001999021MA1101591999999MD1610041+9999MW1031REMSYN01181820 85630MET006NOSIG?EQDQ01+000000PRSWM2
0155039620999991980010617004+52683-008917SY-MT+0014EINN V0200601N00101075001CN0112001N1+00601+00401101561ADDAY121999GA1021+009009059GA2031+075009009GF105991021051012501031021MA1101491999999MD1810041+9999MW1011REMSYN01182630 83075MET006NOSIG?EQDQ01+000000PRSWM2
0084039620999991980010617304+52683-008917FM-15+0014EINN V0200601N00101060001CN0112001N1+00601+00401999999ADDGA1021+009009059GA2051+060009009MA1101591999999REMMET006NOSIG?EQDQ01+000000PRSWM2
0145039620999991980010618004+52683-008917FM-12+0014EINN V0209991C00001060001CN0200001N9+00501+00301101641ADDAA199999929AY121999GA1011+009009059GA2051+060009009GF106991011051012501031021KA1999M+00801MD1310031+9999MW1031REMSYN02379708 81630 85070 94004
0084039620999991980010618304+52683-008917FM-15+0014EINN V0202201N00151060001CN0112001N1+00401+00301999999ADDGA1041+010509059GA2051+060009009MA1101591999999REMMET006NOSIG?EQDQ01+000000PRSWM2
0155039620999991980010619004+52683-008917SY-MT+0014EINN V0202101N00101060001CN0112001N1+00401+00301101661ADDAY121999GA1021+010509059GA2051+060009009GF106991021051012501001021MA1101591999999MD1010051+9999MW1011REMSYN01182635 85070MET006NOSIG?EQDQ01+000000PRSWM2
0084039620999991980010619304+52683-008917FM-15+0014EINN V0209991C00001060001CN0112001N1+00301+00201999999ADDGA1021+010509059GA2051+060009009MA1101591999999REMMET006NOSIG?EQDQ01+000000PRSWM2
0155039620999991980010620004+52683-008917SY-MT+0014EINN V0209991C00001060001CN0112001N1+00401+00301101661ADDAY121999GA1031+010509059GA2041+060009009GF106991031051012501001021MA1101591999999MD1110101+9999MW1021REMSYN01183635 84070MET006NOSIG?EQDQ01+000000PRSWM2
0071039620999991980010620304+52683-008917FM-15+0014EINN V0209991C00001010501CN0112001N1+00301+00201999999ADDGA1051+010509059GA2051+060009009MA1101591999999MW1101REMMET006NOSIG?
0136039620999991980010621004+52683-008917SY-MT+0014EINN V0200901N00151010501CN0112001N1+00401+00301101671ADDAY121999GA1051+010509059GA2051+060009009GF107991051051012501999021MA1101591999999MD1010031+9999MW1101REMSYN01185635 85070MET006NOSIG?
0071039620999991980010621304+52683-008917FM-15+0014EINN V0201001N00201060001CN0050001N1+00401+00301999999ADDGA1031+010509059GA2051+060009009MA1101591999999MW1101REMMET006NOSIG?
0136039620999991980010622004+52683-008917SY-MT+0014EINN V0201101N00151009001CN0112001N1+00401+00301101701ADDAY121999GA1031+003909079GA2071+009009059GF108991081051004501999999MA1101591999999MD1310041+9999MW1101REMSYN01183713 87630MET006NOSIG?
0071039620999991980010622304+52683-008917FM-15+0014EINN V0201101N00251010501CN0080001N1+00401+00301999999ADDGA1021+003909079GA2051+010509059MA1101591999999MW1101REMMET006NOSIG?
0137039620999991980010623004+52683-008917SY-MT+0014EINN V0201001N00251010501CN0080001N1+00401+00301101641ADDAY121999GA1051+010509059GA2051+030009039GF107991051051012501031999MA1101591999999MD1810021+9999MW1101REMSYN01285635 853600MET006NOSIG?
0087039620999991980010623304+52683-008917FM-15+0014EINN V0201001N00201010501CN0112001N1+00401+00301999999ADDGA1021+001509079GA2031+010509059GA3071+030009049MA1101591999999MW1101REMMET006NOSIG?
0194039620999991980010700004+52683-008917SY-MT+0014EINN V0201101N00151030001CN0112001N1+00301+00201101641ADDAA106999929AY121999GA1011+002109079GA2031+010509059GA3071+030009049GF107991031051002501071999MA1101591999999MD1610031+9999MW1101REMSYN023797// 81707 83635 87460MET006NOSIG?EQDQ01  99993PRCP99
0071039620999991980010700304+52683-008917FM-15+0014EINN V0201001N00251060001CN0112001N1+00301+00201999999ADDGA1021+009009059GA2051+060009009MA1101591999999MW1101REMMET006NOSIG?
0155039620999991980010701004+52683-008917SY-MT+0014EINN V0201101N00151220001CN0112001N1+00301+00201101611ADDAY111999GA1011+003009079GA2031+060009009GF103991011061004501001021MA1101591999999MD1710091+9999MW1101REMSYN01181710 83070MET006NOSIG?EQDQ01+000000PRSWM2
0058039620999991980010701304+52683-008917FM-15+0014EINN V0201001N00151999991CY0099001N1+00301+00101999999ADDMA1101491999999REMMET012CAVOK NOSIG?EQDQ01+000000PRSWM2
0139039620999991980010702004+52683-008917SY-MT+0014EINN V0201001N00151220001CN0099001N1+00301+00101101591ADDAY101999GA1021+060009009GF102991001001999999001021MA1101491999999MD1810051+9999MW1101REMSYN00582070MET012CAVOK NOSIG?EQDQ01+000000PRSWM2
0058039620999991980010702304+52683-008917FM-15+0014EINN V0201401N00251999991CY0099001N1+00201+00101999999ADDMA1101491999999REMMET012CAVOK NOSIG?EQDQ01+000000PRSWM2
0139039620999991980010703004+52683-008917SY-MT+0014EINN V0201201N00251220001CN0099001N1+00201+00101101581ADDAY111999GA1041+060009009GF104991001001999999001021MA1101491999999MD1610061+9999MW1101REMSYN00584070MET012CAVOK NOSIG?EQDQ01+000000PRSWM2
0058039620999991980010703304+52683-008917FM-15+0014EINN V0201101N00301999991CY0099001N1+00201+00101999999ADDMA1101491999999REMMET012CAVOK NOSIG?EQDQ01+000000PRSWM2
0139039620999991980010704004+52683-008917SY-MT+0014EINN V0201201N00251060001CN0099001N1+00201+00101101511ADDAY111999GA1061+060009009GF106991001001999999001021MA1101491999999MD1810101+9999MW1101REMSYN00586070MET012CAVOK NOSIG?EQDQ01+000000PRSWM2
0058039620999991980010704304+52683-008917FM-15+0014EINN V0201301N00301999991CY0099001N1+00201+00101999999ADDMA1101491999999REMMET012CAVOK NOSIG?EQDQ01+000000PRSWM2
0161039620999991980010705004+52683-008917SY-MT+0014EINN V0201101N00411060001CN0112001N1+00301+00101101501ADDAY121999GA1011+003009079GA2061+060009009GF106991011061004501001021MA1101491999999MD1810091+9999MW1021REMSYN01781710 86070 94721MET006NOSIG?EQDQ01+000000PRSWM2
0084039620999991980010705304+52683-008917FM-15+0014EINN V0201101N00411060001CN0112001N1+00301+00101999999ADDGA1011+003009079GA2061+060009009MA1101391999999REMMET006NOSIG?EQDQ01+000000PRSWM2
0232039620999991980010706004+52683-008917SY-MT+0014EINN V0201001N00361060001CN0112001N1+00301+00101101471ADDAA199999929AJ100009199999999AY111999GA1011+000909079GA2061+060009009GF106991011061001501001021IA1089IA2999-00109KA1999N+00201MA1101391999999MD1610111+9999MW1021REMSYN02925110 79702 81703 86070 94720MET006NOSIG?EQDQ01+000000PRSWM2
0084039620999991980010706304+52683-008917FM-15+0014EINN V0201001N00461220001CN0112001N1+00301+00101999999ADDGA1011+000909079GA2031+060009009MA1101391999999REMMET006NOSIG?EQDQ01+000000PRSWM2
0155039620999991980010707004+52683-008917SY-MT+0014EINN V0201101N00461220001CN0112001N1+00301+00101101471ADDAY111999GA1011+000909079GA2031+060009009GF103991011061001501001021MA1101391999999MD1610041+9999MW1011REMSYN01181703 83070MET006NOSIG?EQDQ01+000000PRSWM2
0084039620999991980010707304+52683-008917FM-15+0014EINN V0201101N00511220001CN0112001N1+00301+00101999999ADDGA1011+006009059GA2031+060009009MA1101391999999REMMET006NOSIG?EQDQ01+000000PRSWM2
0155039620999991980010708004+52683-008917SY-MT+0014EINN V0201001N00411060001CN0112001N1+00301+00101101501ADDAY111999GA1021+006009059GA2061+060009009GF106991021051008001999021MA1101391999999MD1510001+9999MW1031REMSYN01182620 86070MET006NOSIG?EQDQ01+000000PRSWM2
0100039620999991980010708304+52683-008917FM-15+0014EINN V0201001N00411060001CN0112001N1+00301+00101999999ADDGA1011+006009059GA2041+030009039GA3061+060009009MA1101391999999REMMET006NOSIG?EQDQ01+000000PRSWM2
0177039620999991980010709004+52683-008917SY-MT+0014EINN V0201101N00461060001CN0112001N1+00301+00101101481ADDAY121999GA1011+006009059GA2041+030009039GA3061+060009009GF107991011051008001031021MA1101391999999MD1010011+9999MW1031REMSYN01781620 84360 86070MET006NOSIG?EQDQ01+000000PRSWM2
0087039620999991980010709304+52683-008917FM-15+0014EINN V0201001N00511024001CN0112001N1+00301+00101999999ADDGA1031+009009059GA2061+024009049GA3061+060009029MA1101391999999MW1601REMMET006NOSIG?
0158039620999991980010710004+52683-008917SY-MT+0014EINN V0201101N00561024001CN0112001N1+00301+00101101481ADDAY161999GA1041+009009059GA2061+024009049GA3081+060009029GF108991041051012501071071MA1101391999999MD1010011+9999MW1211REMSYN01784630 86458 88270MET006NOSIG?
0087039620999991980010710304+52683-008917FM-15+0014EINN V0201101N00461009001CN0112001N1+00401+00201999999ADDGA1051+009009059GA2051+024009049GA3081+060009029MA1101391999999MW1211REMMET006NOSIG?
0158039620999991980010711004+52683-008917SY-MT+0014EINN V0201101N00511009001CN0112001N1+00401+00201101481ADDAY161999GA1061+009009059GA2031+024009049GA3061+060009029GF108991061051012501071021MA1101391999999MD1610021+9999MW1601REMSYN01786630 83458 86070MET006NOSIG?
0191039620999991980010712004+52683-008917FM-12+0014EINN V0201101N00411009001CN0150001N9+00501+00301101451ADDAA106999929AY161999GA1061+009009059GA2031+024009049GA3061+060009029GF108991061051012501071061MD1810031+9999MW1601REMSYN047797// 86630 83458 86270 97182 97182 97282 97482EQDQ01  99993PRCP99
0071039620999991980010712304+52683-008917FM-15+0014EINN V0201101N00461006001CN0070001N1+00501+00401999999ADDGA1061+006009059GA2081+012009059MA1101391999999MW1601REMMET006NOSIG?
0136039620999991980010713004+52683-008917SY-MT+0014EINN V0201101N00661007501CN0070001N1+00501+00401101411ADDAY161999GA1061+007509059GA2081+015009059GF108991081051008001999999MA1101391999999MD1810071+9999MW1611REMSYN01186625 88650MET006NOSIG?
0071039620999991980010713304+52683-008917FM-15+0014EINN V0201001N00461007501CN0112001N1+00501+00401999999ADDGA1061+007509059GA2081+013509059MA1101291999999MW1611REMMET006NOSIG?
0158039620999991980010714004+52683-008917SY-MT+0014EINN V0201001N00561008401CN0070001N1+00501+00501101371ADDAY161999GA1021+004509079GA2061+008409059GA3081+013509059GF108991081051004501999999MA1101291999999MD1710111+9999MW1611REMSYN01782715 86628 88645MET006NOSIG?
0087039620999991980010714304+52683-008917FM-15+0014EINN V0201001N00511007801CN0070001N1+00601+00501999999ADDGA1021+004509079GA2061+007809059GA3081+013509049MA1101291999999MW1611REMMET006NOSIG?
0158039620999991980010715004+52683-008917SY-MT+0014EINN V0201101N00511007801CN0070001N1+00601+00501101341ADDAY161999GA1021+004509079GA2061+007809059GA3081+013509049GF108991061051004501021999MA1101291999999MD1710111+9999MW1611REMSYN01782715 86626 88545MET006NOSIG?
0092039620999991980010715304+52683-008917FM-15+0014EINN V0201101N00561007501CN0112001N1+00601+00501999999ADDGA1021+004509079GA2051+007509059GA3081+015009049MA1101291999999MW1611REMMET011TEMPO 8000?
0126039620999991980010716004+52683-008917FM-15+0014EINN V0201101N00561007501CN0080001N1+00601+00501999999ADDGA1031+004509079GA2051+007509059GA3081+015009049MA1101291999999MW1611REMMET045VIS 9999         ?     TO NE SW AND NW NOSIG?
0092039620999991980010716304+52683-008917FM-15+0014EINN V0201201N00511007501CN0112001N1+00601+00501999999ADDGA1031+004209079GA2051+007509059GA3081+015009049MA1101291999999MW1611REMMET011TEMPO 8000?
0141039620999991980010717004+52683-008917SY-MT+0014EINN V0201201N00461007501CN0110001N1+00601+00501101401ADDAY161999GA1041+004509079GA2081+007509059GF108991081061004501999999MA1101291999999MD1310031+9999MW1611REMSYN01184715 88625MET011TEMPO 8000?
0072039620999991980010717304+52683-008917FM-15+0014EINN V0201101N00361003901CN0112001N1+00601+00501999999ADDGA1051+003909079GA2081+007509059MA1101391999999MW1611REMMET007NOASIG?
0194039620999991980010718004+52683-008917SY-MT+0014EINN V0201301N00301004501CN0112001N1+00601+00501101451ADDAA199002091AY161999GA1021+003009079GA2051+004509079GA3081+007509059GF108991081061004501999999KA1999M+00601MA1101391999999MD1310111+9999MW1611REMSYN02970206 82710 85715 88625 94000MET006NOSIG?
0100039620999991980010718304+52683-008917FM-15+0014EINN V0201101N00301004501CN0112001N1+00601+00601999999ADDGA1021+003609079GA2061+004509079GA3081+007509059MA1101391999999REMMET006NOSIG?EQDQ01+000000PRSWM2
0136039620999991980010719004+52683-008917SY-MT+0014EINN V0201101N00411004501CN0112001N1+00601+00501101481ADDAY161999GA1051+004509079GA2081+007509059GF108991081061004501999999MA1101391999999MD1110141+9999MW1611REMSYN01185715 88625MET006NOSIG?
0071039620999991980010719304+52683-008917FM-15+0014EINN V0201201N00361003301CN0112001N1+00601+00501999999ADDGA1051+003309079GA2081+005409079MA1101491999999MW1611REMMET006NOSIG?
0150039620999991980010720004+52683-008917SY-MT+0014EINN V0201101N00361006601CN0112001N1+00601+00601101501ADDAY161999GA1031+003309079GA2081+006609059GF108991081051004501999999MA1101391999999MD1110101+9999MW1581WG199190699999REMSYN01183711 88622MET006NOSIG?
0087039620999991980010720304+52683-008917FM-15+0014EINN V0201101N00411006001CN0112001N1+00601+00501999999ADDGA1031+003609079GA2061+006009059GA3081+010509059MA1101391999999MW1581REMMET006NOSIG?
0158039620999991980010721004+52683-008917SY-MT+0014EINN V0201101N00561006001CN0112001N1+00601+00501101501ADDAY161999GA1021+003609079GA2061+006009059GA3081+010509059GF108991081051004501999999MA1101491999999MD1110051+9999MW1581REMSYN01782712 86620 88635MET006NOSIG?
0071039620999991980010721304+52683-008917FM-15+0014EINN V0201201N00561009001CN0112001N1+00601+00501999999ADDGA1031+006009059GA2051+009009059MA1101391999999MW1211REMMET006NOSIG?
0158039620999991980010722004+52683-008917SY-MT+0014EINN V0201301N00511006001CN0112001N1+00601+00501101521ADDAY161999GA1011+003609079GA2061+006009059GA3071+010509059GF108991081051004501999999MA1101491999999MD1210041+9999MW1201REMSYN01781712 86620 87635MET006NOSIG?
0087039620999991980010722304+52683-008917FM-15+0014EINN V0201101N00461006001CN0112001N1+00601+00501999999ADDGA1011+003609079GA2051+006009059GA3071+012009059MA1101491999999MW1201REMMET006NOSIG?
0155039620999991980010723004+52683-008917SY-MT+0014EINN V0201201N00511008101CN0112001N1+00601+00501101551ADDAY121999GA1051+008109059GA2081+012009059GF108991081051008001999999MA1101491999999MD1310051+9999MW1021REMSYN01185627 88640MET006NOSIG?EQDQ01+000000PRSWM2
0084039620999991980010723304+52683-008917FM-15+0014EINN V0201201N00461008101CN0112001N1+00601+00501999999ADDGA1051+008109059GA2081+012009059MA1101491999999REMMET006NOSIG?EQDQ01+000000PRSWM2
0188039620999991980010800004+52683-008917SY-MT+0014EINN V0201201N00511012001CN0112001N1+00601+00501101561ADDAA106001091AY161999GA1041+008109059GA2081+012009059GF108991081051008001999999MA1101491999999MD1210061+9999MW1021REMSYN017701// 84627 88640MET006NOSIG?EQDQ01+000000PRSWM2Q02  00103PRCP99
0084039620999991980010800304+52683-008917FM-15+0014EINN V0201201N00511013501CN0112001N1+00601+00501999999ADDGA1021+008109059GA2071+013509059MA1101491999999REMMET006NOSIG?EQDQ01+000000PRSWM2
0155039620999991980010801004+52683-008917SY-MT+0014EINN V0201201N00511013501CN0112001N1+00601+00501101571ADDAY121999GA1021+006009059GA2061+013509059GF107991071051008001999999MA1101491999999MD1110051+9999MW1011REMSYN01182620 86645MET006NOSIG?EQDQ01+000000PRSWM2
0084039620999991980010801304+52683-008917FM-15+0014EINN V0201201N00461009001CN0112001N1+00601+00501999999ADDGA1051+009009059GA2061+015009059MA1101491999999REMMET006NOSIG?EQDQ01+000000PRSWM2
0155039620999991980010802004+52683-008917SY-MT+0014EINN V0201101N00411009001CN0112001N1+00601+00501101571ADDAY121999GA1021+006009059GA2061+009009059GF107991071051008001999999MA1101491999999MD1110021+9999MW1031REMSYN01182620 86630MET006NOSIG?EQDQ01+000000PRSWM2
0100039620999991980010802304+52683-008917FM-15+0014EINN V0201101N00511006601CN0112001N1+00601+00501999999ADDGA1021+004809079GA2051+006609059GA3081+009009059MA1101491999999REMMET006NOSIG?EQDQ01+000000PRSWM2
0177039620999991980010803004+52683-008917SY-MT+0014EINN V0201101N00461006601CN0112001N1+00601+00401101601ADDAY121999GA1021+005109079GA2051+006609059GA3081+009009059GF108991081051004501999999MA1101491999999MD1310041+9999MW1031REMSYN01782717 85622 88630MET006NOSIG?EQDQ01+000000PRSWM2
0100039620999991980010803304+52683-008917FM-15+0014EINN V0201101N00411009001CN0112001N1+00601+00501999999ADDGA1021+006009059GA2041+009009059GA3071+015009059MA1101591999999REMMET006NOSIG?EQDQ01+000000PRSWM2
0177039620999991980010804004+52683-008917SY-MT+0014EINN V0201101N00411009001CN0112001N1+00601+00401101651ADDAY121999GA1021+006009059GA2051+009009059GA3071+027009049GF108991051051008001071999MA1101591999999MD1310081+9999MW1021REMSYN01782620 85630 87459MET006NOSIG?EQDQ01+000000PRSWM2
0100039620999991980010804304+52683-008917FM-15+0014EINN V0201201N00511013501CN0112001N1+00601+00401999999ADDGA1011+006009059GA2041+009009059GA3051+013509059MA1101591999999REMMET006NOSIG?EQDQ01+000000PRSWM2
0155039620999991980010805004+52683-008917SY-MT+0014EINN V0201101N00561010501CN0112001N1+00601+00401101641ADDAY121999GA1021+006009059GA2071+010509059GF108991081051008001999999MA1101591999999MD1010071+9999MW1021REMSYN01182620 87635MET006NOSIG?EQDQ01+000000PRSWM2
0084039620999991980010805304+52683-008917FM-15+0014EINN V0201101N00461006001CN0112001N1+00601+00401999999ADDGA1051+006009059GA2061+010509059MA1101591999999REMMET006NOSIG?EQDQ01+000000PRSWM2
0226039620999991980010806004+52683-008917SY-MT+0014EINN V0201101N00561006001CN0112001N1+00601+00401101631ADDAA199001091AJ100009199999999AY121999GA1051+006009059GA2061+010509059GF108991081051008001999999IA1089IA2999+00509KA1999N+00601MA1101591999999MD1010031+9999MW1021REMSYN02320510 70106 85620 86635MET006NOSIG?EQDQ01+000000PRSWM2
0084039620999991980010806304+52683-008917FM-15+0014EINN V0201101N00661012001CN0112001N1+00601+00401999999ADDGA1031+006009059GA2071+012009059MA1101491999999REMMET006NOSIG?EQDQ01+000000PRSWM2
0155039620999991980010807004+52683-008917SY-MT+0014EINN V0201101N00661012001CN0112001N1+00601+00401101571ADDAY121999GA1011+006009059GA2051+012009059GF106991051051008001031999MA1101491999999MD1710081+9999MW1011REMSYN01181620 85640MET006NOSIG?EQDQ01+000000PRSWM2
0068039620999991980010807304+52683-008917FM-15+0014EINN V0201201N00661220001CN0112001N1+00601+00401999999ADDGA1021+012009059MA1101591999999REMMET006NOSIG?EQDQ01+000000PRSWM2
0155039620999991980010808004+52683-008917SY-MT+0014EINN V0201201N00361008401CN0112001N1+00601+00501101681ADDAY121999GA1021+005409079GA2061+008409059GF107991071051004501999999MA1101591999999MD1310041+9999MW1101REMSYN01182718 86628MET006NOSIG?EQDQ01+000000PRSWM2
0071039620999991980010808304+52683-008917FM-15+0014EINN V0201101N00251007501CN0090001N1+00601+00401999999ADDGA1021+005109079GA2071+007509059MA1101591999999MW1101REMMET006NOSIG?
0150039620999991980010809004+52683-008917SY-MT+0014EINN V0201001N00301007201CN0080001N1+00601+00501101681ADDAY111999GA1031+005109079GA2071+007209059GF107991071051004501999999MA1101591999999MD1310051+9999MW1101WG199010299999REMSYN01183717 87624MET006NOSIG?
0071039620999991980010809304+52683-008917FM-15+0014EINN V0201101N00461007201CN0080001N1+00601+00401999999ADDGA1031+005109079GA2071+007209059MA1101591999999MW1101REMMET006NOSIG?
0158039620999991980010810004+52683-008917SY-MT+0014EINN V0201101N00511005101CN0070001N1+00601+00501101711ADDAY121999GA1031+003909079GA2041+005109079GA3071+007209059GF108991081061004501999999MA1101691999999MD1110141+9999MW1101REMSYN01783713 84717 87624MET006NOSIG?
0087039620999991980010810304+52683-008917FM-15+0014EINN V0201101N00511005101CN0060001N1+00601+00501999999ADDGA1031+003909079GA2041+005109079GA3071+007509059MA1101691999999MW1101REMMET006NOSIG?
0136039620999991980010811004+52683-008917SY-MT+0014EINN V0201201N00461004501CN0060001N1+00601+00501101751ADDAY121999GA1051+004509079GA2071+007509059GF108991081061004501999999MA1101691999999MD1310071+9999MW1101REMSYN01185715 87625MET006NOSIG?
0095039620999991980010811304+52683-008917FM-15+0014EINN V0201101N00461004501CN0060001N1+00601+00501999999ADDGA1051+004509079GA2071+007509059MA1101691999999MW1101REMMET030TEMPO 8000       ?     3ST015?
0179039620999991980010812004+52683-008917SY-MT+0014EINN V0201201N00611003901CN0080001N1+00601+00501101691ADDAA106000091AY111999GA1051+003909079GA2071+007509059GF108991081061004501999999MA1101591999999MD1010011+9999MW1101REMSYN017700// 85713 87625MET013TEMPO 3ST015?EQDQ01  00003PRCP99
0071039620999991980010812304+52683-008917FM-15+0014EINN V0201101N00411003601CN0090001N1+00601+00501999999ADDGA1051+003609079GA2071+006009059MA1101591999999MW1101REMMET006NOSIG?
0141039620999991980010813004+52683-008917SY-MT+0014EINN V0201301N00561003001CN0112001N1+00701+00501101601ADDAY121999GA1061+003009079GA2071+004509079GF108991081061004501999999MA1101491999999MD1810111+9999MW1101REMSYN01186710 87715MET011TEMPO 5000?
0078039620999991980010813304+52683-008917FM-15+0014EINN V0201401N00871003001CN0112001N1+00801+00601999999ADDGA1051+003009079GA2071+004509079MA1101491999999MW1101REMMET013GRADU 3ST015?
0176039620999991980010814004+52683-008917SY-MT+0014EINN V0201301N00881004501CN0100001N1+00801+00601101491ADDAY121999GA1031+003009079GA2061+004509079GA3071+006009059GF108991081061004501999999MA1101391999999MD1810251+9999MW1101REMSYN01783710 86715 87620MET024GRADU 3ST015     ?     ?
0158039620999991980010815004+52683-008917SY-MT+0014EINN V0201301N00511003301CN0112001N1+00801+00601101491ADDAY121999GA1011+002409079GA2051+003309079GA3081+005109079GF108991081061002501999999MA1101391999999MD1610191+9999MW1101REMSYN01781708 85711 88717MET006NOSIG?
0163039620999991980010816004+52683-008917SY-MT+0014EINN V0201401N00661003001CN0112001N1+00801+00601101431ADDAY121999GA1021+002409079GA2051+003009079GA3081+004509079GF108991081061002501999999MA1101391999999MD1710161+9999MW1101REMSYN01782708 85710 88715MET011TEMPO 5000?
0093039620999991980010816304+52683-008917FM-15+0014EINN V0201301N00771003001CN0090001N1+00801+00601999999ADDGA1021+002409079GA2051+003009079GA3081+004509079MA1101391999999MW1101REMMET012TEMPO  5000?
0163039620999991980010817004+52683-008917SY-MT+0014EINN V0201401N00661003301CN0112001N1+00801+00601101451ADDAY121999GA1021+002409079GA2051+003309079GA3081+004809079GF108991081061002501999999MA1101391999999MD1510041+9999MW1101REMSYN01782708 85711 88716MET011TEMPO 5000?
0084039620999991980010817304+52683-008917FM-15+0014EINN V0201401N00611004501CN0112001N1+00801+00701999999ADDGA1041+002409079GA2081+004509079MA1101391999999REMMET006NOSIG?EQDQ01+000000PRSWM2
0194039620999991980010818004+52683-008917SY-MT+0014EINN V0201301N00611003001CN0080001N1+00801+00701101421ADDAA199999929AY151999GA1021+002109079GA2051+003009079GA3081+004509079GF108991081061002501999999KA1999M+00801MA1101391999999MD1710071+9999MW1501REMSYN02979708 82707 85710 88715 94000MET006NOSIG?
0071039620999991980010818304+52683-008917FM-15+0014EINN V0201401N00611003001CN0050001N1+00801+00701999999ADDGA1041+002109079GA2081+003009079MA1101291999999MW1501REMMET006NOSIG?
0136039620999991980010819004+52683-008917SY-MT+0014EINN V0201401N00611002401CN0060001N1+00801+00701101361ADDAY151999GA1031+001809079GA2081+002409079GF108991081061002501999999MA1101291999999MD1710071+9999MW1511REMSYN01183706 88708MET006NOSIG?
0071039620999991980010819304+52683-008917FM-15+0014EINN V0201301N00661002701CN0060001N1+00801+00701999999ADDGA1031+002109079GA2081+002709079MA1101291999999MW1501REMMET006NOSIG?
0136039620999991980010820004+52683-008917SY-MT+0014EINN V0201401N00561002701CN0060001N1+00801+00701101341ADDAY151999GA1031+001809079GA2081+002709079GF108991081071002501999999MA1101291999999MD1710111+9999MW1511REMSYN01183706 88709MET006NOSIG?
0076039620999991980010820304+52683-008917FM-15+0014EINN V0201401N00611003001CN0080001N1+00801+00701999999ADDGA1031+002109079GA2081+003009079MA1101291999999MW1511REMMET011TEMPO 6000?
0141039620999991980010821004+52683-008917SY-MT+0014EINN V0201401N00661002701CN0040001N1+00801+00701101271ADDAY151999GA1031+001809079GA2081+002709079GF108991081071002501999999MA1101191999999MD1710151+9999MW1511REMSYN01183706 88709MET011GRADU 8000?
0076039620999991980010821304+52683-008917FM-15+0014EINN V0201301N00661002401CN0050001N1+00801+00701999999ADDGA1031+001809079GA2081+002409079MA1101191999999MW1511REMMET011GRADU 8000?
0141039620999991980010822004+52683-008917SY-MT+0014EINN V0201301N00721003001CN0112001N1+00801+00701101201ADDAY151999GA1031+002409079GA2081+003009079GF108991081071002501999999MA1101081999999MD1810161+9999MW1201REMSYN01183708 88710MET011INTER 6000?
0076039620999991980010822304+52683-008917FM-15+0014EINN V0201401N00871002401CN0112001N1+00801+00701999999ADDGA1051+002409079GA2081+003309079MA1101081999999MW1501REMMET011TEMPO 6000?
0141039620999991980010823004+52683-008917SY-MT+0014EINN V0201401N00821002401CN0112001N1+00801+00701101131ADDAY151999GA1051+002409079GA2081+003009079GF108991081071002501999999MA1101081999999MD1710211+9999MW1501REMSYN01185708 88710MET011TEMPO 6000?
0076039620999991980010823304+52683-008917FM-15+0014EINN V0201401N00821002401CN0090001N1+00801+00701999999ADDGA1051+002409079GA2081+003009079MA1101081999999MW1511REMMET011TEMPO 6000?
0210039620999991980010900004+52683-008917SY-MT+0014EINN V0201401N00871002401CN0112001N1+00801+00701101061ADDAA106999999AA299000191AY151999GA1031+001809079GA2061+002409079GA3081+003009079GF108991081071002501999999MA1101021999999MD1710211+9999MW1501REMSYN023791// 83706 86708 88710MET011TEMPO 6000?EQDQ01  00002PRCP06
0087039620999991980010900304+52683-008917FM-15+0014EINN V0201401N00771002401CN0080001N1+00801+00701999999ADDGA1031+001809079GA2061+002409079GA3081+003309079MA1101021999999MW1511REMMET006NOSIG?
0172039620999991980010901004+52683-008917SY-MT+0014EINN V0201501N00871003001CN0060001N1+00801+00701100961ADDAY151999GA1041+002109079GA2061+003009079GA3081+004809079GF108991081071002501999999MA1100911999999MD1710241+9999MW1511WG199370999999REMSYN01784707 86710 88716MET006NOSIG?
0117039620999991980010901304+52683-008917FM-15+0014EINN V0201401N00821003301CN0112001N1+00801+00801999999ADDGA1021+002109079GA2051+003309079GA3081+005109079MA1100911999999MW1611REMMET036TEMPO      ?     7000 3ST005 7ST008?
0170039620999991980010902004+52683-008917SY-MT+0014EINN V0201501N00721005401CN0112001N1+00901+00801100941ADDAY151999GA1031+003309079GA2051+005409079GA3081+009909059GF108991081071004501999999MA1100911999999MD1610191+9999MW1631REMSYN01783711 85718 88633MET018TEMPO 7000 5ST008?
0099039620999991980010902304+52683-008917FM-15+0014EINN V0201701N00611004801CN0112001N1+00901+00801999999ADDGA1021+003309079GA2041+004809079GA3081+009909059MA1100911999999MW1611REMMET018TEMPO 7000 5ST008?
0170039620999991980010903004+52683-008917SY-MT+0014EINN V0201701N00771005401CN0112001N1+00801+00701100901ADDAY151999GA1021+003609079GA2041+005409079GA3081+009909059GF108991081061004501999999MA1100911999999MD1610161+9999MW1611REMSYN01782712 84718 88633MET018TEMPO 7000 5ST008?
0090039620999991980010903304+52683-008917FM-15+0014EINN V0201601N00771009901CN0112001N1+00801+00601999999ADDGA1031+004809079GA2081+009909059MA1100811999999MW1611REMMET025TEMPO 70005ST008       ??
0143039620999991980010904004+52683-008917SY-MT+0014EINN V0201501N00661009901CN0112001N1+00801+00601100801ADDAY161999GA1021+004809079GA2081+009909059GF108991081051004501999999MA1100811999999MD1810161+9999MW1611REMSYN01182716 88633MET013TEMPO 6ST015?
0078039620999991980010904304+52683-008917FM-15+0014EINN V0201601N00721010501CN0112001N1+00801+00601999999ADDGA1021+004509079GA2081+010509059MA1100711999999MW1611REMMET013TEMPO 6ST015?
0143039620999991980010905004+52683-008917SY-MT+0014EINN V0201601N00871010501CN0112001N1+00701+00501100751ADDAY161999GA1031+005409079GA2081+010509059GF108991081051004501999999MA1100711999999MD1710201+9999MW1611REMSYN01183718 88635MET013TEMPO 6ST015?
0078039620999991980010905304+52683-008917FM-15+0014EINN V0201701N00721010501CN0112001N1+00701+00501999999ADDGA1021+005409079GA2081+010509059MA1100811999999MW1611REMMET013TEMPO 6ST015?
0197039620999991980010906004+52683-008917SY-MT+0014EINN V0201801N00561009001CN0112001N1+00701+00601100871ADDAA199006091AY161999GA1031+005409079GA2081+009009059GF108991081051004501999999IA1139IA2999+00609KA1999N+00701MA1100811999999MD1510041+9999MW1581REMSYN02320630 70607 83718 88630MET013TEMPO 6ST015?
0090039620999991980010906304+52683-008917FM-15+0014EINN V0202601N00611001501CN0070001N1+00701+00601999999ADDGA1051+001509079GA2081+002109079MA1100811999999MW1581REMMET025GRADU 99996ST015       ??
0200039620999991980010907004+52683-008917SY-MT+0014EINN V0202601N00661006901CN0070001N1+00701+00701100891ADDAY151999GA1031+003009079GA2081+006909059GF108991081051004501999999MA1100811999999MD1310081+9999MW1211WG199990599999REMSYN03583710 88623 97365 91318 91327 90056MET032VIS 9999 TO      ?     SW NOSIG?
0087039620999991980010907304+52683-008917FM-15+0014EINN V0202601N00411007201CN0112001N1+00701+00601999999ADDGA1021+004509079GA2031+007209059GA3081+009609059MA1100911999999MW1211REMMET006NOSIG?
0174039620999991980010908004+52683-008917SY-MT+0014EINN V0202801N00461002701CN0060001N1+00701+00601100991ADDAY161999GA1061+002709079GA2081+004509079GF108991081071002501999999MA1100911999999MD1210241+9999MW1581WG199190699999REMSYN01186709 88715MET030GRADU 9999       ?     4ST015?
0090039620999991980010908304+52683-008917FM-15+0014EINN V0203101N00611002701CN0070001N1+00701+00601999999ADDGA1051+002709079GA2081+004209079MA1101021999999MW1581REMMET025GRADU 99994ST015       ??
0158039620999991980010909004+52683-008917SY-MT+0014EINN V0203001N00721004201CN0112001N1+00701+00601101091ADDAY151999GA1021+002709079GA2041+004209079GA3081+007209059GF108991081061002501999999MA1101021999999MD1310221+9999MW1611REMSYN01782709 84714 88624MET006NOSIG?
0087039620999991980010909304+52683-008917FM-15+0014EINN V0203201N00721003901CN0112001N1+00601+00501999999ADDGA1031+002709079GA2031+003909079GA3081+007209059MA1101081999999MW1611REMMET006NOSIG?
0209039620999991980010910004+52683-008917SY-MT+0014EINN V0203201N00721004201CN0112001N1+00601+00501999999ADDAY161999GA1021+002709079GA2051+004209079GA3081+006609059GF199999999061001501031011MA1101081999999MD1710091+9999MW1041MW2611REMSYN01185714 88622MET006NOSIG?EQDQ01+000062SCOTCVQ02+000002SCOTLCQ03+098633APOSLP
0087039620999991980010910304+52683-008917FM-15+0014EINN V0203201N00611004501CN0112001N1+00601+00401999999ADDGA1021+003009079GA2051+004509079GA3081+007509059MA1101191999999MW1611REMMET006NOSIG?
0158039620999991980010911004+52683-008917SY-MT+0014EINN V0203201N00661009001CN0112001N1+00601+00301101301ADDAY161999GA1011+003009079GA2041+004509079GA3081+009009059GF108991081061004501999999MA1101191999999MD1210311+9999MW1601REMSYN01781710 84715 88630MET006NOSIG?
0087039620999991980010911304+52683-008917FM-15+0014EINN V0203101N00611004801CN0112001N1+00601+00401999999ADDGA1021+003609079GA2041+004809079GA3081+010509059MA1101291999999MW1611REMMET006NOSIG?
0194039620999991980010912004+52683-008917SY-MT+0014EINN V0203201N00721005401CN0112001N1+00601+00401101371ADDAA106001091AY161999GA1021+003609079GA2051+005409079GA3081+010509059GF108991081061004501999999MA1101291999999MD1210281+9999MW1611REMSYN023701// 82712 85718 88635MET006NOSIG?EQDQ01  00103PRCP99
0087039620999991980010912304+52683-008917FM-15+0014EINN V0203201N00771005401CN0112001N1+00601+00301999999ADDGA1021+003609079GA2051+005409079GA3081+009009059MA1101291999999MW1601REMMET006NOSIG?
0189039620999991980010913004+52683-008917SY-MT+0014EINN V0203201N00721010501CN0112001N1+00601+00301101421ADDAY161999GA1011+003609079GA2041+005409079GA3081+010509059GF108991081061004501999999MA1101391999999MD1210221+9999MW1611OA199901331WG199370999999REMSYN02381712 84718 88635 91126MET006NOSIG?
0087039620999991980010913304+52683-008917FM-15+0014EINN V0203301N00561010501CN0112001N1+00701+00301999999ADDGA1011+003609079GA2041+005409079GA3081+010509059MA1101391999999MW1211REMMET006NOSIG?
0131039620999991980010914004+52683-008917FM-12+0014EINN V0203301N00621015001CN0400001N9+00701+00301101471ADDAY161999GA1011+006009089GA2041+009009059GA3081+015009059GF108991081081008001999999MD1210171+9999MW1211REMSYN01781820 84630 88650
0100039620999991980010914304+52683-008917FM-15+0014EINN V0203301N00561007501CN0112001N1+00701+00401999999ADDGA1021+006009089GA2041+007509059GA3081+015009059MA1101491999999REMMET006NOSIG?EQDQ01+000000PRSWM2
0177039620999991980010915004+52683-008917SY-MT+0014EINN V0203401N00561007501CN0112001N1+00701+00401101581ADDAY161999GA1021+006009089GA2031+007509059GA3051+015009059GF107991071081008001999999MA1101491999999MD1310211+9999MW1011REMSYN01782820 83625 85650MET006NOSIG?EQDQ01+000000PRSWM2
0100039620999991980010915304+52683-008917FM-15+0014EINN V0203301N00661009001CN0112001N1+00701+00401999999ADDGA1021+005409089GA2041+009009059GA3061+015009059MA1101591999999REMMET006NOSIG?EQDQ01+000000PRSWM2
0216039620999991980010916004+52683-008917SY-MT+0014EINN V0203301N00771012001CN0112001N1+00701+00301101721ADDAY121999GA1021+006009089GA2061+012009059GA3051+015009059GF107991071081008001999999MA1101691999999MD1310301+9999MW1021OA199901331OC101331WG199010199999REMSYN02382820 86640 85650 91126MET006NOSIG?EQDQ01+000000PRSWM2
0100039620999991980010916304+52683-008917FM-15+0014EINN V0203201N00721012001CN0112001N1+00601+00301999999ADDGA1021+006009089GA2041+012009059GA3041+015009059MA1101691999999REMMET006NOSIG?EQDQ01+000000PRSWM2
0202039620999991980010917004+52683-008917SY-MT+0014EINN V0203301N00611015001CN0112001N1+00601+00301101861ADDAY121999GA1011+006009089GA2031+009009059GA3051+015009059GF107991071081008001999999MA1101801999999MD1210391+9999MW1021OA199901171OC101181REMSYN02381820 83630 85650 91123MET006NOSIG?EQDQ01+000000PRSWM2
0086039620999991980010917304+52683-008917FM-15+0014EINN V0203301N00561012001CN0112001N1+00601+00301999999ADDGA1011+006609089GA2051+012009059MA1101901999999REMMET008NOSIG?-?EQDQ01+000000PRSWM2
0191039620999991980010918004+52683-008917SY-MT+0014EINN V0203201N00411220001CN0112001N1+00501+00301102001ADDAA199001091AY161999GA1011+006609089GA2031+012009059GF104991041081008001001001KA1999M+00701MA1101901999999MD1210421+9999MW1011REMSYN02370107 81822 83640 94000MET006NOSIG?EQDQ01+000000PRSWM2
0084039620999991980010918304+52683-008917FM-15+0014EINN V0203301N00461220001CN0112001N1+00501+00301999999ADDGA1011+006609089GA2031+012009059MA1102001999999REMMET006NOSIG?EQDQ01+000000PRSWM2
0155039620999991980010919004+52683-008917SY-MT+0014EINN V0203301N00461220001CN0112001N1+00501+00301102111ADDAY101999GA1011+006609089GA2031+012009059GF103991031081008001001001MA1102101999999MD1210391+9999MW1011REMSYN01181822 83640MET006NOSIG?EQDQ01+000000PRSWM2
0084039620999991980010919304+52683-008917FM-15+0014EINN V0203201N00511220001CN0112001N1+00501+00201999999ADDGA1011+006609089GA2031+012009059MA1102101999999REMMET006NOSIG?EQDQ01+000000PRSWM2
0058039620999991980010920304+52683-008917FM-15+0014EINN V0203201N00611999991CY0099001N1+00501+00201999999ADDMA1102201999999REMMET012CAVOK NOSIG?EQDQ01+000000PRSWM2
0155039620999991980010921004+52683-008917SY-MT+0014EINN V0203201N00611220001CN0099001N1+00501+00201102341ADDAY101999GA1031+015009059GF103991031051017501999001MA1102301999999MD1210341+9999MW1021REMSYN00583650MET012CAVOK NOSIG?EQDQ01+000000PRSWM2Q02    003SCOMCG
0058039620999991980010921304+52683-008917FM-15+0014EINN V0203101N00461999991CY0099001N1+00501+00201999999ADDMA1102401999999REMMET012CAVOK NOSIG?EQDQ01+000000PRSWM2
0112039620999991980010922004+52683-008917SY-MT+0014EINN V0203201N00361220001CN0099001N1+00401+00201102461ADDAY101999GF100991001001999999001001MA1102401999999MD1210351+9999MW1011REMMET012CAVOK NOSIG?EQDQ01+000000PRSWM2
0058039620999991980010922304+52683-008917FM-15+0014EINN V0203301N00301999991CY0099001N1+00401+00201999999ADDMA1102401999999REMMET012CAVOK NOSIG?EQDQ01+000000PRSWM2
0112039620999991980010923004+52683-008917SY-MT+0014EINN V0203401N00301220001CN0099001N1+00401+00201102501ADDAY101999GF100991001001999999001001MA1102401999999MD1110271+9999MW1021REMMET012CAVOK NOSIG?EQDQ01+000000PRSWM2
0058039620999991980010923304+52683-008917FM-15+0014EINN V0203401N00301999991CY0099001N1+00301+00101999999ADDMA1102511999999REMMET012CAVOK NOSIG?EQDQ01+000000PRSWM2
0150039620999991980011000004+52683-008917SY-MT+0014EINN V0203601N00251220001CN0099001N1+00301+00101102591ADDAA106999929AY101999GF100991001001999999001001MA1102511999999MD1210251+9999MW1021REMSYN005797//MET012CAVOK NOSIG?EQDQ01+000000PRSWM2Q02  99993PRCP99
0058039620999991980011000304+52683-008917FM-15+0014EINN V0203401N00251999991CY0099001N1+00301+00001999999ADDMA1102611999999REMMET012CAVOK NOSIG?EQDQ01+000000PRSWM2
0112039620999991980011001004+52683-008917SY-MT+0014EINN V0203601N00301220001CN0099001N1+00301+00001102631ADDAY101999GF100991001001999999001001MA1102611999999MD1210171+9999MW1021REMMET012CAVOK NOSIG?EQDQ01+000000PRSWM2
0068039620999991980011001304+52683-008917FM-15+0014EINN V0203501N00301220001CN0112001N1+00301+00001999999ADDGA1011+009009059MA1102611999999REMMET006NOSIG?EQDQ01+000000PRSWM2
0087039620999991980011002004+52683-008917FM-12+0014EINN V0203401N00311220001CN0300001N9+00301+00001102681ADDAY101999GA1011+009009059GF101991011051012501001001MD1210181+9999MW1031REMSYN00581630
0068039620999991980011002304+52683-008917FM-15+0014EINN V0203401N00301220001CN0112001N1+00301+00001999999ADDGA1011+009009059MA1102711999999REMMET006NOSIG?EQDQ01+000000PRSWM2
0133039620999991980011003004+52683-008917SY-MT+0014EINN V0200501N00201220001CN0112001N1+00301+00101102771ADDAY101999GA1011+009009059GF101991011051012501001001MA1102711999999MD1310181+9999MW1021REMSYN00581630MET006NOSIG?EQDQ01+000000PRSWM2
0068039620999991980011003304+52683-008917FM-15+0014EINN V0209991C00001220001CN0112001N1+00201+00001999999ADDGA1011+009009059MA1102811999999REMMET006NOSIG?EQDQ01+000000PRSWM2
0139039620999991980011004004+52683-008917SY-MT+0014EINN V0201301N00151220001CN0112001N1+00201+00101102821ADDAY101999GA1011+009009059GF101991011051012501001001MA1102811999999MD1210191+9999MW1021REMSYN01181630 92000MET006NOSIG?EQDQ01+000000PRSWM2
0058039620999991980011004304+52683-008917FM-15+0014EINN V0201601N00151999991CY0099001N1+00201+00101999999ADDMA1102811999999REMMET012CAVOK NOSIG?EQDQ01+000000PRSWM2
0123039620999991980011005004+52683-008917SY-MT+0014EINN V0209991C00001220001CN0099001N1+00101+00101102861ADDAY101999GF100991001001999999001001MA1102811999999MD1210181+9999MW1011REMSYN00592000MET012CAVOK NOSIG?EQDQ01+000000PRSWM2
0058039620999991980011005304+52683-008917FM-15+0014EINN V0209991C00001999991CY0099001N1+00101+00001999999ADDMA1102911999999REMMET012CAVOK NOSIG?EQDQ01+000000PRSWM2
0208039620999991980011006004+52683-008917SY-MT+0014EINN V0209991C00001220001CN0099001N1+00101+00001102961ADDAA199999929AJ100009199999999AY111999GF100991001001999999001001IA1139IA2999-00509KA1999N+00001MA1102911999999MD1210191+9999MW1021WG199370999999REMSYN01725530 79750 92010MET012CAVOK NOSIG?EQDQ01+000000PRSWM2
0058039620999991980011006304+52683-008917FM-15+0014EINN V0209991C00001999991CY0099001N1+00001-00101999999ADDMA1102911999999REMMET012CAVOK NOSIG?EQDQ01+000000PRSWM2
0123039620999991980011007004+52683-008917SY-MT+0014EINN V0209991C00001220001CN0099001N1+00001+00001103001ADDAY101999GF100991001001999999001001MA1102911999999MD1210181+9999MW1021REMSYN00592010MET012CAVOK NOSIG?EQDQ01+000000PRSWM2
0058039620999991980011007304+52683-008917FM-15+0014EINN V0209991C00001999991CY0099001N1+00001-00101999999ADDMA1103011999999REMMET012CAVOK NOSIG?EQDQ01+000000PRSWM2
0123039620999991980011008004+52683-008917SY-MT+0014EINN V0209991C00001220001CN0099001N1-00101-00201103041ADDAY101999GF100991001001999999001001MA1103011999999MD1210181+9999MW1021REMSYN00592011MET012CAVOK NOSIG?EQDQ01+000000PRSWM2
0058039620999991980011008304+52683-008917FM-15+0014EINN V0209991C00001999991CY0099001N1+00001-00101999999ADDMA1103011999999REMMET012CAVOK NOSIG?EQDQ01+000000PRSWM2
0093039620999991980011009004+52683-008917FM-12+0014EINN V0209991C00001220001CN0200001N9+00101+00001103101ADDAY101999GA1011+075009009GF101991001001999999001021MD1210141+9999MW1031REMSYN01181075 92011
0058039620999991980011009304+52683-008917FM-15+0014EINN V0209991C00001999991CY0099001N1+00101+00001999999ADDMA1103121999999REMMET012CAVOK NOSIG?EQDQ01+000000PRSWM2
0161039620999991980011010004+52683-008917SY-MT+0014EINN V0209991C00001075001CN0112001N1+00101+00001103141ADDAY111999GA1011+007509089GA2061+075009009GF106991011011008001031021MA1103121999999MD1210141+9999MW1031REMSYN01781825 86075 92000MET006NOSIG?EQDQ01+000000PRSWM2
0084039620999991980011010304+52683-008917FM-15+0014EINN V0209991C00001075001CN0112001N1+00201+00101999999ADDGA1011+007509089GA2071+075009009MA1103121999999REMMET006NOSIG?EQDQ01+000000PRSWM2
