0130013590999992016010100004+60533+008200FM-12+077399999V0201901N001019999999N999999999-00431-00491101821ADDAA106000091MA1999999092411MD1110151+9999OD139900601999REMSYN06401359 16/// /1901 11043 21049 39241 40182 51015 60001 333 91106=
0089013590999992016010101004+60533+008200FM-12+077399999V0202201N003019999999N999999999-00431-00491101831ADDMA1999999092431MD1110071+9999REMSYN04801359 46/// /2203 11043 21049 39243 40183 51007=
0089013590999992016010102004+60533+008200FM-12+077399999V0209999C999999999999N999999999-00461-00511101881ADDMA1999999092461MD1310101+9999REMSYN04801359 46/// /0000 11046 21051 39246 40188 53010=
0089013590999992016010103004+60533+008200FM-12+077399999V0202801N001019999999N999999999-00401-00451101911ADDMA1999999092511MD1310101+9999REMSYN04801359 46/// /2801 11040 21045 39251 40191 53010=
0089013590999992016010104004+60533+008200FM-12+077399999V0202401N001019999999N999999999-00401-00441101901ADDMA1999999092501MD1990081+9999REMSYN04801359 46/// /2401 11040 21044 39250 40190 50008=
0089013590999992016010105004+60533+008200FM-12+077399999V0209999C999999999999N999999999-00401-00441101891ADDMA1999999092491MD1990021+9999REMSYN04801359 46/// /0000 11040 21044 39249 40189 50002=
0293013590999992016010106004+60533+008200FM-12+077399999V0202501N001019999999N014000199-00381-00421101951ADDAA112000231AA224003031AJ100273100270099AY171021AY221021GA1081+002501071GE19AGL   +99999+99999GF108991081999002501999999IA1289KA1240N-00491MA1999999092551MD1310041+9999MW1781OD139900401999REMSYN09401359 11364 82501 11038 21042 39255 40195 53004 69922 77872 886// 333 21049 48027 70030 91104=
0089013590999992016010107004+60533+008200FM-12+077399999V0202301N001019999999N999999999-00371-00421101961ADDMA1999999092561MD1310061+9999REMSYN04801359 46/// /2301 11037 21042 39256 40196 53006=
0089013590999992016010108004+60533+008200FM-12+077399999V0209999C999999999999N999999999-00301-00361101971ADDMA1999999092591MD1310111+9999REMSYN04801359 46/// /0000 11030 21036 39259 40197 53011=
0089013590999992016010109004+60533+008200FM-12+077399999V0209999C999999999999N999999999-00311-00361101981ADDMA1999999092601MD1310051+9999REMSYN04801359 46/// /0000 11031 21036 39260 40198 53005=
0089013590999992016010110004+60533+008200FM-12+077399999V0200501N003019999999N999999999-00201-00241101981ADDMA1999999092631MD1210071+9999REMSYN04801359 46/// /0503 11020 21024 39263 40198 52007=
0089013590999992016010111004+60533+008200FM-12+077399999V0201201N002019999999N999999999+00001-00051101981ADDMA1999999092701MD1310111+9999REMSYN04801359 46/// /1202 10000 21005 39270 40198 53011=
0244013590999992016010112004+60533+008200FM-12+077399999V0202101N002019999999N004700199+00121-00061102011ADDAA106000431AY171021AY271021GA1061+002501071GA2999+999999051GE19AGL   +99999+99999GF108991061999002501999999MA1999999092771MD1310171+9999MW1711OD139900801999REMSYN07601359 11347 82102 10012 21006 39277 40201 53017 69941 77177 8662/ 333 91108=
0089013590999992016010113004+60533+008200FM-12+077399999V0209999C999999999999N999999999+00111-00181102141ADDMA1999999092881MD1310241+9999REMSYN04801359 46/// /0000 10011 21018 39288 40214 53024=
0089013590999992016010114004+60533+008200FM-12+077399999V0209999C999999999999N999999999-00071-00131102311ADDMA1999999092981MD1310281+9999REMSYN04801359 46/// /0000 11007 21013 39298 40231 53028=
0089013590999992016010115004+60533+008200FM-12+077399999V0209999C999999999999N999999999-00151-00191102421ADDMA1999999093061MD1210291+9999REMSYN04801359 46/// /0000 11015 21019 39306 40242 52029=
0089013590999992016010116004+60533+008200FM-12+077399999V0203101N001019999999N999999999-00191-00211102511ADDMA1999999093121MD1310251+9999REMSYN04801359 46/// /3101 11019 21021 39312 40251 53025=
0089013590999992016010117004+60533+008200FM-12+077399999V0209999C999999999999N999999999-00551-00611102731ADDMA1999999093201MD1210221+9999REMSYN04801359 46/// /0000 11055 21061 39320 40273 52022=
0263013590999992016010118004+60533+008200FM-12+077399999V0209999C999999999999N070001199-00731-00791102871ADDAA112000431AY171021AY221021GA1011+012501061GA2999+999999021GE19AGL   +99999+99999GF102991011999012501999999KA1120M+00141MA1999999093271MD1210211+9999MW1011OD139900501999REMSYN08201359 11689 20000 11073 21079 39327 40287 52021 69942 70172 81508 333 10014 91105=
0089013590999992016010119004+60533+008200FM-12+077399999V0209999C999999999999N999999999-00841-00911102961ADDMA1999999093311MD1210191+9999REMSYN04801359 46/// /0000 11084 21091 39331 40296 52019=
0089013590999992016010120004+60533+008200FM-12+077399999V0209999C999999999999N999999999-00701-00761102921ADDMA1999999093321MD1110121+9999REMSYN04801359 46/// /0000 11070 21076 39332 40292 51012=
0089013590999992016010121004+60533+008200FM-12+077399999V0209999C999999999999N999999999-00601-00681102931ADDMA1999999093371MD1210101+9999REMSYN04801359 46/// /0000 11060 21068 39337 40293 52010=
0089013590999992016010122004+60533+008200FM-12+077399999V0209999C999999999999N999999999-00491-00591102931ADDMA1999999093401MD1210091+9999REMSYN04801359 46/// ///// 11049 21059 39340 40293 52009=
0089013590999992016010123004+60533+008200FM-12+077399999V0209999C999999999999N999999999-00501-00571102961ADDMA1999999093431MD1110101+9999REMSYN04801359 46/// /0000 11050 21057 39343 40296 51010=
0130013590999992016010200004+60533+008200FM-12+077399999V0209999C999999999999N999999999-00491-00551102971ADDAA106000091MA1999999093441MD1110071+9999OD139900201999REMSYN06401359 16/// /0000 11049 21055 39344 40297 51007 60001 333 91102=
0089013590999992016010201004+60533+008200FM-12+077399999V0209999C999999999999N999999999-00471-00521102981ADDMA1999999093461MD1210051+9999REMSYN04801359 46/// /0000 11047 21052 39346 40298 52005=
0089013590999992016010202004+60533+008200FM-12+077399999V0209999C999999999999N999999999-00461-00511102991ADDMA1999999093471MD1210041+9999REMSYN04801359 46/// /0000 11046 21051 39347 40299 52004=
0089013590999992016010203004+60533+008200FM-12+077399999V0202701N001019999999N999999999-00411-00451103001ADDMA1999999093491MD1210051+9999REMSYN04801359 46/// /2701 11041 21045 39349 40300 52005=
0089013590999992016010204004+60533+008200FM-12+077399999V0200201N001019999999N999999999-00261-00311102921ADDMA1999999093481MD1990021+9999REMSYN04801359 46/// /0201 11026 21031 39348 40292 50002=
0089013590999992016010205004+60533+008200FM-12+077399999V0200701N001019999999N999999999-00191-00371102921ADDMA1999999093491MD1210021+9999REMSYN04801359 46/// /0701 11019 21037 39349 40292 52002=
0309013590999992016010206004+60533+008200FM-12+077399999V0200901N003019999999N024000199-00201-00411102941ADDAA112000331AA224000731AJ100253100250099AY121021AY201021GA1041+004501071GA2999+999999031GE19AGL   +99999+99999GF108991041999004501999999IA1289KA1240N-00881MA1999999093511MD1210021+9999MW1021OD139900701999REMSYN09401359 11474 80903 11020 21041 39351 40294 52002 69932 70220 8467/ 333 21088 48025 70007 91107=
0089013590999992016010207004+60533+008200FM-12+077399999V0200701N002019999999N999999999-00231-00441102991ADDMA1999999093541MD1310071+9999REMSYN04801359 46/// /0702 11023 21044 39354 40299 53007=
0089013590999992016010208004+60533+008200FM-12+077399999V0200801N002019999999N999999999-00261-00451103031ADDMA1999999093571MD1310081+9999REMSYN04801359 46/// /0802 11026 21045 39357 40303 53008=
0089013590999992016010209004+60533+008200FM-12+077399999V0200801N003019999999N999999999-00301-00491103081ADDMA1999999093601MD1210091+9999REMSYN04801359 46/// /0803 11030 21049 39360 40308 52009=
0089013590999992016010210004+60533+008200FM-12+077399999V0200601N002019999999N999999999-00301-00551103111ADDMA1999999093631MD1210081+9999REMSYN04801359 46/// /0602 11030 21055 39363 40311 52008=
0089013590999992016010211004+60533+008200FM-12+077399999V0200501N003019999999N999999999-00371-00631103151ADDMA1999999093641MD1210071+9999REMSYN04801359 46/// /0503 11037 21063 39364 40315 52007=
0244013590999992016010212004+60533+008200FM-12+077399999V0200601N004019999999N008000199-00441-00671103211ADDAA106000731AY171021AY221021GA1061+004501071GA2999+999999051GE19AGL   +99999+99999GF108991061999004501999999MA1999999093671MD1210071+9999MW1701OD139900901999REMSYN07601359 11458 80604 11044 21067 39367 40321 52007 69971 77072 8662/ 333 91109=
0089013590999992016010213004+60533+008200FM-12+077399999V0200701N003019999999N999999999-00551-00821103311ADDMA1999999093731MD1310101+9999REMSYN04801359 46/// /0703 11055 21082 39373 40331 53010=
0089013590999992016010214004+60533+008200FM-12+077399999V0200601N003019999999N999999999-00641-00911103381ADDMA1999999093761MD1210121+9999REMSYN04801359 46/// /0603 11064 21091 39376 40338 52012=
0089013590999992016010215004+60533+008200FM-12+077399999V0200601N004019999999N999999999-00731-00981103431ADDMA1999999093781MD1110111+9999REMSYN04801359 46/// /0604 11073 21098 39378 40343 51011=
0089013590999992016010216004+60533+008200FM-12+077399999V0200801N002019999999N999999999-00801-01101103471ADDMA1999999093791MD1210061+9999REMSYN04801359 46/// /0802 11080 21110 39379 40347 52006=
0089013590999992016010217004+60533+008200FM-12+077399999V0200501N003019999999N999999999-00861-01101103491ADDMA1999999093791MD1210031+9999REMSYN04801359 46/// /0503 11086 21110 39379 40349 52003=
0247013590999992016010218004+60533+008200FM-12+077399999V0200601N003019999999N013000199-00891-01071103501ADDAA112001031AY171021AY221021GA1081+004501051GE19AGL   +99999+99999GF108991081999004501999999KA1120M-00201MA1999999093781MD1410001+9999MW1711OD139900901999REMSYN08201359 11463 80603 11089 21107 39378 40350 54000 60012 77172 8802/ 333 11020 91109=
0089013590999992016010219004+60533+008200FM-12+077399999V0200501N004019999999N999999999-00911-01221103511ADDMA1999999093791MD1990001+9999REMSYN04801359 46/// /0504 11091 21122 39379 40351 50000=
0089013590999992016010220004+60533+008200FM-12+077399999V0200501N004019999999N999999999-00951-01161103471ADDMA1999999093741MD1810051+9999REMSYN04801359 46/// /0504 11095 21116 39374 40347 58005=
0089013590999992016010221004+60533+008200FM-12+077399999V0200401N004019999999N999999999-00951-01131103461ADDMA1999999093731MD1810061+9999REMSYN04801359 46/// /0404 11095 21113 39373 40346 58006=
0089013590999992016010222004+60533+008200FM-12+077399999V0200501N004019999999N999999999-00951-01171103451ADDMA1999999093721MD1610071+9999REMSYN04801359 46/// /0504 11095 21117 39372 40345 56007=
0089013590999992016010223004+60533+008200FM-12+077399999V0200501N005019999999N999999999-00971-01231103431ADDMA1999999093691MD1710051+9999REMSYN04801359 46/// /0505 11097 21123 39369 40343 57005=
0130013590999992016010300004+60533+008200FM-12+077399999V0200501N003019999999N999999999-01001-01261103401ADDAA106000331MA1999999093661MD1710071+9999OD139900801999REMSYN06401359 16/// /0503 11100 21126 39366 40340 57007 69931 333 91108=
0089013590999992016010301004+60533+008200FM-12+077399999V0200601N002019999999N999999999-01021-01311103401ADDMA1999999093641MD1810081+9999REMSYN04801359 46/// /0602 11102 21131 39364 40340 58008=
0089013590999992016010302004+60533+008200FM-12+077399999V0200501N003019999999N999999999-01041-01291103381ADDMA1999999093621MD1810071+9999REMSYN04801359 46/// /0503 11104 21129 39362 40338 58007=
0089013590999992016010303004+60533+008200FM-12+077399999V0200401N004019999999N999999999-01061-01311103331ADDMA1999999093571MD1810091+9999REMSYN04801359 46/// /0404 11106 21131 39357 40333 58009=
0089013590999992016010304004+60533+008200FM-12+077399999V0200401N003019999999N999999999-01071-01291103271ADDMA1999999093511MD1810141+9999REMSYN04801359 46/// /0403 11107 21129 39351 40327 58014=
0089013590999992016010305004+60533+008200FM-12+077399999V0200401N003019999999N999999999-01071-01301103231ADDMA1999999093481MD1710141+9999REMSYN04801359 46/// /0403 11107 21130 39348 40323 57014=
0293013590999992016010306004+60533+008200FM-12+077399999V0200301N003019999999N030000199-01081-01301103171ADDAA112000531AA224001531AJ100253100250099AY171021AY221021GA1081+004501061GE19AGL   +99999+99999GF108991081999004501999999IA1289KA1240N-01081MA1999999093421MD1810151+9999MW1021OD139900701999REMSYN09401359 11480 80303 11108 21130 39342 40317 58015 69952 70272 885// 333 21108 48025 70015 91107=
0089013590999992016010307004+60533+008200FM-12+077399999V0200401N003019999999N999999999-01091-01321103111ADDMA1999999093361MD1810151+9999REMSYN04801359 46/// /0403 11109 21132 39336 40311 58015=
0089013590999992016010308004+60533+008200FM-12+077399999V0200401N003019999999N999999999-01081-01331103021ADDMA1999999093281MD1810201+9999REMSYN04801359 46/// /0403 11108 21133 39328 40302 58020=
0089013590999992016010309004+60533+008200FM-12+077399999V0200601N003019999999N999999999-01071-01351102951ADDMA1999999093221MD1810201+9999REMSYN04801359 46/// /0603 11107 21135 39322 40295 58020=
0089013590999992016010310004+60533+008200FM-12+077399999V0200501N003019999999N999999999-01051-01351102861ADDMA1999999093151MD1710211+9999REMSYN04801359 46/// /0503 11105 21135 39315 40286 57021=
0089013590999992016010311004+60533+008200FM-12+077399999V0200601N002019999999N999999999-01051-01311102771ADDMA1999999093071MD1810221+9999REMSYN04801359 46/// /0602 11105 21131 39307 40277 58022=
0263013590999992016010312004+60533+008200FM-12+077399999V0200701N002019999999N013000199-01041-01301102651ADDAA106999999AY171021AY221021GA1051+002501071GA2999+999999031GE19AGL   +99999+99999GF107991051999002501999999MA1999999092961MD1810261+9999MW1221OD139900701999REMSYN07601359 11363 70702 11104 21130 39296 40265 58026 60001 72272 85670 333 91107=EQDQ01  00002PRCP06
0089013590999992016010313004+60533+008200FM-12+077399999V0200901N001019999999N999999999-01061-01381102541ADDMA1999999092861MD1810301+9999REMSYN04801359 46/// /0901 11106 21138 39286 40254 58030=
0089013590999992016010314004+60533+008200FM-12+077399999V0209999C999999999999N999999999-01131-01431102471ADDMA1999999092761MD1810301+9999REMSYN04801359 46/// /0000 11113 21143 39276 40247 58030=
0089013590999992016010315004+60533+008200FM-12+077399999V0200701N001019999999N999999999-01151-01411102381ADDMA1999999092681MD1610291+9999REMSYN04801359 46/// /0701 11115 21141 39268 40238 56029=
0089013590999992016010316004+60533+008200FM-12+077399999V0202201N001019999999N999999999-01351-01531102401ADDMA1999999092621MD1710231+9999REMSYN04801359 46/// /2201 11135 21153 39262 40240 57023=
0089013590999992016010317004+60533+008200FM-12+077399999V0200501N002019999999N999999999-01141-01411102221ADDMA1999999092541MD1810221+9999REMSYN04801359 46/// /0502 11114 21141 39254 40222 58022=
0247013590999992016010318004+60533+008200FM-12+077399999V0201801N001019999999N030000199-01491-01691102261ADDAA112000431AY121021AY221021GA1061+008001061GE19AGL   +99999+99999GF106991061999008001999999KA1120M-01021MA1999999092451MD1810221+9999MW1021OD139900401999REMSYN08201359 11580 61801 11149 21169 39245 40226 58022 69942 70222 86500 333 11102 91104=
0089013590999992016010319004+60533+008200FM-12+077399999V0203001N001019999999N999999999-01511-01641102211ADDMA1999999092391MD1710231+9999REMSYN04801359 46/// /3001 11151 21164 39239 40221 57023=
0089013590999992016010320004+60533+008200FM-12+077399999V0203001N001019999999N999999999-01541-01701102121ADDMA1999999092301MD1810241+9999REMSYN04801359 46/// /3001 11154 21170 39230 40212 58024=
0089013590999992016010321004+60533+008200FM-12+077399999V0202201N001019999999N999999999-01501-01651102031ADDMA1999999092241MD1710211+9999REMSYN04801359 46/// /2201 11150 21165 39224 40203 57021=
0089013590999992016010322004+60533+008200FM-12+077399999V0202301N001019999999N999999999-01581-01731101991ADDMA1999999092181MD1710221+9999REMSYN04801359 46/// /2301 11158 21173 39218 40199 57022=
0089013590999992016010323004+60533+008200FM-12+077399999V0202501N001019999999N999999999-01581-01721101921ADDMA1999999092111MD1710191+9999REMSYN04801359 46/// /2501 11158 21172 39211 40192 57019=
0130013590999992016010400004+60533+008200FM-12+077399999V0203001N001019999999N999999999-01471-01621101801ADDAA106000091MA1999999092041MD1710201+9999OD139900201999REMSYN06401359 16/// /3001 11147 21162 39204 40180 57020 60001 333 91102=
0089013590999992016010401004+60533+008200FM-12+077399999V0203501N001019999999N999999999-01421-01581101691ADDMA1999999091961MD1810211+9999REMSYN04801359 46/// /3501 11142 21158 39196 40169 58021=
0089013590999992016010402004+60533+008200FM-12+077399999V0203401N001019999999N999999999-01431-01581101611ADDMA1999999091881MD1710231+9999REMSYN04801359 46/// /3401 11143 21158 39188 40161 57023=
0089013590999992016010403004+60533+008200FM-12+077399999V0200201N001019999999N999999999-01391-01551101551ADDMA1999999091851MD1610201+9999REMSYN04801359 46/// /0201 11139 21155 39185 40155 56020=
0089013590999992016010404004+60533+008200FM-12+077399999V0209999C999999999999N999999999-01421-01581101521ADDMA1999999091811MD1610151+9999REMSYN04801359 46/// /0000 11142 21158 39181 40152 56015=
0089013590999992016010405004+60533+008200FM-12+077399999V0202401N001019999999N999999999-01431-01621101451ADDMA1999999091741MD1810141+9999REMSYN04801359 46/// /2401 11143 21162 39174 40145 58014=
0293013590999992016010406004+60533+008200FM-12+077399999V0202801N001019999999N016000199-01451-01661101401ADDAA112000091AA224000531AJ100253100250099AY121021AY221021GA1081+004501061GE19AGL   +99999+99999GF108991081999004501999999IA1289KA1240N-01611MA1999999091691MD1710151+9999MW1021OD139900301999REMSYN09401359 11466 82801 11145 21166 39169 40140 57015 60002 70222 885// 333 21161 48025 70005 91103=
0089013590999992016010407004+60533+008200FM-12+077399999V0202501N001019999999N999999999-01421-01661101351ADDMA1999999091661MD1710151+9999REMSYN04801359 46/// /2501 11142 21166 39166 40135 57015=
0089013590999992016010408004+60533+008200FM-12+077399999V0202601N002019999999N999999999-01381-01681101371ADDMA1999999091691MD1510051+9999REMSYN04801359 46/// /2602 11138 21168 39169 40137 55005=
0089013590999992016010409004+60533+008200FM-12+077399999V0202601N002019999999N999999999-01371-01671101351ADDMA1999999091671MD1510021+9999REMSYN04801359 46/// /2602 11137 21167 39167 40135 55002=
0089013590999992016010410004+60533+008200FM-12+077399999V0209999C999999999999N999999999-01361-01671101321ADDMA1999999091651MD1990011+9999REMSYN04801359 46/// /0000 11136 21167 39165 40132 50001=
0089013590999992016010411004+60533+008200FM-12+077399999V0202201N002019999999N999999999-01501-01791101291ADDMA1999999091571MD1810121+9999REMSYN04801359 46/// /2202 11150 21179 39157 40129 58012=
0228013590999992016010412004+60533+008200FM-12+077399999V0201901N001019999999N070001199-01641-01971101301ADDAA106000091AY121021AY201021GA1011+008001061GE19AGL   +99999+99999GF101991011999008001999999MA1999999091531MD1810151+9999MW1011OD139900301999REMSYN07601359 11589 11901 11164 21197 39153 40130 58015 60001 70120 81500 333 91103=
0089013590999992016010413004+60533+008200FM-12+077399999V0202301N001019999999N999999999-01951-02171101391ADDMA1999999091501MD1610151+9999REMSYN04801359 46/// /2301 11195 21217 39150 40139 56015=
0089013590999992016010414004+60533+008200FM-12+077399999V0200401N001019999999N999999999-01921-02071101361ADDMA1999999091481MD1610091+9999REMSYN04801359 46/// /0401 11192 21207 39148 40136 56009=
0089013590999992016010415004+60533+008200FM-12+077399999V0209999C999999999999N999999999-02041-02221101361ADDMA1999999091441MD1710091+9999REMSYN04801359 46/// /0000 11204 21222 39144 40136 57009=
0089013590999992016010416004+60533+008200FM-12+077399999V0201101N001019999999N999999999-02121-02321101411ADDMA1999999091461MD1510041+9999REMSYN04801359 46/// /1101 11212 21232 39146 40141 55004=
0089013590999992016010417004+60533+008200FM-12+077399999V0200901N001019999999N999999999-01921-02101101361ADDMA1999999091481MD1510001+9999REMSYN04801359 46/// /0901 11192 21210 39148 40136 55000=
0247013590999992016010418004+60533+008200FM-12+077399999V0201401N001019999999N035000199-01901-02151101391ADDAA112000091AY121021AY201021GA1051+008001061GE19AGL   +99999+99999GF105991051999008001999999KA1120M-01331MA1999999091521MD1310071+9999MW1021OD139900401999REMSYN08201359 11581 51401 11190 21215 39152 40139 53007 60002 70220 85500 333 11133 91104=
0089013590999992016010419004+60533+008200FM-12+077399999V0209999C999999999999N999999999-02171-02371101541ADDMA1999999091561MD1210101+9999REMSYN04801359 46/// /0000 11217 21237 39156 40154 52010=
0089013590999992016010420004+60533+008200FM-12+077399999V0209999C999999999999N999999999-02321-02531101621ADDMA1999999091571MD1210091+9999REMSYN04801359 46/// /0000 11232 21253 39157 40162 52009=
0089013590999992016010421004+60533+008200FM-12+077399999V0209999C999999999999N999999999-02541-02771101711ADDMA1999999091571MD1110051+9999REMSYN04801359 46/// /0000 11254 21277 39157 40171 51005=
0089013590999992016010422004+60533+008200FM-12+077399999V0203401N001019999999N999999999-02511-02711101741ADDMA1999999091601MD1310041+9999REMSYN04801359 46/// /3401 11251 21271 39160 40174 53004=
0089013590999992016010423004+60533+008200FM-12+077399999V0209999C999999999999N999999999-02641-02871101761ADDMA1999999091581MD1990011+9999REMSYN04801359 46/// /0000 11264 21287 39158 40176 50001=
0130013590999992016010500004+60533+008200FM-12+077399999V0200201N001019999999N999999999-02471-02641101671ADDAA106000091MA1999999091561MD1990011+9999OD139900201999REMSYN06401359 16/// /0201 11247 21264 39156 40167 50001 60001 333 91102=
0089013590999992016010501004+60533+008200FM-12+077399999V0209999C999999999999N999999999-02491-02741101681ADDMA1999999091561MD1510041+9999REMSYN04801359 46/// /0000 11249 21274 39156 40168 55004=
0089013590999992016010502004+60533+008200FM-12+077399999V0209999C999999999999N999999999-02531-02781101681ADDMA1999999091541MD1710031+9999REMSYN04801359 46/// /0000 11253 21278 39154 40168 57003=
0089013590999992016010503004+60533+008200FM-12+077399999V0209999C999999999999N999999999-02651-02911101741ADDMA1999999091551MD1410001+9999REMSYN04801359 46/// /0000 11265 21291 39155 40174 54000=
0089013590999992016010504004+60533+008200FM-12+077399999V0202701N002019999999N999999999-02191-02381101551ADDMA1999999091561MD1510011+9999REMSYN04801359 46/// /2702 11219 21238 39156 40155 55001=
0089013590999992016010505004+60533+008200FM-12+077399999V0209999C999999999999N999999999-01921-02081101431ADDMA1999999091551MD1410001+9999REMSYN04801359 46/// /0000 11192 21208 39155 40143 54000=
0328013590999992016010506004+60533+008200FM-12+077399999V0209999C999999999999N014000199-01771-01931101411ADDAA112999999AA224999999AJ100253100250099AY171021AY211021GA1081+004501071GE19AGL   +99999+99999GF108991081999004501999999IA1289KA1240N-02751MA1999999091581MD1310031+9999MW1781OD139900301999REMSYN09401359 11464 80000 11177 21193 39158 40141 53003 60002 77871 886// 333 21275 48025 70000 91103=EQDQ01  00002PRCP12Q02  00002PRCP24
0089013590999992016010507004+60533+008200FM-12+077399999V0209999C999999999999N999999999-01721-01881101431ADDMA1999999091621MD1310061+9999REMSYN04801359 46/// /0000 11172 21188 39162 40143 53006=
0089013590999992016010508004+60533+008200FM-12+077399999V0209999C999999999999N999999999-01651-01811101441ADDMA1999999091651MD1210101+9999REMSYN04801359 46/// /0000 11165 21181 39165 40144 52010=
0089013590999992016010509004+60533+008200FM-12+077399999V0209999C999999999999N999999999-01571-01721101471ADDMA1999999091701MD1310121+9999REMSYN04801359 46/// /0000 11157 21172 39170 40147 53012=
0089013590999992016010510004+60533+008200FM-12+077399999V0209999C999999999999N999999999-01551-01711101491ADDMA1999999091741MD1210121+9999REMSYN04801359 46/// /0000 11155 21171 39174 40149 52012=
0089013590999992016010511004+60533+008200FM-12+077399999V0209999C999999999999N999999999-01461-01641101461ADDMA1999999091741MD1110091+9999REMSYN04801359 46/// /0000 11146 21164 39174 40146 51009=
0228013590999992016010512004+60533+008200FM-12+077399999V0209999C999999999999N008000199-01411-01591101411ADDAA106000231AY171021AY271021GA1081+004501071GE19AGL   +99999+99999GF108991081999004501999999MA1999999091711MD1990011+9999MW1781OD139900101999REMSYN07601359 11458 80000 11141 21159 39171 40141 50001 69921 77877 886// 333 91101=
0089013590999992016010513004+60533+008200FM-12+077399999V0209999C999999999999N999999999-01331-01531101381ADDMA1999999091711MD1710031+9999REMSYN04801359 46/// /0000 11133 21153 39171 40138 57003=
0089013590999992016010514004+60533+008200FM-12+077399999V0209999C999999999999N999999999-01331-01521101351ADDMA1999999091681MD1710051+9999REMSYN04801359 46/// /0000 11133 21152 39168 40135 57005=
0089013590999992016010515004+60533+008200FM-12+077399999V0202401N001019999999N999999999-01371-01531101351ADDMA1999999091671MD1710041+9999REMSYN04801359 46/// /2401 11137 21153 39167 40135 57004=
0089013590999992016010516004+60533+008200FM-12+077399999V0209999C999999999999N999999999-01491-01641101431ADDMA1999999091701MD1510011+9999REMSYN04801359 46/// /0000 11149 21164 39170 40143 55001=
0089013590999992016010517004+60533+008200FM-12+077399999V0209999C999999999999N999999999-01531-01721101501ADDMA1999999091761MD1310071+9999REMSYN04801359 46/// /0000 11153 21172 39176 40150 53007=
0263013590999992016010518004+60533+008200FM-12+077399999V0209999C999999999999N018000199-01511-01701101561ADDAA112000231AY171021AY221021GA1051+002501071GA2999+999999031GE19AGL   +99999+99999GF108991051999002501999999KA1120M-01321MA1999999091811MD1310141+9999MW1021OD139900201999REMSYN08201359 11368 80000 11151 21170 39181 40156 53014 69922 70272 8567/ 333 11132 91102=
0089013590999992016010519004+60533+008200FM-12+077399999V0209999C999999999999N999999999-01631-01801101601ADDMA1999999091801MD1990111+9999REMSYN04801359 46/// /0000 11163 21180 39180 40160 50011=
0089013590999992016010520004+60533+008200FM-12+077399999V0209999C999999999999N999999999-01821-02001101681ADDMA1999999091811MD1990051+9999REMSYN04801359 46/// /0000 11182 21200 39181 40168 50005=
0089013590999992016010521004+60533+008200FM-12+077399999V0209999C999999999999N999999999-01921-02111101691ADDMA1999999091781MD1710031+9999REMSYN04801359 46/// /0000 11192 21211 39178 40169 57003=
0089013590999992016010522004+60533+008200FM-12+077399999V0209999C999999999999N999999999-02181-02391101821ADDMA1999999091801MD1510011+9999REMSYN04801359 46/// /0000 11218 21239 39180 40182 55001=
0130013590999992016010600004+60533+008200FM-12+077399999V0209999C999999999999N999999999-02521-02771102011ADDAA106000091MA1999999091841MD1210071+9999OD139900001999REMSYN06401359 16/// /0000 11252 21277 39184 40201 52007 60001 333 91100=
0089013590999992016010601004+60533+008200FM-12+077399999V0209999C999999999999N999999999-02581-02851102091ADDMA1999999091891MD1310101+9999REMSYN04801359 46/// /0000 11258 21285 39189 40209 53010=
0089013590999992016010602004+60533+008200FM-12+077399999V0209999C999999999999N999999999-02461-02681102081ADDMA1999999091931MD1210111+9999REMSYN04801359 46/// /0000 11246 21268 39193 40208 52011=
0089013590999992016010603004+60533+008200FM-12+077399999V0209999C999999999999N999999999-02531-02791102121ADDMA1999999091941MD1210091+9999REMSYN04801359 46/// /0000 11253 21279 39194 40212 52009=
0089013590999992016010604004+60533+008200FM-12+077399999V0209999C999999999999N999999999-02431-02641102041ADDMA1999999091911MD1990011+9999REMSYN04801359 46/// /0000 11243 21264 39191 40204 50001=
0108013590999992016010605004+60533+008200FM-12+077399999V0209999C999999999999N999999999-02611-02841102131ADDMA1999999091921MD1290059+9999REMSYN04801359 46/// /0000 11261 21284 39192 40213 54001=EQDQ01.1    3APC3  
0293013590999992016010606004+60533+008200FM-12+077399999V0209999C999999999999N060000199-02611-02881102141ADDAA112000091AA224000331AJ100253100250099AY121021AY201021GA1021+002501071GE19AGL   +99999+99999GF102991021999002501999999IA1289KA1240N-02721MA1999999091921MD1510011+9999MW1021OD139900001999REMSYN09401359 11386 20000 11261 21288 39192 40214 55001 60002 70220 82600 333 21272 48025 70003 91100=
0089013590999992016010607004+60533+008200FM-12+077399999V0209999C999999999999N999999999-02541-02811102131ADDMA1999999091951MD1210041+9999REMSYN04801359 46/// /0000 11254 21281 39195 40213 52004=
0089013590999992016010608004+60533+008200FM-12+077399999V0202501N002019999999N999999999-02501-02731102151ADDMA1999999091981MD1310061+9999REMSYN04801359 46/// /2502 11250 21273 39198 40215 53006=
0089013590999992016010609004+60533+008200FM-12+077399999V0202301N002019999999N999999999-02081-02271102001ADDMA1999999092001MD1210081+9999REMSYN04801359 46/// /2302 11208 21227 39200 40200 52008=
0089013590999992016010610004+60533+008200FM-12+077399999V0202301N002019999999N999999999-01981-02171101921ADDMA1999999091971MD1990021+9999REMSYN04801359 46/// /2302 11198 21217 39197 40192 50002=
0089013590999992016010611004+60533+008200FM-12+077399999V0202101N002019999999N999999999-02051-02271101961ADDMA1999999091971MD1990001+9999REMSYN04801359 46/// /2102 11205 21227 39197 40196 50000=
0184013590999992016010612004+60533+008200FM-12+077399999V0202201N002019999999N070001199-02251-02491102011ADDAA106000091AY101021AY201021GF100995999999999999999999MA1999999091951MD1710051+9999MW1021OD139900401999REMSYN07001359 11989 02202 11225 21249 39195 40201 57005 60001 70200 333 91104=
0089013590999992016010613004+60533+008200FM-12+077399999V0202401N002019999999N999999999-02091-02281101931ADDMA1999999091931MD1710031+9999REMSYN04801359 46/// /2402 11209 21228 39193 40193 57003=
0089013590999992016010614004+60533+008200FM-12+077399999V0202301N002019999999N999999999-02221-02431101961ADDMA1999999091921MD1710061+9999REMSYN04801359 46/// /2302 11222 21243 39192 40196 57006=
0089013590999992016010615004+60533+008200FM-12+077399999V0202301N002019999999N999999999-02071-02301101911ADDMA1999999091931MD1510021+9999REMSYN04801359 46/// /2302 11207 21230 39193 40191 55002=
0089013590999992016010616004+60533+008200FM-12+077399999V0202101N001019999999N999999999-02251-02481101971ADDMA1999999091911MD1710021+9999REMSYN04801359 46/// /2101 11225 21248 39191 40197 57002=
0108013590999992016010617004+60533+008200FM-12+077399999V0202201N001019999999N999999999-02391-02651102041ADDMA1999999091931MD1290089+9999REMSYN04801359 46/// /2201 11239 21265 39193 40204 54001=EQDQ01.1    3APC3  
0203013590999992016010618004+60533+008200FM-12+077399999V0201901N001019999999N070001199-02381-02591102011ADDAA112000091AY101021AY201021GF100995999999999999999999KA1120M-01901MA1999999091901MD1710031+9999MW1021OD139900401999REMSYN07601359 11989 01901 11238 21259 39190 40201 57003 60002 70200 333 11190 91104=
0089013590999992016010619004+60533+008200FM-12+077399999V0202501N001019999999N999999999-02191-02391101911ADDMA1999999091881MD1810031+9999REMSYN04801359 46/// /2501 11219 21239 39188 40191 58003=
0089013590999992016010620004+60533+008200FM-12+077399999V0209999C999999999999N999999999-02281-02471101931ADDMA1999999091861MD1710061+9999REMSYN04801359 46/// /0000 11228 21247 39186 40193 57006=
0089013590999992016010621004+60533+008200FM-12+077399999V0209999C999999999999N999999999-02241-02431101891ADDMA1999999091841MD1710061+9999REMSYN04801359 46/// /0000 11224 21243 39184 40189 57006=
0089013590999992016010622004+60533+008200FM-12+077399999V0209999C999999999999N999999999-02251-02441101911ADDMA1999999091861MD1510021+9999REMSYN04801359 46/// /0000 11225 21244 39186 40191 55002=
0089013590999992016010623004+60533+008200FM-12+077399999V0209999C999999999999N999999999-02381-02601101941ADDMA1999999091831MD1810031+9999REMSYN04801359 46/// /0000 11238 21260 39183 40194 58003=
0130013590999992016010700004+60533+008200FM-12+077399999V0209999C999999999999N999999999-02291-02501101891ADDAA106000091MA1999999091821MD1810021+9999OD139900301999REMSYN06401359 16/// /0000 11229 21250 39182 40189 58002 60001 333 91103=
0089013590999992016010701004+60533+008200FM-12+077399999V0209999C999999999999N999999999-02301-02501101881ADDMA1999999091821MD1710041+9999REMSYN04801359 46/// /0000 11230 21250 39182 40188 57004=
0089013590999992016010702004+60533+008200FM-12+077399999V0202101N001019999999N999999999-01981-02161101721ADDMA1999999091791MD1710041+9999REMSYN04801359 46/// /2101 11198 21216 39179 40172 57004=
0089013590999992016010703004+60533+008200FM-12+077399999V0200501N001019999999N999999999-01881-02061101651ADDMA1999999091761MD1710061+9999REMSYN04801359 46/// /0501 11188 21206 39176 40165 57006=
0089013590999992016010704004+60533+008200FM-12+077399999V0209999C999999999999N999999999-01791-01961101591ADDMA1999999091741MD1710081+9999REMSYN04801359 46/// /0000 11179 21196 39174 40159 57008=
0089013590999992016010705004+60533+008200FM-12+077399999V0209999C999999999999N999999999-01731-01901101561ADDMA1999999091731MD1710061+9999REMSYN04801359 46/// /0000 11173 21190 39173 40156 57006=
0328013590999992016010706004+60533+008200FM-12+077399999V0209999C999999999999N006000199-01661-01821101471ADDAA112999999AA224999999AJ100253100250099AY171021AY201021GA1081+001501071GE19AGL   +99999+99999GF108991081999001501999999IA1289KA1240N-02431MA1999999091681MD1810081+9999MW1701OD139900201999REMSYN09401359 11256 80000 11166 21182 39168 40147 58008 60002 77070 886// 333 21243 48025 70000 91102=EQDQ01  00002PRCP12Q02  00002PRCP24
0089013590999992016010707004+60533+008200FM-12+077399999V0200701N001019999999N999999999-01661-01821101461ADDMA1999999091671MD1710071+9999REMSYN04801359 46/// /0701 11166 21182 39167 40146 57007=
0089013590999992016010708004+60533+008200FM-12+077399999V0209999C999999999999N999999999-01671-01831101471ADDMA1999999091681MD1510051+9999REMSYN04801359 46/// /0000 11167 21183 39168 40147 55005=
0108013590999992016010709004+60533+008200FM-12+077399999V0209999C999999999999N999999999-01671-01841101471ADDMA1999999091671MD1410009+9999REMSYN04801359 46/// /0000 11167 21184 39167 40147 54001=EQDQ01.1    3APC3  
0089013590999992016010710004+60533+008200FM-12+077399999V0201001N001019999999N999999999-01671-01861101441ADDMA1999999091651MD1810021+9999REMSYN04801359 46/// /1001 11167 21186 39165 40144 58002=
0089013590999992016010711004+60533+008200FM-12+077399999V0209999C999999999999N999999999-01641-01831101421ADDMA1999999091641MD1710031+9999REMSYN04801359 46/// /0000 11164 21183 39164 40142 57003=
0247013590999992016010712004+60533+008200FM-12+077399999V0209999C999999999999N006000199-01591-01781101331ADDAA106999999AY171021AY271021GA1081+001501071GE19AGL   +99999+99999GF108991081999001501999999MA1999999091581MD1810091+9999MW1711OD139900201999REMSYN07601359 11256 80000 11159 21178 39158 40133 58009 60001 77177 886// 333 91102=EQDQ01  00002PRCP06
0089013590999992016010713004+60533+008200FM-12+077399999V0209999C999999999999N999999999-01571-01771101281ADDMA1999999091541MD1810101+9999REMSYN04801359 46/// /0000 11157 21177 39154 40128 58010=
0089013590999992016010714004+60533+008200FM-12+077399999V0209999C999999999999N999999999-01601-01771101261ADDMA1999999091511MD1610131+9999REMSYN04801359 46/// /0000 11160 21177 39151 40126 56013=
0089013590999992016010715004+60533+008200FM-12+077399999V0202501N001019999999N999999999-01731-01911101301ADDMA1999999091501MD1710071+9999REMSYN04801359 46/// /2501 11173 21191 39150 40130 57007=
0089013590999992016010716004+60533+008200FM-12+077399999V0202301N002019999999N999999999-01831-02051101331ADDMA1999999091491MD1710051+9999REMSYN04801359 46/// /2302 11183 21205 39149 40133 57005=
0089013590999992016010717004+60533+008200FM-12+077399999V0202301N002019999999N999999999-02011-02251101391ADDMA1999999091481MD1710041+9999REMSYN04801359 46/// /2302 11201 21225 39148 40139 57004=
0247013590999992016010718004+60533+008200FM-12+077399999V0209999C999999999999N045000199-02271-02511101471ADDAA112000431AY171021AY221021GA1031+004501071GE19AGL   +99999+99999GF103991031999004501999999KA1120M-01551MA1999999091451MD1710051+9999MW1011OD139900301999REMSYN08201359 11483 30000 11227 21251 39145 40147 57005 69942 70172 83600 333 11155 91103=
0089013590999992016010719004+60533+008200FM-12+077399999V0202201N001019999999N999999999-02421-02671101521ADDMA1999999091441MD1710051+9999REMSYN04801359 46/// /2201 11242 21267 39144 40152 57005=
0089013590999992016010720004+60533+008200FM-12+077399999V0209999C999999999999N999999999-02351-02591101471ADDMA1999999091421MD1710061+9999REMSYN04801359 46/// /0000 11235 21259 39142 40147 57006=
0089013590999992016010721004+60533+008200FM-12+077399999V0202101N001019999999N999999999-02231-02441101371ADDMA1999999091381MD1710071+9999REMSYN04801359 46/// /2101 11223 21244 39138 40137 57007=
0089013590999992016010722004+60533+008200FM-12+077399999V0209999C999999999999N999999999-02081-02301101261ADDMA1999999091331MD1810111+9999REMSYN04801359 46/// /0000 11208 21230 39133 40126 58011=
0089013590999992016010723004+60533+008200FM-12+077399999V0202101N001019999999N999999999-02051-02271101201ADDMA1999999091291MD1810131+9999REMSYN04801359 46/// /2101 11205 21227 39129 40120 58013=
0130013590999992016010800004+60533+008200FM-12+077399999V0202301N001019999999N999999999-02021-02221101121ADDAA106000091MA1999999091231MD1810151+9999OD139900201999REMSYN06401359 16/// /2301 11202 21222 39123 40112 58015 60001 333 91102=
0089013590999992016010801004+60533+008200FM-12+077399999V0209999C999999999999N999999999-01951-02161101051ADDMA1999999091191MD1710141+9999REMSYN04801359 46/// /0000 11195 21216 39119 40105 57014=
0089013590999992016010802004+60533+008200FM-12+077399999V0209999C999999999999N999999999-01901-02111100991ADDMA1999999091151MD1710141+9999REMSYN04801359 46/// /0000 11190 21211 39115 40099 57014=
0089013590999992016010803004+60533+008200FM-12+077399999V0209999C999999999999N999999999-01881-02091100921ADDMA1999999091101MD1710131+9999REMSYN04801359 46/// /0000 11188 21209 39110 40092 57013=
0089013590999992016010804004+60533+008200FM-12+077399999V0209999C999999999999N999999999-01831-02041100901ADDMA1999999091101MD1710091+9999REMSYN04801359 46/// /0000 11183 21204 39110 40090 57009=
0089013590999992016010805004+60533+008200FM-12+077399999V0202401N001019999999N999999999-01831-02041100871ADDMA1999999091071MD1710081+9999REMSYN04801359 46/// /2401 11183 21204 39107 40087 57008=
0293013590999992016010806004+60533+008200FM-12+077399999V0209999C999999999999N015000199-01791-01991100851ADDAA112000091AA224000531AJ100273100270099AY121021AY201021GA1081+002501071GE19AGL   +99999+99999GF108991081999002501999999IA1289KA1240N-02451MA1999999091071MD1710031+9999MW1021OD139900201999REMSYN09401359 11365 80000 11179 21199 39107 40085 57003 60002 70220 886// 333 21245 48027 70005 91102=
0089013590999992016010807004+60533+008200FM-12+077399999V0209999C999999999999N999999999-01741-01941100841ADDMA1999999091081MD1510021+9999REMSYN04801359 46/// /0000 11174 21194 39108 40084 55002=
0089013590999992016010808004+60533+008200FM-12+077399999V0209999C999999999999N999999999-01761-01941100861ADDMA1999999091091MD1210021+9999REMSYN04801359 46/// /0000 11176 21194 39109 40086 52002=
0089013590999992016010809004+60533+008200FM-12+077399999V0209999C999999999999N999999999-01781-01981100871ADDMA1999999091091MD1210021+9999REMSYN04801359 46/// /0000 11178 21198 39109 40087 52002=
0089013590999992016010810004+60533+008200FM-12+077399999V0209999C999999999999N999999999-01751-01951100881ADDMA1999999091111MD1210031+9999REMSYN04801359 46/// /0000 11175 21195 39111 40088 52003=
0089013590999992016010811004+60533+008200FM-12+077399999V0209999C999999999999N999999999-01801-02031100881ADDMA1999999091091MD1990001+9999REMSYN04801359 46/// /0000 11180 21203 39109 40088 50000=
0247013590999992016010812004+60533+008200FM-12+077399999V0202301N001019999999N060000199-02111-02421101001ADDAA106000091AY121021AY201021GA1999+999999021GE19AGL   +99999+99999GF102991001999999999999999MA1999999091091MD1990001+9999MW1011OD139900201999REMSYN07601359 11986 22301 11211 21242 39109 40100 50000 60001 70120 80008 333 91102=EQDQ01    003SCCGA1
0089013590999992016010813004+60533+008200FM-12+077399999V0209999C999999999999N999999999-02201-02451101031ADDMA1999999091081MD1710031+9999REMSYN04801359 46/// /0000 11220 21245 39108 40103 57003=
0089013590999992016010814004+60533+008200FM-12+077399999V0209999C999999999999N999999999-02221-02421101041ADDMA1999999091081MD1710011+9999REMSYN04801359 46/// /0000 11222 21242 39108 40104 57001=
0089013590999992016010815004+60533+008200FM-12+077399999V0209999C999999999999N999999999-02361-02561101111ADDMA1999999091101MD1310011+9999REMSYN04801359 46/// /0000 11236 21256 39110 40111 53001=
0089013590999992016010816004+60533+008200FM-12+077399999V0209999C999999999999N999999999-02331-02511101121ADDMA1999999091111MD1210031+9999REMSYN04801359 46/// /0000 11233 21251 39111 40112 52003=
0089013590999992016010817004+60533+008200FM-12+077399999V0209999C999999999999N999999999-02511-02741101221ADDMA1999999091141MD1210061+9999REMSYN04801359 46/// /0000 11251 21274 39114 40122 52006=
0203013590999992016010818004+60533+008200FM-12+077399999V0209999C999999999999N070001199-02571-02831101271ADDAA112000091AY101021AY201021GF100995999999999999999999KA1120M-01741MA1999999091151MD1210051+9999MW1021OD139900201999REMSYN07601359 11989 00000 11257 21283 39115 40127 52005 60002 70200 333 11174 91102=
0089013590999992016010819004+60533+008200FM-12+077399999V0209999C999999999999N999999999-02441-02661101251ADDMA1999999091191MD1210071+9999REMSYN04801359 46/// /0000 11244 21266 39119 40125 52007=
0089013590999992016010820004+60533+008200FM-12+077399999V0209999C999999999999N999999999-02131-02321101151ADDMA1999999091211MD1310081+9999REMSYN04801359 46/// /0000 11213 21232 39121 40115 53008=
0089013590999992016010821004+60533+008200FM-12+077399999V0209999C999999999999N999999999-01971-02141101081ADDMA1999999091211MD1210061+9999REMSYN04801359 46/// /0000 11197 21214 39121 40108 52006=
0089013590999992016010822004+60533+008200FM-12+077399999V0209999C999999999999N999999999-01831-02001101051ADDMA1999999091241MD1210051+9999REMSYN04801359 46/// /0000 11183 21200 39124 40105 52005=
0089013590999992016010823004+60533+008200FM-12+077399999V0209999C999999999999N999999999-01761-01931101031ADDMA1999999091251MD1210031+9999REMSYN04801359 46/// /0000 11176 21193 39125 40103 52003=
0130013590999992016010900004+60533+008200FM-12+077399999V0209999C999999999999N999999999-01711-01881101041ADDAA106000091MA1999999091281MD1210061+9999OD139900201999REMSYN06401359 16/// /0000 11171 21188 39128 40104 52006 60001 333 91102=
0089013590999992016010901004+60533+008200FM-12+077399999V0200801N001019999999N999999999-01721-01901101081ADDMA1999999091301MD1310071+9999REMSYN04801359 46/// /0801 11172 21190 39130 40108 53007=
0089013590999992016010902004+60533+008200FM-12+077399999V0200701N001019999999N999999999-01731-01901101111ADDMA1999999091321MD1310081+9999REMSYN04801359 46/// /0701 11173 21190 39132 40111 53008=
0089013590999992016010903004+60533+008200FM-12+077399999V0209999C999999999999N999999999-01731-01911101121ADDMA1999999091331MD1210061+9999REMSYN04801359 46/// /0000 11173 21191 39133 40112 52006=
0089013590999992016010904004+60533+008200FM-12+077399999V0209999C999999999999N999999999-01711-01881101101ADDMA1999999091321MD1210021+9999REMSYN04801359 46/// /0000 11171 21188 39132 40110 52002=
0108013590999992016010905004+60533+008200FM-12+077399999V0209999C999999999999N999999999-01691-01861101081ADDMA1999999091321MD1790039+9999REMSYN04801359 46/// /0000 11169 21186 39132 40108 54001=EQDQ01.1    3APC3  
0293013590999992016010906004+60533+008200FM-12+077399999V0209999C999999999999N009000199-01671-01861101091ADDAA112000431AA224000431AJ100263100260099AY171021AY221021GA1081+004501051GE19AGL   +99999+99999GF108991081999004501999999IA1289KA1240N-02581MA1999999091331MD1410001+9999MW1711OD139900301999REMSYN09401359 11459 80000 11167 21186 39133 40109 54000 69942 77172 8802/ 333 21258 48026 70004 91103=
0089013590999992016010907004+60533+008200FM-12+077399999V0209999C999999999999N999999999-01661-01831101111ADDMA1999999091351MD1210031+9999REMSYN04801359 46/// /0000 11166 21183 39135 40111 52003=
0089013590999992016010908004+60533+008200FM-12+077399999V0209999C999999999999N999999999-01651-01821101131ADDMA1999999091381MD1210061+9999REMSYN04801359 46/// /0000 11165 21182 39138 40113 52006=
0089013590999992016010909004+60533+008200FM-12+077399999V0209999C999999999999N999999999-01621-01791101181ADDMA1999999091431MD1310101+9999REMSYN04801359 46/// /0000 11162 21179 39143 40118 53010=
0089013590999992016010910004+60533+008200FM-12+077399999V0209999C999999999999N999999999-01571-01741101181ADDMA1999999091441MD1210091+9999REMSYN04801359 46/// /0000 11157 21174 39144 40118 52009=
0089013590999992016010911004+60533+008200FM-12+077399999V0209999C999999999999N999999999-01511-01721101151ADDMA1999999091451MD1110071+9999REMSYN04801359 46/// /0000 11151 21172 39145 40115 51007=
0228013590999992016010912004+60533+008200FM-12+077399999V0209999C999999999999N009000199-01401-01631101091ADDAA106000731AY171021AY271021GA1081+004501051GE19AGL   +99999+99999GF108991081999004501999999MA1999999091421MD1990011+9999MW1711OD139900001999REMSYN07601359 11459 80000 11140 21163 39142 40109 50001 69971 77177 8802/ 333 91100=
0089013590999992016010913004+60533+008200FM-12+077399999V0200501N001019999999N999999999-01391-01591101091ADDMA1999999091421MD1710021+9999REMSYN04801359 46/// /0501 11139 21159 39142 40109 57002=
0089013590999992016010914004+60533+008200FM-12+077399999V0200601N002019999999N999999999-01401-01601101101ADDMA1999999091441MD1510011+9999REMSYN04801359 46/// /0602 11140 21160 39144 40110 55001=
0089013590999992016010915004+60533+008200FM-12+077399999V0200601N001019999999N999999999-01421-01621101111ADDMA1999999091431MD1210011+9999REMSYN04801359 46/// /0601 11142 21162 39143 40111 52001=
0089013590999992016010916004+60533+008200FM-12+077399999V0200601N001019999999N999999999-01431-01621101121ADDMA1999999091441MD1210011+9999REMSYN04801359 46/// /0601 11143 21162 39144 40112 52001=
0089013590999992016010917004+60533+008200FM-12+077399999V0200601N001019999999N999999999-01441-01631101101ADDMA1999999091421MD1710021+9999REMSYN04801359 46/// /0601 11144 21163 39142 40110 57002=
0263013590999992016010918004+60533+008200FM-12+077399999V0200601N001019999999N004800199-01441-01621101091ADDAA112001031AY171021AY271021GA1041+002501071GA2999+999999051GE19AGL   +99999+99999GF108991041999002501999999KA1120M-01381MA1999999091411MD1710021+9999MW1701OD139900301999REMSYN08201359 11348 80601 11144 21162 39141 40109 57002 60012 77077 8462/ 333 11138 91103=
0089013590999992016010919004+60533+008200FM-12+077399999V0200601N001019999999N999999999-01451-01641101071ADDMA1999999091391MD1710051+9999REMSYN04801359 46/// /0601 11145 21164 39139 40107 57005=
0089013590999992016010920004+60533+008200FM-12+077399999V0200601N002019999999N999999999-01451-01641101091ADDMA1999999091411MD1710011+9999REMSYN04801359 46/// /0602 11145 21164 39141 40109 57001=
0089013590999992016010921004+60533+008200FM-12+077399999V0200501N002019999999N999999999-01451-01641101081ADDMA1999999091401MD1710021+9999REMSYN04801359 46/// /0502 11145 21164 39140 40108 57002=
0089013590999992016010922004+60533+008200FM-12+077399999V0200701N001019999999N999999999-01451-01631101051ADDMA1999999091381MD1810011+9999REMSYN04801359 46/// /0701 11145 21163 39138 40105 58001=
0089013590999992016010923004+60533+008200FM-12+077399999V0200701N001019999999N999999999-01451-01611101021ADDMA1999999091341MD1710061+9999REMSYN04801359 46/// /0701 11145 21161 39134 40102 57006=
0130013590999992016011000004+60533+008200FM-12+077399999V0200601N002019999999N999999999-01451-01631100981ADDAA106000731MA1999999091311MD1810091+9999OD139900401999REMSYN06401359 16/// /0602 11145 21163 39131 40098 58009 69971 333 91104=
0089013590999992016011001004+60533+008200FM-12+077399999V0200701N001019999999N999999999-01461-01621100901ADDMA1999999091241MD1810141+9999REMSYN04801359 46/// /0701 11146 21162 39124 40090 58014=
0089013590999992016011002004+60533+008200FM-12+077399999V0200601N002019999999N999999999-01451-01611100861ADDMA1999999091201MD1810141+9999REMSYN04801359 46/// /0602 11145 21161 39120 40086 58014=
0089013590999992016011003004+60533+008200FM-12+077399999V0200701N002019999999N999999999-01461-01621100801ADDMA1999999091141MD1710161+9999REMSYN04801359 46/// /0702 11146 21162 39114 40080 57016=
0089013590999992016011004004+60533+008200FM-12+077399999V0200601N001019999999N999999999-01451-01601100731ADDMA1999999091081MD1810151+9999REMSYN04801359 46/// /0601 11145 21160 39108 40073 58015=
0089013590999992016011005004+60533+008200FM-12+077399999V0200601N002019999999N999999999-01461-01611100691ADDMA1999999091041MD1710161+9999REMSYN04801359 46/// /0602 11146 21161 39104 40069 57016=
0293013590999992016011006004+60533+008200FM-12+077399999V0200601N002019999999N005000199-01451-01611100611ADDAA112004031AA224005531AJ100303100300099AY171021AY271021GA1081+004501051GE19AGL   +99999+99999GF108991081999004501999999IA1289KA1240N-01461MA1999999090981MD1710171+9999MW1711OD139900401999REMSYN09401359 11450 80602 11145 21161 39098 40061 57017 60042 77177 8802/ 333 21146 48030 70055 91104=
0089013590999992016011007004+60533+008200FM-12+077399999V0200601N002019999999N999999999-01431-01581100581ADDMA1999999090961MD1710131+9999REMSYN04801359 46/// /0602 11143 21158 39096 40058 57013=
0089013590999992016011008004+60533+008200FM-12+077399999V0200701N002019999999N999999999-01431-01581100541ADDMA1999999090921MD1610121+9999REMSYN04801359 46/// /0702 11143 21158 39092 40054 56012=
0089013590999992016011009004+60533+008200FM-12+077399999V0200701N002019999999N999999999-01421-01571100501ADDMA1999999090891MD1710091+9999REMSYN04801359 46/// /0702 11142 21157 39089 40050 57009=
0089013590999992016011010004+60533+008200FM-12+077399999V0200701N002019999999N999999999-01381-01541100461ADDMA1999999090861MD1710091+9999REMSYN04801359 46/// /0702 11138 21154 39086 40046 57009=
0089013590999992016011011004+60533+008200FM-12+077399999V0200701N002019999999N999999999-01351-01531100371ADDMA1999999090791MD1810131+9999REMSYN04801359 46/// /0702 11135 21153 39079 40037 58013=
0228013590999992016011012004+60533+008200FM-12+077399999V0200701N002019999999N006000199-01321-01501100291ADDAA106001031AY171021AY271021GA1081+004501051GE19AGL   +99999+99999GF108991081999004501999999MA1999999090731MD1810161+9999MW1711OD139900501999REMSYN07601359 11456 80702 11132 21150 39073 40029 58016 60011 77177 8802/ 333 91105=
0089013590999992016011013004+60533+008200FM-12+077399999V0200701N002019999999N999999999-01311-01491100231ADDMA1999999090681MD1710191+9999REMSYN04801359 46/// /0702 11131 21149 39068 40023 57019=
0089013590999992016011014004+60533+008200FM-12+077399999V0200801N002019999999N999999999-01301-01461100191ADDMA1999999090641MD1710151+9999REMSYN04801359 46/// /0802 11130 21146 39064 40019 57015=
0089013590999992016011015004+60533+008200FM-12+077399999V0200801N002019999999N999999999-01301-01451100161ADDMA1999999090621MD1710111+9999REMSYN04801359 46/// /0802 11130 21145 39062 40016 57011=
0089013590999992016011016004+60533+008200FM-12+077399999V0200801N001019999999N999999999-01291-01441100111ADDMA1999999090571MD1810101+9999REMSYN04801359 46/// /0801 11129 21144 39057 40011 58010=
0089013590999992016011017004+60533+008200FM-12+077399999V0209999C999999999999N999999999-01261-01401100061ADDMA1999999090551MD1710101+9999REMSYN04801359 46/// /0000 11126 21140 39055 40006 57010=
0247013590999992016011018004+60533+008200FM-12+077399999V0200901N001019999999N008000199-01241-01381100041ADDAA112002031AY171021AY271021GA1081+004501051GE19AGL   +99999+99999GF108991081999004501999999KA1120M-01241MA1999999090531MD1610091+9999MW1701OD139900501999REMSYN08201359 11458 80901 11124 21138 39053 40004 56009 60022 77077 8802/ 333 11124 91105=
0089013590999992016011019004+60533+008200FM-12+077399999V0200701N001019999999N999999999-01231-01371099981ADDMA1999999090481MD1710091+9999REMSYN04801359 46/// /0701 11123 21137 39048 49998 57009=
0089013590999992016011020004+60533+008200FM-12+077399999V0200801N001019999999N999999999-01211-01351099981ADDMA1999999090481MD1710061+9999REMSYN04801359 46/// /0801 11121 21135 39048 49998 57006=
0089013590999992016011021004+60533+008200FM-12+077399999V0200901N002019999999N999999999-01211-01341099961ADDMA1999999090471MD1610061+9999REMSYN04801359 46/// /0902 11121 21134 39047 49996 56006=
0089013590999992016011022004+60533+008200FM-12+077399999V0200901N001019999999N999999999-01201-01331099941ADDMA1999999090451MD1710031+9999REMSYN04801359 46/// /0901 11120 21133 39045 49994 57003=
0089013590999992016011023004+60533+008200FM-12+077399999V0201101N001019999999N999999999-01181-01321099931ADDMA1999999090451MD1710031+9999REMSYN04801359 46/// /1101 11118 21132 39045 49993 57003=
0130013590999992016011100004+60533+008200FM-12+077399999V0209999C999999999999N999999999-01191-01321099931ADDAA106000091MA1999999090451MD1710021+9999OD139900401999REMSYN06401359 16/// /0000 11119 21132 39045 49993 57002 60001 333 91104=
0089013590999992016011101004+60533+008200FM-12+077399999V0209999C999999999999N999999999-01171-01261099901ADDMA1999999090421MD1810031+9999REMSYN04801359 46/// /0000 11117 21126 39042 49990 58003=
0089013590999992016011104004+60533+008200FM-12+077399999V0209999C999999999999N999999999-01101-01181099771ADDMA1999999090341MD1810091+9999REMSYN04801359 46/// /0000 11110 21118 39034 49977 58009=
0089013590999992016011105004+60533+008200FM-12+077399999V0209999C999999999999N999999999-01101-01191099751ADDMA1999999090321MD1710071+9999REMSYN04801359 46/// /0000 11110 21119 39032 49975 57007=
0293013590999992016011106004+60533+008200FM-12+077399999V0209999C999999999999N007000199-01071-01181099721ADDAA112000231AA224002331AJ100373100370099AY171021AY271021GA1081+004501051GE19AGL   +99999+99999GF108991081999004501999999IA1289KA1240N-01251MA1999999090301MD1710081+9999MW1701OD139900201999REMSYN09401359 11457 80000 11107 21118 39030 49972 57008 69922 77077 8802/ 333 21125 48037 70023 91102=
0089013590999992016011107004+60533+008200FM-12+077399999V0209999C999999999999N999999999-01061-01151099721ADDMA1999999090301MD1510031+9999REMSYN04801359 46/// /0000 11106 21115 39030 49972 55003=
0089013590999992016011108004+60533+008200FM-12+077399999V0209999C999999999999N999999999-01051-01161099741ADDMA1999999090331MD1510011+9999REMSYN04801359 46/// /0000 11105 21116 39033 49974 55001=
0089013590999992016011109004+60533+008200FM-12+077399999V0209999C999999999999N999999999-01041-01151099761ADDMA1999999090341MD1310051+9999REMSYN04801359 46/// /0000 11104 21115 39034 49976 53005=
0089013590999992016011110004+60533+008200FM-12+077399999V0209999C999999999999N999999999-01021-01141099761ADDMA1999999090351MD1210051+9999REMSYN04801359 46/// /0000 11102 21114 39035 49976 52005=
0089013590999992016011111004+60533+008200FM-12+077399999V0209999C999999999999N999999999-01101-01251099791ADDMA1999999090351MD1210031+9999REMSYN04801359 46/// /0000 11110 21125 39035 49979 52003=
0263013590999992016011112004+60533+008200FM-12+077399999V0209999C999999999999N030000199-01021-01141099741ADDAA106999999AY171021AY221021GA1061+008001061GA2999+999999041GE19AGL   +99999+99999GF107991061999008001999999MA1999999090331MD1710011+9999MW1221OD139900001999REMSYN07601359 11580 70000 11102 21114 39033 49974 57001 60001 72272 86510 333 91100=EQDQ01  00002PRCP06
0089013590999992016011113004+60533+008200FM-12+077399999V0209999C999999999999N999999999-00861-00991099681ADDMA1999999090331MD1710021+9999REMSYN04801359 46/// /0000 11086 21099 39033 49968 57002=
0089013590999992016011114004+60533+008200FM-12+077399999V0209999C999999999999N999999999-00921-01051099721ADDMA1999999090351MD1510001+9999REMSYN04801359 46/// /0000 11092 21105 39035 49972 55000=
0089013590999992016011115004+60533+008200FM-12+077399999V0209999C999999999999N999999999-00871-00981099711ADDMA1999999090361MD1210031+9999REMSYN04801359 46/// /0000 11087 21098 39036 49971 52003=
0089013590999992016011116004+60533+008200FM-12+077399999V0209999C999999999999N999999999-00841-00921099711ADDMA1999999090371MD1210041+9999REMSYN04801359 46/// /0000 11084 21092 39037 49971 52004=
0089013590999992016011117004+60533+008200FM-12+077399999V0209999C999999999999N999999999-00831-00921099711ADDMA1999999090371MD1210021+9999REMSYN04801359 46/// /0000 11083 21092 39037 49971 52002=
0263013590999992016011118004+60533+008200FM-12+077399999V0209999C999999999999N023000199-00731-00921099661ADDAA112000631AY171021AY221021GA1041+004501071GA2999+999999051GE19AGL   +99999+99999GF108991041999004501999999KA1120M-00691MA1999999090361MD1410001+9999MW1021OD139900301999REMSYN08201359 11473 80000 11073 21092 39036 49966 54000 69962 70272 8462/ 333 11069 91103=
0089013590999992016011119004+60533+008200FM-12+077399999V0209999C999999999999N999999999-00761-00891099671ADDMA1999999090361MD1710011+9999REMSYN04801359 46/// /0000 11076 21089 39036 49967 57001=
0108013590999992016011120004+60533+008200FM-12+077399999V0209999C999999999999N999999999-00741-00861099681ADDMA1999999090371MD1790039+9999REMSYN04801359 46/// /0000 11074 21086 39037 49968 54001=EQDQ01.1    3APC3  
0089013590999992016011121004+60533+008200FM-12+077399999V0209999C999999999999N999999999-00731-00861099691ADDMA1999999090391MD1210031+9999REMSYN04801359 46/// /0000 11073 21086 39039 49969 52003=
0089013590999992016011122004+60533+008200FM-12+077399999V0209999C999999999999N999999999-00751-00861099711ADDMA1999999090401MD1210041+9999REMSYN04801359 46/// /0000 11075 21086 39040 49971 52004=
0089013590999992016011123004+60533+008200FM-12+077399999V0209999C999999999999N999999999-00751-00861099721ADDMA1999999090401MD1210031+9999REMSYN04801359 46/// /0000 11075 21086 39040 49972 52003=
0130013590999992016011200004+60533+008200FM-12+077399999V0209999C999999999999N999999999-00751-00861099721ADDAA106000091MA1999999090411MD1210021+9999OD139900001999REMSYN06401359 16/// /0000 11075 21086 39041 49972 52002 60001 333 91100=
0089013590999992016011201004+60533+008200FM-12+077399999V0209999C999999999999N999999999-00781-00881099711ADDMA1999999090391MD1990011+9999REMSYN04801359 46/// /0000 11078 21088 39039 49971 50001=
0089013590999992016011202004+60533+008200FM-12+077399999V0209999C999999999999N999999999-00781-00881099761ADDMA1999999090431MD1310031+9999REMSYN04801359 46/// /0000 11078 21088 39043 49976 53003=
0089013590999992016011203004+60533+008200FM-12+077399999V0209999C999999999999N999999999-00791-00871099791ADDMA1999999090461MD1310051+9999REMSYN04801359 46/// /0000 11079 21087 39046 49979 53005=
0089013590999992016011204004+60533+008200FM-12+077399999V0209999C999999999999N999999999-00781-00861099781ADDMA1999999090451MD1110061+9999REMSYN04801359 46/// /0000 11078 21086 39045 49978 51006=
0089013590999992016011205004+60533+008200FM-12+077399999V0209999C999999999999N999999999-00761-00861099781ADDMA1999999090461MD1990021+9999REMSYN04801359 46/// /0000 11076 21086 39046 49978 50002=
0328013590999992016011206004+60533+008200FM-12+077399999V0209999C999999999999N009000199-00761-00841099771ADDAA112999999AA224000531AJ100373100370099AY171021AY221021GA1081+002501071GE19AGL   +99999+99999GF108991081999002501999999IA1289KA1240N-00791MA1999999090451MD1790029+9999MW1781OD139900001999REMSYN09401359 11359 80000 11076 21084 39045 49977 54001 60002 77872 886// 333 21079 48037 70005 91100=EQDQ01.1    3APC3  Q02  00002PRCP12
0089013590999992016011207004+60533+008200FM-12+077399999V0209999C999999999999N999999999-00771-00851099781ADDMA1999999090461MD1410001+9999REMSYN04801359 46/// /0000 11077 21085 39046 49978 54000=
0089013590999992016011208004+60533+008200FM-12+077399999V0209999C999999999999N999999999-00751-00851099821ADDMA1999999090501MD1310041+9999REMSYN04801359 46/// /0000 11075 21085 39050 49982 53004=
0089013590999992016011209004+60533+008200FM-12+077399999V0209999C999999999999N999999999-00761-00861099861ADDMA1999999090531MD1310081+9999REMSYN04801359 46/// /0000 11076 21086 39053 49986 53008=
0089013590999992016011210004+60533+008200FM-12+077399999V0209999C999999999999N999999999-00731-00851099881ADDMA1999999090561MD1210101+9999REMSYN04801359 46/// /0000 11073 21085 39056 49988 52010=
0089013590999992016011211004+60533+008200FM-12+077399999V0209999C999999999999N999999999-00671-00821099901ADDMA1999999090591MD1210101+9999REMSYN04801359 46/// /0000 11067 21082 39059 49990 52010=
0228013590999992016011212004+60533+008200FM-12+077399999V0209999C999999999999N011000199-00641-00811099901ADDAA106000231AY171021AY221021GA1081+002501071GE19AGL   +99999+99999GF108991081999002501999999MA1999999090601MD1210081+9999MW1781OD139900001999REMSYN07601359 11361 80000 11064 21081 39060 49990 52008 69921 77872 886// 333 91100=
0089013590999992016011213004+60533+008200FM-12+077399999V0209999C999999999999N999999999-00671-00861099931ADDMA1999999090621MD1210061+9999REMSYN04801359 46/// /0000 11067 21086 39062 49993 52006=
0089013590999992016011214004+60533+008200FM-12+077399999V0209999C999999999999N999999999-00701-00851099961ADDMA1999999090641MD1210051+9999REMSYN04801359 46/// /0000 11070 21085 39064 49996 52005=
0089013590999992016011215004+60533+008200FM-12+077399999V0209999C999999999999N999999999-00731-00851100001ADDMA1999999090671MD1210061+9999REMSYN04801359 46/// /0000 11073 21085 39067 40000 52006=
0089013590999992016011216004+60533+008200FM-12+077399999V0209999C999999999999N999999999-00771-00891100081ADDMA1999999090721MD1310101+9999REMSYN04801359 46/// /0000 11077 21089 39072 40008 53010=
0089013590999992016011217004+60533+008200FM-12+077399999V0200501N002019999999N999999999-00791-00911100141ADDMA1999999090781MD1310131+9999REMSYN04801359 46/// /0502 11079 21091 39078 40014 53013=
0266013590999992016011218004+60533+008200FM-12+077399999V0200601N002019999999N009000199-00821-00941100201ADDAA112999999AY171021AY271021GA1081+004501051GE19AGL   +99999+99999GF108991081999004501999999KA1120M-00631MA1999999090821MD1210161+9999MW1711OD139900401999REMSYN08201359 11459 80602 11082 21094 39082 40020 52016 60002 77177 8802/ 333 11063 91104=EQDQ01  00002PRCP12
0089013590999992016011219004+60533+008200FM-12+077399999V0200401N002019999999N999999999-00861-00991100261ADDMA1999999090861MD1210141+9999REMSYN04801359 46/// /0402 11086 21099 39086 40026 52014=
0089013590999992016011220004+60533+008200FM-12+077399999V0200601N001019999999N999999999-00881-01001100321ADDMA1999999090911MD1210131+9999REMSYN04801359 46/// /0601 11088 21100 39091 40032 52013=
0089013590999992016011221004+60533+008200FM-12+077399999V0200601N001019999999N999999999-00911-01051100381ADDMA1999999090951MD1210131+9999REMSYN04801359 46/// /0601 11091 21105 39095 40038 52013=
0089013590999992016011222004+60533+008200FM-12+077399999V0200701N001019999999N999999999-00921-01051100431ADDMA1999999090991MD1210131+9999REMSYN04801359 46/// /0701 11092 21105 39099 40043 52013=
0089013590999992016011223004+60533+008200FM-12+077399999V0209999C999999999999N999999999-00951-01061100501ADDMA1999999091041MD1310141+9999REMSYN04801359 46/// /0000 11095 21106 39104 40050 53014=
0130013590999992016011300004+60533+008200FM-12+077399999V0209999C999999999999N999999999-00961-01051100531ADDAA106000231MA1999999091071MD1210121+9999OD139900401999REMSYN06401359 16/// /0000 11096 21105 39107 40053 52012 69921 333 91104=
0089013590999992016011301004+60533+008200FM-12+077399999V0200701N001019999999N999999999-00971-01091100551ADDMA1999999091091MD1110091+9999REMSYN04801359 46/// /0701 11097 21109 39109 40055 51009=
0089013590999992016011302004+60533+008200FM-12+077399999V0209999C999999999999N999999999-00991-01111100601ADDMA1999999091121MD1210081+9999REMSYN04801359 46/// /0000 11099 21111 39112 40060 52008=
0089013590999992016011303004+60533+008200FM-12+077399999V0209999C999999999999N999999999-01011-01121100631ADDMA1999999091151MD1210081+9999REMSYN04801359 46/// /0000 11101 21112 39115 40063 52008=
0089013590999992016011304004+60533+008200FM-12+077399999V0209999C999999999999N999999999-01031-01121100661ADDMA1999999091171MD1210081+9999REMSYN04801359 46/// /0000 11103 21112 39117 40066 52008=
0089013590999992016011305004+60533+008200FM-12+077399999V0200601N001019999999N999999999-01021-01141100721ADDMA1999999091221MD1310101+9999REMSYN04801359 46/// /0601 11102 21114 39122 40072 53010=
0293013590999992016011306004+60533+008200FM-12+077399999V0209999C999999999999N009000199-01031-01161100771ADDAA112000231AA224000231AJ100403100400099AY171021AY221021GA1081+004501051GE19AGL   +99999+99999GF108991081999004501999999IA1289KA1240N-01031MA1999999091261MD1310121+9999MW1711OD139900201999REMSYN09401359 11459 80000 11103 21116 39126 40077 53012 69922 77172 8802/ 333 21103 48040 70002 91102=
0089013590999992016011307004+60533+008200FM-12+077399999V0209999C999999999999N999999999-01051-01181100811ADDMA1999999091291MD1210131+9999REMSYN04801359 46/// /0000 11105 21118 39129 40081 52013=
0089013590999992016011308004+60533+008200FM-12+077399999V0209999C999999999999N999999999-01061-01201100871ADDMA1999999091341MD1210121+9999REMSYN04801359 46/// /0000 11106 21120 39134 40087 52012=
0089013590999992016011309004+60533+008200FM-12+077399999V0209999C999999999999N999999999-01061-01201100921ADDMA1999999091391MD1210121+9999REMSYN04801359 46/// /0000 11106 21120 39139 40092 52012=
0089013590999992016011310004+60533+008200FM-12+077399999V0209999C999999999999N999999999-01061-01231100961ADDMA1999999091421MD1210131+9999REMSYN04801359 46/// /0000 11106 21123 39142 40096 52013=
0089013590999992016011311004+60533+008200FM-12+077399999V0209999C999999999999N999999999-00981-01191100951ADDMA1999999091441MD1210101+9999REMSYN04801359 46/// /0000 11098 21119 39144 40095 52010=
0244013590999992016011312004+60533+008200FM-12+077399999V0209999C999999999999N005000199-00981-01231100971ADDAA106000331AY171021AY271021GA1051+002501071GA2999+999999031GE19AGL   +99999+99999GF108991051999002501999999MA1999999091461MD1990081+9999MW1711OD139900001999REMSYN07601359 11350 80000 11098 21123 39146 40097 50008 69931 77177 8567/ 333 91100=
0089013590999992016011313004+60533+008200FM-12+077399999V0209999C999999999999N999999999-00971-01211100961ADDMA1999999091461MD1990041+9999REMSYN04801359 46/// /0000 11097 21121 39146 40096 50004=
0089013590999992016011314004+60533+008200FM-12+077399999V0209999C999999999999N999999999-01051-01261101001ADDMA1999999091471MD1990031+9999REMSYN04801359 46/// /0000 11105 21126 39147 40100 50003=
0089013590999992016011315004+60533+008200FM-12+077399999V0209999C999999999999N999999999-01141-01291101041ADDMA1999999091481MD1210011+9999REMSYN04801359 46/// /0000 11114 21129 39148 40104 52001=
0089013590999992016011316004+60533+008200FM-12+077399999V0209999C999999999999N999999999-01181-01321101111ADDMA1999999091521MD1310061+9999REMSYN04801359 46/// /0000 11118 21132 39152 40111 53006=
0089013590999992016011317004+60533+008200FM-12+077399999V0209999C999999999999N999999999-01171-01311101091ADDMA1999999091511MD1990041+9999REMSYN04801359 46/// /0000 11117 21131 39151 40109 50004=
0247013590999992016011318004+60533+008200FM-12+077399999V0209999C999999999999N009000199-01191-01331101091ADDAA112005031AY171021AY271021GA1081+004501051GE19AGL   +99999+99999GF108991081999004501999999KA1120M-00971MA1999999091491MD1990021+9999MW1711OD139900001999REMSYN08201359 11459 80000 11119 21133 39149 40109 50002 60052 77177 8802/ 333 11097 91100=
0108013590999992016011319004+60533+008200FM-12+077399999V0209999C999999999999N999999999-01221-01351101121ADDMA1999999091511MD1290019+9999REMSYN04801359 46/// /0000 11122 21135 39151 40112 54001=EQDQ01.1    3APC3  
0089013590999992016011320004+60533+008200FM-12+077399999V0209999C999999999999N999999999-01211-01331101151ADDMA1999999091541MD1310041+9999REMSYN04801359 46/// /0000 11121 21133 39154 40115 53004=
0089013590999992016011321004+60533+008200FM-12+077399999V0209999C999999999999N999999999-01231-01371101181ADDMA1999999091561MD1210071+9999REMSYN04801359 46/// /0000 11123 21137 39156 40118 52007=
0089013590999992016011322004+60533+008200FM-12+077399999V0209999C999999999999N999999999-01241-01381101191ADDMA1999999091571MD1210061+9999REMSYN04801359 46/// /0000 11124 21138 39157 40119 52006=
0089013590999992016011323004+60533+008200FM-12+077399999V0209999C999999999999N999999999-01261-01411101191ADDMA1999999091571MD1210031+9999REMSYN04801359 46/// /0000 11126 21141 39157 40119 52003=
0130013590999992016011400004+60533+008200FM-12+077399999V0209999C999999999999N999999999-01281-01421101191ADDAA106001031MA1999999091561MD1410001+9999OD139900001999REMSYN06401359 16/// /0000 11128 21142 39156 40119 54000 60011 333 91100=
0089013590999992016011401004+60533+008200FM-12+077399999V0209999C999999999999N999999999-01291-01441101171ADDMA1999999091541MD1710031+9999REMSYN04801359 46/// /0000 11129 21144 39154 40117 57003=
0089013590999992016011402004+60533+008200FM-12+077399999V0209999C999999999999N999999999-01301-01451101171ADDMA1999999091531MD1710041+9999REMSYN04801359 46/// /0000 11130 21145 39153 40117 57004=
0089013590999992016011403004+60533+008200FM-12+077399999V0209999C999999999999N999999999-01321-01461101141ADDMA1999999091501MD1710061+9999REMSYN04801359 46/// /0000 11132 21146 39150 40114 57006=
0089013590999992016011404004+60533+008200FM-12+077399999V0209999C999999999999N999999999-01331-01471101141ADDMA1999999091501MD1710041+9999REMSYN04801359 46/// /0000 11133 21147 39150 40114 57004=
0089013590999992016011405004+60533+008200FM-12+077399999V0209999C999999999999N999999999-01331-01481101151ADDMA1999999091511MD1510021+9999REMSYN04801359 46/// /0000 11133 21148 39151 40115 55002=
0309013590999992016011406004+60533+008200FM-12+077399999V0209999C999999999999N007000199-01351-01491101161ADDAA112002031AA224007131AJ100433100430099AY171021AY271021GA1051+002501071GA2999+999999051GE19AGL   +99999+99999GF108991051999002501999999IA1289KA1240N-01371MA1999999091511MD1410001+9999MW1711OD139900001999REMSYN09401359 11357 80000 11135 21149 39151 40116 54000 60022 77177 8562/ 333 21137 48043 70071 91100=
0089013590999992016011407004+60533+008200FM-12+077399999V0209999C999999999999N999999999-01431-01581101201ADDMA1999999091511MD1210011+9999REMSYN04801359 46/// /0000 11143 21158 39151 40120 52001=
0089013590999992016011408004+60533+008200FM-12+077399999V0209999C999999999999N999999999-01541-01701101271ADDMA1999999091541MD1310041+9999REMSYN04801359 46/// /0000 11154 21170 39154 40127 53004=
0089013590999992016011409004+60533+008200FM-12+077399999V0209999C999999999999N999999999-01561-01711101311ADDMA1999999091571MD1310071+9999REMSYN04801359 46/// /0000 11156 21171 39157 40131 53007=
0089013590999992016011410004+60533+008200FM-12+077399999V0209999C999999999999N999999999-01691-01911101371ADDMA1999999091571MD1210061+9999REMSYN04801359 46/// /0000 11169 21191 39157 40137 52006=
0089013590999992016011411004+60533+008200FM-12+077399999V0209999C999999999999N999999999-01781-01961101361ADDMA1999999091541MD1990001+9999REMSYN04801359 46/// /0000 11178 21196 39154 40136 50000=
0247013590999992016011412004+60533+008200FM-12+077399999V0209999C999999999999N070001199-01891-02101101421ADDAA106000091AY171021AY221021GA1999+999999001GE19AGL   +99999+99999GF102991001999999999999999MA1999999091551MD1710021+9999MW1011OD139900001999REMSYN07601359 11989 20000 11189 21210 39155 40142 57002 60001 70172 80001 333 91100=EQDQ01    003SCCGA1
0089013590999992016011413004+60533+008200FM-12+077399999V0209999C999999999999N999999999-01831-02161101401ADDMA1999999091551MD1510021+9999REMSYN04801359 46/// /0000 11183 21216 39155 40140 55002=
0089013590999992016011414004+60533+008200FM-12+077399999V0209999C999999999999N999999999-01931-02151101441ADDMA1999999091551MD1210011+9999REMSYN04801359 46/// /0000 11193 21215 39155 40144 52001=
0089013590999992016011415004+60533+008200FM-12+077399999V0209999C999999999999N999999999-02031-02211101491ADDMA1999999091561MD1210011+9999REMSYN04801359 46/// /0000 11203 21221 39156 40149 52001=
0089013590999992016011416004+60533+008200FM-12+077399999V0209999C999999999999N999999999-02301-02551101641ADDMA1999999091601MD1310051+9999REMSYN04801359 46/// /0000 11230 21255 39160 40164 53005=
0089013590999992016011417004+60533+008200FM-12+077399999V0209999C999999999999N999999999-02371-02621101681ADDMA1999999091601MD1210051+9999REMSYN04801359 46/// /0000 11237 21262 39160 40168 52005=
0203013590999992016011418004+60533+008200FM-12+077399999V0202401N001019999999N070001199-02431-02671101741ADDAA199999919AY111021AY201021GF100995999999999999999999KA1120M-01351MA1999999091641MD1210071+9999MW1021OD139900201999REMSYN07601359 11989 02401 11243 21267 39164 40174 52007 6//// 70210 333 11135 91102=
0089013590999992016011419004+60533+008200FM-12+077399999V0209999C999999999999N999999999-02491-02711101761ADDMA1999999091641MD1210041+9999REMSYN04801359 46/// /0000 11249 21271 39164 40176 52004=
0089013590999992016011420004+60533+008200FM-12+077399999V0209999C999999999999N999999999-02591-02871101831ADDMA1999999091661MD1310061+9999REMSYN04801359 46/// /0000 11259 21287 39166 40183 53006=
0089013590999992016011421004+60533+008200FM-12+077399999V0209999C999999999999N999999999-02661-02941101871ADDMA1999999091671MD1210031+9999REMSYN04801359 46/// /0000 11266 21294 39167 40187 52003=
0089013590999992016011422004+60533+008200FM-12+077399999V0209999C999999999999N999999999-02521-02741101811ADDMA1999999091671MD1210031+9999REMSYN04801359 46/// /0000 11252 21274 39167 40181 52003=
0089013590999992016011423004+60533+008200FM-12+077399999V0209999C999999999999N999999999-02321-02481101751ADDMA1999999091691MD1210021+9999REMSYN04801359 46/// ///// 11232 21248 39169 40175 52002=
0130013590999992016011500004+60533+008200FM-12+077399999V0200501N001019999999N999999999-02041-02181101661ADDAA106000091MA1999999091711MD1210041+9999OD139900201999REMSYN06401359 16/// /0501 11204 21218 39171 40166 52004 60001 333 91102=
0089013590999992016011501004+60533+008200FM-12+077399999V0209999C999999999999N999999999-02261-02461101761ADDMA1999999091721MD1210061+9999REMSYN04801359 46/// /0000 11226 21246 39172 40176 52006=
0089013590999992016011502004+60533+008200FM-12+077399999V0200301N001019999999N999999999-01971-02131101651ADDMA1999999091731MD1990041+9999REMSYN04801359 46/// /0301 11197 21213 39173 40165 50004=
0089013590999992016011503004+60533+008200FM-12+077399999V0202101N001019999999N999999999-01981-02191101641ADDMA1999999091711MD1410001+9999REMSYN04801359 46/// /2101 11198 21219 39171 40164 54000=
0089013590999992016011504004+60533+008200FM-12+077399999V0209999C999999999999N999999999-01931-02111101601ADDMA1999999091701MD1710021+9999REMSYN04801359 46/// /0000 11193 21211 39170 40160 57002=
0089013590999992016011505004+60533+008200FM-12+077399999V0209999C999999999999N999999999-01891-02071101611ADDMA1999999091721MD1510001+9999REMSYN04801359 46/// /0000 11189 21207 39172 40161 55000=
0292013590999992016011506004+60533+008200FM-12+077399999V0209999C999999999999N040000199-01771-01941101621ADDAA112000091AJ100433100430099AY121021AY201021GA1041+004501071GA2999+999999021GE19AGL   +99999+99999GF105991041999004501999999IA1289KA1240N-02661MA1999999091771MD1310061+9999MW1021OD139900201999REMSYN08801359 11482 50000 11177 21194 39177 40162 53006 60002 70220 84608 333 21266 48043 91102=
0089013590999992016011507004+60533+008200FM-12+077399999V0209999C999999999999N999999999-01721-01881101601ADDMA1999999091771MD1110071+9999REMSYN04801359 46/// /0000 11172 21188 39177 40160 51007=
0089013590999992016011508004+60533+008200FM-12+077399999V0209999C999999999999N999999999-01721-01891101611ADDMA1999999091781MD1110061+9999REMSYN04801359 46/// /0000 11172 21189 39178 40161 51006=
0089013590999992016011509004+60533+008200FM-12+077399999V0209999C999999999999N999999999-01861-02071101731ADDMA1999999091841MD1310071+9999REMSYN04801359 46/// /0000 11186 21207 39184 40173 53007=
0089013590999992016011510004+60533+008200FM-12+077399999V0209999C999999999999N999999999-01801-01981101721ADDMA1999999091861MD1990091+9999REMSYN04801359 46/// /0000 11180 21198 39186 40172 50009=
0089013590999992016011511004+60533+008200FM-12+077399999V0202501N001019999999N999999999-01631-01801101661ADDMA1999999091861MD1990071+9999REMSYN04801359 46/// /2501 11163 21180 39186 40166 50007=
0244013590999992016011512004+60533+008200FM-12+077399999V0202701N002019999999N050000199-00622-00682101221ADDAA106000091AY121021AY221021GA1051+012501061GA2999+999999021GE19AGL   +99999+99999GF106991051999012501999999MA1999999091811MD1810021+9999MW1021OD139900401999REMSYN07601359 11684 62702 11062 21068 39181 40122 58002 60001 70222 85508 333 91104=
0089013590999992016011513004+60533+008200FM-12+077399999V0202401N001019999999N999999999-00452-00811101181ADDMA1999999091831MD1710031+9999REMSYN04801359 46/// /2401 11045 21081 39183 40118 57003=
0089013590999992016011514004+60533+008200FM-12+077399999V0202601N001019999999N999999999-00541-00811101211ADDMA1999999091821MD1510031+9999REMSYN04801359 46/// /2601 11054 21081 39182 40121 55003=
0089013590999992016011515004+60533+008200FM-12+077399999V0209999C999999999999N999999999-00641-00841101251ADDMA1999999091831MD1210011+9999REMSYN04801359 46/// /0000 11064 21084 39183 40125 52001=
0089013590999992016011516004+60533+008200FM-12+077399999V0202501N001019999999N999999999-00531-00771101231ADDMA1999999091851MD1310011+9999REMSYN04801359 46/// /2501 11053 21077 39185 40123 53001=
0089013590999992016011517004+60533+008200FM-12+077399999V0200901N002019999999N999999999-01221-01441101501ADDMA1999999091861MD1210041+9999REMSYN04801359 46/// /0902 11122 21144 39186 40150 52004=
0247013590999992016011518004+60533+008200FM-12+077399999V0200801N001019999999N002600199-01451-01611101711ADDAA112001031AY171021AY221021GA1081+002501051GE19AGL   +99999+99999GF108991081999002501999999KA1120M-00391MA1999999091971MD1310141+9999MW1711OD139900701999REMSYN08201359 11326 80801 11145 21161 39197 40171 53014 60012 77172 8802/ 333 11039 91107=
0089013590999992016011519004+60533+008200FM-12+077399999V0209999C999999999999N999999999-01381-01521101751ADDMA1999999092031MD1310181+9999REMSYN04801359 46/// /0000 11138 21152 39203 40175 53018=
0089013590999992016011520004+60533+008200FM-12+077399999V0209999C999999999999N999999999-01351-01481101811ADDMA1999999092091MD1110231+9999REMSYN04801359 46/// /0000 11135 21148 39209 40181 51023=
0089013590999992016011521004+60533+008200FM-12+077399999V0209999C999999999999N999999999-01281-01411101831ADDMA1999999092141MD1210171+9999REMSYN04801359 46/// /0000 11128 21141 39214 40183 52017=
0089013590999992016011522004+60533+008200FM-12+077399999V0209999C999999999999N999999999-01311-01461101911ADDMA1999999092201MD1210171+9999REMSYN04801359 46/// /0000 11131 21146 39220 40191 52017=
0089013590999992016011523004+60533+008200FM-12+077399999V0209999C999999999999N999999999-01281-01411101971ADDMA1999999092271MD1310171+9999REMSYN04801359 46/// /0000 11128 21141 39227 40197 53017=
0130013590999992016011600004+60533+008200FM-12+077399999V0200601N002019999999N999999999-01231-01371102031ADDAA106003031MA1999999092341MD1310201+9999OD139900401999REMSYN06401359 16/// /0602 11123 21137 39234 40203 53020 60031 333 91104=
0089013590999992016011601004+60533+008200FM-12+077399999V0209999C999999999999N999999999-01261-01401102101ADDMA1999999092391MD1210191+9999REMSYN04801359 46/// /0000 11126 21140 39239 40210 52019=
0089013590999992016011602004+60533+008200FM-12+077399999V0209999C999999999999N999999999-01261-01401102141ADDMA1999999092421MD1210151+9999REMSYN04801359 46/// /0000 11126 21140 39242 40214 52015=
0089013590999992016011603004+60533+008200FM-12+077399999V0209999C999999999999N999999999-01271-01401102181ADDMA1999999092461MD1210131+9999REMSYN04801359 46/// /0000 11127 21140 39246 40218 52013=
0089013590999992016011604004+60533+008200FM-12+077399999V0209999C999999999999N999999999-01261-01391102221ADDMA1999999092501MD1210111+9999REMSYN04801359 46/// /0000 11126 21139 39250 40222 52011=
0089013590999992016011605004+60533+008200FM-12+077399999V0201001N001019999999N999999999-01251-01391102271ADDMA1999999092541MD1210121+9999REMSYN04801359 46/// /1001 11125 21139 39254 40227 52012=
0293013590999992016011606004+60533+008200FM-12+077399999V0209999C999999999999N070001199-01341-01501102351ADDAA112004031AA224005731AJ100493100490099AY171021AY221021GA1021+012501061GE19AGL   +99999+99999GF102991021999012501999999IA1289KA1240N-01461MA1999999092591MD1210131+9999MW1011OD139900301999REMSYN09401359 11689 20000 11134 21150 39259 40235 52013 60042 70172 82500 333 21146 48049 70057 91103=
0089013590999992016011607004+60533+008200FM-12+077399999V0200401N001019999999N999999999-01531-01661102451ADDMA1999999092611MD1210121+9999REMSYN04801359 46/// /0401 11153 21166 39261 40245 52012=
0089013590999992016011608004+60533+008200FM-12+077399999V0209999C999999999999N999999999-01911-02101102671ADDMA1999999092671MD1210131+9999REMSYN04801359 46/// /0000 11191 21210 39267 40267 52013=
0089013590999992016011609004+60533+008200FM-12+077399999V0202701N001019999999N999999999-02221-02411102831ADDMA1999999092701MD1210111+9999REMSYN04801359 46/// /2701 11222 21241 39270 40283 52011=
0089013590999992016011610004+60533+008200FM-12+077399999V0209999C999999999999N999999999-02321-02541102921ADDMA1999999092741MD1210131+9999REMSYN04801359 46/// /0000 11232 21254 39274 40292 52013=
0089013590999992016011611004+60533+008200FM-12+077399999V0209999C999999999999N999999999-01821-02121102701ADDMA1999999092731MD1110061+9999REMSYN04801359 46/// /0000 11182 21212 39273 40270 51006=
0184013590999992016011612004+60533+008200FM-12+077399999V0202201N001019999999N070001199-01531-01941102591ADDAA106000091AY101021AY201021GF100995999999999999999999MA1999999092741MD1990031+9999MW1021OD139900301999REMSYN07001359 11989 02201 11153 21194 39274 40259 50003 60001 70200 333 91103=
0089013590999992016011613004+60533+008200FM-12+077399999V0202101N002019999999N999999999-01691-02171102671ADDMA1999999092751MD1210011+9999REMSYN04801359 46/// /2102 11169 21217 39275 40267 52001=
0089013590999992016011614004+60533+008200FM-12+077399999V0202101N001019999999N999999999-01761-02131102711ADDMA1999999092751MD1210021+9999REMSYN04801359 46/// /2101 11176 21213 39275 40271 52002=
0089013590999992016011615004+60533+008200FM-12+077399999V0209999C999999999999N999999999-01851-02081102751ADDMA1999999092771MD1210031+9999REMSYN04801359 46/// /0000 11185 21208 39277 40275 52003=
0089013590999992016011616004+60533+008200FM-12+077399999V0209999C999999999999N999999999-02031-02341102871ADDMA1999999092801MD1310051+9999REMSYN04801359 46/// /0000 11203 21234 39280 40287 53005=
0089013590999992016011617004+60533+008200FM-12+077399999V0202201N001019999999N999999999-02091-02281102911ADDMA1999999092821MD1210061+9999REMSYN04801359 46/// /2201 11209 21228 39282 40291 52006=
0203013590999992016011618004+60533+008200FM-12+077399999V0209999C999999999999N070001199-02061-02241102931ADDAA112000091AY101021AY201021GF100995999999999999999999KA1120M-01341MA1999999092851MD1110091+9999MW1021OD139900501999REMSYN07601359 11989 00000 11206 21224 39285 40293 51009 60002 70200 333 11134 91105=
0089013590999992016011619004+60533+008200FM-12+077399999V0203201N004019999999N999999999-00732-01322102392ADDMA1999999092831MD1990031+9999REMSYN04801359 46/// /3204 11073 21132 39283 40239 50003=
0089013590999992016011620004+60533+008200FM-12+077399999V0203301N005019999999N999999999-00761-01391102411ADDMA1999999092851MD1990031+9999REMSYN04801359 46/// /3305 11076 21139 39285 40241 50003=
0089013590999992016011621004+60533+008200FM-12+077399999V0203201N005019999999N999999999-00871-01441102491ADDMA1999999092871MD1310021+9999REMSYN04801359 46/// /3205 11087 21144 39287 40249 53002=
0089013590999992016011622004+60533+008200FM-12+077399999V0203201N005019999999N999999999-00841-01391102491ADDMA1999999092881MD1210051+9999REMSYN04801359 46/// /3205 11084 21139 39288 40249 52005=
0089013590999992016011623004+60533+008200FM-12+077399999V0203201N004019999999N999999999-00851-01401102511ADDMA1999999092911MD1210061+9999REMSYN04801359 46/// /3204 11085 21140 39291 40251 52006=
0130013590999992016011700004+60533+008200FM-12+077399999V0202701N003019999999N999999999-00871-01441102531ADDAA106000091MA1999999092921MD1210041+9999OD139900901999REMSYN06401359 16/// /2703 11087 21144 39292 40253 52004 60001 333 91109=
0089013590999992016011701004+60533+008200FM-12+077399999V0200201N002019999999N999999999-00971-01461102581ADDMA1999999092931MD1210051+9999REMSYN04801359 46/// /0202 11097 21146 39293 40258 52005=
0089013590999992016011702004+60533+008200FM-12+077399999V0203501N003019999999N999999999-00991-01651102611ADDMA1999999092941MD1210041+9999REMSYN04801359 46/// /3503 11099 21165 39294 40261 52004=
0108013590999992016011703004+60533+008200FM-12+077399999V0202601N001019999999N999999999-01131-01641102641ADDMA1999999092921MD1290119+9999REMSYN04801359 46/// /2601 11113 21164 39292 40264 54001=EQDQ01.1    3APC3  
0089013590999992016011704004+60533+008200FM-12+077399999V0209999C999999999999N999999999-01651-01871102871ADDMA1999999092951MD1210021+9999REMSYN04801359 46/// /0000 11165 21187 39295 40287 52002=
0089013590999992016011705004+60533+008200FM-12+077399999V0209999C999999999999N999999999-01861-02121102931ADDMA1999999092931MD1710021+9999REMSYN04801359 46/// /0000 11186 21212 39293 40293 57002=
0249013590999992016011706004+60533+008200FM-12+077399999V0209999C999999999999N070001199-01701-01911102861ADDAA112000231AA224000331AJ100493100490099AY101021AY201021GF100995999999999999999999IA1289KA1240N-02061MA1999999092921MD1990011+9999MW1021OD139900701999REMSYN08801359 11989 00000 11170 21191 39292 40286 50001 69922 70200 333 21206 48049 70003 91107=
0089013590999992016011707004+60533+008200FM-12+077399999V0209999C999999999999N999999999-01981-02111102951ADDMA1999999092901MD1710051+9999REMSYN04801359 46/// /0000 11198 21211 39290 40295 57005=
0089013590999992016011708004+60533+008200FM-12+077399999V0202701N003019999999N999999999-01381-01541102721ADDMA1999999092911MD1710021+9999REMSYN04801359 46/// /2703 11138 21154 39291 40272 57002=
0089013590999992016011709004+60533+008200FM-12+077399999V0202201N002019999999N999999999-01291-01681102671ADDMA1999999092891MD1710021+9999REMSYN04801359 46/// /2202 11129 21168 39289 40267 57002=
0089013590999992016011710004+60533+008200FM-12+077399999V0202401N002019999999N999999999-01191-01711102601ADDMA1999999092861MD1810041+9999REMSYN04801359 46/// /2402 11119 21171 39286 40260 58004=
0089013590999992016011711004+60533+008200FM-12+077399999V0202601N002019999999N999999999-00921-01541102471ADDMA1999999092841MD1710071+9999REMSYN04801359 46/// /2602 11092 21154 39284 40247 57007=
0247013590999992016011712004+60533+008200FM-12+077399999V0202301N001019999999N070001199-00831-01511102381ADDAA106000091AY101021AY201021GA1999+999999021GE19AGL   +99999+99999GF102991001999999999999999MA1999999092791MD1810101+9999MW1021OD139900601999REMSYN07601359 11989 22301 11083 21151 39279 40238 58010 60001 70200 80008 333 91106=EQDQ01    003SCCGA1
0089013590999992016011713004+60533+008200FM-12+077399999V0209999C999999999999N999999999-00861-01451102361ADDMA1999999092761MD1810101+9999REMSYN04801359 46/// /0000 11086 21145 39276 40236 58010=
0089013590999992016011714004+60533+008200FM-12+077399999V0209999C999999999999N999999999-01121-01441102401ADDMA1999999092711MD1710141+9999REMSYN04801359 46/// /0000 11112 21144 39271 40240 57014=
0089013590999992016011715004+60533+008200FM-12+077399999V0202701N001019999999N999999999-01031-01331102271ADDMA1999999092621MD1810161+9999REMSYN04801359 46/// /2701 11103 21133 39262 40227 58016=
0089013590999992016011716004+60533+008200FM-12+077399999V0202301N001019999999N999999999-01061-01341102231ADDMA1999999092581MD1710181+9999REMSYN04801359 46/// /2301 11106 21134 39258 40223 57018=
0089013590999992016011717004+60533+008200FM-12+077399999V0202801N002019999999N999999999-00831-01201102111ADDMA1999999092551MD1610161+9999REMSYN04801359 46/// /2802 11083 21120 39255 40211 56016=
0266013590999992016011718004+60533+008200FM-12+077399999V0203601N002019999999N070000199-00721-01171101991ADDAA112000091AY111021AY201021GA1999+999999001GE19AGL   +99999+99999GF103991001999999999999999KA1120M-00711MA1999999092471MD1810151+9999MW1021OD139900601999REMSYN08201359 11988 33602 11072 21117 39247 40199 58015 60002 70210 80002 333 11071 91106=EQDQ01    003SCCGA1
0089013590999992016011719004+60533+008200FM-12+077399999V0202801N002019999999N999999999-00821-01141102011ADDMA1999999092461MD1710121+9999REMSYN04801359 46/// /2802 11082 21114 39246 40201 57012=
0089013590999992016011720004+60533+008200FM-12+077399999V0200401N001019999999N999999999-00891-01261101951ADDMA1999999092381MD1810171+9999REMSYN04801359 46/// /0401 11089 21126 39238 40195 58017=
0089013590999992016011721004+60533+008200FM-12+077399999V0203001N005019999999N999999999-00651-01121101781ADDMA1999999092311MD1810171+9999REMSYN04801359 46/// /3005 11065 21112 39231 40178 58017=
0089013590999992016011722004+60533+008200FM-12+077399999V0202601N003019999999N999999999-00691-01081101771ADDMA1999999092281MD1610181+9999REMSYN04801359 46/// /2603 11069 21108 39228 40177 56018=
0089013590999992016011723004+60533+008200FM-12+077399999V0202301N006019999999N999999999-00691-01081101711ADDMA1999999092221MD1610151+9999REMSYN04801359 46/// /2306 11069 21108 39222 40171 56015=
0130013590999992016011800004+60533+008200FM-12+077399999V0203501N003019999999N999999999-00721-01051101741ADDAA106000091MA1999999092251MD1510061+9999OD139901001999REMSYN06401359 16/// /3503 11072 21105 39225 40174 55006 60001 333 91110=
0089013590999992016011801004+60533+008200FM-12+077399999V0209999C999999999999N999999999-00681-00991101671ADDMA1999999092201MD1810081+9999REMSYN04801359 46/// /0000 11068 21099 39220 40167 58008=
0089013590999992016011802004+60533+008200FM-12+077399999V0202501N005019999999N999999999-00611-01001101591ADDMA1999999092141MD1810081+9999REMSYN04801359 46/// /2505 11061 21100 39214 40159 58008=
0089013590999992016011803004+60533+008200FM-12+077399999V0202701N004019999999N999999999-00591-01101101481ADDMA1999999092061MD1810191+9999REMSYN04801359 46/// /2704 11059 21110 39206 40148 58019=
0089013590999992016011804004+60533+008200FM-12+077399999V0200201N003019999999N999999999-00501-01181101401ADDMA1999999092021MD1710181+9999REMSYN04801359 46/// /0203 11050 21118 39202 40140 57018=
0089013590999992016011805004+60533+008200FM-12+077399999V0203001N003019999999N999999999-00591-01101101391ADDMA1999999091981MD1610161+9999REMSYN04801359 46/// /3003 11059 21110 39198 40139 56016=
0293013590999992016011806004+60533+008200FM-12+077399999V0202401N005019999999N070001199-00651-01071101361ADDAA112000231AA224000231AJ100463100460099AY111021AY201021GA1011+008001061GE19AGL   +99999+99999GF101991011999008001999999IA1289KA1240N-01111MA1999999091921MD1810131+9999MW1021OD139901101999REMSYN09401359 11589 12405 11065 21107 39192 40136 58013 69922 70210 81500 333 21111 48046 70002 91111=
0089013590999992016011807004+60533+008200FM-12+077399999V0202301N005019999999N999999999-00631-01051101351ADDMA1999999091921MD1510091+9999REMSYN04801359 46/// /2305 11063 21105 39192 40135 55009=
0089013590999992016011808004+60533+008200FM-12+077399999V0202301N005019999999N999999999-00601-00871101361ADDMA1999999091941MD1510041+9999REMSYN04801359 46/// /2305 11060 21087 39194 40136 55004=
0089013590999992016011809004+60533+008200FM-12+077399999V0202401N003019999999N999999999-00641-00841101351ADDMA1999999091921MD1410001+9999REMSYN04801359 46/// /2403 11064 21084 39192 40135 54000=
0089013590999992016011810004+60533+008200FM-12+077399999V0202401N005019999999N999999999-00521-00881101251ADDMA1999999091871MD1810051+9999REMSYN04801359 46/// /2405 11052 21088 39187 40125 58005=
0089013590999992016011811004+60533+008200FM-12+077399999V0202401N004019999999N999999999-00441-00951101211ADDMA1999999091861MD1710091+9999REMSYN04801359 46/// /2404 11044 21095 39186 40121 57009=
0247013590999992016011812004+60533+008200FM-12+077399999V0202301N005019999999N035000199-00471-00981101161ADDAA106999999AY181021AY201021GA1051+008001081GE19AGL   +99999+99999GF105991051999008001999999MA1999999091811MD1710121+9999MW1261OD139901201999REMSYN07601359 11581 52305 11047 21098 39181 40116 57012 60001 72680 85800 333 91112=EQDQ01  00002PRCP06
0089013590999992016011813004+60533+008200FM-12+077399999V0202301N003019999999N999999999-00511-00941101161ADDMA1999999091791MD1710081+9999REMSYN04801359 46/// /2303 11051 21094 39179 40116 57008=
0089013590999992016011814004+60533+008200FM-12+077399999V0202401N002019999999N999999999-00521-00901101141ADDMA1999999091771MD1610081+9999REMSYN04801359 46/// /2402 11052 21090 39177 40114 56008=
0089013590999992016011815004+60533+008200FM-12+077399999V0209999C999999999999N999999999-00711-01051101211ADDMA1999999091771MD1710031+9999REMSYN04801359 46/// /0000 11071 21105 39177 40121 57003=
0089013590999992016011816004+60533+008200FM-12+077399999V0201901N003019999999N999999999-00701-01141101181ADDMA1999999091751MD1710051+9999REMSYN04801359 46/// /1903 11070 21114 39175 40118 57005=
0089013590999992016011817004+60533+008200FM-12+077399999V0202901N003019999999N999999999-00621-01241101131ADDMA1999999091731MD1810051+9999REMSYN04801359 46/// /2903 11062 21124 39173 40113 58005=
0266013590999992016011818004+60533+008200FM-12+077399999V0202201N002019999999N070001199-01021-01421101281ADDAA112000231AY121021AY201021GA1999+999999021GE19AGL   +99999+99999GF102991001999999999999999KA1120M-00371MA1999999091731MD1710041+9999MW1011OD139900901999REMSYN08201359 11989 22202 11102 21142 39173 40128 57004 69922 70120 80008 333 11037 91109=EQDQ01    003SCCGA1
0089013590999992016011819004+60533+008200FM-12+077399999V0209999C999999999999N999999999-01351-01581101411ADDMA1999999091731MD1710021+9999REMSYN04801359 46/// /0000 11135 21158 39173 40141 57002=
0089013590999992016011820004+60533+008200FM-12+077399999V0203101N001019999999N999999999-01331-01491101401ADDMA1999999091731MD1410001+9999REMSYN04801359 46/// /3101 11133 21149 39173 40140 54000=
0108013590999992016011821004+60533+008200FM-12+077399999V0209999C999999999999N999999999-01881-02141101621ADDMA1999999091741MD1290349+9999REMSYN04801359 46/// /0000 11188 21214 39174 40162 54001=EQDQ01.1    3APC3  
0089013590999992016011822004+60533+008200FM-12+077399999V0209999C999999999999N999999999-01971-02211101671ADDMA1999999091741MD1210021+9999REMSYN04801359 46/// /0000 11197 21221 39174 40167 52002=
0089013590999992016011823004+60533+008200FM-12+077399999V0209999C999999999999N999999999-01971-02151101671ADDMA1999999091741MD1210011+9999REMSYN04801359 46/// /0000 11197 21215 39174 40167 52001=
0130013590999992016011900004+60533+008200FM-12+077399999V0209999C999999999999N999999999-01891-02061101611ADDAA106000091MA1999999091721MD1810021+9999OD139900301999REMSYN06401359 16/// ///// 11189 21206 39172 40161 58002 60001 333 91103=
0089013590999992016011901004+60533+008200FM-12+077399999V0202301N001019999999N999999999-01811-02031101561ADDMA1999999091701MD1710041+9999REMSYN04801359 46/// /2301 11181 21203 39170 40156 57004=
0089013590999992016011902004+60533+008200FM-12+077399999V0201901N002019999999N999999999-01831-02091101551ADDMA1999999091681MD1710061+9999REMSYN04801359 46/// /1902 11183 21209 39168 40155 57006=
0089013590999992016011903004+60533+008200FM-12+077399999V0200901N001019999999N999999999-01671-01971101431ADDMA1999999091631MD1810091+9999REMSYN04801359 46/// /0901 11167 21197 39163 40143 58009=
0089013590999992016011904004+60533+008200FM-12+077399999V0202201N001019999999N999999999-01821-02071101481ADDMA1999999091631MD1710071+9999REMSYN04801359 46/// /2201 11182 21207 39163 40148 57007=
0089013590999992016011905004+60533+008200FM-12+077399999V0202201N002019999999N999999999-01951-02181101521ADDMA1999999091621MD1610071+9999REMSYN04801359 46/// /2202 11195 21218 39162 40152 56007=
0249013590999992016011906004+60533+008200FM-12+077399999V0201901N001019999999N070001199-01791-02051101441ADDAA112000091AA224000331AJ100463100460099AY101021AY201021GF100995999999999999999999IA1289KA1240N-02231MA1999999091611MD1710031+9999MW1021OD139900401999REMSYN08801359 11989 01901 11179 21205 39161 40144 57003 60002 70200 333 21223 48046 70003 91104=
0108013590999992016011907004+60533+008200FM-12+077399999V0202401N001019999999N999999999-01861-02081101491ADDMA1999999091621MD1290019+9999REMSYN04801359 46/// /2401 11186 21208 39162 40149 54001=EQDQ01.1    3APC3  
0108013590999992016011908004+60533+008200FM-12+077399999V0200701N001019999999N999999999-01711-01891101431ADDMA1999999091631MD1790099+9999REMSYN04801359 46/// /0701 11171 21189 39163 40143 54001=EQDQ01.1    3APC3  
0089013590999992016011909004+60533+008200FM-12+077399999V0209999C999999999999N999999999-01731-01971101441ADDMA1999999091631MD1210021+9999REMSYN04801359 46/// /0000 11173 21197 39163 40144 52002=
0108013590999992016011910004+60533+008200FM-12+077399999V0209999C999999999999N999999999-01621-01821101401ADDMA1999999091631MD1790099+9999REMSYN04801359 46/// /0000 11162 21182 39163 40140 54001=EQDQ01.1    3APC3  
0089013590999992016011911004+60533+008200FM-12+077399999V0209999C999999999999N999999999-01611-02131101411ADDMA1999999091641MD1210021+9999REMSYN04801359 46/// /0000 11161 21213 39164 40141 52002=
0263013590999992016011912004+60533+008200FM-12+077399999V0202001N002019999999N070001199-01381-01691101311ADDAA106000091AY101021AY201021GA1999+999999021GE19AGL   +99999+99999GF102991001999999999999999MA1999999091631MD1790139+9999MW1021OD139900401999REMSYN07601359 11989 22002 11138 21169 39163 40131 54001 60001 70200 80008 333 91104=EQDQ01.1    3APC3  Q02    003SCCGA1
0089013590999992016011913004+60533+008200FM-12+077399999V0209999C999999999999N999999999-01061-01601101201ADDMA1999999091651MD1210021+9999REMSYN04801359 46/// /0000 11106 21160 39165 40120 52002=
0089013590999992016011914004+60533+008200FM-12+077399999V0209999C999999999999N999999999-01311-01651101311ADDMA1999999091661MD1210021+9999REMSYN04801359 46/// /0000 11131 21165 39166 40131 52002=
0089013590999992016011915004+60533+008200FM-12+077399999V0209999C999999999999N999999999-01301-01571101301ADDMA1999999091651MD1210021+9999REMSYN04801359 46/// /0000 11130 21157 39165 40130 52002=
0089013590999992016011916004+60533+008200FM-12+077399999V0209999C999999999999N999999999-01521-01811101401ADDMA1999999091661MD1210021+9999REMSYN04801359 46/// /0000 11152 21181 39166 40140 52002=
0089013590999992016011917004+60533+008200FM-12+077399999V0209999C999999999999N999999999-01481-01621101411ADDMA1999999091691MD1310031+9999REMSYN04801359 46/// /0000 11148 21162 39169 40141 53003=
0247013590999992016011918004+60533+008200FM-12+077399999V0200401N001019999999N070001199-01661-01761101521ADDAA112000091AY101021AY201021GA1011+012501061GE19AGL   +99999+99999GF101991011999012501999999KA1120M-00961MA1999999091721MD1310071+9999MW1021OD139900301999REMSYN08201359 11689 10401 11166 21176 39172 40152 53007 60002 70200 81500 333 11096 91103=
0089013590999992016011919004+60533+008200FM-12+077399999V0202601N002019999999N999999999-01741-01881101571ADDMA1999999091741MD1210081+9999REMSYN04801359 46/// /2602 11174 21188 39174 40157 52008=
0089013590999992016011920004+60533+008200FM-12+077399999V0202501N001019999999N999999999-01581-01741101541ADDMA1999999091771MD1210081+9999REMSYN04801359 46/// /2501 11158 21174 39177 40154 52008=
0089013590999992016011921004+60533+008200FM-12+077399999V0209999C999999999999N999999999-01681-01851101611ADDMA1999999091801MD1210071+9999REMSYN04801359 46/// /0000 11168 21185 39180 40161 52007=
0089013590999992016011922004+60533+008200FM-12+077399999V0202401N001019999999N999999999-01801-02001101681ADDMA1999999091821MD1210081+9999REMSYN04801359 46/// /2401 11180 21200 39182 40168 52008=
0089013590999992016011923004+60533+008200FM-12+077399999V0209999C999999999999N999999999-01761-01941101691ADDMA1999999091841MD1210071+9999REMSYN04801359 46/// /0000 11176 21194 39184 40169 52007=
0130013590999992016012000004+60533+008200FM-12+077399999V0209999C999999999999N999999999-01811-02011101731ADDAA106000091MA1999999091861MD1210061+9999OD139900401999REMSYN06401359 16/// /0000 11181 21201 39186 40173 52006 60001 333 91104=
0089013590999992016012001004+60533+008200FM-12+077399999V0209999C999999999999N999999999-01831-01991101751ADDMA1999999091871MD1210051+9999REMSYN04801359 46/// /0000 11183 21199 39187 40175 52005=
0089013590999992016012002004+60533+008200FM-12+077399999V0202101N001019999999N999999999-01951-02131101811ADDMA1999999091881MD1990041+9999REMSYN04801359 46/// /2101 11195 21213 39188 40181 50004=
0089013590999992016012003004+60533+008200FM-12+077399999V0202901N002019999999N999999999-01731-01841101731ADDMA1999999091891MD1210031+9999REMSYN04801359 46/// /2902 11173 21184 39189 40173 52003=
