0183419410999992016010100004+23267+090700FM-12+000799999V0209999C000019999999N004000199+01471+99999101831ADDAA124000091AY101021AY201021GF100995999999999999999999MA1999999101771MD1999999+0091MW1051REMSYN06441941 31940 00000 10147 20150 30177 40183 70500 333 58009 70000=EQDQ0115    2ATOD  
0155419410999992016010103004+23267+090700FM-12+000799999V0209999C000019999999N006000199+01851+01851102121ADDAA124000091GF100995999999999999999999KA1240N+01411MA1999999102061MD1999999+0171REMSYN06441941 32956 00000 10185 20185 30206 40212 333 20141 58017 70000=
0136419410999992016010106004+23267+090700FM-12+000799999V0209999C000019999999N007000199+02531+01701102061ADDAA124000091GF100995999999999999999999MA1999999102001MD1999999+0141REMSYN05841941 32957 00000 10253 20170 30200 40206 333 58014 70000=
0136419410999992016010109004+23267+090700FM-12+000799999V0203601N001019999999N007000199+02721+01601101691ADDAA124000091GF100995999999999999999999MA1999999101631MD1999999+0091REMSYN05841941 32957 03602 10272 20160 30163 40169 333 58009 70000=
0183419410999992016010112004+23267+090700FM-12+000799999V0209999C000019999999N005000199+02121+01801101811ADDAA124000091AY101021AY201021GF100995999999999999999999KA1240M+02751MA1999999101751MD1999999+0121MW1051REMSYN07041941 31950 00000 10212 20180 30175 40181 70500 333 10275 58012 70000=
0164419410999992016010115004+23267+090700FM-12+000799999V0209999C000019999999N004000199+01801+01701101921ADDAA124000091AY101021AY201021GF100995999999999999999999MA1999999101871MD1999999+0011MW1051REMSYN06441941 31940 00000 10180 20170 30187 40192 70500 333 58001 70000=
0164419410999992016010118004+23267+090700FM-12+000799999V0209999C000019999999N004000199+01801+01701101971ADDAA124000091AY101021AY201021GF100995999999999999999999MA1999999101911MD1999999+0051MW1051REMSYN06441941 31940 00000 10180 20170 30191 40197 70500 333 58005 70000=
0164419410999992016010121004+23267+090700FM-12+000799999V0209999C000019999999N004000199+01521+01401101921ADDAA124000091AY101021AY201021GF100995999999999999999999MA1999999101871MD1999999+0021MW1051REMSYN06441941 31940 00000 10152 20140 30187 40192 70500 333 58002 70000=
0164419410999992016010200004+23267+090700FM-12+000799999V0209999C000019999999N003000199+01471+01471101931ADDAA124000091AY101021AY201021GF100995999999999999999999MA1999999101871MD1999999+0101MW1051REMSYN06441941 31930 00000 10147 20147 30187 40193 70500 333 58010 70000=
0164419410999992016010203004+23267+090700FM-12+000799999V0209999C000019999999N005000199+01871+01701102071ADDAA124000091AY101021AY201021GF100995999999999999999999MA1999999102011MD1999999-0051MW1051REMSYN06441941 31950 00000 10187 20170 30201 40207 70500 333 59005 70000=
0136419410999992016010206004+23267+090700FM-12+000799999V0209999C000019999999N007000199+02521+01501101901ADDAA124000091GF100995999999999999999999MA1999999101841MD1999999-0161REMSYN05841941 32957 00000 10252 20150 30184 40190 333 59016 70000=
0136419410999992016010209004+23267+090700FM-12+000799999V0209999C000019999999N006000199+02641+01401101711ADDAA124000091GF100995999999999999999999MA1999999101651MD1999999+0021REMSYN05841941 32956 00000 10264 20140 30165 40171 333 58002 70000=
0183419410999992016010212004+23267+090700FM-12+000799999V0209999C000019999999N005000199+02161+01601101501ADDAA124000091AY101021AY201021GF100995999999999999999999KA1240M+02741MA1999999101441MD1999999-0311MW1051REMSYN07041941 31950 00000 10216 20160 30144 40150 70500 333 10274 59031 70000=
0164419410999992016010215004+23267+090700FM-12+000799999V0209999C000019999999N004000199+01771+01601101671ADDAA124000091AY101021AY201021GF100995999999999999999999MA1999999101621MD1999999-0251MW1051REMSYN06441941 31940 00000 10177 20160 30162 40167 70500 333 59025 70000=
0164419410999992016010218004+23267+090700FM-12+000799999V0209999C000019999999N004000199+01681+01601101701ADDAA124000091AY101021AY201021GF100995999999999999999999MA1999999101651MD1999999-0271MW1051REMSYN06441941 31940 00000 10168 20160 30165 40170 70500 333 59027 70000=
0164419410999992016010221004+23267+090700FM-12+000799999V0209999C000019999999N004000199+01541+01301101581ADDAA124000091AY101021AY201021GF100995999999999999999999MA1999999101521MD1999999-0341MW1051REMSYN06441941 31940 00000 10154 20130 30152 40158 70500 333 59034 70000=
0164419410999992016010300004+23267+090700FM-12+000799999V0209999C000019999999N004000199+01471+01401101501ADDAA124000091AY101021AY201021GF100995999999999999999999MA1999999101441MD1999999-0421MW1051REMSYN06441941 31940 00000 10147 20140 30144 40150 70500 333 59042 70000=
0155419410999992016010303004+23267+090700FM-12+000799999V0209999C000019999999N006000199+01861+01701101761ADDAA124000091GF100995999999999999999999KA1240N+01411MA1999999101701MD1999999-0311REMSYN06441941 32956 00000 10186 20170 30170 40176 333 20141 59031 70000=
0136419410999992016010306004+23267+090700FM-12+000799999V0209999C000019999999N006000199+02441+01701101761ADDAA124000091GF100995999999999999999999MA1999999101701MD1999999-0141REMSYN05841941 32956 00000 10244 20170 30170 40176 333 59014 70000=
0136419410999992016010309004+23267+090700FM-12+000799999V0209999C000019999999N006000199+02581+01701101451ADDAA124000091GF100995999999999999999999MA1999999101391MD1999999-0161REMSYN05841941 32956 00000 10258 20170 30139 40145 333 59016 70000=
0183419410999992016010312004+23267+090700FM-12+000799999V0209999C000019999999N005000199+02071+01501101481ADDAA124000091AY101021AY201021GF100995999999999999999999KA1240M+02671MA1999999101421MD1999999-0021MW1051REMSYN07041941 32950 00000 10207 20150 30142 40148 70500 333 10267 59002 70000=
0164419410999992016010315004+23267+090700FM-12+000799999V0209999C000019999999N004000199+01721+01501101691ADDAA124000091AY101021AY201021GF100995999999999999999999MA1999999101641MD1999999+0021MW1051REMSYN06441941 31940 00000 10172 20150 30164 40169 70500 333 58002 70000=
0164419410999992016010318004+23267+090700FM-12+000799999V0209999C000019999999N004000199+01571+01501101771ADDAA124000091AY101021AY201021GF100995999999999999999999MA1999999101721MD1999999+0071MW1051REMSYN06441941 31940 00000 10157 20150 30172 40177 70500 333 58007 70000=
0164419410999992016010321004+23267+090700FM-12+000799999V0209999C000019999999N004000199+01541+01401101661ADDAA124000091AY101021AY201021GF100995999999999999999999MA1999999101601MD1999999+0101MW1051REMSYN06441941 31940 00000 10154 20140 30160 40166 70500 333 58010 70000=
0164419410999992016010400004+23267+090700FM-12+000799999V0209999C000019999999N004000199+01521+01401101601ADDAA124000091AY101021AY201021GF100995999999999999999999MA1999999101541MD1999999+0101MW1051REMSYN06441941 31940 00000 10152 20140 30154 40160 70500 333 58010 70000=
0155419410999992016010403004+23267+090700FM-12+000799999V0209999C000019999999N006000199+01881+01701101891ADDAA124000091GF100995999999999999999999KA1240N+01411MA1999999101831MD1999999+0131REMSYN06441941 32956 00000 10188 20170 30183 40189 333 20141 58013 70000=
0136419410999992016010406004+23267+090700FM-12+000799999V0209999C000019999999N006000199+02471+01701101801ADDAA124000091GF100995999999999999999999MA1999999101741MD1999999+0041REMSYN05841941 32956 00000 10247 20170 30174 40180 333 58004 70000=
0136419410999992016010409004+23267+090700FM-12+000799999V0209999C000019999999N006000199+02561+01501101691ADDAA124000091GF100995999999999999999999MA1999999101631MD1999999+0241REMSYN05841941 32956 00000 10256 20150 30163 40169 333 58024 70000=
0155419410999992016010412004+23267+090700FM-12+000799999V0209999C000019999999N005000199+02141+01701101591ADDAA124000091GF100995999999999999999999KA1240M+02681MA1999999101531MD1999999+0111REMSYN06441941 32950 00000 10214 20170 30153 40159 333 10268 58011 70000=
0164419410999992016010415004+23267+090700FM-12+000799999V0209999C000019999999N004000199+01831+01501101791ADDAA124000091AY101021AY201021GF100995999999999999999999MA1999999101731MD1999999+0091MW1051REMSYN06441941 31940 00000 10183 20150 30173 40179 70500 333 58009 70000=
0164419410999992016010418004+23267+090700FM-12+000799999V0209999C000019999999N004000199+01641+01401101851ADDAA124000091AY101021AY201021GF100995999999999999999999MA1999999101791MD1999999+0071MW1051REMSYN06441941 31940 00000 10164 20140 30179 40185 70500 333 58007 70000=
0164419410999992016010421004+23267+090700FM-12+000799999V0209999C000019999999N004000199+01521+01401101731ADDAA124000091AY101021AY201021GF100995999999999999999999MA1999999101671MD1999999+0071MW1051REMSYN06441941 31940 00000 10152 20140 30167 40173 70500 333 58007 70000=
0164419410999992016010500004+23267+090700FM-12+000799999V0209999C000019999999N004000199+01481+01401101651ADDAA124000091AY101021AY201021GF100995999999999999999999MA1999999101601MD1999999+0061MW1051REMSYN06441941 31940 00000 10148 20140 30160 40165 70500 333 58006 70000=
0155419410999992016010503004+23267+090700FM-12+000799999V0209999C000019999999N006000199+01971+01701101851ADDAA124000091GF100995999999999999999999KA1240N+01421MA1999999101791MD1999999-0041REMSYN06441941 32956 00000 10197 20170 30179 40185 333 20142 59004 70000=
0136419410999992016010506004+23267+090700FM-12+000799999V0203601N001019999999N006000199+02471+01701101701ADDAA124000091GF100995999999999999999999MA1999999101641MD1999999-0101REMSYN05841941 32956 03602 10247 20170 30164 40170 333 59010 70000=
0136419410999992016010509004+23267+090700FM-12+000799999V0203601N001019999999N006000199+02571+01601101421ADDAA124000091GF100995999999999999999999MA1999999101361MD1999999-0271REMSYN05841941 32956 03602 10257 20160 30136 40142 333 59027 70000=
0197419410999992016010512004+23267+090700FM-12+000799999V0209999C000019999999N005000199+02101+01701101451ADDAA124000091GA1041+004501061GE19AGL   +99999+99999GF104991041999004501999999KA1240M+02621MA1999999101391REMSYN08241941 32450 40000 10210 20170 30139 40145 84500 333 10262 56900 59014 70000 84615=
0206419410999992016010515004+23267+090700FM-12+000799999V0209999C000019999999N004000199+01861+01601101671ADDAA124000091AY121021AY221021GA1031+004501061GE19AGL   +99999+99999GF103991031999004501999999MA1999999101611MW1051REMSYN08241941 31440 30000 10186 20160 30161 40167 70522 83500 333 56900 59012 70000 83615=
0164419410999992016010518004+23267+090700FM-12+000799999V0209999C000019999999N004000199+01651+01501101761ADDAA124000091AY121021AY201021GF100995999999999999999999MA1999999101701MD1999999-0091MW1051REMSYN06441941 31940 00000 10165 20150 30170 40176 70520 333 59009 70000=
0164419410999992016010521004+23267+090700FM-12+000799999V0209999C000019999999N004000199+01601+01401101721ADDAA124000091AY101021AY201021GF100995999999999999999999MA1999999101661MD1999999-0011MW1051REMSYN06441941 31940 00000 10160 20140 30166 40172 70500 333 59001 70000=
0164419410999992016010600004+23267+090700FM-12+000799999V0209999C000019999999N004000199+01501+01401101661ADDAA124000091AY101021AY201021GF100995999999999999999999MA1999999101301MD1999999+0001MW1051REMSYN06441941 31940 00000 10150 20140 30130 40166 70500 333 58000 70000=
0183419410999992016010603004+23267+090700FM-12+000799999V0209999C000019999999N005000199+01871+01601101921ADDAA124000091AY101021AY201021GF100995999999999999999999KA1240N+01441MA1999999101861MD1999999+0071MW1051REMSYN07041941 31950 00000 10187 20160 30186 40192 70500 333 20144 58007 70000=
0136419410999992016010606004+23267+090700FM-12+000799999V0203601N001019999999N006000199+02321+01401101771ADDAA124000091GF100995999999999999999999MA1999999101711MD1999999+0071REMSYN05841941 32956 03602 10232 20140 30171 40177 333 58007 70000=
0200419410999992016010609004+23267+090700FM-12+000799999V0209999C00001024001CN006000199+02571+01401101461ADDAA124000091GA1031+004501061GA2041+024001041GE19AGL   +99999+99999GF105991031999004501999999MA1999999101401REMSYN08241941 32456 50000 10257 20140 30140 40146 83520 333 56990 58004 70000 83615 84458=
0219419410999992016010612004+23267+090700FM-12+000799999V0209999C00001024001CN005000199+02091+01601101481ADDAA124000091GA1041+004501061GA2041+024001041GE19AGL   +99999+99999GF106991041999004501999999KA1240M+02601MA1999999101421REMSYN08841941 32450 60000 10209 20160 30142 40148 84520 333 10260 56990 59003 70000 84615 84458=
0200419410999992016010615004+23267+090700FM-12+000799999V0209999C00001024001CN005000199+01751+01601101681ADDAA124000091GA1041+004501061GA2041+024001041GE19AGL   +99999+99999GF106991041999004501999999MA1999999101621REMSYN08241941 32450 60000 10175 20160 30162 40168 84520 333 56990 58001 70000 84615 84458=
0206419410999992016010618004+23267+090700FM-12+000799999V0209999C000019999999N004000199+01601+01401101781ADDAA124000091AY121021AY201021GA1041+004501061GE19AGL   +99999+99999GF104991041999004501999999MA1999999101721MW1051REMSYN08241941 31440 40000 10160 20140 30172 40178 70520 84500 333 56900 58002 70000 84615=
0206419410999992016010621004+23267+090700FM-12+000799999V0209999C000019999999N004000199+01521+01401101621ADDAA124000091AY121021AY201021GA1031+004501061GE19AGL   +99999+99999GF103991031999004501999999MA1999999101561MW1051REMSYN08241941 31440 30000 10152 20140 30156 40162 70520 83500 333 56900 59010 70000 83615=
0228419410999992016010700004+23267+090700FM-12+000799999V0209999C000010240019N004000199+01471+01401101691ADDAA124000091AY121021AY221021GA1041+004501061GA2051+024001041GE19AGL   +99999+99999GF106991041999004501999999MA1999999101631MW1051REMSYN08841941 31440 60000 10147 20140 30163 40169 70522 83520 333 56990 58003 70000 84615 85458=
0155419410999992016010703004+23267+090700FM-12+000799999V0209999C000019999999N006000199+01941+01401101931ADDAA124000091GF100995999999999999999999KA1240N+01421MA1999999101871MD1999999+0011REMSYN06441941 32956 00000 10194 20140 30187 40193 333 20142 58001 70000=
0178419410999992016010706004+23267+090700FM-12+000799999V0209999C000019999999N006000199+02501+01401101831ADDAA124000091GA1021+005401061GE19AGL   +99999+99999GF103991021999005401999999MA1999999101221REMSYN07641941 32456 30000 10250 20140 30122 40183 83400 333 56900 58006 70000 82618=
0178419410999992016010709004+23267+090700FM-12+000799999V0209999C000019999999N006000199+02641+01501101531ADDAA124000091GA1031+005401061GE19AGL   +99999+99999GF104991031999005401999999MA1999999101471REMSYN07641941 32456 40000 10264 20150 30147 40153 84400 333 56900 58007 70000 83618=
0219419410999992016010712004+23267+090700FM-12+000799999V0209999C00001024001CN005000199+02121+01501101531ADDAA124000091GA1031+004501061GA2041+024001041GE19AGL   +99999+99999GF105991031999004501999999KA1240M+02661MA1999999101471REMSYN08841941 32450 50000 10212 20150 30147 40153 83520 333 10266 56990 58005 70000 83615 84458=
0247419410999992016010715004+23267+090700FM-12+000799999V0209999C00001999999CN004000199+01861+01601101661ADDAA124000091AY121021AY221021GA1041+004801061GA2041+004801061GE19AGL   +99999+99999GF104991041999004801999999MA1999999101601MW1051REMSYN08841941 31440 40000 10186 20160 30160 40166 70522 84500 333 56900 59002 70000 84616 84616=EQDQ01 004803SCOCIG
0206419410999992016010718004+23267+090700FM-12+000799999V0209999C000019999999N004000199+01681+01401101751ADDAA124000091AY121021AY221021GA1041+004501061GE19AGL   +99999+99999GF104991041999004501999999MA1999999101691MW1051REMSYN08241941 31440 40000 10168 20140 30169 40175 70522 84500 333 56900 59003 70000 84615=
0206419410999992016010721004+23267+090700FM-12+000799999V0209999C000019999999N004000199+01501+01301101691ADDAA124000091AY121021AY221021GA1041+004501061GE19AGL   +99999+99999GF104991041999004501999999MA1999999101631MW1051REMSYN08241941 31440 40000 10150 20130 30163 40169 70522 84500 333 56900 58007 70000 84615=
0228419410999992016010800004+23267+090700FM-12+000799999V0209999C00001024001CN004000199+01481+01401101631ADDAA124000091AY121021AY221021GA1041+004501061GA2041+024001041GE19AGL   +99999+99999GF105991041999004501999999MA1999999101571MW1051REMSYN08841941 31440 50000 10148 20140 30157 40163 70522 84520 333 56990 59006 70000 84615 84458=
0225419410999992016010803004+23267+090700FM-12+000799999V0209999C000019999999N004000199+01771+01701101801ADDAA124000091AY121021AY201021GA1021+005401061GE19AGL   +99999+99999GF102991021999005401999999KA1240N+01421MA1999999101741MW1051REMSYN08841941 31440 20000 10177 20170 30174 40180 70520 82500 333 20142 56900 59013 70000 82618=
0136419410999992016010806004+23267+090700FM-12+000799999V0209999C000019999999N006000199+02521+01601101691ADDAA124000091GF100995999999999999999999MA1999999101631MD1999999-0141REMSYN05841941 32956 00000 10252 20160 30163 40169 333 59014 70000=
0200419410999992016010809004+23267+090700FM-12+000799999V0209999C000010240019N006000199+02671+01501101341ADDAA124000091GA1041+004801061GA2061+024001041GE19AGL   +99999+99999GF106991041999004801999999MA1999999101281REMSYN08241941 32456 60000 10267 20150 30128 40134 85420 333 56990 59019 70000 84616 86458=
0247419410999992016010812004+23267+090700FM-12+000799999V0209999C000010240019N005000199+02121+01701101251ADDAA124000091AY121021AY221021GA1041+004801061GA2061+024001041GE19AGL   +99999+99999GF106991041999004801999999KA1240M+02741MA1999999101191MW1051REMSYN09441941 31450 60000 10212 20170 30119 40125 70522 85420 333 10274 56990 59028 70000 84616 86458=
0228419410999992016010815004+23267+090700FM-12+000799999V0209999C000010240019N005000199+01861+01601101401ADDAA124000091AY121021AY221021GA1041+004801061GA2061+024001041GE19AGL   +99999+99999GF106991041999004801999999MA1999999101341MW1051REMSYN08841941 31450 60000 10186 20160 30134 40140 70522 85420 333 56990 59026 70000 84616 86458=
0228419410999992016010818004+23267+090700FM-12+000799999V0209999C000010240019N004000199+01621+01401101521ADDAA124000091AY121021AY221021GA1041+004801061GA2061+024001041GE19AGL   +99999+99999GF106991041999004801999999MA1999999101471MW1051REMSYN08841941 31440 60000 10162 20140 30147 40152 70522 85420 333 56990 59023 70000 84616 86458=
0164419410999992016010821004+23267+090700FM-12+000799999V0209999C000019999999N004000199+01501+01301101591ADDAA124000091AY121021AY201021GF100995999999999999999999MA1999999101531MD1999999-0101MW1051REMSYN06441941 31940 00000 10150 20130 30153 40159 70520 333 59010 70000=
0228419410999992016010900004+23267+090700FM-12+000799999V0209999C000010240019N002000199+01521+01401101541ADDAA124000091AY121021AY201021GA1041+004801061GA2061+024001041GE19AGL   +99999+99999GF106991041999004801999999MA1999999101491MW1051REMSYN08841941 31420 60000 10152 20140 30149 40154 70520 85420 333 56990 59009 70000 84616 86458=
0247419410999992016010903004+23267+090700FM-12+000799999V0209999C000010240019N005000199+01861+01701101621ADDAA124000091AY121021AY221021GA1041+004801061GA2061+024001041GE19AGL   +99999+99999GF106991041999004801999999KA1240N+01451MA1999999101561MW1051REMSYN09441941 31450 60000 10186 20170 30156 40162 70522 85420 333 20145 56990 59018 70000 84616 86458=
0228419410999992016010906004+23267+090700FM-12+000799999V0203601N001010240019N005000199+02371+02001101401ADDAA124000091AY121021AY221021GA1041+004801061GA2061+024001041GE19AGL   +99999+99999GF106991041999004801999999MA1999999101351MW1051REMSYN08841941 31450 63602 10237 20200 30135 40140 70522 85420 333 56990 59023 70000 84616 86458=
0228419410999992016010909004+23267+090700FM-12+000799999V0209999C000010240019N006000199+02621+02101101141ADDAA124000091AY121021AY221021GA1041+003901061GA2061+024001041GE19AGL   +99999+99999GF106991041999003901999999MA1999999101091MW1051REMSYN08841941 31456 60000 10262 20210 30109 40114 70522 85420 333 56990 59020 70000 84613 86458=
0247419410999992016010912004+23267+090700FM-12+000799999V0209999C000010240019N005000199+02321+02101101061ADDAA124000091AY121021AY221021GA1041+004801061GA2061+024001041GE19AGL   +99999+99999GF106991041999004801999999KA1240M+02721MA1999999101001MW1051REMSYN09441941 31450 60000 10232 20210 30100 40106 70522 85420 333 10272 56990 59019 70000 84616 86458=
0164419410999992016010915004+23267+090700FM-12+000799999V0209999C000019999999N004000199+02001+01901101331ADDAA124000091AY121021AY201021GF100995999999999999999999MA1999999101271MD1999999-0071MW1051REMSYN06441941 31940 00000 10200 20190 30127 40133 70520 333 59007 70000=
0164419410999992016010918004+23267+090700FM-12+000799999V0209999C000019999999N004000199+01881+01801101411ADDAA124000091AY101021AY201021GF100995999999999999999999MA1999999101361MD1999999-0111MW1051REMSYN06441941 31940 00000 10188 20180 30136 40141 70500 333 59011 70000=
0183419410999992016010921004+23267+090700FM-12+000799999V0209999C000019999999N004000199+01861+99999101361ADDAA124000091AY101021AY201021GF100995999999999999999999MA1999999101311MD1999999-0231MW1051REMSYN06441941 31940 00000 10186 20270 30131 40136 70500 333 59023 70000=EQDQ0127    2ATOD  
0117419410999992016011000004+23267+090700FM-12+000799999V0209999C000019999999N004000199+01841+01701101365ADDGF100995999999999999999999MA1999999101301REMSYN06441941 31940 00000 10184 20170 30130 33W 40136 59019 70000 70500=
0219419410999992016011003004+23267+090700FM-12+000799999V0209999C00001002401CN002000199+01871+01801101681ADDAA124000091AY141021AY241021GA1091+999999999GE19AGL   +99999+99999GF109991091999999999999999KA1240N+01711MA1999999101631MW1451REMSYN08241941 31/20 90000 10187 20180 30163 40168 74544 89/// 333 20171 56999 58006 70000=
0228419410999992016011006004+23267+090700FM-12+000799999V0209999C000010045019N005000199+02221+02101101691ADDAA124000091AY141021AY201021GA1051+004501061GA2081+024001041GE19AGL   +99999+99999GF108991051999004501999999MA1999999101631MW1051REMSYN08841941 31450 80000 10222 20210 30163 40169 70540 8642/ 333 56999 58029 70000 85615 88458=
0228419410999992016011009004+23267+090700FM-12+000799999V0203601N001010240019N005000199+02421+02001101411ADDAA124000091AY121021AY221021GA1031+004501061GA2061+024001041GE19AGL   +99999+99999GF106991031999004501999999MA1999999101351MW1051REMSYN08841941 31450 63602 10242 20200 30135 40141 70522 84420 333 56990 58027 70000 83615 86458=
0247419410999992016011012004+23267+090700FM-12+000799999V0209999C000010240019N005000199+02201+02101101431ADDAA124000091AY121021AY221021GA1041+004501061GA2061+024001041GE19AGL   +99999+99999GF106991041999004501999999KA1240M+02481MA1999999101371MW1051REMSYN09441941 31450 60000 10220 20210 30137 40143 70522 85420 333 10248 56990 58037 70000 84615 86458=
0228419410999992016011015004+23267+090700FM-12+000799999V0209999C00001024001CN004000199+01941+01801101691ADDAA124000091AY121021AY221021GA1021+004501061GA2051+024001041GE19AGL   +99999+99999GF105991021999004501999999MA1999999101441MW1051REMSYN08841941 31440 50000 10194 20180 30144 40169 70522 83420 333 56990 58036 70000 82615 85458=
0164419410999992016011018004+23267+090700FM-12+000799999V0209999C000019999999N004000199+01881+01801101701ADDAA124000091AY101021AY201021GF100995999999999999999999MA1999999101651MD1999999+0291MW1051REMSYN06441941 31940 00000 10188 20180 30165 40170 70500 333 58029 70000=
0164419410999992016011021004+23267+090700FM-12+000799999V0209999C000019999999N004000199+01681+01501101571ADDAA124000091AY101021AY201021GF100995999999999999999999MA1999999101521MD1999999+0211MW1051REMSYN06441941 31940 00000 10168 20150 30152 40157 70500 333 58021 70000=
0164419410999992016011100004+23267+090700FM-12+000799999V0209999C000019999999N004000199+01541+01401101511ADDAA124000091AY101021AY201021GF100995999999999999999999MA1999999101461MD1999999+0161MW1051REMSYN06441941 31940 00000 10154 20140 30146 40151 70500 333 58016 70000=
0136419410999992016011106004+23267+090700FM-12+000799999V0203601N001019999999N006000199+02421+02001101741ADDAA124000091GF100995999999999999999999MA1999999101691MD1999999+0051REMSYN05841941 32956 03602 10242 20200 30169 40174 333 58005 70000=
0155419410999992016011109004+23267+090700FM-12+000799999V0203601N001019999999N007000199+02571+99999101391ADDAA124000091GF100995999999999999999999MA1999999101331MD1999999-0021REMSYN05841941 32957 03602 10257 20009 30133 40139 333 59002 70000=EQDQ01.9    3ATOD  
0155419410999992016011112004+23267+090700FM-12+000799999V0209999C000019999999N005000199+02121+01201101481ADDAA124000091GF100995999999999999999999KA1240M+02671MA1999999101421MD1999999+0051REMSYN06441941 32950 00000 10212 20120 30142 40148 333 10267 58005 70000=
0178419410999992016011115004+23267+090700FM-12+000799999V0209999C000019999999N005000199+01771+01301101601ADDAA124000091GA1031+004801061GE19AGL   +99999+99999GF103991031999004801999999MA1999999101541REMSYN07641941 32450 30000 10177 20130 30154 40160 83500 333 56900 59009 70000 83616=
0172419410999992016011118004+23267+090700FM-12+000799999V0209999C000019999999N005000199+01641+01401101621ADDAA124000091GA1031+004501061GE19AGL   +99999+99999GF103991031999004501999999MA1999999101571REMSYN07041941 32450 30000 10164 20140 30157 40162 83500 333 56900 59008 70000=
0164419410999992016011121004+23267+090700FM-12+000799999V0209999C000019999999N004000199+01591+01401101601ADDAA124000091AY101021AY201021GF100995999999999999999999MA1999999101551MD1999999+0031MW1051REMSYN06441941 31940 00000 10159 20140 30155 40160 70500 333 58003 70000=
0164419410999992016011200004+23267+090700FM-12+000799999V0209999C000019999999N004000199+01441+01201101551ADDAA124000091AY101021AY201021GF100995999999999999999999MA1999999101491MD1999999+0041MW1051REMSYN06441941 31940 00000 10144 20120 30149 40155 70500 333 58004 70000=
0155419410999992016011203004+23267+090700FM-12+000799999V0209999C000019999999N006000199+01771+01301101801ADDAA124000091GF100995999999999999999999KA1240N+01311MA1999999101741MD1999999+0111REMSYN06441941 32956 00000 10177 20130 30174 40180 333 20131 58011 70000=
0136419410999992016011206004+23267+090700FM-12+000799999V0209999C000019999999N006000199+02321+01301101631ADDAA124000091GF100995999999999999999999MA1999999101571MD1999999-0111REMSYN05841941 32956 00000 10232 20130 30157 40163 333 59011 70000=
0136419410999992016011209004+23267+090700FM-12+000799999V0209999C000019999999N006000199+02421+01401101381ADDAA124000091GF100995999999999999999999MA1999999101331MD1999999-0011REMSYN05841941 32956 00000 10242 20140 30133 40138 333 59001 70000=
0197419410999992016011212004+23267+090700FM-12+000799999V0209999C000019999999N005000199+02171+01401101321ADDAA124000091GA1031+004501061GE19AGL   +99999+99999GF103991031999004501999999KA1240M+02471MA1999999101261REMSYN08241941 32450 30000 10217 20140 30126 40132 83500 333 10247 56900 59016 70000 83615=
0136419410999992016011215004+23267+090700FM-12+000799999V0209999C000019999999N005000199+01741+01501101431ADDAA124000091GF100995999999999999999999MA1999999101381MD1999999-0171REMSYN05841941 32950 00000 10174 20150 30138 40143 333 59017 70000=
0164419410999992016011218004+23267+090700FM-12+000799999V0209999C000019999999N004000199+01591+01401101431ADDAA124000091AY101021AY201021GF100995999999999999999999MA1999999101371MD1999999-0191MW1051REMSYN06441941 31940 00000 10159 20140 30137 40143 70500 333 59019 70000=
0206419410999992016011221004+23267+090700FM-12+000799999V0209999C000019999999N004000199+01511+01301101421ADDAA124000091AY121021AY201021GA1031+004501061GE19AGL   +99999+99999GF103991031999004501999999MA1999999101361MW1051REMSYN08241941 31440 30000 10151 20130 30136 40142 70520 83500 333 56900 59018 70000 83615=
0206419410999992016011300004+23267+090700FM-12+000799999V0209999C000019999999N004000199+01421+01401101351ADDAA124000091AY121021AY221021GA1031+004501061GE19AGL   +99999+99999GF103991031999004501999999MA1999999101291MW1051REMSYN08241941 31440 30000 10142 20140 30129 40135 70522 83500 333 56900 59020 70000 83615=
0155419410999992016011303004+23267+090700FM-12+000799999V0209999C000019999999N006000199+01761+01501101631ADDAA124000091GF100995999999999999999999KA1240N+01311MA1999999101571MD1999999-0171REMSYN06441941 32956 00000 10176 20150 30157 40163 333 20131 59017 70000=
0136419410999992016011306004+23267+090700FM-12+000799999V0209999C000019999999N006000199+02321+01401101551ADDAA124000091GF100995999999999999999999MA1999999101491MD1999999-0081REMSYN05841941 32956 00000 10232 20140 30149 40155 333 59008 70000=
0200419410999992016011309004+23267+090700FM-12+000799999V0209999C000010240019N006000199+02391+01401101201ADDAA124000091GA1041+004801061GA2051+024001041GE19AGL   +99999+99999GF105991041999004801999999MA1999999101151REMSYN08241941 32456 50000 10239 20140 30115 40120 84520 333 56990 59018 70000 84616 85458=
0219419410999992016011312004+23267+090700FM-12+000799999V0209999C000010240019N005000199+02051+01501101231ADDAA124000091GA1041+004801061GA2051+024001041GE19AGL   +99999+99999GF105991041999004801999999KA1240M+02481MA1999999101171REMSYN08841941 32450 50000 10205 20150 30117 40123 84520 333 10248 56990 59009 70000 84616 85458=
0200419410999992016011315004+23267+090700FM-12+000799999V0209999C000010240019N005000199+01671+01401101521ADDAA124000091GA1041+004801061GA2051+024001041GE19AGL   +99999+99999GF105991041999004801999999MA1999999101461REMSYN08241941 31450 50000 10167 20140 30146 40152 84520 333 56990 58009 70000 84616 85458=
0178419410999992016011318004+23267+090700FM-12+000799999V0209999C000019999999N004000199+01571+01401101521ADDAA124000091GA1031+004501061GE19AGL   +99999+99999GF103991031999004501999999MA1999999101461REMSYN07641941 31440 30000 10157 20140 30146 40152 83500 333 56900 58009 70000 83615=
0206419410999992016011321004+23267+090700FM-12+000799999V0209999C000019999999N004000199+01521+01401101471ADDAA124000091AY121021AY201021GA1031+004501061GE19AGL   +99999+99999GF103991031999004501999999MA1999999101421MW1051REMSYN08241941 31440 30000 10152 20140 30142 40147 70520 83500 333 56900 58005 70000 83615=
0164419410999992016011400004+23267+090700FM-12+000799999V0209999C000019999999N004000199+01451+01401101551ADDAA124000091AY101021AY201021GF100995999999999999999999MA1999999101491MD1999999+0201MW1051REMSYN06441941 31940 00000 10145 20140 30149 40155 70500 333 58020 70000=
0247419410999992016011403004+23267+090700FM-12+000799999V0209999C000010045019N005000199+01701+01601101731ADDAA124000091AY121021AY221021GA1051+004501061GA2061+024001041GE19AGL   +99999+99999GF107991051999004501999999KA1240N+01361MA1999999101671MW1051REMSYN09441941 31450 70000 10170 20160 30167 40173 70522 8542/ 333 20136 56999 58010 70000 85615 86458=
0200419410999992016011406004+23267+090700FM-12+000799999V0209999C000010045019N006000199+02381+01501101651ADDAA124000091GA1051+004501061GA2061+024001041GE19AGL   +99999+99999GF107991051999004501999999MA1999999101591REMSYN08241941 32456 70000 10238 20150 30159 40165 8542/ 333 56999 58010 70000 85615 86458=
0200419410999992016011409004+23267+090700FM-12+000799999V0209999C00001024001CN006000199+02481+01401101341ADDAA124000091GA1031+004501061GA2041+024001041GE19AGL   +99999+99999GF105991031999004501999999MA1999999101281REMSYN08241941 32456 50000 10248 20140 30128 40134 84420 333 56990 58013 70000 83615 84458=
0219419410999992016011412004+23267+090700FM-12+000799999V0209999C00001024001CN004000199+01921+01301101321ADDAA124000091GA1031+004501061GA2041+024001041GE19AGL   +99999+99999GF105991031999004501999999KA1240M+02521MA1999999101271REMSYN08841941 32440 50000 10192 20130 30127 40132 84420 333 10252 56990 58010 70000 83615 84458=
0206419410999992016011415004+23267+090700FM-12+000799999V0209999C000019999999N004000199+01801+01601101491ADDAA124000091AY121021AY221021GA1031+004501061GE19AGL   +99999+99999GF104991031999004501999999MA1999999101431MW1051REMSYN08241941 31440 40000 10180 20160 30143 40149 70522 84400 333 56900 59003 70000 83615=
0206419410999992016011418004+23267+090700FM-12+000799999V0209999C000019999999N004000199+01631+01501101611ADDAA124000091AY121021AY221021GA1041+004501061GE19AGL   +99999+99999GF104991041999004501999999MA1999999101551MW1051REMSYN08241941 31440 40000 10163 20150 30155 40161 70522 84500 333 56900 58009 70000 84615=
0200419410999992016011421004+23267+090700FM-12+000799999V0209999C000019999999N004000199+01481+01401101541ADDAA124000091AY121021AY221021GA1041+004501061GE19AGL   +99999+99999GF104991041999004501999999MA1999999101481MW1051REMSYN07641941 31440 40000 10148 20140 30148 40154 70522 333 56900 58007 70000 84615=
0206419410999992016011500004+23267+090700FM-12+000799999V0209999C000019999999N004000199+01401+01301101281ADDAA124000091AY121021AY221021GA1031+004501061GE19AGL   +99999+99999GF103991031999004501999999MA1999999101221MW1051REMSYN08241941 31440 30000 10140 20130 30122 40128 70522 83500 333 56900 59027 70000 83615=
0197419410999992016011503004+23267+090700FM-12+000799999V0209999C000019999999N006000199+01771+01501101641ADDAA124000091GA1031+004501061GE19AGL   +99999+99999GF103991031999004501999999KA1240N+01311MA1999999101581REMSYN08241941 32956 30000 10177 20150 30158 40164 83500 333 20131 56900 59009 70000 83615=
0136419410999992016011506004+23267+090700FM-12+000799999V0209999C000019999999N006000199+02391+01501101511ADDAA124000091GF100995999999999999999999MA1999999101451MD1999999-0141REMSYN05841941 32956 00000 10239 20150 30145 40151 333 59014 70000=
0200419410999992016011509004+23267+090700FM-12+000799999V0209999C000010240019N006000199+02571+01501101101ADDAA124000091GA1041+004801061GA2061+024001041GE19AGL   +99999+99999GF106991041999004801999999MA1999999101051REMSYN08241941 32456 60000 10257 20150 30105 40110 85420 333 56990 59024 70000 84616 86458=
0247419410999992016011512004+23267+090700FM-12+000799999V0209999C000010240019N005000199+02121+01401101021ADDAA124000091AY121021AY221021GA1041+004801061GA2061+024001041GE19AGL   +99999+99999GF106991041999004801999999KA1240M+02601MA1999999100961MW1051REMSYN09441941 31450 60000 10212 20140 30096 40102 70522 85420 333 10260 56990 59030 70000 84616 86458=
0206419410999992016011515004+23267+090700FM-12+000799999V0209999C000019999999N004000199+01721+01501101401ADDAA124000091AY121021AY201021GA1041+004801061GE19AGL   +99999+99999GF104991041999004801999999MA1999999101351MW1051REMSYN08241941 31440 40000 10172 20150 30135 40140 70520 84400 333 56900 59009 70000 84616=
0206419410999992016011518004+23267+090700FM-12+000799999V0209999C000019999999N004000199+01571+01401101381ADDAA124000091AY121021AY201021GA1031+004501061GE19AGL   +99999+99999GF103991031999004501999999MA1999999101321MW1051REMSYN08241941 31440 30000 10157 20140 30132 40138 70520 83500 333 56900 59023 70000 83615=
0164419410999992016011521004+23267+090700FM-12+000799999V0209999C000019999999N004000199+01551+01401101281ADDAA124000091AY101021AY201021GF100995999999999999999999MA1999999101221MD1999999-0261MW1051REMSYN06441941 31940 00000 10155 20140 30122 40128 70500 333 59026 70000=
0164419410999992016011600004+23267+090700FM-12+000799999V0209999C000019999999N004000199+01521+01401101231ADDAA124000091AY101021AY201021GF100995999999999999999999MA1999999101171MD1999999-0051MW1051REMSYN06441941 31940 00000 10152 20140 30117 40123 70500 333 59005 70000=
0141419410999992016011603004+23267+090700FM-12+000799999V0209999C000019999999N006000199+01851+01801101341ADDAA124000091GF100995999999999999999999KA1240N+01461MA1999999101281REMSYN06441941 32956 00000 10185 20180 30128 40134 333 20146 56030 70000=
0136419410999992016011606004+23267+090700FM-12+000799999V0209999C000019999999N006000199+02471+02001101411ADDAA124000091GF100995999999999999999999MA1999999101351MD1999999-0101REMSYN05841941 32956 00000 10247 20200 30135 40141 333 59010 70000=
0136419410999992016011609004+23267+090700FM-12+000799999V0209999C000019999999N006000199+02621+01601100981ADDAA124000091GF100995999999999999999999MA1999999100921MD1999999-0121REMSYN05841941 32956 00000 10262 20160 30092 40098 333 59012 70000=
0183419410999992016011612004+23267+090700FM-12+000799999V0209999C000019999999N006000199+02271+01701101101ADDAA124000091AY101021AY201021GF100995999999999999999999KA1240M+02721MA1999999101041MD1999999+0081MW1051REMSYN07041941 31956 00000 10227 20170 30104 40110 70500 333 10272 58008 70000=
0164419410999992016011615004+23267+090700FM-12+000799999V0209999C000019999999N005000199+01781+01701101281ADDAA124000091AY101021AY201021GF100995999999999999999999MA1999999101231MD1999999-0121MW1051REMSYN06441941 31950 00000 10178 20170 30123 40128 70500 333 59012 70000=
0164419410999992016011618004+23267+090700FM-12+000799999V0209999C000019999999N004000199+01721+01601101341ADDAA124000091AY101021AY201021GF100995999999999999999999MA1999999101291MD1999999-0041MW1051REMSYN06441941 31940 00000 10172 20160 30129 40134 70500 333 59004 70000=
0164419410999992016011621004+23267+090700FM-12+000799999V0209999C000019999999N004000199+01541+01301101311ADDAA124000091AY101021AY201021GF100995999999999999999999MA1999999101251MD1999999+0031MW1051REMSYN06441941 31940 00000 10154 20130 30125 40131 70500 333 58003 70000=
0164419410999992016011700004+23267+090700FM-12+000799999V0209999C000019999999N004000199+01441+01301101281ADDAA124000091AY101021AY201021GF100995999999999999999999MA1999999101221MD1999999+0051MW1051REMSYN06441941 31940 00000 10144 20130 30122 40128 70500 333 58005 70000=
0155419410999992016011703004+23267+090700FM-12+000799999V0209999C000019999999N006000199+01821+01601101551ADDAA124000091GF100995999999999999999999KA1240N+01411MA1999999101491MD1999999+0211REMSYN06441941 32956 00000 10182 20160 30149 40155 333 20141 58021 70000=
0136419410999992016011706004+23267+090700FM-12+000799999V0203601N001019999999N006000199+02371+01501101491ADDAA124000091GF100995999999999999999999MA1999999101441MD1999999+0081REMSYN05841941 32956 03602 10237 20150 30144 40149 333 58008 70000=
0178419410999992016011709004+23267+090700FM-12+000799999V0203601N001019999999N006000199+02621+01201101261ADDAA124000091GA1031+004501061GE19AGL   +99999+99999GF103991031999004501999999MA1999999101201REMSYN07641941 32956 33602 10262 20120 30120 40126 83500 333 56900 58028 70000 83615=
0161419410999992016011712004+23267+090700FM-12+000799999V0209999C000019999999N005000199+02271+01301101101ADDAA124000091GF100995999999999999999999MA1999999101041MD1999999+0001REMSYN06441941 32950 00000 10227 20130 30104 40110 333 20266 58000 70000=EQDQ0126.6  2EATMN 
0136419410999992016011715004+23267+090700FM-12+000799999V0209999C000019999999N004000199+01671+01601101321ADDAA124000091GF100995999999999999999999MA1999999101271MD1999999+0041REMSYN05841941 32940 00000 10167 20160 30127 40132 333 58004 70000=
0164419410999992016011718004+23267+090700FM-12+000799999V0209999C000019999999N004000199+01621+01501101281ADDAA124000091AY101021AY201021GF100995999999999999999999MA1999999101231MD1999999-0061MW1051REMSYN06441941 31940 00000 10162 20150 30123 40128 70500 333 59006 70000=
0164419410999992016011721004+23267+090700FM-12+000799999V0209999C000019999999N004000199+01521+01301101391ADDAA124000091AY101021AY201021GF100995999999999999999999MA1999999101331MD1999999+0081MW1051REMSYN06441941 31940 00000 10152 20130 30133 40139 70500 333 58008 70000=
0164419410999992016011800004+23267+090700FM-12+000799999V0209999C000019999999N004000199+01421+01201101441ADDAA124000091AY101021AY201021GF100995999999999999999999MA1999999101381MD1999999+0161MW1051REMSYN06441941 31940 00000 10142 20120 30138 40144 70500 333 58016 70000=
0155419410999992016011803004+23267+090700FM-12+000799999V0209999C000019999999N006000199+01671+01501101641ADDAA124000091GF100995999999999999999999KA1240N+01211MA1999999101581MD1999999+0091REMSYN06441941 32956 00000 10167 20150 30158 40164 333 20121 58009 70000=
0136419410999992016011806004+23267+090700FM-12+000799999V0209999C000019999999N006000199+02351+01401101531ADDAA124000091GF100995999999999999999999MA1999999101471MD1999999+0041REMSYN05841941 32956 00000 10235 20140 30147 40153 333 58004 70000=
0200419410999992016011809004+23267+090700FM-12+000799999V0209999C000010240019N006000199+02521+01401101011ADDAA124000091GA1041+004801061GA2061+024001041GE19AGL   +99999+99999GF106991041999004801999999MA1999999100951REMSYN08241941 32456 60000 10252 20140 30095 40101 85420 333 56990 59025 70000 84616 86458=
0247419410999992016011812004+23267+090700FM-12+000799999V0209999C000010240019N005000199+02121+01201101051ADDAA124000091AY101021AY201021GA1041+004801061GA2061+024001041GE19AGL   +99999+99999GF106991041999004801999999KA1240M+02541MA1999999101001MW1051REMSYN09441941 31450 60000 10212 20120 30100 40105 70500 85420 333 10254 56990 59005 70000 84616 86458=
0164419410999992016011815004+23267+090700FM-12+000799999V0209999C000019999999N005000199+01821+01501101221ADDAA124000091AY121021AY201021GF100995999999999999999999MA1999999101161MD1999999-0101MW1051REMSYN06441941 31950 00000 10182 20150 30116 40122 70520 333 59010 70000=
0164419410999992016011818004+23267+090700FM-12+000799999V0209999C000019999999N004000199+01721+01501101161ADDAA124000091AY121021AY201021GF100995999999999999999999MA1999999101111MD1999999-0121MW1051REMSYN06441941 31940 00000 10172 20150 30111 40116 70520 333 59012 70000=
0164419410999992016011821004+23267+090700FM-12+000799999V0209999C000019999999N004000199+01521+01401101141ADDAA124000091AY101021AY201021GF100995999999999999999999MA1999999101081MD1999999-0251MW1051REMSYN06441941 31940 00000 10152 20140 30108 40114 70500 333 59025 70000=
0228419410999992016011900004+23267+090700FM-12+000799999V0209999C000010240019N003000199+01421+01301101351ADDAA124000091AY121021AY201021GA1041+004801061GA2061+024001041GE19AGL   +99999+99999GF106991041999004801999999MA1999999101291MW1051REMSYN08841941 31430 60000 10142 20130 30129 40135 70520 85420 333 56990 59009 70000 84616 86458=
0247419410999992016011903004+23267+090700FM-12+000799999V0209999C000010240019N004000199+01821+01601101441ADDAA124000091AY121021AY221021GA1041+004801061GA2061+024001041GE19AGL   +99999+99999GF106991041999004801999999KA1240N+01301MA1999999101381MW1051REMSYN09441941 31440 60000 10182 20160 30138 40144 70522 85420 333 20130 56990 59020 70000 84616 86458=
0200419410999992016011906004+23267+090700FM-12+000799999V0209999C000010240019N006000199+02481+01501101351ADDAA124000091GA1041+004801061GA2061+024001041GE19AGL   +99999+99999GF106991041999004801999999MA1999999101301REMSYN08241941 32456 60000 10248 20150 30130 40135 85420 333 56990 59018 70000 84616 86458=
0200419410999992016011909004+23267+090700FM-12+000799999V0203601N00211024001CN006000199+02571+01601101141ADDAA124000091GA1031+004501061GA2051+024001041GE19AGL   +99999+99999GF106991031999004501999999MA1999999101081REMSYN08241941 32456 63604 10257 20160 30108 40114 84420 333 56990 58013 70000 83615 85458=
0225419410999992016011912004+23267+090700FM-12+000799999V0209999C000010240019N005000199+02171+01501101211ADDAA124000091GA1041+004501061GA2061+024001041GE19AGL   +99999+99999GF106991041999004501999999KA1240M+02621MA1999999101151REMSYN09441941 32450 60000 10217 20150 30115 40121 84520 333 10262 56900 56990 58015 70000 84615 86458=
0206419410999992016011915004+23267+090700FM-12+000799999V0209999C000019999999N004000199+01901+01601101401ADDAA124000091AY121021AY221021GA1041+004501061GE19AGL   +99999+99999GF104991041999004501999999MA1999999101341MW1051REMSYN08241941 31440 40000 10190 20160 30134 40140 70522 84500 333 56900 58018 70000 84615=
0206419410999992016011918004+23267+090700FM-12+000799999V0209999C000019999999N004000199+01591+01401101491ADDAA124000091AY121021AY221021GA1041+004501061GE19AGL   +99999+99999GF104991041999004501999999MA1999999101441MW1051REMSYN08241941 31440 40000 10159 20140 30144 40149 70522 84500 333 56900 58033 70000 84615=
0200419410999992016011921004+23267+090700FM-12+000799999V0200101N024719999999N004000199+99999+01301101431ADDAA124000091AY121021AY221021GA1042+004501061GE19AGL   +99999+99999GF101992042999004501999999MA1999999101371MW1051REMSYN07641941 31440 10148 20130 30137 40143 70522 84500 333 56900 58029 70000 84615=
0206419410999992016012000004+23267+090700FM-12+000799999V0209999C000019999999N004000199+01441+01301101321ADDAA124000091AY121021AY221021GA1041+004501061GE19AGL   +99999+99999GF104991041999004501999999MA1999999101261MW1051REMSYN08241941 31440 40000 10144 20130 30126 40132 70522 84500 333 56900 59003 70000 84615=
0183419410999992016012003004+23267+090700FM-12+000799999V0209999C000019999999N005000199+01871+01601101511ADDAA124000091AY121021AY201021GF100995999999999999999999KA1240N+01401MA1999999101451MD1999999+0031MW1051REMSYN07041941 31950 00000 10187 20160 30145 40151 70520 333 20140 58003 70000=
0136419410999992016012006004+23267+090700FM-12+000799999V0203601N001019999999N006000199+02421+01701101541ADDAA124000091GF100995999999999999999999MA1999999101491MD1999999+0191REMSYN05841941 32956 03602 10242 20170 30149 40154 333 58019 70000=
0200419410999992016012009004+23267+090700FM-12+000799999V0209999C000010210019N006000199+02481+01701101251ADDAA124000091GA1041+004501061GA2081+021001041GE19AGL   +99999+99999GF108991041999004501999999MA1999999101191REMSYN08241941 32456 80000 10248 20170 30119 40125 8452/ 333 56999 58011 70000 84615 88457=
0269419410999992016012012004+23267+090700FM-12+000799999V0203601N00211004501CN005000199+02001+01601101361ADDAA124000091AY121021AY221021GA1031+002701071GA2031+004501061GA3081+024001041GE19AGL   +99999+99999GF108991031999002701999999KA1240M+02601MA1999999101301MW1051REMSYN10041941 31950 83604 10200 20160 30130 40136 70522 8672/ 333 10260 56399 58015 70000 83709 83615 88458=
0250419410999992016012018004+23267+090700FM-12+000799999V0203601N00211004201CN004000199+01741+01401101611ADDAA124000091AY121021AY221021GA1031+002701071GA2041+004201061GA3081+021001041GE19AGL   +99999+99999GF108991031999002701999999MA1999999101551MW1051REMSYN09441941 31340 83604 10174 20140 30155 40161 70522 8672/ 333 56399 58011 70000 83709 84614 88457=
0269419410999992016012103004+23267+090700FM-12+000799999V0203601N00101004201CN004000199+01771+01601101771ADDAA124000091AY121021AY221021GA1031+002701071GA2041+004201061GA3081+021001041GE19AGL   +99999+99999GF108991031999002701999999KA1240N+01511MA1999999101711MW1051REMSYN10041941 31340 83602 10177 20160 30171 40177 70522 8672/ 333 20151 56499 58026 70000 83709 84614 88457=
0250419410999992016012106004+23267+090700FM-12+000799999V0209999C00001009001CN004000199+01971+01701101661ADDAA124000091AY121021AY221021GA1041+004501061GA2011+009001091GA3081+024001041GE19AGL   +99999+99999GF108991041999004501999999MA1999999101601MW1051REMSYN09441941 31440 80000 10197 20170 30160 40166 70522 8632/ 333 56999 58012 70000 84615 81930 88458=
0250419410999992016012109004+23267+090700FM-12+000799999V0209999C00001009001CN004000199+02091+01701101481ADDAA124000091AY121021AY221021GA1041+004501061GA2011+009001091GA3081+024001041GE19AGL   +99999+99999GF108991041999004501999999MA1999999101421MW1051REMSYN09441941 31440 80000 10209 20170 30142 40148 70522 8632/ 333 56999 58023 70000 84615 81930 88458=
0269419410999992016012112004+23267+090700FM-12+000799999V0209999C00001004201CN004000199+01821+01701101501ADDAA124000091AY121021AY221021GA1031+002701071GA2041+004201061GA3081+021001041GE19AGL   +99999+99999GF108991031999002701999999KA1240M+02121MA1999999101441MW1051REMSYN10041941 31440 80000 10182 20170 30144 40150 70522 8672/ 333 10212 56999 58014 70000 83709 84614 88457=
0250419410999992016012115004+23267+090700FM-12+000799999V0209999C00001004201CN004000199+01791+01701101681ADDAA124000091AY121021AY221021GA1031+002701071GA2041+004201061GA3081+024001041GE19AGL   +99999+99999GF108991031999002701999999MA1999999101621MW1051REMSYN09441941 31440 80000 10179 20170 30162 40168 70522 8672/ 333 56999 58017 70000 83709 84614 88458=
0250419410999992016012118004+23267+090700FM-12+000799999V0209999C00001009001CN004000199+01751+01701101611ADDAA124000091AY121021AY221021GA1041+004501061GA2011+009001091GA3081+021001041GE19AGL   +99999+99999GF108991041999004501999999MA1999999101551MW1051REMSYN09441941 31440 80000 10175 20170 30155 40161 70522 8632/ 333 56999 58000 70000 84615 81930 88457=
0250419410999992016012200004+23267+090700FM-12+000799999V0203601N00101009001CN004000199+01471+01401101631ADDAA124000091AY121021AY221021GA1041+004501061GA2011+009001091GA3081+024001041GE19AGL   +99999+99999GF108991041999004501999999MA1999999101571MW1051REMSYN09441941 31440 83602 10147 20140 30157 40163 70522 8632/ 333 56999 58010 70000 84615 81930 88458=
0219419410999992016012203004+23267+090700FM-12+000799999V0209999C000010240019N006000199+01681+01501101861ADDAA124000091GA1041+004801061GA2061+024001041GE19AGL   +99999+99999GF106991041999004801999999KA1240N+01391MA1999999101801REMSYN08841941 32456 60000 10168 20150 30180 40186 85420 333 20139 56990 58009 70000 84616 86458=
0178419410999992016012206004+23267+090700FM-12+000799999V0209999C000019999999N006000199+02121+01301101911ADDAA124000091GA1041+004801061GE19AGL   +99999+99999GF104991041999004801999999MA1999999101851REMSYN07641941 32456 40000 10212 20130 30185 40191 84500 333 56900 58025 70000 84616=
0178419410999992016012209004+23267+090700FM-12+000799999V0203601N001019999999N006000199+02171+01401101531ADDAA124000091GA1041+004801061GE19AGL   +99999+99999GF104991041999004801999999MA1999999101471REMSYN07641941 32456 43602 10217 20140 30147 40153 85400 333 56900 58005 70000 84616=
0155419410999992016012212004+23267+090700FM-12+000799999V0203601N001019999999N005000199+01821+01401101711ADDAA124000091GF100995999999999999999999KA1240M+02251MA1999999101651MD1999999+0211REMSYN06441941 32950 03602 10182 20140 30165 40171 333 10225 58021 70000=
0178419410999992016012215004+23267+090700FM-12+000799999V0203601N001019999999N004000199+01571+01401101741ADDAA124000091GA1031+004501061GE19AGL   +99999+99999GF103991031999004501999999MA1999999101681REMSYN07641941 32940 33602 10157 20140 30168 40174 83500 333 56900 58006 70000 83615=
0206419410999992016012218004+23267+090700FM-12+000799999V0203601N001019999999N004000199+01521+01301101951ADDAA124000091AY121021AY201021GA1031+004501061GE19AGL   +99999+99999GF103991031999004501999999MA1999999101891MW1051REMSYN08241941 32940 33602 10152 20130 30189 40195 70520 83500 333 56900 58034 70000 83615=
0228419410999992016012221004+23267+090700FM-12+000799999V0203601N001010210019N004000199+01471+01301101861ADDAA124000091AY121021AY221021GA1041+004501061GA2061+021001041GE19AGL   +99999+99999GF106991041999004501999999MA1999999101801MW1051REMSYN08841941 31440 63602 10147 20130 30180 40186 70522 85420 333 56990 58027 70000 84615 86457=
0250419410999992016012300004+23267+090700FM-12+000799999V0203601N00101009001CN004000199+01371+01301101761ADDAA124000091AY121021AY221021GA1051+004501061GA2021+009001091GA3081+021001041GE19AGL   +99999+99999GF108991051999004501999999MA1999999101701MW1051REMSYN09441941 31440 83602 10137 20130 30170 40176 70522 8562/ 333 56999 58013 70000 85615 82930 88457=
0269419410999992016012303004+23267+090700FM-12+000799999V0203601N00101009001CN005000199+02472+01401102051ADDAA124000091AY121021AY221021GA1051+004501061GA2021+009001091GA3081+021001041GE19AGL   +99999+99999GF108991051999004501999999KA1240N+01311MA1999999101991MW1051REMSYN10041941 31450 83602 10247 20140 30199 40205 70522 8562/ 333 20131 56999 58019 70000 85615 82930 88457=
0250419410999992016012306004+23267+090700FM-12+000799999V0203601N00101009001CN005000199+01821+01301101971ADDAA124000091AY121021AY221021GA1051+004501061GA2021+009001091GA3081+024001041GE19AGL   +99999+99999GF108991051999004501999999MA1999999101911MW1051REMSYN09441941 31450 83602 10182 20130 30191 40197 70522 8562/ 333 56999 58006 70000 85615 82930 88458=
0178419410999992016012309004+23267+090700FM-12+000799999V0209999C000019999999N006000199+01971+01401101761ADDAA124000091GA1031+004501061GE19AGL   +99999+99999GF103991031999004501999999MA1999999101701REMSYN07641941 32956 30000 10197 20140 30170 40176 83500 333 56900 58023 70000 83615=
0225419410999992016012312004+23267+090700FM-12+000799999V0209999C000019999999N005000199+01781+01501101671ADDAA124000091AY121021AY201021GA1031+004501061GE19AGL   +99999+99999GF103991031999004501999999KA1240M+02071MA1999999101611MW1051REMSYN08841941 31450 30000 10178 20150 30161 40167 70520 83500 333 10207 56900 59004 70000 83615=
0206419410999992016012315004+23267+090700FM-12+000799999V0209999C000019999999N004000199+01521+01401101831ADDAA124000091AY121021AY201021GA1031+004501061GE19AGL   +99999+99999GF103991031999004501999999MA1999999101771MW1051REMSYN08241941 31440 30000 10152 20140 30177 40183 70520 83500 333 56900 58009 70000 83615=
0206419410999992016012321004+23267+090700FM-12+000799999V0209999C000019999999N004000199+01321+01201101831ADDAA124000091AY121021AY221021GA1041+004501061GE19AGL   +99999+99999GF104991041999004501999999MA1999999101771MW1051REMSYN08241941 31440 40000 10132 20120 30177 40183 70522 84500 333 56900 59003 70000 84615=
0206419410999992016012400004+23267+090700FM-12+000799999V0209999C000019999999N004000199+01221+01201101801ADDAA124000091AY121021AY221021GA1041+004801061GE19AGL   +99999+99999GF104991041999004801999999MA1999999101741MW1051REMSYN08241941 31440 40000 10122 20120 30174 40180 70522 84500 333 56900 58004 70000 84616=
0247419410999992016012403004+23267+090700FM-12+000799999V0209999C000010240019N002000199+01421+01301102051ADDAA124000091AY141021AY221021GA1041+004801061GA2061+024001041GE19AGL   +99999+99999GF106991041999004801999999KA1240N+01051MA1999999101991MW1101REMSYN09441941 31420 60000 10142 20130 30199 40205 71042 85420 333 20105 56990 58000 70000 84616 86458=
0228419410999992016012406004+23267+090700FM-12+000799999V0203601N00101024001CN005000199+01871+01101102061ADDAA124000091AY141021AY221021GA1031+004801061GA2051+024001041GE19AGL   +99999+99999GF105991031999004801999999MA1999999102001MW1051REMSYN08841941 31450 53602 10187 20110 30200 40206 70542 84420 333 56990 58009 70000 83616 85458=
0200419410999992016012409004+23267+090700FM-12+000799999V0203601N00101024001CN006000199+02041+01701101531ADDAA124000091GA1021+004801061GA2051+024001041GE19AGL   +99999+99999GF105991021999004801999999MA1999999101461REMSYN08241941 32456 53602 10204 20170 30146 40153 84420 333 56990 59024 70000 82616 85458=
0247419410999992016012412004+23267+090700FM-12+000799999V0203601N00101024001CN005000199+01871+01201101441ADDAA124000091AY121021AY221021GA1031+004801061GA2051+024001041GE19AGL   +99999+99999GF105991031999004801999999KA1240M+02221MA1999999101381MW1051REMSYN09441941 31450 53602 10187 20120 30138 40144 70522 84420 333 10222 56990 59023 70000 83616 85458=
0164419410999992016012415004+23267+090700FM-12+000799999V0209999C000019999999N004000199+01571+01401101541ADDAA124000091AY121021AY201021GF100995999999999999999999MA1999999101481MD1999999-0291MW1051REMSYN06441941 31940 00000 10157 20140 30148 40154 70520 333 59029 70000=
0164419410999992016012418004+23267+090700FM-12+000799999V0209999C000019999999N004000199+01441+01301101621ADDAA124000091AY101021AY201021GF100995999999999999999999MA1999999101561MD1999999-0241MW1051REMSYN06441941 31940 00000 10144 20130 30156 40162 70500 333 59024 70000=
0164419410999992016012421004+23267+090700FM-12+000799999V0209999C000019999999N004000199+01341+01001101561ADDAA124000091AY101021AY201021GF100995999999999999999999MA1999999101501MD1999999-0271MW1051REMSYN06441941 31940 00000 10134 20100 30150 40156 70500 333 59027 70000=
0164419410999992016012500004+23267+090700FM-12+000799999V0209999C000019999999N004000199+01221+01101101501ADDAA124000091AY101021AY201021GF100995999999999999999999MA1999999101461MD1999999-0261MW1051REMSYN06441941 31940 00000 10122 20110 30146 40150 70500 333 59026 70000=
0183419410999992016012503004+23267+090700FM-12+000799999V0209999C000019999999N005000199+01481+01401101701ADDAA124000091AY101021AY201021GF100995999999999999999999KA1240N+01151MA1999999101641MD1999999-0351MW1051REMSYN07041941 31950 00000 10148 20140 30164 40170 70500 333 20115 59035 70000=
0136419410999992016012506004+23267+090700FM-12+000799999V0203601N001019999999N006000199+01941+01501101551ADDAA124000091GF100995999999999999999999MA1999999101501MD1999999-0511REMSYN05841941 32956 03602 10194 20150 30150 40155 333 59051 70000=
0136419410999992016012509004+23267+090700FM-12+000799999V0203601N001019999999N006000199+02281+01901101281ADDAA124000091GF100995999999999999999999MA1999999101221MD1999999-0241REMSYN05841941 32956 03602 10228 20190 30122 40128 333 59024 70000=
0183419410999992016012512004+23267+090700FM-12+000799999V0203601N001019999999N005000199+01941+00602101331ADDAA124000091AY101021AY201021GF100995999999999999999999KA1240M+02341MA1999999101271MD1999999-0111MW1051REMSYN07041941 31950 03602 10194 20060 30127 40133 70500 333 10234 59011 70000=
0164419410999992016012515004+23267+090700FM-12+000799999V0209999C000019999999N004000199+01461+01201101401ADDAA124000091AY101021AY201021GF100995999999999999999999MA1999999101341MD1999999-0141MW1051REMSYN06441941 31940 00000 10146 20120 30134 40140 70500 333 59014 70000=
0164419410999992016012518004+23267+090700FM-12+000799999V0209999C000019999999N004000199+01421+01101101501ADDAA124000091AY101021AY201021GF100995999999999999999999MA1999999101441MD1999999-0121MW1051REMSYN06441941 31940 00000 10142 20110 30144 40150 70500 333 59012 70000=
0164419410999992016012521004+23267+090700FM-12+000799999V0209999C000019999999N004000199+01171+01101101461ADDAA124000091AY101021AY201021GF100995999999999999999999MA1999999101401MD1999999-0101MW1051REMSYN06441941 31940 00000 10117 20110 30140 40146 70500 333 59010 70000=
0228419410999992016012600004+23267+090700FM-12+000799999V0209999C000010240019N002000199+01141+01001101441ADDAA124000091AY141021AY221021GA1031+004501061GA2061+024001041GE19AGL   +99999+99999GF106991031999004501999999MA1999999101381MW1101REMSYN08841941 31420 60000 10114 20100 30138 40144 71042 84420 333 56990 59010 70000 83615 86458=
0247419410999992016012603004+23267+090700FM-12+000799999V0209999C000010240019N003000199+01301+01201101751ADDAA124000091AY141021AY221021GA1031+004501061GA2061+024001041GE19AGL   +99999+99999GF106991031999004501999999KA1240N+01061MA1999999101691MW1101REMSYN09441941 31430 60000 10130 20120 30169 40175 71042 84420 333 20106 56990 58005 70000 83615 86458=
0117419410999992016012606004+23267+090700FM-12+000799999V0209999C000019999999N006000199+01961+01001101401ADDGF100995999999999999999999MA1999999101601REMSYN06441941 31956 00000 10196 20100 30160 40140 40166 333 58011 70000=
0136419410999992016012609004+23267+090700FM-12+000799999V0203601N001019999999N006000199+02261+01901101381ADDAA124000091GF100995999999999999999999MA1999999101321MD1999999+0101REMSYN05841941 32956 03602 10226 20190 30132 40138 333 58010 70000=
0247419410999992016012612004+23267+090700FM-12+000799999V0209999C000010240019N005000199+01871+01601101411ADDAA124000091AY121021AY201021GA1041+004501061GA2061+024001041GE19AGL   +99999+99999GF106991041999004501999999KA1240M+02361MA1999999101351MW1051REMSYN09441941 31450 60000 10187 20160 30135 40141 70520 85420 333 10236 56990 58008 70000 84615 86458=
0228419410999992016012615004+23267+090700FM-12+000799999V0209999C000010240019N004000199+01771+01601101501ADDAA124000091AY121021AY221021GA1041+004501061GA2061+024001041GE19AGL   +99999+99999GF106991041999004501999999MA1999999101441MW1051REMSYN08841941 31440 60000 10177 20160 30144 40150 70522 85420 333 56990 58001 70000 84615 86458=
0164419410999992016012618004+23267+090700FM-12+000799999V0209999C000019999999N004000199+01621+01501101551ADDAA124000091AY121021AY201021GF100995999999999999999999MA1999999101491MD1999999+0051MW1051REMSYN06441941 31940 00000 10162 20150 30149 40155 70520 333 58005 70000=
0164419410999992016012621004+23267+090700FM-12+000799999V0209999C000019999999N003000199+01481+01401101481ADDAA124000091AY101021AY201021GF100995999999999999999999MA1999999101421MD1999999+0021MW1051REMSYN06441941 31930 00000 10148 20140 30142 40148 70500 333 58002 70000=
0164419410999992016012700004+23267+090700FM-12+000799999V0209999C000019999999N004000199+01221+01201101521ADDAA124000091AY101021AY201021GF100995999999999999999999MA1999999101461MD1999999+0081MW1051REMSYN06441941 31940 00000 10122 20120 30146 40152 70500 333 58008 70000=
0183419410999992016012703004+23267+090700FM-12+000799999V0209999C000019999999N004000199+01621+01201101621ADDAA124000091AY101021AY201021GF100995999999999999999999KA1240N+01001MA1999999101561MD1999999-0131MW1051REMSYN07041941 31940 00000 10162 20120 30156 40162 70500 333 20100 59013 70000=
0136419410999992016012706004+23267+090700FM-12+000799999V0209999C000019999999N006000199+02321+00801101561ADDAA124000091GF100995999999999999999999MA1999999101501MD1999999-0101REMSYN05841941 32956 00000 10232 20080 30150 40156 333 59010 70000=
0136419410999992016012709004+23267+090700FM-12+000799999V0209999C000019999999N006000199+02471+00401101301ADDAA124000091GF100995999999999999999999MA1999999101241MD1999999-0081REMSYN05841941 32956 00000 10247 20040 30124 40130 333 59008 70000=
0219419410999992016012712004+23267+090700FM-12+000799999V0209999C000010240019N006000199+02101+00801101251ADDAA124000091GA1041+004501061GA2051+024001041GE19AGL   +99999+99999GF106991041999004501999999KA1240M+02521MA1999999101191REMSYN08841941 32456 60000 10210 20080 30119 40125 84520 333 10252 56990 59016 70000 84615 85458=
0228419410999992016012715004+23267+090700FM-12+000799999V0209999C000010210019N004000199+01801+01001101361ADDAA124000091AY121021AY221021GA1041+004501061GA2051+021001041GE19AGL   +99999+99999GF106991041999004501999999MA1999999101301MW1051REMSYN08841941 31440 60000 10180 20100 30130 40136 70522 84520 333 56990 59014 70000 84615 85457=
0228419410999992016012718004+23267+090700FM-12+000799999V0209999C000010210019N004000199+01551+01301101491ADDAA124000091AY121021AY221021GA1041+004201061GA2061+021001041GE19AGL   +99999+99999GF107991041999004201999999MA1999999101431MW1051REMSYN08841941 31440 70000 10155 20130 30143 40149 70522 84520 333 56990 59006 70000 84614 86457=
0228419410999992016012721004+23267+090700FM-12+000799999V0209999C000010210019N004000199+01381+01201101421ADDAA124000091AY121021AY221021GA1041+004201061GA2061+021001041GE19AGL   +99999+99999GF107991041999004201999999MA1999999101361MW1051REMSYN08841941 31440 70000 10138 20120 30136 40142 70522 84520 333 56990 59006 70000 84614 86457=
0228419410999992016012800004+23267+090700FM-12+000799999V0209999C000010210019N004000199+01461+01401101371ADDAA124000091AY121021AY221021GA1041+004201061GA2061+021001041GE19AGL   +99999+99999GF107991041999004201999999MA1999999101311MW1051REMSYN08841941 31440 70000 10146 20140 30131 40137 70522 84520 333 56990 59015 70000 84614 86457=
0247419410999992016012803004+23267+090700FM-12+000799999V0209999C000010210019N005000199+01721+01401101571ADDAA124000091AY121021AY221021GA1041+004201061GA2082+021001041GE19AGL   +99999+99999GF107992041999004201999999KA1240N+01401MA1999999101511MW1051REMSYN09441941 31450 70000 10172 20140 30151 40157 70522 84520 333 20140 56990 59005 70000 84614 88457=
0228419410999992016012921004+23267+090700FM-12+000799999V0209999C000010240019N004000199+01601+01401101591ADDAA124000091AY121021AY221021GA1041+004801061GA2061+024001041GE19AGL   +99999+99999GF106991041999004801999999MA1999999101531MW1051REMSYN08841941 31440 60000 10160 20140 30153 40159 70522 85420 333 56990 58005 70000 84616 86458=
0228419410999992016013000004+23267+090700FM-12+000799999V0209999C000010240019N004000199+01551+01501101601ADDAA124000091AY121021AY221021GA1041+004801061GA2061+024001041GE19AGL   +99999+99999GF106991041999004801999999MA1999999101541MW1051REMSYN08841941 31440 60000 10155 20150 30154 40160 70522 85420 333 56990 58008 70000 84616 86458=
0247419410999992016013003004+23267+090700FM-12+000799999V0209999C000010240019N004000199+01771+01601101691ADDAA124000091AY121021AY221021GA1041+004801061GA2061+024001041GE19AGL   +99999+99999GF106991041999004801999999KA1240N+01451MA1999999101631MW1051REMSYN09441941 31440 60000 10177 20160 30163 40169 70522 85420 333 20145 56990 59008 70000 84616 86458=
0200419410999992016013006004+23267+090700FM-12+000799999V0209999C000010240019N006000199+02321+01401101581ADDAA124000091GA1041+004501061GA2061+024001041GE19AGL   +99999+99999GF106991041999004501999999MA1999999101521REMSYN08241941 32456 60000 10232 20140 30152 40158 85420 333 56990 59015 70000 84615 86458=
0200419410999992016013009004+23267+090700FM-12+000799999V0209999C000010240019N006000199+02521+02201101261ADDAA124000091GA1041+004801061GA2061+024001041GE19AGL   +99999+99999GF106991041999004801999999MA1999999101201REMSYN08241941 32456 60000 10252 20220 30120 40126 85420 333 56990 59010 70000 84616 86458=
0282419410999992016013012004+23267+090700FM-12+000799999V0209999C000019999999N005000199+02141+01501101181ADDAA124000091AY121021AY221021GA1041+004501061GA2061+024001041GE19AGL   +99999+99999GF199999041999004501999999KA1240M+02521MA1999999101131MW1051REMSYN09441941 31450 00000 10214 20150 30113 40118 70522 85420 333 10252 56990 59215 70000 84615 86458=EQDQ01 024003SCOCIGP01    003SCOTCV
0164419410999992016013015004+23267+090700FM-12+000799999V0209999C000019999999N004000199+01761+01601101281ADDAA124000091AY121021AY201021GF100995999999999999999999MA1999999101231MD1999999-0241MW1051REMSYN06441941 31940 00000 10176 20160 30123 40128 70520 333 59024 70000=
0164419410999992016013018004+23267+090700FM-12+000799999V0209999C000019999999N004000199+01721+01501101501ADDAA124000091AY101021AY201021GF100995999999999999999999MA1999999101441MD1999999-0171MW1051REMSYN06441941 31940 00000 10172 20150 30144 40150 70500 333 59017 70000=
0164419410999992016013021004+23267+090700FM-12+000799999V0209999C000019999999N004000199+01661+01501101381ADDAA124000091AY101021AY201021GF100995999999999999999999MA1999999101321MD1999999-0211MW1051REMSYN06441941 31940 00000 10166 20150 30132 40138 70500 333 59021 70000=
0164419410999992016013100004+23267+090700FM-12+000799999V0209999C000019999999N004000199+01541+01401101291ADDAA124000091AY101021AY201021GF100995999999999999999999MA1999999101231MD1999999-0311MW1051REMSYN06441941 31940 00000 10154 20140 30123 40129 70500 333 59031 70000=
0183419410999992016013103004+23267+090700FM-12+000799999V0209999C000019999999N005000199+01771+01701101421ADDAA124000091AY101021AY201021GF100995999999999999999999KA1240N+01511MA1999999101361MD1999999-0271MW1051REMSYN07041941 31950 00000 10177 20170 30136 40142 70500 333 20151 59027 70000=
0228419410999992016013106004+23267+090700FM-12+000799999V0209999C000010240019N005000199+02301+02001101501ADDAA124000091AY121021AY221021GA1041+004501061GA2061+024001041GE19AGL   +99999+99999GF106991041999004501999999MA1999999101451MW1051REMSYN08841941 31450 60000 10230 20200 30145 40150 70522 85420 333 56990 59008 70000 84615 86458=
0200419410999992016013109004+23267+090700FM-12+000799999V0209999C000010240019N006000199+02581+02001101261ADDAA124000091GA1041+004501061GA2061+024001041GE19AGL   +99999+99999GF106991041999004501999999MA1999999101201REMSYN08241941 32956 60000 10258 20200 30120 40126 85420 333 56990 58000 70000 84615 86458=
0247419410999992016013112004+23267+090700FM-12+000799999V0209999C000010240019N005000199+02341+02001101091ADDAA124000091AY121021AY221021GA1041+004501061GA2061+024001041GE19AGL   +99999+99999GF106991041999004501999999KA1240M+02621MA1999999101031MW1051REMSYN09441941 31450 60000 10234 20200 30103 40109 70522 85420 333 10262 56990 59009 70000 84615 86458=
0164419410999992016013115004+23267+090700FM-12+000799999V0209999C000019999999N004000199+01941+01801101371ADDAA124000091AY121021AY201021GF100995999999999999999999MA1999999101311MD1999999+0091MW1051REMSYN06441941 31940 00000 10194 20180 30131 40137 70520 333 58009 70000=
0164419410999992016013118004+23267+090700FM-12+000799999V0209999C000019999999N004000199+01821+01701101441ADDAA124000091AY101021AY201021GF100995999999999999999999MA1999999101391MD1999999-0061MW1051REMSYN06441941 31940 00000 10182 20170 30139 40144 70500 333 59006 70000=
0164419410999992016013121004+23267+090700FM-12+000799999V0209999C000019999999N004000199+01761+01701101381ADDAA124000091AY101021AY201021GF100995999999999999999999MA1999999101321MD1999999-0011MW1051REMSYN06441941 31940 00000 10176 20170 30132 40138 70500 333 59001 70000=
0200419410999992016020100004+23267+090700FM-12+000799999V0209999C00001002401CN002000199+01771+01701101281ADDAA124000091AY141021AY241021GA1091+999999999GE19AGL   +99999+99999GF109991091999999999999999MA1999999101231MW1451REMSYN07641941 31/20 90000 10177 20170 30123 40128 74544 89/// 333 56999 59001 70000=
0247419410999992016020103004+23267+090700FM-12+000799999V0209999C000010240019N005000199+02041+01901101661ADDAA124000091AY141021AY221021GA1041+004501061GA2071+024001041GE19AGL   +99999+99999GF107991041999004501999999KA1240N+01711MA1999999101601MW1051REMSYN09441941 31450 70000 10204 20190 30160 40166 70542 86420 333 20171 56990 58024 70000 84615 87458=
0228419410999992016020106004+23267+090700FM-12+000799999V0209999C000010240019N006000199+02441+01801101581ADDAA124000091AY141021AY221021GA1041+004501061GA2061+024001041GE19AGL   +99999+99999GF106991041999004501999999MA1999999101521MW1011REMSYN08841941 31456 60000 10244 20180 30152 40158 70142 85420 333 56990 58008 70000 84615 86458=
0178419410999992016020109004+23267+090700FM-12+000799999V0209999C000019999999N006000199+02721+01801101641ADDAA124000091GA1031+004801061GE19AGL   +99999+99999GF103991031999004801999999MA1999999101401REMSYN07641941 32956 30000 10272 20180 30140 40164 83500 333 56900 58020 70000 83616=
0155419410999992016020112004+23267+090700FM-12+000799999V0209999C000019999999N005000199+02571+01801101361ADDAA124000091GF100995999999999999999999KA1240M+02771MA1999999101301MD1999999+0271REMSYN06441941 32950 00000 10257 20180 30130 40136 333 10277 58027 70000=
0164419410999992016020115004+23267+090700FM-12+000799999V0209999C000019999999N004000199+02041+01901101561ADDAA124000091AY101021AY201021GF100995999999999999999999MA1999999101541MD1999999+0191MW1051REMSYN06441941 31940 00000 10204 20190 30154 40156 70500 333 58019 70000=
0164419410999992016020118004+23267+090700FM-12+000799999V0209999C000019999999N004000199+01951+01901101521ADDAA124000091AY101021AY201021GF100995999999999999999999MA1999999101461MD1999999+0081MW1051REMSYN06441941 31940 00000 10195 20190 30146 40152 70500 333 58008 70000=
0200419410999992016020121004+23267+090700FM-12+000799999V0209999C00001002401CN001000199+01871+01801101501ADDAA124000091AY141021AY241021GA1091+999999999GE19AGL   +99999+99999GF109991091999999999999999MA1999999101441MW1451REMSYN07641941 31/10 90000 10187 20180 30144 40150 74544 89/// 333 56999 58013 70000=
0200419410999992016020200004+23267+090700FM-12+000799999V0209999C00001002401CN001000199+01841+01701101561ADDAA124000091AY141021AY241021GA1091+999999999GE19AGL   +99999+99999GF109991091999999999999999MA1999999101501MW1451REMSYN07641941 31/10 90000 10184 20170 30150 40156 74544 89/// 333 56999 58028 70000=
0269419410999992016020203004+23267+090700FM-12+000799999V0209999C00001009001CN004000199+01921+01801101871ADDAA124000091AY141021AY221021GA1051+004501061GA2021+009001091GA3081+024001041GE19AGL   +99999+99999GF108991051999004501999999KA1240N+01811MA1999999101821MW1051REMSYN10041941 31440 80000 10192 20180 30182 40187 70542 8632/ 333 20181 56999 58021 70000 85615 82930 88458=
0222419410999992016020206004+23267+090700FM-12+000799999V0209999C00001009001CN005000199+02161+01801101701ADDAA124000091GA1051+004501061GA2021+009001091GA3081+024001041GE19AGL   +99999+99999GF108991051999004501999999MA1999999101641REMSYN08841941 32450 80000 10216 20180 30164 40170 8632/ 333 56999 58012 70000 85615 82930 88458=
0178419410999992016020209004+23267+090700FM-12+000799999V0209999C000019999999N006000199+02621+02001101461ADDAA124000091GA1041+004801061GE19AGL   +99999+99999GF104991041999004801999999MA1999999101401REMSYN07641941 32456 40000 10262 20200 30140 40146 84500 333 56900 58000 70000 84616=
0197419410999992016020212004+23267+090700FM-12+000799999V0209999C000019999999N005000199+02471+02101101481ADDAA124000091GA1041+004801061GE19AGL   +99999+99999GF104991041999004801999999KA1240M+02671MA1999999101421REMSYN08241941 32450 40000 10247 20210 30142 40148 84500 333 10267 56900 58012 70000 84616=
0178419410999992016020215004+23267+090700FM-12+000799999V0209999C000019999999N004000199+02041+01901101571ADDAA124000091GA1041+004801061GE19AGL   +99999+99999GF104991041999004801999999MA1999999101511REMSYN07641941 32440 40000 10204 20190 30151 40157 84500 333 56900 58001 70000 84616=
0206419410999992016020218004+23267+090700FM-12+000799999V0209999C000019999999N004000199+01921+01801101501ADDAA124000091AY121021AY221021GA1041+004801061GE19AGL   +99999+99999GF104991041999004801999999MA1999999101441MW1051REMSYN08241941 31440 40000 10192 20180 30144 40150 70522 84500 333 56900 59002 70000 84616=
0228419410999992016020221004+23267+090700FM-12+000799999V0209999C00001024001CN004000199+01871+01871101571ADDAA124000091AY121021AY221021GA1031+004501061GA2051+024001041GE19AGL   +99999+99999GF105991031999004501999999MA1999999101521MW1051REMSYN08841941 31440 50000 10187 20187 30152 40157 70522 85320 333 56990 58007 70000 83615 85458=
0228419410999992016020300004+23267+090700FM-12+000799999V0209999C000010240019N004000199+01831+01801101481ADDAA124000091AY121021AY221021GA1041+004501061GA2061+024001041GE19AGL   +99999+99999GF106991041999004501999999MA1999999101431MW1051REMSYN08841941 31440 60000 10183 20180 30143 40148 70522 85420 333 56990 59008 70000 84615 86458=
0247419410999992016020303004+23267+090700FM-12+000799999V0209999C000010240019N005000199+01941+01901101611ADDAA124000091AY121021AY221021GA1041+004501061GA2061+024001041GE19AGL   +99999+99999GF106991041999004501999999KA1240N+01771MA1999999101561MW1051REMSYN09441941 31450 60000 10194 20190 30156 40161 70522 85420 333 20177 56990 59026 70000 84615 86458=
0200419410999992016020306004+23267+090700FM-12+000799999V0209999C000010240019N006000199+02621+01901101631ADDAA124000091GA1041+004801061GA2061+024001041GE19AGL   +99999+99999GF107991041999004801999999MA1999999101571REMSYN08241941 31456 70000 10262 20190 30157 40163 85420 333 56990 59007 70000 84616 86458=
0200419410999992016020309004+23267+090700FM-12+000799999V0203601N003110240019N006000199+02681+01501101281ADDAA124000091GA1041+004501061GA2061+024001041GE19AGL   +99999+99999GF106991041999004501999999MA1999999101221REMSYN08241941 32456 63606 10268 20150 30122 40128 85420 333 56990 59018 70000 84615 86458=
0238419410999992016020312004+23267+090700FM-12+000799999V0209999C00001999999CN006000199+02301+01601101281ADDAA124000091GA1021+004501061GA2041+024001041GE19AGL   +99999+99999GF104991021999004501999999KA1240M+02711MA1999999101221REMSYN08841941 32456 40000 10230 20160 30122 40128 82520 333 10271 56990 59020 70000 82615 84458=EQDQ01 024003SCOCIG
0247419410999992016020315004+23267+090700FM-12+000799999V0209999C00001999999CN004000199+02031+01501101471ADDAA124000091AY121021AY221021GA1021+004501061GA2041+024001041GE19AGL   +99999+99999GF104991021999004501999999MA1999999101411MW1051REMSYN08841941 31440 40000 10203 20150 30141 40147 70522 82520 333 56990 59009 70000 82615 84458=EQDQ01 024003SCOCIG
0247419410999992016020318004+23267+090700FM-12+000799999V0209999C00001999999CN004000199+01951+01601101561ADDAA124000091AY121021AY221021GA1031+004501061GA2041+024001041GE19AGL   +99999+99999GF104991031999004501999999MA1999999101511MW1051REMSYN08841941 31440 40000 10195 20160 30151 40156 70522 82520 333 56990 58007 70000 83615 84458=EQDQ01 024003SCOCIG
0228419410999992016020321004+23267+090700FM-12+000799999V0209999C00001024001CN004000199+01901+01501101451ADDAA124000091AY121021AY221021GA1031+004501061GA2041+024001041GE19AGL   +99999+99999GF105991031999004501999999MA1999999101401MW1051REMSYN08841941 31440 50000 10190 20150 30140 40145 70522 83520 333 56990 59012 70000 83615 84458=
0228419410999992016020400004+23267+090700FM-12+000799999V0209999C00001024001CN004000199+01701+01501101541ADDAA124000091AY121021AY221021GA1031+004501061GA2041+024001041GE19AGL   +99999+99999GF105991031999004501999999MA1999999101491MW1051REMSYN08841941 31440 50000 10170 20150 30149 40154 70522 83520 333 56990 58006 70000 83615 84458=
0183419410999992016020403004+23267+090700FM-12+000799999V0203601N001519999999N005000199+02021+01501101821ADDAA124000091AY121021AY201021GF100995999999999999999999KA1240N+01601MA1999999101771MD1999999+0211MW1051REMSYN07041941 31950 03603 10202 20150 30177 40182 70520 333 20160 58021 70000=
0178419410999992016020406004+23267+090700FM-12+000799999V0203601N003119999999N006000199+02551+00801101711ADDAA124000091GA1021+005401061GE19AGL   +99999+99999GF103991021999005401999999MA1999999101651REMSYN07641941 32456 33606 10255 20080 30165 40171 83400 333 56900 58008 70000 82618=
0136419410999992016020409004+23267+090700FM-12+000799999V0203601N002619999999N006000199+02651+01301101411ADDAA124000091GF100995999999999999999999MA1999999101351MD1999999+0161REMSYN05841941 32956 03605 10265 20130 30135 40141 333 58016 70000=
0197419410999992016020412004+23267+090700FM-12+000799999V0209999C000019999999N005000199+02301+01601101391ADDAA124000091GA1041+004501061GE19AGL   +99999+99999GF104991041999004501999999KA1240M+02701MA1999999101331REMSYN08241941 31450 40000 10230 20160 30133 40139 84500 333 10270 56900 58011 70000 84615=
0178419410999992016020415004+23267+090700FM-12+000799999V0209999C000019999999N005000199+01971+01501101591ADDAA124000091GA1031+004501061GE19AGL   +99999+99999GF103991031999004501999999MA1999999101531REMSYN07641941 32450 30000 10197 20150 30153 40159 83500 333 56900 58011 70000 83615=
0206419410999992016020418004+23267+090700FM-12+000799999V0209999C000019999999N004000199+02821+01501101711ADDAA124000091AY121021AY201021GA1031+004501061GE19AGL   +99999+99999GF103991031999004501999999MA1999999101661MW1051REMSYN08241941 31440 30000 10282 20150 30166 40171 70520 83500 333 56900 58015 70000 83615=
0206419410999992016020421004+23267+090700FM-12+000799999V0203601N001019999999N004000199+01751+01501101611ADDAA124000091AY121021AY201021GA1031+004501061GE19AGL   +99999+99999GF103991031999004501999999MA1999999101551MW1051REMSYN08241941 31440 33602 10175 20150 30155 40161 70520 83500 333 56900 58015 70000 83615=
0206419410999992016020500004+23267+090700FM-12+000799999V0209999C000019999999N004000199+01521+01301101501ADDAA124000091AY121021AY201021GA1031+004501061GE19AGL   +99999+99999GF103991031999004501999999MA1999999101451MW1051REMSYN08241941 31440 30000 10152 20130 30145 40150 70520 83500 333 56900 59004 70000 83615=
0155419410999992016020503004+23267+090700FM-12+000799999V0203601N001019999999N006000199+02071+01101101721ADDAA124000091GF100995999999999999999999KA1240N+01441MA1999999101661MD1999999-0111REMSYN06441941 32956 03602 10207 20110 30166 40172 333 20144 59011 70000=
0136419410999992016020506004+23267+090700FM-12+000799999V0209999C000019999999N006000199+02571+01201101561ADDAA124000091GF100995999999999999999999MA1999999101501MD1999999-0161REMSYN05841941 32956 00000 10257 20120 30150 40156 333 59016 70000=
0152419410999992016020509004+23267+090700FM-12+000799999V0209999C000019999999N007000199+02771+01001101335ADDAY101021AY201021GF100995999999999999999999MA1999999101271MD1990081+9999ME1100339MW1001REMSYN05441941 32957 00000 10277 20100 30127 41033 59008 70000=
0197419410999992016020512004+23267+090700FM-12+000799999V0209999C000019999999N006000199+02251+01601101231ADDAA124000091GA1031+036001031GE19AGL   +99999+99999GF103991031999036001999999KA1240M+02841MA1999999101171REMSYN08241941 32956 30000 10225 20160 30117 40123 83030 333 10284 56090 59016 70000 83362=
0164419410999992016020515004+23267+090700FM-12+000799999V0209999C000019999999N005000199+02021+01601101351ADDAA124000091AY121021AY201021GF100995999999999999999999MA1999999101291MD1999999-0241MW1051REMSYN06441941 31950 00000 10202 20160 30129 40135 70520 333 59024 70000=
0164419410999992016020518004+23267+090700FM-12+000799999V0209999C000019999999N004000199+01921+01701101401ADDAA124000091AY121021AY201021GF100995999999999999999999MA1999999101351MD1999999-0311MW1051REMSYN06441941 31940 00000 10192 20170 30135 40140 70520 333 59031 70000=
0164419410999992016020521004+23267+090700FM-12+000799999V0209999C000019999999N004000199+01721+01501101311ADDAA124000091AY101021AY201021GF100995999999999999999999MA1999999101261MD1999999-0301MW1051REMSYN06441941 31940 00000 10172 20150 30126 40131 70500 333 59030 70000=
0164419410999992016020600004+23267+090700FM-12+000799999V0209999C000019999999N003000199+01521+01401101421ADDAA124000091AY101021AY201021GF100995999999999999999999MA1999999101371MD1999999-0081MW1051REMSYN06441941 31930 00000 10152 20140 30137 40142 70500 333 59008 70000=
0183419410999992016020603004+23267+090700FM-12+000799999V0209999C000019999999N004000199+02021+01201101521ADDAA124000091AY101021AY201021GF100995999999999999999999KA1240N+01351MA1999999101461MD1999999-0201MW1051REMSYN07041941 31940 00000 10202 20120 30146 40152 70500 333 20135 59020 70000=
0136419410999992016020606004+23267+090700FM-12+000799999V0209999C000019999999N007000199+02541+01101101491ADDAA124000091GF100995999999999999999999MA1999999101431MD1999999-0071REMSYN05841941 32957 00000 10254 20110 30143 40149 333 59007 70000=
0136419410999992016020609004+23267+090700FM-12+000799999V0203601N001019999999N006000199+02621+01101101161ADDAA124000091GF100995999999999999999999MA1999999101111MD1999999-0161REMSYN05841941 32956 03602 10262 20110 30111 40116 333 59016 70000=
0155419410999992016020612004+23267+090700FM-12+000799999V0209999C000019999999N006000199+02271+01401101141ADDAA124000091GF100995999999999999999999KA1240M+02721MA1999999101091MD1999999-0091REMSYN06441941 32956 00000 10227 20140 30109 40114 333 10272 59009 70000=
0164419410999992016020615004+23267+090700FM-12+000799999V0209999C000019999999N005000199+01771+01601101231ADDAA124000091AY101021AY201021GF100995999999999999999999MA1999999101181MD1999999-0121MW1051REMSYN06441941 31950 00000 10177 20160 30118 40123 70500 333 59012 70000=
0164419410999992016020618004+23267+090700FM-12+000799999V0209999C000019999999N004000199+01721+01501101301ADDAA124000091AY101021AY201021GF100995999999999999999999MA1999999101241MD1999999-0101MW1051REMSYN06441941 31940 00000 10172 20150 30124 40130 70500 333 59010 70000=
0164419410999992016020621004+23267+090700FM-12+000799999V0209999C000019999999N004000199+01641+01401101271ADDAA124000091AY101021AY201021GF100995999999999999999999MA1999999101221MD1999999-0041MW1051REMSYN06441941 31940 00000 10164 20140 30122 40127 70500 333 59004 70000=
0164419410999992016020700004+23267+090700FM-12+000799999V0209999C000019999999N004000199+01561+01401101241ADDAA124000091AY101021AY201021GF100995999999999999999999MA1999999101191MD1999999-0181MW1051REMSYN06441941 31940 00000 10156 20140 30119 40124 70500 333 59018 70000=
0183419410999992016020703004+23267+090700FM-12+000799999V0209999C000019999999N005000199+01871+01501101551ADDAA124000091AY101021AY201021GF100995999999999999999999KA1240N+01441MA1999999101491MD1999999+0031MW1051REMSYN07041941 31950 00000 10187 20150 30149 40155 70500 333 20144 58003 70000=
0136419410999992016020706004+23267+090700FM-12+000799999V0209999C000019999999N006000199+02561+01601101621ADDAA124000091GF100995999999999999999999MA1999999101571MD1999999+0131REMSYN05841941 32956 00000 10256 20160 30157 40162 333 58013 70000=
0136419410999992016020709004+23267+090700FM-12+000799999V0209999C000019999999N007000199+02741+01401101401ADDAA124000091GF100995999999999999999999MA1999999101341MD1999999+0171REMSYN05841941 32957 00000 10274 20140 30134 40140 333 58017 70000=
0155419410999992016020712004+23267+090700FM-12+000799999V0209999C000019999999N006000199+02221+01201101181ADDAA124000091GF100995999999999999999999KA1240M+02781MA1999999101121MD1999999+0041REMSYN06441941 32956 00000 10222 20120 30112 40118 333 10278 58004 70000=
0164419410999992016020715004+23267+090700FM-12+000799999V0209999C000019999999N005000199+01801+01601101431ADDAA124000091AY101021AY201021GF100995999999999999999999MA1999999101381MD1999999+0201MW1051REMSYN06441941 31950 00000 10180 20160 30138 40143 70500 333 58020 70000=
0164419410999992016020718004+23267+090700FM-12+000799999V0209999C000019999999N004000199+01741+01701101501ADDAA124000091AY101021AY201021GF100995999999999999999999MA1999999101441MD1999999+0201MW1051REMSYN06441941 31940 00000 10174 20170 30144 40150 70500 333 58020 70000=
0164419410999992016020721004+23267+090700FM-12+000799999V0209999C000019999999N004000199+01661+01501101341ADDAA124000091AY101021AY201021GF100995999999999999999999MA1999999101281MD1999999+0071MW1051REMSYN06441941 31940 00000 10166 20150 30128 40134 70500 333 58007 70000=
0164419410999992016020800004+23267+090700FM-12+000799999V0209999C000019999999N004000199+01601+01501101301ADDAA124000091AY101021AY201021GF100995999999999999999999MA1999999101241MD1999999+0061MW1051REMSYN06441941 31940 00000 10160 20150 30124 40130 70500 333 58006 70000=
0155419410999992016020803004+23267+090700FM-12+000799999V0209999C000019999999N006000199+01921+01401101401ADDAA124000091GF100995999999999999999999KA1240N+01531MA1999999101341MD1999999-0151REMSYN06441941 32956 00000 10192 20140 30134 40140 333 20153 59015 70000=
0136419410999992016020806004+23267+090700FM-12+000799999V0209999C000019999999N007000199+02681+01401101471ADDAA124000091GF100995999999999999999999MA1999999101411MD1999999-0151REMSYN05841941 32957 00000 10268 20140 30141 40147 333 59015 70000=
0136419410999992016020809004+23267+090700FM-12+000799999V0209999C000019999999N007000199+02871+01301101181ADDAA124000091GF100995999999999999999999MA1999999101121MD1999999-0161REMSYN05841941 32957 00000 10287 20130 30112 40118 333 59016 70000=
0155419410999992016020812004+23267+090700FM-12+000799999V0209999C000019999999N005000199+02421+01501101261ADDAA124000091GF100995999999999999999999KA1240M+02921MA1999999101201MD1999999+0081REMSYN06441941 32950 00000 10242 20150 30120 40126 333 10292 58008 70000=
0206419410999992016020815004+23267+090700FM-12+000799999V0209999C000019999999N004000199+02021+01701101391ADDAA124000091AY121021AY201021GA1031+004801061GE19AGL   +99999+99999GF103991031999004801999999MA1999999101331MW1051REMSYN08241941 31940 30000 10202 20170 30133 40139 70520 83500 333 56900 59004 70000 83616=
0206419410999992016020818004+23267+090700FM-12+000799999V0209999C000019999999N004000199+01821+01701101321ADDAA124000091AY121021AY201021GA1031+004801061GE19AGL   +99999+99999GF103991031999004801999999MA1999999101271MW1051REMSYN08241941 31940 30000 10182 20170 30127 40132 70520 83500 333 56900 59018 70000 83616=
0245419410999992016020821004+23267+090700FM-12+000799999V0209999C000010240019N004000199+01821+01701101381ADDAA103005031AA224005031AY161021AY221021GA1041+004501061GA2061+024001041GE19AGL   +99999+99999GF106991041999004501999999MA1999999101321MW1211REMSYN09441941 21440 60000 10182 20170 30132 40138 72162 84520 333 56990 58004 6005/ 70050 84615 86458=
0267419410999992016020900004+23267+090700FM-12+000799999V0209999C00001009001CN003000199+01791+01701101301ADDAA101005031AA224005031AY161021AY221021GA1051+004201061GA2021+009001091GA3081+024001041GE19AGL   +99999+99999GF108991051999004201999999MA1999999101241MW1051REMSYN10041941 11430 80000 10179 20170 30124 40130 60055 70562 8632/ 333 56999 58000 70050 85614 82930 88458=
0269419410999992016020903004+23267+090700FM-12+000799999V0209999C00001009001CN004000199+02131+01901101491ADDAA124005031AY121021AY221021GA1051+004201061GA2021+009001091GA3081+024001041GE19AGL   +99999+99999GF108991051999004201999999KA1240N+01711MA1999999101431MW1051REMSYN10041941 31440 80000 10213 20190 30143 40149 70522 8632/ 333 20171 56999 58009 70050 85614 82930 88458=
0250419410999992016020906004+23267+090700FM-12+000799999V0209999C00001009001CN004000199+02421+02001101551ADDAA124005031AY121021AY221021GA1051+004501061GA2021+009001091GA3081+024001041GE19AGL   +99999+99999GF108991051999004501999999MA1999999101491MW1051REMSYN09441941 31440 80000 10242 20200 30149 40155 70522 8632/ 333 56999 58008 70050 85615 82930 88458=
0200419410999992016020909004+23267+090700FM-12+000799999V0209999C000010240019N006000199+02721+02001101181ADDAA124005031GA1041+004801061GA2061+024001041GE19AGL   +99999+99999GF106991041999004801999999MA1999999101121REMSYN08241941 32456 60000 10272 20200 30112 40118 85420 333 56990 58000 70050 84616 86458=
0219419410999992016020912004+23267+090700FM-12+000799999V0209999C000010240019N005000199+02521+02101101161ADDAA124005031GA1041+004501061GA2061+024001041GE19AGL   +99999+99999GF106991041999004501999999KA1240M+02771MA1999999101101REMSYN08841941 32450 60000 10252 20210 30110 40116 85420 333 10277 56990 59010 70050 84615 86458=
0228419410999992016020915004+23267+090700FM-12+000799999V0209999C000010240019N004000199+02221+02101101251ADDAA124005031AY121021AY221021GA1041+004501061GA2061+024001041GE19AGL   +99999+99999GF106991041999004501999999MA1999999101201MW1051REMSYN08841941 31440 60000 10222 20210 30120 40125 70522 84520 333 56990 59014 70050 84615 86458=
0228419410999992016020918004+23267+090700FM-12+000799999V0209999C000010240019N004000199+02021+01901101371ADDAA124005031AY121021AY221021GA1041+004501061GA2061+024001041GE19AGL   +99999+99999GF106991041999004501999999MA1999999101311MW1051REMSYN08841941 31440 60000 10202 20190 30131 40137 70522 84520 333 56990 58005 70050 84615 86458=
0250419410999992016020921004+23267+090700FM-12+000799999V0209999C00001009001CN004000199+01981+01901101311ADDAA124000091AY121021AY221021GA1051+004201061GA2021+009001091GA3081+024001041GE19AGL   +99999+99999GF108991051999004201999999MA1999999101251MW1051REMSYN09441941 31440 80000 10198 20190 30125 40131 70522 8632/ 333 56999 59007 70000 85614 82930 88458=
0250419410999992016021000004+23267+090700FM-12+000799999V0209999C00001009001CN004000199+01971+01901101211ADDAA124000091AY121021AY221021GA1051+004201061GA2011+009001091GA3081+024001041GE19AGL   +99999+99999GF108991051999004201999999MA1999999101151MW1051REMSYN09441941 31440 80000 10197 20190 30115 40121 70522 8632/ 333 56999 59009 70000 85614 81930 88458=
0269419410999992016021003004+23267+090700FM-12+000799999V0209999C00001009001CN004000199+02071+02001101581ADDAA124000091AY121021AY221021GA1051+004201061GA2021+009001091GA3081+024001041GE19AGL   +99999+99999GF108991051999004201999999KA1240N+01911MA1999999101521MW1051REMSYN10041941 31440 80000 10207 20200 30152 40158 70522 8632/ 333 20191 56999 58009 70000 85614 82930 88458=
0200419410999992016021006004+23267+090700FM-12+000799999V0209999C00001024001CN006000199+02521+02001101541ADDAA124000091GA1031+004501061GA2041+024001041GE19AGL   +99999+99999GF105991031999004501999999MA1999999101391REMSYN08241941 32456 50000 10252 20200 30139 40154 83520 333 56990 59010 70000 83615 84458=
0178419410999992016021009004+23267+090700FM-12+000799999V0209999C000019999999N006000199+02771+02001101061ADDAA124000091GA1031+004801061GE19AGL   +99999+99999GF103991031999004801999999MA1999999101011REMSYN07641941 32956 30000 10277 20200 30101 40106 82500 333 56900 59010 70000 83616=
0197419410999992016021012004+23267+090700FM-12+000799999V0209999C000019999999N005000199+02321+01801101161ADDAA124000091GA1041+004801061GE19AGL   +99999+99999GF104991041999004801999999KA1240M+02821MA1999999101101REMSYN08241941 32950 40000 10232 20180 30110 40116 84500 333 10282 56900 58000 70000 84616=
0206419410999992016021015004+23267+090700FM-12+000799999V0209999C000019999999N004000199+02021+01901101191ADDAA124000091AY121021AY221021GA1041+004801061GE19AGL   +99999+99999GF104991041999004801999999MA1999999101131MW1051REMSYN08241941 31440 40000 10202 20190 30113 40119 70522 84500 333 56900 59006 70000 84616=
0228419410999992016021018004+23267+090700FM-12+000799999V0209999C000010240019N004000199+01981+01901101141ADDAA124000091AY121021AY221021GA1041+004801061GA2061+024001041GE19AGL   +99999+99999GF106991041999004801999999MA1999999101081MW1051REMSYN08841941 31440 60000 10198 20190 30108 40114 70522 84520 333 56990 59023 70000 84616 86458=
0228419410999992016021021004+23267+090700FM-12+000799999V0209999C000010240019N004000199+01771+01701101281ADDAA124000091AY121021AY221021GA1041+004501061GA2061+024001041GE19AGL   +99999+99999GF106991041999004501999999MA1999999101221MW1051REMSYN08841941 31440 60000 10177 20170 30122 40128 70522 85420 333 56990 58007 70000 84615 86458=
0269419410999992016021103004+23267+090700FM-12+000799999V0209999C00001008701CN004000199+02041+02001101491ADDAA124000091AY121021AY221021GA1051+004201061GA2021+008701091GA3081+024001041GE19AGL   +99999+99999GF108991051999004201999999KA1240N+01721MA1999999101431MW1051REMSYN10041941 31440 80000 10204 20200 30143 40149 70522 8632/ 333 20172 56999 59009 70000 85614 82929 88458=
0200419410999992016021106004+23267+090700FM-12+000799999V0209999C000010240019N006000199+02421+02001101291ADDAA124000091GA1041+004801061GA2051+024001041GE19AGL   +99999+99999GF105991041999004801999999MA1999999101231REMSYN08241941 32456 50000 10242 20200 30123 40129 85420 333 56990 59016 70000 84616 85458=
0178419410999992016021109004+23267+090700FM-12+000799999V0209999C000019999999N006000199+02721+02001101131ADDAA124000091GA1031+004801061GE19AGL   +99999+99999GF103991031999004801999999MA1999999101081REMSYN07641941 32956 30000 10272 20200 30108 40113 83500 333 56900 58007 70000 83616=
0219419410999992016021112004+23267+090700FM-12+000799999V0209999C00001021001CN005000199+02451+01901101061ADDAA124000091GA1031+004501061GA2051+021001041GE19AGL   +99999+99999GF105991031999004501999999KA1240M+02771MA1999999101001REMSYN08841941 32450 50000 10245 20190 30100 40106 84520 333 10277 56990 59010 70000 83615 85457=
0228419410999992016021115004+23267+090700FM-12+000799999V0209999C00001021001CN004000199+02171+02101101081ADDAA124000091AY121021AY221021GA1031+004501061GA2051+021001041GE19AGL   +99999+99999GF105991031999004501999999MA1999999101021MW1051REMSYN08841941 31440 50000 10217 20210 30102 40108 70522 85420 333 56990 59011 70000 83615 85457=
0228419410999992016021118004+23267+090700FM-12+000799999V0209999C000010210019N004000199+02121+02001101161ADDAA124000091AY121021AY221021GA1041+004501061GA2061+021001041GE19AGL   +99999+99999GF106991041999004501999999MA1999999101101MW1051REMSYN08841941 31440 60000 10212 20200 30110 40116 70522 85420 333 56990 58002 70000 84615 86457=
0250419410999992016021121004+23267+090700FM-12+000799999V0209999C00001009001CN004000199+02101+02001101131ADDAA124000091AY121021AY221021GA1051+004501061GA2011+009001091GA3081+024001041GE19AGL   +99999+99999GF108991051999004501999999MA1999999101071MW1051REMSYN09441941 31440 80000 10210 20200 30107 40113 70522 8632/ 333 56999 59005 70000 85615 81930 88458=
0250419410999992016021200004+23267+090700FM-12+000799999V0209999C00001009001CN004000199+02081+02001101081ADDAA124000091AY121021AY221021GA1051+004201061GA2011+009001091GA3081+024001041GE19AGL   +99999+99999GF108991051999004201999999MA1999999101021MW1051REMSYN09441941 31440 80000 10208 20200 30102 40108 70522 8632/ 333 56999 59020 70000 85614 81930 88458=
0222419410999992016021206004+23267+090700FM-12+000799999V0201801N00101009001CN005000199+02771+02401101371ADDAA124000091GA1051+004201061GA2011+009001091GA3081+024001041GE19AGL   +99999+99999GF108991051999004201999999MA1999999101321REMSYN08841941 32450 81802 10277 20240 30132 40137 8632/ 333 56999 58008 70000 85614 81930 88458=
0222419410999992016021209004+23267+090700FM-12+000799999V0209999C00001009001CN006000199+02821+02301100941ADDAA124000091GA1051+004501061GA2011+009001091GA3081+024001041GE19AGL   +99999+99999GF108991051999004501999999MA1999999100881REMSYN08841941 32456 80000 10282 20230 30088 40094 8632/ 333 56999 59019 70000 85615 81930 88458=
0269419410999992016021212004+23267+090700FM-12+000799999V0209999C00001009001CN005000199+02621+02301100841ADDAA124000091AY121021AY221021GA1051+004501061GA2011+009001091GA3081+024001041GE19AGL   +99999+99999GF108991051999004501999999KA1240M+02861MA1999999100781MW1051REMSYN10041941 31450 80000 10262 20230 30078 40084 70522 8632/ 333 10286 56999 59022 70000 85615 81930 88458=
0228419410999992016021215004+23267+090700FM-12+000799999V0209999C000010240019N005000199+02371+02101101051ADDAA124000091AY121021AY221021GA1041+004801061GA2061+024001041GE19AGL   +99999+99999GF106991041999004801999999MA1999999101001MW1051REMSYN08841941 31450 60000 10237 20210 30100 40105 70522 85420 333 56990 59003 70000 84616 86458=
0228419410999992016021218004+23267+090700FM-12+000799999V0209999C000010240019N004000199+02121+02001101031ADDAA124000091AY121021AY221021GA1041+004801061GA2061+024001041GE19AGL   +99999+99999GF106991041999004801999999MA1999999100971MW1051REMSYN08841941 31440 60000 10212 20200 30097 40103 70522 85420 333 56990 59013 70000 84616 86458=
0164419410999992016021221004+23267+090700FM-12+000799999V0209999C000019999999N004000199+99999+02001999999ADDGA1999+004501999GE19AGL   +99999+99999GF106991999999004501999999REMSYN08841941 31440 60000 20200 20208 30099 40105 70522 85420 333 56990 59008 70000 84616 86458=
0250419410999992016021300004+23267+090700FM-12+000799999V0209999C00001009001CN003000199+02101+02001101021ADDAA124000091AY121021AY221021GA1051+004501061GA2011+009001091GA3081+024001041GE19AGL   +99999+99999GF108991051999004501999999MA1999999100961MW1051REMSYN09441941 31430 80000 10210 20200 30096 40102 70522 8632/ 333 56999 59006 70000 85615 81930 88458=
0247419410999992016021303004+23267+090700FM-12+000799999V0209999C000010240019N005000199+02251+02101101481ADDAA124000091AY121021AY221021GA1041+004801061GA2061+024001041GE19AGL   +99999+99999GF106991041999004801999999KA1240N+02061MA1999999101421MW1051REMSYN09441941 31450 60000 10225 20210 30142 40148 70522 85420 333 20206 56990 58014 70000 84616 86458=
0200419410999992016021306004+23267+090700FM-12+000799999V0203601N001010240019N006000199+02771+01901101431ADDAA124000091GA1041+004801061GA2061+024001041GE19AGL   +99999+99999GF106991041999004801999999MA1999999101381REMSYN08241941 32456 63602 10277 20190 30138 40143 85420 333 56990 58006 70000 84616 86458=
0200419410999992016021309004+23267+090700FM-12+000799999V0203601N001010240019N006000199+02881+01801101111ADDAA124000091GA1041+004801061GA2061+024001041GE19AGL   +99999+99999GF106991041999004801999999MA1999999101061REMSYN08241941 32456 63602 10288 20180 30106 40111 85420 333 56990 58017 70000 84616 86458=
0227419410999992016021312004+23267+090700FM-12+000799999V0209999C000010240019N005000199+02571+01801101071ADDAA124000091GA1041+004801061GA2061+024001041GE19AGL   +99999+99999GF106991041999004801999999KA1240M+02971MA1999999101021MD1999999+0231REMSYN08241941 32450 60000 10257 20180 30102 40107 85420 333 10297 58023 70000 84616 86458=
0200419410999992016021315004+23267+090700FM-12+000799999V0209999C000010240019N004000199+02221+01901101291ADDAA124000091GA1041+004501061GA2061+024001041GE19AGL   +99999+99999GF106991041999004501999999MA1999999101231REMSYN08241941 32440 60000 10222 20190 30123 40129 85420 333 56990 58024 70000 84615 86458=
0228419410999992016021318004+23267+090700FM-12+000799999V0209999C000010240019N004000199+02161+01901101321ADDAA124000091AY121021AY221021GA1041+004501061GA2061+024001041GE19AGL   +99999+99999GF106991041999004501999999MA1999999101261MW1051REMSYN08841941 31440 60000 10216 20190 30126 40132 70522 85420 333 56990 58029 70000 84615 86458=
0228419410999992016021321004+23267+090700FM-12+000799999V0209999C000010240019N004000199+02041+01901101311ADDAA124000091AY121021AY221021GA1041+004501061GA2061+024001041GE19AGL   +99999+99999GF106991041999004501999999MA1999999101251MW1051REMSYN08841941 31440 60000 10204 20190 30125 40131 70522 85420 333 56990 58026 70000 84615 86458=
0164419410999992016021400004+23267+090700FM-12+000799999V0209999C000019999999N004000199+01971+01901101311ADDAA124000091AY121021AY201021GF100995999999999999999999MA1999999101251MD1999999+0291MW1051REMSYN06441941 31940 00000 10197 20190 30125 40131 70520 333 58029 70000=
0219419410999992016021403004+23267+090700FM-12+000799999V0209999C000010240019N006000199+02241+01701101411ADDAA124000091GA1041+004501061GA2061+024001041GE19AGL   +99999+99999GF106991041999004501999999KA1240N+01911MA1999999101351REMSYN08841941 32456 60000 10224 20170 30135 40141 85420 333 20191 56990 59007 70000 84615 86458=
0200419410999992016021406004+23267+090700FM-12+000799999V0209999C000010240019N006000199+02701+01501101471ADDAA124000091GA1041+004501061GA2061+024001041GE19AGL   +99999+99999GF106991041999004501999999MA1999999101421REMSYN08241941 32456 60000 10270 20150 30142 40147 85420 333 56990 58004 70000 84615 86458=
0200419410999992016021409004+23267+090700FM-12+000799999V0209999C000010240019N006000199+02781+02001101171ADDAA124000091GA1041+004501061GA2061+024001041GE19AGL   +99999+99999GF106991041999004501999999MA1999999101121REMSYN08241941 32456 60000 10278 20200 30112 40117 85420 333 56990 58006 70000 84615 86458=
