0248483040999992016010100004+19867+099767FM-12+040199999V0209999C000019999999N004000199+01641+01591102071ADDAY111021AY201021GA1021+012501061GA2999+999999031GA3999+999999021GE19AGL   +99999+99999GF106991021999012501999999KA1120N+01611MA1999999097311MD1210111+0081MW1101REMSYN07648304 31640 60000 10164 20159 39731 40207 52011 71010 82546 333 20161 58008=
0188483040999992016010103004+19867+099767FM-12+040199999V0203401N001019999999N015000199+02391+02001102141ADDGA1999+999999021GE19AGL   +99999+99999GF106991001999999999999999MA1999999097501MD1210191+0011REMSYN06448304 32965 63402 10239 20200 39750 40214 52019 80007 333 58001=EQDQ01    003SCCGA1
0185483040999992016010106004+19867+099767FM-12+040199999V0202601N001019999999N015000199+02801+01851101841ADDGA1021+008001081GA2999+999999021GE19AGL   +99999+99999GF105991021999008001999999MA1999999097271MD1710231+0041REMSYN06448304 32565 52602 10280 20185 39727 40184 57023 82206 333 58004=
0169483040999992016010109004+19867+099767FM-12+040199999V0209999C000019999999N015000199+02881+01801101571ADDGA1021+012501081GE19AGL   +99999+99999GF102991021999012501999999MA1999999097031MD1710241+0001REMSYN06448304 32665 20000 10288 20180 39703 40157 57024 82100 333 58000=
0188483040999992016010112004+19867+099767FM-12+040199999V0209999C000019999999N012000199+02211+01941101741ADDGA1011+999999031GE19AGL   +99999+99999GF101991011999999999999999KA1240M+02891MA1999999097091MD1210061-0011REMSYN07048304 32962 10000 10221 20194 39709 40174 52006 81040 333 10289 59001=
0125483040999992016010115004+19867+099767FM-12+040199999V0209999C000019999999N012000199+01871+01741101871ADDGF100995999999999999999999MA1999999097161MD1210071-0151REMSYN05848304 32962 00000 10187 20174 39716 40187 52007 333 59015=
0125483040999992016010118004+19867+099767FM-12+040199999V0209999C000019999999N010000199+01661+01591101941ADDGF100995999999999999999999MA1999999097191MD1990031-0081REMSYN05848304 32960 00000 10166 20159 39719 40194 50003 333 59008=
0125483040999992016010121004+19867+099767FM-12+040199999V0209999C000019999999N010000199+01541+01491101881ADDGF100995999999999999999999MA1999999097121MD1710081-0061REMSYN05848304 32960 00000 10154 20149 39712 40188 57008 333 59006=
0207483040999992016010200004+19867+099767FM-12+040199999V0209999C000019999999N010000199+01501+01451102001ADDGA1999+999999001GE19AGL   +99999+99999GF102991001999999999999999KA1120N+01481MA1999999097231MD1210111-0061REMSYN07048304 32960 20000 10150 20145 39723 40200 52011 80001 333 20148 59006=EQDQ01    003SCCGA1
0188483040999992016010203004+19867+099767FM-12+040199999V0209999C000019999999N015000199+02301+01791102031ADDGA1999+999999001GE19AGL   +99999+99999GF102991001999999999999999MA1999999097381MD1210151-0111REMSYN06448304 32965 20000 10230 20179 39738 40203 52015 80001 333 59011=EQDQ01    003SCCGA1
0185483040999992016010206004+19867+099767FM-12+040199999V0209999C000019999999N015000199+02691+01721101681ADDGA1021+008001061GA2999+999999001GE19AGL   +99999+99999GF102991021999008001999999MA1999999097101MD1710281-0161REMSYN06448304 32565 20000 10269 20172 39710 40168 57028 82501 333 59016=
0169483040999992016010209004+19867+099767FM-12+040199999V0209999C000019999999N015000199+02801+01601101371ADDGA1031+999999031GE19AGL   +99999+99999GF103991031999999999999999MA1999999096821MD1710281-0201REMSYN06448304 32965 30000 10280 20160 39682 40137 57028 83040 333 59020=
0220483040999992016010212004+19867+099767FM-12+040199999V0200101N001519999999N015000199+02321+01941101561ADDGA1031+012501061GA2999+999999031GA3999+999999021GE19AGL   +99999+99999GF107991031999012501999999KA1240M+02861MA1999999096931MD1210111-0181REMSYN07048304 32665 70103 10232 20194 39693 40156 52011 83546 333 10286 59018=
0169483040999992016010215004+19867+099767FM-12+040199999V0209999C000019999999N012000199+02001+01861101771ADDGA1031+999999031GE19AGL   +99999+99999GF103991031999999999999999MA1999999097091MD1210161-0101REMSYN06448304 32962 30000 10200 20186 39709 40177 52016 83040 333 59010=
0125483040999992016010218004+19867+099767FM-12+040199999V0209999C000019999999N012000199+01761+01681101761ADDGF100995999999999999999999MA1999999097031MD1710051-0181REMSYN05848304 32962 00000 10176 20168 39703 40176 57005 333 59018=
0153483040999992016010221004+19867+099767FM-12+040199999V0209999C000019999999N002000199+01621+01571101661ADDAY101021AY201021GF100995999999999999999999MA1999999096921MD1710121-0221MW1101REMSYN06448304 31920 00000 10162 20157 39692 40166 57012 71000 333 59022=
0235483040999992016010300004+19867+099767FM-12+040199999V0209999C000019999999N004000199+01551+01481101891ADDAY101021AY201021GA1999+999999001GE19AGL   +99999+99999GF102991001999999999999999KA1120N+01501MA1999999097131MD1210211-0111MW1101REMSYN07648304 31940 20000 10155 20148 39713 40189 52021 71000 80001 333 20150 59011=EQDQ01    003SCCGA1
0188483040999992016010303004+19867+099767FM-12+040199999V0209999C000019999999N015000199+02301+01871101941ADDGA1999+999999001GE19AGL   +99999+99999GF102991001999999999999999MA1999999097291MD1210161-0101REMSYN06448304 32965 20000 10230 20187 39729 40194 52016 80001 333 59010=EQDQ01    003SCCGA1
0169483040999992016010306004+19867+099767FM-12+040199999V0209999C000019999999N015000199+02761+01801101521ADDGA1031+999999031GE19AGL   +99999+99999GF103991031999999999999999MA1999999096961MD1710321-0161REMSYN06448304 32965 30000 10276 20180 39696 40152 57032 83040 333 59016=
0169483040999992016010309004+19867+099767FM-12+040199999V0209999C000019999999N015000199+02921+01721101181ADDGA1021+008001061GE19AGL   +99999+99999GF102991021999008001999999MA1999999096661MD1710301-0191REMSYN06448304 32565 20000 10292 20172 39666 40118 57030 82500 333 59019=
0204483040999992016010312004+19867+099767FM-12+040199999V0209999C000019999999N015000199+02211+01891101371ADDGA1021+008001061GA2999+999999031GE19AGL   +99999+99999GF104991021999008001999999KA1240M+02931MA1999999096731MD1210071-0191REMSYN07048304 32565 40000 10221 20189 39673 40137 52007 82540 333 10293 59019=
0201483040999992016010315004+19867+099767FM-12+040199999V0209999C000019999999N012000199+02011+01871101621ADDGA1031+008001081GA2999+999999031GA3999+999999021GE19AGL   +99999+99999GF105991031999008001999999MA1999999096951MD1210221-0151REMSYN06448304 32562 50000 10201 20187 39695 40162 52022 83246 333 59015=
0197483040999992016010318004+19867+099767FM-12+040199999V0209999C000019999999N008000199+01801+01701101621ADDAY111021AY211021GA1021+999999031GE19AGL   +99999+99999GF102991021999999999999999MA1999999096911MD1610041-0131MW1101REMSYN07048304 31958 20000 10180 20170 39691 40162 56004 71011 82040 333 59013=
0197483040999992016010321004+19867+099767FM-12+040199999V0209999C000019999999N007000199+01671+01581101541ADDAY101021AY201021GA1021+999999031GE19AGL   +99999+99999GF102991021999999999999999MA1999999096811MD1710101-0121MW1101REMSYN07048304 31957 20000 10167 20158 39681 40154 57010 71000 82040 333 59012=
0248483040999992016010400004+19867+099767FM-12+040199999V0209999C000019999999N000200199+01581+01541101711ADDAY141021AY211021GA1021+012501061GA2999+999999031GA3999+999999021GE19AGL   +99999+99999GF105991021999012501999999KA1120N+01541MA1999999096961MD1210141-0191MW1461REMSYN07648304 31602 50000 10158 20154 39696 40171 52014 74641 82546 333 20154 59019=
0197483040999992016010403004+19867+099767FM-12+040199999V0209999C000019999999N012000199+02201+01821101831ADDAY141021AY241021GA1011+008001081GE19AGL   +99999+99999GF101991011999008001999999MA1999999097171MD1210221-0101MW1011REMSYN07048304 31562 10000 10220 20182 39717 40183 52022 70144 81200 333 59010=
0197483040999992016010406004+19867+099767FM-12+040199999V0209999C000019999999N015000199+02761+01531101401ADDAY141021AY241021GA1011+008001081GE19AGL   +99999+99999GF101991011999008001999999MA1999999096851MD1710321-0121MW1011REMSYN07048304 31565 10000 10276 20153 39685 40140 57032 70144 81200 333 59012=
0169483040999992016010409004+19867+099767FM-12+040199999V0209999C000019999999N015000199+02961+01591101071ADDGA1021+012501081GE19AGL   +99999+99999GF102991021999012501999999MA1999999096561MD1710291-0111REMSYN06448304 32665 20000 10296 20159 39656 40107 57029 82200 333 59011=
0144483040999992016010412004+19867+099767FM-12+040199999V0209999C000019999999N012000199+02071+01671101361ADDGF100995999999999999999999KA1240M+03001MA1999999096701MD1210141-0011REMSYN06448304 32962 00000 10207 20167 39670 40136 52014 333 10300 59001=
0125483040999992016010415004+19867+099767FM-12+040199999V0209999C000019999999N010000199+01801+01651101601ADDGF100995999999999999999999MA1999999096891MD1210191-0021REMSYN05848304 32960 00000 10180 20165 39689 40160 52019 333 59002=
0125483040999992016010418004+19867+099767FM-12+040199999V0209999C000019999999N010000199+01551+01461101691ADDGF100995999999999999999999MA1999999096941MD1110041+0071REMSYN05848304 32960 00000 10155 20146 39694 40169 51004 333 58007=
0153483040999992016010421004+19867+099767FM-12+040199999V0209999C000019999999N007000199+01421+01351101581ADDAY101021AY201021GF100995999999999999999999MA1999999096811MD1710131+0041MW1101REMSYN06448304 31957 00000 10142 20135 39681 40158 57013 71000 333 58004=
0172483040999992016010500004+19867+099767FM-12+040199999V0209999C000019999999N009000199+01291+01231101801ADDAY101021AY201021GF100995999999999999999999KA1120N+01251MA1999999097001MD1210191+0101MW1101REMSYN07048304 31959 00000 10129 20123 39700 40180 52019 71000 333 20125 58010=
0125483040999992016010503004+19867+099767FM-12+040199999V0209999C000019999999N015000199+02071+01511101871ADDGF100995999999999999999999MA1999999097191MD1210191+0041REMSYN05848304 32965 00000 10207 20151 39719 40187 52019 333 58004=
0125483040999992016010506004+19867+099767FM-12+040199999V0203401N001019999999N015000199+02691+01481101421ADDGF100995999999999999999999MA1999999096861MD1710331+0021REMSYN05848304 32965 03402 10269 20148 39686 40142 57033 333 58002=
0125483040999992016010509004+19867+099767FM-12+040199999V0209999C000019999999N015000199+02861+01351101081ADDGF100995999999999999999999MA1999999096561MD1710301+0011REMSYN05848304 32965 00000 10286 20135 39656 40108 57030 333 58001=
0144483040999992016010512004+19867+099767FM-12+040199999V0209999C000019999999N015000199+02011+01541101381ADDGF100995999999999999999999KA1240M+02871MA1999999096711MD1210161+0031REMSYN06448304 32965 00000 10201 20154 39671 40138 52016 333 10287 58003=
0125483040999992016010515004+19867+099767FM-12+040199999V0209999C000019999999N012000199+01681+01521101681ADDGF100995999999999999999999MA1999999096951MD1210231+0081REMSYN05848304 32962 00000 10168 20152 39695 40168 52023 333 58008=
0125483040999992016010518004+19867+099767FM-12+040199999V0209999C000019999999N010000199+01481+01391101681ADDGF100995999999999999999999MA1999999096911MD1610041-0011REMSYN05848304 32960 00000 10148 20139 39691 40168 56004 333 59001=
0153483040999992016010521004+19867+099767FM-12+040199999V0209999C000019999999N008000199+01301+01211101671ADDAY101021AY201021GF100995999999999999999999MA1999999096881MD1610041+0091MW1101REMSYN06448304 31958 00000 10130 20121 39688 40167 56004 71000 333 58009=
0172483040999992016010600004+19867+099767FM-12+040199999V0209999C000019999999N007000199+01211+01111101871ADDAY101021AY201021GF100995999999999999999999KA1120N+01161MA1999999097051MD1210181+0071MW1101REMSYN07048304 31957 00000 10121 20111 39705 40187 52018 71000 333 20116 58007=
0125483040999992016010603004+19867+099767FM-12+040199999V0209999C000019999999N012000199+01901+01451101941ADDGF100995999999999999999999MA1999999097231MD1210181+0081REMSYN05848304 32962 00000 10190 20145 39723 40194 52018 333 58008=
0125483040999992016010606004+19867+099767FM-12+040199999V0209999C000019999999N015000199+02601+01531101521ADDGF100995999999999999999999MA1999999096941MD1710301+0101REMSYN05848304 32965 00000 10260 20153 39694 40152 57030 333 58010=
0125483040999992016010609004+19867+099767FM-12+040199999V0209999C000019999999N015000199+02831+01461101191ADDGF100995999999999999999999MA1999999096651MD1710281+0111REMSYN05848304 32965 00000 10283 20146 39665 40119 57028 333 58011=
0144483040999992016010612004+19867+099767FM-12+040199999V0209999C000019999999N015000199+02051+01671101371ADDGF100995999999999999999999KA1240M+02851MA1999999096711MD1210061-0011REMSYN06448304 32965 00000 10205 20167 39671 40137 52006 333 10285 59001=
0125483040999992016010615004+19867+099767FM-12+040199999V0209999C000019999999N012000199+01611+01491101661ADDGF100995999999999999999999MA1999999096921MD1210211-0021REMSYN05848304 32962 00000 10161 20149 39692 40166 52021 333 59002=
0125483040999992016010618004+19867+099767FM-12+040199999V0209999C000019999999N010000199+01391+01321101681ADDGF100995999999999999999999MA1999999096901MD1710021+0011REMSYN05848304 32960 00000 10139 20132 39690 40168 57002 333 58001=
0125483040999992016010621004+19867+099767FM-12+040199999V0209999C000019999999N010000199+01271+01231101671ADDGF100995999999999999999999MA1999999096871MD1710031+0001REMSYN05848304 32960 00000 10127 20123 39687 40167 57003 333 58000=
0207483040999992016010700004+19867+099767FM-12+040199999V0209999C000019999999N010000199+01171+01131101901ADDGA1999+999999001GE19AGL   +99999+99999GF102991001999999999999999KA1120N+01151MA1999999097071MD1210201+0031REMSYN07048304 32960 20000 10117 20113 39707 40190 52020 80001 333 20115 58003=EQDQ01    003SCCGA1
0188483040999992016010703004+19867+099767FM-12+040199999V0209999C000019999999N012000199+01941+01461101911ADDGA1999+999999001GE19AGL   +99999+99999GF102991001999999999999999MA1999999097211MD1210141-0031REMSYN06448304 32962 20000 10194 20146 39721 40191 52014 80001 333 59003=EQDQ01    003SCCGA1
0188483040999992016010706004+19867+099767FM-12+040199999V0209999C000019999999N015000199+02601+01491101481ADDGA1999+999999001GE19AGL   +99999+99999GF105991001999999999999999MA1999999096901MD1710311-0041REMSYN06448304 32965 50000 10260 20149 39690 40148 57031 80001 333 59004=EQDQ01    003SCCGA1
0188483040999992016010709004+19867+099767FM-12+040199999V0209999C000019999999N015000199+02781+01621101251ADDGA1999+999999021GE19AGL   +99999+99999GF105991001999999999999999MA1999999096701MD1710201+0061REMSYN06448304 32965 50000 10278 20162 39670 40125 57020 80006 333 58006=EQDQ01    003SCCGA1
0207483040999992016010712004+19867+099767FM-12+040199999V0209999C000019999999N012000199+01931+01581101431ADDGA1999+999999001GE19AGL   +99999+99999GF103991001999999999999999KA1240M+02831MA1999999096751MD1210051+0061REMSYN07048304 32962 30000 10193 20158 39675 40143 52005 80001 333 10283 58006=EQDQ01    003SCCGA1
0188483040999992016010715004+19867+099767FM-12+040199999V0209999C000019999999N012000199+01581+01441101621ADDGA1999+999999001GE19AGL   +99999+99999GF102991001999999999999999MA1999999096881MD1210131-0041REMSYN06448304 32962 20000 10158 20144 39688 40162 52013 80001 333 59004=EQDQ01    003SCCGA1
0125483040999992016010718004+19867+099767FM-12+040199999V0209999C000019999999N010000199+01431+01361101621ADDGF100995999999999999999999MA1999999096851MD1710021-0061REMSYN05848304 32960 00000 10143 20136 39685 40162 57002 333 59006=
0153483040999992016010721004+19867+099767FM-12+040199999V0209999C000019999999N004000199+01311+01251101571ADDAY101021AY201021GF100995999999999999999999MA1999999096781MD1710081-0101MW1101REMSYN06448304 31940 00000 10131 20125 39678 40157 57008 71000 333 59010=
0235483040999992016010800004+19867+099767FM-12+040199999V0209999C000019999999N004000199+01241+01181101691ADDAY101021AY201021GA1999+999999001GE19AGL   +99999+99999GF102991001999999999999999KA1120N+01181MA1999999096891MD1210111-0211MW1101REMSYN07648304 31940 20000 10124 20118 39689 40169 52011 71000 80001 333 20118 59021=EQDQ01    003SCCGA1
0216483040999992016010803004+19867+099767FM-12+040199999V0209999C000019999999N008000199+01971+01581101841ADDAY101021AY201021GA1999+999999001GE19AGL   +99999+99999GF102991001999999999999999MA1999999097141MD1210261-0081MW1101REMSYN07048304 31958 20000 10197 20158 39714 40184 52026 71000 80001 333 59008=EQDQ01    003SCCGA1
0188483040999992016010806004+19867+099767FM-12+040199999V0201401N001519999999N015000199+02681+01491101371ADDGA1999+999999001GE19AGL   +99999+99999GF102991001999999999999999MA1999999096801MD1710341-0111REMSYN06448304 32965 21403 10268 20149 39680 40137 57034 80001 333 59011=EQDQ01    003SCCGA1
0185483040999992016010809004+19867+099767FM-12+040199999V0200701N001519999999N015000199+02931+01241101031ADDGA1011+008001061GA2999+999999001GE19AGL   +99999+99999GF103991011999008001999999MA1999999096511MD1710291-0221REMSYN06448304 32565 30703 10293 20124 39651 40103 57029 81501 333 59022=
0194483040999992016010812004+19867+099767FM-12+040199999V0209999C000019999999N015000199+02001+01491101171ADDGA1999+999999001GE19AGL   +99999+99999GF102991001999999999999999MA1999999096521MD1410001-0251REMSYN07048304 32965 20000 10200 20149 39652 40117 54000 80001 333 10294 59025=EQDQ01    003SCCGA1
0125483040999992016010815004+19867+099767FM-12+040199999V0209999C000019999999N012000199+01751+01561101371ADDGF100995999999999999999999MA1999999096671MD1210151-0251REMSYN05848304 32962 00000 10175 20156 39667 40137 52015 333 59025=
0125483040999992016010818004+19867+099767FM-12+040199999V0209999C000019999999N010000199+01541+01431101371ADDGF100995999999999999999999MA1999999096631MD1610041-0261REMSYN05848304 32960 00000 10154 20143 39663 40137 56004 333 59026=
0153483040999992016010821004+19867+099767FM-12+040199999V0209999C000019999999N008000199+01401+01311101331ADDAY101021AY201021GF100995999999999999999999MA1999999096571MD1710061-0241MW1101REMSYN06448304 31958 00000 10140 20131 39657 40133 57006 71000 333 59024=
0235483040999992016010900004+19867+099767FM-12+040199999V0209999C000019999999N007000199+01261+01181101481ADDAY101021AY201021GA1999+999999021GE19AGL   +99999+99999GF102991001999999999999999KA1120N+01211MA1999999096691MD1210121-0211MW1101REMSYN07648304 31957 20000 10126 20118 39669 40148 52012 71000 80005 333 20121 59021=EQDQ01    003SCCGA1
0188483040999992016010903004+19867+099767FM-12+040199999V0209999C000019999999N015000199+01851+01471101601ADDGA1999+999999021GE19AGL   +99999+99999GF105991001999999999999999MA1999999096901MD1210211-0241REMSYN06448304 32965 50000 10185 20147 39690 40160 52021 80007 333 59024=EQDQ01    003SCCGA1
0188483040999992016010906004+19867+099767FM-12+040199999V0209999C000019999999N015000199+02601+01341101221ADDGA1999+999999021GE19AGL   +99999+99999GF106991001999999999999999MA1999999096651MD1710251-0151REMSYN06448304 32965 60000 10260 20134 39665 40122 57025 80007 333 59015=EQDQ01    003SCCGA1
0188483040999992016010909004+19867+099767FM-12+040199999V0200301N001519999999N015000199+02731+01321100951ADDGA1999+999999021GE19AGL   +99999+99999GF106991001999999999999999MA1999999096411MD1710241-0081REMSYN06448304 32965 60303 10273 20132 39641 40095 57024 80007 333 59008=EQDQ01    003SCCGA1
0207483040999992016010912004+19867+099767FM-12+040199999V0209999C000019999999N012000199+02001+01541101201ADDGA1999+999999021GE19AGL   +99999+99999GF106991001999999999999999KA1240M+02751MA1999999096541MD1210131+0021REMSYN07048304 32962 60000 10200 20154 39654 40120 52013 80007 333 10275 58002=EQDQ01    003SCCGA1
0188483040999992016010915004+19867+099767FM-12+040199999V0209999C000019999999N010000199+01621+01461101431ADDGA1999+999999021GE19AGL   +99999+99999GF105991001999999999999999MA1999999096701MD1210171+0061REMSYN06448304 32960 50000 10162 20146 39670 40143 52017 80007 333 58006=EQDQ01    003SCCGA1
0216483040999992016010918004+19867+099767FM-12+040199999V0209999C000019999999N007000199+01421+01311101501ADDAY121021AY211021GA1999+999999021GE19AGL   +99999+99999GF103991001999999999999999MA1999999096741MD1210041+0141MW1101REMSYN07048304 31957 30000 10142 20131 39674 40150 52004 71021 80007 333 58014=EQDQ01    003SCCGA1
0153483040999992016010921004+19867+099767FM-12+040199999V0209999C000019999999N006000199+01291+01201101481ADDAY101021AY201021GF100995999999999999999999MA1999999096701MD1710041+0161MW1101REMSYN06448304 31956 00000 10129 20120 39670 40148 57004 71000 333 58016=
0232483040999992016011000004+19867+099767FM-12+040199999V0209999C000019999999N005000199+01111+01051101691ADDAY101021AY201021GA1011+012501061GA2999+999999021GE19AGL   +99999+99999GF103991011999012501999999KA1120N+01061MA1999999096861MD1210161+0211MW1101REMSYN07648304 31650 30000 10111 20105 39686 40169 52016 71000 81506 333 20106 58021=
0188483040999992016011003004+19867+099767FM-12+040199999V0209999C000019999999N013000199+01951+01531101611ADDGA1999+999999021GE19AGL   +99999+99999GF103991001999999999999999MA1999999096921MD1210061+0011REMSYN06448304 32963 30000 10195 20153 39692 40161 52006 80006 333 58001=EQDQ01    003SCCGA1
0169483040999992016011006004+19867+099767FM-12+040199999V0201001N002119999999N015000199+02681+01401101541ADDGA1021+008001061GE19AGL   +99999+99999GF102991021999008001999999MA1999999096961MD1210041+0321REMSYN06448304 32565 21004 10268 20140 39696 40154 52004 82500 333 58032=
0188483040999992016011009004+19867+099767FM-12+040199999V0203401N001019999999N015000199+02771+01401101021ADDGA1999+999999021GE19AGL   +99999+99999GF102991001999999999999999MA1999999096481MD1710481+0071REMSYN06448304 32965 23402 10277 20140 39648 40102 57048 80005 333 58007=EQDQ01    003SCCGA1
0207483040999992016011012004+19867+099767FM-12+040199999V0209999C000019999999N012000199+01961+01541101331ADDGA1999+999999021GE19AGL   +99999+99999GF102991001999999999999999KA1240M+02781MA1999999096661MD1210181+0141REMSYN07048304 32962 20000 10196 20154 39666 40133 52018 80005 333 10278 58014=EQDQ01    003SCCGA1
0125483040999992016011015004+19867+099767FM-12+040199999V0209999C000019999999N012000199+01481+01351101611ADDGF100995999999999999999999MA1999999096851MD1210191+0181REMSYN05848304 32962 00000 10148 20135 39685 40161 52019 333 58018=
0125483040999992016011018004+19867+099767FM-12+040199999V0209999C000019999999N012000199+01161+01081101651ADDGF100995999999999999999999MA1999999096841MD1710021+0151REMSYN05848304 32962 00000 10116 20108 39684 40165 57002 333 58015=
0153483040999992016011021004+19867+099767FM-12+040199999V0209999C000019999999N004000199+01071+01011101601ADDAY101021AY201021GF100995999999999999999999MA1999999096771MD1710061+0111MW1101REMSYN06448304 31940 00000 10107 20101 39677 40160 57006 71000 333 58011=
0235483040999992016011100004+19867+099767FM-12+040199999V0209999C000019999999N002000199+00951+00911101721ADDAY101021AY201021GA1999+999999001GE19AGL   +99999+99999GF102991001999999999999999KA1120N+00921MA1999999096871MD1210101+0031MW1101REMSYN07648304 31920 20000 10095 20091 39687 40172 52010 71000 80001 333 20092 58003=EQDQ01    003SCCGA1
0216483040999992016011103004+19867+099767FM-12+040199999V0209999C000019999999N008000199+01661+01181101871ADDAY111021AY211021GA1999+999999001GE19AGL   +99999+99999GF104991001999999999999999MA1999999097131MD1210261+0261MW1101REMSYN07048304 31958 40000 10166 20118 39713 40187 52026 71011 80001 333 58026=EQDQ01    003SCCGA1
0188483040999992016011106004+19867+099767FM-12+040199999V0209999C000019999999N015000199+02351+01201101501ADDGA1999+999999001GE19AGL   +99999+99999GF104991001999999999999999MA1999999096881MD1710251-0041REMSYN06448304 32965 40000 10235 20120 39688 40150 57025 80001 333 59004=EQDQ01    003SCCGA1
0188483040999992016011109004+19867+099767FM-12+040199999V0201201N002119999999N015000199+02551+01141101241ADDGA1999+999999001GE19AGL   +99999+99999GF105991001999999999999999MA1999999096661MD1710221+0221REMSYN06448304 32965 51204 10255 20114 39666 40124 57022 80001 333 58022=EQDQ01    003SCCGA1
0220483040999992016011112004+19867+099767FM-12+040199999V0209999C000019999999N015000199+01741+01231101381ADDGA1021+008001061GA2999+999999031GA3999+999999021GE19AGL   +99999+99999GF106991021999008001999999KA1240M+02591MA1999999096671MD1990011+0051REMSYN07048304 32565 60000 10174 20123 39667 40138 50001 82546 333 10259 58005=
0188483040999992016011115004+19867+099767FM-12+040199999V0209999C000019999999N012000199+01381+01231101661ADDGA1999+999999001GE19AGL   +99999+99999GF103991001999999999999999MA1999999096881MD1210211+0051REMSYN06448304 32962 30000 10138 20123 39688 40166 52021 80001 333 58005=EQDQ01    003SCCGA1
0188483040999992016011118004+19867+099767FM-12+040199999V0209999C000019999999N010000199+01161+01081101661ADDGA1999+999999001GE19AGL   +99999+99999GF102991001999999999999999MA1999999096841MD1710041+0011REMSYN06448304 32960 20000 10116 20108 39684 40166 57004 80001 333 58001=EQDQ01    003SCCGA1
0153483040999992016011121004+19867+099767FM-12+040199999V0209999C000019999999N002000199+01041+00981101621ADDAY101021AY201021GF100995999999999999999999MA1999999096791MD1710061+0021MW1101REMSYN06448304 31920 00000 10104 20098 39679 40162 57006 71000 333 58002=
0235483040999992016011200004+19867+099767FM-12+040199999V0209999C000019999999N002000199+00971+00931101761ADDAY101021AY201021GA1999+999999001GE19AGL   +99999+99999GF102991001999999999999999KA1120N+00931MA1999999096911MD1210121+0041MW1101REMSYN07648304 31920 20000 10097 20093 39691 40176 52012 71000 80001 333 20093 58004=EQDQ01    003SCCGA1
0216483040999992016011203004+19867+099767FM-12+040199999V0209999C000019999999N008000199+01701+01311101871ADDAY111021AY211021GA1999+999999001GE19AGL   +99999+99999GF105991001999999999999999MA1999999097131MD1210221+0001MW1101REMSYN07048304 31958 50000 10170 20131 39713 40187 52022 71011 80001 333 58000=EQDQ01    003SCCGA1
0188483040999992016011206004+19867+099767FM-12+040199999V0209999C000019999999N015000199+02351+01201101441ADDGA1999+999999001GE19AGL   +99999+99999GF103991001999999999999999MA1999999096821MD1710311-0061REMSYN06448304 32965 30000 10235 20120 39682 40144 57031 80001 333 59006=EQDQ01    003SCCGA1
0188483040999992016011209004+19867+099767FM-12+040199999V0209999C000019999999N015000199+02601+01141101141ADDGA1999+999999001GE19AGL   +99999+99999GF102991001999999999999999MA1999999096581MD1710251-0091REMSYN06448304 32965 20000 10260 20114 39658 40114 57025 80001 333 59009=EQDQ01    003SCCGA1
0144483040999992016011212004+19867+099767FM-12+040199999V0209999C000019999999N015000199+01861+01331101291ADDGF100995999999999999999999KA1240M+02621MA1999999096601MD1210031-0091REMSYN06448304 32965 00000 10186 20133 39660 40129 52003 333 10262 59009=
0125483040999992016011215004+19867+099767FM-12+040199999V0209999C000019999999N012000199+01501+01301101511ADDGF100995999999999999999999MA1999999096761MD1210151-0151REMSYN05848304 32962 00000 10150 20130 39676 40151 52015 333 59015=
0125483040999992016011218004+19867+099767FM-12+040199999V0209999C000019999999N010000199+01321+01211101561ADDGF100995999999999999999999MA1999999096771MD1210021-0111REMSYN05848304 32960 00000 10132 20121 39677 40156 52002 333 59011=
0153483040999992016011221004+19867+099767FM-12+040199999V0209999C000019999999N007000199+01151+01051101501ADDAY101021AY201021GF100995999999999999999999MA1999999096691MD1710081-0121MW1101REMSYN06448304 31957 00000 10115 20105 39669 40150 57008 71000 333 59012=
0235483040999992016011300004+19867+099767FM-12+040199999V0209999C000019999999N006000199+00991+00931101671ADDAY101021AY201021GA1999+999999001GE19AGL   +99999+99999GF101991001999999999999999KA1120N+00961MA1999999096831MD1210141-0091MW1101REMSYN07648304 31956 10000 10099 20093 39683 40167 52014 71000 80002 333 20096 59009=EQDQ01    003SCCGA1
0169483040999992016011303004+19867+099767FM-12+040199999V0209999C000019999999N010000199+01791+01291101771ADDGA1021+999999031GE19AGL   +99999+99999GF102991021999999999999999MA1999999097051MD1210231-0101REMSYN06448304 32960 20000 10179 20129 39705 40177 52023 82040 333 59010=
0201483040999992016011306004+19867+099767FM-12+040199999V0209999C000019999999N013000199+02461+01311101311ADDGA1011+012501081GA2999+999999031GA3999+999999021GE19AGL   +99999+99999GF102991011999012501999999MA1999999096721MD1710341-0131REMSYN06448304 32663 20000 10246 20131 39672 40131 57034 81145 333 59013=
0169483040999992016011309004+19867+099767FM-12+040199999V0209999C000019999999N015000199+02671+01501100991ADDGA1011+012501081GE19AGL   +99999+99999GF101991011999012501999999MA1999999096441MD1710281-0151REMSYN06448304 32665 10000 10267 20150 39644 40099 57028 81100 333 59015=
0220483040999992016011312004+19867+099767FM-12+040199999V0209999C000019999999N012000199+02101+01721101161ADDGA1021+012501061GA2999+999999031GA3999+999999021GE19AGL   +99999+99999GF104991021999012501999999KA1240M+02711MA1999999096521MD1210081-0121REMSYN07048304 32662 40000 10210 20172 39652 40116 52008 82546 333 10271 59012=
0169483040999992016011315004+19867+099767FM-12+040199999V0209999C000019999999N012000199+01741+01531101401ADDGA1021+008001081GE19AGL   +99999+99999GF102991021999008001999999MA1999999096691MD1210171-0101REMSYN06448304 32562 20000 10174 20153 39669 40140 52017 82200 333 59010=
0153483040999992016011318004+19867+099767FM-12+040199999V0209999C000019999999N008000199+01621+01521101371ADDAY101021AY201021GF100995999999999999999999MA1999999096641MD1610051-0191MW1101REMSYN06448304 31958 00000 10162 20152 39664 40137 56005 71000 333 59019=
0153483040999992016011321004+19867+099767FM-12+040199999V0209999C000019999999N007000199+01501+01411101321ADDAY101021AY201021GF100995999999999999999999MA1999999096571MD1710071-0181MW1101REMSYN06448304 31957 00000 10150 20141 39657 40132 57007 71000 333 59018=
0248483040999992016011400004+19867+099767FM-12+040199999V0209999C000019999999N007000199+01411+01341101461ADDAY111021AY201021GA1021+012501061GA2999+999999031GA3999+999999021GE19AGL   +99999+99999GF105991021999012501999999KA1120N+01381MA1999999096691MD1210121-0211MW1101REMSYN07648304 31657 50000 10141 20134 39669 40146 52012 71010 82546 333 20138 59021=
0201483040999992016011403004+19867+099767FM-12+040199999V0209999C000019999999N012000199+01901+01651101601ADDGA1021+012501081GA2999+999999031GA3999+999999021GE19AGL   +99999+99999GF106991021999012501999999MA1999999096911MD1210211-0171REMSYN06448304 32662 60000 10190 20165 39691 40160 52021 82146 333 59017=
0201483040999992016011406004+19867+099767FM-12+040199999V0209999C000019999999N015000199+02661+01661101091ADDGA1011+008001081GA2999+999999031GA3999+999999021GE19AGL   +99999+99999GF106991011999008001999999MA1999999096531MD1710371-0221REMSYN06448304 32565 60000 10266 20166 39653 40109 57037 81247 333 59022=
0201483040999992016011409004+19867+099767FM-12+040199999V0209999C000019999999N015000199+02871+01751100831ADDGA1011+008001081GA2999+999999031GA3999+999999021GE19AGL   +99999+99999GF106991011999008001999999MA1999999096311MD1710221-0161REMSYN06448304 32565 60000 10287 20175 39631 40083 57022 81247 333 59016=
0204483040999992016011412004+19867+099767FM-12+040199999V0209999C000019999999N015000199+02291+01991100981ADDGA1021+012501061GA2999+999999021GE19AGL   +99999+99999GF102991021999012501999999KA1240M+02941MA1999999096371MD1210061-0191REMSYN07048304 32665 20000 10229 20199 39637 40098 52006 82505 333 10294 59019=
0125483040999992016011415004+19867+099767FM-12+040199999V0209999C000019999999N012000199+01901+01741101161ADDGF100995999999999999999999MA1999999096491MD1210111-0241REMSYN05848304 32962 00000 10190 20174 39649 40116 52011 333 59024=
0125483040999992016011418004+19867+099767FM-12+040199999V0209999C000019999999N010000199+01581+01471101171ADDGF100995999999999999999999MA1999999096451MD1710041-0201REMSYN05848304 32960 00000 10158 20147 39645 40117 57004 333 59020=
0153483040999992016011421004+19867+099767FM-12+040199999V0209999C000019999999N002000199+01471+01421101091ADDAY101021AY201021GF100995999999999999999999MA1999999096351MD1710101-0231MW1101REMSYN06448304 31920 00000 10147 20142 39635 40109 57010 71000 333 59023=
0235483040999992016011500004+19867+099767FM-12+040199999V0209999C000019999999N002000199+01321+01281101251ADDAY101021AY201021GA1999+999999001GE19AGL   +99999+99999GF102991001999999999999999KA1120N+01271MA1999999096481MD1210131-0211MW1101REMSYN07648304 31920 20000 10132 20128 39648 40125 52013 71000 80001 333 20127 59021=EQDQ01    003SCCGA1
0216483040999992016011503004+19867+099767FM-12+040199999V0209999C000019999999N008000199+02201+01621101321ADDAY101021AY201021GA1999+999999001GE19AGL   +99999+99999GF102991001999999999999999MA1999999096681MD1210211-0281MW1101REMSYN07048304 31958 20000 10220 20162 39668 40132 52021 71000 80001 333 59028=EQDQ01    003SCCGA1
0185483040999992016011506004+19867+099767FM-12+040199999V0209999C000019999999N015000199+02951+01391100821ADDGA1011+008001061GA2999+999999001GE19AGL   +99999+99999GF103991011999008001999999MA1999999096321MD1710371-0271REMSYN06448304 32565 30000 10295 20139 39632 40082 57037 81501 333 59027=
0185483040999992016011509004+19867+099767FM-12+040199999V0203201N001519999999N015000199+02981+01251100621ADDGA1021+008001061GA2999+999999001GE19AGL   +99999+99999GF102991021999008001999999MA1999999096131MD1710181-0201REMSYN06448304 32565 23203 10298 20125 39613 40062 57018 82501 333 59020=
0144483040999992016011512004+19867+099767FM-12+040199999V0209999C000019999999N015000199+02181+01651100841ADDGF100995999999999999999999KA1240M+03101MA1999999096231MD1210091-0131REMSYN06448304 32965 00000 10218 20165 39623 40084 52009 333 10310 59013=
0125483040999992016011515004+19867+099767FM-12+040199999V0209999C000019999999N012000199+01681+01511101071ADDGF100995999999999999999999MA1999999096371MD1210141-0091REMSYN05848304 32962 00000 10168 20151 39637 40107 52014 333 59009=
0125483040999992016011518004+19867+099767FM-12+040199999V0209999C000019999999N010000199+01321+01231101121ADDGF100995999999999999999999MA1999999096361MD1710011-0051REMSYN05848304 32960 00000 10132 20123 39636 40112 57001 333 59005=
0153483040999992016011521004+19867+099767FM-12+040199999V0209999C000019999999N004000199+01181+01121101071ADDAY101021AY201021GF100995999999999999999999MA1999999096291MD1710071-0011MW1101REMSYN06448304 31940 00000 10118 20112 39629 40107 57007 71000 333 59001=
0235483040999992016011600004+19867+099767FM-12+040199999V0209999C000019999999N002000199+01091+01051101191ADDAY101021AY201021GA1999+999999001GE19AGL   +99999+99999GF102991001999999999999999KA1120N+01001MA1999999096391MD1210101-0061MW1101REMSYN07648304 31920 20000 10109 20105 39639 40119 52010 71000 80001 333 20100 59006=EQDQ01    003SCCGA1
0216483040999992016011603004+19867+099767FM-12+040199999V0209999C000019999999N006000199+02051+01541101301ADDAY101021AY201021GA1999+999999001GE19AGL   +99999+99999GF102991001999999999999999MA1999999096641MD1210251-0021MW1101REMSYN07048304 31956 20000 10205 20154 39664 40130 52025 71000 80001 333 59002=EQDQ01    003SCCGA1
0169483040999992016011606004+19867+099767FM-12+040199999V0202401N001519999999N015000199+02781+01191100871ADDGA1021+008001061GE19AGL   +99999+99999GF102991021999008001999999MA1999999096341MD1710291+0051REMSYN06448304 32565 22403 10278 20119 39634 40087 57029 82500 333 58005=
0125483040999992016011609004+19867+099767FM-12+040199999V0209999C000019999999N015000199+02921+01031100561ADDGF100995999999999999999999MA1999999096071MD1710281-0061REMSYN05848304 32965 00000 10292 20103 39607 40056 57028 333 59006=
0131483040999992016011612004+19867+099767FM-12+040199999V0209999C000019999999N015000199+01921+01341100821ADDGF100995999999999999999999MA1999999096161MD1210101-0031REMSYN06448304 32965 00000 10192 20134 39616 40082 52010 333 10296 59003=
0125483040999992016011615004+19867+099767FM-12+040199999V0209999C000019999999N012000199+01521+01361101141ADDGF100995999999999999999999MA1999999096411MD1210251+0081REMSYN05848304 32962 00000 10152 20136 39641 40114 52025 333 58008=
0153483040999992016011618004+19867+099767FM-12+040199999V0209999C000019999999N004000199+01191+01091101181ADDAY101021AY201021GF100995999999999999999999MA1999999096391MD1710021+0061MW1101REMSYN06448304 31940 00000 10119 20109 39639 40118 57002 71000 333 58006=
0153483040999992016011621004+19867+099767FM-12+040199999V0209999C000019999999N002000199+01041+01001101161ADDAY101021AY201021GF100995999999999999999999MA1999999096351MD1710041+0091MW1101REMSYN06448304 31920 00000 10104 20100 39635 40116 57004 71000 333 58009=
0172483040999992016011700004+19867+099767FM-12+040199999V0209999C000019999999N004000199+00981+00921101381ADDAY101021AY201021GF100995999999999999999999KA1120N+00941MA1999999096551MD1210201+0191MW1101REMSYN07048304 31940 00000 10098 20092 39655 40138 52020 71000 333 20094 58019=
0125483040999992016011703004+19867+099767FM-12+040199999V0200601N001519999999N015000199+01961+01311101471ADDGF100995999999999999999999MA1999999096791MD1210241+0171REMSYN05848304 32965 00603 10196 20131 39679 40147 52024 333 58017=
0185483040999992016011706004+19867+099767FM-12+040199999V0209999C000019999999N015000199+02702+01071101071ADDGA1021+008001061GA2999+999999001GE19AGL   +99999+99999GF103991021999008001999999MA1999999096521MD1710271+0191REMSYN06448304 32565 30000 10270 20107 39652 40107 57027 82501 333 58019=
0188483040999992016011709004+19867+099767FM-12+040199999V0209999C000019999999N015000199+02701+01121100791ADDGA1999+999999001GE19AGL   +99999+99999GF102991001999999999999999MA1999999096261MD1710261+0231REMSYN06448304 32965 20000 10270 20112 39626 40079 57026 80001 333 58023=EQDQ01    003SCCGA1
0207483040999992016011712004+19867+099767FM-12+040199999V0209999C000019999999N015000199+01801+01201100981ADDGA1999+999999001GE19AGL   +99999+99999GF103991001999999999999999KA1240M+02711MA1999999096301MD1210041+0161REMSYN07048304 32965 30000 10180 20120 39630 40098 52004 80001 333 10271 58016=EQDQ01    003SCCGA1
0125483040999992016011715004+19867+099767FM-12+040199999V0209999C000019999999N012000199+01501+01261101271ADDGF100995999999999999999999MA1999999096531MD1210231+0121REMSYN05848304 32962 00000 10150 20126 39653 40127 52023 333 58012=
0125483040999992016011718004+19867+099767FM-12+040199999V0209999C000019999999N010000199+01261+01161101281ADDGF100995999999999999999999MA1999999096501MD1610031+0101REMSYN05848304 32960 00000 10126 20116 39650 40128 56003 333 58010=
0153483040999992016011721004+19867+099767FM-12+040199999V0209999C000019999999N008000199+01081+01001101241ADDAY101021AY201021GF100995999999999999999999MA1999999096431MD1710071+0081MW1101REMSYN06448304 31958 00000 10108 20100 39643 40124 57007 71000 333 58008=
0235483040999992016011800004+19867+099767FM-12+040199999V0209999C000019999999N007000199+00911+00831101551ADDAY111021AY201021GA1999+999999021GE19AGL   +99999+99999GF105991001999999999999999KA1120N+00871MA1999999096701MD1210271+0171MW1101REMSYN07648304 31957 50000 10091 20083 39670 40155 52027 71010 80007 333 20087 58017=EQDQ01    003SCCGA1
0188483040999992016011803004+19867+099767FM-12+040199999V0209999C000019999999N012000199+01591+01121101561ADDGA1999+999999021GE19AGL   +99999+99999GF105991001999999999999999MA1999999096811MD1210111+0091REMSYN06448304 32962 50000 10159 20112 39681 40156 52011 80007 333 58009=EQDQ01    003SCCGA1
0169483040999992016011806004+19867+099767FM-12+040199999V0209999C000019999999N010000199+02321+01141101191ADDGA1011+012501081GE19AGL   +99999+99999GF101991011999012501999999MA1999999096581MD1710231+0131REMSYN06448304 32660 10000 10232 20114 39658 40119 57023 81100 333 58013=
0125483040999992016011809004+19867+099767FM-12+040199999V0209999C000019999999N015000199+02711+01041100821ADDGF100995999999999999999999MA1999999096281MD1710301+0021REMSYN05848304 32965 00000 10271 20104 39628 40082 57030 333 58002=
0144483040999992016011812004+19867+099767FM-12+040199999V0209999C000019999999N010000199+02031+01291100991ADDGF100995999999999999999999KA1240M+02741MA1999999096341MD1110061+0011REMSYN06448304 32960 00000 10203 20129 39634 40099 51006 333 10274 58001=
0125483040999992016011815004+19867+099767FM-12+040199999V0209999C000019999999N012000199+01591+01321101331ADDGF100995999999999999999999MA1999999096601MD1210261+0071REMSYN05848304 32962 00000 10159 20132 39660 40133 52026 333 58007=
0153483040999992016011818004+19867+099767FM-12+040199999V0209999C000019999999N008000199+01311+01201101341ADDAY101021AY201021GF100995999999999999999999MA1999999096571MD1610041+0061MW1101REMSYN06448304 31958 00000 10131 20120 39657 40134 56004 71000 333 58006=
0153483040999992016011821004+19867+099767FM-12+040199999V0209999C000019999999N006000199+01101+01001101291ADDAY101021AY201021GF100995999999999999999999MA1999999096481MD1710081+0051MW1101REMSYN06448304 31956 00000 10110 20100 39648 40129 57008 71000 333 58005=
0235483040999992016011900004+19867+099767FM-12+040199999V0209999C000019999999N006000199+00971+00911101491ADDAY101021AY201021GA1999+999999021GE19AGL   +99999+99999GF102991001999999999999999KA1120N+00941MA1999999096651MD1210171-0061MW1101REMSYN07648304 31956 20000 10097 20091 39665 40149 52017 71000 80005 333 20094 59006=EQDQ01    003SCCGA1
0153483040999992016011903004+19867+099767FM-12+040199999V0209999C000019999999N008000199+01761+01301101611ADDAY101021AY201021GF100995999999999999999999MA1999999096891MD1210241+0051MW1101REMSYN06448304 31958 00000 10176 20130 39689 40161 52024 71000 333 58005=
0125483040999992016011906004+19867+099767FM-12+040199999V0209999C000019999999N013000199+02571+01281101181ADDGF100995999999999999999999MA1999999096611MD1710281-0011REMSYN05848304 32963 00000 10257 20128 39661 40118 57028 333 59001=
0125483040999992016011909004+19867+099767FM-12+040199999V0209999C000019999999N015000199+02851+01381100901ADDGF100995999999999999999999MA1999999096381MD1710231+0081REMSYN05848304 32965 00000 10285 20138 39638 40090 57023 333 58008=
0144483040999992016011912004+19867+099767FM-12+040199999V0209999C000019999999N013000199+02131+01501101091ADDGF100995999999999999999999KA1240M+02861MA1999999096461MD1210081+0101REMSYN06448304 32963 00000 10213 20150 39646 40109 52008 333 10286 58010=
0125483040999992016011915004+19867+099767FM-12+040199999V0209999C000019999999N012000199+01681+01471101401ADDGF100995999999999999999999MA1999999096681MD1210221+0061REMSYN05848304 32962 00000 10168 20147 39668 40140 52022 333 58006=
0153483040999992016011918004+19867+099767FM-12+040199999V0209999C000019999999N004000199+01351+01261101471ADDAY101021AY201021GF100995999999999999999999MA1999999096701MD1210021+0131MW1101REMSYN06448304 31940 00000 10135 20126 39670 40147 52002 71000 333 58013=
0153483040999992016011921004+19867+099767FM-12+040199999V0209999C000019999999N002000199+01231+01171101461ADDAY101021AY201021GF100995999999999999999999MA1999999096661MD1710031+0171MW1101REMSYN06448304 31920 00000 10123 20117 39666 40146 57003 71000 333 58017=
0172483040999992016012000004+19867+099767FM-12+040199999V0209999C000019999999N002000199+01151+01111101651ADDAY101021AY201021GF100995999999999999999999KA1120N+01121MA1999999096841MD1210171+0161MW1101REMSYN07048304 31920 00000 10115 20111 39684 40165 52017 71000 333 20112 58016=
0153483040999992016012003004+19867+099767FM-12+040199999V0209999C000019999999N004000199+01851+01431101791ADDAY101021AY201021GF100995999999999999999999MA1999999097081MD1210241+0181MW1101REMSYN06448304 31940 00000 10185 20143 39708 40179 52024 71000 333 58018=
0125483040999992016012006004+19867+099767FM-12+040199999V0209999C000019999999N015000199+02601+01791101401ADDGF100995999999999999999999MA1999999096821MD1710261+0221REMSYN05848304 32965 00000 10260 20179 39682 40140 57026 333 58022=
0125483040999992016012009004+19867+099767FM-12+040199999V0209999C000019999999N015000199+02951+01621100981ADDGF100995999999999999999999MA1999999096471MD1710351+0081REMSYN05848304 32965 00000 10295 20162 39647 40098 57035 333 58008=
0131483040999992016012012004+19867+099767FM-12+040199999V0209999C000019999999N015000199+02261+01651101111ADDGF100995999999999999999999MA1999999096501MD1210031+0021REMSYN06448304 32965 00000 10226 20165 39650 40111 52003 333 10302 58002=
0125483040999992016012015004+19867+099767FM-12+040199999V0209999C000019999999N012000199+01801+01671101381ADDGF100995999999999999999999MA1999999096681MD1210181-0021REMSYN05848304 32962 00000 10180 20167 39668 40138 52018 333 59002=
0153483040999992016012018004+19867+099767FM-12+040199999V0209999C000019999999N004000199+01541+01451101401ADDAY101021AY201021GF100995999999999999999999MA1999999096661MD1710011-0071MW1101REMSYN06448304 31940 00000 10154 20145 39666 40140 57001 71000 333 59007=
0153483040999992016012021004+19867+099767FM-12+040199999V0209999C000019999999N004000199+01431+01381101381ADDAY101021AY201021GF100995999999999999999999MA1999999096621MD1710041-0081MW1101REMSYN06448304 31940 00000 10143 20138 39662 40138 57004 71000 333 59008=
0172483040999992016012100004+19867+099767FM-12+040199999V0209999C000019999999N001500199+01351+01281101551ADDAY101021AY201021GF100995999999999999999999KA1120N+01301MA1999999096771MD1210141-0111MW1101REMSYN07048304 31915 00000 10135 20128 39677 40155 52014 71000 333 20130 59011=
0153483040999992016012103004+19867+099767FM-12+040199999V0209999C000019999999N008000199+02181+01721101601ADDAY101021AY201021GF100995999999999999999999MA1999999096951MD1210181-0191MW1101REMSYN06448304 31958 00000 10218 20172 39695 40160 52018 71000 333 59019=
0188483040999992016012106004+19867+099767FM-12+040199999V0209999C000019999999N015000199+02941+01501101161ADDGA1999+999999011GE19AGL   +99999+99999GF102991001999999999999999MA1999999096641MD1710311-0241REMSYN06448304 32965 20000 10294 20150 39664 40116 57031 80009 333 59024=EQDQ01    003SCCGA1
0188483040999992016012109004+19867+099767FM-12+040199999V0209999C000019999999N015000199+03221+01551100771ADDGA1999+999999001GE19AGL   +99999+99999GF101991001999999999999999MA1999999096311MD1710321-0201REMSYN06448304 32965 10000 10322 20155 39631 40077 57032 80001 333 59020=EQDQ01    003SCCGA1
0144483040999992016012112004+19867+099767FM-12+040199999V0209999C000019999999N015000199+02261+01651100961ADDGF100995999999999999999999KA1240M+03231MA1999999096351MD1210041-0151REMSYN06448304 32965 00000 10226 20165 39635 40096 52004 333 10323 59015=
0125483040999992016012115004+19867+099767FM-12+040199999V0209999C000019999999N012000199+01901+01681101401ADDGF100995999999999999999999MA1999999096711MD1210361+0021REMSYN05848304 32962 00000 10190 20168 39671 40140 52036 333 58002=
0125483040999992016012118004+19867+099767FM-12+040199999V0209999C000019999999N010000199+01761+01661101371ADDGF100995999999999999999999MA1999999096661MD1710051-0041REMSYN05848304 32960 00000 10176 20166 39666 40137 57005 333 59004=
0153483040999992016012121004+19867+099767FM-12+040199999V0209999C000019999999N008000199+01501+01411101351ADDAY101021AY201021GF100995999999999999999999MA1999999096601MD1710061-0031MW1101REMSYN06448304 31958 00000 10150 20141 39660 40135 57006 71000 333 59003=
0188483040999992016012200004+19867+099767FM-12+040199999V0209999C000019999999N010000199+01271+01191101551ADDGA1011+012501061GE19AGL   +99999+99999GF101991011999012501999999KA1120N+01241MA1999999096761MD1210151+0001REMSYN07048304 32660 10000 10127 20119 39676 40155 52015 81500 333 20124 58000=
0125483040999992016012203004+19867+099767FM-12+040199999V0209999C000019999999N015000199+02111+01481101641ADDGF100995999999999999999999MA1999999096981MD1210221+0041REMSYN05848304 32965 00000 10211 20148 39698 40164 52022 333 58004=
0125483040999992016012206004+19867+099767FM-12+040199999V0209999C000019999999N015000199+02911+01401101171ADDGF100995999999999999999999MA1999999096651MD1710331+0021REMSYN05848304 32965 00000 10291 20140 39665 40117 57033 333 58002=
0125483040999992016012209004+19867+099767FM-12+040199999V0209999C000019999999N015000199+03231+01561100901ADDGF100995999999999999999999MA1999999096431MD1710221+0121REMSYN05848304 32965 00000 10323 20156 39643 40090 57022 333 58012=
0144483040999992016012212004+19867+099767FM-12+040199999V0209999C000019999999N015000199+02471+01771101171ADDGF100995999999999999999999KA1240M+03251MA1999999096581MD1210151+0211REMSYN06448304 32965 00000 10247 20177 39658 40117 52015 333 10325 58021=
0169483040999992016012215004+19867+099767FM-12+040199999V0209999C000019999999N012000199+02001+01891101431ADDGA1021+012501081GE19AGL   +99999+99999GF102991021999012501999999MA1999999096761MD1210171+0031REMSYN06448304 32662 20000 10200 20189 39676 40143 52017 82100 333 58003=
0169483040999992016012218004+19867+099767FM-12+040199999V0209999C000019999999N010000199+01801+01701101481ADDGA1021+012501061GE19AGL   +99999+99999GF102991021999012501999999MA1999999096781MD1210021+0121REMSYN06448304 32660 20000 10180 20170 39678 40148 52002 82500 333 58012=
0197483040999992016012221004+19867+099767FM-12+040199999V0209999C000019999999N008000199+01661+01571101421ADDAY101021AY201021GA1021+012501061GE19AGL   +99999+99999GF102991021999012501999999MA1999999096701MD1710081+0071MW1101REMSYN07048304 31658 20000 10166 20157 39670 40142 57008 71000 82500 333 58007=
0207483040999992016012300004+19867+099767FM-12+040199999V0209999C000019999999N010000199+01511+01441101571ADDGA1999+999999001GE19AGL   +99999+99999GF102991001999999999999999KA1120N+01471MA1999999096821MD1210121+0031REMSYN07048304 32960 20000 10151 20144 39682 40157 52012 80001 333 20147 58003=EQDQ01    003SCCGA1
0188483040999992016012303004+19867+099767FM-12+040199999V0209999C000019999999N015000199+02421+01781101621ADDGA1999+999999011GE19AGL   +99999+99999GF102991001999999999999999MA1999999097001MD1210181-0021REMSYN06448304 32965 20000 10242 20178 39700 40162 52018 80009 333 59002=EQDQ01    003SCCGA1
0201483040999992016012306004+19867+099767FM-12+040199999V0201001N001519999999N015000199+03071+01891101231ADDGA1021+008001081GA2999+999999031GA3999+999999021GE19AGL   +99999+99999GF102991021999008001999999MA1999999096731MD1710271+0061REMSYN06448304 32565 21003 10307 20189 39673 40123 57027 82245 333 58006=
0201483040999992016012309004+19867+099767FM-12+040199999V0200601N001519999999N015000199+03131+01921100871ADDGA1031+012501061GA2999+999999031GA3999+999999021GE19AGL   +99999+99999GF106991031999012501999999MA1999999096391MD1710341-0031REMSYN06448304 32665 60603 10313 20192 39639 40087 57034 83546 333 59003=
0283483040999992016012312004+19867+099767FM-12+040199999V0209999C000019999999N006000199+02631+02071101091ADDAA101000231AA212000231AA324000231AY121021AY211021GA1061+008001081GA2999+999999031GE19AGL   +99999+99999GF108991061999008001999999KA1240M+03151MA1999999096531MD1210141-0081MW1601REMSYN09448304 01556 80000 10263 20207 39653 40109 52014 69922 76021 8687/ 333 10315 59008 69925 70002=
0246483040999992016012315004+19867+099767FM-12+040199999V0209999C000019999999N010000199+02181+02061101341ADDAA103001031AY161021AY221021GA1061+008001061GA2999+999999031GA3999+999999021GE19AGL   +99999+99999GF108991061999008001999999MA1999999096701MD1210171-0091MW1021REMSYN07648304 21560 80000 10218 20206 39670 40134 52017 70262 86576 333 59009 60017=
0263483040999992016012318004+19867+099767FM-12+040199999V0209999C000019999999N010000199+01981+01921101361ADDAA118002032AA224001632AY161021AY221021GA1021+008001061GA2999+999999031GA3999+999999021GE19AGL   +99999+99999GF104991021999008001999999MA1999999096691MD1710011-0121MW1011REMSYN08248304 11560 40000 10198 20192 39669 40136 57001 60023 70162 82545 333 59012 70016=
0201483040999992016012321004+19867+099767FM-12+040199999V0209999C000019999999N010000199+01921+01861101301ADDGA1051+008001061GA2999+999999031GA3999+999999021GE19AGL   +99999+99999GF108991051999008001999999MA1999999096621MD1710071-0121REMSYN06448304 32560 80000 10192 20186 39662 40130 57007 85576 333 59012=
0254483040999992016012400004+19867+099767FM-12+040199999V0209999C000019999999N015000199+01951+01871101481ADDAA124002032AA224001632GA1041+008001061GA2999+999999031GA3999+999999021GE19AGL   +99999+99999GF108991041999008001999999KA1120N+01881MA1999999096801MD1210181-0091REMSYN08248304 12565 80000 10195 20187 39680 40148 52018 60024 84576 333 20188 59009 70016=
0185483040999992016012403004+19867+099767FM-12+040199999V0209999C000019999999N015000199+02541+02081101711ADDGA1021+008001061GA2999+999999031GE19AGL   +99999+99999GF104991021999008001999999MA1999999097111MD1210311+0091REMSYN06448304 32565 40000 10254 20208 39711 40171 52031 82540 333 58009=
0218483040999992016012406004+19867+099767FM-12+040199999V0200401N001519999999N015000199+02821+01851101441ADDAA124001631GA1031+008001061GA2999+999999031GA3999+999999021GE19AGL   +99999+99999GF106991031999008001999999MA1999999096891MD1710221+0201REMSYN07048304 32565 60403 10282 20185 39689 40144 57022 83546 333 58020 70016=
0185483040999992016012409004+19867+099767FM-12+040199999V0200101N007719999999N015000199+01901+01491101721ADDGA1041+008001061GA2999+999999031GE19AGL   +99999+99999GF108991041999008001999999MA1999999097021MD1210131+9999REMSYN06448304 32565 80115 10190 20149 39702 40172 52013 8457/ 333 58086=
0283483040999992016012412004+19867+099767FM-12+040199999V0203401N005119999999N002000199+01281+01131102231ADDAA103000431AA212000431AA324001831AY151021AY221021GA1061+008001061GA2999+999999031GE19AGL   +99999+99999GF108991061999008001999999KA1240M+02901MA1999999097411MD1210391+9999MW1511REMSYN09448304 01520 83410 10128 20113 39741 40223 52039 69942 75152 8657/ 333 10290 58114 69947 70018=
0230483040999992016012415004+19867+099767FM-12+040199999V0200401N003119999999N002000199+01101+01041102581ADDAA103003031AY161021AY221021GA1061+008001061GA2999+999999031GE19AGL   +99999+99999GF108991061999008001999999MA1999999097711MD1210311+9999MW1611REMSYN07648304 21520 80406 10110 20104 39771 40258 52031 76162 8657/ 333 58124 60037=
0264483040999992016012418004+19867+099767FM-12+040199999V0200401N004619999999N002000199+00951+00911102651ADDAA103001031AA218005032AA324004632AY161021AY261021GA1061+008001061GA2999+999999031GE19AGL   +99999+99999GF108991061999008001999999MA1999999097761MD1210041+9999MW1611REMSYN08848304 01520 80409 10095 20091 39776 40265 52004 60053 76166 8657/ 333 58129 60017 70046=
0246483040999992016012421004+19867+099767FM-12+040199999V0200301N003619999999N002000199+00901+00841102601ADDAA103000231AY161021AY221021GA1041+008001061GA2999+999999031GA3999+999999021GE19AGL   +99999+99999GF108991041999008001999999MA1999999097701MD1710061+9999MW1211REMSYN07648304 21520 80307 10090 20084 39770 40260 57006 72162 84576 333 58130 69927=
0266483040999992016012500004+19867+099767FM-12+040199999V0200201N003619999999N002000199+00851+00631102681ADDAA124005032AA224004832AY161021AY221021GA1061+008001061GA2999+999999031GE19AGL   +99999+99999GF108991061999008001999999KA1120N+00791MA1999999097761MD1210061+9999MW1101REMSYN08848304 11520 80207 10085 20063 39776 40268 52006 60054 71062 8657/ 333 20079 58120 70048=
0230483040999992016012503004+19867+099767FM-12+040199999V0200301N002119999999N002000199+00841+00711102951ADDAA101001031AY121021AY221021GA1061+008001061GA2999+999999031GE19AGL   +99999+99999GF108991061999008001999999MA1999999098021MD1210261+9999MW1601REMSYN07648304 21520 80304 10084 20071 39802 40295 52026 76022 8657/ 333 58124 60015=
0264483040999992016012506004+19867+099767FM-12+040199999V0200501N002119999999N002000199+00891+00741102851ADDAA103002031AA206003031AA324008031AY161021AY261021GA1061+008001061GA2999+999999031GE19AGL   +99999+99999GF108991061999008001999999MA1999999097931MD1710091+9999MW1611REMSYN08848304 01520 80504 10089 20074 39793 40285 57009 60031 76166 8657/ 333 58141 60027 70080=
0230483040999992016012509004+19867+099767FM-12+040199999V0200401N005119999999N010000199+00921+00541102491ADDAA103000021AY161021AY221021GA1061+008001061GA2999+999999031GE19AGL   +99999+99999GF108991061999008001999999MA1999999097601MD1710331+0771MW1021REMSYN07648304 21560 80410 10092 20054 39760 40249 57033 70262 8657/ 333 58077 69907=
0266483040999992016012512004+19867+099767FM-12+040199999V0209999C000019999999N010000199+00911+00721102591ADDAA112003031AA224007631AY161021AY221021GA1061+008001061GA2999+999999031GE19AGL   +99999+99999GF108991061999008001999999KA1240M+00951MA1999999097681MD1210091+0351MW1021REMSYN08848304 11560 80000 10091 20072 39768 40259 52009 60032 70262 8657/ 333 10095 58035 70076=
0213483040999992016012515004+19867+099767FM-12+040199999V0200201N001019999999N007000199+00821+00691102721ADDAY121021AY221021GA1061+008001061GA2999+999999031GE19AGL   +99999+99999GF108991061999008001999999MA1999999097801MD1210121+0141MW1101REMSYN07048304 31557 80202 10082 20069 39780 40272 52012 71022 8657/ 333 58014=
0264483040999992016012518004+19867+099767FM-12+040199999V0209999C000019999999N006000199+00811+00721102631ADDAA103000431AA218004032AA324003832AY161021AY221021GA1061+008001061GA2999+999999031GE19AGL   +99999+99999GF108991061999008001999999MA1999999097711MD1710091-0021MW1101REMSYN08848304 01556 80000 10081 20072 39771 40263 57009 60043 71062 8657/ 333 59002 69947 70038=
0230483040999992016012521004+19867+099767FM-12+040199999V0209999C000019999999N004000199+00801+00731102451ADDAA103007031AY161021AY221021GA1061+008001081GA2999+999999031GE19AGL   +99999+99999GF108991061999008001999999MA1999999097541MD1710171-0151MW1611REMSYN07648304 21540 80000 10080 20073 39754 40245 57017 76162 8687/ 333 59015 60077=
0283483040999992016012600004+19867+099767FM-12+040199999V0200701N001519999999N004000199+00831+00791102451ADDAA103003031AA224013032AA324013232AY161021AY261021GA1061+008001061GA2999+999999031GE19AGL   +99999+99999GF108991061999008001999999KA1120N+00771MA1999999097541MD1410001-0231MW1211REMSYN09448304 01540 80703 10083 20079 39754 40245 54000 60134 72166 8657/ 333 20077 59023 60037 70132=
0230483040999992016012603004+19867+099767FM-12+040199999V0200701N001519999999N008000199+00911+00831102671ADDAA103004031AY161021AY221021GA1061+008001081GA2999+999999031GE19AGL   +99999+99999GF108991061999008001999999MA1999999097761MD1210221-0281MW1611REMSYN07648304 21558 80703 10091 20083 39776 40267 52022 76162 8687/ 333 59028 60047=
0264483040999992016012606004+19867+099767FM-12+040199999V0200301N001019999999N003000199+00911+00871102451ADDAA103008031AA206012031AA324022231AY161021AY261021GA1061+008001081GA2999+999999031GE19AGL   +99999+99999GF108991061999008001999999MA1999999097561MD1710201-0401MW1611REMSYN08848304 01530 80302 10091 20087 39756 40245 57020 60121 76166 8687/ 333 59040 60087 70222=
0230483040999992016012609004+19867+099767FM-12+040199999V0200201N001019999999N003000199+00991+00911102351ADDAA102003031AY161021AY221021GA1061+008001081GA2999+999999031GE19AGL   +99999+99999GF108991061999008001999999MA1999999097481MD1710081-0141MW1611REMSYN07648304 21530 80202 10099 20091 39748 40235 57008 76162 8687/ 333 59014 60036=
0283483040999992016012612004+19867+099767FM-12+040199999V0209999C000019999999N004000199+00951+00851102241ADDAA103000631AA212016031AA324026231AY161021AY261021GA1061+008001061GA2999+999999031GE19AGL   +99999+99999GF108991061999008001999999KA1240M+01031MA1999999097361MD1610121-0351MW1101REMSYN09448304 01540 80000 10095 20085 39736 40224 56012 60162 71066 8657/ 333 10103 59035 69967 70262=
0213483040999992016012615004+19867+099767FM-12+040199999V0209999C000019999999N004000199+00951+00871102361ADDAY121021AY221021GA1061+008001061GA2999+999999031GE19AGL   +99999+99999GF108991061999008001999999MA1999999097481MD1210121-0361MW1101REMSYN07048304 31540 80000 10095 20087 39748 40236 52012 71022 8657/ 333 59036=
0230483040999992016012618004+19867+099767FM-12+040199999V0209999C000019999999N004000199+00971+00891102331ADDAA124025831AY121021AY221021GA1061+008001061GA2999+999999031GE19AGL   +99999+99999GF108991061999008001999999MA1999999097451MD1710021-0301MW1101REMSYN07648304 31540 80000 10097 20089 39745 40233 57002 71022 8657/ 333 59030 70258=
0213483040999992016012621004+19867+099767FM-12+040199999V0209999C000019999999N004000199+00991+00911102101ADDAY121021AY221021GA1061+008001061GA2999+999999031GE19AGL   +99999+99999GF108991061999008001999999MA1999999097231MD1710221-0361MW1101REMSYN07048304 31540 80000 10099 20091 39723 40210 57022 71022 8657/ 333 59036=
0266483040999992016012700004+19867+099767FM-12+040199999V0209999C000019999999N004000199+01041+00981102121ADDAA124016032AA224016232AY121021AY221021GA1061+008001061GA2999+999999031GE19AGL   +99999+99999GF108991061999008001999999KA1120N+00911MA1999999097261MD1210031-0331MW1101REMSYN08848304 11540 80000 10104 20098 39726 40212 52003 60164 71022 8657/ 333 20091 59033 70162=
0213483040999992016012703004+19867+099767FM-12+040199999V0209999C000019999999N005000199+01171+01051102271ADDAY121021AY221021GA1061+008001061GA2999+999999031GE19AGL   +99999+99999GF108991061999008001999999MA1999999097431MD1210171-0401MW1101REMSYN07048304 31550 80000 10117 20105 39743 40227 52017 71022 8657/ 333 59040=
0230483040999992016012706004+19867+099767FM-12+040199999V0209999C000019999999N005000199+01401+01081102041ADDAA124004031AY121021AY221021GA1061+008001061GA2999+999999031GE19AGL   +99999+99999GF108991061999008001999999MA1999999097251MD1710181-0411MW1101REMSYN07648304 31550 80000 10140 20108 39725 40204 57018 71022 8657/ 333 59041 70040=
0213483040999992016012709004+19867+099767FM-12+040199999V0209999C000019999999N006000199+01451+01111101821ADDAY121021AY221021GA1061+008001061GA2999+999999031GE19AGL   +99999+99999GF108991061999008001999999MA1999999097051MD1710201-0531MW1101REMSYN07048304 31556 80000 10145 20111 39705 40182 57020 71022 8657/ 333 59053=
0232483040999992016012712004+19867+099767FM-12+040199999V0209999C000019999999N006000199+01341+01151101861ADDAY121021AY221021GA1061+008001061GA2999+999999031GE19AGL   +99999+99999GF108991061999008001999999KA1240M+01501MA1999999097061MD1110021-0381MW1101REMSYN07648304 31556 80000 10134 20115 39706 40186 51002 71022 8657/ 333 10150 59038=
0213483040999992016012715004+19867+099767FM-12+040199999V0209999C000019999999N004000199+01351+01221101951ADDAY121021AY221021GA1061+008001061GA2999+999999031GE19AGL   +99999+99999GF108991061999008001999999MA1999999097151MD1210081-0411MW1101REMSYN07048304 31540 80000 10135 20122 39715 40195 52008 71022 8657/ 333 59041=
0213483040999992016012718004+19867+099767FM-12+040199999V0209999C000019999999N004000199+01341+01251101911ADDAY121021AY221021GA1061+008001061GA2999+999999031GE19AGL   +99999+99999GF108991061999008001999999MA1999999097111MD1710031-0421MW1101REMSYN07048304 31540 80000 10134 20125 39711 40191 57003 71022 8657/ 333 59042=
0213483040999992016012721004+19867+099767FM-12+040199999V0209999C000019999999N002000199+01341+01271101731ADDAY121021AY221021GA1061+008001061GA2999+999999031GE19AGL   +99999+99999GF108991061999008001999999MA1999999096941MD1710171-0371MW1101REMSYN07048304 31520 80000 10134 20127 39694 40173 57017 71022 8657/ 333 59037=
0232483040999992016012800004+19867+099767FM-12+040199999V0209999C000019999999N002000199+01301+01241101841ADDAY121021AY221021GA1061+008001061GA2999+999999031GE19AGL   +99999+99999GF108991061999008001999999KA1120N+01261MA1999999097041MD1210101-0281MW1101REMSYN07648304 31520 80000 10130 20124 39704 40184 52010 71022 8657/ 333 20126 59028=
0213483040999992016012803004+19867+099767FM-12+040199999V0209999C000019999999N006000199+01441+01371102001ADDAY121021AY221021GA1061+008001061GA2999+999999031GE19AGL   +99999+99999GF108991061999008001999999MA1999999097211MD1210171-0281MW1101REMSYN07048304 31556 80000 10144 20137 39721 40200 52017 71022 8657/ 333 59028=
0201483040999992016012806004+19867+099767FM-12+040199999V0209999C000019999999N015000199+01901+01261101631ADDGA1051+008001061GA2999+999999031GA3999+999999021GE19AGL   +99999+99999GF107991051999008001999999MA1999999096931MD1710281-0421REMSYN06448304 32565 70000 10190 20126 39693 40163 57028 85576 333 59042=
0214483040999992016012809004+19867+099767FM-12+040199999V0209999C000019999999N015000199+02001+01351101341ADDAA103000231AY161021AY211021GA1041+008001061GE19AGL   +99999+99999GF104991041999008001999999MA1999999096681MD1710261-0481MW1011REMSYN07648304 21565 40000 10200 20135 39668 40134 57026 70161 84500 333 59048 69927=
0269483040999992016012812004+19867+099767FM-12+040199999V0209999C000019999999N015000199+01621+01481101431ADDAA112000231AA224000231AY161021AY211021GA1999+999999001GE19AGL   +99999+99999GF102991001999999999999999KA1240M+02161MA1999999096701MD1210021-0431MW1011REMSYN08848304 11965 20000 10162 20148 39670 40143 52002 69922 70161 80001 333 10216 59043 70002=EQDQ01    003SCCGA1
0125483040999992016012815004+19867+099767FM-12+040199999V0209999C000019999999N010000199+01301+01221101651ADDGF100995999999999999999999MA1999999096861MD1210161-0301REMSYN05848304 32960 00000 10130 20122 39686 40165 52016 333 59030=
0170483040999992016012818004+19867+099767FM-12+040199999V0209999C000019999999N006000199+01221+01161101731ADDAA124000231AY101021AY201021GF100995999999999999999999MA1999999096921MD1990061-0181MW1101REMSYN07048304 31956 00000 10122 20116 39692 40173 50006 71000 333 59018 70002=
0153483040999992016012821004+19867+099767FM-12+040199999V0209999C000019999999N002000199+01291+01231101651ADDAY101021AY201021GF100995999999999999999999MA1999999096861MD1710061-0081MW1101REMSYN06448304 31920 00000 10129 20123 39686 40165 57006 71000 333 59008=
0255483040999992016012900004+19867+099767FM-12+040199999V0209999C000019999999N002000199+01291+01251101781ADDAA124000231AY121021AY221021GA1061+004501071GA2999+999999031GE19AGL   +99999+99999GF108991061999004501999999KA1120N+01151MA1999999096981MD1210121-0061MW1101REMSYN08848304 11420 80000 10129 20125 39698 40178 52012 69924 71022 8667/ 333 20115 59006 70002=
0201483040999992016012903004+19867+099767FM-12+040199999V0209999C000019999999N015000199+01651+01481101881ADDGA1041+008001061GA2999+999999031GA3999+999999021GE19AGL   +99999+99999GF106991041999008001999999MA1999999097141MD1210161-0111REMSYN06448304 32565 60000 10165 20148 39714 40188 52016 84546 333 59011=
0186483040999992016012906004+19867+099767FM-12+040199999V0202101N002119999999N015000199+02221+01591101531ADDAA124000231GA1021+008001061GE19AGL   +99999+99999GF102991021999008001999999MA1999999096891MD1710251-0101REMSYN07048304 32565 22104 10222 20159 39689 40153 57025 82500 333 59010 70002=
0169483040999992016012909004+19867+099767FM-12+040199999V0209999C000019999999N015000199+02641+01671101121ADDGA1011+012501081GE19AGL   +99999+99999GF101991011999012501999999MA1999999096561MD1710331-0221REMSYN06448304 32665 10000 10264 20167 39656 40112 57033 81100 333 59022=
0144483040999992016012912004+19867+099767FM-12+040199999V0209999C000019999999N012000199+02001+01651101151ADDGF100995999999999999999999KA1240M+02711MA1999999096491MD1510071-0281REMSYN06448304 32962 00000 10200 20165 39649 40115 55007 333 10271 59028=
0125483040999992016012915004+19867+099767FM-12+040199999V0209999C000019999999N010000199+01601+01481101421ADDGF100995999999999999999999MA1999999096691MD1210201-0231REMSYN05848304 32960 00000 10160 20148 39669 40142 52020 333 59023=
0153483040999992016012918004+19867+099767FM-12+040199999V0209999C000019999999N008000199+01571+01501101491ADDAY101021AY201021GF100995999999999999999999MA1999999096751MD1210061-0241MW1101REMSYN06448304 31958 00000 10157 20150 39675 40149 52006 71000 333 59024=
0153483040999992016012921004+19867+099767FM-12+040199999V0209999C000019999999N007000199+01401+01341101391ADDAY101021AY201021GF100995999999999999999999MA1999999096631MD1710121-0261MW1101REMSYN06448304 31957 00000 10140 20134 39663 40139 57012 71000 333 59026=
0232483040999992016013000004+19867+099767FM-12+040199999V0209999C000019999999N006000199+01361+01301101491ADDAY101021AY201021GA1011+012501081GA2999+999999031GE19AGL   +99999+99999GF102991011999012501999999KA1120N+01271MA1999999096721MD1210101-0281MW1101REMSYN07648304 31656 20000 10136 20130 39672 40149 52010 71000 81240 333 20127 59028=
0188483040999992016013003004+19867+099767FM-12+040199999V0202401N001019999999N015000199+02051+01711101531ADDGA1999+999999001GE19AGL   +99999+99999GF101991001999999999999999MA1999999096861MD1210141-0351REMSYN06448304 32965 12402 10205 20171 39686 40153 52014 80001 333 59035=EQDQ01    003SCCGA1
0125483040999992016013006004+19867+099767FM-12+040199999V0209999C000019999999N015000199+02621+01711101161ADDGF100995999999999999999999MA1999999096601MD1710271-0371REMSYN05848304 32965 00000 10262 20171 39660 40116 57027 333 59037=
0169483040999992016013009004+19867+099767FM-12+040199999V0201801N001519999999N015000199+02921+01601100751ADDGA1021+012501081GE19AGL   +99999+99999GF102991021999012501999999MA1999999096251MD1710351-0371REMSYN06448304 32665 21803 10292 20160 39625 40075 57035 82100 333 59037=
0144483040999992016013012004+19867+099767FM-12+040199999V0209999C000019999999N015000199+02371+01851100891ADDGF100995999999999999999999KA1240M+02941MA1999999096301MD1110051-0261REMSYN06448304 32965 00000 10237 20185 39630 40089 51005 333 10294 59026=
0125483040999992016013015004+19867+099767FM-12+040199999V0209999C000019999999N012000199+01601+01351101151ADDGF100995999999999999999999MA1999999096431MD1210131-0271REMSYN05848304 32962 00000 10160 20135 39643 40115 52013 333 59027=
0153483040999992016013018004+19867+099767FM-12+040199999V0209999C000019999999N008000199+01571+01461101201ADDAY101021AY201021GF100995999999999999999999MA1999999096471MD1110041-0291MW1101REMSYN06448304 31958 00000 10157 20146 39647 40120 51004 71000 333 59029=
0153483040999992016013021004+19867+099767FM-12+040199999V0209999C000019999999N006000199+01431+01361101211ADDAY101021AY201021GF100995999999999999999999MA1999999096461MD1710011-0181MW1101REMSYN06448304 31956 00000 10143 20136 39646 40121 57001 71000 333 59018=
0172483040999992016013100004+19867+099767FM-12+040199999V0209999C000019999999N004000199+01171+01111101441ADDAY101021AY201021GF100995999999999999999999KA1120N+01111MA1999999096631MD1210171-0061MW1101REMSYN07048304 31940 00000 10117 20111 39663 40144 52017 71000 333 20111 59006=
0125483040999992016013103004+19867+099767FM-12+040199999V0209999C000019999999N012000199+02071+01671101521ADDGF100995999999999999999999MA1999999096851MD1210221-0011REMSYN05848304 32962 00000 10207 20167 39685 40152 52022 333 59001=
0125483040999992016013106004+19867+099767FM-12+040199999V0209999C000019999999N015000199+02721+01351101131ADDGF100995999999999999999999MA1999999096581MD1710271-0031REMSYN05848304 32965 00000 10272 20135 39658 40113 57027 333 59003=
0125483040999992016013109004+19867+099767FM-12+040199999V0202601N001519999999N015000199+02981+01361100841ADDGF100995999999999999999999MA1999999096351MD1710241+0091REMSYN05848304 32965 02603 10298 20136 39635 40084 57024 333 58009=
0144483040999992016013112004+19867+099767FM-12+040199999V0209999C000019999999N013000199+02171+01661101061ADDGF100995999999999999999999KA1240M+02991MA1999999096431MD1210081+0171REMSYN06448304 32963 00000 10217 20166 39643 40106 52008 333 10299 58017=
0125483040999992016013115004+19867+099767FM-12+040199999V0209999C000019999999N012000199+01631+01401101321ADDGF100995999999999999999999MA1999999096601MD1210171+0171REMSYN05848304 32962 00000 10163 20140 39660 40132 52017 333 58017=
0153483040999992016013118004+19867+099767FM-12+040199999V0209999C000019999999N006000199+01321+01211101461ADDAY101021AY201021GF100995999999999999999999MA1999999096681MD1990081+0261MW1101REMSYN06448304 31956 00000 10132 20121 39668 40146 50008 71000 333 58026=
0153483040999992016013121004+19867+099767FM-12+040199999V0209999C000019999999N003000199+01171+01111101481ADDAY101021AY201021GF100995999999999999999999MA1999999096681MD1410001+0271MW1101REMSYN06448304 31930 00000 10117 20111 39668 40148 54000 71000 333 58027=
0172483040999992016020100004+19867+099767FM-12+040199999V0209999C000019999999N002000199+01071+01031101741ADDAY101021AY201021GF100995999999999999999999KA1120N+01031MA1999999096901MD1210231+0301MW1101REMSYN07048304 31920 00000 10107 20103 39690 40174 52023 71000 333 20103 58030=
0153483040999992016020103004+19867+099767FM-12+040199999V0209999C000019999999N003000199+01901+01471101821ADDAY101021AY201021GF100995999999999999999999MA1999999097121MD1210211+0311MW1101REMSYN06448304 31930 00000 10190 20147 39712 40182 52021 71000 333 58031=
0125483040999992016020106004+19867+099767FM-12+040199999V0201301N001519999999N015000199+02641+01521101401ADDGF100995999999999999999999MA1999999096831MD1710291+0271REMSYN05848304 32965 01303 10264 20152 39683 40140 57029 333 58027=
0125483040999992016020109004+19867+099767FM-12+040199999V0209999C000019999999N015000199+02951+01361101081ADDGF100995999999999999999999MA1999999096571MD1710261+0241REMSYN05848304 32965 00000 10295 20136 39657 40108 57026 333 58024=
0144483040999992016020112004+19867+099767FM-12+040199999V0209999C000019999999N015000199+02001+01371101261ADDGF100995999999999999999999KA1240M+02981MA1999999096601MD1210031+0201REMSYN06448304 32965 00000 10200 20137 39660 40126 52003 333 10298 58020=
0125483040999992016020115004+19867+099767FM-12+040199999V0209999C000019999999N012000199+01541+01401101471ADDGF100995999999999999999999MA1999999096721MD1210131+0151REMSYN05848304 32962 00000 10154 20140 39672 40147 52013 333 58015=
0153483040999992016020118004+19867+099767FM-12+040199999V0209999C000019999999N002000199+01331+01271101521ADDAY101021AY201021GF100995999999999999999999MA1999999096741MD1990011+0061MW1101REMSYN06448304 31920 00000 10133 20127 39674 40152 50001 71000 333 58006=
0153483040999992016020121004+19867+099767FM-12+040199999V0209999C000019999999N002000199+01211+01151101531ADDAY101021AY201021GF100995999999999999999999MA1999999096731MD1410001+0051MW1101REMSYN06448304 31920 00000 10121 20115 39673 40153 54000 71000 333 58005=
0172483040999992016020200004+19867+099767FM-12+040199999V0209999C000019999999N002000199+01121+01081101741ADDAY101021AY201021GF100995999999999999999999KA1120N+01081MA1999999096921MD1210191+0001MW1101REMSYN07048304 31920 00000 10112 20108 39692 40174 52019 71000 333 20108 58000=
0153483040999992016020203004+19867+099767FM-12+040199999V0209999C000019999999N004000199+01961+01421101821ADDAY101021AY201021GF100995999999999999999999MA1999999097131MD1210211+0001MW1101REMSYN06448304 31940 00000 10196 20142 39713 40182 52021 71000 333 58000=
0125483040999992016020206004+19867+099767FM-12+040199999V0209999C000019999999N012000199+02651+01431101391ADDGF100995999999999999999999MA1999999096821MD1710311-0021REMSYN05848304 32962 00000 10265 20143 39682 40139 57031 333 59002=
0125483040999992016020209004+19867+099767FM-12+040199999V0209999C000019999999N015000199+02881+01441101041ADDGF100995999999999999999999MA1999999096521MD1710301-0041REMSYN05848304 32965 00000 10288 20144 39652 40104 57030 333 59004=
0144483040999992016020212004+19867+099767FM-12+040199999V0209999C000019999999N012000199+02181+01621101211ADDGF100995999999999999999999KA1240M+02901MA1999999096581MD1210061-0051REMSYN06448304 32962 00000 10218 20162 39658 40121 52006 333 10290 59005=
0125483040999992016020215004+19867+099767FM-12+040199999V0209999C000019999999N010000199+01871+01621101351ADDGF100995999999999999999999MA1999999096661MD1210081-0121REMSYN05848304 32960 00000 10187 20162 39666 40135 52008 333 59012=
0153483040999992016020218004+19867+099767FM-12+040199999V0209999C000019999999N007000199+01631+01541101411ADDAY101021AY201021GF100995999999999999999999MA1999999096681MD1210021-0111MW1101REMSYN06448304 31957 00000 10163 20154 39668 40141 52002 71000 333 59011=
0153483040999992016020221004+19867+099767FM-12+040199999V0209999C000019999999N006000199+01501+01431101391ADDAY101021AY201021GF100995999999999999999999MA1999999096641MD1710041-0141MW1101REMSYN06448304 31956 00000 10150 20143 39664 40139 57004 71000 333 59014=
0172483040999992016020300004+19867+099767FM-12+040199999V0209999C000019999999N004000199+01331+01261101561ADDAY101021AY201021GF100995999999999999999999KA1120N+01271MA1999999096781MD1210131-0181MW1101REMSYN07048304 31940 00000 10133 20126 39678 40156 52013 71000 333 20127 59018=
0153483040999992016020303004+19867+099767FM-12+040199999V0209999C000019999999N006000199+02061+01631101661ADDAY101021AY201021GF100995999999999999999999MA1999999096991MD1210211-0161MW1101REMSYN06448304 31956 00000 10206 20163 39699 40166 52021 71000 333 59016=
0169483040999992016020306004+19867+099767FM-12+040199999V0209999C000019999999N010000199+02791+01841101221ADDGA1011+012501081GE19AGL   +99999+99999GF101991011999012501999999MA1999999096681MD1710311-0161REMSYN06448304 32660 10000 10279 20184 39668 40122 57031 81100 333 59016=
0169483040999992016020309004+19867+099767FM-12+040199999V0202001N001519999999N012000199+03011+01551100871ADDGA1011+012501081GE19AGL   +99999+99999GF101991011999012501999999MA1999999096381MD1710301-0161REMSYN06448304 32662 12003 10301 20155 39638 40087 57030 81100 333 59016=
0144483040999992016020312004+19867+099767FM-12+040199999V0209999C000019999999N010000199+02411+01821100981ADDGF100995999999999999999999KA1240M+03031MA1999999096391MD1110011-0241REMSYN06448304 32960 00000 10241 20182 39639 40098 51001 333 10303 59024=
0153483040999992016020315004+19867+099767FM-12+040199999V0209999C000019999999N007000199+01821+01581101291ADDAY101021AY201021GF100995999999999999999999MA1999999096601MD1210211-0061MW1101REMSYN06448304 31957 00000 10182 20158 39660 40129 52021 71000 333 59006=
0153483040999992016020318004+19867+099767FM-12+040199999V0209999C000019999999N005000199+01731+01591101381ADDAY101021AY201021GF100995999999999999999999MA1999999096671MD1210071-0031MW1101REMSYN06448304 31950 00000 10173 20159 39667 40138 52007 71000 333 59003=
0153483040999992016020321004+19867+099767FM-12+040199999V0209999C000019999999N004000199+01501+01431101401ADDAY101021AY201021GF100995999999999999999999MA1999999096651MD1610011+0011MW1101REMSYN06448304 31940 00000 10150 20143 39665 40140 56001 71000 333 58001=
0235483040999992016020400004+19867+099767FM-12+040199999V0209999C000019999999N005000199+01261+01181101741ADDAY101021AY201021GA1999+999999021GE19AGL   +99999+99999GF102991001999999999999999KA1120N+01221MA1999999096941MD1210291+0181MW1101REMSYN07648304 31950 20000 10126 20118 39694 40174 52029 71000 80005 333 20122 58018=EQDQ01    003SCCGA1
0153483040999992016020403004+19867+099767FM-12+040199999V0209999C000019999999N007000199+02071+01571101741ADDAY101021AY201021GF100995999999999999999999MA1999999097071MD1210131+0081MW1101REMSYN06448304 31957 00000 10207 20157 39707 40174 52013 71000 333 58008=
0185483040999992016020406004+19867+099767FM-12+040199999V0209999C000019999999N012000199+02831+01601101271ADDGA1011+012501081GA2999+999999021GE19AGL   +99999+99999GF106991011999012501999999MA1999999096731MD1710341+0041REMSYN06448304 32662 60000 10283 20160 39673 40127 57034 81107 333 58004=
0188483040999992016020409004+19867+099767FM-12+040199999V0209999C000019999999N012000199+03061+01301100931ADDGA1999+999999021GE19AGL   +99999+99999GF102991001999999999999999MA1999999096441MD1710291+0061REMSYN06448304 32962 20000 10306 20130 39644 40093 57029 80005 333 58006=EQDQ01    003SCCGA1
0144483040999992016020412004+19867+099767FM-12+040199999V0209999C000019999999N010000199+02391+01801101101ADDGF100995999999999999999999KA1240M+03071MA1999999096501MD1210061+0121REMSYN06448304 32960 00000 10239 20180 39650 40110 52006 333 10307 58012=
0125483040999992016020415004+19867+099767FM-12+040199999V0209999C000019999999N012000199+01761+01551101361ADDGF100995999999999999999999MA1999999096661MD1210161+0071REMSYN05848304 32962 00000 10176 20155 39666 40136 52016 333 58007=
0125483040999992016020418004+19867+099767FM-12+040199999V0209999C000019999999N010000199+01401+01331101471ADDGF100995999999999999999999MA1999999096701MD1990041+0091REMSYN05848304 32960 00000 10140 20133 39670 40147 50004 333 58009=
0153483040999992016020421004+19867+099767FM-12+040199999V0209999C000019999999N002000199+01241+01181101451ADDAY101021AY201021GF100995999999999999999999MA1999999096661MD1710041+0051MW1101REMSYN06448304 31920 00000 10124 20118 39666 40145 57004 71000 333 58005=
0235483040999992016020500004+19867+099767FM-12+040199999V0209999C000019999999N002000199+01191+01131101611ADDAY101021AY201021GA1999+999999001GE19AGL   +99999+99999GF102991001999999999999999KA1120N+01151MA1999999096801MD1210141-0131MW1101REMSYN07648304 31920 20000 10119 20113 39680 40161 52014 71000 80001 333 20115 59013=EQDQ01    003SCCGA1
0153483040999992016020503004+19867+099767FM-12+040199999V0209999C000019999999N004000199+02031+01411101711ADDAY101021AY201021GF100995999999999999999999MA1999999097031MD1210231-0031MW1101REMSYN06448304 31940 00000 10203 20141 39703 40171 52023 71000 333 59003=
0188483040999992016020506004+19867+099767FM-12+040199999V0201101N002619999999N010000199+02721+01441101211ADDGA1999+999999001GE19AGL   +99999+99999GF102991001999999999999999MA1999999096661MD1710381-0061REMSYN06448304 32960 21105 10272 20144 39666 40121 57038 80001 333 59006=EQDQ01    003SCCGA1
0188483040999992016020509004+19867+099767FM-12+040199999V0209999C000019999999N012000199+02951+01641100861ADDGA1999+999999001GE19AGL   +99999+99999GF102991001999999999999999MA1999999096361MD1710301-0071REMSYN06448304 32962 20000 10295 20164 39636 40086 57030 80001 333 59007=EQDQ01    003SCCGA1
0144483040999992016020512004+19867+099767FM-12+040199999V0209999C000019999999N012000199+02271+01701100961ADDGF100995999999999999999999KA1240M+02961MA1999999096351MD1410001-0141REMSYN06448304 32962 00000 10227 20170 39635 40096 54000 333 10296 59014=
0125483040999992016020515004+19867+099767FM-12+040199999V0209999C000019999999N010000199+01791+01661101281ADDGF100995999999999999999999MA1999999096581MD1210231-0091REMSYN05848304 32960 00000 10179 20166 39658 40128 52023 333 59009=
0153483040999992016020518004+19867+099767FM-12+040199999V0209999C000019999999N004000199+01621+01521101421ADDAY101021AY201021GF100995999999999999999999MA1999999096691MD1990111-0051MW1101REMSYN06448304 31940 00000 10162 20152 39669 40142 50011 71000 333 59005=
0229483040999992016020521004+19867+099767FM-12+040199999V0209999C000019999999N002000199+01581+01491101381ADDAY111021AY211021GA1021+008001061GA2999+999999031GA3999+999999001GE19AGL   +99999+99999GF104991021999008001999999MA1999999096651MD1710041-0071MW1101REMSYN07048304 31520 40000 10158 20149 39665 40138 57004 71011 82541 333 59007=
0248483040999992016020600004+19867+099767FM-12+040199999V0209999C000019999999N002000199+01591+01521101601ADDAY121021AY211021GA1031+008001061GA2999+999999031GA3999+999999021GE19AGL   +99999+99999GF107991031999008001999999KA1120N+01511MA1999999096861MD1210211-0011MW1101REMSYN07648304 31520 70000 10159 20152 39686 40160 52021 71021 83546 333 20151 59001=
0201483040999992016020603004+19867+099767FM-12+040199999V0200501N004119999999N015000199+02001+01671101901ADDGA1051+008001061GA2999+999999031GA3999+999999021GE19AGL   +99999+99999GF108991051999008001999999MA1999999097211MD1210351+0191REMSYN06448304 32565 80508 10200 20167 39721 40190 52035 85576 333 58019=
0201483040999992016020606004+19867+099767FM-12+040199999V0200101N002619999999N015000199+02221+01551101721ADDGA1051+008001061GA2999+999999031GA3999+999999021GE19AGL   +99999+99999GF108991051999008001999999MA1999999097071MD1710141+0511REMSYN06448304 32565 80105 10222 20155 39707 40172 57014 85576 333 58051=
0185483040999992016020609004+19867+099767FM-12+040199999V0200201N004619999999N012000199+02031+01411101621ADDGA1061+008001061GA2999+999999031GE19AGL   +99999+99999GF108991061999008001999999MA1999999096951MD1710121+0761REMSYN06448304 32562 80209 10203 20141 39695 40162 57012 8657/ 333 58076=
0204483040999992016020612004+19867+099767FM-12+040199999V0203601N002619999999N012000199+01901+01281101841ADDGA1061+008001061GA2999+999999031GE19AGL   +99999+99999GF108991061999008001999999KA1240M+02271MA1999999097141MD1210191+9999REMSYN07048304 32562 83605 10190 20128 39714 40184 52019 8657/ 333 10227 58088=
0185483040999992016020615004+19867+099767FM-12+040199999V0200501N001519999999N010000199+01801+01241102131ADDGA1061+012501061GA2999+999999031GE19AGL   +99999+99999GF108991061999012501999999MA1999999097391MD1210261+9999REMSYN06448304 32660 80503 10180 20124 39739 40213 52026 8657/ 333 58085=
0213483040999992016020618004+19867+099767FM-12+040199999V0209999C000019999999N007000199+01691+01261102251ADDAY121021AY221021GA1061+012501061GA2999+999999031GE19AGL   +99999+99999GF108991061999012501999999MA1999999097491MD1210101+9999MW1101REMSYN07048304 31657 80000 10169 20126 39749 40225 52010 71022 8657/ 333 58084=
0213483040999992016020621004+19867+099767FM-12+040199999V0200101N001519999999N006000199+01551+01281102211ADDAY121021AY221021GA1061+012501061GA2999+999999031GE19AGL   +99999+99999GF108991061999012501999999MA1999999097441MD1710061+9999MW1101REMSYN07048304 31656 80103 10155 20128 39744 40221 57006 71022 8657/ 333 58083=
0232483040999992016020700004+19867+099767FM-12+040199999V0200201N001519999999N005000199+01661+01101102251ADDAY121021AY221021GA1061+012501061GA2999+999999031GE19AGL   +99999+99999GF108991061999012501999999KA1120N+01551MA1999999097491MD1210051+0651MW1101REMSYN07648304 31650 80203 10166 20110 39749 40225 52005 71022 8657/ 333 20155 58065=
0201483040999992016020703004+19867+099767FM-12+040199999V0200301N001519999999N010000199+01921+01091102461ADDGA1011+012501081GA2999+999999031GA3999+999999021GE19AGL   +99999+99999GF105991011999012501999999MA1999999097731MD1210241+0551REMSYN06448304 32660 50303 10192 20109 39773 40246 52024 81146 333 58055=
0188483040999992016020706004+19867+099767FM-12+040199999V0200301N001019999999N012000199+02251+00981102261ADDGA1999+999999021GE19AGL   +99999+99999GF102991001999999999999999MA1999999097591MD1710131+0551REMSYN06448304 32962 20302 10225 20098 39759 40226 57013 80005 333 58055=EQDQ01    003SCCGA1
0125483040999992016020709004+19867+099767FM-12+040199999V0200701N001019999999N015000199+02401+00901101831ADDGF100995999999999999999999MA1999999097201MD1710391+0211REMSYN05848304 32965 00702 10240 20090 39720 40183 57039 333 58021=
0144483040999992016020712004+19867+099767FM-12+040199999V0209999C000019999999N010000199+01801+01201101961ADDGF100995999999999999999999KA1240M+02421MA1999999097231MD1110031+0121REMSYN06448304 32960 00000 10180 20120 39723 40196 51003 333 10242 58012=
0153483040999992016020715004+19867+099767FM-12+040199999V0209999C000019999999N008000199+01401+01101102321ADDAY101021AY201021GF100995999999999999999999MA1999999097511MD1210281+0191MW1101REMSYN06448304 31958 00000 10140 20110 39751 40232 52028 71000 333 58019=
0153483040999992016020718004+19867+099767FM-12+040199999V0209999C000019999999N006000199+01321+01151102221ADDAY101021AY201021GF100995999999999999999999MA1999999097401MD1710111-0031MW1101REMSYN06448304 31956 00000 10132 20115 39740 40222 57011 71000 333 59003=
0153483040999992016020721004+19867+099767FM-12+040199999V0209999C000019999999N004000199+01081+00981102141ADDAY101021AY201021GF100995999999999999999999MA1999999097281MD1710121-0081MW1101REMSYN06448304 31940 00000 10108 20098 39728 40214 57012 71000 333 59008=
0172483040999992016020800004+19867+099767FM-12+040199999V0209999C000019999999N002000199+00841+00771102291ADDAY101021AY201021GF100995999999999999999999KA1120N+00811MA1999999097391MD1210111+0041MW1101REMSYN07048304 31920 00000 10084 20077 39739 40229 52011 71000 333 20081 58004=
0153483040999992016020803004+19867+099767FM-12+040199999V0209999C000019999999N007000199+01711+01141102331ADDAY101021AY201021GF100995999999999999999999MA1999999097571MD1210181-0131MW1101REMSYN06448304 31957 00000 10171 20114 39757 40233 52018 71000 333 59013=
0125483040999992016020806004+19867+099767FM-12+040199999V0209999C000019999999N012000199+02371+00881101871ADDGF100995999999999999999999MA1999999097231MD1710341-0401REMSYN05848304 32962 00000 10237 20088 39723 40187 57034 333 59040=
0125483040999992016020809004+19867+099767FM-12+040199999V0209999C000019999999N015000199+02511+00691101511ADDGF100995999999999999999999MA1999999096921MD1710311-0321REMSYN05848304 32965 00000 10251 20069 39692 40151 57031 333 59032=
0144483040999992016020812004+19867+099767FM-12+040199999V0209999C000019999999N012000199+01831+01171101641ADDGF100995999999999999999999KA1240M+02541MA1999999096931MD1210021-0321REMSYN06448304 32962 00000 10183 20117 39693 40164 52002 333 10254 59032=
0125483040999992016020815004+19867+099767FM-12+040199999V0209999C000019999999N010000199+01321+01051101831ADDGF100995999999999999999999MA1999999097031MD1210101-0491REMSYN05848304 32960 00000 10132 20105 39703 40183 52010 333 59049=
0153483040999992016020818004+19867+099767FM-12+040199999V0209999C000019999999N004000199+00911+00801101831ADDAY101021AY201021GF100995999999999999999999MA1999999096971MD1710061-0381MW1101REMSYN06448304 31940 00000 10091 20080 39697 40183 57006 71000 333 59038=
0153483040999992016020821004+19867+099767FM-12+040199999V0209999C000019999999N002000199+00841+00771101801ADDAY101021AY201021GF100995999999999999999999MA1999999096931MD1710041-0331MW1101REMSYN06448304 31920 00000 10084 20077 39693 40180 57004 71000 333 59033=
0172483040999992016020900004+19867+099767FM-12+040199999V0209999C000019999999N002000199+00721+00651101961ADDAY101021AY201021GF100995999999999999999999KA1120N+00701MA1999999097051MD1210131-0341MW1101REMSYN07048304 31920 00000 10072 20065 39705 40196 52013 71000 333 20070 59034=
0153483040999992016020903004+19867+099767FM-12+040199999V0209999C000019999999N006000199+01621+00901102021ADDAY101021AY201021GF100995999999999999999999MA1999999097261MD1210211-0311MW1051REMSYN06448304 31956 00000 10162 20090 39726 40202 52021 70500 333 59031=
0125483040999992016020906004+19867+099767FM-12+040199999V0201201N003119999999N012000199+02301+01021101591ADDGF100995999999999999999999MA1999999096961MD1710301-0271REMSYN05848304 32962 01206 10230 20102 39696 40159 57030 333 59027=
0125483040999992016020909004+19867+099767FM-12+040199999V0201201N001519999999N015000199+02671+01031101221ADDGF100995999999999999999999MA1999999096661MD1710301-0301REMSYN05848304 32965 01203 10267 20103 39666 40122 57030 333 59030=
0144483040999992016020912004+19867+099767FM-12+040199999V0209999C000019999999N012000199+01851+01281101281ADDGF100995999999999999999999KA1240M+02721MA1999999096601MD1510061-0361REMSYN06448304 32962 00000 10185 20128 39660 40128 55006 333 10272 59036=
0125483040999992016020915004+19867+099767FM-12+040199999V0209999C000019999999N010000199+01331+01121101501ADDGF100995999999999999999999MA1999999096721MD1210121-0331REMSYN05848304 32960 00000 10133 20112 39672 40150 52012 333 59033=
0153483040999992016020918004+19867+099767FM-12+040199999V0209999C000019999999N006000199+01111+01011101531ADDAY101021AY201021GF100995999999999999999999MA1999999096711MD1710011-0311MW1101REMSYN06448304 31956 00000 10111 20101 39671 40153 57001 71000 333 59031=
0153483040999992016020921004+19867+099767FM-12+040199999V0209999C000019999999N002000199+01011+00951101511ADDAY101021AY201021GF100995999999999999999999MA1999999096681MD1710031-0291MW1101REMSYN06448304 31920 00000 10101 20095 39668 40151 57003 71000 333 59029=
0172483040999992016021000004+19867+099767FM-12+040199999V0209999C000019999999N002000199+00881+00841101641ADDAY101021AY201021GF100995999999999999999999KA1120N+00841MA1999999096781MD1210101-0321MW1101REMSYN07048304 31920 00000 10088 20084 39678 40164 52010 71000 333 20084 59032=
0153483040999992016021003004+19867+099767FM-12+040199999V0209999C000019999999N003000199+01711+01161101691ADDAY101021AY201021GF100995999999999999999999MA1999999096961MD1210191-0331MW1101REMSYN06448304 31930 00000 10171 20116 39696 40169 52019 71000 333 59033=
0153483040999992016021006004+19867+099767FM-12+040199999V0209999C000019999999N008000199+02541+01191101231ADDAY101021AY201021GF100995999999999999999999MA1999999096651MD1710311-0361MW1051REMSYN06448304 31958 00000 10254 20119 39665 40123 57031 70500 333 59036=
0153483040999992016021009004+19867+099767FM-12+040199999V0209999C000019999999N008000199+02901+01271100901ADDAY101021AY201021GF100995999999999999999999MA1999999096391MD1710261-0321MW1051REMSYN06448304 31958 00000 10290 20127 39639 40090 57026 70500 333 59032=
0172483040999992016021012004+19867+099767FM-12+040199999V0209999C000019999999N005000199+02021+01361101051ADDAY101021AY201021GF100995999999999999999999KA1240M+02901MA1999999096401MD1210011-0241MW1101REMSYN07048304 31950 00000 10202 20136 39640 40105 52001 71000 333 10290 59024=
0153483040999992016021015004+19867+099767FM-12+040199999V0209999C000019999999N005000199+01601+01371101261ADDAY101021AY201021GF100995999999999999999999MA1999999096531MD1210141-0241MW1101REMSYN06448304 31950 00000 10160 20137 39653 40126 52014 71000 333 59024=
0153483040999992016021018004+19867+099767FM-12+040199999V0209999C000019999999N004000199+01251+01141101301ADDAY101021AY201021GF100995999999999999999999MA1999999096521MD1610021-0231MW1101REMSYN06448304 31940 00000 10125 20114 39652 40130 56002 71000 333 59023=
0153483040999992016021021004+19867+099767FM-12+040199999V0209999C000019999999N004000199+01141+01061101331ADDAY101021AY201021GF100995999999999999999999MA1999999096531MD1110011-0181MW1101REMSYN06448304 31940 00000 10114 20106 39653 40133 51001 71000 333 59018=
0172483040999992016021100004+19867+099767FM-12+040199999V0209999C000019999999N004000199+01091+01031101501ADDAY101021AY201021GF100995999999999999999999KA1120N+01041MA1999999096681MD1210151-0141MW1101REMSYN07048304 31940 00000 10109 20103 39668 40150 52015 71000 333 20104 59014=
0153483040999992016021103004+19867+099767FM-12+040199999V0209999C000019999999N004000199+01861+01391101531ADDAY101021AY201021GF100995999999999999999999MA1999999096831MD1210151-0161MW1101REMSYN06448304 31940 00000 10186 20139 39683 40153 52015 71000 333 59016=
0153483040999992016021106004+19867+099767FM-12+040199999V0209999C000019999999N005000199+02631+01291101101ADDAY101021AY201021GF100995999999999999999999MA1999999096541MD1710301-0131MW1051REMSYN06448304 31950 00000 10263 20129 39654 40110 57030 70500 333 59013=
0153483040999992016021109004+19867+099767FM-12+040199999V0209999C000019999999N006000199+02971+01261100781ADDAY101021AY201021GF100995999999999999999999MA1999999096281MD1710251-0121MW1051REMSYN06448304 31956 00000 10297 20126 39628 40078 57025 70500 333 59012=
0172483040999992016021112004+19867+099767FM-12+040199999V0209999C000019999999N005000199+02131+01521100891ADDAY101021AY201021GF100995999999999999999999KA1240M+03011MA1999999096271MD1610021-0151MW1101REMSYN07048304 31950 00000 10213 20152 39627 40089 56002 71000 333 10301 59015=
0153483040999992016021115004+19867+099767FM-12+040199999V0209999C000019999999N004000199+01551+01331101131ADDAY101021AY201021GF100995999999999999999999MA1999999096401MD1210141-0131MW1101REMSYN06448304 31940 00000 10155 20133 39640 40113 52014 71000 333 59013=
0153483040999992016021118004+19867+099767FM-12+040199999V0209999C000019999999N004000199+01341+01211101211ADDAY101021AY201021GF100995999999999999999999MA1999999096441MD1110041-0091MW1101REMSYN06448304 31940 00000 10134 20121 39644 40121 51004 71000 333 59009=
0153483040999992016021121004+19867+099767FM-12+040199999V0209999C000019999999N004000199+01171+01071101271ADDAY101021AY201021GF100995999999999999999999MA1999999096481MD1210031-0061MW1101REMSYN06448304 31940 00000 10117 20107 39648 40127 52003 71000 333 59006=
0172483040999992016021200004+19867+099767FM-12+040199999V0209999C000019999999N003000199+01121+01061101481ADDAY101021AY201021GF100995999999999999999999KA1120N+01081MA1999999096661MD1210191-0021MW1101REMSYN07048304 31930 00000 10112 20106 39666 40148 52019 71000 333 20108 59002=
0153483040999992016021203004+19867+099767FM-12+040199999V0209999C000019999999N005000199+01921+01401101501ADDAY101021AY201021GF100995999999999999999999MA1999999096821MD1210151-0031MW1101REMSYN06448304 31950 00000 10192 20140 39682 40150 52015 71000 333 59003=
0153483040999992016021206004+19867+099767FM-12+040199999V0209999C000019999999N006000199+02851+01241101061ADDAY101021AY201021GF100995999999999999999999MA1999999096531MD1710281-0041MW1051REMSYN06448304 31956 00000 10285 20124 39653 40106 57028 70500 333 59004=
0153483040999992016021209004+19867+099767FM-12+040199999V0209999C000019999999N007000199+03111+01371100751ADDAY101021AY201021GF100995999999999999999999MA1999999096271MD1710261-0031MW1051REMSYN06448304 31957 00000 10311 20137 39627 40075 57026 70500 333 59003=
0159483040999992016021212004+19867+099767FM-12+040199999V0209999C000019999999N005000199+02211+01481100981ADDAY101021AY201021GF100995999999999999999999MA1999999096361MD1210091+0091MW1051REMSYN07048304 31950 00000 10221 20148 39636 40098 52009 70500 333 10313 58009=
0153483040999992016021215004+19867+099767FM-12+040199999V0209999C000019999999N004000199+01651+01461101211ADDAY101021AY201021GF100995999999999999999999MA1999999096501MD1210131+0081MW1101REMSYN06448304 31940 00000 10165 20146 39650 40121 52013 71000 333 58008=
0153483040999992016021218004+19867+099767FM-12+040199999V0209999C000019999999N004000199+01501+01371101281ADDAY101021AY201021GF100995999999999999999999MA1999999096541MD1110041+0071MW1101REMSYN06448304 31940 00000 10150 20137 39654 40128 51004 71000 333 58007=
0153483040999992016021221004+19867+099767FM-12+040199999V0209999C000019999999N003000199+01341+01251101291ADDAY101021AY201021GF100995999999999999999999MA1999999096521MD1610021+0021MW1101REMSYN06448304 31930 00000 10134 20125 39652 40129 56002 71000 333 58002=
0172483040999992016021300004+19867+099767FM-12+040199999V0209999C000019999999N005000199+01311+01231101451ADDAY101021AY201021GF100995999999999999999999KA1120N+01261MA1999999096671MD1210151-0031MW1101REMSYN07048304 31950 00000 10131 20123 39667 40145 52015 71000 333 20126 59003=
0153483040999992016021303004+19867+099767FM-12+040199999V0201201N001519999999N006000199+02101+01491101541ADDAY101021AY201021GF100995999999999999999999MA1999999096881MD1210201+0031MW1101REMSYN06448304 31956 01203 10210 20149 39688 40154 52020 71000 333 58003=
0153483040999992016021306004+19867+099767FM-12+040199999V0201401N001019999999N007000199+02781+01471101141ADDAY101021AY201021GF100995999999999999999999MA1999999096601MD1710271+0081MW1051REMSYN06448304 31957 01402 10278 20147 39660 40114 57027 70500 333 58008=
0153483040999992016021309004+19867+099767FM-12+040199999V0209999C000019999999N007000199+03111+01591100831ADDAY101021AY201021GF100995999999999999999999MA1999999096351MD1710251+0081MW1051REMSYN06448304 31957 00000 10311 20159 39635 40083 57025 70500 333 58008=
0172483040999992016021312004+19867+099767FM-12+040199999V0209999C000019999999N006000199+02501+01751100971ADDAY101021AY201021GF100995999999999999999999KA1240M+03131MA1999999096401MD1210051-0011MW1051REMSYN07048304 31956 00000 10250 20175 39640 40097 52005 70500 333 10313 59001=
0153483040999992016021315004+19867+099767FM-12+040199999V0209999C000019999999N004000199+01961+01681101161ADDAY101021AY201021GF100995999999999999999999MA1999999096501MD1210101-0051MW1101REMSYN06448304 31940 00000 10196 20168 39650 40116 52010 71000 333 59005=
0153483040999992016021318004+19867+099767FM-12+040199999V0209999C000019999999N003000199+01651+01531101211ADDAY101021AY201021GF100995999999999999999999MA1999999096501MD1410001-0071MW1101REMSYN06448304 31930 00000 10165 20153 39650 40121 54000 71000 333 59007=
0153483040999992016021321004+19867+099767FM-12+040199999V0209999C000019999999N002000199+01501+01431101231ADDAY101021AY201021GF100995999999999999999999MA1999999096491MD1410001-0051MW1101REMSYN06448304 31920 00000 10150 20143 39649 40123 54000 71000 333 59005=
0172483040999992016021400004+19867+099767FM-12+040199999V0209999C000019999999N002000199+01381+01321101401ADDAY101021AY201021GF100995999999999999999999KA1120N+01321MA1999999096631MD1210141-0051MW1101REMSYN07048304 31920 00000 10138 20132 39663 40140 52014 71000 333 20132 59005=
0153483040999992016021403004+19867+099767FM-12+040199999V0209999C000019999999N003000199+02341+01731101481ADDAY101021AY201021GF100995999999999999999999MA1999999096861MD1210231-0051MW1101REMSYN06448304 31930 00000 10234 20173 39686 40148 52023 71000 333 59005=
0153483040999992016021406004+19867+099767FM-12+040199999V0200801N001519999999N006000199+03001+01741101151ADDAY101021AY201021GF100995999999999999999999MA1999999096641MD1710221+0011MW1051REMSYN06448304 31956 00803 10300 20174 39664 40115 57022 70500 333 58001=
0153483040999992016021409004+19867+099767FM-12+040199999V0209999C000019999999N008000199+03201+01361100841ADDAY101021AY201021GF100995999999999999999999MA1999999096381MD1710271+0021MW1051REMSYN06448304 31958 00000 10320 20136 39638 40084 57027 70500 333 58002=
0159483040999992016021412004+19867+099767FM-12+040199999V0209999C000019999999N004000199+02281+01551101071ADDAY101021AY201021GF100995999999999999999999MA1999999096461MD1210081+0101MW1051REMSYN07048304 31940 00000 10228 20155 39646 40107 52008 70500 333 10322 58010=
0153483040999992016021415004+19867+099767FM-12+040199999V0209999C000019999999N004000199+01861+01621101401ADDAY101021AY201021GF100995999999999999999999MA1999999096711MD1210251+0241MW1101REMSYN06448304 31940 00000 10186 20162 39671 40140 52025 71000 333 58024=
