0163527870999992016010100004+37200+102867FM-12+304499999V0202501N003019999999N030000199-00681-02351999999ADDGA1011+999999999GE19AGL   +99999+99999GF101991011999999999999999MA1999999070551MD1710011+9999REMSYN05852787 32980 12503 11068 21235 37055 57001 81/// 333 00151=
0109527870999992016010103004+37200+102867FM-12+304499999V0202901N008019999999N030000199-00101-02591999999ADDGF100995999999999999999999MA1999999070551MD1410001+9999REMSYN04252787 32980 02908 11010 21259 37055 54000=
0138527870999992016010106004+37200+102867FM-12+304499999V0202901N007019999999N028000199+00131-02701999999ADDGF100995999999999999999999KA1240N-00901MA1999999070341MD1710211+9999REMSYN05852787 32978 02907 10013 21270 37034 57021 333 05104 21090=
0119527870999992016010109004+37200+102867FM-12+304499999V0202701N008019999999N030000199+00081-02541999999ADDGF100995999999999999999999MA1999999070351MD1210011+9999REMSYN05252787 32980 02708 10008 21254 37035 52001 333 05205=
0119527870999992016010112004+37200+102867FM-12+304499999V0202701N002019999999N030000199-00241-02481999999ADDGF100995999999999999999999MA1999999070461MD1210111+9999REMSYN05252787 32980 02702 11024 21248 37046 52011 333 05305=
0138527870999992016010118004+37200+102867FM-12+304499999V0203401N00601002401CN030000199-00491-02621999999ADDGF109991999999999999999999KA1120M+00161MA1999999070401MD1710101+9999REMSYN05852787 32/80 93406 11049 21262 37040 57010 333 05202 10016=
0119527870999992016010121004+37200+102867FM-12+304499999V0201101N00101002401CN030000199-00631-02671999999ADDGF109991999999999999999999MA1999999070341MD1710061+9999REMSYN05252787 32/80 91101 11063 21267 37034 57006 333 05201=
0119527870999992016010200004+37200+102867FM-12+304499999V0201601N005019999999N030000199-00791-02591999999ADDGF100995999999999999999999MA1999999070331MD1710011+9999REMSYN05252787 32980 01605 11079 21259 37033 57001 333 05251=
0109527870999992016010203004+37200+102867FM-12+304499999V0201601N005019999999N030000199-00081-02671999999ADDGF100995999999999999999999MA1999999070401MD1210071+9999REMSYN04252787 32980 01605 11008 21267 37040 52007=
0138527870999992016010206004+37200+102867FM-12+304499999V0201601N002019999999N030000199+00161-02671999999ADDGF100995999999999999999999KA1240N-00881MA1999999070221MD1710181+9999REMSYN05852787 32980 01602 10016 21267 37022 57018 333 05100 21088=
0163527870999992016010209004+37200+102867FM-12+304499999V0203601N006019999999N030000199-00131-02621999999ADDGA1061+999999999GE19AGL   +99999+99999GF106991061999999999999999MA1999999070211MD1710011+9999REMSYN05852787 32980 63606 11013 21262 37021 57001 86/// 333 05152=
0163527870999992016010212004+37200+102867FM-12+304499999V0200201N010019999999N030000199-00631-02101999999ADDGA1071+999999999GE19AGL   +99999+99999GF107991071999999999999999MA1999999070381MD1210171+9999REMSYN05852787 32980 70210 11063 21210 37038 52017 87/// 333 05154=
0138527870999992016010218004+37200+102867FM-12+304499999V0203201N00501002401CN030000199-00891-02331999999ADDGF109991999999999999999999KA1120M+00261MA1999999070431MD1710061+9999REMSYN05852787 32/80 93205 11089 21233 37043 57006 333 00054 10026=
0119527870999992016010221004+37200+102867FM-12+304499999V0203201N00301002401CN030000199-00811-02381999999ADDGF109991999999999999999999MA1999999070361MD1710071+9999REMSYN05252787 32/80 93203 11081 21238 37036 57007 333 00052=
0163527870999992016010300004+37200+102867FM-12+304499999V0202501N002019999999N030000199-00681-01901999999ADDGA1071+999999999GE19AGL   +99999+99999GF107991071999999999999999MA1999999070361MD1410001+9999REMSYN05852787 32980 72502 11068 21190 37036 54000 87/// 333 00001=
0153527870999992016010303004+37200+102867FM-12+304499999V0201401N003019999999N030000199-00271-02041999999ADDGA1031+999999999GE19AGL   +99999+99999GF103991031999999999999999MA1999999070411MD1210051+9999REMSYN04852787 32980 31403 11027 21204 37041 52005 83///=
0182527870999992016010306004+37200+102867FM-12+304499999V0201801N003019999999N024000199-00051-02071999999ADDGA1071+999999999GE19AGL   +99999+99999GF107991071999999999999999KA1240N-01141MA1999999070181MD1710231+9999REMSYN06452787 32974 71803 11005 21207 37018 57023 87/// 333 00052 21114=
0163527870999992016010309004+37200+102867FM-12+304499999V0203601N006019999999N030000199-00451-01901999999ADDGA1071+999999999GE19AGL   +99999+99999GF107991071999999999999999MA1999999070171MD1710011+9999REMSYN05852787 32980 73606 11045 21190 37017 57001 87/// 333 00053=
0163527870999992016010312004+37200+102867FM-12+304499999V0202901N001019999999N030000199-00761-01971999999ADDGA1071+999999999GE19AGL   +99999+99999GF107991071999999999999999MA1999999070301MD1210131+9999REMSYN05852787 32980 72901 11076 21197 37030 52013 87/// 333 05151=
0138527870999992016010318004+37200+102867FM-12+304499999V0201601N00401002401CN030000199-01031-01871999999ADDGF109991999999999999999999KA1120M-00021MA1999999070191MD1710071+9999REMSYN05852787 32/80 91604 11103 21187 37019 57007 333 05251 11002=
0119527870999992016010321004+37200+102867FM-12+304499999V0203401N00201002401CN030000199-01051-01861999999ADDGF109991999999999999999999MA1999999070171MD1710021+9999REMSYN05252787 32/80 93402 11105 21186 37017 57002 333 05252=
0119527870999992016010400004+37200+102867FM-12+304499999V0203201N002019999999N030000199-01201-01981999999ADDGF100995999999999999999999MA1999999070161MD1710011+9999REMSYN05252787 32980 03202 11120 21198 37016 57001 333 05255=
0109527870999992016010403004+37200+102867FM-12+304499999V0201601N005019999999N030000199-00581-01781999999ADDGF100995999999999999999999MA1999999070201MD1210041+9999REMSYN04252787 32980 01605 11058 21178 37020 52004=
0182527870999992016010406004+37200+102867FM-12+304499999V0203401N012019999999N030000199-00721-01651999999ADDGA1071+999999999GE19AGL   +99999+99999GF107991071999999999999999KA1240N-01211MA1999999070041MD1710161+9999REMSYN06452787 32980 73412 11072 21165 37004 57016 87/// 333 05157 21121=
0163527870999992016010409004+37200+102867FM-12+304499999V0200201N007019999999N030000199-00861-01891999999ADDGA1081+017501999GE19AGL   +99999+99999GF108991081999017501999999MA1999999070101MD1210061+9999REMSYN05852787 32780 80207 11086 21189 37010 52006 88/// 333 05154=
0208527870999992016010412004+37200+102867FM-12+304499999V0203201N007019999999N015000199-01301-01461999999ADDAA106000021AY101021AY201021GA1081+017501999GE19AGL   +99999+99999GF108991081999017501999999MA1999999070151MD1210051+9999MW1701REMSYN07052787 11765 83207 11130 21146 37015 52005 69901 77000 88/// 333 05255=
0155527870999992016010418004+37200+102867FM-12+304499999V0201101N00701002401CN026000199-01101-01311999999ADDAA106000231GF109991999999999999999999KA1120M-00551MA1999999069961MD1710191+9999REMSYN06452787 12/76 91107 11110 21131 36996 57019 69921 333 05251 11055=
0148527870999992016010421004+37200+102867FM-12+304499999V0201401N00201001201CN000500199-01451-01621999999ADDAA124000231GF109991999999999999999999MA1999999069891MD1710071+9999MW1461REMSYN06452787 31/05 91402 11145 21162 36989 57007 746// 333 05354 70002=
0171527870999992016010500004+37200+102867FM-12+304499999V0201601N002019999999N999999999-01391-01561999999ADDAA112000231AA224000231GF100995999999999999999999MA1999999069871MD1710021+9999MW1101REMSYN07652787 11755 01602 11139 21156 36987 57002 69922 710// 333 05352 70002 92500=
0109527870999992016010503004+37200+102867FM-12+304499999V0202901N001019999999N030000199-01001-01151999999ADDGF100995999999999999999999MA1999999069951MD1210081+9999REMSYN04252787 32980 02901 11100 21115 36995 52008=
0182527870999992016010506004+37200+102867FM-12+304499999V0203601N005019999999N030000199-00461-02111999999ADDGA1011+999999999GE19AGL   +99999+99999GF101991011999999999999999KA1240N-01451MA1999999069831MD1710121+9999REMSYN06452787 32980 13605 11046 21211 36983 57012 81/// 333 05203 21145=
0163527870999992016010509004+37200+102867FM-12+304499999V0200201N006019999999N030000199-00551-02151999999ADDGA1041+999999999GE19AGL   +99999+99999GF104991041999999999999999MA1999999069921MD1210091+9999REMSYN05852787 32980 40206 11055 21215 36992 52009 84/// 333 05203=
0119527870999992016010512004+37200+102867FM-12+304499999V0203201N004019999999N030000199-01211-01921999999ADDGF100995999999999999999999MA1999999070131MD1210211+9999REMSYN05252787 32980 03204 11121 21192 37013 52021 333 00001=
0138527870999992016010518004+37200+102867FM-12+304499999V0203601N00501002401CN030000199-00821-02091999999ADDGF109991999999999999999999KA1120M-00381MA1999999070291MD1210031+9999REMSYN05852787 32/80 93605 11082 21209 37029 52003 333 00303 11038=
0119527870999992016010521004+37200+102867FM-12+304499999V0200201N00601002401CN030000199-00941-02131999999ADDGF109991999999999999999999MA1999999070331MD1210041+9999REMSYN05252787 32/80 90206 11094 21213 37033 52004 333 00405=
0119527870999992016010600004+37200+102867FM-12+304499999V0203201N003019999999N030000199-01501-02211999999ADDGF100995999999999999999999MA1999999070431MD1210101+9999REMSYN05252787 32980 03203 11150 21221 37043 52010 333 00651=
0153527870999992016010603004+37200+102867FM-12+304499999V0201601N005019999999N030000199-00681-01931999999ADDGA1021+999999999GE19AGL   +99999+99999GF102991021999999999999999MA1999999070531MD1210101+9999REMSYN04852787 32980 21605 11068 21193 37053 52010 82///=
0182527870999992016010606004+37200+102867FM-12+304499999V0201601N005019999999N030000199-00401-01821999999ADDGA1071+999999999GE19AGL   +99999+99999GF107991071999999999999999KA1240N-01511MA1999999070311MD1710221+9999REMSYN06452787 32980 71605 11040 21182 37031 57022 87/// 333 00501 21151=
0163527870999992016010609004+37200+102867FM-12+304499999V0203401N007019999999N030000199-00741-01651999999ADDGA1071+999999999GE19AGL   +99999+99999GF107991071999999999999999MA1999999070341MD1210031+9999REMSYN05852787 32980 73407 11074 21165 37034 52003 87/// 333 00452=
0163527870999992016010612004+37200+102867FM-12+304499999V0203201N004019999999N030000199-01221-01651999999ADDGA1071+999999999GE19AGL   +99999+99999GF107991071999999999999999MA1999999070521MD1210181+9999REMSYN05852787 32980 73204 11122 21165 37052 52018 87/// 333 00400=
0138527870999992016010618004+37200+102867FM-12+304499999V0201401N00401002401CN030000199-01191-01501999999ADDGF109991999999999999999999KA1120M-00311MA1999999070431MD1710151+9999REMSYN05852787 32/80 91404 11119 21150 37043 57015 333 00154 11031=
0119527870999992016010621004+37200+102867FM-12+304499999V0201601N00201002401CN030000199-01271-01551999999ADDGF109991999999999999999999MA1999999070371MD1710061+9999REMSYN05252787 32/80 91602 11127 21155 37037 57006 333 00053=
0119527870999992016010700004+37200+102867FM-12+304499999V0202701N002019999999N030000199-00981-01641999999ADDGF100995999999999999999999MA1999999070331MD1710041+9999REMSYN05252787 32980 02702 11098 21164 37033 57004 333 05105=
0109527870999992016010703004+37200+102867FM-12+304499999V0203201N005019999999N030000199-00591-01581999999ADDGF100995999999999999999999MA1999999070361MD1210031+9999REMSYN04252787 32980 03205 11059 21158 37036 52003=
0138527870999992016010706004+37200+102867FM-12+304499999V0203401N003019999999N030000199-00221-01591999999ADDGF100995999999999999999999KA1240N-01281MA1999999070201MD1710161+9999REMSYN05852787 32980 03403 11022 21159 37020 57016 333 05102 21128=
0163527870999992016010709004+37200+102867FM-12+304499999V0203201N003019999999N030000199-00381-01661999999ADDGA1071+999999999GE19AGL   +99999+99999GF107991071999999999999999MA1999999070211MD1210011+9999REMSYN05852787 32980 73203 11038 21166 37021 52001 87/// 333 05104=
0119527870999992016010712004+37200+102867FM-12+304499999V0201101N001019999999N030000199-00751-01711999999ADDGF100995999999999999999999MA1999999070291MD1210081+9999REMSYN05252787 32980 01101 11075 21171 37029 52008 333 05205=
0138527870999992016010718004+37200+102867FM-12+304499999V0201401N00101002401CN030000199-00821-01991999999ADDGF109991999999999999999999KA1120M-00111MA1999999070191MD1710091+9999REMSYN05852787 32/80 91401 11082 21199 37019 57009 333 05204 11011=
0119527870999992016010721004+37200+102867FM-12+304499999V0202501N00501002401CN030000199-00741-02161999999ADDGF109991999999999999999999MA1999999070081MD1710111+9999REMSYN05252787 32/80 92505 11074 21216 37008 57011 333 05305=
0119527870999992016010800004+37200+102867FM-12+304499999V0202901N001019999999N030000199-00851-02251999999ADDGF100995999999999999999999MA1999999070061MD1710021+9999REMSYN05252787 32980 02901 11085 21225 37006 57002 333 05301=
0109527870999992016010803004+37200+102867FM-12+304499999V0201401N003019999999N030000199-00291-02211999999ADDGF100995999999999999999999MA1999999070131MD1210071+9999REMSYN04252787 32980 01403 11029 21221 37013 52007=
0182527870999992016010806004+37200+102867FM-12+304499999V0201401N007019999999N030000199-00181-02301999999ADDGA1071+999999999GE19AGL   +99999+99999GF107991071999999999999999KA1240N-00891MA1999999069911MD1710221+9999REMSYN06452787 32980 71407 11018 21230 36991 57022 87/// 333 05300 21089=
0163527870999992016010809004+37200+102867FM-12+304499999V0203401N005019999999N030000199-00461-01991999999ADDGA1021+999999999GE19AGL   +99999+99999GF102991021999999999999999MA1999999069901MD1710011+9999REMSYN05852787 32980 23405 11046 21199 36990 57001 82/// 333 05351=
0119527870999992016010812004+37200+102867FM-12+304499999V0200201N005019999999N030000199-00701-02321999999ADDGF100995999999999999999999MA1999999070011MD1210111+9999REMSYN05252787 32980 00205 11070 21232 37001 52011 333 05301=
0138527870999992016010818004+37200+102867FM-12+304499999V0201101N00201002401CN030000199-00961-02121999999ADDGF109991999999999999999999KA1120M-00041MA1999999069931MD1710081+9999REMSYN05852787 32/80 91102 11096 21212 36993 57008 333 05351 11004=
0119527870999992016010821004+37200+102867FM-12+304499999V0202701N00201002401CN030000199-00921-02251999999ADDGF109991999999999999999999MA1999999069861MD1710071+9999REMSYN05252787 32/80 92702 11092 21225 36986 57007 333 05252=
0119527870999992016010900004+37200+102867FM-12+304499999V0203401N003019999999N030000199-00981-02371999999ADDGF100995999999999999999999MA1999999069911MD1210051+9999REMSYN05252787 32980 03403 11098 21237 36991 52005 333 05251=
0109527870999992016010903004+37200+102867FM-12+304499999V0203201N001019999999N030000199-00321-02191999999ADDGF100995999999999999999999MA1999999070041MD1210131+9999REMSYN04252787 32980 03201 11032 21219 37004 52013=
0138527870999992016010906004+37200+102867FM-12+304499999V0203601N005019999999N030000199-00051-02471999999ADDGF100995999999999999999999KA1240N-01041MA1999999069891MD1710151+9999REMSYN05852787 32980 03605 11005 21247 36989 57015 333 00001 21104=
0119527870999992016010909004+37200+102867FM-12+304499999V0203601N008019999999N030000199-00401-02361999999ADDGF100995999999999999999999MA1999999069981MD1210091+9999REMSYN05252787 32980 03608 11040 21236 36998 52009 333 00101=
0119527870999992016010912004+37200+102867FM-12+304499999V0203201N004019999999N030000199-01111-01921999999ADDGF100995999999999999999999MA1999999070141MD1210161+9999REMSYN05252787 32980 03204 11111 21192 37014 52016 333 00154=
0138527870999992016010918004+37200+102867FM-12+304499999V0201601N00301002401CN030000199-01131-02221999999ADDGF109991999999999999999999KA1120M+00001MA1999999070141MD1710031+9999REMSYN05852787 32/80 91603 11113 21222 37014 57003 333 00252 10000=
0119527870999992016010921004+37200+102867FM-12+304499999V0201401N00201002401CN030000199-01171-02201999999ADDGF109991999999999999999999MA1999999070071MD1710071+9999REMSYN05252787 32/80 91402 11117 21220 37007 57007 333 00253=
0163527870999992016011000004+37200+102867FM-12+304499999V0203201N004019999999N030000199-01691-01991999999ADDGA1071+999999999GE19AGL   +99999+99999GF107991071999999999999999MA1999999070141MD1210071+9999REMSYN05852787 32980 73204 11169 21199 37014 52007 87/// 333 00257=
0153527870999992016011003004+37200+102867FM-12+304499999V0203401N005019999999N030000199-00901-01921999999ADDGA1021+999999999GE19AGL   +99999+99999GF102991021999999999999999MA1999999070231MD1210091+9999REMSYN04852787 32980 23405 11090 21192 37023 52009 82///=
0182527870999992016011006004+37200+102867FM-12+304499999V0203401N007019999999N030000199-00661-02201999999ADDGA1071+999999999GE19AGL   +99999+99999GF107991071999999999999999KA1240N-01731MA1999999070081MD1710151+9999REMSYN06452787 32980 73407 11066 21220 37008 57015 87/// 333 00256 21173=
0163527870999992016011009004+37200+102867FM-12+304499999V0203201N005019999999N030000199-01031-01591999999ADDGA1071+017501999GE19AGL   +99999+99999GF107991071999017501999999MA1999999070151MD1210071+9999REMSYN05852787 32780 73205 11103 21159 37015 52007 87/// 333 00256=
0163527870999992016011012004+37200+102867FM-12+304499999V0201401N010019999999N030000199-01071-01651999999ADDGA1071+017501999GE19AGL   +99999+99999GF107991071999017501999999MA1999999070201MD1210051+9999REMSYN05852787 32780 71410 11107 21165 37020 52005 87/// 333 00100=
0166527870999992016011018004+37200+102867FM-12+304499999V0201601N00701002401CN004100199-01341-01511999999ADDAY101021AY201021GF109991999999999999999999KA1120M-00631MA1999999069881MD1710261+9999MW1101REMSYN06452787 31/41 91607 11134 21151 36988 57026 71000 333 05352 11063=
0131527870999992016011021004+37200+102867FM-12+304499999V0201601N00401002401CN002000199-01351-01521999999ADDGF109991999999999999999999MA1999999069701MD1710181+9999MW1101REMSYN05852787 31/20 91604 11135 21152 36970 57018 710// 333 05452=
0232527870999992016011100004+37200+102867FM-12+304499999V0203601N001019999999N003100199-01321-01491999999ADDAA112000091AA224000091GA1071+017501999GE19AGL   +99999+99999GF107991071999017501999999MA1999999069651MD1710051+9999REMSYN07052787 12731 73601 11132 21149 36965 57005 69902 87/// 333 05504 79999=EQDQ01  00002PRCP12Q02  00002PRCP24
0153527870999992016011103004+37200+102867FM-12+304499999V0203401N003019999999N018000199-00761-01571999999ADDGA1071+999999999GE19AGL   +99999+99999GF107991071999999999999999MA1999999069711MD1210061+9999REMSYN04852787 32968 73403 11076 21157 36971 52006 87///=
0182527870999992016011106004+37200+102867FM-12+304499999V0203601N005019999999N030000199-00431-02501999999ADDGA1071+999999999GE19AGL   +99999+99999GF107991071999999999999999KA1240N-01521MA1999999069581MD1710131+9999REMSYN06452787 32980 73605 11043 21250 36958 57013 87/// 333 05502 21152=
0163527870999992016011109004+37200+102867FM-12+304499999V0203601N008019999999N030000199-00871-02041999999ADDGA1071+017501999GE19AGL   +99999+99999GF107991071999017501999999MA1999999069731MD1210151+9999REMSYN05852787 32780 73608 11087 21204 36973 52015 87/// 333 05402=
0163527870999992016011112004+37200+102867FM-12+304499999V0203601N010019999999N030000199-01331-01591999999ADDGA1081+017501999GE19AGL   +99999+99999GF108991081999017501999999MA1999999069901MD1210171+9999REMSYN05852787 32780 83610 11133 21159 36990 52017 88/// 333 05353=
0155527870999992016011118004+37200+102867FM-12+304499999V0203401N00501002401CN030000199-01591-01801999999ADDAA106000431GF109991999999999999999999KA1120M-00401MA1999999069991MD1710041+9999REMSYN06452787 12/80 93405 11159 21180 36999 57004 69941 333 00153 11040=
0136527870999992016011121004+37200+102867FM-12+304499999V0203201N00401002401CN030000199-01611-01841999999ADDAA124000831GF109991999999999999999999MA1999999069991MD1410001+9999REMSYN05852787 42/80 93204 11161 21184 36999 54000 333 00353 70008=
0203527870999992016011200004+37200+102867FM-12+304499999V0200201N005019999999N030000199-01411-02011999999ADDAA106000431AA224000831GA1071+999999999GE19AGL   +99999+99999GF107991071999999999999999MA1999999070001MD1210011+9999REMSYN07652787 12980 70205 11141 21201 37000 52001 69941 87/// 333 00451 70008 92501=
0153527870999992016011203004+37200+102867FM-12+304499999V0203201N003019999999N030000199-01321-01891999999ADDGA1021+999999999GE19AGL   +99999+99999GF102991021999999999999999MA1999999070101MD1210101+9999REMSYN04852787 32980 23203 11132 21189 37010 52010 82///=
0182527870999992016011206004+37200+102867FM-12+304499999V0203201N004019999999N030000199-01021-01701999999ADDGA1021+999999999GE19AGL   +99999+99999GF102991021999999999999999KA1240N-01691MA1999999069931MD1710171+9999REMSYN06452787 32980 23204 11102 21170 36993 57017 82/// 333 00456 21169=
0163527870999992016011209004+37200+102867FM-12+304499999V0203601N005019999999N030000199-01151-01611999999ADDGA1071+017501999GE19AGL   +99999+99999GF107991071999017501999999MA1999999070021MD1210091+9999REMSYN05852787 32780 73605 11115 21161 37002 52009 87/// 333 00353=
0119527870999992016011212004+37200+102867FM-12+304499999V0203201N002019999999N030000199-01601-02111999999ADDGF100995999999999999999999MA1999999070161MD1210141+9999REMSYN05252787 32980 03202 11160 21211 37016 52014 333 00353=
0138527870999992016011218004+37200+102867FM-12+304499999V0201101N00201002401CN030000199-01651-02091999999ADDGF109991999999999999999999KA1120M-01001MA1999999070051MD1710121+9999REMSYN05852787 32/80 91102 11165 21209 37005 57012 333 00151 11100=
0119527870999992016011221004+37200+102867FM-12+304499999V0203201N00101002401CN030000199-01381-02021999999ADDGF109991999999999999999999MA1999999069961MD1710091+9999REMSYN05252787 32/80 93201 11138 21202 36996 57009 333 00002=
0125527870999992016011300004+37200+102867FM-12+304499999V0203601N003019999999N030000199-01291-02791999999ADDGF100995999999999999999999MA1999999069951MD1710011+9999REMSYN05852787 32980 03603 11129 21279 36995 57001 333 05101 92501=
0109527870999992016011303004+37200+102867FM-12+304499999V0203401N006019999999N030000199-00941-02571999999ADDGF100995999999999999999999MA1999999070011MD1210061+9999REMSYN04252787 32980 03406 11094 21257 37001 52006=
0138527870999992016011306004+37200+102867FM-12+304499999V0203601N008019999999N030000199-00871-02561999999ADDGF100995999999999999999999KA1240N-01771MA1999999069851MD1710161+9999REMSYN05852787 32980 03608 11087 21256 36985 57016 333 05102 21177=
0163527870999992016011309004+37200+102867FM-12+304499999V0203601N009019999999N030000199-01261-02581999999ADDGA1071+999999999GE19AGL   +99999+99999GF107991071999999999999999MA1999999069951MD1210101+9999REMSYN05852787 32980 73609 11126 21258 36995 52010 87/// 333 05151=
0163527870999992016011312004+37200+102867FM-12+304499999V0203401N007019999999N030000199-01451-02351999999ADDGA1021+999999999GE19AGL   +99999+99999GF102991021999999999999999MA1999999070101MD1210151+9999REMSYN05852787 32980 23407 11145 21235 37010 52015 82/// 333 05102=
0138527870999992016011318004+37200+102867FM-12+304499999V0202901N00401002401CN030000199-01511-02251999999ADDGF109991999999999999999999KA1120M-00821MA1999999070051MD1710061+9999REMSYN05852787 32/80 92904 11151 21225 37005 57006 333 00001 11082=
0119527870999992016011321004+37200+102867FM-12+304499999V0203601N00201002401CN030000199-01581-02171999999ADDGF109991999999999999999999MA1999999069971MD1710081+9999REMSYN05252787 32/80 93602 11158 21217 36997 57008 333 00052=
0125527870999992016011400004+37200+102867FM-12+304499999V0203201N002019999999N030000199-01551-02441999999ADDGF100995999999999999999999MA1999999069951MD1710021+9999REMSYN05852787 32980 03202 11155 21244 36995 57002 333 00053 92501=
0109527870999992016011403004+37200+102867FM-12+304499999V0203201N003019999999N030000199-01041-02701999999ADDGF100995999999999999999999MA1999999070011MD1210061+9999REMSYN04252787 32980 03203 11104 21270 37001 52006=
0138527870999992016011406004+37200+102867FM-12+304499999V0203401N006019999999N030000199-00601-02241999999ADDGF100995999999999999999999KA1240N-01661MA1999999069771MD1710241+9999REMSYN05852787 32980 03406 11060 21224 36977 57024 333 05103 21166=
0119527870999992016011409004+37200+102867FM-12+304499999V0203201N006019999999N030000199-00781-02531999999ADDGF100995999999999999999999MA1999999069781MD1210011+9999REMSYN05252787 32980 03206 11078 21253 36978 52001 333 05205=
0119527870999992016011412004+37200+102867FM-12+304499999V0201801N005019999999N030000199-01161-01941999999ADDGF100995999999999999999999MA1999999069811MD1210031+9999REMSYN05252787 32980 01805 11116 21194 36981 52003 333 05303=
0138527870999992016011418004+37200+102867FM-12+304499999V0201601N00201002401CN030000199-01031-02341999999ADDGF109991999999999999999999KA1120M-00551MA1999999069491MD1710211+9999REMSYN05852787 32/80 91602 11103 21234 36949 57021 333 05605 11055=
0119527870999992016011421004+37200+102867FM-12+304499999V0203601N01101002401CN030000199-01181-02511999999ADDGF109991999999999999999999MA1999999069361MD1710131+9999REMSYN05252787 32/80 93611 11118 21251 36936 57013 333 05604=
0163527870999992016011500004+37200+102867FM-12+304499999V0203401N008019999999N030000199-01021-02031999999ADDGA1071+017501999GE19AGL   +99999+99999GF107991071999017501999999MA1999999069421MD1210061+9999REMSYN05852787 32780 73408 11102 21203 36942 52006 87/// 333 05505=
0109527870999992016011503004+37200+102867FM-12+304499999V0203201N003019999999N030000199-00771-02081999999ADDGF100995999999999999999999MA1999999069501MD1210081+9999REMSYN04252787 32980 03203 11077 21208 36950 52008=
0138527870999992016011506004+37200+102867FM-12+304499999V0203601N005019999999N030000199-00521-01891999999ADDGF100995999999999999999999KA1240N-01461MA1999999069351MD1710151+9999REMSYN05852787 32980 03605 11052 21189 36935 57015 333 05401 21146=
0163527870999992016011509004+37200+102867FM-12+304499999V0203201N006019999999N030000199-00631-01921999999ADDGA1011+999999999GE19AGL   +99999+99999GF101991011999999999999999MA1999999069391MD1210041+9999REMSYN05852787 32980 13206 11063 21192 36939 52004 81/// 333 05402=
0163527870999992016011512004+37200+102867FM-12+304499999V0202901N002019999999N030000199-01271-01981999999ADDGA1011+999999999GE19AGL   +99999+99999GF101991011999999999999999MA1999999069581MD1210191+9999REMSYN05852787 32980 12902 11127 21198 36958 52019 81/// 333 05251=
0138527870999992016011518004+37200+102867FM-12+304499999V0201601N00201002401CN030000199-01321-02021999999ADDGF109991999999999999999999KA1120M-00341MA1999999069611MD1710061+9999REMSYN05852787 32/80 91602 11132 21202 36961 57006 333 00153 11034=
0119527870999992016011521004+37200+102867FM-12+304499999V0201601N00401002401CN030000199-01431-02051999999ADDGF109991999999999999999999MA1999999069571MD1710041+9999REMSYN05252787 32/80 91604 11143 21205 36957 57004 333 00253=
0163527870999992016011600004+37200+102867FM-12+304499999V0201101N010019999999N030000199-01151-01891999999ADDGA1011+999999999GE19AGL   +99999+99999GF101991011999999999999999MA1999999069541MD1710031+9999REMSYN05852787 32980 11110 11115 21189 36954 57003 81/// 333 00151=
0153527870999992016011603004+37200+102867FM-12+304499999V0201801N005019999999N030000199-00801-01801999999ADDGA1011+999999999GE19AGL   +99999+99999GF101991011999999999999999MA1999999069671MD1210131+9999REMSYN04852787 32980 11805 11080 21180 36967 52013 81///=
0182527870999992016011606004+37200+102867FM-12+304499999V0202501N003019999999N030000199-00741-01651999999ADDGA1021+999999999GE19AGL   +99999+99999GF102991021999999999999999KA1240N-01491MA1999999069541MD1710131+9999REMSYN06452787 32980 22503 11074 21165 36954 57013 82/// 333 00252 21149=
0163527870999992016011609004+37200+102867FM-12+304499999V0203601N011019999999N030000199-01291-01701999999ADDGA1071+017501999GE19AGL   +99999+99999GF107991071999017501999999MA1999999069631MD1210091+9999REMSYN05852787 32780 73611 11129 21170 36963 52009 87/// 333 00257=
0208527870999992016011612004+37200+102867FM-12+304499999V0203401N008019999999N030000199-01521-02001999999ADDAA106000021AY101021AY201021GA1081+017501999GE19AGL   +99999+99999GF108991081999017501999999MA1999999069811MD1210181+9999MW1701REMSYN07052787 11780 83408 11152 21200 36981 52018 69901 77000 88/// 333 00253=
0138527870999992016011618004+37200+102867FM-12+304499999V0201401N00401002401CN030000199-01551-01881999999ADDGF109991999999999999999999KA1120M-00621MA1999999069731MD1710081+9999REMSYN05852787 32/80 91404 11155 21188 36973 57008 333 00152 11062=
0119527870999992016011621004+37200+102867FM-12+304499999V0201401N00301002401CN030000199-01781-02031999999ADDGF109991999999999999999999MA1999999069671MD1710061+9999REMSYN05252787 32/80 91403 11178 21203 36967 57006 333 00154=
0153527870999992016011700004+37200+102867FM-12+304499999V0201401N003019999999N030000199-01641-01991999999ADDAA112000021AA224000021GF100995999999999999999999MA1999999069631MD1710041+9999REMSYN06452787 12980 01403 11164 21199 36963 57004 69902 333 00155 79999=
0153527870999992016011703004+37200+102867FM-12+304499999V0201601N002019999999N030000199-00901-01681999999ADDGA1071+999999999GE19AGL   +99999+99999GF107991071999999999999999MA1999999069671MD1210041+9999REMSYN04852787 32980 71602 11090 21168 36967 52004 87///=
0182527870999992016011706004+37200+102867FM-12+304499999V0203601N005019999999N030000199-00621-01811999999ADDGA1071+999999999GE19AGL   +99999+99999GF107991071999999999999999KA1240N-01821MA1999999069531MD1710141+9999REMSYN06452787 32980 73605 11062 21181 36953 57014 87/// 333 00001 21182=
0163527870999992016011709004+37200+102867FM-12+304499999V0203601N005019999999N030000199-00851-01801999999ADDGA1071+017501999GE19AGL   +99999+99999GF107991071999017501999999MA1999999069621MD1210091+9999REMSYN05852787 32780 73605 11085 21180 36962 52009 87/// 333 00004=
0163527870999992016011712004+37200+102867FM-12+304499999V0203601N011019999999N030000199-01041-01901999999ADDGA1071+017501999GE19AGL   +99999+99999GF107991071999017501999999MA1999999069731MD1210111+9999REMSYN05852787 32780 73611 11104 21190 36973 52011 87/// 333 05105=
0138527870999992016011718004+37200+102867FM-12+304499999V0201601N00101002401CN030000199-01261-02061999999ADDGF109991999999999999999999KA1120M-00531MA1999999069811MD1710031+9999REMSYN05852787 32/80 91601 11126 21206 36981 57003 333 00103 11053=
0119527870999992016011721004+37200+102867FM-12+304499999V0203201N00301002401CN030000199-01361-02061999999ADDGF109991999999999999999999MA1999999069781MD1710031+9999REMSYN05252787 32/80 93203 11136 21206 36978 57003 333 00104=
0119527870999992016011800004+37200+102867FM-12+304499999V0203401N002019999999N030000199-01371-02051999999ADDGF100995999999999999999999MA1999999069841MD1210061+9999REMSYN05252787 32980 03402 11137 21205 36984 52006 333 00203=
0109527870999992016011803004+37200+102867FM-12+304499999V0201601N004019999999N030000199-00691-01941999999ADDGF100995999999999999999999MA1999999069891MD1210051+9999REMSYN04252787 32980 01604 11069 21194 36989 52005=
0138527870999992016011806004+37200+102867FM-12+304499999V0203201N006019999999N030000199-00591-01701999999ADDGF100995999999999999999999KA1240N-01451MA1999999069731MD1710161+9999REMSYN05852787 32980 03206 11059 21170 36973 57016 333 00200 21145=
0163527870999992016011809004+37200+102867FM-12+304499999V0203601N005019999999N030000199-00591-02061999999ADDGA1021+999999999GE19AGL   +99999+99999GF102991021999999999999999MA1999999069791MD1210061+9999REMSYN05852787 32980 23605 11059 21206 36979 52006 82/// 333 00203=
0119527870999992016011812004+37200+102867FM-12+304499999V0202901N001019999999N030000199-01031-01871999999ADDGF100995999999999999999999MA1999999069881MD1210091+9999REMSYN05252787 32980 02901 11103 21187 36988 52009 333 00200=
0138527870999992016011818004+37200+102867FM-12+304499999V0201801N00601002401CN030000199-01271-01941999999ADDGF109991999999999999999999KA1120M-00371MA1999999069721MD1710181+9999REMSYN05852787 32/80 91806 11127 21194 36972 57018 333 05100 11037=
0119527870999992016011821004+37200+102867FM-12+304499999V0201601N00501002401CN030000199-01041-01951999999ADDGF109991999999999999999999MA1999999069621MD1710101+9999REMSYN05252787 32/80 91605 11104 21195 36962 57010 333 05203=
0163527870999992016011900004+37200+102867FM-12+304499999V0201601N004019999999N030000199-01271-02001999999ADDGA1071+999999999GE19AGL   +99999+99999GF107991071999999999999999MA1999999069631MD1210011+9999REMSYN05852787 32980 71604 11127 21200 36963 52001 87/// 333 05201=
0153527870999992016011903004+37200+102867FM-12+304499999V0203201N008019999999N030000199-01371-01911999999ADDGA1021+999999999GE19AGL   +99999+99999GF102991021999999999999999MA1999999069691MD1210061+9999REMSYN04852787 32980 23208 11137 21191 36969 52006 82///=
0182527870999992016011906004+37200+102867FM-12+304499999V0203601N010019999999N030000199-01101-01881999999ADDGA1071+999999999GE19AGL   +99999+99999GF107991071999999999999999KA1240N-01521MA1999999069501MD1710191+9999REMSYN06452787 32980 73610 11110 21188 36950 57019 87/// 333 05255 21152=
0189527870999992016011909004+37200+102867FM-12+304499999V0203601N013019999999N030000199-01361-02021999999ADDGA1071+999999999GE19AGL   +99999+99999GF107991071999999999999999MA1999999069691MD1210191+9999OD139901801020REMSYN07052787 32980 73613 11136 21202 36969 52019 87/// 333 05158 91118 91502=
0189527870999992016011912004+37200+102867FM-12+304499999V0203601N011019999999N030000199-01401-01891999999ADDGA1071+017501999GE19AGL   +99999+99999GF107991071999017501999999MA1999999069961MD1210271+9999OD139901901360REMSYN07052787 32780 73611 11140 21189 36996 52027 87/// 333 00154 91119 91536=
0164527870999992016011918004+37200+102867FM-12+304499999V0203601N00901002401CN030000199-01231-01861999999ADDGF109991999999999999999999KA1120M-00891MA1999999069981MD1710121+9999OD139901701360REMSYN07052787 32/80 93609 11123 21186 36998 57012 333 00300 11089 91117 91536=
0119527870999992016011921004+37200+102867FM-12+304499999V0203601N00401002401CN030000199-01461-01911999999ADDGF109991999999999999999999MA1999999069981MD1410001+9999REMSYN05252787 32/80 93604 11146 21191 36998 54000 333 00454=
0163527870999992016012000004+37200+102867FM-12+304499999V0203201N005019999999N030000199-01661-01901999999ADDGA1071+017501999GE19AGL   +99999+99999GF107991071999017501999999MA1999999069981MD1410001+9999REMSYN05852787 32780 73205 11166 21190 36998 54000 87/// 333 00454=
0181527870999992016012003004+37200+102867FM-12+304499999V0201601N003019999999N021000199-01401-01631999999ADDAY101021AY201021GA1071+017501999GE19AGL   +99999+99999GF107991071999017501999999MA1999999070111MD1210131+9999MW1701REMSYN05452787 31771 71603 11140 21163 37011 52013 77000 87///=
0233527870999992016012006004+37200+102867FM-12+304499999V0201401N009019999999N008000199-01171-01391999999ADDAA106000131AY171021AY201021GA1071+017501999GE19AGL   +99999+99999GF107991071999017501999999KA1240N-01691MA1999999069881MD1710231+9999MW1701REMSYN08252787 11758 71409 11117 21139 36988 57023 69911 77070 87/// 333 00451 21169 92500=
0197527870999992016012009004+37200+102867FM-12+304499999V0200201N006019999999N013000199-01341-01701999999ADDAY171021AY271021GA1081+017501999GE19AGL   +99999+99999GF108991081999017501999999MA1999999069981MD1210101+9999MW1701REMSYN07052787 41763 80206 11134 21170 36998 52010 77077 88/// 333 00300 92501=
0214527870999992016012012004+37200+102867FM-12+304499999V0201401N010019999999N030000199-01431-01651999999ADDAA106001031AY171021AY271021GA1071+017501999GE19AGL   +99999+99999GF107991071999017501999999MA1999999069941MD1710041+9999MW1701REMSYN07652787 11780 71410 11143 21165 36994 57004 60011 77077 87/// 333 00000 92501=
0155527870999992016012018004+37200+102867FM-12+304499999V0201401N00201002401CN030000199-01731-01981999999ADDAA106000131GF109991999999999999999999KA1120M-01141MA1999999069781MD1710141+9999REMSYN06452787 12/80 91402 11173 21198 36978 57014 69911 333 05255 11114=
0203527870999992016012100004+37200+102867FM-12+304499999V0203201N004019999999N030000199-01321-02571999999ADDAA112000131AA224001631GA1021+999999999GE19AGL   +99999+99999GF102991021999999999999999MA1999999069571MD1710021+9999REMSYN07652787 12980 23204 11132 21257 36957 57002 69912 82/// 333 05403 70016 92502=
0109527870999992016012103004+37200+102867FM-12+304499999V0203201N013019999999N030000199-01831-02081999999ADDGF100995999999999999999999MA1999999069611MD1210041+9999REMSYN04252787 32980 03213 11183 21208 36961 52004=
0259527870999992016012106004+37200+102867FM-12+304499999V0203201N013019999999N030000199-01741-01991999999ADDAA106000231AY171021AY201021GA1071+999999999GE19AGL   +99999+99999GF107991071999999999999999KA1240N-01931MA1999999069521MD1710091+9999MW1701OD139901901320REMSYN09452787 11980 73213 11174 21199 36952 57009 69921 77070 87/// 333 05456 21193 91119 91532 92502=
0223527870999992016012109004+37200+102867FM-12+304499999V0203601N014019999999N030000199-02031-02471999999ADDAY171021AY271021GA1071+017501999GE19AGL   +99999+99999GF107991071999017501999999MA1999999069741MD1210221+9999MW1701OD139902001340REMSYN08252787 41780 73614 11203 21247 36974 52022 77077 87/// 333 05257 91120 91534 92502=
0240527870999992016012112004+37200+102867FM-12+304499999V0203601N016019999999N030000199-02261-02621999999ADDAA106000531AY171021AY271021GA1071+017501999GE19AGL   +99999+99999GF107991071999017501999999MA1999999069981MD1210241+9999MW1701OD139902401360REMSYN08852787 11780 73616 11226 21262 36998 52024 69951 77077 87/// 333 00058 91124 91536 92502=
0181527870999992016012118004+37200+102867FM-12+304499999V0203601N01001002401CN030000199-02261-02801999999ADDAA106000831GF109991999999999999999999KA1120M-01141MA1999999070111MD1710101+9999OD139902301360REMSYN07652787 12/80 93610 11226 21280 37011 57010 69981 333 00355 11114 91123 91536=
0162527870999992016012121004+37200+102867FM-12+304499999V0203601N01201002401CN030000199-02241-02741999999ADDAA124001831GF109991999999999999999999MA1999999070101MD1710011+9999OD139902001020REMSYN07052787 42/80 93612 11224 21274 37010 57001 333 00557 70018 91120 91502=
0241527870999992016012200004+37200+102867FM-12+304499999V0203601N012019999999N030000199-02361-02871999999ADDAA106000931AA224002431GA1081+017501999GE19AGL   +99999+99999GF108991081999017501999999MA1999999070231MD1210131+9999MW1701OD139902001020REMSYN09452787 11780 83612 11236 21287 37023 52013 69991 770// 88/// 333 00760 70024 91120 91502 92503=
0217527870999992016012203004+37200+102867FM-12+304499999V0203601N011019999999N030000199-02311-02841999999ADDAY171021AY271021GA1071+017501999GE19AGL   +99999+99999GF107991071999017501999999MA1999999070401MD1210171+9999MW1701OD139902001020REMSYN07652787 41780 73611 11231 21284 37040 52017 77077 87/// 333 91120 91502 92504=
0259527870999992016012206004+37200+102867FM-12+304499999V0203601N011019999999N030000199-02231-02771999999ADDAA106000231AY171021AY201021GA1071+017501999GE19AGL   +99999+99999GF107991071999017501999999KA1240N-02411MA1999999070291MD1710111+9999MW1001OD139901801360REMSYN09452787 11780 73611 11223 21277 37029 57011 69921 70070 87/// 333 00855 21241 91118 91536 92504=
0189527870999992016012209004+37200+102867FM-12+304499999V0203601N014019999999N030000199-02401-02981999999ADDGA1071+017501999GE19AGL   +99999+99999GF107991071999017501999999MA1999999070391MD1210101+9999OD139901901340REMSYN07052787 32780 73614 11240 21298 37039 52010 87/// 333 00754 91119 91534=
0240527870999992016012212004+37200+102867FM-12+304499999V0203601N013019999999N030000199-02421-02971999999ADDAA106000131AY171021AY201021GA1071+017501999GE19AGL   +99999+99999GF107991071999017501999999MA1999999070521MD1210131+9999MW1701OD139902001360REMSYN08852787 11780 73613 11242 21297 37052 52013 69911 77070 87/// 333 00552 91120 91536 92503=
0155527870999992016012218004+37200+102867FM-12+304499999V0203601N01001002401CN030000199-02261-03191999999ADDAA106000131GF109991999999999999999999KA1120M-02211MA1999999070381MD1710091+9999REMSYN06452787 12/80 93610 11226 21319 37038 57009 69911 333 00300 11221=
0162527870999992016012221004+37200+102867FM-12+304499999V0200201N01401002401CN030000199-02391-03091999999ADDAA124001031GF109991999999999999999999MA1999999070361MD1710021+9999OD139902101360REMSYN07052787 32/80 90214 11239 21309 37036 57002 333 00352 70010 91121 91536=
0229527870999992016012300004+37200+102867FM-12+304499999V0203401N011019999999N030000199-02451-03071999999ADDAA112000131AA224000431GA1071+999999999GE19AGL   +99999+99999GF107991071999999999999999MA1999999070421MD1210061+9999OD139902101360REMSYN08852787 12980 73411 11245 21307 37042 52006 69912 87/// 333 00251 70004 91121 91536 92503=
0183527870999992016012303004+37200+102867FM-12+304499999V0203601N012019999999N030000199-02201-02931999999ADDGA1071+999999999GE19AGL   +99999+99999GF107991071999999999999999MA1999999070571MD1210151+9999OD139902001360REMSYN06452787 32980 73612 11220 21293 37057 52015 87/// 333 91120 91536=
0208527870999992016012306004+37200+102867FM-12+304499999V0203601N014019999999N030000199-02091-02731999999ADDGA1071+999999999GE19AGL   +99999+99999GF107991071999999999999999KA1240N-02641MA1999999070501MD1710071+9999OD139902001360REMSYN07652787 32980 73614 11209 21273 37050 57007 87/// 333 00201 21264 91120 91536=
0189527870999992016012309004+37200+102867FM-12+304499999V0203601N013019999999N030000199-02131-02711999999ADDGA1071+999999999GE19AGL   +99999+99999GF107991071999999999999999MA1999999070601MD1210101+9999OD139902001360REMSYN07052787 32980 73613 11213 21271 37060 52010 87/// 333 00203 91120 91536=
0189527870999992016012312004+37200+102867FM-12+304499999V0203601N013019999999N030000199-02321-02801999999ADDGA1021+999999999GE19AGL   +99999+99999GF102991021999999999999999MA1999999070741MD1210141+9999OD139902001020REMSYN07052787 32980 23613 11232 21280 37074 52014 82/// 333 00201 91120 91502=
0164527870999992016012318004+37200+102867FM-12+304499999V0203401N00401002401CN030000199-02451-03031999999ADDGF109991999999999999999999KA1120M-02011MA1999999070741MD1210021+9999OD139901701360REMSYN07052787 32/80 93404 11245 21303 37074 52002 333 00452 11201 91117 91536=
0145527870999992016012321004+37200+102867FM-12+304499999V0202901N00401002401CN030000199-02201-03211999999ADDGF109991999999999999999999MA1999999070621MD1710121+9999OD139901701360REMSYN06452787 32/80 92904 11220 21321 37062 57012 333 00302 91117 91536=
0125527870999992016012400004+37200+102867FM-12+304499999V0203201N001019999999N030000199-02271-03281999999ADDGF100995999999999999999999MA1999999070641MD1210021+9999REMSYN05852787 32980 03201 11227 21328 37064 52002 333 00202 92503=
0109527870999992016012403004+37200+102867FM-12+304499999V0200901N001019999999N030000199-01671-02711999999ADDGF100995999999999999999999MA1999999070731MD1210091+9999REMSYN04252787 32980 00901 11167 21271 37073 52009=
0138527870999992016012406004+37200+102867FM-12+304499999V0203201N004019999999N030000199-01511-02361999999ADDGF100995999999999999999999KA1240N-02701MA1999999070571MD1710161+9999REMSYN05852787 32980 03204 11151 21236 37057 57016 333 00106 21270=
0163527870999992016012409004+37200+102867FM-12+304499999V0202901N005019999999N030000199-01631-02361999999ADDGA1021+999999999GE19AGL   +99999+99999GF102991021999999999999999MA1999999070551MD1710021+9999REMSYN05852787 32980 22905 11163 21236 37055 57002 82/// 333 05105=
0119527870999992016012412004+37200+102867FM-12+304499999V0201401N002019999999N030000199-01841-02551999999ADDGF100995999999999999999999MA1999999070621MD1210071+9999REMSYN05252787 32980 01402 11184 21255 37062 52007 333 05105=
0138527870999992016012418004+37200+102867FM-12+304499999V0201601N00101002401CN030000199-01941-02851999999ADDGF109991999999999999999999KA1120M-01291MA1999999070381MD1710141+9999REMSYN05852787 32/80 91601 11194 21285 37038 57014 333 05405 11129=
0119527870999992016012421004+37200+102867FM-12+304499999V0201601N00201002401CN030000199-01941-02871999999ADDGF109991999999999999999999MA1999999070271MD1710111+9999REMSYN05252787 32/80 91602 11194 21287 37027 57011 333 05403=
0125527870999992016012500004+37200+102867FM-12+304499999V0200201N001019999999N030000199-01911-03011999999ADDGF100995999999999999999999MA1999999070241MD1710031+9999REMSYN05852787 32980 00201 11191 21301 37024 57003 333 05404 92502=
0109527870999992016012503004+37200+102867FM-12+304499999V0201401N001019999999N030000199-01341-02921999999ADDGF100995999999999999999999MA1999999070261MD1210021+9999REMSYN04252787 32980 01401 11134 21292 37026 52002=
0138527870999992016012506004+37200+102867FM-12+304499999V0203201N004019999999N030000199-01351-02331999999ADDGF100995999999999999999999KA1240N-02051MA1999999070091MD1710171+9999REMSYN05852787 32980 03204 11135 21233 37009 57017 333 05502 21205=
0119527870999992016012509004+37200+102867FM-12+304499999V0203201N006019999999N030000199-01321-02601999999ADDGF100995999999999999999999MA1999999070041MD1710051+9999REMSYN05252787 32980 03206 11132 21260 37004 57005 333 05503=
0119527870999992016012512004+37200+102867FM-12+304499999V0201601N003019999999N030000199-01791-02641999999ADDGF100995999999999999999999MA1999999070121MD1210081+9999REMSYN05252787 32980 01603 11179 21264 37012 52008 333 05501=
0138527870999992016012518004+37200+102867FM-12+304499999V0201601N00401002401CN030000199-02101-02741999999ADDGF109991999999999999999999KA1120M-01131MA1999999069931MD1710131+9999REMSYN05852787 32/80 91604 11210 21274 36993 57013 333 05552 11113=
0119527870999992016012521004+37200+102867FM-12+304499999V0201601N00501002401CN030000199-01891-02691999999ADDGF109991999999999999999999MA1999999069771MD1710161+9999REMSYN05252787 32/80 91605 11189 21269 36977 57016 333 05501=
0125527870999992016012600004+37200+102867FM-12+304499999V0202201N003019999999N030000199-01521-03081999999ADDGF100995999999999999999999MA1999999069691MD1710081+9999REMSYN05852787 32980 02203 11152 21308 36969 57008 333 05604 92501=
0109527870999992016012603004+37200+102867FM-12+304499999V0203201N006019999999N030000199-01101-03011999999ADDGF100995999999999999999999MA1999999069711MD1210021+9999REMSYN04252787 32980 03206 11110 21301 36971 52002=
0138527870999992016012606004+37200+102867FM-12+304499999V0203201N009019999999N030000199-00911-02551999999ADDGF100995999999999999999999KA1240N-02111MA1999999069531MD1710181+9999REMSYN05852787 32980 03209 11091 21255 36953 57018 333 05604 21211=
0119527870999992016012609004+37200+102867FM-12+304499999V0203201N008019999999N030000199-01041-02581999999ADDGF100995999999999999999999MA1999999069531MD1410001+9999REMSYN05252787 32980 03208 11104 21258 36953 54000 333 05503=
0119527870999992016012612004+37200+102867FM-12+304499999V0201601N002019999999N030000199-01511-02991999999ADDGF100995999999999999999999MA1999999069621MD1210091+9999REMSYN05252787 32980 01602 11151 21299 36962 52009 333 05503=
0138527870999992016012618004+37200+102867FM-12+304499999V0201601N00701002401CN030000199-01791-02711999999ADDGF109991999999999999999999KA1120M-00731MA1999999069411MD1710141+9999REMSYN05852787 32/80 91607 11179 21271 36941 57014 333 05503 11073=
0119527870999992016012621004+37200+102867FM-12+304499999V0201601N00201002401CN030000199-01331-03151999999ADDGF109991999999999999999999MA1999999069311MD1710101+9999REMSYN05252787 32/80 91602 11133 21315 36931 57010 333 05506=
0169527870999992016012700004+37200+102867FM-12+304499999V0202701N004019999999N030000199-01051-02581999999ADDGA1071+017501999GE19AGL   +99999+99999GF107991071999017501999999MA1999999069311MD1410001+9999REMSYN06452787 32780 72704 11105 21258 36931 54000 87/// 333 05405 92501=
0109527870999992016012703004+37200+102867FM-12+304499999V0203401N004019999999N030000199-00801-02451999999ADDGF100995999999999999999999MA1999999069411MD1210101+9999REMSYN04252787 32980 03404 11080 21245 36941 52010=
0138527870999992016012706004+37200+102867FM-12+304499999V0203201N007019999999N030000199-01171-02001999999ADDGF100995999999999999999999KA1240N-01841MA1999999069361MD1710051+9999REMSYN05852787 32980 03207 11117 21200 36936 57005 333 05253 21184=
0119527870999992016012709004+37200+102867FM-12+304499999V0203201N008019999999N030000199-01331-02171999999ADDGF100995999999999999999999MA1999999069491MD1210131+9999REMSYN05252787 32980 03208 11133 21217 36949 52013 333 00053=
0119527870999992016012712004+37200+102867FM-12+304499999V0200201N008019999999N030000199-01151-02561999999ADDGF100995999999999999999999MA1999999069691MD1210201+9999REMSYN05252787 32980 00208 11115 21256 36969 52020 333 00104=
0138527870999992016012718004+37200+102867FM-12+304499999V0200901N00201002401CN030000199-01421-02631999999ADDGF109991999999999999999999KA1120M-00471MA1999999069731MD1710041+9999REMSYN05852787 32/80 90902 11142 21263 36973 57004 333 00304 11047=
0119527870999992016012721004+37200+102867FM-12+304499999V0201401N00201002401CN030000199-01361-02601999999ADDGF109991999999999999999999MA1999999069681MD1710051+9999REMSYN05252787 32/80 91402 11136 21260 36968 57005 333 00400=
0169527870999992016012800004+37200+102867FM-12+304499999V0201401N002019999999N030000199-01191-02521999999ADDGA1071+999999999GE19AGL   +99999+99999GF107991071999999999999999MA1999999069771MD1210091+9999REMSYN06452787 32980 71402 11119 21252 36977 52009 87/// 333 00551 92501=
0109527870999992016012803004+37200+102867FM-12+304499999V0203401N003019999999N030000199-00721-02381999999ADDGF100995999999999999999999MA1999999069891MD1210121+9999REMSYN04252787 32980 03403 11072 21238 36989 52012=
0182527870999992016012806004+37200+102867FM-12+304499999V0203601N008019999999N030000199-00511-02251999999ADDGA1071+999999999GE19AGL   +99999+99999GF107991071999999999999999KA1240N-01621MA1999999069781MD1710111+9999REMSYN06452787 32980 73608 11051 21225 36978 57011 87/// 333 00407 21162=
0163527870999992016012809004+37200+102867FM-12+304499999V0203401N005019999999N030000199-00621-01941999999ADDGA1071+012501999GE19AGL   +99999+99999GF107991071999012501999999MA1999999069811MD1210031+9999REMSYN05852787 32680 73405 11062 21194 36981 52003 87/// 333 00307=
0119527870999992016012812004+37200+102867FM-12+304499999V0201401N008019999999N030000199-00951-02001999999ADDGF100995999999999999999999MA1999999069891MD1210081+9999REMSYN05252787 32980 01408 11095 21200 36989 52008 333 00202=
0138527870999992016012818004+37200+102867FM-12+304499999V0201401N00801002401CN030000199-01251-02241999999ADDGF109991999999999999999999KA1120M-00511MA1999999069871MD1710031+9999REMSYN05852787 32/80 91408 11125 21224 36987 57003 333 00102 11051=
0119527870999992016012821004+37200+102867FM-12+304499999V0201601N00401002401CN030000199-01351-02211999999ADDGF109991999999999999999999MA1999999069761MD1710111+9999REMSYN05252787 32/80 91604 11135 21221 36976 57011 333 00100=
0163527870999992016012900004+37200+102867FM-12+304499999V0203601N007019999999N030000199-01011-02141999999ADDGA1071+017501999GE19AGL   +99999+99999GF107991071999017501999999MA1999999069811MD1210051+9999REMSYN05852787 32780 73607 11101 21214 36981 52005 87/// 333 00002=
0109527870999992016012903004+37200+102867FM-12+304499999V0203401N007019999999N030000199-00721-02031999999ADDGF100995999999999999999999MA1999999069841MD1210031+9999REMSYN04252787 32980 03407 11072 21203 36984 52003=
0182527870999992016012906004+37200+102867FM-12+304499999V0203201N006019999999N030000199-00461-01841999999ADDGA1071+012501999GE19AGL   +99999+99999GF107991071999012501999999KA1240N-01391MA1999999069671MD1710171+9999REMSYN06452787 32680 73206 11046 21184 36967 57017 87/// 333 05101 21139=
0163527870999992016012909004+37200+102867FM-12+304499999V0203401N004019999999N030000199-00851-01751999999ADDGA1071+017501999GE19AGL   +99999+99999GF107991071999017501999999MA1999999069781MD1210111+9999REMSYN05852787 32780 73404 11085 21175 36978 52011 87/// 333 00052=
0163527870999992016012912004+37200+102867FM-12+304499999V0201401N008019999999N030000199-00861-01811999999ADDGA1071+017501999GE19AGL   +99999+99999GF107991071999017501999999MA1999999069741MD1710041+9999REMSYN05852787 32780 71408 11086 21181 36974 57004 87/// 333 05201=
0166527870999992016012918004+37200+102867FM-12+304499999V0201601N00401002401CN030000199-01431-01811999999ADDAY141021AY201021GF109991999999999999999999KA1120M-00351MA1999999069621MD1710091+9999MW1001REMSYN06452787 31/80 91604 11143 21181 36962 57009 70040 333 05352 11035=
0119527870999992016012921004+37200+102867FM-12+304499999V0201601N00401002401CN030000199-01351-01881999999ADDGF109991999999999999999999MA1999999069491MD1710131+9999REMSYN05252787 32/80 91604 11135 21188 36949 57013 333 05300=
0163527870999992016013000004+37200+102867FM-12+304499999V0202901N006019999999N011000199-01781-01961999999ADDGA1071+017501999GE19AGL   +99999+99999GF107991071999017501999999MA1999999069581MD1210091+9999REMSYN05852787 32761 72906 11178 21196 36958 52009 87/// 333 05258=
0181527870999992016013003004+37200+102867FM-12+304499999V0203201N013019999999N030000199-01471-01671999999ADDAY171021AY241021GA1071+999999999GE19AGL   +99999+99999GF107991071999999999999999MA1999999069731MD1210151+9999MW1221REMSYN05452787 31980 73213 11147 21167 36973 52015 72274 87///=
0253527870999992016013006004+37200+102867FM-12+304499999V0203201N010019999999N030000199-01211-01641999999ADDAA106000021AY171021AY241021GA1071+999999999GE19AGL   +99999+99999GF107991071999999999999999KA1240N-01811MA1999999069781MD1210051+9999MW1001OD139901701320REMSYN08852787 11980 73210 11121 21164 36978 52005 69901 70074 87/// 333 00158 21181 91117 91532=
0189527870999992016013009004+37200+102867FM-12+304499999V0203201N011019999999N030000199-01671-01881999999ADDGA1071+017501999GE19AGL   +99999+99999GF107991071999017501999999MA1999999069961MD1210181+9999OD139901701320REMSYN07052787 32780 73211 11167 21188 36996 52018 87/// 333 00258 91117 91532=
0191527870999992016013012004+37200+102867FM-12+304499999V0203201N008019999999N002300199-02001-02281999999ADDAY101021AY201021GA1071+017501999GE19AGL   +99999+99999GF107991071999017501999999MA1999999070141MD1210181+9999MW1101REMSYN06452787 31723 73208 11200 21228 37014 52018 71000 87/// 333 00461=
0138527870999992016013018004+37200+102867FM-12+304499999V0201601N00301002401CN011000199-01991-02271999999ADDGF109991999999999999999999KA1120M-01061MA1999999070191MD1710051+9999REMSYN05852787 32/61 91603 11199 21227 37019 57005 333 00656 11106=
0119527870999992016013021004+37200+102867FM-12+304499999V0201401N00201002401CN010000199-01781-02021999999ADDGF109991999999999999999999MA1999999070151MD1710041+9999REMSYN05252787 32/60 91402 11178 21202 37015 57004 333 00754=
0180527870999992016013100004+37200+102867FM-12+304499999V0201401N002019999999N015000199-01631-01861999999ADDAA124000021GA1071+017501999GE19AGL   +99999+99999GF107991071999017501999999MA1999999070251MD1210101+9999REMSYN06452787 32765 71402 11163 21186 37025 52010 87/// 333 00702 79999=
0153527870999992016013103004+37200+102867FM-12+304499999V0201401N002019999999N030000199-01071-01291999999ADDGA1071+999999999GE19AGL   +99999+99999GF107991071999999999999999MA1999999070371MD1210121+9999REMSYN04852787 32980 71402 11107 21129 37037 52012 87///=
0182527870999992016013106004+37200+102867FM-12+304499999V0201801N006019999999N030000199-00581-02021999999ADDGA1071+999999999GE19AGL   +99999+99999GF107991071999999999999999KA1240N-02051MA1999999070281MD1710091+9999REMSYN06452787 32980 71806 11058 21202 37028 57009 87/// 333 00506 21205=
0163527870999992016013109004+37200+102867FM-12+304499999V0203201N003019999999N030000199-00991-01851999999ADDGA1061+999999999GE19AGL   +99999+99999GF106991061999999999999999MA1999999070331MD1210051+9999REMSYN05852787 32980 63203 11099 21185 37033 52005 86/// 333 00407=
0163527870999992016013112004+37200+102867FM-12+304499999V0203201N001019999999N030000199-01491-01971999999ADDGA1021+999999999GE19AGL   +99999+99999GF102991021999999999999999MA1999999070501MD1210171+9999REMSYN05852787 32980 23201 11149 21197 37050 52017 82/// 333 00405=
0138527870999992016013118004+37200+102867FM-12+304499999V0201601N00601002401CN030000199-01561-01961999999ADDGF109991999999999999999999KA1120M-00471MA1999999070431MD1710081+9999REMSYN05852787 32/80 91606 11156 21196 37043 57008 333 00204 11047=
0119527870999992016013121004+37200+102867FM-12+304499999V0201101N00401002401CN030000199-01471-01961999999ADDGF109991999999999999999999MA1999999070261MD1710171+9999REMSYN05252787 32/80 91104 11147 21196 37026 57017 333 00103=
0163527870999992016020100004+37200+102867FM-12+304499999V0201401N005019999999N030000199-01561-01991999999ADDGA1071+017501999GE19AGL   +99999+99999GF107991071999017501999999MA1999999070311MD1210051+9999REMSYN05852787 32780 71405 11156 21199 37031 52005 87/// 333 00101=
0153527870999992016020103004+37200+102867FM-12+304499999V0203201N011019999999N030000199-01411-01951999999ADDGA1021+999999999GE19AGL   +99999+99999GF102991021999999999999999MA1999999070371MD1210061+9999REMSYN04852787 32980 23211 11141 21195 37037 52006 82///=
0182527870999992016020106004+37200+102867FM-12+304499999V0203201N012019999999N030000199-01021-01881999999ADDGA1011+999999999GE19AGL   +99999+99999GF101991011999999999999999KA1240N-01681MA1999999070231MD1710141+9999REMSYN06452787 32980 13212 11102 21188 37023 57014 81/// 333 05154 21168=
0163527870999992016020109004+37200+102867FM-12+304499999V0203601N009019999999N030000199-00871-02011999999ADDGA1021+999999999GE19AGL   +99999+99999GF102991021999999999999999MA1999999070321MD1210091+9999REMSYN05852787 32980 23609 11087 21201 37032 52009 82/// 333 00001=
0119527870999992016020112004+37200+102867FM-12+304499999V0200401N004019999999N030000199-01071-01951999999ADDGF100995999999999999999999MA1999999070431MD1210111+9999REMSYN05252787 32980 00404 11107 21195 37043 52011 333 05104=
0138527870999992016020118004+37200+102867FM-12+304499999V0201601N00501002401CN030000199-01671-02011999999ADDGF109991999999999999999999KA1120M-00711MA1999999070271MD1710121+9999REMSYN05852787 32/80 91605 11167 21201 37027 57012 333 05251 11071=
0119527870999992016020121004+37200+102867FM-12+304499999V0201601N00501002401CN030000199-01671-02051999999ADDGF109991999999999999999999MA1999999070121MD1710151+9999REMSYN05252787 32/80 91605 11167 21205 37012 57015 333 05152=
0119527870999992016020200004+37200+102867FM-12+304499999V0201401N005019999999N030000199-01531-02001999999ADDGF100995999999999999999999MA1999999070061MD1710061+9999REMSYN05252787 32980 01405 11153 21200 37006 57006 333 05300=
0109527870999992016020203004+37200+102867FM-12+304499999V0201601N005019999999N030000199-00801-01951999999ADDGF100995999999999999999999MA1999999070031MD1710031+9999REMSYN04252787 32980 01605 11080 21195 37003 57003=
0138527870999992016020206004+37200+102867FM-12+304499999V0201601N004019999999N030000199-00361-01861999999ADDGF100995999999999999999999KA1240N-01741MA1999999069821MD1710211+9999REMSYN05852787 32980 01604 11036 21186 36982 57021 333 05407 21174=
0119527870999992016020209004+37200+102867FM-12+304499999V0203601N008019999999N030000199-00561-01701999999ADDGF100995999999999999999999MA1999999069861MD1210041+9999REMSYN05252787 32980 03608 11056 21170 36986 52004 333 05503=
0119527870999992016020212004+37200+102867FM-12+304499999V0202701N002019999999N030000199-01151-02021999999ADDGF100995999999999999999999MA1999999070001MD1210141+9999REMSYN05252787 32980 02702 11115 21202 37000 52014 333 05451=
0138527870999992016020218004+37200+102867FM-12+304499999V0201601N00501002401CN030000199-01501-01921999999ADDGF109991999999999999999999KA1120M-00251MA1999999069891MD1710121+9999REMSYN05852787 32/80 91605 11150 21192 36989 57012 333 05402 11025=
0119527870999992016020221004+37200+102867FM-12+304499999V0201401N00501002401CN030000199-01491-01891999999ADDGF109991999999999999999999MA1999999069801MD1710091+9999REMSYN05252787 32/80 91405 11149 21189 36980 57009 333 05302=
0163527870999992016020300004+37200+102867FM-12+304499999V0202901N004019999999N030000199-01691-01961999999ADDGA1071+999999999GE19AGL   +99999+99999GF107991071999999999999999MA1999999069951MD1210151+9999REMSYN05852787 32980 72904 11169 21196 36995 52015 87/// 333 05152=
0153527870999992016020303004+37200+102867FM-12+304499999V0203201N004019999999N030000199-01301-01691999999ADDGA1041+999999999GE19AGL   +99999+99999GF104991041999999999999999MA1999999070051MD1210101+9999REMSYN04852787 32980 43204 11130 21169 37005 52010 84///=
0182527870999992016020306004+37200+102867FM-12+304499999V0203201N008019999999N030000199-01011-01691999999ADDGA1071+999999999GE19AGL   +99999+99999GF107991071999999999999999KA1240N-01771MA1999999069891MD1710161+9999REMSYN06452787 32980 73208 11101 21169 36989 57016 87/// 333 00157 21177=
0163527870999992016020309004+37200+102867FM-12+304499999V0203601N010019999999N030000199-01311-01771999999ADDGA1071+017501999GE19AGL   +99999+99999GF107991071999017501999999MA1999999070041MD1210151+9999REMSYN05852787 32780 73610 11131 21177 37004 52015 87/// 333 00258=
0208527870999992016020312004+37200+102867FM-12+304499999V0203601N010019999999N030000199-01551-01911999999ADDAA106000021AY171021AY201021GA1081+017501999GE19AGL   +99999+99999GF108991081999017501999999MA1999999070361MD1210321+9999MW1701REMSYN07052787 11780 83610 11155 21191 37036 52032 69901 77070 88/// 333 00454=
0138527870999992016020318004+37200+102867FM-12+304499999V0201401N00301002401CN030000199-01701-02061999999ADDGF109991999999999999999999KA1120M-00971MA1999999070291MD1710011+9999REMSYN05852787 32/80 91403 11170 21206 37029 57001 333 00452 11097=
0119527870999992016020321004+37200+102867FM-12+304499999V0201101N00201002401CN030000199-01571-02031999999ADDGF109991999999999999999999MA1999999070121MD1710171+9999REMSYN05252787 32/80 91102 11157 21203 37012 57017 333 00351=
0203527870999992016020400004+37200+102867FM-12+304499999V0203601N004019999999N030000199-01441-02341999999ADDAA112000021AA224000021GA1021+999999999GE19AGL   +99999+99999GF102991021999999999999999MA1999999070161MD1210041+9999REMSYN07652787 12980 23604 11144 21234 37016 52004 69902 82/// 333 00203 79999 92500=
0109527870999992016020403004+37200+102867FM-12+304499999V0203401N007019999999N030000199-01181-01961999999ADDGF100995999999999999999999MA1999999070201MD1210041+9999REMSYN04252787 32980 03407 11118 21196 37020 52004=
0182527870999992016020406004+37200+102867FM-12+304499999V0200201N005019999999N030000199-00991-02531999999ADDGA1061+999999999GE19AGL   +99999+99999GF106991061999999999999999KA1240N-01821MA1999999070121MD1710081+9999REMSYN06452787 32980 60205 11099 21253 37012 57008 86/// 333 00200 21182=
0163527870999992016020409004+37200+102867FM-12+304499999V0203601N011019999999N030000199-01231-02201999999ADDGA1081+017501999GE19AGL   +99999+99999GF108991081999017501999999MA1999999070261MD1210141+9999REMSYN05852787 32780 83611 11123 21220 37026 52014 88/// 333 00201=
0208527870999992016020412004+37200+102867FM-12+304499999V0203601N011019999999N030000199-01401-01821999999ADDAA106000021AY171021AY201021GA1081+017501999GE19AGL   +99999+99999GF108991081999017501999999MA1999999070461MD1210201+9999MW1701REMSYN07052787 11780 83611 11140 21182 37046 52020 69901 77070 88/// 333 00102=
0138527870999992016020418004+37200+102867FM-12+304499999V0202901N00301002401CN030000199-01641-01871999999ADDGF109991999999999999999999KA1120M-00911MA1999999070491MD1710071+9999REMSYN05852787 32/80 92903 11164 21187 37049 57007 333 00201 11091=
0119527870999992016020421004+37200+102867FM-12+304499999V0202901N00101002401CN030000199-01521-02041999999ADDGF109991999999999999999999MA1999999070481MD1710011+9999REMSYN05252787 32/80 92901 11152 21204 37048 57001 333 00401=
0159527870999992016020500004+37200+102867FM-12+304499999V0203201N002019999999N030000199-01581-02271999999ADDAA112000021AA224000021GF100995999999999999999999MA1999999070571MD1210091+9999REMSYN07052787 12980 03202 11158 21227 37057 52009 69902 333 00451 79999 92500=
0109527870999992016020503004+37200+102867FM-12+304499999V0203601N006019999999N030000199-01111-02321999999ADDGF100995999999999999999999MA1999999070711MD1210141+9999REMSYN04252787 32980 03606 11111 21232 37071 52014=
0138527870999992016020506004+37200+102867FM-12+304499999V0203601N009019999999N030000199-00921-02351999999ADDGF100995999999999999999999KA1240N-01721MA1999999070611MD1710101+9999REMSYN05852787 32980 03609 11092 21235 37061 57010 333 00501 21172=
0119527870999992016020509004+37200+102867FM-12+304499999V0200201N008019999999N030000199-00951-02421999999ADDGF100995999999999999999999MA1999999070641MD1210031+9999REMSYN05252787 32980 00208 11095 21242 37064 52003 333 00403=
0163527870999992016020512004+37200+102867FM-12+304499999V0203401N003019999999N030000199-01541-02341999999ADDGA1021+999999999GE19AGL   +99999+99999GF102991021999999999999999MA1999999070781MD1210141+9999REMSYN05852787 32980 23403 11154 21234 37078 52014 82/// 333 00351=
0138527870999992016020518004+37200+102867FM-12+304499999V0203401N00801002401CN030000199-01281-02441999999ADDGF109991999999999999999999KA1120M-00881MA1999999070671MD1710071+9999REMSYN05852787 32/80 93408 11128 21244 37067 57007 333 00204 11088=
0119527870999992016020521004+37200+102867FM-12+304499999V0203401N00601002401CN030000199-01291-02451999999ADDGF109991999999999999999999MA1999999070711MD1210041+9999REMSYN05252787 32/80 93406 11129 21245 37071 52004 333 00202=
0163527870999992016020600004+37200+102867FM-12+304499999V0203601N005019999999N030000199-01401-02431999999ADDGA1021+999999999GE19AGL   +99999+99999GF102991021999999999999999MA1999999070761MD1210051+9999REMSYN05852787 32980 23605 11140 21243 37076 52005 82/// 333 00202=
0109527870999992016020603004+37200+102867FM-12+304499999V0200201N008019999999N030000199-00841-02251999999ADDGF100995999999999999999999MA1999999070831MD1210071+9999REMSYN04252787 32980 00208 11084 21225 37083 52007=
0182527870999992016020606004+37200+102867FM-12+304499999V0200201N006019999999N030000199-00701-02121999999ADDGA1021+999999999GE19AGL   +99999+99999GF102991021999999999999999KA1240N-01601MA1999999070761MD1710071+9999REMSYN06452787 32980 20206 11070 21212 37076 57007 82/// 333 00202 21160=
0163527870999992016020609004+37200+102867FM-12+304499999V0203601N010019999999N030000199-00781-02051999999ADDGA1071+017501999GE19AGL   +99999+99999GF107991071999017501999999MA1999999070681MD1710081+9999REMSYN05852787 32780 73610 11078 21205 37068 57008 87/// 333 00002=
0189527870999992016020612004+37200+102867FM-12+304499999V0203401N011019999999N030000199-00871-02071999999ADDGA1031+999999999GE19AGL   +99999+99999GF103991031999999999999999MA1999999070751MD1210071+9999OD139901801340REMSYN07052787 32980 33411 11087 21207 37075 52007 83/// 333 00007 91118 91534=
0138527870999992016020618004+37200+102867FM-12+304499999V0200201N00801002401CN030000199-00851-02501999999ADDGF109991999999999999999999KA1120M-00541MA1999999070701MD1710041+9999REMSYN05852787 32/80 90208 11085 21250 37070 57004 333 00004 11054=
0119527870999992016020621004+37200+102867FM-12+304499999V0201101N00101002401CN030000199-01111-02481999999ADDGF109991999999999999999999MA1999999070641MD1710061+9999REMSYN05252787 32/80 91101 11111 21248 37064 57006 333 05102=
0163527870999992016020700004+37200+102867FM-12+304499999V0203201N002019999999N030000199-00911-02691999999ADDGA1021+999999999GE19AGL   +99999+99999GF102991021999999999999999MA1999999070611MD1710031+9999REMSYN05852787 32980 23202 11091 21269 37061 57003 82/// 333 05205=
0109527870999992016020703004+37200+102867FM-12+304499999V0203401N007019999999N030000199-00211-02601999999ADDGF100995999999999999999999MA1999999070631MD1210021+9999REMSYN04252787 32980 03407 11021 21260 37063 52002=
0138527870999992016020706004+37200+102867FM-12+304499999V0203201N005019999999N030000199+00081-02741999999ADDGF100995999999999999999999KA1240N-01191MA1999999070461MD1710171+9999REMSYN05852787 32980 03205 10008 21274 37046 57017 333 05308 21119=
0119527870999992016020709004+37200+102867FM-12+304499999V0203601N006019999999N030000199+00021-02591999999ADDGF100995999999999999999999MA1999999070371MD1710091+9999REMSYN05252787 32980 03606 10002 21259 37037 57009 333 05308=
0119527870999992016020712004+37200+102867FM-12+304499999V0203401N001019999999N030000199-00601-02281999999ADDGF100995999999999999999999MA1999999070471MD1210101+9999REMSYN05252787 32980 03401 11060 21228 37047 52010 333 05303=
0138527870999992016020718004+37200+102867FM-12+304499999V0201601N00301002401CN030000199-00841-02581999999ADDGF109991999999999999999999KA1120M+00211MA1999999070361MD1710081+9999REMSYN05852787 32/80 91603 11084 21258 37036 57008 333 05300 10021=
0119527870999992016020721004+37200+102867FM-12+304499999V0201101N00101002401CN030000199-00611-02931999999ADDGF109991999999999999999999MA1999999070231MD1710131+9999REMSYN05252787 32/80 91101 11061 21293 37023 57013 333 05405=
0163527870999992016020800004+37200+102867FM-12+304499999V0203601N002019999999N030000199-00601-03001999999ADDGA1021+999999999GE19AGL   +99999+99999GF102991021999999999999999MA1999999070191MD1710041+9999REMSYN05852787 32980 23602 11060 21300 37019 57004 82/// 333 05403=
0109527870999992016020803004+37200+102867FM-12+304499999V0203201N004019999999N030000199+00101-02961999999ADDGF100995999999999999999999MA1999999070241MD1210051+9999REMSYN04252787 32980 03204 10010 21296 37024 52005=
0138527870999992016020806004+37200+102867FM-12+304499999V0203201N004019999999N029000199+00311-02561999999ADDGF100995999999999999999999KA1240N-00881MA1999999070091MD1710151+9999REMSYN05852787 32979 03204 10031 21256 37009 57015 333 05402 21088=
0119527870999992016020809004+37200+102867FM-12+304499999V0203201N007019999999N030000199+00051-01821999999ADDGF100995999999999999999999MA1999999070061MD1710031+9999REMSYN05252787 32980 03207 10005 21182 37006 57003 333 05300=
0119527870999992016020812004+37200+102867FM-12+304499999V0202901N001019999999N030000199-00471-02121999999ADDGF100995999999999999999999MA1999999070241MD1210181+9999REMSYN05252787 32980 02901 11047 21212 37024 52018 333 05201=
0138527870999992016020818004+37200+102867FM-12+304499999V0201601N00501002401CN030000199-00881-02361999999ADDGF109991999999999999999999KA1120M+00511MA1999999070141MD1710101+9999REMSYN05852787 32/80 91605 11088 21236 37014 57010 333 05200 10051=
0119527870999992016020821004+37200+102867FM-12+304499999V0201401N00401002401CN030000199-00691-02721999999ADDGF109991999999999999999999MA1999999070051MD1710091+9999REMSYN05252787 32/80 91404 11069 21272 37005 57009 333 05251=
0119527870999992016020900004+37200+102867FM-12+304499999V0201601N004019999999N030000199-00811-02821999999ADDGF100995999999999999999999MA1999999070001MD1710051+9999REMSYN05252787 32980 01604 11081 21282 37000 57005 333 05252=
0109527870999992016020903004+37200+102867FM-12+304499999V0201601N007019999999N030000199+00061-02551999999ADDGF100995999999999999999999MA1999999069971MD1710031+9999REMSYN04252787 32980 01607 10006 21255 36997 57003=
0182527870999992016020906004+37200+102867FM-12+304499999V0201601N007019999999N030000199+00451-02571999999ADDGA1031+999999999GE19AGL   +99999+99999GF103991031999999999999999KA1240N-00941MA1999999069751MD1710221+9999REMSYN06452787 32980 31607 10045 21257 36975 57022 83/// 333 05301 21094=
0163527870999992016020909004+37200+102867FM-12+304499999V0203201N005019999999N030000199+00061-01921999999ADDGA1061+999999999GE19AGL   +99999+99999GF106991061999999999999999MA1999999069711MD1710041+9999REMSYN05852787 32980 63205 10006 21192 36971 57004 86/// 333 05400=
0163527870999992016020912004+37200+102867FM-12+304499999V0202901N002019999999N030000199-00541-02021999999ADDGA1061+999999999GE19AGL   +99999+99999GF106991061999999999999999MA1999999069791MD1210081+9999REMSYN05852787 32980 62902 11054 21202 36979 52008 86/// 333 05551=
0138527870999992016020918004+37200+102867FM-12+304499999V0201101N00201002401CN030000199-00511-02251999999ADDGF109991999999999999999999KA1120M+00551MA1999999069611MD1710111+9999REMSYN05852787 32/80 91102 11051 21225 36961 57011 333 05504 10055=
0119527870999992016020921004+37200+102867FM-12+304499999V0203601N00401002401CN030000199-00521-02581999999ADDGF109991999999999999999999MA1999999069461MD1710151+9999REMSYN05252787 32/80 93604 11052 21258 36946 57015 333 05602=
0163527870999992016021000004+37200+102867FM-12+304499999V0202901N002019999999N030000199-00631-02731999999ADDGA1071+017501999GE19AGL   +99999+99999GF107991071999017501999999MA1999999069441MD1710021+9999REMSYN05852787 32780 72902 11063 21273 36944 57002 87/// 333 05602=
0153527870999992016021003004+37200+102867FM-12+304499999V0201601N006019999999N030000199-00071-02271999999ADDGA1051+999999999GE19AGL   +99999+99999GF105991051999999999999999MA1999999069421MD1710021+9999REMSYN04852787 32980 51606 11007 21227 36942 57002 85///=
0182527870999992016021006004+37200+102867FM-12+304499999V0203401N006019999999N026000199+00321-02091999999ADDGA1061+999999999GE19AGL   +99999+99999GF106991061999999999999999KA1240N-00711MA1999999069281MD1710141+9999REMSYN06452787 32976 63406 10032 21209 36928 57014 86/// 333 05551 21071=
0163527870999992016021009004+37200+102867FM-12+304499999V0203601N008019999999N030000199+00001-02081999999ADDGA1071+999999999GE19AGL   +99999+99999GF107991071999999999999999MA1999999069331MD1210051+9999REMSYN05852787 32980 73608 10000 21208 36933 52005 87/// 333 05451=
0163527870999992016021012004+37200+102867FM-12+304499999V0202901N005019999999N030000199-00531-02311999999ADDGA1021+999999999GE19AGL   +99999+99999GF102991021999999999999999MA1999999069491MD1210161+9999REMSYN05852787 32980 22905 11053 21231 36949 52016 82/// 333 05300=
0138527870999992016021018004+37200+102867FM-12+304499999V0203401N00201002401CN030000199-00581-02691999999ADDGF109991999999999999999999KA1120M+00451MA1999999069541MD1710021+9999REMSYN05852787 32/80 93402 11058 21269 36954 57002 333 05151 10045=
0119527870999992016021021004+37200+102867FM-12+304499999V0201601N00301002401CN030000199-00741-02401999999ADDGF109991999999999999999999MA1999999069441MD1710101+9999REMSYN05252787 32/80 91603 11074 21240 36944 57010 333 00052=
0163527870999992016021100004+37200+102867FM-12+304499999V0201601N003019999999N030000199-00771-02431999999ADDGA1071+017501999GE19AGL   +99999+99999GF107991071999017501999999MA1999999069401MD1710041+9999REMSYN05852787 32780 71603 11077 21243 36940 57004 87/// 333 00051=
0153527870999992016021103004+37200+102867FM-12+304499999V0201601N006019999999N030000199-00121-02451999999ADDGA1071+017501999GE19AGL   +99999+99999GF107991071999017501999999MA1999999069411MD1210011+9999REMSYN04852787 32780 71606 11012 21245 36941 52001 87///=
0182527870999992016021106004+37200+102867FM-12+304499999V0201401N012019999999N030000199+00221-02521999999ADDGA1011+999999999GE19AGL   +99999+99999GF101991011999999999999999KA1240N-00831MA1999999069171MD1710241+9999REMSYN06452787 32980 11412 10022 21252 36917 57024 81/// 333 05151 21083=
0163527870999992016021109004+37200+102867FM-12+304499999V0203201N008019999999N030000199-00841-01511999999ADDGA1071+999999999GE19AGL   +99999+99999GF107991071999999999999999MA1999999069251MD1210081+9999REMSYN05852787 32980 73208 11084 21151 36925 52008 87/// 333 05158=
0181527870999992016021118004+37200+102867FM-12+304499999V0203601N01101002401CN030000199-01611-02041999999ADDAA106000631GF109991999999999999999999KA1120M+00271MA1999999069561MD1710041+9999OD139901901320REMSYN07652787 12/80 93611 11161 21204 36956 57004 69961 333 00060 10027 91119 91532=
0162527870999992016021121004+37200+102867FM-12+304499999V0203401N01001002401CN030000199-01821-02261999999ADDAA124000731GF109991999999999999999999MA1999999069551MD1710011+9999OD139901901340REMSYN07052787 42/80 93410 11182 21226 36955 57001 333 00161 70007 91119 91534=
0229527870999992016021200004+37200+102867FM-12+304499999V0203601N013019999999N030000199-01791-02061999999ADDAA106000131AA224000731GA1081+017501999GE19AGL   +99999+99999GF108991081999017501999999MA1999999069621MD1210071+9999OD139901901340REMSYN08852787 12780 83613 11179 21206 36962 52007 69911 88/// 333 00260 70007 91119 91534 92501=
0183527870999992016021203004+37200+102867FM-12+304499999V0203601N013019999999N030000199-01561-02081999999ADDGA1071+017501999GE19AGL   +99999+99999GF107991071999017501999999MA1999999069781MD1210161+9999OD139901801360REMSYN06452787 32780 73613 11156 21208 36978 52016 87/// 333 91118 91536=
0208527870999992016021206004+37200+102867FM-12+304499999V0203601N010019999999N030000199-01611-02141999999ADDGA1071+999999999GE19AGL   +99999+99999GF107991071999999999999999KA1240N-02011MA1999999069781MD1410001+9999OD139901801360REMSYN07652787 32980 73610 11161 21214 36978 54000 87/// 333 00668 21201 91118 91536=
0189527870999992016021209004+37200+102867FM-12+304499999V0203601N011019999999N030000199-01741-02251999999ADDGA1071+999999999GE19AGL   +99999+99999GF107991071999999999999999MA1999999069891MD1210111+9999OD139901801360REMSYN07052787 32980 73611 11174 21225 36989 52011 87/// 333 00659 91118 91536=
0189527870999992016021212004+37200+102867FM-12+304499999V0203601N008019999999N030000199-01871-02271999999ADDGA1071+999999999GE19AGL   +99999+99999GF107991071999999999999999MA1999999070051MD1210161+9999OD139901701340REMSYN07052787 32980 73608 11187 21227 37005 52016 87/// 333 00656 91117 91534=
0138527870999992016021218004+37200+102867FM-12+304499999V0203201N01001002401CN030000199-02121-02411999999ADDGF109991999999999999999999KA1120M-01531MA1999999070091MD1710041+9999REMSYN05852787 32/80 93210 11212 21241 37009 57004 333 00555 11153=
0136527870999992016021221004+37200+102867FM-12+304499999V0203601N01001002401CN030000199-01901-02251999999ADDAA124000431GF109991999999999999999999MA1999999070041MD1710051+9999REMSYN05852787 42/80 93610 11190 21225 37004 57005 333 00551 70004=
0203527870999992016021300004+37200+102867FM-12+304499999V0203601N009019999999N030000199-01941-02411999999ADDAA106000431AA224000431GA1071+017501999GE19AGL   +99999+99999GF107991071999017501999999MA1999999070161MD1210121+9999REMSYN07652787 12780 73609 11194 21241 37016 52012 69941 87/// 333 00552 70004 92502=
0153527870999992016021303004+37200+102867FM-12+304499999V0203401N006019999999N030000199-01891-02241999999ADDGA1051+999999999GE19AGL   +99999+99999GF105991051999999999999999MA1999999070251MD1210091+9999REMSYN04852787 32980 53406 11189 21224 37025 52009 85///=
0182527870999992016021306004+37200+102867FM-12+304499999V0203201N006019999999N030000199-01631-02181999999ADDGA1021+999999999GE19AGL   +99999+99999GF102991021999999999999999KA1240N-02141MA1999999070121MD1710131+9999REMSYN06452787 32980 23206 11163 21218 37012 57013 82/// 333 00300 21214=
0163527870999992016021309004+37200+102867FM-12+304499999V0202901N005019999999N030000199-01691-01961999999ADDGA1061+999999999GE19AGL   +99999+99999GF106991061999999999999999MA1999999070161MD1210041+9999REMSYN05852787 32980 62905 11169 21196 37016 52004 86/// 333 00301=
0163527870999992016021312004+37200+102867FM-12+304499999V0203201N001019999999N030000199-01971-02231999999ADDGA1071+999999999GE19AGL   +99999+99999GF107991071999999999999999MA1999999070321MD1210161+9999REMSYN05852787 32980 73201 11197 21223 37032 52016 87/// 333 00351=
0155527870999992016021318004+37200+102867FM-12+304499999V0202901N00401002401CN030000199-02031-02331999999ADDAA106000131GF109991999999999999999999KA1120M-01531MA1999999070191MD1710151+9999REMSYN06452787 12/80 92904 11203 21233 37019 57015 69911 333 00101 11153=
0136527870999992016021321004+37200+102867FM-12+304499999V0203201N00301002401CN030000199-01821-02321999999ADDAA124000131GF109991999999999999999999MA1999999070191MD1410001+9999REMSYN05852787 32/80 93203 11182 21232 37019 54000 333 00201 70001=
0203527870999992016021400004+37200+102867FM-12+304499999V0203201N005019999999N030000199-01981-02611999999ADDAA112000131AA224000131GA1071+017501999GE19AGL   +99999+99999GF107991071999017501999999MA1999999070311MD1210121+9999REMSYN07652787 12780 73205 11198 21261 37031 52012 69912 87/// 333 00200 70001 92501=
0153527870999992016021403004+37200+102867FM-12+304499999V0203201N002019999999N030000199-01461-02381999999ADDGA1021+999999999GE19AGL   +99999+99999GF102991021999999999999999MA1999999070411MD1210101+9999REMSYN04852787 32980 23202 11146 21238 37041 52010 82///=
0182527870999992016021406004+37200+102867FM-12+304499999V0202901N005019999999N030000199-01461-02141999999ADDGA1061+999999999GE19AGL   +99999+99999GF106991061999999999999999KA1240N-02091MA1999999070321MD1710091+9999REMSYN06452787 32980 62905 11146 21214 37032 57009 86/// 333 00202 21209=
0163527870999992016021409004+37200+102867FM-12+304499999V0203201N005019999999N030000199-01461-01951999999ADDGA1021+999999999GE19AGL   +99999+99999GF102991021999999999999999MA1999999070341MD1210021+9999REMSYN05852787 32980 23205 11146 21195 37034 52002 82/// 333 00202=
0163527870999992016021412004+37200+102867FM-12+304499999V0201101N001019999999N030000199-01711-02151999999ADDGA1021+999999999GE19AGL   +99999+99999GF102991021999999999999999MA1999999070461MD1210121+9999REMSYN05852787 32980 21101 11171 21215 37046 52012 82/// 333 00103=
0138527870999992016021418004+37200+102867FM-12+304499999V0201801N00101002401CN030000199-01481-02351999999ADDGF109991999999999999999999KA1120M-01291MA1999999070381MD1710121+9999REMSYN05852787 32/80 91801 11148 21235 37038 57012 333 00206 11129=
0119527870999992016021421004+37200+102867FM-12+304499999V0203201N00101002401CN030000199-01481-02261999999ADDGF109991999999999999999999MA1999999070301MD1710081+9999REMSYN05252787 32/80 93201 11148 21226 37030 57008 333 00103=
0169527870999992016021500004+37200+102867FM-12+304499999V0203401N001019999999N030000199-01451-02211999999ADDGA1021+999999999GE19AGL   +99999+99999GF102991021999999999999999MA1999999070301MD1410001+9999REMSYN06452787 32980 23401 11145 21221 37030 54000 82/// 333 00005 92501=
0109527870999992016021503004+37200+102867FM-12+304499999V0201601N004019999999N030000199-00981-02111999999ADDGF100995999999999999999999MA1999999070361MD1210061+9999REMSYN04252787 32980 01604 11098 21211 37036 52006=
0182527870999992016021506004+37200+102867FM-12+304499999V0202901N005019999999N030000199-01081-01871999999ADDGA1061+999999999GE19AGL   +99999+99999GF106991061999999999999999KA1240N-01891MA1999999070271MD1710091+9999REMSYN06452787 32980 62905 11108 21187 37027 57009 86/// 333 05104 21189=
0163527870999992016021509004+37200+102867FM-12+304499999V0203201N009019999999N030000199-01241-01871999999ADDGA1071+999999999GE19AGL   +99999+99999GF107991071999999999999999MA1999999070281MD1210011+9999REMSYN05852787 32980 73209 11124 21187 37028 52001 87/// 333 05102=
0163527870999992016021512004+37200+102867FM-12+304499999V0202901N002019999999N030000199-01521-02661999999ADDGA1071+999999999GE19AGL   +99999+99999GF107991071999999999999999MA1999999070511MD1210231+9999REMSYN05852787 32980 72902 11152 21266 37051 52023 87/// 333 00102=
0119527870999992016021521004+37200+102867FM-12+304499999V0201401N00101002401CN030000199-01221-02241999999ADDGF109991999999999999999999MA1999999070301MD1710161+9999REMSYN05252787 32/80 91401 11122 21224 37030 57016 333 00003=
0125527870999992016021600004+37200+102867FM-12+304499999V0201101N001019999999N030000199-01191-02421999999ADDGF100995999999999999999999MA1999999070321MD1210021+9999REMSYN05852787 32980 01101 11119 21242 37032 52002 333 00003 92501=
0109527870999992016021603004+37200+102867FM-12+304499999V0201101N001019999999N030000199-00481-02271999999ADDGF100995999999999999999999MA1999999070371MD1210051+9999REMSYN04252787 32980 01101 11048 21227 37037 52005=
0182527870999992016021606004+37200+102867FM-12+304499999V0203201N005019999999N030000199-00621-01981999999ADDGA1071+999999999GE19AGL   +99999+99999GF107991071999999999999999KA1240N-01681MA1999999070251MD1710121+9999REMSYN06452787 32980 73205 11062 21198 37025 57012 87/// 333 00005 21168=
0163527870999992016021609004+37200+102867FM-12+304499999V0203201N006019999999N030000199-00751-01931999999ADDGA1071+999999999GE19AGL   +99999+99999GF107991071999999999999999MA1999999070281MD1210031+9999REMSYN05852787 32980 73206 11075 21193 37028 52003 87/// 333 00005=
0163527870999992016021612004+37200+102867FM-12+304499999V0201601N005019999999N030000199-01001-01581999999ADDGA1071+999999999GE19AGL   +99999+99999GF107991071999999999999999MA1999999070321MD1210041+9999REMSYN05852787 32980 71605 11100 21158 37032 52004 87/// 333 05205=
0138527870999992016021618004+37200+102867FM-12+304499999V0201401N00201002401CN030000199-01131-01871999999ADDGF109991999999999999999999KA1120M-00431MA1999999070281MD1710081+9999REMSYN05852787 32/80 91402 11113 21187 37028 57008 333 05204 11043=
0119527870999992016021621004+37200+102867FM-12+304499999V0201101N00101002401CN030000199-01021-02521999999ADDGF109991999999999999999999MA1999999070081MD1710201+9999REMSYN05252787 32/80 91101 11102 21252 37008 57020 333 05202=
0169527870999992016021700004+37200+102867FM-12+304499999V0203401N002019999999N030000199-00901-02071999999ADDGA1061+999999999GE19AGL   +99999+99999GF106991061999999999999999MA1999999070081MD1410001+9999REMSYN06452787 32980 63402 11090 21207 37008 54000 86/// 333 05203 92500=
0153527870999992016021703004+37200+102867FM-12+304499999V0203201N007019999999N030000199-01131-01891999999ADDGA1021+999999999GE19AGL   +99999+99999GF102991021999999999999999MA1999999070261MD1210181+9999REMSYN04852787 32980 23207 11113 21189 37026 52018 82///=
0182527870999992016021706004+37200+102867FM-12+304499999V0203601N009019999999N030000199-00361-02511999999ADDGA1061+999999999GE19AGL   +99999+99999GF106991061999999999999999KA1240N-01371MA1999999070151MD1710111+9999REMSYN06452787 32980 63609 11036 21251 37015 57011 86/// 333 05103 21137=
0189527870999992016021709004+37200+102867FM-12+304499999V0203601N008019999999N030000199-00561-02291999999ADDGA1071+017501999GE19AGL   +99999+99999GF107991071999017501999999MA1999999070201MD1210051+9999OD139901801360REMSYN07052787 32780 73608 11056 21229 37020 52005 87/// 333 05102 91118 91536=
0189527870999992016021712004+37200+102867FM-12+304499999V0203601N009019999999N030000199-00731-02261999999ADDGA1071+017501999GE19AGL   +99999+99999GF107991071999017501999999MA1999999070321MD1210121+9999OD139901801360REMSYN07052787 32780 73609 11073 21226 37032 52012 87/// 333 00003 91118 91536=
0138527870999992016021718004+37200+102867FM-12+304499999V0201401N00401002401CN030000199-01271-02181999999ADDGF109991999999999999999999KA1120M-00321MA1999999070221MD1710151+9999REMSYN05852787 32/80 91404 11127 21218 37022 57015 333 05151 11032=
0119527870999992016021721004+37200+102867FM-12+304499999V0201401N00301002401CN030000199-01271-02231999999ADDGF109991999999999999999999MA1999999070031MD1710191+9999REMSYN05252787 32/80 91403 11127 21223 37003 57019 333 05153=
0151527870999992016021800004+37200+102867FM-12+304499999V0203601N011019999999N030000199-01391-02321999999ADDGF100995999999999999999999MA1999999070081MD1210051+9999OD139901801020REMSYN07052787 32980 03611 11139 21232 37008 52005 333 00055 91118 91502 92500=
0139527870999992016021803004+37200+102867FM-12+304499999V0200201N010019999999N030000199-01181-02261999999ADDGF100995999999999999999999MA1999999070181MD1210101+9999OD139901801020REMSYN05852787 32980 00210 11118 21226 37018 52010 333 91118 91502=
0182527870999992016021806004+37200+102867FM-12+304499999V0203601N008019999999N030000199-01011-02141999999ADDGA1071+017501999GE19AGL   +99999+99999GF107991071999017501999999KA1240N-01461MA1999999070081MD1710101+9999REMSYN06452787 32780 73608 11101 21214 37008 57010 87/// 333 05157 21146=
0197527870999992016021809004+37200+102867FM-12+304499999V0203601N013019999999N030000199-01431-01701999999ADDAY101021AY201021GA1071+017501999GE19AGL   +99999+99999GF107991071999017501999999MA1999999070181MD1210101+9999MW1701REMSYN07052787 31780 73613 11143 21170 37018 52010 77000 87/// 333 00059 92500=
0214527870999992016021812004+37200+102867FM-12+304499999V0203601N010019999999N030000199-01461-01831999999ADDAA106000131AY171021AY201021GA1081+017501999GE19AGL   +99999+99999GF108991081999017501999999MA1999999070411MD1210231+9999MW1701REMSYN07652787 11780 83610 11146 21183 37041 52023 69911 77070 88/// 333 00157 92501=
0155527870999992016021818004+37200+102867FM-12+304499999V0203201N00901002401CN030000199-01891-02121999999ADDAA106000231GF109991999999999999999999KA1120M-00961MA1999999070501MD1710031+9999REMSYN06452787 12/80 93209 11189 21212 37050 57003 69921 333 00356 11096=
0136527870999992016021821004+37200+102867FM-12+304499999V0202501N00601002401CN030000199-01901-02211999999ADDAA124000331GF109991999999999999999999MA1999999070471MD1710031+9999REMSYN05852787 42/80 92506 11190 21221 37047 57003 333 00456 70003=
0203527870999992016021900004+37200+102867FM-12+304499999V0203601N004019999999N030000199-01831-02591999999ADDAA112000231AA224000331GA1071+999999999GE19AGL   +99999+99999GF107991071999999999999999MA1999999070491MD1210021+9999REMSYN07652787 12980 73604 11183 21259 37049 52002 69922 87/// 333 00454 70003 92501=
0153527870999992016021903004+37200+102867FM-12+304499999V0203601N006019999999N030000199-01341-02521999999ADDGA1061+999999999GE19AGL   +99999+99999GF106991061999999999999999MA1999999070581MD1210091+9999REMSYN04852787 32980 63606 11134 21252 37058 52009 86///=
0182527870999992016021906004+37200+102867FM-12+304499999V0200201N011019999999N030000199-01131-02191999999ADDGA1071+017501999GE19AGL   +99999+99999GF107991071999017501999999KA1240N-01971MA1999999070551MD1710031+9999REMSYN06452787 32780 70211 11113 21219 37055 57003 87/// 333 00551 21197=
0189527870999992016021909004+37200+102867FM-12+304499999V0203401N017019999999N030000199-01411-02621999999ADDGA1071+017501999GE19AGL   +99999+99999GF107991071999017501999999MA1999999070641MD1210091+9999OD139902201340REMSYN07052787 32780 73417 11141 21262 37064 52009 87/// 333 00500 91122 91534=
0189527870999992016021912004+37200+102867FM-12+304499999V0203601N005019999999N030000199-01581-02741999999ADDGA1051+999999999GE19AGL   +99999+99999GF105991051999999999999999MA1999999070961MD1210321+9999OD139902401360REMSYN07052787 32980 53605 11158 21274 37096 52032 85/// 333 00651 91124 91536=
0138527870999992016021918004+37200+102867FM-12+304499999V0201601N00501002401CN030000199-01691-02871999999ADDGF109991999999999999999999KA1120M-01121MA1999999070641MD1710221+9999REMSYN05852787 32/80 91605 11169 21287 37064 57022 333 00102 11112=
0119527870999992016021921004+37200+102867FM-12+304499999V0201401N00201002401CN030000199-01581-02711999999ADDGF109991999999999999999999MA1999999070341MD1710301+9999REMSYN05252787 32/80 91402 11158 21271 37034 57030 333 05103=
0169527870999992016022000004+37200+102867FM-12+304499999V0200201N002019999999N030000199-01351-03061999999ADDGA1071+999999999GE19AGL   +99999+99999GF107991071999999999999999MA1999999070221MD1710121+9999REMSYN06452787 32980 70202 11135 21306 37022 57012 87/// 333 05305 92501=
0153527870999992016022003004+37200+102867FM-12+304499999V0202701N007019999999N030000199-00511-02841999999ADDGA1071+999999999GE19AGL   +99999+99999GF107991071999999999999999MA1999999070161MD1710061+9999REMSYN04852787 32980 72707 11051 21284 37016 57006 87///=
0182527870999992016022006004+37200+102867FM-12+304499999V0200401N001019999999N030000199+00001-02701999999ADDGA1071+999999999GE19AGL   +99999+99999GF107991071999999999999999KA1240N-01981MA1999999069861MD1710301+9999REMSYN06452787 32980 70401 10000 21270 36986 57030 87/// 333 05711 21198=
0163527870999992016022009004+37200+102867FM-12+304499999V0201401N004019999999N021000199+00031-02491999999ADDGA1021+999999999GE19AGL   +99999+99999GF102991021999999999999999MA1999999069781MD1710081+9999REMSYN05852787 32971 21404 10003 21249 36978 57008 82/// 333 05914=
0163527870999992016022012004+37200+102867FM-12+304499999V0203601N005019999999N030000199-00591-02701999999ADDGA1071+999999999GE19AGL   +99999+99999GF107991071999999999999999MA1999999069871MD1210091+9999REMSYN05852787 32980 73605 11059 21270 36987 52009 87/// 333 06110=
0138527870999992016022018004+37200+102867FM-12+304499999V0200901N00201002401CN030000199-00901-02581999999ADDGF109991999999999999999999KA1120M+00101MA1999999069811MD1210031+9999REMSYN05852787 32/80 90902 11090 21258 36981 52003 333 05808 10010=
0119527870999992016022021004+37200+102867FM-12+304499999V0203201N00401002401CN030000199-00841-02441999999ADDGF109991999999999999999999MA1999999069731MD1710081+9999REMSYN05252787 32/80 93204 11084 21244 36973 57008 333 05607=
0163527870999992016022100004+37200+102867FM-12+304499999V0203201N007019999999N030000199-01091-02331999999ADDGA1071+017501999GE19AGL   +99999+99999GF107991071999017501999999MA1999999069841MD1210111+9999REMSYN05852787 32780 73207 11109 21233 36984 52011 87/// 333 05403=
0153527870999992016022103004+37200+102867FM-12+304499999V0203201N002019999999N030000199-01021-02271999999ADDGA1071+017501999GE19AGL   +99999+99999GF107991071999017501999999MA1999999070021MD1210181+9999REMSYN04852787 32780 73202 11102 21227 37002 52018 87///=
0182527870999992016022106004+37200+102867FM-12+304499999V0203201N006019999999N030000199-00581-01981999999ADDGA1071+017501999GE19AGL   +99999+99999GF107991071999017501999999KA1240N-01151MA1999999069981MD1710041+9999REMSYN06452787 32780 73206 11058 21198 36998 57004 87/// 333 00156 21115=
0163527870999992016022109004+37200+102867FM-12+304499999V0203401N005019999999N030000199-00631-01851999999ADDGA1071+999999999GE19AGL   +99999+99999GF107991071999999999999999MA1999999069981MD1410001+9999REMSYN05852787 32980 73405 11063 21185 36998 54000 87/// 333 00257=
0163527870999992016022112004+37200+102867FM-12+304499999V0202901N001019999999N030000199-01071-01931999999ADDGA1071+017501999GE19AGL   +99999+99999GF107991071999017501999999MA1999999070191MD1210211+9999REMSYN05852787 32780 72901 11107 21193 37019 52021 87/// 333 00355=
0138527870999992016022118004+37200+102867FM-12+304499999V0201601N00901002401CN030000199-01231-01671999999ADDGF109991999999999999999999KA1120M-00451MA1999999070051MD1710131+9999REMSYN05852787 32/80 91609 11123 21167 37005 57013 333 00253 11045=
0119527870999992016022121004+37200+102867FM-12+304499999V0202901N00201002401CN030000199-01371-01591999999ADDGF109991999999999999999999MA1999999070051MD1410001+9999REMSYN05252787 32/80 92902 11137 21159 37005 54000 333 00355=
0163527870999992016022200004+37200+102867FM-12+304499999V0203401N009019999999N030000199-01461-01861999999ADDGA1021+999999999GE19AGL   +99999+99999GF102991021999999999999999MA1999999070191MD1210141+9999REMSYN05852787 32980 23409 11146 21186 37019 52014 82/// 333 00454=
0153527870999992016022203004+37200+102867FM-12+304499999V0203201N010019999999N030000199-01201-01771999999ADDGA1031+999999999GE19AGL   +99999+99999GF103991031999999999999999MA1999999070371MD1210181+9999REMSYN04852787 32980 33210 11120 21177 37037 52018 83///=
0182527870999992016022206004+37200+102867FM-12+304499999V0203401N006019999999N030000199-00991-01611999999ADDGA1071+017501999GE19AGL   +99999+99999GF107991071999017501999999KA1240N-01461MA1999999070361MD1710011+9999REMSYN06452787 32780 73406 11099 21161 37036 57001 87/// 333 00454 21146=
0197527870999992016022209004+37200+102867FM-12+304499999V0203601N007019999999N030000199-01181-01421999999ADDAY171021AY201021GA1081+017501999GE19AGL   +99999+99999GF108991081999017501999999MA1999999070451MD1210091+9999MW1701REMSYN07052787 41780 83607 11118 21142 37045 52009 77070 88/// 333 00556 92501=
0214527870999992016022212004+37200+102867FM-12+304499999V0200201N006019999999N030000199-01291-01631999999ADDAA106001031AY171021AY201021GA1081+017501999GE19AGL   +99999+99999GF108991081999017501999999MA1999999070691MD1210241+9999MW1701REMSYN07652787 11780 80206 11129 21163 37069 52024 60011 77070 88/// 333 00552 92501=
0155527870999992016022218004+37200+102867FM-12+304499999V0201601N00501002401CN030000199-01351-01721999999ADDAA106001031GF109991999999999999999999KA1120M-00891MA1999999070711MD1710091+9999REMSYN06452787 12/80 91605 11135 21172 37071 57009 60011 333 00751 11089=
0136527870999992016022221004+37200+102867FM-12+304499999V0201601N00401002401CN030000199-01511-01811999999ADDAA124002431GF109991999999999999999999MA1999999070621MD1710091+9999REMSYN05852787 32/80 91604 11151 21181 37062 57009 333 00651 70024=
0203527870999992016022300004+37200+102867FM-12+304499999V0201401N002019999999N030000199-01501-01851999999ADDAA112001031AA224002431GA1071+999999999GE19AGL   +99999+99999GF107991071999999999999999MA1999999070631MD1210011+9999REMSYN07652787 12980 71402 11150 21185 37063 52001 60012 87/// 333 00400 70024 92503=
0153527870999992016022303004+37200+102867FM-12+304499999V0201401N002019999999N030000199-00911-01601999999ADDGA1021+999999999GE19AGL   +99999+99999GF102991021999999999999999MA1999999070761MD1210131+9999REMSYN04852787 32980 21402 11091 21160 37076 52013 82///=
0182527870999992016022306004+37200+102867FM-12+304499999V0201601N006019999999N030000199-00641-01321999999ADDGA1021+999999999GE19AGL   +99999+99999GF102991021999999999999999KA1240N-01641MA1999999070641MD1710121+9999REMSYN06452787 32980 21606 11064 21132 37064 57012 82/// 333 00304 21164=
0197527870999992016022309004+37200+102867FM-12+304499999V0203601N006019999999N030000199-01041-01361999999ADDAY101021AY201021GA1071+017501999GE19AGL   +99999+99999GF107991071999017501999999MA1999999070651MD1210011+9999MW1701REMSYN07052787 31780 73606 11104 21136 37065 52001 77000 87/// 333 00201 92503=
0214527870999992016022312004+37200+102867FM-12+304499999V0203601N004019999999N030000199-01071-01371999999ADDAA106000631AY171021AY201021GA1081+017501999GE19AGL   +99999+99999GF108991081999017501999999MA1999999070821MD1210171+9999MW1701REMSYN07652787 11780 83604 11107 21137 37082 52017 69961 77070 88/// 333 00102 92503=
0155527870999992016022318004+37200+102867FM-12+304499999V0201401N00101002401CN030000199-01181-01341999999ADDAA106000731GF109991999999999999999999KA1120M-00601MA1999999070831MD1710061+9999REMSYN06452787 12/80 91401 11118 21134 37083 57006 69971 333 00102 11060=
0136527870999992016022321004+37200+102867FM-12+304499999V0201801N00201002401CN030000199-01151-01291999999ADDAA124001531GF109991999999999999999999MA1999999070771MD1710061+9999REMSYN05852787 42/80 91802 11115 21129 37077 57006 333 00204 70015=
0215527870999992016022400004+37200+102867FM-12+304499999V0201601N002019999999N030000199-01371-01531999999ADDAA106000431AA224001731GA1071+017501999GE19AGL   +99999+99999GF107991071999017501999999MA1999999070821MD1210051+9999MW1701REMSYN08252787 11780 71602 11137 21153 37082 52005 69941 770// 87/// 333 00201 70017 92504=
0191527870999992016022403004+37200+102867FM-12+304499999V0201601N003019999999N030000199-00911-01281999999ADDAY171021AY201021GA1021+999999999GE19AGL   +99999+99999GF102991021999999999999999MA1999999070871MD1210051+9999MW1001REMSYN06452787 41980 21603 11091 21128 37087 52005 70070 82/// 333 92504=
0227527870999992016022406004+37200+102867FM-12+304499999V0201401N005019999999N030000199-00721-01201999999ADDAA106000021AY171021AY201021GA1021+012501999GE19AGL   +99999+99999GF102991021999012501999999KA1240N-01401MA1999999070721MD1710151+9999MW1001REMSYN07652787 11680 21405 11072 21120 37072 57015 69901 70070 82/// 333 00151 21140=
0163527870999992016022409004+37200+102867FM-12+304499999V0203601N006019999999N030000199-00781-01431999999ADDGA1071+017501999GE19AGL   +99999+99999GF107991071999017501999999MA1999999070721MD1410001+9999REMSYN05852787 32780 73606 11078 21143 37072 54000 87/// 333 00103=
0214527870999992016022412004+37200+102867FM-12+304499999V0203601N007019999999N030000199-01031-01501999999ADDAA106000021AY171021AY201021GA1071+017501999GE19AGL   +99999+99999GF107991071999017501999999MA1999999070821MD1210101+9999MW1701REMSYN07652787 11780 73607 11103 21150 37082 52010 69901 77070 87/// 333 00000 92503=
0183527870999992016022418004+37200+102867FM-12+304499999V0201101N001019999999N999999999-01111-01271999999ADDAA106000531AY101021AY201021GF109991999999999999999999KA1120M-00421MA1999999070931MD1210031+9999MW1101REMSYN07052787 11/55 91101 11111 21127 37093 52003 69951 71000 333 00101 11042=
0136527870999992016022421004+37200+102867FM-12+304499999V0209999C99999002401CN030000199-01171-01421999999ADDAA124000931GF109991999999999999999999MA1999999070851MD1710081+9999REMSYN05852787 42/80 90000 11117 21142 37085 57008 333 00100 70009=
0203527870999992016022500004+37200+102867FM-12+304499999V0203201N001019999999N030000199-01151-01491999999ADDAA106000231AA224000731GA1071+017501999GE19AGL   +99999+99999GF107991071999017501999999MA1999999070961MD1210111+9999REMSYN07652787 12780 73201 11115 21149 37096 52011 69921 87/// 333 00102 70007 92504=
0109527870999992016022503004+37200+102867FM-12+304499999V0203201N003019999999N030000199-00781-01611999999ADDGF100995999999999999999999MA1999999071031MD1210071+9999REMSYN04252787 32680 03203 11078 21161 37103 52007=
0182527870999992016022506004+37200+102867FM-12+304499999V0203601N005019999999N030000199-00641-01321999999ADDGA1071+012501999GE19AGL   +99999+99999GF107991071999012501999999KA1240N-01221MA1999999071021MD1710011+9999REMSYN06452787 32680 73605 11064 21132 37102 57001 87/// 333 00301 21122=
0163527870999992016022509004+37200+102867FM-12+304499999V0203601N006019999999N030000199-00641-01531999999ADDGA1071+017501999GE19AGL   +99999+99999GF107991071999017501999999MA1999999071021MD1410001+9999REMSYN05852787 32780 73606 11064 21153 37102 54000 87/// 333 00301=
