0187583380999992016010100004+31150+118583FM-12+001699999V0201101N005019999999N002100199+00161-00021103201ADDGA1051+999999999GE19AGL   +99999+99999GF105991051999999999999999MA1999999102671MD1210011+9999MW1101REMSYN07658338 31921 51105 10016 21002 30267 40320 52001 710// 85/// 333 05502 31017=
0181583380999992016010103004+31150+118583FM-12+001699999V0201101N003019999999N004200199+00721+00021103081ADDAY101021AY201021GA1071+999999999GE19AGL   +99999+99999GF107991071999999999999999MA1999999102565MD1710111+9999MW1051REMSYN05458338 31942 71103 10072 20002 40308 57011 70500 87///=
0204583380999992016010106004+31150+118583FM-12+001699999V0201101N003019999999N999999999+01021+00001102771ADDAY101021AY201021GA1071+022501999GE19AGL   +99999+99999GF107991071999022501999999KA1240N+00021MA1999999102255MD1710311+9999MW1051REMSYN06458338 31855 71103 10102 20000 40277 57031 70500 87/// 333 20002=
0181583380999992016010109004+31150+118583FM-12+001699999V0201401N001019999999N003600199+00941+00321102721ADDAY101021AY201021GA1071+017501999GE19AGL   +99999+99999GF107991071999017501999999MA1999999102205MD1710051+9999MW1051REMSYN05458338 31736 71401 10094 20032 40272 57005 70500 87///=
0181583380999992016010112004+31150+118583FM-12+001699999V0209999C999999999999N002800199+00781+00331102721ADDAY101021AY201021GA1071+012501999GE19AGL   +99999+99999GF107991071999012501999999MA1999999102205MD1410001+9999MW1101REMSYN05458338 31628 70000 10078 20033 40272 54000 71000 87///=
0160583380999992016010118004+31150+118583FM-12+001699999V0209999C99999002401CN002100199+00611+00411102511ADDAY101021AY201021GF109991999999999999999999KA1120M+01041MA1999999101995MD1710071+9999MW1101REMSYN05858338 31/21 90000 10061 20041 40251 57007 71000 333 10104=
0121583380999992016010121004+31150+118583FM-12+001699999V0201801N00201002401CN001800199+00551+00431102371ADDGF109991999999999999999999MA1999999101855MD1710141+9999MW1101REMSYN04858338 31/18 91802 10055 20043 40237 57014 710//=
0187583380999992016010200004+31150+118583FM-12+001699999V0201601N002019999999N002400199+00501+00351102491ADDGA1061+999999999GE19AGL   +99999+99999GF106991061999999999999999MA1999999101971MD1210111+9999MW1101REMSYN07658338 31924 61602 10050 20035 30197 40249 52011 710// 86/// 333 05703 30023=
0181583380999992016010203004+31150+118583FM-12+001699999V0202701N002019999999N006000199+01261+00551102491ADDAY101021AY201021GA1071+999999999GE19AGL   +99999+99999GF107991071999999999999999MA1999999101985MD1210011+9999MW1051REMSYN05458338 31956 72702 10126 20055 40249 52001 70500 87///=
0176583380999992016010206004+31150+118583FM-12+001699999V0202901N002019999999N010000199+01571+00561102161ADDGA1071+999999999GE19AGL   +99999+99999GF107991071999999999999999KA1240N+00471MA1999999101665MD1710331+9999REMSYN05858338 32960 72902 10157 20056 40216 57033 87/// 333 20047=
0153583380999992016010209004+31150+118583FM-12+001699999V0200401N001019999999N007000199+01471+00601102131ADDGA1071+999999999GE19AGL   +99999+99999GF107991071999999999999999MA1999999101625MD1710031+9999REMSYN04858338 32957 70401 10147 20060 40213 57003 87///=
0187583380999992016010212004+31150+118583FM-12+001699999V0201101N002019999999N004900199+01021+00641102221ADDAY101021AY201021GA1071+999999999GE19AGL   +99999+99999GF107991071999999999999999MA1999999101711MD1210091+9999MW1101REMSYN06058338 31949 71102 10102 20064 30171 40222 52009 71000 87///=
0183583380999992016010218004+31150+118583FM-12+001699999V0203201N00101002401CN003400199+00941+00741102101ADDAA106000531AY101021AY201021GF109991999999999999999999KA1120M+01691MA1999999101601MD1710041+9999MW1101REMSYN07058338 11/34 93201 10094 20074 30160 40210 57004 69951 71000 333 10169=
0142583380999992016010221004+31150+118583FM-12+001699999V0202701N00101002401CN001600199+00891+00861102091ADDAA124002431GF109991999999999999999999MA1999999101575MD1710021+9999MW1101REMSYN05858338 41/16 92701 10089 20086 40209 57002 710// 333 70024=
0209583380999992016010300004+31150+118583FM-12+001699999V0200901N001019999999N001200199+00901+00891102181ADDAA106003031AA224003031GA1081+004501999GE19AGL   +99999+99999GF108991081999004501999999MA1999999101665MD1210091+9999MW1601REMSYN07658338 11412 80901 10090 20089 40218 52009 60031 760// 88/// 333 05304 70030=
0181583380999992016010303004+31150+118583FM-12+001699999V0201601N001019999999N002400199+01181+01091102211ADDAY161021AY201021GA1071+008001999GE19AGL   +99999+99999GF107991071999008001999999MA1999999101705MD1210031+9999MW1101REMSYN05458338 41524 71601 10118 20109 40221 52003 71060 87///=
0221583380999992016010306004+31150+118583FM-12+001699999V0202901N002019999999N007000199+01711+01141101931ADDAA106000131AY161021AY201021GA1071+012501999GE19AGL   +99999+99999GF107991071999012501999999KA1240N+00861MA1999999101435MD1710271+9999MW1101REMSYN07058338 11657 72902 10171 20114 40193 57027 69911 71060 87/// 333 20086=
0181583380999992016010309004+31150+118583FM-12+001699999V0209999C999999999999N999999999+01531+01171101961ADDAY101021AY201021GA1071+017501999GE19AGL   +99999+99999GF107991071999017501999999MA1999999101465MD1210031+9999MW1101REMSYN05458338 31755 70000 10153 20117 40196 52003 71000 87///=
0181583380999992016010312004+31150+118583FM-12+001699999V0201401N002019999999N003500199+01251+01111102111ADDAY101021AY201021GA1071+017501999GE19AGL   +99999+99999GF107991071999017501999999MA1999999101605MD1210141+9999MW1101REMSYN05458338 31735 71402 10125 20111 40211 52014 71000 87///=
0166583380999992016010318004+31150+118583FM-12+001699999V0200401N00101002401CN003300199+01191+01081102021ADDAY101021AY201021GF109991999999999999999999KA1120M+01751MA1999999101521MD1710041+9999MW1101REMSYN06458338 31/33 90401 10119 20108 30152 40202 57004 71000 333 10175=
0142583380999992016010321004+31150+118583FM-12+001699999V0200401N00201002401CN002000199+01121+01061102011ADDAA124000731GF109991999999999999999999MA1999999101505MD1710011+9999MW1101REMSYN05858338 31/20 90402 10112 20106 40201 57001 710// 333 70007=
0192583380999992016010400004+31150+118583FM-12+001699999V0200401N002019999999N001300199+01051+01041102131ADDAA124000131GA1071+012501999GE19AGL   +99999+99999GF107991071999012501999999MA1999999101625MD1210111+9999MW1101REMSYN07058338 31613 70402 10105 20104 40213 52011 710// 87/// 333 05102 70001=
0181583380999992016010403004+31150+118583FM-12+001699999V0200401N004019999999N002200199+01251+01091102191ADDAY101021AY201021GA1081+012501999GE19AGL   +99999+99999GF108991081999012501999999MA1999999101685MD1210071+9999MW1101REMSYN05458338 31622 80404 10125 20109 40219 52007 71000 88///=
0204583380999992016010406004+31150+118583FM-12+001699999V0200701N003019999999N001700199+01341+01091101971ADDAY101021AY201021GA1081+012501999GE19AGL   +99999+99999GF108991081999012501999999KA1240N+01011MA1999999101465MD1710221+9999MW1101REMSYN06458338 31617 80703 10134 20109 40197 57022 71000 88/// 333 20101=
0181583380999992016010409004+31150+118583FM-12+001699999V0200401N004019999999N000900199+01141+01051101991ADDAY101021AY201021GA1081+012501999GE19AGL   +99999+99999GF108991081999012501999999MA1999999101485MD1210011+9999MW1101REMSYN05458338 31609 80404 10114 20105 40199 52001 71000 88///=
0198583380999992016010412004+31150+118583FM-12+001699999V0200901N006019999999N000900199+01051+00991102021ADDAA106004031AY161021AY201021GA1081+012501999GE19AGL   +99999+99999GF108991081999012501999999MA1999999101515MD1210031+9999MW1601REMSYN06058338 11609 80906 10105 20099 40202 52003 60041 76060 88///=
0177583380999992016010418004+31150+118583FM-12+001699999V0200201N00601002401CN001000199+00961+00951101991ADDAA106006031AY141021AY201021GF109991999999999999999999KA1120M+01381MA1999999101485MD1410001+9999MW1281REMSYN06458338 11/10 90206 10096 20095 40199 54000 60061 72840 333 10138=
0142583380999992016010421004+31150+118583FM-12+001699999V0200401N00501002401CN003500199+00831+00821102201ADDAA124011331GF109991999999999999999999MA1999999101685MD1210211+9999MW1101REMSYN05858338 41/35 90405 10083 20082 40220 52021 710// 333 70113=
0203583380999992016010500004+31150+118583FM-12+001699999V0200701N004019999999N014000199+00871+00781102401ADDAA106002031AA224011331GA1081+012501999GE19AGL   +99999+99999GF108991081999012501999999MA1999999101891MD1210201+9999REMSYN07658338 12664 80704 10087 20078 30189 40240 52020 60021 88/// 333 00352 70113=
0181583380999992016010503004+31150+118583FM-12+001699999V0200701N004019999999N008000199+00921+00681102481ADDAY101021AY201021GA1081+012501999GE19AGL   +99999+99999GF108991081999012501999999MA1999999101965MD1210081+9999MW1101REMSYN05458338 31658 80704 10092 20068 40248 52008 71000 88///=
0210583380999992016010506004+31150+118583FM-12+001699999V0200701N005019999999N008000199+00941+00671102321ADDAY101021AY201021GA1081+012501999GE19AGL   +99999+99999GF108991081999012501999999KA1240N+00831MA1999999101811MD1710161+9999MW1101REMSYN07058338 31658 80705 10094 20067 30181 40232 57016 71000 88/// 333 20083=
0181583380999992016010509004+31150+118583FM-12+001699999V0200701N006019999999N999999999+00851+00661102421ADDAY101021AY201021GA1081+012501999GE19AGL   +99999+99999GF108991081999012501999999MA1999999101905MD1210101+9999MW1101REMSYN05458338 31655 80706 10085 20066 40242 52010 71000 88///=
0181583380999992016010512004+31150+118583FM-12+001699999V0200701N005019999999N004500199+00831+00631102571ADDAY101021AY201021GA1081+012501999GE19AGL   +99999+99999GF108991081999012501999999MA1999999102055MD1210151+9999MW1101REMSYN05458338 31645 80705 10083 20063 40257 52015 71000 88///=
0160583380999992016010518004+31150+118583FM-12+001699999V0200701N00401002401CN003900199+00711+00571102541ADDAY101021AY201021GF109991999999999999999999KA1120M+00981MA1999999102025MD1710101+9999MW1101REMSYN05858338 31/39 90704 10071 20057 40254 57010 71000 333 10098=
0109583380999992016010521004+31150+118583FM-12+001699999V0200701N004019999999N999999999+00691+00471102531ADDGF109991999999999999999999MA1999999102015MD1710021+9999REMSYN04258338 32/// 90704 10069 20047 40253 57002=
0175583380999992016010600004+31150+118583FM-12+001699999V0200701N004019999999N006000199+00671+00531102771ADDGA1081+012501999GE19AGL   +99999+99999GF108991081999012501999999MA1999999102255MD1210241+9999MW1101REMSYN06458338 31656 80704 10067 20053 40277 52024 710// 88/// 333 00452=
0181583380999992016010603004+31150+118583FM-12+001699999V0200401N002019999999N007000199+00791+00501102871ADDAY101021AY201021GA1081+012501999GE19AGL   +99999+99999GF108991081999012501999999MA1999999102355MD1210101+9999MW1101REMSYN05458338 31657 80402 10079 20050 40287 52010 71000 88///=
0190583380999992016010606004+31150+118583FM-12+001699999V0200401N003019999999N004200199+00791+00591102691ADDAY101021AY201021GA1081+012501999GE19AGL   +99999+99999GF108991081999012501999999KA1240N+00661MA1999999102171MW1101REMSYN06458338 31642 80403 10079 20059 30217 40269 71000 88/// 333 20066=
0181583380999992016010609004+31150+118583FM-12+001699999V0200901N002019999999N003300199+00761+00571102761ADDAY101021AY201021GA1081+012501999GE19AGL   +99999+99999GF108991081999012501999999MA1999999102245MD1210071+9999MW1101REMSYN05458338 31633 80902 10076 20057 40276 52007 71000 88///=
0181583380999992016010612004+31150+118583FM-12+001699999V0203401N002019999999N004600199+00771+00551102971ADDAY101021AY201021GA1081+012501999GE19AGL   +99999+99999GF108991081999012501999999MA1999999102455MD1210211+9999MW1101REMSYN05458338 31646 83402 10077 20055 40297 52021 71000 88///=
0166583380999992016010618004+31150+118583FM-12+001699999V0200701N00101002401CN003800199+00721+00551102931ADDAY101021AY201021GF109991999999999999999999KA1120M+00811MA1999999102411MD1710081+9999MW1101REMSYN06458338 31/38 90701 10072 20055 30241 40293 57008 71000 333 10081=
0121583380999992016010621004+31150+118583FM-12+001699999V0203401N00101002401CN002800199+00681+00581102941ADDGF109991999999999999999999MA1999999102425MD1210011+9999MW1101REMSYN04858338 31/28 93401 10068 20058 40294 52001 710//=
0175583380999992016010700004+31150+118583FM-12+001699999V0202901N001019999999N002000199+00661+00621103061ADDGA1081+008001999GE19AGL   +99999+99999GF108991081999008001999999MA1999999102545MD1210121+9999MW1101REMSYN06458338 31520 82901 10066 20062 40306 52012 710// 88/// 333 00300=
0181583380999992016010703004+31150+118583FM-12+001699999V0202501N001019999999N003700199+00801+00581103041ADDAY101021AY201021GA1071+012501999GE19AGL   +99999+99999GF107991071999012501999999MA1999999102525MD1710021+9999MW1101REMSYN05458338 31637 72501 10080 20058 40304 57002 71000 87///=
0221583380999992016010706004+31150+118583FM-12+001699999V0200401N004019999999N001500199+00521+00491102851ADDAA106000231AY161021AY201021GA1071+004501999GE19AGL   +99999+99999GF107991071999004501999999KA1240N+00521MA1999999102325MD1710191+9999MW1601REMSYN07058338 11415 70404 10052 20049 40285 57019 69921 76060 87/// 333 20052=
0181583380999992016010709004+31150+118583FM-12+001699999V0200401N003019999999N001500199+00521+00451102831ADDAY161021AY201021GA1071+004501999GE19AGL   +99999+99999GF107991071999004501999999MA1999999102305MD1710021+9999MW1101REMSYN05458338 41415 70403 10052 20045 40283 57002 71060 87///=
0204583380999992016010712004+31150+118583FM-12+001699999V0200201N003019999999N001700199+00481+00381102941ADDAA106000021AY161021AY201021GA1081+004501999GE19AGL   +99999+99999GF108991081999004501999999MA1999999102421MD1210111+9999MW1601REMSYN06658338 11417 80203 10048 20038 30242 40294 52011 69901 76060 88///=
0177583380999992016010718004+31150+118583FM-12+001699999V0209999C99999002401CN002500199+00321+00231102871ADDAA106000431AY101021AY201021GF109991999999999999999999KA1120M+00851MA1999999102345MD1710041+9999MW1101REMSYN06458338 11/25 90000 10032 20023 40287 57004 69941 71000 333 10085=
0142583380999992016010721004+31150+118583FM-12+001699999V0202701N00101002401CN001900199+00321+00261102821ADDAA124000631GF109991999999999999999999MA1999999102295MD1710051+9999MW1101REMSYN05858338 31/19 92701 10032 20026 40282 57005 710// 333 70006=
0221583380999992016010800004+31150+118583FM-12+001699999V0202501N002019999999N002100199+00311+00271102991ADDAA112000431AA224000631GA1071+012501999GE19AGL   +99999+99999GF107991071999012501999999MA1999999102471MD1210171+9999MW1101REMSYN08858338 11621 72502 10031 20027 30247 40299 52017 69942 710// 87/// 333 05154 30030 70006=
0181583380999992016010803004+31150+118583FM-12+001699999V0202901N002019999999N003000199+00521+00221103011ADDAY101021AY201021GA1071+012501999GE19AGL   +99999+99999GF107991071999012501999999MA1999999102485MD1210021+9999MW1101REMSYN05458338 31630 72902 10052 20022 40301 52002 71000 87///=
0210583380999992016010806004+31150+118583FM-12+001699999V0203201N002019999999N006000199+00671+00041102741ADDAY101021AY201021GA1061+999999999GE19AGL   +99999+99999GF106991061999999999999999KA1240N+00301MA1999999102221MD1710271+9999MW1051REMSYN07058338 31956 63202 10067 20004 30222 40274 57027 70500 86/// 333 20030=
0181583380999992016010809004+31150+118583FM-12+001699999V0209999C999999999999N006000199+00591+00021102731ADDAY101021AY201021GA1061+999999999GE19AGL   +99999+99999GF106991061999999999999999MA1999999102215MD1710011+9999MW1051REMSYN05458338 31956 60000 10059 20002 40273 57001 70500 86///=
0181583380999992016010812004+31150+118583FM-12+001699999V0201101N002019999999N003700199+00331+00171102841ADDAY101021AY201021GA1071+999999999GE19AGL   +99999+99999GF107991071999999999999999MA1999999102315MD1210101+9999MW1101REMSYN05458338 31937 71102 10033 20017 40284 52010 71000 87///=
0166583380999992016010818004+31150+118583FM-12+001699999V0209999C99999002401CN002200199+00211+00141102741ADDAY101021AY201021GF109991999999999999999999KA1120M+00781MA1999999102221MD1710111+9999MW1101REMSYN06458338 31/22 90000 10021 20014 30222 40274 57011 71000 333 10078=
0121583380999992016010821004+31150+118583FM-12+001699999V0201101N00101002401CN002000199+00131+00121102721ADDGF109991999999999999999999MA1999999102195MD1710021+9999MW1101REMSYN04858338 31/20 91101 10013 20012 40272 57002 710//=
0187583380999992016010900004+31150+118583FM-12+001699999V0200901N003019999999N000700199+00161+00151102771ADDGA1071+999999999GE19AGL   +99999+99999GF107991071999999999999999MA1999999102241MD1210041+9999MW1101REMSYN07658338 31907 70903 10016 20015 30224 40277 52004 710// 87/// 333 05252 31010=
0181583380999992016010903004+31150+118583FM-12+001699999V0200901N004019999999N999999999+00731+00261102771ADDAY101021AY201021GA1071+012501999GE19AGL   +99999+99999GF107991071999012501999999MA1999999102255MD1210011+9999MW1101REMSYN05458338 31655 70904 10073 20026 40277 52001 71000 87///=
0176583380999992016010906004+31150+118583FM-12+001699999V0200901N002019999999N008000199+00901+00071102451ADDGA1071+012501999GE19AGL   +99999+99999GF107991071999012501999999KA1240N+00051MA1999999101935MD1710321+9999REMSYN05858338 32658 70902 10090 20007 40245 57032 87/// 333 20005=
0181583380999992016010909004+31150+118583FM-12+001699999V0200201N002019999999N006000199+00821+00221102511ADDAY101021AY201021GA1081+012501999GE19AGL   +99999+99999GF108991081999012501999999MA1999999101995MD1210061+9999MW1051REMSYN05458338 31656 80202 10082 20022 40251 52006 70500 88///=
0181583380999992016010912004+31150+118583FM-12+001699999V0200901N004019999999N004300199+00741+00331102441ADDAY101021AY201021GA1081+012501999GE19AGL   +99999+99999GF108991081999012501999999MA1999999101925MD1710071+9999MW1101REMSYN05458338 31643 80904 10074 20033 40244 57007 71000 88///=
0160583380999992016010918004+31150+118583FM-12+001699999V0201101N00301002401CN003500199+00691+00321102421ADDAY101021AY201021GF109991999999999999999999KA1120M+00941MA1999999101905MD1710071+9999MW1101REMSYN05858338 31/35 91103 10069 20032 40242 57007 71000 333 10094=
0121583380999992016010921004+31150+118583FM-12+001699999V0200901N00301002401CN002900199+00661+00391102341ADDGF109991999999999999999999MA1999999101825MD1710081+9999MW1101REMSYN04858338 31/29 90903 10066 20039 40234 57008 710//=
0175583380999992016011000004+31150+118583FM-12+001699999V0200701N003019999999N002700199+00661+00381102451ADDGA1081+012501999GE19AGL   +99999+99999GF108991081999012501999999MA1999999101935MD1210101+9999MW1101REMSYN06458338 31627 80703 10066 20038 40245 52010 710// 88/// 333 05305=
0181583380999992016011003004+31150+118583FM-12+001699999V0200701N004019999999N002900199+00781+00481102481ADDAY101021AY201021GA1081+012501999GE19AGL   +99999+99999GF108991081999012501999999MA1999999101965MD1210041+9999MW1101REMSYN05458338 31629 80704 10078 20048 40248 52004 71000 88///=
0204583380999992016011006004+31150+118583FM-12+001699999V0200701N004019999999N003300199+00881+00521102211ADDAY101021AY201021GA1081+012501999GE19AGL   +99999+99999GF108991081999012501999999KA1240N+00641MA1999999101695MD1710271+9999MW1101REMSYN06458338 31633 80704 10088 20052 40221 57027 71000 88/// 333 20064=
0181583380999992016011009004+31150+118583FM-12+001699999V0200401N004019999999N003500199+00851+00541102271ADDAY101021AY201021GA1081+012501999GE19AGL   +99999+99999GF108991081999012501999999MA1999999101755MD1210061+9999MW1101REMSYN05458338 31635 80404 10085 20054 40227 52006 71000 88///=
0204583380999992016011012004+31150+118583FM-12+001699999V0200701N004019999999N001600199+00751+00711102371ADDAA106000931AY161021AY201021GA1081+004501999GE19AGL   +99999+99999GF108991081999004501999999MA1999999101851MD1210091+9999MW1601REMSYN06658338 11416 80704 10075 20071 30185 40237 52009 69991 76060 88///=
0177583380999992016011018004+31150+118583FM-12+001699999V0200401N00301002401CN000900199+00681+00671102411ADDAA106008031AY101021AY201021GF109991999999999999999999KA1120M+00891MA1999999101895MD1710021+9999MW1101REMSYN06458338 11/09 90403 10068 20067 40241 57002 60081 71000 333 10089=
0158583380999992016011021004+31150+118583FM-12+001699999V0200401N00501002401CN001100199+00651+00641102371ADDAA124010431AY161021AY261021GF109991999999999999999999MA1999999101855MD1710041+9999MW1611REMSYN05858338 41/11 90405 10065 20064 40237 57004 76166 333 70104=
0209583380999992016011100004+31150+118583FM-12+001699999V0200701N006019999999N004400199+00601+00501102531ADDAA106002031AA224011031GA1081+004501999GE19AGL   +99999+99999GF108991081999004501999999MA1999999102015MD1210151+9999MW1601REMSYN07658338 11444 80706 10060 20050 40253 52015 60021 760// 88/// 333 00151 70110=
0181583380999992016011103004+31150+118583FM-12+001699999V0200701N004019999999N003300199+00621+00551102631ADDAY161021AY261021GA1081+002501999GE19AGL   +99999+99999GF108991081999002501999999MA1999999102115MD1210101+9999MW1601REMSYN05458338 41333 80704 10062 20055 40263 52010 76066 88///=
0221583380999992016011106004+31150+118583FM-12+001699999V0200701N004019999999N002900199+00601+00531102451ADDAA106002031AY161021AY261021GA1081+002501999GE19AGL   +99999+99999GF108991081999002501999999KA1240N+00571MA1999999101935MD1710181+9999MW1611REMSYN07058338 11329 80704 10060 20053 40245 57018 60021 76166 88/// 333 20057=
0181583380999992016011109004+31150+118583FM-12+001699999V0200401N003019999999N003500199+00511+00421102661ADDAY161021AY261021GA1081+002501999GE19AGL   +99999+99999GF108991081999002501999999MA1999999102135MD1210211+9999MW1611REMSYN05458338 41335 80403 10051 20042 40266 52021 76166 88///=
0198583380999992016011112004+31150+118583FM-12+001699999V0200701N003019999999N002800199+00411+00321102891ADDAA106004031AY161021AY261021GA1081+002501999GE19AGL   +99999+99999GF108991081999002501999999MA1999999102365MD1210231+9999MW1601REMSYN06058338 11328 80703 10041 20032 40289 52023 60041 76066 88///=
0155583380999992016011118004+31150+118583FM-12+001699999V0200701N00501002401CN009000199+00281+00131103001ADDAA106000331GF109991999999999999999999KA1120M+00681MA1999999102481MD1710041+9999REMSYN06458338 12/59 90705 10028 20013 30248 40300 57004 69931 333 10068=
0158583380999992016011121004+31150+118583FM-12+001699999V0200701N00301002401CN007000199+00261+00081103011ADDAA124007031AY161021AY201021GF109991999999999999999999MA1999999102485MD1210011+9999MW1101REMSYN05858338 31/57 90703 10026 20008 40301 52001 71060 333 70070=
0209583380999992016011200004+31150+118583FM-12+001699999V0200401N003019999999N008000199+00201+00011103081ADDAA112000331AA224006431GA1081+004501999GE19AGL   +99999+99999GF108991081999004501999999MA1999999102551MD1210061+9999REMSYN08258338 12458 80403 10020 20001 30255 40308 52006 69932 88/// 333 00554 30020 70064=
0181583380999992016011203004+31150+118583FM-12+001699999V0200401N003019999999N004500199+00211+00141103211ADDAY161021AY201021GA1081+004501999GE19AGL   +99999+99999GF108991081999004501999999MA1999999102685MD1210131+9999MW1601REMSYN05458338 41445 80403 10021 20014 40321 52013 76060 88///=
0221583380999992016011206004+31150+118583FM-12+001699999V0200201N002019999999N007000199+00221+00071102941ADDAA106000231AY161021AY201021GA1081+004501999GE19AGL   +99999+99999GF108991081999004501999999KA1240N+00171MA1999999102415MD1710271+9999MW1601REMSYN07058338 11457 80202 10022 20007 40294 57027 69921 76060 88/// 333 20017=
0181583380999992016011209004+31150+118583FM-12+001699999V0200201N002019999999N007000199+00221+00041102961ADDAY161021AY201021GA1081+004501999GE19AGL   +99999+99999GF108991081999004501999999MA1999999102435MD1210021+9999MW1101REMSYN05458338 31457 80202 10022 20004 40296 52002 71060 88///=
0198583380999992016011212004+31150+118583FM-12+001699999V0200401N001019999999N007000199+00201+00021103041ADDAA106000021AY161021AY201021GA1081+012501999GE19AGL   +99999+99999GF108991081999012501999999MA1999999102515MD1210081+9999MW1101REMSYN06058338 11657 80401 10020 20002 40304 52008 69901 71060 88///=
0166583380999992016011218004+31150+118583FM-12+001699999V0203601N00201002401CN004000199+00161-00021102981ADDAY101021AY201021GF109991999999999999999999KA1120M+00281MA1999999102451MD1710121+9999MW1101REMSYN06458338 31/40 93602 10016 21002 30245 40298 57012 71000 333 10028=
0158583380999992016011221004+31150+118583FM-12+001699999V0203601N001019999999N999999999+00071-00121102971ADDAA124000231AY101021AY201021GF109991999999999999999999MA1999999102435MD1710011+9999MW1101REMSYN05858338 31/55 93601 10007 21012 40297 57001 71000 333 70002=
0198583380999992016011300004+31150+118583FM-12+001699999V0202901N001019999999N006000199+00111-00111103071ADDAA124000231GA1081+012501999GE19AGL   +99999+99999GF108991081999012501999999MA1999999102535MD1210101+9999MW1101REMSYN07658338 31656 82901 10011 21011 40307 52010 710// 88/// 333 00051 30001 70002=
0181583380999992016011303004+31150+118583FM-12+001699999V0202901N002019999999N999999999+00231-00011103021ADDAY171021AY201021GA1081+008001999GE19AGL   +99999+99999GF108991081999008001999999MA1999999102495MD1710051+9999MW1231REMSYN05458338 31555 82902 10023 21001 40302 57005 72370 88///=
0221583380999992016011306004+31150+118583FM-12+001699999V0203201N002019999999N004200199+00241+00031102711ADDAA106000021AY171021AY201021GA1081+012501999GE19AGL   +99999+99999GF108991081999012501999999KA1240N+00061MA1999999102185MD1710311+9999MW1681REMSYN07058338 11642 83202 10024 20003 40271 57031 69901 76870 88/// 333 20006=
0181583380999992016011309004+31150+118583FM-12+001699999V0202901N001019999999N004600199+00241-00051102731ADDAY171021AY201021GA1071+012501999GE19AGL   +99999+99999GF107991071999012501999999MA1999999102205MD1210021+9999MW1101REMSYN05458338 31646 72901 10024 21005 40273 52002 71070 87///=
0198583380999992016011312004+31150+118583FM-12+001699999V0201101N002019999999N002600199+00011-00081102761ADDAA106000021AY171021AY201021GA1081+012501999GE19AGL   +99999+99999GF108991081999012501999999MA1999999102225MD1210031+9999MW1101REMSYN06058338 11626 81102 10001 21008 40276 52003 69901 71070 88///=
0160583380999992016011318004+31150+118583FM-12+001699999V0209999C99999002401CN002100199-00091-00101102751ADDAY101021AY201021GF109991999999999999999999KA1120M+00311MA1999999102215MD1210011+9999MW1101REMSYN05858338 31/21 90000 11009 21010 40275 52001 71000 333 10031=
0121583380999992016011321004+31150+118583FM-12+001699999V0202501N00201000601CN000200199-00241-00251102641ADDGF109991999999999999999999MA1999999102105MD1710111+9999MW1461REMSYN04858338 31/02 92502 11024 21025 40264 57011 746//=
0154583380999992016011400004+31150+118583FM-12+001699999V0201801N00101000301CN000100199-00221-00231102761ADDAA124000021GF109991999999999999999999MA1999999102225MD1210121+9999MW1471REMSYN07058338 31/01 91801 11022 21023 40276 52012 747// 333 05353 31015 79999=
0181583380999992016011403004+31150+118583FM-12+001699999V0202001N001019999999N001200199+00151+00141102661ADDAY141021AY241021GA1071+004501999GE19AGL   +99999+99999GF107991071999004501999999MA1999999102135MD1710101+9999MW1281REMSYN05458338 31412 72001 10015 20014 40266 57010 72844 87///=
0204583380999992016011406004+31150+118583FM-12+001699999V0203201N002019999999N007000199+00731-00381102301ADDAY141021AY201021GA1061+999999999GE19AGL   +99999+99999GF106991061999999999999999KA1240N-00241MA1999999101785MD1710351+9999MW1051REMSYN06458338 31957 63202 10073 21038 40230 57035 70540 86/// 333 21024=
0153583380999992016011409004+31150+118583FM-12+001699999V0202501N001019999999N010000199+00651-00371102321ADDGA1081+999999999GE19AGL   +99999+99999GF108991081999999999999999MA1999999101805MD1210021+9999REMSYN04858338 32960 82501 10065 21037 40232 52002 88///=
0187583380999992016011412004+31150+118583FM-12+001699999V0200901N001019999999N999999999+00431-00011102351ADDAY101021AY201021GA1081+999999999GE19AGL   +99999+99999GF108991081999999999999999MA1999999101821MD1210021+9999MW1101REMSYN06058338 31955 80901 10043 21001 30182 40235 52002 71000 88///=
0166583380999992016011418004+31150+118583FM-12+001699999V0202501N00101002401CN004600199+00251+00011102261ADDAY101021AY201021GF109991999999999999999999KA1120M+00791MA1999999101741MD1710081+9999MW1101REMSYN06458338 31/46 92501 10025 20001 30174 40226 57008 71000 333 10079=
0121583380999992016011421004+31150+118583FM-12+001699999V0202001N00301002401CN002800199+00141+00051102161ADDGF109991999999999999999999MA1999999101635MD1710101+9999MW1101REMSYN04858338 31/28 92003 10014 20005 40216 57010 710//=
0137583380999992016011500004+31150+118583FM-12+001699999V0202501N002019999999N003200199+00041-00031102261ADDGF100995999999999999999999MA1999999101735MD1210101+9999MW1101REMSYN06458338 31932 02502 10004 21003 40226 52010 710// 333 05503 31011=
0137583380999992016011503004+31150+118583FM-12+001699999V0202001N002019999999N999999999+00781+00161102271ADDAY101021AY201021GF100995999999999999999999MA1999999101755MD1210011+9999MW1051REMSYN04858338 31955 02002 10078 20016 40227 52001 70500=
0132583380999992016011506004+31150+118583FM-12+001699999V0202501N002019999999N009000199+01061-00081101931ADDGF100995999999999999999999KA1240N+00041MA1999999101425MD1710331+9999REMSYN05258338 32959 02502 10106 21008 40193 57033 333 20004=
0109583380999992016011509004+31150+118583FM-12+001699999V0200201N001019999999N008000199+00981-00011101931ADDGF100995999999999999999999MA1999999101425MD1710011+9999REMSYN04258338 32958 00201 10098 21001 40193 57001=
0143583380999992016011512004+31150+118583FM-12+001699999V0201101N003019999999N999999999+00411+00101102051ADDAY101021AY201021GF100995999999999999999999MA1999999101531MD1210121+9999MW1101REMSYN05458338 31955 01103 10041 20010 30153 40205 52012 71000=
0160583380999992016011518004+31150+118583FM-12+001699999V0201101N00201002401CN004700199+00151-00111102121ADDAY101021AY201021GF109991999999999999999999KA1120M+01141MA1999999101595MD1210091+9999MW1101REMSYN05858338 31/47 91102 10015 21011 40212 52009 71000 333 10114=
0121583380999992016011521004+31150+118583FM-12+001699999V0201401N00201002401CN003700199-00011-00121102091ADDGF109991999999999999999999MA1999999101565MD1710031+9999MW1101REMSYN04858338 31/37 91402 11001 21012 40209 57003 710//=
0181583380999992016011600004+31150+118583FM-12+001699999V0200901N003019999999N003700199+00091-00031102081ADDGA1061+999999999GE19AGL   +99999+99999GF106991061999999999999999MA1999999101555MD1710011+9999MW1101REMSYN07058338 31937 60903 10009 21003 40208 57001 710// 86/// 333 05201 31017=
0181583380999992016011603004+31150+118583FM-12+001699999V0200901N002019999999N007000199+00801+00181102061ADDAY101021AY201021GA1071+999999999GE19AGL   +99999+99999GF107991071999999999999999MA1999999101545MD1710021+9999MW1051REMSYN05458338 31957 70902 10080 20018 40206 57002 70500 87///=
0176583380999992016011606004+31150+118583FM-12+001699999V0200901N006019999999N010000199+01101+00181101721ADDGA1071+017501999GE19AGL   +99999+99999GF107991071999017501999999KA1240N-00101MA1999999101215MD1710331+9999REMSYN05858338 32760 70906 10110 20018 40172 57033 87/// 333 21010=
0181583380999992016011609004+31150+118583FM-12+001699999V0200701N005019999999N004000199+00971+00451101641ADDAY101021AY201021GA1071+017501999GE19AGL   +99999+99999GF107991071999017501999999MA1999999101135MD1710091+9999MW1051REMSYN05458338 31740 70705 10097 20045 40164 57009 70500 87///=
0198583380999992016011612004+31150+118583FM-12+001699999V0200901N004019999999N003300199+00801+00511101691ADDAA106000231AY101021AY201021GA1081+012501999GE19AGL   +99999+99999GF108991081999012501999999MA1999999101175MD1210051+9999MW1601REMSYN06058338 11633 80904 10080 20051 40169 52005 69921 76000 88///=
0183583380999992016011618004+31150+118583FM-12+001699999V0200201N00201002401CN001700199+00541+00471101661ADDAA106003031AY101021AY201021GF109991999999999999999999KA1120M+01171MA1999999101151MD1710011+9999MW1101REMSYN07058338 11/17 90202 10054 20047 30115 40166 57001 60031 71000 333 10117=
0158583380999992016011621004+31150+118583FM-12+001699999V0203601N00401002401CN001600199+00401+00361101621ADDAA124005031AY161021AY201021GF109991999999999999999999MA1999999101105MD1710041+9999MW1601REMSYN05858338 41/16 93604 10040 20036 40162 57004 76060 333 70050=
0215583380999992016011700004+31150+118583FM-12+001699999V0203201N003019999999N001000199+00371+00361101911ADDAA106003031AA224006331GA1081+004501999GE19AGL   +99999+99999GF108991081999004501999999MA1999999101395MD1210281+9999MW1601REMSYN08258338 11410 83203 10037 20036 40191 52028 60031 760// 88/// 333 05203 30039 70063=
0181583380999992016011703004+31150+118583FM-12+001699999V0202701N002019999999N001900199+00561+00441101991ADDAY161021AY201021GA1081+004501999GE19AGL   +99999+99999GF108991081999004501999999MA1999999101475MD1210081+9999MW1101REMSYN05458338 41419 82702 10056 20044 40199 52008 71060 88///=
0221583380999992016011706004+31150+118583FM-12+001699999V0202701N001019999999N003100199+00771+00471101841ADDAA106000021AY161021AY201021GA1071+017501999GE19AGL   +99999+99999GF107991071999017501999999KA1240N+00371MA1999999101325MD1710141+9999MW1101REMSYN07058338 11731 72701 10077 20047 40184 57014 69901 71060 87/// 333 20037=
0181583380999992016011709004+31150+118583FM-12+001699999V0202201N001019999999N004400199+00811+00411101891ADDAY101021AY201021GA1071+999999999GE19AGL   +99999+99999GF107991071999999999999999MA1999999101375MD1210051+9999MW1101REMSYN05458338 31944 72201 10081 20041 40189 52005 71000 87///=
0181583380999992016011712004+31150+118583FM-12+001699999V0202501N001019999999N003200199+00491+00341102051ADDAY101021AY201021GA1071+999999999GE19AGL   +99999+99999GF107991071999999999999999MA1999999101535MD1210151+9999MW1101REMSYN05458338 31932 72501 10049 20034 40205 52015 71000 87///=
0160583380999992016011718004+31150+118583FM-12+001699999V0203201N00301002401CN001000199+00241+00141102221ADDAY101021AY201021GF109991999999999999999999KA1120M+00921MA1999999101695MD1210051+9999MW1101REMSYN05858338 31/10 93203 10024 20014 40222 52005 71000 333 10092=
0142583380999992016011721004+31150+118583FM-12+001699999V0202901N00301002401CN001200199+00211+00061102281ADDAA124001331GF109991999999999999999999MA1999999101755MD1210061+9999MW1101REMSYN05858338 31/12 92903 10021 20006 40228 52006 710// 333 70013=
0198583380999992016011800004+31150+118583FM-12+001699999V0202901N003019999999N001400199+00191+00011102481ADDAA124000021GA1081+012501999GE19AGL   +99999+99999GF108991081999012501999999MA1999999101955MD1210201+9999MW1101REMSYN07658338 31614 82903 10019 20001 40248 52020 710// 88/// 333 00652 30007 79999=
0181583380999992016011803004+31150+118583FM-12+001699999V0203201N004019999999N001700199+00321+00031102631ADDAY101021AY201021GA1081+012501999GE19AGL   +99999+99999GF108991081999012501999999MA1999999102105MD1210151+9999MW1101REMSYN05458338 31617 83204 10032 20003 40263 52015 71000 88///=
0204583380999992016011806004+31150+118583FM-12+001699999V0202901N003019999999N002500199+00431-00031102551ADDAY101021AY201021GA1081+017501999GE19AGL   +99999+99999GF108991081999017501999999KA1240N+00171MA1999999102025MD1710081+9999MW1101REMSYN06458338 31725 82903 10043 21003 40255 57008 71000 88/// 333 20017=
0181583380999992016011809004+31150+118583FM-12+001699999V0203601N003019999999N002300199+00311-00041102731ADDAY101021AY201021GA1081+017501999GE19AGL   +99999+99999GF108991081999017501999999MA1999999102205MD1210171+9999MW1101REMSYN05458338 31723 83603 10031 21004 40273 52017 71000 88///=
0181583380999992016011812004+31150+118583FM-12+001699999V0200201N002019999999N002300199+00131-00091102861ADDAY101021AY201021GA1081+017501999GE19AGL   +99999+99999GF108991081999017501999999MA1999999102335MD1210131+9999MW1101REMSYN05458338 31723 80202 10013 21009 40286 52013 71000 88///=
0160583380999992016011818004+31150+118583FM-12+001699999V0209999C99999002401CN002200199-00141-00251103041ADDAY101021AY201021GF109991999999999999999999KA1120M+00471MA1999999102505MD1210021+9999MW1101REMSYN05858338 31/22 90000 11014 21025 40304 52002 71000 333 10047=
0121583380999992016011821004+31150+118583FM-12+001699999V0200901N00101002401CN001400199-00281-00321103021ADDGF109991999999999999999999MA1999999102485MD1710021+9999MW1101REMSYN04858338 31/14 90901 11028 21032 40302 57002 710//=
0137583380999992016011900004+31150+118583FM-12+001699999V0201101N002019999999N001200199-00281-00311103201ADDGF100995999999999999999999MA1999999102665MD1210181+9999MW1101REMSYN06458338 31912 01102 11028 21031 40320 52018 710// 333 00755 31033=
0137583380999992016011903004+31150+118583FM-12+001699999V0201401N003019999999N003600199+00291-00321103201ADDAY101021AY201021GF100995999999999999999999MA1999999102675MD1410001+9999MW1051REMSYN04858338 31936 01403 10029 21032 40320 54000 70500=
0132583380999992016011906004+31150+118583FM-12+001699999V0200701N004019999999N009000199+00471-00591102931ADDGF100995999999999999999999KA1240N-00331MA1999999102405MD1710271+9999REMSYN05258338 32959 00704 10047 21059 40293 57027 333 21033=
0109583380999992016011909004+31150+118583FM-12+001699999V0200701N005019999999N009000199+00341-00741103001ADDGF100995999999999999999999MA1999999102475MD1210071+9999REMSYN04258338 32959 00705 10034 21074 40300 52007=
0109583380999992016011912004+31150+118583FM-12+001699999V0200901N005019999999N008000199+00021-00671103161ADDGF100995999999999999999999MA1999999102625MD1210151+9999REMSYN04258338 32958 00905 10002 21067 40316 52015=
0132583380999992016011918004+31150+118583FM-12+001699999V0200901N00401002401CN008000199+00031-00591103231ADDGF109991999999999999999999KA1120M+00511MA1999999102695MD1410001+9999REMSYN05258338 32/58 90904 10003 21059 40323 54000 333 10051=
0121583380999992016011921004+31150+118583FM-12+001699999V0200701N00601002401CN007000199+00001-00501103181ADDGF109991999999999999999999MA1999999102645MD1710051+9999MW1051REMSYN04858338 31/57 90706 10000 21050 40318 57005 705//=
0187583380999992016012000004+31150+118583FM-12+001699999V0200901N006019999999N007000199+00011-00471103161ADDGA1071+999999999GE19AGL   +99999+99999GF107991071999999999999999MA1999999102631MD1710021+9999MW1101REMSYN07658338 31957 70906 10001 21047 30263 40316 57002 710// 87/// 333 00003 31019=
0153583380999992016012003004+31150+118583FM-12+001699999V0200901N007019999999N010000199+00261-00511103241ADDGA1071+017501999GE19AGL   +99999+99999GF107991071999017501999999MA1999999102715MD1210081+9999REMSYN04858338 32760 70907 10026 21051 40324 52008 87///=
0176583380999992016012006004+31150+118583FM-12+001699999V0200901N009019999999N017000199+00371-00471102861ADDGA1071+017501999GE19AGL   +99999+99999GF107991071999017501999999KA1240N-00061MA1999999102335MD1710381+9999REMSYN05858338 32767 70909 10037 21047 40286 57038 87/// 333 21006=
0153583380999992016012009004+31150+118583FM-12+001699999V0200901N004019999999N014000199+00261-00251102881ADDGA1081+012501999GE19AGL   +99999+99999GF108991081999012501999999MA1999999102355MD1210021+9999REMSYN04858338 32664 80904 10026 21025 40288 52002 88///=
0204583380999992016012012004+31150+118583FM-12+001699999V0200901N003019999999N004600199+00101-00031103001ADDAA106000131AY171021AY201021GA1081+012501999GE19AGL   +99999+99999GF108991081999012501999999MA1999999102471MD1210121+9999MW1701REMSYN06658338 11646 80903 10010 21003 30247 40300 52012 69911 77070 88///=
0177583380999992016012018004+31150+118583FM-12+001699999V0200401N00301002401CN001600199-00021-00031102981ADDAA106002031AY171021AY271021GF109991999999999999999999KA1120M+00401MA1999999102445MD1710061+9999MW1701REMSYN06458338 11/16 90403 11002 21003 40298 57006 60021 77077 333 10040=
0164583380999992016012021004+31150+118583FM-12+001699999V0200401N00401002401CN001500199-00061-00071102901ADDAA124002931AY171021AY271021GF109991999999999999999999MA1999999102365MD1710081+9999MW1701REMSYN06458338 41/15 90404 11006 21007 40290 57008 77077 333 70029 92501=
0221583380999992016012100004+31150+118583FM-12+001699999V0200701N003019999999N002100199-00061-00071103031ADDAA106002031AA224004031GA1081+004501999GE19AGL   +99999+99999GF108991081999004501999999MA1999999102495MD1210131+9999MW1701REMSYN08858338 11421 80703 11006 21007 40303 52013 60021 770// 88/// 333 05151 31001 70040 92502=
0191583380999992016012103004+31150+118583FM-12+001699999V0200401N004019999999N002100199-00011-00021103111ADDAY171021AY271021GA1081+004501999GE19AGL   +99999+99999GF108991081999004501999999MA1999999102575MD1210081+9999MW1701REMSYN06458338 41421 80404 11001 21002 40311 52008 77077 88/// 333 92504=
0227583380999992016012106004+31150+118583FM-12+001699999V0200701N003019999999N003200199+00021-00011102861ADDAA106005031AY171021AY271021GA1081+004501999GE19AGL   +99999+99999GF108991081999004501999999KA1240N-00071MA1999999102325MD1710251+9999MW1701REMSYN07658338 11432 80703 10002 21001 40286 57025 60051 77077 88/// 333 21007 92504=
0191583380999992016012109004+31150+118583FM-12+001699999V0200901N002019999999N003100199+00041+00011102911ADDAY171021AY271021GA1081+004501999GE19AGL   +99999+99999GF108991081999004501999999MA1999999102375MD1210051+9999MW1701REMSYN06458338 41431 80902 10004 20001 40291 52005 77077 88/// 333 92504=
0208583380999992016012112004+31150+118583FM-12+001699999V0201101N002019999999N001900199+00041+00031103021ADDAA106000831AY171021AY271021GA1081+004501999GE19AGL   +99999+99999GF108991081999004501999999MA1999999102485MD1210111+9999MW1701REMSYN07058338 11419 81102 10004 20003 40302 52011 69981 77077 88/// 333 92504=
0183583380999992016012118004+31150+118583FM-12+001699999V0200701N00401002401CN008000199+00101-00021103061ADDAA106000231AY171021AY271021GF109991999999999999999999KA1120M+00101MA1999999102525MD1710021+9999MW1701REMSYN07058338 11/58 90704 10010 21002 40306 57002 69921 77077 333 10010 92504=
0148583380999992016012121004+31150+118583FM-12+001699999V0200701N00401002401CN009000199+00081-00141102951ADDAA124006631GF109991999999999999999999MA1999999102415MD1710111+9999MW1701REMSYN06458338 31/59 90704 10008 21014 40295 57011 770// 333 70066 92503=
0221583380999992016012200004+31150+118583FM-12+001699999V0200701N004019999999N003800199+00031-00131103141ADDAA106000231AA224005731GA1081+004501999GE19AGL   +99999+99999GF108991081999004501999999MA1999999102605MD1210191+9999MW1701REMSYN08858338 11438 80704 10003 21013 40314 52019 69921 770// 88/// 333 00101 31001 70057 92503=
0191583380999992016012203004+31150+118583FM-12+001699999V0200701N003019999999N001500199+00011+00001103271ADDAY171021AY271021GA1081+002501999GE19AGL   +99999+99999GF108991081999002501999999MA1999999102735MD1210131+9999MW1711REMSYN06458338 41315 80703 10001 20000 40327 52013 77177 88/// 333 92504=
0233583380999992016012206004+31150+118583FM-12+001699999V0200401N003019999999N001200199+00031+00021103071ADDAA106004031AY171021AY271021GA1081+002501999GE19AGL   +99999+99999GF108991081999002501999999KA1240N-00021MA1999999102541MD1710201+9999MW1711REMSYN08258338 11312 80403 10003 20002 30254 40307 57020 60041 77177 88/// 333 21002 92504=
0191583380999992016012209004+31150+118583FM-12+001699999V0200201N003019999999N000900199+00021+00011103261ADDAY171021AY271021GA1081+002501999GE19AGL   +99999+99999GF108991081999002501999999MA1999999102725MD1210191+9999MW1731REMSYN06458338 41309 80203 10002 20001 40326 52019 77377 88/// 333 92506=
0208583380999992016012212004+31150+118583FM-12+001699999V0200201N003019999999N000800199+00011+00001103661ADDAA106003031AY171021AY271021GA1081+002501999GE19AGL   +99999+99999GF108991081999002501999999MA1999999103125MD1210391+9999MW1731REMSYN07058338 11308 80203 10001 20000 40366 52039 60031 77377 88/// 333 92507=
0147583380999992016012215004+31150+118583FM-12+001699999V0203401N00201002401CN001000199-00011-00021103961ADDAY171021AY271021GF109991999999999999999999MA1999999103425MD1210301+9999MW1711REMSYN05858338 41/10 93402 11001 21002 40396 52030 77177 333 92509=
0183583380999992016012218004+31150+118583FM-12+001699999V0203401N00501002401CN001600199-00061-00071104031ADDAA106001031AY171021AY271021GF109991999999999999999999KA1120M+00101MA1999999103495MD1210071+9999MW1701REMSYN07058338 11/16 93405 11006 21007 40403 52007 60011 77077 333 10010 92509=
0164583380999992016012221004+31150+118583FM-12+001699999V0203201N00201002401CN002500199-00201-00261104011ADDAA124008931AY171021AY201021GF109991999999999999999999MA1999999103465MD1710021+9999MW1101REMSYN06458338 41/25 93202 11020 21026 40401 57002 71070 333 70089 92509=
0221583380999992016012300004+31150+118583FM-12+001699999V0203401N005019999999N006000199-00441-00671104311ADDAA106000131AA224008831GA1071+008001999GE19AGL   +99999+99999GF107991071999008001999999MA1999999103765MD1210301+9999MW1101REMSYN08858338 11556 73405 11044 21067 40431 52030 69911 710// 87/// 333 01255 31001 70088 92511=
0163583380999992016012303004+31150+118583FM-12+001699999V0203601N004019999999N013000199-00321-00791104421ADDGA1061+012501999GE19AGL   +99999+99999GF106991061999012501999999MA1999999103875MD1210111+9999REMSYN05858338 42663 63604 11032 21079 40442 52011 86/// 333 92511=
0205583380999992016012306004+31150+118583FM-12+001699999V0202901N005019999999N014000199-00191-00841104081ADDAA106003031GA1031+012501999GE19AGL   +99999+99999GF103991031999012501999999KA1240N-00471MA1999999103541MD1710341+9999REMSYN07658338 12664 32905 11019 21084 30354 40408 57034 60031 83/// 333 21047 92508=
0163583380999992016012309004+31150+118583FM-12+001699999V0203201N005019999999N013000199-00281-01061104001ADDGA1071+012501999GE19AGL   +99999+99999GF107991071999012501999999MA1999999103455MD1710081+9999REMSYN05858338 32663 73205 11028 21106 40400 57008 87/// 333 92507=
0163583380999992016012312004+31150+118583FM-12+001699999V0202701N003019999999N015000199-00351-00931104191ADDGA1071+012501999GE19AGL   +99999+99999GF107991071999012501999999MA1999999103645MD1210181+9999REMSYN05858338 32665 72703 11035 21093 40419 52018 87/// 333 92507=
0132583380999992016012318004+31150+118583FM-12+001699999V0203201N00501002401CN019000199-00391-01381104181ADDGF109991999999999999999999KA1120M-00061MA1999999103635MD1710081+9999REMSYN05258338 32/69 93205 11039 21138 40418 57008 333 11006=
0130583380999992016012321004+31150+118583FM-12+001699999V0203401N00501002401CN014000199-00671-01241104421ADDAA124000131GF109991999999999999999999MA1999999103865MD1210231+9999REMSYN05258338 32/64 93405 11067 21124 40442 52023 333 70001=
0137583380999992016012400004+31150+118583FM-12+001699999V0203201N006019999999N018000199-00771-01611104591ADDGF100995999999999999999999MA1999999104041MD1210171+9999REMSYN07058338 32968 03206 11077 21161 30404 40459 52017 333 00353 31007 92507=
0109583380999992016012403004+31150+118583FM-12+001699999V0203201N006019999999N023000199-00661-01861104731ADDGF100995999999999999999999MA1999999104175MD1210141+9999REMSYN04258338 32973 03206 11066 21186 40473 52014=
0138583380999992016012406004+31150+118583FM-12+001699999V0202901N005019999999N022000199-00481-01491104451ADDGF100995999999999999999999KA1240N-00841MA1999999103905MD1710281+9999REMSYN05858338 32972 02905 11048 21149 40445 57028 333 21084 92506=
0109583380999992016012409004+31150+118583FM-12+001699999V0202901N004019999999N021000199-00481-01441104351ADDGF100995999999999999999999MA1999999103805MD1710101+9999REMSYN04258338 32971 02904 11048 21144 40435 57010=
0125583380999992016012412004+31150+118583FM-12+001699999V0202501N002019999999N020000199-00671-01221104381ADDGF100995999999999999999999MA1999999103831MD1210031+9999REMSYN05858338 32970 02502 11067 21122 30383 40438 52003 333 92505=
0132583380999992016012418004+31150+118583FM-12+001699999V0202201N00301002401CN019000199-00861-01161104261ADDGF109991999999999999999999KA1120M-00391MA1999999103705MD1710111+9999REMSYN05258338 32/69 92203 11086 21116 40426 57011 333 11039=
0109583380999992016012421004+31150+118583FM-12+001699999V0202201N00301002401CN017000199-00931-01211104061ADDGF109991999999999999999999MA1999999103505MD1710201+9999REMSYN04258338 32/67 92203 11093 21121 40406 57020=
0131583380999992016012500004+31150+118583FM-12+001699999V0202501N003019999999N016000199-00831-01131104051ADDGF100995999999999999999999MA1999999103495MD1710011+9999REMSYN06458338 32966 02503 11083 21113 40405 57001 333 05551 31009 92505=
0109583380999992016012503004+31150+118583FM-12+001699999V0202501N006019999999N018000199-00281-01081104031ADDGF100995999999999999999999MA1999999103485MD1710021+9999REMSYN04258338 32968 02506 11028 21108 40403 57002=
0132583380999992016012506004+31150+118583FM-12+001699999V0202501N003019999999N025000199+00081-01071103661ADDGF100995999999999999999999KA1240N-00951MA1999999103125MD1710361+9999REMSYN05258338 32975 02503 10008 21107 40366 57036 333 21095=
0109583380999992016012509004+31150+118583FM-12+001699999V0202201N001019999999N025000199+00161-01061103501ADDGF100995999999999999999999MA1999999102965MD1710161+9999REMSYN04258338 32975 02201 10016 21106 40350 57016=
0109583380999992016012512004+31150+118583FM-12+001699999V0200701N001019999999N014000199-00371-00601103521ADDGF100995999999999999999999MA1999999102975MD1210011+9999REMSYN04258338 32964 00701 11037 21060 40352 52001=
0132583380999992016012518004+31150+118583FM-12+001699999V0202901N00101002401CN019000199-00461-00791103431ADDGF109991999999999999999999KA1120M+00221MA1999999102885MD1710081+9999REMSYN05258338 32/69 92901 11046 21079 40343 57008 333 10022=
0109583380999992016012521004+31150+118583FM-12+001699999V0201801N00101002401CN011000199-00491-00661103291ADDGF109991999999999999999999MA1999999102745MD1710141+9999REMSYN04258338 32/61 91801 11049 21066 40329 57014=
0125583380999992016012600004+31150+118583FM-12+001699999V0201801N001019999999N017000199-00361-00591103371ADDGF100995999999999999999999MA1999999102825MD1210081+9999REMSYN05858338 32967 01801 11036 21059 40337 52008 333 05705 31011=
0109583380999992016012603004+31150+118583FM-12+001699999V0202501N003019999999N023000199+00321-00851103351ADDGF100995999999999999999999MA1999999102825MD1710021+9999REMSYN04258338 32973 02503 10032 21085 40335 57002=
0176583380999992016012606004+31150+118583FM-12+001699999V0202701N003019999999N024000199+00571-00621103031ADDGA1041+999999999GE19AGL   +99999+99999GF104991041999999999999999KA1240N-00641MA1999999102505MD1710311+9999REMSYN05858338 32974 42703 10057 21062 40303 57031 84/// 333 21064=
0153583380999992016012609004+31150+118583FM-12+001699999V0203201N001019999999N022000199+00541-00621102991ADDGA1071+017501999GE19AGL   +99999+99999GF107991071999017501999999MA1999999102465MD1710041+9999REMSYN04858338 32772 73201 10054 21062 40299 57004 87///=
0159583380999992016012612004+31150+118583FM-12+001699999V0201101N002019999999N012000199+00301-00291103051ADDGA1081+017501999GE19AGL   +99999+99999GF108991081999017501999999MA1999999102521MD1210061+9999REMSYN05458338 32762 81102 10030 21029 30252 40305 52006 88///=
0138583380999992016012618004+31150+118583FM-12+001699999V0201401N00201002401CN015000199+00201-00371102951ADDGF109991999999999999999999KA1120M+00661MA1999999102431MD1710061+9999REMSYN05858338 32/65 91402 10020 21037 30243 40295 57006 333 10066=
0109583380999992016012621004+31150+118583FM-12+001699999V0201101N00201002401CN017000199+00171-00381102751ADDGF109991999999999999999999MA1999999102225MD1710201+9999REMSYN04258338 32/67 91102 10017 21038 40275 57020=
0169583380999992016012700004+31150+118583FM-12+001699999V0200901N002019999999N014000199+00171-00171102901ADDGA1081+017501999GE19AGL   +99999+99999GF108991081999017501999999MA1999999102375MD1210141+9999REMSYN06458338 32764 80902 10017 21017 40290 52014 88/// 333 05505 30002=
0181583380999992016012703004+31150+118583FM-12+001699999V0201401N001019999999N011000199+00411-00171102981ADDAY101021AY201021GA1081+017501999GE19AGL   +99999+99999GF108991081999017501999999MA1999999102455MD1210081+9999MW1601REMSYN05458338 31761 81401 10041 21017 40298 52008 76000 88///=
0227583380999992016012706004+31150+118583FM-12+001699999V0201601N001019999999N012000199+00501+00041102691ADDAA106000331AY161021AY201021GA1081+008001999GE19AGL   +99999+99999GF108991081999008001999999KA1240N+00131MA1999999102171MD1710281+9999MW1601REMSYN07658338 11562 81601 10050 20004 30217 40269 57028 69931 76060 88/// 333 20013=
0181583380999992016012709004+31150+118583FM-12+001699999V0200901N002019999999N009000199+00441+00111102651ADDAY161021AY201021GA1081+008001999GE19AGL   +99999+99999GF108991081999008001999999MA1999999102125MD1710041+9999MW1001REMSYN05458338 41559 80902 10044 20011 40265 57004 70060 88///=
0204583380999992016012712004+31150+118583FM-12+001699999V0200901N003019999999N009000199+00391+00141102651ADDAA106000021AY161021AY201021GA1081+012501999GE19AGL   +99999+99999GF108991081999012501999999MA1999999102131MD1410001+9999MW1001REMSYN06658338 11659 80903 10039 20014 30213 40265 54000 69901 70060 88///=
0183583380999992016012718004+31150+118583FM-12+001699999V0209999C99999002401CN002700199+00341+00281102511ADDAA106000531AY101021AY201021GF109991999999999999999999KA1120M+00501MA1999999101991MD1710151+9999MW1101REMSYN07058338 11/27 90000 10034 20028 30199 40251 57015 69951 71000 333 10050=
0142583380999992016012721004+31150+118583FM-12+001699999V0200701N00101002401CN000800199+00311+00301102311ADDAA124002431GF109991999999999999999999MA1999999101785MD1710201+9999MW1101REMSYN05858338 41/08 90701 10031 20030 40231 57020 710// 333 70024=
0221583380999992016012800004+31150+118583FM-12+001699999V0200401N001019999999N000600199+00321+00311102361ADDAA106003031AA224003831GA1081+004501999GE19AGL   +99999+99999GF108991081999004501999999MA1999999101841MD1210051+9999MW1601REMSYN08858338 11406 80401 10032 20031 30184 40236 52005 60031 760// 88/// 333 05502 30029 70038=
0181583380999992016012803004+31150+118583FM-12+001699999V0209999C999999999999N001500199+00441+00431102411ADDAY161021AY261021GA1081+008001999GE19AGL   +99999+99999GF108991081999008001999999MA1999999101885MD1210051+9999MW1211REMSYN05458338 41515 80000 10044 20043 40241 52005 72166 88///=
0221583380999992016012806004+31150+118583FM-12+001699999V0203401N001019999999N001000199+00481+00471102261ADDAA106002031AY161021AY201021GA1081+008001999GE19AGL   +99999+99999GF108991081999008001999999KA1240N+00291MA1999999101745MD1710151+9999MW1601REMSYN07058338 11510 83401 10048 20047 40226 57015 60021 76060 88/// 333 20029=
0181583380999992016012809004+31150+118583FM-12+001699999V0203401N001019999999N002200199+00511+00501102261ADDAY161021AY261021GA1081+004501999GE19AGL   +99999+99999GF108991081999004501999999MA1999999101745MD1410001+9999MW1601REMSYN05458338 41422 83401 10051 20050 40226 54000 76066 88///=
0198583380999992016012812004+31150+118583FM-12+001699999V0203601N001019999999N000400199+00501+00491102331ADDAA106002031AY161021AY261021GA1081+004501999GE19AGL   +99999+99999GF108991081999004501999999MA1999999101815MD1210071+9999MW1601REMSYN06058338 11404 83601 10050 20049 40233 52007 60021 76066 88///=
0177583380999992016012818004+31150+118583FM-12+001699999V0200201N00201002401CN002000199+00511+00501102271ADDAA106006031AY141021AY201021GF109991999999999999999999KA1120M+00511MA1999999101755MD1210021+9999MW1101REMSYN06458338 11/20 90202 10051 20050 40227 52002 60061 71040 333 10051=
0142583380999992016012821004+31150+118583FM-12+001699999V0203201N00201002401CN001900199+00521+00511102421ADDAA124013331GF109991999999999999999999MA1999999101905MD1210151+9999MW1101REMSYN05858338 41/19 93202 10052 20051 40242 52015 710// 333 70133=
0221583380999992016012900004+31150+118583FM-12+001699999V0200401N003019999999N003400199+00501+00491102571ADDAA106004031AA224013331GA1081+004501999GE19AGL   +99999+99999GF108991081999004501999999MA1999999102051MD1210151+9999MW1601REMSYN08858338 11434 80403 10050 20049 30205 40257 52015 60041 760// 88/// 333 00202 30048 70133=
0181583380999992016012903004+31150+118583FM-12+001699999V0200401N005019999999N002300199+00461+00451102701ADDAY161021AY261021GA1081+004501999GE19AGL   +99999+99999GF108991081999004501999999MA1999999102175MD1210131+9999MW1601REMSYN05458338 41423 80405 10046 20045 40270 52013 76066 88///=
0221583380999992016012906004+31150+118583FM-12+001699999V0200201N004019999999N003700199+00381+00371102631ADDAA106001031AY161021AY261021GA1081+004501999GE19AGL   +99999+99999GF108991081999004501999999KA1240N+00371MA1999999102105MD1710071+9999MW1601REMSYN07058338 11437 80204 10038 20037 40263 57007 60011 76066 88/// 333 20037=
0181583380999992016012909004+31150+118583FM-12+001699999V0200701N003019999999N007000199+00401+00301102671ADDAY161021AY261021GA1081+004501999GE19AGL   +99999+99999GF108991081999004501999999MA1999999102145MD1210041+9999MW1601REMSYN05458338 41457 80703 10040 20030 40267 52004 76066 88///=
0198583380999992016012912004+31150+118583FM-12+001699999V0200401N004019999999N002400199+00331+00301102841ADDAA106000021AY161021AY261021GA1081+004501999GE19AGL   +99999+99999GF108991081999004501999999MA1999999102315MD1210171+9999MW1601REMSYN06058338 11424 80404 10033 20030 40284 52017 69901 76066 88///=
0177583380999992016012918004+31150+118583FM-12+001699999V0200701N00201002401CN003100199+00291+00191102861ADDAA106000231AY101021AY201021GF109991999999999999999999KA1120M+00531MA1999999102335MD1710041+9999MW1101REMSYN06458338 11/31 90702 10029 20019 40286 57004 69921 71000 333 10053=
0158583380999992016012921004+31150+118583FM-12+001699999V0200401N00301002401CN002400199+00161+00101102851ADDAA124004231AY161021AY201021GF109991999999999999999999MA1999999102325MD1710021+9999MW1601REMSYN05858338 41/24 90403 10016 20010 40285 57002 76060 333 70042=
0215583380999992016013000004+31150+118583FM-12+001699999V0200701N003019999999N002900199+00131+00101102981ADDAA106002031AA224003731GA1081+004501999GE19AGL   +99999+99999GF108991081999004501999999MA1999999102455MD1210131+9999MW1601REMSYN08258338 11429 80703 10013 20010 40298 52013 60021 760// 88/// 333 00454 30010 70037=
0181583380999992016013003004+31150+118583FM-12+001699999V0200701N003019999999N006000199+00201+00111103111ADDAY161021AY261021GA1081+008001999GE19AGL   +99999+99999GF108991081999008001999999MA1999999102585MD1210131+9999MW1601REMSYN05458338 41556 80703 10020 20011 40311 52013 76066 88///=
0227583380999992016013006004+31150+118583FM-12+001699999V0200901N003019999999N008000199+00361+00151102951ADDAA106000131AY161021AY201021GA1081+008001999GE19AGL   +99999+99999GF108991081999008001999999KA1240N+00101MA1999999102421MD1710161+9999MW1001REMSYN07658338 11558 80903 10036 20015 30242 40295 57016 69911 70060 88/// 333 20010=
0153583380999992016013009004+31150+118583FM-12+001699999V0200901N003019999999N009000199+00381+00151102971ADDGA1071+999999999GE19AGL   +99999+99999GF107991071999999999999999MA1999999102445MD1210021+9999REMSYN04858338 32959 70903 10038 20015 40297 52002 87///=
0181583380999992016013012004+31150+118583FM-12+001699999V0200701N001019999999N006000199+00331+00171103231ADDAY101021AY201021GA1081+017501999GE19AGL   +99999+99999GF108991081999017501999999MA1999999102705MD1210261+9999MW1101REMSYN05458338 31756 80701 10033 20017 40323 52026 71000 88///=
0160583380999992016013018004+31150+118583FM-12+001699999V0200901N00401002401CN006000199+00281+00021103281ADDAY101021AY201021GF109991999999999999999999KA1120M+00381MA1999999102755MD1210061+9999MW1101REMSYN05858338 31/56 90904 10028 20002 40328 52006 71000 333 10038=
0158583380999992016013021004+31150+118583FM-12+001699999V0200701N005019999999N999999999+00201-00011103101ADDAA124001031AY101021AY201021GF109991999999999999999999MA1999999102575MD1710181+9999MW1101REMSYN05858338 31/55 90705 10020 21001 40310 57018 71000 333 70010=
0204583380999992016013100004+31150+118583FM-12+001699999V0200901N008019999999N006000199+00141-00081103211ADDAA124000131GA1081+017501999GE19AGL   +99999+99999GF108991081999017501999999MA1999999102681MD1210111+9999MW1101REMSYN08258338 31756 80908 10014 21008 30268 40321 52011 710// 88/// 333 00200 30009 70001=
0181583380999992016013103004+31150+118583FM-12+001699999V0200701N005019999999N004900199+00251-00031103301ADDAY101021AY201021GA1081+008001999GE19AGL   +99999+99999GF108991081999008001999999MA1999999102775MD1210091+9999MW1101REMSYN05458338 31549 80705 10025 21003 40330 52009 71000 88///=
0227583380999992016013106004+31150+118583FM-12+001699999V0200401N004019999999N002000199+00081+00011103201ADDAA106000531AY171021AY201021GA1081+004501999GE19AGL   +99999+99999GF108991081999004501999999KA1240N+00081MA1999999102671MD1710101+9999MW1701REMSYN07658338 11420 80404 10008 20001 30267 40320 57010 69951 77070 88/// 333 20008=
0191583380999992016013109004+31150+118583FM-12+001699999V0200401N004019999999N001100199-00021-00031103351ADDAY171021AY271021GA1081+004501999GE19AGL   +99999+99999GF108991081999004501999999MA1999999102815MD1210151+9999MW1711REMSYN06458338 41411 80404 11002 21003 40335 52015 77177 88/// 333 92501=
0208583380999992016013112004+31150+118583FM-12+001699999V0200201N003019999999N001900199-00051-00061103471ADDAA106004031AY171021AY271021GA1081+002501999GE19AGL   +99999+99999GF108991081999002501999999MA1999999102935MD1210121+9999MW1711REMSYN07058338 11319 80203 11005 21006 40347 52012 60041 77177 88/// 333 92504=
0160583380999992016013118004+31150+118583FM-12+001699999V0200201N00301002401CN003000199-00141-00181103701ADDAY101021AY201021GF109991999999999999999999KA1120M+00281MA1999999103165MD1210121+9999MW1101REMSYN05858338 31/30 90203 11014 21018 40370 52012 71000 333 10028=
0164583380999992016013121004+31150+118583FM-12+001699999V0200201N00201002401CN003200199-00171-00231103591ADDAA124004031AY171021AY201021GF109991999999999999999999MA1999999103055MD1710111+9999MW1101REMSYN06458338 31/32 90202 11017 21023 40359 57011 71070 333 70040 92504=
0221583380999992016020100004+31150+118583FM-12+001699999V0203401N003019999999N003300199-00211-00291103821ADDAA112000021AA224004031GA1081+004501999GE19AGL   +99999+99999GF108991081999004501999999MA1999999103275MD1210231+9999MW1101REMSYN08858338 11433 83403 11021 21029 40382 52023 69902 710// 88/// 333 00654 30000 70040 92504=
0181583380999992016020103004+31150+118583FM-12+001699999V0200201N002019999999N004700199-00171-00341103831ADDAY101021AY201021GA1081+012501999GE19AGL   +99999+99999GF108991081999012501999999MA1999999103285MD1210011+9999MW1101REMSYN05458338 31647 80202 11017 21034 40383 52001 71000 88///=
0221583380999992016020106004+31150+118583FM-12+001699999V0202701N002019999999N999999999+00051-00411103711ADDAA106004031AY101021AY201021GA1071+012501999GE19AGL   +99999+99999GF107991071999012501999999KA1240N-00221MA1999999103175MD1710121+9999MW1101REMSYN07058338 11655 72702 10005 21041 40371 57012 60041 71000 87/// 333 21022=
0181583380999992016020109004+31150+118583FM-12+001699999V0203201N002019999999N006000199-00011-00531103601ADDAY101021AY201021GA1071+012501999GE19AGL   +99999+99999GF107991071999012501999999MA1999999103065MD1710111+9999MW1051REMSYN05458338 31656 73202 11001 21053 40360 57011 70500 87///=
0181583380999992016020112004+31150+118583FM-12+001699999V0203601N001019999999N003800199-00121-00371103601ADDAY101021AY201021GA1071+012501999GE19AGL   +99999+99999GF107991071999012501999999MA1999999103065MD1410001+9999MW1101REMSYN05458338 31638 73601 11012 21037 40360 54000 71000 87///=
0160583380999992016020118004+31150+118583FM-12+001699999V0202201N00201002401CN001400199-00281-00311103651ADDAY101021AY201021GF109991999999999999999999KA1120M+00121MA1999999103105MD1710081+9999MW1101REMSYN05858338 31/14 92202 11028 21031 40365 57008 71000 333 10012=
0137583380999992016020121004+31150+118583FM-12+001699999V0202501N00201002401CN001300199-00421-00431103531ADDAY101021AY201021GF109991999999999999999999MA1999999102985MD1710121+9999MW1101REMSYN04858338 31/13 92502 11042 21043 40353 57012 71000=
0131583380999992016020200004+31150+118583FM-12+001699999V0209999C999999999999N001800199-00401-00431103601ADDGF100995999999999999999999MA1999999103061MD1210071+9999REMSYN06458338 32918 00000 11040 21043 30306 40360 52007 333 05252 31035=
0137583380999992016020203004+31150+118583FM-12+001699999V0202901N002019999999N004100199+00051-00291103591ADDAY101021AY201021GF100995999999999999999999MA1999999103055MD1710011+9999MW1101REMSYN04858338 31941 02902 10005 21029 40359 57001 71000=
0166583380999992016020206004+31150+118583FM-12+001699999V0202001N002019999999N006000199+00331-00441103241ADDAY101021AY201021GF100995999999999999999999KA1240N-00481MA1999999102711MD1710341+9999MW1051REMSYN06458338 31956 02002 10033 21044 30271 40324 57034 70500 333 21048=
0153583380999992016020209004+31150+118583FM-12+001699999V0202201N002019999999N008000199+00301-00491103141ADDGA1031+999999999GE19AGL   +99999+99999GF103991031999999999999999MA1999999102615MD1710101+9999REMSYN04858338 32958 32202 10030 21049 40314 57010 83///=
0181583380999992016020212004+31150+118583FM-12+001699999V0201601N002019999999N004300199-00051-00241103161ADDAY101021AY201021GA1051+999999999GE19AGL   +99999+99999GF105991051999999999999999MA1999999102625MD1210011+9999MW1101REMSYN05458338 31943 51602 11005 21024 40316 52001 71000 85///=
0160583380999992016020218004+31150+118583FM-12+001699999V0202701N00101002401CN006000199-00141-00421103181ADDAY101021AY201021GF109991999999999999999999KA1120M+00411MA1999999102645MD1710021+9999MW1101REMSYN05858338 31/56 92701 11014 21042 40318 57002 71000 333 10041=
0121583380999992016020221004+31150+118583FM-12+001699999V0201101N00201002401CN002400199-00341-00381103021ADDGF109991999999999999999999MA1999999102485MD1710161+9999MW1101REMSYN04858338 31/24 91102 11034 21038 40302 57016 710//=
0137583380999992016020300004+31150+118583FM-12+001699999V0209999C999999999999N002500199-00231-00291103191ADDGF100995999999999999999999MA1999999102655MD1210161+9999MW1101REMSYN06458338 31925 00000 11023 21029 40319 52016 710// 333 05402 31019=
0137583380999992016020303004+31150+118583FM-12+001699999V0201101N003019999999N006000199+00381-00281103151ADDAY101021AY201021GF100995999999999999999999MA1999999102625MD1710031+9999MW1051REMSYN04858338 31956 01103 10038 21028 40315 57003 70500=
0138583380999992016020306004+31150+118583FM-12+001699999V0201101N003019999999N009000199+00691-00641102971ADDGF100995999999999999999999KA1240N-00381MA1999999102441MD1710181+9999REMSYN05858338 32959 01103 10069 21064 30244 40297 57018 333 21038=
0109583380999992016020309004+31150+118583FM-12+001699999V0200901N002019999999N011000199+00661-00421102801ADDGF100995999999999999999999MA1999999102285MD1710171+9999REMSYN04258338 32961 00902 10066 21042 40280 57017=
0143583380999992016020312004+31150+118583FM-12+001699999V0200701N003019999999N005000199+00331-00181102901ADDAY101021AY201021GF100995999999999999999999MA1999999102371MD1210101+9999MW1051REMSYN05458338 31950 00703 10033 21018 30237 40290 52010 70500=
0160583380999992016020318004+31150+118583FM-12+001699999V0200901N00301002401CN005000199+00011-00311102921ADDAY101021AY201021GF109991999999999999999999KA1120M+00751MA1999999102385MD1710061+9999MW1101REMSYN05858338 31/50 90903 10001 21031 40292 57006 71000 333 10075=
0121583380999992016020321004+31150+118583FM-12+001699999V0200901N00301002401CN003900199+00071-00221102841ADDGF109991999999999999999999MA1999999102305MD1710081+9999MW1101REMSYN04858338 31/39 90903 10007 21022 40284 57008 710//=
0187583380999992016020400004+31150+118583FM-12+001699999V0200901N001019999999N003000199+00091-00151102961ADDGA1081+999999999GE19AGL   +99999+99999GF108991081999999999999999MA1999999102431MD1210111+9999MW1101REMSYN07658338 31930 80901 10009 21015 30243 40296 52011 710// 88/// 333 05203 31014=
0181583380999992016020403004+31150+118583FM-12+001699999V0203601N001019999999N003500199+00311-00091103051ADDAY101021AY201021GA1081+999999999GE19AGL   +99999+99999GF108991081999999999999999MA1999999102525MD1210091+9999MW1101REMSYN05458338 31935 83601 10031 21009 40305 52009 71000 88///=
0204583380999992016020406004+31150+118583FM-12+001699999V0201401N002019999999N006000199+00601-00031102701ADDAY101021AY201021GA1061+999999999GE19AGL   +99999+99999GF106991061999999999999999KA1240N-00021MA1999999102185MD1710341+9999MW1051REMSYN06458338 31956 61402 10060 21003 40270 57034 70500 86/// 333 21002=
0181583380999992016020409004+31150+118583FM-12+001699999V0200901N002019999999N005000199+00501-00021102681ADDAY101021AY201021GA1061+999999999GE19AGL   +99999+99999GF106991061999999999999999MA1999999102155MD1710021+9999MW1051REMSYN05458338 31950 60902 10050 21002 40268 57002 70500 86///=
0181583380999992016020412004+31150+118583FM-12+001699999V0200201N002019999999N003900199+00221-00021102861ADDAY101021AY201021GA1041+999999999GE19AGL   +99999+99999GF104991041999999999999999MA1999999102335MD1210171+9999MW1101REMSYN05458338 31939 40202 10022 21002 40286 52017 71000 84///=
0160583380999992016020418004+31150+118583FM-12+001699999V0202201N00201002401CN001300199-00061-00091103001ADDAY101021AY201021GF109991999999999999999999KA1120M+00611MA1999999102465MD1710011+9999MW1101REMSYN05858338 31/13 92202 11006 21009 40300 57001 71000 333 10061=
0121583380999992016020421004+31150+118583FM-12+001699999V0202701N00201002401CN001200199-00181-00191102911ADDGF109991999999999999999999MA1999999102375MD1710091+9999MW1101REMSYN04858338 31/12 92702 11018 21019 40291 57009 710//=
0137583380999992016020500004+31150+118583FM-12+001699999V0209999C99999000001CN000000199-00381-00391103031ADDGF109991999999999999999999MA1999999102485MD1210121+9999MW1471REMSYN06458338 31/00 90000 11038 21039 40303 52012 747// 333 00155 31021=
0137583380999992016020503004+31150+118583FM-12+001699999V0202701N002019999999N001900199+00251+00241103101ADDAY141021AY241021GF100995999999999999999999MA1999999102575MD1210071+9999MW1281REMSYN04858338 31919 02702 10025 20024 40310 52007 72844=
0160583380999992016020506004+31150+118583FM-12+001699999V0202901N004019999999N007000199+00861-00241102821ADDAY141021AY201021GF100995999999999999999999KA1240N-00431MA1999999102305MD1710271+9999MW1001REMSYN05858338 31957 02904 10086 21024 40282 57027 70040 333 21043=
0137583380999992016020509004+31150+118583FM-12+001699999V0202901N002019999999N007000199+00771-00231102751ADDAY101021AY201021GF100995999999999999999999MA1999999102235MD1710081+9999MW1051REMSYN04858338 31957 02902 10077 21023 40275 57008 70500=
0187583380999992016020512004+31150+118583FM-12+001699999V0202901N003019999999N006000199+00511-00251102871ADDAY101021AY201021GA1041+999999999GE19AGL   +99999+99999GF104991041999999999999999MA1999999102341MD1210121+9999MW1051REMSYN06058338 31956 42903 10051 21025 30234 40287 52012 70500 84///=
0166583380999992016020518004+31150+118583FM-12+001699999V0202501N002019999999N999999999+00201-00391103091ADDAY101021AY201021GF109991999999999999999999KA1120M+00901MA1999999102571MD1210011+9999MW1051REMSYN06458338 31/55 92502 10020 21039 30257 40309 52001 70500 333 10090=
0121583380999992016020521004+31150+118583FM-12+001699999V0202901N00301002401CN003800199+00021-00351103051ADDGF109991999999999999999999MA1999999102515MD1710041+9999MW1101REMSYN04858338 31/38 92903 10002 21035 40305 57004 710//=
0137583380999992016020600004+31150+118583FM-12+001699999V0202701N003019999999N003200199+00021-00301103291ADDGF100995999999999999999999MA1999999102755MD1210231+9999MW1101REMSYN06458338 31932 02703 10002 21030 40329 52023 710// 333 00304 31031=
0137583380999992016020603004+31150+118583FM-12+001699999V0203201N005019999999N999999999+00471-00461103471ADDAY101021AY201021GF100995999999999999999999MA1999999102945MD1210181+9999MW1051REMSYN04858338 31955 03205 10047 21046 40347 52018 70500=
0132583380999992016020606004+31150+118583FM-12+001699999V0203401N004019999999N014000199+00661-00931103241ADDGF100995999999999999999999KA1240N-00081MA1999999102715MD1710231+9999REMSYN05258338 32964 03404 10066 21093 40324 57023 333 21008=
0109583380999992016020609004+31150+118583FM-12+001699999V0202701N003019999999N014000199+00621-00741103151ADDGF100995999999999999999999MA1999999102625MD1710091+9999REMSYN04258338 32964 02703 10062 21074 40315 57009=
0109583380999992016020612004+31150+118583FM-12+001699999V0202501N002019999999N014000199+00281-00611103251ADDGF100995999999999999999999MA1999999102725MD1210101+9999REMSYN04258338 32964 02502 10028 21061 40325 52010=
0132583380999992016020618004+31150+118583FM-12+001699999V0202201N00201002401CN014000199-00111-00611102981ADDGF109991999999999999999999KA1120M+00761MA1999999102445MD1710241+9999REMSYN05258338 32/64 92202 11011 21061 40298 57024 333 10076=
0109583380999992016020621004+31150+118583FM-12+001699999V0202501N00201002401CN014000199-00231-00561102711ADDGF109991999999999999999999MA1999999102175MD1710271+9999REMSYN04258338 32/64 92502 11023 21056 40271 57027=
0125583380999992016020700004+31150+118583FM-12+001699999V0202501N002019999999N013000199-00021-00541102801ADDGF100995999999999999999999MA1999999102265MD1210091+9999REMSYN05858338 32963 02502 11002 21054 40280 52009 333 05500 31040=
0109583380999992016020703004+31150+118583FM-12+001699999V0202201N007019999999N014000199+00751-00521102651ADDGF100995999999999999999999MA1999999102135MD1710141+9999REMSYN04258338 32964 02207 10075 21052 40265 57014=
0138583380999992016020706004+31150+118583FM-12+001699999V0202701N007019999999N019000199+01141-00791102251ADDGF100995999999999999999999KA1240N-00291MA1999999101731MD1710401+9999REMSYN05858338 32969 02707 10114 21079 30173 40225 57040 333 21029=
0153583380999992016020709004+31150+118583FM-12+001699999V0202701N004019999999N016000199+01031-00301102251ADDGA1021+999999999GE19AGL   +99999+99999GF102991021999999999999999MA1999999101745MD1410001+9999REMSYN04858338 32966 22704 10103 21030 40225 54000 82///=
0109583380999992016020712004+31150+118583FM-12+001699999V0202901N003019999999N011000199+00651-00191102471ADDGF100995999999999999999999MA1999999101955MD1210221+9999REMSYN04258338 32961 02903 10065 21019 40247 52022=
0160583380999992016020718004+31150+118583FM-12+001699999V0202201N00101002401CN006000199+00251-00241102501ADDAY101021AY201021GF109991999999999999999999KA1120M+01211MA1999999101975MD1710081+9999MW1101REMSYN05858338 31/56 92201 10025 21024 40250 57008 71000 333 10121=
0109583380999992016020721004+31150+118583FM-12+001699999V0202001N00201002401CN007000199+00111-00271102341ADDGF109991999999999999999999MA1999999101815MD1710161+9999REMSYN04258338 32/57 92002 10011 21027 40234 57016=
0131583380999992016020800004+31150+118583FM-12+001699999V0202001N002019999999N009000199+00291-00221102311ADDGF100995999999999999999999MA1999999101791MD1710031+9999REMSYN06458338 32959 02002 10029 21022 30179 40231 57003 333 05503 31032=
0109583380999992016020803004+31150+118583FM-12+001699999V0202501N006019999999N013000199+01221-00241102281ADDGF100995999999999999999999MA1999999101775MD1710021+9999REMSYN04258338 32963 02506 10122 21024 40228 57002=
0132583380999992016020806004+31150+118583FM-12+001699999V0202501N007019999999N016000199+01761-00111101951ADDGF100995999999999999999999KA1240N+00061MA1999999101455MD1710331+9999REMSYN05258338 32966 02507 10176 21011 40195 57033 333 20006=
0109583380999992016020809004+31150+118583FM-12+001699999V0202501N003019999999N016000199+01741+00301101881ADDGF100995999999999999999999MA1999999101385MD1710071+9999REMSYN04258338 32966 02503 10174 20030 40188 57007=
0115583380999992016020812004+31150+118583FM-12+001699999V0202501N002019999999N013000199+01271+00141101971ADDGF100995999999999999999999MA1999999101461MD1210091+9999REMSYN04858338 32963 02502 10127 20014 30146 40197 52009=
0132583380999992016020818004+31150+118583FM-12+001699999V0202201N00201002401CN016000199+00911+00031102101ADDGF109991999999999999999999KA1120M+01861MA1999999101585MD1210031+9999REMSYN05258338 32/66 92202 10091 20003 40210 52003 333 10186=
0109583380999992016020821004+31150+118583FM-12+001699999V0201401N00301002401CN012000199+00431+00031102071ADDGF109991999999999999999999MA1999999101555MD1710041+9999REMSYN04258338 32/62 91403 10043 20003 40207 57004=
0125583380999992016020900004+31150+118583FM-12+001699999V0201401N003019999999N010000199+00641+00131102201ADDGF100995999999999999999999MA1999999101685MD1210131+9999REMSYN05858338 32960 01403 10064 20013 40220 52013 333 05104 31004=
0109583380999992016020903004+31150+118583FM-12+001699999V0201401N001019999999N015000199+01691+00251102251ADDGF100995999999999999999999MA1999999101755MD1210061+9999REMSYN04258338 32965 01401 10169 20025 40225 52006=
0132583380999992016020906004+31150+118583FM-12+001699999V0201401N001019999999N019000199+02161+00181101951ADDGF100995999999999999999999KA1240N+00281MA1999999101465MD1710301+9999REMSYN05258338 32969 01401 10216 20018 40195 57030 333 20028=
0153583380999992016020909004+31150+118583FM-12+001699999V0200701N003019999999N014000199+01911+00291101891ADDGA1041+999999999GE19AGL   +99999+99999GF104991041999999999999999MA1999999101395MD1710061+9999REMSYN04858338 32964 40703 10191 20029 40189 57006 84///=
0109583380999992016020912004+31150+118583FM-12+001699999V0200701N004019999999N014000199+01391+00391101931ADDGF100995999999999999999999MA1999999101425MD1210031+9999REMSYN04258338 32964 00704 10139 20039 40193 52003=
0132583380999992016020918004+31150+118583FM-12+001699999V0201101N00401002401CN011000199+00791+00361101741ADDGF109991999999999999999999KA1120M+02191MA1999999101225MD1710081+9999REMSYN05258338 32/61 91104 10079 20036 40174 57008 333 10219=
0109583380999992016020921004+31150+118583FM-12+001699999V0201101N00301002401CN011000199+00801+00351101641ADDGF109991999999999999999999MA1999999101125MD1710101+9999REMSYN04258338 32/61 91103 10080 20035 40164 57010=
0169583380999992016021000004+31150+118583FM-12+001699999V0201101N003019999999N010000199+00901+00321101791ADDGA1041+999999999GE19AGL   +99999+99999GF104991041999999999999999MA1999999101285MD1210151+9999REMSYN06458338 32960 41103 10090 20032 40179 52015 84/// 333 05403 30043=
0153583380999992016021003004+31150+118583FM-12+001699999V0201401N002019999999N014000199+01911+00521101781ADDGA1011+999999999GE19AGL   +99999+99999GF101991011999999999999999MA1999999101285MD1710011+9999REMSYN04858338 32964 11402 10191 20052 40178 57001 81///=
0132583380999992016021006004+31150+118583FM-12+001699999V0202501N003019999999N027000199+02421+00181101381ADDGF100995999999999999999999KA1240N+00721MA1999999100895MD1710391+9999REMSYN05258338 32977 02503 10242 20018 40138 57039 333 20072=
0153583380999992016021009004+31150+118583FM-12+001699999V0201101N002019999999N028000199+02191+00361101321ADDGA1021+999999999GE19AGL   +99999+99999GF102991021999999999999999MA1999999100835MD1710071+9999REMSYN04858338 32978 21102 10219 20036 40132 57007 82///=
0159583380999992016021012004+31150+118583FM-12+001699999V0201101N004019999999N016000199+01531+00521101331ADDGA1041+999999999GE19AGL   +99999+99999GF104991041999999999999999MA1999999100831MD1210011+9999REMSYN05458338 32966 41104 10153 20052 30083 40133 52001 84///=
0132583380999992016021018004+31150+118583FM-12+001699999V0200901N00501002401CN027000199+01271+00631101261ADDGF109991999999999999999999KA1120M+02491MA1999999100765MD1710091+9999REMSYN05258338 32/77 90905 10127 20063 40126 57009 333 10249=
0109583380999992016021021004+31150+118583FM-12+001699999V0200701N00101002401CN018000199+01291+00951101281ADDGF109991999999999999999999MA1999999100785MD1210021+9999REMSYN04258338 32/68 90701 10129 20095 40128 52002=
0197583380999992016021100004+31150+118583FM-12+001699999V0200901N002019999999N013000199+01221+01091101361ADDAA106000231AA224000231GA1071+999999999GE19AGL   +99999+99999GF107991071999999999999999MA1999999100855MD1210071+9999REMSYN07058338 12963 70902 10122 20109 40136 52007 69921 87/// 333 05403 70002=
0153583380999992016021103004+31150+118583FM-12+001699999V0209999C999999999999N011000199+01541+01221101391ADDGA1081+017501999GE19AGL   +99999+99999GF108991081999017501999999MA1999999100895MD1210031+9999REMSYN04858338 42761 80000 10154 20122 40139 52003 88///=
0176583380999992016021106004+31150+118583FM-12+001699999V0202001N002019999999N016000199+01901+01231101171ADDGA1071+017501999GE19AGL   +99999+99999GF107991071999017501999999KA1240N+01151MA1999999100685MD1710211+9999REMSYN05858338 32766 72002 10190 20123 40117 57021 87/// 333 20115=
0153583380999992016021109004+31150+118583FM-12+001699999V0200201N001019999999N018000199+02051+01391101161ADDGA1071+017501999GE19AGL   +99999+99999GF107991071999017501999999MA1999999100675MD1710011+9999REMSYN04858338 32768 70201 10205 20139 40116 57001 87///=
0160583380999992016021118004+31150+118583FM-12+001699999V0201101N00301002401CN006000199+01461+01301101281ADDAY101021AY201021GF109991999999999999999999KA1120M+02131MA1999999100785MD1710061+9999MW1101REMSYN05858338 31/56 91103 10146 20130 40128 57006 71000 333 10213=
0142583380999992016021121004+31150+118583FM-12+001699999V0200901N00301002401CN004700199+01311+01231101181ADDAA124000231GF109991999999999999999999MA1999999100685MD1710101+9999MW1101REMSYN05858338 31/47 90903 10131 20123 40118 57010 710// 333 70002=
0209583380999992016021200004+31150+118583FM-12+001699999V0200901N002019999999N002500199+01311+01261101321ADDAA106000131AA224000131GA1081+004501999GE19AGL   +99999+99999GF108991081999004501999999MA1999999100825MD1210131+9999MW1601REMSYN07658338 11425 80902 10131 20126 40132 52013 69911 760// 88/// 333 00001 70001=
0181583380999992016021203004+31150+118583FM-12+001699999V0201101N003019999999N002800199+01561+01541101251ADDAY161021AY261021GA1081+004501999GE19AGL   +99999+99999GF108991081999004501999999MA1999999100755MD1710071+9999MW1601REMSYN05458338 41428 81103 10156 20154 40125 57007 76066 88///=
0221583380999992016021206004+31150+118583FM-12+001699999V0201101N004019999999N009000199+02021+01641100841ADDAA106002031AY161021AY201021GA1021+999999999GE19AGL   +99999+99999GF102991021999999999999999KA1240N+01251MA1999999100355MD1710401+9999MW1001REMSYN07058338 11959 21104 10202 20164 40084 57040 60021 70060 82/// 333 20125=
0153583380999992016021209004+31150+118583FM-12+001699999V0200901N003019999999N008000199+02031+01671100801ADDGA1061+999999999GE19AGL   +99999+99999GF106991061999999999999999MA1999999100315MD1710041+9999REMSYN04858338 42958 60903 10203 20167 40080 57004 86///=
0181583380999992016021212004+31150+118583FM-12+001699999V0200901N003019999999N004700199+01681+01531100721ADDAY101021AY201021GA1071+017501999GE19AGL   +99999+99999GF107991071999017501999999MA1999999100225MD1710081+9999MW1101REMSYN05458338 31747 70903 10168 20153 40072 57008 71000 87///=
0177583380999992016021218004+31150+118583FM-12+001699999V0200401N00301002401CN003700199+01621+01511100541ADDAA106000331AY101021AY201021GF109991999999999999999999KA1120M+02181MA1999999100045MD1710081+9999MW1101REMSYN06458338 11/37 90403 10162 20151 40054 57008 69931 71000 333 10218=
0142583380999992016021221004+31150+118583FM-12+001699999V0202901N00801002401CN001100199+01191+01161100761ADDAA124007331GF109991999999999999999999MA1999999100265MD1210221+9999MW1101REMSYN05858338 41/11 92908 10119 20116 40076 52022 710// 333 70073=
0209583380999992016021300004+31150+118583FM-12+001699999V0202701N008019999999N003100199+00861+00801101181ADDAA106007031AA224008831GA1081+008001999GE19AGL   +99999+99999GF108991081999008001999999MA1999999100675MD1210411+9999MW1101REMSYN07658338 11531 82708 10086 20080 40118 52041 60071 710// 88/// 333 05155 70088=
0181583380999992016021303004+31150+118583FM-12+001699999V0202901N008019999999N002400199+00871+00731101521ADDAY101021AY201021GA1081+012501999GE19AGL   +99999+99999GF108991081999012501999999MA1999999101015MD1210341+9999MW1101REMSYN05458338 41624 82908 10087 20073 40152 52034 71000 88///=
0210583380999992016021306004+31150+118583FM-12+001699999V0202701N007019999999N003800199+00771+00651101541ADDAY101021AY201021GA1081+012501999GE19AGL   +99999+99999GF108991081999012501999999KA1240N+00771MA1999999101041MD1210021+9999MW1101REMSYN07058338 31638 82707 10077 20065 30104 40154 52002 71000 88/// 333 20077=
0181583380999992016021309004+31150+118583FM-12+001699999V0202901N005019999999N003000199+00781+00561101901ADDAY101021AY201021GA1081+012501999GE19AGL   +99999+99999GF108991081999012501999999MA1999999101385MD1210351+9999MW1101REMSYN05458338 31630 82905 10078 20056 40190 52035 71000 88///=
0187583380999992016021312004+31150+118583FM-12+001699999V0203401N005019999999N999999999+00641+00361102251ADDAY101021AY201021GA1081+012501999GE19AGL   +99999+99999GF108991081999012501999999MA1999999101741MD1210351+9999MW1101REMSYN06058338 31655 83405 10064 20036 30174 40225 52035 71000 88///=
0177583380999992016021318004+31150+118583FM-12+001699999V0203401N006019999999N999999999+00371+00221102681ADDAA106002031AY101021AY201021GF109991999999999999999999KA1120M+01611MA1999999102155MD1210141+9999MW1101REMSYN06458338 11/55 93406 10037 20022 40268 52014 60021 71000 333 10161=
0158583380999992016021321004+31150+118583FM-12+001699999V0203201N00201002401CN001500199+00061+00031102741ADDAA124005831AY161021AY201021GF109991999999999999999999MA1999999102215MD1210061+9999MW1601REMSYN05858338 41/15 93202 10006 20003 40274 52006 76060 333 70058=
0203583380999992016021400004+31150+118583FM-12+001699999V0203401N005019999999N009000199+00171+00011102981ADDAA106003031AA224004831GA1081+004501999GE19AGL   +99999+99999GF108991081999004501999999MA1999999102455MD1210241+9999REMSYN07658338 12459 83405 10017 20001 40298 52024 60031 88/// 333 01857 30001 70048=
0153583380999992016021403004+31150+118583FM-12+001699999V0203401N006019999999N010000199+00401-00121103151ADDGA1071+008001999GE19AGL   +99999+99999GF107991071999008001999999MA1999999102625MD1210171+9999REMSYN04858338 42560 73406 10040 21012 40315 52017 87///=
0182583380999992016021406004+31150+118583FM-12+001699999V0203201N006019999999N017000199+00471-00331102991ADDGA1071+017501999GE19AGL   +99999+99999GF107991071999017501999999KA1240N+00051MA1999999102471MD1710161+9999REMSYN06458338 32767 73206 10047 21033 30247 40299 57016 87/// 333 20005=
0153583380999992016021409004+31150+118583FM-12+001699999V0203401N004019999999N025000199+00401-00521103091ADDGA1071+012501999GE19AGL   +99999+99999GF107991071999012501999999MA1999999102565MD1210091+9999REMSYN04858338 32675 73404 10040 21052 40309 52009 87///=
0159583380999992016021412004+31150+118583FM-12+001699999V0203401N006019999999N030000199+00311-00741103331ADDGA1081+012501999GE19AGL   +99999+99999GF108991081999012501999999MA1999999102801MD1210241+9999REMSYN05458338 32680 83406 10031 21074 30280 40333 52024 88///=
0132583380999992016021418004+31150+118583FM-12+001699999V0202901N00301002401CN030000199+00021-00691103441ADDGF109991999999999999999999KA1120M+00521MA1999999102905MD1710061+9999REMSYN05258338 32/80 92903 10002 21069 40344 57006 333 10052=
0130583380999992016021421004+31150+118583FM-12+001699999V0202901N00201002401CN030000199-00091-00751103411ADDAA124000631GF109991999999999999999999MA1999999102875MD1710031+9999REMSYN05258338 32/80 92902 11009 21075 40341 57003 333 70006=
0125583380999992016021500004+31150+118583FM-12+001699999V0202201N002019999999N019000199-00101-00421103471ADDGF100995999999999999999999MA1999999102935MD1210061+9999REMSYN05858338 32969 02202 11010 21042 40347 52006 333 00553 31041=
0109583380999992016021503004+31150+118583FM-12+001699999V0202901N006019999999N024000199+00411-00771103371ADDGF100995999999999999999999MA1999999102845MD1710101+9999REMSYN04258338 32974 02906 10041 21077 40337 57010=
0132583380999992016021506004+31150+118583FM-12+001699999V0202901N006019999999N028000199+00601-00721103051ADDGF100995999999999999999999KA1240N-00251MA1999999102525MD1710321+9999REMSYN05258338 32978 02906 10060 21072 40305 57032 333 21025=
0153583380999992016021509004+31150+118583FM-12+001699999V0202901N005019999999N030000199+00571-00751102991ADDGA1021+999999999GE19AGL   +99999+99999GF102991021999999999999999MA1999999102465MD1710061+9999REMSYN04858338 32980 22905 10057 21075 40299 57006 82///=
0153583380999992016021512004+31150+118583FM-12+001699999V0202201N003019999999N030000199+00301-00521103071ADDGA1051+999999999GE19AGL   +99999+99999GF105991051999999999999999MA1999999102545MD1210081+9999REMSYN04858338 32980 52203 10030 21052 40307 52008 85///=
0109583380999992016021521004+31150+118583FM-12+001699999V0202501N00301002401CN016000199-00141-00421103011ADDGF109991999999999999999999MA1999999102475MD1710101+9999REMSYN04258338 32/66 92503 11014 21042 40301 57010=
0175583380999992016021600004+31150+118583FM-12+001699999V0202501N003019999999N012000199+00031-00331103011ADDGA1011+999999999GE19AGL   +99999+99999GF101991011999999999999999MA1999999102481MD1410001+9999REMSYN07058338 32962 12503 10003 21033 30248 40301 54000 81/// 333 05501 31036=
0153583380999992016021603004+31150+118583FM-12+001699999V0202901N005019999999N020000199+00791-00701103001ADDGA1041+999999999GE19AGL   +99999+99999GF104991041999999999999999MA1999999102485MD1410001+9999REMSYN04858338 32970 42905 10079 21070 40300 54000 84///=
0176583380999992016021606004+31150+118583FM-12+001699999V0202701N005019999999N025000199+00861-00461102711ADDGA1071+999999999GE19AGL   +99999+99999GF107991071999999999999999KA1240N-00171MA1999999102195MD1710291+9999REMSYN05858338 32975 72705 10086 21046 40271 57029 87/// 333 21017=
0153583380999992016021609004+31150+118583FM-12+001699999V0202901N004019999999N028000199+00851-00471102621ADDGA1051+999999999GE19AGL   +99999+99999GF105991051999999999999999MA1999999102105MD1710091+9999REMSYN04858338 32978 52904 10085 21047 40262 57009 85///=
0153583380999992016021612004+31150+118583FM-12+001699999V0202901N001019999999N021000199+00671-00381102761ADDGA1031+999999999GE19AGL   +99999+99999GF103991031999999999999999MA1999999102245MD1210141+9999REMSYN04858338 32971 32901 10067 21038 40276 52014 83///=
0132583380999992016021618004+31150+118583FM-12+001699999V0202501N00201002401CN014000199+00101-00211102941ADDGF109991999999999999999999KA1120M+00941MA1999999102405MD1410001+9999REMSYN05258338 32/64 92502 10010 21021 40294 54000 333 10094=
0109583380999992016021621004+31150+118583FM-12+001699999V0209999C99999002401CN009000199+00051-00291102831ADDGF109991999999999999999999MA1999999102295MD1710111+9999REMSYN04258338 32/59 90000 10005 21029 40283 57011=
0169583380999992016021700004+31150+118583FM-12+001699999V0201401N001019999999N012000199+00061-00121102971ADDGA1061+999999999GE19AGL   +99999+99999GF106991061999999999999999MA1999999102435MD1210141+9999REMSYN06458338 32962 61401 10006 21012 40297 52014 86/// 333 00000 31027=
0153583380999992016021703004+31150+118583FM-12+001699999V0201601N001019999999N019000199+01001-00141102951ADDGA1071+999999999GE19AGL   +99999+99999GF107991071999999999999999MA1999999102435MD1710021+9999REMSYN04858338 32969 71601 10100 21014 40295 57002 87///=
0176583380999992016021706004+31150+118583FM-12+001699999V0209999C999999999999N024000199+01191-00601102701ADDGA1071+999999999GE19AGL   +99999+99999GF107991071999999999999999KA1240N-00111MA1999999102195MD1710251+9999REMSYN05858338 32974 70000 10119 21060 40270 57025 87/// 333 21011=
0153583380999992016021709004+31150+118583FM-12+001699999V0200401N001019999999N021000199+01091-00361102591ADDGA1071+999999999GE19AGL   +99999+99999GF107991071999999999999999MA1999999102085MD1710111+9999REMSYN04858338 32971 70401 10109 21036 40259 57011 87///=
0159583380999992016021712004+31150+118583FM-12+001699999V0201101N002019999999N012000199+00701-00091102661ADDGA1071+999999999GE19AGL   +99999+99999GF107991071999999999999999MA1999999102141MD1210071+9999REMSYN05458338 32962 71102 10070 21009 30214 40266 52007 87///=
0132583380999992016021718004+31150+118583FM-12+001699999V0201101N00301002401CN012000199+00451+00031102421ADDGF109991999999999999999999KA1120M+01251MA1999999101895MD1710241+9999REMSYN05258338 32/62 91103 10045 20003 40242 57024 333 10125=
0109583380999992016021721004+31150+118583FM-12+001699999V0201401N00201002401CN009000199+00221-00041102311ADDGF109991999999999999999999MA1999999101785MD1710121+9999REMSYN04258338 32/59 91402 10022 21004 40231 57012=
0175583380999992016021800004+31150+118583FM-12+001699999V0202201N002019999999N013000199+00391+00021102471ADDGA1071+012501999GE19AGL   +99999+99999GF107991071999012501999999MA1999999101951MD1210161+9999REMSYN07058338 32663 72202 10039 20002 30195 40247 52016 87/// 333 05503 31019=
0153583380999992016021803004+31150+118583FM-12+001699999V0202901N004019999999N018000199+01201+00011102461ADDGA1071+017501999GE19AGL   +99999+99999GF107991071999017501999999MA1999999101955MD1410001+9999REMSYN04858338 32768 72904 10120 20001 40246 54000 87///=
0138583380999992016021806004+31150+118583FM-12+001699999V0202701N003019999999N021000199+01601-00251102241ADDGF100995999999999999999999KA1240N+00151MA1999999101731MD1710221+9999REMSYN05858338 32971 02703 10160 21025 30173 40224 57022 333 20015=
0153583380999992016021809004+31150+118583FM-12+001699999V0203401N001019999999N025000199+01531-00511102141ADDGA1061+999999999GE19AGL   +99999+99999GF106991061999999999999999MA1999999101645MD1710101+9999REMSYN04858338 32975 63401 10153 21051 40214 57010 86///=
0153583380999992016021812004+31150+118583FM-12+001699999V0200401N002019999999N017000199+01071+00011102401ADDGA1071+999999999GE19AGL   +99999+99999GF107991071999999999999999MA1999999101895MD1210251+9999REMSYN04858338 32967 70402 10107 20001 40240 52025 87///=
0132583380999992016021818004+31150+118583FM-12+001699999V0200701N00301002401CN013000199+00851+00071102381ADDGF109991999999999999999999KA1120M+01671MA1999999101865MD1710201+9999REMSYN05258338 32/63 90703 10085 20007 40238 57020 333 10167=
0109583380999992016021821004+31150+118583FM-12+001699999V0201101N00301002401CN012000199+00731+00181102221ADDGF109991999999999999999999MA1999999101705MD1710161+9999REMSYN04258338 32/62 91103 10073 20018 40222 57016=
0169583380999992016021900004+31150+118583FM-12+001699999V0201101N002019999999N012000199+00791+00241102451ADDGA1071+012501999GE19AGL   +99999+99999GF107991071999012501999999MA1999999101935MD1210231+9999REMSYN06458338 32662 71102 10079 20024 40245 52023 87/// 333 00004 30033=
0153583380999992016021903004+31150+118583FM-12+001699999V0203601N001019999999N009000199+00901+00261102511ADDGA1081+017501999GE19AGL   +99999+99999GF108991081999017501999999MA1999999101995MD1210061+9999REMSYN04858338 32759 83601 10090 20026 40251 52006 88///=
0182583380999992016021906004+31150+118583FM-12+001699999V0203201N002019999999N008000199+01031+00401102361ADDGA1071+017501999GE19AGL   +99999+99999GF107991071999017501999999KA1240N+00631MA1999999101851MD1710151+9999REMSYN06458338 32758 73202 10103 20040 30185 40236 57015 87/// 333 20063=
0181583380999992016021909004+31150+118583FM-12+001699999V0202201N002019999999N006000199+01071+00461102401ADDAY101021AY201021GA1081+017501999GE19AGL   +99999+99999GF108991081999017501999999MA1999999101895MD1210041+9999MW1051REMSYN05458338 31756 82202 10107 20046 40240 52004 70500 88///=
0181583380999992016021912004+31150+118583FM-12+001699999V0202701N002019999999N006000199+00811+00491102761ADDAY101021AY201021GA1081+999999999GE19AGL   +99999+99999GF108991081999999999999999MA1999999102245MD1210351+9999MW1101REMSYN05458338 31956 82702 10081 20049 40276 52035 71000 88///=
0132583380999992016021918004+31150+118583FM-12+001699999V0203201N00201002401CN007000199+00781-00041103041ADDGF109991999999999999999999KA1120M+01121MA1999999102525MD1210081+9999REMSYN05258338 32/57 93202 10078 21004 40304 52008 333 10112=
0121583380999992016021921004+31150+118583FM-12+001699999V0202701N00201002401CN005000199+00461+00111103001ADDGF109991999999999999999999MA1999999102475MD1710041+9999MW1101REMSYN04858338 31/50 92702 10046 20011 40300 57004 710//=
0125583380999992016022000004+31150+118583FM-12+001699999V0203201N001019999999N007000199+00531-00181103201ADDGF100995999999999999999999MA1999999102675MD1210201+9999REMSYN05858338 32957 03201 10053 21018 40320 52020 333 00753 31002=
0109583380999992016022003004+31150+118583FM-12+001699999V0203601N002019999999N014000199+00981-00571103211ADDGF100995999999999999999999MA1999999102695MD1210021+9999REMSYN04258338 32964 03602 10098 21057 40321 52002=
0132583380999992016022006004+31150+118583FM-12+001699999V0202701N003019999999N011000199+01201-00421102901ADDGF100995999999999999999999KA1240N+00361MA1999999102395MD1710311+9999REMSYN05258338 32961 02703 10120 21042 40290 57031 333 20036=
0153583380999992016022009004+31150+118583FM-12+001699999V0202901N003019999999N010000199+01101-00511102831ADDGA1071+999999999GE19AGL   +99999+99999GF107991071999999999999999MA1999999102315MD1710081+9999REMSYN04858338 32960 72903 10110 21051 40283 57008 87///=
0153583380999992016022012004+31150+118583FM-12+001699999V0202901N002019999999N010000199+00771-00381102891ADDGA1071+999999999GE19AGL   +99999+99999GF107991071999999999999999MA1999999102375MD1210061+9999REMSYN04858338 32960 72902 10077 21038 40289 52006 87///=
0138583380999992016022018004+31150+118583FM-12+001699999V0209999C99999002401CN010000199+00341-00301102971ADDGF109991999999999999999999KA1120M+01251MA1999999102451MD1210021+9999REMSYN05858338 32/60 90000 10034 21030 30245 40297 52002 333 10125=
0109583380999992016022021004+31150+118583FM-12+001699999V0201401N00301002401CN008000199-00051-00181102761ADDGF109991999999999999999999MA1999999102225MD1710211+9999REMSYN04258338 32/58 91403 11005 21018 40276 57021=
0181583380999992016022100004+31150+118583FM-12+001699999V0200901N003019999999N007000199+00181-00031102931ADDGA1071+999999999GE19AGL   +99999+99999GF107991071999999999999999MA1999999102405MD1210171+9999MW1101REMSYN07058338 31957 70903 10018 21003 40293 52017 710// 87/// 333 05354 31023=
0153583380999992016022103004+31150+118583FM-12+001699999V0201101N005019999999N008000199+00731-00021102881ADDGA1071+017501999GE19AGL   +99999+99999GF107991071999017501999999MA1999999102365MD1710051+9999REMSYN04858338 32758 71105 10073 21002 40288 57005 87///=
0176583380999992016022106004+31150+118583FM-12+001699999V0200901N004019999999N010000199+00971-00051102631ADDGA1081+012501999GE19AGL   +99999+99999GF108991081999012501999999KA1240N-00061MA1999999102115MD1710251+9999REMSYN05858338 32660 80904 10097 21005 40263 57025 88/// 333 21006=
0153583380999992016022109004+31150+118583FM-12+001699999V0201101N004019999999N009000199+00991-00121102631ADDGA1081+012501999GE19AGL   +99999+99999GF108991081999012501999999MA1999999102115MD1410001+9999REMSYN04858338 32659 81104 10099 21012 40263 54000 88///=
0159583380999992016022112004+31150+118583FM-12+001699999V0200401N004019999999N008000199+00901+00021102731ADDGA1081+012501999GE19AGL   +99999+99999GF108991081999012501999999MA1999999102211MD1210101+9999REMSYN05458338 32658 80404 10090 20002 30221 40273 52010 88///=
0183583380999992016022118004+31150+118583FM-12+001699999V0200701N00301002401CN003900199+00541+00471102721ADDAA106000931AY101021AY201021GF109991999999999999999999KA1120M+01001MA1999999102201MD1710071+9999MW1101REMSYN07058338 11/39 90703 10054 20047 30220 40272 57007 69991 71000 333 10100=
0142583380999992016022121004+31150+118583FM-12+001699999V0200401N00201002401CN002200199+00531+00501102621ADDAA124004631GF109991999999999999999999MA1999999102095MD1710101+9999MW1101REMSYN05858338 41/22 90402 10053 20050 40262 57010 710// 333 70046=
0215583380999992016022200004+31150+118583FM-12+001699999V0200901N002019999999N002000199+00551+00541102681ADDAA106007031AA224007731GA1081+004501999GE19AGL   +99999+99999GF108991081999004501999999MA1999999102155MD1210061+9999MW1601REMSYN08258338 11420 80902 10055 20054 40268 52006 60071 760// 88/// 333 05304 30049 70077=
0181583380999992016022203004+31150+118583FM-12+001699999V0201601N003019999999N002800199+00641+00611102721ADDAY161021AY261021GA1081+008001999GE19AGL   +99999+99999GF108991081999008001999999MA1999999102205MD1210041+9999MW1601REMSYN05458338 41528 81603 10064 20061 40272 52004 76066 88///=
0221583380999992016022206004+31150+118583FM-12+001699999V0202901N001019999999N003100199+00691+00631102591ADDAA106002031AY161021AY201021GA1081+008001999GE19AGL   +99999+99999GF108991081999008001999999KA1240N+00521MA1999999102075MD1710131+9999MW1101REMSYN07058338 11531 82901 10069 20063 40259 57013 60021 71060 88/// 333 20052=
0181583380999992016022209004+31150+118583FM-12+001699999V0203201N001019999999N003200199+00671+00611102721ADDAY101021AY201021GA1081+004501999GE19AGL   +99999+99999GF108991081999004501999999MA1999999102205MD1210131+9999MW1101REMSYN05458338 41432 83201 10067 20061 40272 52013 71000 88///=
0181583380999992016022212004+31150+118583FM-12+001699999V0203601N002019999999N001500199+00621+00611102951ADDAY101021AY201021GA1081+004501999GE19AGL   +99999+99999GF108991081999004501999999MA1999999102425MD1210231+9999MW1101REMSYN05458338 31415 83602 10062 20061 40295 52023 71000 88///=
0160583380999992016022218004+31150+118583FM-12+001699999V0200701N00201002401CN001800199+00601+00561103171ADDAY101021AY201021GF109991999999999999999999KA1120M+00711MA1999999102645MD1210081+9999MW1101REMSYN05858338 31/18 90702 10060 20056 40317 52008 71000 333 10071=
0142583380999992016022221004+31150+118583FM-12+001699999V0200201N003019999999N999999999+00561+00411103111ADDAA124005531GF109991999999999999999999MA1999999102585MD1710061+9999MW1101REMSYN05858338 31/55 90203 10056 20041 40311 57006 710// 333 70055=
