0079583670999992016010100004+31198+121336FM-15+000399999V0209999C000019999999Y999999999+00401+00101999999ADDMA1103401999999REMMET052METAR ZSSS 010000Z 00000MPS CAVOK 04/01 Q1034 NOSIG=
0079583670999992016010100304+31198+121336FM-15+000399999V0209999V001019999999Y999999999+00601+00101999999ADDMA1103401999999REMMET052METAR ZSSS 010030Z VRB01MPS CAVOK 06/01 Q1034 NOSIG=
0117583670999992016010101004+31198+121336FM-15+000399999V0201101V002012200019N007000199+00701+00001999999ADDGF100991999999999999999999MA1103401999999REMMET064METAR ZSSS 010100Z 11002MPS 060V160 7000 NSC 07/M00 Q1034 NOSIG=
0109583670999992016010101304+31198+121336FM-15+000399999V0209999V001012200019N007000199+00901+00001999999ADDGF100991999999999999999999MA1103401999999REMMET056METAR ZSSS 010130Z VRB01MPS 7000 NSC 09/M00 Q1034 NOSIG=
0117583670999992016010102004+31198+121336FM-15+000399999V0201601V003012200019N007000199+00901+00001999999ADDGF100991999999999999999999MA1103301999999REMMET064METAR ZSSS 010200Z 16003MPS 120V200 7000 NSC 09/M00 Q1033 NOSIG=
0108583670999992016010102304+31198+121336FM-15+000399999V0201401N005012200019N008000199+01001+00001999999ADDGF100991999999999999999999MA1103301999999REMMET055METAR ZSSS 010230Z 14005MPS 8000 NSC 10/00 Q1033 NOSIG=
0116583670999992016010103004+31198+121336FM-15+000399999V0201401V004012200019N008000199+01001+00101999999ADDGF100991999999999999999999MA1103201999999REMMET063METAR ZSSS 010300Z 14004MPS 110V170 8000 NSC 10/01 Q1032 NOSIG=
0087583670999992016010103304+31198+121336FM-15+000399999V0201401V005019999999Y999999999+01101+00101999999ADDMA1103201999999REMMET060METAR ZSSS 010330Z 14005MPS 120V180 CAVOK 11/01 Q1032 NOSIG=
0087583670999992016010104004+31198+121336FM-15+000399999V0201501V006019999999Y999999999+01201+00201999999ADDMA1103101999999REMMET060METAR ZSSS 010400Z 15006MPS 110V170 CAVOK 12/02 Q1031 NOSIG=
0079583670999992016010104304+31198+121336FM-15+000399999V0201501N006019999999Y999999999+01201+00201999999ADDMA1103001999999REMMET052METAR ZSSS 010430Z 15006MPS CAVOK 12/02 Q1030 NOSIG=
0079583670999992016010105004+31198+121336FM-15+000399999V0201901N006019999999Y999999999+01301+00101999999ADDMA1103001999999REMMET052METAR ZSSS 010500Z 19006MPS CAVOK 13/01 Q1030 NOSIG=
0087583670999992016010105304+31198+121336FM-15+000399999V0201601V006019999999Y999999999+01301+00101999999ADDMA1102901999999REMMET060METAR ZSSS 010530Z 16006MPS 120V190 CAVOK 13/01 Q1029 NOSIG=
0087583670999992016010106004+31198+121336FM-15+000399999V0201501V005019999999Y999999999+01301+00201999999ADDMA1102901999999REMMET060METAR ZSSS 010600Z 15005MPS 130V200 CAVOK 13/02 Q1029 NOSIG=
0087583670999992016010106304+31198+121336FM-15+000399999V0201501V005019999999Y999999999+01301+00201999999ADDMA1102801999999REMMET060METAR ZSSS 010630Z 15005MPS 120V180 CAVOK 13/02 Q1028 NOSIG=
0079583670999992016010107004+31198+121336FM-15+000399999V0201801N005019999999Y999999999+01301+00301999999ADDMA1102801999999REMMET052METAR ZSSS 010700Z 18005MPS CAVOK 13/03 Q1028 NOSIG=
0079583670999992016010107304+31198+121336FM-15+000399999V0201701N005019999999Y999999999+01201+00201999999ADDMA1102801999999REMMET052METAR ZSSS 010730Z 17005MPS CAVOK 12/02 Q1028 NOSIG=
0079583670999992016010108004+31198+121336FM-15+000399999V0201401N005019999999Y999999999+01201+00301999999ADDMA1102801999999REMMET052METAR ZSSS 010800Z 14005MPS CAVOK 12/03 Q1028 NOSIG=
0079583670999992016010108304+31198+121336FM-15+000399999V0201401N004019999999Y999999999+01201+00301999999ADDMA1102801999999REMMET052METAR ZSSS 010830Z 14004MPS CAVOK 12/03 Q1028 NOSIG=
0079583670999992016010109004+31198+121336FM-15+000399999V0201501N004019999999Y999999999+01101+00301999999ADDMA1102801999999REMMET052METAR ZSSS 010900Z 15004MPS CAVOK 11/03 Q1028 NOSIG=
0079583670999992016010109304+31198+121336FM-15+000399999V0201501N003019999999Y999999999+01101+00301999999ADDMA1102801999999REMMET052METAR ZSSS 010930Z 15003MPS CAVOK 11/03 Q1028 NOSIG=
0079583670999992016010110004+31198+121336FM-15+000399999V0201501N003019999999Y999999999+01001+00301999999ADDMA1102801999999REMMET052METAR ZSSS 011000Z 15003MPS CAVOK 10/03 Q1028 NOSIG=
0079583670999992016010110304+31198+121336FM-15+000399999V0201501N003019999999Y999999999+01101+00401999999ADDMA1102801999999REMMET052METAR ZSSS 011030Z 15003MPS CAVOK 11/04 Q1028 NOSIG=
0079583670999992016010111004+31198+121336FM-15+000399999V0201201N003019999999Y999999999+01001+00401999999ADDMA1102801999999REMMET052METAR ZSSS 011100Z 12003MPS CAVOK 10/04 Q1028 NOSIG=
0079583670999992016010111304+31198+121336FM-15+000399999V0201301N003019999999Y999999999+01001+00401999999ADDMA1102701999999REMMET052METAR ZSSS 011130Z 13003MPS CAVOK 10/04 Q1027 NOSIG=
0079583670999992016010112004+31198+121336FM-15+000399999V0201401N004019999999Y999999999+01001+00501999999ADDMA1102801999999REMMET052METAR ZSSS 011200Z 14004MPS CAVOK 10/05 Q1028 NOSIG=
0079583670999992016010112304+31198+121336FM-15+000399999V0201201N004019999999Y999999999+01001+00501999999ADDMA1102701999999REMMET052METAR ZSSS 011230Z 12004MPS CAVOK 10/05 Q1027 NOSIG=
0079583670999992016010113004+31198+121336FM-15+000399999V0201301N002019999999Y999999999+01001+00501999999ADDMA1102701999999REMMET052METAR ZSSS 011300Z 13002MPS CAVOK 10/05 Q1027 NOSIG=
0079583670999992016010113304+31198+121336FM-15+000399999V0201301N003019999999Y999999999+01001+00501999999ADDMA1102701999999REMMET052METAR ZSSS 011330Z 13003MPS CAVOK 10/05 Q1027 NOSIG=
0079583670999992016010114004+31198+121336FM-15+000399999V0201301N002019999999Y999999999+01001+00501999999ADDMA1102701999999REMMET052METAR ZSSS 011400Z 13002MPS CAVOK 10/05 Q1027 NOSIG=
0087583670999992016010114304+31198+121336FM-15+000399999V0201301V002019999999Y999999999+01001+00601999999ADDMA1102701999999REMMET060METAR ZSSS 011430Z 13002MPS 090V160 CAVOK 10/06 Q1027 NOSIG=
0079583670999992016010115004+31198+121336FM-15+000399999V0201401N003019999999Y999999999+01001+00601999999ADDMA1102601999999REMMET052METAR ZSSS 011500Z 14003MPS CAVOK 10/06 Q1026 NOSIG=
0079583670999992016010115304+31198+121336FM-15+000399999V0201401N004019999999Y999999999+01001+00601999999ADDMA1102601999999REMMET052METAR ZSSS 011530Z 14004MPS CAVOK 10/06 Q1026 NOSIG=
0079583670999992016010116004+31198+121336FM-15+000399999V0201501N003019999999Y999999999+01001+00701999999ADDMA1102601999999REMMET052METAR ZSSS 011600Z 15003MPS CAVOK 10/07 Q1026 NOSIG=
0079583670999992016010116304+31198+121336FM-15+000399999V0201401N002019999999Y999999999+01001+00701999999ADDMA1102501999999REMMET052METAR ZSSS 011630Z 14002MPS CAVOK 10/07 Q1025 NOSIG=
0079583670999992016010117004+31198+121336FM-15+000399999V0201401N002019999999Y999999999+01001+00701999999ADDMA1102501999999REMMET052METAR ZSSS 011700Z 14002MPS CAVOK 10/07 Q1025 NOSIG=
0079583670999992016010117304+31198+121336FM-15+000399999V0201401N002019999999Y999999999+01001+00701999999ADDMA1102501999999REMMET052METAR ZSSS 011730Z 14002MPS CAVOK 10/07 Q1025 NOSIG=
0108583670999992016010118004+31198+121336FM-15+000399999V0201501N002012200019N007000199+01001+00701999999ADDGF100991999999999999999999MA1102401999999REMMET055METAR ZSSS 011800Z 15002MPS 7000 NSC 10/07 Q1024 NOSIG=
0108583670999992016010118304+31198+121336FM-15+000399999V0201601N002012200019N007000199+00901+00701999999ADDGF100991999999999999999999MA1102501999999REMMET055METAR ZSSS 011830Z 16002MPS 7000 NSC 09/07 Q1025 NOSIG=
0108583670999992016010119004+31198+121336FM-15+000399999V0201401N001012200019N006000199+00901+00701999999ADDGF100991999999999999999999MA1102401999999REMMET055METAR ZSSS 011900Z 14001MPS 6000 NSC 09/07 Q1024 NOSIG=
0108583670999992016010119304+31198+121336FM-15+000399999V0201501N001012200019N006000199+01001+00701999999ADDGF100991999999999999999999MA1102401999999REMMET055METAR ZSSS 011930Z 15001MPS 6000 NSC 10/07 Q1024 NOSIG=
0108583670999992016010120004+31198+121336FM-15+000399999V0201601N001012200019N006000199+00901+00701999999ADDGF100991999999999999999999MA1102401999999REMMET055METAR ZSSS 012000Z 16001MPS 6000 NSC 09/07 Q1024 NOSIG=
0108583670999992016010120304+31198+121336FM-15+000399999V0201601N002012200019N006000199+00901+00701999999ADDGF100991999999999999999999MA1102301999999REMMET055METAR ZSSS 012030Z 16002MPS 6000 NSC 09/07 Q1023 NOSIG=
0108583670999992016010121004+31198+121336FM-15+000399999V0201901N002012200019N006000199+01001+00701999999ADDGF100991999999999999999999MA1102401999999REMMET055METAR ZSSS 012100Z 19002MPS 6000 NSC 10/07 Q1024 NOSIG=
0108583670999992016010121304+31198+121336FM-15+000399999V0202001N002012200019N006000199+01001+00701999999ADDGF100991999999999999999999MA1102401999999REMMET055METAR ZSSS 012130Z 20002MPS 6000 NSC 10/07 Q1024 NOSIG=
0108583670999992016010122004+31198+121336FM-15+000399999V0201801N001012200019N006000199+00901+00601999999ADDGF100991999999999999999999MA1102301999999REMMET055METAR ZSSS 012200Z 18001MPS 6000 NSC 09/06 Q1023 NOSIG=
0108583670999992016010122304+31198+121336FM-15+000399999V0202001N001012200019N006000199+00901+00601999999ADDGF100991999999999999999999MA1102401999999REMMET055METAR ZSSS 012230Z 20001MPS 6000 NSC 09/06 Q1024 NOSIG=
0117583670999992016010123004+31198+121336FM-15+000399999V0202101N001012200019N005000199+00901+00701999999ADDGF100991999999999999999999MA1102401999999MW1101REMMET058METAR ZSSS 012300Z 21001MPS 5000 BR NSC 09/07 Q1024 NOSIG=
0117583670999992016010123304+31198+121336FM-15+000399999V0202001N002012200019N005000199+00901+00701999999ADDGF100991999999999999999999MA1102401999999MW1101REMMET058METAR ZSSS 012330Z 20002MPS 5000 BR NSC 09/07 Q1024 NOSIG=
0117583670999992016010200004+31198+121336FM-15+000399999V0201901N001012200019N004500199+01001+00701999999ADDGF100991999999999999999999MA1102401999999MW1101REMMET058METAR ZSSS 020000Z 19001MPS 4500 BR NSC 10/07 Q1024 NOSIG=
0117583670999992016010200304+31198+121336FM-15+000399999V0202301N002012200019N004000199+01001+00701999999ADDGF100991999999999999999999MA1102501999999MW1101REMMET058METAR ZSSS 020030Z 23002MPS 4000 BR NSC 10/07 Q1025 NOSIG=
0132583670999992016010201004+31198+121336FM-15+000399999V0202401N002012200019N003000199+01101+00601999999ADDGF100991999999999999999999MA1102501999999MW1101REMMET073METAR ZSSS 020100Z 24002MPS 3000 BR NSC 11/06 Q1025 BECMG TL0200 2500 BR=
0117583670999992016010201304+31198+121336FM-15+000399999V0202501N002012200019N002800199+01201+00501999999ADDGF100991999999999999999999MA1102501999999MW1051REMMET058METAR ZSSS 020130Z 25002MPS 2800 HZ NSC 12/05 Q1025 NOSIG=
0129583670999992016010202004+31198+121336FM-15+000399999V0202401N003012200019N002800199+01301+00501999999ADDGF100991999999999999999999MA1102501999999MW1051REMMET070METAR ZSSS 020200Z 24003MPS 2800 HZ NSC 13/05 Q1025 BECMG TL0230 3000=
0125583670999992016010202304+31198+121336FM-15+000399999V0202201V002012200019N003500199+01501+00501999999ADDGF100991999999999999999999MA1102401999999MW1051REMMET066METAR ZSSS 020230Z 22002MPS 180V250 3500 HZ NSC 15/05 Q1024 NOSIG=
0125583670999992016010203004+31198+121336FM-15+000399999V0202301V002012200019N004000199+01501+00401999999ADDGF100991999999999999999999MA1102301999999MW1051REMMET066METAR ZSSS 020300Z 23002MPS 190V270 4000 HZ NSC 15/04 Q1023 NOSIG=
0125583670999992016010203304+31198+121336FM-15+000399999V0202501V003012200019N005000199+01601+00401999999ADDGF100991999999999999999999MA1102301999999MW1051REMMET066METAR ZSSS 020330Z 25003MPS 220V280 5000 HZ NSC 16/04 Q1023 NOSIG=
0117583670999992016010204004+31198+121336FM-15+000399999V0202701N003012200019N005000199+01601+00401999999ADDGF100991999999999999999999MA1102301999999MW1051REMMET058METAR ZSSS 020400Z 27003MPS 5000 HZ NSC 16/04 Q1023 NOSIG=
0108583670999992016010204304+31198+121336FM-15+000399999V0209999V003012200019N006000199+01701+00301999999ADDGF100991999999999999999999MA1102201999999REMMET055METAR ZSSS 020430Z VRB03MPS 6000 NSC 17/03 Q1022 NOSIG=
0116583670999992016010205004+31198+121336FM-15+000399999V0202801V004012200019N008000199+01701+00201999999ADDGF100991999999999999999999MA1102201999999REMMET063METAR ZSSS 020500Z 28004MPS 250V310 8000 NSC 17/02 Q1022 NOSIG=
0087583670999992016010205304+31198+121336FM-15+000399999V0203001V004019999999Y999999999+01701+00301999999ADDMA1102101999999REMMET060METAR ZSSS 020530Z 30004MPS 260V320 CAVOK 17/03 Q1021 NOSIG=
0079583670999992016010206004+31198+121336FM-15+000399999V0203001N005019999999Y999999999+01701+00301999999ADDMA1102101999999REMMET052METAR ZSSS 020600Z 30005MPS CAVOK 17/03 Q1021 NOSIG=
0087583670999992016010206304+31198+121336FM-15+000399999V0202901V004019999999Y999999999+01701+00301999999ADDMA1102101999999REMMET060METAR ZSSS 020630Z 29004MPS 240V310 CAVOK 17/03 Q1021 NOSIG=
0087583670999992016010207004+31198+121336FM-15+000399999V0202801V004019999999Y999999999+01701+00201999999ADDMA1102101999999REMMET060METAR ZSSS 020700Z 28004MPS 200V330 CAVOK 17/02 Q1021 NOSIG=
0087583670999992016010207304+31198+121336FM-15+000399999V0202701V003019999999Y999999999+01701+00201999999ADDMA1102101999999REMMET060METAR ZSSS 020730Z 27003MPS 230V300 CAVOK 17/02 Q1021 NOSIG=
0087583670999992016010208004+31198+121336FM-15+000399999V0202701V003019999999Y999999999+01601+00301999999ADDMA1102101999999REMMET060METAR ZSSS 020800Z 27003MPS 240V310 CAVOK 16/03 Q1021 NOSIG=
0116583670999992016010208304+31198+121336FM-15+000399999V0202701V002012200019N007000199+01601+00301999999ADDGF100991999999999999999999MA1102101999999REMMET063METAR ZSSS 020830Z 27002MPS 230V300 7000 NSC 16/03 Q1021 NOSIG=
0108583670999992016010209004+31198+121336FM-15+000399999V0202701N002012200019N006000199+01501+00401999999ADDGF100991999999999999999999MA1102101999999REMMET055METAR ZSSS 020900Z 27002MPS 6000 NSC 15/04 Q1021 NOSIG=
0116583670999992016010209304+31198+121336FM-15+000399999V0203201V003012200019N007000199+01401+00201999999ADDGF100991999999999999999999MA1102101999999REMMET063METAR ZSSS 020930Z 32003MPS 280V350 7000 NSC 14/02 Q1021 NOSIG=
0108583670999992016010210004+31198+121336FM-15+000399999V0203301N002012200019N008000199+01301+00201999999ADDGF100991999999999999999999MA1102201999999REMMET055METAR ZSSS 021000Z 33002MPS 8000 NSC 13/02 Q1022 NOSIG=
0116583670999992016010210304+31198+121336FM-15+000399999V0200101V002012200019N008000199+01301+00101999999ADDGF100991999999999999999999MA1102201999999REMMET063METAR ZSSS 021030Z 01002MPS 330V050 8000 NSC 13/01 Q1022 NOSIG=
0108583670999992016010211004+31198+121336FM-15+000399999V0209999C000012200019N008000199+01401+00101999999ADDGF100991999999999999999999MA1102201999999REMMET055METAR ZSSS 021100Z 00000MPS 8000 NSC 14/01 Q1022 NOSIG=
0108583670999992016010211304+31198+121336FM-15+000399999V0209999V001012200019N008000199+01401+00101999999ADDGF100991999999999999999999MA1102201999999REMMET055METAR ZSSS 021130Z VRB01MPS 8000 NSC 14/01 Q1022 NOSIG=
0108583670999992016010212004+31198+121336FM-15+000399999V0209999V001012200019N008000199+01301+00201999999ADDGF100991999999999999999999MA1102201999999REMMET055METAR ZSSS 021200Z VRB01MPS 8000 NSC 13/02 Q1022 NOSIG=
0108583670999992016010212304+31198+121336FM-15+000399999V0209999V001012200019N008000199+01301+00101999999ADDGF100991999999999999999999MA1102201999999REMMET055METAR ZSSS 021230Z VRB01MPS 8000 NSC 13/01 Q1022 NOSIG=
0108583670999992016010213004+31198+121336FM-15+000399999V0209999V001012200019N008000199+01301+00201999999ADDGF100991999999999999999999MA1102201999999REMMET055METAR ZSSS 021300Z VRB01MPS 8000 NSC 13/02 Q1022 NOSIG=
0108583670999992016010213304+31198+121336FM-15+000399999V0209999C000012200019N008000199+01201+00201999999ADDGF100991999999999999999999MA1102201999999REMMET055METAR ZSSS 021330Z 00000MPS 8000 NSC 12/02 Q1022 NOSIG=
0108583670999992016010214004+31198+121336FM-15+000399999V0209999C000012200019N007000199+01101+00301999999ADDGF100991999999999999999999MA1102201999999REMMET055METAR ZSSS 021400Z 00000MPS 7000 NSC 11/03 Q1022 NOSIG=
0108583670999992016010214304+31198+121336FM-15+000399999V0209999V001012200019N007000199+01201+00301999999ADDGF100991999999999999999999MA1102201999999REMMET055METAR ZSSS 021430Z VRB01MPS 7000 NSC 12/03 Q1022 NOSIG=
0108583670999992016010215004+31198+121336FM-15+000399999V0209999V001012200019N007000199+01201+00301999999ADDGF100991999999999999999999MA1102201999999REMMET055METAR ZSSS 021500Z VRB01MPS 7000 NSC 12/03 Q1022 NOSIG=
0108583670999992016010215304+31198+121336FM-15+000399999V0209999C000012200019N007000199+01101+00301999999ADDGF100991999999999999999999MA1102101999999REMMET055METAR ZSSS 021530Z 00000MPS 7000 NSC 11/03 Q1021 NOSIG=
0108583670999992016010216004+31198+121336FM-15+000399999V0209999C000012200019N007000199+01001+00301999999ADDGF100991999999999999999999MA1102101999999REMMET055METAR ZSSS 021600Z 00000MPS 7000 NSC 10/03 Q1021 NOSIG=
0108583670999992016010216304+31198+121336FM-15+000399999V0209999C000012200019N007000199+01001+00401999999ADDGF100991999999999999999999MA1102101999999REMMET055METAR ZSSS 021630Z 00000MPS 7000 NSC 10/04 Q1021 NOSIG=
0108583670999992016010217004+31198+121336FM-15+000399999V0201601N001012200019N007000199+01001+00501999999ADDGF100991999999999999999999MA1102101999999REMMET055METAR ZSSS 021700Z 16001MPS 7000 NSC 10/05 Q1021 NOSIG=
0108583670999992016010217304+31198+121336FM-15+000399999V0209999C000012200019N007000199+01001+00501999999ADDGF100991999999999999999999MA1102101999999REMMET055METAR ZSSS 021730Z 00000MPS 7000 NSC 10/05 Q1021 NOSIG=
0108583670999992016010218004+31198+121336FM-15+000399999V0209999C000012200019N007000199+01001+00501999999ADDGF100991999999999999999999MA1102001999999REMMET055METAR ZSSS 021800Z 00000MPS 7000 NSC 10/05 Q1020 NOSIG=
0108583670999992016010218304+31198+121336FM-15+000399999V0209999C000012200019N007000199+01001+00501999999ADDGF100991999999999999999999MA1102001999999REMMET055METAR ZSSS 021830Z 00000MPS 7000 NSC 10/05 Q1020 NOSIG=
0108583670999992016010219004+31198+121336FM-15+000399999V0201801N001012200019N007000199+01001+00601999999ADDGF100991999999999999999999MA1102001999999REMMET055METAR ZSSS 021900Z 18001MPS 7000 NSC 10/06 Q1020 NOSIG=
0108583670999992016010219304+31198+121336FM-15+000399999V0209999C000012200019N007000199+01101+00501999999ADDGF100991999999999999999999MA1102001999999REMMET055METAR ZSSS 021930Z 00000MPS 7000 NSC 11/05 Q1020 NOSIG=
0108583670999992016010220004+31198+121336FM-15+000399999V0209999C000012200019N006000199+01101+00501999999ADDGF100991999999999999999999MA1102001999999REMMET055METAR ZSSS 022000Z 00000MPS 6000 NSC 11/05 Q1020 NOSIG=
0108583670999992016010220304+31198+121336FM-15+000399999V0209999V001012200019N006000199+01101+00601999999ADDGF100991999999999999999999MA1102001999999REMMET055METAR ZSSS 022030Z VRB01MPS 6000 NSC 11/06 Q1020 NOSIG=
0108583670999992016010221004+31198+121336FM-15+000399999V0209999C000012200019N006000199+01101+00601999999ADDGF100991999999999999999999MA1102001999999REMMET055METAR ZSSS 022100Z 00000MPS 6000 NSC 11/06 Q1020 NOSIG=
0117583670999992016010221304+31198+121336FM-15+000399999V0202601N002012200019N004500199+01101+00601999999ADDGF100991999999999999999999MA1102101999999MW1101REMMET058METAR ZSSS 022130Z 26002MPS 4500 BR NSC 11/06 Q1021 NOSIG=
0125583670999992016010222004+31198+121336FM-15+000399999V0201701V002012200019N004500199+01001+00701999999ADDGF100991999999999999999999MA1102101999999MW1101REMMET066METAR ZSSS 022200Z 17002MPS 150V210 4500 BR NSC 10/07 Q1021 NOSIG=
0127583670999992016010222304+31198+121336FM-15+000399999V0201501N001012200019N004000199+01001+00801999999ADDGF100991999999999999999999MA1102101999999MW1101MW2611REMMET062METAR ZSSS 022230Z 15001MPS 4000 -RA BR NSC 10/08 Q1021 NOSIG=
0146583670999992016010223004+31198+121336FM-15+000399999V0209999V001012200019N003000199+01101+00801999999ADDGF100991999999999999999999MA1102101999999MW1101MW2611REMMET081METAR ZSSS 022300Z VRB01MPS 3000 -RA BR NSC 11/08 Q1021 BECMG TL2330 2500 -RA BR=
0127583670999992016010223304+31198+121336FM-15+000399999V0202001N001012200019N002500199+01001+00801999999ADDGF100991999999999999999999MA1102101999999MW1101MW2611REMMET062METAR ZSSS 022330Z 20001MPS 2500 -RA BR NSC 10/08 Q1021 NOSIG=
0139583670999992016010300004+31198+121336FM-15+000399999V0209999C000012200019N002600199+01101+00901999999ADDGF100991999999999999999999MA1102101999999MW1101MW2611REMMET074METAR ZSSS 030000Z 00000MPS 2600 -RA BR NSC 11/09 Q1021 BECMG TL0100 3000=
0117583670999992016010300304+31198+121336FM-15+000399999V0209999V001012200019N002800199+01101+00901999999ADDGF100991999999999999999999MA1102101999999MW1101REMMET058METAR ZSSS 030030Z VRB01MPS 2800 BR NSC 11/09 Q1021 NOSIG=
0129583670999992016010301004+31198+121336FM-15+000399999V0209999C000012200019N002800199+01201+00901999999ADDGF100991999999999999999999MA1102201999999MW1101REMMET070METAR ZSSS 030100Z 00000MPS 2800 BR NSC 12/09 Q1022 BECMG TL0130 3000=
0125583670999992016010301304+31198+121336FM-15+000399999V0202201V002012200019N003000199+01301+00901999999ADDGF100991999999999999999999MA1102201999999MW1101REMMET066METAR ZSSS 030130Z 22002MPS 170V270 3000 BR NSC 13/09 Q1022 NOSIG=
0117583670999992016010302004+31198+121336FM-15+000399999V0209999V001012200019N004000199+01401+00901999999ADDGF100991999999999999999999MA1102201999999MW1101REMMET058METAR ZSSS 030200Z VRB01MPS 4000 BR NSC 14/09 Q1022 NOSIG=
0117583670999992016010302304+31198+121336FM-15+000399999V0209999V001012200019N003500199+01401+00901999999ADDGF100991999999999999999999MA1102201999999MW1051REMMET058METAR ZSSS 030230Z VRB01MPS 3500 HZ NSC 14/09 Q1022 NOSIG=
0117583670999992016010303004+31198+121336FM-15+000399999V0209999V001012200019N004000199+01501+00801999999ADDGF100991999999999999999999MA1102201999999MW1051REMMET058METAR ZSSS 030300Z VRB01MPS 4000 HZ NSC 15/08 Q1022 NOSIG=
0125583670999992016010303304+31198+121336FM-15+000399999V0202401V002012200019N004000199+01501+00801999999ADDGF100991999999999999999999MA1102101999999MW1051REMMET066METAR ZSSS 030330Z 24002MPS 190V290 4000 HZ NSC 15/08 Q1021 NOSIG=
0117583670999992016010304004+31198+121336FM-15+000399999V0209999V001012200019N004000199+01501+00901999999ADDGF100991999999999999999999MA1102101999999MW1051REMMET058METAR ZSSS 030400Z VRB01MPS 4000 HZ NSC 15/09 Q1021 NOSIG=
0125583670999992016010304304+31198+121336FM-15+000399999V0202901V002012200019N004000199+01501+00901999999ADDGF100991999999999999999999MA1102001999999MW1051REMMET066METAR ZSSS 030430Z 29002MPS 260V330 4000 HZ NSC 15/09 Q1020 NOSIG=
0125583670999992016010305004+31198+121336FM-15+000399999V0203301V002012200019N004000199+01601+00901999999ADDGF100991999999999999999999MA1101901999999MW1051REMMET066METAR ZSSS 030500Z 33002MPS 290V020 4000 HZ NSC 16/09 Q1019 NOSIG=
0125583670999992016010305304+31198+121336FM-15+000399999V0203501V002012200019N004000199+01601+00901999999ADDGF100991999999999999999999MA1101901999999MW1051REMMET066METAR ZSSS 030530Z 35002MPS 310V030 4000 HZ NSC 16/09 Q1019 NOSIG=
0117583670999992016010306004+31198+121336FM-15+000399999V0209999V001012200019N004000199+01601+00901999999ADDGF100991999999999999999999MA1101901999999MW1051REMMET058METAR ZSSS 030600Z VRB01MPS 4000 HZ NSC 16/09 Q1019 NOSIG=
0166583670999992016010306304+31198+121336FM-15+000399999V0202601V002010121919N005000199+01601+00901999999ADDGA1071+012191999GE19AGL   +99999+99999GF199999071999012191999999MA1101901999999MW1051REMMET069METAR ZSSS 030630Z 26002MPS 230V290 5000 HZ BKN040 16/09 Q1019 NOSIG=
0166583670999992016010307004+31198+121336FM-15+000399999V0202801V002010121919N005000199+01601+00901999999ADDGA1071+012191999GE19AGL   +99999+99999GF199999071999012191999999MA1101901999999MW1051REMMET069METAR ZSSS 030700Z 28002MPS 250V330 5000 HZ BKN040 16/09 Q1019 NOSIG=
0158583670999992016010307304+31198+121336FM-15+000399999V0209999V001010121919N004000199+01601+00901999999ADDGA1071+012191999GE19AGL   +99999+99999GF199999071999012191999999MA1101901999999MW1051REMMET061METAR ZSSS 030730Z VRB01MPS 4000 HZ BKN040 16/09 Q1019 NOSIG=
0166583670999992016010308004+31198+121336FM-15+000399999V0202501V002010121919N004000199+01601+00801999999ADDGA1071+012191999GE19AGL   +99999+99999GF199999071999012191999999MA1101901999999MW1051REMMET069METAR ZSSS 030800Z 25002MPS 200V290 4000 HZ BKN040 16/08 Q1019 NOSIG=
0125583670999992016010308304+31198+121336FM-15+000399999V0202201V002012200019N004000199+01501+00901999999ADDGF100991999999999999999999MA1102001999999MW1051REMMET066METAR ZSSS 030830Z 22002MPS 160V260 4000 HZ NSC 15/09 Q1020 NOSIG=
0117583670999992016010309004+31198+121336FM-15+000399999V0209999V001012200019N005000199+01501+00901999999ADDGF100991999999999999999999MA1102001999999MW1051REMMET058METAR ZSSS 030900Z VRB01MPS 5000 HZ NSC 15/09 Q1020 NOSIG=
0117583670999992016010309304+31198+121336FM-15+000399999V0209999C000012200019N005000199+01401+00901999999ADDGF100991999999999999999999MA1102001999999MW1051REMMET058METAR ZSSS 030930Z 00000MPS 5000 HZ NSC 14/09 Q1020 NOSIG=
0117583670999992016010310004+31198+121336FM-15+000399999V0209999V001012200019N005000199+01401+00901999999ADDGF100991999999999999999999MA1102001999999MW1051REMMET058METAR ZSSS 031000Z VRB01MPS 5000 HZ NSC 14/09 Q1020 NOSIG=
0158583670999992016010310304+31198+121336FM-15+000399999V0209999V001010121919N005000199+01401+00901999999ADDGA1071+012191999GE19AGL   +99999+99999GF199999071999012191999999MA1102101999999MW1051REMMET061METAR ZSSS 031030Z VRB01MPS 5000 HZ BKN040 14/09 Q1021 NOSIG=
0158583670999992016010311004+31198+121336FM-15+000399999V0209999V001010121919N005000199+01301+00901999999ADDGA1071+012191999GE19AGL   +99999+99999GF199999071999012191999999MA1102101999999MW1051REMMET061METAR ZSSS 031100Z VRB01MPS 5000 HZ BKN040 13/09 Q1021 NOSIG=
0158583670999992016010311304+31198+121336FM-15+000399999V0200701N002010121919N004000199+01401+00901999999ADDGA1071+012191999GE19AGL   +99999+99999GF199999071999012191999999MA1102101999999MW1051REMMET061METAR ZSSS 031130Z 07002MPS 4000 HZ BKN040 14/09 Q1021 NOSIG=
0158583670999992016010312004+31198+121336FM-15+000399999V0209999V001019999999N005000199+01301+00901999999ADDGA1021+012191999GE19AGL   +99999+99999GF199999021999012191999999MA1102101999999MW1051REMMET061METAR ZSSS 031200Z VRB01MPS 5000 HZ FEW040 13/09 Q1021 NOSIG=
0117583670999992016010312304+31198+121336FM-15+000399999V0209999V001012200019N005000199+01401+00901999999ADDGF100991999999999999999999MA1102101999999MW1051REMMET058METAR ZSSS 031230Z VRB01MPS 5000 HZ NSC 14/09 Q1021 NOSIG=
0125583670999992016010313004+31198+121336FM-15+000399999V0201401V002012200019N005000199+01301+00901999999ADDGF100991999999999999999999MA1102101999999MW1051REMMET066METAR ZSSS 031300Z 14002MPS 090V160 5000 HZ NSC 13/09 Q1021 NOSIG=
0125583670999992016010313304+31198+121336FM-15+000399999V0201401V002012200019N004000199+01301+00901999999ADDGF100991999999999999999999MA1102101999999MW1101REMMET066METAR ZSSS 031330Z 14002MPS 070V200 4000 BR NSC 13/09 Q1021 NOSIG=
0125583670999992016010314004+31198+121336FM-15+000399999V0201601V002012200019N004000199+01301+00901999999ADDGF100991999999999999999999MA1102101999999MW1101REMMET066METAR ZSSS 031400Z 16002MPS 120V190 4000 BR NSC 13/09 Q1021 NOSIG=
0125583670999992016010314304+31198+121336FM-15+000399999V0201401V002012200019N004000199+01301+00801999999ADDGF100991999999999999999999MA1102101999999MW1101REMMET066METAR ZSSS 031430Z 14002MPS 090V170 4000 BR NSC 13/08 Q1021 NOSIG=
0140583670999992016010315004+31198+121336FM-15+000399999V0201401V002012200019N004000199+01301+00801999999ADDGF100991999999999999999999MA1102101999999MW1101REMMET081METAR ZSSS 031500Z 14002MPS 100V170 4000 BR NSC 13/08 Q1021 BECMG TL1630 2800 BR=
0125583670999992016010315304+31198+121336FM-15+000399999V0201401V002012200019N004000199+01301+00801999999ADDGF100991999999999999999999MA1102101999999MW1051REMMET066METAR ZSSS 031530Z 14002MPS 100V160 4000 HZ NSC 13/08 Q1021 NOSIG=
0140583670999992016010316004+31198+121336FM-15+000399999V0201401V002012200019N005000199+01301+00801999999ADDGF100991999999999999999999MA1102101999999MW1051REMMET081METAR ZSSS 031600Z 14002MPS 090V160 5000 HZ NSC 13/08 Q1021 BECMG TL1730 2800 BR=
0117583670999992016010316304+31198+121336FM-15+000399999V0201501N001012200019N005000199+01301+00801999999ADDGF100991999999999999999999MA1102001999999MW1051REMMET058METAR ZSSS 031630Z 15001MPS 5000 HZ NSC 13/08 Q1020 NOSIG=
0117583670999992016010317004+31198+121336FM-15+000399999V0201601N002012200019N005000199+01201+00801999999ADDGF100991999999999999999999MA1102001999999MW1051REMMET058METAR ZSSS 031700Z 16002MPS 5000 HZ NSC 12/08 Q1020 NOSIG=
0117583670999992016010317304+31198+121336FM-15+000399999V0209999C000012200019N005000199+01301+00801999999ADDGF100991999999999999999999MA1102001999999MW1101REMMET058METAR ZSSS 031730Z 00000MPS 5000 BR NSC 13/08 Q1020 NOSIG=
0117583670999992016010318004+31198+121336FM-15+000399999V0200301N002012200019N005000199+01201+00801999999ADDGF100991999999999999999999MA1102001999999MW1101REMMET058METAR ZSSS 031800Z 03002MPS 5000 BR NSC 12/08 Q1020 NOSIG=
0117583670999992016010318304+31198+121336FM-15+000399999V0209999C000012200019N005000199+01201+00801999999ADDGF100991999999999999999999MA1102001999999MW1101REMMET058METAR ZSSS 031830Z 00000MPS 5000 BR NSC 12/08 Q1020 NOSIG=
0117583670999992016010319004+31198+121336FM-15+000399999V0209999C000012200019N005000199+01201+00901999999ADDGF100991999999999999999999MA1102001999999MW1101REMMET058METAR ZSSS 031900Z 00000MPS 5000 BR NSC 12/09 Q1020 NOSIG=
0117583670999992016010319304+31198+121336FM-15+000399999V0200301N002012200019N005000199+01201+00901999999ADDGF100991999999999999999999MA1102001999999MW1101REMMET058METAR ZSSS 031930Z 03002MPS 5000 BR NSC 12/09 Q1020 NOSIG=
0117583670999992016010320004+31198+121336FM-15+000399999V0203601N002012200019N005000199+01201+00901999999ADDGF100991999999999999999999MA1102001999999MW1101REMMET058METAR ZSSS 032000Z 36002MPS 5000 BR NSC 12/09 Q1020 NOSIG=
0117583670999992016010320304+31198+121336FM-15+000399999V0203501N003012200019N005000199+01101+00801999999ADDGF100991999999999999999999MA1101901999999MW1101REMMET058METAR ZSSS 032030Z 35003MPS 5000 BR NSC 11/08 Q1019 NOSIG=
0117583670999992016010321004+31198+121336FM-15+000399999V0203601N002012200019N005000199+01101+00801999999ADDGF100991999999999999999999MA1102001999999MW1101REMMET058METAR ZSSS 032100Z 36002MPS 5000 BR NSC 11/08 Q1020 NOSIG=
0117583670999992016010321304+31198+121336FM-15+000399999V0203201N003012200019N005000199+01101+00901999999ADDGF100991999999999999999999MA1102001999999MW1101REMMET058METAR ZSSS 032130Z 32003MPS 5000 BR NSC 11/09 Q1020 NOSIG=
0127583670999992016010322004+31198+121336FM-15+000399999V0209999C000012200019N004000199+01101+00901999999ADDGF100991999999999999999999MA1102001999999MW1101MW2611REMMET062METAR ZSSS 032200Z 00000MPS 4000 -RA BR NSC 11/09 Q1020 NOSIG=
0117583670999992016010322304+31198+121336FM-15+000399999V0200101N002012200019N004000199+01001+00801999999ADDGF100991999999999999999999MA1102001999999MW1101REMMET058METAR ZSSS 032230Z 01002MPS 4000 BR NSC 10/08 Q1020 NOSIG=
0117583670999992016010323004+31198+121336FM-15+000399999V0203601N003012200019N004000199+01101+00901999999ADDGF100991999999999999999999MA1102101999999MW1101REMMET058METAR ZSSS 032300Z 36003MPS 4000 BR NSC 11/09 Q1021 NOSIG=
0117583670999992016010323304+31198+121336FM-15+000399999V0200401N002012200019N004000199+01201+00901999999ADDGF100991999999999999999999MA1102101999999MW1101REMMET058METAR ZSSS 032330Z 04002MPS 4000 BR NSC 12/09 Q1021 NOSIG=
0125583670999992016010400004+31198+121336FM-15+000399999V0200201V003012200019N004000199+01301+00901999999ADDGF100991999999999999999999MA1102101999999MW1101REMMET066METAR ZSSS 040000Z 02003MPS 350V050 4000 BR NSC 13/09 Q1021 NOSIG=
0117583670999992016010400304+31198+121336FM-15+000399999V0209999V001012200019N004000199+01301+00901999999ADDGF100991999999999999999999MA1102101999999MW1101REMMET058METAR ZSSS 040030Z VRB01MPS 4000 BR NSC 13/09 Q1021 NOSIG=
0117583670999992016010401004+31198+121336FM-15+000399999V0200301N002012200019N004000199+01401+00901999999ADDGF100991999999999999999999MA1102201999999MW1101REMMET058METAR ZSSS 040100Z 03002MPS 4000 BR NSC 14/09 Q1022 NOSIG=
0125583670999992016010401304+31198+121336FM-15+000399999V0200601V003012200019N005000199+01401+00901999999ADDGF100991999999999999999999MA1102201999999MW1051REMMET066METAR ZSSS 040130Z 06003MPS 360V090 5000 HZ NSC 14/09 Q1022 NOSIG=
0125583670999992016010402004+31198+121336FM-15+000399999V0200801V002012200019N005000199+01501+00901999999ADDGF100991999999999999999999MA1102201999999MW1051REMMET066METAR ZSSS 040200Z 08002MPS 350V120 5000 HZ NSC 15/09 Q1022 NOSIG=
0108583670999992016010402304+31198+121336FM-15+000399999V0200901N004012200019N007000199+01501+00801999999ADDGF100991999999999999999999MA1102101999999REMMET055METAR ZSSS 040230Z 09004MPS 7000 NSC 15/08 Q1021 NOSIG=
0127583670999992016010403004+31198+121336FM-15+000399999V0200701V003012200019N007000199+01501+00801999999ADDGF100991999999999999999999MA1102101999999OC100801REMMET066METAR ZSSS 040300Z 07003G08MPS 020V090 7000 NSC 15/08 Q1021 NOSIG=
0168583670999992016010403304+31198+121336FM-15+000399999V0200801V004010121919N007000199+01501+00901999999ADDGA1081+012191999GE19AGL   +99999+99999GF199999081999012191999999MA1102101999999OC101001REMMET069METAR ZSSS 040330Z 08004G10MPS 050V110 7000 OVC040 15/09 Q1021 NOSIG=
0157583670999992016010404004+31198+121336FM-15+000399999V0200401V004010121919N007000199+01501+01101999999ADDGA1081+012191999GE19AGL   +99999+99999GF199999081999012191999999MA1102001999999REMMET066METAR ZSSS 040400Z 04004MPS 020V090 7000 OVC040 15/11 Q1020 NOSIG=
0149583670999992016010404304+31198+121336FM-15+000399999V0200401N005010121919N006000199+01501+01101999999ADDGA1081+012191999GE19AGL   +99999+99999GF199999081999012191999999MA1102001999999REMMET058METAR ZSSS 040430Z 04005MPS 6000 OVC040 15/11 Q1020 NOSIG=
0158583670999992016010405004+31198+121336FM-15+000399999V0200501N004010121919N005000199+01501+01101999999ADDGA1081+012191999GE19AGL   +99999+99999GF199999081999012191999999MA1102001999999MW1101REMMET061METAR ZSSS 040500Z 05004MPS 5000 BR OVC040 15/11 Q1020 NOSIG=
0158583670999992016010405304+31198+121336FM-15+000399999V0200501N005010121919N005000199+01501+01101999999ADDGA1081+012191999GE19AGL   +99999+99999GF199999081999012191999999MA1102001999999MW1101REMMET061METAR ZSSS 040530Z 05005MPS 5000 BR OVC040 15/11 Q1020 NOSIG=
0217583670999992016010406004+31198+121336FM-15+000399999V0200401N005010045719N003000199+01401+01101999999ADDGA1071+004571999GA2081+012191999GE19AGL   +99999+99999GF199999071999004571999999MA1101901999999MW1101MW2611REMMET098METAR ZSSS 040600Z 04005MPS 3000 -RA BR BKN015 OVC040 14/11 Q1019 BECMG TL0700 2800 -RA BR BKN011=
0199583670999992016010406304+31198+121336FM-15+000399999V0200501V004010039619N002500199+01301+01101999999ADDGA1071+003961999GA2081+012191999GE19AGL   +99999+99999GF199999071999003961999999MA1101901999999MW1101MW2611REMMET080METAR ZSSS 040630Z 05004MPS 020V080 2500 -RA BR BKN013 OVC040 13/11 Q1019 NOSIG=
0189583670999992016010407004+31198+121336FM-15+000399999V0200401V004010036619N002500199+01301+01101999999ADDGA1071+003661999GA2081+012191999GE19AGL   +99999+99999GF199999071999003661999999MA1101901999999MW1101REMMET076METAR ZSSS 040700Z 04004MPS 020V080 2500 BR BKN012 OVC040 13/11 Q1019 NOSIG=
0189583670999992016010407304+31198+121336FM-15+000399999V0200601V005010036619N002500199+01301+01101999999ADDGA1071+003661999GA2081+012191999GE19AGL   +99999+99999GF199999071999003661999999MA1101901999999MW1101REMMET076METAR ZSSS 040730Z 06005MPS 030V090 2500 BR BKN012 OVC040 13/11 Q1019 NOSIG=
0228583670999992016010408004+31198+121336FM-15+000399999V0200701V005010036619N002500199+01301+01001999999ADDGA1071+003661999GA2081+012191999GE19AGL   +99999+99999GF199999071999003661999999MA1102001999999MW1101MW2611REMMET109METAR ZSSS 040800Z 07005MPS 030V090 2500 -RA BR BKN012 OVC040 13/10 Q1020 BECMG TL0940 3000 BR SCT012 OVC033=
0200583670999992016010408304+31198+121336FM-15+000399999V0200601V004010036619N002200199+01301+01001999999ADDGA1071+003661999GA2081+012191999GE19AGL   +99999+99999GF199999071999003661999999MA1102001999999MW1101OC100901REMMET079METAR ZSSS 040830Z 06004G09MPS 020V110 2200 BR BKN012 OVC040 13/10 Q1020 NOSIG=
0254583670999992016010409004+31198+121336FM-15+000399999V0200601V005010030519N002000199+01201+01001999999ADDED136R99999GA1071+003051999GA2081+012191999GE19AGL   +99999+99999GF199999071999003051999999MA1102001999999MW1101OC101001REMMET122METAR ZSSS 040900Z 06005G10MPS 020V090 2000 R36R/1600D R36L/1400N BR BKN010 OVC040 12/10 Q1020 BECMG TL0940 BKN009 OVC033=
0210583670999992016010409304+31198+121336FM-15+000399999V0200501V004010027419N001800199+01201+01101999999ADDGA1071+002741999GA2081+012191999GE19AGL   +99999+99999GF199999071999002741999999MA1102001999999MW1101MW2611OC100901REMMET083METAR ZSSS 040930Z 05004G09MPS 020V080 1800 -RA BR BKN009 OVC040 12/11 Q1020 NOSIG=
0191583670999992016010410004+31198+121336FM-15+000399999V0200501N004010027419N002000199+01201+01101999999ADDGA1071+002741999GA2081+012191999GE19AGL   +99999+99999GF199999071999002741999999MA1102001999999MW1101MW2611REMMET072METAR ZSSS 041000Z 05004MPS 2000 -RA BR BKN009 OVC040 12/11 Q1020 NOSIG=
0189583670999992016010410304+31198+121336FM-15+000399999V0200601V004010027419N002000199+01201+01101999999ADDGA1071+002741999GA2081+012191999GE19AGL   +99999+99999GF199999071999002741999999MA1102101999999MW1101REMMET076METAR ZSSS 041030Z 06004MPS 020V080 2000 BR BKN009 OVC040 12/11 Q1021 NOSIG=
0189583670999992016010411004+31198+121336FM-15+000399999V0200601V004010024419N002000199+01301+01101999999ADDGA1071+002441999GA2081+012191999GE19AGL   +99999+99999GF199999071999002441999999MA1102101999999MW1101REMMET076METAR ZSSS 041100Z 06004MPS 020V090 2000 BR BKN008 OVC040 13/11 Q1021 NOSIG=
0181583670999992016010411304+31198+121336FM-15+000399999V0200501N004010024419N002000199+01201+01101999999ADDGA1071+002441999GA2081+012191999GE19AGL   +99999+99999GF199999071999002441999999MA1102101999999MW1101REMMET068METAR ZSSS 041130Z 05004MPS 2000 BR BKN008 OVC040 12/11 Q1021 NOSIG=
0224583670999992016010412004+31198+121336FM-15+000399999V0200601N004010024419N002000199+01201+01101999999ADDED136R99999GA1071+002441999GA2081+012191999GE19AGL   +99999+99999GF199999071999002441999999MA1102101999999MW1101MW2611REMMET094METAR ZSSS 041200Z 06004MPS 2000 R36R/1300D R36L/1200N -RA BR BKN008 OVC040 12/11 Q1021 NOSIG=
0236583670999992016010412304+31198+121336FM-15+000399999V0200701N004010024419N002000199+01201+01101999999ADDED136R99999GA1071+002441999GA2081+012191999GE19AGL   +99999+99999GF199999071999002441999999MA1102101999999MW1101MW2611REMMET106METAR ZSSS 041230Z 07004MPS 2000 R36R/1400VP2000N R36L/1300VP2000N -RA BR BKN008 OVC040 12/11 Q1021 NOSIG=
0189583670999992016010413004+31198+121336FM-15+000399999V0200601V004010024419N002000199+01201+01101999999ADDGA1071+002441999GA2081+012191999GE19AGL   +99999+99999GF199999071999002441999999MA1102101999999MW1101REMMET076METAR ZSSS 041300Z 06004MPS 010V080 2000 BR BKN008 OVC040 12/11 Q1021 NOSIG=
0181583670999992016010413304+31198+121336FM-15+000399999V0200601N004010024419N002000199+01201+01101999999ADDGA1071+002441999GA2081+012191999GE19AGL   +99999+99999GF199999071999002441999999MA1102101999999MW1101REMMET068METAR ZSSS 041330Z 06004MPS 2000 BR BKN008 OVC040 12/11 Q1021 NOSIG=
0244583670999992016010414004+31198+121336FM-15+000399999V0200601V004010021319N001800199+01201+01101999999ADDED136R99999GA1071+002131999GA2081+012191999GE19AGL   +99999+99999GF199999071999002131999999MA1102101999999MW1101MW2611REMMET114METAR ZSSS 041400Z 06004MPS 020V080 1800 R36R/1100VP2000D R36L/0900VP2000D -RA BR BKN007 OVC040 12/11 Q1021 NOSIG=
0255583670999992016010414304+31198+121336FM-15+000399999V0200601V004010018319N001600199+01201+01101999999ADDED136R99999GA1071+001831999GA2081+010061999GE19AGL   +99999+99999GF199999071999001831999999MA1102001999999MW1101MW2611OC100901REMMET117METAR ZSSS 041430Z 06004G09MPS 010V090 1600 R36R/0900VP2000U R36L/0900VP2000U -RA BR BKN006 OVC033 12/11 Q1020 NOSIG=
0199583670999992016010415004+31198+121336FM-15+000399999V0200801V004010018319N001800199+01201+01101999999ADDGA1071+001831999GA2081+010061999GE19AGL   +99999+99999GF199999071999001831999999MA1102001999999MW1101MW2611REMMET080METAR ZSSS 041500Z 08004MPS 040V100 1800 -RA BR BKN006 OVC033 12/11 Q1020 NOSIG=
0199583670999992016010415304+31198+121336FM-15+000399999V0200801V004010018319N002000199+01201+01101999999ADDGA1071+001831999GA2081+010061999GE19AGL   +99999+99999GF199999071999001831999999MA1102001999999MW1101MW2611REMMET080METAR ZSSS 041530Z 08004MPS 050V110 2000 -RA BR BKN006 OVC033 12/11 Q1020 NOSIG=
0210583670999992016010416004+31198+121336FM-15+000399999V0200701V004010018319N002000199+01201+01101999999ADDGA1071+001831999GA2081+010061999GE19AGL   +99999+99999GF199999071999001831999999MA1102001999999MW1101MW2611OC100901REMMET083METAR ZSSS 041600Z 07004G09MPS 040V100 2000 -RA BR BKN006 OVC033 12/11 Q1020 NOSIG=
0232583670999992016010416304+31198+121336FM-15+000399999V0200601V004010015219N002000199+01201+01101999999ADDED136R99999GA1071+001521999GA2081+010061999GE19AGL   +99999+99999GF199999071999001521999999MA1102001999999MW1101MW2611REMMET102METAR ZSSS 041630Z 06004MPS 020V080 2000 R36R/1300N R36L/1200N -RA BR BKN005 OVC033 12/11 Q1020 NOSIG=
0229583670999992016010417004+31198+121336FM-15+000399999V0200701N004010015219N002000199+01201+01101999999ADDED136R99999GA1071+001521999GA2081+010061999GE19AGL   +99999+99999GF199999071999001521999999MA1101901999999MW1101MW2611REMMET099METAR ZSSS 041700Z 07004MPS 2000 R36R/1600D R36L/1100V1600D -RA BR BKN005 OVC033 12/11 Q1019 NOSIG=
0191583670999992016010417304+31198+121336FM-15+000399999V0200501N003010015219N002000199+01201+01101999999ADDGA1071+001521999GA2081+010061999GE19AGL   +99999+99999GF199999071999001521999999MA1101901999999MW1101MW2611REMMET072METAR ZSSS 041730Z 05003MPS 2000 -RA BR BKN005 OVC033 12/11 Q1019 NOSIG=
0191583670999992016010418004+31198+121336FM-15+000399999V0200501N006010018319N002500199+01201+01101999999ADDGA1071+001831999GA2081+010061999GE19AGL   +99999+99999GF199999071999001831999999MA1101901999999MW1101MW2611REMMET072METAR ZSSS 041800Z 05006MPS 2500 -RA BR BKN006 OVC033 12/11 Q1019 NOSIG=
0191583670999992016010418304+31198+121336FM-15+000399999V0200601N007010021319N005000199+01201+01101999999ADDGA1071+002131999GA2081+010061999GE19AGL   +99999+99999GF199999071999002131999999MA1101901999999MW1101MW2611REMMET072METAR ZSSS 041830Z 06007MPS 5000 -RA BR BKN007 OVC033 12/11 Q1019 NOSIG=
0191583670999992016010419004+31198+121336FM-15+000399999V0200601N006010021319N005000199+01201+01101999999ADDGA1071+002131999GA2081+010061999GE19AGL   +99999+99999GF199999071999002131999999MA1101801999999MW1101MW2611REMMET072METAR ZSSS 041900Z 06006MPS 5000 -RA BR BKN007 OVC033 12/11 Q1018 NOSIG=
0191583670999992016010419304+31198+121336FM-15+000399999V0200601N008010021319N005000199+01101+01001999999ADDGA1071+002131999GA2081+010061999GE19AGL   +99999+99999GF199999071999002131999999MA1101801999999MW1101MW2611REMMET072METAR ZSSS 041930Z 06008MPS 5000 -RA BR BKN007 OVC033 11/10 Q1018 NOSIG=
0191583670999992016010420004+31198+121336FM-15+000399999V0200501N006010021319N004000199+01101+01001999999ADDGA1071+002131999GA2081+010061999GE19AGL   +99999+99999GF199999071999002131999999MA1101801999999MW1101MW2611REMMET072METAR ZSSS 042000Z 05006MPS 4000 -RA BR BKN007 OVC033 11/10 Q1018 NOSIG=
0198583670999992016010420304+31198+121336FM-15+000399999V0200201V008010021319N003000199+01001+00901999999ADDGA1071+002131999GA2081+010061999GE19AGL   +99999+99999GF199999071999002131999999MA1101801999999MW1101MW2631REMMET079METAR ZSSS 042030Z 02008MPS 350V050 3000 RA BR BKN007 OVC033 10/09 Q1018 NOSIG=
0208583670999992016010421004+31198+121336FM-15+000399999V0200401N009010027419N006000199+01001+00901999999ADDGA1071+002741999GA2081+010061999GE19AGL   +99999+99999GF199999071999002741999999MA1101901999999MW1611REMMET095METAR ZSSS 042100Z 04009MPS 6000 -RA BKN009 OVC033 10/09 Q1019 RERA BECMG TL2200 BKN010 OVC033=
0193583670999992016010421304+31198+121336FM-15+000399999V0200201N011010027419N009999199+01001+00801999999ADDGA1071+002741999GA2081+010061999GE19AGL   +99999+99999GF199999071999002741999999MA1102001999999MW1611OC101701REMMET072METAR ZSSS 042130Z 02011G17MPS 9999 -RA BKN009 OVC033 10/08 Q1020 NOSIG=
0193583670999992016010422004+31198+121336FM-15+000399999V0200401N011010033519N009999199+00901+00701999999ADDGA1071+003351999GA2081+010061999GE19AGL   +99999+99999GF199999071999003351999999MA1102001999999MW1611OC101601REMMET072METAR ZSSS 042200Z 04011G16MPS 9999 -RA BKN011 OVC033 09/07 Q1020 NOSIG=
0193583670999992016010422304+31198+121336FM-15+000399999V0200401N010010033519N009999199+00901+00701999999ADDGA1071+003351999GA2081+010061999GE19AGL   +99999+99999GF199999071999003351999999MA1102101999999MW1611OC101501REMMET072METAR ZSSS 042230Z 04010G15MPS 9999 -RA BKN011 OVC033 09/07 Q1021 NOSIG=
0182583670999992016010423004+31198+121336FM-15+000399999V0200401N009010033519N009999199+00801+00701999999ADDGA1071+003351999GA2081+010061999GE19AGL   +99999+99999GF199999071999003351999999MA1102201999999MW1611REMMET069METAR ZSSS 042300Z 04009MPS 9999 -RA BKN011 OVC033 08/07 Q1022 NOSIG=
0182583670999992016010423304+31198+121336FM-15+000399999V0200401N010010033519N009999199+00901+00701999999ADDGA1071+003351999GA2081+010061999GE19AGL   +99999+99999GF199999071999003351999999MA1102201999999MW1611REMMET069METAR ZSSS 042330Z 04010MPS 9999 -RA BKN011 OVC033 09/07 Q1022 NOSIG=
0204583670999992016010500004+31198+121336FM-15+000399999V0200401V010010039619N009999199+00901+00701999999ADDGA1071+003961999GA2081+010061999GE19AGL   +99999+99999GF199999071999003961999999MA1102201999999MW1611REMMET091METAR ZSSS 050000Z 04010MPS 010V070 9999 -RA BKN013 OVC033 09/07 Q1022 BECMG TL0130 BKN015=
0191583670999992016010500304+31198+121336FM-15+000399999V0200401V009010039619N009999199+00901+00701999999ADDGA1071+003961999GA2081+010061999GE19AGL   +99999+99999GF199999071999003961999999MA1102301999999OC101401REMMET076METAR ZSSS 050030Z 04009G14MPS 010V070 9999 BKN013 OVC033 09/07 Q1023 NOSIG=
0183583670999992016010501004+31198+121336FM-15+000399999V0200301N009010048819N009999199+00901+00601999999ADDGA1071+004881999GA2081+012191999GE19AGL   +99999+99999GF199999071999004881999999MA1102301999999OC101401REMMET068METAR ZSSS 050100Z 03009G14MPS 9999 BKN016 OVC040 09/06 Q1023 NOSIG=
0183583670999992016010501304+31198+121336FM-15+000399999V0200501N007010048819N009999199+00901+00601999999ADDGA1071+004881999GA2081+012191999GE19AGL   +99999+99999GF199999071999004881999999MA1102401999999OC101301REMMET068METAR ZSSS 050130Z 05007G13MPS 9999 BKN016 OVC040 09/06 Q1024 NOSIG=
0180583670999992016010502004+31198+121336FM-15+000399999V0200501V008010054919N009999199+01001+00601999999ADDGA1071+005491999GA2081+012191999GE19AGL   +99999+99999GF199999071999005491999999MA1102401999999REMMET073METAR ZSSS 050200Z 05008MPS 010V070 9999 BKN018 OVC040 10/06 Q1024 NOSIG=
0191583670999992016010502304+31198+121336FM-15+000399999V0200401V009010054919N009999199+01001+00601999999ADDGA1071+005491999GA2081+012191999GE19AGL   +99999+99999GF199999071999005491999999MA1102301999999OC101401REMMET076METAR ZSSS 050230Z 04009G14MPS 010V070 9999 BKN018 OVC040 10/06 Q1023 NOSIG=
0180583670999992016010503004+31198+121336FM-15+000399999V0200501V006010061019N009999199+01001+00601999999ADDGA1071+006101999GA2081+012191999GE19AGL   +99999+99999GF199999071999006101999999MA1102401999999REMMET073METAR ZSSS 050300Z 05006MPS 010V080 9999 BKN020 OVC040 10/06 Q1024 NOSIG=
0180583670999992016010503304+31198+121336FM-15+000399999V0200401V007010061019N009999199+01001+00601999999ADDGA1071+006101999GA2081+012191999GE19AGL   +99999+99999GF199999071999006101999999MA1102301999999REMMET073METAR ZSSS 050330Z 04007MPS 360V070 9999 BKN020 OVC040 10/06 Q1023 NOSIG=
0172583670999992016010504004+31198+121336FM-15+000399999V0200401N008010061019N009999199+01001+00601999999ADDGA1071+006101999GA2081+012191999GE19AGL   +99999+99999GF199999071999006101999999MA1102301999999REMMET065METAR ZSSS 050400Z 04008MPS 9999 BKN020 OVC040 10/06 Q1023 NOSIG=
0180583670999992016010504304+31198+121336FM-15+000399999V0200501V005010061019N009999199+01001+00601999999ADDGA1071+006101999GA2081+012191999GE19AGL   +99999+99999GF199999071999006101999999MA1102301999999REMMET073METAR ZSSS 050430Z 05005MPS 020V080 9999 BKN020 OVC040 10/06 Q1023 NOSIG=
0172583670999992016010505004+31198+121336FM-15+000399999V0200501N006010121919N009999199+01001+00601999999ADDGA1021+006101999GA2081+012191999GE19AGL   +99999+99999GF199999021999006101999999MA1102201999999REMMET065METAR ZSSS 050500Z 05006MPS 9999 FEW020 OVC040 10/06 Q1022 NOSIG=
0180583670999992016010505304+31198+121336FM-15+000399999V0200501V006010121919N009999199+01001+00601999999ADDGA1021+006101999GA2081+012191999GE19AGL   +99999+99999GF199999021999006101999999MA1102201999999REMMET073METAR ZSSS 050530Z 05006MPS 010V080 9999 FEW020 OVC040 10/06 Q1022 NOSIG=
0172583670999992016010506004+31198+121336FM-15+000399999V0200401N005010061019N009999199+01001+00601999999ADDGA1071+006101999GA2081+012191999GE19AGL   +99999+99999GF199999071999006101999999MA1102201999999REMMET065METAR ZSSS 050600Z 04005MPS 9999 BKN020 OVC040 10/06 Q1022 NOSIG=
0172583670999992016010506304+31198+121336FM-15+000399999V0200201N005010048819N009999199+01001+00701999999ADDGA1071+004881999GA2081+012191999GE19AGL   +99999+99999GF199999071999004881999999MA1102301999999REMMET065METAR ZSSS 050630Z 02005MPS 9999 BKN016 OVC040 10/07 Q1023 NOSIG=
0211583670999992016010507004+31198+121336FM-15+000399999V0200301V005010045719N007000199+00901+00701999999ADDGA1071+004571999GA2081+012191999GE19AGL   +99999+99999GF199999071999004571999999MA1102301999999MW1611REMMET098METAR ZSSS 050700Z 03005MPS 360V070 7000 -RA BKN015 OVC040 09/07 Q1023 BECMG TL0800 BKN013 OVC040=
0182583670999992016010507304+31198+121336FM-15+000399999V0200201N005010039619N008000199+00901+00701999999ADDGA1071+003961999GA2081+012191999GE19AGL   +99999+99999GF199999071999003961999999MA1102301999999MW1611REMMET069METAR ZSSS 050730Z 02005MPS 8000 -RA BKN013 OVC040 09/07 Q1023 NOSIG=
0203583670999992016010508004+31198+121336FM-15+000399999V0200201N007010027419N007000199+00901+00701999999ADDGA1071+002741999GA2081+012191999GE19AGL   +99999+99999GF199999071999002741999999MA1102301999999MW1611REMMET090METAR ZSSS 050800Z 02007MPS 7000 -RA BKN009 OVC040 09/07 Q1023 BECMG TL0940 BKN010 OVC040=
0190583670999992016010508304+31198+121336FM-15+000399999V0200201V005010027419N007000199+00901+00701999999ADDGA1071+002741999GA2081+012191999GE19AGL   +99999+99999GF199999071999002741999999MA1102401999999MW1611REMMET077METAR ZSSS 050830Z 02005MPS 360V060 7000 -RA BKN009 OVC040 09/07 Q1024 NOSIG=
0186583670999992016010509004+31198+121336FM-15+000399999V0200201N005010033519N008000199+00901+00701999999ADDGA1071+003351999GA2081+012191999GE19AGL   +99999+99999GF199999071999003351999999MA1102401999999REMMET079METAR ZSSS 050900Z 02005MPS 8000 BKN011 OVC040 09/07 Q1024 BECMG TL1040 BKN015=
0172583670999992016010509304+31198+121336FM-15+000399999V0200301N005010033519N009999199+00901+00701999999ADDGA1071+003351999GA2081+012191999GE19AGL   +99999+99999GF199999071999003351999999MA1102401999999REMMET065METAR ZSSS 050930Z 03005MPS 9999 BKN011 OVC040 09/07 Q1024 NOSIG=
0194583670999992016010510004+31198+121336FM-15+000399999V0200301V007010036619N009999199+00901+00701999999ADDGA1071+003661999GA2081+012191999GE19AGL   +99999+99999GF199999071999003661999999MA1102401999999REMMET087METAR ZSSS 051000Z 03007MPS 360V070 9999 BKN012 OVC040 09/07 Q1024 BECMG TL1140 BKN015=
0172583670999992016010510304+31198+121336FM-15+000399999V0200301N007010036619N009999199+00901+00701999999ADDGA1071+003661999GA2081+012191999GE19AGL   +99999+99999GF199999071999003661999999MA1102401999999REMMET065METAR ZSSS 051030Z 03007MPS 9999 BKN012 OVC040 09/07 Q1024 NOSIG=
0186583670999992016010511004+31198+121336FM-15+000399999V0200301N007010036619N009999199+00901+00701999999ADDGA1071+003661999GA2081+012191999GE19AGL   +99999+99999GF199999071999003661999999MA1102401999999REMMET079METAR ZSSS 051100Z 03007MPS 9999 BKN012 OVC040 09/07 Q1024 BECMG TL1240 BKN015=
0172583670999992016010511304+31198+121336FM-15+000399999V0200401N007010039619N009999199+00901+00701999999ADDGA1071+003961999GA2081+012191999GE19AGL   +99999+99999GF199999071999003961999999MA1102401999999REMMET065METAR ZSSS 051130Z 04007MPS 9999 BKN013 OVC040 09/07 Q1024 NOSIG=
0186583670999992016010512004+31198+121336FM-15+000399999V0200501N007010039619N009999199+00901+00601999999ADDGA1071+003961999GA2081+012191999GE19AGL   +99999+99999GF199999071999003961999999MA1102501999999REMMET079METAR ZSSS 051200Z 05007MPS 9999 BKN013 OVC040 09/06 Q1025 BECMG TL1340 BKN015=
0180583670999992016010512304+31198+121336FM-15+000399999V0200401V007010039619N009999199+00901+00601999999ADDGA1071+003961999GA2081+012191999GE19AGL   +99999+99999GF199999071999003961999999MA1102501999999REMMET073METAR ZSSS 051230Z 04007MPS 010V070 9999 BKN013 OVC040 09/06 Q1025 NOSIG=
0186583670999992016010513004+31198+121336FM-15+000399999V0200401N006010042719N009999199+00901+00601999999ADDGA1071+004271999GA2081+012191999GE19AGL   +99999+99999GF199999071999004271999999MA1102501999999REMMET079METAR ZSSS 051300Z 04006MPS 9999 BKN014 OVC040 09/06 Q1025 BECMG TL1430 BKN015=
0172583670999992016010513304+31198+121336FM-15+000399999V0200301N005010045719N009999199+00901+00601999999ADDGA1071+004571999GA2081+012191999GE19AGL   +99999+99999GF199999071999004571999999MA1102501999999REMMET065METAR ZSSS 051330Z 03005MPS 9999 BKN015 OVC040 09/06 Q1025 NOSIG=
0172583670999992016010514004+31198+121336FM-15+000399999V0200201N005010045719N009999199+00901+00601999999ADDGA1071+004571999GA2081+012191999GE19AGL   +99999+99999GF199999071999004571999999MA1102501999999REMMET065METAR ZSSS 051400Z 02005MPS 9999 BKN015 OVC040 09/06 Q1025 NOSIG=
0172583670999992016010514304+31198+121336FM-15+000399999V0200201N005010048819N009999199+00901+00601999999ADDGA1071+004881999GA2081+012191999GE19AGL   +99999+99999GF199999071999004881999999MA1102601999999REMMET065METAR ZSSS 051430Z 02005MPS 9999 BKN016 OVC040 09/06 Q1026 NOSIG=
0172583670999992016010515004+31198+121336FM-15+000399999V0200301N006010054919N009999199+00901+00601999999ADDGA1071+005491999GA2081+012191999GE19AGL   +99999+99999GF199999071999005491999999MA1102501999999REMMET065METAR ZSSS 051500Z 03006MPS 9999 BKN018 OVC040 09/06 Q1025 NOSIG=
0157583670999992016010515304+31198+121336FM-15+000399999V0200401V006010061019N009999199+00901+00501999999ADDGA1071+006101999GE19AGL   +99999+99999GF199999071999006101999999MA1102501999999REMMET066METAR ZSSS 051530Z 04006MPS 010V070 9999 BKN020 09/05 Q1025 NOSIG=
0149583670999992016010516004+31198+121336FM-15+000399999V0200301N006010064019N009999199+00901+00501999999ADDGA1071+006401999GE19AGL   +99999+99999GF199999071999006401999999MA1102501999999REMMET058METAR ZSSS 051600Z 03006MPS 9999 BKN021 09/05 Q1025 NOSIG=
0149583670999992016010516304+31198+121336FM-15+000399999V0200401N005010070119N009999199+00901+00501999999ADDGA1071+007011999GE19AGL   +99999+99999GF199999071999007011999999MA1102501999999REMMET058METAR ZSSS 051630Z 04005MPS 9999 BKN023 09/05 Q1025 NOSIG=
0149583670999992016010517004+31198+121336FM-15+000399999V0200401N005010070119N009999199+00901+00501999999ADDGA1071+007011999GE19AGL   +99999+99999GF199999071999007011999999MA1102501999999REMMET058METAR ZSSS 051700Z 04005MPS 9999 BKN023 09/05 Q1025 NOSIG=
0149583670999992016010517304+31198+121336FM-15+000399999V0200401N005010070119N009999199+00901+00501999999ADDGA1071+007011999GE19AGL   +99999+99999GF199999071999007011999999MA1102501999999REMMET058METAR ZSSS 051730Z 04005MPS 9999 BKN023 09/05 Q1025 NOSIG=
0149583670999992016010518004+31198+121336FM-15+000399999V0200301N005010070119N009999199+00901+00501999999ADDGA1071+007011999GE19AGL   +99999+99999GF199999071999007011999999MA1102501999999REMMET058METAR ZSSS 051800Z 03005MPS 9999 BKN023 09/05 Q1025 NOSIG=
0149583670999992016010518304+31198+121336FM-15+000399999V0200301N007010070119N009999199+00901+00501999999ADDGA1071+007011999GE19AGL   +99999+99999GF199999071999007011999999MA1102501999999REMMET058METAR ZSSS 051830Z 03007MPS 9999 BKN023 09/05 Q1025 NOSIG=
0149583670999992016010519004+31198+121336FM-15+000399999V0200401N006019999999N009999199+00901+00501999999ADDGA1021+007011999GE19AGL   +99999+99999GF199999021999007011999999MA1102401999999REMMET058METAR ZSSS 051900Z 04006MPS 9999 FEW023 09/05 Q1024 NOSIG=
0079583670999992016010519304+31198+121336FM-15+000399999V0200401N006019999999Y999999999+00901+00401999999ADDMA1102401999999REMMET052METAR ZSSS 051930Z 04006MPS CAVOK 09/04 Q1024 NOSIG=
0159583670999992016010520004+31198+121336FM-15+000399999V0200401N007019999999N009999199+00901+00401999999ADDGA1021+006101999GE19AGL   +99999+99999GF199999021999006101999999MA1102401999999MW1611REMMET062METAR ZSSS 052000Z 04007MPS 9999 -RA FEW020 09/04 Q1024 NOSIG=
0159583670999992016010520304+31198+121336FM-15+000399999V0200301N007019999999N009999199+00801+00501999999ADDGA1021+006101999GE19AGL   +99999+99999GF199999021999006101999999MA1102401999999MW1611REMMET062METAR ZSSS 052030Z 03007MPS 9999 -RA FEW020 08/05 Q1024 NOSIG=
0159583670999992016010521004+31198+121336FM-15+000399999V0200301N006019999999N009999199+00801+00501999999ADDGA1021+006101999GE19AGL   +99999+99999GF199999021999006101999999MA1102501999999MW1611REMMET062METAR ZSSS 052100Z 03006MPS 9999 -RA FEW020 08/05 Q1025 NOSIG=
0118583670999992016010521304+31198+121336FM-15+000399999V0200301N006012200019N009999199+00701+00501999999ADDGF100991999999999999999999MA1102501999999MW1611REMMET059METAR ZSSS 052130Z 03006MPS 9999 -RA NSC 07/05 Q1025 NOSIG=
0118583670999992016010522004+31198+121336FM-15+000399999V0200201N007012200019N009999199+00701+00501999999ADDGF100991999999999999999999MA1102501999999MW1611REMMET059METAR ZSSS 052200Z 02007MPS 9999 -RA NSC 07/05 Q1025 NOSIG=
0118583670999992016010522304+31198+121336FM-15+000399999V0200201N005012200019N009999199+00701+00501999999ADDGF100991999999999999999999MA1102501999999MW1611REMMET059METAR ZSSS 052230Z 02005MPS 9999 -RA NSC 07/05 Q1025 NOSIG=
0118583670999992016010523004+31198+121336FM-15+000399999V0200201N006012200019N009999199+00701+00501999999ADDGF100991999999999999999999MA1102601999999MW1611REMMET059METAR ZSSS 052300Z 02006MPS 9999 -RA NSC 07/05 Q1026 NOSIG=
0159583670999992016010523304+31198+121336FM-15+000399999V0200201N005019999999N009999199+00701+00501999999ADDGA1021+006101999GE19AGL   +99999+99999GF199999021999006101999999MA1102601999999MW1611REMMET062METAR ZSSS 052330Z 02005MPS 9999 -RA FEW020 07/05 Q1026 NOSIG=
0167583670999992016010600004+31198+121336FM-15+000399999V0200301V004019999999N009999199+00801+00501999999ADDGA1021+006101999GE19AGL   +99999+99999GF199999021999006101999999MA1102701999999MW1611REMMET070METAR ZSSS 060000Z 03004MPS 360V060 9999 -RA FEW020 08/05 Q1027 NOSIG=
0190583670999992016010600304+31198+121336FM-15+000399999V0200201V006010121919N009999199+00801+00501999999ADDGA1041+006101999GA2081+012191999GE19AGL   +99999+99999GF199999041999006101999999MA1102701999999MW1611REMMET077METAR ZSSS 060030Z 02006MPS 360V060 9999 -RA SCT020 OVC040 08/05 Q1027 NOSIG=
0182583670999992016010601004+31198+121336FM-15+000399999V0200101N005010121919N009999199+00801+00601999999ADDGA1041+006101999GA2081+012191999GE19AGL   +99999+99999GF199999041999006101999999MA1102701999999MW1611REMMET069METAR ZSSS 060100Z 01005MPS 9999 -RA SCT020 OVC040 08/06 Q1027 NOSIG=
0079583670999992016010601304+31198+121336FM-15+000399999V0200301N005019999999Y999999999+00801+00501999999ADDMA1102701999999REMMET052METAR ZSSS 060130Z 03005MPS CAVOK 08/05 Q1027 NOSIG=
0079583670999992016010602004+31198+121336FM-15+000399999V0200301N005019999999Y999999999+00801+00501999999ADDMA1102801999999REMMET052METAR ZSSS 060200Z 03005MPS CAVOK 08/05 Q1028 NOSIG=
0079583670999992016010602304+31198+121336FM-15+000399999V0200301N005019999999Y999999999+00901+00501999999ADDMA1102701999999REMMET052METAR ZSSS 060230Z 03005MPS CAVOK 09/05 Q1027 NOSIG=
0087583670999992016010603004+31198+121336FM-15+000399999V0200201V004019999999Y999999999+00901+00501999999ADDMA1102701999999REMMET060METAR ZSSS 060300Z 02004MPS 350V060 CAVOK 09/05 Q1027 NOSIG=
0149583670999992016010603304+31198+121336FM-15+000399999V0200101N006019999999N009999199+00901+00501999999ADDGA1041+006101999GE19AGL   +99999+99999GF199999041999006101999999MA1102701999999REMMET058METAR ZSSS 060330Z 01006MPS 9999 SCT020 09/05 Q1027 NOSIG=
0149583670999992016010604004+31198+121336FM-15+000399999V0200101N005019999999N009999199+00901+00501999999ADDGA1041+006101999GE19AGL   +99999+99999GF199999041999006101999999MA1102601999999REMMET058METAR ZSSS 060400Z 01005MPS 9999 SCT020 09/05 Q1026 NOSIG=
0157583670999992016010604304+31198+121336FM-15+000399999V0200201V004019999999N009999199+01001+00401999999ADDGA1041+006101999GE19AGL   +99999+99999GF199999041999006101999999MA1102601999999REMMET066METAR ZSSS 060430Z 02004MPS 350V050 9999 SCT020 10/04 Q1026 NOSIG=
0157583670999992016010605004+31198+121336FM-15+000399999V0200301V004019999999N009999199+01001+00401999999ADDGA1041+007011999GE19AGL   +99999+99999GF199999041999007011999999MA1102601999999REMMET066METAR ZSSS 060500Z 03004MPS 360V060 9999 SCT023 10/04 Q1026 NOSIG=
0157583670999992016010605304+31198+121336FM-15+000399999V0200201V004019999999N009999199+01001+00401999999ADDGA1041+007011999GE19AGL   +99999+99999GF199999041999007011999999MA1102501999999REMMET066METAR ZSSS 060530Z 02004MPS 360V060 9999 SCT023 10/04 Q1025 NOSIG=
0149583670999992016010606004+31198+121336FM-15+000399999V0200301N004019999999N009999199+01001+00401999999ADDGA1041+007011999GE19AGL   +99999+99999GF199999041999007011999999MA1102501999999REMMET058METAR ZSSS 060600Z 03004MPS 9999 SCT023 10/04 Q1025 NOSIG=
0157583670999992016010606304+31198+121336FM-15+000399999V0200301V003019999999N009999199+01001+00401999999ADDGA1041+007011999GE19AGL   +99999+99999GF199999041999007011999999MA1102501999999REMMET066METAR ZSSS 060630Z 03003MPS 340V070 9999 SCT023 10/04 Q1025 NOSIG=
0149583670999992016010607004+31198+121336FM-15+000399999V0200201N004019999999N009999199+01001+00401999999ADDGA1041+007011999GE19AGL   +99999+99999GF199999041999007011999999MA1102501999999REMMET058METAR ZSSS 060700Z 02004MPS 9999 SCT023 10/04 Q1025 NOSIG=
0149583670999992016010607304+31198+121336FM-15+000399999V0203601N004010070119N009999199+00901+00401999999ADDGA1071+007011999GE19AGL   +99999+99999GF199999071999007011999999MA1102601999999REMMET058METAR ZSSS 060730Z 36004MPS 9999 BKN023 09/04 Q1026 NOSIG=
0149583670999992016010608004+31198+121336FM-15+000399999V0200101N004010070119N009999199+00901+00401999999ADDGA1071+007011999GE19AGL   +99999+99999GF199999071999007011999999MA1102601999999REMMET058METAR ZSSS 060800Z 01004MPS 9999 BKN023 09/04 Q1026 NOSIG=
0149583670999992016010608304+31198+121336FM-15+000399999V0203601N003010070119N009999199+00901+00401999999ADDGA1071+007011999GE19AGL   +99999+99999GF199999071999007011999999MA1102601999999REMMET058METAR ZSSS 060830Z 36003MPS 9999 BKN023 09/04 Q1026 NOSIG=
0149583670999992016010609004+31198+121336FM-15+000399999V0203501N004010070119N007000199+00901+00401999999ADDGA1071+007011999GE19AGL   +99999+99999GF199999071999007011999999MA1102601999999REMMET058METAR ZSSS 060900Z 35004MPS 7000 BKN023 09/04 Q1026 NOSIG=
0149583670999992016010609304+31198+121336FM-15+000399999V0203601N004010070119N009999199+00901+00401999999ADDGA1071+007011999GE19AGL   +99999+99999GF199999071999007011999999MA1102601999999REMMET058METAR ZSSS 060930Z 36004MPS 9999 BKN023 09/04 Q1026 NOSIG=
0149583670999992016010610004+31198+121336FM-15+000399999V0203501N004010070119N009999199+00901+00401999999ADDGA1071+007011999GE19AGL   +99999+99999GF199999071999007011999999MA1102701999999REMMET058METAR ZSSS 061000Z 35004MPS 9999 BKN023 09/04 Q1027 NOSIG=
0149583670999992016010610304+31198+121336FM-15+000399999V0203601N003010070119N009999199+00901+00401999999ADDGA1071+007011999GE19AGL   +99999+99999GF199999071999007011999999MA1102701999999REMMET058METAR ZSSS 061030Z 36003MPS 9999 BKN023 09/04 Q1027 NOSIG=
0079583670999992016010611004+31198+121336FM-15+000399999V0203601N004019999999Y999999999+00901+00401999999ADDMA1102701999999REMMET052METAR ZSSS 061100Z 36004MPS CAVOK 09/04 Q1027 NOSIG=
0079583670999992016010611304+31198+121336FM-15+000399999V0203601N003019999999Y999999999+00801+00401999999ADDMA1102801999999REMMET052METAR ZSSS 061130Z 36003MPS CAVOK 08/04 Q1028 NOSIG=
0079583670999992016010612004+31198+121336FM-15+000399999V0203501N003019999999Y999999999+00801+00401999999ADDMA1102801999999REMMET052METAR ZSSS 061200Z 35003MPS CAVOK 08/04 Q1028 NOSIG=
0079583670999992016010612304+31198+121336FM-15+000399999V0203601N003019999999Y999999999+00801+00401999999ADDMA1102901999999REMMET052METAR ZSSS 061230Z 36003MPS CAVOK 08/04 Q1029 NOSIG=
0079583670999992016010613004+31198+121336FM-15+000399999V0203501N004019999999Y999999999+00801+00401999999ADDMA1102901999999REMMET052METAR ZSSS 061300Z 35004MPS CAVOK 08/04 Q1029 NOSIG=
0079583670999992016010613304+31198+121336FM-15+000399999V0200101N004019999999Y999999999+00801+00401999999ADDMA1102901999999REMMET052METAR ZSSS 061330Z 01004MPS CAVOK 08/04 Q1029 NOSIG=
0149583670999992016010614004+31198+121336FM-15+000399999V0203601N005019999999N009999199+00801+00301999999ADDGA1021+007011999GE19AGL   +99999+99999GF199999021999007011999999MA1102901999999REMMET058METAR ZSSS 061400Z 36005MPS 9999 FEW023 08/03 Q1029 NOSIG=
0149583670999992016010614304+31198+121336FM-15+000399999V0203601N004010070119N009999199+00701+00401999999ADDGA1071+007011999GE19AGL   +99999+99999GF199999071999007011999999MA1102901999999REMMET058METAR ZSSS 061430Z 36004MPS 9999 BKN023 07/04 Q1029 NOSIG=
0149583670999992016010615004+31198+121336FM-15+000399999V0203601N004010070119N009999199+00701+00301999999ADDGA1071+007011999GE19AGL   +99999+99999GF199999071999007011999999MA1102901999999REMMET058METAR ZSSS 061500Z 36004MPS 9999 BKN023 07/03 Q1029 NOSIG=
0149583670999992016010615304+31198+121336FM-15+000399999V0200101N003019999999N009999199+00701+00301999999ADDGA1021+007011999GE19AGL   +99999+99999GF199999021999007011999999MA1102901999999REMMET058METAR ZSSS 061530Z 01003MPS 9999 FEW023 07/03 Q1029 NOSIG=
0079583670999992016010616004+31198+121336FM-15+000399999V0200101N003019999999Y999999999+00601+00301999999ADDMA1102901999999REMMET052METAR ZSSS 061600Z 01003MPS CAVOK 06/03 Q1029 NOSIG=
0079583670999992016010616304+31198+121336FM-15+000399999V0203401N002019999999Y999999999+00501+00201999999ADDMA1102801999999REMMET052METAR ZSSS 061630Z 34002MPS CAVOK 05/02 Q1028 NOSIG=
0079583670999992016010617004+31198+121336FM-15+000399999V0203401N003019999999Y999999999+00501+00301999999ADDMA1102801999999REMMET052METAR ZSSS 061700Z 34003MPS CAVOK 05/03 Q1028 NOSIG=
0079583670999992016010617304+31198+121336FM-15+000399999V0203401N002019999999Y999999999+00501+00301999999ADDMA1102801999999REMMET052METAR ZSSS 061730Z 34002MPS CAVOK 05/03 Q1028 NOSIG=
0079583670999992016010618004+31198+121336FM-15+000399999V0203501N002019999999Y999999999+00501+00301999999ADDMA1102801999999REMMET052METAR ZSSS 061800Z 35002MPS CAVOK 05/03 Q1028 NOSIG=
0079583670999992016010618304+31198+121336FM-15+000399999V0203401N001019999999Y999999999+00601+00301999999ADDMA1102801999999REMMET052METAR ZSSS 061830Z 34001MPS CAVOK 06/03 Q1028 NOSIG=
0079583670999992016010619004+31198+121336FM-15+000399999V0203401N001019999999Y999999999+00501+00201999999ADDMA1102801999999REMMET052METAR ZSSS 061900Z 34001MPS CAVOK 05/02 Q1028 NOSIG=
0149583670999992016010619304+31198+121336FM-15+000399999V0203501N002019999999N009999199+00501+00301999999ADDGA1021+010061999GE19AGL   +99999+99999GF199999021999010061999999MA1102801999999REMMET058METAR ZSSS 061930Z 35002MPS 9999 FEW033 05/03 Q1028 NOSIG=
0149583670999992016010620004+31198+121336FM-15+000399999V0203401N001019999999N009999199+00501+00301999999ADDGA1021+010061999GE19AGL   +99999+99999GF199999021999010061999999MA1102801999999REMMET058METAR ZSSS 062000Z 34001MPS 9999 FEW033 05/03 Q1028 NOSIG=
0079583670999992016010620304+31198+121336FM-15+000399999V0203301N001019999999Y999999999+00401+00201999999ADDMA1102801999999REMMET052METAR ZSSS 062030Z 33001MPS CAVOK 04/02 Q1028 NOSIG=
0079583670999992016010621004+31198+121336FM-15+000399999V0203301N002019999999Y999999999+00401+00201999999ADDMA1102801999999REMMET052METAR ZSSS 062100Z 33002MPS CAVOK 04/02 Q1028 NOSIG=
0079583670999992016010621304+31198+121336FM-15+000399999V0203401N002019999999Y999999999+00401+00301999999ADDMA1102801999999REMMET052METAR ZSSS 062130Z 34002MPS CAVOK 04/03 Q1028 NOSIG=
0079583670999992016010622004+31198+121336FM-15+000399999V0203301N002019999999Y999999999+00401+00201999999ADDMA1102801999999REMMET052METAR ZSSS 062200Z 33002MPS CAVOK 04/02 Q1028 NOSIG=
0108583670999992016010622304+31198+121336FM-15+000399999V0209999V001012200019N008000199+00301+00201999999ADDGF100991999999999999999999MA1102901999999REMMET055METAR ZSSS 062230Z VRB01MPS 8000 NSC 03/02 Q1029 NOSIG=
0108583670999992016010623004+31198+121336FM-15+000399999V0209999C000012200019N006000199+00501+00301999999ADDGF100991999999999999999999MA1102901999999REMMET055METAR ZSSS 062300Z 00000MPS 6000 NSC 05/03 Q1029 NOSIG=
0108583670999992016010623304+31198+121336FM-15+000399999V0209999C000012200019N006000199+00501+00301999999ADDGF100991999999999999999999MA1102901999999REMMET055METAR ZSSS 062330Z 00000MPS 6000 NSC 05/03 Q1029 NOSIG=
0108583670999992016010700004+31198+121336FM-15+000399999V0209999V001012200019N006000199+00601+00401999999ADDGF100991999999999999999999MA1103001999999REMMET055METAR ZSSS 070000Z VRB01MPS 6000 NSC 06/04 Q1030 NOSIG=
0116583670999992016010700304+31198+121336FM-15+000399999V0202701V002012200019N006000199+00701+00301999999ADDGF100991999999999999999999MA1103001999999REMMET063METAR ZSSS 070030Z 27002MPS 210V290 6000 NSC 07/03 Q1030 NOSIG=
0108583670999992016010701004+31198+121336FM-15+000399999V0209999V001012200019N006000199+00701+00301999999ADDGF100991999999999999999999MA1103001999999REMMET055METAR ZSSS 070100Z VRB01MPS 6000 NSC 07/03 Q1030 NOSIG=
0108583670999992016010701304+31198+121336FM-15+000399999V0203201N002012200019N006000199+00801+00401999999ADDGF100991999999999999999999MA1103001999999REMMET055METAR ZSSS 070130Z 32002MPS 6000 NSC 08/04 Q1030 NOSIG=
0108583670999992016010702004+31198+121336FM-15+000399999V0203201N003012200019N006000199+00801+00301999999ADDGF100991999999999999999999MA1103001999999REMMET055METAR ZSSS 070200Z 32003MPS 6000 NSC 08/03 Q1030 NOSIG=
0108583670999992016010702304+31198+121336FM-15+000399999V0203201N003012200019N006000199+00801+00301999999ADDGF100991999999999999999999MA1103001999999REMMET055METAR ZSSS 070230Z 32003MPS 6000 NSC 08/03 Q1030 NOSIG=
0108583670999992016010703004+31198+121336FM-15+000399999V0203201N004012200019N007000199+00801+00301999999ADDGF100991999999999999999999MA1102901999999REMMET055METAR ZSSS 070300Z 32004MPS 7000 NSC 08/03 Q1029 NOSIG=
0157583670999992016010703304+31198+121336FM-15+000399999V0203401V003019999999N007000199+00901+00301999999ADDGA1041+007011999GE19AGL   +99999+99999GF199999041999007011999999MA1102901999999REMMET066METAR ZSSS 070330Z 34003MPS 300V010 7000 SCT023 09/03 Q1029 NOSIG=
0149583670999992016010704004+31198+121336FM-15+000399999V0203001N003010070119N007000199+01001+00301999999ADDGA1071+007011999GE19AGL   +99999+99999GF199999071999007011999999MA1102801999999REMMET058METAR ZSSS 070400Z 30003MPS 7000 BKN023 10/03 Q1028 NOSIG=
0149583670999992016010704304+31198+121336FM-15+000399999V0203301N004010070119N006000199+00901+00301999999ADDGA1071+007011999GE19AGL   +99999+99999GF199999071999007011999999MA1102801999999REMMET058METAR ZSSS 070430Z 33004MPS 6000 BKN023 09/03 Q1028 NOSIG=
0149583670999992016010705004+31198+121336FM-15+000399999V0203401N005010070119N006000199+00901+00301999999ADDGA1071+007011999GE19AGL   +99999+99999GF199999071999007011999999MA1102701999999REMMET058METAR ZSSS 070500Z 34005MPS 6000 BKN023 09/03 Q1027 NOSIG=
0157583670999992016010705304+31198+121336FM-15+000399999V0203301V003019999999N006000199+00901+00301999999ADDGA1041+007011999GE19AGL   +99999+99999GF199999041999007011999999MA1102701999999REMMET066METAR ZSSS 070530Z 33003MPS 270V360 6000 SCT023 09/03 Q1027 NOSIG=
0149583670999992016010706004+31198+121336FM-15+000399999V0203501N004010070119N006000199+00801+00301999999ADDGA1071+007011999GE19AGL   +99999+99999GF199999071999007011999999MA1102701999999REMMET058METAR ZSSS 070600Z 35004MPS 6000 BKN023 08/03 Q1027 NOSIG=
0149583670999992016010706304+31198+121336FM-15+000399999V0203401N004010070119N006000199+00801+00301999999ADDGA1071+007011999GE19AGL   +99999+99999GF199999071999007011999999MA1102701999999REMMET058METAR ZSSS 070630Z 34004MPS 6000 BKN023 08/03 Q1027 NOSIG=
0158583670999992016010707004+31198+121336FM-15+000399999V0203501N004010061019N005000199+00801+00401999999ADDGA1071+006101999GE19AGL   +99999+99999GF199999071999006101999999MA1102701999999MW1101REMMET061METAR ZSSS 070700Z 35004MPS 5000 BR BKN020 08/04 Q1027 NOSIG=
0158583670999992016010707304+31198+121336FM-15+000399999V0203401N004010061019N005000199+00801+00301999999ADDGA1071+006101999GE19AGL   +99999+99999GF199999071999006101999999MA1102701999999MW1101REMMET061METAR ZSSS 070730Z 34004MPS 5000 BR BKN020 08/03 Q1027 NOSIG=
0166583670999992016010708004+31198+121336FM-15+000399999V0203601V002019999999N005000199+00801+00301999999ADDGA1041+007921999GE19AGL   +99999+99999GF199999041999007921999999MA1102701999999MW1101REMMET069METAR ZSSS 070800Z 36002MPS 330V030 5000 BR SCT026 08/03 Q1027 NOSIG=
0166583670999992016010708304+31198+121336FM-15+000399999V0203301V005019999999N004000199+00801+00301999999ADDGA1041+007011999GE19AGL   +99999+99999GF199999041999007011999999MA1102701999999MW1101REMMET069METAR ZSSS 070830Z 33005MPS 240V350 4000 BR SCT023 08/03 Q1027 NOSIG=
0158583670999992016010709004+31198+121336FM-15+000399999V0203401N003019999999N004000199+00701+00301999999ADDGA1021+007011999GE19AGL   +99999+99999GF199999021999007011999999MA1102701999999MW1101REMMET061METAR ZSSS 070900Z 34003MPS 4000 BR FEW023 07/03 Q1027 NOSIG=
0125583670999992016010709304+31198+121336FM-15+000399999V0203501V003012200019N005000199+00701+00301999999ADDGF100991999999999999999999MA1102701999999MW1101REMMET066METAR ZSSS 070930Z 35003MPS 320V020 5000 BR NSC 07/03 Q1027 NOSIG=
0157583670999992016010710004+31198+121336FM-15+000399999V0203501V004019999999N006000199+00701+00301999999ADDGA1041+006101999GE19AGL   +99999+99999GF199999041999006101999999MA1102701999999REMMET066METAR ZSSS 071000Z 35004MPS 330V030 6000 SCT020 07/03 Q1027 NOSIG=
0149583670999992016010710304+31198+121336FM-15+000399999V0203601N004019999999N006000199+00701+00201999999ADDGA1021+006101999GE19AGL   +99999+99999GF199999021999006101999999MA1102701999999REMMET058METAR ZSSS 071030Z 36004MPS 6000 FEW020 07/02 Q1027 NOSIG=
0108583670999992016010711004+31198+121336FM-15+000399999V0203501N004012200019N006000199+00701+00201999999ADDGF100991999999999999999999MA1102701999999REMMET055METAR ZSSS 071100Z 35004MPS 6000 NSC 07/02 Q1027 NOSIG=
0108583670999992016010711304+31198+121336FM-15+000399999V0203501N004012200019N006000199+00701+00201999999ADDGF100991999999999999999999MA1102701999999REMMET055METAR ZSSS 071130Z 35004MPS 6000 NSC 07/02 Q1027 NOSIG=
0108583670999992016010712004+31198+121336FM-15+000399999V0203501N005012200019N007000199+00701+00201999999ADDGF100991999999999999999999MA1102701999999REMMET055METAR ZSSS 071200Z 35005MPS 7000 NSC 07/02 Q1027 NOSIG=
0149583670999992016010712304+31198+121336FM-15+000399999V0203501N004019999999N008000199+00701+00201999999ADDGA1041+006101999GE19AGL   +99999+99999GF199999041999006101999999MA1102701999999REMMET058METAR ZSSS 071230Z 35004MPS 8000 SCT020 07/02 Q1027 NOSIG=
0149583670999992016010713004+31198+121336FM-15+000399999V0203501N004019999999N009999199+00601+00201999999ADDGA1041+006101999GE19AGL   +99999+99999GF199999041999006101999999MA1102701999999REMMET058METAR ZSSS 071300Z 35004MPS 9999 SCT020 06/02 Q1027 NOSIG=
0149583670999992016010713304+31198+121336FM-15+000399999V0203501N004010061019N009999199+00601+00201999999ADDGA1071+006101999GE19AGL   +99999+99999GF199999071999006101999999MA1102701999999REMMET058METAR ZSSS 071330Z 35004MPS 9999 BKN020 06/02 Q1027 NOSIG=
0149583670999992016010714004+31198+121336FM-15+000399999V0200101N004010061019N009999199+00601+00201999999ADDGA1071+006101999GE19AGL   +99999+99999GF199999071999006101999999MA1102801999999REMMET058METAR ZSSS 071400Z 01004MPS 9999 BKN020 06/02 Q1028 NOSIG=
0149583670999992016010714304+31198+121336FM-15+000399999V0203601N005010061019N009999199+00601+00101999999ADDGA1071+006101999GE19AGL   +99999+99999GF199999071999006101999999MA1102801999999REMMET058METAR ZSSS 071430Z 36005MPS 9999 BKN020 06/01 Q1028 NOSIG=
0149583670999992016010715004+31198+121336FM-15+000399999V0203601N006010061019N009999199+00601+00101999999ADDGA1071+006101999GE19AGL   +99999+99999GF199999071999006101999999MA1102801999999REMMET058METAR ZSSS 071500Z 36006MPS 9999 BKN020 06/01 Q1028 NOSIG=
0149583670999992016010715304+31198+121336FM-15+000399999V0200101N004019999999N009999199+00501+00201999999ADDGA1021+006101999GE19AGL   +99999+99999GF199999021999006101999999MA1102801999999REMMET058METAR ZSSS 071530Z 01004MPS 9999 FEW020 05/02 Q1028 NOSIG=
0079583670999992016010716004+31198+121336FM-15+000399999V0203501N004019999999Y999999999+00501+00101999999ADDMA1102801999999REMMET052METAR ZSSS 071600Z 35004MPS CAVOK 05/01 Q1028 NOSIG=
0079583670999992016010716304+31198+121336FM-15+000399999V0200101N004019999999Y999999999+00501+00001999999ADDMA1102701999999REMMET052METAR ZSSS 071630Z 01004MPS CAVOK 05/00 Q1027 NOSIG=
0079583670999992016010717004+31198+121336FM-15+000399999V0203601N004019999999Y999999999+00501+00001999999ADDMA1102701999999REMMET052METAR ZSSS 071700Z 36004MPS CAVOK 05/00 Q1027 NOSIG=
0080583670999992016010717304+31198+121336FM-15+000399999V0200101N005019999999Y999999999+00501+00001999999ADDMA1102701999999REMMET053METAR ZSSS 071730Z 01005MPS CAVOK 05/M00 Q1027 NOSIG=
0080583670999992016010718004+31198+121336FM-15+000399999V0203601N005019999999Y999999999+00501-00101999999ADDMA1102701999999REMMET053METAR ZSSS 071800Z 36005MPS CAVOK 05/M01 Q1027 NOSIG=
0080583670999992016010718304+31198+121336FM-15+000399999V0203401N004019999999Y999999999+00501-00101999999ADDMA1102701999999REMMET053METAR ZSSS 071830Z 34004MPS CAVOK 05/M01 Q1027 NOSIG=
0080583670999992016010719004+31198+121336FM-15+000399999V0203601N005019999999Y999999999+00401-00101999999ADDMA1102701999999REMMET053METAR ZSSS 071900Z 36005MPS CAVOK 04/M01 Q1027 NOSIG=
0080583670999992016010719304+31198+121336FM-15+000399999V0203501N002019999999Y999999999+00401-00101999999ADDMA1102701999999REMMET053METAR ZSSS 071930Z 35002MPS CAVOK 04/M01 Q1027 NOSIG=
0080583670999992016010720004+31198+121336FM-15+000399999V0203301N004019999999Y999999999+00401-00201999999ADDMA1102701999999REMMET053METAR ZSSS 072000Z 33004MPS CAVOK 04/M02 Q1027 NOSIG=
0080583670999992016010720304+31198+121336FM-15+000399999V0203501N003019999999Y999999999+00401-00101999999ADDMA1102701999999REMMET053METAR ZSSS 072030Z 35003MPS CAVOK 04/M01 Q1027 NOSIG=
0080583670999992016010721004+31198+121336FM-15+000399999V0203301N003019999999Y999999999+00401-00101999999ADDMA1102701999999REMMET053METAR ZSSS 072100Z 33003MPS CAVOK 04/M01 Q1027 NOSIG=
0080583670999992016010721304+31198+121336FM-15+000399999V0203401N004019999999Y999999999+00401-00201999999ADDMA1102701999999REMMET053METAR ZSSS 072130Z 34004MPS CAVOK 04/M02 Q1027 NOSIG=
0080583670999992016010722004+31198+121336FM-15+000399999V0203501N003019999999Y999999999+00401-00201999999ADDMA1102701999999REMMET053METAR ZSSS 072200Z 35003MPS CAVOK 04/M02 Q1027 NOSIG=
0080583670999992016010722304+31198+121336FM-15+000399999V0203501N004019999999Y999999999+00401-00201999999ADDMA1102801999999REMMET053METAR ZSSS 072230Z 35004MPS CAVOK 04/M02 Q1028 NOSIG=
0080583670999992016010723004+31198+121336FM-15+000399999V0203501N004019999999Y999999999+00401-00101999999ADDMA1102801999999REMMET053METAR ZSSS 072300Z 35004MPS CAVOK 04/M01 Q1028 NOSIG=
0080583670999992016010723304+31198+121336FM-15+000399999V0203501N004019999999Y999999999+00401-00101999999ADDMA1102801999999REMMET053METAR ZSSS 072330Z 35004MPS CAVOK 04/M01 Q1028 NOSIG=
0080583670999992016010800004+31198+121336FM-15+000399999V0203601N005019999999Y999999999+00401-00301999999ADDMA1102801999999REMMET053METAR ZSSS 080000Z 36005MPS CAVOK 04/M03 Q1028 NOSIG=
0080583670999992016010800304+31198+121336FM-15+000399999V0203501N004019999999Y999999999+00401-00401999999ADDMA1102901999999REMMET053METAR ZSSS 080030Z 35004MPS CAVOK 04/M04 Q1029 NOSIG=
0080583670999992016010801004+31198+121336FM-15+000399999V0203401N004019999999Y999999999+00501-00601999999ADDMA1102901999999REMMET053METAR ZSSS 080100Z 34004MPS CAVOK 05/M06 Q1029 NOSIG=
0080583670999992016010801304+31198+121336FM-15+000399999V0203301N005019999999Y999999999+00501-00801999999ADDMA1102901999999REMMET053METAR ZSSS 080130Z 33005MPS CAVOK 05/M08 Q1029 NOSIG=
0080583670999992016010802004+31198+121336FM-15+000399999V0203201N005019999999Y999999999+00601-00901999999ADDMA1102901999999REMMET053METAR ZSSS 080200Z 32005MPS CAVOK 06/M09 Q1029 NOSIG=
0080583670999992016010802304+31198+121336FM-15+000399999V0203301N005019999999Y999999999+00601-00901999999ADDMA1102901999999REMMET053METAR ZSSS 080230Z 33005MPS CAVOK 06/M09 Q1029 NOSIG=
0088583670999992016010803004+31198+121336FM-15+000399999V0203401V004019999999Y999999999+00601-00901999999ADDMA1102801999999REMMET061METAR ZSSS 080300Z 34004MPS 320V020 CAVOK 06/M09 Q1028 NOSIG=
0080583670999992016010803304+31198+121336FM-15+000399999V0203301N005019999999Y999999999+00701-00801999999ADDMA1102801999999REMMET053METAR ZSSS 080330Z 33005MPS CAVOK 07/M08 Q1028 NOSIG=
0088583670999992016010804004+31198+121336FM-15+000399999V0203401V004019999999Y999999999+00701-00901999999ADDMA1102801999999REMMET061METAR ZSSS 080400Z 34004MPS 310V010 CAVOK 07/M09 Q1028 NOSIG=
0088583670999992016010804304+31198+121336FM-15+000399999V0203201V005019999999Y999999999+00801-00901999999ADDMA1102701999999REMMET061METAR ZSSS 080430Z 32005MPS 290V350 CAVOK 08/M09 Q1027 NOSIG=
0088583670999992016010805004+31198+121336FM-15+000399999V0203501V005019999999Y999999999+00801-00901999999ADDMA1102701999999REMMET061METAR ZSSS 080500Z 35005MPS 320V020 CAVOK 08/M09 Q1027 NOSIG=
0088583670999992016010805304+31198+121336FM-15+000399999V0203601V004019999999Y999999999+00801-01001999999ADDMA1102601999999REMMET061METAR ZSSS 080530Z 36004MPS 320V040 CAVOK 08/M10 Q1026 NOSIG=
0088583670999992016010806004+31198+121336FM-15+000399999V0203201V004019999999Y999999999+00801-01001999999ADDMA1102601999999REMMET061METAR ZSSS 080600Z 32004MPS 280V350 CAVOK 08/M10 Q1026 NOSIG=
0088583670999992016010806304+31198+121336FM-15+000399999V0203501V003019999999Y999999999+00801-00801999999ADDMA1102601999999REMMET061METAR ZSSS 080630Z 35003MPS 280V030 CAVOK 08/M08 Q1026 NOSIG=
0088583670999992016010807004+31198+121336FM-15+000399999V0203501V003019999999Y999999999+00801-00901999999ADDMA1102601999999REMMET061METAR ZSSS 080700Z 35003MPS 320V020 CAVOK 08/M09 Q1026 NOSIG=
0080583670999992016010807304+31198+121336FM-15+000399999V0203501N004019999999Y999999999+00801-00801999999ADDMA1102601999999REMMET053METAR ZSSS 080730Z 35004MPS CAVOK 08/M08 Q1026 NOSIG=
0080583670999992016010808004+31198+121336FM-15+000399999V0203301N005019999999Y999999999+00701-01001999999ADDMA1102601999999REMMET053METAR ZSSS 080800Z 33005MPS CAVOK 07/M10 Q1026 NOSIG=
0080583670999992016010808304+31198+121336FM-15+000399999V0200101N004019999999Y999999999+00701-00901999999ADDMA1102601999999REMMET053METAR ZSSS 080830Z 01004MPS CAVOK 07/M09 Q1026 NOSIG=
0088583670999992016010809004+31198+121336FM-15+000399999V0200101V004019999999Y999999999+00601-00701999999ADDMA1102701999999REMMET061METAR ZSSS 080900Z 01004MPS 350V080 CAVOK 06/M07 Q1027 NOSIG=
0080583670999992016010809304+31198+121336FM-15+000399999V0200101N003019999999Y999999999+00501-00701999999ADDMA1102701999999REMMET053METAR ZSSS 080930Z 01003MPS CAVOK 05/M07 Q1027 NOSIG=
0080583670999992016010810004+31198+121336FM-15+000399999V0200201N003019999999Y999999999+00501-00701999999ADDMA1102701999999REMMET053METAR ZSSS 081000Z 02003MPS CAVOK 05/M07 Q1027 NOSIG=
0080583670999992016010810304+31198+121336FM-15+000399999V0200101N003019999999Y999999999+00501-00701999999ADDMA1102801999999REMMET053METAR ZSSS 081030Z 01003MPS CAVOK 05/M07 Q1028 NOSIG=
0080583670999992016010811004+31198+121336FM-15+000399999V0200201N003019999999Y999999999+00501-00701999999ADDMA1102701999999REMMET053METAR ZSSS 081100Z 02003MPS CAVOK 05/M07 Q1027 NOSIG=
0080583670999992016010811304+31198+121336FM-15+000399999V0200101N002019999999Y999999999+00501-00701999999ADDMA1102801999999REMMET053METAR ZSSS 081130Z 01002MPS CAVOK 05/M07 Q1028 NOSIG=
0080583670999992016010812004+31198+121336FM-15+000399999V0209999V001019999999Y999999999+00501-00601999999ADDMA1102801999999REMMET053METAR ZSSS 081200Z VRB01MPS CAVOK 05/M06 Q1028 NOSIG=
0080583670999992016010812304+31198+121336FM-15+000399999V0200201N002019999999Y999999999+00501-00601999999ADDMA1102801999999REMMET053METAR ZSSS 081230Z 02002MPS CAVOK 05/M06 Q1028 NOSIG=
0080583670999992016010813004+31198+121336FM-15+000399999V0203601N001019999999Y999999999+00501-00601999999ADDMA1102801999999REMMET053METAR ZSSS 081300Z 36001MPS CAVOK 05/M06 Q1028 NOSIG=
0088583670999992016010813304+31198+121336FM-15+000399999V0200301V002019999999Y999999999+00501-00601999999ADDMA1102801999999REMMET061METAR ZSSS 081330Z 03002MPS 350V060 CAVOK 05/M06 Q1028 NOSIG=
0080583670999992016010814004+31198+121336FM-15+000399999V0203501N002019999999Y999999999+00401-00501999999ADDMA1102901999999REMMET053METAR ZSSS 081400Z 35002MPS CAVOK 04/M05 Q1029 NOSIG=
0088583670999992016010814304+31198+121336FM-15+000399999V0200601V002019999999Y999999999+00501-00501999999ADDMA1102901999999REMMET061METAR ZSSS 081430Z 06002MPS 010V130 CAVOK 05/M05 Q1029 NOSIG=
0088583670999992016010815004+31198+121336FM-15+000399999V0200501V002019999999Y999999999+00501-00401999999ADDMA1102801999999REMMET061METAR ZSSS 081500Z 05002MPS 020V090 CAVOK 05/M04 Q1028 NOSIG=
0088583670999992016010815304+31198+121336FM-15+000399999V0201601V002019999999Y999999999+00401-00301999999ADDMA1102801999999REMMET061METAR ZSSS 081530Z 16002MPS 120V210 CAVOK 04/M03 Q1028 NOSIG=
0080583670999992016010816004+31198+121336FM-15+000399999V0201301N002019999999Y999999999+00501-00401999999ADDMA1102801999999REMMET053METAR ZSSS 081600Z 13002MPS CAVOK 05/M04 Q1028 NOSIG=
0080583670999992016010816304+31198+121336FM-15+000399999V0201601N002019999999Y999999999+00401-00301999999ADDMA1102801999999REMMET053METAR ZSSS 081630Z 16002MPS CAVOK 04/M03 Q1028 NOSIG=
0080583670999992016010817004+31198+121336FM-15+000399999V0209999V001019999999Y999999999+00401-00301999999ADDMA1102801999999REMMET053METAR ZSSS 081700Z VRB01MPS CAVOK 04/M03 Q1028 NOSIG=
0080583670999992016010817304+31198+121336FM-15+000399999V0209999C000019999999Y999999999+00401-00301999999ADDMA1102701999999REMMET053METAR ZSSS 081730Z 00000MPS CAVOK 04/M03 Q1027 NOSIG=
0080583670999992016010818004+31198+121336FM-15+000399999V0209999C000019999999Y999999999+00301-00301999999ADDMA1102701999999REMMET053METAR ZSSS 081800Z 00000MPS CAVOK 03/M03 Q1027 NOSIG=
0080583670999992016010818304+31198+121336FM-15+000399999V0209999C000019999999Y999999999+00301-00301999999ADDMA1102701999999REMMET053METAR ZSSS 081830Z 00000MPS CAVOK 03/M03 Q1027 NOSIG=
0080583670999992016010819004+31198+121336FM-15+000399999V0209999C000019999999Y999999999+00301-00201999999ADDMA1102701999999REMMET053METAR ZSSS 081900Z 00000MPS CAVOK 03/M02 Q1027 NOSIG=
0080583670999992016010819304+31198+121336FM-15+000399999V0209999C000019999999Y999999999+00201-00201999999ADDMA1102701999999REMMET053METAR ZSSS 081930Z 00000MPS CAVOK 02/M02 Q1027 NOSIG=
0080583670999992016010820004+31198+121336FM-15+000399999V0209999C000019999999Y999999999+00201-00201999999ADDMA1102701999999REMMET053METAR ZSSS 082000Z 00000MPS CAVOK 02/M02 Q1027 NOSIG=
0080583670999992016010820304+31198+121336FM-15+000399999V0209999C000019999999Y999999999+00201-00301999999ADDMA1102701999999REMMET053METAR ZSSS 082030Z 00000MPS CAVOK 02/M03 Q1027 NOSIG=
0080583670999992016010821004+31198+121336FM-15+000399999V0209999C000019999999Y999999999+00101-00201999999ADDMA1102701999999REMMET053METAR ZSSS 082100Z 00000MPS CAVOK 01/M02 Q1027 NOSIG=
0080583670999992016010821304+31198+121336FM-15+000399999V0209999C000019999999Y999999999+00201-00101999999ADDMA1102801999999REMMET053METAR ZSSS 082130Z 00000MPS CAVOK 02/M01 Q1028 NOSIG=
0080583670999992016010822004+31198+121336FM-15+000399999V0209999C000019999999Y999999999+00201-00101999999ADDMA1102801999999REMMET053METAR ZSSS 082200Z 00000MPS CAVOK 02/M01 Q1028 NOSIG=
0080583670999992016010822304+31198+121336FM-15+000399999V0209999C000019999999Y999999999+00201-00201999999ADDMA1102801999999REMMET053METAR ZSSS 082230Z 00000MPS CAVOK 02/M02 Q1028 NOSIG=
0109583670999992016010823004+31198+121336FM-15+000399999V0209999C000012200019N007000199+00101-00201999999ADDGF100991999999999999999999MA1102801999999REMMET056METAR ZSSS 082300Z 00000MPS 7000 NSC 01/M02 Q1028 NOSIG=
0109583670999992016010823304+31198+121336FM-15+000399999V0209999C000012200019N007000199+00201-00201999999ADDGF100991999999999999999999MA1102801999999REMMET056METAR ZSSS 082330Z 00000MPS 7000 NSC 02/M02 Q1028 NOSIG=
0109583670999992016010900004+31198+121336FM-15+000399999V0201601N002012200019N007000199+00301-00101999999ADDGF100991999999999999999999MA1102901999999REMMET056METAR ZSSS 090000Z 16002MPS 7000 NSC 03/M01 Q1029 NOSIG=
0117583670999992016010900304+31198+121336FM-15+000399999V0201401V003012200019N007000199+00501-00201999999ADDGF100991999999999999999999MA1102901999999REMMET064METAR ZSSS 090030Z 14003MPS 100V160 7000 NSC 05/M02 Q1029 NOSIG=
0117583670999992016010901004+31198+121336FM-15+000399999V0201201V003012200019N007000199+00501-00301999999ADDGF100991999999999999999999MA1102901999999REMMET064METAR ZSSS 090100Z 12003MPS 060V150 7000 NSC 05/M03 Q1029 NOSIG=
0117583670999992016010901304+31198+121336FM-15+000399999V0201301V003012200019N008000199+00601-00301999999ADDGF100991999999999999999999MA1102901999999REMMET064METAR ZSSS 090130Z 13003MPS 100V170 8000 NSC 06/M03 Q1029 NOSIG=
0117583670999992016010902004+31198+121336FM-15+000399999V0201201V003012200019N008000199+00701-00401999999ADDGF100991999999999999999999MA1102901999999REMMET064METAR ZSSS 090200Z 12003MPS 060V150 8000 NSC 07/M04 Q1029 NOSIG=
0117583670999992016010902304+31198+121336FM-15+000399999V0201401V002012200019N008000199+00801-00401999999ADDGF100991999999999999999999MA1102901999999REMMET064METAR ZSSS 090230Z 14002MPS 040V200 8000 NSC 08/M04 Q1029 NOSIG=
0117583670999992016010903004+31198+121336FM-15+000399999V0201701V003012200019N008000199+00901-00301999999ADDGF100991999999999999999999MA1102801999999REMMET064METAR ZSSS 090300Z 17003MPS 130V220 8000 NSC 09/M03 Q1028 NOSIG=
0109583670999992016010903304+31198+121336FM-15+000399999V0209999V002012200019N008000199+00901-00401999999ADDGF100991999999999999999999MA1102801999999REMMET056METAR ZSSS 090330Z VRB02MPS 8000 NSC 09/M04 Q1028 NOSIG=
0117583670999992016010904004+31198+121336FM-15+000399999V0201801V003012200019N008000199+01001-00401999999ADDGF100991999999999999999999MA1102701999999REMMET064METAR ZSSS 090400Z 18003MPS 150V220 8000 NSC 10/M04 Q1027 NOSIG=
0109583670999992016010904304+31198+121336FM-15+000399999V0209999V001012200019N007000199+00901-00501999999ADDGF100991999999999999999999MA1102601999999REMMET056METAR ZSSS 090430Z VRB01MPS 7000 NSC 09/M05 Q1026 NOSIG=
0117583670999992016010905004+31198+121336FM-15+000399999V0201801V002012200019N007000199+01101-00401999999ADDGF100991999999999999999999MA1102601999999REMMET064METAR ZSSS 090500Z 18002MPS 090V240 7000 NSC 11/M04 Q1026 NOSIG=
0109583670999992016010905304+31198+121336FM-15+000399999V0209999V001012200019N007000199+01001-00501999999ADDGF100991999999999999999999MA1102501999999REMMET056METAR ZSSS 090530Z VRB01MPS 7000 NSC 10/M05 Q1025 NOSIG=
0117583670999992016010906004+31198+121336FM-15+000399999V0201601V002012200019N007000199+01001-00401999999ADDGF100991999999999999999999MA1102501999999REMMET064METAR ZSSS 090600Z 16002MPS 120V230 7000 NSC 10/M04 Q1025 NOSIG=
0109583670999992016010906304+31198+121336FM-15+000399999V0209999V001012200019N006000199+01001-00401999999ADDGF100991999999999999999999MA1102501999999REMMET056METAR ZSSS 090630Z VRB01MPS 6000 NSC 10/M04 Q1025 NOSIG=
0117583670999992016010907004+31198+121336FM-15+000399999V0201301V002012200019N006000199+00901-00501999999ADDGF100991999999999999999999MA1102501999999REMMET064METAR ZSSS 090700Z 13002MPS 070V170 6000 NSC 09/M05 Q1025 NOSIG=
0109583670999992016010907304+31198+121336FM-15+000399999V0209999V001012200019N006000199+01001-00501999999ADDGF100991999999999999999999MA1102501999999REMMET056METAR ZSSS 090730Z VRB01MPS 6000 NSC 10/M05 Q1025 NOSIG=
0117583670999992016010908004+31198+121336FM-15+000399999V0201401V002012200019N006000199+00901-00401999999ADDGF100991999999999999999999MA1102501999999REMMET064METAR ZSSS 090800Z 14002MPS 110V170 6000 NSC 09/M04 Q1025 NOSIG=
0117583670999992016010908304+31198+121336FM-15+000399999V0201301V002012200019N006000199+00901-00401999999ADDGF100991999999999999999999MA1102501999999REMMET064METAR ZSSS 090830Z 13002MPS 060V150 6000 NSC 09/M04 Q1025 NOSIG=
0118583670999992016010909004+31198+121336FM-15+000399999V0201401N002012200019N005000199+00901-00401999999ADDGF100991999999999999999999MA1102601999999MW1051REMMET059METAR ZSSS 090900Z 14002MPS 5000 HZ NSC 09/M04 Q1026 NOSIG=
0118583670999992016010909304+31198+121336FM-15+000399999V0201301N002012200019N005000199+00901-00401999999ADDGF100991999999999999999999MA1102601999999MW1051REMMET059METAR ZSSS 090930Z 13002MPS 5000 HZ NSC 09/M04 Q1026 NOSIG=
0126583670999992016010910004+31198+121336FM-15+000399999V0201001V003012200019N005000199+00901-00201999999ADDGF100991999999999999999999MA1102601999999MW1051REMMET067METAR ZSSS 091000Z 10003MPS 070V130 5000 HZ NSC 09/M02 Q1026 NOSIG=
0118583670999992016010910304+31198+121336FM-15+000399999V0201101N004012200019N005000199+00801-00201999999ADDGF100991999999999999999999MA1102601999999MW1051REMMET059METAR ZSSS 091030Z 11004MPS 5000 HZ NSC 08/M02 Q1026 NOSIG=
0118583670999992016010911004+31198+121336FM-15+000399999V0201101N003012200019N005000199+00801-00201999999ADDGF100991999999999999999999MA1102601999999MW1051REMMET059METAR ZSSS 091100Z 11003MPS 5000 HZ NSC 08/M02 Q1026 NOSIG=
0118583670999992016010911304+31198+121336FM-15+000399999V0201201N004012200019N005000199+00801-00201999999ADDGF100991999999999999999999MA1102601999999MW1051REMMET059METAR ZSSS 091130Z 12004MPS 5000 HZ NSC 08/M02 Q1026 NOSIG=
0118583670999992016010912004+31198+121336FM-15+000399999V0201101N003012200019N005000199+00801-00201999999ADDGF100991999999999999999999MA1102601999999MW1051REMMET059METAR ZSSS 091200Z 11003MPS 5000 HZ NSC 08/M02 Q1026 NOSIG=
0118583670999992016010912304+31198+121336FM-15+000399999V0201101N004012200019N005000199+00801-00201999999ADDGF100991999999999999999999MA1102601999999MW1051REMMET059METAR ZSSS 091230Z 11004MPS 5000 HZ NSC 08/M02 Q1026 NOSIG=
0118583670999992016010913004+31198+121336FM-15+000399999V0201101N003012200019N005000199+00801-00201999999ADDGF100991999999999999999999MA1102601999999MW1051REMMET059METAR ZSSS 091300Z 11003MPS 5000 HZ NSC 08/M02 Q1026 NOSIG=
0109583670999992016010913304+31198+121336FM-15+000399999V0200901N003012200019N007000199+00801-00301999999ADDGF100991999999999999999999MA1102601999999REMMET056METAR ZSSS 091330Z 09003MPS 7000 NSC 08/M03 Q1026 NOSIG=
0109583670999992016010914004+31198+121336FM-15+000399999V0201001N003012200019N007000199+00801-00301999999ADDGF100991999999999999999999MA1102601999999REMMET056METAR ZSSS 091400Z 10003MPS 7000 NSC 08/M03 Q1026 NOSIG=
0088583670999992016010914304+31198+121336FM-15+000399999V0201001V003019999999Y999999999+00801-00301999999ADDMA1102601999999REMMET061METAR ZSSS 091430Z 10003MPS 060V130 CAVOK 08/M03 Q1026 NOSIG=
0088583670999992016010915004+31198+121336FM-15+000399999V0200801V002019999999Y999999999+00801-00301999999ADDMA1102601999999REMMET061METAR ZSSS 091500Z 08002MPS 030V110 CAVOK 08/M03 Q1026 NOSIG=
0080583670999992016010915304+31198+121336FM-15+000399999V0200901N003019999999Y999999999+00801-00301999999ADDMA1102501999999REMMET053METAR ZSSS 091530Z 09003MPS CAVOK 08/M03 Q1025 NOSIG=
0080583670999992016010916004+31198+121336FM-15+000399999V0200901N003019999999Y999999999+00801-00201999999ADDMA1102601999999REMMET053METAR ZSSS 091600Z 09003MPS CAVOK 08/M02 Q1026 NOSIG=
0088583670999992016010916304+31198+121336FM-15+000399999V0200901V003019999999Y999999999+00801-00101999999ADDMA1102501999999REMMET061METAR ZSSS 091630Z 09003MPS 050V120 CAVOK 08/M01 Q1025 NOSIG=
0088583670999992016010917004+31198+121336FM-15+000399999V0201001V003019999999Y999999999+00801-00101999999ADDMA1102501999999REMMET061METAR ZSSS 091700Z 10003MPS 060V130 CAVOK 08/M01 Q1025 NOSIG=
0088583670999992016010917304+31198+121336FM-15+000399999V0200801V002019999999Y999999999+00801-00101999999ADDMA1102601999999REMMET061METAR ZSSS 091730Z 08002MPS 050V110 CAVOK 08/M01 Q1026 NOSIG=
0080583670999992016010918004+31198+121336FM-15+000399999V0200801N003019999999Y999999999+00801-00101999999ADDMA1102501999999REMMET053METAR ZSSS 091800Z 08003MPS CAVOK 08/M01 Q1025 NOSIG=
0080583670999992016010918304+31198+121336FM-15+000399999V0200901N003019999999Y999999999+00801-00101999999ADDMA1102501999999REMMET053METAR ZSSS 091830Z 09003MPS CAVOK 08/M01 Q1025 NOSIG=
0080583670999992016010919004+31198+121336FM-15+000399999V0200601N002019999999Y999999999+00801-00101999999ADDMA1102501999999REMMET053METAR ZSSS 091900Z 06002MPS CAVOK 08/M01 Q1025 NOSIG=
0080583670999992016010919304+31198+121336FM-15+000399999V0200901N003019999999Y999999999+00801+00001999999ADDMA1102401999999REMMET053METAR ZSSS 091930Z 09003MPS CAVOK 08/M00 Q1024 NOSIG=
0079583670999992016010920004+31198+121336FM-15+000399999V0201001N002019999999Y999999999+00801+00101999999ADDMA1102401999999REMMET052METAR ZSSS 092000Z 10002MPS CAVOK 08/01 Q1024 NOSIG=
0079583670999992016010920304+31198+121336FM-15+000399999V0201001N002019999999Y999999999+00901+00101999999ADDMA1102301999999REMMET052METAR ZSSS 092030Z 10002MPS CAVOK 09/01 Q1023 NOSIG=
0079583670999992016010921004+31198+121336FM-15+000399999V0200901N003019999999Y999999999+00901+00201999999ADDMA1102401999999REMMET052METAR ZSSS 092100Z 09003MPS CAVOK 09/02 Q1024 NOSIG=
0079583670999992016010921304+31198+121336FM-15+000399999V0201101N003019999999Y999999999+00901+00301999999ADDMA1102401999999REMMET052METAR ZSSS 092130Z 11003MPS CAVOK 09/03 Q1024 NOSIG=
0087583670999992016010922004+31198+121336FM-15+000399999V0200901V003019999999Y999999999+00901+00301999999ADDMA1102401999999REMMET060METAR ZSSS 092200Z 09003MPS 060V120 CAVOK 09/03 Q1024 NOSIG=
0087583670999992016010922304+31198+121336FM-15+000399999V0200701V002019999999Y999999999+00901+00401999999ADDMA1102401999999REMMET060METAR ZSSS 092230Z 07002MPS 030V090 CAVOK 09/04 Q1024 NOSIG=
0087583670999992016010923004+31198+121336FM-15+000399999V0200601V002019999999Y999999999+00901+00401999999ADDMA1102401999999REMMET060METAR ZSSS 092300Z 06002MPS 030V090 CAVOK 09/04 Q1024 NOSIG=
0079583670999992016010923304+31198+121336FM-15+000399999V0200501N002019999999Y999999999+00901+00401999999ADDMA1102401999999REMMET052METAR ZSSS 092330Z 05002MPS CAVOK 09/04 Q1024 NOSIG=
0079583670999992016011000004+31198+121336FM-15+000399999V0200801N002019999999Y999999999+00901+00401999999ADDMA1102501999999REMMET052METAR ZSSS 100000Z 08002MPS CAVOK 09/04 Q1025 NOSIG=
0087583670999992016011000304+31198+121336FM-15+000399999V0200701V002019999999Y999999999+01001+00501999999ADDMA1102601999999REMMET060METAR ZSSS 100030Z 07002MPS 030V100 CAVOK 10/05 Q1026 NOSIG=
0116583670999992016011001004+31198+121336FM-15+000399999V0200601V002012200019N007000199+01001+00501999999ADDGF100991999999999999999999MA1102601999999REMMET063METAR ZSSS 100100Z 06002MPS 030V090 7000 NSC 10/05 Q1026 NOSIG=
0108583670999992016011001304+31198+121336FM-15+000399999V0200701N003012200019N007000199+01001+00501999999ADDGF100991999999999999999999MA1102601999999REMMET055METAR ZSSS 100130Z 07003MPS 7000 NSC 10/05 Q1026 NOSIG=
0116583670999992016011002004+31198+121336FM-15+000399999V0200901V004012200019N007000199+01101+00601999999ADDGF100991999999999999999999MA1102501999999REMMET063METAR ZSSS 100200Z 09004MPS 040V120 7000 NSC 11/06 Q1025 NOSIG=
