0202643870999992016010100004-01967+030117FM-12+149199999V0202301N001519999999N010000199+02061+01871999999ADDGA1021+007801061GA2999+999999001GE19AGL   +99999+99999GF104991021999007801999999MA1999999085221MD1999999+0061ME1315169REMSYN07264387 32560 42303 10206 20187 38522 48516 82502 333 58006 82626 Q1019.9=
0148643870999992016010100004-01969+030139FM-15+148199999V0202301N001519999999N009999199+02101+01901999999ADDGA1021+009141999GE19AGL   +99999+99999GF199999021999009141999999MA1102001999999REMMET057METAR HRYR 010000Z 23003KT 9999 FEW030 21/19 Q1020 NOSIG=
0148643870999992016010100304-01969+030139FM-15+148199999V0201701N001519999999N009999199+02101+01801999999ADDGA1021+009141999GE19AGL   +99999+99999GF199999021999009141999999MA1102001999999REMMET057METAR HRYR 010030Z 17003KT 9999 FEW030 21/18 Q1020 NOSIG=
0148643870999992016010101004-01969+030139FM-15+148199999V0209999C000019999999N009999199+02001+01801999999ADDGA1021+009141999GE19AGL   +99999+99999GF199999021999009141999999MA1102001999999REMMET057METAR HRYR 010100Z 00000KT 9999 FEW030 20/18 Q1020 NOSIG=
0148643870999992016010101304-01969+030139FM-15+148199999V0209999C000019999999N009999199+02001+01801999999ADDGA1021+009141999GE19AGL   +99999+99999GF199999021999009141999999MA1102001999999REMMET057METAR HRYR 010130Z 00000KT 9999 FEW030 20/18 Q1020 NOSIG=
0148643870999992016010102004-01969+030139FM-15+148199999V0209999C000019999999N009999199+02001+01801999999ADDGA1021+009141999GE19AGL   +99999+99999GF199999021999009141999999MA1102001999999REMMET057METAR HRYR 010200Z 00000KT 9999 FEW030 20/18 Q1020 NOSIG=
0148643870999992016010102304-01969+030139FM-15+148199999V0209999C000019999999N009999199+01901+01901999999ADDGA1041+009141999GE19AGL   +99999+99999GF199999041999009141999999MA1102101999999REMMET057METAR HRYR 010230Z 00000KT 9999 SCT030 19/19 Q1021 NOSIG=
0148643870999992016010103004-01969+030139FM-15+148199999V0209999C000019999999N009999199+01901+01901999999ADDGA1041+007921999GE19AGL   +99999+99999GF199999041999007921999999MA1102101999999REMMET057METAR HRYR 010300Z 00000KT 9999 SCT026 19/19 Q1021 NOSIG=
0148643870999992016010103304-01969+030139FM-15+148199999V0209999C000019999999N009999199+01901+01901999999ADDGA1041+007921999GE19AGL   +99999+99999GF199999041999007921999999MA1102101999999REMMET057METAR HRYR 010330Z 00000KT 9999 SCT026 19/19 Q1021 NOSIG=
0148643870999992016010104304-01969+030139FM-15+148199999V0209999C000019999999N009999199+01901+01801999999ADDGA1041+007921999GE19AGL   +99999+99999GF199999041999007921999999MA1102201999999REMMET057METAR HRYR 010430Z 00000KT 9999 SCT026 19/18 Q1022 NOSIG=
0148643870999992016010105004-01969+030139FM-15+148199999V0209999C000019999999N009999199+02001+01901999999ADDGA1041+007921999GE19AGL   +99999+99999GF199999041999007921999999MA1102201999999REMMET057METAR HRYR 010500Z 00000KT 9999 SCT026 20/19 Q1022 NOSIG=
0148643870999992016010105304-01969+030139FM-15+148199999V0209999C000019999999N009999199+02001+01901999999ADDGA1041+007921999GE19AGL   +99999+99999GF199999041999007921999999MA1102301999999REMMET057METAR HRYR 010530Z 00000KT 9999 SCT026 20/19 Q1023 NOSIG=
0148643870999992016010106004-01969+030139FM-15+148199999V0209999C000019999999N009999199+02101+01901999999ADDGA1041+007621999GE19AGL   +99999+99999GF199999041999007621999999MA1102301999999REMMET057METAR HRYR 010600Z 00000KT 9999 SCT025 21/19 Q1023 NOSIG=
0148643870999992016010106304-01969+030139FM-15+148199999V0209999C000019999999N009999199+02201+02001999999ADDGA1041+007621999GE19AGL   +99999+99999GF199999041999007621999999MA1102301999999REMMET057METAR HRYR 010630Z 00000KT 9999 SCT025 22/20 Q1023 NOSIG=
0148643870999992016010107004-01969+030139FM-15+148199999V0209999C000019999999N009999199+02401+02001999999ADDGA1041+007621999GE19AGL   +99999+99999GF199999041999007621999999MA1102301999999REMMET057METAR HRYR 010700Z 00000KT 9999 SCT025 24/20 Q1023 NOSIG=
0148643870999992016010107304-01969+030139FM-15+148199999V0201501N001519999999N009999199+02601+02001999999ADDGA1041+007621999GE19AGL   +99999+99999GF199999041999007621999999MA1102301999999REMMET057METAR HRYR 010730Z 15003KT 9999 SCT025 26/20 Q1023 NOSIG=
0148643870999992016010108004-01969+030139FM-15+148199999V0209999C000019999999N009999199+02601+01901999999ADDGA1041+007621999GE19AGL   +99999+99999GF199999041999007621999999MA1102301999999REMMET057METAR HRYR 010800Z 00000KT 9999 SCT025 26/19 Q1023 NOSIG=
0148643870999992016010108304-01969+030139FM-15+148199999V0201301N001519999999N009999199+02701+02101999999ADDGA1041+007621999GE19AGL   +99999+99999GF199999041999007621999999MA1102301999999REMMET057METAR HRYR 010830Z 13003KT 9999 SCT025 27/21 Q1023 NOSIG=
0148643870999992016010109004-01969+030139FM-15+148199999V0201501N001519999999N009999199+02601+02001999999ADDGA1041+007621999GE19AGL   +99999+99999GF199999041999007621999999MA1102301999999REMMET057METAR HRYR 010900Z 15003KT 9999 SCT025 26/20 Q1023 NOSIG=
0173643870999992016010109304-01969+030139FM-15+148199999V0203501N003110076219N009999199+02601+01801999999ADDGA1021+007011091GA2071+007621999GE19AGL   +99999+99999GF199999021999007011999999MA1102201999999REMMET066METAR HRYR 010930Z 35006KT 9999 FEW023CB BKN025 26/18 Q1022 NOSIG=
0173643870999992016010110004-01969+030139FM-15+148199999V0203601N003110076219N009999199+02601+01601999999ADDGA1021+007011091GA2071+007621999GE19AGL   +99999+99999GF199999021999007011999999MA1102201999999REMMET066METAR HRYR 011000Z 36006KT 9999 FEW023CB BKN025 26/16 Q1022 NOSIG=
0173643870999992016010110304-01969+030139FM-15+148199999V0203501N001510076219N009999199+02701+01701999999ADDGA1021+007011091GA2071+007621999GE19AGL   +99999+99999GF199999021999007011999999MA1102201999999REMMET066METAR HRYR 011030Z 35003KT 9999 FEW023CB BKN025 27/17 Q1022 NOSIG=
0148643870999992016010111004-01969+030139FM-15+148199999V0200101N001510076219N009999199+02801+01701999999ADDGA1071+007621999GE19AGL   +99999+99999GF199999071999007621999999MA1102101999999REMMET057METAR HRYR 011100Z 01003KT 9999 BKN025 28/17 Q1021 NOSIG=
0151643870999992016010111304-01969+030139FM-15+148199999V0200401N004110076219N009999199+02801+01701999999ADDGA1071+007621081GE19AGL   +99999+99999GF199999071999007621999999MA1102001999999REMMET060METAR HRYR 011130Z 04008KT 9999 BKN025TCU 28/17 Q1020 NOSIG=
0176643870999992016010112004-01969+030139FM-15+148199999V0200501N003110076219N009999199+02801+01701999999ADDGA1021+007011091GA2071+007621081GE19AGL   +99999+99999GF199999021999007011999999MA1101901999999REMMET069METAR HRYR 011200Z 05006KT 9999 FEW023CB BKN025TCU 28/17 Q1019 NOSIG=
0173643870999992016010112304-01969+030139FM-15+148199999V0200201N003110076219N009999199+02901+01801999999ADDGA1021+007011091GA2071+007621999GE19AGL   +99999+99999GF199999021999007011999999MA1101901999999REMMET066METAR HRYR 011230Z 02006KT 9999 FEW023CB BKN025 29/18 Q1019 NOSIG=
0173643870999992016010113004-01969+030139FM-15+148199999V0200201N00311007621CN009999199+03101+01701999999ADDGA1021+007011091GA2041+007621999GE19AGL   +99999+99999GF199999021999007011999999MA1101801999999REMMET066METAR HRYR 011300Z 02006KT 9999 FEW023CB SCT025 31/17 Q1018 NOSIG=
0173643870999992016010113304-01969+030139FM-15+148199999V0200401N00461007621CN009999199+03101+01701999999ADDGA1021+007011091GA2041+007621999GE19AGL   +99999+99999GF199999021999007011999999MA1101801999999REMMET066METAR HRYR 011330Z 04009KT 9999 FEW023CB SCT025 31/17 Q1018 NOSIG=
0173643870999992016010114004-01969+030139FM-15+148199999V0200501N00211007621CN009999199+02901+01601999999ADDGA1021+007011091GA2041+007621999GE19AGL   +99999+99999GF199999021999007011999999MA1101801999999REMMET066METAR HRYR 011400Z 05004KT 9999 FEW023CB SCT025 29/16 Q1018 NOSIG=
0173643870999992016010114304-01969+030139FM-15+148199999V0200201N00461007621CN009999199+02801+01601999999ADDGA1021+007011091GA2041+007621999GE19AGL   +99999+99999GF199999021999007011999999MA1101801999999REMMET066METAR HRYR 011430Z 02009KT 9999 FEW023CB SCT025 28/16 Q1018 NOSIG=
0173643870999992016010115004-01969+030139FM-15+148199999V0200401N00411007621CN009999199+02801+01701999999ADDGA1021+007011091GA2041+007621999GE19AGL   +99999+99999GF199999021999007011999999MA1101801999999REMMET066METAR HRYR 011500Z 04008KT 9999 FEW023CB SCT025 28/17 Q1018 NOSIG=
0173643870999992016010115304-01969+030139FM-15+148199999V0200301N00261007621CN009999199+02801+01701999999ADDGA1021+007011091GA2041+007621999GE19AGL   +99999+99999GF199999021999007011999999MA1101801999999REMMET066METAR HRYR 011530Z 03005KT 9999 FEW023CB SCT025 28/17 Q1018 NOSIG=
0173643870999992016010116004-01969+030139FM-15+148199999V0200201N002610076219N009999199+02701+01701999999ADDGA1021+007011091GA2071+007621999GE19AGL   +99999+99999GF199999021999007011999999MA1101901999999REMMET066METAR HRYR 011600Z 02005KT 9999 FEW023CB BKN025 27/17 Q1019 NOSIG=
0173643870999992016010116304-01969+030139FM-15+148199999V0200201N002610076219N009999199+02601+01701999999ADDGA1021+007011091GA2071+007621999GE19AGL   +99999+99999GF199999021999007011999999MA1101901999999REMMET066METAR HRYR 011630Z 02005KT 9999 FEW023CB BKN025 26/17 Q1019 NOSIG=
0173643870999992016010117004-01969+030139FM-15+148199999V0203001N002110076219N009999199+02601+01701999999ADDGA1021+007011091GA2071+007621999GE19AGL   +99999+99999GF199999021999007011999999MA1102001999999REMMET066METAR HRYR 011700Z 30004KT 9999 FEW023CB BKN025 26/17 Q1020 NOSIG=
0148643870999992016010117304-01969+030139FM-15+148199999V0200501N002610076219N009999199+02501+01701999999ADDGA1071+007621999GE19AGL   +99999+99999GF199999071999007621999999MA1102001999999REMMET057METAR HRYR 011730Z 05005KT 9999 BKN025 25/17 Q1020 NOSIG=
0148643870999992016010118004-01969+030139FM-15+148199999V0200701N002119999999N009999199+02501+01701999999ADDGA1041+007621999GE19AGL   +99999+99999GF199999041999007621999999MA1102101999999REMMET057METAR HRYR 011800Z 07004KT 9999 SCT025 25/17 Q1021 NOSIG=
0148643870999992016010118304-01969+030139FM-15+148199999V0200401N002110076219N009999199+02501+01701999999ADDGA1071+007621999GE19AGL   +99999+99999GF199999071999007621999999MA1102101999999REMMET057METAR HRYR 011830Z 04004KT 9999 BKN025 25/17 Q1021 NOSIG=
0148643870999992016010119004-01969+030139FM-15+148199999V0200401N003110076219N009999199+02501+01701999999ADDGA1071+007621999GE19AGL   +99999+99999GF199999071999007621999999MA1102101999999REMMET057METAR HRYR 011900Z 04006KT 9999 BKN025 25/17 Q1021 NOSIG=
0148643870999992016010119304-01969+030139FM-15+148199999V0200501N002619999999N009999199+02401+01701999999ADDGA1041+007621999GE19AGL   +99999+99999GF199999041999007621999999MA1102201999999REMMET057METAR HRYR 011930Z 05005KT 9999 SCT025 24/17 Q1022 NOSIG=
0171643870999992016010120004-01969+030139FM-15+148199999V0200801N00361030481CN009999199+02401+01701999999ADDGA1041+007621999GA2041+030481999GE19AGL   +99999+99999GF199999041999007621999999MA1102201999999REMMET064METAR HRYR 012000Z 08007KT 9999 SCT025 SCT100 24/17 Q1022 NOSIG=
0171643870999992016010120304-01969+030139FM-15+148199999V0200501N00311030481CN009999199+02301+01801999999ADDGA1041+007621999GA2041+030481999GE19AGL   +99999+99999GF199999041999007621999999MA1102201999999REMMET064METAR HRYR 012030Z 05006KT 9999 SCT025 SCT100 23/18 Q1022 NOSIG=
0171643870999992016010121004-01969+030139FM-15+148199999V0200401N00151030481CN009999199+02301+01801999999ADDGA1041+007621999GA2041+030481999GE19AGL   +99999+99999GF199999041999007621999999MA1102201999999REMMET064METAR HRYR 012100Z 04003KT 9999 SCT025 SCT100 23/18 Q1022 NOSIG=
0171643870999992016010121304-01969+030139FM-15+148199999V0200401N00151030481CN009999199+02201+01801999999ADDGA1041+007621999GA2041+030481999GE19AGL   +99999+99999GF199999041999007621999999MA1102201999999REMMET064METAR HRYR 012130Z 04003KT 9999 SCT025 SCT100 22/18 Q1022 NOSIG=
0171643870999992016010122004-01969+030139FM-15+148199999V0202901N00211030481CN009999199+02101+01801999999ADDGA1041+007621999GA2041+030481999GE19AGL   +99999+99999GF199999041999007621999999MA1102201999999REMMET064METAR HRYR 012200Z 29004KT 9999 SCT025 SCT100 21/18 Q1022 NOSIG=
0148643870999992016010122304-01969+030139FM-15+148199999V0203201N002119999999N009999199+02101+01801999999ADDGA1021+007621999GE19AGL   +99999+99999GF199999021999007621999999MA1102201999999REMMET057METAR HRYR 012230Z 32004KT 9999 FEW025 21/18 Q1022 NOSIG=
0148643870999992016010123004-01969+030139FM-15+148199999V0209999C000019999999N009999199+02101+01801999999ADDGA1021+007921999GE19AGL   +99999+99999GF199999021999007921999999MA1102101999999REMMET057METAR HRYR 012300Z 00000KT 9999 FEW026 21/18 Q1021 NOSIG=
0148643870999992016010123304-01969+030139FM-15+148199999V0209999C000019999999N009999199+02001+01801999999ADDGA1021+007921999GE19AGL   +99999+99999GF199999021999007921999999MA1102101999999REMMET057METAR HRYR 012330Z 00000KT 9999 FEW026 20/18 Q1021 NOSIG=
0148643870999992016010200004-01969+030139FM-15+148199999V0209999C000019999999N009999199+02001+01801999999ADDGA1021+007921999GE19AGL   +99999+99999GF199999021999007921999999MA1102101999999REMMET057METAR HRYR 020000Z 00000KT 9999 FEW026 20/18 Q1021 NOSIG=
0148643870999992016010200304-01969+030139FM-15+148199999V0209999C000019999999N009999199+02001+01901999999ADDGA1021+007921999GE19AGL   +99999+99999GF199999021999007921999999MA1102101999999REMMET057METAR HRYR 020030Z 00000KT 9999 FEW026 20/19 Q1021 NOSIG=
0148643870999992016010201004-01969+030139FM-15+148199999V0209999C000019999999N009999199+02001+01901999999ADDGA1021+007921999GE19AGL   +99999+99999GF199999021999007921999999MA1102101999999REMMET057METAR HRYR 020100Z 00000KT 9999 FEW026 20/19 Q1021 NOSIG=
0148643870999992016010201304-01969+030139FM-15+148199999V0209999C000019999999N009999199+01901+01901999999ADDGA1021+007921999GE19AGL   +99999+99999GF199999021999007921999999MA1102101999999REMMET057METAR HRYR 020130Z 00000KT 9999 FEW026 19/19 Q1021 NOSIG=
0148643870999992016010202004-01969+030139FM-15+148199999V0209999C000019999999N009999199+01901+01901999999ADDGA1021+007921999GE19AGL   +99999+99999GF199999021999007921999999MA1102101999999REMMET057METAR HRYR 020200Z 00000KT 9999 FEW026 19/19 Q1021 NOSIG=
0148643870999992016010202304-01969+030139FM-15+148199999V0209999C000019999999N009999199+01901+01801999999ADDGA1021+007921999GE19AGL   +99999+99999GF199999021999007921999999MA1102101999999REMMET057METAR HRYR 020230Z 00000KT 9999 FEW026 19/18 Q1021 NOSIG=
0148643870999992016010203004-01969+030139FM-15+148199999V0209999C000019999999N009999199+01901+01801999999ADDGA1021+007921999GE19AGL   +99999+99999GF199999021999007921999999MA1102101999999REMMET057METAR HRYR 020300Z 00000KT 9999 FEW026 19/18 Q1021 NOSIG=
0148643870999992016010203304-01969+030139FM-15+148199999V0209999C000019999999N009999199+01801+01801999999ADDGA1021+007921999GE19AGL   +99999+99999GF199999021999007921999999MA1102101999999REMMET057METAR HRYR 020330Z 00000KT 9999 FEW026 18/18 Q1021 NOSIG=
0148643870999992016010204004-01969+030139FM-15+148199999V0202901N001519999999N009999199+01801+01801999999ADDGA1021+007921999GE19AGL   +99999+99999GF199999021999007921999999MA1102101999999REMMET057METAR HRYR 020400Z 29003KT 9999 FEW026 18/18 Q1021 NOSIG=
0148643870999992016010204304-01969+030139FM-15+148199999V0209999C000019999999N009999199+01801+01801999999ADDGA1021+007921999GE19AGL   +99999+99999GF199999021999007921999999MA1102201999999REMMET057METAR HRYR 020430Z 00000KT 9999 FEW026 18/18 Q1022 NOSIG=
0148643870999992016010205004-01969+030139FM-15+148199999V0209999C000019999999N009999199+01901+01801999999ADDGA1021+007921999GE19AGL   +99999+99999GF199999021999007921999999MA1102201999999REMMET057METAR HRYR 020500Z 00000KT 9999 FEW026 19/18 Q1022 NOSIG=
0148643870999992016010205304-01969+030139FM-15+148199999V0209999C000019999999N009999199+01901+01801999999ADDGA1021+007921999GE19AGL   +99999+99999GF199999021999007921999999MA1102201999999REMMET057METAR HRYR 020530Z 00000KT 9999 FEW026 19/18 Q1022 NOSIG=
0148643870999992016010206004-01969+030139FM-15+148199999V0209999C000019999999N009999199+02201+01901999999ADDGA1021+007921999GE19AGL   +99999+99999GF199999021999007921999999MA1102301999999REMMET057METAR HRYR 020600Z 00000KT 9999 FEW026 22/19 Q1023 NOSIG=
0148643870999992016010206304-01969+030139FM-15+148199999V0209999C000019999999N009999199+02301+01901999999ADDGA1021+007921999GE19AGL   +99999+99999GF199999021999007921999999MA1102401999999REMMET057METAR HRYR 020630Z 00000KT 9999 FEW026 23/19 Q1024 NOSIG=
0148643870999992016010207004-01969+030139FM-15+148199999V0201601N001519999999N009999199+02501+02001999999ADDGA1021+007921999GE19AGL   +99999+99999GF199999021999007921999999MA1102401999999REMMET057METAR HRYR 020700Z 16003KT 9999 FEW026 25/20 Q1024 NOSIG=
0148643870999992016010207304-01969+030139FM-15+148199999V0201601N001519999999N009999199+02501+02001999999ADDGA1021+007921999GE19AGL   +99999+99999GF199999021999007921999999MA1102401999999REMMET057METAR HRYR 020730Z 16003KT 9999 FEW026 25/20 Q1024 NOSIG=
0148643870999992016010208004-01969+030139FM-15+148199999V0201301N001519999999N009999199+02601+02001999999ADDGA1041+007921999GE19AGL   +99999+99999GF199999041999007921999999MA1102301999999REMMET057METAR HRYR 020800Z 13003KT 9999 SCT026 26/20 Q1023 NOSIG=
0148643870999992016010208304-01969+030139FM-15+148199999V0201701N002619999999N009999199+02601+02001999999ADDGA1021+007921999GE19AGL   +99999+99999GF199999021999007921999999MA1102301999999REMMET057METAR HRYR 020830Z 17005KT 9999 FEW026 26/20 Q1023 NOSIG=
0151643870999992016010209004-01969+030139FM-15+148199999V0200901N002619999999N009999199+02601+02001999999ADDGA1041+007921081GE19AGL   +99999+99999GF199999041999007921999999MA1102301999999REMMET060METAR HRYR 020900Z 09005KT 9999 SCT026TCU 26/20 Q1023 NOSIG=
0151643870999992016010209304-01969+030139FM-15+148199999V0200901N002619999999N009999199+02601+01801999999ADDGA1041+007921081GE19AGL   +99999+99999GF199999041999007921999999MA1102201999999REMMET060METAR HRYR 020930Z 09005KT 9999 SCT026TCU 26/18 Q1022 NOSIG=
0151643870999992016010210004-01969+030139FM-15+148199999V0201001N002619999999N009999199+02901+01801999999ADDGA1041+007621081GE19AGL   +99999+99999GF199999041999007621999999MA1102201999999REMMET060METAR HRYR 021000Z 10005KT 9999 SCT025TCU 29/18 Q1022 NOSIG=
0151643870999992016010210304-01969+030139FM-15+148199999V0200601N002619999999N009999199+02901+01801999999ADDGA1041+007621081GE19AGL   +99999+99999GF199999041999007621999999MA1102101999999REMMET060METAR HRYR 021030Z 06005KT 9999 SCT025TCU 29/18 Q1021 NOSIG=
0151643870999992016010211004-01969+030139FM-15+148199999V0200301N002619999999N009999199+03001+01601999999ADDGA1041+007621081GE19AGL   +99999+99999GF199999041999007621999999MA1102001999999REMMET060METAR HRYR 021100Z 03005KT 9999 SCT025TCU 30/16 Q1020 NOSIG=
0151643870999992016010211304-01969+030139FM-15+148199999V0200701N003119999999N009999199+03001+01701999999ADDGA1041+007621081GE19AGL   +99999+99999GF199999041999007621999999MA1102001999999REMMET060METAR HRYR 021130Z 07006KT 9999 SCT025TCU 30/17 Q1020 NOSIG=
0148643870999992016010212004-01969+030139FM-15+148199999V0200701N002619999999N009999199+03001+01601999999ADDGA1041+007621999GE19AGL   +99999+99999GF199999041999007621999999MA1101901999999REMMET057METAR HRYR 021200Z 07005KT 9999 SCT025 30/16 Q1019 NOSIG=
0148643870999992016010212304-01969+030139FM-15+148199999V0200501N003619999999N009999199+03001+01701999999ADDGA1041+007621999GE19AGL   +99999+99999GF199999041999007621999999MA1101901999999REMMET057METAR HRYR 021230Z 05007KT 9999 SCT025 30/17 Q1019 NOSIG=
0171643870999992016010213004-01969+030139FM-15+148199999V0200601N003110076219N009999199+02801+01601999999ADDGA1071+007621999GA2041+030481999GE19AGL   +99999+99999GF199999071999007621999999MA1101901999999REMMET064METAR HRYR 021300Z 06006KT 9999 BKN025 SCT100 28/16 Q1019 NOSIG=
0171643870999992016010213304-01969+030139FM-15+148199999V0200601N003110076219N009999199+02901+01701999999ADDGA1071+007621999GA2041+030481999GE19AGL   +99999+99999GF199999071999007621999999MA1101801999999REMMET064METAR HRYR 021330Z 06006KT 9999 BKN025 SCT100 29/17 Q1018 NOSIG=
0171643870999992016010214004-01969+030139FM-15+148199999V0200701N004110304819N009999199+02901+01701999999ADDGA1041+007621999GA2071+030481999GE19AGL   +99999+99999GF199999041999007621999999MA1101801999999REMMET064METAR HRYR 021400Z 07008KT 9999 SCT025 BKN100 29/17 Q1018 NOSIG=
0171643870999992016010214304-01969+030139FM-15+148199999V0200401N003110304819N009999199+02801+01701999999ADDGA1041+007621999GA2071+030481999GE19AGL   +99999+99999GF199999041999007621999999MA1101801999999REMMET064METAR HRYR 021430Z 04006KT 9999 SCT025 BKN100 28/17 Q1018 NOSIG=
0171643870999992016010215004-01969+030139FM-15+148199999V0200501N00261030481CN009999199+02701+01701999999ADDGA1041+007621999GA2041+030481999GE19AGL   +99999+99999GF199999041999007621999999MA1101801999999REMMET064METAR HRYR 021500Z 05005KT 9999 SCT025 SCT100 27/17 Q1018 NOSIG=
0148643870999992016010215304-01969+030139FM-15+148199999V0200601N003119999999N009999199+02701+01701999999ADDGA1041+007621999GE19AGL   +99999+99999GF199999041999007621999999MA1101801999999REMMET057METAR HRYR 021530Z 06006KT 9999 SCT025 27/17 Q1018 NOSIG=
0148643870999992016010216004-01969+030139FM-15+148199999V0200401N002119999999N009999199+02601+01701999999ADDGA1041+007621999GE19AGL   +99999+99999GF199999041999007621999999MA1101901999999REMMET057METAR HRYR 021600Z 04004KT 9999 SCT025 26/17 Q1019 NOSIG=
0148643870999992016010216304-01969+030139FM-15+148199999V0200401N002119999999N009999199+02501+01701999999ADDGA1021+007621999GE19AGL   +99999+99999GF199999021999007621999999MA1101901999999REMMET057METAR HRYR 021630Z 04004KT 9999 FEW025 25/17 Q1019 NOSIG=
0171643870999992016010217004-01969+030139FM-15+148199999V0200301N00151030481CN009999199+02401+01701999999ADDGA1021+007621999GA2041+030481999GE19AGL   +99999+99999GF199999021999007621999999MA1101901999999REMMET064METAR HRYR 021700Z 03003KT 9999 FEW025 SCT100 24/17 Q1019 NOSIG=
0171643870999992016010217304-01969+030139FM-15+148199999V0200501N00151030481CN009999199+02501+01701999999ADDGA1041+007621999GA2041+030481999GE19AGL   +99999+99999GF199999041999007621999999MA1102001999999REMMET064METAR HRYR 021730Z 05003KT 9999 SCT025 SCT100 25/17 Q1020 NOSIG=
0171643870999992016010218004-01969+030139FM-15+148199999V0200601N00211030481CN009999199+02401+01701999999ADDGA1041+007621999GA2041+030481999GE19AGL   +99999+99999GF199999041999007621999999MA1102001999999REMMET064METAR HRYR 021800Z 06004KT 9999 SCT025 SCT100 24/17 Q1020 NOSIG=
0171643870999992016010218304-01969+030139FM-15+148199999V0200301N00211030481CN009999199+02301+01701999999ADDGA1041+007621999GA2041+030481999GE19AGL   +99999+99999GF199999041999007621999999MA1102001999999REMMET064METAR HRYR 021830Z 03004KT 9999 SCT025 SCT100 23/17 Q1020 NOSIG=
0171643870999992016010219004-01969+030139FM-15+148199999V0200301N00211030481CN009999199+02301+01601999999ADDGA1041+007621999GA2041+030481999GE19AGL   +99999+99999GF199999041999007621999999MA1102101999999REMMET064METAR HRYR 021900Z 03004KT 9999 SCT025 SCT100 23/16 Q1021 NOSIG=
0171643870999992016010219304-01969+030139FM-15+148199999V0203601N00151030481CN009999199+02301+01601999999ADDGA1041+007621999GA2041+030481999GE19AGL   +99999+99999GF199999041999007621999999MA1102101999999REMMET064METAR HRYR 021930Z 36003KT 9999 SCT025 SCT100 23/16 Q1021 NOSIG=
0171643870999992016010220004-01969+030139FM-15+148199999V0203301N00151030481CN009999199+02201+01701999999ADDGA1021+007921999GA2041+030481999GE19AGL   +99999+99999GF199999021999007921999999MA1102101999999REMMET064METAR HRYR 022000Z 33003KT 9999 FEW026 SCT100 22/17 Q1021 NOSIG=
0171643870999992016010220304-01969+030139FM-15+148199999V0203201N00151030481CN009999199+02201+01701999999ADDGA1021+007921999GA2041+030481999GE19AGL   +99999+99999GF199999021999007921999999MA1102101999999REMMET064METAR HRYR 022030Z 32003KT 9999 FEW026 SCT100 22/17 Q1021 NOSIG=
0171643870999992016010221004-01969+030139FM-15+148199999V0203301N00151030481CN009999199+02201+01701999999ADDGA1021+007921999GA2041+030481999GE19AGL   +99999+99999GF199999021999007921999999MA1102101999999REMMET064METAR HRYR 022100Z 33003KT 9999 FEW026 SCT100 22/17 Q1021 NOSIG=
0171643870999992016010221304-01969+030139FM-15+148199999V0209999C00001030481CN009999199+02101+01701999999ADDGA1021+007921999GA2041+030481999GE19AGL   +99999+99999GF199999021999007921999999MA1102101999999REMMET064METAR HRYR 022130Z 00000KT 9999 FEW026 SCT100 21/17 Q1021 NOSIG=
0171643870999992016010222004-01969+030139FM-15+148199999V0203301N00151030481CN009999199+02101+01701999999ADDGA1021+007921999GA2041+030481999GE19AGL   +99999+99999GF199999021999007921999999MA1102101999999REMMET064METAR HRYR 022200Z 33003KT 9999 FEW026 SCT100 21/17 Q1021 NOSIG=
0171643870999992016010222304-01969+030139FM-15+148199999V0209999C00001030481CN009999199+02101+01701999999ADDGA1021+007921999GA2041+030481999GE19AGL   +99999+99999GF199999021999007921999999MA1102101999999REMMET064METAR HRYR 022230Z 00000KT 9999 FEW026 SCT100 21/17 Q1021 NOSIG=
0171643870999992016010223004-01969+030139FM-15+148199999V0209999C00001030481CN009999199+02001+01701999999ADDGA1021+007921999GA2041+030481999GE19AGL   +99999+99999GF199999021999007921999999MA1102001999999REMMET064METAR HRYR 022300Z 00000KT 9999 FEW026 SCT100 20/17 Q1020 NOSIG=
0148643870999992016010223304-01969+030139FM-15+148199999V0209999C000019999999N009999199+01901+01701999999ADDGA1021+007921999GE19AGL   +99999+99999GF199999021999007921999999MA1102001999999REMMET057METAR HRYR 022330Z 00000KT 9999 FEW026 19/17 Q1020 NOSIG=
0202643870999992016010300004-01967+030117FM-12+149199999V0202701N001519999999N010000199+01901+01701999999ADDGA1021+007801061GA2999+999999031GE19AGL   +99999+99999GF104991021999007801999999MA1999999085161MD1999999-0141ME1315109REMSYN07264387 32560 42703 10190 20170 38516 48510 82530 333 59014 82626 Q1019.4=
0148643870999992016010300004-01969+030139FM-15+148199999V0202701N001519999999N009999199+01901+01701999999ADDGA1021+007921999GE19AGL   +99999+99999GF199999021999007921999999MA1101901999999REMMET057METAR HRYR 030000Z 27003KT 9999 FEW026 19/17 Q1019 NOSIG=
0148643870999992016010300304-01969+030139FM-15+148199999V0209999C000019999999N009999199+01901+01701999999ADDGA1021+007921999GE19AGL   +99999+99999GF199999021999007921999999MA1101901999999REMMET057METAR HRYR 030030Z 00000KT 9999 FEW026 19/17 Q1019 NOSIG=
0148643870999992016010301004-01969+030139FM-15+148199999V0209999C000019999999N009999199+01901+01801999999ADDGA1021+007921999GE19AGL   +99999+99999GF199999021999007921999999MA1102001999999REMMET057METAR HRYR 030100Z 00000KT 9999 FEW026 19/18 Q1020 NOSIG=
0148643870999992016010301304-01969+030139FM-15+148199999V0209999C000019999999N009999199+01801+01801999999ADDGA1021+007921999GE19AGL   +99999+99999GF199999021999007921999999MA1102001999999REMMET057METAR HRYR 030130Z 00000KT 9999 FEW026 18/18 Q1020 NOSIG=
0148643870999992016010302004-01969+030139FM-15+148199999V0209999C000019999999N009999199+01801+01701999999ADDGA1021+007921999GE19AGL   +99999+99999GF199999021999007921999999MA1102001999999REMMET057METAR HRYR 030200Z 00000KT 9999 FEW026 18/17 Q1020 NOSIG=
0148643870999992016010302304-01969+030139FM-15+148199999V0209999C000019999999N009999199+01801+01701999999ADDGA1021+007921999GE19AGL   +99999+99999GF199999021999007921999999MA1102001999999REMMET057METAR HRYR 030230Z 00000KT 9999 FEW026 18/17 Q1020 NOSIG=
0148643870999992016010303004-01969+030139FM-15+148199999V0209999C000019999999N009999199+01801+01801999999ADDGA1021+007921999GE19AGL   +99999+99999GF199999021999007921999999MA1102001999999REMMET057METAR HRYR 030300Z 00000KT 9999 FEW026 18/18 Q1020 NOSIG=
0148643870999992016010303304-01969+030139FM-15+148199999V0209999C000019999999N009999199+01801+01801999999ADDGA1021+007921999GE19AGL   +99999+99999GF199999021999007921999999MA1102001999999REMMET057METAR HRYR 030330Z 00000KT 9999 FEW026 18/18 Q1020 NOSIG=
0148643870999992016010304004-01969+030139FM-15+148199999V0209999C000019999999N009999199+01801+01801999999ADDGA1021+007921999GE19AGL   +99999+99999GF199999021999007921999999MA1102001999999REMMET057METAR HRYR 030400Z 00000KT 9999 FEW026 18/18 Q1020 NOSIG=
0148643870999992016010304304-01969+030139FM-15+148199999V0209999C000019999999N009999199+01801+01801999999ADDGA1021+007921999GE19AGL   +99999+99999GF199999021999007921999999MA1102001999999REMMET057METAR HRYR 030430Z 00000KT 9999 FEW026 18/18 Q1020 NOSIG=
0148643870999992016010305004-01969+030139FM-15+148199999V0209999C000019999999N009999199+01801+01801999999ADDGA1021+007921999GE19AGL   +99999+99999GF199999021999007921999999MA1102101999999REMMET057METAR HRYR 030500Z 00000KT 9999 FEW026 18/18 Q1021 NOSIG=
0148643870999992016010305304-01969+030139FM-15+148199999V0209999C000019999999N009999199+02101+01801999999ADDGA1021+007921999GE19AGL   +99999+99999GF199999021999007921999999MA1102101999999REMMET057METAR HRYR 030530Z 00000KT 9999 FEW026 21/18 Q1021 NOSIG=
0221643870999992016010306004-01967+030117FM-12+149199999V0209999C000019999999N010000199+02191+01791999999ADDGA1011+078001001GE19AGL   +99999+99999GF101991011999078001999999KA1240M+03071KA2240N+01751MA1999999085311ME1315269REMSYN09564387 32960 10000 10219 20179 38531 48526 80002 333 01300 10307 20175 50494 59019 81076 1021.1=
0078643870999992016010306004-01969+030139FM-15+148199999V0209999C000019999999Y999999999+02201+01801999999ADDMA1102101999999REMMET051METAR HRYR 030600Z 00000KT CAVOK 22/18 Q1021 NOSIG=
0078643870999992016010306304-01969+030139FM-15+148199999V0209999C000019999999Y999999999+02301+01901999999ADDMA1102101999999REMMET051METAR HRYR 030630Z 00000KT CAVOK 23/19 Q1021 NOSIG=
0078643870999992016010307004-01969+030139FM-15+148199999V0201801N002119999999Y999999999+02501+01901999999ADDMA1102101999999REMMET051METAR HRYR 030700Z 18004KT CAVOK 25/19 Q1021 NOSIG=
0078643870999992016010307304-01969+030139FM-15+148199999V0209999C000019999999Y999999999+02501+01901999999ADDMA1102101999999REMMET051METAR HRYR 030730Z 00000KT CAVOK 25/19 Q1021 NOSIG=
0148643870999992016010308004-01969+030139FM-15+148199999V0209999C000019999999N009999199+02601+01901999999ADDGA1021+007011999GE19AGL   +99999+99999GF199999021999007011999999MA1102101999999REMMET057METAR HRYR 030800Z 00000KT 9999 FEW023 26/19 Q1021 NOSIG=
0148643870999992016010308304-01969+030139FM-15+148199999V0201501N001519999999N009999199+02701+01901999999ADDGA1021+007011999GE19AGL   +99999+99999GF199999021999007011999999MA1102001999999REMMET057METAR HRYR 030830Z 15003KT 9999 FEW023 27/19 Q1020 NOSIG=
0148643870999992016010309004-01969+030139FM-15+148199999V0201301N001519999999N009999199+02701+01801999999ADDGA1041+007011999GE19AGL   +99999+99999GF199999041999007011999999MA1102001999999REMMET057METAR HRYR 030900Z 13003KT 9999 SCT023 27/18 Q1020 NOSIG=
0148643870999992016010309304-01969+030139FM-15+148199999V0200801N002119999999N009999199+02801+01801999999ADDGA1041+007011999GE19AGL   +99999+99999GF199999041999007011999999MA1101901999999REMMET057METAR HRYR 030930Z 08004KT 9999 SCT023 28/18 Q1019 NOSIG=
0171643870999992016010310004-01969+030139FM-15+148199999V0200501N002610070119N009999199+02901+01701999999ADDGA1071+007011999GA2041+030481999GE19AGL   +99999+99999GF199999071999007011999999MA1101901999999REMMET064METAR HRYR 031000Z 05005KT 9999 BKN023 SCT100 29/17 Q1019 NOSIG=
0171643870999992016010310304-01969+030139FM-15+148199999V0200701N002610070119N009999199+02901+01601999999ADDGA1071+007011999GA2041+030481999GE19AGL   +99999+99999GF199999071999007011999999MA1101901999999REMMET064METAR HRYR 031030Z 07005KT 9999 BKN023 SCT100 29/16 Q1019 NOSIG=
0171643870999992016010311004-01969+030139FM-15+148199999V0200501N00261030481CN009999199+03001+01601999999ADDGA1041+007011999GA2041+030481999GE19AGL   +99999+99999GF199999041999007011999999MA1101801999999REMMET064METAR HRYR 031100Z 05005KT 9999 SCT023 SCT100 30/16 Q1018 NOSIG=
0171643870999992016010311304-01969+030139FM-15+148199999V0200801N00261030481CN009999199+02901+01701999999ADDGA1041+007011999GA2041+030481999GE19AGL   +99999+99999GF199999041999007011999999MA1101701999999REMMET064METAR HRYR 031130Z 08005KT 9999 SCT023 SCT100 29/17 Q1017 NOSIG=
0203643870999992016010312004-01967+030117FM-12+149199999V0201101N003619999999N010000199+03011+01691999999ADDGA1041+006901081GA2999+999999031GE19AGL   +99999+99999GF106991041999006901999999MA1999999084931MD1999999-0211ME1314889REMSYN07364387 32560 61107 10301 20169 38493 48488 84230 333 59021 84823 Q 1016.7=
0148643870999992016010312004-01969+030139FM-15+148199999V0200501N003119999999N009999199+03101+01601999999ADDGA1041+007011999GE19AGL   +99999+99999GF199999041999007011999999MA1101701999999REMMET057METAR HRYR 031200Z 05006KT 9999 SCT023 31/16 Q1017 NOSIG=
0148643870999992016010312304-01969+030139FM-15+148199999V0201001N004119999999N009999199+03001+01701999999ADDGA1041+007621999GE19AGL   +99999+99999GF199999041999007621999999MA1101701999999REMMET057METAR HRYR 031230Z 10008KT 9999 SCT025 30/17 Q1017 NOSIG=
0148643870999992016010313004-01969+030139FM-15+148199999V0201101N002119999999N009999199+03101+01801999999ADDGA1041+007621999GE19AGL   +99999+99999GF199999041999007621999999MA1101701999999REMMET057METAR HRYR 031300Z 11004KT 9999 SCT025 31/18 Q1017 NOSIG=
0148643870999992016010313304-01969+030139FM-15+148199999V0201301N004119999999N009999199+03101+01601999999ADDGA1041+007621999GE19AGL   +99999+99999GF199999041999007621999999MA1101701999999REMMET057METAR HRYR 031330Z 13008KT 9999 SCT025 31/16 Q1017 NOSIG=
0148643870999992016010314004-01969+030139FM-15+148199999V0200701N002619999999N009999199+03001+01601999999ADDGA1041+007621999GE19AGL   +99999+99999GF199999041999007621999999MA1101501999999REMMET057METAR HRYR 031400Z 07005KT 9999 SCT025 30/16 Q1015 NOSIG=
0148643870999992016010314304-01969+030139FM-15+148199999V0200601N003619999999N009999199+03101+01701999999ADDGA1041+007621999GE19AGL   +99999+99999GF199999041999007621999999MA1101501999999REMMET057METAR HRYR 031430Z 06007KT 9999 SCT025 31/17 Q1015 NOSIG=
0148643870999992016010315004-01969+030139FM-15+148199999V0200401N002619999999N009999199+02901+01701999999ADDGA1041+007621999GE19AGL   +99999+99999GF199999041999007621999999MA1101601999999REMMET057METAR HRYR 031500Z 04005KT 9999 SCT025 29/17 Q1016 NOSIG=
0148643870999992016010315304-01969+030139FM-15+148199999V0200501N002619999999N009999199+02901+01601999999ADDGA1041+007621999GE19AGL   +99999+99999GF199999041999007621999999MA1101601999999REMMET057METAR HRYR 031530Z 05005KT 9999 SCT025 29/16 Q1016 NOSIG=
0148643870999992016010316004-01969+030139FM-15+148199999V0200301N002619999999N009999199+02801+01601999999ADDGA1041+007621999GE19AGL   +99999+99999GF199999041999007621999999MA1101601999999REMMET057METAR HRYR 031600Z 03005KT 9999 SCT025 28/16 Q1016 NOSIG=
0148643870999992016010316304-01969+030139FM-15+148199999V0200301N001519999999N009999199+02701+01601999999ADDGA1021+007621999GE19AGL   +99999+99999GF199999021999007621999999MA1101701999999REMMET057METAR HRYR 031630Z 03003KT 9999 FEW025 27/16 Q1017 NOSIG=
0148643870999992016010317004-01969+030139FM-15+148199999V0200501N002119999999N009999199+02701+01601999999ADDGA1021+007621999GE19AGL   +99999+99999GF199999021999007621999999MA1101701999999REMMET057METAR HRYR 031700Z 05004KT 9999 FEW025 27/16 Q1017 NOSIG=
0148643870999992016010317304-01969+030139FM-15+148199999V0209999C000019999999N009999199+02601+01601999999ADDGA1021+007621999GE19AGL   +99999+99999GF199999021999007621999999MA1101801999999REMMET057METAR HRYR 031730Z 00000KT 9999 FEW025 26/16 Q1018 NOSIG=
0237643870999992016010318004-01967+030117FM-12+149199999V0209999C000019999999N010000199+02521+01631999999ADDGA1031+007501081GA2999+999999031GA3999+999999001GE19AGL   +99999+99999GF105991031999007501999999KA1120M+03091MA1999999085051MD1999999-0161ME1314999REMSYN07864387 32560 50000 10252 20163 38505 48499 83232 333 10309 59016 83825 Q1018.1=
0148643870999992016010318004-01969+030139FM-15+148199999V0209999C000019999999N009999199+02501+01601999999ADDGA1041+007621999GE19AGL   +99999+99999GF199999041999007621999999MA1101801999999REMMET057METAR HRYR 031800Z 00000KT 9999 SCT025 25/16 Q1018 NOSIG=
0148643870999992016010318304-01969+030139FM-15+148199999V0200601N001519999999N009999199+02601+01601999999ADDGA1041+007621999GE19AGL   +99999+99999GF199999041999007621999999MA1101901999999REMMET057METAR HRYR 031830Z 06003KT 9999 SCT025 26/16 Q1019 NOSIG=
0148643870999992016010319004-01969+030139FM-15+148199999V0200501N001519999999N009999199+02501+01601999999ADDGA1041+007621999GE19AGL   +99999+99999GF199999041999007621999999MA1101901999999REMMET057METAR HRYR 031900Z 05003KT 9999 SCT025 25/16 Q1019 NOSIG=
0148643870999992016010319304-01969+030139FM-15+148199999V0200401N001519999999N009999199+02501+01601999999ADDGA1041+007621999GE19AGL   +99999+99999GF199999041999007621999999MA1101901999999REMMET057METAR HRYR 031930Z 04003KT 9999 SCT025 25/16 Q1019 NOSIG=
0148643870999992016010320004-01969+030139FM-15+148199999V0200501N001519999999N009999199+02501+01701999999ADDGA1041+007621999GE19AGL   +99999+99999GF199999041999007621999999MA1101901999999REMMET057METAR HRYR 032000Z 05003KT 9999 SCT025 25/17 Q1019 NOSIG=
0148643870999992016010320304-01969+030139FM-15+148199999V0203401N001519999999N009999199+02301+01701999999ADDGA1041+007621999GE19AGL   +99999+99999GF199999041999007621999999MA1102001999999REMMET057METAR HRYR 032030Z 34003KT 9999 SCT025 23/17 Q1020 NOSIG=
0148643870999992016010321004-01969+030139FM-15+148199999V0203101N001519999999N009999199+02301+01701999999ADDGA1021+007921999GE19AGL   +99999+99999GF199999021999007921999999MA1102001999999REMMET057METAR HRYR 032100Z 31003KT 9999 FEW026 23/17 Q1020 NOSIG=
0148643870999992016010321304-01969+030139FM-15+148199999V0203101N001519999999N009999199+02201+01601999999ADDGA1021+007921999GE19AGL   +99999+99999GF199999021999007921999999MA1102001999999REMMET057METAR HRYR 032130Z 31003KT 9999 FEW026 22/16 Q1020 NOSIG=
0148643870999992016010322004-01969+030139FM-15+148199999V0203601N001519999999N009999199+02201+01601999999ADDGA1021+007921999GE19AGL   +99999+99999GF199999021999007921999999MA1101901999999REMMET057METAR HRYR 032200Z 36003KT 9999 FEW026 22/16 Q1019 NOSIG=
0148643870999992016010322304-01969+030139FM-15+148199999V0203401N001519999999N009999199+02201+01601999999ADDGA1021+007921999GE19AGL   +99999+99999GF199999021999007921999999MA1101901999999REMMET057METAR HRYR 032230Z 34003KT 9999 FEW026 22/16 Q1019 NOSIG=
0148643870999992016010323004-01969+030139FM-15+148199999V0203101N001519999999N009999199+02201+01601999999ADDGA1021+007921999GE19AGL   +99999+99999GF199999021999007921999999MA1101901999999REMMET057METAR HRYR 032300Z 31003KT 9999 FEW026 22/16 Q1019 NOSIG=
0148643870999992016010323304-01969+030139FM-15+148199999V0209999C000019999999N009999199+02101+01601999999ADDGA1021+007921999GE19AGL   +99999+99999GF199999021999007921999999MA1101901999999REMMET057METAR HRYR 032330Z 00000KT 9999 FEW026 21/16 Q1019 NOSIG=
0201643870999992016010400004-01967+030117FM-12+149199999V0202001N001519999999N010000199+02081+01581999999ADDGA1021+007801081GA2999+999999031GE19AGL   +99999+99999GF103991021999007801999999MA1999999085101MD1999999-0061ME1315049REMSYN07164387 32560 32003 10208 20158 38510 48504 82230 333 59006 82826 1018.7=
0148643870999992016010400004-01969+030139FM-15+148199999V0202001N001519999999N009999199+02101+01601999999ADDGA1021+007921999GE19AGL   +99999+99999GF199999021999007921999999MA1101901999999REMMET057METAR HRYR 040000Z 20003KT 9999 FEW026 21/16 Q1019 NOSIG=
0148643870999992016010400304-01969+030139FM-15+148199999V0202201N001519999999N009999199+02101+01601999999ADDGA1021+007921999GE19AGL   +99999+99999GF199999021999007921999999MA1101901999999REMMET057METAR HRYR 040030Z 22003KT 9999 FEW026 21/16 Q1019 NOSIG=
0148643870999992016010401004-01969+030139FM-15+148199999V0202101N001519999999N009999199+02001+01601999999ADDGA1021+007921999GE19AGL   +99999+99999GF199999021999007921999999MA1101901999999REMMET057METAR HRYR 040100Z 21003KT 9999 FEW026 20/16 Q1019 NOSIG=
0148643870999992016010401304-01969+030139FM-15+148199999V0209999C000019999999N009999199+02001+01701999999ADDGA1021+007921999GE19AGL   +99999+99999GF199999021999007921999999MA1101901999999REMMET057METAR HRYR 040130Z 00000KT 9999 FEW026 20/17 Q1019 NOSIG=
0148643870999992016010402004-01969+030139FM-15+148199999V0200201N002119999999N009999199+01901+01701999999ADDGA1021+007921999GE19AGL   +99999+99999GF199999021999007921999999MA1101901999999REMMET057METAR HRYR 040200Z 02004KT 9999 FEW026 19/17 Q1019 NOSIG=
0148643870999992016010402304-01969+030139FM-15+148199999V0203601N001519999999N009999199+01901+01601999999ADDGA1021+007921999GE19AGL   +99999+99999GF199999021999007921999999MA1101901999999REMMET057METAR HRYR 040230Z 36003KT 9999 FEW026 19/16 Q1019 NOSIG=
0148643870999992016010403004-01969+030139FM-15+148199999V0209999C000019999999N009999199+01801+01701999999ADDGA1021+007921999GE19AGL   +99999+99999GF199999021999007921999999MA1101901999999REMMET057METAR HRYR 040300Z 00000KT 9999 FEW026 18/17 Q1019 NOSIG=
0148643870999992016010403304-01969+030139FM-15+148199999V0202201N001519999999N009999199+01901+01701999999ADDGA1021+007921999GE19AGL   +99999+99999GF199999021999007921999999MA1101901999999REMMET057METAR HRYR 040330Z 22003KT 9999 FEW026 19/17 Q1019 NOSIG=
0148643870999992016010404004-01969+030139FM-15+148199999V0203601N002119999999N009999199+01801+01701999999ADDGA1041+007621999GE19AGL   +99999+99999GF199999041999007621999999MA1102001999999REMMET057METAR HRYR 040400Z 36004KT 9999 SCT025 18/17 Q1020 NOSIG=
0148643870999992016010404304-01969+030139FM-15+148199999V0203501N002619999999N008000199+01801+01701999999ADDGA1041+007621999GE19AGL   +99999+99999GF199999041999007621999999MA1102001999999REMMET057METAR HRYR 040430Z 35005KT 8000 SCT025 18/17 Q1020 NOSIG=
0171643870999992016010405004-01969+030139FM-15+148199999V0201901N00151030481CN008000199+01901+01801999999ADDGA1041+007621999GA2041+030481999GE19AGL   +99999+99999GF199999041999007621999999MA1102101999999REMMET064METAR HRYR 040500Z 19003KT 8000 SCT025 SCT100 19/18 Q1021 NOSIG=
0171643870999992016010405304-01969+030139FM-15+148199999V0201701N00211030481CN008000199+01901+01701999999ADDGA1041+007011999GA2041+030481999GE19AGL   +99999+99999GF199999041999007011999999MA1102101999999REMMET064METAR HRYR 040530Z 17004KT 8000 SCT023 SCT100 19/17 Q1021 NOSIG=
0244643870999992016010406004-01967+030117FM-12+149199999V0200601N00211030001CN008000199+01981+01761999999ADDGA1041+006901081GA2031+030001031GE19AGL   +99999+99999GF107991041999006901999999KA1240M+03091KA2240N+01821MA1999999085411ME1315359REMSYN10264387 32558 70604 10198 20176 38541 48535 8423/ 333 01300 10309 20182 50574 58010 84823 83360 Q1022.3=
0171643870999992016010406004-01969+030139FM-15+148199999V0200601N00211030481CN008000199+02001+01801999999ADDGA1041+007011999GA2041+030481999GE19AGL   +99999+99999GF199999041999007011999999MA1102201999999REMMET064METAR HRYR 040600Z 06004KT 8000 SCT023 SCT100 20/18 Q1022 NOSIG=
0171643870999992016010406304-01969+030139FM-15+148199999V0200701N00211030481CN008000199+02201+01701999999ADDGA1041+007011999GA2041+030481999GE19AGL   +99999+99999GF199999041999007011999999MA1102201999999REMMET064METAR HRYR 040630Z 07004KT 8000 SCT023 SCT100 22/17 Q1022 NOSIG=
0171643870999992016010407004-01969+030139FM-15+148199999V0200401N00311030481CN009999199+02501+01801999999ADDGA1021+007621999GA2041+030481999GE19AGL   +99999+99999GF199999021999007621999999MA1102201999999REMMET064METAR HRYR 040700Z 04006KT 9999 FEW025 SCT100 25/18 Q1022 NOSIG=
0171643870999992016010407304-01969+030139FM-15+148199999V0200401N00311030481CN009999199+02601+01801999999ADDGA1021+007621999GA2041+030481999GE19AGL   +99999+99999GF199999021999007621999999MA1102201999999REMMET064METAR HRYR 040730Z 04006KT 9999 FEW025 SCT100 26/18 Q1022 NOSIG=
0148643870999992016010408004-01969+030139FM-15+148199999V0200601N004119999999N009999199+02601+01701999999ADDGA1041+007011999GE19AGL   +99999+99999GF199999041999007011999999MA1102201999999REMMET057METAR HRYR 040800Z 06008KT 9999 SCT023 26/17 Q1022 NOSIG=
0148643870999992016010408304-01969+030139FM-15+148199999V0200401N003119999999N009999199+02801+01801999999ADDGA1041+007011999GE19AGL   +99999+99999GF199999041999007011999999MA1102101999999REMMET057METAR HRYR 040830Z 04006KT 9999 SCT023 28/18 Q1021 NOSIG=
0148643870999992016010409004-01969+030139FM-15+148199999V0201301N001519999999N009999199+02701+01801999999ADDGA1041+007011999GE19AGL   +99999+99999GF199999041999007011999999MA1102101999999REMMET057METAR HRYR 040900Z 13003KT 9999 SCT023 27/18 Q1021 NOSIG=
0148643870999992016010409304-01969+030139FM-15+148199999V0200901N003119999999N009999199+02701+01801999999ADDGA1041+007011999GE19AGL   +99999+99999GF199999041999007011999999MA1102001999999REMMET057METAR HRYR 040930Z 09006KT 9999 SCT023 27/18 Q1020 NOSIG=
0148643870999992016010410004-01969+030139FM-15+148199999V0202601N003110070119N009999199+02701+01801999999ADDGA1071+007011999GE19AGL   +99999+99999GF199999071999007011999999MA1102001999999REMMET057METAR HRYR 041000Z 26006KT 9999 BKN023 27/18 Q1020 NOSIG=
0148643870999992016010410304-01969+030139FM-15+148199999V0200801N003110070119N009999199+02801+01701999999ADDGA1071+007011999GE19AGL   +99999+99999GF199999071999007011999999MA1101901999999REMMET057METAR HRYR 041030Z 08006KT 9999 BKN023 28/17 Q1019 NOSIG=
0148643870999992016010411004-01969+030139FM-15+148199999V0200701N004110070119N009999199+02801+01701999999ADDGA1071+007011999GE19AGL   +99999+99999GF199999071999007011999999MA1101901999999REMMET057METAR HRYR 041100Z 07008KT 9999 BKN023 28/17 Q1019 NOSIG=
0148643870999992016010411304-01969+030139FM-15+148199999V0203001N005110070119N009999199+02801+01701999999ADDGA1071+007011999GE19AGL   +99999+99999GF199999071999007011999999MA1101801999999REMMET057METAR HRYR 041130Z 30010KT 9999 BKN023 28/17 Q1018 NOSIG=
0202643870999992016010412004-01967+030117FM-12+149199999V0200401N005110069019N010000199+02861+01621999999ADDGA1051+006901081GA2999+999999031GE19AGL   +99999+99999GF106991051999006901999999MA1999999085021MD1999999+0091ME1314969REMSYN07264387 32560 60410 10286 20162 38502 48496 85230 333 58009 85823 Q1017.7=
0148643870999992016010412004-01969+030139FM-15+148199999V0200401N005110070119N009999199+02801+01701999999ADDGA1071+007011999GE19AGL   +99999+99999GF199999071999007011999999MA1101801999999REMMET057METAR HRYR 041200Z 04010KT 9999 BKN023 28/17 Q1018 NOSIG=
0148643870999992016010412304-01969+030139FM-15+148199999V0200501N002119999999N009999199+03001+01701999999ADDGA1041+007011999GE19AGL   +99999+99999GF199999041999007011999999MA1101701999999REMMET057METAR HRYR 041230Z 05004KT 9999 SCT023 30/17 Q1017 NOSIG=
0173643870999992016010413004-01969+030139FM-15+148199999V0200801N00511007621CN009999199+02901+01701999999ADDGA1021+007011091GA2041+007621999GE19AGL   +99999+99999GF199999021999007011999999MA1101701999999REMMET066METAR HRYR 041300Z 08010KT 9999 FEW023CB SCT025 29/17 Q1017 NOSIG=
0173643870999992016010413304-01969+030139FM-15+148199999V0200601N00671007621CN009999199+02901+01801999999ADDGA1021+007011091GA2041+007621999GE19AGL   +99999+99999GF199999021999007011999999MA1101701999999REMMET066METAR HRYR 041330Z 06013KT 9999 FEW023CB SCT025 29/18 Q1017 NOSIG=
0173643870999992016010414004-01969+030139FM-15+148199999V0200601N00411007621CN009999199+02901+01801999999ADDGA1021+007011091GA2041+007621999GE19AGL   +99999+99999GF199999021999007011999999MA1101601999999REMMET066METAR HRYR 041400Z 06008KT 9999 FEW023CB SCT025 29/18 Q1016 NOSIG=
0173643870999992016010414304-01969+030139FM-15+148199999V0200301N00411007621CN009999199+02901+01801999999ADDGA1021+007011091GA2041+007621999GE19AGL   +99999+99999GF199999021999007011999999MA1101701999999REMMET066METAR HRYR 041430Z 03008KT 9999 FEW023CB SCT025 29/18 Q1017 NOSIG=
0148643870999992016010415004-01969+030139FM-15+148199999V0200601N001519999999N009999199+02801+01701999999ADDGA1041+007621999GE19AGL   +99999+99999GF199999041999007621999999MA1101701999999REMMET057METAR HRYR 041500Z 06003KT 9999 SCT025 28/17 Q1017 NOSIG=
0148643870999992016010415304-01969+030139FM-15+148199999V0200501N003619999999N009999199+02801+01701999999ADDGA1041+007621999GE19AGL   +99999+99999GF199999041999007621999999MA1101701999999REMMET057METAR HRYR 041530Z 05007KT 9999 SCT025 28/17 Q1017 NOSIG=
0148643870999992016010416004-01969+030139FM-15+148199999V0200601N004119999999N009999199+02701+01601999999ADDGA1041+007921999GE19AGL   +99999+99999GF199999041999007921999999MA1101701999999REMMET057METAR HRYR 041600Z 06008KT 9999 SCT026 27/16 Q1017 NOSIG=
0148643870999992016010416304-01969+030139FM-15+148199999V0209999C000019999999N009999199+02601+01601999999ADDGA1021+007921999GE19AGL   +99999+99999GF199999021999007921999999MA1101801999999REMMET057METAR HRYR 041630Z 00000KT 9999 FEW026 26/16 Q1018 NOSIG=
0148643870999992016010417004-01969+030139FM-15+148199999V0209999C000019999999N009999199+02501+01601999999ADDGA1021+007921999GE19AGL   +99999+99999GF199999021999007921999999MA1101901999999REMMET057METAR HRYR 041700Z 00000KT 9999 FEW026 25/16 Q1019 NOSIG=
0148643870999992016010417304-01969+030139FM-15+148199999V0200401N002119999999N009999199+02501+01601999999ADDGA1021+007921999GE19AGL   +99999+99999GF199999021999007921999999MA1101901999999REMMET057METAR HRYR 041730Z 04004KT 9999 FEW026 25/16 Q1019 NOSIG=
0242643870999992016010418004-01967+030117FM-12+149199999V0200901N00211090001CN010000199+02511+01651999999ADDGA1021+007801061GA2041+090001001GA3999+999999001GE19AGL   +99999+99999GF106991021999007801999999KA1120M+03041MA1999999085171MD1999999+0121ME1315119REMSYN08364387 32560 60904 10251 20165 38517 48511 82532 333 10304 58012 82626 84080 1019.5=
0148643870999992016010418004-01969+030139FM-15+148199999V0200901N002119999999N009999199+02501+01701999999ADDGA1021+007921999GE19AGL   +99999+99999GF199999021999007921999999MA1102001999999REMMET057METAR HRYR 041800Z 09004KT 9999 FEW026 25/17 Q1020 NOSIG=
0148643870999992016010418304-01969+030139FM-15+148199999V0200601N001519999999N009999199+02501+01701999999ADDGA1021+007921999GE19AGL   +99999+99999GF199999021999007921999999MA1102001999999REMMET057METAR HRYR 041830Z 06003KT 9999 FEW026 25/17 Q1020 NOSIG=
0148643870999992016010419004-01969+030139FM-15+148199999V0200401N001519999999N009999199+02401+01701999999ADDGA1021+007921999GE19AGL   +99999+99999GF199999021999007921999999MA1102001999999REMMET057METAR HRYR 041900Z 04003KT 9999 FEW026 24/17 Q1020 NOSIG=
0148643870999992016010419304-01969+030139FM-15+148199999V0203601N001519999999N009999199+02301+01701999999ADDGA1021+007921999GE19AGL   +99999+99999GF199999021999007921999999MA1102001999999REMMET057METAR HRYR 041930Z 36003KT 9999 FEW026 23/17 Q1020 NOSIG=
0148643870999992016010420004-01969+030139FM-15+148199999V0209999C000019999999N009999199+02301+01701999999ADDGA1021+007921999GE19AGL   +99999+99999GF199999021999007921999999MA1102101999999REMMET057METAR HRYR 042000Z 00000KT 9999 FEW026 23/17 Q1021 NOSIG=
0148643870999992016010420304-01969+030139FM-15+148199999V0209999C000019999999N009999199+02201+01701999999ADDGA1021+007921999GE19AGL   +99999+99999GF199999021999007921999999MA1102101999999REMMET057METAR HRYR 042030Z 00000KT 9999 FEW026 22/17 Q1021 NOSIG=
0148643870999992016010421004-01969+030139FM-15+148199999V0209999C000019999999N009999199+02201+01701999999ADDGA1021+007921999GE19AGL   +99999+99999GF199999021999007921999999MA1102101999999REMMET057METAR HRYR 042100Z 00000KT 9999 FEW026 22/17 Q1021 NOSIG=
0148643870999992016010421304-01969+030139FM-15+148199999V0209999C000019999999N009999199+02201+01701999999ADDGA1021+007921999GE19AGL   +99999+99999GF199999021999007921999999MA1102101999999REMMET057METAR HRYR 042130Z 00000KT 9999 FEW026 22/17 Q1021 NOSIG=
0148643870999992016010422004-01969+030139FM-15+148199999V0203301N001519999999N009999199+02201+01701999999ADDGA1021+007921999GE19AGL   +99999+99999GF199999021999007921999999MA1102101999999REMMET057METAR HRYR 042200Z 33003KT 9999 FEW026 22/17 Q1021 NOSIG=
0148643870999992016010422304-01969+030139FM-15+148199999V0209999C000019999999N009999199+02201+01701999999ADDGA1021+007921999GE19AGL   +99999+99999GF199999021999007921999999MA1102101999999REMMET057METAR HRYR 042230Z 00000KT 9999 FEW026 22/17 Q1021 NOSIG=
0148643870999992016010423004-01969+030139FM-15+148199999V0201601N001519999999N009999199+02101+01701999999ADDGA1021+007921999GE19AGL   +99999+99999GF199999021999007921999999MA1102001999999REMMET057METAR HRYR 042300Z 16003KT 9999 FEW026 21/17 Q1020 NOSIG=
0148643870999992016010423304-01969+030139FM-15+148199999V0209999C000019999999N009999199+02101+01701999999ADDGA1021+007921999GE19AGL   +99999+99999GF199999021999007921999999MA1101901999999REMMET057METAR HRYR 042330Z 00000KT 9999 FEW026 21/17 Q1019 NOSIG=
0219643870999992016010500004-01967+030117FM-12+149199999V0200401N001519999999N010000199+02001+01721999999ADDGA1011+007801061GA2999+999999031GA3999+999999001GE19AGL   +99999+99999GF104991011999007801999999MA1999999085141MD1999999+0041ME1315089REMSYN07364387 32560 40403 10200 20172 38514 48508 81532 333 58004 81626 Q 1019.1=
0148643870999992016010500004-01969+030139FM-15+148199999V0209999C000019999999N009999199+02001+01701999999ADDGA1021+007921999GE19AGL   +99999+99999GF199999021999007921999999MA1101901999999REMMET057METAR HRYR 050000Z 00000KT 9999 FEW026 20/17 Q1019 NOSIG=
0148643870999992016010500304-01969+030139FM-15+148199999V0209999C000019999999N009999199+02001+01701999999ADDGA1021+007921999GE19AGL   +99999+99999GF199999021999007921999999MA1101901999999REMMET057METAR HRYR 050030Z 00000KT 9999 FEW026 20/17 Q1019 NOSIG=
0288643870999992016010506004-01967+030117FM-12+149199999V0202801N001510069019N010000199+01831+01831999999ADDAA124005031AY161021AY221021GA1051+006901081GA2051+030001031GE19AGL   +99999+99999GF107991051999006901999999KA1240M+03041KA2240N+01771MA1999999085481ME1315439MW1011REMSYN11364387 11560 72803 10183 20183 38548 48543 60054 70162 8523/ 333 01462 10304 20177 50544 58007 85823 85360 1023.0=
0170643870999992016010506004-01969+030139FM-15+148199999V0203101N002110070119N009999199+01801+01801999999ADDGA1071+007011999GA2081+027431999GE19AGL   +99999+99999GF199999071999007011999999MA1102301999999REMMET063METAR HRYR 050600Z 31004KT 9999 BKN023 OVC090 18/18 Q1023 RERA=
0171643870999992016010506304-01969+030139FM-15+148199999V0209999C000010070119N009999199+02001+02001999999ADDGA1071+007011999GA2071+030481999GE19AGL   +99999+99999GF199999071999007011999999MA1102301999999REMMET064METAR HRYR 050630Z 00000KT 9999 BKN023 BKN100 20/20 Q1023 NOSIG=
0171643870999992016010507004-01969+030139FM-15+148199999V0201801N001510304819N009999199+02101+02001999999ADDGA1041+007011999GA2071+030481999GE19AGL   +99999+99999GF199999041999007011999999MA1102301999999REMMET064METAR HRYR 050700Z 18003KT 9999 SCT023 BKN100 21/20 Q1023 NOSIG=
0171643870999992016010507304-01969+030139FM-15+148199999V0202401N00151091441CN009999199+02301+01901999999ADDGA1021+006101999GA2041+091441999GE19AGL   +99999+99999GF199999021999006101999999MA1102301999999REMMET064METAR HRYR 050730Z 24003KT 9999 FEW020 SCT300 23/19 Q1023 NOSIG=
0171643870999992016010508304-01969+030139FM-15+148199999V0202301N00151091441CN009999199+02501+01901999999ADDGA1041+006101999GA2041+091441999GE19AGL   +99999+99999GF199999041999006101999999MA1102201999999REMMET064METAR HRYR 050830Z 23003KT 9999 SCT020 SCT300 25/19 Q1022 NOSIG=
0148643870999992016010509004-01969+030139FM-15+148199999V0201901N001510070119N009999199+02601+01901999999ADDGA1071+007011999GE19AGL   +99999+99999GF199999071999007011999999MA1102101999999REMMET057METAR HRYR 050900Z 19003KT 9999 BKN023 26/19 Q1021 NOSIG=
0148643870999992016010509304-01969+030139FM-15+148199999V0201501N001510070119N009999199+02701+02001999999ADDGA1071+007011999GE19AGL   +99999+99999GF199999071999007011999999MA1102101999999REMMET057METAR HRYR 050930Z 15003KT 9999 BKN023 27/20 Q1021 NOSIG=
0148643870999992016010510004-01969+030139FM-15+148199999V0201201N001519999999N009999199+02701+02001999999ADDGA1041+007621999GE19AGL   +99999+99999GF199999041999007621999999MA1102001999999REMMET057METAR HRYR 051000Z 12003KT 9999 SCT025 27/20 Q1020 NOSIG=
0148643870999992016010510304-01969+030139FM-15+148199999V0201901N002119999999N009999199+02701+02001999999ADDGA1041+007621999GE19AGL   +99999+99999GF199999041999007621999999MA1102001999999REMMET057METAR HRYR 051030Z 19004KT 9999 SCT025 27/20 Q1020 NOSIG=
0148643870999992016010511004-01969+030139FM-15+148199999V0201701N002619999999N009999199+02801+02001999999ADDGA1041+007621999GE19AGL   +99999+99999GF199999041999007621999999MA1101901999999REMMET057METAR HRYR 051100Z 17005KT 9999 SCT025 28/20 Q1019 NOSIG=
0148643870999992016010511304-01969+030139FM-15+148199999V0201301N001519999999N009999199+02901+01901999999ADDGA1041+007621999GE19AGL   +99999+99999GF199999041999007621999999MA1101801999999REMMET057METAR HRYR 051130Z 13003KT 9999 SCT025 29/19 Q1018 NOSIG=
0201643870999992016010512004-01967+030117FM-12+149199999V0201301N003619999999N010000199+02851+01831999999ADDGA1041+007501081GA2999+999999001GE19AGL   +99999+99999GF106991041999007501999999MA1999999085041MD1999999+0021ME1314989REMSYN07164387 32560 61307 10285 20183 38504 48498 84202 333 58002 84825 1017.9=
0148643870999992016010512004-01969+030139FM-15+148199999V0201301N003619999999N009999199+02901+01901999999ADDGA1041+007621999GE19AGL   +99999+99999GF199999041999007621999999MA1101801999999REMMET057METAR HRYR 051200Z 13007KT 9999 SCT025 29/19 Q1018 NOSIG=
0148643870999992016010512304-01969+030139FM-15+148199999V0201201N004619999999N009999199+02901+01701999999ADDGA1041+007621999GE19AGL   +99999+99999GF199999041999007621999999MA1101801999999REMMET057METAR HRYR 051230Z 12009KT 9999 SCT025 29/17 Q1018 NOSIG=
0148643870999992016010513004-01969+030139FM-15+148199999V0201001N003119999999N009999199+02901+01801999999ADDGA1041+007621999GE19AGL   +99999+99999GF199999041999007621999999MA1101701999999REMMET057METAR HRYR 051300Z 10006KT 9999 SCT025 29/18 Q1017 NOSIG=
0148643870999992016010513304-01969+030139FM-15+148199999V0201601N002119999999N009999199+03001+01801999999ADDGA1041+007621999GE19AGL   +99999+99999GF199999041999007621999999MA1101701999999REMMET057METAR HRYR 051330Z 16004KT 9999 SCT025 30/18 Q1017 NOSIG=
0148643870999992016010514004-01969+030139FM-15+148199999V0201101N001519999999N009999199+03001+01801999999ADDGA1041+007621999GE19AGL   +99999+99999GF199999041999007621999999MA1101701999999REMMET057METAR HRYR 051400Z 11003KT 9999 SCT025 30/18 Q1017 NOSIG=
0148643870999992016010514304-01969+030139FM-15+148199999V0201001N004619999999N009999199+03001+01801999999ADDGA1041+007621999GE19AGL   +99999+99999GF199999041999007621999999MA1101701999999REMMET057METAR HRYR 051430Z 10009KT 9999 SCT025 30/18 Q1017 NOSIG=
0173643870999992016010515004-01969+030139FM-15+148199999V0200201N003610076219N009999199+02401+02101999999ADDGA1021+007011091GA2071+007621999GE19AGL   +99999+99999GF199999021999007011999999MA1101801999999REMMET066METAR HRYR 051500Z 02007KT 9999 FEW023CB BKN025 24/21 Q1018 NOSIG=
0173643870999992016010515304-01969+030139FM-15+148199999V0203101N003110076219N009999199+02301+02001999999ADDGA1021+007011091GA2071+007621999GE19AGL   +99999+99999GF199999021999007011999999MA1101801999999REMMET066METAR HRYR 051530Z 31006KT 9999 FEW023CB BKN025 23/20 Q1018 NOSIG=
0173643870999992016010516004-01969+030139FM-15+148199999V0203201N00211007621CN009999199+02201+02001999999ADDGA1021+007011091GA2041+007621999GE19AGL   +99999+99999GF199999021999007011999999MA1101901999999REMMET066METAR HRYR 051600Z 32004KT 9999 FEW023CB SCT025 22/20 Q1019 NOSIG=
0173643870999992016010516304-01969+030139FM-15+148199999V0203601N00261007621CN009999199+02201+02001999999ADDGA1021+007011091GA2041+007621999GE19AGL   +99999+99999GF199999021999007011999999MA1101901999999REMMET066METAR HRYR 051630Z 36005KT 9999 FEW023CB SCT025 22/20 Q1019 NOSIG=
0148643870999992016010517004-01969+030139FM-15+148199999V0203601N002119999999N009999199+02201+01901999999ADDGA1041+007621999GE19AGL   +99999+99999GF199999041999007621999999MA1101901999999REMMET057METAR HRYR 051700Z 36004KT 9999 SCT025 22/19 Q1019 NOSIG=
0148643870999992016010517304-01969+030139FM-15+148199999V0203401N003119999999N009999199+02201+01901999999ADDGA1041+007621999GE19AGL   +99999+99999GF199999041999007621999999MA1101901999999REMMET057METAR HRYR 051730Z 34006KT 9999 SCT025 22/19 Q1019 NOSIG=
0221643870999992016010518004-01967+030117FM-12+149199999V0203501N002119999999N010000199+02141+01911999999ADDGA1031+007501081GA2999+999999031GE19AGL   +99999+99999GF105991031999007501999999KA1120M+03001MA1999999085211MD1999999-0041ME1315159REMSYN07864387 32560 53504 10214 20191 38521 48515 83230 333 10300 59004 83825 Q1020.1=
0148643870999992016010518004-01969+030139FM-15+148199999V0203501N002119999999N009999199+02101+01901999999ADDGA1041+007621999GE19AGL   +99999+99999GF199999041999007621999999MA1102001999999REMMET057METAR HRYR 051800Z 35004KT 9999 SCT025 21/19 Q1020 NOSIG=
0148643870999992016010518304-01969+030139FM-15+148199999V0202401N001519999999N009999199+02101+01901999999ADDGA1041+007621999GE19AGL   +99999+99999GF199999041999007621999999MA1102001999999REMMET057METAR HRYR 051830Z 24003KT 9999 SCT025 21/19 Q1020 NOSIG=
0148643870999992016010519304-01969+030139FM-15+148199999V0203201N002619999999N009999199+02101+01901999999ADDGA1021+007621999GE19AGL   +99999+99999GF199999021999007621999999MA1102101999999REMMET057METAR HRYR 051930Z 32005KT 9999 FEW025 21/19 Q1021 NOSIG=
0148643870999992016010520004-01969+030139FM-15+148199999V0203201N002619999999N009999199+02001+02001999999ADDGA1021+007621999GE19AGL   +99999+99999GF199999021999007621999999MA1102101999999REMMET057METAR HRYR 052000Z 32005KT 9999 FEW025 20/20 Q1021 NOSIG=
0148643870999992016010520304-01969+030139FM-15+148199999V0203301N003119999999N009999199+02001+01901999999ADDGA1021+007621999GE19AGL   +99999+99999GF199999021999007621999999MA1102101999999REMMET057METAR HRYR 052030Z 33006KT 9999 FEW025 20/19 Q1021 NOSIG=
0148643870999992016010521004-01969+030139FM-15+148199999V0203501N002619999999N009999199+02001+01901999999ADDGA1021+007621999GE19AGL   +99999+99999GF199999021999007621999999MA1102101999999REMMET057METAR HRYR 052100Z 35005KT 9999 FEW025 20/19 Q1021 NOSIG=
0148643870999992016010521304-01969+030139FM-15+148199999V0203401N001519999999N009999199+02001+01901999999ADDGA1021+007621999GE19AGL   +99999+99999GF199999021999007621999999MA1102001999999REMMET057METAR HRYR 052130Z 34003KT 9999 FEW025 20/19 Q1020 NOSIG=
0148643870999992016010522004-01969+030139FM-15+148199999V0202701N002619999999N009999199+01901+01901999999ADDGA1021+007621999GE19AGL   +99999+99999GF199999021999007621999999MA1102001999999REMMET057METAR HRYR 052200Z 27005KT 9999 FEW025 19/19 Q1020 NOSIG=
0148643870999992016010522304-01969+030139FM-15+148199999V0202801N001519999999N009999199+01901+01901999999ADDGA1021+007921999GE19AGL   +99999+99999GF199999021999007921999999MA1102001999999REMMET057METAR HRYR 052230Z 28003KT 9999 FEW026 19/19 Q1020 NOSIG=
0148643870999992016010523004-01969+030139FM-15+148199999V0202501N001519999999N009999199+01901+01901999999ADDGA1021+007921999GE19AGL   +99999+99999GF199999021999007921999999MA1102001999999REMMET057METAR HRYR 052300Z 25003KT 9999 FEW026 19/19 Q1020 NOSIG=
0203643870999992016010600004-01967+030117FM-12+149199999V0202701N001519999999N010000199+01841+01841999999ADDGA1011+007801061GA2999+999999031GE19AGL   +99999+99999GF103991011999007801999999MA1999999085131MD1999999-0011ME1315079REMSYN07364387 32560 32703 10184 20184 38513 48507 81530 333 59001 81626 Q1018.39=
0148643870999992016010600004-01969+030139FM-15+148199999V0202701N001519999999N009999199+01801+01801999999ADDGA1021+007921999GE19AGL   +99999+99999GF199999021999007921999999MA1101901999999REMMET057METAR HRYR 060000Z 27003KT 9999 FEW026 18/18 Q1019 NOSIG=
0148643870999992016010600304-01969+030139FM-15+148199999V0209999C000019999999N009999199+01801+01801999999ADDGA1021+007921999GE19AGL   +99999+99999GF199999021999007921999999MA1101901999999REMMET057METAR HRYR 060030Z 00000KT 9999 FEW026 18/18 Q1019 NOSIG=
0148643870999992016010601004-01969+030139FM-15+148199999V0209999C000019999999N009999199+01801+01801999999ADDGA1021+007921999GE19AGL   +99999+99999GF199999021999007921999999MA1101901999999REMMET057METAR HRYR 060100Z 00000KT 9999 FEW026 18/18 Q1019 NOSIG=
0148643870999992016010601304-01969+030139FM-15+148199999V0202301N002119999999N009999199+01801+01801999999ADDGA1041+007621999GE19AGL   +99999+99999GF199999041999007621999999MA1101901999999REMMET057METAR HRYR 060130Z 23004KT 9999 SCT025 18/18 Q1019 NOSIG=
0148643870999992016010602004-01969+030139FM-15+148199999V0201901N002119999999N009999199+01901+01901999999ADDGA1041+007621999GE19AGL   +99999+99999GF199999041999007621999999MA1102001999999REMMET057METAR HRYR 060200Z 19004KT 9999 SCT025 19/19 Q1020 NOSIG=
0148643870999992016010602304-01969+030139FM-15+148199999V0201901N002119999999N009999199+01901+01901999999ADDGA1041+007621999GE19AGL   +99999+99999GF199999041999007621999999MA1102001999999REMMET057METAR HRYR 060230Z 19004KT 9999 SCT025 19/19 Q1020 NOSIG=
0147643870999992016010603004-01969+030139FM-15+148199999V0201801N002119999999N008000199+01801+01801999999ADDGA1041+007621999GE19AGL   +99999+99999GF199999041999007621999999MA1101901999999REMMET056METAR HRYR 060300Z 18004KT 8000 SCT025 18/18 Q1019 RERA=
0147643870999992016010603304-01969+030139FM-15+148199999V0201801N002119999999N008000199+01801+01801999999ADDGA1041+007621999GE19AGL   +99999+99999GF199999041999007621999999MA1102001999999REMMET056METAR HRYR 060330Z 18004KT 8000 SCT025 18/18 Q1020 RERA=
0148643870999992016010604004-01969+030139FM-15+148199999V0202001N002110076219N009999199+01801+01801999999ADDGA1071+007621999GE19AGL   +99999+99999GF199999071999007621999999MA1102101999999REMMET057METAR HRYR 060400Z 20004KT 9999 BKN025 18/18 Q1021 NOSIG=
0171643870999992016010604304-01969+030139FM-15+148199999V0202001N00211030481CN009999199+01901+01901999999ADDGA1041+007621999GA2041+030481999GE19AGL   +99999+99999GF199999041999007621999999MA1102101999999REMMET064METAR HRYR 060430Z 20004KT 9999 SCT025 SCT100 19/19 Q1021 NOSIG=
0171643870999992016010605004-01969+030139FM-15+148199999V0202901N00211030481CN009999199+01901+01901999999ADDGA1041+007621999GA2041+030481999GE19AGL   +99999+99999GF199999041999007621999999MA1102101999999REMMET064METAR HRYR 060500Z 29004KT 9999 SCT025 SCT100 19/19 Q1021 NOSIG=
0171643870999992016010605304-01969+030139FM-15+148199999V0202201N00211030481CN009999199+01901+01901999999ADDGA1041+007621999GA2041+030481999GE19AGL   +99999+99999GF199999041999007621999999MA1102101999999REMMET064METAR HRYR 060530Z 22004KT 9999 SCT025 SCT100 19/19 Q1021 NOSIG=
0280643870999992016010606004-01967+030117FM-12+149199999V0209999C00001030001CN010000199+02131+01901999999ADDAA124000091GA1031+007501081GA2031+030001031GE19AGL   +99999+99999GF106991031999007501999999KA1240M+03001KA2240N+01811MA1999999085351ME1315299REMSYN10864387 12560 60000 10213 20190 38535 48529 69904 83230 333 01414 10300 20181 50324 59013 83825 83360 Q1021.1=EQDQ01  00002PRCP24
0171643870999992016010606004-01969+030139FM-15+148199999V0209999C00001030481CN009999199+02101+01901999999ADDGA1041+007621999GA2041+030481999GE19AGL   +99999+99999GF199999041999007621999999MA1102201999999REMMET064METAR HRYR 060600Z 00000KT 9999 SCT025 SCT100 21/19 Q1022 NOSIG=
0171643870999992016010606304-01969+030139FM-15+148199999V0209999C00001030481CN009999199+02201+02001999999ADDGA1041+007621999GA2041+030481999GE19AGL   +99999+99999GF199999041999007621999999MA1102201999999REMMET064METAR HRYR 060630Z 00000KT 9999 SCT025 SCT100 22/20 Q1022 NOSIG=
0171643870999992016010607004-01969+030139FM-15+148199999V0209999C000010076219N009999199+02301+02001999999ADDGA1071+007621999GA2041+030481999GE19AGL   +99999+99999GF199999071999007621999999MA1102201999999REMMET064METAR HRYR 060700Z 00000KT 9999 BKN025 SCT100 23/20 Q1022 NOSIG=
0171643870999992016010607304-01969+030139FM-15+148199999V0209999C000010076219N009999199+02401+01901999999ADDGA1071+007621999GA2041+030481999GE19AGL   +99999+99999GF199999071999007621999999MA1102201999999REMMET064METAR HRYR 060730Z 00000KT 9999 BKN025 SCT100 24/19 Q1022 NOSIG=
0171643870999992016010608004-01969+030139FM-15+148199999V0209999C000010076219N009999199+02601+02001999999ADDGA1071+007621999GA2041+030481999GE19AGL   +99999+99999GF199999071999007621999999MA1102201999999REMMET064METAR HRYR 060800Z 00000KT 9999 BKN025 SCT100 26/20 Q1022 NOSIG=
0148643870999992016010608304-01969+030139FM-15+148199999V0200901N002619999999N009999199+02601+01801999999ADDGA1041+007621999GE19AGL   +99999+99999GF199999041999007621999999MA1102101999999REMMET057METAR HRYR 060830Z 09005KT 9999 SCT025 26/18 Q1021 NOSIG=
0148643870999992016010609004-01969+030139FM-15+148199999V0201301N002119999999N009999199+02701+01901999999ADDGA1041+007621999GE19AGL   +99999+99999GF199999041999007621999999MA1102101999999REMMET057METAR HRYR 060900Z 13004KT 9999 SCT025 27/19 Q1021 NOSIG=
0148643870999992016010609304-01969+030139FM-15+148199999V0200401N003619999999N009999199+02701+01801999999ADDGA1041+007621999GE19AGL   +99999+99999GF199999041999007621999999MA1102101999999REMMET057METAR HRYR 060930Z 04007KT 9999 SCT025 27/18 Q1021 NOSIG=
0148643870999992016010610004-01969+030139FM-15+148199999V0200401N004119999999N009999199+02801+01801999999ADDGA1041+007621999GE19AGL   +99999+99999GF199999041999007621999999MA1102001999999REMMET057METAR HRYR 061000Z 04008KT 9999 SCT025 28/18 Q1020 NOSIG=
0148643870999992016010610304-01969+030139FM-15+148199999V0200201N004119999999N009999199+03001+01801999999ADDGA1041+007621999GE19AGL   +99999+99999GF199999041999007621999999MA1102001999999REMMET057METAR HRYR 061030Z 02008KT 9999 SCT025 30/18 Q1020 NOSIG=
0148643870999992016010611004-01969+030139FM-15+148199999V0200401N004119999999N009999199+03001+01901999999ADDGA1041+007621999GE19AGL   +99999+99999GF199999041999007621999999MA1101901999999REMMET057METAR HRYR 061100Z 04008KT 9999 SCT025 30/19 Q1019 NOSIG=
0148643870999992016010611304-01969+030139FM-15+148199999V0200401N003619999999N009999199+03001+01901999999ADDGA1041+007621999GE19AGL   +99999+99999GF199999041999007621999999MA1101801999999REMMET057METAR HRYR 061130Z 04007KT 9999 SCT025 30/19 Q1018 NOSIG=
0201643870999992016010612004-01967+030117FM-12+149199999V0200401N002619999999N010000199+03001+01641999999ADDGA1041+007501081GA2999+999999031GE19AGL   +99999+99999GF105991041999007501999999MA1999999085031MD1999999-0011ME1314979REMSYN07164387 32560 50405 10300 20164 38503 48497 84230 333 59001 84825 1017.8=
0151643870999992016010612004-01969+030139FM-15+148199999V0200401N002619999999N009999199+03001+01701999999ADDGA1041+007621081GE19AGL   +99999+99999GF199999041999007621999999MA1101801999999REMMET060METAR HRYR 061200Z 04005KT 9999 SCT025TCU 30/17 Q1018 NOSIG=
0151643870999992016010612304-01969+030139FM-15+148199999V0200901N003619999999N009999199+03001+01701999999ADDGA1041+007621081GE19AGL   +99999+99999GF199999041999007621999999MA1101701999999REMMET060METAR HRYR 061230Z 09007KT 9999 SCT025TCU 30/17 Q1017 NOSIG=
0151643870999992016010613004-01969+030139FM-15+148199999V0200401N003619999999N009999199+03101+01701999999ADDGA1041+007621081GE19AGL   +99999+99999GF199999041999007621999999MA1101601999999REMMET060METAR HRYR 061300Z 04007KT 9999 SCT025TCU 31/17 Q1016 NOSIG=
0151643870999992016010613304-01969+030139FM-15+148199999V0200301N002119999999N009999199+03101+01701999999ADDGA1041+007621081GE19AGL   +99999+99999GF199999041999007621999999MA1101601999999REMMET060METAR HRYR 061330Z 03004KT 9999 SCT025TCU 31/17 Q1016 NOSIG=
0151643870999992016010614004-01969+030139FM-15+148199999V0200501N003619999999N009999199+03101+01701999999ADDGA1041+007621081GE19AGL   +99999+99999GF199999041999007621999999MA1101601999999REMMET060METAR HRYR 061400Z 05007KT 9999 SCT025TCU 31/17 Q1016 NOSIG=
0151643870999992016010614304-01969+030139FM-15+148199999V0200601N003619999999N009999199+02901+01701999999ADDGA1041+007621081GE19AGL   +99999+99999GF199999041999007621999999MA1101601999999REMMET060METAR HRYR 061430Z 06007KT 9999 SCT025TCU 29/17 Q1016 NOSIG=
0173643870999992016010615004-01969+030139FM-15+148199999V0200201N00261007621CN009999199+03001+01701999999ADDGA1021+007011091GA2041+007621999GE19AGL   +99999+99999GF199999021999007011999999MA1101601999999REMMET066METAR HRYR 061500Z 02005KT 9999 FEW023CB SCT025 30/17 Q1016 NOSIG=
0173643870999992016010615304-01969+030139FM-15+148199999V0200201N00411007621CN009999199+02901+01701999999ADDGA1021+007011091GA2041+007621999GE19AGL   +99999+99999GF199999021999007011999999MA1101601999999REMMET066METAR HRYR 061530Z 02008KT 9999 FEW023CB SCT025 29/17 Q1016 NOSIG=
0173643870999992016010616004-01969+030139FM-15+148199999V0200401N00311007621CN009999199+02701+01701999999ADDGA1021+007011091GA2041+007621999GE19AGL   +99999+99999GF199999021999007011999999MA1101701999999REMMET066METAR HRYR 061600Z 04006KT 9999 FEW023CB SCT025 27/17 Q1017 NOSIG=
0173643870999992016010616304-01969+030139FM-15+148199999V0200201N00211007621CN009999199+02601+01701999999ADDGA1021+007011091GA2041+007621999GE19AGL   +99999+99999GF199999021999007011999999MA1101701999999REMMET066METAR HRYR 061630Z 02004KT 9999 FEW023CB SCT025 26/17 Q1017 NOSIG=
0148643870999992016010617004-01969+030139FM-15+148199999V0200201N002119999999N009999199+02501+01701999999ADDGA1041+007621999GE19AGL   +99999+99999GF199999041999007621999999MA1101801999999REMMET057METAR HRYR 061700Z 02004KT 9999 SCT025 25/17 Q1018 NOSIG=
0148643870999992016010617304-01969+030139FM-15+148199999V0200101N002119999999N009999199+02501+01701999999ADDGA1041+007621999GE19AGL   +99999+99999GF199999041999007621999999MA1101801999999REMMET057METAR HRYR 061730Z 01004KT 9999 SCT025 25/17 Q1018 NOSIG=
0226643870999992016010618004-01967+030117FM-12+149199999V0203601N00151030001CN010000199+02431+01711999999ADDGA1021+007501081GA2031+030001031GE19AGL   +99999+99999GF105991021999007501999999KA1120M+03101MA1999999085121MD1999999-0091ME1315069REMSYN08364387 32560 53603 10243 20171 38512 48506 82230 333 10310 59009 82825 83360 1018.9=
0171643870999992016010618004-01969+030139FM-15+148199999V0203601N00151030481CN009999199+02401+01701999999ADDGA1021+007621999GA2041+030481999GE19AGL   +99999+99999GF199999021999007621999999MA1101901999999REMMET064METAR HRYR 061800Z 36003KT 9999 FEW025 SCT100 24/17 Q1019 NOSIG=
0171643870999992016010618304-01969+030139FM-15+148199999V0200101N00311030481CN009999199+02401+01701999999ADDGA1021+007621999GA2041+030481999GE19AGL   +99999+99999GF199999021999007621999999MA1101901999999REMMET064METAR HRYR 061830Z 01006KT 9999 FEW025 SCT100 24/17 Q1019 NOSIG=
0171643870999992016010619004-01969+030139FM-15+148199999V0200101N00211030481CN009999199+02401+01701999999ADDGA1021+007621999GA2041+030481999GE19AGL   +99999+99999GF199999021999007621999999MA1101901999999REMMET064METAR HRYR 061900Z 01004KT 9999 FEW025 SCT100 24/17 Q1019 NOSIG=
0171643870999992016010619304-01969+030139FM-15+148199999V0209999C00001030481CN009999199+02601+01701999999ADDGA1021+007621999GA2041+030481999GE19AGL   +99999+99999GF199999021999007621999999MA1102001999999REMMET064METAR HRYR 061930Z 00000KT 9999 FEW025 SCT100 26/17 Q1020 NOSIG=
0171643870999992016010620004-01969+030139FM-15+148199999V0203301N00151030481CN009999199+02301+01701999999ADDGA1021+007921999GA2041+030481999GE19AGL   +99999+99999GF199999021999007921999999MA1102001999999REMMET064METAR HRYR 062000Z 33003KT 9999 FEW026 SCT100 23/17 Q1020 NOSIG=
0171643870999992016010620304-01969+030139FM-15+148199999V0203601N00151030481CN009999199+02301+01701999999ADDGA1021+007921999GA2041+030481999GE19AGL   +99999+99999GF199999021999007921999999MA1102001999999REMMET064METAR HRYR 062030Z 36003KT 9999 FEW026 SCT100 23/17 Q1020 NOSIG=
0171643870999992016010621004-01969+030139FM-15+148199999V0209999C00001030481CN009999199+02201+01701999999ADDGA1021+007921999GA2041+030481999GE19AGL   +99999+99999GF199999021999007921999999MA1102101999999REMMET064METAR HRYR 062100Z 00000KT 9999 FEW026 SCT100 22/17 Q1021 NOSIG=
0171643870999992016010621304-01969+030139FM-15+148199999V0200801N00151030481CN009999199+02301+01701999999ADDGA1041+007921999GA2041+030481999GE19AGL   +99999+99999GF199999041999007921999999MA1102101999999REMMET064METAR HRYR 062130Z 08003KT 9999 SCT026 SCT100 23/17 Q1021 NOSIG=
0171643870999992016010622004-01969+030139FM-15+148199999V0209999C00001030481CN009999199+02201+01701999999ADDGA1041+007921999GA2041+030481999GE19AGL   +99999+99999GF199999041999007921999999MA1102001999999REMMET064METAR HRYR 062200Z 00000KT 9999 SCT026 SCT100 22/17 Q1020 NOSIG=
0171643870999992016010622304-01969+030139FM-15+148199999V0209999C00001030481CN009999199+02101+01801999999ADDGA1021+007921999GA2041+030481999GE19AGL   +99999+99999GF199999021999007921999999MA1102001999999REMMET064METAR HRYR 062230Z 00000KT 9999 FEW026 SCT100 21/18 Q1020 NOSIG=
0171643870999992016010623004-01969+030139FM-15+148199999V0203201N00151030481CN009999199+02101+01701999999ADDGA1021+007921999GA2041+030481999GE19AGL   +99999+99999GF199999021999007921999999MA1102001999999REMMET064METAR HRYR 062300Z 32003KT 9999 FEW026 SCT100 21/17 Q1020 NOSIG=
0171643870999992016010623304-01969+030139FM-15+148199999V0203301N00151030481CN009999199+02101+01701999999ADDGA1021+007921999GA2041+030481999GE19AGL   +99999+99999GF199999021999007921999999MA1102001999999REMMET064METAR HRYR 062330Z 33003KT 9999 FEW026 SCT100 21/17 Q1020 NOSIG=
0207643870999992016010700004-01967+030117FM-12+149199999V0203201N00151030001CN010000199+02041+01721999999ADDGA1021+007801061GA2031+030001031GE19AGL   +99999+99999GF105991021999007801999999MA1999999085161MD1999999+0031ME1315109REMSYN07764387 32560 53203 10204 20172 38516 48510 82530 333 58003 82626 83360 1019.4=
0171643870999992016010700004-01969+030139FM-15+148199999V0203201N00151030481CN009999199+02001+01701999999ADDGA1021+007921999GA2041+030481999GE19AGL   +99999+99999GF199999021999007921999999MA1102001999999REMMET064METAR HRYR 070000Z 32003KT 9999 FEW026 SCT100 20/17 Q1020 NOSIG=
0171643870999992016010700304-01969+030139FM-15+148199999V0202701N00151030481CN009999199+02001+01801999999ADDGA1021+007921999GA2041+030481999GE19AGL   +99999+99999GF199999021999007921999999MA1101901999999REMMET064METAR HRYR 070030Z 27003KT 9999 FEW026 SCT100 20/18 Q1019 NOSIG=
0222643870999992016010701004-01967+030117FM-12+149199999V0203001N003010075019N010000199+99999+01781999999ADDGA1051+007501081GA2999+999999031GE19AGL   +99999+99999GF107991051999007501999999MA1999999085171MD1999999+0141ME1315119REMSYN07364387 32560 73003 10283 20178 38517 48511 8523/ 333 58014 85825 Q 1019.5=EQDQ0128.3  3ATOT  
0171643870999992016010701004-01969+030139FM-15+148199999V0209999C00001030481CN009999199+02001+01701999999ADDGA1021+007921999GA2041+030481999GE19AGL   +99999+99999GF199999021999007921999999MA1101901999999REMMET064METAR HRYR 070100Z 00000KT 9999 FEW026 SCT100 20/17 Q1019 NOSIG=
0171643870999992016010701304-01969+030139FM-15+148199999V0203001N00151030481CN009999199+01901+01701999999ADDGA1021+007921999GA2041+030481999GE19AGL   +99999+99999GF199999021999007921999999MA1101901999999REMMET064METAR HRYR 070130Z 30003KT 9999 FEW026 SCT100 19/17 Q1019 NOSIG=
0171643870999992016010702004-01969+030139FM-15+148199999V0209999C00001030481CN009999199+01901+01701999999ADDGA1021+007921999GA2041+030481999GE19AGL   +99999+99999GF199999021999007921999999MA1102001999999REMMET064METAR HRYR 070200Z 00000KT 9999 FEW026 SCT100 19/17 Q1020 NOSIG=
0171643870999992016010702304-01969+030139FM-15+148199999V0209999C00001030481CN009999199+01901+01701999999ADDGA1021+007921999GA2041+030481999GE19AGL   +99999+99999GF199999021999007921999999MA1102001999999REMMET064METAR HRYR 070230Z 00000KT 9999 FEW026 SCT100 19/17 Q1020 NOSIG=
0201643870999992016010703004-01967+030117FM-12+149199999V0209999C000019999999N010000199+01861+01741999999ADDGA1021+007801061GA2999+999999031GE19AGL   +99999+99999GF104991021999007801999999MA1999999085221MD1999999+0071ME1315169REMSYN07164387 32560 40000 10186 20174 38522 48516 82530 333 58007 82626 1020.1=
0148643870999992016010703004-01969+030139FM-15+148199999V0209999C000019999999N009999199+01901+01801999999ADDGA1021+007921999GE19AGL   +99999+99999GF199999021999007921999999MA1102001999999REMMET057METAR HRYR 070300Z 00000KT 9999 FEW026 19/18 Q1020 NOSIG=
0148643870999992016010703304-01969+030139FM-15+148199999V0201901N001519999999N009999199+01801+01801999999ADDGA1021+007921999GE19AGL   +99999+99999GF199999021999007921999999MA1102001999999REMMET057METAR HRYR 070330Z 19003KT 9999 FEW026 18/18 Q1020 NOSIG=
0148643870999992016010704004-01969+030139FM-15+148199999V0209999C000019999999N009999199+01801+01801999999ADDGA1041+007621999GE19AGL   +99999+99999GF199999041999007621999999MA1102101999999REMMET057METAR HRYR 070400Z 00000KT 9999 SCT025 18/18 Q1021 NOSIG=
0148643870999992016010704304-01969+030139FM-15+148199999V0209999C000019999999N009999199+01801+01801999999ADDGA1041+007621999GE19AGL   +99999+99999GF199999041999007621999999MA1102101999999REMMET057METAR HRYR 070430Z 00000KT 9999 SCT025 18/18 Q1021 NOSIG=
0148643870999992016010705004-01969+030139FM-15+148199999V0209999C000010076219N009999199+01901+01801999999ADDGA1071+007621999GE19AGL   +99999+99999GF199999071999007621999999MA1102201999999REMMET057METAR HRYR 070500Z 00000KT 9999 BKN025 19/18 Q1022 NOSIG=
0148643870999992016010705304-01969+030139FM-15+148199999V0209999C000019999999N009999199+02001+01901999999ADDGA1041+007621999GE19AGL   +99999+99999GF199999041999007621999999MA1102201999999REMMET057METAR HRYR 070530Z 00000KT 9999 SCT025 20/19 Q1022 NOSIG=
0259643870999992016010706004-01967+030117FM-12+149199999V0201801N00151030001CN010000199+02121+01861999999ADDGA1031+007501081GA2031+030001031GA3999+999999001GE19AGL   +99999+99999GF107991031999007501999999KA1240M+03101KA2240N+01781MA1999999084541ME1315409REMSYN10164387 32560 71803 10212 20186 38454 48540 83232 333 01300 10310 20178 50484 58010 83825 83360 1021.6=
0171643870999992016010706004-01969+030139FM-15+148199999V0201801N00151030481CN009999199+02201+01801999999ADDGA1041+007621999GA2041+030481999GE19AGL   +99999+99999GF199999041999007621999999MA1102301999999REMMET064METAR HRYR 070600Z 18003KT 9999 SCT025 SCT100 22/18 Q1023 NOSIG=
0148643870999992016010706304-01969+030139FM-15+148199999V0201901N001519999999N009999199+02301+01801999999ADDGA1021+007621999GE19AGL   +99999+99999GF199999021999007621999999MA1102301999999REMMET057METAR HRYR 070630Z 19003KT 9999 FEW025 23/18 Q1023 NOSIG=
0148643870999992016010707004-01969+030139FM-15+148199999V0201801N002119999999N009999199+02401+01901999999ADDGA1021+007621999GE19AGL   +99999+99999GF199999021999007621999999MA1102301999999REMMET057METAR HRYR 070700Z 18004KT 9999 FEW025 24/19 Q1023 NOSIG=
0148643870999992016010707304-01969+030139FM-15+148199999V0201701N002119999999N009999199+02601+01901999999ADDGA1021+007621999GE19AGL   +99999+99999GF199999021999007621999999MA1102301999999REMMET057METAR HRYR 070730Z 17004KT 9999 FEW025 26/19 Q1023 NOSIG=
0148643870999992016010708004-01969+030139FM-15+148199999V0209999C000019999999N009999199+02601+02001999999ADDGA1021+007011999GE19AGL   +99999+99999GF199999021999007011999999MA1102301999999REMMET057METAR HRYR 070800Z 00000KT 9999 FEW023 26/20 Q1023 NOSIG=
0148643870999992016010708304-01969+030139FM-15+148199999V0209999C000019999999N009999199+02701+02001999999ADDGA1021+007011999GE19AGL   +99999+99999GF199999021999007011999999MA1102301999999REMMET057METAR HRYR 070830Z 00000KT 9999 FEW023 27/20 Q1023 NOSIG=
0148643870999992016010709004-01969+030139FM-15+148199999V0202001N001519999999N009999199+02701+01901999999ADDGA1041+007011999GE19AGL   +99999+99999GF199999041999007011999999MA1102201999999REMMET057METAR HRYR 070900Z 20003KT 9999 SCT023 27/19 Q1022 NOSIG=
0151643870999992016010709304-01969+030139FM-15+148199999V0202601N001519999999N009999199+02801+01901999999ADDGA1041+007011081GE19AGL   +99999+99999GF199999041999007011999999MA1102201999999REMMET060METAR HRYR 070930Z 26003KT 9999 SCT023TCU 28/19 Q1022 NOSIG=
0151643870999992016010710004-01969+030139FM-15+148199999V0209999V002119999999N009999199+02801+01801999999ADDGA1041+007011081GE19AGL   +99999+99999GF199999041999007011999999MA1102201999999REMMET060METAR HRYR 071000Z VRB04KT 9999 SCT023TCU 28/18 Q1022 NOSIG=
0148643870999992016010710304-01969+030139FM-15+148199999V0201901N002119999999N009999199+02901+01701999999ADDGA1041+007621999GE19AGL   +99999+99999GF199999041999007621999999MA1102101999999REMMET057METAR HRYR 071030Z 19004KT 9999 SCT025 29/17 Q1021 NOSIG=
0148643870999992016010711004-01969+030139FM-15+148199999V0201501N001510076219N009999199+03001+01801999999ADDGA1071+007621999GE19AGL   +99999+99999GF199999071999007621999999MA1102001999999REMMET057METAR HRYR 071100Z 15003KT 9999 BKN025 30/18 Q1020 NOSIG=
0148643870999992016010711304-01969+030139FM-15+148199999V0201501N001510076219N009999199+02901+01801999999ADDGA1071+007621999GE19AGL   +99999+99999GF199999071999007621999999MA1102001999999REMMET057METAR HRYR 071130Z 15003KT 9999 BKN025 29/18 Q1020 NOSIG=
0151643870999992016010712004-01969+030139FM-15+148199999V0203001N001510076219N009999199+02901+01701999999ADDGA1071+007621081GE19AGL   +99999+99999GF199999071999007621999999MA1102001999999REMMET060METAR HRYR 071200Z 30003KT 9999 BKN025TCU 29/17 Q1020 NOSIG=
0148643870999992016010712304-01969+030139FM-15+148199999V0202001N001519999999N009999199+03001+01801999999ADDGA1041+007621999GE19AGL   +99999+99999GF199999041999007621999999MA1101901999999REMMET057METAR HRYR 071230Z 20003KT 9999 SCT025 30/18 Q1019 NOSIG=
0148643870999992016010713004-01969+030139FM-15+148199999V0202201N001519999999N009999199+03001+01801999999ADDGA1041+007621999GE19AGL   +99999+99999GF199999041999007621999999MA1101801999999REMMET057METAR HRYR 071300Z 22003KT 9999 SCT025 30/18 Q1018 NOSIG=
0148643870999992016010713304-01969+030139FM-15+148199999V0202701N001519999999N009999199+03101+01801999999ADDGA1041+007621999GE19AGL   +99999+99999GF199999041999007621999999MA1101801999999REMMET057METAR HRYR 071330Z 27003KT 9999 SCT025 31/18 Q1018 NOSIG=
0148643870999992016010714004-01969+030139FM-15+148199999V0202201N002119999999N009999199+03001+01701999999ADDGA1041+007621999GE19AGL   +99999+99999GF199999041999007621999999MA1101801999999REMMET057METAR HRYR 071400Z 22004KT 9999 SCT025 30/17 Q1018 NOSIG=
0148643870999992016010714304-01969+030139FM-15+148199999V0202001N002119999999N009999199+02901+01701999999ADDGA1041+007621999GE19AGL   +99999+99999GF199999041999007621999999MA1101801999999REMMET057METAR HRYR 071430Z 20004KT 9999 SCT025 29/17 Q1018 NOSIG=
0222643870999992016010715004-01967+030117FM-12+149199999V0202201N003619999999N010000199+02951+01771999999ADDGA1031+007501081GA2999+999999031GE19AGL   +99999+99999GF105991031999007501999999KA1240M+03101MA1999999085061MD1999999+0271ME1315019REMSYN07964387 32560 52207 10295 20177 38506 48501 83230 333 10310 58027 83825 Q 1018.2=
0148643870999992016010715004-01969+030139FM-15+148199999V0202001N003119999999N009999199+03001+01801999999ADDGA1041+007621999GE19AGL   +99999+99999GF199999041999007621999999MA1101801999999REMMET057METAR HRYR 071500Z 20006KT 9999 SCT025 30/18 Q1018 NOSIG=
0148643870999992016010715304-01969+030139FM-15+148199999V0201801N002119999999N009999199+02901+01701999999ADDGA1041+007621999GE19AGL   +99999+99999GF199999041999007621999999MA1101801999999REMMET057METAR HRYR 071530Z 18004KT 9999 SCT025 29/17 Q1018 NOSIG=
0148643870999992016010716004-01969+030139FM-15+148199999V0202001N001519999999N009999199+02801+01801999999ADDGA1041+007621999GE19AGL   +99999+99999GF199999041999007621999999MA1101901999999REMMET057METAR HRYR 071600Z 20003KT 9999 SCT025 28/18 Q1019 NOSIG=
0148643870999992016010716304-01969+030139FM-15+148199999V0202301N001519999999N009999199+02701+01801999999ADDGA1041+007621999GE19AGL   +99999+99999GF199999041999007621999999MA1101901999999REMMET057METAR HRYR 071630Z 23003KT 9999 SCT025 27/18 Q1019 NOSIG=
0148643870999992016010717004-01969+030139FM-15+148199999V0209999C000019999999N009999199+02701+01801999999ADDGA1041+007621999GE19AGL   +99999+99999GF199999041999007621999999MA1101901999999REMMET057METAR HRYR 071700Z 00000KT 9999 SCT025 27/18 Q1019 NOSIG=
0158643870999992016010717134-01969+030139FM-16+148199999V0200801N005710076219N009999199+02501+02001999999ADDGA1071+007621999GE19AGL   +99999+99999GF199999071999007621999999MA1102001999999MW1611REMMET061SPECI HRYR 071713Z 08011KT 9999 -RA BKN025 25/20 Q1020 NOSIG=
0158643870999992016010717304-01969+030139FM-15+148199999V0200701N003610076219N009999199+02301+02001999999ADDGA1071+007621999GE19AGL   +99999+99999GF199999071999007621999999MA1102001999999MW1611REMMET061METAR HRYR 071730Z 07007KT 9999 -RA BKN025 23/20 Q1020 NOSIG=
0278643870999992016010718004-01967+030117FM-12+149199999V0203501N001510075019N010000199+02151+02001999999ADDAA112002031AY101021AY221021GA1051+007501081GA2041+030001031GE19AGL   +99999+99999GF107991051999007501999999KA1120M+03101MA1999999085271MD1999999+0151ME1315219MW1611REMSYN10264387 11560 73503 10215 20200 38527 48521 60022 76102 8523/ 333 0//21 10310 58015 85825 84360 Q1020.6=
0181643870999992016010718004-01969+030139FM-15+148199999V0203501N001510076219N009999199+02201+02001999999ADDGA1071+007621999GA2071+030481999GE19AGL   +99999+99999GF199999071999007621999999MA1102101999999MW1611REMMET068METAR HRYR 071800Z 35003KT 9999 -RA BKN025 BKN100 22/20 Q1021 NOSIG=
0148643870999992016010718304-01969+030139FM-15+148199999V0200101N001519999999N009999199+02101+02001999999ADDGA1041+007621999GE19AGL   +99999+99999GF199999041999007621999999MA1102101999999REMMET057METAR HRYR 071830Z 01003KT 9999 SCT025 21/20 Q1021 NOSIG=
0148643870999992016010719004-01969+030139FM-15+148199999V0203401N001519999999N009999199+02101+02001999999ADDGA1041+007621999GE19AGL   +99999+99999GF199999041999007621999999MA1102101999999REMMET057METAR HRYR 071900Z 34003KT 9999 SCT025 21/20 Q1021 NOSIG=
0148643870999992016010719304-01969+030139FM-15+148199999V0203201N001519999999N009999199+02101+02001999999ADDGA1041+007621999GE19AGL   +99999+99999GF199999041999007621999999MA1102101999999REMMET057METAR HRYR 071930Z 32003KT 9999 SCT025 21/20 Q1021 NOSIG=
0148643870999992016010720004-01969+030139FM-15+148199999V0203101N001519999999N009999199+02101+01801999999ADDGA1021+007621999GE19AGL   +99999+99999GF199999021999007621999999MA1102101999999REMMET057METAR HRYR 072000Z 31003KT 9999 FEW025 21/18 Q1021 NOSIG=
0148643870999992016010720304-01969+030139FM-15+148199999V0209999C000019999999N009999199+02101+01801999999ADDGA1041+007621999GE19AGL   +99999+99999GF199999041999007621999999MA1102201999999REMMET057METAR HRYR 072030Z 00000KT 9999 SCT025 21/18 Q1022 NOSIG=
0148643870999992016010721004-01969+030139FM-15+148199999V0209999C000019999999N009999199+02201+01901999999ADDGA1041+007621999GE19AGL   +99999+99999GF199999041999007621999999MA1102201999999REMMET057METAR HRYR 072100Z 00000KT 9999 SCT025 22/19 Q1022 NOSIG=
0148643870999992016010721304-01969+030139FM-15+148199999V0209999C000019999999N009999199+02201+01901999999ADDGA1041+007621999GE19AGL   +99999+99999GF199999041999007621999999MA1102201999999REMMET057METAR HRYR 072130Z 00000KT 9999 SCT025 22/19 Q1022 NOSIG=
0148643870999992016010722004-01969+030139FM-15+148199999V0209999C000019999999N009999199+02101+01901999999ADDGA1041+007621999GE19AGL   +99999+99999GF199999041999007621999999MA1102201999999REMMET057METAR HRYR 072200Z 00000KT 9999 SCT025 21/19 Q1022 NOSIG=
0148643870999992016010722304-01969+030139FM-15+148199999V0203501N002119999999N009999199+02201+01901999999ADDGA1041+007621999GE19AGL   +99999+99999GF199999041999007621999999MA1102201999999REMMET057METAR HRYR 072230Z 35004KT 9999 SCT025 22/19 Q1022 NOSIG=
0148643870999992016010723004-01969+030139FM-15+148199999V0203501N002119999999N009999199+02201+02001999999ADDGA1041+007621999GE19AGL   +99999+99999GF199999041999007621999999MA1102201999999REMMET057METAR HRYR 072300Z 35004KT 9999 SCT025 22/20 Q1022 NOSIG=
0148643870999992016010723304-01969+030139FM-15+148199999V0209999C000019999999N009999199+02101+01901999999ADDGA1041+007621999GE19AGL   +99999+99999GF199999041999007621999999MA1102101999999REMMET057METAR HRYR 072330Z 00000KT 9999 SCT025 21/19 Q1021 NOSIG=
0219643870999992016010800004-01967+030117FM-12+149199999V0203301N002119999999N010000199+02051+01921999999ADDAA106002031GA1031+007801081GA2999+999999031GE19AGL   +99999+99999GF105991031999007801999999MA1999999085281MD1999999+0121ME1315229REMSYN07864387 12560 53304 10205 20192 38528 48522 60021 83230 333 58012 83826 Q1020.7=
0148643870999992016010800004-01969+030139FM-15+148199999V0203301N002119999999N009999199+02101+01901999999ADDGA1041+007921999GE19AGL   +99999+99999GF199999041999007921999999MA1102101999999REMMET057METAR HRYR 080000Z 33004KT 9999 SCT026 21/19 Q1021 NOSIG=
0148643870999992016010800304-01969+030139FM-15+148199999V0203201N002119999999N009999199+02001+01901999999ADDGA1041+007921999GE19AGL   +99999+99999GF199999041999007921999999MA1102101999999REMMET057METAR HRYR 080030Z 32004KT 9999 SCT026 20/19 Q1021 NOSIG=
0148643870999992016010801004-01969+030139FM-15+148199999V0209999C000019999999N009999199+02001+01901999999ADDGA1041+007921999GE19AGL   +99999+99999GF199999041999007921999999MA1102101999999REMMET057METAR HRYR 080100Z 00000KT 9999 SCT026 20/19 Q1021 NOSIG=
0148643870999992016010801304-01969+030139FM-15+148199999V0209999C000019999999N009999199+02001+01901999999ADDGA1041+007921999GE19AGL   +99999+99999GF199999041999007921999999MA1102101999999REMMET057METAR HRYR 080130Z 00000KT 9999 SCT026 20/19 Q1021 NOSIG=
0171643870999992016010802004-01969+030139FM-15+148199999V0209999C00001030481CN009999199+01901+01901999999ADDGA1041+007921999GA2041+030481999GE19AGL   +99999+99999GF199999041999007921999999MA1102101999999REMMET064METAR HRYR 080200Z 00000KT 9999 SCT026 SCT100 19/19 Q1021 NOSIG=
0171643870999992016010802304-01969+030139FM-15+148199999V0209999C00001030481CN009999199+01901+01901999999ADDGA1041+007921999GA2041+030481999GE19AGL   +99999+99999GF199999041999007921999999MA1102101999999REMMET064METAR HRYR 080230Z 00000KT 9999 SCT026 SCT100 19/19 Q1021 NOSIG=
0207643870999992016010803004-01967+030117FM-12+149199999V0209999C00001030001CN010000199+01911+01911999999ADDGA1021+007801081GA2031+030001031GE19AGL   +99999+99999GF105991021999007801999999MA1999999085271MD1999999-0051ME1315219REMSYN07764387 32560 50000 10191 20191 38527 48521 82230 333 59005 82826 83360 1020.6=
0171643870999992016010803004-01969+030139FM-15+148199999V0209999C00001030481CN009999199+01901+01901999999ADDGA1021+007921999GA2041+030481999GE19AGL   +99999+99999GF199999021999007921999999MA1102101999999REMMET064METAR HRYR 080300Z 00000KT 9999 FEW026 SCT100 19/19 Q1021 NOSIG=
0171643870999992016010803304-01969+030139FM-15+148199999V0202701N00151030481CN009999199+01901+01901999999ADDGA1021+007921999GA2041+030481999GE19AGL   +99999+99999GF199999021999007921999999MA1102101999999REMMET064METAR HRYR 080330Z 27003KT 9999 FEW026 SCT100 19/19 Q1021 NOSIG=
0148643870999992016010804004-01969+030139FM-15+148199999V0209999C000019999999N009999199+01901+01901999999ADDGA1021+007921999GE19AGL   +99999+99999GF199999021999007921999999MA1102101999999REMMET057METAR HRYR 080400Z 00000KT 9999 FEW026 19/19 Q1021 NOSIG=
0148643870999992016010804304-01969+030139FM-15+148199999V0209999C000019999999N009999199+01901+01901999999ADDGA1021+007921999GE19AGL   +99999+99999GF199999021999007921999999MA1102201999999REMMET057METAR HRYR 080430Z 00000KT 9999 FEW026 19/19 Q1022 NOSIG=
0148643870999992016010805004-01969+030139FM-15+148199999V0209999C000019999999N008000199+02001+02001999999ADDGA1021+007921999GE19AGL   +99999+99999GF199999021999007921999999MA1102201999999REMMET057METAR HRYR 080500Z 00000KT 8000 FEW026 20/20 Q1022 NOSIG=
0148643870999992016010805304-01969+030139FM-15+148199999V0209999C000019999999N009999199+02201+02001999999ADDGA1021+007921999GE19AGL   +99999+99999GF199999021999007921999999MA1102201999999REMMET057METAR HRYR 080530Z 00000KT 9999 FEW026 22/20 Q1022 NOSIG=
0180643870999992016010806004-01967+030117FM-12+149199999V0200401N001519999999N010000199+02271+99999999999ADDGA1999+008001999GE19AGL   +99999+99999GF104991999999008001999999REMSYN10464387 12560 40403 10227M 20204 38544 485338 60024 81632 333 01457 10210 20184 50394 59001 81625 Q1022.6=
0148643870999992016010806004-01969+030139FM-15+148199999V0200301N001519999999N009999199+02301+02001999999ADDGA1021+007921999GE19AGL   +99999+99999GF199999021999007921999999MA1102301999999REMMET057METAR HRYR 080600Z 03003KT 9999 FEW026 23/20 Q1023 NOSIG=
0148643870999992016010806304-01969+030139FM-15+148199999V0209999C000019999999N009999199+02501+02001999999ADDGA1021+007921999GE19AGL   +99999+99999GF199999021999007921999999MA1102301999999REMMET057METAR HRYR 080630Z 00000KT 9999 FEW026 25/20 Q1023 NOSIG=
0148643870999992016010807004-01969+030139FM-15+148199999V0209999C000019999999N009999199+02501+02001999999ADDGA1021+007921999GE19AGL   +99999+99999GF199999021999007921999999MA1102301999999REMMET057METAR HRYR 080700Z 00000KT 9999 FEW026 25/20 Q1023 NOSIG=
0148643870999992016010807304-01969+030139FM-15+148199999V0201301N002119999999N009999199+02501+02001999999ADDGA1021+007621999GE19AGL   +99999+99999GF199999021999007621999999MA1102301999999REMMET057METAR HRYR 080730Z 13004KT 9999 FEW025 25/20 Q1023 NOSIG=
0148643870999992016010808004-01969+030139FM-15+148199999V0209999C000019999999N009999199+02601+02101999999ADDGA1021+007621999GE19AGL   +99999+99999GF199999021999007621999999MA1102301999999REMMET057METAR HRYR 080800Z 00000KT 9999 FEW025 26/21 Q1023 NOSIG=
0148643870999992016010808304-01969+030139FM-15+148199999V0201201N001519999999N009999199+02701+02001999999ADDGA1021+007621999GE19AGL   +99999+99999GF199999021999007621999999MA1102301999999REMMET057METAR HRYR 080830Z 12003KT 9999 FEW025 27/20 Q1023 NOSIG=
0203643870999992016010809004-01967+030117FM-12+149199999V0201201N003619999999N010000199+02751+01981999999ADDGA1031+007501081GA2999+999999031GE19AGL   +99999+99999GF104991031999007501999999MA1999999085391MD1999999-0041ME1315349REMSYN07364387 32560 41207 10275 20198 38539 48534 83230 333 59004 83825 Q 1022.0=
0170643870999992016010809004-01969+030139FM-15+148199999V0201401N002619999999N009999199+02705+02005999999ADDGA1041+007621999GE19AGL   +99999+99999GF199999041999007621999999MA1102205999999REMMET060METAR HRYR 080900Z 14005KT 9999 SCT025025 27/20 Q1022 NOSIG=EQDD01      0ADE539
0148643870999992016010809304-01969+030139FM-15+148199999V0201301N002119999999N009999199+02801+01901999999ADDGA1041+007621999GE19AGL   +99999+99999GF199999041999007621999999MA1102101999999REMMET057METAR HRYR 080930Z 13004KT 9999 SCT025 28/19 Q1021 NOSIG=
0148643870999992016010810004-01969+030139FM-15+148199999V0200301N003619999999N009999199+03001+01901999999ADDGA1041+007621999GE19AGL   +99999+99999GF199999041999007621999999MA1102101999999REMMET057METAR HRYR 081000Z 03007KT 9999 SCT025 30/19 Q1021 NOSIG=
0148643870999992016010810304-01969+030139FM-15+148199999V0201201N004610076219N009999199+03001+01901999999ADDGA1071+007621999GE19AGL   +99999+99999GF199999071999007621999999MA1102001999999REMMET057METAR HRYR 081030Z 12009KT 9999 BKN025 30/19 Q1020 NOSIG=
0148643870999992016010811004-01969+030139FM-15+148199999V0200301N003110076219N009999199+03001+01901999999ADDGA1071+007621999GE19AGL   +99999+99999GF199999071999007621999999MA1102001999999REMMET057METAR HRYR 081100Z 03006KT 9999 BKN025 30/19 Q1020 NOSIG=
0148643870999992016010811304-01969+030139FM-15+148199999V0200801N003110076219N009999199+03001+01701999999ADDGA1071+007621999GE19AGL   +99999+99999GF199999071999007621999999MA1101901999999REMMET057METAR HRYR 081130Z 08006KT 9999 BKN025 30/17 Q1019 NOSIG=
0202643870999992016010812004-01967+030117FM-12+149199999V0200701N003110075019N010000199+03191+01811999999ADDGA1051+007501081GA2999+999999031GE19AGL   +99999+99999GF106991051999007501999999MA1999999085091MD1999999-0081ME1315039REMSYN07264387 32560 60706 10319 20181 38509 48503 85230 333 59008 85825 Q1018.5=
0148643870999992016010812004-01969+030139FM-15+148199999V0200701N003110076219N009999199+03201+01801999999ADDGA1071+007621999GE19AGL   +99999+99999GF199999071999007621999999MA1101901999999REMMET057METAR HRYR 081200Z 07006KT 9999 BKN025 32/18 Q1019 NOSIG=
0148643870999992016010812304-01969+030139FM-15+148199999V0200701N004110076219N009999199+03101+01801999999ADDGA1071+007621999GE19AGL   +99999+99999GF199999071999007621999999MA1101801999999REMMET057METAR HRYR 081230Z 07008KT 9999 BKN025 31/18 Q1018 NOSIG=
