0118712230999992016010100004+51933-110700FM-12+077299999V0202901N008819999999N999999999-00581-01151999999ADDAA106000091AA224999919KA1120M-00491KA2120N-01751REMSYN05871223 16/// /2917 11058 21115 60001 333 11049 21175 7////=
0093712230999992016010100004+51930-110720SAO  +077299999V020290190087199999999999999999-00581-01151999999ADDOD130101231270REMAWY067XCS SA 0000 AUTO8 M M M M/-06/-12/2917/M/ PK WND 2724 2321Z M 85MM=
0093712230999992016010101004+51930-110720SAO  +077299999V020290190087199999999999999999-00441-01021999999ADDOD130101031280REMAWY067XCS SA 0100 AUTO8 M M M M/-04/-10/2917/M/ PK WND 2820 0007Z M 42MM=
0093712230999992016010102004+51930-110720SAO  +077299999V020300190108199999999999999999-00291-00991999999ADDOD130101341300REMAWY067XCS SA 0200 AUTO8 M M M M/-03/-10/3021/M/ PK WND 3026 0119Z M 99MM=
0049712230999992016010103004+51933-110850FM-12+077299999V0203061N0096199999999999999999-00301-00991999999ADDAA101999999AA206999999AA324999999REMSYN004BUFR
0093712230999992016010103004+51930-110720SAO  +077299999V020310190098199999999999999999-00271-00991999999ADDOD130101231300REMAWY067XCS SA 0300 AUTO8 M M M M/-03/-10/3119/M/ PK WND 3024 0208Z M 79MM=
0093712230999992016010104004+51930-110720SAO  +077299999V020310190098199999999999999999-00281-00951999999ADDOD130101231300REMAWY067XCS SA 0400 AUTO8 M M M M/-03/-10/3119/M/ PK WND 3024 0326Z M 85MM=
0093712230999992016010105004+51930-110720SAO  +077299999V020310190103199999999999999999-00231-00931999999ADDOD130101181310REMAWY067XCS SA 0500 AUTO8 M M M M/-02/-09/3120/M/ PK WND 3123 0450Z M 33MM=
0134712230999992016010106004+51933-110700FM-12+077299999V0203101N010819999999N999999999-00171-00941999999ADDAA106000091AA224000091KA1240M-00151KA2240N-01751REMSYN07471223 16/// /3121 11017 21094 60001 333 11015 21175 70000 555 32826 40231=
0093712230999992016010106004+51930-110720SAO  +077299999V020310190108199999999999999999-00171-00941999999ADDOD130101231310REMAWY067XCS SA 0600 AUTO8 M M M M/-02/-09/3121/M/ PK WND 3124 0548Z M 74MM=
0093712230999992016010107004+51930-110720SAO  +077299999V020300190093199999999999999999-00261-00991999999ADDOD130101231310REMAWY067XCS SA 0700 AUTO8 M M M M/-03/-10/3018/M/ PK WND 3124 0602Z M 69MM=
0093712230999992016010108004+51930-110720SAO  +077299999V020300190098199999999999999999-00421-01041999999ADDOD130101081290REMAWY067XCS SA 0800 AUTO8 M M M M/-04/-10/3019/M/ PK WND 2921 0756Z M 24MM=
0094712230999992016010110004+51930-110720SAO  +077299999V020290190057199999999999999999-00651-01281999999ADDOD130100981300REMAWY068XCS SA 1000 AUTO8 M M M M/-07/-13/2911/M/M PK WND 3019 0910Z M 58MM=
0059712230999992016010111004+51930-110720SAO  +077299999V020290190072199999999999999999-00621-01341999999REMAWY050XCS SA 1100 AUTO8 M M M M/-06/-13/2914/M/M M 24MM=
0099712230999992016010112004+51933-110700FM-12+077299999V0202901N005719999999N999999999-00781-01421999999ADDAA106999919AA224999919KA1240M-00151REMSYN05271223 46/// /2911 11078 21142 6///1 333 11015 7////=
0059712230999992016010112004+51930-110720SAO  +077299999V020290190057199999999999999999-00781-01421999999REMAWY050XCS SA 1200 AUTO8 M M M M/-08/-14/2911/M/M M 82MM=
0058712230999992016010113004+51930-110720SAO  +077299999V020280190051199999999999999999-00821-01461999999REMAWY049XCS SA 1300 AUTO8 M M M M/-08/-15/2810/M/ M 26MM=
0058712230999992016010114004+51930-110720SAO  +077299999V020250190046199999999999999999-01061-01721999999REMAWY049XCS SA 1400 AUTO8 M M M M/-11/-17/2509/M/ M 62MM=
0038712230999992016010115004+51933-111600FM-12+077299999V0202501N0045199999999999999999-01001-01661999999ADDAA101999999AA206999999REMSYN004BUFR
0058712230999992016010115004+51930-110720SAO  +077299999V020250190051199999999999999999-01011-01631999999REMAWY049XCS SA 1500 AUTO8 M M M M/-10/-16/2510/M/ M 13MM=
0058712230999992016010116004+51930-110720SAO  +077299999V020220190046199999999999999999-01111-01711999999REMAWY049XCS SA 1600 AUTO8 M M M M/-11/-17/2209/M/ M 11MM=
0058712230999992016010117004+51930-110720SAO  +077299999V020260190057199999999999999999-00401-01331999999REMAWY049XCS SA 1700 AUTO8 M M M M/-04/-13/2611/M/ M 03MM=
0080712230999992016010118004+51933-110700FM-12+077299999V0202101N008219999999N999999999-01091-01591999999ADDAA106000091AA224999919REMSYN04671223 16/// /2116 11109 21159 60001 333 7////=
0093712230999992016010118004+51930-110720SAO  +077299999V020210190082199999999999999999-01091-01591999999ADDOD130101031260REMAWY067XCS SA 1800 AUTO8 M M M M/-11/-16/2116/M/ PK WND 2620 1718Z M 99MM=
0093712230999992016010119004+51930-110720SAO  +077299999V020260190087199999999999999999-00471-01331999999ADDOD130101081260REMAWY067XCS SA 1900 AUTO8 M M M M/-05/-13/2617/M/ PK WND 2621 1828Z M 73MM=
0093712230999992016010120004+51930-110720SAO  +077299999V020270190082199999999999999999-00211-01211999999ADDOD130101131260REMAWY067XCS SA 2000 AUTO8 M M M M/-02/-12/2716/M/ PK WND 2622 1922Z M 11MM=
0038712230999992016010121004+51933-111600FM-12+077299999V0202751N0067199999999999999999-00071-01151999999ADDAA101999999AA206999999REMSYN004BUFR
0093712230999992016010121004+51930-110720SAO  +077299999V020280190072199999999999999999-00061-01141999999ADDOD130101031270REMAWY067XCS SA 2100 AUTO8 M M M M/-01/-11/2814/M/ PK WND 2720 2009Z M 64MM=
0093712230999992016010122004+51930-110720SAO  +077299999V020270190072199999999999999999-00081-01161999999ADDOD130100931280REMAWY067XCS SA 2200 AUTO8 M M M M/-01/-12/2714/M/ PK WND 2818 2104Z M 86MM=
0058712230999992016010123004+51930-110720SAO  +077299999V020270190062199999999999999999-00231-01221999999REMAWY049XCS SA 2300 AUTO8 M M M M/-02/-12/2712/M/ M 32MM=
0099712230999992016010200004+51933-110700FM-12+077299999V0202701N006719999999N999999999-00451-01291999999ADDAA106000091AA224999919KA1120M-00011REMSYN05271223 16/// /2713 11045 21129 60001 333 11001 7////=
0058712230999992016010200004+51930-110720SAO  +077299999V020270190067199999999999999999-00351-01291999999REMAWY049XCS SA 0000 AUTO8 M M M M/-04/-13/2713/M/ M 59MM=
0058712230999992016010201004+51930-110720SAO  +077299999V020270190062199999999999999999-00391-01371999999REMAWY049XCS SA 0100 AUTO8 M M M M/-04/-14/2712/M/ M 97MM=
0093712230999992016010202004+51930-110720SAO  +077299999V020280190082199999999999999999-00281-01391999999ADDOD130100981280REMAWY067XCS SA 0200 AUTO8 M M M M/-03/-14/2816/M/ PK WND 2819 0146Z M 89MM=
0038712230999992016010203004+51933-111600FM-12+077299999V0203001N0042199999999999999999-00541-01561999999ADDAA101999999AA206999999REMSYN004BUFR
0093712230999992016010203004+51930-110720SAO  +077299999V020300190046199999999999999999-00451-01481999999ADDOD130100931280REMAWY067XCS SA 0300 AUTO8 M M M M/-05/-15/3009/M/ PK WND 2818 0232Z M 58MM=
0093712230999992016010204004+51930-110720SAO  +077299999V020280190087199999999999999999-00491-01461999999ADDOD130101031280REMAWY067XCS SA 0400 AUTO8 M M M M/-05/-15/2817/M/ PK WND 2820 0352Z M 96MM=
0093712230999992016010205004+51930-110720SAO  +077299999V020280190082199999999999999999-00511-01401999999ADDOD130101031280REMAWY067XCS SA 0500 AUTO8 M M M M/-05/-14/2816/M/ PK WND 2820 0403Z M 10MM=
0096712230999992016010206004+51933-110700FM-12+077299999V0202901N006719999999N999999999-00521-01381999999ADDAA106000091AA224999919REMSYN06271223 16/// /2913 11052 21138 60001 333 7//// 555 33124 4007/=
0093712230999992016010206004+51930-110720SAO  +077299999V020290190067199999999999999999-00521-01381999999ADDOD130100931280REMAWY067XCS SA 0600 AUTO8 M M M M/-05/-14/2913/M/ PK WND 2818 0503Z M 28MM=
0058712230999992016010207004+51930-110720SAO  +077299999V020290190067199999999999999999-00441-01341999999REMAWY049XCS SA 0700 AUTO8 M M M M/-04/-13/2913/M/ M 44MM=
0058712230999992016010208004+51930-110720SAO  +077299999V020290190072199999999999999999-00511-01291999999REMAWY049XCS SA 0800 AUTO8 M M M M/-05/-13/2914/M/ M 19MM=
0049712230999992016010209004+51933-111600FM-12+077299999V0202941N0049199999999999999999-00471-01311999999ADDAA101999999AA206999999AA324999999REMSYN004BUFR
0058712230999992016010209004+51930-110720SAO  +077299999V020290190057199999999999999999-00461-01241999999REMAWY049XCS SA 0900 AUTO8 M M M M/-05/-12/2911/M/ M 64MM=
0058712230999992016010210004+51930-110720SAO  +077299999V020300190031199999999999999999-00641-01371999999REMAWY049XCS SA 1000 AUTO8 M M M M/-06/-14/3006/M/ M 47MM=
0058712230999992016010211004+51930-110720SAO  +077299999V020300190051199999999999999999-00761-01371999999REMAWY049XCS SA 1100 AUTO8 M M M M/-08/-14/3010/M/ M 67MM=
0099712230999992016010212004+51933-110700FM-12+077299999V0202901N005119999999N999999999-00671-01291999999ADDAA106000091AA224000091KA1240N-00861REMSYN05271223 16/// /2910 11067 21129 60001 333 21086 70000=
0058712230999992016010212004+51930-110720SAO  +077299999V020290190051199999999999999999-00671-01291999999REMAWY049XCS SA 1200 AUTO8 M M M M/-07/-13/2910/M/ M 79MM=
0058712230999992016010213004+51930-110720SAO  +077299999V020280190057199999999999999999-00681-01331999999REMAWY049XCS SA 1300 AUTO8 M M M M/-07/-13/2811/M/ M 83MM=
0058712230999992016010214004+51930-110720SAO  +077299999V020290190051199999999999999999-00741-01321999999REMAWY049XCS SA 1400 AUTO8 M M M M/-07/-13/2910/M/ M 42MM=
0049712230999992016010215004+51933-111600FM-12+077299999V0202841N0032199999999999999999-00801-01441999999ADDAA101999999AA206999999AA324999999REMSYN004BUFR
0058712230999992016010215004+51930-110720SAO  +077299999V020280190031199999999999999999-00651-01381999999REMAWY049XCS SA 1500 AUTO8 M M M M/-07/-14/2806/M/ M 58MM=
0058712230999992016010216004+51930-110720SAO  +077299999V020290190041199999999999999999-00841-01441999999REMAWY049XCS SA 1600 AUTO8 M M M M/-08/-14/2908/M/ M 44MM=
0058712230999992016010217004+51930-110720SAO  +077299999V020290190031199999999999999999-00581-01311999999REMAWY049XCS SA 1700 AUTO8 M M M M/-06/-13/2906/M/ M 81MM=
0118712230999992016010218004+51933-110700FM-12+077299999V0203001N002119999999N999999999-00391-01161999999ADDAA106000091AA224000091KA1120M-00371KA2120N-01091REMSYN05871223 16/// /3004 11039 21116 60001 333 11037 21109 70000=
0058712230999992016010218004+51930-110720SAO  +077299999V020300190021199999999999999999-00391-01161999999REMAWY049XCS SA 1800 AUTO8 M M M M/-04/-12/3004/M/ M 96MM=
0058712230999992016010219004+51930-110720SAO  +077299999V020210190036199999999999999999-00761-01291999999REMAWY049XCS SA 1900 AUTO8 M M M M/-08/-13/2107/M/ M 69MM=
0058712230999992016010220004+51930-110720SAO  +077299999V020220190031199999999999999999-00651-01221999999REMAWY049XCS SA 2000 AUTO8 M M M M/-07/-12/2206/M/ M 52MM=
0049712230999992016010221004+51933-111600FM-12+077299999V0202341N0020199999999999999999-00561-01131999999ADDAA101999999AA206999999AA324999999REMSYN004BUFR
0058712230999992016010221004+51930-110720SAO  +077299999V020230190021199999999999999999-00561-01071999999REMAWY049XCS SA 2100 AUTO8 M M M M/-06/-11/2304/M/ M 67MM=
0058712230999992016010222004+51930-110720SAO  +077299999V020260190031199999999999999999-00401-01141999999REMAWY049XCS SA 2200 AUTO8 M M M M/-04/-11/2606/M/ M 04MM=
0058712230999992016010223004+51930-110720SAO  +077299999V020270190031199999999999999999-00711-01341999999REMAWY049XCS SA 2300 AUTO8 M M M M/-07/-13/2706/M/ M 14MM=
0118712230999992016010300004+51933-110700FM-12+077299999V0202501N003619999999N999999999-01061-01471999999ADDAA106000091AA224000091KA1120M-00231KA2120N-01071REMSYN05871223 16/// /2507 11106 21147 60001 333 11023 21107 70000=
0058712230999992016010300004+51930-110720SAO  +077299999V020250190036199999999999999999-01061-01471999999REMAWY049XCS SA 0000 AUTO8 M M M M/-11/-15/2507/M/ M 67MM=
0058712230999992016010301004+51930-110720SAO  +077299999V020240190046199999999999999999-01081-01581999999REMAWY049XCS SA 0100 AUTO8 M M M M/-11/-16/2409/M/ M 88MM=
0058712230999992016010302004+51930-110720SAO  +077299999V020240190036199999999999999999-01091-01621999999REMAWY049XCS SA 0200 AUTO8 M M M M/-11/-16/2407/M/ M 92MM=
0049712230999992016010303004+51933-111600FM-12+077299999V0202411N0030199999999999999999-01171-01741999999ADDAA101999999AA206999999AA324999999REMSYN004BUFR
0058712230999992016010303004+51930-110720SAO  +077299999V020240190036199999999999999999-01161-01661999999REMAWY049XCS SA 0300 AUTO8 M M M M/-12/-17/2407/M/ M 66MM=
0058712230999992016010304004+51930-110720SAO  +077299999V020230190046199999999999999999-01131-01631999999REMAWY049XCS SA 0400 AUTO8 M M M M/-11/-16/2309/M/ M 33MM=
0058712230999992016010305004+51930-110720SAO  +077299999V020240190041199999999999999999-01181-01741999999REMAWY049XCS SA 0500 AUTO8 M M M M/-12/-17/2408/M/ M 84MM=
0118712230999992016010306004+51933-110700FM-12+077299999V0202301N005119999999N999999999-01091-01691999999ADDAA106000091AA224000091KA1240M-00231KA2240N-01281REMSYN05871223 16/// /2310 11109 21169 60001 333 11023 21128 70000=
0058712230999992016010306004+51930-110720SAO  +077299999V020230190051199999999999999999-01091-01691999999REMAWY049XCS SA 0600 AUTO8 M M M M/-11/-17/2310/M/ M 99MM=
0093712230999992016010307004+51930-110720SAO  +077299999V020230190062199999999999999999-01321-01771999999ADDOD130100871230REMAWY067XCS SA 0700 AUTO8 M M M M/-13/-18/2312/M/ PK WND 2317 0607Z M 27MM=
0058712230999992016010308004+51930-110720SAO  +077299999V020230190041199999999999999999-01351-01841999999REMAWY049XCS SA 0800 AUTO8 M M M M/-14/-18/2308/M/ M 54MM=
0049712230999992016010309004+51933-111600FM-12+077299999V0202151N0044199999999999999999-01461-01821999999ADDAA101999999AA206999999AA324999999REMSYN004BUFR
0058712230999992016010309004+51930-110720SAO  +077299999V020220190046199999999999999999-01461-01821999999REMAWY049XCS SA 0900 AUTO8 M M M M/-15/-18/2209/M/ M 62MM=
0058712230999992016010310004+51930-110720SAO  +077299999V020220190046199999999999999999-01491-01841999999REMAWY049XCS SA 1000 AUTO8 M M M M/-15/-18/2209/M/ M 94MM=
0058712230999992016010311004+51930-110720SAO  +077299999V020220190067199999999999999999-01201-01721999999REMAWY049XCS SA 1100 AUTO8 M M M M/-12/-17/2213/M/ M 02MM=
0118712230999992016010312004+51933-110700FM-12+077299999V0201901N003119999999N999999999-01291-01791999999ADDAA106000091AA224000091KA1240M-00231KA2240N-01561REMSYN05871223 16/// /1906 11129 21179 60001 333 11023 21156 70000=
0058712230999992016010312004+51930-110720SAO  +077299999V020190190031199999999999999999-01291-01791999999REMAWY049XCS SA 1200 AUTO8 M M M M/-13/-18/1906/M/ M 99MM=
0058712230999992016010313004+51930-110720SAO  +077299999V020210190041199999999999999999-01481-01891999999REMAWY049XCS SA 1300 AUTO8 M M M M/-15/-19/2108/M/ M 89MM=
0058712230999992016010314004+51930-110720SAO  +077299999V020220190046199999999999999999-01411-01831999999REMAWY049XCS SA 1400 AUTO8 M M M M/-14/-18/2209/M/ M 13MM=
0049712230999992016010315004+51933-111600FM-12+077299999V0201821N0038199999999999999999-01371-01791999999ADDAA101999999AA206999999AA324999999REMSYN004BUFR
0058712230999992016010315004+51930-110720SAO  +077299999V020180190036199999999999999999-01351-01781999999REMAWY049XCS SA 1500 AUTO8 M M M M/-14/-18/1807/M/ M 58MM=
0058712230999992016010316004+51930-110720SAO  +077299999V020140190015199999999999999999-01351-01901999999REMAWY049XCS SA 1600 AUTO8 M M M M/-14/-19/1403/M/ M 50MM=
0058712230999992016010317004+51930-110720SAO  +077299999V020120190026199999999999999999-01371-01871999999REMAWY049XCS SA 1700 AUTO8 M M M M/-14/-19/1205/M/ M 77MM=
0118712230999992016010318004+51933-110700FM-12+077299999V0201601N004619999999N999999999-01021-01531999999ADDAA106000091AA224000091KA1120M-00851KA2120N-01561REMSYN05871223 16/// /1609 11102 21153 60001 333 11085 21156 70000=
0058712230999992016010318004+51930-110720SAO  +077299999V020160190046199999999999999999-01021-01531999999REMAWY049XCS SA 1800 AUTO8 M M M M/-10/-15/1609/M/ M 23MM=
0058712230999992016010319004+51930-110720SAO  +077299999V020180190046199999999999999999-00711-01281999999REMAWY049XCS SA 1900 AUTO8 M M M M/-07/-13/1809/M/ M 18MM=
0058712230999992016010320004+51930-110720SAO  +077299999V020170190041199999999999999999-00681-01151999999REMAWY049XCS SA 2000 AUTO8 M M M M/-07/-12/1708/M/ M 85MM=
0049712230999992016010321004+51933-111600FM-12+077299999V0201591N0031199999999999999999-00541-01241999999ADDAA101999999AA206999999AA324999999REMSYN004BUFR
0058712230999992016010321004+51930-110720SAO  +077299999V020160190031199999999999999999-00531-01161999999REMAWY049XCS SA 2100 AUTO8 M M M M/-05/-12/1606/M/ M 36MM=
0058712230999992016010322004+51930-110720SAO  +077299999V020180190046199999999999999999-00601-01161999999REMAWY049XCS SA 2200 AUTO8 M M M M/-06/-12/1809/M/ M 06MM=
0058712230999992016010323004+51930-110720SAO  +077299999V020150190026199999999999999999-00731-01221999999REMAWY049XCS SA 2300 AUTO8 M M M M/-07/-12/1505/M/ M 32MM=
0118712230999992016010400004+51933-110700FM-12+077299999V0201801N004119999999N999999999-00781-01171999999ADDAA106000091AA224000091KA1120M-00531KA2120N-01561REMSYN05871223 16/// /1808 11078 21117 60001 333 11053 21156 70000=
0058712230999992016010400004+51930-110720SAO  +077299999V020180190041199999999999999999-00781-01171999999REMAWY049XCS SA 0000 AUTO8 M M M M/-08/-12/1808/M/ M 87MM=
0058712230999992016010401004+51930-110720SAO  +077299999V020200190046199999999999999999-00811-01151999999REMAWY049XCS SA 0100 AUTO8 M M M M/-08/-12/2009/M/ M 15MM=
0058712230999992016010402004+51930-110720SAO  +077299999V020190190031199999999999999999-01031-01331999999REMAWY049XCS SA 0200 AUTO8 M M M M/-10/-13/1906/M/ M 33MM=
0049712230999992016010403004+51933-111600FM-12+077299999V0201811N0034199999999999999999-00961-01211999999ADDAA101999999AA206999999AA324999999REMSYN004BUFR
0058712230999992016010403004+51930-110720SAO  +077299999V020180190041199999999999999999-00881-01181999999REMAWY049XCS SA 0300 AUTO8 M M M M/-09/-12/1808/M/ M 88MM=
0058712230999992016010404004+51930-110720SAO  +077299999V020190190046199999999999999999-00701-01061999999REMAWY049XCS SA 0400 AUTO8 M M M M/-07/-11/1909/M/ M 06MM=
0058712230999992016010405004+51930-110720SAO  +077299999V020180190041199999999999999999-00861-01231999999REMAWY049XCS SA 0500 AUTO8 M M M M/-09/-12/1808/M/ M 63MM=
0134712230999992016010406004+51933-110700FM-12+077299999V0202001N003119999999N999999999-00901-01191999999ADDAA106000091AA224000091KA1240M-00531KA2240N-01561REMSYN07471223 16/// /2006 11090 21119 60001 333 11053 21156 70000 555 32317 40070=
0058712230999992016010406004+51930-110720SAO  +077299999V020200190031199999999999999999-00891-01191999999REMAWY049XCS SA 0600 AUTO8 M M M M/-09/-12/2006/M/ M 99MM=
0058712230999992016010407004+51930-110720SAO  +077299999V020180190031199999999999999999-00851-01211999999REMAWY049XCS SA 0700 AUTO8 M M M M/-09/-12/1806/M/ M 51MM=
0058712230999992016010408004+51930-110720SAO  +077299999V020210190062199999999999999999-00861-01131999999REMAWY049XCS SA 0800 AUTO8 M M M M/-09/-11/2112/M/ M 63MM=
0049712230999992016010409004+51933-111600FM-12+077299999V0202241N0052199999999999999999-01011-01201999999ADDAA101999999AA206999999AA324999999REMSYN004BUFR
0058712230999992016010409004+51930-110720SAO  +077299999V020220190051199999999999999999-00931-01151999999REMAWY049XCS SA 0900 AUTO8 M M M M/-09/-12/2210/M/ M 35MM=
0093712230999992016010410004+51930-110720SAO  +077299999V020220190072199999999999999999-00771-01041999999ADDOD130100871220REMAWY067XCS SA 1000 AUTO8 M M M M/-08/-10/2214/M/ PK WND 2217 0913Z M 74MM=
0093712230999992016010411004+51930-110720SAO  +077299999V020230190077199999999999999999-00881-01121999999ADDOD130100871230REMAWY067XCS SA 1100 AUTO8 M M M M/-09/-11/2315/M/ PK WND 2317 1054Z M 82MM=
0118712230999992016010412004+51933-110700FM-12+077299999V0202301N007719999999N999999999-00961-01171999999ADDAA106000091AA224000091KA1240M-00531KA2240N-01041REMSYN05871223 16/// /2315 11096 21117 60001 333 11053 21104 70000=
0093712230999992016010412004+51930-110720SAO  +077299999V020230190077199999999999999999-00961-01171999999ADDOD130100931220REMAWY067XCS SA 1200 AUTO8 M M M M/-10/-12/2315/M/ PK WND 2218 1159Z M 67MM=
0093712230999992016010413004+51930-110720SAO  +077299999V020220190062199999999999999999-01061-01271999999ADDOD130100871220REMAWY067XCS SA 1300 AUTO8 M M M M/-11/-13/2212/M/ PK WND 2217 1202Z M 67MM=
0058712230999992016010414004+51930-110720SAO  +077299999V020230190057199999999999999999-01171-01391999999REMAWY049XCS SA 1400 AUTO8 M M M M/-12/-14/2311/M/ M 79MM=
0049712230999992016010415004+51933-111600FM-12+077299999V0202401N0051199999999999999999-01151-01451999999ADDAA101999999AA206999999AA324999999REMSYN004BUFR
0058712230999992016010415004+51930-110720SAO  +077299999V020240190057199999999999999999-01151-01351999999REMAWY049XCS SA 1500 AUTO8 M M M M/-12/-14/2411/M/ M 55MM=
0093712230999992016010416004+51930-110720SAO  +077299999V020280190087199999999999999999-00871-01441999999ADDOD130101031280REMAWY067XCS SA 1600 AUTO8 M M M M/-09/-14/2817/M/ PK WND 2820 1556Z M 74MM=
0093712230999992016010417004+51930-110720SAO  +077299999V020300190103199999999999999999-00801-01341999999ADDOD130101181290REMAWY067XCS SA 1700 AUTO8 M M M M/-08/-13/3020/M/ PK WND 2923 1650Z M 04MM=
0118712230999992016010418004+51933-110700FM-12+077299999V0203101N012419999999N999999999-00651-01231999999ADDAA106000091AA224000091KA1120M-00651KA2120N-01191REMSYN05871223 16/// /3124 11065 21123 60001 333 11065 21119 70000=
0093712230999992016010418004+51930-110720SAO  +077299999V020310190123199999999999999999-00551-01231999999ADDOD130101441310REMAWY067XCS SA 1800 AUTO8 M M M M/-06/-12/3124/M/ PK WND 3128 1757Z M 53MM=
0093712230999992016010419004+51930-110720SAO  +077299999V020310190103199999999999999999-00841-01341999999ADDOD130101441310REMAWY067XCS SA 1900 AUTO8 M M M M/-08/-13/3120/M/ PK WND 3128 1801Z M 44MM=
0093712230999992016010420004+51930-110720SAO  +077299999V020320190077199999999999999999-00651-01291999999ADDOD130101231300REMAWY067XCS SA 2000 AUTO8 M M M M/-07/-13/3215/M/ PK WND 3024 1903Z M 59MM=
0049712230999992016010421004+51933-111600FM-12+077299999V0203081N0045199999999999999999-00791-01321999999ADDAA101999999AA206999999AA324999999REMSYN004BUFR
0058712230999992016010421004+51930-110720SAO  +077299999V020310190046199999999999999999-00721-01281999999REMAWY049XCS SA 2100 AUTO8 M M M M/-07/-13/3109/M/ M 28MM=
0058712230999992016010422004+51930-110720SAO  +077299999V020330190041199999999999999999-00711-01291999999REMAWY049XCS SA 2200 AUTO8 M M M M/-07/-13/3308/M/ M 19MM=
0058712230999992016010423004+51930-110720SAO  +077299999V020300190051199999999999999999-00971-01411999999REMAWY049XCS SA 2300 AUTO8 M M M M/-10/-14/3010/M/ M 71MM=
0118712230999992016010500004+51933-110700FM-12+077299999V0203001N005719999999N999999999-01111-01501999999ADDAA106000091AA224000091KA1120M-00651KA2120N-01191REMSYN05871223 16/// /3011 11111 21150 60001 333 11065 21119 70000=
0058712230999992016010500004+51930-110720SAO  +077299999V020310190057199999999999999999-01111-01501999999REMAWY049XCS SA 0000 AUTO8 M M M M/-11/-15/3111/M/ M 10MM=
0058712230999992016010501004+51930-110720SAO  +077299999V020310190051199999999999999999-01231-01571999999REMAWY049XCS SA 0100 AUTO8 M M M M/-12/-16/3110/M/ M 37MM=
0058712230999992016010502004+51930-110720SAO  +077299999V020320190051199999999999999999-01311-01601999999REMAWY049XCS SA 0200 AUTO8 M M M M/-13/-16/3210/M/ M 10MM=
0049712230999992016010503004+51933-111600FM-12+077299999V0203061N0046199999999999999999-01411-01711999999ADDAA101999999AA206999999AA324999999REMSYN004BUFR
0058712230999992016010503004+51930-110720SAO  +077299999V020310190057199999999999999999-01401-01661999999REMAWY049XCS SA 0300 AUTO8 M M M M/-14/-17/3111/M/ M 06MM=
0058712230999992016010504004+51930-110720SAO  +077299999V020290190046199999999999999999-01501-01731999999REMAWY049XCS SA 0400 AUTO8 M M M M/-15/-17/2909/M/ M 03MM=
0058712230999992016010505004+51930-110720SAO  +077299999V020310190046199999999999999999-01591-01811999999REMAWY049XCS SA 0500 AUTO8 M M M M/-16/-18/3109/M/ M 91MM=
0134712230999992016010506004+51933-110700FM-12+077299999V0203201N004119999999N999999999-01711-01891999999ADDAA106000091AA224000091KA1240M-00651KA2240N-01751REMSYN07471223 16/// /3208 11171 21189 60001 333 11065 21175 70000 555 33128 40191=
0058712230999992016010506004+51930-110720SAO  +077299999V020320190041199999999999999999-01711-01891999999REMAWY049XCS SA 0600 AUTO8 M M M M/-17/-19/3208/M/ M 19MM=
0058712230999992016010507004+51930-110720SAO  +077299999V020290190026199999999999999999-01621-01791999999REMAWY049XCS SA 0700 AUTO8 M M M M/-16/-18/2905/M/ M 29MM=
0058712230999992016010508004+51930-110720SAO  +077299999V020320190031199999999999999999-01631-01831999999REMAWY049XCS SA 0800 AUTO8 M M M M/-16/-18/3206/M/ M 33MM=
0049712230999992016010509004+51933-111600FM-12+077299999V0203471N0021199999999999999999-01511-01771999999ADDAA101999999AA206999999AA324999999REMSYN004BUFR
0058712230999992016010509004+51930-110720SAO  +077299999V020350190026199999999999999999-01461-01681999999REMAWY049XCS SA 0900 AUTO8 M M M M/-15/-17/3505/M/ M 68MM=
0058712230999992016010510004+51930-110720SAO  +077299999V020080190010199999999999999999-01381-01631999999REMAWY049XCS SA 1000 AUTO8 M M M M/-14/-16/0802/M/ M 83MM=
0058712230999992016010511004+51930-110720SAO  +077299999V020020190010199999999999999999-01441-01671999999REMAWY049XCS SA 1100 AUTO8 M M M M/-14/-17/0202/M/ M 47MM=
0118712230999992016010512004+51933-110700FM-12+077299999V0200601N001019999999N999999999-01401-01601999999ADDAA106000091AA224000091KA1240M-00651KA2240N-01751REMSYN05871223 16/// /0602 11140 21160 60001 333 11065 21175 70000=
0058712230999992016010512004+51930-110720SAO  +077299999V020060190010199999999999999999-01401-01601999999REMAWY049XCS SA 1200 AUTO8 M M M M/-14/-16/0602/M/ M 00MM=
0058712230999992016010513004+51930-110720SAO  +077299999V020110190010199999999999999999-01381-01621999999REMAWY049XCS SA 1300 AUTO8 M M M M/-14/-16/1102/M/ M 82MM=
0058712230999992016010514004+51930-110720SAO  +077299999V020120190010199999999999999999-01401-01601999999REMAWY049XCS SA 1400 AUTO8 M M M M/-14/-16/1202/M/ M 00MM=
0049712230999992016010515004+51933-111600FM-12+077299999V0201031N0011199999999999999999-01491-01661999999ADDAA101999999AA206999999AA324999999REMSYN004BUFR
0058712230999992016010515004+51930-110720SAO  +077299999V020100190015199999999999999999-01431-01631999999REMAWY049XCS SA 1500 AUTO8 M M M M/-14/-16/1003/M/ M 33MM=
0058712230999992016010516004+51930-110720SAO  +077299999V020140190010199999999999999999-01461-01551999999REMAWY049XCS SA 1600 AUTO8 M M M M/-15/-16/1402/M/ M 65MM=
0058712230999992016010517004+51930-110720SAO  +077299999V020080190021199999999999999999-01331-01541999999REMAWY049XCS SA 1700 AUTO8 M M M M/-13/-15/0804/M/ M 34MM=
0118712230999992016010518004+51933-110700FM-12+077299999V0201201N004119999999N999999999-01261-01491999999ADDAA106000091AA224000091KA1120M-01261KA2120N-01751REMSYN05871223 16/// /1208 11126 21149 60001 333 11126 21175 70000=
0058712230999992016010518004+51930-110720SAO  +077299999V020120190041199999999999999999-01261-01491999999REMAWY049XCS SA 1800 AUTO8 M M M M/-13/-15/1208/M/ M 69MM=
0058712230999992016010519004+51930-110720SAO  +077299999V020150190005199999999999999999-01131-01381999999REMAWY049XCS SA 1900 AUTO8 M M M M/-11/-14/1501/M/ M 38MM=
0058712230999992016010520004+51930-110720SAO  +077299999V020100190015199999999999999999-01011-01301999999REMAWY049XCS SA 2000 AUTO8 M M M M/-10/-13/1003/M/ M 10MM=
0049712230999992016010521004+51933-111600FM-12+077299999V0200911N0027199999999999999999-01091-01341999999ADDAA101999999AA206999999AA324999999REMSYN004BUFR
0058712230999992016010521004+51930-110720SAO  +077299999V020090190036199999999999999999-01091-01331999999REMAWY049XCS SA 2100 AUTO8 M M M M/-11/-13/0907/M/ M 93MM=
0058712230999992016010522004+51930-110720SAO  +077299999V020090190031199999999999999999-01071-01301999999REMAWY049XCS SA 2200 AUTO8 M M M M/-11/-13/0906/M/ M 70MM=
0058712230999992016010523004+51930-110720SAO  +077299999V020100190046199999999999999999-01011-01151999999REMAWY049XCS SA 2300 AUTO8 M M M M/-10/-12/1009/M/ M 15MM=
0118712230999992016010600004+51933-110700FM-12+077299999V0201001N005119999999N999999999-00951-01161999999ADDAA106000091AA224000091KA1120M-00951KA2120N-01711REMSYN05871223 16/// /1010 11095 21116 60001 333 11095 21171 70000=
0058712230999992016010600004+51930-110720SAO  +077299999V020100190051199999999999999999-00951-01161999999REMAWY049XCS SA 0000 AUTO8 M M M M/-10/-12/1010/M/ M 56MM=
0058712230999992016010601004+51930-110720SAO  +077299999V020100190046199999999999999999-00901-01091999999REMAWY049XCS SA 0100 AUTO8 M M M M/-09/-11/1009/M/ M 09MM=
0058712230999992016010602004+51930-110720SAO  +077299999V020110190051199999999999999999-00881-01081999999REMAWY049XCS SA 0200 AUTO8 M M M M/-09/-11/1110/M/ M 88MM=
0049712230999992016010603004+51933-111600FM-12+077299999V0201371N0049199999999999999999-00951-01121999999ADDAA101999999AA206999999AA324999999REMSYN004BUFR
0058712230999992016010603004+51930-110720SAO  +077299999V020140190051199999999999999999-00881-01081999999REMAWY049XCS SA 0300 AUTO8 M M M M/-09/-11/1410/M/ M 88MM=
0058712230999992016010604004+51930-110720SAO  +077299999V020110190046199999999999999999-00891-00951999999REMAWY049XCS SA 0400 AUTO8 M M M M/-09/-10/1109/M/ M 95MM=
0058712230999992016010605004+51930-110720SAO  +077299999V020110190051199999999999999999-00901-01061999999REMAWY049XCS SA 0500 AUTO8 M M M M/-09/-11/1110/M/ M 06MM=
0118712230999992016010606004+51933-110700FM-12+077299999V0200901N004619999999N999999999-00891-01061999999ADDAA106000091AA224000091KA1240M-00881KA2240N-01711REMSYN05871223 16/// /0909 11089 21106 60001 333 11088 21171 70000=
0058712230999992016010606004+51930-110720SAO  +077299999V020090190046199999999999999999-00891-01061999999REMAWY049XCS SA 0600 AUTO8 M M M M/-09/-11/0909/M/ M 96MM=
0058712230999992016010607004+51930-110720SAO  +077299999V020090190031199999999999999999-01041-01191999999REMAWY049XCS SA 0700 AUTO8 M M M M/-10/-12/0906/M/ M 49MM=
0058712230999992016010608004+51930-110720SAO  +077299999V020070190026199999999999999999-01101-01211999999REMAWY049XCS SA 0800 AUTO8 M M M M/-11/-12/0705/M/ M 01MM=
0049712230999992016010609004+51933-111600FM-12+077299999V0200791N0023199999999999999999-01131-01201999999ADDAA101999999AA206999999AA324999999REMSYN004BUFR
0058712230999992016010609004+51930-110720SAO  +077299999V020080190026199999999999999999-01071-01191999999REMAWY049XCS SA 0900 AUTO8 M M M M/-11/-12/0805/M/ M 79MM=
0058712230999992016010610004+51930-110720SAO  +077299999V020080190015199999999999999999-01041-01151999999REMAWY049XCS SA 1000 AUTO8 M M M M/-10/-12/0803/M/ M 45MM=
0058712230999992016010611004+51930-110720SAO  +077299999V020060190031199999999999999999-00851-00951999999REMAWY049XCS SA 1100 AUTO8 M M M M/-09/-10/0606/M/ M 55MM=
0118712230999992016010612004+51933-110700FM-12+077299999V0200701N003119999999N999999999-00931-01051999999ADDAA106000091AA224000091KA1240M-00881KA2240N-01261REMSYN05871223 16/// /0706 11093 21105 60001 333 11088 21126 70000=
0058712230999992016010612004+51930-110720SAO  +077299999V020070190031199999999999999999-00931-00951999999REMAWY049XCS SA 1200 AUTO8 M M M M/-09/-10/0706/M/ M 35MM=
0058712230999992016010613004+51930-110720SAO  +077299999V020070190015199999999999999999-00911-01031999999REMAWY049XCS SA 1300 AUTO8 M M M M/-09/-10/0703/M/ M 13MM=
0058712230999992016010614004+51930-110720SAO  +077299999V020050190005199999999999999999-01021-01181999999REMAWY049XCS SA 1400 AUTO8 M M M M/-10/-12/0501/M/ M 28MM=
0049712230999992016010615004+51933-111600FM-12+077299999V0200691N0015199999999999999999-00941-01051999999ADDAA101999999AA206999999AA324999999REMSYN004BUFR
0058712230999992016010615004+51930-110720SAO  +077299999V020070190021199999999999999999-00881-00991999999REMAWY049XCS SA 1500 AUTO8 M M M M/-09/-10/0704/M/ M 89MM=
0058712230999992016010616004+51930-110720SAO  +077299999V020070190021199999999999999999-00861-00971999999REMAWY049XCS SA 1600 AUTO8 M M M M/-09/-10/0704/M/ M 67MM=
0058712230999992016010617004+51930-110720SAO  +077299999V020060190010199999999999999999-00811-00931999999REMAWY049XCS SA 1700 AUTO8 M M M M/-08/-09/0602/M/ M 13MM=
0118712230999992016010618004+51933-110700FM-12+077299999V0200501N002119999999N999999999-00751-00901999999ADDAA106000091AA224000091KA1120M-00751KA2120N-01271REMSYN05871223 16/// /0504 11075 21090 60001 333 11075 21127 70000=
0058712230999992016010618004+51930-110720SAO  +077299999V020050190021199999999999999999-00751-00901999999REMAWY049XCS SA 1800 AUTO8 M M M M/-08/-09/0504/M/ M 50MM=
0058712230999992016010619004+51930-110720SAO  +077299999V020070190015199999999999999999-00701-00871999999REMAWY049XCS SA 1900 AUTO8 M M M M/-07/-09/0703/M/ M 07MM=
0058712230999992016010620004+51930-110720SAO  +077299999V020060190010199999999999999999-00681-00861999999REMAWY049XCS SA 2000 AUTO8 M M M M/-07/-09/0602/M/ M 86MM=
0049712230999992016010621004+51933-111600FM-12+077299999V0200071N0010199999999999999999-00651-00921999999ADDAA101999999AA206999999AA324999999REMSYN004BUFR
0058712230999992016010621004+51930-110720SAO  +077299999V020010190015199999999999999999-00551-00831999999REMAWY049XCS SA 2100 AUTO8 M M M M/-06/-08/0103/M/ M 53MM=
0058712230999992016010622004+51930-110720SAO  +077299999V020020190031199999999999999999-00641-00811999999REMAWY049XCS SA 2200 AUTO8 M M M M/-06/-08/0206/M/ M 41MM=
0058712230999992016010623004+51930-110720SAO  +077299999V020020190026199999999999999999-00551-00801999999REMAWY049XCS SA 2300 AUTO8 M M M M/-06/-08/0205/M/ M 50MM=
0118712230999992016010700004+51933-110700FM-12+077299999V0203201N004119999999N999999999-00801-00911999999ADDAA106000091AA224000091KA1120M-00641KA2120N-01261REMSYN05871223 16/// /3208 11080 21091 60001 333 11064 21126 70000=
0058712230999992016010700004+51930-110720SAO  +077299999V020320190041199999999999999999-00801-00911999999REMAWY049XCS SA 0000 AUTO8 M M M M/-08/-09/3208/M/ M 01MM=
0058712230999992016010701004+51930-110720SAO  +077299999V020320190046199999999999999999-00751-00931999999REMAWY049XCS SA 0100 AUTO8 M M M M/-08/-09/3209/M/ M 53MM=
0058712230999992016010702004+51930-110720SAO  +077299999V020320190046199999999999999999-00891-00981999999REMAWY049XCS SA 0200 AUTO8 M M M M/-09/-10/3209/M/ M 98MM=
0049712230999992016010703004+51933-111600FM-12+077299999V0203121N0030199999999999999999-01031-01061999999ADDAA101999999AA206999999AA324999999REMSYN004BUFR
0058712230999992016010703004+51930-110720SAO  +077299999V020310190041199999999999999999-00951-00951999999REMAWY049XCS SA 0300 AUTO8 M M M M/-10/-10/3108/M/ M 55MM=
0058712230999992016010704004+51930-110720SAO  +077299999V020310190062199999999999999999-00941-01041999999REMAWY049XCS SA 0400 AUTO8 M M M M/-09/-10/3112/M/ M 44MM=
0058712230999992016010705004+51930-110720SAO  +077299999V020310190046199999999999999999-00921-01031999999REMAWY049XCS SA 0500 AUTO8 M M M M/-09/-10/3109/M/ M 23MM=
0118712230999992016010706004+51933-110700FM-12+077299999V0203101N004119999999N999999999-00911-01021999999ADDAA106000091AA224000091KA1240M-00641KA2240N-01261REMSYN05871223 16/// /3108 11091 21102 60001 333 11064 21126 70000=
0058712230999992016010706004+51930-110720SAO  +077299999V020310190041199999999999999999-00911-01021999999REMAWY049XCS SA 0600 AUTO8 M M M M/-09/-10/3108/M/ M 12MM=
0058712230999992016010707004+51930-110720SAO  +077299999V020310190041199999999999999999-00881-00991999999REMAWY049XCS SA 0700 AUTO8 M M M M/-09/-10/3108/M/ M 89MM=
0058712230999992016010708004+51930-110720SAO  +077299999V020320190041199999999999999999-00751-00951999999REMAWY049XCS SA 0800 AUTO8 M M M M/-08/-10/3208/M/ M 55MM=
0049712230999992016010709004+51933-111600FM-12+077299999V0203191N0030199999999999999999-00911-01041999999ADDAA101999999AA206999999AA324999999REMSYN004BUFR
0058712230999992016010709004+51930-110720SAO  +077299999V020320190031199999999999999999-00841-00951999999REMAWY049XCS SA 0900 AUTO8 M M M M/-08/-10/3206/M/ M 45MM=
0058712230999992016010710004+51930-110720SAO  +077299999V020350190041199999999999999999-00871-00981999999REMAWY049XCS SA 1000 AUTO8 M M M M/-09/-10/3508/M/ M 78MM=
0095712230999992016010711004+51930-110720SAO  +077299999V020340190046199999999999999999-00961-01081999999ADDAA101000431REMAWY072XCS SA 1100 AUTO8 M M M M/-10/-11/3409/M/0004 PCPN 0.4MM PAST HR M 68MM=
0132712230999992016010712004+51933-110700FM-12+077299999V0203501N004119999999N999999999-01051-01181999999ADDAA106000431AA224000431AZ141021KA1240M-00641KA2240N-01051REMSYN06471223 17/// /3508 11105 21118 69941 7//4/ 333 11064 21105 70004=
0062712230999992016010712004+51930-110720SAO  +077299999V020350190041199999999999999999-00951-01181999999REMAWY053XCS SA 1200 AUTO8 M M M M/-10/-12/3508/M/0004 M 58MM=
0058712230999992016010713004+51930-110720SAO  +077299999V020350190031199999999999999999-01131-01261999999REMAWY049XCS SA 1300 AUTO8 M M M M/-11/-13/3506/M/ M 36MM=
0058712230999992016010714004+51930-110720SAO  +077299999V020360190036199999999999999999-01121-01151999999REMAWY049XCS SA 1400 AUTO8 M M M M/-11/-12/3607/M/ M 25MM=
0049712230999992016010715004+51933-111600FM-12+077299999V0203541N0049199999999999999999-01161-01301999999ADDAA101999999AA206999999AA324000431REMSYN004BUFR
0058712230999992016010715004+51930-110720SAO  +077299999V020350190051199999999999999999-01161-01301999999REMAWY049XCS SA 1500 AUTO8 M M M M/-12/-13/3510/M/ M 60MM=
0058712230999992016010716004+51930-110720SAO  +077299999V020340190051199999999999999999-01221-01361999999REMAWY049XCS SA 1600 AUTO8 M M M M/-12/-14/3410/M/ M 26MM=
0058712230999992016010717004+51930-110720SAO  +077299999V020350190067199999999999999999-01221-01361999999REMAWY049XCS SA 1700 AUTO8 M M M M/-12/-14/3513/M/ M 26MM=
0118712230999992016010718004+51933-110700FM-12+077299999V0203601N005719999999N999999999-01211-01361999999ADDAA106000091AA224000431KA1120M-00821KA2120N-01221REMSYN05871223 16/// /3611 11121 21136 60001 333 11082 21122 70004=
0093712230999992016010718004+51930-110720SAO  +077299999V020360190057199999999999999999-01211-01361999999ADDOD130100871350REMAWY067XCS SA 1800 AUTO8 M M M M/-12/-14/3611/M/ PK WND 3517 1738Z M 16MM=
0058712230999992016010719004+51930-110720SAO  +077299999V020350190057199999999999999999-01211-01361999999REMAWY049XCS SA 1900 AUTO8 M M M M/-12/-14/3511/M/ M 16MM=
0058712230999992016010720004+51930-110720SAO  +077299999V020340190062199999999999999999-01281-01431999999REMAWY049XCS SA 2000 AUTO8 M M M M/-13/-14/3412/M/ M 83MM=
0049712230999992016010721004+51933-111600FM-12+077299999V0203411N0073199999999999999999-01401-01561999999ADDAA101999999AA206999999AA324000431REMSYN004BUFR
0093712230999992016010721004+51930-110720SAO  +077299999V020340190077199999999999999999-01251-01511999999ADDOD130100931350REMAWY067XCS SA 2100 AUTO8 M M M M/-13/-15/3415/M/ PK WND 3518 2058Z M 51MM=
0093712230999992016010722004+51930-110720SAO  +077299999V020360190057199999999999999999-01331-01491999999ADDOD130100981340REMAWY067XCS SA 2200 AUTO8 M M M M/-13/-15/3611/M/ PK WND 3419 2107Z M 39MM=
0058712230999992016010723004+51930-110720SAO  +077299999V020360190041199999999999999999-01381-01541999999REMAWY049XCS SA 2300 AUTO8 M M M M/-14/-15/3608/M/ M 84MM=
0118712230999992016010800004+51933-110700FM-12+077299999V0203501N004619999999N999999999-01421-01581999999ADDAA106000091AA224000431KA1120M-01051KA2120N-01421REMSYN05871223 16/// /3509 11142 21158 60001 333 11105 21142 70004=
0058712230999992016010800004+51930-110720SAO  +077299999V020350190046199999999999999999-01421-01581999999REMAWY049XCS SA 0000 AUTO8 M M M M/-14/-16/3509/M/ M 28MM=
0058712230999992016010801004+51930-110720SAO  +077299999V020350190057199999999999999999-01481-01551999999REMAWY049XCS SA 0100 AUTO8 M M M M/-15/-16/3511/M/ M 85MM=
0058712230999992016010802004+51930-110720SAO  +077299999V020350190051199999999999999999-01421-01581999999REMAWY049XCS SA 0200 AUTO8 M M M M/-14/-16/3510/M/ M 28MM=
0049712230999992016010803004+51933-111600FM-12+077299999V0203381N0024199999999999999999-01371-01541999999ADDAA101999999AA206999999AA324000431REMSYN004BUFR
0058712230999992016010803004+51930-110720SAO  +077299999V020340190031199999999999999999-01381-01541999999REMAWY049XCS SA 0300 AUTO8 M M M M/-14/-15/3406/M/ M 84MM=
0058712230999992016010804004+51930-110720SAO  +077299999V020340190026199999999999999999-01381-01541999999REMAWY049XCS SA 0400 AUTO8 M M M M/-14/-15/3405/M/ M 84MM=
0058712230999992016010805004+51930-110720SAO  +077299999V020320190036199999999999999999-01411-01571999999REMAWY049XCS SA 0500 AUTO8 M M M M/-14/-16/3207/M/ M 17MM=
0134712230999992016010806004+51933-110700FM-12+077299999V0203301N004119999999N999999999-01421-01581999999ADDAA106000091AA224000431KA1240M-00821KA2240N-01481REMSYN07471223 16/// /3308 11142 21158 60001 333 11082 21148 70004 555 33419 40220=
0058712230999992016010806004+51930-110720SAO  +077299999V020330190041199999999999999999-01421-01581999999REMAWY049XCS SA 0600 AUTO8 M M M M/-14/-16/3308/M/ M 28MM=
0058712230999992016010807004+51930-110720SAO  +077299999V020340190041199999999999999999-01421-01581999999REMAWY049XCS SA 0700 AUTO8 M M M M/-14/-16/3408/M/ M 28MM=
0058712230999992016010808004+51930-110720SAO  +077299999V020320190036199999999999999999-01431-01601999999REMAWY049XCS SA 0800 AUTO8 M M M M/-14/-16/3207/M/ M 30MM=
0049712230999992016010809004+51933-111600FM-12+077299999V0203111N0023199999999999999999-01441-01621999999ADDAA101999999AA206999999AA324000431REMSYN004BUFR
0058712230999992016010809004+51930-110720SAO  +077299999V020310190026199999999999999999-01441-01601999999REMAWY049XCS SA 0900 AUTO8 M M M M/-14/-16/3105/M/ M 40MM=
0058712230999992016010810004+51930-110720SAO  +077299999V020300190026199999999999999999-01441-01601999999REMAWY049XCS SA 1000 AUTO8 M M M M/-14/-16/3005/M/ M 40MM=
0058712230999992016010811004+51930-110720SAO  +077299999V020290190036199999999999999999-01351-01611999999REMAWY049XCS SA 1100 AUTO8 M M M M/-14/-16/2907/M/ M 51MM=
0118712230999992016010812004+51933-110700FM-12+077299999V0203101N003619999999N999999999-01471-01641999999ADDAA106000091AA224000091KA1240M-00821KA2240N-01481REMSYN05871223 16/// /3107 11147 21164 60001 333 11082 21148 70000=
0058712230999992016010812004+51930-110720SAO  +077299999V020310190036199999999999999999-01471-01641999999REMAWY049XCS SA 1200 AUTO8 M M M M/-15/-16/3107/M/ M 74MM=
0058712230999992016010813004+51930-110720SAO  +077299999V020300190036199999999999999999-01471-01641999999REMAWY049XCS SA 1300 AUTO8 M M M M/-15/-16/3007/M/ M 74MM=
0058712230999992016010814004+51930-110720SAO  +077299999V020290190026199999999999999999-01471-01641999999REMAWY049XCS SA 1400 AUTO8 M M M M/-15/-16/2905/M/ M 74MM=
0049712230999992016010815004+51933-111600FM-12+077299999V0202971N0024199999999999999999-01521-01711999999ADDAA101999999AA206999999AA324999999REMSYN004BUFR
0058712230999992016010815004+51930-110720SAO  +077299999V020300190031199999999999999999-01491-01671999999REMAWY049XCS SA 1500 AUTO8 M M M M/-15/-17/3006/M/ M 97MM=
0058712230999992016010816004+51930-110720SAO  +077299999V020290190031199999999999999999-01531-01701999999REMAWY049XCS SA 1600 AUTO8 M M M M/-15/-17/2906/M/ M 30MM=
0058712230999992016010817004+51930-110720SAO  +077299999V020280190021199999999999999999-01511-01691999999REMAWY049XCS SA 1700 AUTO8 M M M M/-15/-17/2804/M/ M 19MM=
0118712230999992016010818004+51933-110700FM-12+077299999V0202701N002619999999N999999999-01511-01681999999ADDAA106000431AA224000431KA1120M-01421KA2120N-01531REMSYN05871223 16/// /2705 11151 21168 69941 333 11142 21153 70004=
0095712230999992016010818004+51930-110720SAO  +077299999V020270190026199999999999999999-01511-01681999999ADDAA101000431REMAWY072XCS SA 1800 AUTO8 M M M M/-15/-17/2705/M/0004 PCPN 0.4MM PAST HR M 18MM=
0058712230999992016010819004+51930-110720SAO  +077299999V020300190026199999999999999999-01491-01671999999REMAWY049XCS SA 1900 AUTO8 M M M M/-15/-17/3005/M/ M 97MM=
0058712230999992016010820004+51930-110720SAO  +077299999V020290190021199999999999999999-01471-01641999999REMAWY049XCS SA 2000 AUTO8 M M M M/-15/-16/2904/M/ M 74MM=
0049712230999992016010821004+51933-111600FM-12+077299999V0202901N0020199999999999999999-01461-01641999999ADDAA101999999AA206999999AA324999999REMSYN004BUFR
0058712230999992016010821004+51930-110720SAO  +077299999V020290190021199999999999999999-01471-01641999999REMAWY049XCS SA 2100 AUTO8 M M M M/-15/-16/2904/M/ M 74MM=
0058712230999992016010822004+51930-110720SAO  +077299999V020300190015199999999999999999-01471-01551999999REMAWY049XCS SA 2200 AUTO8 M M M M/-15/-16/3003/M/ M 75MM=
0058712230999992016010823004+51930-110720SAO  +077299999V020260190026199999999999999999-01561-01741999999REMAWY049XCS SA 2300 AUTO8 M M M M/-16/-17/2605/M/ M 64MM=
0118712230999992016010900004+51933-110700FM-12+077299999V0202601N002619999999N999999999-01581-01761999999ADDAA106000091AA224000431KA1120M-01461KA2120N-01581REMSYN05871223 16/// /2605 11158 21176 60001 333 11146 21158 70004=
0058712230999992016010900004+51930-110720SAO  +077299999V020260190026199999999999999999-01581-01761999999REMAWY049XCS SA 0000 AUTO8 M M M M/-16/-18/2605/M/ M 86MM=
0058712230999992016010901004+51930-110720SAO  +077299999V020280190021199999999999999999-01571-01751999999REMAWY049XCS SA 0100 AUTO8 M M M M/-16/-18/2804/M/ M 75MM=
0058712230999992016010902004+51930-110720SAO  +077299999V020280190021199999999999999999-01531-01711999999REMAWY049XCS SA 0200 AUTO8 M M M M/-15/-17/2804/M/ M 31MM=
0049712230999992016010903004+51933-111600FM-12+077299999V0202021N0010199999999999999999-01601-01701999999ADDAA101999999AA206999999AA324999999REMSYN004BUFR
0058712230999992016010903004+51930-110720SAO  +077299999V020200190010199999999999999999-01521-01701999999REMAWY049XCS SA 0300 AUTO8 M M M M/-15/-17/2002/M/ M 20MM=
0058712230999992016010904004+51930-110720SAO  +077299999V020250190026199999999999999999-01571-01751999999REMAWY049XCS SA 0400 AUTO8 M M M M/-16/-18/2505/M/ M 75MM=
0058712230999992016010905004+51930-110720SAO  +077299999V020250190015199999999999999999-01621-01811999999REMAWY049XCS SA 0500 AUTO8 M M M M/-16/-18/2503/M/ M 21MM=
0118712230999992016010906004+51933-110700FM-12+077299999V0202401N003119999999N999999999-01651-01841999999ADDAA106000091AA224000431KA1240M-01421KA2240N-01651REMSYN05871223 16/// /2406 11165 21184 60001 333 11142 21165 70004=
0058712230999992016010906004+51930-110720SAO  +077299999V020240190031199999999999999999-01651-01841999999REMAWY049XCS SA 0600 AUTO8 M M M M/-17/-18/2406/M/ M 54MM=
0058712230999992016010907004+51930-110720SAO  +077299999V020200190021199999999999999999-01681-01871999999REMAWY049XCS SA 0700 AUTO8 M M M M/-17/-19/2004/M/ M 87MM=
0058712230999992016010908004+51930-110720SAO  +077299999V020210190036199999999999999999-01761-01971999999REMAWY049XCS SA 0800 AUTO8 M M M M/-18/-20/2107/M/ M 67MM=
0049712230999992016010909004+51933-111600FM-12+077299999V0202171N0027199999999999999999-01871-02091999999ADDAA101999999AA206999999AA324999999REMSYN004BUFR
0058712230999992016010909004+51930-110720SAO  +077299999V020220190031199999999999999999-01881-02091999999REMAWY049XCS SA 0900 AUTO8 M M M M/-19/-21/2206/M/ M 89MM=
0058712230999992016010910004+51930-110720SAO  +077299999V020200190026199999999999999999-01851-02171999999REMAWY049XCS SA 1000 AUTO8 M M M M/-19/-22/2005/M/ M 57MM=
0058712230999992016010911004+51930-110720SAO  +077299999V020230190031199999999999999999-01911-02121999999REMAWY049XCS SA 1100 AUTO8 M M M M/-19/-21/2306/M/ M 12MM=
0118712230999992016010912004+51933-110700FM-12+077299999V0202101N002119999999N999999999-01881-02091999999ADDAA106000091AA224000431KA1240M-01421KA2240N-01951REMSYN05871223 16/// /2104 11188 21209 60001 333 11142 21195 70004=
0058712230999992016010912004+51930-110720SAO  +077299999V020210190021199999999999999999-01881-02091999999REMAWY049XCS SA 1200 AUTO8 M M M M/-19/-21/2104/M/ M 89MM=
0058712230999992016010913004+51930-110720SAO  +077299999V020220190026199999999999999999-01901-02121999999REMAWY049XCS SA 1300 AUTO8 M M M M/-19/-21/2205/M/ M 02MM=
0058712230999992016010914004+51930-110720SAO  +077299999V020220190021199999999999999999-01921-02131999999REMAWY049XCS SA 1400 AUTO8 M M M M/-19/-21/2204/M/ M 23MM=
0049712230999992016010915004+51933-110717FM-12+077299999V0202271N0029199999999999999999-02031-02201999999ADDAA101999999AA206999999AA324999999REMSYN004BUFR
0058712230999992016010915004+51930-110720SAO  +077299999V020230190031199999999999999999-01971-02191999999REMAWY049XCS SA 1500 AUTO8 M M M M/-20/-22/2306/M/ M 79MM=
0058712230999992016010916004+51930-110720SAO  +077299999V020220190036199999999999999999-01961-02191999999REMAWY049XCS SA 1600 AUTO8 M M M M/-20/-22/2207/M/ M 69MM=
0058712230999992016010917004+51930-110720SAO  +077299999V020220190021199999999999999999-01921-02141999999REMAWY049XCS SA 1700 AUTO8 M M M M/-19/-21/2204/M/ M 24MM=
0118712230999992016010918004+51933-110700FM-12+077299999V0202301N002619999999N999999999-01961-02191999999ADDAA106000091AA224000091KA1120M-01651KA2120N-01971REMSYN05871223 16/// /2305 11196 21219 60001 333 11165 21197 70000=
0058712230999992016010918004+51930-110720SAO  +077299999V020230190026199999999999999999-01961-02191999999REMAWY049XCS SA 1800 AUTO8 M M M M/-20/-22/2305/M/ M 69MM=
0058712230999992016010919004+51930-110720SAO  +077299999V020230190031199999999999999999-01901-02121999999REMAWY049XCS SA 1900 AUTO8 M M M M/-19/-21/2306/M/ M 02MM=
0058712230999992016010920004+51930-110720SAO  +077299999V020240190031199999999999999999-01931-02161999999REMAWY049XCS SA 2000 AUTO8 M M M M/-19/-22/2406/M/ M 36MM=
0049712230999992016010921004+51933-110717FM-12+077299999V0202401N0026199999999999999999-02011-02251999999ADDAA101999999AA206999999AA324999999REMSYN004BUFR
0058712230999992016010921004+51930-110720SAO  +077299999V020240190026199999999999999999-02011-02151999999REMAWY049XCS SA 2100 AUTO8 M M M M/-20/-22/2405/M/ M 15MM=
0058712230999992016010922004+51930-110720SAO  +077299999V020240190021199999999999999999-02021-02151999999REMAWY049XCS SA 2200 AUTO8 M M M M/-20/-22/2404/M/ M 25MM=
0058712230999992016010923004+51930-110720SAO  +077299999V020250190021199999999999999999-02031-02261999999REMAWY049XCS SA 2300 AUTO8 M M M M/-20/-23/2504/M/ M 36MM=
0118712230999992016011000004+51933-110700FM-12+077299999V0202401N001519999999N999999999-02001-02221999999ADDAA106000091AA224000091KA1120M-01871KA2120N-02051REMSYN05871223 16/// /2403 11200 21222 60001 333 11187 21205 70000=
0058712230999992016011000004+51930-110720SAO  +077299999V020240190015199999999999999999-01991-02221999999REMAWY049XCS SA 0000 AUTO8 M M M M/-20/-22/2403/M/ M 92MM=
0058712230999992016011001004+51930-110720SAO  +077299999V020230190010199999999999999999-01971-02201999999REMAWY049XCS SA 0100 AUTO8 M M M M/-20/-22/2302/M/ M 70MM=
0058712230999992016011002004+51930-110720SAO  +077299999V020360190000199999999999999999-01991-02231999999REMAWY049XCS SA 0200 AUTO8 M M M M/-20/-22/0000/M/ M 93MM=
0049712230999992016011003004+51933-111600FM-12+077299999V0203601N0000199999999999999999-02141-02321999999ADDAA101999999AA206999999AA324999999REMSYN004BUFR
0058712230999992016011003004+51930-110720SAO  +077299999V020360190000199999999999999999-02061-02301999999REMAWY049XCS SA 0300 AUTO8 M M M M/-21/-23/0000/M/ M 60MM=
0058712230999992016011004004+51930-110720SAO  +077299999V020260190005199999999999999999-02111-02351999999REMAWY049XCS SA 0400 AUTO8 M M M M/-21/-24/2601/M/ M 15MM=
0058712230999992016011005004+51930-110720SAO  +077299999V020260190005199999999999999999-02111-02361999999REMAWY049XCS SA 0500 AUTO8 M M M M/-21/-24/2601/M/ M 16MM=
0118712230999992016011006004+51933-110700FM-12+077299999V0202601N000519999999N999999999-02051-02291999999ADDAA106000091AA224000091KA1240M-01651KA2240N-02121REMSYN05871223 16/// /2601 11205 21229 60001 333 11165 21212 70000=
0058712230999992016011006004+51930-110720SAO  +077299999V020260190005199999999999999999-02051-02291999999REMAWY049XCS SA 0600 AUTO8 M M M M/-21/-23/2601/M/ M 59MM=
0058712230999992016011007004+51930-110720SAO  +077299999V020260190005199999999999999999-02031-02261999999REMAWY049XCS SA 0700 AUTO8 M M M M/-20/-23/2601/M/ M 36MM=
0058712230999992016011008004+51930-110720SAO  +077299999V020260190005199999999999999999-01951-02291999999REMAWY049XCS SA 0800 AUTO8 M M M M/-20/-23/2601/M/ M 59MM=
0049712230999992016011009004+51933-111600FM-12+077299999V0202621N0000199999999999999999-02001-02241999999ADDAA101999999AA206999999AA324999999REMSYN004BUFR
0058712230999992016011009004+51930-110720SAO  +077299999V020260190005199999999999999999-01851-02171999999REMAWY049XCS SA 0900 AUTO8 M M M M/-19/-22/2601/M/ M 57MM=
0058712230999992016011010004+51930-110720SAO  +077299999V020270190005199999999999999999-01751-02071999999REMAWY049XCS SA 1000 AUTO8 M M M M/-18/-21/2701/M/ M 57MM=
0058712230999992016011011004+51930-110720SAO  +077299999V020250190005199999999999999999-01951-02181999999REMAWY049XCS SA 1100 AUTO8 M M M M/-20/-22/2501/M/ M 58MM=
0118712230999992016011012004+51933-110700FM-12+077299999V0209999C000019999999N999999999-01981-02201999999ADDAA106000091AA224000091KA1240M-01651KA2240N-02121REMSYN05871223 16/// /0000 11198 21220 60001 333 11165 21212 70000=
0058712230999992016011012004+51930-110720SAO  +077299999V020360190000199999999999999999-01981-02201999999REMAWY049XCS SA 1200 AUTO8 M M M M/-20/-22/0000/M/ M 80MM=
0058712230999992016011013004+51930-110720SAO  +077299999V020260190005199999999999999999-01831-01951999999REMAWY049XCS SA 1300 AUTO8 M M M M/-18/-20/2601/M/ M 35MM=
0058712230999992016011014004+51930-110720SAO  +077299999V020280190005199999999999999999-01481-01551999999REMAWY049XCS SA 1400 AUTO8 M M M M/-15/-16/2801/M/ M 85MM=
0049712230999992016011015004+51933-111600FM-12+077299999V0202861N0076199999999999999999-01381-01531999999ADDAA101999999AA206999999AA324999999REMSYN004BUFR
0093712230999992016011015004+51930-110720SAO  +077299999V020290190077199999999999999999-01301-01461999999ADDOD130100871290REMAWY067XCS SA 1500 AUTO8 M M M M/-13/-15/2915/M/ PK WND 2917 1452Z M 06MM=
0093712230999992016011016004+51930-110720SAO  +077299999V020280190072199999999999999999-01171-01311999999ADDOD130100931280REMAWY067XCS SA 1600 AUTO8 M M M M/-12/-13/2814/M/ PK WND 2818 1558Z M 71MM=
0093712230999992016011017004+51930-110720SAO  +077299999V020290190077199999999999999999-01001-01121999999ADDOD130101031290REMAWY067XCS SA 1700 AUTO8 M M M M/-10/-11/2915/M/ PK WND 2920 1625Z M 02MM=
0118712230999992016011018004+51933-110700FM-12+077299999V0202901N007219999999N999999999-00791-00911999999ADDAA106000091AA224000091KA1120M-00791KA2120N-02121REMSYN05871223 16/// /2914 11079 21091 60001 333 11079 21212 70000=
0093712230999992016011018004+51930-110720SAO  +077299999V020290190072199999999999999999-00791-00911999999ADDOD130100871290REMAWY067XCS SA 1800 AUTO8 M M M M/-08/-09/2914/M/ PK WND 2917 1721Z M 91MM=
0093712230999992016011019004+51930-110720SAO  +077299999V020300190077199999999999999999-00641-00781999999ADDOD130100931290REMAWY067XCS SA 1900 AUTO8 M M M M/-06/-08/3015/M/ PK WND 2918 1834Z M 48MM=
0093712230999992016011020004+51930-110720SAO  +077299999V020300190087199999999999999999-00471-00661999999ADDOD130101031300REMAWY067XCS SA 2000 AUTO8 M M M M/-05/-07/3017/M/ PK WND 3020 1946Z M 76MM=
0049712230999992016011021004+51933-111600FM-12+077299999V0203151N0090199999999999999999-00381-00641999999ADDAA101999999AA206999999AA324999999REMSYN004BUFR
0093712230999992016011021004+51930-110720SAO  +077299999V020320190098199999999999999999-00341-00611999999ADDOD130101391310REMAWY067XCS SA 2100 AUTO8 M M M M/-03/-06/3219/M/ PK WND 3127 2043Z M 41MM=
0093712230999992016011022004+51930-110720SAO  +077299999V020320190093199999999999999999-00301-00581999999ADDOD130101131330REMAWY067XCS SA 2200 AUTO8 M M M M/-03/-06/3218/M/ PK WND 3322 2129Z M 08MM=
0093712230999992016011023004+51930-110720SAO  +077299999V020310190082199999999999999999-00291-00541999999ADDOD130101181310REMAWY067XCS SA 2300 AUTO8 M M M M/-03/-05/3116/M/ PK WND 3123 2223Z M 94MM=
0118712230999992016011100004+51933-110700FM-12+077299999V0203001N008819999999N999999999-00311-00561999999ADDAA106000091AA224000091KA1120M-00271KA2120N-02071REMSYN05871223 16/// /3017 11031 21056 60001 333 11027 21207 70000=
0093712230999992016011100004+51930-110720SAO  +077299999V020300190087199999999999999999-00311-00561999999ADDOD130101081310REMAWY067XCS SA 0000 AUTO8 M M M M/-03/-06/3017/M/ PK WND 3121 2352Z M 16MM=
0093712230999992016011101004+51930-110720SAO  +077299999V020290190082199999999999999999-00291-00531999999ADDOD130101031300REMAWY067XCS SA 0100 AUTO8 M M M M/-03/-05/2916/M/ PK WND 3020 0003Z M 93MM=
0093712230999992016011102004+51930-110720SAO  +077299999V020290190072199999999999999999-00501-00701999999ADDOD130100981300REMAWY067XCS SA 0200 AUTO8 M M M M/-05/-07/2914/M/ PK WND 3019 0102Z M 00MM=
0049712230999992016011103004+51933-111600FM-12+077299999V0202821N0064199999999999999999-00621-00811999999ADDAA101999999AA206999999AA324999999REMSYN004BUFR
0093712230999992016011103004+51930-110720SAO  +077299999V020280190072199999999999999999-00631-00811999999ADDOD130100871290REMAWY067XCS SA 0300 AUTO8 M M M M/-06/-08/2814/M/ PK WND 2917 0205Z M 31MM=
0093712230999992016011104004+51930-110720SAO  +077299999V020280190067199999999999999999-00671-00871999999ADDOD130100871280REMAWY067XCS SA 0400 AUTO8 M M M M/-07/-09/2813/M/ PK WND 2817 0353Z M 77MM=
0093712230999992016011105004+51930-110720SAO  +077299999V020290190077199999999999999999-00711-00901999999ADDOD130100871280REMAWY067XCS SA 0500 AUTO8 M M M M/-07/-09/2915/M/ PK WND 2817 0452Z M 10MM=
0134712230999992016011106004+51933-110700FM-12+077299999V0203001N007219999999N999999999-00741-00951999999ADDAA106000091AA224000091KA1240M-00271KA2240N-02071REMSYN07471223 16/// /3014 11074 21095 60001 333 11027 21207 70000 555 33127 40211=
0093712230999992016011106004+51930-110720SAO  +077299999V020300190072199999999999999999-00741-00951999999ADDOD130100871290REMAWY067XCS SA 0600 AUTO8 M M M M/-07/-10/3014/M/ PK WND 2917 0546Z M 45MM=
0058712230999992016011107004+51930-110720SAO  +077299999V020290190051199999999999999999-00701-00911999999REMAWY049XCS SA 0700 AUTO8 M M M M/-07/-09/2910/M/ M 01MM=
0058712230999992016011108004+51930-110720SAO  +077299999V020290190051199999999999999999-00771-00981999999REMAWY049XCS SA 0800 AUTO8 M M M M/-08/-10/2910/M/ M 78MM=
0049712230999992016011109004+51933-111600FM-12+077299999V0202851N0068199999999999999999-00691-00841999999ADDAA101999999AA206999999AA324999999REMSYN004BUFR
0058712230999992016011109004+51930-110720SAO  +077299999V020290190072199999999999999999-00631-00841999999REMAWY049XCS SA 0900 AUTO8 M M M M/-06/-08/2914/M/ M 34MM=
0093712230999992016011110004+51930-110720SAO  +077299999V020290190067199999999999999999-00521-00741999999ADDOD130100981290REMAWY067XCS SA 1000 AUTO8 M M M M/-05/-07/2913/M/ PK WND 2919 0921Z M 24MM=
0058712230999992016011111004+51930-110720SAO  +077299999V020290190067199999999999999999-00471-00691999999REMAWY049XCS SA 1100 AUTO8 M M M M/-05/-07/2913/M/ M 79MM=
0118712230999992016011112004+51933-110700FM-12+077299999V0203201N005719999999N999999999-00521-00731999999ADDAA106000091AA224000091KA1240M-00271KA2240N-00781REMSYN05871223 16/// /3211 11052 21073 60001 333 11027 21078 70000=
0058712230999992016011112004+51930-110720SAO  +077299999V020320190057199999999999999999-00521-00731999999REMAWY049XCS SA 1200 AUTO8 M M M M/-05/-07/3211/M/ M 23MM=
0093712230999992016011113004+51930-110720SAO  +077299999V020330190051199999999999999999-00581-00771999999ADDOD130100871330REMAWY067XCS SA 1300 AUTO8 M M M M/-06/-08/3310/M/ PK WND 3317 1222Z M 87MM=
0093712230999992016011114004+51930-110720SAO  +077299999V020330190072199999999999999999-00631-00881999999ADDOD130100981330REMAWY067XCS SA 1400 AUTO8 M M M M/-06/-09/3314/M/ PK WND 3319 1333Z M 38MM=
0049712230999992016011115004+51933-111600FM-12+077299999V0203311N0077199999999999999999-00771-00951999999ADDAA101999999AA206999999AA324999999REMSYN004BUFR
0093712230999992016011115004+51930-110720SAO  +077299999V020330190082199999999999999999-00741-00951999999ADDOD130101181330REMAWY067XCS SA 1500 AUTO8 M M M M/-07/-10/3316/M/ PK WND 3323 1444Z M 45MM=
0093712230999992016011116004+51930-110720SAO  +077299999V020330190051199999999999999999-00761-00941999999ADDOD130100931330REMAWY067XCS SA 1600 AUTO8 M M M M/-08/-09/3310/M/ PK WND 3318 1504Z M 64MM=
0093712230999992016011117004+51930-110720SAO  +077299999V020360190072199999999999999999-00991-01201999999ADDOD130101131350REMAWY067XCS SA 1700 AUTO8 M M M M/-10/-12/3614/M/ PK WND 3522 1629Z M 90MM=
0118712230999992016011118004+51933-110700FM-12+077299999V0203401N006219999999N999999999-01031-01271999999ADDAA106000091AA224000091KA1120M-00451KA2120N-01041REMSYN05871223 16/// /3412 11103 21127 60001 333 11045 21104 70000=
0093712230999992016011118004+51930-110720SAO  +077299999V020340190062199999999999999999-01031-01271999999ADDOD130100931350REMAWY067XCS SA 1800 AUTO8 M M M M/-10/-13/3412/M/ PK WND 3518 1706Z M 37MM=
0093712230999992016011119004+51930-110720SAO  +077299999V020340190057199999999999999999-01011-01261999999ADDOD130100871350REMAWY067XCS SA 1900 AUTO8 M M M M/-10/-13/3411/M/ PK WND 3517 1838Z M 16MM=
0058712230999992016011120004+51930-110720SAO  +077299999V020340190051199999999999999999-00991-01261999999REMAWY049XCS SA 2000 AUTO8 M M M M/-10/-13/3410/M/ M 96MM=
0049712230999992016011121004+51933-111600FM-12+077299999V0203371N0044199999999999999999-01081-01441999999ADDAA101999999AA206999999AA324999999REMSYN004BUFR
0058712230999992016011121004+51930-110720SAO  +077299999V020340190051199999999999999999-01071-01431999999REMAWY049XCS SA 2100 AUTO8 M M M M/-11/-14/3410/M/ M 73MM=
0058712230999992016011122004+51930-110720SAO  +077299999V020330190041199999999999999999-01121-01461999999REMAWY049XCS SA 2200 AUTO8 M M M M/-11/-15/3308/M/ M 26MM=
0058712230999992016011123004+51930-110720SAO  +077299999V020320190036199999999999999999-01111-01441999999REMAWY049XCS SA 2300 AUTO8 M M M M/-11/-14/3207/M/ M 14MM=
0118712230999992016011200004+51933-110700FM-12+077299999V0203501N002119999999N999999999-01241-01501999999ADDAA106000091AA224000091KA1120M-00511KA2120N-01241REMSYN05871223 16/// /3504 11124 21150 60001 333 11051 21124 70000=
0058712230999992016011200004+51930-110720SAO  +077299999V020350190021199999999999999999-01241-01501999999REMAWY049XCS SA 0000 AUTO8 M M M M/-12/-15/3504/M/ M 40MM=
0058712230999992016011201004+51930-110720SAO  +077299999V020040190026199999999999999999-01441-01701999999REMAWY049XCS SA 0100 AUTO8 M M M M/-14/-17/0405/M/ M 40MM=
0058712230999992016011202004+51930-110720SAO  +077299999V020060190005199999999999999999-01521-01701999999REMAWY049XCS SA 0200 AUTO8 M M M M/-15/-17/0601/M/ M 20MM=
0049712230999992016011203004+51933-111600FM-12+077299999V0201161N0015199999999999999999-01541-01771999999ADDAA101999999AA206999999AA324999999REMSYN004BUFR
0058712230999992016011203004+51930-110720SAO  +077299999V020120190015199999999999999999-01521-01691999999REMAWY049XCS SA 0300 AUTO8 M M M M/-15/-17/1203/M/ M 29MM=
0058712230999992016011204004+51930-110720SAO  +077299999V020200190010199999999999999999-01351-01611999999REMAWY049XCS SA 0400 AUTO8 M M M M/-14/-16/2002/M/ M 51MM=
0058712230999992016011205004+51930-110720SAO  +077299999V020220190015199999999999999999-01331-01521999999REMAWY049XCS SA 0500 AUTO8 M M M M/-13/-15/2203/M/ M 32MM=
0134712230999992016011206004+51933-110700FM-12+077299999V0200801N002119999999N999999999-01421-01581999999ADDAA106000091AA224000091KA1240M-00451KA2240N-01551REMSYN07471223 16/// /0804 11142 21158 60001 333 11045 21155 70000 555 33323 40151=
0058712230999992016011206004+51930-110720SAO  +077299999V020080190021199999999999999999-01421-01581999999REMAWY049XCS SA 0600 AUTO8 M M M M/-14/-16/0804/M/ M 28MM=
0058712230999992016011207004+51930-110720SAO  +077299999V020090190015199999999999999999-01421-01571999999REMAWY049XCS SA 0700 AUTO8 M M M M/-14/-16/0903/M/ M 27MM=
0058712230999992016011208004+51930-110720SAO  +077299999V020100190031199999999999999999-01371-01521999999REMAWY049XCS SA 0800 AUTO8 M M M M/-14/-15/1006/M/ M 72MM=
0049712230999992016011209004+51933-111600FM-12+077299999V0201001N0023199999999999999999-01331-01481999999ADDAA101999999AA206999999AA324999999REMSYN004BUFR
0058712230999992016011209004+51930-110720SAO  +077299999V020100190026199999999999999999-01331-01481999999REMAWY049XCS SA 0900 AUTO8 M M M M/-13/-15/1005/M/ M 38MM=
0058712230999992016011210004+51930-110720SAO  +077299999V020190190021199999999999999999-01241-01371999999REMAWY049XCS SA 1000 AUTO8 M M M M/-12/-14/1904/M/ M 47MM=
0058712230999992016011211004+51930-110720SAO  +077299999V020120190015199999999999999999-01161-01311999999REMAWY049XCS SA 1100 AUTO8 M M M M/-12/-13/1203/M/ M 61MM=
0118712230999992016011212004+51933-110700FM-12+077299999V0202001N004119999999N999999999-01031-01201999999ADDAA106000091AA224000091KA1240M-00451KA2240N-01551REMSYN05871223 16/// /2008 11103 21120 60001 333 11045 21155 70000=
0058712230999992016011212004+51930-110720SAO  +077299999V020200190041199999999999999999-01031-01201999999REMAWY049XCS SA 1200 AUTO8 M M M M/-10/-12/2008/M/ M 30MM=
0058712230999992016011213004+51930-110720SAO  +077299999V020220190026199999999999999999-01001-01151999999REMAWY049XCS SA 1300 AUTO8 M M M M/-10/-12/2205/M/ M 05MM=
0058712230999992016011214004+51930-110720SAO  +077299999V020210190026199999999999999999-00981-01121999999REMAWY049XCS SA 1400 AUTO8 M M M M/-10/-11/2105/M/ M 82MM=
0049712230999992016011215004+51933-111600FM-12+077299999V0202241N0037199999999999999999-01011-01151999999ADDAA101999999AA206999999AA324999999REMSYN004BUFR
0058712230999992016011215004+51930-110720SAO  +077299999V020220190041199999999999999999-00971-01121999999REMAWY049XCS SA 1500 AUTO8 M M M M/-10/-11/2208/M/ M 72MM=
0058712230999992016011216004+51930-110720SAO  +077299999V020240190021199999999999999999-00961-01101999999REMAWY049XCS SA 1600 AUTO8 M M M M/-10/-11/2404/M/ M 60MM=
0058712230999992016011217004+51930-110720SAO  +077299999V020230190062199999999999999999-00971-01111999999REMAWY049XCS SA 1700 AUTO8 M M M M/-10/-11/2312/M/ M 71MM=
0118712230999992016011218004+51933-110700FM-12+077299999V0202401N007719999999N999999999-00951-01121999999ADDAA106000091AA224000091KA1120M-00931KA2120N-01551REMSYN05871223 16/// /2415 11095 21112 60001 333 11093 21155 70000=
0093712230999992016011218004+51930-110720SAO  +077299999V020240190077199999999999999999-00951-01121999999ADDOD130100931230REMAWY067XCS SA 1800 AUTO8 M M M M/-10/-11/2415/M/ PK WND 2318 1706Z M 52MM=
0058712230999992016011219004+51930-110720SAO  +077299999V020210190041199999999999999999-00911-01121999999REMAWY049XCS SA 1900 AUTO8 M M M M/-09/-11/2108/M/ M 12MM=
0093712230999992016011220004+51930-110720SAO  +077299999V020250190062199999999999999999-00611-00961999999ADDOD130100931240REMAWY067XCS SA 2000 AUTO8 M M M M/-06/-10/2512/M/ PK WND 2418 1944Z M 16MM=
0049712230999992016011221004+51933-111600FM-12+077299999V0202081N0022199999999999999999-00531-00921999999ADDAA101999999AA206999999AA324999999REMSYN004BUFR
0058712230999992016011221004+51930-110720SAO  +077299999V020210190021199999999999999999-00531-00921999999REMAWY049XCS SA 2100 AUTO8 M M M M/-05/-09/2104/M/ M 32MM=
0093712230999992016011222004+51930-110720SAO  +077299999V020250190077199999999999999999-00511-00921999999ADDOD130100981240REMAWY067XCS SA 2200 AUTO8 M M M M/-05/-09/2515/M/ PK WND 2419 2147Z M 12MM=
0093712230999992016011223004+51930-110720SAO  +077299999V020220190041199999999999999999-00761-01101999999ADDOD130100931260REMAWY067XCS SA 2300 AUTO8 M M M M/-08/-11/2208/M/ PK WND 2618 2223Z M 60MM=
0118712230999992016011300004+51933-110700FM-12+077299999V0202101N005719999999N999999999-00891-01121999999ADDAA106000091AA224000091KA1120M-00491KA2120N-01431REMSYN05871223 16/// /2111 11089 21112 60001 333 11049 21143 70000=
0058712230999992016011300004+51930-110720SAO  +077299999V020210190057199999999999999999-00891-01121999999REMAWY049XCS SA 0000 AUTO8 M M M M/-09/-11/2111/M/ M 92MM=
0058712230999992016011301004+51930-110720SAO  +077299999V020260190057199999999999999999-00601-00971999999REMAWY049XCS SA 0100 AUTO8 M M M M/-06/-10/2611/M/ M 07MM=
0058712230999992016011302004+51930-110720SAO  +077299999V020250190046199999999999999999-00861-01141999999REMAWY049XCS SA 0200 AUTO8 M M M M/-09/-11/2509/M/ M 64MM=
0049712230999992016011303004+51933-111600FM-12+077299999V0202291N0056199999999999999999-00971-01151999999ADDAA101999999AA206999999AA324999999REMSYN004BUFR
0058712230999992016011303004+51930-110720SAO  +077299999V020230190057199999999999999999-00881-01111999999REMAWY049XCS SA 0300 AUTO8 M M M M/-09/-11/2311/M/ M 81MM=
0093712230999992016011304004+51930-110720SAO  +077299999V020230190062199999999999999999-00881-01081999999ADDOD130100931220REMAWY067XCS SA 0400 AUTO8 M M M M/-09/-11/2312/M/ PK WND 2218 0338Z M 88MM=
0093712230999992016011305004+51930-110720SAO  +077299999V020230190051199999999999999999-00871-01101999999ADDOD130100871230REMAWY067XCS SA 0500 AUTO8 M M M M/-09/-11/2310/M/ PK WND 2317 0428Z M 70MM=
0134712230999992016011306004+51933-110700FM-12+077299999V0202601N003619999999N999999999-01021-01221999999ADDAA106000091AA224000091KA1240M-00491KA2240N-01431REMSYN07471223 16/// /2607 11102 21122 60001 333 11049 21143 70000 555 32419 40221=
0058712230999992016011306004+51930-110720SAO  +077299999V020260190036199999999999999999-01021-01221999999REMAWY049XCS SA 0600 AUTO8 M M M M/-10/-12/2607/M/ M 22MM=
0058712230999992016011307004+51930-110720SAO  +077299999V020230190057199999999999999999-00851-01061999999REMAWY049XCS SA 0700 AUTO8 M M M M/-09/-11/2311/M/ M 56MM=
0058712230999992016011308004+51930-110720SAO  +077299999V020240190046199999999999999999-00821-00981999999REMAWY049XCS SA 0800 AUTO8 M M M M/-08/-10/2409/M/ M 28MM=
0049712230999992016011309004+51933-111600FM-12+077299999V0202251N0030199999999999999999-00951-01121999999ADDAA101999999AA206999999AA324999999REMSYN004BUFR
0058712230999992016011309004+51930-110720SAO  +077299999V020230190036199999999999999999-00861-00951999999REMAWY049XCS SA 0900 AUTO8 M M M M/-09/-10/2307/M/ M 65MM=
0058712230999992016011310004+51930-110720SAO  +077299999V020240190026199999999999999999-01031-01171999999REMAWY049XCS SA 1000 AUTO8 M M M M/-10/-12/2405/M/ M 37MM=
0058712230999992016011311004+51930-110720SAO  +077299999V020210190026199999999999999999-01071-01181999999REMAWY049XCS SA 1100 AUTO8 M M M M/-11/-12/2105/M/ M 78MM=
0118712230999992016011312004+51933-110700FM-12+077299999V0202001N002119999999N999999999-00941-01031999999ADDAA106000091AA224000091KA1240M-00491KA2240N-01111REMSYN05871223 16/// /2004 11094 21103 60001 333 11049 21111 70000=
0058712230999992016011312004+51930-110720SAO  +077299999V020200190021199999999999999999-00941-01031999999REMAWY049XCS SA 1200 AUTO8 M M M M/-09/-10/2004/M/ M 43MM=
0058712230999992016011313004+51930-110720SAO  +077299999V020090190026199999999999999999-01231-01361999999REMAWY049XCS SA 1300 AUTO8 M M M M/-12/-14/0905/M/ M 36MM=
0058712230999992016011314004+51930-110720SAO  +077299999V020080190026199999999999999999-01111-01151999999REMAWY049XCS SA 1400 AUTO8 M M M M/-11/-12/0805/M/ M 15MM=
0049712230999992016011315004+51933-110717FM-12+077299999V0201811N0021199999999999999999-01231-01341999999ADDAA101999999AA206999999AA324999999REMSYN004BUFR
0058712230999992016011315004+51930-110720SAO  +077299999V020180190021199999999999999999-01241-01341999999REMAWY049XCS SA 1500 AUTO8 M M M M/-12/-13/1804/M/ M 44MM=
0058712230999992016011316004+51930-110720SAO  +077299999V020160190005199999999999999999-01051-01181999999REMAWY049XCS SA 1600 AUTO8 M M M M/-11/-12/1601/M/ M 58MM=
0058712230999992016011317004+51930-110720SAO  +077299999V020080190041199999999999999999-01201-01341999999REMAWY049XCS SA 1700 AUTO8 M M M M/-12/-13/0808/M/ M 04MM=
0118712230999992016011318004+51933-110700FM-12+077299999V0200801N002119999999N999999999-01041-01171999999ADDAA106000091AA224000091KA1120M-00761KA2120N-01371REMSYN05871223 16/// /0804 11104 21117 60001 333 11076 21137 70000=
0058712230999992016011318004+51930-110720SAO  +077299999V020090190021199999999999999999-01041-01171999999REMAWY049XCS SA 1800 AUTO8 M M M M/-10/-12/0904/M/ M 47MM=
0058712230999992016011319004+51930-110720SAO  +077299999V020090190041199999999999999999-00911-01061999999REMAWY049XCS SA 1900 AUTO8 M M M M/-09/-11/0908/M/ M 16MM=
0058712230999992016011320004+51930-110720SAO  +077299999V020100190036199999999999999999-00701-00911999999REMAWY049XCS SA 2000 AUTO8 M M M M/-07/-09/1007/M/ M 01MM=
0049712230999992016011321004+51933-111600FM-12+077299999V0200981N0033199999999999999999-00551-00801999999ADDAA101999999AA206999999AA324999999REMSYN004BUFR
0058712230999992016011321004+51930-110720SAO  +077299999V020100190036199999999999999999-00541-00771999999REMAWY049XCS SA 2100 AUTO8 M M M M/-05/-08/1007/M/ M 47MM=
0058712230999992016011322004+51930-110720SAO  +077299999V020080190036199999999999999999-00531-00721999999REMAWY049XCS SA 2200 AUTO8 M M M M/-05/-07/0807/M/ M 32MM=
0058712230999992016011323004+51930-110720SAO  +077299999V020090190031199999999999999999-00551-00731999999REMAWY049XCS SA 2300 AUTO8 M M M M/-06/-07/0906/M/ M 53MM=
0118712230999992016011400004+51933-110700FM-12+077299999V0200901N003119999999N999999999-00671-00791999999ADDAA106000091AA224000091KA1120M-00521KA2120N-01371REMSYN05871223 16/// /0906 11067 21079 60001 333 11052 21137 70000=
0058712230999992016011400004+51930-110720SAO  +077299999V020090190031199999999999999999-00671-00791999999REMAWY049XCS SA 0000 AUTO8 M M M M/-07/-08/0906/M/ M 79MM=
0058712230999992016011401004+51930-110720SAO  +077299999V020110190026199999999999999999-00621-00721999999REMAWY049XCS SA 0100 AUTO8 M M M M/-06/-07/1105/M/ M 22MM=
0058712230999992016011402004+51930-110720SAO  +077299999V020060190036199999999999999999-00661-00781999999REMAWY049XCS SA 0200 AUTO8 M M M M/-07/-08/0607/M/ M 68MM=
0049712230999992016011403004+51933-111600FM-12+077299999V0200461N0024199999999999999999-00761-00921999999ADDAA101999999AA206999999AA324999999REMSYN004BUFR
0058712230999992016011403004+51930-110720SAO  +077299999V020050190026199999999999999999-00721-00841999999REMAWY049XCS SA 0300 AUTO8 M M M M/-07/-08/0505/M/ M 24MM=
0058712230999992016011404004+51930-110720SAO  +077299999V020050190031199999999999999999-00801-00911999999REMAWY049XCS SA 0400 AUTO8 M M M M/-08/-09/0506/M/ M 01MM=
0058712230999992016011405004+51930-110720SAO  +077299999V020010190015199999999999999999-00951-01061999999REMAWY049XCS SA 0500 AUTO8 M M M M/-10/-11/0103/M/ M 56MM=
0118712230999992016011406004+51933-110700FM-12+077299999V0202901N003119999999N999999999-01041-01151999999ADDAA106000091AA224000091KA1240M-00521KA2240N-01371REMSYN05871223 16/// /2906 11104 21115 60001 333 11052 21137 70000=
0058712230999992016011406004+51930-110720SAO  +077299999V020290190031199999999999999999-01041-01151999999REMAWY049XCS SA 0600 AUTO8 M M M M/-10/-12/2906/M/ M 45MM=
0058712230999992016011407004+51930-110720SAO  +077299999V020310190041199999999999999999-01161-01271999999REMAWY049XCS SA 0700 AUTO8 M M M M/-12/-13/3108/M/ M 67MM=
0058712230999992016011408004+51930-110720SAO  +077299999V020300190036199999999999999999-01201-01311999999REMAWY049XCS SA 0800 AUTO8 M M M M/-12/-13/3007/M/ M 01MM=
0049712230999992016011409004+51933-111600FM-12+077299999V0202951N0021199999999999999999-00971-01041999999ADDAA101999999AA206999999AA324999999REMSYN004BUFR
0058712230999992016011409004+51930-110720SAO  +077299999V020300190026199999999999999999-00941-01041999999REMAWY049XCS SA 0900 AUTO8 M M M M/-09/-10/3005/M/ M 44MM=
0058712230999992016011410004+51930-110720SAO  +077299999V020310190021199999999999999999-00841-00941999999REMAWY049XCS SA 1000 AUTO8 M M M M/-08/-09/3104/M/ M 44MM=
0058712230999992016011411004+51930-110720SAO  +077299999V020330190026199999999999999999-00821-00931999999REMAWY049XCS SA 1100 AUTO8 M M M M/-08/-09/3305/M/ M 23MM=
0118712230999992016011412004+51933-110700FM-12+077299999V0203301N004119999999N999999999-00741-00841999999ADDAA106000091AA224000091KA1240M-00521KA2240N-01231REMSYN05871223 16/// /3308 11074 21084 60001 333 11052 21123 70000=
0058712230999992016011412004+51930-110720SAO  +077299999V020330190041199999999999999999-00731-00841999999REMAWY049XCS SA 1200 AUTO8 M M M M/-07/-08/3308/M/ M 34MM=
0093712230999992016011413004+51930-110720SAO  +077299999V020340190046199999999999999999-00711-00841999999ADDOD130100931330REMAWY067XCS SA 1300 AUTO8 M M M M/-07/-08/3409/M/ PK WND 3318 1231Z M 14MM=
0093712230999992016011414004+51930-110720SAO  +077299999V020340190046199999999999999999-00791-00931999999ADDOD130100931340REMAWY067XCS SA 1400 AUTO8 M M M M/-08/-09/3409/M/ PK WND 3418 1325Z M 93MM=
0049712230999992016011415004+51933-111600FM-12+077299999V0203121N0043199999999999999999-00891-00971999999ADDAA101999999AA206999999AA324999999REMSYN004BUFR
0058712230999992016011415004+51930-110720SAO  +077299999V020310190046199999999999999999-00811-00941999999REMAWY049XCS SA 1500 AUTO8 M M M M/-08/-09/3109/M/ M 14MM=
0058712230999992016011416004+51930-110720SAO  +077299999V020300190062199999999999999999-00771-00901999999REMAWY049XCS SA 1600 AUTO8 M M M M/-08/-09/3012/M/ M 70MM=
0058712230999992016011417004+51930-110720SAO  +077299999V020310190046199999999999999999-00721-00871999999REMAWY049XCS SA 1700 AUTO8 M M M M/-07/-09/3109/M/ M 27MM=
0118712230999992016011418004+51933-110700FM-12+077299999V0203101N005119999999N999999999-00611-00791999999ADDAA106000091AA224000091KA1120M-00611KA2120N-01231REMSYN05871223 16/// /3110 11061 21079 60001 333 11061 21123 70000=
0058712230999992016011418004+51930-110720SAO  +077299999V020310190051199999999999999999-00601-00791999999REMAWY049XCS SA 1800 AUTO8 M M M M/-06/-08/3110/M/ M 09MM=
0095712230999992016011419004+51930-110720SAO  +077299999V020310190057199999999999999999-00491-00671999999ADDAA101000431REMAWY072XCS SA 1900 AUTO8 M M M M/-05/-07/3111/M/0004 PCPN 0.4MM PAST HR M 97MM=
0097712230999992016011420004+51930-110720SAO  +077299999V020310190057199999999999999999-00351-00591999999ADDOD130100871300REMAWY071XCS SA 2000 AUTO8 M M M M/-04/-06/3111/M/0004 PK WND 3017 1929Z M 59MM=
0049712230999992016011421004+51933-111600FM-12+077299999V0203201N0058199999999999999999-00481-00551999999ADDAA101999999AA206999999AA324999999REMSYN004BUFR
0097712230999992016011421004+51930-110720SAO  +077299999V020320190062199999999999999999-00431-00551999999ADDOD130100931320REMAWY071XCS SA 2100 AUTO8 M M M M/-04/-06/3212/M/0004 PK WND 3218 2031Z M 35MM=
0097712230999992016011422004+51930-110720SAO  +077299999V020330190051199999999999999999-00471-00591999999ADDOD130100871320REMAWY071XCS SA 2200 AUTO8 M M M M/-05/-06/3310/M/0004 PK WND 3217 2127Z M 79MM=
0062712230999992016011423004+51930-110720SAO  +077299999V020330190041199999999999999999-00501-00621999999REMAWY053XCS SA 2300 AUTO8 M M M M/-05/-06/3308/M/0004 M 02MM=
0118712230999992016011500004+51933-110700FM-12+077299999V0200101N003119999999N999999999-00641-00721999999ADDAA106000431AA224000431KA1120M-00431KA2120N-01231REMSYN05871223 16/// /0106 11064 21072 69941 333 11043 21123 70004=
0062712230999992016011500004+51930-110720SAO  +077299999V020010190031199999999999999999-00641-00721999999REMAWY053XCS SA 0000 AUTO8 M M M M/-06/-07/0106/M/0004 M 42MM=
0058712230999992016011501004+51930-110720SAO  +077299999V020360190031199999999999999999-00711-00791999999REMAWY049XCS SA 0100 AUTO8 M M M M/-07/-08/3606/M/ M 19MM=
0058712230999992016011502004+51930-110720SAO  +077299999V020360190041199999999999999999-00821-00931999999REMAWY049XCS SA 0200 AUTO8 M M M M/-08/-09/3608/M/ M 23MM=
0049712230999992016011503004+51933-111600FM-12+077299999V0200281N0044199999999999999999-01021-01161999999ADDAA101999999AA206999999AA324000431REMSYN004BUFR
0058712230999992016011503004+51930-110720SAO  +077299999V020030190051199999999999999999-00961-01101999999REMAWY049XCS SA 0300 AUTO8 M M M M/-10/-11/0310/M/ M 60MM=
0058712230999992016011504004+51930-110720SAO  +077299999V020050190046199999999999999999-01141-01311999999REMAWY049XCS SA 0400 AUTO8 M M M M/-11/-13/0509/M/ M 41MM=
0058712230999992016011505004+51930-110720SAO  +077299999V020050190036199999999999999999-01191-01381999999REMAWY049XCS SA 0500 AUTO8 M M M M/-12/-14/0507/M/ M 98MM=
0134712230999992016011506004+51933-110700FM-12+077299999V0200401N002619999999N999999999-01251-01461999999ADDAA106000091AA224000431KA1240M-00431KA2240N-01251REMSYN07471223 16/// /0405 11125 21146 60001 333 11043 21125 70004 555 33418 40140=
0058712230999992016011506004+51930-110720SAO  +077299999V020040190026199999999999999999-01251-01461999999REMAWY049XCS SA 0600 AUTO8 M M M M/-13/-15/0405/M/ M 56MM=
0058712230999992016011507004+51930-110720SAO  +077299999V020020190041199999999999999999-01391-01561999999REMAWY049XCS SA 0700 AUTO8 M M M M/-14/-16/0208/M/ M 96MM=
0058712230999992016011508004+51930-110720SAO  +077299999V020030190041199999999999999999-01421-01591999999REMAWY049XCS SA 0800 AUTO8 M M M M/-14/-16/0308/M/ M 29MM=
0049712230999992016011509004+51933-111600FM-12+077299999V0200121N0034199999999999999999-01581-01741999999ADDAA101999999AA206999999AA324000431REMSYN004BUFR
0058712230999992016011509004+51930-110720SAO  +077299999V020010190036199999999999999999-01581-01741999999REMAWY049XCS SA 0900 AUTO8 M M M M/-16/-17/0107/M/ M 84MM=
0058712230999992016011510004+51930-110720SAO  +077299999V020050190036199999999999999999-01491-01691999999REMAWY049XCS SA 1000 AUTO8 M M M M/-15/-17/0507/M/ M 99MM=
0058712230999992016011511004+51930-110720SAO  +077299999V020010190026199999999999999999-01621-01791999999REMAWY049XCS SA 1100 AUTO8 M M M M/-16/-18/0105/M/ M 29MM=
0118712230999992016011512004+51933-110700FM-12+077299999V0203601N002619999999N999999999-01541-01691999999ADDAA106000091AA224000431KA1240M-00431KA2240N-01671REMSYN05871223 16/// /3605 11154 21169 60001 333 11043 21167 70004=
0058712230999992016011512004+51930-110720SAO  +077299999V020360190026199999999999999999-01541-01691999999REMAWY049XCS SA 1200 AUTO8 M M M M/-15/-17/3605/M/ M 49MM=
0058712230999992016011513004+51930-110720SAO  +077299999V020020190031199999999999999999-01571-01751999999REMAWY049XCS SA 1300 AUTO8 M M M M/-16/-18/0206/M/ M 75MM=
0058712230999992016011514004+51930-110720SAO  +077299999V020020190036199999999999999999-01741-01911999999REMAWY049XCS SA 1400 AUTO8 M M M M/-17/-19/0207/M/ M 41MM=
0049712230999992016011515004+51933-111600FM-12+077299999V0200431N0020199999999999999999-01901-02081999999ADDAA101999999AA206999999AA324000431REMSYN004BUFR
0058712230999992016011515004+51930-110720SAO  +077299999V020040190021199999999999999999-01831-02031999999REMAWY049XCS SA 1500 AUTO8 M M M M/-18/-20/0404/M/ M 33MM=
0058712230999992016011516004+51930-110720SAO  +077299999V020020190005199999999999999999-01781-01981999999REMAWY049XCS SA 1600 AUTO8 M M M M/-18/-20/0201/M/ M 88MM=
0058712230999992016011517004+51930-110720SAO  +077299999V020330190015199999999999999999-01731-01941999999REMAWY049XCS SA 1700 AUTO8 M M M M/-17/-19/3303/M/ M 34MM=
0118712230999992016011518004+51933-110700FM-12+077299999V0200501N001519999999N999999999-01691-01931999999ADDAA106000531AA224000931KA1120M-01251KA2120N-01831REMSYN05871223 16/// /0503 11169 21193 69951 333 11125 21183 70009=
0095712230999992016011518004+51930-110720SAO  +077299999V020050190015199999999999999999-01691-01931999999ADDAA101000531REMAWY072XCS SA 1800 AUTO8 M M M M/-17/-19/0503/M/0005 PCPN 0.5MM PAST HR M 93MM=
0058712230999992016011519004+51930-110720SAO  +077299999V020320190010199999999999999999-01591-01881999999REMAWY049XCS SA 1900 AUTO8 M M M M/-16/-19/3202/M/ M 98MM=
0058712230999992016011520004+51930-110720SAO  +077299999V020350190010199999999999999999-01561-01911999999REMAWY049XCS SA 2000 AUTO8 M M M M/-16/-19/3502/M/ M 61MM=
0049712230999992016011521004+51933-111600FM-12+077299999V0203571N0012199999999999999999-01641-01981999999ADDAA101999999AA206999999AA324000531REMSYN004BUFR
0058712230999992016011521004+51930-110720SAO  +077299999V020360190010199999999999999999-01581-01931999999REMAWY049XCS SA 2100 AUTO8 M M M M/-16/-19/3602/M/ M 83MM=
0058712230999992016011522004+51930-110720SAO  +077299999V020010190015199999999999999999-01621-01941999999REMAWY049XCS SA 2200 AUTO8 M M M M/-16/-19/0103/M/ M 24MM=
0058712230999992016011523004+51930-110720SAO  +077299999V020010190015199999999999999999-01621-01911999999REMAWY049XCS SA 2300 AUTO8 M M M M/-16/-19/0103/M/ M 21MM=
0118712230999992016011600004+51933-110700FM-12+077299999V0200301N000519999999N999999999-01641-01911999999ADDAA106000091AA224000531KA1120M-01531KA2120N-01831REMSYN05871223 16/// /0301 11164 21191 60001 333 11153 21183 70005=
0058712230999992016011600004+51930-110720SAO  +077299999V020030190005199999999999999999-01641-01911999999REMAWY049XCS SA 0000 AUTO8 M M M M/-16/-19/0301/M/ M 41MM=
0058712230999992016011601004+51930-110720SAO  +077299999V020060190031199999999999999999-01761-02011999999REMAWY049XCS SA 0100 AUTO8 M M M M/-18/-20/0606/M/ M 61MM=
0058712230999992016011602004+51930-110720SAO  +077299999V020040190041199999999999999999-01831-02071999999REMAWY049XCS SA 0200 AUTO8 M M M M/-18/-21/0408/M/ M 37MM=
0049712230999992016011603004+51933-111600FM-12+077299999V0200451N0035199999999999999999-01921-02181999999ADDAA101999999AA206999999AA324000431REMSYN004BUFR
0058712230999992016011603004+51930-110720SAO  +077299999V020050190036199999999999999999-01921-02181999999REMAWY049XCS SA 0300 AUTO8 M M M M/-19/-22/0507/M/ M 28MM=
0058712230999992016011604004+51930-110720SAO  +077299999V020040190031199999999999999999-01961-02211999999REMAWY049XCS SA 0400 AUTO8 M M M M/-20/-22/0406/M/ M 61MM=
0058712230999992016011605004+51930-110720SAO  +077299999V020030190031199999999999999999-02011-02271999999REMAWY049XCS SA 0500 AUTO8 M M M M/-20/-23/0306/M/ M 17MM=
0118712230999992016011606004+51933-110700FM-12+077299999V0200101N002119999999N999999999-02071-02321999999ADDAA106000091AA224000531KA1240M-01251KA2240N-02071REMSYN05871223 16/// /0104 11207 21232 60001 333 11125 21207 70005=
0058712230999992016011606004+51930-110720SAO  +077299999V020010190021199999999999999999-02071-02321999999REMAWY049XCS SA 0600 AUTO8 M M M M/-21/-23/0104/M/ M 72MM=
0058712230999992016011607004+51930-110720SAO  +077299999V020030190026199999999999999999-02091-02321999999REMAWY049XCS SA 0700 AUTO8 M M M M/-21/-23/0305/M/ M 92MM=
0058712230999992016011608004+51930-110720SAO  +077299999V020060190026199999999999999999-02081-02291999999REMAWY049XCS SA 0800 AUTO8 M M M M/-21/-23/0605/M/ M 89MM=
0049712230999992016011609004+51933-111600FM-12+077299999V0200201N0025199999999999999999-02061-02291999999ADDAA101999999AA206999999AA324000431REMSYN004BUFR
0095712230999992016011609004+51930-110720SAO  +077299999V020020190036199999999999999999-01951-02261999999ADDAA101000531REMAWY072XCS SA 0900 AUTO8 M M M M/-20/-23/0207/M/0005 PCPN 0.5MM PAST HR M 56MM=
0062712230999992016011610004+51930-110720SAO  +077299999V020010190036199999999999999999-02091-02321999999REMAWY053XCS SA 1000 AUTO8 M M M M/-21/-23/0107/M/0005 M 92MM=
0062712230999992016011611004+51930-110720SAO  +077299999V020060190041199999999999999999-02111-02361999999REMAWY053XCS SA 1100 AUTO8 M M M M/-21/-24/0608/M/0005 M 16MM=
0132712230999992016011612004+51933-110700FM-12+077299999V0200501N003119999999N999999999-02141-02391999999ADDAA106000531AA224001031AZ141021KA1240M-01251KA2240N-02141REMSYN06471223 17/// /0506 11214 21239 69951 7//4/ 333 11125 21214 70010=
0062712230999992016011612004+51930-110720SAO  +077299999V020050190031199999999999999999-02141-02391999999REMAWY053XCS SA 1200 AUTO8 M M M M/-21/-24/0506/M/0005 M 49MM=
0058712230999992016011613004+51930-110720SAO  +077299999V020050190021199999999999999999-02181-02441999999REMAWY049XCS SA 1300 AUTO8 M M M M/-22/-24/0504/M/ M 84MM=
0058712230999992016011614004+51930-110720SAO  +077299999V020060190026199999999999999999-02231-02491999999REMAWY049XCS SA 1400 AUTO8 M M M M/-22/-25/0605/M/ M 39MM=
0049712230999992016011615004+51933-111600FM-12+077299999V0200421N0023199999999999999999-02311-02531999999ADDAA101999999AA206999999AA324999999REMSYN004BUFR
0058712230999992016011615004+51930-110720SAO  +077299999V020040190021199999999999999999-02281-02531999999REMAWY049XCS SA 1500 AUTO8 M M M M/-23/-25/0404/M/ M 83MM=
0058712230999992016011616004+51930-110720SAO  +077299999V020050190021199999999999999999-02361-02611999999REMAWY049XCS SA 1600 AUTO8 M M M M/-24/-26/0504/M/ M 61MM=
0058712230999992016011617004+51930-110720SAO  +077299999V020070190021199999999999999999-02291-02531999999REMAWY049XCS SA 1700 AUTO8 M M M M/-23/-25/0704/M/ M 93MM=
0118712230999992016011618004+51933-110700FM-12+077299999V0200901N001019999999N999999999-02261-02521999999ADDAA106000831AA224001331KA1120M-02051KA2120N-02361REMSYN05871223 16/// /0902 11226 21252 69981 333 11205 21236 70013=
0095712230999992016011618004+51930-110720SAO  +077299999V020090190010199999999999999999-02261-02521999999ADDAA101000831REMAWY072XCS SA 1800 AUTO8 M M M M/-23/-25/0902/M/0008 PCPN 0.8MM PAST HR M 62MM=
0058712230999992016011619004+51930-110720SAO  +077299999V020100190021199999999999999999-02261-02521999999REMAWY049XCS SA 1900 AUTO8 M M M M/-23/-25/1004/M/ M 62MM=
0058712230999992016011620004+51930-110720SAO  +077299999V020110190015199999999999999999-02281-02551999999REMAWY049XCS SA 2000 AUTO8 M M M M/-23/-26/1103/M/ M 85MM=
0049712230999992016011621004+51933-111600FM-12+077299999V0200891N0003199999999999999999-02181-02491999999ADDAA101999999AA206999999AA324001031REMSYN004BUFR
0058712230999992016011621004+51930-110720SAO  +077299999V020090190005199999999999999999-02191-02491999999REMAWY049XCS SA 2100 AUTO8 M M M M/-22/-25/0901/M/ M 99MM=
0058712230999992016011622004+51930-110720SAO  +077299999V020150190010199999999999999999-02221-02541999999REMAWY049XCS SA 2200 AUTO8 M M M M/-22/-25/1502/M/ M 24MM=
0058712230999992016011623004+51930-110720SAO  +077299999V020170190015199999999999999999-02371-02621999999REMAWY049XCS SA 2300 AUTO8 M M M M/-24/-26/1703/M/ M 72MM=
0118712230999992016011700004+51933-110700FM-12+077299999V0202001N001519999999N999999999-02491-02721999999ADDAA106000091AA224001331KA1120M-02141KA2120N-02491REMSYN05871223 16/// /2003 11249 21272 60001 333 11214 21249 70013=
0058712230999992016011700004+51930-110720SAO  +077299999V020200190015199999999999999999-02491-02721999999REMAWY049XCS SA 0000 AUTO8 M M M M/-25/-27/2003/M/ M 92MM=
0058712230999992016011701004+51930-110720SAO  +077299999V020130190005199999999999999999-02501-02761999999REMAWY049XCS SA 0100 AUTO8 M M M M/-25/-28/1301/M/ M 06MM=
0058712230999992016011702004+51930-110720SAO  +077299999V020170190010199999999999999999-02541-02811999999REMAWY049XCS SA 0200 AUTO8 M M M M/-25/-28/1702/M/ M 41MM=
0049712230999992016011703004+51933-111600FM-12+077299999V0201641N0017199999999999999999-02641-02881999999ADDAA101999999AA206999999AA324001031REMSYN004BUFR
0058712230999992016011703004+51930-110720SAO  +077299999V020160190015199999999999999999-02581-02821999999REMAWY049XCS SA 0300 AUTO8 M M M M/-26/-28/1603/M/ M 82MM=
0058712230999992016011704004+51930-110720SAO  +077299999V020090190021199999999999999999-02621-02901999999REMAWY049XCS SA 0400 AUTO8 M M M M/-26/-29/0904/M/ M 20MM=
0058712230999992016011705004+51930-110720SAO  +077299999V020090190010199999999999999999-02781-03071999999REMAWY049XCS SA 0500 AUTO8 M M M M/-28/-31/0902/M/ M 87MM=
0118712230999992016011706004+51933-110700FM-12+077299999V0201401N001519999999N999999999-02761-03041999999ADDAA106000091AA224001331KA1240M-02051KA2240N-02861REMSYN05871223 16/// /1403 11276 21304 60001 333 11205 21286 70013=
0058712230999992016011706004+51930-110720SAO  +077299999V020140190015199999999999999999-02761-03041999999REMAWY049XCS SA 0600 AUTO8 M M M M/-28/-30/1403/M/ M 64MM=
0058712230999992016011707004+51930-110720SAO  +077299999V020140190015199999999999999999-02681-02961999999REMAWY049XCS SA 0700 AUTO8 M M M M/-27/-30/1403/M/ M 86MM=
0095712230999992016011708004+51930-110720SAO  +077299999V020110190015199999999999999999-02821-03151999999ADDAA101000531REMAWY072XCS SA 0800 AUTO8 M M M M/-28/-32/1103/M/0005 PCPN 0.5MM PAST HR M 25MM=
0065712230999992016011709004+51933-111600FM-12+077299999V0201701N0016199999999999999999-02721-03021999999ADDAA101001031AA206002031AA324002431AZ141031AZ241031REMSYN004BUFR
0095712230999992016011709004+51930-110720SAO  +077299999V020170190015199999999999999999-02691-03001999999ADDAA101001931REMAWY072XCS SA 0900 AUTO8 M M M M/-27/-30/1703/M/0024 PCPN 1.9MM PAST HR M 90MM=
0062712230999992016011710004+51930-110720SAO  +077299999V020080190021199999999999999999-02871-03221999999REMAWY053XCS SA 1000 AUTO8 M M M M/-29/-32/0804/M/0024 M 72MM=
0062712230999992016011711004+51930-110720SAO  +077299999V020080190021199999999999999999-02951-03391999999REMAWY053XCS SA 1100 AUTO8 M M M M/-30/-34/0804/M/0024 M 59MM=
0132712230999992016011712004+51933-110700FM-12+077299999V0201701N000519999999N999999999-02991-03331999999ADDAA106002031AA224003231AZ141021KA1240M-02051KA2240N-03081REMSYN06471223 17/// /1701 11299 21333 60021 7//4/ 333 11205 21308 70032=
0062712230999992016011712004+51930-110720SAO  +077299999V020170190005199999999999999999-02991-03331999999REMAWY053XCS SA 1200 AUTO8 M M M M/-30/-33/1701/M/0024 M 93MM=
0095712230999992016011713004+51930-110720SAO  +077299999V020090190015199999999999999999-02941-03271999999ADDAA101000431REMAWY072XCS SA 1300 AUTO8 M M M M/-29/-33/0903/M/0004 PCPN 0.4MM PAST HR M 47MM=
0062712230999992016011714004+51930-110720SAO  +077299999V020100190015199999999999999999-02951-03281999999REMAWY053XCS SA 1400 AUTO8 M M M M/-30/-33/1003/M/0004 M 58MM=
0049712230999992016011715004+51933-111600FM-12+077299999V0200921N0011199999999999999999-02971-03261999999ADDAA101999999AA206999999AA324003431REMSYN004BUFR
0062712230999992016011715004+51930-110720SAO  +077299999V020090190010199999999999999999-02901-03241999999REMAWY053XCS SA 1500 AUTO8 M M M M/-29/-32/0902/M/0004 M 04MM=
0062712230999992016011716004+51930-110720SAO  +077299999V020090190021199999999999999999-03081-03421999999REMAWY053XCS SA 1600 AUTO8 M M M M/-31/-34/0904/M/0004 M 82MM=
0095712230999992016011717004+51930-110720SAO  +077299999V020090190031199999999999999999-02931-03261999999ADDAA101000631REMAWY072XCS SA 1700 AUTO8 M M M M/-29/-33/0906/M/0011 PCPN 0.6MM PAST HR M 36MM=
0132712230999992016011718004+51933-110700FM-12+077299999V0201001N001519999999N999999999-02731-03051999999ADDAA106001031AA224003531AZ141021KA1120M-02661KA2120N-03081REMSYN06471223 17/// /1003 11273 21305 60011 7//4/ 333 11266 21308 70035=
0062712230999992016011718004+51930-110720SAO  +077299999V020100190015199999999999999999-02731-02951999999REMAWY053XCS SA 1800 AUTO8 M M M M/-27/-30/1003/M/0011 M 35MM=
0058712230999992016011719004+51930-110720SAO  +077299999V020100190021199999999999999999-02551-02861999999REMAWY049XCS SA 1900 AUTO8 M M M M/-26/-29/1004/M/ M 56MM=
0058712230999992016011720004+51930-110720SAO  +077299999V020110190021199999999999999999-02241-02521999999REMAWY049XCS SA 2000 AUTO8 M M M M/-22/-25/1104/M/ M 42MM=
0049712230999992016011721004+51933-111600FM-12+077299999V0201081N0030199999999999999999-02251-02541999999ADDAA101999999AA206999999AA324003431REMSYN004BUFR
0058712230999992016011721004+51930-110720SAO  +077299999V020110190031199999999999999999-02251-02541999999REMAWY049XCS SA 2100 AUTO8 M M M M/-23/-25/1106/M/ M 54MM=
0058712230999992016011722004+51930-110720SAO  +077299999V020120190015199999999999999999-02271-02561999999REMAWY049XCS SA 2200 AUTO8 M M M M/-23/-26/1203/M/ M 76MM=
0058712230999992016011723004+51930-110720SAO  +077299999V020110190031199999999999999999-02371-02661999999REMAWY049XCS SA 2300 AUTO8 M M M M/-24/-27/1106/M/ M 76MM=
0118712230999992016011800004+51933-110700FM-12+077299999V0201001N004119999999N999999999-02401-02691999999ADDAA106000091AA224003531KA1120M-02221KA2120N-03081REMSYN05871223 16/// /1008 11240 21269 60001 333 11222 21308 70035=
0058712230999992016011800004+51930-110720SAO  +077299999V020100190041199999999999999999-02401-02691999999REMAWY049XCS SA 0000 AUTO8 M M M M/-24/-27/1008/M/ M 09MM=
0058712230999992016011801004+51930-110720SAO  +077299999V020090190026199999999999999999-02351-02641999999REMAWY049XCS SA 0100 AUTO8 M M M M/-24/-26/0905/M/ M 54MM=
0058712230999992016011802004+51930-110720SAO  +077299999V020100190041199999999999999999-02371-02671999999REMAWY049XCS SA 0200 AUTO8 M M M M/-24/-27/1008/M/ M 77MM=
0049712230999992016011803004+51933-111600FM-12+077299999V0200951N0033199999999999999999-02431-02731999999ADDAA101999999AA206999999AA324003431REMSYN004BUFR
0058712230999992016011803004+51930-110720SAO  +077299999V020100190031199999999999999999-02431-02731999999REMAWY049XCS SA 0300 AUTO8 M M M M/-24/-27/1006/M/ M 33MM=
0058712230999992016011804004+51930-110720SAO  +077299999V020100190051199999999999999999-02321-02601999999REMAWY049XCS SA 0400 AUTO8 M M M M/-23/-26/1010/M/ M 20MM=
0058712230999992016011805004+51930-110720SAO  +077299999V020080190046199999999999999999-02261-02531999999REMAWY049XCS SA 0500 AUTO8 M M M M/-23/-25/0809/M/ M 63MM=
0118712230999992016011806004+51933-110700FM-12+077299999V0201001N005119999999N999999999-02211-02461999999ADDAA106000091AA224003531KA1240M-02211KA2240N-03081REMSYN05871223 16/// /1010 11221 21246 60001 333 11221 21308 70035=
0058712230999992016011806004+51930-110720SAO  +077299999V020100190051199999999999999999-02211-02461999999REMAWY049XCS SA 0600 AUTO8 M M M M/-22/-25/1010/M/ M 16MM=
0058712230999992016011807004+51930-110720SAO  +077299999V020110190057199999999999999999-02131-02371999999REMAWY049XCS SA 0700 AUTO8 M M M M/-21/-24/1111/M/ M 37MM=
0058712230999992016011808004+51930-110720SAO  +077299999V020110190046199999999999999999-02011-02241999999REMAWY049XCS SA 0800 AUTO8 M M M M/-20/-22/1109/M/ M 14MM=
0049712230999992016011809004+51933-111600FM-12+077299999V0201091N0068199999999999999999-01921-02151999999ADDAA101999999AA206999999AA324001031REMSYN004BUFR
0058712230999992016011809004+51930-110720SAO  +077299999V020110190072199999999999999999-01921-02151999999REMAWY049XCS SA 0900 AUTO8 M M M M/-19/-22/1114/M/ M 25MM=
0058712230999992016011810004+51930-110720SAO  +077299999V020100190051199999999999999999-01801-02001999999REMAWY049XCS SA 1000 AUTO8 M M M M/-18/-20/1010/M/ M 00MM=
0058712230999992016011811004+51930-110720SAO  +077299999V020100190046199999999999999999-01701-01891999999REMAWY049XCS SA 1100 AUTO8 M M M M/-17/-19/1009/M/ M 09MM=
0124712230999992016011812004+51933-110700FM-12+077299999V0201001N005719999999N999999999-01651-01831999999ADDAA106000091AA224001131KA1240N-02431REMSYN05871223 16/// /1011 11165 21183 60001 333 11221 21243 70011=EQDQ01-22.1 2EATMX 
0058712230999992016011812004+51930-110720SAO  +077299999V020100190057199999999999999999-01641-01831999999REMAWY049XCS SA 1200 AUTO8 M M M M/-16/-18/1011/M/ M 43MM=
0058712230999992016011813004+51930-110720SAO  +077299999V020100190051199999999999999999-01571-01751999999REMAWY049XCS SA 1300 AUTO8 M M M M/-16/-18/1010/M/ M 75MM=
0095712230999992016011814004+51930-110720SAO  +077299999V020140190015199999999999999999-01531-01711999999ADDAA101000631REMAWY072XCS SA 1400 AUTO8 M M M M/-15/-17/1403/M/0006 PCPN 0.6MM PAST HR M 31MM=
0062712230999992016011815004+51930-110720SAO  +077299999V020050190010199999999999999999-01491-01671999999REMAWY053XCS SA 1500 AUTO8 M M M M/-15/-17/0502/M/0006 M 97MM=
0062712230999992016011816004+51930-110720SAO  +077299999V020070190015199999999999999999-01461-01631999999REMAWY053XCS SA 1600 AUTO8 M M M M/-15/-16/0703/M/0006 M 63MM=
0062712230999992016011817004+51930-110720SAO  +077299999V020290190010199999999999999999-01361-01531999999REMAWY053XCS SA 1700 AUTO8 M M M M/-14/-15/2902/M/0006 M 63MM=
0132712230999992016011818004+51933-110700FM-12+077299999V0202901N003119999999N999999999-01281-01471999999ADDAA106000631AA224000631AZ141021KA1120M-01271KA2120N-02731REMSYN06471223 17/// /2906 11128 21147 69961 7//4/ 333 11127 21273 70006=
0062712230999992016011818004+51930-110720SAO  +077299999V020290190031199999999999999999-01281-01471999999REMAWY053XCS SA 1800 AUTO8 M M M M/-13/-15/2906/M/0006 M 87MM=
0058712230999992016011819004+51930-110720SAO  +077299999V020280190036199999999999999999-01231-01441999999REMAWY049XCS SA 1900 AUTO8 M M M M/-12/-14/2807/M/ M 34MM=
0058712230999992016011820004+51930-110720SAO  +077299999V020290190041199999999999999999-01111-01351999999REMAWY049XCS SA 2000 AUTO8 M M M M/-11/-14/2908/M/ M 15MM=
