0130013590999992015010100004+60533+008200FM-12+077399999V0200401N002019999999N999999999+00131-00231101631ADDAA106000091MA1999999092431MD1810151+9999OD139901101999REMSYN06401359 16/// /0402 10013 21023 39243 40163 58015 60001 333 91111=
0089013590999992015010103004+60533+008200FM-12+077399999V0209999C999999999999N999999999+00191-00101101341ADDMA1999999092181MD1810241+9999REMSYN04801359 46/// /0000 10019 21010 39218 40134 58024=
0293013590999992015010106004+60533+008200FM-12+077399999V0202301N006019999999N050000199+00311-00051100961ADDAA112000091AA224000091AJ100483100480099AY121021AY221021GA1071+012501081GE19AGL   +99999+99999GF107991071999012501999999IA1249KA1240N+00061MA1999999091871MD1810301+9999MW1021OD139901001999REMSYN09401359 11684 72306 10031 21005 39187 40096 58030 60002 70222 87200 333 20006 44048 70000 91110=
0089013590999992015010109004+60533+008200FM-12+077399999V0202301N009019999999N999999999+00381+00001100671ADDMA1999999091631MD1810241+9999REMSYN04801359 46/// /2309 10038 21000 39163 40067 58024=
0244013590999992015010112004+60533+008200FM-12+077399999V0202401N003019999999N020000199+00311+00051100811ADDAA106000331AY181021AY221021GA1071+004501091GA2999+999999001GE19AGL   +99999+99999GF108991071999004501999999MA1999999091741MD1990111+9999MW1801OD139901501999REMSYN07601359 11470 82403 10031 20005 39174 40081 50011 69931 78082 87301 333 91115=
0089013590999992015010115004+60533+008200FM-12+077399999V0202301N009019999999N999999999+00271-00111100461ADDMA1999999091401MD1810331+9999REMSYN04801359 46/// /2309 10027 21011 39140 40046 58033=
0263013590999992015010118004+60533+008200FM-12+077399999V0202401N004019999999N015000199+00191-00121099991ADDAA112000231AY181021AY221021GA1031+004501081GA2999+999999041GE19AGL   +99999+99999GF108991031999004501999999KA1120M+00401MA1999999090951MD1810451+9999MW1251OD139901701999REMSYN08201359 11465 82404 10019 21012 39095 49999 58045 69922 72582 8321/ 333 10040 91117=
0089013590999992015010121004+60533+008200FM-12+077399999V0202501N006019999999N999999999+00331+00041099281ADDMA1999999090351MD1810611+9999REMSYN04801359 46/// /2506 10033 20004 39035 49928 58061=
0130013590999992015010200004+60533+008200FM-12+077399999V0202201N008019999999N999999999+00381+00071098471ADDAA106002031MA1999999089621MD1810721+9999OD139901501999REMSYN06401359 16/// /2208 10038 20007 38962 49847 58072 60021 333 91115=
0089013590999992015010203004+60533+008200FM-12+077399999V0202301N005019999999N999999999+00231+00081098292ADDMA1999999089421MD1810211+9999REMSYN04801359 46/// /2305 10023 20008 38942 49829 58021=
0249013590999992015010206004+60533+008200FM-12+077399999V0202701N005019999999N070001199+00161-00641098481ADDAA112007031AA224007331AJ100423100420099AY181021AY221021GF100995999999999999999999IA1249KA1240N+00111MA1999999089571MD1310151+9999MW1011OD139901401999REMSYN08801359 11989 02705 10016 21064 38957 49848 53015 60072 70182 333 20011 44042 70073 91114=
0089013590999992015010209004+60533+008200FM-12+077399999V0202401N004019999999N999999999-00061-00371098811ADDMA1999999089801MD1310221+9999REMSYN04801359 46/// /2404 11006 21037 38980 49881 53022=
0228013590999992015010212004+60533+008200FM-12+077399999V0202501N006019999999N004000199-00191-00381099081ADDAA106000731AY171021AY231021GA1081+004501051GE19AGL   +99999+99999GF108991081999004501999999MA1999999090011MD1110201+9999MW1711OD139901701999REMSYN07601359 11440 82506 11019 21038 39001 49908 51020 69971 77173 8802/ 333 91117=
0089013590999992015010215004+60533+008200FM-12+077399999V0202601N007019999999N999999999-00171-00511099271ADDMA1999999090191MD1310181+9999REMSYN04801359 46/// /2607 11017 21051 39019 49927 53018=
0247013590999992015010218004+60533+008200FM-12+077399999V0202501N005019999999N002900199-00121-00341099231ADDAA112004031AY171021AY231021GA1081+004501051GE19AGL   +99999+99999GF108991081999004501999999KA1120M+00181MA1999999090161MD1510031+9999MW1711OD139901301999REMSYN08201359 11429 82505 11012 21034 39016 49923 55003 60042 77173 8802/ 333 10018 91113=
0089013590999992015010221004+60533+008200FM-12+077399999V0202601N006019999999N999999999-00191-00251099481ADDMA1999999090371MD1110201+9999REMSYN04801359 46/// /2606 11019 21025 39037 49948 51020=
0130013590999992015010300004+60533+008200FM-12+077399999V0202501N003019999999N999999999-00141-00291099611ADDAA106006031MA1999999090501MD1310141+9999OD139901901999REMSYN06401359 16/// /2503 11014 21029 39050 49961 53014 60061 333 91119=
0089013590999992015010303004+60533+008200FM-12+077399999V0202401N005019999999N999999999-00201-00311099711ADDMA1999999090571MD1310071+9999REMSYN04801359 46/// /2405 11020 21031 39057 49971 53007=
0293013590999992015010306004+60533+008200FM-12+077399999V0203401N001019999999N060000199-00241-00631099701ADDAA112007031AA224010531AJ100553100550099AY171021AY231021GA1031+012501081GE19AGL   +99999+99999GF103991031999012501999999IA1289KA1240N-00241MA1999999090561MD1510021+9999MW1011OD139901301999REMSYN09401359 11686 33401 11024 21063 39056 49970 55002 60072 70173 83200 333 21024 48055 70105 91113=
0089013590999992015010309004+60533+008200FM-12+077399999V0200201N001019999999N999999999-00351-00721099981ADDMA1999999090771MD1310211+9999REMSYN04801359 46/// /0201 11035 21072 39077 49998 53021=
0244013590999992015010312004+60533+008200FM-12+077399999V0202501N005019999999N018000199-00251-00721100091ADDAA106000231AY181021AY231021GA1041+012501081GA2999+999999001GE19AGL   +99999+99999GF105991041999012501999999MA1999999090901MD1110131+9999MW1261OD139901001999REMSYN07601359 11668 52505 11025 21072 39090 40009 51013 69921 72683 84201 333 91110=
0089013590999992015010315004+60533+008200FM-12+077399999V0203101N003019999999N999999999-00311-01001100261ADDMA1999999091041MD1110141+9999REMSYN04801359 46/// /3103 11031 21100 39104 40026 51014=
0247013590999992015010318004+60533+008200FM-12+077399999V0209999C999999999999N070001199-00621-00931100541ADDAA112000231AY131021AY221021GA1021+012501081GE19AGL   +99999+99999GF102991021999012501999999KA1120M-00111MA1999999091191MD1310151+9999MW1021OD139901101999REMSYN08201359 11689 20000 11062 21093 39119 40054 53015 69922 70232 82200 333 11011 91111=
0089013590999992015010321004+60533+008200FM-12+077399999V0201201N002019999999N999999999-00631-00961100821ADDMA1999999091441MD1310251+9999REMSYN04801359 46/// /1202 11063 21096 39144 40082 53025=
0130013590999992015010400004+60533+008200FM-12+077399999V0202601N004019999999N999999999-00381-01051101031ADDAA106000091MA1999999091721MD1110281+9999OD139901101999REMSYN06401359 16/// /2604 11038 21105 39172 40103 51028 60001 333 91111=
0089013590999992015010403004+60533+008200FM-12+077399999V0202401N002019999999N999999999-00541-01101101371ADDMA1999999091971MD1310251+9999REMSYN04801359 46/// /2402 11054 21110 39197 40137 53025=
0293013590999992015010406004+60533+008200FM-12+077399999V0202701N004019999999N070001199-00431-01161101611ADDAA112000091AA224000231AJ100543100540099AY101021AY201021GA1011+017501081GE19AGL   +99999+99999GF101991011999017501999999IA1289KA1240N-00821MA1999999092221MD1310261+9999MW1021OD139901101999REMSYN09401359 11789 12704 11043 21116 39222 40161 53026 60002 70200 81100 333 21082 48054 70002 91111=
0089013590999992015010409004+60533+008200FM-12+077399999V0203301N003019999999N999999999-00411-01201101851ADDMA1999999092451MD1110221+9999REMSYN04801359 46/// /3303 11041 21120 39245 40185 51022=
0247013590999992015010412004+60533+008200FM-12+077399999V0202801N003019999999N030000199-00361-00831101901ADDAA106999999AY181021AY201021GA1031+012501091GE19AGL   +99999+99999GF103991031999012501999999MA1999999092511MD1310061+9999MW1851OD139901101999REMSYN07601359 11680 32803 11036 21083 39251 40190 53006 60001 78580 83300 333 91111=EQDQ01  00002PRCP06
0089013590999992015010415004+60533+008200FM-12+077399999V0200201N004019999999N999999999-00371-01001102021ADDMA1999999092611MD1310111+9999REMSYN04801359 46/// /0204 11037 21100 39261 40202 53011=
0247013590999992015010418004+60533+008200FM-12+077399999V0202901N004019999999N070001199-00201-00841102041ADDAA112000091AY181021AY201021GA1021+012501061GE19AGL   +99999+99999GF102991021999012501999999KA1120M-00201MA1999999092691MD1310081+9999MW1021OD139901301999REMSYN08201359 11689 22904 11020 21084 39269 40204 53008 60002 70280 82500 333 11020 91113=
0089013590999992015010421004+60533+008200FM-12+077399999V0203001N002019999999N999999999-00281-00861102211ADDMA1999999092821MD1110121+9999REMSYN04801359 46/// /3002 11028 21086 39282 40221 51012=
0130013590999992015010500004+60533+008200FM-12+077399999V0209999C999999999999N999999999-00761-01001102431ADDAA106000091MA1999999092861MD1990051+9999OD139900901999REMSYN06401359 16/// /0000 11076 21100 39286 40243 50005 60001 333 91109=
0089013590999992015010503004+60533+008200FM-12+077399999V0202501N002019999999N999999999-00401-00691102361ADDMA1999999092921MD1990051+9999REMSYN04801359 46/// /2502 11040 21069 39292 40236 50005=
0293013590999992015010506004+60533+008200FM-12+077399999V0202301N004019999999N050000199-00201-00591102281ADDAA112000091AA224000091AJ100543100540099AY121021AY201021GA1071+012501061GE19AGL   +99999+99999GF107991071999012501999999IA1289KA1240N-00861MA1999999092911MD1510001+9999MW1021OD139900701999REMSYN09401359 11684 72304 11020 21059 39291 40228 55000 60002 70220 87500 333 21086 48054 70000 91107=
0108013590999992015010509004+60533+008200FM-12+077399999V0202401N002019999999N999999999-00131-00461102261ADDMA1999999092921MD1790029+9999REMSYN04801359 46/// /2402 11013 21046 39292 40226 54001=EQDQ01.1    3APC3  
0244013590999992015010512004+60533+008200FM-12+077399999V0202401N001019999999N040000199-00071-00351102241ADDAA106000091AY121021AY221021GA1051+008001061GA2999+999999041GE19AGL   +99999+99999GF108991051999008001999999MA1999999092911MD1990001+9999MW1021OD139900601999REMSYN07601359 11582 82401 11007 21035 39291 40224 50000 60001 70222 8551/ 333 91106=
0089013590999992015010515004+60533+008200FM-12+077399999V0200701N001019999999N999999999-00271-00381102271ADDMA1999999092881MD1710031+9999REMSYN04801359 46/// /0701 11027 21038 39288 40227 57003=
0263013590999992015010518004+60533+008200FM-12+077399999V0209999C999999999999N040000199-00401-00461102281ADDAA112000231AY171021AY221021GA1051+012501061GA2999+999999031GE19AGL   +99999+99999GF108991051999012501999999KA1120M-00021MA1999999092841MD1710031+9999MW1021OD139900601999REMSYN08201359 11682 80000 11040 21046 39284 40228 57003 69922 70272 8557/ 333 11002 91106=
0089013590999992015010521004+60533+008200FM-12+077399999V0209999C999999999999N999999999-00471-00511102261ADDMA1999999092811MD1710041+9999REMSYN04801359 46/// /0000 11047 21051 39281 40226 57004=
0089013590999992015010522004+60533+008200FM-12+077399999V0209999C999999999999N999999999-00491-00531102271ADDMA1999999092801MD1710031+9999REMSYN04801359 46/// /0000 11049 21053 39280 40227 57003=
0089013590999992015010523004+60533+008200FM-12+077399999V0209999C999999999999N999999999-00531-00581102271ADDMA1999999092791MD1710031+9999REMSYN04801359 46/// /0000 11053 21058 39279 40227 57003=
0130013590999992015010600004+60533+008200FM-12+077399999V0209999C999999999999N999999999-00541-00591102231ADDAA106000091MA1999999092751MD1810051+9999OD139900001999REMSYN06401359 16/// /0000 11054 21059 39275 40223 58005 60001 333 91100=
0089013590999992015010601004+60533+008200FM-12+077399999V0209999C999999999999N999999999-00471-00511102181ADDMA1999999092731MD1710071+9999REMSYN04801359 46/// /0000 11047 21051 39273 40218 57007=
0089013590999992015010602004+60533+008200FM-12+077399999V0209999C999999999999N999999999-00501-00551102141ADDMA1999999092681MD1810111+9999REMSYN04801359 46/// /0000 11050 21055 39268 40214 58011=
0089013590999992015010603004+60533+008200FM-12+077399999V0209999C999999999999N999999999-00481-00531102091ADDMA1999999092651MD1810111+9999REMSYN04801359 46/// /0000 11048 21053 39265 40209 58011=
0089013590999992015010604004+60533+008200FM-12+077399999V0209999C999999999999N999999999-00461-00511102031ADDMA1999999092591MD1810141+9999REMSYN04801359 46/// /0000 11046 21051 39259 40203 58014=
0089013590999992015010605004+60533+008200FM-12+077399999V0209999C999999999999N999999999-00441-00491101971ADDMA1999999092551MD1810141+9999REMSYN04801359 46/// /0000 11044 21049 39255 40197 58014=
0293013590999992015010606004+60533+008200FM-12+077399999V0209999C999999999999N014000199-00431-00471101921ADDAA112000631AA224000831AJ100553100550099AY171021AY221021GA1081+004501051GE19AGL   +99999+99999GF108991081999004501999999IA1289KA1240N-00561MA1999999092511MD1710141+9999MW1701OD139900001999REMSYN09401359 11464 80000 11043 21047 39251 40192 57014 69962 77072 8802/ 333 21056 48055 70008 91100=
0089013590999992015010607004+60533+008200FM-12+077399999V0209999C999999999999N999999999-00421-00471101871ADDMA1999999092471MD1710131+9999REMSYN04801359 46/// /0000 11042 21047 39247 40187 57013=
0089013590999992015010608004+60533+008200FM-12+077399999V0209999C999999999999N999999999-00401-00451101851ADDMA1999999092451MD1710101+9999REMSYN04801359 46/// /0000 11040 21045 39245 40185 57010=
0089013590999992015010609004+60533+008200FM-12+077399999V0209999C999999999999N999999999-00401-00461101821ADDMA1999999092431MD1710081+9999REMSYN04801359 46/// /0000 11040 21046 39243 40182 57008=
0089013590999992015010610004+60533+008200FM-12+077399999V0209999C999999999999N999999999-00381-00441101771ADDMA1999999092391MD1810081+9999REMSYN04801359 46/// /0000 11038 21044 39239 40177 58008=
0089013590999992015010611004+60533+008200FM-12+077399999V0201201N001019999999N999999999-00331-00401101641ADDMA1999999092291MD1810161+9999REMSYN04801359 46/// /1201 11033 21040 39229 40164 58016=
0263013590999992015010612004+60533+008200FM-12+077399999V0202201N001019999999N018000199-00311-00371101521ADDAA106999999AY171021AY221021GA1051+004501061GA2999+999999031GE19AGL   +99999+99999GF108991051999004501999999MA1999999092191MD1810241+9999MW1781OD139900401999REMSYN07601359 11468 82201 11031 21037 39219 40152 58024 60001 77872 8557/ 333 91104=EQDQ01  00002PRCP06
0089013590999992015010613004+60533+008200FM-12+077399999V0200101N002019999999N999999999-00251-00341101441ADDMA1999999092131MD1610261+9999REMSYN04801359 46/// /0102 11025 21034 39213 40144 56026=
0089013590999992015010614004+60533+008200FM-12+077399999V0200501N002019999999N999999999-00091-00201101281ADDMA1999999092041MD1810251+9999REMSYN04801359 46/// /0502 11009 21020 39204 40128 58025=
0089013590999992015010615004+60533+008200FM-12+077399999V0200801N002019999999N999999999-00071-00281101201ADDMA1999999091971MD1810211+9999REMSYN04801359 46/// /0802 11007 21028 39197 40120 58021=
0089013590999992015010616004+60533+008200FM-12+077399999V0200601N001019999999N999999999+00051-00191101091ADDMA1999999091911MD1710221+9999REMSYN04801359 46/// /0601 10005 21019 39191 40109 57022=
0089013590999992015010617004+60533+008200FM-12+077399999V0200301N001019999999N999999999+00151-00211100951ADDMA1999999091811MD1810221+9999REMSYN04801359 46/// /0301 10015 21021 39181 40095 58022=
0263013590999992015010618004+60533+008200FM-12+077399999V0202201N001019999999N028000199+00091-00201100921ADDAA112000091AY181021AY271021GA1051+008001061GA2999+999999031GE19AGL   +99999+99999GF108991051999008001999999KA1120M+00191MA1999999091771MD1710201+9999MW1021OD139900901999REMSYN08201359 11578 82201 10009 21020 39177 40092 57020 60002 70287 8557/ 333 10019 91109=
0089013590999992015010619004+60533+008200FM-12+077399999V0203501N002019999999N999999999+00191-00201100821ADDMA1999999091711MD1610201+9999REMSYN04801359 46/// /3502 10019 21020 39171 40082 56020=
0089013590999992015010620004+60533+008200FM-12+077399999V0209999C999999999999N999999999+00171-00211100781ADDMA1999999091661MD1710151+9999REMSYN04801359 46/// /0000 10017 21021 39166 40078 57015=
0089013590999992015010621004+60533+008200FM-12+077399999V0202001N001019999999N999999999+00121-00201100751ADDMA1999999091621MD1710151+9999REMSYN04801359 46/// /2001 10012 21020 39162 40075 57015=
0089013590999992015010622004+60533+008200FM-12+077399999V0203201N001019999999N999999999+00191-00191100681ADDMA1999999091581MD1710131+9999REMSYN04801359 46/// /3201 10019 21019 39158 40068 57013=
0089013590999992015010623004+60533+008200FM-12+077399999V0202501N002019999999N999999999+00181-00211100631ADDMA1999999091531MD1710141+9999REMSYN04801359 46/// /2502 10018 21021 39153 40063 57014=
0130013590999992015010700004+60533+008200FM-12+077399999V0202001N004019999999N999999999+00101-00141100651ADDAA106000091MA1999999091531MD1510091+9999OD139900801999REMSYN06401359 16/// /2004 10010 21014 39153 40065 55009 60001 333 91108=
0089013590999992015010701004+60533+008200FM-12+077399999V0202601N001019999999N999999999+00031-00261100681ADDMA1999999091531MD1510041+9999REMSYN04801359 46/// /2601 10003 21026 39153 40068 55004=
0089013590999992015010702004+60533+008200FM-12+077399999V0202201N001019999999N999999999-00071-00411100841ADDMA1999999091641MD1310121+9999REMSYN04801359 46/// /2201 11007 21041 39164 40084 53012=
0089013590999992015010703004+60533+008200FM-12+077399999V0202601N003019999999N999999999-00041-00401100911ADDMA1999999091721MD1310191+9999REMSYN04801359 46/// /2603 11004 21040 39172 40091 53019=
0089013590999992015010704004+60533+008200FM-12+077399999V0202501N001019999999N999999999-00011-00441101001ADDMA1999999091811MD1310281+9999REMSYN04801359 46/// /2501 11001 21044 39181 40100 53028=
0089013590999992015010705004+60533+008200FM-12+077399999V0202901N003019999999N999999999+00051-00631101061ADDMA1999999091881MD1310241+9999REMSYN04801359 46/// /2903 10005 21063 39188 40106 53024=
0249013590999992015010706004+60533+008200FM-12+077399999V0202601N003019999999N070001199-00201-00641101211ADDAA112000091AA224000091AJ100523100520099AY121021AY201021GF100995999999999999999999IA1289KA1240N-00221MA1999999091931MD1210211+9999MW1011OD139901101999REMSYN08801359 11989 02603 11020 21064 39193 40121 52021 60002 70120 333 21022 48052 70000 91111=
0089013590999992015010707004+60533+008200FM-12+077399999V0202901N003019999999N999999999-00351-00781101311ADDMA1999999091981MD1210171+9999REMSYN04801359 46/// /2903 11035 21078 39198 40131 52017=
0089013590999992015010708004+60533+008200FM-12+077399999V0202801N002019999999N999999999-00421-00821101371ADDMA1999999092011MD1110131+9999REMSYN04801359 46/// /2802 11042 21082 39201 40137 51013=
0089013590999992015010709004+60533+008200FM-12+077399999V0202801N003019999999N999999999-00441-00851101411ADDMA1999999092051MD1110111+9999REMSYN04801359 46/// /2803 11044 21085 39205 40141 51011=
0089013590999992015010710004+60533+008200FM-12+077399999V0202501N003019999999N999999999-00511-00941101471ADDMA1999999092071MD1110091+9999REMSYN04801359 46/// /2503 11051 21094 39207 40147 51009=
0089013590999992015010711004+60533+008200FM-12+077399999V0201601N001019999999N999999999-00381-00781101421ADDMA1999999092071MD1110061+9999REMSYN04801359 46/// /1601 11038 21078 39207 40142 51006=
0244013590999992015010712004+60533+008200FM-12+077399999V0202601N002019999999N070001199-00261-00691101281ADDAA106000091AY121021AY201021GA1011+999999031GA2999+999999001GE19AGL   +99999+99999GF106991011999999999999999MA1999999091981MD1810061+9999MW1031OD139900701999REMSYN07601359 11989 62602 11026 21069 39198 40128 58006 60001 70320 81052 333 91107=
0089013590999992015010713004+60533+008200FM-12+077399999V0202401N005019999999N999999999-00271-00691101191ADDMA1999999091891MD1810181+9999REMSYN04801359 46/// /2405 11027 21069 39189 40119 58018=
0089013590999992015010714004+60533+008200FM-12+077399999V0202601N002019999999N999999999-00351-00731101221ADDMA1999999091901MD1610161+9999REMSYN04801359 46/// /2602 11035 21073 39190 40122 56016=
0089013590999992015010715004+60533+008200FM-12+077399999V0202601N001019999999N999999999-00321-00661101101ADDMA1999999091801MD1810181+9999REMSYN04801359 46/// /2601 11032 21066 39180 40110 58018=
0089013590999992015010716004+60533+008200FM-12+077399999V0202301N002019999999N999999999-00421-00651101061ADDMA1999999091731MD1810171+9999REMSYN04801359 46/// /2302 11042 21065 39173 40106 58017=
0089013590999992015010717004+60533+008200FM-12+077399999V0202301N002019999999N999999999-00231-00551100931ADDMA1999999091671MD1610231+9999REMSYN04801359 46/// /2302 11023 21055 39167 40093 56023=
0282013590999992015010718004+60533+008200FM-12+077399999V0209999C999999999999N020000199-00231-00541100791ADDAA112999999AY171021AY221021GA1031+004501071GA2999+999999051GE19AGL   +99999+99999GF108991031999004501999999KA1120M-00171MA1999999091551MD1810261+9999MW1711OD139901001999REMSYN08201359 11470 80000 11023 21054 39155 40079 58026 60002 77172 8362/ 333 11017 91110=EQDQ01  00002PRCP12
0089013590999992015010719004+60533+008200FM-12+077399999V0209999C999999999999N999999999-00211-00491100651ADDMA1999999091431MD1810301+9999REMSYN04801359 46/// /0000 11021 21049 39143 40065 58030=
0089013590999992015010720004+60533+008200FM-12+077399999V0209999C999999999999N999999999-00341-00431100511ADDMA1999999091261MD1810421+9999REMSYN04801359 46/// /0000 11034 21043 39126 40051 58042=
0089013590999992015010721004+60533+008200FM-12+077399999V0209999C999999999999N999999999-00381-00481100391ADDMA1999999091141MD1810411+9999REMSYN04801359 46/// /0000 11038 21048 39114 40039 58041=
0089013590999992015010722004+60533+008200FM-12+077399999V0200601N001019999999N999999999-00471-00541100331ADDMA1999999091051MD1810371+9999REMSYN04801359 46/// /0601 11047 21054 39105 40033 58037=
0089013590999992015010723004+60533+008200FM-12+077399999V0209999C999999999999N999999999-00481-00551100131ADDMA1999999090871MD1810391+9999REMSYN04801359 46/// /0000 11048 21055 39087 40013 58039=
0130013590999992015010800004+60533+008200FM-12+077399999V0209999C999999999999N999999999-00491-00551099931ADDAA106001031MA1999999090681MD1810461+9999OD139900301999REMSYN06401359 16/// /0000 11049 21055 39068 49993 58046 60011 333 91103=
0089013590999992015010801004+60533+008200FM-12+077399999V0209999C999999999999N999999999-00291-00401099781ADDMA1999999090611MD1610441+9999REMSYN04801359 46/// /0000 11029 21040 39061 49978 56044=
0089013590999992015010802004+60533+008200FM-12+077399999V0200701N001019999999N999999999-00301-00361099661ADDMA1999999090501MD1610371+9999REMSYN04801359 46/// /0701 11030 21036 39050 49966 56037=
0089013590999992015010803004+60533+008200FM-12+077399999V0202501N005019999999N999999999+00171+00021099451ADDMA1999999090461MD1610231+9999REMSYN04801359 46/// /2505 10017 20002 39046 49945 56023=
0089013590999992015010804004+60533+008200FM-12+077399999V0202401N004019999999N999999999+00151-00141099461ADDMA1999999090461MD1610151+9999REMSYN04801359 46/// /2404 10015 21014 39046 49946 56015=
0089013590999992015010805004+60533+008200FM-12+077399999V0202301N006019999999N999999999+00121-00221099531ADDMA1999999090511MD1310011+9999REMSYN04801359 46/// /2306 10012 21022 39051 49953 53001=
0293013590999992015010806004+60533+008200FM-12+077399999V0202401N006019999999N070001199-00021-00381099621ADDAA112003031AA224003131AJ100543100540099AY171021AY221021GA1021+012501061GE19AGL   +99999+99999GF102991021999012501999999IA1289KA1240N-00501MA1999999090551MD1310091+9999MW1011OD139901301999REMSYN09401359 11689 22406 11002 21038 39055 49962 53009 60032 70172 82500 333 21050 48054 70031 91113=
0089013590999992015010807004+60533+008200FM-12+077399999V0202301N007019999999N999999999-00061-00201099711ADDMA1999999090621MD1310161+9999REMSYN04801359 46/// /2307 11006 21020 39062 49971 53016=
0089013590999992015010808004+60533+008200FM-12+077399999V0202301N008019999999N999999999-00111-00361099831ADDMA1999999090711MD1310211+9999REMSYN04801359 46/// /2308 11011 21036 39071 49983 53021=
0089013590999992015010809004+60533+008200FM-12+077399999V0202301N007019999999N999999999-00061-00281099871ADDMA1999999090761MD1110211+9999REMSYN04801359 46/// /2307 11006 21028 39076 49987 51021=
0089013590999992015010810004+60533+008200FM-12+077399999V0202301N006019999999N999999999-00081-00411099901ADDMA1999999090791MD1110161+9999REMSYN04801359 46/// /2306 11008 21041 39079 49990 51016=
0089013590999992015010811004+60533+008200FM-12+077399999V0202301N008019999999N999999999-00121-00541099891ADDMA1999999090761MD1990051+9999REMSYN04801359 46/// /2308 11012 21054 39076 49989 50005=
0228013590999992015010812004+60533+008200FM-12+077399999V0202301N009019999999N070001199-00111-00451099801ADDAA106000631AY181021AY231021GA1021+012501061GE19AGL   +99999+99999GF102991021999012501999999MA1999999090691MD1810071+9999MW1011OD139901501999REMSYN07601359 11689 22309 11011 21045 39069 49980 58007 69961 70183 82500 333 91115=
0089013590999992015010813004+60533+008200FM-12+077399999V0202301N010019999999N999999999-00061-00441099771ADDMA1999999090671MD1510111+9999REMSYN04801359 46/// /2310 11006 21044 39067 49977 55011=
0089013590999992015010814004+60533+008200FM-12+077399999V0202401N005019999999N999999999-00161-00301099921ADDMA1999999090771MD1310021+9999REMSYN04801359 46/// /2405 11016 21030 39077 49992 53002=
0089013590999992015010815004+60533+008200FM-12+077399999V0202401N006019999999N999999999-00081-00331099831ADDMA1999999090721MD1990031+9999REMSYN04801359 46/// /2406 11008 21033 39072 49983 50003=
0089013590999992015010816004+60533+008200FM-12+077399999V0202401N004019999999N999999999-00111-00381099891ADDMA1999999090771MD1990091+9999REMSYN04801359 46/// /2404 11011 21038 39077 49989 50009=
0089013590999992015010817004+60533+008200FM-12+077399999V0202301N005019999999N999999999-00141-00361099891ADDMA1999999090761MD1510021+9999REMSYN04801359 46/// /2305 11014 21036 39076 49989 55002=
0247013590999992015010818004+60533+008200FM-12+077399999V0202701N003019999999N040000199-00151-00481099851ADDAA112000831AY181021AY211021GA1041+008001081GE19AGL   +99999+99999GF104991041999008001999999KA1120M+00001MA1999999090721MD1990001+9999MW1261OD139901501999REMSYN08201359 11582 42703 11015 21048 39072 49985 50000 69982 72681 84200 333 10000 91115=
0089013590999992015010819004+60533+008200FM-12+077399999V0201601N002019999999N999999999-00181-00521099911ADDMA1999999090771MD1510001+9999REMSYN04801359 46/// /1602 11018 21052 39077 49991 55000=
0089013590999992015010820004+60533+008200FM-12+077399999V0200401N003019999999N999999999-00201-00451099911ADDMA1999999090761MD1510001+9999REMSYN04801359 46/// /0403 11020 21045 39076 49991 55000=
0089013590999992015010821004+60533+008200FM-12+077399999V0202901N002019999999N999999999-00111-00441099911ADDMA1999999090781MD1110061+9999REMSYN04801359 46/// /2902 11011 21044 39078 49991 51006=
0089013590999992015010822004+60533+008200FM-12+077399999V0202501N004019999999N999999999-00061-00481099861ADDMA1999999090761MD1810011+9999REMSYN04801359 46/// /2504 11006 21048 39076 49986 58001=
0089013590999992015010823004+60533+008200FM-12+077399999V0202601N005019999999N999999999-00051-00491099871ADDMA1999999090771MD1510011+9999REMSYN04801359 46/// /2605 11005 21049 39077 49987 55001=
0130013590999992015010900004+60533+008200FM-12+077399999V0202501N006019999999N999999999-00081-00661099841ADDAA106000091MA1999999090731MD1510051+9999OD139901401999REMSYN06401359 16/// /2506 11008 21066 39073 49984 55005 60001 333 91114=
0089013590999992015010901004+60533+008200FM-12+077399999V0202301N005019999999N999999999-00191-00531099871ADDMA1999999090721MD1610041+9999REMSYN04801359 46/// /2305 11019 21053 39072 49987 56004=
0089013590999992015010902004+60533+008200FM-12+077399999V0200601N001019999999N999999999-00351-00531099861ADDMA1999999090661MD1810111+9999REMSYN04801359 46/// /0601 11035 21053 39066 49986 58011=
0089013590999992015010903004+60533+008200FM-12+077399999V0209999C999999999999N999999999-00341-00631099741ADDMA1999999090561MD1810171+9999REMSYN04801359 46/// /0000 11034 21063 39056 49974 58017=
0089013590999992015010904004+60533+008200FM-12+077399999V0202701N001019999999N999999999-00511-00811099711ADDMA1999999090471MD1810251+9999REMSYN04801359 46/// /2701 11051 21081 39047 49971 58025=
0089013590999992015010905004+60533+008200FM-12+077399999V0202801N002019999999N999999999-00691-00841099651ADDMA1999999090361MD1810301+9999REMSYN04801359 46/// /2802 11069 21084 39036 49965 58030=
0325013590999992015010906004+60533+008200FM-12+077399999V0203101N001019999999N050000199-00801-00931099531ADDAA112000091AA224000831AJ100553100550099AY181021AY231021GA1041+012501061GA2999+999999031GA3999+999999001GE19AGL   +99999+99999GF107991041999012501999999IA1289KA1240N-00911MA1999999090221MD1810331+9999MW1021OD139901201999REMSYN09401359 11684 73101 11080 21093 39022 49953 58033 60002 70283 84572 333 21091 48055 70008 91112=
0089013590999992015010907004+60533+008200FM-12+077399999V0200301N002019999999N999999999-00651-00841099321ADDMA1999999090081MD1810401+9999REMSYN04801359 46/// /0302 11065 21084 39008 49932 58040=
0089013590999992015010908004+60533+008200FM-12+077399999V0209999C999999999999N999999999-00711-00901099241ADDMA1999999089981MD1810371+9999REMSYN04801359 46/// /0000 11071 21090 38998 49924 58037=
0089013590999992015010909004+60533+008200FM-12+077399999V0209999C999999999999N999999999-00741-00911099181ADDMA1999999089921MD1610301+9999REMSYN04801359 46/// /0000 11074 21091 38992 49918 56030=
0089013590999992015010910004+60533+008200FM-12+077399999V0209999C999999999999N999999999-00921-01041099221ADDMA1999999089891MD1610191+9999REMSYN04801359 46/// /0000 11092 21104 38989 49922 56019=
0089013590999992015010911004+60533+008200FM-12+077399999V0209999C999999999999N999999999-00961-01081099171ADDMA1999999089841MD1710151+9999REMSYN04801359 46/// /0000 11096 21108 38984 49917 57015=
0244013590999992015010912004+60533+008200FM-12+077399999V0209999C999999999999N050000199-00751-00981099061ADDAA106000091AY121021AY221021GA1051+012501061GA2999+999999031GE19AGL   +99999+99999GF107991051999012501999999MA1999999089811MD1710111+9999MW1021OD139900401999REMSYN07601359 11684 70000 11075 21098 38981 49906 57011 60001 70222 85530 333 91104=
0089013590999992015010913004+60533+008200FM-12+077399999V0209999C999999999999N999999999-00711-00941099051ADDMA1999999089821MD1510081+9999REMSYN04801359 46/// /0000 11071 21094 38982 49905 55008=
0089013590999992015010914004+60533+008200FM-12+077399999V0209999C999999999999N999999999-00681-00891099111ADDMA1999999089871MD1310041+9999REMSYN04801359 46/// /0000 11068 21089 38987 49911 53004=
0089013590999992015010915004+60533+008200FM-12+077399999V0209999C999999999999N999999999-00701-00891099271ADDMA1999999090021MD1310211+9999REMSYN04801359 46/// /0000 11070 21089 39002 49927 53021=
0089013590999992015010916004+60533+008200FM-12+077399999V0209999C999999999999N999999999-00751-00901099401ADDMA1999999090121MD1310301+9999REMSYN04801359 46/// /0000 11075 21090 39012 49940 53030=
0089013590999992015010917004+60533+008200FM-12+077399999V0209999C999999999999N999999999-00801-00921099481ADDMA1999999090171MD1110291+9999REMSYN04801359 46/// /0000 11080 21092 39017 49948 51029=
0247013590999992015010918004+60533+008200FM-12+077399999V0209999C999999999999N050000199-00871-00961099561ADDAA112000091AY121021AY221021GA1071+012501061GE19AGL   +99999+99999GF107991071999012501999999KA1120M-00611MA1999999090221MD1110201+9999MW1021OD139900001999REMSYN08201359 11684 70000 11087 21096 39022 49956 51020 60002 70222 87500 333 11061 91100=
0089013590999992015010919004+60533+008200FM-12+077399999V0209999C999999999999N999999999-00811-00921099531ADDMA1999999090221MD1990101+9999REMSYN04801359 46/// /0000 11081 21092 39022 49953 50010=
0089013590999992015010920004+60533+008200FM-12+077399999V0202701N001019999999N999999999-00721-00841099481ADDMA1999999090201MD1990031+9999REMSYN04801359 46/// /2701 11072 21084 39020 49948 50003=
0089013590999992015010921004+60533+008200FM-12+077399999V0202501N003019999999N999999999-00471-00761099371ADDMA1999999090181MD1810041+9999REMSYN04801359 46/// /2503 11047 21076 39018 49937 58004=
0089013590999992015010922004+60533+008200FM-12+077399999V0202601N001019999999N999999999-00511-00771099401ADDMA1999999090191MD1710021+9999REMSYN04801359 46/// /2601 11051 21077 39019 49940 57002=
0089013590999992015010923004+60533+008200FM-12+077399999V0202601N002019999999N999999999-00501-00661099321ADDMA1999999090131MD1810071+9999REMSYN04801359 46/// /2602 11050 21066 39013 49932 58007=
0130013590999992015011000004+60533+008200FM-12+077399999V0202801N002019999999N999999999-00421-00581099231ADDAA106000091MA1999999090071MD1810111+9999OD139900601999REMSYN06401359 16/// /2802 11042 21058 39007 49923 58011 60001 333 91106=
0089013590999992015011001004+60533+008200FM-12+077399999V0209999C999999999999N999999999-00471-00581099151ADDMA1999999089981MD1810211+9999REMSYN04801359 46/// /0000 11047 21058 38998 49915 58021=
0089013590999992015011002004+60533+008200FM-12+077399999V0209999C999999999999N999999999-00521-00621099041ADDMA1999999089871MD1810261+9999REMSYN04801359 46/// /0000 11052 21062 38987 49904 58026=
0089013590999992015011003004+60533+008200FM-12+077399999V0209999C999999999999N999999999-00701-00781099021ADDMA1999999089791MD1810281+9999REMSYN04801359 46/// /0000 11070 21078 38979 49902 58028=
0089013590999992015011004004+60533+008200FM-12+077399999V0209999C999999999999N999999999-00681-00781098821ADDMA1999999089611MD1810381+9999REMSYN04801359 46/// /0000 11068 21078 38961 49882 58038=
0089013590999992015011005004+60533+008200FM-12+077399999V0209999C999999999999N999999999-00701-00781098611ADDMA1999999089411MD1810461+9999REMSYN04801359 46/// /0000 11070 21078 38941 49861 58046=
0293013590999992015011006004+60533+008200FM-12+077399999V0209999C999999999999N001400199-00731-00811098261ADDAA112003031AA224003331AJ100593100590099AY171021AY221021GA1081+002501051GE19AGL   +99999+99999GF108991081999002501999999IA1289KA1240N-00901MA1999999089091MD1810701+9999MW1711OD139900301999REMSYN09401359 11314 80000 11073 21081 38909 49826 58070 60032 77172 8802/ 333 21090 48059 70033 91103=
0089013590999992015011007004+60533+008200FM-12+077399999V0209999C999999999999N999999999-00751-00831097891ADDMA1999999088751MD1810861+9999REMSYN04801359 46/// /0000 11075 21083 38875 49789 58086=
0089013590999992015011008004+60533+008200FM-12+077399999V0209999C999999999999N999999999-00791-00871097551ADDMA1999999088431MD1810981+9999REMSYN04801359 46/// /0000 11079 21087 38843 49755 58098=
0089013590999992015011009004+60533+008200FM-12+077399999V0209999C999999999999N999999999-00801-00871097221ADDMA1999999088121MD1810961+9999REMSYN04801359 46/// /0000 11080 21087 38812 49722 58096=
0089013590999992015011010004+60533+008200FM-12+077399999V0202801N001019999999N999999999-00771-00831097061ADDMA1999999087981MD1610771+9999REMSYN04801359 46/// /2801 11077 21083 38798 49706 56077=
0089013590999992015011011004+60533+008200FM-12+077399999V0209999C999999999999N999999999-00631-00701096821ADDMA1999999087811MD1610621+9999REMSYN04801359 46/// /0000 11063 21070 38781 49682 56062=
0228013590999992015011012004+60533+008200FM-12+077399999V0209999C999999999999N004200199-00641-00751096541ADDAA106016031AY171021AY271021GA1081+004501051GE19AGL   +99999+99999GF108991081999004501999999MA1999999087561MD1810571+9999MW1711OD139900401999REMSYN07601359 11442 80000 11064 21075 38756 49654 58057 60161 77177 8802/ 333 91104=
0089013590999992015011013004+60533+008200FM-12+077399999V0202301N002019999999N999999999-00191-00301096141ADDMA1999999087331MD1810651+9999REMSYN04801359 46/// /2302 11019 21030 38733 49614 58065=
0089013590999992015011014004+60533+008200FM-12+077399999V0202401N004019999999N999999999-00081-00221095761ADDMA1999999087021MD1810791+9999REMSYN04801359 46/// /2404 11008 21022 38702 49576 58079=
0108013590999992015011015004+60533+008200FM-12+077399999V0202301N009019999999N999999999+00011-00181999999ADDMA1999999086802MD1810751+9999REMSYN04801359 46/// /2309 10001 21018 38680 49549 58075=EQDQ01 095493APOSLP
0124013590999992015011016004+60533+008200FM-12+077399999V0200501N002019999999N999999999-00131-00201999999ADDMA1999999999999MD1610501+9999REMSYN04801359 46/// /0502 11013 21020 38683 49556 56050=EQDQ01 086833APOSP Q02 095563APOSLP
0124013590999992015011017004+60533+008200FM-12+077399999V0202401N004019999999N999999999-00031-00091999999ADDMA1999999999999MD1510101+9999REMSYN04801359 46/// /2404 11003 21009 38693 49564 55010=EQDQ01 086933APOSP Q02 095643APOSLP
0266013590999992015011018004+60533+008200FM-12+077399999V0202601N008019999999N000600199-00071-00161999999ADDAA112018031AY171021AY231021GA1081+002501051GE19AGL   +99999+99999GF108991081999002501999999KA1120M+00021MA1999999087241MD1310441+9999MW1711OD139901701999REMSYN08201359 11306 82608 11007 21016 38724 49599 53044 60182 77173 8802/ 333 10002 91117=EQDQ01 095993APOSLP
0089013590999992015011019004+60533+008200FM-12+077399999V0202701N008019999999N999999999-00091-00241096411ADDMA1999999087611MD1310771+9999REMSYN04801359 46/// /2708 11009 21024 38761 49641 53077=
0089013590999992015011020004+60533+008200FM-12+077399999V0202601N006019999999N999999999-00021-00331096601ADDMA1999999087801MD1110881+9999REMSYN04801359 46/// /2606 11002 21033 38780 49660 51088=
0089013590999992015011021004+60533+008200FM-12+077399999V0202501N008019999999N999999999-00161-00271096841ADDMA1999999087981MD1110731+9999REMSYN04801359 46/// /2508 11016 21027 38798 49684 51073=
0089013590999992015011022004+60533+008200FM-12+077399999V0202401N008019999999N999999999-00191-00331097031ADDMA1999999088151MD1310541+9999REMSYN04801359 46/// /2408 11019 21033 38815 49703 53054=
0089013590999992015011023004+60533+008200FM-12+077399999V0202501N010019999999N999999999-00181-00351097071ADDMA1999999088181MD1110381+9999REMSYN04801359 46/// /2510 11018 21035 38818 49707 51038=
0130013590999992015011100004+60533+008200FM-12+077399999V0202501N010019999999N999999999-00201-00341097191ADDAA106001031MA1999999088291MD1110321+9999OD139902101999REMSYN06401359 16/// /2510 11020 21034 38829 49719 51032 60011 333 91121=
0089013590999992015011101004+60533+008200FM-12+077399999V0202501N009019999999N999999999-00191-00361097311ADDMA1999999088391MD1310241+9999REMSYN04801359 46/// /2509 11019 21036 38839 49731 53024=
0089013590999992015011102004+60533+008200FM-12+077399999V0202501N007019999999N999999999-00211-00341097471ADDMA1999999088531MD1310351+9999REMSYN04801359 46/// /2507 11021 21034 38853 49747 53035=
0089013590999992015011103004+60533+008200FM-12+077399999V0202501N008019999999N999999999-00201-00371097541ADDMA1999999088601MD1110311+9999REMSYN04801359 46/// /2508 11020 21037 38860 49754 51031=
0089013590999992015011104004+60533+008200FM-12+077399999V0202501N008019999999N999999999-00211-00431097571ADDMA1999999088631MD1110241+9999REMSYN04801359 46/// /2508 11021 21043 38863 49757 51024=
0089013590999992015011105004+60533+008200FM-12+077399999V0202501N005019999999N999999999-00221-00431097681ADDMA1999999088731MD1310201+9999REMSYN04801359 46/// /2505 11022 21043 38873 49768 53020=
0309013590999992015011106004+60533+008200FM-12+077399999V0202501N006019999999N014000199-00091-00551097721ADDAA112002031AA224020431AJ100733100730099AY171021AY231021GA1071+004501081GA2999+999999021GE19AGL   +99999+99999GF107991071999004501999999IA1289KA1240N-00251MA1999999088801MD1310201+9999MW1381OD139901801999REMSYN09401359 11464 72506 11009 21055 38880 49772 53020 60022 73873 87208 333 21025 48073 70204 91118=
0089013590999992015011107004+60533+008200FM-12+077399999V0202501N005019999999N999999999-00191-00451097821ADDMA1999999088861MD1210231+9999REMSYN04801359 46/// /2505 11019 21045 38886 49782 52023=
0089013590999992015011108004+60533+008200FM-12+077399999V0202501N003019999999N999999999-00171-00511097951ADDMA1999999088981MD1310251+9999REMSYN04801359 46/// /2503 11017 21051 38898 49795 53025=
0089013590999992015011109004+60533+008200FM-12+077399999V0202701N004019999999N999999999-00141-00501098081ADDMA1999999089111MD1310321+9999REMSYN04801359 46/// /2704 11014 21050 38911 49808 53032=
0089013590999992015011110004+60533+008200FM-12+077399999V0202801N003019999999N999999999-00161-00581098261ADDMA1999999089271MD1310411+9999REMSYN04801359 46/// /2803 11016 21058 38927 49826 53041=
0089013590999992015011111004+60533+008200FM-12+077399999V0202901N003019999999N999999999-00131-00691098391ADDMA1999999089401MD1310421+9999REMSYN04801359 46/// /2903 11013 21069 38940 49839 53042=
0244013590999992015011112004+60533+008200FM-12+077399999V0202901N005019999999N030000199-00111-00751098511ADDAA106000091AY181021AY231021GA1071+012501061GA2999+999999021GE19AGL   +99999+99999GF108991071999012501999999MA1999999089511MD1110401+9999MW1021OD139901201999REMSYN07601359 11680 82905 11011 21075 38951 49851 51040 60001 70283 87508 333 91112=
0089013590999992015011113004+60533+008200FM-12+077399999V0202901N005019999999N999999999-00141-00721098691ADDMA1999999089671MD1310401+9999REMSYN04801359 46/// /2905 11014 21072 38967 49869 53040=
0089013590999992015011114004+60533+008200FM-12+077399999V0202801N004019999999N999999999-00161-00721098881ADDMA1999999089841MD1310441+9999REMSYN04801359 46/// /2804 11016 21072 38984 49888 53044=
0089013590999992015011115004+60533+008200FM-12+077399999V0202701N003019999999N999999999-00231-00721099061ADDMA1999999089981MD1210471+9999REMSYN04801359 46/// /2703 11023 21072 38998 49906 52047=
0089013590999992015011116004+60533+008200FM-12+077399999V0202901N003019999999N999999999-00301-00751099211ADDMA1999999090091MD1110421+9999REMSYN04801359 46/// /2903 11030 21075 39009 49921 51042=
0089013590999992015011117004+60533+008200FM-12+077399999V0209999C999999999999N999999999-00641-00901099431ADDMA1999999090181MD1310341+9999REMSYN04801359 46/// /0000 11064 21090 39018 49943 53034=
0247013590999992015011118004+60533+008200FM-12+077399999V0202701N002019999999N070001199-00511-00861099441ADDAA112008031AY121021AY201021GA1011+012501061GE19AGL   +99999+99999GF101991011999012501999999KA1120M-00061MA1999999090231MD1110251+9999MW1011OD139901301999REMSYN08201359 11689 12702 11051 21086 39023 49944 51025 60082 70120 81500 333 11006 91113=
0089013590999992015011119004+60533+008200FM-12+077399999V0202901N002019999999N999999999-00641-01101099561ADDMA1999999090291MD1210201+9999REMSYN04801359 46/// /2902 11064 21110 39029 49956 52020=
0089013590999992015011120004+60533+008200FM-12+077399999V0202301N003019999999N999999999-00561-00921099591ADDMA1999999090351MD1310171+9999REMSYN04801359 46/// /2303 11056 21092 39035 49959 53017=
0089013590999992015011121004+60533+008200FM-12+077399999V0202501N001019999999N999999999-00581-00851099571ADDMA1999999090331MD1990101+9999REMSYN04801359 46/// /2501 11058 21085 39033 49957 50010=
0089013590999992015011122004+60533+008200FM-12+077399999V0202401N003019999999N999999999-00461-00701099541ADDMA1999999090331MD1990041+9999REMSYN04801359 46/// /2403 11046 21070 39033 49954 50004=
0089013590999992015011123004+60533+008200FM-12+077399999V0202401N004019999999N999999999-00271-00621099351ADDMA1999999090231MD1810131+9999REMSYN04801359 46/// /2404 11027 21062 39023 49935 58013=
0130013590999992015011200004+60533+008200FM-12+077399999V0202301N003019999999N999999999-00241-00661099241ADDAA106000091MA1999999090141MD1810191+9999OD139900901999REMSYN06401359 16/// /2303 11024 21066 39014 49924 58019 60001 333 91109=
0089013590999992015011201004+60533+008200FM-12+077399999V0202201N004019999999N999999999-00331-00481099071ADDMA1999999089951MD1810381+9999REMSYN04801359 46/// /2204 11033 21048 38995 49907 58038=
0089013590999992015011202004+60533+008200FM-12+077399999V0209999C999999999999N999999999-00701-00831099101ADDMA1999999089861MD1810361+9999REMSYN04801359 46/// /0000 11070 21083 38986 49910 58036=
0089013590999992015011203004+60533+008200FM-12+077399999V0200601N002019999999N999999999-00731-00811099001ADDMA1999999089751MD1610381+9999REMSYN04801359 46/// /0602 11073 21081 38975 49900 56038=
0089013590999992015011204004+60533+008200FM-12+077399999V0209999C999999999999N999999999-00501-00541098801ADDMA1999999089651MD1810301+9999REMSYN04801359 46/// /0000 11050 21054 38965 49880 58030=
0089013590999992015011205004+60533+008200FM-12+077399999V0209999C999999999999N999999999-00791-00911098841ADDMA1999999089591MD1710271+9999REMSYN04801359 46/// /0000 11079 21091 38959 49884 57027=
0293013590999992015011206004+60533+008200FM-12+077399999V0209999C999999999999N002100199-00781-00881098741ADDAA112006031AA224014231AJ100773100770099AY171021AY201021GA1081+002501051GE19AGL   +99999+99999GF108991081999002501999999IA1289KA1240N-00831MA1999999089511MD1810251+9999MW1711OD139900601999REMSYN09401359 11321 80000 11078 21088 38951 49874 58025 60062 77170 8802/ 333 21083 48077 70142 91106=
0089013590999992015011207004+60533+008200FM-12+077399999V0209999C999999999999N999999999-00811-00901098651ADDMA1999999089421MD1810231+9999REMSYN04801359 46/// /0000 11081 21090 38942 49865 58023=
0089013590999992015011208004+60533+008200FM-12+077399999V0209999C999999999999N999999999-00781-00881098531ADDMA1999999089321MD1810281+9999REMSYN04801359 46/// /0000 11078 21088 38932 49853 58028=
0089013590999992015011209004+60533+008200FM-12+077399999V0209999C999999999999N999999999-00791-00891098391ADDMA1999999089191MD1810321+9999REMSYN04801359 46/// /0000 11079 21089 38919 49839 58032=
0089013590999992015011210004+60533+008200FM-12+077399999V0209999C999999999999N999999999-00901-01011098311ADDMA1999999089081MD1810341+9999REMSYN04801359 46/// /0000 11090 21101 38908 49831 58034=
0089013590999992015011211004+60533+008200FM-12+077399999V0209999C999999999999N999999999-00981-01091098221ADDMA1999999088971MD1710351+9999REMSYN04801359 46/// /0000 11098 21109 38897 49822 57035=
0228013590999992015011212004+60533+008200FM-12+077399999V0209999C999999999999N020000199-00681-00841097861ADDAA106002031AY181021AY271021GA1071+004501091GE19AGL   +99999+99999GF107991071999004501999999MA1999999088741MD1810451+9999MW1851OD139900301999REMSYN07601359 11470 70000 11068 21084 38874 49786 58045 60021 78587 87300 333 91103=
0089013590999992015011213004+60533+008200FM-12+077399999V0202201N008019999999N999999999+00222-00091097352ADDMA1999999088561MD1810521+9999REMSYN04801359 46/// /2208 10022 21009 38856 49735 58052=
0089013590999992015011214004+60533+008200FM-12+077399999V0202401N006019999999N999999999-00041-00111097601ADDMA1999999088711MD1510261+9999REMSYN04801359 46/// /2406 11004 21011 38871 49760 55026=
0089013590999992015011215004+60533+008200FM-12+077399999V0202401N005019999999N999999999-00141-00241097691ADDMA1999999088751MD1310011+9999REMSYN04801359 46/// /2405 11014 21024 38875 49769 53001=
0089013590999992015011216004+60533+008200FM-12+077399999V0202401N004019999999N999999999-00181-00281097721ADDMA1999999088771MD1110201+9999REMSYN04801359 46/// /2404 11018 21028 38877 49772 51020=
0089013590999992015011217004+60533+008200FM-12+077399999V0202301N005019999999N999999999-00221-00371097781ADDMA1999999088821MD1310111+9999REMSYN04801359 46/// /2305 11022 21037 38882 49778 53011=
0247013590999992015011218004+60533+008200FM-12+077399999V0202301N005019999999N006000199-00241-00331097731ADDAA112004031AY181021AY271021GA1081+004501051GE19AGL   +99999+99999GF108991081999004501999999KA1120M+00231MA1999999088761MD1990011+9999MW1701OD139902101999REMSYN08201359 11456 82305 11024 21033 38876 49773 50001 60042 77087 8802/ 333 10023 91121=
0089013590999992015011219004+60533+008200FM-12+077399999V0202401N005019999999N999999999-00221-00281097781ADDMA1999999088811MD1310041+9999REMSYN04801359 46/// /2405 11022 21028 38881 49778 53004=
0089013590999992015011220004+60533+008200FM-12+077399999V0202401N006019999999N999999999-00261-00361097881ADDMA1999999088901MD1310081+9999REMSYN04801359 46/// /2406 11026 21036 38890 49788 53008=
0089013590999992015011221004+60533+008200FM-12+077399999V0202401N006019999999N999999999-00221-00291097921ADDMA1999999088941MD1210191+9999REMSYN04801359 46/// /2406 11022 21029 38894 49792 52019=
0089013590999992015011222004+60533+008200FM-12+077399999V0202401N006019999999N999999999-00311-00351098051ADDMA1999999089041MD1310231+9999REMSYN04801359 46/// /2406 11031 21035 38904 49805 53023=
0089013590999992015011223004+60533+008200FM-12+077399999V0202301N004019999999N999999999-00331-00371098141ADDMA1999999089111MD1310211+9999REMSYN04801359 46/// /2304 11033 21037 38911 49814 53021=
0130013590999992015011300004+60533+008200FM-12+077399999V0202401N006019999999N999999999-00261-00311098211ADDAA106003031MA1999999089191MD1110241+9999OD139901401999REMSYN06401359 16/// /2406 11026 21031 38919 49821 51024 60031 333 91114=
0089013590999992015011301004+60533+008200FM-12+077399999V0202401N006019999999N999999999-00241-00301098271ADDMA1999999089261MD1110221+9999REMSYN04801359 46/// /2406 11024 21030 38926 49827 51022=
0089013590999992015011302004+60533+008200FM-12+077399999V0202401N008019999999N999999999-00251-00321098391ADDMA1999999089361MD1310251+9999REMSYN04801359 46/// /2408 11025 21032 38936 49839 53025=
0089013590999992015011303004+60533+008200FM-12+077399999V0202401N007019999999N999999999-00241-00341098411ADDMA1999999089381MD1110191+9999REMSYN04801359 46/// /2407 11024 21034 38938 49841 51019=
0089013590999992015011304004+60533+008200FM-12+077399999V0202301N006019999999N999999999-00241-00351098441ADDMA1999999089411MD1110151+9999REMSYN04801359 46/// /2306 11024 21035 38941 49844 51015=
0089013590999992015011305004+60533+008200FM-12+077399999V0202401N003019999999N999999999-00201-00341098391ADDMA1999999089381MD1990021+9999REMSYN04801359 46/// /2403 11020 21034 38938 49839 50002=
0293013590999992015011306004+60533+008200FM-12+077399999V0202501N004019999999N070001199-00231-00451098381ADDAA112004031AA224008631AJ100923100920099AY171021AY231021GA1041+012501061GE19AGL   +99999+99999GF104991041999012501999999IA1289KA1240N-00361MA1999999089361MD1810021+9999MW1011OD139901801999REMSYN09401359 11689 42504 11023 21045 38936 49838 58002 60042 70173 84500 333 21036 48092 70086 91118=
0089013590999992015011307004+60533+008200FM-12+077399999V0202501N003019999999N999999999-00251-00511098381ADDMA1999999089351MD1610061+9999REMSYN04801359 46/// /2503 11025 21051 38935 49838 56006=
0089013590999992015011308004+60533+008200FM-12+077399999V0202601N003019999999N999999999-00281-00511098361ADDMA1999999089331MD1710051+9999REMSYN04801359 46/// /2603 11028 21051 38933 49836 57005=
0089013590999992015011309004+60533+008200FM-12+077399999V0202201N006019999999N999999999-00161-00441098341ADDMA1999999089341MD1710021+9999REMSYN04801359 46/// /2206 11016 21044 38934 49834 57002=
0089013590999992015011310004+60533+008200FM-12+077399999V0202401N003019999999N999999999-00231-00381098341ADDMA1999999089331MD1710031+9999REMSYN04801359 46/// /2403 11023 21038 38933 49834 57003=
0089013590999992015011311004+60533+008200FM-12+077399999V0202501N003019999999N999999999-00231-00361098341ADDMA1999999089321MD1810011+9999REMSYN04801359 46/// /2503 11023 21036 38932 49834 58001=
0228013590999992015011312004+60533+008200FM-12+077399999V0202401N003019999999N001900199-00231-00341098321ADDAA106000431AY171021AY211021GA1081+004501051GE19AGL   +99999+99999GF108991081999004501999999MA1999999089301MD1710041+9999MW1711OD139901101999REMSYN07601359 11419 82403 11023 21034 38930 49832 57004 69941 77171 8802/ 333 91111=
0089013590999992015011313004+60533+008200FM-12+077399999V0202501N005019999999N999999999-00251-00641098361ADDMA1999999089331MD1510001+9999REMSYN04801359 46/// /2505 11025 21064 38933 49836 55000=
0089013590999992015011314004+60533+008200FM-12+077399999V0202301N008019999999N999999999-00371-00601098341ADDMA1999999089281MD1810041+9999REMSYN04801359 46/// /2308 11037 21060 38928 49834 58004=
0089013590999992015011315004+60533+008200FM-12+077399999V0202401N008019999999N999999999-00341-00591098321ADDMA1999999089271MD1810031+9999REMSYN04801359 46/// /2408 11034 21059 38927 49832 58003=
0089013590999992015011316004+60533+008200FM-12+077399999V0202301N009019999999N999999999-00321-00571098401ADDMA1999999089351MD1310021+9999REMSYN04801359 46/// /2309 11032 21057 38935 49840 53002=
0089013590999992015011317004+60533+008200FM-12+077399999V0202401N006019999999N999999999-00341-00571098541ADDMA1999999089461MD1310191+9999REMSYN04801359 46/// /2406 11034 21057 38946 49854 53019=
0247013590999992015011318004+60533+008200FM-12+077399999V0202301N005019999999N003000199-00401-00691098551ADDAA112003031AY171021AY231021GA1081+004501051GE19AGL   +99999+99999GF108991081999004501999999KA1120M-00141MA1999999089451MD1990191+9999MW1701OD139901501999REMSYN08201359 11430 82305 11040 21069 38945 49855 50019 60032 77073 8802/ 333 11014 91115=
0089013590999992015011319004+60533+008200FM-12+077399999V0202401N003019999999N999999999-00571-00871098631ADDMA1999999089471MD1110121+9999REMSYN04801359 46/// /2403 11057 21087 38947 49863 51012=
0108013590999992015011320004+60533+008200FM-12+077399999V0202301N003019999999N999999999-00501-00851098591ADDMA1999999089461MD1290059+9999REMSYN04801359 46/// /2303 11050 21085 38946 49859 54001=EQDQ01.1    3APC3  
0089013590999992015011321004+60533+008200FM-12+077399999V0202301N004019999999N999999999-00371-00681098501ADDMA1999999089421MD1810031+9999REMSYN04801359 46/// /2304 11037 21068 38942 49850 58003=
0089013590999992015011322004+60533+008200FM-12+077399999V0202201N006019999999N999999999-00341-00631098441ADDMA1999999089381MD1810091+9999REMSYN04801359 46/// /2206 11034 21063 38938 49844 58009=
0089013590999992015011323004+60533+008200FM-12+077399999V0202401N004019999999N999999999-00411-00481098511ADDMA1999999089421MD1510041+9999REMSYN04801359 46/// /2404 11041 21048 38942 49851 55004=
0130013590999992015011400004+60533+008200FM-12+077399999V0202301N003019999999N999999999-00411-00631098521ADDAA106000831MA1999999089431MD1510011+9999OD139901001999REMSYN06401359 16/// /2303 11041 21063 38943 49852 55001 69981 333 91110=
0089013590999992015011401004+60533+008200FM-12+077399999V0202301N004019999999N999999999-00451-00571098511ADDMA1999999089411MD1990031+9999REMSYN04801359 46/// /2304 11045 21057 38941 49851 50003=
0089013590999992015011402004+60533+008200FM-12+077399999V0202401N005019999999N999999999-00431-00721098481ADDMA1999999089381MD1810031+9999REMSYN04801359 46/// /2405 11043 21072 38938 49848 58003=
0089013590999992015011403004+60533+008200FM-12+077399999V0202301N004019999999N999999999-00501-00851098541ADDMA1999999089421MD1510011+9999REMSYN04801359 46/// /2304 11050 21085 38942 49854 55001=
0089013590999992015011404004+60533+008200FM-12+077399999V0202301N003019999999N999999999-00511-00811098561ADDMA1999999089431MD1310021+9999REMSYN04801359 46/// /2303 11051 21081 38943 49856 53002=
0089013590999992015011405004+60533+008200FM-12+077399999V0200301N002019999999N999999999-00641-00851098571ADDMA1999999089401MD1990021+9999REMSYN04801359 46/// /0302 11064 21085 38940 49857 50002=
0293013590999992015011406004+60533+008200FM-12+077399999V0200501N002019999999N060000199-00611-00841098601ADDAA112001031AA224004031AJ100973100970099AY181021AY231021GA1051+012501081GE19AGL   +99999+99999GF105991051999012501999999IA1289KA1240N-00651MA1999999089441MD1310021+9999MW1021OD139901101999REMSYN09401359 11686 50502 11061 21084 38944 49860 53002 60012 70283 85200 333 21065 48097 70040 91111=
0089013590999992015011407004+60533+008200FM-12+077399999V0202401N005019999999N999999999-00441-00581098541ADDMA1999999089441MD1310011+9999REMSYN04801359 46/// /2405 11044 21058 38944 49854 53001=
0089013590999992015011408004+60533+008200FM-12+077399999V0202301N005019999999N999999999-00391-00711098541ADDMA1999999089451MD1110051+9999REMSYN04801359 46/// /2305 11039 21071 38945 49854 51005=
0089013590999992015011409004+60533+008200FM-12+077399999V0202501N004019999999N999999999-00411-00521098611ADDMA1999999089511MD1310071+9999REMSYN04801359 46/// /2504 11041 21052 38951 49861 53007=
0089013590999992015011410004+60533+008200FM-12+077399999V0202301N006019999999N999999999-00281-00591098571ADDMA1999999089521MD1990081+9999REMSYN04801359 46/// /2306 11028 21059 38952 49857 50008=
0089013590999992015011411004+60533+008200FM-12+077399999V0202301N007019999999N999999999-00281-00651098571ADDMA1999999089511MD1990061+9999REMSYN04801359 46/// /2307 11028 21065 38951 49857 50006=
0260013590999992015011412004+60533+008200FM-12+077399999V0202401N006019999999N035000199-00301-00721098601ADDAA106000631AY181021AY221021GA1051+012501081GA2999+999999031GA3999+999999001GE19AGL   +99999+99999GF107991051999012501999999MA1999999089541MD1310031+9999MW1021OD139901301999REMSYN07601359 11681 72406 11030 21072 38954 49860 53003 69961 70282 85241 333 91113=
0089013590999992015011413004+60533+008200FM-12+077399999V0202401N006019999999N999999999-00291-00541098601ADDMA1999999089541MD1990021+9999REMSYN04801359 46/// /2406 11029 21054 38954 49860 50002=
0089013590999992015011414004+60533+008200FM-12+077399999V0202401N005019999999N999999999-00301-00421098711ADDMA1999999089631MD1310121+9999REMSYN04801359 46/// /2405 11030 21042 38963 49871 53012=
0089013590999992015011415004+60533+008200FM-12+077399999V0202401N007019999999N999999999-00301-00561098691ADDMA1999999089611MD1990081+9999REMSYN04801359 46/// /2407 11030 21056 38961 49869 50008=
0089013590999992015011416004+60533+008200FM-12+077399999V0202401N006019999999N999999999-00361-00611098781ADDMA1999999089681MD1310141+9999REMSYN04801359 46/// /2406 11036 21061 38968 49878 53014=
0089013590999992015011417004+60533+008200FM-12+077399999V0202301N004019999999N999999999-00361-00681098901ADDMA1999999089791MD1310151+9999REMSYN04801359 46/// /2304 11036 21068 38979 49890 53015=
0247013590999992015011418004+60533+008200FM-12+077399999V0203601N003019999999N018000199-00361-00681098961ADDAA112000931AY181021AY231021GA1071+012501081GE19AGL   +99999+99999GF107991071999012501999999KA1120M-00241MA1999999089841MD1310231+9999MW1021OD139901401999REMSYN08201359 11668 73603 11036 21068 38984 49896 53023 69992 70283 87200 333 11024 91114=
0089013590999992015011419004+60533+008200FM-12+077399999V0201601N002019999999N999999999-00371-00741099081ADDMA1999999089951MD1310271+9999REMSYN04801359 46/// /1602 11037 21074 38995 49908 53027=
0089013590999992015011420004+60533+008200FM-12+077399999V0202501N003019999999N999999999-00421-00791099181ADDMA1999999090021MD1310231+9999REMSYN04801359 46/// /2503 11042 21079 39002 49918 53023=
0089013590999992015011421004+60533+008200FM-12+077399999V0201401N001019999999N999999999-00551-00871099271ADDMA1999999090061MD1110221+9999REMSYN04801359 46/// /1401 11055 21087 39006 49927 51022=
0089013590999992015011422004+60533+008200FM-12+077399999V0202101N002019999999N999999999-00411-00821099301ADDMA1999999090141MD1310191+9999REMSYN04801359 46/// /2102 11041 21082 39014 49930 53019=
0089013590999992015011423004+60533+008200FM-12+077399999V0202101N004019999999N999999999-00631-00971099401ADDMA1999999090151MD1990131+9999REMSYN04801359 46/// /2104 11063 21097 39015 49940 50013=
0130013590999992015011500004+60533+008200FM-12+077399999V0209999C999999999999N999999999-00671-01011099401ADDAA106000091MA1999999090141MD1990081+9999OD139900901999REMSYN06401359 16/// /0000 11067 21101 39014 49940 50008 60001 333 91109=
0089013590999992015011501004+60533+008200FM-12+077399999V0200501N003019999999N999999999-00601-00841099361ADDMA1999999090131MD1990011+9999REMSYN04801359 46/// /0503 11060 21084 39013 49936 50001=
0089013590999992015011502004+60533+008200FM-12+077399999V0202501N001019999999N999999999-00581-00871099341ADDMA1999999090121MD1810041+9999REMSYN04801359 46/// /2501 11058 21087 39012 49934 58004=
0089013590999992015011503004+60533+008200FM-12+077399999V0200101N001019999999N999999999-00691-00881099321ADDMA1999999090061MD1810081+9999REMSYN04801359 46/// /0101 11069 21088 39006 49932 58008=
0089013590999992015011504004+60533+008200FM-12+077399999V0200301N001019999999N999999999-00771-00881099291ADDMA1999999090011MD1810121+9999REMSYN04801359 46/// /0301 11077 21088 39001 49929 58012=
0089013590999992015011505004+60533+008200FM-12+077399999V0202501N002019999999N999999999-00331-00681099061ADDMA1999999089941MD1810171+9999REMSYN04801359 46/// /2502 11033 21068 38994 49906 58017=
0309013590999992015011506004+60533+008200FM-12+077399999V0200501N001019999999N018000199-00331-00581098951ADDAA112000091AA224000931AJ101013101010099AY121021AY201021GA1071+004501061GA2999+999999031GE19AGL   +99999+99999GF108991071999004501999999IA1289KA1240N-00901MA1999999089841MD1810221+9999MW1031OD139900601999REMSYN09401359 11468 80501 11033 21058 38984 49895 58022 60002 70320 8757/ 333 21090 48101 70009 91106=
0089013590999992015011507004+60533+008200FM-12+077399999V0200801N003019999999N999999999-00561-00751098881ADDMA1999999089711MD1810301+9999REMSYN04801359 46/// /0803 11056 21075 38971 49888 58030=
0089013590999992015011508004+60533+008200FM-12+077399999V0209999C999999999999N999999999-00601-00701098751ADDMA1999999089581MD1810361+9999REMSYN04801359 46/// /0000 11060 21070 38958 49875 58036=
0089013590999992015011509004+60533+008200FM-12+077399999V0202401N001019999999N999999999-00541-00611098591ADDMA1999999089451MD1810391+9999REMSYN04801359 46/// /2401 11054 21061 38945 49859 58039=
0089013590999992015011510004+60533+008200FM-12+077399999V0200601N003019999999N999999999-00151-00301098301ADDMA1999999089311MD1810401+9999REMSYN04801359 46/// /0603 11015 21030 38931 49830 58040=
0089013590999992015011511004+60533+008200FM-12+077399999V0200701N002019999999N999999999-00131-00301098121ADDMA1999999089161MD1810421+9999REMSYN04801359 46/// /0702 11013 21030 38916 49812 58042=
0228013590999992015011512004+60533+008200FM-12+077399999V0201101N002019999999N002300199-00131-00281098011ADDAA106001031AY171021AY221021GA1081+002501051GE19AGL   +99999+99999GF108991081999002501999999MA1999999089051MD1710411+9999MW1711OD139900801999REMSYN07601359 11323 81102 11013 21028 38905 49801 57041 60011 77172 8802/ 333 91108=
0089013590999992015011513004+60533+008200FM-12+077399999V0201101N002019999999N999999999-00091-00331097921ADDMA1999999088981MD1610331+9999REMSYN04801359 46/// /1102 11009 21033 38898 49792 56033=
0089013590999992015011514004+60533+008200FM-12+077399999V0201501N003019999999N999999999-00081-00391097871ADDMA1999999088941MD1610221+9999REMSYN04801359 46/// /1503 11008 21039 38894 49787 56022=
0089013590999992015011515004+60533+008200FM-12+077399999V0201501N003019999999N999999999-00141-00421097871ADDMA1999999088921MD1610131+9999REMSYN04801359 46/// /1503 11014 21042 38892 49787 56013=
0089013590999992015011516004+60533+008200FM-12+077399999V0201701N002019999999N999999999-00171-00421097851ADDMA1999999088891MD1710091+9999REMSYN04801359 46/// /1702 11017 21042 38889 49785 57009=
0089013590999992015011517004+60533+008200FM-12+077399999V0200401N002019999999N999999999-00301-00491097841ADDMA1999999088841MD1710101+9999REMSYN04801359 46/// /0402 11030 21049 38884 49784 57010=
0247013590999992015011518004+60533+008200FM-12+077399999V0201801N003019999999N016000199-00091-00331097741ADDAA112002031AY181021AY271021GA1061+012501091GE19AGL   +99999+99999GF106991061999012501999999KA1120M-00061MA1999999088821MD1710091+9999MW1851OD139900801999REMSYN08201359 11666 61803 11009 21033 38882 49774 57009 60022 78587 86300 333 11006 91108=
0089013590999992015011519004+60533+008200FM-12+077399999V0201701N002019999999N999999999-00101-00521097781ADDMA1999999088851MD1510041+9999REMSYN04801359 46/// /1702 11010 21052 38885 49778 55004=
0089013590999992015011520004+60533+008200FM-12+077399999V0202301N003019999999N999999999-00101-00411097771ADDMA1999999088841MD1510001+9999REMSYN04801359 46/// /2303 11010 21041 38884 49777 55000=
0089013590999992015011521004+60533+008200FM-12+077399999V0202401N002019999999N999999999-00161-00551097841ADDMA1999999088891MD1310061+9999REMSYN04801359 46/// /2402 11016 21055 38889 49784 53006=
0089013590999992015011522004+60533+008200FM-12+077399999V0202401N001019999999N999999999-00501-00691097931ADDMA1999999088871MD1990011+9999REMSYN04801359 46/// /2401 11050 21069 38887 49793 50001=
0089013590999992015011523004+60533+008200FM-12+077399999V0209999C999999999999N999999999-00381-00611097891ADDMA1999999088861MD1990031+9999REMSYN04801359 46/// /0000 11038 21061 38886 49789 50003=
0130013590999992015011600004+60533+008200FM-12+077399999V0209999C999999999999N999999999-00461-00661097871ADDAA106000091MA1999999088821MD1810071+9999OD139901101999REMSYN06401359 16/// /0000 11046 21066 38882 49787 58007 60001 333 91111=
0089013590999992015011601004+60533+008200FM-12+077399999V0203501N001019999999N999999999-00521-00701097791ADDMA1999999088731MD1810131+9999REMSYN04801359 46/// /3501 11052 21070 38873 49779 58013=
0089013590999992015011602004+60533+008200FM-12+077399999V0202401N001019999999N999999999-00481-00631097751ADDMA1999999088711MD1710161+9999REMSYN04801359 46/// /2401 11048 21063 38871 49775 57016=
0089013590999992015011603004+60533+008200FM-12+077399999V0200501N002019999999N999999999-00441-00601097631ADDMA1999999088611MD1810211+9999REMSYN04801359 46/// /0502 11044 21060 38861 49763 58021=
0089013590999992015011604004+60533+008200FM-12+077399999V0209999C999999999999N999999999-00421-00521097521ADDMA1999999088521MD1810221+9999REMSYN04801359 46/// /0000 11042 21052 38852 49752 58022=
0089013590999992015011605004+60533+008200FM-12+077399999V0200901N001019999999N999999999-00311-00411097411ADDMA1999999088451MD1810251+9999REMSYN04801359 46/// /0901 11031 21041 38845 49741 58025=
0328013590999992015011606004+60533+008200FM-12+077399999V0209999C999999999999N017000199-00401-00471097411ADDAA112999999AA224001831AJ101023101020099AY171021AY221021GA1041+002501071GA2999+999999051GE19AGL   +99999+99999GF108991041999002501999999IA1289KA1240N-00581MA1999999088421MD1610191+9999MW1781OD139900501999REMSYN09401359 11367 80000 11040 21047 38842 49741 56019 60002 77872 8462/ 333 21058 48102 70018 91105=EQDQ01  00002PRCP12
0089013590999992015011607004+60533+008200FM-12+077399999V0209999C999999999999N999999999-00421-00491097401ADDMA1999999088411MD1610111+9999REMSYN04801359 46/// /0000 11042 21049 38841 49740 56011=
0089013590999992015011608004+60533+008200FM-12+077399999V0209999C999999999999N999999999-00371-00431097391ADDMA1999999088421MD1510031+9999REMSYN04801359 46/// /0000 11037 21043 38842 49739 55003=
0089013590999992015011609004+60533+008200FM-12+077399999V0209999C999999999999N999999999-00231-00271097401ADDMA1999999088471MD1310051+9999REMSYN04801359 46/// /0000 11023 21027 38847 49740 53005=
0089013590999992015011610004+60533+008200FM-12+077399999V0202201N007019999999N999999999+00091-00131097331ADDMA1999999088501MD1310091+9999REMSYN04801359 46/// /2207 10009 21013 38850 49733 53009=
0089013590999992015011611004+60533+008200FM-12+077399999V0202201N006019999999N999999999+00111-00281097371ADDMA1999999088551MD1310131+9999REMSYN04801359 46/// /2206 10011 21028 38855 49737 53013=
0228013590999992015011612004+60533+008200FM-12+077399999V0202301N008019999999N007000199+00061-00101097451ADDAA106000931AY171021AY221021GA1081+004501051GE19AGL   +99999+99999GF108991081999004501999999MA1999999088611MD1310131+9999MW1701OD139901501999REMSYN07601359 11457 82308 10006 21010 38861 49745 53013 69991 77072 8802/ 333 91115=
0089013590999992015011613004+60533+008200FM-12+077399999V0202301N011019999999N999999999+00081-00191097501ADDMA1999999088661MD1110161+9999REMSYN04801359 46/// /2311 10008 21019 38866 49750 51016=
0089013590999992015011614004+60533+008200FM-12+077399999V0202401N008019999999N999999999+00011-00291097651ADDMA1999999088771MD1310221+9999REMSYN04801359 46/// /2408 10001 21029 38877 49765 53022=
0089013590999992015011615004+60533+008200FM-12+077399999V0202301N012019999999N999999999-00031-00251097701ADDMA1999999088801MD1110201+9999REMSYN04801359 46/// /2312 11003 21025 38880 49770 51020=
0089013590999992015011616004+60533+008200FM-12+077399999V0202301N012019999999N999999999-00061-00241097801ADDMA1999999088881MD1110221+9999REMSYN04801359 46/// /2312 11006 21024 38888 49780 51022=
0089013590999992015011617004+60533+008200FM-12+077399999V0202301N013019999999N999999999-00151-00331097871ADDMA1999999088921MD1990151+9999REMSYN04801359 46/// /2313 11015 21033 38892 49787 50015=
0247013590999992015011618004+60533+008200FM-12+077399999V0202301N011019999999N002000199-00241-00491098051ADDAA112000931AY181021AY231021GA1031+008001081GE19AGL   +99999+99999GF103991031999008001999999KA1120M+00181MA1999999089051MD1310251+9999MW1381OD139902001999REMSYN08201359 11520 32311 11024 21049 38905 49805 53025 69992 73883 83200 333 10018 91120=
0089013590999992015011619004+60533+008200FM-12+077399999V0202301N013019999999N999999999-00161-00381098071ADDMA1999999089101MD1110211+9999REMSYN04801359 46/// /2313 11016 21038 38910 49807 51021=
0089013590999992015011620004+60533+008200FM-12+077399999V0202301N014019999999N999999999-00161-00401098201ADDMA1999999089211MD1310301+9999REMSYN04801359 46/// /2314 11016 21040 38921 49820 53030=
0089013590999992015011621004+60533+008200FM-12+077399999V0202301N012019999999N999999999-00191-00441098281ADDMA1999999089281MD1310231+9999REMSYN04801359 46/// /2312 11019 21044 38928 49828 53023=
0089013590999992015011622004+60533+008200FM-12+077399999V0202301N012019999999N999999999-00271-00551098481ADDMA1999999089441MD1310331+9999REMSYN04801359 46/// /2312 11027 21055 38944 49848 53033=
0089013590999992015011623004+60533+008200FM-12+077399999V0202301N012019999999N999999999-00301-00561098581ADDMA1999999089521MD1310301+9999REMSYN04801359 46/// /2312 11030 21056 38952 49858 53030=
0130013590999992015011700004+60533+008200FM-12+077399999V0202301N010019999999N999999999-00261-00601098701ADDAA106000091MA1999999089641MD1110351+9999OD139902301999REMSYN06401359 16/// /2310 11026 21060 38964 49870 51035 60001 333 91123=
0089013590999992015011701004+60533+008200FM-12+077399999V0202301N009019999999N999999999-00241-00581098771ADDMA1999999089711MD1110271+9999REMSYN04801359 46/// /2309 11024 21058 38971 49877 51027=
0089013590999992015011702004+60533+008200FM-12+077399999V0202201N008019999999N999999999-00221-00591098811ADDMA1999999089751MD1110231+9999REMSYN04801359 46/// /2208 11022 21059 38975 49881 51023=
0089013590999992015011703004+60533+008200FM-12+077399999V0202301N008019999999N999999999-00211-00611098781ADDMA1999999089731MD1990091+9999REMSYN04801359 46/// /2308 11021 21061 38973 49878 50009=
0089013590999992015011704004+60533+008200FM-12+077399999V0202301N008019999999N999999999-00191-00591098761ADDMA1999999089721MD1990011+9999REMSYN04801359 46/// /2308 11019 21059 38972 49876 50001=
0089013590999992015011705004+60533+008200FM-12+077399999V0202301N008019999999N999999999-00101-00511098711ADDMA1999999089701MD1710051+9999REMSYN04801359 46/// /2308 11010 21051 38970 49871 57005=
0293013590999992015011706004+60533+008200FM-12+077399999V0202401N003019999999N020000199-00081-00491098771ADDAA112000091AA224000831AJ101033101030099AY181021AY231021GA1051+008001081GE19AGL   +99999+99999GF105991051999008001999999IA1289KA1240N-00311MA1999999089761MD1310031+9999MW1021OD139901801999REMSYN09401359 11570 52403 11008 21049 38976 49877 53003 60002 70283 85200 333 21031 48103 70008 91118=
0089013590999992015011707004+60533+008200FM-12+077399999V0202201N002019999999N999999999-00131-00491098851ADDMA1999999089811MD1310101+9999REMSYN04801359 46/// /2202 11013 21049 38981 49885 53010=
0089013590999992015011708004+60533+008200FM-12+077399999V0209999C999999999999N999999999-00221-00561098951ADDMA1999999089881MD1310181+9999REMSYN04801359 46/// /0000 11022 21056 38988 49895 53018=
0089013590999992015011709004+60533+008200FM-12+077399999V0201601N003019999999N999999999-00111-00481098981ADDMA1999999089941MD1310181+9999REMSYN04801359 46/// /1603 11011 21048 38994 49898 53018=
0089013590999992015011710004+60533+008200FM-12+077399999V0202301N005019999999N999999999-00161-00531099071ADDMA1999999090001MD1210191+9999REMSYN04801359 46/// /2305 11016 21053 39000 49907 52019=
0089013590999992015011711004+60533+008200FM-12+077399999V0202401N006019999999N999999999-00051-00461099111ADDMA1999999090071MD1310201+9999REMSYN04801359 46/// /2406 11005 21046 39007 49911 53020=
0260013590999992015011712004+60533+008200FM-12+077399999V0202301N005019999999N045000199-00071-00431099181ADDAA106000091AY121021AY221021GA1031+008001081GA2999+999999031GA3999+999999001GE19AGL   +99999+99999GF107991031999008001999999MA1999999090141MD1210201+9999MW1021OD139901101999REMSYN07601359 11583 72305 11007 21043 39014 49918 52020 60001 70222 83831 333 91111=
0089013590999992015011713004+60533+008200FM-12+077399999V0202301N005019999999N999999999-00021-00431099221ADDMA1999999090191MD1210191+9999REMSYN04801359 46/// /2305 11002 21043 39019 49922 52019=
0089013590999992015011714004+60533+008200FM-12+077399999V0202301N006019999999N999999999-00051-00391099301ADDMA1999999090251MD1210181+9999REMSYN04801359 46/// /2306 11005 21039 39025 49930 52018=
0089013590999992015011715004+60533+008200FM-12+077399999V0202501N005019999999N999999999+00001-00391099371ADDMA1999999090331MD1310201+9999REMSYN04801359 46/// /2505 10000 21039 39033 49937 53020=
0089013590999992015011716004+60533+008200FM-12+077399999V0202301N003019999999N999999999-00151-00491099551ADDMA1999999090441MD1310251+9999REMSYN04801359 46/// /2303 11015 21049 39044 49955 53025=
0089013590999992015011717004+60533+008200FM-12+077399999V0202301N004019999999N999999999-00171-00511099651ADDMA1999999090531MD1310281+9999REMSYN04801359 46/// /2304 11017 21051 39053 49965 53028=
0247013590999992015011718004+60533+008200FM-12+077399999V0202501N003019999999N040000199-00131-00441099751ADDAA112000091AY121021AY221021GA1051+012501081GE19AGL   +99999+99999GF105991051999012501999999KA1120M+00021MA1999999090631MD1210301+9999MW1021OD139901001999REMSYN08201359 11682 52503 11013 21044 39063 49975 52030 60002 70222 85800 333 10002 91110=
0089013590999992015011719004+60533+008200FM-12+077399999V0202801N001019999999N999999999-00161-00441099841ADDMA1999999090711MD1310271+9999REMSYN04801359 46/// /2801 11016 21044 39071 49984 53027=
0089013590999992015011720004+60533+008200FM-12+077399999V0202301N003019999999N999999999-00061-00421099901ADDMA1999999090791MD1210261+9999REMSYN04801359 46/// /2303 11006 21042 39079 49990 52026=
0089013590999992015011721004+60533+008200FM-12+077399999V0202301N003019999999N999999999-00131-00351100031ADDMA1999999090891MD1310261+9999REMSYN04801359 46/// /2303 11013 21035 39089 40003 53026=
0089013590999992015011722004+60533+008200FM-12+077399999V0202301N004019999999N999999999-00121-00371100041ADDMA1999999090901MD1990191+9999REMSYN04801359 46/// /2304 11012 21037 39090 40004 50019=
0089013590999992015011723004+60533+008200FM-12+077399999V0202101N003019999999N999999999-00211-00521100151ADDMA1999999090971MD1110181+9999REMSYN04801359 46/// /2103 11021 21052 39097 40015 51018=
0130013590999992015011800004+60533+008200FM-12+077399999V0202301N004019999999N999999999-00121-00541100181ADDAA106000091MA1999999091031MD1310151+9999OD139900901999REMSYN06401359 16/// /2304 11012 21054 39103 40018 53015 60001 333 91109=
0089013590999992015011801004+60533+008200FM-12+077399999V0202201N005019999999N999999999-00201-00541100281ADDMA1999999091101MD1310191+9999REMSYN04801359 46/// /2205 11020 21054 39110 40028 53019=
0089013590999992015011802004+60533+008200FM-12+077399999V0202001N004019999999N999999999-00181-00551100341ADDMA1999999091151MD1110181+9999REMSYN04801359 46/// /2004 11018 21055 39115 40034 51018=
0089013590999992015011803004+60533+008200FM-12+077399999V0202101N005019999999N999999999-00191-00631100361ADDMA1999999091171MD1110131+9999REMSYN04801359 46/// /2105 11019 21063 39117 40036 51013=
0089013590999992015011804004+60533+008200FM-12+077399999V0202101N004019999999N999999999-00211-00581100391ADDMA1999999091191MD1110091+9999REMSYN04801359 46/// /2104 11021 21058 39119 40039 51009=
0089013590999992015011805004+60533+008200FM-12+077399999V0202801N003019999999N999999999-00121-00581100391ADDMA1999999091211MD1310061+9999REMSYN04801359 46/// /2803 11012 21058 39121 40039 53006=
0293013590999992015011806004+60533+008200FM-12+077399999V0202301N004019999999N050000199-00121-00561100421ADDAA112000091AA224000091AJ101023101020099AY121021AY221021GA1071+012501061GE19AGL   +99999+99999GF107991071999012501999999IA1289KA1240N-00271MA1999999091251MD1210081+9999MW1021OD139901001999REMSYN09401359 11684 72304 11012 21056 39125 40042 52008 60002 70222 87500 333 21027 48102 70000 91110=
0089013590999992015011807004+60533+008200FM-12+077399999V0202401N003019999999N999999999-00221-00591100541ADDMA1999999091321MD1310131+9999REMSYN04801359 46/// /2403 11022 21059 39132 40054 53013=
0089013590999992015011808004+60533+008200FM-12+077399999V0203001N002019999999N999999999-00281-00631100641ADDMA1999999091391MD1310181+9999REMSYN04801359 46/// /3002 11028 21063 39139 40064 53018=
0089013590999992015011809004+60533+008200FM-12+077399999V0203001N001019999999N999999999-00331-00651100751ADDMA1999999091471MD1310231+9999REMSYN04801359 46/// /3001 11033 21065 39147 40075 53023=
0089013590999992015011810004+60533+008200FM-12+077399999V0202701N001019999999N999999999-00301-00581100791ADDMA1999999091531MD1210201+9999REMSYN04801359 46/// /2701 11030 21058 39153 40079 52020=
0089013590999992015011811004+60533+008200FM-12+077399999V0202301N001019999999N999999999-00261-00581100811ADDMA1999999091561MD1110161+9999REMSYN04801359 46/// /2301 11026 21058 39156 40081 51016=
0244013590999992015011812004+60533+008200FM-12+077399999V0202301N002019999999N040000199-00171-00591100811ADDAA106000091AY121021AY221021GA1071+012501061GA2999+999999001GE19AGL   +99999+99999GF108991071999012501999999MA1999999091591MD1110121+9999MW1021OD139900901999REMSYN07601359 11682 82302 11017 21059 39159 40081 51012 60001 70222 87501 333 91109=
0089013590999992015011813004+60533+008200FM-12+077399999V0202701N002019999999N999999999-00171-00541100841ADDMA1999999091611MD1210081+9999REMSYN04801359 46/// /2702 11017 21054 39161 40084 52008=
0089013590999992015011814004+60533+008200FM-12+077399999V0202101N001019999999N999999999-00291-00601100911ADDMA1999999091641MD1210081+9999REMSYN04801359 46/// /2101 11029 21060 39164 40091 52008=
0089013590999992015011815004+60533+008200FM-12+077399999V0202601N002019999999N999999999-00261-00571100931ADDMA1999999091661MD1210081+9999REMSYN04801359 46/// /2602 11026 21057 39166 40093 52008=
0089013590999992015011816004+60533+008200FM-12+077399999V0209999C999999999999N999999999-00361-00621101021ADDMA1999999091711MD1210101+9999REMSYN04801359 46/// /0000 11036 21062 39171 40102 52010=
0089013590999992015011817004+60533+008200FM-12+077399999V0209999C999999999999N999999999-00461-00661101101ADDMA1999999091751MD1210121+9999REMSYN04801359 46/// /0000 11046 21066 39175 40110 52012=
0247013590999992015011818004+60533+008200FM-12+077399999V0209999C999999999999N040000199-00601-00771101201ADDAA112000091AY121021AY221021GA1081+008001061GE19AGL   +99999+99999GF108991081999008001999999KA1120M-00121MA1999999091801MD1210141+9999MW1021OD139900401999REMSYN08201359 11582 80000 11060 21077 39180 40120 52014 60002 70222 885// 333 11012 91104=
0089013590999992015011819004+60533+008200FM-12+077399999V0209999C999999999999N999999999-00791-00911101341ADDMA1999999091861MD1310151+9999REMSYN04801359 46/// /0000 11079 21091 39186 40134 53015=
0089013590999992015011820004+60533+008200FM-12+077399999V0209999C999999999999N999999999-00931-01061101461ADDMA1999999091921MD1310171+9999REMSYN04801359 46/// /0000 11093 21106 39192 40146 53017=
0089013590999992015011821004+60533+008200FM-12+077399999V0209999C999999999999N999999999-01091-01201101601ADDMA1999999092001MD1310201+9999REMSYN04801359 46/// /0000 11109 21120 39200 40160 53020=
0089013590999992015011822004+60533+008200FM-12+077399999V0209999C999999999999N999999999-01301-01391101741ADDMA1999999092051MD1210191+9999REMSYN04801359 46/// /0000 11130 21139 39205 40174 52019=
0089013590999992015011823004+60533+008200FM-12+077399999V0209999C999999999999N999999999-01491-01641101851ADDMA1999999092081MD1110161+9999REMSYN04801359 46/// /0000 11149 21164 39208 40185 51016=
0130013590999992015011900004+60533+008200FM-12+077399999V0209999C999999999999N999999999-01491-01651101901ADDAA106000091MA1999999092121MD1210131+9999OD139900001999REMSYN06401359 16/// /0000 11149 21165 39212 40190 52013 60001 333 91100=
0089013590999992015011901004+60533+008200FM-12+077399999V0209999C999999999999N999999999-01451-01551101911ADDMA1999999092151MD1210101+9999REMSYN04801359 46/// /0000 11145 21155 39215 40191 52010=
0089013590999992015011902004+60533+008200FM-12+077399999V0209999C999999999999N999999999-01641-01791102031ADDMA1999999092201MD1210111+9999REMSYN04801359 46/// /0000 11164 21179 39220 40203 52011=
0089013590999992015011903004+60533+008200FM-12+077399999V0209999C999999999999N999999999-01561-01701102041ADDMA1999999092231MD1210111+9999REMSYN04801359 46/// /0000 11156 21170 39223 40204 52011=
0089013590999992015011904004+60533+008200FM-12+077399999V0209999C999999999999N999999999-01531-01671102081ADDMA1999999092281MD1210131+9999REMSYN04801359 46/// ///// 11153 21167 39228 40208 52013=
0089013590999992015011905004+60533+008200FM-12+077399999V0209999C999999999999N999999999-01581-01731102181ADDMA1999999092351MD1310151+9999REMSYN04801359 46/// ///// 11158 21173 39235 40218 53015=
0273013590999992015011906004+60533+008200FM-12+077399999V0209999C999999999999N035000199-01561-01701102221ADDAA112000091AA224000091AJ101023101020099AY121021AY201021GA1081+008001061GE19AGL   +99999+99999GF108991081999008001999999IA1289KA1240N-01701MA1999999092391MD1210161+9999MW1031REMSYN08801359 11581 8//// 11156 21170 39239 40222 52016 60002 70320 885// 333 21170 48102 70000=
0089013590999992015011907004+60533+008200FM-12+077399999V0209999C999999999999N999999999-01311-01441102151ADDMA1999999092411MD1110141+9999REMSYN04801359 46/// ///// 11131 21144 39241 40215 51014=
0089013590999992015011908004+60533+008200FM-12+077399999V0209999C999999999999N999999999-01201-01321102141ADDMA1999999092451MD1210101+9999REMSYN04801359 46/// ///// 11120 21132 39245 40214 52010=
0089013590999992015011909004+60533+008200FM-12+077399999V0202201N001019999999N999999999-01101-01191102131ADDMA1999999092471MD1210081+9999REMSYN04801359 46/// /2201 11110 21119 39247 40213 52008=
0089013590999992015011910004+60533+008200FM-12+077399999V0209999C999999999999N999999999-01011-01131102121ADDMA1999999092501MD1210081+9999REMSYN04801359 46/// /0000 11101 21113 39250 40212 52008=
0089013590999992015011911004+60533+008200FM-12+077399999V0209999C999999999999N999999999-00951-01071102121ADDMA1999999092511MD1210061+9999REMSYN04801359 46/// /0000 11095 21107 39251 40212 52006=
0263013590999992015011912004+60533+008200FM-12+077399999V0209999C999999999999N035000199-00861-00971102081ADDAA106999999AY171021AY221021GA1051+002501071GA2999+999999051GE19AGL   +99999+99999GF108991051999002501999999MA1999999092511MD1210041+9999MW1711OD139900201999REMSYN07601359 11381 80000 11086 21097 39251 40208 52004 60001 77172 8562/ 333 91102=EQDQ01  00002PRCP06
0089013590999992015011913004+60533+008200FM-12+077399999V0209999C999999999999N999999999-00761-00871102051ADDMA1999999092511MD1210021+9999REMSYN04801359 46/// /0000 11076 21087 39251 40205 52002=
0089013590999992015011914004+60533+008200FM-12+077399999V0209999C999999999999N999999999-00771-00891102061ADDMA1999999092521MD1210011+9999REMSYN04801359 46/// /0000 11077 21089 39252 40206 52001=
0089013590999992015011915004+60533+008200FM-12+077399999V0209999C999999999999N999999999-00731-00831102061ADDMA1999999092541MD1210031+9999REMSYN04801359 46/// /0000 11073 21083 39254 40206 52003=
0089013590999992015011916004+60533+008200FM-12+077399999V0209999C999999999999N999999999-00741-00821102081ADDMA1999999092551MD1210041+9999REMSYN04801359 46/// /0000 11074 21082 39255 40208 52004=
0089013590999992015011917004+60533+008200FM-12+077399999V0209999C999999999999N999999999-00741-00821102101ADDMA1999999092561MD1210041+9999REMSYN04801359 46/// /0000 11074 21082 39256 40210 52004=
0263013590999992015011918004+60533+008200FM-12+077399999V0209999C999999999999N023000199-00731-00811102121ADDAA112000331AY171021AY271021GA1061+002501071GA2999+999999051GE19AGL   +99999+99999GF108991061999002501999999KA1120M-00711MA1999999092581MD1210051+9999MW1701OD139900001999REMSYN08201359 11373 80000 11073 21081 39258 40212 52005 69932 77077 8662/ 333 11071 91100=
0089013590999992015011919004+60533+008200FM-12+077399999V0209999C999999999999N999999999-00751-00831102131ADDMA1999999092591MD1210041+9999REMSYN04801359 46/// /0000 11075 21083 39259 40213 52004=
0089013590999992015011920004+60533+008200FM-12+077399999V0209999C999999999999N999999999-00741-00821102131ADDMA1999999092601MD1210031+9999REMSYN04801359 46/// /0000 11074 21082 39260 40213 52003=
0089013590999992015011921004+60533+008200FM-12+077399999V0209999C999999999999N999999999-00741-00811102161ADDMA1999999092621MD1210041+9999REMSYN04801359 46/// /0000 11074 21081 39262 40216 52004=
0089013590999992015011922004+60533+008200FM-12+077399999V0200701N001019999999N999999999-00701-00771102161ADDMA1999999092641MD1210051+9999REMSYN04801359 46/// /0701 11070 21077 39264 40216 52005=
0089013590999992015011923004+60533+008200FM-12+077399999V0200601N002019999999N999999999-00681-00761102171ADDMA1999999092651MD1210061+9999REMSYN04801359 46/// /0602 11068 21076 39265 40217 52006=
0130013590999992015012000004+60533+008200FM-12+077399999V0200601N002019999999N999999999-00701-00801102171ADDAA106000331MA1999999092641MD1210021+9999OD139900501999REMSYN06401359 16/// /0602 11070 21080 39264 40217 52002 69931 333 91105=
0089013590999992015012001004+60533+008200FM-12+077399999V0200501N003019999999N999999999-00691-00791102171ADDMA1999999092651MD1210011+9999REMSYN04801359 46/// /0503 11069 21079 39265 40217 52001=
0089013590999992015012002004+60533+008200FM-12+077399999V0200601N002019999999N999999999-00721-00821102161ADDMA1999999092631MD1810021+9999REMSYN04801359 46/// /0602 11072 21082 39263 40216 58002=
0089013590999992015012003004+60533+008200FM-12+077399999V0200701N002019999999N999999999-00741-00841102161ADDMA1999999092621MD1810021+9999REMSYN04801359 46/// /0702 11074 21084 39262 40216 58002=
0089013590999992015012004004+60533+008200FM-12+077399999V0200601N003019999999N999999999-00771-00871102171ADDMA1999999092621MD1510031+9999REMSYN04801359 46/// /0603 11077 21087 39262 40217 55003=
0108013590999992015012005004+60533+008200FM-12+077399999V0200501N004019999999N999999999-00801-00911102181ADDMA1999999092621MD1290029+9999REMSYN04801359 46/// /0504 11080 21091 39262 40218 54001=EQDQ01.1    3APC3  
0293013590999992015012006004+60533+008200FM-12+077399999V0200501N003019999999N014000199-00811-00921102191ADDAA112000931AA224001231AJ101033101030099AY171021AY221021GA1081+002501071GE19AGL   +99999+99999GF108991081999002501999999IA1289KA1240N-00831MA1999999092621MD1410001+9999MW1781OD139900601999REMSYN09401359 11364 80503 11081 21092 39262 40219 54000 69992 77872 886// 333 21083 48103 70012 91106=
0089013590999992015012007004+60533+008200FM-12+077399999V0200501N003019999999N999999999-00811-00941102211ADDMA1999999092651MD1310021+9999REMSYN04801359 46/// /0503 11081 21094 39265 40221 53002=
0089013590999992015012008004+60533+008200FM-12+077399999V0200601N002019999999N999999999-00841-00951102261ADDMA1999999092681MD1310061+9999REMSYN04801359 46/// /0602 11084 21095 39268 40226 53006=
0089013590999992015012009004+60533+008200FM-12+077399999V0200601N002019999999N999999999-00861-00991102281ADDMA1999999092691MD1210071+9999REMSYN04801359 46/// /0602 11086 21099 39269 40228 52007=
0089013590999992015012010004+60533+008200FM-12+077399999V0200701N002019999999N999999999-00821-00971102271ADDMA1999999092691MD1110041+9999REMSYN04801359 46/// /0702 11082 21097 39269 40227 51004=
0108013590999992015012011004+60533+008200FM-12+077399999V0200501N003019999999N999999999-00751-00961102241ADDMA1999999092691MD1790029+9999REMSYN04801359 46/// /0503 11075 21096 39269 40224 54001=EQDQ01.1    3APC3  
0244013590999992015012012004+60533+008200FM-12+077399999V0200601N002019999999N009000199-00741-00931102211ADDAA106000831AY171021AY271021GA1051+002501071GA2999+999999051GE19AGL   +99999+99999GF108991051999002501999999MA1999999092671MD1810021+9999MW1711OD139900501999REMSYN07601359 11359 80602 11074 21093 39267 40221 58002 69981 77177 8562/ 333 91105=
0089013590999992015012013004+60533+008200FM-12+077399999V0200601N002019999999N999999999-00721-00891102191ADDMA1999999092651MD1710041+9999REMSYN04801359 46/// /0602 11072 21089 39265 40219 57004=
0089013590999992015012014004+60533+008200FM-12+077399999V0209999C999999999999N999999999-00711-00881102171ADDMA1999999092641MD1710051+9999REMSYN04801359 46/// /0000 11071 21088 39264 40217 57005=
0089013590999992015012015004+60533+008200FM-12+077399999V0200701N001019999999N999999999-00751-00871102201ADDMA1999999092661MD1510011+9999REMSYN04801359 46/// /0701 11075 21087 39266 40220 55001=
0089013590999992015012016004+60533+008200FM-12+077399999V0200701N001019999999N999999999-00781-00891102201ADDMA1999999092641MD1710021+9999REMSYN04801359 46/// /0701 11078 21089 39264 40220 57002=
0089013590999992015012017004+60533+008200FM-12+077399999V0200601N002019999999N999999999-00751-00871102181ADDMA1999999092631MD1990011+9999REMSYN04801359 46/// /0602 11075 21087 39263 40218 50001=
0263013590999992015012018004+60533+008200FM-12+077399999V0200901N002019999999N013000199-00731-00861102181ADDAA112001031AY171021AY271021GA1061+002501071GA2999+999999051GE19AGL   +99999+99999GF108991061999002501999999KA1120M-00691MA1999999092651MD1710011+9999MW1701OD139900501999REMSYN08201359 11363 80902 11073 21086 39265 40218 57001 60012 77077 8662/ 333 11069 91105=
0089013590999992015012019004+60533+008200FM-12+077399999V0209999C999999999999N999999999-00751-00861102191ADDMA1999999092641MD1410001+9999REMSYN04801359 46/// /0000 11075 21086 39264 40219 54000=
0089013590999992015012020004+60533+008200FM-12+077399999V0200501N004019999999N999999999-00701-00811102171ADDMA1999999092641MD1210011+9999REMSYN04801359 46/// /0504 11070 21081 39264 40217 52001=
0089013590999992015012021004+60533+008200FM-12+077399999V0200501N004019999999N999999999-00661-00771102141ADDMA1999999092631MD1710021+9999REMSYN04801359 46/// /0504 11066 21077 39263 40214 57002=
0108013590999992015012022004+60533+008200FM-12+077399999V0200601N003019999999N999999999-00671-00771102151ADDMA1999999092641MD1790049+9999REMSYN04801359 46/// /0603 11067 21077 39264 40215 54001=EQDQ01.1    3APC3  
0108013590999992015012023004+60533+008200FM-12+077399999V0200601N003019999999N999999999-00661-00761102151ADDMA1999999092641MD1790029+9999REMSYN04801359 46/// /0603 11066 21076 39264 40215 54001=EQDQ01.1    3APC3  
0130013590999992015012100004+60533+008200FM-12+077399999V0200501N004019999999N999999999-00641-00721102151ADDAA106000831MA1999999092641MD1210011+9999OD139900701999REMSYN06401359 16/// /0504 11064 21072 39264 40215 52001 69981 333 91107=
0089013590999992015012101004+60533+008200FM-12+077399999V0200501N004019999999N999999999-00641-00711102131ADDMA1999999092631MD1410001+9999REMSYN04801359 46/// /0504 11064 21071 39263 40213 54000=
0089013590999992015012102004+60533+008200FM-12+077399999V0200501N004019999999N999999999-00621-00701102111ADDMA1999999092611MD1710021+9999REMSYN04801359 46/// /0504 11062 21070 39261 40211 57002=
0089013590999992015012103004+60533+008200FM-12+077399999V0200401N004019999999N999999999-00611-00711102091ADDMA1999999092601MD1710051+9999REMSYN04801359 46/// /0404 11061 21071 39260 40209 57005=
0089013590999992015012104004+60533+008200FM-12+077399999V0200601N003019999999N999999999-00591-00691102091ADDMA1999999092611MD1710031+9999REMSYN04801359 46/// /0603 11059 21069 39261 40209 57003=
0089013590999992015012105004+60533+008200FM-12+077399999V0200501N004019999999N999999999-00591-00691102101ADDMA1999999092621MD1410001+9999REMSYN04801359 46/// /0504 11059 21069 39262 40210 54000=
0293013590999992015012106004+60533+008200FM-12+077399999V0200601N004019999999N014000199-00591-00691102141ADDAA112002031AA224003131AJ101063101060099AY171021AY271021GA1081+004501051GE19AGL   +99999+99999GF108991081999004501999999IA1289KA1240N-00771MA1999999092651MD1310051+9999MW1701OD139900701999REMSYN09401359 11464 80604 11059 21069 39265 40214 53005 60022 77077 8802/ 333 21077 48106 70031 91107=
0089013590999992015012107004+60533+008200FM-12+077399999V0200501N003019999999N999999999-00601-00681102161ADDMA1999999092671MD1210071+9999REMSYN04801359 46/// /0503 11060 21068 39267 40216 52007=
0089013590999992015012108004+60533+008200FM-12+077399999V0200501N003019999999N999999999-00601-00701102211ADDMA1999999092721MD1210101+9999REMSYN04801359 46/// /0503 11060 21070 39272 40221 52010=
0089013590999992015012109004+60533+008200FM-12+077399999V0200501N003019999999N999999999-00601-00711102251ADDMA1999999092751MD1210091+9999REMSYN04801359 46/// /0503 11060 21071 39275 40225 52009=
0089013590999992015012110004+60533+008200FM-12+077399999V0200501N002019999999N999999999-00571-00691102251ADDMA1999999092761MD1210091+9999REMSYN04801359 46/// /0502 11057 21069 39276 40225 52009=
0089013590999992015012111004+60533+008200FM-12+077399999V0200501N003019999999N999999999-00571-00701102281ADDMA1999999092791MD1210071+9999REMSYN04801359 46/// /0503 11057 21070 39279 40228 52007=
0228013590999992015012112004+60533+008200FM-12+077399999V0200501N002019999999N002300199-00561-00721102291ADDAA106000831AY171021AY271021GA1081+002501051GE19AGL   +99999+99999GF108991081999002501999999MA1999999092801MD1210051+9999MW1711OD139900701999REMSYN07601359 11323 80502 11056 21072 39280 40229 52005 69981 77177 8802/ 333 91107=
0089013590999992015012113004+60533+008200FM-12+077399999V0200601N002019999999N999999999-00551-00741102261ADDMA1999999092781MD1990021+9999REMSYN04801359 46/// /0602 11055 21074 39278 40226 50002=
0108013590999992015012114004+60533+008200FM-12+077399999V0200601N002019999999N999999999-00571-00701102271ADDMA1999999092781MD1790019+9999REMSYN04801359 46/// /0602 11057 21070 39278 40227 54001=EQDQ01.1    3APC3  
0089013590999992015012115004+60533+008200FM-12+077399999V0200601N001019999999N999999999-00621-00741102311ADDMA1999999092801MD1510001+9999REMSYN04801359 46/// /0601 11062 21074 39280 40231 55000=
0089013590999992015012116004+60533+008200FM-12+077399999V0200601N002019999999N999999999-00661-00771102351ADDMA1999999092821MD1210041+9999REMSYN04801359 46/// /0602 11066 21077 39282 40235 52004=
0089013590999992015012117004+60533+008200FM-12+077399999V0209999C999999999999N999999999-00801-00881102431ADDMA1999999092851MD1210071+9999REMSYN04801359 46/// /0000 11080 21088 39285 40243 52007=
0247013590999992015012118004+60533+008200FM-12+077399999V0209999C999999999999N007000199-00921-00991102511ADDAA112002031AY171021AY271021GA1081+002501071GE19AGL   +99999+99999GF108991081999002501999999KA1120M-00531MA1999999092871MD1210081+9999MW1781OD139900501999REMSYN08201359 11357 80000 11092 21099 39287 40251 52008 60022 77877 886// 333 11053 91105=
0089013590999992015012119004+60533+008200FM-12+077399999V0200601N002019999999N999999999-00671-00821102451ADDMA1999999092911MD1210091+9999REMSYN04801359 46/// /0602 11067 21082 39291 40245 52009=
0089013590999992015012120004+60533+008200FM-12+077399999V0209999C999999999999N999999999-00781-00861102521ADDMA1999999092941MD1210091+9999REMSYN04801359 46/// /0000 11078 21086 39294 40252 52009=
0089013590999992015012121004+60533+008200FM-12+077399999V0209999C999999999999N999999999-00781-00881102551ADDMA1999999092961MD1210091+9999REMSYN04801359 46/// /0000 11078 21088 39296 40255 52009=
0089013590999992015012122004+60533+008200FM-12+077399999V0209999C999999999999N999999999-00841-00931102591ADDMA1999999092971MD1210071+9999REMSYN04801359 46/// /0000 11084 21093 39297 40259 52007=
0089013590999992015012123004+60533+008200FM-12+077399999V0209999C999999999999N999999999-00931-01011102621ADDMA1999999092981MD1210041+9999REMSYN04801359 46/// /0000 11093 21101 39298 40262 52004=
0130013590999992015012200004+60533+008200FM-12+077399999V0209999C999999999999N999999999-00901-00981102631ADDAA106000331MA1999999092991MD1210031+9999OD139900401999REMSYN06401359 16/// /0000 11090 21098 39299 40263 52003 69931 333 91104=
0108013590999992015012201004+60533+008200FM-12+077399999V0209999C999999999999N999999999-00921-00991102621ADDMA1999999092981MD1290039+9999REMSYN04801359 46/// /0000 11092 21099 39298 40262 54001=EQDQ01.1    3APC3  
0089013590999992015012202004+60533+008200FM-12+077399999V0209999C999999999999N999999999-00871-00941102601ADDMA1999999092981MD1410001+9999REMSYN04801359 46/// /0000 11087 21094 39298 40260 54000=
0089013590999992015012203004+60533+008200FM-12+077399999V0209999C999999999999N999999999-00991-01081102641ADDMA1999999092971MD1710021+9999REMSYN04801359 46/// /0000 11099 21108 39297 40264 57002=
0089013590999992015012204004+60533+008200FM-12+077399999V0209999C999999999999N999999999-00981-01041102641ADDMA1999999092981MD1410001+9999REMSYN04801359 46/// /0000 11098 21104 39298 40264 54000=
0089013590999992015012205004+60533+008200FM-12+077399999V0209999C999999999999N999999999-00861-00941102601ADDMA1999999092981MD1410001+9999REMSYN04801359 46/// /0000 11086 21094 39298 40260 54000=
0293013590999992015012206004+60533+008200FM-12+077399999V0209999C999999999999N015000199-01011-01121102671ADDAA112000731AA224002331AJ101083101080099AY171021AY271021GA1081+002501061GE19AGL   +99999+99999GF108991081999002501999999IA1289KA1240N-01071MA1999999092991MD1210021+9999MW1781OD139900001999REMSYN09401359 11365 80000 11101 21112 39299 40267 52002 69972 77877 885// 333 21107 48108 70023 91100=
0089013590999992015012207004+60533+008200FM-12+077399999V0209999C999999999999N999999999-01121-01221102741ADDMA1999999093021MD1310041+9999REMSYN04801359 46/// /0000 11112 21122 39302 40274 53004=
0089013590999992015012208004+60533+008200FM-12+077399999V0209999C999999999999N999999999-01281-01371102831ADDMA1999999093041MD1210071+9999REMSYN04801359 46/// /0000 11128 21137 39304 40283 52007=
0089013590999992015012209004+60533+008200FM-12+077399999V0209999C999999999999N999999999-01211-01291102831ADDMA1999999093071MD1210081+9999REMSYN04801359 46/// /0000 11121 21129 39307 40283 52008=
0089013590999992015012210004+60533+008200FM-12+077399999V0209999C999999999999N999999999-01111-01241102811ADDMA1999999093091MD1210071+9999REMSYN04801359 46/// /0000 11111 21124 39309 40281 52007=
0089013590999992015012211004+60533+008200FM-12+077399999V0209999C999999999999N999999999-01091-01311102791ADDMA1999999093071MD1990031+9999REMSYN04801359 46/// /0000 11109 21131 39307 40279 50003=
0244013590999992015012212004+60533+008200FM-12+077399999V0202301N002019999999N022000199-01091-01341102761ADDAA106000231AY171021AY271021GA1061+002501061GA2999+999999031GE19AGL   +99999+99999GF108991061999002501999999MA1999999093051MD1810021+9999MW1781OD139900301999REMSYN07601359 11372 82302 11109 21134 39305 40276 58002 69921 77877 8653/ 333 91103=
0089013590999992015012213004+60533+008200FM-12+077399999V0202601N003019999999N999999999-01101-01401102741ADDMA1999999093031MD1710061+9999REMSYN04801359 46/// /2603 11110 21140 39303 40274 57006=
0089013590999992015012214004+60533+008200FM-12+077399999V0202601N003019999999N999999999-01171-01521102741ADDMA1999999093001MD1710071+9999REMSYN04801359 46/// /2603 11117 21152 39300 40274 57007=
0089013590999992015012215004+60533+008200FM-12+077399999V0202101N002019999999N999999999-01671-01891102931ADDMA1999999092991MD1710061+9999REMSYN04801359 46/// /2102 11167 21189 39299 40293 57006=
0089013590999992015012216004+60533+008200FM-12+077399999V0209999C999999999999N999999999-01681-01821102921ADDMA1999999092981MD1710051+9999REMSYN04801359 46/// /0000 11168 21182 39298 40292 57005=
0089013590999992015012217004+60533+008200FM-12+077399999V0209999C999999999999N999999999-01781-01931102961ADDMA1999999092981MD1710031+9999REMSYN04801359 46/// ///// 11178 21193 39298 40296 57003=
0203013590999992015012218004+60533+008200FM-12+077399999V0202501N002019999999N070001199-01551-01681102841ADDAA112000331AY171021AY221021GF100995999999999999999999KA1120M-01011MA1999999092951MD1710041+9999MW1011OD139900501999REMSYN07601359 11989 02502 11155 21168 39295 40284 57004 69932 70172 333 11101 91105=
0089013590999992015012219004+60533+008200FM-12+077399999V0202301N001019999999N999999999-01661-01831102861ADDMA1999999092931MD1710051+9999REMSYN04801359 46/// /2301 11166 21183 39293 40286 57005=
0089013590999992015012220004+60533+008200FM-12+077399999V0202701N001019999999N999999999-01861-02011102891ADDMA1999999092891MD1710091+9999REMSYN04801359 46/// /2701 11186 21201 39289 40289 57009=
0089013590999992015012221004+60533+008200FM-12+077399999V0202301N003019999999N999999999-01511-01751102701ADDMA1999999092841MD1810111+9999REMSYN04801359 46/// /2303 11151 21175 39284 40270 58011=
