0228419410999992015010100004+23267+090700FM-12+000799999V0209999C000010210019N004000199+01781+01701101381ADDAA124000091AY121021AY221021GA1041+004201061GA2081+021001041GE19AGL   +99999+99999GF108991041999004201999999MA1999999101321MW1051REMSYN08841941 31440 80000 10178 20170 30132 40138 70522 8452/ 333 56999 59005 70000 84614 88457=
0247419410999992015010103004+23267+090700FM-12+000799999V0209999C000010210019N004000199+02021+01801101651ADDAA124000091AY121021AY221021GA1041+004201061GA2081+021001041GE19AGL   +99999+99999GF108991041999004201999999KA1240N+01761MA1999999101591MW1051REMSYN09441941 31440 80000 10202 20180 30159 40165 70522 8452/ 333 20176 56999 59004 70000 84614 88457=
0267419410999992015010106004+23267+090700FM-12+000799999V0209999C00001009001CN005000199+02251+02001101511ADDAA118001031AA224001031AY161021AY221021GA1041+004201061GA2011+009001091GA3081+021001041GE19AGL   +99999+99999GF108991041999004201999999MA1999999101461MW1211REMSYN10041941 11450 80000 10225 20200 30146 40151 60013 72162 8552/ 333 56999 59008 70010 84614 81930 88457=
0267419410999992015010109004+23267+090700FM-12+000799999V0209999C00001009001CN005000199+02271+01801101391ADDAA103001031AA224002031AY161021AY221021GA1041+004201061GA2011+009001091GA3081+021001041GE19AGL   +99999+99999GF108991041999004201999999MA1999999101331MW1211REMSYN10041941 21450 80000 10227 20180 30133 40139 72162 8642/ 333 56999 58002 6001/ 70020 84614 81930 88457=
0286419410999992015010112004+23267+090700FM-12+000799999V0209999C00001009001CN005000199+02101+01701101371ADDAA124001032AA224002032AY161021AY221021GA1041+004201061GA2011+009001091GA3081+021001041GE19AGL   +99999+99999GF108991041999004201999999KA1240M+02331MA1999999101311MW1021REMSYN10641941 11450 80000 10210 20170 30131 40137 60014 70262 8642/ 333 10233 56999 59001 70020 84614 81930 88457=
0250419410999992015010115004+23267+090700FM-12+000799999V0209999C00001009001CN003000199+02071+01801101581ADDAA124002031AY121021AY221021GA1041+004201061GA2011+009001091GA3081+021001041GE19AGL   +99999+99999GF108991041999004201999999MA1999999101521MW1051REMSYN09441941 32430 80000 10207 20180 30152 40158 70522 8642/ 333 56999 58009 70020 84614 81930 88457=
0267419410999992015010118004+23267+090700FM-12+000799999V0209999C00001009001CN004000199+02031+01701101661ADDAA101001031AA224002831AY161021AY221021GA1051+004201061GA2011+009001091GA3081+021001041GE19AGL   +99999+99999GF108991051999004201999999MA1999999101601MW1211REMSYN10041941 11440 80000 10203 20170 30160 40166 60015 72162 8632/ 333 56999 58009 70028 85614 81930 88457=
0170419410999992015010121004+23267+090700FM-12+000799999V0209999C000019999999N004000199+01981+99999999999ADDGA1999+004501999GE19AGL   +99999+99999GF108991999999004501999999REMSYN09441941 31440 80000 10198 10180 30154 40459 70522 8632/ 333 56999 58011 70028 85614 81928 88456=
0164419410999992015010200004+23267+090700FM-12+000799999V0209999C000019999999N004000199+01971+99999999999ADDGA1999+004501999GE19AGL   +99999+99999GF108991999999004501999999REMSYN08841941 31440 80000 10197 10190 30152 40158 70522 8532/ 333 56999 58020 70028 84614 88457=
0219419410999992015010203004+23267+090700FM-12+000799999V0209999C00001036001CN006000199+02271+02001101701ADDAA124002831GA1031+004501061GA2031+036001031GE19AGL   +99999+99999GF106991031999004501999999KA1240N+01931MA1999999101651REMSYN08841941 32456 60000 10227 20200 30165 40170 85430 333 20193 56990 58006 70028 83615 83362=
0200419410999992015010206004+23267+090700FM-12+000799999V0203601N00101036001CN006000199+02821+01901101611ADDAA124001831GA1031+004801061GA2031+036001031GE19AGL   +99999+99999GF106991031999004801999999MA1999999101551REMSYN08241941 32456 63602 10282 20190 30155 40161 85430 333 56990 58010 70018 83616 83362=
0200419410999992015010209004+23267+090700FM-12+000799999V0209999C000010240019N006000199+03021+01901101371ADDAA124000091GA1041+004501061GA2061+024001041GE19AGL   +99999+99999GF106991041999004501999999MA1999999101321REMSYN08241941 32456 60000 10302 20190 30132 40137 85420 333 56990 59002 70000 84615 86458=
0219419410999992015010212004+23267+090700FM-12+000799999V0209999C000010240019N004000199+02521+01901101461ADDAA124000831GA1041+004801061GA2061+024001041GE19AGL   +99999+99999GF106991041999004801999999KA1240M+03041MA1999999101401REMSYN08841941 32440 60000 10252 20190 30140 40146 85420 333 10304 56990 58009 70008 84616 86458=
0164419410999992015010215004+23267+090700FM-12+000799999V0209999C000019999999N003000199+02181+02101101761ADDAA124000831AY121021AY201021GF100995999999999999999999MA1999999101701MD1999999+0181MW1051REMSYN06441941 31930 00000 10218 20210 30170 40176 70520 333 58018 70008=
0164419410999992015010218004+23267+090700FM-12+000799999V0209999C000019999999N003000199+02041+01901101731ADDAA124000091AY121021AY201021GF100995999999999999999999MA1999999101671MD1999999+0071MW1051REMSYN06441941 31930 00000 10204 20190 30167 40173 70520 333 58007 70000=
0228419410999992015010221004+23267+090700FM-12+000799999V0209999C000010240019N003000199+02021+01901101591ADDAA124000091AY121021AY221021GA1041+004801061GA2061+024001041GE19AGL   +99999+99999GF106991041999004801999999MA1999999101531MW1051REMSYN08841941 31430 60000 10202 20190 30153 40159 70522 85420 333 56990 58000 70000 84616 86458=
0228419410999992015010300004+23267+090700FM-12+000799999V0209999C000010240019N004000199+02001+01901101501ADDAA124000091AY121021AY221021GA1041+004801061GA2061+024001041GE19AGL   +99999+99999GF106991041999004801999999MA1999999101441MW1051REMSYN08841941 31440 60000 10200 20190 30144 40150 70522 85420 333 56990 59008 70000 84616 86458=
0260419410999992015010303004+23267+090700FM-12+000799999V0200201N021619999999N005000199+99999+02001101611ADDAA124000091AY121021AY221021GA1042+004801061GA2062+024001041GE19AGL   +99999+99999GF101992042999004801999999KA1240N+01961MA1999999101551MW1051REMSYN08841941 31450 10242 20200 30155 40161 70522 85420 333 20196 56990 59009 70000 84616 86458=EQDQ01 024003SCOCIG
0200419410999992015010306004+23267+090700FM-12+000799999V0209999C000010240019N006000199+02861+02101101551ADDAA124000091GA1041+004801061GA2061+024001041GE19AGL   +99999+99999GF106991041999004801999999MA1999999101501REMSYN08241941 32456 60000 10286 20210 30150 40155 85420 333 56990 59006 70000 84616 86458=
0136419410999992015010309004+23267+090700FM-12+000799999V0209999C000019999999N006000199+03021+01801101211ADDAA124000091GF100995999999999999999999MA1999999101151MD1999999-0161REMSYN05841941 32956 00000 10302 20180 30115 40121 333 59016 70000=
0247419410999992015010312004+23267+090700FM-12+000799999V0209999C000010240019N006000199+02621+02101101111ADDAA124000091AY121021AY221021GA1031+004801061GA2061+024001041GE19AGL   +99999+99999GF106991031999004801999999KA1240M+03121MA1999999101061MW1051REMSYN09441941 31456 60000 10262 20210 30106 40111 70522 84420 333 10312 56990 59035 70000 83616 86458=
0228419410999992015010315004+23267+090700FM-12+000799999V0209999C000010240019N005000199+02401+02301101311ADDAA124000091AY121021AY221021GA1031+004801061GA2061+024001041GE19AGL   +99999+99999GF106991031999004801999999MA1999999101261MW1051REMSYN08841941 31450 60000 10240 20230 30126 40131 70522 84420 333 56990 59045 70000 83616 86458=
0228419410999992015010321004+23267+090700FM-12+000799999V0209999C000010240019N004000199+02161+02001101221ADDAA124000091AY121021AY221021GA1031+004801061GA2061+024001041GE19AGL   +99999+99999GF106991031999004801999999MA1999999101161MW1051REMSYN08841941 31440 60000 10216 20200 30116 40122 70522 84420 333 56990 59037 70000 83616 86458=
0228419410999992015010400004+23267+090700FM-12+000799999V0209999C000010240019N004000199+02021+01901101141ADDAA124000091AY121021AY221021GA1031+004801061GA2061+024001041GE19AGL   +99999+99999GF106991031999004801999999MA1999999101081MW1051REMSYN08841941 31440 60000 10202 20190 30108 40114 70522 84420 333 56990 59036 70000 83616 86458=
0228419410999992015010409004+23267+090700FM-12+000799999V0203601N001010240019N006000199+02581+02201101021ADDAA124000091AY121021AY221021GA1031+004801061GA2061+024001041GE19AGL   +99999+99999GF106991031999004801999999MA1999999100971MW1051REMSYN08841941 31456 63602 10258 20220 30097 40102 70522 84420 333 56990 59019 70000 83616 86458=
0247419410999992015010412004+23267+090700FM-12+000799999V0203601N001010240019N005000199+02341+02101100981ADDAA124000091AY121021AY221021GA1031+004801061GA2061+024001041GE19AGL   +99999+99999GF106991031999004801999999KA1240M+02621MA1999999100931MW1051REMSYN09441941 31450 63602 10234 20210 30093 40098 70522 84420 333 10262 56990 59013 70000 83616 86458=
0155419410999992015010503004+23267+090700FM-12+000799999V0203601N001019999999N006000199+02071+01701101371ADDAA124000091GF100995999999999999999999KA1240N+01811MA1999999101311MD1999999-0041REMSYN06441941 32956 03602 10207 20170 30131 40137 333 20181 59004 70000=
0136419410999992015010506004+23267+090700FM-12+000799999V0203601N001519999999N006000199+02371+01701101481ADDAA124000091GF100995999999999999999999MA1999999101421MD1999999+0201REMSYN05841941 32956 03603 10237 20170 30142 40148 333 58020 70000=
0136419410999992015010515004+23267+090700FM-12+000799999V0203601N001019999999N005000199+01891+01701101391ADDAA124000091GF100995999999999999999999MA1999999101331MD1999999+0201REMSYN05841941 32950 03602 10189 20170 30133 40139 333 58020 70000=
0136419410999992015010518004+23267+090700FM-12+000799999V0209999C000019999999N004000199+01731+01501101481ADDAA124000091GF100995999999999999999999MA1999999101421MD1999999+0161REMSYN05841941 31940 00000 10173 20150 30142 40148 333 58016 70000=
0164419410999992015010521004+23267+090700FM-12+000799999V0209999C000019999999N004000199+01601+01501101381ADDAA124000091AY101021AY201021GF100995999999999999999999MA1999999101331MD1999999+0221MW1051REMSYN06441941 31940 00000 10160 20150 30133 40138 70500 333 58022 70000=
0164419410999992015010600004+23267+090700FM-12+000799999V0209999C000019999999N004000199+01521+01401101451ADDAA124000091AY101021AY201021GF100995999999999999999999MA1999999101391MD1999999+0341MW1051REMSYN06441941 31440 00000 10152 20140 30139 40145 70500 333 58034 70000=
0155419410999992015010603004+23267+090700FM-12+000799999V0203601N001019999999N006000199+01871+01501101621ADDAA124000091GF100995999999999999999999KA1240N+01371MA1999999101561MD1999999+0251REMSYN06441941 32956 03602 10187 20150 30156 40162 333 20137 58025 70000=
0136419410999992015010606004+23267+090700FM-12+000799999V0203601N001019999999N007000199+02341+01301101451ADDAA124000091GF100995999999999999999999MA1999999101391MD1999999-0031REMSYN05841941 32957 03602 10234 20130 30139 40145 333 59003 70000=
0136419410999992015010609004+23267+090700FM-12+000799999V0203601N002619999999N006000199+02371+01501101171ADDAA124000091GF100995999999999999999999MA1999999101111MD1999999+0071REMSYN05841941 32956 03605 10237 20150 30111 40117 333 58007 70000=
0155419410999992015010612004+23267+090700FM-12+000799999V0209999C000019999999N005000199+02001+01501101231ADDAA124000091GF100995999999999999999999KA1240M+02421MA1999999101171MD1999999+0061REMSYN06441941 32950 00000 10200 20150 30117 40123 333 10242 58006 70000=
0136419410999992015010615004+23267+090700FM-12+000799999V0209999C000019999999N004000199+01741+01501101381ADDAA124000091GF100995999999999999999999MA1999999101331MD1999999+0001REMSYN05841941 32940 00000 10174 20150 30133 40138 333 58000 70000=
0117419410999992015010621004+23267+090700FM-12+000799999V0209999C000019999999N004000199+01601+99999999999ADDGF100995999999999999999999MA1999999101371REMSYN06441941 31940 00000 10160 30137 30150 40142 70500 333 58004 70000=
0164419410999992015010700004+23267+090700FM-12+000799999V0209999C000019999999N004000199+01451+01401101411ADDAA124000091AY101021AY201021GF100995999999999999999999MA1999999101361MD1999999-0031MW1051REMSYN06441941 31940 00000 10145 20140 30136 40141 70500 333 59003 70000=
0155419410999992015010703004+23267+090700FM-12+000799999V0209999C000019999999N006000199+01841+01501101591ADDAA124000091GF100995999999999999999999KA1240N+01371MA1999999101531MD1999999-0031REMSYN06441941 32956 00000 10184 20150 30153 40159 333 20137 59003 70000=
0136419410999992015010706004+23267+090700FM-12+000799999V0209999C000019999999N006000199+02181+01401101391ADDAA124000091GF100995999999999999999999MA1999999101341MD1999999-0051REMSYN05841941 32956 00000 10218 20140 30134 40139 333 59005 70000=
0136419410999992015010709004+23267+090700FM-12+000799999V0203601N002119999999N006000199+02251+01201101231ADDAA124000091GF100995999999999999999999MA1999999101171MD1999999+0061REMSYN05841941 32956 03604 10225 20120 30117 40123 333 58006 70000=
0155419410999992015010712004+23267+090700FM-12+000799999V0209999C000019999999N006000199+01921+01401101231ADDAA124000091GF100995999999999999999999KA1240M+02381MA1999999101181MD1999999+0011REMSYN06441941 32956 00000 10192 20140 30118 40123 333 10238 58001 70000=
0136419410999992015010715004+23267+090700FM-12+000799999V0209999C000019999999N005000199+01671+01501101371ADDAA124000091GF100995999999999999999999MA1999999101321MD1999999-0011REMSYN05841941 32950 00000 10167 20150 30132 40137 333 59001 70000=
0164419410999992015010721004+23267+090700FM-12+000799999V0209999C000019999999N004000199+01481+01401101391ADDAA124000091AY101021AY201021GF100995999999999999999999MA1999999101331MD1999999-0041MW1051REMSYN06441941 31940 00000 10148 20140 30133 40139 70500 333 59004 70000=
0164419410999992015010800004+23267+090700FM-12+000799999V0209999C000019999999N004000199+01341+01201101411ADDAA124000091AY101021AY201021GF100995999999999999999999MA1999999101351MD1999999-0011MW1051REMSYN06441941 31940 00000 10134 20120 30135 40141 70500 333 59001 70000=
0155419410999992015010803004+23267+090700FM-12+000799999V0209999C000019999999N006000199+01741+01301101591ADDAA124000091GF100995999999999999999999KA1240N+01251MA1999999101531MD1999999+0001REMSYN06441941 32956 00000 10174 20130 30153 40159 333 20125 58000 70000=
0136419410999992015010806004+23267+090700FM-12+000799999V0203601N002119999999N006000199+02101+01301101401ADDAA124000091GF100995999999999999999999MA1999999101351MD1999999+0011REMSYN05841941 32956 03604 10210 20130 30135 40140 333 58001 70000=
0136419410999992015010809004+23267+090700FM-12+000799999V0203601N002119999999N006000199+02221+01301101361ADDAA124000091GF100995999999999999999999MA1999999101311MD1999999+0141REMSYN05841941 32956 03604 10222 20130 30131 40136 333 58014 70000=
0136419410999992015010815004+23267+090700FM-12+000799999V0209999C000019999999N005000199+01651+01501101401ADDAA124000091GF100995999999999999999999MA1999999101351MD1999999+0031REMSYN05841941 32950 00000 10165 20150 30135 40140 333 58003 70000=
0164419410999992015010821004+23267+090700FM-12+000799999V0209999C000019999999N004000199+01441+01301101441ADDAA124000091AY101021AY201021GF100995999999999999999999MA1999999101401MD1999999+0081MW1051REMSYN06441941 31940 00000 10144 20130 30140 40144 70500 333 58008 70000=
0164419410999992015010900004+23267+090700FM-12+000799999V0209999C000019999999N004000199+01381+01301101451ADDAA124000091AY101021AY201021GF100995999999999999999999MA1999999101391MD1999999+0041MW1051REMSYN06441941 31940 00000 10138 20130 30139 40145 70500 333 58004 70000=
0247419410999992015010903004+23267+090700FM-12+000799999V0209999C000010240019N005000199+01651+01601101611ADDAA124000091AY121021AY201021GA1031+004501061GA2061+024001041GE19AGL   +99999+99999GF106991031999004501999999KA1240N+01301MA1999999101551MW1051REMSYN09441941 31450 60000 10165 20160 30155 40161 70520 83520 333 20130 56990 58002 70000 83615 86458=
0228419410999992015010906004+23267+090700FM-12+000799999V0203601N00101024001CN005000199+01981+01601101551ADDAA124000091AY101021AY221021GA1031+004501061GA2051+024001041GE19AGL   +99999+99999GF106991031999004501999999MA1999999101491MW1051REMSYN08841941 31450 63602 10198 20160 30149 40155 70502 83520 333 56990 58014 70000 83615 85458=
0228419410999992015010909004+23267+090700FM-12+000799999V0203601N00101024001CN005000199+02221+01601101241ADDAA124000091AY121021AY221021GA1031+004501061GA2051+024001041GE19AGL   +99999+99999GF106991031999004501999999MA1999999101191MW1051REMSYN08841941 31450 63602 10222 20160 30119 40124 70522 83520 333 56990 59012 70000 83615 85458=
0247419410999992015010912004+23267+090700FM-12+000799999V0209999C00001024001CN005000199+01941+01701101311ADDAA124000091AY121021AY221021GA1031+004501061GA2051+024001041GE19AGL   +99999+99999GF106991031999004501999999KA1240M+02271MA1999999101261MW1051REMSYN09441941 31450 60000 10194 20170 30126 40131 70522 83520 333 10227 56990 58005 70000 83615 85458=
0164419410999992015010915004+23267+090700FM-12+000799999V0209999C000019999999N005000199+01681+01601101461ADDAA124000091AY101021AY201021GF100995999999999999999999MA1999999101401MD1999999+0061MW1051REMSYN06441941 31950 00000 10168 20160 30140 40146 70500 333 58006 70000=
0164419410999992015010918004+23267+090700FM-12+000799999V0209999C000019999999N004000199+01541+01401101501ADDAA124000091AY101021AY201021GF100995999999999999999999MA1999999101451MD1999999-0011MW1051REMSYN06441941 31940 00000 10154 20140 30145 40150 70500 333 59001 70000=
0164419410999992015010921004+23267+090700FM-12+000799999V0209999C000019999999N004000199+01491+01401101471ADDAA124000091AY101021AY201021GF100995999999999999999999MA1999999101411MD1999999+0021MW1051REMSYN06441941 31940 00000 10149 20140 30141 40147 70500 333 58002 70000=
0164419410999992015011000004+23267+090700FM-12+000799999V0209999C000019999999N004000199+01481+01401101401ADDAA124000091AY101021AY201021GF100995999999999999999999MA1999999101341MD1999999-0051MW1051REMSYN06441941 31940 00000 10148 20140 30134 40140 70500 333 59005 70000=
0183419410999992015011003004+23267+090700FM-12+000799999V0203601N001019999999N005000199+01741+01501101611ADDAA124000091AY101021AY201021GF100995999999999999999999KA1240N+01411MA1999999101551MD1999999+0001MW1051REMSYN07041941 31950 03602 10174 20150 30155 40161 70500 333 20141 58000 70000=
0136419410999992015011006004+23267+090700FM-12+000799999V0203601N001019999999N006000199+02151+01601101511ADDAA124000091GF100995999999999999999999MA1999999101451MD1999999-0041REMSYN05841941 32956 03602 10215 20160 30145 40151 333 59004 70000=
0096419410999992015011009004+23267+090700FM-12+000799999V0203601N001019999999N006000199+02381+01501999999ADDGF100995999999999999999999REMSYN05841941 32956 03602 10238 20150 20128 30122 333 58004 70000=
0183419410999992015011012004+23267+090700FM-12+000799999V0209999C000019999999N005000199+02071+01601101291ADDAA124000091AY101021AY201021GF100995999999999999999999KA1240M+02441MA1999999101241MD1999999-0021MW1051REMSYN07041941 31950 00000 10207 20160 30124 40129 70500 333 10244 59002 70000=
0164419410999992015011015004+23267+090700FM-12+000799999V0203601N001019999999N004000199+01781+01601101511ADDAA124000091AY101021AY201021GF100995999999999999999999MA1999999101451MD1999999+0051MW1051REMSYN06441941 31440 03602 10178 20160 30145 40151 70500 333 58005 70000=
0164419410999992015011021004+23267+090700FM-12+000799999V0203601N001019999999N004000199+01441+01201101501ADDAA124000091AY101021AY201021GF100995999999999999999999MA1999999101451MD1999999+0031MW1051REMSYN06441941 31940 03602 10144 20120 30145 40150 70500 333 58003 70000=
0164419410999992015011100004+23267+090700FM-12+000799999V0203601N001019999999N004000199+01341+01201101471ADDAA124000091AY101021AY201021GF100995999999999999999999MA1999999101421MD1999999+0071MW1051REMSYN06441941 31940 03602 10134 20120 30142 40147 70500 333 58007 70000=
0183419410999992015011103004+23267+090700FM-12+000799999V0203601N001019999999N005000199+01381+01301101811ADDAA124000091AY101021AY201021GF100995999999999999999999KA1240N+01261MA1999999101751MD1999999+0201MW1051REMSYN07041941 31950 03602 10138 20130 30175 40181 70500 333 20126 58020 70000=
0228419410999992015011106004+23267+090700FM-12+000799999V0203601N001010240019N005000199+01701+01501101711ADDAA124000091AY121021AY221021GA1031+004501061GA2061+024001041GE19AGL   +99999+99999GF106991031999004501999999MA1999999101651MW1051REMSYN08841941 31450 63602 10170 20150 30165 40171 70522 83320 333 56990 58020 70000 83615 86458=
0200419410999992015011109004+23267+090700FM-12+000799999V0203601N001010240019N006000199+02071+01401101561ADDAA124000091GA1031+004501061GA2061+024001041GE19AGL   +99999+99999GF106991031999004501999999MA1999999101501REMSYN08241941 32456 63602 10207 20140 30150 40156 84420 333 56990 58028 70000 83615 86458=
0247419410999992015011112004+23267+090700FM-12+000799999V0209999C000010240019N005000199+01821+01401101401ADDAA124000091AY121021AY221021GA1041+004801061GA2061+024001041GE19AGL   +99999+99999GF106991041999004801999999KA1240M+02091MA1999999101351MW1051REMSYN09441941 31450 60000 10182 20140 30135 40140 70522 85420 333 10209 56990 58012 70000 84616 86458=
0228419410999992015011115004+23267+090700FM-12+000799999V0203601N001010240019N005000199+01671+01501101631ADDAA124000091AY121021AY221021GA1041+004801061GA2061+024001041GE19AGL   +99999+99999GF106991041999004801999999MA1999999101571MW1051REMSYN08841941 31450 63602 10167 20150 30157 40163 70522 85420 333 56990 58012 70000 84616 86458=
0228419410999992015011121004+23267+090700FM-12+000799999V0203601N001010240019N004000199+01521+01401101611ADDAA124000091AY121021AY221021GA1041+004801061GA2061+024001041GE19AGL   +99999+99999GF106991041999004801999999MA1999999101551MW1051REMSYN08841941 31440 63602 10152 20140 30155 40161 70522 85420 333 56990 58011 70000 84616 86458=
0247419410999992015011200004+23267+090700FM-12+000799999V0203601N001510240019N004000199+01271+99999101641ADDAA124000091AY121021AY221021GA1041+004801061GA2061+024001041GE19AGL   +99999+99999GF106991041999004801999999MA1999999101591MW1051REMSYN08841941 31440 63603 10127 20130 30159 40164 70522 85420 333 56990 58017 70000 84616 86458=EQDQ0113.0  2ATOD  
0205419410999992015011203004+23267+090700FM-12+000799999V0203601N00101002401CN000800199+01421+01401101791ADDGA1041+999999061GA2999+999999031GA3999+999999001GE19AGL   +99999+99999GF109991041999999999999999MA1999999101731REMSYN08241941 31/08 93602 10142 20140 30173 40179 84542 89/// 333 20115 56999 59002 70000=
0164419410999992015011206004+23267+090700FM-12+000799999V0203601N001019999999N005000199+01821+01401101661ADDAA124000091AY141021AY221021GF100995999999999999999999MA1999999101601MD1999999-0041MW1051REMSYN06441941 31950 03602 10182 20140 30160 40166 70542 333 59004 70000=
0136419410999992015011209004+23267+090700FM-12+000799999V0209999C000019999999N006000199+02271+01801101361ADDAA124000091GF100995999999999999999999MA1999999101301MD1999999-0201REMSYN05841941 32956 00000 10227 20180 30130 40136 333 59020 70000=
0155419410999992015011212004+23267+090700FM-12+000799999V0209999C000019999999N005000199+01951+01601101361ADDAA124000091GF100995999999999999999999KA1240M+02321MA1999999101301MD1999999-0051REMSYN06441941 32950 00000 10195 20160 30130 40136 333 10232 59005 70000=
0164419410999992015011215004+23267+090700FM-12+000799999V0209999C000019999999N004000199+01641+01401101591ADDAA124000091AY101021AY201021GF100995999999999999999999MA1999999101531MD1999999-0041MW1051REMSYN06441941 31940 00000 10164 20140 30153 40159 70500 333 59004 70000=
0164419410999992015011218004+23267+090700FM-12+000799999V0209999C000019999999N004000199+01461+01401101661ADDAA124000091AY101021AY201021GF100995999999999999999999MA1999999101601MD1999999-0021MW1051REMSYN06441941 31940 00000 10146 20140 30160 40166 70500 333 59002 70000=
0228419410999992015011221004+23267+090700FM-12+000799999V0209999C00001024001CN001000199+01341+01201101581ADDAA124000091AY141021AY201021GA1031+004201061GA2051+024001041GE19AGL   +99999+99999GF105991031999004201999999MA1999999101521MW1401REMSYN08841941 31910 50000 10134 20120 30152 40158 74040 83520 333 56999 59003 70000 83614 85458=
0164419410999992015011300004+23267+090700FM-12+000799999V0209999C000019999999N004000199+01301+01201101531ADDAA124000091AY141021AY201021GF100995999999999999999999MA1999999101471MD1999999+0121MW1051REMSYN06441941 31940 00000 10130 20120 30147 40153 70540 333 58012 70000=
0197419410999992015011303004+23267+090700FM-12+000799999V0203601N001519999999N006000199+01581+01501101751ADDAA124000091GA1021+004801061GE19AGL   +99999+99999GF102991021999004801999999KA1240N+01251MA1999999101691REMSYN08241941 32456 23603 10158 20150 30169 40175 82500 333 20125 56900 59004 70000 82616=
0136419410999992015011306004+23267+090700FM-12+000799999V0203601N001519999999N006000199+02151+01701101571ADDAA124000091GF100995999999999999999999MA1999999101511MD1999999-0091REMSYN05841941 32956 03603 10215 20170 30151 40157 333 59009 70000=
0164419410999992015011315004+23267+090700FM-12+000799999V0209999C000019999999N004000199+01801+01601101511ADDAA124000091AY101021AY201021GF100995999999999999999999MA1999999101451MD1999999-0081MW1051REMSYN06441941 31940 00000 10180 20160 30145 40151 70500 333 59008 70000=
0164419410999992015011318004+23267+090700FM-12+000799999V0209999C000019999999N004000199+01601+01501101541ADDAA124000091AY101021AY201021GF100995999999999999999999MA1999999101481MD1999999-0121MW1051REMSYN06441941 31940 00000 10160 20150 30148 40154 70500 333 59012 70000=
0164419410999992015011321004+23267+090700FM-12+000799999V0209999C000019999999N004000199+01461+01401101451ADDAA124000091AY101021AY201021GF100995999999999999999999MA1999999101391MD1999999-0131MW1051REMSYN06441941 31940 00000 10146 20140 30139 40145 70500 333 59013 70000=
0117419410999992015011400004+23267+090700FM-12+000799999V0209999C000019999999N004000199+01451+01401999999ADDGF100995999999999999999999MA1999999101471REMSYN06441941 31940 00000 10145 20140 30147 30153 70500 333 58000 70000=
0155419410999992015011403004+23267+090700FM-12+000799999V0209999C000019999999N006000199+01871+01601101641ADDAA124000091GF100995999999999999999999KA1240N+01401MA1999999101581MD1999999-0111REMSYN06441941 32956 00000 10187 20160 30158 40164 333 20140 59011 70000=
0206419410999992015011406004+23267+090700FM-12+000799999V0203001N001019999999N006000199+02601+01201101651ADDAA124000091AY141021AY201021GA1021+036001031GE19AGL   +99999+99999GF102991021999036001999999MA1999999101391MW1031REMSYN08241941 31956 23002 10260 20120 30139 40165 70340 82030 333 56090 59004 70000 82362=
0136419410999992015011409004+23267+090700FM-12+000799999V0203601N001019999999N007000199+02671+01701101521ADDAA124000091GF100995999999999999999999MA1999999101461MD1999999+0131REMSYN05841941 32957 03602 10267 20170 30146 40152 333 58013 70000=
0183419410999992015011412004+23267+090700FM-12+000799999V0209999C000019999999N005000199+02221+01501101511ADDAA124000091AY101021AY201021GF100995999999999999999999KA1240M+02701MA1999999101461MD1999999+0221MW1051REMSYN07041941 31950 00000 10222 20150 30146 40151 70500 333 10270 58022 70000=
0164419410999992015011415004+23267+090700FM-12+000799999V0209999C000019999999N005000199+02121+01501101611ADDAA124000091AY101021AY201021GF100995999999999999999999MA1999999101561MD1999999+0101MW1051REMSYN06441941 31950 00000 10212 20150 30156 40161 70500 333 58010 70000=
0228419410999992015011500004+23267+090700FM-12+000799999V0209999C000010240019N004000199+01621+01601101561ADDAA124000091AY121021AY201021GA1041+004801061GA2061+024001041GE19AGL   +99999+99999GF106991041999004801999999MA1999999101501MW1051REMSYN08841941 31440 60000 10162 20160 30150 40156 70520 85420 333 56990 58003 70000 84616 86458=
0247419410999992015011503004+23267+090700FM-12+000799999V0209999C000010240019N005000199+01971+01401101741ADDAA124000091AY121021AY221021GA1041+004801061GA2061+024001041GE19AGL   +99999+99999GF106991041999004801999999KA1240N+01501MA1999999101681MW1051REMSYN09441941 31450 60000 10197 20140 30168 40174 70522 85420 333 20150 56990 58010 70000 84616 86458=
0136419410999992015011506004+23267+090700FM-12+000799999V0209999C000019999999N007000199+02421+01801101651ADDAA124000091GF100995999999999999999999MA1999999101601MD1999999+0071REMSYN05841941 32957 00000 10242 20180 30160 40165 333 58007 70000=
0136419410999992015011509004+23267+090700FM-12+000799999V0209999C000019999999N007000199+02721+01501101301ADDAA124000091GF100995999999999999999999MA1999999101241MD1999999-0221REMSYN05841941 32957 00000 10272 20150 30124 40130 333 59022 70000=
0183419410999992015011512004+23267+090700FM-12+000799999V0209999C000019999999N005000199+02221+01701101391ADDAA124000091AY101021AY201021GF100995999999999999999999KA1240M+02821MA1999999101341MD1999999-0121MW1051REMSYN07041941 31950 00000 10222 20170 30134 40139 70500 333 10282 59012 70000=
0164419410999992015011515004+23267+090700FM-12+000799999V0209999C000019999999N004000199+01921+01601101611ADDAA124000091AY101021AY201021GF100995999999999999999999MA1999999101551MD1999999+0001MW1051REMSYN06441941 31940 00000 10192 20160 30155 40161 70500 333 58000 70000=
0164419410999992015011518004+23267+090700FM-12+000799999V0209999C000019999999N004000199+01871+01601101621ADDAA124000091AY101021AY201021GF100995999999999999999999MA1999999101571MD1999999-0041MW1051REMSYN06441941 31940 00000 10187 20160 30157 40162 70500 333 59004 70000=
0183419410999992015011521004+23267+090700FM-12+000799999V0209999C000019999999N004000199+01821+01501101581ADDAA124999999AY101021AY201021GF100995999999999999999999MA1999999101521MD1999999+0041MW1501REMSYN06441941 31940 00000 10182 20150 30152 40158 75000 333 58004 70000=EQDQ01  00002PRCP24
0164419410999992015011600004+23267+090700FM-12+000799999V0209999C000019999999N004000199+01571+01501101551ADDAA124000091AY101021AY201021GF100995999999999999999999MA1999999101491MD1999999-0011MW1051REMSYN06441941 31940 00000 10157 20150 30149 40155 70500 333 59001 70000=
0200419410999992015011606004+23267+090700FM-12+000799999V0209999C000010240019N006000199+02621+01401101511ADDAA124000091GA1041+004801061GA2061+024001041GE19AGL   +99999+99999GF106991041999004801999999MA1999999101461REMSYN08241941 32456 60000 10262 20140 30146 40151 85420 333 56990 59014 70000 84616 86458=
0247419410999992015011612004+23267+090700FM-12+000799999V0209999C000010240019N004000199+02221+01801101301ADDAA124000091AY121021AY221021GA1041+004801061GA2061+024001041GE19AGL   +99999+99999GF106991041999004801999999KA1240M+02721MA1999999101251MW1051REMSYN09441941 31440 60000 10222 20180 30125 40130 70522 85420 333 10272 56990 59009 70000 84616 86458=
0228419410999992015011615004+23267+090700FM-12+000799999V0209999C000010240019N004000199+02021+01801101601ADDAA124000091AY121021AY221021GA1041+004801061GA2061+024001041GE19AGL   +99999+99999GF106991041999004801999999MA1999999101541MW1051REMSYN08841941 31440 60000 10202 20180 30154 40160 70522 85420 333 56990 59001 70000 84616 86458=
0228419410999992015011618004+23267+090700FM-12+000799999V0209999C000010240019N004000199+01871+01701101511ADDAA124000091AY121021AY221021GA1041+004801061GA2061+024001041GE19AGL   +99999+99999GF106991041999004801999999MA1999999101461MW1051REMSYN08841941 31440 60000 10187 20170 30146 40151 70522 84520 333 56990 59011 70000 84616 86458=
0228419410999992015011621004+23267+090700FM-12+000799999V0209999C000010210019N004000199+01721+01701101651ADDAA124000091AY121021AY221021GA1041+004501061GA2061+021001041GE19AGL   +99999+99999GF106991041999004501999999MA1999999101601MW1051REMSYN08841941 31440 60000 10172 20170 30160 40165 70522 85420 333 56990 58007 70000 84615 86457=
0228419410999992015011700004+23267+090700FM-12+000799999V0203601N001010240019N004000199+01711+01701101401ADDAA124000091AY121021AY221021GA1041+004801061GA2061+024001041GE19AGL   +99999+99999GF106991041999004801999999MA1999999101351MW1051REMSYN08841941 31440 63602 10171 20170 30135 40140 70522 85420 333 56990 59015 70000 84616 86458=
0247419410999992015011703004+23267+090700FM-12+000799999V0200601N001010240019N006000199+01971+01601101521ADDAA124000091AY121021AY221021GA1041+004801061GA2061+024001041GE19AGL   +99999+99999GF106991041999004801999999KA1240N+01581MA1999999101471MW1051REMSYN09441941 31456 60602 10197 20160 30147 40152 70522 85420 333 20158 56990 59011 70000 84616 86458=
0200419410999992015011706004+23267+090700FM-12+000799999V0203101N001010240019N008000199+02321+01701101561ADDAA124000091GA1041+004801061GA2061+024001041GE19AGL   +99999+99999GF106991041999004801999999MA1999999101501REMSYN08241941 32458 63102 10232 20170 30150 40156 85430 333 56990 58005 70000 84616 86458=
0200419410999992015011709004+23267+090700FM-12+000799999V0203101N001010210019N006000199+02351+01801101291ADDAA124000091GA1041+004501061GA2061+021001041GE19AGL   +99999+99999GF106991041999004501999999MA1999999101231REMSYN08241941 32456 63102 10235 20180 30123 40129 85420 333 56990 59022 70000 84615 86457=
0247419410999992015011712004+23267+090700FM-12+000799999V0200901N002010240019N005000199+02081+01801101221ADDAA124000091AY121021AY221021GA1041+004801061GA2061+024001041GE19AGL   +99999+99999GF106991041999004801999999KA1240M+02401MA1999999101171MW1051REMSYN09441941 31450 60902 10208 20180 30117 40122 70522 85420 333 10240 56990 59008 70000 84616 86458=
0228419410999992015011715004+23267+090700FM-12+000799999V0209999C000010210019N004000199+01971+01801101441ADDAA124000091AY121021AY221021GA1041+004801061GA2061+021001041GE19AGL   +99999+99999GF106991041999004801999999MA1999999101381MW1051REMSYN08841941 31440 60000 10197 20180 30138 40144 70522 85420 333 56990 59016 70000 84616 86457=
0228419410999992015011718004+23267+090700FM-12+000799999V0203601N001010240019N004000199+01741+01601101611ADDAA124000091AY121021AY221021GA1041+004801061GA2061+024001041GE19AGL   +99999+99999GF106991041999004801999999MA1999999101561MW1051REMSYN08841941 31440 63602 10174 20160 30156 40161 70522 85420 333 56990 58010 70000 84616 86458=
0228419410999992015011721004+23267+090700FM-12+000799999V0203601N001010240019N004000199+01721+01601101591ADDAA124000091AY121021AY221021GA1041+004801061GA2061+024001041GE19AGL   +99999+99999GF106991041999004801999999MA1999999101541MW1051REMSYN08841941 31440 63602 10172 20160 30154 40159 70522 85420 333 56990 59006 70000 84616 86458=
0250419410999992015011800004+23267+090700FM-12+000799999V0203601N00101009001CN004000199+01371+01361101551ADDAA124000091AY121021AY221021GA1041+004501061GA2011+009001091GA3081+021001041GE19AGL   +99999+99999GF108991041999004501999999MA1999999101491MW1051REMSYN09441941 31440 83602 10137 20136 30149 40155 70522 8542/ 333 56999 58015 70000 84615 81930 88457=
0269419410999992015011803004+23267+090700FM-12+000799999V0209999C00001009001CN005000199+01421+01201101821ADDAA124000091AY121021AY221021GA1041+004501061GA2011+009001091GA3081+024001041GE19AGL   +99999+99999GF108991041999004501999999KA1240N+01271MA1999999101761MW1051REMSYN10041941 31450 80000 10142 20120 30176 40182 70522 8542/ 333 20127 56999 58030 70000 84615 81930 88458=
0200419410999992015011806004+23267+090700FM-12+000799999V0203601N001010240019N006000199+01651+01301101641ADDAA124000091GA1041+004801061GA2061+024001041GE19AGL   +99999+99999GF106991041999004801999999MA1999999101581REMSYN08241941 32456 63602 10165 20130 30158 40164 85420 333 56990 58008 70000 84616 86458=
0136419410999992015011809004+23267+090700FM-12+000799999V0203601N001019999999N006000199+01971+01501101441ADDAA124000091GF100995999999999999999999MA1999999101381MD1999999+0151REMSYN05841941 32956 03602 10197 20150 30138 40144 333 58015 70000=
0247419410999992015011812004+23267+090700FM-12+000799999V0209999C000010240019N008000199+01771+01501101541ADDAA124000091AY121021AY221021GA1041+004801061GA2061+024001041GE19AGL   +99999+99999GF106991041999004801999999KA1240M+02001MA1999999101481MW1051REMSYN09441941 31458 60000 10177 20150 30148 40154 70522 85420 333 10200 56990 58023 70000 84616 86458=
0228419410999992015011815004+23267+090700FM-12+000799999V0203601N001010240019N004000199+01521+01301101561ADDAA124000091AY121021AY221021GA1041+004801061GA2061+024001041GE19AGL   +99999+99999GF106991041999004801999999MA1999999101501MW1051REMSYN08841941 31440 63602 10152 20130 30150 40156 70522 85420 333 56990 58012 70000 84616 86458=
0228419410999992015011821004+23267+090700FM-12+000799999V0209999C00001024001CN004000199+01421+01401101711ADDAA124000091AY121021AY221021GA1021+004801061GA2061+024001041GE19AGL   +99999+99999GF106991021999004801999999MA1999999101651MW1051REMSYN08841941 31440 60000 10142 20140 30165 40171 70522 85420 333 56990 58012 70000 82616 86458=
0250419410999992015011900004+23267+090700FM-12+000799999V0209999C00001009001CN004000199+01421+01201101651ADDAA124000091AY121021AY221021GA1041+004501061GA2011+009001091GA3081+024001041GE19AGL   +99999+99999GF108991041999004501999999MA1999999101591MW1051REMSYN09441941 31440 80000 10142 20120 30159 40165 70522 8542/ 333 56999 58010 70000 84615 81930 88458=
0269419410999992015011903004+23267+090700FM-12+000799999V0203601N00101009001CN005000199+01521+01301101771ADDAA124000091AY121021AY221021GA1041+004501061GA2011+009001091GA3081+024001041GE19AGL   +99999+99999GF108991041999004501999999KA1240N+01311MA1999999101711MW1051REMSYN10041941 31450 83602 10152 20130 30171 40177 70522 8542/ 333 20131 56999 59005 70000 84615 81930 88458=
0250419410999992015011906004+23267+090700FM-12+000799999V0203601N00101009001CN005000199+01721+01401101861ADDAA124000091AY121021AY221021GA1041+004501061GA2011+009001091GA3081+024001041GE19AGL   +99999+99999GF108991041999004501999999MA1999999101801MW1051REMSYN09441941 31450 83602 10172 20140 30180 40186 70522 8542/ 333 56999 58022 70000 84615 81930 88458=
0228419410999992015011909004+23267+090700FM-12+000799999V0203601N001510240019N006000199+01921+01401101511ADDAA124000091AY121021AY221021GA1041+004501061GA2061+024001041GE19AGL   +99999+99999GF106991041999004501999999MA1999999101461MW1051REMSYN08841941 31456 63603 10192 20140 30146 40151 70522 84520 333 56990 58008 70000 84615 86458=
0269419410999992015011912004+23267+090700FM-12+000799999V0203601N00101009001CN005000199+01671+01401101621ADDAA124000091AY121021AY221021GA1041+004201061GA2011+009001091GA3081+021001041GE19AGL   +99999+99999GF108991041999004201999999KA1240M+02021MA1999999101561MW1051REMSYN10041941 31450 83602 10167 20140 30156 40162 70522 8662/ 333 10202 56999 58008 70000 84614 81930 88457=
0228419410999992015011915004+23267+090700FM-12+000799999V0203101N002110210019N004000199+01501+01301101731ADDAA124000091AY121021AY221021GA1041+004501061GA2061+021001041GE19AGL   +99999+99999GF107991041999004501999999MA1999999101671MW1051REMSYN08841941 31440 73104 10150 20130 30167 40173 70522 84520 333 56990 58017 70000 84615 86457=
0250419410999992015011921004+23267+090700FM-12+000799999V0209999C00001008401CN004000199+01361+01301101731ADDAA124000091AY101021AY201021GA1051+004201061GA2011+008401091GA3081+024001041GE19AGL   +99999+99999GF108991051999004201999999MA1999999101671MW1051REMSYN09441941 31440 80000 10136 20130 30167 40173 70500 8662/ 333 56999 58002 70000 85614 81928 88458=
0250419410999992015012000004+23267+090700FM-12+000799999V0209999C00001008401CN004000199+01391+01301101781ADDAA124000091AY121021AY221021GA1041+004201061GA2011+008401091GA3081+021001041GE19AGL   +99999+99999GF108991041999004201999999MA1999999101721MW1051REMSYN09441941 31440 80000 10139 20130 30172 40178 70522 8662/ 333 56999 58013 70000 84614 81928 88457=
0269419410999992015012003004+23267+090700FM-12+000799999V0203601N00211008401CN005000199+01521+01301101991ADDAA124000091AY121021AY221021GA1041+004201061GA2011+008401091GA3081+021001041GE19AGL   +99999+99999GF108991041999004201999999KA1240N+01311MA1999999101931MW1051REMSYN10041941 31450 83604 10152 20130 30193 40199 70522 8562/ 333 20131 56999 58022 70000 84614 81928 88457=
0250419410999992015012006004+23267+090700FM-12+000799999V0203601N00211008401CN005000199+01751+01501101931ADDAA124000091AY121021AY221021GA1041+004201061GA2011+008401091GA3081+021001041GE19AGL   +99999+99999GF108991041999004201999999MA1999999101871MW1051REMSYN09441941 31450 83604 10175 20150 30187 40193 70522 8562/ 333 56999 58007 70000 84614 81928 88457=
0136419410999992015012009004+23267+090700FM-12+000799999V0203601N001019999999N006000199+02071+01501101721ADDAA124000091GF100995999999999999999999MA1999999101661MD1999999+0201REMSYN05841941 32456 03602 10207 20150 30166 40172 333 58020 70000=
0183419410999992015012012004+23267+090700FM-12+000799999V0209999C000019999999N005000199+01821+01501101691ADDAA124000091AY101021AY201021GF100995999999999999999999KA1240M+02121MA1999999101631MD1999999+0071MW1051REMSYN07041941 31950 00000 10182 20150 30163 40169 70500 333 10212 58007 70000=
0164419410999992015012015004+23267+090700FM-12+000799999V0209999C000019999999N004000199+01601+01401101911ADDAA124000091AY101021AY201021GF100995999999999999999999MA1999999101851MD1999999+0181MW1051REMSYN06441941 31940 00000 10160 20140 30185 40191 70500 333 58018 70000=
0164419410999992015012018004+23267+090700FM-12+000799999V0209999C000019999999N004000199+01501+01301101981ADDAA124000091AY101021AY201021GF100995999999999999999999MA1999999101921MD1999999+0211MW1051REMSYN06441941 31940 00000 10150 20130 30192 40198 70500 333 58021 70000=
0164419410999992015012021004+23267+090700FM-12+000799999V0209999C000019999999N004000199+01421+01301101881ADDAA124000091AY101021AY201021GF100995999999999999999999MA1999999101821MD1999999+0151MW1051REMSYN06441941 31940 00000 10142 20130 30182 40188 70500 333 58015 70000=
0200419410999992015012100004+23267+090700FM-12+000799999V0209999C00001001201CN000600199+01381+01381101931ADDAA124000091AY141021AY241021GA1091+999999999GE19AGL   +99999+99999GF109991091999999999999999MA1999999101871MW1431REMSYN07641941 31/06 90000 10138 20138 30187 40193 74344 89/// 333 56999 58015 70000=
0206419410999992015012106004+23267+090700FM-12+000799999V0203601N002119999999N006000199+01721+01501102091ADDAA124000091AY141021AY221021GA1021+004801061GE19AGL   +99999+99999GF102991021999004801999999MA1999999102041MW1011REMSYN08241941 31456 23604 10172 20150 30204 40209 70142 82500 333 56900 58017 70000 82616=
0136419410999992015012109004+23267+090700FM-12+000799999V0203601N001019999999N006000199+02121+01601101861ADDAA124000091GF100995999999999999999999MA1999999101801MD1999999+0141REMSYN05841941 31956 03602 10212 20160 30180 40186 333 58014 70000=
0183419410999992015012112004+23267+090700FM-12+000799999V0209999C000019999999N005000199+01921+01601101861ADDAA124000091AY121021AY201021GF100995999999999999999999KA1240M+02151MA1999999101801MD1999999+0171MW1051REMSYN07041941 31950 00000 10192 20160 30180 40186 70520 333 10215 58017 70000=
0149419410999992015012115004+23267+090700FM-12+000799999V0209999C000019999999N005000199+01721+01501101961ADDAY101021AY201021GF100995999999999999999999MA1999999101901MD1810051+9999MW1001REMSYN06041941 31950 00000 10172 20150 30190 40196 58005 70000 70500=
0228419410999992015012118004+23267+090700FM-12+000799999V0209999C000010240019N004000199+01621+01501102031ADDAA124000091AY121021AY201021GA1041+004801061GA2061+024001041GE19AGL   +99999+99999GF106991041999004801999999MA1999999101971MW1051REMSYN08841941 31440 60000 10162 20150 30197 40203 70520 85420 333 56990 58015 70000 84616 86458=
0228419410999992015012121004+23267+090700FM-12+000799999V0209999C000010240019N004000199+01521+01401101961ADDAA124000091AY121021AY221021GA1041+004801061GA2061+024001041GE19AGL   +99999+99999GF106991041999004801999999MA1999999101901MW1051REMSYN08841941 31440 60000 10152 20140 30190 40196 70522 85420 333 56990 58008 70000 84616 86458=
0219419410999992015012200004+23267+090700FM-12+000799999V0209999C00001001201CN000500199+01371+99999101891ADDAA124000091AY141021AY241021GA1091+999999999GE19AGL   +99999+99999GF109991091999999999999999MA1999999101831MW1431REMSYN07641941 31/05 90000 10137 20140 30183 40189 74344 89/// 333 56999 59004 70000=EQDQ0114.0  2ATOD  
0219419410999992015012203004+23267+090700FM-12+000799999V0209999C00001001201CN000500199+01471+01471102081ADDAA124000091AY141021AY241021GA1091+999999999GE19AGL   +99999+99999GF109991091999999999999999KA1240N+01261MA1999999102021MW1451REMSYN08241941 31/05 90000 10147 20147 30202 40208 74544 89/// 333 20126 56999 59008 70000=
0183419410999992015012212004+23267+090700FM-12+000799999V0209999C000019999999N005000199+02121+01201101701ADDAA124000091AY101021AY201021GF100995999999999999999999KA1240M+02671MA1999999101641MD1999999-0161MW1051REMSYN07041941 31950 00000 10212 20120 30164 40170 70500 333 10267 59016 70000=
0164419410999992015012215004+23267+090700FM-12+000799999V0209999C000019999999N004000199+01771+01401101751ADDAA124000091AY101021AY201021GF100995999999999999999999MA1999999101691MD1999999-0211MW1051REMSYN06441941 31940 00000 10177 20140 30169 40175 70500 333 59021 70000=
0164419410999992015012218004+23267+090700FM-12+000799999V0209999C000019999999N004000199+01721+01301101791ADDAA124000091AY101021AY201021GF100995999999999999999999MA1999999101731MD1999999-0241MW1051REMSYN06441941 31940 00000 10172 20130 30173 40179 70500 333 59024 70000=
0164419410999992015012221004+23267+090700FM-12+000799999V0209999C000019999999N004000199+01531+01401101921ADDAA124000091AY101021AY201021GF100995999999999999999999MA1999999101861MD1999999-0041MW1051REMSYN06441941 31940 00000 10153 20140 30186 40192 70500 333 59004 70000=
0247419410999992015012300004+23267+090700FM-12+000799999V0209999C000010240019N004000199+01371+99999101651ADDAA124000091AY121021AY221021GA1041+004801061GA2061+024001041GE19AGL   +99999+99999GF106991041999004801999999MA1999999101591MW1051REMSYN08841941 31440 60000 10137 20140 30159 40165 70522 85420 333 56990 59024 70000 84616 86458=EQDQ0114.0  2ATOD  
0183419410999992015012303004+23267+090700FM-12+000799999V0209999C000019999999N006000199+01771+01701101851ADDAA124000091AY121021AY201021GF100995999999999999999999KA1240N+01291MA1999999101791MD1999999-0231MW1051REMSYN07041941 31956 00000 10177 20170 30179 40185 70520 333 20129 59023 70000=
0136419410999992015012306004+23267+090700FM-12+000799999V0209999C000019999999N007000199+02421+01701101631ADDAA124000091GF100995999999999999999999MA1999999101571MD1999999-0311REMSYN05841941 32957 00000 10242 20170 30157 40163 333 59031 70000=
0136419410999992015012309004+23267+090700FM-12+000799999V0209999C000019999999N006000199+02621+01501101311ADDAA124000091GF100995999999999999999999MA1999999101261MD1999999-0291REMSYN05841941 32956 00000 10262 20150 30126 40131 333 59029 70000=
0247419410999992015012312004+23267+090700FM-12+000799999V0209999C000010240019N005000199+02221+01601101401ADDAA124000091AY121021AY221021GA1041+004801061GA2061+024001041GE19AGL   +99999+99999GF106991041999004801999999KA1240M+02681MA1999999101351MW1051REMSYN09441941 31450 60000 10222 20160 30135 40140 70522 85420 333 10268 56990 59030 70000 84616 86458=
0164419410999992015012315004+23267+090700FM-12+000799999V0209999C000019999999N004000199+01781+01601101581ADDAA124000091AY121021AY201021GF100995999999999999999999MA1999999101531MD1999999-0171MW1051REMSYN06441941 31940 00000 10178 20160 30153 40158 70520 333 59017 70000=
0164419410999992015012318004+23267+090700FM-12+000799999V0209999C000019999999N004000199+01671+01601101721ADDAA124000091AY101021AY201021GF100995999999999999999999MA1999999101661MD1999999-0071MW1051REMSYN06441941 31940 00000 10167 20160 30166 40172 70500 333 59007 70000=
0164419410999992015012321004+23267+090700FM-12+000799999V0209999C000019999999N004000199+01521+01301101781ADDAA124000091AY101021AY201021GF100995999999999999999999MA1999999101721MD1999999-0141MW1051REMSYN06441941 31940 00000 10152 20130 30172 40178 70500 333 59014 70000=
0228419410999992015012400004+23267+090700FM-12+000799999V0209999C000010240019N004000199+01421+01301101791ADDAA124000091AY121021AY221021GA1041+004801061GA2061+024001041GE19AGL   +99999+99999GF106991041999004801999999MA1999999101731MW1051REMSYN08841941 31440 60000 10142 20130 30173 40179 70522 85420 333 56990 58014 70000 84616 86458=
0183419410999992015012403004+23267+090700FM-12+000799999V0209999C000019999999N006000199+01821+01501101891ADDAA124000091AY121021AY201021GF100995999999999999999999KA1240N+01341MA1999999101831MD1999999+0041MW1051REMSYN07041941 31956 00000 10182 20150 30183 40189 70520 333 20134 58004 70000=
0136419410999992015012406004+23267+090700FM-12+000799999V0203601N001019999999N007000199+02421+01301101811ADDAA124000091GF100995999999999999999999MA1999999101751MD1999999+0181REMSYN05841941 32957 03602 10242 20130 30175 40181 333 58018 70000=
0136419410999992015012409004+23267+090700FM-12+000799999V0209999C000019999999N006000199+02621+01401101371ADDAA124000091GF100995999999999999999999MA1999999101311MD1999999+0061REMSYN05841941 32956 00000 10262 20140 30131 40137 333 58006 70000=
0183419410999992015012412004+23267+090700FM-12+000799999V0209999C000019999999N005000199+02161+01801101461ADDAA124000091AY101021AY201021GF100995999999999999999999KA1240M+02721MA1999999101401MD1999999+0061MW1051REMSYN07041941 31950 00000 10216 20180 30140 40146 70500 333 10272 58006 70000=
0164419410999992015012415004+23267+090700FM-12+000799999V0209999C000019999999N004000199+01781+01701101581ADDAA124000091AY101021AY201021GF100995999999999999999999MA1999999101531MD1999999+0001MW1051REMSYN06441941 31940 00000 10178 20170 30153 40158 70500 333 58000 70000=
0164419410999992015012418004+23267+090700FM-12+000799999V0209999C000019999999N004000199+01721+01601101681ADDAA124000091AY101021AY201021GF100995999999999999999999MA1999999101631MD1999999-0041MW1051REMSYN06441941 31940 00000 10172 20160 30163 40168 70500 333 59004 70000=
0164419410999992015012421004+23267+090700FM-12+000799999V0209999C000019999999N004000199+01481+01401101701ADDAA124000091AY101021AY201021GF100995999999999999999999MA1999999101651MD1999999-0081MW1051REMSYN06441941 31940 00000 10148 20140 30165 40170 70500 333 59008 70000=
0164419410999992015012500004+23267+090700FM-12+000799999V0209999C000019999999N004000199+01441+01401101721ADDAA124000091AY101021AY201021GF100995999999999999999999MA1999999101671MD1999999-0071MW1051REMSYN06441941 31940 00000 10144 20140 30167 40172 70500 333 59007 70000=
0155419410999992015012503004+23267+090700FM-12+000799999V0203601N001019999999N006000199+01841+01601101901ADDAA124000091GF100995999999999999999999KA1240N+01361MA1999999101841MD1999999+0011REMSYN06441941 32956 03602 10184 20160 30184 40190 333 20136 58001 70000=
0136419410999992015012506004+23267+090700FM-12+000799999V0209999C000019999999N006000199+02471+01601101901ADDAA124000091GF100995999999999999999999MA1999999101841MD1999999+0091REMSYN05841941 32956 00000 10247 20160 30184 40190 333 58009 70000=
0136419410999992015012509004+23267+090700FM-12+000799999V0209999C000019999999N006000199+02521+01501101581ADDAA124000091GF100995999999999999999999MA1999999101521MD1999999+0211REMSYN05841941 32956 00000 10252 20150 30152 40158 333 58021 70000=
0155419410999992015012512004+23267+090700FM-12+000799999V0209999C000019999999N005000199+02171+01701101541ADDAA124000091GF100995999999999999999999KA1240M+02621MA1999999101481MD1999999+0081REMSYN06441941 32950 00000 10217 20170 30148 40154 333 10262 58008 70000=
0164419410999992015012515004+23267+090700FM-12+000799999V0209999C000019999999N004000199+01741+01601101741ADDAA124000091AY101021AY201021GF100995999999999999999999MA1999999101691MD1999999+0161MW1051REMSYN06441941 31940 00000 10174 20160 30169 40174 70500 333 58016 70000=
0164419410999992015012521004+23267+090700FM-12+000799999V0209999C000019999999N004000199+01401+01301101681ADDAA124000091AY101021AY201021GF100995999999999999999999MA1999999101631MD1999999-0021MW1051REMSYN06441941 31940 00000 10140 20130 30163 40168 70500 333 59002 70000=
0164419410999992015012600004+23267+090700FM-12+000799999V0209999C000019999999N004000199+01371+01371101661ADDAA124000091AY101021AY201021GF100995999999999999999999MA1999999101611MD1999999-0061MW1051REMSYN06441941 31940 00000 10137 20137 30161 40166 70500 333 59006 70000=
0155419410999992015012603004+23267+090700FM-12+000799999V0209999C000019999999N006000199+01821+01401101821ADDAA124000091GF100995999999999999999999KA1240N+01311MA1999999101761MD1999999-0081REMSYN06441941 32956 00000 10182 20140 30176 40182 333 20131 59008 70000=
0136419410999992015012606004+23267+090700FM-12+000799999V0203601N001019999999N006000199+02441+01301101841ADDAA124000091GF100995999999999999999999MA1999999101781MD1999999-0061REMSYN05841941 32956 03602 10244 20130 30178 40184 333 59006 70000=
0136419410999992015012609004+23267+090700FM-12+000799999V0203601N001519999999N007000199+02621+01301101591ADDAA124000091GF100995999999999999999999MA1999999101531MD1999999+0011REMSYN05841941 32957 03603 10262 20130 30153 40159 333 58001 70000=
0183419410999992015012612004+23267+090700FM-12+000799999V0209999C000019999999N005000199+02121+01301101441ADDAA124000091AY101021AY201021GF100995999999999999999999KA1240M+02651MA1999999101381MD1999999-0101MW1051REMSYN07041941 31950 00000 10212 20130 30138 40144 70500 333 10265 59010 70000=
0164419410999992015012615004+23267+090700FM-12+000799999V0209999C000019999999N005000199+01871+01501101651ADDAA124000091AY101021AY201021GF100995999999999999999999MA1999999101591MD1999999-0091MW1051REMSYN06441941 31950 00000 10187 20150 30159 40165 70500 333 59009 70000=
0164419410999992015012621004+23267+090700FM-12+000799999V0209999C000019999999N004000199+01821+01601101691ADDAA124000091AY101021AY201021GF100995999999999999999999MA1999999101631MD1999999-0091MW1051REMSYN06441941 31940 00000 10182 20160 30163 40169 70500 333 59009 70000=
0164419410999992015012700004+23267+090700FM-12+000799999V0209999C000019999999N004000199+01621+01501101591ADDAA124000091AY101021AY201021GF100995999999999999999999MA1999999101531MD1999999-0071MW1051REMSYN06441941 31940 00000 10162 20150 30153 40159 70500 333 59007 70000=
0183419410999992015012703004+23267+090700FM-12+000799999V0209999C000019999999N005000199+01921+01601101721ADDAA124000091AY101021AY201021GF100995999999999999999999KA1240N+01451MA1999999101671MD1999999-0101MW1051REMSYN07041941 31950 00000 10192 20160 30167 40172 70500 333 20145 59010 70000=
0136419410999992015012706004+23267+090700FM-12+000799999V0209999C000019999999N007000199+02471+01701101651ADDAA124000091GF100995999999999999999999MA1999999101601MD1999999-0191REMSYN05841941 32957 00000 10247 20170 30160 40165 333 59019 70000=
0136419410999992015012709004+23267+090700FM-12+000799999V0203601N001519999999N007000199+02601+01601101331ADDAA124000091GF100995999999999999999999MA1999999101271MD1999999-0261REMSYN05841941 32957 03603 10260 20160 30127 40133 333 59026 70000=
0155419410999992015012712004+23267+090700FM-12+000799999V0209999C000019999999N005000199+02251+01501101311ADDAA124000091GF100995999999999999999999KA1240M+02701MA1999999101251MD1999999-0131REMSYN06441941 32950 00000 10225 20150 30125 40131 333 10270 59013 70000=
0136419410999992015012715004+23267+090700FM-12+000799999V0209999C000019999999N005000199+02041+01701101471ADDAA124000091GF100995999999999999999999MA1999999101411MD1999999-0181REMSYN05841941 32950 00000 10204 20170 30141 40147 333 59018 70000=
0136419410999992015012718004+23267+090700FM-12+000799999V0209999C000019999999N005000199+01831+01601101531ADDAA124000091GF100995999999999999999999MA1999999101471MD1999999-0161REMSYN05841941 32950 00000 10183 20160 30147 40153 333 59016 70000=
0164419410999992015012721004+23267+090700FM-12+000799999V0209999C000019999999N004000199+01771+01601101461ADDAA124000091AY101021AY201021GF100995999999999999999999MA1999999101401MD1999999-0181MW1051REMSYN06441941 31940 00000 10177 20160 30140 40146 70500 333 59018 70000=
0164419410999992015012800004+23267+090700FM-12+000799999V0209999C000019999999N004000199+01651+01501101391ADDAA124000091AY101021AY201021GF100995999999999999999999MA1999999101341MD1999999-0191MW1051REMSYN06441941 31940 00000 10165 20150 30134 40139 70500 333 59019 70000=
0155419410999992015012803004+23267+090700FM-12+000799999V0203601N001019999999N006000199+02001+01801101621ADDAA124000091GF100995999999999999999999KA1240N+01521MA1999999101561MD1999999-0111REMSYN06441941 32956 03602 10200 20180 30156 40162 333 20152 59011 70000=
0136419410999992015012806004+23267+090700FM-12+000799999V0203601N002119999999N007000199+02571+01601101541ADDAA124000091GF100995999999999999999999MA1999999101481MD1999999-0121REMSYN05841941 32957 03604 10257 20160 30148 40154 333 59012 70000=
0136419410999992015012809004+23267+090700FM-12+000799999V0203601N001019999999N007000199+02661+01701101281ADDAA124000091GF100995999999999999999999MA1999999101221MD1999999-0051REMSYN05841941 32957 03602 10266 20170 30122 40128 333 59005 70000=
0155419410999992015012812004+23267+090700FM-12+000799999V0209999C000019999999N006000199+02171+01801101301ADDAA124000091GF100995999999999999999999KA1240M+02721MA1999999101241MD1999999-0011REMSYN06441941 32956 00000 10217 20180 30124 40130 333 10272 59001 70000=
0136419410999992015012815004+23267+090700FM-12+000799999V0209999C000019999999N005000199+01921+01601101351ADDAA124000091GF100995999999999999999999MA1999999101291MD1999999-0121REMSYN05841941 32950 00000 10192 20160 30129 40135 333 59012 70000=
0164419410999992015012821004+23267+090700FM-12+000799999V0209999C000019999999N004000199+01681+01601101421ADDAA124000091AY101021AY201021GF100995999999999999999999MA1999999101361MD1999999-0041MW1051REMSYN06441941 31940 00000 10168 20160 30136 40142 70500 333 59004 70000=
0164419410999992015012900004+23267+090700FM-12+000799999V0209999C000019999999N004000199+01691+01601101441ADDAA124000091AY101021AY201021GF100995999999999999999999MA1999999101391MD1999999+0051MW1051REMSYN06441941 31940 00000 10169 20160 30139 40144 70500 333 58005 70000=
0136419410999992015012906004+23267+090700FM-12+000799999V0203601N002119999999N007000199+02601+01701101601ADDAA124000091GF100995999999999999999999MA1999999101541MD1999999+0061REMSYN05841941 32957 03604 10260 20170 30154 40160 333 58006 70000=
0136419410999992015012909004+23267+090700FM-12+000799999V0203601N002119999999N007000199+02701+01801101341ADDAA124000091GF100995999999999999999999MA1999999101291MD1999999+0071REMSYN05841941 32957 03604 10270 20180 30129 40134 333 58007 70000=
0155419410999992015012912004+23267+090700FM-12+000799999V0203601N001019999999N006000199+02351+01701101401ADDAA124000091GF100995999999999999999999KA1240M+02751MA1999999101341MD1999999+0101REMSYN06441941 32956 03602 10235 20170 30134 40140 333 10275 58010 70000=
0219419410999992015012915004+23267+090700FM-12+000799999V0203601N01031999999CN005000199+02021+01601101651ADDAA124000091GA1021+004501061GA2041+024001041GE19AGL   +99999+99999GF104991021999004501999999MA1999999101591REMSYN08241941 32450 43620 10202 20160 30159 40165 82520 333 56990 58030 70000 82615 84458=EQDQ01 024003SCOCIG
0194419410999992015012918004+23267+090700FM-12+000799999V0209999C000019999999N005000199+01821+01601101571ADDAA124000091GA1011+004801061GA2999+999999031GE19AGL   +99999+99999GF101991011999004801999999MA1999999101511REMSYN07641941 32450 10000 10182 20160 30151 40157 81530 333 56900 58150 70000 81616=
0206419410999992015012921004+23267+090700FM-12+000799999V0209999C000019999999N004000199+01681+01601101491ADDAA124000091AY121021AY221021GA1041+004201061GE19AGL   +99999+99999GF104991041999004201999999MA1999999101431MW1051REMSYN08241941 31440 40000 10168 20160 30143 40149 70522 84500 333 56900 58007 70000 84614=
0206419410999992015013000004+23267+090700FM-12+000799999V0209999C000019999999N002000199+01681+01601101531ADDAA124000091AY101021AY201021GA1031+036001031GE19AGL   +99999+99999GF103991031999036001999999MA1999999101511MW1101REMSYN08241941 31920 30000 10168 20160 30151 40153 71000 83030 333 56090 58012 70000 83362=
0247419410999992015013003004+23267+090700FM-12+000799999V0203601N002110240019N005000199+01871+01701101801ADDAA124000091AY121021AY221021GA1041+004201061GA2071+024001041GE19AGL   +99999+99999GF107991041999004201999999KA1240N+01581MA1999999101741MW1051REMSYN09441941 31450 73604 10187 20170 30174 40180 70522 84520 333 20158 56990 58017 70000 84614 87458=
0200419410999992015013006004+23267+090700FM-12+000799999V0203601N003110240019N006000199+02251+01801101771ADDAA124000091GA1041+004201061GA2051+024001041GE19AGL   +99999+99999GF106991041999004201999999MA1999999101721REMSYN08241941 32456 63606 10225 20180 30172 40177 85420 333 56990 58018 70000 84614 85458=
0188419410999992015013009004+23267+090700FM-12+000799999V0203601N001019999999N006000199+02171+01901101471ADDAA124000091GA1051+999999061GA2999+999999051GE19AGL   +99999+99999GF106991051999999999999999MA1999999101411REMSYN07041941 32956 63602 10217 20190 30141 40147 85420 333 56990 58013 70000=
0219419410999992015013012004+23267+090700FM-12+000799999V0203601N001010240019N006000199+02081+01801101331ADDAA124000091GA1041+004501061GA2061+024001041GE19AGL   +99999+99999GF106991041999004501999999KA1240M+02341MA1999999101271REMSYN08841941 32456 63602 10208 20180 30127 40133 84420 333 10234 56990 59007 70000 84615 86458=
0228419410999992015013015004+23267+090700FM-12+000799999V0209999C000010240019N005000199+01741+01601101541ADDAA124000091AY121021AY221021GA1031+004501061GA2061+024001041GE19AGL   +99999+99999GF106991031999004501999999MA1999999101481MW1051REMSYN08841941 31450 60000 10174 20160 30148 40154 70522 84420 333 56990 59011 70000 83615 86458=
0228419410999992015013018004+23267+090700FM-12+000799999V0209999C000010240019N004000199+01681+01601101591ADDAA124000091AY121021AY221021GA1031+004501061GA2061+024001041GE19AGL   +99999+99999GF106991031999004501999999MA1999999101531MW1051REMSYN08841941 31440 60000 10168 20160 30153 40159 70522 84420 333 56990 58002 70000 83615 86458=
0164419410999992015013021004+23267+090700FM-12+000799999V0209999C000019999999N004000199+01541+01201101651ADDAA124000091AY121021AY201021GF100995999999999999999999MA1999999101601MD1999999+0161MW1051REMSYN06441941 31940 00000 10154 20120 30160 40165 70520 333 58016 70000=
0164419410999992015013100004+23267+090700FM-12+000799999V0209999C000019999999N004000199+01421+01201101691ADDAA124000091AY101021AY201021GF100995999999999999999999MA1999999101641MD1999999+0201MW1051REMSYN06441941 31940 00000 10142 20120 30164 40169 70500 333 58020 70000=
0155419410999992015013103004+23267+090700FM-12+000799999V0203601N001019999999N006000199+01661+01401101811ADDAA124000091GF100995999999999999999999KA1240N+01311MA1999999101751MD1999999+0011REMSYN06441941 32956 03602 10166 20140 30175 40181 333 20131 58001 70000=
0136419410999992015013106004+23267+090700FM-12+000799999V0203601N001019999999N006000199+02071+01501101901ADDAA124000091GF100995999999999999999999MA1999999101851MD1999999+0131REMSYN05841941 32956 03602 10207 20150 30185 40190 333 58013 70000=
0136419410999992015013109004+23267+090700FM-12+000799999V0203601N001019999999N006000199+02321+01401101561ADDAA124000091GF100995999999999999999999MA1999999101511MD1999999+0091REMSYN05841941 32956 03602 10232 20140 30151 40156 333 58009 70000=
0155419410999992015013112004+23267+090700FM-12+000799999V0203601N001019999999N006000199+02041+01401101601ADDAA124000091GF100995999999999999999999KA1240M+02371MA1999999101551MD1999999+0271REMSYN06441941 32956 03602 10204 20140 30155 40160 333 10237 58027 70000=
0164419410999992015013115004+23267+090700FM-12+000799999V0209999C000019999999N005000199+01671+01501101671ADDAA124000091AY101021AY201021GF100995999999999999999999MA1999999101621MD1999999+0131MW1051REMSYN06441941 31950 00000 10167 20150 30162 40167 70500 333 58013 70000=
0164419410999992015013121004+23267+090700FM-12+000799999V0209999C000019999999N004000199+01361+01001101711ADDAA124000091AY101021AY201021GF100995999999999999999999MA1999999101651MD1999999+0061MW1051REMSYN06441941 31940 00000 10136 20100 30165 40171 70500 333 58006 70000=
0164419410999992015020100004+23267+090700FM-12+000799999V0209999C000019999999N004000199+01221+01101101951ADDAA124000091AY101021AY201021GF100995999999999999999999MA1999999101531MD1999999-0101MW1051REMSYN06441941 31940 00000 10122 20110 30153 40195 70500 333 59010 70000=
0098419410999992015020103004+23267+090700FM-12+000799999V0203601N001019999999N006000199+01661+01301999999ADDGF100995999999999999999999REMSYN06041941 32956 03602 10166 20130 20116 30168 40174 59007 70000=
0136419410999992015020106004+23267+090700FM-12+000799999V0203601N001519999999N006000199+02141+01101101701ADDAA124000091GF100995999999999999999999MA1999999101641MD1999999-0201REMSYN05841941 32956 03603 10214 20110 30164 40170 333 59020 70000=
0136419410999992015020109004+23267+090700FM-12+000799999V0203601N001019999999N006000199+02321+01101101391ADDAA124000091GF100995999999999999999999MA1999999101641MD1999999-0171REMSYN05841941 32956 03602 10232 20110 30164 40139 333 59017 70000=
0155419410999992015020112004+23267+090700FM-12+000799999V0203601N001019999999N006000199+02021+01301101471ADDAA124000091GF100995999999999999999999KA1240M+02381MA1999999101421MD1999999-0131REMSYN06441941 32956 03602 10202 20130 30142 40147 333 10238 59013 70000=
0136419410999992015020115004+23267+090700FM-12+000799999V0209999C000019999999N005000199+01641+01301101701ADDAA124000091GF100995999999999999999999MA1999999101641MD1999999+0031REMSYN05841941 32950 00000 10164 20130 30164 40170 333 58003 70000=
0164419410999992015020118004+23267+090700FM-12+000799999V0209999C000019999999N004000199+01541+01301101781ADDAA124000091AY101021AY201021GF100995999999999999999999MA1999999101731MD1999999+0001MW1051REMSYN06441941 31940 00000 10154 20130 30173 40178 70500 333 58000 70000=
0164419410999992015020121004+23267+090700FM-12+000799999V0209999C000019999999N004000199+01361+01101101661ADDAA124000091AY101021AY201021GF100995999999999999999999MA1999999101611MD1999999-0051MW1051REMSYN06441941 31940 00000 10136 20110 30161 40166 70500 333 59005 70000=
0164419410999992015020200004+23267+090700FM-12+000799999V0209999C000019999999N004000199+01141+01001101591ADDAA124000091AY101021AY201021GF100995999999999999999999MA1999999101541MD1999999+0001MW1051REMSYN06441941 31940 00000 10114 20100 30154 40159 70500 333 58000 70000=
0155419410999992015020203004+23267+090700FM-12+000799999V0203601N001019999999N006000199+01761+01401101881ADDAA124000091GF100995999999999999999999KA1240N+01111MA1999999101821MD1999999+0141REMSYN06441941 32956 03602 10176 20140 30182 40188 333 20111 58014 70000=
0136419410999992015020206004+23267+090700FM-12+000799999V0203601N001019999999N006000199+02371+01601101881ADDAA124000091GF100995999999999999999999MA1999999101831MD1999999+0181REMSYN05841941 32956 03602 10237 20160 30183 40188 333 58018 70000=
0136419410999992015020209004+23267+090700FM-12+000799999V0209999C000019999999N007000199+02621+01301101601ADDAA124000091GF100995999999999999999999MA1999999101551MD1999999+0211REMSYN05841941 32957 00000 10262 20130 30155 40160 333 58021 70000=
0155419410999992015020212004+23267+090700FM-12+000799999V0209999C000019999999N006000199+02171+01601101711ADDAA124000091GF100995999999999999999999KA1240M+02671MA1999999101661MD1999999+0241REMSYN06441941 32956 00000 10217 20160 30166 40171 333 10267 58024 70000=
0164419410999992015020215004+23267+090700FM-12+000799999V0209999C000019999999N004000199+01771+01601101981ADDAA124000091AY101021AY201021GF100995999999999999999999MA1999999101921MD1999999+0281MW1051REMSYN06441941 31940 00000 10177 20160 30192 40198 70500 333 58028 70000=
0164419410999992015020218004+23267+090700FM-12+000799999V0209999C000019999999N004000199+01621+01401101831ADDAA124000091AY101021AY201021GF100995999999999999999999MA1999999101781MD1999999+0051MW1051REMSYN06441941 31940 00000 10162 20140 30178 40183 70500 333 58005 70000=
0164419410999992015020221004+23267+090700FM-12+000799999V0209999C000019999999N004000199+01521+01301101751ADDAA124000091AY101021AY201021GF100995999999999999999999MA1999999101691MD1999999+0091MW1051REMSYN06441941 31940 00000 10152 20130 30169 40175 70500 333 58009 70000=
0164419410999992015020300004+23267+090700FM-12+000799999V0209999C000019999999N004000199+01401+01301101991ADDAA124000091AY101021AY201021GF100995999999999999999999MA1999999101931MD1999999+0401MW1051REMSYN06441941 31940 00000 10140 20130 30193 40199 70500 333 58040 70000=
0155419410999992015020303004+23267+090700FM-12+000799999V0203601N001019999999N006000199+02021+01401102141ADDAA124000091GF100995999999999999999999KA1240N+01311MA1999999102081MD1999999+0261REMSYN06441941 32956 03602 10202 20140 30208 40214 333 20131 58026 70000=
0136419410999992015020306004+23267+090700FM-12+000799999V0209999C000019999999N007000199+02621+01501102111ADDAA124000091GF100995999999999999999999MA1999999102051MD1999999+0231REMSYN05841941 32957 00000 10262 20150 30205 40211 333 58023 70000=
0136419410999992015020309004+23267+090700FM-12+000799999V0209999C000019999999N007000199+02821+01501101891ADDAA124000091GF100995999999999999999999MA1999999101841MD1999999+0291REMSYN05841941 32957 00000 10282 20150 30184 40189 333 58029 70000=
0155419410999992015020312004+23267+090700FM-12+000799999V0209999C000019999999N005000199+02321+01701101871ADDAA124000091GF100995999999999999999999KA1240M+02871MA1999999101821MD1999999+0161REMSYN06441941 32950 00000 10232 20170 30182 40187 333 10287 58016 70000=
0164419410999992015020315004+23267+090700FM-12+000799999V0209999C000019999999N004000199+01921+01501101971ADDAA124000091AY101021AY201021GF100995999999999999999999MA1999999101911MD1999999-0011MW1051REMSYN06441941 31940 00000 10192 20150 30191 40197 70500 333 59001 70000=
0164419410999992015020318004+23267+090700FM-12+000799999V0209999C000019999999N004000199+01571+01401101911ADDAA124000091AY101021AY201021GF100995999999999999999999MA1999999101851MD1999999+0081MW1051REMSYN06441941 31940 00000 10157 20140 30185 40191 70500 333 58008 70000=
0164419410999992015020321004+23267+090700FM-12+000799999V0209999C000019999999N004000199+01521+01301101831ADDAA124000091AY101021AY201021GF100995999999999999999999MA1999999101771MD1999999+0081MW1051REMSYN06441941 31940 00000 10152 20130 30177 40183 70500 333 58008 70000=
0164419410999992015020400004+23267+090700FM-12+000799999V0209999C000019999999N004000199+01471+01401101901ADDAA124000091AY101021AY201021GF100995999999999999999999MA1999999101841MD1999999-0091MW1051REMSYN06441941 31940 00000 10147 20140 30184 40190 70500 333 59009 70000=
0155419410999992015020403004+23267+090700FM-12+000799999V0209999C000019999999N006000199+01971+01801101931ADDAA124000091GF100995999999999999999999KA1240N+01361MA1999999101871MD1999999-0211REMSYN06441941 32956 00000 10197 20180 30187 40193 333 20136 59021 70000=
0136419410999992015020406004+23267+090700FM-12+000799999V0209999C000019999999N006000199+02621+01701101971ADDAA124000091GF100995999999999999999999MA1999999101911MD1999999-0141REMSYN05841941 32956 00000 10262 20170 30191 40197 333 59014 70000=
0136419410999992015020409004+23267+090700FM-12+000799999V0209999C000019999999N006000199+02901+01601101711ADDAA124000091GF100995999999999999999999MA1999999101651MD1999999-0181REMSYN05841941 32956 00000 10290 20160 30165 40171 333 59018 70000=
0183419410999992015020412004+23267+090700FM-12+000799999V0209999C000019999999N005000199+02421+01901101671ADDAA124000091AY101021AY201021GF100995999999999999999999KA1240M+02951MA1999999101611MD1999999-0201MW1051REMSYN07041941 31950 00000 10242 20190 30161 40167 70500 333 10295 59020 70000=
0164419410999992015020415004+23267+090700FM-12+000799999V0209999C000019999999N005000199+01921+01701101881ADDAA124000091AY101021AY201021GF100995999999999999999999MA1999999101821MD1999999-0091MW1051REMSYN06441941 31950 00000 10192 20170 30182 40188 70500 333 59009 70000=
0164419410999992015020421004+23267+090700FM-12+000799999V0209999C000019999999N004000199+01721+01501101741ADDAA124000091AY101021AY201021GF100995999999999999999999MA1999999101681MD1999999-0091MW1051REMSYN06441941 31940 00000 10172 20150 30168 40174 70500 333 59009 70000=
0164419410999992015020500004+23267+090700FM-12+000799999V0209999C000019999999N004000199+01621+01501101831ADDAA124000091AY101021AY201021GF100995999999999999999999MA1999999101771MD1999999-0071MW1051REMSYN06441941 31940 00000 10162 20150 30177 40183 70500 333 59007 70000=
0183419410999992015020503004+23267+090700FM-12+000799999V0209999C000019999999N005000199+02221+01601101881ADDAA124000091AY101021AY201021GF100995999999999999999999KA1240N+01511MA1999999101821MD1999999-0051MW1051REMSYN07041941 31950 00000 10222 20160 30182 40188 70500 333 20151 59005 70000=
0200419410999992015020506004+23267+090700FM-12+000799999V0209999C000010240019N006000199+02671+01801101771ADDAA124000091GA1041+004801061GA2061+024001041GE19AGL   +99999+99999GF106991041999004801999999MA1999999101711REMSYN08241941 32456 60000 10267 20180 30171 40177 85420 333 56990 59020 70000 84616 86458=
0200419410999992015020509004+23267+090700FM-12+000799999V0209999C000010240019N007000199+02821+01801101471ADDAA124000091GA1041+004801061GA2061+024001041GE19AGL   +99999+99999GF106991041999004801999999MA1999999101411REMSYN08241941 32457 60000 10282 20180 30141 40147 85420 333 56990 59090 70000 84616 86458=
0205419410999992015020512004+23267+090700FM-12+000799999V0209999C000019999999N006000199+02421+02001101471ADDAA124000091GA1031+004501061GE19AGL   +99999+99999GF104991031999004501999999KA1240M+02901MA1999999101411MD1999999-0201REMSYN07641941 32456 40000 10242 20200 30141 40147 84400 333 10290 59020 70000 83615=
0172419410999992015020515004+23267+090700FM-12+000799999V0209999C000019999999N005000199+01981+01601101611ADDAA124000091GA1041+004501061GE19AGL   +99999+99999GF104991041999004501999999MA1999999101551REMSYN07041941 32450 40000 10198 20160 30155 40161 84400 333 56900 59027 70000=
0136419410999992015020521004+23267+090700FM-12+000799999V0209999C000019999999N005000199+01781+01601101621ADDAA124000091GF100995999999999999999999MA1999999101561MD1999999-0071REMSYN05841941 32950 00000 10178 20160 30156 40162 333 59007 70000=
0136419410999992015020600004+23267+090700FM-12+000799999V0209999C000019999999N005000199+01701+01601101621ADDAA124000091GF100995999999999999999999MA1999999101561MD1999999-0211REMSYN05841941 32950 00000 10170 20160 30156 40162 333 59021 70000=
0238419410999992015020603004+23267+090700FM-12+000799999V0203601N00261999999CN006000199+01981+01501101801ADDAA124000091GA1021+004801061GA2031+036001031GE19AGL   +99999+99999GF104991021999004801999999KA1240N+01581MA1999999101741REMSYN08841941 32456 43605 10198 20150 30174 40180 82530 333 20158 56990 59008 70000 82616 83362=EQDQ01 036003SCOCIG
0136419410999992015020606004+23267+090700FM-12+000799999V0203601N002619999999N007000199+02481+01501101791ADDAA124000091GF100995999999999999999999MA1999999101731MD1999999+0021REMSYN05841941 32957 03605 10248 20150 30173 40179 333 58002 70000=
0136419410999992015020609004+23267+090700FM-12+000799999V0203601N001019999999N006000199+02571+01601101481ADDAA124000091GF100995999999999999999999MA1999999101421MD1999999+0011REMSYN05841941 32956 03602 10257 20160 30142 40148 333 58001 70000=
0266419410999992015020612004+23267+090700FM-12+000799999V0209999C00001999999CN005000199+02271+01801101571ADDAA124000091AY121021AY221021GA1021+004801061GA2031+036001031GE19AGL   +99999+99999GF104991021999004801999999KA1240M+02621MA1999999101511MW1051REMSYN09441941 31450 40000 10227 20180 30151 40157 70522 82530 333 10262 56990 58010 70000 82616 83362=EQDQ01 036003SCOCIG
0247419410999992015020615004+23267+090700FM-12+000799999V0209999C00001999999CN004000199+01871+01801101781ADDAA124000091AY121021AY221021GA1021+004801061GA2031+036001031GE19AGL   +99999+99999GF104991021999004801999999MA1999999101721MW1051REMSYN08841941 31440 40000 10187 20180 30172 40178 70522 82520 333 56990 58017 70000 82616 83362=EQDQ01 036003SCOCIG
0164419410999992015020618004+23267+090700FM-12+000799999V0209999C000019999999N004000199+01821+01601101811ADDAA124000091AY121021AY201021GF100995999999999999999999MA1999999101731MD1999999+0111MW1051REMSYN06441941 31940 00000 10182 20160 30173 40181 70520 333 58011 70000=
0164419410999992015020621004+23267+090700FM-12+000799999V0209999C000019999999N004000199+01731+01601101621ADDAA124000091AY101021AY201021GF100995999999999999999999MA1999999101571MD1999999+0011MW1051REMSYN06441941 31940 00000 10173 20160 30157 40162 70500 333 58001 70000=
0247419410999992015020700004+23267+090700FM-12+000799999V0209999C00001999999CN004000199+01421+01401101701ADDAA124000091AY151021AY221021GA1021+004801061GA2031+036001031GE19AGL   +99999+99999GF104991021999004801999999MA1999999101651MW1001REMSYN08841941 31940 40000 10142 20140 30165 40170 70052 82530 333 56990 58008 70000 82616 83362=EQDQ01 036003SCOCIG
0155419410999992015020703004+23267+090700FM-12+000799999V0203601N001019999999N006000199+01821+01601101921ADDAA124000091GF100995999999999999999999KA1240N+01351MA1999999101861MD1999999+0121REMSYN06441941 32956 03602 10182 20160 30186 40192 333 20135 58012 70000=
0136419410999992015020706004+23267+090700FM-12+000799999V0203601N002619999999N006000199+02271+01401101721ADDAA124000091GF100995999999999999999999MA1999999101671MD1999999-0071REMSYN05841941 31956 03605 10227 20140 30167 40172 333 59007 70000=
0200419410999992015020709004+23267+090700FM-12+000799999V0203601N001010240019N008000199+02421+01401101331ADDAA124000091GA1031+005401061GA2061+024001041GE19AGL   +99999+99999GF106991031999005401999999MA1999999101271REMSYN08241941 32458 63602 10242 20140 30127 40133 84420 333 56990 59015 70000 83618 86458=
0219419410999992015020712004+23267+090700FM-12+000799999V0203601N001010240019N006000199+02181+01601101271ADDAA124000091GA1031+004501061GA2061+024001041GE19AGL   +99999+99999GF106991031999004501999999KA1240M+02541MA1999999101211REMSYN08841941 32456 63602 10218 20160 30121 40127 84420 333 10254 56990 58030 70000 83615 86458=
0200419410999992015020715004+23267+090700FM-12+000799999V0209999C000010240019N005000199+02041+01601101391ADDAA124000091GA1031+004501061GA2061+024001041GE19AGL   +99999+99999GF106991031999004501999999MA1999999101331REMSYN08241941 32450 60000 10204 20160 30133 40139 84420 333 56990 59039 70000 83615 86458=
0228419410999992015020718004+23267+090700FM-12+000799999V0209999C000010240019N004000199+01841+01601101471ADDAA124000091AY121021AY221021GA1031+004501061GA2061+024001041GE19AGL   +99999+99999GF106991031999004501999999MA1999999101411MW1051REMSYN08841941 31440 60000 10184 20160 30141 40147 70522 84420 333 56990 59034 70000 83615 86458=
0228419410999992015020721004+23267+090700FM-12+000799999V0209999C000010240019N004000199+01521+01301101411ADDAA124000091AY121021AY221021GA1031+004501061GA2061+024001041GE19AGL   +99999+99999GF106991031999004501999999MA1999999101351MW1051REMSYN08841941 31440 60000 10152 20130 30135 40141 70522 84420 333 56990 59022 70000 83615 86458=
0228419410999992015020800004+23267+090700FM-12+000799999V0209999C000010240019N004000199+01441+01301101401ADDAA124000091AY121021AY221021GA1031+004501061GA2061+024001041GE19AGL   +99999+99999GF106991031999004501999999MA1999999101341MW1051REMSYN08841941 31440 60000 10144 20130 30134 40140 70522 84420 333 56990 59030 70000 83615 86458=
0219419410999992015020803004+23267+090700FM-12+000799999V0209999C000010240019N006000199+01971+01801101671ADDAA124000091GA1031+004501061GA2061+024001041GE19AGL   +99999+99999GF106991031999004501999999KA1240N+01411MA1999999101621REMSYN08841941 32456 60000 10197 20180 30162 40167 84420 333 20141 56990 59025 70000 83615 86458=
0136419410999992015020806004+23267+090700FM-12+000799999V0203601N001019999999N006000199+02521+01601101681ADDAA124000091GF100995999999999999999999MA1999999101621MD1999999-0041REMSYN05841941 32956 03602 10252 20160 30162 40168 333 59004 70000=
0136419410999992015020809004+23267+090700FM-12+000799999V0203601N001019999999N006000199+02571+01701101421ADDAA124000091GF100995999999999999999999MA1999999101361MD1999999+0091REMSYN05841941 32956 03602 10257 20170 30136 40142 333 58009 70000=
0155419410999992015020812004+23267+090700FM-12+000799999V0209999C000019999999N006000199+02241+01801101351ADDAA124000091GF100995999999999999999999KA1240M+02641MA1999999101291MD1999999+0081REMSYN06441941 32956 00000 10224 20180 30129 40135 333 10264 58008 70000=
0164419410999992015020815004+23267+090700FM-12+000799999V0209999C000019999999N005000199+02041+01801101491ADDAA124000091AY101021AY201021GF100995999999999999999999MA1999999101431MD1999999+0101MW1051REMSYN06441941 31950 00000 10204 20180 30143 40149 70500 333 58010 70000=
0164419410999992015020818004+23267+090700FM-12+000799999V0209999C000019999999N004000199+01841+01701101541ADDAA124000091AY101021AY201021GF100995999999999999999999MA1999999101481MD1999999+0071MW1051REMSYN06441941 31940 00000 10184 20170 30148 40154 70500 333 58007 70000=
0164419410999992015020821004+23267+090700FM-12+000799999V0209999C000019999999N004000199+01571+01501101471ADDAA124000091AY101021AY201021GF100995999999999999999999MA1999999101421MD1999999+0061MW1051REMSYN06441941 31940 00000 10157 20150 30142 40147 70500 333 58006 70000=
0149419410999992015020900004+23267+090700FM-12+000799999V0209999C000019999999N004000199+01541+01401101441ADDAA124000091AY101021AY201021GF100995999999999999999999MD1999999+0041MW1051REMSYN06441941 31940 00000 10154 20140 31039 40144 70500 333 58004 70000=
0155419410999992015020903004+23267+090700FM-12+000799999V0209999C000019999999N006000199+01901+01701101741ADDAA124000091GF100995999999999999999999KA1240N+01451MA1999999101691MD1999999+0071REMSYN06441941 32956 00000 10190 20170 30169 40174 333 20145 58007 70000=
0136419410999992015020909004+23267+090700FM-12+000799999V0209999C000019999999N006000199+02761+01901101481ADDAA124000091GF100995999999999999999999MA1999999101421MD1999999+0061REMSYN05841941 32956 00000 10276 20190 30142 40148 333 58006 70000=
0183419410999992015020912004+23267+090700FM-12+000799999V0202701N001019999999N005000199+02371+01901101481ADDAA124000091AY101021AY201021GF100995999999999999999999KA1240M+02821MA1999999101421MD1999999+0131MW1051REMSYN07041941 31950 02702 10237 20190 30142 40148 70500 333 10282 58013 70000=
0164419410999992015020915004+23267+090700FM-12+000799999V0209999C000019999999N004000199+02021+01901101781ADDAA124000091AY101021AY201021GF100995999999999999999999MA1999999101721MD1999999+0291MW1051REMSYN06441941 31940 00000 10202 20190 30172 40178 70500 333 58029 70000=
0164419410999992015020918004+23267+090700FM-12+000799999V0209999C000019999999N004000199+01871+01701101811ADDAA124000091AY101021AY201021GF100995999999999999999999MA1999999101751MD1999999+0271MW1051REMSYN06441941 31940 00000 10187 20170 30175 40181 70500 333 58027 70000=
0164419410999992015020921004+23267+090700FM-12+000799999V0209999C000019999999N004000199+01771+01701101831ADDAA124000091AY101021AY201021GF100995999999999999999999MA1999999101771MD1999999+0361MW1051REMSYN06441941 31940 00000 10177 20170 30177 40183 70500 333 58036 70000=
0164419410999992015021000004+23267+090700FM-12+000799999V0209999C000019999999N004000199+01721+01601101861ADDAA124000091AY101021AY201021GF100995999999999999999999MA1999999101801MD1999999+0421MW1051REMSYN06441941 31940 00000 10172 20160 30180 40186 70500 333 58042 70000=
0155419410999992015021003004+23267+090700FM-12+000799999V0203601N001019999999N999999999+02071+01701101921ADDAA124000091GF100995999999999999999999KA1240N+01611MA1999999101871MD1999999+0181REMSYN06441941 32953 03602 10207 20170 30187 40192 333 20161 58018 70000=
0136419410999992015021009004+23267+090700FM-12+000799999V0203601N001019999999N006000199+02781+01901101641ADDAA124000091GF100995999999999999999999MA1999999101591MD1999999+0161REMSYN05841941 32956 03602 10278 20190 30159 40164 333 58016 70000=
0219419410999992015021012004+23267+090700FM-12+000799999V0209999C000010240019N005000199+02421+02001101561ADDAA124000091GA1031+004801061GA2061+024001041GE19AGL   +99999+99999GF106991031999004801999999KA1240M+02871MA1999999101501REMSYN08841941 32450 60000 10242 20200 30150 40156 84420 333 10287 56990 58008 70000 83616 86458=
0200419410999992015021015004+23267+090700FM-12+000799999V0209999C000010210019N004000199+02071+01901101681ADDAA124000091GA1031+004801061GA2061+021001041GE19AGL   +99999+99999GF106991031999004801999999MA1999999101621REMSYN08241941 32440 60000 10207 20190 30162 40168 84420 333 56990 59010 70000 83616 86457=
0228419410999992015021018004+23267+090700FM-12+000799999V0209999C000010240019N004000199+01921+01901101691ADDAA124000091AY121021AY221021GA1031+004801061GA2061+024001041GE19AGL   +99999+99999GF106991031999004801999999MA1999999101631MW1051REMSYN08841941 31440 60000 10192 20190 30163 40169 70522 84420 333 56990 59012 70000 83616 86458=
0247419410999992015021021004+23267+090700FM-12+000799999V0209999C000010240019N004000199+01871+99999101741ADDAA124000091AY121021AY221021GA1031+004801061GA2061+024001041GE19AGL   +99999+99999GF106991031999004801999999MA1999999101681MW1051REMSYN08841941 31440 60000 10187 20190 30168 40174 70522 84420 333 56990 59009 70000 83616 86458=EQDQ0119.0  2ATOD  
0228419410999992015021100004+23267+090700FM-12+000799999V0209999C000010540019N004000199+01771+01701101681ADDAA124000091AY121021AY221021GA1031+004801061GA2061+054001041GE19AGL   +99999+99999GF106991031999004801999999MA1999999101621MW1051REMSYN08841941 31440 60000 10177 20170 30162 40168 70522 84420 333 56990 59018 70000 83616 86468=
0219419410999992015021103004+23267+090700FM-12+000799999V0209999C000010240019N006000199+02021+01701101711ADDAA124000091GA1031+004801061GA2061+024001041GE19AGL   +99999+99999GF106991031999004801999999KA1240N+01611MA1999999101651REMSYN08841941 32456 60000 10202 20170 30165 40171 84420 333 20161 56990 59021 70000 83616 86458=
0200419410999992015021106004+23267+090700FM-12+000799999V0203601N001010210019N006000199+02571+01701101731ADDAA124000091GA1031+004501061GA2061+021001041GE19AGL   +99999+99999GF106991031999004501999999MA1999999101671REMSYN08241941 32456 63602 10257 20170 30167 40173 84420 333 56990 59023 70000 83615 86457=
0136419410999992015021109004+23267+090700FM-12+000799999V0203601N001519999999N007000199+02721+01601101451ADDAA124000091GF100995999999999999999999MA1999999101401MD1999999-0151REMSYN05841941 32957 03603 10272 20160 30140 40145 333 59015 70000=
0247419410999992015021112004+23267+090700FM-12+000799999V0209999C000010240019N005000199+02321+01801101371ADDAA124000091AY121021AY221021GA1041+004801061GA2061+024001041GE19AGL   +99999+99999GF106991041999004801999999KA1240M+02751MA1999999101311MW1051REMSYN09441941 31450 60000 10232 20180 30131 40137 70522 85420 333 10275 56990 59019 70000 84616 86458=
0228419410999992015021115004+23267+090700FM-12+000799999V0209999C000010240019N005000199+01871+01801101491ADDAA124000091AY121021AY221021GA1041+004801061GA2061+024001041GE19AGL   +99999+99999GF106991041999004801999999MA1999999101431MW1051REMSYN08841941 31450 60000 10187 20180 30143 40149 70522 85420 333 56900 59017 70000 84616 86458=
0164419410999992015021118004+23267+090700FM-12+000799999V0209999C000019999999N004000199+01821+01701101551ADDAA124000091AY101021AY201021GF100995999999999999999999MA1999999101491MD1999999-0141MW1051REMSYN06441941 31940 00000 10182 20170 30149 40155 70500 333 59014 70000=
0164419410999992015021121004+23267+090700FM-12+000799999V0209999C000019999999N004000199+01721+01601101651ADDAA124000091AY101021AY201021GF100995999999999999999999MA1999999101591MD1999999-0091MW1051REMSYN06441941 31940 00000 10172 20160 30159 40165 70500 333 59009 70000=
0228419410999992015021200004+23267+090700FM-12+000799999V0209999C000010240019N004000199+01521+01501101601ADDAA124000091AY121021AY201021GA1041+004801061GA2061+024001041GE19AGL   +99999+99999GF106991041999004801999999MA1999999101541MW1051REMSYN08841941 31440 60000 10152 20150 30154 40160 70520 85420 333 56990 59008 70000 84616 86458=
0183419410999992015021203004+23267+090700FM-12+000799999V0209999C000019999999N005000199+01921+01401101681ADDAA124000091AY121021AY201021GF100995999999999999999999KA1240N+01401MA1999999101621MD1999999-0031MW1051REMSYN07041941 31950 00000 10192 20140 30162 40168 70520 333 20140 59003 70000=
0136419410999992015021206004+23267+090700FM-12+000799999V0209999C000019999999N007000199+02571+01501101671ADDAA124000091GF100995999999999999999999MA1999999101611MD1999999-0061REMSYN05841941 32957 00000 10257 20150 30161 40167 333 59006 70000=
0136419410999992015021209004+23267+090700FM-12+000799999V0203601N002619999999N007000199+02671+01501101191ADDAA124000091GF100995999999999999999999MA1999999101131MD1999999-0271REMSYN05841941 32957 03605 10267 20150 30113 40119 333 59027 70000=
0136419410999992015021215004+23267+090700FM-12+000799999V0209999C000019999999N005000199+02021+01601101231ADDAA124000091GF100995999999999999999999MA1999999101171MD1999999-0261REMSYN05841941 32950 00000 10202 20160 30117 40123 333 59026 70000=
0136419410999992015021218004+23267+090700FM-12+000799999V0209999C000019999999N005000199+01801+01601101331ADDAA124000091GF100995999999999999999999MA1999999101271MD1999999-0221REMSYN05841941 32950 00000 10180 20160 30127 40133 333 59022 70000=
0164419410999992015021221004+23267+090700FM-12+000799999V0209999C000019999999N004000199+01671+01601101291ADDAA124000091AY101021AY201021GF100995999999999999999999MA1999999101231MD1999999-0361MW1051REMSYN06441941 31940 00000 10167 20160 30123 40129 70500 333 59036 70000=
0164419410999992015021300004+23267+090700FM-12+000799999V0209999C000019999999N004000199+01561+01501101221ADDAA124000091AY101021AY201021GF100995999999999999999999MA1999999101161MD1999999-0381MW1051REMSYN06441941 31940 00000 10156 20150 30116 40122 70500 333 59038 70000=
0155419410999992015021303004+23267+090700FM-12+000799999V0209999C000019999999N006000199+02081+01601101431ADDAA124000091GF100995999999999999999999KA1240N+01461MA1999999101381MD1999999-0241REMSYN06441941 32956 00000 10208 20160 30138 40143 333 20146 59024 70000=
0136419410999992015021306004+23267+090700FM-12+000799999V0203601N001519999999N007000199+02561+01601101401ADDAA124000091GF100995999999999999999999MA1999999101341MD1999999-0271REMSYN05841941 32957 03603 10256 20160 30134 40140 333 59027 70000=
0136419410999992015021309004+23267+090700FM-12+000799999V0203601N001519999999N007000199+02681+01501101061ADDAA124000091GF100995999999999999999999MA1999999101001MD1999999-0101REMSYN05841941 32957 03603 10268 20150 30100 40106 333 59010 70000=
0155419410999992015021312004+23267+090700FM-12+000799999V0209999C000019999999N006000199+02351+01701101021ADDAA124000091GF100995999999999999999999KA1240M+02761MA1999999100971MD1999999-0021REMSYN06441941 32956 00000 10235 20170 30097 40102 333 10276 59002 70000=
0136419410999992015021315004+23267+090700FM-12+000799999V0209999C000019999999N005000199+01881+01601101211ADDAA124000091GF100995999999999999999999MA1999999101151MD1999999-0021REMSYN05841941 32950 00000 10188 20160 30115 40121 333 59002 70000=
0136419410999992015021318004+23267+090700FM-12+000799999V0209999C000019999999N005000199+01761+01601101291ADDAA124000091GF100995999999999999999999MA1999999101231MD1999999-0021REMSYN05841941 32950 00000 10176 20160 30123 40129 333 59002 70000=
0164419410999992015021321004+23267+090700FM-12+000799999V0209999C000019999999N004000199+01631+01501101231ADDAA124000091AY101021AY201021GF100995999999999999999999MA1999999101181MD1999999-0051MW1051REMSYN06441941 31940 00000 10163 20150 30118 40123 70500 333 59005 70000=
0164419410999992015021400004+23267+090700FM-12+000799999V0209999C000019999999N004000199+01541+01401101221ADDAA124000091AY101021AY201021GF100995999999999999999999MA1999999101161MD1999999+0001MW1051REMSYN06441941 31940 00000 10154 20140 30116 40122 70500 333 58000 70000=
0155419410999992015021403004+23267+090700FM-12+000799999V0209999C000019999999N006000199+02101+01501101421ADDAA124000091GF100995999999999999999999KA1240N+01441MA1999999101371MD1999999-0011REMSYN06441941 32956 00000 10210 20150 30137 40142 333 20144 59001 70000=
0158419410999992015021406004+23267+090700FM-12+000799999V0202601N001019999999N007000199+02621+01301101301ADDAA124000091GE19AGL   +99999+99999GF103991999999999999999999MA1999999101251MD1999999-0091REMSYN05841941 32957 32602 10262 20130 30125 40130 333 59009 70000=
0136419410999992015021409004+23267+090700FM-12+000799999V0203601N001019999999N006000199+02801+01401101231ADDAA124000091GF100995999999999999999999MA1999999101181MD1999999+0181REMSYN05841941 32956 03602 10280 20140 30118 40123 333 58018 70000=
0155419410999992015021412004+23267+090700FM-12+000799999V0209999C000019999999N006000199+02321+01601101011ADDAA124000091GF100995999999999999999999KA1240M+02821MA1999999100951MD1999999-0011REMSYN06441941 32956 00000 10232 20160 30095 40101 333 10282 59001 70000=
0136419410999992015021415004+23267+090700FM-12+000799999V0209999C000019999999N005000199+01941+01701101231ADDAA124000091GF100995999999999999999999MA1999999101171MD1999999+0021REMSYN05841941 32950 00000 10194 20170 30117 40123 333 58002 70000=
0164419410999992015021418004+23267+090700FM-12+000799999V0209999C000019999999N004000199+01821+01701101271ADDAA124000091AY101021AY201021GF100995999999999999999999MA1999999101211MD1999999-0021MW1051REMSYN06441941 31940 00000 10182 20170 30121 40127 70500 333 59002 70000=
0164419410999992015021421004+23267+090700FM-12+000799999V0209999C000019999999N004000199+01741+01601101161ADDAA124000091AY101021AY201021GF100995999999999999999999MA1999999101101MD1999999-0071MW1051REMSYN06441941 31940 00000 10174 20160 30110 40116 70500 333 59007 70000=
0164419410999992015021500004+23267+090700FM-12+000799999V0209999C000019999999N004000199+01721+01601101041ADDAA124000091AY101021AY201021GF100995999999999999999999MA1999999100981MD1999999-0181MW1051REMSYN06441941 31940 00000 10172 20160 30098 40104 70500 333 59018 70000=
0155419410999992015021503004+23267+090700FM-12+000799999V0203601N001019999999N006000199+01741+01601101331ADDAA124000091GF100995999999999999999999KA1240N+01631MA1999999101271MD1999999-0091REMSYN06441941 32956 03602 10174 20160 30127 40133 333 20163 59009 70000=
0200419410999992015021506004+23267+090700FM-12+000799999V0203601N001010240019N006000199+02571+01701101371ADDAA124000091GA1031+004501061GA2061+024001041GE19AGL   +99999+99999GF106991031999004501999999MA1999999101311REMSYN08241941 32456 63602 10257 20170 30131 40137 84420 333 56990 58007 70000 83615 86458=
0200419410999992015021509004+23267+090700FM-12+000799999V0209999C000010240019N006000199+02721+01801101051ADDAA124000091GA1031+004501061GA2061+024001041GE19AGL   +99999+99999GF106991031999004501999999MA1999999101001REMSYN08241941 32456 60000 10272 20180 30100 40105 84420 333 56990 59018 70000 83615 86458=
0219419410999992015021512004+23267+090700FM-12+000799999V0209999C000010240019N006000199+02471+02001101091ADDAA124000091GA1031+004501061GA2061+024001041GE19AGL   +99999+99999GF106991031999004501999999KA1240M+02781MA1999999101041REMSYN08841941 32456 60000 10247 20200 30104 40109 84420 333 10278 56990 58008 70000 83615 86458=
0200419410999992015021515004+23267+090700FM-12+000799999V0209999C000010240019N005000199+02041+01901101271ADDAA124000091GA1031+004501061GA2061+024001041GE19AGL   +99999+99999GF106991031999004501999999MA1999999101211REMSYN08241941 32450 60000 10204 20190 30121 40127 84420 333 56990 58004 70000 83615 86458=
0136419410999992015021518004+23267+090700FM-12+000799999V0209999C000019999999N004000199+01921+01801101361ADDAA124000091GF100995999999999999999999MA1999999101301MD1999999+0091REMSYN05841941 32940 00000 10192 20180 30130 40136 333 58009 70000=
0164419410999992015021521004+23267+090700FM-12+000799999V0209999C000019999999N004000199+01761+01601101331ADDAA124000091AY101021AY201021GF100995999999999999999999MA1999999101271MD1999999+0171MW1051REMSYN06441941 31940 00000 10176 20160 30127 40133 70500 333 58017 70000=
0164419410999992015021600004+23267+090700FM-12+000799999V0209999C000019999999N004000199+01721+01501101321ADDAA124000091AY101021AY201021GF100995999999999999999999MA1999999101261MD1999999+0281MW1051REMSYN06441941 31940 00000 10172 20150 30126 40132 70500 333 58028 70000=
0155419410999992015021603004+23267+090700FM-12+000799999V0203601N001019999999N006000199+02041+01601101551ADDAA124000091GF100995999999999999999999KA1240N+01611MA1999999101491MD1999999+0221REMSYN06441941 32956 03602 10204 20160 30149 40155 333 20161 58022 70000=
0136419410999992015021606004+23267+090700FM-12+000799999V0209999C000019999999N006000199+02571+01501101541ADDAA124000091GF100995999999999999999999MA1999999101481MD1999999+0171REMSYN05841941 32956 00000 10257 20150 30148 40154 333 58017 70000=
0155419410999992015021612004+23267+090700FM-12+000799999V0209999C000019999999N006000199+02481+01601101211ADDAA124000091GF100995999999999999999999KA1240M+02921MA1999999101161MD1999999+0121REMSYN06441941 32956 00000 10248 20160 30116 40121 333 10292 58012 70000=
0164419410999992015021615004+23267+090700FM-12+000799999V0209999C000019999999N005000199+02121+01701101421ADDAA124000091AY101021AY201021GF100995999999999999999999MA1999999101391MD1999999+0051MW1051REMSYN06441941 32950 00000 10212 20170 30139 40142 70500 333 58005 70000=
0164419410999992015021618004+23267+090700FM-12+000799999V0209999C000019999999N004000199+01941+01901101441ADDAA124000091AY101021AY201021GF100995999999999999999999MA1999999101381MD1999999+0081MW1051REMSYN06441941 31940 00000 10194 20190 30138 40144 70500 333 58008 70000=
0164419410999992015021621004+23267+090700FM-12+000799999V0209999C000019999999N004000199+01801+01501101351ADDAA124000091AY101021AY201021GF100995999999999999999999MA1999999101291MD1999999+0021MW1051REMSYN06441941 31940 00000 10180 20150 30129 40135 70500 333 58002 70000=
0164419410999992015021700004+23267+090700FM-12+000799999V0209999C000019999999N004000199+01681+01601101231ADDAA124000091AY101021AY201021GF100995999999999999999999MA1999999101171MD1999999-0091MW1051REMSYN06441941 31940 00000 10168 20160 30117 40123 70500 333 59009 70000=
0155419410999992015021703004+23267+090700FM-12+000799999V0209999C000019999999N006000199+02141+01501101391ADDAA124000091GF100995999999999999999999KA1240N+01561MA1999999101331MD1999999-0161REMSYN06441941 32956 00000 10214 20150 30133 40139 333 20156 59016 70000=
0136419410999992015021706004+23267+090700FM-12+000799999V0209999C000019999999N006000199+02801+01601101291ADDAA124000091GF100995999999999999999999MA1999999101241MD1999999-0251REMSYN05841941 32956 00000 10280 20160 30124 40129 333 59025 70000=
0136419410999992015021709004+23267+090700FM-12+000799999V0209999C000019999999N007000199+02921+01701101111ADDAA124000091GF100995999999999999999999MA1999999101061MD1999999-0121REMSYN05841941 02957 00000 10292 20170 30106 40111 333 59012 70000=
0219419410999992015021712004+23267+090700FM-12+000799999V0209999C00001024001CN006000199+02481+01901101011ADDAA124000091GA1031+004501061GA2051+024001041GE19AGL   +99999+99999GF106991031999004501999999KA1240M+02981MA1999999100961REMSYN08841941 32456 60000 10248 20190 30096 40101 84420 333 10298 56990 59020 70000 83615 85458=
0178419410999992015021715004+23267+090700FM-12+000799999V0209999C000019999999N005000199+02201+01801101241ADDAA124000091GA1031+004501061GE19AGL   +99999+99999GF104991031999004501999999MA1999999101181REMSYN07641941 32450 40000 10220 20180 30118 40124 84400 333 56900 59011 70000 83615=
0178419410999992015021718004+23267+090700FM-12+000799999V0209999C000019999999N005000199+01751+01601101281ADDAA124000091GA1021+004501061GE19AGL   +99999+99999GF102991021999004501999999MA1999999101221REMSYN07641941 32450 20000 10175 20160 30122 40128 82500 333 56900 59016 70000 82615=
0178419410999992015021721004+23267+090700FM-12+000799999V0209999C000019999999N005000199+01751+01601101191ADDAA124000091GA1021+004501061GE19AGL   +99999+99999GF102991021999004501999999MA1999999101131REMSYN07641941 32450 20000 10175 20160 30113 40119 82500 333 56900 59016 70000 82615=
0164419410999992015021800004+23267+090700FM-12+000799999V0209999C000019999999N004000199+01641+01601101221ADDAA124000091AY101021AY201021GF100995999999999999999999MA1999999101161MD1999999-0011MW1051REMSYN06441941 31940 00000 10164 20160 30116 40122 70500 333 59001 70000=
0155419410999992015021803004+23267+090700FM-12+000799999V0209999C000019999999N006000199+02181+02101101371ADDAA124000091GF100995999999999999999999KA1240N+01641MA1999999101311MD1999999-0021REMSYN06441941 32956 00000 10218 20210 30131 40137 333 20164 59002 70000=
0178419410999992015021806004+23267+090700FM-12+000799999V0203601N001019999999N006000199+02801+02001101351ADDAA124000091GA1031+024001041GE19AGL   +99999+99999GF104991031999024001999999MA1999999101301REMSYN07641941 32956 43602 10280 20200 30130 40135 84070 333 56090 58006 70000 83458=
0136419410999992015021809004+23267+090700FM-12+000799999V0203601N001019999999N007000199+02921+02001101041ADDAA124000091GF100995999999999999999999MA1999999100981MD1999999-0081REMSYN05841941 32957 03602 10292 20200 30098 40104 333 59008 70000=
