0204483040999992015010100004+19867+099767FM-12+040199999V0209999C000019999999N010000199+01461+01351101881ADDGA1021+012501061GA2999+999999031GE19AGL   +99999+99999GF107991021999012501999999KA1120N+01401MA1999999097111MD1210161+0201REMSYN07048304 32660 70000 10146 20135 39711 40188 52016 82540 333 20140 58020=
0169483040999992015010103004+19867+099767FM-12+040199999V0209999C000019999999N015000199+02151+01551102041ADDGA1011+999999031GE19AGL   +99999+99999GF101991011999999999999999MA1999999097361MD1210251+0321REMSYN06448304 32965 10000 10215 20155 39736 40204 52025 81040 333 58032=
0125483040999992015010106004+19867+099767FM-12+040199999V0201201N004119999999N015000199+02461+01221101741ADDGF100995999999999999999999MA1999999097121MD1710241+0401REMSYN05848304 32965 01208 10246 20122 39712 40174 57024 333 58040=
0125483040999992015010109004+19867+099767FM-12+040199999V0200101N003619999999N015000199+02571+01301101521ADDGF100995999999999999999999MA1999999096931MD1710191+0341REMSYN05848304 32965 00107 10257 20130 39693 40152 57019 333 58034=
0144483040999992015010112004+19867+099767FM-12+040199999V0209999C000019999999N012000199+01911+01421101781ADDGF100995999999999999999999KA1240M+02601MA1999999097081MD1210141+0331REMSYN06448304 32962 00000 10191 20142 39708 40178 52014 333 10260 58033=
0125483040999992015010115004+19867+099767FM-12+040199999V0209999C000019999999N010000199+01521+01261102021ADDGF100995999999999999999999MA1999999097241MD1210171+0411REMSYN05848304 32960 00000 10152 20126 39724 40202 52017 333 58041=
0125483040999992015010118004+19867+099767FM-12+040199999V0209999C000019999999N010000199+01361+01231102061ADDGF100995999999999999999999MA1999999097261MD1110011+0351REMSYN05848304 32960 00000 10136 20123 39726 40206 51001 333 58035=
0153483040999992015010121004+19867+099767FM-12+040199999V0209999C000019999999N008000199+01231+01131101981ADDAY101021AY201021GF100995999999999999999999MA1999999097161MD1710091+0311MW1101REMSYN06448304 31958 00000 10123 20113 39716 40198 57009 71000 333 58031=
0172483040999992015010200004+19867+099767FM-12+040199999V0209999C000019999999N008000199+01081+01001102051ADDAY101021AY201021GF100995999999999999999999KA1120N+01021MA1999999097211MD1210051+0171MW1101REMSYN07048304 31958 00000 10108 20100 39721 40205 52005 71000 333 20102 58017=
0125483040999992015010203004+19867+099767FM-12+040199999V0209999C000019999999N015000199+01881+01391102141ADDGF100995999999999999999999MA1999999097421MD1210211+0111REMSYN05848304 32965 00000 10188 20139 39742 40214 52021 333 58011=
0125483040999992015010206004+19867+099767FM-12+040199999V0209999C000019999999N015000199+02411+01171101761ADDGF100995999999999999999999MA1999999097141MD1710291+0021REMSYN05848304 32965 00000 10241 20117 39714 40176 57029 333 58002=
0125483040999992015010209004+19867+099767FM-12+040199999V0209999C000019999999N015000199+02541+01101101461ADDGF100995999999999999999999MA1999999096871MD1710261-0061REMSYN05848304 32965 00000 10254 20110 39687 40146 57026 333 59006=
0144483040999992015010212004+19867+099767FM-12+040199999V0209999C000019999999N012000199+01861+01541101681ADDGF100995999999999999999999KA1240M+02611MA1999999096981MD1210101-0091REMSYN06448304 32962 00000 10186 20154 39698 40168 52010 333 10261 59009=
0125483040999992015010215004+19867+099767FM-12+040199999V0209999C000019999999N012000199+01361+01191101971ADDGF100995999999999999999999MA1999999097171MD1210191-0051REMSYN05848304 32962 00000 10136 20119 39717 40197 52019 333 59005=
0125483040999992015010218004+19867+099767FM-12+040199999V0209999C000019999999N010000199+01281+01201101961ADDGF100995999999999999999999MA1999999097151MD1710021-0101REMSYN05848304 32960 00000 10128 20120 39715 40196 57002 333 59010=
0153483040999992015010221004+19867+099767FM-12+040199999V0209999C000019999999N003000199+01171+01111101891ADDAY101021AY201021GF100995999999999999999999MA1999999097061MD1710091-0101MW1101REMSYN06448304 31930 00000 10117 20111 39706 40189 57009 71000 333 59010=
0172483040999992015010300004+19867+099767FM-12+040199999V0209999C000019999999N002000199+01161+01101102001ADDAY101021AY201021GF100995999999999999999999KA1120N+01061MA1999999097171MD1210101-0061MW1101REMSYN07048304 31920 00000 10116 20110 39717 40200 52010 71000 333 20106 59006=
0153483040999992015010303004+19867+099767FM-12+040199999V0209999C000019999999N003000199+01941+01361102011ADDAY101021AY201021GF100995999999999999999999MA1999999097301MD1210141-0131MW1101REMSYN06448304 31930 00000 10194 20136 39730 40201 52014 71000 333 59013=
0125483040999992015010306004+19867+099767FM-12+040199999V0209999C000019999999N015000199+02501+01181101561ADDGF100995999999999999999999MA1999999096961MD1710341-0201REMSYN05848304 32965 00000 10250 20118 39696 40156 57034 333 59020=
0125483040999992015010309004+19867+099767FM-12+040199999V0209999C000019999999N015000199+02681+01471101281ADDGF100995999999999999999999MA1999999096721MD1710241-0181REMSYN05848304 32965 00000 10268 20147 39672 40128 57024 333 59018=
0131483040999992015010312004+19867+099767FM-12+040199999V0209999C000019999999N012000199+01921+01511101431ADDGF100995999999999999999999MA1999999096741MD1210021-0261REMSYN06448304 32962 00000 10192 20151 39674 40143 52002 333 10273 59026=
0125483040999992015010315004+19867+099767FM-12+040199999V0209999C000019999999N010000199+01601+01481101571ADDGF100995999999999999999999MA1999999096831MD1210081-0401REMSYN05848304 32960 00000 10160 20148 39683 40157 52008 333 59040=
0125483040999992015010318004+19867+099767FM-12+040199999V0209999C000019999999N010000199+01451+01361101541ADDGF100995999999999999999999MA1999999096781MD1710051-0421REMSYN05848304 32960 00000 10145 20136 39678 40154 57005 333 59042=
0153483040999992015010321004+19867+099767FM-12+040199999V0209999C000019999999N004000199+01371+01301101431ADDAY101021AY201021GF100995999999999999999999MA1999999096661MD1710121-0461MW1101REMSYN06448304 31940 00000 10137 20130 39666 40143 57012 71000 333 59046=
0172483040999992015010400004+19867+099767FM-12+040199999V0209999C00001000001CN000000199+01341+01271101511ADDAY141021AY241021GF109991999999999999999999KA1120N+01291MA1999999096731MD1210071-0491MW1471REMSYN07048304 31/00 90000 10134 20127 39673 40151 52007 74744 333 20129 59049=
0153483040999992015010403004+19867+099767FM-12+040199999V0200301N001519999999N002000199+02151+01661101541ADDAY141021AY201021GF100995999999999999999999MA1999999096891MD1210161-0471MW1101REMSYN06448304 31920 00303 10215 20166 39689 40154 52016 71040 333 59047=
0153483040999992015010406004+19867+099767FM-12+040199999V0201901N001519999999N015000199+02701+01371101121ADDAY141021AY201021GF100995999999999999999999MA1999999096571MD1710321-0441MW1021REMSYN06448304 31965 01903 10270 20137 39657 40112 57032 70240 333 59044=
0125483040999992015010409004+19867+099767FM-12+040199999V0209999C000019999999N015000199+02931+01691100811ADDGF100995999999999999999999MA1999999096311MD1710271-0471REMSYN05848304 32965 00000 10293 20169 39631 40081 57027 333 59047=
0131483040999992015010412004+19867+099767FM-12+040199999V0209999C000019999999N012000199+02121+01731101021ADDGF100995999999999999999999MA1999999096391MD1210081-0401REMSYN06448304 32962 00000 10212 20173 39639 40102 52008 333 10295 59040=
0125483040999992015010415004+19867+099767FM-12+040199999V0209999C000019999999N010000199+01951+01771101141ADDGF100995999999999999999999MA1999999096481MD1210091-0421REMSYN05848304 32960 00000 10195 20177 39648 40114 52009 333 59042=
0153483040999992015010418004+19867+099767FM-12+040199999V0209999C000019999999N008000199+01771+01651101201ADDAY101021AY201021GF100995999999999999999999MA1999999096511MD1210031-0341MW1101REMSYN06448304 31958 00000 10177 20165 39651 40120 52003 71000 333 59034=
0153483040999992015010421004+19867+099767FM-12+040199999V0209999C000019999999N006000199+01691+01601101111ADDAY101021AY201021GF100995999999999999999999MA1999999096411MD1710101-0311MW1101REMSYN06448304 31956 00000 10169 20160 39641 40111 57010 71000 333 59031=
0216483040999992015010500004+19867+099767FM-12+040199999V0209999C000019999999N005000199+01531+01461101191ADDAY101021AY201021GA1021+012501061GE19AGL   +99999+99999GF102991021999012501999999KA1120N+01511MA1999999096451MD1210041-0321MW1101REMSYN07648304 31650 20000 10153 20146 39645 40119 52004 71000 82500 333 20151 59032=
0125483040999992015010503004+19867+099767FM-12+040199999V0209999C000019999999N010000199+02171+01751101281ADDGF100995999999999999999999MA1999999096641MD1210191-0261REMSYN05848304 32960 00000 10217 20175 39664 40128 52019 333 59026=
0125483040999992015010506004+19867+099767FM-12+040199999V0202601N001519999999N015000199+02791+01721100891ADDGF100995999999999999999999MA1999999096361MD1710281-0241REMSYN05848304 32965 02603 10279 20172 39636 40089 57028 333 59024=
0169483040999992015010509004+19867+099767FM-12+040199999V0201101N001019999999N015000199+03041+01751100621ADDGA1011+012501081GE19AGL   +99999+99999GF101991011999012501999999MA1999999096141MD1710221-0191REMSYN06448304 32665 11102 10304 20175 39614 40062 57022 81100 333 59019=
0175483040999992015010512004+19867+099767FM-12+040199999V0209999C000019999999N015000199+02411+01871100811ADDGA1031+008001081GE19AGL   +99999+99999GF103991031999008001999999MA1999999096231MD1210091-0211REMSYN07048304 32565 30000 10241 20187 39623 40081 52009 83200 333 10307 59021=
0125483040999992015010515004+19867+099767FM-12+040199999V0209999C000019999999N012000199+02061+01871101041ADDGF100995999999999999999999MA1999999096391MD1210161-0111REMSYN05848304 32962 00000 10206 20187 39639 40104 52016 333 59011=
0125483040999992015010518004+19867+099767FM-12+040199999V0209999C000019999999N012000199+01841+01711101091ADDGF100995999999999999999999MA1999999096411MD1110021-0111REMSYN05848304 32962 00000 10184 20171 39641 40109 51002 333 59011=
0153483040999992015010521004+19867+099767FM-12+040199999V0209999C000019999999N008000199+01701+01611101091ADDAY101021AY201021GF100995999999999999999999MA1999999096391MD1610031-0021MW1101REMSYN06448304 31958 00000 10170 20161 39639 40109 56003 71000 333 59002=
0172483040999992015010600004+19867+099767FM-12+040199999V0209999C000019999999N001000199+01541+01471101271ADDAY101021AY201021GF100995999999999999999999KA1120N+01501MA1999999096531MD1210151+0081MW1101REMSYN07048304 31910 00000 10154 20147 39653 40127 52015 71000 333 20150 58008=
0125483040999992015010603004+19867+099767FM-12+040199999V0209999C000019999999N012000199+02251+01851101301ADDGF100995999999999999999999MA1999999096681MD1210141+0021REMSYN05848304 32962 00000 10225 20185 39668 40130 52014 333 58002=
0169483040999992015010606004+19867+099767FM-12+040199999V0209999C000019999999N015000199+02911+01661100921ADDGA1011+008001081GE19AGL   +99999+99999GF101991011999008001999999MA1999999096411MD1710271+0031REMSYN06448304 32565 10000 10291 20166 39641 40092 57027 81200 333 58003=
0169483040999992015010609004+19867+099767FM-12+040199999V0209999C000019999999N015000199+03161+01351100671ADDGA1011+012501081GE19AGL   +99999+99999GF101991011999012501999999MA1999999096211MD1710201+0051REMSYN06448304 32665 10000 10316 20135 39621 40067 57020 81100 333 58005=
0188483040999992015010612004+19867+099767FM-12+040199999V0209999C000019999999N012000199+02361+01941100881ADDGA1011+999999031GE19AGL   +99999+99999GF101991011999999999999999KA1240M+03171MA1999999096291MD1210091+0071REMSYN07048304 32962 10000 10236 20194 39629 40088 52009 81040 333 10317 58007=
0169483040999992015010615004+19867+099767FM-12+040199999V0209999C000019999999N012000199+01931+01721101131ADDGA1031+999999031GE19AGL   +99999+99999GF103991031999999999999999MA1999999096461MD1210171+0091REMSYN06448304 32962 30000 10193 20172 39646 40113 52017 83040 333 58009=
0125483040999992015010618004+19867+099767FM-12+040199999V0209999C000019999999N010000199+01681+01541101231ADDGF100995999999999999999999MA1999999096511MD1210051+0131REMSYN05848304 32960 00000 10168 20154 39651 40123 52005 333 58013=
0153483040999992015010621004+19867+099767FM-12+040199999V0209999C000019999999N004000199+01541+01451101201ADDAY101021AY201021GF100995999999999999999999MA1999999096471MD1710041+0111MW1101REMSYN06448304 31940 00000 10154 20145 39647 40120 57004 71000 333 58011=
0232483040999992015010700004+19867+099767FM-12+040199999V0209999C000019999999N002000199+01521+01451101341ADDAY121021AY221021GA1061+999999031GA2999+999999021GE19AGL   +99999+99999GF108991061999999999999999KA1120N+01491MA1999999096601MD1210131+0071MW1101REMSYN07648304 31920 80000 10152 20145 39660 40134 52013 71022 86057 333 20149 58007=
0216483040999992015010703004+19867+099767FM-12+040199999V0209999C000019999999N003000199+02231+01731101461ADDAY101021AY201021GA1999+999999001GE19AGL   +99999+99999GF102991001999999999999999MA1999999096821MD1210231+0161MW1101REMSYN07048304 31930 20000 10223 20173 39682 40146 52023 71000 80001 333 58016=EQDQ01    003SCCGA1
0188483040999992015010706004+19867+099767FM-12+040199999V0209999C000019999999N010000199+02841+01731101071ADDGA1999+999999001GE19AGL   +99999+99999GF102991001999999999999999MA1999999096551MD1710281+0151REMSYN06448304 32960 20000 10284 20173 39655 40107 57028 80001 333 58015=EQDQ01    003SCCGA1
0185483040999992015010709004+19867+099767FM-12+040199999V0209999C000019999999N015000199+03001+02071100931ADDGA1021+012501061GA2999+999999031GE19AGL   +99999+99999GF104991021999012501999999MA1999999096431MD1710111+0261REMSYN06448304 32665 40000 10300 20207 39643 40093 57011 82540 333 58026=
0175483040999992015010712004+19867+099767FM-12+040199999V0209999C000019999999N015000199+02301+01821101141ADDGA1031+999999031GE19AGL   +99999+99999GF103991031999999999999999MA1999999096531MD1210091+0261REMSYN07048304 32965 30000 10230 20182 39653 40114 52009 83040 333 10305 58026=
0185483040999992015010715004+19867+099767FM-12+040199999V0209999C000019999999N012000199+01931+01801101311ADDGA1021+999999031GA2999+999999001GE19AGL   +99999+99999GF102991021999999999999999MA1999999096641MD1210111+0191REMSYN06448304 32962 20000 10193 20180 39664 40131 52011 82041 333 58019=
0125483040999992015010718004+19867+099767FM-12+040199999V0209999C000019999999N010000199+01801+01701101411ADDGF100995999999999999999999MA1999999096711MD1210071+0181REMSYN05848304 32960 00000 10180 20170 39671 40141 52007 333 58018=
0229483040999992015010721004+19867+099767FM-12+040199999V0209999C000019999999N004000199+01781+01711101401ADDAY121021AY221021GA1021+012501061GA2999+999999031GA3999+999999021GE19AGL   +99999+99999GF106991021999012501999999MA1999999096701MD1710011+0201MW1101REMSYN07048304 31640 60000 10178 20171 39670 40140 57001 71022 82546 333 58020=
0248483040999992015010800004+19867+099767FM-12+040199999V0209999C000019999999N002000199+01821+01751101521ADDAY121021AY221021GA1031+012501061GA2999+999999031GA3999+999999021GE19AGL   +99999+99999GF106991031999012501999999KA1120N+01701MA1999999096821MD1210121+0181MW1101REMSYN07648304 31620 60000 10182 20175 39682 40152 52012 71022 83546 333 20170 58018=
0229483040999992015010803004+19867+099767FM-12+040199999V0209999C000019999999N006000199+02151+01911101641ADDAY121021AY221021GA1021+012501061GA2999+999999031GA3999+999999021GE19AGL   +99999+99999GF106991021999012501999999MA1999999096991MD1210171+0181MW1101REMSYN07048304 31656 60000 10215 20191 39699 40164 52017 71022 82546 333 58018=
0201483040999992015010806004+19867+099767FM-12+040199999V0209999C000019999999N012000199+02591+01921101361ADDGA1031+012501061GA2999+999999031GA3999+999999021GE19AGL   +99999+99999GF108991031999012501999999MA1999999096781MD1710211+0281REMSYN06448304 32662 80000 10259 20192 39678 40136 57021 83576 333 58028=
0201483040999992015010809004+19867+099767FM-12+040199999V0209999C000019999999N012000199+02641+01891101221ADDGA1031+012501061GA2999+999999031GA3999+999999021GE19AGL   +99999+99999GF108991031999012501999999MA1999999096661MD1710121+0291REMSYN06448304 32662 80000 10264 20189 39666 40122 57012 83576 333 58029=
0299483040999992015010812004+19867+099767FM-12+040199999V0202501N001519999999N002000199+02131+01861101391ADDAA101000231AA212000231AA324000231AY121021AY221021GA1051+008001061GA2999+999999031GA3999+999999021GE19AGL   +99999+99999GF108991051999008001999999KA1240M+02691MA1999999096741MD1210081+0251MW1601REMSYN09448304 01520 82503 10213 20186 39674 40139 52008 69922 76022 85577 333 10269 58025 69925 70002=
0230483040999992015010815004+19867+099767FM-12+040199999V0209999C000019999999N004000199+02051+01861101541ADDAA101000431AY121021AY221021GA1061+008001061GA2999+999999031GE19AGL   +99999+99999GF108991061999008001999999MA1999999096871MD1210131+0231MW1211REMSYN07648304 21540 80000 10205 20186 39687 40154 52013 72122 8657/ 333 58023 69945=
0247483040999992015010818004+19867+099767FM-12+040199999V0209999C000019999999N004000199+02021+01861101541ADDAA118000631AA224000631AY161021AY221021GA1061+008001061GA2999+999999031GE19AGL   +99999+99999GF108991061999008001999999MA1999999096861MD1610011+0131MW1101REMSYN08248304 11540 80000 10202 20186 39686 40154 56001 69963 71062 8657/ 333 58013 70006=
0230483040999992015010821004+19867+099767FM-12+040199999V0209999C000019999999N002000199+01941+01861101421ADDAA103001031AY161021AY221021GA1061+008001061GA2999+999999031GE19AGL   +99999+99999GF108991061999008001999999MA1999999096741MD1710171+0021MW1611REMSYN07648304 21520 80000 10194 20186 39674 40142 57017 76162 8657/ 333 58002 60017=
0283483040999992015010900004+19867+099767FM-12+040199999V0202401N001519999999N002000199+01851+01771101581ADDAA103006031AA224008032AA324008232AY161021AY221021GA1061+008001061GA2999+999999031GE19AGL   +99999+99999GF108991061999008001999999KA1120N+01831MA1999999096881MD1210141+0061MW1611REMSYN09448304 01520 82403 10185 20177 39688 40158 52014 60084 76162 8657/ 333 20183 58006 60067 70082=
0230483040999992015010903004+19867+099767FM-12+040199999V0202301N001019999999N003000199+01861+01791101711ADDAA103003031AY161021AY261021GA1061+008001061GA2999+999999031GE19AGL   +99999+99999GF108991061999008001999999MA1999999097011MD1210131+0071MW1611REMSYN07648304 21530 82302 10186 20179 39701 40171 52013 76166 8657/ 333 58007 60037=
0264483040999992015010906004+19867+099767FM-12+040199999V0202101N001019999999N001000199+01861+01791101491ADDAA103007031AA206010031AA324018231AY161021AY261021GA1061+008001081GA2999+999999031GE19AGL   +99999+99999GF108991061999008001999999MA1999999096801MD1710211+0141MW1611REMSYN08848304 01510 82102 10186 20179 39680 40149 57021 60101 76166 8687/ 333 58014 60077 70182=
0230483040999992015010909004+19867+099767FM-12+040199999V0201501N001019999999N002000199+01801+01701101441ADDAA103008031AY161021AY261021GA1061+008001081GA2999+999999031GE19AGL   +99999+99999GF108991061999008001999999MA1999999096741MD1710051+0221MW1611REMSYN07648304 21520 81502 10180 20170 39674 40144 57005 76166 8687/ 333 58022 60087=
0283483040999992015010912004+19867+099767FM-12+040199999V0209999C000019999999N001000199+01721+01641101551ADDAA103008031AA212026031AA324034031AY161021AY261021GA1061+008001081GA2999+999999031GE19AGL   +99999+99999GF108991061999008001999999KA1240M+01901MA1999999096831MD1210091+0161MW1611REMSYN09448304 01510 80000 10172 20164 39683 40155 52009 60262 76166 8687/ 333 10190 58016 60087 70340=
0230483040999992015010915004+19867+099767FM-12+040199999V0209999C000019999999N001000199+01701+01611101681ADDAA103011031AY161021AY261021GA1061+008001081GA2999+999999031GE19AGL   +99999+99999GF108991061999008001999999MA1999999096951MD1210121+0141MW1611REMSYN07648304 21510 80000 10170 20161 39695 40168 52012 76166 8687/ 333 58014 60117=
0264483040999992015010918004+19867+099767FM-12+040199999V0209999C000019999999N001000199+01691+01601101601ADDAA103009031AA218046031AA324054031AY161021AY261021GA1061+008001081GA2999+999999031GE19AGL   +99999+99999GF108991061999008001999999MA1999999096881MD1610071+0011MW1611REMSYN08848304 01510 80000 10169 20160 39688 40160 56007 60463 76166 8627/ 333 58001 60097 70540=
0230483040999992015010921004+19867+099767FM-12+040199999V0200801N001019999999N001000199+01681+01591101511ADDAA103001031AY161021AY261021GA1061+008001081GA2999+999999031GE19AGL   +99999+99999GF108991061999008001999999MA1999999096791MD1710091+0091MW1611REMSYN07648304 21510 80802 10168 20159 39679 40151 57009 76166 8627/ 333 58009 60017=
0266483040999992015011000004+19867+099767FM-12+040199999V0200501N003619999999N004000199+01551+01461101661ADDAA124047032AA224047432AY161021AY221021GA1061+008001061GA2999+999999031GE19AGL   +99999+99999GF108991061999008001999999KA1120N+01541MA1999999096911MD1210121+0081MW1101REMSYN08848304 11540 80507 10155 20146 39691 40166 52012 60474 71062 8656/ 333 20154 58008 70474=
0230483040999992015011003004+19867+099767FM-12+040199999V0200601N002119999999N005000199+01621+01501101911ADDAA102000431AY161021AY221021GA1061+008001071GA2999+999999031GE19AGL   +99999+99999GF108991061999008001999999MA1999999097161MD1210251+0201MW1101REMSYN07648304 21550 80604 10162 20150 39716 40191 52025 71062 8667/ 333 58020 69946=
0247483040999992015011006004+19867+099767FM-12+040199999V0200301N002119999999N006000199+01791+01551101671ADDAA106000431AA224037831AY161021AY221021GA1061+008001061GA2999+999999031GE19AGL   +99999+99999GF108991061999008001999999MA1999999096961MD1710201+0181MW1101REMSYN08248304 11556 80304 10179 20155 39696 40167 57020 69941 71062 8657/ 333 58018 70378=
0185483040999992015011009004+19867+099767FM-12+040199999V0209999C000019999999N010000199+01771+01491101611ADDGA1061+008001061GA2999+999999031GE19AGL   +99999+99999GF108991061999008001999999MA1999999096901MD1710061+0171REMSYN06448304 32560 80000 10177 20149 39690 40161 57006 8657/ 333 58017=
0249483040999992015011012004+19867+099767FM-12+040199999V0209999C000019999999N008000199+01661+01401101721ADDAA124021831AY121021AY221021GA1061+008001061GA2999+999999031GE19AGL   +99999+99999GF108991061999008001999999KA1240M+01811MA1999999096981MD1210081+0171MW1101REMSYN08248304 31558 80000 10166 20140 39698 40172 52008 71022 8657/ 333 10181 58017 70218=
0213483040999992015011015004+19867+099767FM-12+040199999V0209999C000019999999N004000199+01631+01441101871ADDAY121021AY221021GA1061+008001061GA2999+999999031GE19AGL   +99999+99999GF108991061999008001999999MA1999999097121MD1210141+0191MW1101REMSYN07048304 31540 80000 10163 20144 39712 40187 52014 71022 8657/ 333 58019=
0246483040999992015011018004+19867+099767FM-12+040199999V0209999C000019999999N003000199+01621+01481101831ADDAA124001431AY121021AY221021GA1061+008001061GA2999+999999031GA3999+999999021GE19AGL   +99999+99999GF108991061999008001999999MA1999999097081MD1710041+0231MW1101REMSYN07648304 31530 80000 10162 20148 39708 40183 57004 71022 86577 333 58023 70014=
0229483040999992015011021004+19867+099767FM-12+040199999V0209999C000019999999N002000199+01521+01431101771ADDAY121021AY221021GA1051+008001061GA2999+999999031GA3999+999999021GE19AGL   +99999+99999GF108991051999008001999999MA1999999097001MD1710081+0251MW1101REMSYN07048304 31520 80000 10152 20143 39700 40177 57008 71022 85577 333 58025=
0255483040999992015011100004+19867+099767FM-12+040199999V0209999C000019999999N002000199+01491+01401101911ADDAA124000431AY121021AY221021GA1061+008001061GA2999+999999031GE19AGL   +99999+99999GF108991061999008001999999KA1120N+01481MA1999999097141MD1210141+0251MW1101REMSYN08848304 11520 80000 10149 20140 39714 40191 52014 69944 71022 8657/ 333 20148 58025 70004=
0201483040999992015011103004+19867+099767FM-12+040199999V0200501N002619999999N015000199+01801+01421101971ADDGA1041+012501061GA2999+999999031GA3999+999999021GE19AGL   +99999+99999GF107991041999012501999999MA1999999097251MD1210111+0061REMSYN06448304 32665 70505 10180 20142 39725 40197 52011 84556 333 58006=
0201483040999992015011106004+19867+099767FM-12+040199999V0200201N002619999999N015000199+02001+01211101721ADDGA1041+012501061GA2999+999999031GA3999+999999021GE19AGL   +99999+99999GF106991041999012501999999MA1999999097031MD1710211+0041REMSYN06448304 32665 60205 10200 20121 39703 40172 57021 84556 333 58004=
0169483040999992015011109004+19867+099767FM-12+040199999V0200401N001519999999N015000199+02321+01231101441ADDGA1021+012501061GE19AGL   +99999+99999GF102991021999012501999999MA1999999096821MD1710211-0171REMSYN06448304 32665 20403 10232 20123 39682 40144 57021 82500 333 59017=
0144483040999992015011112004+19867+099767FM-12+040199999V0209999C000019999999N015000199+01581+01271101641ADDGF100995999999999999999999KA1240M+02411MA1999999096891MD1210071-0081REMSYN06448304 32965 00000 10158 20127 39689 40164 52007 333 10241 59008=
0169483040999992015011115004+19867+099767FM-12+040199999V0209999C000019999999N012000199+01371+01261101901ADDGA1061+999999031GE19AGL   +99999+99999GF106991061999999999999999MA1999999097111MD1210221+0031REMSYN06448304 32962 60000 10137 20126 39711 40190 52022 86050 333 58003=
0153483040999992015011118004+19867+099767FM-12+040199999V0209999C000019999999N006000199+01271+01171101951ADDAY121021AY221021GF100995999999999999999999MA1999999097141MD1210031+0121MW1101REMSYN06448304 31956 00000 10127 20117 39714 40195 52003 71022 333 58012=
0153483040999992015011121004+19867+099767FM-12+040199999V0209999C000019999999N002000199+01111+01051101951ADDAY101021AY201021GF100995999999999999999999MA1999999097111MD1710031+0181MW1101REMSYN06448304 31920 00000 10111 20105 39711 40195 57003 71000 333 58018=
0172483040999992015011200004+19867+099767FM-12+040199999V0209999C000019999999N002000199+01021+00981102091ADDAY101021AY201021GF100995999999999999999999KA1120N+01001MA1999999097231MD1210121+0181MW1101REMSYN07048304 31920 00000 10102 20098 39723 40209 52012 71000 333 20100 58018=
0169483040999992015011203004+19867+099767FM-12+040199999V0200401N003119999999N012000199+01701+01151102251ADDGA1021+012501061GE19AGL   +99999+99999GF102991021999012501999999MA1999999097491MD1210261+0281REMSYN06448304 32662 20406 10170 20115 39749 40225 52026 82500 333 58028=
0169483040999992015011206004+19867+099767FM-12+040199999V0203501N003619999999N015000199+02101+01081101841ADDGA1011+008001081GE19AGL   +99999+99999GF101991011999008001999999MA1999999097161MD1710331+0121REMSYN06448304 32565 13507 10210 20108 39716 40184 57033 81100 333 58012=
0185483040999992015011209004+19867+099767FM-12+040199999V0200401N003119999999N015000199+02251+01051101581ADDGA1011+012501061GA2999+999999001GE19AGL   +99999+99999GF102991011999012501999999MA1999999096941MD1710221+0141REMSYN06448304 32665 20406 10225 20105 39694 40158 57022 81501 333 58014=
0144483040999992015011212004+19867+099767FM-12+040199999V0209999C000019999999N012000199+01591+01361101811ADDGF100995999999999999999999KA1240M+02291MA1999999097061MD1210121+0181REMSYN06448304 32962 00000 10159 20136 39706 40181 52012 333 10229 58018=
0125483040999992015011215004+19867+099767FM-12+040199999V0209999C000019999999N010000199+01501+01321102041ADDGF100995999999999999999999MA1999999097271MD1210201+0141REMSYN05848304 32960 00000 10150 20132 39727 40204 52020 333 58014=
0153483040999992015011218004+19867+099767FM-12+040199999V0209999C000019999999N007000199+01481+01351102121ADDAY101021AY201021GF100995999999999999999999MA1999999097341MD1210071+0171MW1101REMSYN06448304 31957 00000 10148 20135 39734 40212 52007 71000 333 58017=
0153483040999992015011221004+19867+099767FM-12+040199999V0209999C000019999999N008000199+01181+01101102121ADDAY101021AY201021GF100995999999999999999999MA1999999097281MD1610051+0171MW1101REMSYN06448304 31958 00000 10118 20110 39728 40212 56005 71000 333 58017=
0144483040999992015011300004+19867+099767FM-12+040199999V0209999C000019999999N010000199+01021+00961102251ADDGF100995999999999999999999KA1120N+01011MA1999999097381MD1210101+0161REMSYN06448304 32960 00000 10102 20096 39738 40225 52010 333 20101 58016=
0125483040999992015011303004+19867+099767FM-12+040199999V0200501N001519999999N015000199+01661+01221102271ADDGF100995999999999999999999MA1999999097511MD1210121+0021REMSYN05848304 32965 00503 10166 20122 39751 40227 52012 333 58002=
0125483040999992015011306004+19867+099767FM-12+040199999V0203101N001519999999N015000199+02211+01021101831ADDGF100995999999999999999999MA1999999097171MD1710331-0011REMSYN05848304 32965 03103 10221 20102 39717 40183 57033 333 59001=
0125483040999992015011309004+19867+099767FM-12+040199999V0209999C000019999999N015000199+02311+00791101581ADDGF100995999999999999999999MA1999999096951MD1710221+0001REMSYN05848304 32965 00000 10231 20079 39695 40158 57022 333 58000=
0131483040999992015011312004+19867+099767FM-12+040199999V0209999C000019999999N012000199+01701+01231101791ADDGF100995999999999999999999MA1999999097061MD1210111-0021REMSYN06448304 32962 00000 10170 20123 39706 40179 52011 333 10235 59002=
0125483040999992015011315004+19867+099767FM-12+040199999V0209999C000019999999N010000199+01301+01111102021ADDGF100995999999999999999999MA1999999097211MD1210151-0021REMSYN05848304 32960 00000 10130 20111 39721 40202 52015 333 59002=
0153483040999992015011318004+19867+099767FM-12+040199999V0209999C000019999999N008000199+01111+01011102031ADDAY101021AY201021GF100995999999999999999999MA1999999097191MD1610021-0091MW1101REMSYN06448304 31958 00000 10111 20101 39719 40203 56002 71000 333 59009=
0197483040999992015011321004+19867+099767FM-12+040199999V0209999C000019999999N007000199+01111+01031101961ADDAY111021AY201021GA1051+999999031GE19AGL   +99999+99999GF105991051999999999999999MA1999999097131MD1710061-0151MW1101REMSYN07048304 31957 50000 10111 20103 39713 40196 57006 71010 85040 333 59015=
0204483040999992015011400004+19867+099767FM-12+040199999V0209999C000019999999N010000199+01131+01051102151ADDGA1061+008001061GA2999+999999031GE19AGL   +99999+99999GF108991061999008001999999KA1120N+01111MA1999999097311MD1210181-0101REMSYN07048304 32560 80000 10113 20105 39731 40215 52018 8655/ 333 20111 59010=
0169483040999992015011403004+19867+099767FM-12+040199999V0209999C000019999999N010000199+01481+01241102251ADDGA1071+999999031GE19AGL   +99999+99999GF107991071999999999999999MA1999999097461MD1210151-0021REMSYN06448304 32960 70000 10148 20124 39746 40225 52015 87030 333 59002=
0169483040999992015011406004+19867+099767FM-12+040199999V0209999C000019999999N015000199+02161+00971101911ADDGA1051+999999031GE19AGL   +99999+99999GF105991051999999999999999MA1999999097241MD1710221+0081REMSYN06448304 32965 50000 10216 20097 39724 40191 57022 85040 333 58008=
0169483040999992015011409004+19867+099767FM-12+040199999V0209999C000019999999N015000199+02251+00851101671ADDGA1051+999999031GE19AGL   +99999+99999GF105991051999999999999999MA1999999097031MD1710211+0091REMSYN06448304 32965 50000 10225 20085 39703 40167 57021 85040 333 58009=
0204483040999992015011412004+19867+099767FM-12+040199999V0209999C000019999999N012000199+01721+01351101841ADDGA1021+012501061GA2999+999999031GE19AGL   +99999+99999GF102991021999012501999999KA1240M+02301MA1999999097111MD1210081+0051REMSYN07048304 32662 20000 10172 20135 39711 40184 52008 82540 333 10230 58005=
0169483040999992015011415004+19867+099767FM-12+040199999V0209999C000019999999N010000199+01521+01301102021ADDGA1061+999999031GE19AGL   +99999+99999GF106991061999999999999999MA1999999097241MD1210131+0001REMSYN06448304 32960 60000 10152 20130 39724 40202 52013 86050 333 58000=
0125483040999992015011418004+19867+099767FM-12+040199999V0209999C000019999999N010000199+01201+01101102011ADDGF100995999999999999999999MA1999999097191MD1710061-0021REMSYN05848304 32960 00000 10120 20110 39719 40201 57006 333 59002=
0153483040999992015011421004+19867+099767FM-12+040199999V0209999C000019999999N003000199+01151+01091102001ADDAY101021AY201021GF100995999999999999999999MA1999999097171MD1710011+0041MW1101REMSYN06448304 31930 00000 10115 20109 39717 40200 57001 71000 333 58004=
0232483040999992015011500004+19867+099767FM-12+040199999V0209999C000019999999N002000199+01121+01081102081ADDAY121021AY221021GA1051+999999031GA2999+999999021GE19AGL   +99999+99999GF106991051999999999999999KA1120N+01061MA1999999097241MD1210071-0071MW1101REMSYN07648304 31920 60000 10112 20108 39724 40208 52007 71022 85056 333 20106 59007=
0216483040999992015011503004+19867+099767FM-12+040199999V0209999C000019999999N006000199+01811+01311102121ADDAY111021AY211021GA1999+999999021GE19AGL   +99999+99999GF103991001999999999999999MA1999999097391MD1210151-0121MW1101REMSYN07048304 31956 30000 10181 20131 39739 40212 52015 71011 80005 333 59012=EQDQ01    003SCCGA1
0188483040999992015011506004+19867+099767FM-12+040199999V0209999C000019999999N015000199+02231+01241101811ADDGA1999+999999021GE19AGL   +99999+99999GF105991001999999999999999MA1999999097161MD1710231-0101REMSYN06448304 32965 50000 10223 20124 39716 40181 57023 80006 333 59010=EQDQ01    003SCCGA1
0185483040999992015011509004+19867+099767FM-12+040199999V0209999C000019999999N015000199+02331+01271101491ADDGA1021+012501061GA2999+999999031GE19AGL   +99999+99999GF107991021999012501999999MA1999999096871MD1710291-0181REMSYN06448304 32665 70000 10233 20127 39687 40149 57029 82530 333 59018=
0191483040999992015011512004+19867+099767FM-12+040199999V0209999C000019999999N012000199+01801+01451101631ADDGA1061+999999031GA2999+999999021GE19AGL   +99999+99999GF107991061999999999999999MA1999999096921MD1210061-0211REMSYN07048304 32962 70000 10180 20145 39692 40163 52006 86056 333 10237 59021=
0188483040999992015011515004+19867+099767FM-12+040199999V0209999C000019999999N010000199+01531+01391101871ADDGA1999+999999021GE19AGL   +99999+99999GF103991001999999999999999MA1999999097101MD1210181-0151REMSYN06448304 32960 30000 10153 20139 39710 40187 52018 80005 333 59015=EQDQ01    003SCCGA1
0216483040999992015011518004+19867+099767FM-12+040199999V0209999C000019999999N004000199+01461+01391101871ADDAY121021AY211021GA1999+999999021GE19AGL   +99999+99999GF106991001999999999999999MA1999999097091MD1710011-0141MW1101REMSYN07048304 31940 60000 10146 20139 39709 40187 57001 71021 80006 333 59014=EQDQ01    003SCCGA1
0213483040999992015011521004+19867+099767FM-12+040199999V0209999C000019999999N002000199+01501+01431101731ADDAY121021AY221021GA1061+999999031GA2999+999999021GE19AGL   +99999+99999GF108991061999999999999999MA1999999096961MD1710131-0281MW1101REMSYN07048304 31920 80000 10150 20143 39696 40173 57013 71022 86056 333 59028=
0232483040999992015011600004+19867+099767FM-12+040199999V0209999C000019999999N002000199+01561+01511101841ADDAY121021AY221021GA1051+008001061GA2999+999999031GE19AGL   +99999+99999GF108991051999008001999999KA1120N+01441MA1999999097081MD1210121-0241MW1101REMSYN07648304 31520 80000 10156 20151 39708 40184 52012 71022 8557/ 333 20144 59024=
0185483040999992015011603004+19867+099767FM-12+040199999V0209999C000019999999N015000199+01841+01551101971ADDGA1061+999999031GA2999+999999021GE19AGL   +99999+99999GF106991061999999999999999MA1999999097251MD1210171-0151REMSYN06448304 32965 60000 10184 20155 39725 40197 52017 86056 333 59015=
0185483040999992015011606004+19867+099767FM-12+040199999V0200701N001519999999N015000199+02351+01511101651ADDGA1041+999999031GA2999+999999021GE19AGL   +99999+99999GF105991041999999999999999MA1999999097021MD1710231-0161REMSYN06448304 32965 50703 10235 20151 39702 40165 57023 84056 333 59016=
0188483040999992015011609004+19867+099767FM-12+040199999V0209999C000019999999N015000199+02621+01241101291ADDGA1999+999999021GE19AGL   +99999+99999GF105991001999999999999999MA1999999096721MD1710301-0201REMSYN06448304 32965 50000 10262 20124 39672 40129 57030 80006 333 59020=EQDQ01    003SCCGA1
0207483040999992015011612004+19867+099767FM-12+040199999V0209999C000019999999N012000199+01921+01401101511ADDGA1999+999999021GE19AGL   +99999+99999GF106991001999999999999999KA1240M+02671MA1999999096821MD1210101-0131REMSYN07048304 32962 60000 10192 20140 39682 40151 52010 80006 333 10267 59013=EQDQ01    003SCCGA1
0125483040999992015011615004+19867+099767FM-12+040199999V0209999C000019999999N012000199+01811+01591101661ADDGF100995999999999999999999MA1999999096951MD1210131-0211REMSYN05848304 32962 00000 10181 20159 39695 40166 52013 333 59021=
0125483040999992015011618004+19867+099767FM-12+040199999V0209999C000019999999N010000199+01601+01461101661ADDGF100995999999999999999999MA1999999096911MD1610031-0211REMSYN05848304 32960 00000 10160 20146 39691 40166 56003 333 59021=
0213483040999992015011621004+19867+099767FM-12+040199999V0209999C000019999999N008000199+01501+01411101591ADDAY111021AY201021GA1021+012501061GA2999+999999031GE19AGL   +99999+99999GF105991021999012501999999MA1999999096831MD1710081-0141MW1101REMSYN07048304 31658 50000 10150 20141 39683 40159 57008 71010 82540 333 59014=
0204483040999992015011700004+19867+099767FM-12+040199999V0209999C000019999999N010000199+01511+01441101741ADDGA1041+012501061GA2999+999999031GE19AGL   +99999+99999GF106991041999012501999999KA1120N+01481MA1999999096971MD1210141-0101REMSYN07048304 32660 60000 10151 20144 39697 40174 52014 84540 333 20148 59010=
0249483040999992015011703004+19867+099767FM-12+040199999V0209999C000019999999N012000199+01901+01561102001ADDAA102000091AY161021AY221021GA1041+012501061GA2999+999999031GE19AGL   +99999+99999GF108991041999012501999999MA1999999097291MD1210311+0031MW1021REMSYN07648304 21662 80000 10190 20156 39729 40200 52031 70262 8454/ 333 58003 69906=EQDQ01  00002PRCP02
0298483040999992015011706004+19867+099767FM-12+040199999V0209999C000019999999N015000199+02311+01601101661ADDAA106000091AA224000091AY161021AY221021GA1021+008001081GA2999+999999031GA3999+999999021GE19AGL   +99999+99999GF106991021999008001999999MA1999999097021MD1710261+0001MW1011REMSYN08248304 11565 60000 10231 20160 39702 40166 57026 69901 70162 82146 333 58000 79999=EQDQ01  00002PRCP06Q02  00002PRCP24
0201483040999992015011709004+19867+099767FM-12+040199999V0209999C000019999999N015000199+02411+01551101501ADDGA1061+008001061GA2999+999999031GA3999+999999021GE19AGL   +99999+99999GF108991061999008001999999MA1999999096891MD1710131+0211REMSYN06448304 32565 80000 10241 20155 39689 40150 57013 86546 333 58021=
0240483040999992015011712004+19867+099767FM-12+040199999V0209999C000019999999N012000199+02101+01721101671ADDAA124000091GA1061+008001061GA2999+999999031GE19AGL   +99999+99999GF108991061999008001999999KA1240M+02471MA1999999097001MD1210111+0171REMSYN07648304 32562 80000 10210 20172 39700 40167 52011 8655/ 333 10247 58017 79999=EQDQ01  00002PRCP24
0185483040999992015011715004+19867+099767FM-12+040199999V0209999C000019999999N010000199+01921+01721101831ADDGA1061+008001061GA2999+999999031GE19AGL   +99999+99999GF108991061999008001999999MA1999999097131MD1210121+0171REMSYN06448304 32560 80000 10192 20172 39713 40183 52012 8655/ 333 58017=
0221483040999992015011718004+19867+099767FM-12+040199999V0209999C000019999999N010000199+01751+01631101781ADDAA124000091GA1061+008001061GA2999+999999031GE19AGL   +99999+99999GF108991061999008001999999MA1999999097061MD1610071+0131REMSYN07048304 32560 80000 10175 20163 39706 40178 56007 8657/ 333 58013 79999=EQDQ01  00002PRCP24
0229483040999992015011721004+19867+099767FM-12+040199999V0209999C000019999999N008000199+01701+01601101721ADDAY111021AY211021GA1021+008001061GA2999+999999031GA3999+999999021GE19AGL   +99999+99999GF103991021999008001999999MA1999999096991MD1610071+0131MW1101REMSYN07048304 31558 30000 10170 20160 39699 40172 56007 71011 82546 333 58013=
0290483040999992015011800004+19867+099767FM-12+040199999V0209999C000019999999N001000199+01581+01491101811ADDAA124000091AY141021AY211021GA1021+012501061GA2999+999999031GE19AGL   +99999+99999GF103991021999012501999999KA1120N+01531MA1999999097051MD1210071+0071MW1461REMSYN08848304 11610 30000 10158 20149 39705 40181 52007 69904 74641 82540 333 20153 58007 79999=EQDQ01  00002PRCP24Q02  00002PRCP24
0153483040999992015011803004+19867+099767FM-12+040199999V0201101N001019999999N015000199+02101+01651102001ADDAY141021AY201021GF100995999999999999999999MA1999999097321MD1210261+0001MW1011REMSYN06448304 31965 01102 10210 20165 39732 40200 52026 70140 333 58000=
0197483040999992015011806004+19867+099767FM-12+040199999V0202901N001519999999N015000199+02561+01391101561ADDAY141021AY201021GA1011+012501081GE19AGL   +99999+99999GF101991011999012501999999MA1999999096971MD1710341-0091MW1031REMSYN07048304 31665 12903 10256 20139 39697 40156 57034 70340 81100 333 59009=
0169483040999992015011809004+19867+099767FM-12+040199999V0209999C000019999999N015000199+02651+01431101341ADDGA1011+012501081GE19AGL   +99999+99999GF101991011999012501999999MA1999999096771MD1710201-0161REMSYN06448304 32665 10000 10265 20143 39677 40134 57020 81100 333 59016=
0144483040999992015011812004+19867+099767FM-12+040199999V0209999C000019999999N012000199+02011+01641101491ADDGF100995999999999999999999KA1240M+02671MA1999999096821MD1210051-0181REMSYN06448304 32962 00000 10201 20164 39682 40149 52005 333 10267 59018=
0169483040999992015011815004+19867+099767FM-12+040199999V0209999C000019999999N010000199+01761+01541101691ADDGA1041+999999031GE19AGL   +99999+99999GF104991041999999999999999MA1999999096971MD1210151-0141REMSYN06448304 32960 40000 10176 20154 39697 40169 52015 84050 333 59014=
0213483040999992015011818004+19867+099767FM-12+040199999V0209999C000019999999N006000199+01721+01581101671ADDAY111021AY211021GA1041+999999031GA2999+999999021GE19AGL   +99999+99999GF105991041999999999999999MA1999999096941MD1710021-0111MW1101REMSYN07048304 31956 50000 10172 20158 39694 40167 57002 71011 84056 333 59011=
0213483040999992015011821004+19867+099767FM-12+040199999V0209999C000019999999N003000199+01581+01471101671ADDAY101021AY201021GA1041+999999031GA2999+999999021GE19AGL   +99999+99999GF106991041999999999999999MA1999999096921MD1710021-0051MW1101REMSYN07048304 31930 60000 10158 20147 39692 40167 57002 71000 84056 333 59005=
0232483040999992015011900004+19867+099767FM-12+040199999V0209999C000019999999N002000199+01631+01561101761ADDAY121021AY221021GA1061+999999031GA2999+999999021GE19AGL   +99999+99999GF108991061999999999999999KA1120N+01521MA1999999097011MD1210091-0051MW1101REMSYN07648304 31920 80000 10163 20156 39701 40176 52009 71022 86057 333 20152 59005=
0216483040999992015011903004+19867+099767FM-12+040199999V0201601N001519999999N006000199+02151+01311101871ADDAY101021AY201021GA1999+999999001GE19AGL   +99999+99999GF102991001999999999999999MA1999999097201MD1210191-0131MW1051REMSYN07048304 31956 21603 10215 20131 39720 40187 52019 70500 80001 333 59013=EQDQ01    003SCCGA1
0197483040999992015011906004+19867+099767FM-12+040199999V0209999C000019999999N008000199+02481+01311101551ADDAY101021AY201021GA1021+012501061GE19AGL   +99999+99999GF102991021999012501999999MA1999999096951MD1710251-0011MW1051REMSYN07048304 31658 20000 10248 20131 39695 40155 57025 70500 82500 333 59001=
0169483040999992015011909004+19867+099767FM-12+040199999V0202101N002619999999N012000199+02641+01351101331ADDGA1031+999999031GE19AGL   +99999+99999GF103991031999999999999999MA1999999096761MD1710191-0011REMSYN06448304 32962 32105 10264 20135 39676 40133 57019 83040 333 59001=
0194483040999992015011912004+19867+099767FM-12+040199999V0209999C000019999999N012000199+01931+01501101431ADDGA1999+999999001GE19AGL   +99999+99999GF102991001999999999999999MA1999999096751MD1510011-0061REMSYN07048304 32962 20000 10193 20150 39675 40143 55001 80001 333 10269 59006=EQDQ01    003SCCGA1
0125483040999992015011915004+19867+099767FM-12+040199999V0209999C000019999999N010000199+01591+01431101691ADDGF100995999999999999999999MA1999999096941MD1210191+0001REMSYN05848304 32960 00000 10159 20143 39694 40169 52019 333 58000=
0153483040999992015011918004+19867+099767FM-12+040199999V0209999C000019999999N003000199+01511+01421101761ADDAY101021AY201021GF100995999999999999999999MA1999999096991MD1210051+0091MW1101REMSYN06448304 31930 00000 10151 20142 39699 40176 52005 71000 333 58009=
0153483040999992015011921004+19867+099767FM-12+040199999V0209999C000019999999N002000199+01371+01311101681ADDAY101021AY201021GF100995999999999999999999MA1999999096901MD1710101+0011MW1101REMSYN06448304 31920 00000 10137 20131 39690 40168 57010 71000 333 58001=
0172483040999992015012000004+19867+099767FM-12+040199999V0209999C00001000001CN000000199+01411+01361101821ADDAY141021AY241021GF109991999999999999999999KA1120N+01351MA1999999097041MD1210141+0061MW1471REMSYN07048304 31/00 90000 10141 20136 39704 40182 52014 74744 333 20135 58006=
0197483040999992015012003004+19867+099767FM-12+040199999V0209999C000019999999N002000199+01851+01601101961ADDAY141021AY211021GA1031+999999031GE19AGL   +99999+99999GF103991031999999999999999MA1999999097241MD1210201+0091MW1101REMSYN07048304 31920 30000 10185 20160 39724 40196 52020 71041 83040 333 58009=
0229483040999992015012006004+19867+099767FM-12+040199999V0209999C000019999999N012000199+02401+01591101611ADDAY141021AY211021GA1021+012501061GA2999+999999031GA3999+999999021GE19AGL   +99999+99999GF106991021999012501999999MA1999999096991MD1710241+0061MW1031REMSYN07048304 31662 60000 10240 20159 39699 40161 57024 70341 82546 333 58006=
0169483040999992015012009004+19867+099767FM-12+040199999V0209999C000019999999N015000199+02521+01681101391ADDGA1041+012501061GE19AGL   +99999+99999GF104991041999012501999999MA1999999096801MD1710201+0061REMSYN06448304 32665 40000 10252 20168 39680 40139 57020 84500 333 58006=
0207483040999992015012012004+19867+099767FM-12+040199999V0209999C000019999999N012000199+02011+01701101561ADDGA1999+999999001GE19AGL   +99999+99999GF102991001999999999999999KA1240M+02531MA1999999096881MD1210091+0121REMSYN07048304 32962 20000 10201 20170 39688 40156 52009 80001 333 10253 58012=EQDQ01    003SCCGA1
0125483040999992015012015004+19867+099767FM-12+040199999V0209999C000019999999N010000199+01831+01661101811ADDGF100995999999999999999999MA1999999097101MD1210211+0131REMSYN05848304 32960 00000 10183 20166 39710 40181 52021 333 58013=
0216483040999992015012018004+19867+099767FM-12+040199999V0209999C000019999999N008000199+01771+01671101891ADDAY101021AY201021GA1999+999999001GE19AGL   +99999+99999GF102991001999999999999999MA1999999097161MD1210071+0141MW1101REMSYN07048304 31958 20000 10177 20167 39716 40189 52007 71000 80001 333 58014=EQDQ01    003SCCGA1
0197483040999992015012021004+19867+099767FM-12+040199999V0209999C000019999999N007000199+01721+01641101871ADDAY101021AY201021GA1031+999999031GE19AGL   +99999+99999GF103991031999999999999999MA1999999097131MD1710031+0191MW1101REMSYN07048304 31957 30000 10172 20164 39713 40187 57003 71000 83040 333 58019=
0220483040999992015012100004+19867+099767FM-12+040199999V0209999C000019999999N010000199+01621+01531102011ADDGA1021+012501061GA2999+999999031GA3999+999999021GE19AGL   +99999+99999GF105991021999012501999999KA1120N+01591MA1999999097251MD1210121+0191REMSYN07048304 32660 50000 10162 20153 39725 40201 52012 82546 333 20159 58019=
0188483040999992015012103004+19867+099767FM-12+040199999V0209999C000019999999N010000199+02061+01751102191ADDGA1999+999999021GE19AGL   +99999+99999GF106991001999999999999999MA1999999097491MD1210241+0231REMSYN06448304 32960 60000 10206 20175 39749 40219 52024 80006 333 58023=EQDQ01    003SCCGA1
0185483040999992015012106004+19867+099767FM-12+040199999V0209999C000019999999N012000199+02641+01621101831ADDGA1011+012501081GA2999+999999021GE19AGL   +99999+99999GF106991011999012501999999MA1999999097241MD1710261+0221REMSYN06448304 32662 60000 10264 20162 39724 40183 57026 81107 333 58022=
0188483040999992015012109004+19867+099767FM-12+040199999V0209999C000019999999N015000199+02741+01401101561ADDGA1999+999999021GE19AGL   +99999+99999GF106991001999999999999999MA1999999097001MD1710241+0171REMSYN06448304 32965 60000 10274 20140 39700 40156 57024 80007 333 58017=EQDQ01    003SCCGA1
0207483040999992015012112004+19867+099767FM-12+040199999V0209999C000019999999N012000199+02131+01671101741ADDGA1999+999999021GE19AGL   +99999+99999GF102991001999999999999999KA1240M+02761MA1999999097071MD1210081+0181REMSYN07048304 32962 20000 10213 20167 39707 40174 52008 80005 333 10276 58018=EQDQ01    003SCCGA1
0125483040999992015012115004+19867+099767FM-12+040199999V0209999C000019999999N010000199+01701+01441101971ADDGF100995999999999999999999MA1999999097231MD1210161+0161REMSYN05848304 32960 00000 10170 20144 39723 40197 52016 333 58016=
0125483040999992015012118004+19867+099767FM-12+040199999V0209999C000019999999N010000199+01531+01441102041ADDGF100995999999999999999999MA1999999097271MD1210041+0151REMSYN05848304 32960 00000 10153 20144 39727 40204 52004 333 58015=
0197483040999992015012121004+19867+099767FM-12+040199999V0209999C000019999999N008000199+01411+01341101951ADDAY101021AY201021GA1021+012501061GE19AGL   +99999+99999GF102991021999012501999999MA1999999097161MD1710111+0081MW1101REMSYN07048304 31658 20000 10141 20134 39716 40195 57011 71000 82500 333 58008=
0235483040999992015012200004+19867+099767FM-12+040199999V0209999C000019999999N005000199+01271+01211102101ADDAY101021AY201021GA1999+999999021GE19AGL   +99999+99999GF102991001999999999999999KA1120N+01221MA1999999097281MD1210131+0091MW1101REMSYN07648304 31950 20000 10127 20121 39728 40210 52013 71000 80005 333 20122 58009=EQDQ01    003SCCGA1
0169483040999992015012203004+19867+099767FM-12+040199999V0209999C000019999999N010000199+01871+01531102221ADDGA1031+999999031GE19AGL   +99999+99999GF103991031999999999999999MA1999999097501MD1210211+0041REMSYN06448304 32960 30000 10187 20153 39750 40222 52021 83040 333 58004=
0188483040999992015012206004+19867+099767FM-12+040199999V0209999C000019999999N015000199+02561+01521101791ADDGA1999+999999021GE19AGL   +99999+99999GF105991001999999999999999MA1999999097191MD1710311-0041REMSYN06448304 32965 50000 10256 20152 39719 40179 57031 80006 333 59004=EQDQ01    003SCCGA1
0185483040999992015012209004+19867+099767FM-12+040199999V0209999C000019999999N015000199+02741+01441101451ADDGA1011+012501081GA2999+999999021GE19AGL   +99999+99999GF102991011999012501999999MA1999999096891MD1710301-0111REMSYN06448304 32665 20000 10274 20144 39689 40145 57030 81105 333 59011=
0207483040999992015012212004+19867+099767FM-12+040199999V0209999C000019999999N012000199+02161+01791101531ADDGA1999+999999021GE19AGL   +99999+99999GF102991001999999999999999KA1240M+02761MA1999999096881MD1610011-0211REMSYN07048304 32962 20000 10216 20179 39688 40153 56001 80005 333 10276 59021=EQDQ01    003SCCGA1
0125483040999992015012215004+19867+099767FM-12+040199999V0209999C000019999999N012000199+01571+01411101751ADDGF100995999999999999999999MA1999999097001MD1210121-0221REMSYN05848304 32962 00000 10157 20141 39700 40175 52012 333 59022=
0125483040999992015012218004+19867+099767FM-12+040199999V0209999C000019999999N010000199+01421+01311101731ADDGF100995999999999999999999MA1999999096951MD1710051-0321REMSYN05848304 32960 00000 10142 20131 39695 40173 57005 333 59032=
0153483040999992015012221004+19867+099767FM-12+040199999V0209999C000019999999N002000199+01291+01231101621ADDAY101021AY201021GF100995999999999999999999MA1999999096831MD1710121-0321MW1101REMSYN06448304 31920 00000 10129 20123 39683 40162 57012 71000 333 59032=
0172483040999992015012300004+19867+099767FM-12+040199999V0209999C00001000001CN000000199+01271+01231101711ADDAY141021AY241021GF109991999999999999999999KA1120N+01201MA1999999096911MD1210081-0391MW1471REMSYN07048304 31/00 90000 10127 20123 39691 40171 52008 74744 333 20120 59039=
0153483040999992015012303004+19867+099767FM-12+040199999V0209999C000019999999N002000199+01891+01571101781ADDAY141021AY201021GF100995999999999999999999MA1999999097081MD1210161-0441MW1101REMSYN06448304 31920 00000 10189 20157 39708 40178 52016 71040 333 59044=
0197483040999992015012306004+19867+099767FM-12+040199999V0209999C000019999999N015000199+02641+01501101311ADDAY141021AY201021GA1021+012501061GE19AGL   +99999+99999GF102991021999012501999999MA1999999096741MD1710341-0491MW1031REMSYN07048304 31665 20000 10264 20150 39674 40131 57034 70340 82500 333 59049=
0169483040999992015012309004+19867+099767FM-12+040199999V0209999C000019999999N015000199+02841+01451100991ADDGA1021+012501061GE19AGL   +99999+99999GF102991021999012501999999MA1999999096461MD1710271-0461REMSYN06448304 32665 20000 10284 20145 39646 40099 57027 82500 333 59046=
0144483040999992015012312004+19867+099767FM-12+040199999V0209999C000019999999N012000199+02051+01621101181ADDGF100995999999999999999999KA1240M+02861MA1999999096521MD1210061-0351REMSYN06448304 32962 00000 10205 20162 39652 40118 52006 333 10286 59035=
0125483040999992015012315004+19867+099767FM-12+040199999V0209999C000019999999N012000199+01591+01431101431ADDGF100995999999999999999999MA1999999096701MD1210181-0321REMSYN05848304 32962 00000 10159 20143 39670 40143 52018 333 59032=
0153483040999992015012318004+19867+099767FM-12+040199999V0209999C000019999999N004000199+01401+01311101451ADDAY101021AY201021GF100995999999999999999999MA1999999096681MD1710021-0281MW1101REMSYN06448304 31940 00000 10140 20131 39668 40145 57002 71000 333 59028=
0153483040999992015012321004+19867+099767FM-12+040199999V0209999C000019999999N002000199+01281+01221101451ADDAY101021AY201021GF100995999999999999999999MA1999999096661MD1710021-0181MW1101REMSYN06448304 31920 00000 10128 20122 39666 40145 57002 71000 333 59018=
0235483040999992015012400004+19867+099767FM-12+040199999V0209999C000019999999N002000199+01211+01171101631ADDAY101021AY201021GA1999+999999001GE19AGL   +99999+99999GF104991001999999999999999KA1120N+01151MA1999999096821MD1210161-0091MW1101REMSYN07648304 31920 40000 10121 20117 39682 40163 52016 71000 80001 333 20115 59009=EQDQ01    003SCCGA1
0153483040999992015012403004+19867+099767FM-12+040199999V0209999C000019999999N004000199+02001+01491101731ADDAY101021AY201021GF100995999999999999999999MA1999999097051MD1210231-0051MW1101REMSYN06448304 31940 00000 10200 20149 39705 40173 52023 71000 333 59005=
0169483040999992015012406004+19867+099767FM-12+040199999V0209999C000019999999N015000199+02751+01391101321ADDGA1021+012501061GE19AGL   +99999+99999GF102991021999012501999999MA1999999096761MD1710291+0011REMSYN06448304 32665 20000 10275 20139 39676 40132 57029 82500 333 58001=
0169483040999992015012409004+19867+099767FM-12+040199999V0200901N001019999999N015000199+02901+01201101051ADDGA1011+012501061GE19AGL   +99999+99999GF101991011999012501999999MA1999999096531MD1710231+0061REMSYN06448304 32665 10902 10290 20120 39653 40105 57023 81500 333 58006=
0131483040999992015012412004+19867+099767FM-12+040199999V0209999C000019999999N012000199+02061+01541101301ADDGF100995999999999999999999MA1999999096641MD1210111+0121REMSYN06448304 32962 00000 10206 20154 39664 40130 52011 333 10295 58012=
0125483040999992015012415004+19867+099767FM-12+040199999V0209999C000019999999N010000199+01761+01521101561ADDGF100995999999999999999999MA1999999096841MD1210201+0121REMSYN05848304 32960 00000 10176 20152 39684 40156 52020 333 58012=
0153483040999992015012418004+19867+099767FM-12+040199999V0209999C000019999999N008000199+01551+01431101611ADDAY101021AY201021GF100995999999999999999999MA1999999096861MD1110011+0161MW1101REMSYN06448304 31958 00000 10155 20143 39686 40161 51001 71000 333 58016=
0153483040999992015012421004+19867+099767FM-12+040199999V0209999C000019999999N006000199+01401+01331101551ADDAY101021AY201021GF100995999999999999999999MA1999999096781MD1610081+0101MW1101REMSYN06448304 31956 00000 10140 20133 39678 40155 56008 71000 333 58010=
0172483040999992015012500004+19867+099767FM-12+040199999V0209999C000019999999N004000199+01241+01181101701ADDAY101021AY201021GF100995999999999999999999KA1120N+01191MA1999999096901MD1210121+0081MW1101REMSYN07048304 31940 00000 10124 20118 39690 40170 52012 71000 333 20119 58008=
0125483040999992015012503004+19867+099767FM-12+040199999V0209999C000019999999N015000199+01921+01451101841ADDGF100995999999999999999999MA1999999097141MD1210241+0101REMSYN05848304 32965 00000 10192 20145 39714 40184 52024 333 58010=
0169483040999992015012506004+19867+099767FM-12+040199999V0200601N001519999999N015000199+02661+01461101471ADDGA1011+012501081GE19AGL   +99999+99999GF101991011999012501999999MA1999999096901MD1710241+0151REMSYN06448304 32665 10603 10266 20146 39690 40147 57024 81100 333 58015=
0169483040999992015012509004+19867+099767FM-12+040199999V0209999C000019999999N015000199+02921+01371101161ADDGA1011+012501081GE19AGL   +99999+99999GF101991011999012501999999MA1999999096641MD1710261+0111REMSYN06448304 32665 10000 10292 20137 39664 40116 57026 81100 333 58011=
0144483040999992015012512004+19867+099767FM-12+040199999V0209999C000019999999N015000199+02201+01551101391ADDGF100995999999999999999999KA1240M+02941MA1999999096761MD1110121+0101REMSYN06448304 32965 00000 10220 20155 39676 40139 51012 333 10294 58010=
0125483040999992015012515004+19867+099767FM-12+040199999V0209999C000019999999N012000199+01791+01531101661ADDGF100995999999999999999999MA1999999096951MD1210191+0101REMSYN05848304 32962 00000 10179 20153 39695 40166 52019 333 58010=
0125483040999992015012518004+19867+099767FM-12+040199999V0209999C000019999999N010000199+01491+01381101711ADDGF100995999999999999999999MA1999999096941MD1410001+0101REMSYN05848304 32960 00000 10149 20138 39694 40171 54000 333 58010=
0153483040999992015012521004+19867+099767FM-12+040199999V0209999C000019999999N007000199+01381+01291101611ADDAY101021AY201021GF100995999999999999999999MA1999999096841MD1710111+0061MW1101REMSYN06448304 31957 00000 10138 20129 39684 40161 57011 71000 333 58006=
0172483040999992015012600004+19867+099767FM-12+040199999V0209999C000019999999N005000199+01201+01121101811ADDAY101021AY201021GF100995999999999999999999KA1120N+01181MA1999999097001MD1210161+0111MW1101REMSYN07048304 31950 00000 10120 20112 39700 40181 52016 71000 333 20118 58011=
0125483040999992015012603004+19867+099767FM-12+040199999V0209999C000019999999N015000199+01921+01421101861ADDGF100995999999999999999999MA1999999097161MD1210161+0021REMSYN05848304 32965 00000 10192 20142 39716 40186 52016 333 58002=
0169483040999992015012606004+19867+099767FM-12+040199999V0209999C000019999999N015000199+02591+01221101521ADDGA1011+012501081GE19AGL   +99999+99999GF101991011999012501999999MA1999999096941MD1710221+0051REMSYN06448304 32665 10000 10259 20122 39694 40152 57022 81100 333 58005=
0125483040999992015012609004+19867+099767FM-12+040199999V0209999C000019999999N015000199+02821+01181101141ADDGF100995999999999999999999MA1999999096611MD1710331-0021REMSYN05848304 32965 00000 10282 20118 39661 40114 57033 333 59002=
0144483040999992015012612004+19867+099767FM-12+040199999V0209999C000019999999N015000199+02351+01881101251ADDGF100995999999999999999999KA1240M+02851MA1999999096641MD1210031-0151REMSYN06448304 32965 00000 10235 20188 39664 40125 52003 333 10285 59015=
0125483040999992015012615004+19867+099767FM-12+040199999V0209999C000019999999N012000199+01661+01501101561ADDGF100995999999999999999999MA1999999096831MD1210191-0101REMSYN05848304 32962 00000 10166 20150 39683 40156 52019 333 59010=
0125483040999992015012618004+19867+099767FM-12+040199999V0209999C000019999999N010000199+01421+01331101611ADDGF100995999999999999999999MA1999999096841MD1990011-0101REMSYN05848304 32960 00000 10142 20133 39684 40161 50001 333 59010=
0153483040999992015012621004+19867+099767FM-12+040199999V0209999C000019999999N004000199+01271+01211101481ADDAY101021AY201021GF100995999999999999999999MA1999999096691MD1710151-0131MW1101REMSYN06448304 31940 00000 10127 20121 39669 40148 57015 71000 333 59013=
0172483040999992015012700004+19867+099767FM-12+040199999V0209999C000019999999N002000199+01201+01161101571ADDAY101021AY201021GF100995999999999999999999KA1120N+01071MA1999999096771MD1210081-0241MW1101REMSYN07048304 31920 00000 10120 20116 39677 40157 52008 71000 333 20107 59024=
0153483040999992015012703004+19867+099767FM-12+040199999V0209999C000019999999N003000199+01951+01531101731ADDAY101021AY201021GF100995999999999999999999MA1999999097041MD1210271-0131MW1101REMSYN06448304 31930 00000 10195 20153 39704 40173 52027 71000 333 59013=
0169483040999992015012706004+19867+099767FM-12+040199999V0209999C000019999999N015000199+02641+01441101311ADDGA1021+012501061GE19AGL   +99999+99999GF102991021999012501999999MA1999999096751MD1710291-0211REMSYN06448304 32665 20000 10264 20144 39675 40131 57029 82500 333 59021=
0125483040999992015012709004+19867+099767FM-12+040199999V0209999C000019999999N015000199+02891+01391100941ADDGF100995999999999999999999MA1999999096421MD1710321-0201REMSYN05848304 32965 00000 10289 20139 39642 40094 57032 333 59020=
0131483040999992015012712004+19867+099767FM-12+040199999V0209999C000019999999N015000199+02001+01431101091ADDGF100995999999999999999999MA1999999096441MD1210011-0161REMSYN06448304 32965 00000 10200 20143 39644 40109 52001 333 10290 59016=
0125483040999992015012715004+19867+099767FM-12+040199999V0209999C000019999999N012000199+01591+01431101361ADDGF100995999999999999999999MA1999999096631MD1210191-0201REMSYN05848304 32962 00000 10159 20143 39663 40136 52019 333 59020=
0125483040999992015012718004+19867+099767FM-12+040199999V0209999C000019999999N010000199+01461+01391101371ADDGF100995999999999999999999MA1999999096621MD1710011-0241REMSYN05848304 32960 00000 10146 20139 39662 40137 57001 333 59024=
0153483040999992015012721004+19867+099767FM-12+040199999V0209999C000019999999N002000199+01351+01291101311ADDAY101021AY201021GF100995999999999999999999MA1999999096541MD1710071-0171MW1101REMSYN06448304 31920 00000 10135 20129 39654 40131 57007 71000 333 59017=
0172483040999992015012800004+19867+099767FM-12+040199999V0209999C00001000001CN000000199+01231+01191101481ADDAY141021AY241021GF109991999999999999999999KA1120N+01161MA1999999096681MD1210141-0091MW1471REMSYN07048304 31/00 90000 10123 20119 39668 40148 52014 74744 333 20116 59009=
0153483040999992015012803004+19867+099767FM-12+040199999V0209999C000019999999N004000199+02051+01581101581ADDAY141021AY201021GF100995999999999999999999MA1999999096911MD1210231-0141MW1101REMSYN06448304 31940 00000 10205 20158 39691 40158 52023 71040 333 59014=
0153483040999992015012806004+19867+099767FM-12+040199999V0209999C000019999999N015000199+02701+01651101171ADDAY141021AY201021GF100995999999999999999999MA1999999096621MD1710301-0141MW1021REMSYN06448304 31965 00000 10270 20165 39662 40117 57030 70240 333 59014=
0169483040999992015012809004+19867+099767FM-12+040199999V0201301N002119999999N015000199+02901+01571100921ADDGA1021+012501061GE19AGL   +99999+99999GF102991021999012501999999MA1999999096411MD1710211-0021REMSYN06448304 32665 21304 10290 20157 39641 40092 57021 82500 333 59002=
0144483040999992015012812004+19867+099767FM-12+040199999V0209999C000019999999N015000199+02171+01731101091ADDGF100995999999999999999999KA1240M+02941MA1999999096461MD1210061+0001REMSYN06448304 32965 00000 10217 20173 39646 40109 52006 333 10294 58000=
0125483040999992015012815004+19867+099767FM-12+040199999V0209999C000019999999N010000199+01901+01721101341ADDGF100995999999999999999999MA1999999096661MD1210191-0021REMSYN05848304 32960 00000 10190 20172 39666 40134 52019 333 59002=
0153483040999992015012818004+19867+099767FM-12+040199999V0209999C000019999999N008000199+01651+01531101421ADDAY101021AY201021GF100995999999999999999999MA1999999096691MD1210031+0041MW1101REMSYN06448304 31958 00000 10165 20153 39669 40142 52003 71000 333 58004=
0153483040999992015012821004+19867+099767FM-12+040199999V0209999C000019999999N007000199+01501+01411101371ADDAY101021AY201021GF100995999999999999999999MA1999999096621MD1710071+0061MW1101REMSYN06448304 31957 00000 10150 20141 39662 40137 57007 71000 333 58006=
0172483040999992015012900004+19867+099767FM-12+040199999V0209999C000019999999N005000199+01361+01291101561ADDAY101021AY201021GF100995999999999999999999KA1120N+01281MA1999999096781MD1210161+0081MW1101REMSYN07048304 31950 00000 10136 20129 39678 40156 52016 71000 333 20128 58008=
0125483040999992015012903004+19867+099767FM-12+040199999V0209999C000019999999N010000199+02011+01631101651ADDGF100995999999999999999999MA1999999096971MD1210191+0061REMSYN05848304 32960 00000 10201 20163 39697 40165 52019 333 58006=
0169483040999992015012906004+19867+099767FM-12+040199999V0201001N002119999999N012000199+02731+01731101321ADDGA1011+012501081GE19AGL   +99999+99999GF101991011999012501999999MA1999999096761MD1710211+0151REMSYN06448304 32662 11004 10273 20173 39676 40132 57021 81100 333 58015=
0169483040999992015012909004+19867+099767FM-12+040199999V0209999C000019999999N015000199+02951+01391101041ADDGA1011+012501081GE19AGL   +99999+99999GF101991011999012501999999MA1999999096531MD1710231+0121REMSYN06448304 32665 10000 10295 20139 39653 40104 57023 81100 333 58012=
0144483040999992015012912004+19867+099767FM-12+040199999V0209999C000019999999N012000199+02301+01771101281ADDGF100995999999999999999999KA1240M+02971MA1999999096661MD1210141+0191REMSYN06448304 32962 00000 10230 20177 39666 40128 52014 333 10297 58019=
0125483040999992015012915004+19867+099767FM-12+040199999V0209999C000019999999N010000199+01871+01651101451ADDGF100995999999999999999999MA1999999096761MD1210091+0111REMSYN05848304 32960 00000 10187 20165 39676 40145 52009 333 58011=
0153483040999992015012918004+19867+099767FM-12+040199999V0209999C000019999999N008000199+01641+01501101481ADDAY101021AY201021GF100995999999999999999999MA1999999096751MD1610011+0061MW1101REMSYN06448304 31958 00000 10164 20150 39675 40148 56001 71000 333 58006=
0153483040999992015012921004+19867+099767FM-12+040199999V0209999C000019999999N006000199+01471+01381101431ADDAY101021AY201021GF100995999999999999999999MA1999999096681MD1610071+0061MW1101REMSYN06448304 31956 00000 10147 20138 39668 40143 56007 71000 333 58006=
0172483040999992015013000004+19867+099767FM-12+040199999V0209999C000019999999N004000199+01361+01291101631ADDAY101021AY201021GF100995999999999999999999KA1120N+01281MA1999999096851MD1210171+0071MW1101REMSYN07048304 31940 00000 10136 20129 39685 40163 52017 71000 333 20128 58007=
0153483040999992015013003004+19867+099767FM-12+040199999V0209999C000019999999N008000199+02081+01631101711ADDAY101021AY201021GF100995999999999999999999MA1999999097041MD1210201+0061MW1101REMSYN06448304 31958 00000 10208 20163 39704 40171 52020 71000 333 58006=
0125483040999992015013006004+19867+099767FM-12+040199999V0209999C000019999999N010000199+02661+01561101381ADDGF100995999999999999999999MA1999999096811MD1710231+0071REMSYN05848304 32960 00000 10266 20156 39681 40138 57023 333 58007=
0125483040999992015013009004+19867+099767FM-12+040199999V0209999C000019999999N012000199+02971+01661101051ADDGF100995999999999999999999MA1999999096541MD1710281+0011REMSYN05848304 32962 00000 10297 20166 39654 40105 57028 333 58001=
0144483040999992015013012004+19867+099767FM-12+040199999V0209999C000019999999N010000199+02341+02001101201ADDGF100995999999999999999999KA1240M+03001MA1999999096591MD1210061-0081REMSYN06448304 32960 00000 10234 20200 39659 40120 52006 333 10300 59008=
0125483040999992015013015004+19867+099767FM-12+040199999V0209999C000019999999N012000199+01831+01681101471ADDGF100995999999999999999999MA1999999096771MD1210181+0021REMSYN05848304 32962 00000 10183 20168 39677 40147 52018 333 58002=
0125483040999992015013018004+19867+099767FM-12+040199999V0209999C000019999999N010000199+01571+01501101521ADDGF100995999999999999999999MA1999999096771MD1410001+0041REMSYN05848304 32960 00000 10157 20150 39677 40152 54000 333 58004=
0153483040999992015013021004+19867+099767FM-12+040199999V0209999C000019999999N002000199+01471+01421101451ADDAY101021AY201021GF100995999999999999999999MA1999999096701MD1710081+0021MW1101REMSYN06448304 31920 00000 10147 20142 39670 40145 57008 71000 333 58002=
0172483040999992015013100004+19867+099767FM-12+040199999V0209999C000019999999N002000199+01401+01361101621ADDAY101021AY201021GF100995999999999999999999KA1120N+01281MA1999999096841MD1210141-0011MW1101REMSYN07048304 31920 00000 10140 20136 39684 40162 52014 71000 333 20128 59001=
0125483040999992015013103004+19867+099767FM-12+040199999V0209999C000019999999N012000199+01991+01681101741ADDGF100995999999999999999999MA1999999097051MD1210211+0031REMSYN05848304 32962 00000 10199 20168 39705 40174 52021 333 58003=
0125483040999992015013106004+19867+099767FM-12+040199999V0209999C000019999999N015000199+02681+01781101381ADDGF100995999999999999999999MA1999999096821MD1710241+0001REMSYN05848304 32965 00000 10268 20178 39682 40138 57024 333 58000=
0169483040999992015013109004+19867+099767FM-12+040199999V0201501N002119999999N015000199+02901+01651101091ADDGA1031+012501061GE19AGL   +99999+99999GF103991031999012501999999MA1999999096571MD1710241+0041REMSYN06448304 32665 31504 10290 20165 39657 40109 57024 83500 333 58004=
0220483040999992015013112004+19867+099767FM-12+040199999V0209999C000019999999N012000199+02231+01831101201ADDGA1031+012501061GA2999+999999031GA3999+999999021GE19AGL   +99999+99999GF106991031999012501999999KA1240M+02981MA1999999096571MD1410001+0001REMSYN07048304 32662 60000 10223 20183 39657 40120 54000 83546 333 10298 58000=
0125483040999992015013115004+19867+099767FM-12+040199999V0209999C000019999999N012000199+02001+01741101461ADDGF100995999999999999999999MA1999999096781MD1210211-0021REMSYN05848304 32962 00000 10200 20174 39678 40146 52021 333 59002=
0125483040999992015013118004+19867+099767FM-12+040199999V0209999C000019999999N010000199+01811+01711101391ADDGF100995999999999999999999MA1999999096701MD1710091-0121REMSYN05848304 32960 00000 10181 20171 39670 40139 57009 333 59012=
0153483040999992015013121004+19867+099767FM-12+040199999V0209999C000019999999N002000199+01801+01731101451ADDAY101021AY201021GF100995999999999999999999MA1999999096751MD1710061+0001MW1101REMSYN06448304 31920 00000 10180 20173 39675 40145 57006 71000 333 58000=
0248483040999992015020100004+19867+099767FM-12+040199999V0209999C000019999999N002000199+01811+01761101621ADDAY111021AY211021GA1031+012501061GA2999+999999031GA3999+999999021GE19AGL   +99999+99999GF105991031999012501999999KA1120N+01741MA1999999096911MD1210161+0001MW1101REMSYN07648304 31620 50000 10181 20176 39691 40162 52016 71011 83545 333 20174 58000=
0153483040999992015020103004+19867+099767FM-12+040199999V0209999C000019999999N006000199+02451+01991101751ADDAY101021AY201021GF100995999999999999999999MA1999999097131MD1210231+0011MW1101REMSYN06448304 31956 00000 10245 20199 39713 40175 52023 71000 333 58001=
0169483040999992015020106004+19867+099767FM-12+040199999V0209999C000019999999N012000199+02701+01611101461ADDGA1021+012501061GE19AGL   +99999+99999GF102991021999012501999999MA1999999096891MD1710241+0081REMSYN06448304 32662 20000 10270 20161 39689 40146 57024 82500 333 58008=
0169483040999992015020109004+19867+099767FM-12+040199999V0201301N001519999999N012000199+02901+01691101111ADDGA1021+012501081GE19AGL   +99999+99999GF102991021999012501999999MA1999999096591MD1710311+0021REMSYN06448304 32662 21303 10290 20169 39659 40111 57031 82100 333 58002=
0220483040999992015020112004+19867+099767FM-12+040199999V0209999C000019999999N010000199+02341+01761101271ADDGA1031+012501061GA2999+999999031GA3999+999999021GE19AGL   +99999+99999GF105991031999012501999999KA1240M+02911MA1999999096661MD1210081+0071REMSYN07048304 32660 50000 10234 20176 39666 40127 52008 83546 333 10291 58007=
0201483040999992015020115004+19867+099767FM-12+040199999V0209999C000019999999N010000199+02301+01941101551ADDGA1031+012501061GA2999+999999031GA3999+999999021GE19AGL   +99999+99999GF105991031999012501999999MA1999999096921MD1210261+0091REMSYN06448304 32660 50000 10230 20194 39692 40155 52026 83546 333 58009=
0229483040999992015020118004+19867+099767FM-12+040199999V0209999C000019999999N008000199+02001+01841101661ADDAY121021AY211021GA1041+012501061GA2999+999999031GA3999+999999021GE19AGL   +99999+99999GF106991041999012501999999MA1999999096971MD1210061+0141MW1101REMSYN07048304 31658 60000 10200 20184 39697 40166 52006 71021 84546 333 58014=
0229483040999992015020121004+19867+099767FM-12+040199999V0209999C000019999999N006000199+01951+01801101621ADDAY121021AY221021GA1051+012501061GA2999+999999031GA3999+999999021GE19AGL   +99999+99999GF106991051999012501999999MA1999999096931MD1710041+0171MW1101REMSYN07048304 31656 60000 10195 20180 39693 40162 57004 71022 85546 333 58017=
0248483040999992015020200004+19867+099767FM-12+040199999V0209999C000019999999N006000199+01791+01691101821ADDAY121021AY211021GA1021+012501061GA2999+999999031GA3999+999999021GE19AGL   +99999+99999GF102991021999012501999999KA1120N+01761MA1999999097101MD1210171+0211MW1101REMSYN07648304 31656 20000 10179 20169 39710 40182 52017 71021 82546 333 20176 58021=
0153483040999992015020203004+19867+099767FM-12+040199999V0209999C000019999999N007000199+02321+01701101991ADDAY101021AY201021GF100995999999999999999999MA1999999097341MD1210241+0241MW1101REMSYN06448304 31957 00000 10232 20170 39734 40199 52024 71000 333 58024=
0125483040999992015020206004+19867+099767FM-12+040199999V0202201N001519999999N010000199+02791+01531101641ADDGF100995999999999999999999MA1999999097081MD1710261+0181REMSYN05848304 32960 02203 10279 20153 39708 40164 57026 333 58018=
0169483040999992015020209004+19867+099767FM-12+040199999V0201501N001519999999N010000199+02901+01591101321ADDGA1011+012501081GE19AGL   +99999+99999GF101991011999012501999999MA1999999096791MD1710291+0211REMSYN06448304 32660 11503 10290 20159 39679 40132 57029 81100 333 58021=
0144483040999992015020212004+19867+099767FM-12+040199999V0209999C000019999999N010000199+02431+01931101591ADDGF100995999999999999999999KA1240M+02941MA1999999096981MD1210191+0321REMSYN06448304 32960 00000 10243 20193 39698 40159 52019 333 10294 58032=
0197483040999992015020215004+19867+099767FM-12+040199999V0209999C000019999999N008000199+02001+01791101861ADDAY101021AY201021GA1021+012501061GE19AGL   +99999+99999GF102991021999012501999999MA1999999097171MD1210191+0311MW1101REMSYN07048304 31658 20000 10200 20179 39717 40186 52019 71000 82500 333 58031=
0153483040999992015020218004+19867+099767FM-12+040199999V0209999C000019999999N007000199+01861+01761101921ADDAY101021AY201021GF100995999999999999999999MA1999999097201MD1210041+0261MW1101REMSYN06448304 31957 00000 10186 20176 39720 40192 52004 71000 333 58026=
0153483040999992015020221004+19867+099767FM-12+040199999V0209999C000019999999N005000199+01711+01631101891ADDAY101021AY201021GF100995999999999999999999MA1999999097151MD1610051+0271MW1101REMSYN06448304 31950 00000 10171 20163 39715 40189 56005 71000 333 58027=
0232483040999992015020300004+19867+099767FM-12+040199999V0209999C000019999999N004000199+01641+01591101981ADDAY101021AY201021GA1021+012501061GA2999+999999031GE19AGL   +99999+99999GF102991021999012501999999KA1120N+01601MA1999999097231MD1210081+0161MW1101REMSYN07648304 31640 20000 10164 20159 39723 40198 52008 71000 82540 333 20160 58016=
0197483040999992015020303004+19867+099767FM-12+040199999V0209999C000019999999N007000199+02071+01811102141ADDAY101021AY201021GA1011+999999031GE19AGL   +99999+99999GF101991011999999999999999MA1999999097451MD1210221+0161MW1101REMSYN07048304 31957 10000 10207 20181 39745 40214 52022 71000 81040 333 58016=
0169483040999992015020306004+19867+099767FM-12+040199999V0200601N001019999999N010000199+02741+01851101771ADDGA1011+008001081GE19AGL   +99999+99999GF101991011999008001999999MA1999999097191MD1710261+0131REMSYN06448304 32560 10602 10274 20185 39719 40177 57026 81200 333 58013=
0188483040999992015020309004+19867+099767FM-12+040199999V0202301N002619999999N012000199+02971+01801101451ADDGA1999+999999001GE19AGL   +99999+99999GF101991001999999999999999MA1999999096921MD1710271+0131REMSYN06448304 32962 12305 10297 20180 39692 40145 57027 80002 333 58013=EQDQ01    003SCCGA1
0207483040999992015020312004+19867+099767FM-12+040199999V0209999C000019999999N010000199+02431+02091101571ADDGA1999+999999021GE19AGL   +99999+99999GF102991001999999999999999KA1240M+03001MA1999999096961MD1210041-0021REMSYN07048304 32960 20000 10243 20209 39696 40157 52004 80005 333 10300 59002=EQDQ01    003SCCGA1
0125483040999992015020315004+19867+099767FM-12+040199999V0209999C000019999999N010000199+01981+01831101801ADDGF100995999999999999999999MA1999999097111MD1210141-0061REMSYN05848304 32960 00000 10198 20183 39711 40180 52014 333 59006=
0125483040999992015020318004+19867+099767FM-12+040199999V0209999C000019999999N010000199+01711+01631101731ADDGF100995999999999999999999MA1999999097001MD1710101-0191REMSYN05848304 32960 00000 10171 20163 39700 40173 57010 333 59019=
0153483040999992015020321004+19867+099767FM-12+040199999V0209999C000019999999N002000199+01601+01531101631ADDAY101021AY201021GF100995999999999999999999MA1999999096891MD1710111-0261MW1101REMSYN06448304 31920 00000 10160 20153 39689 40163 57011 71000 333 59026=
0172483040999992015020400004+19867+099767FM-12+040199999V0209999C000019999999N002000199+01601+01561101841ADDAY101021AY201021GF100995999999999999999999KA1120N+01571MA1999999097091MD1210201-0141MW1101REMSYN07048304 31920 00000 10160 20156 39709 40184 52020 71000 333 20157 59014=
0153483040999992015020403004+19867+099767FM-12+040199999V0209999C000019999999N003000199+02111+01791101921ADDAY101021AY201021GF100995999999999999999999MA1999999097241MD1210151-0231MW1101REMSYN06448304 31930 00000 10211 20179 39724 40192 52015 71000 333 59023=
0169483040999992015020406004+19867+099767FM-12+040199999V0209999C000019999999N015000199+02801+01871101481ADDGA1021+012501061GE19AGL   +99999+99999GF102991021999012501999999MA1999999096931MD1710311-0291REMSYN06448304 32665 20000 10280 20187 39693 40148 57031 82500 333 59029=
0185483040999992015020409004+19867+099767FM-12+040199999V0209999C000019999999N015000199+03051+01671101211ADDGA1021+012501061GA2999+999999001GE19AGL   +99999+99999GF104991021999012501999999MA1999999096711MD1710221-0231REMSYN06448304 32665 40000 10305 20167 39671 40121 57022 82501 333 59023=
0131483040999992015020412004+19867+099767FM-12+040199999V0209999C000019999999N015000199+02261+01711101411ADDGF100995999999999999999999MA1999999096781MD1210071-0161REMSYN06448304 32965 00000 10226 20171 39678 40141 52007 333 10309 59016=
0188483040999992015020415004+19867+099767FM-12+040199999V0209999C000019999999N012000199+01901+01751101671ADDGA1999+999999001GE19AGL   +99999+99999GF102991001999999999999999MA1999999096971MD1210191-0131REMSYN06448304 32962 20000 10190 20175 39697 40167 52019 80001 333 59013=EQDQ01    003SCCGA1
0125483040999992015020418004+19867+099767FM-12+040199999V0209999C000019999999N010000199+01631+01531101591ADDGF100995999999999999999999MA1999999096861MD1710111-0141REMSYN05848304 32960 00000 10163 20153 39686 40159 57011 333 59014=
0216483040999992015020421004+19867+099767FM-12+040199999V0209999C000019999999N002000199+01471+01421101651ADDAY101021AY201021GA1999+999999001GE19AGL   +99999+99999GF102991001999999999999999MA1999999096881MD1990031+0021MW1101REMSYN07048304 31920 20000 10147 20142 39688 40165 50003 71000 80001 333 58002=EQDQ01    003SCCGA1
0172483040999992015020500004+19867+099767FM-12+040199999V0209999C000019999999N002000199+01341+01301101801ADDAY101021AY201021GF100995999999999999999999KA1120N+01291MA1999999097011MD1210131-0041MW1101REMSYN07048304 31920 00000 10134 20130 39701 40180 52013 71000 333 20129 59004=
0153483040999992015020503004+19867+099767FM-12+040199999V0201201N001519999999N008000199+02101+01411101891ADDAY101021AY201021GF100995999999999999999999MA1999999097221MD1210211-0021MW1101REMSYN06448304 31958 01203 10210 20141 39722 40189 52021 71000 333 59002=
0169483040999992015020506004+19867+099767FM-12+040199999V0209999C000019999999N015000199+02701+01451101471ADDGA1021+012501061GE19AGL   +99999+99999GF102991021999012501999999MA1999999096901MD1710321-0011REMSYN06448304 32665 20000 10270 20145 39690 40147 57032 82500 333 59001=
0169483040999992015020509004+19867+099767FM-12+040199999V0209999C000019999999N015000199+02951+01471101131ADDGA1021+012501061GE19AGL   +99999+99999GF102991021999012501999999MA1999999096621MD1710281-0081REMSYN06448304 32665 20000 10295 20147 39662 40113 57028 82500 333 59008=
0175483040999992015020512004+19867+099767FM-12+040199999V0209999C000019999999N012000199+02221+01661101291ADDGA1021+012501061GE19AGL   +99999+99999GF102991021999012501999999MA1999999096661MD1210031-0131REMSYN07048304 32662 20000 10222 20166 39666 40129 52003 82500 333 10298 59013=
0125483040999992015020515004+19867+099767FM-12+040199999V0209999C000019999999N010000199+01821+01571101521ADDGF100995999999999999999999MA1999999096821MD1210161-0151REMSYN05848304 32960 00000 10182 20157 39682 40152 52016 333 59015=
0153483040999992015020518004+19867+099767FM-12+040199999V0209999C000019999999N008000199+01681+01561101571ADDAY101021AY201021GF100995999999999999999999MA1999999096841MD1110031-0021MW1101REMSYN06448304 31958 00000 10168 20156 39684 40157 51003 71000 333 59002=
0153483040999992015020521004+19867+099767FM-12+040199999V0209999C000019999999N007000199+01591+01501101481ADDAY101021AY201021GF100995999999999999999999MA1999999096741MD1710101-0171MW1101REMSYN06448304 31957 00000 10159 20150 39674 40148 57010 71000 333 59017=
0216483040999992015020600004+19867+099767FM-12+040199999V0209999C000019999999N008000199+01501+01431101671ADDAY111021AY211021GA1051+008001081GE19AGL   +99999+99999GF105991051999008001999999KA1120N+01461MA1999999096911MD1210161-0141MW1101REMSYN07648304 31558 50000 10150 20143 39691 40167 52016 71011 85800 333 20146 59014=
0213483040999992015020603004+19867+099767FM-12+040199999V0209999C000019999999N008000199+02021+01641101531ADDAY111021AY211021GA1041+012501081GA2999+999999021GE19AGL   +99999+99999GF105991041999012501999999MA1999999096861MD1610051-0371MW1101REMSYN07048304 31658 50000 10202 20164 39686 40153 56005 71011 84106 333 59037=
0169483040999992015020606004+19867+099767FM-12+040199999V0201901N003619999999N010000199+02781+01541101401ADDGA1031+012501081GE19AGL   +99999+99999GF103991031999012501999999MA1999999096851MD1710011-0071REMSYN06448304 32660 31907 10278 20154 39685 40140 57001 83100 333 59007=
0169483040999992015020609004+19867+099767FM-12+040199999V0209999C000019999999N012000199+02931+01471101081ADDGA1021+008001081GE19AGL   +99999+99999GF102991021999008001999999MA1999999096571MD1710281-0051REMSYN06448304 32562 20000 10293 20147 39657 40108 57028 82800 333 59005=
0204483040999992015020612004+19867+099767FM-12+040199999V0209999C000019999999N010000199+02451+01801101281ADDGA1011+012501061GA2999+999999021GE19AGL   +99999+99999GF102991011999012501999999KA1240M+02961MA1999999096681MD1210121-0011REMSYN07048304 32660 20000 10245 20180 39668 40128 52012 81505 333 10296 59001=
0125483040999992015020615004+19867+099767FM-12+040199999V0209999C000019999999N010000199+01991+01731101601ADDGF100995999999999999999999MA1999999096921MD1210231+0081REMSYN05848304 32960 00000 10199 20173 39692 40160 52023 333 58008=
0153483040999992015020618004+19867+099767FM-12+040199999V0209999C000019999999N008000199+01801+01671101511ADDAY101021AY201021GF100995999999999999999999MA1999999096801MD1710121-0071MW1101REMSYN06448304 31958 00000 10180 20167 39680 40151 57012 71000 333 59007=
0197483040999992015020621004+19867+099767FM-12+040199999V0209999C000019999999N007000199+01671+01571101431ADDAY101021AY201021GA1021+012501061GE19AGL   +99999+99999GF102991021999012501999999MA1999999096711MD1710091-0041MW1101REMSYN07048304 31657 20000 10167 20157 39671 40143 57009 71000 82500 333 59004=
0235483040999992015020700004+19867+099767FM-12+040199999V0209999C000019999999N006000199+01441+01391101581ADDAY121021AY201021GA1999+999999021GE19AGL   +99999+99999GF106991001999999999999999KA1120N+01411MA1999999096811MD1210101-0091MW1101REMSYN07648304 31956 60000 10144 20139 39681 40158 52010 71020 80007 333 20141 59009=EQDQ01    003SCCGA1
0188483040999992015020703004+19867+099767FM-12+040199999V0209999C000019999999N010000199+01991+01611101721ADDGA1999+999999021GE19AGL   +99999+99999GF102991001999999999999999MA1999999097031MD1210221+0191REMSYN06448304 32960 20000 10199 20161 39703 40172 52022 80005 333 58019=EQDQ01    003SCCGA1
0188483040999992015020706004+19867+099767FM-12+040199999V0209999C000019999999N012000199+02701+01671101331ADDGA1999+999999021GE19AGL   +99999+99999GF105991001999999999999999MA1999999096771MD1710261-0061REMSYN06448304 32962 50000 10270 20167 39677 40133 57026 80007 333 59006=EQDQ01    003SCCGA1
0188483040999992015020709004+19867+099767FM-12+040199999V0209999C000019999999N012000199+02901+01471101061ADDGA1999+999999021GE19AGL   +99999+99999GF106991001999999999999999MA1999999096541MD1710241-0031REMSYN06448304 32962 60000 10290 20147 39654 40106 57024 80007 333 59003=EQDQ01    003SCCGA1
0207483040999992015020712004+19867+099767FM-12+040199999V0209999C000019999999N010000199+02291+01881101261ADDGA1999+999999021GE19AGL   +99999+99999GF102991001999999999999999KA1240M+02921MA1999999096641MD1210101-0021REMSYN07048304 32960 20000 10229 20188 39664 40126 52010 80005 333 10292 59002=EQDQ01    003SCCGA1
0125483040999992015020715004+19867+099767FM-12+040199999V0209999C000019999999N010000199+01851+01701101551ADDGF100995999999999999999999MA1999999096851MD1210211-0051REMSYN05848304 32960 00000 10185 20170 39685 40155 52021 333 59005=
0125483040999992015020718004+19867+099767FM-12+040199999V0209999C000019999999N010000199+01581+01471101541ADDGF100995999999999999999999MA1999999096801MD1710051+0041REMSYN05848304 32960 00000 10158 20147 39680 40154 57005 333 58004=
0153483040999992015020721004+19867+099767FM-12+040199999V0209999C000019999999N002000199+01461+01411101551ADDAY101021AY201021GF100995999999999999999999MA1999999096791MD1710011+0121MW1101REMSYN06448304 31920 00000 10146 20141 39679 40155 57001 71000 333 58012=
0232483040999992015020800004+19867+099767FM-12+040199999V0209999C000019999999N002000199+01391+01351101731ADDAY101021AY201021GA1021+012501061GA2999+999999001GE19AGL   +99999+99999GF102991021999012501999999KA1120N+01351MA1999999096951MD1210161+0151MW1101REMSYN07648304 31620 20000 10139 20135 39695 40173 52016 71000 82501 333 20135 58015=
0213483040999992015020803004+19867+099767FM-12+040199999V0209999C000019999999N005000199+01951+01631101881ADDAY111021AY211021GA1021+012501061GA2999+999999001GE19AGL   +99999+99999GF103991021999012501999999MA1999999097181MD1210231+0151MW1101REMSYN07048304 31650 30000 10195 20163 39718 40188 52023 71011 82501 333 58015=
0188483040999992015020806004+19867+099767FM-12+040199999V0209999C000019999999N012000199+02681+01571101391ADDGA1999+999999001GE19AGL   +99999+99999GF102991001999999999999999MA1999999096831MD1710351+0061REMSYN06448304 32962 20000 10268 20157 39683 40139 57035 80001 333 58006=EQDQ01    003SCCGA1
0169483040999992015020809004+19867+099767FM-12+040199999V0200701N001519999999N015000199+02921+01581101051ADDGA1031+012501061GE19AGL   +99999+99999GF103991031999012501999999MA1999999096531MD1710291-0011REMSYN06448304 32665 30703 10292 20158 39653 40105 57029 83500 333 59001=
0207483040999992015020812004+19867+099767FM-12+040199999V0209999C000019999999N015000199+02221+01681101291ADDGA1999+999999001GE19AGL   +99999+99999GF103991001999999999999999KA1240M+02951MA1999999096661MD1210121+0031REMSYN07048304 32965 30000 10222 20168 39666 40129 52012 80001 333 10295 58003=EQDQ01    003SCCGA1
0201483040999992015020815004+19867+099767FM-12+040199999V0209999C000019999999N012000199+01921+01761101551ADDGA1021+012501061GA2999+999999031GA3999+999999001GE19AGL   +99999+99999GF104991021999012501999999MA1999999096861MD1210211+0001REMSYN06448304 32662 40000 10192 20176 39686 40155 52021 82541 333 58000=
0125483040999992015020818004+19867+099767FM-12+040199999V0209999C000019999999N010000199+01731+01651101601ADDGF100995999999999999999999MA1999999096881MD1990021+0061REMSYN05848304 32960 00000 10173 20165 39688 40160 50002 333 58006=
0153483040999992015020821004+19867+099767FM-12+040199999V0209999C000019999999N002000199+01531+01461101601ADDAY101021AY201021GF100995999999999999999999MA1999999096851MD1710031+0051MW1101REMSYN06448304 31920 00000 10153 20146 39685 40160 57003 71000 333 58005=
0232483040999992015020900004+19867+099767FM-12+040199999V0209999C000019999999N002000199+01481+01431101811ADDAY111021AY211021GA1031+999999031GA2999+999999001GE19AGL   +99999+99999GF104991031999999999999999KA1120N+01441MA1999999097041MD1210191+0081MW1101REMSYN07648304 31920 40000 10148 20143 39704 40181 52019 71011 83041 333 20144 58008=
0216483040999992015020903004+19867+099767FM-12+040199999V0209999C000019999999N004000199+02101+01811101871ADDAY111021AY211021GA1999+999999001GE19AGL   +99999+99999GF103991001999999999999999MA1999999097191MD1210151-0011MW1101REMSYN07048304 31940 30000 10210 20181 39719 40187 52015 71011 80001 333 59001=EQDQ01    003SCCGA1
0188483040999992015020906004+19867+099767FM-12+040199999V0209999C000019999999N012000199+02701+01671101471ADDGA1999+999999001GE19AGL   +99999+99999GF102991001999999999999999MA1999999096901MD1710291+0081REMSYN06448304 32962 20000 10270 20167 39690 40147 57029 80001 333 58008=EQDQ01    003SCCGA1
0185483040999992015020909004+19867+099767FM-12+040199999V0209999C000019999999N015000199+02901+01711101191ADDGA1021+012501061GA2999+999999021GE19AGL   +99999+99999GF104991021999012501999999MA1999999096661MD1710241+0141REMSYN06448304 32665 40000 10290 20171 39666 40119 57024 82505 333 58014=
0204483040999992015020912004+19867+099767FM-12+040199999V0209999C000019999999N012000199+02381+01771101341ADDGA1051+999999031GA2999+999999021GE19AGL   +99999+99999GF106991051999999999999999KA1240M+02921MA1999999096731MD1210071+0061REMSYN07048304 32962 60000 10238 20177 39673 40134 52007 85056 333 10292 58006=
0216483040999992015020915004+19867+099767FM-12+040199999V0209999C000019999999N008000199+02071+01861101551ADDAY121021AY201021GA1999+999999021GE19AGL   +99999+99999GF102991001999999999999999MA1999999096881MD1110151+0001MW1101REMSYN07048304 31958 20000 10207 20186 39688 40155 51015 71020 80005 333 58000=EQDQ01    003SCCGA1
0216483040999992015020918004+19867+099767FM-12+040199999V0209999C000019999999N007000199+01831+01711101591ADDAY121021AY201021GA1999+999999021GE19AGL   +99999+99999GF102991001999999999999999MA1999999096881MD1410001-0021MW1101REMSYN07048304 31957 20000 10183 20171 39688 40159 54000 71020 80005 333 59002=EQDQ01    003SCCGA1
0153483040999992015020921004+19867+099767FM-12+040199999V0209999C000019999999N006000199+01691+01601101561ADDAY101021AY201021GF100995999999999999999999MA1999999096841MD1610041-0041MW1101REMSYN06448304 31956 00000 10169 20160 39684 40156 56004 71000 333 59004=
0235483040999992015021000004+19867+099767FM-12+040199999V0209999C000019999999N006000199+01571+01501101711ADDAY101021AY201021GA1999+999999021GE19AGL   +99999+99999GF102991001999999999999999KA1120N+01541MA1999999096961MD1210121-0111MW1101REMSYN07648304 31956 20000 10157 20150 39696 40171 52012 71000 80005 333 20154 59011=EQDQ01    003SCCGA1
0153483040999992015021003004+19867+099767FM-12+040199999V0209999C000019999999N007000199+02161+01741101831ADDAY101021AY201021GF100995999999999999999999MA1999999097161MD1210211-0041MW1101REMSYN06448304 31957 00000 10216 20174 39716 40183 52021 71000 333 59004=
0216483040999992015021006004+19867+099767FM-12+040199999V0202001N001519999999N008000199+02791+01631101371ADDAY121021AY201021GA1999+999999021GE19AGL   +99999+99999GF106991001999999999999999MA1999999096821MD1710341-0101MW1051REMSYN07048304 31958 62003 10279 20163 39682 40137 57034 70520 80007 333 59010=EQDQ01    003SCCGA1
0229483040999992015021009004+19867+099767FM-12+040199999V0209999C000019999999N008000199+03011+01681100971ADDAY121021AY211021GA1011+012501081GA2999+999999031GA3999+999999021GE19AGL   +99999+99999GF104991011999012501999999MA1999999096471MD1710351-0221MW1051REMSYN07048304 31658 40000 10301 20168 39647 40097 57035 70521 81146 333 59022=
0248483040999992015021012004+19867+099767FM-12+040199999V0209999C000019999999N007000199+02431+01951101121ADDAY121021AY211021GA1021+008001081GA2999+999999031GA3999+999999021GE19AGL   +99999+99999GF104991021999008001999999KA1240M+03021MA1999999096531MD1210061-0221MW1101REMSYN07648304 31557 40000 10243 20195 39653 40112 52006 71021 82846 333 10302 59022=
0153483040999992015021015004+19867+099767FM-12+040199999V0209999C000019999999N005000199+02071+01891101311ADDAY101021AY201021GF100995999999999999999999MA1999999096651MD1210121-0241MW1101REMSYN06448304 31950 00000 10207 20189 39665 40131 52012 71000 333 59024=
0153483040999992015021018004+19867+099767FM-12+040199999V0209999C000019999999N004000199+01851+01771101381ADDAY101021AY201021GF100995999999999999999999MA1999999096691MD1210031-0211MW1101REMSYN06448304 31940 00000 10185 20177 39669 40138 52003 71000 333 59021=
0153483040999992015021021004+19867+099767FM-12+040199999V0209999C000019999999N002000199+01671+01601101251ADDAY101021AY201021GF100995999999999999999999MA1999999096531MD1710151-0321MW1101REMSYN06448304 31920 00000 10167 20160 39653 40125 57015 71000 333 59032=
0216483040999992015021100004+19867+099767FM-12+040199999V0209999C000019999999N002000199+01611+01561101431ADDAY111021AY211021GA1041+999999031GE19AGL   +99999+99999GF104991041999999999999999KA1120N+01541MA1999999096701MD1210171-0271MW1101REMSYN07648304 31920 40000 10161 20156 39670 40143 52017 71011 84040 333 20154 59027=
0213483040999992015021103004+19867+099767FM-12+040199999V0209999C000019999999N004000199+02151+01581101551ADDAY111021AY211021GA1031+999999031GA2999+999999021GE19AGL   +99999+99999GF105991031999999999999999MA1999999096901MD1210201-0281MW1101REMSYN07048304 31940 50000 10215 20158 39690 40155 52020 71011 83046 333 59028=
0216483040999992015021106004+19867+099767FM-12+040199999V0209999C000019999999N006000199+02701+01631101171ADDAY121021AY211021GA1999+999999021GE19AGL   +99999+99999GF106991001999999999999999MA1999999096611MD1710281-0211MW1051REMSYN07048304 31956 60000 10270 20163 39661 40117 57028 70521 80006 333 59021=EQDQ01    003SCCGA1
0188483040999992015021109004+19867+099767FM-12+040199999V0209999C000019999999N012000199+02901+01051100951ADDGA1999+999999021GE19AGL   +99999+99999GF106991001999999999999999MA1999999096441MD1710181-0021REMSYN06448304 32962 60000 10290 20105 39644 40095 57018 80006 333 59002=EQDQ01    003SCCGA1
0207483040999992015021112004+19867+099767FM-12+040199999V0209999C000019999999N010000199+02241+01611101151ADDGA1999+999999021GE19AGL   +99999+99999GF105991001999999999999999KA1240M+02971MA1999999096531MD1210101+0031REMSYN07048304 32960 50000 10224 20161 39653 40115 52010 80006 333 10297 58003=EQDQ01    003SCCGA1
0216483040999992015021115004+19867+099767FM-12+040199999V0209999C000019999999N008000199+01871+01581101371ADDAY101021AY201021GA1999+999999021GE19AGL   +99999+99999GF102991001999999999999999MA1999999096681MD1210151+0061MW1101REMSYN07048304 31958 20000 10187 20158 39668 40137 52015 71000 80005 333 58006=EQDQ01    003SCCGA1
0153483040999992015021118004+19867+099767FM-12+040199999V0209999C000019999999N006000199+01741+01591101411ADDAY101021AY201021GF100995999999999999999999MA1999999096701MD1110021+0031MW1101REMSYN06448304 31956 00000 10174 20159 39670 40141 51002 71000 333 58003=
0197483040999992015021121004+19867+099767FM-12+040199999V0209999C000019999999N005000199+01691+01591101301ADDAY101021AY201021GA1021+012501061GE19AGL   +99999+99999GF102991021999012501999999MA1999999096591MD1710111+0061MW1101REMSYN07048304 31650 20000 10169 20159 39659 40130 57011 71000 82500 333 58006=
0248483040999992015021200004+19867+099767FM-12+040199999V0209999C000019999999N007000199+01611+01521101451ADDAY111021AY201021GA1021+012501061GA2999+999999031GA3999+999999021GE19AGL   +99999+99999GF106991021999012501999999KA1120N+01571MA1999999096721MD1210131+0011MW1101REMSYN07648304 31657 60000 10161 20152 39672 40145 52013 71010 82546 333 20157 58001=
0229483040999992015021203004+19867+099767FM-12+040199999V0209999C000019999999N007000199+02061+01611101511ADDAY121021AY221021GA1011+012501081GA2999+999999031GA3999+999999021GE19AGL   +99999+99999GF106991011999012501999999MA1999999096841MD1210131-0051MW1101REMSYN07048304 31657 60000 10206 20161 39684 40151 52013 71022 81146 333 59005=
0229483040999992015021206004+19867+099767FM-12+040199999V0209999C000019999999N008000199+02701+01631101111ADDAY121021AY221021GA1021+012501061GA2999+999999031GA3999+999999021GE19AGL   +99999+99999GF106991021999012501999999MA1999999096561MD1710281-0061MW1051REMSYN07048304 31658 60000 10270 20163 39656 40111 57028 70522 82546 333 59006=
0185483040999992015021209004+19867+099767FM-12+040199999V0209999C000019999999N010000199+02961+01711100721ADDGA1021+999999031GA2999+999999021GE19AGL   +99999+99999GF106991021999999999999999MA1999999096221MD1710341-0241REMSYN06448304 32960 60000 10296 20171 39622 40072 57034 82046 333 59024=
0248483040999992015021212004+19867+099767FM-12+040199999V0209999C000019999999N008000199+02421+01901100761ADDAY121021AY221021GA1021+012501061GA2999+999999031GA3999+999999021GE19AGL   +99999+99999GF106991021999012501999999KA1240M+02971MA1999999096181MD1610041-0401MW1101REMSYN07648304 31658 60000 10242 20190 39618 40076 56004 71022 82546 333 10297 59040=
0229483040999992015021215004+19867+099767FM-12+040199999V0209999C000019999999N007000199+02031+01771101041ADDAY121021AY221021GA1021+012501061GA2999+999999031GA3999+999999021GE19AGL   +99999+99999GF106991021999012501999999MA1999999096391MD1210211-0331MW1101REMSYN07048304 31657 60000 10203 20177 39639 40104 52021 71022 82446 333 59033=
0229483040999992015021218004+19867+099767FM-12+040199999V0209999C000019999999N006000199+01941+01811101051ADDAY121021AY221021GA1031+012501061GA2999+999999031GA3999+999999021GE19AGL   +99999+99999GF106991031999012501999999MA1999999096391MD1410001-0361MW1101REMSYN07048304 31656 60000 10194 20181 39639 40105 54000 71022 83546 333 59036=
0229483040999992015021221004+19867+099767FM-12+040199999V0209999C000019999999N006000199+01821+01741100951ADDAY111021AY211021GA1031+012501061GA2999+999999031GA3999+999999021GE19AGL   +99999+99999GF105991031999012501999999MA1999999096281MD1710111-0351MW1101REMSYN07048304 31656 50000 10182 20174 39628 40095 57011 71011 83546 333 59035=
0216483040999992015021300004+19867+099767FM-12+040199999V0209999C000019999999N008000199+01621+01531101141ADDAY111021AY211021GA1021+999999031GE19AGL   +99999+99999GF102991021999999999999999KA1120N+01591MA1999999096421MD1210151-0311MW1101REMSYN07648304 31958 20000 10162 20153 39642 40114 52015 71011 82040 333 20159 59031=
0197483040999992015021303004+19867+099767FM-12+040199999V0209999C000019999999N009000199+02211+01841101301ADDAY101021AY201021GA1021+999999031GE19AGL   +99999+99999GF102991021999999999999999MA1999999096671MD1210251-0201MW1101REMSYN07048304 31959 20000 10221 20184 39667 40130 52025 71000 82040 333 59020=
0185483040999992015021306004+19867+099767FM-12+040199999V0202301N002619999999N010000199+02981+01361100821ADDGA1011+008001081GA2999+999999031GE19AGL   +99999+99999GF103991011999008001999999MA1999999096331MD1710341-0281REMSYN06448304 32560 32305 10298 20136 39633 40082 57034 81240 333 59028=
0169483040999992015021309004+19867+099767FM-12+040199999V0201001N001519999999N010000199+03071+01311100511ADDGA1021+012501081GE19AGL   +99999+99999GF102991021999012501999999MA1999999096041MD1710291-0211REMSYN06448304 32660 21003 10307 20131 39604 40051 57029 82200 333 59021=
0188483040999992015021312004+19867+099767FM-12+040199999V0209999C000019999999N010000199+02501+01711100601ADDGA1021+008001081GE19AGL   +99999+99999GF102991021999008001999999KA1240M+03141MA1999999096051MD1110011-0151REMSYN07048304 32560 20000 10250 20171 39605 40060 51001 82800 333 10314 59015=
0153483040999992015021315004+19867+099767FM-12+040199999V0209999C000019999999N008000199+02001+01741100901ADDAY101021AY201021GF100995999999999999999999MA1999999096251MD1210201-0141MW1101REMSYN06448304 31958 00000 10200 20174 39625 40090 52020 71000 333 59014=
0153483040999992015021318004+19867+099767FM-12+040199999V0209999C000019999999N006000199+01591+01471100961ADDAY101021AY201021GF100995999999999999999999MA1999999096241MD1610011-0101MW1101REMSYN06448304 31956 00000 10159 20147 39624 40096 56001 71000 333 59010=
0153483040999992015021321004+19867+099767FM-12+040199999V0209999C000019999999N006000199+01491+01401100941ADDAY101021AY201021GF100995999999999999999999MA1999999096211MD1610041-0021MW1101REMSYN06448304 31956 00000 10149 20140 39621 40094 56004 71000 333 59002=
0172483040999992015021400004+19867+099767FM-12+040199999V0209999C000019999999N006000199+01261+01181101181ADDAY101021AY201021GF100995999999999999999999KA1120N+01211MA1999999096411MD1210201+0041MW1101REMSYN07048304 31956 00000 10126 20118 39641 40118 52020 71000 333 20121 58004=
0125483040999992015021403004+19867+099767FM-12+040199999V0209999C000019999999N010000199+02101+01581101261ADDGF100995999999999999999999MA1999999096621MD1210211-0041REMSYN05848304 32960 00000 10210 20158 39662 40126 52021 333 59004=
0169483040999992015021406004+19867+099767FM-12+040199999V0202101N002619999999N012000199+02901+01591100841ADDGA1011+008001081GE19AGL   +99999+99999GF101991011999008001999999MA1999999096331MD1710281+0021REMSYN06448304 32562 12105 10290 20159 39633 40084 57028 81200 333 58002=
