0163527870999992015010100004+37200+102867FM-12+304499999V0201601N006019999999N030000199-01201-02601999999ADDGA1021+999999999GE19AGL   +99999+99999GF102991021999999999999999MA1999999070481MD1710081+9999REMSYN05852787 32980 21606 11120 21260 37048 57008 82/// 333 05151=
0153527870999992015010103004+37200+102867FM-12+304499999V0201601N006019999999N030000199-00461-02731999999ADDGA1021+999999999GE19AGL   +99999+99999GF102991021999999999999999MA1999999070541MD1210061+9999REMSYN04852787 32980 21606 11046 21273 37054 52006 82///=
0182527870999992015010106004+37200+102867FM-12+304499999V0201601N005019999999N030000199-00141-02911999999ADDGA1071+999999999GE19AGL   +99999+99999GF107991071999999999999999KA1240N-01341MA1999999070311MD1710231+9999REMSYN06452787 32980 71605 11014 21291 37031 57023 87/// 333 05301 21134=
0163527870999992015010109004+37200+102867FM-12+304499999V0203201N006019999999N030000199-00571-02301999999ADDGA1071+999999999GE19AGL   +99999+99999GF107991071999999999999999MA1999999070361MD1210051+9999REMSYN05852787 32980 73206 11057 21230 37036 52005 87/// 333 05352=
0163527870999992015010112004+37200+102867FM-12+304499999V0201601N005019999999N030000199-00861-02551999999ADDGA1071+999999999GE19AGL   +99999+99999GF107991071999999999999999MA1999999070471MD1210111+9999REMSYN05852787 32980 71605 11086 21255 37047 52011 87/// 333 05301=
0138527870999992015010118004+37200+102867FM-12+304499999V0201601N00601002401CN030000199-01071-02251999999ADDGF109991999999999999999999KA1120M-00101MA1999999070241MD1710191+9999REMSYN05852787 32/80 91606 11107 21225 37024 57019 333 05400 11010=
0119527870999992015010121004+37200+102867FM-12+304499999V0202901N00301002401CN030000199-00621-02211999999ADDGF109991999999999999999999MA1999999070161MD1710081+9999REMSYN05252787 32/80 92903 11062 21221 37016 57008 333 05405=
0119527870999992015010200004+37200+102867FM-12+304499999V0203201N003019999999N030000199-00751-02281999999ADDGF100995999999999999999999MA1999999070221MD1210061+9999REMSYN05252787 32980 03203 11075 21228 37022 52006 333 05305=
0109527870999992015010203004+37200+102867FM-12+304499999V0202901N011019999999N028000199+00141-02321999999ADDGF100995999999999999999999MA1999999070311MD1210091+9999REMSYN04252787 32978 02911 10014 21232 37031 52009=
0138527870999992015010206004+37200+102867FM-12+304499999V0202701N009019999999N029000199+00381-02621999999ADDGF100995999999999999999999KA1240N-01141MA1999999070211MD1710101+9999REMSYN05852787 32979 02709 10038 21262 37021 57010 333 05105 21114=
0145527870999992015010209004+37200+102867FM-12+304499999V0202901N003019999999N030000199+00141-02321999999ADDGF100995999999999999999999MA1999999070231MD1210021+9999OD139901901290REMSYN06452787 32980 02903 10014 21232 37023 52002 333 05107 91119 91529=
0145527870999992015010212004+37200+102867FM-12+304499999V0203201N002019999999N030000199-00431-02441999999ADDGF100995999999999999999999MA1999999070291MD1210061+9999OD139901901290REMSYN06452787 32980 03202 11043 21244 37029 52006 333 05204 91119 91529=
0138527870999992015010218004+37200+102867FM-12+304499999V0201601N00701002401CN030000199-00471-02421999999ADDGF109991999999999999999999KA1120M+00391MA1999999070101MD1710151+9999REMSYN05852787 32/80 91607 11047 21242 37010 57015 333 05106 10039=
0119527870999992015010221004+37200+102867FM-12+304499999V0202901N00101002401CN030000199-00071-02851999999ADDGF109991999999999999999999MA1999999069961MD1710141+9999REMSYN05252787 32/80 92901 11007 21285 36996 57014 333 05206=
0119527870999992015010300004+37200+102867FM-12+304499999V0200701N001019999999N030000199-00211-02861999999ADDGF100995999999999999999999MA1999999069951MD1710011+9999REMSYN05252787 32980 00701 11021 21286 36995 57001 333 05305=
0109527870999992015010303004+37200+102867FM-12+304499999V0201601N001019999999N025000199+00441-02701999999ADDGF100995999999999999999999MA1999999070001MD1210051+9999REMSYN04252787 32975 01601 10044 21270 37000 52005=
0138527870999992015010306004+37200+102867FM-12+304499999V0201601N007019999999N023000199+00651-02861999999ADDGF100995999999999999999999KA1240N-00821MA1999999069751MD1710251+9999REMSYN05852787 32973 01607 10065 21286 36975 57025 333 05503 21082=
0119527870999992015010309004+37200+102867FM-12+304499999V0201601N004019999999N013000199+00531-02391999999ADDGF100995999999999999999999MA1999999069731MD1710021+9999REMSYN05252787 32963 01604 10053 21239 36973 57002 333 05504=
0119527870999992015010312004+37200+102867FM-12+304499999V0201401N002019999999N028000199+00081-02211999999ADDGF100995999999999999999999MA1999999069801MD1210071+9999REMSYN05252787 32978 01402 10008 21221 36980 52007 333 05505=
0138527870999992015010318004+37200+102867FM-12+304499999V0201401N00401002401CN030000199-00151-02041999999ADDGF109991999999999999999999KA1120M+00731MA1999999069631MD1710111+9999REMSYN05852787 32/80 91404 11015 21204 36963 57011 333 05503 10073=
0119527870999992015010321004+37200+102867FM-12+304499999V0203201N00501002401CN030000199-00901-01951999999ADDGF109991999999999999999999MA1999999069531MD1710101+9999REMSYN05252787 32/80 93205 11090 21195 36953 57010 333 05458=
0163527870999992015010400004+37200+102867FM-12+304499999V0202901N009019999999N030000199-01341-02021999999ADDGA1051+999999999GE19AGL   +99999+99999GF105991051999999999999999MA1999999069541MD1210011+9999REMSYN05852787 32980 52909 11134 21202 36954 52001 85/// 333 05461=
0153527870999992015010403004+37200+102867FM-12+304499999V0203601N011019999999N030000199-00641-02231999999ADDGA1071+999999999GE19AGL   +99999+99999GF107991071999999999999999MA1999999069691MD1210151+9999REMSYN04852787 32980 73611 11064 21223 36969 52015 87///=
0208527870999992015010406004+37200+102867FM-12+304499999V0203601N013019999999N030000199-00481-02131999999ADDGA1031+999999999GE19AGL   +99999+99999GF103991031999999999999999KA1240N-01401MA1999999069531MD1710161+9999OD139902101360REMSYN07652787 32980 33613 11048 21213 36953 57016 83/// 333 05261 21140 91121 91536=
0189527870999992015010409004+37200+102867FM-12+304499999V0203601N014019999999N030000199-00651-02321999999ADDGA1061+999999999GE19AGL   +99999+99999GF106991061999999999999999MA1999999069671MD1210141+9999OD139902101360REMSYN07052787 32980 63614 11065 21232 36967 52014 86/// 333 05162 91121 91536=
0189527870999992015010412004+37200+102867FM-12+304499999V0203601N016019999999N030000199-00741-02091999999ADDGA1071+999999999GE19AGL   +99999+99999GF107991071999999999999999MA1999999069781MD1210111+9999OD139902301360REMSYN07052787 32980 73616 11074 21209 36978 52011 87/// 333 00058 91123 91536=
0164527870999992015010418004+37200+102867FM-12+304499999V0203401N01101002401CN030000199-00841-01491999999ADDGF109991999999999999999999KA1120M-00071MA1999999070021MD1210081+9999OD139901901340REMSYN07052787 32/80 93411 11084 21149 37002 52008 333 00457 11007 91119 91534=
0145527870999992015010421004+37200+102867FM-12+304499999V0203601N01001002401CN030000199-01021-01951999999ADDGF109991999999999999999999MA1999999070001MD1710021+9999OD139901801020REMSYN06452787 32/80 93610 11102 21195 37000 57002 333 00551 91118 91502=
0189527870999992015010500004+37200+102867FM-12+304499999V0203401N010019999999N030000199-01201-02201999999ADDGA1071+017501999GE19AGL   +99999+99999GF107991071999017501999999MA1999999070121MD1210121+9999OD139901801020REMSYN07052787 32780 73410 11120 21220 37012 52012 87/// 333 00601 91118 91502=
0153527870999992015010503004+37200+102867FM-12+304499999V0203201N005019999999N030000199-01081-02091999999ADDGA1071+017501999GE19AGL   +99999+99999GF107991071999017501999999MA1999999070271MD1210151+9999REMSYN04852787 32780 73205 11108 21209 37027 52015 87///=
0182527870999992015010506004+37200+102867FM-12+304499999V0203401N007019999999N030000199-00771-01891999999ADDGA1071+017501999GE19AGL   +99999+99999GF107991071999017501999999KA1240N-01421MA1999999070141MD1710131+9999REMSYN06452787 32780 73407 11077 21189 37014 57013 87/// 333 00653 21142=
0163527870999992015010509004+37200+102867FM-12+304499999V0201601N005019999999N030000199-00841-01841999999ADDGA1071+017501999GE19AGL   +99999+99999GF107991071999017501999999MA1999999070201MD1210061+9999REMSYN05852787 32780 71605 11084 21184 37020 52006 87/// 333 00552=
0163527870999992015010512004+37200+102867FM-12+304499999V0201601N006019999999N030000199-01021-01721999999ADDGA1071+017501999GE19AGL   +99999+99999GF107991071999017501999999MA1999999070241MD1210041+9999REMSYN05852787 32780 71606 11102 21172 37024 52004 87/// 333 00553=
0138527870999992015010518004+37200+102867FM-12+304499999V0201601N00201002401CN030000199-01111-01761999999ADDGF109991999999999999999999KA1120M-00701MA1999999070101MD1710091+9999REMSYN05852787 32/80 91602 11111 21176 37010 57009 333 00153 11070=
0119527870999992015010521004+37200+102867FM-12+304499999V0201801N00501002401CN030000199-00971-01671999999ADDGF109991999999999999999999MA1999999069941MD1710161+9999REMSYN05252787 32/80 91805 11097 21167 36994 57016 333 05101=
0163527870999992015010600004+37200+102867FM-12+304499999V0201401N003019999999N030000199-01061-01241999999ADDGA1081+017501999GE19AGL   +99999+99999GF108991081999017501999999MA1999999069861MD1710081+9999REMSYN05852787 32780 81403 11106 21124 36986 57008 88/// 333 05301=
0181527870999992015010603004+37200+102867FM-12+304499999V0203401N001019999999N030000199-00761-01001999999ADDAY171021AY201021GA1071+017501999GE19AGL   +99999+99999GF107991071999017501999999MA1999999069921MD1210061+9999MW1001REMSYN05452787 31780 73401 11076 21100 36992 52006 70070 87///=
0233527870999992015010606004+37200+102867FM-12+304499999V0203601N008019999999N030000199-00701-01011999999ADDAA106000431AY171021AY201021GA1071+017501999GE19AGL   +99999+99999GF107991071999017501999999KA1240N-01391MA1999999069821MD1710101+9999MW1701REMSYN08252787 11780 73608 11070 21101 36982 57010 69941 77070 87/// 333 05301 21139 92501=
0217527870999992015010609004+37200+102867FM-12+304499999V0203401N006019999999N030000199-00671-01101999999ADDAY171021AY271021GA1071+017501999GE19AGL   +99999+99999GF107991071999017501999999MA1999999070001MD1210181+9999MW1221OD139901701360REMSYN07652787 41780 73406 11067 21110 37000 52018 72277 87/// 333 05202 91117 91536=
0234527870999992015010612004+37200+102867FM-12+304499999V0202901N004019999999N030000199-00951-01441999999ADDAA106000231AY171021AY201021GA1071+999999999GE19AGL   +99999+99999GF107991071999999999999999MA1999999070141MD1210141+9999MW1001OD139901701360REMSYN08252787 11980 72904 11095 21144 37014 52014 69921 70070 87/// 333 05101 91117 91536=
0138527870999992015010618004+37200+102867FM-12+304499999V0203201N00401002401CN030000199-01011-02331999999ADDGF109991999999999999999999KA1120M-00601MA1999999070151MD1710041+9999REMSYN05852787 32/80 93204 11101 21233 37015 57004 333 00101 11060=
0136527870999992015010621004+37200+102867FM-12+304499999V0203201N00401002401CN030000199-01671-01981999999ADDAA124000631GF109991999999999999999999MA1999999070171MD1210021+9999REMSYN05852787 32/80 93204 11167 21198 37017 52002 333 00257 70006=
0186527870999992015010700004+37200+102867FM-12+304499999V0202901N003019999999N030000199-01631-01841999999ADDAA124000631GA1051+999999999GE19AGL   +99999+99999GF105991051999999999999999MA1999999070271MD1210101+9999REMSYN07052787 32980 52903 11163 21184 37027 52010 85/// 333 00456 70006 92500=
0153527870999992015010703004+37200+102867FM-12+304499999V0203601N007019999999N030000199-01241-01461999999ADDGA1071+017501999GE19AGL   +99999+99999GF107991071999017501999999MA1999999070491MD1210221+9999REMSYN04852787 32780 73607 11124 21146 37049 52022 87///=
0182527870999992015010706004+37200+102867FM-12+304499999V0203401N009019999999N030000199-00761-01791999999ADDGA1021+999999999GE19AGL   +99999+99999GF102991021999999999999999KA1240N-01731MA1999999070381MD1710111+9999REMSYN06452787 32980 23409 11076 21179 37038 57011 82/// 333 00651 21173=
0163527870999992015010709004+37200+102867FM-12+304499999V0203401N009019999999N030000199-00911-01831999999ADDGA1051+999999999GE19AGL   +99999+99999GF105991051999999999999999MA1999999070521MD1210141+9999REMSYN05852787 32980 53409 11091 21183 37052 52014 85/// 333 00552=
0163527870999992015010712004+37200+102867FM-12+304499999V0200701N003019999999N030000199-01121-01951999999ADDGA1071+999999999GE19AGL   +99999+99999GF107991071999999999999999MA1999999070731MD1210211+9999REMSYN05852787 32980 70703 11112 21195 37073 52021 87/// 333 00652=
0138527870999992015010718004+37200+102867FM-12+304499999V0200401N00101002401CN030000199-01141-01731999999ADDGF109991999999999999999999KA1120M-00731MA1999999070781MD1710011+9999REMSYN05852787 32/80 90401 11114 21173 37078 57001 333 00651 11073=
0119527870999992015010721004+37200+102867FM-12+304499999V0202001N00301002401CN030000199-01151-01741999999ADDGF109991999999999999999999MA1999999070721MD1710061+9999REMSYN05252787 32/80 92003 11115 21174 37072 57006 333 00605=
0163527870999992015010800004+37200+102867FM-12+304499999V0201801N003019999999N030000199-01421-01891999999ADDGA1021+999999999GE19AGL   +99999+99999GF102991021999999999999999MA1999999070731MD1210011+9999REMSYN05852787 32980 21803 11142 21189 37073 52001 82/// 333 00502=
0153527870999992015010803004+37200+102867FM-12+304499999V0201401N005019999999N030000199-00891-01671999999ADDGA1021+999999999GE19AGL   +99999+99999GF102991021999999999999999MA1999999070751MD1210021+9999REMSYN04852787 32980 21405 11089 21167 37075 52002 82///=
0182527870999992015010806004+37200+102867FM-12+304499999V0202001N004019999999N030000199-00391-02101999999ADDGA1031+999999999GE19AGL   +99999+99999GF103991031999999999999999KA1240N-01451MA1999999070541MD1710211+9999REMSYN06452787 32980 32004 11039 21210 37054 57021 83/// 333 00204 21145=
0163527870999992015010809004+37200+102867FM-12+304499999V0203201N005019999999N030000199-00481-02491999999ADDGA1071+999999999GE19AGL   +99999+99999GF107991071999999999999999MA1999999070571MD1210031+9999REMSYN05852787 32980 73205 11048 21249 37057 52003 87/// 333 00104=
0119527870999992015010812004+37200+102867FM-12+304499999V0201401N001019999999N030000199-01051-02111999999ADDGF100995999999999999999999MA1999999070671MD1210101+9999REMSYN05252787 32980 01401 11105 21211 37067 52010 333 05101=
0138527870999992015010818004+37200+102867FM-12+304499999V0203401N00301002401CN030000199-01271-02181999999ADDGF109991999999999999999999KA1120M-00341MA1999999070591MD1710051+9999REMSYN05852787 32/80 93403 11127 21218 37059 57005 333 05251 11034=
0119527870999992015010821004+37200+102867FM-12+304499999V0201401N00201002401CN030000199-01381-02311999999ADDGF109991999999999999999999MA1999999070551MD1710041+9999REMSYN05252787 32/80 91402 11138 21231 37055 57004 333 05252=
0119527870999992015010900004+37200+102867FM-12+304499999V0202701N002019999999N030000199-01161-02601999999ADDGF100995999999999999999999MA1999999070551MD1410001+9999REMSYN05252787 32980 02702 11116 21260 37055 54000 333 05203=
0109527870999992015010903004+37200+102867FM-12+304499999V0202901N006019999999N030000199-00681-02601999999ADDGF100995999999999999999999MA1999999070601MD1210051+9999REMSYN04252787 32980 02906 11068 21260 37060 52005=
0138527870999992015010906004+37200+102867FM-12+304499999V0202701N008019999999N030000199-00441-02871999999ADDGF100995999999999999999999KA1240N-01391MA1999999070421MD1710181+9999REMSYN05852787 32980 02708 11044 21287 37042 57018 333 05151 21139=
0119527870999992015010909004+37200+102867FM-12+304499999V0203401N003019999999N030000199-00421-02771999999ADDGF100995999999999999999999MA1999999070491MD1210071+9999REMSYN05252787 32980 03403 11042 21277 37049 52007 333 05101=
0119527870999992015010912004+37200+102867FM-12+304499999V0202501N003019999999N030000199-00831-02841999999ADDGF100995999999999999999999MA1999999070551MD1210061+9999REMSYN05252787 32980 02503 11083 21284 37055 52006 333 05102=
0138527870999992015010918004+37200+102867FM-12+304499999V0203601N00401002401CN030000199-00641-02881999999ADDGF109991999999999999999999KA1120M-00321MA1999999070381MD1710101+9999REMSYN05852787 32/80 93604 11064 21288 37038 57010 333 05206 11032=
0119527870999992015010921004+37200+102867FM-12+304499999V0202901N00501002401CN030000199-00581-02831999999ADDGF109991999999999999999999MA1999999070321MD1710061+9999REMSYN05252787 32/80 92905 11058 21283 37032 57006 333 05208=
0119527870999992015011000004+37200+102867FM-12+304499999V0203601N002019999999N030000199-00681-02841999999ADDGF100995999999999999999999MA1999999070381MD1210061+9999REMSYN05252787 32980 03602 11068 21284 37038 52006 333 05205=
0109527870999992015011003004+37200+102867FM-12+304499999V0203401N004019999999N030000199-00121-02791999999ADDGF100995999999999999999999MA1999999070501MD1210121+9999REMSYN04252787 32980 03404 11012 21279 37050 52012=
0138527870999992015011006004+37200+102867FM-12+304499999V0203601N005019999999N030000199+00091-02841999999ADDGF100995999999999999999999KA1240N-00921MA1999999070381MD1710121+9999REMSYN05852787 32980 03605 10009 21284 37038 57012 333 00005 21092=
0119527870999992015011009004+37200+102867FM-12+304499999V0203601N007019999999N030000199-00111-02601999999ADDGF100995999999999999999999MA1999999070491MD1210111+9999REMSYN05252787 32980 03607 11011 21260 37049 52011 333 00003=
0119527870999992015011012004+37200+102867FM-12+304499999V0201401N002019999999N030000199-00701-02731999999ADDGF100995999999999999999999MA1999999070611MD1210121+9999REMSYN05252787 32980 01402 11070 21273 37061 52012 333 00101=
0138527870999992015011018004+37200+102867FM-12+304499999V0201401N00301002401CN030000199-00911-02741999999ADDGF109991999999999999999999KA1120M+00091MA1999999070551MD1710041+9999REMSYN05852787 32/80 91403 11091 21274 37055 57004 333 00253 10009=
0119527870999992015011021004+37200+102867FM-12+304499999V0201401N00101002401CN030000199-00701-03081999999ADDGF109991999999999999999999MA1999999070481MD1710071+9999REMSYN05252787 32/80 91401 11070 21308 37048 57007 333 00251=
0119527870999992015011100004+37200+102867FM-12+304499999V0201801N001019999999N030000199-00631-02871999999ADDGF100995999999999999999999MA1999999070461MD1710021+9999REMSYN05252787 32980 01801 11063 21287 37046 57002 333 00101=
0109527870999992015011103004+37200+102867FM-12+304499999V0201601N004019999999N030000199-00231-02701999999ADDGF100995999999999999999999MA1999999070491MD1210031+9999REMSYN04252787 32980 01604 11023 21270 37049 52003=
0138527870999992015011106004+37200+102867FM-12+304499999V0201601N004019999999N030000199+00071-02751999999ADDGF100995999999999999999999KA1240N-00941MA1999999070281MD1710211+9999REMSYN05852787 32980 01604 10007 21275 37028 57021 333 05100 21094=
0119527870999992015011109004+37200+102867FM-12+304499999V0203601N007019999999N030000199-00201-02961999999ADDGF100995999999999999999999MA1999999070341MD1210061+9999REMSYN05252787 32980 03607 11020 21296 37034 52006 333 05251=
0119527870999992015011112004+37200+102867FM-12+304499999V0203401N002019999999N030000199-00741-02821999999ADDGF100995999999999999999999MA1999999070461MD1210121+9999REMSYN05252787 32980 03402 11074 21282 37046 52012 333 05200=
0138527870999992015011118004+37200+102867FM-12+304499999V0203401N00201002401CN030000199-00661-02701999999ADDGF109991999999999999999999KA1120M+00171MA1999999070381MD1710081+9999REMSYN05852787 32/80 93402 11066 21270 37038 57008 333 05203 10017=
0119527870999992015011121004+37200+102867FM-12+304499999V0201401N00201002401CN030000199-00661-02701999999ADDGF109991999999999999999999MA1999999070311MD1710071+9999REMSYN05252787 32/80 91402 11066 21270 37031 57007 333 05200=
0119527870999992015011200004+37200+102867FM-12+304499999V0202501N002019999999N030000199-00631-02731999999ADDGF100995999999999999999999MA1999999070311MD1410001+9999REMSYN05252787 32980 02502 11063 21273 37031 54000 333 05200=
0109527870999992015011203004+37200+102867FM-12+304499999V0202501N004019999999N030000199-00121-02531999999ADDGF100995999999999999999999MA1999999070301MD1710011+9999REMSYN04252787 32980 02504 11012 21253 37030 57001=
0182527870999992015011206004+37200+102867FM-12+304499999V0202501N002019999999N030000199+00111-02611999999ADDGA1021+999999999GE19AGL   +99999+99999GF102991021999999999999999KA1240N-00771MA1999999070101MD1710201+9999REMSYN06452787 32980 22502 10011 21261 37010 57020 82/// 333 05200 21077=
0119527870999992015011209004+37200+102867FM-12+304499999V0202901N006019999999N030000199+00091-02531999999ADDGF100995999999999999999999MA1999999070091MD1710011+9999REMSYN05252787 32980 02906 10009 21253 37009 57001 333 05303=
0119527870999992015011212004+37200+102867FM-12+304499999V0203401N001019999999N030000199-00411-02371999999ADDGF100995999999999999999999MA1999999070221MD1210131+9999REMSYN05252787 32980 03401 11041 21237 37022 52013 333 05203=
0138527870999992015011218004+37200+102867FM-12+304499999V0203401N00101002401CN030000199-00541-02481999999ADDGF109991999999999999999999KA1120M+00181MA1999999070141MD1710111+9999REMSYN05852787 32/80 93401 11054 21248 37014 57011 333 05201 10018=
0119527870999992015011221004+37200+102867FM-12+304499999V0202701N00101002401CN030000199-00511-02451999999ADDGF109991999999999999999999MA1999999070031MD1710111+9999REMSYN05252787 32/80 92701 11051 21245 37003 57011 333 05302=
0119527870999992015011300004+37200+102867FM-12+304499999V0201601N002019999999N030000199-00661-02431999999ADDGF100995999999999999999999MA1999999070041MD1210011+9999REMSYN05252787 32980 01602 11066 21243 37004 52001 333 05300=
0109527870999992015011303004+37200+102867FM-12+304499999V0203201N008019999999N030000199-00521-02361999999ADDGF100995999999999999999999MA1999999070111MD1210071+9999REMSYN04252787 32980 03208 11052 21236 37011 52007=
0182527870999992015011306004+37200+102867FM-12+304499999V0203401N007019999999N030000199-00351-02211999999ADDGA1031+999999999GE19AGL   +99999+99999GF103991031999999999999999KA1240N-00981MA1999999070051MD1710061+9999REMSYN06452787 32980 33407 11035 21221 37005 57006 83/// 333 05155 21098=
0163527870999992015011309004+37200+102867FM-12+304499999V0203201N005019999999N030000199-00701-02121999999ADDGA1071+017501999GE19AGL   +99999+99999GF107991071999017501999999MA1999999070151MD1210101+9999REMSYN05852787 32780 73205 11070 21212 37015 52010 87/// 333 00158=
0119527870999992015011312004+37200+102867FM-12+304499999V0202901N002019999999N030000199-00951-02341999999ADDGF100995999999999999999999MA1999999070301MD1210151+9999REMSYN05252787 32980 02902 11095 21234 37030 52015 333 00155=
0138527870999992015011318004+37200+102867FM-12+304499999V0201401N00201002401CN030000199-00971-02101999999ADDGF109991999999999999999999KA1120M-00291MA1999999070341MD1710041+9999REMSYN05852787 32/80 91402 11097 21210 37034 57004 333 00254 11029=
0119527870999992015011321004+37200+102867FM-12+304499999V0203601N00101002401CN030000199-00651-01901999999ADDGF109991999999999999999999MA1999999070301MD1710041+9999REMSYN05252787 32/80 93601 11065 21190 37030 57004 333 00351=
0119527870999992015011400004+37200+102867FM-12+304499999V0201601N001019999999N030000199-00641-01901999999ADDGF100995999999999999999999MA1999999070291MD1710011+9999REMSYN05252787 32980 01601 11064 21190 37029 57001 333 00300=
0109527870999992015011403004+37200+102867FM-12+304499999V0201601N003019999999N030000199-00201-01801999999ADDGF100995999999999999999999MA1999999070361MD1210071+9999REMSYN04252787 32980 01603 11020 21180 37036 52007=
0138527870999992015011406004+37200+102867FM-12+304499999V0203201N003019999999N030000199+00121-01871999999ADDGF100995999999999999999999KA1240N-01051MA1999999070141MD1710221+9999REMSYN05852787 32980 03203 10012 21187 37014 57022 333 00105 21105=
0163527870999992015011409004+37200+102867FM-12+304499999V0203201N005019999999N030000199-00501-01841999999ADDGA1071+999999999GE19AGL   +99999+99999GF107991071999999999999999MA1999999070141MD1410001+9999REMSYN05852787 32980 73205 11050 21184 37014 54000 87/// 333 00002=
0163527870999992015011412004+37200+102867FM-12+304499999V0203201N010019999999N030000199-01341-02061999999ADDGA1071+999999999GE19AGL   +99999+99999GF107991071999999999999999MA1999999070271MD1210131+9999REMSYN05852787 32980 73210 11134 21206 37027 52013 87/// 333 00054=
0138527870999992015011418004+37200+102867FM-12+304499999V0200201N00901002401CN030000199-01111-02091999999ADDGF109991999999999999999999KA1120M+00181MA1999999070321MD1710051+9999REMSYN05852787 32/80 90209 11111 21209 37032 57005 333 00051 10018=
0119527870999992015011421004+37200+102867FM-12+304499999V0203201N00501002401CN030000199-01471-02151999999ADDGF109991999999999999999999MA1999999070311MD1710011+9999REMSYN05252787 32/80 93205 11147 21215 37031 57001 333 00058=
0163527870999992015011500004+37200+102867FM-12+304499999V0202901N004019999999N030000199-01511-02181999999ADDGA1071+017501999GE19AGL   +99999+99999GF107991071999017501999999MA1999999070381MD1210071+9999REMSYN05852787 32780 72904 11151 21218 37038 52007 87/// 333 00159=
0153527870999992015011503004+37200+102867FM-12+304499999V0202901N004019999999N030000199-00951-02001999999ADDGA1021+999999999GE19AGL   +99999+99999GF102991021999999999999999MA1999999070491MD1210111+9999REMSYN04852787 32980 22904 11095 21200 37049 52011 82///=
0138527870999992015011506004+37200+102867FM-12+304499999V0203601N008019999999N030000199-00591-01921999999ADDGF100995999999999999999999KA1240N-01571MA1999999070321MD1710171+9999REMSYN05852787 32980 03608 11059 21192 37032 57017 333 00257 21157=
0119527870999992015011509004+37200+102867FM-12+304499999V0203201N007019999999N030000199-00731-01911999999ADDGF100995999999999999999999MA1999999070371MD1210051+9999REMSYN05252787 32980 03207 11073 21191 37037 52005 333 00252=
0163527870999992015011512004+37200+102867FM-12+304499999V0201601N004019999999N030000199-01161-02011999999ADDGA1011+999999999GE19AGL   +99999+99999GF101991011999999999999999MA1999999070481MD1210111+9999REMSYN05852787 32980 11604 11116 21201 37048 52011 81/// 333 00202=
0138527870999992015011518004+37200+102867FM-12+304499999V0201601N00201002401CN030000199-01021-02521999999ADDGF109991999999999999999999KA1120M-00511MA1999999070431MD1710061+9999REMSYN05852787 32/80 91602 11102 21252 37043 57006 333 00101 11051=
0119527870999992015011521004+37200+102867FM-12+304499999V0201601N00301002401CN030000199-01291-02571999999ADDGF109991999999999999999999MA1999999070371MD1710061+9999REMSYN05252787 32/80 91603 11129 21257 37037 57006 333 00102=
0163527870999992015011600004+37200+102867FM-12+304499999V0201101N002019999999N030000199-01001-03401999999ADDGA1011+999999999GE19AGL   +99999+99999GF101991011999999999999999MA1999999070431MD1210061+9999REMSYN05852787 32980 11102 11100 21340 37043 52006 81/// 333 00105=
0153527870999992015011603004+37200+102867FM-12+304499999V0201601N005019999999N030000199-00461-02971999999ADDGA1071+999999999GE19AGL   +99999+99999GF107991071999999999999999MA1999999070481MD1210051+9999REMSYN04852787 32980 71605 11046 21297 37048 52005 87///=
0182527870999992015011606004+37200+102867FM-12+304499999V0201401N010019999999N030000199-00301-02281999999ADDGA1071+017501999GE19AGL   +99999+99999GF107991071999017501999999KA1240N-01381MA1999999070261MD1710221+9999REMSYN06452787 32780 71410 11030 21228 37026 57022 87/// 333 05103 21138=
0163527870999992015011609004+37200+102867FM-12+304499999V0201401N009019999999N030000199-00271-02141999999ADDGA1061+017501999GE19AGL   +99999+99999GF106991061999017501999999MA1999999070261MD1410001+9999REMSYN05852787 32780 61409 11027 21214 37026 54000 86/// 333 05105=
0163527870999992015011612004+37200+102867FM-12+304499999V0200201N006019999999N030000199-01161-01941999999ADDGA1071+017501999GE19AGL   +99999+99999GF107991071999017501999999MA1999999070481MD1210221+9999REMSYN05852787 32780 70206 11116 21194 37048 52022 87/// 333 00000=
0138527870999992015011618004+37200+102867FM-12+304499999V0200201N00901002401CN030000199-00901-01651999999ADDGF109991999999999999999999KA1120M-00211MA1999999070371MD1710091+9999REMSYN05852787 32/80 90209 11090 21165 37037 57009 333 05101 11021=
0119527870999992015011621004+37200+102867FM-12+304499999V0203601N01201002401CN030000199-01301-02261999999ADDGF109991999999999999999999MA1999999070241MD1710131+9999REMSYN05252787 32/80 93612 11130 21226 37024 57013 333 05100=
0215527870999992015011700004+37200+102867FM-12+304499999V0203601N008019999999N030000199-01471-01821999999ADDAA106000131AA224000131GA1071+017501999GE19AGL   +99999+99999GF107991071999017501999999MA1999999070331MD1210091+9999MW1701REMSYN08252787 11780 73608 11147 21182 37033 52009 69911 770// 87/// 333 05155 70001 92500=
0181527870999992015011703004+37200+102867FM-12+304499999V0203201N007019999999N030000199-01291-01551999999ADDAY171021AY271021GA1071+017501999GE19AGL   +99999+99999GF107991071999017501999999MA1999999070401MD1210071+9999MW1701REMSYN05452787 41780 73207 11129 21155 37040 52007 77077 87///=
0227527870999992015011706004+37200+102867FM-12+304499999V0203601N009019999999N030000199-01381-01691999999ADDAA106001031AY171021AY271021GA1071+017501999GE19AGL   +99999+99999GF107991071999017501999999KA1240N-01531MA1999999070311MD1710091+9999MW1701REMSYN07652787 11780 73609 11138 21169 37031 57009 60011 77077 87/// 333 00161 21153=
0191527870999992015011709004+37200+102867FM-12+304499999V0200201N012019999999N030000199-01511-01831999999ADDAY171021AY271021GA1071+017501999GE19AGL   +99999+99999GF107991071999017501999999MA1999999070341MD1210031+9999MW1701REMSYN06452787 41780 70212 11151 21183 37034 52003 77077 87/// 333 00162=
0208527870999992015011712004+37200+102867FM-12+304499999V0203201N009019999999N030000199-01691-01911999999ADDAA106000631AY171021AY271021GA1071+017501999GE19AGL   +99999+99999GF107991071999017501999999MA1999999070461MD1210121+9999MW1221REMSYN07052787 11780 73209 11169 21191 37046 52012 69961 72277 87/// 333 00055=
0138527870999992015011718004+37200+102867FM-12+304499999V0202901N00701002401CN030000199-01191-02711999999ADDGF109991999999999999999999KA1120M-00911MA1999999070491MD1710031+9999REMSYN05852787 32/80 92907 11119 21271 37049 57003 333 00153 11091=
0136527870999992015011721004+37200+102867FM-12+304499999V0202901N00701002401CN030000199-01171-02911999999ADDAA124001831GF109991999999999999999999MA1999999070431MD1710061+9999REMSYN05852787 32/80 92907 11117 21291 37043 57006 333 00201 70018=
0142527870999992015011800004+37200+102867FM-12+304499999V0203401N003019999999N030000199-01131-03091999999ADDAA124001731GF100995999999999999999999MA1999999070431MD1410001+9999REMSYN06452787 32980 03403 11113 21309 37043 54000 333 00103 70017 92503=
0109527870999992015011803004+37200+102867FM-12+304499999V0202701N002019999999N030000199-00701-02861999999ADDGF100995999999999999999999MA1999999070531MD1210101+9999REMSYN04252787 32980 02702 11070 21286 37053 52010=
0138527870999992015011806004+37200+102867FM-12+304499999V0202201N002019999999N030000199-00381-02401999999ADDGF100995999999999999999999KA1240N-01811MA1999999070391MD1710141+9999REMSYN05852787 32980 02202 11038 21240 37039 57014 333 00110 21181=
0119527870999992015011809004+37200+102867FM-12+304499999V0201801N002019999999N030000199-00321-02091999999ADDGF100995999999999999999999MA1999999070351MD1710041+9999REMSYN05252787 32980 01802 11032 21209 37035 57004 333 00012=
0119527870999992015011812004+37200+102867FM-12+304499999V0201801N002019999999N030000199-00851-02331999999ADDGF100995999999999999999999MA1999999070391MD1210041+9999REMSYN05252787 32980 01802 11085 21233 37039 52004 333 05108=
0138527870999992015011818004+37200+102867FM-12+304499999V0202701N00401002401CN030000199-00841-02731999999ADDGF109991999999999999999999KA1120M-00191MA1999999070221MD1710141+9999REMSYN05852787 32/80 92704 11084 21273 37022 57014 333 05304 11019=
0119527870999992015011821004+37200+102867FM-12+304499999V0202701N00401002401CN030000199-00861-02861999999ADDGF109991999999999999999999MA1999999070061MD1710161+9999REMSYN05252787 32/80 92704 11086 21286 37006 57016 333 05403=
0125527870999992015011900004+37200+102867FM-12+304499999V0203201N003019999999N030000199-01001-02921999999ADDGF100995999999999999999999MA1999999070011MD1710051+9999REMSYN05852787 32980 03203 11100 21292 37001 57005 333 05401 92501=
0109527870999992015011903004+37200+102867FM-12+304499999V0203401N004019999999N030000199-00431-02701999999ADDGF100995999999999999999999MA1999999069991MD1710021+9999REMSYN04252787 32980 03404 11043 21270 36999 57002=
0138527870999992015011906004+37200+102867FM-12+304499999V0203401N008019999999N030000199-00511-01881999999ADDGF100995999999999999999999KA1240N-01041MA1999999069821MD1710171+9999REMSYN05852787 32980 03408 11051 21188 36982 57017 333 05651 21104=
0119527870999992015011909004+37200+102867FM-12+304499999V0203601N005019999999N030000199-00501-02501999999ADDGF100995999999999999999999MA1999999069901MD1210081+9999REMSYN05252787 32980 03605 11050 21250 36990 52008 333 05552=
0119527870999992015011912004+37200+102867FM-12+304499999V0203201N003019999999N030000199-01181-02081999999ADDGF100995999999999999999999MA1999999070081MD1210181+9999REMSYN05252787 32980 03203 11118 21208 37008 52018 333 05353=
0138527870999992015011918004+37200+102867FM-12+304499999V0203201N00501002401CN030000199-01251-02351999999ADDGF109991999999999999999999KA1120M-00311MA1999999070141MD1710021+9999REMSYN05852787 32/80 93205 11125 21235 37014 57002 333 05154 11031=
0119527870999992015011921004+37200+102867FM-12+304499999V0203601N00901002401CN030000199-00931-02561999999ADDGF109991999999999999999999MA1999999070131MD1710011+9999REMSYN05252787 32/80 93609 11093 21256 37013 57001 333 00151=
0169527870999992015012000004+37200+102867FM-12+304499999V0203201N009019999999N030000199-01461-02181999999ADDGA1071+017501999GE19AGL   +99999+99999GF107991071999017501999999MA1999999070221MD1210091+9999REMSYN06452787 32780 73209 11146 21218 37022 52009 87/// 333 00255 92500=
0109527870999992015012003004+37200+102867FM-12+304499999V0203601N005019999999N030000199-00871-02271999999ADDGF100995999999999999999999MA1999999070351MD1210131+9999REMSYN04252787 32980 03605 11087 21227 37035 52013=
0182527870999992015012006004+37200+102867FM-12+304499999V0203601N010019999999N030000199-00811-02111999999ADDGA1021+012501999GE19AGL   +99999+99999GF102991021999012501999999KA1240N-01491MA1999999070241MD1710111+9999REMSYN06452787 32680 23610 11081 21211 37024 57011 82/// 333 00453 21149=
0145527870999992015012009004+37200+102867FM-12+304499999V0203601N013019999999N030000199-00991-01851999999ADDGF100995999999999999999999MA1999999070381MD1210141+9999OD139901801360REMSYN06452787 32680 03613 11099 21185 37038 52014 333 00555 91118 91536=
0145527870999992015012012004+37200+102867FM-12+304499999V0203601N005019999999N030000199-01221-02161999999ADDGF100995999999999999999999MA1999999070531MD1210151+9999OD139901801360REMSYN06452787 32980 03605 11122 21216 37053 52015 333 00500 91118 91536=
0138527870999992015012018004+37200+102867FM-12+304499999V0203401N00301002401CN030000199-01111-02811999999ADDGF109991999999999999999999KA1120M-00711MA1999999070431MD1710111+9999REMSYN05852787 32/80 93403 11111 21281 37043 57011 333 00301 11071=
0119527870999992015012021004+37200+102867FM-12+304499999V0202901N00101002401CN030000199-01081-02741999999ADDGF109991999999999999999999MA1999999070281MD1710151+9999REMSYN05252787 32/80 92901 11108 21274 37028 57015 333 00252=
0119527870999992015012100004+37200+102867FM-12+304499999V0202701N004019999999N030000199-01041-02801999999ADDGF100995999999999999999999MA1999999070241MD1710041+9999REMSYN05252787 32980 02704 11104 21280 37024 57004 333 00004=
0109527870999992015012103004+37200+102867FM-12+304499999V0202901N005019999999N030000199-00421-02701999999ADDGF100995999999999999999999MA1999999070231MD1710011+9999REMSYN04252787 32980 02905 11042 21270 37023 57001=
0138527870999992015012106004+37200+102867FM-12+304499999V0202701N006019999999N030000199-00061-02331999999ADDGF100995999999999999999999KA1240N-01431MA1999999070041MD1710191+9999REMSYN05852787 32980 02706 11006 21233 37004 57019 333 05208 21143=
0119527870999992015012109004+37200+102867FM-12+304499999V0202901N007019999999N030000199-00031-02241999999ADDGF100995999999999999999999MA1999999069981MD1710061+9999REMSYN05252787 32980 02907 11003 21224 36998 57006 333 05410=
0119527870999992015012112004+37200+102867FM-12+304499999V0201101N002019999999N030000199-00481-02221999999ADDGF100995999999999999999999MA1999999070031MD1210051+9999REMSYN05252787 32980 01102 11048 21222 37003 52005 333 05507=
0138527870999992015012118004+37200+102867FM-12+304499999V0203601N00401002401CN030000199-00401-02111999999ADDGF109991999999999999999999KA1120M+00001MA1999999069981MD1710041+9999REMSYN05852787 32/80 93604 11040 21211 36998 57004 333 05507 10000=
0119527870999992015012121004+37200+102867FM-12+304499999V0200201N00501002401CN030000199-00301-02281999999ADDGF109991999999999999999999MA1999999069911MD1710071+9999REMSYN05252787 32/80 90205 11030 21228 36991 57007 333 05408=
0119527870999992015012200004+37200+102867FM-12+304499999V0201401N002019999999N030000199-00621-02251999999ADDGF100995999999999999999999MA1999999069941MD1210031+9999REMSYN05252787 32980 01402 11062 21225 36994 52003 333 05304=
0109527870999992015012203004+37200+102867FM-12+304499999V0201801N005019999999N030000199-00091-02101999999ADDGF100995999999999999999999MA1999999069991MD1210051+9999REMSYN04252787 32980 01805 11009 21210 36999 52005=
0138527870999992015012206004+37200+102867FM-12+304499999V0201601N006019999999N030000199+00221-02101999999ADDGF100995999999999999999999KA1240N-00711MA1999999069841MD1710151+9999REMSYN05852787 32980 01606 10022 21210 36984 57015 333 05203 21071=
0163527870999992015012209004+37200+102867FM-12+304499999V0203201N003019999999N030000199-00361-01551999999ADDGA1021+999999999GE19AGL   +99999+99999GF102991021999999999999999MA1999999069841MD1410001+9999REMSYN05852787 32980 23203 11036 21155 36984 54000 82/// 333 05153=
0119527870999992015012212004+37200+102867FM-12+304499999V0201601N005019999999N013000199-00381-01881999999ADDGF100995999999999999999999MA1999999069911MD1210071+9999REMSYN05252787 32963 01605 11038 21188 36991 52007 333 05101=
0138527870999992015012218004+37200+102867FM-12+304499999V0201601N00301002401CN030000199-00581-01911999999ADDGF109991999999999999999999KA1120M+00301MA1999999069761MD1710101+9999REMSYN05852787 32/80 91603 11058 21191 36976 57010 333 05252 10030=
0119527870999992015012221004+37200+102867FM-12+304499999V0200201N00101002401CN030000199-00281-02321999999ADDGF109991999999999999999999MA1999999069671MD1710091+9999REMSYN05252787 32/80 90201 11028 21232 36967 57009 333 05200=
0119527870999992015012300004+37200+102867FM-12+304499999V0202001N001019999999N030000199-00181-02361999999ADDGF100995999999999999999999MA1999999069621MD1710051+9999REMSYN05252787 32980 02001 11018 21236 36962 57005 333 05304=
0153527870999992015012303004+37200+102867FM-12+304499999V0201601N005019999999N029000199+00231-02241999999ADDGA1051+999999999GE19AGL   +99999+99999GF105991051999999999999999MA1999999069511MD1710111+9999REMSYN04852787 32979 51605 10023 21224 36951 57011 85///=
0182527870999992015012306004+37200+102867FM-12+304499999V0201401N010019999999N027000199+00381-02121999999ADDGA1071+999999999GE19AGL   +99999+99999GF107991071999999999999999KA1240N-00711MA1999999069281MD1710231+9999REMSYN06452787 32977 71410 10038 21212 36928 57023 87/// 333 05602 21071=
0163527870999992015012309004+37200+102867FM-12+304499999V0203201N009019999999N030000199-00762-01431999999ADDGA1071+017501999GE19AGL   +99999+99999GF107991071999017501999999MA1999999069301MD1210021+9999REMSYN05852787 32780 73209 11076 21143 36930 52002 87/// 333 05554=
0189527870999992015012312004+37200+102867FM-12+304499999V0203201N014019999999N030000199-01191-01781999999ADDGA1071+017501999GE19AGL   +99999+99999GF107991071999017501999999MA1999999069481MD1210181+9999OD139901801320REMSYN07052787 32780 73214 11119 21178 36948 52018 87/// 333 05458 91118 91532=
0164527870999992015012318004+37200+102867FM-12+304499999V0200201N00901002401CN030000199-00991-01831999999ADDGF109991999999999999999999KA1120M+00471MA1999999069671MD1210071+9999OD139901801320REMSYN07052787 32/80 90209 11099 21183 36967 52007 333 05154 10047 91118 91532=
0119527870999992015012321004+37200+102867FM-12+304499999V0203201N00401002401CN030000199-01301-01851999999ADDGF109991999999999999999999MA1999999069661MD1710011+9999REMSYN05252787 32/80 93204 11130 21185 36966 57001 333 00060=
0163527870999992015012400004+37200+102867FM-12+304499999V0202901N004019999999N030000199-01201-01871999999ADDGA1021+999999999GE19AGL   +99999+99999GF102991021999999999999999MA1999999069771MD1210111+9999REMSYN05852787 32980 22904 11120 21187 36977 52011 82/// 333 00260=
0153527870999992015012403004+37200+102867FM-12+304499999V0203201N004019999999N030000199-00601-01711999999ADDGA1051+999999999GE19AGL   +99999+99999GF105991051999999999999999MA1999999069881MD1210111+9999REMSYN04852787 32980 53204 11060 21171 36988 52011 85///=
0182527870999992015012406004+37200+102867FM-12+304499999V0200201N006019999999N030000199-00121-01781999999ADDGA1071+999999999GE19AGL   +99999+99999GF107991071999999999999999KA1240N-01531MA1999999069811MD1710071+9999REMSYN06452787 32980 70206 11012 21178 36981 57007 87/// 333 00555 21153=
0163527870999992015012409004+37200+102867FM-12+304499999V0203601N005019999999N030000199-00351-01981999999ADDGA1071+017501999GE19AGL   +99999+99999GF107991071999017501999999MA1999999069901MD1210091+9999REMSYN05852787 32780 73605 11035 21198 36990 52009 87/// 333 00604=
0163527870999992015012412004+37200+102867FM-12+304499999V0200401N005019999999N030000199-00521-02081999999ADDGA1011+999999999GE19AGL   +99999+99999GF101991011999999999999999MA1999999070071MD1210171+9999REMSYN05852787 32980 10405 11052 21208 37007 52017 81/// 333 00607=
0138527870999992015012418004+37200+102867FM-12+304499999V0200901N00201002401CN030000199-00751-01761999999ADDGF109991999999999999999999KA1120M-00061MA1999999070101MD1710061+9999REMSYN05852787 32/80 90902 11075 21176 37010 57006 333 00402 11006=
0119527870999992015012421004+37200+102867FM-12+304499999V0201601N00301002401CN030000199-00901-01771999999ADDGF109991999999999999999999MA1999999070061MD1710041+9999REMSYN05252787 32/80 91603 11090 21177 37006 57004 333 00404=
0119527870999992015012500004+37200+102867FM-12+304499999V0201601N007019999999N030000199-01081-01761999999ADDGF100995999999999999999999MA1999999070071MD1210011+9999REMSYN05252787 32780 01607 11108 21176 37007 52001 333 00301=
0109527870999992015012503004+37200+102867FM-12+304499999V0201601N009019999999N030000199-00311-01441999999ADDGF100995999999999999999999MA1999999070031MD1710041+9999REMSYN04252787 32980 01609 11031 21144 37003 57004=
0182527870999992015012506004+37200+102867FM-12+304499999V0201601N003019999999N026000199+00041-01511999999ADDGA1071+999999999GE19AGL   +99999+99999GF107991071999999999999999KA1240N-01091MA1999999069881MD1710151+9999REMSYN06452787 32976 71603 10004 21151 36988 57015 87/// 333 00102 21109=
0163527870999992015012509004+37200+102867FM-12+304499999V0202901N005019999999N028000199+00161-02081999999ADDGA1071+999999999GE19AGL   +99999+99999GF107991071999999999999999MA1999999069911MD1210031+9999REMSYN05852787 32978 72905 10016 21208 36991 52003 87/// 333 00005=
0163527870999992015012512004+37200+102867FM-12+304499999V0203601N007019999999N030000199-00221-02531999999ADDGA1051+999999999GE19AGL   +99999+99999GF105991051999999999999999MA1999999070121MD1210211+9999REMSYN05852787 32980 53607 11022 21253 37012 52021 85/// 333 00103=
0138527870999992015012518004+37200+102867FM-12+304499999V0203201N01001002401CN030000199-01281-01701999999ADDGF109991999999999999999999KA1120M+00261MA1999999070171MD1710061+9999REMSYN05852787 32/80 93210 11128 21170 37017 57006 333 00155 10026=
0119527870999992015012521004+37200+102867FM-12+304499999V0203201N00401002401CN030000199-01541-01831999999ADDGF109991999999999999999999MA1999999070121MD1710051+9999REMSYN05252787 32/80 93204 11154 21183 37012 57005 333 00156=
0215527870999992015012600004+37200+102867FM-12+304499999V0203201N011019999999N018000199-01611-01841999999ADDAA112000021AA224000021GA1071+017501999GE19AGL   +99999+99999GF107991071999017501999999MA1999999070161MD1210041+9999MW1701REMSYN08252787 11768 73211 11161 21184 37016 52004 69902 770// 87/// 333 00155 79999 92500=
0181527870999992015012603004+37200+102867FM-12+304499999V0201601N006019999999N030000199-01011-01431999999ADDAY171021AY201021GA1071+999999999GE19AGL   +99999+99999GF107991071999999999999999MA1999999070181MD1210021+9999MW1001REMSYN05452787 31980 71606 11101 21143 37018 52002 70070 87///=
0227527870999992015012606004+37200+102867FM-12+304499999V0201601N011019999999N030000199-00611-01551999999ADDAA106000021AY171021AY201021GA1071+999999999GE19AGL   +99999+99999GF107991071999999999999999KA1240N-01681MA1999999070021MD1710161+9999MW1001REMSYN07652787 11980 71611 11061 21155 37002 57016 69901 70070 87/// 333 00157 21168=
0163527870999992015012609004+37200+102867FM-12+304499999V0203201N005019999999N030000199-01141-01521999999ADDGA1071+999999999GE19AGL   +99999+99999GF107991071999999999999999MA1999999070061MD1210041+9999REMSYN05852787 32980 73205 11114 21152 37006 52004 87/// 333 00263=
0163527870999992015012612004+37200+102867FM-12+304499999V0202901N001019999999N030000199-01541-01751999999ADDGA1031+999999999GE19AGL   +99999+99999GF103991031999999999999999MA1999999070211MD1210151+9999REMSYN05852787 32980 32901 11154 21175 37021 52015 83/// 333 00163=
0138527870999992015012618004+37200+102867FM-12+304499999V0201401N00501002401CN030000199-01261-01601999999ADDGF109991999999999999999999KA1120M-00551MA1999999070091MD1710111+9999REMSYN05852787 32/80 91405 11126 21160 37009 57011 333 05100 11055=
0119527870999992015012621004+37200+102867FM-12+304499999V0201401N00601002401CN030000199-01441-01681999999ADDGF109991999999999999999999MA1999999069871MD1710221+9999REMSYN05252787 32/80 91406 11144 21168 36987 57022 333 05301=
0180527870999992015012700004+37200+102867FM-12+304499999V0201601N009019999999N030000199-01421-01681999999ADDAA124000021GA1071+017501999GE19AGL   +99999+99999GF107991071999017501999999MA1999999069731MD1710141+9999REMSYN06452787 32780 71609 11142 21168 36973 57014 87/// 333 05402 79999=
0153527870999992015012703004+37200+102867FM-12+304499999V0201801N008019999999N030000199-01061-01461999999ADDGA1071+017501999GE19AGL   +99999+99999GF107991071999017501999999MA1999999069771MD1210041+9999REMSYN04852787 32780 71808 11106 21146 36977 52004 87///=
0182527870999992015012706004+37200+102867FM-12+304499999V0201601N008019999999N030000199-00641-01321999999ADDGA1071+999999999GE19AGL   +99999+99999GF107991071999999999999999KA1240N-01551MA1999999069541MD1710231+9999REMSYN06452787 32980 71608 11064 21132 36954 57023 87/// 333 05500 21155=
0163527870999992015012709004+37200+102867FM-12+304499999V0203201N004019999999N030000199-01191-01571999999ADDGA1071+999999999GE19AGL   +99999+99999GF107991071999999999999999MA1999999069561MD1210021+9999REMSYN05852787 32980 73204 11119 21157 36956 52002 87/// 333 05551=
0163527870999992015012712004+37200+102867FM-12+304499999V0201601N003019999999N030000199-01421-01591999999ADDGA1031+999999999GE19AGL   +99999+99999GF103991031999999999999999MA1999999069701MD1210141+9999REMSYN05852787 32980 31603 11142 21159 36970 52014 83/// 333 05501=
0138527870999992015012718004+37200+102867FM-12+304499999V0202901N00101002401CN007000199-01541-01771999999ADDGF109991999999999999999999KA1120M-00571MA1999999069581MD1710121+9999REMSYN05852787 32/57 92901 11154 21177 36958 57012 333 05553 11057=
0131527870999992015012721004+37200+102867FM-12+304499999V0201801N00201002401CN004600199-01431-01631999999ADDGF109991999999999999999999MA1999999069511MD1710071+9999MW1101REMSYN05852787 31/46 91802 11143 21163 36951 57007 710// 333 05400=
0238527870999992015012800004+37200+102867FM-12+304499999V0203601N008019999999N007000199-01271-01531999999ADDAA112000091AA224000091GA1081+017501999GE19AGL   +99999+99999GF108991081999017501999999MA1999999069561MD1210051+9999REMSYN07652787 12757 83608 11127 21153 36956 52005 69902 88/// 333 05202 79999 92500=EQDQ01  00002PRCP12Q02  00002PRCP24
0153527870999992015012803004+37200+102867FM-12+304499999V0203201N011019999999N020000199-01541-01741999999ADDGA1071+017501999GE19AGL   +99999+99999GF107991071999017501999999MA1999999069641MD1210081+9999REMSYN04852787 32770 73211 11154 21174 36964 52008 87///=
0208527870999992015012806004+37200+102867FM-12+304499999V0203601N015019999999N030000199-01081-01741999999ADDGA1071+017501999GE19AGL   +99999+99999GF107991071999017501999999KA1240N-01701MA1999999069561MD1710081+9999OD139901801360REMSYN07652787 32780 73615 11108 21174 36956 57008 87/// 333 00054 21170 91118 91536=
0189527870999992015012809004+37200+102867FM-12+304499999V0203601N014019999999N030000199-01191-01861999999ADDGA1071+999999999GE19AGL   +99999+99999GF107991071999999999999999MA1999999069711MD1210151+9999OD139901901340REMSYN07052787 32980 73614 11119 21186 36971 52015 87/// 333 00200 91119 91534=
0189527870999992015012812004+37200+102867FM-12+304499999V0203601N016019999999N030000199-01391-01881999999ADDGA1071+017501999GE19AGL   +99999+99999GF107991071999017501999999MA1999999069961MD1210251+9999OD139902101360REMSYN07052787 32780 73616 11139 21188 36996 52025 87/// 333 00300 91121 91536=
0164527870999992015012818004+37200+102867FM-12+304499999V0203201N00501002401CN030000199-01701-01941999999ADDGF109991999999999999999999KA1120M-01051MA1999999070061MD1710051+9999OD139901801360REMSYN07052787 32/80 93205 11170 21194 37006 57005 333 00552 11105 91118 91536=
0119527870999992015012821004+37200+102867FM-12+304499999V0203201N00201002401CN030000199-01791-02041999999ADDGF109991999999999999999999MA1999999070021MD1710041+9999REMSYN05252787 32/80 93202 11179 21204 37002 57004 333 00554=
0232527870999992015012900004+37200+102867FM-12+304499999V0201601N003019999999N030000199-01811-02061999999ADDAA112000091AA224000091GA1071+017501999GE19AGL   +99999+99999GF107991071999017501999999MA1999999070001MD1710021+9999REMSYN07052787 12780 71603 11181 21206 37000 57002 69902 87/// 333 00455 79999=EQDQ01  00002PRCP12Q02  00002PRCP24
0153527870999992015012903004+37200+102867FM-12+304499999V0201601N007019999999N030000199-01341-01631999999ADDGA1071+999999999GE19AGL   +99999+99999GF107991071999999999999999MA1999999070061MD1210061+9999REMSYN04852787 32980 71607 11134 21163 37006 52006 87///=
0182527870999992015012906004+37200+102867FM-12+304499999V0203201N007019999999N030000199-01031-01571999999ADDGA1071+999999999GE19AGL   +99999+99999GF107991071999999999999999KA1240N-01891MA1999999069941MD1710121+9999REMSYN06452787 32980 73207 11103 21157 36994 57012 87/// 333 00401 21189=
0163527870999992015012909004+37200+102867FM-12+304499999V0203201N006019999999N030000199-01121-01601999999ADDGA1071+017501999GE19AGL   +99999+99999GF107991071999017501999999MA1999999070001MD1210061+9999REMSYN05852787 32780 73206 11112 21160 37000 52006 87/// 333 00301=
0163527870999992015012912004+37200+102867FM-12+304499999V0201601N004019999999N030000199-01271-01751999999ADDGA1071+999999999GE19AGL   +99999+99999GF107991071999999999999999MA1999999070171MD1210171+9999REMSYN05852787 32980 71604 11127 21175 37017 52017 87/// 333 00201=
0138527870999992015012918004+37200+102867FM-12+304499999V0201401N00401002401CN030000199-01421-01891999999ADDGF109991999999999999999999KA1120M-00901MA1999999070021MD1710141+9999REMSYN05852787 32/80 91404 11142 21189 37002 57014 333 00003 11090=
0119527870999992015012921004+37200+102867FM-12+304499999V0201401N00401002401CN030000199-01641-01891999999ADDGF109991999999999999999999MA1999999069931MD1710091+9999REMSYN05252787 32/80 91404 11164 21189 36993 57009 333 05102=
0163527870999992015013000004+37200+102867FM-12+304499999V0201101N002019999999N030000199-01351-01841999999ADDGA1071+017501999GE19AGL   +99999+99999GF107991071999017501999999MA1999999069931MD1410001+9999REMSYN05852787 32780 71102 11135 21184 36993 54000 87/// 333 05105=
0153527870999992015013003004+37200+102867FM-12+304499999V0201601N007019999999N030000199-01351-01701999999ADDGA1071+017501999GE19AGL   +99999+99999GF107991071999017501999999MA1999999070011MD1210081+9999REMSYN04852787 32780 71607 11135 21170 37001 52008 87///=
0182527870999992015013006004+37200+102867FM-12+304499999V0201601N008019999999N030000199-00961-01541999999ADDGA1071+017501999GE19AGL   +99999+99999GF107991071999017501999999KA1240N-01711MA1999999069881MD1710131+9999REMSYN06452787 32780 71608 11096 21154 36988 57013 87/// 333 05101 21171=
0163527870999992015013009004+37200+102867FM-12+304499999V0201401N005019999999N030000199-01011-01481999999ADDGA1071+017501999GE19AGL   +99999+99999GF107991071999017501999999MA1999999069941MD1210061+9999REMSYN05852787 32780 71405 11101 21148 36994 52006 87/// 333 05101=
0183527870999992015013018004+37200+102867FM-12+304499999V0201601N00401002401CN001500199-01581-01811999999ADDAA106000231AY101021AY201021GF109991999999999999999999KA1120M-00921MA1999999070031MD1710131+9999MW1101REMSYN07052787 11/15 91604 11158 21181 37003 57013 69921 71000 333 00052 11092=
0148527870999992015013021004+37200+102867FM-12+304499999V0201601N00301002401CN001200199-01711-01951999999ADDAA124000231GF109991999999999999999999MA1999999069881MD1710151+9999MW1101REMSYN06452787 31/12 91603 11171 21195 36988 57015 710// 333 05151 70002=
0215527870999992015013100004+37200+102867FM-12+304499999V0201601N003019999999N007000199-01561-01791999999ADDAA112000231AA224000231GA1071+017501999GE19AGL   +99999+99999GF107991071999017501999999MA1999999069851MD1710031+9999MW1101REMSYN08252787 11757 71603 11156 21179 36985 57003 69922 710// 87/// 333 05152 70002 92500=
0153527870999992015013103004+37200+102867FM-12+304499999V0201601N004019999999N019000199-01501-01711999999ADDGA1071+017501999GE19AGL   +99999+99999GF107991071999017501999999MA1999999069821MD1710031+9999REMSYN04852787 32769 71604 11150 21171 36982 57003 87///=
0227527870999992015013106004+37200+102867FM-12+304499999V0201601N004019999999N015000199-00871-00991999999ADDAA106000131AY171021AY201021GA1071+999999999GE19AGL   +99999+99999GF107991071999999999999999KA1240N-01781MA1999999069701MD1710121+9999MW1001REMSYN07652787 11965 71604 11087 21099 36970 57012 69911 70070 87/// 333 05201 21178=
0163527870999992015013109004+37200+102867FM-12+304499999V0203201N008019999999N025000199-01031-01411999999ADDGA1051+999999999GE19AGL   +99999+99999GF105991051999999999999999MA1999999069771MD1210071+9999REMSYN05852787 42975 53208 11103 21141 36977 52007 85/// 333 05200=
0163527870999992015013112004+37200+102867FM-12+304499999V0203601N001019999999N030000199-01231-01571999999ADDGA1031+999999999GE19AGL   +99999+99999GF103991031999999999999999MA1999999069991MD1210221+9999REMSYN05852787 32980 33601 11123 21157 36999 52022 83/// 333 05100=
0138527870999992015013118004+37200+102867FM-12+304499999V0201401N00201002401CN030000199-01251-01661999999ADDGF109991999999999999999999KA1120M-00681MA1999999069931MD1710041+9999REMSYN05852787 32/80 91402 11125 21166 36993 57004 333 05103 11068=
0136527870999992015013121004+37200+102867FM-12+304499999V0203601N00101002401CN030000199-01041-02021999999ADDAA124000131GF109991999999999999999999MA1999999069791MD1710141+9999REMSYN05852787 32/80 93601 11104 21202 36979 57014 333 05107 70001=
0136527870999992015020100004+37200+102867FM-12+304499999V0203601N005019999999N030000199-00821-02231999999ADDAA124000131GF100995999999999999999999MA1999999069801MD1210011+9999REMSYN05852787 32980 03605 11082 21223 36980 52001 333 05107 70001=
0153527870999992015020103004+37200+102867FM-12+304499999V0203201N007019999999N030000199-00401-02151999999ADDGA1051+999999999GE19AGL   +99999+99999GF105991051999999999999999MA1999999069821MD1210021+9999REMSYN04852787 32980 53207 11040 21215 36982 52002 85///=
0182527870999992015020106004+37200+102867FM-12+304499999V0201401N009019999999N030000199-00131-02081999999ADDGA1071+999999999GE19AGL   +99999+99999GF107991071999999999999999KA1240N-01331MA1999999069561MD1710261+9999REMSYN06452787 32980 71409 11013 21208 36956 57026 87/// 333 05107 21133=
0163527870999992015020109004+37200+102867FM-12+304499999V0201401N009019999999N026000199-00291-01621999999ADDGA1071+999999999GE19AGL   +99999+99999GF107991071999999999999999MA1999999069531MD1710031+9999REMSYN05852787 32976 71409 11029 21162 36953 57003 87/// 333 05207=
0163527870999992015020112004+37200+102867FM-12+304499999V0201601N009019999999N022000199-00881-01271999999ADDGA1021+999999999GE19AGL   +99999+99999GF102991021999999999999999MA1999999069661MD1210131+9999REMSYN05852787 32972 21609 11088 21127 36966 52013 82/// 333 05304=
0166527870999992015020118004+37200+102867FM-12+304499999V0203401N00501002401CN030000199-01391-01591999999ADDAY141021AY201021GF109991999999999999999999KA1120M-00041MA1999999069701MD1210041+9999MW1001REMSYN06452787 31/80 93405 11139 21159 36970 52004 70040 333 05251 11004=
0119527870999992015020121004+37200+102867FM-12+304499999V0202901N00701002401CN030000199-01151-01801999999ADDGF109991999999999999999999MA1999999069731MD1210031+9999REMSYN05252787 32/80 92907 11115 21180 36973 52003 333 05151=
0232527870999992015020200004+37200+102867FM-12+304499999V0200201N007019999999N030000199-00821-02121999999ADDAA112000091AA224000091GA1011+999999999GE19AGL   +99999+99999GF101991011999999999999999MA1999999069861MD1210131+9999REMSYN07052787 12980 10207 11082 21212 36986 52013 69902 81/// 333 00100 79999=EQDQ01  00002PRCP12Q02  00002PRCP24
0153527870999992015020203004+37200+102867FM-12+304499999V0203201N007019999999N030000199-00781-01731999999ADDGA1071+999999999GE19AGL   +99999+99999GF107991071999999999999999MA1999999070041MD1210181+9999REMSYN04852787 32980 73207 11078 21173 37004 52018 87///=
0182527870999992015020206004+37200+102867FM-12+304499999V0203601N011019999999N030000199-00361-01981999999ADDGA1071+999999999GE19AGL   +99999+99999GF107991071999999999999999KA1240N-01611MA1999999070041MD1410001+9999REMSYN06452787 32980 73611 11036 21198 37004 54000 87/// 333 00552 21161=
0163527870999992015020209004+37200+102867FM-12+304499999V0203601N009019999999N030000199-00601-02031999999ADDGA1021+999999999GE19AGL   +99999+99999GF102991021999999999999999MA1999999070231MD1210191+9999REMSYN05852787 32980 23609 11060 21203 37023 52019 82/// 333 00753=
0163527870999992015020212004+37200+102867FM-12+304499999V0203601N005019999999N030000199-00881-02021999999ADDGA1031+999999999GE19AGL   +99999+99999GF103991031999999999999999MA1999999070421MD1210191+9999REMSYN05852787 32980 33605 11088 21202 37042 52019 83/// 333 00800=
0138527870999992015020218004+37200+102867FM-12+304499999V0203401N00201002401CN030000199-01221-01891999999ADDGF109991999999999999999999KA1120M-00361MA1999999070501MD1710041+9999REMSYN05852787 32/80 93402 11122 21189 37050 57004 333 00802 11036=
0119527870999992015020221004+37200+102867FM-12+304499999V0201801N00401002401CN030000199-01211-01801999999ADDGF109991999999999999999999MA1999999070491MD1710011+9999REMSYN05252787 32/80 91804 11121 21180 37049 57001 333 00851=
0163527870999992015020300004+37200+102867FM-12+304499999V0203201N003019999999N030000199-01491-01871999999ADDGA1021+999999999GE19AGL   +99999+99999GF102991021999999999999999MA1999999070511MD1210021+9999REMSYN05852787 32980 23203 11149 21187 37051 52002 82/// 333 00757=
0153527870999992015020303004+37200+102867FM-12+304499999V0203201N006019999999N019000199-01201-01531999999ADDGA1051+999999999GE19AGL   +99999+99999GF105991051999999999999999MA1999999070621MD1210111+9999REMSYN04852787 32969 53206 11120 21153 37062 52011 85///=
0182527870999992015020306004+37200+102867FM-12+304499999V0203201N007019999999N024000199-00941-01431999999ADDGA1071+999999999GE19AGL   +99999+99999GF107991071999999999999999KA1240N-01561MA1999999070541MD1710081+9999REMSYN06452787 32974 73207 11094 21143 37054 57008 87/// 333 00556 21156=
0191527870999992015020309004+37200+102867FM-12+304499999V0203201N010019999999N999999999-01231-01411999999ADDAY171021AY201021GA1071+017501999GE19AGL   +99999+99999GF107991071999017501999999MA1999999070571MD1210031+9999MW1701REMSYN06452787 31755 73210 11123 21141 37057 52003 77070 87/// 333 00356=
0214527870999992015020312004+37200+102867FM-12+304499999V0203401N010019999999N030000199-01421-01641999999ADDAA106000131AY171021AY201021GA1071+017501999GE19AGL   +99999+99999GF107991071999017501999999MA1999999070691MD1210121+9999MW1701REMSYN07652787 11780 73410 11142 21164 37069 52012 69911 77070 87/// 333 00355 92500=
0138527870999992015020318004+37200+102867FM-12+304499999V0202901N00201002401CN030000199-01651-01891999999ADDGF109991999999999999999999KA1120M-00851MA1999999070711MD1710101+9999REMSYN05852787 32/80 92902 11165 21189 37071 57010 333 00254 11085=
0136527870999992015020321004+37200+102867FM-12+304499999V0201601N00401002401CN030000199-01621-01861999999ADDAA124000131GF109991999999999999999999MA1999999070561MD1710151+9999REMSYN05852787 32/80 91604 11162 21186 37056 57015 333 00154 70001=
0203527870999992015020400004+37200+102867FM-12+304499999V0201601N008019999999N030000199-01621-01851999999ADDAA112000021AA224000131GA1071+017501999GE19AGL   +99999+99999GF107991071999017501999999MA1999999070521MD1710041+9999REMSYN07652787 12780 71608 11162 21185 37052 57004 69902 87/// 333 00051 70001 92500=
0153527870999992015020403004+37200+102867FM-12+304499999V0201601N005019999999N030000199-01411-01611999999ADDGA1071+017501999GE19AGL   +99999+99999GF107991071999017501999999MA1999999070501MD1710021+9999REMSYN04852787 32780 71605 11141 21161 37050 57002 87///=
0182527870999992015020406004+37200+102867FM-12+304499999V0202001N002019999999N030000199-01041-01201999999ADDGA1071+017501999GE19AGL   +99999+99999GF107991071999017501999999KA1240N-01701MA1999999070391MD1710111+9999REMSYN06452787 32780 72002 11104 21120 37039 57011 87/// 333 05251 21170=
0191527870999992015020409004+37200+102867FM-12+304499999V0203201N007019999999N030000199-01311-01511999999ADDAY101021AY201021GA1071+017501999GE19AGL   +99999+99999GF107991071999017501999999MA1999999070461MD1210071+9999MW1701REMSYN06452787 31780 73207 11131 21151 37046 52007 77000 87/// 333 05151=
0208527870999992015020412004+37200+102867FM-12+304499999V0201401N008019999999N030000199-01291-01471999999ADDAA106000231AY171021AY201021GA1081+017501999GE19AGL   +99999+99999GF108991081999017501999999MA1999999070571MD1210111+9999MW1701REMSYN07052787 11780 81408 11129 21147 37057 52011 69921 77070 88/// 333 05101=
0155527870999992015020418004+37200+102867FM-12+304499999V0201601N00501002401CN030000199-01581-01811999999ADDAA106000131GF109991999999999999999999KA1120M-01021MA1999999070531MD1710081+9999REMSYN06452787 12/80 91605 11158 21181 37053 57008 69911 333 05201 11102=
0136527870999992015020421004+37200+102867FM-12+304499999V0201601N00501002401CN030000199-01591-01821999999ADDAA124000331GF109991999999999999999999MA1999999070411MD1710121+9999REMSYN05852787 32/80 91605 11159 21182 37041 57012 333 05200 70003=
0203527870999992015020500004+37200+102867FM-12+304499999V0201601N006019999999N030000199-01581-01811999999ADDAA112000131AA224000331GA1071+017501999GE19AGL   +99999+99999GF107991071999017501999999MA1999999070301MD1710111+9999REMSYN07652787 12780 71606 11158 21181 37030 57011 69912 87/// 333 05200 70003 92502=
0153527870999992015020503004+37200+102867FM-12+304499999V0201601N007019999999N030000199-01241-01421999999ADDGA1071+017501999GE19AGL   +99999+99999GF107991071999017501999999MA1999999070301MD1410001+9999REMSYN04852787 32780 71607 11124 21142 37030 54000 87///=
0182527870999992015020506004+37200+102867FM-12+304499999V0201601N009019999999N030000199-00821-01261999999ADDGA1071+999999999GE19AGL   +99999+99999GF107991071999999999999999KA1240N-01771MA1999999070031MD1710271+9999REMSYN06452787 32980 71609 11082 21126 37003 57027 87/// 333 05402 21177=
0163527870999992015020509004+37200+102867FM-12+304499999V0201601N003019999999N030000199-00761-01281999999ADDGA1071+017501999GE19AGL   +99999+99999GF107991071999017501999999MA1999999070031MD1410001+9999REMSYN05852787 32780 71603 11076 21128 37003 54000 87/// 333 05406=
0163527870999992015020512004+37200+102867FM-12+304499999V0201601N002019999999N030000199-01051-01381999999ADDGA1021+999999999GE19AGL   +99999+99999GF102991021999999999999999MA1999999070161MD1210131+9999REMSYN05852787 32980 21602 11105 21138 37016 52013 82/// 333 05402=
0138527870999992015020518004+37200+102867FM-12+304499999V0201601N00601002401CN030000199-01191-01431999999ADDGF109991999999999999999999KA1120M-00701MA1999999069971MD1710151+9999REMSYN05852787 32/80 91606 11119 21143 36997 57015 333 05604 11070=
0119527870999992015020521004+37200+102867FM-12+304499999V0203401N01001002401CN030000199-01231-01561999999ADDGF109991999999999999999999MA1999999069831MD1710141+9999REMSYN05252787 32/80 93410 11123 21156 36983 57014 333 05604=
0169527870999992015020600004+37200+102867FM-12+304499999V0203601N009019999999N030000199-01101-01821999999ADDGA1071+017501999GE19AGL   +99999+99999GF107991071999017501999999MA1999999069921MD1210091+9999REMSYN06452787 32780 73609 11110 21182 36992 52009 87/// 333 05405 92500=
0181527870999992015020603004+37200+102867FM-12+304499999V0203601N011019999999N030000199-01321-01691999999ADDAY171021AY201021GA1071+999999999GE19AGL   +99999+99999GF107991071999999999999999MA1999999070041MD1210121+9999MW1701REMSYN05452787 31980 73611 11132 21169 37004 52012 77070 87///=
0227527870999992015020606004+37200+102867FM-12+304499999V0203401N011019999999N030000199-01301-01671999999ADDAA106000021AY171021AY201021GA1071+017501999GE19AGL   +99999+99999GF107991071999017501999999KA1240N-01591MA1999999070001MD1710041+9999MW1001REMSYN07652787 11780 73411 11130 21167 37000 57004 69901 70070 87/// 333 00055 21159=
0191527870999992015020609004+37200+102867FM-12+304499999V0203601N009019999999N030000199-01451-01791999999ADDAY171021AY201021GA1071+017501999GE19AGL   +99999+99999GF107991071999017501999999MA1999999070111MD1210111+9999MW1701REMSYN06452787 31780 73609 11145 21179 37011 52011 77070 87/// 333 00157=
0208527870999992015020612004+37200+102867FM-12+304499999V0203601N009019999999N030000199-01531-01881999999ADDAA106000231AY171021AY201021GA1071+017501999GE19AGL   +99999+99999GF107991071999017501999999MA1999999070321MD1210211+9999MW1701REMSYN07052787 11780 73609 11153 21188 37032 52021 69921 77070 87/// 333 00255=
0181527870999992015020618004+37200+102867FM-12+304499999V0203601N01101002401CN030000199-01411-01831999999ADDAA106000131GF109991999999999999999999KA1120M-00971MA1999999070361MD1710021+9999OD139901901360REMSYN07652787 12/80 93611 11141 21183 37036 57002 69911 333 00452 11097 91119 91536=
0136527870999992015020621004+37200+102867FM-12+304499999V0203601N00801002401CN030000199-01491-02011999999ADDAA124000331GF109991999999999999999999MA1999999070321MD1710041+9999REMSYN05852787 32/80 93608 11149 21201 37032 57004 333 00553 70003=
0203527870999992015020700004+37200+102867FM-12+304499999V0203201N004019999999N030000199-01871-02121999999ADDAA112000131AA224000331GA1021+999999999GE19AGL   +99999+99999GF102991021999999999999999MA1999999070351MD1210031+9999REMSYN07652787 12980 23204 11187 21212 37035 52003 69912 82/// 333 00458 70003 92501=
0109527870999992015020703004+37200+102867FM-12+304499999V0202701N001019999999N030000199-01001-02071999999ADDGF100995999999999999999999MA1999999070461MD1210111+9999REMSYN04252787 32980 02701 11100 21207 37046 52011=
0138527870999992015020706004+37200+102867FM-12+304499999V0203201N003019999999N030000199-00771-01581999999ADDGF100995999999999999999999KA1240N-01911MA1999999070351MD1710111+9999REMSYN05852787 32980 03203 11077 21158 37035 57011 333 00405 21191=
0163527870999992015020709004+37200+102867FM-12+304499999V0203201N003019999999N030000199-00851-01721999999ADDGA1011+012501999GE19AGL   +99999+99999GF101991011999012501999999MA1999999070321MD1710031+9999REMSYN05852787 32680 13203 11085 21172 37032 57003 81/// 333 00206=
0119527870999992015020712004+37200+102867FM-12+304499999V0201401N007019999999N030000199-01061-01601999999ADDGF100995999999999999999999MA1999999070331MD1210011+9999REMSYN05252787 32980 01407 11106 21160 37033 52001 333 00005=
0138527870999992015020718004+37200+102867FM-12+304499999V0201601N00701002401CN030000199-01621-01881999999ADDGF109991999999999999999999KA1120M-00641MA1999999070121MD1710151+9999REMSYN05852787 32/80 91607 11162 21188 37012 57015 333 05252 11064=
0119527870999992015020721004+37200+102867FM-12+304499999V0201401N00501002401CN030000199-01631-01901999999ADDGF109991999999999999999999MA1999999069951MD1710171+9999REMSYN05252787 32/80 91405 11163 21190 36995 57017 333 05451=
0125527870999992015020800004+37200+102867FM-12+304499999V0202901N001019999999N030000199-01151-02481999999ADDGF100995999999999999999999MA1999999069851MD1710101+9999REMSYN05852787 32980 02901 11115 21248 36985 57010 333 05507 92500=
0109527870999992015020803004+37200+102867FM-12+304499999V0203601N008019999999N030000199-00441-03041999999ADDGF100995999999999999999999MA1999999069921MD1210071+9999REMSYN04252787 32980 03608 11044 21304 36992 52007=
0138527870999992015020806004+37200+102867FM-12+304499999V0200201N010019999999N030000199-00351-02571999999ADDGF100995999999999999999999KA1240N-01701MA1999999069851MD1710071+9999REMSYN05852787 32980 00210 11035 21257 36985 57007 333 05504 21170=
0119527870999992015020809004+37200+102867FM-12+304499999V0203601N009019999999N030000199-00561-02741999999ADDGF100995999999999999999999MA1999999069951MD1210101+9999REMSYN05252787 32980 03609 11056 21274 36995 52010 333 05403=
0119527870999992015020812004+37200+102867FM-12+304499999V0202901N005019999999N030000199-01271-02261999999ADDGF100995999999999999999999MA1999999070171MD1210221+9999REMSYN05252787 32980 02905 11127 21226 37017 52022 333 05252=
0138527870999992015020818004+37200+102867FM-12+304499999V0201601N00301002401CN030000199-01241-02291999999ADDGF109991999999999999999999KA1120M-00311MA1999999070171MD1710061+9999REMSYN05852787 32/80 91603 11124 21229 37017 57006 333 00104 11031=
0119527870999992015020821004+37200+102867FM-12+304499999V0201401N00301002401CN030000199-01271-02291999999ADDGF109991999999999999999999MA1999999070101MD1710071+9999REMSYN05252787 32/80 91403 11127 21229 37010 57007 333 00204=
0125527870999992015020900004+37200+102867FM-12+304499999V0201401N004019999999N030000199-01311-02251999999ADDGF100995999999999999999999MA1999999070091MD1710011+9999REMSYN05852787 32980 01404 11131 21225 37009 57001 333 00252 92500=
0109527870999992015020903004+37200+102867FM-12+304499999V0201601N006019999999N030000199-00481-02131999999ADDGF100995999999999999999999MA1999999070121MD1210031+9999REMSYN04252787 32980 01606 11048 21213 37012 52003=
0138527870999992015020906004+37200+102867FM-12+304499999V0201601N004019999999N026000199-00021-02231999999ADDGF100995999999999999999999KA1240N-01351MA1999999070001MD1710121+9999REMSYN05852787 32976 01604 11002 21223 37000 57012 333 00203 21135=
0119527870999992015020909004+37200+102867FM-12+304499999V0200201N008019999999N030000199-00181-02741999999ADDGF100995999999999999999999MA1999999070051MD1210051+9999REMSYN05252787 32980 00208 11018 21274 37005 52005 333 00104=
0119527870999992015020912004+37200+102867FM-12+304499999V0203201N005019999999N030000199-00931-02121999999ADDGF100995999999999999999999MA1999999070181MD1210131+9999REMSYN05252787 32980 03205 11093 21212 37018 52013 333 00003=
0138527870999992015020918004+37200+102867FM-12+304499999V0202901N00101002401CN030000199-01061-02301999999ADDGF109991999999999999999999KA1120M+00071MA1999999070201MD1710051+9999REMSYN05852787 32/80 92901 11106 21230 37020 57005 333 00002 10007=
0119527870999992015020921004+37200+102867FM-12+304499999V0203201N00301002401CN030000199-00841-02111999999ADDGF109991999999999999999999MA1999999070131MD1710071+9999REMSYN05252787 32/80 93203 11084 21211 37013 57007 333 00004=
0163527870999992015021000004+37200+102867FM-12+304499999V0203201N007019999999N030000199-01161-02081999999ADDGA1071+017501999GE19AGL   +99999+99999GF107991071999017501999999MA1999999070191MD1210061+9999REMSYN05852787 32780 73207 11116 21208 37019 52006 87/// 333 00102=
0109527870999992015021003004+37200+102867FM-12+304499999V0203401N001019999999N030000199-00451-02111999999ADDGF100995999999999999999999MA1999999070231MD1210041+9999REMSYN04252787 42980 03401 11045 21211 37023 52004=
0162527870999992015021006004+37200+102867FM-12+304499999V0203601N010019999999N030000199-00541-01651999999ADDGA1021+012501999GE19AGL   +99999+99999GF102991021999012501999999KA1240N-01211MA1999999070141REMSYN05852787 32680 23610 11054 21165 37014 82/// 333 00155 21121=
0163527870999992015021009004+37200+102867FM-12+304499999V0203601N008019999999N030000199-00681-01871999999ADDGA1071+017501999GE19AGL   +99999+99999GF107991071999017501999999MA1999999070161MD1210021+9999REMSYN05852787 32780 73608 11068 21187 37016 52002 87/// 333 00155=
0163527870999992015021012004+37200+102867FM-12+304499999V0203601N008019999999N030000199-00811-01731999999ADDGA1051+017501999GE19AGL   +99999+99999GF105991051999017501999999MA1999999070311MD1210151+9999REMSYN05852787 32780 53608 11081 21173 37031 52015 85/// 333 00101=
0138527870999992015021018004+37200+102867FM-12+304499999V0200201N00701002401CN030000199-00731-02081999999ADDGF109991999999999999999999KA1120M-00141MA1999999070231MD1710111+9999REMSYN05852787 32/80 90207 11073 21208 37023 57011 333 00003 11014=
0119527870999992015021021004+37200+102867FM-12+304499999V0203601N00701002401CN030000199-00821-02261999999ADDGF109991999999999999999999MA1999999070151MD1710081+9999REMSYN05252787 32/80 93607 11082 21226 37015 57008 333 00000=
0119527870999992015021100004+37200+102867FM-12+304499999V0203401N002019999999N030000199-01001-02461999999ADDGF100995999999999999999999MA1999999070171MD1210021+9999REMSYN05252787 32980 03402 11100 21246 37017 52002 333 00002=
0109527870999992015021103004+37200+102867FM-12+304499999V0203601N003019999999N030000199-00331-02481999999ADDGF100995999999999999999999MA1999999070201MD1210031+9999REMSYN04252787 32980 03603 11033 21248 37020 52003=
0138527870999992015021106004+37200+102867FM-12+304499999V0203601N005019999999N030000199-00091-02501999999ADDGF100995999999999999999999KA1240N-01201MA1999999070061MD1710141+9999REMSYN05852787 32980 03605 11009 21250 37006 57014 333 05105 21120=
0119527870999992015021109004+37200+102867FM-12+304499999V0203601N006019999999N030000199-00151-02341999999ADDGF100995999999999999999999MA1999999070061MD1410001+9999REMSYN05252787 32980 03606 11015 21234 37006 54000 333 05105=
0119527870999992015021112004+37200+102867FM-12+304499999V0200201N008019999999N030000199-00521-02311999999ADDGF100995999999999999999999MA1999999070121MD1210061+9999REMSYN05252787 32980 00208 11052 21231 37012 52006 333 05203=
0138527870999992015021118004+37200+102867FM-12+304499999V0203601N01101002401CN030000199-00601-02771999999ADDGF109991999999999999999999KA1120M+00001MA1999999070111MD1710011+9999REMSYN05852787 32/80 93611 11060 21277 37011 57001 333 05101 10000=
0119527870999992015021121004+37200+102867FM-12+304499999V0203401N00201002401CN030000199-00881-02611999999ADDGF109991999999999999999999MA1999999070071MD1710041+9999REMSYN05252787 32/80 93402 11088 21261 37007 57004 333 05151=
0119527870999992015021200004+37200+102867FM-12+304499999V0202901N002019999999N030000199-00901-02631999999ADDGF100995999999999999999999MA1999999070111MD1210041+9999REMSYN05252787 32980 02902 11090 21263 37011 52004 333 05101=
0109527870999992015021203004+37200+102867FM-12+304499999V0203401N002019999999N030000199-00341-02371999999ADDGF100995999999999999999999MA1999999070201MD1210091+9999REMSYN04252787 32980 03402 11034 21237 37020 52009=
0138527870999992015021206004+37200+102867FM-12+304499999V0200201N003019999999N030000199+00051-02391999999ADDGF100995999999999999999999KA1240N-00951MA1999999070041MD1710161+9999REMSYN05852787 32980 00203 10005 21239 37004 57016 333 00001 21095=
0119527870999992015021209004+37200+102867FM-12+304499999V0203601N006019999999N030000199+00001-02431999999ADDGF100995999999999999999999MA1999999070011MD1710031+9999REMSYN05252787 32980 03606 10000 21243 37001 57003 333 05102=
0119527870999992015021212004+37200+102867FM-12+304499999V0202201N002019999999N030000199-00461-02411999999ADDGF100995999999999999999999MA1999999070081MD1210071+9999REMSYN05252787 32980 02202 11046 21241 37008 52007 333 00001=
0138527870999992015021218004+37200+102867FM-12+304499999V0201601N00501002401CN030000199-00941-02411999999ADDGF109991999999999999999999KA1120M+00101MA1999999070011MD1710101+9999REMSYN05852787 32/80 91605 11094 21241 37001 57010 333 05153 10010=
0119527870999992015021221004+37200+102867FM-12+304499999V0201601N00501002401CN030000199-00861-02341999999ADDGF109991999999999999999999MA1999999069871MD1710141+9999REMSYN05252787 32/80 91605 11086 21234 36987 57014 333 05200=
0119527870999992015021300004+37200+102867FM-12+304499999V0201601N005019999999N030000199-00941-02331999999ADDGF100995999999999999999999MA1999999069831MD1710041+9999REMSYN05252787 32980 01605 11094 21233 36983 57004 333 05300=
0153527870999992015021303004+37200+102867FM-12+304499999V0201601N006019999999N030000199-00011-02221999999ADDGA1021+999999999GE19AGL   +99999+99999GF102991021999999999999999MA1999999069791MD1710041+9999REMSYN04852787 32980 21606 11001 21222 36979 57004 82///=
0182527870999992015021306004+37200+102867FM-12+304499999V0201601N007019999999N026000199+00341-02431999999ADDGA1071+999999999GE19AGL   +99999+99999GF107991071999999999999999KA1240N-01051MA1999999069581MD1710211+9999REMSYN06452787 32976 71607 10034 21243 36958 57021 87/// 333 05503 21105=
0163527870999992015021309004+37200+102867FM-12+304499999V0202001N001019999999N026000199+00441-02251999999ADDGA1071+999999999GE19AGL   +99999+99999GF107991071999999999999999MA1999999069551MD1710031+9999REMSYN05852787 32976 72001 10044 21225 36955 57003 87/// 333 05504=
0163527870999992015021312004+37200+102867FM-12+304499999V0201601N002019999999N030000199-00111-02601999999ADDGA1031+999999999GE19AGL   +99999+99999GF103991031999999999999999MA1999999069671MD1210121+9999REMSYN05852787 32980 31602 11011 21260 36967 52012 83/// 333 05404=
0138527870999992015021318004+37200+102867FM-12+304499999V0201601N00201002401CN030000199-00391-02351999999ADDGF109991999999999999999999KA1120M+00531MA1999999069571MD1710111+9999REMSYN05852787 32/80 91602 11039 21235 36957 57011 333 05406 10053=
0119527870999992015021321004+37200+102867FM-12+304499999V0200201N00101002401CN030000199-00341-02311999999ADDGF109991999999999999999999MA1999999069491MD1710081+9999REMSYN05252787 32/80 90201 11034 21231 36949 57008 333 05405=
0119527870999992015021400004+37200+102867FM-12+304499999V0200201N006019999999N030000199-00381-02401999999ADDGF100995999999999999999999MA1999999069571MD1210081+9999REMSYN05252787 32980 00206 11038 21240 36957 52008 333 05306=
0139527870999992015021403004+37200+102867FM-12+304499999V0203601N011019999999N030000199-00421-02081999999ADDGF100995999999999999999999MA1999999069751MD1210181+9999OD139901801020REMSYN05852787 32980 03611 11042 21208 36975 52018 333 91118 91502=
0208527870999992015021406004+37200+102867FM-12+304499999V0203401N013019999999N015000199-00531-01481999999ADDGA1021+999999999GE19AGL   +99999+99999GF102991021999999999999999KA1240N-00591MA1999999069681MD1710071+9999OD139901801020REMSYN07652787 32965 23413 11053 21148 36968 57007 82/// 333 00159 21059 91118 91502=
0189527870999992015021409004+37200+102867FM-12+304499999V0203601N012019999999N020000199-00721-01481999999ADDGA1031+999999999GE19AGL   +99999+99999GF103991031999999999999999MA1999999069781MD1210101+9999OD139901901360REMSYN07052787 32970 33612 11072 21148 36978 52010 83/// 333 00262 91119 91536=
0240527870999992015021412004+37200+102867FM-12+304499999V0203601N011019999999N030000199-01031-01271999999ADDAA106000021AY171021AY201021GA1071+017501999GE19AGL   +99999+99999GF107991071999017501999999MA1999999070031MD1210251+9999MW1701OD139901901360REMSYN08852787 11780 73611 11103 21127 37003 52025 69901 77070 87/// 333 00459 91119 91536 92500=
0181527870999992015021418004+37200+102867FM-12+304499999V0203201N00501002401CN030000199-01321-01511999999ADDAA106000131GF109991999999999999999999KA1120M-00191MA1999999070131MD1710021+9999OD139901701360REMSYN07652787 12/80 93205 11132 21151 37013 57002 69911 333 00659 11019 91117 91536=
0136527870999992015021421004+37200+102867FM-12+304499999V0202901N00301002401CN030000199-01521-01731999999ADDAA124000131GF109991999999999999999999MA1999999070071MD1710061+9999REMSYN05852787 32/80 92903 11152 21173 37007 57006 333 00662 70001=
0203527870999992015021500004+37200+102867FM-12+304499999V0203201N001019999999N030000199-01441-01641999999ADDAA112000131AA224000131GA1061+999999999GE19AGL   +99999+99999GF106991061999999999999999MA1999999070161MD1210091+9999REMSYN07652787 12980 63201 11144 21164 37016 52009 69912 86/// 333 00661 70001 92501=
0109527870999992015021503004+37200+102867FM-12+304499999V0200201N003019999999N030000199-00741-01701999999ADDGF100995999999999999999999MA1999999070341MD1210181+9999REMSYN04252787 32980 00203 11074 21170 37034 52018=
0182527870999992015021506004+37200+102867FM-12+304499999V0203201N011019999999N030000199-00591-01611999999ADDGA1021+999999999GE19AGL   +99999+99999GF102991021999999999999999KA1240N-01531MA1999999070231MD1710111+9999REMSYN06452787 32980 23211 11059 21161 37023 57011 82/// 333 00651 21153=
0163527870999992015021509004+37200+102867FM-12+304499999V0200201N004019999999N030000199-00601-01731999999ADDGA1071+999999999GE19AGL   +99999+99999GF107991071999999999999999MA1999999070291MD1210061+9999REMSYN05852787 32980 70204 11060 21173 37029 52006 87/// 333 00501=
0163527870999992015021512004+37200+102867FM-12+304499999V0203201N005019999999N030000199-00971-01701999999ADDGA1071+999999999GE19AGL   +99999+99999GF107991071999999999999999MA1999999070431MD1210141+9999REMSYN05852787 32980 73205 11097 21170 37043 52014 87/// 333 00401=
0138527870999992015021518004+37200+102867FM-12+304499999V0201801N00701002401CN030000199-01101-01881999999ADDGF109991999999999999999999KA1120M-00441MA1999999070321MD1710141+9999REMSYN05852787 32/80 91807 11110 21188 37032 57014 333 00202 11044=
0119527870999992015021521004+37200+102867FM-12+304499999V0201601N00401002401CN030000199-01301-01921999999ADDGF109991999999999999999999MA1999999070131MD1710191+9999REMSYN05252787 32/80 91604 11130 21192 37013 57019 333 00102=
0119527870999992015021600004+37200+102867FM-12+304499999V0202701N005019999999N030000199-00941-02331999999ADDGF100995999999999999999999MA1999999070091MD1710041+9999REMSYN05252787 32980 02705 11094 21233 37009 57004 333 05105=
0109527870999992015021603004+37200+102867FM-12+304499999V0202701N007019999999N030000199-00251-02631999999ADDGF100995999999999999999999MA1999999070121MD1210031+9999REMSYN04252787 32980 02707 11025 21263 37012 52003=
0138527870999992015021606004+37200+102867FM-12+304499999V0202901N007019999999N030000199+00021-02591999999ADDGF100995999999999999999999KA1240N-01391MA1999999069981MD1710141+9999REMSYN05852787 32980 02907 10002 21259 36998 57014 333 05306 21139=
0189527870999992015021609004+37200+102867FM-12+304499999V0203601N006019999999N030000199-00141-02471999999ADDGA1071+017501999GE19AGL   +99999+99999GF107991071999017501999999MA1999999069921MD1710061+9999OD139901901320REMSYN07052787 32780 73606 11014 21247 36992 57006 87/// 333 05405 91119 91532=
0189527870999992015021612004+37200+102867FM-12+304499999V0203601N007019999999N030000199-00421-02501999999ADDGA1011+999999999GE19AGL   +99999+99999GF101991011999999999999999MA1999999070041MD1210121+9999OD139901901320REMSYN07052787 32980 13607 11042 21250 37004 52012 81/// 333 05406 91119 91532=
0138527870999992015021618004+37200+102867FM-12+304499999V0201601N00601002401CN030000199-00961-02471999999ADDGF109991999999999999999999KA1120M+00191MA1999999069931MD1710081+9999REMSYN05852787 32/80 91606 11096 21247 36993 57008 333 05401 10019=
0119527870999992015021621004+37200+102867FM-12+304499999V0201801N00501002401CN030000199-00721-02431999999ADDGF109991999999999999999999MA1999999069811MD1710121+9999REMSYN05252787 32/80 91805 11072 21243 36981 57012 333 05306=
0163527870999992015021700004+37200+102867FM-12+304499999V0201601N003019999999N024000199-00961-02471999999ADDGA1021+999999999GE19AGL   +99999+99999GF102991021999999999999999MA1999999069841MD1210031+9999REMSYN05852787 32974 21603 11096 21247 36984 52003 82/// 333 05300=
0109527870999992015021703004+37200+102867FM-12+304499999V0201601N004019999999N029000199-00151-02401999999ADDGF100995999999999999999999MA1999999069901MD1210061+9999REMSYN04252787 32979 01604 11015 21240 36990 52006=
0182527870999992015021706004+37200+102867FM-12+304499999V0203201N004019999999N029000199+00231-02241999999ADDGA1021+999999999GE19AGL   +99999+99999GF102991021999999999999999KA1240N-00981MA1999999069871MD1710031+9999REMSYN06452787 32979 23204 10023 21224 36987 57003 82/// 333 05102 21098=
0163527870999992015021709004+37200+102867FM-12+304499999V0203401N009019999999N030000199-00131-01881999999ADDGA1021+999999999GE19AGL   +99999+99999GF102991021999999999999999MA1999999069921MD1210051+9999REMSYN05852787 32980 23409 11013 21188 36992 52005 82/// 333 00000=
0163527870999992015021712004+37200+102867FM-12+304499999V0203201N008019999999N030000199-00751-01961999999ADDGA1021+999999999GE19AGL   +99999+99999GF102991021999999999999999MA1999999070111MD1210191+9999REMSYN05852787 32980 23208 11075 21196 37011 52019 82/// 333 00153=
0138527870999992015021718004+37200+102867FM-12+304499999V0201601N00701002401CN030000199-00941-02011999999ADDGF109991999999999999999999KA1120M+00291MA1999999070021MD1710151+9999REMSYN05852787 32/80 91607 11094 21201 37002 57015 333 00100 10029=
0119527870999992015021721004+37200+102867FM-12+304499999V0201801N00901002401CN030000199-00761-02041999999ADDGF109991999999999999999999MA1999999069871MD1710151+9999REMSYN05252787 32/80 91809 11076 21204 36987 57015 333 00100=
0189527870999992015021800004+37200+102867FM-12+304499999V0201101N013019999999N030000199-00451-01461999999ADDGA1071+017501999GE19AGL   +99999+99999GF107991071999017501999999MA1999999069761MD1710111+9999OD139901901110REMSYN07052787 32780 71113 11045 21146 36976 57011 87/// 333 05105 91119 91511=
0183527870999992015021803004+37200+102867FM-12+304499999V0201401N014019999999N030000199-00141-01261999999ADDGA1061+999999999GE19AGL   +99999+99999GF106991061999999999999999MA1999999069751MD1710011+9999OD139901901110REMSYN06452787 32980 61414 11014 21126 36975 57001 86/// 333 91119 91511=
0208527870999992015021806004+37200+102867FM-12+304499999V0201401N009019999999N020000199+00071-01371999999ADDGA1071+017501999GE19AGL   +99999+99999GF107991071999017501999999KA1240N-01021MA1999999069671MD1710081+9999OD139901801110REMSYN07652787 32770 71409 10007 21137 36967 57008 87/// 333 05252 21102 91118 91511=
0163527870999992015021809004+37200+102867FM-12+304499999V0203401N009019999999N028000199-00181-01701999999ADDGA1021+999999999GE19AGL   +99999+99999GF102991021999999999999999MA1999999069671MD1410001+9999REMSYN05852787 32978 23409 11018 21170 36967 54000 82/// 333 05351=
0119527870999992015021812004+37200+102867FM-12+304499999V0203601N008019999999N030000199-00531-01971999999ADDGF100995999999999999999999MA1999999069831MD1210161+9999REMSYN05252787 32980 03608 11053 21197 36983 52016 333 05302=
0138527870999992015021818004+37200+102867FM-12+304499999V0201401N00201002401CN030000199-00251-01761999999ADDGF109991999999999999999999KA1120M+00281MA1999999069841MD1710021+9999REMSYN05852787 32/80 91402 11025 21176 36984 57002 333 05207 10028=
0119527870999992015021821004+37200+102867FM-12+304499999V0201601N00201002401CN030000199-00341-01201999999ADDGF109991999999999999999999MA1999999069731MD1710111+9999REMSYN05252787 32/80 91602 11034 21120 36973 57011 333 05104=
0163527870999992015021900004+37200+102867FM-12+304499999V0202701N001019999999N030000199-00431-01311999999ADDGA1071+017501999GE19AGL   +99999+99999GF107991071999017501999999MA1999999069771MD1210041+9999REMSYN05852787 32780 72701 11043 21131 36977 52004 87/// 333 00000=
0153527870999992015021903004+37200+102867FM-12+304499999V0203401N004019999999N030000199+00231-02422999999ADDGA1051+999999999GE19AGL   +99999+99999GF105991051999999999999999MA1999999069801MD1210031+9999REMSYN04852787 32980 53404 10023 21242 36980 52003 85///=
0182527870999992015021906004+37200+102867FM-12+304499999V0203401N012019999999N028000199-00091-01471999999ADDGA1071+999999999GE19AGL   +99999+99999GF107991071999999999999999KA1240N-00701MA1999999069711MD1710091+9999REMSYN06452787 32978 73412 11009 21147 36971 57009 87/// 333 00052 21070=
0163527870999992015021909004+37200+102867FM-12+304499999V0203401N008019999999N028000199-00301-01691999999ADDGA1071+999999999GE19AGL   +99999+99999GF107991071999999999999999MA1999999069671MD1710041+9999REMSYN05852787 32978 73408 11030 21169 36967 57004 87/// 333 00051=
0163527870999992015021912004+37200+102867FM-12+304499999V0203401N009019999999N030000199-00861-02001999999ADDGA1071+999999999GE19AGL   +99999+99999GF107991071999999999999999MA1999999069771MD1210101+9999REMSYN05852787 32980 73409 11086 21200 36977 52010 87/// 333 05153=
0138527870999992015021918004+37200+102867FM-12+304499999V0203401N00901002401CN030000199-01071-02051999999ADDGF109991999999999999999999KA1120M+00391MA1999999069731MD1710031+9999REMSYN05852787 32/80 93409 11107 21205 36973 57003 333 05158 10039=
0136527870999992015021921004+37200+102867FM-12+304499999V0203401N00901002401CN030000199-01161-01351999999ADDAA124000431GF109991999999999999999999MA1999999069771MD1210041+9999REMSYN05852787 42/80 93409 11116 21135 36977 52004 333 00058 70004=
0203527870999992015022000004+37200+102867FM-12+304499999V0203401N002019999999N030000199-01221-01411999999ADDAA106000631AA224000631GA1071+017501999GE19AGL   +99999+99999GF107991071999017501999999MA1999999069841MD1210071+9999REMSYN07652787 12780 73402 11122 21141 36984 52007 69961 87/// 333 00158 70006 92502=
0109527870999992015022003004+37200+102867FM-12+304499999V0203201N004019999999N030000199-00501-01261999999ADDGF100995999999999999999999MA1999999069951MD1210111+9999REMSYN04252787 42980 03204 11050 21126 36995 52011=
0182527870999992015022006004+37200+102867FM-12+304499999V0202701N001019999999N026000199-00231-00891999999ADDGA1071+999999999GE19AGL   +99999+99999GF107991071999999999999999KA1240N-01321MA1999999069801MD1710151+9999REMSYN06452787 32976 72701 11023 21089 36980 57015 87/// 333 00151 21132=
0163527870999992015022009004+37200+102867FM-12+304499999V0203601N010019999999N030000199-00591-01061999999ADDGA1071+017501999GE19AGL   +99999+99999GF107991071999017501999999MA1999999069781MD1710021+9999REMSYN05852787 32780 73610 11059 21106 36978 57002 87/// 333 00153=
0208527870999992015022012004+37200+102867FM-12+304499999V0203601N008019999999N030000199-00891-01101999999ADDAA106000021AY171021AY201021GA1071+017501999GE19AGL   +99999+99999GF107991071999017501999999MA1999999069941MD1210161+9999MW1701REMSYN07052787 11780 73608 11089 21110 36994 52016 69901 77070 87/// 333 00200=
0155527870999992015022018004+37200+102867FM-12+304499999V0203401N00501002401CN030000199-01051-01301999999ADDAA106000431GF109991999999999999999999KA1120M-00151MA1999999070031MD1210021+9999REMSYN06452787 12/80 93405 11105 21130 37003 52002 69941 333 00300 11015=
0136527870999992015022021004+37200+102867FM-12+304499999V0203401N00201002401CN030000199-01151-01311999999ADDAA124000731GF109991999999999999999999MA1999999069951MD1710081+9999REMSYN05852787 42/80 93402 11115 21131 36995 57008 333 00200 70007=
0215527870999992015022100004+37200+102867FM-12+304499999V0201401N002019999999N030000199-01371-01591999999ADDAA106000231AA224000631GA1071+017501999GE19AGL   +99999+99999GF107991071999017501999999MA1999999069951MD1410001+9999MW1701REMSYN08252787 11780 71402 11137 21159 36995 54000 69921 770// 87/// 333 00152 70006 92502=
0181527870999992015022103004+37200+102867FM-12+304499999V0203201N003019999999N030000199-01161-01351999999ADDAY171021AY271021GA1071+999999999GE19AGL   +99999+99999GF107991071999999999999999MA1999999070071MD1210121+9999MW1701REMSYN05452787 41980 73203 11116 21135 37007 52012 77077 87///=
0227527870999992015022106004+37200+102867FM-12+304499999V0203401N006019999999N008000199-00791-01101999999ADDAA106000231AY171021AY201021GA1071+017501999GE19AGL   +99999+99999GF107991071999017501999999KA1240N-01401MA1999999070001MD1710071+9999MW1701REMSYN07652787 11758 73406 11079 21110 37000 57007 69921 77070 87/// 333 00256 21140=
0191527870999992015022109004+37200+102867FM-12+304499999V0203601N006019999999N030000199-00971-01271999999ADDAY171021AY271021GA1081+017501999GE19AGL   +99999+99999GF108991081999017501999999MA1999999070011MD1210011+9999MW1701REMSYN06452787 41780 83606 11097 21127 37001 52001 77077 88/// 333 00254=
0208527870999992015022112004+37200+102867FM-12+304499999V0200201N005019999999N030000199-00991-01261999999ADDAA106003031AY171021AY271021GA1081+999999999GE19AGL   +99999+99999GF108991081999999999999999MA1999999070161MD1210151+9999MW1711REMSYN07052787 11980 80205 11099 21126 37016 52015 60031 77177 88/// 333 00251=
0155527870999992015022118004+37200+102867FM-12+304499999V0202201N00201002401CN030000199-01251-01501999999ADDAA106000731GF109991999999999999999999KA1120M-00741MA1999999070091MD1710111+9999REMSYN06452787 12/80 92202 11125 21150 37009 57011 69971 333 00152 11074=
0136527870999992015022121004+37200+102867FM-12+304499999V0201401N00201002401CN030000199-01231-01671999999ADDAA124004031GF109991999999999999999999MA1999999070001MD1710091+9999REMSYN05852787 32/80 91402 11123 21167 37000 57009 333 00151 70040=
0203527870999992015022200004+37200+102867FM-12+304499999V0201601N007019999999N030000199-01341-01591999999ADDAA112000731AA224003931GA1071+017501999GE19AGL   +99999+99999GF107991071999017501999999MA1999999069911MD1710091+9999REMSYN07652787 12780 71607 11134 21159 36991 57009 69972 87/// 333 00000 70039 92504=
0153527870999992015022203004+37200+102867FM-12+304499999V0201401N004019999999N030000199-00901-01271999999ADDGA1071+999999999GE19AGL   +99999+99999GF107991071999999999999999MA1999999069901MD1710011+9999REMSYN04852787 32980 71404 11090 21127 36990 57001 87///=
0138527870999992015022206004+37200+102867FM-12+304499999V0202701N008019999999N030000199-00211-01581999999ADDGF100995999999999999999999KA1240N-01481MA1999999069711MD1710191+9999REMSYN05852787 32680 02708 11021 21158 36971 57019 333 05306 21148=
0163527870999992015022209004+37200+102867FM-12+304499999V0200201N003019999999N030000199-00041-01431999999ADDGA1021+012501999GE19AGL   +99999+99999GF102991021999012501999999MA1999999069551MD1710161+9999REMSYN05852787 32680 20203 11004 21143 36955 57016 82/// 333 05509=
0163527870999992015022212004+37200+102867FM-12+304499999V0203601N011019999999N030000199-00951-01891999999ADDGA1071+017501999GE19AGL   +99999+99999GF107991071999017501999999MA1999999069701MD1210151+9999REMSYN05852787 32780 73611 11095 21189 36970 52015 87/// 333 05500=
0155527870999992015022218004+37200+102867FM-12+304499999V0200201N00201002401CN030000199-00931-01331999999ADDAA106001031GF109991999999999999999999KA1120M-00011MA1999999069871MD1410001+9999REMSYN06452787 12/80 90202 11093 21133 36987 54000 60011 333 05203 11001=
0136527870999992015022221004+37200+102867FM-12+304499999V0202901N00201002401CN030000199-01011-01441999999ADDAA124001231GF109991999999999999999999MA1999999069801MD1710071+9999REMSYN05852787 42/80 92902 11101 21144 36980 57007 333 05202 70012=
0203527870999992015022300004+37200+102867FM-12+304499999V0201601N004019999999N030000199-01191-01551999999ADDAA112001031AA224001231GA1021+999999999GE19AGL   +99999+99999GF102991021999999999999999MA1999999069841MD1210041+9999REMSYN07652787 12980 21604 11119 21155 36984 52004 60012 82/// 333 05102 70012 92500=
0109527870999992015022303004+37200+102867FM-12+304499999V0201601N002019999999N030000199-00791-01181999999ADDGF100995999999999999999999MA1999999069921MD1210081+9999REMSYN04252787 32980 01602 11079 21118 36992 52008=
0182527870999992015022306004+37200+102867FM-12+304499999V0201601N004019999999N030000199-00351-00791999999ADDGA1011+012501999GE19AGL   +99999+99999GF101991011999012501999999KA1240N-01241MA1999999069781MD1710141+9999REMSYN06452787 32680 11604 11035 21079 36978 57014 81/// 333 00151 21124=
0163527870999992015022309004+37200+102867FM-12+304499999V0203601N006019999999N030000199-00311-01081999999ADDGA1051+017501999GE19AGL   +99999+99999GF105991051999017501999999MA1999999069711MD1710071+9999REMSYN05852787 32780 53606 11031 21108 36971 57007 85/// 333 00253=
0163527870999992015022312004+37200+102867FM-12+304499999V0203201N006019999999N030000199-00731-01301999999ADDGA1071+999999999GE19AGL   +99999+99999GF107991071999999999999999MA1999999069811MD1210101+9999REMSYN05852787 32980 73206 11073 21130 36981 52010 87/// 333 00102=
0155527870999992015022318004+37200+102867FM-12+304499999V0203201N00101002401CN030000199-00701-00801999999ADDAA106000131GF109991999999999999999999KA1120M-00141MA1999999069701MD1710081+9999REMSYN06452787 12/80 93201 11070 21080 36970 57008 69911 333 05202 11014=
0136527870999992015022321004+37200+102867FM-12+304499999V0203601N00401002401CN030000199-00781-00931999999ADDAA124000231GF109991999999999999999999MA1999999069531MD1710171+9999REMSYN05852787 42/80 93604 11078 21093 36953 57017 333 05302 70002=
0215527870999992015022400004+37200+102867FM-12+304499999V0203601N008019999999N030000199-00981-01281999999ADDAA106000231AA224000331GA1081+017501999GE19AGL   +99999+99999GF108991081999017501999999MA1999999069641MD1210111+9999MW1701REMSYN08252787 11780 83608 11098 21128 36964 52011 69921 770// 88/// 333 05202 70003 92503=
0181527870999992015022403004+37200+102867FM-12+304499999V0203401N008019999999N030000199-00921-01031999999ADDAY171021AY271021GA1071+017501999GE19AGL   +99999+99999GF107991071999017501999999MA1999999069771MD1210131+9999MW1701REMSYN05452787 41780 73408 11092 21103 36977 52013 77077 87///=
0227527870999992015022406004+37200+102867FM-12+304499999V0203401N004019999999N030000199-00541-01101999999ADDAA106000131AY171021AY201021GA1071+017501999GE19AGL   +99999+99999GF107991071999017501999999KA1240N-01021MA1999999069691MD1710081+9999MW1001REMSYN07652787 11780 73404 11054 21110 36969 57008 69911 70070 87/// 333 05152 21102=
0191527870999992015022409004+37200+102867FM-12+304499999V0203601N008019999999N030000199-00901-01161999999ADDAY171021AY201021GA1071+017501999GE19AGL   +99999+99999GF107991071999017501999999MA1999999069751MD1210061+9999MW1701REMSYN06452787 41780 73608 11090 21116 36975 52006 77070 87/// 333 00056=
0208527870999992015022412004+37200+102867FM-12+304499999V0203601N009019999999N030000199-01011-01311999999ADDAA106000531AY171021AY201021GA1071+017501999GE19AGL   +99999+99999GF107991071999017501999999MA1999999069891MD1210141+9999MW1701REMSYN07052787 11780 73609 11101 21131 36989 52014 69951 77070 87/// 333 00153=
0155527870999992015022418004+37200+102867FM-12+304499999V0201601N00301002401CN030000199-01101-01251999999ADDAA106000231GF109991999999999999999999KA1120M-00521MA1999999069851MD1710071+9999REMSYN06452787 12/80 91603 11110 21125 36985 57007 69921 333 00254 11052=
0136527870999992015022421004+37200+102867FM-12+304499999V0201401N00301002401CN030000199-01211-01371999999ADDAA124001031GF109991999999999999999999MA1999999069731MD1710121+9999REMSYN05852787 42/80 91403 11121 21137 36973 57012 333 00254 70010=
0215527870999992015022500004+37200+102867FM-12+304499999V0201601N005019999999N030000199-01211-01371999999ADDAA106000231AA224001031GA1071+017501999GE19AGL   +99999+99999GF107991071999017501999999MA1999999069721MD1710011+9999MW1701REMSYN08252787 11780 71605 11121 21137 36972 57001 69921 770// 87/// 333 00152 70010 92504=
0181527870999992015022503004+37200+102867FM-12+304499999V0201601N003019999999N030000199-01061-01221999999ADDAY171021AY201021GA1071+999999999GE19AGL   +99999+99999GF107991071999999999999999MA1999999069751MD1210031+9999MW1001REMSYN05452787 41980 71603 11106 21122 36975 52003 70070 87///=
0227527870999992015022506004+37200+102867FM-12+304499999V0203201N006019999999N030000199-00691-01681999999ADDAA106000131AY171021AY201021GA1071+999999999GE19AGL   +99999+99999GF107991071999999999999999KA1240N-01401MA1999999069711MD1710041+9999MW1001REMSYN07652787 11980 73206 11069 21168 36971 57004 69911 70070 87/// 333 00052 21140=
0163527870999992015022509004+37200+102867FM-12+304499999V0200201N008019999999N030000199-00741-01261999999ADDGA1021+999999999GE19AGL   +99999+99999GF102991021999999999999999MA1999999069751MD1210041+9999REMSYN05852787 32980 20208 11074 21126 36975 52004 82/// 333 00002=
