0110583380999992015010100004+31150+118583FM-12+001699999V0202201N002019999999N012000199-00341-00671103731ADDGF100995999999999999999999MD1210131+9999REMSYN05858338 32962 02202 11034 21067 40373 52013 333 00862 31048=
0094583380999992015010103004+31150+118583FM-12+001699999V0202201N002019999999N013000199+00341-01141103691ADDGF100995999999999999999999MD1710031+9999REMSYN04258338 32963 02202 10034 21114 40369 57003=
0161583380999992015010106004+31150+118583FM-12+001699999V0202201N002019999999N018000199+00561-01391103441ADDGA1011+999999999GE19AGL   +99999+99999GF101991011999999999999999KA1240N-00371MD1710251+9999REMSYN05858338 32968 12202 10056 21139 40344 57025 81/// 333 21037=
0138583380999992015010109004+31150+118583FM-12+001699999V0201101N002019999999N016000199+00311-01131103361ADDGA1021+999999999GE19AGL   +99999+99999GF102991021999999999999999MD1710081+9999REMSYN04858338 32966 21102 10031 21113 40336 57008 82///=
0094583380999992015010112004+31150+118583FM-12+001699999V0201101N002019999999N011000199-00031-00921103341ADDGF100995999999999999999999MD1710031+9999REMSYN04258338 32961 01102 11003 21092 40334 57003=
0138583380999992015010118004+31150+118583FM-12+001699999V0202201N00101002401CN013000199-00201-01061103151ADDGF109991999999999999999999KA1120M+00631MA1999999102621MD1710081+9999REMSYN05858338 32/63 92201 11020 21106 30262 40315 57008 333 10063=
0094583380999992015010121004+31150+118583FM-12+001699999V0201601N00101002401CN012000199-00461-00851103081ADDGF109991999999999999999999MD1710071+9999REMSYN04258338 32/62 91601 11046 21085 40308 57007=
0104583380999992015010200004+31150+118583FM-12+001699999V0201101N002019999999N009000199-00371-00731103171ADDGF100995999999999999999999MD1210081+9999REMSYN05258338 32959 01102 11037 21073 40317 52008 333 05600=
0094583380999992015010203004+31150+118583FM-12+001699999V0202501N002019999999N012000199+00661-00891103211ADDGF100995999999999999999999MD1210051+9999REMSYN04258338 32962 02502 10066 21089 40321 52005=
0117583380999992015010206004+31150+118583FM-12+001699999V0200701N001019999999N019000199+00971-01221102951ADDGF100995999999999999999999KA1240N-00601MD1710251+9999REMSYN05258338 32969 00701 10097 21122 40295 57025 333 21060=
0138583380999992015010209004+31150+118583FM-12+001699999V0200401N002019999999N018000199+00751-00981102951ADDGA1011+999999999GE19AGL   +99999+99999GF101991011999999999999999MD1710011+9999REMSYN04858338 32968 10402 10075 21098 40295 57001 81///=
0138583380999992015010212004+31150+118583FM-12+001699999V0200701N004019999999N013000199+00431-00811102921ADDGA1071+999999999GE19AGL   +99999+99999GF107991071999999999999999MD1710031+9999REMSYN04858338 32963 70704 10043 21081 40292 57003 87///=
0117583380999992015010218004+31150+118583FM-12+001699999V0201101N00301002401CN011000199+00411-00621102691ADDGF109991999999999999999999KA1120M+01001MD1710181+9999REMSYN05258338 32/61 91103 10041 21062 40269 57018 333 10100=
0094583380999992015010221004+31150+118583FM-12+001699999V0201101N00401002401CN010000199+00361-00481102501ADDGF109991999999999999999999MD1710191+9999REMSYN04258338 32/60 91104 10036 21048 40250 57019=
0154583380999992015010300004+31150+118583FM-12+001699999V0201101N002019999999N009000199+00341-00501102451ADDGA1021+022501999GE19AGL   +99999+99999GF102991021999022501999999MD1710051+9999REMSYN06458338 32859 21102 10034 21050 40245 57005 82/// 333 05707 30016=
0138583380999992015010303004+31150+118583FM-12+001699999V0201401N001019999999N011000199+01121-00331102321ADDGA1021+999999999GE19AGL   +99999+99999GF102991021999999999999999MD1710121+9999REMSYN04858338 32961 21401 10112 21033 40232 57012 82///=
0182583380999992015010306004+31150+118583FM-12+001699999V0202501N003019999999N017000199+01591-00581101931ADDGA1011+999999999GE19AGL   +99999+99999GF101991011999999999999999KA1240N+00301MA1999999101421MD1710391+9999REMSYN06458338 32967 12503 10159 21058 30142 40193 57039 81/// 333 20030=
0138583380999992015010309004+31150+118583FM-12+001699999V0200201N002019999999N013000199+01401-00331101851ADDGA1011+999999999GE19AGL   +99999+99999GF101991011999999999999999MD1710081+9999REMSYN04858338 32963 10202 10140 21033 40185 57008 81///=
0115583380999992015010312004+31150+118583FM-12+001699999V0201101N002019999999N008000199+00831-00021101881ADDGF100995999999999999999999MA1999999101361MD1210021+9999REMSYN04858338 32958 01102 10083 21002 30136 40188 52002=
0117583380999992015010318004+31150+118583FM-12+001699999V0209999C99999002401CN008000199+00461-00041101871ADDGF109991999999999999999999KA1120M+01681MD1210041+9999REMSYN05258338 32/58 90000 10046 21004 40187 52004 333 10168=
0106583380999992015010321004+31150+118583FM-12+001699999V0201801N00101002401CN006000199+00321-00141101741ADDGF109991999999999999999999MD1710131+9999MW1101REMSYN04858338 31/56 91801 10032 21014 40174 57013 710//=
0122583380999992015010400004+31150+118583FM-12+001699999V0201101N003019999999N004900199+00191-00071101811ADDGF100995999999999999999999MD1210061+9999MW1101REMSYN06458338 31949 01103 10019 21007 40181 52006 710// 333 05652 30004=
0094583380999992015010403004+31150+118583FM-12+001699999V0201401N002019999999N011000199+01432+00091101801ADDGF100995999999999999999999MD1410001+9999REMSYN04258338 32961 01402 10143 20009 40180 54000=
0117583380999992015010406004+31150+118583FM-12+001699999V0200901N004019999999N011000199+01811-00021101561ADDGF100995999999999999999999KA1240N+00071MD1710231+9999REMSYN05258338 32961 00904 10181 21002 40156 57023 333 20007=
0094583380999992015010409004+31150+118583FM-12+001699999V0200401N002019999999N010000199+01611+00291101481ADDGF100995999999999999999999MD1710091+9999REMSYN04258338 32960 00402 10161 20029 40148 57009=
0115583380999992015010412004+31150+118583FM-12+001699999V0200901N004019999999N008000199+01231+00071101461ADDGF100995999999999999999999MA1999999100951MD1710021+9999REMSYN04858338 32958 00904 10123 20007 30095 40146 57002=
0145583380999992015010418004+31150+118583FM-12+001699999V0201101N002019999999N999999999+00791+00081101391ADDAY101021AY201021GF109991999999999999999999KA1120M+01841MD1710061+9999MW1051REMSYN05858338 31/55 91102 10079 20008 40139 57006 70500 333 10184=
0106583380999992015010421004+31150+118583FM-12+001699999V0201101N00401002401CN004000199+00591+00111101251ADDGF109991999999999999999999MD1710141+9999MW1101REMSYN04858338 31/40 91104 10059 20011 40125 57014 710//=
0166583380999992015010500004+31150+118583FM-12+001699999V0201601N001019999999N999999999+00791+00191101281ADDGA1071+012501999GE19AGL   +99999+99999GF107991071999012501999999MD1210031+9999MW1051REMSYN07058338 31655 71601 10079 20019 40128 52003 705// 87/// 333 05506 30033=
0166583380999992015010503004+31150+118583FM-12+001699999V0209999C999999999999N003800199+01151+00401101251ADDAY101021AY201021GA1081+017501999GE19AGL   +99999+99999GF108991081999017501999999MD1710031+9999MW1051REMSYN05458338 31738 80000 10115 20040 40125 57003 70500 88///=
0189583380999992015010506004+31150+118583FM-12+001699999V0202901N001019999999N006000199+01401+00591101121ADDAY101021AY201021GA1081+017501999GE19AGL   +99999+99999GF108991081999017501999999KA1240N+00501MD1710131+9999MW1051REMSYN06458338 31756 82901 10140 20059 40112 57013 70500 88/// 333 20050=
0166583380999992015010509004+31150+118583FM-12+001699999V0202501N003019999999N003200199+01291+01011101331ADDAY101021AY201021GA1081+012501999GE19AGL   +99999+99999GF108991081999012501999999MD1210201+9999MW1101REMSYN05458338 31632 82503 10129 20101 40133 52020 71000 88///=
0183583380999992015010512004+31150+118583FM-12+001699999V0202701N004019999999N002500199+01121+00571101641ADDAA106000021AY101021AY201021GA1081+012501999GE19AGL   +99999+99999GF108991081999012501999999MD1210311+9999MW1601REMSYN06058338 11625 82704 10112 20057 40164 52031 69901 76000 88///=
0162583380999992015010518004+31150+118583FM-12+001699999V0202901N00301002401CN001500199+00831+00541102071ADDAA106000131AY101021AY201021GF109991999999999999999999KA1120M+01431MD1210201+9999MW1101REMSYN06458338 11/15 92903 10083 20054 40207 52020 69911 71000 333 10143=
0127583380999992015010521004+31150+118583FM-12+001699999V0203401N00401002401CN001500199+00791+00371102221ADDAA124000131GF109991999999999999999999MD1210151+9999MW1101REMSYN05858338 31/15 93404 10079 20037 40222 52015 710// 333 70001=
0215583380999992015010600004+31150+118583FM-12+001699999V0200201N004019999999N001800199+00771+00341102441ADDAA112000131AA224000131GA1081+012501999GE19AGL   +99999+99999GF108991081999012501999999MA1999999101931MD1210221+9999MW1101REMSYN08258338 11618 80204 10077 20034 30193 40244 52022 69912 710// 88/// 333 01200 70001=
0166583380999992015010603004+31150+118583FM-12+001699999V0200201N004019999999N001300199+00561+00441102571ADDAY161021AY201021GA1081+004501999GE19AGL   +99999+99999GF108991081999004501999999MD1210121+9999MW1601REMSYN05458338 41413 80204 10056 20044 40257 52012 76060 88///=
0206583380999992015010606004+31150+118583FM-12+001699999V0200401N002019999999N002700199+00351+00251102461ADDAA106004031AY171021AY261021GA1081+004501999GE19AGL   +99999+99999GF108991081999004501999999KA1240N+00351MD1710111+9999MW1681REMSYN07058338 11427 80402 10035 20025 40246 57011 60041 76876 88/// 333 20035=
0166583380999992015010609004+31150+118583FM-12+001699999V0200201N002019999999N999999999+00221+00121102631ADDAY171021AY271021GA1081+004501999GE19AGL   +99999+99999GF108991081999004501999999MD1210171+9999MW1681REMSYN05458338 41455 80202 10022 20012 40263 52017 76877 88///=
0183583380999992015010612004+31150+118583FM-12+001699999V0200201N001019999999N002600199+00181+00091102741ADDAA106002031AY171021AY261021GA1081+004501999GE19AGL   +99999+99999GF108991081999004501999999MD1210111+9999MW1681REMSYN06058338 11426 80201 10018 20009 40274 52011 60021 76876 88///=
0145583380999992015010618004+31150+118583FM-12+001699999V0202701N00201002401CN004800199+00201+00071102781ADDAY101021AY201021GF109991999999999999999999KA1120M+00841MD1710021+9999MW1101REMSYN05858338 31/48 92702 10020 20007 40278 57002 71000 333 10084=
0127583380999992015010621004+31150+118583FM-12+001699999V0202901N001019999999N999999999+00191+00031102801ADDAA124005731GF109991999999999999999999MD1210021+9999MW1101REMSYN05858338 31/55 92901 10019 20003 40280 52002 710// 333 70057=
0200583380999992015010700004+31150+118583FM-12+001699999V0203401N001019999999N006000199+00171-00091102981ADDAA112000021AA224005731GA1021+012501999GE19AGL   +99999+99999GF102991021999012501999999MD1210181+9999MW1101REMSYN08258338 11656 23401 10017 21009 40298 52018 69902 710// 82/// 333 00556 30012 70057=
0138583380999992015010703004+31150+118583FM-12+001699999V0202901N002019999999N007000199+00431-00131103061ADDGA1061+012501999GE19AGL   +99999+99999GF106991061999012501999999MD1210081+9999REMSYN04858338 32657 62902 10043 21013 40306 52008 86///=
0182583380999992015010706004+31150+118583FM-12+001699999V0203201N003019999999N009000199+00641-00201102931ADDGA1061+012501999GE19AGL   +99999+99999GF106991061999012501999999KA1240N+00151MA1999999102411MD1710121+9999REMSYN06458338 32659 63203 10064 21020 30241 40293 57012 86/// 333 20015=
0094583380999992015010709004+31150+118583FM-12+001699999V0202701N002019999999N010000199+00511-00221103111ADDGF100995999999999999999999MD1210171+9999REMSYN04258338 32960 02702 10051 21022 40311 52017=
0094583380999992015010712004+31150+118583FM-12+001699999V0202501N001019999999N008000199+00331-00181103211ADDGF100995999999999999999999MD1210101+9999REMSYN04258338 32958 02501 10033 21018 40321 52010=
0145583380999992015010718004+31150+118583FM-12+001699999V0202501N00201002401CN003600199-00051-00151103371ADDAY101021AY201021GF109991999999999999999999KA1120M+00661MD1210111+9999MW1101REMSYN05858338 31/36 92502 11005 21015 40337 52011 71000 333 10066=
0106583380999992015010721004+31150+118583FM-12+001699999V0202201N00101002401CN003000199-00101-00181103411ADDGF109991999999999999999999MD1210041+9999MW1101REMSYN04858338 31/30 92201 11010 21018 40341 52004 710//=
0143583380999992015010800004+31150+118583FM-12+001699999V0209999C999999999999N003800199-00101-00261103481ADDGF100995999999999999999999MA1999999102951MD1210071+9999MW1101REMSYN07058338 31938 00000 11010 21026 30295 40348 52007 710// 333 00553 31008=
0122583380999992015010803004+31150+118583FM-12+001699999V0202201N002019999999N004900199+00551-00121103401ADDAY101021AY201021GF100995999999999999999999MD1710081+9999MW1051REMSYN04858338 31949 02202 10055 21012 40340 57008 70500=
0166583380999992015010806004+31150+118583FM-12+001699999V0203401N001019999999N006000199+00861-00241103181ADDAY101021AY201021GF100995999999999999999999KA1240N-00121MA1999999102651MD1710221+9999MW1051REMSYN06458338 31956 03401 10086 21024 30265 40318 57022 70500 333 21012=
0122583380999992015010809004+31150+118583FM-12+001699999V0202701N001019999999N007000199+00761-00191103211ADDAY101021AY201021GF100995999999999999999999MD1210031+9999MW1051REMSYN04858338 31957 02701 10076 21019 40321 52003 70500=
0187583380999992015010812004+31150+118583FM-12+001699999V0201401N002019999999N004100199+00281-00031103181ADDAY101021AY201021GA1071+999999999GE19AGL   +99999+99999GF107991071999999999999999MA1999999102651MD1710031+9999MW1101REMSYN06058338 31941 71402 10028 21003 30265 40318 57003 71000 87///=
0166583380999992015010818004+31150+118583FM-12+001699999V0202701N00101002401CN003000199+00151-00061103181ADDAY101021AY201021GF109991999999999999999999KA1120M+00911MA1999999102661MD1210031+9999MW1101REMSYN06458338 31/30 92701 10015 21006 30266 40318 52003 71000 333 10091=
0106583380999992015010821004+31150+118583FM-12+001699999V0201101N00101002401CN003100199+00071-00111103071ADDGF109991999999999999999999MD1710111+9999MW1101REMSYN04858338 31/31 91101 10007 21011 40307 57011 710//=
0122583380999992015010900004+31150+118583FM-12+001699999V0209999C999999999999N004100199+00071-00111103171ADDGF100995999999999999999999MD1210091+9999MW1101REMSYN06458338 31941 00000 10007 21011 40317 52009 710// 333 05302 31003=
0122583380999992015010903004+31150+118583FM-12+001699999V0202501N002019999999N006000199+00921+00111103121ADDAY101021AY201021GF100995999999999999999999MD1710041+9999MW1051REMSYN04858338 31956 02502 10092 20011 40312 57004 70500=
0145583380999992015010906004+31150+118583FM-12+001699999V0202701N002019999999N006000199+01231-00021102861ADDAY101021AY201021GF100995999999999999999999KA1240N-00061MD1710261+9999MW1051REMSYN05858338 31956 02702 10123 21002 40286 57026 70500 333 21006=
0166583380999992015010909004+31150+118583FM-12+001699999V0203601N001019999999N007000199+01091+00001102941ADDAY101021AY201021GA1011+999999999GE19AGL   +99999+99999GF101991011999999999999999MD1210081+9999MW1051REMSYN05458338 31957 13601 10109 20000 40294 52008 70500 81///=
0122583380999992015010912004+31150+118583FM-12+001699999V0209999C999999999999N004500199+00751+00021103011ADDAY101021AY201021GF100995999999999999999999MD1210071+9999MW1051REMSYN04858338 31945 00000 10075 20002 40301 52007 70500=
0145583380999992015010918004+31150+118583FM-12+001699999V0209999C99999002401CN004300199+00351+00001102901ADDAY101021AY201021GF109991999999999999999999KA1120M+01271MD1710041+9999MW1101REMSYN05858338 31/43 90000 10035 20000 40290 57004 71000 333 10127=
0106583380999992015010921004+31150+118583FM-12+001699999V0202501N00101002401CN003700199+00351+00021102911ADDGF109991999999999999999999MD1210011+9999MW1101REMSYN04858338 31/37 92501 10035 20002 40291 52001 710//=
0166583380999992015011000004+31150+118583FM-12+001699999V0201801N001019999999N003000199+00211+00051102971ADDGA1071+999999999GE19AGL   +99999+99999GF107991071999999999999999MD1210061+9999MW1101REMSYN07058338 31930 71801 10021 20005 40297 52006 710// 87/// 333 05201 31002=
0166583380999992015011003004+31150+118583FM-12+001699999V0202001N001019999999N999999999+01171+00241102941ADDAY101021AY201021GA1021+999999999GE19AGL   +99999+99999GF102991021999999999999999MD1710031+9999MW1051REMSYN05458338 31955 22001 10117 20024 40294 57003 70500 82///=
0189583380999992015011006004+31150+118583FM-12+001699999V0203201N001019999999N006000199+01421+00181102641ADDAY101021AY201021GA1021+999999999GE19AGL   +99999+99999GF102991021999999999999999KA1240N+00111MD1710291+9999MW1051REMSYN06458338 31956 23201 10142 20018 40264 57029 70500 82/// 333 20011=
0138583380999992015011009004+31150+118583FM-12+001699999V0209999C999999999999N008000199+01331+00031102701ADDGA1021+999999999GE19AGL   +99999+99999GF102991021999999999999999MD1210061+9999REMSYN04858338 32958 20000 10133 20003 40270 52006 82///=
0122583380999992015011012004+31150+118583FM-12+001699999V0201101N002019999999N003200199+00661+00231102781ADDAY101021AY201021GF100995999999999999999999MD1210071+9999MW1101REMSYN04858338 31932 01102 10066 20023 40278 52007 71000=
0166583380999992015011018004+31150+118583FM-12+001699999V0202201N00201002401CN004700199+00321-00041102711ADDAY101021AY201021GF109991999999999999999999KA1120M+01491MA1999999102201MD1210061+9999MW1101REMSYN06458338 31/47 92202 10032 21004 30220 40271 52006 71000 333 10149=
0106583380999992015011021004+31150+118583FM-12+001699999V0202001N002019999999N999999999+00261-00071102731ADDGF109991999999999999999999MD1210011+9999MW1101REMSYN04858338 31/55 92002 10026 21007 40273 52001 710//=
0166583380999992015011100004+31150+118583FM-12+001699999V0209999C999999999999N006000199+00121-00101102901ADDGA1011+999999999GE19AGL   +99999+99999GF101991011999999999999999MD1210171+9999MW1101REMSYN07058338 31956 10000 10012 21010 40290 52017 710// 81/// 333 05151 31009=
0094583380999992015011103004+31150+118583FM-12+001699999V0200701N001019999999N008000199+01232+00271102981ADDGF100995999999999999999999MD1210081+9999REMSYN04258338 32958 00701 10123 20027 40298 52008=
0161583380999992015011106004+31150+118583FM-12+001699999V0200201N002019999999N008000199+01541+00151102771ADDGA1021+999999999GE19AGL   +99999+99999GF102991021999999999999999KA1240N+00041MD1710201+9999REMSYN05858338 32958 20202 10154 20015 40277 57020 82/// 333 20004=
0138583380999992015011109004+31150+118583FM-12+001699999V0200401N002019999999N008000199+01311+00141102881ADDGA1031+999999999GE19AGL   +99999+99999GF103991031999999999999999MD1210101+9999REMSYN04858338 32958 30402 10131 20014 40288 52010 83///=
0166583380999992015011112004+31150+118583FM-12+001699999V0200901N003019999999N006000199+00871+00211103051ADDAY101021AY201021GA1041+999999999GE19AGL   +99999+99999GF104991041999999999999999MD1210171+9999MW1051REMSYN05458338 31956 40903 10087 20021 40305 52017 70500 84///=
0166583380999992015011118004+31150+118583FM-12+001699999V0200701N00501002401CN001200199+00541+00371103231ADDAY101021AY201021GF109991999999999999999999KA1120M+01551MA1999999102721MD1210111+9999MW1101REMSYN06458338 31/12 90705 10054 20037 30272 40323 52011 71000 333 10155=
0106583380999992015011121004+31150+118583FM-12+001699999V0200701N00601002401CN001800199+00471+00321103181ADDGF109991999999999999999999MD1710061+9999MW1101REMSYN04858338 31/18 90706 10047 20032 40318 57006 710//=
0187583380999992015011200004+31150+118583FM-12+001699999V0200701N005019999999N003700199+00461+00261103431ADDGA1081+017501999GE19AGL   +99999+99999GF108991081999017501999999MA1999999102911MD1210251+9999MW1101REMSYN07658338 31737 80705 10046 20026 30291 40343 52025 710// 88/// 333 00503 30034=
0138583380999992015011203004+31150+118583FM-12+001699999V0200901N006019999999N009000199+00621+00211103431ADDGA1081+999999999GE19AGL   +99999+99999GF108991081999999999999999MD1410001+9999REMSYN04858338 32959 80906 10062 20021 40343 54000 88///=
0182583380999992015011206004+31150+118583FM-12+001699999V0200901N006019999999N012000199+00751+00181103111ADDGA1071+999999999GE19AGL   +99999+99999GF107991071999999999999999KA1240N+00431MA1999999102591MD1710321+9999REMSYN06458338 32962 70906 10075 20018 30259 40311 57032 87/// 333 20043=
0138583380999992015011209004+31150+118583FM-12+001699999V0200701N005019999999N011000199+00671+00161103201ADDGA1081+017501999GE19AGL   +99999+99999GF108991081999017501999999MD1210091+9999REMSYN04858338 32761 80705 10067 20016 40320 52009 88///=
0138583380999992015011212004+31150+118583FM-12+001699999V0200701N005019999999N008000199+00621+00171103291ADDGA1081+017501999GE19AGL   +99999+99999GF108991081999017501999999MD1210091+9999REMSYN04858338 32758 80705 10062 20017 40329 52009 88///=
0138583380999992015011218004+31150+118583FM-12+001699999V0200901N00701002401CN008000199+00571+00201103081ADDGF109991999999999999999999KA1120M+00791MA1999999102561MD1710021+9999REMSYN05858338 32/58 90907 10057 20020 30256 40308 57002 333 10079=
0106583380999992015011221004+31150+118583FM-12+001699999V0200901N004019999999N999999999+00471+00291103031ADDGF109991999999999999999999MD1710051+9999MW1101REMSYN04858338 31/55 90904 10047 20029 40303 57005 710//=
0200583380999992015011300004+31150+118583FM-12+001699999V0200901N005019999999N999999999+00461+00291103081ADDAA106000331AA224000331GA1081+004501999GE19AGL   +99999+99999GF108991081999004501999999MD1210051+9999MW1601REMSYN08258338 11455 80905 10046 20029 40308 52005 69931 760// 88/// 333 05400 30041 70003=
0166583380999992015011303004+31150+118583FM-12+001699999V0200901N004019999999N004500199+00501+00411103011ADDAY161021AY261021GA1081+004501999GE19AGL   +99999+99999GF108991081999004501999999MD1710071+9999MW1601REMSYN05458338 41445 80904 10050 20041 40301 57007 76066 88///=
0206583380999992015011306004+31150+118583FM-12+001699999V0200901N004019999999N003100199+00561+00491102771ADDAA106003031AY161021AY261021GA1081+004501999GE19AGL   +99999+99999GF108991081999004501999999KA1240N+00451MD1710241+9999MW1601REMSYN07058338 11431 80904 10056 20049 40277 57024 60031 76066 88/// 333 20045=
0166583380999992015011309004+31150+118583FM-12+001699999V0200901N002019999999N002600199+00571+00531102761ADDAY161021AY261021GA1081+004501999GE19AGL   +99999+99999GF108991081999004501999999MD1710011+9999MW1601REMSYN05458338 41426 80902 10057 20053 40276 57001 76066 88///=
0183583380999992015011312004+31150+118583FM-12+001699999V0200901N002019999999N001800199+00581+00541102861ADDAA106007031AY161021AY261021GA1081+004501999GE19AGL   +99999+99999GF108991081999004501999999MD1210101+9999MW1601REMSYN06058338 11418 80902 10058 20054 40286 52010 60071 76066 88///=
0162583380999992015011318004+31150+118583FM-12+001699999V0200401N00201002401CN002100199+00581+00551102781ADDAA106004031AY101021AY201021GF109991999999999999999999KA1120M+00601MD1710051+9999MW1101REMSYN06458338 11/21 90402 10058 20055 40278 57005 60041 71000 333 10060=
0127583380999992015011321004+31150+118583FM-12+001699999V0203401N00201002401CN001600199+00531+00501102761ADDAA124013931GF109991999999999999999999MD1710021+9999MW1101REMSYN05858338 41/16 93402 10053 20050 40276 57002 710// 333 70139=
0194583380999992015011400004+31150+118583FM-12+001699999V0203601N001019999999N001300199+00531+00501102891ADDAA106000731AA224014231GA1081+004501999GE19AGL   +99999+99999GF108991081999004501999999MD1210131+9999MW1601REMSYN07658338 11413 83601 10053 20050 40289 52013 69971 760// 88/// 333 05201 70142=
0166583380999992015011403004+31150+118583FM-12+001699999V0202701N002019999999N002700199+00641+00571102961ADDAY161021AY261021GA1081+004501999GE19AGL   +99999+99999GF108991081999004501999999MD1210071+9999MW1211REMSYN05458338 41427 82702 10064 20057 40296 52007 72166 88///=
0227583380999992015011406004+31150+118583FM-12+001699999V0203201N004019999999N003200199+00701+00521102781ADDAA106000021AY161021AY201021GA1081+008001999GE19AGL   +99999+99999GF108991081999008001999999KA1240N+00511MA1999999102261MD1710181+9999MW1101REMSYN07658338 11532 83204 10070 20052 30226 40278 57018 69901 71060 88/// 333 20051=
0166583380999992015011409004+31150+118583FM-12+001699999V0202901N002019999999N002900199+00661+00521102881ADDAY101021AY201021GA1081+008001999GE19AGL   +99999+99999GF108991081999008001999999MD1210101+9999MW1101REMSYN05458338 31529 82902 10066 20052 40288 52010 71000 88///=
0204583380999992015011412004+31150+118583FM-12+001699999V0209999C999999999999N002400199+00611+00511102891ADDAA106000021AY101021AY201021GA1081+004501999GE19AGL   +99999+99999GF108991081999004501999999MA1999999102371MD1210011+9999MW1601REMSYN06658338 11424 80000 10061 20051 30237 40289 52001 69901 76000 88///=
0145583380999992015011418004+31150+118583FM-12+001699999V0202701N00201002401CN002300199+00561+00471102861ADDAY101021AY201021GF109991999999999999999999KA1120M+00731MD1710021+9999MW1101REMSYN05858338 31/23 92702 10056 20047 40286 57002 71000 333 10073=
0127583380999992015011421004+31150+118583FM-12+001699999V0203201N00101002401CN003700199+00551+00331102891ADDAA124000631GF109991999999999999999999MD1210031+9999MW1101REMSYN05858338 31/37 93201 10055 20033 40289 52003 710// 333 70006=
0183583380999992015011500004+31150+118583FM-12+001699999V0202501N001019999999N002700199+00531+00411103011ADDAA124000021GA1081+008001999GE19AGL   +99999+99999GF108991081999008001999999MD1210121+9999MW1101REMSYN07658338 31527 82501 10053 20041 40301 52012 710// 88/// 333 00100 30050 79999=
0166583380999992015011503004+31150+118583FM-12+001699999V0202501N001019999999N003900199+00651+00381103041ADDAY101021AY201021GA1081+012501999GE19AGL   +99999+99999GF108991081999012501999999MD1210031+9999MW1101REMSYN05458338 31639 82501 10065 20038 40304 52003 71000 88///=
0210583380999992015011506004+31150+118583FM-12+001699999V0203601N001019999999N999999999+00701+00311102791ADDAY101021AY201021GA1081+012501999GE19AGL   +99999+99999GF108991081999012501999999KA1240N+00511MA1999999102271MD1710251+9999MW1101REMSYN07058338 31655 83601 10070 20031 30227 40279 57025 71000 88/// 333 20051=
0166583380999992015011509004+31150+118583FM-12+001699999V0200901N001019999999N003800199+00651+00331102781ADDAY101021AY201021GA1081+012501999GE19AGL   +99999+99999GF108991081999012501999999MD1710011+9999MW1101REMSYN05458338 31638 80901 10065 20033 40278 57001 71000 88///=
0166583380999992015011512004+31150+118583FM-12+001699999V0200901N001019999999N002900199+00601+00421102761ADDAY101021AY201021GA1081+012501999GE19AGL   +99999+99999GF108991081999012501999999MD1710021+9999MW1101REMSYN05458338 31629 80901 10060 20042 40276 57002 71000 88///=
0145583380999992015011518004+31150+118583FM-12+001699999V0201801N00201002401CN003200199+00491+00281102701ADDAY101021AY201021GF109991999999999999999999KA1120M+00721MD1710031+9999MW1101REMSYN05858338 31/32 91802 10049 20028 40270 57003 71000 333 10072=
0106583380999992015011521004+31150+118583FM-12+001699999V0202501N00101002401CN001900199+00271+00211102621ADDGF109991999999999999999999MD1710081+9999MW1101REMSYN04858338 31/19 92501 10027 20021 40262 57008 710//=
0166583380999992015011600004+31150+118583FM-12+001699999V0202501N001019999999N000100199+00171+00161102771ADDGA1081+012501999GE19AGL   +99999+99999GF108991081999012501999999MD1210151+9999MW1421REMSYN07058338 31601 82501 10017 20016 40277 52015 742// 88/// 333 05254 30010=
0166583380999992015011603004+31150+118583FM-12+001699999V0202501N002019999999N002400199+00561+00431102861ADDAY141021AY201021GA1071+012501999GE19AGL   +99999+99999GF107991071999012501999999MD1210091+9999MW1101REMSYN05458338 31624 72502 10056 20043 40286 52009 71040 87///=
0210583380999992015011606004+31150+118583FM-12+001699999V0202701N004019999999N003500199+00911+00351102671ADDAY141021AY201021GA1061+012501999GE19AGL   +99999+99999GF106991061999012501999999KA1240N+00131MA1999999102151MD1710191+9999MW1051REMSYN07058338 31635 62704 10091 20035 30215 40267 57019 70540 86/// 333 20013=
0122583380999992015011609004+31150+118583FM-12+001699999V0202701N003019999999N002400199+00821+00381102831ADDAY101021AY201021GF100995999999999999999999MD1210161+9999MW1101REMSYN04858338 31924 02703 10082 20038 40283 52016 71000=
0122583380999992015011612004+31150+118583FM-12+001699999V0203201N002019999999N001900199+00621+00341103061ADDAY101021AY201021GF100995999999999999999999MD1210231+9999MW1101REMSYN04858338 31919 03202 10062 20034 40306 52023 71000=
0145583380999992015011618004+31150+118583FM-12+001699999V0202901N00201002401CN001000199+00241+00171103311ADDAY101021AY201021GF109991999999999999999999KA1120M+00951MD1210051+9999MW1101REMSYN05858338 31/10 92902 10024 20017 40331 52005 71000 333 10095=
0106583380999992015011621004+31150+118583FM-12+001699999V0200201N00501002401CN002500199+00241-00251103351ADDGF109991999999999999999999MD1210041+9999MW1101REMSYN04858338 31/25 90205 10024 21025 40335 52004 710//=
0122583380999992015011700004+31150+118583FM-12+001699999V0200901N002019999999N001000199+00021-00091103541ADDGF100995999999999999999999MD1210181+9999MW1101REMSYN06458338 31910 00902 10002 21009 40354 52018 710// 333 00852 31003=
0122583380999992015011703004+31150+118583FM-12+001699999V0200701N002019999999N004900199+00381-00371103611ADDAY101021AY201021GF100995999999999999999999MD1210071+9999MW1051REMSYN04858338 31949 00702 10038 21037 40361 52007 70500=
0145583380999992015011706004+31150+118583FM-12+001699999V0200701N003019999999N004600199+00581-00211103301ADDAY101021AY201021GF100995999999999999999999KA1240N+00011MD1710311+9999MW1051REMSYN05858338 31946 00703 10058 21021 40330 57031 70500 333 20001=
0166583380999992015011709004+31150+118583FM-12+001699999V0200401N003019999999N004300199+00501-00191103161ADDAY101021AY201021GA1021+999999999GE19AGL   +99999+99999GF102991021999999999999999MD1710141+9999MW1051REMSYN05458338 31943 20403 10050 21019 40316 57014 70500 82///=
0122583380999992015011712004+31150+118583FM-12+001699999V0200701N003019999999N004400199+00281-00211103191ADDAY101021AY201021GF100995999999999999999999MD1210031+9999MW1101REMSYN04858338 31944 00703 10028 21021 40319 52003 71000=
0145583380999992015011718004+31150+118583FM-12+001699999V0200901N00201002401CN003000199+00081-00141102981ADDAY101021AY201021GF109991999999999999999999KA1120M+00621MD1710131+9999MW1101REMSYN05858338 31/30 90902 10008 21014 40298 57013 71000 333 10062=
0106583380999992015011721004+31150+118583FM-12+001699999V0202701N00101002401CN001900199-00011-00121102851ADDGF109991999999999999999999MD1710131+9999MW1101REMSYN04858338 31/19 92701 11001 21012 40285 57013 710//=
0166583380999992015011800004+31150+118583FM-12+001699999V0202501N002019999999N001300199-00061-00121102961ADDGA1021+999999999GE19AGL   +99999+99999GF102991021999999999999999MD1210111+9999MW1101REMSYN07058338 31913 22502 11006 21012 40296 52011 710// 82/// 333 05651 31006=
0166583380999992015011803004+31150+118583FM-12+001699999V0202501N004019999999N002700199+00541+00061102961ADDAY101021AY201021GA1071+999999999GE19AGL   +99999+99999GF107991071999999999999999MD1410001+9999MW1101REMSYN05458338 31927 72504 10054 20006 40296 54000 71000 87///=
0210583380999992015011806004+31150+118583FM-12+001699999V0202701N008019999999N006000199+01061-00181102651ADDAY101021AY201021GA1071+999999999GE19AGL   +99999+99999GF107991071999999999999999KA1240N-00081MA1999999102131MD1710301+9999MW1051REMSYN07058338 31956 72708 10106 21018 30213 40265 57030 70500 87/// 333 21008=
0166583380999992015011809004+31150+118583FM-12+001699999V0202501N002019999999N005000199+00861+00031102651ADDAY101021AY201021GA1031+999999999GE19AGL   +99999+99999GF103991031999999999999999MD1410001+9999MW1051REMSYN05458338 31950 32502 10086 20003 40265 54000 70500 83///=
0122583380999992015011812004+31150+118583FM-12+001699999V0202701N002019999999N004400199+00541-00061102831ADDAY101021AY201021GF100995999999999999999999MD1210171+9999MW1051REMSYN04858338 31944 02702 10054 21006 40283 52017 70500=
0145583380999992015011818004+31150+118583FM-12+001699999V0202501N00201002401CN002400199+00331+00051102961ADDAY101021AY201021GF109991999999999999999999KA1120M+01071MD1210061+9999MW1101REMSYN05858338 31/24 92502 10033 20005 40296 52006 71000 333 10107=
0106583380999992015011821004+31150+118583FM-12+001699999V0202501N00201002401CN003100199+00281-00051102911ADDGF109991999999999999999999MD1710051+9999MW1101REMSYN04858338 31/31 92502 10028 21005 40291 57005 710//=
0122583380999992015011900004+31150+118583FM-12+001699999V0201101N002019999999N002200199+00071-00081103011ADDGF100995999999999999999999MD1210091+9999MW1101REMSYN06458338 31922 01102 10007 21008 40301 52009 710// 333 00101 31005=
0122583380999992015011903004+31150+118583FM-12+001699999V0202201N002019999999N999999999+01021+00021103041ADDAY101021AY201021GF100995999999999999999999MD1210041+9999MW1051REMSYN04858338 31955 02202 10102 20002 40304 52004 70500=
0117583380999992015011906004+31150+118583FM-12+001699999V0200701N002019999999N010000199+01301-00511102741ADDGF100995999999999999999999KA1240N+00001MD1710301+9999REMSYN05258338 32960 00702 10130 21051 40274 57030 333 20000=
0138583380999992015011909004+31150+118583FM-12+001699999V0200401N003019999999N012000199+01071-00491102681ADDGA1021+999999999GE19AGL   +99999+99999GF102991021999999999999999MD1710061+9999REMSYN04858338 32962 20403 10107 21049 40268 57006 82///=
0138583380999992015011912004+31150+118583FM-12+001699999V0200901N003019999999N009000199+00771-00261102671ADDGA1031+999999999GE19AGL   +99999+99999GF103991031999999999999999MD1710011+9999REMSYN04858338 32959 30903 10077 21026 40267 57001 83///=
0117583380999992015011918004+31150+118583FM-12+001699999V0200901N00401002401CN009000199+00651-00241102481ADDGF109991999999999999999999KA1120M+01321MD1710111+9999REMSYN05258338 32/59 90904 10065 21024 40248 57011 333 10132=
0094583380999992015011921004+31150+118583FM-12+001699999V0201101N00401002401CN007000199+00561-00071102341ADDGF109991999999999999999999MD1710141+9999REMSYN04258338 32/57 91104 10056 21007 40234 57014=
0166583380999992015012000004+31150+118583FM-12+001699999V0200901N005019999999N999999999+00571+00141102391ADDGA1071+017501999GE19AGL   +99999+99999GF107991071999017501999999MD1210041+9999MW1101REMSYN07058338 31755 70905 10057 20014 40239 52004 710// 87/// 333 05605 30027=
0166583380999992015012003004+31150+118583FM-12+001699999V0200901N005019999999N006000199+00801+00231102311ADDAY101021AY201021GA1071+012501999GE19AGL   +99999+99999GF107991071999012501999999MD1710081+9999MW1051REMSYN05458338 31656 70905 10080 20023 40231 57008 70500 87///=
0161583380999992015012006004+31150+118583FM-12+001699999V0200901N001019999999N009000199+01321+00211102011ADDGA1021+999999999GE19AGL   +99999+99999GF102991021999999999999999KA1240N+00501MD1710291+9999REMSYN05858338 32959 20901 10132 20021 40201 57029 82/// 333 20050=
0138583380999992015012009004+31150+118583FM-12+001699999V0201101N003019999999N007000199+01081+00311102011ADDGA1071+012501999GE19AGL   +99999+99999GF107991071999012501999999MD1410001+9999REMSYN04858338 32657 71103 10108 20031 40201 54000 87///=
0166583380999992015012012004+31150+118583FM-12+001699999V0201101N003019999999N006000199+00911+00241102121ADDAY101021AY201021GA1071+012501999GE19AGL   +99999+99999GF107991071999012501999999MD1210111+9999MW1051REMSYN05458338 31656 71103 10091 20024 40212 52011 70500 87///=
0145583380999992015012018004+31150+118583FM-12+001699999V0202201N00201002401CN004300199+00751+00411102201ADDAY101021AY201021GF109991999999999999999999KA1120M+01351MD1410001+9999MW1101REMSYN05858338 31/43 92202 10075 20041 40220 54000 71000 333 10135=
0106583380999992015012021004+31150+118583FM-12+001699999V0202201N003019999999N999999999+00551+00271102161ADDGF109991999999999999999999MD1710041+9999MW1101REMSYN04858338 31/55 92203 10055 20027 40216 57004 710//=
0122583380999992015012100004+31150+118583FM-12+001699999V0202501N003019999999N006000199+00611+00221102241ADDGF100995999999999999999999MD1210081+9999MW1101REMSYN06458338 31956 02503 10061 20022 40224 52008 710// 333 05100 30020=
0122583380999992015012103004+31150+118583FM-12+001699999V0202901N006019999999N007000199+01251+00031102331ADDAY101021AY201021GF100995999999999999999999MD1210091+9999MW1051REMSYN04858338 31957 02906 10125 20003 40233 52009 70500=
0145583380999992015012106004+31150+118583FM-12+001699999V0202701N009019999999N999999999+01321-00011102201ADDAY101021AY201021GF100995999999999999999999KA1240N+00531MD1710131+9999MW1051REMSYN05858338 31955 02709 10132 21001 40220 57013 70500 333 20053=
0122583380999992015012109004+31150+118583FM-12+001699999V0202901N006019999999N004200199+01071+00041102381ADDAY101021AY201021GF100995999999999999999999MD1210181+9999MW1051REMSYN04858338 31942 02906 10107 20004 40238 52018 70500=
0143583380999992015012112004+31150+118583FM-12+001699999V0203201N004019999999N003400199+00721+00041102671ADDAY101021AY201021GF100995999999999999999999MA1999999102151MD1210281+9999MW1051REMSYN05458338 31934 03204 10072 20004 30215 40267 52028 70500=
0166583380999992015012118004+31150+118583FM-12+001699999V0202201N00301002401CN001900199+00211+00021102761ADDAY101021AY201021GF109991999999999999999999KA1120M+01351MA1999999102241MD1710051+9999MW1101REMSYN06458338 31/19 92203 10021 20002 30224 40276 57005 71000 333 10135=
0106583380999992015012121004+31150+118583FM-12+001699999V0202901N00201002401CN002300199+00151-00041102721ADDGF109991999999999999999999MD1710041+9999MW1101REMSYN04858338 31/23 92902 10015 21004 40272 57004 710//=
0122583380999992015012200004+31150+118583FM-12+001699999V0201101N001019999999N001800199-00021-00151102811ADDGF100995999999999999999999MD1210091+9999MW1101REMSYN06458338 31918 01101 11002 21015 40281 52009 710// 333 00656 31014=
0122583380999992015012203004+31150+118583FM-12+001699999V0202501N003019999999N003500199+00561-00221102841ADDAY101021AY201021GF100995999999999999999999MD1210031+9999MW1051REMSYN04858338 31935 02503 10056 21022 40284 52003 70500=
0117583380999992015012206004+31150+118583FM-12+001699999V0203401N004019999999N008000199+00831-00451102611ADDGF100995999999999999999999KA1240N-00071MD1710231+9999REMSYN05258338 32958 03404 10083 21045 40261 57023 333 21007=
0094583380999992015012209004+31150+118583FM-12+001699999V0203601N002019999999N008000199+00761-00481102571ADDGF100995999999999999999999MD1710041+9999REMSYN04258338 32958 03602 10076 21048 40257 57004=
0122583380999992015012212004+31150+118583FM-12+001699999V0200901N002019999999N999999999+00321-00191102641ADDAY101021AY201021GF100995999999999999999999MD1210061+9999MW1051REMSYN04858338 31955 00902 10032 21019 40264 52006 70500=
0166583380999992015012218004+31150+118583FM-12+001699999V0201101N00301002401CN001500199-00021-00121102481ADDAY101021AY201021GF109991999999999999999999KA1120M+00881MA1999999101961MD1710091+9999MW1101REMSYN06458338 31/15 91103 11002 21012 30196 40248 57009 71000 333 10088=
0106583380999992015012221004+31150+118583FM-12+001699999V0200901N00301002401CN001500199-00041-00121102301ADDGF109991999999999999999999MD1710181+9999MW1101REMSYN04858338 31/15 90903 11004 21012 40230 57018 710//=
0122583380999992015012300004+31150+118583FM-12+001699999V0201101N003019999999N001200199+00051-00041102361ADDGF100995999999999999999999MD1210051+9999MW1101REMSYN06458338 31912 01103 10005 21004 40236 52005 710// 333 05501 31014=
0122583380999992015012303004+31150+118583FM-12+001699999V0201401N003019999999N002800199+00651+00021102271ADDAY101021AY201021GF100995999999999999999999MD1710081+9999MW1101REMSYN04858338 31928 01403 10065 20002 40227 57008 71000=
0210583380999992015012306004+31150+118583FM-12+001699999V0201101N003019999999N004000199+01031+00091101961ADDAY101021AY201021GA1071+017501999GE19AGL   +99999+99999GF107991071999017501999999KA1240N-00081MA1999999101441MD1710311+9999MW1051REMSYN07058338 31740 71103 10103 20009 30144 40196 57031 70500 87/// 333 21008=
0166583380999992015012309004+31150+118583FM-12+001699999V0200701N002019999999N004400199+01111+00221101901ADDAY101021AY201021GA1061+999999999GE19AGL   +99999+99999GF106991061999999999999999MD1710061+9999MW1051REMSYN05458338 31944 60702 10111 20022 40190 57006 70500 86///=
0166583380999992015012312004+31150+118583FM-12+001699999V0200901N004019999999N003100199+00901+00261101961ADDAY101021AY201021GA1081+012501999GE19AGL   +99999+99999GF108991081999012501999999MD1210061+9999MW1051REMSYN05458338 31631 80904 10090 20026 40196 52006 70500 88///=
0145583380999992015012318004+31150+118583FM-12+001699999V0201101N00401002401CN001900199+00551+00271102001ADDAY101021AY201021GF109991999999999999999999KA1120M+01121MD1410001+9999MW1101REMSYN05858338 31/19 91104 10055 20027 40200 54000 71000 333 10112=
0106583380999992015012321004+31150+118583FM-12+001699999V0201101N00401002401CN001500199+00431+00271101951ADDGF109991999999999999999999MD1710051+9999MW1101REMSYN04858338 31/15 91104 10043 20027 40195 57005 710//=
0166583380999992015012400004+31150+118583FM-12+001699999V0201101N003019999999N001400199+00531+00361102101ADDGA1071+999999999GE19AGL   +99999+99999GF107991071999999999999999MD1210151+9999MW1101REMSYN07058338 31914 71103 10053 20036 40210 52015 710// 87/// 333 05205 30024=
0166583380999992015012403004+31150+118583FM-12+001699999V0201401N001019999999N002800199+01161+00531102091ADDAY101021AY201021GA1071+999999999GE19AGL   +99999+99999GF107991071999999999999999MD1710011+9999MW1051REMSYN05458338 31928 71401 10116 20053 40209 57001 70500 87///=
0210583380999992015012406004+31150+118583FM-12+001699999V0200701N004019999999N999999999+01841+00591101791ADDAY101021AY201021GA1031+999999999GE19AGL   +99999+99999GF103991031999999999999999KA1240N+00401MA1999999101291MD1710291+9999MW1051REMSYN07058338 31955 30704 10184 20059 30129 40179 57029 70500 83/// 333 20040=
0122583380999992015012409004+31150+118583FM-12+001699999V0200701N003019999999N002600199+01601+00871101821ADDAY101021AY201021GF100995999999999999999999MD1210021+9999MW1051REMSYN04858338 31926 00703 10160 20087 40182 52002 70500=
0166583380999992015012412004+31150+118583FM-12+001699999V0200901N004019999999N001700199+01231+00721101861ADDAY101021AY201021GA1071+999999999GE19AGL   +99999+99999GF107991071999999999999999MD1210041+9999MW1101REMSYN05458338 31917 70904 10123 20072 40186 52004 71000 87///=
0166583380999992015012418004+31150+118583FM-12+001699999V0209999C99999002401CN001600199+01041+00751101921ADDAY101021AY201021GF109991999999999999999999KA1120M+01871MA1999999101421MD1210011+9999MW1101REMSYN06458338 31/16 90000 10104 20075 30142 40192 52001 71000 333 10187=
0106583380999992015012421004+31150+118583FM-12+001699999V0202901N00301002401CN001600199+01021+00811101951ADDGF109991999999999999999999MD1210031+9999MW1101REMSYN04858338 31/16 92903 10102 20081 40195 52003 710//=
0194583380999992015012500004+31150+118583FM-12+001699999V0202701N003019999999N000900199+00771+00651102201ADDAA112000021AA224000021GA1081+004501999GE19AGL   +99999+99999GF108991081999004501999999MD1210241+9999MW1601REMSYN07658338 11409 82703 10077 20065 40220 52024 69902 760// 88/// 333 00102 79999=
0166583380999992015012503004+31150+118583FM-12+001699999V0202701N004019999999N001000199+00731+00581102361ADDAY161021AY261021GA1081+004501999GE19AGL   +99999+99999GF108991081999004501999999MD1210161+9999MW1601REMSYN05458338 31410 82704 10073 20058 40236 52016 76066 88///=
0206583380999992015012506004+31150+118583FM-12+001699999V0202901N003019999999N001100199+00731+00541102211ADDAA106000021AY161021AY201021GA1081+008001999GE19AGL   +99999+99999GF108991081999008001999999KA1240N+00711MD1710151+9999MW1101REMSYN07058338 11511 82903 10073 20054 40221 57015 69901 71060 88/// 333 20071=
0166583380999992015012509004+31150+118583FM-12+001699999V0202901N002019999999N001000199+00671+00521102311ADDAY101021AY201021GA1081+012501999GE19AGL   +99999+99999GF108991081999012501999999MD1210101+9999MW1101REMSYN05458338 31610 82902 10067 20052 40231 52010 71000 88///=
0183583380999992015012512004+31150+118583FM-12+001699999V0203201N002019999999N000900199+00671+00551102441ADDAA106000021AY101021AY201021GA1081+008001999GE19AGL   +99999+99999GF108991081999008001999999MD1210121+9999MW1601REMSYN06058338 11509 83202 10067 20055 40244 52012 69901 76000 88///=
0145583380999992015012518004+31150+118583FM-12+001699999V0202501N00101002401CN000900199+00641+00541102471ADDAY101021AY201021GF109991999999999999999999KA1120M+01081MD1710021+9999MW1101REMSYN05858338 31/09 92501 10064 20054 40247 57002 71000 333 10108=
0106583380999992015012521004+31150+118583FM-12+001699999V0203401N00201002401CN001000199+00591+00491102471ADDGF109991999999999999999999MD1410001+9999MW1101REMSYN04858338 31/10 93402 10059 20049 40247 54000 710//=
0194583380999992015012600004+31150+118583FM-12+001699999V0201101N001019999999N000800199+00591+00501102441ADDAA112000021AA224000021GA1081+012501999GE19AGL   +99999+99999GF108991081999012501999999MD1710031+9999MW1101REMSYN07658338 11608 81101 10059 20050 40244 57003 69902 710// 88/// 333 00252 79999=
0166583380999992015012603004+31150+118583FM-12+001699999V0203601N001019999999N001000199+00731+00591102531ADDAY101021AY201021GA1081+008001999GE19AGL   +99999+99999GF108991081999008001999999MD1210091+9999MW1101REMSYN05458338 31510 83601 10073 20059 40253 52009 71000 88///=
0189583380999992015012606004+31150+118583FM-12+001699999V0200701N002019999999N001300199+00841+00601102261ADDAY101021AY201021GA1081+012501999GE19AGL   +99999+99999GF108991081999012501999999KA1240N+00571MD1710261+9999MW1101REMSYN06458338 31613 80702 10084 20060 40226 57026 71000 88/// 333 20057=
0166583380999992015012609004+31150+118583FM-12+001699999V0200701N003019999999N001400199+00841+00641102291ADDAY101021AY201021GA1081+012501999GE19AGL   +99999+99999GF108991081999012501999999MD1210031+9999MW1101REMSYN05458338 31614 80703 10084 20064 40229 52003 71000 88///=
0187583380999992015012612004+31150+118583FM-12+001699999V0200701N003019999999N001200199+00791+00641102451ADDAY101021AY201021GA1081+008001999GE19AGL   +99999+99999GF108991081999008001999999MA1999999101931MD1210151+9999MW1101REMSYN06058338 31512 80703 10079 20064 30193 40245 52015 71000 88///=
0162583380999992015012618004+31150+118583FM-12+001699999V0200701N00401002401CN001500199+00641+00501102711ADDAA106000631AY101021AY201021GF109991999999999999999999KA1120M+00891MD1210131+9999MW1101REMSYN06458338 11/15 90704 10064 20050 40271 52013 69961 71000 333 10089=
0143583380999992015012621004+31150+118583FM-12+001699999V0200701N00301002401CN002200199+00561+00331102741ADDAA124000631AY161021AY201021GF109991999999999999999999MD1210031+9999MW1101REMSYN05858338 41/22 90703 10056 20033 40274 52003 71060 333 70006=
0221583380999992015012700004+31150+118583FM-12+001699999V0200701N004019999999N002000199+00541+00311102891ADDAA112000631AA224000631GA1081+008001999GE19AGL   +99999+99999GF108991081999008001999999MA1999999102371MD1210151+9999MW1101REMSYN08858338 11520 80704 10054 20031 30237 40289 52015 69962 710// 88/// 333 00551 30049 70006=
0166583380999992015012703004+31150+118583FM-12+001699999V0200401N005019999999N001200199+00401+00331102981ADDAY161021AY201021GA1081+012501999GE19AGL   +99999+99999GF108991081999012501999999MD1210091+9999MW1601REMSYN05458338 41612 80405 10040 20033 40298 52009 76060 88///=
0206583380999992015012706004+31150+118583FM-12+001699999V0200401N006019999999N002000199+00181+00111102891ADDAA106003031AY171021AY261021GA1081+004501999GE19AGL   +99999+99999GF108991081999004501999999KA1240N+00181MD1710091+9999MW1681REMSYN07058338 11420 80406 10018 20011 40289 57009 60031 76876 88/// 333 20018=
0166583380999992015012709004+31150+118583FM-12+001699999V0200401N004019999999N002000199+00081+00041102971ADDAY171021AY271021GA1081+004501999GE19AGL   +99999+99999GF108991081999004501999999MD1210071+9999MW1681REMSYN05458338 41420 80404 10008 20004 40297 52007 76877 88///=
0183583380999992015012712004+31150+118583FM-12+001699999V0200901N005019999999N001500199+00031+00021103031ADDAA106004031AY171021AY271021GA1081+004501999GE19AGL   +99999+99999GF108991081999004501999999MD1210061+9999MW1701REMSYN06058338 11415 80905 10003 20002 40303 52006 60041 77077 88///=
0189583380999992015012718004+31150+118583FM-12+001699999V0200701N00501002401CN008000199+00021-00121103111ADDAA106001031AY171021AY201021GF109991999999999999999999KA1120M+00641MA1999999102581MD1210041+9999MW1701REMSYN07658338 11/58 90705 10002 21012 30258 40311 52004 60011 77070 333 10064 92501=
0149583380999992015012721004+31150+118583FM-12+001699999V0200701N004019999999N999999999-00011-00171103061ADDAA124008131AY171021AY201021GF109991999999999999999999MD1710051+9999MW1701REMSYN06458338 41/55 90704 11001 21017 40306 57005 77070 333 70081 92501=
0227583380999992015012800004+31150+118583FM-12+001699999V0200701N004019999999N002800199-00021-00111103131ADDAA106000931AA224008931GA1081+004501999GE19AGL   +99999+99999GF108991081999004501999999MA1999999102601MD1210071+9999MW1701REMSYN09458338 11428 80704 11002 21011 30260 40313 52007 69991 770// 88/// 333 00256 31001 70089 92501=
0176583380999992015012803004+31150+118583FM-12+001699999V0200701N006019999999N002800199+00021-00051103071ADDAY171021AY271021GA1081+004501999GE19AGL   +99999+99999GF108991081999004501999999MD1710061+9999MW1711REMSYN06458338 41428 80706 10002 21005 40307 57006 77177 88/// 333 92503=
0212583380999992015012806004+31150+118583FM-12+001699999V0200701N006019999999N002600199+00031-00041102801ADDAA106003031AY171021AY271021GA1081+004501999GE19AGL   +99999+99999GF108991081999004501999999KA1240N-00041MD1710271+9999MW1701REMSYN07658338 11426 80706 10003 21004 40280 57027 60031 77077 88/// 333 21004 92504=
0176583380999992015012809004+31150+118583FM-12+001699999V0200901N006019999999N002100199+00041+00011102711ADDAY171021AY271021GA1081+004501999GE19AGL   +99999+99999GF108991081999004501999999MD1710091+9999MW1711REMSYN06458338 41421 80906 10004 20001 40271 57009 77177 88/// 333 92503=
0214583380999992015012812004+31150+118583FM-12+001699999V0200701N005019999999N001300199+00101+00091102711ADDAA106003031AY171021AY271021GA1081+004501999GE19AGL   +99999+99999GF108991081999004501999999MA1999999102181MD1410001+9999MW1711REMSYN07658338 11413 80705 10010 20009 30218 40271 54000 60031 77177 88/// 333 92503=
0189583380999992015012818004+31150+118583FM-12+001699999V0200401N00301002401CN001400199+00051+00041102741ADDAA106006031AY171021AY271021GF109991999999999999999999KA1120M+00111MA1999999102211MD1710031+9999MW1711REMSYN07658338 11/14 90403 10005 20004 30221 40274 57003 60061 77177 333 10011 92503=
0149583380999992015012821004+31150+118583FM-12+001699999V0200401N00401002401CN001100199+00011+00001102731ADDAA124014331AY171021AY271021GF109991999999999999999999MD1710011+9999MW1711REMSYN06458338 41/11 90404 10001 20000 40273 57001 77177 333 70143 92504=
0227583380999992015012900004+31150+118583FM-12+001699999V0200701N005019999999N003800199+00041+00011102741ADDAA106003031AA224014631GA1081+004501999GE19AGL   +99999+99999GF108991081999004501999999MA1999999102211MD1210011+9999MW1701REMSYN09458338 11438 80705 10004 20001 30221 40274 52001 60031 770// 88/// 333 05401 31001 70146 92503=
0176583380999992015012903004+31150+118583FM-12+001699999V0200401N004019999999N002800199+00091+00031102851ADDAY171021AY271021GA1081+004501999GE19AGL   +99999+99999GF108991081999004501999999MD1210111+9999MW1221REMSYN06458338 41428 80404 10009 20003 40285 52011 72277 88/// 333 92501=
0233583380999992015012906004+31150+118583FM-12+001699999V0200201N002019999999N001000199+00031+00021102751ADDAA106003031AY171021AY201021GA1081+004501999GE19AGL   +99999+99999GF108991081999004501999999KA1240N+00011MA1999999102221MD1710101+9999MW1711REMSYN08258338 11410 80202 10003 20002 30222 40275 57010 60031 77170 88/// 333 20001 92503=
0176583380999992015012909004+31150+118583FM-12+001699999V0203601N002019999999N001400199+00021+00011102851ADDAY171021AY271021GA1081+004501999GE19AGL   +99999+99999GF108991081999004501999999MD1210101+9999MW1711REMSYN06458338 41414 83602 10002 20001 40285 52010 77177 88/// 333 92504=
0214583380999992015012912004+31150+118583FM-12+001699999V0202701N001019999999N000600199+00011+00001103061ADDAA106004031AY171021AY241021GA1081+004501999GE19AGL   +99999+99999GF108991081999004501999999MA1999999102531MD1210211+9999MW1731REMSYN07658338 11406 82701 10001 20000 30253 40306 52021 60041 77374 88/// 333 92505=
0189583380999992015012918004+31150+118583FM-12+001699999V0203401N00201002401CN001500199+00021+00011103121ADDAA106000531AY171021AY241021GF109991999999999999999999KA1120M+00101MA1999999102591MD1710021+9999MW1101REMSYN07658338 11/15 93402 10002 20001 30259 40312 57002 69951 71074 333 10010 92505=
0149583380999992015012921004+31150+118583FM-12+001699999V0203401N00201002401CN001800199+00011-00021103181ADDAA124008331AY171021AY201021GF109991999999999999999999MD1210061+9999MW1701REMSYN06458338 41/18 93402 10001 21002 40318 52006 77070 333 70083 92505=
0227583380999992015013000004+31150+118583FM-12+001699999V0209999C999999999999N003100199+00011-00121103311ADDAA106000131AA224007231GA1081+012501999GE19AGL   +99999+99999GF108991081999012501999999MA1999999102781MD1210131+9999MW1101REMSYN09458338 11631 80000 10001 21012 30278 40331 52013 69911 710// 88/// 333 00600 30000 70072 92505=
0176583380999992015013003004+31150+118583FM-12+001699999V0200201N002019999999N003300199+00111-00131103461ADDAY101021AY201021GA1081+012501999GE19AGL   +99999+99999GF108991081999012501999999MD1210151+9999MW1101REMSYN06458338 41633 80202 10011 21013 40346 52015 71000 88/// 333 92504=
0195583380999992015013006004+31150+118583FM-12+001699999V0203201N002019999999N004400199+00221-00211103311ADDAY101021AY201021GA1071+012501999GE19AGL   +99999+99999GF107991071999012501999999KA1240N-00011MD1710151+9999MW1101REMSYN07058338 31644 73202 10022 21021 40331 57015 71000 87/// 333 21001 92501=
0166583380999992015013009004+31150+118583FM-12+001699999V0202901N003019999999N003800199+00201-00111103391ADDAY101021AY201021GA1081+012501999GE19AGL   +99999+99999GF108991081999012501999999MD1210081+9999MW1101REMSYN05458338 31638 82903 10020 21011 40339 52008 71000 88///=
0166583380999992015013012004+31150+118583FM-12+001699999V0203201N002019999999N002900199+00161-00081103541ADDAY101021AY201021GA1081+012501999GE19AGL   +99999+99999GF108991081999012501999999MD1210151+9999MW1101REMSYN05458338 31629 83202 10016 21008 40354 52015 71000 88///=
0106583380999992015013015004+31150+118583FM-12+001699999V0203201N00201002401CN002500199+00161-00051103661ADDGF109991999999999999999999MD1210121+9999MW1101REMSYN04858338 31/25 93202 10016 21005 40366 52012 710//=
0145583380999992015013018004+31150+118583FM-12+001699999V0200401N00301002401CN003400199+00151-00281103651ADDAY101021AY201021GF109991999999999999999999KA1120M+00261MD1710011+9999MW1101REMSYN05858338 31/34 90403 10015 21028 40365 57001 71000 333 10026=
0094583380999992015013021004+31150+118583FM-12+001699999V0200901N00101002401CN007000199+00041-00331103581ADDGF109991999999999999999999MD1710071+9999REMSYN04258338 32/57 90901 10004 21033 40358 57007=
0154583380999992015013100004+31150+118583FM-12+001699999V0200901N003019999999N008000199+00101-00441103801ADDGA1081+012501999GE19AGL   +99999+99999GF108991081999012501999999MD1210221+9999REMSYN06458338 32658 80903 10010 21044 40380 52022 88/// 333 00501 31001=
0138583380999992015013103004+31150+118583FM-12+001699999V0200401N003019999999N010000199+00191-00341103791ADDGA1071+017501999GE19AGL   +99999+99999GF107991071999017501999999MD1710011+9999REMSYN04858338 32760 70403 10019 21034 40379 57001 87///=
0161583380999992015013106004+31150+118583FM-12+001699999V0200701N004019999999N011000199+00331-00421103541ADDGA1081+012501999GE19AGL   +99999+99999GF108991081999012501999999KA1240N+00021MD1710251+9999REMSYN05858338 32661 80704 10033 21042 40354 57025 88/// 333 20002=
0138583380999992015013109004+31150+118583FM-12+001699999V0200201N003019999999N014000199+00321-00471103541ADDGA1081+012501999GE19AGL   +99999+99999GF108991081999012501999999MD1410001+9999REMSYN04858338 32664 80203 10032 21047 40354 54000 88///=
0159583380999992015013112004+31150+118583FM-12+001699999V0200401N002019999999N014000199+00261-00311103651ADDGA1081+012501999GE19AGL   +99999+99999GF108991081999012501999999MA1999999103121MD1210111+9999REMSYN05458338 32664 80402 10026 21031 30312 40365 52011 88///=
0117583380999992015013118004+31150+118583FM-12+001699999V0200401N00201002401CN010000199+00191-00101103581ADDGF109991999999999999999999KA1120M+00351MD1710041+9999REMSYN05258338 32/60 90402 10019 21010 40358 57004 333 10035=
0094583380999992015013121004+31150+118583FM-12+001699999V0200901N00401002401CN013000199+00161-00221103481ADDGF109991999999999999999999MD1710101+9999REMSYN04258338 32/63 90904 10016 21022 40348 57010=
0154583380999992015020100004+31150+118583FM-12+001699999V0200701N005019999999N011000199+00151-00191103541ADDGA1081+012501999GE19AGL   +99999+99999GF108991081999012501999999MD1210061+9999REMSYN06458338 32661 80705 10015 21019 40354 52006 88/// 333 05301 30007=
0166583380999992015020103004+31150+118583FM-12+001699999V0201101N004019999999N009000199+00271-00091103561ADDAY101021AY201021GA1081+012501999GE19AGL   +99999+99999GF108991081999012501999999MD1210021+9999MW1701REMSYN05458338 31659 81104 10027 21009 40356 52002 77000 88///=
0206583380999992015020106004+31150+118583FM-12+001699999V0200901N003019999999N010000199+00321-00061103281ADDAA106000021AY171021AY201021GA1081+012501999GE19AGL   +99999+99999GF108991081999012501999999KA1240N+00141MD1710281+9999MW1001REMSYN07058338 11660 80903 10032 21006 40328 57028 69901 70070 88/// 333 20014=
0138583380999992015020109004+31150+118583FM-12+001699999V0200901N002019999999N010000199+00341-00041103261ADDGA1081+012501999GE19AGL   +99999+99999GF108991081999012501999999MD1710021+9999REMSYN04858338 32660 80902 10034 21004 40326 57002 88///=
0138583380999992015020112004+31150+118583FM-12+001699999V0200901N002019999999N008000199+00311+00031103371ADDGA1081+012501999GE19AGL   +99999+99999GF108991081999012501999999MD1210111+9999REMSYN04858338 32658 80902 10031 20003 40337 52011 88///=
0166583380999992015020118004+31150+118583FM-12+001699999V0200701N001019999999N999999999+00221+00031103311ADDAY101021AY201021GF109991999999999999999999KA1120M+00361MA1999999102781MD1710071+9999MW1101REMSYN06458338 31/55 90701 10022 20003 30278 40331 57007 71000 333 10036=
0106583380999992015020121004+31150+118583FM-12+001699999V0200901N00101002401CN002500199+00031-00061103221ADDGF109991999999999999999999MD1710091+9999MW1101REMSYN04858338 31/25 90901 10003 21006 40322 57009 710//=
0183583380999992015020200004+31150+118583FM-12+001699999V0201101N001019999999N003100199+00051-00011103331ADDAA124000021GA1071+999999999GE19AGL   +99999+99999GF107991071999999999999999MD1210111+9999MW1101REMSYN07658338 31931 71101 10005 21001 40333 52011 710// 87/// 333 05251 31003 79999=
0138583380999992015020203004+31150+118583FM-12+001699999V0200701N002019999999N008000199+00471-00051103341ADDGA1071+008001999GE19AGL   +99999+99999GF107991071999008001999999MD1210011+9999REMSYN04858338 32558 70702 10047 21005 40334 52001 87///=
0189583380999992015020206004+31150+118583FM-12+001699999V0200901N004019999999N004400199+00571+00091103041ADDAY101021AY201021GA1071+012501999GE19AGL   +99999+99999GF107991071999012501999999KA1240N+00001MD1710291+9999MW1101REMSYN06458338 31644 70904 10057 20009 40304 57029 71000 87/// 333 20000=
0166583380999992015020209004+31150+118583FM-12+001699999V0200401N003019999999N003400199+00541+00191103071ADDAY101021AY201021GA1081+999999999GE19AGL   +99999+99999GF108991081999999999999999MD1210021+9999MW1101REMSYN05458338 31934 80403 10054 20019 40307 52002 71000 88///=
0204583380999992015020212004+31150+118583FM-12+001699999V0200701N003019999999N003100199+00481+00271103201ADDAA106000021AY161021AY201021GA1081+012501999GE19AGL   +99999+99999GF108991081999012501999999MA1999999102671MD1210131+9999MW1601REMSYN06658338 11631 80703 10048 20027 30267 40320 52013 69901 76060 88///=
0145583380999992015020218004+31150+118583FM-12+001699999V0200401N00201002401CN001700199+00411+00321103181ADDAY101021AY201021GF109991999999999999999999KA1120M+00661MD1710011+9999MW1101REMSYN05858338 31/17 90402 10041 20032 40318 57001 71000 333 10066=
0122583380999992015020221004+31150+118583FM-12+001699999V0209999C99999002401CN001600199+00401+00331103141ADDAY161021AY201021GF109991999999999999999999MD1710041+9999MW1101REMSYN04858338 31/16 90000 10040 20033 40314 57004 71060=
0200583380999992015020300004+31150+118583FM-12+001699999V0203401N001019999999N001700199+00411+00321103231ADDAA112000021AA224000021GA1081+017501999GE19AGL   +99999+99999GF108991081999017501999999MD1210091+9999MW1101REMSYN08258338 11717 83401 10041 20032 40323 52009 69902 710// 88/// 333 05104 30039 79999=
0166583380999992015020303004+31150+118583FM-12+001699999V0203401N002019999999N001700199+00421+00301103351ADDAY101021AY201021GA1081+999999999GE19AGL   +99999+99999GF108991081999999999999999MD1210111+9999MW1101REMSYN05458338 31917 83402 10042 20030 40335 52011 71000 88///=
0189583380999992015020306004+31150+118583FM-12+001699999V0203201N002019999999N002000199+00451+00271103161ADDAY101021AY201021GA1081+999999999GE19AGL   +99999+99999GF108991081999999999999999KA1240N+00391MD1710181+9999MW1101REMSYN06458338 31920 83202 10045 20027 40316 57018 71000 88/// 333 20039=
0166583380999992015020309004+31150+118583FM-12+001699999V0202501N001019999999N002200199+00461+00261103141ADDAY101021AY201021GA1081+999999999GE19AGL   +99999+99999GF108991081999999999999999MD1710021+9999MW1101REMSYN05458338 31922 82501 10046 20026 40314 57002 71000 88///=
0187583380999992015020312004+31150+118583FM-12+001699999V0202901N003019999999N001900199+00411+00261103241ADDAY101021AY201021GA1081+017501999GE19AGL   +99999+99999GF108991081999017501999999MA1999999102711MD1210091+9999MW1101REMSYN06058338 31719 82903 10041 20026 30271 40324 52009 71000 88///=
0145583380999992015020318004+31150+118583FM-12+001699999V0202701N00301002401CN001300199+00271+00181103151ADDAY101021AY201021GF109991999999999999999999KA1120M+00471MD1710071+9999MW1101REMSYN05858338 31/13 92703 10027 20018 40315 57007 71000 333 10047=
0106583380999992015020321004+31150+118583FM-12+001699999V0202701N00301002401CN001500199+00271+00151103151ADDGF109991999999999999999999MD1410001+9999MW1101REMSYN04858338 31/15 92703 10027 20015 40315 54000 710//=
0187583380999992015020400004+31150+118583FM-12+001699999V0202701N003019999999N001300199+00221+00131103321ADDGA1071+017501999GE19AGL   +99999+99999GF107991071999017501999999MA1999999102791MD1210171+9999MW1101REMSYN07658338 31713 72703 10022 20013 30279 40332 52017 710// 87/// 333 00152 30012=
0166583380999992015020403004+31150+118583FM-12+001699999V0202701N003019999999N003100199+00561+00021103221ADDAY101021AY201021GA1071+012501999GE19AGL   +99999+99999GF107991071999012501999999MD1710091+9999MW1051REMSYN05458338 31631 72703 10056 20002 40322 57009 70500 87///=
0210583380999992015020406004+31150+118583FM-12+001699999V0203201N004019999999N003000199+00751-00071102951ADDAY101021AY201021GA1071+012501999GE19AGL   +99999+99999GF107991071999012501999999KA1240N+00201MA1999999102431MD1710271+9999MW1051REMSYN07058338 31630 73204 10075 21007 30243 40295 57027 70500 87/// 333 20020=
0166583380999992015020409004+31150+118583FM-12+001699999V0202701N003019999999N003700199+00671-00151102961ADDAY101021AY201021GA1071+012501999GE19AGL   +99999+99999GF107991071999012501999999MD1210011+9999MW1051REMSYN05458338 31637 72703 10067 21015 40296 52001 70500 87///=
0166583380999992015020412004+31150+118583FM-12+001699999V0202501N002019999999N002100199+00351+00021103121ADDAY101021AY201021GA1071+012501999GE19AGL   +99999+99999GF107991071999012501999999MD1210151+9999MW1101REMSYN05458338 31621 72502 10035 20002 40312 52015 71000 87///=
0145583380999992015020418004+31150+118583FM-12+001699999V0202501N00201002401CN001300199+00011-00121103261ADDAY101021AY201021GF109991999999999999999999KA1120M+00771MD1210011+9999MW1101REMSYN05858338 31/13 92502 10001 21012 40326 52001 71000 333 10077=
0106583380999992015020421004+31150+118583FM-12+001699999V0202501N00201002401CN001800199+00051-00161103281ADDGF109991999999999999999999MD1210021+9999MW1101REMSYN04858338 31/18 92502 10005 21016 40328 52002 710//=
0122583380999992015020500004+31150+118583FM-12+001699999V0203201N002019999999N001800199-00061-00301103461ADDGF100995999999999999999999MD1210181+9999MW1101REMSYN06458338 31918 03202 11006 21030 40346 52018 710// 333 00153 31016=
0122583380999992015020503004+31150+118583FM-12+001699999V0202901N002019999999N999999999+00491-00471103571ADDAY101021AY201021GF100995999999999999999999MD1210111+9999MW1051REMSYN04858338 31955 02902 10049 21047 40357 52011 70500=
0161583380999992015020506004+31150+118583FM-12+001699999V0203601N002019999999N015000199+00671-00811103341ADDGA1071+999999999GE19AGL   +99999+99999GF107991071999999999999999KA1240N-00101MD1710231+9999REMSYN05858338 32965 73602 10067 21081 40334 57023 87/// 333 21010=
0138583380999992015020509004+31150+118583FM-12+001699999V0203401N003019999999N014000199+00601-00721103251ADDGA1071+999999999GE19AGL   +99999+99999GF107991071999999999999999MD1710091+9999REMSYN04858338 32964 73403 10060 21072 40325 57009 87///=
0138583380999992015020512004+31150+118583FM-12+001699999V0202501N002019999999N010000199+00251-00521103261ADDGA1071+999999999GE19AGL   +99999+99999GF107991071999999999999999MD1210011+9999REMSYN04858338 32960 72502 10025 21052 40326 52001 87///=
0117583380999992015020518004+31150+118583FM-12+001699999V0202201N00101002401CN007000199-00021-00431103111ADDGF109991999999999999999999KA1120M+00731MD1710131+9999REMSYN05258338 32/57 92201 11002 21043 40311 57013 333 10073=
0106583380999992015020521004+31150+118583FM-12+001699999V0202001N001019999999N999999999-00121-00441102961ADDGF109991999999999999999999MD1710151+9999MW1101REMSYN04858338 31/55 92001 11012 21044 40296 57015 710//=
0166583380999992015020600004+31150+118583FM-12+001699999V0200901N002019999999N007000199-00161-00351102941ADDGA1041+017501999GE19AGL   +99999+99999GF104991041999017501999999MD1710021+9999MW1101REMSYN07058338 31757 40902 11016 21035 40294 57002 710// 84/// 333 05551 31017=
0138583380999992015020603004+31150+118583FM-12+001699999V0200901N002019999999N013000199+00651-00611102971ADDGA1071+999999999GE19AGL   +99999+99999GF107991071999999999999999MD1210031+9999REMSYN04858338 32963 70902 10065 21061 40297 52003 87///=
0161583380999992015020606004+31150+118583FM-12+001699999V0202201N003019999999N017000199+00901-00721102631ADDGA1061+999999999GE19AGL   +99999+99999GF106991061999999999999999KA1240N-00241MD1710331+9999REMSYN05858338 32967 62203 10090 21072 40263 57033 86/// 333 21024=
0094583380999992015020609004+31150+118583FM-12+001699999V0209999C999999999999N018000199+00931-00701102541ADDGF100995999999999999999999MD1710091+9999REMSYN04258338 32968 00000 10093 21070 40254 57009=
0094583380999992015020612004+31150+118583FM-12+001699999V0200701N002019999999N012000199+00461-00271102651ADDGF100995999999999999999999MD1210101+9999REMSYN04258338 32962 00702 10046 21027 40265 52010=
0138583380999992015020618004+31150+118583FM-12+001699999V0209999C99999002401CN008000199+00061-00251102561ADDGF109991999999999999999999KA1120M+01031MA1999999102041MD1710091+9999REMSYN05858338 32/58 90000 10006 21025 30204 40256 57009 333 10103=
0094583380999992015020621004+31150+118583FM-12+001699999V0201101N00101002401CN008000199-00051-00221102421ADDGF109991999999999999999999MD1710141+9999REMSYN04258338 32/58 91101 11005 21022 40242 57014=
0143583380999992015020700004+31150+118583FM-12+001699999V0201101N001019999999N006000199-00051-00211102531ADDGF100995999999999999999999MA1999999102001MD1210101+9999MW1101REMSYN07058338 31956 01101 11005 21021 30200 40253 52010 710// 333 05401 31013=
0094583380999992015020703004+31150+118583FM-12+001699999V0202001N001019999999N010000199+00911-00161102591ADDGF100995999999999999999999MD1210071+9999REMSYN04258338 32960 02001 10091 21016 40259 52007=
0182583380999992015020706004+31150+118583FM-12+001699999V0202701N002019999999N010000199+01251-00181102291ADDGA1031+999999999GE19AGL   +99999+99999GF103991031999999999999999KA1240N-00151MA1999999101771MD1710301+9999REMSYN06458338 32960 32702 10125 21018 30177 40229 57030 83/// 333 21015=
0138583380999992015020709004+31150+118583FM-12+001699999V0203201N002019999999N012000199+01141-00281102421ADDGA1021+999999999GE19AGL   +99999+99999GF102991021999999999999999MD1210131+9999REMSYN04858338 32962 23202 10114 21028 40242 52013 82///=
0138583380999992015020712004+31150+118583FM-12+001699999V0202901N003019999999N009000199+00961-00061102621ADDGA1041+999999999GE19AGL   +99999+99999GF104991041999999999999999MD1210201+9999REMSYN04858338 32959 42903 10096 21006 40262 52020 84///=
0166583380999992015020718004+31150+118583FM-12+001699999V0200401N00701002401CN003300199+00501-00121103111ADDAY101021AY201021GF109991999999999999999999KA1120M+01281MA1999999102591MD1210251+9999MW1051REMSYN06458338 31/33 90407 10050 21012 30259 40311 52025 70500 333 10128=
0106583380999992015020721004+31150+118583FM-12+001699999V0200201N00401002401CN004300199+00251-00091103301ADDGF109991999999999999999999MD1210191+9999MW1101REMSYN04858338 31/43 90204 10025 21009 40330 52019 710//=
0143583380999992015020800004+31150+118583FM-12+001699999V0200201N004019999999N006000199+00081-00241103521ADDGF100995999999999999999999MA1999999103001MD1210221+9999MW1101REMSYN07058338 31956 00204 10008 21024 30300 40352 52022 710// 333 01001 31003=
0138583380999992015020803004+31150+118583FM-12+001699999V0200401N002019999999N012000199+00341-00451103691ADDGA1021+008001999GE19AGL   +99999+99999GF102991021999008001999999MD1210171+9999REMSYN04858338 32562 20402 10034 21045 40369 52017 82///=
0138583380999992015020806004+31150+118583FM-12+001699999V0200701N004019999999N021000199+00501-00651103501ADDGF100995999999999999999999KA1240N+00061MA1999999102971MD1710201+9999REMSYN05858338 32971 00704 10050 21065 30297 40350 57020 333 20006=
0094583380999992015020809004+31150+118583FM-12+001699999V0200901N003019999999N020000199+00481-00701103441ADDGF100995999999999999999999MD1710061+9999REMSYN04258338 32970 00903 10048 21070 40344 57006=
0094583380999992015020812004+31150+118583FM-12+001699999V0200701N002019999999N017000199+00191-00691103411ADDGF100995999999999999999999MD1710031+9999REMSYN04258338 32967 00702 10019 21069 40341 57003=
0117583380999992015020818004+31150+118583FM-12+001699999V0200701N00301002401CN015000199-00121-00761103521ADDGF109991999999999999999999KA1120M+00571MD1210041+9999REMSYN05258338 32/65 90703 11012 21076 40352 52004 333 10057=
0094583380999992015020821004+31150+118583FM-12+001699999V0200701N00401002401CN009000199-00191-00611103481ADDGF109991999999999999999999MD1710041+9999REMSYN04258338 32/59 90704 11019 21061 40348 57004=
0122583380999992015020900004+31150+118583FM-12+001699999V0200901N003019999999N007000199-00151-00501103581ADDGF100995999999999999999999MD1210101+9999MW1101REMSYN06458338 31957 00903 11015 21050 40358 52010 710// 333 00152 31036=
0138583380999992015020903004+31150+118583FM-12+001699999V0200901N006019999999N013000199+00281-01081103561ADDGA1031+999999999GE19AGL   +99999+99999GF103991031999999999999999MD1710021+9999REMSYN04858338 32963 30906 10028 21108 40356 57002 83///=
0161583380999992015020906004+31150+118583FM-12+001699999V0200401N002019999999N026000199+00501-01441103231ADDGA1021+999999999GE19AGL   +99999+99999GF102991021999999999999999KA1240N-00391MD1710331+9999REMSYN05858338 32976 20402 10050 21144 40323 57033 82/// 333 21039=
0094583380999992015020909004+31150+118583FM-12+001699999V0200701N002019999999N025000199+00561-01021103111ADDGF100995999999999999999999MD1710121+9999REMSYN04258338 32975 00702 10056 21102 40311 57012=
0094583380999992015020912004+31150+118583FM-12+001699999V0200401N002019999999N017000199+00231-00791103121ADDGF100995999999999999999999MD1210011+9999REMSYN04258338 32967 00402 10023 21079 40312 52001=
0138583380999992015020918004+31150+118583FM-12+001699999V0201101N00201002401CN012000199-00201-00521102871ADDGF109991999999999999999999KA1120M+00621MA1999999102341MD1710151+9999REMSYN05858338 32/62 91102 11020 21052 30234 40287 57015 333 10062=
0094583380999992015020921004+31150+118583FM-12+001699999V0201601N00101002401CN010000199-00341-00651102691ADDGF109991999999999999999999MD1710181+9999REMSYN04258338 32/60 91601 11034 21065 40269 57018=
0110583380999992015021000004+31150+118583FM-12+001699999V0201601N001019999999N008000199-00121-00491102661ADDGF100995999999999999999999MD1710031+9999REMSYN05858338 32958 01601 11012 21049 40266 57003 333 05900 31040=
0094583380999992015021003004+31150+118583FM-12+001699999V0202001N001019999999N015000199+00861-00461102511ADDGF100995999999999999999999MD1710141+9999REMSYN04258338 32965 02001 10086 21046 40251 57014=
0117583380999992015021006004+31150+118583FM-12+001699999V0203201N003019999999N026000199+01201-00641102131ADDGF100995999999999999999999KA1240N-00471MD1710381+9999REMSYN05258338 32976 03203 10120 21064 40213 57038 333 21047=
0138583380999992015021009004+31150+118583FM-12+001699999V0203201N001019999999N016000199+01211-00591101971ADDGA1021+999999999GE19AGL   +99999+99999GF102991021999999999999999MD1710161+9999REMSYN04858338 32966 23201 10121 21059 40197 57016 82///=
0094583380999992015021012004+31150+118583FM-12+001699999V0201101N003019999999N010000199+00611-00351102001ADDGF100995999999999999999999MD1210031+9999REMSYN04258338 32960 01103 10061 21035 40200 52003=
0117583380999992015021018004+31150+118583FM-12+001699999V0202201N00101002401CN011000199+00451-00281101861ADDGF109991999999999999999999KA1120M+01281MD1710071+9999REMSYN05258338 32/61 92201 10045 21028 40186 57007 333 10128=
0094583380999992015021021004+31150+118583FM-12+001699999V0202201N00201002401CN013000199+00391-00231101741ADDGF109991999999999999999999MD1710121+9999REMSYN04258338 32/63 92202 10039 21023 40174 57012=
0110583380999992015021100004+31150+118583FM-12+001699999V0202201N003019999999N011000199+00481-00161101861ADDGF100995999999999999999999MD1210111+9999REMSYN05858338 32961 02203 10048 21016 40186 52011 333 05806 31005=
0094583380999992015021103004+31150+118583FM-12+001699999V0202201N006019999999N008000199+01211+00111101741ADDGF100995999999999999999999MD1710111+9999REMSYN04258338 32958 02206 10121 20011 40174 57011=
0117583380999992015021106004+31150+118583FM-12+001699999V0202701N007019999999N010000199+01591+00051101471ADDGF100995999999999999999999KA1240N+00291MD1710271+9999REMSYN05258338 32960 02707 10159 20005 40147 57027 333 20029=
0138583380999992015021109004+31150+118583FM-12+001699999V0202701N003019999999N009000199+01431+00251101491ADDGA1021+999999999GE19AGL   +99999+99999GF102991021999999999999999MD1210021+9999REMSYN04858338 32959 22703 10143 20025 40149 52002 82///=
0166583380999992015021112004+31150+118583FM-12+001699999V0202501N002019999999N006000199+01001+00371101681ADDAY101021AY201021GA1031+999999999GE19AGL   +99999+99999GF103991031999999999999999MD1210191+9999MW1051REMSYN05458338 31956 32502 10100 20037 40168 52019 70500 83///=
0145583380999992015021118004+31150+118583FM-12+001699999V0202501N002019999999N999999999+00631+00221101901ADDAY101021AY201021GF109991999999999999999999KA1120M+01611MD1210051+9999MW1101REMSYN05858338 31/55 92502 10063 20022 40190 52005 71000 333 10161=
0106583380999992015021121004+31150+118583FM-12+001699999V0202501N00201002401CN005000199+00391+00091101911ADDGF109991999999999999999999MD1210011+9999MW1101REMSYN04858338 31/50 92502 10039 20009 40191 52001 710//=
0143583380999992015021200004+31150+118583FM-12+001699999V0202501N002019999999N004200199+00401+00101102021ADDGF100995999999999999999999MA1999999101511MD1210111+9999MW1101REMSYN07058338 31942 02502 10040 20010 30151 40202 52011 710// 333 00251 30000=
0094583380999992015021203004+31150+118583FM-12+001699999V0202701N001019999999N008000199+01251-00221102101ADDGF100995999999999999999999MD1210081+9999REMSYN04258338 32958 02701 10125 21022 40210 52008=
0138583380999992015021206004+31150+118583FM-12+001699999V0202701N004019999999N007000199+01581+00041101831ADDGF100995999999999999999999KA1240N+00351MA1999999101321MD1710271+9999REMSYN05858338 32957 02704 10158 20004 30132 40183 57027 333 20035=
0094583380999992015021209004+31150+118583FM-12+001699999V0200201N001019999999N007000199+01511+00051101751ADDGF100995999999999999999999MD1710081+9999REMSYN04258338 32957 00201 10151 20005 40175 57008=
0122583380999992015021212004+31150+118583FM-12+001699999V0201101N003019999999N999999999+00881+00221101811ADDAY101021AY201021GF100995999999999999999999MD1210061+9999MW1051REMSYN04858338 31955 01103 10088 20022 40181 52006 70500=
0145583380999992015021218004+31150+118583FM-12+001699999V0200901N00401002401CN002800199+00611+00041101801ADDAY101021AY201021GF109991999999999999999999KA1120M+01631MD1210011+9999MW1051REMSYN05858338 31/28 90904 10061 20004 40180 52001 70500 333 10163=
0106583380999992015021221004+31150+118583FM-12+001699999V0200901N00301002401CN001400199+00401+00221101781ADDGF109991999999999999999999MD1710021+9999MW1101REMSYN04858338 31/14 90903 10040 20022 40178 57002 710//=
0122583380999992015021300004+31150+118583FM-12+001699999V0200701N002019999999N001000199+00391+00291102041ADDGF100995999999999999999999MD1210251+9999MW1101REMSYN06458338 31910 00702 10039 20029 40204 52025 710// 333 00000 30020=
0122583380999992015021303004+31150+118583FM-12+001699999V0201601N002019999999N003000199+01041+00481102101ADDAY101021AY201021GF100995999999999999999999MD1210071+9999MW1101REMSYN04858338 31930 01602 10104 20048 40210 52007 71000=
0189583380999992015021306004+31150+118583FM-12+001699999V0203601N002019999999N004400199+01491+00461101901ADDAY101021AY201021GA1071+999999999GE19AGL   +99999+99999GF107991071999999999999999KA1240N+00291MD1710201+9999MW1051REMSYN06458338 31944 73602 10149 20046 40190 57020 70500 87/// 333 20029=
0166583380999992015021309004+31150+118583FM-12+001699999V0200701N003019999999N004200199+01341+00481101971ADDAY101021AY201021GA1071+999999999GE19AGL   +99999+99999GF107991071999999999999999MD1210071+9999MW1051REMSYN05458338 31942 70703 10134 20048 40197 52007 70500 87///=
0187583380999992015021312004+31150+118583FM-12+001699999V0200701N004019999999N003100199+00941+00501102091ADDAY101021AY201021GA1031+999999999GE19AGL   +99999+99999GF103991031999999999999999MA1999999101581MD1210121+9999MW1101REMSYN06058338 31931 30704 10094 20050 30158 40209 52012 71000 83///=
0166583380999992015021318004+31150+118583FM-12+001699999V0200901N00401002401CN001800199+00621+00501101971ADDAY101021AY201021GF109991999999999999999999KA1120M+01521MA1999999101461MD1710111+9999MW1101REMSYN06458338 31/18 90904 10062 20050 30146 40197 57011 71000 333 10152=
0106583380999992015021321004+31150+118583FM-12+001699999V0201101N00301002401CN001100199+00441+00381101821ADDGF109991999999999999999999MD1710151+9999MW1101REMSYN04858338 31/11 91103 10044 20038 40182 57015 710//=
0166583380999992015021400004+31150+118583FM-12+001699999V0200901N002019999999N001000199+00531+00501101861ADDGA1071+999999999GE19AGL   +99999+99999GF107991071999999999999999MD1210041+9999MW1101REMSYN07058338 31910 70902 10053 20050 40186 52004 710// 87/// 333 05201 30022=
0166583380999992015021403004+31150+118583FM-12+001699999V0201101N004019999999N004400199+01371+00631101751ADDAY101021AY201021GA1071+999999999GE19AGL   +99999+99999GF107991071999999999999999MD1710111+9999MW1051REMSYN05458338 31944 71104 10137 20063 40175 57011 70500 87///=
0161583380999992015021406004+31150+118583FM-12+001699999V0201401N003019999999N008000199+02021+00691101451ADDGA1061+999999999GE19AGL   +99999+99999GF106991061999999999999999KA1240N+00361MD1710291+9999REMSYN05858338 32958 61403 10202 20069 40145 57029 86/// 333 20036=
0138583380999992015021409004+31150+118583FM-12+001699999V0200901N002019999999N008000199+01961+00801101391ADDGA1081+999999999GE19AGL   +99999+99999GF108991081999999999999999MD1710061+9999REMSYN04858338 32958 80902 10196 20080 40139 57006 88///=
0183583380999992015021412004+31150+118583FM-12+001699999V0202501N003019999999N999999999+01621+00871101671ADDAA106000131AY101021AY201021GA1081+012501999GE19AGL   +99999+99999GF108991081999012501999999MD1210271+9999MW1601REMSYN06058338 11655 82503 10162 20087 40167 52027 69911 76000 88///=
0162583380999992015021418004+31150+118583FM-12+001699999V0209999C99999002401CN002000199+01151+01071101531ADDAA106001031AY101021AY201021GF109991999999999999999999KA1120M+02131MD1710091+9999MW1101REMSYN06458338 11/20 90000 10115 20107 40153 57009 60011 71000 333 10213=
0127583380999992015021421004+31150+118583FM-12+001699999V0200901N00201002401CN001800199+01101+01071101421ADDAA124002331GF109991999999999999999999MD1710111+9999MW1101REMSYN05858338 41/18 90902 10110 20107 40142 57011 710// 333 70023=
0194583380999992015021500004+31150+118583FM-12+001699999V0209999C999999999999N000800199+01121+01111101481ADDAA106003031AA224003831GA1081+008001999GE19AGL   +99999+99999GF108991081999008001999999MD1210061+9999MW1601REMSYN07658338 11508 80000 10112 20111 40148 52006 60031 760// 88/// 333 05406 70038=
0166583380999992015021503004+31150+118583FM-12+001699999V0202501N002019999999N002100199+01261+01171101571ADDAY161021AY201021GA1081+008001999GE19AGL   +99999+99999GF108991081999008001999999MD1210091+9999MW1101REMSYN05458338 41521 82502 10126 20117 40157 52009 71060 88///=
0206583380999992015021506004+31150+118583FM-12+001699999V0202501N003019999999N004400199+01571+01351101321ADDAA106002031AY181021AY261021GA1051+012501999GE19AGL   +99999+99999GF105991051999012501999999KA1240N+01091MD1710251+9999MW1101REMSYN07058338 11644 52503 10157 20135 40132 57025 60021 71086 85/// 333 20109=
0166583380999992015021509004+31150+118583FM-12+001699999V0202901N004019999999N004500199+01571+01371101391ADDAY101021AY201021GA1081+004501999GE19AGL   +99999+99999GF108991081999004501999999MD1210071+9999MW1601REMSYN05458338 41445 82904 10157 20137 40139 52007 76000 88///=
0204583380999992015021512004+31150+118583FM-12+001699999V0202901N004019999999N001400199+01431+01381101681ADDAA106000631AY161021AY201021GA1081+004501999GE19AGL   +99999+99999GF108991081999004501999999MA1999999101181MD1210291+9999MW1601REMSYN06658338 11414 82904 10143 20138 30118 40168 52029 69961 76060 88///=
0162583380999992015021518004+31150+118583FM-12+001699999V0202701N00301002401CN002000199+01191+01141101881ADDAA106000131AY101021AY201021GF109991999999999999999999KA1120M+01651MD1210061+9999MW1101REMSYN06458338 11/20 92703 10119 20114 40188 52006 69911 71000 333 10165=
0127583380999992015021521004+31150+118583FM-12+001699999V0202701N00401002401CN001600199+01161+01071101961ADDAA124004531GF109991999999999999999999MD1210081+9999MW1101REMSYN05858338 31/16 92704 10116 20107 40196 52008 710// 333 70045=
0194583380999992015021600004+31150+118583FM-12+001699999V0202701N003019999999N002000199+01091+00921102121ADDAA112000131AA224003031GA1081+012501999GE19AGL   +99999+99999GF108991081999012501999999MD1210161+9999MW1101REMSYN07658338 11620 82703 10109 20092 40212 52016 69912 710// 88/// 333 00600 70030=
0166583380999992015021603004+31150+118583FM-12+001699999V0202901N002019999999N001700199+01211+01001102231ADDAY101021AY201021GA1071+012501999GE19AGL   +99999+99999GF107991071999012501999999MD1210111+9999MW1101REMSYN05458338 31617 72902 10121 20100 40223 52011 71000 87///=
0189583380999992015021606004+31150+118583FM-12+001699999V0202701N004019999999N002500199+01311+00921101981ADDAY101021AY201021GA1071+012501999GE19AGL   +99999+99999GF107991071999012501999999KA1240N+01081MD1710251+9999MW1101REMSYN06458338 31625 72704 10131 20092 40198 57025 71000 87/// 333 20108=
0122583380999992015021609004+31150+118583FM-12+001699999V0202701N002019999999N003500199+01351+00811101951ADDAY101021AY201021GF100995999999999999999999MD1710031+9999MW1051REMSYN04858338 31935 02702 10135 20081 40195 57003 70500=
0166583380999992015021612004+31150+118583FM-12+001699999V0202201N001019999999N002500199+01101+00861102011ADDAY101021AY201021GA1061+999999999GE19AGL   +99999+99999GF106991061999999999999999MD1210051+9999MW1101REMSYN05458338 31925 62201 10110 20086 40201 52005 71000 86///=
0166583380999992015021618004+31150+118583FM-12+001699999V0200701N00101002401CN001500199+00831+00761102041ADDAY101021AY201021GF109991999999999999999999KA1120M+01411MA1999999101531MD1710021+9999MW1101REMSYN06458338 31/15 90701 10083 20076 30153 40204 57002 71000 333 10141=
0106583380999992015021621004+31150+118583FM-12+001699999V0200401N00201002401CN001200199+00791+00751101981ADDGF109991999999999999999999MD1710061+9999MW1101REMSYN04858338 31/12 90402 10079 20075 40198 57006 710//=
0160583380999992015021700004+31150+118583FM-12+001699999V0200901N003019999999N001300199+00881+00771102121ADDGA1081+012501999GE19AGL   +99999+99999GF108991081999012501999999MD1210141+9999MW1101REMSYN06458338 31613 80903 10088 20077 40212 52014 710// 88/// 333 00052=
0166583380999992015021703004+31150+118583FM-12+001699999V0200901N007019999999N002100199+01201+00881102101ADDAY101021AY201021GA1061+012501999GE19AGL   +99999+99999GF106991061999012501999999MD1710021+9999MW1101REMSYN05458338 31621 60907 10120 20088 40210 57002 71000 86///=
0189583380999992015021706004+31150+118583FM-12+001699999V0200701N005019999999N002100199+01471+00951102011ADDAY101021AY201021GA1071+999999999GE19AGL   +99999+99999GF107991071999999999999999KA1240N+00751MD1710091+9999MW1101REMSYN06458338 31921 70705 10147 20095 40201 57009 71000 87/// 333 20075=
0166583380999992015021709004+31150+118583FM-12+001699999V0200401N004019999999N003900199+01441+00571102001ADDAY101021AY201021GA1071+999999999GE19AGL   +99999+99999GF107991071999999999999999MD1710011+9999MW1051REMSYN05458338 31939 70404 10144 20057 40200 57001 70500 87///=
0187583380999992015021712004+31150+118583FM-12+001699999V0200901N004019999999N003000199+01011+00491102201ADDAY101021AY201021GA1021+999999999GE19AGL   +99999+99999GF102991021999999999999999MA1999999101691MD1210201+9999MW1051REMSYN06058338 31930 20904 10101 20049 30169 40220 52020 70500 82///=
0145583380999992015021718004+31150+118583FM-12+001699999V0200901N00501002401CN001900199+00741+00541102341ADDAY101021AY201021GF109991999999999999999999KA1120M+01561MD1210101+9999MW1101REMSYN05858338 31/19 90905 10074 20054 40234 52010 71000 333 10156=
0106583380999992015021721004+31150+118583FM-12+001699999V0200701N00401002401CN003900199+00561+00191102381ADDGF109991999999999999999999MD1210041+9999MW1101REMSYN04858338 31/39 90704 10056 20019 40238 52004 710//=
0131583380999992015021800004+31150+118583FM-12+001699999V0200901N007019999999N009000199+00761-00271102501ADDGF100995999999999999999999MA1999999101991MD1210121+9999REMSYN06458338 32959 00907 10076 21027 30199 40250 52012 333 00451 30025=
0138583380999992015021803004+31150+118583FM-12+001699999V0200901N006019999999N015000199+01151-00231102601ADDGA1071+999999999GE19AGL   +99999+99999GF107991071999999999999999MD1210101+9999REMSYN04858338 32965 70906 10115 21023 40260 52010 87///=
0182583380999992015021806004+31150+118583FM-12+001699999V0200401N006019999999N008000199+01171+00081102551ADDGA1081+999999999GE19AGL   +99999+99999GF108991081999999999999999KA1240N+00471MA1999999102041MD1710051+9999REMSYN06458338 32958 80406 10117 20008 30204 40255 57005 88/// 333 20047=
0166583380999992015021809004+31150+118583FM-12+001699999V0200701N006019999999N007000199+01051+00281102581ADDAY101021AY201021GA1071+999999999GE19AGL   +99999+99999GF107991071999999999999999MD1210031+9999MW1051REMSYN05458338 31957 70706 10105 20028 40258 52003 70500 87///=
0138583380999992015021812004+31150+118583FM-12+001699999V0200701N006019999999N010000199+00911+00271102761ADDGA1071+999999999GE19AGL   +99999+99999GF107991071999999999999999MD1210171+9999REMSYN04858338 32960 70706 10091 20027 40276 52017 87///=
0145583380999992015021818004+31150+118583FM-12+001699999V0200701N00601002401CN007000199+00461+00091102841ADDAY101021AY201021GF109991999999999999999999KA1120M+01311MD1710041+9999MW1101REMSYN05858338 31/57 90706 10046 20009 40284 57004 71000 333 10131=
0094583380999992015021821004+31150+118583FM-12+001699999V0200701N00401002401CN009000199+00331-00071102771ADDGF109991999999999999999999MD1710071+9999REMSYN04258338 32/59 90704 10033 21007 40277 57007=
0122583380999992015021900004+31150+118583FM-12+001699999V0200901N005019999999N999999999+00311+00071102881ADDGF100995999999999999999999MD1210111+9999MW1101REMSYN06458338 31955 00905 10031 20007 40288 52011 710// 333 00455 30012=
0094583380999992015021903004+31150+118583FM-12+001699999V0201101N008019999999N010000199+00741+00041102771ADDGF100995999999999999999999MD1710111+9999REMSYN04258338 32960 01108 10074 20004 40277 57011=
0161583380999992015021906004+31150+118583FM-12+001699999V0200901N007019999999N018000199+01221-00071102361ADDGA1021+999999999GE19AGL   +99999+99999GF102991021999999999999999KA1240N+00191MD1710401+9999REMSYN05858338 32968 20907 10122 21007 40236 57040 82/// 333 20019=
0138583380999992015021909004+31150+118583FM-12+001699999V0200901N008019999999N014000199+01121+00061102161ADDGA1071+012501999GE19AGL   +99999+99999GF107991071999012501999999MD1710201+9999REMSYN04858338 32664 70908 10112 20006 40216 57020 87///=
0138583380999992015021912004+31150+118583FM-12+001699999V0200901N009019999999N020000199+00951+00091102151ADDGA1081+012501999GE19AGL   +99999+99999GF108991081999012501999999MD1710021+9999REMSYN04858338 32670 80909 10095 20009 40215 57002 88///=
0117583380999992015021918004+31150+118583FM-12+001699999V0200901N00601002401CN014000199+00661+00431101931ADDGF109991999999999999999999KA1120M+01251MD1710131+9999REMSYN05258338 32/64 90906 10066 20043 40193 57013 333 10125=
0127583380999992015021921004+31150+118583FM-12+001699999V0200901N00601002401CN006000199+00601+00511101741ADDAA124001331GF109991999999999999999999MD1710191+9999MW1101REMSYN05858338 41/56 90906 10060 20051 40174 57019 710// 333 70013=
0215583380999992015022000004+31150+118583FM-12+001699999V0200901N006019999999N999999999+00641+00551101761ADDAA106001031AA224001331GA1081+004501999GE19AGL   +99999+99999GF108991081999004501999999MA1999999101251MD1210021+9999MW1601REMSYN08258338 11455 80906 10064 20055 30125 40176 52002 60011 760// 88/// 333 06103 70013=
0166583380999992015022003004+31150+118583FM-12+001699999V0200901N003019999999N003800199+00711+00671101711ADDAY161021AY261021GA1081+004501999GE19AGL   +99999+99999GF108991081999004501999999MD1710051+9999MW1601REMSYN05458338 41438 80903 10071 20067 40171 57005 76066 88///=
0206583380999992015022006004+31150+118583FM-12+001699999V0200901N002019999999N002200199+00781+00771101481ADDAA106009031AY161021AY261021GA1081+004501999GE19AGL   +99999+99999GF108991081999004501999999KA1240N+00601MD1710231+9999MW1601REMSYN07058338 11422 80902 10078 20077 40148 57023 60091 76066 88/// 333 20060=
0166583380999992015022009004+31150+118583FM-12+001699999V0202901N002019999999N001100199+00791+00781101481ADDAY161021AY261021GA1081+004501999GE19AGL   +99999+99999GF108991081999004501999999MD1410001+9999MW1601REMSYN05458338 41411 82902 10079 20078 40148 54000 76066 88///=
0183583380999992015022012004+31150+118583FM-12+001699999V0202901N003019999999N000800199+00771+00761101561ADDAA106000131AY161021AY261021GA1081+004501999GE19AGL   +99999+99999GF108991081999004501999999MD1210081+9999MW1601REMSYN06058338 11408 82903 10077 20076 40156 52008 69911 76066 88///=
0183583380999992015022018004+31150+118583FM-12+001699999V0202901N00401002401CN001800199+00701+00691101681ADDAA106002031AY101021AY201021GF109991999999999999999999KA1120M+00821MA1999999101171MD1710011+9999MW1101REMSYN07058338 11/18 92904 10070 20069 30117 40168 57001 60021 71000 333 10082=
0127583380999992015022021004+31150+118583FM-12+001699999V0202701N00301002401CN001100199+00641+00631101671ADDAA124012431GF109991999999999999999999MD1710011+9999MW1101REMSYN05858338 41/11 92703 10064 20063 40167 57001 710// 333 70124=
0215583380999992015022100004+31150+118583FM-12+001699999V0202901N004019999999N001000199+00611+00601101901ADDAA106000831AA224012431GA1081+004501999GE19AGL   +99999+99999GF108991081999004501999999MA1999999101391MD1210231+9999MW1601REMSYN08258338 11410 82904 10061 20060 30139 40190 52023 69981 760// 88/// 333 00100 70124=
0166583380999992015022103004+31150+118583FM-12+001699999V0202701N003019999999N004500199+00641+00541102021ADDAY161021AY261021GA1081+004501999GE19AGL   +99999+99999GF108991081999004501999999MD1210121+9999MW1211REMSYN05458338 41445 82703 10064 20054 40202 52012 72166 88///=
0206583380999992015022106004+31150+118583FM-12+001699999V0202901N004019999999N999999999+00751+00511101831ADDAA106000431AY161021AY201021GA1081+008001999GE19AGL   +99999+99999GF108991081999008001999999KA1240N+00571MD1710191+9999MW1101REMSYN07058338 11555 82904 10075 20051 40183 57019 69941 71060 88/// 333 20057=
0166583380999992015022109004+31150+118583FM-12+001699999V0202701N004019999999N004100199+00721+00541101861ADDAY101021AY201021GA1081+012501999GE19AGL   +99999+99999GF108991081999012501999999MD1210031+9999MW1101REMSYN05458338 31641 82704 10072 20054 40186 52003 71000 88///=
0166583380999992015022112004+31150+118583FM-12+001699999V0202901N002019999999N002800199+00691+00541102031ADDAY101021AY201021GA1081+012501999GE19AGL   +99999+99999GF108991081999012501999999MD1210171+9999MW1101REMSYN05458338 31628 82902 10069 20054 40203 52017 71000 88///=
0145583380999992015022118004+31150+118583FM-12+001699999V0202701N00201002401CN004200199+00511+00391102221ADDAY101021AY201021GF109991999999999999999999KA1120M+00781MD1210091+9999MW1101REMSYN05858338 31/42 92702 10051 20039 40222 52009 71000 333 10078=
0127583380999992015022121004+31150+118583FM-12+001699999V0203401N00101002401CN003000199+00481+00411102261ADDAA124000431GF109991999999999999999999MD1210041+9999MW1101REMSYN05858338 31/30 93401 10048 20041 40226 52004 710// 333 70004=
0204583380999992015022200004+31150+118583FM-12+001699999V0209999C999999999999N001200199+00411+00401102421ADDAA124000431GA1071+012501999GE19AGL   +99999+99999GF107991071999012501999999MA1999999101901MD1210161+9999MW1101REMSYN08258338 31612 70000 10041 20040 30190 40242 52016 710// 87/// 333 00552 30024 70004=
0166583380999992015022203004+31150+118583FM-12+001699999V0200401N002019999999N003600199+00901+00481102381ADDAY101021AY201021GA1061+999999999GE19AGL   +99999+99999GF106991061999999999999999MD1710031+9999MW1101REMSYN05458338 31936 60402 10090 20048 40238 57003 71000 86///=
0189583380999992015022206004+31150+118583FM-12+001699999V0200401N004019999999N003200199+00841+00371102251ADDAY101021AY201021GA1071+999999999GE19AGL   +99999+99999GF107991071999999999999999KA1240N+00311MD1710141+9999MW1101REMSYN06458338 31932 70404 10084 20037 40225 57014 71000 87/// 333 20031=
0166583380999992015022209004+31150+118583FM-12+001699999V0200701N003019999999N002500199+00821+00401102251ADDAY101021AY201021GA1081+012501999GE19AGL   +99999+99999GF108991081999012501999999MD1410001+9999MW1101REMSYN05458338 31625 80703 10082 20040 40225 54000 71000 88///=
0187583380999992015022212004+31150+118583FM-12+001699999V0200901N004019999999N002000199+00751+00431102271ADDAY101021AY201021GA1081+012501999GE19AGL   +99999+99999GF108991081999012501999999MA1999999101751MD1210021+9999MW1101REMSYN06058338 31620 80904 10075 20043 30175 40227 52002 71000 88///=
0162583380999992015022218004+31150+118583FM-12+001699999V0200401N00301002401CN001700199+00511+00441102261ADDAA106007031AY101021AY201021GF109991999999999999999999KA1120M+00941MD1710131+9999MW1101REMSYN06458338 11/17 90403 10051 20044 40226 57013 60071 71000 333 10094=
0127583380999992015022221004+31150+118583FM-12+001699999V0201401N00401002401CN002400199+00531+00431102181ADDAA124006931GF109991999999999999999999MD1710081+9999MW1101REMSYN05858338 41/24 91404 10053 20043 40218 57008 710// 333 70069=
0194583380999992015022300004+31150+118583FM-12+001699999V0201101N005019999999N002700199+00591+00491102191ADDAA106000131AA224006931GA1081+012501999GE19AGL   +99999+99999GF108991081999012501999999MD1210011+9999MW1101REMSYN07658338 11627 81105 10059 20049 40219 52001 69911 710// 88/// 333 05202 70069=
0166583380999992015022303004+31150+118583FM-12+001699999V0200901N004019999999N999999999+00771+00501102251ADDAY101021AY201021GA1081+012501999GE19AGL   +99999+99999GF108991081999012501999999MD1210061+9999MW1101REMSYN05458338 31655 80904 10077 20050 40225 52006 71000 88///=
0210583380999992015022306004+31150+118583FM-12+001699999V0200901N004019999999N004300199+00761+00541101941ADDAY101021AY201021GA1081+012501999GE19AGL   +99999+99999GF108991081999012501999999KA1240N+00501MA1999999101431MD1710301+9999MW1101REMSYN07058338 31643 80904 10076 20054 30143 40194 57030 71000 88/// 333 20050=
0166583380999992015022309004+31150+118583FM-12+001699999V0200901N003019999999N003600199+00751+00561101871ADDAY101021AY201021GA1081+012501999GE19AGL   +99999+99999GF108991081999012501999999MD1710071+9999MW1101REMSYN05458338 31636 80903 10075 20056 40187 57007 71000 88///=
0183583380999992015022312004+31150+118583FM-12+001699999V0200901N003019999999N002800199+00681+00531102001ADDAA106000021AY161021AY201021GA1081+004501999GE19AGL   +99999+99999GF108991081999004501999999MD1210131+9999MW1601REMSYN06058338 11428 80903 10068 20053 40200 52013 69901 76060 88///=
0162583380999992015022318004+31150+118583FM-12+001699999V0200201N00101002401CN002600199+00631+00591101971ADDAA106000131AY101021AY201021GF109991999999999999999999KA1120M+00831MD1710031+9999MW1101REMSYN06458338 11/26 90201 10063 20059 40197 57003 69911 71000 333 10083=
0127583380999992015022321004+31150+118583FM-12+001699999V0200901N00101002401CN001800199+00631+00601101851ADDAA124000131GF109991999999999999999999MD1710121+9999MW1101REMSYN05858338 41/18 90901 10063 20060 40185 57012 710// 333 70001=
0215583380999992015022400004+31150+118583FM-12+001699999V0200901N002019999999N002000199+00661+00621102041ADDAA112000131AA224000131GA1081+012501999GE19AGL   +99999+99999GF108991081999012501999999MA1999999101531MD1210191+9999MW1101REMSYN08258338 11620 80902 10066 20062 30153 40204 52019 69912 710// 88/// 333 05101 70001=
0166583380999992015022403004+31150+118583FM-12+001699999V0200901N003019999999N002000199+00761+00721101921ADDAY101021AY201021GA1081+008001999GE19AGL   +99999+99999GF108991081999008001999999MD1710121+9999MW1101REMSYN05458338 31520 80903 10076 20072 40192 57012 71000 88///=
0161583380999992015022406004+31150+118583FM-12+001699999V0201101N001019999999N007000199+00981+00631101651ADDGA1081+012501999GE19AGL   +99999+99999GF108991081999012501999999KA1240N+00611MD1710271+9999REMSYN05858338 32657 81101 10098 20063 40165 57027 88/// 333 20061=
0166583380999992015022409004+31150+118583FM-12+001699999V0200701N004019999999N006000199+00981+00721101561ADDAY101021AY201021GA1071+017501999GE19AGL   +99999+99999GF107991071999017501999999MD1710091+9999MW1101REMSYN05458338 31756 70704 10098 20072 40156 57009 71000 87///=
0204583380999992015022412004+31150+118583FM-12+001699999V0200401N004019999999N003000199+00831+00741101631ADDAA106000131AY101021AY201021GA1081+008001999GE19AGL   +99999+99999GF108991081999008001999999MA1999999101121MD1210071+9999MW1801REMSYN06658338 11530 80404 10083 20074 30112 40163 52007 69911 78000 88///=
0162583380999992015022418004+31150+118583FM-12+001699999V0201101N00301002401CN002100199+00791+00781101621ADDAA106011031AY101021AY201021GF109991999999999999999999KA1120M+01031MD1710091+9999MW1101REMSYN06458338 11/21 91103 10079 20078 40162 57009 60111 71000 333 10103=
0127583380999992015022421004+31150+118583FM-12+001699999V0200701N00301002401CN003200199+00771+00761101561ADDAA124012531GF109991999999999999999999MD1710061+9999MW1101REMSYN05858338 41/32 90703 10077 20076 40156 57006 710// 333 70125=
0194583380999992015022500004+31150+118583FM-12+001699999V0200701N003019999999N002600199+00781+00771101711ADDAA106002031AA224013131GA1081+012501999GE19AGL   +99999+99999GF108991081999012501999999MD1210151+9999MW1101REMSYN07658338 11626 80703 10078 20077 40171 52015 60021 710// 88/// 333 05301 70131=
0138583380999992015022503004+31150+118583FM-12+001699999V0200701N002019999999N008000199+00881+00801101611ADDGA1081+012501999GE19AGL   +99999+99999GF108991081999012501999999MD1710101+9999REMSYN04858338 42658 80702 10088 20080 40161 57010 88///=
0227583380999992015022506004+31150+118583FM-12+001699999V0200201N003019999999N002300199+00861+00851101671ADDAA106005031AY161021AY201021GA1081+012501999GE19AGL   +99999+99999GF108991081999012501999999KA1240N+00761MA1999999101161MD1210061+9999MW1601REMSYN07658338 11623 80203 10086 20085 30116 40167 52006 60051 76060 88/// 333 20076=
0166583380999992015022509004+31150+118583FM-12+001699999V0200901N002019999999N002600199+00871+00861101651ADDAY161021AY261021GA1081+012501999GE19AGL   +99999+99999GF108991081999012501999999MD1710021+9999MW1601REMSYN05458338 41626 80902 10087 20086 40165 57002 76066 88///=
