0080583670999992015010100004+31198+121336FM-15+000399999V0203101N005019999999Y999999999+00101-01201999999ADDMA1103501999999REMMET053METAR ZSSS 010000Z 31005MPS CAVOK 01/M12 Q1035 NOSIG=
0088583670999992015010100304+31198+121336FM-15+000399999V0203101V006019999999Y999999999+00101-01201999999ADDMA1103501999999REMMET061METAR ZSSS 010030Z 31006MPS 280V340 CAVOK 01/M12 Q1035 NOSIG=
0088583670999992015010101004+31198+121336FM-15+000399999V0203301V007019999999Y999999999+00201-01301999999ADDMA1103501999999REMMET061METAR ZSSS 010100Z 33007MPS 290V350 CAVOK 02/M13 Q1035 NOSIG=
0080583670999992015010101304+31198+121336FM-15+000399999V0203301N006019999999Y999999999+00301-01201999999ADDMA1103501999999REMMET053METAR ZSSS 010130Z 33006MPS CAVOK 03/M12 Q1035 NOSIG=
0088583670999992015010102004+31198+121336FM-15+000399999V0203301V006019999999Y999999999+00301-01201999999ADDMA1103501999999REMMET061METAR ZSSS 010200Z 33006MPS 300V360 CAVOK 03/M12 Q1035 NOSIG=
0088583670999992015010102304+31198+121336FM-15+000399999V0203401V007019999999Y999999999+00401-01201999999ADDMA1103501999999REMMET061METAR ZSSS 010230Z 34007MPS 300V020 CAVOK 04/M12 Q1035 NOSIG=
0088583670999992015010103004+31198+121336FM-15+000399999V0203501V007019999999Y999999999+00501-01401999999ADDMA1103401999999REMMET061METAR ZSSS 010300Z 35007MPS 320V020 CAVOK 05/M14 Q1034 NOSIG=
0091583670999992015010103304+31198+121336FM-15+000399999V0203501N008019999999Y999999999+00501-01401999999ADDMA1103301999999OC101401REMMET056METAR ZSSS 010330Z 35008G14MPS CAVOK 05/M14 Q1033 NOSIG=
0080583670999992015010104004+31198+121336FM-15+000399999V0203401N009019999999Y999999999+00601-01401999999ADDMA1103301999999REMMET053METAR ZSSS 010400Z 34009MPS CAVOK 06/M14 Q1033 NOSIG=
0088583670999992015010104304+31198+121336FM-15+000399999V0203401V007019999999Y999999999+00501-01501999999ADDMA1103301999999REMMET061METAR ZSSS 010430Z 34007MPS 300V010 CAVOK 05/M15 Q1033 NOSIG=
0088583670999992015010105004+31198+121336FM-15+000399999V0203401V006019999999Y999999999+00601-01501999999ADDMA1103201999999REMMET061METAR ZSSS 010500Z 34006MPS 310V010 CAVOK 06/M15 Q1032 NOSIG=
0080583670999992015010105304+31198+121336FM-15+000399999V0203401N007019999999Y999999999+00601-01601999999ADDMA1103201999999REMMET053METAR ZSSS 010530Z 34007MPS CAVOK 06/M16 Q1032 NOSIG=
0088583670999992015010106004+31198+121336FM-15+000399999V0203101V007019999999Y999999999+00501-01501999999ADDMA1103301999999REMMET061METAR ZSSS 010600Z 31007MPS 280V340 CAVOK 05/M15 Q1033 NOSIG=
0088583670999992015010106304+31198+121336FM-15+000399999V0203201V007019999999Y999999999+00501-01501999999ADDMA1103301999999REMMET061METAR ZSSS 010630Z 32007MPS 280V350 CAVOK 05/M15 Q1033 NOSIG=
0080583670999992015010107004+31198+121336FM-15+000399999V0203501N008019999999Y999999999+00501-01601999999ADDMA1103301999999REMMET053METAR ZSSS 010700Z 35008MPS CAVOK 05/M16 Q1033 NOSIG=
0080583670999992015010107304+31198+121336FM-15+000399999V0203401N007019999999Y999999999+00501-01601999999ADDMA1103301999999REMMET053METAR ZSSS 010730Z 34007MPS CAVOK 05/M16 Q1033 NOSIG=
0088583670999992015010108004+31198+121336FM-15+000399999V0203301V006019999999Y999999999+00501-01501999999ADDMA1103201999999REMMET061METAR ZSSS 010800Z 33006MPS 290V360 CAVOK 05/M15 Q1032 NOSIG=
0080583670999992015010108304+31198+121336FM-15+000399999V0203401N006019999999Y999999999+00401-01501999999ADDMA1103301999999REMMET053METAR ZSSS 010830Z 34006MPS CAVOK 04/M15 Q1033 NOSIG=
0080583670999992015010109004+31198+121336FM-15+000399999V0203401N005019999999Y999999999+00301-01501999999ADDMA1103301999999REMMET053METAR ZSSS 010900Z 34005MPS CAVOK 03/M15 Q1033 NOSIG=
0080583670999992015010109304+31198+121336FM-15+000399999V0203501N003019999999Y999999999+00201-01401999999ADDMA1103201999999REMMET053METAR ZSSS 010930Z 35003MPS CAVOK 02/M14 Q1032 NOSIG=
0080583670999992015010110004+31198+121336FM-15+000399999V0203501N003019999999Y999999999+00201-01301999999ADDMA1103201999999REMMET053METAR ZSSS 011000Z 35003MPS CAVOK 02/M13 Q1032 NOSIG=
0080583670999992015010110304+31198+121336FM-15+000399999V0203501N004019999999Y999999999+00201-01401999999ADDMA1103201999999REMMET053METAR ZSSS 011030Z 35004MPS CAVOK 02/M14 Q1032 NOSIG=
0080583670999992015010111004+31198+121336FM-15+000399999V0203301N003019999999Y999999999+00201-01301999999ADDMA1103301999999REMMET053METAR ZSSS 011100Z 33003MPS CAVOK 02/M13 Q1033 NOSIG=
0080583670999992015010111304+31198+121336FM-15+000399999V0203201N003019999999Y999999999+00201-01401999999ADDMA1103301999999REMMET053METAR ZSSS 011130Z 32003MPS CAVOK 02/M14 Q1033 NOSIG=
0080583670999992015010112004+31198+121336FM-15+000399999V0203201N003019999999Y999999999+00201-01301999999ADDMA1103301999999REMMET053METAR ZSSS 011200Z 32003MPS CAVOK 02/M13 Q1033 NOSIG=
0088583670999992015010112304+31198+121336FM-15+000399999V0203201V003019999999Y999999999+00201-01301999999ADDMA1103301999999REMMET061METAR ZSSS 011230Z 32003MPS 290V350 CAVOK 02/M13 Q1033 NOSIG=
0080583670999992015010113004+31198+121336FM-15+000399999V0203101N003019999999Y999999999+00101-01301999999ADDMA1103301999999REMMET053METAR ZSSS 011300Z 31003MPS CAVOK 01/M13 Q1033 NOSIG=
0080583670999992015010113304+31198+121336FM-15+000399999V0203001N002019999999Y999999999+00101-01301999999ADDMA1103301999999REMMET053METAR ZSSS 011330Z 30002MPS CAVOK 01/M13 Q1033 NOSIG=
0080583670999992015010114004+31198+121336FM-15+000399999V0203301N003019999999Y999999999+00101-01301999999ADDMA1103201999999REMMET053METAR ZSSS 011400Z 33003MPS CAVOK 01/M13 Q1032 NOSIG=
0080583670999992015010114304+31198+121336FM-15+000399999V0203201N002019999999Y999999999+00101-01301999999ADDMA1103201999999REMMET053METAR ZSSS 011430Z 32002MPS CAVOK 01/M13 Q1032 NOSIG=
0081583670999992015010115004+31198+121336FM-15+000399999V0209999V001019999999Y999999999+00001-01201999999ADDMA1103201999999REMMET054METAR ZSSS 011500Z VRB01MPS CAVOK M00/M12 Q1032 NOSIG=
0109583670999992015010115304+31198+121336FM-15+000399999V0209999V001012200019N008000199+00001-01201999999ADDGF100991999999999999999999MA1103201999999REMMET056METAR ZSSS 011530Z VRB01MPS 8000 NSC 00/M12 Q1032 NOSIG=
0110583670999992015010116004+31198+121336FM-15+000399999V0202001N001012200019N007000199+00001-00901999999ADDGF100991999999999999999999MA1103201999999REMMET057METAR ZSSS 011600Z 20001MPS 7000 NSC M00/M09 Q1032 NOSIG=
0110583670999992015010116304+31198+121336FM-15+000399999V0209999C000012200019N007000199-00101-00801999999ADDGF100991999999999999999999MA1103101999999REMMET057METAR ZSSS 011630Z 00000MPS 7000 NSC M01/M08 Q1031 NOSIG=
0110583670999992015010117004+31198+121336FM-15+000399999V0209999V001012200019N007000199-00101-00801999999ADDGF100991999999999999999999MA1103201999999REMMET057METAR ZSSS 011700Z VRB01MPS 7000 NSC M01/M08 Q1032 NOSIG=
0110583670999992015010117304+31198+121336FM-15+000399999V0202301N001012200019N007000199-00201-00801999999ADDGF100991999999999999999999MA1103101999999REMMET057METAR ZSSS 011730Z 23001MPS 7000 NSC M02/M08 Q1031 NOSIG=
0110583670999992015010118004+31198+121336FM-15+000399999V0209999V001012200019N007000199-00101-00901999999ADDGF100991999999999999999999MA1103101999999REMMET057METAR ZSSS 011800Z VRB01MPS 7000 NSC M01/M09 Q1031 NOSIG=
0110583670999992015010118304+31198+121336FM-15+000399999V0209999C000012200019N007000199-00201-00901999999ADDGF100991999999999999999999MA1103101999999REMMET057METAR ZSSS 011830Z 00000MPS 7000 NSC M02/M09 Q1031 NOSIG=
0110583670999992015010119004+31198+121336FM-15+000399999V0209999V001012200019N007000199-00201-00801999999ADDGF100991999999999999999999MA1103101999999REMMET057METAR ZSSS 011900Z VRB01MPS 7000 NSC M02/M08 Q1031 NOSIG=
0110583670999992015010119304+31198+121336FM-15+000399999V0202301N002012200019N007000199-00301-00701999999ADDGF100991999999999999999999MA1103101999999REMMET057METAR ZSSS 011930Z 23002MPS 7000 NSC M03/M07 Q1031 NOSIG=
0110583670999992015010120004+31198+121336FM-15+000399999V0209999V001012200019N007000199-00201-00801999999ADDGF100991999999999999999999MA1103101999999REMMET057METAR ZSSS 012000Z VRB01MPS 7000 NSC M02/M08 Q1031 NOSIG=
0110583670999992015010120304+31198+121336FM-15+000399999V0209999C000012200019N007000199-00201-00801999999ADDGF100991999999999999999999MA1103001999999REMMET057METAR ZSSS 012030Z 00000MPS 7000 NSC M02/M08 Q1030 NOSIG=
0110583670999992015010121004+31198+121336FM-15+000399999V0209999C000012200019N007000199-00201-00801999999ADDGF100991999999999999999999MA1103001999999REMMET057METAR ZSSS 012100Z 00000MPS 7000 NSC M02/M08 Q1030 NOSIG=
0110583670999992015010121304+31198+121336FM-15+000399999V0209999V001012200019N007000199-00301-00901999999ADDGF100991999999999999999999MA1103001999999REMMET057METAR ZSSS 012130Z VRB01MPS 7000 NSC M03/M09 Q1030 NOSIG=
0110583670999992015010122004+31198+121336FM-15+000399999V0209999C000012200019N007000199-00301-00801999999ADDGF100991999999999999999999MA1103101999999REMMET057METAR ZSSS 012200Z 00000MPS 7000 NSC M03/M08 Q1031 NOSIG=
0081583670999992015010122304+31198+121336FM-15+000399999V0202001N002019999999Y999999999-00401-00801999999ADDMA1103101999999REMMET054METAR ZSSS 012230Z 20002MPS CAVOK M04/M08 Q1031 NOSIG=
0081583670999992015010123004+31198+121336FM-15+000399999V0202101N001019999999Y999999999-00201-00701999999ADDMA1103101999999REMMET054METAR ZSSS 012300Z 21001MPS CAVOK M02/M07 Q1031 NOSIG=
0081583670999992015010123304+31198+121336FM-15+000399999V0209999C000019999999Y999999999-00101-00801999999ADDMA1103101999999REMMET054METAR ZSSS 012330Z 00000MPS CAVOK M01/M08 Q1031 NOSIG=
0080583670999992015010200004+31198+121336FM-15+000399999V0209999C000019999999Y999999999+00101-00701999999ADDMA1103201999999REMMET053METAR ZSSS 020000Z 00000MPS CAVOK 01/M07 Q1032 NOSIG=
0080583670999992015010200304+31198+121336FM-15+000399999V0209999V001019999999Y999999999+00301-00801999999ADDMA1103201999999REMMET053METAR ZSSS 020030Z VRB01MPS CAVOK 03/M08 Q1032 NOSIG=
0088583670999992015010201004+31198+121336FM-15+000399999V0202501V002019999999Y999999999+00301-00901999999ADDMA1103201999999REMMET061METAR ZSSS 020100Z 25002MPS 220V280 CAVOK 03/M09 Q1032 NOSIG=
0088583670999992015010201304+31198+121336FM-15+000399999V0202301V002019999999Y999999999+00501-00901999999ADDMA1103201999999REMMET061METAR ZSSS 020130Z 23002MPS 190V300 CAVOK 05/M09 Q1032 NOSIG=
0088583670999992015010202004+31198+121336FM-15+000399999V0202601V003019999999Y999999999+00501-01001999999ADDMA1103201999999REMMET061METAR ZSSS 020200Z 26003MPS 230V300 CAVOK 05/M10 Q1032 NOSIG=
0088583670999992015010202304+31198+121336FM-15+000399999V0202601V003019999999Y999999999+00601-01101999999ADDMA1103201999999REMMET061METAR ZSSS 020230Z 26003MPS 230V290 CAVOK 06/M11 Q1032 NOSIG=
0088583670999992015010203004+31198+121336FM-15+000399999V0202801V003019999999Y999999999+00601-01201999999ADDMA1103101999999REMMET061METAR ZSSS 020300Z 28003MPS 250V310 CAVOK 06/M12 Q1031 NOSIG=
0080583670999992015010203304+31198+121336FM-15+000399999V0209999V002019999999Y999999999+00701-01201999999ADDMA1103101999999REMMET053METAR ZSSS 020330Z VRB02MPS CAVOK 07/M12 Q1031 NOSIG=
0088583670999992015010204004+31198+121336FM-15+000399999V0203001V003019999999Y999999999+00701-01201999999ADDMA1103001999999REMMET061METAR ZSSS 020400Z 30003MPS 210V340 CAVOK 07/M12 Q1030 NOSIG=
0080583670999992015010204304+31198+121336FM-15+000399999V0209999V003019999999Y999999999+00801-01201999999ADDMA1102901999999REMMET053METAR ZSSS 020430Z VRB03MPS CAVOK 08/M12 Q1029 NOSIG=
0088583670999992015010205004+31198+121336FM-15+000399999V0203501V002019999999Y999999999+00801-01201999999ADDMA1102901999999REMMET061METAR ZSSS 020500Z 35002MPS 280V060 CAVOK 08/M12 Q1029 NOSIG=
0088583670999992015010205304+31198+121336FM-15+000399999V0203401V004019999999Y999999999+00901-01101999999ADDMA1102901999999REMMET061METAR ZSSS 020530Z 34004MPS 290V360 CAVOK 09/M11 Q1029 NOSIG=
0088583670999992015010206004+31198+121336FM-15+000399999V0203201V003019999999Y999999999+00901-01301999999ADDMA1102801999999REMMET061METAR ZSSS 020600Z 32003MPS 280V350 CAVOK 09/M13 Q1028 NOSIG=
0088583670999992015010206304+31198+121336FM-15+000399999V0203201V004019999999Y999999999+00901-01301999999ADDMA1102801999999REMMET061METAR ZSSS 020630Z 32004MPS 270V350 CAVOK 09/M13 Q1028 NOSIG=
0080583670999992015010207004+31198+121336FM-15+000399999V0209999V002019999999Y999999999+00901-01401999999ADDMA1102901999999REMMET053METAR ZSSS 020700Z VRB02MPS CAVOK 09/M14 Q1029 NOSIG=
0080583670999992015010207304+31198+121336FM-15+000399999V0200201N004019999999Y999999999+00901-01301999999ADDMA1102901999999REMMET053METAR ZSSS 020730Z 02004MPS CAVOK 09/M13 Q1029 NOSIG=
0080583670999992015010208004+31198+121336FM-15+000399999V0203601N003019999999Y999999999+00801-01201999999ADDMA1102901999999REMMET053METAR ZSSS 020800Z 36003MPS CAVOK 08/M12 Q1029 NOSIG=
0080583670999992015010208304+31198+121336FM-15+000399999V0200101N003019999999Y999999999+00701-01001999999ADDMA1102901999999REMMET053METAR ZSSS 020830Z 01003MPS CAVOK 07/M10 Q1029 NOSIG=
0080583670999992015010209004+31198+121336FM-15+000399999V0200301N004019999999Y999999999+00701-01001999999ADDMA1102901999999REMMET053METAR ZSSS 020900Z 03004MPS CAVOK 07/M10 Q1029 NOSIG=
0080583670999992015010209304+31198+121336FM-15+000399999V0200201N004019999999Y999999999+00601-01001999999ADDMA1102901999999REMMET053METAR ZSSS 020930Z 02004MPS CAVOK 06/M10 Q1029 NOSIG=
0080583670999992015010210004+31198+121336FM-15+000399999V0200401N003019999999Y999999999+00601-01001999999ADDMA1102901999999REMMET053METAR ZSSS 021000Z 04003MPS CAVOK 06/M10 Q1029 NOSIG=
0080583670999992015010210304+31198+121336FM-15+000399999V0200301N002019999999Y999999999+00601-01001999999ADDMA1103001999999REMMET053METAR ZSSS 021030Z 03002MPS CAVOK 06/M10 Q1030 NOSIG=
0088583670999992015010211004+31198+121336FM-15+000399999V0200601V002019999999Y999999999+00601-01001999999ADDMA1103001999999REMMET061METAR ZSSS 021100Z 06002MPS 030V100 CAVOK 06/M10 Q1030 NOSIG=
0080583670999992015010211304+31198+121336FM-15+000399999V0200401N002019999999Y999999999+00601-00901999999ADDMA1103001999999REMMET053METAR ZSSS 021130Z 04002MPS CAVOK 06/M09 Q1030 NOSIG=
0080583670999992015010212004+31198+121336FM-15+000399999V0200501N002019999999Y999999999+00501-00901999999ADDMA1103001999999REMMET053METAR ZSSS 021200Z 05002MPS CAVOK 05/M09 Q1030 NOSIG=
0080583670999992015010212304+31198+121336FM-15+000399999V0200301N003019999999Y999999999+00501-00801999999ADDMA1103001999999REMMET053METAR ZSSS 021230Z 03003MPS CAVOK 05/M08 Q1030 NOSIG=
0080583670999992015010213004+31198+121336FM-15+000399999V0200601N002019999999Y999999999+00501-00701999999ADDMA1103001999999REMMET053METAR ZSSS 021300Z 06002MPS CAVOK 05/M07 Q1030 NOSIG=
0080583670999992015010213304+31198+121336FM-15+000399999V0201401N002019999999Y999999999+00401-00701999999ADDMA1103001999999REMMET053METAR ZSSS 021330Z 14002MPS CAVOK 04/M07 Q1030 NOSIG=
0088583670999992015010214004+31198+121336FM-15+000399999V0201401V003019999999Y999999999+00501-00501999999ADDMA1102901999999REMMET061METAR ZSSS 021400Z 14003MPS 100V180 CAVOK 05/M05 Q1029 NOSIG=
0080583670999992015010214304+31198+121336FM-15+000399999V0201201N002019999999Y999999999+00401-00501999999ADDMA1102901999999REMMET053METAR ZSSS 021430Z 12002MPS CAVOK 04/M05 Q1029 NOSIG=
0080583670999992015010215004+31198+121336FM-15+000399999V0201101N001019999999Y999999999+00401-00501999999ADDMA1102901999999REMMET053METAR ZSSS 021500Z 11001MPS CAVOK 04/M05 Q1029 NOSIG=
0080583670999992015010215304+31198+121336FM-15+000399999V0201801N001019999999Y999999999+00201-00501999999ADDMA1102901999999REMMET053METAR ZSSS 021530Z 18001MPS CAVOK 02/M05 Q1029 NOSIG=
0080583670999992015010216004+31198+121336FM-15+000399999V0201801N002019999999Y999999999+00201-00401999999ADDMA1102901999999REMMET053METAR ZSSS 021600Z 18002MPS CAVOK 02/M04 Q1029 NOSIG=
0080583670999992015010216304+31198+121336FM-15+000399999V0202401N002019999999Y999999999+00201-00401999999ADDMA1102901999999REMMET053METAR ZSSS 021630Z 24002MPS CAVOK 02/M04 Q1029 NOSIG=
0080583670999992015010217004+31198+121336FM-15+000399999V0209999V001019999999Y999999999+00301-00301999999ADDMA1102901999999REMMET053METAR ZSSS 021700Z VRB01MPS CAVOK 03/M03 Q1029 NOSIG=
0080583670999992015010217304+31198+121336FM-15+000399999V0201401N001019999999Y999999999+00301-00301999999ADDMA1102901999999REMMET053METAR ZSSS 021730Z 14001MPS CAVOK 03/M03 Q1029 NOSIG=
0080583670999992015010218004+31198+121336FM-15+000399999V0200901N002019999999Y999999999+00301-00401999999ADDMA1102801999999REMMET053METAR ZSSS 021800Z 09002MPS CAVOK 03/M04 Q1028 NOSIG=
0080583670999992015010218304+31198+121336FM-15+000399999V0209999V001019999999Y999999999+00301-00501999999ADDMA1102801999999REMMET053METAR ZSSS 021830Z VRB01MPS CAVOK 03/M05 Q1028 NOSIG=
0080583670999992015010219004+31198+121336FM-15+000399999V0201201N002019999999Y999999999+00301-00401999999ADDMA1102701999999REMMET053METAR ZSSS 021900Z 12002MPS CAVOK 03/M04 Q1027 NOSIG=
0080583670999992015010219304+31198+121336FM-15+000399999V0201301N001019999999Y999999999+00301-00401999999ADDMA1102701999999REMMET053METAR ZSSS 021930Z 13001MPS CAVOK 03/M04 Q1027 NOSIG=
0080583670999992015010220004+31198+121336FM-15+000399999V0209999C000019999999Y999999999+00301-00501999999ADDMA1102701999999REMMET053METAR ZSSS 022000Z 00000MPS CAVOK 03/M05 Q1027 NOSIG=
0080583670999992015010220304+31198+121336FM-15+000399999V0201001N002019999999Y999999999+00401-00501999999ADDMA1102701999999REMMET053METAR ZSSS 022030Z 10002MPS CAVOK 04/M05 Q1027 NOSIG=
0080583670999992015010221004+31198+121336FM-15+000399999V0201201N002019999999Y999999999+00401-00501999999ADDMA1102601999999REMMET053METAR ZSSS 022100Z 12002MPS CAVOK 04/M05 Q1026 NOSIG=
0080583670999992015010221304+31198+121336FM-15+000399999V0201501N002019999999Y999999999+00301-00501999999ADDMA1102701999999REMMET053METAR ZSSS 022130Z 15002MPS CAVOK 03/M05 Q1027 NOSIG=
0080583670999992015010222004+31198+121336FM-15+000399999V0209999V001019999999Y999999999+00201-00501999999ADDMA1102701999999REMMET053METAR ZSSS 022200Z VRB01MPS CAVOK 02/M05 Q1027 NOSIG=
0080583670999992015010222304+31198+121336FM-15+000399999V0201401N002019999999Y999999999+00101-00501999999ADDMA1102601999999REMMET053METAR ZSSS 022230Z 14002MPS CAVOK 01/M05 Q1026 NOSIG=
0080583670999992015010223004+31198+121336FM-15+000399999V0201401N003019999999Y999999999+00301-00401999999ADDMA1102601999999REMMET053METAR ZSSS 022300Z 14003MPS CAVOK 03/M04 Q1026 NOSIG=
0088583670999992015010223304+31198+121336FM-15+000399999V0201501V002019999999Y999999999+00301-00301999999ADDMA1102601999999REMMET061METAR ZSSS 022330Z 15002MPS 110V180 CAVOK 03/M03 Q1026 NOSIG=
0080583670999992015010300004+31198+121336FM-15+000399999V0201401N003019999999Y999999999+00401-00301999999ADDMA1102501999999REMMET053METAR ZSSS 030000Z 14003MPS CAVOK 04/M03 Q1025 NOSIG=
0080583670999992015010300304+31198+121336FM-15+000399999V0201501N003019999999Y999999999+00501-00201999999ADDMA1102601999999REMMET053METAR ZSSS 030030Z 15003MPS CAVOK 05/M02 Q1026 NOSIG=
0080583670999992015010301004+31198+121336FM-15+000399999V0201401N003019999999Y999999999+00601-00101999999ADDMA1102601999999REMMET053METAR ZSSS 030100Z 14003MPS CAVOK 06/M01 Q1026 NOSIG=
0080583670999992015010301304+31198+121336FM-15+000399999V0201501N004019999999Y999999999+00701-00101999999ADDMA1102601999999REMMET053METAR ZSSS 030130Z 15004MPS CAVOK 07/M01 Q1026 NOSIG=
0088583670999992015010302004+31198+121336FM-15+000399999V0201501V005019999999Y999999999+00701-00101999999ADDMA1102601999999REMMET061METAR ZSSS 030200Z 15005MPS 120V180 CAVOK 07/M01 Q1026 NOSIG=
0080583670999992015010302304+31198+121336FM-15+000399999V0201501N006019999999Y999999999+00701+00001999999ADDMA1102501999999REMMET053METAR ZSSS 030230Z 15006MPS CAVOK 07/M00 Q1025 NOSIG=
0080583670999992015010303004+31198+121336FM-15+000399999V0201501N005019999999Y999999999+00801-00101999999ADDMA1102401999999REMMET053METAR ZSSS 030300Z 15005MPS CAVOK 08/M01 Q1024 NOSIG=
0080583670999992015010303304+31198+121336FM-15+000399999V0201501N005019999999Y999999999+00901-00301999999ADDMA1102401999999REMMET053METAR ZSSS 030330Z 15005MPS CAVOK 09/M03 Q1024 NOSIG=
0080583670999992015010304004+31198+121336FM-15+000399999V0201701N006019999999Y999999999+01001-00401999999ADDMA1102301999999REMMET053METAR ZSSS 030400Z 17006MPS CAVOK 10/M04 Q1023 NOSIG=
0080583670999992015010304304+31198+121336FM-15+000399999V0201501N005019999999Y999999999+01001-00301999999ADDMA1102201999999REMMET053METAR ZSSS 030430Z 15005MPS CAVOK 10/M03 Q1022 NOSIG=
0088583670999992015010305004+31198+121336FM-15+000399999V0201601V005019999999Y999999999+01101-00401999999ADDMA1102201999999REMMET061METAR ZSSS 030500Z 16005MPS 120V190 CAVOK 11/M04 Q1022 NOSIG=
0080583670999992015010305304+31198+121336FM-15+000399999V0201701N005019999999Y999999999+01201-00401999999ADDMA1102101999999REMMET053METAR ZSSS 030530Z 17005MPS CAVOK 12/M04 Q1021 NOSIG=
0080583670999992015010306004+31198+121336FM-15+000399999V0201501N005019999999Y999999999+01201-00401999999ADDMA1102101999999REMMET053METAR ZSSS 030600Z 15005MPS CAVOK 12/M04 Q1021 NOSIG=
0080583670999992015010306304+31198+121336FM-15+000399999V0201701N005019999999Y999999999+01201-00401999999ADDMA1102001999999REMMET053METAR ZSSS 030630Z 17005MPS CAVOK 12/M04 Q1020 NOSIG=
0080583670999992015010307004+31198+121336FM-15+000399999V0201701N005019999999Y999999999+01201-00501999999ADDMA1102001999999REMMET053METAR ZSSS 030700Z 17005MPS CAVOK 12/M05 Q1020 NOSIG=
0080583670999992015010307304+31198+121336FM-15+000399999V0201701N005019999999Y999999999+01201-00401999999ADDMA1102001999999REMMET053METAR ZSSS 030730Z 17005MPS CAVOK 12/M04 Q1020 NOSIG=
0080583670999992015010308004+31198+121336FM-15+000399999V0201501N004019999999Y999999999+01101-00301999999ADDMA1102001999999REMMET053METAR ZSSS 030800Z 15004MPS CAVOK 11/M03 Q1020 NOSIG=
0109583670999992015010308304+31198+121336FM-15+000399999V0201501N003012200019N008000199+01101-00301999999ADDGF100991999999999999999999MA1102001999999REMMET056METAR ZSSS 030830Z 15003MPS 8000 NSC 11/M03 Q1020 NOSIG=
0109583670999992015010309004+31198+121336FM-15+000399999V0201401N003012200019N007000199+01001-00301999999ADDGF100991999999999999999999MA1102001999999REMMET056METAR ZSSS 030900Z 14003MPS 7000 NSC 10/M03 Q1020 NOSIG=
0109583670999992015010309304+31198+121336FM-15+000399999V0201501N003012200019N007000199+00901-00301999999ADDGF100991999999999999999999MA1102001999999REMMET056METAR ZSSS 030930Z 15003MPS 7000 NSC 09/M03 Q1020 NOSIG=
0080583670999992015010310004+31198+121336FM-15+000399999V0201601N003019999999Y999999999+00801-00301999999ADDMA1102001999999REMMET053METAR ZSSS 031000Z 16003MPS CAVOK 08/M03 Q1020 NOSIG=
0080583670999992015010310304+31198+121336FM-15+000399999V0201401N003019999999Y999999999+00801-00201999999ADDMA1102001999999REMMET053METAR ZSSS 031030Z 14003MPS CAVOK 08/M02 Q1020 NOSIG=
0080583670999992015010311004+31198+121336FM-15+000399999V0201501N002019999999Y999999999+00801-00101999999ADDMA1102001999999REMMET053METAR ZSSS 031100Z 15002MPS CAVOK 08/M01 Q1020 NOSIG=
0080583670999992015010311304+31198+121336FM-15+000399999V0201501N003019999999Y999999999+00801+00001999999ADDMA1101901999999REMMET053METAR ZSSS 031130Z 15003MPS CAVOK 08/M00 Q1019 NOSIG=
0079583670999992015010312004+31198+121336FM-15+000399999V0201501N003019999999Y999999999+00701+00001999999ADDMA1101901999999REMMET052METAR ZSSS 031200Z 15003MPS CAVOK 07/00 Q1019 NOSIG=
0079583670999992015010312304+31198+121336FM-15+000399999V0201601N003019999999Y999999999+00701+00101999999ADDMA1101901999999REMMET052METAR ZSSS 031230Z 16003MPS CAVOK 07/01 Q1019 NOSIG=
0079583670999992015010313004+31198+121336FM-15+000399999V0201501N003019999999Y999999999+00701+00201999999ADDMA1101901999999REMMET052METAR ZSSS 031300Z 15003MPS CAVOK 07/02 Q1019 NOSIG=
0087583670999992015010313304+31198+121336FM-15+000399999V0201501V002019999999Y999999999+00601+00201999999ADDMA1101901999999REMMET060METAR ZSSS 031330Z 15002MPS 120V180 CAVOK 06/02 Q1019 NOSIG=
0079583670999992015010314004+31198+121336FM-15+000399999V0201701N002019999999Y999999999+00601+00201999999ADDMA1101901999999REMMET052METAR ZSSS 031400Z 17002MPS CAVOK 06/02 Q1019 NOSIG=
0079583670999992015010314304+31198+121336FM-15+000399999V0201501N002019999999Y999999999+00701+00301999999ADDMA1101801999999REMMET052METAR ZSSS 031430Z 15002MPS CAVOK 07/03 Q1018 NOSIG=
0079583670999992015010315004+31198+121336FM-15+000399999V0201401N002019999999Y999999999+00701+00301999999ADDMA1101801999999REMMET052METAR ZSSS 031500Z 14002MPS CAVOK 07/03 Q1018 NOSIG=
0079583670999992015010315304+31198+121336FM-15+000399999V0201501N002019999999Y999999999+00601+00201999999ADDMA1101801999999REMMET052METAR ZSSS 031530Z 15002MPS CAVOK 06/02 Q1018 NOSIG=
0079583670999992015010316004+31198+121336FM-15+000399999V0201501N001019999999Y999999999+00601+00301999999ADDMA1101801999999REMMET052METAR ZSSS 031600Z 15001MPS CAVOK 06/03 Q1018 NOSIG=
0079583670999992015010316304+31198+121336FM-15+000399999V0201601N002019999999Y999999999+00601+00301999999ADDMA1101801999999REMMET052METAR ZSSS 031630Z 16002MPS CAVOK 06/03 Q1018 NOSIG=
0079583670999992015010317004+31198+121336FM-15+000399999V0201501N002019999999Y999999999+00601+00301999999ADDMA1101801999999REMMET052METAR ZSSS 031700Z 15002MPS CAVOK 06/03 Q1018 NOSIG=
0079583670999992015010317304+31198+121336FM-15+000399999V0201601N001019999999Y999999999+00601+00301999999ADDMA1101801999999REMMET052METAR ZSSS 031730Z 16001MPS CAVOK 06/03 Q1018 NOSIG=
0079583670999992015010318004+31198+121336FM-15+000399999V0209999C000019999999Y999999999+00501+00201999999ADDMA1101801999999REMMET052METAR ZSSS 031800Z 00000MPS CAVOK 05/02 Q1018 NOSIG=
0079583670999992015010318304+31198+121336FM-15+000399999V0201701N001019999999Y999999999+00301+00101999999ADDMA1101801999999REMMET052METAR ZSSS 031830Z 17001MPS CAVOK 03/01 Q1018 NOSIG=
0108583670999992015010319004+31198+121336FM-15+000399999V0201601N001012200019N008000199+00401+00301999999ADDGF100991999999999999999999MA1101801999999REMMET055METAR ZSSS 031900Z 16001MPS 8000 NSC 04/03 Q1018 NOSIG=
0108583670999992015010319304+31198+121336FM-15+000399999V0201501N001012200019N008000199+00401+00201999999ADDGF100991999999999999999999MA1101701999999REMMET055METAR ZSSS 031930Z 15001MPS 8000 NSC 04/02 Q1017 NOSIG=
0108583670999992015010320004+31198+121336FM-15+000399999V0209999C000012200019N008000199+00301+00101999999ADDGF100991999999999999999999MA1101701999999REMMET055METAR ZSSS 032000Z 00000MPS 8000 NSC 03/01 Q1017 NOSIG=
0108583670999992015010320304+31198+121336FM-15+000399999V0209999C000012200019N007000199+00301+00101999999ADDGF100991999999999999999999MA1101701999999REMMET055METAR ZSSS 032030Z 00000MPS 7000 NSC 03/01 Q1017 NOSIG=
0117583670999992015010321004+31198+121336FM-15+000399999V0209999C000012200019N005000199+00301+00201999999ADDGF100991999999999999999999MA1101701999999MW1101REMMET058METAR ZSSS 032100Z 00000MPS 5000 BR NSC 03/02 Q1017 NOSIG=
0117583670999992015010321304+31198+121336FM-15+000399999V0209999C000012200019N005000199+00301+00201999999ADDGF100991999999999999999999MA1101701999999MW1101REMMET058METAR ZSSS 032130Z 00000MPS 5000 BR NSC 03/02 Q1017 NOSIG=
0117583670999992015010322004+31198+121336FM-15+000399999V0201601N001012200019N005000199+00201+00101999999ADDGF100991999999999999999999MA1101701999999MW1101REMMET058METAR ZSSS 032200Z 16001MPS 5000 BR NSC 02/01 Q1017 NOSIG=
0117583670999992015010322304+31198+121336FM-15+000399999V0201501N001012200019N004000199+00201+00101999999ADDGF100991999999999999999999MA1101701999999MW1101REMMET058METAR ZSSS 032230Z 15001MPS 4000 BR NSC 02/01 Q1017 NOSIG=
0137583670999992015010323004+31198+121336FM-15+000399999V0201601N001012200019N003000199+00301+00201999999ADDGF100991999999999999999999MA1101801999999MW1101REMMET078METAR ZSSS 032300Z 16001MPS 3000 BR NSC 03/02 Q1018 BECMG TL0030 2800      BR=
0117583670999992015010323304+31198+121336FM-15+000399999V0201601N001012200019N002800199+00301+00201999999ADDGF100991999999999999999999MA1101801999999MW1101REMMET058METAR ZSSS 032330Z 16001MPS 2800 BR NSC 03/02 Q1018 NOSIG=
0129583670999992015010400004+31198+121336FM-15+000399999V0201601N001012200019N002800199+00501+00401999999ADDGF100991999999999999999999MA1101901999999MW1101REMMET070METAR ZSSS 040000Z 16001MPS 2800 BR NSC 05/04 Q1019 BECMG TL0100 3000=
0117583670999992015010400304+31198+121336FM-15+000399999V0201801N001012200019N002800199+00801+00601999999ADDGF100991999999999999999999MA1101901999999MW1101REMMET058METAR ZSSS 040030Z 18001MPS 2800 BR NSC 08/06 Q1019 NOSIG=
0117583670999992015010401004+31198+121336FM-15+000399999V0202001N001012200019N002800199+01001+00401999999ADDGF100991999999999999999999MA1101901999999MW1051REMMET058METAR ZSSS 040100Z 20001MPS 2800 HZ NSC 10/04 Q1019 NOSIG=
0117583670999992015010401304+31198+121336FM-15+000399999V0202001N002012200019N002800199+01101+00201999999ADDGF100991999999999999999999MA1101901999999MW1051REMMET058METAR ZSSS 040130Z 20002MPS 2800 HZ NSC 11/02 Q1019 NOSIG=
0142583670999992015010402004+31198+121336FM-15+000399999V0202001V002012200019N002800199+01301+00201999999ADDGF100991999999999999999999MA1101901999999MW1051REMMET083METAR ZSSS 040200Z 20002MPS 170V250 2800 HZ NSC 13/02 Q1019 BECMG TL0300      3000=
0117583670999992015010402304+31198+121336FM-15+000399999V0209999V001012200019N002800199+01301+00101999999ADDGF100991999999999999999999MA1101801999999MW1051REMMET058METAR ZSSS 040230Z VRB01MPS 2800 HZ NSC 13/01 Q1018 NOSIG=
0117583670999992015010403004+31198+121336FM-15+000399999V0209999V001012200019N003000199+01501+00101999999ADDGF100991999999999999999999MA1101801999999MW1051REMMET058METAR ZSSS 040300Z VRB01MPS 3000 HZ NSC 15/01 Q1018 NOSIG=
0118583670999992015010403304+31198+121336FM-15+000399999V0209999V001012200019N003000199+01501+00001999999ADDGF100991999999999999999999MA1101801999999MW1051REMMET059METAR ZSSS 040330Z VRB01MPS 3000 HZ NSC 15/M00 Q1018 NOSIG=
0118583670999992015010404004+31198+121336FM-15+000399999V0209999V001012200019N003000199+01601-00101999999ADDGF100991999999999999999999MA1101801999999MW1051REMMET059METAR ZSSS 040400Z VRB01MPS 3000 HZ NSC 16/M01 Q1018 NOSIG=
0118583670999992015010404304+31198+121336FM-15+000399999V0209999V002012200019N003500199+01701-00101999999ADDGF100991999999999999999999MA1101701999999MW1051REMMET059METAR ZSSS 040430Z VRB02MPS 3500 HZ NSC 17/M01 Q1017 NOSIG=
0118583670999992015010405004+31198+121336FM-15+000399999V0209999V001012200019N003500199+01801-00201999999ADDGF100991999999999999999999MA1101701999999MW1051REMMET059METAR ZSSS 040500Z VRB01MPS 3500 HZ NSC 18/M02 Q1017 NOSIG=
0126583670999992015010405304+31198+121336FM-15+000399999V0201501V002012200019N004500199+01801-00401999999ADDGF100991999999999999999999MA1101701999999MW1051REMMET067METAR ZSSS 040530Z 15002MPS 060V190 4500 HZ NSC 18/M04 Q1017 NOSIG=
0117583670999992015010406004+31198+121336FM-15+000399999V0201201V002012200019N006000199+01801-00401999999ADDGF100991999999999999999999MA1101701999999REMMET064METAR ZSSS 040600Z 12002MPS 060V200 6000 NSC 18/M04 Q1017 NOSIG=
0109583670999992015010406304+31198+121336FM-15+000399999V0209999V001012200019N007000199+01801-00401999999ADDGF100991999999999999999999MA1101701999999REMMET056METAR ZSSS 040630Z VRB01MPS 7000 NSC 18/M04 Q1017 NOSIG=
0117583670999992015010407004+31198+121336FM-15+000399999V0200801V002012200019N007000199+01801-00301999999ADDGF100991999999999999999999MA1101701999999REMMET064METAR ZSSS 040700Z 08002MPS 350V130 7000 NSC 18/M03 Q1017 NOSIG=
0109583670999992015010407304+31198+121336FM-15+000399999V0201001N002012200019N007000199+01801-00401999999ADDGF100991999999999999999999MA1101701999999REMMET056METAR ZSSS 040730Z 10002MPS 7000 NSC 18/M04 Q1017 NOSIG=
0109583670999992015010408004+31198+121336FM-15+000399999V0201001N002012200019N007000199+01801-00401999999ADDGF100991999999999999999999MA1101701999999REMMET056METAR ZSSS 040800Z 10002MPS 7000 NSC 18/M04 Q1017 NOSIG=
0109583670999992015010408304+31198+121336FM-15+000399999V0201001N003012200019N007000199+01701-00301999999ADDGF100991999999999999999999MA1101601999999REMMET056METAR ZSSS 040830Z 10003MPS 7000 NSC 17/M03 Q1016 NOSIG=
0109583670999992015010409004+31198+121336FM-15+000399999V0201001N004012200019N007000199+01601-00201999999ADDGF100991999999999999999999MA1101601999999REMMET056METAR ZSSS 040900Z 10004MPS 7000 NSC 16/M02 Q1016 NOSIG=
0109583670999992015010409304+31198+121336FM-15+000399999V0201001N003012200019N007000199+01501-00501999999ADDGF100991999999999999999999MA1101701999999REMMET056METAR ZSSS 040930Z 10003MPS 7000 NSC 15/M05 Q1017 NOSIG=
0109583670999992015010410004+31198+121336FM-15+000399999V0201101N002012200019N008000199+01401-00401999999ADDGF100991999999999999999999MA1101701999999REMMET056METAR ZSSS 041000Z 11002MPS 8000 NSC 14/M04 Q1017 NOSIG=
0080583670999992015010410304+31198+121336FM-15+000399999V0201101N003019999999Y999999999+01301-00201999999ADDMA1101701999999REMMET053METAR ZSSS 041030Z 11003MPS CAVOK 13/M02 Q1017 NOSIG=
0080583670999992015010411004+31198+121336FM-15+000399999V0201101N003019999999Y999999999+01201+00001999999ADDMA1101701999999REMMET053METAR ZSSS 041100Z 11003MPS CAVOK 12/M00 Q1017 NOSIG=
0108583670999992015010411304+31198+121336FM-15+000399999V0201201N003012200019N008000199+01201+00101999999ADDGF100991999999999999999999MA1101701999999REMMET055METAR ZSSS 041130Z 12003MPS 8000 NSC 12/01 Q1017 NOSIG=
0108583670999992015010412004+31198+121336FM-15+000399999V0201101N003012200019N007000199+01101+00101999999ADDGF100991999999999999999999MA1101701999999REMMET055METAR ZSSS 041200Z 11003MPS 7000 NSC 11/01 Q1017 NOSIG=
0108583670999992015010412304+31198+121336FM-15+000399999V0201201N002012200019N007000199+01101+00101999999ADDGF100991999999999999999999MA1101701999999REMMET055METAR ZSSS 041230Z 12002MPS 7000 NSC 11/01 Q1017 NOSIG=
0116583670999992015010413004+31198+121336FM-15+000399999V0201001V002012200019N006000199+01001+00101999999ADDGF100991999999999999999999MA1101701999999REMMET063METAR ZSSS 041300Z 10002MPS 070V130 6000 NSC 10/01 Q1017 NOSIG=
0108583670999992015010413304+31198+121336FM-15+000399999V0201201N002012200019N006000199+01001+00101999999ADDGF100991999999999999999999MA1101701999999REMMET055METAR ZSSS 041330Z 12002MPS 6000 NSC 10/01 Q1017 NOSIG=
0108583670999992015010414004+31198+121336FM-15+000399999V0201201N003012200019N006000199+01001+00101999999ADDGF100991999999999999999999MA1101701999999REMMET055METAR ZSSS 041400Z 12003MPS 6000 NSC 10/01 Q1017 NOSIG=
0108583670999992015010414304+31198+121336FM-15+000399999V0201201N003012200019N006000199+01001+00201999999ADDGF100991999999999999999999MA1101601999999REMMET055METAR ZSSS 041430Z 12003MPS 6000 NSC 10/02 Q1016 NOSIG=
0116583670999992015010415004+31198+121336FM-15+000399999V0201101V002012200019N006000199+01001+00301999999ADDGF100991999999999999999999MA1101601999999REMMET063METAR ZSSS 041500Z 11002MPS 080V140 6000 NSC 10/03 Q1016 NOSIG=
0108583670999992015010415304+31198+121336FM-15+000399999V0201101N002012200019N006000199+00901+00401999999ADDGF100991999999999999999999MA1101601999999REMMET055METAR ZSSS 041530Z 11002MPS 6000 NSC 09/04 Q1016 NOSIG=
0108583670999992015010416004+31198+121336FM-15+000399999V0200901N002012200019N008000199+01001+00401999999ADDGF100991999999999999999999MA1101601999999REMMET055METAR ZSSS 041600Z 09002MPS 8000 NSC 10/04 Q1016 NOSIG=
0079583670999992015010416304+31198+121336FM-15+000399999V0201201N002019999999Y999999999+00901+00401999999ADDMA1101601999999REMMET052METAR ZSSS 041630Z 12002MPS CAVOK 09/04 Q1016 NOSIG=
0079583670999992015010417004+31198+121336FM-15+000399999V0201301N003019999999Y999999999+01001+00401999999ADDMA1101601999999REMMET052METAR ZSSS 041700Z 13003MPS CAVOK 10/04 Q1016 NOSIG=
0079583670999992015010417304+31198+121336FM-15+000399999V0201201N004019999999Y999999999+01001+00401999999ADDMA1101601999999REMMET052METAR ZSSS 041730Z 12004MPS CAVOK 10/04 Q1016 NOSIG=
0079583670999992015010418004+31198+121336FM-15+000399999V0201301N005019999999Y999999999+01001+00601999999ADDMA1101501999999REMMET052METAR ZSSS 041800Z 13005MPS CAVOK 10/06 Q1015 NOSIG=
0079583670999992015010418304+31198+121336FM-15+000399999V0201301N005019999999Y999999999+01001+00701999999ADDMA1101501999999REMMET052METAR ZSSS 041830Z 13005MPS CAVOK 10/07 Q1015 NOSIG=
0079583670999992015010419004+31198+121336FM-15+000399999V0201401N003019999999Y999999999+01001+00801999999ADDMA1101501999999REMMET052METAR ZSSS 041900Z 14003MPS CAVOK 10/08 Q1015 NOSIG=
0108583670999992015010419304+31198+121336FM-15+000399999V0201301N003012200019N007000199+01001+00901999999ADDGF100991999999999999999999MA1101501999999REMMET055METAR ZSSS 041930Z 13003MPS 7000 NSC 10/09 Q1015 NOSIG=
0108583670999992015010420004+31198+121336FM-15+000399999V0201501N003012200019N006000199+01001+00901999999ADDGF100991999999999999999999MA1101401999999REMMET055METAR ZSSS 042000Z 15003MPS 6000 NSC 10/09 Q1014 NOSIG=
0149583670999992015010420304+31198+121336FM-15+000399999V0201401N003019999999N006000199+01101+01001999999ADDGA1021+002441999GE19AGL   +99999+99999GF199999021999002441999999MA1101401999999REMMET058METAR ZSSS 042030Z 14003MPS 6000 FEW008 11/10 Q1014 NOSIG=
0158583670999992015010421004+31198+121336FM-15+000399999V0201501N003010018319N004000199+01101+01001999999ADDGA1071+001831999GE19AGL   +99999+99999GF199999071999001831999999MA1101401999999MW1101REMMET061METAR ZSSS 042100Z 15003MPS 4000 BR BKN006 11/10 Q1014 NOSIG=
0158583670999992015010421304+31198+121336FM-15+000399999V0201401N005010012219N003200199+01201+01101999999ADDGA1071+001221999GE19AGL   +99999+99999GF199999071999001221999999MA1101401999999MW1101REMMET061METAR ZSSS 042130Z 14005MPS 3200 BR BKN004 12/11 Q1014 NOSIG=
0178583670999992015010422004+31198+121336FM-15+000399999V0201501N006010009119N002500199+01201+01101999999ADDGA1071+000911999GE19AGL   +99999+99999GF199999071999000911999999MA1101401999999MW1101REMMET081METAR ZSSS 042200Z 15006MPS 2500 BR BKN003 12/11 Q1014 BECMG TL2330      1200 BR=
0202583670999992015010422304+31198+121336FM-15+000399999V0201501N005010006119N001400199+01201+01101999999ADDED118L99999GA1071+000611999GE19AGL   +99999+99999GF199999071999000611999999MA1101401999999MW1101REMMET094METAR ZSSS 042230Z 15005MPS 1400 R18L/1000V2000N R18R/P2000N BR BKN002      12/11 Q1014 NOSIG=
0218583670999992015010423004+31198+121336FM-15+000399999V0201501N005010006119N001000199+01201+01101999999ADDED118L99999GA1081+000611999GE19AGL   +99999+99999GF199999081999000611999999MA1101401999999MW1101REMMET110METAR ZSSS 042300Z 15005MPS 1000 R18L/1600N R18R/2000N BR OVC002 12/11      Q1014 BECMG TL2330 0500 FG BKN001=
0196583670999992015010423304+31198+121336FM-15+000399999V0201501N005010006119N000900199+01201+01101999999ADDED118L99999GA1081+000611999GE19AGL   +99999+99999GF199999081999000611999999MA1101401999999MW1441REMMET088METAR ZSSS 042330Z 15005MPS 0900 R18L/1200N R18R/1500D FG OVC002 12/11      Q1014 NOSIG=
0215583670999992015010500004+31198+121336FM-15+000399999V0201501N004010006119N001600199+01201+01201999999ADDED118L99999GA1071+000611999GE19AGL   +99999+99999GF199999071999000611999999MA1101401999999MW1101REMMET107METAR ZSSS 050000Z 15004MPS 1600 R18L/1300N R18R/1600N BR BKN002 12/12      Q1014 BECMG TL0130 3000 BKN005=
0196583670999992015010500304+31198+121336FM-15+000399999V0201601N004010009119N002400199+01201+01201999999ADDED118L99999GA1071+000911999GE19AGL   +99999+99999GF199999071999000911999999MA1101401999999MW1101REMMET088METAR ZSSS 050030Z 16004MPS 2400 R18L/1400N R18R/2000U BR BKN003 12/12      Q1014 NOSIG=
0175583670999992015010501004+31198+121336FM-15+000399999V0201501N004019999999N002600199+01301+01301999999ADDGA1021+001521999GE19AGL   +99999+99999GF199999021999001521999999MA1101401999999MW1101REMMET078METAR ZSSS 050100Z 15004MPS 2600 BR FEW005 13/13 Q1014 BECMG TL0200      3000=
0117583670999992015010501304+31198+121336FM-15+000399999V0201601N006012200019N003500199+01501+01101999999ADDGF100991999999999999999999MA1101401999999MW1101REMMET058METAR ZSSS 050130Z 16006MPS 3500 BR NSC 15/11 Q1014 NOSIG=
0108583670999992015010502004+31198+121336FM-15+000399999V0201701N006012200019N007000199+01601+01001999999ADDGF100991999999999999999999MA1101401999999REMMET055METAR ZSSS 050200Z 17006MPS 7000 NSC 16/10 Q1014 NOSIG=
0108583670999992015010502304+31198+121336FM-15+000399999V0201901N005012200019N008000199+01801+00801999999ADDGF100991999999999999999999MA1101301999999REMMET055METAR ZSSS 050230Z 19005MPS 8000 NSC 18/08 Q1013 NOSIG=
0079583670999992015010503004+31198+121336FM-15+000399999V0201901N006019999999Y999999999+01801+00801999999ADDMA1101301999999REMMET052METAR ZSSS 050300Z 19006MPS CAVOK 18/08 Q1013 NOSIG=
0079583670999992015010503304+31198+121336FM-15+000399999V0201901N007019999999Y999999999+01901+00601999999ADDMA1101201999999REMMET052METAR ZSSS 050330Z 19007MPS CAVOK 19/06 Q1012 NOSIG=
0079583670999992015010504004+31198+121336FM-15+000399999V0201901N006019999999Y999999999+02001+00601999999ADDMA1101101999999REMMET052METAR ZSSS 050400Z 19006MPS CAVOK 20/06 Q1011 NOSIG=
0079583670999992015010504304+31198+121336FM-15+000399999V0202101N005019999999Y999999999+01901+00601999999ADDMA1101101999999REMMET052METAR ZSSS 050430Z 21005MPS CAVOK 19/06 Q1011 NOSIG=
0079583670999992015010505004+31198+121336FM-15+000399999V0202201N004019999999Y999999999+01901+00501999999ADDMA1101101999999REMMET052METAR ZSSS 050500Z 22004MPS CAVOK 19/05 Q1011 NOSIG=
0079583670999992015010505304+31198+121336FM-15+000399999V0202001N004019999999Y999999999+01901+00501999999ADDMA1101101999999REMMET052METAR ZSSS 050530Z 20004MPS CAVOK 19/05 Q1011 NOSIG=
0079583670999992015010506004+31198+121336FM-15+000399999V0202101N003019999999Y999999999+01901+00501999999ADDMA1101101999999REMMET052METAR ZSSS 050600Z 21003MPS CAVOK 19/05 Q1011 NOSIG=
0079583670999992015010506304+31198+121336FM-15+000399999V0202101N003019999999Y999999999+01901+00501999999ADDMA1101001999999REMMET052METAR ZSSS 050630Z 21003MPS CAVOK 19/05 Q1010 NOSIG=
0079583670999992015010507004+31198+121336FM-15+000399999V0202301N003019999999Y999999999+01801+00501999999ADDMA1101101999999REMMET052METAR ZSSS 050700Z 23003MPS CAVOK 18/05 Q1011 NOSIG=
0079583670999992015010507304+31198+121336FM-15+000399999V0202401N003019999999Y999999999+01801+00301999999ADDMA1101101999999REMMET052METAR ZSSS 050730Z 24003MPS CAVOK 18/03 Q1011 NOSIG=
0079583670999992015010508004+31198+121336FM-15+000399999V0202401N003019999999Y999999999+01701+00301999999ADDMA1101101999999REMMET052METAR ZSSS 050800Z 24003MPS CAVOK 17/03 Q1011 NOSIG=
0108583670999992015010508304+31198+121336FM-15+000399999V0202701N003012200019N007000199+01701+00401999999ADDGF100991999999999999999999MA1101101999999REMMET055METAR ZSSS 050830Z 27003MPS 7000 NSC 17/04 Q1011 NOSIG=
0108583670999992015010509004+31198+121336FM-15+000399999V0202801N003012200019N006000199+01601+00301999999ADDGF100991999999999999999999MA1101101999999REMMET055METAR ZSSS 050900Z 28003MPS 6000 NSC 16/03 Q1011 NOSIG=
0108583670999992015010509304+31198+121336FM-15+000399999V0202901N002012200019N006000199+01601+00301999999ADDGF100991999999999999999999MA1101201999999REMMET055METAR ZSSS 050930Z 29002MPS 6000 NSC 16/03 Q1012 NOSIG=
0108583670999992015010510004+31198+121336FM-15+000399999V0202901N003012200019N006000199+01601+00301999999ADDGF100991999999999999999999MA1101201999999REMMET055METAR ZSSS 051000Z 29003MPS 6000 NSC 16/03 Q1012 NOSIG=
0108583670999992015010510304+31198+121336FM-15+000399999V0202901N003012200019N006000199+01601+00401999999ADDGF100991999999999999999999MA1101201999999REMMET055METAR ZSSS 051030Z 29003MPS 6000 NSC 16/04 Q1012 NOSIG=
0116583670999992015010511004+31198+121336FM-15+000399999V0202701V002012200019N006000199+01601+00401999999ADDGF100991999999999999999999MA1101201999999REMMET063METAR ZSSS 051100Z 27002MPS 200V340 6000 NSC 16/04 Q1012 NOSIG=
0149583670999992015010511304+31198+121336FM-15+000399999V0202901N002010121919N006000199+01501+00401999999ADDGA1081+012191999GE19AGL   +99999+99999GF199999081999012191999999MA1101301999999REMMET058METAR ZSSS 051130Z 29002MPS 6000 OVC040 15/04 Q1013 NOSIG=
0149583670999992015010512004+31198+121336FM-15+000399999V0209999V001010121919N006000199+01501+00401999999ADDGA1081+012191999GE19AGL   +99999+99999GF199999081999012191999999MA1101301999999REMMET058METAR ZSSS 051200Z VRB01MPS 6000 OVC040 15/04 Q1013 NOSIG=
0149583670999992015010512304+31198+121336FM-15+000399999V0202401N002010121919N006000199+01501+00501999999ADDGA1081+012191999GE19AGL   +99999+99999GF199999081999012191999999MA1101301999999REMMET058METAR ZSSS 051230Z 24002MPS 6000 OVC040 15/05 Q1013 NOSIG=
0149583670999992015010513004+31198+121336FM-15+000399999V0202701N003010121919N006000199+01501+00801999999ADDGA1081+012191999GE19AGL   +99999+99999GF199999081999012191999999MA1101301999999REMMET058METAR ZSSS 051300Z 27003MPS 6000 OVC040 15/08 Q1013 NOSIG=
0157583670999992015010513304+31198+121336FM-15+000399999V0202601V003010121919N006000199+01501+00701999999ADDGA1081+012191999GE19AGL   +99999+99999GF199999081999012191999999MA1101301999999REMMET066METAR ZSSS 051330Z 26003MPS 230V300 6000 OVC040 15/07 Q1013 NOSIG=
0108583670999992015010514004+31198+121336FM-15+000399999V0202801N004012200019N006000199+01501+00801999999ADDGF100991999999999999999999MA1101401999999REMMET055METAR ZSSS 051400Z 28004MPS 6000 NSC 15/08 Q1014 NOSIG=
0118583670999992015010514304+31198+121336FM-15+000399999V0202901N006012200019N006000199+01401+00801999999ADDGF100991999999999999999999MA1101401999999MW1611REMMET059METAR ZSSS 051430Z 29006MPS 6000 -RA NSC 14/08 Q1014 NOSIG=
0108583670999992015010515004+31198+121336FM-15+000399999V0202901N005012200019N006000199+01401+00801999999ADDGF100991999999999999999999MA1101401999999REMMET055METAR ZSSS 051500Z 29005MPS 6000 NSC 14/08 Q1014 NOSIG=
0116583670999992015010515304+31198+121336FM-15+000399999V0203001V005012200019N006000199+01401+00701999999ADDGF100991999999999999999999MA1101501999999REMMET063METAR ZSSS 051530Z 30005MPS 270V330 6000 NSC 14/07 Q1015 NOSIG=
0125583670999992015010516004+31198+121336FM-15+000399999V0203101V007012200019N005000199+01301+00501999999ADDGF100991999999999999999999MA1101501999999MW1051REMMET066METAR ZSSS 051600Z 31007MPS 290V350 5000 HZ NSC 13/05 Q1015 NOSIG=
0117583670999992015010516304+31198+121336FM-15+000399999V0203301N007012200019N003500199+01201+00501999999ADDGF100991999999999999999999MA1101601999999MW1051REMMET058METAR ZSSS 051630Z 33007MPS 3500 HZ NSC 12/05 Q1016 NOSIG=
0117583670999992015010517004+31198+121336FM-15+000399999V0203201N006012200019N003500199+01201+00501999999ADDGF100991999999999999999999MA1101601999999MW1051REMMET058METAR ZSSS 051700Z 32006MPS 3500 HZ NSC 12/05 Q1016 NOSIG=
0117583670999992015010517304+31198+121336FM-15+000399999V0203201N005012200019N003500199+01101+00401999999ADDGF100991999999999999999999MA1101701999999MW1051REMMET058METAR ZSSS 051730Z 32005MPS 3500 HZ NSC 11/04 Q1017 NOSIG=
0158583670999992015010518004+31198+121336FM-15+000399999V0203201N007019999999N003000199+01101+00401999999ADDGA1021+006101999GE19AGL   +99999+99999GF199999021999006101999999MA1101701999999MW1051REMMET061METAR ZSSS 051800Z 32007MPS 3000 HZ FEW020 11/04 Q1017 NOSIG=
0158583670999992015010518304+31198+121336FM-15+000399999V0203301N008019999999N003000199+01001+00501999999ADDGA1021+006101999GE19AGL   +99999+99999GF199999021999006101999999MA1101701999999MW1051REMMET061METAR ZSSS 051830Z 33008MPS 3000 HZ FEW020 10/05 Q1017 NOSIG=
0169583670999992015010519004+31198+121336FM-15+000399999V0203401N008010091419N003000199+01001+00501999999ADDGA1071+009141999GE19AGL   +99999+99999GF199999071999009141999999MA1101701999999MW1051OC101301REMMET064METAR ZSSS 051900Z 34008G13MPS 3000 HZ BKN030 10/05 Q1017 NOSIG=
0158583670999992015010519304+31198+121336FM-15+000399999V0203301N007010091419N003000199+01001+00601999999ADDGA1071+009141999GE19AGL   +99999+99999GF199999071999009141999999MA1101801999999MW1101REMMET061METAR ZSSS 051930Z 33007MPS 3000 BR BKN030 10/06 Q1018 NOSIG=
0158583670999992015010520004+31198+121336FM-15+000399999V0203401N008010091419N003000199+00901+00701999999ADDGA1071+009141999GE19AGL   +99999+99999GF199999071999009141999999MA1101801999999MW1101REMMET061METAR ZSSS 052000Z 34008MPS 3000 BR BKN030 09/07 Q1018 NOSIG=
0230583670999992015010520304+31198+121336FM-15+000399999V0203501N007010091419N002600199+00901+00701999999ADDED136R99999GA1041+003051999GA2081+009141999GE19AGL   +99999+99999GF199999041999003051999999MA1101801999999MW1101REMMET106METAR ZSSS 052030Z 35007MPS 2600 R36R/1200VP2000N R36L/0900V1700N BR      SCT010 OVC030 09/07 Q1018 NOSIG=
0231583670999992015010521004+31198+121336FM-15+000399999V0203601N008010091419N002600199+00901+00601999999ADDED136R99999GA1041+003051999GA2081+009141999GE19AGL   +99999+99999GF199999041999003051999999MA1101901999999MW1101REMMET107METAR ZSSS 052100Z 36008MPS 2600 R36R/1300VP2000N R36L/1000VP2000N      BR SCT010 OVC030 09/06 Q1019 NOSIG=
0192583670999992015010521304+31198+121336FM-15+000399999V0203601N008010091419N002600199+00901+00501999999ADDGA1041+003961999GA2081+009141999GE19AGL   +99999+99999GF199999041999003961999999MA1101901999999MW1101OC101301REMMET071METAR ZSSS 052130Z 36008G13MPS 2600 BR SCT013 OVC030 09/05 Q1019 NOSIG=
0209583670999992015010522004+31198+121336FM-15+000399999V0203501N008010091419N002600199+00901+00501999999ADDGA1041+003961999GA2081+009141999GE19AGL   +99999+99999GF199999041999003961999999MA1102001999999MW1101OC101301REMMET088METAR ZSSS 052200Z 35008G13MPS 2600 BR SCT013 OVC030 09/05 Q1020 BECMG      TL2330 3000=
0158583670999992015010522304+31198+121336FM-15+000399999V0203601N008010100619N002800199+00901+00501999999ADDGA1081+010061999GE19AGL   +99999+99999GF199999081999010061999999MA1102001999999MW1101REMMET061METAR ZSSS 052230Z 36008MPS 2800 BR OVC033 09/05 Q1020 NOSIG=
0198583670999992015010523004+31198+121336FM-15+000399999V0203601N008010100619N002800199+00901+00501999999ADDGA1021+004881999GA2081+010061999GE19AGL   +99999+99999GF199999021999004881999999MA1102101999999MW1101REMMET085METAR ZSSS 052300Z 36008MPS 2800 BR FEW016 OVC033 09/05 Q1021 BECMG      TL0030 3000=
0181583670999992015010523304+31198+121336FM-15+000399999V0203601N008010045719N003600199+00801+00501999999ADDGA1071+004571999GA2081+010061999GE19AGL   +99999+99999GF199999071999004571999999MA1102201999999MW1101REMMET068METAR ZSSS 052330Z 36008MPS 3600 BR BKN015 OVC033 08/05 Q1022 NOSIG=
0211583670999992015010600004+31198+121336FM-15+000399999V0203501N008010045719N004000199+00801+00501999999ADDGA1071+004571999GA2081+010061999GE19AGL   +99999+99999GF199999071999004571999999MA1102201999999MW1101OC101301REMMET090METAR ZSSS 060000Z 35008G13MPS 4000 BR BKN015 OVC033 08/05 Q1022 BECMG      TL0100 BKN013=
0172583670999992015010600304+31198+121336FM-15+000399999V0203601N008010045719N006000199+00801+00401999999ADDGA1071+004571999GA2081+010061999GE19AGL   +99999+99999GF199999071999004571999999MA1102301999999REMMET065METAR ZSSS 060030Z 36008MPS 6000 BKN015 OVC033 08/04 Q1023 NOSIG=
0172583670999992015010601004+31198+121336FM-15+000399999V0200101N007010045719N006000199+00801+00401999999ADDGA1071+004571999GA2081+010061999GE19AGL   +99999+99999GF199999071999004571999999MA1102401999999REMMET065METAR ZSSS 060100Z 01007MPS 6000 BKN015 OVC033 08/04 Q1024 NOSIG=
0172583670999992015010601304+31198+121336FM-15+000399999V0200101N008010045719N006000199+00701+00401999999ADDGA1071+004571999GA2081+010061999GE19AGL   +99999+99999GF199999071999004571999999MA1102301999999REMMET065METAR ZSSS 060130Z 01008MPS 6000 BKN015 OVC033 07/04 Q1023 NOSIG=
0217583670999992015010602004+31198+121336FM-15+000399999V0200101N007010045719N005000199+00701+00401999999ADDGA1071+004571999GA2081+010061999GE19AGL   +99999+99999GF199999071999004571999999MA1102401999999MW1101MW2611REMMET098METAR ZSSS 060200Z 01007MPS 5000 -RA BR BKN015 OVC033 07/04 Q1024 BECMG      TL0310 BKN013 OVC033=
0172583670999992015010602304+31198+121336FM-15+000399999V0200201N007010045719N006000199+00601+00301999999ADDGA1071+004571999GA2081+010061999GE19AGL   +99999+99999GF199999071999004571999999MA1102401999999REMMET065METAR ZSSS 060230Z 02007MPS 6000 BKN015 OVC033 06/03 Q1024 NOSIG=
0172583670999992015010603004+31198+121336FM-15+000399999V0200101N008010048819N009999199+00701+00201999999ADDGA1071+004881999GA2081+012191999GE19AGL   +99999+99999GF199999071999004881999999MA1102301999999REMMET065METAR ZSSS 060300Z 01008MPS 9999 BKN016 OVC040 07/02 Q1023 NOSIG=
0149583670999992015010603304+31198+121336FM-15+000399999V0203601N008010061019N009999199+00701+00101999999ADDGA1071+006101999GE19AGL   +99999+99999GF199999071999006101999999MA1102301999999REMMET058METAR ZSSS 060330Z 36008MPS 9999 BKN020 07/01 Q1023 NOSIG=
0150583670999992015010604004+31198+121336FM-15+000399999V0203601N008010070119N009999199+00701+00001999999ADDGA1071+007011999GE19AGL   +99999+99999GF199999071999007011999999MA1102301999999REMMET059METAR ZSSS 060400Z 36008MPS 9999 BKN023 07/M00 Q1023 NOSIG=
0150583670999992015010604304+31198+121336FM-15+000399999V0200101N008010079219N009999199+00701-00101999999ADDGA1071+007921999GE19AGL   +99999+99999GF199999071999007921999999MA1102301999999REMMET059METAR ZSSS 060430Z 01008MPS 9999 BKN026 07/M01 Q1023 NOSIG=
0150583670999992015010605004+31198+121336FM-15+000399999V0200201N008010091419N009999199+00701-00101999999ADDGA1071+009141999GE19AGL   +99999+99999GF199999071999009141999999MA1102201999999REMMET059METAR ZSSS 060500Z 02008MPS 9999 BKN030 07/M01 Q1022 NOSIG=
0158583670999992015010605304+31198+121336FM-15+000399999V0200101V009010091419N009999199+00701-00101999999ADDGA1071+009141999GE19AGL   +99999+99999GF199999071999009141999999MA1102201999999REMMET067METAR ZSSS 060530Z 01009MPS 350V050 9999 BKN030 07/M01 Q1022 NOSIG=
0150583670999992015010606004+31198+121336FM-15+000399999V0200101N008010091419N009999199+00601+00001999999ADDGA1071+009141999GE19AGL   +99999+99999GF199999071999009141999999MA1102201999999REMMET059METAR ZSSS 060600Z 01008MPS 9999 BKN030 06/M00 Q1022 NOSIG=
0150583670999992015010606304+31198+121336FM-15+000399999V0200101N008010091419N009999199+00601+00001999999ADDGA1071+009141999GE19AGL   +99999+99999GF199999071999009141999999MA1102201999999REMMET059METAR ZSSS 060630Z 01008MPS 9999 BKN030 06/M00 Q1022 NOSIG=
0150583670999992015010607004+31198+121336FM-15+000399999V0200101N007010091419N009999199+00601-00101999999ADDGA1071+009141999GE19AGL   +99999+99999GF199999071999009141999999MA1102301999999REMMET059METAR ZSSS 060700Z 01007MPS 9999 BKN030 06/M01 Q1023 NOSIG=
0150583670999992015010607304+31198+121336FM-15+000399999V0203601N007010091419N009999199+00601-00101999999ADDGA1071+009141999GE19AGL   +99999+99999GF199999071999009141999999MA1102301999999REMMET059METAR ZSSS 060730Z 36007MPS 9999 BKN030 06/M01 Q1023 NOSIG=
0150583670999992015010608004+31198+121336FM-15+000399999V0200201N008010091419N009999199+00501-00101999999ADDGA1071+009141999GE19AGL   +99999+99999GF199999071999009141999999MA1102301999999REMMET059METAR ZSSS 060800Z 02008MPS 9999 BKN030 05/M01 Q1023 NOSIG=
0123583670999992015010608304+31198+121336FM-15+000399999V0200101N008019999999N009999199+99999+99999999999ADDMA1102305999999MW1615MW2795REMMET065METAR ZSSS 060830Z 01008MPS 9999 -PLRA BKN030 05/M01 Q1023 NOSIG=EQDD01      0ADE735
0123583670999992015010609004+31198+121336FM-15+000399999V0200201N006019999999N009999199+99999+99999999999ADDMA1102405999999MW1615MW2795REMMET065METAR ZSSS 060900Z 02006MPS 9999 -PLRA BKN030 04/M00 Q1024 NOSIG=EQDD01      0ADE735
0122583670999992015010609304+31198+121336FM-15+000399999V0200101N004019999999N009999199+99999+99999999999ADDMA1102405999999MW1615MW2795REMMET064METAR ZSSS 060930Z 01004MPS 9999 -RAPL BKN030 03/01 Q1024 NOSIG=EQDD01      0ADE735
0159583670999992015010610004+31198+121336FM-15+000399999V0203601N004010091419N009999199+00301+00101999999ADDGA1071+009141999GE19AGL   +99999+99999GF199999071999009141999999MA1102401999999MW1611REMMET062METAR ZSSS 061000Z 36004MPS 9999 -RA BKN030 03/01 Q1024 NOSIG=
0159583670999992015010610304+31198+121336FM-15+000399999V0203501N004010091419N009999199+00301+00101999999ADDGA1071+009141999GE19AGL   +99999+99999GF199999071999009141999999MA1102501999999MW1611REMMET062METAR ZSSS 061030Z 35004MPS 9999 -RA BKN030 03/01 Q1025 NOSIG=
0159583670999992015010611004+31198+121336FM-15+000399999V0203501N004010091419N009999199+00301+00101999999ADDGA1071+009141999GE19AGL   +99999+99999GF199999071999009141999999MA1102501999999MW1611REMMET062METAR ZSSS 061100Z 35004MPS 9999 -RA BKN030 03/01 Q1025 NOSIG=
0159583670999992015010611304+31198+121336FM-15+000399999V0203501N005010091419N009999199+00301+00001999999ADDGA1071+009141999GE19AGL   +99999+99999GF199999071999009141999999MA1102501999999MW1611REMMET062METAR ZSSS 061130Z 35005MPS 9999 -RA BKN030 03/00 Q1025 NOSIG=
0160583670999992015010612004+31198+121336FM-15+000399999V0203501N006010091419N009999199+00301+00001999999ADDGA1071+009141999GE19AGL   +99999+99999GF199999071999009141999999MA1102501999999MW1611REMMET063METAR ZSSS 061200Z 35006MPS 9999 -RA BKN030 03/M00 Q1025 NOSIG=
0159583670999992015010612304+31198+121336FM-15+000399999V0203501N006010091419N009999199+00301+00001999999ADDGA1071+009141999GE19AGL   +99999+99999GF199999071999009141999999MA1102501999999MW1611REMMET062METAR ZSSS 061230Z 35006MPS 9999 -RA BKN030 03/00 Q1025 NOSIG=
0150583670999992015010613004+31198+121336FM-15+000399999V0203501N007019999999N009999199+00301+00001999999ADDGA1041+009141999GE19AGL   +99999+99999GF199999041999009141999999MA1102601999999REMMET059METAR ZSSS 061300Z 35007MPS 9999 SCT030 03/M00 Q1026 NOSIG=
0080583670999992015010613304+31198+121336FM-15+000399999V0203501N004019999999Y999999999+00301+00001999999ADDMA1102601999999REMMET053METAR ZSSS 061330Z 35004MPS CAVOK 03/M00 Q1026 NOSIG=
0080583670999992015010614004+31198+121336FM-15+000399999V0203501N005019999999Y999999999+00301+00001999999ADDMA1102601999999REMMET053METAR ZSSS 061400Z 35005MPS CAVOK 03/M00 Q1026 NOSIG=
0080583670999992015010614304+31198+121336FM-15+000399999V0203601N004019999999Y999999999+00301+00001999999ADDMA1102601999999REMMET053METAR ZSSS 061430Z 36004MPS CAVOK 03/M00 Q1026 NOSIG=
0080583670999992015010615004+31198+121336FM-15+000399999V0203501N005019999999Y999999999+00301-00101999999ADDMA1102601999999REMMET053METAR ZSSS 061500Z 35005MPS CAVOK 03/M01 Q1026 NOSIG=
0080583670999992015010615304+31198+121336FM-15+000399999V0203501N005019999999Y999999999+00301-00101999999ADDMA1102601999999REMMET053METAR ZSSS 061530Z 35005MPS CAVOK 03/M01 Q1026 NOSIG=
0080583670999992015010616004+31198+121336FM-15+000399999V0203601N006019999999Y999999999+00301-00101999999ADDMA1102501999999REMMET053METAR ZSSS 061600Z 36006MPS CAVOK 03/M01 Q1025 NOSIG=
0080583670999992015010616304+31198+121336FM-15+000399999V0203501N004019999999Y999999999+00301-00101999999ADDMA1102601999999REMMET053METAR ZSSS 061630Z 35004MPS CAVOK 03/M01 Q1026 NOSIG=
0080583670999992015010617004+31198+121336FM-15+000399999V0203501N005019999999Y999999999+00301-00101999999ADDMA1102501999999REMMET053METAR ZSSS 061700Z 35005MPS CAVOK 03/M01 Q1025 NOSIG=
0080583670999992015010617304+31198+121336FM-15+000399999V0203501N004019999999Y999999999+00301-00201999999ADDMA1102501999999REMMET053METAR ZSSS 061730Z 35004MPS CAVOK 03/M02 Q1025 NOSIG=
0080583670999992015010618004+31198+121336FM-15+000399999V0203501N006019999999Y999999999+00301-00201999999ADDMA1102501999999REMMET053METAR ZSSS 061800Z 35006MPS CAVOK 03/M02 Q1025 NOSIG=
0150583670999992015010618304+31198+121336FM-15+000399999V0203501N004019999999N009999199+00301-00201999999ADDGA1041+009141999GE19AGL   +99999+99999GF199999041999009141999999MA1102601999999REMMET059METAR ZSSS 061830Z 35004MPS 9999 SCT030 03/M02 Q1026 NOSIG=
0158583670999992015010619004+31198+121336FM-15+000399999V0203501V003019999999N009999199+00301-00201999999ADDGA1041+009141999GE19AGL   +99999+99999GF199999041999009141999999MA1102601999999REMMET067METAR ZSSS 061900Z 35003MPS 310V010 9999 SCT030 03/M02 Q1026 NOSIG=
0150583670999992015010619304+31198+121336FM-15+000399999V0203301N005019999999N009999199+00301-00201999999ADDGA1041+009141999GE19AGL   +99999+99999GF199999041999009141999999MA1102601999999REMMET059METAR ZSSS 061930Z 33005MPS 9999 SCT030 03/M02 Q1026 NOSIG=
0080583670999992015010620004+31198+121336FM-15+000399999V0203401N004019999999Y999999999+00301-00201999999ADDMA1102501999999REMMET053METAR ZSSS 062000Z 34004MPS CAVOK 03/M02 Q1025 NOSIG=
0080583670999992015010620304+31198+121336FM-15+000399999V0203401N005019999999Y999999999+00301-00201999999ADDMA1102601999999REMMET053METAR ZSSS 062030Z 34005MPS CAVOK 03/M02 Q1026 NOSIG=
0080583670999992015010621004+31198+121336FM-15+000399999V0203301N005019999999Y999999999+00301-00201999999ADDMA1102601999999REMMET053METAR ZSSS 062100Z 33005MPS CAVOK 03/M02 Q1026 NOSIG=
0080583670999992015010621304+31198+121336FM-15+000399999V0203301N004019999999Y999999999+00301-00201999999ADDMA1102601999999REMMET053METAR ZSSS 062130Z 33004MPS CAVOK 03/M02 Q1026 NOSIG=
0080583670999992015010622004+31198+121336FM-15+000399999V0203301N004019999999Y999999999+00301-00201999999ADDMA1102701999999REMMET053METAR ZSSS 062200Z 33004MPS CAVOK 03/M02 Q1027 NOSIG=
0080583670999992015010622304+31198+121336FM-15+000399999V0203401N005019999999Y999999999+00301-00201999999ADDMA1102701999999REMMET053METAR ZSSS 062230Z 34005MPS CAVOK 03/M02 Q1027 NOSIG=
0080583670999992015010623004+31198+121336FM-15+000399999V0203401N005019999999Y999999999+00301-00301999999ADDMA1102701999999REMMET053METAR ZSSS 062300Z 34005MPS CAVOK 03/M03 Q1027 NOSIG=
0080583670999992015010623304+31198+121336FM-15+000399999V0203301N005019999999Y999999999+00301-00301999999ADDMA1102701999999REMMET053METAR ZSSS 062330Z 33005MPS CAVOK 03/M03 Q1027 NOSIG=
0080583670999992015010700004+31198+121336FM-15+000399999V0203201N005019999999Y999999999+00301-00301999999ADDMA1102801999999REMMET053METAR ZSSS 070000Z 32005MPS CAVOK 03/M03 Q1028 NOSIG=
0080583670999992015010700304+31198+121336FM-15+000399999V0203301N005019999999Y999999999+00401-00301999999ADDMA1102801999999REMMET053METAR ZSSS 070030Z 33005MPS CAVOK 04/M03 Q1028 NOSIG=
0080583670999992015010701004+31198+121336FM-15+000399999V0203401N005019999999Y999999999+00401-00301999999ADDMA1102801999999REMMET053METAR ZSSS 070100Z 34005MPS CAVOK 04/M03 Q1028 NOSIG=
0088583670999992015010701304+31198+121336FM-15+000399999V0203301V004019999999Y999999999+00401-00301999999ADDMA1102801999999REMMET061METAR ZSSS 070130Z 33004MPS 300V360 CAVOK 04/M03 Q1028 NOSIG=
0080583670999992015010702004+31198+121336FM-15+000399999V0203001N005019999999Y999999999+00501-00201999999ADDMA1102801999999REMMET053METAR ZSSS 070200Z 30005MPS CAVOK 05/M02 Q1028 NOSIG=
0150583670999992015010702304+31198+121336FM-15+000399999V0203201N006019999999N009999199+00501-00301999999ADDGA1041+010061999GE19AGL   +99999+99999GF199999041999010061999999MA1102801999999REMMET059METAR ZSSS 070230Z 32006MPS 9999 SCT033 05/M03 Q1028 NOSIG=
0158583670999992015010703004+31198+121336FM-15+000399999V0203201V006019999999N009999199+00601-00401999999ADDGA1041+010061999GE19AGL   +99999+99999GF199999041999010061999999MA1102801999999REMMET067METAR ZSSS 070300Z 32006MPS 280V350 9999 SCT033 06/M04 Q1028 NOSIG=
0158583670999992015010703304+31198+121336FM-15+000399999V0203201V006019999999N009999199+00601-00401999999ADDGA1041+010061999GE19AGL   +99999+99999GF199999041999010061999999MA1102801999999REMMET067METAR ZSSS 070330Z 32006MPS 290V350 9999 SCT033 06/M04 Q1028 NOSIG=
0150583670999992015010704004+31198+121336FM-15+000399999V0203301N005019999999N009999199+00601-00401999999ADDGA1021+012191999GE19AGL   +99999+99999GF199999021999012191999999MA1102701999999REMMET059METAR ZSSS 070400Z 33005MPS 9999 FEW040 06/M04 Q1027 NOSIG=
0158583670999992015010704304+31198+121336FM-15+000399999V0203001V006019999999N009999199+00701-00401999999ADDGA1021+012191999GE19AGL   +99999+99999GF199999021999012191999999MA1102701999999REMMET067METAR ZSSS 070430Z 30006MPS 240V330 9999 FEW040 07/M04 Q1027 NOSIG=
0088583670999992015010705004+31198+121336FM-15+000399999V0203301V006019999999Y999999999+00701-00501999999ADDMA1102701999999REMMET061METAR ZSSS 070500Z 33006MPS 290V360 CAVOK 07/M05 Q1027 NOSIG=
0088583670999992015010705304+31198+121336FM-15+000399999V0203501V006019999999Y999999999+00701-00501999999ADDMA1102701999999REMMET061METAR ZSSS 070530Z 35006MPS 310V020 CAVOK 07/M05 Q1027 NOSIG=
0080583670999992015010706004+31198+121336FM-15+000399999V0203301N006019999999Y999999999+00701-00501999999ADDMA1102701999999REMMET053METAR ZSSS 070600Z 33006MPS CAVOK 07/M05 Q1027 NOSIG=
0080583670999992015010706304+31198+121336FM-15+000399999V0203501N007019999999Y999999999+00701-00501999999ADDMA1102701999999REMMET053METAR ZSSS 070630Z 35007MPS CAVOK 07/M05 Q1027 NOSIG=
0080583670999992015010707004+31198+121336FM-15+000399999V0203201N005019999999Y999999999+00701-00501999999ADDMA1102701999999REMMET053METAR ZSSS 070700Z 32005MPS CAVOK 07/M05 Q1027 NOSIG=
0080583670999992015010707304+31198+121336FM-15+000399999V0203401N006019999999Y999999999+00701-00501999999ADDMA1102801999999REMMET053METAR ZSSS 070730Z 34006MPS CAVOK 07/M05 Q1028 NOSIG=
0088583670999992015010708004+31198+121336FM-15+000399999V0203401V005019999999Y999999999+00701-00501999999ADDMA1102801999999REMMET061METAR ZSSS 070800Z 34005MPS 310V010 CAVOK 07/M05 Q1028 NOSIG=
0088583670999992015010708304+31198+121336FM-15+000399999V0203301V005019999999Y999999999+00601-00501999999ADDMA1102901999999REMMET061METAR ZSSS 070830Z 33005MPS 270V350 CAVOK 06/M05 Q1029 NOSIG=
0088583670999992015010709004+31198+121336FM-15+000399999V0203501V005019999999Y999999999+00601-00501999999ADDMA1102901999999REMMET061METAR ZSSS 070900Z 35005MPS 310V010 CAVOK 06/M05 Q1029 NOSIG=
0080583670999992015010709304+31198+121336FM-15+000399999V0203201N005019999999Y999999999+00501-00501999999ADDMA1102901999999REMMET053METAR ZSSS 070930Z 32005MPS CAVOK 05/M05 Q1029 NOSIG=
0080583670999992015010710004+31198+121336FM-15+000399999V0203301N005019999999Y999999999+00501-00501999999ADDMA1103001999999REMMET053METAR ZSSS 071000Z 33005MPS CAVOK 05/M05 Q1030 NOSIG=
0080583670999992015010710304+31198+121336FM-15+000399999V0203201N004019999999Y999999999+00501-00501999999ADDMA1103001999999REMMET053METAR ZSSS 071030Z 32004MPS CAVOK 05/M05 Q1030 NOSIG=
0080583670999992015010711004+31198+121336FM-15+000399999V0203301N005019999999Y999999999+00501-00501999999ADDMA1103001999999REMMET053METAR ZSSS 071100Z 33005MPS CAVOK 05/M05 Q1030 NOSIG=
0080583670999992015010711304+31198+121336FM-15+000399999V0203301N004019999999Y999999999+00401-00501999999ADDMA1103001999999REMMET053METAR ZSSS 071130Z 33004MPS CAVOK 04/M05 Q1030 NOSIG=
0080583670999992015010712004+31198+121336FM-15+000399999V0203201N005019999999Y999999999+00501-00501999999ADDMA1103001999999REMMET053METAR ZSSS 071200Z 32005MPS CAVOK 05/M05 Q1030 NOSIG=
0080583670999992015010712304+31198+121336FM-15+000399999V0203401N005019999999Y999999999+00401-00501999999ADDMA1103001999999REMMET053METAR ZSSS 071230Z 34005MPS CAVOK 04/M05 Q1030 NOSIG=
0080583670999992015010713004+31198+121336FM-15+000399999V0203601N003019999999Y999999999+00301-00401999999ADDMA1103101999999REMMET053METAR ZSSS 071300Z 36003MPS CAVOK 03/M04 Q1031 NOSIG=
0080583670999992015010713304+31198+121336FM-15+000399999V0203601N003019999999Y999999999+00301-00301999999ADDMA1103101999999REMMET053METAR ZSSS 071330Z 36003MPS CAVOK 03/M03 Q1031 NOSIG=
0080583670999992015010714004+31198+121336FM-15+000399999V0200101N004019999999Y999999999+00201-00301999999ADDMA1103101999999REMMET053METAR ZSSS 071400Z 01004MPS CAVOK 02/M03 Q1031 NOSIG=
0080583670999992015010714304+31198+121336FM-15+000399999V0200101N003019999999Y999999999+00201-00301999999ADDMA1103101999999REMMET053METAR ZSSS 071430Z 01003MPS CAVOK 02/M03 Q1031 NOSIG=
0080583670999992015010715004+31198+121336FM-15+000399999V0200101N003019999999Y999999999+00101-00301999999ADDMA1103101999999REMMET053METAR ZSSS 071500Z 01003MPS CAVOK 01/M03 Q1031 NOSIG=
0080583670999992015010715304+31198+121336FM-15+000399999V0203501N003019999999Y999999999+00101-00301999999ADDMA1103101999999REMMET053METAR ZSSS 071530Z 35003MPS CAVOK 01/M03 Q1031 NOSIG=
0080583670999992015010716004+31198+121336FM-15+000399999V0203601N003019999999Y999999999+00101-00301999999ADDMA1103101999999REMMET053METAR ZSSS 071600Z 36003MPS CAVOK 01/M03 Q1031 NOSIG=
0080583670999992015010716304+31198+121336FM-15+000399999V0203401N002019999999Y999999999+00101-00301999999ADDMA1103101999999REMMET053METAR ZSSS 071630Z 34002MPS CAVOK 01/M03 Q1031 NOSIG=
0080583670999992015010717004+31198+121336FM-15+000399999V0203401N003019999999Y999999999+00101-00301999999ADDMA1103101999999REMMET053METAR ZSSS 071700Z 34003MPS CAVOK 01/M03 Q1031 NOSIG=
0080583670999992015010717304+31198+121336FM-15+000399999V0203401N002019999999Y999999999+00201-00301999999ADDMA1103101999999REMMET053METAR ZSSS 071730Z 34002MPS CAVOK 02/M03 Q1031 NOSIG=
0080583670999992015010718004+31198+121336FM-15+000399999V0203201N003019999999Y999999999+00201-00301999999ADDMA1103101999999REMMET053METAR ZSSS 071800Z 32003MPS CAVOK 02/M03 Q1031 NOSIG=
0080583670999992015010718304+31198+121336FM-15+000399999V0203201N003019999999Y999999999+00201-00301999999ADDMA1103201999999REMMET053METAR ZSSS 071830Z 32003MPS CAVOK 02/M03 Q1032 NOSIG=
0088583670999992015010719004+31198+121336FM-15+000399999V0202901V002019999999Y999999999+00101-00301999999ADDMA1103201999999REMMET061METAR ZSSS 071900Z 29002MPS 270V330 CAVOK 01/M03 Q1032 NOSIG=
0080583670999992015010719304+31198+121336FM-15+000399999V0203101N003019999999Y999999999+00101-00301999999ADDMA1103201999999REMMET053METAR ZSSS 071930Z 31003MPS CAVOK 01/M03 Q1032 NOSIG=
0080583670999992015010720004+31198+121336FM-15+000399999V0203201N003019999999Y999999999+00101-00301999999ADDMA1103201999999REMMET053METAR ZSSS 072000Z 32003MPS CAVOK 01/M03 Q1032 NOSIG=
0080583670999992015010720304+31198+121336FM-15+000399999V0203201N003019999999Y999999999+00101-00301999999ADDMA1103201999999REMMET053METAR ZSSS 072030Z 32003MPS CAVOK 01/M03 Q1032 NOSIG=
0080583670999992015010721004+31198+121336FM-15+000399999V0203201N003019999999Y999999999+00101-00301999999ADDMA1103201999999REMMET053METAR ZSSS 072100Z 32003MPS CAVOK 01/M03 Q1032 NOSIG=
0080583670999992015010721304+31198+121336FM-15+000399999V0203301N003019999999Y999999999+00101-00301999999ADDMA1103201999999REMMET053METAR ZSSS 072130Z 33003MPS CAVOK 01/M03 Q1032 NOSIG=
0080583670999992015010722004+31198+121336FM-15+000399999V0202901N003019999999Y999999999+00101-00301999999ADDMA1103301999999REMMET053METAR ZSSS 072200Z 29003MPS CAVOK 01/M03 Q1033 NOSIG=
0088583670999992015010722304+31198+121336FM-15+000399999V0202701V002019999999Y999999999+00101-00301999999ADDMA1103301999999REMMET061METAR ZSSS 072230Z 27002MPS 240V300 CAVOK 01/M03 Q1033 NOSIG=
0109583670999992015010723004+31198+121336FM-15+000399999V0203001N003012200019N007000199+00101-00301999999ADDGF100991999999999999999999MA1103301999999REMMET056METAR ZSSS 072300Z 30003MPS 7000 NSC 01/M03 Q1033 NOSIG=
0117583670999992015010723304+31198+121336FM-15+000399999V0202701V002012200019N007000199+00101-00301999999ADDGF100991999999999999999999MA1103301999999REMMET064METAR ZSSS 072330Z 27002MPS 240V300 7000 NSC 01/M03 Q1033 NOSIG=
0117583670999992015010800004+31198+121336FM-15+000399999V0203201V003012200019N007000199+00201-00301999999ADDGF100991999999999999999999MA1103301999999REMMET064METAR ZSSS 080000Z 32003MPS 280V340 7000 NSC 02/M03 Q1033 NOSIG=
0117583670999992015010800304+31198+121336FM-15+000399999V0203101V003012200019N007000199+00301-00301999999ADDGF100991999999999999999999MA1103401999999REMMET064METAR ZSSS 080030Z 31003MPS 280V340 7000 NSC 03/M03 Q1034 NOSIG=
0109583670999992015010801004+31198+121336FM-15+000399999V0203301N004012200019N006000199+00401-00401999999ADDGF100991999999999999999999MA1103401999999REMMET056METAR ZSSS 080100Z 33004MPS 6000 NSC 04/M04 Q1034 NOSIG=
0109583670999992015010801304+31198+121336FM-15+000399999V0203401N005012200019N006000199+00501-00301999999ADDGF100991999999999999999999MA1103301999999REMMET056METAR ZSSS 080130Z 34005MPS 6000 NSC 05/M03 Q1033 NOSIG=
0109583670999992015010802004+31198+121336FM-15+000399999V0203301N005012200019N008000199+00501-00501999999ADDGF100991999999999999999999MA1103301999999REMMET056METAR ZSSS 080200Z 33005MPS 8000 NSC 05/M05 Q1033 NOSIG=
0117583670999992015010802304+31198+121336FM-15+000399999V0203401V004012200019N008000199+00601-00501999999ADDGF100991999999999999999999MA1103301999999REMMET064METAR ZSSS 080230Z 34004MPS 300V010 8000 NSC 06/M05 Q1033 NOSIG=
0080583670999992015010803004+31198+121336FM-15+000399999V0203401N005019999999Y999999999+00701-00701999999ADDMA1103201999999REMMET053METAR ZSSS 080300Z 34005MPS CAVOK 07/M07 Q1032 NOSIG=
0088583670999992015010803304+31198+121336FM-15+000399999V0203601V004019999999Y999999999+00701-00801999999ADDMA1103201999999REMMET061METAR ZSSS 080330Z 36004MPS 320V030 CAVOK 07/M08 Q1032 NOSIG=
0088583670999992015010804004+31198+121336FM-15+000399999V0203401V004019999999Y999999999+00801-00701999999ADDMA1103101999999REMMET061METAR ZSSS 080400Z 34004MPS 310V020 CAVOK 08/M07 Q1031 NOSIG=
0088583670999992015010804304+31198+121336FM-15+000399999V0203301V004019999999Y999999999+00801-00801999999ADDMA1103001999999REMMET061METAR ZSSS 080430Z 33004MPS 300V360 CAVOK 08/M08 Q1030 NOSIG=
0088583670999992015010805004+31198+121336FM-15+000399999V0203401V005019999999Y999999999+00801-00801999999ADDMA1103001999999REMMET061METAR ZSSS 080500Z 34005MPS 300V010 CAVOK 08/M08 Q1030 NOSIG=
0080583670999992015010805304+31198+121336FM-15+000399999V0203301N005019999999Y999999999+00901-01001999999ADDMA1103001999999REMMET053METAR ZSSS 080530Z 33005MPS CAVOK 09/M10 Q1030 NOSIG=
0088583670999992015010806004+31198+121336FM-15+000399999V0203301V004019999999Y999999999+00901-01001999999ADDMA1103001999999REMMET061METAR ZSSS 080600Z 33004MPS 290V020 CAVOK 09/M10 Q1030 NOSIG=
0080583670999992015010806304+31198+121336FM-15+000399999V0203501N005019999999Y999999999+00901-01001999999ADDMA1103001999999REMMET053METAR ZSSS 080630Z 35005MPS CAVOK 09/M10 Q1030 NOSIG=
0088583670999992015010807004+31198+121336FM-15+000399999V0203301V005019999999Y999999999+00901-00901999999ADDMA1103001999999REMMET061METAR ZSSS 080700Z 33005MPS 300V360 CAVOK 09/M09 Q1030 NOSIG=
0080583670999992015010807304+31198+121336FM-15+000399999V0203401N005019999999Y999999999+00901-00901999999ADDMA1103001999999REMMET053METAR ZSSS 080730Z 34005MPS CAVOK 09/M09 Q1030 NOSIG=
0080583670999992015010808004+31198+121336FM-15+000399999V0203301N004019999999Y999999999+00801-00901999999ADDMA1103101999999REMMET053METAR ZSSS 080800Z 33004MPS CAVOK 08/M09 Q1031 NOSIG=
0080583670999992015010808304+31198+121336FM-15+000399999V0203201N005019999999Y999999999+00801-01101999999ADDMA1103101999999REMMET053METAR ZSSS 080830Z 32005MPS CAVOK 08/M11 Q1031 NOSIG=
0088583670999992015010809004+31198+121336FM-15+000399999V0203201V005019999999Y999999999+00701-01001999999ADDMA1103101999999REMMET061METAR ZSSS 080900Z 32005MPS 290V350 CAVOK 07/M10 Q1031 NOSIG=
0080583670999992015010809304+31198+121336FM-15+000399999V0203501N003019999999Y999999999+00601-01101999999ADDMA1103101999999REMMET053METAR ZSSS 080930Z 35003MPS CAVOK 06/M11 Q1031 NOSIG=
0080583670999992015010810004+31198+121336FM-15+000399999V0203501N002019999999Y999999999+00501-01001999999ADDMA1103101999999REMMET053METAR ZSSS 081000Z 35002MPS CAVOK 05/M10 Q1031 NOSIG=
0088583670999992015010810304+31198+121336FM-15+000399999V0203401V003019999999Y999999999+00601-01001999999ADDMA1103101999999REMMET061METAR ZSSS 081030Z 34003MPS 300V360 CAVOK 06/M10 Q1031 NOSIG=
0080583670999992015010811004+31198+121336FM-15+000399999V0203301N003019999999Y999999999+00501-01001999999ADDMA1103101999999REMMET053METAR ZSSS 081100Z 33003MPS CAVOK 05/M10 Q1031 NOSIG=
0080583670999992015010811304+31198+121336FM-15+000399999V0203401N003019999999Y999999999+00501-00901999999ADDMA1103101999999REMMET053METAR ZSSS 081130Z 34003MPS CAVOK 05/M09 Q1031 NOSIG=
0109583670999992015010812004+31198+121336FM-15+000399999V0203401N003012200019N008000199+00401-00901999999ADDGF100991999999999999999999MA1103101999999REMMET056METAR ZSSS 081200Z 34003MPS 8000 NSC 04/M09 Q1031 NOSIG=
0117583670999992015010812304+31198+121336FM-15+000399999V0202501V002012200019N006000199+00501-00801999999ADDGF100991999999999999999999MA1103101999999REMMET064METAR ZSSS 081230Z 25002MPS 190V280 6000 NSC 05/M08 Q1031 NOSIG=
0117583670999992015010813004+31198+121336FM-15+000399999V0202601V002012200019N006000199+00401-00801999999ADDGF100991999999999999999999MA1103101999999REMMET064METAR ZSSS 081300Z 26002MPS 230V290 6000 NSC 04/M08 Q1031 NOSIG=
0117583670999992015010813304+31198+121336FM-15+000399999V0203201V002012200019N006000199+00401-00701999999ADDGF100991999999999999999999MA1103101999999REMMET064METAR ZSSS 081330Z 32002MPS 260V040 6000 NSC 04/M07 Q1031 NOSIG=
0109583670999992015010814004+31198+121336FM-15+000399999V0203401N002012200019N006000199+00301-00701999999ADDGF100991999999999999999999MA1103101999999REMMET056METAR ZSSS 081400Z 34002MPS 6000 NSC 03/M07 Q1031 NOSIG=
0109583670999992015010814304+31198+121336FM-15+000399999V0200301N002012200019N006000199+00401-00601999999ADDGF100991999999999999999999MA1103101999999REMMET056METAR ZSSS 081430Z 03002MPS 6000 NSC 04/M06 Q1031 NOSIG=
0109583670999992015010815004+31198+121336FM-15+000399999V0200201N002012200019N006000199+00301-00501999999ADDGF100991999999999999999999MA1103101999999REMMET056METAR ZSSS 081500Z 02002MPS 6000 NSC 03/M05 Q1031 NOSIG=
0109583670999992015010815304+31198+121336FM-15+000399999V0200101N002012200019N006000199+00201-00501999999ADDGF100991999999999999999999MA1103101999999REMMET056METAR ZSSS 081530Z 01002MPS 6000 NSC 02/M05 Q1031 NOSIG=
0109583670999992015010816004+31198+121336FM-15+000399999V0200101N001012200019N006000199+00301-00401999999ADDGF100991999999999999999999MA1103101999999REMMET056METAR ZSSS 081600Z 01001MPS 6000 NSC 03/M04 Q1031 NOSIG=
0109583670999992015010816304+31198+121336FM-15+000399999V0209999V001012200019N006000199+00401-00401999999ADDGF100991999999999999999999MA1103101999999REMMET056METAR ZSSS 081630Z VRB01MPS 6000 NSC 04/M04 Q1031 NOSIG=
0109583670999992015010817004+31198+121336FM-15+000399999V0209999V001012200019N006000199+00401-00501999999ADDGF100991999999999999999999MA1103101999999REMMET056METAR ZSSS 081700Z VRB01MPS 6000 NSC 04/M05 Q1031 NOSIG=
0109583670999992015010817304+31198+121336FM-15+000399999V0200201N001012200019N007000199+00301-00401999999ADDGF100991999999999999999999MA1103101999999REMMET056METAR ZSSS 081730Z 02001MPS 7000 NSC 03/M04 Q1031 NOSIG=
0109583670999992015010818004+31198+121336FM-15+000399999V0209999C000012200019N007000199+00301-00401999999ADDGF100991999999999999999999MA1103101999999REMMET056METAR ZSSS 081800Z 00000MPS 7000 NSC 03/M04 Q1031 NOSIG=
0109583670999992015010818304+31198+121336FM-15+000399999V0209999C000012200019N007000199+00201-00401999999ADDGF100991999999999999999999MA1103101999999REMMET056METAR ZSSS 081830Z 00000MPS 7000 NSC 02/M04 Q1031 NOSIG=
0109583670999992015010819004+31198+121336FM-15+000399999V0202401N001012200019N007000199+00201-00301999999ADDGF100991999999999999999999MA1103101999999REMMET056METAR ZSSS 081900Z 24001MPS 7000 NSC 02/M03 Q1031 NOSIG=
0109583670999992015010819304+31198+121336FM-15+000399999V0202001N001012200019N007000199+00201-00301999999ADDGF100991999999999999999999MA1103001999999REMMET056METAR ZSSS 081930Z 20001MPS 7000 NSC 02/M03 Q1030 NOSIG=
0109583670999992015010820004+31198+121336FM-15+000399999V0202101N001012200019N007000199+00201-00201999999ADDGF100991999999999999999999MA1103001999999REMMET056METAR ZSSS 082000Z 21001MPS 7000 NSC 02/M02 Q1030 NOSIG=
0109583670999992015010820304+31198+121336FM-15+000399999V0202301N002012200019N007000199+00101-00301999999ADDGF100991999999999999999999MA1103001999999REMMET056METAR ZSSS 082030Z 23002MPS 7000 NSC 01/M03 Q1030 NOSIG=
0109583670999992015010821004+31198+121336FM-15+000399999V0202301N002012200019N006000199+00101-00201999999ADDGF100991999999999999999999MA1103001999999REMMET056METAR ZSSS 082100Z 23002MPS 6000 NSC 01/M02 Q1030 NOSIG=
0118583670999992015010821304+31198+121336FM-15+000399999V0202401N002012200019N005000199+00101-00301999999ADDGF100991999999999999999999MA1103101999999MW1101REMMET059METAR ZSSS 082130Z 24002MPS 5000 BR NSC 01/M03 Q1031 NOSIG=
0118583670999992015010822004+31198+121336FM-15+000399999V0202401N001012200019N005000199+00001-00301999999ADDGF100991999999999999999999MA1103001999999MW1101REMMET059METAR ZSSS 082200Z 24001MPS 5000 BR NSC 00/M03 Q1030 NOSIG=
0118583670999992015010822304+31198+121336FM-15+000399999V0201901N001012200019N004500199+00101-00201999999ADDGF100991999999999999999999MA1103101999999MW1101REMMET059METAR ZSSS 082230Z 19001MPS 4500 BR NSC 01/M02 Q1031 NOSIG=
0118583670999992015010823004+31198+121336FM-15+000399999V0202201N001012200019N003500199+00101-00201999999ADDGF100991999999999999999999MA1103101999999MW1101REMMET059METAR ZSSS 082300Z 22001MPS 3500 BR NSC 01/M02 Q1031 NOSIG=
0118583670999992015010823304+31198+121336FM-15+000399999V0209999C000012200019N003500199+00201-00201999999ADDGF100991999999999999999999MA1103101999999MW1101REMMET059METAR ZSSS 082330Z 00000MPS 3500 BR NSC 02/M02 Q1031 NOSIG=
0118583670999992015010900004+31198+121336FM-15+000399999V0209999V001012200019N003500199+00301-00201999999ADDGF100991999999999999999999MA1103101999999MW1101REMMET059METAR ZSSS 090000Z VRB01MPS 3500 BR NSC 03/M02 Q1031 NOSIG=
0126583670999992015010900304+31198+121336FM-15+000399999V0202501V002012200019N003500199+00401-00201999999ADDGF100991999999999999999999MA1103101999999MW1051REMMET067METAR ZSSS 090030Z 25002MPS 210V300 3500 HZ NSC 04/M02 Q1031 NOSIG=
0126583670999992015010901004+31198+121336FM-15+000399999V0202501V002012200019N003500199+00501-00201999999ADDGF100991999999999999999999MA1103101999999MW1051REMMET067METAR ZSSS 090100Z 25002MPS 210V290 3500 HZ NSC 05/M02 Q1031 NOSIG=
0126583670999992015010901304+31198+121336FM-15+000399999V0202501V002012200019N004000199+00701-00201999999ADDGF100991999999999999999999MA1103201999999MW1051REMMET067METAR ZSSS 090130Z 25002MPS 180V300 4000 HZ NSC 07/M02 Q1032 NOSIG=
0126583670999992015010902004+31198+121336FM-15+000399999V0202501V002012200019N004000199+00801-00301999999ADDGF100991999999999999999999MA1103101999999MW1051REMMET067METAR ZSSS 090200Z 25002MPS 220V320 4000 HZ NSC 08/M03 Q1031 NOSIG=
0126583670999992015010902304+31198+121336FM-15+000399999V0202601V003012200019N004500199+00801-00401999999ADDGF100991999999999999999999MA1103101999999MW1051REMMET067METAR ZSSS 090230Z 26003MPS 210V300 4500 HZ NSC 08/M04 Q1031 NOSIG=
0126583670999992015010903004+31198+121336FM-15+000399999V0202801V003012200019N004500199+00901-00301999999ADDGF100991999999999999999999MA1103001999999MW1051REMMET067METAR ZSSS 090300Z 28003MPS 240V320 4500 HZ NSC 09/M03 Q1030 NOSIG=
0126583670999992015010903304+31198+121336FM-15+000399999V0202701V003012200019N004500199+00901-00201999999ADDGF100991999999999999999999MA1102901999999MW1051REMMET067METAR ZSSS 090330Z 27003MPS 240V300 4500 HZ NSC 09/M02 Q1029 NOSIG=
0126583670999992015010904004+31198+121336FM-15+000399999V0202801V003012200019N004500199+01001-00201999999ADDGF100991999999999999999999MA1102901999999MW1051REMMET067METAR ZSSS 090400Z 28003MPS 240V340 4500 HZ NSC 10/M02 Q1029 NOSIG=
0126583670999992015010904304+31198+121336FM-15+000399999V0202801V003012200019N004500199+01001-00301999999ADDGF100991999999999999999999MA1102901999999MW1051REMMET067METAR ZSSS 090430Z 28003MPS 240V300 4500 HZ NSC 10/M03 Q1029 NOSIG=
0126583670999992015010905004+31198+121336FM-15+000399999V0202801V003012200019N004500199+01101-00301999999ADDGF100991999999999999999999MA1102801999999MW1051REMMET067METAR ZSSS 090500Z 28003MPS 230V300 4500 HZ NSC 11/M03 Q1028 NOSIG=
0126583670999992015010905304+31198+121336FM-15+000399999V0203001V003012200019N005000199+01101-00301999999ADDGF100991999999999999999999MA1102801999999MW1051REMMET067METAR ZSSS 090530Z 30003MPS 240V330 5000 HZ NSC 11/M03 Q1028 NOSIG=
0126583670999992015010906004+31198+121336FM-15+000399999V0202801V003012200019N005000199+01101-00401999999ADDGF100991999999999999999999MA1102801999999MW1051REMMET067METAR ZSSS 090600Z 28003MPS 240V320 5000 HZ NSC 11/M04 Q1028 NOSIG=
0126583670999992015010906304+31198+121336FM-15+000399999V0202801V003012200019N005000199+01101-00301999999ADDGF100991999999999999999999MA1102801999999MW1051REMMET067METAR ZSSS 090630Z 28003MPS 240V310 5000 HZ NSC 11/M03 Q1028 NOSIG=
0126583670999992015010907004+31198+121336FM-15+000399999V0203001V003012200019N005000199+01101-00401999999ADDGF100991999999999999999999MA1102701999999MW1051REMMET067METAR ZSSS 090700Z 30003MPS 260V330 5000 HZ NSC 11/M04 Q1027 NOSIG=
0126583670999992015010907304+31198+121336FM-15+000399999V0202901V003012200019N005000199+01101-00301999999ADDGF100991999999999999999999MA1102801999999MW1051REMMET067METAR ZSSS 090730Z 29003MPS 240V330 5000 HZ NSC 11/M03 Q1028 NOSIG=
0126583670999992015010908004+31198+121336FM-15+000399999V0202701V003012200019N005000199+01101-00301999999ADDGF100991999999999999999999MA1102801999999MW1051REMMET067METAR ZSSS 090800Z 27003MPS 230V300 5000 HZ NSC 11/M03 Q1028 NOSIG=
0126583670999992015010908304+31198+121336FM-15+000399999V0202601V003012200019N005000199+01001-00301999999ADDGF100991999999999999999999MA1102801999999MW1051REMMET067METAR ZSSS 090830Z 26003MPS 230V300 5000 HZ NSC 10/M03 Q1028 NOSIG=
0126583670999992015010909004+31198+121336FM-15+000399999V0202801V003012200019N004500199+01001-00301999999ADDGF100991999999999999999999MA1102801999999MW1051REMMET067METAR ZSSS 090900Z 28003MPS 250V310 4500 HZ NSC 10/M03 Q1028 NOSIG=
0126583670999992015010909304+31198+121336FM-15+000399999V0202601V003012200019N004500199+01001-00201999999ADDGF100991999999999999999999MA1102901999999MW1051REMMET067METAR ZSSS 090930Z 26003MPS 230V290 4500 HZ NSC 10/M02 Q1029 NOSIG=
0126583670999992015010910004+31198+121336FM-15+000399999V0202801V002012200019N004500199+00901-00301999999ADDGF100991999999999999999999MA1102901999999MW1051REMMET067METAR ZSSS 091000Z 28002MPS 250V310 4500 HZ NSC 09/M03 Q1029 NOSIG=
0126583670999992015010910304+31198+121336FM-15+000399999V0202401V002012200019N004500199+00901-00301999999ADDGF100991999999999999999999MA1102901999999MW1051REMMET067METAR ZSSS 091030Z 24002MPS 170V290 4500 HZ NSC 09/M03 Q1029 NOSIG=
0118583670999992015010911004+31198+121336FM-15+000399999V0202501N002012200019N004500199+00801-00301999999ADDGF100991999999999999999999MA1102901999999MW1051REMMET059METAR ZSSS 091100Z 25002MPS 4500 HZ NSC 08/M03 Q1029 NOSIG=
0126583670999992015010911304+31198+121336FM-15+000399999V0202501V002012200019N004500199+00701-00201999999ADDGF100991999999999999999999MA1102901999999MW1051REMMET067METAR ZSSS 091130Z 25002MPS 230V310 4500 HZ NSC 07/M02 Q1029 NOSIG=
0126583670999992015010912004+31198+121336FM-15+000399999V0202301V002012200019N004500199+00601-00201999999ADDGF100991999999999999999999MA1102901999999MW1051REMMET067METAR ZSSS 091200Z 23002MPS 220V280 4500 HZ NSC 06/M02 Q1029 NOSIG=
0126583670999992015010912304+31198+121336FM-15+000399999V0202701V003012200019N004500199+00701-00201999999ADDGF100991999999999999999999MA1102901999999MW1051REMMET067METAR ZSSS 091230Z 27003MPS 240V300 4500 HZ NSC 07/M02 Q1029 NOSIG=
0126583670999992015010913004+31198+121336FM-15+000399999V0202601V002012200019N004500199+00701-00201999999ADDGF100991999999999999999999MA1102901999999MW1051REMMET067METAR ZSSS 091300Z 26002MPS 240V300 4500 HZ NSC 07/M02 Q1029 NOSIG=
0118583670999992015010913304+31198+121336FM-15+000399999V0209999C000012200019N004500199+00601-00201999999ADDGF100991999999999999999999MA1102901999999MW1051REMMET059METAR ZSSS 091330Z 00000MPS 4500 HZ NSC 06/M02 Q1029 NOSIG=
0118583670999992015010914004+31198+121336FM-15+000399999V0209999C000012200019N004500199+00601-00201999999ADDGF100991999999999999999999MA1102901999999MW1051REMMET059METAR ZSSS 091400Z 00000MPS 4500 HZ NSC 06/M02 Q1029 NOSIG=
0118583670999992015010914304+31198+121336FM-15+000399999V0209999V001012200019N004500199+00701-00201999999ADDGF100991999999999999999999MA1102901999999MW1051REMMET059METAR ZSSS 091430Z VRB01MPS 4500 HZ NSC 07/M02 Q1029 NOSIG=
0118583670999992015010915004+31198+121336FM-15+000399999V0209999V001012200019N004500199+00601-00201999999ADDGF100991999999999999999999MA1102801999999MW1051REMMET059METAR ZSSS 091500Z VRB01MPS 4500 HZ NSC 06/M02 Q1028 NOSIG=
0118583670999992015010915304+31198+121336FM-15+000399999V0209999C000012200019N004000199+00401-00101999999ADDGF100991999999999999999999MA1102801999999MW1051REMMET059METAR ZSSS 091530Z 00000MPS 4000 HZ NSC 04/M01 Q1028 NOSIG=
0118583670999992015010916004+31198+121336FM-15+000399999V0209999C000012200019N004000199+00401-00201999999ADDGF100991999999999999999999MA1102801999999MW1051REMMET059METAR ZSSS 091600Z 00000MPS 4000 HZ NSC 04/M02 Q1028 NOSIG=
0118583670999992015010916304+31198+121336FM-15+000399999V0201901N001012200019N004000199+00401-00101999999ADDGF100991999999999999999999MA1102801999999MW1051REMMET059METAR ZSSS 091630Z 19001MPS 4000 HZ NSC 04/M01 Q1028 NOSIG=
0118583670999992015010917004+31198+121336FM-15+000399999V0202001N001012200019N004000199+00401-00101999999ADDGF100991999999999999999999MA1102901999999MW1051REMMET059METAR ZSSS 091700Z 20001MPS 4000 HZ NSC 04/M01 Q1029 NOSIG=
0118583670999992015010917304+31198+121336FM-15+000399999V0209999C000012200019N004000199+00401-00101999999ADDGF100991999999999999999999MA1102901999999MW1051REMMET059METAR ZSSS 091730Z 00000MPS 4000 HZ NSC 04/M01 Q1029 NOSIG=
0118583670999992015010918004+31198+121336FM-15+000399999V0202201N002012200019N003600199+00301-00101999999ADDGF100991999999999999999999MA1102801999999MW1101REMMET059METAR ZSSS 091800Z 22002MPS 3600 BR NSC 03/M01 Q1028 NOSIG=
0118583670999992015010918304+31198+121336FM-15+000399999V0202501N002012200019N003600199+00301-00101999999ADDGF100991999999999999999999MA1102801999999MW1101REMMET059METAR ZSSS 091830Z 25002MPS 3600 BR NSC 03/M01 Q1028 NOSIG=
0118583670999992015010919004+31198+121336FM-15+000399999V0202301N002012200019N003600199+00201-00101999999ADDGF100991999999999999999999MA1102801999999MW1101REMMET059METAR ZSSS 091900Z 23002MPS 3600 BR NSC 02/M01 Q1028 NOSIG=
0118583670999992015010919304+31198+121336FM-15+000399999V0202301N002012200019N003600199+00301-00101999999ADDGF100991999999999999999999MA1102801999999MW1101REMMET059METAR ZSSS 091930Z 23002MPS 3600 BR NSC 03/M01 Q1028 NOSIG=
0138583670999992015010920004+31198+121336FM-15+000399999V0202101N001012200019N003600199+00201-00101999999ADDGF100991999999999999999999MA1102801999999MW1101REMMET079METAR ZSSS 092000Z 21001MPS 3600 BR NSC 02/M01 Q1028 BECMG TL2130 2500      BR=
0118583670999992015010920304+31198+121336FM-15+000399999V0202201N001012200019N003600199+00201-00101999999ADDGF100991999999999999999999MA1102801999999MW1101REMMET059METAR ZSSS 092030Z 22001MPS 3600 BR NSC 02/M01 Q1028 NOSIG=
0138583670999992015010921004+31198+121336FM-15+000399999V0202201N001012200019N003600199+00301-00101999999ADDGF100991999999999999999999MA1102801999999MW1101REMMET079METAR ZSSS 092100Z 22001MPS 3600 BR NSC 03/M01 Q1028 BECMG TL2200 2500      BR=
0118583670999992015010921304+31198+121336FM-15+000399999V0202001N001012200019N003600199+00301+00001999999ADDGF100991999999999999999999MA1102801999999MW1101REMMET059METAR ZSSS 092130Z 20001MPS 3600 BR NSC 03/M00 Q1028 NOSIG=
0138583670999992015010922004+31198+121336FM-15+000399999V0202001N001012200019N003600199+00301+00001999999ADDGF100991999999999999999999MA1102801999999MW1101REMMET079METAR ZSSS 092200Z 20001MPS 3600 BR NSC 03/M00 Q1028 BECMG TL2300 2500      BR=
0118583670999992015010922304+31198+121336FM-15+000399999V0209999V001012200019N003600199+00301+00001999999ADDGF100991999999999999999999MA1102901999999MW1101REMMET059METAR ZSSS 092230Z VRB01MPS 3600 BR NSC 03/M00 Q1029 NOSIG=
0130583670999992015010923004+31198+121336FM-15+000399999V0209999V001012200019N002800199+00301+00001999999ADDGF100991999999999999999999MA1102901999999MW1101REMMET071METAR ZSSS 092300Z VRB01MPS 2800 BR NSC 03/M00 Q1029 BECMG TL0040 3000=
0118583670999992015010923304+31198+121336FM-15+000399999V0209999C000012200019N002800199+00401-00101999999ADDGF100991999999999999999999MA1102901999999MW1101REMMET059METAR ZSSS 092330Z 00000MPS 2800 BR NSC 04/M01 Q1029 NOSIG=
0129583670999992015011000004+31198+121336FM-15+000399999V0209999V001012200019N002600199+00401+00101999999ADDGF100991999999999999999999MA1102901999999MW1101REMMET070METAR ZSSS 100000Z VRB01MPS 2600 BR NSC 04/01 Q1029 BECMG TL0040 3000=
0155583670999992015011000304+31198+121336FM-15+000399999V0209999V001012200019N002600199+00601+00101999999ADDED136R99999GF100991999999999999999999MA1102901999999MW1051REMMET085METAR ZSSS 100030Z VRB01MPS 2600 R36R/1400U R36L/1800N HZ NSC 06/01      Q1029 NOSIG=
0129583670999992015011001004+31198+121336FM-15+000399999V0209999V001012200019N002600199+00701+00101999999ADDGF100991999999999999999999MA1103001999999MW1051REMMET070METAR ZSSS 100100Z VRB01MPS 2600 HZ NSC 07/01 Q1030 BECMG TL0230 3000=
0125583670999992015011001304+31198+121336FM-15+000399999V0202501V002012200019N002800199+00801+00101999999ADDGF100991999999999999999999MA1103001999999MW1051REMMET066METAR ZSSS 100130Z 25002MPS 210V270 2800 HZ NSC 08/01 Q1030 NOSIG=
0125583670999992015011002004+31198+121336FM-15+000399999V0202601V003012200019N003000199+00901+00101999999ADDGF100991999999999999999999MA1102901999999MW1051REMMET066METAR ZSSS 100200Z 26003MPS 240V300 3000 HZ NSC 09/01 Q1029 NOSIG=
0125583670999992015011002304+31198+121336FM-15+000399999V0202701V003012200019N003000199+01001+00101999999ADDGF100991999999999999999999MA1102901999999MW1051REMMET066METAR ZSSS 100230Z 27003MPS 250V320 3000 HZ NSC 10/01 Q1029 NOSIG=
0117583670999992015011003004+31198+121336FM-15+000399999V0203001N003012200019N003000199+01101+00101999999ADDGF100991999999999999999999MA1102801999999MW1051REMMET058METAR ZSSS 100300Z 30003MPS 3000 HZ NSC 11/01 Q1028 NOSIG=
0125583670999992015011003304+31198+121336FM-15+000399999V0203001V003012200019N003000199+01201+00101999999ADDGF100991999999999999999999MA1102801999999MW1051REMMET066METAR ZSSS 100330Z 30003MPS 230V320 3000 HZ NSC 12/01 Q1028 NOSIG=
0125583670999992015011004004+31198+121336FM-15+000399999V0202701V002012200019N003500199+01201+00101999999ADDGF100991999999999999999999MA1102701999999MW1051REMMET066METAR ZSSS 100400Z 27002MPS 200V340 3500 HZ NSC 12/01 Q1027 NOSIG=
0126583670999992015011004304+31198+121336FM-15+000399999V0202801V003012200019N003500199+01301+00001999999ADDGF100991999999999999999999MA1102701999999MW1051REMMET067METAR ZSSS 100430Z 28003MPS 240V320 3500 HZ NSC 13/M00 Q1027 NOSIG=
0126583670999992015011005004+31198+121336FM-15+000399999V0202601V003012200019N003500199+01401+00001999999ADDGF100991999999999999999999MA1102601999999MW1051REMMET067METAR ZSSS 100500Z 26003MPS 210V300 3500 HZ NSC 14/M00 Q1026 NOSIG=
0126583670999992015011005304+31198+121336FM-15+000399999V0202801V003012200019N004000199+01401-00201999999ADDGF100991999999999999999999MA1102601999999MW1051REMMET067METAR ZSSS 100530Z 28003MPS 220V300 4000 HZ NSC 14/M02 Q1026 NOSIG=
0126583670999992015011006004+31198+121336FM-15+000399999V0202601V003012200019N004000199+01501-00201999999ADDGF100991999999999999999999MA1102601999999MW1051REMMET067METAR ZSSS 100600Z 26003MPS 230V290 4000 HZ NSC 15/M02 Q1026 NOSIG=
0126583670999992015011006304+31198+121336FM-15+000399999V0202901V003012200019N004000199+01401-00301999999ADDGF100991999999999999999999MA1102601999999MW1051REMMET067METAR ZSSS 100630Z 29003MPS 250V320 4000 HZ NSC 14/M03 Q1026 NOSIG=
0126583670999992015011007004+31198+121336FM-15+000399999V0203001V003012200019N004000199+01401-00401999999ADDGF100991999999999999999999MA1102601999999MW1051REMMET067METAR ZSSS 100700Z 30003MPS 200V320 4000 HZ NSC 14/M04 Q1026 NOSIG=
0118583670999992015011007304+31198+121336FM-15+000399999V0202701N003012200019N004200199+01401-00301999999ADDGF100991999999999999999999MA1102601999999MW1051REMMET059METAR ZSSS 100730Z 27003MPS 4200 HZ NSC 14/M03 Q1026 NOSIG=
0126583670999992015011008004+31198+121336FM-15+000399999V0202701V003012200019N004200199+01401-00301999999ADDGF100991999999999999999999MA1102701999999MW1051REMMET067METAR ZSSS 100800Z 27003MPS 230V320 4200 HZ NSC 14/M03 Q1027 NOSIG=
0118583670999992015011008304+31198+121336FM-15+000399999V0202801N003012200019N004200199+01301-00201999999ADDGF100991999999999999999999MA1102701999999MW1051REMMET059METAR ZSSS 100830Z 28003MPS 4200 HZ NSC 13/M02 Q1027 NOSIG=
0126583670999992015011009004+31198+121336FM-15+000399999V0202701V003012200019N004500199+01201-00401999999ADDGF100991999999999999999999MA1102701999999MW1051REMMET067METAR ZSSS 100900Z 27003MPS 240V300 4500 HZ NSC 12/M04 Q1027 NOSIG=
0126583670999992015011009304+31198+121336FM-15+000399999V0202801V002012200019N005000199+01201-00401999999ADDGF100991999999999999999999MA1102701999999MW1051REMMET067METAR ZSSS 100930Z 28002MPS 220V320 5000 HZ NSC 12/M04 Q1027 NOSIG=
0109583670999992015011010004+31198+121336FM-15+000399999V0202701N002012200019N008000199+01101-00401999999ADDGF100991999999999999999999MA1102701999999REMMET056METAR ZSSS 101000Z 27002MPS 8000 NSC 11/M04 Q1027 NOSIG=
0117583670999992015011010304+31198+121336FM-15+000399999V0202501V002012200019N008000199+00901-00301999999ADDGF100991999999999999999999MA1102701999999REMMET064METAR ZSSS 101030Z 25002MPS 190V280 8000 NSC 09/M03 Q1027 NOSIG=
0117583670999992015011011004+31198+121336FM-15+000399999V0202701V002012200019N007000199+00901-00301999999ADDGF100991999999999999999999MA1102701999999REMMET064METAR ZSSS 101100Z 27002MPS 220V300 7000 NSC 09/M03 Q1027 NOSIG=
0109583670999992015011011304+31198+121336FM-15+000399999V0209999V001012200019N006000199+00801-00201999999ADDGF100991999999999999999999MA1102701999999REMMET056METAR ZSSS 101130Z VRB01MPS 6000 NSC 08/M02 Q1027 NOSIG=
0109583670999992015011012004+31198+121336FM-15+000399999V0209999V002012200019N006000199+00801-00101999999ADDGF100991999999999999999999MA1102701999999REMMET056METAR ZSSS 101200Z VRB02MPS 6000 NSC 08/M01 Q1027 NOSIG=
0109583670999992015011012304+31198+121336FM-15+000399999V0201901N002012200019N006000199+00801-00101999999ADDGF100991999999999999999999MA1102701999999REMMET056METAR ZSSS 101230Z 19002MPS 6000 NSC 08/M01 Q1027 NOSIG=
0118583670999992015011013004+31198+121336FM-15+000399999V0201901N002012200019N005000199+00801-00101999999ADDGF100991999999999999999999MA1102701999999MW1051REMMET059METAR ZSSS 101300Z 19002MPS 5000 HZ NSC 08/M01 Q1027 NOSIG=
0118583670999992015011013304+31198+121336FM-15+000399999V0209999V001012200019N005000199+00701-00101999999ADDGF100991999999999999999999MA1102701999999MW1051REMMET059METAR ZSSS 101330Z VRB01MPS 5000 HZ NSC 07/M01 Q1027 NOSIG=
0118583670999992015011014004+31198+121336FM-15+000399999V0202301N001012200019N005000199+00501-00101999999ADDGF100991999999999999999999MA1102601999999MW1051REMMET059METAR ZSSS 101400Z 23001MPS 5000 HZ NSC 05/M01 Q1026 NOSIG=
0118583670999992015011014304+31198+121336FM-15+000399999V0202001N001012200019N005000199+00601+00001999999ADDGF100991999999999999999999MA1102601999999MW1051REMMET059METAR ZSSS 101430Z 20001MPS 5000 HZ NSC 06/M00 Q1026 NOSIG=
0118583670999992015011015004+31198+121336FM-15+000399999V0201701N001012200019N005000199+00501+00001999999ADDGF100991999999999999999999MA1102601999999MW1051REMMET059METAR ZSSS 101500Z 17001MPS 5000 HZ NSC 05/M00 Q1026 NOSIG=
0117583670999992015011015304+31198+121336FM-15+000399999V0201901N001012200019N004000199+00501+00001999999ADDGF100991999999999999999999MA1102601999999MW1051REMMET058METAR ZSSS 101530Z 19001MPS 4000 HZ NSC 05/00 Q1026 NOSIG=
0117583670999992015011016004+31198+121336FM-15+000399999V0202101N001012200019N004000199+00501+00101999999ADDGF100991999999999999999999MA1102601999999MW1101REMMET058METAR ZSSS 101600Z 21001MPS 4000 BR NSC 05/01 Q1026 NOSIG=
0117583670999992015011016304+31198+121336FM-15+000399999V0201901N001012200019N004000199+00401+00001999999ADDGF100991999999999999999999MA1102601999999MW1101REMMET058METAR ZSSS 101630Z 19001MPS 4000 BR NSC 04/00 Q1026 NOSIG=
0117583670999992015011017004+31198+121336FM-15+000399999V0202201N001012200019N003500199+00301+00001999999ADDGF100991999999999999999999MA1102601999999MW1101REMMET058METAR ZSSS 101700Z 22001MPS 3500 BR NSC 03/00 Q1026 NOSIG=
0117583670999992015011017304+31198+121336FM-15+000399999V0202101N001012200019N003500199+00401+00101999999ADDGF100991999999999999999999MA1102601999999MW1101REMMET058METAR ZSSS 101730Z 21001MPS 3500 BR NSC 04/01 Q1026 NOSIG=
