0118712230999992015010100004+51933-110700FM-12+077299999V0202701N008219999999N999999999-00341-00771999999ADDAA106000091AA224000091KA1120M-00231KA2120N-00921REMSYN05871223 16/// /2716 11034 21077 60001 333 11023 21092 70000=
0093712230999992015010100004+51930-110720SAO  +077299999V020270190082199999999999999999-00341-00771999999ADDOD130100981270REMAWY067XCS SA 0000 AUTO8 M M M M/-03/-08/2716/M/ PK WND 2719 2352Z M 47MM=
0093712230999992015010101004+51930-110720SAO  +077299999V020260190082199999999999999999-00291-00741999999ADDOD130101231260REMAWY067XCS SA 0100 AUTO8 M M M M/-03/-07/2616/M/ PK WND 2624 0016Z M 94MM=
0093712230999992015010102004+51930-110720SAO  +077299999V020270190098199999999999999999-00281-00701999999ADDOD130101181270REMAWY067XCS SA 0200 AUTO8 M M M M/-03/-07/2719/M/ PK WND 2723 0153Z M 80MM=
0093712230999992015010103004+51930-110720SAO  +077299999V020280190103199999999999999999-00151-00711999999ADDOD130101281280REMAWY067XCS SA 0300 AUTO8 M M M M/-02/-07/2820/M/ PK WND 2825 0250Z M 51MM=
0093712230999992015010104004+51930-110720SAO  +077299999V020280190087199999999999999999-00201-00631999999ADDOD130101181260REMAWY067XCS SA 0400 AUTO8 M M M M/-02/-06/2817/M/ PK WND 2623 0328Z M 03MM=
0093712230999992015010105004+51930-110720SAO  +077299999V020270190087199999999999999999-00131-00521999999ADDOD130101031280REMAWY067XCS SA 0500 AUTO8 M M M M/-01/-05/2717/M/ PK WND 2820 0400Z M 32MM=
0092712230999992015010107004+51930-110720SAO  +077299999V020300190077199999999999999999+00041-00291999999ADDOD130100981280REMAWY066XCS SA 0700 AUTO8 M M M M/00/-03/3015/M/ PK WND 2819 0604Z M 49MM=
0092712230999992015010108004+51930-110720SAO  +077299999V020310190067199999999999999999+00021-00271999999ADDOD130100981310REMAWY066XCS SA 0800 AUTO8 M M M M/00/-03/3113/M/ PK WND 3119 0709Z M 27MM=
0093712230999992015010109004+51930-110720SAO  +077299999V020310190041199999999999999999-00021-00291999999ADDOD130100931320REMAWY067XCS SA 0900 AUTO8 M M M M/00/-03/3108/M/ PK WND 3218 0805Z M -29MM=
0058712230999992015010110004+51930-110720SAO  +077299999V020310190051199999999999999999-00061-00281999999REMAWY049XCS SA 1000 AUTO8 M M M M/-01/-03/3110/M/ M 68MM=
0058712230999992015010111004+51930-110720SAO  +077299999V020320190041199999999999999999-00081-00261999999REMAWY049XCS SA 1100 AUTO8 M M M M/-01/-03/3208/M/ M 86MM=
0118712230999992015010112004+51933-110700FM-12+077299999V0203401N002619999999N999999999-00091-00301999999ADDAA106000091AA224999919KA1240M-00131KA2240N-00341REMSYN05871223 16/// /3405 11009 21030 60001 333 11013 21034 7////=
0058712230999992015010112004+51930-110720SAO  +077299999V020340190026199999999999999999-00091-00301999999REMAWY049XCS SA 1200 AUTO8 M M M M/-01/-03/3405/M/ M 90MM=
0058712230999992015010113004+51930-110720SAO  +077299999V020260190015199999999999999999-00261-00401999999REMAWY049XCS SA 1300 AUTO8 M M M M/-03/-04/2603/M/ M 60MM=
0058712230999992015010114004+51930-110720SAO  +077299999V020270190015199999999999999999-00231-00371999999REMAWY049XCS SA 1400 AUTO8 M M M M/-02/-04/2703/M/ M 37MM=
0058712230999992015010115004+51930-110720SAO  +077299999V020210190026199999999999999999-00291-00411999999REMAWY049XCS SA 1500 AUTO8 M M M M/-03/-04/2105/M/ M 91MM=
0058712230999992015010116004+51930-110720SAO  +077299999V020240190041199999999999999999-00211-00321999999REMAWY049XCS SA 1600 AUTO8 M M M M/-02/-03/2408/M/ M 12MM=
0058712230999992015010117004+51930-110720SAO  +077299999V020250190057199999999999999999-00101-00241999999REMAWY049XCS SA 1700 AUTO8 M M M M/-01/-02/2511/M/ M 04MM=
0118712230999992015010118004+51933-110700FM-12+077299999V0202701N006719999999N999999999-00011-00121999999ADDAA106000091AA224999919KA1120M+00051KA2120N-00361REMSYN05871223 16/// /2713 11001 21012 60001 333 10005 21036 7////=
0058712230999992015010118004+51930-110720SAO  +077299999V020270190067199999999999999999-00011-00121999999REMAWY049XCS SA 1800 AUTO8 M M M M/00/-01/2713/M/ M -12MM=
0092712230999992015010119004+51930-110720SAO  +077299999V020280190072199999999999999999+00091-00031999999ADDOD130100931280REMAWY066XCS SA 1900 AUTO8 M M M M/01/00/2814/M/ PK WND 2818 1855Z M 9-3MM=
0092712230999992015010120004+51930-110720SAO  +077299999V020280190082199999999999999999+00121-00021999999ADDOD130101031270REMAWY066XCS SA 2000 AUTO8 M M M M/01/00/2816/M/ PK WND 2720 1914Z M 2-2MM=
0092712230999992015010121004+51930-110720SAO  +077299999V020280190077199999999999999999+00111-00011999999ADDOD130101031280REMAWY066XCS SA 2100 AUTO8 M M M M/01/00/2815/M/ PK WND 2820 2010Z M 1-1MM=
0092712230999992015010122004+51930-110720SAO  +077299999V020280190067199999999999999999+00111-00021999999ADDOD130101031270REMAWY066XCS SA 2200 AUTO8 M M M M/01/00/2813/M/ PK WND 2720 2117Z M 1-2MM=
0092712230999992015010123004+51930-110720SAO  +077299999V020280190057199999999999999999+00091-00031999999ADDOD130100931280REMAWY066XCS SA 2300 AUTO8 M M M M/01/00/2811/M/ PK WND 2818 2221Z M 9-3MM=
0118712230999992015010200004+51933-110700FM-12+077299999V0202801N005719999999N999999999+00061-00051999999ADDAA106000091AA224999919KA1120M+00131KA2120N-00321REMSYN05871223 16/// /2811 10006 21005 60001 333 10013 21032 7////=
0056712230999992015010200004+51930-110720SAO  +077299999V020280190057199999999999999999+00061-00051999999REMAWY047XCS SA 0000 AUTO8 M M M M/01/00/2811/M/ M 65MM=
0057712230999992015010201004+51930-110720SAO  +077299999V020300190057199999999999999999+00011-00131999999REMAWY048XCS SA 0100 AUTO8 M M M M/00/-01/3011/M/ M 13MM=
0058712230999992015010202004+51930-110720SAO  +077299999V020290190036199999999999999999-00151-00181999999REMAWY049XCS SA 0200 AUTO8 M M M M/00/-02/2907/M/ M -58MM=
0077712230999992015010203004+51930-110720SAO  +077299999V020290190036199999999999999999-00151+99999999999REMAWY049XCS SA 0300 AUTO8 M M M M/00/-01/2907/M/ M -54MM=EQDQ01-1.4  2ATOD  
0095712230999992015010204004+51930-110720SAO  +077299999V020030190046199999999999999999-00211-00311999999ADDAA101000631REMAWY072XCS SA 0400 AUTO8 M M M M/-02/-03/0309/M/0006 PCPN 0.6MM PAST HR M 11MM=
0097712230999992015010205004+51930-110720SAO  +077299999V020050190072199999999999999999-00561-00691999999ADDOD130100931040REMAWY071XCS SA 0500 AUTO8 M M M M/-06/-07/0514/M/0006 PK WND 0418 0452Z M 69MM=
0148712230999992015010206004+51933-110700FM-12+077299999V0200501N006219999999N999999999-00731-00861999999ADDAA106000631AA224000631AZ141021KA1240M+00131KA2240N-00731REMSYN08071223 17/// /0512 11073 21086 69961 7//4/ 333 10013 21073 70006 555 32720 40201=
0097712230999992015010206004+51930-110720SAO  +077299999V020050190062199999999999999999-00731-00861999999ADDOD130100871040REMAWY071XCS SA 0600 AUTO8 M M M M/-07/-09/0512/M/0006 PK WND 0417 0504Z M 36MM=
0058712230999992015010207004+51930-110720SAO  +077299999V020060190067199999999999999999-00871-00991999999REMAWY049XCS SA 0700 AUTO8 M M M M/-09/-10/0613/M/ M 79MM=
0127712230999992015010208004+51930-110720SAO  +077299999V020070190072199999999999999999-00941-00951999999ADDAA101000631OD130100871060REMAWY090XCS SA 0800 AUTO8 M M M M/-09/-10/0714/M/0006 PCPN 0.6MM PAST HR PK WND 0617 0752Z M 45MM=
0097712230999992015010209004+51930-110720SAO  +077299999V020080190057199999999999999999-01051-01151999999ADDOD130100931070REMAWY071XCS SA 0900 AUTO8 M M M M/-11/-12/0811/M/0006 PK WND 0718 0807Z M 55MM=
0127712230999992015010210004+51930-110720SAO  +077299999V020080190072199999999999999999-01161-01311999999ADDAA101000431OD130100931090REMAWY090XCS SA 1000 AUTO8 M M M M/-12/-13/0814/M/0010 PCPN 0.4MM PAST HR PK WND 0918 0938Z M 61MM=
0097712230999992015010211004+51930-110720SAO  +077299999V020090190077199999999999999999-01251-01381999999ADDOD130101031080REMAWY071XCS SA 1100 AUTO8 M M M M/-13/-14/0915/M/0010 PK WND 0820 1030Z M 58MM=
0140712230999992015010212004+51933-110700FM-12+077299999V0200901N007219999999N999999999-01291-01421999999ADDAA106002031AA224002131AZ141021AZ241021KA1240M+00131KA2240N-01291REMSYN06471223 17/// /0914 11129 21142 60021 7//44 333 10013 21129 70021=
0127712230999992015010212004+51930-110720SAO  +077299999V020090190072199999999999999999-01291-01421999999ADDAA101000631OD130101081080REMAWY090XCS SA 1200 AUTO8 M M M M/-13/-14/0914/M/0016 PCPN 0.6MM PAST HR PK WND 0821 1114Z M 92MM=
0093712230999992015010213004+51930-110720SAO  +077299999V020090190072199999999999999999-01311-01441999999ADDOD130101031100REMAWY067XCS SA 1300 AUTO8 M M M M/-13/-14/0914/M/ PK WND 1020 1221Z M 14MM=
0093712230999992015010214004+51930-110720SAO  +077299999V020090190087199999999999999999-01291-01431999999ADDOD130101231090REMAWY067XCS SA 1400 AUTO8 M M M M/-13/-14/0917/M/ PK WND 0924 1358Z M 93MM=
0093712230999992015010215004+51930-110720SAO  +077299999V020090190098199999999999999999-01401-01561999999ADDOD130101341100REMAWY067XCS SA 1500 AUTO8 M M M M/-14/-16/0919/M/ PK WND 1026 1442Z M 06MM=
0093712230999992015010216004+51930-110720SAO  +077299999V020090190108199999999999999999-01451-01621999999ADDOD130101391090REMAWY067XCS SA 1600 AUTO8 M M M M/-15/-16/0921/M/ PK WND 0927 1510Z M 52MM=
0127712230999992015010217004+51930-110720SAO  +077299999V020070190082199999999999999999-01491-01551999999ADDAA101000531OD130101281090REMAWY090XCS SA 1700 AUTO8 M M M M/-15/-16/0716/M/0005 PCPN 0.5MM PAST HR PK WND 0925 1609Z M 95MM=
0132712230999992015010218004+51933-110700FM-12+077299999V0200601N008219999999N999999999-01561-01741999999ADDAA106000531AA224002631AZ141021KA1120M-00731KA2120N-01561REMSYN06471223 17/// /0616 11156 21174 69951 7//4/ 333 11073 21156 70026=
0097712230999992015010218004+51930-110720SAO  +077299999V020060190082199999999999999999-01561-01741999999ADDOD130101231070REMAWY071XCS SA 1800 AUTO8 M M M M/-16/-17/0616/M/0005 PK WND 0724 1709Z M 64MM=
0093712230999992015010219004+51930-110720SAO  +077299999V020060190108199999999999999999-01591-01781999999ADDOD130101341060REMAWY067XCS SA 1900 AUTO8 M M M M/-16/-18/0621/M/ PK WND 0626 1839Z M 98MM=
0093712230999992015010220004+51930-110720SAO  +077299999V020040190098199999999999999999-01641-01751999999ADDOD130101391060REMAWY067XCS SA 2000 AUTO8 M M M M/-16/-18/0419/M/ PK WND 0627 1910Z M 45MM=
0093712230999992015010221004+51930-110720SAO  +077299999V020050190108199999999999999999-01711-01931999999ADDOD130101391040REMAWY067XCS SA 2100 AUTO8 M M M M/-17/-19/0521/M/ PK WND 0427 2054Z M 13MM=
0093712230999992015010222004+51930-110720SAO  +077299999V020030190087199999999999999999-01761-02001999999ADDOD130101281040REMAWY067XCS SA 2200 AUTO8 M M M M/-18/-20/0317/M/ PK WND 0425 2116Z M 60MM=
0093712230999992015010223004+51930-110720SAO  +077299999V020020190077199999999999999999-01801-02021999999ADDOD130101181040REMAWY067XCS SA 2300 AUTO8 M M M M/-18/-20/0215/M/ PK WND 0423 2200Z M 02MM=
0118712230999992015010300004+51933-110700FM-12+077299999V0200201N008819999999N999999999-01881-02111999999ADDAA106000091AA224002631KA1120M-01291KA2120N-01881REMSYN05871223 16/// /0217 11188 21211 60001 333 11129 21188 70026=
0093712230999992015010300004+51930-110720SAO  +077299999V020020190087199999999999999999-01881-02111999999ADDOD130101131020REMAWY067XCS SA 0000 AUTO8 M M M M/-19/-21/0217/M/ PK WND 0222 2343Z M 81MM=
0093712230999992015010301004+51930-110720SAO  +077299999V020360190062199999999999999999-01941-02161999999ADDOD130101031010REMAWY067XCS SA 0100 AUTO8 M M M M/-19/-22/3612/M/ PK WND 0120 0001Z M 46MM=
0058712230999992015010302004+51930-110720SAO  +077299999V020350190067199999999999999999-01941-02161999999REMAWY049XCS SA 0200 AUTO8 M M M M/-19/-22/3513/M/ M 46MM=
0058712230999992015010303004+51930-110720SAO  +077299999V020360190057199999999999999999-01931-02171999999REMAWY049XCS SA 0300 AUTO8 M M M M/-19/-22/3611/M/ M 37MM=
0058712230999992015010304004+51930-110720SAO  +077299999V020360190057199999999999999999-01851-02191999999REMAWY049XCS SA 0400 AUTO8 M M M M/-19/-22/3611/M/ M 59MM=
0093712230999992015010305004+51930-110720SAO  +077299999V020350190062199999999999999999-01961-02201999999ADDOD130100871350REMAWY067XCS SA 0500 AUTO8 M M M M/-20/-22/3512/M/ PK WND 3517 0447Z M 60MM=
0134712230999992015010306004+51933-110700FM-12+077299999V0203401N005719999999N999999999-01991-02231999999ADDAA106000091AA224002131KA1240M-00731KA2240N-01991REMSYN07471223 16/// /3411 11199 21223 60001 333 11073 21199 70021 555 30927 40161=
0093712230999992015010306004+51930-110720SAO  +077299999V020340190057199999999999999999-01991-02231999999ADDOD130100931350REMAWY067XCS SA 0600 AUTO8 M M M M/-20/-22/3411/M/ PK WND 3518 0503Z M 93MM=
0058712230999992015010307004+51930-110720SAO  +077299999V020350190046199999999999999999-02031-02291999999REMAWY049XCS SA 0700 AUTO8 M M M M/-20/-23/3509/M/ M 39MM=
0058712230999992015010308004+51930-110720SAO  +077299999V020350190026199999999999999999-02051-02301999999REMAWY049XCS SA 0800 AUTO8 M M M M/-21/-23/3505/M/ M 50MM=
0058712230999992015010309004+51930-110720SAO  +077299999V020320190031199999999999999999-02031-02271999999REMAWY049XCS SA 0900 AUTO8 M M M M/-20/-23/3206/M/ M 37MM=
0058712230999992015010310004+51930-110720SAO  +077299999V020320190026199999999999999999-02041-02281999999REMAWY049XCS SA 1000 AUTO8 M M M M/-20/-23/3205/M/ M 48MM=
0058712230999992015010311004+51930-110720SAO  +077299999V020300190036199999999999999999-02131-02361999999REMAWY049XCS SA 1100 AUTO8 M M M M/-21/-24/3007/M/ M 36MM=
0118712230999992015010312004+51933-110700FM-12+077299999V0203001N005119999999N999999999-02121-02351999999ADDAA106000091AA224000531KA1240M-00731KA2240N-02151REMSYN05871223 16/// /3010 11212 21235 60001 333 11073 21215 70005=
0058712230999992015010312004+51930-110720SAO  +077299999V020300190051199999999999999999-02121-02351999999REMAWY049XCS SA 1200 AUTO8 M M M M/-21/-24/3010/M/ M 25MM=
0058712230999992015010313004+51930-110720SAO  +077299999V020300190046199999999999999999-02211-02461999999REMAWY049XCS SA 1300 AUTO8 M M M M/-22/-25/3009/M/ M 16MM=
0058712230999992015010314004+51930-110720SAO  +077299999V020290190031199999999999999999-02211-02461999999REMAWY049XCS SA 1400 AUTO8 M M M M/-22/-25/2906/M/ M 16MM=
0095712230999992015010315004+51930-110720SAO  +077299999V020300190036199999999999999999-02181-02421999999ADDAA101000431REMAWY072XCS SA 1500 AUTO8 M M M M/-22/-24/3007/M/0004 PCPN 0.4MM PAST HR M 82MM=
0062712230999992015010316004+51930-110720SAO  +077299999V020300190036199999999999999999-02131-02371999999REMAWY053XCS SA 1600 AUTO8 M M M M/-21/-24/3007/M/0004 M 37MM=
0062712230999992015010317004+51930-110720SAO  +077299999V020300190051199999999999999999-02071-02331999999REMAWY053XCS SA 1700 AUTO8 M M M M/-21/-23/3010/M/0004 M 73MM=
0132712230999992015010318004+51933-110700FM-12+077299999V0203401N004619999999N999999999-02071-02351999999ADDAA106000431AA224000431AZ141021KA1120M-01991KA2120N-02231REMSYN06471223 17/// /3409 11207 21235 69941 7//4/ 333 11199 21223 70004=
0062712230999992015010318004+51930-110720SAO  +077299999V020340190046199999999999999999-02071-02351999999REMAWY053XCS SA 1800 AUTO8 M M M M/-21/-24/3409/M/0004 M 75MM=
0058712230999992015010319004+51930-110720SAO  +077299999V020340190051199999999999999999-02081-02371999999REMAWY049XCS SA 1900 AUTO8 M M M M/-21/-24/3410/M/ M 87MM=
0093712230999992015010320004+51930-110720SAO  +077299999V020330190067199999999999999999-02161-02481999999ADDOD130100931350REMAWY067XCS SA 2000 AUTO8 M M M M/-22/-25/3313/M/ PK WND 3518 1906Z M 68MM=
0058712230999992015010321004+51930-110720SAO  +077299999V020310190062199999999999999999-02281-02611999999REMAWY049XCS SA 2100 AUTO8 M M M M/-23/-26/3112/M/ M 81MM=
0058712230999992015010322004+51930-110720SAO  +077299999V020310190036199999999999999999-02431-02781999999REMAWY049XCS SA 2200 AUTO8 M M M M/-24/-28/3107/M/ M 38MM=
0093712230999992015010323004+51930-110720SAO  +077299999V020320190062199999999999999999-02531-02911999999ADDOD130100871310REMAWY067XCS SA 2300 AUTO8 M M M M/-25/-29/3212/M/ PK WND 3117 2243Z M 31MM=
0118712230999992015010400004+51933-110700FM-12+077299999V0203101N006219999999N999999999-02751-03071999999ADDAA106000091AA224000431KA1120M-02061KA2120N-02781REMSYN05871223 16/// /3112 11275 21307 60001 333 11206 21278 70004=
0058712230999992015010400004+51930-110720SAO  +077299999V020310190062199999999999999999-02651-03071999999REMAWY049XCS SA 0000 AUTO8 M M M M/-27/-31/3112/M/ M 57MM=
0058712230999992015010401004+51930-110720SAO  +077299999V020300190051199999999999999999-02921-03151999999REMAWY049XCS SA 0100 AUTO8 M M M M/-29/-32/3010/M/ M 25MM=
0058712230999992015010402004+51930-110720SAO  +077299999V020290190051199999999999999999-02811-03151999999REMAWY049XCS SA 0200 AUTO8 M M M M/-28/-32/2910/M/ M 15MM=
0058712230999992015010403004+51930-110720SAO  +077299999V020280190057199999999999999999-02831-03141999999REMAWY049XCS SA 0300 AUTO8 M M M M/-28/-31/2811/M/ M 34MM=
0058712230999992015010404004+51930-110720SAO  +077299999V020290190051199999999999999999-02911-03231999999REMAWY049XCS SA 0400 AUTO8 M M M M/-29/-32/2910/M/ M 13MM=
0058712230999992015010405004+51930-110720SAO  +077299999V020280190041199999999999999999-02851-03281999999REMAWY049XCS SA 0500 AUTO8 M M M M/-29/-33/2808/M/ M 58MM=
0134712230999992015010406004+51933-110700FM-12+077299999V0202901N004619999999N999999999-02961-03281999999ADDAA106000091AA224000431KA1240M-01991KA2240N-02991REMSYN07471223 16/// /2909 11296 21328 60001 333 11199 21299 70004 555 33518 40200=
0058712230999992015010406004+51930-110720SAO  +077299999V020290190046199999999999999999-02961-03281999999REMAWY049XCS SA 0600 AUTO8 M M M M/-30/-33/2909/M/ M 68MM=
0058712230999992015010407004+51930-110720SAO  +077299999V020280190046199999999999999999-02921-03231999999REMAWY049XCS SA 0700 AUTO8 M M M M/-29/-32/2809/M/ M 23MM=
0058712230999992015010408004+51930-110720SAO  +077299999V020290190036199999999999999999-03041-03371999999REMAWY049XCS SA 0800 AUTO8 M M M M/-30/-34/2907/M/ M 47MM=
0058712230999992015010409004+51930-110720SAO  +077299999V020290190046199999999999999999-02991-03321999999REMAWY049XCS SA 0900 AUTO8 M M M M/-30/-33/2909/M/ M 92MM=
0058712230999992015010410004+51930-110720SAO  +077299999V020300190051199999999999999999-03131-03471999999REMAWY049XCS SA 1000 AUTO8 M M M M/-31/-35/3010/M/ M 37MM=
0058712230999992015010411004+51930-110720SAO  +077299999V020280190051199999999999999999-03091-03411999999REMAWY049XCS SA 1100 AUTO8 M M M M/-31/-34/2810/M/ M 91MM=
0118712230999992015010412004+51933-110700FM-12+077299999V0202901N004119999999N999999999-03191-03551999999ADDAA106000091AA224000431KA1240M-01991KA2240N-03191REMSYN05871223 16/// /2908 11319 21355 60001 333 11199 21319 70004=
0058712230999992015010412004+51930-110720SAO  +077299999V020290190041199999999999999999-03191-03551999999REMAWY049XCS SA 1200 AUTO8 M M M M/-32/-36/2908/M/ M 95MM=
0058712230999992015010413004+51930-110720SAO  +077299999V020290190057199999999999999999-03161-03501999999REMAWY049XCS SA 1300 AUTO8 M M M M/-32/-35/2911/M/ M 60MM=
0058712230999992015010414004+51930-110720SAO  +077299999V020280190051199999999999999999-03141-03481999999REMAWY049XCS SA 1400 AUTO8 M M M M/-31/-35/2810/M/ M 48MM=
0058712230999992015010415004+51930-110720SAO  +077299999V020280190046199999999999999999-03101-03441999999REMAWY049XCS SA 1500 AUTO8 M M M M/-31/-34/2809/M/ M 04MM=
0058712230999992015010416004+51930-110720SAO  +077299999V020280190046199999999999999999-02991-03311999999REMAWY049XCS SA 1600 AUTO8 M M M M/-30/-33/2809/M/ M 91MM=
0058712230999992015010417004+51930-110720SAO  +077299999V020280190051199999999999999999-02751-03181999999REMAWY049XCS SA 1700 AUTO8 M M M M/-28/-32/2810/M/ M 58MM=
0118712230999992015010418004+51933-110700FM-12+077299999V0202801N005119999999N999999999-02821-03141999999ADDAA106000091AA224000091KA1120M-02821KA2120N-03231REMSYN05871223 16/// /2810 11282 21314 60001 333 11282 21323 70000=
0058712230999992015010418004+51930-110720SAO  +077299999V020280190051199999999999999999-02821-03141999999REMAWY049XCS SA 1800 AUTO8 M M M M/-28/-31/2810/M/ M 24MM=
0058712230999992015010419004+51930-110720SAO  +077299999V020260190036199999999999999999-02671-02981999999REMAWY049XCS SA 1900 AUTO8 M M M M/-27/-30/2607/M/ M 78MM=
0058712230999992015010420004+51930-110720SAO  +077299999V020260190041199999999999999999-02591-02901999999REMAWY049XCS SA 2000 AUTO8 M M M M/-26/-29/2608/M/ M 90MM=
0058712230999992015010421004+51930-110720SAO  +077299999V020260190051199999999999999999-02551-02881999999REMAWY049XCS SA 2100 AUTO8 M M M M/-26/-29/2610/M/ M 58MM=
0058712230999992015010422004+51930-110720SAO  +077299999V020240190046199999999999999999-02561-02891999999REMAWY049XCS SA 2200 AUTO8 M M M M/-26/-29/2409/M/ M 69MM=
0058712230999992015010423004+51930-110720SAO  +077299999V020250190067199999999999999999-02671-03011999999REMAWY049XCS SA 2300 AUTO8 M M M M/-27/-30/2513/M/ M 71MM=
0118712230999992015010500004+51933-110700FM-12+077299999V0202401N006719999999N999999999-02851-03151999999ADDAA106000091AA224000091KA1120M-02531KA2120N-03231REMSYN05871223 16/// /2413 11285 21315 60001 333 11253 21323 70000=
0058712230999992015010500004+51930-110720SAO  +077299999V020240190067199999999999999999-02841-03151999999REMAWY049XCS SA 0000 AUTO8 M M M M/-28/-32/2413/M/ M 45MM=
0093712230999992015010501004+51930-110720SAO  +077299999V020230190062199999999999999999-02871-03181999999ADDOD130100871230REMAWY067XCS SA 0100 AUTO8 M M M M/-29/-32/2312/M/ PK WND 2317 0018Z M 78MM=
0093712230999992015010502004+51930-110720SAO  +077299999V020230190087199999999999999999-02811-03111999999ADDOD130101031230REMAWY067XCS SA 0200 AUTO8 M M M M/-28/-31/2317/M/ PK WND 2320 0155Z M 11MM=
0093712230999992015010503004+51930-110720SAO  +077299999V020230190072199999999999999999-02841-03171999999ADDOD130101031230REMAWY067XCS SA 0300 AUTO8 M M M M/-28/-32/2314/M/ PK WND 2320 0205Z M 47MM=
0058712230999992015010504004+51930-110720SAO  +077299999V020230190072199999999999999999-03011-03341999999REMAWY049XCS SA 0400 AUTO8 M M M M/-30/-33/2314/M/ M 14MM=
0058712230999992015010505004+51930-110720SAO  +077299999V020220190062199999999999999999-02991-03311999999REMAWY049XCS SA 0500 AUTO8 M M M M/-30/-33/2212/M/ M 91MM=
0134712230999992015010506004+51933-110700FM-12+077299999V0200901N002119999999N999999999-02861-03171999999ADDAA106000091AA224000091KA1240M-02531KA2240N-03231REMSYN07471223 16/// /0904 11286 21317 60001 333 11253 21323 70000 555 32320 40031=
0058712230999992015010506004+51930-110720SAO  +077299999V020090190021199999999999999999-02861-03171999999REMAWY049XCS SA 0600 AUTO8 M M M M/-29/-32/0904/M/ M 67MM=
0058712230999992015010507004+51930-110720SAO  +077299999V020080190026199999999999999999-02931-03261999999REMAWY049XCS SA 0700 AUTO8 M M M M/-29/-33/0805/M/ M 36MM=
0058712230999992015010508004+51930-110720SAO  +077299999V020080190031199999999999999999-02851-03171999999REMAWY049XCS SA 0800 AUTO8 M M M M/-29/-32/0806/M/ M 57MM=
0058712230999992015010509004+51930-110720SAO  +077299999V020080190031199999999999999999-02701-03001999999REMAWY049XCS SA 0900 AUTO8 M M M M/-27/-30/0806/M/ M 00MM=
0058712230999992015010510004+51930-110720SAO  +077299999V020090190031199999999999999999-02581-02871999999REMAWY049XCS SA 1000 AUTO8 M M M M/-26/-29/0906/M/ M 87MM=
0058712230999992015010511004+51930-110720SAO  +077299999V020070190031199999999999999999-02411-02681999999REMAWY049XCS SA 1100 AUTO8 M M M M/-24/-27/0706/M/ M 18MM=
0138712230999992015010512004+51933-110700FM-12+077299999V0200401N002119999999N999999999-02281-02521999999ADDAA106000531AA224000531AZ141021KA1240N-03001REMSYN06471223 17/// /0404 11228 21252 69951 7//4/ 333 11253 21306 70005=EQDQ01-25   2EATMX 
0095712230999992015010512004+51930-110720SAO  +077299999V020040190021199999999999999999-02281-02521999999ADDAA101000531REMAWY072XCS SA 1200 AUTO8 M M M M/-23/-25/0404/M/0005 PCPN 0.5MM PAST HR M 82MM=
0058712230999992015010513004+51930-110720SAO  +077299999V020330190026199999999999999999-02271-02531999999REMAWY049XCS SA 1300 AUTO8 M M M M/-23/-25/3305/M/ M 73MM=
0058712230999992015010514004+51930-110720SAO  +077299999V020320190041199999999999999999-02461-02721999999REMAWY049XCS SA 1400 AUTO8 M M M M/-25/-27/3208/M/ M 62MM=
0058712230999992015010515004+51930-110720SAO  +077299999V020310190046199999999999999999-02621-02901999999REMAWY049XCS SA 1500 AUTO8 M M M M/-26/-29/3109/M/ M 20MM=
0058712230999992015010516004+51930-110720SAO  +077299999V020310190046199999999999999999-02531-02801999999REMAWY049XCS SA 1600 AUTO8 M M M M/-25/-28/3109/M/ M 30MM=
0058712230999992015010517004+51930-110720SAO  +077299999V020300190046199999999999999999-02311-02581999999REMAWY049XCS SA 1700 AUTO8 M M M M/-23/-26/3009/M/ M 18MM=
0118712230999992015010518004+51933-110700FM-12+077299999V0202901N006219999999N999999999-02191-02451999999ADDAA106000091AA224000531KA1120M-02191KA2120N-03061REMSYN05871223 16/// /2912 11219 21245 60001 333 11219 21306 70005=
0058712230999992015010518004+51930-110720SAO  +077299999V020290190062199999999999999999-02191-02351999999REMAWY049XCS SA 1800 AUTO8 M M M M/-22/-24/2912/M/ M 95MM=
0093712230999992015010519004+51930-110720SAO  +077299999V020290190072199999999999999999-02191-02481999999ADDOD130100871290REMAWY067XCS SA 1900 AUTO8 M M M M/-22/-25/2914/M/ PK WND 2917 1847Z M 98MM=
0058712230999992015010520004+51930-110720SAO  +077299999V020290190067199999999999999999-02181-02501999999REMAWY049XCS SA 2000 AUTO8 M M M M/-22/-25/2913/M/ M 80MM=
0093712230999992015010521004+51930-110720SAO  +077299999V020300190062199999999999999999-02181-02521999999ADDOD130100871290REMAWY067XCS SA 2100 AUTO8 M M M M/-22/-25/3012/M/ PK WND 2917 2019Z M 82MM=
0058712230999992015010522004+51930-110720SAO  +077299999V020280190046199999999999999999-02171-02541999999REMAWY049XCS SA 2200 AUTO8 M M M M/-22/-25/2809/M/ M 74MM=
0058712230999992015010523004+51930-110720SAO  +077299999V020270190062199999999999999999-02311-02551999999REMAWY049XCS SA 2300 AUTO8 M M M M/-23/-26/2712/M/ M 15MM=
0118712230999992015010600004+51933-110700FM-12+077299999V0202801N008219999999N999999999-02271-02631999999ADDAA106000091AA224000531KA1120M-02161KA2120N-02941REMSYN05871223 16/// /2816 11227 21263 60001 333 11216 21294 70005=
0093712230999992015010600004+51930-110720SAO  +077299999V020280190082199999999999999999-02271-02631999999ADDOD130100981280REMAWY067XCS SA 0000 AUTO8 M M M M/-23/-26/2816/M/ PK WND 2819 2339Z M 73MM=
0093712230999992015010601004+51930-110720SAO  +077299999V020290190082199999999999999999-02251-02551999999ADDOD130101031290REMAWY067XCS SA 0100 AUTO8 M M M M/-23/-26/2916/M/ PK WND 2920 0005Z M 55MM=
0093712230999992015010602004+51930-110720SAO  +077299999V020290190067199999999999999999-02231-02631999999ADDOD130100871290REMAWY067XCS SA 0200 AUTO8 M M M M/-22/-26/2913/M/ PK WND 2917 0125Z M 33MM=
0058712230999992015010603004+51930-110720SAO  +077299999V020290190072199999999999999999-02161-02571999999REMAWY049XCS SA 0300 AUTO8 M M M M/-22/-26/2914/M/ M 67MM=
0058712230999992015010604004+51930-110720SAO  +077299999V020290190062199999999999999999-02111-02541999999REMAWY049XCS SA 0400 AUTO8 M M M M/-21/-25/2912/M/ M 14MM=
0058712230999992015010605004+51930-110720SAO  +077299999V020290190067199999999999999999-02041-02471999999REMAWY049XCS SA 0500 AUTO8 M M M M/-20/-25/2913/M/ M 47MM=
0134712230999992015010606004+51933-110700FM-12+077299999V0203101N006219999999N999999999-02091-02511999999ADDAA106000091AA224000531KA1240M-02031KA2240N-02941REMSYN07471223 16/// /3112 11209 21251 60001 333 11203 21294 70005 555 32920 40011=
0058712230999992015010606004+51930-110720SAO  +077299999V020310190062199999999999999999-02091-02511999999REMAWY049XCS SA 0600 AUTO8 M M M M/-21/-25/3112/M/ M 91MM=
0058712230999992015010607004+51930-110720SAO  +077299999V020320190062199999999999999999-02011-02431999999REMAWY049XCS SA 0700 AUTO8 M M M M/-20/-24/3212/M/ M 13MM=
0058712230999992015010608004+51930-110720SAO  +077299999V020320190051199999999999999999-01891-02331999999REMAWY049XCS SA 0800 AUTO8 M M M M/-19/-23/3210/M/ M 93MM=
0058712230999992015010609004+51930-110720SAO  +077299999V020330190026199999999999999999-01871-02271999999REMAWY049XCS SA 0900 AUTO8 M M M M/-19/-23/3305/M/ M 77MM=
0058712230999992015010610004+51930-110720SAO  +077299999V020350190021199999999999999999-01841-02181999999REMAWY049XCS SA 1000 AUTO8 M M M M/-18/-22/3504/M/ M 48MM=
0058712230999992015010611004+51930-110720SAO  +077299999V020280190015199999999999999999-01821-02141999999REMAWY049XCS SA 1100 AUTO8 M M M M/-18/-21/2803/M/ M 24MM=
0124712230999992015010612004+51933-110700FM-12+077299999V0203201N005119999999N999999999-01841-02151999999ADDAA106000091AA224000091KA1240N-02201REMSYN05871223 16/// /3210 11184 21215 60001 333 11203 21228 70000=EQDQ01-20   2EATMX 
0058712230999992015010612004+51930-110720SAO  +077299999V020320190051199999999999999999-01841-02151999999REMAWY049XCS SA 1200 AUTO8 M M M M/-18/-22/3210/M/ M 45MM=
0058712230999992015010613004+51930-110720SAO  +077299999V020330190051199999999999999999-01831-02131999999REMAWY049XCS SA 1300 AUTO8 M M M M/-18/-21/3310/M/ M 33MM=
0058712230999992015010614004+51930-110720SAO  +077299999V020340190057199999999999999999-01811-02071999999REMAWY049XCS SA 1400 AUTO8 M M M M/-18/-21/3411/M/ M 17MM=
0058712230999992015010615004+51930-110720SAO  +077299999V020340190046199999999999999999-01841-02081999999REMAWY049XCS SA 1500 AUTO8 M M M M/-18/-21/3409/M/ M 48MM=
0058712230999992015010616004+51930-110720SAO  +077299999V020350190046199999999999999999-01851-02101999999REMAWY049XCS SA 1600 AUTO8 M M M M/-19/-21/3509/M/ M 50MM=
0058712230999992015010617004+51930-110720SAO  +077299999V020330190031199999999999999999-01821-02071999999REMAWY049XCS SA 1700 AUTO8 M M M M/-18/-21/3306/M/ M 27MM=
0118712230999992015010618004+51933-110700FM-12+077299999V0203401N003619999999N999999999-01791-02081999999ADDAA106000091AA224000091KA1120M-01791KA2120N-02361REMSYN05871223 16/// /3407 11179 21208 60001 333 11179 21236 70000=
0058712230999992015010618004+51930-110720SAO  +077299999V020340190036199999999999999999-01791-02081999999REMAWY049XCS SA 1800 AUTO8 M M M M/-18/-21/3407/M/ M 98MM=
0058712230999992015010619004+51930-110720SAO  +077299999V020320190036199999999999999999-01751-02061999999REMAWY049XCS SA 1900 AUTO8 M M M M/-18/-21/3207/M/ M 56MM=
0058712230999992015010620004+51930-110720SAO  +077299999V020330190031199999999999999999-01731-02071999999REMAWY049XCS SA 2000 AUTO8 M M M M/-17/-21/3306/M/ M 37MM=
0058712230999992015010621004+51930-110720SAO  +077299999V020340190031199999999999999999-01741-01951999999REMAWY049XCS SA 2100 AUTO8 M M M M/-17/-20/3406/M/ M 45MM=
0058712230999992015010622004+51930-110720SAO  +077299999V020330190026199999999999999999-01811-02091999999REMAWY049XCS SA 2200 AUTO8 M M M M/-18/-21/3305/M/ M 19MM=
0058712230999992015010623004+51930-110720SAO  +077299999V020340190026199999999999999999-01911-02151999999REMAWY049XCS SA 2300 AUTO8 M M M M/-19/-22/3405/M/ M 15MM=
0118712230999992015010700004+51933-110700FM-12+077299999V0203401N001019999999N999999999-01981-02211999999ADDAA106000091AA224000091KA1120M-01721KA2120N-02171REMSYN05871223 16/// /3402 11198 21221 60001 333 11172 21217 70000=
0058712230999992015010700004+51930-110720SAO  +077299999V020340190010199999999999999999-01981-02211999999REMAWY049XCS SA 0000 AUTO8 M M M M/-20/-22/3402/M/ M 81MM=
0058712230999992015010701004+51930-110720SAO  +077299999V020300190021199999999999999999-02131-02341999999REMAWY049XCS SA 0100 AUTO8 M M M M/-21/-23/3004/M/ M 34MM=
0058712230999992015010702004+51930-110720SAO  +077299999V020310190026199999999999999999-02281-02541999999REMAWY049XCS SA 0200 AUTO8 M M M M/-23/-25/3105/M/ M 84MM=
0058712230999992015010703004+51930-110720SAO  +077299999V020280190026199999999999999999-02591-02831999999REMAWY049XCS SA 0300 AUTO8 M M M M/-26/-28/2805/M/ M 93MM=
0058712230999992015010704004+51930-110720SAO  +077299999V020280190021199999999999999999-02231-02461999999REMAWY049XCS SA 0400 AUTO8 M M M M/-22/-25/2804/M/ M 36MM=
0058712230999992015010705004+51930-110720SAO  +077299999V020300190021199999999999999999-02381-02621999999REMAWY049XCS SA 0500 AUTO8 M M M M/-24/-26/3004/M/ M 82MM=
0118712230999992015010706004+51933-110700FM-12+077299999V0202301N001519999999N999999999-02451-02711999999ADDAA106000091AA224000091KA1240M-01721KA2240N-02611REMSYN05871223 16/// /2303 11245 21271 60001 333 11172 21261 70000=
0058712230999992015010706004+51930-110720SAO  +077299999V020230190015199999999999999999-02451-02711999999REMAWY049XCS SA 0600 AUTO8 M M M M/-25/-27/2303/M/ M 51MM=
0058712230999992015010707004+51930-110720SAO  +077299999V020210190036199999999999999999-02631-02901999999REMAWY049XCS SA 0700 AUTO8 M M M M/-26/-29/2107/M/ M 30MM=
0058712230999992015010708004+51930-110720SAO  +077299999V020200190026199999999999999999-02561-02841999999REMAWY049XCS SA 0800 AUTO8 M M M M/-26/-28/2005/M/ M 64MM=
0058712230999992015010709004+51930-110720SAO  +077299999V020210190026199999999999999999-02581-02751999999REMAWY049XCS SA 0900 AUTO8 M M M M/-26/-28/2105/M/ M 85MM=
0058712230999992015010710004+51930-110720SAO  +077299999V020200190021199999999999999999-02441-02711999999REMAWY049XCS SA 1000 AUTO8 M M M M/-24/-27/2004/M/ M 41MM=
0058712230999992015010711004+51930-110720SAO  +077299999V020190190015199999999999999999-02441-02711999999REMAWY049XCS SA 1100 AUTO8 M M M M/-24/-27/1903/M/ M 41MM=
0118712230999992015010712004+51933-110700FM-12+077299999V0201801N001019999999N999999999-02391-02661999999ADDAA106000091AA224000091KA1240M-01721KA2240N-02691REMSYN05871223 16/// /1802 11239 21266 60001 333 11172 21269 70000=
0058712230999992015010712004+51930-110720SAO  +077299999V020180190010199999999999999999-02391-02661999999REMAWY049XCS SA 1200 AUTO8 M M M M/-24/-27/1802/M/ M 96MM=
0058712230999992015010713004+51930-110720SAO  +077299999V020180190010199999999999999999-02261-02511999999REMAWY049XCS SA 1300 AUTO8 M M M M/-23/-25/1802/M/ M 61MM=
0058712230999992015010714004+51930-110720SAO  +077299999V020160190010199999999999999999-02251-02511999999REMAWY049XCS SA 1400 AUTO8 M M M M/-23/-25/1602/M/ M 51MM=
0058712230999992015010715004+51930-110720SAO  +077299999V020160190010199999999999999999-02071-02281999999REMAWY049XCS SA 1500 AUTO8 M M M M/-21/-23/1602/M/ M 78MM=
0058712230999992015010716004+51930-110720SAO  +077299999V020180190062199999999999999999-01671-01751999999REMAWY049XCS SA 1600 AUTO8 M M M M/-17/-18/1812/M/ M 75MM=
0093712230999992015010717004+51930-110720SAO  +077299999V020170190067199999999999999999-01531-01691999999ADDOD130100931170REMAWY067XCS SA 1700 AUTO8 M M M M/-15/-17/1713/M/ PK WND 1718 1645Z M 39MM=
0118712230999992015010718004+51933-110700FM-12+077299999V0201701N007219999999N999999999-01421-01581999999ADDAA106000091AA224000091KA1120M-01421KA2120N-02691REMSYN05871223 16/// /1714 11142 21158 60001 333 11142 21269 70000=
0093712230999992015010718004+51930-110720SAO  +077299999V020170190072199999999999999999-01421-01581999999ADDOD130101131170REMAWY067XCS SA 1800 AUTO8 M M M M/-14/-16/1714/M/ PK WND 1722 1718Z M 28MM=
0093712230999992015010719004+51930-110720SAO  +077299999V020160190067199999999999999999-01291-01511999999ADDOD130101031160REMAWY067XCS SA 1900 AUTO8 M M M M/-13/-15/1613/M/ PK WND 1620 1820Z M 91MM=
0093712230999992015010720004+51930-110720SAO  +077299999V020180190082199999999999999999-01181-01461999999ADDOD130101081180REMAWY067XCS SA 2000 AUTO8 M M M M/-12/-15/1816/M/ PK WND 1821 1955Z M 86MM=
0093712230999992015010721004+51930-110720SAO  +077299999V020190190067199999999999999999-01171-01441999999ADDOD130101131180REMAWY067XCS SA 2100 AUTO8 M M M M/-12/-14/1913/M/ PK WND 1822 2006Z M 74MM=
0093712230999992015010722004+51930-110720SAO  +077299999V020230190067199999999999999999-01101-01331999999ADDOD130100871220REMAWY067XCS SA 2200 AUTO8 M M M M/-11/-13/2313/M/ PK WND 2217 2154Z M 03MM=
0093712230999992015010723004+51930-110720SAO  +077299999V020250190067199999999999999999-01071-01301999999ADDOD130100981250REMAWY067XCS SA 2300 AUTO8 M M M M/-11/-13/2513/M/ PK WND 2519 2248Z M 70MM=
0118712230999992015010800004+51933-110700FM-12+077299999V0202601N005719999999N999999999-01091-01301999999ADDAA106000091AA224000091KA1120M-01071KA2120N-02691REMSYN05871223 16/// /2611 11109 21130 60001 333 11107 21269 70000=
0058712230999992015010800004+51930-110720SAO  +077299999V020260190057199999999999999999-01091-01301999999REMAWY049XCS SA 0000 AUTO8 M M M M/-11/-13/2611/M/ M 90MM=
0093712230999992015010801004+51930-110720SAO  +077299999V020300190082199999999999999999-01061-01271999999ADDOD130101031290REMAWY067XCS SA 0100 AUTO8 M M M M/-11/-13/3016/M/ PK WND 2920 0042Z M 67MM=
0093712230999992015010802004+51930-110720SAO  +077299999V020300190098199999999999999999-00931-01161999999ADDOD130101231300REMAWY067XCS SA 0200 AUTO8 M M M M/-09/-12/3019/M/ PK WND 3024 0156Z M 36MM=
0093712230999992015010803004+51930-110720SAO  +077299999V020320190103199999999999999999-00771-00951999999ADDOD130101231320REMAWY067XCS SA 0300 AUTO8 M M M M/-08/-10/3220/M/ PK WND 3224 0259Z M 75MM=
0093712230999992015010804004+51930-110720SAO  +077299999V020320190128199999999999999999-00811-01001999999ADDOD130101641320REMAWY067XCS SA 0400 AUTO8 M M M M/-08/-10/3225/M/ PK WND 3232 0357Z M 10MM=
0127712230999992015010805004+51930-110720SAO  +077299999V020330190149199999999999999999-01031-01261999999ADDAA101000431OD130102001320REMAWY090XCS SA 0500 AUTO8 M M M M/-10/-13/3329/M/0004 PCPN 0.4MM PAST HR PK WND 3239 0430Z M 36MM=
0148712230999992015010806004+51933-110700FM-12+077299999V0203201N012919999999N999999999-01251-01501999999ADDAA106000431AA224000431AZ141021KA1240M-00761KA2240N-02691REMSYN08071223 17/// /3225 11125 21150 69941 7//4/ 333 11076 21269 70004 555 33239 40052=
0097712230999992015010806004+51930-110720SAO  +077299999V020320190128199999999999999999-01251-01501999999ADDOD130101951340REMAWY071XCS SA 0600 AUTO8 M M M M/-13/-15/3225/M/0004 PK WND 3438 0508Z M 50MM=
0093712230999992015010807004+51930-110720SAO  +077299999V020330190128199999999999999999-01311-01561999999ADDOD130101901330REMAWY067XCS SA 0700 AUTO8 M M M M/-13/-16/3325/M/ PK WND 3337 0649Z M 16MM=
0093712230999992015010808004+51930-110720SAO  +077299999V020330190139199999999999999999-01251-01601999999ADDOD130101951330REMAWY067XCS SA 0800 AUTO8 M M M M/-13/-16/3327/M/ PK WND 3338 0723Z M 50MM=
0093712230999992015010809004+51930-110720SAO  +077299999V020330190113199999999999999999-01381-01631999999ADDOD130101851330REMAWY067XCS SA 0900 AUTO8 M M M M/-14/-16/3322/M/ PK WND 3336 0805Z M 83MM=
0093712230999992015010810004+51930-110720SAO  +077299999V020330190144199999999999999999-01421-01671999999ADDOD130101901330REMAWY067XCS SA 1000 AUTO8 M M M M/-14/-17/3328/M/ PK WND 3337 0956Z M 27MM=
0093712230999992015010811004+51930-110720SAO  +077299999V020330190134199999999999999999-01451-01711999999ADDOD130101901330REMAWY067XCS SA 1100 AUTO8 M M M M/-15/-17/3326/M/ PK WND 3337 1026Z M 51MM=
0118712230999992015010812004+51933-110700FM-12+077299999V0203301N012919999999N999999999-01531-01821999999ADDAA106000091AA224000431KA1240M-00761KA2240N-01531REMSYN05871223 16/// /3325 11153 21182 60001 333 11076 21153 70004=
0093712230999992015010812004+51930-110720SAO  +077299999V020330190128199999999999999999-01531-01821999999ADDOD130101801320REMAWY067XCS SA 1200 AUTO8 M M M M/-15/-18/3325/M/ PK WND 3235 1148Z M 32MM=
0093712230999992015010813004+51930-110720SAO  +077299999V020330190123199999999999999999-01561-01841999999ADDOD130101701330REMAWY067XCS SA 1300 AUTO8 M M M M/-16/-18/3324/M/ PK WND 3333 1200Z M 64MM=
0093712230999992015010814004+51930-110720SAO  +077299999V020320190128199999999999999999-01561-01861999999ADDOD130101701320REMAWY067XCS SA 1400 AUTO8 M M M M/-16/-19/3225/M/ PK WND 3233 1332Z M 66MM=
0093712230999992015010815004+51930-110720SAO  +077299999V020320190118199999999999999999-01581-01911999999ADDOD130101641330REMAWY067XCS SA 1500 AUTO8 M M M M/-16/-19/3223/M/ PK WND 3332 1423Z M 81MM=
0093712230999992015010816004+51930-110720SAO  +077299999V020310190103199999999999999999-01661-01971999999ADDOD130101491310REMAWY067XCS SA 1600 AUTO8 M M M M/-17/-20/3120/M/ PK WND 3129 1550Z M 67MM=
0093712230999992015010817004+51930-110720SAO  +077299999V020320190103199999999999999999-01671-02001999999ADDOD130101391320REMAWY067XCS SA 1700 AUTO8 M M M M/-17/-20/3220/M/ PK WND 3227 1625Z M 70MM=
0118712230999992015010818004+51933-110700FM-12+077299999V0203201N010319999999N999999999-01701-02031999999ADDAA106000091AA224000431KA1120M-01251KA2120N-01701REMSYN05871223 16/// /3220 11170 21203 60001 333 11125 21170 70004=
0093712230999992015010818004+51930-110720SAO  +077299999V020320190103199999999999999999-01701-02031999999ADDOD130101491310REMAWY067XCS SA 1800 AUTO8 M M M M/-17/-20/3220/M/ PK WND 3129 1706Z M 03MM=
0093712230999992015010819004+51930-110720SAO  +077299999V020320190108199999999999999999-01751-02101999999ADDOD130101491320REMAWY067XCS SA 1900 AUTO8 M M M M/-18/-21/3221/M/ PK WND 3229 1850Z M 50MM=
0093712230999992015010820004+51930-110720SAO  +077299999V020310190108199999999999999999-01791-02231999999ADDOD130101491320REMAWY067XCS SA 2000 AUTO8 M M M M/-18/-22/3121/M/ PK WND 3229 1932Z M 93MM=
0093712230999992015010821004+51930-110720SAO  +077299999V020320190118199999999999999999-01791-02271999999ADDOD130101701310REMAWY067XCS SA 2100 AUTO8 M M M M/-18/-23/3223/M/ PK WND 3133 2022Z M 97MM=
0093712230999992015010822004+51930-110720SAO  +077299999V020310190113199999999999999999-01791-02341999999ADDOD130101491320REMAWY067XCS SA 2200 AUTO8 M M M M/-18/-23/3122/M/ PK WND 3229 2123Z M 94MM=
0093712230999992015010823004+51930-110720SAO  +077299999V020310190087199999999999999999-01821-02341999999ADDOD130101391320REMAWY067XCS SA 2300 AUTO8 M M M M/-18/-23/3117/M/ PK WND 3227 2233Z M 24MM=
0118712230999992015010900004+51933-110700FM-12+077299999V0203001N007219999999N999999999-01951-02381999999ADDAA106000091AA224000431KA1120M-01531KA2120N-01951REMSYN05871223 16/// /3014 11195 21238 60001 333 11153 21195 70004=
0093712230999992015010900004+51930-110720SAO  +077299999V020300190072199999999999999999-01951-02381999999ADDOD130101131310REMAWY067XCS SA 0000 AUTO8 M M M M/-20/-24/3014/M/ PK WND 3122 2327Z M 58MM=
0093712230999992015010901004+51930-110720SAO  +077299999V020300190082199999999999999999-02001-02381999999ADDOD130100981310REMAWY067XCS SA 0100 AUTO8 M M M M/-20/-24/3016/M/ PK WND 3119 0010Z M 08MM=
0093712230999992015010902004+51930-110720SAO  +077299999V020300190067199999999999999999-02071-02431999999ADDOD130100871300REMAWY067XCS SA 0200 AUTO8 M M M M/-21/-24/3013/M/ PK WND 3017 0102Z M 73MM=
0058712230999992015010903004+51930-110720SAO  +077299999V020290190057199999999999999999-02211-02531999999REMAWY049XCS SA 0300 AUTO8 M M M M/-22/-25/2911/M/ M 13MM=
0058712230999992015010904004+51930-110720SAO  +077299999V020290190062199999999999999999-02231-02551999999REMAWY049XCS SA 0400 AUTO8 M M M M/-22/-26/2912/M/ M 35MM=
0058712230999992015010905004+51930-110720SAO  +077299999V020280190057199999999999999999-02271-02581999999REMAWY049XCS SA 0500 AUTO8 M M M M/-23/-26/2811/M/ M 78MM=
0134712230999992015010906004+51933-110700FM-12+077299999V0203101N002619999999N999999999-02411-02711999999ADDAA106000091AA224000091KA1240M-01251KA2240N-02411REMSYN07471223 16/// /3105 11241 21271 60001 333 11125 21241 70000 555 33338 40082=
0058712230999992015010906004+51930-110720SAO  +077299999V020310190026199999999999999999-02411-02711999999REMAWY049XCS SA 0600 AUTO8 M M M M/-24/-27/3105/M/ M 11MM=
0058712230999992015010907004+51930-110720SAO  +077299999V020280190036199999999999999999-02441-02731999999REMAWY049XCS SA 0700 AUTO8 M M M M/-24/-27/2807/M/ M 43MM=
0058712230999992015010908004+51930-110720SAO  +077299999V020280190041199999999999999999-02461-02741999999REMAWY049XCS SA 0800 AUTO8 M M M M/-25/-27/2808/M/ M 64MM=
0058712230999992015010909004+51930-110720SAO  +077299999V020290190036199999999999999999-02431-02701999999REMAWY049XCS SA 0900 AUTO8 M M M M/-24/-27/2907/M/ M 30MM=
0058712230999992015010910004+51930-110720SAO  +077299999V020270190031199999999999999999-02541-02821999999REMAWY049XCS SA 1000 AUTO8 M M M M/-25/-28/2706/M/ M 42MM=
0058712230999992015010911004+51930-110720SAO  +077299999V020240190026199999999999999999-02901-03221999999REMAWY049XCS SA 1100 AUTO8 M M M M/-29/-32/2405/M/ M 02MM=
0118712230999992015010912004+51933-110700FM-12+077299999V0202301N003619999999N999999999-02841-03141999999ADDAA106000091AA224000091KA1240M-01251KA2240N-02921REMSYN05871223 16/// /2307 11284 21314 60001 333 11125 21292 70000=
0058712230999992015010912004+51930-110720SAO  +077299999V020230190036199999999999999999-02841-03141999999REMAWY049XCS SA 1200 AUTO8 M M M M/-28/-31/2307/M/ M 44MM=
0058712230999992015010913004+51930-110720SAO  +077299999V020220190057199999999999999999-02671-02941999999REMAWY049XCS SA 1300 AUTO8 M M M M/-27/-29/2211/M/ M 74MM=
0058712230999992015010914004+51930-110720SAO  +077299999V020240190041199999999999999999-02321-02591999999REMAWY049XCS SA 1400 AUTO8 M M M M/-23/-26/2408/M/ M 29MM=
0058712230999992015010915004+51930-110720SAO  +077299999V020260190031199999999999999999-02401-02691999999REMAWY049XCS SA 1500 AUTO8 M M M M/-24/-27/2606/M/ M 09MM=
0058712230999992015010916004+51930-110720SAO  +077299999V020170190015199999999999999999-02781-03101999999REMAWY049XCS SA 1600 AUTO8 M M M M/-28/-31/1703/M/ M 80MM=
0058712230999992015010917004+51930-110720SAO  +077299999V020210190026199999999999999999-02561-02751999999REMAWY049XCS SA 1700 AUTO8 M M M M/-26/-28/2105/M/ M 65MM=
0118712230999992015010918004+51933-110700FM-12+077299999V0202201N003119999999N999999999-02361-02621999999ADDAA106000091AA224000091KA1120M-02301KA2120N-02921REMSYN05871223 16/// /2206 11236 21262 60001 333 11230 21292 70000=
0058712230999992015010918004+51930-110720SAO  +077299999V020220190031199999999999999999-02361-02621999999REMAWY049XCS SA 1800 AUTO8 M M M M/-24/-26/2206/M/ M 62MM=
0058712230999992015010919004+51930-110720SAO  +077299999V020150190010199999999999999999-02041-02371999999REMAWY049XCS SA 1900 AUTO8 M M M M/-20/-24/1502/M/ M 47MM=
0058712230999992015010920004+51930-110720SAO  +077299999V020160190015199999999999999999-02051-02461999999REMAWY049XCS SA 2000 AUTO8 M M M M/-21/-25/1603/M/ M 56MM=
0058712230999992015010921004+51930-110720SAO  +077299999V020190190026199999999999999999-01831-02151999999REMAWY049XCS SA 2100 AUTO8 M M M M/-18/-22/1905/M/ M 35MM=
0058712230999992015010922004+51930-110720SAO  +077299999V020150190015199999999999999999-01951-02411999999REMAWY049XCS SA 2200 AUTO8 M M M M/-20/-24/1503/M/ M 51MM=
0058712230999992015010923004+51930-110720SAO  +077299999V020100190021199999999999999999-02241-02601999999REMAWY049XCS SA 2300 AUTO8 M M M M/-22/-26/1004/M/ M 40MM=
0118712230999992015011000004+51933-110700FM-12+077299999V0201601N002119999999N999999999-02231-02551999999ADDAA106000091AA224000091KA1120M-01831KA2120N-02921REMSYN05871223 16/// /1604 11223 21255 60001 333 11183 21292 70000=
0058712230999992015011000004+51930-110720SAO  +077299999V020160190021199999999999999999-02221-02551999999REMAWY049XCS SA 0000 AUTO8 M M M M/-22/-26/1604/M/ M 25MM=
0058712230999992015011001004+51930-110720SAO  +077299999V020140190005199999999999999999-02171-02491999999REMAWY049XCS SA 0100 AUTO8 M M M M/-22/-25/1401/M/ M 79MM=
0058712230999992015011002004+51930-110720SAO  +077299999V020220190026199999999999999999-02061-02391999999REMAWY049XCS SA 0200 AUTO8 M M M M/-21/-24/2205/M/ M 69MM=
0058712230999992015011003004+51930-110720SAO  +077299999V020220190010199999999999999999-02011-02331999999REMAWY049XCS SA 0300 AUTO8 M M M M/-20/-23/2202/M/ M 13MM=
0058712230999992015011004004+51930-110720SAO  +077299999V020220190026199999999999999999-01851-02281999999REMAWY049XCS SA 0400 AUTO8 M M M M/-19/-23/2205/M/ M 58MM=
0058712230999992015011005004+51930-110720SAO  +077299999V020300190036199999999999999999-01991-02341999999REMAWY049XCS SA 0500 AUTO8 M M M M/-20/-23/3007/M/ M 94MM=
0118712230999992015011006004+51933-110700FM-12+077299999V0203101N004119999999N999999999-01951-02251999999ADDAA106000091AA224000091KA1240M-01831KA2240N-02921REMSYN05871223 16/// /3108 11195 21225 60001 333 11183 21292 70000=
0058712230999992015011006004+51930-110720SAO  +077299999V020310190041199999999999999999-01851-02151999999REMAWY049XCS SA 0600 AUTO8 M M M M/-19/-22/3108/M/ M 55MM=
0093712230999992015011007004+51930-110720SAO  +077299999V020320190072199999999999999999-01681-02011999999ADDOD130100871320REMAWY067XCS SA 0700 AUTO8 M M M M/-17/-20/3214/M/ PK WND 3217 0656Z M 81MM=
0093712230999992015011008004+51930-110720SAO  +077299999V020330190087199999999999999999-01651-02021999999ADDOD130101081330REMAWY067XCS SA 0800 AUTO8 M M M M/-17/-20/3317/M/ PK WND 3321 0751Z M 52MM=
0093712230999992015011009004+51930-110720SAO  +077299999V020340190087199999999999999999-01731-02121999999ADDOD130101131330REMAWY067XCS SA 0900 AUTO8 M M M M/-17/-21/3417/M/ PK WND 3322 0814Z M 32MM=
0093712230999992015011010004+51930-110720SAO  +077299999V020350190057199999999999999999-01781-02151999999ADDOD130101131340REMAWY067XCS SA 1000 AUTO8 M M M M/-18/-22/3511/M/ PK WND 3422 0902Z M 85MM=
0058712230999992015011011004+51930-110720SAO  +077299999V020320190041199999999999999999-01821-02181999999REMAWY049XCS SA 1100 AUTO8 M M M M/-18/-22/3208/M/ M 28MM=
0118712230999992015011012004+51933-110700FM-12+077299999V0203301N005719999999N999999999-01841-02231999999ADDAA106000091AA224000091KA1240M-01831KA2240N-02251REMSYN05871223 16/// /3311 11184 21223 60001 333 11183 21225 70000=
0058712230999992015011012004+51930-110720SAO  +077299999V020330190057199999999999999999-01841-02231999999REMAWY049XCS SA 1200 AUTO8 M M M M/-18/-22/3311/M/ M 43MM=
0058712230999992015011013004+51930-110720SAO  +077299999V020360190031199999999999999999-01871-02241999999REMAWY049XCS SA 1300 AUTO8 M M M M/-19/-22/3606/M/ M 74MM=
0058712230999992015011014004+51930-110720SAO  +077299999V020330190036199999999999999999-01821-02201999999REMAWY049XCS SA 1400 AUTO8 M M M M/-18/-22/3307/M/ M 20MM=
0058712230999992015011015004+51930-110720SAO  +077299999V020340190026199999999999999999-01801-02191999999REMAWY049XCS SA 1500 AUTO8 M M M M/-18/-22/3405/M/ M 09MM=
0058712230999992015011016004+51930-110720SAO  +077299999V020040190026199999999999999999-01791-02171999999REMAWY049XCS SA 1600 AUTO8 M M M M/-18/-22/0405/M/ M 97MM=
0058712230999992015011017004+51930-110720SAO  +077299999V020060190021199999999999999999-01781-02221999999REMAWY049XCS SA 1700 AUTO8 M M M M/-18/-22/0604/M/ M 82MM=
0118712230999992015011018004+51933-110700FM-12+077299999V0200801N003119999999N999999999-01791-02191999999ADDAA106000091AA224000091KA1120M-01621KA2120N-02361REMSYN05871223 16/// /0806 11179 21219 60001 333 11162 21236 70000=
0058712230999992015011018004+51930-110720SAO  +077299999V020080190031199999999999999999-01791-02191999999REMAWY049XCS SA 1800 AUTO8 M M M M/-18/-22/0806/M/ M 99MM=
0058712230999992015011019004+51930-110720SAO  +077299999V020080190026199999999999999999-01761-02201999999REMAWY049XCS SA 1900 AUTO8 M M M M/-18/-22/0805/M/ M 60MM=
0058712230999992015011020004+51930-110720SAO  +077299999V020100190015199999999999999999-01711-02101999999REMAWY049XCS SA 2000 AUTO8 M M M M/-17/-21/1003/M/ M 10MM=
0058712230999992015011021004+51930-110720SAO  +077299999V020080190015199999999999999999-01691-02021999999REMAWY049XCS SA 2100 AUTO8 M M M M/-17/-20/0803/M/ M 92MM=
0058712230999992015011022004+51930-110720SAO  +077299999V020070190021199999999999999999-01681-01951999999REMAWY049XCS SA 2200 AUTO8 M M M M/-17/-20/0704/M/ M 85MM=
0058712230999992015011023004+51930-110720SAO  +077299999V020100190026199999999999999999-01711-01941999999REMAWY049XCS SA 2300 AUTO8 M M M M/-17/-19/1005/M/ M 14MM=
0118712230999992015011100004+51933-110700FM-12+077299999V0201201N001519999999N999999999-01731-01941999999ADDAA106000091AA224000091KA1120M-01681KA2120N-01951REMSYN05871223 16/// /1203 11173 21194 60001 333 11168 21195 70000=
0058712230999992015011100004+51930-110720SAO  +077299999V020120190015199999999999999999-01731-01941999999REMAWY049XCS SA 0000 AUTO8 M M M M/-17/-19/1203/M/ M 34MM=
0058712230999992015011101004+51930-110720SAO  +077299999V020140190015199999999999999999-01751-01941999999REMAWY049XCS SA 0100 AUTO8 M M M M/-18/-19/1403/M/ M 54MM=
0058712230999992015011102004+51930-110720SAO  +077299999V020070190021199999999999999999-01761-01941999999REMAWY049XCS SA 0200 AUTO8 M M M M/-18/-19/0704/M/ M 64MM=
0095712230999992015011103004+51930-110720SAO  +077299999V020060190010199999999999999999-01741-01921999999ADDAA101000531REMAWY072XCS SA 0300 AUTO8 M M M M/-17/-19/0602/M/0005 PCPN 0.5MM PAST HR M 42MM=
0062712230999992015011104004+51930-110720SAO  +077299999V020300190005199999999999999999-01711-01901999999REMAWY053XCS SA 0400 AUTO8 M M M M/-17/-19/3001/M/0005 M 10MM=
0062712230999992015011105004+51930-110720SAO  +077299999V020300190021199999999999999999-01691-01891999999REMAWY053XCS SA 0500 AUTO8 M M M M/-17/-19/3004/M/0005 M 99MM=
0148712230999992015011106004+51933-110700FM-12+077299999V0202801N003619999999N999999999-01651-01861999999ADDAA106000531AA224000531AZ141021KA1240M-01621KA2240N-01951REMSYN08071223 17/// /2807 11165 21186 69951 7//4/ 333 11162 21195 70005 555 33422 40101=
0062712230999992015011106004+51930-110720SAO  +077299999V020280190036199999999999999999-01641-01861999999REMAWY053XCS SA 0600 AUTO8 M M M M/-16/-19/2807/M/0005 M 46MM=
0058712230999992015011107004+51930-110720SAO  +077299999V020280190041199999999999999999-01641-01751999999REMAWY049XCS SA 0700 AUTO8 M M M M/-16/-18/2808/M/ M 45MM=
0058712230999992015011108004+51930-110720SAO  +077299999V020280190051199999999999999999-01821-02031999999REMAWY049XCS SA 0800 AUTO8 M M M M/-18/-20/2810/M/ M 23MM=
0058712230999992015011109004+51930-110720SAO  +077299999V020290190051199999999999999999-01871-02081999999REMAWY049XCS SA 0900 AUTO8 M M M M/-19/-21/2910/M/ M 78MM=
0058712230999992015011110004+51930-110720SAO  +077299999V020290190062199999999999999999-01901-02101999999REMAWY049XCS SA 1000 AUTO8 M M M M/-19/-21/2912/M/ M 00MM=
0058712230999992015011111004+51930-110720SAO  +077299999V020290190051199999999999999999-02011-02201999999REMAWY049XCS SA 1100 AUTO8 M M M M/-20/-22/2910/M/ M 10MM=
0118712230999992015011112004+51933-110700FM-12+077299999V0202801N004119999999N999999999-01991-02171999999ADDAA106000091AA224000531KA1240M-01621KA2240N-02081REMSYN05871223 16/// /2808 11199 21217 60001 333 11162 21208 70005=
0058712230999992015011112004+51930-110720SAO  +077299999V020280190041199999999999999999-01991-02171999999REMAWY049XCS SA 1200 AUTO8 M M M M/-20/-22/2808/M/ M 97MM=
0058712230999992015011113004+51930-110720SAO  +077299999V020290190051199999999999999999-01881-02071999999REMAWY049XCS SA 1300 AUTO8 M M M M/-19/-21/2910/M/ M 87MM=
0058712230999992015011114004+51930-110720SAO  +077299999V020290190036199999999999999999-02131-02311999999REMAWY049XCS SA 1400 AUTO8 M M M M/-21/-23/2907/M/ M 31MM=
0058712230999992015011115004+51930-110720SAO  +077299999V020290190026199999999999999999-02071-02151999999REMAWY049XCS SA 1500 AUTO8 M M M M/-21/-22/2905/M/ M 75MM=
0058712230999992015011116004+51930-110720SAO  +077299999V020280190026199999999999999999-02381-02611999999REMAWY049XCS SA 1600 AUTO8 M M M M/-24/-26/2805/M/ M 81MM=
0058712230999992015011117004+51930-110720SAO  +077299999V020290190021199999999999999999-01991-02201999999REMAWY049XCS SA 1700 AUTO8 M M M M/-20/-22/2904/M/ M 90MM=
0118712230999992015011118004+51933-110700FM-12+077299999V0202701N001519999999N999999999-01981-02201999999ADDAA106000091AA224000531KA1120M-01631KA2120N-02451REMSYN05871223 16/// /2703 11198 21220 60001 333 11163 21245 70005=
0058712230999992015011118004+51930-110720SAO  +077299999V020270190015199999999999999999-01981-02201999999REMAWY049XCS SA 1800 AUTO8 M M M M/-20/-22/2703/M/ M 80MM=
0058712230999992015011119004+51930-110720SAO  +077299999V020230190026199999999999999999-01751-02111999999REMAWY049XCS SA 1900 AUTO8 M M M M/-18/-21/2305/M/ M 51MM=
0058712230999992015011120004+51930-110720SAO  +077299999V020230190031199999999999999999-01951-02201999999REMAWY049XCS SA 2000 AUTO8 M M M M/-20/-22/2306/M/ M 50MM=
0058712230999992015011121004+51930-110720SAO  +077299999V020220190031199999999999999999-01871-02101999999REMAWY049XCS SA 2100 AUTO8 M M M M/-19/-21/2206/M/ M 70MM=
0058712230999992015011122004+51930-110720SAO  +077299999V020230190041199999999999999999-01921-02161999999REMAWY049XCS SA 2200 AUTO8 M M M M/-19/-22/2308/M/ M 26MM=
0058712230999992015011123004+51930-110720SAO  +077299999V020230190046199999999999999999-02111-02311999999REMAWY049XCS SA 2300 AUTO8 M M M M/-21/-23/2309/M/ M 11MM=
0118712230999992015011200004+51933-110700FM-12+077299999V0202101N003119999999N999999999-02291-02491999999ADDAA106000091AA224000531KA1120M-01811KA2120N-02451REMSYN05871223 16/// /2106 11229 21249 60001 333 11181 21245 70005=
0058712230999992015011200004+51930-110720SAO  +077299999V020210190031199999999999999999-02291-02491999999REMAWY049XCS SA 0000 AUTO8 M M M M/-23/-25/2106/M/ M 99MM=
0058712230999992015011201004+51930-110720SAO  +077299999V020230190026199999999999999999-02311-02561999999REMAWY049XCS SA 0100 AUTO8 M M M M/-23/-26/2305/M/ M 16MM=
0058712230999992015011202004+51930-110720SAO  +077299999V020220190026199999999999999999-02251-02591999999REMAWY049XCS SA 0200 AUTO8 M M M M/-23/-26/2205/M/ M 59MM=
0058712230999992015011203004+51930-110720SAO  +077299999V020210190015199999999999999999-02211-02461999999REMAWY049XCS SA 0300 AUTO8 M M M M/-22/-25/2103/M/ M 16MM=
0058712230999992015011204004+51930-110720SAO  +077299999V020220190010199999999999999999-02121-02351999999REMAWY049XCS SA 0400 AUTO8 M M M M/-21/-24/2202/M/ M 25MM=
0058712230999992015011205004+51930-110720SAO  +077299999V020210190005199999999999999999-02261-02511999999REMAWY049XCS SA 0500 AUTO8 M M M M/-23/-25/2101/M/ M 61MM=
0118712230999992015011206004+51933-110700FM-12+077299999V0202001N000519999999N999999999-02331-02591999999ADDAA106000091AA224000091KA1240M-01631KA2240N-02451REMSYN05871223 16/// /2001 11233 21259 60001 333 11163 21245 70000=
0058712230999992015011206004+51930-110720SAO  +077299999V020200190005199999999999999999-02331-02591999999REMAWY049XCS SA 0600 AUTO8 M M M M/-23/-26/2001/M/ M 39MM=
0058712230999992015011207004+51930-110720SAO  +077299999V020360190000199999999999999999-02161-02391999999REMAWY049XCS SA 0700 AUTO8 M M M M/-22/-24/0000/M/ M 69MM=
0058712230999992015011208004+51930-110720SAO  +077299999V020190190005199999999999999999-02161-02391999999REMAWY049XCS SA 0800 AUTO8 M M M M/-22/-24/1901/M/ M 69MM=
0095712230999992015011209004+51930-110720SAO  +077299999V020180190005199999999999999999-02121-02351999999ADDAA101000431REMAWY072XCS SA 0900 AUTO8 M M M M/-21/-24/1801/M/0004 PCPN 0.4MM PAST HR M 25MM=
0062712230999992015011210004+51930-110720SAO  +077299999V020190190005199999999999999999-02121-02341999999REMAWY053XCS SA 1000 AUTO8 M M M M/-21/-23/1901/M/0004 M 24MM=
0062712230999992015011211004+51930-110720SAO  +077299999V020210190005199999999999999999-02171-02411999999REMAWY053XCS SA 1100 AUTO8 M M M M/-22/-24/2101/M/0004 M 71MM=
0132712230999992015011212004+51933-110700FM-12+077299999V0201901N000519999999N999999999-02171-02421999999ADDAA106000431AA224000431AZ141021KA1240M-01631KA2240N-02361REMSYN06471223 17/// /1901 11217 21242 69941 7//4/ 333 11163 21236 70004=
0062712230999992015011212004+51930-110720SAO  +077299999V020190190005199999999999999999-02171-02421999999REMAWY053XCS SA 1200 AUTO8 M M M M/-22/-24/1901/M/0004 M 72MM=
0058712230999992015011213004+51930-110720SAO  +077299999V020360190000199999999999999999-02081-02321999999REMAWY049XCS SA 1300 AUTO8 M M M M/-21/-23/0000/M/ M 82MM=
0058712230999992015011214004+51930-110720SAO  +077299999V020360190000199999999999999999-02151-02501999999REMAWY049XCS SA 1400 AUTO8 M M M M/-22/-25/0000/M/ M 50MM=
0058712230999992015011215004+51930-110720SAO  +077299999V020360190000199999999999999999-02181-02421999999REMAWY049XCS SA 1500 AUTO8 M M M M/-22/-24/0000/M/ M 82MM=
0058712230999992015011216004+51930-110720SAO  +077299999V020360190000199999999999999999-02191-02431999999REMAWY049XCS SA 1600 AUTO8 M M M M/-22/-24/0000/M/ M 93MM=
0058712230999992015011217004+51930-110720SAO  +077299999V020180190005199999999999999999-01971-02221999999REMAWY049XCS SA 1700 AUTO8 M M M M/-20/-22/1801/M/ M 72MM=
0118712230999992015011218004+51933-110700FM-12+077299999V0202001N004119999999N999999999-01531-01701999999ADDAA106000091AA224000431KA1120M-01531KA2120N-02361REMSYN05871223 16/// /2008 11153 21170 60001 333 11153 21236 70004=
0058712230999992015011218004+51930-110720SAO  +077299999V020200190041199999999999999999-01531-01701999999REMAWY049XCS SA 1800 AUTO8 M M M M/-15/-17/2008/M/ M 30MM=
0093712230999992015011219004+51930-110720SAO  +077299999V020230190072199999999999999999-01321-01481999999ADDOD130100931230REMAWY067XCS SA 1900 AUTO8 M M M M/-13/-15/2314/M/ PK WND 2318 1858Z M 28MM=
0093712230999992015011220004+51930-110720SAO  +077299999V020230190082199999999999999999-01321-01531999999ADDOD130101081230REMAWY067XCS SA 2000 AUTO8 M M M M/-13/-15/2316/M/ PK WND 2321 1913Z M 23MM=
0093712230999992015011221004+51930-110720SAO  +077299999V020240190093199999999999999999-01321-01571999999ADDOD130101181230REMAWY067XCS SA 2100 AUTO8 M M M M/-13/-16/2418/M/ PK WND 2323 2054Z M 27MM=
0093712230999992015011222004+51930-110720SAO  +077299999V020240190072199999999999999999-01371-01641999999ADDOD130101081230REMAWY067XCS SA 2200 AUTO8 M M M M/-14/-16/2414/M/ PK WND 2321 2127Z M 74MM=
0093712230999992015011223004+51930-110720SAO  +077299999V020250190067199999999999999999-01501-01751999999ADDOD130100871230REMAWY067XCS SA 2300 AUTO8 M M M M/-15/-18/2513/M/ PK WND 2317 2216Z M 05MM=
0118712230999992015011300004+51933-110700FM-12+077299999V0202401N006219999999N999999999-01661-01871999999ADDAA106000091AA224000431KA1120M-01291KA2120N-02331REMSYN05871223 16/// /2412 11166 21187 60001 333 11129 21233 70004=
0058712230999992015011300004+51930-110720SAO  +077299999V020240190062199999999999999999-01661-01871999999REMAWY049XCS SA 0000 AUTO8 M M M M/-17/-19/2412/M/ M 67MM=
0058712230999992015011301004+51930-110720SAO  +077299999V020260190057199999999999999999-01671-01821999999REMAWY049XCS SA 0100 AUTO8 M M M M/-17/-18/2611/M/ M 72MM=
0058712230999992015011302004+51930-110720SAO  +077299999V020280190062199999999999999999-01151-01391999999REMAWY049XCS SA 0200 AUTO8 M M M M/-12/-14/2812/M/ M 59MM=
0058712230999992015011303004+51930-110720SAO  +077299999V020290190057199999999999999999-01221-01361999999REMAWY049XCS SA 0300 AUTO8 M M M M/-12/-14/2911/M/ M 26MM=
0058712230999992015011304004+51930-110720SAO  +077299999V020280190036199999999999999999-01371-01511999999REMAWY049XCS SA 0400 AUTO8 M M M M/-14/-15/2807/M/ M 71MM=
0058712230999992015011305004+51930-110720SAO  +077299999V020280190057199999999999999999-01091-01201999999REMAWY049XCS SA 0500 AUTO8 M M M M/-11/-12/2811/M/ M 90MM=
0134712230999992015011306004+51933-110700FM-12+077299999V0202901N004119999999N999999999-01121-01271999999ADDAA106000091AA224000431KA1240M-01081KA2240N-02331REMSYN07471223 16/// /2908 11112 21127 60001 333 11108 21233 70004 555 32323 40211=
0058712230999992015011306004+51930-110720SAO  +077299999V020290190041199999999999999999-01121-01271999999REMAWY049XCS SA 0600 AUTO8 M M M M/-11/-13/2908/M/ M 27MM=
0058712230999992015011307004+51930-110720SAO  +077299999V020280190057199999999999999999-01081-01271999999REMAWY049XCS SA 0700 AUTO8 M M M M/-11/-13/2811/M/ M 87MM=
0058712230999992015011308004+51930-110720SAO  +077299999V020270190057199999999999999999-00981-01151999999REMAWY049XCS SA 0800 AUTO8 M M M M/-10/-12/2711/M/ M 85MM=
0058712230999992015011309004+51930-110720SAO  +077299999V020260190051199999999999999999-01081-01281999999REMAWY049XCS SA 0900 AUTO8 M M M M/-11/-13/2610/M/ M 88MM=
0093712230999992015011310004+51930-110720SAO  +077299999V020260190087199999999999999999-00991-01231999999ADDOD130101031270REMAWY067XCS SA 1000 AUTO8 M M M M/-10/-12/2617/M/ PK WND 2720 0951Z M 93MM=
0093712230999992015011311004+51930-110720SAO  +077299999V020260190077199999999999999999-00961-01221999999ADDOD130100931260REMAWY067XCS SA 1100 AUTO8 M M M M/-10/-12/2615/M/ PK WND 2618 1039Z M 62MM=
0137712230999992015011312004+51933-110700FM-12+077299999V0202701N009319999999N999999999-00971-01261999999ADDAA106000091AA224000091KA1240M+99999KA2240N-01751REMSYN05871223 16/// /2718 11097 21126 60001 333 11108 21175 70000=EQDQ01 -01082ATMX  
0093712230999992015011312004+51930-110720SAO  +077299999V020270190093199999999999999999-00971-01261999999ADDOD130101031270REMAWY067XCS SA 1200 AUTO8 M M M M/-10/-13/2718/M/ PK WND 2720 1156Z M 76MM=
0093712230999992015011313004+51930-110720SAO  +077299999V020280190082199999999999999999-00861-01211999999ADDOD130101031270REMAWY067XCS SA 1300 AUTO8 M M M M/-09/-12/2816/M/ PK WND 2720 1200Z M 61MM=
0093712230999992015011314004+51930-110720SAO  +077299999V020280190082199999999999999999-00911-01241999999ADDOD130101031280REMAWY067XCS SA 1400 AUTO8 M M M M/-09/-12/2816/M/ PK WND 2820 1316Z M 14MM=
0093712230999992015011315004+51930-110720SAO  +077299999V020280190067199999999999999999-00861-01181999999ADDOD130100981290REMAWY067XCS SA 1500 AUTO8 M M M M/-09/-12/2813/M/ PK WND 2919 1400Z M 68MM=
0058712230999992015011316004+51930-110720SAO  +077299999V020280190057199999999999999999-00831-01171999999REMAWY049XCS SA 1600 AUTO8 M M M M/-08/-12/2811/M/ M 37MM=
0058712230999992015011317004+51930-110720SAO  +077299999V020280190051199999999999999999-00731-01081999999REMAWY049XCS SA 1700 AUTO8 M M M M/-07/-11/2810/M/ M 38MM=
0118712230999992015011318004+51933-110700FM-12+077299999V0202801N006219999999N999999999-00601-01021999999ADDAA106000091AA224000091KA1120M-00601KA2120N-01751REMSYN05871223 16/// /2812 11060 21102 60001 333 11060 21175 70000=
0058712230999992015011318004+51930-110720SAO  +077299999V020280190062199999999999999999-00601-01021999999REMAWY049XCS SA 1800 AUTO8 M M M M/-06/-10/2812/M/ M 02MM=
0058712230999992015011319004+51930-110720SAO  +077299999V020270190046199999999999999999-00471-00951999999REMAWY049XCS SA 1900 AUTO8 M M M M/-05/-10/2709/M/ M 75MM=
0058712230999992015011320004+51930-110720SAO  +077299999V020280190041199999999999999999-00331-00841999999REMAWY049XCS SA 2000 AUTO8 M M M M/-03/-08/2808/M/ M 34MM=
0058712230999992015011321004+51930-110720SAO  +077299999V020260190051199999999999999999-00361-00821999999REMAWY049XCS SA 2100 AUTO8 M M M M/-04/-08/2610/M/ M 62MM=
0058712230999992015011322004+51930-110720SAO  +077299999V020260190051199999999999999999-00321-00711999999REMAWY049XCS SA 2200 AUTO8 M M M M/-03/-07/2610/M/ M 21MM=
0058712230999992015011323004+51930-110720SAO  +077299999V020240190036199999999999999999-00481-00741999999REMAWY049XCS SA 2300 AUTO8 M M M M/-05/-07/2407/M/ M 84MM=
0118712230999992015011400004+51933-110700FM-12+077299999V0202201N005119999999N999999999-00481-00671999999ADDAA106000091AA224000091KA1120M-00281KA2120N-01141REMSYN05871223 16/// /2210 11048 21067 60001 333 11028 21114 70000=
0058712230999992015011400004+51930-110720SAO  +077299999V020220190051199999999999999999-00481-00671999999REMAWY049XCS SA 0000 AUTO8 M M M M/-05/-07/2210/M/ M 87MM=
0093712230999992015011401004+51930-110720SAO  +077299999V020230190072199999999999999999-00361-00601999999ADDOD130100931250REMAWY067XCS SA 0100 AUTO8 M M M M/-04/-06/2314/M/ PK WND 2518 0033Z M 60MM=
0093712230999992015011402004+51930-110720SAO  +077299999V020250190082199999999999999999-00231-00581999999ADDOD130100981250REMAWY067XCS SA 0200 AUTO8 M M M M/-02/-06/2516/M/ PK WND 2519 0152Z M 38MM=
0093712230999992015011403004+51930-110720SAO  +077299999V020240190067199999999999999999-00191-00511999999ADDOD130101031250REMAWY067XCS SA 0300 AUTO8 M M M M/-02/-05/2413/M/ PK WND 2520 0213Z M 91MM=
0058712230999992015011404004+51930-110720SAO  +077299999V020220190062199999999999999999-00251-00561999999REMAWY049XCS SA 0400 AUTO8 M M M M/-03/-06/2212/M/ M 56MM=
0093712230999992015011405004+51930-110720SAO  +077299999V020230190072199999999999999999-00211-00511999999ADDOD130100871230REMAWY067XCS SA 0500 AUTO8 M M M M/-02/-05/2314/M/ PK WND 2317 0449Z M 11MM=
0134712230999992015011406004+51933-110700FM-12+077299999V0202701N008219999999N999999999-00051-00441999999ADDAA106000091AA224000091KA1240M-00051KA2240N-01141REMSYN07471223 16/// /2716 11005 21044 60001 333 11005 21114 70000 555 32623 40061=
0093712230999992015011406004+51930-110720SAO  +077299999V020270190082199999999999999999-00051-00441999999ADDOD130101181260REMAWY067XCS SA 0600 AUTO8 M M M M/-01/-04/2716/M/ PK WND 2623 0540Z M 54MM=
0092712230999992015011407004+51930-110720SAO  +077299999V020270190072199999999999999999+00061-00361999999ADDOD130101081260REMAWY066XCS SA 0700 AUTO8 M M M M/01/-04/2714/M/ PK WND 2621 0610Z M 66MM=
0093712230999992015011408004+51930-110720SAO  +077299999V020240190062199999999999999999-00121-00371999999ADDOD130100871260REMAWY067XCS SA 0800 AUTO8 M M M M/-01/-04/2412/M/ PK WND 2617 0701Z M 27MM=
0093712230999992015011409004+51930-110720SAO  +077299999V020260190082199999999999999999-00181-00481999999ADDOD130100931260REMAWY067XCS SA 0900 AUTO8 M M M M/-02/-05/2616/M/ PK WND 2618 0819Z M 88MM=
0093712230999992015011410004+51930-110720SAO  +077299999V020270190077199999999999999999-00061-00471999999ADDOD130100931260REMAWY067XCS SA 1000 AUTO8 M M M M/-01/-05/2715/M/ PK WND 2618 0903Z M 67MM=
0093712230999992015011411004+51930-110720SAO  +077299999V020270190082199999999999999999-00151-00521999999ADDOD130101031260REMAWY067XCS SA 1100 AUTO8 M M M M/-02/-05/2716/M/ PK WND 2620 1033Z M 52MM=
0118712230999992015011412004+51933-110700FM-12+077299999V0202701N006719999999N999999999-00071-00441999999ADDAA106000091AA224000091KA1240M-00051KA2240N-00481REMSYN05871223 16/// /2713 11007 21044 60001 333 11005 21048 70000=
0093712230999992015011412004+51930-110720SAO  +077299999V020270190067199999999999999999-00071-00441999999ADDOD130100981280REMAWY067XCS SA 1200 AUTO8 M M M M/-01/-04/2713/M/ PK WND 2819 1114Z M 74MM=
0093712230999992015011413004+51930-110720SAO  +077299999V020270190082199999999999999999-00071-00351999999ADDOD130101031270REMAWY067XCS SA 1300 AUTO8 M M M M/-01/-04/2716/M/ PK WND 2720 1215Z M 75MM=
0093712230999992015011414004+51930-110720SAO  +077299999V020270190087199999999999999999-00071-00421999999ADDOD130100931270REMAWY067XCS SA 1400 AUTO8 M M M M/-01/-04/2717/M/ PK WND 2718 1358Z M 72MM=
0092712230999992015011415004+51930-110720SAO  +077299999V020280190082199999999999999999+00041-00411999999ADDOD130101031280REMAWY066XCS SA 1500 AUTO8 M M M M/00/-04/2816/M/ PK WND 2820 1458Z M 41MM=
0092712230999992015011416004+51930-110720SAO  +077299999V020280190093199999999999999999+00151-00331999999ADDOD130101081290REMAWY066XCS SA 1600 AUTO8 M M M M/02/-03/2818/M/ PK WND 2921 1555Z M 53MM=
0092712230999992015011417004+51930-110720SAO  +077299999V020270190077199999999999999999+00101-00321999999ADDOD130101081280REMAWY066XCS SA 1700 AUTO8 M M M M/01/-03/2715/M/ PK WND 2821 1623Z M 02MM=
0118712230999992015011418004+51933-110700FM-12+077299999V0202601N010319999999N999999999+00181-00361999999ADDAA106000091AA224000091KA1120M+00181KA2120N-00601REMSYN05871223 16/// /2620 10018 21036 60001 333 10018 21060 70000=
0092712230999992015011418004+51930-110720SAO  +077299999V020260190103199999999999999999+00181-00361999999ADDOD130101281270REMAWY066XCS SA 1800 AUTO8 M M M M/02/-04/2620/M/ PK WND 2725 1758Z M 86MM=
0092712230999992015011419004+51930-110720SAO  +077299999V020270190098199999999999999999+00241-00291999999ADDOD130101491250REMAWY066XCS SA 1900 AUTO8 M M M M/02/-03/2719/M/ PK WND 2529 1825Z M 49MM=
0092712230999992015011420004+51930-110720SAO  +077299999V020280190082199999999999999999+00221-00321999999ADDOD130101131270REMAWY066XCS SA 2000 AUTO8 M M M M/02/-03/2816/M/ PK WND 2722 1907Z M 22MM=
0092712230999992015011421004+51930-110720SAO  +077299999V020280190072199999999999999999+00241-00321999999ADDOD130101031280REMAWY066XCS SA 2100 AUTO8 M M M M/02/-03/2814/M/ PK WND 2820 2031Z M 42MM=
0092712230999992015011422004+51930-110720SAO  +077299999V020290190072199999999999999999+00161-00331999999ADDOD130100871290REMAWY066XCS SA 2200 AUTO8 M M M M/02/-03/2914/M/ PK WND 2917 2156Z M 63MM=
0092712230999992015011423004+51930-110720SAO  +077299999V020280190067199999999999999999+00061-00361999999ADDOD130100871280REMAWY066XCS SA 2300 AUTO8 M M M M/01/-04/2813/M/ PK WND 2817 2225Z M 66MM=
0118712230999992015011500004+51933-110700FM-12+077299999V0202801N007719999999N999999999+00011-00371999999ADDAA106000091AA224000091KA1120M+00301KA2120N-00201REMSYN05871223 16/// /2815 10001 21037 60001 333 10030 21020 70000=
0092712230999992015011500004+51930-110720SAO  +077299999V020280190077199999999999999999+00011-00371999999ADDOD130100931280REMAWY066XCS SA 0000 AUTO8 M M M M/00/-04/2815/M/ PK WND 2818 2349Z M 17MM=
0093712230999992015011501004+51930-110720SAO  +077299999V020270190072199999999999999999-00031-00361999999ADDOD130100871280REMAWY067XCS SA 0100 AUTO8 M M M M/00/-04/2714/M/ PK WND 2817 0033Z M -36MM=
0092712230999992015011502004+51930-110720SAO  +077299999V020270190072199999999999999999+00091-00221999999ADDOD130100871270REMAWY066XCS SA 0200 AUTO8 M M M M/01/-02/2714/M/ PK WND 2717 0159Z M 92MM=
0092712230999992015011503004+51930-110720SAO  +077299999V020270190072199999999999999999+00201-00171999999ADDOD130100931280REMAWY066XCS SA 0300 AUTO8 M M M M/02/-02/2714/M/ PK WND 2818 0202Z M 07MM=
0092712230999992015011504004+51930-110720SAO  +077299999V020270190067199999999999999999+00231-00171999999ADDOD130100871270REMAWY066XCS SA 0400 AUTO8 M M M M/02/-02/2713/M/ PK WND 2717 0303Z M 37MM=
0092712230999992015011505004+51930-110720SAO  +077299999V020270190077199999999999999999+00051-00271999999ADDOD130100931260REMAWY066XCS SA 0500 AUTO8 M M M M/01/-03/2715/M/ PK WND 2618 0437Z M 57MM=
0134712230999992015011506004+51933-110700FM-12+077299999V0202801N007219999999N999999999+00031-00321999999ADDAA106000091AA224000091KA1240M+00301KA2240N-00201REMSYN07471223 16/// /2814 10003 21032 60001 333 10030 21020 70000 555 32529 40191=
0092712230999992015011506004+51930-110720SAO  +077299999V020280190072199999999999999999+00031-00321999999ADDOD130100871270REMAWY066XCS SA 0600 AUTO8 M M M M/00/-03/2814/M/ PK WND 2717 0537Z M 32MM=
0093712230999992015011507004+51930-110720SAO  +077299999V020280190067199999999999999999+00001-00331999999ADDOD130100871280REMAWY067XCS SA 0700 AUTO8 M M M M/00/-03/2813/M/ PK WND 2817 0601Z M -03MM=
0058712230999992015011508004+51930-110720SAO  +077299999V020290190057199999999999999999-00331-00521999999REMAWY049XCS SA 0800 AUTO8 M M M M/-03/-05/2911/M/ M 32MM=
0058712230999992015011509004+51930-110720SAO  +077299999V020290190031199999999999999999-00321-00551999999REMAWY049XCS SA 0900 AUTO8 M M M M/-03/-06/2906/M/ M 25MM=
0058712230999992015011510004+51930-110720SAO  +077299999V020260190031199999999999999999-00421-00611999999REMAWY049XCS SA 1000 AUTO8 M M M M/-04/-06/2606/M/ M 21MM=
0058712230999992015011511004+51930-110720SAO  +077299999V020290190031199999999999999999-00341-00541999999REMAWY049XCS SA 1100 AUTO8 M M M M/-03/-05/2906/M/ M 44MM=
0118712230999992015011512004+51933-110700FM-12+077299999V0202201N006719999999N999999999-00551-00691999999ADDAA106000091AA224000091KA1240M+00301KA2240N-00571REMSYN05871223 16/// /2213 11055 21069 60001 333 10030 21057 70000=
0058712230999992015011512004+51930-110720SAO  +077299999V020220190067199999999999999999-00551-00691999999REMAWY049XCS SA 1200 AUTO8 M M M M/-06/-07/2213/M/ M 59MM=
0058712230999992015011513004+51930-110720SAO  +077299999V020230190057199999999999999999-00491-00661999999REMAWY049XCS SA 1300 AUTO8 M M M M/-05/-07/2311/M/ M 96MM=
0058712230999992015011514004+51930-110720SAO  +077299999V020240190036199999999999999999-00601-00751999999REMAWY049XCS SA 1400 AUTO8 M M M M/-06/-08/2407/M/ M 05MM=
0058712230999992015011515004+51930-110720SAO  +077299999V020220190051199999999999999999-00691-00751999999REMAWY049XCS SA 1500 AUTO8 M M M M/-07/-08/2210/M/ M 95MM=
0058712230999992015011516004+51930-110720SAO  +077299999V020190190015199999999999999999-00771-00901999999REMAWY049XCS SA 1600 AUTO8 M M M M/-08/-09/1903/M/ M 70MM=
0058712230999992015011517004+51930-110720SAO  +077299999V020210190021199999999999999999-00711-00881999999REMAWY049XCS SA 1700 AUTO8 M M M M/-07/-09/2104/M/ M 18MM=
0118712230999992015011518004+51933-110700FM-12+077299999V0201701N001519999999N999999999-00561-00821999999ADDAA106000091AA224000091KA1120M+00031KA2120N-00791REMSYN05871223 16/// /1703 11056 21082 60001 333 10003 21079 70000=
0058712230999992015011518004+51930-110720SAO  +077299999V020170190015199999999999999999-00561-00821999999REMAWY049XCS SA 1800 AUTO8 M M M M/-06/-08/1703/M/ M 62MM=
0058712230999992015011519004+51930-110720SAO  +077299999V020070190021199999999999999999-00631-00821999999REMAWY049XCS SA 1900 AUTO8 M M M M/-06/-08/0704/M/ M 32MM=
0058712230999992015011520004+51930-110720SAO  +077299999V020090190026199999999999999999-00591-00791999999REMAWY049XCS SA 2000 AUTO8 M M M M/-06/-08/0905/M/ M 99MM=
0058712230999992015011521004+51930-110720SAO  +077299999V020100190036199999999999999999-00591-00781999999REMAWY049XCS SA 2100 AUTO8 M M M M/-06/-08/1007/M/ M 98MM=
0058712230999992015011522004+51930-110720SAO  +077299999V020100190057199999999999999999-00531-00691999999REMAWY049XCS SA 2200 AUTO8 M M M M/-05/-07/1011/M/ M 39MM=
0058712230999992015011523004+51930-110720SAO  +077299999V020080190046199999999999999999-00561-00711999999REMAWY049XCS SA 2300 AUTO8 M M M M/-06/-07/0809/M/ M 61MM=
0118712230999992015011600004+51933-110700FM-12+077299999V0200901N005719999999N999999999-00651-00721999999ADDAA106000091AA224000091KA1120M-00451KA2120N-00791REMSYN05871223 16/// /0911 11065 21072 60001 333 11045 21079 70000=
0058712230999992015011600004+51930-110720SAO  +077299999V020090190057199999999999999999-00551-00721999999REMAWY049XCS SA 0000 AUTO8 M M M M/-06/-07/0911/M/ M 52MM=
0093712230999992015011601004+51930-110720SAO  +077299999V020090190051199999999999999999-00721-00771999999ADDOD130100871100REMAWY067XCS SA 0100 AUTO8 M M M M/-07/-08/0910/M/ PK WND 1017 0042Z M 27MM=
0058712230999992015011602004+51930-110720SAO  +077299999V020100190046199999999999999999-00641-00691999999REMAWY049XCS SA 0200 AUTO8 M M M M/-06/-07/1009/M/ M 49MM=
0058712230999992015011603004+51930-110720SAO  +077299999V020120190026199999999999999999-00641-00701999999REMAWY049XCS SA 0300 AUTO8 M M M M/-06/-07/1205/M/ M 40MM=
0058712230999992015011604004+51930-110720SAO  +077299999V020120190026199999999999999999-00601-00661999999REMAWY049XCS SA 0400 AUTO8 M M M M/-06/-07/1205/M/ M 06MM=
0058712230999992015011605004+51930-110720SAO  +077299999V020100190041199999999999999999-00641-00711999999REMAWY049XCS SA 0500 AUTO8 M M M M/-06/-07/1008/M/ M 41MM=
0134712230999992015011606004+51933-110700FM-12+077299999V0201101N004619999999N999999999-00711-00781999999ADDAA106000091AA224000091KA1240M+00031KA2240N-00791REMSYN07471223 16/// /1109 11071 21078 60001 333 10003 21079 70000 555 32817 40070=
0058712230999992015011606004+51930-110720SAO  +077299999V020110190046199999999999999999-00711-00781999999REMAWY049XCS SA 0600 AUTO8 M M M M/-07/-08/1109/M/ M 18MM=
0058712230999992015011607004+51930-110720SAO  +077299999V020120190041199999999999999999-00651-00821999999REMAWY049XCS SA 0700 AUTO8 M M M M/-07/-08/1208/M/ M 52MM=
0058712230999992015011608004+51930-110720SAO  +077299999V020140190041199999999999999999-00791-00861999999REMAWY049XCS SA 0800 AUTO8 M M M M/-08/-09/1408/M/ M 96MM=
0058712230999992015011609004+51930-110720SAO  +077299999V020150190031199999999999999999-00831-00911999999REMAWY049XCS SA 0900 AUTO8 M M M M/-08/-09/1506/M/ M 31MM=
0058712230999992015011610004+51930-110720SAO  +077299999V020150190010199999999999999999-00941-01041999999REMAWY049XCS SA 1000 AUTO8 M M M M/-09/-10/1502/M/ M 44MM=
0058712230999992015011611004+51930-110720SAO  +077299999V020130190015199999999999999999-00951-01151999999REMAWY049XCS SA 1100 AUTO8 M M M M/-10/-12/1303/M/ M 55MM=
0118712230999992015011612004+51933-110700FM-12+077299999V0201901N001019999999N999999999-00991-01091999999ADDAA106000091AA224000091KA1240M+00031KA2240N-01061REMSYN05871223 16/// /1902 11099 21109 60001 333 10003 21106 70000=
0058712230999992015011612004+51930-110720SAO  +077299999V020190190010199999999999999999-00991-01091999999REMAWY049XCS SA 1200 AUTO8 M M M M/-10/-11/1902/M/ M 99MM=
0058712230999992015011613004+51930-110720SAO  +077299999V020220190026199999999999999999-00881-00961999999REMAWY049XCS SA 1300 AUTO8 M M M M/-09/-10/2205/M/ M 86MM=
0058712230999992015011614004+51930-110720SAO  +077299999V020230190036199999999999999999-00831-00921999999REMAWY049XCS SA 1400 AUTO8 M M M M/-08/-09/2307/M/ M 32MM=
0093712230999992015011615004+51930-110720SAO  +077299999V020240190072199999999999999999-00441-00511999999ADDOD130100871240REMAWY067XCS SA 1500 AUTO8 M M M M/-04/-05/2414/M/ PK WND 2417 1449Z M 41MM=
0093712230999992015011616004+51930-110720SAO  +077299999V020260190067199999999999999999-00201-00271999999ADDOD130100871270REMAWY067XCS SA 1600 AUTO8 M M M M/-02/-03/2613/M/ PK WND 2717 1556Z M 07MM=
0058712230999992015011617004+51930-110720SAO  +077299999V020220190046199999999999999999-00461-00611999999REMAWY049XCS SA 1700 AUTO8 M M M M/-05/-06/2209/M/ M 61MM=
0118712230999992015011618004+51933-110700FM-12+077299999V0202301N003619999999N999999999-00361-00521999999ADDAA106000091AA224000091KA1120M-00131KA2120N-01061REMSYN05871223 16/// /2307 11036 21052 60001 333 11013 21106 70000=
0058712230999992015011618004+51930-110720SAO  +077299999V020230190036199999999999999999-00361-00521999999REMAWY049XCS SA 1800 AUTO8 M M M M/-04/-05/2307/M/ M 62MM=
0058712230999992015011619004+51930-110720SAO  +077299999V020280190062199999999999999999-00071-00421999999REMAWY049XCS SA 1900 AUTO8 M M M M/-01/-04/2812/M/ M 72MM=
0058712230999992015011620004+51930-110720SAO  +077299999V020290190067199999999999999999-00031-00361999999REMAWY049XCS SA 2000 AUTO8 M M M M/00/-04/2913/M/ M -36MM=
0092712230999992015011621004+51930-110720SAO  +077299999V020300190093199999999999999999+00121-00321999999ADDOD130101231300REMAWY066XCS SA 2100 AUTO8 M M M M/01/-03/3018/M/ PK WND 3024 2033Z M 22MM=
0091712230999992015011622004+51930-110720SAO  +077299999V020300190098199999999999999999+00141-00051999999ADDOD130101231310REMAWY065XCS SA 2200 AUTO8 M M M M/01/00/3019/M/ PK WND 3124 2103Z M 45MM=
0092712230999992015011623004+51930-110720SAO  +077299999V020300190093199999999999999999+00201-00041999999ADDOD130101131300REMAWY066XCS SA 2300 AUTO8 M M M M/02/00/3018/M/ PK WND 3022 2258Z M 0-4MM=
0118712230999992015011700004+51933-110700FM-12+077299999V0202901N009319999999N999999999+00191-00051999999ADDAA106000091AA224000091KA1120M+00211KA2120N-01061REMSYN05871223 16/// /2918 10019 21005 60001 333 10021 21106 70000=
0091712230999992015011700004+51930-110720SAO  +077299999V020290190093199999999999999999+00191-00051999999ADDOD130101131300REMAWY065XCS SA 0000 AUTO8 M M M M/02/00/2918/M/ PK WND 3022 2337Z M 95MM=
0092712230999992015011701004+51930-110720SAO  +077299999V020290190093199999999999999999+00161-00131999999ADDOD130101181290REMAWY066XCS SA 0100 AUTO8 M M M M/02/-01/2918/M/ PK WND 2923 0036Z M 63MM=
0092712230999992015011702004+51930-110720SAO  +077299999V020280190087199999999999999999+00061-00241999999ADDOD130101391290REMAWY066XCS SA 0200 AUTO8 M M M M/01/-02/2817/M/ PK WND 2927 0134Z M 64MM=
0092712230999992015011703004+51930-110720SAO  +077299999V020290190093199999999999999999+00021-00431999999ADDOD130101131290REMAWY066XCS SA 0300 AUTO8 M M M M/00/-04/2918/M/ PK WND 2922 0259Z M 23MM=
0093712230999992015011704004+51930-110720SAO  +077299999V020280190093199999999999999999-00081-00531999999ADDOD130101181290REMAWY067XCS SA 0400 AUTO8 M M M M/-01/-05/2818/M/ PK WND 2923 0335Z M 83MM=
0093712230999992015011705004+51930-110720SAO  +077299999V020290190093199999999999999999-00071-00591999999ADDOD130101131300REMAWY067XCS SA 0500 AUTO8 M M M M/-01/-06/2918/M/ PK WND 3022 0459Z M 79MM=
0134712230999992015011706004+51933-110700FM-12+077299999V0202801N008819999999N999999999-00191-00641999999ADDAA106000091AA224000091KA1240M+00211KA2240N-01061REMSYN07471223 16/// /2817 11019 21064 60001 333 10021 21106 70000 555 32927 40021=
0093712230999992015011706004+51930-110720SAO  +077299999V020280190087199999999999999999-00191-00641999999ADDOD130101131290REMAWY067XCS SA 0600 AUTO8 M M M M/-02/-06/2817/M/ PK WND 2922 0502Z M 94MM=
0093712230999992015011707004+51930-110720SAO  +077299999V020270190087199999999999999999-00371-00821999999ADDOD130101181280REMAWY067XCS SA 0700 AUTO8 M M M M/-04/-08/2717/M/ PK WND 2823 0605Z M 72MM=
0093712230999992015011708004+51930-110720SAO  +077299999V020280190098199999999999999999-00371-00861999999ADDOD130101231270REMAWY067XCS SA 0800 AUTO8 M M M M/-04/-09/2819/M/ PK WND 2724 0725Z M 76MM=
0093712230999992015011709004+51930-110720SAO  +077299999V020270190108199999999999999999-00381-00871999999ADDOD130101281270REMAWY067XCS SA 0900 AUTO8 M M M M/-04/-09/2721/M/ PK WND 2725 0836Z M 87MM=
0093712230999992015011710004+51930-110720SAO  +077299999V020270190103199999999999999999-00381-00941999999ADDOD130101231270REMAWY067XCS SA 1000 AUTO8 M M M M/-04/-09/2720/M/ PK WND 2724 0911Z M 84MM=
0093712230999992015011711004+51930-110720SAO  +077299999V020260190103199999999999999999-00331-01001999999ADDOD130101231270REMAWY067XCS SA 1100 AUTO8 M M M M/-03/-10/2620/M/ PK WND 2724 1050Z M 30MM=
0118712230999992015011712004+51933-110700FM-12+077299999V0202701N010819999999N999999999-00341-00961999999ADDAA106000091AA224000091KA1240M+00211KA2240N-00411REMSYN05871223 16/// /2721 11034 21096 60001 333 10021 21041 70000=
0093712230999992015011712004+51930-110720SAO  +077299999V020270190108199999999999999999-00341-00961999999ADDOD130101341260REMAWY067XCS SA 1200 AUTO8 M M M M/-03/-10/2721/M/ PK WND 2626 1123Z M 46MM=
0093712230999992015011713004+51930-110720SAO  +077299999V020270190108199999999999999999-00371-00951999999ADDOD130101341270REMAWY067XCS SA 1300 AUTO8 M M M M/-04/-10/2721/M/ PK WND 2726 1204Z M 75MM=
0093712230999992015011714004+51930-110720SAO  +077299999V020270190103199999999999999999-00331-00921999999ADDOD130101281280REMAWY067XCS SA 1400 AUTO8 M M M M/-03/-09/2720/M/ PK WND 2825 1310Z M 32MM=
0093712230999992015011715004+51930-110720SAO  +077299999V020280190093199999999999999999-00311-00921999999ADDOD130101181280REMAWY067XCS SA 1500 AUTO8 M M M M/-03/-09/2818/M/ PK WND 2823 1418Z M 12MM=
0093712230999992015011716004+51930-110720SAO  +077299999V020270190087199999999999999999-00301-00911999999ADDOD130101181260REMAWY067XCS SA 1600 AUTO8 M M M M/-03/-09/2717/M/ PK WND 2623 1518Z M 01MM=
0093712230999992015011717004+51930-110720SAO  +077299999V020270190072199999999999999999-00161-00751999999ADDOD130101031270REMAWY067XCS SA 1700 AUTO8 M M M M/-02/-08/2714/M/ PK WND 2720 1603Z M 65MM=
0118712230999992015011718004+51933-110700FM-12+077299999V0202601N007219999999N999999999-00041-00811999999ADDAA106000091AA224000091KA1120M-00041KA2120N-00411REMSYN05871223 16/// /2614 11004 21081 60001 333 11004 21041 70000=
0058712230999992015011718004+51930-110720SAO  +077299999V020260190072199999999999999999-00041-00811999999REMAWY049XCS SA 1800 AUTO8 M M M M/00/-08/2614/M/ M -41MM=
0093712230999992015011719004+51930-110720SAO  +077299999V020250190077199999999999999999-00171-00781999999ADDOD130100871250REMAWY067XCS SA 1900 AUTO8 M M M M/-02/-08/2515/M/ PK WND 2517 1853Z M 78MM=
0058712230999992015011720004+51930-110720SAO  +077299999V020230190067199999999999999999-00261-00701999999REMAWY049XCS SA 2000 AUTO8 M M M M/-03/-07/2313/M/ M 60MM=
0058712230999992015011721004+51930-110720SAO  +077299999V020220190062199999999999999999-00261-00681999999REMAWY049XCS SA 2100 AUTO8 M M M M/-03/-07/2212/M/ M 68MM=
0058712230999992015011722004+51930-110720SAO  +077299999V020250190046199999999999999999-00291-00771999999REMAWY049XCS SA 2200 AUTO8 M M M M/-03/-08/2509/M/ M 97MM=
0058712230999992015011723004+51930-110720SAO  +077299999V020270190026199999999999999999-00341-00861999999REMAWY049XCS SA 2300 AUTO8 M M M M/-03/-09/2705/M/ M 46MM=
0118712230999992015011800004+51933-110700FM-12+077299999V0202901N002619999999N999999999-00491-00971999999ADDAA106000091AA224000091KA1120M-00041KA2120N-00541REMSYN05871223 16/// /2905 11049 21097 60001 333 11004 21054 70000=
0058712230999992015011800004+51930-110720SAO  +077299999V020290190026199999999999999999-00491-00971999999REMAWY049XCS SA 0000 AUTO8 M M M M/-05/-10/2905/M/ M 97MM=
0058712230999992015011801004+51930-110720SAO  +077299999V020230190062199999999999999999-00561-00941999999REMAWY049XCS SA 0100 AUTO8 M M M M/-06/-09/2312/M/ M 64MM=
0058712230999992015011802004+51930-110720SAO  +077299999V020260190041199999999999999999-00541-00961999999REMAWY049XCS SA 0200 AUTO8 M M M M/-05/-10/2608/M/ M 46MM=
0058712230999992015011803004+51930-110720SAO  +077299999V020260190046199999999999999999-00591-01041999999REMAWY049XCS SA 0300 AUTO8 M M M M/-06/-10/2609/M/ M 94MM=
0058712230999992015011804004+51930-110720SAO  +077299999V020260190036199999999999999999-00571-00951999999REMAWY049XCS SA 0400 AUTO8 M M M M/-06/-10/2607/M/ M 75MM=
0058712230999992015011805004+51930-110720SAO  +077299999V020260190036199999999999999999-00591-00931999999REMAWY049XCS SA 0500 AUTO8 M M M M/-06/-09/2607/M/ M 93MM=
0134712230999992015011806004+51933-110700FM-12+077299999V0202601N004119999999N999999999-00641-00961999999ADDAA106000091AA224000091KA1240M-00041KA2240N-00751REMSYN07471223 16/// /2608 11064 21096 60001 333 11004 21075 70000 555 32626 40121=
0058712230999992015011806004+51930-110720SAO  +077299999V020260190041199999999999999999-00641-00961999999REMAWY049XCS SA 0600 AUTO8 M M M M/-06/-10/2608/M/ M 46MM=
0058712230999992015011807004+51930-110720SAO  +077299999V020260190051199999999999999999-00321-00991999999REMAWY049XCS SA 0700 AUTO8 M M M M/-03/-10/2610/M/ M 29MM=
0058712230999992015011808004+51930-110720SAO  +077299999V020280190051199999999999999999-00461-01021999999REMAWY049XCS SA 0800 AUTO8 M M M M/-05/-10/2810/M/ M 62MM=
0058712230999992015011809004+51930-110720SAO  +077299999V020280190026199999999999999999-00451-01121999999REMAWY049XCS SA 0900 AUTO8 M M M M/-05/-11/2805/M/ M 52MM=
0058712230999992015011810004+51930-110720SAO  +077299999V020220190046199999999999999999-01011-01231999999REMAWY049XCS SA 1000 AUTO8 M M M M/-10/-12/2209/M/ M 13MM=
0058712230999992015011811004+51930-110720SAO  +077299999V020220190051199999999999999999-00981-01221999999REMAWY049XCS SA 1100 AUTO8 M M M M/-10/-12/2210/M/ M 82MM=
0118712230999992015011812004+51933-110700FM-12+077299999V0202301N005719999999N999999999-00931-01161999999ADDAA106000091AA224000091KA1240M-00041KA2240N-01061REMSYN05871223 16/// /2311 11093 21116 60001 333 11004 21106 70000=
0058712230999992015011812004+51930-110720SAO  +077299999V020230190057199999999999999999-00931-01161999999REMAWY049XCS SA 1200 AUTO8 M M M M/-09/-12/2311/M/ M 36MM=
0058712230999992015011813004+51930-110720SAO  +077299999V020220190046199999999999999999-00921-01221999999REMAWY049XCS SA 1300 AUTO8 M M M M/-09/-12/2209/M/ M 22MM=
0058712230999992015011814004+51930-110720SAO  +077299999V020170190021199999999999999999-01061-01341999999REMAWY049XCS SA 1400 AUTO8 M M M M/-11/-13/1704/M/ M 64MM=
0058712230999992015011815004+51930-110720SAO  +077299999V020160190015199999999999999999-01221-01391999999REMAWY049XCS SA 1500 AUTO8 M M M M/-12/-14/1603/M/ M 29MM=
0058712230999992015011816004+51930-110720SAO  +077299999V020120190015199999999999999999-01001-01271999999REMAWY049XCS SA 1600 AUTO8 M M M M/-10/-13/1203/M/ M 07MM=
0058712230999992015011817004+51930-110720SAO  +077299999V020210190031199999999999999999-00941-01171999999REMAWY049XCS SA 1700 AUTO8 M M M M/-09/-12/2106/M/ M 47MM=
0118712230999992015011818004+51933-110700FM-12+077299999V0200701N002619999999N999999999-01081-01281999999ADDAA106000091AA224000091KA1120M-00311KA2120N-01281REMSYN05871223 16/// /0705 11108 21128 60001 333 11031 21128 70000=
0058712230999992015011818004+51930-110720SAO  +077299999V020070190026199999999999999999-01081-01281999999REMAWY049XCS SA 1800 AUTO8 M M M M/-11/-13/0705/M/ M 88MM=
0058712230999992015011819004+51930-110720SAO  +077299999V020100190021199999999999999999-00821-01061999999REMAWY049XCS SA 1900 AUTO8 M M M M/-08/-11/1004/M/ M 26MM=
0095712230999992015011820004+51930-110720SAO  +077299999V020110190021199999999999999999-00681-00821999999ADDAA101001931REMAWY072XCS SA 2000 AUTO8 M M M M/-07/-08/1104/M/0019 PCPN 1.9MM PAST HR M 82MM=
0095712230999992015011821004+51930-110720SAO  +077299999V020080190026199999999999999999-00421-00511999999ADDAA101001031REMAWY072XCS SA 2100 AUTO8 M M M M/-04/-05/0805/M/0029 PCPN 1.0MM PAST HR M 21MM=
0062712230999992015011822004+51930-110720SAO  +077299999V020070190026199999999999999999-00251-00301999999REMAWY053XCS SA 2200 AUTO8 M M M M/-03/-03/0705/M/0029 M 50MM=
0062712230999992015011823004+51930-110720SAO  +077299999V020080190021199999999999999999-00171-00211999999REMAWY053XCS SA 2300 AUTO8 M M M M/-02/-02/0804/M/0029 M 71MM=
0132712230999992015011900004+51933-110700FM-12+077299999V0201501N001019999999N999999999-00151-00191999999ADDAA106003032AA224002932AZ141021KA1120M-00151KA2120N-01281REMSYN06471223 17/// /1502 11015 21019 60031 7//4/ 333 11015 21128 70029=
0062712230999992015011900004+51930-110720SAO  +077299999V020150190010199999999999999999-00151-00191999999REMAWY053XCS SA 0000 AUTO8 M M M M/-02/-02/1502/M/0029 M 59MM=
0058712230999992015011901004+51930-110720SAO  +077299999V020190190005199999999999999999-00141-00171999999REMAWY049XCS SA 0100 AUTO8 M M M M/-01/-02/1901/M/ M 47MM=
0058712230999992015011902004+51930-110720SAO  +077299999V020300190021199999999999999999-00081-00121999999REMAWY049XCS SA 0200 AUTO8 M M M M/-01/-01/3004/M/ M 82MM=
0058712230999992015011903004+51930-110720SAO  +077299999V020310190021199999999999999999-00111-00141999999REMAWY049XCS SA 0300 AUTO8 M M M M/-01/-01/3104/M/ M 14MM=
0058712230999992015011904004+51930-110720SAO  +077299999V020310190021199999999999999999-00131-00151999999REMAWY049XCS SA 0400 AUTO8 M M M M/-01/-02/3104/M/ M 35MM=
0058712230999992015011905004+51930-110720SAO  +077299999V020280190021199999999999999999-00081-00101999999REMAWY049XCS SA 0500 AUTO8 M M M M/-01/-01/2804/M/ M 80MM=
0118712230999992015011906004+51933-110700FM-12+077299999V0202801N003619999999N999999999-00071-00091999999ADDAA106000091AA224002931KA1240M-00051KA2240N-01281REMSYN05871223 16/// /2807 11007 21009 60001 333 11005 21128 70029=
0058712230999992015011906004+51930-110720SAO  +077299999V020280190036199999999999999999-00071-00091999999REMAWY049XCS SA 0600 AUTO8 M M M M/-01/-01/2807/M/ M 79MM=
0058712230999992015011907004+51930-110720SAO  +077299999V020280190046199999999999999999-00091-00111999999REMAWY049XCS SA 0700 AUTO8 M M M M/-01/-01/2809/M/ M 91MM=
0058712230999992015011908004+51930-110720SAO  +077299999V020270190062199999999999999999-00141-00201999999REMAWY049XCS SA 0800 AUTO8 M M M M/-01/-02/2712/M/ M 40MM=
0092712230999992015011909004+51930-110720SAO  +077299999V020270190087199999999999999999+00031-00161999999ADDOD130101031280REMAWY066XCS SA 0900 AUTO8 M M M M/00/-02/2717/M/ PK WND 2820 0859Z M 36MM=
0093712230999992015011910004+51930-110720SAO  +077299999V020290190067199999999999999999-00071-00231999999ADDOD130100981290REMAWY067XCS SA 1000 AUTO8 M M M M/-01/-02/2913/M/ PK WND 2919 0905Z M 73MM=
0093712230999992015011911004+51930-110720SAO  +077299999V020290190051199999999999999999-00101-00341999999ADDOD130100931310REMAWY067XCS SA 1100 AUTO8 M M M M/-01/-03/2910/M/ PK WND 3118 1008Z M 04MM=
0118712230999992015011912004+51933-110700FM-12+077299999V0203101N005119999999N999999999-00131-00381999999ADDAA106000091AA224002931KA1240M-00051KA2240N-00181REMSYN05871223 16/// /3110 11013 21038 60001 333 11005 21018 70029=
0058712230999992015011912004+51930-110720SAO  +077299999V020310190051199999999999999999-00131-00381999999REMAWY049XCS SA 1200 AUTO8 M M M M/-01/-04/3110/M/ M 38MM=
0058712230999992015011913004+51930-110720SAO  +077299999V020290190051199999999999999999-00111-00271999999REMAWY049XCS SA 1300 AUTO8 M M M M/-01/-03/2910/M/ M 17MM=
0058712230999992015011914004+51930-110720SAO  +077299999V020280190072199999999999999999-00031-00181999999REMAWY049XCS SA 1400 AUTO8 M M M M/00/-02/2814/M/ M -38MM=
0093712230999992015011915004+51930-110720SAO  +077299999V020280190072199999999999999999-00011-00151999999ADDOD130100871280REMAWY067XCS SA 1500 AUTO8 M M M M/00/-02/2814/M/ PK WND 2817 1452Z M -15MM=
0092712230999992015011916004+51930-110720SAO  +077299999V020280190072199999999999999999+00021-00131999999ADDOD130100931280REMAWY066XCS SA 1600 AUTO8 M M M M/00/-01/2814/M/ PK WND 2818 1538Z M 23MM=
0092712230999992015011917004+51930-110720SAO  +077299999V020280190072199999999999999999+00091-00091999999ADDOD130100931280REMAWY066XCS SA 1700 AUTO8 M M M M/01/-01/2814/M/ PK WND 2818 1637Z M 99MM=
0118712230999992015011918004+51933-110700FM-12+077299999V0202701N006719999999N999999999+00131-00101999999ADDAA106000091AA224002931KA1120M+00141KA2120N-01081REMSYN05871223 16/// /2713 10013 21010 60001 333 10014 21108 70029=
0092712230999992015011918004+51930-110720SAO  +077299999V020270190067199999999999999999+00131-00101999999ADDOD130100871270REMAWY066XCS SA 1800 AUTO8 M M M M/01/-01/2713/M/ PK WND 2717 1743Z M 30MM=
0092712230999992015011919004+51930-110720SAO  +077299999V020270190072199999999999999999+00081-00161999999ADDOD130100931290REMAWY066XCS SA 1900 AUTO8 M M M M/01/-02/2714/M/ PK WND 2918 1849Z M 86MM=
0092712230999992015011920004+51930-110720SAO  +077299999V020280190067199999999999999999+00161-00171999999ADDOD130100931270REMAWY066XCS SA 2000 AUTO8 M M M M/02/-02/2813/M/ PK WND 2718 1900Z M 67MM=
0057712230999992015011921004+51930-110720SAO  +077299999V020280190062199999999999999999+00231-00191999999REMAWY048XCS SA 2100 AUTO8 M M M M/02/-02/2812/M/ M 39MM=
0057712230999992015011922004+51930-110720SAO  +077299999V020270190067199999999999999999+00221-00201999999REMAWY048XCS SA 2200 AUTO8 M M M M/02/-02/2713/M/ M 20MM=
0057712230999992015011923004+51930-110720SAO  +077299999V020270190062199999999999999999+00051-00361999999REMAWY048XCS SA 2300 AUTO8 M M M M/01/-04/2712/M/ M 56MM=
0118712230999992015012000004+51933-110700FM-12+077299999V0202701N007219999999N999999999-00071-00451999999ADDAA106000091AA224000091KA1120M+00241KA2120N-00171REMSYN05871223 16/// /2714 11007 21045 60001 333 10024 21017 70000=
0058712230999992015012000004+51930-110720SAO  +077299999V020270190072199999999999999999-00071-00351999999REMAWY049XCS SA 0000 AUTO8 M M M M/-01/-04/2714/M/ M 75MM=
0093712230999992015012001004+51930-110720SAO  +077299999V020270190077199999999999999999-00131-00531999999ADDOD130100871270REMAWY067XCS SA 0100 AUTO8 M M M M/-01/-05/2715/M/ PK WND 2717 0024Z M 33MM=
0093712230999992015012002004+51930-110720SAO  +077299999V020270190072199999999999999999-00151-00581999999ADDOD130100871280REMAWY067XCS SA 0200 AUTO8 M M M M/-02/-06/2714/M/ PK WND 2817 0158Z M 58MM=
0093712230999992015012003004+51930-110720SAO  +077299999V020280190072199999999999999999-00201-00701999999ADDOD130100871280REMAWY067XCS SA 0300 AUTO8 M M M M/-02/-07/2814/M/ PK WND 2817 0235Z M 00MM=
0058712230999992015012004004+51930-110720SAO  +077299999V020280190067199999999999999999-00241-00741999999REMAWY049XCS SA 0400 AUTO8 M M M M/-02/-07/2813/M/ M 44MM=
0058712230999992015012005004+51930-110720SAO  +077299999V020290190062199999999999999999-00321-00751999999REMAWY049XCS SA 0500 AUTO8 M M M M/-03/-08/2912/M/ M 25MM=
0134712230999992015012006004+51933-110700FM-12+077299999V0202901N006719999999N999999999-00361-00731999999ADDAA106000091AA224000091KA1240M+00241KA2240N-00361REMSYN07471223 16/// /2913 11036 21073 60001 333 10024 21036 70000 555 32820 40091=
0058712230999992015012006004+51930-110720SAO  +077299999V020290190067199999999999999999-00361-00731999999REMAWY049XCS SA 0600 AUTO8 M M M M/-04/-07/2913/M/ M 63MM=
0058712230999992015012007004+51930-110720SAO  +077299999V020290190057199999999999999999-00411-00741999999REMAWY049XCS SA 0700 AUTO8 M M M M/-04/-07/2911/M/ M 14MM=
0058712230999992015012008004+51930-110720SAO  +077299999V020290190067199999999999999999-00321-00611999999REMAWY049XCS SA 0800 AUTO8 M M M M/-03/-06/2913/M/ M 21MM=
