0130013590999992017010100004+60533+008200FM-12+077399999V0203201N001019999999N999999999-00101-00461100581ADDAA106000091MA1999999091391MD1310071+9999OD139901501999REMSYN06401359 16/// /3201 11010 21046 39139 40058 53007 60001 333 91115=
0089013590999992017010101004+60533+008200FM-12+077399999V0203101N002019999999N999999999-00121-00661100551ADDMA1999999091361MD1990011+9999REMSYN04801359 46/// /3102 11012 21066 39136 40055 50001=
0089013590999992017010102004+60533+008200FM-12+077399999V0202301N002019999999N999999999-00281-00771100631ADDMA1999999091381MD1310011+9999REMSYN04801359 46/// /2302 11028 21077 39138 40063 53001=
0089013590999992017010103004+60533+008200FM-12+077399999V0202001N003019999999N999999999-00251-00751100601ADDMA1999999091371MD1510031+9999REMSYN04801359 46/// /2003 11025 21075 39137 40060 55003=
0089013590999992017010104004+60533+008200FM-12+077399999V0202201N002019999999N999999999-00271-00701100691ADDMA1999999091451MD1310091+9999REMSYN04801359 46/// /2202 11027 21070 39145 40069 53009=
0089013590999992017010105004+60533+008200FM-12+077399999V0202301N002019999999N999999999-00241-00681100671ADDMA1999999091431MD1310041+9999REMSYN04801359 46/// /2302 11024 21068 39143 40067 53004=
0309013590999992017010106004+60533+008200FM-12+077399999V0202601N004019999999N045000199-00191-00681100611ADDAA112000091AA224000431AJ100193100190099AY121021AY221021GA1021+012501061GA2999+999999031GE19AGL   +99999+99999GF108991021999012501999999IA1269KA1240N-00301MA1999999091401MD1990041+9999MW1021OD139900901999REMSYN09401359 11683 82604 11019 21068 39140 40061 50004 60002 70222 8257/ 333 21030 42019 70004 91109=
0089013590999992017010107004+60533+008200FM-12+077399999V0202801N002019999999N999999999-00151-00661100691ADDMA1999999091481MD1310031+9999REMSYN04801359 46/// /2802 11015 21066 39148 40069 53003=
0089013590999992017010108004+60533+008200FM-12+077399999V0202901N003019999999N999999999-00171-00611100761ADDMA1999999091541MD1310101+9999REMSYN04801359 46/// /2903 11017 21061 39154 40076 53010=
0089013590999992017010109004+60533+008200FM-12+077399999V0202401N003019999999N999999999-00041-00591100741ADDMA1999999091561MD1110171+9999REMSYN04801359 46/// /2403 11004 21059 39156 40074 51017=
0089013590999992017010110004+60533+008200FM-12+077399999V0202301N003019999999N999999999+00011-00631100831ADDMA1999999091661MD1310181+9999REMSYN04801359 46/// /2303 10001 21063 39166 40083 53018=
0089013590999992017010111004+60533+008200FM-12+077399999V0202201N003019999999N999999999-00011-00561100921ADDMA1999999091731MD1310191+9999REMSYN04801359 46/// /2203 11001 21056 39173 40092 53019=
0260013590999992017010112004+60533+008200FM-12+077399999V0202401N002019999999N040000199-00031-00621101001ADDAA106000091AY121021AY221021GA1051+008001061GA2999+999999031GA3999+999999021GE19AGL   +99999+99999GF107991051999008001999999MA1999999091801MD1210241+9999MW1021OD139901001999REMSYN07601359 11582 72402 11003 21062 39180 40100 52024 60001 70222 85576 333 91110=
0089013590999992017010113004+60533+008200FM-12+077399999V0202701N004019999999N999999999-00091-00621101081ADDMA1999999091861MD1310211+9999REMSYN04801359 46/// /2704 11009 21062 39186 40108 53021=
0089013590999992017010114004+60533+008200FM-12+077399999V0202901N004019999999N999999999-00141-00681101171ADDMA1999999091921MD1310191+9999REMSYN04801359 46/// /2904 11014 21068 39192 40117 53019=
0089013590999992017010115004+60533+008200FM-12+077399999V0202901N003019999999N999999999-00201-00861101251ADDMA1999999091981MD1310171+9999REMSYN04801359 46/// /2903 11020 21086 39198 40125 53017=
0089013590999992017010116004+60533+008200FM-12+077399999V0203201N003019999999N999999999-00231-00931101341ADDMA1999999092051MD1310201+9999REMSYN04801359 46/// /3203 11023 21093 39205 40134 53020=
0089013590999992017010117004+60533+008200FM-12+077399999V0201701N004019999999N999999999-00271-00941101421ADDMA1999999092101MD1990171+9999REMSYN04801359 46/// /1704 11027 21094 39210 40142 50017=
0203013590999992017010118004+60533+008200FM-12+077399999V0203301N005019999999N070001199-00331-01001101551ADDAA112000091AY121021AY201021GF100995999999999999999999KA1120M+00021MA1999999092201MD1310231+9999MW1011OD139901301999REMSYN07601359 11989 03305 11033 21100 39220 40155 53023 60002 70120 333 10002 91113=
0089013590999992017010119004+60533+008200FM-12+077399999V0202001N003019999999N999999999-00381-01051101631ADDMA1999999092261MD1310231+9999REMSYN04801359 46/// /2003 11038 21105 39226 40163 53023=
0089013590999992017010120004+60533+008200FM-12+077399999V0202001N003019999999N999999999-00371-01081101641ADDMA1999999092271MD1110201+9999REMSYN04801359 46/// /2003 11037 21108 39227 40164 51020=
0089013590999992017010121004+60533+008200FM-12+077399999V0202701N003019999999N999999999-00451-01041101761ADDMA1999999092351MD1310151+9999REMSYN04801359 46/// /2703 11045 21104 39235 40176 53015=
0089013590999992017010122004+60533+008200FM-12+077399999V0202601N004019999999N999999999-00451-01021101711ADDMA1999999092311MD1990041+9999REMSYN04801359 46/// /2604 11045 21102 39231 40171 50004=
0089013590999992017010123004+60533+008200FM-12+077399999V0202801N005019999999N999999999-00421-01031101681ADDMA1999999092291MD1990031+9999REMSYN04801359 46/// /2805 11042 21103 39229 40168 50003=
0130013590999992017010200004+60533+008200FM-12+077399999V0202901N003019999999N999999999-00431-01041101711ADDAA106000091MA1999999092311MD1510041+9999OD139900901999REMSYN06401359 16/// /2903 11043 21104 39231 40171 55004 60001 333 91109=
0089013590999992017010201004+60533+008200FM-12+077399999V0202301N004019999999N999999999-00591-01031101751ADDMA1999999092301MD1990011+9999REMSYN04801359 46/// /2304 11059 21103 39230 40175 50001=
0089013590999992017010202004+60533+008200FM-12+077399999V0202601N004019999999N999999999-00561-01021101731ADDMA1999999092291MD1990001+9999REMSYN04801359 46/// /2604 11056 21102 39229 40173 50000=
0089013590999992017010203004+60533+008200FM-12+077399999V0202501N001019999999N999999999-00591-01051101681ADDMA1999999092231MD1810081+9999REMSYN04801359 46/// /2501 11059 21105 39223 40168 58008=
0089013590999992017010204004+60533+008200FM-12+077399999V0202601N002019999999N999999999-00521-00961101571ADDMA1999999092161MD1810141+9999REMSYN04801359 46/// /2602 11052 21096 39216 40157 58014=
0089013590999992017010205004+60533+008200FM-12+077399999V0202701N003019999999N999999999-00441-01141101531ADDMA1999999092151MD1610151+9999REMSYN04801359 46/// /2703 11044 21114 39215 40153 56015=
0312013590999992017010206004+60533+008200FM-12+077399999V0202301N005019999999N060000199-00581-01021101551ADDAA112000091AA224000091AJ100193100190099AY101021AY201021GA1999+999999021GE19AGL   +99999+99999GF103991001999999999999999IA1269KA1240N-00611MA1999999092121MD1610111+9999MW1021OD139900901999REMSYN09401359 11986 32305 11058 21102 39212 40155 56011 60002 70200 80008 333 21061 42019 70000 91109=EQDQ01    003SCCGA1
0089013590999992017010207004+60533+008200FM-12+077399999V0202601N002019999999N999999999-00641-01061101571ADDMA1999999092121MD1710041+9999REMSYN04801359 46/// /2602 11064 21106 39212 40157 57004=
0089013590999992017010208004+60533+008200FM-12+077399999V0202501N003019999999N999999999-00681-01121101591ADDMA1999999092121MD1710031+9999REMSYN04801359 46/// /2503 11068 21112 39212 40159 57003=
0108013590999992017010209004+60533+008200FM-12+077399999V0202601N004019999999N999999999-00721-01121101601ADDMA1999999092121MD1290059+9999REMSYN04801359 46/// /2604 11072 21112 39212 40160 54001=EQDQ01.1    3APC3  
0089013590999992017010210004+60533+008200FM-12+077399999V0202701N001019999999N999999999-00741-01071101601ADDMA1999999092121MD1410001+9999REMSYN04801359 46/// /2701 11074 21107 39212 40160 54000=
0089013590999992017010211004+60533+008200FM-12+077399999V0202401N001019999999N999999999-00741-01071101541ADDMA1999999092061MD1810061+9999REMSYN04801359 46/// /2401 11074 21107 39206 40154 58006=
0247013590999992017010212004+60533+008200FM-12+077399999V0200701N002019999999N070001199-00711-01041101501ADDAA106000091AY111021AY201021GA1999+999999001GE19AGL   +99999+99999GF101991001999999999999999MA1999999092031MD1810081+9999MW1011OD139900801999REMSYN07601359 11989 10702 11071 21104 39203 40150 58008 60001 70110 80001 333 91108=EQDQ01    003SCCGA1
0089013590999992017010213004+60533+008200FM-12+077399999V0209999C999999999999N999999999-00731-01071101491ADDMA1999999092021MD1610101+9999REMSYN04801359 46/// /0000 11073 21107 39202 40149 56010=
0089013590999992017010214004+60533+008200FM-12+077399999V0209999C999999999999N999999999-00781-01111101551ADDMA1999999092061MD1510011+9999REMSYN04801359 46/// /0000 11078 21111 39206 40155 55001=
0108013590999992017010215004+60533+008200FM-12+077399999V0202201N002019999999N999999999-00821-01091101551ADDMA1999999092041MD1290059+9999REMSYN04801359 46/// /2202 11082 21109 39204 40155 54001=EQDQ01.1    3APC3  
0089013590999992017010216004+60533+008200FM-12+077399999V0202401N002019999999N999999999-00481-01071101381ADDMA1999999092001MD1810021+9999REMSYN04801359 46/// /2402 11048 21107 39200 40138 58002=
0089013590999992017010217004+60533+008200FM-12+077399999V0202001N001019999999N999999999-00601-01111101431ADDMA1999999092011MD1510051+9999REMSYN04801359 46/// /2001 11060 21111 39201 40143 55005=
0266013590999992017010218004+60533+008200FM-12+077399999V0209999C999999999999N070001199-00741-01071101421ADDAA112000091AY101021AY201021GA1999+999999001GE19AGL   +99999+99999GF101991001999999999999999KA1120M-00441MA1999999091951MD1810091+9999MW1021OD139900701999REMSYN08201359 11989 10000 11074 21107 39195 40142 58009 60002 70200 80001 333 11044 91107=EQDQ01    003SCCGA1
0089013590999992017010219004+60533+008200FM-12+077399999V0209999C999999999999N999999999-00881-01131101481ADDMA1999999091961MD1810041+9999REMSYN04801359 46/// /0000 11088 21113 39196 40148 58004=
0089013590999992017010220004+60533+008200FM-12+077399999V0202801N002019999999N999999999-00611-00971101311ADDMA1999999091901MD1810111+9999REMSYN04801359 46/// /2802 11061 21097 39190 40131 58011=
0089013590999992017010221004+60533+008200FM-12+077399999V0202601N003019999999N999999999-00461-00891101231ADDMA1999999091871MD1810091+9999REMSYN04801359 46/// /2603 11046 21089 39187 40123 58009=
0089013590999992017010222004+60533+008200FM-12+077399999V0202301N005019999999N999999999-00491-00791101101ADDMA1999999091741MD1810211+9999REMSYN04801359 46/// /2305 11049 21079 39174 40110 58021=
0089013590999992017010223004+60533+008200FM-12+077399999V0202301N006019999999N999999999-00491-00811101011ADDMA1999999091661MD1810241+9999REMSYN04801359 46/// /2306 11049 21081 39166 40101 58024=
0130013590999992017010300004+60533+008200FM-12+077399999V0202301N005019999999N999999999-00421-00791100881ADDAA106000091MA1999999091561MD1710311+9999OD139900901999REMSYN06401359 16/// /2305 11042 21079 39156 40088 57031 60001 333 91109=
0089013590999992017010301004+60533+008200FM-12+077399999V0202401N002019999999N999999999-00401-00751100811ADDMA1999999091511MD1810241+9999REMSYN04801359 46/// /2402 11040 21075 39151 40081 58024=
0089013590999992017010302004+60533+008200FM-12+077399999V0202301N004019999999N999999999-00311-00691100711ADDMA1999999091441MD1610221+9999REMSYN04801359 46/// /2304 11031 21069 39144 40071 56022=
0089013590999992017010303004+60533+008200FM-12+077399999V0202501N005019999999N999999999-00271-00661100561ADDMA1999999091331MD1810241+9999REMSYN04801359 46/// /2505 11027 21066 39133 40056 58024=
0089013590999992017010304004+60533+008200FM-12+077399999V0202801N004019999999N999999999-00241-00641100451ADDMA1999999091231MD1810271+9999REMSYN04801359 46/// /2804 11024 21064 39123 40045 58027=
0089013590999992017010305004+60533+008200FM-12+077399999V0202701N004019999999N999999999-00231-00631100301ADDMA1999999091101MD1810341+9999REMSYN04801359 46/// /2704 11023 21063 39110 40030 58034=
0309013590999992017010306004+60533+008200FM-12+077399999V0202301N008019999999N070001199-00111-00551100011ADDAA112000091AA224000091AJ100193100190099AY101021AY201021GA1011+012501081GA2999+999999031GE19AGL   +99999+99999GF102991011999012501999999IA1269KA1240N-00891MA1999999090871MD1810461+9999MW1031OD139901301999REMSYN09401359 11689 22308 11011 21055 39087 40001 58046 60002 70300 81150 333 21089 42019 70000 91113=
0089013590999992017010307004+60533+008200FM-12+077399999V0202301N006019999999N999999999-00061-00501099801ADDMA1999999090701MD1810531+9999REMSYN04801359 46/// /2306 11006 21050 39070 49980 58053=
0089013590999992017010308004+60533+008200FM-12+077399999V0202201N006019999999N999999999-00111-00351099711ADDMA1999999090601MD1610501+9999REMSYN04801359 46/// /2206 11011 21035 39060 49971 56050=
0089013590999992017010309004+60533+008200FM-12+077399999V0202301N004019999999N999999999-00071-00311099551ADDMA1999999090471MD1610401+9999REMSYN04801359 46/// /2304 11007 21031 39047 49955 56040=
0089013590999992017010310004+60533+008200FM-12+077399999V0202401N008019999999N999999999+00011-00491099291ADDMA1999999090261MD1810431+9999REMSYN04801359 46/// /2408 10001 21049 39026 49929 58043=
0089013590999992017010311004+60533+008200FM-12+077399999V0202401N006019999999N999999999-00081-00381099101ADDMA1999999090061MD1810551+9999REMSYN04801359 46/// /2406 11008 21038 39006 49910 58055=
0228013590999992017010312004+60533+008200FM-12+077399999V0202601N006019999999N003500199-00021-00161099001ADDAA106000431AY181021AY231021GA1071+004501091GE19AGL   +99999+99999GF107991071999004501999999MA1999999089991MD1610491+9999MW1851OD139901401999REMSYN07601359 11435 72606 11002 21016 38999 49900 56049 69941 78583 87300 333 91114=
0089013590999992017010313004+60533+008200FM-12+077399999V0202601N006019999999N999999999-00161-00631099111ADDMA1999999090041MD1510221+9999REMSYN04801359 46/// /2606 11016 21063 39004 49911 55022=
0089013590999992017010314004+60533+008200FM-12+077399999V0202701N004019999999N999999999-00241-00611099131ADDMA1999999090041MD1510021+9999REMSYN04801359 46/// /2704 11024 21061 39004 49913 55002=
0089013590999992017010315004+60533+008200FM-12+077399999V0202701N005019999999N999999999-00211-00831099031ADDMA1999999089951MD1810041+9999REMSYN04801359 46/// /2705 11021 21083 38995 49903 58004=
0089013590999992017010316004+60533+008200FM-12+077399999V0202701N005019999999N999999999-00231-00951099031ADDMA1999999089941MD1810091+9999REMSYN04801359 46/// /2705 11023 21095 38994 49903 58009=
0089013590999992017010317004+60533+008200FM-12+077399999V0202501N004019999999N999999999-00361-00831099061ADDMA1999999089941MD1610101+9999REMSYN04801359 46/// /2504 11036 21083 38994 49906 56010=
0247013590999992017010318004+60533+008200FM-12+077399999V0202501N003019999999N017000199-00371-00751099011ADDAA112000731AY181021AY231021GA1031+004501091GE19AGL   +99999+99999GF103991031999004501999999KA1120M+00061MA1999999089891MD1810071+9999MW1851OD139901401999REMSYN08201359 11467 32503 11037 21075 38989 49901 58007 69972 78583 83300 333 10006 91114=
0089013590999992017010319004+60533+008200FM-12+077399999V0202401N005019999999N999999999-00311-00731098931ADDMA1999999089831MD1810121+9999REMSYN04801359 46/// /2405 11031 21073 38983 49893 58012=
0089013590999992017010320004+60533+008200FM-12+077399999V0202401N003019999999N999999999-00371-00511098941ADDMA1999999089821MD1610121+9999REMSYN04801359 46/// /2403 11037 21051 38982 49894 56012=
0089013590999992017010321004+60533+008200FM-12+077399999V0202701N004019999999N999999999-00161-00701098811ADDMA1999999089771MD1610111+9999REMSYN04801359 46/// /2704 11016 21070 38977 49881 56011=
0089013590999992017010322004+60533+008200FM-12+077399999V0202901N004019999999N999999999-00171-00711098911ADDMA1999999089861MD1310031+9999REMSYN04801359 46/// /2904 11017 21071 38986 49891 53003=
0089013590999992017010323004+60533+008200FM-12+077399999V0202701N005019999999N999999999-00191-00681098971ADDMA1999999089901MD1310091+9999REMSYN04801359 46/// /2705 11019 21068 38990 49897 53009=
0130013590999992017010400004+60533+008200FM-12+077399999V0202701N006019999999N999999999-00201-00671099031ADDAA106000231MA1999999089961MD1210191+9999OD139901401999REMSYN06401359 16/// /2706 11020 21067 38996 49903 52019 69921 333 91114=
0089013590999992017010401004+60533+008200FM-12+077399999V0202601N005019999999N999999999-00201-00741099251ADDMA1999999090151MD1310301+9999REMSYN04801359 46/// /2605 11020 21074 39015 49925 53030=
0089013590999992017010402004+60533+008200FM-12+077399999V0202401N004019999999N999999999-00211-00751099401ADDMA1999999090291MD1310391+9999REMSYN04801359 46/// /2404 11021 21075 39029 49940 53039=
0089013590999992017010403004+60533+008200FM-12+077399999V0202601N002019999999N999999999-00241-00761099591ADDMA1999999090451MD1310501+9999REMSYN04801359 46/// /2602 11024 21076 39045 49959 53050=
0089013590999992017010404004+60533+008200FM-12+077399999V0202701N003019999999N999999999-00191-00751099771ADDMA1999999090631MD1310481+9999REMSYN04801359 46/// /2703 11019 21075 39063 49977 53048=
0089013590999992017010405004+60533+008200FM-12+077399999V0202701N002019999999N999999999-00241-00761099981ADDMA1999999090811MD1310531+9999REMSYN04801359 46/// /2702 11024 21076 39081 49998 53053=
0249013590999992017010406004+60533+008200FM-12+077399999V0202501N003019999999N070001199-00321-01011100221ADDAA112000091AA224000831AJ100203100200099AY121021AY201021GF100995999999999999999999IA1289KA1240N-00401MA1999999091001MD1310541+9999MW1021OD139901101999REMSYN08801359 11989 02503 11032 21101 39100 40022 53054 60002 70220 333 21040 48020 70008 91111=
0089013590999992017010407004+60533+008200FM-12+077399999V0203501N004019999999N999999999-00451-01261100521ADDMA1999999091231MD1310591+9999REMSYN04801359 46/// /3504 11045 21126 39123 40052 53059=
0089013590999992017010408004+60533+008200FM-12+077399999V0202501N003019999999N999999999-00571-01401100691ADDMA1999999091341MD1110531+9999REMSYN04801359 46/// /2503 11057 21140 39134 40069 51053=
0089013590999992017010409004+60533+008200FM-12+077399999V0202201N003019999999N999999999-00611-01511100811ADDMA1999999091441MD1110461+9999REMSYN04801359 46/// /2203 11061 21151 39144 40081 51046=
0089013590999992017010410004+60533+008200FM-12+077399999V0202701N004019999999N999999999-00591-01421100971ADDMA1999999091601MD1310371+9999REMSYN04801359 46/// /2704 11059 21142 39160 40097 53037=
0089013590999992017010411004+60533+008200FM-12+077399999V0201901N002019999999N999999999-00571-01291101031ADDMA1999999091651MD1110311+9999REMSYN04801359 46/// /1902 11057 21129 39165 40103 51031=
0228013590999992017010412004+60533+008200FM-12+077399999V0202301N002019999999N070001199-00561-01281101101ADDAA106000091AY101021AY201021GA1011+012501061GE19AGL   +99999+99999GF101991011999012501999999MA1999999091721MD1110291+9999MW1021OD139901101999REMSYN07601359 11689 12302 11056 21128 39172 40110 51029 60001 70200 81500 333 91111=
0089013590999992017010413004+60533+008200FM-12+077399999V0202401N003019999999N999999999-00571-01251101221ADDMA1999999091831MD1310241+9999REMSYN04801359 46/// /2403 11057 21125 39183 40122 53024=
0089013590999992017010414004+60533+008200FM-12+077399999V0202601N003019999999N999999999-00621-01221101361ADDMA1999999091931MD1310281+9999REMSYN04801359 46/// /2603 11062 21122 39193 40136 53028=
0089013590999992017010415004+60533+008200FM-12+077399999V0202601N003019999999N999999999-00621-01181101491ADDMA1999999092051MD1310321+9999REMSYN04801359 46/// /2603 11062 21118 39205 40149 53032=
0089013590999992017010416004+60533+008200FM-12+077399999V0202601N003019999999N999999999-00621-01241101601ADDMA1999999092161MD1310321+9999REMSYN04801359 46/// /2603 11062 21124 39216 40160 53032=
0089013590999992017010417004+60533+008200FM-12+077399999V0200801N002019999999N999999999-00771-01271101801ADDMA1999999092281MD1310351+9999REMSYN04801359 46/// /0802 11077 21127 39228 40180 53035=
0203013590999992017010418004+60533+008200FM-12+077399999V0200501N002019999999N070001199-00981-01411102061ADDAA112000091AY101021AY201021GF100995999999999999999999KA1120M-00311MA1999999092451MD1310401+9999MW1021OD139900801999REMSYN07601359 11989 00502 11098 21141 39245 40206 53040 60002 70200 333 11031 91108=
0089013590999992017010419004+60533+008200FM-12+077399999V0200401N003019999999N999999999-01051-01511102251ADDMA1999999092601MD1310441+9999REMSYN04801359 46/// /0403 11105 21151 39260 40225 53044=
0089013590999992017010420004+60533+008200FM-12+077399999V0209999C999999999999N999999999-01291-01621102501ADDMA1999999092741MD1210461+9999REMSYN04801359 46/// /0000 11129 21162 39274 40250 52046=
0089013590999992017010421004+60533+008200FM-12+077399999V0209999C999999999999N999999999-01561-01731102791ADDMA1999999092901MD1310451+9999REMSYN04801359 46/// /0000 11156 21173 39290 40279 53045=
0089013590999992017010422004+60533+008200FM-12+077399999V0209999C999999999999N999999999-01661-01811102971ADDMA1999999093031MD1310431+9999REMSYN04801359 46/// /0000 11166 21181 39303 40297 53043=
0089013590999992017010423004+60533+008200FM-12+077399999V0209999C999999999999N999999999-01771-01941103141ADDMA1999999093151MD1310401+9999REMSYN04801359 46/// /0000 11177 21194 39315 40314 53040=
0130013590999992017010500004+60533+008200FM-12+077399999V0209999C999999999999N999999999-01781-01931103231ADDAA106000231MA1999999093231MD1310321+9999OD139900601999REMSYN06401359 16/// /0000 11178 21193 39323 40323 53032 69921 333 91106=
0089013590999992017010501004+60533+008200FM-12+077399999V0202501N002019999999N999999999-01461-01741103181ADDMA1999999093291MD1110251+9999REMSYN04801359 46/// /2502 11146 21174 39329 40318 51025=
0089013590999992017010502004+60533+008200FM-12+077399999V0209999C999999999999N999999999-01651-01891103301ADDMA1999999093341MD1210191+9999REMSYN04801359 46/// ///// 11165 21189 39334 40330 52019=
0089013590999992017010503004+60533+008200FM-12+077399999V0202201N001019999999N999999999-01641-01841103411ADDMA1999999093441MD1310221+9999REMSYN04801359 46/// /2201 11164 21184 39344 40341 53022=
0089013590999992017010504004+60533+008200FM-12+077399999V0209999C999999999999N999999999-01771-01981103531ADDMA1999999093501MD1310211+9999REMSYN04801359 46/// ///// 11177 21198 39350 40353 53021=
0089013590999992017010505004+60533+008200FM-12+077399999V0202201N003019999999N999999999-01631-01961103591ADDMA1999999093601MD1310271+9999REMSYN04801359 46/// /2203 11163 21196 39360 40359 53027=
0249013590999992017010506004+60533+008200FM-12+077399999V0202101N002019999999N070001199-01541-02001103611ADDAA112000091AA224000231AJ100203100200099AY101021AY201021GF100995999999999999999999IA1269KA1240N-01801MA1999999093651MD1210211+9999MW1021OD139900501999REMSYN08801359 11989 02102 11154 21200 39365 40361 52021 60002 70200 333 21180 42020 70002 91105=
0089013590999992017010507004+60533+008200FM-12+077399999V0202201N002019999999N999999999-01441-02061103671ADDMA1999999093751MD1210251+9999REMSYN04801359 46/// /2202 11144 21206 39375 40367 52025=
0089013590999992017010508004+60533+008200FM-12+077399999V0202301N002019999999N999999999-01591-02051103811ADDMA1999999093821MD1310211+9999REMSYN04801359 46/// /2302 11159 21205 39382 40381 53021=
0089013590999992017010509004+60533+008200FM-12+077399999V0202401N003019999999N999999999-01511-02031103831ADDMA1999999093861MD1110211+9999REMSYN04801359 46/// /2403 11151 21203 39386 40383 51021=
0089013590999992017010510004+60533+008200FM-12+077399999V0202701N003019999999N999999999-01351-02091103841ADDMA1999999093931MD1210181+9999REMSYN04801359 46/// /2703 11135 21209 39393 40384 52018=
0089013590999992017010511004+60533+008200FM-12+077399999V0202801N003019999999N999999999-01251-02061103791ADDMA1999999093931MD1990111+9999REMSYN04801359 46/// /2803 11125 21206 39393 40379 50011=
0247013590999992017010512004+60533+008200FM-12+077399999V0202801N003019999999N050000199-01121-02031103771ADDAA106000091AY121021AY201021GA1999+999999021GE19AGL   +99999+99999GF106991001999999999999999MA1999999093951MD1110091+9999MW1031OD139900701999REMSYN07601359 11984 62803 11112 21203 39395 40377 51009 60001 70320 80006 333 91107=EQDQ01    003SCCGA1
0089013590999992017010513004+60533+008200FM-12+077399999V0202901N003019999999N999999999-01091-02001103791ADDMA1999999093981MD1210051+9999REMSYN04801359 46/// /2903 11109 21200 39398 40379 52005=
0089013590999992017010514004+60533+008200FM-12+077399999V0202801N003019999999N999999999-01081-02021103761ADDMA1999999093961MD1990031+9999REMSYN04801359 46/// /2803 11108 21202 39396 40376 50003=
0089013590999992017010515004+60533+008200FM-12+077399999V0202601N002019999999N999999999-01121-02051103801ADDMA1999999093971MD1210031+9999REMSYN04801359 46/// /2602 11112 21205 39397 40380 52003=
0089013590999992017010516004+60533+008200FM-12+077399999V0202401N003019999999N999999999-01071-02011103791ADDMA1999999093991MD1310011+9999REMSYN04801359 46/// /2403 11107 21201 39399 40379 53001=
0089013590999992017010517004+60533+008200FM-12+077399999V0202601N002019999999N999999999-01051-02011103741ADDMA1999999093951MD1810011+9999REMSYN04801359 46/// /2602 11105 21201 39395 40374 58001=
0266013590999992017010518004+60533+008200FM-12+077399999V0202601N003019999999N050000199-01011-02001103741ADDAA112000091AY121021AY221021GA1999+999999021GE19AGL   +99999+99999GF106991001999999999999999KA1120M-01001MA1999999093971MD1990011+9999MW1021OD139900601999REMSYN08201359 11984 62603 11101 21200 39397 40374 50001 60002 70222 80006 333 11100 91106=EQDQ01    003SCCGA1
0089013590999992017010519004+60533+008200FM-12+077399999V0202501N003019999999N999999999-00971-02021103741ADDMA1999999093981MD1510011+9999REMSYN04801359 46/// /2503 11097 21202 39398 40374 55001=
0089013590999992017010520004+60533+008200FM-12+077399999V0202801N003019999999N999999999-01011-01901103761ADDMA1999999093981MD1210031+9999REMSYN04801359 46/// /2803 11101 21190 39398 40376 52003=
0089013590999992017010521004+60533+008200FM-12+077399999V0202701N002019999999N999999999-00971-01941103751ADDMA1999999093981MD1210021+9999REMSYN04801359 46/// /2702 11097 21194 39398 40375 52002=
0089013590999992017010522004+60533+008200FM-12+077399999V0202501N002019999999N999999999-01051-01941103751ADDMA1999999093961MD1810021+9999REMSYN04801359 46/// /2502 11105 21194 39396 40375 58002=
0089013590999992017010523004+60533+008200FM-12+077399999V0202201N002019999999N999999999-01091-02031103741ADDMA1999999093931MD1810051+9999REMSYN04801359 46/// /2202 11109 21203 39393 40374 58005=
0130013590999992017010600004+60533+008200FM-12+077399999V0202701N002019999999N999999999-01151-02031103721ADDAA106000091MA1999999093901MD1710091+9999OD139900601999REMSYN06401359 16/// /2702 11115 21203 39390 40372 57009 60001 333 91106=
0089013590999992017010601004+60533+008200FM-12+077399999V0203501N001019999999N999999999-01101-01991103661ADDMA1999999093861MD1710101+9999REMSYN04801359 46/// /3501 11110 21199 39386 40366 57010=
0089013590999992017010602004+60533+008200FM-12+077399999V0202501N003019999999N999999999-01001-02131103591ADDMA1999999093831MD1710101+9999REMSYN04801359 46/// /2503 11100 21213 39383 40359 57010=
0089013590999992017010603004+60533+008200FM-12+077399999V0202401N003019999999N999999999-01061-02021103561ADDMA1999999093781MD1810111+9999REMSYN04801359 46/// /2403 11106 21202 39378 40356 58011=
0089013590999992017010604004+60533+008200FM-12+077399999V0202501N005019999999N999999999-00881-01671103401ADDMA1999999093701MD1810161+9999REMSYN04801359 46/// /2505 11088 21167 39370 40340 58016=
0089013590999992017010605004+60533+008200FM-12+077399999V0202401N003019999999N999999999-00671-01191103211ADDMA1999999093601MD1810231+9999REMSYN04801359 46/// /2403 11067 21119 39360 40321 58023=
0328013590999992017010606004+60533+008200FM-12+077399999V0202301N006019999999N011000199-00541-00861103041ADDAA112999999AA224999999AJ100203100200099AY171021AY221021GA1081+004501051GE19AGL   +99999+99999GF108991081999004501999999IA1269KA1240N-01161MA1999999093491MD1810291+9999MW1701OD139900901999REMSYN09401359 11461 82306 11054 21086 39349 40304 58029 60002 77072 8802/ 333 21116 42020 70000 91109=EQDQ01  00002PRCP12Q02  00002PRCP24
0089013590999992017010607004+60533+008200FM-12+077399999V0202101N005019999999N999999999-00451-00771102981ADDMA1999999093471MD1610231+9999REMSYN04801359 46/// /2105 11045 21077 39347 40298 56023=
0089013590999992017010608004+60533+008200FM-12+077399999V0202101N006019999999N999999999-00381-00701102911ADDMA1999999093431MD1610171+9999REMSYN04801359 46/// /2106 11038 21070 39343 40291 56017=
0089013590999992017010609004+60533+008200FM-12+077399999V0202201N006019999999N999999999-00361-00641102861ADDMA1999999093381MD1810101+9999REMSYN04801359 46/// /2206 11036 21064 39338 40286 58010=
0089013590999992017010610004+60533+008200FM-12+077399999V0202201N008019999999N999999999-00331-00621102781ADDMA1999999093321MD1810151+9999REMSYN04801359 46/// /2208 11033 21062 39332 40278 58015=
0089013590999992017010611004+60533+008200FM-12+077399999V0202301N009019999999N999999999-00261-00601102621ADDMA1999999093201MD1810221+9999REMSYN04801359 46/// /2309 11026 21060 39320 40262 58022=
0263013590999992017010612004+60533+008200FM-12+077399999V0202301N008019999999N028000199-00171-00541102491ADDAA106999999AY181021AY271021GA1071+008001061GA2999+999999001GE19AGL   +99999+99999GF108991071999008001999999MA1999999093111MD1810271+9999MW1261OD139901401999REMSYN07601359 11578 82308 11017 21054 39311 40249 58027 60001 72687 87501 333 91114=EQDQ01  00002PRCP06
0089013590999992017010613004+60533+008200FM-12+077399999V0202401N007019999999N999999999-00131-00521102431ADDMA1999999093071MD1610251+9999REMSYN04801359 46/// /2407 11013 21052 39307 40243 56025=
0089013590999992017010614004+60533+008200FM-12+077399999V0202301N008019999999N999999999-00121-00481102381ADDMA1999999093031MD1610171+9999REMSYN04801359 46/// /2308 11012 21048 39303 40238 56017=
0089013590999992017010615004+60533+008200FM-12+077399999V0202301N007019999999N999999999-00141-00381102291ADDMA1999999092941MD1810171+9999REMSYN04801359 46/// /2307 11014 21038 39294 40229 58017=
0089013590999992017010616004+60533+008200FM-12+077399999V0202301N007019999999N999999999-00051-00361102141ADDMA1999999092831MD1810251+9999REMSYN04801359 46/// /2307 11005 21036 39283 40214 58025=
0089013590999992017010617004+60533+008200FM-12+077399999V0202001N002019999999N999999999-00021-00361102071ADDMA1999999092781MD1510251+9999REMSYN04801359 46/// /2002 11002 21036 39278 40207 55025=
0279013590999992017010618004+60533+008200FM-12+077399999V0202201N006019999999N040000199+00021-00271101911ADDAA112000091AY121021AY221021GA1051+008001061GA2999+999999031GA3999+999999001GE19AGL   +99999+99999GF107991051999008001999999KA1120M+00031MA1999999092651MD1810301+9999MW1021OD139901501999REMSYN08201359 11582 72206 10002 21027 39265 40191 58030 60002 70222 85571 333 10003 91115=
0089013590999992017010619004+60533+008200FM-12+077399999V0202401N007019999999N999999999+00131-00241101701ADDMA1999999092481MD1810351+9999REMSYN04801359 46/// /2407 10013 21024 39248 40170 58035=
0089013590999992017010620004+60533+008200FM-12+077399999V0202301N004019999999N999999999+00101-00201101641ADDMA1999999092431MD1610351+9999REMSYN04801359 46/// /2304 10010 21020 39243 40164 56035=
0089013590999992017010621004+60533+008200FM-12+077399999V0202401N002019999999N999999999+00091-00131101611ADDMA1999999092401MD1610251+9999REMSYN04801359 46/// /2402 10009 21013 39240 40161 56025=
0089013590999992017010622004+60533+008200FM-12+077399999V0202001N001019999999N999999999+00101-00061101601ADDMA1999999092391MD1610101+9999REMSYN04801359 46/// /2001 10010 21006 39239 40160 56010=
0089013590999992017010623004+60533+008200FM-12+077399999V0202301N007019999999N999999999+00211-00241101471ADDMA1999999092301MD1810131+9999REMSYN04801359 46/// /2307 10021 21024 39230 40147 58013=
0130013590999992017010700004+60533+008200FM-12+077399999V0203201N005019999999N999999999+00311-00601101511ADDAA106000091MA1999999092371MD1510031+9999OD139901501999REMSYN06401359 16/// /3205 10031 21060 39237 40151 55003 60001 333 91115=
0089013590999992017010701004+60533+008200FM-12+077399999V0202601N004019999999N999999999+00391-00381101471ADDMA1999999092361MD1510021+9999REMSYN04801359 46/// /2604 10039 21038 39236 40147 55002=
0089013590999992017010702004+60533+008200FM-12+077399999V0203201N003019999999N999999999+00241-00311101641ADDMA1999999092471MD1310161+9999REMSYN04801359 46/// /3203 10024 21031 39247 40164 53016=
0089013590999992017010703004+60533+008200FM-12+077399999V0203001N003019999999N999999999+00131-00471101741ADDMA1999999092531MD1310151+9999REMSYN04801359 46/// /3003 10013 21047 39253 40174 53015=
0089013590999992017010704004+60533+008200FM-12+077399999V0201101N002019999999N999999999+00071-00491101801ADDMA1999999092561MD1110201+9999REMSYN04801359 46/// /1102 10007 21049 39256 40180 51020=
0089013590999992017010705004+60533+008200FM-12+077399999V0203101N005019999999N999999999+00001-00481101891ADDMA1999999092621MD1210151+9999REMSYN04801359 46/// /3105 10000 21048 39262 40189 52015=
0293013590999992017010706004+60533+008200FM-12+077399999V0202601N004019999999N060000199-00041-00571101921ADDAA112000091AA224000091AJ100203100200099AY121021AY201021GA1031+012501061GE19AGL   +99999+99999GF103991031999012501999999IA1269KA1240N-00061MA1999999092641MD1110111+9999MW1021OD139901101999REMSYN09401359 11686 32604 11004 21057 39264 40192 51011 60002 70220 83500 333 21006 42020 70000 91111=
0089013590999992017010707004+60533+008200FM-12+077399999V0203101N004019999999N999999999-00051-00691102021ADDMA1999999092721MD1310161+9999REMSYN04801359 46/// /3104 11005 21069 39272 40202 53016=
0089013590999992017010708004+60533+008200FM-12+077399999V0203401N004019999999N999999999-00081-00661102121ADDMA1999999092801MD1310181+9999REMSYN04801359 46/// /3404 11008 21066 39280 40212 53018=
0089013590999992017010709004+60533+008200FM-12+077399999V0203001N003019999999N999999999-00091-00691102211ADDMA1999999092881MD1310241+9999REMSYN04801359 46/// /3003 11009 21069 39288 40221 53024=
0089013590999992017010710004+60533+008200FM-12+077399999V0201801N002019999999N999999999-00171-00751102331ADDMA1999999092971MD1310241+9999REMSYN04801359 46/// /1802 11017 21075 39297 40233 53024=
0089013590999992017010711004+60533+008200FM-12+077399999V0202901N002019999999N999999999-00221-00761102371ADDMA1999999092991MD1310191+9999REMSYN04801359 46/// /2902 11022 21076 39299 40237 53019=
0260013590999992017010712004+60533+008200FM-12+077399999V0202501N001019999999N060000199-00261-00751102411ADDAA106000091AY111021AY201021GA1011+012501061GA2999+999999031GA3999+999999021GE19AGL   +99999+99999GF104991011999012501999999MA1999999093011MD1110131+9999MW1021OD139900901999REMSYN07601359 11686 42501 11026 21075 39301 40241 51013 60001 70210 81545 333 91109=
0089013590999992017010713004+60533+008200FM-12+077399999V0202301N002019999999N999999999-00221-00801102431ADDMA1999999093041MD1310071+9999REMSYN04801359 46/// /2302 11022 21080 39304 40243 53007=
0089013590999992017010714004+60533+008200FM-12+077399999V0209999C999999999999N999999999-00321-00821102521ADDMA1999999093091MD1310101+9999REMSYN04801359 46/// /0000 11032 21082 39309 40252 53010=
0089013590999992017010715004+60533+008200FM-12+077399999V0202501N002019999999N999999999-00421-00831102591ADDMA1999999093121MD1310111+9999REMSYN04801359 46/// /2502 11042 21083 39312 40259 53011=
0089013590999992017010716004+60533+008200FM-12+077399999V0203401N001019999999N999999999-00591-00891102701ADDMA1999999093161MD1210121+9999REMSYN04801359 46/// /3401 11059 21089 39316 40270 52012=
0089013590999992017010717004+60533+008200FM-12+077399999V0201101N001019999999N999999999-00561-00941102711ADDMA1999999093181MD1210091+9999REMSYN04801359 46/// /1101 11056 21094 39318 40271 52009=
0266013590999992017010718004+60533+008200FM-12+077399999V0209999C999999999999N060000199-00731-00971102771ADDAA112000091AY121021AY211021GA1999+999999021GE19AGL   +99999+99999GF105991001999999999999999KA1120M+00001MA1999999093171MD1990061+9999MW1021OD139900501999REMSYN08201359 11986 50000 11073 21097 39317 40277 50006 60002 70221 80006 333 10000 91105=EQDQ01    003SCCGA1
0089013590999992017010719004+60533+008200FM-12+077399999V0209999C999999999999N999999999-00821-01071102811ADDMA1999999093191MD1210031+9999REMSYN04801359 46/// /0000 11082 21107 39319 40281 52003=
0089013590999992017010720004+60533+008200FM-12+077399999V0209999C999999999999N999999999-00941-01101102931ADDMA1999999093251MD1310061+9999REMSYN04801359 46/// /0000 11094 21110 39325 40293 53006=
0089013590999992017010721004+60533+008200FM-12+077399999V0209999C999999999999N999999999-00891-01071102891ADDMA1999999093231MD1990061+9999REMSYN04801359 46/// /0000 11089 21107 39323 40289 50006=
0089013590999992017010722004+60533+008200FM-12+077399999V0209999C999999999999N999999999-00801-01081102871ADDMA1999999093251MD1110061+9999REMSYN04801359 46/// /0000 11080 21108 39325 40287 51006=
0089013590999992017010723004+60533+008200FM-12+077399999V0209999C999999999999N999999999-00931-01111102881ADDMA1999999093211MD1510031+9999REMSYN04801359 46/// /0000 11093 21111 39321 40288 55003=
0130013590999992017010800004+60533+008200FM-12+077399999V0209999C999999999999N999999999-00951-01151102831ADDAA106000091MA1999999093161MD1810081+9999OD139900501999REMSYN06401359 16/// /0000 11095 21115 39316 40283 58008 60001 333 91105=
0089013590999992017010801004+60533+008200FM-12+077399999V0209999C999999999999N999999999-00891-01091102781ADDMA1999999093131MD1710111+9999REMSYN04801359 46/// /0000 11089 21109 39313 40278 57011=
0089013590999992017010802004+60533+008200FM-12+077399999V0202901N003019999999N999999999-00311-00881102481ADDMA1999999093051MD1810161+9999REMSYN04801359 46/// /2903 11031 21088 39305 40248 58016=
0089013590999992017010803004+60533+008200FM-12+077399999V0203301N002019999999N999999999-00191-00791102401ADDMA1999999093021MD1810131+9999REMSYN04801359 46/// /3302 11019 21079 39302 40240 58013=
0089013590999992017010804004+60533+008200FM-12+077399999V0202501N005019999999N999999999-00061-00741102291ADDMA1999999092961MD1710171+9999REMSYN04801359 46/// /2505 11006 21074 39296 40229 57017=
0089013590999992017010805004+60533+008200FM-12+077399999V0202301N005019999999N999999999+00051-00451102251ADDMA1999999092961MD1510101+9999REMSYN04801359 46/// /2305 10005 21045 39296 40225 55010=
0293013590999992017010806004+60533+008200FM-12+077399999V0200201N002019999999N035000199-00051-00411102281ADDAA112000091AA224000091AJ100203100200099AY121021AY221021GA1081+012501061GE19AGL   +99999+99999GF108991081999012501999999IA1269KA1240N-00991MA1999999092961MD1510061+9999MW1031OD139901201999REMSYN09401359 11681 80202 11005 21041 39296 40228 55006 60002 70322 885// 333 21099 42020 70000 91112=
0089013590999992017010807004+60533+008200FM-12+077399999V0202701N004019999999N999999999+00261-00371102151ADDMA1999999092941MD1810021+9999REMSYN04801359 46/// /2704 10026 21037 39294 40215 58002=
0089013590999992017010808004+60533+008200FM-12+077399999V0202301N004019999999N999999999+00021-00421102261ADDMA1999999092971MD1310011+9999REMSYN04801359 46/// /2304 10002 21042 39297 40226 53001=
0089013590999992017010809004+60533+008200FM-12+077399999V0202901N005019999999N999999999+00011-00311102231ADDMA1999999092931MD1810031+9999REMSYN04801359 46/// /2905 10001 21031 39293 40223 58003=
0089013590999992017010810004+60533+008200FM-12+077399999V0201801N006019999999N999999999+00171-00241102161ADDMA1999999092921MD1810021+9999REMSYN04801359 46/// /1806 10017 21024 39292 40216 58002=
0089013590999992017010811004+60533+008200FM-12+077399999V0202301N006019999999N999999999+00181-00181102131ADDMA1999999092901MD1810071+9999REMSYN04801359 46/// /2306 10018 21018 39290 40213 58007=
0244013590999992017010812004+60533+008200FM-12+077399999V0202301N007019999999N028000199+00211-00181102061ADDAA106000091AY121021AY221021GA1061+004501081GA2999+999999011GE19AGL   +99999+99999GF107991061999004501999999MA1999999092841MD1810091+9999MW1021OD139901201999REMSYN07601359 11478 72307 10021 21018 39284 40206 58009 60001 70222 86809 333 91112=
0089013590999992017010813004+60533+008200FM-12+077399999V0202301N005019999999N999999999+00251-00131102011ADDMA1999999092811MD1710111+9999REMSYN04801359 46/// /2305 10025 21013 39281 40201 57011=
0089013590999992017010814004+60533+008200FM-12+077399999V0202501N005019999999N999999999+00281-00151102021ADDMA1999999092821MD1510071+9999REMSYN04801359 46/// /2505 10028 21015 39282 40202 55007=
0089013590999992017010815004+60533+008200FM-12+077399999V0202301N004019999999N999999999+00271-00111102031ADDMA1999999092831MD1510011+9999REMSYN04801359 46/// /2304 10027 21011 39283 40203 55001=
0089013590999992017010816004+60533+008200FM-12+077399999V0202301N004019999999N999999999+00251-00091101991ADDMA1999999092791MD1810021+9999REMSYN04801359 46/// /2304 10025 21009 39279 40199 58002=
0089013590999992017010817004+60533+008200FM-12+077399999V0202401N003019999999N999999999+00311-00071101991ADDMA1999999092811MD1510021+9999REMSYN04801359 46/// /2403 10031 21007 39281 40199 55002=
0263013590999992017010818004+60533+008200FM-12+077399999V0202401N003019999999N035000199+00301-00031101991ADDAA112000091AY121021AY221021GA1021+012501061GA2999+999999021GE19AGL   +99999+99999GF106991021999012501999999KA1120M+00311MA1999999092811MD1510031+9999MW1021OD139901301999REMSYN08201359 11681 62403 10030 21003 39281 40199 55003 60002 70222 82506 333 10031 91113=
0089013590999992017010819004+60533+008200FM-12+077399999V0202301N006019999999N999999999+00291-00091101961ADDMA1999999092771MD1810021+9999REMSYN04801359 46/// /2306 10029 21009 39277 40196 58002=
0089013590999992017010820004+60533+008200FM-12+077399999V0202301N006019999999N999999999+00311-00071101951ADDMA1999999092771MD1710041+9999REMSYN04801359 46/// /2306 10031 21007 39277 40195 57004=
0089013590999992017010821004+60533+008200FM-12+077399999V0202301N006019999999N999999999+00341-00081101961ADDMA1999999092791MD1510021+9999REMSYN04801359 46/// /2306 10034 21008 39279 40196 55002=
0089013590999992017010822004+60533+008200FM-12+077399999V0202501N007019999999N999999999+00391-00141101861ADDMA1999999092721MD1810061+9999REMSYN04801359 46/// /2507 10039 21014 39272 40186 58006=
0089013590999992017010823004+60533+008200FM-12+077399999V0202501N004019999999N999999999+00321-00131101891ADDMA1999999092721MD1810051+9999REMSYN04801359 46/// /2504 10032 21013 39272 40189 58005=
0130013590999992017010900004+60533+008200FM-12+077399999V0202001N004019999999N999999999+00311-00031101811ADDAA106000091MA1999999092641MD1810141+9999OD139901801999REMSYN06401359 16/// /2004 10031 21003 39264 40181 58014 60001 333 91118=
0089013590999992017010901004+60533+008200FM-12+077399999V0202401N003019999999N999999999+00221-00021101791ADDMA1999999092601MD1810121+9999REMSYN04801359 46/// /2403 10022 21002 39260 40179 58012=
0089013590999992017010902004+60533+008200FM-12+077399999V0201801N003019999999N999999999+00211-00011101731ADDMA1999999092541MD1610181+9999REMSYN04801359 46/// /1803 10021 21001 39254 40173 56018=
0089013590999992017010903004+60533+008200FM-12+077399999V0202901N002019999999N999999999+00311+00031101641ADDMA1999999092491MD1710151+9999REMSYN04801359 46/// /2902 10031 20003 39249 40164 57015=
0089013590999992017010904004+60533+008200FM-12+077399999V0201801N003019999999N999999999+00301+00061101541ADDMA1999999092401MD1810211+9999REMSYN04801359 46/// /1803 10030 20006 39240 40154 58021=
0089013590999992017010905004+60533+008200FM-12+077399999V0202301N004019999999N999999999+00291+00011101491ADDMA1999999092351MD1710201+9999REMSYN04801359 46/// /2304 10029 20001 39235 40149 57020=
0293013590999992017010906004+60533+008200FM-12+077399999V0202401N001019999999N025000199+00291-00051101421ADDAA112000091AA224000091AJ100203100200099AY121021AY211021GA1081+008001061GE19AGL   +99999+99999GF108991081999008001999999IA1269KA1240N+00201MA1999999092291MD1610211+9999MW1021OD139900701999REMSYN09401359 11575 82401 10029 21005 39229 40142 56021 60002 70221 885// 333 20020 42020 70000 91107=
0089013590999992017010907004+60533+008200FM-12+077399999V0202601N001019999999N999999999+00241-00051101311ADDMA1999999092171MD1810231+9999REMSYN04801359 46/// /2601 10024 21005 39217 40131 58023=
0089013590999992017010908004+60533+008200FM-12+077399999V0209999C999999999999N999999999+00221-00051101241ADDMA1999999092101MD1810251+9999REMSYN04801359 46/// /0000 10022 21005 39210 40124 58025=
0089013590999992017010909004+60533+008200FM-12+077399999V0200901N001019999999N999999999+00221+00001101161ADDMA1999999092031MD1710261+9999REMSYN04801359 46/// /0901 10022 21000 39203 40116 57026=
0089013590999992017010910004+60533+008200FM-12+077399999V0201601N002019999999N999999999+00301+00011101011ADDMA1999999091921MD1810251+9999REMSYN04801359 46/// /1602 10030 20001 39192 40101 58025=
0089013590999992017010911004+60533+008200FM-12+077399999V0202301N005019999999N999999999+00371-00011100881ADDMA1999999091821MD1810281+9999REMSYN04801359 46/// /2305 10037 21001 39182 40088 58028=
0263013590999992017010912004+60533+008200FM-12+077399999V0202201N004019999999N035000199+00401+00001100751ADDAA106999999AY181021AY221021GA1051+004501081GA2999+999999021GE19AGL   +99999+99999GF107991051999004501999999MA1999999091711MD1810321+9999MW1251OD139901001999REMSYN07601359 11481 72204 10040 21000 39171 40075 58032 60001 72582 85808 333 91110=EQDQ01  00002PRCP06
0089013590999992017010913004+60533+008200FM-12+077399999V0202301N005019999999N999999999+00411-00011100641ADDMA1999999091611MD1710311+9999REMSYN04801359 46/// /2305 10041 21001 39161 40064 57031=
0089013590999992017010914004+60533+008200FM-12+077399999V0202501N004019999999N999999999+00401-00021100551ADDMA1999999091521MD1810291+9999REMSYN04801359 46/// /2504 10040 21002 39152 40055 58029=
0089013590999992017010915004+60533+008200FM-12+077399999V0202101N002019999999N999999999+00361-00041100531ADDMA1999999091491MD1610211+9999REMSYN04801359 46/// /2102 10036 21004 39149 40053 56021=
0089013590999992017010916004+60533+008200FM-12+077399999V0203601N001019999999N999999999+00401-00021100431ADDMA1999999091421MD1810191+9999REMSYN04801359 46/// /3601 10040 21002 39142 40043 58019=
0089013590999992017010917004+60533+008200FM-12+077399999V0202001N002019999999N999999999+00331-00021100361ADDMA1999999091331MD1810201+9999REMSYN04801359 46/// /2002 10033 21002 39133 40036 58020=
0263013590999992017010918004+60533+008200FM-12+077399999V0201501N002019999999N030000199+00321-00021100301ADDAA112000091AY121021AY221021GA1061+004501061GA2999+999999021GE19AGL   +99999+99999GF107991061999004501999999KA1120M+00441MA1999999091271MD1710221+9999MW1021OD139900901999REMSYN08201359 11480 71502 10032 21002 39127 40030 57022 60002 70222 86508 333 10044 91109=
0089013590999992017010919004+60533+008200FM-12+077399999V0201501N002019999999N999999999+00311-00021100221ADDMA1999999091201MD1710211+9999REMSYN04801359 46/// /1502 10031 21002 39120 40022 57021=
0089013590999992017010920004+60533+008200FM-12+077399999V0209999C999999999999N999999999+00311-00071100161ADDMA1999999091141MD1710191+9999REMSYN04801359 46/// /0000 10031 21007 39114 40016 57019=
0089013590999992017010921004+60533+008200FM-12+077399999V0201501N003019999999N999999999+00331-00071100071ADDMA1999999091071MD1710201+9999REMSYN04801359 46/// /1503 10033 21007 39107 40007 57020=
0089013590999992017010922004+60533+008200FM-12+077399999V0201601N002019999999N999999999+00301-00081100021ADDMA1999999091011MD1710191+9999REMSYN04801359 46/// /1602 10030 21008 39101 40002 57019=
0089013590999992017010923004+60533+008200FM-12+077399999V0200601N001019999999N999999999+00201-00071100021ADDMA1999999090981MD1710161+9999REMSYN04801359 46/// /0601 10020 21007 39098 40002 57016=
0130013590999992017011000004+60533+008200FM-12+077399999V0200401N002019999999N999999999+00181-00031099991ADDAA106000091MA1999999090941MD1710131+9999OD139900701999REMSYN06401359 16/// /0402 10018 21003 39094 49999 57013 60001 333 91107=
0089013590999992017011001004+60533+008200FM-12+077399999V0201901N002019999999N999999999+00241-00071099921ADDMA1999999090901MD1710101+9999REMSYN04801359 46/// /1902 10024 21007 39090 49992 57010=
0089013590999992017011002004+60533+008200FM-12+077399999V0202001N002019999999N999999999+00231-00151099921ADDMA1999999090901MD1510081+9999REMSYN04801359 46/// /2002 10023 21015 39090 49992 55008=
0089013590999992017011003004+60533+008200FM-12+077399999V0209999C999999999999N999999999+00191-00201099921ADDMA1999999090881MD1510061+9999REMSYN04801359 46/// /0000 10019 21020 39088 49992 55006=
0089013590999992017011004004+60533+008200FM-12+077399999V0201701N002019999999N999999999+00171-00241099921ADDMA1999999090881MD1510031+9999REMSYN04801359 46/// /1702 10017 21024 39088 49992 55003=
0089013590999992017011005004+60533+008200FM-12+077399999V0201901N001019999999N999999999+00101-00241099921ADDMA1999999090861MD1710041+9999REMSYN04801359 46/// /1901 10010 21024 39086 49992 57004=
0306013590999992017011006004+60533+008200FM-12+077399999V0209999C999999999999N020000199+00111-00281099921ADDAA112000091AA224000091AJ100203100200099AY181021AY271021GA1081+004501071GE19AGL   +99999+99999GF108991081999004501999999IA1269KA1240N+00091MA1999999090861MD1710021+9999OD139900601999REMSYN09401359 11470 80000 10011 21028 39086 49992 57002 60002 77887 886// 333 20009 42020 70000 91106=EQDQ0178    2PRSWM 
0089013590999992017011007004+60533+008200FM-12+077399999V0209999C999999999999N999999999+00041-00201099941ADDMA1999999090861MD1510021+9999REMSYN04801359 46/// /0000 10004 21020 39086 49994 55002=
0108013590999992017011008004+60533+008200FM-12+077399999V0209999C999999999999N999999999-00011-00161099961ADDMA1999999090861MD1290049+9999REMSYN04801359 46/// /0000 11001 21016 39086 49996 54001=EQDQ01.1    3APC3  
0089013590999992017011009004+60533+008200FM-12+077399999V0200601N001019999999N999999999+00011-00261099921ADDMA1999999090831MD1810031+9999REMSYN04801359 46/// /0601 10001 21026 39083 49992 58003=
0089013590999992017011010004+60533+008200FM-12+077399999V0200201N001019999999N999999999-00061-00161099941ADDMA1999999090831MD1710031+9999REMSYN04801359 46/// /0201 11006 21016 39083 49994 57003=
0089013590999992017011011004+60533+008200FM-12+077399999V0203401N001019999999N999999999-00041-00181099911ADDMA1999999090811MD1710051+9999REMSYN04801359 46/// /3401 11004 21018 39081 49991 57005=
0228013590999992017011012004+60533+008200FM-12+077399999V0209999C999999999999N028000199-00041-00141099851ADDAA106001031AY171021AY221021GA1081+004501061GE19AGL   +99999+99999GF108991081999004501999999MA1999999090761MD1810081+9999MW1221OD139900401999REMSYN07601359 11478 80000 11004 21014 39076 49985 58008 60011 72272 885// 333 91104=
0089013590999992017011013004+60533+008200FM-12+077399999V0201901N003019999999N999999999+00051-00321099761ADDMA1999999090701MD1810131+9999REMSYN04801359 46/// /1903 10005 21032 39070 49976 58013=
0089013590999992017011014004+60533+008200FM-12+077399999V0202201N003019999999N999999999+00011-00381099731ADDMA1999999090661MD1610151+9999REMSYN04801359 46/// /2203 10001 21038 39066 49973 56015=
0089013590999992017011015004+60533+008200FM-12+077399999V0202401N002019999999N999999999-00011-00401099721ADDMA1999999090651MD1610111+9999REMSYN04801359 46/// /2402 11001 21040 39065 49972 56011=
0089013590999992017011016004+60533+008200FM-12+077399999V0202701N003019999999N999999999-00021-00461099691ADDMA1999999090621MD1610081+9999REMSYN04801359 46/// /2703 11002 21046 39062 49969 56008=
0089013590999992017011017004+60533+008200FM-12+077399999V0200901N001019999999N999999999-00071-00461099611ADDMA1999999090531MD1810131+9999REMSYN04801359 46/// /0901 11007 21046 39053 49961 58013=
0247013590999992017011018004+60533+008200FM-12+077399999V0202901N002019999999N040000199-00031-00421099501ADDAA112001031AY121021AY221021GA1061+008001061GE19AGL   +99999+99999GF106991061999008001999999KA1120M+00111MA1999999090441MD1810211+9999MW1021OD139900801999REMSYN08201359 11582 62902 11003 21042 39044 49950 58021 60012 70222 86500 333 10011 91108=
0089013590999992017011019004+60533+008200FM-12+077399999V0201201N003019999999N999999999+00011-00411099411ADDMA1999999090361MD1810251+9999REMSYN04801359 46/// /1203 10001 21041 39036 49941 58025=
0089013590999992017011020004+60533+008200FM-12+077399999V0201901N004019999999N999999999+00041-00391099271ADDMA1999999090251MD1810271+9999REMSYN04801359 46/// /1904 10004 21039 39025 49927 58027=
0089013590999992017011021004+60533+008200FM-12+077399999V0201901N007019999999N999999999+00061-00261099151ADDMA1999999090151MD1810291+9999REMSYN04801359 46/// /1907 10006 21026 39015 49915 58029=
0089013590999992017011022004+60533+008200FM-12+077399999V0202001N009019999999N999999999+00101-00291099021ADDMA1999999090051MD1810321+9999REMSYN04801359 46/// /2009 10010 21029 39005 49902 58032=
0089013590999992017011023004+60533+008200FM-12+077399999V0202201N009019999999N999999999+00071-00321098891ADDMA1999999089921MD1810341+9999REMSYN04801359 46/// /2209 10007 21032 38992 49889 58034=
0130013590999992017011100004+60533+008200FM-12+077399999V0202101N010019999999N999999999+00121-00271098751ADDAA106000091MA1999999089801MD1810351+9999OD139901901999REMSYN06401359 16/// /2110 10012 21027 38980 49875 58035 60001 333 91119=
0089013590999992017011101004+60533+008200FM-12+077399999V0202001N010019999999N999999999+00151-00261098641ADDMA1999999089711MD1810351+9999REMSYN04801359 46/// /2010 10015 21026 38971 49864 58035=
0089013590999992017011102004+60533+008200FM-12+077399999V0202101N006019999999N999999999+00161-00221098481ADDMA1999999089571MD1810351+9999REMSYN04801359 46/// /2106 10016 21022 38957 49848 58035=
0089013590999992017011103004+60533+008200FM-12+077399999V0202001N012019999999N999999999+00201-00231098201ADDMA1999999089321MD1810481+9999REMSYN04801359 46/// /2012 10020 21023 38932 49820 58048=
0089013590999992017011104004+60533+008200FM-12+077399999V0201901N006019999999N999999999+00181-00201098081ADDMA1999999089211MD1810491+9999REMSYN04801359 46/// /1906 10018 21020 38921 49808 58049=
0089013590999992017011105004+60533+008200FM-12+077399999V0202001N005019999999N999999999+00101-00121097921ADDMA1999999089041MD1610531+9999REMSYN04801359 46/// /2005 10010 21012 38904 49792 56053=
0293013590999992017011106004+60533+008200FM-12+077399999V0201901N002019999999N009000199+00101-00121097681ADDAA112000431AA224001631AJ100213100210099AY171021AY221021GA1081+004501051GE19AGL   +99999+99999GF108991081999004501999999IA1289KA1240N-00031MA1999999088821MD1810491+9999MW1701OD139901801999REMSYN09401359 11459 81902 10010 21012 38882 49768 58049 69942 77072 8802/ 333 21003 48021 70016 91118=
0089013590999992017011107004+60533+008200FM-12+077399999V0200801N001019999999N999999999+00121-00171097451ADDMA1999999088621MD1810601+9999REMSYN04801359 46/// /0801 10012 21017 38862 49745 58060=
0089013590999992017011108004+60533+008200FM-12+077399999V0200801N001019999999N999999999+00071-00181097231ADDMA1999999088411MD1810631+9999REMSYN04801359 46/// /0801 10007 21018 38841 49723 58063=
0089013590999992017011109004+60533+008200FM-12+077399999V0201601N002019999999N999999999+00091-00181097031ADDMA1999999088231MD1810591+9999REMSYN04801359 46/// /1602 10009 21018 38823 49703 58059=
0089013590999992017011110004+60533+008200FM-12+077399999V0200901N001019999999N999999999+00091-00211096911ADDMA1999999088121MD1610501+9999REMSYN04801359 46/// /0901 10009 21021 38812 49691 56050=
0089013590999992017011111004+60533+008200FM-12+077399999V0200201N001019999999N999999999+00051-00191096851ADDMA1999999088051MD1610351+9999REMSYN04801359 46/// /0201 10005 21019 38805 49685 56035=
0228013590999992017011112004+60533+008200FM-12+077399999V0209999C999999999999N003500199-00031-00081096831ADDAA106000731AY171021AY271021GA1081+002501051GE19AGL   +99999+99999GF108991081999002501999999MA1999999088011MD1610221+9999MW1711OD139900801999REMSYN07601359 11335 80000 11003 21008 38801 49683 56022 69971 77177 8802/ 333 91108=
0089013590999992017011113004+60533+008200FM-12+077399999V0209999C999999999999N999999999-00051-00101096791ADDMA1999999087971MD1610151+9999REMSYN04801359 46/// /0000 11005 21010 38797 49679 56015=
0089013590999992017011114004+60533+008200FM-12+077399999V0209999C999999999999N999999999-00081-00131096821ADDMA1999999087991MD1510061+9999REMSYN04801359 46/// /0000 11008 21013 38799 49682 55006=
0089013590999992017011115004+60533+008200FM-12+077399999V0209999C999999999999N999999999-00101-00141096901ADDMA1999999088051MD1310041+9999REMSYN04801359 46/// /0000 11010 21014 38805 49690 53004=
0089013590999992017011116004+60533+008200FM-12+077399999V0202701N006019999999N999999999+00031-00391096951ADDMA1999999088141MD1310171+9999REMSYN04801359 46/// /2706 10003 21039 38814 49695 53017=
0089013590999992017011117004+60533+008200FM-12+077399999V0202501N005019999999N999999999+00051-00611097051ADDMA1999999088241MD1310251+9999REMSYN04801359 46/// /2505 10005 21061 38824 49705 53025=
0247013590999992017011118004+60533+008200FM-12+077399999V0202601N005019999999N009000199-00081-00761097171ADDAA112003031AY171021AY271021GA1081+004501051GE19AGL   +99999+99999GF108991081999004501999999KA1120M+00151MA1999999088301MD1310251+9999MW1701OD139901601999REMSYN08201359 11459 82605 11008 21076 38830 49717 53025 60032 77077 8802/ 333 10015 91116=
0089013590999992017011119004+60533+008200FM-12+077399999V0202601N005019999999N999999999-00071-00731097271ADDMA1999999088401MD1310271+9999REMSYN04801359 46/// /2605 11007 21073 38840 49727 53027=
0089013590999992017011120004+60533+008200FM-12+077399999V0202601N004019999999N999999999-00141-00761097381ADDMA1999999088481MD1310241+9999REMSYN04801359 46/// /2604 11014 21076 38848 49738 53024=
0089013590999992017011121004+60533+008200FM-12+077399999V0202401N004019999999N999999999-00221-00691097461ADDMA1999999088531MD1110221+9999REMSYN04801359 46/// /2404 11022 21069 38853 49746 51022=
0089013590999992017011122004+60533+008200FM-12+077399999V0202401N006019999999N999999999-00271-00591097501ADDMA1999999088551MD1110141+9999REMSYN04801359 46/// /2406 11027 21059 38855 49750 51014=
0089013590999992017011123004+60533+008200FM-12+077399999V0202501N006019999999N999999999-00301-00681097521ADDMA1999999088561MD1210081+9999REMSYN04801359 46/// /2506 11030 21068 38856 49752 52008=
0130013590999992017011200004+60533+008200FM-12+077399999V0202401N006019999999N999999999-00291-00571097501ADDAA106000091MA1999999088541MD1990011+9999OD139901401999REMSYN06401359 16/// /2406 11029 21057 38854 49750 50001 60001 333 91114=
0089013590999992017011201004+60533+008200FM-12+077399999V0202301N003019999999N999999999-00351-00701097441ADDMA1999999088471MD1810081+9999REMSYN04801359 46/// /2303 11035 21070 38847 49744 58008=
0089013590999992017011202004+60533+008200FM-12+077399999V0202301N005019999999N999999999-00281-00571097391ADDMA1999999088441MD1810121+9999REMSYN04801359 46/// /2305 11028 21057 38844 49739 58012=
0089013590999992017011203004+60533+008200FM-12+077399999V0202201N005019999999N999999999-00281-00461097391ADDMA1999999088451MD1610091+9999REMSYN04801359 46/// /2205 11028 21046 38845 49739 56009=
0089013590999992017011204004+60533+008200FM-12+077399999V0202301N006019999999N999999999-00221-00351097351ADDMA1999999088431MD1810041+9999REMSYN04801359 46/// /2306 11022 21035 38843 49735 58004=
0089013590999992017011205004+60533+008200FM-12+077399999V0202301N005019999999N999999999-00211-00301097371ADDMA1999999088441MD1990011+9999REMSYN04801359 46/// /2305 11021 21030 38844 49737 50001=
0309013590999992017011206004+60533+008200FM-12+077399999V0202401N004019999999N040000199-00191-00431097361ADDAA112001031AA224003831AJ100243100240099AY121021AY221021GA1041+008001061GA2999+999999021GE19AGL   +99999+99999GF106991041999008001999999IA1289KA1240N-00351MA1999999088441MD1990001+9999MW1021OD139901301999REMSYN09401359 11582 62404 11019 21043 38844 49736 50000 60012 70222 84508 333 21035 48024 70038 91113=
0089013590999992017011207004+60533+008200FM-12+077399999V0202301N005019999999N999999999-00261-00361097451ADDMA1999999088511MD1310081+9999REMSYN04801359 46/// /2305 11026 21036 38851 49745 53008=
0089013590999992017011208004+60533+008200FM-12+077399999V0202501N005019999999N999999999-00201-00451097401ADDMA1999999088481MD1310031+9999REMSYN04801359 46/// /2505 11020 21045 38848 49740 53003=
0089013590999992017011209004+60533+008200FM-12+077399999V0202301N008019999999N999999999-00221-00481097411ADDMA1999999088481MD1990041+9999REMSYN04801359 46/// /2308 11022 21048 38848 49741 50004=
0089013590999992017011210004+60533+008200FM-12+077399999V0202301N010019999999N999999999-00171-00301097401ADDMA1999999088491MD1510031+9999REMSYN04801359 46/// /2310 11017 21030 38849 49740 55003=
0089013590999992017011211004+60533+008200FM-12+077399999V0202301N004019999999N999999999-00131-00371097461ADDMA1999999088551MD1310071+9999REMSYN04801359 46/// /2304 11013 21037 38855 49746 53007=
0244013590999992017011212004+60533+008200FM-12+077399999V0202401N005019999999N016000199-00111-00421097491ADDAA106000831AY181021AY221021GA1031+004501091GA2999+999999041GE19AGL   +99999+99999GF108991031999004501999999MA1999999088591MD1310111+9999MW1851OD139901701999REMSYN07601359 11466 82405 11011 21042 38859 49749 53011 69981 78582 83310 333 91117=
0089013590999992017011213004+60533+008200FM-12+077399999V0202301N006019999999N999999999-00121-00491097531ADDMA1999999088621MD1110141+9999REMSYN04801359 46/// /2306 11012 21049 38862 49753 51014=
0089013590999992017011214004+60533+008200FM-12+077399999V0202401N004019999999N999999999-00161-00471097591ADDMA1999999088661MD1210111+9999REMSYN04801359 46/// /2404 11016 21047 38866 49759 52011=
0089013590999992017011215004+60533+008200FM-12+077399999V0202401N004019999999N999999999-00181-00461097681ADDMA1999999088731MD1310141+9999REMSYN04801359 46/// /2404 11018 21046 38873 49768 53014=
0089013590999992017011216004+60533+008200FM-12+077399999V0202401N006019999999N999999999-00181-00441097721ADDMA1999999088771MD1210151+9999REMSYN04801359 46/// /2406 11018 21044 38877 49772 52015=
0089013590999992017011217004+60533+008200FM-12+077399999V0202401N004019999999N999999999-00221-00511097771ADDMA1999999088811MD1110151+9999REMSYN04801359 46/// /2404 11022 21051 38881 49777 51015=
0263013590999992017011218004+60533+008200FM-12+077399999V0202401N006019999999N012000199-00271-00611097791ADDAA112001031AY181021AY221021GA1051+004501091GA2999+999999001GE19AGL   +99999+99999GF107991051999004501999999KA1120M-00101MA1999999088811MD1110081+9999MW1851OD139901101999REMSYN08201359 11462 72406 11027 21061 38881 49779 51008 60012 78582 85301 333 11010 91111=
0089013590999992017011219004+60533+008200FM-12+077399999V0200301N001019999999N999999999-00311-00571097921ADDMA1999999088911MD1310141+9999REMSYN04801359 46/// /0301 11031 21057 38891 49792 53014=
0089013590999992017011220004+60533+008200FM-12+077399999V0200701N001019999999N999999999-00311-00651097971ADDMA1999999088961MD1310151+9999REMSYN04801359 46/// /0701 11031 21065 38896 49797 53015=
0089013590999992017011221004+60533+008200FM-12+077399999V0201001N001019999999N999999999-00301-00701098021ADDMA1999999089001MD1110191+9999REMSYN04801359 46/// /1001 11030 21070 38900 49802 51019=
0089013590999992017011222004+60533+008200FM-12+077399999V0202701N002019999999N999999999-00381-00681098091ADDMA1999999089051MD1310131+9999REMSYN04801359 46/// /2702 11038 21068 38905 49809 53013=
0089013590999992017011223004+60533+008200FM-12+077399999V0202301N001019999999N999999999-00531-00771098171ADDMA1999999089071MD1310111+9999REMSYN04801359 46/// /2301 11053 21077 38907 49817 53011=
0130013590999992017011300004+60533+008200FM-12+077399999V0202701N002019999999N999999999-00661-00871098261ADDAA106000091MA1999999089111MD1310111+9999OD139900801999REMSYN06401359 16/// /2702 11066 21087 38911 49826 53011 60001 333 91108=
0089013590999992017011301004+60533+008200FM-12+077399999V0209999C999999999999N999999999-00931-01091098451ADDMA1999999089191MD1310151+9999REMSYN04801359 46/// /0000 11093 21109 38919 49845 53015=
0089013590999992017011302004+60533+008200FM-12+077399999V0202601N003019999999N999999999-00871-01091098451ADDMA1999999089221MD1110151+9999REMSYN04801359 46/// /2603 11087 21109 38922 49845 51015=
0089013590999992017011303004+60533+008200FM-12+077399999V0202301N001019999999N999999999-01131-01321098571ADDMA1999999089241MD1110131+9999REMSYN04801359 46/// /2301 11113 21132 38924 49857 51013=
0089013590999992017011304004+60533+008200FM-12+077399999V0209999C999999999999N999999999-01281-01401098681ADDMA1999999089291MD1210101+9999REMSYN04801359 46/// /0000 11128 21140 38929 49868 52010=
0089013590999992017011305004+60533+008200FM-12+077399999V0209999C999999999999N999999999-01261-01411098741ADDMA1999999089341MD1310131+9999REMSYN04801359 46/// /0000 11126 21141 38934 49874 53013=
0309013590999992017011306004+60533+008200FM-12+077399999V0209999C999999999999N070001199-01321-01421098841ADDAA112000091AA224001131AJ100263100260099AY121021AY201021GA1021+008001061GA2999+999999021GE19AGL   +99999+99999GF103991021999008001999999IA1289KA1240N-01331MA1999999089411MD1310171+9999MW1011OD139900401999REMSYN09401359 11589 30000 11132 21142 38941 49884 53017 60002 70120 82508 333 21133 48026 70011 91104=
0089013590999992017011307004+60533+008200FM-12+077399999V0209999C999999999999N999999999-01431-01561098981ADDMA1999999089501MD1310221+9999REMSYN04801359 46/// /0000 11143 21156 38950 49898 53022=
0089013590999992017011308004+60533+008200FM-12+077399999V0209999C999999999999N999999999-01431-01521099071ADDMA1999999089591MD1210241+9999REMSYN04801359 46/// /0000 11143 21152 38959 49907 52024=
0089013590999992017011309004+60533+008200FM-12+077399999V0209999C999999999999N999999999-01611-01761099211ADDMA1999999089661MD1210241+9999REMSYN04801359 46/// /0000 11161 21176 38966 49921 52024=
0089013590999992017011310004+60533+008200FM-12+077399999V0209999C999999999999N999999999-01461-01611099211ADDMA1999999089701MD1210201+9999REMSYN04801359 46/// /0000 11146 21161 38970 49921 52020=
0089013590999992017011311004+60533+008200FM-12+077399999V0202401N002019999999N999999999-01051-01211099081ADDMA1999999089721MD1110141+9999REMSYN04801359 46/// /2402 11105 21121 38972 49908 51014=
0247013590999992017011312004+60533+008200FM-12+077399999V0201901N001019999999N070001199-00711-01071098981ADDAA106000091AY101021AY201021GA1999+999999001GE19AGL   +99999+99999GF103991001999999999999999MA1999999089741MD1210091+9999MW1021OD139900401999REMSYN07601359 11989 31901 11071 21107 38974 49898 52009 60001 70200 80001 333 91104=EQDQ01    003SCCGA1
0089013590999992017011313004+60533+008200FM-12+077399999V0209999C999999999999N999999999-00521-00901098931ADDMA1999999089771MD1210071+9999REMSYN04801359 46/// /0000 11052 21090 38977 49893 52007=
0089013590999992017011314004+60533+008200FM-12+077399999V0209999C999999999999N999999999-00541-00841098941ADDMA1999999089771MD1990041+9999REMSYN04801359 46/// /0000 11054 21084 38977 49894 50004=
0089013590999992017011315004+60533+008200FM-12+077399999V0202701N003019999999N999999999-00131-00671098851ADDMA1999999089821MD1310071+9999REMSYN04801359 46/// /2703 11013 21067 38982 49885 53007=
0089013590999992017011316004+60533+008200FM-12+077399999V0202701N004019999999N999999999-00181-00651098951ADDMA1999999089891MD1310131+9999REMSYN04801359 46/// /2704 11018 21065 38989 49895 53013=
0089013590999992017011317004+60533+008200FM-12+077399999V0202601N003019999999N999999999-00141-00701098981ADDMA1999999089931MD1210161+9999REMSYN04801359 46/// /2603 11014 21070 38993 49898 52016=
0263013590999992017011318004+60533+008200FM-12+077399999V0203101N005019999999N035000199-00161-00721099041ADDAA112000091AY121021AY201021GA1041+004501061GA2999+999999031GE19AGL   +99999+99999GF107991041999004501999999KA1120M-00121MA1999999089981MD1210161+9999MW1021OD139901101999REMSYN08201359 11481 73105 11016 21072 38998 49904 52016 60002 70220 84570 333 11012 91111=
0089013590999992017011319004+60533+008200FM-12+077399999V0203201N006019999999N999999999-00141-00671099081ADDMA1999999090021MD1210131+9999REMSYN04801359 46/// /3206 11014 21067 39002 49908 52013=
0089013590999992017011320004+60533+008200FM-12+077399999V0203201N006019999999N999999999-00161-00721099101ADDMA1999999090031MD1110111+9999REMSYN04801359 46/// /3206 11016 21072 39003 49910 51011=
0089013590999992017011321004+60533+008200FM-12+077399999V0203301N006019999999N999999999-00131-00711099141ADDMA1999999090081MD1210101+9999REMSYN04801359 46/// /3306 11013 21071 39008 49914 52010=
0089013590999992017011322004+60533+008200FM-12+077399999V0203301N006019999999N999999999-00151-00691099211ADDMA1999999090141MD1310121+9999REMSYN04801359 46/// /3306 11015 21069 39014 49921 53012=
0089013590999992017011323004+60533+008200FM-12+077399999V0203201N007019999999N999999999-00201-00761099281ADDMA1999999090181MD1210151+9999REMSYN04801359 46/// /3207 11020 21076 39018 49928 52015=
0130013590999992017011400004+60533+008200FM-12+077399999V0203301N006019999999N999999999-00261-00821099311ADDAA106000091MA1999999090201MD1110111+9999OD139901301999REMSYN06401359 16/// /3306 11026 21082 39020 49931 51011 60001 333 91113=
0089013590999992017011401004+60533+008200FM-12+077399999V0203301N006019999999N999999999-00251-00771099361ADDMA1999999090241MD1210101+9999REMSYN04801359 46/// /3306 11025 21077 39024 49936 52010=
0089013590999992017011402004+60533+008200FM-12+077399999V0203201N005019999999N999999999-00281-00771099451ADDMA1999999090311MD1310131+9999REMSYN04801359 46/// /3205 11028 21077 39031 49945 53013=
0089013590999992017011403004+60533+008200FM-12+077399999V0203301N005019999999N999999999-00311-00811099501ADDMA1999999090351MD1210161+9999REMSYN04801359 46/// /3305 11031 21081 39035 49950 52016=
0089013590999992017011404004+60533+008200FM-12+077399999V0203201N006019999999N999999999-00341-00891099551ADDMA1999999090381MD1110141+9999REMSYN04801359 46/// /3206 11034 21089 39038 49955 51014=
0089013590999992017011405004+60533+008200FM-12+077399999V0202901N004019999999N999999999-00381-00971099591ADDMA1999999090411MD1210101+9999REMSYN04801359 46/// /2904 11038 21097 39041 49959 52010=
0309013590999992017011406004+60533+008200FM-12+077399999V0203101N006019999999N025000199-00381-00971099671ADDAA112000091AA224000091AJ100263100260099AY121021AY221021GA1041+008001071GA2999+999999001GE19AGL   +99999+99999GF106991041999008001999999IA1289KA1240N-00421MA1999999090481MD1310131+9999MW1021OD139901301999REMSYN09401359 11575 63106 11038 21097 39048 49967 53013 60002 70222 84601 333 21042 48026 70000 91113=
0089013590999992017011407004+60533+008200FM-12+077399999V0203101N005019999999N999999999-00411-01021099771ADDMA1999999090561MD1310181+9999REMSYN04801359 46/// /3105 11041 21102 39056 49977 53018=
0089013590999992017011408004+60533+008200FM-12+077399999V0203401N005019999999N999999999-00451-01071099911ADDMA1999999090671MD1310261+9999REMSYN04801359 46/// /3405 11045 21107 39067 49991 53026=
0089013590999992017011409004+60533+008200FM-12+077399999V0203301N005019999999N999999999-00451-01131100021ADDMA1999999090781MD1310301+9999REMSYN04801359 46/// /3305 11045 21113 39078 40002 53030=
0089013590999992017011410004+60533+008200FM-12+077399999V0203301N005019999999N999999999-00511-01111100131ADDMA1999999090861MD1210301+9999REMSYN04801359 46/// /3305 11051 21111 39086 40013 52030=
0089013590999992017011411004+60533+008200FM-12+077399999V0203301N004019999999N999999999-00481-01161100221ADDMA1999999090941MD1210271+9999REMSYN04801359 46/// /3304 11048 21116 39094 40022 52027=
0244013590999992017011412004+60533+008200FM-12+077399999V0203501N003019999999N045000199-00451-01311100231ADDAA106000091AY121021AY221021GA1041+012501081GA2999+999999021GE19AGL   +99999+99999GF106991041999012501999999MA1999999090971MD1110191+9999MW1021OD139901201999REMSYN07601359 11683 63503 11045 21131 39097 40023 51019 60001 70222 84808 333 91112=
0089013590999992017011413004+60533+008200FM-12+077399999V0203201N006019999999N999999999-00581-01221100381ADDMA1999999091061MD1310201+9999REMSYN04801359 46/// /3206 11058 21122 39106 40038 53020=
0089013590999992017011414004+60533+008200FM-12+077399999V0203201N007019999999N999999999-00631-01271100471ADDMA1999999091131MD1310181+9999REMSYN04801359 46/// /3207 11063 21127 39113 40047 53018=
0089013590999992017011415004+60533+008200FM-12+077399999V0203101N007019999999N999999999-00621-01301100571ADDMA1999999091221MD1210251+9999REMSYN04801359 46/// /3107 11062 21130 39122 40057 52025=
0089013590999992017011416004+60533+008200FM-12+077399999V0203201N005019999999N999999999-00711-01341100731ADDMA1999999091331MD1310281+9999REMSYN04801359 46/// /3205 11071 21134 39133 40073 53028=
0089013590999992017011417004+60533+008200FM-12+077399999V0203101N003019999999N999999999-00671-01431100781ADDMA1999999091391MD1110271+9999REMSYN04801359 46/// /3103 11067 21143 39139 40078 51027=
0247013590999992017011418004+60533+008200FM-12+077399999V0203101N004019999999N070001199-00631-01371100831ADDAA112000091AY121021AY201021GA1021+012501061GE19AGL   +99999+99999GF102991021999012501999999KA1120M-00381MA1999999091451MD1110231+9999MW1011OD139901301999REMSYN08201359 11689 23104 11063 21137 39145 40083 51023 60002 70120 82500 333 11038 91113=
0089013590999992017011419004+60533+008200FM-12+077399999V0203101N005019999999N999999999-00591-01271100891ADDMA1999999091521MD1310191+9999REMSYN04801359 46/// /3105 11059 21127 39152 40089 53019=
0089013590999992017011420004+60533+008200FM-12+077399999V0202401N003019999999N999999999-00601-01221101001ADDMA1999999091611MD1310221+9999REMSYN04801359 46/// /2403 11060 21122 39161 40100 53022=
0089013590999992017011421004+60533+008200FM-12+077399999V0203501N002019999999N999999999-00661-01281101111ADDMA1999999091701MD1310251+9999REMSYN04801359 46/// /3502 11066 21128 39170 40111 53025=
0089013590999992017011422004+60533+008200FM-12+077399999V0209999C999999999999N999999999-00921-01371101251ADDMA1999999091741MD1110221+9999REMSYN04801359 46/// /0000 11092 21137 39174 40125 51022=
0089013590999992017011423004+60533+008200FM-12+077399999V0209999C999999999999N999999999-01171-01491101431ADDMA1999999091821MD1310201+9999REMSYN04801359 46/// /0000 11117 21149 39182 40143 53020=
0130013590999992017011500004+60533+008200FM-12+077399999V0202401N002019999999N999999999-01051-01371101431ADDAA106000091MA1999999091861MD1210161+9999OD139901201999REMSYN06401359 16/// /2402 11105 21137 39186 40143 52016 60001 333 91112=
0089013590999992017011501004+60533+008200FM-12+077399999V0202801N002019999999N999999999-01031-01421101501ADDMA1999999091931MD1210191+9999REMSYN04801359 46/// /2802 11103 21142 39193 40150 52019=
0089013590999992017011502004+60533+008200FM-12+077399999V0209999C999999999999N999999999-01251-01491101621ADDMA1999999091951MD1990131+9999REMSYN04801359 46/// /0000 11125 21149 39195 40162 50013=
0089013590999992017011503004+60533+008200FM-12+077399999V0202601N001019999999N999999999-00951-01411101551ADDMA1999999091991MD1110141+9999REMSYN04801359 46/// /2601 11095 21141 39199 40155 51014=
0089013590999992017011504004+60533+008200FM-12+077399999V0209999C999999999999N999999999-01191-01511101671ADDMA1999999092031MD1210101+9999REMSYN04801359 46/// /0000 11119 21151 39203 40167 52010=
0089013590999992017011505004+60533+008200FM-12+077399999V0209999C999999999999N999999999-01211-01541101721ADDMA1999999092061MD1210111+9999REMSYN04801359 46/// /0000 11121 21154 39206 40172 52011=
0249013590999992017011506004+60533+008200FM-12+077399999V0202601N002019999999N070001199-01051-01431101671ADDAA112000231AA224000231AJ100263100260099AY101021AY201021GF100995999999999999999999IA1269KA1240N-01351MA1999999092071MD1210081+9999MW1021OD139900601999REMSYN08801359 11989 02602 11105 21143 39207 40167 52008 69922 70200 333 21135 42026 70002 91106=
0089013590999992017011507004+60533+008200FM-12+077399999V0202301N002019999999N999999999-01091-01531101801ADDMA1999999092181MD1310151+9999REMSYN04801359 46/// /2302 11109 21153 39218 40180 53015=
0089013590999992017011508004+60533+008200FM-12+077399999V0209999C999999999999N999999999-01271-01631101971ADDMA1999999092271MD1310201+9999REMSYN04801359 46/// /0000 11127 21163 39227 40197 53020=
0089013590999992017011509004+60533+008200FM-12+077399999V0209999C999999999999N999999999-01421-01721102141ADDMA1999999092371MD1210301+9999REMSYN04801359 46/// /0000 11142 21172 39237 40214 52030=
0089013590999992017011510004+60533+008200FM-12+077399999V0202401N001019999999N999999999-01321-01621102181ADDMA1999999092441MD1210261+9999REMSYN04801359 46/// /2401 11132 21162 39244 40218 52026=
0089013590999992017011511004+60533+008200FM-12+077399999V0202201N001019999999N999999999-01201-01691102191ADDMA1999999092491MD1110221+9999REMSYN04801359 46/// /2201 11120 21169 39249 40219 51022=
0184013590999992017011512004+60533+008200FM-12+077399999V0202301N002019999999N070001199-01071-01651102181ADDAA106000091AY101021AY201021GF100995999999999999999999MA1999999092531MD1110161+9999MW1021OD139900501999REMSYN07001359 11989 02302 11107 21165 39253 40218 51016 60001 70200 333 91105=
0089013590999992017011513004+60533+008200FM-12+077399999V0202501N002019999999N999999999-00891-01591102151ADDMA1999999092561MD1210121+9999REMSYN04801359 46/// /2502 11089 21159 39256 40215 52012=
0089013590999992017011514004+60533+008200FM-12+077399999V0202601N002019999999N999999999-01021-01621102261ADDMA1999999092621MD1310131+9999REMSYN04801359 46/// /2602 11102 21162 39262 40226 53013=
0089013590999992017011515004+60533+008200FM-12+077399999V0202201N002019999999N999999999-01381-01731102461ADDMA1999999092681MD1210151+9999REMSYN04801359 46/// /2202 11138 21173 39268 40246 52015=
0089013590999992017011516004+60533+008200FM-12+077399999V0209999C999999999999N999999999-01421-01761102571ADDMA1999999092751MD1310191+9999REMSYN04801359 46/// /0000 11142 21176 39275 40257 53019=
0089013590999992017011517004+60533+008200FM-12+077399999V0209999C999999999999N999999999-01541-01791102671ADDMA1999999092811MD1210191+9999REMSYN04801359 46/// /0000 11154 21179 39281 40267 52019=
0203013590999992017011518004+60533+008200FM-12+077399999V0209999C999999999999N070001199-01651-01891102801ADDAA112000091AY101021AY201021GF100995999999999999999999KA1120M-00861MA1999999092881MD1210201+9999MW1021OD139900501999REMSYN07601359 11989 00000 11165 21189 39288 40280 52020 60002 70200 333 11086 91105=
0089013590999992017011519004+60533+008200FM-12+077399999V0202401N001019999999N999999999-01631-01871102841ADDMA1999999092931MD1210171+9999REMSYN04801359 46/// /2401 11163 21187 39293 40284 52017=
0089013590999992017011520004+60533+008200FM-12+077399999V0202201N003019999999N999999999-01441-01781102841ADDMA1999999092991MD1210191+9999REMSYN04801359 46/// /2203 11144 21178 39299 40284 52019=
0089013590999992017011521004+60533+008200FM-12+077399999V0202301N003019999999N999999999-01311-01811102821ADDMA1999999093021MD1210141+9999REMSYN04801359 46/// /2303 11131 21181 39302 40282 52014=
0089013590999992017011522004+60533+008200FM-12+077399999V0209999C999999999999N999999999-01561-01911102971ADDMA1999999093071MD1210151+9999REMSYN04801359 46/// /0000 11156 21191 39307 40297 52015=
0089013590999992017011523004+60533+008200FM-12+077399999V0203601N001019999999N999999999-01671-01961103051ADDMA1999999093101MD1310111+9999REMSYN04801359 46/// /3601 11167 21196 39310 40305 53011=
0130013590999992017011600004+60533+008200FM-12+077399999V0209999C999999999999N999999999-01701-01951103141ADDAA106000091MA1999999093171MD1310151+9999OD139900501999REMSYN06401359 16/// /0000 11170 21195 39317 40314 53015 60001 333 91105=
0089013590999992017011601004+60533+008200FM-12+077399999V0209999C999999999999N999999999-01791-02001103211ADDMA1999999093201MD1310131+9999REMSYN04801359 46/// /0000 11179 21200 39320 40321 53013=
0089013590999992017011602004+60533+008200FM-12+077399999V0201901N001019999999N999999999-01691-01971103251ADDMA1999999093271MD1310171+9999REMSYN04801359 46/// /1901 11169 21197 39327 40325 53017=
0089013590999992017011603004+60533+008200FM-12+077399999V0202101N002019999999N999999999-01651-01981103261ADDMA1999999093301MD1210131+9999REMSYN04801359 46/// /2102 11165 21198 39330 40326 52013=
0089013590999992017011604004+60533+008200FM-12+077399999V0202301N003019999999N999999999-01561-01921103201ADDMA1999999093281MD1990071+9999REMSYN04801359 46/// /2303 11156 21192 39328 40320 50007=
0089013590999992017011605004+60533+008200FM-12+077399999V0202101N002019999999N999999999-01571-01931103271ADDMA1999999093331MD1310061+9999REMSYN04801359 46/// /2102 11157 21193 39333 40327 53006=
0249013590999992017011606004+60533+008200FM-12+077399999V0202301N002019999999N070001199-01711-02011103391ADDAA112000091AA224000091AJ100263100260099AY101021AY201021GF100995999999999999999999IA1269KA1240N-01801MA1999999093391MD1310101+9999MW1021OD139900501999REMSYN08801359 11989 02302 11171 21201 39339 40339 53010 60002 70200 333 21180 42026 70000 91105=
0089013590999992017011607004+60533+008200FM-12+077399999V0202101N003019999999N999999999-01651-02041103421ADDMA1999999093451MD1210171+9999REMSYN04801359 46/// /2103 11165 21204 39345 40342 52017=
0089013590999992017011608004+60533+008200FM-12+077399999V0202201N003019999999N999999999-01581-02001103431ADDMA1999999093481MD1210141+9999REMSYN04801359 46/// /2203 11158 21200 39348 40343 52014=
0089013590999992017011609004+60533+008200FM-12+077399999V0202101N002019999999N999999999-01571-02031103481ADDMA1999999093531MD1210141+9999REMSYN04801359 46/// /2102 11157 21203 39353 40348 52014=
0089013590999992017011610004+60533+008200FM-12+077399999V0202301N003019999999N999999999-01561-02001103511ADDMA1999999093561MD1210111+9999REMSYN04801359 46/// /2303 11156 21200 39356 40351 52011=
0089013590999992017011611004+60533+008200FM-12+077399999V0202201N004019999999N999999999-01371-01951103431ADDMA1999999093551MD1990081+9999REMSYN04801359 46/// /2204 11137 21195 39355 40343 50008=
0228013590999992017011612004+60533+008200FM-12+077399999V0202001N002019999999N070001199-01171-01861103361ADDAA106000091AY101021AY201021GA1011+999999031GE19AGL   +99999+99999GF101991011999999999999999MA1999999093561MD1990031+9999MW1031OD139900601999REMSYN07601359 11989 12002 11117 21186 39356 40336 50003 60001 70300 81050 333 91106=
0089013590999992017011613004+60533+008200FM-12+077399999V0202701N003019999999N999999999-00851-01711103171ADDMA1999999093501MD1810061+9999REMSYN04801359 46/// /2703 11085 21171 39350 40317 58006=
0089013590999992017011614004+60533+008200FM-12+077399999V0202101N002019999999N999999999-01091-01741103241ADDMA1999999093481MD1810081+9999REMSYN04801359 46/// /2102 11109 21174 39348 40324 58008=
0089013590999992017011615004+60533+008200FM-12+077399999V0202101N001019999999N999999999-00991-01671103191ADDMA1999999093471MD1610091+9999REMSYN04801359 46/// /2101 11099 21167 39347 40319 56009=
0089013590999992017011616004+60533+008200FM-12+077399999V0202101N001019999999N999999999-01051-01591103231ADDMA1999999093481MD1510021+9999REMSYN04801359 46/// /2101 11105 21159 39348 40323 55002=
0089013590999992017011617004+60533+008200FM-12+077399999V0202201N002019999999N999999999-00801-01511103091ADDMA1999999093441MD1810031+9999REMSYN04801359 46/// /2202 11080 21151 39344 40309 58003=
0263013590999992017011618004+60533+008200FM-12+077399999V0202101N001019999999N040000199-00811-01331103071ADDAA112000091AY121021AY201021GA1061+999999031GA2999+999999021GE19AGL   +99999+99999GF108991061999999999999999KA1120M-00731MA1999999093421MD1810051+9999MW1021OD139900601999REMSYN08201359 11982 82101 11081 21133 39342 40307 58005 60002 70220 86057 333 11073 91106=
0089013590999992017011619004+60533+008200FM-12+077399999V0202501N002019999999N999999999-00481-01461102931ADDMA1999999093411MD1710071+9999REMSYN04801359 46/// /2502 11048 21146 39341 40293 57007=
0089013590999992017011620004+60533+008200FM-12+077399999V0202501N003019999999N999999999-00401-01381102931ADDMA1999999093441MD1510011+9999REMSYN04801359 46/// /2503 11040 21138 39344 40293 55001=
0089013590999992017011621004+60533+008200FM-12+077399999V0202701N002019999999N999999999-00301-01221102901ADDMA1999999093441MD1310021+9999REMSYN04801359 46/// /2702 11030 21122 39344 40290 53002=
0089013590999992017011622004+60533+008200FM-12+077399999V0202601N004019999999N999999999-00501-00771103021ADDMA1999999093481MD1310071+9999REMSYN04801359 46/// /2604 11050 21077 39348 40302 53007=
0089013590999992017011623004+60533+008200FM-12+077399999V0202501N003019999999N999999999-00311-00851102921ADDMA1999999093461MD1990021+9999REMSYN04801359 46/// /2503 11031 21085 39346 40292 50002=
0130013590999992017011700004+60533+008200FM-12+077399999V0202501N004019999999N999999999-00211-00751102851ADDAA106000091MA1999999093421MD1810021+9999OD139900801999REMSYN06401359 16/// /2504 11021 21075 39342 40285 58002 60001 333 91108=
0089013590999992017011701004+60533+008200FM-12+077399999V0202401N004019999999N999999999-00181-00741102811ADDMA1999999093401MD1710091+9999REMSYN04801359 46/// /2404 11018 21074 39340 40281 57009=
0089013590999992017011702004+60533+008200FM-12+077399999V0202501N003019999999N999999999-00201-00691102811ADDMA1999999093391MD1610061+9999REMSYN04801359 46/// /2503 11020 21069 39339 40281 56006=
0089013590999992017011703004+60533+008200FM-12+077399999V0202701N001019999999N999999999-00071-00461102741ADDMA1999999093371MD1710051+9999REMSYN04801359 46/// /2701 11007 21046 39337 40274 57005=
0089013590999992017011704004+60533+008200FM-12+077399999V0200401N001019999999N999999999-00251-00561102791ADDMA1999999093351MD1810041+9999REMSYN04801359 46/// /0401 11025 21056 39335 40279 58004=
0089013590999992017011705004+60533+008200FM-12+077399999V0200701N002019999999N999999999-00161-00471102761ADDMA1999999093361MD1510041+9999REMSYN04801359 46/// /0702 11016 21047 39336 40276 55004=
0309013590999992017011706004+60533+008200FM-12+077399999V0200701N001019999999N035000199-00191-00451102811ADDAA112000091AA224000091AJ100263100260099AY121021AY221021GA1031+008001061GA2999+999999031GE19AGL   +99999+99999GF108991031999008001999999IA1269KA1240N-00821MA1999999093401MD1310021+9999MW1021OD139901001999REMSYN09401359 11581 80701 11019 21045 39340 40281 53002 60002 70222 8357/ 333 21082 42026 70000 91110=
0089013590999992017011707004+60533+008200FM-12+077399999V0200401N002019999999N999999999-00021-00301102721ADDMA1999999093371MD1990011+9999REMSYN04801359 46/// /0402 11002 21030 39337 40272 50001=
0089013590999992017011708004+60533+008200FM-12+077399999V0200201N003019999999N999999999+00121-00291102711ADDMA1999999093411MD1310051+9999REMSYN04801359 46/// /0203 10012 21029 39341 40271 53005=
0089013590999992017011709004+60533+008200FM-12+077399999V0202401N008019999999N999999999+00371-00181102601ADDMA1999999093381MD1510011+9999REMSYN04801359 46/// /2408 10037 21018 39338 40260 55001=
0089013590999992017011710004+60533+008200FM-12+077399999V0202301N006019999999N999999999+00341-00171102581ADDMA1999999093361MD1990011+9999REMSYN04801359 46/// /2306 10034 21017 39336 40258 50001=
0089013590999992017011711004+60533+008200FM-12+077399999V0202301N006019999999N999999999+00421-00061102581ADDMA1999999093381MD1510031+9999REMSYN04801359 46/// /2306 10042 21006 39338 40258 55003=
0228013590999992017011712004+60533+008200FM-12+077399999V0202501N008019999999N035000199+00491-00071102531ADDAA106000091AY121021AY221021GA1081+999999031GE19AGL   +99999+99999GF108991081999999999999999MA1999999093351MD1810031+9999MW1021OD139901601999REMSYN07601359 11981 82508 10049 21007 39335 40253 58003 60001 70222 8807/ 333 91116=
0089013590999992017011713004+60533+008200FM-12+077399999V0202701N007019999999N999999999+00531-00031102501ADDMA1999999093351MD1810011+9999REMSYN04801359 46/// /2707 10053 21003 39335 40250 58001=
0089013590999992017011714004+60533+008200FM-12+077399999V0202601N006019999999N999999999+00511-00051102501ADDMA1999999093341MD1710041+9999REMSYN04801359 46/// /2606 10051 21005 39334 40250 57004=
0089013590999992017011715004+60533+008200FM-12+077399999V0202701N006019999999N999999999+00561-00021102511ADDMA1999999093361MD1510011+9999REMSYN04801359 46/// /2706 10056 21002 39336 40251 55001=
0089013590999992017011716004+60533+008200FM-12+077399999V0202801N003019999999N999999999+00581+00001102511ADDMA1999999093371MD1310021+9999REMSYN04801359 46/// /2803 10058 21000 39337 40251 53002=
0089013590999992017011717004+60533+008200FM-12+077399999V0200401N002019999999N999999999+00461-00041102531ADDMA1999999093351MD1990011+9999REMSYN04801359 46/// /0402 10046 21004 39335 40253 50001=
0263013590999992017011718004+60533+008200FM-12+077399999V0202801N003019999999N045000199+00491+00031102541ADDAA112000091AY121021AY221021GA1021+012501061GA2999+999999031GE19AGL   +99999+99999GF106991021999012501999999KA1120M+00601MA1999999093371MD1310011+9999MW1021OD139901501999REMSYN08201359 11683 62803 10049 20003 39337 40254 53001 60002 70222 82570 333 10060 91115=
0089013590999992017011719004+60533+008200FM-12+077399999V0202701N001019999999N999999999+00421+00041102621ADDMA1999999093421MD1310051+9999REMSYN04801359 46/// /2701 10042 20004 39342 40262 53005=
0089013590999992017011720004+60533+008200FM-12+077399999V0200701N002019999999N999999999+00321-00021102701ADDMA1999999093461MD1310111+9999REMSYN04801359 46/// /0702 10032 21002 39346 40270 53011=
0089013590999992017011721004+60533+008200FM-12+077399999V0200701N002019999999N999999999+00391+00031102721ADDMA1999999093501MD1210131+9999REMSYN04801359 46/// /0702 10039 20003 39350 40272 52013=
0089013590999992017011722004+60533+008200FM-12+077399999V0202701N003019999999N999999999+00501+00041102681ADDMA1999999093501MD1990081+9999REMSYN04801359 46/// /2703 10050 20004 39350 40268 50008=
0089013590999992017011723004+60533+008200FM-12+077399999V0202401N004019999999N999999999+00521+00111102681ADDMA1999999093501MD1990051+9999REMSYN04801359 46/// /2404 10052 20011 39350 40268 50005=
0130013590999992017011800004+60533+008200FM-12+077399999V0202401N008019999999N999999999+00511+00111102691ADDAA106000091MA1999999093511MD1210011+9999OD139901201999REMSYN06401359 16/// /2408 10051 20011 39351 40269 52001 60001 333 91112=
0089013590999992017011801004+60533+008200FM-12+077399999V0202301N007019999999N999999999+00641+00091102631ADDMA1999999093491MD1810011+9999REMSYN04801359 46/// /2307 10064 20009 39349 40263 58001=
0089013590999992017011802004+60533+008200FM-12+077399999V0201901N007019999999N999999999+00611+00091102571ADDMA1999999093431MD1810081+9999REMSYN04801359 46/// /1907 10061 20009 39343 40257 58008=
0089013590999992017011803004+60533+008200FM-12+077399999V0201601N005019999999N999999999+00571+00071102541ADDMA1999999093391MD1810121+9999REMSYN04801359 46/// /1605 10057 20007 39339 40254 58012=
0089013590999992017011804004+60533+008200FM-12+077399999V0202101N003019999999N999999999+00661+00031102491ADDMA1999999093371MD1510111+9999REMSYN04801359 46/// /2103 10066 20003 39337 40249 55011=
0089013590999992017011805004+60533+008200FM-12+077399999V0201401N003019999999N999999999+00581+00101102451ADDMA1999999093311MD1810111+9999REMSYN04801359 46/// /1403 10058 20010 39331 40245 58011=
0309013590999992017011806004+60533+008200FM-12+077399999V0201301N003019999999N070001199+00581+00101102401ADDAA112000091AA224000091AJ100223100220099AY121021AY201021GA1011+012501061GA2999+999999021GE19AGL   +99999+99999GF103991011999012501999999IA1269KA1240N+00281MA1999999093271MD1710121+9999MW1021OD139901501999REMSYN09401359 11689 31303 10058 20010 39327 40240 57012 60002 70220 81508 333 20028 42022 70000 91115=
0089013590999992017011807004+60533+008200FM-12+077399999V0202501N005019999999N999999999+00571+00091102351ADDMA1999999093211MD1810161+9999REMSYN04801359 46/// /2505 10057 20009 39321 40235 58016=
0089013590999992017011808004+60533+008200FM-12+077399999V0202301N008019999999N999999999+00521+00041102381ADDMA1999999093221MD1510091+9999REMSYN04801359 46/// /2308 10052 20004 39322 40238 55009=
0089013590999992017011810004+60533+008200FM-12+077399999V0202201N005019999999N999999999+00521+00151102471ADDMA1999999093311MD1310101+9999REMSYN04801359 46/// /2205 10052 20015 39331 40247 53010=
0089013590999992017011811004+60533+008200FM-12+077399999V0202301N002019999999N999999999+00531+00111102511ADDMA1999999093351MD1110131+9999REMSYN04801359 46/// /2302 10053 20011 39335 40251 51013=
0260013590999992017011812004+60533+008200FM-12+077399999V0202201N007019999999N045000199+00491+00051102391ADDAA106000091AY121021AY221021GA1031+012501081GA2999+999999031GA3999+999999001GE19AGL   +99999+99999GF105991031999012501999999MA1999999093231MD1810061+9999MW1021OD139901501999REMSYN07601359 11683 52207 10049 20005 39323 40239 58006 60001 70222 83843 333 91115=
0089013590999992017011813004+60533+008200FM-12+077399999V0202301N009019999999N999999999+00481+00081102331ADDMA1999999093171MD1810151+9999REMSYN04801359 46/// /2309 10048 20008 39317 40233 58015=
0089013590999992017011814004+60533+008200FM-12+077399999V0202401N004019999999N999999999+00471+00031102381ADDMA1999999093221MD1510141+9999REMSYN04801359 46/// /2404 10047 20003 39322 40238 55014=
0089013590999992017011815004+60533+008200FM-12+077399999V0202301N005019999999N999999999+00431-00011102451ADDMA1999999093261MD1310031+9999REMSYN04801359 46/// /2305 10043 21001 39326 40245 53003=
0089013590999992017011816004+60533+008200FM-12+077399999V0202301N007019999999N999999999+00401-00041102381ADDMA1999999093201MD1990021+9999REMSYN04801359 46/// /2307 10040 21004 39320 40238 50002=
0089013590999992017011817004+60533+008200FM-12+077399999V0201201N001019999999N999999999+00321-00081102491ADDMA1999999093271MD1310051+9999REMSYN04801359 46/// /1201 10032 21008 39327 40249 53005=
0247013590999992017011818004+60533+008200FM-12+077399999V0202501N005019999999N050000199+00421-00121102471ADDAA112000091AY121021AY201021GA1031+008001061GE19AGL   +99999+99999GF103991031999008001999999KA1120M+00651MA1999999093281MD1310021+9999MW1021OD139901501999REMSYN08201359 11584 32505 10042 21012 39328 40247 53002 60002 70220 83500 333 10065 91115=
0089013590999992017011820004+60533+008200FM-12+077399999V0202401N007019999999N999999999+00361-00111102441ADDMA1999999093241MD1810031+9999REMSYN04801359 46/// /2407 10036 21011 39324 40244 58003=
0089013590999992017011821004+60533+008200FM-12+077399999V0202301N009019999999N999999999+00341-00111102411ADDMA1999999093201MD1810081+9999REMSYN04801359 46/// /2309 10034 21011 39320 40241 58008=
0089013590999992017011822004+60533+008200FM-12+077399999V0202301N009019999999N999999999+00361-00081102421ADDMA1999999093211MD1510031+9999REMSYN04801359 46/// /2309 10036 21008 39321 40242 55003=
0089013590999992017011823004+60533+008200FM-12+077399999V0202401N004019999999N999999999+00341-00011102481ADDMA1999999093261MD1310031+9999REMSYN04801359 46/// /2404 10034 21001 39326 40248 53003=
0130013590999992017011900004+60533+008200FM-12+077399999V0202301N004019999999N999999999+00371+00021102471ADDAA106000091MA1999999093261MD1310071+9999OD139901801999REMSYN06401359 16/// /2304 10037 20002 39326 40247 53007 60001 333 91118=
0089013590999992017011901004+60533+008200FM-12+077399999V0202501N003019999999N999999999+00381+00021102441ADDMA1999999093241MD1990021+9999REMSYN04801359 46/// /2503 10038 20002 39324 40244 50002=
0089013590999992017011902004+60533+008200FM-12+077399999V0202501N004019999999N999999999+00431+00061102421ADDMA1999999093231MD1810031+9999REMSYN04801359 46/// /2504 10043 20006 39323 40242 58003=
0089013590999992017011903004+60533+008200FM-12+077399999V0202501N006019999999N999999999+00481-00081102411ADDMA1999999093251MD1810011+9999REMSYN04801359 46/// /2506 10048 21008 39325 40241 58001=
0089013590999992017011904004+60533+008200FM-12+077399999V0202701N003019999999N999999999+00461+00061102451ADDMA1999999093271MD1210031+9999REMSYN04801359 46/// /2703 10046 20006 39327 40245 52003=
0089013590999992017011905004+60533+008200FM-12+077399999V0202801N003019999999N999999999+00401+00051102431ADDMA1999999093241MD1990011+9999REMSYN04801359 46/// /2803 10040 20005 39324 40243 50001=
0309013590999992017011906004+60533+008200FM-12+077399999V0202401N005019999999N045000199+00381+00031102331ADDAA112000091AA224000091AJ100173100170099AY181021AY211021GA1021+012501061GA2999+999999021GE19AGL   +99999+99999GF104991021999012501999999IA1269KA1240N+00321MA1999999093141MD1810121+9999MW1021OD139901301999REMSYN09401359 11683 42405 10038 20003 39314 40233 58012 60002 70281 82508 333 20032 42017 70000 91113=
0089013590999992017011907004+60533+008200FM-12+077399999V0202301N008019999999N999999999+00371+00081102241ADDMA1999999093061MD1810211+9999REMSYN04801359 46/// /2308 10037 20008 39306 40224 58021=
0089013590999992017011908004+60533+008200FM-12+077399999V0202201N005019999999N999999999+00421+00091102241ADDMA1999999093081MD1610161+9999REMSYN04801359 46/// /2205 10042 20009 39308 40224 56016=
0089013590999992017011909004+60533+008200FM-12+077399999V0202601N005019999999N999999999+00481+00091102251ADDMA1999999093101MD1510031+9999REMSYN04801359 46/// /2605 10048 20009 39310 40225 55003=
0089013590999992017011910004+60533+008200FM-12+077399999V0202601N006019999999N999999999+00471+00121102231ADDMA1999999093081MD1990021+9999REMSYN04801359 46/// /2606 10047 20012 39308 40223 50002=
0089013590999992017011911004+60533+008200FM-12+077399999V0202601N004019999999N999999999+00501+00151102241ADDMA1999999093091MD1990021+9999REMSYN04801359 46/// /2604 10050 20015 39309 40224 50002=
0263013590999992017011912004+60533+008200FM-12+077399999V0202401N004019999999N030000199+00481+00131102261ADDAA106999999AY181021AY211021GA1051+008001091GA2999+999999021GE19AGL   +99999+99999GF108991051999008001999999MA1999999093111MD1510011+9999MW1801OD139901301999REMSYN07601359 11580 82404 10048 20013 39311 40226 55001 60001 78081 85307 333 91113=EQDQ01  00002PRCP06
0089013590999992017011913004+60533+008200FM-12+077399999V0202601N005019999999N999999999+00531+00121102231ADDMA1999999093101MD1990021+9999REMSYN04801359 46/// /2605 10053 20012 39310 40223 50002=
0089013590999992017011914004+60533+008200FM-12+077399999V0202401N005019999999N999999999+00471+00101102271ADDMA1999999093111MD1210021+9999REMSYN04801359 46/// /2405 10047 20010 39311 40227 52002=
0089013590999992017011915004+60533+008200FM-12+077399999V0202401N006019999999N999999999+00461+00021102301ADDMA1999999093131MD1310031+9999REMSYN04801359 46/// /2406 10046 20002 39313 40230 53003=
0089013590999992017011916004+60533+008200FM-12+077399999V0202301N007019999999N999999999+00431+00061102341ADDMA1999999093171MD1310071+9999REMSYN04801359 46/// /2307 10043 20006 39317 40234 53007=
0089013590999992017011917004+60533+008200FM-12+077399999V0202301N006019999999N999999999+00461+00061102381ADDMA1999999093211MD1310101+9999REMSYN04801359 46/// /2306 10046 20006 39321 40238 53010=
0247013590999992017011918004+60533+008200FM-12+077399999V0202401N005019999999N035000199+00471+00051102411ADDAA112000231AY181021AY221021GA1041+008001091GE19AGL   +99999+99999GF104991041999008001999999KA1120M+00541MA1999999093241MD1310111+9999MW1801OD139901501999REMSYN08201359 11581 42405 10047 20005 39324 40241 53011 69922 78082 84300 333 10054 91115=
0089013590999992017011919004+60533+008200FM-12+077399999V0202301N003019999999N999999999+00401+00051102471ADDMA1999999093281MD1210111+9999REMSYN04801359 46/// /2303 10040 20005 39328 40247 52011=
0089013590999992017011920004+60533+008200FM-12+077399999V0202401N005019999999N999999999+00471+00101102461ADDMA1999999093281MD1990081+9999REMSYN04801359 46/// /2405 10047 20010 39328 40246 50008=
0089013590999992017011921004+60533+008200FM-12+077399999V0202501N007019999999N999999999+00501+00101102481ADDMA1999999093311MD1110061+9999REMSYN04801359 46/// /2507 10050 20010 39331 40248 51006=
0089013590999992017011922004+60533+008200FM-12+077399999V0202501N009019999999N999999999+00501+00061102411ADDMA1999999093251MD1810031+9999REMSYN04801359 46/// /2509 10050 20006 39325 40241 58003=
0089013590999992017011923004+60533+008200FM-12+077399999V0202401N005019999999N999999999+00431+00051102461ADDMA1999999093271MD1510011+9999REMSYN04801359 46/// /2405 10043 20005 39327 40246 55001=
0130013590999992017012000004+60533+008200FM-12+077399999V0202401N003019999999N999999999+00461+00091102421ADDAA106000091MA1999999093251MD1610061+9999OD139901701999REMSYN06401359 16/// /2403 10046 20009 39325 40242 56006 60001 333 91117=
0089013590999992017012001004+60533+008200FM-12+077399999V0202501N004019999999N999999999+00491+00051102391ADDMA1999999093231MD1810021+9999REMSYN04801359 46/// /2504 10049 20005 39323 40239 58002=
0089013590999992017012002004+60533+008200FM-12+077399999V0202401N007019999999N999999999+00471+00051102281ADDMA1999999093131MD1810151+9999REMSYN04801359 46/// /2407 10047 20005 39313 40228 58015=
