0164419410999992017010100004+23267+090700FM-12+000799999V0209999C000019999999N004000199+01501+01401101571ADDAA124000091AY101021AY201021GF100995999999999999999999MA1999999101521MD1999999+0141MW1051REMSYN06441941 31940 00000 10150 20140 30152 40157 70500 333 58014 70000=
0183419410999992017010103004+23267+090700FM-12+000799999V0209999C000019999999N004000199+02101+01901101791ADDAA124000091AY101021AY201021GF100995999999999999999999KA1240N+01471MA1999999101731MD1999999+0161MW1051REMSYN07041941 31940 00000 10210 20190 30173 40179 70500 333 20147 58016 70000=
0143419410999992017010106004+23267+090700FM-12+000799999V0203601N001019999999N006000199+02551+01701101631ADDAY101021AY201021GF100995999999999999999999MA1999999101571MD1810081+9999MW1001REMSYN05441941 32956 03602 10255 20170 30157 40163 58008 70000=
0178419410999992017010109004+23267+090700FM-12+000799999V0209999C000019999999N006000199+02651+01601101331ADDAA124000091GA1021+004501061GE19AGL   +99999+99999GF102991021999004501999999MA1999999101271REMSYN07641941 32456 20000 10265 20160 30127 40133 82500 333 56900 58013 70000 82615=
0197419410999992017010112004+23267+090700FM-12+000799999V0209999C000019999999N005000199+02261+02001101351ADDAA124000091GA1031+004501061GE19AGL   +99999+99999GF103991031999004501999999KA1240M+02701MA1999999101291REMSYN08241941 32450 30000 10226 20200 30129 40135 83500 333 10270 56900 58001 70000 83615=
0228419410999992017010115004+23267+090700FM-12+000799999V0203601N001010240019N004000199+02061+01901101471ADDAA124000091AY121021AY221021GA1041+004201061GA2051+024001041GE19AGL   +99999+99999GF106991041999004201999999MA1999999101411MW1051REMSYN08841941 31440 63602 10206 20190 30141 40147 70522 84520 333 56990 59005 70000 84614 85458=
0206419410999992017010118004+23267+090700FM-12+000799999V0203601N001519999999N004000199+01841+01701101601ADDAA124000091AY121021AY221021GA1021+004501061GE19AGL   +99999+99999GF102991021999004501999999MA1999999101551MW1051REMSYN08241941 31440 23603 10184 20170 30155 40160 70522 82500 333 56900 58003 70000 82615=
0164419410999992017010121004+23267+090700FM-12+000799999V0203601N001019999999N004000199+01661+01601101521ADDAA124000091AY121021AY201021GF100995999999999999999999MA1999999101461MD1999999+0001MW1051REMSYN06441941 31940 03602 10166 20160 30146 40152 70520 333 58000 70000=
0164419410999992017010200004+23267+090700FM-12+000799999V0209999C000019999999N004000199+01521+01401101571ADDAA124000091AY101021AY201021GF100995999999999999999999MA1999999101511MD1999999-0011MW1051REMSYN06441941 31940 00000 10152 20140 30151 40157 70500 333 59001 70000=
0183419410999992017010203004+23267+090700FM-12+000799999V0209999C000019999999N003000199+01871+01801101671ADDAA124000091AY141021AY241021GF100995999999999999999999KA1240N+01481MA1999999101611MD1999999-0121MW1421REMSYN07041941 31930 00000 10187 20180 30161 40167 74244 333 20148 59012 70000=
0164419410999992017010206004+23267+090700FM-12+000799999V0203601N001019999999N007000199+02521+01801101561ADDAA124000091AY141021AY241021GF100995999999999999999999MA1999999101501MD1999999-0071MW1051REMSYN06441941 31957 03602 10252 20180 30150 40156 70544 333 59007 70000=
0136419410999992017010209004+23267+090700FM-12+000799999V0203601N001519999999N006000199+02671+01801101321ADDAA124000091GF100995999999999999999999MA1999999101271MD1999999-0021REMSYN05841941 32956 03603 10267 20180 30127 40132 333 59002 70000=
0183419410999992017010212004+23267+090700FM-12+000799999V0203601N001019999999N005000199+02241+01601101261ADDAA124000091AY101021AY201021GF100995999999999999999999KA1240M+02741MA1999999101211MD1999999-0091MW1051REMSYN07041941 31950 03602 10224 20160 30121 40126 70500 333 10274 59009 70000=
0164419410999992017010218004+23267+090700FM-12+000799999V0209999C000019999999N004000199+01821+01601101491ADDAA124000091AY101021AY201021GF100995999999999999999999MA1999999101441MD1999999-0111MW1051REMSYN06441941 31940 00000 10182 20160 30144 40149 70500 333 59011 70000=
0164419410999992017010221004+23267+090700FM-12+000799999V0209999C000019999999N004000199+01741+01401101331ADDAA124000091AY101021AY201021GF100995999999999999999999MA1999999101281MD1999999-0181MW1051REMSYN06441941 31940 00000 10174 20140 30128 40133 70500 333 59018 70000=
0164419410999992017010300004+23267+090700FM-12+000799999V0209999C000019999999N004000199+01581+01501101291ADDAA124000091AY101021AY201021GF100995999999999999999999MA1999999101231MD1999999-0281MW1051REMSYN06441941 31940 00000 10158 20150 30123 40129 70500 333 59028 70000=
0183419410999992017010303004+23267+090700FM-12+000799999V0209999C000019999999N005000199+01941+01701101461ADDAA124000091AY101021AY201021GF100995999999999999999999KA1240N+01531MA1999999101411MD1999999-0211MW1051REMSYN07041941 31950 00000 10194 20170 30141 40146 70500 333 20153 59021 70000=
0136419410999992017010306004+23267+090700FM-12+000799999V0203601N001019999999N006000199+02541+01701101441ADDAA124000091GF100995999999999999999999MA1999999101391MD1999999-0121REMSYN05841941 32956 03602 10254 20170 30139 40144 333 59012 70000=
0136419410999992017010309004+23267+090700FM-12+000799999V0203601N001019999999N006000199+02621+01701101241ADDAA124000091GF100995999999999999999999MA1999999101181MD1999999-0081REMSYN05841941 32956 03602 10262 20170 30118 40124 333 59008 70000=
0183419410999992017010312004+23267+090700FM-12+000799999V0209999C000019999999N005000199+02221+01701101041ADDAA124000091AY101021AY201021GF100995999999999999999999KA1240M+02631MA1999999100981MD1999999-0221MW1051REMSYN07041941 31950 00000 10222 20170 30098 40104 70500 333 10263 59022 70000=
0164419410999992017010315004+23267+090700FM-12+000799999V0209999C000019999999N005000199+01941+01701101211ADDAA124000091AY101021AY201021GF100995999999999999999999MA1999999101151MD1999999-0211MW1051REMSYN06441941 31950 00000 10194 20170 30115 40121 70500 333 59021 70000=
0164419410999992017010318004+23267+090700FM-12+000799999V0209999C000019999999N004000199+01821+01601101311ADDAA124000091AY101021AY201021GF100995999999999999999999MA1999999101261MD1999999+0121MW1051REMSYN06441941 31940 00000 10182 20160 30126 40131 70500 333 58012 70000=
0164419410999992017010321004+23267+090700FM-12+000799999V0209999C000019999999N004000199+01721+01601101211ADDAA124000091AY101021AY201021GF100995999999999999999999MA1999999101161MD1999999-0121MW1051REMSYN06441941 31940 00000 10172 20160 30116 40121 70500 333 59012 70000=
0250419410999992017010400004+23267+090700FM-12+000799999V0209999C00001004201CN002000199+01561+01501101251ADDAA124000091AY141021AY221021GA1021+002401071GA2031+004201061GA3061+021001041GE19AGL   +99999+99999GF107991021999002401999999MA1999999101191MW1101REMSYN09441941 31320 70000 10156 20150 30119 40125 71042 85620 333 56990 59004 70000 82708 83614 86457=
0247419410999992017010403004+23267+090700FM-12+000799999V0203601N001010360019N005000199+01821+01601101511ADDAA124000091AY141021AY221021GA1041+004801061GA2051+036001031GE19AGL   +99999+99999GF106991041999004801999999KA1240N+01421MA1999999101461MW1051REMSYN09441941 31450 63602 10182 20160 30146 40151 70542 84530 333 20142 56990 58005 70000 84616 85362=
0164419410999992017010406004+23267+090700FM-12+000799999V0203601N001019999999N006000199+02421+01401101361ADDAA124000091AY141021AY221021GF100995999999999999999999MA1999999101311MD1999999-0081MW1011REMSYN06441941 31956 03602 10242 20140 30131 40136 70142 333 59008 70000=
0136419410999992017010409004+23267+090700FM-12+000799999V0203601N002119999999N006000199+02551+01701101121ADDAA124000091GF100995999999999999999999MA1999999101061MD1999999-0121REMSYN05841941 32956 03604 10255 20170 30106 40112 333 59012 70000=
0155419410999992017010412004+23267+090700FM-12+000799999V0209999C000019999999N005000199+02201+01701101211ADDAA124000091GF100995999999999999999999KA1240M+02661MA1999999101151MD1999999-0031REMSYN06441941 32950 00000 10220 20170 30115 40121 333 10266 59003 70000=
0136419410999992017010415004+23267+090700FM-12+000799999V0209999C000019999999N004000199+01901+01701101381ADDAA124000091GF100995999999999999999999MA1999999101331MD1999999+0181REMSYN05841941 32940 00000 10190 20170 30133 40138 333 58018 70000=
0164419410999992017010418004+23267+090700FM-12+000799999V0209999C000019999999N004000199+01651+01601101431ADDAA124000091AY101021AY201021GF100995999999999999999999MA1999999101381MD1999999+0121MW1051REMSYN06441941 31940 00000 10165 20160 30138 40143 70500 333 58012 70000=
0164419410999992017010421004+23267+090700FM-12+000799999V0209999C000019999999N004000199+01581+01501101371ADDAA124000091AY101021AY201021GF100995999999999999999999MA1999999101311MD1999999+0151MW1051REMSYN06441941 31940 00000 10158 20150 30131 40137 70500 333 58015 70000=
0164419410999992017010500004+23267+090700FM-12+000799999V0209999C000019999999N004000199+01581+01501101221ADDAA124000091AY101021AY201021GF100995999999999999999999MA1999999101161MD1999999-0031MW1051REMSYN06441941 31940 00000 10158 20150 30116 40122 70500 333 59003 70000=
0269419410999992017010503004+23267+090700FM-12+000799999V0203601N00261004201CN002000199+01771+01701101471ADDAA124000091AY121021AY201021GA1021+002401071GA2041+004201061GA3061+021001041GE19AGL   +99999+99999GF107991021999002401999999KA1240N+01561MA1999999101411MW1101REMSYN10041941 31920 73605 10177 20170 30141 40147 71020 85620 333 20156 56990 59005 70000 82708 84614 86457=
0228419410999992017010506004+23267+090700FM-12+000799999V0203601N002610045019N004000199+01971+01701101361ADDAA124000091AY141021AY221021GA1051+004501061GA2061+024001041GE19AGL   +99999+99999GF106991051999004501999999MA1999999101301MW1051REMSYN08841941 31440 63605 10197 20170 30130 40136 70542 84520 333 56990 59001 70000 85615 86458=
0200419410999992017010509004+23267+090700FM-12+000799999V0203601N002110240019N006000199+02071+01901101071ADDAA124000091GA1031+004501061GA2061+024001041GE19AGL   +99999+99999GF108991031999004501999999MA1999999101011REMSYN08241941 32456 83604 10207 20190 30101 40107 82520 333 56990 59006 70000 83615 86458=
0183419410999992017010512004+23267+090700FM-12+000799999V0203601N001019999999N005000199+02021+01801100991ADDAA124000091AY101021AY201021GF100995999999999999999999KA1240M+02241MA1999999100931MD1999999-0221MW1051REMSYN07041941 31950 03602 10202 20180 30093 40099 70500 333 10224 59022 70000=
0164419410999992017010515004+23267+090700FM-12+000799999V0203601N001019999999N004000199+01881+01801101081ADDAA124000091AY101021AY201021GF100995999999999999999999MA1999999101021MD1999999-0301MW1051REMSYN06441941 31940 03602 10188 20180 30102 40108 70500 333 59030 70000=
0164419410999992017010518004+23267+090700FM-12+000799999V0203601N002119999999N004000199+01761+01701101141ADDAA124000091AY101021AY201021GF100995999999999999999999MA1999999101081MD1999999-0291MW1051REMSYN06441941 31940 03604 10176 20170 30108 40114 70500 333 59029 70000=
0164419410999992017010521004+23267+090700FM-12+000799999V0203601N001019999999N004000199+01671+01601101091ADDAA124000091AY101021AY201021GF100995999999999999999999MA1999999101031MD1999999-0281MW1051REMSYN06441941 31940 03602 10167 20160 30103 40109 70500 333 59028 70000=
0164419410999992017010600004+23267+090700FM-12+000799999V0203601N001019999999N004000199+01641+01501101071ADDAA124000091AY101021AY201021GF100995999999999999999999MA1999999101011MD1999999-0151MW1051REMSYN06441941 31940 03602 10164 20150 30101 40107 70500 333 59015 70000=
0269419410999992017010603004+23267+090700FM-12+000799999V0203601N00101004201CN002000199+01661+01601101481ADDAA124000091AY141021AY221021GA1021+002401071GA2031+004201061GA3041+021001041GE19AGL   +99999+99999GF107991021999002401999999KA1240N+01531MA1999999101421MW1101REMSYN10041941 31420 73602 10166 20160 30142 40148 71042 85620 333 20153 56990 58001 70000 82708 83614 84457=
0200419410999992017010609004+23267+090700FM-12+000799999V0203601N001010042019N006000199+02421+01801101101ADDAA124000091GA1051+004201061GA2061+024001041GE19AGL   +99999+99999GF106991051999004201999999MA1999999101051REMSYN08241941 32456 63602 10242 20180 30105 40110 85520 333 56990 58004 70000 85614 86458=
0155419410999992017010612004+23267+090700FM-12+000799999V0209999C000019999999N005000199+02061+01901101111ADDAA124000091GF100995999999999999999999KA1240M+02431MA1999999101061MD1999999+0121REMSYN06441941 31950 00000 10206 20190 30106 40111 333 10243 58012 70000=
0164419410999992017010615004+23267+090700FM-12+000799999V0209999C000019999999N005000199+01861+01801101171ADDAA124000091AY101021AY201021GF100995999999999999999999MA1999999101111MD1999999+0091MW1051REMSYN06441941 31950 00000 10186 20180 30111 40117 70500 333 58009 70000=
0164419410999992017010618004+23267+090700FM-12+000799999V0209999C000019999999N004000199+01721+01601101221ADDAA124000091AY121021AY201021GF100995999999999999999999MA1999999101161MD1999999+0061MW1051REMSYN06441941 31940 00000 10172 20160 30116 40122 70520 333 58006 70000=
0164419410999992017010621004+23267+090700FM-12+000799999V0209999C000019999999N004000199+01621+01501101181ADDAA124000091AY101021AY201021GF100995999999999999999999MA1999999101121MD1999999+0091MW1051REMSYN06441941 31940 00000 10162 20150 30112 40118 70500 333 58009 70000=
0250419410999992017010700004+23267+090700FM-12+000799999V0209999C00001004201CN002000199+01671+01601101171ADDAA124000091AY141021AY221021GA1021+002401071GA2031+004201061GA3061+021001041GE19AGL   +99999+99999GF106991021999002401999999MA1999999101111MW1101REMSYN09441941 31320 60000 10167 20160 30111 40117 71042 85620 333 56990 58010 70000 82708 83614 86457=
0269419410999992017010703004+23267+090700FM-12+000799999V0203601N00101004201CN002000199+01721+01601101271ADDAA124000091AY141021AY221021GA1021+002401071GA2031+004201061GA3061+021001041GE19AGL   +99999+99999GF106991021999002401999999KA1240N+01511MA1999999101211MW1101REMSYN10041941 31320 63602 10172 20160 30121 40127 71042 85620 333 20151 56990 59021 70000 82708 83614 86457=
0250419410999992017010706004+23267+090700FM-12+000799999V0203601N00101004201CN005000199+01861+01601101231ADDAA124000091AY141021AY221021GA1021+002401071GA2031+004201061GA3061+021001041GE19AGL   +99999+99999GF106991021999002401999999MA1999999101171MW1051REMSYN09441941 31350 63602 10186 20160 30117 40123 70542 85620 333 56890 59025 70000 82708 83614 86457=
0136419410999992017010709004+23267+090700FM-12+000799999V0209999C000019999999N006000199+02321+01701100981ADDAA124000091GF100995999999999999999999MA1999999100921MD1999999-0161REMSYN05841941 32956 00000 10232 20170 30092 40098 333 59016 70000=
0155419410999992017010712004+23267+090700FM-12+000799999V0209999C000019999999N005000199+02021+01801101001ADDAA124000091GF100995999999999999999999KA1240M+02371MA1999999100941MD1999999-0121REMSYN06441941 32950 00000 10202 20180 30094 40100 333 10237 59012 70000=
0164419410999992017010715004+23267+090700FM-12+000799999V0209999C000019999999N004000199+01771+01701101171ADDAA124000091AY101021AY201021GF100995999999999999999999MA1999999101111MD1999999+0001MW1051REMSYN06441941 31940 00000 10177 20170 30111 40117 70500 333 58000 70000=
0164419410999992017010718004+23267+090700FM-12+000799999V0209999C000019999999N004000199+01681+01601101231ADDAA124000091AY101021AY201021GF100995999999999999999999MA1999999101171MD1999999+0011MW1051REMSYN06441941 31940 00000 10168 20160 30117 40123 70500 333 58001 70000=
0164419410999992017010721004+23267+090700FM-12+000799999V0209999C000019999999N004000199+01601+01561101171ADDAA124000091AY101021AY201021GF100995999999999999999999MA1999999101111MD1999999-0011MW1051REMSYN06441941 31940 00000 10160 20156 30111 40117 70500 333 59001 70000=
0164419410999992017010800004+23267+090700FM-12+000799999V0209999C000019999999N004000199+01391+01391101151ADDAA124000091AY101021AY201021GF100995999999999999999999MA1999999101091MD1999999-0021MW1051REMSYN06441941 31940 00000 10139 20139 30109 40115 70500 333 59002 70000=
0155419410999992017010803004+23267+090700FM-12+000799999V0209999C000019999999N006000199+01881+01701101371ADDAA124000091GF100995999999999999999999KA1240N+01381MA1999999101311MD1999999+0101REMSYN06441941 32956 00000 10188 20170 30131 40137 333 20138 58010 70000=
0136419410999992017010806004+23267+090700FM-12+000799999V0203601N001019999999N007000199+02421+01601101261ADDAA124000091GF100995999999999999999999MA1999999101211MD1999999+0041REMSYN05841941 32957 03602 10242 20160 30121 40126 333 58004 70000=
0136419410999992017010809004+23267+090700FM-12+000799999V0203601N001019999999N007000199+02721+01401101051ADDAA124000091GF100995999999999999999999MA1999999101001MD1999999+0071REMSYN05841941 32957 03602 10272 20140 30100 40105 333 58007 70000=
0183419410999992017010812004+23267+090700FM-12+000799999V0209999C000019999999N005000199+02221+01601100911ADDAA124000091AY101021AY201021GF100995999999999999999999KA1240M+02731MA1999999100851MD1999999-0091MW1051REMSYN07041941 31950 00000 10222 20160 30085 40091 70500 333 10273 59009 70000=
0164419410999992017010815004+23267+090700FM-12+000799999V0209999C000019999999N005000199+01821+01601101221ADDAA124000091AY101021AY201021GF100995999999999999999999MA1999999101161MD1999999+0051MW1051REMSYN06441941 31950 00000 10182 20160 30116 40122 70500 333 58005 70000=
0164419410999992017010818004+23267+090700FM-12+000799999V0209999C000019999999N004000199+01721+01601101281ADDAA124000091AY101021AY201021GF100995999999999999999999MA1999999101221MD1999999+0051MW1051REMSYN06441941 31940 00000 10172 20160 30122 40128 70500 333 58005 70000=
0164419410999992017010821004+23267+090700FM-12+000799999V0209999C000019999999N004000199+01621+01601101231ADDAA124000091AY101021AY201021GF100995999999999999999999MA1999999101171MD1999999+0061MW1051REMSYN06441941 31940 00000 10162 20160 30117 40123 70500 333 58006 70000=
0164419410999992017010900004+23267+090700FM-12+000799999V0203601N001019999999N005000199+01661+01601101211ADDAA124000091AY101021AY201021GF100995999999999999999999MA1999999101151MD1999999+0061MW1051REMSYN06441941 31950 03602 10166 20160 30115 40121 70500 333 58006 70000=
0183419410999992017010903004+23267+090700FM-12+000799999V0209999C000019999999N005000199+01871+01501101311ADDAA124000091AY101021AY201021GF100995999999999999999999KA1240N+01421MA1999999101251MD1999999-0061MW1051REMSYN07041941 31950 00000 10187 20150 30125 40131 70500 333 20142 59006 70000=
0136419410999992017010906004+23267+090700FM-12+000799999V0203601N001019999999N007000199+02571+01601101201ADDAA124000091GF100995999999999999999999MA1999999101141MD1999999-0061REMSYN05841941 32957 03602 10257 20160 30114 40120 333 59006 70000=
0136419410999992017010909004+23267+090700FM-12+000799999V0202601N001019999999N006000199+02641+01301101121ADDAA124000091GF100995999999999999999999MA1999999101071MD1999999+0071REMSYN05841941 32956 02602 10264 20130 30107 40112 333 58007 70000=
0183419410999992017010912004+23267+090700FM-12+000799999V0203601N001019999999N005000199+02271+01701100951ADDAA124000091AY101021AY201021GF100995999999999999999999KA1240M+02821MA1999999100891MD1999999+0041MW1051REMSYN07041941 31950 03602 10227 20170 30089 40095 70500 333 10282 58004 70000=
0164419410999992017010915004+23267+090700FM-12+000799999V0209999C000019999999N004000199+01901+01701101061ADDAA124000091AY101021AY201021GF100995999999999999999999MA1999999101011MD1999999-0161MW1051REMSYN06441941 31940 00000 10190 20170 30101 40106 70500 333 59016 70000=
0164419410999992017010918004+23267+090700FM-12+000799999V0209999C000019999999N004000199+01881+01701101181ADDAA124000091AY101021AY201021GF100995999999999999999999MA1999999101121MD1999999-0101MW1051REMSYN06441941 31940 00000 10188 20170 30112 40118 70500 333 59010 70000=
0164419410999992017010921004+23267+090700FM-12+000799999V0209999C000019999999N004000199+01561+01401101091ADDAA124000091AY101021AY201021GF100995999999999999999999MA1999999101031MD1999999-0141MW1051REMSYN06441941 31940 00000 10156 20140 30103 40109 70500 333 59014 70000=
0164419410999992017011000004+23267+090700FM-12+000799999V0209999C000019999999N004000199+01521+01401101061ADDAA124000091AY101021AY201021GF100995999999999999999999MA1999999101001MD1999999-0151MW1051REMSYN06441941 31940 00000 10152 20140 30100 40106 70500 333 59015 70000=
0183419410999992017011003004+23267+090700FM-12+000799999V0209999C000019999999N006000199+01921+01301101261ADDAA124000091AY101021AY201021GF100995999999999999999999KA1240N+01451MA1999999101201MD1999999-0051MW1051REMSYN07041941 31956 00000 10192 20130 30120 40126 70500 333 20145 59005 70000=
0136419410999992017011006004+23267+090700FM-12+000799999V0203601N001019999999N007000199+02541+01501101321ADDAA124000091GF100995999999999999999999MA1999999101271MD1999999+0121REMSYN05841941 32957 03602 10254 20150 30127 40132 333 58012 70000=
0136419410999992017011009004+23267+090700FM-12+000799999V0203601N001019999999N006000199+02571+01601101071ADDAA124000091GF100995999999999999999999MA1999999101011MD1999999-0131REMSYN05841941 32956 03602 10257 20160 30101 40107 333 59013 70000=
0241419410999992017011012004+23267+090700FM-12+000799999V0203601N00101004501CN005000199+02141+01401101121ADDAA124000091GA1021+002401071GA2031+004501061GA3061+024001041GE19AGL   +99999+99999GF106991021999002401999999KA1240M+02671MA1999999101071REMSYN09441941 32450 63602 10214 20140 30107 40112 85620 333 10267 56990 58017 70000 82708 83615 86458=
0222419410999992017011015004+23267+090700FM-12+000799999V0203601N00211004501CN004000199+01841+01801101181ADDAA124000091GA1021+002401071GA2031+004501061GA3061+024001041GE19AGL   +99999+99999GF106991021999002401999999MA1999999101121REMSYN08841941 32440 63604 10184 20180 30112 40118 85620 333 56990 58012 70000 82708 83615 86458=
0228419410999992017011018004+23267+090700FM-12+000799999V0203601N00101024001CN004000199+01771+01501101201ADDAA124000091AY121021AY221021GA1031+004501061GA2051+024001041GE19AGL   +99999+99999GF106991031999004501999999MA1999999101141MW1051REMSYN08841941 31440 63602 10177 20150 30114 40120 70522 83520 333 56990 58000 70000 83615 85458=
0164419410999992017011021004+23267+090700FM-12+000799999V0203601N001019999999N004000199+01571+01401101151ADDAA124000091AY101021AY201021GF100995999999999999999999MA1999999101091MD1999999+0061MW1051REMSYN06441941 31940 03602 10157 20140 30109 40115 70500 333 58006 70000=
0164419410999992017011100004+23267+090700FM-12+000799999V0203601N001019999999N004000199+01501+01401101071ADDAA124000091AY101021AY201021GF100995999999999999999999MA1999999101011MD1999999+0011MW1051REMSYN06441941 31940 03602 10150 20140 30101 40107 70500 333 58001 70000=
0155419410999992017011103004+23267+090700FM-12+000799999V0203601N001519999999N006000199+01741+01601101301ADDAA124000091GF100995999999999999999999KA1240N+01451MA1999999101241MD1999999+0041REMSYN06441941 32956 03603 10174 20160 30124 40130 333 20145 58004 70000=
0136419410999992017011106004+23267+090700FM-12+000799999V0203601N001019999999N006000199+02341+01501101361ADDAA124000091GF100995999999999999999999MA1999999101301MD1999999+0041REMSYN05841941 32956 03602 10234 20150 30130 40136 333 58004 70000=
0136419410999992017011109004+23267+090700FM-12+000799999V0203601N001019999999N006000199+02521+01501101161ADDAA124000091GF100995999999999999999999MA1999999101111MD1999999+0091REMSYN05841941 32956 03602 10252 20150 30111 40116 333 58009 70000=
0183419410999992017011112004+23267+090700FM-12+000799999V0203601N001019999999N005000199+02241+01601101261ADDAA124000091AY101021AY201021GF100995999999999999999999KA1240M+02571MA1999999101201MD1999999+0141MW1051REMSYN07041941 31950 03602 10224 20160 30120 40126 70500 333 10257 58014 70000=
0164419410999992017011115004+23267+090700FM-12+000799999V0203601N001019999999N004000199+01741+01601101221ADDAA124000091AY101021AY201021GF100995999999999999999999MA1999999101161MD1999999+0041MW1051REMSYN06441941 31940 03602 10174 20160 30116 40122 70500 333 58004 70000=
0164419410999992017011118004+23267+090700FM-12+000799999V0203601N001019999999N004000199+01671+01601101231ADDAA124000091AY101021AY201021GF100995999999999999999999MA1999999101171MD1999999+0031MW1051REMSYN06441941 31940 03602 10167 20160 30117 40123 70500 333 58003 70000=
0164419410999992017011121004+23267+090700FM-12+000799999V0203601N001019999999N004000199+01621+01501101201ADDAA124000091AY101021AY201021GF100995999999999999999999MA1999999101141MD1999999+0051MW1051REMSYN06441941 31940 03602 10162 20150 30114 40120 70500 333 58005 70000=
0164419410999992017011200004+23267+090700FM-12+000799999V0203601N001019999999N004000199+01621+01501101231ADDAA124000091AY101021AY201021GF100995999999999999999999MA1999999101171MD1999999+0101MW1051REMSYN06441941 31940 03602 10162 20150 30117 40123 70500 333 58010 70000=
0155419410999992017011203004+23267+090700FM-12+000799999V0203601N001519999999N006000199+01721+01401101481ADDAA124000091GF100995999999999999999999KA1240N+01431MA1999999101421MD1999999+0181REMSYN06441941 32956 03603 10172 20140 30142 40148 333 20143 58018 70000=
0136419410999992017011206004+23267+090700FM-12+000799999V0203601N001519999999N006000199+02371+01201101451ADDAA124000091GF100995999999999999999999MA1999999101391MD1999999+0091REMSYN05841941 31956 03603 10237 20120 30139 40145 333 58009 70000=
0136419410999992017011209004+23267+090700FM-12+000799999V0203601N001019999999N005000199+02571+02101101131ADDAA124000091GF100995999999999999999999MA1999999101081MD1999999-0031REMSYN05841941 32950 03602 10257 20210 30108 40113 333 59003 70000=
0183419410999992017011212004+23267+090700FM-12+000799999V0203001N001019999999N005000199+02141+01701101041ADDAA124000091AY101021AY201021GF100995999999999999999999KA1240M+02651MA1999999100961MD1999999+0041MW1051REMSYN07041941 31950 03002 10214 20170 30096 40104 70500 333 10265 58004 70000=
0164419410999992017011215004+23267+090700FM-12+000799999V0203601N001019999999N004000199+01761+01201101161ADDAA124000091AY101021AY201021GF100995999999999999999999MA1999999101101MD1999999-0061MW1051REMSYN06441941 31940 03602 10176 20120 30110 40116 70500 333 59006 70000=
0164419410999992017011218004+23267+090700FM-12+000799999V0203601N001019999999N004000199+01661+01201101271ADDAA124000091AY101021AY201021GF100995999999999999999999MA1999999101211MD1999999-0041MW1051REMSYN06441941 31940 03602 10166 20120 30121 40127 70500 333 59004 70000=
0164419410999992017011221004+23267+090700FM-12+000799999V0203601N001019999999N004000199+01441+01301101211ADDAA124000091AY101021AY201021GF100995999999999999999999MA1999999101151MD1999999+0011MW1051REMSYN06441941 31940 03602 10144 20130 30115 40121 70500 333 58001 70000=
0164419410999992017011300004+23267+090700FM-12+000799999V0203601N001019999999N004000199+01371+01371101181ADDAA124000091AY101021AY201021GF100995999999999999999999MA1999999101121MD1999999+0011MW1051REMSYN06441941 31940 03602 10137 20137 30112 40118 70500 333 58001 70000=
0155419410999992017011303004+23267+090700FM-12+000799999V0203601N001019999999N006000199+01571+01201101491ADDAA124000091GF100995999999999999999999KA1240N+01331MA1999999101431MD1999999+0011REMSYN06441941 32956 03602 10157 20120 30143 40149 333 20133 58001 70000=
0136419410999992017011306004+23267+090700FM-12+000799999V0203601N001019999999N006000199+02021+01101101591ADDAA124000091GF100995999999999999999999MA1999999101531MD1999999+0141REMSYN05841941 32956 03602 10202 20110 30153 40159 333 58014 70000=
0136419410999992017011309004+23267+090700FM-12+000799999V0203601N002619999999N007000199+02371+00901101401ADDAA124000091GF100995999999999999999999MA1999999101341MD1999999+0261REMSYN05841941 32957 03605 10237 20090 30134 40140 333 58026 70000=
0155419410999992017011312004+23267+090700FM-12+000799999V0203601N001519999999N005000199+01901+00901101341ADDAA124000091GF100995999999999999999999KA1240M+02381MA1999999101291MD1999999+0311REMSYN06441941 32950 03603 10190 20090 30129 40134 333 10238 58031 70000=
0164419410999992017011315004+23267+090700FM-12+000799999V0203601N001019999999N004000199+01571+01201101421ADDAA124000091AY101021AY201021GF100995999999999999999999MA1999999101361MD1999999+0261MW1051REMSYN06441941 31940 03602 10157 20120 30136 40142 70500 333 58026 70000=
0164419410999992017011318004+23267+090700FM-12+000799999V0209999C000019999999N004000199+01401+01201101461ADDAA124000091AY101021AY201021GF100995999999999999999999MA1999999101401MD1999999+0191MW1051REMSYN06441941 31940 00000 10140 20120 30140 40146 70500 333 58019 70000=
0164419410999992017011321004+23267+090700FM-12+000799999V0209999C000019999999N004000199+01341+01201101401ADDAA124000091AY101021AY201021GF100995999999999999999999MA1999999101341MD1999999+0191MW1051REMSYN06441941 31940 00000 10134 20120 30134 40140 70500 333 58019 70000=
0164419410999992017011400004+23267+090700FM-12+000799999V0209999C000019999999N004000199+01241+01101101421ADDAA124000091AY101021AY201021GF100995999999999999999999MA1999999101361MD1999999+0241MW1051REMSYN06441941 31940 00000 10124 20110 30136 40142 70500 333 58024 70000=
0155419410999992017011403004+23267+090700FM-12+000799999V0203601N002119999999N006000199+01661+00801101721ADDAA124000091GF100995999999999999999999KA1240N+01121MA1999999101671MD1999999+0241REMSYN06441941 32956 03604 10166 20080 30167 40172 333 20112 58024 70000=
0136419410999992017011406004+23267+090700FM-12+000799999V0203601N002119999999N006000199+02021+00801101571ADDAA124000091GF100995999999999999999999MA1999999101511MD1999999-0021REMSYN05841941 32956 03604 10202 20080 30151 40157 333 59002 70000=
0136419410999992017011409004+23267+090700FM-12+000799999V0203601N002619999999N006000199+02291+00701101351ADDAA124000091GF100995999999999999999999MA1999999101291MD1999999-0051REMSYN05841941 32956 03605 10229 20070 30129 40135 333 59005 70000=
0155419410999992017011412004+23267+090700FM-12+000799999V0203601N001019999999N005000199+01821+01101101431ADDAA124000091GF100995999999999999999999KA1240M+02341MA1999999101371MD1999999+0081REMSYN06441941 32950 03602 10182 20110 30137 40143 333 10234 58008 70000=
0164419410999992017011415004+23267+090700FM-12+000799999V0203601N002619999999N004000199+01701+01001101591ADDAA124000091AY101021AY201021GF100995999999999999999999MA1999999101531MD1999999+0171MW1051REMSYN06441941 31940 03605 10170 20100 30153 40159 70500 333 58017 70000=
0164419410999992017011418004+23267+090700FM-12+000799999V0203601N001519999999N004000199+01351+01201101671ADDAA124000091AY101021AY201021GF100995999999999999999999MA1999999101611MD1999999+0211MW1051REMSYN06441941 31940 03603 10135 20120 30161 40167 70500 333 58021 70000=
0164419410999992017011500004+23267+090700FM-12+000799999V0203601N002619999999N004000199+01251+01201101571ADDAA124000091AY101021AY201021GF100995999999999999999999MA1999999101511MD1999999+0151MW1051REMSYN06441941 31940 03605 10125 20120 30151 40157 70500 333 58015 70000=
0155419410999992017011503004+23267+090700FM-12+000799999V0203601N002619999999N005000199+01641+01101101731ADDAA124000091GF100995999999999999999999KA1240N+01151MA1999999101671MD1999999+0001REMSYN06441941 32950 03605 10164 20110 30167 40173 333 20115 58000 70000=
0136419410999992017011506004+23267+090700FM-12+000799999V0203601N002119999999N007000199+02151+01201101651ADDAA124000091GF100995999999999999999999MA1999999101591MD1999999+0081REMSYN05841941 32957 03604 10215 20120 30159 40165 333 58008 70000=
0136419410999992017011509004+23267+090700FM-12+000799999V0203601N001019999999N007000199+02481+01601101521ADDAA124000091GF100995999999999999999999MA1999999101461MD1999999+0171REMSYN05841941 32957 03602 10248 20160 30146 40152 333 58017 70000=
0155419410999992017011512004+23267+090700FM-12+000799999V0209999C000019999999N005000199+02101+01301101501ADDAA124000091GF100995999999999999999999KA1240M+02521MA1999999101441MD1999999+0071REMSYN06441941 32950 00000 10210 20130 30144 40150 333 10252 58007 70000=
0136419410999992017011515004+23267+090700FM-12+000799999V0209999C000019999999N005000199+01671+01301101461ADDAA124000091GF100995999999999999999999MA1999999101401MD1999999-0121REMSYN05841941 32950 00000 10167 20130 30140 40146 333 59012 70000=
0164419410999992017011518004+23267+090700FM-12+000799999V0209999C000019999999N004000199+01501+01301101561ADDAA124000091AY101021AY201021GF100995999999999999999999MA1999999101501MD1999999-0121MW1051REMSYN06441941 31940 00000 10150 20130 30150 40156 70500 333 59012 70000=
0164419410999992017011521004+23267+090700FM-12+000799999V0203601N001019999999N004000199+01401+01301101471ADDAA124000091AY101021AY201021GF100995999999999999999999MA1999999101411MD1999999-0121MW1051REMSYN06441941 31940 03602 10140 20130 30141 40147 70500 333 59012 70000=
0164419410999992017011600004+23267+090700FM-12+000799999V0209999C000019999999N004000199+01341+01201101441ADDAA124000091AY101021AY201021GF100995999999999999999999MA1999999101381MD1999999-0131MW1051REMSYN06441941 31940 00000 10134 20120 30138 40144 70500 333 59013 70000=
0155419410999992017011603004+23267+090700FM-12+000799999V0203601N002619999999N006000199+01781+01201101671ADDAA124000091GF100995999999999999999999KA1240N+01201MA1999999101611MD1999999-0061REMSYN06441941 32956 03605 10178 20120 30161 40167 333 20120 59006 70000=
0136419410999992017011606004+23267+090700FM-12+000799999V0203601N001019999999N007000199+02221+01301101581ADDAA124000091GF100995999999999999999999MA1999999101521MD1999999-0071REMSYN05841941 32957 03602 10222 20130 30152 40158 333 59007 70000=
0136419410999992017011609004+23267+090700FM-12+000799999V0203601N001519999999N007000199+02471+01701101221ADDAA124000091GF100995999999999999999999MA1999999101161MD1999999-0301REMSYN05841941 32957 03603 10247 20170 30116 40122 333 59030 70000=
0155419410999992017011612004+23267+090700FM-12+000799999V0209999C000019999999N006000199+02021+01301101221ADDAA124000091GF100995999999999999999999KA1240M+02501MA1999999101161MD1999999-0281REMSYN06441941 32956 00000 10202 20130 30116 40122 333 10250 59028 70000=
0164419410999992017011615004+23267+090700FM-12+000799999V0209999C000019999999N005000199+01921+01401101331ADDAA124000091AY101021AY201021GF100995999999999999999999MA1999999101271MD1999999-0141MW1051REMSYN06441941 31950 00000 10192 20140 30127 40133 70500 333 59014 70000=
0164419410999992017011618004+23267+090700FM-12+000799999V0209999C000019999999N004000199+01821+01501101431ADDAA124000091AY101021AY201021GF100995999999999999999999MA1999999101371MD1999999-0131MW1051REMSYN06441941 31940 00000 10182 20150 30137 40143 70500 333 59013 70000=
0164419410999992017011621004+23267+090700FM-12+000799999V0209999C000019999999N004000199+01621+01501101341ADDAA124000091AY101021AY201021GF100995999999999999999999MA1999999101281MD1999999-0131MW1051REMSYN06441941 31940 00000 10162 20150 30128 40134 70500 333 59013 70000=
0164419410999992017011700004+23267+090700FM-12+000799999V0203601N001019999999N004000199+01341+01201101361ADDAA124000091AY101021AY201021GF100995999999999999999999MA1999999101301MD1999999-0081MW1051REMSYN06441941 31940 03602 10134 20120 30130 40136 70500 333 59008 70000=
0183419410999992017011703004+23267+090700FM-12+000799999V0209999C000019999999N005000199+01821+01101101661ADDAA124000091AY101021AY201021GF100995999999999999999999KA1240N+01211MA1999999101601MD1999999-0011MW1051REMSYN07041941 31950 00000 10182 20110 30160 40166 70500 333 20121 59001 70000=
0136419410999992017011706004+23267+090700FM-12+000799999V0209999C000019999999N007000199+02421+01001101571ADDAA124000091GF100995999999999999999999MA1999999101511MD1999999-0011REMSYN05841941 32957 00000 10242 20100 30151 40157 333 59001 70000=
0136419410999992017011709004+23267+090700FM-12+000799999V0203601N001019999999N007000199+02471+01101101181ADDAA124000091GF100995999999999999999999MA1999999101121MD1999999-0041REMSYN05841941 32957 03602 10247 20110 30112 40118 333 59004 70000=
0155419410999992017011712004+23267+090700FM-12+000799999V0209999C000019999999N006000199+02121+01301101281ADDAA124000091GF100995999999999999999999KA1240M+02651MA1999999101221MD1999999+0061REMSYN06441941 32956 00000 10212 20130 30122 40128 333 10265 58006 70000=
0164419410999992017011721004+23267+090700FM-12+000799999V0209999C000019999999N004000199+01521+01401101391ADDAA124000091AY101021AY201021GF100995999999999999999999MA1999999101331MD1999999+0051MW1051REMSYN06441941 31940 00000 10152 20140 30133 40139 70500 333 58005 70000=
0164419410999992017011800004+23267+090700FM-12+000799999V0203601N001019999999N004000199+01321+01301101421ADDAA124000091AY101021AY201021GF100995999999999999999999MA1999999101361MD1999999+0061MW1051REMSYN06441941 31940 03602 10132 20130 30136 40142 70500 333 58006 70000=
0183419410999992017011803004+23267+090700FM-12+000799999V0203601N001519999999N004000199+01821+01601101861ADDAA124000091AY101021AY201021GF100995999999999999999999KA1240N+01241MA1999999101801MD1999999+0201MW1051REMSYN07041941 31940 03603 10182 20160 30180 40186 70500 333 20124 58020 70000=
0136419410999992017011809004+23267+090700FM-12+000799999V0203601N001019999999N007000199+02521+01401101401ADDAA124000091GF100995999999999999999999MA1999999101351MD1999999+0221REMSYN05841941 32957 03602 10252 20140 30135 40140 333 58022 70000=
0155419410999992017011812004+23267+090700FM-12+000799999V0209999C000019999999N006000199+02121+01401101511ADDAA124000091GF100995999999999999999999KA1240M+02661MA1999999101461MD1999999+0231REMSYN06441941 32956 00000 10212 20140 30146 40151 333 10266 58023 70000=
0164419410999992017011815004+23267+090700FM-12+000799999V0209999C000019999999N005000199+01921+01601101621ADDAA124000091AY101021AY201021GF100995999999999999999999MA1999999101561MD1999999+0221MW1051REMSYN06441941 31950 00000 10192 20160 30156 40162 70500 333 58022 70000=
0164419410999992017011818004+23267+090700FM-12+000799999V0209999C000019999999N004000199+01721+01601101681ADDAA124000091AY101021AY201021GF100995999999999999999999MA1999999101621MD1999999+0171MW1051REMSYN06441941 31940 00000 10172 20160 30162 40168 70500 333 58017 70000=
0164419410999992017011821004+23267+090700FM-12+000799999V0209999C000019999999N004000199+01621+01501101541ADDAA124000091AY101021AY201021GF100995999999999999999999MA1999999101481MD1999999+0151MW1051REMSYN06441941 31940 00000 10162 20150 30148 40154 70500 333 58015 70000=
0164419410999992017011900004+23267+090700FM-12+000799999V0203601N001019999999N004000199+01321+01201101521ADDAA124000091AY101021AY201021GF100995999999999999999999MA1999999101461MD1999999+0101MW1051REMSYN06441941 31940 03602 10132 20120 30146 40152 70500 333 58010 70000=
0155419410999992017011903004+23267+090700FM-12+000799999V0203601N001019999999N006000199+01921+01401101841ADDAA124000091GF100995999999999999999999KA1240N+01251MA1999999101781MD1999999-0021REMSYN06441941 32956 03602 10192 20140 30178 40184 333 20125 59002 70000=
0136419410999992017011906004+23267+090700FM-12+000799999V0209999C000019999999N007000199+02521+01401101501ADDAA124000091GF100995999999999999999999MA1999999101451MD1999999-0201REMSYN05841941 32957 00000 10252 20140 30145 40150 333 59020 70000=
0136419410999992017011909004+23267+090700FM-12+000799999V0203601N001019999999N007000199+02681+01501101521ADDAA124000091GF100995999999999999999999MA1999999101461MD1999999+0011REMSYN05841941 32957 03602 10268 20150 30146 40152 333 58001 70000=
0155419410999992017011912004+23267+090700FM-12+000799999V0203601N001519999999N005000199+02241+01601101521ADDAA124000091GF100995999999999999999999KA1240M+02741MA1999999101461MD1999999+0001REMSYN06441941 32950 03603 10224 20160 30146 40152 333 10274 58000 70000=
0136419410999992017011915004+23267+090700FM-12+000799999V0203601N001019999999N005000199+01921+01501101711ADDAA124000091GF100995999999999999999999MA1999999101661MD1999999+0101REMSYN05841941 32950 03602 10192 20150 30166 40171 333 58010 70000=
0164419410999992017011918004+23267+090700FM-12+000799999V0209999C000019999999N004000199+01671+01401101741ADDAA124000091AY101021AY201021GF100995999999999999999999MA1999999101691MD1999999+0071MW1051REMSYN06441941 31940 00000 10167 20140 30169 40174 70500 333 58007 70000=
0164419410999992017011921004+23267+090700FM-12+000799999V0209999C000019999999N004000199+01501+01401101591ADDAA124000091AY101021AY201021GF100995999999999999999999MA1999999101531MD1999999+0051MW1051REMSYN06441941 31940 00000 10150 20140 30153 40159 70500 333 58005 70000=
0164419410999992017012000004+23267+090700FM-12+000799999V0209999C000019999999N004000199+01461+01401101721ADDAA124000091AY101021AY201021GF100995999999999999999999MA1999999101661MD1999999+0051MW1051REMSYN06441941 31940 00000 10146 20140 30166 40172 70500 333 58005 70000=
0155419410999992017012003004+23267+090700FM-12+000799999V0209999C000019999999N005000199+01871+01401101911ADDAA124000091GF100995999999999999999999KA1240N+01401MA1999999101851MD1999999+0071REMSYN06441941 32950 00000 10187 20140 30185 40191 333 20140 58007 70000=
0136419410999992017012006004+23267+090700FM-12+000799999V0203601N001019999999N007000199+02431+01401101811ADDAA124000091GF100995999999999999999999MA1999999101761MD1999999+0311REMSYN05841941 32957 03602 10243 20140 30176 40181 333 58031 70000=
0155419410999992017012012004+23267+090700FM-12+000799999V0203601N001019999999N005000199+02181+01201101441ADDAA124000091GF100995999999999999999999KA1240M+02641MA1999999101391MD1999999-0081REMSYN06441941 32950 03602 10218 20120 30139 40144 333 10264 59008 70000=
0164419410999992017012015004+23267+090700FM-12+000799999V0209999C000019999999N004000199+01771+01501101491ADDAA124000091AY101021AY201021GF100995999999999999999999MA1999999101431MD1999999-0221MW1051REMSYN06441941 31940 00000 10177 20150 30143 40149 70500 333 59022 70000=
0164419410999992017012018004+23267+090700FM-12+000799999V0209999C000019999999N004000199+01641+01401101571ADDAA124000091AY101021AY201021GF100995999999999999999999MA1999999101511MD1999999-0171MW1051REMSYN06441941 31940 00000 10164 20140 30151 40157 70500 333 59017 70000=
0164419410999992017012021004+23267+090700FM-12+000799999V0209999C000019999999N004000199+01471+01301101561ADDAA124000091AY101021AY201021GF100995999999999999999999MA1999999101501MD1999999-0031MW1051REMSYN06441941 31940 00000 10147 20130 30150 40156 70500 333 59003 70000=
0164419410999992017012100004+23267+090700FM-12+000799999V0209999C000019999999N004000199+01421+01301101521ADDAA124000091AY101021AY201021GF100995999999999999999999MA1999999101461MD1999999-0201MW1051REMSYN06441941 31940 00000 10142 20130 30146 40152 70500 333 59020 70000=
0155419410999992017012103004+23267+090700FM-12+000799999V0203601N001019999999N006000199+01721+01101101891ADDAA124000091GF100995999999999999999999KA1240N+01351MA1999999101831MD1999999-0021REMSYN06441941 32956 03602 10172 20110 30183 40189 333 20135 59002 70000=
0136419410999992017012106004+23267+090700FM-12+000799999V0203601N001519999999N006000199+02221+01201101901ADDAA124000091GF100995999999999999999999MA1999999101841MD1999999+0091REMSYN05841941 32956 03603 10222 20120 30184 40190 333 58009 70000=
0136419410999992017012109004+23267+090700FM-12+000799999V0203601N001019999999N007000199+02671+01301101491ADDAA124000091GF100995999999999999999999MA1999999101431MD1999999+0071REMSYN05841941 32957 03602 10267 20130 30143 40149 333 58007 70000=
0155419410999992017012112004+23267+090700FM-12+000799999V0209999C000019999999N006000199+02121+01501101551ADDAA124000091GF100995999999999999999999KA1240M+02681MA1999999101491MD1999999+0111REMSYN06441941 32956 00000 10212 20150 30149 40155 333 10268 58011 70000=
0164419410999992017012115004+23267+090700FM-12+000799999V0209999C000019999999N005000199+01771+01501101621ADDAA124000091AY101021AY201021GF100995999999999999999999MA1999999101561MD1999999+0131MW1051REMSYN06441941 31950 00000 10177 20150 30156 40162 70500 333 58013 70000=
0164419410999992017012118004+23267+090700FM-12+000799999V0209999C000019999999N004000199+01641+01401101681ADDAA124000091AY101021AY201021GF100995999999999999999999MA1999999101621MD1999999+0111MW1051REMSYN06441941 31940 00000 10164 20140 30162 40168 70500 333 58011 70000=
0164419410999992017012121004+23267+090700FM-12+000799999V0209999C000019999999N004000199+01471+01301101641ADDAA124000091AY101021AY201021GF100995999999999999999999MA1999999101581MD1999999+0081MW1051REMSYN06441941 31940 00000 10147 20130 30158 40164 70500 333 58008 70000=
0164419410999992017012200004+23267+090700FM-12+000799999V0203601N001019999999N004000199+01521+01401101581ADDAA124000091AY101021AY201021GF100995999999999999999999MA1999999101521MD1999999+0061MW1051REMSYN06441941 31940 03602 10152 20140 30152 40158 70500 333 58006 70000=
0183419410999992017012203004+23267+090700FM-12+000799999V0203601N001019999999N005000199+01871+01601101941ADDAA124000091AY101021AY201021GF100995999999999999999999KA1240N+01361MA1999999101881MD1999999+0051MW1051REMSYN07041941 31950 03602 10187 20160 30188 40194 70500 333 20136 58005 70000=
0136419410999992017012206004+23267+090700FM-12+000799999V0203601N001019999999N007000199+02421+01701101931ADDAA124000091GF100995999999999999999999MA1999999101881MD1999999+0031REMSYN05841941 32957 03602 10242 20170 30188 40193 333 58003 70000=
0136419410999992017012209004+23267+090700FM-12+000799999V0203601N001019999999N006000199+02721+01801101481ADDAA124000091GF100995999999999999999999MA1999999101421MD1999999-0011REMSYN05841941 32956 03602 10272 20180 30142 40148 333 59001 70000=
0155419410999992017012212004+23267+090700FM-12+000799999V0209999C000019999999N005000199+02221+01401101431ADDAA124000091GF100995999999999999999999KA1240M+02741MA1999999101371MD1999999-0121REMSYN06441941 32950 00000 10222 20140 30137 40143 333 10274 59012 70000=
0164419410999992017012215004+23267+090700FM-12+000799999V0209999C000019999999N005000199+01821+01401101641ADDAA124000091AY101021AY201021GF100995999999999999999999MA1999999101591MD1999999+0031MW1051REMSYN06441941 31950 00000 10182 20140 30159 40164 70500 333 58003 70000=
0164419410999992017012218004+23267+090700FM-12+000799999V0209999C000019999999N004000199+01571+01401101731ADDAA124000091AY101021AY201021GF100995999999999999999999MA1999999101671MD1999999+0051MW1051REMSYN06441941 31940 00000 10157 20140 30167 40173 70500 333 58005 70000=
0164419410999992017012221004+23267+090700FM-12+000799999V0209999C000019999999N004000199+01501+01401101621ADDAA124000091AY101021AY201021GF100995999999999999999999MA1999999101571MD1999999-0011MW1051REMSYN06441941 31940 00000 10150 20140 30157 40162 70500 333 59001 70000=
0164419410999992017012300004+23267+090700FM-12+000799999V0209999C000019999999N004000199+01461+01401101691ADDAA124000091AY101021AY201021GF100995999999999999999999MA1999999101641MD1999999+0121MW1051REMSYN06441941 31940 00000 10146 20140 30164 40169 70500 333 58012 70000=
0136419410999992017012306004+23267+090700FM-12+000799999V0203601N001519999999N006000199+02471+01701101771ADDAA124000091GF100995999999999999999999MA1999999101721MD1999999-0161REMSYN05841941 32956 03603 10247 20170 30172 40177 333 59016 70000=
0136419410999992017012309004+23267+090700FM-12+000799999V0203601N001019999999N006000199+02621+01501101441ADDAA124000091GF100995999999999999999999MA1999999101391MD1999999-0041REMSYN05841941 32956 03602 10262 20150 30139 40144 333 59004 70000=
0155419410999992017012312004+23267+090700FM-12+000799999V0203601N001019999999N005000199+02201+01601101361ADDAA124000091GF100995999999999999999999KA1240M+02671MA1999999101301MD1999999-0071REMSYN06441941 32950 03602 10220 20160 30130 40136 333 10267 59007 70000=
0164419410999992017012315004+23267+090700FM-12+000799999V0209999C000019999999N004000199+01841+01501101541ADDAA124000091AY101021AY201021GF100995999999999999999999MA1999999101481MD1999999-0101MW1051REMSYN06441941 31940 00000 10184 20150 30148 40154 70500 333 59010 70000=
0164419410999992017012318004+23267+090700FM-12+000799999V0209999C000019999999N004000199+01641+01401101621ADDAA124000091AY101021AY201021GF100995999999999999999999MA1999999101561MD1999999-0111MW1051REMSYN06441941 31940 00000 10164 20140 30156 40162 70500 333 59011 70000=
0164419410999992017012321004+23267+090700FM-12+000799999V0209999C000019999999N004000199+01571+01501101591ADDAA124000091AY101021AY201021GF100995999999999999999999MA1999999101531MD1999999-0031MW1051REMSYN06441941 31940 00000 10157 20150 30153 40159 70500 333 59003 70000=
0164419410999992017012400004+23267+090700FM-12+000799999V0203601N001019999999N004000199+01521+01401101561ADDAA124000091AY121021AY201021GF100995999999999999999999MA1999999101501MD1999999-0131MW1051REMSYN06441941 31940 03602 10152 20140 30150 40156 70520 333 59013 70000=
0155419410999992017012403004+23267+090700FM-12+000799999V0209999C000019999999N005000199+01871+01601101771ADDAA124000091GF100995999999999999999999KA1240N+01461MA1999999101711MD1999999-0111REMSYN06441941 32950 00000 10187 20160 30171 40177 333 20146 59011 70000=
0136419410999992017012406004+23267+090700FM-12+000799999V0203601N001019999999N006000199+02581+01401101771ADDAA124000091GF100995999999999999999999MA1999999101721MD1999999+0001REMSYN05841941 32956 03602 10258 20140 30172 40177 333 58000 70000=
0164419410999992017012415004+23267+090700FM-12+000799999V0209999C000019999999N005000199+01921+01701101601ADDAA124000091AY101021AY201021GF100995999999999999999999MA1999999101541MD1999999+0061MW1051REMSYN06441941 31950 00000 10192 20170 30154 40160 70500 333 58006 70000=
0164419410999992017012418004+23267+090700FM-12+000799999V0209999C000019999999N004000199+01821+01701101671ADDAA124000091AY101021AY201021GF100995999999999999999999MA1999999101621MD1999999+0051MW1051REMSYN06441941 31940 00000 10182 20170 30162 40167 70500 333 58005 70000=
0164419410999992017012421004+23267+090700FM-12+000799999V0209999C000019999999N004000199+01621+01501101621ADDAA124000091AY101021AY201021GF100995999999999999999999MA1999999101561MD1999999+0031MW1051REMSYN06441941 31940 00000 10162 20150 30156 40162 70500 333 58003 70000=
0164419410999992017012500004+23267+090700FM-12+000799999V0203601N001019999999N004000199+01521+01401101641ADDAA124000091AY101021AY201021GF100995999999999999999999MA1999999101581MD1999999+0081MW1051REMSYN06441941 31940 03602 10152 20140 30158 40164 70500 333 58008 70000=
0183419410999992017012503004+23267+090700FM-12+000799999V0203601N001019999999N004000199+01821+01701102041ADDAA124000091AY141021AY201021GF100995999999999999999999KA1240N+01481MA1999999101981MD1999999+0271MW1051REMSYN07041941 31940 03602 10182 20170 30198 40204 70540 333 20148 58027 70000=
0164419410999992017012506004+23267+090700FM-12+000799999V0209999C000019999999N007000199+02671+01501101801ADDAA124000091AY141021AY201021GF100995999999999999999999MA1999999101741MD1999999+0031MW1021REMSYN06441941 31957 00000 10267 20150 30174 40180 70240 333 58003 70000=
0136419410999992017012509004+23267+090700FM-12+000799999V0203601N001019999999N007000199+02861+01301101591ADDAA124000091GF100995999999999999999999MA1999999101531MD1999999+0081REMSYN05841941 32957 03602 10286 20130 30153 40159 333 58008 70000=
0155419410999992017012512004+23267+090700FM-12+000799999V0209999C000019999999N006000199+02421+01701101891ADDAA124000091GF100995999999999999999999KA1240M+03001MA1999999101831MD1999999+0201REMSYN06441941 32956 00000 10242 20170 30183 40189 333 10300 58020 70000=
0164419410999992017012515004+23267+090700FM-12+000799999V0209999C000019999999N005000199+02021+01801101921ADDAA124000091AY101021AY201021GF100995999999999999999999MA1999999101861MD1999999+0321MW1051REMSYN06441941 31950 00000 10202 20180 30186 40192 70500 333 58032 70000=
0164419410999992017012518004+23267+090700FM-12+000799999V0209999C000019999999N004000199+01921+01701101961ADDAA124000091AY101021AY201021GF100995999999999999999999MA1999999101911MD1999999+0291MW1051REMSYN06441941 31940 00000 10192 20170 30191 40196 70500 333 58029 70000=
0164419410999992017012600004+23267+090700FM-12+000799999V0209999C000019999999N004000199+01601+01501101701ADDAA124000091AY101021AY201021GF100995999999999999999999MA1999999101641MD1999999+0061MW1051REMSYN06441941 31940 00000 10160 20150 30164 40170 70500 333 58006 70000=
0155419410999992017012603004+23267+090700FM-12+000799999V0209999C000019999999N006000199+02121+01701101771ADDAA124000091GF100995999999999999999999KA1240N+01561MA1999999101711MD1999999-0271REMSYN06441941 32956 00000 10212 20170 30171 40177 333 20156 59027 70000=
0136419410999992017012606004+23267+090700FM-12+000799999V0203601N001019999999N007000199+02721+01401101721ADDAA124000091GF100995999999999999999999MA1999999101661MD1999999-0081REMSYN05841941 32957 03602 10272 20140 30166 40172 333 59008 70000=
0136419410999992017012609004+23267+090700FM-12+000799999V0203601N001019999999N007000199+02881+01401101511ADDAA124000091GF100995999999999999999999MA1999999101451MD1999999-0081REMSYN05841941 32957 03602 10288 20140 30145 40151 333 59008 70000=
0155419410999992017012612004+23267+090700FM-12+000799999V0209999C000019999999N006000199+02421+01501101331ADDAA124000091GF100995999999999999999999KA1240M+03021MA1999999101271MD1999999-0561REMSYN06441941 32956 00000 10242 20150 30127 40133 333 10302 59056 70000=
0164419410999992017012615004+23267+090700FM-12+000799999V0209999C000019999999N005000199+01771+01701101521ADDAA124000091AY101021AY201021GF100995999999999999999999MA1999999101461MD1999999-0401MW1051REMSYN06441941 31950 00000 10177 20170 30146 40152 70500 333 59040 70000=
0164419410999992017012618004+23267+090700FM-12+000799999V0209999C000019999999N004000199+01721+01601101751ADDAA124000091AY101021AY201021GF100995999999999999999999MA1999999101691MD1999999-0211MW1051REMSYN06441941 31940 00000 10172 20160 30169 40175 70500 333 59021 70000=
0164419410999992017012621004+23267+090700FM-12+000799999V0209999C000019999999N004000199+01671+01601101451ADDAA124000091AY101021AY201021GF100995999999999999999999MA1999999101391MD1999999-0321MW1051REMSYN06441941 31940 00000 10167 20160 30139 40145 70500 333 59032 70000=
0164419410999992017012700004+23267+090700FM-12+000799999V0209999C000019999999N004000199+01621+01501101261ADDAA124000091AY101021AY201021GF100995999999999999999999MA1999999101211MD1999999-0441MW1051REMSYN06441941 31940 00000 10162 20150 30121 40126 70500 333 59044 70000=
0219419410999992017012703004+23267+090700FM-12+000799999V0209999C000010240019N006000199+01901+01601101471ADDAA124000091GA1031+004501061GA2061+024001041GE19AGL   +99999+99999GF106991031999004501999999KA1240N+01561MA1999999101421REMSYN08841941 32456 60000 10190 20160 30142 40147 85420 333 20156 56990 59030 70000 83615 86458=
0200419410999992017012706004+23267+090700FM-12+000799999V0209999C00001024001CN007000199+02521+01801101521ADDAA124000091GA1041+004501061GA2041+024001041GE19AGL   +99999+99999GF105991041999004501999999MA1999999101461REMSYN08241941 32457 50000 10252 20180 30146 40152 85420 333 56990 59020 70000 84615 84458=
0222419410999992017012709004+23267+090700FM-12+000799999V0209999C00001009001CN006000199+02621+01801101321ADDAA124000091GA1041+004501061GA2011+009001091GA3081+021001041GE19AGL   +99999+99999GF108991041999004501999999MA1999999101261REMSYN08841941 32456 80000 10262 20180 30126 40132 8632/ 333 56999 59019 70000 84615 81930 88457=
0224419410999992017012712004+23267+090700FM-12+000799999V0209999C00001009001CN005000199+02351+01801101391ADDGA1041+004501061GA2011+009001091GA3081+021001041GE19AGL   +99999+99999GF108991041999004501999999KA1240M+02751MA1999999101331REMSYN08841941 32450 80000 10235 20180 30133 40139 8532/ 333 10275 56999 58006 84615 81930 88457=
0164419410999992017012715004+23267+090700FM-12+000799999V0209999C999999999999N005000199+02051+01701101471ADDAA124000091AY101021AY201021GF100995999999999999999999MA1999999101411MD1999999-0051MW1051REMSYN06441941 31950 00000 10205 20170 30141 40147 70500 333 59005 70000=
0164419410999992017012718004+23267+090700FM-12+000799999V0209999C000019999999N004000199+01931+01701101471ADDAA124000091AY101021AY201021GF100995999999999999999999MA1999999101411MD1999999-0281MW1051REMSYN06441941 21940 00000 10193 20170 30141 40147 70500 333 59028 70000=
0164419410999992017012721004+23267+090700FM-12+000799999V0209999C000019999999N001000199+01821+01701101411ADDAA124000091AY101021AY241021GF100995999999999999999999MA1999999101351MD1999999-0041MW1441REMSYN06441941 31910 00000 10182 20170 30135 40141 74404 333 59004 70000=
0200419410999992017012800004+23267+090700FM-12+000799999V0209999C00001001201CN000500199+01701+01601101411ADDAA124000091AY141021AY241021GA1091+999999999GE19AGL   +99999+99999GF109991091999999999999999MA1999999101361MW1471REMSYN07641941 31/05 90000 10170 20160 30136 40141 74744 89/// 333 56999 59015 70000=
0183419410999992017012803004+23267+090700FM-12+000799999V0209999C000019999999N005000199+02041+01801101641ADDAA124000091AY141021AY241021GF100995999999999999999999KA1240N+01581MA1999999101591MD1999999+0181MW1051REMSYN07041941 31950 00000 10204 20180 30159 40164 70544 333 20158 58018 70000=
0219419410999992017012812004+23267+090700FM-12+000799999V0209999C00001021001CN006000199+02371+01701101211ADDAA124000091GA1031+004501061GA2051+021001041GE19AGL   +99999+99999GF107991031999004501999999KA1240M+02861MA1999999101151REMSYN08841941 32456 70000 10237 20170 30115 40121 83520 333 10286 56990 59018 70000 83615 85457=
0178419410999992017012815004+23267+090700FM-12+000799999V0203601N002119999999N005000199+02121+01701101351ADDAA124000091GA1031+004501061GE19AGL   +99999+99999GF103991031999004501999999MA1999999101291REMSYN07641941 32450 33604 10212 20170 30129 40135 83500 333 56900 59012 70000 83615=
0136419410999992017012818004+23267+090700FM-12+000799999V0203601N001519999999N005000199+01851+01601101441ADDAA124000091GF100995999999999999999999MA1999999101381MD1999999-0031REMSYN05841941 32950 03603 10185 20160 30138 40144 333 59003 70000=
0164419410999992017012821004+23267+090700FM-12+000799999V0203601N001019999999N004000199+01781+01501101411ADDAA124000091AY101021AY201021GF100995999999999999999999MA1999999101351MD1999999+0001MW1051REMSYN06441941 31940 03602 10178 20150 30135 40141 70500 333 58000 70000=
0164419410999992017012900004+23267+090700FM-12+000799999V0203601N001019999999N004000199+01631+01501101491ADDAA124000091AY101021AY201021GF100995999999999999999999MA1999999101431MD1999999+0071MW1051REMSYN06441941 31940 03602 10163 20150 30143 40149 70500 333 58007 70000=
0155419410999992017012903004+23267+090700FM-12+000799999V0203601N002119999999N006000199+01951+01501101691ADDAA124000091GF100995999999999999999999KA1240N+01581MA1999999101641MD1999999+0051REMSYN06441941 32956 03604 10195 20150 30164 40169 333 20158 58005 70000=
0136419410999992017012909004+23267+090700FM-12+000799999V0203601N002119999999N007000199+02651+01401101351ADDAA124000091GF100995999999999999999999MA1999999101291MD1999999+0151REMSYN05841941 32957 03604 10265 20140 30129 40135 333 58015 70000=
0155419410999992017012912004+23267+090700FM-12+000799999V0209999C000019999999N006000199+02171+01701101351ADDAA124000091GF100995999999999999999999KA1240M+02671MA1999999101291MD1999999+0141REMSYN06441941 32956 00000 10217 20170 30129 40135 333 10267 58014 70000=
0136419410999992017012915004+23267+090700FM-12+000799999V0203601N001019999999N005000199+01901+01501101511ADDAA124000091GF100995999999999999999999MA1999999101451MD1999999+0161REMSYN05841941 32950 03602 10190 20150 30145 40151 333 58016 70000=
0136419410999992017012918004+23267+090700FM-12+000799999V0209999C000019999999N005000199+01731+01501101511ADDAA124000091GF100995999999999999999999MA1999999101451MD1999999+0071REMSYN05841941 32950 00000 10173 20150 30145 40151 333 58007 70000=
0164419410999992017012921004+23267+090700FM-12+000799999V0203601N001019999999N004000199+01621+01501101441ADDAA124000091AY101021AY201021GF100995999999999999999999MA1999999101381MD1999999+0031MW1051REMSYN06441941 31940 03602 10162 20150 30138 40144 70500 333 58003 70000=
0164419410999992017013000004+23267+090700FM-12+000799999V0209999C000019999999N004000199+01521+01401101411ADDAA124000091AY101021AY201021GF100995999999999999999999MA1999999101351MD1999999-0081MW1051REMSYN06441941 31940 00000 10152 20140 30135 40141 70500 333 59008 70000=
0155419410999992017013003004+23267+090700FM-12+000799999V0203601N001019999999N006000199+02001+01601101651ADDAA124000091GF100995999999999999999999KA1240N+01471MA1999999101591MD1999999+0181REMSYN06441941 32956 03602 10200 20160 30159 40165 333 20147 58018 70000=
0136419410999992017013006004+23267+090700FM-12+000799999V0209999C000019999999N007000199+02421+01401101531ADDAA124000091GF100995999999999999999999MA1999999101471MD1999999-0091REMSYN05841941 32957 00000 10242 20140 30147 40153 333 59009 70000=
0136419410999992017013009004+23267+090700FM-12+000799999V0203601N001519999999N007000199+02621+01501101221ADDAA124000091GF100995999999999999999999MA1999999101161MD1999999-0131REMSYN05841941 32957 03603 10262 20150 30116 40122 333 59013 70000=
0155419410999992017013012004+23267+090700FM-12+000799999V0209999C000019999999N006000199+02271+01501101041ADDAA124000091GF100995999999999999999999KA1240M+02631MA1999999100981MD1999999-0311REMSYN06441941 32956 00000 10227 20150 30098 40104 333 10263 59031 70000=
0164419410999992017013015004+23267+090700FM-12+000799999V0209999C000019999999N005000199+02121+01601101151ADDAA124000091AY101021AY201021GF100995999999999999999999MA1999999101091MD1999999-0361MW1051REMSYN06441941 31950 00000 10212 20160 30109 40115 70500 333 59036 70000=
0164419410999992017013018004+23267+090700FM-12+000799999V0209999C000019999999N004000199+01921+01701101211ADDAA124000091AY101021AY201021GF100995999999999999999999MA1999999101151MD1999999-0301MW1051REMSYN06441941 31940 00000 10192 20170 30115 40121 70500 333 59030 70000=
0164419410999992017013021004+23267+090700FM-12+000799999V0209999C000019999999N004000199+01721+01601101161ADDAA124000091AY101021AY201021GF100995999999999999999999MA1999999101111MD1999999-0281MW1051REMSYN06441941 31940 00000 10172 20160 30111 40116 70500 333 59028 70000=
0164419410999992017013100004+23267+090700FM-12+000799999V0203601N001019999999N004000199+01521+01401101321ADDAA124000091AY101021AY201021GF100995999999999999999999MA1999999101261MD1999999-0091MW1051REMSYN06441941 31940 03602 10152 20140 30126 40132 70500 333 59009 70000=
0183419410999992017013103004+23267+090700FM-12+000799999V0203601N001019999999N005000199+01921+01601101511ADDAA124000091AY101021AY201021GF100995999999999999999999KA1240N+01451MA1999999101461MD1999999-0141MW1051REMSYN07041941 31950 03602 10192 20160 30146 40151 70500 333 20145 59014 70000=
0136419410999992017013106004+23267+090700FM-12+000799999V0203601N001519999999N007000199+02421+01401101601ADDAA124000091GF100995999999999999999999MA1999999101541MD1999999+0071REMSYN05841941 32957 03603 10242 20140 30154 40160 333 58007 70000=
0136419410999992017013109004+23267+090700FM-12+000799999V0203601N001019999999N006000199+02621+01301101311ADDAA124000091GF100995999999999999999999MA1999999101251MD1999999+0091REMSYN05841941 32956 03602 10262 20130 30125 40131 333 58009 70000=
0164419410999992017013118004+23267+090700FM-12+000799999V0209999C000019999999N004000199+01701+01601101491ADDAA124000091AY101021AY201021GF100995999999999999999999MA1999999101441MD1999999+0281MW1051REMSYN06441941 31940 00000 10170 20160 30144 40149 70500 333 58028 70000=
0164419410999992017013121004+23267+090700FM-12+000799999V0209999C000019999999N004000199+01621+01401101441ADDAA124000091AY101021AY201021GF100995999999999999999999MA1999999101381MD1999999+0281MW1051REMSYN06441941 31940 00000 10162 20140 30138 40144 70500 333 58028 70000=
0164419410999992017020100004+23267+090700FM-12+000799999V0209999C000019999999N004000199+01571+01501101361ADDAA124000091AY101021AY201021GF100995999999999999999999MA1999999101301MD1999999+0041MW1051REMSYN06441941 31940 00000 10157 20150 30130 40136 70500 333 58004 70000=
0155419410999992017020103004+23267+090700FM-12+000799999V0203601N001019999999N006000199+01921+01501101601ADDAA124000091GF100995999999999999999999KA1240N+01511MA1999999101541MD1999999+0091REMSYN06441941 32956 03602 10192 20150 30154 40160 333 20151 58009 70000=
0136419410999992017020106004+23267+090700FM-12+000799999V0209999C000019999999N007000199+02581+01401101571ADDAA124000091GF100995999999999999999999MA1999999101511MD1999999-0031REMSYN05841941 32957 00000 10258 20140 30151 40157 333 59003 70000=
0136419410999992017020109004+23267+090700FM-12+000799999V0209999C000019999999N006000199+02671+01501101411ADDAA124000091GF100995999999999999999999MA1999999101351MD1999999+0101REMSYN05841941 32956 00000 10267 20150 30135 40141 333 58010 70000=
0155419410999992017020112004+23267+090700FM-12+000799999V0209999C000019999999N005000199+02341+01501101451ADDAA124000091GF100995999999999999999999KA1240M+02821MA1999999101391MD1999999-0201REMSYN06441941 32950 00000 10234 20150 30139 40145 333 10282 59020 70000=
0164419410999992017020115004+23267+090700FM-12+000799999V0209999C000019999999N004000199+01921+01601101631ADDAA124000091AY101021AY201021GF100995999999999999999999MA1999999101571MD1999999+0181MW1051REMSYN06441941 31940 00000 10192 20160 30157 40163 70500 333 58018 70000=
0164419410999992017020121004+23267+090700FM-12+000799999V0203601N001019999999N004000199+01621+01401101641ADDAA124000091AY101021AY201021GF100995999999999999999999MA1999999101581MD1999999+0201MW1051REMSYN06441941 31940 03602 10162 20140 30158 40164 70500 333 58020 70000=
0164419410999992017020200004+23267+090700FM-12+000799999V0203601N001019999999N004000199+02571+01501101621ADDAA124000091AY101021AY201021GF100995999999999999999999MA1999999101561MD1999999+0261MW1051REMSYN06441941 31940 03602 10257 20150 30156 40162 70500 333 58026 70000=
0155419410999992017020203004+23267+090700FM-12+000799999V0203601N001019999999N006000199+01871+01701101851ADDAA124000091GF100995999999999999999999KA1240N+01511MA1999999101791MD1999999+0251REMSYN06441941 32956 03602 10187 20170 30179 40185 333 20151 58025 70000=
0136419410999992017020206004+23267+090700FM-12+000799999V0209999C000019999999N006000199+02371+01601101881ADDAA124000091GF100995999999999999999999MA1999999101831MD1999999+0311REMSYN05841941 32956 00000 10237 20160 30183 40188 333 58031 70000=
0136419410999992017020209004+23267+090700FM-12+000799999V0203601N001519999999N007000199+02721+01401101591ADDAA124000091GF100995999999999999999999MA1999999101531MD1999999+0181REMSYN05841941 32957 03603 10272 20140 30153 40159 333 58018 70000=
0155419410999992017020212004+23267+090700FM-12+000799999V0203601N001019999999N006000199+02321+01201101391ADDAA124000091GF100995999999999999999999KA1240M+02751MA1999999101331MD1999999-0061REMSYN06441941 32956 03602 10232 20120 30133 40139 333 10275 59006 70000=
0136419410999992017020215004+23267+090700FM-12+000799999V0209999C000019999999N005000199+02121+01401101461ADDAA124000091GF100995999999999999999999MA1999999101401MD1999999-0171REMSYN05841941 32950 00000 10212 20140 30140 40146 333 59017 70000=
0164419410999992017020218004+23267+090700FM-12+000799999V0209999C000019999999N004000199+01921+01601101511ADDAA124000091AY101021AY201021GF100995999999999999999999MA1999999101461MD1999999-0171MW1051REMSYN06441941 31940 00000 10192 20160 30146 40151 70500 333 59017 70000=
0164419410999992017020221004+23267+090700FM-12+000799999V0209999C000019999999N004000199+01721+01601101421ADDAA124000091AY101021AY201021GF100995999999999999999999MA1999999101361MD1999999-0221MW1051REMSYN06441941 31940 00000 10172 20160 30136 40142 70500 333 59022 70000=
0164419410999992017020300004+23267+090700FM-12+000799999V0203601N001019999999N004000199+01521+01401101521ADDAA124000091AY101021AY201021GF100995999999999999999999MA1999999101471MD1999999-0101MW1051REMSYN06441941 31940 03602 10152 20140 30147 40152 70500 333 59010 70000=
0183419410999992017020303004+23267+090700FM-12+000799999V0209999C000019999999N005000199+01841+01601101731ADDAA124000091AY101021AY201021GF100995999999999999999999KA1240N+01411MA1999999101671MD1999999-0121MW1051REMSYN07041941 31950 00000 10184 20160 30167 40173 70500 333 20141 59012 70000=
0164419410999992017020306004+23267+090700FM-12+000799999V0203601N002119999999N005000199+02221+01601101611ADDAA124000091AY101021AY201021GF100995999999999999999999MA1999999101561MD1999999-0271MW1051REMSYN06441941 31950 03604 10222 20160 30156 40161 70500 333 59027 70000=
0136419410999992017020309004+23267+090700FM-12+000799999V0203601N002119999999N007000199+02521+01601101341ADDAA124000091GF100995999999999999999999MA1999999101281MD1999999-0281REMSYN05841941 32957 03604 10252 20160 30128 40134 333 59028 70000=
0155419410999992017020312004+23267+090700FM-12+000799999V0209999C000019999999N005000199+02171+01601101351ADDAA124000091GF100995999999999999999999KA1240M+02581MA1999999101301MD1999999-0081REMSYN06441941 32950 00000 10217 20160 30130 40135 333 10258 59008 70000=
0136419410999992017020315004+23267+090700FM-12+000799999V0209999C000019999999N005000199+01921+01601101551ADDAA124000091GF100995999999999999999999MA1999999101501MD1999999+0101REMSYN05841941 32950 00000 10192 20160 30150 40155 333 58010 70000=
0136419410999992017020318004+23267+090700FM-12+000799999V0209999C000019999999N005000199+01751+01601101561ADDAA124000091GF100995999999999999999999MA1999999101501MD1999999+0041REMSYN05841941 32950 00000 10175 20160 30150 40156 333 58004 70000=
0216419410999992017020321004+23267+090700FM-12+000799999V0209999C000019999999N001000199+01561+01501101561ADDAA124000091AY141021AY201021GA1031+999999061GA2999+999999051GE19AGL   +99999+99999GF105991031999999999999999MA1999999101501MW1441REMSYN07641941 31910 50000 10156 20150 30150 40156 74440 83520 333 56990 58014 70000=
0200419410999992017020400004+23267+090700FM-12+000799999V0209999C00001001201CN000500199+01551+01501101451ADDAA124000091AY141021AY241021GA1091+999999999GE19AGL   +99999+99999GF109991091999999999999999MA1999999101391MW1471REMSYN07641941 31/05 90000 10155 20150 30139 40145 74744 89/// 333 56999 59008 70000=
0183419410999992017020403004+23267+090700FM-12+000799999V0203601N001019999999N004000199+01821+01701101561ADDAA124000091AY141021AY241021GF100995999999999999999999KA1240N+01411MA1999999101501MD1999999-0171MW1051REMSYN07041941 31940 03602 10182 20170 30150 40156 70544 333 20141 59017 70000=
0136419410999992017020409004+23267+090700FM-12+000799999V0203601N001019999999N007000199+02851+01701101181ADDAA124000091GF100995999999999999999999MA1999999101121MD1999999-0161REMSYN05841941 32957 03602 10285 20170 30112 40118 333 59016 70000=
0238419410999992017020412004+23267+090700FM-12+000799999V0209999C00001999999CN006000199+02351+01801101211ADDAA124000091GA1021+004801061GA2031+036001031GE19AGL   +99999+99999GF104991021999004801999999KA1240M+02901MA1999999101151REMSYN08841941 32456 40000 10235 20180 30115 40121 83430 333 10290 56990 59015 70000 82616 83362=EQDQ01 036003SCOCIG
0136419410999992017020415004+23267+090700FM-12+000799999V0209999C000019999999N005000199+01901+01701101461ADDAA124000091GF100995999999999999999999MA1999999101401MD1999999-0101REMSYN05841941 32950 00000 10190 20170 30140 40146 333 59010 70000=
0164419410999992017020418004+23267+090700FM-12+000799999V0209999C000019999999N004000199+01771+01601101411ADDAA124000091AY101021AY201021GF100995999999999999999999MA1999999101361MD1999999-0141MW1051REMSYN06441941 31940 00000 10177 20160 30136 40141 70500 333 59014 70000=
0164419410999992017020421004+23267+090700FM-12+000799999V0209999C000019999999N004000199+01661+01601101411ADDAA124000091AY101021AY201021GF100995999999999999999999MA1999999101361MD1999999-0141MW1051REMSYN06441941 31940 00000 10166 20160 30136 40141 70500 333 59014 70000=
0164419410999992017020500004+23267+090700FM-12+000799999V0209999C000019999999N004000199+01641+01501101311ADDAA124000091AY101021AY201021GF100995999999999999999999MA1999999101261MD1999999-0131MW1051REMSYN06441941 31940 00000 10164 20150 30126 40131 70500 333 59013 70000=
0155419410999992017020503004+23267+090700FM-12+000799999V0209999C000019999999N006000199+02421+01601101501ADDAA124000091GF100995999999999999999999KA1240N+01581MA1999999101441MD1999999-0061REMSYN06441941 32956 00000 10242 20160 30144 40150 333 20158 59006 70000=
0136419410999992017020506004+23267+090700FM-12+000799999V0203601N001019999999N007000199+03021+01201101431ADDAA124000091GF100995999999999999999999MA1999999101371MD1999999-0011REMSYN05841941 32957 03602 10302 20120 30137 40143 333 59001 70000=
0136419410999992017020509004+23267+090700FM-12+000799999V0203601N001019999999N007000199+03171+01401101071ADDAA124000091GF100995999999999999999999MA1999999101021MD1999999-0111REMSYN05841941 32957 03602 10317 20140 30102 40107 333 59011 70000=
0155419410999992017020512004+23267+090700FM-12+000799999V0209999C000019999999N006000199+02541+01601101011ADDAA124000091GF100995999999999999999999KA1240M+03241MA1999999100951MD1999999-0201REMSYN06441941 32956 00000 10254 20160 30095 40101 333 10324 59020 70000=
0136419410999992017020515004+23267+090700FM-12+000799999V0209999C000019999999N005000199+02061+01701101101ADDAA124000091GF100995999999999999999999MA1999999101041MD1999999-0361REMSYN05841941 32950 00000 10206 20170 30104 40110 333 59036 70000=
0164419410999992017020518004+23267+090700FM-12+000799999V0209999C000019999999N004000199+01941+01601101241ADDAA124000091AY101021AY201021GF100995999999999999999999MA1999999101181MD1999999-0171MW1051REMSYN06441941 31940 00000 10194 20160 30118 40124 70500 333 59017 70000=
0164419410999992017020521004+23267+090700FM-12+000799999V0209999C000019999999N004000199+01771+01601101121ADDAA124000091AY101021AY201021GF100995999999999999999999MA1999999101071MD1999999-0291MW1051REMSYN06441941 31940 00000 10177 20160 30107 40112 70500 333 59029 70000=
0164419410999992017020600004+23267+090700FM-12+000799999V0209999C000019999999N004000199+01701+01501101021ADDAA124000091AY101021AY201021GF100995999999999999999999MA1999999100951MD1999999-0291MW1051REMSYN06441941 31940 00000 10170 20150 30095 40102 70500 333 59029 70000=
0155419410999992017020603004+23267+090700FM-12+000799999V0209999C000019999999N006000199+02221+01701101341ADDAA124000091GF100995999999999999999999KA1240N+01611MA1999999101291MD1999999-0161REMSYN06441941 31956 00000 10222 20170 30129 40134 333 20161 59016 70000=
0136419410999992017020606004+23267+090700FM-12+000799999V0203601N001019999999N007000199+02841+01601101441ADDAA124000091GF100995999999999999999999MA1999999101381MD1999999+0011REMSYN05841941 32957 03602 10284 20160 30138 40144 333 58001 70000=
0136419410999992017020609004+23267+090700FM-12+000799999V0203601N001019999999N007000199+03171+01501101151ADDAA124000091GF100995999999999999999999MA1999999101101MD1999999+0081REMSYN05841941 32957 03602 10317 20150 30110 40115 333 58008 70000=
0155419410999992017020612004+23267+090700FM-12+000799999V0209999C000019999999N005000199+02521+01401100931ADDAA124000091GF100995999999999999999999KA1240M+03201MA1999999100871MD1999999-0081REMSYN06441941 32950 00000 10252 20140 30087 40093 333 10320 59008 70000=
0164419410999992017020615004+23267+090700FM-12+000799999V0209999C000019999999N005000199+02061+01601101041ADDAA124000091AY101021AY201021GF100995999999999999999999MA1999999100981MD1999999-0061MW1051REMSYN06441941 31950 00000 10206 20160 30098 40104 70500 333 59006 70000=
0164419410999992017020621004+23267+090700FM-12+000799999V0209999C000019999999N004000199+01771+01601101011ADDAA124000091AY101021AY201021GF100995999999999999999999MA1999999100951MD1999999-0111MW1051REMSYN06441941 31940 00000 10177 20160 30095 40101 70500 333 59011 70000=
0164419410999992017020700004+23267+090700FM-12+000799999V0203601N001019999999N005000199+01701+01601100991ADDAA124000091AY101021AY201021GF100995999999999999999999MA1999999100931MD1999999-0031MW1051REMSYN06441941 31950 03602 10170 20160 30093 40099 70500 333 59003 70000=
0205419410999992017020706004+23267+090700FM-12+000799999V0203601N001019999999N006000199+02721+01601101221ADDGA1072+000001001GA2041+004801061GA3051+024001041GE19AGL   +99999+99999GF106992072999000001999999MA1999999101161REMSYN08241941 32456 63602 10272 20160 30116 40122 85410 333 56990 59022 87000 84616 85458=
0136419410999992017020709004+23267+090700FM-12+000799999V0209999C000019999999N007000199+02921+01601101011ADDAA124000091GF100995999999999999999999MA1999999100951MD1999999-0141REMSYN05841941 32957 00000 10292 20160 30095 40101 333 59014 70000=
0238419410999992017020712004+23267+090700FM-12+000799999V0203601N00101999999CN006000199+02541+01901101011ADDAA124000091GA1031+004801061GA2041+024001041GE19AGL   +99999+99999GF104991031999004801999999KA1240M+03051MA1999999100951REMSYN08841941 32456 43602 10254 20190 30095 40101 83520 333 10305 56990 58008 70000 83616 84458=EQDQ01 024003SCOCIG
0164419410999992017020715004+23267+090700FM-12+000799999V0209999C000019999999N005000199+02171+01001101151ADDAA124000091AY101021AY201021GF100995999999999999999999MA1999999101091MD1999999+0111MW1051REMSYN06441941 31950 00000 10217 20100 30109 40115 70500 333 58011 70000=
0164419410999992017020718004+23267+090700FM-12+000799999V0209999C000019999999N004000199+02061+01901101231ADDAA124000091AY101021AY201021GF100995999999999999999999MA1999999101171MD1999999+0131MW1051REMSYN06441941 31940 00000 10206 20190 30117 40123 70500 333 58013 70000=
0164419410999992017020721004+23267+090700FM-12+000799999V0209999C000019999999N004000199+01771+01701101181ADDAA124000091AY101021AY201021GF100995999999999999999999MA1999999101121MD1999999+0171MW1051REMSYN06441941 31940 00000 10177 20170 30112 40118 70500 333 58017 70000=
0183419410999992017020800004+23267+090700FM-12+000799999V0209999C000019999999N005000199+01361+99999101161ADDAA124000091AY101021AY201021GF100995999999999999999999MA1999999101101MD1999999+0171MW1051REMSYN06441941 31950 00000 10136 20160 30110 40116 70500 333 58017 70000=EQDQ0116    2ATOD  
0155419410999992017020803004+23267+090700FM-12+000799999V0203601N001019999999N006000199+02081+01501101481ADDAA124000091GF100995999999999999999999KA1240N+01631MA1999999101431MD1999999+0191REMSYN06441941 32956 03602 10208 20150 30143 40148 333 20163 58019 70000=
0158419410999992017020806004+23267+090700FM-12+000799999V0200601N001019999999N007000199+02541+01401101521ADDAA124000091GE19AGL   +99999+99999GF103991999999999999999999MA1999999101461MD1999999+0301REMSYN05841941 32957 30602 10254 20140 30146 40152 333 58030 70000=
0136419410999992017020809004+23267+090700FM-12+000799999V0203601N001519999999N007000199+02941+01201101311ADDAA124000091GF100995999999999999999999MA1999999101251MD1999999+0031REMSYN05841941 32957 03603 10294 20120 30125 40131 333 58003 70000=
0155419410999992017020812004+23267+090700FM-12+000799999V0209999C000019999999N999999999+02421+01001101031ADDAA124000091GF100995999999999999999999KA1240M+03001MA1999999100971MD1999999+0021REMSYN06441941 32953 00000 10242 20100 30097 40103 333 10300 58002 70000=
0136419410999992017020815004+23267+090700FM-12+000799999V0209999C000019999999N005000199+02121+01301101241ADDAA124000091GF100995999999999999999999MA1999999101181MD1999999+0091REMSYN05841941 32950 00000 10212 20130 30118 40124 333 58009 70000=
0164419410999992017020818004+23267+090700FM-12+000799999V0209999C000019999999N004000199+01921+01501101301ADDAA124000091AY101021AY201021GF100995999999999999999999MA1999999101241MD1999999+0071MW1051REMSYN06441941 31940 00000 10192 20150 30124 40130 70500 333 58007 70000=
0164419410999992017020900004+23267+090700FM-12+000799999V0203601N001019999999N005000199+01671+01601101201ADDAA124000091AY101021AY201021GF100995999999999999999999MA1999999101141MD1999999+0041MW1051REMSYN06441941 31950 03602 10167 20160 30114 40120 70500 333 58004 70000=
0155419410999992017020903004+23267+090700FM-12+000799999V0203601N001519999999N006000199+02071+01401101401ADDAA124000091GF100995999999999999999999KA1240N+01451MA1999999101341MD1999999-0081REMSYN06441941 32956 03603 10207 20140 30134 40140 333 20145 59008 70000=
0136419410999992017020906004+23267+090700FM-12+000799999V0203601N001519999999N007000199+02671+01401101371ADDAA124000091GF100995999999999999999999MA1999999101311MD1999999-0151REMSYN05841941 31957 03603 10267 20140 30131 40137 333 59015 70000=
0155419410999992017020912004+23267+090700FM-12+000799999V0209999C000019999999N006000199+02351+01701101101ADDAA124000091GF100995999999999999999999KA1240M+02921MA1999999101041MD1999999+0071REMSYN06441941 32956 00000 10235 20170 30104 40110 333 10292 58007 70000=
0136419410999992017020915004+23267+090700FM-12+000799999V0209999C000019999999N005000199+01871+01601101151ADDAA124000091GF100995999999999999999999MA1999999101091MD1999999-0091REMSYN05841941 32950 00000 10187 20160 30109 40115 333 59009 70000=
0164419410999992017020918004+23267+090700FM-12+000799999V0209999C000019999999N004000199+01701+01501101281ADDAA124000091AY101021AY201021GF100995999999999999999999MA1999999101221MD1999999-0021MW1051REMSYN06441941 31940 00000 10170 20150 30122 40128 70500 333 59002 70000=
0164419410999992017020921004+23267+090700FM-12+000799999V0209999C000019999999N004000199+01631+01501101201ADDAA124000091AY101021AY201021GF100995999999999999999999MA1999999101141MD1999999-0011MW1051REMSYN06441941 31940 00000 10163 20150 30114 40120 70500 333 59001 70000=
0155419410999992017021003004+23267+090700FM-12+000799999V0209999C000019999999N006000199+01921+01401101451ADDAA124000091GF100995999999999999999999KA1240N+01451MA1999999101391MD1999999+0051REMSYN06441941 32956 00000 10192 20140 30139 40145 333 20145 58005 70000=
0136419410999992017021006004+23267+090700FM-12+000799999V0209999C000019999999N007000199+02771+01201101391ADDAA124000091GF100995999999999999999999MA1999999101331MD1999999+0021REMSYN05841941 32957 00000 10277 20120 30133 40139 333 58002 70000=
0136419410999992017021009004+23267+090700FM-12+000799999V0209999C000019999999N007000199+02901+01301101221ADDAA124000091GF100995999999999999999999MA1999999101161MD1999999+0061REMSYN05841941 32957 00000 10290 20130 30116 40122 333 58006 70000=
0174419410999992017021012004+23267+090700FM-12+000799999V0209999C000019999999N006000199+02461+99999101151ADDAA124000091GF100995999999999999999999KA1240M+03001MA1999999101091MD1999999+0051REMSYN06441941 32956 00000 10246 21070 30109 40115 333 10300 58005 70000=EQDQ01-7    3ATOD  
0136419410999992017021015004+23267+090700FM-12+000799999V0209999C000019999999N005000199+02021+01701101291ADDAA124000091GF100995999999999999999999MA1999999101231MD1999999+0141REMSYN05841941 32950 00000 10202 20170 30123 40129 333 58014 70000=
0164419410999992017021018004+23267+090700FM-12+000799999V0209999C000019999999N004000199+01861+01701101371ADDAA124000091AY101021AY201021GF100995999999999999999999MA1999999101311MD1999999+0091MW1051REMSYN06441941 31940 00000 10186 20170 30131 40137 70500 333 58009 70000=
0164419410999992017021021004+23267+090700FM-12+000799999V0209999C000019999999N004000199+01691+01601101301ADDAA124000091AY101021AY201021GF100995999999999999999999MA1999999101241MD1999999+0101MW1051REMSYN06441941 31940 00000 10169 20160 30124 40130 70500 333 58010 70000=
0164419410999992017021100004+23267+090700FM-12+000799999V0209999C000019999999N004000199+01641+01501101451ADDAA124000091AY101021AY201021GF100995999999999999999999MA1999999101391MD1999999+0201MW1051REMSYN06441941 31940 00000 10164 20150 30139 40145 70500 333 58020 70000=
0183419410999992017021103004+23267+090700FM-12+000799999V0209999C000019999999N005000199+02121+01501101671ADDAA124000091AY101021AY201021GF100995999999999999999999KA1240N+01581MA1999999101611MD1999999+0221MW1051REMSYN07041941 31950 00000 10212 20150 30161 40167 70500 333 20158 58022 70000=
0136419410999992017021106004+23267+090700FM-12+000799999V0203601N001519999999N006000199+02721+01801101651ADDAA124000091GF100995999999999999999999MA1999999101591MD1999999+0261REMSYN05841941 32956 03603 10272 20180 30159 40165 333 58026 70000=
0136419410999992017021109004+23267+090700FM-12+000799999V0203601N001019999999N006000199+02961+01501101391ADDAA124000091GF100995999999999999999999MA1999999101341MD1999999+0081REMSYN05841941 32956 03602 10296 20150 30134 40139 333 58008 70000=
0155419410999992017021112004+23267+090700FM-12+000799999V0209999C000019999999N006000199+02541+01601101401ADDAA124000091GF100995999999999999999999KA1240M+03021MA1999999101341MD1999999+0251REMSYN06441941 32956 00000 10254 20160 30134 40140 333 10302 58025 70000=
0164419410999992017021115004+23267+090700FM-12+000799999V0209999C000019999999N005000199+02161+01801101551ADDAA124000091AY101021AY201021GF100995999999999999999999MA1999999101491MD1999999+0261MW1051REMSYN06441941 31950 00000 10216 20180 30149 40155 70500 333 58026 70000=
0164419410999992017021118004+23267+090700FM-12+000799999V0209999C000019999999N004000199+01941+01801101601ADDAA124000091AY101021AY201021GF100995999999999999999999MA1999999101541MD1999999+0231MW1051REMSYN06441941 31940 00000 10194 20180 30154 40160 70500 333 58023 70000=
0228419410999992017021121004+23267+090700FM-12+000799999V0209999C000019999999N004000199+01921+01601101491ADDAA124000091AY101021AY201021GF100995999999999999999999MA1999999101431MD1999999+0191MW1051REMSYN12841941 31940 00000 10192 20160 30143 40149 70500 333 58019 70000 41958 31940 00000 10196 20180 30151 40153 70500 333 58030 70000=
0164419410999992017021200004+23267+090700FM-12+000799999V0209999C000019999999N004000199+01871+01701101581ADDAA124000091AY101021AY201021GF100995999999999999999999MA1999999101521MD1999999+0131MW1051REMSYN06441941 31940 00000 10187 20170 30152 40158 70500 333 58013 70000=
0136419410999992017021206004+23267+090700FM-12+000799999V0203601N001019999999N007000199+02761+01701101811ADDAA124000091GF100995999999999999999999MA1999999101751MD1999999+0161REMSYN05841941 32957 03602 10276 20170 30175 40181 333 58016 70000=
0136419410999992017021209004+23267+090700FM-12+000799999V0203601N001519999999N007000199+03041+01401101351ADDAA124000091GF100995999999999999999999MA1999999101301MD1999999-0041REMSYN05841941 32957 03603 10304 20140 30130 40135 333 59004 70000=
0155419410999992017021212004+23267+090700FM-12+000799999V0203601N001019999999N006000199+02581+01601101511ADDAA124000091GF100995999999999999999999KA1240M+03081MA1999999101461MD1999999+0111REMSYN06441941 32956 03602 10258 20160 30146 40151 333 10308 58011 70000=
0164419410999992017021215004+23267+090700FM-12+000799999V0203601N001019999999N005000199+02241+01601101701ADDAA124000091AY101021AY201021GF100995999999999999999999MA1999999101641MD1999999+0151MW1051REMSYN06441941 31950 03602 10224 20160 30164 40170 70500 333 58015 70000=
0164419410999992017021218004+23267+090700FM-12+000799999V0209999C000019999999N004000199+02061+01801101821ADDAA124000091AY101021AY201021GF100995999999999999999999MA1999999101761MD1999999+0221MW1051REMSYN06441941 31940 00000 10206 20180 30176 40182 70500 333 58022 70000=
0164419410999992017021221004+23267+090700FM-12+000799999V0209999C000019999999N004000199+01871+01701101661ADDAA124000091AY101021AY201021GF100995999999999999999999MA1999999101601MD1999999+0171MW1051REMSYN06441941 31940 00000 10187 20170 30160 40166 70500 333 58017 70000=
0164419410999992017021300004+23267+090700FM-12+000799999V0203601N001019999999N004000199+01821+01501101611ADDAA124000091AY101021AY201021GF100995999999999999999999MA1999999101551MD1999999+0031MW1051REMSYN06441941 31940 03602 10182 20150 30155 40161 70500 333 58003 70000=
0155419410999992017021303004+23267+090700FM-12+000799999V0203601N001019999999N006000199+02141+01501101911ADDAA124000091GF100995999999999999999999KA1240N+01621MA1999999101851MD1999999+0171REMSYN06441941 32956 03602 10214 20150 30185 40191 333 20162 58017 70000=
0200419410999992017021306004+23267+090700FM-12+000799999V0203601N001010240019N006000199+02741+01401101901ADDAA124000091GA1041+004501061GA2061+024001041GE19AGL   +99999+99999GF106991041999004501999999MA1999999101851REMSYN08241941 32456 63602 10274 20140 30185 40190 85420 333 56990 58009 70000 84615 86458=
0201419410999992017021400004+23267+090700FM-12+000799999V0203601N001010060019N005000199+01861+01801101591ADDAY121021AY201021GA1051+006001041GE19AGL   +99999+99999GF106991051999006001999999MA1999999101531MW1051REMSYN08841941 31450 63602 10186 20180 30153 40159 70520 333 85420 56990 59002 70000 84616 86458=
0247419410999992017021403004+23267+090700FM-12+000799999V0203601N001010240019N005000199+02221+01801101991ADDAA124000091AY121021AY221021GA1041+004801061GA2061+024001041GE19AGL   +99999+99999GF106991041999004801999999KA1240N+01651MA1999999101931MW1051REMSYN09441941 31450 63602 10222 20180 30193 40199 70522 85420 333 20165 56990 58008 70000 84616 86458=
0164419410999992017021406004+23267+090700FM-12+000799999V0203601N001019999999N007000199+02921+01001101931ADDAA124000091AY101021AY201021GF100995999999999999999999MA1999999101941MD1999999+0081MW1051REMSYN06441941 32957 03602 10292 20100 30194 40193 70500 333 58008 70000=
0136419410999992017021409004+23267+090700FM-12+000799999V0203601N001019999999N007000199+03041+01501101611ADDAA124000091GF100995999999999999999999MA1999999101551MD1999999+0161REMSYN05841941 32957 03602 10304 20150 30155 40161 333 58016 70000=
0219419410999992017021412004+23267+090700FM-12+000799999V0209999C000010240019N006000199+02521+01901101701ADDAA124000091GA1041+004801061GA2061+024001041GE19AGL   +99999+99999GF106991041999004801999999KA1240M+03061MA1999999101641REMSYN08841941 32456 60000 10252 20190 30164 40170 85420 333 10306 56990 58009 70000 84616 86458=
0228419410999992017021418004+23267+090700FM-12+000799999V0209999C000010240019N004000199+02061+01901101971ADDAA124000091AY121021AY221021GA1041+004801061GA2061+024001041GE19AGL   +99999+99999GF106991041999004801999999MA1999999101911MW1051REMSYN08841941 31440 60000 10206 20190 30191 40197 70522 85420 333 56990 58005 70000 84616 86458=
0228419410999992017021500004+23267+090700FM-12+000799999V0203601N001010240019N005000199+01861+01801101741ADDAA124000091AY121021AY221021GA1041+004801061GA2061+024001041GE19AGL   +99999+99999GF106991041999004801999999MA1999999101681MW1051REMSYN08841941 31450 63602 10186 20180 30168 40174 70522 85420 333 56990 58015 70000 84616 86458=
0219419410999992017021503004+23267+090700FM-12+000799999V0209999C000010240019N007000199+02371+01701101991ADDAA124000091GA1041+004801061GA2061+024001041GE19AGL   +99999+99999GF106991041999004801999999KA1240N+01801MA1999999101931REMSYN08841941 32457 60000 10237 20170 30193 40199 85420 333 20180 56990 58000 70000 84616 86458=
0136419410999992017021506004+23267+090700FM-12+000799999V0203601N001519999999N007000199+02921+01501101951ADDAA124000091GF100995999999999999999999MA1999999101891MD1999999-0051REMSYN05841941 32957 03603 10292 20150 30189 40195 333 59005 70000=
0155419410999992017021512004+23267+090700FM-12+000799999V0209999C000019999999N006000199+02621+01801101591ADDAA124000091GF100995999999999999999999KA1240M+03101MA1999999101541MD1999999-0101REMSYN06441941 32956 00000 10262 20180 30154 40159 333 10310 59010 70000=
0136419410999992017021515004+23267+090700FM-12+000799999V0209999C000019999999N005000199+02221+01701101771ADDAA124000091GF100995999999999999999999MA1999999101711MD1999999-0241REMSYN05841941 32950 00000 10222 20170 30171 40177 333 59024 70000=
0164419410999992017021518004+23267+090700FM-12+000799999V0209999C000019999999N004000199+01961+01701101811ADDAA124000091AY101021AY201021GF100995999999999999999999MA1999999101751MD1999999-0161MW1051REMSYN06441941 31940 00000 10196 20170 30175 40181 70500 333 59016 70000=
0164419410999992017021521004+23267+090700FM-12+000799999V0209999C000019999999N004000199+01881+01701101761ADDAA124000091AY101021AY201021GF100995999999999999999999MA1999999101701MD1999999-0021MW1051REMSYN06441941 31940 00000 10188 20170 30170 40176 70500 333 59002 70000=
0155419410999992017021603004+23267+090700FM-12+000799999V0203601N001019999999N005000199+02221+01601101691ADDAA124000091GF100995999999999999999999KA1240N+01761MA1999999101631MD1999999-0301REMSYN06441941 32950 03602 10222 20160 30163 40169 333 20176 59030 70000=
0136419410999992017021606004+23267+090700FM-12+000799999V0203601N002119999999N006000199+02561+01701101651ADDAA124000091GF100995999999999999999999MA1999999101601MD1999999-0291REMSYN05841941 32956 03604 10256 20170 30160 40165 333 59029 70000=
0238419410999992017021612004+23267+090700FM-12+000799999V0209999C00001999999CN005000199+02521+01401101341ADDAA124000091GA1021+004501061GA2041+024001041GE19AGL   +99999+99999GF104991021999004501999999KA1240M+03021MA1999999101291REMSYN08841941 32450 40000 10252 20140 30129 40134 82520 333 10302 56990 59025 70000 82615 84458=EQDQ01 024003SCOCIG
0136419410999992017021615004+23267+090700FM-12+000799999V0209999C000019999999N005000199+02261+01701101551ADDAA124000091GF100995999999999999999999MA1999999101491MD1999999-0221REMSYN05841941 32950 00000 10226 20170 30149 40155 333 59022 70000=
0136419410999992017021618004+23267+090700FM-12+000799999V0209999C000019999999N005000199+02001+01601101581ADDAA124000091GF100995999999999999999999MA1999999101531MD1999999-0221REMSYN05841941 32950 00000 10200 20160 30153 40158 333 59022 70000=
0164419410999992017021700004+23267+090700FM-12+000799999V0209999C000019999999N004000199+01701+01501101571ADDAA124000091AY101021AY201021GF100995999999999999999999MA1999999101511MD1999999-0101MW1051REMSYN06441941 31940 00000 10170 20150 30151 40157 70500 333 59010 70000=
0155419410999992017021703004+23267+090700FM-12+000799999V0200501N001519999999N006000199+02301+01701101731ADDAA124000091GF100995999999999999999999KA1240N+01661MA1999999101671MD1999999+0041REMSYN06441941 32956 00503 10230 20170 30167 40173 333 20166 58004 70000=
0136419410999992017021706004+23267+090700FM-12+000799999V0203601N001519999999N007000199+02851+01601101591ADDAA124000091GF100995999999999999999999MA1999999101531MD1999999-0071REMSYN05841941 32957 03603 10285 20160 30153 40159 333 59007 70000=
0136419410999992017021709004+23267+090700FM-12+000799999V0203601N001519999999N007000199+03071+01501101081ADDAA124000091GF100995999999999999999999MA1999999101031MD1999999-0301REMSYN05841941 32957 03603 10307 20150 30103 40108 333 59030 70000=
0136419410999992017021715004+23267+090700FM-12+000799999V0209999C000019999999N005000199+02261+01701101451ADDAA124000091GF100995999999999999999999MA1999999101391MD1999999-0101REMSYN05841941 32950 00000 10226 20170 30139 40145 333 59010 70000=
0164419410999992017021718004+23267+090700FM-12+000799999V0209999C000019999999N004000199+02001+01601101521ADDAA124000091AY101021AY201021GF100995999999999999999999MA1999999101461MD1999999-0071MW1051REMSYN06441941 31940 00000 10200 20160 30146 40152 70500 333 59007 70000=
0164419410999992017021721004+23267+090700FM-12+000799999V0209999C000019999999N004000199+01901+01701101371ADDAA124000091AY101021AY201021GF100995999999999999999999MA1999999101311MD1999999-0071MW1051REMSYN06441941 31940 00000 10190 20170 30131 40137 70500 333 59007 70000=
0164419410999992017021800004+23267+090700FM-12+000799999V0203601N001019999999N005000199+01701+01601101471ADDAA124000091AY101021AY201021GF100995999999999999999999MA1999999101411MD1999999-0101MW1051REMSYN06441941 31950 03602 10170 20160 30141 40147 70500 333 59010 70000=
0247419410999992017021803004+23267+090700FM-12+000799999V0209999C000010240019N005000199+02271+01801101671ADDAA124000091AY121021AY201021GA1041+004801061GA2061+024001041GE19AGL   +99999+99999GF106991041999004801999999KA1240N+01671MA1999999101611MW1051REMSYN09441941 31450 60000 10227 20180 30161 40167 70520 85420 333 20167 56990 59006 70000 84616 86458=
0200419410999992017021806004+23267+090700FM-12+000799999V0203601N001010240019N006000199+02861+01801101551ADDAA124000091GA1041+004801061GA2061+024001041GE19AGL   +99999+99999GF106991041999004801999999MA1999999101491REMSYN08241941 32956 63602 10286 20180 30149 40155 85420 333 56990 59004 70000 84616 86458=
0200419410999992017021809004+23267+090700FM-12+000799999V0203601N001010240019N006000199+03081+01101101271ADDAA124000091GA1041+004801061GA2061+024001041GE19AGL   +99999+99999GF106991041999004801999999MA1999999101221REMSYN08241941 32456 63602 10308 20110 30122 40127 85420 333 56990 58019 70000 84616 86458=
0136419410999992017021815004+23267+090700FM-12+000799999V0209999C000019999999N005000199+02441+01501101271ADDAA124000091GF100995999999999999999999MA1999999101221MD1999999-0181REMSYN05841941 32950 00000 10244 20150 30122 40127 333 59018 70000=
0164419410999992017021818004+23267+090700FM-12+000799999V0209999C000019999999N004000199+02141+01701101411ADDAA124000091AY101021AY201021GF100995999999999999999999MA1999999101351MD1999999-0111MW1051REMSYN06441941 31940 00000 10214 20170 30135 40141 70500 333 59011 70000=
0164419410999992017021821004+23267+090700FM-12+000799999V0209999C000019999999N004000199+02041+01701101331ADDAA124000091AY101021AY201021GF100995999999999999999999MA1999999101271MD1999999-0041MW1051REMSYN06441941 31940 00000 10204 20170 30127 40133 70500 333 59004 70000=
0164419410999992017021900004+23267+090700FM-12+000799999V0209999C000019999999N004000199+01921+01801101311ADDAA124000091AY101021AY201021GF100995999999999999999999MA1999999101251MD1999999-0161MW1051REMSYN06441941 31940 00000 10192 20180 30125 40131 70500 333 59016 70000=
0207419410999992017021903004+23267+090700FM-12+000799999V0209999C000019999999N006000199+02201+01801101521ADDAA124000091GA1051+004501061GA2999+999999051GE19AGL   +99999+99999GF106991051999004501999999KA1240N+01811MA1999999101461REMSYN07641941 32456 60000 10220 20180 30146 40152 85420 333 20181 56990 59015 70000=
0200419410999992017021906004+23267+090700FM-12+000799999V0203601N001010240019N006000199+02781+01801101461ADDAA124000091GA1041+004801061GA2061+024001041GE19AGL   +99999+99999GF106991041999004801999999MA1999999101411REMSYN08241941 32456 63602 10278 20180 30141 40146 85420 333 56990 59009 70000 84616 86458=
0200419410999992017021909004+23267+090700FM-12+000799999V0203601N001010240019N006000199+02971+01701100991ADDAA124000091GA1041+004801061GA2061+024001041GE19AGL   +99999+99999GF106991041999004801999999MA1999999100941REMSYN08241941 32456 63602 10297 20170 30094 40099 85420 333 56990 59028 70000 84616 86458=
0219419410999992017021912004+23267+090700FM-12+000799999V0209999C000010240019N006000199+02661+01801100961ADDAA124000091GA1041+004801061GA2061+024001041GE19AGL   +99999+99999GF106991041999004801999999KA1240M+03021MA1999999100911REMSYN08841941 32956 60000 10266 20180 30091 40096 85420 333 10302 56990 59020 70000 84616 86458=
0136419410999992017021915004+23267+090700FM-12+000799999V0209999C000019999999N005000199+02271+02001100981ADDAA124000091GF100995999999999999999999MA1999999100931MD1999999-0291REMSYN05841941 32950 00000 10227 20200 30093 40098 333 59029 70000=
0164419410999992017021918004+23267+090700FM-12+000799999V0209999C000019999999N004000199+02141+01901101091ADDAA124000091AY101021AY201021GF100995999999999999999999MA1999999101031MD1999999-0231MW1051REMSYN06441941 32940 00000 10214 20190 30103 40109 70500 333 59023 70000=
0164419410999992017021921004+23267+090700FM-12+000799999V0209999C000019999999N004000199+02071+01701101021ADDAA124000091AY101021AY201021GF100995999999999999999999MA1999999100961MD1999999-0311MW1051REMSYN06441941 31940 00000 10207 20170 30096 40102 70500 333 59031 70000=
0164419410999992017022000004+23267+090700FM-12+000799999V0209999C000019999999N004000199+02041+01701100931ADDAA124000091AY101021AY201021GF100995999999999999999999MA1999999100871MD1999999-0381MW1051REMSYN06441941 31940 00000 10204 20170 30087 40093 70500 333 59038 70000=
0219419410999992017022003004+23267+090700FM-12+000799999V0209999C000010240019N006000199+02281+02201101081ADDAA124000091GA1041+005401061GA2061+024001041GE19AGL   +99999+99999GF106991041999005401999999KA1240N+01811MA1999999101021REMSYN08841941 32456 60000 10228 20220 30102 40108 85420 333 20181 56990 59044 70000 84618 86458=
0200419410999992017022006004+23267+090700FM-12+000799999V0201801N001010240019N006000199+02701+02201100991ADDAA124000091GA1041+004801061GA2061+024001041GE19AGL   +99999+99999GF106991041999004801999999MA1999999100941REMSYN08241941 32456 61802 10270 20220 30094 40099 85420 333 56990 59047 70000 84616 86458=
0200419410999992017022009004+23267+090700FM-12+000799999V0201801N001010240019N006000199+02801+02201101011ADDAA124000091GA1041+004801061GA2061+024001041GE19AGL   +99999+99999GF106991041999004801999999MA1999999100961REMSYN08241941 32456 61802 10280 20220 30096 40101 85420 333 56990 58002 70000 84616 86458=
0219419410999992017022012004+23267+090700FM-12+000799999V0209999C00001024001CN005000199+02701+02101100561ADDAA124000091GA1031+004501061GA2041+024001041GE19AGL   +99999+99999GF106991031999004501999999KA1240M+02971MA1999999100501REMSYN08841941 32450 60000 10270 20210 30050 40056 84420 333 10297 56990 59041 70000 83615 84458=
0200419410999992017022015004+23267+090700FM-12+000799999V0209999C000010240019N005000199+02501+02201100781ADDAA124000091GA1041+004501061GA2051+024001041GE19AGL   +99999+99999GF106991041999004501999999MA1999999100721REMSYN08241941 32450 60000 10250 20220 30072 40078 84520 333 56990 59021 70000 84615 85458=
