0204483040999992017010100004+19867+099767FM-12+040199999V0209999C000019999999N010000199+01811+01711101831ADDGA1061+008001061GA2999+999999031GE19AGL   +99999+99999GF108991061999008001999999KA1120N+01721MA1999999097111MD1210121-0131REMSYN07048304 32560 80000 10181 20171 39711 40183 52012 8657/ 333 20172 59013=
0185483040999992017010103004+19867+099767FM-12+040199999V0203201N001019999999N012000199+01951+01721102071ADDGA1061+008001061GA2999+999999031GE19AGL   +99999+99999GF108991061999008001999999MA1999999097371MD1210261+0011REMSYN06448304 32562 83202 10195 20172 39737 40207 52026 8657/ 333 58001=
0264483040999992017010106004+19867+099767FM-12+040199999V0203301N001519999999N008000199+02051+01691101871ADDAA101000021AA206000021AA324000021AY121021AY221021GA1061+008001061GA2999+999999031GE19AGL   +99999+99999GF108991061999008001999999MA1999999097191MD1710181+0181MW1501REMSYN08848304 01558 83303 10205 20169 39719 40187 57018 69901 75022 8657/ 333 58018 69905 79999=
0230483040999992017010109004+19867+099767FM-12+040199999V0209999C000019999999N007000199+02001+01721101701ADDAA102000431AY161021AY221021GA1061+008001061GA2999+999999031GE19AGL   +99999+99999GF108991061999008001999999MA1999999097011MD1710171+0201MW1601REMSYN07648304 21557 80000 10200 20172 39701 40170 57017 76062 8657/ 333 58020 69946=
0283483040999992017010112004+19867+099767FM-12+040199999V0200501N001019999999N005000199+01801+01751101831ADDAA103000631AA212001031AA324001031AY161021AY261021GA1061+008001061GA2999+999999031GE19AGL   +99999+99999GF108991061999008001999999KA1240M+02201MA1999999097111MD1210091+0191MW1611REMSYN09448304 01550 80502 10180 20175 39711 40183 52009 60012 76166 8657/ 333 10220 58019 69967 70010=
0230483040999992017010115004+19867+099767FM-12+040199999V0209999C000019999999N002000199+01751+01721101941ADDAA103001031AY161021AY261021GA1061+008001061GA2999+999999031GE19AGL   +99999+99999GF108991061999008001999999MA1999999097211MD1210101+0081MW1611REMSYN07648304 21520 80000 10175 20172 39721 40194 52010 76166 8657/ 333 58008 60017=
0264483040999992017010118004+19867+099767FM-12+040199999V0209999C000019999999N004000199+01721+01691101931ADDAA103000021AA218002031AA324002231AY161021AY261021GA1061+008001061GA2999+999999031GE19AGL   +99999+99999GF108991061999008001999999MA1999999097191MD1710021+0091MW1511REMSYN08848304 01540 80000 10172 20169 39719 40193 57002 60023 75166 8657/ 333 58009 69907 70022=
0230483040999992017010121004+19867+099767FM-12+040199999V0209999C000019999999N004000199+01701+01671101651ADDAA103000631AY161021AY221021GA1061+008001061GA2999+999999031GE19AGL   +99999+99999GF108991061999008001999999MA1999999096921MD1710271-0071MW1101REMSYN07648304 21540 80000 10170 20167 39692 40165 57027 71062 8657/ 333 59007 69967=
0266483040999992017010200004+19867+099767FM-12+040199999V0209999C000019999999N007000199+01681+01631101841ADDAA124003032AA224002832AY161021AY221021GA1061+008001061GA2999+999999031GE19AGL   +99999+99999GF108991061999008001999999KA1120N+01651MA1999999097101MD1210181+0011MW1101REMSYN08848304 11557 80000 10168 20163 39710 40184 52018 60034 71062 8657/ 333 20165 58001 70028=
0185483040999992017010203004+19867+099767FM-12+040199999V0209999C000019999999N010000199+02001+01841101901ADDGA1061+008001061GA2999+999999031GE19AGL   +99999+99999GF108991061999008001999999MA1999999097201MD1210101-0181REMSYN06448304 32560 80000 10200 20184 39720 40190 52010 8657/ 333 59018=
0186483040999992017010206004+19867+099767FM-12+040199999V0209999C000019999999N012000199+02371+01881101611ADDAA124002831GA1061+999999031GE19AGL   +99999+99999GF106991061999999999999999MA1999999096981MD1710221-0261REMSYN07048304 32962 60000 10237 20188 39698 40161 57022 86030 333 59026 70028=
0185483040999992017010209004+19867+099767FM-12+040199999V0209999C000019999999N015000199+02501+01921101451ADDGA1021+012501061GA2999+999999031GE19AGL   +99999+99999GF106991021999012501999999MA1999999096851MD1710131-0251REMSYN06448304 32665 60000 10250 20192 39685 40145 57013 82530 333 59025=
0266483040999992017010212004+19867+099767FM-12+040199999V0209999C000019999999N012000199+02271+02021101581ADDAA112000231AA224002031AY161021AY221021GA1061+008001061GA2999+999999031GE19AGL   +99999+99999GF108991061999008001999999KA1240M+02521MA1999999096951MD1210101-0241MW1031REMSYN08848304 11562 80000 10227 20202 39695 40158 52010 69922 70362 8655/ 333 10252 59024 70020=
0169483040999992017010215004+19867+099767FM-12+040199999V0209999C000019999999N012000199+01951+01791101761ADDGA1021+008001061GE19AGL   +99999+99999GF102991021999008001999999MA1999999097071MD1210121-0181REMSYN06448304 32562 20000 10195 20179 39707 40176 52012 82500 333 59018=
0214483040999992017010218004+19867+099767FM-12+040199999V0209999C000019999999N004000199+01861+01761101781ADDAA124000831AY111021AY211021GA1031+008001061GE19AGL   +99999+99999GF103991031999008001999999MA1999999097071MD1410001-0151MW1101REMSYN07648304 31540 30000 10186 20176 39707 40178 54000 71011 83500 333 59015 70008=
0197483040999992017010221004+19867+099767FM-12+040199999V0209999C000019999999N003000199+01861+01781101531ADDAY111021AY211021GA1041+008001061GE19AGL   +99999+99999GF104991041999008001999999MA1999999096831MD1710241-0121MW1101REMSYN07048304 31530 40000 10186 20178 39683 40153 57024 71011 84500 333 59012=
0271483040999992017010300004+19867+099767FM-12+040199999V0209999C000019999999N006000199+01821+01751101591ADDAA124000231AY121021AY211021GA1031+008001061GA2999+999999031GA3999+999999021GE19AGL   +99999+99999GF106991031999008001999999KA1120N+01791MA1999999096891MD1210061-0251MW1101REMSYN08848304 11556 60000 10182 20175 39689 40159 52006 69924 71021 83556 333 20179 59025 70002=
0169483040999992017010303004+19867+099767FM-12+040199999V0209999C000019999999N015000199+02251+01941101711ADDGA1061+999999031GE19AGL   +99999+99999GF106991061999999999999999MA1999999097071MD1210181-0191REMSYN06448304 32965 60000 10225 20194 39707 40171 52018 8605/ 333 59019=
0218483040999992017010306004+19867+099767FM-12+040199999V0209999C000019999999N015000199+02581+01821101381ADDAA124000231GA1041+008001061GA2999+999999031GA3999+999999021GE19AGL   +99999+99999GF108991041999008001999999MA1999999096801MD1710271-0231REMSYN07048304 32565 80000 10258 20182 39680 40138 57027 84576 333 59023 70002=
0169483040999992017010309004+19867+099767FM-12+040199999V0209999C000019999999N015000199+02651+02011101131ADDGA1061+999999031GE19AGL   +99999+99999GF106991061999999999999999MA1999999096571MD1710231-0321REMSYN06448304 32965 60000 10265 20201 39657 40113 57023 86050 333 59032=
0220483040999992017010312004+19867+099767FM-12+040199999V0209999C000019999999N015000199+02291+01981101281ADDGA1031+008001061GA2999+999999031GA3999+999999021GE19AGL   +99999+99999GF108991031999008001999999KA1240M+02681MA1999999096661MD1210091-0301REMSYN07048304 32565 80000 10229 20198 39666 40128 52009 83556 333 10268 59030=
0201483040999992017010315004+19867+099767FM-12+040199999V0209999C000019999999N012000199+02111+01951101451ADDGA1031+008001061GA2999+999999031GA3999+999999021GE19AGL   +99999+99999GF108991031999008001999999MA1999999096801MD1210141-0311REMSYN06448304 32562 80000 10211 20195 39680 40145 52014 83556 333 59031=
0201483040999992017010318004+19867+099767FM-12+040199999V0209999C000019999999N010000199+01981+01881101421ADDGA1031+008001061GA2999+999999031GA3999+999999021GE19AGL   +99999+99999GF108991031999008001999999MA1999999096751MD1710051-0351REMSYN06448304 32560 80000 10198 20188 39675 40142 57005 83576 333 59035=
0229483040999992017010321004+19867+099767FM-12+040199999V0209999C000019999999N006000199+01951+01871101291ADDAY121021AY221021GA1041+008001061GA2999+999999031GA3999+999999021GE19AGL   +99999+99999GF108991041999008001999999MA1999999096621MD1710131-0241MW1101REMSYN07048304 31556 80000 10195 20187 39662 40129 57013 71022 84576 333 59024=
0283483040999992017010400004+19867+099767FM-12+040199999V0200201N004119999999N002000199+01731+01651101561ADDAA103007031AA224007032AA324007432AY161021AY221021GA1061+008001061GA2999+999999031GE19AGL   +99999+99999GF108991061999008001999999KA1120N+01731MA1999999096841MD1210221-0041MW1211REMSYN09448304 01520 80208 10173 20165 39684 40156 52022 60074 72162 8657/ 333 20173 59004 60077 70074=
0230483040999992017010403004+19867+099767FM-12+040199999V0203601N002619999999N010000199+01761+01691101811ADDAA103004031AY161021AY221021GA1061+008001061GA2999+999999031GE19AGL   +99999+99999GF108991061999008001999999MA1999999097091MD1210251+0101MW1611REMSYN07648304 21560 83605 10176 20169 39709 40181 52025 76162 8657/ 333 58010 60047=
0264483040999992017010406004+19867+099767FM-12+040199999V0200501N002619999999N015000199+01951+01651101581ADDAA103000021AA206004031AA324011231AY161021AY261021GA1051+008001061GA2999+999999031GE19AGL   +99999+99999GF108991051999008001999999MA1999999096901MD1710191+0211MW1021REMSYN08848304 01565 80505 10195 20165 39690 40158 57019 60041 70266 8557/ 333 58021 69907 70112=
0185483040999992017010409004+19867+099767FM-12+040199999V0200201N003119999999N015000199+01901+01651101491ADDGA1051+008001061GA2999+999999031GE19AGL   +99999+99999GF108991051999008001999999MA1999999096801MD1710091+0361REMSYN06448304 32565 80206 10190 20165 39680 40149 57009 8557/ 333 58036=
0221483040999992017010412004+19867+099767FM-12+040199999V0209999C000019999999N012000199+01761+01621101581ADDAA124011231GA1061+008001061GA2999+999999031GE19AGL   +99999+99999GF108991061999008001999999KA1240M+02001MA1999999096861MD1210061+0301REMSYN07648304 32562 80000 10176 20162 39686 40158 52006 8657/ 333 10200 58030 70112=
0230483040999992017010415004+19867+099767FM-12+040199999V0209999C000019999999N008000199+01691+01601101761ADDAA102000431AY161021AY221021GA1061+008001061GA2999+999999031GE19AGL   +99999+99999GF108991061999008001999999MA1999999097031MD1210161+0311MW1601REMSYN07648304 21558 80000 10169 20160 39703 40176 52016 76062 8657/ 333 58031 69946=
0264483040999992017010418004+19867+099767FM-12+040199999V0209999C000019999999N005000199+01641+01571101691ADDAA103002031AA218006031AA324013431AY161021AY261021GA1061+008001061GA2999+999999031GE19AGL   +99999+99999GF108991061999008001999999MA1999999096951MD1710071+0271MW1611REMSYN08848304 01550 80000 10164 20157 39695 40169 57007 60063 76166 8657/ 333 58027 60027 70134=
0230483040999992017010421004+19867+099767FM-12+040199999V0209999C000019999999N006000199+01601+01531101541ADDAA103000431AY161021AY221021GA1061+008001061GA2999+999999031GE19AGL   +99999+99999GF108991061999008001999999MA1999999096801MD1710151+0251MW1101REMSYN07648304 21556 80000 10160 20153 39680 40154 57015 71062 8657/ 333 58025 69947=
0283483040999992017010500004+19867+099767FM-12+040199999V0209999C000019999999N004000199+01621+01571101541ADDAA102000231AA224007032AA324006632AY161021AY261021GA1061+008001061GA2999+999999031GE19AGL   +99999+99999GF108991061999008001999999KA1120N+01591MA1999999096811MD1410001-0011MW1501REMSYN09448304 01540 80000 10162 20157 39681 40154 54000 60074 75066 8657/ 333 20159 59001 69926 70066=
0230483040999992017010503004+19867+099767FM-12+040199999V0209999C000019999999N005000199+01801+01721101711ADDAA103000231AY151021AY251021GA1061+008001061GA2999+999999031GE19AGL   +99999+99999GF108991061999008001999999MA1999999096991MD1210191-0101MW1611REMSYN07648304 21550 80000 10180 20172 39699 40171 52019 76155 8657/ 333 59010 69927=
0264483040999992017010506004+19867+099767FM-12+040199999V0209999C000019999999N007000199+01991+01731101501ADDAA103000231AA206000431AA324003231AY161021AY261021GA1061+008001061GA2999+999999031GE19AGL   +99999+99999GF108991061999008001999999MA1999999096821MD1710171-0091MW1501REMSYN08848304 01557 80000 10199 20173 39682 40150 57017 69941 75066 8657/ 333 59009 69927 70032=
0213483040999992017010509004+19867+099767FM-12+040199999V0201001N001019999999N007000199+02011+01661101361ADDAY121021AY221021GA1061+008001061GA2999+999999031GE19AGL   +99999+99999GF108991061999008001999999MA1999999096701MD1710121-0131MW1101REMSYN07048304 31557 81002 10201 20166 39670 40136 57012 71022 8657/ 333 59013=
0283483040999992017010512004+19867+099767FM-12+040199999V0209999C000019999999N006000199+01811+01661101491ADDAA101000231AA212000631AA324003431AY121021AY221021GA1061+008001061GA2999+999999031GE19AGL   +99999+99999GF108991061999008001999999KA1240M+02101MA1999999096791MD1210091-0091MW1211REMSYN09448304 01556 80000 10181 20166 39679 40149 52009 69962 72122 8657/ 333 10210 59009 69925 70034=
0230483040999992017010515004+19867+099767FM-12+040199999V0209999C000019999999N006000199+01761+01641101581ADDAA102000231AY161021AY221021GA1061+008001061GA2999+999999031GE19AGL   +99999+99999GF108991061999008001999999MA1999999096861MD1210081-0181MW1101REMSYN07648304 21556 80000 10176 20164 39686 40158 52008 71062 8657/ 333 59018 69926=
0264483040999992017010518004+19867+099767FM-12+040199999V0209999C000019999999N005000199+01731+01651101591ADDAA102000231AA218001031AA324001631AY161021AY261021GA1061+008001061GA2999+999999031GE19AGL   +99999+99999GF108991061999008001999999MA1999999096871MD1110011-0101MW1101REMSYN08848304 01550 80000 10173 20165 39687 40159 51001 60013 71066 8657/ 333 59010 69926 70016=
0230483040999992017010521004+19867+099767FM-12+040199999V0209999C000019999999N004000199+01711+01631101401ADDAA103003031AY161021AY221021GA1061+008001061GA2999+999999031GE19AGL   +99999+99999GF108991061999008001999999MA1999999096681MD1710191-0141MW1211REMSYN07648304 21540 80000 10171 20163 39668 40140 57019 72162 8657/ 333 59014 60037=
0283483040999992017010600004+19867+099767FM-12+040199999V0209999C000019999999N004000199+01711+01661101421ADDAA102000431AA224005032AA324004632AY161021AY221021GA1061+008001061GA2999+999999031GE19AGL   +99999+99999GF108991061999008001999999KA1120N+01691MA1999999096701MD1210021-0121MW1601REMSYN09448304 01540 80000 10171 20166 39670 40142 52002 60054 76062 8657/ 333 20169 59012 69946 70046=
0230483040999992017010603004+19867+099767FM-12+040199999V0209999C000019999999N007000199+01961+01811101611ADDAA103000231AY161021AY221021GA1061+008001061GA2999+999999031GE19AGL   +99999+99999GF108991061999008001999999MA1999999096931MD1210231-0101MW1101REMSYN07648304 21557 80000 10196 20181 39693 40161 52023 71062 8657/ 333 59010 69927=
0247483040999992017010606004+19867+099767FM-12+040199999V0209999C000019999999N010000199+02211+01811101311ADDAA106000231AA224004431AY161021AY221021GA1061+008001061GA2999+999999031GE19AGL   +99999+99999GF108991061999008001999999MA1999999096681MD1710251-0181MW1021REMSYN08248304 11560 80000 10221 20181 39668 40131 57025 69921 70262 8657/ 333 59018 70044=
0201483040999992017010609004+19867+099767FM-12+040199999V0209999C000019999999N015000199+02311+01831101091ADDGA1021+008001061GA2999+999999031GA3999+999999021GE19AGL   +99999+99999GF107991021999008001999999MA1999999096481MD1710201-0271REMSYN06448304 32565 70000 10231 20183 39648 40109 57020 82546 333 59027=
0299483040999992017010612004+19867+099767FM-12+040199999V0209999C000019999999N012000199+02001+01761101231ADDAA103000231AA212000431AA324004431AY161021AY221021GA1021+008001061GA2999+999999031GA3999+999999021GE19AGL   +99999+99999GF106991021999008001999999KA1240M+02341MA1999999096571MD1210091-0261MW1011REMSYN09448304 01562 60000 10200 20176 39657 40123 52009 69942 70162 82545 333 10234 59026 69927 70044=
0125483040999992017010615004+19867+099767FM-12+040199999V0209999C000019999999N012000199+01701+01561101411ADDGF100995999999999999999999MA1999999096691MD1210131-0171REMSYN05848304 32962 00000 10170 20156 39669 40141 52013 333 59017=
0142483040999992017010618004+19867+099767FM-12+040199999V0209999C000019999999N010000199+01641+01591101381ADDAA124004031GF100995999999999999999999MA1999999096661MD1710041-0211REMSYN06448304 32960 00000 10164 20159 39666 40138 57004 333 59021 70040=
0153483040999992017010621004+19867+099767FM-12+040199999V0209999C000019999999N006000199+01601+01551101291ADDAY101021AY201021GF100995999999999999999999MA1999999096561MD1710101-0111MW1101REMSYN06448304 31956 00000 10160 20155 39656 40129 57010 71000 333 59011=
0195483040999992017010700004+19867+099767FM-12+040199999V0209999C000019999999N002000199+01741+01691101321ADDAA124000431AY101021AY201021GF100995999999999999999999KA1120N+01581MA1999999096611MD1210051-0101MW1101REMSYN08248304 11920 00000 10174 20169 39661 40132 52005 69944 71000 333 20158 59010 70004=
0169483040999992017010703004+19867+099767FM-12+040199999V0209999C000019999999N015000199+01991+01781101451ADDGA1051+008001061GE19AGL   +99999+99999GF105991051999008001999999MA1999999096781MD1210171-0161REMSYN06448304 32565 50000 10199 20178 39678 40145 52017 85500 333 59016=
0186483040999992017010706004+19867+099767FM-12+040199999V0209999C000019999999N015000199+02321+01771101181ADDAA124000231GA1051+008001061GE19AGL   +99999+99999GF105991051999008001999999MA1999999096571MD1710211-0131REMSYN07048304 32565 50000 10232 20177 39657 40118 57021 85500 333 59013 70002=
0169483040999992017010709004+19867+099767FM-12+040199999V0209999C000019999999N015000199+02501+01771100921ADDGA1021+008001061GE19AGL   +99999+99999GF102991021999008001999999MA1999999096351MD1710231-0171REMSYN06448304 32565 20000 10250 20177 39635 40092 57023 82500 333 59017=
0188483040999992017010712004+19867+099767FM-12+040199999V0209999C000019999999N015000199+02101+01781101051ADDGA1021+008001061GE19AGL   +99999+99999GF102991021999008001999999KA1240M+02561MA1999999096411MD1210071-0181REMSYN07048304 32565 20000 10210 20178 39641 40105 52007 82500 333 10256 59018=
0125483040999992017010715004+19867+099767FM-12+040199999V0209999C000019999999N012000199+01791+01691101261ADDGF100995999999999999999999MA1999999096561MD1210151-0151REMSYN05848304 32962 00000 10179 20169 39656 40126 52015 333 59015=
0153483040999992017010718004+19867+099767FM-12+040199999V0209999C000019999999N013000199+01621+01551101251ADDAY101021AY201021GF100995999999999999999999MA1999999096521MD1710041-0141MW1101REMSYN06448304 31963 00000 10162 20155 39652 40125 57004 71000 333 59014=
0153483040999992017010721004+19867+099767FM-12+040199999V0209999C000019999999N002000199+01571+01501101151ADDAY101021AY201021GF100995999999999999999999MA1999999096421MD1710101-0141MW1101REMSYN06448304 31920 00000 10157 20150 39642 40115 57010 71000 333 59014=
0172483040999992017010800004+19867+099767FM-12+040199999V0209999C00001000001CN000000199+01551+01531101311ADDAY141021AY241021GF109991999999999999999999KA1120N+01501MA1999999096581MD1210161-0011MW1471REMSYN07048304 31/00 90000 10155 20153 39658 40131 52016 74744 333 20150 59001=
0153483040999992017010803004+19867+099767FM-12+040199999V0209999C00001001201CN000500199+01711+01661101541ADDAY141021AY241021GF109991999999999999999999MA1999999096821MD1210251+0091MW1471REMSYN06448304 31/05 90000 10171 20166 39682 40154 52025 74744 333 58009=
0197483040999992017010806004+19867+099767FM-12+040199999V0202201N002119999999N015000199+02081+01741101221ADDAY141021AY241021GA1051+008001061GE19AGL   +99999+99999GF105991051999008001999999MA1999999096571MD1710251+0041MW1011REMSYN07048304 31565 52204 10208 20174 39657 40122 57025 70144 85500 333 58004=
0169483040999992017010809004+19867+099767FM-12+040199999V0209999C000019999999N015000199+02481+01811100891ADDGA1021+008001061GE19AGL   +99999+99999GF102991021999008001999999MA1999999096321MD1710261-0031REMSYN06448304 32565 20000 10248 20181 39632 40089 57026 82500 333 59003=
0144483040999992017010812004+19867+099767FM-12+040199999V0209999C000019999999N015000199+02171+01931100981ADDGF100995999999999999999999KA1240M+02501MA1999999096361MD1210041-0071REMSYN06448304 32965 00000 10217 20193 39636 40098 52004 333 10250 59007=
0125483040999992017010815004+19867+099767FM-12+040199999V0209999C000019999999N010000199+01821+01651101211ADDGF100995999999999999999999MA1999999096521MD1210161-0051REMSYN05848304 32960 00000 10182 20165 39652 40121 52016 333 59005=
0153483040999992017010818004+19867+099767FM-12+040199999V0209999C000019999999N008000199+01661+01561101261ADDAY101021AY201021GF100995999999999999999999MA1999999096551MD1210031+0021MW1101REMSYN06448304 31958 00000 10166 20156 39655 40126 52003 71000 333 58002=
0229483040999992017010821004+19867+099767FM-12+040199999V0209999C000019999999N006000199+01601+01511101181ADDAY111021AY211021GA1031+008001061GA2999+999999031GA3999+999999021GE19AGL   +99999+99999GF105991031999008001999999MA1999999096461MD1710091+0031MW1411REMSYN07048304 31556 50000 10160 20151 39646 40118 57009 74111 83546 333 58003=
0235483040999992017010900004+19867+099767FM-12+040199999V0209999C000019999999N000200199+01471+01421101241ADDAY141021AY241021GA1999+999999001GE19AGL   +99999+99999GF102991001999999999999999KA1120N+01441MA1999999096501MD1210041-0071MW1461REMSYN07648304 31902 20000 10147 20142 39650 40124 52004 74644 80002 333 20144 59007=EQDQ01    003SCCGA1
0197483040999992017010903004+19867+099767FM-12+040199999V0209999C000019999999N015000199+01951+01741101431ADDAY141021AY211021GA1031+008001061GE19AGL   +99999+99999GF103991031999008001999999MA1999999096761MD1210261-0111MW1011REMSYN07048304 31565 30000 10195 20174 39676 40143 52026 70141 83400 333 59011=
0229483040999992017010906004+19867+099767FM-12+040199999V0209999C000019999999N015000199+02651+01811101011ADDAY141021AY211021GA1011+008001081GA2999+999999031GA3999+999999021GE19AGL   +99999+99999GF102991011999008001999999MA1999999096461MD1710301-0211MW1011REMSYN07048304 31565 20000 10265 20181 39646 40101 57030 70141 81245 333 59021=
0201483040999992017010909004+19867+099767FM-12+040199999V0209999C000019999999N015000199+02831+01771100781ADDGA1011+008001081GA2999+999999031GA3999+999999021GE19AGL   +99999+99999GF102991011999008001999999MA1999999096261MD1710191-0111REMSYN06448304 32565 20000 10283 20177 39626 40078 57019 81245 333 59011=
0144483040999992017010912004+19867+099767FM-12+040199999V0209999C000019999999N012000199+02301+01971100941ADDGF100995999999999999999999KA1240M+02861MA1999999096341MD1210071-0041REMSYN06448304 32962 00000 10230 20197 39634 40094 52007 333 10286 59004=
0185483040999992017010915004+19867+099767FM-12+040199999V0209999C000019999999N010000199+02011+01851101171ADDGA1021+008001061GA2999+999999031GE19AGL   +99999+99999GF108991021999008001999999MA1999999096511MD1210181-0041REMSYN06448304 32560 80000 10201 20185 39651 40117 52018 8255/ 333 59004=
0213483040999992017010918004+19867+099767FM-12+040199999V0209999C000019999999N008000199+01971+01871101141ADDAY121021AY211021GA1031+008001061GA2999+999999031GE19AGL   +99999+99999GF108991031999008001999999MA1999999096481MD1610041-0131MW1101REMSYN07048304 31558 80000 10197 20187 39648 40114 56004 71021 8355/ 333 59013=
0213483040999992017010921004+19867+099767FM-12+040199999V0209999C000019999999N007000199+01951+01871101011ADDAY121021AY221021GA1061+008001061GA2999+999999031GE19AGL   +99999+99999GF108991061999008001999999MA1999999096351MD1710131-0171MW1101REMSYN07048304 31557 80000 10195 20187 39635 40101 57013 71022 8657/ 333 59017=
0272483040999992017011000004+19867+099767FM-12+040199999V0209999C000019999999N006000199+01971+01891101121ADDAA103000231AA224000231AY161021AY221021GA1061+008001061GA2999+999999031GE19AGL   +99999+99999GF108991061999008001999999KA1120N+01911MA1999999096461MD1210111-0131MW1101REMSYN09448304 01556 80000 10197 20189 39646 40112 52011 69924 71062 8657/ 333 20191 59013 69927 70002=
0230483040999992017011003004+19867+099767FM-12+040199999V0209999C000019999999N003000199+02001+01941101381ADDAA103008031AY161021AY221021GA1061+008001061GA2999+999999031GE19AGL   +99999+99999GF108991061999008001999999MA1999999096711MD1210251-0061MW1611REMSYN07648304 21530 80000 10200 20194 39671 40138 52025 76162 8657/ 333 59006 60087=
0264483040999992017011006004+19867+099767FM-12+040199999V0209999C000019999999N006000199+02061+01981101171ADDAA103005031AA206013032AA324012832AY161021AY261021GA1061+008001061GA2999+999999031GE19AGL   +99999+99999GF108991061999008001999999MA1999999096521MD1710191+0161MW1611REMSYN08848304 01556 80000 10206 20198 39652 40117 57019 60131 76166 8657/ 333 58016 60057 70128=
0230483040999992017011009004+19867+099767FM-12+040199999V0209999C000019999999N004000199+02071+01991101021ADDAA103007031AY161021AY261021GA1061+008001061GA2999+999999031GE19AGL   +99999+99999GF108991061999008001999999MA1999999096381MD1710141+0241MW1611REMSYN07648304 21540 80000 10207 20199 39638 40102 57014 76166 8657/ 333 58024 60077=
0283483040999992017011012004+19867+099767FM-12+040199999V0209999C000019999999N004000199+02001+01921101161ADDAA103000431AA212020031AA324020031AY161021AY261021GA1061+008001061GA2999+999999031GE19AGL   +99999+99999GF108991061999008001999999KA1240M+02201MA1999999096501MD1210121+0221MW1611REMSYN09448304 01540 80000 10200 20192 39650 40116 52012 60202 76166 8657/ 333 10220 58022 69947 70200=
0246483040999992017011015004+19867+099767FM-12+040199999V0209999C000019999999N003000199+01951+01891101271ADDAA103000021AY161021AY221021GA1051+008001061GA2999+999999031GA3999+999999021GE19AGL   +99999+99999GF108991051999008001999999MA1999999096601MD1210101+0101MW1101REMSYN07648304 21530 80000 10195 20189 39660 40127 52010 71062 85576 333 58010 69907=
0263483040999992017011018004+19867+099767FM-12+040199999V0209999C000019999999N002000199+01951+01901101261ADDAA118020031AA224020031AY161021AY221021GA1051+008001061GA2999+999999031GA3999+999999021GE19AGL   +99999+99999GF108991051999008001999999MA1999999096581MD1710011+0121MW1101REMSYN08248304 11520 80000 10195 20190 39658 40126 57001 60203 71062 85576 333 58012 70200=
0230483040999992017011021004+19867+099767FM-12+040199999V0209999C000019999999N002000199+01951+01901101041ADDAA102001031AY161021AY221021GA1061+008001061GA2999+999999031GE19AGL   +99999+99999GF108991061999008001999999MA1999999096381MD1710211+0031MW1611REMSYN07648304 21520 80000 10195 20190 39638 40104 57021 76162 8657/ 333 58003 60016=
0283483040999992017011100004+19867+099767FM-12+040199999V0209999C000019999999N002000199+01951+01901101091ADDAA103003031AA224023032AA324023432AY161021AY261021GA1061+008001061GA2999+999999031GE19AGL   +99999+99999GF108991061999008001999999KA1120N+01891MA1999999096431MD1210051-0031MW1611REMSYN09448304 01520 80000 10195 20190 39643 40109 52005 60234 76166 8657/ 333 20189 59003 60037 70234=
0230483040999992017011103004+19867+099767FM-12+040199999V0209999C000019999999N002000199+02101+02051101261ADDAA103006031AY161021AY261021GA1061+008001061GA2999+999999031GE19AGL   +99999+99999GF108991061999008001999999MA1999999096621MD1210191-0111MW1611REMSYN07648304 21520 80000 10210 20205 39662 40126 52019 76166 8657/ 333 59011 60067=
0264483040999992017011106004+19867+099767FM-12+040199999V0209999C000019999999N002000199+02151+02071101071ADDAA103012031AA206018031AA324029231AY161021AY261021GA1061+008001061GA2999+999999031GE19AGL   +99999+99999GF108991061999008001999999MA1999999096441MD1710171-0091MW1611REMSYN08848304 01520 80000 10215 20207 39644 40107 57017 60181 76166 8657/ 333 59009 60127 70292=
0230483040999992017011109004+19867+099767FM-12+040199999V0209999C000019999999N002000199+02101+02041100861ADDAA103005031AY161021AY261021GA1061+008001061GA2999+999999031GE19AGL   +99999+99999GF108991061999008001999999MA1999999096231MD1710211-0161MW1611REMSYN07648304 21520 80000 10210 20204 39623 40086 57021 76166 8657/ 333 59016 60057=
0283483040999992017011112004+19867+099767FM-12+040199999V0209999C000019999999N001500199+02051+02001101031ADDAA103002031AA212026031AA324029231AY161021AY261021GA1061+008001061GA2999+999999031GE19AGL   +99999+99999GF108991061999008001999999KA1240M+02151MA1999999096381MD1210151-0131MW1611REMSYN09448304 01515 80000 10205 20200 39638 40103 52015 60262 76166 8657/ 333 10215 59013 60027 70292=
0230483040999992017011115004+19867+099767FM-12+040199999V0209999C000019999999N002000199+02011+01961101131ADDAA103001031AY161021AY221021GA1061+008001061GA2999+999999031GE19AGL   +99999+99999GF108991061999008001999999MA1999999096481MD1210091-0141MW1101REMSYN07648304 21520 80000 10201 20196 39648 40113 52009 71062 8657/ 333 59014 60017=
0247483040999992017011118004+19867+099767FM-12+040199999V0209999C000019999999N002000199+01991+01941101061ADDAA118027031AA224030431AY161021AY221021GA1061+008001061GA2999+999999031GE19AGL   +99999+99999GF108991061999008001999999MA1999999096401MD1710071-0201MW1101REMSYN08248304 11520 80000 10199 20194 39640 40106 57007 60273 71062 8657/ 333 59020 70304=
0229483040999992017011121004+19867+099767FM-12+040199999V0209999C000019999999N002000199+01971+01921100951ADDAY121021AY221021GA1051+008001061GA2999+999999031GA3999+999999021GE19AGL   +99999+99999GF108991051999008001999999MA1999999096291MD1710111-0091MW1101REMSYN07048304 31520 80000 10197 20192 39629 40095 57011 71022 85576 333 59009=
0282483040999992017011200004+19867+099767FM-12+040199999V0209999C000019999999N002000199+01961+01911101001ADDAA124027032AA224026832AY121021AY221021GA1051+008001061GA2999+999999031GA3999+999999021GE19AGL   +99999+99999GF108991051999008001999999KA1120N+01941MA1999999096351MD1210051-0091MW1101REMSYN08848304 11520 80000 10196 20191 39635 40100 52005 60274 71022 85576 333 20194 59009 70268=
0213483040999992017011203004+19867+099767FM-12+040199999V0209999C000019999999N003000199+02121+02071101151ADDAY121021AY221021GA1061+008001061GA2999+999999031GE19AGL   +99999+99999GF108991061999008001999999MA1999999096511MD1210161-0111MW1101REMSYN07048304 31530 80000 10212 20207 39651 40115 52016 71022 8657/ 333 59011=
0218483040999992017011206004+19867+099767FM-12+040199999V0209999C000019999999N015000199+02351+02121100881ADDAA124008431GA1061+008001061GA2999+999999031GA3999+999999021GE19AGL   +99999+99999GF108991061999008001999999MA1999999096291MD1710221-0191REMSYN07048304 32565 80000 10235 20212 39629 40088 57022 86576 333 59019 70084=
0201483040999992017011209004+19867+099767FM-12+040199999V0209999C000019999999N015000199+02481+02131100701ADDGA1041+008001061GA2999+999999031GA3999+999999021GE19AGL   +99999+99999GF106991041999008001999999MA1999999096131MD1710161-0161REMSYN06448304 32565 60000 10248 20213 39613 40070 57016 84546 333 59016=
0205483040999992017011212004+19867+099767FM-12+040199999V0209999C000019999999N015000199+02181+02061100761ADDAA124001231GA1031+008001061GE19AGL   +99999+99999GF103991031999008001999999KA1240M+02571MA1999999096151MD1210011-0261REMSYN07648304 32565 30000 10218 20206 39615 40076 52001 83500 333 10257 59026 70012=
0169483040999992017011215004+19867+099767FM-12+040199999V0209999C000019999999N015000199+02121+02041100941ADDGA1061+999999031GE19AGL   +99999+99999GF106991061999999999999999MA1999999096311MD1210161-0191REMSYN06448304 32965 60000 10212 20204 39631 40094 52016 86030 333 59019=
0169483040999992017011218004+19867+099767FM-12+040199999V0209999C000019999999N012000199+02001+01921101011ADDGA1041+999999031GE19AGL   +99999+99999GF104991041999999999999999MA1999999096361MD1210051-0051REMSYN06448304 32962 40000 10200 20192 39636 40101 52005 84030 333 59005=
0229483040999992017011221004+19867+099767FM-12+040199999V0209999C000019999999N007000199+02001+01921100851ADDAY121021AY221021GA1031+008001061GA2999+999999031GA3999+999999021GE19AGL   +99999+99999GF106991031999008001999999MA1999999096211MD1710151-0101MW1101REMSYN07048304 31557 60000 10200 20192 39621 40085 57015 71022 83546 333 59010=
0172483040999992017011300004+19867+099767FM-12+040199999V0209999C00001000301CN000100199+02011+01951100951ADDAY141021AY241021GF109991999999999999999999KA1120N+02001MA1999999096311MD1210101-0051MW1471REMSYN07048304 31/01 90000 10201 20195 39631 40095 52010 74744 333 20200 59005=
0213483040999992017011303004+19867+099767FM-12+040199999V0209999C000019999999N008000199+02191+02131101151ADDAY141021AY241021GA1061+008001061GA2999+999999031GE19AGL   +99999+99999GF108991061999008001999999MA1999999096521MD1210211+0001MW1101REMSYN07048304 31558 80000 10219 20213 39652 40115 52021 71044 8655/ 333 58000=
0197483040999992017011306004+19867+099767FM-12+040199999V0201201N001519999999N015000199+02821+02051100781ADDAY141021AY211021GA1021+012501081GE19AGL   +99999+99999GF102991021999012501999999MA1999999096261MD1710261-0101MW1011REMSYN07048304 31665 21203 10282 20205 39626 40078 57026 70141 82200 333 59010=
0169483040999992017011309004+19867+099767FM-12+040199999V0201201N001019999999N015000199+02881+01941100581ADDGA1021+012501081GE19AGL   +99999+99999GF102991021999012501999999MA1999999096081MD1710181-0121REMSYN06448304 32665 21202 10288 20194 39608 40058 57018 82100 333 59012=
0144483040999992017011312004+19867+099767FM-12+040199999V0209999C000019999999N012000199+02401+02091100751ADDGF100995999999999999999999KA1240M+02931MA1999999096171MD1210091-0021REMSYN06448304 32962 00000 10240 20209 39617 40075 52009 333 10293 59002=
0125483040999992017011315004+19867+099767FM-12+040199999V0209999C000019999999N010000199+02071+01911101031ADDGF100995999999999999999999MA1999999096391MD1210231+0091REMSYN05848304 32960 00000 10207 20191 39639 40103 52023 333 58009=
0125483040999992017011318004+19867+099767FM-12+040199999V0209999C000019999999N010000199+01861+01761101021ADDGF100995999999999999999999MA1999999096351MD1610051+0011REMSYN05848304 32960 00000 10186 20176 39635 40102 56005 333 58001=
0153483040999992017011321004+19867+099767FM-12+040199999V0209999C000019999999N008000199+01751+01671101041ADDAY101021AY201021GF100995999999999999999999MA1999999096351MD1410001+0191MW1101REMSYN06448304 31958 00000 10175 20167 39635 40104 54000 71000 333 58019=
0235483040999992017011400004+19867+099767FM-12+040199999V0209999C000019999999N002000199+01511+01441101231ADDAY111021AY201021GA1999+999999021GE19AGL   +99999+99999GF105991001999999999999999KA1120N+01471MA1999999096491MD1210141+0271MW1101REMSYN07648304 31920 50000 10151 20144 39649 40123 52014 71010 80007 333 20147 58027=EQDQ01    003SCCGA1
0169483040999992017011403004+19867+099767FM-12+040199999V0201101N001019999999N015000199+02071+01801101371ADDGA1011+012501081GE19AGL   +99999+99999GF101991011999012501999999MA1999999096711MD1210221+0221REMSYN06448304 32665 11102 10207 20180 39671 40137 52022 81100 333 58022=
0169483040999992017011406004+19867+099767FM-12+040199999V0201601N001019999999N015000199+02691+01751101041ADDGA1011+008001081GE19AGL   +99999+99999GF101991011999008001999999MA1999999096491MD1710221+0261REMSYN06448304 32565 11602 10269 20175 39649 40104 57022 81200 333 58026=
0169483040999992017011409004+19867+099767FM-12+040199999V0209999C000019999999N015000199+02951+01661100851ADDGA1011+008001081GE19AGL   +99999+99999GF101991011999008001999999MA1999999096341MD1710151+0271REMSYN06448304 32565 10000 10295 20166 39634 40085 57015 81200 333 58027=
0207483040999992017011412004+19867+099767FM-12+040199999V0209999C000019999999N010000199+02271+01991101091ADDGA1999+999999001GE19AGL   +99999+99999GF101991001999999999999999KA1240M+02971MA1999999096471MD1210131+0341REMSYN07048304 32960 10000 10227 20199 39647 40109 52013 80001 333 10297 58034=EQDQ01    003SCCGA1
0125483040999992017011415004+19867+099767FM-12+040199999V0209999C000019999999N010000199+01881+01731101311ADDGF100995999999999999999999MA1999999096631MD1210151+0281REMSYN05848304 32960 00000 10188 20173 39663 40131 52015 333 58028=
0125483040999992017011418004+19867+099767FM-12+040199999V0209999C000019999999N010000199+01621+01521101391ADDGF100995999999999999999999MA1999999096661MD1990041+0371REMSYN05848304 32960 00000 10162 20152 39666 40139 50004 333 58037=
0153483040999992017011421004+19867+099767FM-12+040199999V0209999C000019999999N002000199+01531+01461101391ADDAY101021AY201021GF100995999999999999999999MA1999999096641MD1710021+0341MW1101REMSYN06448304 31920 00000 10153 20146 39664 40139 57002 71000 333 58034=
0172483040999992017011500004+19867+099767FM-12+040199999V0209999C00001000001CN000000199+01541+01491101561ADDAY141021AY221021GF109991999999999999999999KA1120N+01471MA1999999096811MD1210171+0341MW1471REMSYN07048304 31/00 90000 10154 20149 39681 40156 52017 74742 333 20147 58034=
0197483040999992017011503004+19867+099767FM-12+040199999V0209999C000019999999N015000199+01951+01791101671ADDAY141021AY201021GA1021+008001061GE19AGL   +99999+99999GF102991021999008001999999MA1999999096981MD1210171+0301MW1011REMSYN07048304 31565 20000 10195 20179 39698 40167 52017 70140 82500 333 58030=
0197483040999992017011506004+19867+099767FM-12+040199999V0209999C000019999999N015000199+02691+01751101301ADDAY141021AY201021GA1011+008001061GE19AGL   +99999+99999GF101991011999008001999999MA1999999096741MD1710251+0261MW1011REMSYN07048304 31565 10000 10269 20175 39674 40130 57025 70140 81500 333 58026=
0125483040999992017011509004+19867+099767FM-12+040199999V0209999C000019999999N015000199+02841+01571101051ADDGF100995999999999999999999MA1999999096521MD1710211+0201REMSYN05848304 32965 00000 10284 20157 39652 40105 57021 333 58020=
0144483040999992017011512004+19867+099767FM-12+040199999V0209999C000019999999N015000199+02001+01581101251ADDGF100995999999999999999999KA1240M+02861MA1999999096591MD1210071+0161REMSYN06448304 32965 00000 10200 20158 39659 40125 52007 333 10286 58016=
0125483040999992017011515004+19867+099767FM-12+040199999V0209999C000019999999N012000199+01791+01661101461ADDGF100995999999999999999999MA1999999096751MD1210161+0141REMSYN05848304 32962 00000 10179 20166 39675 40146 52016 333 58014=
0153483040999992017011518004+19867+099767FM-12+040199999V0209999C000019999999N006000199+01541+01451101521ADDAY101021AY201021GF100995999999999999999999MA1999999096771MD1990021+0121MW1101REMSYN06448304 31956 00000 10154 20145 39677 40152 50002 71000 333 58012=
0153483040999992017011521004+19867+099767FM-12+040199999V0209999C000019999999N002000199+01421+01351101401ADDAY101021AY201021GF100995999999999999999999MA1999999096631MD1710141+0011MW1101REMSYN06448304 31920 00000 10142 20135 39663 40140 57014 71000 333 58001=
0216483040999992017011600004+19867+099767FM-12+040199999V0209999C000019999999N000300199+01351+01311101541ADDAY141021AY201021GA1021+008001061GE19AGL   +99999+99999GF102991021999008001999999KA1120N+01321MA1999999096761MD1210121-0031MW1461REMSYN07648304 31503 20000 10135 20131 39676 40154 52012 74640 82500 333 20132 59003=
0197483040999992017011603004+19867+099767FM-12+040199999V0209999C000019999999N015000199+02111+01751101571ADDAY141021AY201021GA1011+008001061GE19AGL   +99999+99999GF101991011999008001999999MA1999999096911MD1210151-0111MW1011REMSYN07048304 31565 10000 10211 20175 39691 40157 52015 70140 81500 333 59011=
0153483040999992017011606004+19867+099767FM-12+040199999V0201201N002119999999N015000199+02601+01681101211ADDAY141021AY201021GF100995999999999999999999MA1999999096641MD1710271-0091MW1011REMSYN06448304 31965 01204 10260 20168 39664 40121 57027 70140 333 59009=
0169483040999992017011609004+19867+099767FM-12+040199999V0209999C000019999999N015000199+02901+01841100921ADDGA1021+008001081GE19AGL   +99999+99999GF102991021999008001999999MA1999999096411MD1710231-0131REMSYN06448304 32565 20000 10290 20184 39641 40092 57023 82200 333 59013=
0153483040999992017011618004+19867+099767FM-12+040199999V0209999C000019999999N008000199+01641+01551101371ADDAY101021AY201021GF100995999999999999999999MA1999999096651MD1610011-0151MW1101REMSYN06448304 31958 00000 10164 20155 39665 40137 56001 71000 333 59015=
0229483040999992017011621004+19867+099767FM-12+040199999V0209999C000019999999N006000199+01611+01521101341ADDAY111021AY201021GA1021+012501061GA2999+999999031GA3999+999999021GE19AGL   +99999+99999GF104991021999012501999999MA1999999096611MD1710031-0061MW1101REMSYN07048304 31656 40000 10161 20152 39661 40134 57003 71010 82546 333 59006=
0232483040999992017011700004+19867+099767FM-12+040199999V0209999C000019999999N009000199+01761+01681101451ADDAY121021AY211021GA1021+012501061GA2999+999999031GE19AGL   +99999+99999GF106991021999012501999999KA1120N+01611MA1999999096741MD1210131-0091MW1101REMSYN07648304 31659 60000 10176 20168 39674 40145 52013 71021 82540 333 20161 59009=
0169483040999992017011703004+19867+099767FM-12+040199999V0209999C000019999999N015000199+02271+01861101641ADDGA1011+012501081GE19AGL   +99999+99999GF101991011999012501999999MA1999999097001MD1210261+0081REMSYN06448304 32665 10000 10227 20186 39700 40164 52026 81100 333 58008=
0169483040999992017011706004+19867+099767FM-12+040199999V0200901N001019999999N015000199+02731+01931101281ADDGA1011+008001081GE19AGL   +99999+99999GF101991011999008001999999MA1999999096731MD1710271+0081REMSYN06448304 32565 10902 10273 20193 39673 40128 57027 81200 333 58008=
0169483040999992017011709004+19867+099767FM-12+040199999V0209999C000019999999N015000199+02961+01791101021ADDGA1011+008001081GE19AGL   +99999+99999GF101991011999008001999999MA1999999096511MD1710221+0091REMSYN06448304 32565 10000 10296 20179 39651 40102 57022 81200 333 58009=
0188483040999992017011712004+19867+099767FM-12+040199999V0209999C000019999999N012000199+02451+02071101261ADDGA1011+008001081GE19AGL   +99999+99999GF101991011999008001999999KA1240M+02981MA1999999096661MD1210151+0181REMSYN07048304 32562 10000 10245 20207 39666 40126 52015 81200 333 10298 58018=
0169483040999992017011715004+19867+099767FM-12+040199999V0209999C000019999999N010000199+01951+01751101561ADDGA1011+008001081GE19AGL   +99999+99999GF101991011999008001999999MA1999999096871MD1210211+0221REMSYN06448304 32560 10000 10195 20175 39687 40156 52021 8120/ 333 58022=
0125483040999992017011718004+19867+099767FM-12+040199999V0209999C000019999999N010000199+01831+01751101651ADDGF100995999999999999999999MA1999999096941MD1210071+0281REMSYN05848304 32960 00000 10183 20175 39694 40165 52007 333 58028=
0153483040999992017011721004+19867+099767FM-12+040199999V0209999C000019999999N007000199+01721+01641101621ADDAY101021AY201021GF100995999999999999999999MA1999999096891MD1710051+0281MW1101REMSYN06448304 31957 00000 10172 20164 39689 40162 57005 71000 333 58028=
0235483040999992017011800004+19867+099767FM-12+040199999V0209999C000019999999N006000199+01571+01481101741ADDAY101021AY201021GA1999+999999021GE19AGL   +99999+99999GF102991001999999999999999KA1120N+01551MA1999999096981MD1210091+0291MW1101REMSYN07648304 31956 20000 10157 20148 39698 40174 52009 71000 80005 333 20155 58029=EQDQ01    003SCCGA1
0188483040999992017011803004+19867+099767FM-12+040199999V0209999C000019999999N015000199+02191+01841101891ADDGA1999+999999021GE19AGL   +99999+99999GF106991001999999999999999MA1999999097231MD1210241+0251REMSYN06448304 32965 60000 10219 20184 39723 40189 52024 80007 333 58025=EQDQ01    003SCCGA1
0169483040999992017011806004+19867+099767FM-12+040199999V0200501N001019999999N015000199+02861+01871101481ADDGA1011+008001081GE19AGL   +99999+99999GF101991011999008001999999MA1999999096941MD1710291+0201REMSYN06448304 32565 10502 10286 20187 39694 40148 57029 81200 333 58020=
0188483040999992017011812004+19867+099767FM-12+040199999V0209999C000019999999N012000199+02451+02121101371ADDGA1011+008001081GE19AGL   +99999+99999GF101991011999008001999999KA1240M+03011MA1999999096771MD1210081+0121REMSYN07048304 32562 10000 10245 20212 39677 40137 52008 81200 333 10301 58012=
0125483040999992017011815004+19867+099767FM-12+040199999V0209999C000019999999N012000199+01991+01811101661ADDGF100995999999999999999999MA1999999096971MD1210201+0101REMSYN05848304 32962 00000 10199 20181 39697 40166 52020 333 58010=
0188483040999992017011818004+19867+099767FM-12+040199999V0209999C000019999999N010000199+01871+01751101681ADDGA1999+999999001GE19AGL   +99999+99999GF102991001999999999999999MA1999999096981MD1410001+0031REMSYN06448304 32960 20000 10187 20175 39698 40168 54000 80001 333 58003=EQDQ01    003SCCGA1
0153483040999992017011821004+19867+099767FM-12+040199999V0209999C000019999999N002000199+01731+01651101611ADDAY101021AY201021GF100995999999999999999999MA1999999096891MD1710091-0011MW1101REMSYN06448304 31920 00000 10173 20165 39689 40161 57009 71000 333 59001=
0232483040999992017011900004+19867+099767FM-12+040199999V0209999C000019999999N002000199+01611+01541101681ADDAY111021AY211021GA1031+004501071GA2999+999999001GE19AGL   +99999+99999GF103991031999004501999999KA1120N+01531MA1999999096941MD1210051-0061MW1101REMSYN07648304 31420 30000 10161 20154 39694 40168 52005 71011 83601 333 20153 59006=
0169483040999992017011903004+19867+099767FM-12+040199999V0209999C000019999999N010000199+02231+01931101831ADDGA1021+008001061GE19AGL   +99999+99999GF102991021999008001999999MA1999999097171MD1210241-0061REMSYN06448304 32560 20000 10223 20193 39717 40183 52024 82500 333 59006=
0169483040999992017011906004+19867+099767FM-12+040199999V0209999C000019999999N015000199+02801+01961101421ADDGA1021+008001061GE19AGL   +99999+99999GF102991021999008001999999MA1999999096871MD1710301-0061REMSYN06448304 32565 20000 10280 20196 39687 40142 57030 82500 333 59006=
0169483040999992017011909004+19867+099767FM-12+040199999V0209999C000019999999N015000199+02941+02031101181ADDGA1021+008001061GE19AGL   +99999+99999GF102991021999008001999999MA1999999096661MD1710211-0031REMSYN06448304 32565 20000 10294 20203 39666 40118 57021 82500 333 59003=
0188483040999992017011912004+19867+099767FM-12+040199999V0209999C000019999999N015000199+02291+01901101331ADDGA1021+008001061GE19AGL   +99999+99999GF102991021999008001999999KA1240M+02951MA1999999096711MD1210051-0041REMSYN07048304 32565 20000 10229 20190 39671 40133 52005 82500 333 10295 59004=
0125483040999992017011915004+19867+099767FM-12+040199999V0209999C000019999999N010000199+01881+01711101581ADDGF100995999999999999999999MA1999999096881MD1210181-0081REMSYN05848304 32960 00000 10188 20171 39688 40158 52018 333 59008=
0153483040999992017011918004+19867+099767FM-12+040199999V0209999C000019999999N003000199+01721+01621101611ADDAY101021AY201021GF100995999999999999999999MA1999999096891MD1990011-0071MW1101REMSYN06448304 31930 00000 10172 20162 39689 40161 50001 71000 333 59007=
0153483040999992017011921004+19867+099767FM-12+040199999V0209999C000019999999N002000199+01611+01541101581ADDAY101021AY201021GF100995999999999999999999MA1999999096841MD1710051-0031MW1101REMSYN06448304 31920 00000 10161 20154 39684 40158 57005 71000 333 59003=
0172483040999992017012000004+19867+099767FM-12+040199999V0209999C00001000001CN000000199+01521+01471101661ADDAY141021AY241021GF109991999999999999999999KA1120N+01511MA1999999096911MD1210061-0021MW1471REMSYN07048304 31/00 90000 10152 20147 39691 40166 52006 74744 333 20151 59002=
0213483040999992017012003004+19867+099767FM-12+040199999V0209999C000019999999N004000199+01991+01811101871ADDAY141021AY211021GA1021+008001061GA2999+999999001GE19AGL   +99999+99999GF104991021999008001999999MA1999999097181MD1210271+0041MW1101REMSYN07048304 31540 40000 10199 20181 39718 40187 52027 71041 82501 333 58004=
0229483040999992017012006004+19867+099767FM-12+040199999V0209999C000019999999N015000199+02661+01831101441ADDAY141021AY211021GA1021+008001061GA2999+999999031GA3999+999999001GE19AGL   +99999+99999GF104991021999008001999999MA1999999096871MD1710301+0021MW1021REMSYN07048304 31565 40000 10266 20183 39687 40144 57030 70241 82541 333 58002=
0169483040999992017012009004+19867+099767FM-12+040199999V0209999C000019999999N015000199+02901+01841101121ADDGA1021+008001061GE19AGL   +99999+99999GF102991021999008001999999MA1999999096601MD1710271-0061REMSYN06448304 32565 20000 10290 20184 39660 40112 57027 82500 333 59006=
0144483040999992017012012004+19867+099767FM-12+040199999V0200101N002119999999N015000199+02381+01821101351ADDGF100995999999999999999999KA1240M+02921MA1999999096741MD1210141+0031REMSYN06448304 32965 00104 10238 20182 39674 40135 52014 333 10292 58003=
0125483040999992017012015004+19867+099767FM-12+040199999V0209999C000019999999N012000199+02051+01841101631ADDGF100995999999999999999999MA1999999096961MD1210211+0051REMSYN05848304 32962 00000 10205 20184 39696 40163 52021 333 58005=
0125483040999992017012018004+19867+099767FM-12+040199999V0209999C000019999999N010000199+01801+01671101701ADDGF100995999999999999999999MA1999999096981MD1210031+0091REMSYN05848304 32960 00000 10180 20167 39698 40170 52003 333 58009=
0153483040999992017012021004+19867+099767FM-12+040199999V0209999C000019999999N007000199+01721+01641101691ADDAY101021AY201021GF100995999999999999999999MA1999999096971MD1710021+0111MW1101REMSYN06448304 31957 00000 10172 20164 39697 40169 57002 71000 333 58011=
0172483040999992017012100004+19867+099767FM-12+040199999V0209999C000019999999N004000199+01581+01531101851ADDAY101021AY201021GF100995999999999999999999KA1120N+01561MA1999999097101MD1210131+0191MW1101REMSYN07048304 31940 00000 10158 20153 39710 40185 52013 71000 333 20156 58019=
0169483040999992017012103004+19867+099767FM-12+040199999V0209999C000019999999N015000199+02091+01821102021ADDGA1061+999999031GE19AGL   +99999+99999GF106991061999999999999999MA1999999097331MD1210241+0151REMSYN06448304 32965 60000 10209 20182 39733 40202 52024 86040 333 58015=
0185483040999992017012106004+19867+099767FM-12+040199999V0202101N001019999999N015000199+02771+01901101681ADDGA1021+008001081GA2999+999999031GE19AGL   +99999+99999GF103991021999008001999999MA1999999097121MD1710221+0241REMSYN06448304 32565 32102 10277 20190 39712 40168 57022 82240 333 58024=
0169483040999992017012109004+19867+099767FM-12+040199999V0209999C000019999999N015000199+02951+01961101411ADDGA1031+999999031GE19AGL   +99999+99999GF103991031999999999999999MA1999999096881MD1710241+0291REMSYN06448304 32965 30000 10295 20196 39688 40141 57024 83040 333 58029=
0144483040999992017012112004+19867+099767FM-12+040199999V0209999C000019999999N010000199+02341+02061101601ADDGF100995999999999999999999KA1240M+02951MA1999999096971MD1210091+0241REMSYN06448304 32960 00000 10234 20206 39697 40160 52009 333 10295 58024=
0153483040999992017012115004+19867+099767FM-12+040199999V0209999C000019999999N008000199+01961+01801101891ADDAY101021AY201021GF100995999999999999999999MA1999999097191MD1210221+0261MW1101REMSYN06448304 31958 00000 10196 20180 39719 40189 52022 71000 333 58026=
0153483040999992017012118004+19867+099767FM-12+040199999V0209999C000019999999N006000199+01861+01761101941ADDAY101021AY201021GF100995999999999999999999MA1999999097231MD1210031+0241MW1101REMSYN06448304 31956 00000 10186 20176 39723 40194 52003 71000 333 58024=
0153483040999992017012121004+19867+099767FM-12+040199999V0209999C000019999999N006000199+01781+01701101911ADDAY101021AY201021GF100995999999999999999999MA1999999097181MD1610041+0221MW1101REMSYN06448304 31956 00000 10178 20170 39718 40191 56004 71000 333 58022=
0235483040999992017012200004+19867+099767FM-12+040199999V0209999C000019999999N007000199+01611+01521102021ADDAY101021AY201021GA1999+999999021GE19AGL   +99999+99999GF102991001999999999999999KA1120N+01571MA1999999097261MD1210081+0171MW1101REMSYN07648304 31957 20000 10161 20152 39726 40202 52008 71000 80005 333 20157 58017=EQDQ01    003SCCGA1
0125483040999992017012203004+19867+099767FM-12+040199999V0209999C000019999999N015000199+02121+01811102171ADDGF100995999999999999999999MA1999999097481MD1210221+0151REMSYN05848304 32965 00000 10212 20181 39748 40217 52022 333 58015=
0185483040999992017012206004+19867+099767FM-12+040199999V0200701N001019999999N015000199+02701+01861101801ADDGA1021+008001081GA2999+999999031GE19AGL   +99999+99999GF103991021999008001999999MA1999999097221MD1710261+0121REMSYN06448304 32565 30702 10270 20186 39722 40180 57026 82240 333 58012=
0169483040999992017012209004+19867+099767FM-12+040199999V0209999C000019999999N015000199+02901+01751101441ADDGA1011+012501081GE19AGL   +99999+99999GF101991011999012501999999MA1999999096901MD1710321+0031REMSYN06448304 32665 10000 10290 20175 39690 40144 57032 81100 333 58003=
0144483040999992017012212004+19867+099767FM-12+040199999V0209999C000019999999N012000199+02311+02001101561ADDGF100995999999999999999999KA1240M+02911MA1999999096931MD1210031-0041REMSYN06448304 32962 00000 10231 20200 39693 40156 52003 333 10291 59004=
0125483040999992017012215004+19867+099767FM-12+040199999V0209999C000019999999N012000199+01881+01751101781ADDGF100995999999999999999999MA1999999097081MD1210151-0111REMSYN05848304 32962 00000 10188 20175 39708 40178 52015 333 59011=
0125483040999992017012218004+19867+099767FM-12+040199999V0209999C000019999999N010000199+01731+01631101841ADDGF100995999999999999999999MA1999999097111MD1210031-0101REMSYN05848304 32960 00000 10173 20163 39711 40184 52003 333 59010=
0153483040999992017012221004+19867+099767FM-12+040199999V0209999C000019999999N002000199+01581+01511101791ADDAY101021AY201021GF100995999999999999999999MA1999999097041MD1710071-0121MW1101REMSYN06448304 31920 00000 10158 20151 39704 40179 57007 71000 333 59012=
0216483040999992017012300004+19867+099767FM-12+040199999V0209999C000019999999N002000199+01501+01431101971ADDAY101021AY201021GA1021+008001061GE19AGL   +99999+99999GF102991021999008001999999KA1120N+01491MA1999999097201MD1210161-0041MW1101REMSYN07648304 31520 20000 10150 20143 39720 40197 52016 71000 82500 333 20149 59004=
0169483040999992017012303004+19867+099767FM-12+040199999V0209999C000019999999N015000199+02101+01721102161ADDGA1061+999999031GE19AGL   +99999+99999GF106991061999999999999999MA1999999097471MD1210271-0011REMSYN06448304 32965 60000 10210 20172 39747 40216 52027 86050 333 59001=
0169483040999992017012306004+19867+099767FM-12+040199999V0209999C000019999999N015000199+02551+01681101761ADDGA1021+008001061GE19AGL   +99999+99999GF102991021999008001999999MA1999999097161MD1710311-0041REMSYN06448304 32565 20000 10255 20168 39716 40176 57031 82500 333 59004=
0169483040999992017012309004+19867+099767FM-12+040199999V0209999C000019999999N015000199+02701+01691101471ADDGA1021+008001061GE19AGL   +99999+99999GF102991021999008001999999MA1999999096901MD1710261+0041REMSYN06448304 32565 20000 10270 20169 39690 40147 57026 82500 333 58004=
0207483040999992017012312004+19867+099767FM-12+040199999V0209999C000019999999N015000199+02161+01651101611ADDGA1999+999999001GE19AGL   +99999+99999GF102991001999999999999999KA1240M+02701MA1999999096961MD1210051+0051REMSYN07048304 32965 20000 10216 20165 39696 40161 52005 80001 333 10270 58005=EQDQ01    003SCCGA1
0125483040999992017012315004+19867+099767FM-12+040199999V0209999C000019999999N012000199+01791+01661101821ADDGF100995999999999999999999MA1999999097101MD1210141+0041REMSYN05848304 32962 00000 10179 20166 39710 40182 52014 333 58004=
0125483040999992017012318004+19867+099767FM-12+040199999V0209999C000019999999N010000199+01601+01511101871ADDGF100995999999999999999999MA1999999097111MD1210021+0031REMSYN05848304 32960 00000 10160 20151 39711 40187 52002 333 58003=
0216483040999992017012321004+19867+099767FM-12+040199999V0209999C000019999999N002000199+01501+01431101821ADDAY101021AY201021GA1999+999999001GE19AGL   +99999+99999GF102991001999999999999999MA1999999097051MD1710061+0031MW1101REMSYN07048304 31920 20000 10150 20143 39705 40182 57006 71000 80001 333 58003=EQDQ01    003SCCGA1
0235483040999992017012400004+19867+099767FM-12+040199999V0209999C000019999999N002000199+01431+01381101961ADDAY101021AY201021GA1999+999999001GE19AGL   +99999+99999GF102991001999999999999999KA1120N+01421MA1999999097171MD1210121-0021MW1101REMSYN07648304 31920 20000 10143 20138 39717 40196 52012 71000 80001 333 20142 59002=EQDQ01    003SCCGA1
0120483040999992017012403004+19867+099767FM-12+040199999V0203601N0000199999999012000199+02151+01711102091ADDAA199999999GA1021+006001061GE19AGL   +99999+99999GF102991021999006001999999MA1999999097411MD1210241-0061REMSYN004BUFR
0169483040999992017012406004+19867+099767FM-12+040199999V0201401N001519999999N015000199+02591+01631101731ADDGA1021+008001061GE19AGL   +99999+99999GF102991021999008001999999MA1999999097131MD1710281-0031REMSYN06448304 32565 21403 10259 20163 39713 40173 57028 82500 333 59003=
0169483040999992017012409004+19867+099767FM-12+040199999V0209999C000019999999N015000199+02701+01651101471ADDGA1021+008001061GE19AGL   +99999+99999GF102991021999008001999999MA1999999096901MD1710231+0001REMSYN06448304 32565 20000 10270 20165 39690 40147 57023 82500 333 58000=
0207483040999992017012412004+19867+099767FM-12+040199999V0209999C000019999999N015000199+02181+01741101661ADDGA1999+999999001GE19AGL   +99999+99999GF102991001999999999999999KA1240M+02711MA1999999097011MD1210111+0051REMSYN07048304 32965 20000 10218 20174 39701 40166 52011 80001 333 10271 58005=EQDQ01    003SCCGA1
0125483040999992017012415004+19867+099767FM-12+040199999V0209999C000019999999N010000199+01901+01741101901ADDGF100995999999999999999999MA1999999097191MD1210181+0081REMSYN05848304 32960 00000 10190 20174 39719 40190 52018 333 58008=
0153483040999992017012418004+19867+099767FM-12+040199999V0209999C000019999999N007000199+01741+01661102011ADDAY101021AY201021GF100995999999999999999999MA1999999097271MD1210081+0151MW1101REMSYN06448304 31957 00000 10174 20166 39727 40201 52008 71000 333 58015=
0153483040999992017012421004+19867+099767FM-12+040199999V0209999C000019999999N006000199+01621+01531101991ADDAY101021AY201021GF100995999999999999999999MA1999999097241MD1710041+0181MW1101REMSYN06448304 31956 00000 10162 20153 39724 40199 57004 71000 333 58018=
0172483040999992017012500004+19867+099767FM-12+040199999V0209999C00001000001CN000000199+01551+01481102121ADDAY141021AY201021GF109991999999999999999999KA1120N+01481MA1999999097341MD1210111+0161MW1471REMSYN07048304 31/00 90000 10155 20148 39734 40212 52011 74740 333 20148 58016=
0142483040999992017012503004+19867+099767FM-12+040199999V0203601N0000199999999013000199+02051+01751102261ADDAA199999999AY141031AY241031GA1011+006001081GE19AGL   +99999+99999GF101991011999006001999999MA1999999097561MD1210221+0171MW1011REMSYN004BUFR
0197483040999992017012506004+19867+099767FM-12+040199999V0209999C000019999999N015000199+02721+01731101871ADDAY141021AY241021GA1011+012501081GE19AGL   +99999+99999GF101991011999012501999999MA1999999097291MD1710271+0141MW1021REMSYN07048304 31665 10000 10272 20173 39729 40187 57027 70244 81100 333 58014=
0169483040999992017012509004+19867+099767FM-12+040199999V0209999C000019999999N015000199+02841+01591101581ADDGA1011+012501081GE19AGL   +99999+99999GF101991011999012501999999MA1999999097031MD1710261+0111REMSYN06448304 32665 10000 10284 20159 39703 40158 57026 81100 333 58011=
0120483040999992017012512004+19867+099767FM-12+040199999V0203601N0000199999999012000199+02301+01991101721ADDAA199999999GA1011+010001081GE19AGL   +99999+99999GF101991011999010001999999MA1999999097081MD1210061+0061REMSYN004BUFR
0082483040999992017012515004+19867+099767FM-12+040199999V0203601N0000122000199010000199+01921+01741101951ADDAA199999999GF100991999999999999999999MA1999999097241MD1210161+0051REMSYN004BUFR
0153483040999992017012521004+19867+099767FM-12+040199999V0209999C000019999999N006000199+01601+01511101951ADDAY101021AY201021GF100995999999999999999999MA1999999097191MD1710091-0051MW1101REMSYN06448304 31956 00000 10160 20151 39719 40195 57009 71000 333 59005=
0216483040999992017012600004+19867+099767FM-12+040199999V0209999C000019999999N005000199+01371+01311102091ADDAY101021AY201021GA1011+012501061GE19AGL   +99999+99999GF101991011999012501999999KA1120N+01371MA1999999097291MD1210101-0021MW1101REMSYN07648304 31650 10000 10137 20131 39729 40209 52010 71000 81500 333 20137 59002=
0169483040999992017012603004+19867+099767FM-12+040199999V0209999C000019999999N015000199+02071+01661102181ADDGA1011+999999031GE19AGL   +99999+99999GF101991011999999999999999MA1999999097491MD1210201-0081REMSYN06448304 32965 10000 10207 20166 39749 40218 52020 81040 333 59008=
0169483040999992017012606004+19867+099767FM-12+040199999V0200501N001519999999N015000199+02661+01601101761ADDGA1011+008001081GE19AGL   +99999+99999GF101991011999008001999999MA1999999097171MD1710311-0111REMSYN06448304 32565 10503 10266 20160 39717 40176 57031 81200 333 59011=
0185483040999992017012609004+19867+099767FM-12+040199999V0209999C000019999999N015000199+02771+01401101471ADDGA1011+012501081GA2999+999999031GE19AGL   +99999+99999GF102991011999012501999999MA1999999096911MD1710261-0111REMSYN06448304 32665 20000 10277 20140 39691 40147 57026 81140 333 59011=
0144483040999992017012612004+19867+099767FM-12+040199999V0209999C000019999999N012000199+02421+02001101571ADDGF100995999999999999999999KA1240M+02851MA1999999096961MD1210051-0151REMSYN06448304 32962 00000 10242 20200 39696 40157 52005 333 10285 59015=
0169483040999992017012615004+19867+099767FM-12+040199999V0209999C000019999999N010000199+01811+01641101791ADDGA1031+999999031GE19AGL   +99999+99999GF103991031999999999999999MA1999999097071MD1210111-0161REMSYN06448304 32960 30000 10181 20164 39707 40179 52011 83040 333 59016=
0188483040999992017012618004+19867+099767FM-12+040199999V0209999C000019999999N010000199+01581+01471101741ADDGA1999+999999001GE19AGL   +99999+99999GF102991001999999999999999MA1999999096991MD1710081-0281REMSYN06448304 32960 20000 10158 20147 39699 40174 57008 80001 333 59028=EQDQ01    003SCCGA1
0216483040999992017012621004+19867+099767FM-12+040199999V0209999C000019999999N015000199+01471+01401101721ADDAY101021AY201021GA1999+999999001GE19AGL   +99999+99999GF102991001999999999999999MA1999999096951MD1710041-0231MW1101REMSYN07048304 31965 20000 10147 20140 39695 40172 57004 71000 80001 333 59023=EQDQ01    003SCCGA1
0248483040999992017012700004+19867+099767FM-12+040199999V0209999C000019999999N004000199+01471+01401101801ADDAY121021AY221021GA1021+008001061GA2999+999999031GA3999+999999021GE19AGL   +99999+99999GF108991021999008001999999KA1120N+01381MA1999999097031MD1210081-0291MW1101REMSYN07648304 31540 80000 10147 20140 39703 40180 52008 71022 82547 333 20138 59029=
0201483040999992017012703004+19867+099767FM-12+040199999V0209999C000019999999N015000199+01901+01611101941ADDGA1021+008001061GA2999+999999031GA3999+999999021GE19AGL   +99999+99999GF107991021999008001999999MA1999999097231MD1210201-0241REMSYN06448304 32565 70000 10190 20161 39723 40194 52020 82556 333 59024=
0169483040999992017012706004+19867+099767FM-12+040199999V0209999C000019999999N015000199+02401+01651101601ADDGA1061+999999031GE19AGL   +99999+99999GF106991061999999999999999MA1999999096981MD1710251-0161REMSYN06448304 32965 60000 10240 20165 39698 40160 57025 86050 333 59016=
0169483040999992017012709004+19867+099767FM-12+040199999V0209999C000019999999N015000199+02621+01531101281ADDGA1021+999999031GE19AGL   +99999+99999GF102991021999999999999999MA1999999096711MD1710271-0181REMSYN06448304 32965 20000 10262 20153 39671 40128 57027 82040 333 59018=
0207483040999992017012712004+19867+099767FM-12+040199999V0209999C000019999999N015000199+02131+01631101421ADDGA1999+999999001GE19AGL   +99999+99999GF102991001999999999999999KA1240M+02681MA1999999096771MD1210051-0161REMSYN07048304 32965 20000 10213 20163 39677 40142 52005 80001 333 10268 59016=EQDQ01    003SCCGA1
0169483040999992017012715004+19867+099767FM-12+040199999V0209999C000019999999N012000199+01851+01671101591ADDGA1051+999999031GE19AGL   +99999+99999GF105991051999999999999999MA1999999096891MD1210121-0201REMSYN06448304 32962 50000 10185 20167 39689 40159 52012 85040 333 59020=
0125483040999992017012718004+19867+099767FM-12+040199999V0209999C000019999999N010000199+01661+01561101581ADDGF100995999999999999999999MA1999999096851MD1710041-0171REMSYN05848304 32960 00000 10166 20156 39685 40158 57004 333 59017=
0229483040999992017012721004+19867+099767FM-12+040199999V0209999C000019999999N003000199+01611+01541101511ADDAY121021AY221021GA1031+008001061GA2999+999999031GA3999+999999021GE19AGL   +99999+99999GF108991031999008001999999MA1999999096771MD1710071-0211MW1101REMSYN07048304 31530 80000 10161 20154 39677 40151 57007 71022 83576 333 59021=
0248483040999992017012800004+19867+099767FM-12+040199999V0209999C000019999999N003000199+01601+01531101541ADDAY121021AY221021GA1021+008001061GA2999+999999031GA3999+999999021GE19AGL   +99999+99999GF107991021999008001999999KA1120N+01521MA1999999096801MD1210031-0261MW1101REMSYN07648304 31530 70000 10160 20153 39680 40154 52003 71022 82556 333 20152 59026=
0169483040999992017012803004+19867+099767FM-12+040199999V0209999C000019999999N015000199+02301+01731101591ADDGA1021+008001061GE19AGL   +99999+99999GF102991021999008001999999MA1999999096961MD1210161-0351REMSYN06448304 32565 20000 10230 20173 39696 40159 52016 82500 333 59035=
0169483040999992017012806004+19867+099767FM-12+040199999V0209999C000019999999N015000199+02741+01721101241ADDGA1021+008001061GE19AGL   +99999+99999GF102991021999008001999999MA1999999096691MD1710271-0361REMSYN06448304 32565 20000 10274 20172 39669 40124 57027 82500 333 59036=
0169483040999992017012809004+19867+099767FM-12+040199999V0209999C000019999999N015000199+02881+01541100871ADDGA1021+008001091GE19AGL   +99999+99999GF102991021999008001999999MA1999999096361MD1710331-0411REMSYN06448304 32565 20000 10288 20154 39636 40087 57033 82300 333 59041=
0144483040999992017012812004+19867+099767FM-12+040199999V0209999C000019999999N012000199+02401+02011101041ADDGF100995999999999999999999KA1240M+02951MA1999999096451MD1210091-0371REMSYN06448304 32962 00000 10240 20201 39645 40104 52009 333 10295 59037=
0125483040999992017012815004+19867+099767FM-12+040199999V0209999C000019999999N010000199+02001+01791101221ADDGF100995999999999999999999MA1999999096561MD1210111-0371REMSYN05848304 32960 00000 10200 20179 39656 40122 52011 333 59037=
0153483040999992017012818004+19867+099767FM-12+040199999V0209999C000019999999N008000199+01851+01771101291ADDAY101021AY201021GF100995999999999999999999MA1999999096601MD1210041-0291MW1101REMSYN06448304 31958 00000 10185 20177 39660 40129 52004 71000 333 59029=
0153483040999992017012821004+19867+099767FM-12+040199999V0209999C000019999999N006000199+01711+01631101271ADDAY101021AY201021GF100995999999999999999999MA1999999096561MD1610041-0241MW1101REMSYN06448304 31956 00000 10171 20163 39656 40127 56004 71000 333 59024=
0216483040999992017012900004+19867+099767FM-12+040199999V0209999C000019999999N006000199+01571+01481101401ADDAY101021AY201021GA1021+999999031GE19AGL   +99999+99999GF102991021999999999999999KA1120N+01551MA1999999096661MD1210101-0141MW1101REMSYN07648304 31956 20000 10157 20148 39666 40140 52010 71000 82040 333 20155 59014=
0169483040999992017012903004+19867+099767FM-12+040199999V0209999C000019999999N015000199+02241+01861101621ADDGA1011+999999031GE19AGL   +99999+99999GF101991011999999999999999MA1999999096981MD1210321+0031REMSYN06448304 32965 10000 10224 20186 39698 40162 52032 81040 333 58003=
0169483040999992017012906004+19867+099767FM-12+040199999V0209999C000019999999N015000199+02721+01811101241ADDGA1011+012501081GE19AGL   +99999+99999GF101991011999012501999999MA1999999096691MD1710291+0001REMSYN06448304 32665 10000 10272 20181 39669 40124 57029 81100 333 58000=
0169483040999992017012909004+19867+099767FM-12+040199999V0201201N001519999999N015000199+02951+01721100901ADDGA1011+008001081GE19AGL   +99999+99999GF101991011999008001999999MA1999999096401MD1710291+0031REMSYN06448304 32565 11203 10295 20172 39640 40090 57029 81200 333 58003=
0144483040999992017012912004+19867+099767FM-12+040199999V0209999C000019999999N012000199+02471+01921101141ADDGF100995999999999999999999KA1240M+02971MA1999999096551MD1210151+0101REMSYN06448304 32962 00000 10247 20192 39655 40114 52015 333 10297 58010=
0125483040999992017012915004+19867+099767FM-12+040199999V0209999C000019999999N010000199+02001+01761101271ADDGF100995999999999999999999MA1999999096611MD1210051+0051REMSYN05848304 32960 00000 10200 20176 39661 40127 52005 333 58005=
0153483040999992017012918004+19867+099767FM-12+040199999V0209999C000019999999N007000199+01701+01611101411ADDAY101021AY201021GF100995999999999999999999MA1999999096691MD1210081+0121MW1101REMSYN06448304 31957 00000 10170 20161 39669 40141 52008 71000 333 58012=
0153483040999992017012921004+19867+099767FM-12+040199999V0209999C000019999999N006000199+01621+01531101371ADDAY101021AY201021GF100995999999999999999999MA1999999096641MD1710041+0101MW1101REMSYN06448304 31956 00000 10162 20153 39664 40137 57004 71000 333 58010=
0216483040999992017013000004+19867+099767FM-12+040199999V0209999C000019999999N007000199+01511+01421101511ADDAY101021AY201021GA1011+012501061GE19AGL   +99999+99999GF101991011999012501999999KA1120N+01471MA1999999096761MD1210111+0111MW1101REMSYN07648304 31657 10000 10151 20142 39676 40151 52011 71000 81500 333 20147 58011=
0169483040999992017013003004+19867+099767FM-12+040199999V0209999C000019999999N015000199+02301+01721101631ADDGA1011+012501081GE19AGL   +99999+99999GF101991011999012501999999MA1999999097001MD1210241+0011REMSYN06448304 32665 10000 10230 20172 39700 40163 52024 81100 333 58001=
0185483040999992017013006004+19867+099767FM-12+040199999V0209999C000019999999N015000199+02661+01721101271ADDGA1011+012501081GA2999+999999031GE19AGL   +99999+99999GF102991011999012501999999MA1999999096711MD1710291+0031REMSYN06448304 32665 20000 10266 20172 39671 40127 57029 81140 333 58003=
0169483040999992017013009004+19867+099767FM-12+040199999V0209999C000019999999N015000199+02961+01591100931ADDGA1011+012501081GE19AGL   +99999+99999GF101991011999012501999999MA1999999096421MD1710291+0021REMSYN06448304 32665 10000 10296 20159 39642 40093 57029 81100 333 58002=
0144483040999992017013012004+19867+099767FM-12+040199999V0209999C000019999999N012000199+02401+01911101091ADDGF100995999999999999999999KA1240M+02991MA1999999096491MD1210071-0051REMSYN06448304 32962 00000 10240 20191 39649 40109 52007 333 10299 59005=
0125483040999992017013015004+19867+099767FM-12+040199999V0209999C000019999999N012000199+01821+01581101261ADDGF100995999999999999999999MA1999999096571MD1210081-0011REMSYN05848304 32962 00000 10182 20158 39657 40126 52008 333 59001=
0153483040999992017013021004+19867+099767FM-12+040199999V0209999C000019999999N002000199+01571+01501101281ADDAY101021AY201021GF100995999999999999999999MA1999999096551MD1710061-0091MW1101REMSYN06448304 31920 00000 10157 20150 39655 40128 57006 71000 333 59009=
0235483040999992017013100004+19867+099767FM-12+040199999V0209999C000019999999N002000199+01491+01421101451ADDAY101021AY201021GA1999+999999001GE19AGL   +99999+99999GF102991001999999999999999KA1120N+01451MA1999999096701MD1210151-0061MW1101REMSYN07648304 31920 20000 10149 20142 39670 40145 52015 71000 80001 333 20145 59006=EQDQ01    003SCCGA1
0125483040999992017013103004+19867+099767FM-12+040199999V0209999C000019999999N012000199+02121+01711101571ADDGF100995999999999999999999MA1999999096911MD1210221-0061REMSYN05848304 32962 00000 10212 20171 39691 40157 52022 333 59006=
0125483040999992017013106004+19867+099767FM-12+040199999V0209999C000019999999N015000199+02741+01791101211ADDGF100995999999999999999999MA1999999096661MD1710251-0061REMSYN05848304 32965 00000 10274 20179 39666 40121 57025 333 59006=
0169483040999992017013109004+19867+099767FM-12+040199999V0201401N001519999999N015000199+02951+01701100971ADDGA1021+008001061GE19AGL   +99999+99999GF102991021999008001999999MA1999999096461MD1710201+0051REMSYN06448304 32565 21403 10295 20170 39646 40097 57020 82500 333 58005=
0144483040999992017013112004+19867+099767FM-12+040199999V0209999C000019999999N015000199+02381+01771101151ADDGF100995999999999999999999KA1240M+02981MA1999999096551MD1210091+0061REMSYN06448304 32965 00000 10238 20177 39655 40115 52009 333 10298 58006=
0125483040999992017013115004+19867+099767FM-12+040199999V0209999C000019999999N012000199+01921+01761101381ADDGF100995999999999999999999MA1999999096691MD1210141+0111REMSYN05848304 32962 00000 10192 20176 39669 40138 52014 333 58011=
0153483040999992017013118004+19867+099767FM-12+040199999V0209999C000019999999N002000199+01701+01581101411ADDAY101021AY201021GF100995999999999999999999MA1999999096701MD1410001+0091MW1101REMSYN06448304 31920 00000 10170 20158 39670 40141 54000 71000 333 58009=
0153483040999992017013121004+19867+099767FM-12+040199999V0209999C000019999999N002000199+01621+01551101421ADDAY101021AY201021GF100995999999999999999999MA1999999096691MD1410001+0141MW1101REMSYN06448304 31920 00000 10162 20155 39669 40142 54000 71000 333 58014=
0172483040999992017020100004+19867+099767FM-12+040199999V0209999C000019999999N000300199+01471+01401101621ADDAY141021AY201021GF100995999999999999999999KA1120N+01431MA1999999096861MD1210171+0171MW1461REMSYN07048304 31903 00000 10147 20140 39686 40162 52017 74640 333 20143 58017=
0153483040999992017020103004+19867+099767FM-12+040199999V0209999C000019999999N008000199+02231+01831101771ADDAY141021AY201021GF100995999999999999999999MA1999999097121MD1210261+0221MW1101REMSYN06448304 31958 00000 10223 20183 39712 40177 52026 71040 333 58022=
0153483040999992017020106004+19867+099767FM-12+040199999V0209999C000019999999N015000199+02801+01811101431ADDAY141021AY201021GF100995999999999999999999MA1999999096881MD1710241+0221MW1021REMSYN06448304 31965 00000 10280 20181 39688 40143 57024 70240 333 58022=
0169483040999992017020109004+19867+099767FM-12+040199999V0209999C000019999999N015000199+02971+01801101191ADDGA1021+008001061GE19AGL   +99999+99999GF102991021999008001999999MA1999999096671MD1710211+0211REMSYN06448304 32565 20000 10297 20180 39667 40119 57021 82500 333 58021=
0144483040999992017020112004+19867+099767FM-12+040199999V0209999C000019999999N012000199+02431+01811101331ADDGF100995999999999999999999KA1240M+02981MA1999999096731MD1210051+0171REMSYN06448304 32962 00000 10243 20181 39673 40133 52005 333 10298 58017=
0125483040999992017020115004+19867+099767FM-12+040199999V0209999C000019999999N010000199+01901+01721101581ADDGF100995999999999999999999MA1999999096891MD1210161+0201REMSYN05848304 32960 00000 10190 20172 39689 40158 52016 333 58020=
0153483040999992017020118004+19867+099767FM-12+040199999V0209999C000019999999N007000199+01801+01701101661ADDAY101021AY201021GF100995999999999999999999MA1999999096951MD1210061+0251MW1101REMSYN06448304 31957 00000 10180 20170 39695 40166 52006 71000 333 58025=
0153483040999992017020121004+19867+099767FM-12+040199999V0209999C000019999999N006000199+01621+01531101591ADDAY101021AY201021GF100995999999999999999999MA1999999096851MD1710101+0171MW1101REMSYN06448304 31956 00000 10162 20153 39685 40159 57010 71000 333 58017=
0172483040999992017020200004+19867+099767FM-12+040199999V0209999C000019999999N000500199+01461+01391101781ADDAY101021AY201021GF100995999999999999999999KA1120N+01441MA1999999097011MD1210161+0161MW1461REMSYN07048304 31905 00000 10146 20139 39701 40178 52016 74600 333 20144 58016=
0153483040999992017020203004+19867+099767FM-12+040199999V0209999C000019999999N010000199+02201+01751101891ADDAY141021AY201021GF100995999999999999999999MA1999999097231MD1210221+0121MW1021REMSYN06448304 31960 00000 10220 20175 39723 40189 52022 70240 333 58012=
0197483040999992017020206004+19867+099767FM-12+040199999V0201501N001519999999N013000199+02771+01781101481ADDAY141021AY201021GA1011+012501081GE19AGL   +99999+99999GF101991011999012501999999MA1999999096921MD1710301+0051MW1031REMSYN07048304 31663 11503 10277 20178 39692 40148 57030 70340 81100 333 58005=
0169483040999992017020209004+19867+099767FM-12+040199999V0200801N001019999999N015000199+03031+01561101131ADDGA1011+012501081GE19AGL   +99999+99999GF101991011999012501999999MA1999999096621MD1710301-0061REMSYN06448304 32665 10802 10303 20156 39662 40113 57030 81100 333 59006=
0144483040999992017020212004+19867+099767FM-12+040199999V0209999C000019999999N012000199+02461+01841101251ADDGF100995999999999999999999KA1240M+03061MA1999999096661MD1210041-0071REMSYN06448304 32962 00000 10246 20184 39666 40125 52004 333 10306 59007=
0125483040999992017020215004+19867+099767FM-12+040199999V0209999C000019999999N010000199+01851+01581101481ADDGF100995999999999999999999MA1999999096791MD1210131-0101REMSYN05848304 32960 00000 10185 20158 39679 40148 52013 333 59010=
0153483040999992017020218004+19867+099767FM-12+040199999V0209999C000019999999N008000199+01631+01531101541ADDAY101021AY201021GF100995999999999999999999MA1999999096801MD1210021-0121MW1101REMSYN06448304 31958 00000 10163 20153 39680 40154 52002 71000 333 59012=
0153483040999992017020221004+19867+099767FM-12+040199999V0209999C000019999999N006000199+01511+01421101471ADDAY101021AY201021GF100995999999999999999999MA1999999096721MD1710081-0121MW1101REMSYN06448304 31956 00000 10151 20142 39672 40147 57008 71000 333 59012=
0172483040999992017020300004+19867+099767FM-12+040199999V0209999C000019999999N002000199+01341+01281101611ADDAY101021AY201021GF100995999999999999999999KA1120N+01291MA1999999096831MD1210111-0171MW1101REMSYN07048304 31920 00000 10134 20128 39683 40161 52011 71000 333 20129 59017=
0169483040999992017020303004+19867+099767FM-12+040199999V0209999C000019999999N013000199+02061+01571101701ADDGA1011+012501081GE19AGL   +99999+99999GF101991011999012501999999MA1999999097021MD1210201-0191REMSYN06448304 32663 10000 10206 20157 39702 40170 52020 81100 333 59019=
0169483040999992017020306004+19867+099767FM-12+040199999V0201001N001019999999N015000199+02791+01801101281ADDGA1031+008001081GE19AGL   +99999+99999GF103991031999008001999999MA1999999096731MD1710291-0201REMSYN06448304 32565 31002 10279 20180 39673 40128 57029 83200 333 59020=
0169483040999992017020309004+19867+099767FM-12+040199999V0209999C000019999999N015000199+03041+01671100901ADDGA1011+012501081GE19AGL   +99999+99999GF101991011999012501999999MA1999999096411MD1710321-0221REMSYN06448304 32665 10000 10304 20167 39641 40090 57032 81100 333 59022=
0144483040999992017020312004+19867+099767FM-12+040199999V0209999C000019999999N012000199+02361+02021101061ADDGF100995999999999999999999KA1240M+03061MA1999999096461MD1210051-0191REMSYN06448304 32962 00000 10236 20202 39646 40106 52005 333 10306 59019=
0125483040999992017020315004+19867+099767FM-12+040199999V0209999C000019999999N012000199+02001+01841101331ADDGF100995999999999999999999MA1999999096661MD1210201-0161REMSYN05848304 32962 00000 10200 20184 39666 40133 52020 333 59016=
0153483040999992017020318004+19867+099767FM-12+040199999V0209999C000019999999N004000199+01721+01621101361ADDAY101021AY201021GF100995999999999999999999MA1999999096651MD1710011-0171MW1101REMSYN06448304 31940 00000 10172 20162 39665 40136 57001 71000 333 59017=
0153483040999992017020321004+19867+099767FM-12+040199999V0209999C000019999999N002000199+01561+01491101361ADDAY101021AY201021GF100995999999999999999999MA1999999096621MD1710031-0111MW1101REMSYN06448304 31920 00000 10156 20149 39662 40136 57003 71000 333 59011=
0172483040999992017020400004+19867+099767FM-12+040199999V0209999C000019999999N002000199+01381+01321101571ADDAY101021AY201021GF100995999999999999999999KA1120N+01341MA1999999096791MD1210171-0041MW1101REMSYN07048304 31920 00000 10138 20132 39679 40157 52017 71000 333 20134 59004=
0153483040999992017020403004+19867+099767FM-12+040199999V0209999C000019999999N008000199+02251+01751101611ADDAY101021AY201021GF100995999999999999999999MA1999999096971MD1210181-0081MW1101REMSYN06448304 31958 00000 10225 20175 39697 40161 52018 71000 333 59008=
0125483040999992017020406004+19867+099767FM-12+040199999V0200701N002119999999N015000199+02891+01751101171ADDGF100995999999999999999999MA1999999096651MD1710321-0101REMSYN05848304 32965 00704 10289 20175 39665 40117 57032 333 59010=
0125483040999992017020409004+19867+099767FM-12+040199999V0209999C000019999999N015000199+02901+01611100891ADDGF100995999999999999999999MA1999999096381MD1710271-0011REMSYN05848304 32965 00000 10290 20161 39638 40089 57027 333 59001=
0144483040999992017020412004+19867+099767FM-12+040199999V0209999C000019999999N015000199+02291+01651101141ADDGF100995999999999999999999KA1240M+03031MA1999999096531MD1210151+0081REMSYN06448304 32965 00000 10229 20165 39653 40114 52015 333 10303 58008=
0125483040999992017020415004+19867+099767FM-12+040199999V0209999C000019999999N012000199+01741+01531101431ADDGF100995999999999999999999MA1999999096721MD1210191+0101REMSYN05848304 32962 00000 10174 20153 39672 40143 52019 333 58010=
0153483040999992017020418004+19867+099767FM-12+040199999V0209999C000019999999N003000199+01481+01391101441ADDAY101021AY201021GF100995999999999999999999MA1999999096681MD1710041+0071MW1101REMSYN06448304 31930 00000 10148 20139 39668 40144 57004 71000 333 58007=
0153483040999992017020421004+19867+099767FM-12+040199999V0209999C000019999999N002000199+01271+01211101401ADDAY101021AY201021GF100995999999999999999999MA1999999096611MD1710071+0041MW1101REMSYN06448304 31920 00000 10127 20121 39661 40140 57007 71000 333 58004=
0172483040999992017020500004+19867+099767FM-12+040199999V0209999C000019999999N000500199+01191+01131101601ADDAY141021AY201021GF100995999999999999999999KA1120N+01141MA1999999096791MD1210181+0041MW1461REMSYN07048304 31905 00000 10119 20113 39679 40160 52018 74640 333 20114 58004=
0153483040999992017020503004+19867+099767FM-12+040199999V0209999C000019999999N015000199+02091+01551101621ADDAY141021AY201021GF100995999999999999999999MA1999999096951MD1210161+0001MW1021REMSYN06448304 31965 00000 10209 20155 39695 40162 52016 70240 333 58000=
0153483040999992017020506004+19867+099767FM-12+040199999V0209999C000019999999N015000199+02801+01401101171ADDAY141021AY201021GF100995999999999999999999MA1999999096631MD1710321+0001MW1021REMSYN06448304 31965 00000 10280 20140 39663 40117 57032 70240 333 58000=
0125483040999992017020509004+19867+099767FM-12+040199999V0201401N002619999999N015000199+03001+01321100831ADDGF100995999999999999999999MA1999999096341MD1710301-0061REMSYN05848304 32965 01405 10300 20132 39634 40083 57030 333 59006=
0144483040999992017020512004+19867+099767FM-12+040199999V0209999C000019999999N015000199+02401+01861100951ADDGF100995999999999999999999KA1240M+03071MA1999999096361MD1210021-0191REMSYN06448304 32965 00000 10240 20186 39636 40095 52002 333 10307 59019=
0125483040999992017020515004+19867+099767FM-12+040199999V0209999C000019999999N012000199+01911+01641101181ADDGF100995999999999999999999MA1999999096501MD1210151-0251REMSYN05848304 32962 00000 10191 20164 39650 40118 52015 333 59025=
0082483040999992017020518004+19867+099767FM-12+040199999V0203601N0000122000199010000199+01621+01501101241ADDAA199999999GF100991999999999999999999MA1999999096521MD1210021-0201REMSYN004BUFR
0153483040999992017020521004+19867+099767FM-12+040199999V0209999C000019999999N008000199+01431+01341101101ADDAY101021AY201021GF100995999999999999999999MA1999999096361MD1710161-0291MW1101REMSYN06448304 31958 00000 10143 20134 39636 40110 57016 71000 333 59029=
0172483040999992017020600004+19867+099767FM-12+040199999V0209999C000019999999N006000199+01211+01111101221ADDAY101021AY201021GF100995999999999999999999KA1120N+01151MA1999999096431MD1210081-0381MW1101REMSYN07048304 31956 00000 10121 20111 39643 40122 52008 71000 333 20115 59038=
0125483040999992017020603004+19867+099767FM-12+040199999V0209999C000019999999N010000199+02061+01651101351ADDGF100995999999999999999999MA1999999096691MD1210261-0271REMSYN05848304 32960 00000 10206 20165 39669 40135 52026 333 59027=
0125483040999992017020606004+19867+099767FM-12+040199999V0202601N001019999999N015000199+02811+01491100931ADDGF100995999999999999999999MA1999999096401MD1710291-0241REMSYN05848304 32965 02602 10281 20149 39640 40093 57029 333 59024=
0125483040999992017020609004+19867+099767FM-12+040199999V0202701N001019999999N015000199+03111+01481100571ADDGF100995999999999999999999MA1999999096101MD1710301-0261REMSYN05848304 32965 02702 10311 20148 39610 40057 57030 333 59026=
0144483040999992017020612004+19867+099767FM-12+040199999V0209999C000019999999N012000199+02501+01871100741ADDGF100995999999999999999999KA1240M+03141MA1999999096181MD1210081-0201REMSYN06448304 32962 00000 10250 20187 39618 40074 52008 333 10314 59020=
0125483040999992017020615004+19867+099767FM-12+040199999V0209999C000019999999N012000199+01901+01651101001ADDGF100995999999999999999999MA1999999096331MD1210151-0181REMSYN05848304 32962 00000 10190 20165 39633 40100 52015 333 59018=
0125483040999992017020618004+19867+099767FM-12+040199999V0209999C000019999999N010000199+01701+01581101031ADDGF100995999999999999999999MA1999999096331MD1610011-0211REMSYN05848304 32960 00000 10170 20158 39633 40103 56001 333 59021=
0153483040999992017020621004+19867+099767FM-12+040199999V0209999C000019999999N006000199+01501+01411101031ADDAY101021AY201021GF100995999999999999999999MA1999999096301MD1610031-0071MW1101REMSYN06448304 31956 00000 10150 20141 39630 40103 56003 71000 333 59007=
0172483040999992017020700004+19867+099767FM-12+040199999V0209999C000019999999N006000199+01361+01271101191ADDAY101021AY201021GF100995999999999999999999KA1120N+01311MA1999999096431MD1210131-0031MW1101REMSYN07048304 31956 00000 10136 20127 39643 40119 52013 71000 333 20131 59003=
0125483040999992017020703004+19867+099767FM-12+040199999V0209999C000019999999N010000199+02121+01551101291ADDGF100995999999999999999999MA1999999096641MD1210221-0061REMSYN05848304 32960 00000 10212 20155 39664 40129 52022 333 59006=
0125483040999992017020706004+19867+099767FM-12+040199999V0201301N001019999999N015000199+02761+01611100911ADDGF100995999999999999999999MA1999999096381MD1710271-0021REMSYN05848304 32965 01302 10276 20161 39638 40091 57027 333 59002=
0125483040999992017020709004+19867+099767FM-12+040199999V0202101N001519999999N015000199+03061+01521100601ADDGF100995999999999999999999MA1999999096121MD1710251+0031REMSYN05848304 32965 02103 10306 20152 39612 40060 57025 333 58003=
0144483040999992017020712004+19867+099767FM-12+040199999V0209999C000019999999N015000199+02381+01771100831ADDGF100995999999999999999999KA1240M+03121MA1999999096251MD1210121+0091REMSYN06448304 32965 00000 10238 20177 39625 40083 52012 333 10312 58009=
0125483040999992017020715004+19867+099767FM-12+040199999V0209999C000019999999N012000199+01861+01641101001ADDGF100995999999999999999999MA1999999096321MD1210081+0001REMSYN05848304 32962 00000 10186 20164 39632 40100 52008 333 58000=
0125483040999992017020718004+19867+099767FM-12+040199999V0209999C000019999999N010000199+01601+01511101061ADDGF100995999999999999999999MA1999999096351MD1990021+0041REMSYN05848304 32960 00000 10160 20151 39635 40106 50002 333 58004=
0153483040999992017020721004+19867+099767FM-12+040199999V0209999C000019999999N002000199+01431+01361101051ADDAY101021AY201021GF100995999999999999999999MA1999999096311MD1710041+0021MW1101REMSYN06448304 31920 00000 10143 20136 39631 40105 57004 71000 333 58002=
0172483040999992017020800004+19867+099767FM-12+040199999V0209999C000019999999N002000199+01351+01291101281ADDAY101021AY201021GF100995999999999999999999KA1120N+01291MA1999999096521MD1210211+0091MW1101REMSYN07048304 31920 00000 10135 20129 39652 40128 52021 71000 333 20129 58009=
0125483040999992017020803004+19867+099767FM-12+040199999V0209999C000019999999N012000199+02161+01701101431ADDGF100995999999999999999999MA1999999096791MD1210271+0141REMSYN05848304 32962 00000 10216 20170 39679 40143 52027 333 58014=
0125483040999992017020806004+19867+099767FM-12+040199999V0209999C000019999999N015000199+02901+01511101081ADDGF100995999999999999999999MA1999999096561MD1710231+0171REMSYN05848304 32965 00000 10290 20151 39656 40108 57023 333 58017=
0125483040999992017020809004+19867+099767FM-12+040199999V0209999C000019999999N015000199+03051+01111100741ADDGF100995999999999999999999MA1999999096261MD1710301+0141REMSYN05848304 32965 00000 10305 20111 39626 40074 57030 333 58014=
0144483040999992017020812004+19867+099767FM-12+040199999V0209999C000019999999N015000199+02351+01771100921ADDGF100995999999999999999999KA1240M+03101MA1999999096331MD1210071+0091REMSYN06448304 32965 00000 10235 20177 39633 40092 52007 333 10310 58009=
0125483040999992017020815004+19867+099767FM-12+040199999V0209999C000019999999N015000199+01781+01591101161ADDGF100995999999999999999999MA1999999096471MD1210141+0161REMSYN05848304 32965 00000 10178 20159 39647 40116 52014 333 58016=
0125483040999992017020818004+19867+099767FM-12+040199999V0209999C000019999999N010000199+01541+01431101211ADDGF100995999999999999999999MA1999999096481MD1210011+0151REMSYN05848304 32960 00000 10154 20143 39648 40121 52001 333 58015=
0153483040999992017020821004+19867+099767FM-12+040199999V0209999C000019999999N002000199+01351+01291101231ADDAY101021AY201021GF100995999999999999999999MA1999999096461MD1710021+0171MW1101REMSYN06448304 31920 00000 10135 20129 39646 40123 57002 71000 333 58017=
0172483040999992017020900004+19867+099767FM-12+040199999V0209999C000019999999N002000199+01261+01201101411ADDAY101021AY201021GF100995999999999999999999KA1120N+01231MA1999999096621MD1210161+0131MW1101REMSYN07048304 31920 00000 10126 20120 39662 40141 52016 71000 333 20123 58013=
0125483040999992017020903004+19867+099767FM-12+040199999V0209999C000019999999N015000199+02121+01591101491ADDGF100995999999999999999999MA1999999096831MD1210211+0061REMSYN05848304 32965 00000 10212 20159 39683 40149 52021 333 58006=
0125483040999992017020906004+19867+099767FM-12+040199999V0201001N002119999999N015000199+02801+01581101081ADDGF100995999999999999999999MA1999999096551MD1710291+0001REMSYN05848304 32965 01004 10280 20158 39655 40108 57029 333 58000=
0125483040999992017020909004+19867+099767FM-12+040199999V0209999C000019999999N015000199+03071+01401100741ADDGF100995999999999999999999MA1999999096261MD1710281+0001REMSYN05848304 32965 00000 10307 20140 39626 40074 57028 333 58000=
0144483040999992017020912004+19867+099767FM-12+040199999V0209999C000019999999N015000199+02401+01761100871ADDGF100995999999999999999999KA1240M+03091MA1999999096291MD1210021-0051REMSYN06448304 32965 00000 10240 20176 39629 40087 52002 333 10309 59005=
0125483040999992017020915004+19867+099767FM-12+040199999V0209999C000019999999N012000199+01921+01721101181ADDGF100995999999999999999999MA1999999096511MD1210221+0021REMSYN05848304 32962 00000 10192 20172 39651 40118 52022 333 58002=
0125483040999992017020918004+19867+099767FM-12+040199999V0209999C000019999999N010000199+01771+01621101281ADDGF100995999999999999999999MA1999999096581MD1210071+0071REMSYN05848304 32960 00000 10177 20162 39658 40128 52007 333 58007=
0153483040999992017020921004+19867+099767FM-12+040199999V0209999C000019999999N007000199+01651+01561101241ADDAY101021AY201021GF100995999999999999999999MA1999999096531MD1710051+0021MW1101REMSYN06448304 31957 00000 10165 20156 39653 40124 57005 71000 333 58002=
0172483040999992017021000004+19867+099767FM-12+040199999V0209999C000019999999N006000199+01461+01371101371ADDAY101021AY201021GF100995999999999999999999KA1120N+01411MA1999999096621MD1210091-0041MW1101REMSYN07048304 31956 00000 10146 20137 39662 40137 52009 71000 333 20141 59004=
0153483040999992017021003004+19867+099767FM-12+040199999V0209999C000019999999N008000199+02121+01691101521ADDAY101021AY201021GF100995999999999999999999MA1999999096861MD1210241+0031MW1101REMSYN06448304 31958 00000 10212 20169 39686 40152 52024 71000 333 58003=
0197483040999992017021006004+19867+099767FM-12+040199999V0209999C000019999999N008000199+02891+01831101061ADDAY101021AY201021GA1011+012501081GE19AGL   +99999+99999GF101991011999012501999999MA1999999096541MD1710321-0021MW1051REMSYN07048304 31658 10000 10289 20183 39654 40106 57032 70500 81100 333 59002=
0153483040999992017021009004+19867+099767FM-12+040199999V0202101N001519999999N009000199+03121+01581100761ADDAY101021AY201021GF100995999999999999999999MA1999999096281MD1710261+0011MW1051REMSYN06448304 31959 02103 10312 20158 39628 40076 57026 70500 333 58001=
0172483040999992017021012004+19867+099767FM-12+040199999V0209999C000019999999N007000199+02601+01831100971ADDAY101021AY201021GF100995999999999999999999KA1240M+03171MA1999999096411MD1210131+0101MW1051REMSYN07048304 31957 00000 10260 20183 39641 40097 52013 70500 333 10317 58010=
0153483040999992017021015004+19867+099767FM-12+040199999V0209999C000019999999N007000199+02031+01821101261ADDAY101021AY201021GF100995999999999999999999MA1999999096601MD1210191+0081MW1101REMSYN06448304 31957 00000 10203 20182 39660 40126 52019 71000 333 58008=
0153483040999992017021018004+19867+099767FM-12+040199999V0209999C000019999999N006000199+01701+01601101371ADDAY101021AY201021GF100995999999999999999999MA1999999096651MD1210051+0091MW1101REMSYN06448304 31956 00000 10170 20160 39665 40137 52005 71000 333 58009=
0153483040999992017021021004+19867+099767FM-12+040199999V0209999C000019999999N006000199+01641+01551101371ADDAY101021AY201021GF100995999999999999999999MA1999999096641MD1710011+0121MW1101REMSYN06448304 31956 00000 10164 20155 39664 40137 57001 71000 333 58012=
0172483040999992017021100004+19867+099767FM-12+040199999V0209999C000019999999N005000199+01581+01511101641ADDAY101021AY201021GF100995999999999999999999KA1120N+01551MA1999999096891MD1210251+0271MW1101REMSYN07048304 31950 00000 10158 20151 39689 40164 52025 71000 333 20155 58027=
0153483040999992017021103004+19867+099767FM-12+040199999V0209999C000019999999N007000199+02251+01851101771ADDAY101021AY201021GF100995999999999999999999MA1999999097121MD1210231+0261MW1101REMSYN06448304 31957 00000 10225 20185 39712 40177 52023 71000 333 58026=
0153483040999992017021106004+19867+099767FM-12+040199999V0201001N001019999999N007000199+02861+01811101441ADDAY101021AY201021GF100995999999999999999999MA1999999096901MD1710221+0381MW1051REMSYN06448304 31957 01002 10286 20181 39690 40144 57022 70500 333 58038=
0197483040999992017021109004+19867+099767FM-12+040199999V0209999C000019999999N007000199+02981+01791101141ADDAY101021AY201021GA1021+008001081GE19AGL   +99999+99999GF102991021999008001999999MA1999999096631MD1710271+0391MW1051REMSYN07048304 31557 20000 10298 20179 39663 40114 57027 70500 82200 333 58039=
0172483040999992017021112004+19867+099767FM-12+040199999V0209999C000019999999N006000199+02501+01991101341ADDAY101021AY201021GF100995999999999999999999KA1240M+03051MA1999999096751MD1210111+0371MW1101REMSYN07048304 31956 00000 10250 20199 39675 40134 52011 71000 333 10305 58037=
0197483040999992017021115004+19867+099767FM-12+040199999V0209999C000019999999N004000199+02171+02001101611ADDAY101021AY201021GA1021+008001061GE19AGL   +99999+99999GF102991021999008001999999MA1999999096961MD1210211+0351MW1101REMSYN07048304 31540 20000 10217 20200 39696 40161 52021 71000 82500 333 58035=
0153483040999992017021118004+19867+099767FM-12+040199999V0209999C000019999999N002000199+01881+01781101691ADDAY101021AY201021GF100995999999999999999999MA1999999096991MD1990031+0321MW1101REMSYN06448304 31920 00000 10188 20178 39699 40169 50003 71000 333 58032=
0153483040999992017021121004+19867+099767FM-12+040199999V0209999C000019999999N002000199+01731+01661101711ADDAY101021AY201021GF100995999999999999999999MA1999999096981MD1410001+0341MW1101REMSYN06448304 31920 00000 10173 20166 39698 40171 54000 71000 333 58034=
0248483040999992017021200004+19867+099767FM-12+040199999V0209999C000019999999N002000199+01801+01731101891ADDAY121021AY221021GA1041+008001061GA2999+999999031GA3999+999999021GE19AGL   +99999+99999GF108991041999008001999999KA1120N+01621MA1999999097171MD1210181+0251MW1101REMSYN07648304 31520 80000 10180 20173 39717 40189 52018 71022 84556 333 20162 58025=
0229483040999992017021203004+19867+099767FM-12+040199999V0201401N002119999999N006000199+02321+01811102091ADDAY121021AY221021GA1031+008001061GA2999+999999031GA3999+999999021GE19AGL   +99999+99999GF106991031999008001999999MA1999999097441MD1210271+0321MW1101REMSYN07048304 31556 61404 10232 20181 39744 40209 52027 71022 83556 333 58032=
0197483040999992017021206004+19867+099767FM-12+040199999V0202701N001519999999N006000199+02781+01691101691ADDAY121021AY221021GA1031+008001061GE19AGL   +99999+99999GF103991031999008001999999MA1999999097131MD1710311+0251MW1051REMSYN07048304 31556 32703 10278 20169 39713 40169 57031 70522 83500 333 58025=
0197483040999992017021209004+19867+099767FM-12+040199999V0209999C000019999999N008000199+02801+01481101481ADDAY111021AY211021GA1031+008001061GE19AGL   +99999+99999GF103991031999008001999999MA1999999096931MD1710201+0331MW1051REMSYN07048304 31558 30000 10280 20148 39693 40148 57020 70511 83500 333 58033=
0172483040999992017021212004+19867+099767FM-12+040199999V0209999C000019999999N004000199+02281+01801101571ADDAY111021AY211021GF100995999999999999999999KA1240M+02821MA1999999096941MD1210011+0231MW1101REMSYN07048304 31940 00000 10228 20180 39694 40157 52001 71011 333 10282 58023=
0153483040999992017021215004+19867+099767FM-12+040199999V0209999C000019999999N003000199+02011+01821101851ADDAY101021AY201021GF100995999999999999999999MA1999999097161MD1210231+0241MW1101REMSYN06448304 31930 00000 10201 20182 39716 40185 52023 71000 333 58024=
0153483040999992017021218004+19867+099767FM-12+040199999V0209999C000019999999N003000199+01761+01661101951ADDAY101021AY201021GF100995999999999999999999MA1999999097221MD1990051+0261MW1101REMSYN06448304 31930 00000 10176 20166 39722 40195 50005 71000 333 58026=
0153483040999992017021221004+19867+099767FM-12+040199999V0209999C000019999999N002000199+01641+01571101931ADDAY101021AY201021GF100995999999999999999999MA1999999097181MD1710041+0221MW1101REMSYN06448304 31920 00000 10164 20157 39718 40193 57004 71000 333 58022=
0232483040999992017021300004+19867+099767FM-12+040199999V0209999C000019999999N002000199+01651+01621102111ADDAY121021AY221021GA1061+999999031GA2999+999999021GE19AGL   +99999+99999GF108991061999999999999999KA1120N+01611MA1999999097351MD1210181+0221MW1101REMSYN07648304 31920 80000 10165 20162 39735 40211 52018 71022 86046 333 20161 58022=
0197483040999992017021303004+19867+099767FM-12+040199999V0209999C000019999999N008000199+02251+01681102261ADDAY111021AY211021GA1031+999999031GE19AGL   +99999+99999GF103991031999999999999999MA1999999097591MD1210231+0171MW1101REMSYN07048304 31958 30000 10225 20168 39759 40226 52023 71011 83040 333 58017=
0197483040999992017021306004+19867+099767FM-12+040199999V0200801N001519999999N008000199+02621+01491101881ADDAY111021AY211021GA1021+008001061GE19AGL   +99999+99999GF102991021999008001999999MA1999999097291MD1710301+0191MW1051REMSYN07048304 31558 20803 10262 20149 39729 40188 57030 70511 82500 333 58019=
0197483040999992017021309004+19867+099767FM-12+040199999V0209999C000019999999N008000199+02771+01741101531ADDAY101021AY201021GA1021+008001061GE19AGL   +99999+99999GF102991021999008001999999MA1999999096971MD1710321+0051MW1051REMSYN07048304 31558 20000 10277 20174 39697 40153 57032 70500 82500 333 58005=
0216483040999992017021312004+19867+099767FM-12+040199999V0209999C000019999999N006000199+02361+01731101651ADDAY101021AY201021GA1021+008001061GE19AGL   +99999+99999GF102991021999008001999999KA1240M+02801MA1999999097031MD1210061+0081MW1101REMSYN07648304 31556 20000 10236 20173 39703 40165 52006 71000 82500 333 10280 58008=
0153483040999992017021315004+19867+099767FM-12+040199999V0209999C000019999999N005000199+01961+01751101971ADDAY101021AY201021GF100995999999999999999999MA1999999097271MD1210241+0121MW1101REMSYN06448304 31950 00000 10196 20175 39727 40197 52024 71000 333 58012=
0153483040999992017021318004+19867+099767FM-12+040199999V0209999C000019999999N004000199+01801+01681102071ADDAY101021AY201021GF100995999999999999999999MA1999999097331MD1210061+0111MW1101REMSYN06448304 31940 00000 10180 20168 39733 40207 52006 71000 333 58011=
0153483040999992017021321004+19867+099767FM-12+040199999V0209999C000019999999N004000199+01501+01411102001ADDAY101021AY201021GF100995999999999999999999MA1999999097231MD1710111+0081MW1101REMSYN06448304 31940 00000 10150 20141 39723 40200 57011 71000 333 58008=
0172483040999992017021400004+19867+099767FM-12+040199999V0209999C00001001201CN000500199+01641+01571102151ADDAY101021AY201021GF109991999999999999999999KA1120N+01641MA1999999097391MD1210181+0041MW1471REMSYN07048304 31/05 90000 10164 20157 39739 40215 52018 74700 333 20164 58004=
0197483040999992017021403004+19867+099767FM-12+040199999V0209999C000019999999N003000199+02141+01821102261ADDAY141021AY241021GA1011+012501081GE19AGL   +99999+99999GF101991011999012501999999MA1999999097571MD1210181+0001MW1101REMSYN07048304 31630 10000 10214 20182 39757 40226 52018 71044 81100 333 58000=
0197483040999992017021406004+19867+099767FM-12+040199999V0201401N001019999999N006000199+02711+01611101941ADDAY141021AY241021GA1011+012501081GE19AGL   +99999+99999GF101991011999012501999999MA1999999097351MD1710221+0061MW1051REMSYN07048304 31656 11402 10271 20161 39735 40194 57022 70544 81100 333 58006=
0153483040999992017021409004+19867+099767FM-12+040199999V0209999C000019999999N007000199+02841+01511101621ADDAY101021AY201021GF100995999999999999999999MA1999999097071MD1710291+0101MW1051REMSYN06448304 31957 00000 10284 20151 39707 40162 57029 70500 333 58010=
0172483040999992017021412004+19867+099767FM-12+040199999V0209999C000019999999N005000199+02451+01781101751ADDAY101021AY201021GF100995999999999999999999KA1240M+02861MA1999999097131MD1210061+0091MW1101REMSYN07048304 31950 00000 10245 20178 39713 40175 52006 71000 333 10286 58009=
0153483040999992017021415004+19867+099767FM-12+040199999V0209999C000019999999N005000199+02001+01811102021ADDAY101021AY201021GF100995999999999999999999MA1999999097331MD1210191+0051MW1101REMSYN06448304 31950 00000 10200 20181 39733 40202 52019 71000 333 58005=
