0189527870999992017010100004+37200+102867FM-12+304499999V0203601N011019999999N030000199-00791-02171999999ADDGA1071+017501999GE19AGL   +99999+99999GF107991071999017501999999MA1999999070241MD1210121+9999OD139901801360REMSYN07052787 32780 73611 11079 21217 37024 52012 87/// 333 05103 91118 91536=
0183527870999992017010103004+37200+102867FM-12+304499999V0203401N007019999999N030000199-00701-02091999999ADDGA1071+999999999GE19AGL   +99999+99999GF107991071999999999999999MA1999999070401MD1210161+9999OD139901801360REMSYN06452787 32980 73407 11070 21209 37040 52016 87/// 333 91118 91536=
0182527870999992017010106004+37200+102867FM-12+304499999V0203201N002019999999N028000199-00221-02211999999ADDGA1071+999999999GE19AGL   +99999+99999GF107991071999999999999999KA1240N-01201MA1999999070261MD1710141+9999REMSYN06452787 32978 73202 11022 21221 37026 57014 87/// 333 00051 21120=
0163527870999992017010109004+37200+102867FM-12+304499999V0201601N006019999999N029000199-00441-01931999999ADDGA1071+999999999GE19AGL   +99999+99999GF107991071999999999999999MA1999999070341MD1210081+9999REMSYN05852787 32979 71606 11044 21193 37034 52008 87/// 333 00252=
0163527870999992017010112004+37200+102867FM-12+304499999V0201601N004019999999N029000199-01021-02011999999ADDGA1031+999999999GE19AGL   +99999+99999GF103991031999999999999999MA1999999070421MD1210081+9999REMSYN05852787 32979 31604 11102 21201 37042 52008 83/// 333 00252=
0138527870999992017010118004+37200+102867FM-12+304499999V0202001N00201002401CN030000199-00621-01911999999ADDGF109991999999999999999999KA1120M-00171MA1999999070381MD1710041+9999REMSYN05852787 32/80 92002 11062 21191 37038 57004 333 00204 11017=
0119527870999992017010121004+37200+102867FM-12+304499999V0203201N00401002401CN030000199-00761-02141999999ADDGF109991999999999999999999MA1999999070351MD1710031+9999REMSYN05252787 32/80 93204 11076 21214 37035 57003 333 00251=
0119527870999992017010200004+37200+102867FM-12+304499999V0203401N004019999999N030000199-00721-02481999999ADDGF100995999999999999999999MA1999999070421MD1210071+9999REMSYN05252787 32980 03404 11072 21248 37042 52007 333 00201=
0153527870999992017010203004+37200+102867FM-12+304499999V0203201N006019999999N029000199-00351-02261999999ADDGA1021+999999999GE19AGL   +99999+99999GF102991021999999999999999MA1999999070561MD1210141+9999REMSYN04852787 32979 23206 11035 21226 37056 52014 82///=
0182527870999992017010206004+37200+102867FM-12+304499999V0201601N005019999999N029000199+00001-02601999999ADDGA1071+999999999GE19AGL   +99999+99999GF107991071999999999999999KA1240N-01131MA1999999070431MD1710131+9999REMSYN06452787 32979 71605 10000 21260 37043 57013 87/// 333 00202 21113=
0163527870999992017010209004+37200+102867FM-12+304499999V0201601N004019999999N029000199-00161-02281999999ADDGA1071+999999999GE19AGL   +99999+99999GF107991071999999999999999MA1999999070471MD1210041+9999REMSYN05852787 32979 71604 11016 21228 37047 52004 87/// 333 00103=
0163527870999992017010212004+37200+102867FM-12+304499999V0201401N008019999999N027000199-00561-02081999999ADDGA1021+999999999GE19AGL   +99999+99999GF102991021999999999999999MA1999999070541MD1210071+9999REMSYN05852787 32977 21408 11056 21208 37054 52007 82/// 333 00105=
0138527870999992017010218004+37200+102867FM-12+304499999V0201601N00401002401CN030000199-01091-01941999999ADDGF109991999999999999999999KA1120M+00141MA1999999070441MD1710101+9999REMSYN05852787 32/80 91604 11109 21194 37044 57010 333 00155 10014=
0119527870999992017010221004+37200+102867FM-12+304499999V0201401N00501002401CN030000199-00971-02191999999ADDGF109991999999999999999999MA1999999070311MD1710131+9999REMSYN05252787 32/80 91405 11097 21219 37031 57013 333 00052=
0163527870999992017010300004+37200+102867FM-12+304499999V0201601N004019999999N030000199-00861-02031999999ADDGA1071+999999999GE19AGL   +99999+99999GF107991071999999999999999MA1999999070251MD1710061+9999REMSYN05852787 32980 71604 11086 21203 37025 57006 87/// 333 05251=
0109527870999992017010303004+37200+102867FM-12+304499999V0201401N004019999999N027000199-00111-01491999999ADDGF100995999999999999999999MA1999999070241MD1710011+9999REMSYN04252787 32977 01404 11011 21149 37024 57001=
0138527870999992017010306004+37200+102867FM-12+304499999V0201601N005019999999N024000199+00261-01491999999ADDGF100995999999999999999999KA1240N-01111MA1999999070001MD1710241+9999REMSYN05852787 32974 01605 10026 21149 37000 57024 333 05403 21111=
0119527870999992017010309004+37200+102867FM-12+304499999V0203201N005019999999N029000199+00001-02021999999ADDGF100995999999999999999999MA1999999070011MD1210011+9999REMSYN05252787 32979 03205 10000 21202 37001 52001 333 05502=
0119527870999992017010312004+37200+102867FM-12+304499999V0201401N002019999999N029000199-00421-01731999999ADDGF100995999999999999999999MA1999999070121MD1210111+9999REMSYN05252787 32979 01402 11042 21173 37012 52011 333 05401=
0138527870999992017010318004+37200+102867FM-12+304499999V0201401N00201002401CN030000199-00541-01651999999ADDGF109991999999999999999999KA1120M+00421MA1999999070041MD1710071+9999REMSYN05852787 32/80 91402 11054 21165 37004 57007 333 05406 10042=
0119527870999992017010321004+37200+102867FM-12+304499999V0201601N00201002401CN030000199-00441-01561999999ADDGF109991999999999999999999MA1999999070001MD1710041+9999REMSYN05252787 32/80 91602 11044 21156 37000 57004 333 05305=
0163527870999992017010400004+37200+102867FM-12+304499999V0202701N008019999999N030000199-00271-01821999999ADDGA1021+999999999GE19AGL   +99999+99999GF102991021999999999999999MA1999999070011MD1210011+9999REMSYN05852787 32980 22708 11027 21182 37001 52001 82/// 333 05206=
0109527870999992017010403004+37200+102867FM-12+304499999V0203201N006019999999N029000199+00111-01991999999ADDGF100995999999999999999999MA1999999070111MD1210101+9999REMSYN04252787 32979 03206 10011 21199 37011 52010=
0138527870999992017010406004+37200+102867FM-12+304499999V0202901N009019999999N027000199+00331-02441999999ADDGF100995999999999999999999KA1240N-00701MA1999999069891MD1710221+9999REMSYN05852787 32977 02909 10033 21244 36989 57022 333 05101 21070=
0163527870999992017010409004+37200+102867FM-12+304499999V0203201N008019999999N028000199+00231-02241999999ADDGA1051+012501999GE19AGL   +99999+99999GF105991051999012501999999MA1999999069941MD1210051+9999REMSYN05852787 32678 53208 10023 21224 36994 52005 85/// 333 05102=
0119527870999992017010412004+37200+102867FM-12+304499999V0203201N003019999999N030000199-00361-02271999999ADDGF100995999999999999999999MA1999999070111MD1210171+9999REMSYN05252787 32980 03203 11036 21227 37011 52017 333 00001=
0138527870999992017010418004+37200+102867FM-12+304499999V0201601N00201002401CN030000199-00471-02311999999ADDGF109991999999999999999999KA1120M+00421MA1999999070101MD1710021+9999REMSYN05852787 32/80 91602 11047 21231 37010 57002 333 00101 10042=
0119527870999992017010421004+37200+102867FM-12+304499999V0201601N00301002401CN029000199-00691-02271999999ADDGF109991999999999999999999MA1999999070061MD1710041+9999REMSYN05252787 32/79 91603 11069 21227 37006 57004 333 00153=
0119527870999992017010500004+37200+102867FM-12+304499999V0201601N003019999999N030000199-00581-02361999999ADDGF100995999999999999999999MA1999999070011MD1710051+9999REMSYN05252787 32980 01603 11058 21236 37001 57005 333 00053=
0153527870999992017010503004+37200+102867FM-12+304499999V0201801N009019999999N029000199+00011-02351999999ADDGA1021+999999999GE19AGL   +99999+99999GF102991021999999999999999MA1999999070001MD1710011+9999REMSYN04852787 32979 21809 10001 21235 37000 57001 82///=
0138527870999992017010506004+37200+102867FM-12+304499999V0201401N011019999999N029000199+00371-02401999999ADDGF100995999999999999999999KA1240N-00771MA1999999069781MD1710221+9999REMSYN05852787 32979 01411 10037 21240 36978 57022 333 05100 21077=
0119527870999992017010509004+37200+102867FM-12+304499999V0201401N011019999999N024000199+00251-02601999999ADDGF100995999999999999999999MA1999999069811MD1210031+9999REMSYN05252787 32974 01411 10025 21260 36981 52003 333 05100=
0119527870999992017010512004+37200+102867FM-12+304499999V0202901N006019999999N030000199-01412-01811999999ADDGF100995999999999999999999MA1999999069981MD1210171+9999REMSYN05252787 32980 02906 11141 21181 36998 52017 333 05161=
0138527870999992017010518004+37200+102867FM-12+304499999V0203201N00601002401CN030000199-01261-01831999999ADDGF109991999999999999999999KA1120M+00501MA1999999069971MD1710041+9999REMSYN05852787 32/80 93206 11126 21183 36997 57004 333 05158 10050=
0119527870999992017010521004+37200+102867FM-12+304499999V0203201N00401002401CN030000199-01281-01931999999ADDGF109991999999999999999999MA1999999069931MD1710041+9999REMSYN05252787 32/80 93204 11128 21193 36993 57004 333 05156=
0163527870999992017010600004+37200+102867FM-12+304499999V0203201N003019999999N030000199-01291-01961999999ADDGA1021+999999999GE19AGL   +99999+99999GF102991021999999999999999MA1999999069961MD1210031+9999REMSYN05852787 32980 23203 11129 21196 36996 52003 82/// 333 05157=
0153527870999992017010603004+37200+102867FM-12+304499999V0203401N005019999999N029000199-00821-01771999999ADDGA1021+999999999GE19AGL   +99999+99999GF102991021999999999999999MA1999999070061MD1210101+9999REMSYN04852787 32979 23405 11082 21177 37006 52010 82///=
0138527870999992017010606004+37200+102867FM-12+304499999V0200201N008019999999N029000199-00561-01931999999ADDGF100995999999999999999999KA1240N-01571MA1999999069921MD1710141+9999REMSYN05852787 32979 00208 11056 21193 36992 57014 333 00159 21157=
0119527870999992017010609004+37200+102867FM-12+304499999V0203401N010019999999N029000199-00951-01841999999ADDGF100995999999999999999999MA1999999069981MD1210061+9999REMSYN05252787 32979 03410 11095 21184 36998 52006 333 00262=
0163527870999992017010612004+37200+102867FM-12+304499999V0203401N008019999999N030000199-01461-01911999999ADDGA1021+999999999GE19AGL   +99999+99999GF102991021999999999999999MA1999999070121MD1210141+9999REMSYN05852787 32980 23408 11146 21191 37012 52014 82/// 333 00151=
0138527870999992017010618004+37200+102867FM-12+304499999V0201601N00301002401CN030000199-01551-01881999999ADDGF109991999999999999999999KA1120M-00421MA1999999070031MD1710111+9999REMSYN05852787 32/80 91603 11155 21188 37003 57011 333 00153 11042=
0119527870999992017010621004+37200+102867FM-12+304499999V0201601N00401002401CN030000199-01441-01791999999ADDGF109991999999999999999999MA1999999069881MD1710151+9999REMSYN05252787 32/80 91604 11144 21179 36988 57015 333 05152=
0163527870999992017010700004+37200+102867FM-12+304499999V0202001N007019999999N030000199-01361-01681999999ADDGA1021+999999999GE19AGL   +99999+99999GF102991021999999999999999MA1999999069871MD1710011+9999REMSYN05852787 32980 22007 11136 21168 36987 57001 82/// 333 05151=
0153527870999992017010703004+37200+102867FM-12+304499999V0203201N006019999999N030000199-01381-01661999999ADDGA1071+017501999GE19AGL   +99999+99999GF107991071999017501999999MA1999999069961MD1210091+9999REMSYN04852787 32780 73206 11138 21166 36996 52009 87///=
0182527870999992017010706004+37200+102867FM-12+304499999V0201801N005019999999N026000199-00601-01571999999ADDGA1071+999999999GE19AGL   +99999+99999GF107991071999999999999999KA1240N-01581MA1999999069791MD1710171+9999REMSYN06452787 32976 71805 11060 21157 36979 57017 87/// 333 05100 21158=
0163527870999992017010709004+37200+102867FM-12+304499999V0203201N004019999999N028000199-00831-01731999999ADDGA1061+999999999GE19AGL   +99999+99999GF106991061999999999999999MA1999999069841MD1210051+9999REMSYN05852787 32978 63204 11083 21173 36984 52005 86/// 333 05101=
0163527870999992017010712004+37200+102867FM-12+304499999V0202901N002019999999N030000199-01221-01791999999ADDGA1031+999999999GE19AGL   +99999+99999GF103991031999999999999999MA1999999070001MD1210161+9999REMSYN05852787 32980 32902 11122 21179 37000 52016 83/// 333 05102=
0138527870999992017010718004+37200+102867FM-12+304499999V0202901N00301002401CN030000199-01561-01941999999ADDGF109991999999999999999999KA1120M-00501MA1999999070001MD1710031+9999REMSYN05852787 32/80 92903 11156 21194 37000 57003 333 00000 11050=
0119527870999992017010721004+37200+102867FM-12+304499999V0203201N00201002401CN030000199-01641-01991999999ADDGF109991999999999999999999MA1999999069921MD1710081+9999REMSYN05252787 32/80 93202 11164 21199 36992 57008 333 00052=
0163527870999992017010800004+37200+102867FM-12+304499999V0203201N005019999999N030000199-01751-02001999999ADDGA1071+999999999GE19AGL   +99999+99999GF107991071999999999999999MA1999999070001MD1210081+9999REMSYN05852787 32980 73205 11175 21200 37000 52008 87/// 333 00154=
0153527870999992017010803004+37200+102867FM-12+304499999V0203201N004019999999N030000199-01411-01731999999ADDGA1071+999999999GE19AGL   +99999+99999GF107991071999999999999999MA1999999070051MD1210051+9999REMSYN04852787 32980 73204 11141 21173 37005 52005 87///=
0182527870999992017010806004+37200+102867FM-12+304499999V0203401N006019999999N029000199-00981-01731999999ADDGA1071+999999999GE19AGL   +99999+99999GF107991071999999999999999KA1240N-01851MA1999999069831MD1710221+9999REMSYN06452787 32979 73406 11098 21173 36983 57022 87/// 333 00054 21185=
0163527870999992017010809004+37200+102867FM-12+304499999V0203401N008019999999N030000199-01291-01781999999ADDGA1071+999999999GE19AGL   +99999+99999GF107991071999999999999999MA1999999069851MD1210021+9999REMSYN05852787 32980 73408 11129 21178 36985 52002 87/// 333 00055=
0163527870999992017010812004+37200+102867FM-12+304499999V0203201N004019999999N030000199-01671-01811999999ADDGA1071+017501999GE19AGL   +99999+99999GF107991071999017501999999MA1999999070031MD1210181+9999REMSYN05852787 32780 73204 11167 21181 37003 52018 87/// 333 00055=
0155527870999992017010818004+37200+102867FM-12+304499999V0201401N00401002401CN030000199-01781-01971999999ADDAA106000231GF109991999999999999999999KA1120M-00841MA1999999069891MD1710141+9999REMSYN06452787 12/80 91404 11178 21197 36989 57014 69921 333 05152 11084=
0136527870999992017010821004+37200+102867FM-12+304499999V0201101N00201002401CN030000199-01741-01941999999ADDAA124000231GF109991999999999999999999MA1999999069801MD1710091+9999REMSYN05852787 32/80 91102 11174 21194 36980 57009 333 05151 70002=
0197527870999992017010900004+37200+102867FM-12+304499999V0203201N003019999999N029000199-01891-02061999999ADDAA112000231AA224000231GA1021+999999999GE19AGL   +99999+99999GF102991021999999999999999MA1999999069841MD1210041+9999REMSYN07052787 12979 23203 11189 21206 36984 52004 69922 82/// 333 05251 70002=
0153527870999992017010903004+37200+102867FM-12+304499999V0203201N004019999999N030000199-01541-01681999999ADDGA1041+999999999GE19AGL   +99999+99999GF104991041999999999999999MA1999999069941MD1210101+9999REMSYN04852787 32980 43204 11154 21168 36994 52010 84///=
0182527870999992017010906004+37200+102867FM-12+304499999V0203401N008019999999N030000199-01011-01671999999ADDGA1031+999999999GE19AGL   +99999+99999GF103991031999999999999999KA1240N-01911MA1999999069761MD1710181+9999REMSYN06452787 32980 33408 11101 21167 36976 57018 83/// 333 05100 21191=
0163527870999992017010909004+37200+102867FM-12+304499999V0203401N007019999999N030000199-01211-01741999999ADDGA1031+999999999GE19AGL   +99999+99999GF103991031999999999999999MA1999999069811MD1210051+9999REMSYN05852787 32980 33407 11121 21174 36981 52005 83/// 333 00001=
0163527870999992017010912004+37200+102867FM-12+304499999V0203401N009019999999N030000199-01721-01861999999ADDGA1071+017501999GE19AGL   +99999+99999GF107991071999017501999999MA1999999069991MD1210181+9999REMSYN05852787 32780 73409 11172 21186 36999 52018 87/// 333 00051=
0155527870999992017010918004+37200+102867FM-12+304499999V0203201N00301002401CN030000199-01841-02011999999ADDAA106000131GF109991999999999999999999KA1120M-00961MA1999999070041MD1710021+9999REMSYN06452787 12/80 93203 11184 21201 37004 57002 69911 333 00251 11096=
0136527870999992017010921004+37200+102867FM-12+304499999V0203201N00301002401CN029000199-01961-02141999999ADDAA124000131GF109991999999999999999999MA1999999070021MD1710021+9999REMSYN05852787 32/79 93203 11196 21214 37002 57002 333 00252 70001=
0197527870999992017011000004+37200+102867FM-12+304499999V0203201N003019999999N030000199-01961-02151999999ADDAA112000131AA224000131GA1071+017501999GE19AGL   +99999+99999GF107991071999017501999999MA1999999070091MD1210071+9999REMSYN07052787 12780 73203 11196 21215 37009 52007 69912 87/// 333 00351 70001=
0153527870999992017011003004+37200+102867FM-12+304499999V0203201N005019999999N030000199-01681-01841999999ADDGA1041+999999999GE19AGL   +99999+99999GF104991041999999999999999MA1999999070191MD1210101+9999REMSYN04852787 32980 43205 11168 21184 37019 52010 84///=
0182527870999992017011006004+37200+102867FM-12+304499999V0203401N007019999999N030000199-01421-01551999999ADDGA1051+999999999GE19AGL   +99999+99999GF105991051999999999999999KA1240N-01981MA1999999070021MD1710171+9999REMSYN06452787 32980 53407 11142 21155 37002 57017 85/// 333 00354 21198=
0163527870999992017011009004+37200+102867FM-12+304499999V0203401N007019999999N030000199-01581-01721999999ADDGA1071+017501999GE19AGL   +99999+99999GF107991071999017501999999MA1999999070081MD1210061+9999REMSYN05852787 32780 73407 11158 21172 37008 52006 87/// 333 00354=
0163527870999992017011012004+37200+102867FM-12+304499999V0202901N003019999999N030000199-01851-02021999999ADDGA1071+017501999GE19AGL   +99999+99999GF107991071999017501999999MA1999999070231MD1210151+9999REMSYN05852787 32780 72903 11185 21202 37023 52015 87/// 333 00251=
0138527870999992017011018004+37200+102867FM-12+304499999V0203401N00401002401CN030000199-01871-02051999999ADDGF109991999999999999999999KA1120M-01381MA1999999070191MD1710081+9999REMSYN05852787 32/80 93404 11187 21205 37019 57008 333 00200 11138=
0119527870999992017011021004+37200+102867FM-12+304499999V0203401N00601002401CN030000199-01871-02061999999ADDGF109991999999999999999999MA1999999070111MD1710081+9999REMSYN05252787 32/80 93406 11187 21206 37011 57008 333 00101=
0163527870999992017011100004+37200+102867FM-12+304499999V0203601N008019999999N030000199-01481-01961999999ADDGA1071+017501999GE19AGL   +99999+99999GF107991071999017501999999MA1999999070131MD1210021+9999REMSYN05852787 32780 73608 11148 21196 37013 52002 87/// 333 00005=
0153527870999992017011103004+37200+102867FM-12+304499999V0203601N008019999999N030000199-01291-02041999999ADDGA1071+017501999GE19AGL   +99999+99999GF107991071999017501999999MA1999999070281MD1210151+9999REMSYN04852787 32780 73608 11129 21204 37028 52015 87///=
0182527870999992017011106004+37200+102867FM-12+304499999V0200201N008019999999N030000199-01121-02211999999ADDGA1071+999999999GE19AGL   +99999+99999GF107991071999999999999999KA1240N-01921MA1999999070121MD1710161+9999REMSYN06452787 32980 70208 11112 21221 37012 57016 87/// 333 00103 21192=
0163527870999992017011109004+37200+102867FM-12+304499999V0203601N005019999999N030000199-01091-02181999999ADDGA1071+017501999GE19AGL   +99999+99999GF107991071999017501999999MA1999999070161MD1210041+9999REMSYN05852787 32780 73605 11109 21218 37016 52004 87/// 333 00105=
0163527870999992017011112004+37200+102867FM-12+304499999V0203201N002019999999N030000199-01651-02181999999ADDGA1071+017501999GE19AGL   +99999+99999GF107991071999017501999999MA1999999070301MD1210141+9999REMSYN05852787 32780 73202 11165 21218 37030 52014 87/// 333 00102=
0138527870999992017011118004+37200+102867FM-12+304499999V0201401N00201002401CN030000199-01481-02111999999ADDGF109991999999999999999999KA1120M-00991MA1999999070201MD1710091+9999REMSYN05852787 32/80 91402 11148 21211 37020 57009 333 00004 11099=
0119527870999992017011121004+37200+102867FM-12+304499999V0203601N00101002401CN030000199-01431-02571999999ADDGF109991999999999999999999MA1999999070171MD1710031+9999REMSYN05252787 32/80 93601 11143 21257 37017 57003 333 00104=
0119527870999992017011200004+37200+102867FM-12+304499999V0203201N002019999999N030000199-01421-03031999999ADDGF100995999999999999999999MA1999999070131MD1710041+9999REMSYN05252787 32980 03202 11142 21303 37013 57004 333 00001=
0153527870999992017011203004+37200+102867FM-12+304499999V0203201N003019999999N030000199-00821-03441999999ADDGA1021+999999999GE19AGL   +99999+99999GF102991021999999999999999MA1999999070191MD1210061+9999REMSYN04852787 32980 23203 11082 21344 37019 52006 82///=
0182527870999992017011206004+37200+102867FM-12+304499999V0203401N005019999999N030000199-00491-03181999999ADDGA1021+999999999GE19AGL   +99999+99999GF102991021999999999999999KA1240N-01681MA1999999069971MD1710221+9999REMSYN06452787 32980 23405 11049 21318 36997 57022 82/// 333 05206 21168=
0163527870999992017011209004+37200+102867FM-12+304499999V0203601N006019999999N030000199-00691-02851999999ADDGA1061+999999999GE19AGL   +99999+99999GF106991061999999999999999MA1999999069961MD1710011+9999REMSYN05852787 32980 63606 11069 21285 36996 57001 86/// 333 05204=
0119527870999992017011212004+37200+102867FM-12+304499999V0201601N003019999999N030000199-01311-02811999999ADDGF100995999999999999999999MA1999999070061MD1210101+9999REMSYN05252787 32980 01603 11131 21281 37006 52010 333 05203=
0138527870999992017011218004+37200+102867FM-12+304499999V0201801N00501002401CN030000199-01311-02501999999ADDGF109991999999999999999999KA1120M-00331MA1999999069921MD1710151+9999REMSYN05852787 32/80 91805 11131 21250 36992 57015 333 05302 11033=
0119527870999992017011221004+37200+102867FM-12+304499999V0201801N00601002401CN030000199-01321-02361999999ADDGF109991999999999999999999MA1999999069791MD1710131+9999REMSYN05252787 32/80 91806 11132 21236 36979 57013 333 05401=
0163527870999992017011300004+37200+102867FM-12+304499999V0201601N003019999999N030000199-01291-02281999999ADDGA1071+999999999GE19AGL   +99999+99999GF107991071999999999999999MA1999999069781MD1710011+9999REMSYN05852787 32980 71603 11129 21228 36978 57001 87/// 333 05401=
0153527870999992017011303004+37200+102867FM-12+304499999V0201801N007019999999N030000199-00801-02211999999ADDGA1041+999999999GE19AGL   +99999+99999GF104991041999999999999999MA1999999069801MD1210021+9999REMSYN04852787 32980 41807 11080 21221 36980 52002 84///=
0182527870999992017011306004+37200+102867FM-12+304499999V0201601N008019999999N030000199-00451-01981999999ADDGA1071+999999999GE19AGL   +99999+99999GF107991071999999999999999KA1240N-01491MA1999999069621MD1710181+9999REMSYN06452787 32980 71608 11045 21198 36962 57018 87/// 333 05400 21149=
0119527870999992017011309004+37200+102867FM-12+304499999V0203401N005019999999N030000199-00651-02191999999ADDGF100995999999999999999999MA1999999069661MD1210041+9999REMSYN05252787 32980 03405 11065 21219 36966 52004 333 05300=
0163527870999992017011312004+37200+102867FM-12+304499999V0203201N002019999999N030000199-01291-02281999999ADDGA1061+017501999GE19AGL   +99999+99999GF106991061999017501999999MA1999999069821MD1210161+9999REMSYN05852787 32780 63202 11129 21228 36982 52016 86/// 333 05200=
0138527870999992017011318004+37200+102867FM-12+304499999V0201601N00401002401CN030000199-01341-01961999999ADDGF109991999999999999999999KA1120M-00341MA1999999069801MD1710081+9999REMSYN05852787 32/80 91604 11134 21196 36980 57008 333 05100 11034=
0119527870999992017011321004+37200+102867FM-12+304499999V0201801N00901002401CN030000199-01101-01801999999ADDGF109991999999999999999999MA1999999069671MD1710131+9999REMSYN05252787 32/80 91809 11110 21180 36967 57013 333 05102=
0119527870999992017011400004+37200+102867FM-12+304499999V0202001N002019999999N030000199-00971-01991999999ADDGF100995999999999999999999MA1999999069711MD1210041+9999REMSYN05252787 32980 02002 11097 21199 36971 52004 333 05103=
0109527870999992017011403004+37200+102867FM-12+304499999V0203201N002019999999N030000199-00971-02101999999ADDGF100995999999999999999999MA1999999069771MD1210061+9999REMSYN04252787 32980 03202 11097 21210 36977 52006=
0138527870999992017011406004+37200+102867FM-12+304499999V0203201N005019999999N030000199-00571-02081999999ADDGF100995999999999999999999KA1240N-01511MA1999999069661MD1710111+9999REMSYN05852787 32980 03205 11057 21208 36966 57011 333 00051 21151=
0119527870999992017011409004+37200+102867FM-12+304499999V0203201N005019999999N030000199-00841-02251999999ADDGF100995999999999999999999MA1999999069781MD1210121+9999REMSYN05252787 32980 03205 11084 21225 36978 52012 333 00152=
0163527870999992017011412004+37200+102867FM-12+304499999V0203201N007019999999N030000199-01361-02371999999ADDGA1071+017501999GE19AGL   +99999+99999GF107991071999017501999999MA1999999070021MD1210241+9999REMSYN05852787 32780 73207 11136 21237 37002 52024 87/// 333 00251=
0138527870999992017011418004+37200+102867FM-12+304499999V0202901N00201002401CN030000199-01121-02391999999ADDGF109991999999999999999999KA1120M-00331MA1999999070081MD1710051+9999REMSYN05852787 32/80 92902 11112 21239 37008 57005 333 00302 11033=
0119527870999992017011421004+37200+102867FM-12+304499999V0201401N00301002401CN030000199-01211-02381999999ADDGF109991999999999999999999MA1999999070031MD1710051+9999REMSYN05252787 32/80 91403 11121 21238 37003 57005 333 00451=
0163527870999992017011500004+37200+102867FM-12+304499999V0201401N003019999999N028000199-01321-02331999999ADDGA1051+017501999GE19AGL   +99999+99999GF105991051999017501999999MA1999999069961MD1710071+9999REMSYN05852787 32778 51403 11132 21233 36996 57007 85/// 333 00354=
0153527870999992017011503004+37200+102867FM-12+304499999V0203201N008019999999N030000199-00751-02241999999ADDGA1021+999999999GE19AGL   +99999+99999GF102991021999999999999999MA1999999070011MD1210051+9999REMSYN04852787 32980 23208 11075 21224 37001 52005 82///=
0182527870999992017011506004+37200+102867FM-12+304499999V0203401N007019999999N030000199-00931-02161999999ADDGA1071+012501999GE19AGL   +99999+99999GF107991071999012501999999KA1240N-01411MA1999999069851MD1710161+9999REMSYN06452787 32680 73407 11093 21216 36985 57016 87/// 333 00254 21141=
0189527870999992017011509004+37200+102867FM-12+304499999V0203401N009019999999N030000199-01331-02171999999ADDGA1071+017501999GE19AGL   +99999+99999GF107991071999017501999999MA1999999069901MD1210051+9999OD139901901320REMSYN07052787 32780 73409 11133 21217 36990 52005 87/// 333 00155 91119 91532=
0189527870999992017011512004+37200+102867FM-12+304499999V0203601N008019999999N030000199-01321-02181999999ADDGA1041+999999999GE19AGL   +99999+99999GF104991041999999999999999MA1999999070101MD1210201+9999OD139901901320REMSYN07052787 32980 43608 11132 21218 37010 52020 84/// 333 00100 91119 91532=
0138527870999992017011518004+37200+102867FM-12+304499999V0202201N00401002401CN030000199-01481-02401999999ADDGF109991999999999999999999KA1120M-00261MA1999999070011MD1710101+9999REMSYN05852787 32/80 92204 11148 21240 37001 57010 333 05154 11026=
0119527870999992017011521004+37200+102867FM-12+304499999V0202001N00601002401CN030000199-01491-02391999999ADDGF109991999999999999999999MA1999999069971MD1710041+9999REMSYN05252787 32/80 92006 11149 21239 36997 57004 333 05153=
0163527870999992017011600004+37200+102867FM-12+304499999V0201601N004019999999N030000199-01641-02521999999ADDGA1051+017501999GE19AGL   +99999+99999GF105991051999017501999999MA1999999070011MD1210041+9999REMSYN05852787 32780 51604 11164 21252 37001 52004 85/// 333 00153=
0153527870999992017011603004+37200+102867FM-12+304499999V0201601N003019999999N030000199-01121-02181999999ADDGA1071+999999999GE19AGL   +99999+99999GF107991071999999999999999MA1999999070131MD1210121+9999REMSYN04852787 32980 71603 11112 21218 37013 52012 87///=
0182527870999992017011606004+37200+102867FM-12+304499999V0203401N007019999999N030000199-01061-02241999999ADDGA1071+012501999GE19AGL   +99999+99999GF107991071999012501999999KA1240N-01751MA1999999069961MD1710171+9999REMSYN06452787 32680 73407 11106 21224 36996 57017 87/// 333 00151 21175=
0163527870999992017011609004+37200+102867FM-12+304499999V0203601N007019999999N030000199-01251-02241999999ADDGA1071+017501999GE19AGL   +99999+99999GF107991071999017501999999MA1999999070031MD1210071+9999REMSYN05852787 32780 73607 11125 21224 37003 52007 87/// 333 00101=
0163527870999992017011612004+37200+102867FM-12+304499999V0202901N003019999999N030000199-01661-02431999999ADDGA1031+999999999GE19AGL   +99999+99999GF103991031999999999999999MA1999999070201MD1210171+9999REMSYN05852787 32980 32903 11166 21243 37020 52017 83/// 333 00153=
0138527870999992017011618004+37200+102867FM-12+304499999V0201601N00401002401CN030000199-01931-02481999999ADDGF109991999999999999999999KA1120M-00831MA1999999069971MD1710181+9999REMSYN05852787 32/80 91604 11193 21248 36997 57018 333 00055 11083=
0119527870999992017011621004+37200+102867FM-12+304499999V0201601N00401002401CN030000199-01861-02401999999ADDGF109991999999999999999999MA1999999069881MD1710091+9999REMSYN05252787 32/80 91604 11186 21240 36988 57009 333 05154=
0163527870999992017011700004+37200+102867FM-12+304499999V0201601N003019999999N030000199-01871-02241999999ADDGA1061+999999999GE19AGL   +99999+99999GF106991061999999999999999MA1999999069851MD1710031+9999REMSYN05852787 32980 61603 11187 21224 36985 57003 86/// 333 05252=
0153527870999992017011703004+37200+102867FM-12+304499999V0201401N001019999999N030000199-01001-02131999999ADDGA1021+999999999GE19AGL   +99999+99999GF102991021999999999999999MA1999999069891MD1210041+9999REMSYN04852787 32980 21401 11100 21213 36989 52004 82///=
0182527870999992017011706004+37200+102867FM-12+304499999V0203601N006019999999N030000199-00861-02601999999ADDGA1071+999999999GE19AGL   +99999+99999GF107991071999999999999999KA1240N-01971MA1999999069741MD1710151+9999REMSYN06452787 32980 73606 11086 21260 36974 57015 87/// 333 05202 21197=
0163527870999992017011709004+37200+102867FM-12+304499999V0203401N007019999999N030000199-01021-02401999999ADDGA1041+999999999GE19AGL   +99999+99999GF104991041999999999999999MA1999999069841MD1210101+9999REMSYN05852787 32980 43407 11102 21240 36984 52010 84/// 333 05202=
0163527870999992017011712004+37200+102867FM-12+304499999V0202901N002019999999N030000199-01611-02431999999ADDGA1071+999999999GE19AGL   +99999+99999GF107991071999999999999999MA1999999070021MD1210181+9999REMSYN05852787 32980 72902 11161 21243 37002 52018 87/// 333 05201=
0138527870999992017011718004+37200+102867FM-12+304499999V0201601N00501002401CN030000199-01761-02401999999ADDGF109991999999999999999999KA1120M-00791MA1999999069931MD1710141+9999REMSYN05852787 32/80 91605 11176 21240 36993 57014 333 00002 11079=
0119527870999992017011721004+37200+102867FM-12+304499999V0201601N00601002401CN030000199-01591-02181999999ADDGF109991999999999999999999MA1999999069821MD1710111+9999REMSYN05252787 32/80 91606 11159 21218 36982 57011 333 05103=
0163527870999992017011800004+37200+102867FM-12+304499999V0203201N008019999999N030000199-01851-02351999999ADDGA1071+999999999GE19AGL   +99999+99999GF107991071999999999999999MA1999999069831MD1210011+9999REMSYN05852787 32980 73208 11185 21235 36983 52001 87/// 333 00000=
0153527870999992017011803004+37200+102867FM-12+304499999V0203601N010019999999N030000199-00971-03081999999ADDGA1021+999999999GE19AGL   +99999+99999GF102991021999999999999999MA1999999069981MD1210151+9999REMSYN04852787 32980 23610 11097 21308 36998 52015 82///=
0138527870999992017011806004+37200+102867FM-12+304499999V0203401N008019999999N030000199-00701-02931999999ADDGF100995999999999999999999KA1240N-01881MA1999999069821MD1710161+9999REMSYN05852787 32980 03408 11070 21293 36982 57016 333 00102 21188=
0163527870999992017011809004+37200+102867FM-12+304499999V0200201N011019999999N030000199-01191-02591999999ADDGA1021+999999999GE19AGL   +99999+99999GF102991021999999999999999MA1999999070001MD1210181+9999REMSYN05852787 32980 20211 11119 21259 37000 52018 82/// 333 00252=
0119527870999992017011812004+37200+102867FM-12+304499999V0203401N010019999999N030000199-01781-02581999999ADDGF100995999999999999999999MA1999999070301MD1210301+9999REMSYN05252787 32980 03410 11178 21258 37030 52030 333 00352=
0138527870999992017011818004+37200+102867FM-12+304499999V0203201N00201002401CN030000199-01951-02561999999ADDGF109991999999999999999999KA1120M-00541MA1999999070421MD1410001+9999REMSYN05852787 32/80 93202 11195 21256 37042 54000 333 00552 11054=
0119527870999992017011821004+37200+102867FM-12+304499999V0203401N00301002401CN030000199-01721-02751999999ADDGF109991999999999999999999MA1999999070351MD1710071+9999REMSYN05252787 32/80 93403 11172 21275 37035 57007 333 00551=
0119527870999992017011900004+37200+102867FM-12+304499999V0201601N002019999999N030000199-01731-02791999999ADDGF100995999999999999999999MA1999999070401MD1210051+9999REMSYN05252787 32980 01602 11173 21279 37040 52005 333 00601=
0109527870999992017011903004+37200+102867FM-12+304499999V0203201N004019999999N030000199-01081-02651999999ADDGF100995999999999999999999MA1999999070421MD1210021+9999REMSYN04252787 32980 03204 11108 21265 37042 52002=
0138527870999992017011906004+37200+102867FM-12+304499999V0203601N006019999999N029000199-00691-02921999999ADDGF100995999999999999999999KA1240N-02161MA1999999070251MD1710171+9999REMSYN05852787 32979 03606 11069 21292 37025 57017 333 00400 21216=
0163527870999992017011909004+37200+102867FM-12+304499999V0202901N004019999999N030000199-00961-02641999999ADDGA1051+999999999GE19AGL   +99999+99999GF105991051999999999999999MA1999999070331MD1210081+9999REMSYN05852787 32980 52904 11096 21264 37033 52008 85/// 333 00302=
0119527870999992017011912004+37200+102867FM-12+304499999V0201601N003019999999N030000199-01441-02551999999ADDGF100995999999999999999999MA1999999070451MD1210121+9999REMSYN05252787 32980 01603 11144 21255 37045 52012 333 00203=
0138527870999992017011918004+37200+102867FM-12+304499999V0201601N00501002401CN030000199-01601-02491999999ADDGF109991999999999999999999KA1120M-00621MA1999999070281MD1710121+9999REMSYN05852787 32/80 91605 11160 21249 37028 57012 333 05104 11062=
0119527870999992017011921004+37200+102867FM-12+304499999V0201601N00601002401CN030000199-01451-02531999999ADDGF109991999999999999999999MA1999999070121MD1710161+9999REMSYN05252787 32/80 91606 11145 21253 37012 57016 333 05203=
0163527870999992017012000004+37200+102867FM-12+304499999V0201101N001019999999N030000199-01321-02741999999ADDGA1031+999999999GE19AGL   +99999+99999GF103991031999999999999999MA1999999070161MD1210041+9999REMSYN05852787 32980 31101 11132 21274 37016 52004 83/// 333 05204=
0153527870999992017012003004+37200+102867FM-12+304499999V0200201N007019999999N030000199-00781-03061999999ADDGA1031+999999999GE19AGL   +99999+99999GF103991031999999999999999MA1999999070241MD1210081+9999REMSYN04852787 32980 30207 11078 21306 37024 52008 83///=
0182527870999992017012006004+37200+102867FM-12+304499999V0203601N008019999999N030000199-00851-03201999999ADDGA1071+017501999GE19AGL   +99999+99999GF107991071999017501999999KA1240N-01711MA1999999070161MD1710081+9999REMSYN06452787 32780 73608 11085 21320 37016 57008 87/// 333 05152 21171=
0189527870999992017012009004+37200+102867FM-12+304499999V0200201N011019999999N030000199-00941-03191999999ADDGA1071+999999999GE19AGL   +99999+99999GF107991071999999999999999MA1999999070291MD1210131+9999OD139901701360REMSYN07052787 32980 70211 11094 21319 37029 52013 87/// 333 00000 91117 91536=
0189527870999992017012012004+37200+102867FM-12+304499999V0203201N006019999999N030000199-01341-03101999999ADDGA1071+017501999GE19AGL   +99999+99999GF107991071999017501999999MA1999999070541MD1210251+9999OD139901701360REMSYN07052787 32780 73206 11134 21310 37054 52025 87/// 333 00101 91117 91536=
0138527870999992017012018004+37200+102867FM-12+304499999V0201401N00101002401CN030000199-01211-02991999999ADDGF109991999999999999999999KA1120M-00741MA1999999070541MD1710061+9999REMSYN05852787 32/80 91401 11121 21299 37054 57006 333 00304 11074=
0119527870999992017012021004+37200+102867FM-12+304499999V0201601N00201002401CN030000199-01251-02891999999ADDGF109991999999999999999999MA1999999070491MD1710051+9999REMSYN05252787 32/80 91602 11125 21289 37049 57005 333 00402=
0119527870999992017012100004+37200+102867FM-12+304499999V0201401N001019999999N030000199-01271-02701999999ADDGF100995999999999999999999MA1999999070541MD1210051+9999REMSYN05252787 32980 01401 11127 21270 37054 52005 333 00401=
0109527870999992017012103004+37200+102867FM-12+304499999V0201801N002019999999N029000199-00461-02411999999ADDGF100995999999999999999999MA1999999070551MD1210011+9999REMSYN04252787 32979 01802 11046 21241 37055 52001=
0182527870999992017012106004+37200+102867FM-12+304499999V0203601N007019999999N029000199-00341-02631999999ADDGA1071+012501999GE19AGL   +99999+99999GF107991071999012501999999KA1240N-01451MA1999999070331MD1710221+9999REMSYN06452787 32679 73607 11034 21263 37033 57022 87/// 333 00205 21145=
0189527870999992017012109004+37200+102867FM-12+304499999V0203201N008019999999N030000199-00801-02411999999ADDGA1061+012501999GE19AGL   +99999+99999GF106991061999012501999999MA1999999070391MD1210061+9999OD139901901320REMSYN07052787 32680 63208 11080 21241 37039 52006 86/// 333 00101 91119 91532=
0189527870999992017012112004+37200+102867FM-12+304499999V0200201N006019999999N030000199-00941-02411999999ADDGA1071+017501999GE19AGL   +99999+99999GF107991071999017501999999MA1999999070621MD1210231+9999OD139901901320REMSYN07052787 32780 70206 11094 21241 37062 52023 87/// 333 00104 91119 91532=
0138527870999992017012118004+37200+102867FM-12+304499999V0200401N00101002401CN030000199-01291-02481999999ADDGF109991999999999999999999KA1120M-00221MA1999999070691MD1710031+9999REMSYN05852787 32/80 90401 11129 21248 37069 57003 333 00251 11022=
0119527870999992017012121004+37200+102867FM-12+304499999V0201801N00301002401CN030000199-01331-02511999999ADDGF109991999999999999999999MA1999999070631MD1710061+9999REMSYN05252787 32/80 91803 11133 21251 37063 57006 333 00151=
0119527870999992017012200004+37200+102867FM-12+304499999V0201601N003019999999N030000199-01351-02561999999ADDGF100995999999999999999999MA1999999070631MD1410001+9999REMSYN05252787 32980 01603 11135 21256 37063 54000 333 00151=
0109527870999992017012203004+37200+102867FM-12+304499999V0203601N001019999999N030000199-00431-02861999999ADDGF100995999999999999999999MA1999999070691MD1210061+9999REMSYN04252787 32980 03601 11043 21286 37069 52006=
0138527870999992017012206004+37200+102867FM-12+304499999V0201801N005019999999N030000199-00231-02881999999ADDGF100995999999999999999999KA1240N-01431MA1999999070521MD1710171+9999REMSYN05852787 32980 01805 11023 21288 37052 57017 333 00201 21143=
0119527870999992017012209004+37200+102867FM-12+304499999V0203601N006019999999N029000199-00241-03221999999ADDGF100995999999999999999999MA1999999070511MD1710011+9999REMSYN05252787 32979 03606 11024 21322 37051 57001 333 00106=
0119527870999992017012212004+37200+102867FM-12+304499999V0201601N005019999999N030000199-00831-02901999999ADDGF100995999999999999999999MA1999999070601MD1210091+9999REMSYN05252787 32980 01605 11083 21290 37060 52009 333 00001=
0138527870999992017012218004+37200+102867FM-12+304499999V0201601N00601002401CN030000199-01261-02731999999ADDGF109991999999999999999999KA1120M-00071MA1999999070431MD1710141+9999REMSYN05852787 32/80 91606 11126 21273 37043 57014 333 05300 11007=
0119527870999992017012221004+37200+102867FM-12+304499999V0201601N00401002401CN030000199-00801-02811999999ADDGF109991999999999999999999MA1999999070331MD1710101+9999REMSYN05252787 32/80 91604 11080 21281 37033 57010 333 05305=
0119527870999992017012300004+37200+102867FM-12+304499999V0202001N004019999999N030000199-00661-03041999999ADDGF100995999999999999999999MA1999999070341MD1210011+9999REMSYN05252787 32980 02004 11066 21304 37034 52001 333 05307=
0153527870999992017012303004+37200+102867FM-12+304499999V0203201N007019999999N030000199-00361-02891999999ADDGA1011+999999999GE19AGL   +99999+99999GF101991011999999999999999MA1999999070421MD1210081+9999REMSYN04852787 32980 13207 11036 21289 37042 52008 81///=
0182527870999992017012306004+37200+102867FM-12+304499999V0203601N006019999999N029000199+00191-03201999999ADDGA1071+999999999GE19AGL   +99999+99999GF107991071999999999999999KA1240N-01261MA1999999070291MD1710131+9999REMSYN06452787 32979 73606 10019 21320 37029 57013 87/// 333 05204 21126=
0163527870999992017012309004+37200+102867FM-12+304499999V0203601N006019999999N030000199-00071-02851999999ADDGA1071+999999999GE19AGL   +99999+99999GF107991071999999999999999MA1999999070331MD1210041+9999REMSYN05852787 32980 73606 11007 21285 37033 52004 87/// 333 05202=
0163527870999992017012312004+37200+102867FM-12+304499999V0203201N003019999999N030000199-00801-02941999999ADDGA1071+999999999GE19AGL   +99999+99999GF107991071999999999999999MA1999999070471MD1210141+9999REMSYN05852787 32980 73203 11080 21294 37047 52014 87/// 333 05100=
0138527870999992017012318004+37200+102867FM-12+304499999V0201601N00301002401CN030000199-00951-02671999999ADDGF109991999999999999999999KA1120M+00211MA1999999070461MD1710091+9999REMSYN05852787 32/80 91603 11095 21267 37046 57009 333 00003 10021=
0119527870999992017012321004+37200+102867FM-12+304499999V0203201N00101002401CN030000199-00601-02771999999ADDGF109991999999999999999999MA1999999070391MD1710071+9999REMSYN05252787 32/80 93201 11060 21277 37039 57007 333 00102=
0163527870999992017012400004+37200+102867FM-12+304499999V0203401N004019999999N030000199-00541-02791999999ADDGA1071+999999999GE19AGL   +99999+99999GF107991071999999999999999MA1999999070411MD1210021+9999REMSYN05852787 32980 73404 11054 21279 37041 52002 87/// 333 00101=
0109527870999992017012403004+37200+102867FM-12+304499999V0203401N006019999999N030000199-00011-02921999999ADDGF100995999999999999999999MA1999999070561MD1210151+9999REMSYN04252787 32980 03406 11001 21292 37056 52015=
0138527870999992017012406004+37200+102867FM-12+304499999V0203601N008019999999N029000199+00191-03031999999ADDGF100995999999999999999999KA1240N-01031MA1999999070491MD1710071+9999REMSYN05852787 32679 03608 10019 21303 37049 57007 333 00200 21103=
0119527870999992017012409004+37200+102867FM-12+304499999V0203601N006019999999N029000199+00111-02951999999ADDGF100995999999999999999999MA1999999070561MD1210071+9999REMSYN05252787 32679 03606 10011 21295 37056 52007 333 00202=
0119527870999992017012412004+37200+102867FM-12+304499999V0201601N006019999999N030000199-00481-02611999999ADDGF100995999999999999999999MA1999999070641MD1210081+9999REMSYN05252787 32980 01606 11048 21261 37064 52008 333 00203=
0138527870999992017012418004+37200+102867FM-12+304499999V0201401N00801002401CN030000199-00511-02511999999ADDGF109991999999999999999999KA1120M+00251MA1999999070511MD1710111+9999REMSYN05852787 32/80 91408 11051 21251 37051 57011 333 00104 10025=
0119527870999992017012421004+37200+102867FM-12+304499999V0201601N00301002401CN030000199-00521-02461999999ADDGF109991999999999999999999MA1999999070351MD1710161+9999REMSYN05252787 32/80 91603 11052 21246 37035 57016 333 00001=
0163527870999992017012500004+37200+102867FM-12+304499999V0203601N003019999999N030000199-00281-02661999999ADDGA1021+999999999GE19AGL   +99999+99999GF102991021999999999999999MA1999999070331MD1710021+9999REMSYN05852787 32980 23603 11028 21266 37033 57002 82/// 333 05103=
0109527870999992017012503004+37200+102867FM-12+304499999V0201401N003019999999N029000199+00241-02611999999ADDGF100995999999999999999999MA1999999070301MD1710031+9999REMSYN04252787 32979 01403 10024 21261 37030 57003=
0182527870999992017012506004+37200+102867FM-12+304499999V0201801N005019999999N025000199+00801-02431999999ADDGA1071+999999999GE19AGL   +99999+99999GF107991071999999999999999KA1240N-00831MA1999999070081MD1710221+9999REMSYN06452787 32975 71805 10080 21243 37008 57022 87/// 333 05406 21083=
0163527870999992017012509004+37200+102867FM-12+304499999V0203201N008019999999N013000199-00482-02371999999ADDGA1071+999999999GE19AGL   +99999+99999GF107991071999999999999999MA1999999070141MD1210061+9999REMSYN05852787 32963 73208 11048 21237 37014 52006 87/// 333 05456=
0191527870999992017012512004+37200+102867FM-12+304499999V0203401N012019999999N002200199-01332-02061999999ADDAY101021AY201021GA1071+999999999GE19AGL   +99999+99999GF107991071999999999999999MA1999999070351MD1210211+9999MW1061REMSYN06452787 31922 73412 11133 21206 37035 52021 70600 87/// 333 05359=
0164527870999992017012518004+37200+102867FM-12+304499999V0200201N01001002401CN027000199-00711-02171999999ADDGF109991999999999999999999KA1120M+00821MA1999999070491MD1710031+9999OD139902001020REMSYN07052787 32/77 90210 11071 21217 37049 57003 333 00052 10082 91120 91502=
0145527870999992017012521004+37200+102867FM-12+304499999V0203601N01401002401CN028000199-00921-02051999999ADDGF109991999999999999999999MA1999999070501MD1210011+9999OD139902001020REMSYN06452787 32/78 93614 11092 21205 37050 52001 333 00254 91120 91502=
0145527870999992017012600004+37200+102867FM-12+304499999V0203601N013019999999N030000199-01091-01921999999ADDGF100995999999999999999999MA1999999070611MD1210111+9999OD139902001360REMSYN06452787 32980 03613 11109 21192 37061 52011 333 00358 91120 91536=
0139527870999992017012603004+37200+102867FM-12+304499999V0203401N010019999999N024000199-00921-01891999999ADDGF100995999999999999999999MA1999999070701MD1210091+9999OD139902001360REMSYN05852787 32974 03410 11092 21189 37070 52009 333 91120 91536=
0208527870999992017012606004+37200+102867FM-12+304499999V0203401N005019999999N029000199-00481-01971999999ADDGA1021+999999999GE19AGL   +99999+99999GF102991021999999999999999KA1240N-01511MA1999999070581MD1710121+9999OD139901801360REMSYN07652787 32979 23405 11048 21197 37058 57012 82/// 333 00563 21151 91118 91536=
0163527870999992017012609004+37200+102867FM-12+304499999V0201401N009019999999N008000199-00681-01901999999ADDGA1071+999999999GE19AGL   +99999+99999GF107991071999999999999999MA1999999070541MD1710041+9999REMSYN05852787 32958 71409 11068 21190 37054 57004 87/// 333 00452=
0163527870999992017012612004+37200+102867FM-12+304499999V0201801N009019999999N013000199-00981-01841999999ADDGA1071+999999999GE19AGL   +99999+99999GF107991071999999999999999MA1999999070571MD1210031+9999REMSYN05852787 32963 71809 11098 21184 37057 52003 87/// 333 00204=
0138527870999992017012618004+37200+102867FM-12+304499999V0201601N00701002401CN023000199-01461-01961999999ADDGF109991999999999999999999KA1120M-00341MA1999999070251MD1710201+9999REMSYN05852787 32/73 91607 11146 21196 37025 57020 333 05258 11034=
0119527870999992017012621004+37200+102867FM-12+304499999V0201601N00501002401CN027000199-01261-01951999999ADDGF109991999999999999999999MA1999999069921MD1710331+9999REMSYN05252787 32/77 91605 11126 21195 36992 57033 333 05653=
0163527870999992017012700004+37200+102867FM-12+304499999V0202901N003019999999N029000199-00381-01961999999ADDGA1071+999999999GE19AGL   +99999+99999GF107991071999999999999999MA1999999069781MD1710141+9999REMSYN05852787 32979 72903 11038 21196 36978 57014 87/// 333 05807=
0153527870999992017012703004+37200+102867FM-12+304499999V0203401N002019999999N024000199-00191-01841999999ADDGA1021+999999999GE19AGL   +99999+99999GF102991021999999999999999MA1999999069751MD1710031+9999REMSYN04852787 32974 23402 11019 21184 36975 57003 82///=
0182527870999992017012706004+37200+102867FM-12+304499999V0201601N003019999999N018000199+00771-01811999999ADDGA1071+999999999GE19AGL   +99999+99999GF107991071999999999999999KA1240N-01471MA1999999069481MD1710271+9999REMSYN06452787 32968 71603 10077 21181 36948 57027 87/// 333 06113 21147=
0163527870999992017012709004+37200+102867FM-12+304499999V0203401N005019999999N022000199-00241-01881999999ADDGA1071+999999999GE19AGL   +99999+99999GF107991071999999999999999MA1999999069391MD1710091+9999REMSYN05852787 32972 73405 11024 21188 36939 57009 87/// 333 06204=
0163527870999992017012712004+37200+102867FM-12+304499999V0203201N007019999999N028000199-01011-02001999999ADDGA1021+999999999GE19AGL   +99999+99999GF102991021999999999999999MA1999999069501MD1210111+9999REMSYN05852787 32978 23207 11101 21200 36950 52011 82/// 333 06100=
0138527870999992017012718004+37200+102867FM-12+304499999V0203201N00801002401CN030000199-01191-02111999999ADDGF109991999999999999999999KA1120M+00811MA1999999069511MD1410001+9999REMSYN05852787 32/80 93208 11119 21211 36951 54000 333 05703 10081=
0119527870999992017012721004+37200+102867FM-12+304499999V0200201N00901002401CN030000199-00881-01901999999ADDGF109991999999999999999999MA1999999069521MD1210011+9999REMSYN05252787 32/80 90209 11088 21190 36952 52001 333 05404=
0163527870999992017012800004+37200+102867FM-12+304499999V0203601N012019999999N030000199-01211-02101999999ADDGA1031+999999999GE19AGL   +99999+99999GF103991031999999999999999MA1999999069641MD1210121+9999REMSYN05852787 32980 33612 11121 21210 36964 52012 83/// 333 05158=
0183527870999992017012803004+37200+102867FM-12+304499999V0203601N010019999999N030000199-01041-02081999999ADDGA1061+999999999GE19AGL   +99999+99999GF106991061999999999999999MA1999999069841MD1210201+9999OD139901701020REMSYN06452787 32980 63610 11104 21208 36984 52020 86/// 333 91117 91502=
0208527870999992017012806004+37200+102867FM-12+304499999V0200201N010019999999N028000199-00741-02591999999ADDGA1071+999999999GE19AGL   +99999+99999GF107991071999999999999999KA1240N-01381MA1999999069721MD1710121+9999OD139901701020REMSYN07652787 32978 70210 11074 21259 36972 57012 87/// 333 00265 21138 91117 91502=
0163527870999992017012809004+37200+102867FM-12+304499999V0203601N009019999999N029000199-01031-01941999999ADDGA1071+999999999GE19AGL   +99999+99999GF107991071999999999999999MA1999999069831MD1210111+9999REMSYN05852787 32979 73609 11103 21194 36983 52011 87/// 333 00458=
0163527870999992017012812004+37200+102867FM-12+304499999V0203201N007019999999N030000199-01391-01741999999ADDGA1071+999999999GE19AGL   +99999+99999GF107991071999999999999999MA1999999070021MD1210191+9999REMSYN05852787 32980 73207 11139 21174 37002 52019 87/// 333 00554=
0138527870999992017012818004+37200+102867FM-12+304499999V0201601N00401002401CN030000199-01591-01891999999ADDGF109991999999999999999999KA1120M-00711MA1999999069941MD1710091+9999REMSYN05852787 32/80 91604 11159 21189 36994 57009 333 00454 11071=
0119527870999992017012821004+37200+102867FM-12+304499999V0201601N00201002401CN030000199-01641-01941999999ADDGF109991999999999999999999MA1999999069961MD1210021+9999REMSYN05252787 32/80 91602 11164 21194 36996 52002 333 00458=
0163527870999992017012900004+37200+102867FM-12+304499999V0201601N005019999999N030000199-01731-02001999999ADDGA1021+999999999GE19AGL   +99999+99999GF102991021999999999999999MA1999999069911MD1710051+9999REMSYN05852787 32980 21605 11173 21200 36991 57005 82/// 333 00355=
0153527870999992017012903004+37200+102867FM-12+304499999V0201601N004019999999N024000199-01111-01791999999ADDGA1021+999999999GE19AGL   +99999+99999GF102991021999999999999999MA1999999070001MD1210091+9999REMSYN04852787 32974 21604 11111 21179 37000 52009 82///=
0138527870999992017012906004+37200+102867FM-12+304499999V0201801N004019999999N023000199-00501-01741999999ADDGF100995999999999999999999KA1240N-01791MA1999999069931MD1710071+9999REMSYN05852787 32973 01804 11050 21174 36993 57007 333 00202 21179=
0119527870999992017012909004+37200+102867FM-12+304499999V0201601N008019999999N019000199-00461-01771999999ADDGF100995999999999999999999MA1999999069941MD1210011+9999REMSYN05252787 32969 01608 11046 21177 36994 52001 333 00106=
0119527870999992017012912004+37200+102867FM-12+304499999V0201601N004019999999N030000199-01051-01911999999ADDGF100995999999999999999999MA1999999070131MD1210191+9999REMSYN05252787 32980 01604 11105 21191 37013 52019 333 00103=
0138527870999992017012918004+37200+102867FM-12+304499999V0201601N00701002401CN030000199-01391-01881999999ADDGF109991999999999999999999KA1120M-00291MA1999999069941MD1710131+9999REMSYN05852787 32/80 91607 11139 21188 36994 57013 333 00002 11029=
0119527870999992017012921004+37200+102867FM-12+304499999V0201601N00501002401CN030000199-01161-01771999999ADDGF109991999999999999999999MA1999999069841MD1710101+9999REMSYN05252787 32/80 91605 11116 21177 36984 57010 333 05105=
0163527870999992017013000004+37200+102867FM-12+304499999V0203601N006019999999N030000199-00821-01931999999ADDGA1071+999999999GE19AGL   +99999+99999GF107991071999999999999999MA1999999069821MD1710021+9999REMSYN05852787 32980 73606 11082 21193 36982 57002 87/// 333 05109=
0153527870999992017013003004+37200+102867FM-12+304499999V0203601N007019999999N027000199-00431-02041999999ADDGA1061+999999999GE19AGL   +99999+99999GF106991061999999999999999MA1999999069871MD1210051+9999REMSYN04852787 32977 63607 11043 21204 36987 52005 86///=
0182527870999992017013006004+37200+102867FM-12+304499999V0203601N012019999999N028000199-00611-01941999999ADDGA1061+012501999GE19AGL   +99999+99999GF106991061999012501999999KA1240N-01431MA1999999069821MD1710051+9999REMSYN06452787 32678 63612 11061 21194 36982 57005 86/// 333 05151 21143=
0163527870999992017013009004+37200+102867FM-12+304499999V0200201N012019999999N029000199-00891-01831999999ADDGA1071+017501999GE19AGL   +99999+99999GF107991071999017501999999MA1999999069961MD1210141+9999REMSYN05852787 32779 70212 11089 21183 36996 52014 87/// 333 00054=
0189527870999992017013012004+37200+102867FM-12+304499999V0203401N009019999999N030000199-01021-01521999999ADDGA1071+017501999GE19AGL   +99999+99999GF107991071999017501999999MA1999999069991MD1210031+9999OD139901701020REMSYN07052787 32780 73409 11102 21152 36999 52003 87/// 333 05100 91117 91502=
0138527870999992017013018004+37200+102867FM-12+304499999V0202901N00201002401CN030000199-01011-01651999999ADDGF109991999999999999999999KA1120M-00271MA1999999069981MD1710061+9999REMSYN05852787 32/80 92902 11101 21165 36998 57006 333 00004 11027=
0119527870999992017013021004+37200+102867FM-12+304499999V0203401N00101002401CN030000199-01001-01661999999ADDGF109991999999999999999999MA1999999069921MD1710061+9999REMSYN05252787 32/80 93401 11100 21166 36992 57006 333 00102=
0163527870999992017013100004+37200+102867FM-12+304499999V0201601N003019999999N030000199-01171-01691999999ADDGA1071+017501999GE19AGL   +99999+99999GF107991071999017501999999MA1999999069971MD1210051+9999REMSYN05852787 32780 71603 11117 21169 36997 52005 87/// 333 00254=
0109527870999992017013103004+37200+102867FM-12+304499999V0201601N007019999999N029000199-00481-01541999999ADDGF100995999999999999999999MA1999999069971MD1410001+9999REMSYN04252787 32979 01607 11048 21154 36997 54000=
0138527870999992017013106004+37200+102867FM-12+304499999V0203401N009019999999N029000199-00331-01461999999ADDGF100995999999999999999999KA1240N-01241MA1999999069911MD1710061+9999REMSYN05852787 32679 03409 11033 21146 36991 57006 333 00103 21124=
0163527870999992017013109004+37200+102867FM-12+304499999V0203601N009019999999N029000199-00511-01571999999ADDGA1031+012501999GE19AGL   +99999+99999GF103991031999012501999999MA1999999069991MD1210081+9999REMSYN05852787 32679 33609 11051 21157 36999 52008 83/// 333 00004=
0119527870999992017013112004+37200+102867FM-12+304499999V0202701N004019999999N030000199-01071-01501999999ADDGF100995999999999999999999MA1999999070201MD1210211+9999REMSYN05252787 32980 02704 11107 21150 37020 52021 333 00251=
0138527870999992017013118004+37200+102867FM-12+304499999V0201801N00601002401CN030000199-01031-01711999999ADDGF109991999999999999999999KA1120M-00221MA1999999070251MD1710031+9999REMSYN05852787 32/80 91806 11103 21171 37025 57003 333 00300 11022=
0119527870999992017013121004+37200+102867FM-12+304499999V0201601N00501002401CN030000199-01271-01761999999ADDGF109991999999999999999999MA1999999070181MD1710071+9999REMSYN05252787 32/80 91605 11127 21176 37018 57007 333 00353=
0119527870999992017020100004+37200+102867FM-12+304499999V0201601N006019999999N030000199-01381-01781999999ADDGF100995999999999999999999MA1999999070181MD1410001+9999REMSYN05252787 32980 01606 11138 21178 37018 54000 333 00252=
0153527870999992017020103004+37200+102867FM-12+304499999V0201601N008019999999N029000199-00521-01551999999ADDGA1021+999999999GE19AGL   +99999+99999GF102991021999999999999999MA1999999070191MD1210011+9999REMSYN04852787 32979 21608 11052 21155 37019 52001 82///=
0138527870999992017020106004+37200+102867FM-12+304499999V0201601N006019999999N028000199-00081-01581999999ADDGF100995999999999999999999KA1240N-01381MA1999999070061MD1710131+9999REMSYN05852787 32978 01606 11008 21158 37006 57013 333 00203 21138=
0163527870999992017020109004+37200+102867FM-12+304499999V0201601N007019999999N024000199-00111-01561999999ADDGA1021+999999999GE19AGL   +99999+99999GF102991021999999999999999MA1999999070071MD1210011+9999REMSYN05852787 32974 21607 11011 21156 37007 52001 82/// 333 00104=
0119527870999992017020112004+37200+102867FM-12+304499999V0201801N005019999999N030000199-00731-01561999999ADDGF100995999999999999999999MA1999999070131MD1210061+9999REMSYN05252787 32980 01805 11073 21156 37013 52006 333 05103=
0138527870999992017020118004+37200+102867FM-12+304499999V0201601N00401002401CN030000199-00981-01361999999ADDGF109991999999999999999999KA1120M+00001MA1999999070031MD1710071+9999REMSYN05852787 32/80 91604 11098 21136 37003 57007 333 05201 10000=
0119527870999992017020121004+37200+102867FM-12+304499999V0201601N00101002401CN030000199-00481-01891999999ADDGF109991999999999999999999MA1999999069951MD1710081+9999REMSYN05252787 32/80 91601 11048 21189 36995 57008 333 05208=
0119527870999992017020200004+37200+102867FM-12+304499999V0203601N003019999999N030000199-00381-01921999999ADDGF100995999999999999999999MA1999999069971MD1210021+9999REMSYN05252787 32980 03603 11038 21192 36997 52002 333 05210=
0109527870999992017020203004+37200+102867FM-12+304499999V0202901N004019999999N029000199-00241-01721999999ADDGF100995999999999999999999MA1999999070061MD1210091+9999REMSYN04252787 32979 02904 11024 21172 37006 52009=
0138527870999992017020206004+37200+102867FM-12+304499999V0200201N008019999999N028000199+00291-02041999999ADDGF100995999999999999999999KA1240N-01151MA1999999069921MD1710141+9999REMSYN05852787 32678 00208 10029 21204 36992 57014 333 05104 21115=
0163527870999992017020209004+37200+102867FM-12+304499999V0200201N005019999999N027000199+00161-02221999999ADDGA1021+012501999GE19AGL   +99999+99999GF102991021999012501999999MA1999999069961MD1210041+9999REMSYN05852787 32677 20205 10016 21222 36996 52004 82/// 333 05103=
0163527870999992017020212004+37200+102867FM-12+304499999V0201101N001019999999N030000199-00291-01921999999ADDGA1071+017501999GE19AGL   +99999+99999GF107991071999017501999999MA1999999070111MD1210151+9999REMSYN05852787 32780 71101 11029 21192 37011 52015 87/// 333 00004=
0138527870999992017020218004+37200+102867FM-12+304499999V0201601N00201002401CN029000199-00661-01951999999ADDGF109991999999999999999999KA1120M+00411MA1999999070071MD1710031+9999REMSYN05852787 32/79 91602 11066 21195 37007 57003 333 00003 10041=
0119527870999992017020221004+37200+102867FM-12+304499999V0201801N00101002401CN030000199-00411-01941999999ADDGF109991999999999999999999MA1999999069951MD1710121+9999REMSYN05252787 32/80 91801 11041 21194 36995 57012 333 00001=
0163527870999992017020300004+37200+102867FM-12+304499999V0201101N002019999999N029000199-00521-02081999999ADDGA1071+999999999GE19AGL   +99999+99999GF107991071999999999999999MA1999999069941MD1710011+9999REMSYN05852787 32979 71102 11052 21208 36994 57001 87/// 333 00051=
0153527870999992017020303004+37200+102867FM-12+304499999V0203201N010019999999N030000199-00671-01661999999ADDGA1071+017501999GE19AGL   +99999+99999GF107991071999017501999999MA1999999069951MD1210011+9999REMSYN04852787 32780 73210 11067 21166 36995 52001 87///=
0182527870999992017020306004+37200+102867FM-12+304499999V0203401N007019999999N030000199-00131-01701999999ADDGA1061+012501999GE19AGL   +99999+99999GF106991061999012501999999KA1240N-01211MA1999999069811MD1710141+9999REMSYN06452787 32680 63407 11013 21170 36981 57014 86/// 333 05154 21121=
0163527870999992017020309004+37200+102867FM-12+304499999V0203601N008019999999N030000199-00391-01851999999ADDGA1071+017501999GE19AGL   +99999+99999GF107991071999017501999999MA1999999069961MD1210151+9999REMSYN05852787 32780 73608 11039 21185 36996 52015 87/// 333 00056=
0163527870999992017020312004+37200+102867FM-12+304499999V0203601N003019999999N030000199-00621-01721999999ADDGA1071+017501999GE19AGL   +99999+99999GF107991071999017501999999MA1999999070101MD1210141+9999REMSYN05852787 32780 73603 11062 21172 37010 52014 87/// 333 00053=
0138527870999992017020318004+37200+102867FM-12+304499999V0201601N00501002401CN030000199-00971-01791999999ADDGF109991999999999999999999KA1120M-00081MA1999999070011MD1710061+9999REMSYN05852787 32/80 91605 11097 21179 37001 57006 333 05153 11008=
0119527870999992017020321004+37200+102867FM-12+304499999V0201601N00501002401CN030000199-00801-01631999999ADDGF109991999999999999999999MA1999999069911MD1710101+9999REMSYN05252787 32/80 91605 11080 21163 36991 57010 333 00054=
0163527870999992017020400004+37200+102867FM-12+304499999V0200701N001019999999N030000199-00311-02291999999ADDGA1061+999999999GE19AGL   +99999+99999GF106991061999999999999999MA1999999069921MD1210011+9999REMSYN05852787 32980 60701 11031 21229 36992 52001 86/// 333 00002=
0153527870999992017020403004+37200+102867FM-12+304499999V0202901N005019999999N029000199+00451-02571999999ADDGA1071+999999999GE19AGL   +99999+99999GF107991071999999999999999MA1999999069911MD1710011+9999REMSYN04852787 32979 72905 10045 21257 36991 57001 87///=
0182527870999992017020406004+37200+102867FM-12+304499999V0202901N006019999999N024000199+00741-02471999999ADDGA1071+999999999GE19AGL   +99999+99999GF107991071999999999999999KA1240N-01081MA1999999069711MD1710201+9999REMSYN06452787 32974 72906 10074 21247 36971 57020 87/// 333 05109 21108=
0163527870999992017020409004+37200+102867FM-12+304499999V0203401N007019999999N027000199+00461-01831999999ADDGA1041+999999999GE19AGL   +99999+99999GF104991041999999999999999MA1999999069811MD1210101+9999REMSYN05852787 32977 43407 10046 21183 36981 52010 84/// 333 05209=
0163527870999992017020412004+37200+102867FM-12+304499999V0203201N002019999999N030000199-00241-01801999999ADDGA1071+999999999GE19AGL   +99999+99999GF107991071999999999999999MA1999999070001MD1210191+9999REMSYN05852787 32980 73202 11024 21180 37000 52019 87/// 333 05104=
0138527870999992017020418004+37200+102867FM-12+304499999V0201601N00801002401CN030000199-00421-02081999999ADDGF109991999999999999999999KA1120M+00931MA1999999069921MD1710121+9999REMSYN05852787 32/80 91608 11042 21208 36992 57012 333 05106 10093=
0119527870999992017020421004+37200+102867FM-12+304499999V0201401N00901002401CN029000199-00231-02061999999ADDGF109991999999999999999999MA1999999069791MD1710131+9999REMSYN05252787 32/79 91409 11023 21206 36979 57013 333 05106=
0163527870999992017020500004+37200+102867FM-12+304499999V0201801N003019999999N028000199+00111-02261999999ADDGA1071+017501999GE19AGL   +99999+99999GF107991071999017501999999MA1999999069751MD1710041+9999REMSYN05852787 32778 71803 10011 21226 36975 57004 87/// 333 05204=
0153527870999992017020503004+37200+102867FM-12+304499999V0202901N001019999999N025000199+00631-02311999999ADDGA1071+017501999GE19AGL   +99999+99999GF107991071999017501999999MA1999999069761MD1210011+9999REMSYN04852787 32775 72901 10063 21231 36976 52001 87///=
0182527870999992017020506004+37200+102867FM-12+304499999V0203401N007019999999N023000199+01091-02531999999ADDGA1071+017501999GE19AGL   +99999+99999GF107991071999017501999999KA1240N-00631MA1999999069601MD1710161+9999REMSYN06452787 32773 73407 10109 21253 36960 57016 87/// 333 05104 21063=
0163527870999992017020509004+37200+102867FM-12+304499999V0203201N004019999999N020000199+00461-01981999999ADDGA1071+017501999GE19AGL   +99999+99999GF107991071999017501999999MA1999999069611MD1210011+9999REMSYN05852787 32770 73204 10046 21198 36961 52001 87/// 333 05200=
0119527870999992017020512004+37200+102867FM-12+304499999V0201401N008019999999N024000199+00381-02211999999ADDGF100995999999999999999999MA1999999069651MD1210041+9999REMSYN05252787 32974 01408 10038 21221 36965 52004 333 05406=
0138527870999992017020518004+37200+102867FM-12+304499999V0201601N00701002401CN025000199-00511-01711999999ADDGF109991999999999999999999KA1120M+01101MA1999999069551MD1710081+9999REMSYN05852787 32/75 91607 11051 21171 36955 57008 333 05451 10110=
0119527870999992017020521004+37200+102867FM-12+304499999V0201401N00401002401CN025000199-00421-01701999999ADDGF109991999999999999999999MA1999999069441MD1710111+9999REMSYN05252787 32/75 91404 11042 21170 36944 57011 333 05452=
0163527870999992017020600004+37200+102867FM-12+304499999V0203401N012019999999N030000199-01151-01721999999ADDGA1071+017501999GE19AGL   +99999+99999GF107991071999017501999999MA1999999069551MD1210111+9999REMSYN05852787 32780 73412 11115 21172 36955 52011 87/// 333 05263=
0153527870999992017020603004+37200+102867FM-12+304499999V0203401N011019999999N030000199-01331-01751999999ADDGA1071+017501999GE19AGL   +99999+99999GF107991071999017501999999MA1999999069631MD1210081+9999REMSYN04852787 32780 73411 11133 21175 36963 52008 87///=
0182527870999992017020606004+37200+102867FM-12+304499999V0203401N009019999999N027000199-01021-01771999999ADDGA1071+017501999GE19AGL   +99999+99999GF107991071999017501999999KA1240N-01341MA1999999069571MD1710061+9999REMSYN06452787 32777 73409 11102 21177 36957 57006 87/// 333 00071 21134=
0163527870999992017020609004+37200+102867FM-12+304499999V0203601N009019999999N029000199-00941-01761999999ADDGA1071+999999999GE19AGL   +99999+99999GF107991071999999999999999MA1999999069641MD1210071+9999REMSYN05852787 32979 73609 11094 21176 36964 52007 87/// 333 00064=
0163527870999992017020612004+37200+102867FM-12+304499999V0203401N008019999999N030000199-01471-01851999999ADDGA1071+999999999GE19AGL   +99999+99999GF107991071999999999999999MA1999999069901MD1210261+9999REMSYN05852787 32980 73408 11147 21185 36990 52026 87/// 333 00369=
0138527870999992017020618004+37200+102867FM-12+304499999V0203201N00901002401CN030000199-01401-01751999999ADDGF109991999999999999999999KA1120M-00341MA1999999069981MD1710031+9999REMSYN05852787 32/80 93209 11140 21175 36998 57003 333 00459 11034=
0119527870999992017020621004+37200+102867FM-12+304499999V0203401N01001002401CN030000199-01471-01791999999ADDGF109991999999999999999999MA1999999069911MD1710071+9999REMSYN05252787 32/80 93410 11147 21179 36991 57007 333 00561=
0163527870999992017020700004+37200+102867FM-12+304499999V0203601N013019999999N030000199-01301-01811999999ADDGA1071+017501999GE19AGL   +99999+99999GF107991071999017501999999MA1999999070061MD1210151+9999REMSYN05852787 32780 73613 11130 21181 37006 52015 87/// 333 00552=
0183527870999992017020703004+37200+102867FM-12+304499999V0203601N010019999999N030000199-01271-01801999999ADDGA1071+017501999GE19AGL   +99999+99999GF107991071999017501999999MA1999999070211MD1210151+9999OD139902001360REMSYN06452787 32780 73610 11127 21180 37021 52015 87/// 333 91120 91536=
0208527870999992017020706004+37200+102867FM-12+304499999V0203601N010019999999N029000199-01081-01761999999ADDGA1071+017501999GE19AGL   +99999+99999GF107991071999017501999999KA1240N-01681MA1999999070141MD1710071+9999OD139902001360REMSYN07652787 32779 73610 11108 21176 37014 57007 87/// 333 00651 21168 91120 91536=
0163527870999992017020709004+37200+102867FM-12+304499999V0203401N010019999999N030000199-01321-01831999999ADDGA1081+017501999GE19AGL   +99999+99999GF108991081999017501999999MA1999999070191MD1210051+9999REMSYN05852787 32780 83410 11132 21183 37019 52005 88/// 333 00654=
0208527870999992017020712004+37200+102867FM-12+304499999V0203601N013019999999N030000199-01401-01801999999ADDAA106000021AY171021AY201021GA1071+017501999GE19AGL   +99999+99999GF107991071999017501999999MA1999999070341MD1210151+9999MW1701REMSYN07052787 11780 73613 11140 21180 37034 52015 69901 77070 87/// 333 00401=
0164527870999992017020718004+37200+102867FM-12+304499999V0203401N00901002401CN029000199-01631-01771999999ADDGF109991999999999999999999KA1120M-00991MA1999999070391MD1710021+9999OD139901801360REMSYN07052787 32/79 93409 11163 21177 37039 57002 333 00452 11099 91118 91536=
0136527870999992017020721004+37200+102867FM-12+304499999V0203201N00301002401CN020000199-01571-01711999999ADDAA124000331GF109991999999999999999999MA1999999070331MD1710061+9999REMSYN05852787 42/70 93203 11157 21171 37033 57006 333 00451 70003=
0203527870999992017020800004+37200+102867FM-12+304499999V0203201N005019999999N024000199-01571-01711999999ADDAA106000531AA224000531GA1071+017501999GE19AGL   +99999+99999GF107991071999017501999999MA1999999070361MD1210031+9999REMSYN07652787 12774 73205 11157 21171 37036 52003 69951 87/// 333 00353 70005 92501=
0109527870999992017020803004+37200+102867FM-12+304499999V0203201N006019999999N030000199-01321-01431999999ADDGF100995999999999999999999MA1999999070451MD1210091+9999REMSYN04252787 42680 03206 11132 21143 37045 52009=
0182527870999992017020806004+37200+102867FM-12+304499999V0203401N006019999999N030000199-00951-01011999999ADDGA1021+012501999GE19AGL   +99999+99999GF102991021999012501999999KA1240N-01641MA1999999070351MD1710101+9999REMSYN06452787 32680 23406 11095 21101 37035 57010 82/// 333 00201 21164=
0163527870999992017020809004+37200+102867FM-12+304499999V0203201N006019999999N030000199-00911-00991999999ADDGA1061+017501999GE19AGL   +99999+99999GF106991061999017501999999MA1999999070361MD1210011+9999REMSYN05852787 32780 63206 11091 21099 37036 52001 86/// 333 00204=
0191527870999992017020812004+37200+102867FM-12+304499999V0202501N001019999999N012000199-01181-01231999999ADDAY101021AY201021GA1071+017501999GE19AGL   +99999+99999GF107991071999017501999999MA1999999070451MD1210091+9999MW1101REMSYN06452787 31762 72501 11118 21123 37045 52009 71000 87/// 333 00102=
0166527870999992017020818004+37200+102867FM-12+304499999V0201401N00301001201CN000500199-01291-01361999999ADDAY141021AY201021GF109991999999999999999999KA1120M-00731MA1999999070321MD1710091+9999MW1421REMSYN06452787 31/05 91403 11129 21136 37032 57009 74240 333 05103 11073=
0136527870999992017020821004+37200+102867FM-12+304499999V0203201N00101002401CN030000199-01181-01261999999ADDAA124000231GF109991999999999999999999MA1999999070201MD1710121+9999REMSYN05852787 32/80 93201 11118 21126 37020 57012 333 05104 70002=
0163527870999992017020900004+37200+102867FM-12+304499999V0203201N003019999999N030000199-01431-01621999999ADDGA1031+999999999GE19AGL   +99999+99999GF103991031999999999999999MA1999999070211MD1210011+9999REMSYN05852787 32980 33203 11143 21162 37021 52001 83/// 333 05201=
0153527870999992017020903004+37200+102867FM-12+304499999V0203201N003019999999N030000199-00921-01271999999ADDGA1031+999999999GE19AGL   +99999+99999GF103991031999999999999999MA1999999070281MD1210071+9999REMSYN04852787 32980 33203 11092 21127 37028 52007 83///=
0182527870999992017020906004+37200+102867FM-12+304499999V0203601N007019999999N030000199-00501-01261999999ADDGA1031+012501999GE19AGL   +99999+99999GF103991031999012501999999KA1240N-01501MA1999999070151MD1710131+9999REMSYN06452787 32680 33607 11050 21126 37015 57013 83/// 333 05205 21150=
0197527870999992017020909004+37200+102867FM-12+304499999V0203401N007019999999N025000199-00941-01121999999ADDAY181021AY201021GA1081+017501999GE19AGL   +99999+99999GF108991081999017501999999MA1999999070171MD1210021+9999MW1851REMSYN07052787 41775 83407 11094 21112 37017 52002 78580 88/// 333 05200 92501=
0214527870999992017020912004+37200+102867FM-12+304499999V0203401N004019999999N030000199-01241-01311999999ADDAA106001031AY181021AY201021GA1081+017501999GE19AGL   +99999+99999GF108991081999017501999999MA1999999070331MD1210161+9999MW1851REMSYN07652787 11780 83404 11124 21131 37033 52016 60011 78580 88/// 333 05151 92504=
0155527870999992017020918004+37200+102867FM-12+304499999V0201801N00501002401CN030000199-01221-01291999999ADDAA106000131GF109991999999999999999999KA1120M-00451MA1999999070301MD1710041+9999REMSYN06452787 12/80 91805 11122 21129 37030 57004 69911 333 00001 11045=
0136527870999992017020921004+37200+102867FM-12+304499999V0201801N00501002401CN030000199-01311-01391999999ADDAA124001231GF109991999999999999999999MA1999999070221MD1710081+9999REMSYN05852787 42/80 91805 11131 21139 37022 57008 333 00051 70012=
0203527870999992017021000004+37200+102867FM-12+304499999V0201801N003019999999N030000199-01461-01561999999ADDAA112000131AA224001231GA1071+017501999GE19AGL   +99999+99999GF107991071999017501999999MA1999999070261MD1210041+9999REMSYN07652787 12780 71803 11146 21156 37026 52004 69912 87/// 333 00100 70012 92504=
0153527870999992017021003004+37200+102867FM-12+304499999V0203401N001019999999N030000199-01301-01381999999ADDGA1071+017501999GE19AGL   +99999+99999GF107991071999017501999999MA1999999070401MD1210141+9999REMSYN04852787 32780 73401 11130 21138 37040 52014 87///=
0182527870999992017021006004+37200+102867FM-12+304499999V0203401N005019999999N030000199-01091-01141999999ADDGA1071+017501999GE19AGL   +99999+99999GF107991071999017501999999KA1240N-01551MA1999999070311MD1710091+9999REMSYN06452787 32780 73405 11109 21114 37031 57009 87/// 333 00256 21155=
0197527870999992017021009004+37200+102867FM-12+304499999V0203401N004019999999N030000199-01111-01221999999ADDAY171021AY201021GA1071+017501999GE19AGL   +99999+99999GF107991071999017501999999MA1999999070341MD1210031+9999MW1001REMSYN07052787 41780 73404 11111 21122 37034 52003 70070 87/// 333 00252 92504=
0208527870999992017021012004+37200+102867FM-12+304499999V0203201N002019999999N030000199-01291-01401999999ADDAA106000131AY171021AY201021GA1071+017501999GE19AGL   +99999+99999GF107991071999017501999999MA1999999070491MD1210151+9999MW1001REMSYN07052787 11780 73202 11129 21140 37049 52015 69911 70070 87/// 333 00251=
0138527870999992017021018004+37200+102867FM-12+304499999V0201601N00301002401CN030000199-01431-01521999999ADDGF109991999999999999999999KA1120M-01021MA1999999070451MD1710021+9999REMSYN05852787 32/80 91603 11143 21152 37045 57002 333 00252 11102=
0136527870999992017021021004+37200+102867FM-12+304499999V0203401N00201002401CN030000199-01301-01761999999ADDAA124000131GF109991999999999999999999MA1999999070321MD1710131+9999REMSYN05852787 32/80 93402 11130 21176 37032 57013 333 00100 70001=
0186527870999992017021100004+37200+102867FM-12+304499999V0202901N001019999999N030000199-00981-02331999999ADDAA124000131GA1021+999999999GE19AGL   +99999+99999GF102991021999999999999999MA1999999070331MD1210011+9999REMSYN07052787 32980 22901 11098 21233 37033 52001 82/// 333 00105 70001 92504=
0153527870999992017021103004+37200+102867FM-12+304499999V0203201N003019999999N030000199-00561-01931999999ADDGA1021+999999999GE19AGL   +99999+99999GF102991021999999999999999MA1999999070401MD1210071+9999REMSYN04852787 32980 23203 11056 21193 37040 52007 82///=
0138527870999992017021106004+37200+102867FM-12+304499999V0200201N004019999999N029000199-00171-02171999999ADDGF100995999999999999999999KA1240N-01561MA1999999070291MD1710111+9999REMSYN05852787 32679 00204 11017 21217 37029 57011 333 00009 21156=
0163527870999992017021109004+37200+102867FM-12+304499999V0203601N006019999999N028000199-00171-02111999999ADDGA1011+012501999GE19AGL   +99999+99999GF101991011999012501999999MA1999999070321MD1210031+9999REMSYN05852787 32678 13606 11017 21211 37032 52003 81/// 333 00009=
0163527870999992017021112004+37200+102867FM-12+304499999V0201801N004019999999N030000199-00711-02091999999ADDGA1021+999999999GE19AGL   +99999+99999GF102991021999999999999999MA1999999070441MD1210121+9999REMSYN05852787 32980 21804 11071 21209 37044 52012 82/// 333 05106=
0138527870999992017021118004+37200+102867FM-12+304499999V0201801N00201002401CN030000199-00651-01901999999ADDGF109991999999999999999999KA1120M-00131MA1999999070401MD1710091+9999REMSYN05852787 32/80 91802 11065 21190 37040 57009 333 05108 11013=
0119527870999992017021121004+37200+102867FM-12+304499999V0202501N00501002401CN030000199-00641-02001999999ADDGF109991999999999999999999MA1999999070331MD1710071+9999REMSYN05252787 32/80 92505 11064 21200 37033 57007 333 00007=
0119527870999992017021200004+37200+102867FM-12+304499999V0201601N002019999999N030000199-00651-02191999999ADDGF100995999999999999999999MA1999999070361MD1210031+9999REMSYN05252787 32980 01602 11065 21219 37036 52003 333 00003=
0109527870999992017021203004+37200+102867FM-12+304499999V0201801N003019999999N025000199+00071-02221999999ADDGF100995999999999999999999MA1999999070391MD1210031+9999REMSYN04252787 32975 01803 10007 21222 37039 52003=
0138527870999992017021206004+37200+102867FM-12+304499999V0201801N005019999999N026000199+00391-02041999999ADDGF100995999999999999999999KA1240N-00931MA1999999070271MD1710121+9999REMSYN05852787 32976 01805 10039 21204 37027 57012 333 00006 21093=
0119527870999992017021209004+37200+102867FM-12+304499999V0203601N009019999999N028000199+00001-01971999999ADDGF100995999999999999999999MA1999999070281MD1210011+9999REMSYN05252787 32978 03609 10000 21197 37028 52001 333 00002=
0119527870999992017021212004+37200+102867FM-12+304499999V0200201N006019999999N029000199-00491-01831999999ADDGF100995999999999999999999MA1999999070471MD1210191+9999REMSYN05252787 32979 00206 11049 21183 37047 52019 333 00002=
0138527870999992017021218004+37200+102867FM-12+304499999V0202201N00401002401CN030000199-00551-01851999999ADDGF109991999999999999999999KA1120M+00491MA1999999070541MD1710011+9999REMSYN05852787 32/80 92204 11055 21185 37054 57001 333 00101 10049=
0119527870999992017021221004+37200+102867FM-12+304499999V0201601N00301002401CN030000199-00671-01861999999ADDGF109991999999999999999999MA1999999070481MD1710061+9999REMSYN05252787 32/80 91603 11067 21186 37048 57006 333 00200=
0163527870999992017021300004+37200+102867FM-12+304499999V0201801N003019999999N029000199-00641-01661999999ADDGA1071+017501999GE19AGL   +99999+99999GF107991071999017501999999MA1999999070501MD1210021+9999REMSYN05852787 32779 71803 11064 21166 37050 52002 87/// 333 00100=
0153527870999992017021303004+37200+102867FM-12+304499999V0201601N010019999999N027000199-00271-01601999999ADDGA1071+017501999GE19AGL   +99999+99999GF107991071999017501999999MA1999999070551MD1210051+9999REMSYN04852787 32777 71610 11027 21160 37055 52005 87///=
0182527870999992017021306004+37200+102867FM-12+304499999V0201601N009019999999N029000199-00031-01571999999ADDGA1071+017501999GE19AGL   +99999+99999GF107991071999017501999999KA1240N-00831MA1999999070511MD1710041+9999REMSYN06452787 32779 71609 11003 21157 37051 57004 87/// 333 00254 21083=
0163527870999992017021309004+37200+102867FM-12+304499999V0203601N008019999999N026000199-00301-01661999999ADDGA1071+017501999GE19AGL   +99999+99999GF107991071999017501999999MA1999999070561MD1210051+9999REMSYN05852787 32776 73608 11030 21166 37056 52005 87/// 333 00353=
0163527870999992017021312004+37200+102867FM-12+304499999V0203201N003019999999N028000199-00911-01801999999ADDGA1021+999999999GE19AGL   +99999+99999GF102991021999999999999999MA1999999070751MD1210191+9999REMSYN05852787 32978 23203 11091 21180 37075 52019 82/// 333 00354=
0138527870999992017021318004+37200+102867FM-12+304499999V0200201N00801002401CN030000199-00331-02551999999ADDGF109991999999999999999999KA1120M+00171MA1999999070781MD1710051+9999REMSYN05852787 32/80 90208 11033 21255 37078 57005 333 00202 10017=
0119527870999992017021321004+37200+102867FM-12+304499999V0202701N00201002401CN030000199-00541-02541999999ADDGF109991999999999999999999MA1999999070741MD1710041+9999REMSYN05252787 32/80 92702 11054 21254 37074 57004 333 00301=
0119527870999992017021400004+37200+102867FM-12+304499999V0202501N003019999999N030000199-00581-02311999999ADDGF100995999999999999999999MA1999999070751MD1210011+9999REMSYN05252787 32980 02503 11058 21231 37075 52001 333 00301=
0109527870999992017021403004+37200+102867FM-12+304499999V0202201N003019999999N023000199+00111-01881999999ADDGF100995999999999999999999MA1999999070761MD1210011+9999REMSYN04252787 32973 02203 10011 21188 37076 52001=
0182527870999992017021406004+37200+102867FM-12+304499999V0201601N006019999999N024000199+00361-01991999999ADDGA1021+999999999GE19AGL   +99999+99999GF102991021999999999999999KA1240N-00951MA1999999070591MD1710171+9999REMSYN06452787 32974 21606 10036 21199 37059 57017 82/// 333 00104 21095=
0163527870999992017021409004+37200+102867FM-12+304499999V0203601N007019999999N023000199+00261-02221999999ADDGA1031+999999999GE19AGL   +99999+99999GF103991031999999999999999MA1999999070541MD1710051+9999REMSYN05852787 32973 33607 10026 21222 37054 57005 83/// 333 00006=
0163527870999992017021412004+37200+102867FM-12+304499999V0201401N003019999999N029000199-00331-02001999999ADDGA1051+999999999GE19AGL   +99999+99999GF105991051999999999999999MA1999999070661MD1210121+9999REMSYN05852787 32979 51403 11033 21200 37066 52012 85/// 333 05106=
0138527870999992017021418004+37200+102867FM-12+304499999V0201601N00301002401CN027000199-00351-01641999999ADDGF109991999999999999999999KA1120M+00511MA1999999070471MD1710171+9999REMSYN05852787 32/77 91603 11035 21164 37047 57017 333 05300 10051=
0119527870999992017021421004+37200+102867FM-12+304499999V0203201N00101002401CN030000199-00391-01931999999ADDGF109991999999999999999999MA1999999070361MD1710111+9999REMSYN05252787 32/80 93201 11039 21193 37036 57011 333 05402=
0119527870999992017021500004+37200+102867FM-12+304499999V0203201N003019999999N029000199-00381-02141999999ADDGF100995999999999999999999MA1999999070311MD1710051+9999REMSYN05252787 32979 03203 11038 21214 37031 57005 333 05402=
0109527870999992017021503004+37200+102867FM-12+304499999V0202901N010019999999N028000199+00271-02591999999ADDGF100995999999999999999999MA1999999070211MD1710101+9999REMSYN04252787 32978 02910 10027 21259 37021 57010=
0164527870999992017021506004+37200+102867FM-12+304499999V0202901N010019999999N023000199+00641-02701999999ADDGF100995999999999999999999KA1240N-00571MA1999999070021MD1710191+9999OD139901801290REMSYN07052787 32973 02910 10064 21270 37002 57019 333 05603 21057 91118 91529=
0189527870999992017021509004+37200+102867FM-12+304499999V0202901N009019999999N023000199+00581-02741999999ADDGA1071+999999999GE19AGL   +99999+99999GF107991071999999999999999MA1999999069961MD1710061+9999OD139901801290REMSYN07052787 32973 72909 10058 21274 36996 57006 87/// 333 05603 91118 91529=
0163527870999992017021512004+37200+102867FM-12+304499999V0203201N003019999999N027000199+00171-02781999999ADDGA1021+999999999GE19AGL   +99999+99999GF102991021999999999999999MA1999999070071MD1210111+9999REMSYN05852787 32977 23203 10017 21278 37007 52011 82/// 333 05605=
0138527870999992017021518004+37200+102867FM-12+304499999V0200201N00601002401CN028000199-00351-02571999999ADDGF109991999999999999999999KA1120M+00761MA1999999070061MD1710061+9999REMSYN05852787 32/78 90206 11035 21257 37006 57006 333 05400 10076=
0119527870999992017021521004+37200+102867FM-12+304499999V0203201N00201002401CN029000199-00641-02561999999ADDGF109991999999999999999999MA1999999069911MD1710151+9999REMSYN05252787 32/79 93202 11064 21256 36991 57015 333 05553=
0163527870999992017021600004+37200+102867FM-12+304499999V0203201N009019999999N029000199-01041-02081999999ADDGA1021+999999999GE19AGL   +99999+99999GF102991021999999999999999MA1999999070001MD1210091+9999REMSYN05852787 32979 23209 11104 21208 37000 52009 82/// 333 05357=
0153527870999992017021603004+37200+102867FM-12+304499999V0200201N008019999999N026000199-00381-02341999999ADDGA1071+999999999GE19AGL   +99999+99999GF107991071999999999999999MA1999999070241MD1210241+9999REMSYN04852787 32976 70208 11038 21234 37024 52024 87///=
0182527870999992017021606004+37200+102867FM-12+304499999V0203601N007019999999N026000199-00121-02251999999ADDGA1071+999999999GE19AGL   +99999+99999GF107991071999999999999999KA1240N-01061MA1999999070271MD1210031+9999REMSYN06452787 32976 73607 11012 21225 37027 52003 87/// 333 00358 21106=
0163527870999992017021609004+37200+102867FM-12+304499999V0203601N010019999999N026000199-00261-02131999999ADDGA1071+999999999GE19AGL   +99999+99999GF107991071999999999999999MA1999999070321MD1210051+9999REMSYN05852787 32976 73610 11026 21213 37032 52005 87/// 333 00458=
0163527870999992017021612004+37200+102867FM-12+304499999V0203201N009019999999N029000199-00861-01711999999ADDGA1071+999999999GE19AGL   +99999+99999GF107991071999999999999999MA1999999070511MD1210191+9999REMSYN05852787 32979 73209 11086 21171 37051 52019 87/// 333 00460=
0138527870999992017021618004+37200+102867FM-12+304499999V0201601N00501002401CN027000199-01061-01891999999ADDGF109991999999999999999999KA1120M-00081MA1999999070461MD1710121+9999REMSYN05852787 32/77 91605 11106 21189 37046 57012 333 00457 11008=
0119527870999992017021621004+37200+102867FM-12+304499999V0201601N00301002401CN029000199-01091-01851999999ADDGF109991999999999999999999MA1999999070411MD1710051+9999REMSYN05252787 32/79 91603 11109 21185 37041 57005 333 00555=
0163527870999992017021700004+37200+102867FM-12+304499999V0200201N005019999999N030000199-00841-01641999999ADDGA1061+999999999GE19AGL   +99999+99999GF106991061999999999999999MA1999999070541MD1210131+9999REMSYN05852787 32980 60205 11084 21164 37054 52013 86/// 333 00502=
0153527870999992017021703004+37200+102867FM-12+304499999V0203401N004019999999N029000199-00511-01431999999ADDGA1021+999999999GE19AGL   +99999+99999GF102991021999999999999999MA1999999070641MD1210101+9999REMSYN04852787 32979 23404 11051 21143 37064 52010 82///=
0182527870999992017021706004+37200+102867FM-12+304499999V0201801N005019999999N025000199+00041-01591999999ADDGA1031+999999999GE19AGL   +99999+99999GF103991031999999999999999KA1240N-01151MA1999999070521MD1710121+9999REMSYN06452787 32975 31805 10004 21159 37052 57012 83/// 333 00302 21115=
0163527870999992017021709004+37200+102867FM-12+304499999V0203601N009019999999N024000199+00041-01681999999ADDGA1071+017501999GE19AGL   +99999+99999GF107991071999017501999999MA1999999070481MD1710041+9999REMSYN05852787 32774 73609 10004 21168 37048 57004 87/// 333 00203=
0163527870999992017021712004+37200+102867FM-12+304499999V0202901N003019999999N030000199-00621-01781999999ADDGA1021+999999999GE19AGL   +99999+99999GF102991021999999999999999MA1999999070591MD1210111+9999REMSYN05852787 32980 22903 11062 21178 37059 52011 82/// 333 00102=
0138527870999992017021718004+37200+102867FM-12+304499999V0201401N00401002401CN029000199-00861-01571999999ADDGF109991999999999999999999KA1120M+00121MA1999999070601MD1710061+9999REMSYN05852787 32/79 91404 11086 21157 37060 57006 333 00102 10012=
0119527870999992017021721004+37200+102867FM-12+304499999V0201601N00401002401CN030000199-00811-01611999999ADDGF109991999999999999999999MA1999999070441MD1710161+9999REMSYN05252787 32/80 91604 11081 21161 37044 57016 333 00003=
0163527870999992017021800004+37200+102867FM-12+304499999V0203601N006019999999N029000199-00101-02051999999ADDGA1021+999999999GE19AGL   +99999+99999GF102991021999999999999999MA1999999070501MD1210061+9999REMSYN05852787 32979 23606 11010 21205 37050 52006 82/// 333 00007=
0109527870999992017021803004+37200+102867FM-12+304499999V0203601N002019999999N027000199+00431-01861999999ADDGF100995999999999999999999MA1999999070511MD1210011+9999REMSYN04252787 32977 03602 10043 21186 37051 52001=
0138527870999992017021806004+37200+102867FM-12+304499999V0201401N008019999999N024000199+00661-01901999999ADDGF100995999999999999999999KA1240N-00911MA1999999070291MD1710221+9999REMSYN05852787 32974 01408 10066 21190 37029 57022 333 05206 21091=
0119527870999992017021809004+37200+102867FM-12+304499999V0201401N007019999999N021000199+00651-01821999999ADDGF100995999999999999999999MA1999999070151MD1710141+9999REMSYN05252787 32971 01407 10065 21182 37015 57014 333 05306=
0119527870999992017021812004+37200+102867FM-12+304499999V0201601N009019999999N026000199+00121-01711999999ADDGF100995999999999999999999MA1999999070121MD1710031+9999REMSYN05252787 32976 01609 10012 21171 37012 57003 333 05507=
0138527870999992017021818004+37200+102867FM-12+304499999V0202901N01001002401CN027000199+00371-02511999999ADDGF109991999999999999999999KA1120M+00791MA1999999069771MD1710271+9999REMSYN05852787 32/77 92910 10037 21251 36977 57027 333 05812 10079=
0145527870999992017021821004+37200+102867FM-12+304499999V0203201N01301002401CN027000199+00511-02791999999ADDGF109991999999999999999999MA1999999069471MD1710301+9999OD139902001320REMSYN06452787 32/77 93213 10051 21279 36947 57030 333 06013 91120 91532=
0189527870999992017021900004+37200+102867FM-12+304499999V0203401N005019999999N029000199+00111-02711999999ADDGA1071+017501999GE19AGL   +99999+99999GF107991071999017501999999MA1999999069541MD1210071+9999OD139902001320REMSYN07052787 32779 73405 10011 21271 36954 52007 87/// 333 06002 91120 91532=
0183527870999992017021903004+37200+102867FM-12+304499999V0203201N008019999999N023000199+00561-02361999999ADDGA1021+999999999GE19AGL   +99999+99999GF102991021999999999999999MA1999999069611MD1210071+9999OD139901901320REMSYN06452787 32973 23208 10056 21236 36961 52007 82/// 333 91119 91532=
0182527870999992017021906004+37200+102867FM-12+304499999V0203201N009019999999N022000199+00761-02001999999ADDGA1031+999999999GE19AGL   +99999+99999GF103991031999999999999999KA1240N-00411MA1999999069581MD1710031+9999REMSYN06452787 32972 33209 10076 21200 36958 57003 83/// 333 05701 21041=
0163527870999992017021909004+37200+102867FM-12+304499999V0203201N004019999999N024000199+00381-01771999999ADDGA1071+999999999GE19AGL   +99999+99999GF107991071999999999999999MA1999999069631MD1210051+9999REMSYN05852787 32974 73204 10038 21177 36963 52005 87/// 333 05553=
0163527870999992017021912004+37200+102867FM-12+304499999V0202901N005019999999N028000199-00321-01711999999ADDGA1061+017501999GE19AGL   +99999+99999GF106991061999017501999999MA1999999069761MD1210131+9999REMSYN05852787 32778 62905 11032 21171 36976 52013 86/// 333 05454=
0164527870999992017021918004+37200+102867FM-12+304499999V0201401N01701002401CN028000199-00221-01591999999ADDGF109991999999999999999999KA1120M+00921MA1999999069521MD1710261+9999OD139901901140REMSYN07052787 32/78 91417 11022 21159 36952 57026 333 05356 10092 91119 91514=
0145527870999992017021921004+37200+102867FM-12+304499999V0201401N01701002401CN029000199-00361-01351999999ADDGF109991999999999999999999MA1999999069381MD1710141+9999OD139902101140REMSYN06452787 32/79 91417 11036 21135 36938 57014 333 05159 91121 91514=
0189527870999992017022000004+37200+102867FM-12+304499999V0201401N018019999999N029000199-00471-01351999999ADDGA1071+017501999GE19AGL   +99999+99999GF107991071999017501999999MA1999999069381MD1410001+9999OD139902101140REMSYN07052787 32779 71418 11047 21135 36938 54000 87/// 333 05256 91121 91514=
0183527870999992017022003004+37200+102867FM-12+304499999V0201401N016019999999N029000199-00371-01071999999ADDGA1071+017501999GE19AGL   +99999+99999GF107991071999017501999999MA1999999069381MD1410001+9999OD139902101140REMSYN06452787 32779 71416 11037 21107 36938 54000 87/// 333 91121 91514=
0208527870999992017022006004+37200+102867FM-12+304499999V0203201N003019999999N024000199-00191-01491999999ADDGA1071+017501999GE19AGL   +99999+99999GF107991071999017501999999KA1240N-00531MA1999999069331MD1710051+9999OD139902101140REMSYN07652787 32774 73203 11019 21149 36933 57005 87/// 333 05360 21053 91121 91514=
0189527870999992017022009004+37200+102867FM-12+304499999V0200201N012019999999N027000199-00811-01711999999ADDGA1071+999999999GE19AGL   +99999+99999GF107991071999999999999999MA1999999069381MD1210051+9999OD139901901140REMSYN07052787 32977 70212 11081 21171 36938 52005 87/// 333 05362 91119 91514=
0189527870999992017022012004+37200+102867FM-12+304499999V0203601N011019999999N029000199-01211-01861999999ADDGA1071+017501999GE19AGL   +99999+99999GF107991071999017501999999MA1999999069691MD1210311+9999OD139901701360REMSYN07052787 32779 73611 11121 21186 36969 52031 87/// 333 05159 91117 91536=
0181527870999992017022018004+37200+102867FM-12+304499999V0203401N01201002401CN030000199-01511-01751999999ADDAA106000231GF109991999999999999999999KA1120M+00121MA1999999069801MD1210021+9999OD139902001360REMSYN07652787 12/80 93412 11151 21175 36980 52002 69921 333 00363 10012 91120 91536=
0162527870999992017022021004+37200+102867FM-12+304499999V0203601N01301002401CN030000199-01271-01731999999ADDAA124000231GF109991999999999999999999MA1999999069821MD1210021+9999OD139901801360REMSYN07052787 32/80 93613 11127 21173 36982 52002 333 00459 70002 91118 91536=
0229527870999992017022100004+37200+102867FM-12+304499999V0203401N012019999999N030000199-01751-01961999999ADDAA106000231AA224000431GA1071+017501999GE19AGL   +99999+99999GF107991071999017501999999MA1999999069991MD1210171+9999OD139901801360REMSYN08852787 12780 73412 11175 21196 36999 52017 69921 87/// 333 00663 70004 91118 91536 92501=
0183527870999992017022103004+37200+102867FM-12+304499999V0203201N013019999999N030000199-01391-01511999999ADDGA1071+017501999GE19AGL   +99999+99999GF107991071999017501999999MA1999999070131MD1210141+9999OD139901801360REMSYN06452787 42780 73213 11139 21151 37013 52014 87/// 333 91118 91536=
0182527870999992017022106004+37200+102867FM-12+304499999V0203601N010019999999N030000199-00851-01461999999ADDGA1071+999999999GE19AGL   +99999+99999GF107991071999999999999999KA1240N-01751MA1999999070051MD1710081+9999REMSYN06452787 32980 73610 11085 21146 37005 57008 87/// 333 00757 21175=
0163527870999992017022109004+37200+102867FM-12+304499999V0203601N010019999999N030000199-01021-01581999999ADDGA1071+017501999GE19AGL   +99999+99999GF107991071999017501999999MA1999999070081MD1210031+9999REMSYN05852787 32780 73610 11102 21158 37008 52003 87/// 333 00752=
0163527870999992017022112004+37200+102867FM-12+304499999V0203601N010019999999N030000199-01201-01771999999ADDGA1071+017501999GE19AGL   +99999+99999GF107991071999017501999999MA1999999070181MD1210101+9999REMSYN05852787 32780 73610 11120 21177 37018 52010 87/// 333 00500=
0138527870999992017022118004+37200+102867FM-12+304499999V0203601N01101002401CN030000199-01151-01701999999ADDGF109991999999999999999999KA1120M-00841MA1999999070261MD1710041+9999REMSYN05852787 32/80 93611 11115 21170 37026 57004 333 00504 11084=
0136527870999992017022121004+37200+102867FM-12+304499999V0203401N00701002401CN030000199-01371-01531999999ADDAA124000231GF109991999999999999999999MA1999999070231MD1710031+9999REMSYN05852787 32/80 93407 11137 21153 37023 57003 333 00451 70002=
0163527870999992017022200004+37200+102867FM-12+304499999V0203201N003019999999N030000199-01461-01591999999ADDGA1071+017501999GE19AGL   +99999+99999GF107991071999017501999999MA1999999070251MD1210021+9999REMSYN05852787 32780 73203 11146 21159 37025 52002 87/// 333 00303=
0153527870999992017022203004+37200+102867FM-12+304499999V0203401N004019999999N030000199-00951-01681999999ADDGA1071+999999999GE19AGL   +99999+99999GF107991071999999999999999MA1999999070301MD1210051+9999REMSYN04852787 32980 73404 11095 21168 37030 52005 87///=
0182527870999992017022206004+37200+102867FM-12+304499999V0203601N007019999999N030000199-00731-01691999999ADDGA1071+017501999GE19AGL   +99999+99999GF107991071999017501999999KA1240N-01471MA1999999070141MD1710161+9999REMSYN06452787 32780 73607 11073 21169 37014 57016 87/// 333 00101 21147=
0163527870999992017022209004+37200+102867FM-12+304499999V0200201N006019999999N030000199-00971-01701999999ADDGA1071+017501999GE19AGL   +99999+99999GF107991071999017501999999MA1999999070191MD1210051+9999REMSYN05852787 32780 70206 11097 21170 37019 52005 87/// 333 00101=
0163527870999992017022212004+37200+102867FM-12+304499999V0203201N001019999999N030000199-01191-02011999999ADDGA1071+017501999GE19AGL   +99999+99999GF107991071999017501999999MA1999999070351MD1210161+9999REMSYN05852787 32780 73201 11119 21201 37035 52016 87/// 333 00200=
0138527870999992017022218004+37200+102867FM-12+304499999V0201601N00201002401CN030000199-01371-01461999999ADDGF109991999999999999999999KA1120M-00671MA1999999070341MD1710041+9999REMSYN05852787 32/80 91602 11137 21146 37034 57004 333 00152 11067=
0119527870999992017022221004+37200+102867FM-12+304499999V0203201N00301002401CN030000199-01401-01821999999ADDGF109991999999999999999999MA1999999070211MD1710131+9999REMSYN05252787 32/80 93203 11140 21182 37021 57013 333 00000=
0163527870999992017022300004+37200+102867FM-12+304499999V0203201N003019999999N030000199-01411-01921999999ADDGA1051+999999999GE19AGL   +99999+99999GF105991051999999999999999MA1999999070241MD1210031+9999REMSYN05852787 32980 53203 11141 21192 37024 52003 85/// 333 00001=
0153527870999992017022303004+37200+102867FM-12+304499999V0201801N002019999999N030000199-00721-02141999999ADDGA1041+999999999GE19AGL   +99999+99999GF104991041999999999999999MA1999999070351MD1210111+9999REMSYN04852787 32980 41802 11072 21214 37035 52011 84///=
0182527870999992017022306004+37200+102867FM-12+304499999V0203401N008019999999N029000199-00501-01981999999ADDGA1071+999999999GE19AGL   +99999+99999GF107991071999999999999999KA1240N-01471MA1999999070201MD1710151+9999REMSYN06452787 32979 73408 11050 21198 37020 57015 87/// 333 00102 21147=
0163527870999992017022309004+37200+102867FM-12+304499999V0203401N008019999999N029000199-00721-02181999999ADDGA1071+012501999GE19AGL   +99999+99999GF107991071999012501999999MA1999999070201MD1410001+9999REMSYN05852787 32679 73408 11072 21218 37020 54000 87/// 333 00003=
0163527870999992017022312004+37200+102867FM-12+304499999V0203601N002019999999N030000199-01021-02171999999ADDGA1031+017501999GE19AGL   +99999+99999GF103991031999017501999999MA1999999070341MD1210141+9999REMSYN05852787 32780 33602 11102 21217 37034 52014 83/// 333 00002=
0138527870999992017022318004+37200+102867FM-12+304499999V0201601N00601002401CN030000199-01151-01261999999ADDGF109991999999999999999999KA1120M-00381MA1999999070321MD1710071+9999REMSYN05852787 32/80 91606 11115 21126 37032 57007 333 00002 11038=
0119527870999992017022321004+37200+102867FM-12+304499999V0201601N00401002401CN030000199-01271-01341999999ADDGF109991999999999999999999MA1999999070201MD1710121+9999REMSYN05252787 32/80 91604 11127 21134 37020 57012 333 00001=
0119527870999992017022400004+37200+102867FM-12+304499999V0201401N002019999999N017000199-01301-01391999999ADDGF100995999999999999999999MA1999999070231MD1210031+9999REMSYN05252787 32967 01402 11130 21139 37023 52003 333 00001=
0109527870999992017022403004+37200+102867FM-12+304499999V0203401N008019999999N030000199-00691-01481999999ADDGF100995999999999999999999MA1999999070321MD1210091+9999REMSYN04252787 32980 03408 11069 21148 37032 52009=
0182527870999992017022406004+37200+102867FM-12+304499999V0203601N011019999999N030000199-00541-01981999999ADDGA1021+012501999GE19AGL   +99999+99999GF102991021999012501999999KA1240N-01431MA1999999070271MD1710051+9999REMSYN06452787 32680 23611 11054 21198 37027 57005 82/// 333 00100 21143=
0163527870999992017022409004+37200+102867FM-12+304499999V0200201N007019999999N030000199-00771-02011999999ADDGA1071+017501999GE19AGL   +99999+99999GF107991071999017501999999MA1999999070391MD1210121+9999REMSYN05852787 32780 70207 11077 21201 37039 52012 87/// 333 00251=
0163527870999992017022412004+37200+102867FM-12+304499999V0203601N006019999999N030000199-01061-02211999999ADDGA1061+017501999GE19AGL   +99999+99999GF106991061999017501999999MA1999999070521MD1210131+9999REMSYN05852787 32780 63606 11106 21221 37052 52013 86/// 333 00200=
0138527870999992017022418004+37200+102867FM-12+304499999V0203401N00401002401CN030000199-01371-02281999999ADDGF109991999999999999999999KA1120M-00511MA1999999070461MD1710141+9999REMSYN05852787 32/80 93404 11137 21228 37046 57014 333 00152 11051=
0119527870999992017022421004+37200+102867FM-12+304499999V0203401N00401002401CN030000199-01271-02231999999ADDGF109991999999999999999999MA1999999070311MD1710151+9999REMSYN05252787 32/80 93404 11127 21223 37031 57015 333 00100=
0163527870999992017022500004+37200+102867FM-12+304499999V0201801N005019999999N030000199-01411-02011999999ADDGA1061+999999999GE19AGL   +99999+99999GF106991061999999999999999MA1999999070251MD1710061+9999REMSYN05852787 32980 61805 11141 21201 37025 57006 86/// 333 00051=
0153527870999992017022503004+37200+102867FM-12+304499999V0201401N008019999999N030000199-00901-01611999999ADDGA1071+012501999GE19AGL   +99999+99999GF107991071999012501999999MA1999999070221MD1710031+9999REMSYN04852787 32680 71408 11090 21161 37022 57003 87///=
0182527870999992017022506004+37200+102867FM-12+304499999V0203201N007019999999N028000199-00571-01831999999ADDGA1061+012501999GE19AGL   +99999+99999GF106991061999012501999999KA1240N-01471MA1999999070031MD1710191+9999REMSYN06452787 32678 63207 11057 21183 37003 57019 86/// 333 05200 21147=
0163527870999992017022509004+37200+102867FM-12+304499999V0203601N008019999999N030000199-00831-01801999999ADDGA1071+017501999GE19AGL   +99999+99999GF107991071999017501999999MA1999999070041MD1210011+9999REMSYN05852787 32780 73608 11083 21180 37004 52001 87/// 333 05451=
