0137583380999992017010100004+31150+118583FM-12+001699999V0209999C999999999999N001700199+00201+00141102681ADDGF100995999999999999999999MA1999999102155MD1210071+9999MW1101REMSYN06458338 31917 00000 10020 20014 40268 52007 710// 333 05502 30001=
0137583380999992017010103004+31150+118583FM-12+001699999V0201101N002019999999N999999999+01011+00451102571ADDAY101021AY201021GF100995999999999999999999MA1999999102055MD1710111+9999MW1051REMSYN04858338 31955 01102 10101 20045 40257 57011 70500=
0160583380999992017010106004+31150+118583FM-12+001699999V0203201N002019999999N007000199+01531+00581102251ADDAY101021AY201021GF100995999999999999999999KA1240N+00161MA1999999101745MD1710311+9999MW1051REMSYN05858338 31957 03202 10153 20058 40225 57031 70500 333 20016=
0181583380999992017010109004+31150+118583FM-12+001699999V0200401N002019999999N004800199+01261+00711102181ADDAY101021AY201021GA1071+999999999GE19AGL   +99999+99999GF107991071999999999999999MA1999999101675MD1710071+9999MW1051REMSYN05458338 31948 70402 10126 20071 40218 57007 70500 87///=
0181583380999992017010112004+31150+118583FM-12+001699999V0201101N003019999999N003800199+01131+00761102231ADDAY101021AY201021GA1071+999999999GE19AGL   +99999+99999GF107991071999999999999999MA1999999101725MD1210041+9999MW1101REMSYN05458338 31938 71103 10113 20076 40223 52004 71000 87///=
0166583380999992017010118004+31150+118583FM-12+001699999V0202701N00101002401CN001600199+00861+00751102241ADDAY101021AY201021GF109991999999999999999999KA1120M+01611MA1999999101731MD1710021+9999MW1101REMSYN06458338 31/16 92701 10086 20075 30173 40224 57002 71000 333 10161=
0121583380999992017010121004+31150+118583FM-12+001699999V0202701N00201002401CN002000199+00881+00761102311ADDGF109991999999999999999999MA1999999101795MD1210071+9999MW1101REMSYN04858338 31/20 92702 10088 20076 40231 52007 710//=
0209583380999992017010200004+31150+118583FM-12+001699999V0202201N002019999999N001400199+00861+00801102521ADDAA106000131AA224000131GA1071+999999999GE19AGL   +99999+99999GF107991071999999999999999MA1999999102005MD1210211+9999MW1101REMSYN07658338 11914 72202 10086 20080 40252 52021 69911 710// 87/// 333 05207 70001=
0181583380999992017010203004+31150+118583FM-12+001699999V0202901N002019999999N002400199+01061+00781102661ADDAY101021AY201021GA1071+017501999GE19AGL   +99999+99999GF107991071999017501999999MA1999999102145MD1210141+9999MW1101REMSYN05458338 41724 72902 10106 20078 40266 52014 71000 87///=
0210583380999992017010206004+31150+118583FM-12+001699999V0203201N001019999999N002600199+01251+00821102441ADDAY101021AY201021GA1081+017501999GE19AGL   +99999+99999GF108991081999017501999999KA1240N+00811MA1999999101931MD1710221+9999MW1101REMSYN07058338 31726 83201 10125 20082 30193 40244 57022 71000 88/// 333 20081=
0181583380999992017010209004+31150+118583FM-12+001699999V0200701N001019999999N002400199+01191+00881102521ADDAY101021AY201021GA1071+999999999GE19AGL   +99999+99999GF107991071999999999999999MA1999999102015MD1210081+9999MW1101REMSYN05458338 31924 70701 10119 20088 40252 52008 71000 87///=
0181583380999992017010212004+31150+118583FM-12+001699999V0200201N001019999999N001200199+00881+00791102611ADDAY101021AY201021GA1071+999999999GE19AGL   +99999+99999GF107991071999999999999999MA1999999102095MD1210091+9999MW1101REMSYN05458338 31912 70201 10088 20079 40261 52009 71000 87///=
0160583380999992017010218004+31150+118583FM-12+001699999V0200901N00201000001CN000000199+00501+00491102681ADDAY141021AY201021GF109991999999999999999999KA1120M+01301MA1999999102155MD1710011+9999MW1421REMSYN05858338 31/00 90902 10050 20049 40268 57001 74240 333 10130=
0142583380999992017010221004+31150+118583FM-12+001699999V0201101N00201000001CN000000199+00321+00311102571ADDAA124000131GF109991999999999999999999MA1999999102045MD1710121+9999MW1441REMSYN05858338 31/00 91102 10032 20031 40257 57012 744// 333 70001=
0181583380999992017010300004+31150+118583FM-12+001699999V0201101N003019999999N000100199+00601+00591102651ADDGA1081+012501999GE19AGL   +99999+99999GF108991081999012501999999MA1999999102135MD1210081+9999MW1421REMSYN07058338 31601 81103 10060 20059 40265 52008 742// 88/// 333 00153 30041=
0181583380999992017010303004+31150+118583FM-12+001699999V0200701N002019999999N000100199+00681+00671102581ADDAY141021AY201021GA1081+012501999GE19AGL   +99999+99999GF108991081999012501999999MA1999999102065MD1710071+9999MW1421REMSYN05458338 31601 80702 10068 20067 40258 57007 74240 88///=
0204583380999992017010306004+31150+118583FM-12+001699999V0200901N002019999999N002900199+01181+00811102271ADDAY141021AY201021GA1071+999999999GE19AGL   +99999+99999GF107991071999999999999999KA1240N+00281MA1999999101765MD1710301+9999MW1101REMSYN06458338 31929 70902 10118 20081 40227 57030 71040 87/// 333 20028=
0181583380999992017010309004+31150+118583FM-12+001699999V0200701N001019999999N003500199+01201+00771102251ADDAY101021AY201021GA1071+999999999GE19AGL   +99999+99999GF107991071999999999999999MA1999999101745MD1710021+9999MW1101REMSYN05458338 31935 70701 10120 20077 40225 57002 71000 87///=
0181583380999992017010312004+31150+118583FM-12+001699999V0202001N001019999999N001200199+00931+00841102331ADDAY101021AY201021GA1071+999999999GE19AGL   +99999+99999GF107991071999999999999999MA1999999101815MD1210081+9999MW1101REMSYN05458338 31912 72001 10093 20084 40233 52008 71000 87///=
0160583380999992017010318004+31150+118583FM-12+001699999V0200401N00101002401CN002300199+00941+00751102211ADDAY101021AY201021GF109991999999999999999999KA1120M+01281MA1999999101695MD1710101+9999MW1101REMSYN05858338 31/23 90401 10094 20075 40221 57010 71000 333 10128=
0121583380999992017010321004+31150+118583FM-12+001699999V0200401N00201002401CN001800199+00911+00771102171ADDGF109991999999999999999999MA1999999101655MD1710041+9999MW1101REMSYN04858338 31/18 90402 10091 20077 40217 57004 710//=
0159583380999992017010400004+31150+118583FM-12+001699999V0200901N00201002401CN001600199+00921+00801102271ADDGE19AGL   +99999+99999GF109991999999999999999999MA1999999101761MD1210101+9999MW1101REMSYN06458338 31916 90902 10092 20080 30176 40227 52010 710// 333 05403=
0181583380999992017010403004+31150+118583FM-12+001699999V0200401N002019999999N002100199+01071+00851102301ADDAY101021AY201021GA1081+999999999GE19AGL   +99999+99999GF108991081999999999999999MA1999999101795MD1210031+9999MW1101REMSYN05458338 31921 80402 10107 20085 40230 52003 71000 88///=
0204583380999992017010406004+31150+118583FM-12+001699999V0200201N002019999999N002000199+01111+00891102091ADDAY101021AY201021GA1081+999999999GE19AGL   +99999+99999GF108991081999999999999999KA1240N+00901MA1999999101585MD1710211+9999MW1101REMSYN06458338 31920 80202 10111 20089 40209 57021 71000 88/// 333 20090=
0181583380999992017010409004+31150+118583FM-12+001699999V0200701N004019999999N001100199+01021+00961102001ADDAY161021AY201021GA1081+004501999GE19AGL   +99999+99999GF108991081999004501999999MA1999999101495MD1710091+9999MW1601REMSYN05458338 41411 80704 10102 20096 40200 57009 76060 88///=
0198583380999992017010412004+31150+118583FM-12+001699999V0200701N003019999999N000800199+01011+00981102051ADDAA106002031AY161021AY201021GA1081+004501999GE19AGL   +99999+99999GF108991081999004501999999MA1999999101545MD1210051+9999MW1601REMSYN06058338 11408 80703 10101 20098 40205 52005 60021 76060 88///=
0183583380999992017010418004+31150+118583FM-12+001699999V0200701N00401002401CN001300199+01101+01091101801ADDAA106008031AY141021AY201021GF109991999999999999999999KA1120M+01131MA1999999101291MD1710181+9999MW1101REMSYN07058338 11/13 90704 10110 20109 30129 40180 57018 60081 71040 333 10113=
0142583380999992017010421004+31150+118583FM-12+001699999V0201101N00301002401CN001200199+01131+01121101771ADDAA124014531GF109991999999999999999999MA1999999101265MD1710031+9999MW1101REMSYN05858338 41/12 91103 10113 20112 40177 57003 710// 333 70145=
0215583380999992017010500004+31150+118583FM-12+001699999V0200401N002019999999N001700199+01061+01051101881ADDAA106009031AA224019531GA1081+002501999GE19AGL   +99999+99999GF108991081999002501999999MA1999999101371MD1210111+9999MW1601REMSYN08258338 11317 80402 10106 20105 30137 40188 52011 60091 760// 88/// 333 05401 70195=
0181583380999992017010503004+31150+118583FM-12+001699999V0200701N004019999999N002800199+01011+01001102011ADDAY161021AY261021GA1081+004501999GE19AGL   +99999+99999GF108991081999004501999999MA1999999101505MD1210131+9999MW1601REMSYN05458338 41428 80704 10101 20100 40201 52013 76066 88///=
0221583380999992017010506004+31150+118583FM-12+001699999V0200401N004019999999N999999999+00971+00931101911ADDAA106010031AY161021AY261021GA1081+004501999GE19AGL   +99999+99999GF108991081999004501999999KA1240N+00731MA1999999101405MD1710101+9999MW1601REMSYN07058338 11455 80404 10097 20093 40191 57010 60101 76066 88/// 333 20073=
0181583380999992017010509004+31150+118583FM-12+001699999V0200701N003019999999N005000199+00941+00881102121ADDAY161021AY261021GA1081+002501999GE19AGL   +99999+99999GF108991081999002501999999MA1999999101605MD1210211+9999MW1601REMSYN05458338 41350 80703 10094 20088 40212 52021 76066 88///=
0204583380999992017010512004+31150+118583FM-12+001699999V0200701N006019999999N003600199+00811+00741102281ADDAA106003031AY161021AY261021GA1081+004501999GE19AGL   +99999+99999GF108991081999004501999999MA1999999101771MD1210161+9999MW1601REMSYN06658338 11436 80706 10081 20074 30177 40228 52016 60031 76066 88///=
0177583380999992017010518004+31150+118583FM-12+001699999V0200401N00401002401CN003100199+00781+00751102351ADDAA106004031AY101021AY201021GF109991999999999999999999KA1120M+01141MA1999999101835MD1210021+9999MW1101REMSYN06458338 11/31 90404 10078 20075 40235 52002 60041 71000 333 10114=
0142583380999992017010521004+31150+118583FM-12+001699999V0200401N00401002401CN004900199+00751+00721102291ADDAA124023831GF109991999999999999999999MA1999999101775MD1710061+9999MW1101REMSYN05858338 41/49 90404 10075 20072 40229 57006 710// 333 70238=
0209583380999992017010600004+31150+118583FM-12+001699999V0200701N005019999999N006000199+00751+00711102321ADDAA106003031AA224019731GA1081+004501999GE19AGL   +99999+99999GF108991081999004501999999MA1999999101805MD1210031+9999MW1601REMSYN07658338 11456 80705 10075 20071 40232 52003 60031 760// 88/// 333 00453 70197=
0181583380999992017010603004+31150+118583FM-12+001699999V0200701N004019999999N003300199+00841+00801102301ADDAY161021AY261021GA1081+004501999GE19AGL   +99999+99999GF108991081999004501999999MA1999999101785MD1710021+9999MW1601REMSYN05458338 41433 80704 10084 20080 40230 57002 76066 88///=
0221583380999992017010606004+31150+118583FM-12+001699999V0200701N004019999999N003500199+00851+00841101961ADDAA106000731AY161021AY261021GA1081+004501999GE19AGL   +99999+99999GF108991081999004501999999KA1240N+00741MA1999999101445MD1710341+9999MW1601REMSYN07058338 11435 80704 10085 20084 40196 57034 69971 76066 88/// 333 20074=
0181583380999992017010609004+31150+118583FM-12+001699999V0200701N004019999999N003200199+00871+00861101881ADDAY161021AY261021GA1081+004501999GE19AGL   +99999+99999GF108991081999004501999999MA1999999101365MD1710081+9999MW1601REMSYN05458338 41432 80704 10087 20086 40188 57008 76066 88///=
0204583380999992017010612004+31150+118583FM-12+001699999V0200401N001019999999N003200199+00931+00921101931ADDAA106011031AY161021AY261021GA1081+004501999GE19AGL   +99999+99999GF108991081999004501999999MA1999999101421MD1210051+9999MW1601REMSYN06658338 11432 80401 10093 20092 30142 40193 52005 60111 76066 88///=
0177583380999992017010618004+31150+118583FM-12+001699999V0202701N00301001201CN000400199+00931+00921101741ADDAA106007031AY101021AY201021GF109991999999999999999999KA1120M+00981MA1999999101235MD1710081+9999MW1461REMSYN06458338 11/04 92703 10093 20092 40174 57008 60071 74600 333 10098=
0142583380999992017010621004+31150+118583FM-12+001699999V0202501N00401002401CN003600199+00861+00851101711ADDAA124019731GF109991999999999999999999MA1999999101205MD1710031+9999MW1101REMSYN05858338 41/36 92504 10086 20085 40171 57003 710// 333 70197=
0209583380999992017010700004+31150+118583FM-12+001699999V0202901N003019999999N000900199+00841+00831101741ADDAA106000831AA224018931GA1081+004501999GE19AGL   +99999+99999GF108991081999004501999999MA1999999101235MD1210031+9999MW1601REMSYN07658338 11409 82903 10084 20083 40174 52003 69981 760// 88/// 333 05601 70189=
0181583380999992017010703004+31150+118583FM-12+001699999V0202701N004019999999N004700199+00761+00751101841ADDAY161021AY261021GA1081+002501999GE19AGL   +99999+99999GF108991081999002501999999MA1999999101325MD1210101+9999MW1601REMSYN05458338 41347 82704 10076 20075 40184 52010 76066 88///=
0221583380999992017010706004+31150+118583FM-12+001699999V0202701N005019999999N999999999+00691+00651101681ADDAA106005031AY161021AY261021GA1081+002501999GE19AGL   +99999+99999GF108991081999002501999999KA1240N+00691MA1999999101165MD1710161+9999MW1601REMSYN07058338 11355 82705 10069 20065 40168 57016 60051 76066 88/// 333 20069=
0181583380999992017010709004+31150+118583FM-12+001699999V0202901N004019999999N004800199+00631+00541101801ADDAY161021AY201021GA1081+008001999GE19AGL   +99999+99999GF108991081999008001999999MA1999999101285MD1210121+9999MW1101REMSYN05458338 41548 82904 10063 20054 40180 52012 71060 88///=
0198583380999992017010712004+31150+118583FM-12+001699999V0202901N005019999999N004500199+00631+00511101961ADDAA106000021AY161021AY201021GA1081+008001999GE19AGL   +99999+99999GF108991081999008001999999MA1999999101445MD1210161+9999MW1101REMSYN06058338 11545 82905 10063 20051 40196 52016 69901 71060 88///=
0160583380999992017010718004+31150+118583FM-12+001699999V0202901N00501002401CN002600199+00551+00461102021ADDAY101021AY201021GF109991999999999999999999KA1120M+00931MA1999999101505MD1710021+9999MW1101REMSYN05858338 31/26 92905 10055 20046 40202 57002 71000 333 10093=
0142583380999992017010721004+31150+118583FM-12+001699999V0202901N00701002401CN002500199+00591+00491102051ADDAA124004831GF109991999999999999999999MA1999999101535MD1210031+9999MW1101REMSYN05858338 31/25 92907 10059 20049 40205 52003 710// 333 70048=
0192583380999992017010800004+31150+118583FM-12+001699999V0202901N006019999999N003600199+00611+00461102171ADDAA124004731GA1081+012501999GE19AGL   +99999+99999GF108991081999012501999999MA1999999101655MD1210121+9999MW1101REMSYN07058338 31636 82906 10061 20046 40217 52012 710// 88/// 333 00452 70047=
0181583380999992017010803004+31150+118583FM-12+001699999V0202901N004019999999N003900199+00691+00371102271ADDAY101021AY201021GA1081+008001999GE19AGL   +99999+99999GF108991081999008001999999MA1999999101755MD1210101+9999MW1101REMSYN05458338 31539 82904 10069 20037 40227 52010 71000 88///=
0204583380999992017010806004+31150+118583FM-12+001699999V0202901N004019999999N003100199+00631+00381102111ADDAY101021AY201021GA1081+012501999GE19AGL   +99999+99999GF108991081999012501999999KA1240N+00551MA1999999101595MD1710161+9999MW1101REMSYN06458338 31631 82904 10063 20038 40211 57016 71000 88/// 333 20055=
0181583380999992017010809004+31150+118583FM-12+001699999V0202901N003019999999N004200199+00561+00291102201ADDAY101021AY201021GA1081+012501999GE19AGL   +99999+99999GF108991081999012501999999MA1999999101685MD1210091+9999MW1101REMSYN05458338 31642 82903 10056 20029 40220 52009 71000 88///=
0181583380999992017010812004+31150+118583FM-12+001699999V0202901N002019999999N003600199+00521+00341102361ADDAY101021AY201021GA1081+012501999GE19AGL   +99999+99999GF108991081999012501999999MA1999999101845MD1210161+9999MW1101REMSYN05458338 31636 82902 10052 20034 40236 52016 71000 88///=
0166583380999992017010818004+31150+118583FM-12+001699999V0202901N001019999999N999999999+00481+00221102551ADDAY101021AY201021GF109991999999999999999999KA1120M+00731MA1999999102031MD1210081+9999MW1101REMSYN06458338 31/55 92901 10048 20022 30203 40255 52008 71000 333 10073=
0121583380999992017010821004+31150+118583FM-12+001699999V0203201N00101002401CN003900199+00451+00241102531ADDGF109991999999999999999999MA1999999102005MD1710021+9999MW1101REMSYN04858338 31/39 93201 10045 20024 40253 57002 710//=
0181583380999992017010900004+31150+118583FM-12+001699999V0203401N001019999999N005000199+00381+00121102641ADDGA1071+008001999GE19AGL   +99999+99999GF107991071999008001999999MA1999999102115MD1210111+9999MW1101REMSYN07058338 31550 73401 10038 20012 40264 52011 710// 87/// 333 00552 30030=
0181583380999992017010903004+31150+118583FM-12+001699999V0202701N001019999999N999999999+00581+00081102671ADDAY101021AY201021GA1071+012501999GE19AGL   +99999+99999GF107991071999012501999999MA1999999102155MD1210031+9999MW1101REMSYN05458338 31655 72701 10058 20008 40267 52003 71000 87///=
0210583380999992017010906004+31150+118583FM-12+001699999V0203401N003019999999N006000199+00691+00101102441ADDAY101021AY201021GA1071+008001999GE19AGL   +99999+99999GF107991071999008001999999KA1240N+00381MA1999999101921MD1710231+9999MW1051REMSYN07058338 31556 73403 10069 20010 30192 40244 57023 70500 87/// 333 20038=
0181583380999992017010909004+31150+118583FM-12+001699999V0200401N003019999999N006000199+00581+00041102461ADDAY101021AY201021GA1081+012501999GE19AGL   +99999+99999GF108991081999012501999999MA1999999101945MD1210021+9999MW1051REMSYN05458338 31656 80403 10058 20004 40246 52002 70500 88///=
0181583380999992017010912004+31150+118583FM-12+001699999V0200701N003019999999N004800199+00331+00051102471ADDAY101021AY201021GA1081+008001999GE19AGL   +99999+99999GF108991081999008001999999MA1999999101945MD1210011+9999MW1101REMSYN05458338 31548 80703 10033 20005 40247 52001 71000 88///=
0166583380999992017010918004+31150+118583FM-12+001699999V0200401N00201002401CN004200199+00441+00141102551ADDAY101021AY201021GF109991999999999999999999KA1120M+00741MA1999999102031MD1210041+9999MW1101REMSYN06458338 31/42 90402 10044 20014 30203 40255 52004 71000 333 10074=
0121583380999992017010921004+31150+118583FM-12+001699999V0200401N00201002401CN003800199+00441+00111102531ADDGF109991999999999999999999MA1999999102005MD1710021+9999MW1101REMSYN04858338 31/38 90402 10044 20011 40253 57002 710//=
0181583380999992017011000004+31150+118583FM-12+001699999V0200701N003019999999N003600199+00451+00151102661ADDGA1081+012501999GE19AGL   +99999+99999GF108991081999012501999999MA1999999102135MD1210131+9999MW1101REMSYN07058338 31636 80703 10045 20015 40266 52013 710// 88/// 333 00001 30022=
0181583380999992017011003004+31150+118583FM-12+001699999V0200401N004019999999N004100199+00561+00111102791ADDAY101021AY201021GA1081+012501999GE19AGL   +99999+99999GF108991081999012501999999MA1999999102265MD1210131+9999MW1101REMSYN05458338 31641 80404 10056 20011 40279 52013 71000 88///=
0204583380999992017011006004+31150+118583FM-12+001699999V0200701N003019999999N004100199+00641+00071102631ADDAY101021AY201021GA1081+012501999GE19AGL   +99999+99999GF108991081999012501999999KA1240N+00291MA1999999102115MD1710161+9999MW1051REMSYN06458338 31641 80703 10064 20007 40263 57016 70500 88/// 333 20029=
0181583380999992017011009004+31150+118583FM-12+001699999V0200401N002019999999N004200199+00611+00121102751ADDAY101021AY201021GA1081+012501999GE19AGL   +99999+99999GF108991081999012501999999MA1999999102235MD1210121+9999MW1101REMSYN05458338 31642 80402 10061 20012 40275 52012 71000 88///=
0181583380999992017011012004+31150+118583FM-12+001699999V0200901N003019999999N004700199+00541+00151102891ADDAY101021AY201021GA1081+012501999GE19AGL   +99999+99999GF108991081999012501999999MA1999999102365MD1210141+9999MW1101REMSYN05458338 31647 80903 10054 20015 40289 52014 71000 88///=
0160583380999992017011018004+31150+118583FM-12+001699999V0200401N00301002401CN006000199+00461+00091103031ADDAY101021AY201021GF109991999999999999999999KA1120M+00651MA1999999102505MD1210071+9999MW1101REMSYN05858338 31/56 90403 10046 20009 40303 52007 71000 333 10065=
0121583380999992017011021004+31150+118583FM-12+001699999V0200401N00301002401CN004200199+00441+00141102831ADDGF109991999999999999999999MA1999999102305MD1710201+9999MW1101REMSYN04858338 31/42 90403 10044 20014 40283 57020 710//=
0181583380999992017011100004+31150+118583FM-12+001699999V0200901N003019999999N004400199+00441+00161102981ADDGA1081+012501999GE19AGL   +99999+99999GF108991081999012501999999MA1999999102455MD1210151+9999MW1101REMSYN07058338 31644 80903 10044 20016 40298 52015 710// 88/// 333 00300 30033=
0181583380999992017011103004+31150+118583FM-12+001699999V0200701N003019999999N004800199+00561+00151102951ADDAY101021AY201021GA1081+017501999GE19AGL   +99999+99999GF108991081999017501999999MA1999999102425MD1710031+9999MW1101REMSYN05458338 31748 80703 10056 20015 40295 57003 71000 88///=
0204583380999992017011106004+31150+118583FM-12+001699999V0200701N002019999999N007000199+00681+00131102631ADDAY101021AY201021GA1071+017501999GE19AGL   +99999+99999GF107991071999017501999999KA1240N+00441MA1999999102115MD1710321+9999MW1051REMSYN06458338 31757 70702 10068 20013 40263 57032 70500 87/// 333 20044=
0153583380999992017011109004+31150+118583FM-12+001699999V0201401N001019999999N008000199+00641+00051102701ADDGA1081+017501999GE19AGL   +99999+99999GF108991081999017501999999MA1999999102185MD1210071+9999REMSYN04858338 32758 81401 10064 20005 40270 52007 88///=
0181583380999992017011112004+31150+118583FM-12+001699999V0201401N001019999999N006000199+00581+00211102661ADDAY101021AY201021GA1081+012501999GE19AGL   +99999+99999GF108991081999012501999999MA1999999102145MD1710041+9999MW1101REMSYN05458338 31656 81401 10058 20021 40266 57004 71000 88///=
0160583380999992017011118004+31150+118583FM-12+001699999V0202001N00201002401CN004300199+00511+00311102611ADDAY101021AY201021GF109991999999999999999999KA1120M+00701MA1999999102085MD1710081+9999MW1101REMSYN05858338 31/43 92002 10051 20031 40261 57008 71000 333 10070=
0142583380999992017011121004+31150+118583FM-12+001699999V0202201N00101002401CN004000199+00391+00261102561ADDAA124002931GF109991999999999999999999MA1999999102035MD1710051+9999MW1101REMSYN05858338 41/40 92201 10039 20026 40256 57005 710// 333 70029=
0215583380999992017011200004+31150+118583FM-12+001699999V0202201N002019999999N002000199+00311+00271102601ADDAA106005031AA224005331GA1081+002501999GE19AGL   +99999+99999GF108991081999002501999999MA1999999102075MD1210041+9999MW1611REMSYN08258338 11320 82202 10031 20027 40260 52004 60051 761// 88/// 333 05451 30041 70053=
0181583380999992017011203004+31150+118583FM-12+001699999V0202201N002019999999N999999999+00471+00351102581ADDAY161021AY201021GA1081+004501999GE19AGL   +99999+99999GF108991081999004501999999MA1999999102055MD1710021+9999MW1101REMSYN05458338 41455 82202 10047 20035 40258 57002 71060 88///=
0227583380999992017011206004+31150+118583FM-12+001699999V0202201N002019999999N010000199+00591+00341102261ADDAA106000631AY161021AY201021GA1081+008001999GE19AGL   +99999+99999GF108991081999008001999999KA1240N+00301MA1999999101741MD1710321+9999MW1001REMSYN07658338 11560 82202 10059 20034 30174 40226 57032 69961 70060 88/// 333 20030=
0153583380999992017011209004+31150+118583FM-12+001699999V0202201N002019999999N012000199+00591+00341102231ADDGA1081+012501999GE19AGL   +99999+99999GF108991081999012501999999MA1999999101715MD1710031+9999REMSYN04858338 32662 82202 10059 20034 40223 57003 88///=
0181583380999992017011212004+31150+118583FM-12+001699999V0202201N002019999999N006000199+00541+00391102221ADDAY101021AY201021GA1071+012501999GE19AGL   +99999+99999GF107991071999012501999999MA1999999101705MD1710011+9999MW1101REMSYN05458338 31656 72202 10054 20039 40222 57001 71000 87///=
0160583380999992017011218004+31150+118583FM-12+001699999V0202501N00301002401CN001600199+00211+00201102321ADDAY101021AY201021GF109991999999999999999999KA1120M+00621MA1999999101795MD1210011+9999MW1101REMSYN05858338 31/16 92503 10021 20020 40232 52001 71000 333 10062=
0142583380999992017011221004+31150+118583FM-12+001699999V0202501N00201002401CN001600199+00151+00141102261ADDAA124003031GF109991999999999999999999MA1999999101735MD1710061+9999MW1101REMSYN05858338 31/16 92502 10015 20014 40226 57006 710// 333 70030=
0154583380999992017011300004+31150+118583FM-12+001699999V0202501N002019999999N002300199+00141+00131102391ADDAA124000631GF100995999999999999999999MA1999999101865MD1210131+9999MW1101REMSYN07058338 31923 02502 10014 20013 40239 52013 710// 333 05252 31007 70006=
0181583380999992017011303004+31150+118583FM-12+001699999V0202501N003019999999N004000199+00491+00341102441ADDAY101021AY201021GA1071+999999999GE19AGL   +99999+99999GF107991071999999999999999MA1999999101915MD1210051+9999MW1101REMSYN05458338 31940 72503 10049 20034 40244 52005 71000 87///=
0160583380999992017011306004+31150+118583FM-12+001699999V0202901N003019999999N006000199+00981+00381102191ADDAY101021AY201021GF100995999999999999999999KA1240N+00071MA1999999101685MD1710251+9999MW1051REMSYN05858338 31956 02903 10098 20038 40219 57025 70500 333 20007=
0109583380999992017011309004+31150+118583FM-12+001699999V0203201N002019999999N010000199+00931+00121102251ADDGF100995999999999999999999MA1999999101735MD1210061+9999REMSYN04258338 32960 03202 10093 20012 40225 52006=
0109583380999992017011312004+31150+118583FM-12+001699999V0202701N001019999999N010000199+00571+00161102371ADDGF100995999999999999999999MA1999999101855MD1210121+9999REMSYN04258338 32960 02701 10057 20016 40237 52012=
0160583380999992017011318004+31150+118583FM-12+001699999V0200701N00401002401CN003400199+00421+00111102671ADDAY101021AY201021GF109991999999999999999999KA1120M+01091MA1999999102145MD1210151+9999MW1101REMSYN05858338 31/34 90704 10042 20011 40267 52015 71000 333 10109=
0109583380999992017011321004+31150+118583FM-12+001699999V0200701N00401002401CN008000199+00241-00231102741ADDGF109991999999999999999999MA1999999102215MD1210071+9999REMSYN04258338 32/58 90704 10024 21023 40274 52007=
0137583380999992017011400004+31150+118583FM-12+001699999V0200701N003019999999N999999999+00181-00131102911ADDGF100995999999999999999999MA1999999102385MD1210171+9999MW1101REMSYN06458338 31955 00703 10018 21013 40291 52017 710// 333 00500 31008=
0109583380999992017011403004+31150+118583FM-12+001699999V0200401N005019999999N010000199+00521-00461102991ADDGF100995999999999999999999MA1999999102465MD1210081+9999REMSYN04258338 32960 00405 10052 21046 40299 52008=
0132583380999992017011406004+31150+118583FM-12+001699999V0200901N005019999999N014000199+00641-00441102751ADDGF100995999999999999999999KA1240N+00071MA1999999102235MD1710241+9999REMSYN05258338 32964 00905 10064 21044 40275 57024 333 20007=
0109583380999992017011409004+31150+118583FM-12+001699999V0200401N003019999999N016000199+00561-00401102801ADDGF100995999999999999999999MA1999999102275MD1210051+9999REMSYN04258338 32966 00403 10056 21040 40280 52005=
0109583380999992017011412004+31150+118583FM-12+001699999V0200701N003019999999N016000199+00281-00291102971ADDGF100995999999999999999999MA1999999102445MD1210161+9999REMSYN04258338 32966 00703 10028 21029 40297 52016=
0132583380999992017011418004+31150+118583FM-12+001699999V0200701N00401002401CN015000199+00271-00171103201ADDGF109991999999999999999999KA1120M+00681MA1999999102675MD1210041+9999REMSYN05258338 32/65 90704 10027 21017 40320 52004 333 10068=
0109583380999992017011421004+31150+118583FM-12+001699999V0200701N00401002401CN015000199+00191-00221103161ADDGF109991999999999999999999MA1999999102635MD1710051+9999REMSYN04258338 32/65 90704 10019 21022 40316 57005=
0125583380999992017011500004+31150+118583FM-12+001699999V0200701N005019999999N011000199+00151-00141103221ADDGF100995999999999999999999MA1999999102685MD1210061+9999REMSYN05858338 32961 00705 10015 21014 40322 52006 333 00300 31008=
0153583380999992017011503004+31150+118583FM-12+001699999V0201101N007019999999N021000199+00481-00211103191ADDGA1021+008001999GE19AGL   +99999+99999GF102991021999008001999999MA1999999102665MD1710031+9999REMSYN04858338 32571 21107 10048 21021 40319 57003 82///=
0176583380999992017011506004+31150+118583FM-12+001699999V0201101N004019999999N022000199+00611-00231102851ADDGA1061+008001999GE19AGL   +99999+99999GF106991061999008001999999KA1240N+00031MA1999999102335MD1710331+9999REMSYN05858338 32572 61104 10061 21023 40285 57033 86/// 333 20003=
0153583380999992017011509004+31150+118583FM-12+001699999V0200701N005019999999N020000199+00581-00181102831ADDGA1041+999999999GE19AGL   +99999+99999GF104991041999999999999999MA1999999102305MD1710021+9999REMSYN04858338 32970 40705 10058 21018 40283 57002 84///=
0159583380999992017011512004+31150+118583FM-12+001699999V0200701N005019999999N017000199+00431-00151102881ADDGA1081+017501999GE19AGL   +99999+99999GF108991081999017501999999MA1999999102351MD1210041+9999REMSYN05458338 32767 80705 10043 21015 30235 40288 52004 88///=
0132583380999992017011518004+31150+118583FM-12+001699999V0200701N00301002401CN014000199+00131-00141102941ADDGF109991999999999999999999KA1120M+00721MA1999999102415MD1210041+9999REMSYN05258338 32/64 90703 10013 21014 40294 52004 333 10072=
0109583380999992017011521004+31150+118583FM-12+001699999V0200701N00401002401CN009000199+00061-00181102971ADDGF109991999999999999999999MA1999999102435MD1210021+9999REMSYN04258338 32/59 90704 10006 21018 40297 52002=
0131583380999992017011600004+31150+118583FM-12+001699999V0200701N004019999999N009000199+00021-00171103011ADDGF100995999999999999999999MA1999999102481MD1210041+9999REMSYN06458338 32959 00704 10002 21017 30248 40301 52004 333 05251 31011=
0109583380999992017011603004+31150+118583FM-12+001699999V0201101N004019999999N009000199+00531+00031102991ADDGF100995999999999999999999MA1999999102465MD1710011+9999REMSYN04258338 32959 01104 10053 20003 40299 57001=
0176583380999992017011606004+31150+118583FM-12+001699999V0200201N002019999999N014000199+00781+00051102761ADDGA1011+008001999GE19AGL   +99999+99999GF101991011999008001999999KA1240N-00071MA1999999102245MD1710231+9999REMSYN05858338 32564 10202 10078 20005 40276 57023 81/// 333 21007=
0109583380999992017011609004+31150+118583FM-12+001699999V0200701N004019999999N011000199+00671-00031102721ADDGF100995999999999999999999MA1999999102205MD1710041+9999REMSYN04258338 32961 00704 10067 21003 40272 57004=
0109583380999992017011612004+31150+118583FM-12+001699999V0200701N004019999999N012000199+00421-00121102871ADDGF100995999999999999999999MA1999999102345MD1210141+9999REMSYN04258338 32962 00704 10042 21012 40287 52014=
0132583380999992017011618004+31150+118583FM-12+001699999V0201101N00401002401CN011000199+00331+00001102901ADDGF109991999999999999999999KA1120M+00791MA1999999102375MD1710101+9999REMSYN05258338 32/61 91104 10033 20000 40290 57010 333 10079=
0109583380999992017011621004+31150+118583FM-12+001699999V0201101N00401002401CN015000199+00361+00051102831ADDGF109991999999999999999999MA1999999102305MD1710071+9999REMSYN04258338 32/65 91104 10036 20005 40283 57007=
0169583380999992017011700004+31150+118583FM-12+001699999V0200901N005019999999N014000199+00401+00091102841ADDGA1081+012501999GE19AGL   +99999+99999GF108991081999012501999999MA1999999102315MD1210011+9999REMSYN06458338 32664 80905 10040 20009 40284 52001 88/// 333 05204 30002=
0153583380999992017011703004+31150+118583FM-12+001699999V0200701N004019999999N015000199+00531+00101102901ADDGA1081+999999999GE19AGL   +99999+99999GF108991081999999999999999MA1999999102375MD1210061+9999REMSYN04858338 32965 80704 10053 20010 40290 52006 88///=
0176583380999992017011706004+31150+118583FM-12+001699999V0200701N002019999999N012000199+00631+00181102731ADDGA1081+999999999GE19AGL   +99999+99999GF108991081999999999999999KA1240N+00241MA1999999102215MD1710171+9999REMSYN05858338 32962 80702 10063 20018 40273 57017 88/// 333 20024=
0153583380999992017011709004+31150+118583FM-12+001699999V0200701N002019999999N010000199+00651+00281102761ADDGA1081+999999999GE19AGL   +99999+99999GF108991081999999999999999MA1999999102245MD1210031+9999REMSYN04858338 32960 80702 10065 20028 40276 52003 88///=
0181583380999992017011712004+31150+118583FM-12+001699999V0200701N002019999999N007000199+00601+00351102841ADDAY101021AY201021GA1081+999999999GE19AGL   +99999+99999GF108991081999999999999999MA1999999102325MD1210081+9999MW1101REMSYN05458338 31957 80702 10060 20035 40284 52008 71000 88///=
0160583380999992017011718004+31150+118583FM-12+001699999V0200401N00201002401CN002900199+00571+00431102931ADDAY101021AY201021GF109991999999999999999999KA1120M+00681MA1999999102405MD1710011+9999MW1101REMSYN05858338 31/29 90402 10057 20043 40293 57001 71000 333 10068=
0121583380999992017011721004+31150+118583FM-12+001699999V0200701N00201002401CN002000199+00541+00481102791ADDGF109991999999999999999999MA1999999102265MD1710141+9999MW1101REMSYN04858338 31/20 90702 10054 20048 40279 57014 710//=
0244583380999992017011800004+31150+118583FM-12+001699999V0200401N002019999999N001500199+00561+00501102901ADDAA112000091AA224000091GA1081+012501999GE19AGL   +99999+99999GF108991081999012501999999MA1999999102375MD1210111+9999MW1101REMSYN07658338 11615 80402 10056 20050 40290 52011 69902 710// 88/// 333 00102 79999=EQDQ01  00002PRCP12Q02  00002PRCP24
0181583380999992017011803004+31150+118583FM-12+001699999V0200701N001019999999N000900199+00601+00571102931ADDAY161021AY201021GA1081+004501999GE19AGL   +99999+99999GF108991081999004501999999MA1999999102405MD1210031+9999MW1601REMSYN05458338 31409 80701 10060 20057 40293 52003 76060 88///=
0221583380999992017011806004+31150+118583FM-12+001699999V0200401N003019999999N002500199+00631+00621102641ADDAA106000131AY161021AY201021GA1081+004501999GE19AGL   +99999+99999GF108991081999004501999999KA1240N+00541MA1999999102125MD1710291+9999MW1601REMSYN07058338 11425 80403 10063 20062 40264 57029 69911 76060 88/// 333 20054=
0181583380999992017011809004+31150+118583FM-12+001699999V0200701N005019999999N004000199+00571+00541102731ADDAY161021AY261021GA1081+004501999GE19AGL   +99999+99999GF108991081999004501999999MA1999999102215MD1210091+9999MW1601REMSYN05458338 41440 80705 10057 20054 40273 52009 76066 88///=
0198583380999992017011812004+31150+118583FM-12+001699999V0200701N004019999999N003800199+00571+00531102781ADDAA106001031AY161021AY261021GA1081+004501999GE19AGL   +99999+99999GF108991081999004501999999MA1999999102255MD1210051+9999MW1601REMSYN06058338 11438 80704 10057 20053 40278 52005 60011 76066 88///=
0177583380999992017011818004+31150+118583FM-12+001699999V0200701N004019999999N999999999+00561+00411102791ADDAA106000231AY101021AY201021GF109991999999999999999999KA1120M+00631MA1999999102265MD1710081+9999MW1101REMSYN06458338 11/55 90704 10056 20041 40279 57008 69921 71000 333 10063=
0142583380999992017011821004+31150+118583FM-12+001699999V0200901N00301002401CN001100199+00511+00481102781ADDAA124001631GF109991999999999999999999MA1999999102255MD1710011+9999MW1101REMSYN05858338 41/11 90903 10051 20048 40278 57001 710// 333 70016=
0215583380999992017011900004+31150+118583FM-12+001699999V0200201N001019999999N001400199+00531+00491102831ADDAA112000231AA224001631GA1081+008001999GE19AGL   +99999+99999GF108991081999008001999999MA1999999102311MD1210051+9999MW1101REMSYN08258338 11514 80201 10053 20049 30231 40283 52005 69922 710// 88/// 333 05100 70016=
0181583380999992017011903004+31150+118583FM-12+001699999V0200201N002019999999N001400199+00561+00501102871ADDAY101021AY201021GA1081+012501999GE19AGL   +99999+99999GF108991081999012501999999MA1999999102345MD1210041+9999MW1101REMSYN05458338 31614 80202 10056 20050 40287 52004 71000 88///=
0204583380999992017011906004+31150+118583FM-12+001699999V0202901N002019999999N002000199+00581+00481102681ADDAY101021AY201021GA1081+012501999GE19AGL   +99999+99999GF108991081999012501999999KA1240N+00511MA1999999102165MD1710191+9999MW1101REMSYN06458338 31620 82902 10058 20048 40268 57019 71000 88/// 333 20051=
0181583380999992017011909004+31150+118583FM-12+001699999V0202901N004019999999N002100199+00561+00491102771ADDAY101021AY201021GA1081+008001999GE19AGL   +99999+99999GF108991081999008001999999MA1999999102245MD1210091+9999MW1101REMSYN05458338 31521 82904 10056 20049 40277 52009 71000 88///=
0187583380999992017011912004+31150+118583FM-12+001699999V0202901N002019999999N004800199+00551+00351102991ADDAY101021AY201021GA1081+008001999GE19AGL   +99999+99999GF108991081999008001999999MA1999999102471MD1210221+9999MW1101REMSYN06058338 31548 82902 10055 20035 30247 40299 52022 71000 88///=
0160583380999992017011918004+31150+118583FM-12+001699999V0202901N00201002401CN007000199+00201-00451103351ADDAY101021AY201021GF109991999999999999999999KA1120M+00621MA1999999102815MD1210101+9999MW1051REMSYN05858338 31/57 92902 10020 21045 40335 52010 70500 333 10062=
0109583380999992017011921004+31150+118583FM-12+001699999V0203201N00401002401CN011000199+00131-01021103451ADDGF109991999999999999999999MA1999999102915MD1210101+9999REMSYN04258338 32/61 93204 10013 21102 40345 52010=
0125583380999992017012000004+31150+118583FM-12+001699999V0200201N002019999999N015000199+00061-01061103621ADDGF100995999999999999999999MA1999999103085MD1210171+9999REMSYN05858338 32965 00202 10006 21106 40362 52017 333 00855 31017=
0109583380999992017012003004+31150+118583FM-12+001699999V0200201N003019999999N023000199+00271-01361103751ADDGF100995999999999999999999MA1999999103215MD1210131+9999REMSYN04258338 32973 00203 10027 21136 40375 52013=
0176583380999992017012006004+31150+118583FM-12+001699999V0200401N001019999999N023000199+00421-01231103411ADDGA1021+999999999GE19AGL   +99999+99999GF102991021999999999999999KA1240N-00021MA1999999102885MD1710341+9999REMSYN05858338 32973 20401 10042 21123 40341 57034 82/// 333 21002=
0153583380999992017012009004+31150+118583FM-12+001699999V0203601N003019999999N026000199+00281-01271103401ADDGA1021+999999999GE19AGL   +99999+99999GF102991021999999999999999MA1999999102875MD1710011+9999REMSYN04858338 32976 23603 10028 21127 40340 57001 82///=
0109583380999992017012012004+31150+118583FM-12+001699999V0200701N001019999999N017000199-00071-00611103411ADDGF100995999999999999999999MA1999999102875MD1210011+9999REMSYN04258338 32967 00701 11007 21061 40341 52001=
0132583380999992017012018004+31150+118583FM-12+001699999V0201101N00301002401CN022000199-00351-00711103291ADDGF109991999999999999999999KA1120M+00451MA1999999102745MD1710201+9999REMSYN05258338 32/72 91103 11035 21071 40329 57020 333 10045=
0109583380999992017012021004+31150+118583FM-12+001699999V0200701N00101002401CN016000199-00401-00651103271ADDGF109991999999999999999999MA1999999102725MD1710021+9999REMSYN04258338 32/66 90701 11040 21065 40327 57002=
0125583380999992017012100004+31150+118583FM-12+001699999V0201601N002019999999N009000199-00311-00621103251ADDGF100995999999999999999999MA1999999102715MD1710031+9999REMSYN05858338 32959 01602 11031 21062 40325 57003 333 05454 31042=
0109583380999992017012103004+31150+118583FM-12+001699999V0202001N003019999999N019000199+00351-00731103271ADDGF100995999999999999999999MA1999999102745MD1210031+9999REMSYN04258338 32969 02003 10035 21073 40327 52003=
0132583380999992017012106004+31150+118583FM-12+001699999V0202701N002019999999N023000199+00771-00541102941ADDGF100995999999999999999999KA1240N-00511MA1999999102425MD1710331+9999REMSYN05258338 32973 02702 10077 21054 40294 57033 333 21051=
0109583380999992017012109004+31150+118583FM-12+001699999V0202901N003019999999N017000199+00691-00611102911ADDGF100995999999999999999999MA1999999102395MD1710031+9999REMSYN04258338 32967 02903 10069 21061 40291 57003=
0109583380999992017012112004+31150+118583FM-12+001699999V0202901N002019999999N012000199+00401-00421103151ADDGF100995999999999999999999MA1999999102625MD1210241+9999REMSYN04258338 32962 02902 10040 21042 40315 52024=
0138583380999992017012118004+31150+118583FM-12+001699999V0202701N00101002401CN008000199+00021-00341103361ADDGF109991999999999999999999KA1120M+00851MA1999999102831MD1710031+9999REMSYN05858338 32/58 92701 10002 21034 30283 40336 57003 333 10085=
0121583380999992017012121004+31150+118583FM-12+001699999V0202501N00201002401CN007000199-00131-00321103361ADDGF109991999999999999999999MA1999999102825MD1410001+9999MW1101REMSYN04858338 31/57 92502 11013 21032 40336 54000 710//=
0137583380999992017012200004+31150+118583FM-12+001699999V0202001N001019999999N999999999-00161-00271103681ADDGF100995999999999999999999MA1999999103145MD1210321+9999MW1101REMSYN06458338 31955 02001 11016 21027 40368 52032 710// 333 00402 31030=
0109583380999992017012203004+31150+118583FM-12+001699999V0200901N002019999999N009000199+00451-00351103641ADDGF100995999999999999999999MA1999999103115MD1710041+9999REMSYN04258338 32959 00902 10045 21035 40364 57004=
0132583380999992017012206004+31150+118583FM-12+001699999V0200201N002019999999N011000199+00731-00481103321ADDGF100995999999999999999999KA1240N-00221MA1999999102795MD1710321+9999REMSYN05258338 32961 00202 10073 21048 40332 57032 333 21022=
0109583380999992017012209004+31150+118583FM-12+001699999V0200401N002019999999N013000199+00621-00511103281ADDGF100995999999999999999999MA1999999102755MD1710041+9999REMSYN04258338 32963 00402 10062 21051 40328 57004=
0115583380999992017012212004+31150+118583FM-12+001699999V0200901N003019999999N008000199+00241-00311103341ADDGF100995999999999999999999MA1999999102811MD1210061+9999REMSYN04858338 32958 00903 10024 21031 30281 40334 52006=
0138583380999992017012218004+31150+118583FM-12+001699999V0200701N00401002401CN011000199+00031-00421103421ADDGF109991999999999999999999KA1120M+00801MA1999999102891MD1210021+9999REMSYN05858338 32/61 90704 10003 21042 30289 40342 52002 333 10080=
0109583380999992017012221004+31150+118583FM-12+001699999V0200701N00401002401CN010000199-00101-00491103411ADDGF109991999999999999999999MA1999999102875MD1710011+9999REMSYN04258338 32/60 90704 11010 21049 40341 57001=
0175583380999992017012300004+31150+118583FM-12+001699999V0200701N004019999999N010000199-00031-00351103601ADDGA1041+999999999GE19AGL   +99999+99999GF104991041999999999999999MA1999999103071MD1210191+9999REMSYN07058338 32960 40704 11003 21035 30307 40360 52019 84/// 333 05101 31027=
0153583380999992017012303004+31150+118583FM-12+001699999V0200901N004019999999N016000199+00451-00351103631ADDGA1021+999999999GE19AGL   +99999+99999GF102991021999999999999999MA1999999103105MD1210031+9999REMSYN04858338 32966 20904 10045 21035 40363 52003 82///=
0176583380999992017012306004+31150+118583FM-12+001699999V0200901N005019999999N016000199+00781-00631103341ADDGA1041+999999999GE19AGL   +99999+99999GF104991041999999999999999KA1240N-00141MA1999999102825MD1710291+9999REMSYN05858338 32966 40905 10078 21063 40334 57029 84/// 333 21014=
0153583380999992017012309004+31150+118583FM-12+001699999V0200901N005019999999N020000199+00721-00551103251ADDGA1021+999999999GE19AGL   +99999+99999GF102991021999999999999999MA1999999102735MD1710091+9999REMSYN04858338 32970 20905 10072 21055 40325 57009 82///=
0153583380999992017012312004+31150+118583FM-12+001699999V0200901N005019999999N019000199+00331-00541103311ADDGA1051+999999999GE19AGL   +99999+99999GF105991051999999999999999MA1999999102785MD1210061+9999REMSYN04858338 32969 50905 10033 21054 40331 52006 85///=
0132583380999992017012318004+31150+118583FM-12+001699999V0201101N00401002401CN017000199+00181-00391103331ADDGF109991999999999999999999KA1120M+00851MA1999999102795MD1210021+9999REMSYN05258338 32/67 91104 10018 21039 40333 52002 333 10085=
0109583380999992017012321004+31150+118583FM-12+001699999V0201101N00401002401CN012000199+00111-00341103231ADDGF109991999999999999999999MA1999999102695MD1710111+9999REMSYN04258338 32/62 91104 10011 21034 40323 57011=
0169583380999992017012400004+31150+118583FM-12+001699999V0200901N005019999999N012000199+00151-00191103411ADDGA1021+999999999GE19AGL   +99999+99999GF102991021999999999999999MA1999999102875MD1210181+9999REMSYN06458338 32962 20905 10015 21019 40341 52018 82/// 333 05202 31018=
0153583380999992017012403004+31150+118583FM-12+001699999V0200901N007019999999N019000199+00591-00171103471ADDGA1071+999999999GE19AGL   +99999+99999GF107991071999999999999999MA1999999102945MD1210061+9999REMSYN04858338 32969 70907 10059 21017 40347 52006 87///=
0176583380999992017012406004+31150+118583FM-12+001699999V0201101N006019999999N023000199+00871-00201103161ADDGA1071+999999999GE19AGL   +99999+99999GF107991071999999999999999KA1240N+00031MA1999999102645MD1710301+9999REMSYN05858338 32973 71106 10087 21020 40316 57030 87/// 333 20003=
0153583380999992017012409004+31150+118583FM-12+001699999V0200901N006019999999N022000199+00821-00081103211ADDGA1081+999999999GE19AGL   +99999+99999GF108991081999999999999999MA1999999102695MD1210051+9999REMSYN04858338 32972 80906 10082 21008 40321 52005 88///=
0153583380999992017012412004+31150+118583FM-12+001699999V0200901N006019999999N015000199+00661+00011103361ADDGA1081+999999999GE19AGL   +99999+99999GF108991081999999999999999MA1999999102835MD1210141+9999REMSYN04858338 32965 80906 10066 20001 40336 52014 88///=
0132583380999992017012418004+31150+118583FM-12+001699999V0200901N00401002401CN016000199+00461+00071103271ADDGF109991999999999999999999KA1120M+00941MA1999999102745MD1710041+9999REMSYN05258338 32/66 90904 10046 20007 40327 57004 333 10094=
0109583380999992017012421004+31150+118583FM-12+001699999V0200901N00501002401CN010000199+00421+00161103181ADDGF109991999999999999999999MA1999999102655MD1710091+9999REMSYN04258338 32/60 90905 10042 20016 40318 57009=
0169583380999992017012500004+31150+118583FM-12+001699999V0200901N003019999999N008000199+00431+00171103371ADDGA1081+999999999GE19AGL   +99999+99999GF108991081999999999999999MA1999999102845MD1210191+9999REMSYN06458338 32958 80903 10043 20017 40337 52019 88/// 333 00003 30028=
0153583380999992017012503004+31150+118583FM-12+001699999V0200901N005019999999N011000199+00761+00191103471ADDGA1071+999999999GE19AGL   +99999+99999GF107991071999999999999999MA1999999102945MD1210101+9999REMSYN04858338 32961 70905 10076 20019 40347 52010 87///=
0176583380999992017012506004+31150+118583FM-12+001699999V0200401N003019999999N015000199+01061+00121103161ADDGA1031+999999999GE19AGL   +99999+99999GF103991031999999999999999KA1240N+00381MA1999999102645MD1710311+9999REMSYN05858338 32965 30403 10106 20012 40316 57031 83/// 333 20038=
0109583380999992017012509004+31150+118583FM-12+001699999V0200701N002019999999N016000199+01011+00251103111ADDGF100995999999999999999999MA1999999102595MD1710051+9999REMSYN04258338 32966 00702 10101 20025 40311 57005=
0109583380999992017012512004+31150+118583FM-12+001699999V0200401N002019999999N007000199+00651+00291103211ADDGF100995999999999999999999MA1999999102685MD1210101+9999REMSYN04258338 32957 00402 10065 20029 40321 52010=
0160583380999992017012518004+31150+118583FM-12+001699999V0201401N00101002401CN002900199+00291+00201103151ADDAY101021AY201021GF109991999999999999999999KA1120M+01161MA1999999102625MD1710031+9999MW1101REMSYN05858338 31/29 91401 10029 20020 40315 57003 71000 333 10116=
0121583380999992017012521004+31150+118583FM-12+001699999V0201401N00301002401CN000800199+00001-00041103001ADDGF109991999999999999999999MA1999999102465MD1710151+9999MW1101REMSYN04858338 31/08 91403 10000 21004 40300 57015 710//=
0137583380999992017012600004+31150+118583FM-12+001699999V0201101N001019999999N001400199+00081+00051102911ADDGF100995999999999999999999MA1999999102375MD1710091+9999MW1101REMSYN06458338 31914 01101 10008 20005 40291 57009 710// 333 05554 31019=
0109583380999992017012603004+31150+118583FM-12+001699999V0202901N002019999999N009000199+00971+00261102941ADDGF100995999999999999999999MA1999999102425MD1210031+9999REMSYN04258338 32959 02902 10097 20026 40294 52003=
0132583380999992017012606004+31150+118583FM-12+001699999V0203201N001019999999N009000199+01371+00381102561ADDGF100995999999999999999999KA1240N-00031MA1999999102055MD1710371+9999REMSYN05258338 32959 03201 10137 20038 40256 57037 333 21003=
0109583380999992017012609004+31150+118583FM-12+001699999V0200701N002019999999N010000199+01311+00431102481ADDGF100995999999999999999999MA1999999101975MD1710091+9999REMSYN04258338 32960 00702 10131 20043 40248 57009=
0137583380999992017012612004+31150+118583FM-12+001699999V0201401N003019999999N006000199+00731+00341102521ADDAY101021AY201021GF100995999999999999999999MA1999999102005MD1210041+9999MW1101REMSYN04858338 31956 01403 10073 20034 40252 52004 71000=
0166583380999992017012618004+31150+118583FM-12+001699999V0202501N00201002401CN003900199+00391+00271102701ADDAY101021AY201021GF109991999999999999999999KA1120M+01531MA1999999102191MD1210051+9999MW1101REMSYN06458338 31/39 92502 10039 20027 30219 40270 52005 71000 333 10153=
0121583380999992017012621004+31150+118583FM-12+001699999V0202901N00201002401CN004500199+00351+00261102761ADDGF109991999999999999999999MA1999999102235MD1210051+9999MW1101REMSYN04858338 31/45 92902 10035 20026 40276 52005 710//=
0181583380999992017012700004+31150+118583FM-12+001699999V0200201N004019999999N003900199+00501+00381102961ADDGA1071+999999999GE19AGL   +99999+99999GF107991071999999999999999MA1999999102435MD1210201+9999MW1101REMSYN07058338 31939 70204 10050 20038 40296 52020 710// 87/// 333 00104 30011=
0181583380999992017012703004+31150+118583FM-12+001699999V0200701N007019999999N003000199+00711+00261103101ADDAY101021AY201021GA1071+999999999GE19AGL   +99999+99999GF107991071999999999999999MA1999999102585MD1210141+9999MW1101REMSYN05458338 31930 70707 10071 20026 40310 52014 71000 87///=
0204583380999992017012706004+31150+118583FM-12+001699999V0200401N005019999999N003500199+00921+00251102901ADDAY101021AY201021GA1021+999999999GE19AGL   +99999+99999GF102991021999999999999999KA1240N+00271MA1999999102385MD1710201+9999MW1051REMSYN06458338 31935 20405 10092 20025 40290 57020 70500 82/// 333 20027=
0153583380999992017012709004+31150+118583FM-12+001699999V0200701N005019999999N013000199+00811+00061102811ADDGA1021+999999999GE19AGL   +99999+99999GF102991021999999999999999MA1999999102295MD1710091+9999REMSYN04858338 32963 20705 10081 20006 40281 57009 82///=
0109583380999992017012712004+31150+118583FM-12+001699999V0200901N004019999999N014000199+00551+00091102741ADDGF100995999999999999999999MA1999999102215MD1710071+9999REMSYN04258338 32964 00904 10055 20009 40274 57007=
0166583380999992017012718004+31150+118583FM-12+001699999V0201101N00601002401CN007000199+00521+00291102351ADDAY101021AY201021GF109991999999999999999999KA1120M+00931MA1999999101831MD1710241+9999MW1101REMSYN06458338 31/57 91106 10052 20029 30183 40235 57024 71000 333 10093=
0121583380999992017012721004+31150+118583FM-12+001699999V0201101N00501002401CN007000199+00581+00381102151ADDGF109991999999999999999999MA1999999101635MD1710191+9999MW1101REMSYN04858338 31/57 91105 10058 20038 40215 57019 710//=
0181583380999992017012800004+31150+118583FM-12+001699999V0201101N005019999999N007000199+00601+00401102111ADDGA1081+017501999GE19AGL   +99999+99999GF108991081999017501999999MA1999999101595MD1710051+9999MW1101REMSYN07058338 31757 81105 10060 20040 40211 57005 710// 88/// 333 05901 30033=
0153583380999992017012803004+31150+118583FM-12+001699999V0201101N003019999999N008000199+00971+00571102091ADDGA1071+999999999GE19AGL   +99999+99999GF107991071999999999999999MA1999999101585MD1710011+9999REMSYN04858338 32958 71103 10097 20057 40209 57001 87///=
0138583380999992017012806004+31150+118583FM-12+001699999V0200401N003019999999N009000199+01541+00691101711ADDGF100995999999999999999999KA1240N+00481MA1999999101201MD1710381+9999REMSYN05858338 32959 00403 10154 20069 30120 40171 57038 333 20048=
0109583380999992017012809004+31150+118583FM-12+001699999V0201101N003019999999N010000199+01461+00791101561ADDGF100995999999999999999999MA1999999101065MD1710151+9999REMSYN04258338 32960 01103 10146 20079 40156 57015=
0143583380999992017012812004+31150+118583FM-12+001699999V0200401N003019999999N999999999+01011+00771101591ADDAY101021AY201021GF100995999999999999999999MA1999999101081MD1210031+9999MW1101REMSYN05458338 31955 00403 10101 20077 30108 40159 52003 71000=
0160583380999992017012818004+31150+118583FM-12+001699999V0202701N00101002401CN002100199+00631+00561101651ADDAY101021AY201021GF109991999999999999999999KA1120M+01601MA1999999101135MD1410001+9999MW1101REMSYN05858338 31/21 92701 10063 20056 40165 54000 71000 333 10160=
0121583380999992017012821004+31150+118583FM-12+001699999V0202901N00101002401CN002300199+00691+00631101561ADDGF109991999999999999999999MA1999999101045MD1710081+9999MW1101REMSYN04858338 31/23 92901 10069 20063 40156 57008 710//=
0137583380999992017012900004+31150+118583FM-12+001699999V0203201N003019999999N003000199+00811+00721101751ADDGF100995999999999999999999MA1999999101235MD1210181+9999MW1101REMSYN06458338 31930 03203 10081 20072 40175 52018 710// 333 05402 30048=
0181583380999992017012903004+31150+118583FM-12+001699999V0202901N006019999999N003700199+01021+00711102001ADDAY101021AY201021GA1071+017501999GE19AGL   +99999+99999GF107991071999017501999999MA1999999101495MD1210251+9999MW1101REMSYN05458338 31737 72906 10102 20071 40200 52025 71000 87///=
0210583380999992017012906004+31150+118583FM-12+001699999V0202901N003019999999N003100199+00891+00621101971ADDAY101021AY201021GA1081+012501999GE19AGL   +99999+99999GF108991081999012501999999KA1240N+00601MA1999999101461MD1710031+9999MW1101REMSYN07058338 31631 82903 10089 20062 30146 40197 57003 71000 88/// 333 20060=
0181583380999992017012909004+31150+118583FM-12+001699999V0203201N005019999999N003600199+00641+00471102291ADDAY101021AY201021GA1081+012501999GE19AGL   +99999+99999GF108991081999012501999999MA1999999101775MD1210311+9999MW1101REMSYN05458338 31636 83205 10064 20047 40229 52031 71000 88///=
0204583380999992017012912004+31150+118583FM-12+001699999V0203201N004019999999N002800199+00491+00451102641ADDAA106000631AY161021AY201021GA1081+012501999GE19AGL   +99999+99999GF108991081999012501999999MA1999999102121MD1210351+9999MW1601REMSYN06658338 11628 83204 10049 20045 30212 40264 52035 69961 76060 88///=
0183583380999992017012918004+31150+118583FM-12+001699999V0203601N00301002401CN004100199+00381+00221103091ADDAA106000831AY101021AY201021GF109991999999999999999999KA1120M+01061MA1999999102571MD1210231+9999MW1101REMSYN07058338 11/41 93603 10038 20022 30257 40309 52023 69981 71000 333 10106=
0142583380999992017012921004+31150+118583FM-12+001699999V0200401N00401002401CN003000199+00311-00021103241ADDAA124001431GF109991999999999999999999MA1999999102715MD1210151+9999MW1101REMSYN05858338 41/30 90404 10031 21002 40324 52015 710// 333 70014=
0165583380999992017013000004+31150+118583FM-12+001699999V0200401N005019999999N007000199+00101-00241103471ADDAA112000831AA224001431GF100995999999999999999999MA1999999102941MD1210221+9999REMSYN07658338 12957 00405 10010 21024 30294 40347 52022 69982 333 01757 30001 70014=
0153583380999992017013003004+31150+118583FM-12+001699999V0200401N002019999999N008000199+00221-00291103641ADDGA1071+008001999GE19AGL   +99999+99999GF107991071999008001999999MA1999999103105MD1210171+9999REMSYN04858338 32558 70402 10022 21029 40364 52017 87///=
0176583380999992017013006004+31150+118583FM-12+001699999V0200401N003019999999N015000199+00281-00441103371ADDGA1041+999999999GE19AGL   +99999+99999GF104991041999999999999999KA1240N+00081MA1999999102845MD1710271+9999REMSYN05858338 32965 40403 10028 21044 40337 57027 84/// 333 20008=
0153583380999992017013009004+31150+118583FM-12+001699999V0200401N002019999999N020000199+00291-00501103381ADDGA1061+999999999GE19AGL   +99999+99999GF106991061999999999999999MA1999999102855MD1210011+9999REMSYN04858338 32970 60402 10029 21050 40338 52001 86///=
0109583380999992017013012004+31150+118583FM-12+001699999V0200701N003019999999N018000199+00061-00441103411ADDGF100995999999999999999999MA1999999102875MD1210031+9999REMSYN04258338 32968 00703 10006 21044 40341 52003=
0132583380999992017013018004+31150+118583FM-12+001699999V0200701N00201002401CN015000199-00121-00361103281ADDGF109991999999999999999999KA1120M+00381MA1999999102745MD1710041+9999REMSYN05258338 32/65 90702 11012 21036 40328 57004 333 10038=
0109583380999992017013021004+31150+118583FM-12+001699999V0200901N00401002401CN017000199-00041-00391103111ADDGF109991999999999999999999MA1999999102575MD1710171+9999REMSYN04258338 32/67 90904 11004 21039 40311 57017=
0175583380999992017013100004+31150+118583FM-12+001699999V0200901N006019999999N018000199+00061-00351103041ADDGA1011+999999999GE19AGL   +99999+99999GF101991011999999999999999MA1999999102511MD1710071+9999REMSYN07058338 32968 10906 10006 21035 30251 40304 57007 81/// 333 05400 31020=
0153583380999992017013103004+31150+118583FM-12+001699999V0200901N005019999999N023000199+00361-00321103021ADDGA1021+999999999GE19AGL   +99999+99999GF102991021999999999999999MA1999999102495MD1710021+9999REMSYN04858338 32973 20905 10036 21032 40302 57002 82///=
0132583380999992017013106004+31150+118583FM-12+001699999V0201101N004019999999N024000199+00581-00301102671ADDGF100995999999999999999999KA1240N-00171MA1999999102155MD1710351+9999REMSYN05258338 32974 01104 10058 21030 40267 57035 333 21017=
0153583380999992017013109004+31150+118583FM-12+001699999V0200401N003019999999N024000199+00581-00141102671ADDGA1081+999999999GE19AGL   +99999+99999GF108991081999999999999999MA1999999102155MD1410001+9999REMSYN04858338 32974 80403 10058 21014 40267 54000 88///=
0153583380999992017013112004+31150+118583FM-12+001699999V0200401N004019999999N021000199+00501-00151102761ADDGA1081+999999999GE19AGL   +99999+99999GF108991081999999999999999MA1999999102235MD1210091+9999REMSYN04858338 32971 80404 10050 21015 40276 52009 88///=
0132583380999992017013118004+31150+118583FM-12+001699999V0200201N00301002401CN010000199+00311+00001103031ADDGF109991999999999999999999KA1120M+00661MA1999999102505MD1210191+9999REMSYN05258338 32/60 90203 10031 20000 40303 52019 333 10066=
0109583380999992017013121004+31150+118583FM-12+001699999V0200201N00301002401CN011000199+00261+00021103171ADDGF109991999999999999999999MA1999999102645MD1210141+9999REMSYN04258338 32/61 90203 10026 20002 40317 52014=
0238583380999992017020100004+31150+118583FM-12+001699999V0200401N003019999999N008000199+00251+00021103391ADDAA112000091AA224000091GA1081+012501999GE19AGL   +99999+99999GF108991081999012501999999MA1999999102865MD1210211+9999REMSYN07658338 12658 80403 10025 20002 40339 52021 69902 88/// 333 00402 30026 79999=EQDQ01  00002PRCP12Q02  00002PRCP24
0153583380999992017020103004+31150+118583FM-12+001699999V0200401N003019999999N010000199+00421-00041103491ADDGA1081+017501999GE19AGL   +99999+99999GF108991081999017501999999MA1999999102965MD1210101+9999REMSYN04858338 32760 80403 10042 21004 40349 52010 88///=
0176583380999992017020106004+31150+118583FM-12+001699999V0200201N003019999999N009000199+00431-00051103401ADDGA1081+017501999GE19AGL   +99999+99999GF108991081999017501999999KA1240N+00231MA1999999102875MD1710091+9999REMSYN05858338 32759 80203 10043 21005 40340 57009 88/// 333 20023=
0153583380999992017020109004+31150+118583FM-12+001699999V0200401N003019999999N009000199+00371-00091103551ADDGA1081+012501999GE19AGL   +99999+99999GF108991081999012501999999MA1999999103025MD1210151+9999REMSYN04858338 32659 80403 10037 21009 40355 52015 88///=
0153583380999992017020112004+31150+118583FM-12+001699999V0200701N001019999999N011000199+00321-00141103601ADDGA1081+012501999GE19AGL   +99999+99999GF108991081999012501999999MA1999999103075MD1210051+9999REMSYN04858338 32661 80701 10032 21014 40360 52005 88///=
0132583380999992017020118004+31150+118583FM-12+001699999V0200401N00101002401CN007000199+00241-00041103431ADDGF109991999999999999999999KA1120M+00501MA1999999102905MD1710151+9999REMSYN05258338 32/57 90401 10024 21004 40343 57015 333 10050=
0121583380999992017020121004+31150+118583FM-12+001699999V0200701N003019999999N999999999+00221-00061103371ADDGF109991999999999999999999MA1999999102845MD1710061+9999MW1101REMSYN04858338 31/55 90703 10022 21006 40337 57006 710//=
0187583380999992017020200004+31150+118583FM-12+001699999V0200701N004019999999N004600199+00211-00121103441ADDGA1081+012501999GE19AGL   +99999+99999GF108991081999012501999999MA1999999102911MD1210071+9999MW1101REMSYN07658338 31646 80704 10021 21012 30291 40344 52007 710// 88/// 333 00100 30014=
0153583380999992017020203004+31150+118583FM-12+001699999V0200701N006019999999N008000199+00411-00111103381ADDGA1081+012501999GE19AGL   +99999+99999GF108991081999012501999999MA1999999102855MD1710061+9999REMSYN04858338 32658 80706 10041 21011 40338 57006 88///=
0182583380999992017020206004+31150+118583FM-12+001699999V0201101N006019999999N012000199+00671-00031102971ADDGA1071+999999999GE19AGL   +99999+99999GF107991071999999999999999KA1240N+00201MA1999999102451MD1710401+9999REMSYN06458338 32962 71106 10067 21003 30245 40297 57040 87/// 333 20020=
0153583380999992017020209004+31150+118583FM-12+001699999V0200701N005019999999N014000199+00641-00011102811ADDGA1071+999999999GE19AGL   +99999+99999GF107991071999999999999999MA1999999102295MD1710161+9999REMSYN04858338 32964 70705 10064 21001 40281 57016 87///=
0159583380999992017020212004+31150+118583FM-12+001699999V0200401N004019999999N015000199+00531+00031102801ADDGA1071+999999999GE19AGL   +99999+99999GF107991071999999999999999MA1999999102281MD1710011+9999REMSYN05458338 32965 70404 10053 20003 30228 40280 57001 87///=
0132583380999992017020218004+31150+118583FM-12+001699999V0201101N00301002401CN012000199+00511+00181102671ADDGF109991999999999999999999KA1120M+00691MA1999999102145MD1710091+9999REMSYN05258338 32/62 91103 10051 20018 40267 57009 333 10069=
0142583380999992017020221004+31150+118583FM-12+001699999V0200701N001019999999N999999999+00451+00271102611ADDAA124000331GF109991999999999999999999MA1999999102085MD1710061+9999MW1101REMSYN05858338 41/55 90701 10045 20027 40261 57006 710// 333 70003=
0215583380999992017020300004+31150+118583FM-12+001699999V0200901N001019999999N002200199+00411+00351102641ADDAA106002032AA224001832GA1081+008001999GE19AGL   +99999+99999GF108991081999008001999999MA1999999102115MD1210031+9999MW1601REMSYN08258338 11522 80901 10041 20035 40264 52003 60021 760// 88/// 333 05802 30047 70018=
0181583380999992017020303004+31150+118583FM-12+001699999V0202701N001019999999N003000199+00491+00391102631ADDAY161021AY261021GA1081+004501999GE19AGL   +99999+99999GF108991081999004501999999MA1999999102105MD1710011+9999MW1601REMSYN05458338 41430 82701 10049 20039 40263 57001 76066 88///=
0227583380999992017020306004+31150+118583FM-12+001699999V0203401N001019999999N001900199+00471+00411102371ADDAA106001031AY161021AY261021GA1081+004501999GE19AGL   +99999+99999GF108991081999004501999999KA1240N+00401MA1999999101851MD1710261+9999MW1601REMSYN07658338 11419 83401 10047 20041 30185 40237 57026 60011 76066 88/// 333 20040=
0181583380999992017020309004+31150+118583FM-12+001699999V0203601N001019999999N001900199+00511+00441102351ADDAY161021AY261021GA1081+004501999GE19AGL   +99999+99999GF108991081999004501999999MA1999999101835MD1710021+9999MW1601REMSYN05458338 41419 83601 10051 20044 40235 57002 76066 88///=
0198583380999992017020312004+31150+118583FM-12+001699999V0200701N002019999999N002000199+00491+00451102381ADDAA106002031AY161021AY261021GA1081+004501999GE19AGL   +99999+99999GF108991081999004501999999MA1999999101865MD1210031+9999MW1601REMSYN06058338 11420 80702 10049 20045 40238 52003 60021 76066 88///=
0177583380999992017020318004+31150+118583FM-12+001699999V0203601N00101002401CN001000199+00491+00461102161ADDAA106000531AY101021AY201021GF109991999999999999999999KA1120M+00521MA1999999101645MD1710121+9999MW1101REMSYN06458338 11/10 93601 10049 20046 40216 57012 69951 71000 333 10052=
0142583380999992017020321004+31150+118583FM-12+001699999V0202901N00101002401CN000700199+00471+00461102141ADDAA124005431GF109991999999999999999999MA1999999101625MD1710021+9999MW1101REMSYN05858338 41/07 92901 10047 20046 40214 57002 710// 333 70054=
0209583380999992017020400004+31150+118583FM-12+001699999V0202201N001019999999N001000199+00491+00481102201ADDAA106000431AA224004031GA1081+004501999GE19AGL   +99999+99999GF108991081999004501999999MA1999999101685MD1210061+9999MW1601REMSYN07658338 11410 82201 10049 20048 40220 52006 69941 760// 88/// 333 05401 70040=
0181583380999992017020403004+31150+118583FM-12+001699999V0202501N001019999999N002600199+00621+00551102081ADDAY161021AY201021GA1081+008001999GE19AGL   +99999+99999GF108991081999008001999999MA1999999101565MD1710121+9999MW1101REMSYN05458338 41526 82501 10062 20055 40208 57012 71060 88///=
0221583380999992017020406004+31150+118583FM-12+001699999V0202901N002019999999N002800199+00721+00571101851ADDAA106000131AY161021AY201021GA1081+008001999GE19AGL   +99999+99999GF108991081999008001999999KA1240N+00461MA1999999101335MD1710221+9999MW1101REMSYN07058338 11528 82902 10072 20057 40185 57022 69911 71060 88/// 333 20046=
0181583380999992017020409004+31150+118583FM-12+001699999V0202701N001019999999N002800199+00701+00581101801ADDAY101021AY201021GA1081+012501999GE19AGL   +99999+99999GF108991081999012501999999MA1999999101285MD1710051+9999MW1101REMSYN05458338 31628 82701 10070 20058 40180 57005 71000 88///=
0187583380999992017020412004+31150+118583FM-12+001699999V0209999C999999999999N002100199+00671+00581101941ADDAY101021AY201021GA1081+012501999GE19AGL   +99999+99999GF108991081999012501999999MA1999999101421MD1210131+9999MW1101REMSYN06058338 31621 80000 10067 20058 30142 40194 52013 71000 88///=
0160583380999992017020418004+31150+118583FM-12+001699999V0202901N00101002401CN000900199+00631+00601101961ADDAY101021AY201021GF109991999999999999999999KA1120M+00731MA1999999101445MD1710051+9999MW1101REMSYN05858338 31/09 92901 10063 20060 40196 57005 71000 333 10073=
0142583380999992017020421004+31150+118583FM-12+001699999V0202701N00101002401CN000700199+00631+00601101991ADDAA124000231GF109991999999999999999999MA1999999101475MD1210031+9999MW1101REMSYN05858338 31/07 92701 10063 20060 40199 52003 710// 333 70002=
0198583380999992017020500004+31150+118583FM-12+001699999V0202501N001019999999N004100199+00651+00561102251ADDAA124000131GA1081+012501999GE19AGL   +99999+99999GF108991081999012501999999MA1999999101731MD1210251+9999MW1101REMSYN07658338 31641 82501 10065 20056 30173 40225 52025 710// 88/// 333 00102 70001=
0181583380999992017020503004+31150+118583FM-12+001699999V0200201N003019999999N004200199+00801+00511102371ADDAY101021AY201021GA1081+012501999GE19AGL   +99999+99999GF108991081999012501999999MA1999999101855MD1210131+9999MW1101REMSYN05458338 31642 80203 10080 20051 40237 52013 71000 88///=
0204583380999992017020506004+31150+118583FM-12+001699999V0203401N003019999999N004900199+00911+00371102121ADDAY101021AY201021GA1071+017501999GE19AGL   +99999+99999GF107991071999017501999999KA1240N+00621MA1999999101605MD1710251+9999MW1051REMSYN06458338 31749 73403 10091 20037 40212 57025 70500 87/// 333 20062=
0181583380999992017020509004+31150+118583FM-12+001699999V0200401N002019999999N004800199+00901+00401102081ADDAY101021AY201021GA1071+999999999GE19AGL   +99999+99999GF107991071999999999999999MA1999999101565MD1710041+9999MW1051REMSYN05458338 31948 70402 10090 20040 40208 57004 70500 87///=
0137583380999992017020512004+31150+118583FM-12+001699999V0200701N001019999999N003300199+00511+00341102211ADDAY101021AY201021GF100995999999999999999999MA1999999101695MD1210121+9999MW1101REMSYN04858338 31933 00701 10051 20034 40221 52012 71000=
0160583380999992017020518004+31150+118583FM-12+001699999V0201101N00401002401CN002000199+00381+00311102341ADDAY101021AY201021GF109991999999999999999999KA1120M+01011MA1999999101815MD1210091+9999MW1101REMSYN05858338 31/20 91104 10038 20031 40234 52009 71000 333 10101=
0121583380999992017020521004+31150+118583FM-12+001699999V0200901N00401002401CN001700199+00341+00271102411ADDGF109991999999999999999999MA1999999101885MD1210071+9999MW1101REMSYN04858338 31/17 90904 10034 20027 40241 52007 710//=
0181583380999992017020600004+31150+118583FM-12+001699999V0200701N004019999999N002000199+00401+00271102631ADDGA1081+012501999GE19AGL   +99999+99999GF108991081999012501999999MA1999999102105MD1210221+9999MW1101REMSYN07058338 31620 80704 10040 20027 40263 52022 710// 88/// 333 00453 30013=
0181583380999992017020603004+31150+118583FM-12+001699999V0201101N008019999999N007000199+00791-00221102721ADDAY101021AY201021GA1071+022501999GE19AGL   +99999+99999GF107991071999022501999999MA1999999102205MD1210091+9999MW1051REMSYN05458338 31857 71108 10079 21022 40272 52009 70500 87///=
0176583380999992017020606004+31150+118583FM-12+001699999V0200901N005019999999N011000199+01001-00231102511ADDGA1071+999999999GE19AGL   +99999+99999GF107991071999999999999999KA1240N+00281MA1999999101995MD1710211+9999REMSYN05858338 32961 70905 10100 21023 40251 57021 87/// 333 20028=
0153583380999992017020609004+31150+118583FM-12+001699999V0200701N006019999999N012000199+00891-00151102451ADDGA1071+999999999GE19AGL   +99999+99999GF107991071999999999999999MA1999999101935MD1710061+9999REMSYN04858338 32962 70706 10089 21015 40245 57006 87///=
0153583380999992017020612004+31150+118583FM-12+001699999V0200901N007019999999N010000199+00661-00131102591ADDGA1071+999999999GE19AGL   +99999+99999GF107991071999999999999999MA1999999102075MD1210141+9999REMSYN04858338 32960 70907 10066 21013 40259 52014 87///=
0138583380999992017020618004+31150+118583FM-12+001699999V0200701N00601002401CN017000199+00291+00031102631ADDGF109991999999999999999999KA1120M+01111MA1999999102111MD1710071+9999REMSYN05858338 32/67 90706 10029 20003 30211 40263 57007 333 10111=
0109583380999992017020621004+31150+118583FM-12+001699999V0200701N00701002401CN016000199+00211-00051102541ADDGF109991999999999999999999MA1999999102015MD1710091+9999REMSYN04258338 32/66 90707 10021 21005 40254 57009=
0125583380999992017020700004+31150+118583FM-12+001699999V0200901N006019999999N016000199+00361-00011102641ADDGF100995999999999999999999MA1999999102115MD1210101+9999REMSYN05858338 32966 00906 10036 21001 40264 52010 333 00000 30002=
0153583380999992017020703004+31150+118583FM-12+001699999V0200701N009019999999N020000199+00611+00001102511ADDGA1071+999999999GE19AGL   +99999+99999GF107991071999999999999999MA1999999101995MD1710131+9999REMSYN04858338 32970 70709 10061 20000 40251 57013 87///=
0182583380999992017020706004+31150+118583FM-12+001699999V0200401N005019999999N023000199+00731+00051102301ADDGA1071+017501999GE19AGL   +99999+99999GF107991071999017501999999KA1240N+00171MA1999999101781MD1710211+9999REMSYN06458338 32773 70405 10073 20005 30178 40230 57021 87/// 333 20017=
0153583380999992017020709004+31150+118583FM-12+001699999V0200401N005019999999N022000199+00691+00061102291ADDGA1081+012501999GE19AGL   +99999+99999GF108991081999012501999999MA1999999101775MD1710011+9999REMSYN04858338 32672 80405 10069 20006 40229 57001 88///=
0159583380999992017020712004+31150+118583FM-12+001699999V0200701N003019999999N016000199+00601+00211102361ADDGA1081+012501999GE19AGL   +99999+99999GF108991081999012501999999MA1999999101841MD1210071+9999REMSYN05458338 32666 80703 10060 20021 30184 40236 52007 88///=
0177583380999992017020718004+31150+118583FM-12+001699999V0200201N00401002401CN003600199+00391+00331102331ADDAA106002031AY101021AY201021GF109991999999999999999999KA1120M+00791MA1999999101805MD1210011+9999MW1101REMSYN06458338 11/36 90204 10039 20033 40233 52001 60021 71000 333 10079=
0142583380999992017020721004+31150+118583FM-12+001699999V0200401N00401002401CN003300199+00351+00311102321ADDAA124005331GF109991999999999999999999MA1999999101795MD1710011+9999MW1101REMSYN05858338 41/33 90404 10035 20031 40232 57001 710// 333 70053=
0221583380999992017020800004+31150+118583FM-12+001699999V0200201N004019999999N002600199+00271+00211102491ADDAA106007031AA224009131GA1081+004501999GE19AGL   +99999+99999GF108991081999004501999999MA1999999101971MD1210171+9999MW1601REMSYN08858338 11426 80204 10027 20021 30197 40249 52017 60071 760// 88/// 333 05251 30037 70091=
0181583380999992017020803004+31150+118583FM-12+001699999V0200201N004019999999N004700199+00211+00151102641ADDAY161021AY261021GA1081+004501999GE19AGL   +99999+99999GF108991081999004501999999MA1999999102115MD1210151+9999MW1601REMSYN05458338 41447 80204 10021 20015 40264 52015 76066 88///=
0221583380999992017020806004+31150+118583FM-12+001699999V0203201N002019999999N006000199+00191+00121102581ADDAA106004031AY161021AY261021GA1081+002501999GE19AGL   +99999+99999GF108991081999002501999999KA1240N+00161MA1999999102055MD1710061+9999MW1611REMSYN07058338 11356 83202 10019 20012 40258 57006 60041 76166 88/// 333 20016=
0181583380999992017020809004+31150+118583FM-12+001699999V0203201N004019999999N003500199+00181+00061102721ADDAY161021AY261021GA1081+004501999GE19AGL   +99999+99999GF108991081999004501999999MA1999999102195MD1210131+9999MW1611REMSYN05458338 41435 83204 10018 20006 40272 52013 76166 88///=
0204583380999992017020812004+31150+118583FM-12+001699999V0203201N005019999999N004400199+00131-00021102971ADDAA106000531AY161021AY261021GA1081+002501999GE19AGL   +99999+99999GF108991081999002501999999MA1999999102441MD1210251+9999MW1601REMSYN06658338 11344 83205 10013 21002 30244 40297 52025 69951 76066 88///=
0177583380999992017020818004+31150+118583FM-12+001699999V0202901N00401002401CN002400199+00101-00061103021ADDAA106000131AY101021AY201021GF109991999999999999999999KA1120M+00391MA1999999102485MD1710071+9999MW1101REMSYN06458338 11/24 92904 10010 21006 40302 57007 69911 71000 333 10039=
0142583380999992017020821004+31150+118583FM-12+001699999V0202901N00301002401CN002600199+00081-00101102991ADDAA124008031GF109991999999999999999999MA1999999102455MD1710031+9999MW1101REMSYN05858338 31/26 92903 10008 21010 40299 57003 710// 333 70080=
0215583380999992017020900004+31150+118583FM-12+001699999V0202901N003019999999N002700199+00011-00151103071ADDAA112000131AA224004231GA1041+008001999GE19AGL   +99999+99999GF104991041999008001999999MA1999999102535MD1210081+9999MW1101REMSYN08258338 11527 42903 10001 21015 40307 52008 69912 710// 84/// 333 00653 31004 70042=
0181583380999992017020903004+31150+118583FM-12+001699999V0203201N003019999999N004400199+00281-00231103101ADDAY101021AY201021GA1061+999999999GE19AGL   +99999+99999GF106991061999999999999999MA1999999102575MD1210031+9999MW1101REMSYN05458338 31944 63203 10028 21023 40310 52003 71000 86///=
0176583380999992017020906004+31150+118583FM-12+001699999V0202901N004019999999N013000199+00531-00691102821ADDGA1071+999999999GE19AGL   +99999+99999GF107991071999999999999999KA1240N-00061MA1999999102295MD1710281+9999REMSYN05858338 32963 72904 10053 21069 40282 57028 87/// 333 21006=
0153583380999992017020909004+31150+118583FM-12+001699999V0202901N002019999999N010000199+00441-00491102731ADDGA1071+999999999GE19AGL   +99999+99999GF107991071999999999999999MA1999999102205MD1710091+9999REMSYN04858338 32960 72902 10044 21049 40273 57009 87///=
0181583380999992017020912004+31150+118583FM-12+001699999V0202501N002019999999N007000199+00181-00271102841ADDAY101021AY201021GA1071+999999999GE19AGL   +99999+99999GF107991071999999999999999MA1999999102315MD1210111+9999MW1101REMSYN05458338 31957 72502 10018 21027 40284 52011 71000 87///=
0160583380999992017020918004+31150+118583FM-12+001699999V0202901N00301002401CN006000199+00101-00261102991ADDAY101021AY201021GF109991999999999999999999KA1120M+00611MA1999999102455MD1210021+9999MW1101REMSYN05858338 31/56 92903 10010 21026 40299 52002 71000 333 10061=
0121583380999992017020921004+31150+118583FM-12+001699999V0202501N00101002401CN003000199-00091-00251103031ADDGF109991999999999999999999MA1999999102495MD1210041+9999MW1101REMSYN04858338 31/30 92501 11009 21025 40303 52004 710//=
0137583380999992017021000004+31150+118583FM-12+001699999V0202501N002019999999N002000199-00191-00271103201ADDGF100995999999999999999999MA1999999102665MD1210171+9999MW1101REMSYN06458338 31920 02502 11019 21027 40320 52017 710// 333 00152 31013=
0137583380999992017021003004+31150+118583FM-12+001699999V0203201N003019999999N007000199+00411-00651103231ADDAY101021AY201021GF100995999999999999999999MA1999999102705MD1210031+9999MW1051REMSYN04858338 31957 03203 10041 21065 40323 52003 70500=
0132583380999992017021006004+31150+118583FM-12+001699999V0203401N005019999999N022000199+00711-01111102961ADDGF100995999999999999999999KA1240N-00241MA1999999102445MD1710261+9999REMSYN05258338 32972 03405 10071 21111 40296 57026 333 21024=
0109583380999992017021009004+31150+118583FM-12+001699999V0203201N002019999999N024000199+00581-01001102991ADDGF100995999999999999999999MA1999999102465MD1210021+9999REMSYN04258338 32974 03202 10058 21100 40299 52002=
0109583380999992017021012004+31150+118583FM-12+001699999V0203401N002019999999N021000199+00371-00901103151ADDGF100995999999999999999999MA1999999102625MD1210161+9999REMSYN04258338 32971 03402 10037 21090 40315 52016=
0132583380999992017021018004+31150+118583FM-12+001699999V0202701N00101002401CN012000199-00121-00421103311ADDGF109991999999999999999999KA1120M+00721MA1999999102775MD1210051+9999REMSYN05258338 32/62 92701 11012 21042 40331 52005 333 10072=
0109583380999992017021021004+31150+118583FM-12+001699999V0202501N00201002401CN010000199-00241-00491103321ADDGF109991999999999999999999MA1999999102785MD1210011+9999REMSYN04258338 32/60 92502 11024 21049 40332 52001=
0137583380999992017021100004+31150+118583FM-12+001699999V0202701N002019999999N006000199-00191-00411103411ADDGF100995999999999999999999MA1999999102875MD1210091+9999MW1101REMSYN06458338 31956 02702 11019 21041 40341 52009 710// 333 00200 31028=
0153583380999992017021103004+31150+118583FM-12+001699999V0201601N001019999999N015000199+00621-00891103451ADDGA1021+999999999GE19AGL   +99999+99999GF102991021999999999999999MA1999999102925MD1210041+9999REMSYN04858338 32965 21601 10062 21089 40345 52004 82///=
0176583380999992017021106004+31150+118583FM-12+001699999V0200901N002019999999N021000199+00831-01011103161ADDGA1071+999999999GE19AGL   +99999+99999GF107991071999999999999999KA1240N-00361MA1999999102645MD1710291+9999REMSYN05858338 32971 70902 10083 21101 40316 57029 87/// 333 21036=
0153583380999992017021109004+31150+118583FM-12+001699999V0202201N002019999999N022000199+00821-00921103091ADDGA1021+999999999GE19AGL   +99999+99999GF102991021999999999999999MA1999999102575MD1710071+9999REMSYN04858338 32972 22202 10082 21092 40309 57007 82///=
0109583380999992017021112004+31150+118583FM-12+001699999V0200701N003019999999N020000199+00271-00411103121ADDGF100995999999999999999999MA1999999102595MD1210031+9999REMSYN04258338 32970 00703 10027 21041 40312 52003=
0132583380999992017021118004+31150+118583FM-12+001699999V0202001N00101002401CN014000199-00121-00401103151ADDGF109991999999999999999999KA1120M+00961MA1999999102615MD1710021+9999REMSYN05258338 32/64 92001 11012 21040 40315 57002 333 10096=
0109583380999992017021121004+31150+118583FM-12+001699999V0201401N00101002401CN009000199-00281-00421103131ADDGF109991999999999999999999MA1999999102595MD1710021+9999REMSYN04258338 32/59 91401 11028 21042 40313 57002=
0125583380999992017021200004+31150+118583FM-12+001699999V0201401N001019999999N011000199-00021-00341103241ADDGF100995999999999999999999MA1999999102705MD1210111+9999REMSYN05858338 32961 01401 11002 21034 40324 52011 333 05202 31028=
0109583380999992017021203004+31150+118583FM-12+001699999V0202201N001019999999N018000199+00911-00521103201ADDGF100995999999999999999999MA1999999102685MD1710031+9999REMSYN04258338 32968 02201 10091 21052 40320 57003=
0132583380999992017021206004+31150+118583FM-12+001699999V0202901N002019999999N020000199+01291-00721102941ADDGF100995999999999999999999KA1240N-00341MA1999999102435MD1710261+9999REMSYN05258338 32970 02902 10129 21072 40294 57026 333 21034=
0109583380999992017021209004+31150+118583FM-12+001699999V0200401N002019999999N020000199+01151-00461102861ADDGF100995999999999999999999MA1999999102355MD1710081+9999REMSYN04258338 32970 00402 10115 21046 40286 57008=
0109583380999992017021212004+31150+118583FM-12+001699999V0200901N002019999999N014000199+00561-00181102941ADDGF100995999999999999999999MA1999999102415MD1210071+9999REMSYN04258338 32964 00902 10056 21018 40294 52007=
0132583380999992017021218004+31150+118583FM-12+001699999V0201101N00201002401CN012000199+00221-00291103001ADDGF109991999999999999999999KA1120M+01401MA1999999102475MD1210021+9999REMSYN05258338 32/62 91102 10022 21029 40300 52002 333 10140=
0109583380999992017021221004+31150+118583FM-12+001699999V0201101N00201002401CN008000199+00061-00251103011ADDGF109991999999999999999999MA1999999102475MD1210011+9999REMSYN04258338 32/58 91102 10006 21025 40301 52001=
0131583380999992017021300004+31150+118583FM-12+001699999V0201401N002019999999N007000199+00151-00111103231ADDGF100995999999999999999999MA1999999102701MD1210211+9999REMSYN06458338 32957 01402 10015 21011 30270 40323 52021 333 00002 31014=
0109583380999992017021303004+31150+118583FM-12+001699999V0203201N001019999999N020000199+01181-00071103301ADDGF100995999999999999999999MA1999999102785MD1210081+9999REMSYN04258338 32970 03201 10118 21007 40330 52008=
0132583380999992017021306004+31150+118583FM-12+001699999V0203401N002019999999N018000199+01541-00351103091ADDGF100995999999999999999999KA1240N-00091MA1999999102585MD1710211+9999REMSYN05258338 32968 03402 10154 21035 40309 57021 333 21009=
0109583380999992017021309004+31150+118583FM-12+001699999V0200701N004019999999N017000199+01461-00071103101ADDGF100995999999999999999999MA1999999102595MD1210011+9999REMSYN04258338 32967 00704 10146 21007 40310 52001=
0109583380999992017021312004+31150+118583FM-12+001699999V0201101N003019999999N013000199+00751+00161103181ADDGF100995999999999999999999MA1999999102665MD1210081+9999REMSYN04258338 32963 01103 10075 20016 40318 52008=
0132583380999992017021318004+31150+118583FM-12+001699999V0201101N00301002401CN008000199+00501-00041103281ADDGF109991999999999999999999KA1120M+01691MA1999999102755MD1210011+9999REMSYN05258338 32/58 91103 10050 21004 40328 52001 333 10169=
0109583380999992017021321004+31150+118583FM-12+001699999V0201101N00201002401CN008000199+00381-00181103361ADDGF109991999999999999999999MA1999999102835MD1210071+9999REMSYN04258338 32/58 91102 10038 21018 40336 52007=
0175583380999992017021400004+31150+118583FM-12+001699999V0201101N004019999999N008000199+00541+00001103471ADDGA1011+999999999GE19AGL   +99999+99999GF101991011999999999999999MA1999999102951MD1210111+9999REMSYN07058338 32958 11104 10054 20000 30295 40347 52011 81/// 333 00304 30004=
0153583380999992017021403004+31150+118583FM-12+001699999V0200901N004019999999N009000199+01251+00031103451ADDGA1071+999999999GE19AGL   +99999+99999GF107991071999999999999999MA1999999102935MD1710021+9999REMSYN04858338 32959 70904 10125 20003 40345 57002 87///=
0182583380999992017021406004+31150+118583FM-12+001699999V0201101N006019999999N015000199+01531-00461103161ADDGA1071+999999999GE19AGL   +99999+99999GF107991071999999999999999KA1240N+00361MA1999999102651MD1710281+9999REMSYN06458338 32965 71106 10153 21046 30265 40316 57028 87/// 333 20036=
0153583380999992017021409004+31150+118583FM-12+001699999V0201101N005019999999N020000199+01431-00401103071ADDGA1061+999999999GE19AGL   +99999+99999GF106991061999999999999999MA1999999102565MD1710101+9999REMSYN04858338 32970 61105 10143 21040 40307 57010 86///=
0153583380999992017021412004+31150+118583FM-12+001699999V0200901N006019999999N013000199+01101-00241103131ADDGA1021+999999999GE19AGL   +99999+99999GF102991021999999999999999MA1999999102615MD1210061+9999REMSYN04858338 32963 20906 10110 21024 40313 52006 82///=
0132583380999992017021418004+31150+118583FM-12+001699999V0201101N00401002401CN016000199+00631-00231102901ADDGF109991999999999999999999KA1120M+01611MA1999999102385MD1710181+9999REMSYN05258338 32/66 91104 10063 21023 40290 57018 333 10161=
0109583380999992017021421004+31150+118583FM-12+001699999V0201101N00401002401CN009000199+00461-00101102801ADDGF109991999999999999999999MA1999999102275MD1710101+9999REMSYN04258338 32/59 91104 10046 21010 40280 57010=
0143583380999992017021500004+31150+118583FM-12+001699999V0201601N001019999999N007000199+00611+00021102891ADDGF100995999999999999999999MA1999999102371MD1210081+9999MW1101REMSYN07058338 31957 01601 10061 20002 30237 40289 52008 710// 333 05601 30019=
0109583380999992017021503004+31150+118583FM-12+001699999V0201601N002019999999N011000199+01461+00121102791ADDGF100995999999999999999999MA1999999102285MD1710091+9999REMSYN04258338 32961 01602 10146 20012 40279 57009=
0138583380999992017021506004+31150+118583FM-12+001699999V0202701N002019999999N020000199+01951+00001102451ADDGF100995999999999999999999KA1240N+00421MA1999999101941MD1710341+9999REMSYN05858338 32970 02702 10195 20000 30194 40245 57034 333 20042=
0109583380999992017021509004+31150+118583FM-12+001699999V0200701N001019999999N015000199+01811+00201102341ADDGF100995999999999999999999MA1999999101845MD1710111+9999REMSYN04258338 32965 00701 10181 20020 40234 57011=
0153583380999992017021512004+31150+118583FM-12+001699999V0201101N003019999999N010000199+01181+00411102271ADDGA1071+999999999GE19AGL   +99999+99999GF107991071999999999999999MA1999999101765MD1710071+9999REMSYN04858338 42960 71103 10118 20041 40227 57007 87///=
0160583380999992017021518004+31150+118583FM-12+001699999V0201401N00201002401CN005000199+00771+00411101911ADDAY101021AY201021GF109991999999999999999999KA1120M+01951MA1999999101395MD1710181+9999MW1101REMSYN05858338 31/50 91402 10077 20041 40191 57018 71000 333 10195=
0121583380999992017021521004+31150+118583FM-12+001699999V0201401N00301002401CN004700199+00791+00471101761ADDGF109991999999999999999999MA1999999101245MD1710151+9999MW1101REMSYN04858338 31/47 91403 10079 20047 40176 57015 710//=
0211583380999992017021600004+31150+118583FM-12+001699999V0201101N002019999999N999999999+00921+00581101811ADDAA112000091GA1081+017501999GE19AGL   +99999+99999GF108991081999017501999999MA1999999101305MD1210041+9999MW1101REMSYN07058338 11755 81102 10092 20058 40181 52004 69902 710// 88/// 333 06103=EQDQ01  00002PRCP12
0181583380999992017021603004+31150+118583FM-12+001699999V0201401N003019999999N009000199+01751+00841101661ADDAY161021AY201021GA1071+012501999GE19AGL   +99999+99999GF107991071999012501999999MA1999999101165MD1710141+9999MW1001REMSYN05458338 31659 71403 10175 20084 40166 57014 70060 87///=
0196583380999992017021606004+31150+118583FM-12+001699999V0202201N009019999999N020000199+02321+00851101331ADDAA106000091AY161021AY201021GF100995999999999999999999KA1240N+00631MA1999999100845MD1710331+9999MW1001REMSYN06458338 11970 02209 10232 20085 40133 57033 69901 70060 333 20063=EQDQ01  00002PRCP06
0109583380999992017021609004+31150+118583FM-12+001699999V0202201N004019999999N019000199+02231+00981101351ADDGF100995999999999999999999MA1999999100865MD1210021+9999REMSYN04258338 32969 02204 10223 20098 40135 52002=
0109583380999992017021612004+31150+118583FM-12+001699999V0202201N003019999999N017000199+01791+00951101591ADDGF100995999999999999999999MA1999999101095MD1210241+9999REMSYN04258338 32967 02203 10179 20095 40159 52024=
0138583380999992017021618004+31150+118583FM-12+001699999V0202901N00101002401CN013000199+01351+00921101901ADDGF109991999999999999999999KA1120M+02371MA1999999101411MD1210131+9999REMSYN05858338 32/63 92901 10135 20092 30141 40190 52013 333 10237=
0109583380999992017021621004+31150+118583FM-12+001699999V0202501N00101002401CN007000199+01201+00961102051ADDGF109991999999999999999999MA1999999101545MD1210141+9999REMSYN04258338 32/57 92501 10120 20096 40205 52014=
0211583380999992017021700004+31150+118583FM-12+001699999V0200401N007019999999N001800199+01061+00871102491ADDAA124000091GA1081+012501999GE19AGL   +99999+99999GF108991081999012501999999MA1999999101985MD1210441+9999MW1101REMSYN07058338 31618 80407 10106 20087 40249 52044 710// 88/// 333 00701 79999=EQDQ01  00002PRCP24
0181583380999992017021703004+31150+118583FM-12+001699999V0200401N004019999999N002300199+00801+00561102831ADDAY101021AY201021GA1081+012501999GE19AGL   +99999+99999GF108991081999012501999999MA1999999102315MD1210331+9999MW1101REMSYN05458338 31623 80404 10080 20056 40283 52033 71000 88///=
0204583380999992017021706004+31150+118583FM-12+001699999V0200401N004019999999N999999999+00781+00401102731ADDAY101021AY201021GA1081+012501999GE19AGL   +99999+99999GF108991081999012501999999KA1240N+00771MA1999999102215MD1710101+9999MW1101REMSYN06458338 31655 80404 10078 20040 40273 57010 71000 88/// 333 20077=
0181583380999992017021709004+31150+118583FM-12+001699999V0200701N006019999999N009000199+00721+00291102751ADDAY161021AY201021GA1081+012501999GE19AGL   +99999+99999GF108991081999012501999999MA1999999102235MD1210021+9999MW1001REMSYN05458338 31659 80706 10072 20029 40275 52002 70060 88///=
0217583380999992017021712004+31150+118583FM-12+001699999V0200701N004019999999N016000199+00651+00081102951ADDAA106000091AY161021AY201021GA1081+012501999GE19AGL   +99999+99999GF108991081999012501999999MA1999999102435MD1210191+9999MW1001REMSYN06058338 11666 80704 10065 20008 40295 52019 69901 70060 88///=EQDQ01  00002PRCP06
0132583380999992017021718004+31150+118583FM-12+001699999V0200701N00401002401CN009000199+00471+00191102941ADDGF109991999999999999999999KA1120M+01391MA1999999102415MD1710021+9999REMSYN05258338 32/59 90704 10047 20019 40294 57002 333 10139=
0109583380999992017021721004+31150+118583FM-12+001699999V0200701N00301002401CN012000199+00371+00171102811ADDGF109991999999999999999999MA1999999102285MD1710131+9999REMSYN04258338 32/62 90703 10037 20017 40281 57013=
0238583380999992017021800004+31150+118583FM-12+001699999V0200901N004019999999N010000199+00361+00181102961ADDAA112000091AA224000091GA1081+012501999GE19AGL   +99999+99999GF108991081999012501999999MA1999999102435MD1210151+9999REMSYN07658338 12660 80904 10036 20018 40296 52015 69902 88/// 333 00557 30025 79999=EQDQ01  00002PRCP12Q02  00002PRCP24
0153583380999992017021803004+31150+118583FM-12+001699999V0201601N002019999999N010000199+00831+00361102911ADDGA1071+999999999GE19AGL   +99999+99999GF107991071999999999999999MA1999999102395MD1710051+9999REMSYN04858338 32960 71602 10083 20036 40291 57005 87///=
0176583380999992017021806004+31150+118583FM-12+001699999V0200401N002019999999N008000199+01271+00541102661ADDGA1071+999999999GE19AGL   +99999+99999GF107991071999999999999999KA1240N+00331MA1999999102155MD1710241+9999REMSYN05858338 32958 70402 10127 20054 40266 57024 87/// 333 20033=
0109583380999992017021809004+31150+118583FM-12+001699999V0201101N002019999999N007000199+01271+00651102491ADDGF100995999999999999999999MA1999999101985MD1710171+9999REMSYN04258338 32957 01102 10127 20065 40249 57017=
0137583380999992017021812004+31150+118583FM-12+001699999V0200701N003019999999N005000199+00811+00611102501ADDAY101021AY201021GF100995999999999999999999MA1999999101985MD1410001+9999MW1101REMSYN04858338 31950 00703 10081 20061 40250 54000 71000=
0160583380999992017021818004+31150+118583FM-12+001699999V0201101N00201002401CN001700199+00471+00411102051ADDAY101021AY201021GF109991999999999999999999KA1120M+01391MA1999999101535MD1710271+9999MW1101REMSYN05858338 31/17 91102 10047 20041 40205 57027 71000 333 10139=
0121583380999992017021821004+31150+118583FM-12+001699999V0201101N00201002401CN001800199+00521+00481101791ADDGF109991999999999999999999MA1999999101275MD1710261+9999MW1101REMSYN04858338 31/18 91102 10052 20048 40179 57026 710//=
0181583380999992017021900004+31150+118583FM-12+001699999V0201101N002019999999N002400199+00591+00521101581ADDGA1071+999999999GE19AGL   +99999+99999GF107991071999999999999999MA1999999101065MD1710211+9999MW1101REMSYN07058338 31924 71102 10059 20052 40158 57021 710// 87/// 333 06402 30035=
0153583380999992017021903004+31150+118583FM-12+001699999V0202201N003019999999N008000199+01631+00801101341ADDGA1021+999999999GE19AGL   +99999+99999GF102991021999999999999999MA1999999100845MD1710231+9999REMSYN04858338 32958 22203 10163 20080 40134 57023 82///=
0132583380999992017021906004+31150+118583FM-12+001699999V0202901N003019999999N010000199+02261+01111100911ADDGF100995999999999999999999KA1240N+00411MA1999999100425MD1710431+9999REMSYN05258338 32960 02903 10226 20111 40091 57043 333 20041=
0153583380999992017021909004+31150+118583FM-12+001699999V0202201N007019999999N013000199+02241+01181100761ADDGA1021+999999999GE19AGL   +99999+99999GF102991021999999999999999MA1999999100275MD1710151+9999REMSYN04858338 32963 22207 10224 20118 40076 57015 82///=
0153583380999992017021912004+31150+118583FM-12+001699999V0202001N004019999999N012000199+02001+01231100851ADDGA1071+999999999GE19AGL   +99999+99999GF107991071999999999999999MA1999999100365MD1210091+9999REMSYN04858338 32962 72004 10200 20123 40085 52009 87///=
0132583380999992017021918004+31150+118583FM-12+001699999V0203401N00201002401CN007000199+01551+01171101001ADDGF109991999999999999999999KA1120M+02471MA1999999100505MD1210041+9999REMSYN05258338 32/57 93402 10155 20117 40100 52004 333 10247=
0121583380999992017021921004+31150+118583FM-12+001699999V0203401N00101002401CN004200199+01421+01171101111ADDGF109991999999999999999999MA1999999100615MD1210111+9999MW1101REMSYN04858338 31/42 93401 10142 20117 40111 52011 710//=
0181583380999992017022000004+31150+118583FM-12+001699999V0200401N005019999999N003400199+01521+01341101561ADDGA1081+999999999GE19AGL   +99999+99999GF108991081999999999999999MA1999999101071MD1210451+9999MW1101REMSYN07058338 31934 80405 10152 20134 30107 40156 52045 710// 88/// 333 00009=
0181583380999992017022003004+31150+118583FM-12+001699999V0200701N006019999999N003200199+00861+00591102151ADDAY101021AY201021GA1081+017501999GE19AGL   +99999+99999GF108991081999017501999999MA1999999101635MD1210581+9999MW1101REMSYN05458338 31732 80706 10086 20059 40215 52058 71000 88///=
0176583380999992017022006004+31150+118583FM-12+001699999V0200701N008019999999N012000199+00681-00021102411ADDGA1081+017501999GE19AGL   +99999+99999GF108991081999017501999999KA1240N+00681MA1999999101895MD1210251+9999REMSYN05858338 32762 80708 10068 21002 40241 52025 88/// 333 20068=
0153583380999992017022009004+31150+118583FM-12+001699999V0200701N007019999999N015000199+00561-00091102701ADDGA1081+999999999GE19AGL   +99999+99999GF108991081999999999999999MA1999999102175MD1210291+9999REMSYN04858338 32965 80707 10056 21009 40270 52029 88///=
0159583380999992017022012004+31150+118583FM-12+001699999V0200701N008019999999N020000199+00471-00241102881ADDGA1081+999999999GE19AGL   +99999+99999GF108991081999999999999999MA1999999102371MD1210181+9999REMSYN05458338 32970 80708 10047 21024 30237 40288 52018 88///=
0138583380999992017022018004+31150+118583FM-12+001699999V0200701N00801002401CN019000199+00301-00211102881ADDGF109991999999999999999999KA1120M+01591MA1999999102361MD1710071+9999REMSYN05858338 32/69 90708 10030 21021 30236 40288 57007 333 10159=
0109583380999992017022021004+31150+118583FM-12+001699999V0200901N00901002401CN018000199+00281-00191102621ADDGF109991999999999999999999MA1999999102095MD1710261+9999REMSYN04258338 32/68 90909 10028 21019 40262 57026=
0169583380999992017022100004+31150+118583FM-12+001699999V0201101N009019999999N017000199+00381-00061102671ADDGA1081+999999999GE19AGL   +99999+99999GF108991081999999999999999MA1999999102145MD1210051+9999REMSYN06458338 32967 81109 10038 21006 40267 52005 88/// 333 01161 30034=
0183583380999992017022103004+31150+118583FM-12+001699999V0200901N009019999999N017000199+00681+00091102441ADDGA1071+999999999GE19AGL   +99999+99999GF107991071999999999999999MA1999999101925MD1710231+9999OD139901801110REMSYN06458338 32967 70909 10068 20009 40244 57023 87/// 333 91118 91511=
0202583380999992017022106004+31150+118583FM-12+001699999V0200901N011019999999N015000199+00861+00201101921ADDGA1071+999999999GE19AGL   +99999+99999GF107991071999999999999999KA1240N+00271MA1999999101405MD1710521+9999OD139901801110REMSYN07058338 32965 70911 10086 20020 40192 57052 87/// 333 20027 91118 91511=
0183583380999992017022109004+31150+118583FM-12+001699999V0200901N010019999999N012000199+00901+00321101661ADDGA1071+999999999GE19AGL   +99999+99999GF107991071999999999999999MA1999999101155MD1710251+9999OD139901701090REMSYN06458338 32962 70910 10090 20032 40166 57025 87/// 333 91117 91509=
0198583380999992017022112004+31150+118583FM-12+001699999V0200401N003019999999N008000199+00781+00491101761ADDAA106000131AY101021AY201021GA1081+012501999GE19AGL   +99999+99999GF108991081999012501999999MA1999999101245MD1210101+9999MW1601REMSYN06058338 11658 80403 10078 20049 40176 52010 69911 76000 88///=
0183583380999992017022118004+31150+118583FM-12+001699999V0202901N00401002401CN002700199+00481+00421102011ADDAA106012031AY101021AY201021GF109991999999999999999999KA1120M+01001MA1999999101501MD1210061+9999MW1101REMSYN07058338 11/27 92904 10048 20042 30150 40201 52006 60121 71000 333 10100=
0130583380999992017022121004+31150+118583FM-12+001699999V0202901N00401002401CN009000199+00331+00291102061ADDAA124013331GF109991999999999999999999MA1999999101535MD1210041+9999REMSYN05258338 42/59 92904 10033 20029 40206 52004 333 70133=
0221583380999992017022200004+31150+118583FM-12+001699999V0202901N004019999999N999999999+00261+00201102251ADDAA106002031AA224014131GA1081+004501999GE19AGL   +99999+99999GF108991081999004501999999MA1999999101731MD1210191+9999MW1601REMSYN08858338 11455 82904 10026 20020 30173 40225 52019 60021 760// 88/// 333 05451 30039 70141=
0181583380999992017022203004+31150+118583FM-12+001699999V0202901N005019999999N003100199+00181+00091102391ADDAY161021AY261021GA1081+002501999GE19AGL   +99999+99999GF108991081999002501999999MA1999999101865MD1210141+9999MW1611REMSYN05458338 41331 82905 10018 20009 40239 52014 76166 88///=
0227583380999992017022206004+31150+118583FM-12+001699999V0202901N004019999999N003500199+00211+00111102221ADDAA106005031AY161021AY261021GA1081+002501999GE19AGL   +99999+99999GF108991081999002501999999KA1240N+00181MA1999999101701MD1710171+9999MW1211REMSYN07658338 11335 82904 10021 20011 30170 40222 57017 60051 72166 88/// 333 20018=
0181583380999992017022209004+31150+118583FM-12+001699999V0202701N005019999999N999999999+00221+00031102371ADDAY161021AY201021GA1081+004501999GE19AGL   +99999+99999GF108991081999004501999999MA1999999101845MD1210151+9999MW1101REMSYN05458338 41455 82705 10022 20003 40237 52015 71060 88///=
0204583380999992017022212004+31150+118583FM-12+001699999V0202701N004019999999N006000199+00211+00001102551ADDAA106000131AY161021AY201021GA1081+008001999GE19AGL   +99999+99999GF108991081999008001999999MA1999999102021MD1210171+9999MW1101REMSYN06658338 11556 82704 10021 20000 30202 40255 52017 69911 71060 88///=
0160583380999992017022218004+31150+118583FM-12+001699999V0202901N00201002401CN003700199+00201-00041102771ADDAY101021AY201021GF109991999999999999999999KA1120M+00481MA1999999102245MD1210071+9999MW1101REMSYN05858338 31/37 92902 10020 21004 40277 52007 71000 333 10048=
0142583380999992017022221004+31150+118583FM-12+001699999V0203201N00101002401CN003000199+00201-00041102711ADDAA124005631GF109991999999999999999999MA1999999102185MD1710061+9999MW1101REMSYN05858338 31/30 93201 10020 21004 40271 57006 710// 333 70056=
0204583380999992017022300004+31150+118583FM-12+001699999V0202501N002019999999N002600199+00241+00051102991ADDAA124004831GA1081+008001999GE19AGL   +99999+99999GF108991081999008001999999MA1999999102461MD1210281+9999MW1101REMSYN08258338 31526 82502 10024 20005 30246 40299 52028 710// 88/// 333 00700 30016 70048=
0181583380999992017022303004+31150+118583FM-12+001699999V0203201N002019999999N003500199+00421+00041103101ADDAY101021AY201021GA1071+017501999GE19AGL   +99999+99999GF107991071999017501999999MA1999999102575MD1210111+9999MW1101REMSYN05458338 31735 73202 10042 20004 40310 52011 71000 87///=
0210583380999992017022306004+31150+118583FM-12+001699999V0203401N001019999999N006000199+00521-00191102871ADDAY101021AY201021GA1081+012501999GE19AGL   +99999+99999GF108991081999012501999999KA1240N+00161MA1999999102351MD1710221+9999MW1051REMSYN07058338 31656 83401 10052 21019 30235 40287 57022 70500 88/// 333 20016=
0153583380999992017022309004+31150+118583FM-12+001699999V0200401N001019999999N008000199+00581-00231102921ADDGA1071+012501999GE19AGL   +99999+99999GF107991071999012501999999MA1999999102395MD1210051+9999REMSYN04858338 32658 70401 10058 21023 40292 52005 87///=
0181583380999992017022312004+31150+118583FM-12+001699999V0201401N002019999999N999999999+00241-00051102961ADDAY101021AY201021GA1071+999999999GE19AGL   +99999+99999GF107991071999999999999999MA1999999102435MD1210031+9999MW1101REMSYN05458338 31955 71402 10024 21005 40296 52003 71000 87///=
0166583380999992017022318004+31150+118583FM-12+001699999V0202201N00101002401CN004200199+00241+00051102961ADDAY101021AY201021GF109991999999999999999999KA1120M+00621MA1999999102441MD1710091+9999MW1101REMSYN06458338 31/42 92201 10024 20005 30244 40296 57009 71000 333 10062=
0121583380999992017022321004+31150+118583FM-12+001699999V0202201N00101002401CN004100199+00171-00011102911ADDGF109991999999999999999999MA1999999102385MD1710051+9999MW1101REMSYN04858338 31/41 92201 10017 21001 40291 57005 710//=
