0108583670999992017010100004+31198+121336FM-15+000399999V0201201N003012200019N007000199+00901+00801999999ADDGF100991999999999999999999MA1102701999999REMMET055METAR ZSSS 010000Z 12003MPS 7000 NSC 09/08 Q1027 NOSIG=
0079583670999992017010100304+31198+121336FM-15+000399999V0201201N004019999999Y999999999+01001+00801999999ADDMA1102701999999REMMET052METAR ZSSS 010030Z 12004MPS CAVOK 10/08 Q1027 NOSIG=
0087583670999992017010101004+31198+121336FM-15+000399999V0201301V004019999999Y999999999+01101+00901999999ADDMA1102701999999REMMET060METAR ZSSS 010100Z 13004MPS 100V160 CAVOK 11/09 Q1027 NOSIG=
0079583670999992017010101304+31198+121336FM-15+000399999V0201401N004019999999Y999999999+01201+00901999999ADDMA1102701999999REMMET052METAR ZSSS 010130Z 14004MPS CAVOK 12/09 Q1027 NOSIG=
0079583670999992017010102004+31198+121336FM-15+000399999V0201401N004019999999Y999999999+01201+00901999999ADDMA1102701999999REMMET052METAR ZSSS 010200Z 14004MPS CAVOK 12/09 Q1027 NOSIG=
0079583670999992017010102304+31198+121336FM-15+000399999V0201401N004019999999Y999999999+01301+00901999999ADDMA1102701999999REMMET052METAR ZSSS 010230Z 14004MPS CAVOK 13/09 Q1027 NOSIG=
0079583670999992017010103004+31198+121336FM-15+000399999V0201501N006019999999Y999999999+01301+00901999999ADDMA1102601999999REMMET052METAR ZSSS 010300Z 15006MPS CAVOK 13/09 Q1026 NOSIG=
0079583670999992017010103304+31198+121336FM-15+000399999V0201401N006019999999Y999999999+01401+00901999999ADDMA1102601999999REMMET052METAR ZSSS 010330Z 14006MPS CAVOK 14/09 Q1026 NOSIG=
0079583670999992017010104004+31198+121336FM-15+000399999V0201501N007019999999Y999999999+01401+00901999999ADDMA1102501999999REMMET052METAR ZSSS 010400Z 15007MPS CAVOK 14/09 Q1025 NOSIG=
0079583670999992017010104304+31198+121336FM-15+000399999V0201501N006019999999Y999999999+01401+00901999999ADDMA1102401999999REMMET052METAR ZSSS 010430Z 15006MPS CAVOK 14/09 Q1024 NOSIG=
0079583670999992017010105004+31198+121336FM-15+000399999V0201401N006019999999Y999999999+01401+00901999999ADDMA1102401999999REMMET052METAR ZSSS 010500Z 14006MPS CAVOK 14/09 Q1024 NOSIG=
0079583670999992017010105304+31198+121336FM-15+000399999V0201501N006019999999Y999999999+01501+00901999999ADDMA1102301999999REMMET052METAR ZSSS 010530Z 15006MPS CAVOK 15/09 Q1023 NOSIG=
0079583670999992017010106004+31198+121336FM-15+000399999V0201401N008019999999Y999999999+01501+00901999999ADDMA1102301999999REMMET052METAR ZSSS 010600Z 14008MPS CAVOK 15/09 Q1023 NOSIG=
0079583670999992017010106304+31198+121336FM-15+000399999V0201501N007019999999Y999999999+01501+00901999999ADDMA1102201999999REMMET052METAR ZSSS 010630Z 15007MPS CAVOK 15/09 Q1022 NOSIG=
0079583670999992017010107004+31198+121336FM-15+000399999V0201401N007019999999Y999999999+01501+00901999999ADDMA1102201999999REMMET052METAR ZSSS 010700Z 14007MPS CAVOK 15/09 Q1022 NOSIG=
0079583670999992017010107304+31198+121336FM-15+000399999V0201501N005019999999Y999999999+01501+00901999999ADDMA1102201999999REMMET052METAR ZSSS 010730Z 15005MPS CAVOK 15/09 Q1022 NOSIG=
0149583670999992017010108004+31198+121336FM-15+000399999V0201401N007019999999N009999199+01401+00901999999ADDGA1041+007011999GE19AGL   +99999+99999GF199999041999007011999999MA1102201999999REMMET058METAR ZSSS 010800Z 14007MPS 9999 SCT023 14/09 Q1022 NOSIG=
0149583670999992017010108304+31198+121336FM-15+000399999V0201401N005019999999N009999199+01401+00901999999ADDGA1041+007921999GE19AGL   +99999+99999GF199999041999007921999999MA1102201999999REMMET058METAR ZSSS 010830Z 14005MPS 9999 SCT026 14/09 Q1022 NOSIG=
0079583670999992017010109004+31198+121336FM-15+000399999V0201401N005019999999Y999999999+01301+00901999999ADDMA1102201999999REMMET052METAR ZSSS 010900Z 14005MPS CAVOK 13/09 Q1022 NOSIG=
0079583670999992017010109304+31198+121336FM-15+000399999V0201301N003019999999Y999999999+01301+00901999999ADDMA1102201999999REMMET052METAR ZSSS 010930Z 13003MPS CAVOK 13/09 Q1022 NOSIG=
0079583670999992017010110004+31198+121336FM-15+000399999V0201301N003019999999Y999999999+01301+00901999999ADDMA1102201999999REMMET052METAR ZSSS 011000Z 13003MPS CAVOK 13/09 Q1022 NOSIG=
0079583670999992017010110304+31198+121336FM-15+000399999V0201301N004019999999Y999999999+01301+01001999999ADDMA1102301999999REMMET052METAR ZSSS 011030Z 13004MPS CAVOK 13/10 Q1023 NOSIG=
0079583670999992017010111004+31198+121336FM-15+000399999V0201301N003019999999Y999999999+01201+00901999999ADDMA1102301999999REMMET052METAR ZSSS 011100Z 13003MPS CAVOK 12/09 Q1023 NOSIG=
0079583670999992017010111304+31198+121336FM-15+000399999V0201401N003019999999Y999999999+01201+00901999999ADDMA1102301999999REMMET052METAR ZSSS 011130Z 14003MPS CAVOK 12/09 Q1023 NOSIG=
0079583670999992017010112004+31198+121336FM-15+000399999V0201401N003019999999Y999999999+01101+00901999999ADDMA1102201999999REMMET052METAR ZSSS 011200Z 14003MPS CAVOK 11/09 Q1022 NOSIG=
0079583670999992017010112304+31198+121336FM-15+000399999V0201401N002019999999Y999999999+01101+00901999999ADDMA1102301999999REMMET052METAR ZSSS 011230Z 14002MPS CAVOK 11/09 Q1023 NOSIG=
0079583670999992017010113004+31198+121336FM-15+000399999V0201201N002019999999Y999999999+01201+00901999999ADDMA1102301999999REMMET052METAR ZSSS 011300Z 12002MPS CAVOK 12/09 Q1023 NOSIG=
0079583670999992017010113304+31198+121336FM-15+000399999V0201301N003019999999Y999999999+01101+01001999999ADDMA1102201999999REMMET052METAR ZSSS 011330Z 13003MPS CAVOK 11/10 Q1022 NOSIG=
0079583670999992017010114004+31198+121336FM-15+000399999V0201201N003019999999Y999999999+01201+01001999999ADDMA1102201999999REMMET052METAR ZSSS 011400Z 12003MPS CAVOK 12/10 Q1022 NOSIG=
0079583670999992017010114304+31198+121336FM-15+000399999V0201401N002019999999Y999999999+01201+01001999999ADDMA1102201999999REMMET052METAR ZSSS 011430Z 14002MPS CAVOK 12/10 Q1022 NOSIG=
0079583670999992017010115004+31198+121336FM-15+000399999V0201501N002019999999Y999999999+01201+01001999999ADDMA1102201999999REMMET052METAR ZSSS 011500Z 15002MPS CAVOK 12/10 Q1022 NOSIG=
0079583670999992017010115304+31198+121336FM-15+000399999V0201501N002019999999Y999999999+01201+01001999999ADDMA1102201999999REMMET052METAR ZSSS 011530Z 15002MPS CAVOK 12/10 Q1022 NOSIG=
0079583670999992017010116004+31198+121336FM-15+000399999V0201501N001019999999Y999999999+01101+01001999999ADDMA1102201999999REMMET052METAR ZSSS 011600Z 15001MPS CAVOK 11/10 Q1022 NOSIG=
0079583670999992017010116304+31198+121336FM-15+000399999V0201301N002019999999Y999999999+01201+01001999999ADDMA1102201999999REMMET052METAR ZSSS 011630Z 13002MPS CAVOK 12/10 Q1022 NOSIG=
0079583670999992017010117004+31198+121336FM-15+000399999V0201501N002019999999Y999999999+01101+01001999999ADDMA1102101999999REMMET052METAR ZSSS 011700Z 15002MPS CAVOK 11/10 Q1021 NOSIG=
0079583670999992017010117304+31198+121336FM-15+000399999V0209999C000019999999Y999999999+01101+01001999999ADDMA1102201999999REMMET052METAR ZSSS 011730Z 00000MPS CAVOK 11/10 Q1022 NOSIG=
0108583670999992017010118004+31198+121336FM-15+000399999V0201601N001012200019N008000199+01001+00901999999ADDGF100991999999999999999999MA1102201999999REMMET055METAR ZSSS 011800Z 16001MPS 8000 NSC 10/09 Q1022 NOSIG=
0108583670999992017010118304+31198+121336FM-15+000399999V0201401N001012200019N007000199+01001+00901999999ADDGF100991999999999999999999MA1102101999999REMMET055METAR ZSSS 011830Z 14001MPS 7000 NSC 10/09 Q1021 NOSIG=
0108583670999992017010119004+31198+121336FM-15+000399999V0200201N001012200019N006000199+01001+00901999999ADDGF100991999999999999999999MA1102101999999REMMET055METAR ZSSS 011900Z 02001MPS 6000 NSC 10/09 Q1021 NOSIG=
0108583670999992017010119304+31198+121336FM-15+000399999V0209999C000012200019N006000199+00901+00801999999ADDGF100991999999999999999999MA1102101999999REMMET055METAR ZSSS 011930Z 00000MPS 6000 NSC 09/08 Q1021 NOSIG=
0117583670999992017010120004+31198+121336FM-15+000399999V0200101N002012200019N005000199+01001+00901999999ADDGF100991999999999999999999MA1102101999999MW1101REMMET058METAR ZSSS 012000Z 01002MPS 5000 BR NSC 10/09 Q1021 NOSIG=
0117583670999992017010120304+31198+121336FM-15+000399999V0201701N001012200019N005000199+01001+00901999999ADDGF100991999999999999999999MA1102101999999MW1101REMMET058METAR ZSSS 012030Z 17001MPS 5000 BR NSC 10/09 Q1021 NOSIG=
0117583670999992017010121004+31198+121336FM-15+000399999V0202401N001012200019N005000199+01001+00901999999ADDGF100991999999999999999999MA1102101999999MW1101REMMET058METAR ZSSS 012100Z 24001MPS 5000 BR NSC 10/09 Q1021 NOSIG=
0117583670999992017010121304+31198+121336FM-15+000399999V0203601N001012200019N004000199+01001+00901999999ADDGF100991999999999999999999MA1102201999999MW1101REMMET058METAR ZSSS 012130Z 36001MPS 4000 BR NSC 10/09 Q1022 NOSIG=
0117583670999992017010122004+31198+121336FM-15+000399999V0200101N001012200019N004000199+01001+00901999999ADDGF100991999999999999999999MA1102201999999MW1101REMMET058METAR ZSSS 012200Z 01001MPS 4000 BR NSC 10/09 Q1022 NOSIG=
0117583670999992017010122304+31198+121336FM-15+000399999V0209999V001012200019N004000199+01001+00901999999ADDGF100991999999999999999999MA1102201999999MW1101REMMET058METAR ZSSS 012230Z VRB01MPS 4000 BR NSC 10/09 Q1022 NOSIG=
0117583670999992017010123004+31198+121336FM-15+000399999V0200101N001012200019N004000199+01001+00901999999ADDGF100991999999999999999999MA1102201999999MW1101REMMET058METAR ZSSS 012300Z 01001MPS 4000 BR NSC 10/09 Q1022 NOSIG=
0117583670999992017010123304+31198+121336FM-15+000399999V0209999C000012200019N004000199+01001+00901999999ADDGF100991999999999999999999MA1102201999999MW1101REMMET058METAR ZSSS 012330Z 00000MPS 4000 BR NSC 10/09 Q1022 NOSIG=
0117583670999992017010200004+31198+121336FM-15+000399999V0203601N002012200019N003500199+01101+01001999999ADDGF100991999999999999999999MA1102301999999MW1101REMMET058METAR ZSSS 020000Z 36002MPS 3500 BR NSC 11/10 Q1023 NOSIG=
0117583670999992017010200304+31198+121336FM-15+000399999V0203501N002012200019N003500199+01201+01101999999ADDGF100991999999999999999999MA1102301999999MW1101REMMET058METAR ZSSS 020030Z 35002MPS 3500 BR NSC 12/11 Q1023 NOSIG=
0117583670999992017010201004+31198+121336FM-15+000399999V0203501N003012200019N004000199+01301+01101999999ADDGF100991999999999999999999MA1102401999999MW1101REMMET058METAR ZSSS 020100Z 35003MPS 4000 BR NSC 13/11 Q1024 NOSIG=
0117583670999992017010201304+31198+121336FM-15+000399999V0203601N004012200019N005000199+01301+01101999999ADDGF100991999999999999999999MA1102401999999MW1101REMMET058METAR ZSSS 020130Z 36004MPS 5000 BR NSC 13/11 Q1024 NOSIG=
0127583670999992017010202004+31198+121336FM-15+000399999V0203601N005012200019N005000199+01301+01101999999ADDGF100991999999999999999999MA1102401999999MW1101MW2611REMMET062METAR ZSSS 020200Z 36005MPS 5000 -RA BR NSC 13/11 Q1024 NOSIG=
0127583670999992017010202304+31198+121336FM-15+000399999V0200101N004012200019N005000199+01301+01001999999ADDGF100991999999999999999999MA1102401999999MW1101MW2611REMMET062METAR ZSSS 020230Z 01004MPS 5000 -RA BR NSC 13/10 Q1024 NOSIG=
0135583670999992017010203004+31198+121336FM-15+000399999V0200101V003012200019N005000199+01501+01101999999ADDGF100991999999999999999999MA1102401999999MW1101MW2611REMMET070METAR ZSSS 020300Z 01003MPS 350V050 5000 -RA BR NSC 15/11 Q1024 NOSIG=
0125583670999992017010203304+31198+121336FM-15+000399999V0200101V003012200019N005000199+01501+01101999999ADDGF100991999999999999999999MA1102401999999MW1101REMMET066METAR ZSSS 020330Z 01003MPS 340V060 5000 BR NSC 15/11 Q1024 NOSIG=
0125583670999992017010204004+31198+121336FM-15+000399999V0200301V003012200019N005000199+01501+01001999999ADDGF100991999999999999999999MA1102301999999MW1101REMMET066METAR ZSSS 020400Z 03003MPS 360V060 5000 BR NSC 15/10 Q1023 NOSIG=
0125583670999992017010204304+31198+121336FM-15+000399999V0200201V003012200019N005000199+01501+01001999999ADDGF100991999999999999999999MA1102301999999MW1101REMMET066METAR ZSSS 020430Z 02003MPS 340V040 5000 BR NSC 15/10 Q1023 NOSIG=
0117583670999992017010205004+31198+121336FM-15+000399999V0203501N003012200019N005000199+01501+01001999999ADDGF100991999999999999999999MA1102301999999MW1101REMMET058METAR ZSSS 020500Z 35003MPS 5000 BR NSC 15/10 Q1023 NOSIG=
0117583670999992017010205304+31198+121336FM-15+000399999V0203501N004012200019N005000199+01501+01101999999ADDGF100991999999999999999999MA1102301999999MW1101REMMET058METAR ZSSS 020530Z 35004MPS 5000 BR NSC 15/11 Q1023 NOSIG=
0117583670999992017010206004+31198+121336FM-15+000399999V0203601N004012200019N004000199+01401+01101999999ADDGF100991999999999999999999MA1102301999999MW1101REMMET058METAR ZSSS 020600Z 36004MPS 4000 BR NSC 14/11 Q1023 NOSIG=
0117583670999992017010206304+31198+121336FM-15+000399999V0203501N004012200019N004000199+01401+01001999999ADDGF100991999999999999999999MA1102301999999MW1101REMMET058METAR ZSSS 020630Z 35004MPS 4000 BR NSC 14/10 Q1023 NOSIG=
0117583670999992017010207004+31198+121336FM-15+000399999V0203501N004012200019N004000199+01401+01001999999ADDGF100991999999999999999999MA1102301999999MW1101REMMET058METAR ZSSS 020700Z 35004MPS 4000 BR NSC 14/10 Q1023 NOSIG=
0117583670999992017010207304+31198+121336FM-15+000399999V0203501N003012200019N004000199+01401+01001999999ADDGF100991999999999999999999MA1102301999999MW1101REMMET058METAR ZSSS 020730Z 35003MPS 4000 BR NSC 14/10 Q1023 NOSIG=
0117583670999992017010208004+31198+121336FM-15+000399999V0203601N004012200019N004000199+01401+01001999999ADDGF100991999999999999999999MA1102301999999MW1101REMMET058METAR ZSSS 020800Z 36004MPS 4000 BR NSC 14/10 Q1023 NOSIG=
0117583670999992017010208304+31198+121336FM-15+000399999V0203501N003012200019N004000199+01301+01001999999ADDGF100991999999999999999999MA1102301999999MW1101REMMET058METAR ZSSS 020830Z 35003MPS 4000 BR NSC 13/10 Q1023 NOSIG=
0117583670999992017010209004+31198+121336FM-15+000399999V0203501N003012200019N004500199+01301+00901999999ADDGF100991999999999999999999MA1102401999999MW1101REMMET058METAR ZSSS 020900Z 35003MPS 4500 BR NSC 13/09 Q1024 NOSIG=
0117583670999992017010209304+31198+121336FM-15+000399999V0203501N003012200019N004500199+01301+00901999999ADDGF100991999999999999999999MA1102401999999MW1101REMMET058METAR ZSSS 020930Z 35003MPS 4500 BR NSC 13/09 Q1024 NOSIG=
0117583670999992017010210004+31198+121336FM-15+000399999V0203501N003012200019N004500199+01301+00901999999ADDGF100991999999999999999999MA1102401999999MW1101REMMET058METAR ZSSS 021000Z 35003MPS 4500 BR NSC 13/09 Q1024 NOSIG=
0117583670999992017010210304+31198+121336FM-15+000399999V0203501N004012200019N004500199+01201+00901999999ADDGF100991999999999999999999MA1102401999999MW1101REMMET058METAR ZSSS 021030Z 35004MPS 4500 BR NSC 12/09 Q1024 NOSIG=
0149583670999992017010211004+31198+121336FM-15+000399999V0203601N005019999999N006000199+01201+00801999999ADDGA1021+009141999GE19AGL   +99999+99999GF199999021999009141999999MA1102501999999REMMET058METAR ZSSS 021100Z 36005MPS 6000 FEW030 12/08 Q1025 NOSIG=
0149583670999992017010211304+31198+121336FM-15+000399999V0203601N005019999999N006000199+01101+00801999999ADDGA1021+009141999GE19AGL   +99999+99999GF199999021999009141999999MA1102501999999REMMET058METAR ZSSS 021130Z 36005MPS 6000 FEW030 11/08 Q1025 NOSIG=
0149583670999992017010212004+31198+121336FM-15+000399999V0203501N004019999999N006000199+01001+00801999999ADDGA1021+009141999GE19AGL   +99999+99999GF199999021999009141999999MA1102501999999REMMET058METAR ZSSS 021200Z 35004MPS 6000 FEW030 10/08 Q1025 NOSIG=
0158583670999992017010212304+31198+121336FM-15+000399999V0203601N004019999999N004500199+01001+00801999999ADDGA1021+009141999GE19AGL   +99999+99999GF199999021999009141999999MA1102601999999MW1101REMMET061METAR ZSSS 021230Z 36004MPS 4500 BR FEW030 10/08 Q1026 NOSIG=
0158583670999992017010213004+31198+121336FM-15+000399999V0203601N004019999999N004500199+00901+00801999999ADDGA1041+009141999GE19AGL   +99999+99999GF199999041999009141999999MA1102501999999MW1101REMMET061METAR ZSSS 021300Z 36004MPS 4500 BR SCT030 09/08 Q1025 NOSIG=
0158583670999992017010213304+31198+121336FM-15+000399999V0203501N004019999999N004000199+00901+00801999999ADDGA1041+006101999GE19AGL   +99999+99999GF199999041999006101999999MA1102601999999MW1101REMMET061METAR ZSSS 021330Z 35004MPS 4000 BR SCT020 09/08 Q1026 NOSIG=
0158583670999992017010214004+31198+121336FM-15+000399999V0203501N003019999999N004000199+00901+00701999999ADDGA1041+004571999GE19AGL   +99999+99999GF199999041999004571999999MA1102601999999MW1101REMMET061METAR ZSSS 021400Z 35003MPS 4000 BR SCT015 09/07 Q1026 NOSIG=
0172583670999992017010214304+31198+121336FM-15+000399999V0203601N003019999999N004000199+00801+00701999999ADDGA1041+003961999GE19AGL   +99999+99999GF199999041999003961999999MA1102601999999MW1101REMMET075METAR ZSSS 021430Z 36003MPS 4000 BR SCT013 08/07 Q1026 BECMG TL1520 BKN011=
0158583670999992017010215004+31198+121336FM-15+000399999V0203501N003010039619N004000199+00901+00701999999ADDGA1071+003961999GE19AGL   +99999+99999GF199999071999003961999999MA1102601999999MW1101REMMET061METAR ZSSS 021500Z 35003MPS 4000 BR BKN013 09/07 Q1026 NOSIG=
0158583670999992017010215304+31198+121336FM-15+000399999V0203401N003010033519N004000199+00801+00701999999ADDGA1071+003351999GE19AGL   +99999+99999GF199999071999003351999999MA1102601999999MW1101REMMET061METAR ZSSS 021530Z 34003MPS 4000 BR BKN011 08/07 Q1026 NOSIG=
0158583670999992017010216004+31198+121336FM-15+000399999V0203501N003010033519N004000199+00801+00701999999ADDGA1071+003351999GE19AGL   +99999+99999GF199999071999003351999999MA1102601999999MW1101REMMET061METAR ZSSS 021600Z 35003MPS 4000 BR BKN011 08/07 Q1026 NOSIG=
0158583670999992017010216304+31198+121336FM-15+000399999V0203601N003010033519N003000199+00901+00701999999ADDGA1071+003351999GE19AGL   +99999+99999GF199999071999003351999999MA1102601999999MW1101REMMET061METAR ZSSS 021630Z 36003MPS 3000 BR BKN011 09/07 Q1026 NOSIG=
0158583670999992017010217004+31198+121336FM-15+000399999V0203601N003010033519N003000199+00901+00701999999ADDGA1071+003351999GE19AGL   +99999+99999GF199999071999003351999999MA1102601999999MW1101REMMET061METAR ZSSS 021700Z 36003MPS 3000 BR BKN011 09/07 Q1026 NOSIG=
0158583670999992017010217304+31198+121336FM-15+000399999V0203401N003010033519N002500199+00801+00701999999ADDGA1071+003351999GE19AGL   +99999+99999GF199999071999003351999999MA1102601999999MW1101REMMET061METAR ZSSS 021730Z 34003MPS 2500 BR BKN011 08/07 Q1026 NOSIG=
0158583670999992017010218004+31198+121336FM-15+000399999V0203401N003010027419N002500199+00801+00701999999ADDGA1071+002741999GE19AGL   +99999+99999GF199999071999002741999999MA1102601999999MW1101REMMET061METAR ZSSS 021800Z 34003MPS 2500 BR BKN009 08/07 Q1026 NOSIG=
0158583670999992017010218304+31198+121336FM-15+000399999V0203501N003010024419N002000199+00901+00801999999ADDGA1071+002441999GE19AGL   +99999+99999GF199999071999002441999999MA1102601999999MW1101REMMET061METAR ZSSS 021830Z 35003MPS 2000 BR BKN008 09/08 Q1026 NOSIG=
0173583670999992017010219004+31198+121336FM-15+000399999V0203501N003010024419N002000199+00901+00701999999ADDGA1071+002441999GE19AGL   +99999+99999GF199999071999002441999999MA1102601999999MW1101REMMET076METAR ZSSS 021900Z 35003MPS 2000 BR BKN008 09/07 Q1026 BECMG TL2050 1200 BR=
0158583670999992017010219304+31198+121336FM-15+000399999V0203501N003010021319N002000199+00801+00701999999ADDGA1071+002131999GE19AGL   +99999+99999GF199999071999002131999999MA1102601999999MW1101REMMET061METAR ZSSS 021930Z 35003MPS 2000 BR BKN007 08/07 Q1026 NOSIG=
0204583670999992017010220004+31198+121336FM-15+000399999V0203401N002010021319N002000199+00801+00701999999ADDED136R99999GA1071+002131999GE19AGL   +99999+99999GF199999071999002131999999MA1102601999999MW1101REMMET096METAR ZSSS 022000Z 34002MPS 2000 R36R/1400N R36L/1500N BR BKN007 08/07 Q1026 BECMG 2130 1200 BR=
0158583670999992017010220304+31198+121336FM-15+000399999V0203501N002010021319N002000199+00701+00601999999ADDGA1071+002131999GE19AGL   +99999+99999GF199999071999002131999999MA1102601999999MW1101REMMET061METAR ZSSS 022030Z 35002MPS 2000 BR BKN007 07/06 Q1026 NOSIG=
0206583670999992017010221004+31198+121336FM-15+000399999V0203401N002010021319N001600199+00701+00601999999ADDED136R99999GA1071+002131999GE19AGL   +99999+99999GF199999071999002131999999MA1102601999999MW1101REMMET098METAR ZSSS 022100Z 34002MPS 1600 R36R/1300N R36L/1500N BR BKN007 07/06 Q1026 BECMG TL2130 1200 BR=
0206583670999992017010221304+31198+121336FM-15+000399999V0203401N002010021319N001600199+00701+00601999999ADDED136R99999GA1071+002131999GE19AGL   +99999+99999GF199999071999002131999999MA1102601999999MW1101REMMET098METAR ZSSS 022130Z 34002MPS 1600 R36R/1300N R36L/1400N BR BKN007 07/06 Q1026 BECMG TL2210 1000 BR=
0206583670999992017010222004+31198+121336FM-15+000399999V0203401N002010021319N001600199+00701+00601999999ADDED136R99999GA1071+002131999GE19AGL   +99999+99999GF199999071999002131999999MA1102601999999MW1101REMMET098METAR ZSSS 022200Z 34002MPS 1600 R36R/1300N R36L/1400N BR BKN007 07/06 Q1026 BECMG TL2240 1200 BR=
0191583670999992017010222304+31198+121336FM-15+000399999V0203401N001010021319N001400199+00701+00601999999ADDED136R99999GA1071+002131999GE19AGL   +99999+99999GF199999071999002131999999MA1102601999999MW1101REMMET083METAR ZSSS 022230Z 34001MPS 1400 R36R/1100N R36L/1300U BR BKN007 07/06 Q1026 NOSIG=
0211583670999992017010223004+31198+121336FM-15+000399999V0209999V001010021319N001100199+00701+00601999999ADDED136R99999GA1071+002131999GE19AGL   +99999+99999GF199999071999002131999999MA1102601999999MW1101REMMET103METAR ZSSS 022300Z VRB01MPS 1100 R36R/0900N R36L/0900V1300N BR BKN007 07/06 Q1026 TEMPO TL0020 0700 FG=
0191583670999992017010223304+31198+121336FM-15+000399999V0203501N001010021319N001000199+00701+00601999999ADDED136R99999GA1071+002131999GE19AGL   +99999+99999GF199999071999002131999999MA1102601999999MW1101REMMET083METAR ZSSS 022330Z 35001MPS 1000 R36R/1200N R36L/1400N BR BKN007 07/06 Q1026 NOSIG=
0206583670999992017010300004+31198+121336FM-15+000399999V0209999V001019999999N001000199+00801+00701999999ADDED136R99999GA1021+002131999GE19AGL   +99999+99999GF199999021999002131999999MA1102701999999MW1101REMMET098METAR ZSSS 030000Z VRB01MPS 1000 R36R/1200N R36L/1400N BR FEW007 08/07 Q1027 BECMG TL0120 2000 BR=
0150583670999992017010300304+31198+121336FM-15+000399999V0203601N002012200019N001200199+00901+00801999999ADDED136R99999GF100991999999999999999999MA1102701999999MW1101REMMET080METAR ZSSS 030030Z 36002MPS 1200 R36R/1100N R36L/1200N BR NSC 09/08 Q1027 NOSIG=
0162583670999992017010301004+31198+121336FM-15+000399999V0203401N002012200019N001300199+01001+00801999999ADDED136R99999GF100991999999999999999999MA1102701999999MW1101REMMET092METAR ZSSS 030100Z 34002MPS 1300 R36R/1200N R36L/1300N BR NSC 10/08 Q1027 BECMG TL0130 1500=
0170583670999992017010301304+31198+121336FM-15+000399999V0203301V002012200019N001600199+01001+00801999999ADDED136R99999GF100991999999999999999999MA1102701999999MW1101REMMET100METAR ZSSS 030130Z 33002MPS 280V030 1600 R36R/1300N R36L/1500N BR NSC 10/08 Q1027 BECMG TL0300 3000=
0205583670999992017010302004+31198+121336FM-15+000399999V0209999V001010015219N001600199+01101+00801999999ADDED136R99999GA1071+001521999GE19AGL   +99999+99999GF199999071999001521999999MA1102701999999MW1101REMMET097METAR ZSSS 030200Z VRB01MPS 1600 R36R/1400N R36L/1500D BR BKN005 11/08 Q1027 BECMG TL0330 SCT005=
0191583670999992017010302304+31198+121336FM-15+000399999V0203501N003010015219N001600199+01001+00801999999ADDED136R99999GA1071+001521999GE19AGL   +99999+99999GF199999071999001521999999MA1102601999999MW1101REMMET083METAR ZSSS 030230Z 35003MPS 1600 R36R/1200N R36L/1300N BR BKN005 10/08 Q1026 NOSIG=
0210583670999992017010303004+31198+121336FM-15+000399999V0203401N003010015219N001800199+01101+00901999999ADDED136R99999GA1071+001521999GE19AGL   +99999+99999GF199999071999001521999999MA1102601999999MW1101REMMET102METAR ZSSS 030300Z 34003MPS 1800 R36R/1400N R36L/1500N BR BKN005 11/09 Q1026 BECMG TL0440 3000 SCT005=
0185583670999992017010303304+31198+121336FM-15+000399999V0203501V003010015219N002200199+01101+00801999999ADDGA1071+001521999GE19AGL   +99999+99999GF199999071999001521999999MA1102501999999MW1101REMMET088METAR ZSSS 030330Z 35003MPS 320V030 2200 BR BKN005 11/08 Q1025 BECMG TL0430 3000 SCT005=
0178583670999992017010304004+31198+121336FM-15+000399999V0203601V003019999999N002500199+01201+00901999999ADDGA1041+001521999GE19AGL   +99999+99999GF199999041999001521999999MA1102501999999MW1101REMMET081METAR ZSSS 030400Z 36003MPS 320V050 2500 BR SCT005 12/09 Q1025 BECMG TL0500 3000=
0166583670999992017010304304+31198+121336FM-15+000399999V0203501V003019999999N003000199+01201+00901999999ADDGA1041+001521999GE19AGL   +99999+99999GF199999041999001521999999MA1102401999999MW1101REMMET069METAR ZSSS 030430Z 35003MPS 320V040 3000 BR SCT005 12/09 Q1024 NOSIG=
0125583670999992017010305004+31198+121336FM-15+000399999V0203601V003012200019N003000199+01201+00801999999ADDGF100991999999999999999999MA1102401999999MW1101REMMET066METAR ZSSS 030500Z 36003MPS 320V060 3000 BR NSC 12/08 Q1024 NOSIG=
0125583670999992017010305304+31198+121336FM-15+000399999V0203301V004012200019N003000199+01301+00801999999ADDGF100991999999999999999999MA1102301999999MW1101REMMET066METAR ZSSS 030530Z 33004MPS 310V010 3000 BR NSC 13/08 Q1023 NOSIG=
0125583670999992017010306004+31198+121336FM-15+000399999V0200201V003012200019N003000199+01301+00801999999ADDGF100991999999999999999999MA1102301999999MW1101REMMET066METAR ZSSS 030600Z 02003MPS 350V060 3000 BR NSC 13/08 Q1023 NOSIG=
0125583670999992017010306304+31198+121336FM-15+000399999V0200101V003012200019N004000199+01301+00801999999ADDGF100991999999999999999999MA1102301999999MW1101REMMET066METAR ZSSS 030630Z 01003MPS 320V050 4000 BR NSC 13/08 Q1023 NOSIG=
0116583670999992017010307004+31198+121336FM-15+000399999V0201301V003012200019N006000199+01401+00801999999ADDGF100991999999999999999999MA1102301999999REMMET063METAR ZSSS 030700Z 13003MPS 080V160 6000 NSC 14/08 Q1023 NOSIG=
0116583670999992017010307304+31198+121336FM-15+000399999V0201001V002012200019N006000199+01401+00701999999ADDGF100991999999999999999999MA1102301999999REMMET063METAR ZSSS 030730Z 10002MPS 060V150 6000 NSC 14/07 Q1023 NOSIG=
0127583670999992017010308004+31198+121336FM-15+000399999V0201001V003012200019N006000199+01401+00701999999ADDGF100991999999999999999999MA1102301999999OC100801REMMET066METAR ZSSS 030800Z 10003G08MPS 040V150 6000 NSC 14/07 Q1023 NOSIG=
0108583670999992017010308304+31198+121336FM-15+000399999V0200901N003012200019N006000199+01301+00801999999ADDGF100991999999999999999999MA1102301999999REMMET055METAR ZSSS 030830Z 09003MPS 6000 NSC 13/08 Q1023 NOSIG=
0108583670999992017010309004+31198+121336FM-15+000399999V0200901N004012200019N006000199+01301+00801999999ADDGF100991999999999999999999MA1102301999999REMMET055METAR ZSSS 030900Z 09004MPS 6000 NSC 13/08 Q1023 NOSIG=
0108583670999992017010309304+31198+121336FM-15+000399999V0201001N004012200019N006000199+01201+00801999999ADDGF100991999999999999999999MA1102301999999REMMET055METAR ZSSS 030930Z 10004MPS 6000 NSC 12/08 Q1023 NOSIG=
0108583670999992017010310004+31198+121336FM-15+000399999V0200901N004012200019N007000199+01201+00801999999ADDGF100991999999999999999999MA1102401999999REMMET055METAR ZSSS 031000Z 09004MPS 7000 NSC 12/08 Q1024 NOSIG=
0079583670999992017010310304+31198+121336FM-15+000399999V0200901N004019999999Y999999999+01201+00801999999ADDMA1102401999999REMMET052METAR ZSSS 031030Z 09004MPS CAVOK 12/08 Q1024 NOSIG=
0079583670999992017010311004+31198+121336FM-15+000399999V0201001N003019999999Y999999999+01101+00701999999ADDMA1102401999999REMMET052METAR ZSSS 031100Z 10003MPS CAVOK 11/07 Q1024 NOSIG=
0079583670999992017010311304+31198+121336FM-15+000399999V0201001N004019999999Y999999999+01101+00701999999ADDMA1102401999999REMMET052METAR ZSSS 031130Z 10004MPS CAVOK 11/07 Q1024 NOSIG=
0079583670999992017010312004+31198+121336FM-15+000399999V0200901N003019999999Y999999999+01101+00701999999ADDMA1102401999999REMMET052METAR ZSSS 031200Z 09003MPS CAVOK 11/07 Q1024 NOSIG=
0079583670999992017010312304+31198+121336FM-15+000399999V0201001N003019999999Y999999999+01101+00701999999ADDMA1102401999999REMMET052METAR ZSSS 031230Z 10003MPS CAVOK 11/07 Q1024 NOSIG=
0079583670999992017010313004+31198+121336FM-15+000399999V0201101N003019999999Y999999999+01101+00801999999ADDMA1102401999999REMMET052METAR ZSSS 031300Z 11003MPS CAVOK 11/08 Q1024 NOSIG=
0079583670999992017010313304+31198+121336FM-15+000399999V0201101N003019999999Y999999999+01101+00801999999ADDMA1102401999999REMMET052METAR ZSSS 031330Z 11003MPS CAVOK 11/08 Q1024 NOSIG=
0079583670999992017010314004+31198+121336FM-15+000399999V0201301N002019999999Y999999999+01101+00701999999ADDMA1102401999999REMMET052METAR ZSSS 031400Z 13002MPS CAVOK 11/07 Q1024 NOSIG=
0079583670999992017010314304+31198+121336FM-15+000399999V0201401N002019999999Y999999999+01101+00801999999ADDMA1102401999999REMMET052METAR ZSSS 031430Z 14002MPS CAVOK 11/08 Q1024 NOSIG=
0079583670999992017010315004+31198+121336FM-15+000399999V0201201N002019999999Y999999999+01101+00801999999ADDMA1102401999999REMMET052METAR ZSSS 031500Z 12002MPS CAVOK 11/08 Q1024 NOSIG=
0079583670999992017010315304+31198+121336FM-15+000399999V0201201N002019999999Y999999999+01101+00801999999ADDMA1102301999999REMMET052METAR ZSSS 031530Z 12002MPS CAVOK 11/08 Q1023 NOSIG=
0079583670999992017010316004+31198+121336FM-15+000399999V0201101N002019999999Y999999999+01101+00801999999ADDMA1102301999999REMMET052METAR ZSSS 031600Z 11002MPS CAVOK 11/08 Q1023 NOSIG=
0079583670999992017010316304+31198+121336FM-15+000399999V0201201N002019999999Y999999999+01101+00801999999ADDMA1102301999999REMMET052METAR ZSSS 031630Z 12002MPS CAVOK 11/08 Q1023 NOSIG=
0079583670999992017010317004+31198+121336FM-15+000399999V0201101N002019999999Y999999999+01101+00801999999ADDMA1102201999999REMMET052METAR ZSSS 031700Z 11002MPS CAVOK 11/08 Q1022 NOSIG=
0079583670999992017010317304+31198+121336FM-15+000399999V0201001N002019999999Y999999999+01101+00801999999ADDMA1102201999999REMMET052METAR ZSSS 031730Z 10002MPS CAVOK 11/08 Q1022 NOSIG=
0079583670999992017010318004+31198+121336FM-15+000399999V0201401N002019999999Y999999999+01101+00901999999ADDMA1102301999999REMMET052METAR ZSSS 031800Z 14002MPS CAVOK 11/09 Q1023 NOSIG=
0087583670999992017010318304+31198+121336FM-15+000399999V0201101V002019999999Y999999999+01201+00901999999ADDMA1102201999999REMMET060METAR ZSSS 031830Z 11002MPS 080V140 CAVOK 12/09 Q1022 NOSIG=
0079583670999992017010319004+31198+121336FM-15+000399999V0201101N003019999999Y999999999+01201+00901999999ADDMA1102201999999REMMET052METAR ZSSS 031900Z 11003MPS CAVOK 12/09 Q1022 NOSIG=
0079583670999992017010319304+31198+121336FM-15+000399999V0201201N003019999999Y999999999+01201+00901999999ADDMA1102101999999REMMET052METAR ZSSS 031930Z 12003MPS CAVOK 12/09 Q1021 NOSIG=
0087583670999992017010320004+31198+121336FM-15+000399999V0201201V002019999999Y999999999+01201+00901999999ADDMA1102201999999REMMET060METAR ZSSS 032000Z 12002MPS 090V150 CAVOK 12/09 Q1022 NOSIG=
0079583670999992017010320304+31198+121336FM-15+000399999V0209999V001019999999Y999999999+01201+00901999999ADDMA1102201999999REMMET052METAR ZSSS 032030Z VRB01MPS CAVOK 12/09 Q1022 NOSIG=
0087583670999992017010321004+31198+121336FM-15+000399999V0201001V002019999999Y999999999+01201+00901999999ADDMA1102201999999REMMET060METAR ZSSS 032100Z 10002MPS 070V130 CAVOK 12/09 Q1022 NOSIG=
0079583670999992017010321304+31198+121336FM-15+000399999V0200901N002019999999Y999999999+01101+00901999999ADDMA1102201999999REMMET052METAR ZSSS 032130Z 09002MPS CAVOK 11/09 Q1022 NOSIG=
0087583670999992017010322004+31198+121336FM-15+000399999V0200701V002019999999Y999999999+01101+00901999999ADDMA1102201999999REMMET060METAR ZSSS 032200Z 07002MPS 340V090 CAVOK 11/09 Q1022 NOSIG=
0079583670999992017010322304+31198+121336FM-15+000399999V0200601N002019999999Y999999999+01101+00901999999ADDMA1102201999999REMMET052METAR ZSSS 032230Z 06002MPS CAVOK 11/09 Q1022 NOSIG=
0116583670999992017010323004+31198+121336FM-15+000399999V0200801V002012200019N006000199+01101+00901999999ADDGF100991999999999999999999MA1102201999999REMMET063METAR ZSSS 032300Z 08002MPS 040V110 6000 NSC 11/09 Q1022 NOSIG=
0116583670999992017010323304+31198+121336FM-15+000399999V0200901V003012200019N006000199+01201+00901999999ADDGF100991999999999999999999MA1102201999999REMMET063METAR ZSSS 032330Z 09003MPS 060V120 6000 NSC 12/09 Q1022 NOSIG=
0108583670999992017010400004+31198+121336FM-15+000399999V0200901N003012200019N006000199+01201+01001999999ADDGF100991999999999999999999MA1102201999999REMMET055METAR ZSSS 040000Z 09003MPS 6000 NSC 12/10 Q1022 NOSIG=
0149583670999992017010400304+31198+121336FM-15+000399999V0200901N003010100619N006000199+01301+01001999999ADDGA1071+010061999GE19AGL   +99999+99999GF199999071999010061999999MA1102301999999REMMET058METAR ZSSS 040030Z 09003MPS 6000 BKN033 13/10 Q1023 NOSIG=
0116583670999992017010401004+31198+121336FM-15+000399999V0201101V003012200019N007000199+01301+01001999999ADDGF100991999999999999999999MA1102301999999REMMET063METAR ZSSS 040100Z 11003MPS 070V140 7000 NSC 13/10 Q1023 NOSIG=
0116583670999992017010401304+31198+121336FM-15+000399999V0201001V003012200019N007000199+01401+01001999999ADDGF100991999999999999999999MA1102301999999REMMET063METAR ZSSS 040130Z 10003MPS 070V140 7000 NSC 14/10 Q1023 NOSIG=
0116583670999992017010402004+31198+121336FM-15+000399999V0201001V003012200019N008000199+01501+01101999999ADDGF100991999999999999999999MA1102301999999REMMET063METAR ZSSS 040200Z 10003MPS 070V140 8000 NSC 15/11 Q1023 NOSIG=
0116583670999992017010402304+31198+121336FM-15+000399999V0201001V003012200019N008000199+01501+01001999999ADDGF100991999999999999999999MA1102301999999REMMET063METAR ZSSS 040230Z 10003MPS 070V130 8000 NSC 15/10 Q1023 NOSIG=
0116583670999992017010403004+31198+121336FM-15+000399999V0201201V003012200019N008000199+01501+01101999999ADDGF100991999999999999999999MA1102301999999REMMET063METAR ZSSS 040300Z 12003MPS 080V140 8000 NSC 15/11 Q1023 NOSIG=
0108583670999992017010403304+31198+121336FM-15+000399999V0201001N005012200019N008000199+01601+01101999999ADDGF100991999999999999999999MA1102201999999REMMET055METAR ZSSS 040330Z 10005MPS 8000 NSC 16/11 Q1022 NOSIG=
0149583670999992017010404004+31198+121336FM-15+000399999V0200901N003019999999N008000199+01601+01101999999ADDGA1041+006101999GE19AGL   +99999+99999GF199999041999006101999999MA1102201999999REMMET058METAR ZSSS 040400Z 09003MPS 8000 SCT020 16/11 Q1022 NOSIG=
0157583670999992017010404304+31198+121336FM-15+000399999V0201001V004019999999N008000199+01601+01101999999ADDGA1041+006101999GE19AGL   +99999+99999GF199999041999006101999999MA1102101999999REMMET066METAR ZSSS 040430Z 10004MPS 070V140 8000 SCT020 16/11 Q1021 NOSIG=
0157583670999992017010405004+31198+121336FM-15+000399999V0201101V003019999999N008000199+01601+01101999999ADDGA1041+006101999GE19AGL   +99999+99999GF199999041999006101999999MA1102101999999REMMET066METAR ZSSS 040500Z 11003MPS 080V160 8000 SCT020 16/11 Q1021 NOSIG=
0157583670999992017010405304+31198+121336FM-15+000399999V0201101V004019999999N008000199+01601+01101999999ADDGA1041+006101999GE19AGL   +99999+99999GF199999041999006101999999MA1102101999999REMMET066METAR ZSSS 040530Z 11004MPS 080V140 8000 SCT020 16/11 Q1021 NOSIG=
0149583670999992017010406004+31198+121336FM-15+000399999V0200901N005019999999N008000199+01601+01101999999ADDGA1041+006101999GE19AGL   +99999+99999GF199999041999006101999999MA1102001999999REMMET058METAR ZSSS 040600Z 09005MPS 8000 SCT020 16/11 Q1020 NOSIG=
0149583670999992017010406304+31198+121336FM-15+000399999V0201001N004019999999N008000199+01501+01001999999ADDGA1041+006401999GE19AGL   +99999+99999GF199999041999006401999999MA1102001999999REMMET058METAR ZSSS 040630Z 10004MPS 8000 SCT021 15/10 Q1020 NOSIG=
0149583670999992017010407004+31198+121336FM-15+000399999V0200901N005019999999N008000199+01501+01001999999ADDGA1041+006401999GE19AGL   +99999+99999GF199999041999006401999999MA1102101999999REMMET058METAR ZSSS 040700Z 09005MPS 8000 SCT021 15/10 Q1021 NOSIG=
0149583670999992017010407304+31198+121336FM-15+000399999V0200901N005019999999N007000199+01501+01001999999ADDGA1041+006401999GE19AGL   +99999+99999GF199999041999006401999999MA1102101999999REMMET058METAR ZSSS 040730Z 09005MPS 7000 SCT021 15/10 Q1021 NOSIG=
0149583670999992017010408004+31198+121336FM-15+000399999V0200901N005019999999N007000199+01501+01001999999ADDGA1041+006401999GE19AGL   +99999+99999GF199999041999006401999999MA1102101999999REMMET058METAR ZSSS 040800Z 09005MPS 7000 SCT021 15/10 Q1021 NOSIG=
0149583670999992017010408304+31198+121336FM-15+000399999V0200901N005019999999N007000199+01401+01001999999ADDGA1041+006101999GE19AGL   +99999+99999GF199999041999006101999999MA1102101999999REMMET058METAR ZSSS 040830Z 09005MPS 7000 SCT020 14/10 Q1021 NOSIG=
0149583670999992017010409004+31198+121336FM-15+000399999V0201001N005010061019N006000199+01401+01001999999ADDGA1071+006101999GE19AGL   +99999+99999GF199999071999006101999999MA1102101999999REMMET058METAR ZSSS 040900Z 10005MPS 6000 BKN020 14/10 Q1021 NOSIG=
0149583670999992017010409304+31198+121336FM-15+000399999V0201001N006010061019N006000199+01401+01001999999ADDGA1071+006101999GE19AGL   +99999+99999GF199999071999006101999999MA1102101999999REMMET058METAR ZSSS 040930Z 10006MPS 6000 BKN020 14/10 Q1021 NOSIG=
0149583670999992017010410004+31198+121336FM-15+000399999V0201001N004010061019N008000199+01401+01001999999ADDGA1071+006101999GE19AGL   +99999+99999GF199999071999006101999999MA1102101999999REMMET058METAR ZSSS 041000Z 10004MPS 8000 BKN020 14/10 Q1021 NOSIG=
0157583670999992017010410304+31198+121336FM-15+000399999V0200801V004010070119N008000199+01401+01001999999ADDGA1071+007011999GE19AGL   +99999+99999GF199999071999007011999999MA1102201999999REMMET066METAR ZSSS 041030Z 08004MPS 060V120 8000 BKN023 14/10 Q1022 NOSIG=
0159583670999992017010411004+31198+121336FM-15+000399999V0201001N004010070119N009999199+01401+00901999999ADDGA1071+007011999GE19AGL   +99999+99999GF199999071999007011999999MA1102201999999MW1611REMMET062METAR ZSSS 041100Z 10004MPS 9999 -RA BKN023 14/09 Q1022 NOSIG=
0159583670999992017010411304+31198+121336FM-15+000399999V0201001N005010070119N009999199+01301+01001999999ADDGA1071+007011999GE19AGL   +99999+99999GF199999071999007011999999MA1102201999999MW1611REMMET062METAR ZSSS 041130Z 10005MPS 9999 -RA BKN023 13/10 Q1022 NOSIG=
0149583670999992017010412004+31198+121336FM-15+000399999V0200901N004010079219N009999199+01301+00901999999ADDGA1071+007921999GE19AGL   +99999+99999GF199999071999007921999999MA1102201999999REMMET058METAR ZSSS 041200Z 09004MPS 9999 BKN026 13/09 Q1022 NOSIG=
0159583670999992017010412304+31198+121336FM-15+000399999V0200901N004019999999N009999199+01301+00901999999ADDGA1041+006101999GE19AGL   +99999+99999GF199999041999006101999999MA1102201999999MW1611REMMET062METAR ZSSS 041230Z 09004MPS 9999 -RA SCT020 13/09 Q1022 NOSIG=
0159583670999992017010413004+31198+121336FM-15+000399999V0200901N005019999999N009999199+01301+00901999999ADDGA1021+007011999GE19AGL   +99999+99999GF199999021999007011999999MA1102101999999MW1611REMMET062METAR ZSSS 041300Z 09005MPS 9999 -RA FEW023 13/09 Q1021 NOSIG=
0159583670999992017010413304+31198+121336FM-15+000399999V0201001N004010070119N009999199+01301+00901999999ADDGA1071+007011999GE19AGL   +99999+99999GF199999071999007011999999MA1102101999999MW1611REMMET062METAR ZSSS 041330Z 10004MPS 9999 -RA BKN023 13/09 Q1021 NOSIG=
0159583670999992017010414004+31198+121336FM-15+000399999V0200901N004010070119N009999199+01301+00901999999ADDGA1071+007011999GE19AGL   +99999+99999GF199999071999007011999999MA1102201999999MW1611REMMET062METAR ZSSS 041400Z 09004MPS 9999 -RA BKN023 13/09 Q1022 NOSIG=
0159583670999992017010414304+31198+121336FM-15+000399999V0201001N003010064019N007000199+01201+01001999999ADDGA1071+006401999GE19AGL   +99999+99999GF199999071999006401999999MA1102101999999MW1611REMMET062METAR ZSSS 041430Z 10003MPS 7000 -RA BKN021 12/10 Q1021 NOSIG=
0159583670999992017010415004+31198+121336FM-15+000399999V0200901N005010070119N008000199+01201+01001999999ADDGA1071+007011999GE19AGL   +99999+99999GF199999071999007011999999MA1102101999999MW1611REMMET062METAR ZSSS 041500Z 09005MPS 8000 -RA BKN023 12/10 Q1021 NOSIG=
0159583670999992017010415304+31198+121336FM-15+000399999V0201001N004010070119N008000199+01201+00901999999ADDGA1071+007011999GE19AGL   +99999+99999GF199999071999007011999999MA1102101999999MW1611REMMET062METAR ZSSS 041530Z 10004MPS 8000 -RA BKN023 12/09 Q1021 NOSIG=
0167583670999992017010416004+31198+121336FM-15+000399999V0201001V004010064019N008000199+01201+00901999999ADDGA1071+006401999GE19AGL   +99999+99999GF199999071999006401999999MA1102101999999MW1611REMMET070METAR ZSSS 041600Z 10004MPS 070V130 8000 -RA BKN021 12/09 Q1021 NOSIG=
0159583670999992017010416304+31198+121336FM-15+000399999V0200901N004010064019N008000199+01201+00901999999ADDGA1071+006401999GE19AGL   +99999+99999GF199999071999006401999999MA1102001999999MW1611REMMET062METAR ZSSS 041630Z 09004MPS 8000 -RA BKN021 12/09 Q1020 NOSIG=
0159583670999992017010417004+31198+121336FM-15+000399999V0201001N004010064019N006000199+01201+00901999999ADDGA1071+006401999GE19AGL   +99999+99999GF199999071999006401999999MA1102001999999MW1611REMMET062METAR ZSSS 041700Z 10004MPS 6000 -RA BKN021 12/09 Q1020 NOSIG=
0176583670999992017010417304+31198+121336FM-15+000399999V0201101V004010064019N004500199+01101+00901999999ADDGA1071+006401999GE19AGL   +99999+99999GF199999071999006401999999MA1102101999999MW1101MW2611REMMET073METAR ZSSS 041730Z 11004MPS 080V140 4500 -RA BR BKN021 11/09 Q1021 NOSIG=
0168583670999992017010418004+31198+121336FM-15+000399999V0200901N005010070119N004000199+01101+01001999999ADDGA1071+007011999GE19AGL   +99999+99999GF199999071999007011999999MA1102001999999MW1101MW2611REMMET065METAR ZSSS 041800Z 09005MPS 4000 -RA BR BKN023 11/10 Q1020 NOSIG=
0199583670999992017010418304+31198+121336FM-15+000399999V0201101V004010079219N004000199+01101+01001999999ADDGA1041+002741999GA2071+007921999GE19AGL   +99999+99999GF199999041999002741999999MA1102001999999MW1101MW2611REMMET080METAR ZSSS 041830Z 11004MPS 070V140 4000 -RA BR SCT009 BKN026 11/10 Q1020 NOSIG=
0191583670999992017010419004+31198+121336FM-15+000399999V0200901N005010027419N005000199+01101+01001999999ADDGA1071+002741999GA2081+012191999GE19AGL   +99999+99999GF199999071999002741999999MA1102001999999MW1101MW2611REMMET072METAR ZSSS 041900Z 09005MPS 5000 -RA BR BKN009 OVC040 11/10 Q1020 NOSIG=
0191583670999992017010419304+31198+121336FM-15+000399999V0201001N005010024419N004500199+01101+01001999999ADDGA1071+002441999GA2081+012191999GE19AGL   +99999+99999GF199999071999002441999999MA1101901999999MW1101MW2611REMMET072METAR ZSSS 041930Z 10005MPS 4500 -RA BR BKN008 OVC040 11/10 Q1019 NOSIG=
0191583670999992017010420004+31198+121336FM-15+000399999V0200901N005010024419N004000199+01101+01001999999ADDGA1071+002441999GA2081+012191999GE19AGL   +99999+99999GF199999071999002441999999MA1101901999999MW1101MW2611REMMET072METAR ZSSS 042000Z 09005MPS 4000 -RA BR BKN008 OVC040 11/10 Q1019 NOSIG=
0191583670999992017010420304+31198+121336FM-15+000399999V0201001N005010024419N004000199+01101+01001999999ADDGA1071+002441999GA2081+012191999GE19AGL   +99999+99999GF199999071999002441999999MA1101901999999MW1101MW2611REMMET072METAR ZSSS 042030Z 10005MPS 4000 -RA BR BKN008 OVC040 11/10 Q1019 NOSIG=
0191583670999992017010421004+31198+121336FM-15+000399999V0200901N005010024419N004000199+01101+01001999999ADDGA1071+002441999GA2081+012191999GE19AGL   +99999+99999GF199999071999002441999999MA1101901999999MW1101MW2611REMMET072METAR ZSSS 042100Z 09005MPS 4000 -RA BR BKN008 OVC040 11/10 Q1019 NOSIG=
0191583670999992017010421304+31198+121336FM-15+000399999V0200901N004010021319N005000199+01101+01001999999ADDGA1071+002131999GA2081+012191999GE19AGL   +99999+99999GF199999071999002131999999MA1101901999999MW1101MW2611REMMET072METAR ZSSS 042130Z 09004MPS 5000 -RA BR BKN007 OVC040 11/10 Q1019 NOSIG=
0182583670999992017010422004+31198+121336FM-15+000399999V0200901N006010021319N006000199+01101+01001999999ADDGA1071+002131999GA2081+012191999GE19AGL   +99999+99999GF199999071999002131999999MA1101901999999MW1611REMMET069METAR ZSSS 042200Z 09006MPS 6000 -RA BKN007 OVC040 11/10 Q1019 NOSIG=
0190583670999992017010422304+31198+121336FM-15+000399999V0201001N005010021319N004500199+01101+01001999999ADDGA1071+002131999GA2081+012191999GE19AGL   +99999+99999GF199999071999002131999999MA1102001999999MW1101MW2631REMMET071METAR ZSSS 042230Z 10005MPS 4500 RA BR BKN007 OVC040 11/10 Q1020 NOSIG=
0196583670999992017010423004+31198+121336FM-15+000399999V0200801N005010024419N004500199+01101+01001999999ADDGA1071+002441999GA2081+010061999GE19AGL   +99999+99999GF199999071999002441999999MA1102001999999MW1101MW2611REMMET077METAR ZSSS 042300Z 08005MPS 4500 -RA BR BKN008 OVC033 11/10 Q1020 RERA NOSIG=
0182583670999992017010423304+31198+121336FM-15+000399999V0200901N006010024419N006000199+01101+01001999999ADDGA1071+002441999GA2081+010061999GE19AGL   +99999+99999GF199999071999002441999999MA1102001999999MW1611REMMET069METAR ZSSS 042330Z 09006MPS 6000 -RA BKN008 OVC033 11/10 Q1020 NOSIG=
0203583670999992017010500004+31198+121336FM-15+000399999V0200801N006010024419N006000199+01001+00901999999ADDGA1071+002441999GA2081+010061999GE19AGL   +99999+99999GF199999071999002441999999MA1102001999999MW1611REMMET090METAR ZSSS 050000Z 08006MPS 6000 -RA BKN008 OVC033 10/09 Q1020 BECMG TL0140 BKN010 OVC040=
0182583670999992017010500304+31198+121336FM-15+000399999V0200901N006010027419N006000199+01101+00901999999ADDGA1071+002741999GA2081+010061999GE19AGL   +99999+99999GF199999071999002741999999MA1102001999999MW1611REMMET069METAR ZSSS 050030Z 09006MPS 6000 -RA BKN009 OVC033 11/09 Q1020 NOSIG=
0190583670999992017010501004+31198+121336FM-15+000399999V0200901V006010027419N006000199+01101+01001999999ADDGA1071+002741999GA2081+010061999GE19AGL   +99999+99999GF199999071999002741999999MA1102001999999MW1611REMMET077METAR ZSSS 050100Z 09006MPS 060V120 6000 -RA BKN009 OVC033 11/10 Q1020 NOSIG=
0196583670999992017010501304+31198+121336FM-15+000399999V0200901N008010027419N007000199+01101+01001999999ADDGA1071+002741999GA2081+010061999GE19AGL   +99999+99999GF199999071999002741999999MA1102001999999MW1611REMMET083METAR ZSSS 050130Z 09008MPS 7000 -RA BKN009 OVC033 11/10 Q1020 BECMG TL0210 BKN010=
0203583670999992017010502004+31198+121336FM-15+000399999V0200901N006010027419N006000199+01101+01001999999ADDGA1071+002741999GA2081+010061999GE19AGL   +99999+99999GF199999071999002741999999MA1102101999999MW1611REMMET090METAR ZSSS 050200Z 09006MPS 6000 -RA BKN009 OVC033 11/10 Q1021 BECMG TL0230 BKN010 OVC033=
0182583670999992017010502304+31198+121336FM-15+000399999V0200801N005010027419N006000199+01101+01001999999ADDGA1071+002741999GA2081+010061999GE19AGL   +99999+99999GF199999071999002741999999MA1102101999999MW1611REMMET069METAR ZSSS 050230Z 08005MPS 6000 -RA BKN009 OVC033 11/10 Q1021 NOSIG=
0182583670999992017010503004+31198+121336FM-15+000399999V0200901N006010027419N006000199+01001+00901999999ADDGA1071+002741999GA2081+010061999GE19AGL   +99999+99999GF199999071999002741999999MA1102001999999MW1611REMMET069METAR ZSSS 050300Z 09006MPS 6000 -RA BKN009 OVC033 10/09 Q1020 NOSIG=
0190583670999992017010503304+31198+121336FM-15+000399999V0200901V006010027419N007000199+01001+00901999999ADDGA1071+002741999GA2081+010061999GE19AGL   +99999+99999GF199999071999002741999999MA1102001999999MW1611REMMET077METAR ZSSS 050330Z 09006MPS 060V120 7000 -RA BKN009 OVC033 10/09 Q1020 NOSIG=
0204583670999992017010504004+31198+121336FM-15+000399999V0200801V004010027419N008000199+01101+00901999999ADDGA1071+002741999GA2081+010061999GE19AGL   +99999+99999GF199999071999002741999999MA1101901999999MW1611REMMET091METAR ZSSS 050400Z 08004MPS 040V110 8000 -RA BKN009 OVC033 11/09 Q1019 BECMG TL0540 BKN010=
0182583670999992017010504304+31198+121336FM-15+000399999V0200701N004010024419N008000199+01101+01001999999ADDGA1071+002441999GA2081+010061999GE19AGL   +99999+99999GF199999071999002441999999MA1101901999999MW1611REMMET069METAR ZSSS 050430Z 07004MPS 8000 -RA BKN008 OVC033 11/10 Q1019 NOSIG=
0190583670999992017010505004+31198+121336FM-15+000399999V0200701V005010024419N007000199+01101+00901999999ADDGA1071+002441999GA2081+010061999GE19AGL   +99999+99999GF199999071999002441999999MA1101901999999MW1611REMMET077METAR ZSSS 050500Z 07005MPS 050V110 7000 -RA BKN008 OVC033 11/09 Q1019 NOSIG=
0190583670999992017010505304+31198+121336FM-15+000399999V0200801V004010024419N007000199+01101+01001999999ADDGA1071+002441999GA2081+010061999GE19AGL   +99999+99999GF199999071999002441999999MA1101801999999MW1611REMMET077METAR ZSSS 050530Z 08004MPS 050V110 7000 -RA BKN008 OVC033 11/10 Q1018 NOSIG=
0190583670999992017010506004+31198+121336FM-15+000399999V0200801V005010024419N007000199+01101+01001999999ADDGA1071+002441999GA2081+010061999GE19AGL   +99999+99999GF199999071999002441999999MA1101801999999MW1611REMMET077METAR ZSSS 050600Z 08005MPS 040V110 7000 -RA BKN008 OVC033 11/10 Q1018 NOSIG=
0190583670999992017010506304+31198+121336FM-15+000399999V0200601V004010024419N007000199+01101+01001999999ADDGA1071+002441999GA2081+010061999GE19AGL   +99999+99999GF199999071999002441999999MA1101801999999MW1611REMMET077METAR ZSSS 050630Z 06004MPS 360V100 7000 -RA BKN008 OVC033 11/10 Q1018 NOSIG=
0190583670999992017010507004+31198+121336FM-15+000399999V0200601V004010024419N006000199+01101+01001999999ADDGA1071+002441999GA2081+010061999GE19AGL   +99999+99999GF199999071999002441999999MA1101901999999MW1611REMMET077METAR ZSSS 050700Z 06004MPS 010V090 6000 -RA BKN008 OVC033 11/10 Q1019 NOSIG=
0209583670999992017010507304+31198+121336FM-15+000399999V0200601V004010021319N005000199+01101+01001999999ADDGA1071+002131999GA2081+010061999GE19AGL   +99999+99999GF199999071999002131999999MA1101901999999MW1101MW2631REMMET090METAR ZSSS 050730Z 06004MPS 030V090 5000 RA BR BKN007 OVC033 11/10 Q1019 BECMG TL0800 -RA=
0204583670999992017010508004+31198+121336FM-15+000399999V0200501V004010021319N005000199+01101+01001999999ADDGA1071+002131999GA2081+010061999GE19AGL   +99999+99999GF199999071999002131999999MA1101901999999MW1101MW2611REMMET085METAR ZSSS 050800Z 05004MPS 020V080 5000 -RA BR BKN007 OVC033 11/10 Q1019 RERA NOSIG=
0191583670999992017010508304+31198+121336FM-15+000399999V0200501N005010021319N005000199+01101+01001999999ADDGA1071+002131999GA2081+010061999GE19AGL   +99999+99999GF199999071999002131999999MA1102001999999MW1101MW2611REMMET072METAR ZSSS 050830Z 05005MPS 5000 -RA BR BKN007 OVC033 11/10 Q1020 NOSIG=
0191583670999992017010509004+31198+121336FM-15+000399999V0200501N006010021319N005000199+01001+01001999999ADDGA1071+002131999GA2081+010061999GE19AGL   +99999+99999GF199999071999002131999999MA1102001999999MW1101MW2611REMMET072METAR ZSSS 050900Z 05006MPS 5000 -RA BR BKN007 OVC033 10/10 Q1020 NOSIG=
0202583670999992017010509304+31198+121336FM-15+000399999V0200401N004010018319N005000199+01101+01001999999ADDGA1071+001831999GA2081+010061999GE19AGL   +99999+99999GF199999071999001831999999MA1102001999999MW1101MW2611OC100901REMMET075METAR ZSSS 050930Z 04004G09MPS 5000 -RA BR BKN006 OVC033 11/10 Q1020 NOSIG=
0182583670999992017010510004+31198+121336FM-15+000399999V0200501N005010021319N008000199+01101+01001999999ADDGA1071+002131999GA2081+010061999GE19AGL   +99999+99999GF199999071999002131999999MA1102101999999MW1611REMMET069METAR ZSSS 051000Z 05005MPS 8000 -RA BKN007 OVC033 11/10 Q1021 NOSIG=
0182583670999992017010510304+31198+121336FM-15+000399999V0200301N006010021319N009999199+01001+00901999999ADDGA1071+002131999GA2081+010061999GE19AGL   +99999+99999GF199999071999002131999999MA1102101999999MW1611REMMET069METAR ZSSS 051030Z 03006MPS 9999 -RA BKN007 OVC033 10/09 Q1021 NOSIG=
0182583670999992017010511004+31198+121336FM-15+000399999V0200301N005010021319N009999199+01001+00901999999ADDGA1071+002131999GA2081+010061999GE19AGL   +99999+99999GF199999071999002131999999MA1102101999999MW1611REMMET069METAR ZSSS 051100Z 03005MPS 9999 -RA BKN007 OVC033 10/09 Q1021 NOSIG=
0182583670999992017010511304+31198+121336FM-15+000399999V0200401N005010021319N009999199+01001+00901999999ADDGA1071+002131999GA2081+010061999GE19AGL   +99999+99999GF199999071999002131999999MA1102101999999MW1611REMMET069METAR ZSSS 051130Z 04005MPS 9999 -RA BKN007 OVC033 10/09 Q1021 NOSIG=
0182583670999992017010512004+31198+121336FM-15+000399999V0200401N005010021319N009999199+01001+00901999999ADDGA1071+002131999GA2081+010061999GE19AGL   +99999+99999GF199999071999002131999999MA1102101999999MW1611REMMET069METAR ZSSS 051200Z 04005MPS 9999 -RA BKN007 OVC033 10/09 Q1021 NOSIG=
0182583670999992017010512304+31198+121336FM-15+000399999V0200201N005010021319N009999199+01001+00901999999ADDGA1071+002131999GA2081+010061999GE19AGL   +99999+99999GF199999071999002131999999MA1102201999999MW1611REMMET069METAR ZSSS 051230Z 02005MPS 9999 -RA BKN007 OVC033 10/09 Q1022 NOSIG=
0182583670999992017010513004+31198+121336FM-15+000399999V0200301N005010021319N009999199+01001+00901999999ADDGA1071+002131999GA2081+010061999GE19AGL   +99999+99999GF199999071999002131999999MA1102201999999MW1611REMMET069METAR ZSSS 051300Z 03005MPS 9999 -RA BKN007 OVC033 10/09 Q1022 NOSIG=
0182583670999992017010513304+31198+121336FM-15+000399999V0200301N005010021319N009999199+01001+00901999999ADDGA1071+002131999GA2081+010061999GE19AGL   +99999+99999GF199999071999002131999999MA1102201999999MW1611REMMET069METAR ZSSS 051330Z 03005MPS 9999 -RA BKN007 OVC033 10/09 Q1022 NOSIG=
0182583670999992017010514004+31198+121336FM-15+000399999V0200301N004010018319N009999199+01001+00901999999ADDGA1071+001831999GA2081+010061999GE19AGL   +99999+99999GF199999071999001831999999MA1102201999999MW1611REMMET069METAR ZSSS 051400Z 03004MPS 9999 -RA BKN006 OVC033 10/09 Q1022 NOSIG=
0182583670999992017010515304+31198+121336FM-15+000399999V0200201N005010015219N009999199+01001+00901999999ADDGA1071+001521999GA2081+010061999GE19AGL   +99999+99999GF199999071999001521999999MA1102201999999MW1611REMMET069METAR ZSSS 051530Z 02005MPS 9999 -RA BKN005 OVC033 10/09 Q1022 NOSIG=
0190583670999992017010516004+31198+121336FM-15+000399999V0200301V004010015219N009999199+01001+00901999999ADDGA1071+001521999GA2081+010061999GE19AGL   +99999+99999GF199999071999001521999999MA1102201999999MW1611REMMET077METAR ZSSS 051600Z 03004MPS 010V070 9999 -RA BKN005 OVC033 10/09 Q1022 NOSIG=
0182583670999992017010516304+31198+121336FM-15+000399999V0200301N005010015219N009999199+01001+00901999999ADDGA1071+001521999GA2081+010061999GE19AGL   +99999+99999GF199999071999001521999999MA1102201999999MW1611REMMET069METAR ZSSS 051630Z 03005MPS 9999 -RA BKN005 OVC033 10/09 Q1022 NOSIG=
0182583670999992017010517004+31198+121336FM-15+000399999V0200401N004010015219N009999199+01001+00901999999ADDGA1071+001521999GA2081+010061999GE19AGL   +99999+99999GF199999071999001521999999MA1102101999999MW1611REMMET069METAR ZSSS 051700Z 04004MPS 9999 -RA BKN005 OVC033 10/09 Q1021 NOSIG=
0182583670999992017010517304+31198+121336FM-15+000399999V0200301N005010015219N009999199+01001+00901999999ADDGA1071+001521999GA2081+010061999GE19AGL   +99999+99999GF199999071999001521999999MA1102201999999MW1611REMMET069METAR ZSSS 051730Z 03005MPS 9999 -RA BKN005 OVC033 10/09 Q1022 NOSIG=
0182583670999992017010518004+31198+121336FM-15+000399999V0200201N004010015219N009999199+01001+00901999999ADDGA1071+001521999GA2081+010061999GE19AGL   +99999+99999GF199999071999001521999999MA1102201999999MW1611REMMET069METAR ZSSS 051800Z 02004MPS 9999 -RA BKN005 OVC033 10/09 Q1022 NOSIG=
0182583670999992017010518304+31198+121336FM-15+000399999V0200401N005010015219N007000199+01001+00901999999ADDGA1071+001521999GA2081+010061999GE19AGL   +99999+99999GF199999071999001521999999MA1102101999999MW1611REMMET069METAR ZSSS 051830Z 04005MPS 7000 -RA BKN005 OVC033 10/09 Q1021 NOSIG=
0180583670999992017010519004+31198+121336FM-15+000399999V0200201V004010012219N007000199+01001+00901999999ADDGA1071+001221999GA2081+010061999GE19AGL   +99999+99999GF199999071999001221999999MA1102101999999REMMET073METAR ZSSS 051900Z 02004MPS 360V060 7000 BKN004 OVC033 10/09 Q1021 NOSIG=
0191583670999992017010519304+31198+121336FM-15+000399999V0200201N004010012219N005000199+01001+01001999999ADDGA1071+001221999GA2081+010061999GE19AGL   +99999+99999GF199999071999001221999999MA1102101999999MW1101MW2611REMMET072METAR ZSSS 051930Z 02004MPS 5000 -RA BR BKN004 OVC033 10/10 Q1021 NOSIG=
0191583670999992017010520004+31198+121336FM-15+000399999V0200101N004010012219N005000199+01001+01001999999ADDGA1071+001221999GA2081+010061999GE19AGL   +99999+99999GF199999071999001221999999MA1102101999999MW1101MW2611REMMET072METAR ZSSS 052000Z 01004MPS 5000 -RA BR BKN004 OVC033 10/10 Q1021 NOSIG=
0191583670999992017010520304+31198+121336FM-15+000399999V0200201N004010012219N004000199+01001+01001999999ADDGA1071+001221999GA2081+010061999GE19AGL   +99999+99999GF199999071999001221999999MA1102101999999MW1101MW2611REMMET072METAR ZSSS 052030Z 02004MPS 4000 -RA BR BKN004 OVC033 10/10 Q1021 NOSIG=
0191583670999992017010521004+31198+121336FM-15+000399999V0200101N004010012219N004000199+01001+01001999999ADDGA1071+001221999GA2081+010061999GE19AGL   +99999+99999GF199999071999001221999999MA1102101999999MW1101MW2611REMMET072METAR ZSSS 052100Z 01004MPS 4000 -RA BR BKN004 OVC033 10/10 Q1021 NOSIG=
0191583670999992017010521304+31198+121336FM-15+000399999V0200301N003010012219N004000199+01001+01001999999ADDGA1071+001221999GA2081+010061999GE19AGL   +99999+99999GF199999071999001221999999MA1102101999999MW1101MW2611REMMET072METAR ZSSS 052130Z 03003MPS 4000 -RA BR BKN004 OVC033 10/10 Q1021 NOSIG=
0212583670999992017010522004+31198+121336FM-15+000399999V0200201N004010009119N004000199+01101+01001999999ADDGA1071+000911999GA2081+010061999GE19AGL   +99999+99999GF199999071999000911999999MA1102201999999MW1101MW2611REMMET093METAR ZSSS 052200Z 02004MPS 4000 -RA BR BKN003 OVC033 11/10 Q1022 BECMG TL2350 BKN005 OVC033=
0191583670999992017010522304+31198+121336FM-15+000399999V0200401N004010009119N003500199+01101+01001999999ADDGA1071+000911999GA2081+010061999GE19AGL   +99999+99999GF199999071999000911999999MA1102101999999MW1101MW2611REMMET072METAR ZSSS 052230Z 04004MPS 3500 -RA BR BKN003 OVC033 11/10 Q1021 NOSIG=
0212583670999992017010523004+31198+121336FM-15+000399999V0200201N003010009119N003500199+01101+01001999999ADDGA1071+000911999GA2081+010061999GE19AGL   +99999+99999GF199999071999000911999999MA1102201999999MW1101MW2611REMMET093METAR ZSSS 052300Z 02003MPS 3500 -RA BR BKN003 OVC033 11/10 Q1022 BECMG TL0030 BKN005 OVC033=
0191583670999992017010523304+31198+121336FM-15+000399999V0200101N003010009119N002000199+01101+01101999999ADDGA1071+000911999GA2081+010061999GE19AGL   +99999+99999GF199999071999000911999999MA1102301999999MW1101MW2611REMMET072METAR ZSSS 052330Z 01003MPS 2000 -RA BR BKN003 OVC033 11/11 Q1023 NOSIG=
0217583670999992017010600004+31198+121336FM-15+000399999V0200401N003010009119N002000199+01101+01101999999ADDGA1071+000911999GA2081+010061999GE19AGL   +99999+99999GF199999071999000911999999MA1102201999999MW1101MW2611REMMET098METAR ZSSS 060000Z 04003MPS 2000 -RA BR BKN003 OVC033 11/11 Q1022 BECMG TL0130 3500 BKN005 OVC033=
0191583670999992017010600304+31198+121336FM-15+000399999V0200301N003010009119N002000199+01201+01101999999ADDGA1071+000911999GA2081+010061999GE19AGL   +99999+99999GF199999071999000911999999MA1102301999999MW1101MW2611REMMET072METAR ZSSS 060030Z 03003MPS 2000 -RA BR BKN003 OVC033 12/11 Q1023 NOSIG=
0217583670999992017010601004+31198+121336FM-15+000399999V0200201N004010012219N002600199+01201+01101999999ADDGA1071+001221999GA2081+010061999GE19AGL   +99999+99999GF199999071999001221999999MA1102301999999MW1101MW2611REMMET098METAR ZSSS 060100Z 02004MPS 2600 -RA BR BKN004 OVC033 12/11 Q1023 BECMG TL0200 3000 BKN005 OVC033=
0191583670999992017010601304+31198+121336FM-15+000399999V0200401N004010015219N005000199+01201+01101999999ADDGA1071+001521999GA2081+010061999GE19AGL   +99999+99999GF199999071999001521999999MA1102301999999MW1101MW2611REMMET072METAR ZSSS 060130Z 04004MPS 5000 -RA BR BKN005 OVC033 12/11 Q1023 NOSIG=
0191583670999992017010602004+31198+121336FM-15+000399999V0200501V002010018319N006000199+01201+01201999999ADDGA1071+001831999GA2081+012191999GE19AGL   +99999+99999GF199999071999001831999999MA1102301999999OC100701REMMET076METAR ZSSS 060200Z 05002G07MPS 310V090 6000 BKN006 OVC040 12/12 Q1023 NOSIG=
0182583670999992017010602304+31198+121336FM-15+000399999V0200901V002010024419N007000199+01301+01201999999ADDGA1071+002441999GE19AGL   +99999+99999GF199999071999002441999999MA1102201999999OC100701REMMET083METAR ZSSS 060230Z 09002G07MPS 050V180 7000 BKN008 13/12 Q1022 BECMG TL0320 BKN011=
0168583670999992017010603004+31198+121336FM-15+000399999V0200701V003019999999N009999199+01301+01201999999ADDGA1021+002741999GE19AGL   +99999+99999GF199999021999002741999999MA1102201999999OC100801REMMET069METAR ZSSS 060300Z 07003G08MPS 040V100 9999 FEW009 13/12 Q1022 NOSIG=
0157583670999992017010603304+31198+121336FM-15+000399999V0200601V003019999999N009999199+01301+01101999999ADDGA1021+003351999GE19AGL   +99999+99999GF199999021999003351999999MA1102201999999REMMET066METAR ZSSS 060330Z 06003MPS 020V110 9999 FEW011 13/11 Q1022 NOSIG=
0163583670999992017010604004+31198+121336FM-15+000399999V0209999V003019999999N009999199+01401+01201999999ADDGA1041+003961999GE19AGL   +99999+99999GF199999041999003961999999MA1102101999999REMMET072METAR ZSSS 060400Z VRB03MPS 9999 SCT013 14/12 Q1021 BECMG TL0440 BKN013=
0149583670999992017010604304+31198+121336FM-15+000399999V0209999V002019999999N009999199+01401+01201999999ADDGA1021+003961999GE19AGL   +99999+99999GF199999021999003961999999MA1102101999999REMMET058METAR ZSSS 060430Z VRB02MPS 9999 FEW013 14/12 Q1021 NOSIG=
0182583670999992017010605004+31198+121336FM-15+000399999V0201101V003019999999N009999199+01401+01201999999ADDGA1021+003961999GE19AGL   +99999+99999GF199999021999003961999999MA1102001999999OC100901REMMET083METAR ZSSS 060500Z 11003G09MPS 050V170 9999 FEW013 14/12 Q1020 BECMG TL0600 BKN013=
0157583670999992017010605304+31198+121336FM-15+000399999V0201001V002010039619N009999199+01401+01101999999ADDGA1071+003961999GE19AGL   +99999+99999GF199999071999003961999999MA1102001999999REMMET066METAR ZSSS 060530Z 10002MPS 030V130 9999 BKN013 14/11 Q1020 NOSIG=
0171583670999992017010606004+31198+121336FM-15+000399999V0200701V002010039619N009999199+01401+01201999999ADDGA1071+003961999GE19AGL   +99999+99999GF199999071999003961999999MA1102001999999REMMET080METAR ZSSS 060600Z 07002MPS 040V100 9999 BKN013 14/12 Q1020 BECMG TL0640 BKN016=
0163583670999992017010606304+31198+121336FM-15+000399999V0200701N002019999999N009999199+01401+01201999999ADDGA1041+004571999GE19AGL   +99999+99999GF199999041999004571999999MA1102001999999REMMET072METAR ZSSS 060630Z 07002MPS 9999 SCT015 14/12 Q1020 BECMG TL0740 BKN013=
0171583670999992017010607004+31198+121336FM-15+000399999V0200901V003019999999N009999199+01401+01201999999ADDGA1041+004571999GE19AGL   +99999+99999GF199999041999004571999999MA1101901999999REMMET080METAR ZSSS 060700Z 09003MPS 060V120 9999 SCT015 14/12 Q1019 BECMG TL0820 BKN011=
0178583670999992017010607304+31198+121336FM-15+000399999V0200901V003010045719N009999199+01401+01201999999ADDGA1071+004571999GE19AGL   +99999+99999GF199999071999004571999999MA1101901999999MW1611OC100901REMMET073METAR ZSSS 060730Z 09003G09MPS 010V120 9999 -RA BKN015 14/12 Q1019 NOSIG=
0178583670999992017010608004+31198+121336FM-15+000399999V0200901V005010045719N009999199+01401+01201999999ADDGA1071+004571999GE19AGL   +99999+99999GF199999071999004571999999MA1101901999999MW1611OC101101REMMET073METAR ZSSS 060800Z 09005G11MPS 040V120 9999 -RA BKN015 14/12 Q1019 NOSIG=
0192583670999992017010608304+31198+121336FM-15+000399999V0201001V004010045719N008000199+01401+01201999999ADDGA1071+004571999GE19AGL   +99999+99999GF199999071999004571999999MA1101901999999MW1611OC101001REMMET087METAR ZSSS 060830Z 10004G10MPS 060V130 8000 -RA BKN015 14/12 Q1019 BECMG TL0920 BKN013=
0170583670999992017010609004+31198+121336FM-15+000399999V0200901N004010039619N008000199+01301+01201999999ADDGA1071+003961999GE19AGL   +99999+99999GF199999071999003961999999MA1101901999999MW1611OC100901REMMET065METAR ZSSS 060900Z 09004G09MPS 8000 -RA BKN013 13/12 Q1019 NOSIG=
0159583670999992017010609304+31198+121336FM-15+000399999V0201001N005010039619N009999199+01301+01201999999ADDGA1071+003961999GE19AGL   +99999+99999GF199999071999003961999999MA1101901999999MW1611REMMET062METAR ZSSS 060930Z 10005MPS 9999 -RA BKN013 13/12 Q1019 NOSIG=
0173583670999992017010610004+31198+121336FM-15+000399999V0200901N004019999999N009999199+01301+01201999999ADDGA1041+003961999GE19AGL   +99999+99999GF199999041999003961999999MA1101901999999MW1611REMMET076METAR ZSSS 061000Z 09004MPS 9999 -RA SCT013 13/12 Q1019 BECMG TL1100 BKN013=
0159583670999992017010610304+31198+121336FM-15+000399999V0201001N004010121919N009999199+01301+01201999999ADDGA1081+012191999GE19AGL   +99999+99999GF199999081999012191999999MA1102001999999MW1611REMMET062METAR ZSSS 061030Z 10004MPS 9999 -RA OVC040 13/12 Q1020 NOSIG=
0159583670999992017010611004+31198+121336FM-15+000399999V0200901N004010121919N009999199+01301+01201999999ADDGA1081+012191999GE19AGL   +99999+99999GF199999081999012191999999MA1101901999999MW1611REMMET062METAR ZSSS 061100Z 09004MPS 9999 -RA OVC040 13/12 Q1019 NOSIG=
0118583670999992017010611304+31198+121336FM-15+000399999V0201001N004012200019N009999199+01301+01101999999ADDGF100991999999999999999999MA1101901999999MW1611REMMET059METAR ZSSS 061130Z 10004MPS 9999 -RA NSC 13/11 Q1019 NOSIG=
0118583670999992017010612004+31198+121336FM-15+000399999V0200901N005012200019N009999199+01301+01101999999ADDGF100991999999999999999999MA1101901999999MW1611REMMET059METAR ZSSS 061200Z 09005MPS 9999 -RA NSC 13/11 Q1019 NOSIG=
0159583670999992017010612304+31198+121336FM-15+000399999V0201001N004010121919N009999199+01301+01201999999ADDGA1081+012191999GE19AGL   +99999+99999GF199999081999012191999999MA1102001999999MW1611REMMET062METAR ZSSS 061230Z 10004MPS 9999 -RA OVC040 13/12 Q1020 NOSIG=
0159583670999992017010613004+31198+121336FM-15+000399999V0201001N005010121919N009999199+01301+01101999999ADDGA1081+012191999GE19AGL   +99999+99999GF199999081999012191999999MA1101901999999MW1611REMMET062METAR ZSSS 061300Z 10005MPS 9999 -RA OVC040 13/11 Q1019 NOSIG=
0149583670999992017010613304+31198+121336FM-15+000399999V0200901N006010121919N009999199+01301+01101999999ADDGA1081+012191999GE19AGL   +99999+99999GF199999081999012191999999MA1101901999999REMMET058METAR ZSSS 061330Z 09006MPS 9999 OVC040 13/11 Q1019 NOSIG=
0159583670999992017010614004+31198+121336FM-15+000399999V0200901N006010121919N009999199+01301+01101999999ADDGA1081+012191999GE19AGL   +99999+99999GF199999081999012191999999MA1101901999999MW1611REMMET062METAR ZSSS 061400Z 09006MPS 9999 -RA OVC040 13/11 Q1019 NOSIG=
0159583670999992017010614304+31198+121336FM-15+000399999V0200901N005010121919N009999199+01201+01101999999ADDGA1081+012191999GE19AGL   +99999+99999GF199999081999012191999999MA1101901999999MW1611REMMET062METAR ZSSS 061430Z 09005MPS 9999 -RA OVC040 12/11 Q1019 NOSIG=
0159583670999992017010615004+31198+121336FM-15+000399999V0200901N006010121919N009999199+01201+01101999999ADDGA1081+012191999GE19AGL   +99999+99999GF199999081999012191999999MA1101901999999MW1611REMMET062METAR ZSSS 061500Z 09006MPS 9999 -RA OVC040 12/11 Q1019 NOSIG=
0196583670999992017010615304+31198+121336FM-15+000399999V0200901N006010121919N009999199+01201+01101999999ADDGA1041+003051999GA2081+012191999GE19AGL   +99999+99999GF199999041999003051999999MA1101801999999MW1611REMMET083METAR ZSSS 061530Z 09006MPS 9999 -RA SCT010 OVC040 12/11 Q1018 BECMG TL1640 BKN010=
0204583670999992017010616004+31198+121336FM-15+000399999V0200901V004010121919N009999199+01201+01101999999ADDGA1041+003051999GA2081+012191999GE19AGL   +99999+99999GF199999041999003051999999MA1101901999999MW1611REMMET091METAR ZSSS 061600Z 09004MPS 030V120 9999 -RA SCT010 OVC040 12/11 Q1019 BECMG TL1640 BKN010=
0182583670999992017010616304+31198+121336FM-15+000399999V0200901N005010121919N009999199+01201+01101999999ADDGA1041+003051999GA2081+012191999GE19AGL   +99999+99999GF199999041999003051999999MA1101801999999MW1611REMMET069METAR ZSSS 061630Z 09005MPS 9999 -RA SCT010 OVC040 12/11 Q1018 NOSIG=
0182583670999992017010617004+31198+121336FM-15+000399999V0200901N005010121919N009999199+01201+01101999999ADDGA1041+003051999GA2081+012191999GE19AGL   +99999+99999GF199999041999003051999999MA1101801999999MW1611REMMET069METAR ZSSS 061700Z 09005MPS 9999 -RA SCT010 OVC040 12/11 Q1018 NOSIG=
0159583670999992017010617304+31198+121336FM-15+000399999V0200901N006019999999N009999199+01201+01101999999ADDGA1041+002741999GE19AGL   +99999+99999GF199999041999002741999999MA1101701999999MW1611REMMET062METAR ZSSS 061730Z 09006MPS 9999 -RA SCT009 12/11 Q1017 NOSIG=
0167583670999992017010618004+31198+121336FM-15+000399999V0201001V005019999999N009999199+01301+01201999999ADDGA1041+002741999GE19AGL   +99999+99999GF199999041999002741999999MA1101701999999MW1611REMMET070METAR ZSSS 061800Z 10005MPS 070V130 9999 -RA SCT009 13/12 Q1017 NOSIG=
0167583670999992017010618304+31198+121336FM-15+000399999V0200901V004010024419N009999199+01301+01201999999ADDGA1071+002441999GE19AGL   +99999+99999GF199999071999002441999999MA1101701999999MW1611REMMET070METAR ZSSS 061830Z 09004MPS 040V120 9999 -RA BKN008 13/12 Q1017 NOSIG=
0159583670999992017010619004+31198+121336FM-15+000399999V0200901N005010024419N009999199+01301+01101999999ADDGA1071+002441999GE19AGL   +99999+99999GF199999071999002441999999MA1101701999999MW1611REMMET062METAR ZSSS 061900Z 09005MPS 9999 -RA BKN008 13/11 Q1017 NOSIG=
0159583670999992017010619304+31198+121336FM-15+000399999V0200801N005010024419N009999199+01301+01201999999ADDGA1071+002441999GE19AGL   +99999+99999GF199999071999002441999999MA1101601999999MW1611REMMET062METAR ZSSS 061930Z 08005MPS 9999 -RA BKN008 13/12 Q1016 NOSIG=
0173583670999992017010620004+31198+121336FM-15+000399999V0200901N007010024419N009999199+01201+01201999999ADDGA1071+002441999GE19AGL   +99999+99999GF199999071999002441999999MA1101601999999MW1611REMMET076METAR ZSSS 062000Z 09007MPS 9999 -RA BKN008 12/12 Q1016 BECMG TL2140 BKN010=
0158583670999992017010620304+31198+121336FM-15+000399999V0200901N005010024419N007000199+01201+01201999999ADDGA1071+002441999GE19AGL   +99999+99999GF199999071999002441999999MA1101601999999MW1631REMMET061METAR ZSSS 062030Z 09005MPS 7000 RA BKN008 12/12 Q1016 NOSIG=
0164583670999992017010621004+31198+121336FM-15+000399999V0200901N005010024419N009999199+01301+01201999999ADDGA1071+002441999GE19AGL   +99999+99999GF199999071999002441999999MA1101601999999MW1611REMMET067METAR ZSSS 062100Z 09005MPS 9999 -RA BKN008 13/12 Q1016 RERA NOSIG=
0167583670999992017010621304+31198+121336FM-15+000399999V0201001V004010024419N009999199+01301+01201999999ADDGA1071+002441999GE19AGL   +99999+99999GF199999071999002441999999MA1101601999999MW1611REMMET070METAR ZSSS 062130Z 10004MPS 070V130 9999 -RA BKN008 13/12 Q1016 NOSIG=
0167583670999992017010622004+31198+121336FM-15+000399999V0201001V005010024419N009999199+01301+01201999999ADDGA1071+002441999GE19AGL   +99999+99999GF199999071999002441999999MA1101601999999MW1611REMMET070METAR ZSSS 062200Z 10005MPS 070V130 9999 -RA BKN008 13/12 Q1016 NOSIG=
0173583670999992017010622304+31198+121336FM-15+000399999V0201101N006010024419N009999199+01301+01201999999ADDGA1071+002441999GE19AGL   +99999+99999GF199999071999002441999999MA1101601999999MW1611REMMET076METAR ZSSS 062230Z 11006MPS 9999 -RA BKN008 13/12 Q1016 BECMG TL2330 BKN011=
0173583670999992017010623004+31198+121336FM-15+000399999V0201101N005010024419N009999199+01301+01201999999ADDGA1071+002441999GE19AGL   +99999+99999GF199999071999002441999999MA1101501999999MW1611REMMET076METAR ZSSS 062300Z 11005MPS 9999 -RA BKN008 13/12 Q1015 BECMG TL2358 BKN011=
0149583670999992017010623304+31198+121336FM-15+000399999V0201101N006010024419N009999199+01301+01201999999ADDGA1071+002441999GE19AGL   +99999+99999GF199999071999002441999999MA1101601999999REMMET058METAR ZSSS 062330Z 11006MPS 9999 BKN008 13/12 Q1016 NOSIG=
0163583670999992017010700004+31198+121336FM-15+000399999V0201101N006010024419N009999199+01301+01201999999ADDGA1071+002441999GE19AGL   +99999+99999GF199999071999002441999999MA1101601999999REMMET072METAR ZSSS 070000Z 11006MPS 9999 BKN008 13/12 Q1016 BECMG TL0140 BKN010=
0149583670999992017010700304+31198+121336FM-15+000399999V0201101N005010024419N009999199+01301+01201999999ADDGA1071+002441999GE19AGL   +99999+99999GF199999071999002441999999MA1101601999999REMMET058METAR ZSSS 070030Z 11005MPS 9999 BKN008 13/12 Q1016 NOSIG=
0159583670999992017010701004+31198+121336FM-15+000399999V0201001N005010021319N007000199+01301+01201999999ADDGA1071+002131999GE19AGL   +99999+99999GF199999071999002131999999MA1101601999999MW1611REMMET062METAR ZSSS 070100Z 10005MPS 7000 -RA BKN007 13/12 Q1016 NOSIG=
0149583670999992017010701304+31198+121336FM-15+000399999V0201001N005010021319N007000199+01301+01201999999ADDGA1071+002131999GE19AGL   +99999+99999GF199999071999002131999999MA1101601999999REMMET058METAR ZSSS 070130Z 10005MPS 7000 BKN007 13/12 Q1016 NOSIG=
0168583670999992017010702004+31198+121336FM-15+000399999V0201101V005010021319N008000199+01301+01301999999ADDGA1071+002131999GE19AGL   +99999+99999GF199999071999002131999999MA1101601999999OC101001REMMET069METAR ZSSS 070200Z 11005G10MPS 080V160 8000 BKN007 13/13 Q1016 NOSIG=
0149583670999992017010702304+31198+121336FM-15+000399999V0201001N005010021319N007000199+01401+01301999999ADDGA1071+002131999GE19AGL   +99999+99999GF199999071999002131999999MA1101501999999REMMET058METAR ZSSS 070230Z 10005MPS 7000 BKN007 14/13 Q1015 NOSIG=
0157583670999992017010703004+31198+121336FM-15+000399999V0201101V004010018319N006000199+01301+01301999999ADDGA1071+001831999GE19AGL   +99999+99999GF199999071999001831999999MA1101501999999REMMET066METAR ZSSS 070300Z 11004MPS 090V150 6000 BKN006 13/13 Q1015 NOSIG=
0168583670999992017010703304+31198+121336FM-15+000399999V0201001N004010018319N005000199+01401+01301999999ADDGA1071+001831999GE19AGL   +99999+99999GF199999071999001831999999MA1101501999999MW1101MW2611REMMET065METAR ZSSS 070330Z 10004MPS 5000 -RA BR BKN006 14/13 Q1015 NOSIG=
0176583670999992017010704004+31198+121336FM-15+000399999V0201101V003010015219N005000199+01401+01301999999ADDGA1071+001521999GE19AGL   +99999+99999GF199999071999001521999999MA1101401999999MW1101MW2611REMMET073METAR ZSSS 070400Z 11003MPS 080V140 5000 -RA BR BKN005 14/13 Q1014 NOSIG=
0199583670999992017010704304+31198+121336FM-15+000399999V0201001V002010015219N003500199+01401+01301999999ADDGA1071+001521999GA2081+012191999GE19AGL   +99999+99999GF199999071999001521999999MA1101401999999MW1101MW2611REMMET080METAR ZSSS 070430Z 10002MPS 020V140 3500 -RA BR BKN005 OVC040 14/13 Q1014 NOSIG=
0205583670999992017010705004+31198+121336FM-15+000399999V0200601N002010015219N005000199+01401+01301999999ADDGA1071+001521999GA2081+012191999GE19AGL   +99999+99999GF199999071999001521999999MA1101301999999MW1101MW2611REMMET086METAR ZSSS 070500Z 06002MPS 5000 -RA BR BKN005 OVC040 14/13 Q1013 BECMG TL0600 BKN004=
0190583670999992017010705304+31198+121336FM-15+000399999V0200501V002010021319N007000199+01401+01301999999ADDGA1071+002131999GA2081+012191999GE19AGL   +99999+99999GF199999071999002131999999MA1101301999999MW1611REMMET077METAR ZSSS 070530Z 05002MPS 010V100 7000 -RA BKN007 OVC040 14/13 Q1013 NOSIG=
0209583670999992017010706004+31198+121336FM-15+000399999V0200501V002010021319N004200199+01401+01301999999ADDGA1071+002131999GA2081+012191999GE19AGL   +99999+99999GF199999071999002131999999MA1101301999999MW1101MW2631REMMET090METAR ZSSS 070600Z 05002MPS 030V090 4200 RA BR BKN007 OVC040 14/13 Q1013 BECMG TL0640 -RA=
0187583670999992017010706304+31198+121336FM-15+000399999V0209999V001010021319N007000199+01301+01301999999ADDGA1071+002131999GA2081+012191999GE19AGL   +99999+99999GF199999071999002131999999MA1101301999999MW1611REMMET074METAR ZSSS 070630Z VRB01MPS 7000 -RA BKN007 OVC040 13/13 Q1013 RERA NOSIG=
0197583670999992017010707004+31198+121336FM-15+000399999V0209999V001010018319N006000199+01401+01301999999ADDGA1071+001831999GA2081+012191999GE19AGL   +99999+99999GF199999071999001831999999MA1101201999999MW1611REMMET084METAR ZSSS 070700Z VRB01MPS 6000 -RA BKN006 OVC040 14/13 Q1012 RERA BECMG TL0810 RA=
0182583670999992017010707304+31198+121336FM-15+000399999V0209999V002010018319N007000199+01401+01301999999ADDGA1071+001831999GA2081+012191999GE19AGL   +99999+99999GF199999071999001831999999MA1101301999999MW1611REMMET069METAR ZSSS 070730Z VRB02MPS 7000 -RA BKN006 OVC040 14/13 Q1013 NOSIG=
0215583670999992017010708004+31198+121336FM-15+000399999V0203101N004010021319N005000199+01401+01301999999ADDGA1071+002131999GA2081+012191999GE19AGL   +99999+99999GF199999071999002131999999MA1101301999999MW1101MW2631REMMET096METAR ZSSS 070800Z 31004MPS 5000 RA BR BKN007 OVC040 14/13 Q1013 BECMG TL0840 -RA BKN010 OVC040=
0190583670999992017010708304+31198+121336FM-15+000399999V0202801N005010015219N003500199+01301+01201999999ADDGA1071+001521999GA2081+012191999GE19AGL   +99999+99999GF199999071999001521999999MA1101301999999MW1101MW2631REMMET071METAR ZSSS 070830Z 28005MPS 3500 RA BR BKN005 OVC040 13/12 Q1013 NOSIG=
0197583670999992017010709004+31198+121336FM-15+000399999V0202901N005010018319N006000199+01201+01101999999ADDGA1071+001831999GA2081+012191999GE19AGL   +99999+99999GF199999071999001831999999MA1101301999999MW1611REMMET084METAR ZSSS 070900Z 29005MPS 6000 -RA BKN006 OVC040 12/11 Q1013 RERA BECMG TL0920 RA=
0187583670999992017010709304+31198+121336FM-15+000399999V0202801N005010018319N006000199+01101+01101999999ADDGA1071+001831999GA2081+012191999GE19AGL   +99999+99999GF199999071999001831999999MA1101401999999MW1611REMMET074METAR ZSSS 070930Z 28005MPS 6000 -RA BKN006 OVC040 11/11 Q1014 RERA NOSIG=
0190583670999992017010710004+31198+121336FM-15+000399999V0202901V006010021319N008000199+01101+01101999999ADDGA1071+002131999GA2081+012191999GE19AGL   +99999+99999GF199999071999002131999999MA1101401999999MW1611REMMET077METAR ZSSS 071000Z 29006MPS 260V320 8000 -RA BKN007 OVC040 11/11 Q1014 NOSIG=
0182583670999992017010710304+31198+121336FM-15+000399999V0202901N006010021319N009999199+01101+01001999999ADDGA1071+002131999GA2081+012191999GE19AGL   +99999+99999GF199999071999002131999999MA1101401999999MW1611REMMET069METAR ZSSS 071030Z 29006MPS 9999 -RA BKN007 OVC040 11/10 Q1014 NOSIG=
0203583670999992017010711004+31198+121336FM-15+000399999V0202801N006010024419N009999199+01101+01001999999ADDGA1071+002441999GA2081+012191999GE19AGL   +99999+99999GF199999071999002441999999MA1101501999999MW1611REMMET090METAR ZSSS 071100Z 28006MPS 9999 -RA BKN008 OVC040 11/10 Q1015 BECMG TL1230 BKN010 OVC040=
0182583670999992017010711304+31198+121336FM-15+000399999V0202901N006010024419N009999199+01001+00901999999ADDGA1071+002441999GA2081+012191999GE19AGL   +99999+99999GF199999071999002441999999MA1101501999999MW1611REMMET069METAR ZSSS 071130Z 29006MPS 9999 -RA BKN008 OVC040 10/09 Q1015 NOSIG=
0203583670999992017010712004+31198+121336FM-15+000399999V0202801N006010024419N009999199+01001+00901999999ADDGA1071+002441999GA2081+012191999GE19AGL   +99999+99999GF199999071999002441999999MA1101501999999MW1611REMMET090METAR ZSSS 071200Z 28006MPS 9999 -RA BKN008 OVC040 10/09 Q1015 BECMG TL1300 BKN010 OVC040=
0172583670999992017010712304+31198+121336FM-15+000399999V0202901N005010030519N009999199+01001+00901999999ADDGA1071+003051999GA2081+012191999GE19AGL   +99999+99999GF199999071999003051999999MA1101601999999REMMET065METAR ZSSS 071230Z 29005MPS 9999 BKN010 OVC040 10/09 Q1016 NOSIG=
0172583670999992017010713004+31198+121336FM-15+000399999V0203001N006010030519N009999199+01001+00901999999ADDGA1071+003051999GA2081+012191999GE19AGL   +99999+99999GF199999071999003051999999MA1101601999999REMMET065METAR ZSSS 071300Z 30006MPS 9999 BKN010 OVC040 10/09 Q1016 NOSIG=
0172583670999992017010713304+31198+121336FM-15+000399999V0203001N007010030519N009999199+00901+00801999999ADDGA1071+003051999GA2081+012191999GE19AGL   +99999+99999GF199999071999003051999999MA1101601999999REMMET065METAR ZSSS 071330Z 30007MPS 9999 BKN010 OVC040 09/08 Q1016 NOSIG=
0172583670999992017010714004+31198+121336FM-15+000399999V0202901N006010030519N009999199+00901+00801999999ADDGA1071+003051999GA2081+012191999GE19AGL   +99999+99999GF199999071999003051999999MA1101601999999REMMET065METAR ZSSS 071400Z 29006MPS 9999 BKN010 OVC040 09/08 Q1016 NOSIG=
0172583670999992017010714304+31198+121336FM-15+000399999V0203001N007010030519N009999199+00901+00801999999ADDGA1071+003051999GA2081+012191999GE19AGL   +99999+99999GF199999071999003051999999MA1101601999999REMMET065METAR ZSSS 071430Z 30007MPS 9999 BKN010 OVC040 09/08 Q1016 NOSIG=
0172583670999992017010715004+31198+121336FM-15+000399999V0202901N006010021319N009999199+00901+00801999999ADDGA1071+002131999GA2081+012191999GE19AGL   +99999+99999GF199999071999002131999999MA1101601999999REMMET065METAR ZSSS 071500Z 29006MPS 9999 BKN007 OVC040 09/08 Q1016 NOSIG=
0172583670999992017010715304+31198+121336FM-15+000399999V0202801N005010027419N009999199+00901+00701999999ADDGA1071+002741999GA2081+012191999GE19AGL   +99999+99999GF199999071999002741999999MA1101601999999REMMET065METAR ZSSS 071530Z 28005MPS 9999 BKN009 OVC040 09/07 Q1016 NOSIG=
0186583670999992017010716004+31198+121336FM-15+000399999V0203001N007010027419N009999199+00901+00701999999ADDGA1071+002741999GA2081+012191999GE19AGL   +99999+99999GF199999071999002741999999MA1101601999999REMMET079METAR ZSSS 071600Z 30007MPS 9999 BKN009 OVC040 09/07 Q1016 BECMG TL1640 BKN010=
0172583670999992017010716304+31198+121336FM-15+000399999V0203001N007010030519N009999199+00901+00701999999ADDGA1071+003051999GA2081+012191999GE19AGL   +99999+99999GF199999071999003051999999MA1101601999999REMMET065METAR ZSSS 071630Z 30007MPS 9999 BKN010 OVC040 09/07 Q1016 NOSIG=
0172583670999992017010717004+31198+121336FM-15+000399999V0202801N007010030519N009999199+00801+00701999999ADDGA1071+003051999GA2081+012191999GE19AGL   +99999+99999GF199999071999003051999999MA1101601999999REMMET065METAR ZSSS 071700Z 28007MPS 9999 BKN010 OVC040 08/07 Q1016 NOSIG=
0172583670999992017010717304+31198+121336FM-15+000399999V0202901N008010030519N009999199+00801+00701999999ADDGA1071+003051999GA2081+012191999GE19AGL   +99999+99999GF199999071999003051999999MA1101601999999REMMET065METAR ZSSS 071730Z 29008MPS 9999 BKN010 OVC040 08/07 Q1016 NOSIG=
0194583670999992017010718004+31198+121336FM-15+000399999V0202901V007010030519N009999199+00801+00701999999ADDGA1071+003051999GA2081+012191999GE19AGL   +99999+99999GF199999071999003051999999MA1101601999999REMMET087METAR ZSSS 071800Z 29007MPS 260V320 9999 BKN010 OVC040 08/07 Q1016 BECMG TL1840 BKN009=
0172583670999992017010718304+31198+121336FM-15+000399999V0202901N006010027419N009999199+00801+00701999999ADDGA1071+002741999GA2081+012191999GE19AGL   +99999+99999GF199999071999002741999999MA1101601999999REMMET065METAR ZSSS 071830Z 29006MPS 9999 BKN009 OVC040 08/07 Q1016 NOSIG=
0193583670999992017010719004+31198+121336FM-15+000399999V0202901N007010027419N008000199+00801+00601999999ADDGA1071+002741999GA2081+012191999GE19AGL   +99999+99999GF199999071999002741999999MA1101601999999REMMET086METAR ZSSS 071900Z 29007MPS 8000 BKN009 OVC040 08/06 Q1016 BECMG TL2030 BKN011 OVC040=
0172583670999992017010719304+31198+121336FM-15+000399999V0202801N007010030519N007000199+00801+00601999999ADDGA1071+003051999GA2081+012191999GE19AGL   +99999+99999GF199999071999003051999999MA1101601999999REMMET065METAR ZSSS 071930Z 28007MPS 7000 BKN010 OVC040 08/06 Q1016 NOSIG=
0172583670999992017010720004+31198+121336FM-15+000399999V0202801N006010030519N007000199+00801+00601999999ADDGA1071+003051999GA2081+012191999GE19AGL   +99999+99999GF199999071999003051999999MA1101601999999REMMET065METAR ZSSS 072000Z 28006MPS 7000 BKN010 OVC040 08/06 Q1016 NOSIG=
0172583670999992017010720304+31198+121336FM-15+000399999V0202901N007010030519N006000199+00801+00601999999ADDGA1071+003051999GA2081+012191999GE19AGL   +99999+99999GF199999071999003051999999MA1101601999999REMMET065METAR ZSSS 072030Z 29007MPS 6000 BKN010 OVC040 08/06 Q1016 NOSIG=
0172583670999992017010721004+31198+121336FM-15+000399999V0202901N006010030519N006000199+00801+00601999999ADDGA1071+003051999GA2081+012191999GE19AGL   +99999+99999GF199999071999003051999999MA1101701999999REMMET065METAR ZSSS 072100Z 29006MPS 6000 BKN010 OVC040 08/06 Q1017 NOSIG=
0181583670999992017010721304+31198+121336FM-15+000399999V0202901N006010030519N005000199+00801+00601999999ADDGA1071+003051999GA2081+012191999GE19AGL   +99999+99999GF199999071999003051999999MA1101701999999MW1101REMMET068METAR ZSSS 072130Z 29006MPS 5000 BR BKN010 OVC040 08/06 Q1017 NOSIG=
0181583670999992017010722004+31198+121336FM-15+000399999V0202901N006010030519N005000199+00801+00601999999ADDGA1071+003051999GA2081+012191999GE19AGL   +99999+99999GF199999071999003051999999MA1101701999999MW1101REMMET068METAR ZSSS 072200Z 29006MPS 5000 BR BKN010 OVC040 08/06 Q1017 NOSIG=
0181583670999992017010722304+31198+121336FM-15+000399999V0203001N008010030519N005000199+00801+00601999999ADDGA1071+003051999GA2081+012191999GE19AGL   +99999+99999GF199999071999003051999999MA1101701999999MW1101REMMET068METAR ZSSS 072230Z 30008MPS 5000 BR BKN010 OVC040 08/06 Q1017 NOSIG=
0192583670999992017010723004+31198+121336FM-15+000399999V0203101N007010030519N003500199+00801+00601999999ADDGA1071+003051999GA2081+012191999GE19AGL   +99999+99999GF199999071999003051999999MA1101801999999MW1101OC101201REMMET071METAR ZSSS 072300Z 31007G12MPS 3500 BR BKN010 OVC040 08/06 Q1018 NOSIG=
0181583670999992017010723304+31198+121336FM-15+000399999V0202901N006010030519N003200199+00801+00601999999ADDGA1071+003051999GA2081+012191999GE19AGL   +99999+99999GF199999071999003051999999MA1101801999999MW1101REMMET068METAR ZSSS 072330Z 29006MPS 3200 BR BKN010 OVC040 08/06 Q1018 NOSIG=
0210583670999992017010800004+31198+121336FM-15+000399999V0203001V006010027419N003000199+00801+00601999999ADDGA1071+002741999GA2081+012191999GE19AGL   +99999+99999GF199999071999002741999999MA1101801999999MW1101REMMET097METAR ZSSS 080000Z 30006MPS 270V330 3000 BR BKN009 OVC040 08/06 Q1018 BECMG TL0130 BKN011 OVC040=
0189583670999992017010800304+31198+121336FM-15+000399999V0202901V005010027419N002600199+00801+00601999999ADDGA1071+002741999GA2081+012191999GE19AGL   +99999+99999GF199999071999002741999999MA1101901999999MW1101REMMET076METAR ZSSS 080030Z 29005MPS 250V320 2600 BR BKN009 OVC040 08/06 Q1019 NOSIG=
0211583670999992017010801004+31198+121336FM-15+000399999V0202901V005010027419N002800199+00801+00601999999ADDGA1071+002741999GA2081+012191999GE19AGL   +99999+99999GF199999071999002741999999MA1101901999999MW1101REMMET098METAR ZSSS 080100Z 29005MPS 250V320 2800 BR BKN009 OVC040 08/06 Q1019 BECMG TL0240 3000 BR BKN010=
0181583670999992017010801304+31198+121336FM-15+000399999V0203001N007010030519N002800199+00801+00601999999ADDGA1071+003051999GA2081+012191999GE19AGL   +99999+99999GF199999071999003051999999MA1101901999999MW1101REMMET068METAR ZSSS 080130Z 30007MPS 2800 BR BKN010 OVC040 08/06 Q1019 NOSIG=
0203583670999992017010802004+31198+121336FM-15+000399999V0202901N007010027419N002600199+00801+00601999999ADDGA1071+002741999GA2081+012191999GE19AGL   +99999+99999GF199999071999002741999999MA1101901999999MW1101REMMET090METAR ZSSS 080200Z 29007MPS 2600 BR BKN009 OVC040 08/06 Q1019 BECMG TL0340 3000 BR BKN010=
0181583670999992017010802304+31198+121336FM-15+000399999V0203001N006010027419N002600199+00801+00601999999ADDGA1071+002741999GA2081+012191999GE19AGL   +99999+99999GF199999071999002741999999MA1101901999999MW1101REMMET068METAR ZSSS 080230Z 30006MPS 2600 BR BKN009 OVC040 08/06 Q1019 NOSIG=
0189583670999992017010803004+31198+121336FM-15+000399999V0202901V005010027419N002500199+00801+00601999999ADDGA1071+002741999GA2081+012191999GE19AGL   +99999+99999GF199999071999002741999999MA1101901999999MW1101REMMET076METAR ZSSS 080300Z 29005MPS 260V320 2500 BR BKN009 OVC040 08/06 Q1019 NOSIG=
0181583670999992017010803304+31198+121336FM-15+000399999V0203001N007010027419N002500199+00801+00601999999ADDGA1071+002741999GA2081+012191999GE19AGL   +99999+99999GF199999071999002741999999MA1101801999999MW1101REMMET068METAR ZSSS 080330Z 30007MPS 2500 BR BKN009 OVC040 08/06 Q1018 NOSIG=
0181583670999992017010804004+31198+121336FM-15+000399999V0202901N006010027419N002300199+00801+00601999999ADDGA1071+002741999GA2081+012191999GE19AGL   +99999+99999GF199999071999002741999999MA1101801999999MW1101REMMET068METAR ZSSS 080400Z 29006MPS 2300 BR BKN009 OVC040 08/06 Q1018 NOSIG=
0189583670999992017010804304+31198+121336FM-15+000399999V0203001V006010027419N002500199+00801+00601999999ADDGA1071+002741999GA2081+012191999GE19AGL   +99999+99999GF199999071999002741999999MA1101801999999MW1101REMMET076METAR ZSSS 080430Z 30006MPS 270V330 2500 BR BKN009 OVC040 08/06 Q1018 NOSIG=
0181583670999992017010805004+31198+121336FM-15+000399999V0202801N006010027419N002200199+00801+00601999999ADDGA1071+002741999GA2081+012191999GE19AGL   +99999+99999GF199999071999002741999999MA1101701999999MW1101REMMET068METAR ZSSS 080500Z 28006MPS 2200 BR BKN009 OVC040 08/06 Q1017 NOSIG=
0189583670999992017010805304+31198+121336FM-15+000399999V0202901V004010027419N002200199+00801+00601999999ADDGA1071+002741999GA2081+012191999GE19AGL   +99999+99999GF199999071999002741999999MA1101701999999MW1101REMMET076METAR ZSSS 080530Z 29004MPS 230V310 2200 BR BKN009 OVC040 08/06 Q1017 NOSIG=
0181583670999992017010806004+31198+121336FM-15+000399999V0202901N007010027419N002200199+00801+00601999999ADDGA1071+002741999GA2081+012191999GE19AGL   +99999+99999GF199999071999002741999999MA1101701999999MW1101REMMET068METAR ZSSS 080600Z 29007MPS 2200 BR BKN009 OVC040 08/06 Q1017 NOSIG=
0189583670999992017010806304+31198+121336FM-15+000399999V0202901V006010027419N002500199+00801+00601999999ADDGA1071+002741999GA2081+012191999GE19AGL   +99999+99999GF199999071999002741999999MA1101701999999MW1101REMMET076METAR ZSSS 080630Z 29006MPS 240V330 2500 BR BKN009 OVC040 08/06 Q1017 NOSIG=
0189583670999992017010807004+31198+121336FM-15+000399999V0202901V006010027419N002000199+00801+00601999999ADDGA1071+002741999GA2081+012191999GE19AGL   +99999+99999GF199999071999002741999999MA1101701999999MW1101REMMET076METAR ZSSS 080700Z 29006MPS 250V320 2000 BR BKN009 OVC040 08/06 Q1017 NOSIG=
0181583670999992017010807304+31198+121336FM-15+000399999V0203001N007010027419N002000199+00801+00601999999ADDGA1071+002741999GA2081+012191999GE19AGL   +99999+99999GF199999071999002741999999MA1101801999999MW1101REMMET068METAR ZSSS 080730Z 30007MPS 2000 BR BKN009 OVC040 08/06 Q1018 NOSIG=
0181583670999992017010808004+31198+121336FM-15+000399999V0203101N007010033519N002500199+00801+00601999999ADDGA1071+003351999GA2081+012191999GE19AGL   +99999+99999GF199999071999003351999999MA1101801999999MW1101REMMET068METAR ZSSS 080800Z 31007MPS 2500 BR BKN011 OVC040 08/06 Q1018 NOSIG=
0181583670999992017010808304+31198+121336FM-15+000399999V0203001N006010033519N002500199+00801+00601999999ADDGA1071+003351999GA2081+012191999GE19AGL   +99999+99999GF199999071999003351999999MA1101801999999MW1101REMMET068METAR ZSSS 080830Z 30006MPS 2500 BR BKN011 OVC040 08/06 Q1018 NOSIG=
0196583670999992017010809004+31198+121336FM-15+000399999V0202901N006010033519N002500199+00801+00601999999ADDGA1071+003351999GA2081+012191999GE19AGL   +99999+99999GF199999071999003351999999MA1101801999999MW1101REMMET083METAR ZSSS 080900Z 29006MPS 2500 BR BKN011 OVC040 08/06 Q1018 BECMG TL1030 3000 BR=
0181583670999992017010809304+31198+121336FM-15+000399999V0203001N007010033519N002800199+00801+00601999999ADDGA1071+003351999GA2081+012191999GE19AGL   +99999+99999GF199999071999003351999999MA1101901999999MW1101REMMET068METAR ZSSS 080930Z 30007MPS 2800 BR BKN011 OVC040 08/06 Q1019 NOSIG=
0181583670999992017010810004+31198+121336FM-15+000399999V0203001N007010033519N003000199+00801+00601999999ADDGA1071+003351999GA2081+012191999GE19AGL   +99999+99999GF199999071999003351999999MA1101901999999MW1101REMMET068METAR ZSSS 081000Z 30007MPS 3000 BR BKN011 OVC040 08/06 Q1019 NOSIG=
0191583670999992017010810304+31198+121336FM-15+000399999V0203001N007010033519N003300199+00801+00601999999ADDGA1071+003351999GA2081+012191999GE19AGL   +99999+99999GF199999071999003351999999MA1101901999999MW1101MW2611REMMET072METAR ZSSS 081030Z 30007MPS 3300 -RA BR BKN011 OVC040 08/06 Q1019 NOSIG=
0199583670999992017010811004+31198+121336FM-15+000399999V0203001V007010033519N004000199+00801+00501999999ADDGA1071+003351999GA2081+012191999GE19AGL   +99999+99999GF199999071999003351999999MA1102001999999MW1101MW2611REMMET080METAR ZSSS 081100Z 30007MPS 270V330 4000 -RA BR BKN011 OVC040 08/05 Q1020 NOSIG=
0191583670999992017010811304+31198+121336FM-15+000399999V0203101N007010027419N004000199+00701+00501999999ADDGA1071+002741999GA2081+012191999GE19AGL   +99999+99999GF199999071999002741999999MA1102001999999MW1101MW2611REMMET072METAR ZSSS 081130Z 31007MPS 4000 -RA BR BKN009 OVC040 07/05 Q1020 NOSIG=
0191583670999992017010812004+31198+121336FM-15+000399999V0203001N007010027419N004000199+00701+00501999999ADDGA1071+002741999GA2081+012191999GE19AGL   +99999+99999GF199999071999002741999999MA1102001999999MW1101MW2611REMMET072METAR ZSSS 081200Z 30007MPS 4000 -RA BR BKN009 OVC040 07/05 Q1020 NOSIG=
0191583670999992017010812304+31198+121336FM-15+000399999V0203101N005010024419N003500199+00701+00601999999ADDGA1071+002441999GA2081+012191999GE19AGL   +99999+99999GF199999071999002441999999MA1102101999999MW1101MW2611REMMET072METAR ZSSS 081230Z 31005MPS 3500 -RA BR BKN008 OVC040 07/06 Q1021 NOSIG=
0191583670999992017010813004+31198+121336FM-15+000399999V0203101N006010021319N003500199+00701+00601999999ADDGA1071+002131999GA2081+012191999GE19AGL   +99999+99999GF199999071999002131999999MA1102101999999MW1101MW2611REMMET072METAR ZSSS 081300Z 31006MPS 3500 -RA BR BKN007 OVC040 07/06 Q1021 NOSIG=
0191583670999992017010813304+31198+121336FM-15+000399999V0203201N006010021319N004000199+00701+00601999999ADDGA1071+002131999GA2081+012191999GE19AGL   +99999+99999GF199999071999002131999999MA1102101999999MW1101MW2611REMMET072METAR ZSSS 081330Z 32006MPS 4000 -RA BR BKN007 OVC040 07/06 Q1021 NOSIG=
0191583670999992017010814004+31198+121336FM-15+000399999V0203101N006010021319N004500199+00701+00601999999ADDGA1071+002131999GA2081+012191999GE19AGL   +99999+99999GF199999071999002131999999MA1102101999999MW1101MW2611REMMET072METAR ZSSS 081400Z 31006MPS 4500 -RA BR BKN007 OVC040 07/06 Q1021 NOSIG=
0191583670999992017010814304+31198+121336FM-15+000399999V0203101N006010024419N005000199+00701+00601999999ADDGA1071+002441999GA2081+012191999GE19AGL   +99999+99999GF199999071999002441999999MA1102101999999MW1101MW2611REMMET072METAR ZSSS 081430Z 31006MPS 5000 -RA BR BKN008 OVC040 07/06 Q1021 NOSIG=
0191583670999992017010815004+31198+121336FM-15+000399999V0203101N006010024419N005000199+00701+00601999999ADDGA1071+002441999GA2081+012191999GE19AGL   +99999+99999GF199999071999002441999999MA1102101999999MW1101MW2611REMMET072METAR ZSSS 081500Z 31006MPS 5000 -RA BR BKN008 OVC040 07/06 Q1021 NOSIG=
0212583670999992017010815304+31198+121336FM-15+000399999V0203201N004010027419N004500199+00701+00601999999ADDGA1071+002741999GA2081+012191999GE19AGL   +99999+99999GF199999071999002741999999MA1102201999999MW1101MW2611REMMET093METAR ZSSS 081530Z 32004MPS 4500 -RA BR BKN009 OVC040 07/06 Q1022 BECMG TL1710 BKN010 OVC040=
0181583670999992017010816004+31198+121336FM-15+000399999V0203101N006010030519N005000199+00701+00501999999ADDGA1071+003051999GA2081+012191999GE19AGL   +99999+99999GF199999071999003051999999MA1102201999999MW1101REMMET068METAR ZSSS 081600Z 31006MPS 5000 BR BKN010 OVC040 07/05 Q1022 NOSIG=
0181583670999992017010816304+31198+121336FM-15+000399999V0203201N006010036619N004000199+00701+00501999999ADDGA1071+003661999GA2081+012191999GE19AGL   +99999+99999GF199999071999003661999999MA1102201999999MW1101REMMET068METAR ZSSS 081630Z 32006MPS 4000 BR BKN012 OVC040 07/05 Q1022 NOSIG=
0181583670999992017010817004+31198+121336FM-15+000399999V0203201N005010042719N004000199+00701+00401999999ADDGA1071+004271999GA2081+012191999GE19AGL   +99999+99999GF199999071999004271999999MA1102201999999MW1101REMMET068METAR ZSSS 081700Z 32005MPS 4000 BR BKN014 OVC040 07/04 Q1022 NOSIG=
0172583670999992017010817304+31198+121336FM-15+000399999V0203101N007010121919N006000199+00601+00301999999ADDGA1021+004881999GA2071+012191999GE19AGL   +99999+99999GF199999021999004881999999MA1102201999999REMMET065METAR ZSSS 081730Z 31007MPS 6000 FEW016 BKN040 06/03 Q1022 NOSIG=
0149583670999992017010818004+31198+121336FM-15+000399999V0203101N005010121919N006000199+00601+00301999999ADDGA1071+012191999GE19AGL   +99999+99999GF199999071999012191999999MA1102201999999REMMET058METAR ZSSS 081800Z 31005MPS 6000 BKN040 06/03 Q1022 NOSIG=
0149583670999992017010818304+31198+121336FM-15+000399999V0203101N007010100619N007000199+00601+00101999999ADDGA1071+010061999GE19AGL   +99999+99999GF199999071999010061999999MA1102301999999REMMET058METAR ZSSS 081830Z 31007MPS 7000 BKN033 06/01 Q1023 NOSIG=
0149583670999992017010819004+31198+121336FM-15+000399999V0203101N007010100619N007000199+00601+00101999999ADDGA1071+010061999GE19AGL   +99999+99999GF199999071999010061999999MA1102301999999REMMET058METAR ZSSS 081900Z 31007MPS 7000 BKN033 06/01 Q1023 NOSIG=
0149583670999992017010819304+31198+121336FM-15+000399999V0203101N007010100619N007000199+00601+00101999999ADDGA1071+010061999GE19AGL   +99999+99999GF199999071999010061999999MA1102301999999REMMET058METAR ZSSS 081930Z 31007MPS 7000 BKN033 06/01 Q1023 NOSIG=
0149583670999992017010820004+31198+121336FM-15+000399999V0203201N007010100619N007000199+00501+00001999999ADDGA1071+010061999GE19AGL   +99999+99999GF199999071999010061999999MA1102301999999REMMET058METAR ZSSS 082000Z 32007MPS 7000 BKN033 05/00 Q1023 NOSIG=
0149583670999992017010820304+31198+121336FM-15+000399999V0203401N006010091419N007000199+00501+00001999999ADDGA1071+009141999GE19AGL   +99999+99999GF199999071999009141999999MA1102301999999REMMET058METAR ZSSS 082030Z 34006MPS 7000 BKN030 05/00 Q1023 NOSIG=
0149583670999992017010821004+31198+121336FM-15+000399999V0203301N004010091419N007000199+00501+00001999999ADDGA1071+009141999GE19AGL   +99999+99999GF199999071999009141999999MA1102401999999REMMET058METAR ZSSS 082100Z 33004MPS 7000 BKN030 05/00 Q1024 NOSIG=
0149583670999992017010821304+31198+121336FM-15+000399999V0203401N004010100619N007000199+00501+00001999999ADDGA1071+010061999GE19AGL   +99999+99999GF199999071999010061999999MA1102401999999REMMET058METAR ZSSS 082130Z 34004MPS 7000 BKN033 05/00 Q1024 NOSIG=
0149583670999992017010822004+31198+121336FM-15+000399999V0203401N004010100619N007000199+00501+00001999999ADDGA1071+010061999GE19AGL   +99999+99999GF199999071999010061999999MA1102401999999REMMET058METAR ZSSS 082200Z 34004MPS 7000 BKN033 05/00 Q1024 NOSIG=
0149583670999992017010822304+31198+121336FM-15+000399999V0203501N004010091419N007000199+00501+00101999999ADDGA1071+009141999GE19AGL   +99999+99999GF199999071999009141999999MA1102401999999REMMET058METAR ZSSS 082230Z 35004MPS 7000 BKN030 05/01 Q1024 NOSIG=
0150583670999992017010823004+31198+121336FM-15+000399999V0203501N006010100619N007000199+00501+00001999999ADDGA1071+010061999GE19AGL   +99999+99999GF199999071999010061999999MA1102401999999REMMET059METAR ZSSS 082300Z 35006MPS 7000 BKN033 05/M00 Q1024 NOSIG=
0150583670999992017010823304+31198+121336FM-15+000399999V0203501N005010100619N007000199+00501+00001999999ADDGA1071+010061999GE19AGL   +99999+99999GF199999071999010061999999MA1102501999999REMMET059METAR ZSSS 082330Z 35005MPS 7000 BKN033 05/M00 Q1025 NOSIG=
0150583670999992017010900004+31198+121336FM-15+000399999V0203401N005010100619N008000199+00501+00001999999ADDGA1071+010061999GE19AGL   +99999+99999GF199999071999010061999999MA1102501999999REMMET059METAR ZSSS 090000Z 34005MPS 8000 BKN033 05/M00 Q1025 NOSIG=
0150583670999992017010900304+31198+121336FM-15+000399999V0203401N005010100619N008000199+00501+00001999999ADDGA1071+010061999GE19AGL   +99999+99999GF199999071999010061999999MA1102501999999REMMET059METAR ZSSS 090030Z 34005MPS 8000 BKN033 05/M00 Q1025 NOSIG=
0157583670999992017010901004+31198+121336FM-15+000399999V0203401V004010100619N008000199+00601+00001999999ADDGA1071+010061999GE19AGL   +99999+99999GF199999071999010061999999MA1102501999999REMMET066METAR ZSSS 090100Z 34004MPS 290V010 8000 BKN033 06/00 Q1025 NOSIG=
0149583670999992017010901304+31198+121336FM-15+000399999V0203501N005010100619N008000199+00701+00001999999ADDGA1071+010061999GE19AGL   +99999+99999GF199999071999010061999999MA1102601999999REMMET058METAR ZSSS 090130Z 35005MPS 8000 BKN033 07/00 Q1026 NOSIG=
