0118712230999992017010100004+51933-110700FM-12+077299999V0203101N004619999999N999999999-01241-01391999999ADDAA106000091AA224000091KA1120M-00361KA2120N-01241REMSYN05871223 16/// /3109 11124 21139 60001 333 11036 21124 70000=
0058712230999992017010100004+51930-110720SAO  +077299999V020310190046199999999999999999-01241-01391999999REMAWY049XCS SA 0000 AUTO8 M M M M/-12/-14/3109/M/ M 49MM=
0058712230999992017010101004+51930-110720SAO  +077299999V020330190041199999999999999999-01201-01321999999REMAWY049XCS SA 0100 AUTO8 M M M M/-12/-13/3308/M/ M 02MM=
0058712230999992017010102004+51930-110720SAO  +077299999V020320190026199999999999999999-01331-01431999999REMAWY049XCS SA 0200 AUTO8 M M M M/-13/-14/3205/M/ M 33MM=
0063712230999992017010103004+51933-110700FM-12+077299999V0203201N002619999999N999999999-01391-01531999999ADDAA103000091REMSYN04071223 26/// /3205 11139 21153 333 60007=
0058712230999992017010103004+51930-110720SAO  +077299999V020320190026199999999999999999-01391-01531999999REMAWY049XCS SA 0300 AUTO8 M M M M/-14/-15/3205/M/ M 93MM=
0058712230999992017010104004+51930-110720SAO  +077299999V020350190026199999999999999999-01271-01401999999REMAWY049XCS SA 0400 AUTO8 M M M M/-13/-14/3505/M/ M 70MM=
0058712230999992017010105004+51930-110720SAO  +077299999V020010190036199999999999999999-01211-01351999999REMAWY049XCS SA 0500 AUTO8 M M M M/-12/-14/0107/M/ M 15MM=
0134712230999992017010106004+51933-110700FM-12+077299999V0200201N005119999999N999999999-01261-01411999999ADDAA106000091AA224000091KA1240M-00331KA2240N-01401REMSYN07471223 16/// /0210 11126 21141 60001 333 11033 21140 70000 555 33128 40121=
0058712230999992017010106004+51930-110720SAO  +077299999V020020190051199999999999999999-01261-01411999999REMAWY049XCS SA 0600 AUTO8 M M M M/-13/-14/0210/M/ M 61MM=
0058712230999992017010107004+51930-110720SAO  +077299999V020360190041199999999999999999-01291-01351999999REMAWY049XCS SA 0700 AUTO8 M M M M/-13/-14/3608/M/ M 95MM=
0058712230999992017010108004+51930-110720SAO  +077299999V020030190031199999999999999999-01291-01351999999REMAWY049XCS SA 0800 AUTO8 M M M M/-13/-14/0306/M/ M 95MM=
0063712230999992017010109004+51933-110700FM-12+077299999V0200301N002119999999N999999999-01351-01511999999ADDAA103000091REMSYN04071223 26/// /0304 11135 21151 333 60007=
0058712230999992017010109004+51930-110720SAO  +077299999V020030190021199999999999999999-01341-01511999999REMAWY049XCS SA 0900 AUTO8 M M M M/-13/-15/0304/M/ M 41MM=
0058712230999992017010110004+51930-110720SAO  +077299999V020010190036199999999999999999-01451-01631999999REMAWY049XCS SA 1000 AUTO8 M M M M/-15/-16/0107/M/ M 53MM=
0058712230999992017010111004+51930-110720SAO  +077299999V020330190026199999999999999999-01671-01841999999REMAWY049XCS SA 1100 AUTO8 M M M M/-17/-18/3305/M/ M 74MM=
0118712230999992017010112004+51933-110700FM-12+077299999V0203101N002619999999N999999999-01751-01921999999ADDAA106000091AA224000091KA1240M-00331KA2240N-01791REMSYN05871223 16/// /3105 11175 21192 60001 333 11033 21179 70000=
0058712230999992017010112004+51930-110720SAO  +077299999V020310190026199999999999999999-01751-01921999999REMAWY049XCS SA 1200 AUTO8 M M M M/-18/-19/3105/M/ M 52MM=
0095712230999992017010113004+51930-110720SAO  +077299999V020330190062199999999999999999-01401-01531999999ADDAA101001031REMAWY072XCS SA 1300 AUTO8 M M M M/-14/-15/3312/M/0010 PCPN 1.0MM PAST HR M 03MM=
0097712230999992017010114004+51930-110720SAO  +077299999V020330190046199999999999999999-01261-01421999999ADDOD130100871330REMAWY071XCS SA 1400 AUTO8 M M M M/-13/-14/3309/M/0010 PK WND 3317 1320Z M 62MM=
0063712230999992017010115004+51933-110700FM-12+077299999V0203101N003119999999N999999999-01221-01401999999ADDAA103001031REMSYN04071223 26/// /3106 11122 21140 333 60017=
0062712230999992017010115004+51930-110720SAO  +077299999V020310190031199999999999999999-01221-01401999999REMAWY053XCS SA 1500 AUTO8 M M M M/-12/-14/3106/M/0010 M 20MM=
0062712230999992017010116004+51930-110720SAO  +077299999V020290190031199999999999999999-01211-01381999999REMAWY053XCS SA 1600 AUTO8 M M M M/-12/-14/2906/M/0010 M 18MM=
0097712230999992017010117004+51930-110720SAO  +077299999V020330190051199999999999999999-01121-01371999999ADDOD130100871330REMAWY071XCS SA 1700 AUTO8 M M M M/-11/-14/3310/M/0010 PK WND 3317 1636Z M 27MM=
0118712230999992017010118004+51933-110700FM-12+077299999V0203101N004619999999N999999999-01181-01431999999ADDAA106001031AA224001031KA1120M-01121KA2120N-01791REMSYN05871223 16/// /3109 11118 21143 60011 333 11112 21179 70010=
0062712230999992017010118004+51930-110720SAO  +077299999V020310190046199999999999999999-01181-01431999999REMAWY053XCS SA 1800 AUTO8 M M M M/-12/-14/3109/M/0010 M 83MM=
0058712230999992017010119004+51930-110720SAO  +077299999V020300190046199999999999999999-01121-01401999999REMAWY049XCS SA 1900 AUTO8 M M M M/-11/-14/3009/M/ M 20MM=
0058712230999992017010120004+51930-110720SAO  +077299999V020310190057199999999999999999-01081-01401999999REMAWY049XCS SA 2000 AUTO8 M M M M/-11/-14/3111/M/ M 80MM=
0063712230999992017010121004+51933-110700FM-12+077299999V0203401N006719999999N999999999-01051-01431999999ADDAA103000091REMSYN04071223 26/// /3413 11105 21143 333 60007=
0093712230999992017010121004+51930-110720SAO  +077299999V020340190067199999999999999999-00951-01431999999ADDOD130100871330REMAWY067XCS SA 2100 AUTO8 M M M M/-10/-14/3413/M/ PK WND 3317 2047Z M 53MM=
0058712230999992017010122004+51930-110720SAO  +077299999V020320190051199999999999999999-01151-01541999999REMAWY049XCS SA 2200 AUTO8 M M M M/-12/-15/3210/M/ M 54MM=
0058712230999992017010123004+51930-110720SAO  +077299999V020300190036199999999999999999-01511-01821999999REMAWY049XCS SA 2300 AUTO8 M M M M/-15/-18/3007/M/ M 12MM=
0118712230999992017010200004+51933-110700FM-12+077299999V0202901N003619999999N999999999-01531-01791999999ADDAA106000091AA224001031KA1120M-00981KA2120N-01791REMSYN05871223 16/// /2907 11153 21179 60001 333 11098 21179 70010=
0058712230999992017010200004+51930-110720SAO  +077299999V020290190036199999999999999999-01531-01791999999REMAWY049XCS SA 0000 AUTO8 M M M M/-15/-18/2907/M/ M 39MM=
0058712230999992017010201004+51930-110720SAO  +077299999V020300190031199999999999999999-01421-01621999999REMAWY049XCS SA 0100 AUTO8 M M M M/-14/-16/3006/M/ M 22MM=
0058712230999992017010202004+51930-110720SAO  +077299999V020290190026199999999999999999-01571-01801999999REMAWY049XCS SA 0200 AUTO8 M M M M/-16/-18/2905/M/ M 70MM=
0063712230999992017010203004+51933-110700FM-12+077299999V0202901N003119999999N999999999-01721-01901999999ADDAA103000091REMSYN04071223 26/// /2906 11172 21190 333 60007=
0058712230999992017010203004+51930-110720SAO  +077299999V020290190031199999999999999999-01721-01901999999REMAWY049XCS SA 0300 AUTO8 M M M M/-17/-19/2906/M/ M 20MM=
0058712230999992017010204004+51930-110720SAO  +077299999V020300190031199999999999999999-01901-02071999999REMAWY049XCS SA 0400 AUTO8 M M M M/-19/-21/3006/M/ M 07MM=
0095712230999992017010205004+51930-110720SAO  +077299999V020310190036199999999999999999-01931-02121999999ADDAA101001331REMAWY072XCS SA 0500 AUTO8 M M M M/-19/-21/3107/M/0013 PCPN 1.3MM PAST HR M 32MM=
0148712230999992017010206004+51933-110700FM-12+077299999V0203201N003119999999N999999999-01751-01941999999ADDAA106001031AA224002331AZ141021KA1240M-00981KA2240N-02001REMSYN08071223 17/// /3206 11175 21194 60011 7//4/ 333 11098 21200 70023 555 33317 40140=
0062712230999992017010206004+51930-110720SAO  +077299999V020320190031199999999999999999-01651-01941999999REMAWY053XCS SA 0600 AUTO8 M M M M/-17/-19/3206/M/0013 M 54MM=
0095712230999992017010207004+51930-110720SAO  +077299999V020320190026199999999999999999-01731-01951999999ADDAA101000431REMAWY072XCS SA 0700 AUTO8 M M M M/-17/-20/3205/M/0004 PCPN 0.4MM PAST HR M 35MM=
0062712230999992017010208004+51930-110720SAO  +077299999V020360190000199999999999999999-01801-02011999999REMAWY053XCS SA 0800 AUTO8 M M M M/-18/-20/0000/M/0004 M 01MM=
0063712230999992017010209004+51933-110700FM-12+077299999V0203001N001519999999N999999999-01851-02051999999ADDAA103000431REMSYN04071223 26/// /3003 11185 21205 333 69947=
0062712230999992017010209004+51930-110720SAO  +077299999V020300190015199999999999999999-01851-01951999999REMAWY053XCS SA 0900 AUTO8 M M M M/-19/-20/3003/M/0004 M 55MM=
0062712230999992017010210004+51930-110720SAO  +077299999V020320190026199999999999999999-02121-02321999999REMAWY053XCS SA 1000 AUTO8 M M M M/-21/-23/3205/M/0004 M 22MM=
0062712230999992017010211004+51930-110720SAO  +077299999V020310190021199999999999999999-02211-02411999999REMAWY053XCS SA 1100 AUTO8 M M M M/-22/-24/3104/M/0004 M 11MM=
0118712230999992017010212004+51933-110700FM-12+077299999V0203101N002619999999N999999999-02341-02581999999ADDAA106000431AA224002731KA1240M-00981KA2240N-02351REMSYN05871223 16/// /3105 11234 21258 69941 333 11098 21235 70027=
0062712230999992017010212004+51930-110720SAO  +077299999V020310190026199999999999999999-02341-02581999999REMAWY053XCS SA 1200 AUTO8 M M M M/-23/-26/3105/M/0004 M 48MM=
0095712230999992017010213004+51930-110720SAO  +077299999V020030190010199999999999999999-02331-02571999999ADDAA101001131REMAWY072XCS SA 1300 AUTO8 M M M M/-23/-26/0302/M/0011 PCPN 1.1MM PAST HR M 37MM=
0062712230999992017010214004+51930-110720SAO  +077299999V020020190015199999999999999999-02151-02391999999REMAWY053XCS SA 1400 AUTO8 M M M M/-22/-24/0203/M/0011 M 59MM=
0063712230999992017010215004+51933-110700FM-12+077299999V0203301N001519999999N999999999-02381-02651999999ADDAA103001031REMSYN04071223 26/// /3303 11238 21265 333 60017=
0062712230999992017010215004+51930-110720SAO  +077299999V020330190015199999999999999999-02381-02551999999REMAWY053XCS SA 1500 AUTO8 M M M M/-24/-26/3303/M/0011 M 85MM=
0062712230999992017010216004+51930-110720SAO  +077299999V020360190010199999999999999999-02361-02621999999REMAWY053XCS SA 1600 AUTO8 M M M M/-24/-26/3602/M/0011 M 62MM=
0095712230999992017010217004+51930-110720SAO  +077299999V020360190000199999999999999999-02001-02231999999ADDAA101000731REMAWY072XCS SA 1700 AUTO8 M M M M/-20/-22/0000/M/0018 PCPN 0.7MM PAST HR M 03MM=
0132712230999992017010218004+51933-110700FM-12+077299999V0209999C000019999999N999999999-01961-02181999999ADDAA106002031AA224003631AZ141021KA1120M-01681KA2120N-02471REMSYN06471223 17/// /0000 11196 21218 60021 7//4/ 333 11168 21247 70036=
0062712230999992017010218004+51930-110720SAO  +077299999V020360190000199999999999999999-01961-02181999999REMAWY053XCS SA 1800 AUTO8 M M M M/-20/-22/0000/M/0018 M 68MM=
0059712230999992017010219004+51930-110720SAO  +077299999V020210190005199999999999999999-01791-02001999999REMAWY050XCS SA 1900 AUTO8 M M M M/-18/-20/2101/M/M M 90MM=
0059712230999992017010220004+51930-110720SAO  +077299999V020360190000199999999999999999-01531-01721999999REMAWY050XCS SA 2000 AUTO8 M M M M/-15/-17/0000/M/M M 32MM=
0063712230999992017010221004+51933-110700FM-12+077299999V0203201N001519999999N999999999-01731-01961999999ADDAA103999999REMSYN04071223 46/// /3203 11173 21196 333 6///7=
0059712230999992017010221004+51930-110720SAO  +077299999V020320190015199999999999999999-01731-01961999999REMAWY050XCS SA 2100 AUTO8 M M M M/-17/-20/3203/M/M M 36MM=
0059712230999992017010222004+51930-110720SAO  +077299999V020280190005199999999999999999-01621-01831999999REMAWY050XCS SA 2200 AUTO8 M M M M/-16/-18/2801/M/M M 23MM=
0059712230999992017010223004+51930-110720SAO  +077299999V020280190021199999999999999999-01931-02171999999REMAWY050XCS SA 2300 AUTO8 M M M M/-19/-22/2804/M/M M 37MM=
0118712230999992017010300004+51933-110700FM-12+077299999V0202401N002119999999N999999999-02121-02361999999ADDAA106999919AA224999919KA1120M-01471KA2120N-02471REMSYN05871223 46/// /2404 11212 21236 6///1 333 11147 21247 7////=
0092712230999992017010300004+51930-110720SAO  +077299999V020240190021199999999999999999-02121-02361999999ADDAA101000631REMAWY069XCS SA 0000 AUTO8 M M M M/-21/-24/2404/M/M PCPN 0.6MM PAST HR M 26MM=
0058712230999992017010301004+51930-110720SAO  +077299999V020250190021199999999999999999-02121-02371999999REMAWY049XCS SA 0100 AUTO8 M M M M/-21/-24/2504/M/ M 27MM=
0058712230999992017010302004+51930-110720SAO  +077299999V020240190026199999999999999999-02251-02591999999REMAWY049XCS SA 0200 AUTO8 M M M M/-23/-26/2405/M/ M 59MM=
0063712230999992017010303004+51933-110700FM-12+077299999V0202401N002619999999N999999999-02251-02491999999ADDAA103002031REMSYN04071223 26/// /2405 11225 21249 333 60027=
0095712230999992017010303004+51930-110720SAO  +077299999V020240190026199999999999999999-02241-02491999999ADDAA101001631REMAWY072XCS SA 0300 AUTO8 M M M M/-22/-25/2405/M/0016 PCPN 1.6MM PAST HR M 49MM=
0062712230999992017010304004+51930-110720SAO  +077299999V020260190031199999999999999999-02481-02741999999REMAWY053XCS SA 0400 AUTO8 M M M M/-25/-27/2606/M/0016 M 84MM=
0062712230999992017010305004+51930-110720SAO  +077299999V020270190026199999999999999999-02421-02701999999REMAWY053XCS SA 0500 AUTO8 M M M M/-24/-27/2705/M/0016 M 20MM=
0132712230999992017010306004+51933-110700FM-12+077299999V0202801N002619999999N999999999-02421-02681999999ADDAA106002031AA224999919AZ141021KA1240M-01471KA2240N-02531REMSYN06471223 17/// /2805 11242 21268 60021 7//4/ 333 11147 21253 7////=
0062712230999992017010306004+51930-110720SAO  +077299999V020280190026199999999999999999-02421-02681999999REMAWY053XCS SA 0600 AUTO8 M M M M/-24/-27/2805/M/0016 M 28MM=
0058712230999992017010307004+51930-110720SAO  +077299999V020300190026199999999999999999-02441-02711999999REMAWY049XCS SA 0700 AUTO8 M M M M/-24/-27/3005/M/ M 41MM=
0058712230999992017010308004+51930-110720SAO  +077299999V020270190021199999999999999999-02541-02831999999REMAWY049XCS SA 0800 AUTO8 M M M M/-25/-28/2704/M/ M 43MM=
0063712230999992017010309004+51933-110700FM-12+077299999V0202901N002119999999N999999999-02471-02741999999ADDAA103000091REMSYN04071223 26/// /2904 11247 21274 333 60007=
0058712230999992017010309004+51930-110720SAO  +077299999V020290190021199999999999999999-02471-02741999999REMAWY049XCS SA 0900 AUTO8 M M M M/-25/-27/2904/M/ M 74MM=
0058712230999992017010310004+51930-110720SAO  +077299999V020230190015199999999999999999-02621-02961999999REMAWY049XCS SA 1000 AUTO8 M M M M/-26/-30/2303/M/ M 26MM=
0058712230999992017010311004+51930-110720SAO  +077299999V020240190021199999999999999999-02781-03091999999REMAWY049XCS SA 1100 AUTO8 M M M M/-28/-31/2404/M/ M 89MM=
0118712230999992017010312004+51933-110700FM-12+077299999V0202101N001019999999N999999999-02721-03031999999ADDAA106000091AA224999919KA1240M-01471KA2240N-02801REMSYN05871223 16/// /2102 11272 21303 60001 333 11147 21280 7////=
0058712230999992017010312004+51930-110720SAO  +077299999V020210190010199999999999999999-02721-03031999999REMAWY049XCS SA 1200 AUTO8 M M M M/-27/-30/2102/M/ M 23MM=
0095712230999992017010313004+51930-110720SAO  +077299999V020300190010199999999999999999-02491-02751999999ADDAA101000831REMAWY072XCS SA 1300 AUTO8 M M M M/-25/-28/3002/M/0008 PCPN 0.8MM PAST HR M 95MM=
0062712230999992017010314004+51930-110720SAO  +077299999V020280190010199999999999999999-02351-02731999999REMAWY053XCS SA 1400 AUTO8 M M M M/-24/-27/2802/M/0008 M 53MM=
0063712230999992017010315004+51933-110700FM-12+077299999V0203001N001519999999N999999999-02401-02671999999ADDAA103001031REMSYN04071223 26/// /3003 11240 21267 333 60017=
0095712230999992017010315004+51930-110720SAO  +077299999V020300190015199999999999999999-02401-02671999999ADDAA101000531REMAWY072XCS SA 1500 AUTO8 M M M M/-24/-27/3003/M/0013 PCPN 0.5MM PAST HR M 07MM=
0062712230999992017010316004+51930-110720SAO  +077299999V020290190005199999999999999999-02341-02601999999REMAWY053XCS SA 1600 AUTO8 M M M M/-23/-26/2901/M/0013 M 40MM=
0095712230999992017010317004+51930-110720SAO  +077299999V020250190010199999999999999999-02241-02501999999ADDAA101000431REMAWY072XCS SA 1700 AUTO8 M M M M/-22/-25/2502/M/0017 PCPN 0.4MM PAST HR M 40MM=
0132712230999992017010318004+51933-110700FM-12+077299999V0202701N002619999999N999999999-02131-02371999999ADDAA106002031AA224999919AZ141021KA1120M-02131KA2120N-02801REMSYN06471223 17/// /2705 11213 21237 60021 7//4/ 333 11213 21280 7////=
0062712230999992017010318004+51930-110720SAO  +077299999V020280190026199999999999999999-02131-02371999999REMAWY053XCS SA 1800 AUTO8 M M M M/-21/-24/2805/M/0017 M 37MM=
0058712230999992017010319004+51930-110720SAO  +077299999V020280190031199999999999999999-02131-02371999999REMAWY049XCS SA 1900 AUTO8 M M M M/-21/-24/2806/M/ M 37MM=
0058712230999992017010320004+51930-110720SAO  +077299999V020290190031199999999999999999-02131-02381999999REMAWY049XCS SA 2000 AUTO8 M M M M/-21/-24/2906/M/ M 38MM=
0063712230999992017010321004+51933-110700FM-12+077299999V0202801N002119999999N999999999-02111-02361999999ADDAA103000091REMSYN04071223 26/// /2804 11211 21236 333 60007=
0058712230999992017010321004+51930-110720SAO  +077299999V020290190021199999999999999999-02111-02361999999REMAWY049XCS SA 2100 AUTO8 M M M M/-21/-24/2904/M/ M 16MM=
0058712230999992017010322004+51930-110720SAO  +077299999V020290190015199999999999999999-02001-02231999999REMAWY049XCS SA 2200 AUTO8 M M M M/-20/-22/2903/M/ M 03MM=
0058712230999992017010323004+51930-110720SAO  +077299999V020280190041199999999999999999-02141-02391999999REMAWY049XCS SA 2300 AUTO8 M M M M/-21/-24/2808/M/ M 49MM=
0118712230999992017010400004+51933-110700FM-12+077299999V0202601N004119999999N999999999-02291-02531999999ADDAA106000091AA224003331KA1120M-01961KA2120N-02801REMSYN05871223 16/// /2608 11229 21253 60001 333 11196 21280 70033=
0058712230999992017010400004+51930-110720SAO  +077299999V020260190041199999999999999999-02291-02531999999REMAWY049XCS SA 0000 AUTO8 M M M M/-23/-25/2608/M/ M 93MM=
0095712230999992017010401004+51930-110720SAO  +077299999V020270190046199999999999999999-02311-02571999999ADDAA101000531REMAWY072XCS SA 0100 AUTO8 M M M M/-23/-26/2709/M/0005 PCPN 0.5MM PAST HR M 17MM=
0062712230999992017010402004+51930-110720SAO  +077299999V020280190057199999999999999999-02191-02351999999REMAWY053XCS SA 0200 AUTO8 M M M M/-22/-24/2811/M/0005 M 95MM=
0063712230999992017010403004+51933-110700FM-12+077299999V0202801N004619999999N999999999-02191-02441999999ADDAA103000531REMSYN04071223 26/// /2809 11219 21244 333 69957=
0062712230999992017010403004+51930-110720SAO  +077299999V020280190046199999999999999999-02191-02441999999REMAWY053XCS SA 0300 AUTO8 M M M M/-22/-24/2809/M/0005 M 94MM=
0062712230999992017010404004+51930-110720SAO  +077299999V020270190051199999999999999999-02091-02321999999REMAWY053XCS SA 0400 AUTO8 M M M M/-21/-23/2710/M/0005 M 92MM=
0062712230999992017010405004+51930-110720SAO  +077299999V020270190067199999999999999999-02091-02331999999REMAWY053XCS SA 0500 AUTO8 M M M M/-21/-23/2713/M/0005 M 93MM=
0134712230999992017010406004+51933-110700FM-12+077299999V0202801N005719999999N999999999-01961-02191999999ADDAA106000531AA224002231KA1240M-01961KA2240N-02801REMSYN07471223 16/// /2811 11196 21219 69951 333 11196 21280 70022 555 32819 40060=
0097712230999992017010406004+51930-110720SAO  +077299999V020280190057199999999999999999-01961-02191999999ADDOD130100981280REMAWY071XCS SA 0600 AUTO8 M M M M/-20/-22/2811/M/0005 PK WND 2819 0518Z M 69MM=
0058712230999992017010407004+51930-110720SAO  +077299999V020290190062199999999999999999-01961-02191999999REMAWY049XCS SA 0700 AUTO8 M M M M/-20/-22/2912/M/ M 69MM=
0058712230999992017010408004+51930-110720SAO  +077299999V020300190057199999999999999999-01801-01991999999REMAWY049XCS SA 0800 AUTO8 M M M M/-18/-20/3011/M/ M 09MM=
0063712230999992017010409004+51933-110700FM-12+077299999V0203201N005719999999N999999999-01671-01861999999ADDAA103000091REMSYN04071223 26/// /3211 11167 21186 333 60007=
0093712230999992017010409004+51930-110720SAO  +077299999V020320190057199999999999999999-01671-01861999999ADDOD130100871310REMAWY067XCS SA 0900 AUTO8 M M M M/-17/-19/3211/M/ PK WND 3117 0833Z M 76MM=
0093712230999992017010410004+51930-110720SAO  +077299999V020320190072199999999999999999-01661-01841999999ADDOD130100931320REMAWY067XCS SA 1000 AUTO8 M M M M/-17/-18/3214/M/ PK WND 3218 0959Z M 64MM=
0093712230999992017010411004+51930-110720SAO  +077299999V020320190077199999999999999999-01601-01781999999ADDOD130100981320REMAWY067XCS SA 1100 AUTO8 M M M M/-16/-18/3215/M/ PK WND 3219 1010Z M 08MM=
0105712230999992017010412004+51933-110700FM-12+077299999V0203201N009819999999N999999999-01571-01751999999ADDAA106000091AA224002231KA1240N-02351REMSYN05871223 16/// /3219 11157 21175 60001 333 11196 21235 70022=
0093712230999992017010412004+51930-110720SAO  +077299999V020320190098199999999999999999-01571-01751999999ADDOD130101281310REMAWY067XCS SA 1200 AUTO8 M M M M/-16/-18/3219/M/ PK WND 3125 1132Z M 75MM=
0093712230999992017010413004+51930-110720SAO  +077299999V020340190067199999999999999999-01541-01721999999ADDOD130101231340REMAWY067XCS SA 1300 AUTO8 M M M M/-15/-17/3413/M/ PK WND 3424 1219Z M 42MM=
0093712230999992017010414004+51930-110720SAO  +077299999V020340190087199999999999999999-01511-01691999999ADDOD130101181350REMAWY067XCS SA 1400 AUTO8 M M M M/-15/-17/3417/M/ PK WND 3523 1354Z M 19MM=
0063712230999992017010415004+51933-110700FM-12+077299999V0203401N007219999999N999999999-01471-01651999999ADDAA103000091REMSYN04071223 26/// /3414 11147 21165 333 60007=
0093712230999992017010415004+51930-110720SAO  +077299999V020340190072199999999999999999-01471-01551999999ADDOD130101181330REMAWY067XCS SA 1500 AUTO8 M M M M/-15/-16/3414/M/ PK WND 3323 1413Z M 75MM=
0093712230999992017010416004+51930-110720SAO  +077299999V020350190072199999999999999999-01471-01661999999ADDOD130101181350REMAWY067XCS SA 1600 AUTO8 M M M M/-15/-17/3514/M/ PK WND 3523 1529Z M 76MM=
0093712230999992017010417004+51930-110720SAO  +077299999V020350190082199999999999999999-01481-01681999999ADDOD130101181350REMAWY067XCS SA 1700 AUTO8 M M M M/-15/-17/3516/M/ PK WND 3523 1608Z M 88MM=
0118712230999992017010418004+51933-110700FM-12+077299999V0203601N006719999999N999999999-01491-01701999999ADDAA106000091AA224000531KA1120M-01471KA2120N-02371REMSYN05871223 16/// /3613 11149 21170 60001 333 11147 21237 70005=
0093712230999992017010418004+51930-110720SAO  +077299999V020360190067199999999999999999-01491-01701999999ADDOD130101131360REMAWY067XCS SA 1800 AUTO8 M M M M/-15/-17/3613/M/ PK WND 0022 1735Z M 90MM=
0093712230999992017010419004+51930-110720SAO  +077299999V020350190082199999999999999999-01511-01751999999ADDOD130101031350REMAWY067XCS SA 1900 AUTO8 M M M M/-15/-18/3516/M/ PK WND 3520 1858Z M 15MM=
0093712230999992017010420004+51930-110720SAO  +077299999V020340190062199999999999999999-01501-01731999999ADDOD130101031340REMAWY067XCS SA 2000 AUTO8 M M M M/-15/-17/3412/M/ PK WND 3420 1911Z M 03MM=
0063712230999992017010421004+51933-110700FM-12+077299999V0203501N006219999999N999999999-01481-01731999999ADDAA103000091REMSYN04071223 26/// /3512 11148 21173 333 60007=
0093712230999992017010421004+51930-110720SAO  +077299999V020350190062199999999999999999-01481-01731999999ADDOD130100981350REMAWY067XCS SA 2100 AUTO8 M M M M/-15/-17/3512/M/ PK WND 3519 2011Z M 83MM=
0093712230999992017010422004+51930-110720SAO  +077299999V020340190062199999999999999999-01471-01721999999ADDOD130100981340REMAWY067XCS SA 2200 AUTO8 M M M M/-15/-17/3412/M/ PK WND 3419 2155Z M 72MM=
0058712230999992017010423004+51930-110720SAO  +077299999V020340190041199999999999999999-01441-01661999999REMAWY049XCS SA 2300 AUTO8 M M M M/-14/-17/3408/M/ M 46MM=
0118712230999992017010500004+51933-110700FM-12+077299999V0203401N005719999999N999999999-01441-01681999999ADDAA106000091AA224000531KA1120M-01441KA2120N-01981REMSYN05871223 16/// /3411 11144 21168 60001 333 11144 21198 70005=
0058712230999992017010500004+51930-110720SAO  +077299999V020340190057199999999999999999-01441-01681999999REMAWY049XCS SA 0000 AUTO8 M M M M/-14/-17/3411/M/ M 48MM=
0058712230999992017010501004+51930-110720SAO  +077299999V020350190046199999999999999999-01461-01551999999REMAWY049XCS SA 0100 AUTO8 M M M M/-15/-16/3509/M/ M 65MM=
0058712230999992017010502004+51930-110720SAO  +077299999V020320190036199999999999999999-01351-01631999999REMAWY049XCS SA 0200 AUTO8 M M M M/-14/-16/3207/M/ M 53MM=
0063712230999992017010503004+51933-110700FM-12+077299999V0203501N002619999999N999999999-01431-01611999999ADDAA103000091REMSYN04071223 26/// /3505 11143 21161 333 60007=
0058712230999992017010503004+51930-110720SAO  +077299999V020350190026199999999999999999-01431-01611999999REMAWY049XCS SA 0300 AUTO8 M M M M/-14/-16/3505/M/ M 31MM=
0058712230999992017010504004+51930-110720SAO  +077299999V020310190031199999999999999999-01411-01591999999REMAWY049XCS SA 0400 AUTO8 M M M M/-14/-16/3106/M/ M 19MM=
0058712230999992017010505004+51930-110720SAO  +077299999V020280190015199999999999999999-01411-01591999999REMAWY049XCS SA 0500 AUTO8 M M M M/-14/-16/2803/M/ M 19MM=
0134712230999992017010506004+51933-110700FM-12+077299999V0202701N003619999999N999999999-01461-01631999999ADDAA106000091AA224000091KA1240M-01411KA2240N-01981REMSYN07471223 16/// /2707 11146 21163 60001 333 11141 21198 70000 555 33125 40121=
0058712230999992017010506004+51930-110720SAO  +077299999V020270190036199999999999999999-01461-01631999999REMAWY049XCS SA 0600 AUTO8 M M M M/-15/-16/2707/M/ M 63MM=
0058712230999992017010507004+51930-110720SAO  +077299999V020270190036199999999999999999-01421-01571999999REMAWY049XCS SA 0700 AUTO8 M M M M/-14/-16/2707/M/ M 27MM=
0058712230999992017010508004+51930-110720SAO  +077299999V020260190041199999999999999999-01401-01551999999REMAWY049XCS SA 0800 AUTO8 M M M M/-14/-16/2608/M/ M 05MM=
0063712230999992017010509004+51933-110700FM-12+077299999V0202501N004619999999N999999999-01451-01611999999ADDAA103000091REMSYN04071223 26/// /2509 11145 21161 333 60007=
0058712230999992017010509004+51930-110720SAO  +077299999V020250190046199999999999999999-01351-01611999999REMAWY049XCS SA 0900 AUTO8 M M M M/-14/-16/2509/M/ M 51MM=
0058712230999992017010510004+51930-110720SAO  +077299999V020250190051199999999999999999-01481-01621999999REMAWY049XCS SA 1000 AUTO8 M M M M/-15/-16/2510/M/ M 82MM=
0058712230999992017010511004+51930-110720SAO  +077299999V020240190062199999999999999999-01391-01541999999REMAWY049XCS SA 1100 AUTO8 M M M M/-14/-15/2412/M/ M 94MM=
0118712230999992017010512004+51933-110700FM-12+077299999V0202301N004619999999N999999999-01451-01611999999ADDAA106000091AA224000091KA1240M-01411KA2240N-01481REMSYN05871223 16/// /2309 11145 21161 60001 333 11141 21148 70000=
0058712230999992017010512004+51930-110720SAO  +077299999V020230190046199999999999999999-01451-01611999999REMAWY049XCS SA 1200 AUTO8 M M M M/-15/-16/2309/M/ M 51MM=
0058712230999992017010513004+51930-110720SAO  +077299999V020240190051199999999999999999-01411-01571999999REMAWY049XCS SA 1300 AUTO8 M M M M/-14/-16/2410/M/ M 17MM=
0063712230999992017010515004+51933-110700FM-12+077299999V0202301N005119999999N999999999-01321-01471999999ADDAA103000091REMSYN04071223 26/// /2310 11132 21147 333 60007=
0058712230999992017010515004+51930-110720SAO  +077299999V020230190051199999999999999999-01321-01471999999REMAWY049XCS SA 1500 AUTO8 M M M M/-13/-15/2310/M/ M 27MM=
0058712230999992017010516004+51930-110720SAO  +077299999V020230190046199999999999999999-01251-01391999999REMAWY049XCS SA 1600 AUTO8 M M M M/-13/-14/2309/M/ M 59MM=
0095712230999992017010517004+51930-110720SAO  +077299999V020240190041199999999999999999-01181-01311999999ADDAA101000531REMAWY072XCS SA 1700 AUTO8 M M M M/-12/-13/2408/M/0005 PCPN 0.5MM PAST HR M 81MM=
0132712230999992017010518004+51933-110700FM-12+077299999V0202401N003119999999N999999999-01071-01201999999ADDAA106000531AA224000531AZ141021KA1120M-01071KA2120N-01521REMSYN06471223 17/// /2406 11107 21120 69951 7//4/ 333 11107 21152 70005=
0062712230999992017010518004+51930-110720SAO  +077299999V020240190031199999999999999999-01071-01201999999REMAWY053XCS SA 1800 AUTO8 M M M M/-11/-12/2406/M/0005 M 70MM=
0058712230999992017010519004+51930-110720SAO  +077299999V020260190026199999999999999999-00981-01091999999REMAWY049XCS SA 1900 AUTO8 M M M M/-10/-11/2605/M/ M 89MM=
0095712230999992017010520004+51930-110720SAO  +077299999V020290190021199999999999999999-00931-01041999999ADDAA101000731REMAWY072XCS SA 2000 AUTO8 M M M M/-09/-10/2904/M/0007 PCPN 0.7MM PAST HR M 34MM=
0077712230999992017010521004+51933-110700FM-12+077299999V0203601N001019999999N999999999-00891-01001999999ADDAA103000731AZ141021REMSYN04671223 27/// /3602 11089 21100 7//4/ 333 69977=
0062712230999992017010521004+51930-110720SAO  +077299999V020360190010199999999999999999-00891-01001999999REMAWY053XCS SA 2100 AUTO8 M M M M/-09/-10/3602/M/0007 M 90MM=
0062712230999992017010522004+51930-110720SAO  +077299999V020350190015199999999999999999-00941-00951999999REMAWY053XCS SA 2200 AUTO8 M M M M/-09/-10/3503/M/0007 M 45MM=
0062712230999992017010523004+51930-110720SAO  +077299999V020020190026199999999999999999-00851-01061999999REMAWY053XCS SA 2300 AUTO8 M M M M/-09/-11/0205/M/0007 M 56MM=
0132712230999992017010600004+51933-110700FM-12+077299999V0200301N003119999999N999999999-01021-01141999999ADDAA106000731AA224001331AZ141021KA1120M-00891KA2120N-01481REMSYN06471223 17/// /0306 11102 21114 69971 7//4/ 333 11089 21148 70013=
0062712230999992017010600004+51930-110720SAO  +077299999V020030190031199999999999999999-01021-01141999999REMAWY053XCS SA 0000 AUTO8 M M M M/-10/-11/0306/M/0007 M 24MM=
0058712230999992017010601004+51930-110720SAO  +077299999V020030190046199999999999999999-01141-01271999999REMAWY049XCS SA 0100 AUTO8 M M M M/-11/-13/0309/M/ M 47MM=
0058712230999992017010602004+51930-110720SAO  +077299999V020050190046199999999999999999-01201-01341999999REMAWY049XCS SA 0200 AUTO8 M M M M/-12/-13/0509/M/ M 04MM=
0063712230999992017010603004+51933-110700FM-12+077299999V0200401N003119999999N999999999-01251-01391999999ADDAA103000091REMSYN04071223 26/// /0406 11125 21139 333 60007=
0058712230999992017010603004+51930-110720SAO  +077299999V020040190031199999999999999999-01251-01391999999REMAWY049XCS SA 0300 AUTO8 M M M M/-13/-14/0406/M/ M 59MM=
0095712230999992017010604004+51930-110720SAO  +077299999V020050190031199999999999999999-01311-01351999999ADDAA101000431REMAWY072XCS SA 0400 AUTO8 M M M M/-13/-14/0506/M/0004 PCPN 0.4MM PAST HR M 15MM=
0062712230999992017010605004+51930-110720SAO  +077299999V020050190041199999999999999999-01421-01581999999REMAWY053XCS SA 0500 AUTO8 M M M M/-14/-16/0508/M/0004 M 28MM=
0132712230999992017010606004+51933-110700FM-12+077299999V0200601N004619999999N999999999-01571-01741999999ADDAA106000431AA224001731AZ141021KA1240M-00891KA2240N-01571REMSYN06471223 17/// /0609 11157 21174 69941 7//4/ 333 11089 21157 70017=
0062712230999992017010606004+51930-110720SAO  +077299999V020060190046199999999999999999-01571-01741999999REMAWY053XCS SA 0600 AUTO8 M M M M/-16/-17/0609/M/0004 M 74MM=
0058712230999992017010607004+51930-110720SAO  +077299999V020080190021199999999999999999-01711-01901999999REMAWY049XCS SA 0700 AUTO8 M M M M/-17/-19/0804/M/ M 10MM=
0058712230999992017010608004+51930-110720SAO  +077299999V020060190026199999999999999999-01781-01971999999REMAWY049XCS SA 0800 AUTO8 M M M M/-18/-20/0605/M/ M 87MM=
0063712230999992017010609004+51933-110700FM-12+077299999V0200901N001019999999N999999999-01801-02001999999ADDAA103000091REMSYN04071223 26/// /0902 11180 21200 333 60007=
0058712230999992017010609004+51930-110720SAO  +077299999V020090190010199999999999999999-01801-02001999999REMAWY049XCS SA 0900 AUTO8 M M M M/-18/-20/0902/M/ M 00MM=
0095712230999992017010610004+51930-110720SAO  +077299999V020080190015199999999999999999-01871-02081999999ADDAA101000931REMAWY072XCS SA 1000 AUTO8 M M M M/-19/-21/0803/M/0009 PCPN 0.9MM PAST HR M 78MM=
0062712230999992017010611004+51930-110720SAO  +077299999V020090190021199999999999999999-01991-02211999999REMAWY053XCS SA 1100 AUTO8 M M M M/-20/-22/0904/M/0009 M 91MM=
0132712230999992017010612004+51933-110700FM-12+077299999V0200801N002119999999N999999999-02081-02321999999ADDAA106000931AA224002631AZ141021KA1240M-00891KA2240N-02081REMSYN06471223 17/// /0804 11208 21232 69991 7//4/ 333 11089 21208 70026=
0062712230999992017010612004+51930-110720SAO  +077299999V020080190021199999999999999999-02081-02321999999REMAWY053XCS SA 1200 AUTO8 M M M M/-21/-23/0804/M/0009 M 82MM=
0058712230999992017010613004+51930-110720SAO  +077299999V020090190021199999999999999999-02161-02401999999REMAWY049XCS SA 1300 AUTO8 M M M M/-22/-24/0904/M/ M 60MM=
0058712230999992017010614004+51930-110720SAO  +077299999V020110190010199999999999999999-02171-02411999999REMAWY049XCS SA 1400 AUTO8 M M M M/-22/-24/1102/M/ M 71MM=
0063712230999992017010615004+51933-110700FM-12+077299999V0200901N001019999999N999999999-02291-02561999999ADDAA103000731REMSYN04071223 26/// /0902 11229 21256 333 69977=
0095712230999992017010615004+51930-110720SAO  +077299999V020090190010199999999999999999-02291-02561999999ADDAA101000731REMAWY072XCS SA 1500 AUTO8 M M M M/-23/-26/0902/M/0007 PCPN 0.7MM PAST HR M 96MM=
0062712230999992017010616004+51930-110720SAO  +077299999V020080190005199999999999999999-02291-02541999999REMAWY053XCS SA 1600 AUTO8 M M M M/-23/-25/0801/M/0007 M 94MM=
0095712230999992017010617004+51930-110720SAO  +077299999V020100190005199999999999999999-02191-02441999999ADDAA101000531REMAWY072XCS SA 1700 AUTO8 M M M M/-22/-24/1001/M/0012 PCPN 0.5MM PAST HR M 94MM=
0132712230999992017010618004+51933-110700FM-12+077299999V0201201N000519999999N999999999-02161-02401999999ADDAA106001031AA224003331AZ141021KA1120M-01571KA2120N-02351REMSYN06471223 17/// /1201 11216 21240 60011 7//4/ 333 11157 21235 70033=
0062712230999992017010618004+51930-110720SAO  +077299999V020120190005199999999999999999-02161-02401999999REMAWY053XCS SA 1800 AUTO8 M M M M/-22/-24/1201/M/0012 M 60MM=
0095712230999992017010619004+51930-110720SAO  +077299999V020100190005199999999999999999-02131-02381999999ADDAA101000531REMAWY072XCS SA 1900 AUTO8 M M M M/-21/-24/1001/M/0005 PCPN 0.5MM PAST HR M 38MM=
0062712230999992017010620004+51930-110720SAO  +077299999V020100190005199999999999999999-02111-02341999999REMAWY053XCS SA 2000 AUTO8 M M M M/-21/-23/1001/M/0005 M 14MM=
0063712230999992017010621004+51933-110700FM-12+077299999V0201001N000519999999N999999999-02111-02341999999ADDAA103000531REMSYN04071223 26/// /1001 11211 21234 333 69957=
0062712230999992017010621004+51930-110720SAO  +077299999V020100190005199999999999999999-02111-02341999999REMAWY053XCS SA 2100 AUTO8 M M M M/-21/-23/1001/M/0005 M 14MM=
0062712230999992017010622004+51930-110720SAO  +077299999V020090190005199999999999999999-02121-02371999999REMAWY053XCS SA 2200 AUTO8 M M M M/-21/-24/0901/M/0005 M 27MM=
0062712230999992017010623004+51930-110720SAO  +077299999V020090190010199999999999999999-02141-02391999999REMAWY053XCS SA 2300 AUTO8 M M M M/-21/-24/0902/M/0005 M 49MM=
0118712230999992017010700004+51933-110700FM-12+077299999V0201001N001019999999N999999999-02281-02551999999ADDAA106000531AA224003031KA1120M-02081KA2120N-02351REMSYN05871223 16/// /1002 11228 21255 69951 333 11208 21235 70030=
0062712230999992017010700004+51930-110720SAO  +077299999V020100190010199999999999999999-02281-02551999999REMAWY053XCS SA 0000 AUTO8 M M M M/-23/-26/1002/M/0005 M 85MM=
0058712230999992017010701004+51930-110720SAO  +077299999V020100190005199999999999999999-02291-02551999999REMAWY049XCS SA 0100 AUTO8 M M M M/-23/-26/1001/M/ M 95MM=
0058712230999992017010702004+51930-110720SAO  +077299999V020100190005199999999999999999-02321-02581999999REMAWY049XCS SA 0200 AUTO8 M M M M/-23/-26/1001/M/ M 28MM=
0063712230999992017010703004+51933-110700FM-12+077299999V0209999C000019999999N999999999-02291-02551999999ADDAA103000091REMSYN04071223 26/// /0000 11229 21255 333 60007=
0058712230999992017010703004+51930-110720SAO  +077299999V020360190000199999999999999999-02291-02551999999REMAWY049XCS SA 0300 AUTO8 M M M M/-23/-26/0000/M/ M 95MM=
0058712230999992017010704004+51930-110720SAO  +077299999V020360190000199999999999999999-02321-02581999999REMAWY049XCS SA 0400 AUTO8 M M M M/-23/-26/0000/M/ M 28MM=
0058712230999992017010705004+51930-110720SAO  +077299999V020360190000199999999999999999-02351-02621999999REMAWY049XCS SA 0500 AUTO8 M M M M/-24/-26/0000/M/ M 52MM=
0118712230999992017010706004+51933-110700FM-12+077299999V0209999C000019999999N999999999-02381-02651999999ADDAA106000091AA224002631KA1240M-01571KA2240N-02381REMSYN05871223 16/// /0000 11238 21265 60001 333 11157 21238 70026=
0058712230999992017010706004+51930-110720SAO  +077299999V020360190000199999999999999999-02381-02551999999REMAWY049XCS SA 0600 AUTO8 M M M M/-24/-26/0000/M/ M 85MM=
0058712230999992017010707004+51930-110720SAO  +077299999V020360190000199999999999999999-02431-02711999999REMAWY049XCS SA 0700 AUTO8 M M M M/-24/-27/0000/M/ M 31MM=
0058712230999992017010708004+51930-110720SAO  +077299999V020360190000199999999999999999-02391-02661999999REMAWY049XCS SA 0800 AUTO8 M M M M/-24/-27/0000/M/ M 96MM=
0063712230999992017010709004+51933-110700FM-12+077299999V0209999C000019999999N999999999-02371-02631999999ADDAA103000091REMSYN04071223 26/// /0000 11237 21263 333 60007=
0058712230999992017010709004+51930-110720SAO  +077299999V020360190000199999999999999999-02371-02631999999REMAWY049XCS SA 0900 AUTO8 M M M M/-24/-26/0000/M/ M 73MM=
0095712230999992017010710004+51930-110720SAO  +077299999V020360190000199999999999999999-02371-02641999999ADDAA101000531REMAWY072XCS SA 1000 AUTO8 M M M M/-24/-26/0000/M/0005 PCPN 0.5MM PAST HR M 74MM=
0062712230999992017010711004+51930-110720SAO  +077299999V020360190000199999999999999999-02351-02621999999REMAWY053XCS SA 1100 AUTO8 M M M M/-24/-26/0000/M/0005 M 52MM=
0132712230999992017010712004+51933-110700FM-12+077299999V0209999C000019999999N999999999-02451-02731999999ADDAA106000531AA224002231AZ141021KA1240M-01571KA2240N-02451REMSYN06471223 17/// /0000 11245 21273 69951 7//4/ 333 11157 21245 70022=
0062712230999992017010712004+51930-110720SAO  +077299999V020360190000199999999999999999-02351-02731999999REMAWY053XCS SA 1200 AUTO8 M M M M/-24/-27/0000/M/0005 M 53MM=
0058712230999992017010713004+51930-110720SAO  +077299999V020360190000199999999999999999-02461-02741999999REMAWY049XCS SA 1300 AUTO8 M M M M/-25/-27/0000/M/ M 64MM=
0058712230999992017010714004+51930-110720SAO  +077299999V020360190000199999999999999999-02481-02761999999REMAWY049XCS SA 1400 AUTO8 M M M M/-25/-28/0000/M/ M 86MM=
0063712230999992017010715004+51933-110700FM-12+077299999V0209999C000019999999N999999999-02421-02701999999ADDAA103000091REMSYN04071223 26/// /0000 11242 21270 333 60007=
0058712230999992017010715004+51930-110720SAO  +077299999V020360190000199999999999999999-02421-02701999999REMAWY049XCS SA 1500 AUTO8 M M M M/-24/-27/0000/M/ M 20MM=
0058712230999992017010716004+51930-110720SAO  +077299999V020360190000199999999999999999-02431-02701999999REMAWY049XCS SA 1600 AUTO8 M M M M/-24/-27/0000/M/ M 30MM=
0095712230999992017010717004+51930-110720SAO  +077299999V020360190000199999999999999999-02161-02371999999ADDAA101001231REMAWY072XCS SA 1700 AUTO8 M M M M/-22/-24/0000/M/0012 PCPN 1.2MM PAST HR M 67MM=
0132712230999992017010718004+51933-110700FM-12+077299999V0209999C000019999999N999999999-01991-02221999999ADDAA106001031AA224002231AZ141021KA1120M-01951KA2120N-02571REMSYN06471223 17/// /0000 11199 21222 60011 7//4/ 333 11195 21257 70022=
0062712230999992017010718004+51930-110720SAO  +077299999V020360190000199999999999999999-01991-02221999999REMAWY053XCS SA 1800 AUTO8 M M M M/-20/-22/0000/M/0012 M 92MM=
0058712230999992017010719004+51930-110720SAO  +077299999V020360190000199999999999999999-02101-02341999999REMAWY049XCS SA 1900 AUTO8 M M M M/-21/-23/0000/M/ M 04MM=
0058712230999992017010720004+51930-110720SAO  +077299999V020360190000199999999999999999-01971-02201999999REMAWY049XCS SA 2000 AUTO8 M M M M/-20/-22/0000/M/ M 70MM=
0063712230999992017010721004+51933-110700FM-12+077299999V0209999C000019999999N999999999-01861-02071999999ADDAA103000091REMSYN04071223 26/// /0000 11186 21207 333 60007=
0058712230999992017010721004+51930-110720SAO  +077299999V020360190000199999999999999999-01861-02071999999REMAWY049XCS SA 2100 AUTO8 M M M M/-19/-21/0000/M/ M 67MM=
0058712230999992017010722004+51930-110720SAO  +077299999V020340190021199999999999999999-01701-01901999999REMAWY049XCS SA 2200 AUTO8 M M M M/-17/-19/3404/M/ M 00MM=
0058712230999992017010723004+51930-110720SAO  +077299999V020330190026199999999999999999-01761-01961999999REMAWY049XCS SA 2300 AUTO8 M M M M/-18/-20/3305/M/ M 66MM=
0118712230999992017010800004+51933-110700FM-12+077299999V0203201N001519999999N999999999-01741-01941999999ADDAA106000091AA224001731KA1120M-01701KA2120N-02571REMSYN05871223 16/// /3203 11174 21194 60001 333 11170 21257 70017=
0058712230999992017010800004+51930-110720SAO  +077299999V020320190015199999999999999999-01741-01941999999REMAWY049XCS SA 0000 AUTO8 M M M M/-17/-19/3203/M/ M 44MM=
0058712230999992017010801004+51930-110720SAO  +077299999V020310190046199999999999999999-01711-01901999999REMAWY049XCS SA 0100 AUTO8 M M M M/-17/-19/3109/M/ M 10MM=
0058712230999992017010802004+51930-110720SAO  +077299999V020330190051199999999999999999-01731-01921999999REMAWY049XCS SA 0200 AUTO8 M M M M/-17/-19/3310/M/ M 32MM=
0063712230999992017010803004+51933-110700FM-12+077299999V0203201N005119999999N999999999-01721-01911999999ADDAA103000091REMSYN04071223 26/// /3210 11172 21191 333 60007=
0058712230999992017010803004+51930-110720SAO  +077299999V020320190051199999999999999999-01721-01911999999REMAWY049XCS SA 0300 AUTO8 M M M M/-17/-19/3210/M/ M 21MM=
0058712230999992017010804004+51930-110720SAO  +077299999V020340190062199999999999999999-01791-02001999999REMAWY049XCS SA 0400 AUTO8 M M M M/-18/-20/3412/M/ M 90MM=
0058712230999992017010805004+51930-110720SAO  +077299999V020320190062199999999999999999-01861-02071999999REMAWY049XCS SA 0500 AUTO8 M M M M/-19/-21/3212/M/ M 67MM=
0118712230999992017010806004+51933-110700FM-12+077299999V0203301N005719999999N999999999-01871-02081999999ADDAA106000091AA224001731KA1240M-01701KA2240N-02571REMSYN05871223 16/// /3311 11187 21208 60001 333 11170 21257 70017=
0058712230999992017010806004+51930-110720SAO  +077299999V020330190057199999999999999999-01871-02081999999REMAWY049XCS SA 0600 AUTO8 M M M M/-19/-21/3311/M/ M 78MM=
0058712230999992017010807004+51930-110720SAO  +077299999V020330190057199999999999999999-01871-02081999999REMAWY049XCS SA 0700 AUTO8 M M M M/-19/-21/3311/M/ M 78MM=
0058712230999992017010808004+51930-110720SAO  +077299999V020330190057199999999999999999-01891-02101999999REMAWY049XCS SA 0800 AUTO8 M M M M/-19/-21/3311/M/ M 90MM=
0063712230999992017010809004+51933-110700FM-12+077299999V0203301N003619999999N999999999-02051-02291999999ADDAA103000091REMSYN04071223 26/// /3307 11205 21229 333 60007=
0093712230999992017010809004+51930-110720SAO  +077299999V020330190036199999999999999999-02051-02291999999ADDOD130100871350REMAWY067XCS SA 0900 AUTO8 M M M M/-21/-23/3307/M/ PK WND 3517 0820Z M 59MM=
0058712230999992017010810004+51930-110720SAO  +077299999V020290190036199999999999999999-02281-02541999999REMAWY049XCS SA 1000 AUTO8 M M M M/-23/-25/2907/M/ M 84MM=
0058712230999992017010811004+51930-110720SAO  +077299999V020300190041199999999999999999-02151-02501999999REMAWY049XCS SA 1100 AUTO8 M M M M/-22/-25/3008/M/ M 50MM=
0118712230999992017010812004+51933-110700FM-12+077299999V0203001N003619999999N999999999-02441-02721999999ADDAA106000431AA224001631KA1240M-01701KA2240N-02441REMSYN05871223 16/// /3007 11244 21272 69941 333 11170 21244 70016=
0095712230999992017010812004+51930-110720SAO  +077299999V020310190036199999999999999999-02441-02721999999ADDAA101000431REMAWY072XCS SA 1200 AUTO8 M M M M/-24/-27/3107/M/0004 PCPN 0.4MM PAST HR M 42MM=
0095712230999992017010813004+51930-110720SAO  +077299999V020300190057199999999999999999-02481-02761999999ADDAA101000531REMAWY072XCS SA 1300 AUTO8 M M M M/-25/-28/3011/M/0005 PCPN 0.5MM PAST HR M 86MM=
0062712230999992017010814004+51930-110720SAO  +077299999V020320190057199999999999999999-02371-02641999999REMAWY053XCS SA 1400 AUTO8 M M M M/-24/-26/3211/M/0005 M 74MM=
0063712230999992017010815004+51933-110700FM-12+077299999V0203201N002619999999N999999999-02291-02551999999ADDAA103001031REMSYN04071223 26/// /3205 11229 21255 333 60017=
0095712230999992017010815004+51930-110720SAO  +077299999V020320190026199999999999999999-02291-02551999999ADDAA101000531REMAWY072XCS SA 1500 AUTO8 M M M M/-23/-26/3205/M/0010 PCPN 0.5MM PAST HR M 95MM=
0062712230999992017010816004+51930-110720SAO  +077299999V020330190036199999999999999999-02231-02481999999REMAWY053XCS SA 1600 AUTO8 M M M M/-22/-25/3307/M/0010 M 38MM=
0062712230999992017010817004+51930-110720SAO  +077299999V020330190036199999999999999999-02191-02351999999REMAWY053XCS SA 1700 AUTO8 M M M M/-22/-24/3307/M/0010 M 95MM=
0132712230999992017010818004+51933-110700FM-12+077299999V0203301N002119999999N999999999-02191-02441999999ADDAA106001031AA224001431AZ141021KA1120M-01861KA2120N-02491REMSYN06471223 17/// /3304 11219 21244 60011 7//4/ 333 11186 21249 70014=
0062712230999992017010818004+51930-110720SAO  +077299999V020340190021199999999999999999-02191-02441999999REMAWY053XCS SA 1800 AUTO8 M M M M/-22/-24/3404/M/0010 M 94MM=
0058712230999992017010819004+51930-110720SAO  +077299999V020360190015199999999999999999-02171-02421999999REMAWY049XCS SA 1900 AUTO8 M M M M/-22/-24/3603/M/ M 72MM=
0058712230999992017010820004+51930-110720SAO  +077299999V020360190005199999999999999999-02111-02351999999REMAWY049XCS SA 2000 AUTO8 M M M M/-21/-24/3601/M/ M 15MM=
0063712230999992017010821004+51933-110700FM-12+077299999V0201201N001519999999N999999999-02001-02231999999ADDAA103000091REMSYN04071223 26/// /1203 11200 21223 333 60007=
0058712230999992017010821004+51930-110720SAO  +077299999V020120190015199999999999999999-02001-02231999999REMAWY049XCS SA 2100 AUTO8 M M M M/-20/-22/1203/M/ M 03MM=
0058712230999992017010822004+51930-110720SAO  +077299999V020090190015199999999999999999-01981-02201999999REMAWY049XCS SA 2200 AUTO8 M M M M/-20/-22/0903/M/ M 80MM=
0058712230999992017010823004+51930-110720SAO  +077299999V020180190021199999999999999999-02211-02351999999REMAWY049XCS SA 2300 AUTO8 M M M M/-22/-24/1804/M/ M 15MM=
0118712230999992017010900004+51933-110700FM-12+077299999V0201001N002119999999N999999999-02131-02371999999ADDAA106001031AA224002331KA1120M-01871KA2120N-02491REMSYN05871223 16/// /1004 11213 21237 60011 333 11187 21249 70023=
0095712230999992017010900004+51930-110720SAO  +077299999V020100190021199999999999999999-02131-02371999999ADDAA101001031REMAWY072XCS SA 0000 AUTO8 M M M M/-21/-24/1004/M/0010 PCPN 1.0MM PAST HR M 37MM=
0058712230999992017010901004+51930-110720SAO  +077299999V020100190031199999999999999999-02131-02371999999REMAWY049XCS SA 0100 AUTO8 M M M M/-21/-24/1006/M/ M 37MM=
0058712230999992017010902004+51930-110720SAO  +077299999V020120190041199999999999999999-02141-02381999999REMAWY049XCS SA 0200 AUTO8 M M M M/-21/-24/1208/M/ M 48MM=
0063712230999992017010903004+51933-110700FM-12+077299999V0201101N004119999999N999999999-02161-02411999999ADDAA103000091REMSYN04071223 26/// /1108 11216 21241 333 60007=
0058712230999992017010903004+51930-110720SAO  +077299999V020110190041199999999999999999-02161-02411999999REMAWY049XCS SA 0300 AUTO8 M M M M/-22/-24/1108/M/ M 61MM=
0058712230999992017010904004+51930-110720SAO  +077299999V020110190031199999999999999999-02181-02431999999REMAWY049XCS SA 0400 AUTO8 M M M M/-22/-24/1106/M/ M 83MM=
0058712230999992017010905004+51930-110720SAO  +077299999V020090190031199999999999999999-02191-02441999999REMAWY049XCS SA 0500 AUTO8 M M M M/-22/-24/0906/M/ M 94MM=
0134712230999992017010906004+51933-110700FM-12+077299999V0200801N003619999999N999999999-02211-02461999999ADDAA106000091AA224002331KA1240M-01861KA2240N-02491REMSYN07471223 16/// /0807 11221 21246 60001 333 11186 21249 70023 555 33517 40090=
0058712230999992017010906004+51930-110720SAO  +077299999V020080190036199999999999999999-02211-02461999999REMAWY049XCS SA 0600 AUTO8 M M M M/-22/-25/0807/M/ M 16MM=
0058712230999992017010907004+51930-110720SAO  +077299999V020110190031199999999999999999-02191-02441999999REMAWY049XCS SA 0700 AUTO8 M M M M/-22/-24/1106/M/ M 94MM=
0058712230999992017010908004+51930-110720SAO  +077299999V020090190026199999999999999999-02191-02351999999REMAWY049XCS SA 0800 AUTO8 M M M M/-22/-24/0905/M/ M 95MM=
0063712230999992017010909004+51933-110700FM-12+077299999V0200701N004119999999N999999999-02211-02461999999ADDAA103000091REMSYN04071223 26/// /0708 11221 21246 333 60007=
0058712230999992017010909004+51930-110720SAO  +077299999V020070190041199999999999999999-02211-02461999999REMAWY049XCS SA 0900 AUTO8 M M M M/-22/-25/0708/M/ M 16MM=
0058712230999992017010910004+51930-110720SAO  +077299999V020100190015199999999999999999-02191-02441999999REMAWY049XCS SA 1000 AUTO8 M M M M/-22/-24/1003/M/ M 94MM=
0095712230999992017010911004+51930-110720SAO  +077299999V020030190005199999999999999999-02171-02421999999ADDAA101000431REMAWY072XCS SA 1100 AUTO8 M M M M/-22/-24/0301/M/0004 PCPN 0.4MM PAST HR M 72MM=
0132712230999992017010912004+51933-110700FM-12+077299999V0203601N003619999999N999999999-02151-02401999999ADDAA106000431AA224002431AZ141021KA1240M-01861KA2240N-02211REMSYN06471223 17/// /0007 11215 21240 69941 7//4/ 333 11186 21221 70024=
0062712230999992017010912004+51930-110720SAO  +077299999V020360190036199999999999999999-02151-02401999999REMAWY053XCS SA 1200 AUTO8 M M M M/-22/-24/3607/M/0004 M 50MM=
0095712230999992017010913004+51930-110720SAO  +077299999V020360190026199999999999999999-02161-02411999999ADDAA101000631REMAWY072XCS SA 1300 AUTO8 M M M M/-22/-24/3605/M/0006 PCPN 0.6MM PAST HR M 61MM=
0062712230999992017010914004+51930-110720SAO  +077299999V020010190026199999999999999999-02171-02421999999REMAWY053XCS SA 1400 AUTO8 M M M M/-22/-24/0105/M/0006 M 72MM=
0063712230999992017010915004+51933-110700FM-12+077299999V0203501N002119999999N999999999-02171-02421999999ADDAA103001031REMSYN04071223 26/// /3504 11217 21242 333 60017=
0095712230999992017010915004+51930-110720SAO  +077299999V020350190021199999999999999999-02171-02421999999ADDAA101000531REMAWY072XCS SA 1500 AUTO8 M M M M/-22/-24/3504/M/0010 PCPN 0.5MM PAST HR M 72MM=
0062712230999992017010916004+51930-110720SAO  +077299999V020340190021199999999999999999-02171-02421999999REMAWY053XCS SA 1600 AUTO8 M M M M/-22/-24/3404/M/0010 M 72MM=
0062712230999992017010917004+51930-110720SAO  +077299999V020010190031199999999999999999-02221-02471999999REMAWY053XCS SA 1700 AUTO8 M M M M/-22/-25/0106/M/0010 M 27MM=
0132712230999992017010918004+51933-110700FM-12+077299999V0203601N002619999999N999999999-02191-02441999999ADDAA106001031AA224002431AZ141021KA1120M-02151KA2120N-02301REMSYN06471223 17/// /0005 11219 21244 60011 7//4/ 333 11215 21230 70024=
0062712230999992017010918004+51930-110720SAO  +077299999V020360190026199999999999999999-02191-02441999999REMAWY053XCS SA 1800 AUTO8 M M M M/-22/-24/3605/M/0010 M 94MM=
0058712230999992017010919004+51930-110720SAO  +077299999V020290190021199999999999999999-02101-02331999999REMAWY049XCS SA 1900 AUTO8 M M M M/-21/-23/2904/M/ M 03MM=
0058712230999992017010920004+51930-110720SAO  +077299999V020350190031199999999999999999-02081-02331999999REMAWY049XCS SA 2000 AUTO8 M M M M/-21/-23/3506/M/ M 83MM=
0063712230999992017010921004+51933-110700FM-12+077299999V0203301N003619999999N999999999-02131-02371999999ADDAA103000091REMSYN04071223 26/// /3307 11213 21237 333 60007=
0058712230999992017010921004+51930-110720SAO  +077299999V020330190036199999999999999999-02121-02371999999REMAWY049XCS SA 2100 AUTO8 M M M M/-21/-24/3307/M/ M 27MM=
0058712230999992017010922004+51930-110720SAO  +077299999V020320190031199999999999999999-02081-02331999999REMAWY049XCS SA 2200 AUTO8 M M M M/-21/-23/3206/M/ M 83MM=
0058712230999992017010923004+51930-110720SAO  +077299999V020330190041199999999999999999-02131-02391999999REMAWY049XCS SA 2300 AUTO8 M M M M/-21/-24/3308/M/ M 39MM=
0118712230999992017011000004+51933-110700FM-12+077299999V0202901N002619999999N999999999-02251-02501999999ADDAA106000091AA224001531KA1120M-02071KA2120N-02271REMSYN05871223 16/// /2905 11225 21250 60001 333 11207 21227 70015=
0058712230999992017011000004+51930-110720SAO  +077299999V020300190026199999999999999999-02151-02501999999REMAWY049XCS SA 0000 AUTO8 M M M M/-22/-25/3005/M/ M 50MM=
0058712230999992017011001004+51930-110720SAO  +077299999V020310190057199999999999999999-02121-02361999999REMAWY049XCS SA 0100 AUTO8 M M M M/-21/-24/3111/M/ M 26MM=
0058712230999992017011002004+51930-110720SAO  +077299999V020310190057199999999999999999-02131-02391999999REMAWY049XCS SA 0200 AUTO8 M M M M/-21/-24/3111/M/ M 39MM=
0063712230999992017011003004+51933-110700FM-12+077299999V0202801N004619999999N999999999-02221-02471999999ADDAA103000091REMSYN04071223 26/// /2809 11222 21247 333 60007=
0058712230999992017011003004+51930-110720SAO  +077299999V020280190046199999999999999999-02211-02471999999REMAWY049XCS SA 0300 AUTO8 M M M M/-22/-25/2809/M/ M 17MM=
0058712230999992017011004004+51930-110720SAO  +077299999V020280190041199999999999999999-02311-02581999999REMAWY049XCS SA 0400 AUTO8 M M M M/-23/-26/2808/M/ M 18MM=
0058712230999992017011005004+51930-110720SAO  +077299999V020280190041199999999999999999-02141-02381999999REMAWY049XCS SA 0500 AUTO8 M M M M/-21/-24/2808/M/ M 48MM=
0118712230999992017011006004+51933-110700FM-12+077299999V0202801N004619999999N999999999-02051-02291999999ADDAA106000531AA224001931KA1240M-02051KA2240N-02341REMSYN05871223 16/// /2809 11205 21229 69951 333 11205 21234 70019=
0095712230999992017011006004+51930-110720SAO  +077299999V020280190046199999999999999999-02051-02291999999ADDAA101000531REMAWY072XCS SA 0600 AUTO8 M M M M/-21/-23/2809/M/0005 PCPN 0.5MM PAST HR M 59MM=
0058712230999992017011007004+51930-110720SAO  +077299999V020310190062199999999999999999-01921-02151999999REMAWY049XCS SA 0700 AUTO8 M M M M/-19/-22/3112/M/ M 25MM=
0058712230999992017011008004+51930-110720SAO  +077299999V020300190057199999999999999999-02051-02291999999REMAWY049XCS SA 0800 AUTO8 M M M M/-21/-23/3011/M/ M 59MM=
0063712230999992017011009004+51933-110700FM-12+077299999V0202801N005719999999N999999999-02231-02491999999ADDAA103000091REMSYN04071223 26/// /2811 11223 21249 333 60007=
0058712230999992017011009004+51930-110720SAO  +077299999V020280190057199999999999999999-02231-02491999999REMAWY049XCS SA 0900 AUTO8 M M M M/-22/-25/2811/M/ M 39MM=
0058712230999992017011010004+51930-110720SAO  +077299999V020280190057199999999999999999-02261-02511999999REMAWY049XCS SA 1000 AUTO8 M M M M/-23/-25/2811/M/ M 61MM=
0058712230999992017011011004+51930-110720SAO  +077299999V020280190067199999999999999999-02341-02601999999REMAWY049XCS SA 1100 AUTO8 M M M M/-23/-26/2813/M/ M 40MM=
0118712230999992017011012004+51933-110700FM-12+077299999V0202901N006219999999N999999999-02321-02581999999ADDAA106000091AA224001531KA1240M-02051KA2240N-02361REMSYN05871223 16/// /2912 11232 21258 60001 333 11205 21236 70015=
0058712230999992017011012004+51930-110720SAO  +077299999V020290190062199999999999999999-02321-02581999999REMAWY049XCS SA 1200 AUTO8 M M M M/-23/-26/2912/M/ M 28MM=
0058712230999992017011013004+51930-110720SAO  +077299999V020280190051199999999999999999-02371-02641999999REMAWY049XCS SA 1300 AUTO8 M M M M/-24/-26/2810/M/ M 74MM=
0058712230999992017011014004+51930-110720SAO  +077299999V020290190057199999999999999999-02451-02731999999REMAWY049XCS SA 1400 AUTO8 M M M M/-25/-27/2911/M/ M 53MM=
0063712230999992017011015004+51933-110700FM-12+077299999V0202801N005719999999N999999999-02391-02671999999ADDAA103000091REMSYN04071223 26/// /2811 11239 21267 333 60007=
0058712230999992017011015004+51930-110720SAO  +077299999V020280190057199999999999999999-02391-02671999999REMAWY049XCS SA 1500 AUTO8 M M M M/-24/-27/2811/M/ M 97MM=
0058712230999992017011016004+51930-110720SAO  +077299999V020280190057199999999999999999-02431-02711999999REMAWY049XCS SA 1600 AUTO8 M M M M/-24/-27/2811/M/ M 31MM=
0058712230999992017011017004+51930-110720SAO  +077299999V020290190051199999999999999999-02471-02751999999REMAWY049XCS SA 1700 AUTO8 M M M M/-25/-28/2910/M/ M 75MM=
0118712230999992017011018004+51933-110700FM-12+077299999V0202801N004619999999N999999999-02231-02481999999ADDAA106000091AA224000531KA1120M-01921KA2120N-02531REMSYN05871223 16/// /2809 11223 21248 60001 333 11192 21253 70005=
0058712230999992017011018004+51930-110720SAO  +077299999V020280190046199999999999999999-02231-02481999999REMAWY049XCS SA 1800 AUTO8 M M M M/-22/-25/2809/M/ M 38MM=
0058712230999992017011019004+51930-110720SAO  +077299999V020210190026199999999999999999-02201-02461999999REMAWY049XCS SA 1900 AUTO8 M M M M/-22/-25/2105/M/ M 06MM=
0058712230999992017011020004+51930-110720SAO  +077299999V020230190031199999999999999999-02191-02441999999REMAWY049XCS SA 2000 AUTO8 M M M M/-22/-24/2306/M/ M 94MM=
0063712230999992017011021004+51933-110700FM-12+077299999V0203001N007219999999N999999999-02001-02261999999ADDAA103000091REMSYN04071223 26/// /3014 11200 21226 333 60007=
0093712230999992017011021004+51930-110720SAO  +077299999V020300190072199999999999999999-02001-02261999999ADDOD130100931310REMAWY067XCS SA 2100 AUTO8 M M M M/-20/-23/3014/M/ PK WND 3118 2056Z M 06MM=
0093712230999992017011022004+51930-110720SAO  +077299999V020320190072199999999999999999-02021-02281999999ADDOD130101031310REMAWY067XCS SA 2200 AUTO8 M M M M/-20/-23/3214/M/ PK WND 3120 2110Z M 28MM=
0093712230999992017011023004+51930-110720SAO  +077299999V020320190057199999999999999999-02181-02351999999ADDOD130100931330REMAWY067XCS SA 2300 AUTO8 M M M M/-22/-24/3211/M/ PK WND 3318 2205Z M 85MM=
0118712230999992017011100004+51933-110700FM-12+077299999V0203301N006719999999N999999999-02341-02621999999ADDAA106000091AA224000531KA1120M-01961KA2120N-02531REMSYN05871223 16/// /3313 11234 21262 60001 333 11196 21253 70005=
0093712230999992017011100004+51930-110720SAO  +077299999V020330190067199999999999999999-02341-02621999999ADDOD130100871320REMAWY067XCS SA 0000 AUTO8 M M M M/-23/-26/3313/M/ PK WND 3217 2349Z M 42MM=
0093712230999992017011101004+51930-110720SAO  +077299999V020310190057199999999999999999-02491-02761999999ADDOD130100931330REMAWY067XCS SA 0100 AUTO8 M M M M/-25/-28/3111/M/ PK WND 3318 0004Z M 96MM=
0058712230999992017011102004+51930-110720SAO  +077299999V020300190062199999999999999999-02551-02861999999REMAWY049XCS SA 0200 AUTO8 M M M M/-26/-29/3012/M/ M 56MM=
0063712230999992017011103004+51933-110700FM-12+077299999V0202801N005719999999N999999999-02641-02931999999ADDAA103000091REMSYN04071223 26/// /2811 11264 21293 333 60007=
0058712230999992017011103004+51930-110720SAO  +077299999V020280190057199999999999999999-02641-02931999999REMAWY049XCS SA 0300 AUTO8 M M M M/-26/-29/2811/M/ M 43MM=
0058712230999992017011104004+51930-110720SAO  +077299999V020280190057199999999999999999-02761-03071999999REMAWY049XCS SA 0400 AUTO8 M M M M/-28/-31/2811/M/ M 67MM=
0058712230999992017011105004+51930-110720SAO  +077299999V020260190057199999999999999999-02891-03231999999REMAWY049XCS SA 0500 AUTO8 M M M M/-29/-32/2611/M/ M 93MM=
0134712230999992017011106004+51933-110700FM-12+077299999V0202601N006719999999N999999999-02801-03121999999ADDAA106000831AA224000831KA1240M-01921KA2240N-02921REMSYN07471223 16/// /2613 11280 21312 69981 333 11192 21292 70008 555 33120 40221=
0095712230999992017011106004+51930-110720SAO  +077299999V020260190067199999999999999999-02801-03121999999ADDAA101000831REMAWY072XCS SA 0600 AUTO8 M M M M/-28/-31/2613/M/0008 PCPN 0.8MM PAST HR M 02MM=
0093712230999992017011107004+51930-110720SAO  +077299999V020260190077199999999999999999-02621-02941999999ADDOD130100931260REMAWY067XCS SA 0700 AUTO8 M M M M/-26/-29/2615/M/ PK WND 2618 0652Z M 24MM=
0093712230999992017011108004+51930-110720SAO  +077299999V020260190082199999999999999999-02741-03061999999ADDOD130100981250REMAWY067XCS SA 0800 AUTO8 M M M M/-27/-31/2616/M/ PK WND 2519 0729Z M 46MM=
0063712230999992017011109004+51933-110700FM-12+077299999V0202601N008219999999N999999999-02721-03051999999ADDAA103000091REMSYN04071223 26/// /2616 11272 21305 333 60007=
0093712230999992017011109004+51930-110720SAO  +077299999V020260190082199999999999999999-02721-02951999999ADDOD130101031250REMAWY067XCS SA 0900 AUTO8 M M M M/-27/-30/2616/M/ PK WND 2520 0835Z M 25MM=
0093712230999992017011110004+51930-110720SAO  +077299999V020250190072199999999999999999-02371-02551999999ADDOD130100871260REMAWY067XCS SA 1000 AUTO8 M M M M/-24/-26/2514/M/ PK WND 2617 0900Z M 75MM=
0093712230999992017011111004+51930-110720SAO  +077299999V020240190072199999999999999999-02121-02381999999ADDOD130100931250REMAWY067XCS SA 1100 AUTO8 M M M M/-21/-24/2414/M/ PK WND 2518 1005Z M 28MM=
0118712230999992017011112004+51933-110700FM-12+077299999V0202301N006719999999N999999999-02111-02351999999ADDAA106000091AA224000831KA1240M-01921KA2240N-02921REMSYN05871223 16/// /2313 11211 21235 60001 333 11192 21292 70008=
0058712230999992017011112004+51930-110720SAO  +077299999V020230190067199999999999999999-02111-02351999999REMAWY049XCS SA 1200 AUTO8 M M M M/-21/-24/2313/M/ M 15MM=
0093712230999992017011113004+51930-110720SAO  +077299999V020240190098199999999999999999-02021-02281999999ADDOD130101081240REMAWY067XCS SA 1300 AUTO8 M M M M/-20/-23/2419/M/ PK WND 2421 1300Z M 28MM=
0093712230999992017011114004+51930-110720SAO  +077299999V020240190113199999999999999999-01901-02161999999ADDOD130101341240REMAWY067XCS SA 1400 AUTO8 M M M M/-19/-22/2422/M/ PK WND 2426 1350Z M 06MM=
0063712230999992017011115004+51933-110700FM-12+077299999V0202401N010819999999N999999999-01961-02241999999ADDAA103000091REMSYN04071223 26/// /2421 11196 21224 333 60007=
0093712230999992017011115004+51930-110720SAO  +077299999V020240190108199999999999999999-01961-02241999999ADDOD130101391240REMAWY067XCS SA 1500 AUTO8 M M M M/-20/-22/2421/M/ PK WND 2427 1445Z M 64MM=
0093712230999992017011116004+51930-110720SAO  +077299999V020250190118199999999999999999-01561-01881999999ADDOD130101441250REMAWY067XCS SA 1600 AUTO8 M M M M/-16/-19/2523/M/ PK WND 2528 1527Z M 68MM=
0093712230999992017011117004+51930-110720SAO  +077299999V020260190128199999999999999999-01401-01761999999ADDOD130101591250REMAWY067XCS SA 1700 AUTO8 M M M M/-14/-18/2625/M/ PK WND 2531 1615Z M 06MM=
0118712230999992017011118004+51933-110700FM-12+077299999V0202701N011319999999N999999999-01161-01551999999ADDAA106000091AA224000831KA1120M-01161KA2120N-02921REMSYN05871223 16/// /2722 11116 21155 60001 333 11116 21292 70008=
0093712230999992017011118004+51930-110720SAO  +077299999V020270190113199999999999999999-01161-01551999999ADDOD130101441280REMAWY067XCS SA 1800 AUTO8 M M M M/-12/-16/2722/M/ PK WND 2828 1752Z M 65MM=
0093712230999992017011119004+51930-110720SAO  +077299999V020270190113199999999999999999-00951-01481999999ADDOD130101341280REMAWY067XCS SA 1900 AUTO8 M M M M/-10/-15/2722/M/ PK WND 2826 1819Z M 58MM=
0093712230999992017011120004+51930-110720SAO  +077299999V020270190113199999999999999999-00961-01411999999ADDOD130101491270REMAWY067XCS SA 2000 AUTO8 M M M M/-10/-14/2722/M/ PK WND 2729 1949Z M 61MM=
0063712230999992017011121004+51933-110700FM-12+077299999V0202701N010819999999N999999999-00851-01271999999ADDAA103000091REMSYN04071223 26/// /2721 11085 21127 333 60007=
0093712230999992017011121004+51930-110720SAO  +077299999V020270190108199999999999999999-00851-01271999999ADDOD130101391270REMAWY067XCS SA 2100 AUTO8 M M M M/-09/-13/2721/M/ PK WND 2727 2028Z M 57MM=
0127712230999992017011122004+51930-110720SAO  +077299999V020270190134199999999999999999-00751-01181999999ADDAA101001531OD130101701270REMAWY090XCS SA 2200 AUTO8 M M M M/-08/-12/2726/M/0015 PCPN 1.5MM PAST HR PK WND 2733 2151Z M 58MM=
0097712230999992017011123004+51930-110720SAO  +077299999V020270190123199999999999999999-00721-01161999999ADDOD130101701270REMAWY071XCS SA 2300 AUTO8 M M M M/-07/-12/2724/M/0015 PK WND 2733 2201Z M 26MM=
0132712230999992017011200004+51933-110700FM-12+077299999V0203001N016019999999N999999999-00711-01141999999ADDAA106002031AA224002331AZ141021KA1120M-00701KA2120N-02801REMSYN06471223 17/// /3031 11071 21114 60021 7//4/ 333 11070 21280 70023=
0097712230999992017011200004+51930-110720SAO  +077299999V020300190159199999999999999999-00711-01141999999ADDOD130102261300REMAWY071XCS SA 0000 AUTO8 M M M M/-07/-11/3031/M/0015 PK WND 3044 2351Z M 14MM=
0093712230999992017011201004+51930-110720SAO  +077299999V020310190144199999999999999999-00861-01211999999ADDOD130102111310REMAWY067XCS SA 0100 AUTO8 M M M M/-09/-12/3128/M/ PK WND 3141 0008Z M 61MM=
0093712230999992017011202004+51930-110720SAO  +077299999V020350190123199999999999999999-01641-01751999999ADDOD130101951320REMAWY067XCS SA 0200 AUTO8 M M M M/-16/-18/3524/M/ PK WND 3238 0108Z M 45MM=
0063712230999992017011203004+51933-110700FM-12+077299999V0203401N011319999999N999999999-01911-02161999999ADDAA103000091REMSYN04071223 26/// /3422 11191 21216 333 60007=
0093712230999992017011203004+51930-110720SAO  +077299999V020340190113199999999999999999-01911-02161999999ADDOD130101951330REMAWY067XCS SA 0300 AUTO8 M M M M/-19/-22/3422/M/ PK WND 3338 0246Z M 16MM=
0093712230999992017011204004+51930-110720SAO  +077299999V020340190093199999999999999999-02141-02491999999ADDOD130101541330REMAWY067XCS SA 0400 AUTO8 M M M M/-21/-25/3418/M/ PK WND 3330 0341Z M 49MM=
0093712230999992017011205004+51930-110720SAO  +077299999V020330190072199999999999999999-02221-02661999999ADDOD130101391350REMAWY067XCS SA 0500 AUTO8 M M M M/-22/-27/3314/M/ PK WND 3527 0405Z M 26MM=
0134712230999992017011206004+51933-110700FM-12+077299999V0203201N006719999999N999999999-02361-02781999999ADDAA106000091AA224001531KA1240M-00701KA2240N-02801REMSYN07471223 16/// /3213 11236 21278 60001 333 11070 21280 70015 555 33044 40003=
0093712230999992017011206004+51930-110720SAO  +077299999V020320190067199999999999999999-02361-02781999999ADDOD130101131330REMAWY067XCS SA 0600 AUTO8 M M M M/-24/-28/3213/M/ PK WND 3322 0508Z M 68MM=
0093712230999992017011207004+51930-110720SAO  +077299999V020320190082199999999999999999-02411-02861999999ADDOD130101081330REMAWY067XCS SA 0700 AUTO8 M M M M/-24/-29/3216/M/ PK WND 3321 0641Z M 16MM=
0093712230999992017011208004+51930-110720SAO  +077299999V020330190072199999999999999999-02521-02951999999ADDOD130101031320REMAWY067XCS SA 0800 AUTO8 M M M M/-25/-30/3314/M/ PK WND 3220 0714Z M 25MM=
0063712230999992017011209004+51933-110700FM-12+077299999V0203101N005719999999N999999999-02731-03071999999ADDAA103000091REMSYN04071223 26/// /3111 11273 21307 333 60007=
0058712230999992017011209004+51930-110720SAO  +077299999V020310190057199999999999999999-02731-03071999999REMAWY049XCS SA 0900 AUTO8 M M M M/-27/-31/3111/M/ M 37MM=
0058712230999992017011210004+51930-110720SAO  +077299999V020300190031199999999999999999-02911-03291999999REMAWY049XCS SA 1000 AUTO8 M M M M/-29/-33/3006/M/ M 19MM=
0058712230999992017011211004+51930-110720SAO  +077299999V020290190015199999999999999999-02901-03291999999REMAWY049XCS SA 1100 AUTO8 M M M M/-29/-33/2903/M/ M 09MM=
0118712230999992017011212004+51933-110700FM-12+077299999V0202401N003119999999N999999999-03121-03491999999ADDAA106000091AA224001531KA1240M-00701KA2240N-03121REMSYN05871223 16/// /2406 11312 21349 60001 333 11070 21312 70015=
0058712230999992017011212004+51930-110720SAO  +077299999V020240190031199999999999999999-03121-03491999999REMAWY049XCS SA 1200 AUTO8 M M M M/-31/-35/2406/M/ M 29MM=
0095712230999992017011213004+51930-110720SAO  +077299999V020270190041199999999999999999-03021-03381999999ADDAA101001431REMAWY072XCS SA 1300 AUTO8 M M M M/-30/-34/2708/M/0014 PCPN 1.4MM PAST HR M 28MM=
0095712230999992017011214004+51930-110720SAO  +077299999V020260190051199999999999999999-03111-03461999999ADDAA101000531REMAWY072XCS SA 1400 AUTO8 M M M M/-31/-35/2610/M/0019 PCPN 0.5MM PAST HR M 16MM=
0063712230999992017011215004+51933-110700FM-12+077299999V0202701N002619999999N999999999-03091-03451999999ADDAA103002031REMSYN04071223 26/// /2705 11309 21345 333 60027=
0062712230999992017011215004+51930-110720SAO  +077299999V020270190026199999999999999999-03091-03351999999REMAWY053XCS SA 1500 AUTO8 M M M M/-31/-34/2705/M/0019 M 95MM=
0095712230999992017011216004+51930-110720SAO  +077299999V020150190015199999999999999999-03111-03481999999ADDAA101000531REMAWY072XCS SA 1600 AUTO8 M M M M/-31/-35/1503/M/0024 PCPN 0.5MM PAST HR M 18MM=
0062712230999992017011217004+51930-110720SAO  +077299999V020150190015199999999999999999-02861-03201999999REMAWY053XCS SA 1700 AUTO8 M M M M/-29/-32/1503/M/0024 M 60MM=
0132712230999992017011218004+51933-110700FM-12+077299999V0201401N000519999999N999999999-02681-03001999999ADDAA106002031AA224004031AZ141021KA1120M-02361KA2120N-03281REMSYN06471223 17/// /1401 11268 21300 60021 7//4/ 333 11236 21328 70040=
0062712230999992017011218004+51930-110720SAO  +077299999V020140190005199999999999999999-02681-03001999999REMAWY053XCS SA 1800 AUTO8 M M M M/-27/-30/1401/M/0024 M 80MM=
0058712230999992017011219004+51930-110720SAO  +077299999V020140190015199999999999999999-02601-03001999999REMAWY049XCS SA 1900 AUTO8 M M M M/-26/-30/1403/M/ M 00MM=
0058712230999992017011220004+51930-110720SAO  +077299999V020130190026199999999999999999-02251-02791999999REMAWY049XCS SA 2000 AUTO8 M M M M/-23/-28/1305/M/ M 59MM=
0063712230999992017011221004+51933-110700FM-12+077299999V0201001N003619999999N999999999-02151-02621999999ADDAA103000091REMSYN04071223 26/// /1007 11215 21262 333 60007=
0058712230999992017011221004+51930-110720SAO  +077299999V020100190036199999999999999999-02151-02621999999REMAWY049XCS SA 2100 AUTO8 M M M M/-22/-26/1007/M/ M 52MM=
0058712230999992017011222004+51930-110720SAO  +077299999V020120190041199999999999999999-02121-02561999999REMAWY049XCS SA 2200 AUTO8 M M M M/-21/-26/1208/M/ M 26MM=
0058712230999992017011223004+51930-110720SAO  +077299999V020130190041199999999999999999-02191-02621999999REMAWY049XCS SA 2300 AUTO8 M M M M/-22/-26/1308/M/ M 92MM=
0118712230999992017011300004+51933-110700FM-12+077299999V0201401N004119999999N999999999-02271-02711999999ADDAA106000091AA224002431KA1120M-02101KA2120N-03281REMSYN05871223 16/// /1408 11227 21271 60001 333 11210 21328 70024=
0058712230999992017011300004+51930-110720SAO  +077299999V020140190041199999999999999999-02271-02711999999REMAWY049XCS SA 0000 AUTO8 M M M M/-23/-27/1408/M/ M 71MM=
0058712230999992017011302004+51930-110720SAO  +077299999V020120190041199999999999999999-02401-02821999999REMAWY049XCS SA 0200 AUTO8 M M M M/-24/-28/1208/M/ M 02MM=
0063712230999992017011303004+51933-110700FM-12+077299999V0201301N003619999999N999999999-02391-02841999999ADDAA103000091REMSYN04071223 26/// /1307 11239 21284 333 60007=
0058712230999992017011303004+51930-110720SAO  +077299999V020130190036199999999999999999-02391-02841999999REMAWY049XCS SA 0300 AUTO8 M M M M/-24/-28/1307/M/ M 94MM=
0059712230999992017011305004+51930-110720SAO  +077299999V020090190015199999999999999999-02641-03021999999REMAWY050XCS SA 0500 AUTO8 M M M M/-26/-30/0903/M/M M 42MM=
0096712230999992017011306004+51933-110700FM-12+077299999V0201401N001019999999N999999999-02661-03001999999ADDAA106999919AA224999919REMSYN06271223 46/// /1402 11266 21300 6///1 333 7//// 555 33321 4007/=
0059712230999992017011306004+51930-110720SAO  +077299999V020140190010199999999999999999-02661-03001999999REMAWY050XCS SA 0600 AUTO8 M M M M/-27/-30/1402/M/M M 60MM=
0095712230999992017011307004+51930-110720SAO  +077299999V020210190036199999999999999999-02491-02841999999ADDAA101001231REMAWY072XCS SA 0700 AUTO8 M M M M/-25/-28/2107/M/0012 PCPN 1.2MM PAST HR M 94MM=
0062712230999992017011308004+51930-110720SAO  +077299999V020240190062199999999999999999-02421-02751999999REMAWY053XCS SA 0800 AUTO8 M M M M/-24/-28/2412/M/0012 M 25MM=
0063712230999992017011309004+51933-110700FM-12+077299999V0202401N004619999999N999999999-02281-02581999999ADDAA103001031REMSYN04071223 26/// /2409 11228 21258 333 60017=
0062712230999992017011309004+51930-110720SAO  +077299999V020240190046199999999999999999-02281-02581999999REMAWY053XCS SA 0900 AUTO8 M M M M/-23/-26/2409/M/0012 M 88MM=
0062712230999992017011310004+51930-110720SAO  +077299999V020270190051199999999999999999-01921-02341999999REMAWY053XCS SA 1000 AUTO8 M M M M/-19/-23/2710/M/0012 M 24MM=
0062712230999992017011311004+51930-110720SAO  +077299999V020280190041199999999999999999-01791-02181999999REMAWY053XCS SA 1100 AUTO8 M M M M/-18/-22/2808/M/0012 M 98MM=
0080712230999992017011312004+51933-110700FM-12+077299999V0202801N003119999999N999999999-02001-02261999999ADDAA106001031AA224999919REMSYN04671223 16/// /2806 11200 21226 60011 333 7////=
0062712230999992017011312004+51930-110720SAO  +077299999V020280190031199999999999999999-02001-02261999999REMAWY053XCS SA 1200 AUTO8 M M M M/-20/-23/2806/M/0012 M 06MM=
0058712230999992017011313004+51930-110720SAO  +077299999V020290190057199999999999999999-01861-02211999999REMAWY049XCS SA 1300 AUTO8 M M M M/-19/-22/2911/M/ M 61MM=
0058712230999992017011314004+51930-110720SAO  +077299999V020260190041199999999999999999-01991-02291999999REMAWY049XCS SA 1400 AUTO8 M M M M/-20/-23/2608/M/ M 99MM=
0063712230999992017011315004+51933-110700FM-12+077299999V0202601N006719999999N999999999-01411-01811999999ADDAA103000091REMSYN04071223 26/// /2613 11141 21181 333 60007=
0058712230999992017011315004+51930-110720SAO  +077299999V020260190067199999999999999999-01411-01811999999REMAWY049XCS SA 1500 AUTO8 M M M M/-14/-18/2613/M/ M 11MM=
0058712230999992017011316004+51930-110720SAO  +077299999V020270190062199999999999999999-01151-01731999999REMAWY049XCS SA 1600 AUTO8 M M M M/-12/-17/2712/M/ M 53MM=
0058712230999992017011317004+51930-110720SAO  +077299999V020220190046199999999999999999-01531-01951999999REMAWY049XCS SA 1700 AUTO8 M M M M/-15/-20/2209/M/ M 35MM=
0099712230999992017011318004+51933-110700FM-12+077299999V0202501N006719999999N999999999-01091-01581999999ADDAA106000091AA224999919KA1120M-01091REMSYN05271223 16/// /2513 11109 21158 60001 333 11109 7////=
0058712230999992017011318004+51930-110720SAO  +077299999V020250190067199999999999999999-01091-01581999999REMAWY049XCS SA 1800 AUTO8 M M M M/-11/-16/2513/M/ M 98MM=
0058712230999992017011319004+51930-110720SAO  +077299999V020250190067199999999999999999-00861-01411999999REMAWY049XCS SA 1900 AUTO8 M M M M/-09/-14/2513/M/ M 61MM=
0093712230999992017011320004+51930-110720SAO  +077299999V020250190077199999999999999999-00811-01371999999ADDOD130100871260REMAWY067XCS SA 2000 AUTO8 M M M M/-08/-14/2515/M/ PK WND 2617 1928Z M 17MM=
0063712230999992017011321004+51933-110700FM-12+077299999V0202101N005719999999N999999999-01021-01481999999ADDAA103000091REMSYN04071223 26/// /2111 11102 21148 333 60007=
0058712230999992017011321004+51930-110720SAO  +077299999V020210190057199999999999999999-01021-01481999999REMAWY049XCS SA 2100 AUTO8 M M M M/-10/-15/2111/M/ M 28MM=
0093712230999992017011322004+51930-110720SAO  +077299999V020240190067199999999999999999-00821-01381999999ADDOD130100871230REMAWY067XCS SA 2200 AUTO8 M M M M/-08/-14/2413/M/ PK WND 2317 2148Z M 28MM=
0093712230999992017011323004+51930-110720SAO  +077299999V020210190051199999999999999999-01001-01441999999ADDOD130100871240REMAWY067XCS SA 2300 AUTO8 M M M M/-10/-14/2110/M/ PK WND 2417 2202Z M 04MM=
0118712230999992017011400004+51933-110700FM-12+077299999V0202201N007219999999N999999999-01161-01551999999ADDAA106000091AA224999919KA1120M-00791KA2120N-02661REMSYN05871223 16/// /2214 11116 21155 60001 333 11079 21266 7////=
0093712230999992017011400004+51930-110720SAO  +077299999V020220190072199999999999999999-01161-01551999999ADDOD130100871230REMAWY067XCS SA 0000 AUTO8 M M M M/-12/-16/2214/M/ PK WND 2317 2330Z M 65MM=
0093712230999992017011401004+51930-110720SAO  +077299999V020230190067199999999999999999-01161-01531999999ADDOD130100931230REMAWY067XCS SA 0100 AUTO8 M M M M/-12/-15/2313/M/ PK WND 2318 0059Z M 63MM=
0093712230999992017011402004+51930-110720SAO  +077299999V020230190082199999999999999999-01191-01631999999ADDOD130100981230REMAWY067XCS SA 0200 AUTO8 M M M M/-12/-16/2316/M/ PK WND 2319 0102Z M 93MM=
0063712230999992017011403004+51933-110700FM-12+077299999V0202301N007219999999N999999999-01071-01561999999ADDAA103000091REMSYN04071223 26/// /2314 11107 21156 333 60007=
0093712230999992017011403004+51930-110720SAO  +077299999V020230190072199999999999999999-01071-01561999999ADDOD130100871240REMAWY067XCS SA 0300 AUTO8 M M M M/-11/-16/2314/M/ PK WND 2417 0236Z M 76MM=
0058712230999992017011404004+51930-110720SAO  +077299999V020220190077199999999999999999-01291-01701999999REMAWY049XCS SA 0400 AUTO8 M M M M/-13/-17/2215/M/ M 90MM=
0093712230999992017011405004+51930-110720SAO  +077299999V020230190072199999999999999999-01261-01701999999ADDOD130100871230REMAWY067XCS SA 0500 AUTO8 M M M M/-13/-17/2314/M/ PK WND 2317 0400Z M 60MM=
0134712230999992017011406004+51933-110700FM-12+077299999V0202301N007219999999N999999999-01321-01741999999ADDAA106000091AA224001231KA1240M-00791KA2240N-02661REMSYN07471223 16/// /2314 11132 21174 60001 333 11079 21266 70012 555 32319 40021=
0093712230999992017011406004+51930-110720SAO  +077299999V020230190072199999999999999999-01321-01741999999ADDOD130100871230REMAWY067XCS SA 0600 AUTO8 M M M M/-13/-17/2314/M/ PK WND 2317 0518Z M 24MM=
0058712230999992017011407004+51930-110720SAO  +077299999V020230190072199999999999999999-01301-01731999999REMAWY049XCS SA 0700 AUTO8 M M M M/-13/-17/2314/M/ M 03MM=
0058712230999992017011408004+51930-110720SAO  +077299999V020230190067199999999999999999-01171-01581999999REMAWY049XCS SA 0800 AUTO8 M M M M/-12/-16/2313/M/ M 78MM=
0063712230999992017011409004+51933-110700FM-12+077299999V0202301N008219999999N999999999-01311-01661999999ADDAA103000091REMSYN04071223 26/// /2316 11131 21166 333 60007=
0093712230999992017011409004+51930-110720SAO  +077299999V020230190082199999999999999999-01311-01661999999ADDOD130100981240REMAWY067XCS SA 0900 AUTO8 M M M M/-13/-17/2316/M/ PK WND 2419 0817Z M 16MM=
0058712230999992017011410004+51930-110720SAO  +077299999V020230190062199999999999999999-01481-01791999999REMAWY049XCS SA 1000 AUTO8 M M M M/-15/-18/2312/M/ M 89MM=
0058712230999992017011411004+51930-110720SAO  +077299999V020240190067199999999999999999-01561-01791999999REMAWY049XCS SA 1100 AUTO8 M M M M/-16/-18/2413/M/ M 69MM=
0118712230999992017011412004+51933-110700FM-12+077299999V0202401N006719999999N999999999-01521-01771999999ADDAA106000091AA224000091KA1240M-00791KA2240N-01611REMSYN05871223 16/// /2413 11152 21177 60001 333 11079 21161 70000=
0058712230999992017011412004+51930-110720SAO  +077299999V020240190067199999999999999999-01521-01771999999REMAWY049XCS SA 1200 AUTO8 M M M M/-15/-18/2413/M/ M 27MM=
0058712230999992017011413004+51930-110720SAO  +077299999V020220190046199999999999999999-01721-01941999999REMAWY049XCS SA 1300 AUTO8 M M M M/-17/-19/2209/M/ M 24MM=
0093712230999992017011414004+51930-110720SAO  +077299999V020240190082199999999999999999-01381-01691999999ADDOD130100981240REMAWY067XCS SA 1400 AUTO8 M M M M/-14/-17/2416/M/ PK WND 2419 1348Z M 89MM=
0063712230999992017011415004+51933-110700FM-12+077299999V0202201N008219999999N999999999-01731-01951999999ADDAA103000091REMSYN04071223 26/// /2216 11173 21195 333 60007=
0093712230999992017011415004+51930-110720SAO  +077299999V020220190082199999999999999999-01731-01951999999ADDOD130101031230REMAWY067XCS SA 1500 AUTO8 M M M M/-17/-20/2216/M/ PK WND 2320 1405Z M 35MM=
0093712230999992017011416004+51930-110720SAO  +077299999V020230190087199999999999999999-01401-01751999999ADDOD130101031230REMAWY067XCS SA 1600 AUTO8 M M M M/-14/-18/2317/M/ PK WND 2320 1554Z M 05MM=
0093712230999992017011417004+51930-110720SAO  +077299999V020230190072199999999999999999-01431-01791999999ADDOD130101031230REMAWY067XCS SA 1700 AUTO8 M M M M/-14/-18/2314/M/ PK WND 2320 1608Z M 39MM=
0118712230999992017011418004+51933-110700FM-12+077299999V0202301N007719999999N999999999-01181-01631999999ADDAA106000091AA224000091KA1120M-01121KA2120N-01731REMSYN05871223 16/// /2315 11118 21163 60001 333 11112 21173 70000=
0093712230999992017011418004+51930-110720SAO  +077299999V020230190077199999999999999999-01181-01631999999ADDOD130100981240REMAWY067XCS SA 1800 AUTO8 M M M M/-12/-16/2315/M/ PK WND 2419 1750Z M 83MM=
0093712230999992017011419004+51930-110720SAO  +077299999V020230190082199999999999999999-01091-01571999999ADDOD130101131230REMAWY067XCS SA 1900 AUTO8 M M M M/-11/-16/2316/M/ PK WND 2322 1834Z M 97MM=
0093712230999992017011420004+51930-110720SAO  +077299999V020230190082199999999999999999-00861-01411999999ADDOD130100981220REMAWY067XCS SA 2000 AUTO8 M M M M/-09/-14/2316/M/ PK WND 2219 1907Z M 61MM=
0063712230999992017011421004+51933-110700FM-12+077299999V0202301N007719999999N999999999-00771-01281999999ADDAA103000731REMSYN04071223 26/// /2315 11077 21128 333 69977=
0127712230999992017011421004+51930-110720SAO  +077299999V020230190077199999999999999999-00771-01281999999ADDAA101000731OD130100981230REMAWY090XCS SA 2100 AUTO8 M M M M/-08/-13/2315/M/0007 PCPN 0.7MM PAST HR PK WND 2319 2001Z M 78MM=
0097712230999992017011422004+51930-110720SAO  +077299999V020220190077199999999999999999-00581-01181999999ADDOD130100931230REMAWY071XCS SA 2200 AUTO8 M M M M/-06/-12/2215/M/0007 PK WND 2318 2138Z M 88MM=
0097712230999992017011423004+51930-110720SAO  +077299999V020230190082199999999999999999-00641-01161999999ADDOD130101131240REMAWY071XCS SA 2300 AUTO8 M M M M/-06/-12/2316/M/0007 PK WND 2422 2238Z M 46MM=
0132712230999992017011500004+51933-110700FM-12+077299999V0202301N008219999999N999999999-00791-01321999999ADDAA106000731AA224000731AZ141021KA1120M-00521KA2120N-01731REMSYN06471223 17/// /2316 11079 21132 69971 7//4/ 333 11052 21173 70007=
0097712230999992017011500004+51930-110720SAO  +077299999V020230190082199999999999999999-00791-01321999999ADDOD130100981240REMAWY071XCS SA 0000 AUTO8 M M M M/-08/-13/2316/M/0007 PK WND 2419 2316Z M 92MM=
0093712230999992017011501004+51930-110720SAO  +077299999V020230190087199999999999999999-01011-01441999999ADDOD130101081230REMAWY067XCS SA 0100 AUTO8 M M M M/-10/-14/2317/M/ PK WND 2321 0038Z M 14MM=
0093712230999992017011502004+51930-110720SAO  +077299999V020230190072199999999999999999-00831-01321999999ADDOD130101081230REMAWY067XCS SA 0200 AUTO8 M M M M/-08/-13/2314/M/ PK WND 2321 0136Z M 32MM=
0063712230999992017011503004+51933-110700FM-12+077299999V0202201N007719999999N999999999-01001-01421999999ADDAA103000091REMSYN04071223 26/// /2215 11100 21142 333 60007=
0093712230999992017011503004+51930-110720SAO  +077299999V020220190077199999999999999999-01001-01421999999ADDOD130100981220REMAWY067XCS SA 0300 AUTO8 M M M M/-10/-14/2215/M/ PK WND 2219 0226Z M 02MM=
0093712230999992017011504004+51930-110720SAO  +077299999V020230190087199999999999999999-00891-01321999999ADDOD130101131230REMAWY067XCS SA 0400 AUTO8 M M M M/-09/-13/2317/M/ PK WND 2322 0325Z M 92MM=
0093712230999992017011505004+51930-110720SAO  +077299999V020230190072199999999999999999-01061-01401999999ADDOD130101031230REMAWY067XCS SA 0500 AUTO8 M M M M/-11/-14/2314/M/ PK WND 2320 0401Z M 60MM=
0134712230999992017011506004+51933-110700FM-12+077299999V0202301N009819999999N999999999-00721-01161999999ADDAA106000091AA224000731KA1240M-00521KA2240N-01731REMSYN07471223 16/// /2319 11072 21116 60001 333 11052 21173 70007 555 32323 40061=
0093712230999992017011506004+51930-110720SAO  +077299999V020230190098199999999999999999-00721-01161999999ADDOD130101181230REMAWY067XCS SA 0600 AUTO8 M M M M/-07/-12/2319/M/ PK WND 2323 0557Z M 26MM=
0093712230999992017011507004+51930-110720SAO  +077299999V020230190098199999999999999999-00901-01241999999ADDOD130101181230REMAWY067XCS SA 0700 AUTO8 M M M M/-09/-12/2319/M/ PK WND 2323 0601Z M 04MM=
0093712230999992017011508004+51930-110720SAO  +077299999V020230190072199999999999999999-00921-01271999999ADDOD130101031230REMAWY067XCS SA 0800 AUTO8 M M M M/-09/-13/2314/M/ PK WND 2320 0701Z M 27MM=
0063712230999992017011509004+51933-110700FM-12+077299999V0202401N007719999999N999999999-00821-01161999999ADDAA103000091REMSYN04071223 26/// /2415 11082 21116 333 60007=
0093712230999992017011509004+51930-110720SAO  +077299999V020240190077199999999999999999-00821-01161999999ADDOD130101031240REMAWY067XCS SA 0900 AUTO8 M M M M/-08/-12/2415/M/ PK WND 2420 0838Z M 26MM=
0093712230999992017011510004+51930-110720SAO  +077299999V020230190072199999999999999999-00951-01331999999ADDOD130100871240REMAWY067XCS SA 1000 AUTO8 M M M M/-10/-13/2314/M/ PK WND 2417 0901Z M 53MM=
0093712230999992017011511004+51930-110720SAO  +077299999V020220190057199999999999999999-01141-01391999999ADDOD130100871230REMAWY067XCS SA 1100 AUTO8 M M M M/-11/-14/2211/M/ PK WND 2317 1005Z M 49MM=
0118712230999992017011512004+51933-110700FM-12+077299999V0202501N005119999999N999999999-00731-01081999999ADDAA106000091AA224000731KA1240M-00521KA2240N-01151REMSYN05871223 16/// /2510 11073 21108 60001 333 11052 21115 70007=
0058712230999992017011512004+51930-110720SAO  +077299999V020250190051199999999999999999-00731-01081999999REMAWY049XCS SA 1200 AUTO8 M M M M/-07/-11/2510/M/ M 38MM=
0093712230999992017011513004+51930-110720SAO  +077299999V020230190057199999999999999999-00861-01201999999ADDOD130100871220REMAWY067XCS SA 1300 AUTO8 M M M M/-09/-12/2311/M/ PK WND 2217 1214Z M 60MM=
0093712230999992017011514004+51930-110720SAO  +077299999V020240190051199999999999999999-00861-01181999999ADDOD130100931240REMAWY067XCS SA 1400 AUTO8 M M M M/-09/-12/2410/M/ PK WND 2418 1310Z M 68MM=
0063712230999992017011515004+51933-110700FM-12+077299999V0202901N003619999999N999999999-00411-00921999999ADDAA103000091REMSYN04071223 26/// /2907 11041 21092 333 60007=
0058712230999992017011515004+51930-110720SAO  +077299999V020290190036199999999999999999-00411-00921999999REMAWY049XCS SA 1500 AUTO8 M M M M/-04/-09/2907/M/ M 12MM=
0058712230999992017011516004+51930-110720SAO  +077299999V020300190057199999999999999999-00421-00811999999REMAWY049XCS SA 1600 AUTO8 M M M M/-04/-08/3011/M/ M 21MM=
0058712230999992017011517004+51930-110720SAO  +077299999V020320190051199999999999999999-00471-00911999999REMAWY049XCS SA 1700 AUTO8 M M M M/-05/-09/3210/M/ M 71MM=
0118712230999992017011518004+51933-110700FM-12+077299999V0203201N004619999999N999999999-00281-00761999999ADDAA106000091AA224000731KA1120M-00281KA2120N-01201REMSYN05871223 16/// /3209 11028 21076 60001 333 11028 21120 70007=
0058712230999992017011518004+51930-110720SAO  +077299999V020320190046199999999999999999-00281-00761999999REMAWY049XCS SA 1800 AUTO8 M M M M/-03/-08/3209/M/ M 86MM=
0057712230999992017011519004+51930-110720SAO  +077299999V020280190005199999999999999999+00291-00491999999REMAWY048XCS SA 1900 AUTO8 M M M M/03/-05/2801/M/ M 99MM=
0057712230999992017011520004+51930-110720SAO  +077299999V020230190041199999999999999999+00041-00501999999REMAWY048XCS SA 2000 AUTO8 M M M M/00/-05/2308/M/ M 40MM=
0063712230999992017011521004+51933-110700FM-12+077299999V0202201N004119999999N999999999+00081-00381999999ADDAA103000091REMSYN04071223 26/// /2208 10008 21038 333 60007=
0057712230999992017011521004+51930-110720SAO  +077299999V020220190041199999999999999999+00081-00381999999REMAWY048XCS SA 2100 AUTO8 M M M M/01/-04/2208/M/ M 88MM=
0057712230999992017011522004+51930-110720SAO  +077299999V020230190031199999999999999999+00081-00291999999REMAWY048XCS SA 2200 AUTO8 M M M M/01/-03/2306/M/ M 89MM=
0057712230999992017011523004+51930-110720SAO  +077299999V020270190046199999999999999999+00141-00311999999REMAWY048XCS SA 2300 AUTO8 M M M M/01/-03/2709/M/ M 41MM=
0118712230999992017011600004+51933-110700FM-12+077299999V0202601N004619999999N999999999-00071-00491999999ADDAA106000091AA224000091KA1120M+00421KA2120N-01151REMSYN05871223 16/// /2609 11007 21049 60001 333 10042 21115 70000=
0058712230999992017011600004+51930-110720SAO  +077299999V020260190046199999999999999999-00071-00491999999REMAWY049XCS SA 0000 AUTO8 M M M M/-01/-05/2609/M/ M 79MM=
0058712230999992017011601004+51930-110720SAO  +077299999V020250190057199999999999999999-00201-00501999999REMAWY049XCS SA 0100 AUTO8 M M M M/-02/-05/2511/M/ M 00MM=
0058712230999992017011602004+51930-110720SAO  +077299999V020260190062199999999999999999-00271-00571999999REMAWY049XCS SA 0200 AUTO8 M M M M/-03/-06/2612/M/ M 77MM=
0063712230999992017011603004+51933-110700FM-12+077299999V0202601N004619999999N999999999-00271-00641999999ADDAA103000091REMSYN04071223 26/// /2609 11027 21064 333 60007=
0058712230999992017011603004+51930-110720SAO  +077299999V020260190046199999999999999999-00271-00641999999REMAWY049XCS SA 0300 AUTO8 M M M M/-03/-06/2609/M/ M 74MM=
0058712230999992017011604004+51930-110720SAO  +077299999V020260190051199999999999999999-00481-00791999999REMAWY049XCS SA 0400 AUTO8 M M M M/-05/-08/2610/M/ M 89MM=
0058712230999992017011605004+51930-110720SAO  +077299999V020250190057199999999999999999-00261-00691999999REMAWY049XCS SA 0500 AUTO8 M M M M/-03/-07/2511/M/ M 69MM=
0134712230999992017011606004+51933-110700FM-12+077299999V0202301N005719999999N999999999-00521-00771999999ADDAA106000091AA224000091KA1240M+00421KA2240N-01151REMSYN07471223 16/// /2311 11052 21077 60001 333 10042 21115 70000 555 32323 40071=
0058712230999992017011606004+51930-110720SAO  +077299999V020230190057199999999999999999-00521-00771999999REMAWY049XCS SA 0600 AUTO8 M M M M/-05/-08/2311/M/ M 27MM=
0058712230999992017011607004+51930-110720SAO  +077299999V020230190046199999999999999999-00651-00901999999REMAWY049XCS SA 0700 AUTO8 M M M M/-07/-09/2309/M/ M 50MM=
0058712230999992017011608004+51930-110720SAO  +077299999V020230190072199999999999999999-00671-00911999999REMAWY049XCS SA 0800 AUTO8 M M M M/-07/-09/2314/M/ M 71MM=
0063712230999992017011609004+51933-110700FM-12+077299999V0202401N007719999999N999999999-00411-00841999999ADDAA103000091REMSYN04071223 26/// /2415 11041 21084 333 60007=
0093712230999992017011609004+51930-110720SAO  +077299999V020240190077199999999999999999-00411-00841999999ADDOD130100931240REMAWY067XCS SA 0900 AUTO8 M M M M/-04/-08/2415/M/ PK WND 2418 0852Z M 14MM=
0093712230999992017011610004+51930-110720SAO  +077299999V020220190067199999999999999999-00701-01021999999ADDOD130100871240REMAWY067XCS SA 1000 AUTO8 M M M M/-07/-10/2213/M/ PK WND 2417 0901Z M 02MM=
0058712230999992017011611004+51930-110720SAO  +077299999V020220190046199999999999999999-00811-01161999999REMAWY049XCS SA 1100 AUTO8 M M M M/-08/-12/2209/M/ M 16MM=
0118712230999992017011612004+51933-110700FM-12+077299999V0202301N007719999999N999999999-00901-01201999999ADDAA106000091AA224000091KA1240M+00421KA2240N-00921REMSYN05871223 16/// /2315 11090 21120 60001 333 10042 21092 70000=
0093712230999992017011612004+51930-110720SAO  +077299999V020230190077199999999999999999-00901-01201999999ADDOD130100871220REMAWY067XCS SA 1200 AUTO8 M M M M/-09/-12/2315/M/ PK WND 2217 1154Z M 00MM=
0093712230999992017011613004+51930-110720SAO  +077299999V020230190072199999999999999999-00931-01221999999ADDOD130100931240REMAWY067XCS SA 1300 AUTO8 M M M M/-09/-12/2314/M/ PK WND 2418 1229Z M 32MM=
0093712230999992017011614004+51930-110720SAO  +077299999V020230190082199999999999999999-00891-01231999999ADDOD130100931230REMAWY067XCS SA 1400 AUTO8 M M M M/-09/-12/2316/M/ PK WND 2318 1351Z M 93MM=
0063712230999992017011615004+51933-110700FM-12+077299999V0202301N007719999999N999999999-01121-01341999999ADDAA103000091REMSYN04071223 26/// /2315 11112 21134 333 60007=
0093712230999992017011615004+51930-110720SAO  +077299999V020230190077199999999999999999-01121-01341999999ADDOD130100871220REMAWY067XCS SA 1500 AUTO8 M M M M/-11/-13/2315/M/ PK WND 2217 1437Z M 24MM=
0093712230999992017011616004+51930-110720SAO  +077299999V020230190072199999999999999999-00871-01231999999ADDOD130100981230REMAWY067XCS SA 1600 AUTO8 M M M M/-09/-12/2314/M/ PK WND 2319 1526Z M 73MM=
0093712230999992017011617004+51930-110720SAO  +077299999V020240190072199999999999999999-00861-01221999999ADDOD130100981240REMAWY067XCS SA 1700 AUTO8 M M M M/-09/-12/2414/M/ PK WND 2419 1608Z M 62MM=
0118712230999992017011618004+51933-110700FM-12+077299999V0202201N006719999999N999999999-00761-01161999999ADDAA106000091AA224000091KA1120M-00381KA2120N-01131REMSYN05871223 16/// /2213 11076 21116 60001 333 11038 21113 70000=
0093712230999992017011618004+51930-110720SAO  +077299999V020220190067199999999999999999-00751-01161999999ADDOD130100931240REMAWY067XCS SA 1800 AUTO8 M M M M/-08/-12/2213/M/ PK WND 2418 1702Z M 56MM=
0058712230999992017011619004+51930-110720SAO  +077299999V020220190072199999999999999999-00681-01061999999REMAWY049XCS SA 1900 AUTO8 M M M M/-07/-11/2214/M/ M 86MM=
0058712230999992017011620004+51930-110720SAO  +077299999V020220190062199999999999999999-00441-00881999999REMAWY049XCS SA 2000 AUTO8 M M M M/-04/-09/2212/M/ M 48MM=
0063712230999992017011621004+51933-110700FM-12+077299999V0202001N005719999999N999999999-00391-00801999999ADDAA103000091REMSYN04071223 26/// /2011 11039 21080 333 60007=
0058712230999992017011621004+51930-110720SAO  +077299999V020200190057199999999999999999-00391-00801999999REMAWY049XCS SA 2100 AUTO8 M M M M/-04/-08/2011/M/ M 90MM=
0058712230999992017011622004+51930-110720SAO  +077299999V020220190057199999999999999999-00351-00771999999REMAWY049XCS SA 2200 AUTO8 M M M M/-04/-08/2211/M/ M 57MM=
0093712230999992017011623004+51930-110720SAO  +077299999V020230190093199999999999999999-00461-00901999999ADDOD130101081220REMAWY067XCS SA 2300 AUTO8 M M M M/-05/-09/2318/M/ PK WND 2221 2249Z M 60MM=
0118712230999992017011700004+51933-110700FM-12+077299999V0202201N008819999999N999999999-00661-00991999999ADDAA106000091AA224000091KA1120M-00321KA2120N-01131REMSYN05871223 16/// /2217 11066 21099 60001 333 11032 21113 70000=
0093712230999992017011700004+51930-110720SAO  +077299999V020220190087199999999999999999-00661-00991999999ADDOD130101081220REMAWY067XCS SA 0000 AUTO8 M M M M/-07/-10/2217/M/ PK WND 2221 2340Z M 69MM=
0093712230999992017011701004+51930-110720SAO  +077299999V020230190077199999999999999999-00731-01031999999ADDOD130101031220REMAWY067XCS SA 0100 AUTO8 M M M M/-07/-10/2315/M/ PK WND 2220 0030Z M 33MM=
0058712230999992017011702004+51930-110720SAO  +077299999V020210190067199999999999999999-00791-01031999999REMAWY049XCS SA 0200 AUTO8 M M M M/-08/-10/2113/M/ M 93MM=
0063712230999992017011703004+51933-110700FM-12+077299999V0202101N006719999999N999999999-00761-01011999999ADDAA103000091REMSYN04071223 26/// /2113 11076 21101 333 60007=
0058712230999992017011703004+51930-110720SAO  +077299999V020210190067199999999999999999-00761-01011999999REMAWY049XCS SA 0300 AUTO8 M M M M/-08/-10/2113/M/ M 61MM=
0058712230999992017011704004+51930-110720SAO  +077299999V020220190072199999999999999999-00631-00941999999REMAWY049XCS SA 0400 AUTO8 M M M M/-06/-09/2214/M/ M 34MM=
0093712230999992017011705004+51930-110720SAO  +077299999V020210190087199999999999999999-00511-00811999999ADDOD130100981210REMAWY067XCS SA 0500 AUTO8 M M M M/-05/-08/2117/M/ PK WND 2119 0454Z M 11MM=
0134712230999992017011706004+51933-110700FM-12+077299999V0202101N007719999999N999999999-00291-00631999999ADDAA106000091AA224000091KA1240M-00291KA2240N-01131REMSYN07471223 16/// /2115 11029 21063 60001 333 11029 21113 70000 555 32221 40001=
0093712230999992017011706004+51930-110720SAO  +077299999V020210190077199999999999999999-00291-00631999999ADDOD130100981210REMAWY067XCS SA 0600 AUTO8 M M M M/-03/-06/2115/M/ PK WND 2119 0501Z M 93MM=
0093712230999992017011707004+51930-110720SAO  +077299999V020210190082199999999999999999-00241-00551999999ADDOD130100981210REMAWY067XCS SA 0700 AUTO8 M M M M/-02/-06/2116/M/ PK WND 2119 0637Z M 45MM=
0093712230999992017011708004+51930-110720SAO  +077299999V020220190087199999999999999999-00031-00391999999ADDOD130101031210REMAWY067XCS SA 0800 AUTO8 M M M M/00/-04/2217/M/ PK WND 2120 0800Z M -39MM=
0063712230999992017011709004+51933-110700FM-12+077299999V0202201N009819999999N999999999+00061-00301999999ADDAA103000091REMSYN04071223 26/// /2219 10006 21030 333 60007=
0092712230999992017011709004+51930-110720SAO  +077299999V020220190098199999999999999999+00061-00301999999ADDOD130101131220REMAWY066XCS SA 0900 AUTO8 M M M M/01/-03/2219/M/ PK WND 2222 0809Z M 60MM=
0092712230999992017011710004+51930-110720SAO  +077299999V020230190087199999999999999999+00111-00231999999ADDOD130101181230REMAWY066XCS SA 1000 AUTO8 M M M M/01/-02/2317/M/ PK WND 2323 0909Z M 13MM=
0092712230999992017011711004+51930-110720SAO  +077299999V020240190108199999999999999999+00451-00071999999ADDOD130101281250REMAWY066XCS SA 1100 AUTO8 M M M M/05/-01/2421/M/ PK WND 2525 1058Z M 57MM=
0105712230999992017011712004+51933-110700FM-12+077299999V0202201N006719999999N999999999+00301-00061999999ADDAA106000091AA224000091KA1240N-00811REMSYN05871223 16/// /2213 10030 21006 60001 333 11029 21081 70000=
0092712230999992017011712004+51930-110720SAO  +077299999V020220190067199999999999999999+00301-00061999999ADDOD130101281250REMAWY066XCS SA 1200 AUTO8 M M M M/03/-01/2213/M/ PK WND 2525 1105Z M 06MM=
0092712230999992017011713004+51930-110720SAO  +077299999V020240190062199999999999999999+00331-00071999999ADDOD130100871220REMAWY066XCS SA 1300 AUTO8 M M M M/03/-01/2412/M/ PK WND 2217 1222Z M 37MM=
0092712230999992017011714004+51930-110720SAO  +077299999V020260190098199999999999999999+00501-00071999999ADDOD130101181260REMAWY066XCS SA 1400 AUTO8 M M M M/05/-01/2619/M/ PK WND 2623 1338Z M 07MM=
0063712230999992017011715004+51933-110700FM-12+077299999V0202701N010319999999N999999999+00501-00061999999ADDAA103000091REMSYN04071223 26/// /2720 10050 21006 333 60007=
0092712230999992017011715004+51930-110720SAO  +077299999V020270190103199999999999999999+00501-00061999999ADDOD130101341270REMAWY066XCS SA 1500 AUTO8 M M M M/05/-01/2720/M/ PK WND 2726 1445Z M 06MM=
0091712230999992017011716004+51930-110720SAO  +077299999V020260190082199999999999999999+00451-00051999999ADDOD130101231280REMAWY065XCS SA 1600 AUTO8 M M M M/05/00/2616/M/ PK WND 2824 1517Z M 55MM=
0092712230999992017011717004+51930-110720SAO  +077299999V020160190010199999999999999999+00321-00091999999ADDOD130100981260REMAWY066XCS SA 1700 AUTO8 M M M M/03/-01/1602/M/ PK WND 2619 1614Z M 29MM=
0118712230999992017011718004+51933-110700FM-12+077299999V0202201N005719999999N999999999+00371-00051999999ADDAA106000091AA224000091KA1120M+00561KA2120N-00811REMSYN05871223 16/// /2211 10037 21005 60001 333 10056 21081 70000=
0056712230999992017011718004+51930-110720SAO  +077299999V020220190057199999999999999999+00371-00051999999REMAWY047XCS SA 1800 AUTO8 M M M M/04/00/2211/M/ M 75MM=
0057712230999992017011719004+51930-110720SAO  +077299999V020220190015199999999999999999+00301-00031999999REMAWY048XCS SA 1900 AUTO8 M M M M/03/00/2203/M/ M 0-3MM=
0057712230999992017011720004+51930-110720SAO  +077299999V020230190026199999999999999999+00381-00011999999REMAWY048XCS SA 2000 AUTO8 M M M M/04/00/2305/M/ M 8-1MM=
0063712230999992017011721004+51933-110700FM-12+077299999V0202201N004619999999N999999999+00341+00001999999ADDAA103000091REMSYN04071223 26/// /2209 10034 20000 333 60007=
0056712230999992017011721004+51930-110720SAO  +077299999V020220190046199999999999999999+00341+00001999999REMAWY047XCS SA 2100 AUTO8 M M M M/03/00/2209/M/ M 40MM=
0056712230999992017011722004+51930-110720SAO  +077299999V020220190036199999999999999999+00421+00031999999REMAWY047XCS SA 2200 AUTO8 M M M M/04/00/2207/M/ M 23MM=
0057712230999992017011723004+51930-110720SAO  +077299999V020200190026199999999999999999+00311-00011999999REMAWY048XCS SA 2300 AUTO8 M M M M/03/00/2005/M/ M 1-1MM=
0118712230999992017011800004+51933-110700FM-12+077299999V0201801N002119999999N999999999+00211-00041999999ADDAA106000091AA224000091KA1120M+00561KA2120N-00291REMSYN05871223 16/// /1804 10021 21004 60001 333 10056 21029 70000=
0057712230999992017011800004+51930-110720SAO  +077299999V020180190021199999999999999999+00211-00041999999REMAWY048XCS SA 0000 AUTO8 M M M M/02/00/1804/M/ M 1-4MM=
0057712230999992017011801004+51930-110720SAO  +077299999V020220190026199999999999999999+00061-00121999999REMAWY048XCS SA 0100 AUTO8 M M M M/01/-01/2205/M/ M 62MM=
0058712230999992017011802004+51930-110720SAO  +077299999V020220190041199999999999999999-00031-00181999999REMAWY049XCS SA 0200 AUTO8 M M M M/00/-02/2208/M/ M -38MM=
0063712230999992017011803004+51933-110700FM-12+077299999V0202201N006719999999N999999999+00011-00161999999ADDAA103000091REMSYN04071223 26/// /2213 10001 21016 333 60007=
0057712230999992017011803004+51930-110720SAO  +077299999V020220190067199999999999999999+00011-00161999999REMAWY048XCS SA 0300 AUTO8 M M M M/00/-02/2213/M/ M 16MM=
