0130013590999992014010100004+60533+008200FM-12+077399999V0209999C999999999999N999999999-00291-00551100901ADDAA106000091MA1999990091621MD1710071+9990OD139900501999REMSYN06401359 16/// /0000 11029 21055 39162 40090 57007 60001 333 91105=
0089013590999992014010101004+60533+008200FM-12+077399999V0209999C999999999999N999999999-00291-00521100851ADDMA1999990091581MD1710081+9990REMSYN04801359 46/// /0000 11029 21052 39158 40085 57008=
0089013590999992014010102004+60533+008200FM-12+077399999V0202701N001019999999N999999999-00281-00531100811ADDMA1999990091551MD1710101+9990REMSYN04801359 46/// /2701 11028 21053 39155 40081 57010=
0089013590999992014010104004+60533+008200FM-12+077399999V0209999C999999999999N999999999-00261-00481100711ADDMA1999990091461MD1710121+9990REMSYN04801359 46/// ///// 11026 21048 39146 40071 57012=
0089013590999992014010105004+60533+008200FM-12+077399999V0209999C999999999999N999999999-00321-00531100681ADDMA1999990091421MD1710131+9990REMSYN04801359 46/// /0000 11032 21053 39142 40068 57013=
0271013590999992014010106004+60533+008200FM-12+077399999V0209999C999999999999N007000199-00261-00471100601ADDAA112000091AA224000531AJ100343100340094AY121021AY221021GA1081+999991071GF108991081990999999991991IA1289KA1240N-00371MA1999990091361MD1710151+9990MW1021OD139900301999REMSYN09401359 11357 80000 11026 21047 39136 40060 57015 60002 70222 886// 333 21037 48034 70005 91103=
0089013590999992014010107004+60533+008200FM-12+077399999V0209999C999999999999N999999999-00281-00461100571ADDMA1999990091331MD1710131+9990REMSYN04801359 46/// /0000 11028 21046 39133 40057 57013=
0089013590999992014010108004+60533+008200FM-12+077399999V0209999C999999999999N999999999-00281-00421100531ADDMA1999990091301MD1710121+9990REMSYN04801359 46/// /0000 11028 21042 39130 40053 57012=
0089013590999992014010109004+60533+008200FM-12+077399999V0202201N001019999999N999999999-00251-00361100551ADDMA1999990091321MD1510041+9990REMSYN04801359 46/// /2201 11025 21036 39132 40055 55004=
0089013590999992014010110004+60533+008200FM-12+077399999V0200301N001019999999N999999999-00061-00171100461ADDMA1999990091301MD1510031+9990REMSYN04801359 46/// /0301 11006 21017 39130 40046 55003=
0089013590999992014010111004+60533+008200FM-12+077399999V0200401N002019999999N999999999+00091-00131100381ADDMA1999990091271MD1810031+9990REMSYN04801359 46/// /0402 10009 21013 39127 40038 58003=
0206013590999992014010112004+60533+008200FM-12+077399999V0201101N003019999999N007000199+00091-00211100341ADDAA106000731AY171021AY221021GA1081+999991051GF108991081990999999991991MA1999990091241MD1710091+9990MW1701OD139900601999REMSYN07601359 11457 81103 10009 21021 39124 40034 57009 69971 77072 8802/ 333 91106=
0089013590999992014010113004+60533+008200FM-12+077399999V0200901N002019999999N999999999+00031-00241100331ADDMA1999990091211MD1710091+9990REMSYN04801359 46/// /0902 10003 21024 39121 40033 57009=
0089013590999992014010114004+60533+008200FM-12+077399999V0200901N001019999999N999999999-00031-00241100341ADDMA1999990091201MD1510061+9990REMSYN04801359 46/// /0901 11003 21024 39120 40034 55006=
0089013590999992014010115004+60533+008200FM-12+077399999V0200301N001019999999N999999999-00091-00241100351ADDMA1999990091191MD1610041+9990REMSYN04801359 46/// /0301 11009 21024 39119 40035 56004=
0089013590999992014010116004+60533+008200FM-12+077399999V0200301N003019999999N999999999-00071-00251100341ADDMA1999990091191MD1710031+9990REMSYN04801359 46/// /0303 11007 21025 39119 40034 57003=
0089013590999992014010117004+60533+008200FM-12+077399999V0200201N004019999999N999999999-00111-00281100351ADDMA1999990091181MD1710021+9990REMSYN04801359 46/// /0204 11011 21028 39118 40035 57002=
0260013590999992014010118004+60533+008200FM-12+077399999V0203301N001019999999N012000199-00131-00311100361ADDAA112002031AY171021AY221021GA1991+999991051GA2021+999991071GF108991990990999999991991KA1120M+00101MA1999990091191MD1290019+9990MW1221OD139900601999REMSYN08201359 11162 83301 11013 21031 39119 40036 54001 60022 72272 8272/ 333 10010 91106=EQDQ01.1    3APC3  
0089013590999992014010119004+60533+008200FM-12+077399999V0203601N001019999999N999999999-00141-00321100381ADDMA1999990091211MD1210021+9990REMSYN04801359 46/// /3601 11014 21032 39121 40038 52002=
0089013590999992014010120004+60533+008200FM-12+077399999V0200801N001019999999N999999999-00191-00341100411ADDMA1999990091211MD1210031+9990REMSYN04801359 46/// /0801 11019 21034 39121 40041 52003=
0089013590999992014010121004+60533+008200FM-12+077399999V0202101N001019999999N999999999-00041-00311100391ADDMA1999990091251MD1210061+9990REMSYN04801359 46/// /2101 11004 21031 39125 40039 52006=
0089013590999992014010122004+60533+008200FM-12+077399999V0200601N002019999999N999999999-00111-00351100401ADDMA1999990091231MD1900031+9990REMSYN04801359 46/// /0602 11011 21035 39123 40040 50003=
0089013590999992014010123004+60533+008200FM-12+077399999V0200401N003019999999N999999999-00141-00361100381ADDMA1999990091201MD1810011+9990REMSYN04801359 46/// /0403 11014 21036 39120 40038 58001=
0130013590999992014010200004+60533+008200FM-12+077399999V0200701N002019999999N999999999-00151-00361100351ADDAA106000091MA1999990091171MD1810071+9990OD139900501999REMSYN06401359 16/// /0702 11015 21036 39117 40035 58007 60001 333 91105=
0089013590999992014010201004+60533+008200FM-12+077399999V0200401N004019999999N999999999-00101-00311100261ADDMA1999990091111MD1810131+9990REMSYN04801359 46/// /0404 11010 21031 39111 40026 58013=
0089013590999992014010202004+60533+008200FM-12+077399999V0200401N004019999999N999999999-00111-00291100211ADDMA1999990091051MD1810151+9990REMSYN04801359 46/// /0404 11011 21029 39105 40021 58015=
0089013590999992014010203004+60533+008200FM-12+077399999V0200501N003019999999N999999999-00091-00261100151ADDMA1999990091011MD1710161+9990REMSYN04801359 46/// /0503 11009 21026 39101 40015 57016=
0089013590999992014010204004+60533+008200FM-12+077399999V0200401N003019999999N999999999-00071-00261100071ADDMA1999990090951MD1710161+9990REMSYN04801359 46/// /0403 11007 21026 39095 40007 57016=
0089013590999992014010205004+60533+008200FM-12+077399999V0200501N003019999999N999999999-00091-00281100011ADDMA1999990090881MD1710171+9990REMSYN04801359 46/// /0503 11009 21028 39088 40001 57017=
0271013590999992014010206004+60533+008200FM-12+077399999V0200501N003019999999N005000199-00061-00261100021ADDAA112000531AA224002631AJ100383100380094AY171021AY221021GA1081+999991051GF108991081990999999991991IA1289KA1240N-00201MA1999990090901MD1510111+9990MW1711OD139900801999REMSYN09401359 11450 80503 11006 21026 39090 40002 55011 69952 77172 8802/ 333 21020 48038 70026 91108=
0089013590999992014010207004+60533+008200FM-12+077399999V0200501N004019999999N999999999-00051-00261100011ADDMA1999990090901MD1510051+9990REMSYN04801359 46/// /0504 11005 21026 39090 40001 55005=
0089013590999992014010208004+60533+008200FM-12+077399999V0201301N003019999999N999999999-00051-00361100021ADDMA1999990090901MD1210021+9990REMSYN04801359 46/// /1303 11005 21036 39090 40002 52002=
0089013590999992014010209004+60533+008200FM-12+077399999V0200701N002019999999N999999999-00091-00371099981ADDMA1999990090861MD1810041+9990REMSYN04801359 46/// /0702 11009 21037 39086 49998 58004=
0089013590999992014010210004+60533+008200FM-12+077399999V0200501N001019999999N999999999-00101-00401099991ADDMA1999990090861MD1810041+9990REMSYN04801359 46/// /0501 11010 21040 39086 49999 58004=
0089013590999992014010211004+60533+008200FM-12+077399999V0200801N003019999999N999999999-00101-00381099931ADDMA1999990090801MD1810101+9990REMSYN04801359 46/// /0803 11010 21038 39080 49993 58010=
0206013590999992014010212004+60533+008200FM-12+077399999V0200401N003019999999N004600199-00141-00351099881ADDAA106000531AY171021AY271021GA1081+999991051GF108991081990999999991991MA1999990090751MD1810111+9990MW1701OD139900901999REMSYN07601359 11346 80403 11014 21035 39075 49988 58011 69951 77077 8802/ 333 91109=
0089013590999992014010213004+60533+008200FM-12+077399999V0200501N002019999999N999999999-00141-00331099871ADDMA1999990090741MD1610121+9990REMSYN04801359 46/// /0502 11014 21033 39074 49987 56012=
0089013590999992014010214004+60533+008200FM-12+077399999V0200401N003019999999N999999999-00131-00321099841ADDMA1999990090711MD1810091+9990REMSYN04801359 46/// /0403 11013 21032 39071 49984 58009=
0089013590999992014010215004+60533+008200FM-12+077399999V0200401N003019999999N999999999-00141-00331099831ADDMA1999990090701MD1810051+9990REMSYN04801359 46/// /0403 11014 21033 39070 49983 58005=
0089013590999992014010216004+60533+008200FM-12+077399999V0200601N002019999999N999999999-00141-00351099821ADDMA1999990090691MD1510051+9990REMSYN04801359 46/// /0602 11014 21035 39069 49982 55005=
0089013590999992014010217004+60533+008200FM-12+077399999V0200501N003019999999N999999999-00151-00331099811ADDMA1999990090691MD1510031+9990REMSYN04801359 46/// /0503 11015 21033 39069 49981 55003=
0225013590999992014010218004+60533+008200FM-12+077399999V0200601N002019999999N009000199-00171-00341099821ADDAA112002031AY171021AY221021GA1081+999991051GF108991081990999999991991KA1120M-00041MA1999990090691MD1510011+9990MW1701OD139900601999REMSYN08201359 11459 80602 11017 21034 39069 49982 55001 60022 77072 8802/ 333 11004 91106=
0089013590999992014010219004+60533+008200FM-12+077399999V0200401N003019999999N999999999-00131-00341099841ADDMA1999990090711MD1310021+9990REMSYN04801359 46/// /0403 11013 21034 39071 49984 53002=
0089013590999992014010220004+60533+008200FM-12+077399999V0200301N004019999999N999999999-00121-00331099831ADDMA1999990090711MD1210021+9990REMSYN04801359 46/// /0304 11012 21033 39071 49983 52002=
0089013590999992014010221004+60533+008200FM-12+077399999V0200501N002019999999N999999999-00141-00331099871ADDMA1999990090741MD1310061+9990REMSYN04801359 46/// /0502 11014 21033 39074 49987 53006=
0089013590999992014010222004+60533+008200FM-12+077399999V0200501N003019999999N999999999-00141-00311099871ADDMA1999990090741MD1210031+9990REMSYN04801359 46/// /0503 11014 21031 39074 49987 52003=
0089013590999992014010223004+60533+008200FM-12+077399999V0200701N002019999999N999999999-00171-00301099871ADDMA1999990090731MD1900031+9990REMSYN04801359 46/// /0702 11017 21030 39073 49987 50003=
0130013590999992014010300004+60533+008200FM-12+077399999V0200701N002019999999N999999999-00161-00271099861ADDAA106000631MA1999990090731MD1710021+9990OD139900801999REMSYN06401359 16/// /0702 11016 21027 39073 49986 57002 69961 333 91108=
0108013590999992014010301004+60533+008200FM-12+077399999V0200601N002019999999N999999999-00151-00261099871ADDMA1999990090731MD1410009+9990REMSYN04801359 46/// /0602 11015 21026 39073 49987 54001=EQDQ01.1    3APC3  
0089013590999992014010302004+60533+008200FM-12+077399999V0200601N002019999999N999999999-00151-00251099861ADDMA1999990090731MD1410001+9990REMSYN04801359 46/// /0602 11015 21025 39073 49986 54000=
0089013590999992014010303004+60533+008200FM-12+077399999V0209999C999999999999N999999999-00171-00271099881ADDMA1999990090741MD1210021+9990REMSYN04801359 46/// /0000 11017 21027 39074 49988 52002=
0089013590999992014010304004+60533+008200FM-12+077399999V0209999C999999999999N999999999-00191-00291099841ADDMA1999990090691MD1810041+9990REMSYN04801359 46/// /0000 11019 21029 39069 49984 58004=
0089013590999992014010305004+60533+008200FM-12+077399999V0209999C999999999999N999999999-00191-00291099861ADDMA1999990090711MD1710021+9990REMSYN04801359 46/// /0000 11019 21029 39071 49986 57002=
0287013590999992014010306004+60533+008200FM-12+077399999V0209999C999999999999N005000199-00181-00271099861ADDAA112006031AA224007631AJ100473100470094AY171021AY271021GA1991+999991051GA2051+999991071GF108991990990999999991991IA1289KA1240N-00201MA1999990090711MD1510031+9990MW1781OD139900401999REMSYN09401359 11250 80000 11018 21027 39071 49986 55003 60062 77877 8562/ 333 21020 48047 70076 91104=
0089013590999992014010307004+60533+008200FM-12+077399999V0209999C999999999999N999999999-00221-00311099861ADDMA1999990090711MD1900021+9990REMSYN04801359 46/// /0000 11022 21031 39071 49986 50002=
0089013590999992014010308004+60533+008200FM-12+077399999V0209999C999999999999N999999999-00201-00291099841ADDMA1999990090701MD1710021+9990REMSYN04801359 46/// /0000 11020 21029 39070 49984 57002=
0089013590999992014010309004+60533+008200FM-12+077399999V0209999C999999999999N999999999-00211-00301099851ADDMA1999990090701MD1510011+9990REMSYN04801359 46/// /0000 11021 21030 39070 49985 55001=
0089013590999992014010310004+60533+008200FM-12+077399999V0201601N001019999999N999999999-00211-00301099861ADDMA1999990090701MD1510011+9990REMSYN04801359 46/// /1601 11021 21030 39070 49986 55001=
0089013590999992014010311004+60533+008200FM-12+077399999V0209999C999999999999N999999999-00181-00271099781ADDMA1999990090641MD1810061+9990REMSYN04801359 46/// /0000 11018 21027 39064 49978 58006=
0222013590999992014010312004+60533+008200FM-12+077399999V0209999C999999999999N008000199-00181-00271099641ADDAA106000091AY171021AY221021GA1991+999991051GA2031+999991071GF108991990990999999991991MA1999990090511MD1810191+9990MW1021OD139900201999REMSYN07601359 11258 80000 11018 21027 39051 49964 58019 60001 70272 8362/ 333 91102=
0089013590999992014010313004+60533+008200FM-12+077399999V0209999C999999999999N999999999-00161-00261099571ADDMA1999990090461MD1810251+9990REMSYN04801359 46/// /0000 11016 21026 39046 49957 58025=
0089013590999992014010314004+60533+008200FM-12+077399999V0209999C999999999999N999999999-00141-00241099481ADDMA1999990090381MD1610261+9990REMSYN04801359 46/// /0000 11014 21024 39038 49948 56026=
0089013590999992014010315004+60533+008200FM-12+077399999V0200701N002019999999N999999999+00061-00081099311ADDMA1999990090301MD1810221+9990REMSYN04801359 46/// /0702 10006 21008 39030 49931 58022=
0089013590999992014010316004+60533+008200FM-12+077399999V0200401N003019999999N999999999+00041-00171099201ADDMA1999990090191MD1810271+9990REMSYN04801359 46/// /0403 10004 21017 39019 49920 58027=
0089013590999992014010317004+60533+008200FM-12+077399999V0200401N003019999999N999999999-00011-00151099141ADDMA1999990090121MD1710271+9990REMSYN04801359 46/// /0403 11001 21015 39012 49914 57027=
0225013590999992014010318004+60533+008200FM-12+077399999V0200401N002019999999N004300199-00021-00151099041ADDAA112002031AY171021AY271021GA1081+999991051GF108991081990999999991991KA1120M+00071MA1999990090031MD1610271+9990MW1711OD139900601999REMSYN08201359 11443 80402 11002 21015 39003 49904 56027 60022 77177 8802/ 333 10007 91106=
0089013590999992014010319004+60533+008200FM-12+077399999V0201101N001019999999N999999999+00021-00151098981ADDMA1999990089981MD1710201+9990REMSYN04801359 46/// /1101 10002 21015 38998 49898 57020=
0089013590999992014010320004+60533+008200FM-12+077399999V0209999C999999999999N999999999+00021-00151098951ADDMA1999990089961MD1610161+9990REMSYN04801359 46/// ///// 10002 21015 38996 49895 56016=
0089013590999992014010321004+60533+008200FM-12+077399999V0209999C999999999999N999999999-00021-00171098971ADDMA1999990089961MD1510061+9990REMSYN04801359 46/// /0000 11002 21017 38996 49897 55006=
0089013590999992014010322004+60533+008200FM-12+077399999V0209999C999999999999N999999999-00051-00181098991ADDMA1999990089971MD1510011+9990REMSYN04801359 46/// /0000 11005 21018 38997 49899 55001=
0089013590999992014010323004+60533+008200FM-12+077399999V0209999C999999999999N999999999-00321-00441099151ADDMA1999990090021MD1310071+9990REMSYN04801359 46/// /0000 11032 21044 39002 49915 53007=
0130013590999992014010400004+60533+008200FM-12+077399999V0201901N004019999999N999999999+00021-00391099011ADDAA106001031MA1999990090011MD1900051+9990OD139900601999REMSYN06401359 16/// /1904 10002 21039 39001 49901 50005 60011 333 91106=
0089013590999992014010401004+60533+008200FM-12+077399999V0209999C999999999999N999999999-00061-00341099091ADDMA1999990090051MD1110081+9990REMSYN04801359 46/// /0000 11006 21034 39005 49909 51008=
0089013590999992014010402004+60533+008200FM-12+077399999V0209999C999999999999N999999999-00151-00371099111ADDMA1999990090051MD1310021+9990REMSYN04801359 46/// /0000 11015 21037 39005 49911 53002=
0089013590999992014010403004+60533+008200FM-12+077399999V0209999C999999999999N999999999-00141-00311099101ADDMA1999990090041MD1900031+9990REMSYN04801359 46/// /0000 11014 21031 39004 49910 50003=
0089013590999992014010404004+60533+008200FM-12+077399999V0200601N001019999999N999999999+00031-00191099021ADDMA1999990090021MD1810031+9990REMSYN04801359 46/// /0601 10003 21019 39002 49902 58003=
0089013590999992014010405004+60533+008200FM-12+077399999V0209999C999999999999N999999999-00121-00311099121ADDMA1999990090071MD1310021+9990REMSYN04801359 46/// /0000 11012 21031 39007 49912 53002=
0271013590999992014010406004+60533+008200FM-12+077399999V0202801N001019999999N025000199-00081-00251099141ADDAA112001031AA224003231AJ100493100490094AY121021AY221021GA1061+999991081GF106991061990999999991991IA1289KA1240N-00361MA1999990090091MD1310051+9990MW1021OD139900501999REMSYN09401359 11475 62801 11008 21025 39009 49914 53005 60012 70222 86200 333 21036 48049 70032 91105=
0089013590999992014010407004+60533+008200FM-12+077399999V0209999C999999999999N999999999-00191-00371099201ADDMA1999990090121MD1210101+9990REMSYN04801359 46/// /0000 11019 21037 39012 49920 52010=
0089013590999992014010408004+60533+008200FM-12+077399999V0202501N001019999999N999999999-00201-00351099251ADDMA1999990090161MD1310091+9990REMSYN04801359 46/// /2501 11020 21035 39016 49925 53009=
0089013590999992014010409004+60533+008200FM-12+077399999V0200901N001019999999N999999999-00271-00421099341ADDMA1999990090221MD1310131+9990REMSYN04801359 46/// /0901 11027 21042 39022 49934 53013=
0089013590999992014010410004+60533+008200FM-12+077399999V0202901N001019999999N999999999-00181-00351099341ADDMA1999990090241MD1210131+9990REMSYN04801359 46/// /2901 11018 21035 39024 49934 52013=
0089013590999992014010411004+60533+008200FM-12+077399999V0209999C999999999999N999999999-00141-00351099341ADDMA1999990090261MD1110101+9990REMSYN04801359 46/// /0000 11014 21035 39026 49934 51010=
0206013590999992014010412004+60533+008200FM-12+077399999V0209999C999999999999N014000199-00161-00331099371ADDAA106000231AY181021AY271021GA1081+999991051GF108991081990999999991991MA1999990090281MD1210061+9990MW1701OD139900301999REMSYN07601359 11464 80000 11016 21033 39028 49937 52006 69921 77087 8802/ 333 91103=
0089013590999992014010413004+60533+008200FM-12+077399999V0209999C999999999999N999999999-00141-00281099431ADDMA1999990090341MD1310091+9990REMSYN04801359 46/// /0000 11014 21028 39034 49943 53009=
0089013590999992014010414004+60533+008200FM-12+077399999V0209999C999999999999N999999999-00041-00181099451ADDMA1999990090391MD1310131+9990REMSYN04801359 46/// /0000 11004 21018 39039 49945 53013=
0089013590999992014010415004+60533+008200FM-12+077399999V0201001N002019999999N999999999+00011-00241099481ADDMA1999990090431MD1310151+9990REMSYN04801359 46/// /1002 10001 21024 39043 49948 53015=
0089013590999992014010416004+60533+008200FM-12+077399999V0200601N001019999999N999999999-00061-00211099571ADDMA1999990090491MD1310151+9990REMSYN04801359 46/// /0601 11006 21021 39049 49957 53015=
0089013590999992014010417004+60533+008200FM-12+077399999V0200501N002019999999N999999999-00051-00251099641ADDMA1999990090561MD1310171+9990REMSYN04801359 46/// /0502 11005 21025 39056 49964 53017=
0225013590999992014010418004+60533+008200FM-12+077399999V0202501N001019999999N030000199-00071-00251099701ADDAA112000331AY181021AY221021GA1061+999991081GF106991061990999999991991KA1120M+00111MA1999990090611MD1310181+9990MW1021OD139900501999REMSYN08201359 11580 62501 11007 21025 39061 49970 53018 69932 70282 86200 333 10011 91105=
0089013590999992014010419004+60533+008200FM-12+077399999V0209999C999999999999N999999999-00011-00231099751ADDMA1999990090681MD1310191+9990REMSYN04801359 46/// /0000 11001 21023 39068 49975 53019=
0089013590999992014010420004+60533+008200FM-12+077399999V0200401N002019999999N999999999+00001-00241099831ADDMA1999990090751MD1310191+9990REMSYN04801359 46/// /0402 10000 21024 39075 49983 53019=
0089013590999992014010421004+60533+008200FM-12+077399999V0209999C999999999999N999999999-00041-00281099941ADDMA1999990090841MD1310231+9990REMSYN04801359 46/// /0000 11004 21028 39084 49994 53023=
0089013590999992014010422004+60533+008200FM-12+077399999V0209999C999999999999N999999999-00161-00341100031ADDMA1999990090881MD1110201+9990REMSYN04801359 46/// /0000 11016 21034 39088 40003 51020=
0089013590999992014010423004+60533+008200FM-12+077399999V0209999C999999999999N999999999-00161-00311100051ADDMA1999990090891MD1110141+9990REMSYN04801359 46/// /0000 11016 21031 39089 40005 51014=
0130013590999992014010500004+60533+008200FM-12+077399999V0200401N002019999999N999999999-00091-00241100001ADDAA106000091MA1999990090871MD1900041+9990OD139900401999REMSYN06401359 16/// /0402 11009 21024 39087 40000 50004 60001 333 91104=
0089013590999992014010501004+60533+008200FM-12+077399999V0209999C999999999999N999999999-00181-00311100041ADDMA1999990090881MD1410001+9990REMSYN04801359 46/// /0000 11018 21031 39088 40004 54000=
0089013590999992014010502004+60533+008200FM-12+077399999V0209999C999999999999N999999999-00211-00321100051ADDMA1999990090881MD1510011+9990REMSYN04801359 46/// /0000 11021 21032 39088 40005 55001=
0089013590999992014010503004+60533+008200FM-12+077399999V0209999C999999999999N999999999-00221-00321100051ADDMA1999990090871MD1410001+9990REMSYN04801359 46/// /0000 11022 21032 39087 40005 54000=
0089013590999992014010504004+60533+008200FM-12+077399999V0209999C999999999999N999999999-00211-00301100001ADDMA1999990090831MD1810041+9990REMSYN04801359 46/// /0000 11021 21030 39083 40000 58004=
0089013590999992014010505004+60533+008200FM-12+077399999V0209999C999999999999N999999999-00191-00281100031ADDMA1999990090871MD1510011+9990REMSYN04801359 46/// /0000 11019 21028 39087 40003 55001=
0287013590999992014010506004+60533+008200FM-12+077399999V0209999C999999999999N002600199-00171-00261100041ADDAA112000531AA224000831AJ100493100490094AY171021AY221021GA1991+999991051GA2081+999991071GF108991990990999999991991IA1289KA1240N-00231MA1999990090881MD1310011+9990MW1701OD139900401999REMSYN09401359 11226 80000 11017 21026 39088 40004 53001 69952 77072 8862/ 333 21023 48049 70008 91104=
0089013590999992014010507004+60533+008200FM-12+077399999V0209999C999999999999N999999999-00131-00221100051ADDMA1999990090911MD1900081+9990REMSYN04801359 46/// /0000 11013 21022 39091 40005 50008=
0089013590999992014010508004+60533+008200FM-12+077399999V0200701N002019999999N999999999-00161-00251100091ADDMA1999990090941MD1310071+9990REMSYN04801359 46/// /0702 11016 21025 39094 40009 53007=
0089013590999992014010509004+60533+008200FM-12+077399999V0209999C999999999999N999999999-00151-00241100131ADDMA1999990090981MD1110091+9990REMSYN04801359 46/// /0000 11015 21024 39098 40013 51009=
0089013590999992014010510004+60533+008200FM-12+077399999V0200501N002019999999N999999999+00011-00131100081ADDMA1999990090971MD1900061+9990REMSYN04801359 46/// /0502 10001 21013 39097 40008 50006=
0089013590999992014010511004+60533+008200FM-12+077399999V0200501N003019999999N999999999+00021-00221100061ADDMA1999990090961MD1900031+9990REMSYN04801359 46/// /0503 10002 21022 39096 40006 50003=
0222013590999992014010512004+60533+008200FM-12+077399999V0200401N003019999999N025000199+00001-00211100001ADDAA106000231AY171021AY221021GA1991+999991031GA2061+999991071GF108991990990999999991991MA1999990090901MD1810071+9990MW1021OD139900601999REMSYN07601359 11375 80403 10000 21021 39090 40000 58007 69921 70272 8667/ 333 91106=
0089013590999992014010513004+60533+008200FM-12+077399999V0200501N002019999999N999999999-00021-00221100091ADDMA1999990090981MD1510011+9990REMSYN04801359 46/// /0502 11002 21022 39098 40009 55001=
0089013590999992014010514004+60533+008200FM-12+077399999V0200501N003019999999N999999999-00061-00211100081ADDMA1999990090961MD1510001+9990REMSYN04801359 46/// /0503 11006 21021 39096 40008 55000=
0089013590999992014010515004+60533+008200FM-12+077399999V0200601N002019999999N999999999-00081-00211100061ADDMA1999990090931MD1900031+9990REMSYN04801359 46/// /0602 11008 21021 39093 40006 50003=
0089013590999992014010516004+60533+008200FM-12+077399999V0200401N001019999999N999999999-00061-00201100071ADDMA1999990090951MD1510031+9990REMSYN04801359 46/// /0401 11006 21020 39095 40007 55003=
0089013590999992014010517004+60533+008200FM-12+077399999V0200601N001019999999N999999999-00121-00231100111ADDMA1999990090971MD1310011+9990REMSYN04801359 46/// /0601 11012 21023 39097 40011 53001=
0241013590999992014010518004+60533+008200FM-12+077399999V0200501N002019999999N004200199-00061-00201100071ADDAA112001031AY171021AY271021GA1991+999991051GA2031+999991071GF108991990990999999991991KA1120M+00041MA1999990090941MD1900011+9990MW1711OD139900501999REMSYN08201359 11242 80502 11006 21020 39094 40007 50001 60012 77177 8362/ 333 10004 91105=
0089013590999992014010519004+60533+008200FM-12+077399999V0200701N001019999999N999999999-00081-00211100111ADDMA1999990090981MD1310031+9990REMSYN04801359 46/// /0701 11008 21021 39098 40011 53003=
0089013590999992014010520004+60533+008200FM-12+077399999V0209999C999999999999N999999999-00131-00241100101ADDMA1999990090951MD1810021+9990REMSYN04801359 46/// /0000 11013 21024 39095 40010 58002=
0089013590999992014010521004+60533+008200FM-12+077399999V0209999C999999999999N999999999-00141-00241100081ADDMA1999990090931MD1810011+9990REMSYN04801359 46/// /0000 11014 21024 39093 40008 58001=
0089013590999992014010522004+60533+008200FM-12+077399999V0209999C999999999999N999999999-00131-00241100021ADDMA1999990090871MD1810101+9990REMSYN04801359 46/// /0000 11013 21024 39087 40002 58010=
0089013590999992014010523004+60533+008200FM-12+077399999V0200701N001019999999N999999999-00091-00201099981ADDMA1999990090861MD1810091+9990REMSYN04801359 46/// /0701 11009 21020 39086 49998 58009=
0130013590999992014010600004+60533+008200FM-12+077399999V0209999C999999999999N999999999-00081-00231099941ADDAA106000931MA1999990090821MD1810111+9990OD139900401999REMSYN06401359 16/// /0000 11008 21023 39082 49994 58011 69991 333 91104=
0089013590999992014010601004+60533+008200FM-12+077399999V0201001N001019999999N999999999-00071-00281099941ADDMA1999990090821MD1810051+9990REMSYN04801359 46/// /1001 11007 21028 39082 49994 58005=
0089013590999992014010602004+60533+008200FM-12+077399999V0201201N002019999999N999999999-00091-00311099941ADDMA1999990090821MD1510031+9990REMSYN04801359 46/// /1202 11009 21031 39082 49994 55003=
0089013590999992014010603004+60533+008200FM-12+077399999V0201101N002019999999N999999999-00131-00371099861ADDMA1999990090731MD1810091+9990REMSYN04801359 46/// /1102 11013 21037 39073 49986 58009=
0089013590999992014010604004+60533+008200FM-12+077399999V0200601N002019999999N999999999-00171-00411099761ADDMA1999990090631MD1810191+9990REMSYN04801359 46/// /0602 11017 21041 39063 49976 58019=
0089013590999992014010605004+60533+008200FM-12+077399999V0200901N002019999999N999999999-00121-00421099671ADDMA1999990090561MD1710261+9990REMSYN04801359 46/// /0902 11012 21042 39056 49967 57026=
0287013590999992014010606004+60533+008200FM-12+077399999V0201201N003019999999N025000199-00091-00401099581ADDAA112000831AA224002031AJ100513100510094AY121021AY221021GA1991+999991031GA2071+999991071GF108991990990999999991991IA1289KA1240N-00171MA1999990090491MD1810241+9990MW1021OD139900701999REMSYN09401359 11475 81203 11009 21040 39049 49958 58024 69982 70222 8767/ 333 21017 48051 70020 91107=
0089013590999992014010607004+60533+008200FM-12+077399999V0200401N002019999999N999999999-00141-00361099541ADDMA1999990090441MD1810201+9990REMSYN04801359 46/// /0402 11014 21036 39044 49954 58020=
0089013590999992014010608004+60533+008200FM-12+077399999V0200401N003019999999N999999999-00121-00331099501ADDMA1999990090411MD1810151+9990REMSYN04801359 46/// /0403 11012 21033 39041 49950 58015=
0089013590999992014010609004+60533+008200FM-12+077399999V0203001N001019999999N999999999-00171-00341099491ADDMA1999990090381MD1810111+9990REMSYN04801359 46/// /3001 11017 21034 39038 49949 58011=
0089013590999992014010610004+60533+008200FM-12+077399999V0200501N003019999999N999999999-00061-00271099291ADDMA1999990090241MD1810201+9990REMSYN04801359 46/// /0503 11006 21027 39024 49929 58020=
0089013590999992014010611004+60533+008200FM-12+077399999V0200401N002019999999N999999999-00051-00261099261ADDMA1999990090211MD1810201+9990REMSYN04801359 46/// /0402 11005 21026 39021 49926 58020=
0206013590999992014010612004+60533+008200FM-12+077399999V0200901N002019999999N008000199-00011-00251099201ADDAA106001031AY171021AY221021GA1081+999991051GF108991081990999999991991MA1999990090171MD1610211+9990MW1711OD139900701999REMSYN07601359 11458 80902 11001 21025 39017 49920 56021 60011 77172 8802/ 333 91107=
0089013590999992014010613004+60533+008200FM-12+077399999V0201301N001019999999N999999999+00021-00351099131ADDMA1999990090121MD1810111+9990REMSYN04801359 46/// /1301 10002 21035 39012 49913 58011=
0089013590999992014010614004+60533+008200FM-12+077399999V0200601N002019999999N999999999-00061-00301099151ADDMA1999990090111MD1510101+9990REMSYN04801359 46/// /0602 11006 21030 39011 49915 55010=
0089013590999992014010615004+60533+008200FM-12+077399999V0201401N001019999999N999999999-00081-00291099171ADDMA1999990090121MD1510041+9990REMSYN04801359 46/// /1401 11008 21029 39012 49917 55004=
0089013590999992014010616004+60533+008200FM-12+077399999V0200601N002019999999N999999999-00131-00281099221ADDMA1999990090151MD1310031+9990REMSYN04801359 46/// /0602 11013 21028 39015 49922 53003=
0089013590999992014010617004+60533+008200FM-12+077399999V0209999C999999999999N999999999-00161-00291099241ADDMA1999990090161MD1210051+9990REMSYN04801359 46/// /0000 11016 21029 39016 49924 52005=
0241013590999992014010618004+60533+008200FM-12+077399999V0209999C999999999999N006000199-00181-00311099281ADDAA112001031AY171021AY221021GA1991+999991051GA2051+999991071GF108991990990999999991991KA1120M+00041MA1999990090191MD1210071+9990MW1021OD139900601999REMSYN08201359 11156 80000 11018 21031 39019 49928 52007 60012 70272 8562/ 333 10004 91106=
0089013590999992014010619004+60533+008200FM-12+077399999V0209999C999999999999N999999999-00201-00311099291ADDMA1999990090191MD1210041+9990REMSYN04801359 46/// /0000 11020 21031 39019 49929 52004=
0089013590999992014010620004+60533+008200FM-12+077399999V0209999C999999999999N999999999-00201-00301099301ADDMA1999990090201MD1310041+9990REMSYN04801359 46/// /0000 11020 21030 39020 49930 53004=
0089013590999992014010621004+60533+008200FM-12+077399999V0209999C999999999999N999999999-00211-00311099331ADDMA1999990090231MD1310031+9990REMSYN04801359 46/// /0000 11021 21031 39023 49933 53003=
0089013590999992014010622004+60533+008200FM-12+077399999V0209999C999999999999N999999999-00211-00311099321ADDMA1999990090221MD1900031+9990REMSYN04801359 46/// /0000 11021 21031 39022 49932 50003=
0089013590999992014010623004+60533+008200FM-12+077399999V0209999C999999999999N999999999-00241-00331099291ADDMA1999990090181MD1810021+9990REMSYN04801359 46/// /0000 11024 21033 39018 49929 58002=
0130013590999992014010700004+60533+008200FM-12+077399999V0209999C999999999999N999999999-00251-00341099271ADDAA106000091MA1999990090161MD1710071+9990OD139900201999REMSYN06401359 16/// /0000 11025 21034 39016 49927 57007 60001 333 91102=
0089013590999992014010701004+60533+008200FM-12+077399999V0201001N001019999999N999999999-00241-00311099241ADDMA1999990090131MD1710091+9990REMSYN04801359 46/// /1001 11024 21031 39013 49924 57009=
0089013590999992014010702004+60533+008200FM-12+077399999V0202401N001019999999N999999999-00241-00311099211ADDMA1999990090111MD1710071+9990REMSYN04801359 46/// /2401 11024 21031 39011 49921 57007=
0089013590999992014010703004+60533+008200FM-12+077399999V0202801N001019999999N999999999-00221-00291099151ADDMA1999990090061MD1810091+9990REMSYN04801359 46/// /2801 11022 21029 39006 49915 58009=
0089013590999992014010704004+60533+008200FM-12+077399999V0201801N001019999999N999999999-00251-00341099151ADDMA1999990090051MD1710091+9990REMSYN04801359 46/// /1801 11025 21034 39005 49915 57009=
0089013590999992014010705004+60533+008200FM-12+077399999V0200701N002019999999N999999999-00131-00201099071ADDMA1999990090011MD1710091+9990REMSYN04801359 46/// /0702 11013 21020 39001 49907 57009=
0287013590999992014010706004+60533+008200FM-12+077399999V0200401N002019999999N025000199+00001-00071099021ADDAA112000331AA224001731AJ100493100490094AY121021AY221021GA1991+999991031GA2061+999991081GF108991990990999999991991IA1289KA1240N-00261MA1999990090011MD1510051+9990MW1021OD139900701999REMSYN09401359 11475 80402 10000 21007 39001 49902 55005 69932 70222 8627/ 333 21026 48049 70017 91107=
0089013590999992014010707004+60533+008200FM-12+077399999V0202001N007019999999N999999999+00411-00011098871ADDMA1999990090001MD1510051+9990REMSYN04801359 46/// /2007 10041 21001 39000 49887 55005=
0089013590999992014010708004+60533+008200FM-12+077399999V0200101N002019999999N999999999+00361-00021098971ADDMA1999990090081MD1310061+9990REMSYN04801359 46/// /0102 10036 21002 39008 49897 53006=
0089013590999992014010709004+60533+008200FM-12+077399999V0200501N002019999999N999999999+00231-00111099021ADDMA1999990090091MD1310071+9990REMSYN04801359 46/// /0502 10023 21011 39009 49902 53007=
0089013590999992014010710004+60533+008200FM-12+077399999V0200501N002019999999N999999999+00031-00131099141ADDMA1999990090131MD1110131+9990REMSYN04801359 46/// /0502 10003 21013 39013 49914 51013=
0089013590999992014010711004+60533+008200FM-12+077399999V0202101N005019999999N999999999+00361-00081099031ADDMA1999990090131MD1900051+9990REMSYN04801359 46/// /2105 10036 21008 39013 49903 50005=
0222013590999992014010712004+60533+008200FM-12+077399999V0202201N007019999999N030000199+00311-00111099061ADDAA106000091AY121021AY221021GA1991+999991031GA2051+999991081GF108991990990999999991991MA1999990090141MD1110051+9990MW1021OD139901501999REMSYN07601359 11480 82207 10031 21011 39014 49906 51005 60001 70222 8527/ 333 91115=
0089013590999992014010713004+60533+008200FM-12+077399999V0202301N004019999999N999999999+00281-00151099131ADDMA1999990090201MD1310071+9990REMSYN04801359 46/// /2304 10028 21015 39020 49913 53007=
0089013590999992014010714004+60533+008200FM-12+077399999V0202201N006019999999N999999999+00321-00131099111ADDMA1999990090191MD1900061+9990REMSYN04801359 46/// /2206 10032 21013 39019 49911 50006=
0089013590999992014010715004+60533+008200FM-12+077399999V0202001N004019999999N999999999+00301-00131099141ADDMA1999990090211MD1110081+9990REMSYN04801359 46/// /2004 10030 21013 39021 49914 51008=
0089013590999992014010716004+60533+008200FM-12+077399999V0202101N004019999999N999999999+00281-00081099171ADDMA1999990090241MD1310041+9990REMSYN04801359 46/// /2104 10028 21008 39024 49917 53004=
0089013590999992014010717004+60533+008200FM-12+077399999V0202201N004019999999N999999999+00271-00141099201ADDMA1999990090251MD1210061+9990REMSYN04801359 46/// /2204 10027 21014 39025 49920 52006=
0260013590999992014010718004+60533+008200FM-12+077399999V0202101N005019999999N030000199+00261-00191099221ADDAA112999999AY181021AY221021GA1991+999991031GA2051+999991081GF108991990990999999991991KA1120M+00411MA1999990090281MD1210061+9990MW1261OD139901101999REMSYN08201359 11480 82105 10026 21019 39028 49922 52006 60002 72682 8527/ 333 10041 91111=EQDQ01  00002PRCP12
0089013590999992014010719004+60533+008200FM-12+077399999V0202201N005019999999N999999999+00241-00191099251ADDMA1999990090291MD1210051+9990REMSYN04801359 46/// /2205 10024 21019 39029 49925 52005=
0089013590999992014010720004+60533+008200FM-12+077399999V0202301N004019999999N999999999+00181-00211099341ADDMA1999990090351MD1310101+9990REMSYN04801359 46/// /2304 10018 21021 39035 49934 53010=
0089013590999992014010721004+60533+008200FM-12+077399999V0202101N004019999999N999999999+00171-00211099371ADDMA1999990090381MD1310111+9990REMSYN04801359 46/// /2104 10017 21021 39038 49937 53011=
0089013590999992014010722004+60533+008200FM-12+077399999V0202001N002019999999N999999999+00141-00231099431ADDMA1999990090421MD1210131+9990REMSYN04801359 46/// /2002 10014 21023 39042 49943 52013=
0089013590999992014010723004+60533+008200FM-12+077399999V0201701N001019999999N999999999+00141-00251099441ADDMA1999990090431MD1210081+9990REMSYN04801359 46/// /1701 10014 21025 39043 49944 52008=
0130013590999992014010800004+60533+008200FM-12+077399999V0202701N001019999999N999999999+00031-00311099491ADDAA106000091MA1999990090451MD1210061+9990OD139901101999REMSYN06401359 16/// /2701 10003 21031 39045 49949 52006 60001 333 91111=
0089013590999992014010801004+60533+008200FM-12+077399999V0202301N004019999999N999999999+00101-00291099501ADDMA1999990090481MD1210061+9990REMSYN04801359 46/// /2304 10010 21029 39048 49950 52006=
0089013590999992014010802004+60533+008200FM-12+077399999V0209999C999999999999N999999999-00011-00281099581ADDMA1999990090521MD1310081+9990REMSYN04801359 46/// /0000 11001 21028 39052 49958 53008=
0089013590999992014010803004+60533+008200FM-12+077399999V0200501N002019999999N999999999+00011-00281099601ADDMA1999990090541MD1210091+9990REMSYN04801359 46/// /0502 10001 21028 39054 49960 52009=
0089013590999992014010804004+60533+008200FM-12+077399999V0202901N002019999999N999999999-00071-00311099591ADDMA1999990090511MD1900031+9990REMSYN04801359 46/// /2902 11007 21031 39051 49959 50003=
0089013590999992014010805004+60533+008200FM-12+077399999V0209999C999999999999N999999999-00081-00301099581ADDMA1999990090491MD1810021+9990REMSYN04801359 46/// /0000 11008 21030 39049 49958 58002=
0271013590999992014010806004+60533+008200FM-12+077399999V0209999C999999999999N006000199-00081-00291099581ADDAA112000091AA224000091AJ100453100450094AY121021AY221021GA1081+999991071GF108991081990999999991991IA1249KA1240N-00151MA1999990090501MD1710041+9990MW1021OD139900801999REMSYN09401359 11256 80000 11008 21029 39050 49958 57004 60002 70222 886// 333 21015 44045 70000 91108=
0089013590999992014010807004+60533+008200FM-12+077399999V0209999C999999999999N999999999-00061-00231099611ADDMA1999990090531MD1310021+9990REMSYN04801359 46/// /0000 11006 21023 39053 49961 53002=
0089013590999992014010808004+60533+008200FM-12+077399999V0209999C999999999999N999999999-00091-00231099651ADDMA1999990090561MD1210061+9990REMSYN04801359 46/// /0000 11009 21023 39056 49965 52006=
0089013590999992014010809004+60533+008200FM-12+077399999V0209999C999999999999N999999999-00071-00201099721ADDMA1999990090621MD1310121+9990REMSYN04801359 46/// /0000 11007 21020 39062 49972 53012=
0089013590999992014010810004+60533+008200FM-12+077399999V0209999C999999999999N999999999-00041-00181099741ADDMA1999990090661MD1210131+9990REMSYN04801359 46/// /0000 11004 21018 39066 49974 52013=
0089013590999992014010811004+60533+008200FM-12+077399999V0209999C999999999999N999999999+00001-00151099741ADDMA1999990090661MD1110111+9990REMSYN04801359 46/// /0000 10000 21015 39066 49974 51011=
0222013590999992014010812004+60533+008200FM-12+077399999V0209999C999999999999N040000199+00071-00171099721ADDAA106000431AY181021AY221021GA1991+999991021GA2071+999991081GF107991990990999999991991MA1999990090661MD1900041+9990MW1021OD139900301999REMSYN07601359 11682 70000 10007 21017 39066 49972 50004 69941 70282 87808 333 91103=
0089013590999992014010813004+60533+008200FM-12+077399999V0209999C999999999999N999999999+00141-00221099701ADDMA1999990090671MD1210011+9990REMSYN04801359 46/// /0000 10014 21022 39067 49970 52001=
0089013590999992014010814004+60533+008200FM-12+077399999V0202401N001019999999N999999999+00101-00201099721ADDMA1999990090681MD1310021+9990REMSYN04801359 46/// /2401 10010 21020 39068 49972 53002=
0089013590999992014010815004+60533+008200FM-12+077399999V0209999C999999999999N999999999+00031-00221099771ADDMA1999990090701MD1210041+9990REMSYN04801359 46/// /0000 10003 21022 39070 49977 52004=
0089013590999992014010816004+60533+008200FM-12+077399999V0209999C999999999999N999999999-00071-00241099821ADDMA1999990090721MD1210051+9990REMSYN04801359 46/// /0000 11007 21024 39072 49982 52005=
0089013590999992014010817004+60533+008200FM-12+077399999V0203001N001019999999N999999999-00141-00271099871ADDMA1999990090741MD1210061+9990REMSYN04801359 46/// /3001 11014 21027 39074 49987 52006=
0241013590999992014010818004+60533+008200FM-12+077399999V0200501N001019999999N040000199-00311-00421099981ADDAA112000531AY181021AY221021GA1991+999991031GA2031+999991081GF105991990990999999991991KA1120M+00141MA1999990090781MD1310091+9990MW1021OD139900301999REMSYN08201359 11782 50501 11031 21042 39078 49998 53009 69952 70282 83230 333 10014 91103=
0089013590999992014010819004+60533+008200FM-12+077399999V0209999C999999999999N999999999-00331-00431100021ADDMA1999990090821MD1310101+9990REMSYN04801359 46/// /0000 11033 21043 39082 40002 53010=
0089013590999992014010820004+60533+008200FM-12+077399999V0209999C999999999999N999999999-00351-00451100051ADDMA1999990090831MD1210091+9990REMSYN04801359 46/// /0000 11035 21045 39083 40005 52009=
0089013590999992014010821004+60533+008200FM-12+077399999V0202101N001019999999N999999999-00301-00411100081ADDMA1999990090871MD1210091+9990REMSYN04801359 46/// /2101 11030 21041 39087 40008 52009=
0089013590999992014010822004+60533+008200FM-12+077399999V0202601N001019999999N999999999-00371-00461100131ADDMA1999990090901MD1210091+9990REMSYN04801359 46/// /2601 11037 21046 39090 40013 52009=
0089013590999992014010823004+60533+008200FM-12+077399999V0202501N002019999999N999999999-00011-00121100031ADDMA1999990090921MD1110091+9990REMSYN04801359 46/// /2502 11001 21012 39092 40003 51009=
0130013590999992014010900004+60533+008200FM-12+077399999V0202201N002019999999N999999999-00351-00471100151ADDAA106000231MA1999990090921MD1900051+9990OD139900401999REMSYN06401359 16/// /2202 11035 21047 39092 40015 50005 69921 333 91104=
0089013590999992014010901004+60533+008200FM-12+077399999V0202601N002019999999N999999999-00081-00221100041ADDMA1999990090911MD1900011+9990REMSYN04801359 46/// /2602 11008 21022 39091 40004 50001=
0089013590999992014010902004+60533+008200FM-12+077399999V0202201N002019999999N999999999-00261-00471100101ADDMA1999990090911MD1810011+9990REMSYN04801359 46/// /2202 11026 21047 39091 40010 58001=
0089013590999992014010903004+60533+008200FM-12+077399999V0202601N002019999999N999999999-00051-00331100041ADDMA1999990090921MD1510001+9990REMSYN04801359 46/// /2602 11005 21033 39092 40004 55000=
0089013590999992014010904004+60533+008200FM-12+077399999V0209999C999999999999N999999999-00441-00691100131ADDMA1999990090881MD1810031+9990REMSYN04801359 46/// /0000 11044 21069 39088 40013 58003=
0089013590999992014010905004+60533+008200FM-12+077399999V0202201N001019999999N999999999-00221-00501100021ADDMA1999990090851MD1810061+9990REMSYN04801359 46/// /2201 11022 21050 39085 40002 58006=
0271013590999992014010906004+60533+008200FM-12+077399999V0202701N003019999999N050000199-00161-00451099941ADDAA112000091AA224000631AJ100453100450094AY121021AY221021GA1051+999991081GF105991051990999999991991IA1289KA1240N-00541MA1999990090791MD1710131+9990MW1021OD139900601999REMSYN09401359 11684 52703 11016 21045 39079 49994 57013 60002 70222 85200 333 21054 48045 70006 91106=
0089013590999992014010907004+60533+008200FM-12+077399999V0200501N002019999999N999999999-00311-00571100001ADDMA1999990090801MD1510081+9990REMSYN04801359 46/// /0502 11031 21057 39080 40000 55008=
0089013590999992014010908004+60533+008200FM-12+077399999V0202501N001019999999N999999999-00431-00681099991ADDMA1999990090751MD1610091+9990REMSYN04801359 46/// /2501 11043 21068 39075 49999 56009=
0089013590999992014010909004+60533+008200FM-12+077399999V0200601N002019999999N999999999-00521-00741099981ADDMA1999990090721MD1810071+9990REMSYN04801359 46/// /0602 11052 21074 39072 49998 58007=
0089013590999992014010910004+60533+008200FM-12+077399999V0203601N001019999999N999999999-00651-00861099971ADDMA1999990090671MD1810131+9990REMSYN04801359 46/// /3601 11065 21086 39067 49997 58013=
0089013590999992014010911004+60533+008200FM-12+077399999V0209999C999999999999N999999999-00611-00821099871ADDMA1999990090591MD1810161+9990REMSYN04801359 46/// /0000 11061 21082 39059 49987 58016=
0222013590999992014010912004+60533+008200FM-12+077399999V0209999C999999999999N060000199-00611-00801099741ADDAA106000091AY121021AY221021GA1991+999991021GA2031+999991031GF107991990990999999991991MA1999990090481MD1810241+9990MW1021OD139900501999REMSYN07601359 11986 70000 11061 21080 39048 49974 58024 60001 70222 83058 333 91105=
0089013590999992014010913004+60533+008200FM-12+077399999V0209999C999999999999N999999999-00681-00851099721ADDMA1999990090431MD1710241+9990REMSYN04801359 46/// /0000 11068 21085 39043 49972 57024=
0089013590999992014010914004+60533+008200FM-12+077399999V0209999C999999999999N999999999-00771-00931099721ADDMA1999990090401MD1610191+9990REMSYN04801359 46/// /0000 11077 21093 39040 49972 56019=
0089013590999992014010915004+60533+008200FM-12+077399999V0209999C999999999999N999999999-01001-01131099761ADDMA1999990090361MD1710121+9990REMSYN04801359 46/// /0000 11100 21113 39036 49976 57012=
0089013590999992014010916004+60533+008200FM-12+077399999V0209999C999999999999N999999999-01111-01251099751ADDMA1999990090311MD1810111+9990REMSYN04801359 46/// /0000 11111 21125 39031 49975 58011=
0089013590999992014010917004+60533+008200FM-12+077399999V0202101N002019999999N999999999-01291-01431099771ADDMA1999990090271MD1710131+9990REMSYN04801359 46/// /2102 11129 21143 39027 49977 57013=
0244013590999992014010918004+60533+008200FM-12+077399999V0202401N002019999999N060000199-01161-01281099641ADDAA112000231AY121021AY221021GA1999+999991021GF105991001990999999991991KA1120M-00081MA1999990090201MD1810161+9990MW1021OD139900401999REMSYN08201359 11986 52402 11116 21128 39020 49964 58016 69922 70222 80008 333 11008 91104=EQDQ01    003SCCGA1
0089013590999992014010919004+60533+008200FM-12+077399999V0202101N002019999999N999999999-01071-01201099621ADDMA1999990090211MD1510111+9990REMSYN04801359 46/// /2102 11107 21120 39021 49962 55011=
0089013590999992014010920004+60533+008200FM-12+077399999V0209999C999999999999N999999999-01171-01311099721ADDMA1999990090271MD1510001+9990REMSYN04801359 46/// /0000 11117 21131 39027 49972 55000=
0089013590999992014010921004+60533+008200FM-12+077399999V0209999C999999999999N999999999-01241-01381099761ADDMA1999990090281MD1310081+9990REMSYN04801359 46/// /0000 11124 21138 39028 49976 53008=
0089013590999992014010922004+60533+008200FM-12+077399999V0209999C999999999999N999999999-01201-01331099781ADDMA1999990090311MD1110111+9990REMSYN04801359 46/// /0000 11120 21133 39031 49978 51011=
0089013590999992014010923004+60533+008200FM-12+077399999V0202001N001019999999N999999999-01091-01221099761ADDMA1999990090331MD1210061+9990REMSYN04801359 46/// /2001 11109 21122 39033 49976 52006=
0130013590999992014011000004+60533+008200FM-12+077399999V0209999C999999999999N999999999-01051-01191099771ADDAA106000091MA1999990090351MD1210071+9990OD139900401999REMSYN06401359 16/// ///// 11105 21119 39035 49977 52007 60001 333 91104=
0089013590999992014011001004+60533+008200FM-12+077399999V0202301N001019999999N999999999-01141-01291099841ADDMA1999990090381MD1210071+9990REMSYN04801359 46/// /2301 11114 21129 39038 49984 52007=
0089013590999992014011002004+60533+008200FM-12+077399999V0202301N001019999999N999999999-00951-01071099791ADDMA1999990090401MD1210071+9990REMSYN04801359 46/// /2301 11095 21107 39040 49979 52007=
0089013590999992014011003004+60533+008200FM-12+077399999V0202001N002019999999N999999999-00741-00891099731ADDMA1999990090421MD1210071+9990REMSYN04801359 46/// /2002 11074 21089 39042 49973 52007=
0089013590999992014011004004+60533+008200FM-12+077399999V0209999C999999999999N999999999-00791-00971099771ADDMA1999990090441MD1210061+9990REMSYN04801359 46/// /0000 11079 21097 39044 49977 52006=
0089013590999992014011005004+60533+008200FM-12+077399999V0201501N001019999999N999999999-00741-00891099781ADDMA1999990090461MD1210061+9990REMSYN04801359 46/// /1501 11074 21089 39046 49978 52006=
0271013590999992014011006004+60533+008200FM-12+077399999V0202801N002019999999N060000199-00691-00891099791ADDAA112000091AA224000231AJ100453100450094AY121021AY201021GA1021+999991081GF102991021990999999991991IA1289KA1240N-01381MA1999990090491MD1310071+9990MW1011OD139900401999REMSYN09401359 11586 22802 11069 21089 39049 49979 53007 60002 70120 82200 333 21138 48045 70002 91104=
0089013590999992014011007004+60533+008200FM-12+077399999V0202301N001019999999N999999999-00581-00881099791ADDMA1999990090521MD1310081+9990REMSYN04801359 46/// /2301 11058 21088 39052 49979 53008=
0089013590999992014011008004+60533+008200FM-12+077399999V0209999C999999999999N999999999-00321-00641099751ADDMA1999990090581MD1310121+9990REMSYN04801359 46/// /0000 11032 21064 39058 49975 53012=
0089013590999992014011009004+60533+008200FM-12+077399999V0202901N001019999999N999999999-00151-00541099731ADDMA1999990090611MD1210121+9990REMSYN04801359 46/// /2901 11015 21054 39061 49973 52012=
0089013590999992014011010004+60533+008200FM-12+077399999V0202701N002019999999N999999999-00201-00601099781ADDMA1999990090641MD1210111+9990REMSYN04801359 46/// /2702 11020 21060 39064 49978 52011=
0089013590999992014011011004+60533+008200FM-12+077399999V0202401N004019999999N999999999-00241-00681099791ADDMA1999990090631MD1210061+9990REMSYN04801359 46/// /2404 11024 21068 39063 49979 52006=
0206013590999992014011012004+60533+008200FM-12+077399999V0202201N004019999999N070001199-00221-00671099771ADDAA106000091AY101021AY201021GA1011+999991031GF101991011990999999991991MA1999990090631MD1900021+9990MW1021OD139900901999REMSYN07601359 11989 12204 11022 21067 39063 49977 50002 60001 70200 81030 333 91109=
0089013590999992014011013004+60533+008200FM-12+077399999V0202301N006019999999N999999999-00111-00501099681ADDMA1999990090571MD1810071+9990REMSYN04801359 46/// /2306 11011 21050 39057 49968 58007=
0089013590999992014011014004+60533+008200FM-12+077399999V0202001N003019999999N999999999-00151-00611099741ADDMA1999990090621MD1510021+9990REMSYN04801359 46/// /2003 11015 21061 39062 49974 55002=
0089013590999992014011015004+60533+008200FM-12+077399999V0200301N002019999999N999999999-00201-00571099701ADDMA1999990090571MD1810061+9990REMSYN04801359 46/// /0302 11020 21057 39057 49970 58006=
0089013590999992014011016004+60533+008200FM-12+077399999V0202401N005019999999N999999999-00081-00381099601ADDMA1999990090511MD1810061+9990REMSYN04801359 46/// /2405 11008 21038 39051 49960 58006=
0089013590999992014011017004+60533+008200FM-12+077399999V0202301N006019999999N999999999-00021-00321099541ADDMA1999990090471MD1610141+9990REMSYN04801359 46/// /2306 11002 21032 39047 49954 56014=
0225013590999992014011018004+60533+008200FM-12+077399999V0202401N004019999999N050000199-00061-00211099591ADDAA112000091AY101021AY201021GA1021+999991081GF102991021990999999991991KA1120M+00001MA1999990090511MD1510051+9990MW1021OD139901401999REMSYN08201359 11584 22404 11006 21021 39051 49959 55005 60002 70200 82200 333 10000 91114=
0089013590999992014011019004+60533+008200FM-12+077399999V0203001N003019999999N999999999+00011-00331099601ADDMA1999990090541MD1310031+9990REMSYN04801359 46/// /3003 10001 21033 39054 49960 53003=
0089013590999992014011020004+60533+008200FM-12+077399999V0202501N002019999999N999999999-00161-00471099661ADDMA1999990090551MD1110071+9990REMSYN04801359 46/// /2502 11016 21047 39055 49966 51007=
0089013590999992014011021004+60533+008200FM-12+077399999V0200201N001019999999N999999999-00141-00501099701ADDMA1999990090581MD1210071+9990REMSYN04801359 46/// /0201 11014 21050 39058 49970 52007=
0089013590999992014011022004+60533+008200FM-12+077399999V0203401N001019999999N999999999-00151-00511099701ADDMA1999990090581MD1900041+9990REMSYN04801359 46/// /3401 11015 21051 39058 49970 50004=
0089013590999992014011023004+60533+008200FM-12+077399999V0203301N002019999999N999999999-00131-00541099721ADDMA1999990090611MD1110061+9990REMSYN04801359 46/// /3302 11013 21054 39061 49972 51006=
0130013590999992014011100004+60533+008200FM-12+077399999V0202901N002019999999N999999999-00151-00521099721ADDAA106000631MA1999990090601MD1900021+9990OD139900701999REMSYN06401359 16/// /2902 11015 21052 39060 49972 50002 69961 333 91107=
0089013590999992014011101004+60533+008200FM-12+077399999V0202401N003019999999N999999999-00131-00461099691ADDMA1999990090571MD1810011+9990REMSYN04801359 46/// /2403 11013 21046 39057 49969 58001=
0089013590999992014011102004+60533+008200FM-12+077399999V0202201N004019999999N999999999-00081-00491099641ADDMA1999990090551MD1810061+9990REMSYN04801359 46/// /2204 11008 21049 39055 49964 58006=
0089013590999992014011103004+60533+008200FM-12+077399999V0202101N004019999999N999999999-00101-00411099601ADDMA1999990090511MD1810101+9990REMSYN04801359 46/// /2104 11010 21041 39051 49960 58010=
0089013590999992014011104004+60533+008200FM-12+077399999V0203401N002019999999N999999999-00201-00461099611ADDMA1999990090491MD1810091+9990REMSYN04801359 46/// /3402 11020 21046 39049 49961 58009=
0089013590999992014011105004+60533+008200FM-12+077399999V0202501N003019999999N999999999-00121-00451099511ADDMA1999990090421MD1810131+9990REMSYN04801359 46/// /2503 11012 21045 39042 49951 58013=
0271013590999992014011106004+60533+008200FM-12+077399999V0202401N004019999999N030000199-00061-00481099501ADDAA112000931AA224001031AJ100453100450094AY181021AY221021GA1051+999991081GF105991051990999999991991IA1289KA1240N-00281MA1999990090421MD1510081+9990MW1261OD139901001999REMSYN09401359 11680 52404 11006 21048 39042 49950 55008 69992 72682 85200 333 21028 48045 70010 91110=
0089013590999992014011107004+60533+008200FM-12+077399999V0202301N005019999999N999999999-00091-00391099531ADDMA1999990090451MD1510031+9990REMSYN04801359 46/// /2305 11009 21039 39045 49953 55003=
0089013590999992014011108004+60533+008200FM-12+077399999V0203101N001019999999N999999999-00171-00311099581ADDMA1999990090461MD1310041+9990REMSYN04801359 46/// /3101 11017 21031 39046 49958 53004=
0089013590999992014011109004+60533+008200FM-12+077399999V0200601N003019999999N999999999-00221-00361099641ADDMA1999990090501MD1310081+9990REMSYN04801359 46/// /0603 11022 21036 39050 49964 53008=
0089013590999992014011110004+60533+008200FM-12+077399999V0209999C999999999999N999999999-00251-00471099621ADDMA1999990090481MD1900031+9990REMSYN04801359 46/// /0000 11025 21047 39048 49962 50003=
0089013590999992014011111004+60533+008200FM-12+077399999V0200801N002019999999N999999999-00391-00711099711ADDMA1999990090521MD1310051+9990REMSYN04801359 46/// /0802 11039 21071 39052 49971 53005=
0222013590999992014011112004+60533+008200FM-12+077399999V0200701N002019999999N040000199-00491-00711099731ADDAA106000631AY181021AY221021GA1991+999991031GA2021+999991081GF105991990990999999991991MA1999990090501MD1510001+9990MW1261OD139900901999REMSYN07601359 11582 50702 11049 21071 39050 49973 55000 69961 72682 82230 333 91109=
0089013590999992014011113004+60533+008200FM-12+077399999V0200801N002019999999N999999999-00511-00651099751ADDMA1999990090511MD1900031+9990REMSYN04801359 46/// /0802 11051 21065 39051 49975 50003=
0089013590999992014011114004+60533+008200FM-12+077399999V0200601N002019999999N999999999-00561-00671099791ADDMA1999990090541MD1310021+9990REMSYN04801359 46/// /0602 11056 21067 39054 49979 53002=
0089013590999992014011115004+60533+008200FM-12+077399999V0200701N002019999999N999999999-00631-00731099851ADDMA1999990090561MD1310071+9990REMSYN04801359 46/// /0702 11063 21073 39056 49985 53007=
0089013590999992014011116004+60533+008200FM-12+077399999V0200501N001019999999N999999999-00681-00781099901ADDMA1999990090601MD1210081+9990REMSYN04801359 46/// /0501 11068 21078 39060 49990 52008=
0089013590999992014011117004+60533+008200FM-12+077399999V0200501N002019999999N999999999-00731-00831100011ADDMA1999990090671MD1310141+9990REMSYN04801359 46/// /0502 11073 21083 39067 40001 53014=
0225013590999992014011118004+60533+008200FM-12+077399999V0203301N001019999999N050000199-00591-00671100001ADDAA112000631AY181021AY221021GA1031+999991081GF103991031990999999991991KA1120M-00021MA1999990090721MD1210151+9990MW1021OD139900601999REMSYN08201359 11684 33301 11059 21067 39072 40000 52015 69962 70282 83200 333 11002 91106=
0089013590999992014011119004+60533+008200FM-12+077399999V0202501N005019999999N999999999-00261-00661099921ADDMA1999990090751MD1110151+9990REMSYN04801359 46/// /2505 11026 21066 39075 49992 51015=
0089013590999992014011120004+60533+008200FM-12+077399999V0202501N004019999999N999999999-00331-00701100001ADDMA1999990090791MD1210121+9990REMSYN04801359 46/// /2504 11033 21070 39079 40000 52012=
0089013590999992014011121004+60533+008200FM-12+077399999V0202401N002019999999N999999999-00421-00681100081ADDMA1999990090841MD1210121+9990REMSYN04801359 46/// /2402 11042 21068 39084 40008 52012=
0089013590999992014011122004+60533+008200FM-12+077399999V0202201N001019999999N999999999-00521-00781100111ADDMA1999990090831MD1900091+9990REMSYN04801359 46/// /2201 11052 21078 39083 40011 50009=
0089013590999992014011123004+60533+008200FM-12+077399999V0200801N002019999999N999999999-00721-00961100191ADDMA1999990090841MD1110051+9990REMSYN04801359 46/// /0802 11072 21096 39084 40019 51005=
0130013590999992014011200004+60533+008200FM-12+077399999V0200601N003019999999N999999999-00851-00981100311ADDAA106000091MA1999990090911MD1310071+9990OD139901101999REMSYN06401359 16/// /0603 11085 21098 39091 40031 53007 60001 333 91111=
0089013590999992014011201004+60533+008200FM-12+077399999V0209999C999999999999N999999999-00861-01001100381ADDMA1999990090971MD1310141+9990REMSYN04801359 46/// /0000 11086 21100 39097 40038 53014=
0089013590999992014011202004+60533+008200FM-12+077399999V0200701N001019999999N999999999-00891-01061100531ADDMA1999990091091MD1310251+9990REMSYN04801359 46/// /0701 11089 21106 39109 40053 53025=
0089013590999992014011203004+60533+008200FM-12+077399999V0200801N002019999999N999999999-00961-01131100701ADDMA1999990091231MD1310321+9990REMSYN04801359 46/// /0802 11096 21113 39123 40070 53032=
0089013590999992014011204004+60533+008200FM-12+077399999V0200501N002019999999N999999999-01021-01201100811ADDMA1999990091301MD1210341+9990REMSYN04801359 46/// /0502 11102 21120 39130 40081 52034=
0089013590999992014011205004+60533+008200FM-12+077399999V0201101N001019999999N999999999-01331-01491101061ADDMA1999990091421MD1310331+9990REMSYN04801359 46/// /1101 11133 21149 39142 40106 53033=
0271013590999992014011206004+60533+008200FM-12+077399999V0202901N003019999999N050000199-00871-01351100981ADDAA112000931AA224001531AJ100493100490094AY181021AY201021GA1031+999991081GF103991031990999999991991IA1289KA1240N-01341MA1999990091511MD1310281+9990MW1021OD139901001999REMSYN09401359 11684 32903 11087 21135 39151 40098 53028 69992 70280 83200 333 21134 48049 70015 91110=
0089013590999992014011207004+60533+008200FM-12+077399999V0202901N004019999999N999999999-00801-01341101041ADDMA1999990091591MD1110281+9990REMSYN04801359 46/// /2904 11080 21134 39159 40104 51028=
0089013590999992014011208004+60533+008200FM-12+077399999V0202501N003019999999N999999999-00821-01321101141ADDMA1999990091671MD1310251+9990REMSYN04801359 46/// /2503 11082 21132 39167 40114 53025=
0089013590999992014011209004+60533+008200FM-12+077399999V0202801N003019999999N999999999-00761-01351101211ADDMA1999990091751MD1310241+9990REMSYN04801359 46/// /2803 11076 21135 39175 40121 53024=
0089013590999992014011210004+60533+008200FM-12+077399999V0203101N003019999999N999999999-00721-01351101311ADDMA1999990091861MD1310271+9990REMSYN04801359 46/// /3103 11072 21135 39186 40131 53027=
0089013590999992014011211004+60533+008200FM-12+077399999V0202701N004019999999N999999999-00721-01301101321ADDMA1999990091871MD1110201+9990REMSYN04801359 46/// /2704 11072 21130 39187 40132 51020=
0206013590999992014011212004+60533+008200FM-12+077399999V0202801N005019999999N060000199-00651-01341101341ADDAA106000091AY101021AY201021GA1011+999991081GF101991011990999999991991MA1999990091911MD1110161+9990MW1021OD139901101999REMSYN07601359 11686 12805 11065 21134 39191 40134 51016 60001 70200 81200 333 91111=
0089013590999992014011213004+60533+008200FM-12+077399999V0202901N005019999999N999999999-00671-01341101431ADDMA1999990091991MD1310131+9990REMSYN04801359 46/// /2905 11067 21134 39199 40143 53013=
0089013590999992014011214004+60533+008200FM-12+077399999V0202801N004019999999N999999999-00721-01371101511ADDMA1999990092041MD1210171+9990REMSYN04801359 46/// /2804 11072 21137 39204 40151 52017=
0089013590999992014011215004+60533+008200FM-12+077399999V0200501N002019999999N999999999-00841-01451101621ADDMA1999990092101MD1310191+9990REMSYN04801359 46/// /0502 11084 21145 39210 40162 53019=
0089013590999992014011216004+60533+008200FM-12+077399999V0200301N003019999999N999999999-00931-01501101711ADDMA1999990092141MD1210161+9990REMSYN04801359 46/// /0303 11093 21150 39214 40171 52016=
0089013590999992014011217004+60533+008200FM-12+077399999V0202401N002019999999N999999999-01451-01791101931ADDMA1999990092171MD1210131+9990REMSYN04801359 46/// /2402 11145 21179 39217 40193 52013=
0203013590999992014011218004+60533+008200FM-12+077399999V0203001N001019999999N070001199-01631-01881102041ADDAA112000091AY101021AY201021GF100995999999999999999999KA1120M-00641MA1999990092201MD1210101+9990MW1021OD139901201999REMSYN07601359 11989 03001 11163 21188 39220 40204 52010 60002 70200 333 11064 91112=
0089013590999992014011219004+60533+008200FM-12+077399999V0209999C999999999999N999999999-01911-02181102171ADDMA1999990092211MD1210071+9990REMSYN04801359 46/// ///// 11191 21218 39221 40217 52007=
0089013590999992014011220004+60533+008200FM-12+077399999V0209999C999999999999N999999999-01921-02131102181ADDMA1999990092231MD1210061+9990REMSYN04801359 46/// ///// 11192 21213 39223 40218 52006=
0089013590999992014011221004+60533+008200FM-12+077399999V0200401N001019999999N999999999-01981-02171102241ADDMA1999990092261MD1310061+9990REMSYN04801359 46/// /0401 11198 21217 39226 40224 53006=
0089013590999992014011222004+60533+008200FM-12+077399999V0209999C999999999999N999999999-02361-02631102391ADDMA1999990092251MD1900041+9990REMSYN04801359 46/// /0000 11236 21263 39225 40239 50004=
0089013590999992014011223004+60533+008200FM-12+077399999V0200301N001019999999N999999999-02071-02271102251ADDMA1999990092231MD1900011+9990REMSYN04801359 46/// /0301 11207 21227 39223 40225 50001=
0130013590999992014011300004+60533+008200FM-12+077399999V0209999C999999999999N999999999-02221-02451102341ADDAA106000091MA1999990092251MD1510011+9990OD139900201999REMSYN06401359 16/// /0000 11222 21245 39225 40234 55001 60001 333 91102=
0089013590999992014011301004+60533+008200FM-12+077399999V0209999C999999999999N999999999-02131-02371102271ADDMA1999990092221MD1810031+9990REMSYN04801359 46/// /0000 11213 21237 39222 40227 58003=
0089013590999992014011303004+60533+008200FM-12+077399999V0209999C999999999999N999999999-02261-02521102301ADDMA1999990092201MD1810051+9990REMSYN04801359 46/// /0000 11226 21252 39220 40230 58005=
0089013590999992014011304004+60533+008200FM-12+077399999V0209999C999999999999N999999999-02321-02561102261ADDMA1999990092151MD1810071+9990REMSYN04801359 46/// /0000 11232 21256 39215 40226 58007=
0089013590999992014011305004+60533+008200FM-12+077399999V0209999C999999999999N999999999-02381-02641102261ADDMA1999990092131MD1510111+9990REMSYN04801359 46/// /0000 11238 21264 39213 40226 55011=
0271013590999992014011306004+60533+008200FM-12+077399999V0202201N001019999999N030000199-02331-02611102221ADDAA112000091AA224000091AJ100493100490094AY111021AY201021GA1041+999991031GF104991041990999999991991IA1289KA1240N-02521MA1999990092111MD1610101+9990MW1031OD139900301999REMSYN09401359 11980 42201 11233 21261 39211 40222 56010 60002 70310 84050 333 21252 48049 70000 91103=
0089013590999992014011307004+60533+008200FM-12+077399999V0209999C999999999999N999999999-02181-02431102151ADDMA1999990092101MD1610061+9990REMSYN04801359 46/// /0000 11218 21243 39210 40215 56006=
0089013590999992014011308004+60533+008200FM-12+077399999V0209999C999999999999N999999999-02041-02271102071ADDMA1999990092081MD1810041+9990REMSYN04801359 46/// /0000 11204 21227 39208 40207 58004=
0089013590999992014011309004+60533+008200FM-12+077399999V0209999C999999999999N999999999-01991-02221102051ADDMA1999990092081MD1710021+9990REMSYN04801359 46/// /0000 11199 21222 39208 40205 57002=
0089013590999992014011310004+60533+008200FM-12+077399999V0209999C999999999999N999999999-01881-02101102001ADDMA1999990092071MD1710021+9990REMSYN04801359 46/// /0000 11188 21210 39207 40200 57002=
0089013590999992014011311004+60533+008200FM-12+077399999V0209999C999999999999N999999999-01741-01961101921ADDMA1999990092051MD1810031+9990REMSYN04801359 46/// /0000 11174 21196 39205 40192 58003=
0251013590999992014011312004+60533+008200FM-12+077399999V0209999C999999999999N010000199-01701-01941101861ADDAA106000091AJ199991999999999AY121021AY211021GA1991+999991051GA2061+999991071GF108991990990999999991991IA1289MA1999990092011MD1810071+9990MW1021OD139900201999REMSYN08201359 11160 80000 11170 21194 39201 40186 58007 60001 70221 8662/ 333 48/// 91102=
0089013590999992014011313004+60533+008200FM-12+077399999V0209999C999999999999N999999999-01621-01861101801ADDMA1999990091991MD1710081+9990REMSYN04801359 46/// /0000 11162 21186 39199 40180 57008=
0089013590999992014011314004+60533+008200FM-12+077399999V0209999C999999999999N999999999-01611-01831101781ADDMA1999990091981MD1610081+9990REMSYN04801359 46/// /0000 11161 21183 39198 40178 56008=
0089013590999992014011315004+60533+008200FM-12+077399999V0209999C999999999999N999999999-01611-01821101751ADDMA1999990091951MD1710061+9990REMSYN04801359 46/// /0000 11161 21182 39195 40175 57006=
0089013590999992014011316004+60533+008200FM-12+077399999V0201001N001019999999N999999999-01621-01831101741ADDMA1999990091941MD1810061+9990REMSYN04801359 46/// /1001 11162 21183 39194 40174 58006=
0089013590999992014011317004+60533+008200FM-12+077399999V0209999C999999999999N999999999-01661-01871101751ADDMA1999990091931MD1710051+9990REMSYN04801359 46/// /0000 11166 21187 39193 40175 57005=
0254013590999992014011318004+60533+008200FM-12+077399999V0209999C999999999999N004500199-01651-01861101751ADDAA112002031AJ199991999999999AY171021AY221021GA1081+999991051GF108991081990999999991991IA1289KA1120M-01591MA1999990091931MD1710021+9990MW1711OD139900201999REMSYN08801359 11345 80000 11165 21186 39193 40175 57002 60022 77172 8802/ 333 11159 48/// 91102=
0089013590999992014011319004+60533+008200FM-12+077399999V0209999C999999999999N999999999-01611-01811101731ADDMA1999990091931MD1410001+9990REMSYN04801359 46/// /0000 11161 21181 39193 40173 54000=
0089013590999992014011320004+60533+008200FM-12+077399999V0209999C999999999999N999999999-01621-01821101791ADDMA1999990091981MD1310051+9990REMSYN04801359 46/// /0000 11162 21182 39198 40179 53005=
0089013590999992014011321004+60533+008200FM-12+077399999V0209999C999999999999N999999999-01601-01801101771ADDMA1999990091971MD1900031+9990REMSYN04801359 46/// /0000 11160 21180 39197 40177 50003=
0089013590999992014011322004+60533+008200FM-12+077399999V0209999C999999999999N999999999-01591-01791101781ADDMA1999990091981MD1110051+9990REMSYN04801359 46/// /0000 11159 21179 39198 40178 51005=
0089013590999992014011323004+60533+008200FM-12+077399999V0209999C999999999999N999999999-01591-01791101801ADDMA1999990092001MD1310021+9990REMSYN04801359 46/// /0000 11159 21179 39200 40180 53002=
0130013590999992014011400004+60533+008200FM-12+077399999V0209999C999999999999N999999999-01611-01821101811ADDAA106002031MA1999990092001MD1210041+9990OD139900101999REMSYN06401359 16/// /0000 11161 21182 39200 40181 52004 60021 333 91101=
0089013590999992014011401004+60533+008200FM-12+077399999V0209999C999999999999N999999999-01601-01801101811ADDMA1999990092011MD1210031+9990REMSYN04801359 46/// /0000 11160 21180 39201 40181 52003=
0089013590999992014011402004+60533+008200FM-12+077399999V0209999C999999999999N999999999-01631-01831101821ADDMA1999990092011MD1210011+9990REMSYN04801359 46/// /0000 11163 21183 39201 40182 52001=
0089013590999992014011403004+60533+008200FM-12+077399999V0209999C999999999999N999999999-01641-01841101861ADDMA1999990092041MD1210031+9990REMSYN04801359 46/// /0000 11164 21184 39204 40186 52003=
0089013590999992014011404004+60533+008200FM-12+077399999V0209999C999999999999N999999999-01671-01881101881ADDMA1999990092041MD1210031+9990REMSYN04801359 46/// /0000 11167 21188 39204 40188 52003=
0089013590999992014011405004+60533+008200FM-12+077399999V0209999C999999999999N999999999-01681-01891101881ADDMA1999990092041MD1900031+9990REMSYN04801359 46/// /0000 11168 21189 39204 40188 50003=
0287013590999992014011406004+60533+008200FM-12+077399999V0209999C999999999999N015000199-01701-01911101921ADDAA112003031AA224004431AJ100523100520094AY171021AY221021GA1991+999991041GA2031+999991071GF108991990990999999991991IA1289KA1240N-01731MA1999990092071MD1310031+9990MW1781OD139900001999REMSYN09401359 11465 80000 11170 21191 39207 40192 53003 60032 77872 8361/ 333 21173 48052 70044 91100=
0089013590999992014011407004+60533+008200FM-12+077399999V0209999C999999999999N999999999-01681-01891101961ADDMA1999990092121MD1310071+9990REMSYN04801359 46/// /0000 11168 21189 39212 40196 53007=
0089013590999992014011408004+60533+008200FM-12+077399999V0209999C999999999999N999999999-01741-01951102031ADDMA1999990092161MD1210121+9990REMSYN04801359 46/// /0000 11174 21195 39216 40203 52012=
0089013590999992014011409004+60533+008200FM-12+077399999V0209999C999999999999N999999999-01671-01881102041ADDMA1999990092191MD1210121+9990REMSYN04801359 46/// /0000 11167 21188 39219 40204 52012=
0089013590999992014011410004+60533+008200FM-12+077399999V0209999C999999999999N999999999-01601-01811102021ADDMA1999990092201MD1210081+9990REMSYN04801359 46/// /0000 11160 21181 39220 40202 52008=
0089013590999992014011411004+60533+008200FM-12+077399999V0209999C999999999999N999999999-01471-01701101951ADDMA1999990092181MD1900021+9990REMSYN04801359 46/// /0000 11147 21170 39218 40195 50002=
0267013590999992014011412004+60533+008200FM-12+077399999V0209999C999999999999N007000199-01481-01711101951ADDAA106000431AJ199991999999999AY171021AY271021GA1041+999991091GA2991+999991001GA3991+999991041GF107991041990999999991991IA1289MA1999990092181MD1710011+9990MW1851OD139900001999REMSYN08201359 11457 70000 11148 21171 39218 40195 57001 69941 78577 84311 333 48/// 91100=
0089013590999992014011413004+60533+008200FM-12+077399999V0209999C999999999999N999999999-01571-01821102011ADDMA1999990092201MD1510001+9990REMSYN04801359 46/// /0000 11157 21182 39220 40201 55000=
0089013590999992014011414004+60533+008200FM-12+077399999V0209999C999999999999N999999999-01751-02001102101ADDMA1999990092211MD1210031+9990REMSYN04801359 46/// /0000 11175 21200 39221 40210 52003=
0089013590999992014011415004+60533+008200FM-12+077399999V0209999C999999999999N999999999-01891-02141102191ADDMA1999990092251MD1310071+9990REMSYN04801359 46/// /0000 11189 21214 39225 40219 53007=
0089013590999992014011416004+60533+008200FM-12+077399999V0209999C999999999999N999999999-02111-02351102301ADDMA1999990092271MD1210071+9990REMSYN04801359 46/// /0000 11211 21235 39227 40230 52007=
0286013590999992014011418004+60533+008200FM-12+077399999V0209999C999999999999N020000199-02041-02281102301ADDAA112000531AJ199991999999999AY181021AY221021GA1031+999991071GA2991+999991001GA3991+999991031GF106991031990999999991991IA1289KA1120M-01451MA1999990092291MD1210041+9990MW1021OD139900001999REMSYN08801359 11470 60000 11204 21228 39229 40230 52004 69952 70282 83631 333 11145 48/// 91100=
0089013590999992014011419004+60533+008200FM-12+077399999V0209999C999999999999N999999999-02051-02271102311ADDMA1999990092291MD1210031+9990REMSYN04801359 46/// /0000 11205 21227 39229 40231 52003=
0089013590999992014011420004+60533+008200FM-12+077399999V0209999C999999999999N999999999-01991-02211102311ADDMA1999990092311MD1210041+9990REMSYN04801359 46/// /0000 11199 21221 39231 40231 52004=
0089013590999992014011421004+60533+008200FM-12+077399999V0209999C999999999999N999999999-01811-02021102211ADDMA1999990092291MD1900011+9990REMSYN04801359 46/// /0000 11181 21202 39229 40221 50001=
0089013590999992014011422004+60533+008200FM-12+077399999V0209999C999999999999N999999999-01651-01861102131ADDMA1999990092271MD1810021+9990REMSYN04801359 46/// /0000 11165 21186 39227 40213 58002=
0089013590999992014011423004+60533+008200FM-12+077399999V0209999C999999999999N999999999-01611-01821102091ADDMA1999990092261MD1710061+9990REMSYN04801359 46/// /0000 11161 21182 39226 40209 57006=
0130013590999992014011500004+60533+008200FM-12+077399999V0209999C999999999999N999999999-01531-01731102041ADDAA106000091MA1999990092241MD1710051+9990OD139900001999REMSYN06401359 16/// /0000 11153 21173 39224 40204 57005 60001 333 91100=
0089013590999992014011501004+60533+008200FM-12+077399999V0209999C999999999999N999999999-01521-01721102021ADDMA1999990092221MD1710051+9990REMSYN04801359 46/// /0000 11152 21172 39222 40202 57005=
0089013590999992014011502004+60533+008200FM-12+077399999V0209999C999999999999N999999999-01501-01701101981ADDMA1999990092201MD1710061+9990REMSYN04801359 46/// /0000 11150 21170 39220 40198 57006=
0089013590999992014011503004+60533+008200FM-12+077399999V0209999C999999999999N999999999-01471-01671101971ADDMA1999990092191MD1710051+9990REMSYN04801359 46/// /0000 11147 21167 39219 40197 57005=
0089013590999992014011504004+60533+008200FM-12+077399999V0209999C999999999999N999999999-01461-01661101931ADDMA1999990092161MD1710061+9990REMSYN04801359 46/// /0000 11146 21166 39216 40193 57006=
0089013590999992014011505004+60533+008200FM-12+077399999V0209999C999999999999N999999999-01441-01641101901ADDMA1999990092151MD1710051+9990REMSYN04801359 46/// /0000 11144 21164 39215 40190 57005=
0306013590999992014011506004+60533+008200FM-12+077399999V0209999C999999999999N010000199-01421-01611101871ADDAA112999999AA224000431AJ100523100520094AY171021AY221021GA1991+999991051GA2041+999991071GF108991990990999999991991IA1289KA1240N-02141MA1999990092121MD1710071+9990MW1701OD139900001999REMSYN09401359 11360 80000 11142 21161 39212 40187 57007 60002 77072 8462/ 333 21214 48052 70004 91100=EQDQ01  00002PRCP12
0089013590999992014011507004+60533+008200FM-12+077399999V0209999C999999999999N999999999-01411-01601101831ADDMA1999990092091MD1710081+9990REMSYN04801359 46/// /0000 11141 21160 39209 40183 57008=
0089013590999992014011508004+60533+008200FM-12+077399999V0209999C999999999999N999999999-01401-01591101831ADDMA1999990092101MD1510051+9990REMSYN04801359 46/// /0000 11140 21159 39210 40183 55005=
0089013590999992014011509004+60533+008200FM-12+077399999V0209999C999999999999N999999999-01341-01531101801ADDMA1999990092091MD1510031+9990REMSYN04801359 46/// /0000 11134 21153 39209 40180 55003=
0089013590999992014011510004+60533+008200FM-12+077399999V0209999C999999999999N999999999-01301-01521101811ADDMA1999990092111MD1310031+9990REMSYN04801359 46/// /0000 11130 21152 39211 40181 53003=
0089013590999992014011511004+60533+008200FM-12+077399999V0209999C999999999999N999999999-01291-01511101791ADDMA1999990092101MD1410001+9990REMSYN04801359 46/// /0000 11129 21151 39210 40179 54000=
0241013590999992014011512004+60533+008200FM-12+077399999V0209999C999999999999N008000199-01211-01461101741ADDAA106999999AY171021AY271021GA1991+999991041GA2061+999991071GF108991990990999999991991MA1999990092081MD1810021+9990MW1701OD139900201999REMSYN07601359 11258 80000 11121 21146 39208 40174 58002 60001 77077 8661/ 333 91102=EQDQ01  00002PRCP06
0089013590999992014011513004+60533+008200FM-12+077399999V0209999C999999999999N999999999-01211-01461101691ADDMA1999990092041MD1710081+9990REMSYN04801359 46/// /0000 11121 21146 39204 40169 57008=
0089013590999992014011514004+60533+008200FM-12+077399999V0209999C999999999999N999999999-01191-01421101661ADDMA1999990092011MD1710091+9990REMSYN04801359 46/// /0000 11119 21142 39201 40166 57009=
0089013590999992014011515004+60533+008200FM-12+077399999V0209999C999999999999N999999999-01201-01421101671ADDMA1999990092021MD1510061+9990REMSYN04801359 46/// /0000 11120 21142 39202 40167 55006=
0089013590999992014011516004+60533+008200FM-12+077399999V0209999C999999999999N999999999-01231-01431101691ADDMA1999990092031MD1510001+9990REMSYN04801359 46/// /0000 11123 21143 39203 40169 55000=
0089013590999992014011517004+60533+008200FM-12+077399999V0209999C999999999999N999999999-01231-01421101691ADDMA1999990092021MD1210011+9990REMSYN04801359 46/// /0000 11123 21142 39202 40169 52001=
0225013590999992014011518004+60533+008200FM-12+077399999V0209999C999999999999N006000199-01221-01411101701ADDAA112000431AY171021AY271021GA1081+999991051GF108991081990999999991991KA1120M-01191MA1999990092041MD1210021+9990MW1711OD139900001999REMSYN08201359 11456 80000 11122 21141 39204 40170 52002 69942 77177 8802/ 333 11119 91100=
0089013590999992014011519004+60533+008200FM-12+077399999V0209999C999999999999N999999999-01231-01421101721ADDMA1999990092051MD1210021+9990REMSYN04801359 46/// /0000 11123 21142 39205 40172 52002=
0089013590999992014011520004+60533+008200FM-12+077399999V0209999C999999999999N999999999-01231-01411101731ADDMA1999990092061MD1210041+9990REMSYN04801359 46/// /0000 11123 21141 39206 40173 52004=
0089013590999992014011521004+60533+008200FM-12+077399999V0209999C999999999999N999999999-01221-01401101721ADDMA1999990092061MD1210021+9990REMSYN04801359 46/// /0000 11122 21140 39206 40172 52002=
0089013590999992014011522004+60533+008200FM-12+077399999V0209999C999999999999N999999999-01221-01401101721ADDMA1999990092061MD1410001+9990REMSYN04801359 46/// /0000 11122 21140 39206 40172 54000=
0089013590999992014011523004+60533+008200FM-12+077399999V0209999C999999999999N999999999-01201-01381101711ADDMA1999990092061MD1410001+9990REMSYN04801359 46/// /0000 11120 21138 39206 40171 54000=
0130013590999992014011600004+60533+008200FM-12+077399999V0209999C999999999999N999999999-01201-01381101721ADDAA106003031MA1999990092061MD1410001+9990OD139900001999REMSYN06401359 16/// /0000 11120 21138 39206 40172 54000 60031 333 91100=
0108013590999992014011601004+60533+008200FM-12+077399999V0209999C999999999999N999999999-01191-01361101711ADDMA1999990092061MD1790019+9990REMSYN04801359 46/// /0000 11119 21136 39206 40171 54001=EQDQ01.1    3APC3  
0089013590999992014011602004+60533+008200FM-12+077399999V0200701N001019999999N999999999-01141-01321101691ADDMA1999990092061MD1410001+9990REMSYN04801359 46/// /0701 11114 21132 39206 40169 54000=
0089013590999992014011603004+60533+008200FM-12+077399999V0200501N002019999999N999999999-01141-01331101671ADDMA1999990092051MD1710021+9990REMSYN04801359 46/// /0502 11114 21133 39205 40167 57002=
0089013590999992014011604004+60533+008200FM-12+077399999V0200501N002019999999N999999999-01131-01311101671ADDMA1999990092041MD1710021+9990REMSYN04801359 46/// /0502 11113 21131 39204 40167 57002=
0089013590999992014011605004+60533+008200FM-12+077399999V0200501N002019999999N999999999-01131-01311101651ADDMA1999990092031MD1710041+9990REMSYN04801359 46/// /0502 11113 21131 39203 40165 57004=
0271013590999992014011606004+60533+008200FM-12+077399999V0200501N003019999999N006000199-01131-01311101651ADDAA112005031AA224005831AJ100573100570094AY171021AY271021GA1081+999991051GF108991081990999999991991IA1289KA1240N-01231MA1999990092031MD1710021+9990MW1711OD139900501999REMSYN09401359 11456 80503 11113 21131 39203 40165 57002 60052 77177 8802/ 333 21123 48057 70058 91105=
0089013590999992014011607004+60533+008200FM-12+077399999V0200501N003019999999N999999999-01121-01301101661ADDMA1999990092041MD1510011+9990REMSYN04801359 46/// /0503 11112 21130 39204 40166 55001=
0089013590999992014011608004+60533+008200FM-12+077399999V0200501N003019999999N999999999-01101-01281101661ADDMA1999990092041MD1210021+9990REMSYN04801359 46/// /0503 11110 21128 39204 40166 52002=
0089013590999992014011609004+60533+008200FM-12+077399999V0200501N003019999999N999999999-01091-01271101691ADDMA1999990092081MD1310051+9990REMSYN04801359 46/// /0503 11109 21127 39208 40169 53005=
0089013590999992014011610004+60533+008200FM-12+077399999V0200501N004019999999N999999999-01061-01251101681ADDMA1999990092081MD1210041+9990REMSYN04801359 46/// /0504 11106 21125 39208 40168 52004=
0089013590999992014011611004+60533+008200FM-12+077399999V0200501N004019999999N999999999-01041-01231101671ADDMA1999990092071MD1900031+9990REMSYN04801359 46/// /0504 11104 21123 39207 40167 50003=
0222013590999992014011612004+60533+008200FM-12+077399999V0200501N003019999999N003500199-01031-01221101651ADDAA106002031AY171021AY271021GA1991+999991051GA2031+999991071GF108991990990999999991991MA1999990092061MD1710021+9990MW1711OD139900701999REMSYN07601359 11235 80503 11103 21122 39206 40165 57002 60021 77177 8362/ 333 91107=
0089013590999992014011613004+60533+008200FM-12+077399999V0200501N003019999999N999999999-01031-01221101611ADDMA1999990092021MD1710061+9990REMSYN04801359 46/// /0503 11103 21122 39202 40161 57006=
0089013590999992014011614004+60533+008200FM-12+077399999V0200501N003019999999N999999999-01011-01191101581ADDMA1999990092001MD1710071+9990REMSYN04801359 46/// /0503 11101 21119 39200 40158 57007=
0089013590999992014011615004+60533+008200FM-12+077399999V0200501N004019999999N999999999-01001-01171101541ADDMA1999990091971MD1710081+9990REMSYN04801359 46/// /0504 11100 21117 39197 40154 57008=
0089013590999992014011616004+60533+008200FM-12+077399999V0200501N004019999999N999999999-00981-01151101551ADDMA1999990091991MD1510041+9990REMSYN04801359 46/// /0504 11098 21115 39199 40155 55004=
0089013590999992014011617004+60533+008200FM-12+077399999V0200501N004019999999N999999999-00971-01141101521ADDMA1999990091961MD1710041+9990REMSYN04801359 46/// /0504 11097 21114 39196 40152 57004=
0244013590999992014011618004+60533+008200FM-12+077399999V0200501N004019999999N003800199-00951-01121101521ADDAA112004031AY171021AY271021GA1081+999991051GF108991081990999999991991KA1120M-00951MA1999990091961MD1790029+9990MW1711OD139900801999REMSYN08201359 11338 80504 11095 21112 39196 40152 54001 60042 77177 8802/ 333 11095 91108=EQDQ01.1    3APC3  
0089013590999992014011619004+60533+008200FM-12+077399999V0200501N005019999999N999999999-00941-01111101511ADDMA1999990091961MD1610031+9990REMSYN04801359 46/// /0505 11094 21111 39196 40151 56003=
0089013590999992014011620004+60533+008200FM-12+077399999V0200501N004019999999N999999999-00931-01091101531ADDMA1999990091981MD1210021+9990REMSYN04801359 46/// /0504 11093 21109 39198 40153 52002=
0089013590999992014011621004+60533+008200FM-12+077399999V0200501N004019999999N999999999-00931-01101101551ADDMA1999990092011MD1310041+9990REMSYN04801359 46/// /0504 11093 21110 39201 40155 53004=
0089013590999992014011622004+60533+008200FM-12+077399999V0200501N004019999999N999999999-00951-01131101541ADDMA1999990091991MD1900031+9990REMSYN04801359 46/// /0504 11095 21113 39199 40154 50003=
0089013590999992014011623004+60533+008200FM-12+077399999V0200501N004019999999N999999999-00971-01141101531ADDMA1999990091981MD1900011+9990REMSYN04801359 46/// /0504 11097 21114 39198 40153 50001=
0130013590999992014011700004+60533+008200FM-12+077399999V0200501N004019999999N999999999-00991-01171101531ADDAA106001031MA1999990091961MD1710041+9990OD139900901999REMSYN06401359 16/// /0504 11099 21117 39196 40153 57004 60011 333 91109=
0089013590999992014011701004+60533+008200FM-12+077399999V0200501N004019999999N999999999-01001-01181101521ADDMA1999990091951MD1710041+9990REMSYN04801359 46/// /0504 11100 21118 39195 40152 57004=
0089013590999992014011702004+60533+008200FM-12+077399999V0200501N004019999999N999999999-01011-01181101501ADDMA1999990091931MD1710041+9990REMSYN04801359 46/// /0504 11101 21118 39193 40150 57004=
0089013590999992014011703004+60533+008200FM-12+077399999V0200501N004019999999N999999999-01021-01191101491ADDMA1999990091921MD1710041+9990REMSYN04801359 46/// /0504 11102 21119 39192 40149 57004=
0089013590999992014011704004+60533+008200FM-12+077399999V0200501N005019999999N999999999-01021-01191101471ADDMA1999990091911MD1710041+9990REMSYN04801359 46/// /0505 11102 21119 39191 40147 57004=
0089013590999992014011705004+60533+008200FM-12+077399999V0200501N005019999999N999999999-01021-01191101461ADDMA1999990091891MD1710041+9990REMSYN04801359 46/// /0505 11102 21119 39189 40146 57004=
0271013590999992014011706004+60533+008200FM-12+077399999V0200501N005019999999N007000199-01021-01201101441ADDAA112002031AA224005931AJ100653100650094AY171021AY271021GA1081+999991051GF108991081990999999991991IA1289KA1240N-01021MA1999990091881MD1710041+9990MW1711OD139900901999REMSYN09401359 11357 80505 11102 21120 39188 40144 57004 60022 77177 8802/ 333 21102 48065 70059 91109=
0089013590999992014011707004+60533+008200FM-12+077399999V0200501N005019999999N999999999-01021-01191101451ADDMA1999990091881MD1710031+9990REMSYN04801359 46/// /0505 11102 21119 39188 40145 57003=
0089013590999992014011708004+60533+008200FM-12+077399999V0200401N005019999999N999999999-01021-01191101471ADDMA1999990091901MD1310021+9990REMSYN04801359 46/// /0405 11102 21119 39190 40147 53002=
0089013590999992014011709004+60533+008200FM-12+077399999V0200501N004019999999N999999999-01031-01201101501ADDMA1999990091931MD1210051+9990REMSYN04801359 46/// /0504 11103 21120 39193 40150 52005=
0089013590999992014011710004+60533+008200FM-12+077399999V0200501N004019999999N999999999-01031-01211101521ADDMA1999990091951MD1210061+9990REMSYN04801359 46/// /0504 11103 21121 39195 40152 52006=
0089013590999992014011711004+60533+008200FM-12+077399999V0200501N004019999999N999999999-01041-01221101541ADDMA1999990091961MD1210061+9990REMSYN04801359 46/// /0504 11104 21122 39196 40154 52006=
0206013590999992014011712004+60533+008200FM-12+077399999V0200501N005019999999N007000199-01051-01231101511ADDAA106002031AY171021AY271021GA1081+999991051GF108991081990999999991991MA1999990091931MD1900001+9990MW1711OD139901001999REMSYN07601359 11457 80505 11105 21123 39193 40151 50000 60021 77177 8802/ 333 91110=
0089013590999992014011713004+60533+008200FM-12+077399999V0200401N005019999999N999999999-01061-01241101521ADDMA1999990091931MD1810021+9990REMSYN04801359 46/// /0405 11106 21124 39193 40152 58002=
0089013590999992014011714004+60533+008200FM-12+077399999V0200401N005019999999N999999999-01071-01261101511ADDMA1999990091921MD1610041+9990REMSYN04801359 46/// /0405 11107 21126 39192 40151 56004=
0089013590999992014011715004+60533+008200FM-12+077399999V0200401N005019999999N999999999-01081-01271101521ADDMA1999990091931MD1410001+9990REMSYN04801359 46/// /0405 11108 21127 39193 40152 54000=
0089013590999992014011716004+60533+008200FM-12+077399999V0200501N005019999999N999999999-01091-01281101581ADDMA1999990091971MD1310041+9990REMSYN04801359 46/// /0505 11109 21128 39197 40158 53004=
0089013590999992014011717004+60533+008200FM-12+077399999V0200501N005019999999N999999999-01111-01301101601ADDMA1999990091991MD1210071+9990REMSYN04801359 46/// /0505 11111 21130 39199 40160 52007=
0225013590999992014011718004+60533+008200FM-12+077399999V0200501N005019999999N004100199-01121-01311101631ADDAA112003031AY171021AY271021GA1081+999991051GF108991081990999999991991KA1120M-01021MA1999990092011MD1210081+9990MW1711OD139900901999REMSYN08201359 11441 80505 11112 21131 39201 40163 52008 60032 77177 8802/ 333 11102 91109=
0089013590999992014011719004+60533+008200FM-12+077399999V0200501N004019999999N999999999-01141-01321101681ADDMA1999990092051MD1210081+9990REMSYN04801359 46/// /0504 11114 21132 39205 40168 52008=
0089013590999992014011720004+60533+008200FM-12+077399999V0200501N004019999999N999999999-01151-01331101711ADDMA1999990092071MD1210081+9990REMSYN04801359 46/// /0504 11115 21133 39207 40171 52008=
0089013590999992014011721004+60533+008200FM-12+077399999V0200501N003019999999N999999999-01161-01341101761ADDMA1999990092121MD1210111+9990REMSYN04801359 46/// /0503 11116 21134 39212 40176 52011=
0089013590999992014011722004+60533+008200FM-12+077399999V0200501N004019999999N999999999-01181-01361101811ADDMA1999990092151MD1210101+9990REMSYN04801359 46/// /0504 11118 21136 39215 40181 52010=
0089013590999992014011723004+60533+008200FM-12+077399999V0200501N004019999999N999999999-01201-01381101861ADDMA1999990092201MD1210121+9990REMSYN04801359 46/// /0504 11120 21138 39220 40186 52012=
0130013590999992014011800004+60533+008200FM-12+077399999V0200501N005019999999N999999999-01211-01401101891ADDAA106001031MA1999990092211MD1210091+9990OD139900901999REMSYN06401359 16/// /0505 11121 21140 39221 40189 52009 60011 333 91109=
0089013590999992014011801004+60533+008200FM-12+077399999V0200501N004019999999N999999999-01221-01411101911ADDMA1999990092231MD1210081+9990REMSYN04801359 46/// /0504 11122 21141 39223 40191 52008=
0089013590999992014011802004+60533+008200FM-12+077399999V0200501N004019999999N999999999-01231-01431101951ADDMA1999990092261MD1210071+9990REMSYN04801359 46/// /0504 11123 21143 39226 40195 52007=
0089013590999992014011803004+60533+008200FM-12+077399999V0200501N003019999999N999999999-01241-01431101991ADDMA1999990092291MD1210081+9990REMSYN04801359 46/// /0503 11124 21143 39229 40199 52008=
0089013590999992014011804004+60533+008200FM-12+077399999V0200501N004019999999N999999999-01251-01451102011ADDMA1999990092311MD1210081+9990REMSYN04801359 46/// /0504 11125 21145 39231 40201 52008=
0089013590999992014011805004+60533+008200FM-12+077399999V0200501N003019999999N999999999-01251-01441102051ADDMA1999990092341MD1210081+9990REMSYN04801359 46/// /0503 11125 21144 39234 40205 52008=
0271013590999992014011806004+60533+008200FM-12+077399999V0200501N004019999999N004200199-01251-01451102091ADDAA112003031AA224006131AJ100693100690094AY171021AY221021GA1081+999991051GF108991081990999999991991IA1289KA1240N-01261MA1999990092381MD1210091+9990MW1701OD139900801999REMSYN09401359 11342 80504 11125 21145 39238 40209 52009 60032 77072 8802/ 333 21126 48069 70061 91108=
0089013590999992014011807004+60533+008200FM-12+077399999V0200501N003019999999N999999999-01241-01441102121ADDMA1999990092411MD1210101+9990REMSYN04801359 46/// /0503 11124 21144 39241 40212 52010=
0089013590999992014011808004+60533+008200FM-12+077399999V0200501N004019999999N999999999-01221-01421102181ADDMA1999990092481MD1310131+9990REMSYN04801359 46/// /0504 11122 21142 39248 40218 53013=
0089013590999992014011809004+60533+008200FM-12+077399999V0200501N003019999999N999999999-01201-01411102221ADDMA1999990092521MD1310131+9990REMSYN04801359 46/// /0503 11120 21141 39252 40222 53013=
0089013590999992014011810004+60533+008200FM-12+077399999V0200401N004019999999N999999999-01171-01391102251ADDMA1999990092561MD1310151+9990REMSYN04801359 46/// /0404 11117 21139 39256 40225 53015=
0089013590999992014011811004+60533+008200FM-12+077399999V0200501N004019999999N999999999-01161-01381102281ADDMA1999990092581MD1210111+9990REMSYN04801359 46/// /0504 11116 21138 39258 40228 52011=
0206013590999992014011812004+60533+008200FM-12+077399999V0200401N003019999999N006000199-01131-01351102261ADDAA106001031AY171021AY271021GA1081+999991051GF108991081990999999991991MA1999990092581MD1110061+9990MW1711OD139900801999REMSYN07601359 11356 80403 11113 21135 39258 40226 51006 60011 77177 8802/ 333 91108=
0089013590999992014011813004+60533+008200FM-12+077399999V0200501N004019999999N999999999-01101-01331102271ADDMA1999990092601MD1210041+9990REMSYN04801359 46/// /0504 11110 21133 39260 40227 52004=
0089013590999992014011814004+60533+008200FM-12+077399999V0200501N003019999999N999999999-01111-01321102301ADDMA1999990092621MD1310041+9990REMSYN04801359 46/// /0503 11111 21132 39262 40230 53004=
0089013590999992014011815004+60533+008200FM-12+077399999V0200501N003019999999N999999999-01131-01341102341ADDMA1999990092651MD1210071+9990REMSYN04801359 46/// /0503 11113 21134 39265 40234 52007=
0089013590999992014011816004+60533+008200FM-12+077399999V0200501N004019999999N999999999-01141-01331102391ADDMA1999990092691MD1310091+9990REMSYN04801359 46/// /0504 11114 21133 39269 40239 53009=
0089013590999992014011817004+60533+008200FM-12+077399999V0200501N004019999999N999999999-01131-01321102401ADDMA1999990092711MD1210081+9990REMSYN04801359 46/// /0504 11113 21132 39271 40240 52008=
0225013590999992014011818004+60533+008200FM-12+077399999V0200501N004019999999N005000199-01131-01321102451ADDAA112002031AY171021AY271021GA1081+999991051GF108991081990999999991991KA1120M-01091MA1999990092751MD1310101+9990MW1701OD139900801999REMSYN08201359 11450 80504 11113 21132 39275 40245 53010 60022 77077 8802/ 333 11109 91108=
0089013590999992014011819004+60533+008200FM-12+077399999V0200501N004019999999N999999999-01131-01321102501ADDMA1999990092791MD1310101+9990REMSYN04801359 46/// /0504 11113 21132 39279 40250 53010=
0089013590999992014011820004+60533+008200FM-12+077399999V0200501N004019999999N999999999-01131-01321102541ADDMA1999990092831MD1210121+9990REMSYN04801359 46/// /0504 11113 21132 39283 40254 52012=
0089013590999992014011821004+60533+008200FM-12+077399999V0200601N004019999999N999999999-01121-01311102581ADDMA1999990092871MD1210121+9990REMSYN04801359 46/// /0604 11112 21131 39287 40258 52012=
0089013590999992014011822004+60533+008200FM-12+077399999V0200501N004019999999N999999999-01121-01311102621ADDMA1999990092911MD1210111+9990REMSYN04801359 46/// /0504 11112 21131 39291 40262 52011=
0089013590999992014011823004+60533+008200FM-12+077399999V0200501N005019999999N999999999-01111-01301102631ADDMA1999990092911MD1110091+9990REMSYN04801359 46/// /0505 11111 21130 39291 40263 51009=
0130013590999992014011900004+60533+008200FM-12+077399999V0200401N005019999999N999999999-01111-01301102641ADDAA106000631MA1999990092931MD1110061+9990OD139900801999REMSYN06401359 16/// /0405 11111 21130 39293 40264 51006 69961 333 91108=
0089013590999992014011901004+60533+008200FM-12+077399999V0200401N004019999999N999999999-01121-01311102651ADDMA1999990092931MD1210031+9990REMSYN04801359 46/// /0404 11112 21131 39293 40265 52003=
0089013590999992014011902004+60533+008200FM-12+077399999V0200501N005019999999N999999999-01121-01311102641ADDMA1999990092931MD1210011+9990REMSYN04801359 46/// /0505 11112 21131 39293 40264 52001=
0089013590999992014011903004+60533+008200FM-12+077399999V0200501N004019999999N999999999-01121-01311102671ADDMA1999990092951MD1210021+9990REMSYN04801359 46/// /0504 11112 21131 39295 40267 52002=
0089013590999992014011904004+60533+008200FM-12+077399999V0200501N004019999999N999999999-01111-01301102661ADDMA1999990092951MD1210011+9990REMSYN04801359 46/// /0504 11111 21130 39295 40266 52001=
0089013590999992014011905004+60533+008200FM-12+077399999V0200501N004019999999N999999999-01121-01311102671ADDMA1999990092961MD1210031+9990REMSYN04801359 46/// /0504 11112 21131 39296 40267 52003=
0271013590999992014011906004+60533+008200FM-12+077399999V0200501N004019999999N006000199-01111-01301102701ADDAA112001031AA224002931AJ100713100710094AY171021AY271021GA1081+999991051GF108991081990999999991991IA1289KA1240N-01141MA1999990092981MD1310031+9990MW1701OD139900901999REMSYN09401359 11356 80504 11111 21130 39298 40270 53003 60012 77077 8802/ 333 21114 48071 70029 91109=
0089013590999992014011907004+60533+008200FM-12+077399999V0200501N004019999999N999999999-01111-01301102711ADDMA1999990092991MD1210041+9990REMSYN04801359 46/// /0504 11111 21130 39299 40271 52004=
0089013590999992014011908004+60533+008200FM-12+077399999V0200501N004019999999N999999999-01101-01291102741ADDMA1999990093031MD1310071+9990REMSYN04801359 46/// /0504 11110 21129 39303 40274 53007=
0089013590999992014011909004+60533+008200FM-12+077399999V0200501N004019999999N999999999-01091-01271102801ADDMA1999990093081MD1310101+9990REMSYN04801359 46/// /0504 11109 21127 39308 40280 53010=
0089013590999992014011910004+60533+008200FM-12+077399999V0200501N004019999999N999999999-01071-01261102811ADDMA1999990093101MD1210101+9990REMSYN04801359 46/// /0504 11107 21126 39310 40281 52010=
0089013590999992014011911004+60533+008200FM-12+077399999V0200501N004019999999N999999999-01061-01251102811ADDMA1999990093101MD1110071+9990REMSYN04801359 46/// /0504 11106 21125 39310 40281 51007=
0206013590999992014011912004+60533+008200FM-12+077399999V0200401N004019999999N007000199-01031-01221102791ADDAA106000531AY171021AY271021GA1081+999991051GF108991081990999999991991MA1999990093091MD1900021+9990MW1701OD139900801999REMSYN07601359 11457 80404 11103 21122 39309 40279 50002 69951 77077 8802/ 333 91108=
0089013590999992014011913004+60533+008200FM-12+077399999V0200501N005019999999N999999999-01031-01221102741ADDMA1999990093051MD1810041+9990REMSYN04801359 46/// /0505 11103 21122 39305 40274 58004=
0089013590999992014011914004+60533+008200FM-12+077399999V0200501N004019999999N999999999-01041-01221102731ADDMA1999990093041MD1710061+9990REMSYN04801359 46/// /0504 11104 21122 39304 40273 57006=
0089013590999992014011915004+60533+008200FM-12+077399999V0200401N004019999999N999999999-01041-01221102721ADDMA1999990093031MD1610071+9990REMSYN04801359 46/// /0404 11104 21122 39303 40272 56007=
0089013590999992014011916004+60533+008200FM-12+077399999V0200501N004019999999N999999999-01031-01211102761ADDMA1999990093071MD1310011+9990REMSYN04801359 46/// /0504 11103 21121 39307 40276 53001=
0089013590999992014011917004+60533+008200FM-12+077399999V0200501N004019999999N999999999-01031-01211102791ADDMA1999990093101MD1310061+9990REMSYN04801359 46/// /0504 11103 21121 39310 40279 53006=
0225013590999992014011918004+60533+008200FM-12+077399999V0200501N005019999999N008000199-01031-01211102811ADDAA112000531AY171021AY221021GA1081+999991051GF108991081990999999991991KA1120M-01021MA1999990093111MD1210091+9990MW1701OD139900901999REMSYN08201359 11458 80505 11103 21121 39311 40281 52009 69952 77072 8802/ 333 11102 91109=
0089013590999992014011919004+60533+008200FM-12+077399999V0200501N004019999999N999999999-01051-01231102821ADDMA1999990093121MD1110051+9990REMSYN04801359 46/// /0504 11105 21123 39312 40282 51005=
0089013590999992014011920004+60533+008200FM-12+077399999V0200501N003019999999N999999999-01041-01221102821ADDMA1999990093121MD1210021+9990REMSYN04801359 46/// /0503 11104 21122 39312 40282 52002=
0089013590999992014011921004+60533+008200FM-12+077399999V0200501N003019999999N999999999-01051-01221102811ADDMA1999990093111MD1900011+9990REMSYN04801359 46/// /0503 11105 21122 39311 40281 50001=
0089013590999992014011922004+60533+008200FM-12+077399999V0200501N004019999999N999999999-01051-01221102811ADDMA1999990093111MD1710011+9990REMSYN04801359 46/// /0504 11105 21122 39311 40281 57001=
0089013590999992014011923004+60533+008200FM-12+077399999V0200501N004019999999N999999999-01051-01231102791ADDMA1999990093091MD1710031+9990REMSYN04801359 46/// /0504 11105 21123 39309 40279 57003=
0130013590999992014012000004+60533+008200FM-12+077399999V0200501N004019999999N999999999-01061-01241102781ADDAA106000091MA1999990093081MD1810031+9990OD139900701999REMSYN06401359 16/// /0504 11106 21124 39308 40278 58003 60001 333 91107=
0089013590999992014012001004+60533+008200FM-12+077399999V0200501N003019999999N999999999-01051-01231102771ADDMA1999990093071MD1710031+9990REMSYN04801359 46/// /0503 11105 21123 39307 40277 57003=
0089013590999992014012002004+60533+008200FM-12+077399999V0200501N003019999999N999999999-01051-01241102771ADDMA1999990093071MD1710021+9990REMSYN04801359 46/// /0503 11105 21124 39307 40277 57002=
0089013590999992014012003004+60533+008200FM-12+077399999V0200501N004019999999N999999999-01041-01231102731ADDMA1999990093031MD1810041+9990REMSYN04801359 46/// /0504 11104 21123 39303 40273 58004=
0089013590999992014012004004+60533+008200FM-12+077399999V0200501N003019999999N999999999-01051-01241102701ADDMA1999990093011MD1810061+9990REMSYN04801359 46/// /0503 11105 21124 39301 40270 58006=
0089013590999992014012005004+60533+008200FM-12+077399999V0200501N004019999999N999999999-01041-01231102721ADDMA1999990093031MD1510041+9990REMSYN04801359 46/// /0504 11104 21123 39303 40272 55004=
0271013590999992014012006004+60533+008200FM-12+077399999V0200501N004019999999N008000199-01041-01231102741ADDAA112000531AA224001031AJ100713100710094AY171021AY221021GA1081+999991051GF108991081990999999991991IA1289KA1240N-01061MA1999990093041MD1510011+9990MW1781OD139900801999REMSYN09401359 11458 80504 11104 21123 39304 40274 55001 69952 77872 8802/ 333 21106 48071 70010 91108=
0089013590999992014012007004+60533+008200FM-12+077399999V0200501N003019999999N999999999-01051-01241102751ADDMA1999990093051MD1210051+9990REMSYN04801359 46/// /0503 11105 21124 39305 40275 52005=
0089013590999992014012008004+60533+008200FM-12+077399999V0200501N003019999999N999999999-01041-01231102781ADDMA1999990093081MD1210051+9990REMSYN04801359 46/// /0503 11104 21123 39308 40278 52005=
