0225419410999992014010100004+23267+090700FM-12+000799999V0209999C000010240019N002000199+01221+99999101591ADDAA124000091AY141021AY221021GA1041+004501061GA2061+024001041GF106991041990004501991991MA1999990101541MW1101REMSYN08841941 31920 60000 10122 20123 30154 40159 71042 82520 333 56990 59006 70000 84615 86458=EQDQ0112.3  2ATOD  
0164419410999992014010106004+23267+090700FM-12+000799999V0203601N001519999999N005000199+02271+01401101621ADDAA124000091AY141021AY221021GF100995999999999999999999MA1999990101561MD1909990-0201MW1051REMSYN06441941 31950 03603 10227 20140 30156 40162 70542 333 59020 70000=
0164419410999992014010118004+23267+090700FM-12+000799999V0209999C000019999999N004000199+01601+01501101601ADDAA124000091AY101021AY201021GF100995999999999999999999MA1999990101541MD1909990-0081MW1051REMSYN06441941 31940 00000 10160 20150 30154 40160 70500 333 59008 70000=
0164419410999992014010200004+23267+090700FM-12+000799999V0209999C000019999999N004000199+01371+01301101601ADDAA124000091AY101021AY201021GF100995999999999999999999MA1999990101541MD1909990+0001MW1051REMSYN06441941 31940 00000 10137 20130 30154 40160 70500 333 58000 70000=
0164419410999992014010206004+23267+090700FM-12+000799999V0203601N001019999999N005000199+02321+01501101681ADDAA124000091AY101021AY201021GF100995999999999999999999MA1999990101621MD1909990+0061MW1051REMSYN06441941 31950 03602 10232 20150 30162 40168 70500 333 58006 70000=
0164419410999992014010306004+23267+090700FM-12+000799999V0203601N001519999999N006000199+02221+01201101791ADDAA124000091AY101021AY201021GF100995999999999999999999MA1999990101741MD1909990+0111MW1051REMSYN06441941 31956 03603 10222 20120 30174 40179 70500 333 58011 70000=
0164419410999992014010406004+23267+090700FM-12+000799999V0202701N001519999999N006000199+01971+01401101641ADDAA124000091AY101021AY201021GF100995999999999999999999MA1999990101581MD1909990-0151MW1051REMSYN06441941 31956 02703 10197 20140 30158 40164 70500 333 59015 70000=
0183419410999992014010412004+23267+090700FM-12+000799999V0209999C000019999999N005000199+01841+01101101191ADDAA124000091AY101021AY201021GF105991990990999999991991KA1240M+02321MA1999990101131MD1909990-0271MW1051REMSYN07041941 31950 50000 10184 20110 30113 40119 70500 333 10232 59027 70000=
0164419410999992014010418004+23267+090700FM-12+000799999V0209999C000019999999N004000199+01561+01201101421ADDAA124000091AY101021AY201021GF100995999999999999999999MA1999990101361MD1909990-0081MW1051REMSYN06441941 31940 00000 10156 20120 30136 40142 70500 333 59008 70000=
0164419410999992014010500004+23267+090700FM-12+000799999V0209999C000019999999N003000199+01381+01301101141ADDAA124000091AY101021AY201021GF100995999999999999999999MA1999990101081MD1909990-0411MW1051REMSYN06441941 31930 00000 10138 20130 30108 40114 70500 333 59041 70000=
0164419410999992014010506004+23267+090700FM-12+000799999V0209999C000019999999N005000199+02021+01601101301ADDAA124000091AY101021AY201021GF100995999999999999999999MA1999990101241MD1909990-0341MW1101REMSYN06441941 31950 00000 10202 20160 30124 40130 71000 333 59034 70000=
0183419410999992014010512004+23267+090700FM-12+000799999V0209999C000019999999N005000199+01961+01701101021ADDAA124000091AY101021AY201021GF100995999999999999999999KA1240M+02281MA1999990100961MD1909990-0171MW1051REMSYN07041941 31950 00000 10196 20170 30096 40102 70500 333 10228 59017 70000=
0164419410999992014010600004+23267+090700FM-12+000799999V0209999C000019999999N003000199+01381+01301101181ADDAA124000091AY101021AY201021GF100995999999999999999999MA1999990101121MD1909990+0041MW1051REMSYN06441941 31930 00000 10138 20130 30112 40118 70500 333 58004 70000=
0206419410999992014010606004+23267+090700FM-12+000799999V0203601N00101024001CN005000199+02101+01501101481ADDAA124000091AY121021AY221021GA1031+004501061GA2041+024001071GF107991031990004501991991MA1999990101421MW1051REMSYN08841941 31450 73602 10210 20150 30142 40148 70522 84470 333 56990 58018 70000 83615 84758=
0225419410999992014010612004+23267+090700FM-12+000799999V0209999C000010270019N004000199+02021+01401101291ADDAA124000091AY121021AY221021GA1041+004501061GA2061+027001041GF107991041990004501991991KA1240M+02321MA1999990101241MW1051REMSYN09441941 31440 70000 10202 20140 30124 40129 70522 84520 333 10232 56990 58028 70000 84615 86459=
0184419410999992014010618004+23267+090700FM-12+000799999V0209999C000019999999N004000199+01601+01401101511ADDAA124000091AY121021AY201021GA1031+004201061GF103991031990004201991991MA1999990101451MW1051REMSYN08241941 31440 30000 10160 20140 30145 40151 70520 83500 333 56900 58019 70000 83614=
0178419410999992014010700004+23267+090700FM-12+000799999V0209999C00001001201CN000500199+01361+01301101471ADDAA124000091AY141021AY241021GA1091+999991991GF109991091990999999991991MA1999990101411MW1451REMSYN07641941 31905 90000 10136 20130 30141 40147 74544 89/// 333 56999 58029 70000=
0164419410999992014010706004+23267+090700FM-12+000799999V0203601N001019999999N005000199+02001+01601101671ADDAA124000091AY141021AY241021GF100995999999999999999999MA1999990101611MD1909990+0191MW1051REMSYN06441941 31950 03602 10200 20160 30161 40167 70544 333 58019 70000=
0164419410999992014010718004+23267+090700FM-12+000799999V0209999C000019999999N004000199+01601+01501101751ADDAA124000091AY101021AY201021GF100995999999999999999999MA1999990101691MD1909990+0241MW1051REMSYN06441941 31940 00000 10160 20150 30169 40175 70500 333 58024 70000=
0164419410999992014010800004+23267+090700FM-12+000799999V0209999C000019999999N001000199+01181+01101101731ADDAA124000091AY141021AY201021GF100995999999999999999999MA1999990101671MD1909990+0261MW1421REMSYN06441941 31910 00000 10118 20110 30167 40173 74240 333 58026 70000=
0164419410999992014010806004+23267+090700FM-12+000799999V0203601N001519999999N004000199+02021+00801101741ADDAA124000091AY141021AY201021GF100995999999999999999999MA1999990101681MD1909990+0071MW1051REMSYN06441941 31940 03603 10202 20080 30168 40174 70540 333 58007 70000=
0183419410999992014010812004+23267+090700FM-12+000799999V0209999C000019999999N005000199+01821+01201101541ADDAA124000091AY101021AY201021GF100995999999999999999999KA1240M+02301MA1999990101491MD1909990+0071MW1051REMSYN07041941 31950 00000 10182 20120 30149 40154 70500 333 10230 58007 70000=
0206419410999992014010900004+23267+090700FM-12+000799999V0203601N001010240019N002000199+01201+01201101571ADDAA124000091AY141021AY221021GA1041+004501061GA2061+024001041GF106991041990004501991991MA1999990101511MW1101REMSYN08841941 31420 63602 10120 20120 30151 40157 71042 85420 333 56990 59016 70000 84615 86458=
0206419410999992014011000004+23267+090700FM-12+000799999V0209999C000010270019N002000199+01221+01201101741ADDAA124000091AY141021AY221021GA1041+004501061GA2061+027001041GF106991041990004501991991MA1999990101681MW1101REMSYN08841941 31420 60000 10122 20120 30168 40174 71042 85420 333 56990 58017 70000 84615 86459=
0206419410999992014011006004+23267+090700FM-12+000799999V0203601N001510240019N006000199+01721+01501101701ADDAA124000091AY141021AY221021GA1041+004501061GA2061+024001041GF106991041990004501991991MA1999990101641MW1051REMSYN08841941 31956 63603 10172 20150 30164 40170 70542 85420 333 56990 59004 70000 84615 86458=
0136419410999992014011106004+23267+090700FM-12+000799999V0203601N001519999999N006000199+02371+01601101651ADDAA124000091GF100995999999999999999999MA1999990101591MD1909990-0051REMSYN05841941 32956 03603 10237 20160 30159 40165 333 59005 70000=
0183419410999992014011112004+23267+090700FM-12+000799999V0203601N001019999999N005000199+02141+01401101391ADDAA124000091AY101021AY201021GF100995999999999999999999KA1240M+02651MA1999990101331MD1909990+0001MW1051REMSYN07041941 31950 03602 10214 20140 30133 40139 70500 333 10265 58000 70000=
0164419410999992014011118004+23267+090700FM-12+000799999V0209999C000019999999N004000199+01821+01601101481ADDAA124000091AY101021AY201021GF100995999999999999999999MA1999990101421MD1909990+0021MW1051REMSYN06441941 31940 00000 10182 20160 30142 40148 70500 333 58002 70000=
0164419410999992014011200004+23267+090700FM-12+000799999V0209999C000019999999N004000199+01641+01401101601ADDAA124000091AY101021AY201021GF100995999999999999999999MA1999990101541MD1909990+0111MW1051REMSYN06441941 31940 00000 10164 20140 30154 40160 70500 333 58011 70000=
0178419410999992014011206004+23267+090700FM-12+000799999V0203601N001010240019N006000199+02201+01401101791ADDAA124000091GA1031+004501061GA2061+024001041GF106991031990004501991991MA1999990101741REMSYN08241941 32456 63602 10220 20140 30174 40179 84420 333 56990 58014 70000 83615 86458=
0225419410999992014011212004+23267+090700FM-12+000799999V0203601N001010240019N005000199+02041+01601101571ADDAA124000091AY121021AY221021GA1031+004501061GA2061+024001041GF106991031990004501991991KA1240M+02461MA1999990101521MW1051REMSYN09441941 31450 63602 10204 20160 30152 40157 70522 84420 333 10246 56990 58018 70000 83615 86458=
0206419410999992014011218004+23267+090700FM-12+000799999V0209999C000010240019N004000199+01681+01601101721ADDAA124000091AY121021AY221021GA1031+004501061GA2061+024001041GF106991031990004501991991MA1999990101661MW1051REMSYN08841941 31440 60000 10168 20160 30166 40172 70522 84420 333 56990 58020 70000 83615 86458=
0136419410999992014011306004+23267+090700FM-12+000799999V0203601N001519999999N007000199+02371+01301101851ADDAA124000091GF100995999999999999999999MA1999990101791MD1909990+0061REMSYN05841941 32957 03603 10237 20130 30179 40185 333 58006 70000=
0155419410999992014011312004+23267+090700FM-12+000799999V0209999C000019999999N006000199+02161+01701101421ADDAA124000091GF100995999999999999999999KA1240M+02601MA1999990101361MD1909990-0161REMSYN06441941 32956 00000 10216 20170 30136 40142 333 10260 59016 70000=
0164419410999992014011318004+23267+090700FM-12+000799999V0209999C000019999999N004000199+01691+01501101601ADDAA124000091AY101021AY201021GF100995999999999999999999MA1999990101551MD1909990-0071MW1051REMSYN06441941 31940 00000 10169 20150 30155 40160 70500 333 59007 70000=
0164419410999992014011400004+23267+090700FM-12+000799999V0209999C000019999999N004000199+01501+01401101471ADDAA124000091AY101021AY201021GF100995999999999999999999MA1999990101411MD1909990-0121MW1051REMSYN06441941 31940 00000 10150 20140 30141 40147 70500 333 59012 70000=
0206419410999992014011406004+23267+090700FM-12+000799999V0203601N001010270019N004000199+01671+01601101681ADDAA124000091AY121021AY221021GA1041+004201061GA2061+027001041GF107991041990004201991991MA1999990101631MW1051REMSYN08841941 31440 73602 10167 20160 30163 40168 70522 84520 333 56990 59016 70000 84614 86459=
0183419410999992014011412004+23267+090700FM-12+000799999V0209999C000019999999N005000199+01871+01601101401ADDAA124000091AY101021AY201021GF100995999999999999999999KA1240M+02161MA1999990101351MD1909990-0011MW1051REMSYN07041941 31950 00000 10187 20160 30135 40140 70500 333 10216 59001 70000=
0164419410999992014011418004+23267+090700FM-12+000799999V0203601N002119999999N004000199+01481+01301101631ADDAA124000091AY101021AY201021GF100995999999999999999999MA1999990101571MD1909990+0021MW1051REMSYN06441941 31940 03604 10148 20130 30157 40163 70500 333 58002 70000=
0164419410999992014011500004+23267+090700FM-12+000799999V0209999C000019999999N001000199+01441+01301101641ADDAA124000091AY141021AY201021GF100995999999999999999999MA1999990101581MD1909990+0171MW1421REMSYN06441941 31910 00000 10144 20130 30158 40164 74240 333 58017 70000=
0206419410999992014011506004+23267+090700FM-12+000799999V0203601N00101027001CN004000199+01621+01501101801ADDAA124000091AY141021AY221021GA1031+004201061GA2051+027001041GF106991031990004201991991MA1999990101741MW1051REMSYN08841941 31440 63602 10162 20150 30174 40180 70542 83520 333 56990 58011 70000 83614 85459=
0247419410999992014011512004+23267+090700FM-12+000799999V0209999C00001009001CN002000199+01701+01501101581ADDAA124000091AY141021AY221021GA1051+004201061GA2011+009001091GA3081+024001041GF108991051990004201991991KA1240M+01731MA1999990101521MW1101REMSYN10041941 31420 80000 10170 20150 30152 40158 71042 8632/ 333 10173 56999 58017 70000 85614 81930 88458=
0206419410999992014011606004+23267+090700FM-12+000799999V0203601N001010240019N005000199+01961+01701101801ADDAA124000091AY121021AY221021GA1041+004501061GA2061+024001041GF106991041990004501991991MA1999990101741MW1051REMSYN08841941 31450 63602 10196 20170 30174 40180 70522 85420 333 56990 58000 70000 84615 86458=
0225419410999992014011612004+23267+090700FM-12+000799999V0209999C000010240019N005000199+01821+01401101711ADDAA124000091AY121021AY221021GA1041+004801061GA2061+024001041GF106991041990004801991991KA1240M+02001MA1999990101651MW1051REMSYN09441941 31450 60000 10182 20140 30165 40171 70522 85420 333 10200 56990 58013 70000 84616 86458=
0206419410999992014011618004+23267+090700FM-12+000799999V0203601N001510240019N004000199+01421+01401101661ADDAA124000091AY121021AY221021GA1041+004501061GA2061+024001041GF106991041990004501991991MA1999990101601MW1051REMSYN08841941 31440 63603 10142 20140 30160 40166 70522 85420 333 56990 59008 70000 84615 86458=
0200419410999992014011700004+23267+090700FM-12+000799999V0203601N001510210019N004000199+01421+01401101791ADDAA124000091AY141021AY221021GA1061+021001041GA2991+999991051GF106991061990021001991991MA1999990101731MW1051REMSYN08241941 31440 63603 10142 20140 30173 40179 70542 84520 333 56990 58005 70000 86457=
0206419410999992014011706004+23267+090700FM-12+000799999V0203601N001010240019N005000199+01721+01501101401ADDAA124000091AY101021AY201021GA1041+004501061GA2061+024001041GF106991041990004501991991MA1999990101841MW1051REMSYN08841941 31450 63602 10172 20150 30184 40140 70500 84520 333 56990 58010 70000 84615 86458=
0225419410999992014011712004+23267+090700FM-12+000799999V0209999C000010240019N005000199+01821+01601101611ADDAA124000091AY121021AY221021GA1041+004501061GA2061+024001041GF106991041990004501991991KA1240M+02121MA1999990101561MW1051REMSYN09441941 31950 60000 10182 20160 30156 40161 70522 85420 333 10212 56990 59010 70000 84615 86458=
0178419410999992014011800004+23267+090700FM-12+000799999V0209999C00001001201CN000500199+01471+01301101731ADDAA124000091AY141021AY221021GA1091+999991991GF109991091990999999991991MA1999990101671MW1451REMSYN07641941 31/05 90000 10147 20130 30167 40173 74542 89/// 333 56990 59006 70000=
0164419410999992014011806004+23267+090700FM-12+000799999V0209999C000019999999N006000199+01771+01601101961ADDAA124000091AY141021AY201021GF100995999999999999999999MA1999990101901MD1909990+0061MW1051REMSYN06441941 31956 00000 10177 20160 30190 40196 70540 333 58006 70000=
0183419410999992014011812004+23267+090700FM-12+000799999V0209999C000019999999N005000199+02161+01901101571ADDAA124000091AY101021AY201021GF100995999999999999999999KA1240M+02571MA1999990101521MD1909990-0041MW1051REMSYN07041941 31950 00000 10216 20190 30152 40157 70500 333 10257 59004 70000=
0164419410999992014011818004+23267+090700FM-12+000799999V0209999C000019999999N004000199+01641+01401101811ADDAA124000091AY101021AY201021GF100995999999999999999999MA1999990101751MD1909990+0191MW1051REMSYN06441941 31940 00000 10164 20140 30175 40181 70500 333 58019 70000=
0136419410999992014011906004+23267+090700FM-12+000799999V0209999C000019999999N006000199+02461+01601101961ADDAA124000091GF100995999999999999999999MA1999990101911MD1909990+0001REMSYN05841941 32956 00000 10246 20160 30191 40196 333 58000 70000=
0225419410999992014011912004+23267+090700FM-12+000799999V0209999C000010240019N005000199+02261+01801101661ADDAA124000091AY121021AY221021GA1041+004501061GA2061+024001041GF106991041990004501991991KA1240M+02741MA1999990101601MW1051REMSYN09441941 31450 60000 10226 20180 30160 40166 70522 84520 333 10274 56990 58009 70000 84615 86458=
0206419410999992014011918004+23267+090700FM-12+000799999V0209999C000010240019N004000199+01881+01701101881ADDAA124000091AY121021AY221021GA1041+004501061GA2061+024001041GF106991041990004501991991MA1999990101821MW1051REMSYN08841941 31440 60000 10188 20170 30182 40188 70522 84520 333 56990 58007 70000 84615 86458=
0206419410999992014012000004+23267+090700FM-12+000799999V0209999C000010240019N004000199+01541+01401101781ADDAA124000091AY121021AY221021GA1031+004501061GA2061+024001041GF106991031990004501991991MA1999990101721MW1051REMSYN08841941 31440 60000 10154 20140 30172 40178 70522 84420 333 56990 58014 70000 83615 86458=
0178419410999992014012006004+23267+090700FM-12+000799999V0203601N001010240019N006000199+02361+01701101971ADDAA124000091GA1031+004501061GA2061+024001041GF106991031990004501991991MA1999990101911REMSYN08241941 32456 63602 10236 20170 30191 40197 84420 333 56990 58001 70000 83615 86458=
0206419410999992014012100004+23267+090700FM-12+000799999V0203601N00101027001CN001000199+01421+01301101951ADDAA124000091AY141021AY221021GA1031+004501061GA2041+027001041GF105991031990004501991991MA1999990101891MW1421REMSYN08841941 31410 53602 10142 20130 30189 40195 74242 83520 333 56990 58017 70000 83615 84459=
0206419410999992014012106004+23267+090700FM-12+000799999V0203601N001510270019N004000199+01581+01501102061ADDAA124000091AY141021AY221021GA1041+004201061GA2061+027001041GF107991041990004201991991MA1999990102011MW1051REMSYN08841941 31440 73603 10158 20150 30201 40206 70542 84520 333 56990 58010 70000 84614 86459=
0183419410999992014012112004+23267+090700FM-12+000799999V0209999C000019999999N005000199+01841+01501101741ADDAA124000091AY101021AY201021GF100995999999999999999999KA1240M+02041MA1999990101681MD1909990-0091MW1051REMSYN07041941 31950 00000 10184 20150 30168 40174 70500 333 10204 59009 70000=
0164419410999992014012118004+23267+090700FM-12+000799999V0203601N001019999999N004000199+01481+01401101951ADDAA124000091AY101021AY201021GF100995999999999999999999MA1999990101901MD1909990-0101MW1051REMSYN06441941 31940 03602 10148 20140 30190 40195 70500 333 59010 70000=
0164419410999992014012206004+23267+090700FM-12+000799999V0203601N002119999999N005000199+01901+01601101921ADDAA124000091AY141021AY241021GF100995999999999999999999MA1999990101861MD1909990-0151MW1051REMSYN06441941 31950 03604 10190 20160 30186 40192 70544 333 59015 70000=
0183419410999992014012212004+23267+090700FM-12+000799999V0203601N001519999999N005000199+02171+01801101641ADDAA124000091AY101021AY201021GF100995999999999999999999KA1240M+02561MA1999990101581MD1909990-0101MW1051REMSYN07041941 31950 03603 10217 20180 30158 40164 70500 333 10256 59010 70000=
0178419410999992014012300004+23267+090700FM-12+000799999V0209999C00001001201CN000500199+01401+01301101721ADDAA124000091AY141021AY221021GA1091+999991991GF109991091990999999991991MA1999990101661MW1451REMSYN07641941 31005 90000 10140 20130 30166 40172 74542 89000 333 56999 59008 70000=
0164419410999992014012306004+23267+090700FM-12+000799999V0203601N001519999999N006000199+02521+01701101661ADDAA124000091AY141021AY221021GF100995999999999999999999MA1999990101601MD1909990-0261MW1011REMSYN06441941 31956 03603 10252 20170 30160 40166 70142 333 59026 70000=
0183419410999992014012312004+23267+090700FM-12+000799999V0209999C000019999999N005000199+02321+01801101411ADDAA124000091AY101021AY201021GF100995999999999999999999KA1240M+02761MA1999990101351MD1909990-0231MW1051REMSYN07041941 31950 00000 10232 20180 30135 40141 70500 333 10276 59023 70000=
0136419410999992014012406004+23267+090700FM-12+000799999V0203601N001519999999N006000199+02521+01701101681ADDAA124000091GF100995999999999999999999MA1999990101621MD1909990+0021REMSYN05841941 31956 03603 10252 20170 30162 40168 333 58002 70000=
0164419410999992014012500004+23267+090700FM-12+000799999V0209999C000019999999N004000199+01671+01401101441ADDAA124000091AY101021AY201021GF100995999999999999999999MA1999990101381MD1909990-0301MW1051REMSYN06441941 31940 00000 10167 20140 30138 40144 70500 333 59030 70000=
0136419410999992014012506004+23267+090700FM-12+000799999V0203601N001519999999N006000199+02471+01901101591ADDAA124000091GF100995999999999999999999MA1999990101531MD1909990-0091REMSYN05841941 32956 03603 10247 20190 30153 40159 333 59009 70000=
0183419410999992014012512004+23267+090700FM-12+000799999V0203601N001519999999N005000199+02221+01501101311ADDAA124000091AY101021AY201021GF100995999999999999999999KA1240M+02701MA1999990101251MD1909990-0321MW1051REMSYN07041941 32950 03603 10222 20150 30125 40131 70500 333 10270 59032 70000=
0136419410999992014012706004+23267+090700FM-12+000799999V0203601N002119999999N007000199+02161+01301101821ADDAA124000091GF100995999999999999999999MA1999990101771MD1909990+0101REMSYN05841941 32957 03604 10216 20130 30177 40182 333 58010 70000=
0203419410999992014012712004+23267+090700FM-12+000799999V0203601N001519999999N005000199+02021+01101101361ADDAA124000091AY121021AY201021GA1041+090001001GF104991041990090001991991KA1240M+02621MA1999990101301MW1051REMSYN08841941 31950 43603 10202 20110 30130 40136 70520 80020 333 10262 56009 58007 70000 84080=
0144419410999992014012800004+23267+090700FM-12+000799999V0203601N000019999999N004000199+01351+01351101691ADDAA124000091AY101021AY201021MA1999990101631MD1909990+0071MW1051REMSYN07041941 31540 03603 00000 10135 20135 30163 40169 70500 333 58007 70000=
0206419410999992014012806004+23267+090700FM-12+000799999V0203601N00211027001CN005000199+01801+01201101771ADDAA124000091AY121021AY201021GA1031+004201061GA2051+027001041GF106991031990004201991991MA1999990101711MW1051REMSYN08841941 31450 63604 10180 20120 30171 40177 70520 83520 333 56990 59006 70000 83614 85459=
0183419410999992014012812004+23267+090700FM-12+000799999V0209999C000019999999N005000199+01881+01401101421ADDAA124000091AY121021AY201021GF100995999999999999999999KA1240M+02101MA1999990101361MD1909990+0061MW1051REMSYN07041941 31950 00000 10188 20140 30136 40142 70520 333 10210 58006 70000=
0164419410999992014012818004+23267+090700FM-12+000799999V0203601N001019999999N004000199+01561+01501101751ADDAA124000091AY101021AY201021GF100995999999999999999999MA1999990101691MD1909990+0061MW1051REMSYN06441941 31940 03602 10156 20150 30169 40175 70500 333 58006 70000=
0164419410999992014012900004+23267+090700FM-12+000799999V0209999C000019999999N003000199+01381+01301101591ADDAA124000091AY101021AY201021GF100995999999999999999999MA1999990101531MD1909990-0101MW1051REMSYN06441941 31930 00000 10138 20130 30153 40159 70500 333 59010 70000=
0136419410999992014012906004+23267+090700FM-12+000799999V0203601N002619999999N006000199+02351+01601101711ADDAA124000091GF100995999999999999999999MA1999990101651MD1909990-0061REMSYN05841941 32956 03605 10235 20160 30165 40171 333 59006 70000=
0155419410999992014012912004+23267+090700FM-12+000799999V0209999C000019999999N005000199+02251+01501101461ADDAA124000091GF100995999999999999999999KA1240M+02651MA1999990101411MD1909990+0051REMSYN06441941 32950 00000 10225 20150 30141 40146 333 10265 58005 70000=
0164419410999992014012918004+23267+090700FM-12+000799999V0209999C000019999999N004000199+01751+01601101711ADDAA124000091AY101021AY201021GF100995999999999999999999MA1999990101651MD1909990-0041MW1051REMSYN06441941 31940 00000 10175 20160 30165 40171 70500 333 59004 70000=
0197419410999992014013006004+23267+090700FM-12+000799999V0203601N00211999999CN006000199+02441+01401101751ADDAA124000091GA1021+004501061GA2031+036001031GF104991021990004501991991MA1999990101691REMSYN08241941 32456 43604 10244 20140 30169 40175 82530 333 56990 58004 70000 82615 83362=EQDQ01 036003SCOCIG
0203419410999992014013012004+23267+090700FM-12+000799999V0203601N001519999999N005000199+02271+01501101481ADDAA124000091AY121021AY221021GA1021+036001031GF102991021990036001991991KA1240M+02721MA1999990101421MW1051REMSYN08841941 32450 23603 10227 20150 30142 40148 70522 80030 333 10272 56090 58002 70000 82362=
0178419410999992014013100004+23267+090700FM-12+000799999V0209999C00001001201CN000600199+01571+01501101581ADDAA124000091AY141021AY201021GA1091+999991991GF109991091990999999991991MA1999990101541MW1451REMSYN07641941 31/06 90000 10157 20150 30154 40158 74540 89/// 333 56999 58001 70000=
0136419410999992014013106004+23267+090700FM-12+000799999V0203601N001519999999N006000199+01921+01501101911ADDAA124000091GF100995999999999999999999MA1999990101851MD1909990+0161REMSYN05841941 32956 03603 10192 20150 30185 40191 333 58016 70000=
0183419410999992014013112004+23267+090700FM-12+000799999V0209999C000019999999N005000199+02121+01501101451ADDAA124000091AY101021AY201021GF100995999999999999999999KA1240M+02471MA1999990101401MD1909990-0031MW1051REMSYN07041941 32950 00000 10212 20150 30140 40145 70500 333 10247 59003 70000=
0136419410999992014020106004+23267+090700FM-12+000799999V0202701N002119999999N006000199+01971+01501101801ADDAA124000091GF100995999999999999999999MA1999990101741MD1909990-0111REMSYN05841941 32956 02704 10197 20150 30174 40180 333 59011 70000=
0183419410999992014020112004+23267+090700FM-12+000799999V0203601N001019999999N005000199+02141+01601101341ADDAA124000091AY101021AY201021GF100995999999999999999999KA1240M+02341MA1999990101291MD1909990-0111MW1051REMSYN07041941 31950 03602 10214 20160 30129 40134 70500 333 10234 59011 70000=
0164419410999992014020118004+23267+090700FM-12+000799999V0209999C000019999999N004000199+01921+01701101501ADDAA124000091AY101021AY201021GF100995999999999999999999MA1999990101441MD1909990-0131MW1051REMSYN06441941 31940 00000 10192 20170 30144 40150 70500 333 59013 70000=
0206419410999992014020200004+23267+090700FM-12+000799999V0203601N001010240019N004000199+01441+01301101401ADDAA124000091AY121021AY221021GA1041+004501061GA2061+024001041GF106991041990004501991991MA1999990101351MW1051REMSYN08841941 31440 63602 10144 20130 30135 40140 70522 85420 333 56990 59023 70000 84615 86458=
0206419410999992014020206004+23267+090700FM-12+000799999V0203601N001510240019N006000199+01941+01501101521ADDAA124000091AY141021AY221021GA1031+004501061GA2061+024001041GF106991031990004501991991MA1999990101461MW1051REMSYN08841941 31456 63603 10194 20150 30146 40152 70542 84420 333 56990 59028 70000 83615 86458=
0183419410999992014020212004+23267+090700FM-12+000799999V0209999C000019999999N005000199+02201+01401101071ADDAA124000091AY101021AY201021GF100995999999999999999999KA1240M+02571MA1999990101011MD1909990-0271MW1051REMSYN07041941 31950 00000 10220 20140 30101 40107 70500 333 10257 59027 70000=
0164419410999992014020218004+23267+090700FM-12+000799999V0209999C000019999999N004000199+01821+01501101211ADDAA124000091AY101021AY201021GF100995999999999999999999MA1999990101161MD1909990-0291MW1051REMSYN06441941 31940 00000 10182 20150 30116 40121 70500 333 59029 70000=
0164419410999992014020300004+23267+090700FM-12+000799999V0209999C000019999999N003000199+01461+01401101191ADDAA124000091AY101021AY201021GF100995999999999999999999MA1999990101131MD1909990-0221MW1051REMSYN06441941 31930 00000 10146 20140 30113 40119 70500 333 59022 70000=
0164419410999992014020306004+23267+090700FM-12+000799999V0203601N001019999999N006000199+01841+01401101261ADDAA124000091AY121021AY201021GF100995999999999999999999MA1999990101201MD1909990-0271MW1051REMSYN06441941 31956 03602 10184 20140 30120 40126 70520 333 59027 70000=
0164419410999992014020318004+23267+090700FM-12+000799999V0209999C000019999999N004000199+01561+01401101211ADDAA124000091AY101021AY201021GF100995999999999999999999MA1999990101161MD1909990+0001MW1051REMSYN06441941 31940 00000 10156 20140 30116 40121 70500 333 58000 70000=
0136419410999992014020406004+23267+090700FM-12+000799999V0203601N002119999999N015000199+02171+01401101051ADDAA124000091GF100995999999999999999999MA1999990100991MD1909990-0211REMSYN05841941 32965 03604 10217 20140 30099 40105 333 59021 70000=
0183419410999992014020412004+23267+090700FM-12+000799999V0209999C000019999999N005000199+02001+01601100811ADDAA124000091AY101021AY201021GF100995999999999999999999KA1240M+02401MA1999990100751MD1909990-0061MW1051REMSYN07041941 31950 00000 10200 20160 30075 40081 70500 333 10240 59006 70000=
0164419410999992014020500004+23267+090700FM-12+000799999V0209999C000019999999N004000199+01351+01301100991ADDAA124000091AY101021AY201021GF100995999999999999999999MA1999990100931MD1909990-0011MW1051REMSYN06441941 31940 00000 10135 20130 30093 40099 70500 333 59001 70000=
0164419410999992014020506004+23267+090700FM-12+000799999V0209999C000019999999N005000199+02501+01501101091ADDAA124000091AY101021AY201021GF100995999999999999999999MA1999990101031MD1909990+0041MW1051REMSYN06441941 31950 00000 10250 20150 30103 40109 70500 333 58004 70000=
0197419410999992014020512004+23267+090700FM-12+000799999V0209999C000010240019N005000199+02461+01801100791ADDAA124000091GA1041+004501061GA2061+024001041GF106991041990004501991991KA1240M+02741MA1999990100731REMSYN08841941 31450 60000 10246 20180 30073 40079 85420 333 10274 56990 59002 70000 84615 86458=
0206419410999992014020600004+23267+090700FM-12+000799999V0209999C000010240019N004000199+01621+01501100951ADDAA124000091AY121021AY201021GA1041+004501061GA2061+024001041GF106991041990004501991991MA1999990100891MW1051REMSYN08841941 31440 60000 10162 20150 30089 40095 70520 84420 333 56990 59004 70000 84615 86458=
0136419410999992014020606004+23267+090700FM-12+000799999V0209999C000019999999N006000199+02621+01501101021ADDAA124000091GF100995999999999999999999MA1999990100961MD1909990-0071REMSYN05841941 32956 00000 10262 20150 30096 40102 333 59007 70000=
0155419410999992014020612004+23267+090700FM-12+000799999V0203601N001519999999N006000199+02321+01701100951ADDAA124000091GF100995999999999999999999KA1240M+02921MA1999990100891MD1909990+0161REMSYN06441941 32956 03603 10232 20170 30089 40095 333 10292 58016 70000=
0164419410999992014020700004+23267+090700FM-12+000799999V0209999C000019999999N004000199+01671+01401100961ADDAA124000091AY101021AY201021GF100995999999999999999999MA1999990100901MD1909990+0011MW1051REMSYN06441941 31440 00000 10167 20140 30090 40096 70500 333 58001 70000=
0136419410999992014020706004+23267+090700FM-12+000799999V0209999C000019999999N007000199+02721+01401100991ADDAA124000091GF100995999999999999999999MA1999990100941MD1909990-0031REMSYN05841941 32957 00000 10272 20140 30094 40099 333 59003 70000=
0183419410999992014020712004+23267+090700FM-12+000799999V0209999C000019999999N005000199+02421+01901100881ADDAA124000091AY101021AY201021GF100995999999999999999999KA1240M+02921MA1999990100821MD1909990-0071MW1051REMSYN07041941 32950 00000 10242 20190 30082 40088 70500 333 10292 59007 70000=
0136419410999992014020806004+23267+090700FM-12+000799999V0203601N001519999999N006000199+02521+01801100911ADDAA124000091GF100995999999999999999999MA1999990100851MD1909990-0081REMSYN05841941 32956 03603 10252 20180 30085 40091 333 59008 70000=
0197419410999992014020812004+23267+090700FM-12+000799999V0209999C000010240019N005000199+02521+01901100681ADDAA124000091GA1031+005401061GA2061+024001041GF106991031990005401991991KA1240M+02761MA1999990100571REMSYN08841941 32950 60000 10252 20190 30057 40068 84420 333 10276 56990 58025 70000 83618 86458=
0164419410999992014020900004+23267+090700FM-12+000799999V0209999C000019999999N004000199+01821+01601100681ADDAA124000091AY101021AY201021GF100995999999999999999999MA1999990100621MD1909990-0091MW1051REMSYN06441941 31940 00000 10182 20160 30062 40068 70500 333 59009 70000=
0178419410999992014020906004+23267+090700FM-12+000799999V0203601N001010240019N006000199+02601+02101100981ADDAA124000091GA1031+004501061GA2061+024001041GF106991031990004501991991MA1999990100921REMSYN08241941 32456 63602 10260 20210 30092 40098 84420 333 56990 58007 70000 83615 86458=
0155419410999992014020912004+23267+090700FM-12+000799999V0209999C000019999999N005000199+02661+02101100671ADDAA124000091GF100995999999999999999999KA1240M+02921MA1999990100611MD1909990+0041REMSYN06441941 32950 00000 10266 20210 30061 40067 333 10292 58004 70000=
0164419410999992014020918004+23267+090700FM-12+000799999V0209999C000019999999N004000199+02161+02101100861ADDAA124000091AY101021AY201021GF100995999999999999999999MA1999990100801MD1909990+0031MW1051REMSYN06441941 31940 00000 10216 20210 30080 40086 70500 333 58003 70000=
0164419410999992014021000004+23267+090700FM-12+000799999V0209999C000019999999N002000199+02061+02001100841ADDAA124000091AY101021AY201021GF100995999999999999999999MA1999990100791MD1909990+0161MW1051REMSYN06441941 31920 00000 10206 20200 30079 40084 70500 333 58016 70000=
0136419410999992014021006004+23267+090700FM-12+000799999V0209999C000019999999N006000199+02701+02101101131ADDAA124000091GF100995999999999999999999MA1999990101081MD1909990+0151REMSYN05841941 32956 00000 10270 20210 30108 40113 333 58015 70000=
0155419410999992014021012004+23267+090700FM-12+000799999V0209999C000019999999N006000199+02501+01601100821ADDAA124000091GF100995999999999999999999KA1240M+02841MA1999990100761MD1909990+0151REMSYN06441941 32956 00000 10250 20160 30076 40082 333 10284 58015 70000=
0164419410999992014021018004+23267+090700FM-12+000799999V0209999C000019999999N004000199+02151+01801101051ADDAA124000091AY101021AY201021GF100995999999999999999999MA1999990100991MD1909990+0191MW1051REMSYN06441941 31940 00000 10215 20180 30099 40105 70500 333 58019 70000=
0164419410999992014021100004+23267+090700FM-12+000799999V0203601N001019999999N004000199+01901+01801100961ADDAA124000091AY101021AY201021GF100995999999999999999999MA1999990100901MD1909990+0111MW1051REMSYN06441941 31940 03602 10190 20180 30090 40096 70500 333 58011 70000=
0136419410999992014021106004+23267+090700FM-12+000799999V0203601N002119999999N006000199+02721+01501101051ADDAA124000091GF100995999999999999999999MA1999990101001MD1909990-0081REMSYN05841941 32956 03604 10272 20150 30100 40105 333 59008 70000=
0155419410999992014021112004+23267+090700FM-12+000799999V0209999C000019999999N005000199+02501+01501100721ADDAA124000091GF100995999999999999999999KA1240M+02851MA1999990100661MD1909990-0101REMSYN06441941 32950 00000 10250 20150 30066 40072 333 10285 59010 70000=
0164419410999992014021118004+23267+090700FM-12+000799999V0209999C000019999999N004000199+02091+01801100921ADDAA124000091AY101021AY201021GF100995999999999999999999MA1999990100861MD1909990-0131MW1051REMSYN06441941 31940 00000 10209 20180 30086 40092 70500 333 59013 70000=
0164419410999992014021200004+23267+090700FM-12+000799999V0209999C000019999999N004000199+01781+01701100941ADDAA124000091AY101021AY201021GF100995999999999999999999MA1999990100891MD1909990-0011MW1051REMSYN06441941 31940 00000 10178 20170 30089 40094 70500 333 59001 70000=
0136419410999992014021206004+23267+090700FM-12+000799999V0203601N001519999999N006000199+02471+01601101211ADDAA124000091GF100995999999999999999999MA1999990101151MD1909990+0151REMSYN05841941 32956 03603 10247 20160 30115 40121 333 58015 70000=
0155419410999992014021212004+23267+090700FM-12+000799999V0203601N001019999999N006000199+02421+01201100891ADDAA124000091GF100995999999999999999999KA1240M+02741MA1999990100831MD1909990+0171REMSYN06441941 32956 03602 10242 20120 30083 40089 333 10274 58017 70000=
0164419410999992014021218004+23267+090700FM-12+000799999V0209999C000019999999N005000199+01771+01701101211ADDAA124000091AY101021AY201021GF100995999999999999999999MA1999990101151MD1909990+0291MW1051REMSYN06441941 31950 00000 10177 20170 30115 40121 70500 333 58029 70000=
0206419410999992014021300004+23267+090700FM-12+000799999V0203601N001010240019N004000199+01501+01401101301ADDAA124000091AY121021AY201021GA1041+004501061GA2061+024001041GF106991041990004501991991MA1999990101241MW1051REMSYN08841941 31440 63602 10150 20140 30124 40130 70520 85420 333 56990 58038 70000 84615 86458=
0136419410999992014021306004+23267+090700FM-12+000799999V0203601N001019999999N007000199+02721+00701101351ADDAA124000091GF100995999999999999999999MA1999990101301MD1909990+0141REMSYN05841941 32957 03602 10272 20070 30130 40135 333 58014 70000=
0155419410999992014021312004+23267+090700FM-12+000799999V0209999C000019999999N006000199+02321+01301100931ADDAA124000091GF100995999999999999999999KA1240M+02881MA1999990100871MD1909990+0041REMSYN06441941 32956 00000 10232 20130 30087 40093 333 10288 58004 70000=
0164419410999992014021318004+23267+090700FM-12+000799999V0209999C000019999999N004000199+01821+01601101351ADDAA124000091AY101021AY201021GF100995999999999999999999MA1999990101291MD1909990+0141MW1051REMSYN06441941 31940 00000 10182 20160 30129 40135 70500 333 58014 70000=
0178419410999992014021400004+23267+090700FM-12+000799999V0209999C000010240019N005000199+01471+01401101241ADDAA124000091GA1041+004501061GA2061+024001041GF106991041990004501991991MA1999990101181REMSYN08241941 31450 60000 10147 20140 30118 40124 85420 333 56990 59006 70000 84615 86458=
0136419410999992014021406004+23267+090700FM-12+000799999V0203601N001519999999N007000199+02671+01001101471ADDAA124000091GF100995999999999999999999MA1999990101411MD1909990+0121REMSYN05841941 32957 03603 10267 20100 30141 40147 333 58012 70000=
0136419410999992014021409004+23267+090700FM-12+000799999V0203601N001519999999N007000199+02771+00901101221ADDAA124000091GF100995999999999999999999MA1999990101171MD1909990+0011REMSYN05841941 32957 03603 10277 20090 30117 40122 333 58001 70000=
0225419410999992014021412004+23267+090700FM-12+000799999V0209999C000010240019N005000199+02421+01201101181ADDAA124000091AY121021AY201021GA1041+004501061GA2061+024001041GF106991041990004501991991KA1240M+02821MA1999990101131MW1051REMSYN09441941 32950 60000 10242 20120 30113 40118 70520 85420 333 10282 56990 58025 70000 84615 86458=
0206419410999992014021500004+23267+090700FM-12+000799999V0209999C000010240019N004000199+01771+01501101191ADDAA124000091AY121021AY221021GA1041+004501061GA2061+024001041GF106991041990004501991991MA1999990101141MW1051REMSYN08841941 31440 60000 10177 20150 30114 40119 70522 85420 333 56990 59011 70000 84615 86458=
0197419410999992014021512004+23267+090700FM-12+000799999V0203601N001010240019N006000199+02301+01501101031ADDAA124000091GA1031+004501061GA2061+024001041GF106991031990004501991991KA1240M+02741MA1999990100971REMSYN08841941 32456 63602 10230 20150 30097 40103 84420 333 10274 56990 59015 70000 83615 86458=
0206419410999992014021518004+23267+090700FM-12+000799999V0209999C000010240019N004000199+01781+01701101171ADDAA124000091AY121021AY221021GA1031+004501061GA2061+024001041GF106991031990004501991991MA1999990101111MW1051REMSYN08841941 31440 60000 10178 20170 30111 40117 70522 84420 333 56990 59022 70000 83615 86458=
0206419410999992014021600004+23267+090700FM-12+000799999V0203601N001010240019N004000199+01741+01601100991ADDAA124000091AY121021AY221021GA1031+004501061GA2061+024001041GF106991031990004501991991MA1999990100931MW1051REMSYN08841941 31440 63602 10174 20160 30093 40099 70522 84420 333 56990 59020 70000 83615 86458=
0206419410999992014021606004+23267+090700FM-12+000799999V0203601N001010240019N005000199+02061+01701101191ADDAA124000091AY121021AY221021GA1041+004501061GA2071+024001041GF107991041990004501991991MA1999990101131MW1051REMSYN08841941 31450 73602 10206 20170 30113 40119 70522 85420 333 56990 59028 70000 84615 87458=
0264419410999992014021612004+23267+090700FM-12+000799999V0203601N00101009001CN005000199+01881+01801101101ADDAA115002031AA224002031AY161021AY261021GA1041+004201061GA2011+009001091GA3081+018001041GF108991041990004201991991KA1240M+02181MA1999990101041MW1611REMSYN10641941 11450 83602 10188 20180 30104 40110 60029 76166 8632/ 333 10218 56999 59008 70020 84614 81930 88456=
0245419410999992014021618004+23267+090700FM-12+000799999V0209999C00001009001CN004000199+01721+01701101241ADDAA115007031AA224009031AY161021AY261021GA1041+004201061GA2011+009001091GA3081+018001041GF108991041990004201991991MA1999990101191MW1611REMSYN10041941 11440 80000 10172 20170 30119 40124 60079 76166 8692/ 333 56999 59015 70090 84614 81930 88456=
0245419410999992014021700004+23267+090700FM-12+000799999V0203601N00101009001CN004000199+01681+01601101071ADDAA115005031AA224014031AY161021AY261021GA1051+004501061GA2011+009001091GA3081+024001041GF108991051990004501991991MA1999990101021MW1611REMSYN10041941 11440 83602 10168 20160 30102 40107 60059 76166 8632/ 333 56999 59017 70140 85615 81930 88458=
0184419410999992014021718004+23267+090700FM-12+000799999V0209999C000019999999N004000199+01601+01401101621ADDAA124013031AY121021AY201021GA1031+004501061GF103991031990004501991991MA1999990101561MW1051REMSYN08241941 31440 30000 10160 20140 30156 40162 70520 83500 333 56900 58037 70130 83615=
0102419410999992014021800004+23267+090700FM-12+000799999V0209999C000019999999N004000199+01371+01301101641ADDGF100995999999999999999999REMSYN06441941 31940 00000 10137 20130 40164 40170 70500 333 58062 70060=
0136419410999992014021806004+23267+090700FM-12+000799999V0203601N001019999999N007000199+02361+00901101741ADDAA124001031GF100995999999999999999999MA1999990101681MD1909990+0291REMSYN05841941 32957 03602 10236 20090 30168 40174 333 58029 70010=
0155419410999992014021812004+23267+090700FM-12+000799999V0203601N001019999999N006000199+02061+01501101501ADDAA124000091GF100995999999999999999999KA1240M+02471MA1999990101451MD1909990+0261REMSYN06441941 32956 03602 10206 20150 30145 40150 333 10247 58026 70000=
0164419410999992014021818004+23267+090700FM-12+000799999V0209999C000019999999N004000199+01661+01501101791ADDAA124000091AY101021AY201021GF100995999999999999999999MA1999990101731MD1909990+0171MW1051REMSYN06441941 31940 00000 10166 20150 30173 40179 70500 333 58017 70000=
0164419410999992014021900004+23267+090700FM-12+000799999V0203601N001519999999N004000199+01471+01401101571ADDAA124000091AY101021AY201021GF100995999999999999999999MA1999990101511MD1909990-0131MW1051REMSYN06441941 31940 03603 10147 20140 30151 40157 70500 333 59013 70000=
0136419410999992014021906004+23267+090700FM-12+000799999V0203601N002119999999N007000199+02471+01601101561ADDAA124000091GF100995999999999999999999MA1999990101511MD1909990-0171REMSYN05841941 32957 03604 10247 20160 30151 40156 333 59017 70000=
0136419410999992014021909004+23267+090700FM-12+000799999V0203601N001519999999N007000199+02651+01501101151ADDAA124000091GF100995999999999999999999MA1999990101101MD1909990-0361REMSYN05841941 32957 03603 10265 20150 30110 40115 333 59036 70000=
0183419410999992014021912004+23267+090700FM-12+000799999V0209999C000019999999N005000199+02171+01701101111ADDAA124000091AY101021AY201021GF100995999999999999999999KA1240M+02721MA1999990101051MD1909990-0391MW1051REMSYN07041941 31950 00000 10217 20170 30105 40111 70500 333 10272 59039 70000=
0164419410999992014021915004+23267+090700FM-12+000799999V0203601N001519999999N005000199+02021+01801101241ADDAA124000091AY101021AY201021GF100995999999999999999999MA1999990101181MD1909990-0431MW1051REMSYN06441941 31950 03603 10202 20180 30118 40124 70500 333 59043 70000=
0164419410999992014022000004+23267+090700FM-12+000799999V0203601N001019999999N004000199+01641+01501101321ADDAA124000091AY101021AY201021GF100995999999999999999999MA1999990101261MD1909990-0151MW1051REMSYN06441941 31940 03602 10164 20150 30126 40132 70500 333 59015 70000=
0183419410999992014022003004+23267+090700FM-12+000799999V0203601N001519999999N005000199+01961+01601101481ADDAA124000091AY101021AY201021GF100995999999999999999999KA1240N+01581MA1999990101421MD1909990-0141MW1051REMSYN07041941 31950 03603 10196 20160 30142 40148 70500 333 20158 59014 70000=
0164419410999992014022006004+23267+090700FM-12+000799999V0203601N001019999999N007000199+02571+01401101351ADDAA124000091AY101021AY201021GF100995999999999999999999MA1999990101291MD1909990-0211MW1051REMSYN06441941 32957 03602 10257 20140 30129 40135 70500 333 59021 70000=
0136419410999992014022009004+23267+090700FM-12+000799999V0203601N001519999999N007000199+02721+01401101081ADDAA124000091GF100995999999999999999999MA1999990101031MD1909990-0071REMSYN05841941 32957 03603 10272 20140 30103 40108 333 59007 70000=
0183419410999992014022012004+23267+090700FM-12+000799999V0203601N001019999999N005000199+02371+01601101201ADDAA124000091AY101021AY201021GF100995999999999999999999KA1240M+02851MA1999990101141MD1909990+0091MW1051REMSYN07041941 32950 03602 10237 20160 30114 40120 70500 333 10285 58009 70000=
0164419410999992014022015004+23267+090700FM-12+000799999V0203601N001019999999N004000199+01921+01701101401ADDAA124000091AY101021AY201021GF100995999999999999999999MA1999990101341MD1909990+0161MW1051REMSYN06441941 31940 03602 10192 20170 30134 40140 70500 333 58016 70000=
0164419410999992014022018004+23267+090700FM-12+000799999V0209999C000019999999N004000199+01871+01601101551ADDAA124000091AY101021AY201021GF100995999999999999999999MA1999990101491MD1909990+0211MW1051REMSYN06441941 31940 00000 10187 20160 30149 40155 70500 333 58021 70000=
0164419410999992014022021004+23267+090700FM-12+000799999V0209999C000019999999N004000199+01821+01601101461ADDAA124000091AY101021AY201021GF100995999999999999999999MA1999990101411MD1909990+0201MW1051REMSYN06441941 31940 00000 10182 20160 30141 40146 70500 333 58020 70000=
0183419410999992014022100004+23267+090700FM-12+000799999V0209999C000019999999N004000199+01471+99999101421ADDAA124000091AY101021AY201021GF100995999999999999999999MA1999990101371MD1909990+0101MW1051REMSYN06441941 31940 00000 10147 20150 30137 40142 70500 333 58010 70000=EQDQ0115.0  2ATOD  
0183419410999992014022103004+23267+090700FM-12+000799999V0203601N001019999999N006000199+02221+01601101601ADDAA124000091AY101021AY201021GF100995999999999999999999KA1240N+01461MA1999990101551MD1909990+0121MW1051REMSYN07041941 32956 03602 10222 20160 30155 40160 70500 333 20146 58012 70000=
0136419410999992014022106004+23267+090700FM-12+000799999V0203601N001019999999N007000199+02621+01301101581ADDAA124000091GF100995999999999999999999MA1999990101531MD1909990+0231REMSYN05841941 32957 03602 10262 20130 30153 40158 333 58023 70000=
0136419410999992014022109004+23267+090700FM-12+000799999V0203601N001519999999N007000199+02771+01001101291ADDAA124000091GF100995999999999999999999MA1999990101241MD1909990+0211REMSYN05841941 32957 03603 10277 20100 30124 40129 333 58021 70000=
0164419410999992014022115004+23267+090700FM-12+000799999V0209999C000019999999N004000199+01921+01701101511ADDAA124000091AY101021AY201021GF100995999999999999999999MA1999990101451MD1909990+0111MW1051REMSYN06441941 31940 00000 10192 20170 30145 40151 70500 333 58011 70000=
0164419410999992014022118004+23267+090700FM-12+000799999V0209999C000019999999N004000199+01821+01601101601ADDAA124000091AY101021AY201021GF100995999999999999999999MA1999990101541MD1909990+0051MW1051REMSYN06441941 31940 00000 10182 20160 30154 40160 70500 333 58005 70000=
0164419410999992014022121004+23267+090700FM-12+000799999V0209999C000019999999N004000199+01601+01501101511ADDAA124000091AY101021AY201021GF100995999999999999999999MA1999990101451MD1909990+0061MW1051REMSYN06441941 31940 00000 10160 20150 30145 40151 70500 333 58006 70000=
0164419410999992014022200004+23267+090700FM-12+000799999V0209999C000019999999N004000199+01521+01401101581ADDAA124000091AY101021AY201021GF100995999999999999999999MA1999990101531MD1909990+0161MW1051REMSYN06441941 31940 00000 10152 20140 30153 40158 70500 333 58016 70000=
0189419410999992014022203004+23267+090700FM-12+000799999V0209999C000019999999N006000199+02121+00801101891ADDAA124000091AY101021AY201021GF100995999999999999999999MA1999990101831MD1909990+0291MW1051REMSYN07041941 31956 00000 10212 20080 30183 40189 70500 333 21146 58029 70000=EQDQ01-14   2EATMN 
0136419410999992014022206004+23267+090700FM-12+000799999V0203601N001519999999N006000199+02621+01301101801ADDAA124000091GF100995999999999999999999MA1999990101741MD1909990+0221REMSYN05841941 32956 03603 10262 20130 30174 40180 333 58022 70000=
0136419410999992014022209004+23267+090700FM-12+000799999V0203601N001019999999N006000199+02841+01301101441ADDAA124000091GF100995999999999999999999MA1999990101391MD1909990+0151REMSYN05841941 32956 03602 10284 20130 30139 40144 333 58015 70000=
0183419410999992014022212004+23267+090700FM-12+000799999V0209999C000019999999N005000199+02521+01501101291ADDAA124000091AY101021AY201021GF100995999999999999999999KA1240M+02881MA1999990101241MD1909990+0001MW1051REMSYN07041941 31950 00000 10252 20150 30124 40129 70500 333 10288 58000 70000=
0164419410999992014022215004+23267+090700FM-12+000799999V0209999C000019999999N004000199+02061+01901101471ADDAA124000091AY101021AY201021GF100995999999999999999999MA1999990101411MD1909990-0041MW1051REMSYN06441941 31940 00000 10206 20190 30141 40147 70500 333 59004 70000=
0164419410999992014022300004+23267+090700FM-12+000799999V0209999C000019999999N004000199+01541+01401101471ADDAA124000091AY101021AY201021GF100995999999999999999999MA1999990101411MD1909990-0111MW1051REMSYN06441941 31940 00000 10154 20140 30141 40147 70500 333 59011 70000=
0183419410999992014022303004+23267+090700FM-12+000799999V0209999C000019999999N006000199+02081+01801101661ADDAA124000091AY101021AY201021GF100995999999999999999999KA1240N+01511MA1999990101601MD1909990-0211MW1051REMSYN07041941 31956 00000 10208 20180 30160 40166 70500 333 20151 59021 70000=
0136419410999992014022306004+23267+090700FM-12+000799999V0209999C000019999999N006000199+02641+01401101711ADDAA124000091GF100995999999999999999999MA1999990101651MD1909990-0091REMSYN05841941 32956 00000 10264 20140 30165 40171 333 59009 70000=
0178419410999992014022309004+23267+090700FM-12+000799999V0203601N001010240019N006000199+02921+01401101521ADDAA124000091GA1031+004801061GA2061+024001041GF106991031990004801991991MA1999990101471REMSYN08241941 32456 63602 10292 20140 30147 40152 84420 333 56990 58008 70000 83616 86458=
0197419410999992014022312004+23267+090700FM-12+000799999V0209999C000010240019N006000199+02581+01501101421ADDAA124000091GA1031+004801061GA2061+024001041GF106991031990004801991991KA1240M+02971MA1999990101371REMSYN08841941 32456 60000 10258 20150 30137 40142 84420 333 10297 56990 58013 70000 83616 86458=
0164419410999992014022321004+23267+090700FM-12+000799999V0209999C000019999999N004000199+01981+01801101531ADDAA124000091AY101021AY201021GF100995999999999999999999MA1999990101471MD1909990+0041MW1051REMSYN06441941 31940 00000 10198 20180 30147 40153 70500 333 58004 70000=
0164419410999992014022400004+23267+090700FM-12+000799999V0209999C000019999999N004000199+01921+01801101491ADDAA124000091AY101021AY201021GF100995999999999999999999MA1999990101431MD1909990+0021MW1051REMSYN06441941 31940 00000 10192 20180 30143 40149 70500 333 58002 70000=
0183419410999992014022403004+23267+090700FM-12+000799999V0203601N001019999999N006000199+02121+01801101751ADDAA124000091AY101021AY201021GF100995999999999999999999KA1240N+01811MA1999990101691MD1909990+0091MW1051REMSYN07041941 31956 03602 10212 20180 30169 40175 70500 333 20181 58009 70000=
0136419410999992014022406004+23267+090700FM-12+000799999V0203601N001519999999N007000199+02721+01701101651ADDAA124000091GF100995999999999999999999MA1999990101601MD1909990-0061REMSYN05841941 32957 03603 10272 20170 30160 40165 333 59006 70000=
0136419410999992014022409004+23267+090700FM-12+000799999V0203601N002119999999N007000199+02861+01701101461ADDAA124000091GF100995999999999999999999MA1999990101411MD1909990-0061REMSYN05841941 32957 03604 10286 20170 30141 40146 333 59006 70000=
0155419410999992014022412004+23267+090700FM-12+000799999V0209999C000019999999N006000199+02641+01801101401ADDAA124000091GF100995999999999999999999KA1240M+02941MA1999990101351MD1909990-0021REMSYN06441941 32956 00000 10264 20180 30135 40140 333 10294 59002 70000=
0136419410999992014022415004+23267+090700FM-12+000799999V0209999C000019999999N005000199+02421+01701101621ADDAA124000091GF100995999999999999999999MA1999990101561MD1909990+0321REMSYN05841941 32950 00000 10242 20170 30156 40162 333 58032 70000=
0136419410999992014022418004+23267+090700FM-12+000799999V0209999C000019999999N005000199+02201+01801101681ADDAA124000091GF100995999999999999999999MA1999990101621MD1909990+0131REMSYN05841941 32950 00000 10220 20180 30162 40168 333 58013 70000=
0164419410999992014022421004+23267+090700FM-12+000799999V0209999C000019999999N004000199+02051+01801101501ADDAA124000091AY101021AY201021GF100995999999999999999999MA1999990101441MD1909990-0031MW1051REMSYN06441941 31940 00000 10205 20180 30144 40150 70500 333 59003 70000=
0164419410999992014022500004+23267+090700FM-12+000799999V0209999C000019999999N004000199+01941+01801101761ADDAA124000091AY101021AY201021GF100995999999999999999999MA1999990101701MD1909990+0221MW1051REMSYN06441941 31940 00000 10194 20180 30170 40176 70500 333 58022 70000=
0136419410999992014022506004+23267+090700FM-12+000799999V0203601N002119999999N007000199+02851+01701101781ADDAA124000091GF100995999999999999999999MA1999990101731MD1909990+0131REMSYN05841941 32957 03604 10285 20170 30173 40178 333 58013 70000=
0136419410999992014022509004+23267+090700FM-12+000799999V0203601N001519999999N007000199+02901+01701101501ADDAA124000091GF100995999999999999999999MA1999990101441MD1909990+0031REMSYN05841941 32957 03603 10290 20170 30144 40150 333 58003 70000=
0155419410999992014022512004+23267+090700FM-12+000799999V0203601N001019999999N006000199+02601+01801101381ADDAA124000091GF100995999999999999999999KA1240M+03021MA1999990101321MD1909990-0031REMSYN06441941 32956 03602 10260 20180 30132 40138 333 10302 59003 70000=
0136419410999992014022515004+23267+090700FM-12+000799999V0203601N001019999999N005000199+02241+01801101611ADDAA124000091GF100995999999999999999999MA1999990101561MD1909990+0001REMSYN05841941 32950 03602 10224 20180 30156 40161 333 58000 70000=
0136419410999992014022518004+23267+090700FM-12+000799999V0209999C000019999999N005000199+02151+01801101601ADDAA124000091GF100995999999999999999999MA1999990101541MD1909990-0081REMSYN05841941 32950 00000 10215 20180 30154 40160 333 59008 70000=
0164419410999992014022521004+23267+090700FM-12+000799999V0209999C000019999999N004000199+02001+01801101541ADDAA124000091AY101021AY201021GF100995999999999999999999MA1999990101481MD1909990+0041MW1051REMSYN06441941 31940 00000 10200 20180 30148 40154 70500 333 58004 70000=
0164419410999992014022600004+23267+090700FM-12+000799999V0209999C000019999999N004000199+01801+01701101451ADDAA124000091AY101021AY201021GF100995999999999999999999MA1999990101391MD1909990-0311MW1051REMSYN06441941 31940 00000 10180 20170 30139 40145 70500 333 59031 70000=
0183419410999992014022603004+23267+090700FM-12+000799999V0209999C000019999999N005000199+02221+01501101621ADDAA124000091AY101021AY201021GF100995999999999999999999KA1240N+01671MA1999990101561MD1909990-0171MW1051REMSYN07041941 31950 00000 10222 20150 30156 40162 70500 333 20167 59017 70000=
0136419410999992014022606004+23267+090700FM-12+000799999V0203601N002619999999N006000199+02801+01701101511ADDAA124000091GF100995999999999999999999MA1999990101461MD1909990-0271REMSYN05841941 32956 03605 10280 20170 30146 40151 333 59027 70000=
0136419410999992014022609004+23267+090700FM-12+000799999V0203601N001019999999N007000199+02921+01501101251ADDAA124000091GF100995999999999999999999MA1999990101201MD1909990-0251REMSYN05841941 32957 03602 10292 20150 30120 40125 333 59025 70000=
0206419410999992014022615004+23267+090700FM-12+000799999V0209999C000010240019N004000199+02171+01701101401ADDAA124000091AY121021AY221021GA1031+004801061GA2061+024001041GF106991031990004801991991MA1999990101351MW1051REMSYN08841941 31440 60000 10217 20170 30135 40140 70522 84420 333 56990 59021 70000 83616 86458=
0206419410999992014022621004+23267+090700FM-12+000799999V0209999C000010240019N004000199+01911+01801101511ADDAA124000091AY121021AY221021GA1031+004801061GA2061+024001041GF106991031990004801991991MA1999990101451MW1051REMSYN08841941 31440 60000 10191 20180 30145 40151 70522 84420 333 56990 59003 70000 83616 86458=
0164419410999992014022700004+23267+090700FM-12+000799999V0209999C000019999999N004000199+01771+01601101411ADDAA124000091AY121021AY201021GF100995999999999999999999MA1999990101351MD1909990-0041MW1051REMSYN06441941 31440 00000 10177 20160 30135 40141 70520 333 59004 70000=
0225419410999992014022703004+23267+090700FM-12+000799999V0203601N001010240019N006000199+02371+01701101691ADDAA124000091AY121021AY221021GA1031+004801061GA2061+024001041GF106991031990004801991991KA1240N+01711MA1999990101631MW1051REMSYN09441941 32956 63602 10237 20170 30163 40169 70522 84420 333 20171 56990 58007 70000 83616 86458=
0206419410999992014022706004+23267+090700FM-12+000799999V0203601N001010240019N006000199+02721+01601101571ADDAA124000091AY121021AY221021GA1031+004801061GA2061+024001041GF106991031990004801991991MA1999990101521MW1051REMSYN08841941 32956 63602 10272 20160 30152 40157 70522 84420 333 56990 58007 70000 83616 86458=
0178419410999992014022709004+23267+090700FM-12+000799999V0203601N001010240019N006000199+02921+01601101421ADDAA124000091GA1031+004801061GA2061+024001041GF106991031990004801991991MA1999990101361REMSYN08241941 32956 63602 10292 20160 30136 40142 84420 333 56990 58017 70000 83616 86458=
0225419410999992014022712004+23267+090700FM-12+000799999V0203601N001010240019N005000199+02671+01701101261ADDAA124000091AY121021AY221021GA1031+004501061GA2061+024001041GF106991031990004501991991KA1240M+02971MA1999990101211MW1051REMSYN09441941 32950 63602 10267 20170 30121 40126 70522 84420 333 10297 56990 59009 70000 83615 86458=
0164419410999992014022715004+23267+090700FM-12+000799999V0203601N001019999999N004000199+02221+01901101461ADDAA124000091AY121021AY201021GF100995999999999999999999MA1999990101411MD1909990+0061MW1051REMSYN06441941 31940 03602 10222 20190 30141 40146 70520 333 58006 70000=
0164419410999992014022721004+23267+090700FM-12+000799999V0209999C000019999999N004000199+01921+01801101531ADDAA124000091AY101021AY201021GF100995999999999999999999MA1999990101471MD1909990+0021MW1051REMSYN06441941 31440 00000 10192 20180 30147 40153 70500 333 58002 70000=
0183419410999992014022800004+23267+090700FM-12+000799999V0203601N001019999999N004000199+01871+01801101401ADDAA124999999AY101021AY201021GF100995999999999999999999MA1999990101341MD1909990-0011MW1251REMSYN06441941 31440 03602 10187 20180 30134 40140 72500 333 59001 70000=EQDQ01  00002PRCP24
0136419410999992014022806004+23267+090700FM-12+000799999V0203601N001519999999N006000199+02621+01601101361ADDAA124000091GF100995999999999999999999MA1999990101311MD1909990-0211REMSYN05841941 32956 03603 10262 20160 30131 40136 333 59021 70000=
0136419410999992014022809004+23267+090700FM-12+000799999V0203601N001019999999N007000199+02971+01701101261ADDAA124000091GF100995999999999999999999MA1999990101211MD1909990-0211REMSYN05841941 32957 03602 10297 20170 30121 40126 333 59021 70000=
0164419410999992014022815004+23267+090700FM-12+000799999V0203601N001019999999N004000199+02171+01801101471ADDAA124000091AY101021AY201021GF100995999999999999999999MA1999990101411MD1909990+0011MW1051REMSYN06441941 31440 03602 10217 20180 30141 40147 70500 333 58001 70000=
0164419410999992014022821004+23267+090700FM-12+000799999V0209999C000019999999N004000199+01921+01801101451ADDAA124000091AY101021AY201021GF100995999999999999999999MA1999990101391MD1909990-0081MW1051REMSYN06441941 31440 00000 10192 20180 30139 40145 70500 333 59008 70000=
0183419410999992014030100004+23267+090700FM-12+000799999V0203601N001019999999N005000199+01821+99999101421ADDAA124000091AY101021AY201021GF100995999999999999999999MA1999990101361MD1909990+0021MW1051REMSYN06441941 32950 03602 10182 20190 30136 40142 70500 333 58002 70000=EQDQ0119.0  2ATOD  
0225419410999992014030103004+23267+090700FM-12+000799999V0203601N001510240019N006000199+02171+01701101611ADDAA124000091AY121021AY221021GA1031+004801061GA2061+024001041GF106991031990004801991991KA1240N+01761MA1999990101551MW1051REMSYN09441941 32956 63603 10217 20170 30155 40161 70522 84420 333 20176 56990 59034 70000 83616 86458=
0178419410999992014030106004+23267+090700FM-12+000799999V0203601N002610240019N007000199+02871+01801101721ADDAA124000091GA1031+004801061GA2062+024001041GF105992031990004801991991MA1999990101671REMSYN08241941 32957 53605 10287 20180 30167 40172 83420 333 56990 58036 70000 83616 86458=
0178419410999992014030109004+23267+090700FM-12+000799999V0203601N001010240019N006000199+02881+01801101291ADDAA124000091GA1031+004801061GA2061+024001041GF106991031990004801991991MA1999990101231REMSYN08241941 32456 63602 10288 20180 30123 40129 84420 333 56990 58003 70000 83616 86458=
0197419410999992014030112004+23267+090700FM-12+000799999V0209999C000010240019N005000199+02661+01901101271ADDAA124000091GA1031+004801061GA2061+024001041GF106991031990004801991991KA1240M+02901MA1999990101211REMSYN08841941 32450 60000 10266 20190 30121 40127 84420 333 10290 56990 59013 70000 83616 86458=
0206419410999992014030115004+23267+090700FM-12+000799999V0209999C000010240019N004000199+02541+01801101301ADDAA124000091AY121021AY221021GA1031+004801061GA2061+024001041GF106991031990004801991991MA1999990101251MW1051REMSYN08841941 31440 60000 10254 20180 30125 40130 70522 84420 333 56990 59017 70000 83616 86458=
0164419410999992014030118004+23267+090700FM-12+000799999V0209999C000019999999N004000199+02281+02001101331ADDAA124000091AY121021AY201021GF100995999999999999999999MA1999990101281MD1909990-0201MW1051REMSYN06441941 31940 00000 10228 20200 30128 40133 70520 333 59020 70000=
0164419410999992014030121004+23267+090700FM-12+000799999V0203601N001019999999N004000199+01961+01801101211ADDAA124000091AY101021AY201021GF100995999999999999999999MA1999990101161MD1909990-0241MW1051REMSYN06441941 31940 03602 10196 20180 30116 40121 70500 333 59024 70000=
0164419410999992014030200004+23267+090700FM-12+000799999V0203601N001019999999N004000199+01881+01801101111ADDAA124000091AY101021AY201021GF100995999999999999999999MA1999990101051MD1909990-0311MW1051REMSYN06441941 31940 03602 10188 20180 30105 40111 70500 333 59031 70000=
0155419410999992014030203004+23267+090700FM-12+000799999V0209999C000019999999N006000199+02261+01701101471ADDAA124000091GF100995999999999999999999KA1240N+01751MA1999990101411MD1909990-0141REMSYN06441941 32956 00000 10226 20170 30141 40147 333 20175 59014 70000=
0136419410999992014030206004+23267+090700FM-12+000799999V0203601N001519999999N007000199+02901+01601101381ADDAA124000091GF100995999999999999999999MA1999990101321MD1909990-0341REMSYN05841941 32957 03603 10290 20160 30132 40138 333 59034 70000=
0197419410999992014030212004+23267+090700FM-12+000799999V0203601N001510240019N006000199+02641+01901101161ADDAA124000091GA1031+004501061GA2061+024001041GF106991031990004501991991KA1240M+03081MA1999990101101REMSYN08841941 32456 63603 10264 20190 30110 40116 84420 333 10308 56990 59011 70000 83615 86458=
0206419410999992014030215004+23267+090700FM-12+000799999V0203601N001010240019N004000199+02381+02001101211ADDAA124000091AY121021AY221021GA1031+004501061GA2061+024001041GF106991031990004501991991MA1999990101151MW1051REMSYN08841941 31440 63602 10238 20200 30115 40121 70522 84420 333 56990 59009 70000 83615 86458=
0164419410999992014030221004+23267+090700FM-12+000799999V0209999C000019999999N004000199+01961+01801101211ADDAA124000091AY101021AY201021GF100995999999999999999999MA1999990101161MD1909990+0001MW1051REMSYN06441941 31940 00000 10196 20180 30116 40121 70500 333 58000 70000=
0164419410999992014030300004+23267+090700FM-12+000799999V0209999C000019999999N004000199+01861+01801101161ADDAA124000091AY101021AY201021GF100995999999999999999999MA1999990101101MD1909990-0051MW1051REMSYN06441941 31940 00000 10186 20180 30110 40116 70500 333 59005 70000=
0197419410999992014030303004+23267+090700FM-12+000799999V0203601N001010240019N006000199+02221+01801101411ADDAA124000091GA1031+004501061GA2061+024001041GF106991031990004501991991KA1240N+01731MA1999990101351REMSYN08841941 32456 63602 10222 20180 30135 40141 84420 333 20173 56990 59006 70000 83615 86458=
0178419410999992014030306004+23267+090700FM-12+000799999V0203601N001010240019N006000199+02741+01701101501ADDAA124000091GA1041+004801051GA2061+024001041GF106991041990004801991991MA1999990101441REMSYN08241941 32456 63602 10274 20170 30144 40150 84520 333 56990 58012 70000 84516 86458=
0178419410999992014030309004+23267+090700FM-12+000799999V0203601N00151036001CN007000199+02941+01701101281ADDAA124000091GA1031+004501061GA2031+036001031GF106991031990004501991991MA1999990101221REMSYN08241941 32457 63603 10294 20170 30122 40128 84430 333 56990 58012 70000 83615 83362=
0197419410999992014030312004+23267+090700FM-12+000799999V0203601N00211027001CN006000199+02501+01701101271ADDAA124000091GA1021+004501061GA2041+027001041GF106991021990004501991991KA1240M+02991MA1999990101211REMSYN08841941 32456 63604 10250 20170 30121 40127 82520 333 10299 56990 58011 70000 82615 84459=
0156419410999992014030315004+23267+090700FM-12+000799999V0209999C000019999999N005000199+02261+01801101371ADDAA124000091GA1031+004501061GF103991031990004501991991MA1999990101311REMSYN07641941 32450 30000 10226 20180 30131 40137 83500 333 56900 58016 70000 83615=
0156419410999992014030318004+23267+090700FM-12+000799999V0209999C000019999999N005000199+02081+01801101451ADDAA124000091GA1021+004501061GF102991021990004501991991MA1999990101401REMSYN07641941 32450 20000 10208 20180 30140 40145 82500 333 56900 58018 70000 82615=
0178419410999992014030321004+23267+090700FM-12+000799999V0209999C00001027001CN005000199+01971+01901101411ADDAA124000091GA1021+004501061GA2041+027001041GF105991021990004501991991MA1999990101361REMSYN08241941 32450 50000 10197 20190 30136 40141 82520 333 56990 58020 70000 82615 84459=
0184419410999992014030400004+23267+090700FM-12+000799999V0209999C000019999999N004000199+01941+01801101411ADDAA124000091AY121021AY221021GA1031+004501061GF103991031990004501991991MA1999990101351MW1051REMSYN08241941 31440 30000 10194 20180 30135 40141 70522 83500 333 56900 58025 70000 83615=
0225419410999992014030403004+23267+090700FM-12+000799999V0203601N00151036001CN005000199+02371+01801101641ADDAA124000091AY121021AY221021GA1031+004501061GA2041+036001031GF106991031990004501991991KA1240N+01851MA1999990101581MW1051REMSYN09441941 31450 63603 10237 20180 30158 40164 70522 84430 333 20185 56990 58023 70000 83615 84362=
0178419410999992014030406004+23267+090700FM-12+000799999V0203601N00261027001CN006000199+02671+01701101581ADDAA124000091GA1031+004501061GA2051+027001041GF106991031990004501991991MA1999990101521REMSYN08241941 32456 63605 10267 20170 30152 40158 84420 333 56990 58008 70000 83615 85459=
0178419410999992014030409004+23267+090700FM-12+000799999V0203601N00151036001CN006000199+02801+01701101321ADDAA124000091GA1021+004801061GA2031+036001031GF105991021990004801991991MA1999990101261REMSYN08241941 32456 53603 10280 20170 30126 40132 83430 333 56990 58004 70000 82616 83362=
0213419410999992014030412004+23267+090700FM-12+000799999V0203601N002119999999N006000199+02501+01801101211ADDAA124000091GA1011+005401061GA2031+036001031GA3991+999991001GF104991011990005401991991KA1240M+02901MA1999990101161REMSYN08841941 32456 43604 10250 20180 30116 40121 81531 333 10290 56799 59005 70000 81618 83362=
0178419410999992014030415004+23267+090700FM-12+000799999V0203601N00101027001CN005000199+02301+01801101401ADDAA124000091GA1021+004501061GA2051+027001041GF106991021990004501991991MA1999990101351REMSYN08241941 32450 63602 10230 20180 30135 40140 82520 333 56990 58004 70000 82615 85459=
0178419410999992014030418004+23267+090700FM-12+000799999V0209999C00001027001CN005000199+02101+01601101481ADDAA124000091GA1031+004501061GA2051+027001041GF106991031990004501991991MA1999990101431REMSYN08241941 32450 60000 10210 20160 30143 40148 83520 333 56990 58003 70000 83615 85459=
0206419410999992014030421004+23267+090700FM-12+000799999V0209999C00001027001CN004000199+01961+01801101371ADDAA124000091AY121021AY221021GA1031+004501061GA2051+027001041GF106991031990004501991991MA1999990101311MW1051REMSYN08841941 31440 60000 10196 20180 30131 40137 70522 83520 333 56990 59005 70000 83615 85459=
0206419410999992014030500004+23267+090700FM-12+000799999V0209999C000010270019N004000199+01951+01901101381ADDAA124000091AY121021AY221021GA1031+004501061GA2061+027001041GF106991031990004501991991MA1999990101321MW1051REMSYN08841941 31940 60000 10195 20190 30132 40138 70522 83520 333 56990 59003 70000 83615 86459=
0155419410999992014030503004+23267+090700FM-12+000799999V0203601N001019999999N006000199+02341+01701101591ADDAA124000091GF100995999999999999999999KA1240N+01871MA1999990101531MD1909990-0051REMSYN06441941 32956 03602 10234 20170 30153 40159 333 20187 59005 70000=
0136419410999992014030506004+23267+090700FM-12+000799999V0203601N001019999999N007000199+02801+01501101501ADDAA124000091GF100995999999999999999999MA1999990101451MD1909990-0071REMSYN05841941 32957 03602 10280 20150 30145 40150 333 59007 70000=
0136419410999992014030509004+23267+090700FM-12+000799999V0203601N001519999999N007000199+02961+01801101221ADDAA124000091GF100995999999999999999999MA1999990101161MD1909990-0101REMSYN05841941 32957 03603 10296 20180 30116 40122 333 59010 70000=
0155419410999992014030512004+23267+090700FM-12+000799999V0203601N001519999999N007000199+02521+01801101141ADDAA124000091GF100995999999999999999999KA1240M+02981MA1999990101091MD1909990-0071REMSYN06441941 31957 03603 10252 20180 30109 40114 333 10298 59007 70000=
0164419410999992014030515004+23267+090700FM-12+000799999V0203601N001019999999N005000199+02321+01901101301ADDAA124000091AY101021AY201021GF100995999999999999999999MA1999990101251MD1909990-0101MW1051REMSYN06441941 31950 03602 10232 20190 30125 40130 70500 333 59010 70000=
0164419410999992014030521004+23267+090700FM-12+000799999V0209999C000019999999N004000199+02071+01901101241ADDAA124000091AY101021AY201021GF100995999999999999999999MA1999990101181MD1909990-0131MW1051REMSYN06441941 31940 00000 10207 20190 30118 40124 70500 333 59013 70000=
0206419410999992014030600004+23267+090700FM-12+000799999V0209999C000010240019N004000199+01721+01601101331ADDAA124000091AY121021AY201021GA1041+004501061GA2051+024001041GF106991041990004501991991MA1999990101271MW1051REMSYN08841941 31440 60000 10172 20160 30127 40133 70520 85470 333 56990 59005 70000 84615 85458=
0183419410999992014030603004+23267+090700FM-12+000799999V0203601N001019999999N005000199+02261+02101101371ADDAA124000091AY121021AY201021GF100995999999999999999999KA1240N+01661MA1999990101311MD1909990-0221MW1051REMSYN07041941 31950 03602 10226 20210 30131 40137 70520 333 20166 59022 70000=
0136419410999992014030606004+23267+090700FM-12+000799999V0203601N001519999999N007000199+02861+01601101361ADDAA124000091GF100995999999999999999999MA1999990101301MD1909990-0141REMSYN05841941 32957 03603 10286 20160 30130 40136 333 59014 70000=
0136419410999992014030609004+23267+090700FM-12+000799999V0203601N001519999999N007000199+03001+01401101241ADDAA124000091GF100995999999999999999999MA1999990101181MD1909990+0021REMSYN05841941 32957 03603 10300 20140 30118 40124 333 58002 70000=
0183419410999992014030612004+23267+090700FM-12+000799999V0209999C000019999999N005000199+02521+01701101181ADDAA124000091AY101021AY201021GF100995999999999999999999KA1240M+03071MA1999990101121MD1909990+0041MW1051REMSYN07041941 32950 00000 10252 20170 30112 40118 70500 333 10307 58004 70000=
0149419410999992014030615004+23267+090700FM-12+000799999V0209999C000019999999N004000199+02221+01801101361ADDAY101021AY201021GF100995999999999999999999MA1999990101301MD1810061+9990MW1001REMSYN06041941 31440 00000 10222 20180 30130 40136 58006 70000 70500=
0164419410999992014030621004+23267+090700FM-12+000799999V0209999C000019999999N004000199+02021+01901101351ADDAA124000091AY101021AY201021GF100995999999999999999999MA1999990101291MD1909990+0111MW1051REMSYN06441941 31440 00000 10202 20190 30129 40135 70500 333 58011 70000=
0164419410999992014030700004+23267+090700FM-12+000799999V0209999C000019999999N004000199+01921+01901101471ADDAA124000091AY101021AY201021GF100995999999999999999999MA1999990101411MD1909990+0141MW1051REMSYN06441941 31440 00000 10192 20190 30141 40147 70500 333 58014 70000=
0183419410999992014030703004+23267+090700FM-12+000799999V0203601N001019999999N006000199+02471+01601101741ADDAA124000091AY101021AY201021GF100995999999999999999999KA1240N+01811MA1999990101681MD1909990+0371MW1051REMSYN07041941 31956 03602 10247 20160 30168 40174 70500 333 20181 58037 70000=
0136419410999992014030706004+23267+090700FM-12+000799999V0203601N001019999999N007000199+02821+01301101781ADDAA124000091GF100995999999999999999999MA1999990101731MD1909990+0421REMSYN05841941 32957 03602 10282 20130 30173 40178 333 58042 70000=
0136419410999992014030709004+23267+090700FM-12+000799999V0203601N001019999999N007000199+03041+01301101481ADDAA124000091GF100995999999999999999999MA1999990101421MD1909990+0241REMSYN05841941 32957 03602 10304 20130 30142 40148 333 58024 70000=
0183419410999992014030712004+23267+090700FM-12+000799999V0209999C000019999999N005000199+02621+01701101361ADDAA124000091AY101021AY201021GF100995999999999999999999KA1240M+03111MA1999990101301MD1909990+0181MW1051REMSYN07041941 32950 00000 10262 20170 30130 40136 70500 333 10311 58018 70000=
0164419410999992014030715004+23267+090700FM-12+000799999V0209999C000019999999N005000199+02221+01701101411ADDAA124000091AY101021AY201021GF100995999999999999999999MA1999990101351MD1909990+0051MW1051REMSYN06441941 31950 00000 10222 20170 30135 40141 70500 333 58005 70000=
0164419410999992014030718004+23267+090700FM-12+000799999V0209999C000019999999N004000199+02121+01801101471ADDAA124000091AY101021AY201021GF100995999999999999999999MA1999990101411MD1909990+0031MW1051REMSYN06441941 31940 00000 10212 20180 30141 40147 70500 333 58003 70000=
0164419410999992014030721004+23267+090700FM-12+000799999V0209999C000019999999N004000199+02021+01901101381ADDAA124000091AY101021AY201021GF100995999999999999999999MA1999990101321MD1909990+0031MW1051REMSYN06441941 31940 00000 10202 20190 30132 40138 70500 333 58003 70000=
0164419410999992014030800004+23267+090700FM-12+000799999V0209999C000019999999N004000199+01671+01601101671ADDAA124000091AY101021AY201021GF100995999999999999999999MA1999990101611MD1909990+0201MW1051REMSYN06441941 31940 00000 10167 20160 30161 40167 70500 333 58020 70000=
0155419410999992014030803004+23267+090700FM-12+000799999V0209999C000019999999N006000199+02471+01701101801ADDAA124000091GF100995999999999999999999KA1240N+01511MA1999990101741MD1909990+0061REMSYN06441941 32956 00000 10247 20170 30174 40180 333 20151 58006 70000=
0136419410999992014030806004+23267+090700FM-12+000799999V0203601N001519999999N007000199+02871+01301101901ADDAA124000091GF100995999999999999999999MA1999990101841MD1909990+0121REMSYN05841941 32957 03603 10287 20130 30184 40190 333 58012 70000=
0136419410999992014030809004+23267+090700FM-12+000799999V0209999C000019999999N007000199+02941+01201101361ADDAA124000091GF100995999999999999999999MA1999990101301MD1909990-0121REMSYN05841941 32957 00000 10294 20120 30130 40136 333 59012 70000=
0197419410999992014030812004+23267+090700FM-12+000799999V0209999C000010240019N006000199+02641+01501101301ADDAA124000091GA1031+004801061GA2061+024001041GF106991031990004801991991KA1240M+02981MA1999990101241REMSYN08841941 32456 60000 10264 20150 30124 40130 84420 333 10298 56990 59006 70000 83616 86458=
0164419410999992014030815004+23267+090700FM-12+000799999V0209999C000019999999N004000199+02141+01401101411ADDAA124000091AY101021AY201021GF100995999999999999999999MA1999990101361MD1909990+0001MW1051REMSYN06441941 31940 00000 10214 20140 30136 40141 70500 333 58000 70000=
0164419410999992014030818004+23267+090700FM-12+000799999V0209999C000019999999N004000199+02081+01501101511ADDAA124000091AY101021AY201021GF100995999999999999999999MA1999990101451MD1909990+0001MW1051REMSYN06441941 31940 00000 10208 20150 30145 40151 70500 333 58000 70000=
0164419410999992014030821004+23267+090700FM-12+000799999V0209999C000019999999N004000199+01861+01301101431ADDAA124000091AY101021AY201021GF100995999999999999999999MA1999990101371MD1909990+0051MW1051REMSYN06441941 31940 00000 10186 20130 30137 40143 70500 333 58005 70000=
0164419410999992014030900004+23267+090700FM-12+000799999V0203601N001019999999N004000199+01741+01401101381ADDAA124000091AY101021AY201021GF100995999999999999999999MA1999990101321MD1909990-0291MW1051REMSYN06441941 31940 03602 10174 20140 30132 40138 70500 333 59029 70000=
0155419410999992014030903004+23267+090700FM-12+000799999V0209999C000019999999N006000199+02201+01401101631ADDAA124000091GF100995999999999999999999KA1240N+01561MA1999990101571MD1909990-0171REMSYN06441941 32956 00000 10220 20140 30157 40163 333 20156 59017 70000=
0136419410999992014030906004+23267+090700FM-12+000799999V0203601N001019999999N007000199+02841+01001101611ADDAA124000091GF100995999999999999999999MA1999990101551MD1909990-0291REMSYN05841941 32957 03602 10284 20100 30155 40161 333 59029 70000=
0136419410999992014030909004+23267+090700FM-12+000799999V0203601N001019999999N007000199+03041+01201101201ADDAA124000091GF100995999999999999999999MA1999990101141MD1909990-0161REMSYN05841941 32957 03602 10304 20120 30114 40120 333 59016 70000=
0197419410999992014030912004+23267+090700FM-12+000799999V0209999C000010240019N006000199+02681+01601101251ADDAA124000091GA1031+004801061GA2061+024001041GF106991031990004801991991KA1240M+03081MA1999990101191REMSYN08841941 32456 60000 10268 20160 30119 40125 84420 333 10308 56990 59005 70000 83616 86458=
0206419410999992014030915004+23267+090700FM-12+000799999V0209999C000010240019N004000199+02261+01301101271ADDAA124000091AY121021AY221021GA1031+004801061GA2061+024001041GF106991031990004801991991MA1999990101221MW1051REMSYN08841941 31440 60000 10226 20130 30122 40127 70522 84420 333 56990 59014 70000 83616 86458=
0164419410999992014030918004+23267+090700FM-12+000799999V0209999C000019999999N004000199+02041+01401101331ADDAA124000091AY121021AY201021GF100995999999999999999999MA1999990101281MD1909990-0181MW1051REMSYN06441941 31940 00000 10204 20140 30128 40133 70520 333 59018 70000=
0164419410999992014030921004+23267+090700FM-12+000799999V0209999C000019999999N004000199+01841+01601101291ADDAA124000091AY101021AY201021GF100995999999999999999999MA1999990101241MD1909990-0141MW1051REMSYN06441941 31940 00000 10184 20160 30124 40129 70500 333 59014 70000=
0164419410999992014031000004+23267+090700FM-12+000799999V0209999C000019999999N004000199+01771+01701101231ADDAA124000091AY101021AY201021GF100995999999999999999999MA1999990101171MD1909990-0151MW1051REMSYN06441941 31940 00000 10177 20170 30117 40123 70500 333 59015 70000=
0155419410999992014031003004+23267+090700FM-12+000799999V0203601N001019999999N006000199+02241+01301101521ADDAA124000091GF100995999999999999999999KA1240N+01661MA1999990101461MD1909990-0111REMSYN06441941 32956 03602 10224 20130 30146 40152 333 20166 59011 70000=
0136419410999992014031006004+23267+090700FM-12+000799999V0203601N001019999999N007000199+02771+01601101501ADDAA124000091GF100995999999999999999999MA1999990101451MD1909990-0111REMSYN05841941 32957 03602 10277 20160 30145 40150 333 59011 70000=
0136419410999992014031009004+23267+090700FM-12+000799999V0203601N001519999999N008000199+03021+01401101221ADDAA124000091GF100995999999999999999999MA1999990101161MD1909990+0021REMSYN05841941 32958 03603 10302 20140 30116 40122 333 58002 70000=
0178419410999992014031015004+23267+090700FM-12+000799999V0209999C00001036001CN005000199+02401+01701101381ADDAA124000091GA1031+004501061GA2031+036001031GF106991031990004501991991MA1999990101321REMSYN08241941 32450 60000 10240 20170 30132 40138 84430 333 56990 58010 70000 83615 83362=
0178419410999992014031018004+23267+090700FM-12+000799999V0209999C00001036001CN005000199+02201+01701101411ADDAA124000091GA1041+004501061GA2041+036001031GF106991041990004501991991MA1999990101361REMSYN08241941 32450 60000 10220 20170 30136 40141 84520 333 56990 58008 70000 84615 84362=
0156419410999992014031100004+23267+090700FM-12+000799999V0209999C000019999999N005000199+01961+01801101421ADDAA124000091GA1041+036001031GF104991041990036001991991MA1999990101361REMSYN07641941 32950 40000 10196 20180 30136 40142 83030 333 56090 58019 70000 84362=
0155419410999992014031103004+23267+090700FM-12+000799999V0209999C000019999999N006000199+02351+01701101581ADDAA124000091GF100995999999999999999999KA1240N+01841MA1999990101531MD1909990+0071REMSYN06441941 32956 00000 10235 20170 30153 40158 333 20184 58007 70000=
0136419410999992014031106004+23267+090700FM-12+000799999V0203601N002119999999N007000199+03021+01201101561ADDAA124000091GF100995999999999999999999MA1999990101501MD1909990+0051REMSYN05841941 32957 03604 10302 20120 30150 40156 333 58005 70000=
0136419410999992014031109004+23267+090700FM-12+000799999V0203601N002119999999N008000199+03171+01201101281ADDAA124000091GF100995999999999999999999MA1999990101231MD1909990+0071REMSYN05841941 32958 03604 10317 20120 30123 40128 333 58007 70000=
0155419410999992014031112004+23267+090700FM-12+000799999V0209999C000019999999N006000199+02851+01701101231ADDAA124000091GF100995999999999999999999KA1240M+03221MA1999990101171MD1909990+0011REMSYN06441941 32956 00000 10285 20170 30117 40123 333 10322 58001 70000=
0136419410999992014031121004+23267+090700FM-12+000799999V0209999C000019999999N005000199+02001+01801101391ADDAA124000091GF100995999999999999999999MA1999990101331MD1909990+0031REMSYN05841941 32950 00000 10200 20180 30133 40139 333 58003 70000=
0164419410999992014031200004+23267+090700FM-12+000799999V0209999C000019999999N004000199+01901+01801101451ADDAA124000091AY101021AY201021GF100995999999999999999999MA1999990101391MD1909990+0031MW1051REMSYN06441941 31940 00000 10190 20180 30139 40145 70500 333 58003 70000=
0155419410999992014031203004+23267+090700FM-12+000799999V0209999C000019999999N006000199+02261+01701101521ADDAA124000091GF100995999999999999999999KA1240N+01801MA1999990101471MD1909990-0061REMSYN06441941 32956 00000 10226 20170 30147 40152 333 20180 59006 70000=
0136419410999992014031206004+23267+090700FM-12+000799999V0203601N002119999999N007000199+03141+01401101551ADDAA124000091GF100995999999999999999999MA1999990101491MD1909990-0011REMSYN05841941 32957 03604 10314 20140 30149 40155 333 59001 70000=
0178419410999992014031209004+23267+090700FM-12+000799999V0203601N001510048019N007000199+03221+01301101121ADDAA124000091GA1051+004801061GA2051+024001041GF106991051990004801991991MA1999990101061REMSYN08241941 32457 63603 10322 20130 30106 40112 85420 333 56990 59016 70000 85616 85458=
0197419410999992014031212004+23267+090700FM-12+000799999V0209999C000010240019N007000199+02941+01601101041ADDAA124000091GA1041+004801061GA2061+024001041GF107991041990004801991991KA1240M+03281MA1999990100981REMSYN08841941 32457 70000 10294 20160 30098 40104 85470 333 10328 56990 59019 70000 84616 86458=
0136419410999992014031215004+23267+090700FM-12+000799999V0209999C000019999999N006000199+02421+02101101221ADDAA124000091GF100995999999999999999999MA1999990101161MD1909990-0201REMSYN05841941 32956 00000 10242 20210 30116 40122 333 59020 70000=
0164419410999992014031221004+23267+090700FM-12+000799999V0209999C000019999999N004000199+02221+02001101251ADDAA124000091AY101021AY201021GF100995999999999999999999MA1999990101201MD1909990-0131MW1051REMSYN06441941 31940 00000 10222 20200 30120 40125 70500 333 59013 70000=
0206419410999992014031300004+23267+090700FM-12+000799999V0209999C000010240019N005000199+02121+02001101221ADDAA124000091AY121021AY201021GA1041+004801061GA2051+024001041GF106991041990004801991991MA1999990101161MW1051REMSYN08841941 31450 60000 10212 20200 30116 40122 70520 85470 333 56990 59013 70000 84616 85458=
0253419410999992014031303004+23267+090700FM-12+000799999V0209999C00001009001CN006000199+02481+01901101281ADDAA124000091AY121021AY221021GA1051+004501061GA2011+009001091GA3081+024001041GF108991051990004501991991MA1999990101221MW1051REMSYN10041941 31456 80000 10248 20190 30122 40128 70522 8632/ 333 10204 56999 59024 70000 85615 81930 88458=EQDQ0120    2EATMX 
0178419410999992014031306004+23267+090700FM-12+000799999V0203601N001010240019N006000199+03171+01901101301ADDAA124000091GA1041+004801061GA2061+024001041GF106991041990004801991991MA1999990101241REMSYN08241941 32456 63602 10317 20190 30124 40130 85420 333 56990 59025 70000 84616 86458=
0177419410999992014031309004+23267+090700FM-12+000799999V0201401N001510060019N006000199+03321+01801101001ADDGA1051+006001041GA2991+999991051GF106991051990006001991991MA1999990100951REMSYN09241941 32456 61403 10332 20180 30095 40100 85420 333 85420 333 56990 59012 70000 84615 86458=
0197419410999992014031312004+23267+090700FM-12+000799999V0209999C000010240019N007000199+02961+02101100981ADDAA124000091GA1041+004801061GA2061+024001041GF106991041990004801991991KA1240M+03361MA1999990100931REMSYN08841941 32457 60000 10296 20210 30093 40098 85420 333 10336 56990 59006 70000 84616 86458=
0136419410999992014031315004+23267+090700FM-12+000799999V0209999C000019999999N006000199+02521+02201101231ADDAA124000091GF100995999999999999999999MA1999990101181MD1909990+0011REMSYN05841941 32956 00000 10252 20220 30118 40123 333 58001 70000=
0164419410999992014031318004+23267+090700FM-12+000799999V0209999C000019999999N005000199+02321+02101101301ADDAA124000091AY121021AY201021GF100995999999999999999999MA1999990101241MD1909990+0011MW1051REMSYN06441941 31950 00000 10232 20210 30124 40130 70520 333 58001 70000=
0164419410999992014031321004+23267+090700FM-12+000799999V0209999C000019999999N004000199+02221+02001101241ADDAA124000091AY101021AY201021GF100995999999999999999999MA1999990101181MD1909990-0011MW1051REMSYN06441941 31940 00000 10222 20200 30118 40124 70500 333 59001 70000=
0228419410999992014031400004+23267+090700FM-12+000799999V0209999C00001009001CN004000199+02171+02101101251ADDAA124000091AY121021AY201021GA1051+004501061GA2011+009001091GA3081+024001041GF108991051990004501991991MA1999990101201MW1051REMSYN09441941 31440 80000 10217 20210 30120 40125 70520 8632/ 333 56999 58001 70000 85615 81930 88458=
0155419410999992014031403004+23267+090700FM-12+000799999V0203601N001019999999N006000199+02771+01801101491ADDAA124000091GF100995999999999999999999KA1240N+02101MA1999990101441MD1909990+0201REMSYN06441941 32956 03602 10277 20180 30144 40149 333 20210 58020 70000=
0136419410999992014031406004+23267+090700FM-12+000799999V0203601N001519999999N007000199+03141+01501101481ADDAA124000091GF100995999999999999999999MA1999990101431MD1909990+0181REMSYN05841941 32957 03603 10314 20150 30143 40148 333 58018 70000=
0136419410999992014031409004+23267+090700FM-12+000799999V0203601N001519999999N007000199+03301+01801101111ADDAA124000091GF100995999999999999999999MA1999990101051MD1909990+0111REMSYN05841941 32957 03603 10330 20180 30105 40111 333 58011 70000=
0197419410999992014031412004+23267+090700FM-12+000799999V0203101N001510240019N007000199+02921+01801101071ADDAA124000091GA1041+004801061GA2061+024001041GF106991041990004801991991KA1240M+03351MA1999990101011REMSYN08841941 32457 63103 10292 20180 30101 40107 85420 333 10335 56990 58009 70000 84616 86458=
0164419410999992014031415004+23267+090700FM-12+000799999V0203601N001019999999N005000199+02421+01801101201ADDAA124000091AY121021AY201021GF100995999999999999999999MA1999990101151MD1909990-0031MW1051REMSYN06441941 31950 03602 10242 20180 30115 40120 70520 333 59003 70000=
0164419410999992014031418004+23267+090700FM-12+000799999V0209999C000019999999N004000199+02321+01901101301ADDAA124000091AY121021AY201021GF100995999999999999999999MA1999990101241MD1909990+0001MW1051REMSYN06441941 31940 00000 10232 20190 30124 40130 70520 333 58000 70000=
0164419410999992014031421004+23267+090700FM-12+000799999V0209999C000019999999N004000199+02221+02101101171ADDAA124000091AY101021AY201021GF100995999999999999999999MA1999990101111MD1909990-0071MW1051REMSYN06441941 31940 00000 10222 20210 30111 40117 70500 333 59007 70000=
0206419410999992014031500004+23267+090700FM-12+000799999V0209999C000010240019N005000199+01921+01801101301ADDAA124000091AY121021AY201021GA1041+004501061GA2061+024001041GF107991041990004501991991MA1999990101241MW1051REMSYN08841941 31450 70000 10192 20180 30124 40130 70520 85470 333 56990 58005 70000 84615 86458=
0155419410999992014031503004+23267+090700FM-12+000799999V0209999C000019999999N006000199+02471+01901101491ADDAA124000091GF100995999999999999999999KA1240N+01851MA1999990101441MD1909990-0011REMSYN06441941 32956 00000 10247 20190 30144 40149 333 20185 59001 70000=
0136419410999992014031506004+23267+090700FM-12+000799999V0203601N001519999999N007000199+03021+02001101461ADDAA124000091GF100995999999999999999999MA1999990101411MD1909990-0021REMSYN05841941 32957 03603 10302 20200 30141 40146 333 59002 70000=
0136419410999992014031509004+23267+090700FM-12+000799999V0203601N001019999999N007000199+03221+01901101211ADDAA124000091GF100995999999999999999999MA1999990101161MD1909990+0151REMSYN05841941 32957 03602 10322 20190 30116 40121 333 58015 70000=
0155419410999992014031512004+23267+090700FM-12+000799999V0209999C000019999999N007000199+02961+02101101181ADDAA124000091GF100995999999999999999999KA1240M+03261MA1999990101131MD1909990+0111REMSYN06441941 32957 00000 10296 20210 30113 40118 333 10326 58011 70000=
0136419410999992014031515004+23267+090700FM-12+000799999V0209999C000019999999N005000199+02321+01801101401ADDAA124000091GF100995999999999999999999MA1999990101341MD1909990+0201REMSYN05841941 32950 00000 10232 20180 30134 40140 333 58020 70000=
0164419410999992014031521004+23267+090700FM-12+000799999V0209999C000019999999N004000199+01961+01801101391ADDAA124000091AY101021AY201021GF100995999999999999999999MA1999990101341MD1909990+0221MW1051REMSYN06441941 31940 00000 10196 20180 30134 40139 70500 333 58022 70000=
0164419410999992014031600004+23267+090700FM-12+000799999V0209999C000019999999N005000199+01881+01801101231ADDAA124000091AY101021AY201021GF100995999999999999999999MA1999990101181MD1909990-0071MW1051REMSYN06441941 31950 00000 10188 20180 30118 40123 70500 333 59007 70000=
0155419410999992014031603004+23267+090700FM-12+000799999V0209999C000019999999N006000199+02571+01701101581ADDAA124000091GF100995999999999999999999KA1240N+01831MA1999990101521MD1909990+0091REMSYN06441941 32956 00000 10257 20170 30152 40158 333 20183 58009 70000=
0136419410999992014031606004+23267+090700FM-12+000799999V0209999C000019999999N007000199+03181+01601101531ADDAA124000091GF100995999999999999999999MA1999990101481MD1909990+0071REMSYN05841941 32957 00000 10318 20160 30148 40153 333 58007 70000=
0136419410999992014031609004+23267+090700FM-12+000799999V0203601N001019999999N007000199+03321+01501101211ADDAA124000091GF100995999999999999999999MA1999990101151MD1909990+0001REMSYN05841941 32957 03602 10332 20150 30115 40121 333 58000 70000=
0155419410999992014031612004+23267+090700FM-12+000799999V0209999C000019999999N006000199+02681+02001101161ADDAA124000091GF100995999999999999999999KA1240M+03381MA1999990101111MD1909990-0021REMSYN06441941 32956 00000 10268 20200 30111 40116 333 10338 59002 70000=
0136419410999992014031615004+23267+090700FM-12+000799999V0209999C000019999999N005000199+02441+01901101361ADDAA124000091GF100995999999999999999999MA1999990101301MD1909990-0041REMSYN05841941 32950 00000 10244 20190 30130 40136 333 59004 70000=
0164419410999992014031618004+23267+090700FM-12+000799999V0209999C000019999999N004000199+02161+02101101461ADDAA124000091AY101021AY201021GF100995999999999999999999MA1999990101401MD1909990+0021MW1051REMSYN06441941 31940 00000 10216 20210 30140 40146 70500 333 58002 70000=
0164419410999992014031621004+23267+090700FM-12+000799999V0209999C000019999999N004000199+01961+01801101281ADDAA124000091AY101021AY201021GF100995999999999999999999MA1999990101221MD1909990-0111MW1051REMSYN06441941 31940 00000 10196 20180 30122 40128 70500 333 59011 70000=
0164419410999992014031700004+23267+090700FM-12+000799999V0209999C000019999999N005000199+01861+01801101231ADDAA124000091AY101021AY201021GF100995999999999999999999MA1999990101171MD1909990+0001MW1051REMSYN06441941 31950 00000 10186 20180 30117 40123 70500 333 58000 70000=
0155419410999992014031703004+23267+090700FM-12+000799999V0209999C000019999999N006000199+02461+01501101481ADDAA124000091GF100995999999999999999999KA1240N+01811MA1999990101421MD1909990-0101REMSYN06441941 32956 00000 10246 20150 30142 40148 333 20181 59010 70000=
0136419410999992014031706004+23267+090700FM-12+000799999V0203601N001019999999N007000199+03181+01401101441ADDAA124000091GF100995999999999999999999MA1999990101391MD1909990-0091REMSYN05841941 32957 03602 10318 20140 30139 40144 333 59009 70000=
0136419410999992014031709004+23267+090700FM-12+000799999V0209999C000019999999N008000199+03371+01001101161ADDAA124000091GF100995999999999999999999MA1999990101101MD1909990-0051REMSYN05841941 32958 00000 10337 20100 30110 40116 333 59005 70000=
0155419410999992014031712004+23267+090700FM-12+000799999V0209999C000019999999N006000199+02961+01901101021ADDAA124000091GF100995999999999999999999KA1240M+03471MA1999990100971MD1909990-0141REMSYN06441941 32956 00000 10296 20190 30097 40102 333 10347 59014 70000=
0136419410999992014031715004+23267+090700FM-12+000799999V0209999C000019999999N005000199+02401+01901101221ADDAA124000091GF100995999999999999999999MA1999990101161MD1909990-0141REMSYN05841941 32950 00000 10240 20190 30116 40122 333 59014 70000=
0136419410999992014031718004+23267+090700FM-12+000799999V0209999C000019999999N005000199+02221+01801101321ADDAA124000091GF100995999999999999999999MA1999990101261MD1909990-0141REMSYN05841941 32950 00000 10222 20180 30126 40132 333 59014 70000=
0164419410999992014031721004+23267+090700FM-12+000799999V0209999C000019999999N004000199+02041+01801101271ADDAA124000091AY101021AY201021GF100995999999999999999999MA1999990101211MD1909990-0011MW1051REMSYN06441941 31940 00000 10204 20180 30121 40127 70500 333 59001 70000=
0206419410999992014031800004+23267+090700FM-12+000799999V0209999C000010270019N004000199+02001+01801101331ADDAA124000091AY121021AY201021GA1041+004501061GA2051+027001041GF106991041990004501991991MA1999990101271MW1051REMSYN08841941 31440 60000 10200 20180 30127 40133 70520 84520 333 56990 58010 70000 84615 85459=
0225419410999992014031803004+23267+090700FM-12+000799999V0203101N001010240019N005000199+02441+02201101521ADDAA124000091AY121021AY221021GA1041+004501061GA2081+024001041GF108991041990004501991991KA1240N+01981MA1999990101461MW1051REMSYN09441941 31450 83102 10244 20220 30146 40152 70522 8452/ 333 20198 56999 58004 70000 84615 88458=
0136419410999992014031806004+23267+090700FM-12+000799999V0209999C000019999999N006000199+02921+02201101431ADDAA124000091GF100995999999999999999999MA1999990101381MD1909990-0011REMSYN05841941 32956 00000 10292 20220 30138 40143 333 59001 70000=
0136419410999992014031809004+23267+090700FM-12+000799999V0203101N001019999999N007000199+03171+02301101101ADDAA124000091GF100995999999999999999999MA1999990101041MD1909990-0061REMSYN05841941 32957 03102 10317 20230 30104 40110 333 59006 70000=
0155419410999992014031812004+23267+090700FM-12+000799999V0209999C000019999999N006000199+03061+02401100951ADDAA124000091GF100995999999999999999999KA1240M+03371MA1999990100891MD1909990-0081REMSYN06441941 32956 00000 10306 20240 30089 40095 333 10337 59008 70000=
0156419410999992014031815004+23267+090700FM-12+000799999V0209999C000019999999N005000199+02651+02301101031ADDAA124000091GA1021+004501061GF102991021990004501991991MA1999990100981REMSYN07641941 32450 20000 10265 20230 30098 40103 82500 333 56900 59018 70000 82615=
0156419410999992014031818004+23267+090700FM-12+000799999V0209999C000019999999N005000199+02481+02201101101ADDAA124000091GA1021+004501061GF102991021990004501991991MA1999990101051REMSYN07641941 32450 20000 10248 20220 30105 40110 82500 333 56900 59021 70000 82615=
0156419410999992014031821004+23267+090700FM-12+000799999V0209999C000019999999N005000199+02331+02101101061ADDAA124000091GA1021+004501061GF102991021990004501991991MA1999990101011REMSYN07641941 32450 20000 10233 20210 30101 40106 82500 333 56900 59020 70000 82615=
0156419410999992014031900004+23267+090700FM-12+000799999V0209999C000019999999N005000199+02301+02101100991ADDAA124000091GA1031+004501061GF103991031990004501991991MA1999990100931REMSYN07641941 32450 30000 10230 20210 30093 40099 83500 333 56900 59034 70000 83615=
0155419410999992014031903004+23267+090700FM-12+000799999V0209999C000019999999N006000199+02721+02301101221ADDAA124000091GF100995999999999999999999KA1240N+02261MA1999990101171MD1909990-0291REMSYN06441941 32956 00000 10272 20230 30117 40122 333 20226 59029 70000=
0156419410999992014031906004+23267+090700FM-12+000799999V0209999C000019999999N008000199+03181+02001101191ADDAA124000091GA1021+004801061GF103991021990004801991991MA1999990101131REMSYN07641941 32458 30000 10318 20200 30113 40119 84300 333 56900 59025 70000 82616=
0181419410999992014031909004+23267+090700FM-12+000799999V0201401N001019999999N007000199+02871+02001100881ADDAA103004031AA224004031AY161021AY221021GF100995999999999999999999MA1999990100831MD1909990-0221MW1011REMSYN07041941 21957 01402 10287 20200 30083 40088 70162 333 59022 6004/ 70040=
0242419410999992014031912004+23267+090700FM-12+000799999V0201801N001510240019N007000199+02721+02001100811ADDAA101004031AA224004031AY161021AY221021GA1041+004801061GA2061+024001041GF106991041990004801991991KA1240M+03201MA1999990100751MW1031REMSYN10041941 11457 61803 10272 20200 30075 40081 60045 70362 85420 333 10320 56990 59014 70040 84616 86458=
0164419410999992014031918004+23267+090700FM-12+000799999V0209999C000019999999N005000199+02321+02101100981ADDAA124004031AY121021AY201021GF100995999999999999999999MA1999990100921MD1909990-0121MW1051REMSYN06441941 31950 00000 10232 20210 30092 40098 70520 333 59012 70040=
0197419410999992014032003004+23267+090700FM-12+000799999V0209999C000010240019N006000199+02421+02001101331ADDAA124004031GA1041+004801061GA2061+024001041GF106991041990004801991991KA1240N+02141MA1999990101271REMSYN08841941 32456 60000 10242 20200 30127 40133 85420 333 20214 56990 58011 70040 84616 86458=
0136419410999992014032006004+23267+090700FM-12+000799999V0201801N001019999999N007000199+03171+01601101221ADDAA124004031GF100995999999999999999999MA1999990101171MD1909990+0031REMSYN05841941 32957 01802 10317 20160 30117 40122 333 58003 70040=
0136419410999992014032009004+23267+090700FM-12+000799999V0209999C000019999999N007000199+03321+01901100991ADDAA124000091GF100995999999999999999999MA1999990100931MD1909990+0111REMSYN05841941 32957 00000 10332 20190 30093 40099 333 58011 70000=
0197419410999992014032012004+23267+090700FM-12+000799999V0201801N001510240019N007000199+03021+02001100891ADDAA124000091GA1041+004801061GA2061+024001041GF106991041990004801991991KA1240M+03321MA1999990100831REMSYN08841941 32457 61803 10302 20200 30083 40089 85420 333 10332 56990 58008 70000 84616 86458=
0136419410999992014032015004+23267+090700FM-12+000799999V0201801N001519999999N006000199+02671+02301101031ADDAA124000091GF100995999999999999999999MA1999990100981MD1909990+0121REMSYN05841941 32956 01803 10267 20230 30098 40103 333 58012 70000=
0164419410999992014032021004+23267+090700FM-12+000799999V0209999C000019999999N004000199+02421+02401100921ADDAA124000091AY101021AY201021GF100995999999999999999999MA1999990100871MD1909990+0041MW1051REMSYN06441941 31940 00000 10242 20240 30087 40092 70500 333 58004 70000=
0178419410999992014032100004+23267+090700FM-12+000799999V0209999C00001001201CN000400199+02371+02301100931ADDAA124000091AY141021AY221021GA1091+999991991GF109991091990999999991991MA1999990100871MW1451REMSYN07641941 31/04 90000 10237 20230 30087 40093 74542 89/// 333 56999 59010 70000=
0228419410999992014032106004+23267+090700FM-12+000799999V0203101N00151009001CN006000199+03171+02301101071ADDAA124000091AY141021AY221021GA1051+004201061GA2011+009001091GA3081+024001041GF108991051990004201991991MA1999990101011MW1051REMSYN09441941 31456 83103 10317 20230 30101 40107 70542 8632/ 333 56999 59015 70000 85614 81930 88458=
0136419410999992014032109004+23267+090700FM-12+000799999V0201801N001019999999N007000199+03321+02101100711ADDAA124000091GF100995999999999999999999MA1999990100651MD1909990-0291REMSYN05841941 32957 01802 10332 20210 30065 40071 333 59029 70000=
0197419410999992014032112004+23267+090700FM-12+000799999V0209999C000010240019N007000199+03121+01901100571ADDAA124000091GA1041+004801061GA2061+024001041GF106991041990004801991991KA1240M+03341MA1999990100521REMSYN08841941 32457 60000 10312 20190 30052 40057 85420 333 10334 56990 59032 70000 84616 86458=
0156419410999992014032115004+23267+090700FM-12+000799999V0209999C000019999999N006000199+02671+02501100691ADDAA124000091GA1041+004801061GF105991041990004801991991MA1999990100631REMSYN07641941 32456 50000 10267 20250 30063 40069 85400 333 56900 59034 70000 84616=
0178419410999992014032121004+23267+090700FM-12+000799999V0209999C000010240019N005000199+02421+02301100721ADDAA124000091GA1041+004801061GA2061+024001041GF106991041990004801991991MA1999990100671REMSYN08241941 32450 60000 10242 20230 30067 40072 85420 333 56990 59020 70000 84616 86458=
