0172483040999992014010100004+19867+099767FM-12+040199999V0209999C00001000001CN000000199+01221+01201101841ADDAY141021AY241021GF109991999999999999999999KA1120N+01161MA1999990097021MD1210171-0131MW1471REMSYN07048304 31/00 90000 10122 20120 39702 40184 52017 74744 333 20116 59013=
0153483040999992014010103004+19867+099767FM-12+040199999V0209999C00001000001CN000000199+01471+01451101981ADDAY141021AY241021GF109991999999999999999999MA1999990097201MD1210171-0201MW1471REMSYN06448304 31/00 90000 10147 20145 39720 40198 52017 74744 333 59020=
0153483040999992014010106004+19867+099767FM-12+040199999V0209999C000019999999N010000199+02211+01581101501ADDAY141021AY241021GF100995999999999999999999MA1999990096861MD1710341-0261MW1011REMSYN06448304 31960 00000 10221 20158 39686 40150 57034 70144 333 59026=
0125483040999992014010109004+19867+099767FM-12+040199999V0201501N001019999999N015000199+02481+01421101221ADDGF100995999999999999999999MA1999990096631MD1710231-0211REMSYN05848304 32965 01502 10248 20142 39663 40122 57023 333 59021=
0131483040999992014010112004+19867+099767FM-12+040199999V0209999C000019999999N012000199+01821+01511101391ADDGF100995999999999999999999MA1999990096691MD1210061-0211REMSYN06448304 32962 00000 10182 20151 39669 40139 52006 333 10248 59021=
0125483040999992014010115004+19867+099767FM-12+040199999V0209999C000019999999N010000199+01521+01361101561ADDGF100995999999999999999999MA1999990096811MD1210111-0211REMSYN05848304 32960 00000 10152 20136 39681 40156 52011 333 59021=
0125483040999992014010118004+19867+099767FM-12+040199999V0209999C000019999999N010000199+01351+01261101591ADDGF100995999999999999999999MA1999990096811MD1900011-0161REMSYN05848304 32960 00000 10135 20126 39681 40159 50001 333 59016=
0153483040999992014010121004+19867+099767FM-12+040199999V0209999C000019999999N002000199+01351+01291101501ADDAY101021AY201021GF100995999999999999999999MA1999990096721MD1710091-0141MW1101REMSYN06448304 31920 00000 10135 20129 39672 40150 57009 71000 333 59014=
0172483040999992014010200004+19867+099767FM-12+040199999V0209999C00001000001CN000000199+01471+01451101571ADDAY141021AY241021GF109991999999999999999999KA1120N+01201MA1999990096811MD1210091-0261MW1471REMSYN07048304 31/00 90000 10147 20145 39681 40157 52009 74744 333 20120 59026=
0153483040999992014010203004+19867+099767FM-12+040199999V0209999C00001000301CN000100199+01611+01581101751ADDAY141021AY241021GF109991999999999999999999MA1999990097001MD1210191-0231MW1471REMSYN06448304 31/01 90000 10161 20158 39700 40175 52019 74744 333 59023=
0153483040999992014010206004+19867+099767FM-12+040199999V0209999C000019999999N010000199+02131+01741101391ADDAY141021AY241021GF100995999999999999999999MA1999990096741MD1710261-0111MW1011REMSYN06448304 31960 00000 10213 20174 39674 40139 57026 70144 333 59011=
0125483040999992014010209004+19867+099767FM-12+040199999V0209999C000019999999N015000199+02601+01621101071ADDGF100995999999999999999999MA1999990096511MD1710241-0151REMSYN05848304 32965 00000 10260 20162 39651 40107 57024 333 59015=
0131483040999992014010212004+19867+099767FM-12+040199999V0209999C000019999999N012000199+01921+01621101281ADDGF100995999999999999999999MA1999990096611MD1210101-0101REMSYN06448304 32962 00000 10192 20162 39661 40128 52010 333 10265 59010=
0153483040999992014010215004+19867+099767FM-12+040199999V0209999C000019999999N008000199+01741+01601101481ADDAY101021AY201021GF100995999999999999999999MA1999990096771MD1210161-0081MW1101REMSYN06448304 31958 00000 10174 20160 39677 40148 52016 71000 333 59008=
0153483040999992014010218004+19867+099767FM-12+040199999V0209999C000019999999N006000199+01611+01511101511ADDAY101021AY201021GF100995999999999999999999MA1999990096771MD1410001-0091MW1101REMSYN06448304 31956 00000 10161 20151 39677 40151 54000 71000 333 59009=
0153483040999992014010221004+19867+099767FM-12+040199999V0209999C000019999999N000800199+01551+01511101451ADDAY101021AY201021GF100995999999999999999999MA1999990096711MD1710061-0051MW1461REMSYN06448304 31908 00000 10155 20151 39671 40145 57006 74600 333 59005=
0172483040999992014010300004+19867+099767FM-12+040199999V0209999C00001000001CN000000199+01571+01551101541ADDAY141021AY241021GF109991999999999999999999KA1120N+01521MA1999990096801MD1210091-0031MW1471REMSYN07048304 31/00 90000 10157 20155 39680 40154 52009 74744 333 20152 59003=
0153483040999992014010303004+19867+099767FM-12+040199999V0209999C00001000301CN000100199+01751+01731101761ADDAY141021AY241021GF109991999999999999999999MA1999990097041MD1210241+0021MW1471REMSYN06448304 31/01 90000 10175 20173 39704 40176 52024 74744 333 58002=
0153483040999992014010306004+19867+099767FM-12+040199999V0209999C000019999999N012000199+02411+01911101321ADDAY141021AY241021GF100995999999999999999999MA1999990096711MD1710321-0081MW1101REMSYN06448304 31962 00000 10241 20191 39671 40132 57032 71044 333 59008=
0125483040999992014010309004+19867+099767FM-12+040199999V0209999C000019999999N012000199+02691+01881101031ADDGF100995999999999999999999MA1999990096481MD1710231-0041REMSYN05848304 32962 00000 10269 20188 39648 40103 57023 333 59004=
0131483040999992014010312004+19867+099767FM-12+040199999V0209999C000019999999N010000199+02031+01771101231ADDGF100995999999999999999999MA1999990096571MD1110091-0051REMSYN06448304 32960 00000 10203 20177 39657 40123 51009 333 10270 59005=
0153483040999992014010315004+19867+099767FM-12+040199999V0209999C000019999999N008000199+01851+01721101431ADDAY101021AY201021GF100995999999999999999999MA1999990096741MD1210161-0051MW1101REMSYN06448304 31958 00000 10185 20172 39674 40143 52016 71000 333 59005=
0153483040999992014010318004+19867+099767FM-12+040199999V0209999C000019999999N006000199+01681+01591101471ADDAY101021AY201021GF100995999999999999999999MA1999990096751MD1110011-0041MW1101REMSYN06448304 31956 00000 10168 20159 39675 40147 51001 71000 333 59004=
0153483040999992014010321004+19867+099767FM-12+040199999V0209999C00001002401CN000700199+01601+01561101421ADDAY141021AY201021GF109991999999999999999999MA1999990096691MD1710061-0031MW1471REMSYN06448304 31/07 90000 10160 20156 39669 40142 57006 74740 333 59003=
0172483040999992014010400004+19867+099767FM-12+040199999V0209999C00001000001CN000000199+01621+01601101551ADDAY141021AY241021GF109991999999999999999999KA1120N+01561MA1999990096811MD1210121+0001MW1471REMSYN07048304 31/00 90000 10162 20160 39681 40155 52012 74744 333 20156 58000=
0153483040999992014010403004+19867+099767FM-12+040199999V0209999C00001002401CN000800199+01851+01781101731ADDAY141021AY241021GF109991999999999999999999MA1999990097031MD1210211-0031MW1471REMSYN06448304 31/08 90000 10185 20178 39703 40173 52021 74744 333 59003=
0153483040999992014010406004+19867+099767FM-12+040199999V0209999C000019999999N012000199+02421+01921101311ADDAY141021AY241021GF100995999999999999999999MA1999990096711MD1710311+0001MW1011REMSYN06448304 31962 00000 10242 20192 39671 40131 57031 70144 333 58000=
0125483040999992014010409004+19867+099767FM-12+040199999V0201301N001519999999N015000199+02631+01921101081ADDGF100995999999999999999999MA1999990096521MD1710191+0051REMSYN05848304 32965 01303 10263 20192 39652 40108 57019 333 58005=
0131483040999992014010412004+19867+099767FM-12+040199999V0209999C000019999999N010000199+02141+01951101221ADDGF100995999999999999999999MA1999990096581MD1110061-0011REMSYN06448304 32960 00000 10214 20195 39658 40122 51006 333 10267 59001=
0153483040999992014010415004+19867+099767FM-12+040199999V0209999C000019999999N008000199+01701+01601101341ADDAY101021AY201021GF100995999999999999999999MA1999990096621MD1210051-0101MW1101REMSYN06448304 31958 00000 10170 20160 39662 40134 52005 71000 333 59010=
0153483040999992014010418004+19867+099767FM-12+040199999V0209999C000019999999N004000199+01661+01591101311ADDAY101021AY201021GF100995999999999999999999MA1999990096591MD1710031-0161MW1101REMSYN06448304 31940 00000 10166 20159 39659 40131 57003 71000 333 59016=
0153483040999992014010421004+19867+099767FM-12+040199999V0209999C00001000001CN000000199+01611+01581101251ADDAY141021AY241021GF109991999999999999999999MA1999990096531MD1710061-0171MW1471REMSYN06448304 31/00 90000 10161 20158 39653 40125 57006 74744 333 59017=
0172483040999992014010500004+19867+099767FM-12+040199999V0209999C00001000001CN000000199+01681+01661101381ADDAY141021AY241021GF109991999999999999999999KA1120N+01541MA1999990096661MD1210131-0171MW1471REMSYN07048304 31/00 90000 10168 20166 39666 40138 52013 74744 333 20154 59017=
0153483040999992014010503004+19867+099767FM-12+040199999V0209999C00001000601CN000300199+01921+01861101491ADDAY141021AY241021GF109991999999999999999999MA1999990096801MD1210141-0251MW1471REMSYN06448304 31/03 90000 10192 20186 39680 40149 52014 74744 333 59025=
0175483040999992014010506004+19867+099767FM-12+040199999V0209999C000019999999N015000199+02551+02061101131ADDAY141021AY241021GA1021+999991061GF102991021990999999991991MA1999990096561MD1710241-0181MW1031REMSYN07048304 31665 20000 10255 20206 39656 40113 57024 70344 82500 333 59018=
0147483040999992014010509004+19867+099767FM-12+040199999V0201701N001519999999N015000199+02711+01801100741ADDGA1021+999991061GF102991021990999999991991MA1999990096211MD1710351-0331REMSYN06448304 32665 21703 10271 20180 39621 40074 57035 82500 333 59033=
0131483040999992014010512004+19867+099767FM-12+040199999V0209999C000019999999N012000199+02201+01821100881ADDGF100995999999999999999999MA1999990096261MD1210051-0341REMSYN06448304 32962 00000 10220 20182 39626 40088 52005 333 10273 59034=
0125483040999992014010515004+19867+099767FM-12+040199999V0209999C000019999999N010000199+01861+01731101061ADDGF100995999999999999999999MA1999990096391MD1210131-0271REMSYN05848304 32960 00000 10186 20173 39639 40106 52013 333 59027=
0153483040999992014010518004+19867+099767FM-12+040199999V0209999C000019999999N003000199+01721+01641101051ADDAY101021AY201021GF100995999999999999999999MA1999990096361MD1710031-0251MW1101REMSYN06448304 31930 00000 10172 20164 39636 40105 57003 71000 333 59025=
0153483040999992014010521004+19867+099767FM-12+040199999V0209999C000019999999N002000199+01571+01531101041ADDAY101021AY201021GF100995999999999999999999MA1999990096321MD1710041-0211MW1101REMSYN06448304 31920 00000 10157 20153 39632 40104 57004 71000 333 59021=
0172483040999992014010600004+19867+099767FM-12+040199999V0209999C00001000001CN000000199+01521+01501101291ADDAY141021AY241021GF109991999999999999999999KA1120N+01451MA1999990096551MD1210231-0091MW1471REMSYN07048304 31/00 90000 10152 20150 39655 40129 52023 74744 333 20145 59009=
0153483040999992014010603004+19867+099767FM-12+040199999V0209999C000019999999N002000199+02131+01921101381ADDAY141021AY201021GF100995999999999999999999MA1999990096731MD1210181-0111MW1101REMSYN06448304 31920 00000 10213 20192 39673 40138 52018 71040 333 59011=
0175483040999992014010606004+19867+099767FM-12+040199999V0201801N002119999999N015000199+02701+01691100991ADDAY141021AY201021GA1021+999991061GF102991021990999999991991MA1999990096441MD1710281-0141MW1031REMSYN07048304 31665 21804 10270 20169 39644 40099 57028 70340 82500 333 59014=
0125483040999992014010609004+19867+099767FM-12+040199999V0201301N001019999999N015000199+02871+01731100811ADDGF100995999999999999999999MA1999990096301MD1710141+0071REMSYN05848304 32965 01302 10287 20173 39630 40081 57014 333 58007=
0131483040999992014010612004+19867+099767FM-12+040199999V0209999C000019999999N015000199+02251+01711101001ADDGF100995999999999999999999MA1999990096391MD1210091+0131REMSYN06448304 32965 00000 10225 20171 39639 40100 52009 333 10300 58013=
0125483040999992014010615004+19867+099767FM-12+040199999V0209999C000019999999N010000199+01891+01601101181ADDGF100995999999999999999999MA1999990096501MD1210111+0111REMSYN05848304 32960 00000 10189 20160 39650 40118 52011 333 58011=
0207483040999992014010618004+19867+099767FM-12+040199999V0209999C000019999999N008000199+01721+01581101241ADDAY111021AY201021GA1041+999991061GA2991+999991021GA3991+999991051GF105991041990999999991991MA1999990096531MD1110031+0181MW1101REMSYN07048304 31658 50000 10172 20158 39653 40124 51003 71010 84526 333 58018=
0207483040999992014010621004+19867+099767FM-12+040199999V0209999C000019999999N007000199+01661+01561101151ADDAY121021AY221021GA1031+999991061GA2991+999991021GA3991+999991051GF106991031990999999991991MA1999990096441MD1710091+0111MW1101REMSYN07048304 31557 60000 10166 20156 39644 40115 57009 71022 83526 333 58011=
0226483040999992014010700004+19867+099767FM-12+040199999V0209999C000019999999N007000199+01571+01481101261ADDAY121021AY211021GA1021+999991061GA2991+999991021GA3991+999991031GF102991021990999999991991KA1120N+01511MA1999990096531MD1210091-0031MW1101REMSYN07648304 31657 20000 10157 20148 39653 40126 52009 71021 82545 333 20151 59003=
0125483040999992014010703004+19867+099767FM-12+040199999V0201401N001519999999N012000199+02141+01701101451ADDGF100995999999999999999999MA1999990096801MD1210271+0081REMSYN05848304 32962 01403 10214 20170 39680 40145 52027 333 58008=
0147483040999992014010706004+19867+099767FM-12+040199999V0201201N002619999999N015000199+02711+01761101051ADDGA1011+999991081GF101991011990999999991991MA1999990096511MD1710301+0061REMSYN06448304 32565 11205 10271 20176 39651 40105 57030 81200 333 58006=
0147483040999992014010709004+19867+099767FM-12+040199999V0201601N001019999999N015000199+02851+01851100881ADDGA1011+999991081GF101991011990999999991991MA1999990096361MD1710151+0061REMSYN06448304 32665 11602 10285 20185 39636 40088 57015 81100 333 58006=
0131483040999992014010712004+19867+099767FM-12+040199999V0209999C000019999999N012000199+02281+01951101131ADDGF100995999999999999999999MA1999990096521MD1210161+0131REMSYN06448304 32962 00000 10228 20195 39652 40113 52016 333 10288 58013=
0125483040999992014010715004+19867+099767FM-12+040199999V0209999C000019999999N010000199+01901+01751101431ADDGF100995999999999999999999MA1999990096751MD1210231+0251REMSYN05848304 32960 00000 10190 20175 39675 40143 52023 333 58025=
0153483040999992014010718004+19867+099767FM-12+040199999V0209999C000019999999N008000199+01691+01591101451ADDAY101021AY201021GF100995999999999999999999MA1999990096731MD1610021+0211MW1101REMSYN06448304 31958 00000 10169 20159 39673 40145 56002 71000 333 58021=
0153483040999992014010721004+19867+099767FM-12+040199999V0209999C000019999999N007000199+01581+01491101411ADDAY101021AY201021GF100995999999999999999999MA1999990096681MD1610051+0261MW1101REMSYN06448304 31957 00000 10158 20149 39668 40141 56005 71000 333 58026=
0172483040999992014010800004+19867+099767FM-12+040199999V0209999C00001000001CN000000199+01511+01471101521ADDAY141021AY201021GF109991999999999999999999KA1120N+01501MA1999990096771MD1210091+0261MW1471REMSYN07048304 31/00 90000 10151 20147 39677 40152 52009 74740 333 20150 58026=
0153483040999992014010803004+19867+099767FM-12+040199999V0209999C000019999999N015000199+02051+01671101701ADDAY141021AY201021GF100995999999999999999999MA1999990097021MD1210251+0251MW1011REMSYN06448304 31965 00000 10205 20167 39702 40170 52025 70140 333 58025=
0175483040999992014010806004+19867+099767FM-12+040199999V0201001N001019999999N015000199+02561+01591101301ADDAY141021AY201021GA1011+999991081GF101991011990999999991991MA1999990096721MD1710311+0251MW1031REMSYN07048304 31665 11002 10256 20159 39672 40130 57031 70340 81100 333 58025=
0125483040999992014010809004+19867+099767FM-12+040199999V0209999C000019999999N015000199+02801+01681101041ADDGF100995999999999999999999MA1999990096511MD1710211+0161REMSYN05848304 32965 00000 10280 20168 39651 40104 57021 333 58016=
0131483040999992014010812004+19867+099767FM-12+040199999V0209999C000019999999N012000199+02161+01771101211ADDGF100995999999999999999999MA1999990096571MD1110071+0081REMSYN06448304 32962 00000 10216 20177 39657 40121 51007 333 10281 58008=
0125483040999992014010815004+19867+099767FM-12+040199999V0209999C000019999999N010000199+01801+01631101421ADDGF100995999999999999999999MA1999990096721MD1210151-0011REMSYN05848304 32960 00000 10180 20163 39672 40142 52015 333 59001=
0153483040999992014010818004+19867+099767FM-12+040199999V0209999C000019999999N008000199+01701+01441101471ADDAY101021AY201021GF100995999999999999999999MA1999990096751MD1110031+0021MW1101REMSYN06448304 31958 00000 10170 20144 39675 40147 51003 71000 333 58002=
0153483040999992014010821004+19867+099767FM-12+040199999V0209999C000019999999N006000199+01491+01421101441ADDAY101021AY201021GF100995999999999999999999MA1999990096691MD1610061+0031MW1101REMSYN06448304 31956 00000 10149 20142 39669 40144 56006 71000 333 58003=
0172483040999992014010900004+19867+099767FM-12+040199999V0209999C00001000001CN000000199+01321+01281101571ADDAY141021AY201021GF109991999999999999999999KA1120N+01261MA1999990096791MD1210101+0051MW1471REMSYN07048304 31/00 90000 10132 20128 39679 40157 52010 74740 333 20126 58005=
0175483040999992014010903004+19867+099767FM-12+040199999V0209999C000019999999N010000199+01851+01681101741ADDAY141021AY241021GA1011+999991081GF101991011990999999991991MA1999990097031MD1210241+0041MW1011REMSYN07048304 31660 10000 10185 20168 39703 40174 52024 70144 81100 333 58004=
0175483040999992014010906004+19867+099767FM-12+040199999V0200201N001519999999N015000199+02521+01681101301ADDAY141021AY201021GA1011+999991081GF101991011990999999991991MA1999990096721MD1710311+0011MW1021REMSYN07048304 31665 10203 10252 20168 39672 40130 57031 70240 81100 333 58001=
0125483040999992014010909004+19867+099767FM-12+040199999V0209999C000019999999N015000199+02781+01731101021ADDGF100995999999999999999999MA1999990096491MD1710231-0021REMSYN05848304 32965 00000 10278 20173 39649 40102 57023 333 59002=
0131483040999992014010912004+19867+099767FM-12+040199999V0209999C000019999999N012000199+02211+01941101201ADDGF100995999999999999999999MA1999990096571MD1210091-0011REMSYN06448304 32962 00000 10221 20194 39657 40120 52009 333 10280 59001=
0125483040999992014010915004+19867+099767FM-12+040199999V0209999C000019999999N012000199+01661+01521101471ADDGF100995999999999999999999MA1999990096741MD1210171+0051REMSYN05848304 32962 00000 10166 20152 39674 40147 52017 333 58005=
0153483040999992014010918004+19867+099767FM-12+040199999V0209999C000019999999N006000199+01551+01461101521ADDAY101021AY201021GF100995999999999999999999MA1999990096781MD1900031+0061MW1101REMSYN06448304 31956 00000 10155 20146 39678 40152 50003 71000 333 58006=
0153483040999992014010921004+19867+099767FM-12+040199999V0209999C000019999999N004000199+01451+01401101461ADDAY101021AY201021GF100995999999999999999999MA1999990096701MD1710071+0021MW1101REMSYN06448304 31940 00000 10145 20140 39670 40146 57007 71000 333 58002=
0172483040999992014011000004+19867+099767FM-12+040199999V0209999C00001000001CN000000199+01461+01441101641ADDAY141021AY241021GF109991999999999999999999KA1120N+01351MA1999990096871MD1210171+0061MW1471REMSYN07048304 31/00 90000 10146 20144 39687 40164 52017 74744 333 20135 58006=
0153483040999992014011003004+19867+099767FM-12+040199999V0209999C000019999999N002000199+01951+01751101861ADDAY141021AY201021GF100995999999999999999999MA1999990097171MD1210291+0131MW1101REMSYN06448304 31920 00000 10195 20175 39717 40186 52029 71040 333 58013=
0175483040999992014011006004+19867+099767FM-12+040199999V0209999C000019999999N012000199+02601+01901101461ADDAY141021AY201021GA1021+999991061GF102991021990999999991991MA1999990096881MD1710291+0161MW1031REMSYN07048304 31662 20000 10260 20190 39688 40146 57029 70340 82500 333 58016=
0147483040999992014011009004+19867+099767FM-12+040199999V0209999C000019999999N015000199+02831+01851101171ADDGA1021+999991061GF102991021990999999991991MA1999990096641MD1710241+0151REMSYN06448304 32665 20000 10283 20185 39664 40117 57024 82500 333 58015=
0153483040999992014011012004+19867+099767FM-12+040199999V0209999C000019999999N012000199+02161+01841101351ADDGA1021+999991061GF102991021990999999991991MA1999990096711MD1210071+0151REMSYN07048304 32662 20000 10216 20184 39671 40135 52007 82500 333 10287 58015=
0125483040999992014011015004+19867+099767FM-12+040199999V0209999C000019999999N010000199+01801+01631101601ADDGF100995999999999999999999MA1999990096891MD1210191+0131REMSYN05848304 32960 00000 10180 20163 39689 40160 52019 333 58013=
0153483040999992014011018004+19867+099767FM-12+040199999V0209999C000019999999N006000199+01651+01561101661ADDAY101021AY201021GF100995999999999999999999MA1999990096921MD1900031+0141MW1101REMSYN06448304 31956 00000 10165 20156 39692 40166 50003 71000 333 58014=
0153483040999992014011021004+19867+099767FM-12+040199999V0209999C000019999999N002000199+01601+01531101661ADDAY101021AY201021GF100995999999999999999999MA1999990096911MD1710011+0191MW1101REMSYN06448304 31920 00000 10160 20153 39691 40166 57001 71000 333 58019=
0172483040999992014011100004+19867+099767FM-12+040199999V0209999C00001000001CN000000199+01751+01731101801ADDAY141021AY241021GF109991999999999999999999KA1120N+01531MA1999990097081MD1210161+0171MW1471REMSYN07048304 31/00 90000 10175 20173 39708 40180 52016 74744 333 20153 58017=
0153483040999992014011103004+19867+099767FM-12+040199999V0209999C00001000001CN000000199+01861+01811101961ADDAY141021AY241021GF109991999999999999999999MA1999990097241MD1210171+0101MW1471REMSYN06448304 31/00 90000 10186 20181 39724 40196 52017 74744 333 58010=
0153483040999992014011106004+19867+099767FM-12+040199999V0209999C000019999999N015000199+02601+01811101561ADDAY141021AY241021GF100995999999999999999999MA1999990096971MD1710271+0091MW1011REMSYN06448304 31965 00000 10260 20181 39697 40156 57027 70144 333 58009=
0125483040999992014011109004+19867+099767FM-12+040199999V0209999C000019999999N015000199+02861+01831101301ADDGF100995999999999999999999MA1999990096771MD1710201+0131REMSYN05848304 32965 00000 10286 20183 39677 40130 57020 333 58013=
0131483040999992014011112004+19867+099767FM-12+040199999V0209999C000019999999N012000199+02101+01651101471ADDGF100995999999999999999999MA1999990096821MD1210051+0131REMSYN06448304 32962 00000 10210 20165 39682 40147 52005 333 10288 58013=
0125483040999992014011115004+19867+099767FM-12+040199999V0209999C000019999999N012000199+01701+01491101721ADDGF100995999999999999999999MA1999990096991MD1210171+0121REMSYN05848304 32962 00000 10170 20149 39699 40172 52017 333 58012=
0153483040999992014011118004+19867+099767FM-12+040199999V0209999C000019999999N006000199+01531+01441101751ADDAY101021AY201021GF100995999999999999999999MA1999990096991MD1410001+0091MW1101REMSYN06448304 31956 00000 10153 20144 39699 40175 54000 71000 333 58009=
0153483040999992014011121004+19867+099767FM-12+040199999V0209999C000019999999N002000199+01471+01421101691ADDAY101021AY201021GF100995999999999999999999MA1999990096931MD1710061+0041MW1101REMSYN06448304 31920 00000 10147 20142 39693 40169 57006 71000 333 58004=
0172483040999992014011200004+19867+099767FM-12+040199999V0209999C00001000001CN000000199+01441+01421101941ADDAY141021AY241021GF109991999999999999999999KA1120N+01391MA1999990097161MD1210241+0141MW1471REMSYN07048304 31/00 90000 10144 20142 39716 40194 52024 74744 333 20139 58014=
0175483040999992014011203004+19867+099767FM-12+040199999V0209999C000019999999N004000199+01851+01681102021ADDAY141021AY201021GA1021+999991061GF102991021990999999991991MA1999990097301MD1210141+0061MW1101REMSYN07048304 31640 20000 10185 20168 39730 40202 52014 71040 82500 333 58006=
0175483040999992014011206004+19867+099767FM-12+040199999V0202101N003119999999N015000199+02591+01831101641ADDAY141021AY201021GA1011+999991081GF101991011990999999991991MA1999990097051MD1710251+0091MW1011REMSYN07048304 31665 12106 10259 20183 39705 40164 57025 70140 81100 333 58009=
0147483040999992014011209004+19867+099767FM-12+040199999V0201501N001019999999N015000199+02831+01501101281ADDGA1011+999991081GF101991011990999999991991MA1999990096741MD1710311-0021REMSYN06448304 32665 11502 10283 20150 39674 40128 57031 81100 333 59002=
0131483040999992014011212004+19867+099767FM-12+040199999V0209999C000019999999N012000199+02001+01491101451ADDGF100995999999999999999999MA1999990096771MD1210031-0031REMSYN06448304 32962 00000 10200 20149 39677 40145 52003 333 10283 59003=
0125483040999992014011215004+19867+099767FM-12+040199999V0209999C000019999999N010000199+01721+01531101691ADDGF100995999999999999999999MA1999990096961MD1210191-0041REMSYN05848304 32960 00000 10172 20153 39696 40169 52019 333 59004=
0153483040999992014011218004+19867+099767FM-12+040199999V0209999C000019999999N008000199+01551+01441101731ADDAY101021AY201021GF100995999999999999999999MA1999990096971MD1110011-0021MW1101REMSYN06448304 31958 00000 10155 20144 39697 40173 51001 71000 333 59002=
0153483040999992014011221004+19867+099767FM-12+040199999V0209999C000019999999N006000199+01451+01381101641ADDAY101021AY201021GF100995999999999999999999MA1999990096881MD1710101-0051MW1101REMSYN06448304 31956 00000 10145 20138 39688 40164 57010 71000 333 59005=
0194483040999992014011300004+19867+099767FM-12+040199999V0209999C000019999999N006000199+01371+01301101791ADDAY101021AY201021GA1031+999991081GF103991031990999999991991KA1120N+01311MA1999990097001MD1210131-0151MW1101REMSYN07648304 31556 30000 10137 20130 39700 40179 52013 71000 83800 333 20131 59015=
0147483040999992014011303004+19867+099767FM-12+040199999V0209999C000019999999N012000199+01991+01691101941ADDGA1021+999991081GF102991021990999999991991MA1999990097241MD1210241-0081REMSYN06448304 32562 20000 10199 20169 39724 40194 52024 82800 333 59008=
0147483040999992014011306004+19867+099767FM-12+040199999V0209999C000019999999N015000199+02511+01651101461ADDGA1011+999991081GF101991011990999999991991MA1999990096871MD1710371-0181REMSYN06448304 32665 10000 10251 20165 39687 40146 57037 81100 333 59018=
0147483040999992014011309004+19867+099767FM-12+040199999V0209999C000019999999N015000199+02701+01671101221ADDGA1011+999991081GF101991011990999999991991MA1999990096661MD1710201-0061REMSYN06448304 32665 10000 10270 20167 39666 40122 57020 81100 333 59006=
0131483040999992014011312004+19867+099767FM-12+040199999V0209999C000019999999N012000199+02111+01801101401ADDGF100995999999999999999999MA1999990096751MD1110081-0051REMSYN06448304 32962 00000 10211 20180 39675 40140 51008 333 10272 59005=
0125483040999992014011315004+19867+099767FM-12+040199999V0209999C000019999999N010000199+01701+01581101591ADDGF100995999999999999999999MA1999990096861MD1110121-0101REMSYN05848304 32960 00000 10170 20158 39686 40159 51012 333 59010=
0207483040999992014011318004+19867+099767FM-12+040199999V0209999C000019999999N008000199+01601+01501101711ADDAY111021AY201021GA1021+999991061GA2991+999991021GA3991+999991031GF104991021990999999991991MA1999990096961MD1210101-0021MW1101REMSYN07048304 31658 40000 10160 20150 39696 40171 52010 71010 82546 333 59002=
0207483040999992014011321004+19867+099767FM-12+040199999V0209999C000019999999N007000199+01601+01551101661ADDAY111021AY211021GA1031+999991061GA2991+999991021GA3991+999991031GF105991031990999999991991MA1999990096921MD1710041+0021MW1101REMSYN07048304 31657 50000 10160 20155 39692 40166 57004 71011 83546 333 58002=
0226483040999992014011400004+19867+099767FM-12+040199999V0209999C000019999999N007000199+01541+01491101771ADDAY121021AY211021GA1021+999991061GA2991+999991021GA3991+999991031GF106991021990999999991991KA1120N+01491MA1999990097011MD1210091-0021MW1101REMSYN07648304 31657 60000 10154 20149 39701 40177 52009 71021 82546 333 20149 59002=
0179483040999992014011403004+19867+099767FM-12+040199999V0209999C000019999999N012000199+01941+01711102031ADDGA1021+999991061GA2991+999991021GA3991+999991031GF106991021990999999991991MA1999990097321MD1210311+0091REMSYN06448304 32662 60000 10194 20171 39732 40203 52031 82546 333 58009=
0147483040999992014011406004+19867+099767FM-12+040199999V0201501N001519999999N015000199+02361+01681101711ADDGA1031+999991081GF103991031990999999991991MA1999990097081MD1710241+0251REMSYN06448304 32565 31503 10236 20168 39708 40171 57024 83800 333 58025=
0179483040999992014011409004+19867+099767FM-12+040199999V0209999C000019999999N015000199+02341+01601101511ADDGA1021+999991081GA2991+999991021GA3991+999991031GF106991021990999999991991MA1999990096891MD1710201+0291REMSYN06448304 32565 60000 10234 20160 39689 40151 57020 82846 333 58029=
0153483040999992014011412004+19867+099767FM-12+040199999V0209999C000019999999N012000199+02011+01611101671ADDGA1021+999991061GF102991021990999999991991MA1999990096991MD1210111+0271REMSYN07048304 32662 20000 10201 20161 39699 40167 52011 82500 333 10250 58027=
0147483040999992014011415004+19867+099767FM-12+040199999V0209999C000019999999N012000199+01681+01471101861ADDGA1061+999991031GF106991061990999999991991MA1999990097121MD1210121+0271REMSYN06448304 32962 60000 10168 20147 39712 40186 52012 86050 333 58027=
0147483040999992014011418004+19867+099767FM-12+040199999V0209999C000019999999N010000199+01581+01471101821ADDGA1031+999991031GF103991031990999999991991MA1999990097071MD1710051+0111REMSYN06448304 32960 30000 10158 20147 39707 40182 57005 83040 333 58011=
0179483040999992014011421004+19867+099767FM-12+040199999V0209999C000019999999N010000199+01651+01561101801ADDGA1021+999991061GA2991+999991021GA3991+999991031GF108991021990999999991991MA1999990097061MD1710011+0131REMSYN06448304 32660 80000 10165 20156 39706 40180 57001 82576 333 58013=
0226483040999992014011500004+19867+099767FM-12+040199999V0209999C000019999999N002000199+01601+01551101931ADDAY121021AY221021GA1031+999991061GA2991+999991021GA3991+999991031GF108991031990999999991991KA1120N+01501MA1999990097171MD1210121+0151MW1101REMSYN07648304 31620 80000 10160 20155 39717 40193 52012 71022 83557 333 20150 58015=
0179483040999992014011503004+19867+099767FM-12+040199999V0209999C000019999999N012000199+01851+01401102141ADDGA1021+999991061GA2991+999991021GA3991+999991031GF108991021990999999991991MA1999990097421MD1210251+0121REMSYN06448304 32662 80000 10185 20140 39742 40214 52025 82557 333 58012=
0147483040999992014011506004+19867+099767FM-12+040199999V0209999C000019999999N015000199+02171+01361101801ADDGA1051+999991031GF105991051990999999991991MA1999990097141MD1710281+0091REMSYN06448304 32965 50000 10217 20136 39714 40180 57028 85050 333 58009=
0125483040999992014011509004+19867+099767FM-12+040199999V0209999C000019999999N015000199+02451+01441101501ADDGF100995999999999999999999MA1999990096891MD1710251-0011REMSYN05848304 32965 00000 10245 20144 39689 40150 57025 333 59001=
0131483040999992014011512004+19867+099767FM-12+040199999V0209999C000019999999N015000199+01861+01461101601ADDGF100995999999999999999999MA1999990096901MD1210011-0081REMSYN06448304 32965 00000 10186 20146 39690 40160 52001 333 10250 59008=
0125483040999992014011515004+19867+099767FM-12+040199999V0209999C000019999999N012000199+01461+01301101821ADDGF100995999999999999999999MA1999990097041MD1210141-0041REMSYN05848304 32962 00000 10146 20130 39704 40182 52014 333 59004=
0153483040999992014011518004+19867+099767FM-12+040199999V0209999C000019999999N004000199+01321+01231101821ADDAY101021AY201021GF100995999999999999999999MA1999990097021MD1610021+0001MW1041REMSYN06448304 31940 00000 10132 20123 39702 40182 56002 70400 333 58000=
0153483040999992014011521004+19867+099767FM-12+040199999V0209999C000019999999N002000199+01241+01161101771ADDAY101021AY201021GF100995999999999999999999MA1999990096961MD1710071-0031MW1101REMSYN06448304 31920 00000 10124 20116 39696 40177 57007 71000 333 59003=
0172483040999992014011600004+19867+099767FM-12+040199999V0209999C00001000001CN000000199+01211+01191101971ADDAY141021AY241021GF109991999999999999999999KA1120N+01131MA1999990097151MD1210191+0051MW1471REMSYN07048304 31/00 90000 10121 20119 39715 40197 52019 74744 333 20113 58005=
0153483040999992014011603004+19867+099767FM-12+040199999V0209999C000019999999N002000199+01621+01521102161ADDAY141021AY201021GF100995999999999999999999MA1999990097391MD1210241+0011MW1101REMSYN06448304 31920 00000 10162 20152 39739 40216 52024 71040 333 58001=
0191483040999992014011606004+19867+099767FM-12+040199999V0209999C000019999999N012000199+02231+01661101771ADDAY141021AY201021GA1991+999991031GA2021+999991061GF106991990990999999991991MA1999990097121MD1710271-0031MW1031REMSYN07048304 31662 60000 10223 20166 39712 40177 57027 70340 82550 333 59003=
0147483040999992014011609004+19867+099767FM-12+040199999V0201201N001519999999N015000199+02401+01501101531ADDGA1051+999991031GF105991051990999999991991MA1999990096921MD1710201+0041REMSYN06448304 32965 51203 10240 20150 39692 40153 57020 85050 333 58004=
0153483040999992014011612004+19867+099767FM-12+040199999V0209999C000019999999N012000199+01891+01511101681ADDGA1041+999991031GF104991041990999999991991MA1999990096981MD1210061+0081REMSYN07048304 32962 40000 10189 20151 39698 40168 52006 84050 333 10245 58008=
0125483040999992014011615004+19867+099767FM-12+040199999V0209999C000019999999N010000199+01661+01501101871ADDGF100995999999999999999999MA1999990097131MD1210151+0061REMSYN05848304 32960 00000 10166 20150 39713 40187 52015 333 58006=
0153483040999992014011618004+19867+099767FM-12+040199999V0209999C000019999999N008000199+01501+01431101881ADDAY111021AY201021GF100995999999999999999999MA1999990097111MD1610021+0061MW1101REMSYN06448304 31958 00000 10150 20143 39711 40188 56002 71010 333 58006=
0153483040999992014011621004+19867+099767FM-12+040199999V0209999C000019999999N006000199+01401+01341101851ADDAY101021AY201021GF100995999999999999999999MA1999990097061MD1610051+0081MW1101REMSYN06448304 31956 00000 10140 20134 39706 40185 56005 71000 333 58008=
0172483040999992014011700004+19867+099767FM-12+040199999V0209999C00001000001CN000000199+01351+01331101991ADDAY141021AY241021GF109991999999999999999999KA1120N+01221MA1999990097191MD1210131+0021MW1471REMSYN07048304 31/00 90000 10135 20133 39719 40199 52013 74744 333 20122 58002=
0153483040999992014011703004+19867+099767FM-12+040199999V0209999C00001000601CN000200199+01611+01581102211ADDAY141021AY241021GF109991999999999999999999MA1999990097441MD1210251+0061MW1471REMSYN06448304 31/02 90000 10161 20158 39744 40221 52025 74744 333 58006=
0175483040999992014011706004+19867+099767FM-12+040199999V0209999C000019999999N012000199+02301+01591101841ADDAY141021AY241021GA1021+999991081GF102991021990999999991991MA1999990097201MD1710251+0071MW1011REMSYN07048304 31662 20000 10230 20159 39720 40184 57025 70144 82200 333 58007=
0147483040999992014011709004+19867+099767FM-12+040199999V0209999C000019999999N015000199+02581+01481101531ADDGA1011+999991081GF101991011990999999991991MA1999990096951MD1710251+0001REMSYN06448304 32665 10000 10258 20148 39695 40153 57025 8110/ 333 58000=
0131483040999992014011712004+19867+099767FM-12+040199999V0209999C000019999999N012000199+02001+01741101701ADDGF100995999999999999999999MA1999990097021MD1110071+0021REMSYN06448304 32962 00000 10200 20174 39702 40170 51007 333 10260 58002=
0125483040999992014011715004+19867+099767FM-12+040199999V0209999C000019999999N010000199+01651+01491101941ADDGF100995999999999999999999MA1999990097191MD1210181+0071REMSYN05848304 32960 00000 10165 20149 39719 40194 52018 333 58007=
0153483040999992014011718004+19867+099767FM-12+040199999V0209999C000019999999N007000199+01571+01481102041ADDAY101021AY201021GF100995999999999999999999MA1999990097271MD1210081+0151MW1101REMSYN06448304 31957 00000 10157 20148 39727 40204 52008 71000 333 58015=
0153483040999992014011721004+19867+099767FM-12+040199999V0209999C000019999999N005000199+01441+01391102051ADDAY101021AY201021GF100995999999999999999999MA1999990097261MD1610011+0201MW1101REMSYN06448304 31950 00000 10144 20139 39726 40205 56001 71000 333 58020=
0210483040999992014011800004+19867+099767FM-12+040199999V0209999C000019999999N004000199+01261+01201102271ADDAY101021AY201021GA1991+999991031GA2011+999991061GF102991990990999999991991KA1120N+01211MA1999990097441MD1210181+0281MW1101REMSYN07648304 31640 20000 10126 20120 39744 40227 52018 71000 81540 333 20121 58028=
0147483040999992014011803004+19867+099767FM-12+040199999V0203601N004119999999N010000199+02001+01491102411ADDGA1021+999991031GF102991021990999999991991MA1999990097691MD1210251+0191REMSYN06448304 32960 23608 10200 20149 39769 40241 52025 82040 333 58019=
0147483040999992014011806004+19867+099767FM-12+040199999V0200501N003619999999N015000199+02351+01201102121ADDGA1011+999991081GF101991011990999999991991MA1999990097471MD1710221+0281REMSYN06448304 32565 10507 10235 20120 39747 40212 57022 81200 333 58028=
0147483040999992014011809004+19867+099767FM-12+040199999V0200401N005119999999N015000199+02401+01271101911ADDGA1021+999991081GF102991021990999999991991MA1999990097281MD1710191+0381REMSYN06448304 32565 20410 10240 20127 39728 40191 57019 82200 333 58038=
0185483040999992014011812004+19867+099767FM-12+040199999V0200301N002619999999N010000199+01891+01101102151ADDGA1021+999991061GA2991+999991021GA3991+999991031GF106991021990999999991991MA1999990097431MD1210151+0451REMSYN07048304 32660 60305 10189 20110 39743 40215 52015 82546 333 10241 58045=
0125483040999992014011815004+19867+099767FM-12+040199999V0200101N001019999999N010000199+01431+01051102391ADDGF100995999999999999999999MA1999990097591MD1210161+0451REMSYN05848304 32960 00102 10143 20105 39759 40239 52016 333 58045=
0153483040999992014011818004+19867+099767FM-12+040199999V0209999C000019999999N006000199+01161+01021102321ADDAY101021AY201021GF100995999999999999999999MA1999990097471MD1710121+0281MW1101REMSYN06448304 31956 00000 10116 20102 39747 40232 57012 71000 333 58028=
0153483040999992014011821004+19867+099767FM-12+040199999V0209999C000019999999N003000199+00981+00921102271ADDAY101021AY201021GF100995999999999999999999MA1999990097391MD1710081+0221MW1101REMSYN06448304 31930 00000 10098 20092 39739 40227 57008 71000 333 58022=
0172483040999992014011900004+19867+099767FM-12+040199999V0209999C00001000001CN000000199+00921+00881102431ADDAY141021AY241021GF109991999999999999999999KA1120N+00851MA1999990097541MD1210151+0161MW1471REMSYN07048304 31/00 90000 10092 20088 39754 40243 52015 74744 333 20085 58016=
0153483040999992014011903004+19867+099767FM-12+040199999V0209999C000019999999N002000199+01571+01201102531ADDAY141021AY201021GF100995999999999999999999MA1999990097741MD1210211+0131MW1101REMSYN06448304 31920 00000 10157 20120 39774 40253 52021 71040 333 58013=
0175483040999992014011906004+19867+099767FM-12+040199999V0200801N002619999999N015000199+02231+01001102111ADDAY141021AY201021GA1021+999991061GF102991021990999999991991MA1999990097441MD1710301-0011MW1031REMSYN07048304 31665 20805 10223 20100 39744 40211 57030 70340 82500 333 59001=
0125483040999992014011909004+19867+099767FM-12+040199999V0209999C000019999999N012000199+02301+01071101861ADDGF100995999999999999999999MA1999990097221MD1710221-0051REMSYN05848304 32962 00000 10230 20107 39722 40186 57022 333 59005=
0131483040999992014011912004+19867+099767FM-12+040199999V0209999C000019999999N010000199+01631+01131101951ADDGF100995999999999999999999MA1999990097201MD1510021-0201REMSYN06448304 32960 00000 10163 20113 39720 40195 55002 333 10235 59020=
0153483040999992014011915004+19867+099767FM-12+040199999V0209999C000019999999N006000199+01221+01061102161ADDAY101021AY201021GF100995999999999999999999MA1999990097331MD1210131-0231MW1101REMSYN06448304 31956 00000 10122 20106 39733 40216 52013 71000 333 59023=
0153483040999992014011918004+19867+099767FM-12+040199999V0209999C000019999999N004000199+01091+00991102171ADDAY101021AY201021GF100995999999999999999999MA1999990097321MD1710011-0141MW1101REMSYN06448304 31940 00000 10109 20099 39732 40217 57001 71000 333 59014=
0153483040999992014011921004+19867+099767FM-12+040199999V0209999C000019999999N002000199+01001+00941102121ADDAY101021AY201021GF100995999999999999999999MA1999990097261MD1710061-0151MW1101REMSYN06448304 31920 00000 10100 20094 39726 40212 57006 71000 333 59015=
0172483040999992014012000004+19867+099767FM-12+040199999V0209999C00001000001CN000000199+01021+00981102261ADDAY141021AY241021GF109991999999999999999999KA1120N+00901MA1999990097391MD1210131-0171MW1471REMSYN07048304 31/00 90000 10102 20098 39739 40226 52013 74744 333 20090 59017=
0153483040999992014012003004+19867+099767FM-12+040199999V0209999C000019999999N002000199+01551+01241102351ADDAY141021AY201021GF100995999999999999999999MA1999990097561MD1210171-0191MW1101REMSYN06448304 31920 00000 10155 20124 39756 40235 52017 71040 333 59019=
0153483040999992014012006004+19867+099767FM-12+040199999V0200501N001519999999N010000199+02201+01331101981ADDAY141021AY201021GF100995999999999999999999MA1999990097311MD1710251-0131MW1021REMSYN06448304 31960 00503 10220 20133 39731 40198 57025 70240 333 59013=
0147483040999992014012009004+19867+099767FM-12+040199999V0209999C000019999999N015000199+02401+01161101741ADDGA1021+999991061GF102991021990999999991991MA1999990097111MD1710201-0131REMSYN06448304 32665 20000 10240 20116 39711 40174 57020 82500 333 59013=
0131483040999992014012012004+19867+099767FM-12+040199999V0209999C000019999999N010000199+01701+01191101931ADDGF100995999999999999999999MA1999990097191MD1210071-0031REMSYN06448304 32960 00000 10170 20119 39719 40193 52007 333 10242 59003=
0153483040999992014012015004+19867+099767FM-12+040199999V0209999C000019999999N007000199+01531+01371102211ADDAY101021AY201021GF100995999999999999999999MA1999990097421MD1210241+0051MW1101REMSYN06448304 31957 00000 10153 20137 39742 40221 52024 71000 333 58005=
0207483040999992014012018004+19867+099767FM-12+040199999V0209999C000019999999N007000199+01651+01481102221ADDAY121021AY221021GA1061+999991061GA2991+999991021GA3991+999991031GF107991061990999999991991MA1999990097461MD1110041+0051MW1101REMSYN07048304 31657 70000 10165 20148 39746 40222 51004 71022 86546 333 58005=
0207483040999992014012021004+19867+099767FM-12+040199999V0200101N002619999999N005000199+01501+01361102211ADDAY121021AY201021GA1021+999991061GA2991+999991021GA3991+999991031GF102991021990999999991991MA1999990097421MD1710041+0081MW1101REMSYN07048304 31650 20105 10150 20136 39742 40221 57004 71020 82545 333 58008=
0172483040999992014012100004+19867+099767FM-12+040199999V0209999C000019999999N005000199+01301+01191102361ADDAY121021AY201021GF100995999999999999999999KA1120N+01291MA1999990097541MD1210111+0111MW1101REMSYN07048304 31950 00000 10130 20119 39754 40236 52011 71020 333 20129 58011=
0153483040999992014012103004+19867+099767FM-12+040199999V0200401N002119999999N006000199+01771+01021102511ADDAY101021AY201021GF100995999999999999999999MA1999990097751MD1210221+0161MW1051REMSYN06448304 31956 00404 10177 20102 39775 40251 52022 70500 333 58016=
0153483040999992014012106004+19867+099767FM-12+040199999V0200101N005719999999N007000199+02171+00961102161ADDAY101021AY201021GF100995999999999999999999MA1999990097481MD1710271+0191MW1051REMSYN06448304 31957 00111 10217 20096 39748 40216 57027 70500 333 58019=
0175483040999992014012109004+19867+099767FM-12+040199999V0200501N001019999999N007000199+02261+01041101881ADDAY101021AY201021GA1021+999991031GF102991021990999999991991MA1999990097231MD1710251+0141MW1051REMSYN07048304 31957 20502 10226 20104 39723 40188 57025 70500 82040 333 58014=
0159483040999992014012112004+19867+099767FM-12+040199999V0209999C000019999999N006000199+01711+01361102101ADDAY101021AY201021GF100995999999999999999999MA1999990097351MD1110121+0171MW1101REMSYN07048304 31956 00000 10171 20136 39735 40210 51012 71000 333 10230 58017=
0153483040999992014012115004+19867+099767FM-12+040199999V0209999C000019999999N005000199+01361+01211102291ADDAY101021AY201021GF100995999999999999999999MA1999990097481MD1210131+0081MW1101REMSYN06448304 31950 00000 10136 20121 39748 40229 52013 71000 333 58008=
0153483040999992014012118004+19867+099767FM-12+040199999V0209999C000019999999N004000199+01181+01101102311ADDAY101021AY201021GF100995999999999999999999MA1999990097471MD1410001+0091MW1101REMSYN06448304 31940 00000 10118 20110 39747 40231 54000 71000 333 58009=
0153483040999992014012121004+19867+099767FM-12+040199999V0209999C000019999999N003000199+01071+01011102291ADDAY101021AY201021GF100995999999999999999999MA1999990097431MD1610041+0081MW1101REMSYN06448304 31930 00000 10107 20101 39743 40229 56004 71000 333 58008=
0172483040999992014012200004+19867+099767FM-12+040199999V0209999C000019999999N003000199+00931+00911102341ADDAY101021AY201021GF100995999999999999999999KA1120N+00901MA1999990097451MD1110021-0031MW1101REMSYN07048304 31930 00000 10093 20091 39745 40234 51002 71000 333 20090 59003=
0153483040999992014012203004+19867+099767FM-12+040199999V0209999C000019999999N004000199+01471+01251102491ADDAY101021AY201021GF100995999999999999999999MA1999990097681MD1210231-0021MW1101REMSYN06448304 31940 00000 10147 20125 39768 40249 52023 71000 333 59002=
0153483040999992014012206004+19867+099767FM-12+040199999V0200301N004119999999N008000199+02171+00571102061ADDAY101021AY201021GF100995999999999999999999MA1999990097381MD1710301-0111MW1051REMSYN06448304 31958 00308 10217 20057 39738 40206 57030 70500 333 59011=
0153483040999992014012209004+19867+099767FM-12+040199999V0201101N001019999999N009000199+02341+00471101721ADDAY101021AY201021GF100995999999999999999999MA1999990097081MD1710301-0161MW1051REMSYN06448304 31959 01102 10234 20047 39708 40172 57030 70500 333 59016=
0159483040999992014012212004+19867+099767FM-12+040199999V0209999C000019999999N007000199+01611+01401101931ADDAY101021AY201021GF100995999999999999999999MA1999990097171MD1210091-0171MW1101REMSYN07048304 31957 00000 10161 20140 39717 40193 52009 71000 333 10237 59017=
0153483040999992014012215004+19867+099767FM-12+040199999V0209999C000019999999N006000199+01101+00981102181ADDAY101021AY201021GF100995999999999999999999MA1999990097331MD1210161-0111MW1101REMSYN06448304 31956 00000 10110 20098 39733 40218 52016 71000 333 59011=
0153483040999992014012218004+19867+099767FM-12+040199999V0209999C000019999999N004000199+00741+00651102171ADDAY101021AY201021GF100995999999999999999999MA1999990097261MD1710071-0151MW1101REMSYN06448304 31940 00000 10074 20065 39726 40217 57007 71000 333 59015=
0153483040999992014012221004+19867+099767FM-12+040199999V0209999C000019999999N003000199+00631+00561102151ADDAY101021AY201021GF100995999999999999999999MA1999990097231MD1710031-0141MW1101REMSYN06448304 31930 00000 10063 20056 39723 40215 57003 71000 333 59014=
0172483040999992014012300004+19867+099767FM-12+040199999V0209999C00001000001CN000000199+00551+00521102251ADDAY141021AY241021GF109991999999999999999999KA1120N+00501MA1999990097301MD1210081-0091MW1471REMSYN07048304 31/00 90000 10055 20052 39730 40225 52008 74744 333 20050 59009=
0153483040999992014012303004+19867+099767FM-12+040199999V0209999C000019999999N003000199+01541+01251102241ADDAY141021AY201021GF100995999999999999999999MA1999990097461MD1210151-0251MW1101REMSYN06448304 31930 00000 10154 20125 39746 40224 52015 71040 333 59025=
0153483040999992014012306004+19867+099767FM-12+040199999V0209999C000019999999N006000199+02071+00851101801ADDAY141021AY201021GF100995999999999999999999MA1999990097121MD1710341-0261MW1051REMSYN06448304 31956 00000 10207 20085 39712 40180 57034 70540 333 59026=
0125483040999992014012309004+19867+099767FM-12+040199999V0209999C000019999999N015000199+02431+00791101411ADDGF100995999999999999999999MA1999990096811MD1710311-0301REMSYN05848304 32965 00000 10243 20079 39681 40141 57031 333 59030=
0131483040999992014012312004+19867+099767FM-12+040199999V0209999C000019999999N015000199+01611+01191101621ADDGF100995999999999999999999MA1999990096881MD1210071-0301REMSYN06448304 32965 00000 10161 20119 39688 40162 52007 333 10248 59030=
0125483040999992014012315004+19867+099767FM-12+040199999V0209999C000019999999N010000199+01101+00961101751ADDGF100995999999999999999999MA1999990096921MD1210041-0431REMSYN05848304 32960 00000 10110 20096 39692 40175 52004 333 59043=
0153483040999992014012318004+19867+099767FM-12+040199999V0209999C000019999999N003000199+00951+00851101821ADDAY101021AY201021GF100995999999999999999999MA1999990096961MD1900041-0351MW1101REMSYN06448304 31930 00000 10095 20085 39696 40182 50004 71000 333 59035=
0153483040999992014012321004+19867+099767FM-12+040199999V0209999C000019999999N002000199+00871+00811101721ADDAY101021AY201021GF100995999999999999999999MA1999990096861MD1710101-0431MW1101REMSYN06448304 31920 00000 10087 20081 39686 40172 57010 71000 333 59043=
0172483040999992014012400004+19867+099767FM-12+040199999V0209999C00001000001CN000000199+00801+00781101841ADDAY141021AY241021GF109991999999999999999999KA1120N+00721MA1999990096961MD1210101-0401MW1471REMSYN07048304 31/00 90000 10080 20078 39696 40184 52010 74744 333 20072 59040=
0153483040999992014012403004+19867+099767FM-12+040199999V0209999C000019999999N002000199+01551+01081101851ADDAY101021AY201021GF100995999999999999999999MA1999990097081MD1210121-0391MW1101REMSYN06448304 31920 00000 10155 20108 39708 40185 52012 71000 333 59039=
0125483040999992014012406004+19867+099767FM-12+040199999V0209999C000019999999N015000199+02261+01111101361ADDGF100995999999999999999999MA1999990096741MD1710351-0431REMSYN05848304 32965 00000 10226 20111 39674 40136 57035 333 59043=
0125483040999992014012409004+19867+099767FM-12+040199999V0209999C000019999999N015000199+02661+01031100991ADDGF100995999999999999999999MA1999990096441MD1710301-0431REMSYN05848304 32965 00000 10266 20103 39644 40099 57030 333 59043=
0131483040999992014012412004+19867+099767FM-12+040199999V0209999C000019999999N012000199+01821+01441101191ADDGF100995999999999999999999MA1999990096501MD1210071-0431REMSYN06448304 32962 00000 10182 20144 39650 40119 52007 333 10267 59043=
0153483040999992014012415004+19867+099767FM-12+040199999V0209999C000019999999N008000199+01481+01301101431ADDAY101021AY201021GF100995999999999999999999MA1999990096681MD1210171-0321MW1101REMSYN06448304 31958 00000 10148 20130 39668 40143 52017 71000 333 59032=
0153483040999992014012418004+19867+099767FM-12+040199999V0209999C000019999999N006000199+01301+01211101471ADDAY101021AY201021GF100995999999999999999999MA1999990096691MD1110011-0341MW1101REMSYN06448304 31956 00000 10130 20121 39669 40147 51001 71000 333 59034=
0153483040999992014012421004+19867+099767FM-12+040199999V0209999C000019999999N006000199+01121+01041101361ADDAY101021AY201021GF100995999999999999999999MA1999990096551MD1710141-0371MW1101REMSYN06448304 31956 00000 10112 20104 39655 40136 57014 71000 333 59037=
0172483040999992014012500004+19867+099767FM-12+040199999V0209999C000019999999N006000199+00951+00891101421ADDAY101021AY201021GF100995999999999999999999KA1120N+00921MA1999990096581MD1110031-0431MW1101REMSYN07048304 31956 00000 10095 20089 39658 40142 51003 71000 333 20092 59043=
0125483040999992014012503004+19867+099767FM-12+040199999V0200401N001019999999N010000199+01661+01301101641ADDGF100995999999999999999999MA1999990096911MD1210331-0211REMSYN05848304 32960 00402 10166 20130 39691 40164 52033 333 59021=
0125483040999992014012506004+19867+099767FM-12+040199999V0209999C000019999999N015000199+02451+01441101271ADDGF100995999999999999999999MA1999990096681MD1710231-0091REMSYN05848304 32965 00000 10245 20144 39668 40127 57023 333 59009=
0125483040999992014012509004+19867+099767FM-12+040199999V0201101N001019999999N015000199+02781+01581100961ADDGF100995999999999999999999MA1999990096431MD1710251-0021REMSYN05848304 32965 01102 10278 20158 39643 40096 57025 333 59002=
0131483040999992014012512004+19867+099767FM-12+040199999V0209999C000019999999N010000199+02061+01651101121ADDGF100995999999999999999999MA1999990096471MD1210041-0071REMSYN06448304 32960 00000 10206 20165 39647 40112 52004 333 10282 59007=
0153483040999992014012515004+19867+099767FM-12+040199999V0209999C000019999999N008000199+01671+01501101371ADDAY101021AY201021GF100995999999999999999999MA1999990096651MD1210181-0051MW1101REMSYN06448304 31958 00000 10167 20150 39665 40137 52018 71000 333 59005=
0153483040999992014012518004+19867+099767FM-12+040199999V0209999C000019999999N007000199+01421+01331101451ADDAY101021AY201021GF100995999999999999999999MA1999990096681MD1110031-0031MW1101REMSYN06448304 31957 00000 10142 20133 39668 40145 51003 71000 333 59003=
0153483040999992014012521004+19867+099767FM-12+040199999V0209999C000019999999N006000199+01221+01161101461ADDAY101021AY201021GF100995999999999999999999MA1999990096661MD1610021+0101MW1101REMSYN06448304 31956 00000 10122 20116 39666 40146 56002 71000 333 58010=
0172483040999992014012600004+19867+099767FM-12+040199999V0209999C00001000001CN000000199+01201+01161101691ADDAY141021AY201021GF109991999999999999999999KA1120N+01141MA1999990096881MD1210221+0271MW1471REMSYN07048304 31/00 90000 10120 20116 39688 40169 52022 74740 333 20114 58027=
0153483040999992014012603004+19867+099767FM-12+040199999V0201401N001019999999N010000199+01871+01581101831ADDAY141021AY201021GF100995999999999999999999MA1999990097121MD1210251+0201MW1011REMSYN06448304 31960 01402 10187 20158 39712 40183 52025 70140 333 58020=
0153483040999992014012606004+19867+099767FM-12+040199999V0201001N001019999999N015000199+02601+01641101451ADDAY141021AY201021GF100995999999999999999999MA1999990096871MD1710261+0171MW1021REMSYN06448304 31965 01002 10260 20164 39687 40145 57026 70240 333 58017=
0125483040999992014012609004+19867+099767FM-12+040199999V0201301N001019999999N015000199+02871+01611101111ADDGF100995999999999999999999MA1999990096581MD1710291+0141REMSYN05848304 32965 01302 10287 20161 39658 40111 57029 333 58014=
0131483040999992014012612004+19867+099767FM-12+040199999V0209999C000019999999N010000199+02181+01911101251ADDGF100995999999999999999999MA1999990096621MD1210041+0131REMSYN06448304 32960 00000 10218 20191 39662 40125 52004 333 10287 58013=
0153483040999992014012615004+19867+099767FM-12+040199999V0209999C000019999999N008000199+01591+01431101561ADDAY101021AY201021GF100995999999999999999999MA1999990096821MD1210201+0191MW1101REMSYN06448304 31958 00000 10159 20143 39682 40156 52020 71000 333 58019=
0153483040999992014012618004+19867+099767FM-12+040199999V0209999C000019999999N004000199+01501+01391101591ADDAY101021AY201021GF100995999999999999999999MA1999990096831MD1900011+0141MW1101REMSYN06448304 31940 00000 10150 20139 39683 40159 50001 71000 333 58014=
0153483040999992014012621004+19867+099767FM-12+040199999V0209999C00001000001CN000000199+01351+01311101571ADDAY141021AY241021GF109991999999999999999999MA1999990096791MD1710041+0111MW1471REMSYN06448304 31/00 90000 10135 20131 39679 40157 57004 74744 333 58011=
0172483040999992014012700004+19867+099767FM-12+040199999V0209999C00001000001CN000000199+01251+01231101701ADDAY141021AY241021GF109991999999999999999999KA1120N+01201MA1999990096891MD1210111+0011MW1471REMSYN07048304 31/00 90000 10125 20123 39689 40170 52011 74744 333 20120 58001=
0153483040999992014012703004+19867+099767FM-12+040199999V0209999C000019999999N002000199+02001+01691101831ADDAY141021AY201021GF100995999999999999999999MA1999990097141MD1210241-0011MW1101REMSYN06448304 31920 00000 10200 20169 39714 40183 52024 71040 333 59001=
0153483040999992014012706004+19867+099767FM-12+040199999V0209999C000019999999N006000199+02581+01731101481ADDAY141021AY201021GF100995999999999999999999MA1999990096891MD1710241+0031MW1051REMSYN06448304 31956 00000 10258 20173 39689 40148 57024 70540 333 58003=
0153483040999992014012709004+19867+099767FM-12+040199999V0209999C000019999999N007000199+02831+01771101141ADDAY101021AY201021GF100995999999999999999999MA1999990096601MD1710291+0031MW1051REMSYN06448304 31957 00000 10283 20177 39660 40114 57029 70500 333 58003=
0159483040999992014012712004+19867+099767FM-12+040199999V0209999C000019999999N006000199+02101+01641101291ADDAY101021AY201021GF100995999999999999999999MA1999990096641MD1210041+0041MW1101REMSYN07048304 31956 00000 10210 20164 39664 40129 52004 71000 333 10286 58004=
0153483040999992014012715004+19867+099767FM-12+040199999V0209999C000019999999N004000199+01651+01461101461ADDAY101021AY201021GF100995999999999999999999MA1999990096741MD1210091-0101MW1101REMSYN06448304 31940 00000 10165 20146 39674 40146 52009 71000 333 59010=
0153483040999992014012718004+19867+099767FM-12+040199999V0209999C000019999999N003000199+01531+01441101481ADDAY101021AY201021GF100995999999999999999999MA1999990096741MD1410001-0111MW1101REMSYN06448304 31930 00000 10153 20144 39674 40148 54000 71000 333 59011=
0153483040999992014012721004+19867+099767FM-12+040199999V0209999C00001000001CN000000199+01411+01371101411ADDAY141021AY241021GF109991999999999999999999MA1999990096651MD1710091-0161MW1471REMSYN06448304 31/00 90000 10141 20137 39665 40141 57009 74744 333 59016=
0226483040999992014012800004+19867+099767FM-12+040199999V0209999C000019999999N001500199+01401+01381101591ADDAY141021AY241021GA1031+999991061GA2991+999991021GA3991+999991031GF106991031990999999991991KA1120N+01221MA1999990096811MD1210161-0111MW1101REMSYN07648304 31615 60000 10140 20138 39681 40159 52016 71044 83546 333 20122 59011=
0153483040999992014012803004+19867+099767FM-12+040199999V0209999C000019999999N002000199+01941+01711101711ADDAY101021AY201021GF100995999999999999999999MA1999990097021MD1210211-0111MW1101REMSYN06448304 31920 00000 10194 20171 39702 40171 52021 71000 333 59011=
0194483040999992014012806004+19867+099767FM-12+040199999V0201101N002119999999N006000199+02551+01661101361ADDAY101021AY201021GA1999+999991001GF102991001990999999991991MA1999990096781MD1710241-0121MW1051REMSYN07048304 31956 21104 10255 20166 39678 40136 57024 70500 80001 333 59012=EQDQ01    003SCCGA1
0153483040999992014012809004+19867+099767FM-12+040199999V0209999C000019999999N007000199+02871+01631101051ADDAY101021AY201021GF100995999999999999999999MA1999990096531MD1710241-0081MW1051REMSYN06448304 31957 00000 10287 20163 39653 40105 57024 70500 333 59008=
0159483040999992014012812004+19867+099767FM-12+040199999V0209999C000019999999N005000199+02201+01641101251ADDAY101021AY201021GF100995999999999999999999MA1999990096621MD1210091-0041MW1101REMSYN07048304 31950 00000 10220 20164 39662 40125 52009 71000 333 10287 59004=
0153483040999992014012815004+19867+099767FM-12+040199999V0209999C000019999999N005000199+01851+01671101531ADDAY101021AY201021GF100995999999999999999999MA1999990096831MD1210211+0071MW1101REMSYN06448304 31950 00000 10185 20167 39683 40153 52021 71000 333 58007=
0153483040999992014012818004+19867+099767FM-12+040199999V0209999C000019999999N004000199+01761+01641101581ADDAY101021AY201021GF100995999999999999999999MA1999990096861MD1110031+0101MW1101REMSYN06448304 31940 00000 10176 20164 39686 40158 51003 71000 333 58010=
0153483040999992014012821004+19867+099767FM-12+040199999V0209999C000019999999N004000199+01581+01491101481ADDAY101021AY201021GF100995999999999999999999MA1999990096741MD1710121+0071MW1101REMSYN06448304 31940 00000 10158 20149 39674 40148 57012 71000 333 58007=
0210483040999992014012900004+19867+099767FM-12+040199999V0209999C000019999999N004000199+01411+01361101601ADDAY101021AY201021GA1991+999991031GA2011+999991061GF102991990990999999991991KA1120N+01381MA1999990096831MD1210091+0011MW1101REMSYN07648304 31640 20000 10141 20136 39683 40160 52009 71000 81540 333 20138 58001=
0153483040999992014012903004+19867+099767FM-12+040199999V0209999C000019999999N005000199+02011+01731101771ADDAY101021AY201021GF100995999999999999999999MA1999990097081MD1210261+0061MW1101REMSYN06448304 31950 00000 10201 20173 39708 40177 52026 71000 333 58006=
0153483040999992014012906004+19867+099767FM-12+040199999V0209999C000019999999N006000199+02711+01741101391ADDAY101021AY201021GF100995999999999999999999MA1999990096831MD1710251+0031MW1051REMSYN06448304 31956 00000 10271 20174 39683 40139 57025 70500 333 58003=
0175483040999992014012909004+19867+099767FM-12+040199999V0201101N001519999999N006000199+02891+01791101111ADDAY101021AY201021GA1021+999991081GF102991021990999999991991MA1999990096591MD1710241+0061MW1051REMSYN07048304 31656 21103 10289 20179 39659 40111 57024 70500 82200 333 58006=
0159483040999992014012912004+19867+099767FM-12+040199999V0209999C000019999999N005000199+02271+01841101301ADDAY101021AY201021GF100995999999999999999999MA1999990096681MD1210091+0051MW1101REMSYN07048304 31950 00000 10227 20184 39668 40130 52009 71000 333 10291 58005=
0153483040999992014012915004+19867+099767FM-12+040199999V0209999C000019999999N005000199+01881+01661101581ADDAY101021AY201021GF100995999999999999999999MA1999990096891MD1210211+0061MW1101REMSYN06448304 31950 00000 10188 20166 39689 40158 52021 71000 333 58006=
0153483040999992014012918004+19867+099767FM-12+040199999V0209999C000019999999N004000199+01671+01551101631ADDAY101021AY201021GF100995999999999999999999MA1999990096901MD1110011+0061MW1101REMSYN06448304 31940 00000 10167 20155 39690 40163 51001 71000 333 58006=
0153483040999992014012921004+19867+099767FM-12+040199999V0209999C000019999999N004000199+01561+01471101581ADDAY101021AY201021GF100995999999999999999999MA1999990096841MD1710061+0101MW1101REMSYN06448304 31940 00000 10156 20147 39684 40158 57006 71000 333 58010=
0210483040999992014013000004+19867+099767FM-12+040199999V0209999C000019999999N004000199+01421+01371101691ADDAY101021AY201021GA1991+999991031GA2011+999991061GF105991990990999999991991KA1120N+01371MA1999990096921MD1210081+0091MW1101REMSYN07648304 31640 50000 10142 20137 39692 40169 52008 71000 81540 333 20137 58009=
0153483040999992014013003004+19867+099767FM-12+040199999V0209999C000019999999N005000199+02001+01701101831ADDAY101021AY201021GF100995999999999999999999MA1999990097141MD1210221+0061MW1101REMSYN06448304 31950 00000 10200 20170 39714 40183 52022 71000 333 58006=
0175483040999992014013006004+19867+099767FM-12+040199999V0201401N002119999999N006000199+02651+01761101461ADDAY111021AY201021GA1011+999991081GF101991011990999999991991MA1999990096891MD1710251+0071MW1051REMSYN07048304 31656 11404 10265 20176 39689 40146 57025 70510 81100 333 58007=
0175483040999992014013009004+19867+099767FM-12+040199999V0209999C000019999999N006000199+02861+01701101151ADDAY101021AY201021GA1021+999991081GF102991021990999999991991MA1999990096621MD1710271+0041MW1051REMSYN07048304 31656 20000 10286 20170 39662 40115 57027 70500 82100 333 58004=
0159483040999992014013012004+19867+099767FM-12+040199999V0209999C000019999999N005000199+02341+02021101291ADDAY101021AY201021GF100995999999999999999999MA1999990096681MD1210061-0011MW1101REMSYN07048304 31950 00000 10234 20202 39668 40129 52006 71000 333 10290 59001=
0153483040999992014013015004+19867+099767FM-12+040199999V0209999C000019999999N004000199+01761+01611101561ADDAY101021AY201021GF100995999999999999999999MA1999990096851MD1210171-0021MW1101REMSYN06448304 31940 00000 10176 20161 39685 40156 52017 71000 333 59002=
0153483040999992014013018004+19867+099767FM-12+040199999V0209999C000019999999N003000199+01601+01501101561ADDAY101021AY201021GF100995999999999999999999MA1999990096821MD1710021-0071MW1101REMSYN06448304 31930 00000 10160 20150 39682 40156 57002 71000 333 59007=
0153483040999992014013021004+19867+099767FM-12+040199999V0209999C000019999999N002000199+01491+01421101481ADDAY101021AY201021GF100995999999999999999999MA1999990096731MD1710091-0101MW1101REMSYN06448304 31920 00000 10149 20142 39673 40148 57009 71000 333 59010=
0172483040999992014013100004+19867+099767FM-12+040199999V0209999C000019999999N002000199+01421+01371101631ADDAY101021AY201021GF100995999999999999999999KA1120N+01351MA1999990096861MD1210121-0061MW1101REMSYN07048304 31920 00000 10142 20137 39686 40163 52012 71000 333 20135 59006=
0153483040999992014013103004+19867+099767FM-12+040199999V0209999C000019999999N003000199+02081+01751101761ADDAY101021AY201021GF100995999999999999999999MA1999990097081MD1210231-0071MW1101REMSYN06448304 31930 00000 10208 20175 39708 40176 52023 71000 333 59007=
0125483040999992014013106004+19867+099767FM-12+040199999V0201701N001019999999N010000199+02691+01771101361ADDGF100995999999999999999999MA1999990096801MD1710281-0101REMSYN05848304 32960 01702 10269 20177 39680 40136 57028 333 59010=
0125483040999992014013109004+19867+099767FM-12+040199999V0201201N001519999999N015000199+03031+01621101051ADDGF100995999999999999999999MA1999990096551MD1710251-0101REMSYN05848304 32965 01203 10303 20162 39655 40105 57025 333 59010=
0131483040999992014013112004+19867+099767FM-12+040199999V0209999C000019999999N012000199+02251+02021101231ADDGF100995999999999999999999MA1999990096601MD1210051-0061REMSYN06448304 32962 00000 10225 20202 39660 40123 52005 333 10307 59006=
0153483040999992014013115004+19867+099767FM-12+040199999V0209999C000019999999N006000199+01781+01631101421ADDAY101021AY201021GF100995999999999999999999MA1999990096721MD1210111-0141MW1101REMSYN06448304 31956 00000 10178 20163 39672 40142 52011 71000 333 59014=
0153483040999992014013118004+19867+099767FM-12+040199999V0209999C000019999999N004000199+01631+01541101611ADDAY101021AY201021GF100995999999999999999999MA1999990096881MD1900161+0051MW1101REMSYN06448304 31940 00000 10163 20154 39688 40161 50016 71000 333 58005=
0153483040999992014013121004+19867+099767FM-12+040199999V0209999C000019999999N003000199+01461+01411101381ADDAY101021AY201021GF100995999999999999999999MA1999990096631MD1710071-0101MW1101REMSYN06448304 31930 00000 10146 20141 39663 40138 57007 71000 333 59010=
0172483040999992014020100004+19867+099767FM-12+040199999V0209999C000019999999N001500199+01311+01271101471ADDAY101021AY201021GF100995999999999999999999KA1120N+01301MA1999990096691MD1210061-0161MW1101REMSYN07048304 31915 00000 10131 20127 39669 40147 52006 71000 333 20130 59016=
0153483040999992014020103004+19867+099767FM-12+040199999V0209999C000019999999N006000199+02121+01571101591ADDAY101021AY201021GF100995999999999999999999MA1999990096931MD1210251-0161MW1101REMSYN06448304 31956 00000 10212 20157 39693 40159 52025 71000 333 59016=
0125483040999992014020106004+19867+099767FM-12+040199999V0209999C000019999999N015000199+02781+01621101251ADDGF100995999999999999999999MA1999990096711MD1710231-0111REMSYN05848304 32965 00000 10278 20162 39671 40125 57023 333 59011=
0125483040999992014020109004+19867+099767FM-12+040199999V0209999C000019999999N015000199+03051+01571100871ADDGF100995999999999999999999MA1999990096381MD1710331-0181REMSYN05848304 32965 00000 10305 20157 39638 40087 57033 333 59018=
0131483040999992014020112004+19867+099767FM-12+040199999V0209999C000019999999N012000199+02281+01871101071ADDGF100995999999999999999999MA1999990096461MD1210081-0151REMSYN06448304 32962 00000 10228 20187 39646 40107 52008 333 10307 59015=
0125483040999992014020115004+19867+099767FM-12+040199999V0209999C000019999999N010000199+01801+01581101301ADDGF100995999999999999999999MA1999990096611MD1210151-0121REMSYN05848304 32960 00000 10180 20158 39661 40130 52015 333 59012=
0153483040999992014020118004+19867+099767FM-12+040199999V0209999C000019999999N008000199+01651+01491101361ADDAY101021AY201021GF100995999999999999999999MA1999990096641MD1110041-0071MW1101REMSYN06448304 31958 00000 10165 20149 39664 40136 51004 71000 333 59007=
0153483040999992014020121004+19867+099767FM-12+040199999V0209999C000019999999N006000199+01401+01311101261ADDAY101021AY201021GF100995999999999999999999MA1999990096501MD1710141-0121MW1101REMSYN06448304 31956 00000 10140 20131 39650 40126 57014 71000 333 59012=
0172483040999992014020200004+19867+099767FM-12+040199999V0209999C000019999999N006000199+01261+01181101391ADDAY101021AY201021GF100995999999999999999999KA1120N+01251MA1999990096601MD1210101-0081MW1101REMSYN07048304 31956 00000 10126 20118 39660 40139 52010 71000 333 20125 59008=
0125483040999992014020203004+19867+099767FM-12+040199999V0209999C000019999999N010000199+02101+01431101391ADDGF100995999999999999999999MA1999990096741MD1210141-0201REMSYN05848304 32960 00000 10210 20143 39674 40139 52014 333 59020=
0125483040999992014020206004+19867+099767FM-12+040199999V0209999C000019999999N015000199+02721+01481100991ADDGF100995999999999999999999MA1999990096451MD1710291-0261REMSYN05848304 32965 00000 10272 20148 39645 40099 57029 333 59026=
0125483040999992014020209004+19867+099767FM-12+040199999V0209999C000019999999N015000199+03101+01241100581ADDGF100995999999999999999999MA1999990096111MD1710341-0281REMSYN05848304 32965 00000 10310 20124 39611 40058 57034 333 59028=
0131483040999992014020212004+19867+099767FM-12+040199999V0209999C000019999999N012000199+02311+01751100741ADDGF100995999999999999999999MA1999990096141MD1110031-0341REMSYN06448304 32962 00000 10231 20175 39614 40074 51003 333 10310 59034=
0125483040999992014020215004+19867+099767FM-12+040199999V0209999C000019999999N010000199+01701+01381100951ADDGF100995999999999999999999MA1999990096251MD1110111-0351REMSYN05848304 32960 00000 10170 20138 39625 40095 51011 333 59035=
0153483040999992014020218004+19867+099767FM-12+040199999V0209999C000019999999N008000199+01451+01301101021ADDAY101021AY201021GF100995999999999999999999MA1999990096281MD1110031-0351MW1101REMSYN06448304 31958 00000 10145 20130 39628 40102 51003 71000 333 59035=
0153483040999992014020221004+19867+099767FM-12+040199999V0209999C000019999999N006000199+01291+01201100991ADDAY101021AY201021GF100995999999999999999999MA1999990096231MD1710051-0271MW1101REMSYN06448304 31956 00000 10129 20120 39623 40099 57005 71000 333 59027=
0172483040999992014020300004+19867+099767FM-12+040199999V0209999C000019999999N006000199+01111+01031101151ADDAY101021AY201021GF100995999999999999999999KA1120N+01061MA1999990096351MD1210121-0241MW1101REMSYN07048304 31956 00000 10111 20103 39635 40115 52012 71000 333 20106 59024=
0125483040999992014020303004+19867+099767FM-12+040199999V0209999C000019999999N015000199+02051+01291101031ADDGF100995999999999999999999MA1999990096391MD1210041-0371REMSYN05848304 32965 00000 10205 20129 39639 40103 52004 333 59037=
0125483040999992014020306004+19867+099767FM-12+040199999V0209999C000019999999N015000199+02751+01461100601ADDGF100995999999999999999999MA1999990096081MD1710301-0391REMSYN05848304 32965 00000 10275 20146 39608 40060 57030 333 59039=
0125483040999992014020309004+19867+099767FM-12+040199999V0209999C000019999999N015000199+03141+01341100441ADDGF100995999999999999999999MA1999990095991MD1710101-0141REMSYN05848304 32965 00000 10314 20134 39599 40044 57010 333 59014=
0131483040999992014020312004+19867+099767FM-12+040199999V0209999C000019999999N010000199+02221+01721100631ADDGF100995999999999999999999MA1999990096031MD1110051-0101REMSYN06448304 32960 00000 10222 20172 39603 40063 51005 333 10316 59010=
0153483040999992014020315004+19867+099767FM-12+040199999V0209999C000019999999N006000199+01501+01321100881ADDAY101021AY201021GF100995999999999999999999MA1999990096161MD1210121-0071MW1101REMSYN06448304 31956 00000 10150 20132 39616 40088 52012 71000 333 59007=
0153483040999992014020318004+19867+099767FM-12+040199999V0209999C000019999999N004000199+01231+01131100891ADDAY101021AY201021GF100995999999999999999999MA1999990096131MD1710031-0121MW1101REMSYN06448304 31940 00000 10123 20113 39613 40089 57003 71000 333 59012=
0153483040999992014020321004+19867+099767FM-12+040199999V0209999C000019999999N003000199+01101+01041100841ADDAY101021AY201021GF100995999999999999999999MA1999990096051MD1710081-0161MW1101REMSYN06448304 31930 00000 10110 20104 39605 40084 57008 71000 333 59016=
0172483040999992014020400004+19867+099767FM-12+040199999V0209999C000019999999N002000199+01041+01001101031ADDAY101021AY201021GF100995999999999999999999KA1120N+01001MA1999990096231MD1210181-0121MW1101REMSYN07048304 31920 00000 10104 20100 39623 40103 52018 71000 333 20100 59012=
0153483040999992014020403004+19867+099767FM-12+040199999V0209999C000019999999N006000199+01831+01241101091ADDAY101021AY201021GF100995999999999999999999MA1999990096411MD1210191+0071MW1101REMSYN06448304 31956 00000 10183 20124 39641 40109 52019 71000 333 58007=
0125483040999992014020406004+19867+099767FM-12+040199999V0201201N001519999999N015000199+02701+01391100671ADDGF100995999999999999999999MA1999990096141MD1710281+0061REMSYN05848304 32965 01203 10270 20139 39614 40067 57028 333 58006=
0125483040999992014020409004+19867+099767FM-12+040199999V0203401N001519999999N015000199+03081+01011100331ADDGF100995999999999999999999MA1999990095871MD1710261-0111REMSYN05848304 32965 03403 10308 20101 39587 40033 57026 333 59011=
0131483040999992014020412004+19867+099767FM-12+040199999V0209999C000019999999N015000199+02201+01601100531ADDGF100995999999999999999999MA1999990095931MD1210061-0111REMSYN06448304 32965 00000 10220 20160 39593 40053 52006 333 10309 59011=
0125483040999992014020415004+19867+099767FM-12+040199999V0209999C000019999999N010000199+01561+01381100761ADDGF100995999999999999999999MA1999990096051MD1210121-0121REMSYN05848304 32960 00000 10156 20138 39605 40076 52012 333 59012=
0153483040999992014020418004+19867+099767FM-12+040199999V0209999C000019999999N006000199+01391+01281100791ADDAY101021AY201021GF100995999999999999999999MA1999990096051MD1410001-0101MW1101REMSYN06448304 31956 00000 10139 20128 39605 40079 54000 71000 333 59010=
0153483040999992014020421004+19867+099767FM-12+040199999V0209999C000019999999N002000199+01301+01221100801ADDAY101021AY201021GF100995999999999999999999MA1999990096051MD1710011-0041MW1101REMSYN06448304 31920 00000 10130 20122 39605 40080 57001 71000 333 59004=
0213483040999992014020500004+19867+099767FM-12+040199999V0209999C000019999999N004000199+01181+01141101051ADDAY101021AY201021GA1999+999991001GF102991001990999999991991KA1120N+01131MA1999990096261MD1210221+0011MW1101REMSYN07648304 31940 20000 10118 20114 39626 40105 52022 71000 80001 333 20113 58001=EQDQ01    003SCCGA1
0125483040999992014020503004+19867+099767FM-12+040199999V0209999C000019999999N015000199+02001+01391101101ADDGF100995999999999999999999MA1999990096441MD1210181+0001REMSYN05848304 32965 00000 10200 20139 39644 40110 52018 333 58000=
0125483040999992014020506004+19867+099767FM-12+040199999V0209999C000019999999N015000199+02741+01441100711ADDGF100995999999999999999999MA1999990096181MD1710261+0041REMSYN05848304 32965 00000 10274 20144 39618 40071 57026 333 58004=
0125483040999992014020509004+19867+099767FM-12+040199999V0209999C000019999999N015000199+03041+01631100521ADDGF100995999999999999999999MA1999990096051MD1710131+0191REMSYN05848304 32965 00000 10304 20163 39605 40052 57013 333 58019=
0131483040999992014020512004+19867+099767FM-12+040199999V0209999C000019999999N015000199+02241+01791100581ADDGF100995999999999999999999MA1999990095981MD1510071+0051REMSYN06448304 32965 00000 10224 20179 39598 40058 55007 333 10306 58005=
0125483040999992014020515004+19867+099767FM-12+040199999V0209999C000019999999N010000199+01801+01541100781ADDGF100995999999999999999999MA1999990096111MD1110131+0031REMSYN05848304 32960 00000 10180 20154 39611 40078 51013 333 58003=
0153483040999992014020518004+19867+099767FM-12+040199999V0209999C000019999999N008000199+01521+01361100971ADDAY101021AY201021GF100995999999999999999999MA1999990096251MD1210141+0191MW1101REMSYN06448304 31958 00000 10152 20136 39625 40097 52014 71000 333 58019=
0153483040999992014020521004+19867+099767FM-12+040199999V0209999C000019999999N006000199+01471+01401100811ADDAY101021AY201021GF100995999999999999999999MA1999990096091MD1710161+0021MW1101REMSYN06448304 31956 00000 10147 20140 39609 40081 57016 71000 333 58002=
0172483040999992014020600004+19867+099767FM-12+040199999V0209999C000019999999N004000199+01261+01181101031ADDAY101021AY201021GF100995999999999999999999KA1120N+01211MA1999990096261MD1210171-0021MW1101REMSYN07048304 31940 00000 10126 20118 39626 40103 52017 71000 333 20121 59002=
0125483040999992014020603004+19867+099767FM-12+040199999V0209999C000019999999N012000199+02021+01451101101ADDGF100995999999999999999999MA1999990096441MD1210191+0001REMSYN05848304 32962 00000 10202 20145 39644 40110 52019 333 58000=
0125483040999992014020606004+19867+099767FM-12+040199999V0201701N002619999999N015000199+02801+01171100681ADDGF100995999999999999999999MA1999990096161MD1710291-0031REMSYN05848304 32965 01705 10280 20117 39616 40068 57029 333 59003=
0125483040999992014020609004+19867+099767FM-12+040199999V0209999C000019999999N015000199+03091+01271100401ADDGF100995999999999999999999MA1999990095931MD1710221-0131REMSYN05848304 32965 00000 10309 20127 39593 40040 57022 333 59013=
0131483040999992014020612004+19867+099767FM-12+040199999V0209999C000019999999N012000199+02301+01681100541ADDGF100995999999999999999999MA1999990095951MD1110021-0041REMSYN06448304 32962 00000 10230 20168 39595 40054 51002 333 10313 59004=
0125483040999992014020615004+19867+099767FM-12+040199999V0209999C000019999999N010000199+01721+01511100781ADDGF100995999999999999999999MA1999990096091MD1210141-0011REMSYN05848304 32960 00000 10172 20151 39609 40078 52014 333 59001=
0153483040999992014020618004+19867+099767FM-12+040199999V0209999C000019999999N007000199+01471+01381100891ADDAY101021AY201021GF100995999999999999999999MA1999990096161MD1110071-0081MW1101REMSYN06448304 31957 00000 10147 20138 39616 40089 51007 71000 333 59008=
0153483040999992014020621004+19867+099767FM-12+040199999V0209999C000019999999N004000199+01341+01271100851ADDAY101021AY201021GF100995999999999999999999MA1999990096111MD1610061+0041MW1101REMSYN06448304 31940 00000 10134 20127 39611 40085 56006 71000 333 58004=
0172483040999992014020700004+19867+099767FM-12+040199999V0209999C000019999999N005000199+01141+01101101071ADDAY101021AY201021GF100995999999999999999999KA1120N+01091MA1999990096281MD1210171+0041MW1101REMSYN07048304 31950 00000 10114 20110 39628 40107 52017 71000 333 20109 58004=
0125483040999992014020703004+19867+099767FM-12+040199999V0209999C000019999999N012000199+02111+01421101111ADDGF100995999999999999999999MA1999990096471MD1210201+0021REMSYN05848304 32962 00000 10211 20142 39647 40111 52020 333 58002=
0125483040999992014020706004+19867+099767FM-12+040199999V0209999C000019999999N015000199+02801+01441100701ADDGF100995999999999999999999MA1999990096191MD1710291+0031REMSYN05848304 32965 00000 10280 20144 39619 40070 57029 333 58003=
0125483040999992014020709004+19867+099767FM-12+040199999V0209999C000019999999N015000199+03111+01251100381ADDGF100995999999999999999999MA1999990095921MD1710271-0021REMSYN05848304 32965 00000 10311 20125 39592 40038 57027 333 59002=
0131483040999992014020712004+19867+099767FM-12+040199999V0209999C000019999999N012000199+02321+01841100531ADDGF100995999999999999999999MA1999990095951MD1110031-0011REMSYN06448304 32962 00000 10232 20184 39595 40053 51003 333 10313 59001=
0125483040999992014020715004+19867+099767FM-12+040199999V0209999C000019999999N012000199+01511+01351100741ADDGF100995999999999999999999MA1999990096021MD1210071-0041REMSYN05848304 32962 00000 10151 20135 39602 40074 52007 333 59004=
0125483040999992014020718004+19867+099767FM-12+040199999V0209999C000019999999N010000199+01331+01201100781ADDGF100995999999999999999999MA1999990096031MD1900011-0111REMSYN05848304 32960 00000 10133 20120 39603 40078 50001 333 59011=
0153483040999992014020721004+19867+099767FM-12+040199999V0209999C000019999999N006000199+01211+01151100781ADDAY101021AY201021GF100995999999999999999999MA1999990096021MD1710021-0071MW1101REMSYN06448304 31956 00000 10121 20115 39602 40078 57002 71000 333 59007=
0172483040999992014020800004+19867+099767FM-12+040199999V0209999C000019999999N002000199+01081+01041100951ADDAY101021AY201021GF100995999999999999999999KA1120N+01021MA1999990096151MD1210141-0121MW1101REMSYN07048304 31920 00000 10108 20104 39615 40095 52014 71000 333 20102 59012=
0125483040999992014020803004+19867+099767FM-12+040199999V0209999C000019999999N010000199+02101+01411101051ADDGF100995999999999999999999MA1999990096411MD1900261-0071REMSYN05848304 32960 00000 10210 20141 39641 40105 50026 333 59007=
0125483040999992014020806004+19867+099767FM-12+040199999V0209999C000019999999N015000199+02891+00771100631ADDGF100995999999999999999999MA1999990096131MD1710281-0071REMSYN05848304 32965 00000 10289 20077 39613 40063 57028 333 59007=
0125483040999992014020809004+19867+099767FM-12+040199999V0209999C000019999999N015000199+03131+00961100361ADDGF100995999999999999999999MA1999990095911MD1710221-0011REMSYN05848304 32965 00000 10313 20096 39591 40036 57022 333 59001=
0131483040999992014020812004+19867+099767FM-12+040199999V0209999C000019999999N015000199+02281+01641100521ADDGF100995999999999999999999MA1999990095931MD1210021-0011REMSYN06448304 32965 00000 10228 20164 39593 40052 52002 333 10315 59001=
0125483040999992014020815004+19867+099767FM-12+040199999V0209999C000019999999N010000199+01421+01251100791ADDGF100995999999999999999999MA1999990096061MD1210121+0051REMSYN05848304 32960 00000 10142 20125 39606 40079 52012 333 58005=
0153483040999992014020818004+19867+099767FM-12+040199999V0209999C000019999999N006000199+01301+01191100811ADDAY101021AY201021GF100995999999999999999999MA1999990096061MD1410001+0031MW1101REMSYN06448304 31956 00000 10130 20119 39606 40081 54000 71000 333 58003=
0153483040999992014020821004+19867+099767FM-12+040199999V0209999C000019999999N002000199+01211+01151100801ADDAY101021AY201021GF100995999999999999999999MA1999990096031MD1710031+0011MW1101REMSYN06448304 31920 00000 10121 20115 39603 40080 57003 71000 333 58001=
0172483040999992014020900004+19867+099767FM-12+040199999V0209999C000019999999N006000199+01101+01061101061ADDAY101021AY201021GF100995999999999999999999KA1120N+01041MA1999990096261MD1210231+0111MW1101REMSYN07048304 31956 00000 10110 20106 39626 40106 52023 71000 333 20104 58011=
0125483040999992014020903004+19867+099767FM-12+040199999V0209999C000019999999N012000199+02151+01411101061ADDGF100995999999999999999999MA1999990096421MD1210161+0011REMSYN05848304 32962 00000 10215 20141 39642 40106 52016 333 58001=
0125483040999992014020906004+19867+099767FM-12+040199999V0202301N002119999999N015000199+02851+01291100741ADDGF100995999999999999999999MA1999990096231MD1710201+0111REMSYN05848304 32965 02304 10285 20129 39623 40074 57020 333 58011=
0125483040999992014020909004+19867+099767FM-12+040199999V0201701N001519999999N015000199+03051+00931100461ADDGF100995999999999999999999MA1999990095991MD1710241+0101REMSYN05848304 32965 01703 10305 20093 39599 40046 57024 333 58010=
0131483040999992014020912004+19867+099767FM-12+040199999V0209999C000019999999N012000199+02221+01681100631ADDGF100995999999999999999999MA1999990096031MD1210041+0111REMSYN06448304 32962 00000 10222 20168 39603 40063 52004 333 10305 58011=
0153483040999992014020915004+19867+099767FM-12+040199999V0209999C000019999999N008000199+01731+01511100891ADDAY101021AY201021GF100995999999999999999999MA1999990096201MD1210171+0101MW1101REMSYN06448304 31958 00000 10173 20151 39620 40089 52017 71000 333 58010=
0153483040999992014020918004+19867+099767FM-12+040199999V0209999C000019999999N006000199+01501+01391100971ADDAY101021AY201021GF100995999999999999999999MA1999990096241MD1110041+0161MW1101REMSYN06448304 31956 00000 10150 20139 39624 40097 51004 71000 333 58016=
0153483040999992014020921004+19867+099767FM-12+040199999V0209999C000019999999N005000199+01401+01331100921ADDAY101021AY201021GF100995999999999999999999MA1999990096181MD1610061+0131MW1101REMSYN06448304 31950 00000 10140 20133 39618 40092 56006 71000 333 58013=
0172483040999992014021000004+19867+099767FM-12+040199999V0209999C000019999999N005000199+01221+01141101141ADDAY101021AY201021GF100995999999999999999999KA1120N+01201MA1999990096361MD1210181+0081MW1101REMSYN07048304 31950 00000 10122 20114 39636 40114 52018 71000 333 20120 58008=
0125483040999992014021003004+19867+099767FM-12+040199999V0209999C000019999999N010000199+02041+01381101231ADDGF100995999999999999999999MA1999990096581MD1210221+0181REMSYN05848304 32960 00000 10204 20138 39658 40123 52022 333 58018=
0147483040999992014021006004+19867+099767FM-12+040199999V0209999C000019999999N012000199+02721+01481100841ADDGA1011+999991081GF101991011990999999991991MA1999990096311MD1710271+0101REMSYN06448304 32662 10000 10272 20148 39631 40084 57027 81100 333 58010=
0125483040999992014021009004+19867+099767FM-12+040199999V0201201N001519999999N015000199+02981+00971100521ADDGF100995999999999999999999MA1999990096041MD1710271+0061REMSYN05848304 32965 01203 10298 20097 39604 40052 57027 333 58006=
0131483040999992014021012004+19867+099767FM-12+040199999V0209999C000019999999N012000199+02351+01651100691ADDGF100995999999999999999999MA1999990096111MD1210071+0061REMSYN06448304 32962 00000 10235 20165 39611 40069 52007 333 10302 58006=
0125483040999992014021015004+19867+099767FM-12+040199999V0209999C000019999999N010000199+01771+01511100981ADDGF100995999999999999999999MA1999990096301MD1210191+0091REMSYN05848304 32960 00000 10177 20151 39630 40098 52019 333 58009=
0153483040999992014021018004+19867+099767FM-12+040199999V0209999C000019999999N007000199+01501+01371101061ADDAY101021AY201021GF100995999999999999999999MA1999990096321MD1110031+0091MW1101REMSYN06448304 31957 00000 10150 20137 39632 40106 51003 71000 333 58009=
0153483040999992014021021004+19867+099767FM-12+040199999V0209999C000019999999N006000199+01341+01271100951ADDAY101021AY201021GF100995999999999999999999MA1999990096191MD1710131+0021MW1101REMSYN06448304 31956 00000 10134 20127 39619 40095 57013 71000 333 58002=
0172483040999992014021100004+19867+099767FM-12+040199999V0209999C000019999999N005000199+01271+01211101101ADDAY101021AY201021GF100995999999999999999999KA1120N+01231MA1999990096331MD1210131-0041MW1101REMSYN07048304 31950 00000 10127 20121 39633 40110 52013 71000 333 20123 59004=
0153483040999992014021103004+19867+099767FM-12+040199999V0209999C000019999999N008000199+02001+01581101191ADDAY101021AY201021GF100995999999999999999999MA1999990096531MD1210201-0051MW1101REMSYN06448304 31958 00000 10200 20158 39653 40119 52020 71000 333 59005=
0153483040999992014021106004+19867+099767FM-12+040199999V0201901N001519999999N008000199+02701+01451100801ADDAY101021AY201021GF100995999999999999999999MA1999990096271MD1710261-0041MW1051REMSYN06448304 31958 01903 10270 20145 39627 40080 57026 70500 333 59004=
0153483040999992014021109004+19867+099767FM-12+040199999V0209999C000019999999N008000199+02971+01701100421ADDAY101021AY201021GF100995999999999999999999MA1999990095941MD1710321-0101MW1051REMSYN06448304 31958 00000 10297 20170 39594 40042 57032 70500 333 59010=
0159483040999992014021112004+19867+099767FM-12+040199999V0209999C000019999999N004000199+02261+01711100541ADDAY101021AY201021GF100995999999999999999999MA1999990095951MD1210011-0151MW1101REMSYN07048304 31940 00000 10226 20171 39595 40054 52001 71000 333 10301 59015=
0153483040999992014021115004+19867+099767FM-12+040199999V0209999C000019999999N004000199+01681+01511100741ADDAY101021AY201021GF100995999999999999999999MA1999990096051MD1210101-0241MW1101REMSYN06448304 31940 00000 10168 20151 39605 40074 52010 71000 333 59024=
0153483040999992014021118004+19867+099767FM-12+040199999V0209999C000019999999N003000199+01581+01471100791ADDAY101021AY201021GF100995999999999999999999MA1999990096091MD1110041-0261MW1101REMSYN06448304 31930 00000 10158 20147 39609 40079 51004 71000 333 59026=
0153483040999992014021121004+19867+099767FM-12+040199999V0209999C000019999999N002000199+01501+01431100811ADDAY101021AY201021GF100995999999999999999999MA1999990096091MD1410001-0141MW1101REMSYN06448304 31920 00000 10150 20143 39609 40081 54000 71000 333 59014=
0213483040999992014021200004+19867+099767FM-12+040199999V0209999C000019999999N002000199+01391+01371101021ADDAY101021AY201021GA1999+999991001GF102991001990999999991991KA1120N+01351MA1999990096271MD1210181-0081MW1101REMSYN07648304 31920 20000 10139 20137 39627 40102 52018 71000 80001 333 20135 59008=EQDQ01    003SCCGA1
0153483040999992014021203004+19867+099767FM-12+040199999V0209999C000019999999N007000199+02171+01621101091ADDAY101021AY201021GF100995999999999999999999MA1999990096461MD1210191-0101MW1101REMSYN06448304 31957 00000 10217 20162 39646 40109 52019 71000 333 59010=
0153483040999992014021206004+19867+099767FM-12+040199999V0202301N002119999999N008000199+02961+01331100701ADDAY101021AY201021GF100995999999999999999999MA1999990096211MD1710251-0101MW1051REMSYN06448304 31958 02304 10296 20133 39621 40070 57025 70500 333 59010=
0175483040999992014021209004+19867+099767FM-12+040199999V0202501N002119999999N008000199+03061+00781100511ADDAY101021AY201021GA1011+999991031GF101991011990999999991991MA1999990096041MD1710171+0091MW1051REMSYN07048304 31958 12504 10306 20078 39604 40051 57017 70500 81040 333 58009=
0181483040999992014021212004+19867+099767FM-12+040199999V0209999C000019999999N006000199+02401+01761100681ADDAY101021AY201021GA1021+999991061GF102991021990999999991991MA1999990096101MD1210071+0141MW1101REMSYN07648304 31656 20000 10240 20176 39610 40068 52007 71000 82500 333 10311 58014=
0153483040999992014021215004+19867+099767FM-12+040199999V0209999C000019999999N005000199+01951+01701101001ADDAY101021AY201021GF100995999999999999999999MA1999990096341MD1210241+0261MW1101REMSYN06448304 31950 00000 10195 20170 39634 40100 52024 71000 333 58026=
0153483040999992014021218004+19867+099767FM-12+040199999V0209999C000019999999N004000199+01621+01501101141ADDAY101021AY201021GF100995999999999999999999MA1999990096421MD1110081+0341MW1101REMSYN06448304 31940 00000 10162 20150 39642 40114 51008 71000 333 58034=
0153483040999992014021221004+19867+099767FM-12+040199999V0209999C000019999999N004000199+01461+01371101161ADDAY101021AY201021GF100995999999999999999999MA1999990096421MD1410001+0351MW1101REMSYN06448304 31940 00000 10146 20137 39642 40116 54000 71000 333 58035=
0210483040999992014021300004+19867+099767FM-12+040199999V0209999C000019999999N004000199+01351+01281101361ADDAY101021AY201021GA1991+999991021GA2011+999991061GF102991990990999999991991KA1120N+01311MA1999990096591MD1210171+0341MW1101REMSYN07648304 31640 20000 10135 20128 39659 40136 52017 71000 81505 333 20131 58034=
0153483040999992014021303004+19867+099767FM-12+040199999V0209999C000019999999N006000199+02161+01521101481ADDAY101021AY201021GF100995999999999999999999MA1999990096831MD1210241+0391MW1101REMSYN06448304 31956 00000 10216 20152 39683 40148 52024 71000 333 58039=
0175483040999992014021306004+19867+099767FM-12+040199999V0203201N002119999999N008000199+02891+01471101131ADDAY101021AY201021GA1011+999991081GF101991011990999999991991MA1999990096601MD1710221+0421MW1051REMSYN07048304 31658 13204 10289 20147 39660 40113 57022 70500 81100 333 58042=
0207483040999992014021309004+19867+099767FM-12+040199999V0209999C000019999999N008000199+03041+01451100821ADDAY111021AY201021GA1021+999991081GA2991+999991021GA3991+999991031GF105991021990999999991991MA1999990096331MD1710281+0311MW1051REMSYN07048304 31658 50000 10304 20145 39633 40082 57028 70510 82146 333 58031=
0181483040999992014021312004+19867+099767FM-12+040199999V0209999C000019999999N006000199+02401+01831100991ADDAY111021AY201021GA1031+999991031GF103991031990999999991991MA1999990096401MD1210071+0311MW1101REMSYN07648304 31956 30000 10240 20183 39640 40099 52007 71010 83040 333 10306 58031=
0175483040999992014021315004+19867+099767FM-12+040199999V0209999C000019999999N006000199+01931+01721101181ADDAY101021AY201021GA1021+999991031GF102991021990999999991991MA1999990096511MD1110111+0181MW1101REMSYN07048304 31956 20000 10193 20172 39651 40118 51011 71000 82040 333 58018=
0175483040999992014021318004+19867+099767FM-12+040199999V0209999C000019999999N004000199+01711+01571101221ADDAY101021AY201021GA1021+999991031GF102991021990999999991991MA1999990096511MD1110011+0081MW1101REMSYN07048304 31940 20000 10171 20157 39651 40122 51001 71000 82040 333 58008=
0207483040999992014021321004+19867+099767FM-12+040199999V0209999C000019999999N004000199+01601+01511101271ADDAY101021AY201021GA1021+999991081GA2991+999991021GA3991+999991031GF103991021990999999991991MA1999990096551MD1110031+0111MW1101REMSYN07048304 31640 30000 10160 20151 39655 40127 51003 71000 82145 333 58011=
0226483040999992014021400004+19867+099767FM-12+040199999V0209999C000019999999N005000199+01541+01451101441ADDAY111021AY201021GA1031+999991061GA2991+999991021GA3991+999991031GF105991031990999999991991KA1120N+01521MA1999990096701MD1210151+0081MW1101REMSYN07648304 31650 50000 10154 20145 39670 40144 52015 71010 83546 333 20152 58008=
0191483040999992014021403004+19867+099767FM-12+040199999V0209999C000019999999N007000199+02211+01631101511ADDAY111021AY201021GA1991+999991031GA2011+999991081GF102991990990999999991991MA1999990096871MD1210171+0031MW1101REMSYN07048304 31657 20000 10221 20163 39687 40151 52017 71010 81140 333 58003=
0175483040999992014021406004+19867+099767FM-12+040199999V0209999C000019999999N008000199+02921+01661101091ADDAY111021AY201021GA1011+999991081GF101991011990999999991991MA1999990096571MD1710291-0041MW1051REMSYN07048304 31658 10000 10292 20166 39657 40109 57029 70510 81100 333 59004=
0191483040999992014021409004+19867+099767FM-12+040199999V0209999C000019999999N008000199+03201+01431100731ADDAY101021AY201021GA1991+999991031GA2011+999991081GF102991990990999999991991MA1999990096271MD1710311-0091MW1051REMSYN07048304 31658 20000 10320 20143 39627 40073 57031 70500 81240 333 59009=
0181483040999992014021412004+19867+099767FM-12+040199999V0209999C000019999999N007000199+02621+01891100821ADDAY101021AY201021GA1011+999991081GF101991011990999999991991MA1999990096271MD1110011-0171MW1051REMSYN07648304 31657 10000 10262 20189 39627 40082 51001 70500 81100 333 10322 59017=
0175483040999992014021415004+19867+099767FM-12+040199999V0209999C000019999999N007000199+02001+01691101121ADDAY101021AY201021GA1021+999991031GF102991021990999999991991MA1999990096461MD1210191-0061MW1101REMSYN07048304 31957 20000 10200 20169 39646 40112 52019 71000 82040 333 59006=
0153483040999992014021418004+19867+099767FM-12+040199999V0209999C000019999999N006000199+01721+01571101131ADDAY101021AY201021GF100995999999999999999999MA1999990096431MD1610031-0091MW1101REMSYN06448304 31956 00000 10172 20157 39643 40113 56003 71000 333 59009=
0175483040999992014021421004+19867+099767FM-12+040199999V0209999C000019999999N005000199+01581+01491101171ADDAY101021AY201021GA1021+999991031GF102991021990999999991991MA1999990096451MD1110021-0101MW1101REMSYN07048304 31950 20000 10158 20149 39645 40117 51002 71000 82040 333 59010=
0226483040999992014021500004+19867+099767FM-12+040199999V0209999C000019999999N005000199+01441+01391101341ADDAY111021AY201021GA1011+999991061GA2991+999991021GA3991+999991031GF104991011990999999991991KA1120N+01411MA1999990096591MD1210141-0101MW1101REMSYN07648304 31650 40000 10144 20139 39659 40134 52014 71010 81545 333 20141 59010=
0153483040999992014021503004+19867+099767FM-12+040199999V0209999C000019999999N006000199+02201+01691101401ADDAY111021AY201021GF100995999999999999999999MA1999990096761MD1210181-0101MW1101REMSYN06448304 31956 00000 10220 20169 39676 40140 52018 71010 333 59010=
0175483040999992014021506004+19867+099767FM-12+040199999V0209999C000019999999N008000199+02971+01661101081ADDAY111021AY201021GA1011+999991081GF101991011990999999991991MA1999990096571MD1710191-0011MW1051REMSYN07048304 31658 10000 10297 20166 39657 40108 57019 70510 81100 333 59001=
0191483040999992014021509004+19867+099767FM-12+040199999V0202301N004619999999N008000199+03181+01511100671ADDAY101021AY201021GA1991+999991031GA2011+999991081GF101991990990999999991991MA1999990096211MD1710361-0051MW1051REMSYN07048304 31658 12309 10318 20151 39621 40067 57036 70500 81140 333 59005=
0172483040999992014021512004+19867+099767FM-12+040199999V0209999C000019999999N006000199+02521+01861100851ADDAY101021AY201021GF100995999999999999999999KA1240M+03201MA1999990096281MD1110071+0021MW1101REMSYN07048304 31956 00000 10252 20186 39628 40085 51007 71000 333 10320 58002=
0153483040999992014021515004+19867+099767FM-12+040199999V0209999C000019999999N007000199+01951+01621101081ADDAY101021AY201021GF100995999999999999999999MA1999990096421MD1210141-0041MW1101REMSYN06448304 31957 00000 10195 20162 39642 40108 52014 71000 333 59004=
0153483040999992014021518004+19867+099767FM-12+040199999V0209999C000019999999N006000199+01771+01621101081ADDAY101021AY201021GF100995999999999999999999MA1999990096391MD1610031-0051MW1101REMSYN06448304 31956 00000 10177 20162 39639 40108 56003 71000 333 59005=
0153483040999992014021521004+19867+099767FM-12+040199999V0209999C000019999999N006000199+01571+01481101061ADDAY101021AY201021GF100995999999999999999999MA1999990096341MD1610051-0111MW1101REMSYN06448304 31956 00000 10157 20148 39634 40106 56005 71000 333 59011=
0172483040999992014021600004+19867+099767FM-12+040199999V0209999C000019999999N005000199+01381+01321101281ADDAY101021AY201021GF100995999999999999999999KA1120N+01351MA1999990096521MD1210181-0061MW1101REMSYN07048304 31950 00000 10138 20132 39652 40128 52018 71000 333 20135 59006=
0125483040999992014021603004+19867+099767FM-12+040199999V0209999C000019999999N012000199+02261+01521101371ADDGF100995999999999999999999MA1999990096751MD1210231-0031REMSYN05848304 32962 00000 10226 20152 39675 40137 52023 333 59003=
0179483040999992014021606004+19867+099767FM-12+040199999V0202001N001519999999N015000199+02951+01731101061ADDGA1021+999991081GA2991+999991021GA3991+999991031GF103991021990999999991991MA1999990096541MD1710201-0031REMSYN06448304 32565 32003 10295 20173 39654 40106 57020 82245 333 59003=
0179483040999992014021609004+19867+099767FM-12+040199999V0202301N003119999999N015000199+03201+01651100741ADDGA1011+999991081GA2991+999991021GA3991+999991031GF102991011990999999991991MA1999990096281MD1710261+0071REMSYN06448304 32665 22306 10320 20165 39628 40074 57026 81145 333 58007=
0185483040999992014021612004+19867+099767FM-12+040199999V0209999C000019999999N015000199+02611+02001100901ADDGA1021+999991081GA2991+999991021GA3991+999991031GF103991021990999999991991MA1999990096351MD1210071+0051REMSYN07048304 32565 30000 10261 20200 39635 40090 52007 82845 333 10326 58005=
0125483040999992014021615004+19867+099767FM-12+040199999V0209999C000019999999N012000199+02101+01941101181ADDGF100995999999999999999999MA1999990096541MD1210191+0101REMSYN05848304 32962 00000 10210 20194 39654 40118 52019 333 58010=
0125483040999992014021618004+19867+099767FM-12+040199999V0209999C000019999999N012000199+01751+01631101211ADDGF100995999999999999999999MA1999990096511MD1710031+0131REMSYN05848304 32962 00000 10175 20163 39651 40121 57003 333 58013=
0153483040999992014021621004+19867+099767FM-12+040199999V0209999C000019999999N006000199+01601+01511101161ADDAY101021AY201021GF100995999999999999999999MA1999990096441MD1710071+0101MW1101REMSYN06448304 31956 00000 10160 20151 39644 40116 57007 71000 333 58010=
0213483040999992014021700004+19867+099767FM-12+040199999V0209999C000019999999N006000199+01551+01511101391ADDAY101021AY201021GA1999+999991001GF102991001990999999991991KA1120N+01501MA1999990096651MD1210211+0111MW1101REMSYN07648304 31956 20000 10155 20151 39665 40139 52021 71000 80001 333 20150 58011=EQDQ01    003SCCGA1
0147483040999992014021703004+19867+099767FM-12+040199999V0209999C000019999999N015000199+02431+01851101381ADDGA1031+999991061GF103991031990999999991991MA1999990096781MD1210131+0011REMSYN06448304 32665 30000 10243 20185 39678 40138 52013 83500 333 58001=
0147483040999992014021706004+19867+099767FM-12+040199999V0201501N002619999999N015000199+03101+01711101071ADDGA1021+999991061GF102991021990999999991991MA1999990096581MD1710201+0011REMSYN06448304 32665 21505 10310 20171 39658 40107 57020 82500 333 58001=
0163483040999992014021709004+19867+099767FM-12+040199999V0202101N001519999999N015000199+03251+01441100731ADDGA1991+999991021GA2011+999991081GF102991990990999999991991MA1999990096281MD1710301-0011REMSYN06448304 32665 22103 10325 20144 39628 40073 57030 81105 333 59001=
0172483040999992014021712004+19867+099767FM-12+040199999V0209999C000019999999N015000199+02421+02021100811ADDGA1999+999991001GF102991001990999999991991MA1999990096231MD1510041-0091REMSYN07048304 32965 20000 10242 20202 39623 40081 55004 80001 333 10328 59009=EQDQ01    003SCCGA1
0125483040999992014021715004+19867+099767FM-12+040199999V0209999C000019999999N010000199+01931+01751101131ADDGF100995999999999999999999MA1999990096461MD1210231-0051REMSYN05848304 32960 00000 10193 20175 39646 40113 52023 333 59005=
0153483040999992014021718004+19867+099767FM-12+040199999V0209999C000019999999N006000199+01771+01641101211ADDAY101021AY201021GF100995999999999999999999MA1999990096521MD1900061+0011MW1101REMSYN06448304 31956 00000 10177 20164 39652 40121 50006 71000 333 58001=
0153483040999992014021721004+19867+099767FM-12+040199999V0209999C000019999999N004000199+01561+01511101161ADDAY101021AY201021GF100995999999999999999999MA1999990096431MD1710091-0011MW1101REMSYN06448304 31940 00000 10156 20151 39643 40116 57009 71000 333 59001=
0213483040999992014021800004+19867+099767FM-12+040199999V0209999C000019999999N003000199+01501+01461101351ADDAY101021AY201021GA1999+999991001GF102991001990999999991991KA1120N+01481MA1999990096601MD1210181-0041MW1101REMSYN07648304 31930 20000 10150 20146 39660 40135 52018 71000 80001 333 20148 59004=EQDQ01    003SCCGA1
