0141527870999992014010100004+37200+102867FM-12+304499999V0201601N004019999999N030000199-01001-02981999999ADDGA1011+999991991GF101991011990999999991991MA1999990069841MD1710041+9990REMSYN05852787 32980 11604 11100 21298 36984 57004 81/// 333 05503=
0131527870999992014010103004+37200+102867FM-12+304499999V0201601N004019999999N030000199-00601-02841999999ADDGA1071+999991991GF107991071990999999991991MA1999990069881MD1210041+9990REMSYN04852787 32980 71604 11060 21284 36988 52004 87///=
0160527870999992014010106004+37200+102867FM-12+304499999V0203401N005019999999N030000199-00561-02741999999ADDGA1071+999991991GF107991071990999999991991KA1240N-01451MA1999990069711MD1710171+9990REMSYN06452787 32980 73405 11056 21274 36971 57017 87/// 333 05551 21145=
0141527870999992014010109004+37200+102867FM-12+304499999V0203401N007019999999N030000199-00761-02661999999ADDGA1071+999991991GF107991071990999999991991MA1999990069771MD1210061+9990REMSYN05852787 32780 73407 11076 21266 36977 52006 87/// 333 05453=
0141527870999992014010112004+37200+102867FM-12+304499999V0202901N002019999999N030000199-01171-02731999999ADDGA1071+999991991GF107991071990999999991991MA1999990069871MD1210101+9990REMSYN05852787 32980 72902 11117 21273 36987 52010 87/// 333 05352=
0138527870999992014010118004+37200+102867FM-12+304499999V0202901N00501002401CN030000199-01511-02561999999ADDGF109991999999999999999999KA1120M-00441MA1999990069901MD1710051+9990REMSYN05852787 33/80 92905 11151 21256 36990 57005 333 05251 11044=
0119527870999992014010121004+37200+102867FM-12+304499999V0200201N00701002401CN030000199-01361-02401999999ADDGF109991999999999999999999MA1999990069921MD1210021+9990REMSYN05252787 33/80 90207 11136 21240 36992 52002 333 00052=
0141527870999992014010200004+37200+102867FM-12+304499999V0203401N007019999999N030000199-01591-02481999999ADDGA1011+999991991GF101991011990999999991991MA1999990069981MD1210061+9990REMSYN05852787 32780 13407 11159 21248 36998 52006 81/// 333 00156=
0109527870999992014010203004+37200+102867FM-12+304499999V0203201N007019999999N030000199-01151-02521999999ADDGF100995999999999999999999MA1999990070171MD1210191+9990REMSYN04252787 32980 03207 11115 21252 37017 52019=
0138527870999992014010206004+37200+102867FM-12+304499999V0203601N010019999999N030000199-00651-02521999999ADDGF100995999999999999999999KA1240N-01671MA1999990070011MD1710161+9990REMSYN05852787 32980 03610 11065 21252 37001 57016 333 00351 21167=
0119527870999992014010209004+37200+102867FM-12+304499999V0200201N010019999999N030000199-00971-02511999999ADDGF100995999999999999999999MA1999990070171MD1210161+9990REMSYN05252787 32980 00210 11097 21251 37017 52016 333 00452=
0119527870999992014010212004+37200+102867FM-12+304499999V0203201N006019999999N030000199-01501-02501999999ADDGF100995999999999999999999MA1999990070361MD1210191+9990REMSYN05252787 32980 03206 11150 21250 37036 52019 333 00553=
0138527870999992014010218004+37200+102867FM-12+304499999V0203601N00401002401CN030000199-01051-02811999999ADDGF109991999999999999999999KA1120M-00641MA1999990070321MD1710031+9990REMSYN05852787 33/80 93604 11105 21281 37032 57003 333 00405 11064=
0119527870999992014010221004+37200+102867FM-12+304499999V0200201N00701002401CN030000199-01001-02871999999ADDGF109991999999999999999999MA1999990070261MD1710061+9990REMSYN05252787 33/80 90207 11100 21287 37026 57006 333 00304=
0119527870999992014010300004+37200+102867FM-12+304499999V0203201N003019999999N030000199-01331-02831999999ADDGF100995999999999999999999MA1999990070261MD1410001+9990REMSYN05252787 32980 03203 11133 21283 37026 54000 333 00303=
0131527870999992014010303004+37200+102867FM-12+304499999V0203601N006019999999N030000199-00691-02921999999ADDGA1071+999991991GF107991071990999999991991MA1999990070351MD1210091+9990REMSYN04852787 32980 73606 11069 21292 37035 52009 87///=
0160527870999992014010306004+37200+102867FM-12+304499999V0200201N009019999999N030000199-00621-02791999999ADDGA1071+999991991GF107991071990999999991991KA1240N-01531MA1999990070211MD1710141+9990REMSYN06452787 32980 70209 11062 21279 37021 57014 87/// 333 00200 21153=
0141527870999992014010309004+37200+102867FM-12+304499999V0200201N004019999999N030000199-00711-02681999999ADDGA1071+999991991GF107991071990999999991991MA1999990070291MD1210081+9990REMSYN05852787 32980 70204 11071 21268 37029 52008 87/// 333 00103=
0141527870999992014010312004+37200+102867FM-12+304499999V0202501N002019999999N030000199-01001-02721999999ADDGA1071+999991991GF107991071990999999991991MA1999990070411MD1210121+9990REMSYN05852787 32980 72502 11100 21272 37041 52012 87/// 333 00105=
0138527870999992014010318004+37200+102867FM-12+304499999V0203401N00301002401CN030000199-01101-02411999999ADDGF109991999999999999999999KA1120M-00561MA1999990070231MD1710111+9990REMSYN05852787 33/80 93403 11110 21241 37023 57011 333 05151 11056=
0119527870999992014010321004+37200+102867FM-12+304499999V0203201N00201002401CN030000199-01271-02521999999ADDGF109991999999999999999999MA1999990070171MD1710061+9990REMSYN05252787 33/80 93202 11127 21252 37017 57006 333 05153=
0119527870999992014010400004+37200+102867FM-12+304499999V0202701N004019999999N030000199-01081-02741999999ADDGF100995999999999999999999MA1999990070121MD1710051+9990REMSYN05252787 32980 02704 11108 21274 37012 57005 333 05103=
0109527870999992014010403004+37200+102867FM-12+304499999V0201401N003019999999N030000199-00691-02781999999ADDGF100995999999999999999999MA1999990070111MD1710011+9990REMSYN04252787 32980 01403 11069 21278 37011 57001=
0138527870999992014010406004+37200+102867FM-12+304499999V0201801N003019999999N030000199-00221-02781999999ADDGF100995999999999999999999KA1240N-01411MA1999990069861MD1710251+9990REMSYN05852787 32980 01803 11022 21278 36986 57025 333 05404 21141=
0119527870999992014010409004+37200+102867FM-12+304499999V0203601N004019999999N030000199-00341-02791999999ADDGF100995999999999999999999MA1999990069871MD1210011+9990REMSYN05252787 32980 03604 11034 21279 36987 52001 333 05404=
0119527870999992014010412004+37200+102867FM-12+304499999V0202901N002019999999N030000199-01001-02761999999ADDGF100995999999999999999999MA1999990069951MD1210081+9990REMSYN05252787 32980 02902 11100 21276 36995 52008 333 05500=
0138527870999992014010418004+37200+102867FM-12+304499999V0201601N00601002401CN030000199-01301-02761999999ADDGF109991999999999999999999KA1120M-00151MA1999990069781MD1710121+9990REMSYN05852787 33/80 91606 11130 21276 36978 57012 333 05552 11015=
0119527870999992014010421004+37200+102867FM-12+304499999V0201601N00501002401CN030000199-01191-02711999999ADDGF109991999999999999999999MA1999990069681MD1710101+9990REMSYN05252787 33/80 91605 11119 21271 36968 57010 333 05501=
0119527870999992014010500004+37200+102867FM-12+304499999V0201601N006019999999N023000199-01201-02711999999ADDGF100995999999999999999999MA1999990069651MD1710031+9990REMSYN05252787 32973 01606 11120 21271 36965 57003 333 05551=
0109527870999992014010503004+37200+102867FM-12+304499999V0201401N009019999999N030000199-00321-02611999999ADDGF100995999999999999999999MA1999990069671MD1210021+9990REMSYN04252787 32980 01409 11032 21261 36967 52002=
0160527870999992014010506004+37200+102867FM-12+304499999V0203201N006019999999N030000199-00221-02531999999ADDGA1051+999991991GF105991051990999999991991KA1240N-01361MA1999990069441MD1710231+9990REMSYN06452787 32980 53206 11022 21253 36944 57023 85/// 333 05400 21136=
0141527870999992014010509004+37200+102867FM-12+304499999V0203201N009019999999N030000199-00671-02591999999ADDGA1071+999991991GF107991071990999999991991MA1999990069481MD1210041+9990REMSYN05852787 32980 73209 11067 21259 36948 52004 87/// 333 05453=
0141527870999992014010512004+37200+102867FM-12+304499999V0202901N004019999999N030000199-01191-02391999999ADDGA1071+999991991GF107991071990999999991991MA1999990069601MD1210121+9990REMSYN05852787 32980 72904 11119 21239 36960 52012 87/// 333 05452=
0138527870999992014010518004+37200+102867FM-12+304499999V0203201N00201002401CN030000199-01271-02491999999ADDGF109991999999999999999999KA1120M-00021MA1999990069451MD1710191+9990REMSYN05852787 33/80 93202 11127 21249 36945 57019 333 05300 11002=
0119527870999992014010521004+37200+102867FM-12+304499999V0203201N00501002401CN030000199-01491-02491999999ADDGF109991999999999999999999MA1999990069471MD1210021+9990REMSYN05252787 33/80 93205 11149 21249 36947 52002 333 05253=
0141527870999992014010600004+37200+102867FM-12+304499999V0203401N004019999999N030000199-01621-02511999999ADDGA1031+999991991GF103991031990999999991991MA1999990069571MD1210101+9990REMSYN05852787 32980 33404 11162 21251 36957 52010 83/// 333 05154=
0109527870999992014010603004+37200+102867FM-12+304499999V0203201N007019999999N030000199-01231-02361999999ADDGF100995999999999999999999MA1999990069701MD1210131+9990REMSYN04252787 32980 03207 11123 21236 36970 52013=
0160527870999992014010606004+37200+102867FM-12+304499999V0203601N010019999999N030000199-01061-02441999999ADDGA1071+999991991GF107991071990999999991991KA1240N-01711MA1999990069571MD1710131+9990REMSYN06452787 32980 73610 11106 21244 36957 57013 87/// 333 00158 21171=
0141527870999992014010609004+37200+102867FM-12+304499999V0203401N010019999999N030000199-01291-02311999999ADDGA1071+999991991GF107991071990999999991991MA1999990069641MD1210071+9990REMSYN05852787 32980 73410 11129 21231 36964 52007 87/// 333 00256=
0141527870999992014010612004+37200+102867FM-12+304499999V0203601N009019999999N030000199-01541-02411999999ADDGA1071+999991991GF107991071990999999991991MA1999990069831MD1210191+9990REMSYN05852787 32980 73609 11154 21241 36983 52019 87/// 333 00254=
0138527870999992014010618004+37200+102867FM-12+304499999V0203401N00201002401CN030000199-01781-02321999999ADDGF109991999999999999999999KA1120M-00941MA1999990069891MD1710021+9990REMSYN05852787 33/80 93402 11178 21232 36989 57002 333 00455 11094=
0119527870999992014010621004+37200+102867FM-12+304499999V0203201N00201002401CN030000199-01521-02281999999ADDGF109991999999999999999999MA1999990069901MD1210011+9990REMSYN05252787 33/80 93202 11152 21228 36990 52001 333 00400=
0141527870999992014010700004+37200+102867FM-12+304499999V0203201N005019999999N030000199-01541-02211999999ADDGA1071+999991991GF107991071990999999991991MA1999990069951MD1210051+9990REMSYN05852787 32780 73205 11154 21221 36995 52005 87/// 333 00401=
0131527870999992014010703004+37200+102867FM-12+304499999V0203201N006019999999N030000199-01851-02241999999ADDGA1071+999991991GF107991071990999999991991MA1999990070091MD1210141+9990REMSYN04852787 32980 73206 11185 21224 37009 52014 87///=
0160527870999992014010706004+37200+102867FM-12+304499999V0203401N008019999999N020000199-01691-02201999999ADDGA1071+999991991GF107991071990999999991991KA1240N-01991MA1999990070001MD1710091+9990REMSYN06452787 32970 73408 11169 21220 37000 57009 87/// 333 00456 21199=
0141527870999992014010709004+37200+102867FM-12+304499999V0203601N009019999999N030000199-01621-02211999999ADDGA1071+999991991GF107991071990999999991991MA1999990070161MD1210161+9990REMSYN05852787 32980 73609 11162 21221 37016 52016 87/// 333 00553=
0186527870999992014010712004+37200+102867FM-12+304499999V0203601N008019999999N030000199-01881-02271999999ADDAA106000021AY171021AY201021GA1071+999991991GF107991071990999999991991MA1999990070351MD1210191+9990MW1701REMSYN07052787 11780 73608 11188 21227 37035 52019 69901 77070 87/// 333 00553=
0138527870999992014010718004+37200+102867FM-12+304499999V0203601N00101002401CN030000199-01931-02401999999ADDGF109991999999999999999999KA1120M-01351MA1999990070301MD1710151+9990REMSYN05852787 32/80 93601 11193 21240 37030 57015 333 00452 11135=
0147527870999992014010721004+37200+102867FM-12+304499999V0201601N00501002401CN030000199-02061-02471999999ADDAY171021AY201021GF109991999999999999999999MA1999990070181MD1710121+9990MW1001REMSYN05852787 31/80 91605 11206 21247 37018 57012 70070 333 00355=
0153527870999992014010800004+37200+102867FM-12+304499999V0201401N002019999999N030000199-02111-02401999999ADDAA112000021AA224000021GF100995999999999999999999MA1999990070181MD1410001+9990REMSYN06452787 12980 01402 11211 21240 37018 54000 69902 333 00256 79999=
0109527870999992014010803004+37200+102867FM-12+304499999V0203201N001019999999N030000199-01571-02021999999ADDGF100995999999999999999999MA1999990070271MD1210091+9990REMSYN04252787 32980 03201 11157 21202 37027 52009=
0138527870999992014010806004+37200+102867FM-12+304499999V0203201N004019999999N030000199-01141-02221999999ADDGF100995999999999999999999KA1240N-02271MA1999990070061MD1710211+9990REMSYN05852787 32980 03204 11114 21222 37006 57021 333 00106 21227=
0119527870999992014010809004+37200+102867FM-12+304499999V0203401N002019999999N030000199-01151-02181999999ADDGF100995999999999999999999MA1999990070101MD1210041+9990REMSYN05252787 32980 03402 11115 21218 37010 52004 333 05105=
0119527870999992014010812004+37200+102867FM-12+304499999V0201401N007019999999N030000199-01561-02291999999ADDGF100995999999999999999999MA1999990070151MD1210051+9990REMSYN05252787 32980 01407 11156 21229 37015 52005 333 05203=
0138527870999992014010818004+37200+102867FM-12+304499999V0201601N00801002401CN030000199-02011-02381999999ADDGF109991999999999999999999KA1120M-01021MA1999990069941MD1710151+9990REMSYN05852787 32/80 91608 11201 21238 36994 57015 333 05451 11102=
0119527870999992014010821004+37200+102867FM-12+304499999V0201601N00501002401CN030000199-02011-02421999999ADDGF109991999999999999999999MA1999990069821MD1710121+9990REMSYN05252787 32/80 91605 11201 21242 36982 57012 333 05401=
0119527870999992014010900004+37200+102867FM-12+304499999V0201401N003019999999N030000199-01871-02301999999ADDGF100995999999999999999999MA1999990069791MD1710031+9990REMSYN05252787 32980 01403 11187 21230 36979 57003 333 05402=
0109527870999992014010903004+37200+102867FM-12+304499999V0201601N003019999999N029000199-01131-02161999999ADDGF100995999999999999999999MA1999990069841MD1210051+9990REMSYN04252787 32979 01603 11113 21216 36984 52005=
0141527870999992014010909004+37200+102867FM-12+304499999V0201801N002019999999N030000199-00621-02341999999ADDGA1071+999991991GF107991071990999999991991MA1999990069731MD1210101+9990REMSYN05852787 32980 71802 11062 21234 36973 52010 87/// 333 05405=
0141527870999992014010912004+37200+102867FM-12+304499999V0203201N006019999999N030000199-01371-02411999999ADDGA1071+999991991GF107991071990999999991991MA1999990069911MD1210181+9990REMSYN05852787 32980 73206 11137 21241 36991 52018 87/// 333 05202=
0138527870999992014010918004+37200+102867FM-12+304499999V0203201N00301002401CN030000199-01231-02591999999ADDGF109991999999999999999999KA1120M-00361MA1999990069921MD1710071+9990REMSYN05852787 32/80 93203 11123 21259 36992 57007 333 00008 11036=
0119527870999992014010921004+37200+102867FM-12+304499999V0202701N00101002401CN030000199-01251-02721999999ADDGF109991999999999999999999MA1999990069901MD1710021+9990REMSYN05252787 32/80 92701 11125 21272 36990 57002 333 00108=
0141527870999992014011000004+37200+102867FM-12+304499999V0201601N003019999999N030000199-01471-02641999999ADDGA1071+999991991GF107991071990999999991991MA1999990069991MD1210091+9990REMSYN05852787 32980 71603 11147 21264 36999 52009 87/// 333 00204=
0131527870999992014011003004+37200+102867FM-12+304499999V0201801N005019999999N030000199-01031-02411999999ADDGA1071+999991991GF107991071990999999991991MA1999990070071MD1210081+9990REMSYN04852787 32980 71805 11103 21241 37007 52008 87///=
0160527870999992014011006004+37200+102867FM-12+304499999V0201601N009019999999N030000199-00781-02921999999ADDGA1071+999991991GF107991071990999999991991KA1240N-01591MA1999990069871MD1710201+9990REMSYN06452787 32980 71609 11078 21292 36987 57020 87/// 333 00252 21159=
0141527870999992014011009004+37200+102867FM-12+304499999V0203201N004019999999N029000199-01221-02271999999ADDGA1071+999991991GF107991071990999999991991MA1999990069981MD1210111+9990REMSYN05852787 32979 73204 11122 21227 36998 52011 87/// 333 00356=
0141527870999992014011012004+37200+102867FM-12+304499999V0202701N002019999999N030000199-01621-02331999999ADDGA1071+999991991GF107991071990999999991991MA1999990070201MD1210221+9990REMSYN05852787 32980 72702 11162 21233 37020 52022 87/// 333 00353=
0138527870999992014011018004+37200+102867FM-12+304499999V0202901N00801002401CN030000199-01871-02411999999ADDGF109991999999999999999999KA1120M-00691MA1999990070281MD1410001+9990REMSYN05852787 32/80 92908 11187 21241 37028 54000 333 00456 11069=
0119527870999992014011021004+37200+102867FM-12+304499999V0203601N00801002401CN030000199-01621-02481999999ADDGF109991999999999999999999MA1999990070261MD1710021+9990REMSYN05252787 32/80 93608 11162 21248 37026 57002 333 00454=
0119527870999992014011100004+37200+102867FM-12+304499999V0203401N007019999999N030000199-01881-02471999999ADDGF100995999999999999999999MA1999990070331MD1210071+9990REMSYN05252787 32980 03407 11188 21247 37033 52007 333 00354=
0109527870999992014011103004+37200+102867FM-12+304499999V0203401N006019999999N030000199-01541-02431999999ADDGF100995999999999999999999MA1999990070551MD1210221+9990REMSYN04252787 32980 03406 11154 21243 37055 52022=
0160527870999992014011106004+37200+102867FM-12+304499999V0203601N008019999999N030000199-01261-02511999999ADDGA1071+999991991GF107991071990999999991991KA1240N-01961MA1999990070451MD1710101+9990REMSYN06452787 32980 73608 11126 21251 37045 57010 87/// 333 00655 21196=
0141527870999992014011109004+37200+102867FM-12+304499999V0200201N006019999999N030000199-01321-02511999999ADDGA1071+999991991GF107991071990999999991991MA1999990070511MD1210061+9990REMSYN05852787 32980 70206 11132 21251 37051 52006 87/// 333 00551=
0119527870999992014011112004+37200+102867FM-12+304499999V0202901N004019999999N030000199-01831-02611999999ADDGF100995999999999999999999MA1999990070651MD1210141+9990REMSYN05252787 32980 02904 11183 21261 37065 52014 333 00552=
0138527870999992014011118004+37200+102867FM-12+304499999V0201401N00201002401CN030000199-01701-02491999999ADDGF109991999999999999999999KA1120M-01131MA1999990070551MD1710091+9990REMSYN05852787 32/80 91402 11170 21249 37055 57009 333 00302 11113=
0119527870999992014011121004+37200+102867FM-12+304499999V0202901N00301002401CN030000199-01871-02581999999ADDGF109991999999999999999999MA1999990070491MD1710061+9990REMSYN05252787 32/80 92903 11187 21258 37049 57006 333 00253=
0119527870999992014011200004+37200+102867FM-12+304499999V0201101N002019999999N030000199-01691-02441999999ADDGF100995999999999999999999MA1999990070531MD1210041+9990REMSYN05252787 32980 01102 11169 21244 37053 52004 333 00202=
0131527870999992014011203004+37200+102867FM-12+304499999V0201401N001019999999N030000199-00981-02331999999ADDGA1071+999991991GF107991071990999999991991MA1999990070621MD1210091+9990REMSYN04852787 32980 71401 11098 21233 37062 52009 87///=
0160527870999992014011206004+37200+102867FM-12+304499999V0203601N002019999999N030000199-00681-02491999999ADDGA1071+999991991GF107991071990999999991991KA1240N-01961MA1999990070461MD1710161+9990REMSYN06452787 32980 73602 11068 21249 37046 57016 87/// 333 00006 21196=
0141527870999992014011209004+37200+102867FM-12+304499999V0203201N006019999999N030000199-00981-02911999999ADDGA1031+999991991GF103991031990999999991991MA1999990070461MD1410001+9990REMSYN05852787 32980 33206 11098 21291 37046 54000 83/// 333 05103=
0119527870999992014011212004+37200+102867FM-12+304499999V0201601N005019999999N004100199-01311-02501999999ADDGF100995999999999999999999MA1999990070481MD1210021+9990REMSYN05252787 32941 01605 11131 21250 37048 52002 333 05205=
0138527870999992014011218004+37200+102867FM-12+304499999V0203201N00101002401CN030000199-01291-02421999999ADDGF109991999999999999999999KA1120M-00661MA1999990070261MD1710131+9990REMSYN05852787 32/80 93201 11129 21242 37026 57013 333 05304 11066=
0119527870999992014011221004+37200+102867FM-12+304499999V0203401N00601002401CN030000199-01221-02651999999ADDGF109991999999999999999999MA1999990070111MD1710151+9990REMSYN05252787 32/80 93406 11122 21265 37011 57015 333 05407=
0119527870999992014011300004+37200+102867FM-12+304499999V0202701N006019999999N030000199-01091-02791999999ADDGF100995999999999999999999MA1999990070101MD1710011+9990REMSYN05252787 32980 02706 11109 21279 37010 57001 333 05406=
0109527870999992014011303004+37200+102867FM-12+304499999V0202701N008019999999N030000199-00651-02751999999ADDGF100995999999999999999999MA1999990070091MD1710011+9990REMSYN04252787 32980 02708 11065 21275 37009 57001=
0138527870999992014011306004+37200+102867FM-12+304499999V0202901N008019999999N030000199-00251-02711999999ADDGF100995999999999999999999KA1240N-01651MA1999990069861MD1710231+9990REMSYN05852787 32980 02908 11025 21271 36986 57023 333 05604 21165=
0119527870999992014011309004+37200+102867FM-12+304499999V0203601N007019999999N030000199-00531-03121999999ADDGF100995999999999999999999MA1999990069971MD1210111+9990REMSYN05252787 32980 03607 11053 21312 36997 52011 333 05505=
0119527870999992014011312004+37200+102867FM-12+304499999V0203201N004019999999N030000199-01161-02851999999ADDGF100995999999999999999999MA1999990070111MD1210141+9990REMSYN05252787 32980 03204 11116 21285 37011 52014 333 05402=
0138527870999992014011318004+37200+102867FM-12+304499999V0201601N00201002401CN030000199-01031-02951999999ADDGF109991999999999999999999KA1120M-00191MA1999990070161MD1210011+9990REMSYN05852787 32/80 91602 11103 21295 37016 52001 333 05103 11019=
0119527870999992014011321004+37200+102867FM-12+304499999V0201401N00301002401CN030000199-01231-02961999999ADDGF109991999999999999999999MA1999990070141MD1710021+9990REMSYN05252787 32/80 91403 11123 21296 37014 57002 333 00000=
0119527870999992014011400004+37200+102867FM-12+304499999V0201401N002019999999N030000199-01261-02941999999ADDGF100995999999999999999999MA1999990070191MD1210051+9990REMSYN05252787 32980 01402 11126 21294 37019 52005 333 00152=
0131527870999992014011403004+37200+102867FM-12+304499999V0201601N005019999999N030000199-00621-02661999999ADDGA1011+999991991GF101991011990999999991991MA1999990070241MD1210051+9990REMSYN04852787 32980 11605 11062 21266 37024 52005 81///=
0138527870999992014011406004+37200+102867FM-12+304499999V0201601N008019999999N030000199-00331-02551999999ADDGF100995999999999999999999KA1240N-01401MA1999990070091MD1710151+9990REMSYN05852787 32980 01608 11033 21255 37009 57015 333 00251 21140=
0141527870999992014011409004+37200+102867FM-12+304499999V0201601N007019999999N017000199-00411-02431999999ADDGA1021+999991991GF102991021990999999991991MA1999990070091MD1410001+9990REMSYN05852787 32967 21607 11041 21243 37009 54000 82/// 333 00101=
0119527870999992014011412004+37200+102867FM-12+304499999V0201801N007019999999N030000199-00901-02341999999ADDGF100995999999999999999999MA1999990070151MD1210061+9990REMSYN05252787 32980 01807 11090 21234 37015 52006 333 00003=
0138527870999992014011418004+37200+102867FM-12+304499999V0201801N00601002401CN030000199-01201-02341999999ADDGF109991999999999999999999KA1120M-00281MA1999990070051MD1710071+9990REMSYN05852787 32/80 91806 11120 21234 37005 57007 333 05152 11028=
0119527870999992014011421004+37200+102867FM-12+304499999V0203401N00401002401CN030000199-01511-02651999999ADDGF109991999999999999999999MA1999990070001MD1710051+9990REMSYN05252787 32/80 93404 11151 21265 37000 57005 333 05153=
0141527870999992014011500004+37200+102867FM-12+304499999V0203201N008019999999N030000199-01431-02731999999ADDGA1021+999991991GF102991021990999999991991MA1999990070011MD1210011+9990REMSYN05852787 32980 23208 11143 21273 37001 52001 82/// 333 05252=
0109527870999992014011503004+37200+102867FM-12+304499999V0203401N009019999999N030000199-00851-02641999999ADDGF100995999999999999999999MA1999990070151MD1210141+9990REMSYN04252787 32980 03409 11085 21264 37015 52014=
0138527870999992014011506004+37200+102867FM-12+304499999V0200201N008019999999N030000199-00521-02641999999ADDGF100995999999999999999999KA1240N-01561MA1999990070031MD1710121+9990REMSYN05852787 32980 00208 11052 21264 37003 57012 333 05152 21156=
0119527870999992014011509004+37200+102867FM-12+304499999V0203601N006019999999N030000199-00591-02841999999ADDGF100995999999999999999999MA1999990070141MD1210111+9990REMSYN05252787 32980 03606 11059 21284 37014 52011 333 00152=
0119527870999992014011512004+37200+102867FM-12+304499999V0203601N002019999999N030000199-01021-02731999999ADDGF100995999999999999999999MA1999990070261MD1210121+9990REMSYN05252787 32980 03602 11102 21273 37026 52012 333 00151=
0138527870999992014011518004+37200+102867FM-12+304499999V0202501N00501002401CN030000199-01021-02641999999ADDGF109991999999999999999999KA1120M-00301MA1999990070291MD1710041+9990REMSYN05852787 32/80 92505 11102 21264 37029 57004 333 00202 11030=
0119527870999992014011521004+37200+102867FM-12+304499999V0202201N00101002401CN030000199-01041-02541999999ADDGF109991999999999999999999MA1999990070271MD1710021+9990REMSYN05252787 32/80 92201 11104 21254 37027 57002 333 00305=
0119527870999992014011600004+37200+102867FM-12+304499999V0209999C999999999999N030000199-00981-02521999999ADDGF100995999999999999999999MA1999990070281MD1210011+9990REMSYN05252787 32980 00000 11098 21252 37028 52001 333 00305=
0109527870999992014011603004+37200+102867FM-12+304499999V0201601N00201002401CN030000199-00491-02441999999ADDGF109991990990999999991991MA1999990070351MD1210071+9990REMSYN04252787 32980 91602 11049 21244 37035 52007=
0138527870999992014011606004+37200+102867FM-12+304499999V0203601N008019999999N030000199-00181-02231999999ADDGF100995999999999999999999KA1240N-01191MA1999990070211MD1710141+9990REMSYN05852787 32980 03608 11018 21223 37021 57014 333 00203 21119=
0119527870999992014011609004+37200+102867FM-12+304499999V0200201N007019999999N030000199-00491-02141999999ADDGF100995999999999999999999MA1999990070381MD1210171+9990REMSYN05252787 32980 00207 11049 21214 37038 52017 333 00201=
0119527870999992014011612004+37200+102867FM-12+304499999V0203201N003019999999N030000199-01061-02271999999ADDGF100995999999999999999999MA1999990070521MD1210141+9990REMSYN05252787 32980 03203 11106 21227 37052 52014 333 00300=
0138527870999992014011618004+37200+102867FM-12+304499999V0200901N00201002401CN030000199-01011-02291999999ADDGF109991999999999999999999KA1120M-00101MA1999990070521MD1710051+9990REMSYN05852787 32/80 90902 11101 21229 37052 57005 333 00200 11010=
0119527870999992014011621004+37200+102867FM-12+304499999V0201401N00201002401CN030000199-01051-02331999999ADDGF109991999999999999999999MA1999990070491MD1710031+9990REMSYN05252787 32/80 91402 11105 21233 37049 57003 333 00200=
0119527870999992014011700004+37200+102867FM-12+304499999V0201801N002019999999N030000199-00871-02391999999ADDGF100995999999999999999999MA1999990070521MD1210031+9990REMSYN05252787 32980 01802 11087 21239 37052 52003 333 00201=
0109527870999992014011703004+37200+102867FM-12+304499999V0202501N003019999999N030000199-00361-02391999999ADDGF100995999999999999999999MA1999990070591MD1210071+9990REMSYN04252787 32980 02503 11036 21239 37059 52007=
0138527870999992014011706004+37200+102867FM-12+304499999V0201601N006019999999N030000199-00101-02291999999ADDGF100995999999999999999999KA1240N-01431MA1999990070401MD1710191+9990REMSYN05852787 32980 01606 11010 21229 37040 57019 333 00201 21143=
0119527870999992014011709004+37200+102867FM-12+304499999V0201601N005019999999N006000199-00101-02291999999ADDGF100995999999999999999999MA1999990070411MD1210011+9990REMSYN05252787 32956 01605 11010 21229 37041 52001 333 00004=
0119527870999992014011712004+37200+102867FM-12+304499999V0202001N004019999999N008000199-00911-02141999999ADDGF100995999999999999999999MA1999990070511MD1210101+9990REMSYN05252787 32958 02004 11091 21214 37051 52010 333 00002=
0138527870999992014011718004+37200+102867FM-12+304499999V0201601N00401002401CN030000199-00931-02221999999ADDGF109991999999999999999999KA1120M+00031MA1999990070381MD1710111+9990REMSYN05852787 32/80 91604 11093 21222 37038 57011 333 05101 10003=
0119527870999992014011721004+37200+102867FM-12+304499999V0201401N00501002401CN030000199-00951-02381999999ADDGF109991999999999999999999MA1999990070321MD1710061+9990REMSYN05252787 32/80 91405 11095 21238 37032 57006 333 05201=
0119527870999992014011800004+37200+102867FM-12+304499999V0201401N004019999999N019000199-00971-02561999999ADDGF100995999999999999999999MA1999990070261MD1710061+9990REMSYN05252787 32969 01404 11097 21256 37026 57006 333 05351=
0109527870999992014011803004+37200+102867FM-12+304499999V0201601N004019999999N030000199-00021-02371999999ADDGF100995999999999999999999MA1999990070341MD1210081+9990REMSYN04252787 32980 01604 11002 21237 37034 52008=
0138527870999992014011806004+37200+102867FM-12+304499999V0203401N012019999999N030000199-00741-02271999999ADDGF100995999999999999999999KA1240N-01161MA1999990070241MD1710101+9990REMSYN05852787 32980 03412 11074 21227 37024 57010 333 05256 21116=
0119527870999992014011809004+37200+102867FM-12+304499999V0203601N013019999999N030000199-00811-02221999999ADDGF100995999999999999999999MA1999990070311MD1210071+9990REMSYN05252787 32980 03613 11081 21222 37031 52007 333 05157=
0167527870999992014011812004+37200+102867FM-12+304499999V0203601N012019999999N030000199-01131-02221999999ADDGA1071+999991991GF107991071990999999991991MA1999990070411MD1210101+9990OD139901801360REMSYN07052787 32980 73612 11113 21222 37041 52010 87/// 333 05152 91118 91536=
0164527870999992014011818004+37200+102867FM-12+304499999V0203201N00901002401CN030000199-01431-02151999999ADDGF109991999999999999999999KA1120M+00001MA1999990070581MD1210021+9990OD139902201360REMSYN07052787 32/80 93209 11143 21215 37058 52002 333 00255 10000 91122 91536=
0145527870999992014011821004+37200+102867FM-12+304499999V0203601N00901002401CN030000199-01211-02501999999ADDGF109991999999999999999999MA1999990070571MD1710011+9990OD139902201360REMSYN06452787 32/80 93609 11121 21250 37057 57001 333 00353 91122 91536=
0167527870999992014011900004+37200+102867FM-12+304499999V0202901N002019999999N030000199-01301-02241999999ADDGA1071+999991991GF107991071990999999991991MA1999990070631MD1210061+9990OD139901801360REMSYN07052787 32780 72902 11130 21224 37063 52006 87/// 333 00453 91118 91536=
0131527870999992014011903004+37200+102867FM-12+304499999V0203201N003019999999N030000199-01011-02331999999ADDGA1071+999991991GF107991071990999999991991MA1999990070721MD1210091+9990REMSYN04852787 32780 73203 11101 21233 37072 52009 87///=
0160527870999992014011906004+37200+102867FM-12+304499999V0203401N007019999999N030000199-00591-03071999999ADDGA1051+999991991GF105991051990999999991991KA1240N-01491MA1999990070571MD1710151+9990REMSYN06452787 32980 53407 11059 21307 37057 57015 85/// 333 00302 21149=
0119527870999992014011909004+37200+102867FM-12+304499999V0203601N008019999999N030000199-00651-02961999999ADDGF100995999999999999999999MA1999990070661MD1210091+9990REMSYN05252787 32980 03608 11065 21296 37066 52009 333 00402=
0119527870999992014011912004+37200+102867FM-12+304499999V0203601N009019999999N030000199-00851-03371999999ADDGF100995999999999999999999MA1999990070821MD1210161+9990REMSYN05252787 32980 03609 11085 21337 37082 52016 333 00403=
0138527870999992014011918004+37200+102867FM-12+304499999V0203201N00201002401CN030000199-01061-03851999999ADDGF109991999999999999999999KA1120M-00521MA1999990070771MD1710091+9990REMSYN05852787 32/80 93202 11106 21385 37077 57009 333 00204 11052=
0119527870999992014011921004+37200+102867FM-12+304499999V0203201N00201002401CN030000199-01061-03741999999ADDGF109991999999999999999999MA1999990070681MD1710091+9990REMSYN05252787 32/80 93202 11106 21374 37068 57009 333 00102=
0119527870999992014012000004+37200+102867FM-12+304499999V0203401N002019999999N030000199-01141-03601999999ADDGF100995999999999999999999MA1999990070671MD1710011+9990REMSYN05252787 32980 03402 11114 21360 37067 57001 333 00002=
0109527870999992014012003004+37200+102867FM-12+304499999V0203601N003019999999N030000199-00401-03481999999ADDGF100995999999999999999999MA1999990070701MD1210031+9990REMSYN04252787 32980 03603 11040 21348 37070 52003=
0138527870999992014012006004+37200+102867FM-12+304499999V0203401N007019999999N030000199-00161-03301999999ADDGF100995999999999999999999KA1240N-01461MA1999990070531MD1710171+9990REMSYN05852787 32980 03407 11016 21330 37053 57017 333 00004 21146=
0119527870999992014012009004+37200+102867FM-12+304499999V0200201N008019999999N030000199-00341-03181999999ADDGF100995999999999999999999MA1999990070561MD1210031+9990REMSYN05252787 32980 00208 11034 21318 37056 52003 333 05103=
0119527870999992014012012004+37200+102867FM-12+304499999V0203201N004019999999N030000199-00921-03251999999ADDGF100995999999999999999999MA1999990070651MD1210091+9990REMSYN05252787 32980 03204 11092 21325 37065 52009 333 05251=
0138527870999992014012018004+37200+102867FM-12+304499999V0203201N00101002401CN030000199-00981-03231999999ADDGF109991999999999999999999KA1120M-00131MA1999990070591MD1710041+9990REMSYN05852787 32/80 93201 11098 21323 37059 57004 333 05201 11013=
0119527870999992014012021004+37200+102867FM-12+304499999V0202201N00401002401CN030000199-00921-03181999999ADDGF109991999999999999999999MA1999990070531MD1710061+9990REMSYN05252787 32/80 92204 11092 21318 37053 57006 333 05201=
0141527870999992014012100004+37200+102867FM-12+304499999V0203401N002019999999N030000199-01031-03201999999ADDGA1021+999991991GF102991021990999999991991MA1999990070511MD1710021+9990REMSYN05852787 32980 23402 11103 21320 37051 57002 82/// 333 05201=
0109527870999992014012103004+37200+102867FM-12+304499999V0202001N002019999999N030000199-00361-02981999999ADDGF100995999999999999999999MA1999990070551MD1210041+9990REMSYN04252787 32980 02002 11036 21298 37055 52004=
0138527870999992014012106004+37200+102867FM-12+304499999V0201401N005019999999N030000199-00061-03081999999ADDGF100995999999999999999999KA1240N-01031MA1999990070311MD1710241+9990REMSYN05852787 32980 01405 11006 21308 37031 57024 333 05201 21103=
0119527870999992014012109004+37200+102867FM-12+304499999V0202701N005019999999N030000199+00071-03131999999ADDGF100995999999999999999999MA1999990070251MD1710061+9990REMSYN05252787 32980 02705 10007 21313 37025 57006 333 05304=
0119527870999992014012112004+37200+102867FM-12+304499999V0201101N001019999999N030000199-00431-02861999999ADDGF100995999999999999999999MA1999990070281MD1210031+9990REMSYN05252787 32980 01101 11043 21286 37028 52003 333 05405=
0138527870999992014012118004+37200+102867FM-12+304499999V0201801N00101002401CN030000199-00521-03111999999ADDGF109991999999999999999999KA1120M+00191MA1999990070101MD1710121+9990REMSYN05852787 32/80 91801 11052 21311 37010 57012 333 05505 10019=
0119527870999992014012121004+37200+102867FM-12+304499999V0202901N00501002401CN030000199-00171-03171999999ADDGF109991999999999999999999MA1999990069991MD1710111+9990REMSYN05252787 32/80 92905 11017 21317 36999 57011 333 05508=
0119527870999992014012200004+37200+102867FM-12+304499999V0203401N004019999999N030000199-00251-03001999999ADDGF100995999999999999999999MA1999990070031MD1210041+9990REMSYN05252787 32980 03404 11025 21300 37003 52004 333 05508=
0109527870999992014012203004+37200+102867FM-12+304499999V0202201N003019999999N026000199+00301-02811999999ADDGF100995999999999999999999MA1999990070061MD1210031+9990REMSYN04252787 32976 02203 10030 21281 37006 52003=
0138527870999992014012206004+37200+102867FM-12+304499999V0201401N004019999999N023000199+00671-03041999999ADDGF100995999999999999999999KA1240N-00911MA1999990069871MD1710191+9990REMSYN05852787 32973 01404 10067 21304 36987 57019 333 05407 21091=
0119527870999992014012209004+37200+102867FM-12+304499999V0202901N006019999999N027000199+00691-03021999999ADDGF100995999999999999999999MA1999990069861MD1710011+9990REMSYN05252787 32977 02906 10069 21302 36986 57001 333 05406=
0119527870999992014012212004+37200+102867FM-12+304499999V0200901N001019999999N030000199+00101-02721999999ADDGF100995999999999999999999MA1999990069991MD1210131+9990REMSYN05252787 32980 00901 10010 21272 36999 52013 333 05305=
0164527870999992014012218004+37200+102867FM-12+304499999V0203401N00301002401CN030000199+00171-02671999999ADDGF109991999999999999999999KA1120M+00871MA1999990069931MD1710041+9990OD139901701290REMSYN07052787 32/80 93403 10017 21267 36993 57004 333 05207 10087 91117 91529=
0145527870999992014012221004+37200+102867FM-12+304499999V0203401N00201002401CN030000199-00021-02621999999ADDGF109991999999999999999999MA1999990069851MD1710081+9990OD139901701290REMSYN06452787 32/80 93402 11002 21262 36985 57008 333 05102 91117 91529=
0141527870999992014012300004+37200+102867FM-12+304499999V0202701N002019999999N030000199+00111-02711999999ADDGA1071+999991991GF107991071990999999991991MA1999990069801MD1710051+9990REMSYN05852787 32780 72702 10011 21271 36980 57005 87/// 333 05204=
0131527870999992014012303004+37200+102867FM-12+304499999V0201601N004019999999N026000199+00371-02631999999ADDGA1071+999991991GF107991071990999999991991MA1999990069801MD1410001+9990REMSYN04852787 32976 71604 10037 21263 36980 54000 87///=
0160527870999992014012306004+37200+102867FM-12+304499999V0201601N004019999999N020000199+00311-02451999999ADDGA1071+999991991GF107991071990999999991991KA1240N-00411MA1999990069551MD1710251+9990REMSYN06452787 32970 71604 10031 21245 36955 57025 87/// 333 05354 21041=
0141527870999992014012309004+37200+102867FM-12+304499999V0203201N006019999999N021000199-00261-02571999999ADDGA1071+999991991GF107991071990999999991991MA1999990069481MD1710071+9990REMSYN05852787 32971 73206 11026 21257 36948 57007 87/// 333 05460=
0141527870999992014012312004+37200+102867FM-12+304499999V0200201N011019999999N030000199-00551-03131999999ADDGA1071+999991991GF107991071990999999991991MA1999990069731MD1210251+9990REMSYN05852787 32980 70211 11055 21313 36973 52025 87/// 333 05357=
0164527870999992014012318004+37200+102867FM-12+304499999V0203601N01001002401CN030000199-00651-02821999999ADDGF109991999999999999999999KA1120M+00431MA1999990069801MD1710031+9990OD139901801340REMSYN07052787 32/80 93610 11065 21282 36980 57003 333 05158 10043 91118 91534=
0119527870999992014012321004+37200+102867FM-12+304499999V0203401N00701002401CN030000199-00881-02321999999ADDGF109991999999999999999999MA1999990069791MD1710011+9990REMSYN05252787 32/80 93407 11088 21232 36979 57001 333 05159=
0141527870999992014012400004+37200+102867FM-12+304499999V0200201N007019999999N030000199-00791-02171999999ADDGA1071+999991991GF107991071990999999991991MA1999990069941MD1210151+9990REMSYN05852787 32780 70207 11079 21217 36994 52015 87/// 333 00159=
0131527870999992014012403004+37200+102867FM-12+304499999V0203401N007019999999N030000199-00761-02141999999ADDGA1071+999991991GF107991071990999999991991MA1999990070111MD1210171+9990REMSYN04852787 32980 73407 11076 21214 37011 52017 87///=
0160527870999992014012406004+37200+102867FM-12+304499999V0203201N004019999999N030000199-00421-01871999999ADDGA1061+999991991GF106991061990999999991991KA1240N-01001MA1999990069991MD1710121+9990REMSYN06452787 32980 63204 11042 21187 36999 57012 86/// 333 00457 21100=
0141527870999992014012409004+37200+102867FM-12+304499999V0200701N005019999999N012000199-00371-01181999999ADDGA1071+999991991GF107991071990999999991991MA1999990070091MD1210101+9990REMSYN05852787 32762 70705 11037 21118 37009 52010 87/// 333 00651=
0186527870999992014012412004+37200+102867FM-12+304499999V0203601N009019999999N030000199-00611-01601999999ADDAA106000021AY171021AY201021GA1071+999991991GF107991071990999999991991MA1999990070271MD1210181+9990MW1221REMSYN07052787 11780 73609 11061 21160 37027 52018 69901 72270 87/// 333 00551=
0138527870999992014012418004+37200+102867FM-12+304499999V0209999C99999002401CN030000199-00871-01541999999ADDGF109991999999999999999999KA1120M-00181MA1999990070211MD1710081+9990REMSYN05852787 32/80 90000 11087 21154 37021 57008 333 00452 11018=
0119527870999992014012421004+37200+102867FM-12+304499999V0201601N00401002401CN030000199-01151-01631999999ADDGF109991999999999999999999MA1999990070111MD1710101+9990REMSYN05252787 32/80 91604 11115 21163 37011 57010 333 00353=
0136527870999992014012500004+37200+102867FM-12+304499999V0201601N006019999999N030000199-01051-01751999999ADDAA124000021GF100995999999999999999999MA1999990070151MD1210041+9990REMSYN05852787 32980 01606 11105 21175 37015 52004 333 00253 79999=
0109527870999992014012503004+37200+102867FM-12+304499999V0201601N002019999999N030000199-00331-01621999999ADDGF100995999999999999999999MA1999990070271MD1210121+9990REMSYN04252787 32980 01602 11033 21162 37027 52012=
0138527870999992014012506004+37200+102867FM-12+304499999V0203601N008019999999N030000199-00081-01701999999ADDGF100995999999999999999999KA1240N-01211MA1999990070181MD1710091+9990REMSYN05852787 32980 03608 11008 21170 37018 57009 333 00203 21121=
0141527870999992014012509004+37200+102867FM-12+304499999V0203601N008019999999N030000199-00211-01811999999ADDGA1051+999991991GF105991051990999999991991MA1999990070241MD1210061+9990REMSYN05852787 32980 53608 11021 21181 37024 52006 85/// 333 00202=
0119527870999992014012512004+37200+102867FM-12+304499999V0202901N003019999999N030000199-00621-01811999999ADDGF100995999999999999999999MA1999990070431MD1210191+9990REMSYN05252787 32980 02903 11062 21181 37043 52019 333 00200=
0138527870999992014012518004+37200+102867FM-12+304499999V0201601N00601002401CN030000199-01031-01991999999ADDGF109991999999999999999999KA1120M-00041MA1999990070301MD1710111+9990REMSYN05852787 32/80 91606 11103 21199 37030 57011 333 00152 11004=
0119527870999992014012521004+37200+102867FM-12+304499999V0201601N00501002401CN030000199-00811-01921999999ADDGF109991999999999999999999MA1999990070221MD1710081+9990REMSYN05252787 32/80 91605 11081 21192 37022 57008 333 00103=
0119527870999992014012600004+37200+102867FM-12+304499999V0202001N003019999999N030000199-00721-01931999999ADDGF100995999999999999999999MA1999990070181MD1710041+9990REMSYN05252787 32980 02003 11072 21193 37018 57004 333 00003=
0109527870999992014012603004+37200+102867FM-12+304499999V0202901N007019999999N030000199-00031-02241999999ADDGF100995999999999999999999MA1999990070131MD1710051+9990REMSYN04252787 32980 02907 11003 21224 37013 57005=
0138527870999992014012606004+37200+102867FM-12+304499999V0203201N009019999999N030000199+00321-02791999999ADDGF100995999999999999999999KA1240N-01111MA1999990069921MD1710211+9990REMSYN05852787 32980 03209 10032 21279 36992 57021 333 05304 21111=
0119527870999992014012609004+37200+102867FM-12+304499999V0202901N006019999999N030000199+00331-02931999999ADDGF100995999999999999999999MA1999990069861MD1710061+9990REMSYN05252787 32980 02906 10033 21293 36986 57006 333 05405=
0141527870999992014012612004+37200+102867FM-12+304499999V0203401N005019999999N030000199-00101-02361999999ADDGA1071+999991991GF107991071990999999991991MA1999990070021MD1210161+9990REMSYN05852787 32980 73405 11010 21236 37002 52016 87/// 333 05405=
0138527870999992014012618004+37200+102867FM-12+304499999V0203201N00501002401CN030000199-00981-02171999999ADDGF109991999999999999999999KA1120M+00411MA1999990070141MD1210021+9990REMSYN05852787 32/80 93205 11098 21217 37014 52002 333 05201 10041=
0119527870999992014012621004+37200+102867FM-12+304499999V0202901N00401002401CN030000199-01121-02121999999ADDGF109991999999999999999999MA1999990070121MD1710021+9990REMSYN05252787 32/80 92904 11112 21212 37012 57002 333 05153=
0141527870999992014012700004+37200+102867FM-12+304499999V0203201N006019999999N030000199-01081-02141999999ADDGA1021+999991991GF102991021990999999991991MA1999990070171MD1210051+9990REMSYN05852787 32980 23206 11108 21214 37017 52005 82/// 333 00054=
0109527870999992014012703004+37200+102867FM-12+304499999V0203201N003019999999N030000199-00591-02101999999ADDGF100995999999999999999999MA1999990070281MD1210111+9990REMSYN04252787 32980 03203 11059 21210 37028 52011=
0160527870999992014012706004+37200+102867FM-12+304499999V0203201N005019999999N030000199-00171-02011999999ADDGA1071+999991991GF107991071990999999991991KA1240N-01201MA1999990070161MD1710121+9990REMSYN06452787 32980 73205 11017 21201 37016 57012 87/// 333 00255 21120=
0141527870999992014012709004+37200+102867FM-12+304499999V0203201N006019999999N030000199-00541-01811999999ADDGA1071+999991991GF107991071990999999991991MA1999990070261MD1210101+9990REMSYN05852787 32780 73206 11054 21181 37026 52010 87/// 333 00459=
0141527870999992014012712004+37200+102867FM-12+304499999V0203601N012019999999N030000199-00511-02161999999ADDGA1071+999991991GF107991071990999999991991MA1999990070411MD1210151+9990REMSYN05852787 32780 73612 11051 21216 37041 52015 87/// 333 00454=
0138527870999992014012718004+37200+102867FM-12+304499999V0201601N00201002401CN030000199-00901-02071999999ADDGF109991999999999999999999KA1120M+00021MA1999990070361MD1710141+9990REMSYN05852787 32/80 91602 11090 21207 37036 57014 333 00201 10002=
0119527870999992014012721004+37200+102867FM-12+304499999V0201801N00601002401CN030000199-01131-02081999999ADDGF109991999999999999999999MA1999990070231MD1710131+9990REMSYN05252787 32/80 91806 11113 21208 37023 57013 333 00100=
0141527870999992014012800004+37200+102867FM-12+304499999V0201801N005019999999N030000199-00931-02091999999ADDGA1021+999991991GF102991021990999999991991MA1999990070161MD1710071+9990REMSYN05852787 32980 21805 11093 21209 37016 57007 82/// 333 00002=
0131527870999992014012803004+37200+102867FM-12+304499999V0201801N006019999999N030000199-00271-01911999999ADDGA1021+999991991GF102991021990999999991991MA1999990070141MD1710021+9990REMSYN04852787 32980 21806 11027 21191 37014 57002 82///=
0160527870999992014012806004+37200+102867FM-12+304499999V0201601N004019999999N030000199+00201-01981999999ADDGA1021+999991991GF102991021990999999991991KA1240N-01221MA1999990069981MD1710161+9990REMSYN06452787 32980 21604 10020 21198 36998 57016 82/// 333 05204 21122=
0167527870999992014012809004+37200+102867FM-12+304499999V0203401N010019999999N030000199-00091-03112999999ADDGA1021+999991991GF102991021990999999991991MA1999990070021MD1210041+9990OD139901701340REMSYN07052787 32780 23410 11009 21311 37002 52004 82/// 333 05205 91117 91534=
0167527870999992014012812004+37200+102867FM-12+304499999V0201801N002019999999N030000199-00351-03441999999ADDGA1051+999991991GF105991051990999999991991MA1999990070131MD1210111+9990OD139901701340REMSYN07052787 32780 51802 11035 21344 37013 52011 85/// 333 05302 91117 91534=
0138527870999992014012818004+37200+102867FM-12+304499999V0202901N00601002401CN030000199-00281-02661999999ADDGF109991999999999999999999KA1120M+00301MA1999990070091MD1710071+9990REMSYN05852787 32/80 92906 11028 21266 37009 57007 333 05306 10030=
0119527870999992014012821004+37200+102867FM-12+304499999V0203201N00401002401CN030000199-00401-02751999999ADDGF109991999999999999999999MA1999990069991MD1710101+9990REMSYN05252787 32/80 93204 11040 21275 36999 57010 333 05207=
0119527870999992014012900004+37200+102867FM-12+304499999V0202901N008019999999N030000199-00351-02791999999ADDGF100995999999999999999999MA1999990069931MD1710061+9990REMSYN05252787 32980 02908 11035 21279 36993 57006 333 05206=
0109527870999992014012903004+37200+102867FM-12+304499999V0203201N008019999999N030000199+00111-02831999999ADDGF100995999999999999999999MA1999990069941MD1210011+9990REMSYN04252787 32980 03208 10011 21283 36994 52001=
0164527870999992014012906004+37200+102867FM-12+304499999V0203201N011019999999N030000199+00381-02891999999ADDGF100995999999999999999999KA1240N-00521MA1999990069801MD1710141+9990OD139902101290REMSYN07052787 32980 03211 10038 21289 36980 57014 333 05202 21052 91121 91529=
0167527870999992014012909004+37200+102867FM-12+304499999V0203201N011019999999N030000199-00291-02591999999ADDGA1071+999991991GF107991071990999999991991MA1999990069911MD1210111+9990OD139902101320REMSYN07052787 32780 73211 11029 21259 36991 52011 87/// 333 05152 91121 91532=
0167527870999992014012912004+37200+102867FM-12+304499999V0203201N006019999999N030000199-00581-02631999999ADDGA1071+999991991GF107991071990999999991991MA1999990070071MD1210161+9990OD139902101320REMSYN07052787 32980 73206 11058 21263 37007 52016 87/// 333 05152 91121 91532=
0138527870999992014012918004+37200+102867FM-12+304499999V0201401N00201002401CN030000199-00701-02671999999ADDGF109991999999999999999999KA1120M+00441MA1999990070091MD1710071+9990REMSYN05852787 32/80 91402 11070 21267 37009 57007 333 00054 10044=
0119527870999992014012921004+37200+102867FM-12+304499999V0202901N00901002401CN030000199-00111-02521999999ADDGF109991999999999999999999MA1999990069981MD1710111+9990REMSYN05252787 32/80 92909 11011 21252 36998 57011 333 00003=
0145527870999992014013000004+37200+102867FM-12+304499999V0202901N012019999999N030000199-00031-02721999999ADDGF100995999999999999999999MA1999990069971MD1710011+9990OD139901701290REMSYN06452787 32980 02912 11003 21272 36997 57001 333 00003 91117 91529=
0139527870999992014013003004+37200+102867FM-12+304499999V0203201N008019999999N030000199+00321-02791999999ADDGF100995999999999999999999MA1999990070021MD1210051+9990OD139901701290REMSYN05852787 32980 03208 10032 21279 37002 52005 333 91117 91529=
0164527870999992014013006004+37200+102867FM-12+304499999V0202901N008019999999N030000199+00661-03571999999ADDGF100995999999999999999999KA1240N-00771MA1999990069841MD1710181+9990OD139901801290REMSYN07052787 32980 02908 10066 21357 36984 57018 333 00003 21077 91118 91529=
0145527870999992014013009004+37200+102867FM-12+304499999V0202201N004019999999N026000199+00771-03491999999ADDGF100995999999999999999999MA1999990069741MD1710101+9990OD139901801290REMSYN06452787 32976 02204 10077 21349 36974 57010 333 05211 91118 91529=
0119527870999992014013012004+37200+102867FM-12+304499999V0201401N001019999999N030000199+00291-02961999999ADDGF100995999999999999999999MA1999990069751MD1210011+9990REMSYN05252787 32980 01401 10029 21296 36975 52001 333 05309=
0138527870999992014013018004+37200+102867FM-12+304499999V0201401N00301002401CN030000199-00191-02851999999ADDGF109991999999999999999999KA1120M+00841MA1999990069731MD1710051+9990REMSYN05852787 32/80 91403 11019 21285 36973 57005 333 05405 10084=
0119527870999992014013021004+37200+102867FM-12+304499999V0203601N00801002401CN030000199-00041-02631999999ADDGF109991999999999999999999MA1999990069721MD1710011+9990REMSYN05252787 32/80 93608 11004 21263 36972 57001 333 05301=
0119527870999992014013100004+37200+102867FM-12+304499999V0203601N007019999999N030000199-00081-02761999999ADDGF100995999999999999999999MA1999990069801MD1210081+9990REMSYN05252787 32980 03607 11008 21276 36980 52008 333 05251=
0109527870999992014013103004+37200+102867FM-12+304499999V0203201N006019999999N030000199+00111-02611999999ADDGF100995999999999999999999MA1999990069941MD1210141+9990REMSYN04252787 32980 03206 10011 21261 36994 52014=
0138527870999992014013106004+37200+102867FM-12+304499999V0202701N001019999999N024000199+00731-02801999999ADDGF100995999999999999999999KA1240N-00421MA1999990069881MD1710061+9990REMSYN05852787 32974 02701 10073 21280 36988 57006 333 00001 21042=
0167527870999992014013109004+37200+102867FM-12+304499999V0200401N006019999999N030000199+00531-02631999999ADDGA1071+999991991GF107991071990999999991991MA1999990069971MD1210091+9990OD139901901320REMSYN07052787 32780 70406 10053 21263 36997 52009 87/// 333 00252 91119 91532=
0145527870999992014013112004+37200+102867FM-12+304499999V0200901N003019999999N030000199+00051-02761999999ADDGF100995999999999999999999MA1999990070141MD1210171+9990OD139901901320REMSYN06452787 32980 00903 10005 21276 37014 52017 333 00452 91119 91532=
0138527870999992014013118004+37200+102867FM-12+304499999V0201401N00301002401CN030000199-00541-02601999999ADDGF109991999999999999999999KA1120M+00891MA1999990070121MD1710081+9990REMSYN05852787 32/80 91403 11054 21260 37012 57008 333 00454 10089=
0119527870999992014013121004+37200+102867FM-12+304499999V0201601N00601002401CN030000199-00461-02471999999ADDGF109991999999999999999999MA1999990070011MD1710111+9990REMSYN05252787 32/80 91606 11046 21247 37001 57011 333 00354=
0119527870999992014020100004+37200+102867FM-12+304499999V0201801N006019999999N030000199-00261-02571999999ADDGF100995999999999999999999MA1999990070011MD1410001+9990REMSYN05252787 32980 01806 11026 21257 37001 54000 333 00252=
0109527870999992014020103004+37200+102867FM-12+304499999V0201601N002019999999N030000199+00411-02481999999ADDGF100995999999999999999999MA1999990070101MD1210091+9990REMSYN04252787 32980 01602 10041 21248 37010 52009=
0160527870999992014020106004+37200+102867FM-12+304499999V0203401N005019999999N027000199+00621-02571999999ADDGA1021+999991991GF102991021990999999991991KA1240N-00621MA1999990069991MD1710111+9990REMSYN06452787 32677 23405 10062 21257 36999 57011 82/// 333 00151 21062=
0145527870999992014020109004+37200+102867FM-12+304499999V0203601N006019999999N028000199+00451-02691999999ADDGF100995999999999999999999MA1999990070061MD1210071+9990OD139901701340REMSYN06452787 32978 03606 10045 21269 37006 52007 333 00151 91117 91534=
0145527870999992014020112004+37200+102867FM-12+304499999V0201601N003019999999N030000199-00161-02731999999ADDGF100995999999999999999999MA1999990070161MD1210101+9990OD139901701340REMSYN06452787 32980 01603 11016 21273 37016 52010 333 00052 91117 91534=
0138527870999992014020118004+37200+102867FM-12+304499999V0203201N00601002401CN030000199-00201-02671999999ADDGF109991999999999999999999KA1120M+00771MA1999990070061MD1710091+9990REMSYN05852787 32/80 93206 11020 21267 37006 57009 333 05103 10077=
0119527870999992014020121004+37200+102867FM-12+304499999V0203201N00501002401CN030000199+00071-02861999999ADDGF109991999999999999999999MA1999990069951MD1710111+9990REMSYN05252787 32/80 93205 10007 21286 36995 57011 333 05105=
0141527870999992014020200004+37200+102867FM-12+304499999V0202701N003019999999N030000199-00151-02921999999ADDGA1021+999991991GF102991021990999999991991MA1999990069971MD1210021+9990REMSYN05852787 32980 22703 11015 21292 36997 52002 82/// 333 00001=
0109527870999992014020203004+37200+102867FM-12+304499999V0202901N005019999999N030000199+00471-02991999999ADDGF100995999999999999999999MA1999990069991MD1210021+9990REMSYN04252787 32980 02905 10047 21299 36999 52002=
0164527870999992014020206004+37200+102867FM-12+304499999V0202901N013019999999N029000199+00681-03261999999ADDGF100995999999999999999999KA1240N-00661MA1999990069801MD1710191+9990OD139901901290REMSYN07052787 32979 02913 10068 21326 36980 57019 333 05201 21066 91119 91529=
0145527870999992014020209004+37200+102867FM-12+304499999V0202701N007019999999N027000199+00661-03281999999ADDGF100995999999999999999999MA1999990069831MD1210031+9990OD139901901270REMSYN06452787 32977 02707 10066 21328 36983 52003 333 05202 91119 91527=
0145527870999992014020212004+37200+102867FM-12+304499999V0203201N006019999999N030000199-00972-01512999999ADDGF100995999999999999999999MA1999990069961MD1210131+9990OD139901901270REMSYN06452787 32980 03206 11097 21151 36996 52013 333 05258 91119 91527=
0164527870999992014020218004+37200+102867FM-12+304499999V0203601N00801002401CN030000199-00521-02261999999ADDGF109991999999999999999999KA1120M+00761MA1999990070051MD1710041+9990OD139901901360REMSYN07052787 32/80 93608 11052 21226 37005 57004 333 00053 10076 91119 91536=
0145527870999992014020221004+37200+102867FM-12+304499999V0203201N00801002401CN030000199-01071-02031999999ADDGF109991999999999999999999MA1999990070031MD1710021+9990OD139901801020REMSYN06452787 32/80 93208 11107 21203 37003 57002 333 00161 91118 91502=
0119527870999992014020300004+37200+102867FM-12+304499999V0201401N001019999999N030000199-01031-02381999999ADDGF100995999999999999999999MA1999990070061MD1210031+9990REMSYN05252787 32980 01401 11103 21238 37006 52003 333 00159=
0109527870999992014020303004+37200+102867FM-12+304499999V0201601N008019999999N030000199-00381-02001999999ADDGF100995999999999999999999MA1999990070041MD1710021+9990REMSYN04252787 32980 01608 11038 21200 37004 57002=
0138527870999992014020306004+37200+102867FM-12+304499999V0201601N007019999999N024000199-00041-01851999999ADDGF100995999999999999999999KA1240N-01261MA1999990069811MD1710231+9990REMSYN05852787 32974 01607 11004 21185 36981 57023 333 00057 21126=
0119527870999992014020309004+37200+102867FM-12+304499999V0201601N005019999999N023000199-00011-01821999999ADDGF100995999999999999999999MA1999990069751MD1710061+9990REMSYN05252787 32973 01605 11001 21182 36975 57006 333 05157=
0119527870999992014020312004+37200+102867FM-12+304499999V0203401N001019999999N030000199-00911-02171999999ADDGF100995999999999999999999MA1999990069781MD1210031+9990REMSYN05252787 32980 03401 11091 21217 36978 52003 333 05201=
0138527870999992014020318004+37200+102867FM-12+304499999V0201801N01001002401CN030000199-00841-01951999999ADDGF109991999999999999999999KA1120M+00261MA1999990069371MD1710271+9990REMSYN05852787 32/80 91810 11084 21195 36937 57027 333 05753 10026=
0119527870999992014020321004+37200+102867FM-12+304499999V0201601N01101002401CN030000199-01001-01961999999ADDGF109991999999999999999999MA1999990069031MD1710341+9990REMSYN05252787 32/80 91611 11100 21196 36903 57034 333 06001=
0141527870999992014020400004+37200+102867FM-12+304499999V0201601N011019999999N030000199-01111-01941999999ADDGA1071+999991991GF107991071990999999991991MA1999990068831MD1710201+9990REMSYN05852787 32780 71611 11111 21194 36883 57020 87/// 333 06251=
0131527870999992014020403004+37200+102867FM-12+304499999V0201601N010019999999N030000199-00881-01701999999ADDGA1071+999991991GF107991071990999999991991MA1999990068821MD1710011+9990REMSYN04852787 32780 71610 11088 21170 36882 57001 87///=
0160527870999992014020406004+37200+102867FM-12+304499999V0201601N007019999999N025000199-00291-01551999999ADDGA1071+999991991GF107991071990999999991991KA1240N-01181MA1999990068751MD1710071+9990REMSYN06452787 32975 71607 11029 21155 36875 57007 87/// 333 06153 21118=
0141527870999992014020409004+37200+102867FM-12+304499999V0202901N005019999999N030000199-00891-02531999999ADDGA1031+999991991GF103991031990999999991991MA1999990068861MD1210111+9990REMSYN05852787 32980 32905 11089 21253 36886 52011 83/// 333 05959=
0119527870999992014020412004+37200+102867FM-12+304499999V0203201N002019999999N030000199-01481-02711999999ADDGF100995999999999999999999MA1999990069061MD1210201+9990REMSYN05252787 32980 03202 11148 21271 36906 52020 333 05756=
0138527870999992014020418004+37200+102867FM-12+304499999V0201801N01101002401CN030000199-01311-01781999999ADDGF109991999999999999999999KA1120M-00171MA1999990069051MD1710111+9990REMSYN05852787 32/80 91811 11131 21178 36905 57011 333 05355 11017=
0119527870999992014020421004+37200+102867FM-12+304499999V0201601N00501002401CN030000199-01021-01771999999ADDGF109991999999999999999999MA1999990068961MD1710091+9990REMSYN05252787 32/80 91605 11102 21177 36896 57009 333 05100=
0141527870999992014020500004+37200+102867FM-12+304499999V0203201N009019999999N030000199-01711-02641999999ADDGA1071+999991991GF107991071990999999991991MA1999990069051MD1210091+9990REMSYN05852787 32780 73209 11171 21264 36905 52009 87/// 333 00256=
0131527870999992014020503004+37200+102867FM-12+304499999V0203201N002019999999N030000199-01511-02511999999ADDGA1071+999991991GF107991071990999999991991MA1999990069161MD1210111+9990REMSYN04852787 32780 73202 11151 21251 36916 52011 87///=
0160527870999992014020506004+37200+102867FM-12+304499999V0203201N006019999999N023000199-00781-01961999999ADDGA1071+999991991GF107991071990999999991991KA1240N-01761MA1999990069081MD1710081+9990REMSYN06452787 32773 73206 11078 21196 36908 57008 87/// 333 00355 21176=
0141527870999992014020509004+37200+102867FM-12+304499999V0203401N009019999999N030000199-00801-01861999999ADDGA1071+999991991GF107991071990999999991991MA1999990069171MD1210091+9990REMSYN05852787 32980 73409 11080 21186 36917 52009 87/// 333 00301=
0141527870999992014020512004+37200+102867FM-12+304499999V0203201N009019999999N030000199-01361-02021999999ADDGA1071+999991991GF107991071990999999991991MA1999990069311MD1210141+9990REMSYN05852787 32780 73209 11136 21202 36931 52014 87/// 333 00301=
0138527870999992014020518004+37200+102867FM-12+304499999V0201601N00501002401CN025000199-01431-01771999999ADDGF109991999999999999999999KA1120M-00351MA1999990069251MD1710121+9990REMSYN05852787 32/75 91605 11143 21177 36925 57012 333 00251 11035=
0119527870999992014020521004+37200+102867FM-12+304499999V0203201N00801002401CN026000199-01401-02041999999ADDGF109991999999999999999999MA1999990069161MD1710091+9990REMSYN05252787 32/76 93208 11140 21204 36916 57009 333 00254=
0141527870999992014020600004+37200+102867FM-12+304499999V0203401N007019999999N030000199-01341-01961999999ADDGA1081+999991991GF108991081990999999991991MA1999990069241MD1210081+9990REMSYN05852787 32780 83407 11134 21196 36924 52008 88/// 333 00204=
0159527870999992014020603004+37200+102867FM-12+304499999V0203401N009019999999N012000199-01611-01971999999ADDAY171021AY201021GA1081+999991991GF108991081990999999991991MA1999990069361MD1210121+9990MW1701REMSYN05452787 31762 83409 11161 21197 36936 52012 77070 88///=
0205527870999992014020606004+37200+102867FM-12+304499999V0203601N009019999999N018000199-01511-01991999999ADDAA106000021AY171021AY201021GA1071+999991991GF107991071990999999991991KA1240N-01741MA1999990069331MD1710031+9990MW1701REMSYN07652787 11768 73609 11151 21199 36933 57003 69901 77070 87/// 333 00357 21174=
0169527870999992014020609004+37200+102867FM-12+304499999V0203601N010019999999N030000199-01721-02021999999ADDAY171021AY271021GA1081+999991991GF108991081990999999991991MA1999990069521MD1210191+9990MW1701REMSYN06452787 31780 83610 11172 21202 36952 52019 77077 88/// 333 00459=
0218527870999992014020612004+37200+102867FM-12+304499999V0203201N005019999999N030000199-01901-02131999999ADDAA106000131AY171021AY201021GA1071+999991991GF107991071990999999991991MA1999990069761MD1210241+9990MW1001OD139901701360REMSYN08852787 11980 73205 11190 21213 36976 52024 69911 70070 87/// 333 00555 91117 91536 92501=
0138527870999992014020618004+37200+102867FM-12+304499999V0201601N00501002401CN030000199-01591-02071999999ADDGF109991999999999999999999KA1120M-01201MA1999990069591MD1710171+9990REMSYN05852787 32/80 91605 11159 21207 36959 57017 333 00352 11120=
0136527870999992014020621004+37200+102867FM-12+304499999V0201401N00401002401CN030000199-01681-02121999999ADDAA124000131GF109991999999999999999999MA1999990069491MD1710101+9990REMSYN05852787 32/80 91404 11168 21212 36949 57010 333 00353 70001=
0164527870999992014020700004+37200+102867FM-12+304499999V0203201N006019999999N030000199-01391-01911999999ADDAA124000131GA1081+999991991GF108991081990999999991991MA1999990069451MD1710041+9990REMSYN07052787 32780 83206 11139 21191 36945 57004 88/// 333 00251 70001 92501=
0131527870999992014020703004+37200+102867FM-12+304499999V0201401N004019999999N030000199-00821-01671999999ADDGA1071+999991991GF107991071990999999991991MA1999990069461MD1210011+9990REMSYN04852787 32980 71404 11082 21167 36946 52001 87///=
0160527870999992014020706004+37200+102867FM-12+304499999V0201601N004019999999N030000199-00271-01671999999ADDGA1071+999991991GF107991071990999999991991KA1240N-01911MA1999990069231MD1710231+9990REMSYN06452787 32680 71604 11027 21167 36923 57023 87/// 333 05112 21191=
0141527870999992014020709004+37200+102867FM-12+304499999V0202901N001019999999N027000199-00431-01471999999ADDGA1071+999991991GF107991071990999999991991MA1999990069241MD1210011+9990REMSYN05852787 32977 72901 11043 21147 36924 52001 87/// 333 05313=
0141527870999992014020712004+37200+102867FM-12+304499999V0201601N006019999999N019000199-00931-01771999999ADDGA1071+999991991GF107991071990999999991991MA1999990069301MD1210061+9990REMSYN05852787 32969 71606 11093 21177 36930 52006 87/// 333 05510=
0138527870999992014020718004+37200+102867FM-12+304499999V0200901N00101002401CN030000199-01221-01701999999ADDGF109991999999999999999999KA1120M-00121MA1999990069271MD1710071+9990REMSYN05852787 32/80 90901 11122 21170 36927 57007 333 05304 11012=
0119527870999992014020721004+37200+102867FM-12+304499999V0203201N01001002401CN013000199-01661-01871999999ADDGF109991999999999999999999MA1999990069201MD1710071+9990REMSYN05252787 32/63 93210 11166 21187 36920 57007 333 05300=
0141527870999992014020800004+37200+102867FM-12+304499999V0203201N005019999999N012000199-01741-01961999999ADDGA1071+999991991GF107991071990999999991991MA1999990069301MD1210101+9990REMSYN05852787 32762 73205 11174 21196 36930 52010 87/// 333 05254=
0159527870999992014020803004+37200+102867FM-12+304499999V0203201N010019999999N006000199-01661-01891999999ADDAY171021AY201021GA1071+999991991GF107991071990999999991991MA1999990069421MD1210121+9990MW1701REMSYN05452787 31756 73210 11166 21189 36942 52012 77070 87///=
0205527870999992014020806004+37200+102867FM-12+304499999V0203201N009019999999N030000199-01451-01651999999ADDAA106000131AY171021AY201021GA1071+999991991GF107991071990999999991991KA1240N-01781MA1999990069331MD1710091+9990MW1221REMSYN07652787 11780 73209 11145 21165 36933 57009 69911 72270 87/// 333 00162 21178=
0169527870999992014020809004+37200+102867FM-12+304499999V0203201N012019999999N030000199-01761-02001999999ADDAY171021AY201021GA1081+999991991GF108991081990999999991991MA1999990069431MD1210101+9990MW1701REMSYN06452787 41780 83212 11176 21200 36943 52010 77070 88/// 333 00263=
0192527870999992014020812004+37200+102867FM-12+304499999V0203201N006019999999N030000199-01891-02141999999ADDAA106000231AY171021AY201021GA1081+999991991GF108991081990999999991991MA1999990069701MD1210271+9990MW1701REMSYN07652787 11780 83206 11189 21214 36970 52027 69921 77070 88/// 333 00460 92500=
0155527870999992014020818004+37200+102867FM-12+304499999V0201601N00601002401CN030000199-01801-02041999999ADDAA106000631GF109991999999999999999999KA1120M-01231MA1999990069621MD1710111+9990REMSYN06452787 12/80 91606 11180 21204 36962 57011 69961 333 00456 11123=
0136527870999992014020821004+37200+102867FM-12+304499999V0201601N00701002401CN030000199-01891-02141999999ADDAA124001031GF109991999999999999999999MA1999990069511MD1710111+9990REMSYN05852787 42/80 91607 11189 21214 36951 57011 333 00352 70010=
0181527870999992014020900004+37200+102867FM-12+304499999V0201601N003019999999N030000199-01901-02151999999ADDAA106000131AA224001031GA1081+999991991GF108991081990999999991991MA1999990069551MD1210041+9990REMSYN07652787 12780 81603 11190 21215 36955 52004 69911 88/// 333 00352 70010 92501=
0131527870999992014020903004+37200+102867FM-12+304499999V0201601N005019999999N030000199-01741-01981999999ADDGA1071+999991991GF107991071990999999991991MA1999990069561MD1210011+9990REMSYN04852787 32780 71605 11174 21198 36956 52001 87///=
0160527870999992014020906004+37200+102867FM-12+304499999V0202701N002019999999N030000199-01431-01621999999ADDGA1071+999991991GF107991071990999999991991KA1240N-01971MA1999990069491MD1710071+9990REMSYN06452787 32780 72702 11143 21162 36949 57007 87/// 333 00200 21197=
0169527870999992014020909004+37200+102867FM-12+304499999V0203201N006019999999N030000199-01691-01911999999ADDAY171021AY201021GA1071+999991991GF107991071990999999991991MA1999990069621MD1210131+9990MW1701REMSYN06452787 41780 73206 11169 21191 36962 52013 77070 87/// 333 00201=
0186527870999992014020912004+37200+102867FM-12+304499999V0202901N003019999999N030000199-01981-02241999999ADDAA106000131AY171021AY201021GA1071+999991991GF107991071990999999991991MA1999990069801MD1210181+9990MW1001REMSYN07052787 11780 72903 11198 21224 36980 52018 69911 70070 87/// 333 00151=
0138527870999992014020918004+37200+102867FM-12+304499999V0201801N00201002401CN030000199-01901-02151999999ADDGF109991999999999999999999KA1120M-01371MA1999990069781MD1710031+9990REMSYN05852787 32/80 91802 11190 21215 36978 57003 333 00251 11137=
0136527870999992014020921004+37200+102867FM-12+304499999V0203201N00601002401CN030000199-01791-02031999999ADDAA124000131GF109991999999999999999999MA1999990069631MD1710151+9990REMSYN05852787 32/80 93206 11179 21203 36963 57015 333 00101 70001=
0164527870999992014021000004+37200+102867FM-12+304499999V0201601N004019999999N030000199-01841-02091999999ADDAA124000131GA1071+999991991GF107991071990999999991991MA1999990069691MD1210061+9990REMSYN07052787 32980 71604 11184 21209 36969 52006 87/// 333 00101 70001 92501=
0131527870999992014021003004+37200+102867FM-12+304499999V0201801N003019999999N030000199-01281-01461999999ADDGA1071+999991991GF107991071990999999991991MA1999990069701MD1210011+9990REMSYN04852787 32980 71803 11128 21146 36970 52001 87///=
0160527870999992014021006004+37200+102867FM-12+304499999V0203401N008019999999N030000199-01031-01941999999ADDGA1071+999991991GF107991071990999999991991KA1240N-01991MA1999990069571MD1710131+9990REMSYN06452787 32980 73408 11103 21194 36957 57013 87/// 333 00104 21199=
0141527870999992014021009004+37200+102867FM-12+304499999V0203401N008019999999N030000199-01161-01901999999ADDGA1071+999991991GF107991071990999999991991MA1999990069621MD1210051+9990REMSYN05852787 32980 73408 11116 21190 36962 52005 87/// 333 00005=
0186527870999992014021012004+37200+102867FM-12+304499999V0203201N008019999999N030000199-01571-02321999999ADDAA106000131AY171021AY201021GA1081+999991991GF108991081990999999991991MA1999990069791MD1210171+9990MW1701REMSYN07052787 11980 83208 11157 21232 36979 52017 69911 77070 88/// 333 00004=
0155527870999992014021018004+37200+102867FM-12+304499999V0203401N00101002401CN030000199-01511-01961999999ADDAA106000131GF109991999999999999999999KA1120M-00931MA1999990069721MD1710051+9990REMSYN06452787 12/80 93401 11151 21196 36972 57005 69911 333 05104 11093=
0136527870999992014021021004+37200+102867FM-12+304499999V0201101N00101002401CN030000199-01401-02021999999ADDAA124000231GF109991999999999999999999MA1999990069551MD1710171+9990REMSYN05852787 32/80 91101 11140 21202 36955 57017 333 05104 70002=
0181527870999992014021100004+37200+102867FM-12+304499999V0201601N002019999999N030000199-01561-02081999999ADDAA112000131AA224000231GA1071+999991991GF107991071990999999991991MA1999990069511MD1710041+9990REMSYN07652787 12780 71602 11156 21208 36951 57004 69912 87/// 333 05203 70002 92501=
0131527870999992014021103004+37200+102867FM-12+304499999V0201601N006019999999N030000199-00971-01791999999ADDGA1071+999991991GF107991071990999999991991MA1999990069501MD1710011+9990REMSYN04852787 32980 71606 11097 21179 36950 57001 87///=
0160527870999992014021106004+37200+102867FM-12+304499999V0201401N007019999999N030000199-00741-01891999999ADDGA1071+999991991GF107991071990999999991991KA1240N-01731MA1999990069321MD1710181+9990REMSYN06452787 32980 71407 11074 21189 36932 57018 87/// 333 05303 21173=
0141527870999992014021109004+37200+102867FM-12+304499999V0203401N007019999999N030000199-01161-01501999999ADDGA1071+999991991GF107991071990999999991991MA1999990069361MD1210041+9990REMSYN05852787 32780 73407 11116 21150 36936 52004 87/// 333 05300=
0186527870999992014021112004+37200+102867FM-12+304499999V0202901N006019999999N011000199-01411-01631999999ADDAA106000021AY171021AY201021GA1071+999991991GF107991071990999999991991MA1999990069541MD1210181+9990MW1701REMSYN07052787 11761 72906 11141 21163 36954 52018 69901 77070 87/// 333 05302=
0155527870999992014021118004+37200+102867FM-12+304499999V0202901N00101002401CN026000199-01411-01601999999ADDAA106000531GF109991999999999999999999KA1120M-00681MA1999990069631MD1210021+9990REMSYN06452787 12/76 92901 11141 21160 36963 52002 69951 333 05101 11068=
0136527870999992014021121004+37200+102867FM-12+304499999V0201601N00301002401CN030000199-01401-01571999999ADDAA124001231GF109991999999999999999999MA1999990069591MD1710041+9990REMSYN05852787 42/80 91603 11140 21157 36959 57004 333 00000 70012=
0193527870999992014021200004+37200+102867FM-12+304499999V0201601N004019999999N030000199-01421-01591999999ADDAA106001031AA224001731GA1081+999991991GF108991081990999999991991MA1999990069611MD1210021+9990MW1701REMSYN08252787 11980 81604 11142 21159 36961 52002 60011 770// 88/// 333 00101 70017 92502=
0159527870999992014021203004+37200+102867FM-12+304499999V0201601N007019999999N030000199-01301-01581999999ADDAY171021AY271021GA1071+999991991GF107991071990999999991991MA1999990069651MD1210041+9990MW1221REMSYN05452787 41980 71607 11130 21158 36965 52004 72277 87///=
0205527870999992014021206004+37200+102867FM-12+304499999V0203201N005019999999N030000199-01021-01421999999ADDAA106000231AY171021AY201021GA1071+999991991GF107991071990999999991991KA1240N-01521MA1999990069621MD1710031+9990MW1001REMSYN07652787 11980 73205 11102 21142 36962 57003 69921 70070 87/// 333 00353 21152=
0169527870999992014021209004+37200+102867FM-12+304499999V0203401N006019999999N004000199-01171-01441999999ADDAY171021AY201021GA1071+999991991GF107991071990999999991991MA1999990069631MD1210011+9990MW1701REMSYN06452787 31940 73406 11117 21144 36963 52001 77070 87/// 333 00300=
0186527870999992014021212004+37200+102867FM-12+304499999V0203201N004019999999N030000199-01491-01661999999ADDAA106000131AY171021AY201021GA1071+999991991GF107991071990999999991991MA1999990069821MD1210191+9990MW1701REMSYN07052787 11780 73204 11149 21166 36982 52019 69911 77070 87/// 333 00351=
0155527870999992014021218004+37200+102867FM-12+304499999V0201401N00201002401CN030000199-01641-01891999999ADDAA106000231GF109991999999999999999999KA1120M-00841MA1999990069891MD1710031+9990REMSYN06452787 12/80 91402 11164 21189 36989 57003 69921 333 00352 11084=
0136527870999992014021221004+37200+102867FM-12+304499999V0201401N00201002401CN030000199-01691-02001999999ADDAA124001031GF109991999999999999999999MA1999990069771MD1710121+9990REMSYN05852787 42/80 91402 11169 21200 36977 57012 333 00253 70010=
0181527870999992014021300004+37200+102867FM-12+304499999V0200201N001019999999N030000199-01541-01841999999ADDAA112000231AA224000531GA1071+999991991GF107991071990999999991991MA1999990069791MD1210021+9990REMSYN07652787 12980 70201 11154 21184 36979 52002 69922 87/// 333 00251 70005 92502=
0131527870999992014021303004+37200+102867FM-12+304499999V0203201N004019999999N030000199-01241-01751999999ADDGA1021+999991991GF102991021990999999991991MA1999990069861MD1210071+9990REMSYN04852787 32980 23204 11124 21175 36986 52007 82///=
0160527870999992014021306004+37200+102867FM-12+304499999V0203201N005019999999N030000199-00891-01311999999ADDGA1051+999991991GF105991051990999999991991KA1240N-01801MA1999990069741MD1710121+9990REMSYN06452787 32780 53205 11089 21131 36974 57012 85/// 333 00101 21180=
0169527870999992014021309004+37200+102867FM-12+304499999V0203401N007019999999N007000199-01121-01311999999ADDAY101021AY201021GA1071+999991991GF107991071990999999991991MA1999990069801MD1210061+9990MW1701REMSYN06452787 31757 73407 11112 21131 36980 52006 77000 87/// 333 00201=
0186527870999992014021312004+37200+102867FM-12+304499999V0203201N007019999999N030000199-01321-01481999999ADDAA106000731AY171021AY201021GA1081+999991991GF108991081990999999991991MA1999990069931MD1210131+9990MW1701REMSYN07052787 11980 83207 11132 21148 36993 52013 69971 77070 88/// 333 00102=
0155527870999992014021318004+37200+102867FM-12+304499999V0202201N00601002401CN030000199-01531-01731999999ADDAA106000431GF109991999999999999999999KA1120M-00771MA1999990069841MD1710141+9990REMSYN06452787 12/80 92206 11153 21173 36984 57014 69941 333 05101 11077=
0136527870999992014021321004+37200+102867FM-12+304499999V0201601N00201002401CN030000199-01581-01781999999ADDAA124001231GF109991999999999999999999MA1999990069731MD1710111+9990REMSYN05852787 42/80 91602 11158 21178 36973 57011 333 00001 70012=
0159527870999992014021400004+37200+102867FM-12+304499999V0203401N001019999999N030000199-01751-01971999999ADDAA106000131AA224001231GF100995999999999999999999MA1999990069761MD1210031+9990REMSYN07052787 12980 03401 11175 21197 36976 52003 69911 333 00052 70012 92504=
0109527870999992014021403004+37200+102867FM-12+304499999V0201401N002019999999N030000199-01221-01431999999ADDGF100995999999999999999999MA1999990069741MD1710021+9990REMSYN04252787 42980 01402 11122 21143 36974 57002=
0177527870999992014021406004+37200+102867FM-12+304499999V0201601N003019999999N030000199-00891-01191999999ADDAA106000131GA1041+999991991GF104991041990999999991991KA1240N-01811MA1999990069621MD1710121+9990REMSYN07052787 12980 41603 11089 21119 36962 57012 69911 84/// 333 05100 21181=
0141527870999992014021409004+37200+102867FM-12+304499999V0203601N006019999999N030000199-00971-01611999999ADDGA1071+999991991GF107991071990999999991991MA1999990069591MD1710031+9990REMSYN05852787 32980 73606 11097 21161 36959 57003 87/// 333 05202=
0141527870999992014021412004+37200+102867FM-12+304499999V0203601N006019999999N030000199-01121-01901999999ADDGA1081+999991991GF108991081990999999991991MA1999990069701MD1210111+9990REMSYN05852787 32780 83606 11112 21190 36970 52011 88/// 333 05202=
0138527870999992014021418004+37200+102867FM-12+304499999V0201601N00601002401CN030000199-01571-01831999999ADDGF109991999999999999999999KA1120M-00671MA1999990069551MD1710181+9990REMSYN05852787 32/80 91606 11157 21183 36955 57018 333 05300 11067=
0119527870999992014021421004+37200+102867FM-12+304499999V0203201N00201002401CN030000199-01571-01801999999ADDGF109991999999999999999999MA1999990069501MD1710051+9990REMSYN05252787 32/80 93202 11157 21180 36950 57005 333 05200=
0164527870999992014021500004+37200+102867FM-12+304499999V0201601N005019999999N030000199-01511-01741999999ADDAA124000131GA1081+999991991GF108991081990999999991991MA1999990069551MD1210051+9990REMSYN07052787 32780 81605 11151 21174 36955 52005 88/// 333 05202 70001 92504=
0131527870999992014021503004+37200+102867FM-12+304499999V0201101N002019999999N030000199-01071-01591999999ADDGA1071+999991991GF107991071990999999991991MA1999990069631MD1210081+9990REMSYN04852787 32780 71102 11107 21159 36963 52008 87///=
0160527870999992014021506004+37200+102867FM-12+304499999V0203401N005019999999N023000199-00851-01481999999ADDGA1071+999991991GF107991071990999999991991KA1240N-01591MA1999990069591MD1710041+9990REMSYN06452787 32773 73405 11085 21148 36959 57004 87/// 333 00000 21159=
0141527870999992014021509004+37200+102867FM-12+304499999V0203401N006019999999N030000199-01011-01481999999ADDGA1071+999991991GF107991071990999999991991MA1999990069571MD1710021+9990REMSYN05852787 32780 73406 11101 21148 36957 57002 87/// 333 00000=
0141527870999992014021512004+37200+102867FM-12+304499999V0203201N004019999999N030000199-01341-01811999999ADDGA1071+999991991GF107991071990999999991991MA1999990069671MD1210101+9990REMSYN05852787 32980 73204 11134 21181 36967 52010 87/// 333 00052=
0138527870999992014021518004+37200+102867FM-12+304499999V0201401N00701002401CN030000199-01291-01631999999ADDGF109991999999999999999999KA1120M-00711MA1999990069571MD1710131+9990REMSYN05852787 32/80 91407 11129 21163 36957 57013 333 00003 11071=
0136527870999992014021521004+37200+102867FM-12+304499999V0202001N00201002401CN011000199-01371-01561999999ADDAA124000131GF109991999999999999999999MA1999990069471MD1710101+9990REMSYN05852787 42/61 92002 11137 21156 36947 57010 333 00002 70001=
0193527870999992014021600004+37200+102867FM-12+304499999V0203201N005019999999N001000199-01431-01601999999ADDAA106001031AA224001131GA1081+999991991GF108991081990999999991991MA1999990069561MD1210091+9990MW1701REMSYN08252787 11710 83205 11143 21160 36956 52009 60011 770// 88/// 333 00001 70011 92504=
0159527870999992014021603004+37200+102867FM-12+304499999V0203401N006019999999N007000199-01351-01521999999ADDAY171021AY271021GA1071+999991991GF107991071990999999991991MA1999990069621MD1210061+9990MW1701REMSYN05452787 41757 73406 11135 21152 36962 52006 77077 87///=
0205527870999992014021606004+37200+102867FM-12+304499999V0203401N003019999999N011000199-01111-01491999999ADDAA106002031AY171021AY201021GA1071+999991991GF107991071990999999991991KA1240N-01441MA1999990069521MD1710101+9990MW1701REMSYN07652787 11761 73403 11111 21149 36952 57010 60021 77070 87/// 333 05153 21144=
0169527870999992014021609004+37200+102867FM-12+304499999V0203401N003019999999N030000199-01251-01451999999ADDAY171021AY271021GA1081+999991991GF108991081990999999991991MA1999990069611MD1210091+9990MW1701REMSYN06452787 41980 83403 11125 21145 36961 52009 77077 88/// 333 00052=
0186527870999992014021612004+37200+102867FM-12+304499999V0202901N001019999999N030000199-01481-01671999999ADDAA106001031AY171021AY271021GA1081+999991991GF108991081990999999991991MA1999990069771MD1210161+9990MW1701REMSYN07052787 11980 82901 11148 21167 36977 52016 60011 77077 88/// 333 00151=
0155527870999992014021618004+37200+102867FM-12+304499999V0201601N00201002401CN022000199-01681-01891999999ADDAA106000731GF109991999999999999999999KA1120M-01011MA1999990069841MD1710011+9990REMSYN06452787 12/72 91602 11168 21189 36984 57001 69971 333 00354 11101=
0136527870999992014021621004+37200+102867FM-12+304499999V0201601N00101002401CN016000199-01621-01831999999ADDAA124004731GF109991999999999999999999MA1999990069761MD1710081+9990REMSYN05852787 42/66 91601 11162 21183 36976 57008 333 00353 70047=
0181527870999992014021700004+37200+102867FM-12+304499999V0203201N002019999999N015000199-01491-01691999999ADDAA112000731AA224003731GA1081+999991991GF108991081990999999991991MA1999990069831MD1210071+9990REMSYN07652787 12765 83202 11149 21169 36983 52007 69972 88/// 333 00351 70037 92513=
0131527870999992014021703004+37200+102867FM-12+304499999V0202901N003019999999N029000199-00901-01631999999ADDGA1071+999991991GF107991071990999999991991MA1999990069931MD1210101+9990REMSYN04852787 32779 72903 11090 21163 36993 52010 87///=
0160527870999992014021706004+37200+102867FM-12+304499999V0203601N007019999999N030000199-00721-02221999999ADDGA1071+999991991GF107991071990999999991991KA1240N-01761MA1999990069861MD1710071+9990REMSYN06452787 32980 73607 11072 21222 36986 57007 87/// 333 00304 21176=
0141527870999992014021709004+37200+102867FM-12+304499999V0203601N006019999999N030000199-00901-02011999999ADDGA1071+999991991GF107991071990999999991991MA1999990069941MD1210081+9990REMSYN05852787 32780 73606 11090 21201 36994 52008 87/// 333 00304=
0141527870999992014021712004+37200+102867FM-12+304499999V0203601N006019999999N030000199-01061-02121999999ADDGA1081+999991991GF108991081990999999991991MA1999990070181MD1210241+9990REMSYN05852787 32780 83606 11106 21212 37018 52024 88/// 333 00404=
0155527870999992014021718004+37200+102867FM-12+304499999V0203601N00801002401CN030000199-01401-01751999999ADDAA106000731GF109991999999999999999999KA1120M-00711MA1999990070281MD1710041+9990REMSYN06452787 12/80 93608 11140 21175 37028 57004 69971 333 00403 11071=
0136527870999992014021721004+37200+102867FM-12+304499999V0203401N00601002401CN030000199-01461-01811999999ADDAA124000831GF109991999999999999999999MA1999990070161MD1710121+9990REMSYN05852787 42/80 93406 11146 21181 37016 57012 333 00402 70008=
0193527870999992014021800004+37200+102867FM-12+304499999V0203201N005019999999N030000199-01551-01751999999ADDAA106000531AA224001231GA1081+999991991GF108991081990999999991991MA1999990070171MD1210011+9990MW1701REMSYN08252787 11980 83205 11155 21175 37017 52001 69951 770// 88/// 333 00351 70012 92513=
0159527870999992014021803004+37200+102867FM-12+304499999V0203401N003019999999N030000199-01421-01611999999ADDAY171021AY271021GA1071+999991991GF107991071990999999991991MA1999990070221MD1210051+9990MW1701REMSYN05452787 41780 73403 11142 21161 37022 52005 77077 87///=
0205527870999992014021806004+37200+102867FM-12+304499999V0203401N006019999999N030000199-01411-01631999999ADDAA106002031AY171021AY271021GA1071+999991991GF107991071990999999991991KA1240N-01571MA1999990070151MD1710071+9990MW1701REMSYN07652787 11780 73406 11141 21163 37015 57007 60021 77077 87/// 333 00357 21157=
0169527870999992014021809004+37200+102867FM-12+304499999V0203401N005019999999N030000199-01401-01801999999ADDAY171021AY271021GA1071+999991991GF107991071990999999991991MA1999990070191MD1210041+9990MW1221REMSYN06452787 41780 73405 11140 21180 37019 52004 72277 87/// 333 00355=
0186527870999992014021812004+37200+102867FM-12+304499999V0201801N001019999999N030000199-01651-01861999999ADDAA106000331AY171021AY201021GA1071+999991991GF107991071990999999991991MA1999990070271MD1210081+9990MW1001REMSYN07052787 11980 71801 11165 21186 37027 52008 69931 70070 87/// 333 00156=
0138527870999992014021818004+37200+102867FM-12+304499999V0201401N00201002401CN030000199-01741-01981999999ADDGF109991999999999999999999KA1120M-01281MA1999990070091MD1710161+9990REMSYN05852787 32/80 91402 11174 21198 37009 57016 333 05253 11128=
0136527870999992014021821004+37200+102867FM-12+304499999V0203401N00301002401CN030000199-01361-02401999999ADDAA124002331GF109991999999999999999999MA1999990069961MD1710131+9990REMSYN05852787 32/80 93403 11136 21240 36996 57013 333 05201 70023=
0142527870999992014021900004+37200+102867FM-12+304499999V0202901N005019999999N030000199-01161-02561999999ADDAA124001931GF100995999999999999999999MA1999990069931MD1710031+9990REMSYN06452787 32980 02905 11116 21256 36993 57003 333 05204 70019 92512=
0109527870999992014021903004+37200+102867FM-12+304499999V0202701N006019999999N030000199-00771-02261999999ADDGF100995999999999999999999MA1999990069991MD1210061+9990REMSYN04252787 32980 02706 11077 21226 36999 52006=
0138527870999992014021906004+37200+102867FM-12+304499999V0202901N004019999999N030000199-00461-01991999999ADDGF100995999999999999999999KA1240N-01881MA1999990069921MD1710071+9990REMSYN05852787 32980 02904 11046 21199 36992 57007 333 05210 21188=
0119527870999992014021909004+37200+102867FM-12+304499999V0201601N003019999999N030000199-00481-01511999999ADDGF100995999999999999999999MA1999990069941MD1210021+9990REMSYN05252787 32980 01603 11048 21151 36994 52002 333 05309=
0119527870999992014021912004+37200+102867FM-12+304499999V0201601N001019999999N030000199-00831-01911999999ADDGF100995999999999999999999MA1999990070061MD1210121+9990REMSYN05252787 32980 01601 11083 21191 37006 52012 333 05208=
0138527870999992014021918004+37200+102867FM-12+304499999V0201601N00601002401CN030000199-01201-01891999999ADDGF109991999999999999999999KA1120M-00241MA1999990069951MD1710101+9990REMSYN05852787 32/80 91606 11120 21189 36995 57010 333 05105 11024=
0119527870999992014021921004+37200+102867FM-12+304499999V0201601N00201002401CN030000199-01101-02111999999ADDGF109991999999999999999999MA1999990069881MD1710071+9990REMSYN05252787 32/80 91602 11110 21211 36988 57007 333 05103=
0125527870999992014022000004+37200+102867FM-12+304499999V0200901N001019999999N030000199-00971-02131999999ADDGF100995999999999999999999MA1999990069941MD1210061+9990REMSYN05852787 32980 00901 11097 21213 36994 52006 333 00002 92510=
0109527870999992014022003004+37200+102867FM-12+304499999V0203201N001019999999N030000199-00131-01971999999ADDGF100995999999999999999999MA1999990070001MD1210061+9990REMSYN04252787 32980 03201 11013 21197 37000 52006=
0138527870999992014022006004+37200+102867FM-12+304499999V0201601N003019999999N030000199-00011-01731999999ADDGF100995999999999999999999KA1240N-01291MA1999990069891MD1710111+9990REMSYN05852787 32980 01603 11001 21173 36989 57011 333 00005 21129=
0141527870999992014022009004+37200+102867FM-12+304499999V0201601N002019999999N030000199-00111-01561999999ADDGA1021+999991991GF102991021990999999991991MA1999990069881MD1710011+9990REMSYN05852787 32980 21602 11011 21156 36988 57001 82/// 333 05104=
0119527870999992014022012004+37200+102867FM-12+304499999V0200401N003019999999N030000199-00431-01581999999ADDGF100995999999999999999999MA1999990069991MD1210111+9990REMSYN05252787 32980 00403 11043 21158 36999 52011 333 05104=
0138527870999992014022018004+37200+102867FM-12+304499999V0201401N00201002401CN030000199-00831-01361999999ADDGF109991999999999999999999KA1120M+00171MA1999990069971MD1710051+9990REMSYN05852787 32/80 91402 11083 21136 36997 57005 333 00004 10017=
0119527870999992014022021004+37200+102867FM-12+304499999V0201601N00201002401CN030000199-00821-01621999999ADDGF109991999999999999999999MA1999990069871MD1710101+9990REMSYN05252787 32/80 91602 11082 21162 36987 57010 333 00003=
0125527870999992014022100004+37200+102867FM-12+304499999V0201401N002019999999N030000199-00871-02041999999ADDGF100995999999999999999999MA1999990069901MD1210031+9990REMSYN05852787 32980 01402 11087 21204 36990 52003 333 00001 92509=
0109527870999992014022103004+37200+102867FM-12+304499999V0201601N002019999999N030000199-00041-01901999999ADDGF100995999999999999999999MA1999990069971MD1210071+9990REMSYN04252787 32980 01602 11004 21190 36997 52007=
0138527870999992014022106004+37200+102867FM-12+304499999V0201601N004019999999N030000199+00081-01321999999ADDGF100995999999999999999999KA1240N-01051MA1999990069881MD1710091+9990REMSYN05852787 32980 01604 10008 21132 36988 57009 333 00001 21105=
0119527870999992014022109004+37200+102867FM-12+304499999V0201801N004019999999N030000199+00091-01391999999ADDGF100995999999999999999999MA1999990069911MD1210031+9990REMSYN05252787 32980 01804 10009 21139 36991 52003 333 00002=
0119527870999992014022112004+37200+102867FM-12+304499999V0202901N002019999999N030000199-00511-01361999999ADDGF100995999999999999999999MA1999990070091MD1210181+9990REMSYN05252787 32980 02902 11051 21136 37009 52018 333 00151=
0138527870999992014022118004+37200+102867FM-12+304499999V0200901N00101002401CN030000199-00671-01441999999ADDGF109991999999999999999999KA1120M+00331MA1999990070141MD1710061+9990REMSYN05852787 32/80 90901 11067 21144 37014 57006 333 00202 10033=
0119527870999992014022121004+37200+102867FM-12+304499999V0203201N00401002401CN030000199-00841-01531999999ADDGF109991999999999999999999MA1999990070081MD1710061+9990REMSYN05252787 32/80 93204 11084 21153 37008 57006 333 00200=
0125527870999992014022200004+37200+102867FM-12+304499999V0201601N003019999999N030000199-00831-01731999999ADDGF100995999999999999999999MA1999990070111MD1210031+9990REMSYN05852787 32980 01603 11083 21173 37011 52003 333 00200 92501=
0109527870999992014022203004+37200+102867FM-12+304499999V0201601N002019999999N028000199-00101-01311999999ADDGF100995999999999999999999MA1999990070171MD1210061+9990REMSYN04252787 32978 01602 11010 21131 37017 52006=
0138527870999992014022206004+37200+102867FM-12+304499999V0201101N002019999999N025000199+00221-01061999999ADDGF100995999999999999999999KA1240N-00971MA1999990070031MD1710141+9990REMSYN05852787 32975 01102 10022 21106 37003 57014 333 00201 21097=
0119527870999992014022209004+37200+102867FM-12+304499999V0203601N007019999999N030000199-00141-01071999999ADDGF100995999999999999999999MA1999990070071MD1210041+9990REMSYN05252787 32980 03607 11014 21107 37007 52004 333 00252=
0119527870999992014022212004+37200+102867FM-12+304499999V0203601N003019999999N023000199-00341-01001999999ADDGF100995999999999999999999MA1999990070271MD1210201+9990REMSYN05252787 32973 03603 11034 21100 37027 52020 333 00202=
0138527870999992014022218004+37200+102867FM-12+304499999V0201401N00101002401CN030000199-00571-01151999999ADDGF109991999999999999999999KA1120M+00281MA1999990070261MD1710051+9990REMSYN05852787 32/80 91401 11057 21115 37026 57005 333 00101 10028=
0119527870999992014022221004+37200+102867FM-12+304499999V0201401N00501002401CN030000199-00451-01121999999ADDGF109991999999999999999999MA1999990070071MD1710191+9990REMSYN05252787 32/80 91405 11045 21112 37007 57019 333 00004=
0125527870999992014022300004+37200+102867FM-12+304499999V0202201N002019999999N028000199-00581-01241999999ADDGF100995999999999999999999MA1999990070031MD1710041+9990REMSYN05852787 32978 02202 11058 21124 37003 57004 333 05103 92504=
0109527870999992014022303004+37200+102867FM-12+304499999V0202501N002019999999N020000199+00211-01451999999ADDGF100995999999999999999999MA1999990070051MD1210021+9990REMSYN04252787 32970 02502 10021 21145 37005 52002=
0138527870999992014022306004+37200+102867FM-12+304499999V0201801N006019999999N019000199+00401-01041999999ADDGF100995999999999999999999KA1240N-00871MA1999990069901MD1710151+9990REMSYN05852787 32969 01806 10040 21104 36990 57015 333 05102 21087=
0141527870999992014022309004+37200+102867FM-12+304499999V0203601N009019999999N026000199+00181-01391999999ADDGA1021+999991991GF102991021990999999991991MA1999990069931MD1210031+9990REMSYN05852787 32976 23609 10018 21139 36993 52003 82/// 333 05103=
0141527870999992014022312004+37200+102867FM-12+304499999V0203601N005019999999N030000199-00021-02161999999ADDGA1051+999991991GF105991051990999999991991MA1999990070091MD1210161+9990REMSYN05852787 32980 53605 11002 21216 37009 52016 85/// 333 05203=
0138527870999992014022318004+37200+102867FM-12+304499999V0201601N00201002401CN030000199-00361-01781999999ADDGF109991999999999999999999KA1120M+00561MA1999990070091MD1710061+9990REMSYN05852787 32/80 91602 11036 21178 37009 57006 333 05202 10056=
0119527870999992014022321004+37200+102867FM-12+304499999V0202501N00401002401CN030000199-00291-01921999999ADDGF109991999999999999999999MA1999990070011MD1710081+9990REMSYN05252787 32/80 92504 11029 21192 37001 57008 333 05102=
0147527870999992014022400004+37200+102867FM-12+304499999V0201401N001019999999N030000199-00241-01881999999ADDGA1071+999991991GF107991071990999999991991MA1999990070031MD1210021+9990REMSYN06452787 32980 71401 11024 21188 37003 52002 87/// 333 00003 92503=
0131527870999992014022403004+37200+102867FM-12+304499999V0201601N004019999999N030000199+00191-01811999999ADDGA1071+999991991GF107991071990999999991991MA1999990070081MD1210051+9990REMSYN04852787 32980 71604 10019 21181 37008 52005 87///=
0160527870999992014022406004+37200+102867FM-12+304499999V0201401N006019999999N030000199+00321-00971999999ADDGA1071+999991991GF107991071990999999991991KA1240N-00441MA1999990069931MD1710151+9990REMSYN06452787 32680 71406 10032 21097 36993 57015 87/// 333 00051 21044=
0141527870999992014022409004+37200+102867FM-12+304499999V0202901N009019999999N021000199-00061-01021999999ADDGA1081+999991991GF108991081990999999991991MA1999990070011MD1210081+9990REMSYN05852787 32771 82909 11006 21102 37001 52008 88/// 333 00152=
0186527870999992014022412004+37200+102867FM-12+304499999V0201601N005019999999N001700199-00311-00311999999ADDAA106000831AY181021AY201021GA1081+999991991GF108991081990999999991991MA1999990070221MD1210211+9990MW1851REMSYN07052787 11717 81605 11031 21031 37022 52021 69981 78580 88/// 333 00153=
0138527870999992014022418004+37200+102867FM-12+304499999V0201601N00401002401CN030000199-00581-00721999999ADDGF109991999999999999999999KA1120M+00411MA1999990070131MD1710071+9990REMSYN05852787 32/80 91604 11058 21072 37013 57007 333 00052 10041=
0136527870999992014022421004+37200+102867FM-12+304499999V0201601N00501002401CN030000199-00571-00731999999ADDAA124000831GF109991999999999999999999MA1999990069961MD1710171+9990REMSYN05852787 32/80 91605 11057 21073 36996 57017 333 05153 70008=
0164527870999992014022500004+37200+102867FM-12+304499999V0201601N004019999999N030000199-00481-00761999999ADDAA124000831GA1071+999991991GF107991071990999999991991MA1999990069961MD1410001+9990REMSYN07052787 32780 71604 11048 21076 36996 54000 87/// 333 05152 70008 92502=
0131527870999992014022503004+37200+102867FM-12+304499999V0201601N004019999999N030000199+00181-00821999999ADDGA1071+999991991GF107991071990999999991991MA1999990070051MD1210091+9990REMSYN04852787 32780 71604 10018 21082 37005 52009 87///=
0160527870999992014022506004+37200+102867FM-12+304499999V0203401N009019999999N029000199-00221-00861999999ADDGA1021+999991991GF102991021990999999991991KA1240N-00691MA1999990070011MD1710041+9990REMSYN06452787 32979 23409 11022 21086 37001 57004 82/// 333 00155 21069=
0141527870999992014022509004+37200+102867FM-12+304499999V0203601N010019999999N030000199-00651-01101999999ADDGA1071+999991991GF107991071990999999991991MA1999990070051MD1210041+9990REMSYN05852787 32780 73610 11065 21110 37005 52004 87/// 333 00056=
0212527870999992014022512004+37200+102867FM-12+304499999V0203601N014019999999N030000199-01001-01291999999ADDAA106000021AY171021AY201021GA1081+999991991GF108991081990999999991991MA1999990070261MD1210211+9990MW1701OD139901901360REMSYN08252787 11780 83614 11100 21129 37026 52021 69901 77070 88/// 333 00057 91119 91536=
0164527870999992014022518004+37200+102867FM-12+304499999V0200201N00601002401CN030000199-00851-01271999999ADDGF109991999999999999999999KA1120M+00311MA1999990070291MD1710161+9990OD139901901340REMSYN07052787 32/80 90206 11085 21127 37029 57016 333 00253 10031 91119 91534=
0119527870999992014022521004+37200+102867FM-12+304499999V0203401N00701002401CN030000199-01111-01231999999ADDGF109991999999999999999999MA1999990070151MD1710141+9990REMSYN05252787 32/80 93407 11111 21123 37015 57014 333 00255=
0193527870999992014022600004+37200+102867FM-12+304499999V0203601N008019999999N030000199-01061-01341999999ADDAA112000021AA224000021GA1081+999991991GF108991081990999999991991MA1999990070241MD1210091+9990MW1701REMSYN08252787 11780 83608 11106 21134 37024 52009 69902 770// 88/// 333 00356 79999 92503=
0159527870999992014022603004+37200+102867FM-12+304499999V0203201N009019999999N030000199-01061-01201999999ADDAY171021AY271021GA1071+999991991GF107991071990999999991991MA1999990070321MD1210081+9990MW1221REMSYN05452787 31780 73209 11106 21120 37032 52008 72277 87///=
0205527870999992014022606004+37200+102867FM-12+304499999V0203201N007019999999N030000199-00931-01141999999ADDAA106000021AY171021AY201021GA1071+999991991GF107991071990999999991991KA1240N-01211MA1999990070211MD1710111+9990MW1701REMSYN07652787 11780 73207 11093 21114 37021 57011 69901 77070 87/// 333 00257 21121=
0169527870999992014022609004+37200+102867FM-12+304499999V0203601N003019999999N030000199-00961-01101999999ADDAY171021AY271021GA1071+999991991GF107991071990999999991991MA1999990070221MD1210011+9990MW1701REMSYN06452787 41780 73603 11096 21110 37022 52001 77077 87/// 333 00253=
0186527870999992014022612004+37200+102867FM-12+304499999V0202901N001019999999N030000199-01181-01361999999ADDAA106002031AY171021AY271021GA1081+999991991GF108991081990999999991991MA1999990070381MD1210161+9990MW1701REMSYN07052787 11980 82901 11118 21136 37038 52016 60021 77077 88/// 333 00152=
0155527870999992014022618004+37200+102867FM-12+304499999V0201401N01101002401CN030000199-01171-01391999999ADDAA106000431GF109991999999999999999999KA1120M-00791MA1999990070231MD1710141+9990REMSYN06452787 12/80 91411 11117 21139 37023 57014 69941 333 05153 11079=
0136527870999992014022621004+37200+102867FM-12+304499999V0201601N00801002401CN030000199-01271-01401999999ADDAA124002431GF109991999999999999999999MA1999990070011MD1710221+9990REMSYN05852787 32/80 91608 11127 21140 37001 57022 333 05152 70024=
0181527870999992014022700004+37200+102867FM-12+304499999V0201801N007019999999N030000199-01181-01331999999ADDAA112000431AA224002431GA1071+999991991GF107991071990999999991991MA1999990069911MD1710101+9990REMSYN07652787 12780 71807 11118 21133 36991 57010 69942 87/// 333 05351 70024 92507=
0131527870999992014022703004+37200+102867FM-12+304499999V0201601N007019999999N030000199-00891-01131999999ADDGA1071+999991991GF107991071990999999991991MA1999990069901MD1710011+9990REMSYN04852787 32780 71607 11089 21113 36990 57001 87///=
0160527870999992014022706004+37200+102867FM-12+304499999V0201601N005019999999N030000199-00371-00771999999ADDGA1071+999991991GF107991071990999999991991KA1240N-01461MA1999990069691MD1710211+9990REMSYN06452787 32780 71605 11037 21077 36969 57021 87/// 333 05506 21146=
0141527870999992014022709004+37200+102867FM-12+304499999V0200201N008019999999N030000199-00251-01221999999ADDGA1071+999991991GF107991071990999999991991MA1999990069641MD1710051+9990REMSYN05852787 32980 70208 11025 21122 36964 57005 87/// 333 05607=
0141527870999992014022712004+37200+102867FM-12+304499999V0203601N012019999999N030000199-00761-01481999999ADDGA1071+999991991GF107991071990999999991991MA1999990069841MD1210201+9990REMSYN05852787 32780 73612 11076 21148 36984 52020 87/// 333 05504=
0164527870999992014022718004+37200+102867FM-12+304499999V0203601N01101002401CN030000199-01121-01821999999ADDGF109991999999999999999999KA1120M+00001MA1999990069941MD1710031+9990OD139902201340REMSYN07052787 32/80 93611 11112 21182 36994 57003 333 05301 10000 91122 91534=
0145527870999992014022721004+37200+102867FM-12+304499999V0203401N00601002401CN030000199-01311-01821999999ADDGF109991999999999999999999MA1999990069971MD1210031+9990OD139901901340REMSYN06452787 32/80 93406 11131 21182 36997 52003 333 00000 91119 91534=
0216527870999992014022800004+37200+102867FM-12+304499999V0203201N005019999999N030000199-01391-01811999999ADDAA112000091AA224000091GA1051+999991991GF105991051990999999991991MA1999990070001MD1210031+9990REMSYN07652787 12980 53205 11139 21181 37000 52003 69902 85/// 333 00152 79999 92504=EQDQ01  00002PRCP12Q02  00002PRCP24
