0110583380999992014010100004+31150+118583FM-12+001699999V0201801N001019999999N012000199+00561-00451102171ADDGF100995999999999999999999MD1210131+9990REMSYN05858338 32962 01801 10056 21045 40217 52013 333 05103 31029=
0094583380999992014010103004+31150+118583FM-12+001699999V0201801N002019999999N014000199+01251-00251102151ADDGF100995999999999999999999MD1710021+9990REMSYN04258338 32964 01802 10125 21025 40215 57002=
0117583380999992014010106004+31150+118583FM-12+001699999V0202501N001019999999N016000199+01741-00511101841ADDGF100995999999999999999999KA1240N+00481MD1710301+9990REMSYN05258338 32966 02501 10174 21051 40184 57030 333 20048=
0094583380999992014010109004+31150+118583FM-12+001699999V0203201N001019999999N013000199+01371-00311101841ADDGF100995999999999999999999MD1410001+9990REMSYN04258338 32963 03201 10137 21031 40184 54000=
0122583380999992014010112004+31150+118583FM-12+001699999V0203401N001019999999N008000199+00641-00201101901ADDAY101021AY201021GF100995999999999999999999MD1210051+9990MW1051REMSYN04858338 31958 03401 10064 21020 40190 52005 70500=
0138583380999992014010118004+31150+118583FM-12+001699999V0202001N001019999999N999999999+00341-00211101951ADDGF109991999999999999999999KA1120M+01771MA1999990101731MD1410001+9990REMSYN05858338 33/// 92001 10034 21021 30173 40195 54000 333 10177=
0094583380999992014010121004+31150+118583FM-12+001699999V0201601N001019999999N999999999+00091-00231101901ADDGF109991999999999999999999MD1710061+9990REMSYN04258338 33/// 91601 10009 21023 40190 57006=
0110583380999992014010200004+31150+118583FM-12+001699999V0200901N001019999999N011000199+00191-00261101921ADDGF100995999999999999999999MD1210021+9990REMSYN05858338 32961 00901 10019 21026 40192 52002 333 05354 31045=
0094583380999992014010203004+31150+118583FM-12+001699999V0200401N001019999999N012000199+01181-00281101851ADDGF100995999999999999999999MD1710071+9990REMSYN04258338 32962 00401 10118 21028 40185 57007=
0117583380999992014010206004+31150+118583FM-12+001699999V0200901N001019999999N013000199+01671-00341101541ADDGF100995999999999999999999KA1240N+00021MD1710301+9990REMSYN05258338 32963 00901 10167 21034 40154 57030 333 20002=
0116583380999992014010209004+31150+118583FM-12+001699999V0200201N001019999999N011000199+01391-00171101571ADDGA1041+999991991GF104991041990999999991991MD1210021+9990REMSYN04858338 32961 40201 10139 21017 40157 52002 84///=
0137583380999992014010212004+31150+118583FM-12+001699999V0200701N001019999999N011000199+01211+00021101651ADDGA1071+999991991GF107991071990999999991991MA1999990101421MD1210081+9990REMSYN05458338 32961 70701 10121 20002 30142 40165 52008 87///=
0117583380999992014010218004+31150+118583FM-12+001699999V0201801N001019999999N999999999+00911+00201101691ADDGF109991999999999999999999KA1120M+01761MD1710011+9990REMSYN05258338 33/// 91801 10091 20020 40169 57001 333 10176=
0094583380999992014010221004+31150+118583FM-12+001699999V0201801N001019999999N999999999+00791+00281101641ADDGF109991999999999999999999MD1710051+9990REMSYN04258338 33/// 91801 10079 20028 40164 57005=
0144583380999992014010300004+31150+118583FM-12+001699999V0202201N001019999999N006000199+00841+00151101811ADDGA1071+999991991GF107991071990999999991991MD1210171+9990MW1051REMSYN07058338 31956 72201 10084 20015 40181 52017 705// 87/// 333 05107 30021=
0122583380999992014010303004+31150+118583FM-12+001699999V0202501N002019999999N007000199+01191+00101101931ADDAY101021AY201021GF100995999999999999999999MD1210121+9990MW1051REMSYN04858338 31957 02502 10119 20010 40193 52012 70500=
0167583380999992014010306004+31150+118583FM-12+001699999V0202501N002019999999N007000199+01421-00031101761ADDAY101021AY201021GA1071+999991991GF107991071990999999991991KA1240N+00651MD1710171+9990MW1051REMSYN06458338 31957 72502 10142 21003 40176 57017 70500 87/// 333 20065=
0116583380999992014010309004+31150+118583FM-12+001699999V0202501N001019999999N011000199+01141-00511101921ADDGA1061+999991991GF106991061990999999991991MD1210151+9990REMSYN04858338 32961 62501 10114 21051 40192 52015 86///=
0137583380999992014010312004+31150+118583FM-12+001699999V0202201N001019999999N012000199+00911-00411102101ADDGA1071+999991991GF107991071990999999991991MA1999990101871MD1210181+9990REMSYN05458338 32962 72201 10091 21041 30187 40210 52018 87///=
0117583380999992014010318004+31150+118583FM-12+001699999V0202201N001019999999N999999999+00611-00301102301ADDGF109991999999999999999999KA1120M+01431MD1210041+9990REMSYN05258338 33/// 92201 10061 21030 40230 52004 333 10143=
0094583380999992014010321004+31150+118583FM-12+001699999V0202501N001019999999N999999999+00441-00291102321ADDGF109991999999999999999999MD1210021+9990REMSYN04258338 33/// 92501 10044 21029 40232 52002=
0165583380999992014010400004+31150+118583FM-12+001699999V0202201N001019999999N005000199+00331-00261102481ADDGA1061+999991991GF106991061990999999991991MA1999990102251MD1210161+9990MW1051REMSYN07658338 31950 62201 10033 21026 30225 40248 52016 705// 86/// 333 00755 31017=
0144583380999992014010403004+31150+118583FM-12+001699999V0202901N001019999999N003000199+00581+00111102541ADDAY101021AY201021GA1071+999991991GF107991071990999999991991MD1210061+9990MW1051REMSYN05458338 31930 72901 10058 20011 40254 52006 70500 87///=
0145583380999992014010406004+31150+118583FM-12+001699999V0202901N001019999999N003000199+00811+00191102291ADDAY101021AY201021GF100995999999999999999999KA1240N+00321MD1710251+9990MW1051REMSYN05858338 31930 02901 10081 20019 40229 57025 70500 333 20032=
0122583380999992014010409004+31150+118583FM-12+001699999V0200401N001019999999N004000199+00661+00191102311ADDAY101021AY201021GF100995999999999999999999MD1210021+9990MW1051REMSYN04858338 31940 00401 10066 20019 40231 52002 70500=
0122583380999992014010412004+31150+118583FM-12+001699999V0200901N001019999999N003000199+00511+00231102361ADDAY101021AY201021GF100995999999999999999999MD1210051+9990MW1051REMSYN04858338 31930 00901 10051 20023 40236 52005 70500=
0138583380999992014010418004+31150+118583FM-12+001699999V0201801N001019999999N999999999+00121+00031102371ADDGF109991999999999999999999KA1120M+00861MA1999990102141MD1710011+9990REMSYN05858338 33/// 91801 10012 20003 30214 40237 57001 333 10086=
0094583380999992014010421004+31150+118583FM-12+001699999V0200701N001019999999N999999999-00071-00171102311ADDGF109991999999999999999999MD1710061+9990REMSYN04258338 33/// 90701 11007 21017 40231 57006=
0116583380999992014010500004+31150+118583FM-12+001699999V0209999C999999999999N005000199-00191-00261102301ADDGF100995999999999999999999MD1710011+9990MW1101REMSYN05858338 31950 00000 11019 21026 40230 57001 710// 333 05255=
0144583380999992014010503004+31150+118583FM-12+001699999V0200701N001019999999N005000199+00711+00121102381ADDAY101021AY201021GA1051+999991991GF105991051990999999991991MD1210081+9990MW1051REMSYN05458338 41950 50701 10071 20012 40238 52008 70500 85///=
0188583380999992014010506004+31150+118583FM-12+001699999V0200901N001019999999N008000199+01391-00131102191ADDAY101021AY201021GA1061+999991991GF106991061990999999991991KA1240N-00201MA1999990101961MD1710191+9990MW1051REMSYN07058338 31958 60901 10139 21013 30196 40219 57019 70500 86/// 333 21020=
0144583380999992014010509004+31150+118583FM-12+001699999V0200201N001019999999N006000199+01071+00071102171ADDAY101021AY201021GA1071+999991991GF107991071990999999991991MD1710021+9990MW1051REMSYN05458338 31956 70201 10107 20007 40217 57002 70500 87///=
0122583380999992014010512004+31150+118583FM-12+001699999V0200701N001019999999N006000199+00661-00151102281ADDAY101021AY201021GF100995999999999999999999MD1210111+9990MW1051REMSYN04858338 31956 00701 10066 21015 40228 52011 70500=
0117583380999992014010518004+31150+118583FM-12+001699999V0200701N001019999999N999999999+00421+00051102281ADDGF109991999999999999999999KA1120M+01481MD1410001+9990REMSYN05258338 33/// 90701 10042 20005 40228 54000 333 10148=
0094583380999992014010521004+31150+118583FM-12+001699999V0200701N003019999999N999999999+00371+00091102241ADDGF109991999999999999999999MD1710041+9990REMSYN04258338 33/// 90703 10037 20009 40224 57004=
0143583380999992014010600004+31150+118583FM-12+001699999V0200701N004019999999N006000199+00451+00141102281ADDGF100995999999999999999999MA1999990102051MD1210041+9990MW1051REMSYN07058338 31956 00704 10045 20014 30205 40228 52004 705// 333 00006 30003=
0122583380999992014010603004+31150+118583FM-12+001699999V0200701N003019999999N006000199+00941+00231102271ADDAY101021AY201021GF100995999999999999999999MD1710011+9990MW1051REMSYN04858338 31956 00703 10094 20023 40227 57001 70500=
0167583380999992014010606004+31150+118583FM-12+001699999V0200701N003019999999N008000199+01311+00051101931ADDAY101021AY201021GA1021+999991991GF102991021990999999991991KA1240N+00341MD1710341+9990MW1051REMSYN06458338 31958 20703 10131 20005 40193 57034 70500 82/// 333 20034=
0144583380999992014010609004+31150+118583FM-12+001699999V0200701N003019999999N006000199+01161+00041101911ADDAY101021AY201021GA1071+999991991GF107991071990999999991991MD1710021+9990MW1051REMSYN05458338 31956 70703 10116 20004 40191 57002 70500 87///=
0144583380999992014010612004+31150+118583FM-12+001699999V0200701N003019999999N006000199+01061+00141101961ADDAY101021AY201021GA1071+999991991GF107991071990999999991991MD1210051+9990MW1051REMSYN05458338 31956 70703 10106 20014 40196 52005 70500 87///=
0138583380999992014010618004+31150+118583FM-12+001699999V0200901N003019999999N999999999+00951+00371101841ADDGF109991999999999999999999KA1120M+01381MA1999990101621MD1710031+9990REMSYN05858338 33/// 90903 10095 20037 30162 40184 57003 333 10138=
0115583380999992014010621004+31150+118583FM-12+001699999V0200901N001019999999N999999999+00761+00541101821ADDAA124000831GF109991999999999999999999MD1710021+9990REMSYN05258338 43/// 90901 10076 20054 40182 57002 333 70008=
0193583380999992014010700004+31150+118583FM-12+001699999V0200901N001019999999N006000199+00741+00571101901ADDAA106001031AA224001131GA1081+999991991GF108991081990999999991991MA1999990101671MD1210071+9990MW1211REMSYN08258338 11956 80901 10074 20057 30167 40190 52007 60011 721// 88/// 333 05403 70011=
0144583380999992014010703004+31150+118583FM-12+001699999V0200201N001019999999N006000199+00831+00641101881ADDAY161021AY201021GA1081+999991991GF108991081990999999991991MD1710021+9990MW1101REMSYN05458338 41956 80201 10083 20064 40188 57002 71060 88///=
0184583380999992014010706004+31150+118583FM-12+001699999V0202901N001019999999N005000199+00791+00731101751ADDAA106002031AY161021AY201021GA1081+999991991GF108991081990999999991991KA1240N+00731MD1710131+9990MW1601REMSYN07058338 11450 82901 10079 20073 40175 57013 60021 76060 88/// 333 20073=
0144583380999992014010709004+31150+118583FM-12+001699999V0202901N002019999999N003000199+00781+00751101821ADDAY161021AY261021GA1081+999991991GF108991081990999999991991MD1210071+9990MW1601REMSYN05458338 41430 82902 10078 20075 40182 52007 76066 88///=
0161583380999992014010712004+31150+118583FM-12+001699999V0202901N001019999999N003000199+00771+00761102011ADDAA106004031AY161021AY261021GA1081+999991991GF108991081990999999991991MD1210191+9990MW1601REMSYN06058338 11430 82901 10077 20076 40201 52019 60041 76066 88///=
0134583380999992014010718004+31150+118583FM-12+001699999V0202701N002019999999N999999999+00721+00691102161ADDAA106002031GF109991999999999999999999KA1120M+00951MD1210021+9990REMSYN05858338 13/// 92702 10072 20069 40216 52002 60021 333 10095=
0115583380999992014010721004+31150+118583FM-12+001699999V0203201N002019999999N999999999+00711+00681102291ADDAA124011131GF109991999999999999999999MD1210131+9990REMSYN05258338 43/// 93202 10071 20068 40229 52013 333 70111=
0172583380999992014010800004+31150+118583FM-12+001699999V0203201N001019999999N006000199+00641+00601102621ADDAA106002031AA224010531GA1081+999991991GF108991081990999999991991MD1210331+9990MW1601REMSYN07658338 11456 83201 10064 20060 40262 52033 60021 760// 88/// 333 00751 70105=
0144583380999992014010803004+31150+118583FM-12+001699999V0203201N002019999999N007000199+00631+00531102751ADDAY161021AY261021GA1081+999991991GF108991081990999999991991MD1210131+9990MW1601REMSYN05458338 41457 83202 10063 20053 40275 52013 76066 88///=
0184583380999992014010806004+31150+118583FM-12+001699999V0203201N002019999999N007000199+00551+00491102731ADDAA106001031AY161021AY261021GA1081+999991991GF108991081990999999991991KA1240N+00541MD1710021+9990MW1601REMSYN07058338 11457 83202 10055 20049 40273 57002 60011 76066 88/// 333 20054=
0144583380999992014010809004+31150+118583FM-12+001699999V0203201N001019999999N006000199+00511+00361102901ADDAY161021AY261021GA1081+999991991GF108991081990999999991991MD1210171+9990MW1601REMSYN05458338 41456 83201 10051 20036 40290 52017 76066 88///=
0161583380999992014010812004+31150+118583FM-12+001699999V0203601N001019999999N006000199+00441+00341103061ADDAA106000931AY161021AY261021GA1081+999991991GF108991081990999999991991MD1210161+9990MW1601REMSYN06058338 11456 83601 10044 20034 40306 52016 69991 76066 88///=
0117583380999992014010818004+31150+118583FM-12+001699999V0200201N002019999999N999999999+00331+00021103281ADDGF109991999999999999999999KA1120M+00721MD1210101+9990REMSYN05258338 33/// 90202 10033 20002 40328 52010 333 10072=
0144583380999992014010900004+31150+118583FM-12+001699999V0200701N002019999999N012000199+00101-00261103401ADDAA106000131AA224002431GF100995999999999999999999MD1210141+9990REMSYN07058338 12962 00702 10010 21026 40340 52014 69911 333 00855 31002 70024=
0116583380999992014010903004+31150+118583FM-12+001699999V0200701N001019999999N013000199+00461-00121103401ADDGA1021+999991991GF102991021990999999991991MD1410001+9990REMSYN04858338 32663 20701 10046 21012 40340 54000 82///=
0139583380999992014010906004+31150+118583FM-12+001699999V0200401N001019999999N014000199+00591-00171103081ADDGA1021+999991991GF102991021990999999991991KA1240N+00071MD1710321+9990REMSYN05858338 32664 20401 10059 21017 40308 57032 82/// 333 20007=
0116583380999992014010909004+31150+118583FM-12+001699999V0200201N001019999999N015000199+00481-00251103161ADDGA1071+999991991GF107991071990999999991991MD1210081+9990REMSYN04858338 32965 70201 10048 21025 40316 52008 87///=
0094583380999992014010912004+31150+118583FM-12+001699999V0200401N001019999999N013000199+00281-00191103161ADDGF100995999999999999999999MD1410001+9990REMSYN04258338 32963 00401 10028 21019 40316 54000=
0117583380999992014010918004+31150+118583FM-12+001699999V0200401N001019999999N999999999+00041-00251103241ADDGF109991999999999999999999KA1120M+00661MD1210061+9990REMSYN05258338 33/// 90401 10004 21025 40324 52006 333 10066=
0094583380999992014010921004+31150+118583FM-12+001699999V0200901N001019999999N999999999-00021-00311103151ADDGF109991999999999999999999MD1710091+9990REMSYN04258338 33/// 90901 11002 21031 40315 57009=
0122583380999992014011000004+31150+118583FM-12+001699999V0200901N001019999999N006000199+00011-00181103241ADDGF100995999999999999999999MD1210091+9990MW1051REMSYN06458338 31956 00901 10001 21018 40324 52009 705// 333 05251 31029=
0122583380999992014011003004+31150+118583FM-12+001699999V0200901N001019999999N008000199+00541-00201103241ADDAY101021AY201021GF100995999999999999999999MD1410001+9990MW1051REMSYN04858338 31958 00901 10054 21020 40324 54000 70500=
0117583380999992014011006004+31150+118583FM-12+001699999V0201101N002019999999N013000199+00821-00271102861ADDGF100995999999999999999999KA1240N-00091MD1710381+9990REMSYN05258338 32963 01102 10082 21027 40286 57038 333 21009=
0116583380999992014011009004+31150+118583FM-12+001699999V0200201N002019999999N012000199+00711-00131102941ADDGA1081+999991991GF108991081990999999991991MD1210081+9990REMSYN04858338 32962 80202 10071 21013 40294 52008 88///=
0116583380999992014011012004+31150+118583FM-12+001699999V0200201N001019999999N010000199+00581-00051103051ADDGA1081+999991991GF108991081990999999991991MD1210111+9990REMSYN04858338 32960 80201 10058 21005 40305 52011 88///=
0138583380999992014011018004+31150+118583FM-12+001699999V0200901N001019999999N999999999+00491+00171103061ADDGF109991999999999999999999KA1120M+00871MA1999990102831MD1210011+9990REMSYN05858338 33/// 90901 10049 20017 30283 40306 52001 333 10087=
0115583380999992014011021004+31150+118583FM-12+001699999V0200401N001019999999N999999999+00441+00241103031ADDAA124000131GF109991999999999999999999MD1710031+9990REMSYN05258338 43/// 90401 10044 20024 40303 57003 333 70001=
0178583380999992014011100004+31150+118583FM-12+001699999V0200701N001019999999N006000199+00411+00251103111ADDAA106000631AA224000631GA1081+999991991GF108991081990999999991991MD1210081+9990MW1601REMSYN08258338 11456 80701 10041 20025 40311 52008 69961 760// 88/// 333 05104 30038 70006=
0144583380999992014011103004+31150+118583FM-12+001699999V0200201N001019999999N006000199+00451+00361103121ADDAY161021AY261021GA1081+999991991GF108991081990999999991991MD1210011+9990MW1601REMSYN05458338 41456 80201 10045 20036 40312 52001 76066 88///=
0184583380999992014011106004+31150+118583FM-12+001699999V0200201N001019999999N005000199+00471+00401102881ADDAA106002031AY161021AY261021GA1081+999991991GF108991081990999999991991KA1240N+00411MD1710241+9990MW1601REMSYN07058338 11450 80201 10047 20040 40288 57024 60021 76066 88/// 333 20041=
0144583380999992014011109004+31150+118583FM-12+001699999V0200201N001019999999N005000199+00481+00421102931ADDAY161021AY261021GA1081+999991991GF108991081990999999991991MD1210051+9990MW1601REMSYN05458338 41450 80201 10048 20042 40293 52005 76066 88///=
0161583380999992014011112004+31150+118583FM-12+001699999V0200401N001019999999N004000199+00481+00441103001ADDAA106000631AY161021AY261021GA1081+999991991GF108991081990999999991991MD1210071+9990MW1601REMSYN06058338 11440 80401 10048 20044 40300 52007 69961 76066 88///=
0134583380999992014011118004+31150+118583FM-12+001699999V0203601N001019999999N999999999+00471+00441103021ADDAA106000431GF109991999999999999999999KA1120M+00491MD1210021+9990REMSYN05858338 13/// 93601 10047 20044 40302 52002 69941 333 10049=
0115583380999992014011121004+31150+118583FM-12+001699999V0203201N001019999999N999999999+00471+00441103141ADDAA124004931GF109991999999999999999999MD1210121+9990REMSYN05258338 43/// 93201 10047 20044 40314 52012 333 70049=
0178583380999992014011200004+31150+118583FM-12+001699999V0201601N001019999999N004000199+00481+00441103241ADDAA106002031AA224005731GA1081+999991991GF108991081990999999991991MD1210101+9990MW1601REMSYN08258338 11440 81601 10048 20044 40324 52010 60021 760// 88/// 333 00101 30047 70057=
0144583380999992014011203004+31150+118583FM-12+001699999V0203201N001019999999N004000199+00531+00471103351ADDAY161021AY261021GA1081+999991991GF108991081990999999991991MD1210111+9990MW1211REMSYN05458338 41440 83201 10053 20047 40335 52011 72166 88///=
0205583380999992014011206004+31150+118583FM-12+001699999V0200401N001019999999N007000199+00761+00471103151ADDAA106000021AY161021AY201021GA1081+999991991GF108991081990999999991991KA1240N+00451MA1999990102921MD1710201+9990MW1051REMSYN07658338 11557 80401 10076 20047 30292 40315 57020 69901 70560 88/// 333 20045=
0144583380999992014011209004+31150+118583FM-12+001699999V0201601N001019999999N008000199+00701+00381103211ADDAY101021AY201021GA1051+999991991GF105991051990999999991991MD1210061+9990MW1051REMSYN05458338 31558 51601 10070 20038 40321 52006 70500 85///=
0144583380999992014011212004+31150+118583FM-12+001699999V0201801N001019999999N006000199+00531+00431103361ADDAY101021AY201021GA1071+999991991GF107991071990999999991991MD1210151+9990MW1101REMSYN05458338 31956 71801 10053 20043 40336 52015 71000 87///=
0117583380999992014011218004+31150+118583FM-12+001699999V0200401N002019999999N999999999+00411+00161103371ADDGF109991999999999999999999KA1120M+00821MD1410001+9990REMSYN05258338 33/// 90402 10041 20016 40337 54000 333 10082=
0115583380999992014011221004+31150+118583FM-12+001699999V0200201N001019999999N999999999+00291+00141103291ADDAA124000021GF109991999999999999999999MD1710081+9990REMSYN05258338 33/// 90201 10029 20014 40329 57008 333 79999=
0161583380999992014011300004+31150+118583FM-12+001699999V0200401N001019999999N002000199+00251+00121103351ADDAA124000021GA1071+999991991GF107991071990999999991991MD1210061+9990MW1101REMSYN07658338 31920 70401 10025 20012 40335 52006 710// 87/// 333 00152 30013 79999=
0144583380999992014011303004+31150+118583FM-12+001699999V0200201N002019999999N005000199+00461+00161103331ADDAY101021AY201021GA1051+999991991GF105991051990999999991991MD1710021+9990MW1051REMSYN05458338 31450 50202 10046 20016 40333 57002 70500 85///=
0167583380999992014011306004+31150+118583FM-12+001699999V0200401N002019999999N005000199+00521+00131103101ADDAY101021AY201021GA1081+999991991GF108991081990999999991991KA1240N+00231MD1710231+9990MW1051REMSYN06458338 31550 80402 10052 20013 40310 57023 70500 88/// 333 20023=
0144583380999992014011309004+31150+118583FM-12+001699999V0200201N001019999999N006000199+00431+00031103081ADDAY101021AY201021GA1061+999991991GF106991061990999999991991MD1710021+9990MW1051REMSYN05458338 31956 60201 10043 20003 40308 57002 70500 86///=
0144583380999992014011312004+31150+118583FM-12+001699999V0200201N001019999999N006000199+00271+00011103111ADDAY101021AY201021GA1061+999991991GF106991061990999999991991MD1210031+9990MW1051REMSYN05458338 31956 60201 10027 20001 40311 52003 70500 86///=
0138583380999992014011318004+31150+118583FM-12+001699999V0200701N001019999999N999999999+00051-00081103101ADDGF109991999999999999999999KA1120M+00571MA1999990102871MD1210021+9990REMSYN05858338 33/// 90701 10005 21008 30287 40310 52002 333 10057=
0094583380999992014011321004+31150+118583FM-12+001699999V0200701N001019999999N999999999-00011-00111103091ADDGF109991999999999999999999MD1710011+9990REMSYN04258338 33/// 90701 11001 21011 40309 57001=
0122583380999992014011400004+31150+118583FM-12+001699999V0200701N001019999999N005000199-00051-00131103271ADDGF100995999999999999999999MD1210171+9990MW1101REMSYN06458338 31950 00701 11005 21013 40327 52017 710// 333 05153 31028=
0122583380999992014011403004+31150+118583FM-12+001699999V0200701N001019999999N008000199+00471+00031103401ADDAY101021AY201021GF100995999999999999999999MD1210141+9990MW1051REMSYN04858338 31958 00701 10047 20003 40340 52014 70500=
0139583380999992014011406004+31150+118583FM-12+001699999V0200401N001019999999N010000199+00731-00111103241ADDGA1021+999991991GF102991021990999999991991KA1240N-00101MD1710161+9990REMSYN05858338 32660 20401 10073 21011 40324 57016 82/// 333 21010=
0122583380999992014011409004+31150+118583FM-12+001699999V0200401N001019999999N008000199+00581-00251103291ADDAY101021AY201021GF100995999999999999999999MD1210051+9990MW1051REMSYN04858338 31958 00401 10058 21025 40329 52005 70500=
0122583380999992014011412004+31150+118583FM-12+001699999V0200401N001019999999N006000199+00241-00121103431ADDAY101021AY201021GF100995999999999999999999MD1210131+9990MW1051REMSYN04858338 31956 00401 10024 21012 40343 52013 70500=
0138583380999992014011418004+31150+118583FM-12+001699999V0200701N001019999999N999999999-00011-00231103501ADDGF109991999999999999999999KA1120M+00741MA1999990103271MD1210021+9990REMSYN05858338 33/// 90701 11001 21023 30327 40350 52002 333 10074=
0094583380999992014011421004+31150+118583FM-12+001699999V0200701N001019999999N999999999-00111-00361103441ADDGF109991999999999999999999MD1710061+9990REMSYN04258338 33/// 90701 11011 21036 40344 57006=
0122583380999992014011500004+31150+118583FM-12+001699999V0200701N001019999999N005000199-00111-00271103541ADDGF100995999999999999999999MD1210091+9990MW1101REMSYN06458338 31950 00701 11011 21027 40354 52009 710// 333 00351 31047=
0094583380999992014011503004+31150+118583FM-12+001699999V0200701N002019999999N010000199+00541-00091103501ADDGF100995999999999999999999MD1710031+9990REMSYN04258338 32960 00702 10054 21009 40350 57003=
0117583380999992014011506004+31150+118583FM-12+001699999V0200201N001019999999N011000199+00801-00351103201ADDGF100995999999999999999999KA1240N-00181MD1710301+9990REMSYN05258338 32961 00201 10080 21035 40320 57030 333 21018=
0094583380999992014011509004+31150+118583FM-12+001699999V0200201N001019999999N010000199+00631-00311103111ADDGF100995999999999999999999MD1710091+9990REMSYN04258338 32960 00201 10063 21031 40311 57009=
0115583380999992014011512004+31150+118583FM-12+001699999V0200701N002019999999N010000199+00311-00261103091ADDGF100995999999999999999999MA1999990102861MD1710021+9990REMSYN04858338 32960 00702 10031 21026 30286 40309 57002=
0117583380999992014011518004+31150+118583FM-12+001699999V0200701N001019999999N999999999+00071-00291103021ADDGF109991999999999999999999KA1120M+00811MD1710041+9990REMSYN05258338 33/// 90701 10007 21029 40302 57004 333 10081=
0094583380999992014011521004+31150+118583FM-12+001699999V0200901N002019999999N999999999+00061-00231102881ADDGF109991999999999999999999MD1710141+9990REMSYN04258338 33/// 90902 10006 21023 40288 57014=
0122583380999992014011600004+31150+118583FM-12+001699999V0200901N001019999999N008000199+00021-00341102901ADDGF100995999999999999999999MD1210021+9990MW1051REMSYN06458338 31958 00901 10002 21034 40290 52002 705// 333 05601 31028=
0094583380999992014011603004+31150+118583FM-12+001699999V0201801N001019999999N011000199+00751-00091102871ADDGF100995999999999999999999MD1710031+9990REMSYN04258338 32961 01801 10075 21009 40287 57003=
0117583380999992014011606004+31150+118583FM-12+001699999V0202901N002019999999N012000199+01071-00011102601ADDGF100995999999999999999999KA1240N-00161MD1710271+9990REMSYN05258338 32962 02902 10107 21001 40260 57027 333 21016=
0144583380999992014011609004+31150+118583FM-12+001699999V0203201N001019999999N007000199+00911-00021102661ADDAY101021AY201021GA1061+999991991GF106991061990999999991991MD1210061+9990MW1051REMSYN05458338 31957 63201 10091 21002 40266 52006 70500 86///=
0144583380999992014011612004+31150+118583FM-12+001699999V0200401N001019999999N008000199+00491+00051102671ADDAY101021AY201021GA1021+999991991GF102991021990999999991991MD1210011+9990MW1051REMSYN05458338 31958 20401 10049 20005 40267 52001 70500 82///=
0117583380999992014011618004+31150+118583FM-12+001699999V0200901N001019999999N999999999+00411+00081102721ADDGF109991999999999999999999KA1120M+01111MD1710031+9990REMSYN05258338 33/// 90901 10041 20008 40272 57003 333 10111=
0094583380999992014011621004+31150+118583FM-12+001699999V0202001N001019999999N999999999+00351+00111102631ADDGF109991999999999999999999MD1710091+9990REMSYN04258338 33/// 92001 10035 20011 40263 57009=
0144583380999992014011700004+31150+118583FM-12+001699999V0201801N001019999999N005000199+00371+00161102751ADDGA1071+999991991GF107991071990999999991991MD1210121+9990MW1051REMSYN07058338 31950 71801 10037 20016 40275 52012 705// 87/// 333 05204 31002=
0122583380999992014011703004+31150+118583FM-12+001699999V0202201N001019999999N007000199+00951+00261102841ADDAY101021AY201021GF100995999999999999999999MD1210091+9990MW1051REMSYN04858338 31957 02201 10095 20026 40284 52009 70500=
0166583380999992014011706004+31150+118583FM-12+001699999V0202701N002019999999N008000199+01211-00041102651ADDAY101021AY201021GF100995999999999999999999KA1240N+00321MA1999990102421MD1710191+9990MW1051REMSYN06458338 31958 02702 10121 21004 30242 40265 57019 70500 333 20032=
0122583380999992014011709004+31150+118583FM-12+001699999V0202501N001019999999N006000199+01031+00031102731ADDAY101021AY201021GF100995999999999999999999MD1210081+9990MW1051REMSYN04858338 31956 02501 10103 20003 40273 52008 70500=
0122583380999992014011712004+31150+118583FM-12+001699999V0202701N003019999999N005000199+00811+00151102981ADDAY101021AY201021GF100995999999999999999999MD1210251+9990MW1051REMSYN04858338 31950 02703 10081 20015 40298 52025 70500=
0138583380999992014011718004+31150+118583FM-12+001699999V0202701N002019999999N999999999+00371-00271103301ADDGF109991999999999999999999KA1120M+01251MA1999990103071MD1210151+9990REMSYN05858338 33/// 92702 10037 21027 30307 40330 52015 333 10125=
0094583380999992014011721004+31150+118583FM-12+001699999V0202901N002019999999N999999999+00161-00181103411ADDGF109991999999999999999999MD1210111+9990REMSYN04258338 33/// 92902 10016 21018 40341 52011=
0144583380999992014011800004+31150+118583FM-12+001699999V0202701N001019999999N003000199+00191-00081103651ADDGA1081+999991991GF108991081990999999991991MD1210241+9990MW1051REMSYN07058338 31730 82701 10019 21008 40365 52024 705// 88/// 333 00952 31015=
0144583380999992014011803004+31150+118583FM-12+001699999V0202501N002019999999N002000199+00251-00011103771ADDAY101021AY201021GA1081+999991991GF108991081990999999991991MD1210121+9990MW1051REMSYN05458338 31720 82502 10025 21001 40377 52012 70500 88///=
0188583380999992014011806004+31150+118583FM-12+001699999V0202901N001019999999N003000199+00461-00021103561ADDAY101021AY201021GA1081+999991991GF108991081990999999991991KA1240N+00111MA1999990103331MD1710211+9990MW1051REMSYN07058338 31930 82901 10046 21002 30333 40356 57021 70500 88/// 333 20011=
0122583380999992014011809004+31150+118583FM-12+001699999V0203601N001019999999N004000199+00411-00071103511ADDAY101021AY201021GF100995999999999999999999MD1710051+9990MW1051REMSYN04858338 31940 03601 10041 21007 40351 57005 70500=
0143583380999992014011812004+31150+118583FM-12+001699999V0200701N001019999999N006000199+00121-00071103501ADDAY101021AY201021GF100995999999999999999999MA1999990103261MD1710021+9990MW1051REMSYN05458338 31956 00701 10012 21007 30326 40350 57002 70500=
0117583380999992014011818004+31150+118583FM-12+001699999V0203601N001019999999N999999999-00091-00161103261ADDGF109991999999999999999999KA1120M+00551MD1710121+9990REMSYN05258338 33/// 93601 11009 21016 40326 57012 333 10055=
0094583380999992014011821004+31150+118583FM-12+001699999V0200901N001019999999N999999999-00021-00101103011ADDGF109991999999999999999999MD1710251+9990REMSYN04258338 33/// 90901 11002 21010 40301 57025=
0122583380999992014011900004+31150+118583FM-12+001699999V0201101N001019999999N002000199-00081-00221103101ADDGF100995999999999999999999MD1210081+9990MW1051REMSYN06458338 31920 01101 11008 21022 40310 52008 705// 333 05653 31030=
0122583380999992014011903004+31150+118583FM-12+001699999V0201601N001019999999N001500199+00111-00041103031ADDAY101021AY201021GF100995999999999999999999MD1710061+9990MW1051REMSYN04858338 41915 01601 10011 21004 40303 57006 70500=
0145583380999992014011906004+31150+118583FM-12+001699999V0201801N001019999999N005000199+00971+00011102671ADDAY101021AY201021GF100995999999999999999999KA1240N-00181MD1710361+9990MW1051REMSYN05858338 31950 01801 10097 20001 40267 57036 70500 333 21018=
0144583380999992014011909004+31150+118583FM-12+001699999V0202901N001019999999N005000199+00901+00171102531ADDAY101021AY201021GA1021+999991991GF102991021990999999991991MD1710141+9990MW1051REMSYN05458338 31950 22901 10090 20017 40253 57014 70500 82///=
0122583380999992014011912004+31150+118583FM-12+001699999V0202001N001019999999N005000199+00581+00081102621ADDAY101021AY201021GF100995999999999999999999MD1210091+9990MW1051REMSYN04858338 31950 02001 10058 20008 40262 52009 70500=
0117583380999992014011918004+31150+118583FM-12+001699999V0202001N002019999999N999999999+00351-00051102781ADDGF109991999999999999999999KA1120M+01171MD1210031+9990REMSYN05258338 33/// 92002 10035 21005 40278 52003 333 10117=
0094583380999992014011921004+31150+118583FM-12+001699999V0202001N001019999999N999999999+00391-00231102801ADDGF109991999999999999999999MD1210021+9990REMSYN04258338 33/// 92001 10039 21023 40280 52002=
0122583380999992014012000004+31150+118583FM-12+001699999V0202201N002019999999N008000199+00491-00491102931ADDGF100995999999999999999999MD1210131+9990MW1051REMSYN06458338 31958 02202 10049 21049 40293 52013 705// 333 05206 31017=
0116583380999992014012003004+31150+118583FM-12+001699999V0203201N002019999999N010000199+00821-00711103101ADDGA1021+999991991GF102991021990999999991991MD1210171+9990REMSYN04858338 32960 23202 10082 21071 40310 52017 82///=
0160583380999992014012006004+31150+118583FM-12+001699999V0202901N003019999999N012000199+01051-01031102921ADDGA1021+999991991GF102991021990999999991991KA1240N+00291MA1999990102691MD1710181+9990REMSYN06458338 32962 22903 10105 21103 30269 40292 57018 82/// 333 20029=
0116583380999992014012009004+31150+118583FM-12+001699999V0202701N002019999999N012000199+00851-01041103001ADDGA1071+999991991GF107991071990999999991991MD1210081+9990REMSYN04858338 32962 72702 10085 21104 40300 52008 87///=
0094583380999992014012012004+31150+118583FM-12+001699999V0202901N001019999999N011000199+00361-00751103151ADDGF100995999999999999999999MD1210151+9990REMSYN04258338 32961 02901 10036 21075 40315 52015=
0117583380999992014012018004+31150+118583FM-12+001699999V0202901N001019999999N999999999+00131-00671103291ADDGF109991999999999999999999KA1120M+01081MD1210061+9990REMSYN05258338 33/// 92901 10013 21067 40329 52006 333 10108=
0094583380999992014012021004+31150+118583FM-12+001699999V0201801N001019999999N999999999-00161-00531103311ADDGF109991999999999999999999MD1210021+9990REMSYN04258338 33/// 91801 11016 21053 40331 52002=
0104583380999992014012100004+31150+118583FM-12+001699999V0201801N001019999999N011000199-00131-00501103471ADDGF100995999999999999999999MD1210151+9990REMSYN05258338 32961 01801 11013 21050 40347 52015 333 00556=
0094583380999992014012103004+31150+118583FM-12+001699999V0203601N001019999999N012000199+00491-00721103591ADDGF100995999999999999999999MD1210131+9990REMSYN04258338 32962 03601 10049 21072 40359 52013=
0117583380999992014012106004+31150+118583FM-12+001699999V0202901N001019999999N012000199+00741-01291103351ADDGF100995999999999999999999KA1240N-00191MD1710241+9990REMSYN05258338 32962 02901 10074 21129 40335 57024 333 21019=
0094583380999992014012109004+31150+118583FM-12+001699999V0203201N001019999999N012000199+00601-01251103331ADDGF100995999999999999999999MD1710021+9990REMSYN04258338 32962 03201 10060 21125 40333 57002=
0094583380999992014012112004+31150+118583FM-12+001699999V0201401N001019999999N011000199+00151-00751103361ADDGF100995999999999999999999MD1210021+9990REMSYN04258338 32961 01401 10015 21075 40336 52002=
0094583380999992014012115004+31150+118583FM-12+001699999V0200701N001019999999N999999999+00031-00701103381ADDGF109991999999999999999999MD1210031+9990REMSYN04258338 33/// 90701 10003 21070 40338 52003=
0117583380999992014012118004+31150+118583FM-12+001699999V0203601N001019999999N999999999-00101-00991103241ADDGF109991999999999999999999KA1120M+00791MD1710141+9990REMSYN05258338 33/// 93601 11010 21099 40324 57014 333 10079=
0094583380999992014012121004+31150+118583FM-12+001699999V0201101N001019999999N999999999-00321-00811103081ADDGF109991999999999999999999MD1710161+9990REMSYN04258338 33/// 91101 11032 21081 40308 57016=
0104583380999992014012200004+31150+118583FM-12+001699999V0201601N001019999999N010000199-00271-00741103171ADDGF100995999999999999999999MD1210081+9990REMSYN05258338 32960 01601 11027 21074 40317 52008 333 05351=
0094583380999992014012203004+31150+118583FM-12+001699999V0201101N001019999999N018000199+00601-00831103161ADDGF100995999999999999999999MD1410001+9990REMSYN04258338 32968 01101 10060 21083 40316 54000=
0117583380999992014012206004+31150+118583FM-12+001699999V0202501N001019999999N020000199+00951-01301102851ADDGF100995999999999999999999KA1240N-00451MD1710311+9990REMSYN05258338 32970 02501 10095 21130 40285 57031 333 21045=
0094583380999992014012209004+31150+118583FM-12+001699999V0200901N001019999999N020000199+00911-01331102731ADDGF100995999999999999999999MD1710121+9990REMSYN04258338 32970 00901 10091 21133 40273 57012=
0115583380999992014012212004+31150+118583FM-12+001699999V0200701N001019999999N014000199+00421-00921102711ADDGF100995999999999999999999MA1999990102481MD1710021+9990REMSYN04858338 32964 00701 10042 21092 30248 40271 57002=
0138583380999992014012218004+31150+118583FM-12+001699999V0200701N001019999999N999999999+00001-00541102651ADDGF109991999999999999999999KA1120M+01091MA1999990102421MD1710021+9990REMSYN05858338 33/// 90701 10000 21054 30242 40265 57002 333 10109=
0094583380999992014012221004+31150+118583FM-12+001699999V0201101N002019999999N999999999-00081-00761102531ADDGF109991999999999999999999MD1710121+9990REMSYN04258338 33/// 91102 11008 21076 40253 57012=
0104583380999992014012300004+31150+118583FM-12+001699999V0200701N001019999999N999999999-00021-00581102451ADDGF109991999999999999999999MD1710081+9990REMSYN05258338 33/// 90701 11002 21058 40245 57008 333 05703=
0094583380999992014012303004+31150+118583FM-12+001699999V0201401N001019999999N020000199+00931-00651102401ADDGF100995999999999999999999MD1710051+9990REMSYN04258338 32970 01401 10093 21065 40240 57005=
0117583380999992014012306004+31150+118583FM-12+001699999V0202201N001019999999N022000199+01501-00911102001ADDGF100995999999999999999999KA1240N-00131MD1710401+9990REMSYN05258338 32972 02201 10150 21091 40200 57040 333 21013=
0094583380999992014012309004+31150+118583FM-12+001699999V0200701N002019999999N020000199+01341-00621101831ADDGF100995999999999999999999MD1710171+9990REMSYN04258338 32970 00702 10134 21062 40183 57017=
0115583380999992014012312004+31150+118583FM-12+001699999V0200901N001019999999N015000199+00971-00461101811ADDGF100995999999999999999999MA1999990101581MD1710021+9990REMSYN04858338 32965 00901 10097 21046 30158 40181 57002=
0117583380999992014012318004+31150+118583FM-12+001699999V0200901N001019999999N999999999+00251-00381101731ADDGF109991999999999999999999KA1120M+01681MD1710161+9990REMSYN05258338 33/// 90901 10025 21038 40173 57016 333 10168=
0094583380999992014012321004+31150+118583FM-12+001699999V0202901N001019999999N999999999+00111-00211101661ADDGF109991999999999999999999MD1710071+9990REMSYN04258338 33/// 92901 10011 21021 40166 57007=
0132583380999992014012400004+31150+118583FM-12+001699999V0200701N001019999999N013000199+00271-00281101711ADDGA1061+999991991GF106991061990999999991991MD1210051+9990REMSYN06458338 32963 60701 10027 21028 40171 52005 86/// 333 05703 31048=
0116583380999992014012403004+31150+118583FM-12+001699999V0201101N001019999999N015000199+01622-00331101631ADDGA1051+999991991GF105991051990999999991991MD1710071+9990REMSYN04858338 32965 51101 10162 21033 40163 57007 85///=
0139583380999992014012406004+31150+118583FM-12+001699999V0202501N001019999999N015000199+02102-00581101321ADDGA1051+999991991GF105991051990999999991991KA1240N+00021MD1710311+9990REMSYN05858338 32965 52501 10210 21058 40132 57031 85/// 333 20002=
0094583380999992014012409004+31150+118583FM-12+001699999V0200901N001019999999N014000199+01761-00211101321ADDGF100995999999999999999999MD1410001+9990REMSYN04258338 32964 00901 10176 21021 40132 54000=
0094583380999992014012412004+31150+118583FM-12+001699999V0201801N001019999999N014000199+00941+00031101441ADDGF100995999999999999999999MD1210111+9990REMSYN04258338 32964 01801 10094 20003 40144 52011=
0117583380999992014012418004+31150+118583FM-12+001699999V0201801N002019999999N999999999+00901-00011101671ADDGF109991999999999999999999KA1120M+02131MD1210121+9990REMSYN05258338 33/// 91802 10090 21001 40167 52012 333 10213=
0094583380999992014012421004+31150+118583FM-12+001699999V0202201N002019999999N999999999+00881+00081101681ADDGF109991999999999999999999MD1210011+9990REMSYN04258338 33/// 92202 10088 20008 40168 52001=
0144583380999992014012500004+31150+118583FM-12+001699999V0202501N003019999999N006000199+00891+00091101981ADDGA1071+999991991GF107991071990999999991991MD1210291+9990MW1051REMSYN07058338 31956 72503 10089 20009 40198 52029 705// 87/// 333 00306 30011=
0144583380999992014012503004+31150+118583FM-12+001699999V0202701N004019999999N003000199+00881-00021102201ADDAY101021AY201021GA1071+999991991GF107991071990999999991991MD1210221+9990MW1051REMSYN05458338 31930 72704 10088 21002 40220 52022 70500 87///=
0145583380999992014012506004+31150+118583FM-12+001699999V0202701N002019999999N004000199+01091-00121102131ADDAY101021AY201021GF100995999999999999999999KA1240N+00751MD1710071+9990MW1051REMSYN05858338 31940 02702 10109 21012 40213 57007 70500 333 20075=
0122583380999992014012509004+31150+118583FM-12+001699999V0203201N001019999999N003000199+00971+00011102331ADDAY101021AY201021GF100995999999999999999999MD1210201+9990MW1051REMSYN04858338 31930 03201 10097 20001 40233 52020 70500=
0144583380999992014012512004+31150+118583FM-12+001699999V0200201N001019999999N004000199+00771-00031102541ADDAY101021AY201021GA1071+999991991GF107991071990999999991991MD1210211+9990MW1051REMSYN05458338 31940 70201 10077 21003 40254 52021 70500 87///=
0117583380999992014012518004+31150+118583FM-12+001699999V0200401N001019999999N999999999+00571+00251102821ADDGF109991999999999999999999KA1120M+01121MD1210131+9990REMSYN05258338 33/// 90401 10057 20025 40282 52013 333 10112=
0094583380999992014012521004+31150+118583FM-12+001699999V0200401N002019999999N999999999+00531+00181102891ADDGF109991999999999999999999MD1210071+9990REMSYN04258338 33/// 90402 10053 20018 40289 52007=
0132583380999992014012600004+31150+118583FM-12+001699999V0200201N002019999999N010000199+00481+00131103141ADDGA1081+999991991GF108991081990999999991991MD1210251+9990REMSYN06458338 32960 80202 10048 20013 40314 52025 88/// 333 01254 30028=
0116583380999992014012603004+31150+118583FM-12+001699999V0200401N002019999999N011000199+00771+00181103161ADDGA1061+999991991GF106991061990999999991991MD1210021+9990REMSYN04858338 32961 60402 10077 20018 40316 52002 86///=
0139583380999992014012606004+31150+118583FM-12+001699999V0200401N003019999999N012000199+01031-00141102811ADDGA1061+999991991GF106991061990999999991991KA1240N+00451MD1710351+9990REMSYN05858338 32962 60403 10103 21014 40281 57035 86/// 333 20045=
0116583380999992014012609004+31150+118583FM-12+001699999V0200401N003019999999N011000199+00891-00151102661ADDGA1071+999991991GF107991071990999999991991MD1710151+9990REMSYN04858338 32961 70403 10089 21015 40266 57015 87///=
0137583380999992014012612004+31150+118583FM-12+001699999V0200701N003019999999N014000199+00701-00171102741ADDGA1071+999991991GF107991071990999999991991MA1999990102511MD1210081+9990REMSYN05458338 32964 70703 10070 21017 30251 40274 52008 87///=
0117583380999992014012618004+31150+118583FM-12+001699999V0200701N003019999999N999999999+00481+00071102431ADDGF109991999999999999999999KA1120M+01081MD1710181+9990REMSYN05258338 33/// 90703 10048 20007 40243 57018 333 10108=
0094583380999992014012621004+31150+118583FM-12+001699999V0200901N002019999999N999999999+00381+00051102331ADDGF109991999999999999999999MD1710101+9990REMSYN04258338 33/// 90902 10038 20005 40233 57010=
0132583380999992014012700004+31150+118583FM-12+001699999V0201101N001019999999N011000199+00371+00111102431ADDGA1071+999991991GF107991071990999999991991MD1210101+9990REMSYN06458338 32961 71101 10037 20011 40243 52010 87/// 333 05751 30002=
0116583380999992014012703004+31150+118583FM-12+001699999V0201801N001019999999N011000199+00941+00081102351ADDGA1031+999991991GF103991031990999999991991MD1710081+9990REMSYN04858338 32961 31801 10094 20008 40235 57008 83///=
0139583380999992014012706004+31150+118583FM-12+001699999V0202201N001019999999N011000199+01251+00031102071ADDGA1071+999991991GF107991071990999999991991KA1240N+00321MD1710281+9990REMSYN05858338 32961 72201 10125 20003 40207 57028 87/// 333 20032=
0094583380999992014012709004+31150+118583FM-12+001699999V0200701N001019999999N010000199+01181+00281101931ADDGF100995999999999999999999MD1710141+9990REMSYN04258338 32960 00701 10118 20028 40193 57014=
0115583380999992014012712004+31150+118583FM-12+001699999V0200901N001019999999N010000199+00761+00211102061ADDGF100995999999999999999999MA1999990101831MD1210131+9990REMSYN04858338 32960 00901 10076 20021 30183 40206 52013=
0117583380999992014012718004+31150+118583FM-12+001699999V0200401N001019999999N999999999+00521+00291102161ADDGF109991999999999999999999KA1120M+01401MD1210081+9990REMSYN05258338 33/// 90401 10052 20029 40216 52008 333 10140=
0094583380999992014012721004+31150+118583FM-12+001699999V0201801N001019999999N999999999+00591+00341102121ADDGF109991999999999999999999MD1710041+9990REMSYN04258338 33/// 91801 10059 20034 40212 57004=
0165583380999992014012800004+31150+118583FM-12+001699999V0200901N001019999999N007000199+00641+00371102371ADDGA1081+999991991GF108991081990999999991991MA1999990102141MD1210251+9990MW1101REMSYN07658338 31757 80901 10064 20037 30214 40237 52025 710// 88/// 333 05103 30019=
0144583380999992014012803004+31150+118583FM-12+001699999V0203401N001019999999N007000199+00971+00451102501ADDAY101021AY201021GA1071+999991991GF107991071990999999991991MD1210131+9990MW1051REMSYN05458338 31957 73401 10097 20045 40250 52013 70500 87///=
0167583380999992014012806004+31150+118583FM-12+001699999V0200201N002019999999N008000199+01351+00381102391ADDAY101021AY201021GA1031+999991991GF103991031990999999991991KA1240N+00491MD1710111+9990MW1051REMSYN06458338 31958 30202 10135 20038 40239 57011 70500 83/// 333 20049=
0144583380999992014012809004+31150+118583FM-12+001699999V0200401N002019999999N007000199+01191+00321102381ADDAY101021AY201021GA1021+999991991GF102991021990999999991991MD1710011+9990MW1051REMSYN05458338 31957 20402 10119 20032 40238 57001 70500 82///=
0137583380999992014012812004+31150+118583FM-12+001699999V0200401N002019999999N010000199+00861+00461102521ADDGA1081+999991991GF108991081990999999991991MA1999990102291MD1210141+9990REMSYN05458338 32960 80402 10086 20046 30229 40252 52014 88///=
0117583380999992014012818004+31150+118583FM-12+001699999V0200701N003019999999N999999999+00841+00521102331ADDGF109991999999999999999999KA1120M+01391MD1710121+9990REMSYN05258338 33/// 90703 10084 20052 40233 57012 333 10139=
0115583380999992014012821004+31150+118583FM-12+001699999V0200701N001019999999N999999999+00721+00611102091ADDAA124000431GF109991999999999999999999MD1710241+9990REMSYN05258338 43/// 90701 10072 20061 40209 57024 333 70004=
0193583380999992014012900004+31150+118583FM-12+001699999V0200901N002019999999N005000199+00791+00651102041ADDAA106000631AA224000631GA1081+999991991GF108991081990999999991991MA1999990101811MD1710051+9990MW1601REMSYN08258338 11450 80902 10079 20065 30181 40204 57005 69961 760// 88/// 333 05302 70006=
0144583380999992014012903004+31150+118583FM-12+001699999V0202201N001019999999N004000199+00831+00771102081ADDAY161021AY261021GA1081+999991991GF108991081990999999991991MD1210041+9990MW1601REMSYN05458338 41440 82201 10083 20077 40208 52004 76066 88///=
0184583380999992014012906004+31150+118583FM-12+001699999V0202701N001019999999N002000199+00811+00771101801ADDAA106002031AY161021AY261021GA1081+999991991GF108991081990999999991991KA1240N+00711MD1710281+9990MW1211REMSYN07058338 11420 82701 10081 20077 40180 57028 60021 72166 88/// 333 20071=
0144583380999992014012909004+31150+118583FM-12+001699999V0201601N001019999999N001500199+00871+00831101731ADDAY141021AY201021GA1081+999991991GF108991081990999999991991MD1710071+9990MW1281REMSYN05458338 41615 81601 10087 20083 40173 57007 72840 88///=
0144583380999992014012912004+31150+118583FM-12+001699999V0201801N001019999999N003000199+00741+00701101781ADDAY141021AY201021GA1081+999991991GF108991081990999999991991MD1210051+9990MW1101REMSYN05458338 31430 81801 10074 20070 40178 52005 71040 88///=
0117583380999992014012918004+31150+118583FM-12+001699999V0202201N001019999999N999999999+00531+00531101851ADDGF109991999999999999999999KA1120M+00881MD1210021+9990REMSYN05258338 33/// 92201 10053 20053 40185 52002 333 10088=
0115583380999992014012921004+31150+118583FM-12+001699999V0201601N001019999999N999999999+00471+00471101771ADDAA124001831GF109991999999999999999999MD1710081+9990REMSYN05258338 32/// 91601 10047 20047 40177 57008 333 70018=
0161583380999992014013000004+31150+118583FM-12+001699999V0201601N001019999999N000400199+00571+00571101961ADDAA124001631GA1081+999991991GF108991081990999999991991MD1210191+9990MW1421REMSYN07658338 31504 81601 10057 20057 40196 52019 742// 88/// 333 05152 30027 70016=
0122583380999992014013003004+31150+118583FM-12+001699999V0202901N001019999999N004000199+00961+00961102011ADDAY141021AY241021GF100995999999999999999999MD1210051+9990MW1281REMSYN04858338 31940 02901 10096 20096 40201 52005 72844=
0145583380999992014013006004+31150+118583FM-12+001699999V0203201N002019999999N010000199+01781+01141101701ADDAY141021AY201021GF100995999999999999999999KA1240N+00471MD1710301+9990MW1001REMSYN05858338 31960 03202 10178 20114 40170 57030 70040 333 20047=
0094583380999992014013009004+31150+118583FM-12+001699999V0200201N001019999999N010000199+01731+01091101721ADDGF100995999999999999999999MD1210021+9990REMSYN04258338 32960 00201 10173 20109 40172 52002=
0143583380999992014013012004+31150+118583FM-12+001699999V0200901N001019999999N006000199+01281+01031101871ADDAY101021AY201021GF100995999999999999999999MA1999990101641MD1210141+9990MW1101REMSYN05458338 31956 00901 10128 20103 30164 40187 52014 71000=
0138583380999992014013018004+31150+118583FM-12+001699999V0200701N002019999999N999999999+00981+00841101841ADDGF109991999999999999999999KA1120M+01871MA1999990101621MD1710041+9990REMSYN05858338 33/// 90702 10098 20084 30162 40184 57004 333 10187=
0094583380999992014013021004+31150+118583FM-12+001699999V0200901N002019999999N999999999+00881+00821101791ADDGF109991999999999999999999MD1710051+9990REMSYN04258338 33/// 90902 10088 20082 40179 57005=
0116583380999992014013100004+31150+118583FM-12+001699999V0200901N00201000001CN000000199+00761+00761101881ADDGF109991999999999999999999MD1210091+9990MW1451REMSYN05858338 31/00 90902 10076 20076 40188 52009 745// 333 05102=
0144583380999992014013103004+31150+118583FM-12+001699999V0200901N001019999999N004000199+01041+01041101841ADDAY141021AY241021GA1071+999991991GF107991071990999999991991MD1710041+9990MW1281REMSYN05458338 31640 70901 10104 20104 40184 57004 72844 87///=
0167583380999992014013106004+31150+118583FM-12+001699999V0200701N001019999999N011000199+02021+01191101471ADDAY141021AY201021GA1061+999991991GF106991061990999999991991KA1240N+00721MD1710371+9990MW1001REMSYN06458338 31961 60701 10202 20119 40147 57037 70040 86/// 333 20072=
0116583380999992014013109004+31150+118583FM-12+001699999V0200701N001019999999N010000199+01881+01341101321ADDGA1071+999991991GF107991071990999999991991MD1710151+9990REMSYN04858338 32960 70701 10188 20134 40132 57015 87///=
0094583380999992014013112004+31150+118583FM-12+001699999V0200901N002019999999N010000199+01761+01211101301ADDGF100995999999999999999999MD1710021+9990REMSYN04258338 32960 00902 10176 20121 40130 57002=
0138583380999992014013118004+31150+118583FM-12+001699999V0201101N001019999999N999999999+01471+01051101271ADDGF109991999999999999999999KA1120M+02241MA1999990101051MD1710091+9990REMSYN05858338 33/// 91101 10147 20105 30105 40127 57009 333 10224=
0094583380999992014013121004+31150+118583FM-12+001699999V0201101N001019999999N999999999+01511+00991101171ADDGF109991999999999999999999MD1710101+9990REMSYN04258338 33/// 91101 10151 20099 40117 57010=
0138583380999992014020100004+31150+118583FM-12+001699999V0201801N001019999999N008000199+01581+00951101211ADDGA1021+999991991GF102991021990999999991991MD1210041+9990MW1051REMSYN06458338 31958 21801 10158 20095 40121 52004 705// 82/// 333 05708=
0094583380999992014020103004+31150+118583FM-12+001699999V0202201N001019999999N011000199+02171+01081101251ADDGF100995999999999999999999MD1210041+9990REMSYN04258338 32961 02201 10217 20108 40125 52004=
0117583380999992014020106004+31150+118583FM-12+001699999V0202901N006019999999N012000199+01831+01231101141ADDGF100995999999999999999999KA1240N+01181MD1710111+9990REMSYN05258338 32962 02906 10183 20123 40114 57011 333 20118=
0144583380999992014020109004+31150+118583FM-12+001699999V0202701N002019999999N007000199+01561+01161101251ADDAY101021AY201021GA1021+999991991GF102991021990999999991991MD1210111+9990MW1101REMSYN05458338 31957 22702 10156 20116 40125 52011 71000 82///=
0165583380999992014020112004+31150+118583FM-12+001699999V0202501N001019999999N005000199+01211+01101101471ADDAY101021AY201021GA1081+999991991GF108991081990999999991991MA1999990101251MD1210221+9990MW1101REMSYN06058338 31650 82501 10121 20110 30125 40147 52022 71000 88///=
0117583380999992014020118004+31150+118583FM-12+001699999V0202701N001019999999N999999999+01081+01031101471ADDGF109991999999999999999999KA1120M+02401MD1410001+9990REMSYN05258338 33/// 92701 10108 20103 40147 54000 333 10240=
0094583380999992014020121004+31150+118583FM-12+001699999V0200701N001019999999N999999999+01021+01021101331ADDGF109991999999999999999999MD1710141+9990REMSYN04258338 33/// 90701 10102 20102 40133 57014=
0150583380999992014020200004+31150+118583FM-12+001699999V0200901N00101001201CN000500199+01021+01021101341ADDAA112000021AA224000021GF109991999999999999999999MD1210011+9990MW1501REMSYN07058338 11/05 90901 10102 20102 40134 52001 69902 750// 333 00156 79999=
0122583380999992014020203004+31150+118583FM-12+001699999V0200901N00201002401CN000700199+01121+01121101231ADDAY151021AY241021GF109991999999999999999999MD1710111+9990MW1451REMSYN04858338 31/07 90902 10112 20112 40123 57011 74554=
0184583380999992014020206004+31150+118583FM-12+001699999V0200401N001019999999N004000199+01501+01181100871ADDAA106000021AY151021AY241021GA1051+999991991GF105991051990999999991991KA1240N+01011MD1710361+9990MW1101REMSYN07058338 11440 50401 10150 20118 40087 57036 69901 71054 85/// 333 20101=
0122583380999992014020209004+31150+118583FM-12+001699999V0200201N001019999999N006000199+01411+01181100811ADDAY101021AY201021GF100995999999999999999999MD1710061+9990MW1101REMSYN04858338 31956 00201 10141 20118 40081 57006 71000=
0165583380999992014020212004+31150+118583FM-12+001699999V0200201N001019999999N004000199+01291+01201100951ADDAY101021AY201021GA1071+999991991GF107991071990999999991991MA1999990100731MD1210141+9990MW1101REMSYN06058338 31640 70201 10129 20120 30073 40095 52014 71000 87///=
0117583380999992014020218004+31150+118583FM-12+001699999V0200201N002019999999N999999999+01111+01111101101ADDGF109991999999999999999999KA1120M+01631MD1210041+9990REMSYN05258338 33/// 90202 10111 20111 40110 52004 333 10163=
0115583380999992014020221004+31150+118583FM-12+001699999V0203201N002019999999N999999999+01151+01151101181ADDAA124000021GF109991999999999999999999MD1210081+9990REMSYN05258338 33/// 93202 10115 20115 40118 52008 333 79999=
0150583380999992014020300004+31150+118583FM-12+001699999V0203401N00101001201CN000400199+01161+01161101521ADDAA106000131AA224000131GF109991999999999999999999MD1210341+9990MW1541REMSYN07058338 11/04 93401 10116 20116 40152 52034 69911 754// 333 00201 70001=
0144583380999992014020303004+31150+118583FM-12+001699999V0200201N002019999999N002000199+00961+00961101851ADDAY151021AY241021GA1081+999991991GF108991081990999999991991MD1210331+9990MW1601REMSYN05458338 41520 80202 10096 20096 40185 52033 76054 88///=
0184583380999992014020306004+31150+118583FM-12+001699999V0200401N003019999999N004000199+00811+00811101871ADDAA106000831AY151021AY241021GA1081+999991991GF108991081990999999991991KA1240N+00811MD1210011+9990MW1601REMSYN07058338 11540 80403 10081 20081 40187 52001 69981 76054 88/// 333 20081=
0144583380999992014020309004+31150+118583FM-12+001699999V0200401N004019999999N008000199+00651+00371102181ADDAY161021AY201021GA1081+999991991GF108991081990999999991991MD1210311+9990MW1101REMSYN05458338 41458 80404 10065 20037 40218 52031 71060 88///=
0161583380999992014020312004+31150+118583FM-12+001699999V0200201N004019999999N015000199+00481+00021102391ADDAA106000231AY161021AY201021GA1081+999991991GF108991081990999999991991MD1210211+9990MW1001REMSYN06058338 11765 80204 10048 20002 40239 52021 69921 70060 88///=
0117583380999992014020318004+31150+118583FM-12+001699999V0200201N003019999999N999999999+00331-00161102631ADDGF109991999999999999999999KA1120M+01161MD1210101+9990REMSYN05258338 33/// 90203 10033 21016 40263 52010 333 10116=
0115583380999992014020321004+31150+118583FM-12+001699999V0200401N002019999999N999999999+00141-00271102651ADDAA124001231GF109991999999999999999999MD1210021+9990REMSYN05258338 33/// 90402 10014 21027 40265 52002 333 70012=
0149583380999992014020400004+31150+118583FM-12+001699999V0200401N003019999999N018000199+00141-00331102811ADDAA124001031GA1041+999991991GF104991041990999999991991MD1210161+9990REMSYN07058338 32968 40403 10014 21033 40281 52016 84/// 333 01360 31003 70010=
0116583380999992014020403004+31150+118583FM-12+001699999V0200201N003019999999N020000199+00501-00481102731ADDGA1021+999991991GF102991021990999999991991MD1710081+9990REMSYN04858338 32970 20203 10050 21048 40273 57008 82///=
0139583380999992014020406004+31150+118583FM-12+001699999V0200701N004019999999N020000199+00611-00581102421ADDGA1071+999991991GF107991071990999999991991KA1240N+00091MD1710311+9990REMSYN05858338 32970 70704 10061 21058 40242 57031 87/// 333 20009=
0116583380999992014020409004+31150+118583FM-12+001699999V0200701N004019999999N020000199+00551-00521102311ADDGA1071+999991991GF107991071990999999991991MD1710111+9990REMSYN04858338 32970 70704 10055 21052 40231 57011 87///=
0116583380999992014020412004+31150+118583FM-12+001699999V0200401N003019999999N017000199+00471-00461102381ADDGA1071+999991991GF107991071990999999991991MD1210071+9990REMSYN04858338 32767 70403 10047 21046 40238 52007 87///=
0129583380999992014020418004+31150+118583FM-12+001699999V0200401N00301002401CN015000199+00421-00311102211ADDGF109991999999999999999999KA1120M+00721MD1710011+9990MW1601REMSYN05858338 31/65 90403 10042 21031 40221 57001 760// 333 10072=
0127583380999992014020421004+31150+118583FM-12+001699999V0200701N00201002401CN014000199+00291+00011102151ADDAA124000331GF109991999999999999999999MD1710061+9990MW1211REMSYN05858338 41/64 90702 10029 20001 40215 57006 721// 333 70003=
0199583380999992014020500004+31150+118583FM-12+001699999V0200401N003019999999N008000199+00201+00131102231ADDAA106002032AA224001732GA1081+999991991GF108991081990999999991991MA1999990102001MD1210081+9990MW1601REMSYN08858338 11458 80403 10020 20013 30200 40223 52008 60021 760// 88/// 333 05601 30022 70017=
0144583380999992014020503004+31150+118583FM-12+001699999V0200701N003019999999N008000199+00341+00271102191ADDAY161021AY261021GA1081+999991991GF108991081990999999991991MD1710041+9990MW1601REMSYN05458338 41458 80703 10034 20027 40219 57004 76066 88///=
0184583380999992014020506004+31150+118583FM-12+001699999V0200701N003019999999N009000199+00431+00371101791ADDAA106003031AY161021AY261021GA1081+999991991GF108991081990999999991991KA1240N+00201MD1710401+9990MW1601REMSYN07058338 11459 80703 10043 20037 40179 57040 60031 76066 88/// 333 20020=
0144583380999992014020509004+31150+118583FM-12+001699999V0200701N003019999999N007000199+00491+00451101691ADDAY161021AY261021GA1081+999991991GF108991081990999999991991MD1710101+9990MW1601REMSYN05458338 41457 80703 10049 20045 40169 57010 76066 88///=
0182583380999992014020512004+31150+118583FM-12+001699999V0200701N003019999999N011000199+00561+00531101721ADDAA106005031AY161021AY261021GA1081+999991991GF108991081990999999991991MA1999990101491MD1210031+9990MW1601REMSYN06658338 11461 80703 10056 20053 30149 40172 52003 60051 76066 88///=
0146583380999992014020518004+31150+118583FM-12+001699999V0203401N00101002401CN012000199+00561+00561101821ADDAA106005031GF109991999999999999999999KA1120M+00591MD1210061+9990MW1601REMSYN06458338 11/62 93401 10056 20056 40182 52006 60051 760// 333 10059=
0127583380999992014020521004+31150+118583FM-12+001699999V0203201N00101002401CN010000199+00521+00521101841ADDAA124015231GF109991999999999999999999MD1210021+9990MW1601REMSYN05858338 41/60 93201 10052 20052 40184 52002 760// 333 70152=
0199583380999992014020600004+31150+118583FM-12+001699999V0203601N002019999999N003000199+00391+00391102011ADDAA106003031AA224015731GA1081+999991991GF108991081990999999991991MA1999990101781MD1210171+9990MW1611REMSYN08858338 11430 83602 10039 20039 30178 40201 52017 60031 761// 88/// 333 05202 30048 70157=
0144583380999992014020603004+31150+118583FM-12+001699999V0200201N002019999999N003000199+00461+00461101981ADDAY161021AY261021GA1081+999991991GF108991081990999999991991MD1710031+9990MW1611REMSYN05458338 41430 80202 10046 20046 40198 57003 76166 88///=
0184583380999992014020606004+31150+118583FM-12+001699999V0200201N003019999999N004000199+00521+00521101681ADDAA106003031AY161021AY261021GA1081+999991991GF108991081990999999991991KA1240N+00381MD1710301+9990MW1611REMSYN07058338 11440 80203 10052 20052 40168 57030 60031 76166 88/// 333 20038=
0144583380999992014020609004+31150+118583FM-12+001699999V0200201N002019999999N004000199+00531+00531101751ADDAY161021AY261021GA1081+999991991GF108991081990999999991991MD1210071+9990MW1611REMSYN05458338 41440 80202 10053 20053 40175 52007 76166 88///=
0161583380999992014020612004+31150+118583FM-12+001699999V0200201N002019999999N007000199+00541+00541101861ADDAA106010031AY161021AY261021GA1081+999991991GF108991081990999999991991MD1210111+9990MW1601REMSYN06058338 11457 80202 10054 20054 40186 52011 60101 76066 88///=
0146583380999992014020618004+31150+118583FM-12+001699999V0203601N00201002401CN007000199+00371+00371101901ADDAA106010031GF109991999999999999999999KA1120M+00561MD1710041+9990MW1601REMSYN06458338 11/57 93602 10037 20037 40190 57004 60101 760// 333 10056=
0127583380999992014020621004+31150+118583FM-12+001699999V0200201N00301002401CN007000199+00231+00221101871ADDAA124026031GF109991999999999999999999MD1710031+9990MW1601REMSYN05858338 41/57 90203 10023 20022 40187 57003 760// 333 70260=
0178583380999992014020700004+31150+118583FM-12+001699999V0200201N002019999999N010000199+00221+00211102031ADDAA106004031AA224025331GA1081+999991991GF108991081990999999991991MD1210161+9990MW1601REMSYN08258338 11460 80202 10022 20021 40203 52016 60041 760// 88/// 333 00052 30026 70253=
0144583380999992014020703004+31150+118583FM-12+001699999V0203601N003019999999N007000199+00241+00231102101ADDAY161021AY261021GA1081+999991991GF108991081990999999991991MD1210071+9990MW1681REMSYN05458338 41457 83603 10024 20023 40210 52007 76866 88///=
0184583380999992014020706004+31150+118583FM-12+001699999V0203201N002019999999N006000199+00151+00141101971ADDAA106004031AY171021AY261021GA1081+999991991GF108991081990999999991991KA1240N+00151MD1710131+9990MW1681REMSYN07058338 11556 83202 10015 20014 40197 57013 60041 76876 88/// 333 20015=
0144583380999992014020709004+31150+118583FM-12+001699999V0203201N001019999999N005000199+00131+00121102071ADDAY171021AY271021GA1081+999991991GF108991081990999999991991MD1210101+9990MW1681REMSYN05458338 41550 83201 10013 20012 40207 52010 76877 88///=
0182583380999992014020712004+31150+118583FM-12+001699999V0203201N001019999999N007000199+00131+00101102201ADDAA106002031AY171021AY261021GA1081+999991991GF108991081990999999991991MA1999990101971MD1210131+9990MW1601REMSYN06658338 11457 83201 10013 20010 30197 40220 52013 60021 76076 88///=
0138583380999992014020718004+31150+118583FM-12+001699999V0203401N001019999999N999999999+00141+00021102301ADDGF109991999999999999999999KA1120M+00371MA1999990102071MD1210031+9990REMSYN05858338 33/// 93401 10014 20002 30207 40230 52003 333 10037=
0115583380999992014020721004+31150+118583FM-12+001699999V0203401N00201002401CN010000199+00061-00081102281ADDAA124007231GF109991999999999999999999MD1710021+9990REMSYN05258338 32/60 93402 10006 21008 40228 57002 333 70072=
0166583380999992014020800004+31150+118583FM-12+001699999V0203601N001019999999N012000199+00071-00191102441ADDAA112000021AA224006031GA1081+999991991GF108991081990999999991991MD1210161+9990REMSYN07658338 12662 83601 10007 21019 40244 52016 69902 88/// 333 00452 30008 70060=
0144583380999992014020803004+31150+118583FM-12+001699999V0203601N002019999999N012000199+00201-00131102401ADDAY171021AY201021GA1071+999991991GF107991071990999999991991MD1710041+9990MW1001REMSYN05458338 31562 73602 10020 21013 40240 57004 70070 87///=
0203583380999992014020806004+31150+118583FM-12+001699999V0203601N001019999999N015000199+00241-00291102191ADDAA106000091AY171021AY201021GA1081+999991991GF108991081990999999991991KA1240N+00041MD1710211+9990MW1001REMSYN07058338 11665 83601 10024 21029 40219 57021 69901 70070 88/// 333 20004=EQDQ01  00002PRCP06
0116583380999992014020809004+31150+118583FM-12+001699999V0200201N001019999999N012000199+00181-00331102311ADDGA1081+999991991GF108991081990999999991991MD1210121+9990REMSYN04858338 32762 80201 10018 21033 40231 52012 88///=
0116583380999992014020812004+31150+118583FM-12+001699999V0200201N002019999999N014000199+00151-00301102401ADDGA1081+999991991GF108991081990999999991991MD1210091+9990REMSYN04858338 32764 80202 10015 21030 40240 52009 88///=
0117583380999992014020818004+31150+118583FM-12+001699999V0203601N002019999999N999999999+00101-00271102621ADDGF109991999999999999999999KA1120M+00261MD1410001+9990REMSYN05258338 33/// 93602 10010 21027 40262 54000 333 10026=
0094583380999992014020821004+31150+118583FM-12+001699999V0200201N00201002401CN013000199+00071-00411102631ADDGF109991999999999999999999MD1210011+9990REMSYN04258338 32/63 90202 10007 21041 40263 52001=
0180583380999992014020900004+31150+118583FM-12+001699999V0200201N003019999999N007000199+00041-00391102751ADDAA124000091GA1081+999991991GF108991081990999999991991MD1210121+9990MW1101REMSYN07658338 31757 80203 10004 21039 40275 52012 710// 88/// 333 00300 30001 79999=EQDQ01  00002PRCP24
0144583380999992014020903004+31150+118583FM-12+001699999V0203601N003019999999N006000199-00051-00271102851ADDAY171021AY201021GA1081+999991991GF108991081990999999991991MD1210101+9990MW1701REMSYN05458338 41756 83603 11005 21027 40285 52010 77070 88///=
0205583380999992014020906004+31150+118583FM-12+001699999V0203601N001019999999N007000199+00051-00201102721ADDAA106000331AY171021AY201021GA1081+999991991GF108991081990999999991991KA1240N-00051MA1999990102491MD1710131+9990MW1701REMSYN07658338 11557 83601 10005 21020 30249 40272 57013 69931 77070 88/// 333 21005=
0144583380999992014020909004+31150+118583FM-12+001699999V0203401N002019999999N007000199-00011-00221102831ADDAY171021AY271021GA1081+999991991GF108991081990999999991991MD1210111+9990MW1701REMSYN05458338 41557 83402 11001 21022 40283 52011 77077 88///=
0161583380999992014020912004+31150+118583FM-12+001699999V0203401N003019999999N010000199-00081-00301103001ADDAA106000231AY171021AY271021GA1081+999991991GF108991081990999999991991MD1210161+9990MW1701REMSYN06058338 11460 83403 11008 21030 40300 52016 69921 77077 88///=
0129583380999992014020918004+31150+118583FM-12+001699999V0203601N00201002401CN010000199-00141-00691103201ADDGF109991999999999999999999KA1120M+00101MD1210011+9990MW1701REMSYN05858338 41/60 93602 11014 21069 40320 52001 770// 333 10010=
0104583380999992014020921004+31150+118583FM-12+001699999V0203601N00201002401CN012000199-00261-00681103211ADDGF109991999999999999999999MD1210011+9990REMSYN05258338 32/62 93602 11026 21068 40321 52001 333 92500=
0172583380999992014021000004+31150+118583FM-12+001699999V0203401N002019999999N012000199-00301-00751103361ADDAA112000731AA224001231GA1071+999991991GF107991071990999999991991MD1210151+9990REMSYN08258338 12662 73402 11030 21075 40336 52015 69972 87/// 333 00653 31010 70012 92501=
0116583380999992014021003004+31150+118583FM-12+001699999V0202901N002019999999N013000199-00091-00831103381ADDGA1071+999991991GF107991071990999999991991MD1210021+9990REMSYN04858338 32663 72902 11009 21083 40338 52002 87///=
0139583380999992014021006004+31150+118583FM-12+001699999V0202701N003019999999N015000199+00051-00751103091ADDGA1071+999991991GF107991071990999999991991KA1240N-00311MD1710291+9990REMSYN05858338 32665 72703 10005 21075 40309 57029 87/// 333 21031=
0116583380999992014021009004+31150+118583FM-12+001699999V0203601N001019999999N013000199-00031-00711103051ADDGA1071+999991991GF107991071990999999991991MD1710041+9990REMSYN04858338 32663 73601 11003 21071 40305 57004 87///=
0116583380999992014021012004+31150+118583FM-12+001699999V0203201N002019999999N012000199-00101-00671103131ADDGA1071+999991991GF107991071990999999991991MD1210081+9990REMSYN04858338 32762 73202 11010 21067 40313 52008 87///=
0117583380999992014021018004+31150+118583FM-12+001699999V0203601N001019999999N999999999-00321-00681103131ADDGF109991999999999999999999KA1120M+00121MD1710041+9990REMSYN05258338 33/// 93601 11032 21068 40313 57004 333 10012=
0106583380999992014021021004+31150+118583FM-12+001699999V0200201N00101002401CN008000199-00451-00691102981ADDGF109991999999999999999999MD1710151+9990MW1101REMSYN04858338 31/58 90201 11045 21069 40298 57015 710//=
0104583380999992014021100004+31150+118583FM-12+001699999V0200401N001019999999N010000199-00321-00681103001ADDGF100995999999999999999999MD1210021+9990REMSYN05258338 32960 00401 11032 21068 40300 52002 333 05400=
0116583380999992014021103004+31150+118583FM-12+001699999V0203201N002019999999N012000199+00001-00731103021ADDGA1021+999991991GF102991021990999999991991MD1210021+9990REMSYN04858338 32562 23202 10000 21073 40302 52002 82///=
0139583380999992014021106004+31150+118583FM-12+001699999V0203201N001019999999N014000199+00151-00731102691ADDGA1041+999991991GF104991041990999999991991KA1240N-00501MD1710331+9990REMSYN05858338 32564 43201 10015 21073 40269 57033 84/// 333 21050=
0116583380999992014021109004+31150+118583FM-12+001699999V0203201N001019999999N014000199+00151-00701102651ADDGA1021+999991991GF102991021990999999991991MD1710041+9990REMSYN04858338 32564 23201 10015 21070 40265 57004 82///=
0094583380999992014021112004+31150+118583FM-12+001699999V0201601N001019999999N013000199-00011-00691102761ADDGF100995999999999999999999MD1210111+9990REMSYN04258338 32963 01601 11001 21069 40276 52011=
0117583380999992014021118004+31150+118583FM-12+001699999V0200401N001019999999N999999999-00221-00501102761ADDGF109991999999999999999999KA1120M+00251MD1210011+9990REMSYN05258338 33/// 90401 11022 21050 40276 52001 333 10025=
0094583380999992014021121004+31150+118583FM-12+001699999V0200401N00101002401CN010000199-00291-00451102721ADDGF109991999999999999999999MD1710041+9990REMSYN04258338 32/60 90401 11029 21045 40272 57004=
0132583380999992014021200004+31150+118583FM-12+001699999V0200201N001019999999N011000199-00171-00441102901ADDGA1071+999991991GF107991071990999999991991MD1210181+9990REMSYN06458338 32961 70201 11017 21044 40290 52018 87/// 333 05102 31047=
0116583380999992014021203004+31150+118583FM-12+001699999V0200201N003019999999N012000199+00201-00541103021ADDGA1071+999991991GF107991071990999999991991MD1210121+9990REMSYN04858338 32962 70203 10020 21054 40302 52012 87///=
0160583380999992014021206004+31150+118583FM-12+001699999V0200201N001019999999N012000199+00361-00461102771ADDGA1071+999991991GF107991071990999999991991KA1240N-00331MA1999990102541MD1710241+9990REMSYN06458338 32962 70201 10036 21046 30254 40277 57024 87/// 333 21033=
0116583380999992014021209004+31150+118583FM-12+001699999V0200401N001019999999N012000199+00321-00451102741ADDGA1081+999991991GF108991081990999999991991MD1710031+9990REMSYN04858338 32962 80401 10032 21045 40274 57003 88///=
0161583380999992014021212004+31150+118583FM-12+001699999V0203601N001019999999N008000199+00071+00001102891ADDAA106000331AY171021AY201021GA1081+999991991GF108991081990999999991991MD1210141+9990MW1701REMSYN06058338 11458 83601 10007 20000 40289 52014 69931 77070 88///=
0117583380999992014021218004+31150+118583FM-12+001699999V0200201N00201002401CN010000199+00041+00031103041ADDGF109991999999999999999999KA1120M+00401MD1210011+9990REMSYN05258338 42/60 90202 10004 20003 40304 52001 333 10040=
0116583380999992014021221004+31150+118583FM-12+001699999V0200201N00101002401CN008000199+00021+00011103071ADDGF109991999999999999999999MD1210031+9990MW1701REMSYN05858338 41/58 90201 10002 20001 40307 52003 770// 333 92502=
0205583380999992014021300004+31150+118583FM-12+001699999V0200201N001019999999N003000199+00011+00001103221ADDAA112003031AA224003031GA1081+999991991GF108991081990999999991991MA1999990102981MD1210141+9990MW1701REMSYN09458338 11430 80201 10001 20000 30298 40322 52014 60032 770// 88/// 333 00302 30002 70030 92504=
0144583380999992014021303004+31150+118583FM-12+001699999V0203601N002019999999N005000199+00161+00071103261ADDAY171021AY271021GA1081+999991991GF108991081990999999991991MD1210041+9990MW1701REMSYN05458338 41450 83602 10016 20007 40326 52004 77077 88///=
0190583380999992014021306004+31150+118583FM-12+001699999V0203601N001019999999N008000199+00351+00061102961ADDAA106000431AY171021AY201021GA1081+999991991GF108991081990999999991991KA1240N+00001MD1710291+9990MW1101REMSYN07658338 11558 83601 10035 20006 40296 57029 69941 71070 88/// 333 20000 92501=
0144583380999992014021309004+31150+118583FM-12+001699999V0202901N001019999999N008000199+00341+00081102961ADDAY161021AY201021GA1081+999991991GF108991081990999999991991MD1410001+9990MW1211REMSYN05458338 41658 82901 10034 20008 40296 54000 72160 88///=
0161583380999992014021312004+31150+118583FM-12+001699999V0200401N001019999999N008000199+00321+00091103081ADDAA106000021AY161021AY201021GA1081+999991991GF108991081990999999991991MD1210121+9990MW1601REMSYN06058338 11558 80401 10032 20009 40308 52012 69901 76060 88///=
0117583380999992014021318004+31150+118583FM-12+001699999V0203601N001019999999N999999999+00201+00011103081ADDGF109991999999999999999999KA1120M+00461MD1710021+9990REMSYN05258338 33/// 93601 10020 20001 40308 57002 333 10046=
0106583380999992014021321004+31150+118583FM-12+001699999V0200401N00101002401CN005000199+00171-00051102981ADDGF109991999999999999999999MD1710101+9990MW1101REMSYN04858338 31/50 90401 10017 21005 40298 57010 710//=
0182583380999992014021400004+31150+118583FM-12+001699999V0200401N001019999999N008000199+00171-00071103131ADDAA124000431GA1071+999991991GF107991071990999999991991MA1999990102901MD1210151+9990MW1101REMSYN08258338 31658 70401 10017 21007 30290 40313 52015 710// 87/// 333 05102 30000 70004=
0116583380999992014021403004+31150+118583FM-12+001699999V0202201N001019999999N011000199+00511-00161103131ADDGA1061+999991991GF106991061990999999991991MD1410001+9990REMSYN04858338 32561 62201 10051 21016 40313 54000 86///=
0139583380999992014021406004+31150+118583FM-12+001699999V0202901N001019999999N011000199+00641-00201102891ADDGA1071+999991991GF107991071990999999991991KA1240N+00131MD1710241+9990REMSYN05858338 32661 72901 10064 21020 40289 57024 87/// 333 20013=
0116583380999992014021409004+31150+118583FM-12+001699999V0203201N001019999999N010000199+00551-00141102841ADDGA1071+999991991GF107991071990999999991991MD1710051+9990REMSYN04858338 32660 73201 10055 21014 40284 57005 87///=
0094583380999992014021412004+31150+118583FM-12+001699999V0201401N001019999999N010000199+00231+00001102821ADDGF100995999999999999999999MD1710021+9990REMSYN04258338 32960 01401 10023 20000 40282 57002=
0117583380999992014021418004+31150+118583FM-12+001699999V0200701N001019999999N999999999+00001-00131102691ADDGF109991999999999999999999KA1120M+00721MD1710111+9990REMSYN05258338 33/// 90701 10000 21013 40269 57011 333 10072=
0094583380999992014021421004+31150+118583FM-12+001699999V0201101N001019999999N999999999-00081-00181102601ADDGF109991999999999999999999MD1710091+9990REMSYN04258338 33/// 91101 11008 21018 40260 57009=
0143583380999992014021500004+31150+118583FM-12+001699999V0200401N00101001201CN000400199-00161-00201102861ADDGF109991999999999999999999MA1999990102631MD1210261+9990MW1471REMSYN07058338 31/04 90401 11016 21020 30263 40286 52026 747// 333 05353 31048=
0144583380999992014021503004+31150+118583FM-12+001699999V0200701N002019999999N011000199+00641-00101102781ADDAY141021AY201021GA1021+999991991GF102991021990999999991991MD1710081+9990MW1001REMSYN05458338 31961 20702 10064 21010 40278 57008 70040 82///=
0167583380999992014021506004+31150+118583FM-12+001699999V0200401N002019999999N012000199+00921-00181102471ADDAY141021AY201021GA1061+999991991GF106991061990999999991991KA1240N-00171MD1710311+9990MW1001REMSYN06458338 31962 60402 10092 21018 40247 57031 70040 86/// 333 21017=
0116583380999992014021509004+31150+118583FM-12+001699999V0200401N003019999999N012000199+00831-00101102331ADDGA1071+999991991GF107991071990999999991991MD1710141+9990REMSYN04858338 32962 70403 10083 21010 40233 57014 87///=
0116583380999992014021512004+31150+118583FM-12+001699999V0200701N003019999999N011000199+00671-00301102331ADDGA1071+999991991GF107991071990999999991991MD1410001+9990REMSYN04858338 32961 70703 10067 21030 40233 54000 87///=
0117583380999992014021518004+31150+118583FM-12+001699999V0200901N003019999999N999999999+00551+00051102231ADDGF109991999999999999999999KA1120M+01071MD1710091+9990REMSYN05258338 33/// 90903 10055 20005 40223 57009 333 10107=
0115583380999992014021521004+31150+118583FM-12+001699999V0200901N001019999999N999999999+00431+00261102211ADDAA124001131GF109991999999999999999999MD1710021+9990REMSYN05258338 43/// 90901 10043 20026 40221 57002 333 70011=
0178583380999992014021600004+31150+118583FM-12+001699999V0200401N001019999999N004000199+00471+00441102301ADDAA106002031AA224002331GA1081+999991991GF108991081990999999991991MD1210091+9990MW1601REMSYN08258338 11540 80401 10047 20044 40230 52009 60021 760// 88/// 333 05606 30025 70023=
0144583380999992014021603004+31150+118583FM-12+001699999V0200701N001019999999N004000199+00571+00541102331ADDAY161021AY261021GA1081+999991991GF108991081990999999991991MD1210031+9990MW1601REMSYN05458338 41440 80701 10057 20054 40233 52003 76066 88///=
0184583380999992014021606004+31150+118583FM-12+001699999V0200701N001019999999N004000199+00631+00591102151ADDAA106002031AY161021AY261021GA1081+999991991GF108991081990999999991991KA1240N+00421MD1710181+9990MW1601REMSYN07058338 11440 80701 10063 20059 40215 57018 60021 76066 88/// 333 20042=
0144583380999992014021609004+31150+118583FM-12+001699999V0203601N001019999999N003000199+00651+00621102121ADDAY161021AY261021GA1081+999991991GF108991081990999999991991MD1710031+9990MW1611REMSYN05458338 41430 83601 10065 20062 40212 57003 76166 88///=
0161583380999992014021612004+31150+118583FM-12+001699999V0202901N001019999999N004000199+00641+00641102181ADDAA106003031AY161021AY261021GA1081+999991991GF108991081990999999991991MD1210061+9990MW1611REMSYN06058338 11440 82901 10064 20064 40218 52006 60031 76166 88///=
0134583380999992014021618004+31150+118583FM-12+001699999V0202701N002019999999N999999999+00591+00591102281ADDAA106000731GF109991999999999999999999KA1120M+00661MD1210021+9990REMSYN05858338 13/// 92702 10059 20059 40228 52002 69971 333 10066=
0115583380999992014021621004+31150+118583FM-12+001699999V0202901N001019999999N999999999+00551+00551102231ADDAA124007831GF109991999999999999999999MD1710051+9990REMSYN05258338 43/// 92901 10055 20055 40223 57005 333 70078=
0172583380999992014021700004+31150+118583FM-12+001699999V0202701N002019999999N005000199+00501+00501102421ADDAA106002031AA224007931GA1081+999991991GF108991081990999999991991MD1210191+9990MW1601REMSYN07658338 11450 82702 10050 20050 40242 52019 60021 760// 88/// 333 00100 70079=
0144583380999992014021703004+31150+118583FM-12+001699999V0202501N001019999999N005000199+00481+00451102501ADDAY161021AY261021GA1081+999991991GF108991081990999999991991MD1210081+9990MW1601REMSYN05458338 41450 82501 10048 20045 40250 52008 76066 88///=
0184583380999992014021706004+31150+118583FM-12+001699999V0202701N002019999999N004000199+00471+00461102381ADDAA106000331AY161021AY261021GA1081+999991991GF108991081990999999991991KA1240N+00471MD1710121+9990MW1601REMSYN07058338 11440 82702 10047 20046 40238 57012 69931 76066 88/// 333 20047=
0144583380999992014021709004+31150+118583FM-12+001699999V0202701N002019999999N004000199+00441+00431102371ADDAY161021AY261021GA1081+999991991GF108991081990999999991991MD1710011+9990MW1601REMSYN05458338 41440 82702 10044 20043 40237 57001 76066 88///=
0182583380999992014021712004+31150+118583FM-12+001699999V0202701N001019999999N005000199+00471+00471102501ADDAA106002031AY161021AY261021GA1081+999991991GF108991081990999999991991MA1999990102271MD1210131+9990MW1601REMSYN06658338 11450 82701 10047 20047 30227 40250 52013 60021 76066 88///=
0134583380999992014021718004+31150+118583FM-12+001699999V0200201N003019999999N999999999+00241+00181102551ADDAA106008031GF109991999999999999999999KA1120M+00591MD1710021+9990REMSYN05858338 13/// 90203 10024 20018 40255 57002 60081 333 10059=
0127583380999992014021721004+31150+118583FM-12+001699999V0200201N00101002401CN006000199+00051+00021102481ADDAA124015031GF109991999999999999999999MD1710071+9990MW1601REMSYN05858338 41/56 90201 10005 20002 40248 57007 760// 333 70150=
0205583380999992014021800004+31150+118583FM-12+001699999V0203601N001019999999N002000199+00041+00041102771ADDAA112017031AA224018931GA1081+999991991GF108991081990999999991991MA1999990102541MD1210291+9990MW1701REMSYN09458338 11420 83601 10004 20004 30254 40277 52029 60172 770// 88/// 333 00455 30002 70189 92504=
0144583380999992014021803004+31150+118583FM-12+001699999V0203401N001019999999N003000199+00081+00071102841ADDAY171021AY271021GA1081+999991991GF108991081990999999991991MD1210071+9990MW1711REMSYN05458338 41430 83401 10008 20007 40284 52007 77177 88///=
0190583380999992014021806004+31150+118583FM-12+001699999V0203201N002019999999N006000199+00101+00041102741ADDAA106005031AY171021AY271021GA1081+999991991GF108991081990999999991991KA1240N+00031MD1710101+9990MW1701REMSYN07658338 11456 83202 10010 20004 40274 57010 60051 77077 88/// 333 20003 92505=
0154583380999992014021809004+31150+118583FM-12+001699999V0203201N001019999999N003000199+00091+00051102781ADDAY171021AY271021GA1081+999991991GF108991081990999999991991MD1210041+9990MW1701REMSYN06458338 41430 83201 10009 20005 40278 52004 77077 88/// 333 92504=
0171583380999992014021812004+31150+118583FM-12+001699999V0202901N002019999999N004000199+00071+00061102981ADDAA106000431AY171021AY271021GA1081+999991991GF108991081990999999991991MD1210191+9990MW1701REMSYN07058338 11440 82902 10007 20006 40298 52019 69941 77077 88/// 333 92503=
0150583380999992014021818004+31150+118583FM-12+001699999V0202501N00201002401CN005000199+00041+00011102921ADDGF109991999999999999999999KA1120M+00241MA1999990102691MD1710041+9990MW1701REMSYN06458338 41/50 92502 10004 20001 30269 40292 57004 770// 333 10024=
0116583380999992014021821004+31150+118583FM-12+001699999V0202701N00101002401CN005000199+00051+00011102851ADDGF109991999999999999999999MD1710071+9990MW1221REMSYN05858338 41/50 92701 10005 20001 40285 57007 722// 333 92502=
0184583380999992014021900004+31150+118583FM-12+001699999V0202201N001019999999N007000199+00081+00021102971ADDAA112000331AA224005831GA1081+999991991GF108991081990999999991991MD1210121+9990MW1101REMSYN08858338 11657 82201 10008 20002 40297 52012 69932 710// 88/// 333 00200 30002 70058 92502=
0116583380999992014021903004+31150+118583FM-12+001699999V0202201N002019999999N010000199+00251+00011102991ADDGA1071+999991991GF107991071990999999991991MD1210021+9990REMSYN04858338 32960 72202 10025 20001 40299 52002 87///=
0139583380999992014021906004+31150+118583FM-12+001699999V0202501N002019999999N011000199+00471-00011102841ADDGA1071+999991991GF107991071990999999991991KA1240N+00041MD1710151+9990REMSYN05858338 32961 72502 10047 21001 40284 57015 87/// 333 20004=
0116583380999992014021909004+31150+118583FM-12+001699999V0202001N001019999999N011000199+00491-00071102841ADDGA1021+999991991GF102991021990999999991991MD1410001+9990REMSYN04858338 32961 22001 10049 21007 40284 54000 82///=
0115583380999992014021912004+31150+118583FM-12+001699999V0202201N001019999999N010000199+00241+00051102951ADDGF100995999999999999999999MA1999990102721MD1210111+9990REMSYN04858338 32960 02201 10024 20005 30272 40295 52011=
0117583380999992014021918004+31150+118583FM-12+001699999V0202001N001019999999N999999999+00111+00051103081ADDGF109991999999999999999999KA1120M+00551MD1210031+9990REMSYN05258338 33/// 92001 10011 20005 40308 52003 333 10055=
0094583380999992014021921004+31150+118583FM-12+001699999V0201601N001019999999N999999999+00051-00041103041ADDGF109991999999999999999999MD1710041+9990REMSYN04258338 33/// 91601 10005 21004 40304 57004=
0132583380999992014022000004+31150+118583FM-12+001699999V0201601N001019999999N010000199+00181+00031103181ADDGA1031+999991991GF103991031990999999991991MD1210141+9990REMSYN06458338 32960 31601 10018 20003 40318 52014 83/// 333 00201 31025=
0094583380999992014022003004+31150+118583FM-12+001699999V0202501N001019999999N013000199+00711+00181103271ADDGF100995999999999999999999MD1210091+9990REMSYN04258338 32963 02501 10071 20018 40327 52009=
0139583380999992014022006004+31150+118583FM-12+001699999V0202901N001019999999N013000199+00941-00021103101ADDGA1041+999991991GF104991041990999999991991KA1240N+00031MD1710171+9990REMSYN05858338 32663 42901 10094 21002 40310 57017 84/// 333 20003=
0116583380999992014022009004+31150+118583FM-12+001699999V0200401N001019999999N012000199+00881-00021103051ADDGA1021+999991991GF102991021990999999991991MD1710051+9990REMSYN04858338 32662 20401 10088 21002 40305 57005 82///=
0094583380999992014022012004+31150+118583FM-12+001699999V0200701N001019999999N010000199+00481-00021103161ADDGF100995999999999999999999MD1210111+9990REMSYN04258338 32960 00701 10048 21002 40316 52011=
0138583380999992014022018004+31150+118583FM-12+001699999V0200701N002019999999N999999999+00251-00031102961ADDGF109991999999999999999999KA1120M+01011MA1999990102731MD1710091+9990REMSYN05858338 33/// 90702 10025 21003 30273 40296 57009 333 10101=
0094583380999992014022021004+31150+118583FM-12+001699999V0200901N001019999999N999999999+00171-00051102971ADDGF109991999999999999999999MD1210011+9990REMSYN04258338 33/// 90901 10017 21005 40297 52001=
0144583380999992014022100004+31150+118583FM-12+001699999V0200901N002019999999N007000199+00251-00091103041ADDGA1011+999991991GF101991011990999999991991MD1210071+9990MW1101REMSYN07058338 31957 10902 10025 21009 40304 52007 710// 81/// 333 05101 31006=
0094583380999992014022103004+31150+118583FM-12+001699999V0201101N002019999999N012000199+00801-00051103011ADDGF100995999999999999999999MD1710031+9990REMSYN04258338 32962 01102 10080 21005 40301 57003=
0138583380999992014022106004+31150+118583FM-12+001699999V0200701N002019999999N014000199+01131+00041102751ADDGF100995999999999999999999KA1240N+00091MA1999990102521MD1710261+9990REMSYN05858338 32964 00702 10113 20004 30252 40275 57026 333 20009=
0094583380999992014022109004+31150+118583FM-12+001699999V0200701N002019999999N011000199+01061+00031102641ADDGF100995999999999999999999MD1710111+9990REMSYN04258338 32961 00702 10106 20003 40264 57011=
0094583380999992014022112004+31150+118583FM-12+001699999V0200701N002019999999N011000199+00731+00051102721ADDGF100995999999999999999999MD1210081+9990REMSYN04258338 32961 00702 10073 20005 40272 52008=
0117583380999992014022118004+31150+118583FM-12+001699999V0200201N002019999999N999999999+00491+00101102691ADDGF109991999999999999999999KA1120M+01181MD1710021+9990REMSYN05258338 33/// 90202 10049 20010 40269 57002 333 10118=
0094583380999992014022121004+31150+118583FM-12+001699999V0200201N001019999999N999999999+00401+00151102731ADDGF109991999999999999999999MD1210041+9990REMSYN04258338 33/// 90201 10040 20015 40273 52004=
0144583380999992014022200004+31150+118583FM-12+001699999V0200701N001019999999N005000199+00461+00251102841ADDGA1071+999991991GF107991071990999999991991MD1210111+9990MW1101REMSYN07058338 31950 70701 10046 20025 40284 52011 710// 87/// 333 05202 30015=
0116583380999992014022203004+31150+118583FM-12+001699999V0200701N003019999999N010000199+01021+00281102841ADDGA1071+999991991GF107991071990999999991991MD1410001+9990REMSYN04858338 32960 70703 10102 20028 40284 54000 87///=
0117583380999992014022206004+31150+118583FM-12+001699999V0200201N002019999999N011000199+01411+00361102571ADDGF100995999999999999999999KA1240N+00361MD1710271+9990REMSYN05258338 32961 00202 10141 20036 40257 57027 333 20036=
0094583380999992014022209004+31150+118583FM-12+001699999V0200401N003019999999N010000199+01341+00581102511ADDGF100995999999999999999999MD1710061+9990REMSYN04258338 32960 00403 10134 20058 40251 57006=
0094583380999992014022212004+31150+118583FM-12+001699999V0200701N001019999999N010000199+00891+00531102641ADDGF100995999999999999999999MD1210131+9990REMSYN04258338 32960 00701 10089 20053 40264 52013=
0117583380999992014022218004+31150+118583FM-12+001699999V0200401N002019999999N999999999+00701+00431102761ADDGF109991999999999999999999KA1120M+01481MD1210061+9990REMSYN05258338 33/// 90402 10070 20043 40276 52006 333 10148=
0094583380999992014022221004+31150+118583FM-12+001699999V0200401N003019999999N999999999+00531+00361102701ADDGF109991999999999999999999MD1710061+9990REMSYN04258338 33/// 90403 10053 20036 40270 57006=
0122583380999992014022300004+31150+118583FM-12+001699999V0200701N003019999999N008000199+00641+00411102811ADDGF100995999999999999999999MD1210111+9990MW1101REMSYN06458338 31958 00703 10064 20041 40281 52011 710// 333 00002 30023=
0116583380999992014022303004+31150+118583FM-12+001699999V0200701N003019999999N011000199+01121+00491102821ADDGA1081+999991991GF108991081990999999991991MD1210011+9990REMSYN04858338 32961 80703 10112 20049 40282 52001 88///=
0139583380999992014022306004+31150+118583FM-12+001699999V0200201N002019999999N012000199+01381+00541102591ADDGA1071+999991991GF107991071990999999991991KA1240N+00441MD1710231+9990REMSYN05858338 32962 70202 10138 20054 40259 57023 87/// 333 20044=
0116583380999992014022309004+31150+118583FM-12+001699999V0200401N002019999999N011000199+01301+00571102551ADDGA1071+999991991GF107991071990999999991991MD1710041+9990REMSYN04858338 32961 70402 10130 20057 40255 57004 87///=
0116583380999992014022312004+31150+118583FM-12+001699999V0200401N001019999999N012000199+01061+00491102601ADDGA1071+999991991GF107991071990999999991991MD1210051+9990REMSYN04858338 32962 70401 10106 20049 40260 52005 87///=
0117583380999992014022318004+31150+118583FM-12+001699999V0200401N001019999999N999999999+00861+00481102571ADDGF109991999999999999999999KA1120M+01501MD1410001+9990REMSYN05258338 33/// 90401 10086 20048 40257 54000 333 10150=
0094583380999992014022321004+31150+118583FM-12+001699999V0200701N003019999999N999999999+00821+00421102461ADDGF109991999999999999999999MD1710111+9990REMSYN04258338 33/// 90703 10082 20042 40246 57011=
0138583380999992014022400004+31150+118583FM-12+001699999V0200401N002019999999N005000199+00771+00471102561ADDGA1081+999991991GF108991081990999999991991MD1210101+9990MW1101REMSYN06458338 31950 80402 10077 20047 40256 52010 710// 88/// 333 05301=
0144583380999992014022403004+31150+118583FM-12+001699999V0200401N001019999999N006000199+00941+00581102531ADDAY101021AY201021GA1081+999991991GF108991081990999999991991MD1710031+9990MW1101REMSYN05458338 31956 80401 10094 20058 40253 57003 71000 88///=
0205583380999992014022406004+31150+118583FM-12+001699999V0200401N002019999999N008000199+01151+00681102251ADDAA106000021AY101021AY201021GA1081+999991991GF108991081990999999991991KA1240N+00751MA1999990102021MD1710281+9990MW1601REMSYN07658338 11758 80402 10115 20068 30202 40225 57028 69901 76000 88/// 333 20075=
0144583380999992014022409004+31150+118583FM-12+001699999V0200401N001019999999N004000199+00981+00871102211ADDAY161021AY261021GA1081+999991991GF108991081990999999991991MD1710041+9990MW1601REMSYN05458338 41640 80401 10098 20087 40221 57004 76066 88///=
0161583380999992014022412004+31150+118583FM-12+001699999V0200401N003019999999N005000199+00921+00861102271ADDAA106002031AY161021AY261021GA1081+999991991GF108991081990999999991991MD1210061+9990MW1601REMSYN06058338 11450 80403 10092 20086 40227 52006 60021 76066 88///=
0155583380999992014022418004+31150+118583FM-12+001699999V0200701N002019999999N999999999+00921+00891102181ADDAA106009031GF109991999999999999999999KA1120M+01221MA1999990101951MD1710091+9990REMSYN06458338 13/// 90702 10092 20089 30195 40218 57009 60091 333 10122=
0115583380999992014022421004+31150+118583FM-12+001699999V0200401N001019999999N999999999+00881+00881102061ADDAA124015031GF109991999999999999999999MD1710121+9990REMSYN05258338 43/// 90401 10088 20088 40206 57012 333 70150=
0172583380999992014022500004+31150+118583FM-12+001699999V0200201N001019999999N005000199+00911+00911102181ADDAA106005031AA224015931GA1081+999991991GF108991081990999999991991MD1210121+9990MW1601REMSYN07658338 11450 80201 10091 20091 40218 52012 60051 760// 88/// 333 05401 70159=
0144583380999992014022503004+31150+118583FM-12+001699999V0200401N002019999999N010000199+01061+01011102151ADDAY161021AY201021GA1081+999991991GF108991081990999999991991MD1710031+9990MW1001REMSYN05458338 41660 80402 10106 20101 40215 57003 70060 88///=
0184583380999992014022506004+31150+118583FM-12+001699999V0200201N001019999999N013000199+01111+01021101951ADDAA106000131AY161021AY201021GA1081+999991991GF108991081990999999991991KA1240N+00881MD1710191+9990MW1001REMSYN07058338 11663 80201 10111 20102 40195 57019 69911 70060 88/// 333 20088=
0116583380999992014022509004+31150+118583FM-12+001699999V0203601N001019999999N010000199+01121+01061101951ADDGA1081+999991991GF108991081990999999991991MD1410001+9990REMSYN04858338 32760 83601 10112 20106 40195 54000 88///=
0182583380999992014022512004+31150+118583FM-12+001699999V0200701N001019999999N003000199+01101+01101102091ADDAA106000131AY161021AY201021GA1081+999991991GF108991081990999999991991MA1999990101861MD1210131+9990MW1601REMSYN06658338 11430 80701 10110 20110 30186 40209 52013 69911 76060 88///=
0134583380999992014022518004+31150+118583FM-12+001699999V0200201N001019999999N999999999+01011+01011102161ADDAA106000931GF109991999999999999999999KA1120M+01151MD1710011+9990REMSYN05858338 13/// 90201 10101 20101 40216 57001 69991 333 10115=
0115583380999992014022521004+31150+118583FM-12+001699999V0203601N002019999999N999999999+00971+00971102211ADDAA124001331GF109991999999999999999999MD1210041+9990REMSYN05258338 43/// 93602 10097 20097 40221 52004 333 70013=
0193583380999992014022600004+31150+118583FM-12+001699999V0203601N001019999999N003000199+00991+00991102371ADDAA106000331AA224001431GA1081+999991991GF108991081990999999991991MA1999990102141MD1210161+9990MW1601REMSYN08258338 11330 83601 10099 20099 30214 40237 52016 69931 760// 88/// 333 00201 70014=
0144583380999992014022603004+31150+118583FM-12+001699999V0200201N001019999999N010000199+01121+00981102441ADDAY161021AY201021GA1081+999991991GF108991081990999999991991MD1210071+9990MW1001REMSYN05458338 41460 80201 10112 20098 40244 52007 70060 88///=
0184583380999992014022606004+31150+118583FM-12+001699999V0203601N001019999999N011000199+01211+00971102231ADDAA106000021AY161021AY201021GA1081+999991991GF108991081990999999991991KA1240N+00971MD1710201+9990MW1001REMSYN07058338 11461 83601 10121 20097 40223 57020 69901 70060 88/// 333 20097=
0144583380999992014022609004+31150+118583FM-12+001699999V0200201N001019999999N008000199+01171+00961102261ADDAY101021AY201021GA1081+999991991GF108991081990999999991991MD1210021+9990MW1101REMSYN05458338 31458 80201 10117 20096 40226 52002 71000 88///=
0144583380999992014022612004+31150+118583FM-12+001699999V0200401N001019999999N008000199+01111+00991102461ADDAY101021AY201021GA1071+999991991GF107991071990999999991991MD1210201+9990MW1101REMSYN05458338 31958 70401 10111 20099 40246 52020 71000 87///=
0117583380999992014022618004+31150+118583FM-12+001699999V0200701N001019999999N999999999+01041+00981102411ADDGF109991999999999999999999KA1120M+01231MD1210031+9990REMSYN05258338 33/// 90701 10104 20098 40241 52003 333 10123=
0115583380999992014022621004+31150+118583FM-12+001699999V0200901N002019999999N999999999+00951+00921102351ADDAA124000021GF109991999999999999999999MD1710071+9990REMSYN05258338 33/// 90902 10095 20092 40235 57007 333 79999=
0155583380999992014022700004+31150+118583FM-12+001699999V0200701N001019999999N002000199+01031+01031102431ADDAA124000021GA1081+999991991GF108991081990999999991991MD1210081+9990MW1101REMSYN07058338 31720 80701 10103 20103 40243 52008 710// 88/// 333 00100 79999=
0144583380999992014022703004+31150+118583FM-12+001699999V0202701N001019999999N005000199+01191+01051102491ADDAY101021AY201021GA1081+999991991GF108991081990999999991991MD1210061+9990MW1101REMSYN05458338 31750 82701 10119 20105 40249 52006 71000 88///=
0167583380999992014022706004+31150+118583FM-12+001699999V0202901N001019999999N008000199+01451+01091102181ADDAY101021AY201021GA1081+999991991GF108991081990999999991991KA1240N+00911MD1710301+9990MW1101REMSYN06458338 31758 82901 10145 20109 40218 57030 71000 88/// 333 20091=
0116583380999992014022709004+31150+118583FM-12+001699999V0200201N002019999999N013000199+01381+00901102101ADDGA1081+999991991GF108991081990999999991991MD1710081+9990REMSYN04858338 32763 80202 10138 20090 40210 57008 88///=
0116583380999992014022712004+31150+118583FM-12+001699999V0200201N001019999999N012000199+01241+00921102181ADDGA1081+999991991GF108991081990999999991991MD1210081+9990REMSYN04858338 32662 80201 10124 20092 40218 52008 88///=
0155583380999992014022718004+31150+118583FM-12+001699999V0200401N002019999999N999999999+01071+01051102121ADDAA106002031GF109991999999999999999999KA1120M+01491MA1999990101901MD1710051+9990REMSYN06458338 13/// 90402 10107 20105 30190 40212 57005 60021 333 10149=
0115583380999992014022721004+31150+118583FM-12+001699999V0200401N002019999999N999999999+00911+00911102011ADDAA124007031GF109991999999999999999999MD1710111+9990REMSYN05258338 43/// 90402 10091 20091 40201 57011 333 70070=
0172583380999992014022800004+31150+118583FM-12+001699999V0200201N002019999999N004000199+00881+00871102151ADDAA106007031AA224008431GA1081+999991991GF108991081990999999991991MD1210141+9990MW1601REMSYN07658338 11440 80202 10088 20087 40215 52014 60071 760// 88/// 333 05352 70084=
0144583380999992014022803004+31150+118583FM-12+001699999V0200701N003019999999N004000199+00941+00861102071ADDAY161021AY261021GA1081+999991991GF108991081990999999991991MD1710081+9990MW1601REMSYN05458338 41440 80703 10094 20086 40207 57008 76066 88///=
0184583380999992014022806004+31150+118583FM-12+001699999V0200401N002019999999N006000199+00931+00791101861ADDAA106000131AY161021AY201021GA1081+999991991GF108991081990999999991991KA1240N+00871MD1710211+9990MW1601REMSYN07058338 11456 80402 10093 20079 40186 57021 69911 76060 88/// 333 20087=
0144583380999992014022809004+31150+118583FM-12+001699999V0200401N002019999999N004000199+00841+00801101781ADDAY161021AY261021GA1081+999991991GF108991081990999999991991MD1710091+9990MW1601REMSYN05458338 41440 80402 10084 20080 40178 57009 76066 88///=
0161583380999992014022812004+31150+118583FM-12+001699999V0200401N001019999999N005000199+00841+00811101861ADDAA106006031AY161021AY261021GA1081+999991991GF108991081990999999991991MD1210081+9990MW1611REMSYN06058338 11450 80401 10084 20081 40186 52008 60061 76166 88///=
0155583380999992014022818004+31150+118583FM-12+001699999V0203601N002019999999N999999999+00681+00671102031ADDAA106005031GF109991999999999999999999KA1120M+01071MA1999990101801MD1210051+9990REMSYN06458338 13/// 93602 10068 20067 30180 40203 52005 60051 333 10107=
0115583380999992014022821004+31150+118583FM-12+001699999V0200201N002019999999N999999999+00621+00591102071ADDAA124016931GF109991999999999999999999MD1210041+9990REMSYN05258338 43/// 90202 10062 20059 40207 52004 333 70169=
0172583380999992014030100004+31150+118583FM-12+001699999V0200401N003019999999N010000199+00551+00511102121ADDAA106001031AA224012531GA1081+999991991GF108991081990999999991991MD1210051+9990MW1601REMSYN07658338 11460 80403 10055 20051 40212 52005 60011 760// 88/// 333 00053 70125=
0144583380999992014030103004+31150+118583FM-12+001699999V0203601N002019999999N012000199+00511+00411102301ADDAY161021AY261021GA1081+999991991GF108991081990999999991991MD1210181+9990MW1601REMSYN05458338 41462 83602 10051 20041 40230 52018 76066 88///=
0184583380999992014030106004+31150+118583FM-12+001699999V0203401N001019999999N008000199+00481+00421102221ADDAA106003031AY161021AY261021GA1081+999991991GF108991081990999999991991KA1240N+00461MD1710081+9990MW1601REMSYN07058338 11458 83401 10048 20042 40222 57008 60031 76066 88/// 333 20046=
0144583380999992014030109004+31150+118583FM-12+001699999V0203601N002019999999N013000199+00541+00371102151ADDAY161021AY201021GA1081+999991991GF108991081990999999991991MD1710071+9990MW1001REMSYN05458338 41663 83602 10054 20037 40215 57007 70060 88///=
0161583380999992014030112004+31150+118583FM-12+001699999V0203401N001019999999N008000199+00541+00361102351ADDAA106000131AY161021AY201021GA1081+999991991GF108991081990999999991991MD1210201+9990MW1101REMSYN06058338 11758 83401 10054 20036 40235 52020 69911 71060 88///=
0117583380999992014030118004+31150+118583FM-12+001699999V0203401N001019999999N999999999+00501+00301102441ADDGF109991999999999999999999KA1120M+00691MD1710041+9990REMSYN05258338 33/// 93401 10050 20030 40244 57004 333 10069=
