0130583670999992014010100004+31198+121336FM-15+000399999V0202301N002012200019N002800199+00401-00401999999ADDGF100991999999999999999999MA1102101999990MW1051REMMET071METAR ZSSS 010000Z 23002MPS 2800 HZ NSC 04/M04 Q1021 BECMG TL0100 3500=
0126583670999992014010100304+31198+121336FM-15+000399999V0202301V002012200019N003000199+00601-00401999999ADDGF100991999999999999999999MA1102201999990MW1051REMMET067METAR ZSSS 010030Z 23002MPS 200V270 3000 HZ NSC 06/M04 Q1022 NOSIG=
0118583670999992014010101004+31198+121336FM-15+000399999V0202301N003012200019N003500199+00701-00401999999ADDGF100991999999999999999999MA1102201999990MW1051REMMET059METAR ZSSS 010100Z 23003MPS 3500 HZ NSC 07/M04 Q1022 NOSIG=
0126583670999992014010101304+31198+121336FM-15+000399999V0202401V003012200019N004000199+00901-00501999999ADDGF100991999999999999999999MA1102201999990MW1051REMMET067METAR ZSSS 010130Z 24003MPS 220V290 4000 HZ NSC 09/M05 Q1022 NOSIG=
0118583670999992014010102004+31198+121336FM-15+000399999V0202401N004012200019N005000199+01001-00501999999ADDGF100991999999999999999999MA1102201999990MW1051REMMET059METAR ZSSS 010200Z 24004MPS 5000 HZ NSC 10/M05 Q1022 NOSIG=
0117583670999992014010102304+31198+121336FM-15+000399999V0202401V003012200019N006000199+01201-00501999999ADDGF100991999999999999999999MA1102101999990REMMET064METAR ZSSS 010230Z 24003MPS 220V290 6000 NSC 12/M05 Q1021 NOSIG=
0109583670999992014010103004+31198+121336FM-15+000399999V0202601N004012200019N007000199+01301-00501999999ADDGF100991999999999999999999MA1102101999990REMMET056METAR ZSSS 010300Z 26004MPS 7000 NSC 13/M05 Q1021 NOSIG=
0109583670999992014010103304+31198+121336FM-15+000399999V0202501N004012200019N008000199+01401-00501999999ADDGF100991999999999999999999MA1102101999990REMMET056METAR ZSSS 010330Z 25004MPS 8000 NSC 14/M05 Q1021 NOSIG=
0109583670999992014010104004+31198+121336FM-15+000399999V0202501N005012200019N008000199+01401-00701999999ADDGF100991999999999999999999MA1102001999990REMMET056METAR ZSSS 010400Z 25005MPS 8000 NSC 14/M07 Q1020 NOSIG=
0117583670999992014010104304+31198+121336FM-15+000399999V0202401V005012200019N008000199+01601-00801999999ADDGF100991999999999999999999MA1101901999990REMMET064METAR ZSSS 010430Z 24005MPS 220V290 8000 NSC 16/M08 Q1019 NOSIG=
0088583670999992014010105004+31198+121336FM-15+000399999V0202601V005019999999Y999999999+01601-00901999999ADDMA1101901999990REMMET061METAR ZSSS 010500Z 26005MPS 230V300 CAVOK 16/M09 Q1019 NOSIG=
0088583670999992014010105304+31198+121336FM-15+000399999V0202501V005019999999Y999999999+01601-00801999999ADDMA1101801999990REMMET061METAR ZSSS 010530Z 25005MPS 220V290 CAVOK 16/M08 Q1018 NOSIG=
0088583670999992014010106004+31198+121336FM-15+000399999V0202501V005019999999Y999999999+01601-00801999999ADDMA1101801999990REMMET061METAR ZSSS 010600Z 25005MPS 210V280 CAVOK 16/M08 Q1018 NOSIG=
0088583670999992014010106304+31198+121336FM-15+000399999V0202601V006019999999Y999999999+01601-01201999999ADDMA1101801999990REMMET061METAR ZSSS 010630Z 26006MPS 230V290 CAVOK 16/M12 Q1018 NOSIG=
0088583670999992014010107004+31198+121336FM-15+000399999V0202701V005019999999Y999999999+01601-01101999999ADDMA1101801999990REMMET061METAR ZSSS 010700Z 27005MPS 240V300 CAVOK 16/M11 Q1018 NOSIG=
0088583670999992014010107304+31198+121336FM-15+000399999V0202701V004019999999Y999999999+01601-01001999999ADDMA1101801999990REMMET061METAR ZSSS 010730Z 27004MPS 230V300 CAVOK 16/M10 Q1018 NOSIG=
0088583670999992014010108004+31198+121336FM-15+000399999V0202801V004019999999Y999999999+01501-00901999999ADDMA1101801999990REMMET061METAR ZSSS 010800Z 28004MPS 250V310 CAVOK 15/M09 Q1018 NOSIG=
0088583670999992014010108304+31198+121336FM-15+000399999V0202701V003019999999Y999999999+01401-00901999999ADDMA1101901999990REMMET061METAR ZSSS 010830Z 27003MPS 210V310 CAVOK 14/M09 Q1019 NOSIG=
0109583670999992014010109004+31198+121336FM-15+000399999V0202501N002012200019N007000199+01301-00801999999ADDGF100991999999999999999999MA1101901999990REMMET056METAR ZSSS 010900Z 25002MPS 7000 NSC 13/M08 Q1019 NOSIG=
0109583670999992014010109304+31198+121336FM-15+000399999V0202301N001012200019N007000199+01301-00901999999ADDGF100991999999999999999999MA1101901999990REMMET056METAR ZSSS 010930Z 23001MPS 7000 NSC 13/M09 Q1019 NOSIG=
0109583670999992014010110004+31198+121336FM-15+000399999V0209999V001012200019N007000199+01201-00801999999ADDGF100991999999999999999999MA1101901999990REMMET056METAR ZSSS 011000Z VRB01MPS 7000 NSC 12/M08 Q1019 NOSIG=
0117583670999992014010110304+31198+121336FM-15+000399999V0202301V002012200019N008000199+01201-00801999999ADDGF100991999999999999999999MA1101901999990REMMET064METAR ZSSS 011030Z 23002MPS 190V280 8000 NSC 12/M08 Q1019 NOSIG=
0109583670999992014010111004+31198+121336FM-15+000399999V0209999C000012200019N008000199+01001-00701999999ADDGF100991999999999999999999MA1101901999990REMMET056METAR ZSSS 011100Z 00000MPS 8000 NSC 10/M07 Q1019 NOSIG=
0109583670999992014010111304+31198+121336FM-15+000399999V0209999C000012200019N008000199+01001-00701999999ADDGF100991999999999999999999MA1101901999990REMMET056METAR ZSSS 011130Z 00000MPS 8000 NSC 10/M07 Q1019 NOSIG=
0117583670999992014010112004+31198+121336FM-15+000399999V0201701V002012200019N007000199+01001-00601999999ADDGF100991999999999999999999MA1102001999990REMMET064METAR ZSSS 011200Z 17002MPS 140V200 7000 NSC 10/M06 Q1020 NOSIG=
0117583670999992014010112304+31198+121336FM-15+000399999V0201601V002012200019N006000199+01001-00601999999ADDGF100991999999999999999999MA1102001999990REMMET064METAR ZSSS 011230Z 16002MPS 140V200 6000 NSC 10/M06 Q1020 NOSIG=
0109583670999992014010113004+31198+121336FM-15+000399999V0209999V001012200019N006000199+00901-00501999999ADDGF100991999999999999999999MA1102001999990REMMET056METAR ZSSS 011300Z VRB01MPS 6000 NSC 09/M05 Q1020 NOSIG=
0118583670999992014010113304+31198+121336FM-15+000399999V0209999V001012200019N005000199+00901-00601999999ADDGF100991999999999999999999MA1102001999990MW1051REMMET059METAR ZSSS 011330Z VRB01MPS 5000 HZ NSC 09/M06 Q1020 NOSIG=
0118583670999992014010114004+31198+121336FM-15+000399999V0209999V001012200019N005000199+00801-00501999999ADDGF100991999999999999999999MA1102001999990MW1051REMMET059METAR ZSSS 011400Z VRB01MPS 5000 HZ NSC 08/M05 Q1020 NOSIG=
0118583670999992014010114304+31198+121336FM-15+000399999V0209999V001012200019N005000199+00901-00501999999ADDGF100991999999999999999999MA1102001999990MW1051REMMET059METAR ZSSS 011430Z VRB01MPS 5000 HZ NSC 09/M05 Q1020 NOSIG=
0118583670999992014010115004+31198+121336FM-15+000399999V0209999C000012200019N005000199+00701-00501999999ADDGF100991999999999999999999MA1102001999990MW1051REMMET059METAR ZSSS 011500Z 00000MPS 5000 HZ NSC 07/M05 Q1020 NOSIG=
0118583670999992014010115304+31198+121336FM-15+000399999V0209999C000012200019N005000199+00601-00401999999ADDGF100991999999999999999999MA1102001999990MW1051REMMET059METAR ZSSS 011530Z 00000MPS 5000 HZ NSC 06/M04 Q1020 NOSIG=
0126583670999992014010116004+31198+121336FM-15+000399999V0201701V002012200019N004000199+00501-00401999999ADDGF100991999999999999999999MA1102001999990MW1051REMMET067METAR ZSSS 011600Z 17002MPS 140V200 4000 HZ NSC 05/M04 Q1020 NOSIG=
0118583670999992014010116304+31198+121336FM-15+000399999V0201401N001012200019N004000199+00501-00301999999ADDGF100991999999999999999999MA1102001999990MW1051REMMET059METAR ZSSS 011630Z 14001MPS 4000 HZ NSC 05/M03 Q1020 NOSIG=
0118583670999992014010117004+31198+121336FM-15+000399999V0209999C000012200019N004000199+00501-00301999999ADDGF100991999999999999999999MA1102001999990MW1051REMMET059METAR ZSSS 011700Z 00000MPS 4000 HZ NSC 05/M03 Q1020 NOSIG=
0118583670999992014010117304+31198+121336FM-15+000399999V0209999C000012200019N004000199+00501-00301999999ADDGF100991999999999999999999MA1102001999990MW1051REMMET059METAR ZSSS 011730Z 00000MPS 4000 HZ NSC 05/M03 Q1020 NOSIG=
0118583670999992014010118004+31198+121336FM-15+000399999V0209999C000012200019N004000199+00301-00401999999ADDGF100991999999999999999999MA1102001999990MW1051REMMET059METAR ZSSS 011800Z 00000MPS 4000 HZ NSC 03/M04 Q1020 NOSIG=
0118583670999992014010118304+31198+121336FM-15+000399999V0209999C000012200019N004000199+00301-00301999999ADDGF100991999999999999999999MA1102001999990MW1051REMMET059METAR ZSSS 011830Z 00000MPS 4000 HZ NSC 03/M03 Q1020 NOSIG=
0118583670999992014010119004+31198+121336FM-15+000399999V0209999C000012200019N004000199+00301-00301999999ADDGF100991999999999999999999MA1102001999990MW1051REMMET059METAR ZSSS 011900Z 00000MPS 4000 HZ NSC 03/M03 Q1020 NOSIG=
0118583670999992014010119304+31198+121336FM-15+000399999V0209999C000012200019N004000199+00201-00401999999ADDGF100991999999999999999999MA1102001999990MW1051REMMET059METAR ZSSS 011930Z 00000MPS 4000 HZ NSC 02/M04 Q1020 NOSIG=
0118583670999992014010120004+31198+121336FM-15+000399999V0209999C000012200019N004000199+00201-00201999999ADDGF100991999999999999999999MA1102001999990MW1051REMMET059METAR ZSSS 012000Z 00000MPS 4000 HZ NSC 02/M02 Q1020 NOSIG=
0118583670999992014010120304+31198+121336FM-15+000399999V0209999C000012200019N004000199+00201-00301999999ADDGF100991999999999999999999MA1101901999990MW1051REMMET059METAR ZSSS 012030Z 00000MPS 4000 HZ NSC 02/M03 Q1019 NOSIG=
0118583670999992014010121004+31198+121336FM-15+000399999V0209999C000012200019N004000199+00201-00301999999ADDGF100991999999999999999999MA1102001999990MW1051REMMET059METAR ZSSS 012100Z 00000MPS 4000 HZ NSC 02/M03 Q1020 NOSIG=
0118583670999992014010121304+31198+121336FM-15+000399999V0209999C000012200019N004000199+00301-00201999999ADDGF100991999999999999999999MA1102001999990MW1051REMMET059METAR ZSSS 012130Z 00000MPS 4000 HZ NSC 03/M02 Q1020 NOSIG=
0138583670999992014010122004+31198+121336FM-15+000399999V0209999C000012200019N004000199+00201-00301999999ADDGF100991999999999999999999MA1102001999990MW1051REMMET079METAR ZSSS 012200Z 00000MPS 4000 HZ NSC 02/M03 Q1020 BECMG TL2300 2500      HZ=
0118583670999992014010122304+31198+121336FM-15+000399999V0209999C000012200019N004000199+00201-00301999999ADDGF100991999999999999999999MA1102001999990MW1051REMMET059METAR ZSSS 012230Z 00000MPS 4000 HZ NSC 02/M03 Q1020 NOSIG=
0130583670999992014010123004+31198+121336FM-15+000399999V0209999C000012200019N002800199+00201-00301999999ADDGF100991999999999999999999MA1102001999990MW1051REMMET071METAR ZSSS 012300Z 00000MPS 2800 HZ NSC 02/M03 Q1020 BECMG TL0030 3000=
0118583670999992014010123304+31198+121336FM-15+000399999V0209999C000012200019N003500199+00301-00101999999ADDGF100991999999999999999999MA1102001999990MW1051REMMET059METAR ZSSS 012330Z 00000MPS 3500 HZ NSC 03/M01 Q1020 NOSIG=
0118583670999992014010200004+31198+121336FM-15+000399999V0200701N001012200019N004000199+00601+00001999999ADDGF100991999999999999999999MA1102001999990MW1051REMMET059METAR ZSSS 020000Z 07001MPS 4000 HZ NSC 06/M00 Q1020 NOSIG=
0125583670999992014010200304+31198+121336FM-15+000399999V0201401V002012200019N004000199+00901+00201999999ADDGF100991999999999999999999MA1102001999990MW1051REMMET066METAR ZSSS 020030Z 14002MPS 080V190 4000 HZ NSC 09/02 Q1020 NOSIG=
0109583670999992014010201004+31198+121336FM-15+000399999V0201301N003012200019N006000199+01101+00001999999ADDGF100991999999999999999999MA1102001999990REMMET056METAR ZSSS 020100Z 13003MPS 6000 NSC 11/M00 Q1020 NOSIG=
0117583670999992014010201304+31198+121336FM-15+000399999V0201301V004012200019N007000199+01201-00201999999ADDGF100991999999999999999999MA1102001999990REMMET064METAR ZSSS 020130Z 13004MPS 090V170 7000 NSC 12/M02 Q1020 NOSIG=
0128583670999992014010202004+31198+121336FM-15+000399999V0201301V004012200019N007000199+01301-00301999999ADDGF100991999999999999999999MA1102001999990OC100901REMMET067METAR ZSSS 020200Z 13004G09MPS 110V170 7000 NSC 13/M03 Q1020 NOSIG=
0109583670999992014010202304+31198+121336FM-15+000399999V0201301N004012200019N007000199+01401-00301999999ADDGF100991999999999999999999MA1101901999990REMMET056METAR ZSSS 020230Z 13004MPS 7000 NSC 14/M03 Q1019 NOSIG=
0117583670999992014010203004+31198+121336FM-15+000399999V0201101V004012200019N007000199+01501-00301999999ADDGF100991999999999999999999MA1101901999990REMMET064METAR ZSSS 020300Z 11004MPS 070V160 7000 NSC 15/M03 Q1019 NOSIG=
0117583670999992014010203304+31198+121336FM-15+000399999V0201201V004012200019N007000199+01501-00401999999ADDGF100991999999999999999999MA1101901999990REMMET064METAR ZSSS 020330Z 12004MPS 090V150 7000 NSC 15/M04 Q1019 NOSIG=
0117583670999992014010204004+31198+121336FM-15+000399999V0201201V004012200019N007000199+01601-00501999999ADDGF100991999999999999999999MA1101801999990REMMET064METAR ZSSS 020400Z 12004MPS 080V150 7000 NSC 16/M05 Q1018 NOSIG=
0088583670999992014010204304+31198+121336FM-15+000399999V0201201V004019999999Y999999999+01701-00801999999ADDMA1101701999990REMMET061METAR ZSSS 020430Z 12004MPS 070V140 CAVOK 17/M08 Q1017 NOSIG=
0088583670999992014010205004+31198+121336FM-15+000399999V0201201V004019999999Y999999999+01701-00901999999ADDMA1101701999990REMMET061METAR ZSSS 020500Z 12004MPS 070V150 CAVOK 17/M09 Q1017 NOSIG=
0080583670999992014010205304+31198+121336FM-15+000399999V0201201N005019999999Y999999999+01801-00901999999ADDMA1101601999990REMMET053METAR ZSSS 020530Z 12005MPS CAVOK 18/M09 Q1016 NOSIG=
0080583670999992014010206004+31198+121336FM-15+000399999V0201501N005019999999Y999999999+01801-00701999999ADDMA1101601999990REMMET053METAR ZSSS 020600Z 15005MPS CAVOK 18/M07 Q1016 NOSIG=
0080583670999992014010206304+31198+121336FM-15+000399999V0201601N006019999999Y999999999+01701-00501999999ADDMA1101601999990REMMET053METAR ZSSS 020630Z 16006MPS CAVOK 17/M05 Q1016 NOSIG=
0080583670999992014010207004+31198+121336FM-15+000399999V0201501N006019999999Y999999999+01701-00501999999ADDMA1101601999990REMMET053METAR ZSSS 020700Z 15006MPS CAVOK 17/M05 Q1016 NOSIG=
0088583670999992014010207304+31198+121336FM-15+000399999V0201501V005019999999Y999999999+01701-00201999999ADDMA1101601999990REMMET061METAR ZSSS 020730Z 15005MPS 120V190 CAVOK 17/M02 Q1016 NOSIG=
0080583670999992014010208004+31198+121336FM-15+000399999V0201501N005019999999Y999999999+01601-00101999999ADDMA1101601999990REMMET053METAR ZSSS 020800Z 15005MPS CAVOK 16/M01 Q1016 NOSIG=
0088583670999992014010208304+31198+121336FM-15+000399999V0201301V004019999999Y999999999+01501-00101999999ADDMA1101601999990REMMET061METAR ZSSS 020830Z 13004MPS 100V160 CAVOK 15/M01 Q1016 NOSIG=
0079583670999992014010209004+31198+121336FM-15+000399999V0201301N005019999999Y999999999+01501+00101999999ADDMA1101601999990REMMET052METAR ZSSS 020900Z 13005MPS CAVOK 15/01 Q1016 NOSIG=
0079583670999992014010209304+31198+121336FM-15+000399999V0201201N004019999999Y999999999+01401+00201999999ADDMA1101601999990REMMET052METAR ZSSS 020930Z 12004MPS CAVOK 14/02 Q1016 NOSIG=
0079583670999992014010210004+31198+121336FM-15+000399999V0201201N005019999999Y999999999+01301+00301999999ADDMA1101701999990REMMET052METAR ZSSS 021000Z 12005MPS CAVOK 13/03 Q1017 NOSIG=
0079583670999992014010210304+31198+121336FM-15+000399999V0201201N004019999999Y999999999+01301+00401999999ADDMA1101701999990REMMET052METAR ZSSS 021030Z 12004MPS CAVOK 13/04 Q1017 NOSIG=
0079583670999992014010211004+31198+121336FM-15+000399999V0201201N004019999999Y999999999+01201+00401999999ADDMA1101701999990REMMET052METAR ZSSS 021100Z 12004MPS CAVOK 12/04 Q1017 NOSIG=
0079583670999992014010211304+31198+121336FM-15+000399999V0201201N004019999999Y999999999+01201+00501999999ADDMA1101701999990REMMET052METAR ZSSS 021130Z 12004MPS CAVOK 12/05 Q1017 NOSIG=
0079583670999992014010212004+31198+121336FM-15+000399999V0201201N004019999999Y999999999+01201+00501999999ADDMA1101701999990REMMET052METAR ZSSS 021200Z 12004MPS CAVOK 12/05 Q1017 NOSIG=
0079583670999992014010212304+31198+121336FM-15+000399999V0201301N005019999999Y999999999+01101+00501999999ADDMA1101701999990REMMET052METAR ZSSS 021230Z 13005MPS CAVOK 11/05 Q1017 NOSIG=
0079583670999992014010213004+31198+121336FM-15+000399999V0201301N004019999999Y999999999+01101+00501999999ADDMA1101701999990REMMET052METAR ZSSS 021300Z 13004MPS CAVOK 11/05 Q1017 NOSIG=
0079583670999992014010213304+31198+121336FM-15+000399999V0201401N004019999999Y999999999+01101+00501999999ADDMA1101701999990REMMET052METAR ZSSS 021330Z 14004MPS CAVOK 11/05 Q1017 NOSIG=
0079583670999992014010214004+31198+121336FM-15+000399999V0201301N003019999999Y999999999+01001+00501999999ADDMA1101701999990REMMET052METAR ZSSS 021400Z 13003MPS CAVOK 10/05 Q1017 NOSIG=
0079583670999992014010214304+31198+121336FM-15+000399999V0201401N003019999999Y999999999+01101+00601999999ADDMA1101701999990REMMET052METAR ZSSS 021430Z 14003MPS CAVOK 11/06 Q1017 NOSIG=
0079583670999992014010215004+31198+121336FM-15+000399999V0201401N004019999999Y999999999+01101+00601999999ADDMA1101701999990REMMET052METAR ZSSS 021500Z 14004MPS CAVOK 11/06 Q1017 NOSIG=
0079583670999992014010215304+31198+121336FM-15+000399999V0201501N004019999999Y999999999+01101+00601999999ADDMA1101601999990REMMET052METAR ZSSS 021530Z 15004MPS CAVOK 11/06 Q1016 NOSIG=
0079583670999992014010216004+31198+121336FM-15+000399999V0201501N004019999999Y999999999+01101+00601999999ADDMA1101601999990REMMET052METAR ZSSS 021600Z 15004MPS CAVOK 11/06 Q1016 NOSIG=
0079583670999992014010216304+31198+121336FM-15+000399999V0209999V001019999999Y999999999+01101+00601999999ADDMA1101601999990REMMET052METAR ZSSS 021630Z VRB01MPS CAVOK 11/06 Q1016 NOSIG=
0079583670999992014010217004+31198+121336FM-15+000399999V0209999V001019999999Y999999999+01101+00601999999ADDMA1101601999990REMMET052METAR ZSSS 021700Z VRB01MPS CAVOK 11/06 Q1016 NOSIG=
0079583670999992014010217304+31198+121336FM-15+000399999V0201401N001019999999Y999999999+01101+00601999999ADDMA1101601999990REMMET052METAR ZSSS 021730Z 14001MPS CAVOK 11/06 Q1016 NOSIG=
0079583670999992014010218004+31198+121336FM-15+000399999V0201601N001019999999Y999999999+01001+00601999999ADDMA1101601999990REMMET052METAR ZSSS 021800Z 16001MPS CAVOK 10/06 Q1016 NOSIG=
0079583670999992014010218304+31198+121336FM-15+000399999V0201701N001019999999Y999999999+01001+00601999999ADDMA1101601999990REMMET052METAR ZSSS 021830Z 17001MPS CAVOK 10/06 Q1016 NOSIG=
0079583670999992014010219004+31198+121336FM-15+000399999V0209999C000019999999Y999999999+00901+00601999999ADDMA1101501999990REMMET052METAR ZSSS 021900Z 00000MPS CAVOK 09/06 Q1015 NOSIG=
0079583670999992014010219304+31198+121336FM-15+000399999V0201901N002019999999Y999999999+00901+00601999999ADDMA1101501999990REMMET052METAR ZSSS 021930Z 19002MPS CAVOK 09/06 Q1015 NOSIG=
0079583670999992014010220004+31198+121336FM-15+000399999V0209999C000019999999Y999999999+00901+00601999999ADDMA1101501999990REMMET052METAR ZSSS 022000Z 00000MPS CAVOK 09/06 Q1015 NOSIG=
0079583670999992014010220304+31198+121336FM-15+000399999V0209999C000019999999Y999999999+00901+00601999999ADDMA1101501999990REMMET052METAR ZSSS 022030Z 00000MPS CAVOK 09/06 Q1015 NOSIG=
0079583670999992014010221004+31198+121336FM-15+000399999V0209999C000019999999Y999999999+00901+00601999999ADDMA1101501999990REMMET052METAR ZSSS 022100Z 00000MPS CAVOK 09/06 Q1015 NOSIG=
0079583670999992014010221304+31198+121336FM-15+000399999V0203301N001019999999Y999999999+00901+00601999999ADDMA1101501999990REMMET052METAR ZSSS 022130Z 33001MPS CAVOK 09/06 Q1015 NOSIG=
0108583670999992014010222004+31198+121336FM-15+000399999V0203401N001012200019N008000199+00901+00601999999ADDGF100991999999999999999999MA1101501999990REMMET055METAR ZSSS 022200Z 34001MPS 8000 NSC 09/06 Q1015 NOSIG=
0108583670999992014010222304+31198+121336FM-15+000399999V0209999C000012200019N008000199+00901+00501999999ADDGF100991999999999999999999MA1101501999990REMMET055METAR ZSSS 022230Z 00000MPS 8000 NSC 09/05 Q1015 NOSIG=
0117583670999992014010223004+31198+121336FM-15+000399999V0202801N001012200019N005000199+00901+00601999999ADDGF100991999999999999999999MA1101501999990MW1101REMMET058METAR ZSSS 022300Z 28001MPS 5000 BR NSC 09/06 Q1015 NOSIG=
0117583670999992014010223304+31198+121336FM-15+000399999V0202601N002012200019N003500199+00901+00601999999ADDGF100991999999999999999999MA1101601999990MW1101REMMET058METAR ZSSS 022330Z 26002MPS 3500 BR NSC 09/06 Q1016 NOSIG=
0117583670999992014010300004+31198+121336FM-15+000399999V0209999V001012200019N003000199+01001+00601999999ADDGF100991999999999999999999MA1101601999990MW1101REMMET058METAR ZSSS 030000Z VRB01MPS 3000 BR NSC 10/06 Q1016 NOSIG=
0125583670999992014010300304+31198+121336FM-15+000399999V0202801V002012200019N003000199+01101+00601999999ADDGF100991999999999999999999MA1101601999990MW1101REMMET066METAR ZSSS 030030Z 28002MPS 250V320 3000 BR NSC 11/06 Q1016 NOSIG=
0117583670999992014010301004+31198+121336FM-15+000399999V0203001N004012200019N003000199+01101+00601999999ADDGF100991999999999999999999MA1101701999990MW1051REMMET058METAR ZSSS 030100Z 30004MPS 3000 HZ NSC 11/06 Q1017 NOSIG=
0125583670999992014010301304+31198+121336FM-15+000399999V0203001V004012200019N003000199+01101+00601999999ADDGF100991999999999999999999MA1101701999990MW1051REMMET066METAR ZSSS 030130Z 30004MPS 240V330 3000 HZ NSC 11/06 Q1017 NOSIG=
0117583670999992014010302004+31198+121336FM-15+000399999V0203201N005012200019N003000199+01201+00501999999ADDGF100991999999999999999999MA1101701999990MW1051REMMET058METAR ZSSS 030200Z 32005MPS 3000 HZ NSC 12/05 Q1017 NOSIG=
0117583670999992014010302304+31198+121336FM-15+000399999V0203201N004012200019N003000199+01301+00501999999ADDGF100991999999999999999999MA1101701999990MW1051REMMET058METAR ZSSS 030230Z 32004MPS 3000 HZ NSC 13/05 Q1017 NOSIG=
0117583670999992014010303004+31198+121336FM-15+000399999V0203201N005012200019N003000199+01301+00401999999ADDGF100991999999999999999999MA1101701999990MW1051REMMET058METAR ZSSS 030300Z 32005MPS 3000 HZ NSC 13/04 Q1017 NOSIG=
0117583670999992014010303304+31198+121336FM-15+000399999V0203201N004012200019N003000199+01401+00401999999ADDGF100991999999999999999999MA1101601999990MW1051REMMET058METAR ZSSS 030330Z 32004MPS 3000 HZ NSC 14/04 Q1016 NOSIG=
0117583670999992014010304004+31198+121336FM-15+000399999V0203201N006012200019N003000199+01501+00201999999ADDGF100991999999999999999999MA1101601999990MW1051REMMET058METAR ZSSS 030400Z 32006MPS 3000 HZ NSC 15/02 Q1016 NOSIG=
0118583670999992014010304304+31198+121336FM-15+000399999V0203301N004012200019N003000199+01601+00001999999ADDGF100991999999999999999999MA1101501999990MW1051REMMET059METAR ZSSS 030430Z 33004MPS 3000 HZ NSC 16/M00 Q1015 NOSIG=
0118583670999992014010305004+31198+121336FM-15+000399999V0203301N005012200019N004000199+01601-00301999999ADDGF100991999999999999999999MA1101501999990MW1051REMMET059METAR ZSSS 030500Z 33005MPS 4000 HZ NSC 16/M03 Q1015 NOSIG=
0118583670999992014010305304+31198+121336FM-15+000399999V0203201N006012200019N004500199+01601-00401999999ADDGF100991999999999999999999MA1101501999990MW1051REMMET059METAR ZSSS 030530Z 32006MPS 4500 HZ NSC 16/M04 Q1015 NOSIG=
0118583670999992014010306004+31198+121336FM-15+000399999V0203401N006012200019N004500199+01701-00501999999ADDGF100991999999999999999999MA1101501999990MW1051REMMET059METAR ZSSS 030600Z 34006MPS 4500 HZ NSC 17/M05 Q1015 NOSIG=
0117583670999992014010306304+31198+121336FM-15+000399999V0203201V005012200019N006000199+01701-00701999999ADDGF100991999999999999999999MA1101501999990REMMET064METAR ZSSS 030630Z 32005MPS 280V350 6000 NSC 17/M07 Q1015 NOSIG=
0109583670999992014010307004+31198+121336FM-15+000399999V0203401N005012200019N007000199+01601-00801999999ADDGF100991999999999999999999MA1101501999990REMMET056METAR ZSSS 030700Z 34005MPS 7000 NSC 16/M08 Q1015 NOSIG=
0109583670999992014010307304+31198+121336FM-15+000399999V0203301N006012200019N007000199+01601-00801999999ADDGF100991999999999999999999MA1101601999990REMMET056METAR ZSSS 030730Z 33006MPS 7000 NSC 16/M08 Q1016 NOSIG=
0117583670999992014010308004+31198+121336FM-15+000399999V0203301V005012200019N007000199+01501-00801999999ADDGF100991999999999999999999MA1101601999990REMMET064METAR ZSSS 030800Z 33005MPS 290V350 7000 NSC 15/M08 Q1016 NOSIG=
0109583670999992014010308304+31198+121336FM-15+000399999V0203101N004012200019N007000199+01501-00801999999ADDGF100991999999999999999999MA1101601999990REMMET056METAR ZSSS 030830Z 31004MPS 7000 NSC 15/M08 Q1016 NOSIG=
0109583670999992014010309004+31198+121336FM-15+000399999V0203201N004012200019N006000199+01401-00701999999ADDGF100991999999999999999999MA1101701999990REMMET056METAR ZSSS 030900Z 32004MPS 6000 NSC 14/M07 Q1017 NOSIG=
0117583670999992014010309304+31198+121336FM-15+000399999V0203201V004012200019N006000199+01301-00701999999ADDGF100991999999999999999999MA1101701999990REMMET064METAR ZSSS 030930Z 32004MPS 280V340 6000 NSC 13/M07 Q1017 NOSIG=
0109583670999992014010310004+31198+121336FM-15+000399999V0203401N003012200019N006000199+01201-00601999999ADDGF100991999999999999999999MA1101701999990REMMET056METAR ZSSS 031000Z 34003MPS 6000 NSC 12/M06 Q1017 NOSIG=
0117583670999992014010310304+31198+121336FM-15+000399999V0203301V003012200019N006000199+01201-00601999999ADDGF100991999999999999999999MA1101801999990REMMET064METAR ZSSS 031030Z 33003MPS 230V360 6000 NSC 12/M06 Q1018 NOSIG=
0109583670999992014010311004+31198+121336FM-15+000399999V0203201N003012200019N006000199+01201-00501999999ADDGF100991999999999999999999MA1101801999990REMMET056METAR ZSSS 031100Z 32003MPS 6000 NSC 12/M05 Q1018 NOSIG=
0109583670999992014010311304+31198+121336FM-15+000399999V0203201N003012200019N006000199+01201-00501999999ADDGF100991999999999999999999MA1101801999990REMMET056METAR ZSSS 031130Z 32003MPS 6000 NSC 12/M05 Q1018 NOSIG=
0117583670999992014010312004+31198+121336FM-15+000399999V0202801V003012200019N006000199+01201-00401999999ADDGF100991999999999999999999MA1101901999990REMMET064METAR ZSSS 031200Z 28003MPS 240V310 6000 NSC 12/M04 Q1019 NOSIG=
0117583670999992014010312304+31198+121336FM-15+000399999V0202701V003012200019N006000199+01101-00301999999ADDGF100991999999999999999999MA1101901999990REMMET064METAR ZSSS 031230Z 27003MPS 240V300 6000 NSC 11/M03 Q1019 NOSIG=
0109583670999992014010313004+31198+121336FM-15+000399999V0202801N002012200019N006000199+01101-00301999999ADDGF100991999999999999999999MA1101901999990REMMET056METAR ZSSS 031300Z 28002MPS 6000 NSC 11/M03 Q1019 NOSIG=
0109583670999992014010313304+31198+121336FM-15+000399999V0209999C000012200019N006000199+01001-00201999999ADDGF100991999999999999999999MA1101901999990REMMET056METAR ZSSS 031330Z 00000MPS 6000 NSC 10/M02 Q1019 NOSIG=
0109583670999992014010314004+31198+121336FM-15+000399999V0209999V001012200019N006000199+00901-00101999999ADDGF100991999999999999999999MA1101901999990REMMET056METAR ZSSS 031400Z VRB01MPS 6000 NSC 09/M01 Q1019 NOSIG=
0109583670999992014010314304+31198+121336FM-15+000399999V0203501N002012200019N006000199+00901-00101999999ADDGF100991999999999999999999MA1101901999990REMMET056METAR ZSSS 031430Z 35002MPS 6000 NSC 09/M01 Q1019 NOSIG=
0108583670999992014010315004+31198+121336FM-15+000399999V0203201N004012200019N006000199+00901+00001999999ADDGF100991999999999999999999MA1101901999990REMMET055METAR ZSSS 031500Z 32004MPS 6000 NSC 09/00 Q1019 NOSIG=
0108583670999992014010315304+31198+121336FM-15+000399999V0203101N003012200019N006000199+00901+00101999999ADDGF100991999999999999999999MA1102001999990REMMET055METAR ZSSS 031530Z 31003MPS 6000 NSC 09/01 Q1020 NOSIG=
0108583670999992014010316004+31198+121336FM-15+000399999V0203001N003012200019N006000199+00801+00101999999ADDGF100991999999999999999999MA1102001999990REMMET055METAR ZSSS 031600Z 30003MPS 6000 NSC 08/01 Q1020 NOSIG=
0108583670999992014010316304+31198+121336FM-15+000399999V0209999V001012200019N006000199+00701+00101999999ADDGF100991999999999999999999MA1102001999990REMMET055METAR ZSSS 031630Z VRB01MPS 6000 NSC 07/01 Q1020 NOSIG=
0116583670999992014010317004+31198+121336FM-15+000399999V0200401V002012200019N006000199+00801+00101999999ADDGF100991999999999999999999MA1102001999990REMMET063METAR ZSSS 031700Z 04002MPS 360V070 6000 NSC 08/01 Q1020 NOSIG=
0117583670999992014010317304+31198+121336FM-15+000399999V0202601V002012200019N006000199+00701+00001999999ADDGF100991999999999999999999MA1102001999990REMMET064METAR ZSSS 031730Z 26002MPS 210V320 6000 NSC 07/M00 Q1020 NOSIG=
0117583670999992014010318004+31198+121336FM-15+000399999V0203501V002012200019N006000199+00701+00001999999ADDGF100991999999999999999999MA1102001999990REMMET064METAR ZSSS 031800Z 35002MPS 300V020 6000 NSC 07/M00 Q1020 NOSIG=
0118583670999992014010318304+31198+121336FM-15+000399999V0203301N002012200019N004000199+00601-00101999999ADDGF100991999999999999999999MA1102001999990MW1051REMMET059METAR ZSSS 031830Z 33002MPS 4000 HZ NSC 06/M01 Q1020 NOSIG=
0137583670999992014010319004+31198+121336FM-15+000399999V0203101N005019999999N004500199+00701-00101999999ADDGA1041+009141991GF199999041990009141991991MA1102001999990MW1051REMMET062METAR ZSSS 031900Z 31005MPS 4500 HZ SCT030 07/M01 Q1020 NOSIG=
0137583670999992014010319304+31198+121336FM-15+000399999V0203101N004019999999N004500199+00701-00101999999ADDGA1021+009141991GF199999021990009141991991MA1102001999990MW1051REMMET062METAR ZSSS 031930Z 31004MPS 4500 HZ FEW030 07/M01 Q1020 NOSIG=
0118583670999992014010320004+31198+121336FM-15+000399999V0203101N003012200019N004500199+00601-00101999999ADDGF100991999999999999999999MA1102001999990MW1051REMMET059METAR ZSSS 032000Z 31003MPS 4500 HZ NSC 06/M01 Q1020 NOSIG=
0117583670999992014010320304+31198+121336FM-15+000399999V0203301N005012200019N004000199+00601+00001999999ADDGF100991999999999999999999MA1102001999990MW1051REMMET058METAR ZSSS 032030Z 33005MPS 4000 HZ NSC 06/00 Q1020 NOSIG=
0137583670999992014010321004+31198+121336FM-15+000399999V0203301N004012200019N003600199+00501+00201999999ADDGF100991999999999999999999MA1102101999990MW1101REMMET078METAR ZSSS 032100Z 33004MPS 3600 BR NSC 05/02 Q1021 BECMG TL2230 2500      BR=
0136583670999992014010321304+31198+121336FM-15+000399999V0203501N005010018319N002600199+00601+00301999999ADDGA1071+001831991GF199999071990001831991991MA1102101999990MW1101REMMET061METAR ZSSS 032130Z 35005MPS 2600 BR BKN006 06/03 Q1021 NOSIG=
0163583670999992014010322004+31198+121336FM-15+000399999V0203401N004010012219N001800199+00601+00401999999ADDGA1071+001221991GF199999071990001221991991MA1102101999990MW1101REMMET088METAR ZSSS 032200Z 34004MPS 1800 BR BKN004 06/04 Q1021 BECMG TL2330      1400 BR BKN006=
0136583670999992014010322304+31198+121336FM-15+000399999V0203401N003010012219N001800199+00601+00401999999ADDGA1071+001221991GF199999071990001221991991MA1102101999990MW1101REMMET061METAR ZSSS 032230Z 34003MPS 1800 BR BKN004 06/04 Q1021 NOSIG=
0171583670999992014010323004+31198+121336FM-15+000399999V0203401V003010012219N001600199+00601+00501999999ADDGA1071+001221991GF199999071990001221991991MA1102101999990MW1101REMMET096METAR ZSSS 032300Z 34003MPS 320V020 1600 BR BKN004 06/05 Q1021 BECMG      TL0030 3000 BR BKN006=
0136583670999992014010323304+31198+121336FM-15+000399999V0203501N003010012219N001800199+00601+00501999999ADDGA1071+001221991GF199999071990001221991991MA1102201999990MW1101REMMET061METAR ZSSS 032330Z 35003MPS 1800 BR BKN004 06/05 Q1022 NOSIG=
0163583670999992014010400004+31198+121336FM-15+000399999V0203601N002010012219N001800199+00601+00501999999ADDGA1071+001221991GF199999071990001221991991MA1102201999990MW1101REMMET088METAR ZSSS 040000Z 36002MPS 1800 BR BKN004 06/05 Q1022 BECMG TL0130      3000 BR BKN006=
0136583670999992014010400304+31198+121336FM-15+000399999V0203401N004010012219N001800199+00701+00501999999ADDGA1071+001221991GF199999071990001221991991MA1102201999990MW1101REMMET061METAR ZSSS 040030Z 34004MPS 1800 BR BKN004 07/05 Q1022 NOSIG=
0160583670999992014010401004+31198+121336FM-15+000399999V0203101N004010012219N001800199+00701+00501999999ADDGA1071+001221991GF199999071990001221991991MA1102301999990MW1101REMMET085METAR ZSSS 040100Z 31004MPS 1800 BR BKN004 07/05 Q1023 BECMG TL0240      3000 BKN006=
0144583670999992014010401304+31198+121336FM-15+000399999V0203201V003010018319N002000199+00701+00501999999ADDGA1071+001831991GF199999071990001831991991MA1102301999990MW1101REMMET069METAR ZSSS 040130Z 32003MPS 260V350 2000 BR BKN006 07/05 Q1023 NOSIG=
0163583670999992014010402004+31198+121336FM-15+000399999V0203201V004010021319N003000199+00801+00501999999ADDGA1071+002131991GF199999071990002131991991MA1102301999990MW1101REMMET088METAR ZSSS 040200Z 32004MPS 240V350 3000 BR BKN007 08/05 Q1023 BECMG      TL0300 BKN010=
0136583670999992014010402304+31198+121336FM-15+000399999V0203301N004010027419N003500199+00901+00501999999ADDGA1071+002741991GF199999071990002741991991MA1102301999990MW1101REMMET061METAR ZSSS 040230Z 33004MPS 3500 BR BKN009 09/05 Q1023 NOSIG=
0155583670999992014010403004+31198+121336FM-15+000399999V0203501N004010033519N005000199+00901+00401999999ADDGA1071+003351991GF199999071990003351991991MA1102301999990MW1101REMMET080METAR ZSSS 040300Z 35004MPS 5000 BR BKN011 09/04 Q1023 BECMG TL0400      BKN015=
0127583670999992014010403304+31198+121336FM-15+000399999V0203501N004010045719N006000199+00901+00401999999ADDGA1071+004571991GF199999071990004571991991MA1102201999990REMMET058METAR ZSSS 040330Z 35004MPS 6000 BKN015 09/04 Q1022 NOSIG=
0127583670999992014010404004+31198+121336FM-15+000399999V0203401N004010061019N007000199+00901+00301999999ADDGA1071+006101991GF199999071990006101991991MA1102201999990REMMET058METAR ZSSS 040400Z 34004MPS 7000 BKN020 09/03 Q1022 NOSIG=
0127583670999992014010404304+31198+121336FM-15+000399999V0200101N005010061019N007000199+01001+00301999999ADDGA1071+006101991GF199999071990006101991991MA1102201999990REMMET058METAR ZSSS 040430Z 01005MPS 7000 BKN020 10/03 Q1022 NOSIG=
0135583670999992014010405004+31198+121336FM-15+000399999V0200101V005010070119N007000199+01001+00301999999ADDGA1071+007011991GF199999071990007011991991MA1102101999990REMMET066METAR ZSSS 040500Z 01005MPS 340V040 7000 BKN023 10/03 Q1021 NOSIG=
0127583670999992014010405304+31198+121336FM-15+000399999V0203501N004010079219N007000199+01001+00201999999ADDGA1071+007921991GF199999071990007921991991MA1102101999990REMMET058METAR ZSSS 040530Z 35004MPS 7000 BKN026 10/02 Q1021 NOSIG=
0127583670999992014010406004+31198+121336FM-15+000399999V0203601N004010091419N007000199+01001+00101999999ADDGA1071+009141991GF199999071990009141991991MA1102101999990REMMET058METAR ZSSS 040600Z 36004MPS 7000 BKN030 10/01 Q1021 NOSIG=
0135583670999992014010406304+31198+121336FM-15+000399999V0200101V005010091419N007000199+01001+00101999999ADDGA1071+009141991GF199999071990009141991991MA1102101999990REMMET066METAR ZSSS 040630Z 01005MPS 330V040 7000 BKN030 10/01 Q1021 NOSIG=
0127583670999992014010407004+31198+121336FM-15+000399999V0203601N005010100619N007000199+01001+00001999999ADDGA1071+010061991GF199999071990010061991991MA1102201999990REMMET058METAR ZSSS 040700Z 36005MPS 7000 BKN033 10/00 Q1022 NOSIG=
0127583670999992014010407304+31198+121336FM-15+000399999V0203501N005010100619N007000199+00901+00001999999ADDGA1071+010061991GF199999071990010061991991MA1102201999990REMMET058METAR ZSSS 040730Z 35005MPS 7000 BKN033 09/00 Q1022 NOSIG=
0127583670999992014010408004+31198+121336FM-15+000399999V0200101N005010100619N007000199+00901+00101999999ADDGA1071+010061991GF199999071990010061991991MA1102201999990REMMET058METAR ZSSS 040800Z 01005MPS 7000 BKN033 09/01 Q1022 NOSIG=
0127583670999992014010408304+31198+121336FM-15+000399999V0200101N005010100619N007000199+00801+00001999999ADDGA1071+010061991GF199999071990010061991991MA1102201999990REMMET058METAR ZSSS 040830Z 01005MPS 7000 BKN033 08/00 Q1022 NOSIG=
0127583670999992014010409004+31198+121336FM-15+000399999V0200101N004010100619N007000199+00701+00001999999ADDGA1071+010061991GF199999071990010061991991MA1102201999990REMMET058METAR ZSSS 040900Z 01004MPS 7000 BKN033 07/00 Q1022 NOSIG=
0127583670999992014010409304+31198+121336FM-15+000399999V0200101N004019999999N007000199+00701+00101999999ADDGA1041+010061991GF199999041990010061991991MA1102201999990REMMET058METAR ZSSS 040930Z 01004MPS 7000 SCT033 07/01 Q1022 NOSIG=
0127583670999992014010410004+31198+121336FM-15+000399999V0203601N004010121919N009999199+00701+00101999999ADDGA1071+012191991GF199999071990012191991991MA1102301999990REMMET058METAR ZSSS 041000Z 36004MPS 9999 BKN040 07/01 Q1023 NOSIG=
0127583670999992014010410304+31198+121336FM-15+000399999V0203601N004010121919N009999199+00701+00101999999ADDGA1071+012191991GF199999071990012191991991MA1102301999990REMMET058METAR ZSSS 041030Z 36004MPS 9999 BKN040 07/01 Q1023 NOSIG=
0127583670999992014010411004+31198+121336FM-15+000399999V0200301N005019999999N009999199+00701+00101999999ADDGA1041+012191991GF199999041990012191991991MA1102301999990REMMET058METAR ZSSS 041100Z 03005MPS 9999 SCT040 07/01 Q1023 NOSIG=
0079583670999992014010411304+31198+121336FM-15+000399999V0200201N004019999999Y999999999+00601+00001999999ADDMA1102301999990REMMET052METAR ZSSS 041130Z 02004MPS CAVOK 06/00 Q1023 NOSIG=
0080583670999992014010412004+31198+121336FM-15+000399999V0200301N004019999999Y999999999+00601+00001999999ADDMA1102301999990REMMET053METAR ZSSS 041200Z 03004MPS CAVOK 06/M00 Q1023 NOSIG=
0080583670999992014010412304+31198+121336FM-15+000399999V0200401N004019999999Y999999999+00601-00101999999ADDMA1102301999990REMMET053METAR ZSSS 041230Z 04004MPS CAVOK 06/M01 Q1023 NOSIG=
0080583670999992014010413004+31198+121336FM-15+000399999V0200301N003019999999Y999999999+00501+00001999999ADDMA1102301999990REMMET053METAR ZSSS 041300Z 03003MPS CAVOK 05/M00 Q1023 NOSIG=
0088583670999992014010413304+31198+121336FM-15+000399999V0200501V002019999999Y999999999+00501+00001999999ADDMA1102401999990REMMET061METAR ZSSS 041330Z 05002MPS 010V090 CAVOK 05/M00 Q1024 NOSIG=
0080583670999992014010414004+31198+121336FM-15+000399999V0209999V001019999999Y999999999+00501-00101999999ADDMA1102401999990REMMET053METAR ZSSS 041400Z VRB01MPS CAVOK 05/M01 Q1024 NOSIG=
0080583670999992014010414304+31198+121336FM-15+000399999V0209999V001019999999Y999999999+00501-00101999999ADDMA1102401999990REMMET053METAR ZSSS 041430Z VRB01MPS CAVOK 05/M01 Q1024 NOSIG=
0080583670999992014010415004+31198+121336FM-15+000399999V0200501N002019999999Y999999999+00501-00101999999ADDMA1102401999990REMMET053METAR ZSSS 041500Z 05002MPS CAVOK 05/M01 Q1024 NOSIG=
0088583670999992014010415304+31198+121336FM-15+000399999V0200501V002019999999Y999999999+00501-00101999999ADDMA1102401999990REMMET061METAR ZSSS 041530Z 05002MPS 020V080 CAVOK 05/M01 Q1024 NOSIG=
0080583670999992014010416004+31198+121336FM-15+000399999V0200401N003019999999Y999999999+00501+00001999999ADDMA1102401999990REMMET053METAR ZSSS 041600Z 04003MPS CAVOK 05/M00 Q1024 NOSIG=
0088583670999992014010416304+31198+121336FM-15+000399999V0200201V002019999999Y999999999+00401-00101999999ADDMA1102401999990REMMET061METAR ZSSS 041630Z 02002MPS 360V070 CAVOK 04/M01 Q1024 NOSIG=
0080583670999992014010417004+31198+121336FM-15+000399999V0200101N002019999999Y999999999+00201-00201999999ADDMA1102401999990REMMET053METAR ZSSS 041700Z 01002MPS CAVOK 02/M02 Q1024 NOSIG=
0080583670999992014010417304+31198+121336FM-15+000399999V0200101N001019999999Y999999999+00301-00101999999ADDMA1102401999990REMMET053METAR ZSSS 041730Z 01001MPS CAVOK 03/M01 Q1024 NOSIG=
0080583670999992014010418004+31198+121336FM-15+000399999V0203501N001019999999Y999999999+00301-00101999999ADDMA1102401999990REMMET053METAR ZSSS 041800Z 35001MPS CAVOK 03/M01 Q1024 NOSIG=
0080583670999992014010418304+31198+121336FM-15+000399999V0209999C000019999999Y999999999+00201-00201999999ADDMA1102401999990REMMET053METAR ZSSS 041830Z 00000MPS CAVOK 02/M02 Q1024 NOSIG=
0080583670999992014010419004+31198+121336FM-15+000399999V0209999C000019999999Y999999999+00201-00101999999ADDMA1102401999990REMMET053METAR ZSSS 041900Z 00000MPS CAVOK 02/M01 Q1024 NOSIG=
0080583670999992014010419304+31198+121336FM-15+000399999V0209999C000019999999Y999999999+00201-00101999999ADDMA1102401999990REMMET053METAR ZSSS 041930Z 00000MPS CAVOK 02/M01 Q1024 NOSIG=
0080583670999992014010420004+31198+121336FM-15+000399999V0202401N002019999999Y999999999+00101-00201999999ADDMA1102401999990REMMET053METAR ZSSS 042000Z 24002MPS CAVOK 01/M02 Q1024 NOSIG=
0080583670999992014010420304+31198+121336FM-15+000399999V0202301N002019999999Y999999999+00101-00101999999ADDMA1102401999990REMMET053METAR ZSSS 042030Z 23002MPS CAVOK 01/M01 Q1024 NOSIG=
0080583670999992014010421004+31198+121336FM-15+000399999V0202401N002019999999Y999999999+00101-00201999999ADDMA1102401999990REMMET053METAR ZSSS 042100Z 24002MPS CAVOK 01/M02 Q1024 NOSIG=
0080583670999992014010421304+31198+121336FM-15+000399999V0209999C000019999999Y999999999+00201+00001999999ADDMA1102401999990REMMET053METAR ZSSS 042130Z 00000MPS CAVOK 02/M00 Q1024 NOSIG=
0080583670999992014010422004+31198+121336FM-15+000399999V0209999C000019999999Y999999999+00101-00101999999ADDMA1102401999990REMMET053METAR ZSSS 042200Z 00000MPS CAVOK 01/M01 Q1024 NOSIG=
0080583670999992014010422304+31198+121336FM-15+000399999V0209999C000019999999Y999999999+00101-00101999999ADDMA1102401999990REMMET053METAR ZSSS 042230Z 00000MPS CAVOK 01/M01 Q1024 NOSIG=
0080583670999992014010423004+31198+121336FM-15+000399999V0202001N002019999999Y999999999+00101-00101999999ADDMA1102401999990REMMET053METAR ZSSS 042300Z 20002MPS CAVOK 01/M01 Q1024 NOSIG=
0080583670999992014010423304+31198+121336FM-15+000399999V0209999V001019999999Y999999999+00201+00001999999ADDMA1102501999990REMMET053METAR ZSSS 042330Z VRB01MPS CAVOK 02/M00 Q1025 NOSIG=
0108583670999992014010500004+31198+121336FM-15+000399999V0209999V001012200019N007000199+00301+00101999999ADDGF100991999999999999999999MA1102501999990REMMET055METAR ZSSS 050000Z VRB01MPS 7000 NSC 03/01 Q1025 NOSIG=
0108583670999992014010500304+31198+121336FM-15+000399999V0209999V001012200019N007000199+00401+00201999999ADDGF100991999999999999999999MA1102501999990REMMET055METAR ZSSS 050030Z VRB01MPS 7000 NSC 04/02 Q1025 NOSIG=
0108583670999992014010501004+31198+121336FM-15+000399999V0209999V001012200019N007000199+00501+00101999999ADDGF100991999999999999999999MA1102501999990REMMET055METAR ZSSS 050100Z VRB01MPS 7000 NSC 05/01 Q1025 NOSIG=
0087583670999992014010501304+31198+121336FM-15+000399999V0201501V002019999999Y999999999+00601+00001999999ADDMA1102501999990REMMET060METAR ZSSS 050130Z 15002MPS 130V190 CAVOK 06/00 Q1025 NOSIG=
0087583670999992014010502004+31198+121336FM-15+000399999V0201901V002019999999Y999999999+00801+00101999999ADDMA1102501999990REMMET060METAR ZSSS 050200Z 19002MPS 110V270 CAVOK 08/01 Q1025 NOSIG=
0087583670999992014010502304+31198+121336FM-15+000399999V0202101V002019999999Y999999999+00901+00101999999ADDMA1102501999990REMMET060METAR ZSSS 050230Z 21002MPS 160V250 CAVOK 09/01 Q1025 NOSIG=
0108583670999992014010503004+31198+121336FM-15+000399999V0209999V001012200019N007000199+00901+00101999999ADDGF100991999999999999999999MA1102401999990REMMET055METAR ZSSS 050300Z VRB01MPS 7000 NSC 09/01 Q1024 NOSIG=
0116583670999992014010503304+31198+121336FM-15+000399999V0202901V002012200019N007000199+00901+00101999999ADDGF100991999999999999999999MA1102401999990REMMET063METAR ZSSS 050330Z 29002MPS 250V330 7000 NSC 09/01 Q1024 NOSIG=
0108583670999992014010504004+31198+121336FM-15+000399999V0209999V001012200019N007000199+00901+00101999999ADDGF100991999999999999999999MA1102401999990REMMET055METAR ZSSS 050400Z VRB01MPS 7000 NSC 09/01 Q1024 NOSIG=
0108583670999992014010504304+31198+121336FM-15+000399999V0209999V002012200019N006000199+01001+00101999999ADDGF100991999999999999999999MA1102301999990REMMET055METAR ZSSS 050430Z VRB02MPS 6000 NSC 10/01 Q1023 NOSIG=
0108583670999992014010505004+31198+121336FM-15+000399999V0209999V001012200019N006000199+01001+00101999999ADDGF100991999999999999999999MA1102301999990REMMET055METAR ZSSS 050500Z VRB01MPS 6000 NSC 10/01 Q1023 NOSIG=
0125583670999992014010505304+31198+121336FM-15+000399999V0200301V002012200019N005000199+01001+00101999999ADDGF100991999999999999999999MA1102301999990MW1051REMMET066METAR ZSSS 050530Z 03002MPS 310V100 5000 HZ NSC 10/01 Q1023 NOSIG=
0117583670999992014010506004+31198+121336FM-15+000399999V0209999V001012200019N004500199+01101+00001999999ADDGF100991999999999999999999MA1102201999990MW1051REMMET058METAR ZSSS 050600Z VRB01MPS 4500 HZ NSC 11/00 Q1022 NOSIG=
0126583670999992014010506304+31198+121336FM-15+000399999V0200701V002012200019N004500199+01101-00101999999ADDGF100991999999999999999999MA1102201999990MW1051REMMET067METAR ZSSS 050630Z 07002MPS 020V130 4500 HZ NSC 11/M01 Q1022 NOSIG=
0118583670999992014010507004+31198+121336FM-15+000399999V0209999V001012200019N004500199+01101+00001999999ADDGF100991999999999999999999MA1102201999990MW1051REMMET059METAR ZSSS 050700Z VRB01MPS 4500 HZ NSC 11/M00 Q1022 NOSIG=
0118583670999992014010507304+31198+121336FM-15+000399999V0209999V001012200019N004500199+01101-00101999999ADDGF100991999999999999999999MA1102301999990MW1051REMMET059METAR ZSSS 050730Z VRB01MPS 4500 HZ NSC 11/M01 Q1023 NOSIG=
0118583670999992014010508004+31198+121336FM-15+000399999V0201301N003012200019N004500199+01101+00001999999ADDGF100991999999999999999999MA1102301999990MW1051REMMET059METAR ZSSS 050800Z 13003MPS 4500 HZ NSC 11/M00 Q1023 NOSIG=
0137583670999992014010508304+31198+121336FM-15+000399999V0201301V004012200019N005000199+01001+00001999999ADDGF100991999999999999999999MA1102301999990MW1051OC101001REMMET070METAR ZSSS 050830Z 13004G10MPS 100V200 5000 HZ NSC 10/M00 Q1023 NOSIG=
0125583670999992014010509004+31198+121336FM-15+000399999V0201301V004012200019N005000199+00901+00001999999ADDGF100991999999999999999999MA1102301999990MW1051REMMET066METAR ZSSS 050900Z 13004MPS 100V160 5000 HZ NSC 09/00 Q1023 NOSIG=
0125583670999992014010509304+31198+121336FM-15+000399999V0201401V004012200019N005000199+00901+00201999999ADDGF100991999999999999999999MA1102301999990MW1051REMMET066METAR ZSSS 050930Z 14004MPS 090V170 5000 HZ NSC 09/02 Q1023 NOSIG=
0116583670999992014010510004+31198+121336FM-15+000399999V0201101V004012200019N007000199+00801+00001999999ADDGF100991999999999999999999MA1102401999990REMMET063METAR ZSSS 051000Z 11004MPS 070V150 7000 NSC 08/00 Q1024 NOSIG=
0109583670999992014010510304+31198+121336FM-15+000399999V0201101N004012200019N007000199+00701+00001999999ADDGF100991999999999999999999MA1102401999990REMMET056METAR ZSSS 051030Z 11004MPS 7000 NSC 07/M00 Q1024 NOSIG=
0080583670999992014010511004+31198+121336FM-15+000399999V0201101N004019999999Y999999999+00701-00501999999ADDMA1102401999990REMMET053METAR ZSSS 051100Z 11004MPS CAVOK 07/M05 Q1024 NOSIG=
0080583670999992014010511304+31198+121336FM-15+000399999V0201301N003019999999Y999999999+00701-00301999999ADDMA1102501999990REMMET053METAR ZSSS 051130Z 13003MPS CAVOK 07/M03 Q1025 NOSIG=
0080583670999992014010512004+31198+121336FM-15+000399999V0201201N003019999999Y999999999+00601-00401999999ADDMA1102501999990REMMET053METAR ZSSS 051200Z 12003MPS CAVOK 06/M04 Q1025 NOSIG=
0080583670999992014010512304+31198+121336FM-15+000399999V0201301N004019999999Y999999999+00601-00101999999ADDMA1102501999990REMMET053METAR ZSSS 051230Z 13004MPS CAVOK 06/M01 Q1025 NOSIG=
0080583670999992014010513004+31198+121336FM-15+000399999V0201301N004019999999Y999999999+00601-00101999999ADDMA1102501999990REMMET053METAR ZSSS 051300Z 13004MPS CAVOK 06/M01 Q1025 NOSIG=
0080583670999992014010513304+31198+121336FM-15+000399999V0201101N003019999999Y999999999+00601+00001999999ADDMA1102501999990REMMET053METAR ZSSS 051330Z 11003MPS CAVOK 06/M00 Q1025 NOSIG=
0080583670999992014010514004+31198+121336FM-15+000399999V0201301N003019999999Y999999999+00501+00001999999ADDMA1102501999990REMMET053METAR ZSSS 051400Z 13003MPS CAVOK 05/M00 Q1025 NOSIG=
0088583670999992014010514304+31198+121336FM-15+000399999V0201401V002019999999Y999999999+00501+00001999999ADDMA1102501999990REMMET061METAR ZSSS 051430Z 14002MPS 100V160 CAVOK 05/M00 Q1025 NOSIG=
0080583670999992014010515004+31198+121336FM-15+000399999V0201401N002019999999Y999999999+00501-00101999999ADDMA1102501999990REMMET053METAR ZSSS 051500Z 14002MPS CAVOK 05/M01 Q1025 NOSIG=
0080583670999992014010515304+31198+121336FM-15+000399999V0201301N001019999999Y999999999+00401+00001999999ADDMA1102501999990REMMET053METAR ZSSS 051530Z 13001MPS CAVOK 04/M00 Q1025 NOSIG=
0079583670999992014010516004+31198+121336FM-15+000399999V0201101N001019999999Y999999999+00401+00001999999ADDMA1102501999990REMMET052METAR ZSSS 051600Z 11001MPS CAVOK 04/00 Q1025 NOSIG=
0080583670999992014010516304+31198+121336FM-15+000399999V0209999V001019999999Y999999999+00401+00001999999ADDMA1102501999990REMMET053METAR ZSSS 051630Z VRB01MPS CAVOK 04/M00 Q1025 NOSIG=
0079583670999992014010517004+31198+121336FM-15+000399999V0209999C000019999999Y999999999+00401+00001999999ADDMA1102501999990REMMET052METAR ZSSS 051700Z 00000MPS CAVOK 04/00 Q1025 NOSIG=
0080583670999992014010517304+31198+121336FM-15+000399999V0201001N002019999999Y999999999+00301+00001999999ADDMA1102501999990REMMET053METAR ZSSS 051730Z 10002MPS CAVOK 03/M00 Q1025 NOSIG=
0079583670999992014010518004+31198+121336FM-15+000399999V0200901N002019999999Y999999999+00501+00101999999ADDMA1102501999990REMMET052METAR ZSSS 051800Z 09002MPS CAVOK 05/01 Q1025 NOSIG=
0079583670999992014010518304+31198+121336FM-15+000399999V0200901N002019999999Y999999999+00501+00101999999ADDMA1102501999990REMMET052METAR ZSSS 051830Z 09002MPS CAVOK 05/01 Q1025 NOSIG=
0079583670999992014010519004+31198+121336FM-15+000399999V0201001N001019999999Y999999999+00401+00001999999ADDMA1102501999990REMMET052METAR ZSSS 051900Z 10001MPS CAVOK 04/00 Q1025 NOSIG=
0079583670999992014010519304+31198+121336FM-15+000399999V0209999V001019999999Y999999999+00301+00001999999ADDMA1102501999990REMMET052METAR ZSSS 051930Z VRB01MPS CAVOK 03/00 Q1025 NOSIG=
0079583670999992014010520004+31198+121336FM-15+000399999V0201001N002019999999Y999999999+00301+00001999999ADDMA1102501999990REMMET052METAR ZSSS 052000Z 10002MPS CAVOK 03/00 Q1025 NOSIG=
0079583670999992014010520304+31198+121336FM-15+000399999V0201001N002019999999Y999999999+00501+00101999999ADDMA1102501999990REMMET052METAR ZSSS 052030Z 10002MPS CAVOK 05/01 Q1025 NOSIG=
0079583670999992014010521004+31198+121336FM-15+000399999V0200901N002019999999Y999999999+00501+00101999999ADDMA1102501999990REMMET052METAR ZSSS 052100Z 09002MPS CAVOK 05/01 Q1025 NOSIG=
0079583670999992014010521304+31198+121336FM-15+000399999V0200901N002019999999Y999999999+00501+00101999999ADDMA1102501999990REMMET052METAR ZSSS 052130Z 09002MPS CAVOK 05/01 Q1025 NOSIG=
0079583670999992014010522004+31198+121336FM-15+000399999V0200901N003019999999Y999999999+00501+00101999999ADDMA1102501999990REMMET052METAR ZSSS 052200Z 09003MPS CAVOK 05/01 Q1025 NOSIG=
0079583670999992014010522304+31198+121336FM-15+000399999V0200901N002019999999Y999999999+00501+00101999999ADDMA1102501999990REMMET052METAR ZSSS 052230Z 09002MPS CAVOK 05/01 Q1025 NOSIG=
0079583670999992014010523004+31198+121336FM-15+000399999V0201001N002019999999Y999999999+00601+00101999999ADDMA1102501999990REMMET052METAR ZSSS 052300Z 10002MPS CAVOK 06/01 Q1025 NOSIG=
0079583670999992014010523304+31198+121336FM-15+000399999V0201001N003019999999Y999999999+00601+00201999999ADDMA1102601999990REMMET052METAR ZSSS 052330Z 10003MPS CAVOK 06/02 Q1026 NOSIG=
0079583670999992014010600004+31198+121336FM-15+000399999V0201101N004019999999Y999999999+00701+00201999999ADDMA1102601999990REMMET052METAR ZSSS 060000Z 11004MPS CAVOK 07/02 Q1026 NOSIG=
0079583670999992014010600304+31198+121336FM-15+000399999V0201101N004019999999Y999999999+00801+00201999999ADDMA1102601999990REMMET052METAR ZSSS 060030Z 11004MPS CAVOK 08/02 Q1026 NOSIG=
0079583670999992014010601004+31198+121336FM-15+000399999V0201101N004019999999Y999999999+00901+00201999999ADDMA1102601999990REMMET052METAR ZSSS 060100Z 11004MPS CAVOK 09/02 Q1026 NOSIG=
0079583670999992014010601304+31198+121336FM-15+000399999V0201101N005019999999Y999999999+01001+00201999999ADDMA1102601999990REMMET052METAR ZSSS 060130Z 11005MPS CAVOK 10/02 Q1026 NOSIG=
0079583670999992014010602004+31198+121336FM-15+000399999V0201201N005019999999Y999999999+01101+00201999999ADDMA1102601999990REMMET052METAR ZSSS 060200Z 12005MPS CAVOK 11/02 Q1026 NOSIG=
0079583670999992014010602304+31198+121336FM-15+000399999V0201301N006019999999Y999999999+01101+00201999999ADDMA1102601999990REMMET052METAR ZSSS 060230Z 13006MPS CAVOK 11/02 Q1026 NOSIG=
0087583670999992014010603004+31198+121336FM-15+000399999V0201401V006019999999Y999999999+01201+00201999999ADDMA1102501999990REMMET060METAR ZSSS 060300Z 14006MPS 110V180 CAVOK 12/02 Q1025 NOSIG=
0135583670999992014010603304+31198+121336FM-15+000399999V0201501V006019999999N009999199+01301+00201999999ADDGA1041+006101991GF199999041990006101991991MA1102501999990REMMET066METAR ZSSS 060330Z 15006MPS 110V170 9999 SCT020 13/02 Q1025 NOSIG=
0135583670999992014010604004+31198+121336FM-15+000399999V0201401V006019999999N009999199+01301+00001999999ADDGA1041+009141991GF199999041990009141991991MA1102401999990REMMET066METAR ZSSS 060400Z 14006MPS 100V160 9999 SCT030 13/00 Q1024 NOSIG=
0135583670999992014010604304+31198+121336FM-15+000399999V0201301V006019999999N009999199+01301+00101999999ADDGA1041+012191991GF199999041990012191991991MA1102401999990REMMET066METAR ZSSS 060430Z 13006MPS 090V150 9999 SCT040 13/01 Q1024 NOSIG=
0128583670999992014010605004+31198+121336FM-15+000399999V0201601N006019999999N009999199+01301+00001999999ADDGA1041+012191991GF199999041990012191991991MA1102401999990REMMET059METAR ZSSS 060500Z 16006MPS 9999 SCT040 13/M00 Q1024 NOSIG=
0128583670999992014010605304+31198+121336FM-15+000399999V0201701N007019999999N009999199+01301+00001999999ADDGA1041+012191991GF199999041990012191991991MA1102301999990REMMET059METAR ZSSS 060530Z 17007MPS 9999 SCT040 13/M00 Q1023 NOSIG=
0127583670999992014010606004+31198+121336FM-15+000399999V0201501N007019999999N009999199+01301+00001999999ADDGA1041+012191991GF199999041990012191991991MA1102301999990REMMET058METAR ZSSS 060600Z 15007MPS 9999 SCT040 13/00 Q1023 NOSIG=
0127583670999992014010606304+31198+121336FM-15+000399999V0201701N007019999999N009999199+01301+00001999999ADDGA1021+012191991GF199999021990012191991991MA1102201999990REMMET058METAR ZSSS 060630Z 17007MPS 9999 FEW040 13/00 Q1022 NOSIG=
0127583670999992014010607004+31198+121336FM-15+000399999V0201501N006019999999N009999199+01301+00101999999ADDGA1021+012191991GF199999021990012191991991MA1102201999990REMMET058METAR ZSSS 060700Z 15006MPS 9999 FEW040 13/01 Q1022 NOSIG=
0079583670999992014010607304+31198+121336FM-15+000399999V0201401N006019999999Y999999999+01301+00101999999ADDMA1102201999990REMMET052METAR ZSSS 060730Z 14006MPS CAVOK 13/01 Q1022 NOSIG=
0079583670999992014010608004+31198+121336FM-15+000399999V0201301N005019999999Y999999999+01201+00101999999ADDMA1102201999990REMMET052METAR ZSSS 060800Z 13005MPS CAVOK 12/01 Q1022 NOSIG=
0079583670999992014010608304+31198+121336FM-15+000399999V0201201N005019999999Y999999999+01201+00201999999ADDMA1102301999990REMMET052METAR ZSSS 060830Z 12005MPS CAVOK 12/02 Q1023 NOSIG=
0079583670999992014010609004+31198+121336FM-15+000399999V0201201N005019999999Y999999999+01101+00201999999ADDMA1102301999990REMMET052METAR ZSSS 060900Z 12005MPS CAVOK 11/02 Q1023 NOSIG=
0079583670999992014010609304+31198+121336FM-15+000399999V0201101N005019999999Y999999999+01101+00301999999ADDMA1102301999990REMMET052METAR ZSSS 060930Z 11005MPS CAVOK 11/03 Q1023 NOSIG=
0079583670999992014010610004+31198+121336FM-15+000399999V0201101N005019999999Y999999999+01101+00301999999ADDMA1102301999990REMMET052METAR ZSSS 061000Z 11005MPS CAVOK 11/03 Q1023 NOSIG=
0079583670999992014010610304+31198+121336FM-15+000399999V0201101N005019999999Y999999999+01001+00301999999ADDMA1102301999990REMMET052METAR ZSSS 061030Z 11005MPS CAVOK 10/03 Q1023 NOSIG=
0087583670999992014010611004+31198+121336FM-15+000399999V0201101V004019999999Y999999999+01001+00301999999ADDMA1102301999990REMMET060METAR ZSSS 061100Z 11004MPS 080V140 CAVOK 10/03 Q1023 NOSIG=
0079583670999992014010611304+31198+121336FM-15+000399999V0201101N004019999999Y999999999+01001+00401999999ADDMA1102301999990REMMET052METAR ZSSS 061130Z 11004MPS CAVOK 10/04 Q1023 NOSIG=
0079583670999992014010612004+31198+121336FM-15+000399999V0201101N004019999999Y999999999+01001+00301999999ADDMA1102301999990REMMET052METAR ZSSS 061200Z 11004MPS CAVOK 10/03 Q1023 NOSIG=
0079583670999992014010612304+31198+121336FM-15+000399999V0201101N005019999999Y999999999+01001+00401999999ADDMA1102301999990REMMET052METAR ZSSS 061230Z 11005MPS CAVOK 10/04 Q1023 NOSIG=
0079583670999992014010613004+31198+121336FM-15+000399999V0201101N005019999999Y999999999+01001+00401999999ADDMA1102301999990REMMET052METAR ZSSS 061300Z 11005MPS CAVOK 10/04 Q1023 NOSIG=
0079583670999992014010613304+31198+121336FM-15+000399999V0201201N005019999999Y999999999+00901+00401999999ADDMA1102301999990REMMET052METAR ZSSS 061330Z 12005MPS CAVOK 09/04 Q1023 NOSIG=
0079583670999992014010614004+31198+121336FM-15+000399999V0201201N004019999999Y999999999+00901+00401999999ADDMA1102201999990REMMET052METAR ZSSS 061400Z 12004MPS CAVOK 09/04 Q1022 NOSIG=
0079583670999992014010614304+31198+121336FM-15+000399999V0201201N004019999999Y999999999+00901+00401999999ADDMA1102201999990REMMET052METAR ZSSS 061430Z 12004MPS CAVOK 09/04 Q1022 NOSIG=
0079583670999992014010615004+31198+121336FM-15+000399999V0201201N005019999999Y999999999+00901+00401999999ADDMA1102201999990REMMET052METAR ZSSS 061500Z 12005MPS CAVOK 09/04 Q1022 NOSIG=
0079583670999992014010615304+31198+121336FM-15+000399999V0201201N005019999999Y999999999+00901+00401999999ADDMA1102201999990REMMET052METAR ZSSS 061530Z 12005MPS CAVOK 09/04 Q1022 NOSIG=
0079583670999992014010616004+31198+121336FM-15+000399999V0201201N004019999999Y999999999+00901+00401999999ADDMA1102201999990REMMET052METAR ZSSS 061600Z 12004MPS CAVOK 09/04 Q1022 NOSIG=
0079583670999992014010616304+31198+121336FM-15+000399999V0201301N005019999999Y999999999+00901+00401999999ADDMA1102101999990REMMET052METAR ZSSS 061630Z 13005MPS CAVOK 09/04 Q1021 NOSIG=
0079583670999992014010617004+31198+121336FM-15+000399999V0201301N005019999999Y999999999+00901+00401999999ADDMA1102101999990REMMET052METAR ZSSS 061700Z 13005MPS CAVOK 09/04 Q1021 NOSIG=
0079583670999992014010617304+31198+121336FM-15+000399999V0201201N004019999999Y999999999+00901+00301999999ADDMA1102101999990REMMET052METAR ZSSS 061730Z 12004MPS CAVOK 09/03 Q1021 NOSIG=
0079583670999992014010618004+31198+121336FM-15+000399999V0201201N005019999999Y999999999+01001+00301999999ADDMA1102101999990REMMET052METAR ZSSS 061800Z 12005MPS CAVOK 10/03 Q1021 NOSIG=
0079583670999992014010618304+31198+121336FM-15+000399999V0201201N005019999999Y999999999+01001+00301999999ADDMA1102101999990REMMET052METAR ZSSS 061830Z 12005MPS CAVOK 10/03 Q1021 NOSIG=
0079583670999992014010619004+31198+121336FM-15+000399999V0201301N006019999999Y999999999+01001+00301999999ADDMA1102001999990REMMET052METAR ZSSS 061900Z 13006MPS CAVOK 10/03 Q1020 NOSIG=
0079583670999992014010619304+31198+121336FM-15+000399999V0201301N005019999999Y999999999+01001+00401999999ADDMA1102001999990REMMET052METAR ZSSS 061930Z 13005MPS CAVOK 10/04 Q1020 NOSIG=
0079583670999992014010620004+31198+121336FM-15+000399999V0201301N005019999999Y999999999+01001+00401999999ADDMA1102001999990REMMET052METAR ZSSS 062000Z 13005MPS CAVOK 10/04 Q1020 NOSIG=
0079583670999992014010620304+31198+121336FM-15+000399999V0201201N005019999999Y999999999+01001+00401999999ADDMA1102001999990REMMET052METAR ZSSS 062030Z 12005MPS CAVOK 10/04 Q1020 NOSIG=
0079583670999992014010621004+31198+121336FM-15+000399999V0201201N004019999999Y999999999+01001+00401999999ADDMA1102001999990REMMET052METAR ZSSS 062100Z 12004MPS CAVOK 10/04 Q1020 NOSIG=
0079583670999992014010621304+31198+121336FM-15+000399999V0201301N005019999999Y999999999+01001+00401999999ADDMA1102001999990REMMET052METAR ZSSS 062130Z 13005MPS CAVOK 10/04 Q1020 NOSIG=
0118583670999992014010622004+31198+121336FM-15+000399999V0201301N004012200019N009999199+01001+00501999999ADDGF100991999999999999999999MA1102001999990MW1611REMMET059METAR ZSSS 062200Z 13004MPS 9999 -RA NSC 10/05 Q1020 NOSIG=
0118583670999992014010622304+31198+121336FM-15+000399999V0201401N004012200019N009999199+00901+00601999999ADDGF100991999999999999999999MA1102001999990MW1611REMMET059METAR ZSSS 062230Z 14004MPS 9999 -RA NSC 09/06 Q1020 NOSIG=
0118583670999992014010623004+31198+121336FM-15+000399999V0201501N003012200019N008000199+00901+00601999999ADDGF100991999999999999999999MA1102101999990MW1611REMMET059METAR ZSSS 062300Z 15003MPS 8000 -RA NSC 09/06 Q1021 NOSIG=
0118583670999992014010623304+31198+121336FM-15+000399999V0201201N003012200019N007000199+00901+00701999999ADDGF100991999999999999999999MA1102101999990MW1611REMMET059METAR ZSSS 062330Z 12003MPS 7000 -RA NSC 09/07 Q1021 NOSIG=
0118583670999992014010700004+31198+121336FM-15+000399999V0201201N004012200019N007000199+00901+00701999999ADDGF100991999999999999999999MA1102101999990MW1611REMMET059METAR ZSSS 070000Z 12004MPS 7000 -RA NSC 09/07 Q1021 NOSIG=
0118583670999992014010700304+31198+121336FM-15+000399999V0201101N003012200019N007000199+01001+00701999999ADDGF100991999999999999999999MA1102101999990MW1611REMMET059METAR ZSSS 070030Z 11003MPS 7000 -RA NSC 10/07 Q1021 NOSIG=
0118583670999992014010701004+31198+121336FM-15+000399999V0201001N004012200019N008000199+01001+00801999999ADDGF100991999999999999999999MA1102101999990MW1611REMMET059METAR ZSSS 070100Z 10004MPS 8000 -RA NSC 10/08 Q1021 NOSIG=
0145583670999992014010701304+31198+121336FM-15+000399999V0201101V004019999999N008000199+01001+00801999999ADDGA1021+007921991GF199999021990007921991991MA1102101999990MW1611REMMET070METAR ZSSS 070130Z 11004MPS 080V140 8000 -RA FEW026 10/08 Q1021 NOSIG=
0137583670999992014010702004+31198+121336FM-15+000399999V0201201N005019999999N008000199+01101+00801999999ADDGA1021+007921991GF199999021990007921991991MA1102001999990MW1611REMMET062METAR ZSSS 070200Z 12005MPS 8000 -RA FEW026 11/08 Q1020 NOSIG=
0127583670999992014010702304+31198+121336FM-15+000399999V0201301N004019999999N008000199+01101+00801999999ADDGA1021+007921991GF199999021990007921991991MA1102001999990REMMET058METAR ZSSS 070230Z 13004MPS 8000 FEW026 11/08 Q1020 NOSIG=
0135583670999992014010703004+31198+121336FM-15+000399999V0201201V004019999999N008000199+01101+00801999999ADDGA1041+010061991GF199999041990010061991991MA1101901999990REMMET066METAR ZSSS 070300Z 12004MPS 090V150 8000 SCT033 11/08 Q1019 NOSIG=
0127583670999992014010703304+31198+121336FM-15+000399999V0201301N004010100619N008000199+01101+00801999999ADDGA1071+010061991GF199999071990010061991991MA1101901999990REMMET058METAR ZSSS 070330Z 13004MPS 8000 BKN033 11/08 Q1019 NOSIG=
0127583670999992014010704004+31198+121336FM-15+000399999V0201301N003010121919N008000199+01101+00901999999ADDGA1081+012191991GF199999081990012191991991MA1101801999990REMMET058METAR ZSSS 070400Z 13003MPS 8000 OVC040 11/09 Q1018 NOSIG=
0127583670999992014010704304+31198+121336FM-15+000399999V0201301N003010121919N008000199+01101+00901999999ADDGA1081+012191991GF199999081990012191991991MA1101801999990REMMET058METAR ZSSS 070430Z 13003MPS 8000 OVC040 11/09 Q1018 NOSIG=
0127583670999992014010705004+31198+121336FM-15+000399999V0201301N004010121919N008000199+01201+00901999999ADDGA1081+012191991GF199999081990012191991991MA1101701999990REMMET058METAR ZSSS 070500Z 13004MPS 8000 OVC040 12/09 Q1017 NOSIG=
0079583670999992014010705304+31198+121336FM-15+000399999V0201401N003019999999Y999999999+01201+00901999999ADDMA1101701999990REMMET052METAR ZSSS 070530Z 14003MPS CAVOK 12/09 Q1017 NOSIG=
0079583670999992014010706004+31198+121336FM-15+000399999V0201401N004019999999Y999999999+01201+00901999999ADDMA1101701999990REMMET052METAR ZSSS 070600Z 14004MPS CAVOK 12/09 Q1017 NOSIG=
0079583670999992014010706304+31198+121336FM-15+000399999V0201501N004019999999Y999999999+01201+00801999999ADDMA1101701999990REMMET052METAR ZSSS 070630Z 15004MPS CAVOK 12/08 Q1017 NOSIG=
0118583670999992014010707004+31198+121336FM-15+000399999V0201501N003012200019N008000199+01201+00901999999ADDGF100991999999999999999999MA1101701999990MW1611REMMET059METAR ZSSS 070700Z 15003MPS 8000 -RA NSC 12/09 Q1017 NOSIG=
0118583670999992014010707304+31198+121336FM-15+000399999V0201501N003012200019N008000199+01101+00901999999ADDGF100991999999999999999999MA1101701999990MW1611REMMET059METAR ZSSS 070730Z 15003MPS 8000 -RA NSC 11/09 Q1017 NOSIG=
0137583670999992014010708004+31198+121336FM-15+000399999V0201401N002010121919N007000199+01101+00901999999ADDGA1081+012191991GF199999081990012191991991MA1101701999990MW1611REMMET062METAR ZSSS 070800Z 14002MPS 7000 -RA OVC040 11/09 Q1017 NOSIG=
0137583670999992014010708304+31198+121336FM-15+000399999V0201501N002019999999N007000199+01101+00901999999ADDGA1041+007921991GF199999041990007921991991MA1101701999990MW1611REMMET062METAR ZSSS 070830Z 15002MPS 7000 -RA SCT026 11/09 Q1017 NOSIG=
0137583670999992014010709004+31198+121336FM-15+000399999V0201501N001010079219N007000199+01101+00901999999ADDGA1071+007921991GF199999071990007921991991MA1101701999990MW1611REMMET062METAR ZSSS 070900Z 15001MPS 7000 -RA BKN026 11/09 Q1017 NOSIG=
0137583670999992014010709304+31198+121336FM-15+000399999V0201501N001010079219N007000199+01101+00901999999ADDGA1071+007921991GF199999071990007921991991MA1101701999990MW1611REMMET062METAR ZSSS 070930Z 15001MPS 7000 -RA BKN026 11/09 Q1017 NOSIG=
0137583670999992014010710004+31198+121336FM-15+000399999V0201901N001010079219N007000199+01101+00901999999ADDGA1071+007921991GF199999071990007921991991MA1101701999990MW1611REMMET062METAR ZSSS 071000Z 19001MPS 7000 -RA BKN026 11/09 Q1017 NOSIG=
0137583670999992014010710304+31198+121336FM-15+000399999V0209999C000010070119N007000199+01101+00901999999ADDGA1071+007011991GF199999071990007011991991MA1101701999990MW1611REMMET062METAR ZSSS 071030Z 00000MPS 7000 -RA BKN023 11/09 Q1017 NOSIG=
0186583670999992014010711004+31198+121336FM-15+000399999V0209999V001010061019N006000199+01101+00901999999ADDGA1021+002441991GA2081+006101991GF199999021990002441991991MA1101801999990MW1611REMMET095METAR ZSSS 071100Z VRB01MPS 6000 -RA FEW008 OVC020 11/09 Q1018 BECMG      TL1230 BKN008 OVC020=
0169583670999992014010711304+31198+121336FM-15+000399999V0209999V001010061019N005000199+01101+00901999999ADDGA1041+002441991GA2081+006101991GF199999041990002441991991MA1101801999990MW1101MW2611REMMET072METAR ZSSS 071130Z VRB01MPS 5000 -RA BR SCT008 OVC020 11/09 Q1018 NOSIG=
0195583670999992014010712004+31198+121336FM-15+000399999V0202701N001010061019N004000199+01001+00901999999ADDGA1041+002441991GA2081+006101991GF199999041990002441991991MA1101801999990MW1101MW2611REMMET098METAR ZSSS 071200Z 27001MPS 4000 -RA BR SCT008 OVC020 10/09 Q1018 BECMG      TL1230 BKN008 OVC020=
0169583670999992014010712304+31198+121336FM-15+000399999V0209999V001010018319N003500199+01101+00901999999ADDGA1071+001831991GA2081+006101991GF199999071990001831991991MA1101801999990MW1101MW2611REMMET072METAR ZSSS 071230Z VRB01MPS 3500 -RA BR BKN006 OVC020 11/09 Q1018 NOSIG=
0201583670999992014010713004+31198+121336FM-15+000399999V0203201V002010018319N003500199+01101+00901999999ADDGA1071+001831991GA2081+006101991GF199999071990001831991991MA1101801999990MW1101MW2611REMMET104METAR ZSSS 071300Z 32002MPS 240V030 3500 -RA BR BKN006 OVC020 11/09      Q1018 BECMG TL1430 2500 -RA BR=
0182583670999992014010713304+31198+121336FM-15+000399999V0203101V002010015219N001800199+01101+00901999999ADDGA1071+001521991GA2081+006101991GF199999071990001521991991MA1101801999990MW1101MW2611REMMET085METAR ZSSS 071330Z 31002MPS 240V340 1800 -RA BR BKN005 OVC020 11/09      Q1018 NOSIG=
0207583670999992014010714004+31198+121336FM-15+000399999V0203201N003010015219N001800199+01001+00901999999ADDGA1071+001521991GA2081+006101991GF199999071990001521991991MA1101801999990MW1101MW2611REMMET110METAR ZSSS 071400Z 32003MPS 1800 -RA BR BKN005 OVC020 10/09 Q1018 BECMG      TL1530 1400 -RA BR BKN004 OVC020=
0211583670999992014010714304+31198+121336FM-15+000399999V0203001N003010009119N001400199+01001+00901999999ADDED118L99999GA1071+000911991GA2081+006101991GF199999071990000911991991MA1101801999990MW1101MW2631REMMET103METAR ZSSS 071430Z 30003MPS 1400 R18L/1900N R18R/1000V1500N RA BR BKN003      OVC020 10/09 Q1018 NOSIG=
0191583670999992014010715004+31198+121336FM-15+000399999V0203001N004010009119N002500199+01001+00901999999ADDGA1071+000911991GA2081+006101991GF199999071990000911991991MA1101801999990MW1101MW2611REMMET094METAR ZSSS 071500Z 30004MPS 2500 -RA BR BKN003 OVC020 10/09 Q1018 RERA      BECMG TL1530 3000=
0169583670999992014010715304+31198+121336FM-15+000399999V0203201N003010012219N002500199+01001+00901999999ADDGA1071+001221991GA2081+006101991GF199999071990001221991991MA1101701999990MW1101MW2611REMMET072METAR ZSSS 071530Z 32003MPS 2500 -RA BR BKN004 OVC020 10/09 Q1017 NOSIG=
0200583670999992014010716004+31198+121336FM-15+000399999V0203201N004010012219N002500199+01001+00801999999ADDGA1071+001221991GA2081+007011991GF199999071990001221991991MA1101701999990MW1101MW2611REMMET103METAR ZSSS 071600Z 32004MPS 2500 -RA BR BKN004 OVC023 10/08 Q1017 BECMG      TL1630 3000 BKN005 OVC020=
0169583670999992014010716304+31198+121336FM-15+000399999V0203101N004010012219N002500199+01001+00901999999ADDGA1071+001221991GA2081+007011991GF199999071990001221991991MA1101701999990MW1101MW2611REMMET072METAR ZSSS 071630Z 31004MPS 2500 -RA BR BKN004 OVC023 10/09 Q1017 NOSIG=
0169583670999992014010717004+31198+121336FM-15+000399999V0203101N004010012219N003000199+01001+00801999999ADDGA1071+001221991GA2081+007921991GF199999071990001221991991MA1101701999990MW1101MW2611REMMET072METAR ZSSS 071700Z 31004MPS 3000 -RA BR BKN004 OVC026 10/08 Q1017 NOSIG=
0169583670999992014010717304+31198+121336FM-15+000399999V0202901N004010012219N003000199+01001+00901999999ADDGA1071+001221991GA2081+007921991GF199999071990001221991991MA1101701999990MW1101MW2611REMMET072METAR ZSSS 071730Z 29004MPS 3000 -RA BR BKN004 OVC026 10/09 Q1017 NOSIG=
0169583670999992014010718004+31198+121336FM-15+000399999V0202801N004010012219N002500199+01001+00801999999ADDGA1071+001221991GA2081+007921991GF199999071990001221991991MA1101701999990MW1101MW2611REMMET072METAR ZSSS 071800Z 28004MPS 2500 -RA BR BKN004 OVC026 10/08 Q1017 NOSIG=
0169583670999992014010718304+31198+121336FM-15+000399999V0202901N004010012219N002000199+00901+00801999999ADDGA1071+001221991GA2081+007921991GF199999071990001221991991MA1101701999990MW1101MW2611REMMET072METAR ZSSS 071830Z 29004MPS 2000 -RA BR BKN004 OVC026 09/08 Q1017 NOSIG=
0169583670999992014010719004+31198+121336FM-15+000399999V0202901N005010009119N002000199+00901+00801999999ADDGA1071+000911991GA2081+007921991GF199999071990000911991991MA1101701999990MW1101MW2611REMMET072METAR ZSSS 071900Z 29005MPS 2000 -RA BR BKN003 OVC026 09/08 Q1017 NOSIG=
0169583670999992014010719304+31198+121336FM-15+000399999V0203001N005010009119N002000199+01001+00801999999ADDGA1071+000911991GA2081+007921991GF199999071990000911991991MA1101701999990MW1101MW2611REMMET072METAR ZSSS 071930Z 30005MPS 2000 -RA BR BKN003 OVC026 10/08 Q1017 NOSIG=
0169583670999992014010720004+31198+121336FM-15+000399999V0203201N006010009119N003000199+00901+00801999999ADDGA1071+000911991GA2081+007921991GF199999071990000911991991MA1101801999990MW1101MW2611REMMET072METAR ZSSS 072000Z 32006MPS 3000 -RA BR BKN003 OVC026 09/08 Q1018 NOSIG=
0169583670999992014010720304+31198+121336FM-15+000399999V0203201N006010012219N004000199+00901+00801999999ADDGA1071+001221991GA2081+007921991GF199999071990001221991991MA1101801999990MW1101MW2611REMMET072METAR ZSSS 072030Z 32006MPS 4000 -RA BR BKN004 OVC026 09/08 Q1018 NOSIG=
0195583670999992014010721004+31198+121336FM-15+000399999V0203301N006010012219N005000199+00901+00801999999ADDGA1071+001221991GA2081+007921991GF199999071990001221991991MA1101801999990MW1101MW2611REMMET098METAR ZSSS 072100Z 33006MPS 5000 -RA BR BKN004 OVC026 09/08 Q1018 BECMG      TL2130 BKN006 OVC026=
0169583670999992014010721304+31198+121336FM-15+000399999V0203401N005010018319N005000199+00901+00801999999ADDGA1071+001831991GA2081+007921991GF199999071990001831991991MA1101901999990MW1101MW2611REMMET072METAR ZSSS 072130Z 34005MPS 5000 -RA BR BKN006 OVC026 09/08 Q1019 NOSIG=
0169583670999992014010722004+31198+121336FM-15+000399999V0203401N006010021319N005000199+00901+00701999999ADDGA1071+002131991GA2081+007921991GF199999071990002131991991MA1101901999990MW1101MW2611REMMET072METAR ZSSS 072200Z 34006MPS 5000 -RA BR BKN007 OVC026 09/07 Q1019 NOSIG=
0160583670999992014010722304+31198+121336FM-15+000399999V0203501N007010024419N006000199+00801+00701999999ADDGA1071+002441991GA2081+009141991GF199999071990002441991991MA1102001999990MW1611REMMET069METAR ZSSS 072230Z 35007MPS 6000 -RA BKN008 OVC030 08/07 Q1020 NOSIG=
0186583670999992014010723004+31198+121336FM-15+000399999V0200101N008010027419N006000199+00801+00601999999ADDGA1071+002741991GA2081+009141991GF199999071990002741991991MA1102001999990MW1611REMMET095METAR ZSSS 072300Z 01008MPS 6000 -RA BKN009 OVC030 08/06 Q1020 BECMG      TL2340 BKN011 OVC030=
0160583670999992014010723304+31198+121336FM-15+000399999V0203601N008010033519N008000199+00801+00601999999ADDGA1071+003351991GA2081+009141991GF199999071990003351991991MA1102001999990MW1611REMMET069METAR ZSSS 072330Z 36008MPS 8000 -RA BKN011 OVC030 08/06 Q1020 NOSIG=
0186583670999992014010800004+31198+121336FM-15+000399999V0203601N008010033519N009999199+00801+00601999999ADDGA1071+003351991GA2081+012191991GF199999071990003351991991MA1102101999990MW1611REMMET095METAR ZSSS 080000Z 36008MPS 9999 -RA BKN011 OVC040 08/06 Q1021 BECMG      TL0140 BKN015 OVC040=
0160583670999992014010800304+31198+121336FM-15+000399999V0203601N008010039619N009999199+00801+00501999999ADDGA1071+003961991GA2081+012191991GF199999071990003961991991MA1102201999990MW1611REMMET069METAR ZSSS 080030Z 36008MPS 9999 -RA BKN013 OVC040 08/05 Q1022 NOSIG=
0186583670999992014010801004+31198+121336FM-15+000399999V0203501N007010039619N009999199+00801+00501999999ADDGA1071+003961991GA2081+012191991GF199999071990003961991991MA1102301999990MW1611REMMET095METAR ZSSS 080100Z 35007MPS 9999 -RA BKN013 OVC040 08/05 Q1023 BECMG      TL0240 BKN015 OVC040=
0160583670999992014010801304+31198+121336FM-15+000399999V0203601N006010039619N009999199+00701+00501999999ADDGA1071+003961991GA2081+012191991GF199999071990003961991991MA1102301999990MW1611REMMET069METAR ZSSS 080130Z 36006MPS 9999 -RA BKN013 OVC040 07/05 Q1023 NOSIG=
0186583670999992014010802004+31198+121336FM-15+000399999V0203601N007010045719N009999199+00701+00501999999ADDGA1071+004571991GA2081+012191991GF199999071990004571991991MA1102401999990MW1611REMMET095METAR ZSSS 080200Z 36007MPS 9999 -RA BKN015 OVC040 07/05 Q1024 BECMG      TL0330 BKN013 OVC040=
0160583670999992014010802304+31198+121336FM-15+000399999V0203501N005010045719N009999199+00701+00501999999ADDGA1071+004571991GA2081+012191991GF199999071990004571991991MA1102401999990MW1611REMMET069METAR ZSSS 080230Z 35005MPS 9999 -RA BKN015 OVC040 07/05 Q1024 NOSIG=
0186583670999992014010803004+31198+121336FM-15+000399999V0203501N006010039619N009999199+00701+00501999999ADDGA1071+003961991GA2081+012191991GF199999071990003961991991MA1102401999990MW1611REMMET095METAR ZSSS 080300Z 35006MPS 9999 -RA BKN013 OVC040 07/05 Q1024 BECMG      TL0430 BKN015 OVC040=
0160583670999992014010803304+31198+121336FM-15+000399999V0203501N005010039619N009999199+00701+00501999999ADDGA1071+003961991GA2081+012191991GF199999071990003961991991MA1102401999990MW1611REMMET069METAR ZSSS 080330Z 35005MPS 9999 -RA BKN013 OVC040 07/05 Q1024 NOSIG=
0186583670999992014010804004+31198+121336FM-15+000399999V0203401N006010039619N009999199+00701+00501999999ADDGA1071+003961991GA2081+012191991GF199999071990003961991991MA1102301999990MW1611REMMET095METAR ZSSS 080400Z 34006MPS 9999 -RA BKN013 OVC040 07/05 Q1023 BECMG      TL0500 BKN015 OVC040=
0160583670999992014010804304+31198+121336FM-15+000399999V0203401N006010039619N009999199+00701+00501999999ADDGA1071+003961991GA2081+012191991GF199999071990003961991991MA1102301999990MW1611REMMET069METAR ZSSS 080430Z 34006MPS 9999 -RA BKN013 OVC040 07/05 Q1023 NOSIG=
0150583670999992014010805004+31198+121336FM-15+000399999V0203401N006010045719N009999199+00801+00501999999ADDGA1071+004571991GA2081+012191991GF199999071990004571991991MA1102301999990REMMET065METAR ZSSS 080500Z 34006MPS 9999 BKN015 OVC040 08/05 Q1023 NOSIG=
0150583670999992014010805304+31198+121336FM-15+000399999V0203501N005010045719N009999199+00701+00501999999ADDGA1071+004571991GA2081+012191991GF199999071990004571991991MA1102301999990REMMET065METAR ZSSS 080530Z 35005MPS 9999 BKN015 OVC040 07/05 Q1023 NOSIG=
0163583670999992014010806004+31198+121336FM-15+000399999V0203401V005010045719N009999199+00701+00501999999ADDGA1071+004571991GA2081+012191991GF199999071990004571991991MA1102301999990REMMET078METAR ZSSS 080600Z 34005MPS 290V360 9999 BKN015 OVC040 07/05 Q1023      NOSIG=
0160583670999992014010806304+31198+121336FM-15+000399999V0203301N007010045719N009999199+00701+00401999999ADDGA1071+004571991GA2081+012191991GF199999071990004571991991MA1102401999990MW1611REMMET069METAR ZSSS 080630Z 33007MPS 9999 -RA BKN015 OVC040 07/04 Q1024 NOSIG=
0160583670999992014010807004+31198+121336FM-15+000399999V0203401N007010045719N009999199+00701+00501999999ADDGA1071+004571991GA2081+012191991GF199999071990004571991991MA1102401999990MW1611REMMET069METAR ZSSS 080700Z 34007MPS 9999 -RA BKN015 OVC040 07/05 Q1024 NOSIG=
0160583670999992014010807304+31198+121336FM-15+000399999V0203401N007010033519N006000199+00701+00501999999ADDGA1071+003351991GA2081+012191991GF199999071990003351991991MA1102401999990MW1611REMMET069METAR ZSSS 080730Z 34007MPS 6000 -RA BKN011 OVC040 07/05 Q1024 NOSIG=
0186583670999992014010808004+31198+121336FM-15+000399999V0203601N008010033519N006000199+00601+00401999999ADDGA1071+003351991GA2081+012191991GF199999071990003351991991MA1102501999990MW1611REMMET095METAR ZSSS 080800Z 36008MPS 6000 -RA BKN011 OVC040 06/04 Q1025 BECMG      TL0830 BKN008 OVC040=
0160583670999992014010808304+31198+121336FM-15+000399999V0203601N007010033519N008000199+00601+00401999999ADDGA1071+003351991GA2081+012191991GF199999071990003351991991MA1102601999990MW1611REMMET069METAR ZSSS 080830Z 36007MPS 8000 -RA BKN011 OVC040 06/04 Q1026 NOSIG=
0186583670999992014010809004+31198+121336FM-15+000399999V0203501N007010033519N009999199+00601+00301999999ADDGA1071+003351991GA2081+012191991GF199999071990003351991991MA1102601999990MW1611REMMET095METAR ZSSS 080900Z 35007MPS 9999 -RA BKN011 OVC040 06/03 Q1026 BECMG      TL1040 BKN015 OVC040=
0150583670999992014010809304+31198+121336FM-15+000399999V0203601N008010039619N009999199+00501+00301999999ADDGA1071+003961991GA2081+012191991GF199999071990003961991991MA1102701999990REMMET065METAR ZSSS 080930Z 36008MPS 9999 BKN013 OVC040 05/03 Q1027 NOSIG=
0150583670999992014010810004+31198+121336FM-15+000399999V0203601N008010045719N009999199+00501+00201999999ADDGA1071+004571991GA2081+012191991GF199999071990004571991991MA1102701999990REMMET065METAR ZSSS 081000Z 36008MPS 9999 BKN015 OVC040 05/02 Q1027 NOSIG=
0150583670999992014010810304+31198+121336FM-15+000399999V0200101N008010045719N009999199+00501+00201999999ADDGA1071+004571991GA2081+012191991GF199999071990004571991991MA1102801999990REMMET065METAR ZSSS 081030Z 01008MPS 9999 BKN015 OVC040 05/02 Q1028 NOSIG=
0150583670999992014010811004+31198+121336FM-15+000399999V0203601N007010048819N009999199+00501+00101999999ADDGA1071+004881991GA2081+012191991GF199999071990004881991991MA1102801999990REMMET065METAR ZSSS 081100Z 36007MPS 9999 BKN016 OVC040 05/01 Q1028 NOSIG=
0127583670999992014010811304+31198+121336FM-15+000399999V0200101N006010061019N009999199+00501+00101999999ADDGA1071+006101991GF199999071990006101991991MA1102801999990REMMET058METAR ZSSS 081130Z 01006MPS 9999 BKN020 05/01 Q1028 NOSIG=
0127583670999992014010812004+31198+121336FM-15+000399999V0203601N007019999999N009999199+00501+00101999999ADDGA1041+007921991GF199999041990007921991991MA1102801999990REMMET058METAR ZSSS 081200Z 36007MPS 9999 SCT026 05/01 Q1028 NOSIG=
0127583670999992014010812304+31198+121336FM-15+000399999V0203601N007010091419N009999199+00401+00001999999ADDGA1071+009141991GF199999071990009141991991MA1102901999990REMMET058METAR ZSSS 081230Z 36007MPS 9999 BKN030 04/00 Q1029 NOSIG=
0128583670999992014010813004+31198+121336FM-15+000399999V0203601N007010091419N009999199+00401+00001999999ADDGA1071+009141991GF199999071990009141991991MA1102901999990REMMET059METAR ZSSS 081300Z 36007MPS 9999 BKN030 04/M00 Q1029 NOSIG=
0128583670999992014010813304+31198+121336FM-15+000399999V0203601N006019999999N009999199+00401-00101999999ADDGA1041+009141991GF199999041990009141991991MA1102901999990REMMET059METAR ZSSS 081330Z 36006MPS 9999 SCT030 04/M01 Q1029 NOSIG=
0128583670999992014010814004+31198+121336FM-15+000399999V0203601N004019999999N009999199+00301-00101999999ADDGA1041+009141991GF199999041990009141991991MA1102901999990REMMET059METAR ZSSS 081400Z 36004MPS 9999 SCT030 03/M01 Q1029 NOSIG=
0128583670999992014010814304+31198+121336FM-15+000399999V0203501N004019999999N009999199+00401-00101999999ADDGA1041+009141991GF199999041990009141991991MA1103001999990REMMET059METAR ZSSS 081430Z 35004MPS 9999 SCT030 04/M01 Q1030 NOSIG=
0128583670999992014010815004+31198+121336FM-15+000399999V0203501N004019999999N009999199+00301-00101999999ADDGA1041+010061991GF199999041990010061991991MA1103001999990REMMET059METAR ZSSS 081500Z 35004MPS 9999 SCT033 03/M01 Q1030 NOSIG=
0128583670999992014010815304+31198+121336FM-15+000399999V0203501N004019999999N009999199+00301-00101999999ADDGA1041+010061991GF199999041990010061991991MA1103001999990REMMET059METAR ZSSS 081530Z 35004MPS 9999 SCT033 03/M01 Q1030 NOSIG=
0128583670999992014010816004+31198+121336FM-15+000399999V0203501N004019999999N009999199+00301-00101999999ADDGA1041+010061991GF199999041990010061991991MA1103001999990REMMET059METAR ZSSS 081600Z 35004MPS 9999 SCT033 03/M01 Q1030 NOSIG=
0128583670999992014010816304+31198+121336FM-15+000399999V0203501N005019999999N009999199+00301-00201999999ADDGA1021+010061991GF199999021990010061991991MA1103001999990REMMET059METAR ZSSS 081630Z 35005MPS 9999 FEW033 03/M02 Q1030 NOSIG=
0128583670999992014010817004+31198+121336FM-15+000399999V0203501N005019999999N009999199+00301-00201999999ADDGA1021+010061991GF199999021990010061991991MA1103001999990REMMET059METAR ZSSS 081700Z 35005MPS 9999 FEW033 03/M02 Q1030 NOSIG=
0080583670999992014010817304+31198+121336FM-15+000399999V0203601N006019999999Y999999999+00301-00201999999ADDMA1103001999990REMMET053METAR ZSSS 081730Z 36006MPS CAVOK 03/M02 Q1030 NOSIG=
0080583670999992014010818004+31198+121336FM-15+000399999V0203601N006019999999Y999999999+00201-00201999999ADDMA1103101999990REMMET053METAR ZSSS 081800Z 36006MPS CAVOK 02/M02 Q1031 NOSIG=
0080583670999992014010818304+31198+121336FM-15+000399999V0203601N005019999999Y999999999+00201-00301999999ADDMA1103101999990REMMET053METAR ZSSS 081830Z 36005MPS CAVOK 02/M03 Q1031 NOSIG=
0080583670999992014010819004+31198+121336FM-15+000399999V0203501N004019999999Y999999999+00201-00301999999ADDMA1103101999990REMMET053METAR ZSSS 081900Z 35004MPS CAVOK 02/M03 Q1031 NOSIG=
0080583670999992014010819304+31198+121336FM-15+000399999V0203501N005019999999Y999999999+00201-00201999999ADDMA1103101999990REMMET053METAR ZSSS 081930Z 35005MPS CAVOK 02/M02 Q1031 NOSIG=
0080583670999992014010820004+31198+121336FM-15+000399999V0203601N004019999999Y999999999+00201-00201999999ADDMA1103101999990REMMET053METAR ZSSS 082000Z 36004MPS CAVOK 02/M02 Q1031 NOSIG=
0080583670999992014010820304+31198+121336FM-15+000399999V0203601N004019999999Y999999999+00101-00301999999ADDMA1103101999990REMMET053METAR ZSSS 082030Z 36004MPS CAVOK 01/M03 Q1031 NOSIG=
0080583670999992014010821004+31198+121336FM-15+000399999V0203501N003019999999Y999999999+00101-00301999999ADDMA1103201999990REMMET053METAR ZSSS 082100Z 35003MPS CAVOK 01/M03 Q1032 NOSIG=
0080583670999992014010821304+31198+121336FM-15+000399999V0203401N003019999999Y999999999+00101-00301999999ADDMA1103201999990REMMET053METAR ZSSS 082130Z 34003MPS CAVOK 01/M03 Q1032 NOSIG=
0080583670999992014010822304+31198+121336FM-15+000399999V0203401N004019999999Y999999999+00101-00401999999ADDMA1103201999990REMMET053METAR ZSSS 082230Z 34004MPS CAVOK 01/M04 Q1032 NOSIG=
0080583670999992014010823004+31198+121336FM-15+000399999V0203301N003019999999Y999999999+00101-00401999999ADDMA1103301999990REMMET053METAR ZSSS 082300Z 33003MPS CAVOK 01/M04 Q1033 NOSIG=
0080583670999992014010823304+31198+121336FM-15+000399999V0203501N002019999999Y999999999+00101-00301999999ADDMA1103301999990REMMET053METAR ZSSS 082330Z 35002MPS CAVOK 01/M03 Q1033 NOSIG=
0080583670999992014010900004+31198+121336FM-15+000399999V0203601N004019999999Y999999999+00201-00301999999ADDMA1103301999990REMMET053METAR ZSSS 090000Z 36004MPS CAVOK 02/M03 Q1033 NOSIG=
0080583670999992014010900304+31198+121336FM-15+000399999V0203601N005019999999Y999999999+00301-00401999999ADDMA1103401999990REMMET053METAR ZSSS 090030Z 36005MPS CAVOK 03/M04 Q1034 NOSIG=
0080583670999992014010901004+31198+121336FM-15+000399999V0200101N006019999999Y999999999+00301-00401999999ADDMA1103401999990REMMET053METAR ZSSS 090100Z 01006MPS CAVOK 03/M04 Q1034 NOSIG=
0080583670999992014010901304+31198+121336FM-15+000399999V0203601N006019999999Y999999999+00401-00501999999ADDMA1103401999990REMMET053METAR ZSSS 090130Z 36006MPS CAVOK 04/M05 Q1034 NOSIG=
0128583670999992014010902004+31198+121336FM-15+000399999V0203601N006019999999N009999199+00401-00501999999ADDGA1021+012191991GF199999021990012191991991MA1103401999990REMMET059METAR ZSSS 090200Z 36006MPS 9999 FEW040 04/M05 Q1034 NOSIG=
0128583670999992014010902304+31198+121336FM-15+000399999V0203601N006019999999N009999199+00401-00601999999ADDGA1021+012191991GF199999021990012191991991MA1103401999990REMMET059METAR ZSSS 090230Z 36006MPS 9999 FEW040 04/M06 Q1034 NOSIG=
0136583670999992014010903004+31198+121336FM-15+000399999V0200101V005019999999N009999199+00501-00601999999ADDGA1021+012191991GF199999021990012191991991MA1103301999990REMMET067METAR ZSSS 090300Z 01005MPS 340V040 9999 FEW040 05/M06 Q1033 NOSIG=
0136583670999992014010903304+31198+121336FM-15+000399999V0200201V006019999999N009999199+00501-00701999999ADDGA1021+012191991GF199999021990012191991991MA1103301999990REMMET067METAR ZSSS 090330Z 02006MPS 350V050 9999 FEW040 05/M07 Q1033 NOSIG=
0136583670999992014010904004+31198+121336FM-15+000399999V0200101V006019999999N009999199+00501-00601999999ADDGA1021+012191991GF199999021990012191991991MA1103301999990REMMET067METAR ZSSS 090400Z 01006MPS 330V050 9999 FEW040 05/M06 Q1033 NOSIG=
0128583670999992014010904304+31198+121336FM-15+000399999V0203501N006019999999N009999199+00601-00601999999ADDGA1021+012191991GF199999021990012191991991MA1103201999990REMMET059METAR ZSSS 090430Z 35006MPS 9999 FEW040 06/M06 Q1032 NOSIG=
0136583670999992014010905004+31198+121336FM-15+000399999V0203601V006019999999N009999199+00501-00601999999ADDGA1041+012191991GF199999041990012191991991MA1103201999990REMMET067METAR ZSSS 090500Z 36006MPS 330V030 9999 SCT040 05/M06 Q1032 NOSIG=
0136583670999992014010905304+31198+121336FM-15+000399999V0200201V006019999999N009999199+00501-00701999999ADDGA1021+012191991GF199999021990012191991991MA1103101999990REMMET067METAR ZSSS 090530Z 02006MPS 350V050 9999 FEW040 05/M07 Q1031 NOSIG=
0088583670999992014010906004+31198+121336FM-15+000399999V0200101V006019999999Y999999999+00501-00701999999ADDMA1103101999990REMMET061METAR ZSSS 090600Z 01006MPS 350V050 CAVOK 05/M07 Q1031 NOSIG=
0088583670999992014010906304+31198+121336FM-15+000399999V0203601V004019999999Y999999999+00501-00701999999ADDMA1103101999990REMMET061METAR ZSSS 090630Z 36004MPS 340V040 CAVOK 05/M07 Q1031 NOSIG=
0080583670999992014010907004+31198+121336FM-15+000399999V0203601N006019999999Y999999999+00501-00801999999ADDMA1103101999990REMMET053METAR ZSSS 090700Z 36006MPS CAVOK 05/M08 Q1031 NOSIG=
0088583670999992014010907304+31198+121336FM-15+000399999V0200501V004019999999Y999999999+00501-00801999999ADDMA1103101999990REMMET061METAR ZSSS 090730Z 05004MPS 010V090 CAVOK 05/M08 Q1031 NOSIG=
0088583670999992014010908004+31198+121336FM-15+000399999V0200401V005019999999Y999999999+00401-00701999999ADDMA1103101999990REMMET061METAR ZSSS 090800Z 04005MPS 010V070 CAVOK 04/M07 Q1031 NOSIG=
0088583670999992014010908304+31198+121336FM-15+000399999V0200501V005019999999Y999999999+00401-00701999999ADDMA1103101999990REMMET061METAR ZSSS 090830Z 05005MPS 020V080 CAVOK 04/M07 Q1031 NOSIG=
0080583670999992014010909004+31198+121336FM-15+000399999V0200201N005019999999Y999999999+00301-00701999999ADDMA1103201999990REMMET053METAR ZSSS 090900Z 02005MPS CAVOK 03/M07 Q1032 NOSIG=
0080583670999992014010909304+31198+121336FM-15+000399999V0200501N005019999999Y999999999+00401-00701999999ADDMA1103201999990REMMET053METAR ZSSS 090930Z 05005MPS CAVOK 04/M07 Q1032 NOSIG=
0080583670999992014010910004+31198+121336FM-15+000399999V0200501N004019999999Y999999999+00301-00701999999ADDMA1103201999990REMMET053METAR ZSSS 091000Z 05004MPS CAVOK 03/M07 Q1032 NOSIG=
0080583670999992014010910304+31198+121336FM-15+000399999V0200301N004019999999Y999999999+00301-00701999999ADDMA1103301999990REMMET053METAR ZSSS 091030Z 03004MPS CAVOK 03/M07 Q1033 NOSIG=
0080583670999992014010911004+31198+121336FM-15+000399999V0200401N003019999999Y999999999+00301-00701999999ADDMA1103301999990REMMET053METAR ZSSS 091100Z 04003MPS CAVOK 03/M07 Q1033 NOSIG=
0080583670999992014010911304+31198+121336FM-15+000399999V0200501N003019999999Y999999999+00301-00701999999ADDMA1103301999990REMMET053METAR ZSSS 091130Z 05003MPS CAVOK 03/M07 Q1033 NOSIG=
0080583670999992014010912004+31198+121336FM-15+000399999V0200401N003019999999Y999999999+00301-00601999999ADDMA1103401999990REMMET053METAR ZSSS 091200Z 04003MPS CAVOK 03/M06 Q1034 NOSIG=
0088583670999992014010912304+31198+121336FM-15+000399999V0200601V003019999999Y999999999+00301-00601999999ADDMA1103301999990REMMET061METAR ZSSS 091230Z 06003MPS 030V100 CAVOK 03/M06 Q1033 NOSIG=
0088583670999992014010913004+31198+121336FM-15+000399999V0200801V003019999999Y999999999+00301-00601999999ADDMA1103401999990REMMET061METAR ZSSS 091300Z 08003MPS 360V120 CAVOK 03/M06 Q1034 NOSIG=
0088583670999992014010913304+31198+121336FM-15+000399999V0200901V003019999999Y999999999+00301-00701999999ADDMA1103301999990REMMET061METAR ZSSS 091330Z 09003MPS 030V130 CAVOK 03/M07 Q1033 NOSIG=
0080583670999992014010914004+31198+121336FM-15+000399999V0209999V003019999999Y999999999+00301-00701999999ADDMA1103301999990REMMET053METAR ZSSS 091400Z VRB03MPS CAVOK 03/M07 Q1033 NOSIG=
0088583670999992014010914304+31198+121336FM-15+000399999V0201101V003019999999Y999999999+00201-00701999999ADDMA1103301999990REMMET061METAR ZSSS 091430Z 11003MPS 060V140 CAVOK 02/M07 Q1033 NOSIG=
0088583670999992014010915004+31198+121336FM-15+000399999V0201101V003019999999Y999999999+00301-00701999999ADDMA1103301999990REMMET061METAR ZSSS 091500Z 11003MPS 070V150 CAVOK 03/M07 Q1033 NOSIG=
0088583670999992014010915304+31198+121336FM-15+000399999V0200901V002019999999Y999999999+00201-00701999999ADDMA1103301999990REMMET061METAR ZSSS 091530Z 09002MPS 050V130 CAVOK 02/M07 Q1033 NOSIG=
0080583670999992014010916004+31198+121336FM-15+000399999V0209999V001019999999Y999999999+00201-00701999999ADDMA1103301999990REMMET053METAR ZSSS 091600Z VRB01MPS CAVOK 02/M07 Q1033 NOSIG=
0080583670999992014010916304+31198+121336FM-15+000399999V0201101N002019999999Y999999999+00201-00701999999ADDMA1103301999990REMMET053METAR ZSSS 091630Z 11002MPS CAVOK 02/M07 Q1033 NOSIG=
0080583670999992014010917004+31198+121336FM-15+000399999V0201001N002019999999Y999999999+00201-00701999999ADDMA1103301999990REMMET053METAR ZSSS 091700Z 10002MPS CAVOK 02/M07 Q1033 NOSIG=
0080583670999992014010917304+31198+121336FM-15+000399999V0200801N002019999999Y999999999+00201-00701999999ADDMA1103401999990REMMET053METAR ZSSS 091730Z 08002MPS CAVOK 02/M07 Q1034 NOSIG=
0080583670999992014010918004+31198+121336FM-15+000399999V0209999V001019999999Y999999999+00101-00701999999ADDMA1103401999990REMMET053METAR ZSSS 091800Z VRB01MPS CAVOK 01/M07 Q1034 NOSIG=
0080583670999992014010918304+31198+121336FM-15+000399999V0209999C000019999999Y999999999+00101-00701999999ADDMA1103401999990REMMET053METAR ZSSS 091830Z 00000MPS CAVOK 01/M07 Q1034 NOSIG=
0080583670999992014010919004+31198+121336FM-15+000399999V0202201N002019999999Y999999999+00001-00501999999ADDMA1103401999990REMMET053METAR ZSSS 091900Z 22002MPS CAVOK 00/M05 Q1034 NOSIG=
0129583670999992014010919304+31198+121336FM-15+000399999V0201801N001019999999N009999199+00001-00401999999ADDGA1041+012191991GF199999041990012191991991MA1103401999990REMMET060METAR ZSSS 091930Z 18001MPS 9999 SCT040 M00/M04 Q1034 NOSIG=
0128583670999992014010920004+31198+121336FM-15+000399999V0209999C000019999999N009999199+00001-00501999999ADDGA1021+012191991GF199999021990012191991991MA1103301999990REMMET059METAR ZSSS 092000Z 00000MPS 9999 FEW040 00/M05 Q1033 NOSIG=
0080583670999992014010920304+31198+121336FM-15+000399999V0200901N002019999999Y999999999+00101-00501999999ADDMA1103301999990REMMET053METAR ZSSS 092030Z 09002MPS CAVOK 01/M05 Q1033 NOSIG=
0080583670999992014010921004+31198+121336FM-15+000399999V0200901N002019999999Y999999999+00101-00501999999ADDMA1103301999990REMMET053METAR ZSSS 092100Z 09002MPS CAVOK 01/M05 Q1033 NOSIG=
0080583670999992014010921304+31198+121336FM-15+000399999V0200801N002019999999Y999999999+00201-00501999999ADDMA1103301999990REMMET053METAR ZSSS 092130Z 08002MPS CAVOK 02/M05 Q1033 NOSIG=
0080583670999992014010922004+31198+121336FM-15+000399999V0201001N001019999999Y999999999+00101-00601999999ADDMA1103301999990REMMET053METAR ZSSS 092200Z 10001MPS CAVOK 01/M06 Q1033 NOSIG=
0080583670999992014010922304+31198+121336FM-15+000399999V0201001N002019999999Y999999999+00101-00501999999ADDMA1103301999990REMMET053METAR ZSSS 092230Z 10002MPS CAVOK 01/M05 Q1033 NOSIG=
0080583670999992014010923004+31198+121336FM-15+000399999V0201001N002019999999Y999999999+00201-00601999999ADDMA1103401999990REMMET053METAR ZSSS 092300Z 10002MPS CAVOK 02/M06 Q1034 NOSIG=
0088583670999992014010923304+31198+121336FM-15+000399999V0201001V003019999999Y999999999+00201-00501999999ADDMA1103401999990REMMET061METAR ZSSS 092330Z 10003MPS 050V130 CAVOK 02/M05 Q1034 NOSIG=
0088583670999992014011000004+31198+121336FM-15+000399999V0201101V003019999999Y999999999+00301-00501999999ADDMA1103401999990REMMET061METAR ZSSS 100000Z 11003MPS 050V140 CAVOK 03/M05 Q1034 NOSIG=
0088583670999992014011000304+31198+121336FM-15+000399999V0201101V003019999999Y999999999+00401-00501999999ADDMA1103401999990REMMET061METAR ZSSS 100030Z 11003MPS 070V160 CAVOK 04/M05 Q1034 NOSIG=
0091583670999992014011001004+31198+121336FM-15+000399999V0201201N004019999999Y999999999+00401-00501999999ADDMA1103401999990OC100901REMMET056METAR ZSSS 100100Z 12004G09MPS CAVOK 04/M05 Q1034 NOSIG=
0099583670999992014011001304+31198+121336FM-15+000399999V0201301V004019999999Y999999999+00501-00601999999ADDMA1103401999990OC100901REMMET064METAR ZSSS 100130Z 13004G09MPS 100V160 CAVOK 05/M06 Q1034 NOSIG=
0099583670999992014011002004+31198+121336FM-15+000399999V0201301V005019999999Y999999999+00501-00601999999ADDMA1103401999990OC101001REMMET064METAR ZSSS 100200Z 13005G10MPS 100V170 CAVOK 05/M06 Q1034 NOSIG=
0080583670999992014011002304+31198+121336FM-15+000399999V0201501N004019999999Y999999999+00501-00601999999ADDMA1103401999990REMMET053METAR ZSSS 100230Z 15004MPS CAVOK 05/M06 Q1034 NOSIG=
0088583670999992014011003004+31198+121336FM-15+000399999V0201301V004019999999Y999999999+00601-00601999999ADDMA1103301999990REMMET061METAR ZSSS 100300Z 13004MPS 050V180 CAVOK 06/M06 Q1033 NOSIG=
0080583670999992014011003304+31198+121336FM-15+000399999V0201101N004019999999Y999999999+00701-00701999999ADDMA1103301999990REMMET053METAR ZSSS 100330Z 11004MPS CAVOK 07/M07 Q1033 NOSIG=
0088583670999992014011004004+31198+121336FM-15+000399999V0201301V004019999999Y999999999+00701-00901999999ADDMA1103201999990REMMET061METAR ZSSS 100400Z 13004MPS 090V190 CAVOK 07/M09 Q1032 NOSIG=
0088583670999992014011004304+31198+121336FM-15+000399999V0201501V004019999999Y999999999+00701-00801999999ADDMA1103201999990REMMET061METAR ZSSS 100430Z 15004MPS 090V200 CAVOK 07/M08 Q1032 NOSIG=
0088583670999992014011005004+31198+121336FM-15+000399999V0201401V004019999999Y999999999+00801-00701999999ADDMA1103201999990REMMET061METAR ZSSS 100500Z 14004MPS 070V230 CAVOK 08/M07 Q1032 NOSIG=
0088583670999992014011005304+31198+121336FM-15+000399999V0201801V004019999999Y999999999+00801-00601999999ADDMA1103101999990REMMET061METAR ZSSS 100530Z 18004MPS 140V210 CAVOK 08/M06 Q1031 NOSIG=
0088583670999992014011006004+31198+121336FM-15+000399999V0201601V004019999999Y999999999+00801-00701999999ADDMA1103101999990REMMET061METAR ZSSS 100600Z 16004MPS 120V180 CAVOK 08/M07 Q1031 NOSIG=
0080583670999992014011006304+31198+121336FM-15+000399999V0201501N004019999999Y999999999+00801-00701999999ADDMA1103001999990REMMET053METAR ZSSS 100630Z 15004MPS CAVOK 08/M07 Q1030 NOSIG=
0088583670999992014011007004+31198+121336FM-15+000399999V0201501V004019999999Y999999999+00801-00701999999ADDMA1103001999990REMMET061METAR ZSSS 100700Z 15004MPS 130V190 CAVOK 08/M07 Q1030 NOSIG=
0080583670999992014011007304+31198+121336FM-15+000399999V0201101N006019999999Y999999999+00801-00601999999ADDMA1102901999990REMMET053METAR ZSSS 100730Z 11006MPS CAVOK 08/M06 Q1029 NOSIG=
0088583670999992014011008004+31198+121336FM-15+000399999V0201101V004019999999Y999999999+00701-00601999999ADDMA1102901999990REMMET061METAR ZSSS 100800Z 11004MPS 070V150 CAVOK 07/M06 Q1029 NOSIG=
0080583670999992014011008304+31198+121336FM-15+000399999V0201101N005019999999Y999999999+00701-00601999999ADDMA1102901999990REMMET053METAR ZSSS 100830Z 11005MPS CAVOK 07/M06 Q1029 NOSIG=
0080583670999992014011009004+31198+121336FM-15+000399999V0200901N005019999999Y999999999+00601-00401999999ADDMA1103101999990REMMET053METAR ZSSS 100900Z 09005MPS CAVOK 06/M04 Q1031 NOSIG=
0080583670999992014011009304+31198+121336FM-15+000399999V0201001N006019999999Y999999999+00601-00301999999ADDMA1103001999990REMMET053METAR ZSSS 100930Z 10006MPS CAVOK 06/M03 Q1030 NOSIG=
0080583670999992014011010004+31198+121336FM-15+000399999V0201101N005019999999Y999999999+00601-00301999999ADDMA1103101999990REMMET053METAR ZSSS 101000Z 11005MPS CAVOK 06/M03 Q1031 NOSIG=
0088583670999992014011010304+31198+121336FM-15+000399999V0201001V004019999999Y999999999+00601-00401999999ADDMA1103201999990REMMET061METAR ZSSS 101030Z 10004MPS 070V130 CAVOK 06/M04 Q1032 NOSIG=
0080583670999992014011011004+31198+121336FM-15+000399999V0201001N004019999999Y999999999+00501-00301999999ADDMA1103201999990REMMET053METAR ZSSS 101100Z 10004MPS CAVOK 05/M03 Q1032 NOSIG=
0080583670999992014011011304+31198+121336FM-15+000399999V0201001N004019999999Y999999999+00601-00401999999ADDMA1103201999990REMMET053METAR ZSSS 101130Z 10004MPS CAVOK 06/M04 Q1032 NOSIG=
0080583670999992014011012004+31198+121336FM-15+000399999V0201001N004019999999Y999999999+00601-00301999999ADDMA1103201999990REMMET053METAR ZSSS 101200Z 10004MPS CAVOK 06/M03 Q1032 NOSIG=
0080583670999992014011012304+31198+121336FM-15+000399999V0201001N005019999999Y999999999+00601-00301999999ADDMA1103201999990REMMET053METAR ZSSS 101230Z 10005MPS CAVOK 06/M03 Q1032 NOSIG=
0080583670999992014011013004+31198+121336FM-15+000399999V0201001N004019999999Y999999999+00601-00301999999ADDMA1103201999990REMMET053METAR ZSSS 101300Z 10004MPS CAVOK 06/M03 Q1032 NOSIG=
0080583670999992014011013304+31198+121336FM-15+000399999V0201001N004019999999Y999999999+00601-00301999999ADDMA1103201999990REMMET053METAR ZSSS 101330Z 10004MPS CAVOK 06/M03 Q1032 NOSIG=
0080583670999992014011014004+31198+121336FM-15+000399999V0201001N005019999999Y999999999+00601-00301999999ADDMA1103201999990REMMET053METAR ZSSS 101400Z 10005MPS CAVOK 06/M03 Q1032 NOSIG=
0080583670999992014011014304+31198+121336FM-15+000399999V0200901N005019999999Y999999999+00601-00301999999ADDMA1103201999990REMMET053METAR ZSSS 101430Z 09005MPS CAVOK 06/M03 Q1032 NOSIG=
0080583670999992014011015004+31198+121336FM-15+000399999V0201001N004019999999Y999999999+00601-00201999999ADDMA1103201999990REMMET053METAR ZSSS 101500Z 10004MPS CAVOK 06/M02 Q1032 NOSIG=
0080583670999992014011015304+31198+121336FM-15+000399999V0200901N004019999999Y999999999+00601-00201999999ADDMA1103101999990REMMET053METAR ZSSS 101530Z 09004MPS CAVOK 06/M02 Q1031 NOSIG=
0080583670999992014011016004+31198+121336FM-15+000399999V0201001N004019999999Y999999999+00601-00201999999ADDMA1103101999990REMMET053METAR ZSSS 101600Z 10004MPS CAVOK 06/M02 Q1031 NOSIG=
0080583670999992014011016304+31198+121336FM-15+000399999V0201001N004019999999Y999999999+00601-00201999999ADDMA1103101999990REMMET053METAR ZSSS 101630Z 10004MPS CAVOK 06/M02 Q1031 NOSIG=
0080583670999992014011017004+31198+121336FM-15+000399999V0200901N004019999999Y999999999+00601-00101999999ADDMA1103101999990REMMET053METAR ZSSS 101700Z 09004MPS CAVOK 06/M01 Q1031 NOSIG=
